0106031000999991929103107004+56483-006867FM-12+000999999V0201701N009319999999N0200001N9+00721+00501102821ADDGA1011+999999019GF104991021051004501001081KA1999M+01061KA2999N+00281EQDQ01+000032APCTENQ02+000002APC3  
0051011060999991929022306004+67500+012067FM-12+001199999V0200901N00671220001CN0500001N9-00221+99999102171ADDAY101999GF101991011011017501001001MD1510001+9999
0065038280999991929102918004+50483-004100FM-12+019899999V0202701N012319999999N0200001N9+01111+00891100171ADDGA1011+999999019GF106991061031008001001001MD1310051+9999MW1251
0068032620999991929112506004+55017-001417FM-12+003399999V0201801N00461004501CN0040001N9+01111+99999099101ADDAA199001091AY161999GF106991061061004501001001MD1710141+9999MW1161
0115033960999991929111607004+53583-000117FM-12+000999999V0201201N009319999999N0100001N9+00671+00441098951ADDAA199000591GA1011+999999019GF107991061011012501011001KA1999M+99999KA2999N-00111MD1810051+9999EQDQ01 +00442ATMX  
0081104490999991929091606004+51483+010317FM-12+009099999V0209991C00001000151CN0000001N9+01281+01221102351ADDAA199000391AY141061GF108991081051000251999999KA1999N+01111MD1310061+9999MW1451
0064100460999991929080606004+54383+010150FM-12+002899999V0202001N00261007801CN0040001N9+01221+99999101761ADDAY111999GF106991061051008001031999KA1999N+00891MD1310141+9999
0086037770999991929082513004+51350-000117FM-12+006699999V0209991C000019999999N0200001N9+02281+01001102301ADDGA1011+999999019GF104991041011012501001001IA1009EQDQ01+000032APCTENQ02+000002APC3  
0096039660999991929121507004+53100-007900FM-12+005799999V0202301N001019999999N0200001N9+00441+00221102791ADDAA124999999GA1011+999999019GF102991021051012501001001KA1999M+01111KA2999N+00391MD1310101+9999
0059030750999991929100818004+58450-003083FM-12+003699999V0202701N001019999999N0200001N9+00611+00391099891ADDGA1011+999999019GF104991021051012501001081MD1310151+9999
0059035220999991929110213004+51850-001550FM-12+018799999V0201701N002619999999N0100001N9+00561+00331102561ADDGA1011+999999019GF107991071051017501001001MD1810151+9999
0081103380999991929103018004+52417+009750FM-12+005199999V0202901N00261004501CN0040001N9+00781+99999100751ADDAA199002091AY161999GF108991081061004501999999KA1999M+01001MD1310261+9999MW1611
0024990061999991929102803004+62000-033000SAO  +00004YA  V02099999999999999999N0000001N1+02241+01741999999ADDMA1999999101691MW1001
0078070050999991929070612004+50133+001850FM-12+007199999V0202901N00931001501CN0100001N9+01721+99999101361ADDAY181999GF107991071091001501999999MW1801EQDQ01+000042APCTENQ02+000062APC3  
0080038940999991929102218004+49450-002550FM-12+010499999V0202901N001019999999N0040001N9+01111+00891101101ADDGA1011+999999019GF104991041051012501001001EQDQ01+000032APCTENQ02+000002APC3  
0051070050999991929022312004+50133+001850FM-12+007199999V0202501N002619999999N0040001N9+00781+99999100821ADDAY121999GF108991999999004501999999MD1810141+9999
0059038560999991929111101004+50533-002450FM-12+001099999V0202701N012319999999N0200001N9+01001+00391101841ADDGA1011+999999019GF104991041051004501001001MD1310051+9999
0065039730999991929101413004+54100-010067FM-12+000599999V0209991C000019999999N0200001N9+01441+01331102211ADDGA1011+999999019GF108991081061999999999999MD1310101+9999MW1511
0081105010999991929021806004+50783+006100FM-12+006399999V0209999900101030001CN0010001N9-00721-00891102691ADDAA199000691AY171061GF108991041051017501021001KA1999N-01001MD1310061+9999MW1101
0035071100999991929103118004+48283-004433FM-12+009799999V0203601N004619999999N9999999N9+00781+99999102901EQDQ01+000032APCTENQ02+000002APC3  
0121035310999991929122107004+52483-001933FM-12+016399999V0201601N009319999999N0100001N9+00391+00281098781ADDAA199007091GA1011+999999019GF108991081061004501999999KA1999M+99999KA2999N+00111MD1810351+9999MW1631EQDQ01 +00222ATMX  
0059031000999991929112518004+56483-006867FM-12+000999999V0202101N004619999999N0200001N9+00671+00441097941ADDGA1011+999999019GF102991021051012501011001MD1810101+9999
0057104270999991929122412004+51183+008483FM-12+025799999V0201801N00931000151CN0000501N9-00111-00171999999ADDAY171061GF108991081061000251999999MD1310061+9999MW1731
0102033230999991929102607004+53350-002883FM-12+002499999V0201601N001019999999N0020001N9+00501+00391100151ADDAA199001091GA1011+999999019GF106991061051004501001001KA1999M+00831KA2999N+00331MD1310301+9999MW1161
0059031000999991929102318004+56483-006867FM-12+000999999V0202601N009319999999N0100001N9+01061+00831098211ADDGA1011+999999019GF107991061051002501011001MD1810051+9999
0102039530999991929101707004+51933-010250FM-12+000999999V0203001N004619999999N0200001N9+01171+00941101691ADDAA124999999GA1011+999999019GF107991021051004501031001KA1999M+01391KA2999N+01171MD1310101+9999MW1251
0075104490999991929061506004+51483+010317FM-12+009099999V0209999900671075001CN0200001N9+01501+01061101901ADDAA199002091AY191061GF106991041051012501001021KA1999N+01221MD1310141+9999
0075101270999991929082506004+53533+008150FM-12+000499999V0209991C00001220001CN0100001N9+01391+99999101831ADDAA199002091AY161999GF104991001001999999001071KA1999N+01221MD1310141+9999
0065038040999991929120918004+49933-006300FM-12+005099999V0202901N019019999999N0100001N9+00671+00281099851ADDGA1011+999999019GF106991061031012501001001MD1310201+9999MW1251
0051108650999991929081512004+48183+011550FM-12+015599999V0200901N00261220001CN0200001N9+02721+01441101551ADDAY101061GF102991001001999999031091MD1810061+9999
0085034970999991929121607004+52583+001733FM-12+000299999V0202901N002619999999N0040001N9+00171+00111103301ADDGA1011+999999019GF102991021051004501001001KA1999M+00781KA2999N+00111MD1310101+9999
0081107270999991929112606004+49017+008383FM-12+011899999V0202301N00261007801CN0020001N9+00891+99999101491ADDAA199004091AY161061GF108991081061008001999999KA1999N+00611MD1210061+9999MW1611
0065036970999991929112213004+51950+001333FM-12+000399999V0201401N006719999999N0100001N9+01061+00831100331ADDGA1011+999999019GF107991071051017501001001IA1089MD1810151+9999
0065033790999991929110113004+53033-000500FM-12+006299999V0202701N001019999999N0040001N9+00891+00441102991ADDGA1011+999999019GF101991011011012501001001IA1089MD1810101+9999
0059036270999991929111318004+51917-002583FM-12+006899999V0202701N002619999999N0200001N9+00281-00111100071ADDGA1011+999999019GF101991011051012501001001MD1310101+9999
0106036270999991929101707004+51917-002583FM-12+006899999V0202501N004619999999N0100001N9+01171+00941101691ADDGA1011+999999019GF106991041051012501001011KA1999M+01671KA2999N+01001EQDQ01+000032APCTENQ02+000002APC3  
0024990061999991929110212004+62000-033000SAO  +00004YA  V02099999999999999999N0000001N1+02521+01301999999ADDMA1999999101661MW1001
0037104400999991929101006004+51200+010033FM-12+004899999V0209999900931007801CN0100001N9+99999+99999999999ADDAY181061GF108991081061008001999999
0072101200999991929092506004+54183+007883FM-12+005099999V0201801N00101220001CN0200001N9+01281+99999103391ADDAY101999GF100991001001999999001001EQDQ01+000032APCTENQ02+000002APC3  
0059033480999991929120418004+53983-001550FM-12+014699999V0202001N004619999999N0020001N9+00721+00501099801ADDGA1011+999999019GF104991041051008001001001MD1310051+9999
0024990061999991929122811004+62000-033000SAO  +00004YA  V02099999999999999999N0000001N1+02351+01571999999ADDMA1999999101421MW1001
0081267020999991929090618004+54733+020567FM-12+002099999V0202901N004619999999N0200001N9+01221+99999100391ADDAA199005091AY181999GF106991021081004501999999KA1999M+02001MD1510061+9999MW1801
0065033110999991929120313004+53317-004617FM-12+000899999V0201801N009319999999N0100001N9+01061+00611099641ADDGA1011+999999019GF101991011011004501001001IA1089MD1310051+9999
0085039730999991929111807004+54100-010067FM-12+000599999V0201801N006719999999N0200001N9+00501+00111101031ADDGA1011+999999019GF108991081051999999999999KA1999M+00831KA2999N+00391MD1810201+9999
0085100460999991929101406004+54383+010150FM-12+002899999V0202301N002619999999N0040001N9+01221+99999102541ADDAY111999GF108991021011004501011999KA1999N+01111EQDQ01+000032APCTENQ02+000002APC3  
0080036010999991929111313004+51683-005167FM-12+004399999V0203201N006719999999N0200001N9+00721+00501099971ADDGA1011+999999019GF104991041011012501001001EQDQ01+000032APCTENQ02+000002APC3  
0061108650999991929060306004+48183+011550FM-12+015599999V0209999900671012301CN0100001N9+01611+00941101661ADDAA199000591AY101061GF106991061051012501031001KA1999N+01221
0081103380999991929101606004+52417+009750FM-12+001699999V0209999900101000151CN0000501N9+00611+00561102431ADDAA199000691AY141999GF108991081051000251999999KA1999N+00281MD1710061+9999MW1451
0059038280999991929110918004+50483-004100FM-12+019899999V0202301N009319999999N0100001N9+01171+00721101551ADDGA1011+999999019GF107991061031008001001081MD1810101+9999
0059038040999991929102801004+49933-006300FM-12+005099999V0202501N009319999999N0200001N9+01061+00831101631ADDGA1011+999999019GF104991041051012501001001MD1810151+9999
0064060410999991929091706004+57733+010633FM-12+000399999V0202701N00261220001CN0100001N9+01391+99999102421ADDGF102991001001999999999999EQDQ01+000032APCTENQ02+000002APC3  
0059038560999991929122918004+50533-002450FM-12+001099999V0202501N019019999999N0200001N9+00891+00441100731ADDGA1011+999999019GF104991041051008001001001MD1310351+9999
0077071500999991929092918004+48950+002433FM-12+004699999V0202901N00101220001CN0040001N9+01781+99999102161ADDGF101991001001999999999999KA1999M+02281EQDQ01+000032APCTENQ02+000002APC3  
0080039800999991929112918004+55367-007333FM-12+002699999V0200701N004619999999N0100001N9+00831+00721099401ADDGA1011+999999019GF106991061051012501001001EQDQ01+000032APCTENQ02+000002APC3  
0081108660999991929110106004+48183+011550FM-12+052099999V0200701N00101001501CN0010001N9+00391+99999102221ADDAA199004091AY161061GF108991081061001501999999KA1999N+00391MD1310141+9999MW1611
0070104530999991929091906004+51800+010617FM-12+034899999V0209999901231000151CN0000501N9+01001+00941999999ADDAY111061GF108991081051000251999999KA1999N+00891MD1210061+9999MW1431
0054061800999991929080206004+55617+012650FM-12+000199999V0202501N006719999999N0040001N9+01501+99999099841ADDAA199003091GF106991041061008001999999MD1310201+9999
0081101270999991929080806004+53533+008150FM-12+000499999V0200201N00101001501CN0100001N9+01501+99999101131ADDAA199015091AY161999GF106991061061001501001001KA1999N+01501MD1310061+9999MW1631
0024990061999991929102618004+62000-033000SAO  +00004YA  V02099999999999999999N0000001N1+02461+01691999999ADDMA1999999101461MW1001
0037104490999991929120212004+51483+010317FM-12+009099999V0202001N002619999999N0040001N9+00781+00561100751ADDAY181061GF107991999051002501001001
0051063100999991929022212004+51567-003500FM-12+000999999V0201801N00261220001CN0040001N9+00221+99999102071ADDAY101999GF101991001001999999001081MD1810261+9999
0081108660999991929110318004+48183+011550FM-12+052099999V0203201N00101001501CN0020001N9+00611+99999102201ADDAA199000691AY121061GF108991081061001501999999KA1999M+00611MD1310141+9999MW1611
0117037950999991929112907004+51083+001017FM-12+010499999V0202001N004619999999N0020001N9+01061+01001100201ADDAA124999999GA1011+999999019GF108991081051001501999999KA1999M+01171KA2999N+01001EQDQ01+000032APCTENQ02+000002APC3  
0050106370999991929051506004+50050+008600FM-12+003499999V0209999900261220001CN0040001N9+01221+01001101701ADDAY101061GF101991001001999999001081KA1999N+00891
0059036010999991929110418004+51683-005167FM-12+004399999V0202501N009319999999N0200001N9+01171+01111102481ADDGA1011+999999019GF108991081051004501999999MD1810151+9999
0051061800999991929112818004+55617+012650FM-12+000199999V0201401N00461004501CN0040001N9+00501+99999101321ADDAY141999GF106991061051004501999999MD1810161+9999
0065038560999991929100313004+50533-002450FM-12+001099999V0202601N004619999999N0200001N9+01441+00781100201ADDGA1011+999999019GF107991061061004501011001MD1310101+9999MW1211
0106038040999991929101107004+49933-006300FM-12+005099999V0202801N009319999999N0100001N9+01331+01221102891ADDGA1011+999999019GF106991061051012501001001KA1999M+01391KA2999N+01281EQDQ01+000032APCTENQ02+000002APC3  
0065033110999991929121313004+53317-004617FM-12+000899999V0202301N009319999999N0020001N9+01111+01061101791ADDGA1011+999999019GF108991081051000751999999IA1089MD1810201+9999
0096034970999991929120607004+52583+001733FM-12+000299999V0202401N006719999999N0100001N9+00721+00501099451ADDAA199008091GA1011+999999019GF102991001001999999001091KA1999M+01001KA2999N+00671MD1310201+9999
0064109350999991929100318004+47650+009483FM-12+040099999V0202001N00461220001CN0100001N9+02001+99999101261ADDAY111061GF104991021051017501001011KA1999M+02501MD1310141+9999
0064109350999991929121118004+47650+009483FM-12+040099999V0202501N00931012301CN0500001N9+01001+99999101511ADDAY121061GF107991071061012501001001KA1999M+01001MD1110061+9999
0081108650999991929032406004+48183+011550FM-12+015599999V0209999900101001501CN0010001N9+00611+00561102631ADDAA199004091AY161061GF108991081061001501999999KA1999N+00611MD1310141+9999MW1511
0064103840999991929090706004+52483+013433FM-12+004899999V0203201N00461220001CN0100001N9+01221+99999101981ADDAY101999GF102991021011008001001001KA1999N+00891MD1310141+9999
0059030260999991929111201004+58217-006333FM-12+000399999V0203201N006719999999N0200001N9+99999+99999097811ADDGA1011+999999019GF102991999999999999999999MD1310051+9999
0024990061999991929122714004+62000-033000SAO  +00004YA  V02099999999999999999N0000001N1+02241+01571999999ADDMA1999999101321MW1001
0115030910999991929112007004+57167-002200FM-12+007199999V0202001N004619999999N0200001N9+01001+00561099241ADDAA199006091GA1011+999999019GF106991061061004501001001KA1999M+99999KA2999N+00561MD1310301+9999EQDQ01 +00782ATMX  
0084031000999991929112413004+56483-006867FM-12+000999999V0202501N012319999999N0100001N9+01001+00561098921ADDGA1011+999999019GF106991041031008001001081IA1089MD1310502+9999EQDQ01+000502APC3  
0059031620999991929110813004+55317-003200FM-12+024299999V0202701N006719999999N0200001N9+00721+00111100441ADDGA1011+999999019GF102991021011008001001001MD1310151+9999
0065038110999991929100301004+50133-005033FM-12+006199999V0202501N006719999999N0100001N9+01221+01111100361ADDGA1011+999999019GF108991081051012501999999MD1810151+9999MW1211
0037070050999991929090412004+50133+001850FM-12+007199999V0209991C000019999999N0020001N9+03111+99999101221ADDAY121999GF106991999999999999999999
0024990061999991929102120004+62000-033000SAO  +00004YA  V02099999999999999999N0000001N1+02351+01571999999ADDMA1999999101221MW1001
0075070050999991929102606004+50133+001850FM-12+007199999V0209991C000019999999N0100001N9+00391+99999099831ADDAA199001091AY121999GF108991999999012501999999KA1999N+00391MD1310141+9999
0065033790999991929112201004+53033-000500FM-12+006299999V0201601N006719999999N0020001N9+00611+00561100331ADDGA1011+999999019GF106991001001999999011999MD1810051+9999MW1101
0057101200999991929122718004+54183+007883FM-12+005099999V0202001N01231000151CN0020001N9+00391+99999100431ADDAY161999GF108991081051000251999999MD1810141+9999MW1511
0043071100999991929081518004+48283-004433FM-12+009799999V0200501N00461220001CN0040001N9+01721+99999101821ADDGF106991001001999999999999MD1810081+9999
0065038940999991929120718004+49450-002550FM-12+010499999V0202701N004619999999N0040001N9+00941+00501100721ADDGA1011+999999019GF104991041031008001001001MD1310401+9999MW1251
0024990061999991929122715004+62000-033000SAO  +00004YA  V02099999999999999999N0000001N1+02301+01521999999ADDMA1999999101221MW1001
0054014030999991929110118004+59300+004883FM-12+005699999V0201801N00931007801CN0200001N9+00721+99999102661ADDAA199000691GF108991081061008001999999MD1810041+9999
0059030750999991929101213004+58450-003083FM-12+003699999V0202701N012319999999N0200001N9+01561+00891101101ADDGA1011+999999019GF104991041051008001001011MD1810251+9999
0065033110999991929102613004+53317-004617FM-12+000899999V0203201N009319999999N0200001N9+01001+00561100661ADDGA1011+999999019GF104991041011008001001011IA1089MD1310101+9999
0062060410999991929091618004+57733+010633FM-12+000399999V0202501N00101220001CN0100001N9+01281+99999102501ADDGF101991011011999999999999MD1810161+9999EQDQ01+000992SCOLCB
0024990061999991929111817004+62000-033000SAO  +00004YA  V02099999999999999999N0000001N1+02131+00081999999ADDMA1999999101661MW1001
0085070050999991929090506004+50133+001850FM-12+007199999V0209991C00001220001CN0020001N9+01721+99999101541ADDAY111999GF101991001001999999001021KA1999N+01501EQDQ01+000042APCTENQ02+000142APC3  
0056108650999991929052206004+48183+011550FM-12+015599999V0209991C00001220001CN0010001N9+00891+00831101901ADDAY141061GF102991021051000751001001KA1999N+00391MW1101
0081108650999991929010206004+48183+011550FM-12+015599999V0209999900101001501CN0005001N9-00501-00561101181ADDAA199001091AY171061GF108991081061001501999999KA1999N-00611MD1810141+9999MW1711
0024990061999991929110714004+62000-033000SAO  +00004YA  V02099999999999999999N0000001N1+02241+01741999999ADDMA1999999101421MW1001
0024990061999991929122423004+62000-033000SAO  +00004YA  V02099999999999999999N0000001N1+01521+00741999999ADDMA1999999102071MW1001
0054060810999991929090806004+55550+008083FM-12+001599999V0203201N00461007801CN0200001N9+01501+99999102161ADDAA199000691GF108991081061008001999999MD1810161+9999
0064102240999991929122618004+53083+008783FM-12+000499999V0201801N00461220001CN0100001N9+00391+99999101231ADDAY111999GF102991021011008001001001KA1999M+00721MD1310141+9999
0096039660999991929112307004+53100-007900FM-12+005799999V0201801N004619999999N0100001N9+00721+00611098011ADDAA124999999GA1011+999999019GF107991071051012501001001KA1999M+01171KA2999N+00561MD1810101+9999
0064107270999991929091018004+49017+008383FM-12+011899999V0203601N00101220001CN0040001N9+02391+99999101841ADDAY101061GF102991001001999999001081KA1999M+02781MD1410001+9999
0067071500999991929111318004+48950+002433FM-12+004699999V0203201N00931002401CN0040001N9+00391+99999099391ADDAA199014091GF108991071061002501999999KA1999M+00611MD1310241+9999
0037108060999991929100306004+48633+008083FM-12+004599999V0209999901231220001CN0100001N9+99999+99999999999ADDAY101061GF104991041051017501999999
0056123750999991929092506004+52183+020967FM-12+013399999V0200901N00461220001CN0040001N9+00891+99999103311ADDGF101991001001999999999999KA1999N+00611MD1310241+9999
0059038560999991929122201004+50533-002450FM-12+001099999V0200701N004619999999N0100001N9+00671+00441098761ADDGA1011+999999019GF108991071051008001011999MD1810151+9999
0077333930999991929081806004+49817+023950FM-12+033999999V0200901N00101220001CN0040001N9+02281+99999101971ADDGF100991001001999999001001KA1999N+01391EQDQ01+000032APCTENQ02+000002APC3  
0078037770999991929120301004+51350-000117FM-12+006699999V0202501N006719999999N0100001N9+00721+00331100081ADDGA1011+999999019GF199999001001999999001001MD1310301+9999EQDQ01+000002SCOTCV
0072103380999991929100906004+52417+009750FM-12+001699999V0209999900671030001CN0100001N9+01281+01061100021ADDAY161999GF107991041051008001021001EQDQ01+000042APCTENQ02+000062APC3  
0024990061999991929101008004+62000-033000SAO  +00004YA  V02099999999999999999N0000001N1+02301+01571999999ADDMA1999999100781MW1001
0115036930999991929100707004+51533+000817FM-12+000399999V0202301N006719999999N0100001N9+00891+00671100741ADDAA199003091GA1011+999999019GF199999001001999999001001KA1999M+01501KA2999N+00831MD1310201+9999EQDQ01+000002SCOTCV
0051101200999991929081606004+54183+007883FM-12+005099999V0209991C000019999999N0100001N9+01611+99999101761ADDAY111999GF106991041051008001001081MD1810061+9999
0048038040999991929122206004+49933-006300FM-12+005099999V0203201N009319999999N0200001N9+00611+99999098701ADDAA199017091AY161999GF106991999999012501999999
0102039530999991929100407004+51933-010250FM-12+000999999V0202001N006719999999N0200001N9+00831+00611100352ADDAA124999999GA1011+999999019GF106991061061004501001001KA1999M+01281KA2999N+00721MD1810101+9999MW1251
0059038940999991929121301004+49450-002550FM-12+010499999V0202501N004619999999N0040001N9+01061+00941103181ADDGA1011+999999019GF102991001001999999031001MD1310101+9999
0067071500999991929102818004+48950+002433FM-12+004699999V0201401N00101004501CN0010001N9+00721+99999101251ADDAA199002091GF108991061061004501999999KA1999M+00891MD1810301+9999
0024990061999991929112413004+62000-033000SAO  +00004YA  V02099999999999999999N0000001N1+02131+01191999999ADDMA1999999101901MW1001
0059031590999991929100201004+56033-003133FM-12+005899999V0202501N006719999999N0200001N9+01221+01001098641ADDGA1011+999999019GF104991021051004501031001MD1810451+9999
0057014030999991929011812004+59300+004883FM-12+005799999V0202901N01231007801CN0100001N9+00281+99999099991ADDAY171999GF107991071061008001001001MD1110061+9999MW1831
0081109350999991929112718004+47650+009483FM-12+040099999V0202701N00101012301CN0100001N9+00891+99999102231ADDAA199001091AY181061GF108991081061012501999999KA1999M+00891MD1310061+9999MW1801
0061106350999991929121006004+50217+008450FM-12+024499999V0202901N006719999999N0100001N9+00001-00061999999ADDAA199004091AY121061GF108991999001001501001001KA1999N+00001
0054123750999991929113018004+52183+020967FM-12+013399999V0201801N00101220001CN0040001N9+00501+99999100831ADDAA199000691GF100991001001999999999999MD1810101+9999
0064108650999991929052806004+48183+011550FM-12+015599999V0209999900261220001CN0100001N9+01721+01281101541ADDAY101061GF102991011011022501021001KA1999N+01001MD1310141+9999
0065031710999991929102018004+56383-002883FM-12+001199999V0203401N002619999999N0200001N9+00781+00561099291ADDGA1011+999999019GF107991071051008001001001MD1310451+9999MW1611
0059031590999991929102513004+56033-003133FM-12+005899999V0202301N004619999999N0200001N9+00501+00281098771ADDGA1011+999999019GF104991021011012501031001MD1310151+9999
0096034970999991929092518004+52583+001733FM-12+000299999V0201401N006719999999N0100001N9+01611+00941103371ADDGA1011+999999019GF199999001001999999001001EQDQ01+000002SCOTCVQ02+000032APCTENQ03+000002APC3  
0064108650999991929082406004+48183+011550FM-12+015599999V02099999002619999999N0020001N9+01391+01171102511ADDAY111061GF108991999051008001001001KA1999N+01001MD1510001+9999
0059033790999991929102401004+53033-000500FM-12+006299999V0202001N012319999999N0100001N9+01221+01001099381ADDGA1011+999999019GF107991041051008001011999MD1810201+9999
0100264220999991929022306004+56983+024083FM-12+000299999V0200501N00461002401CN0020001N9-01001+99999101061ADDAA199001091AY171999GF108991081051002501999999KA1999N+99999MD1310061+9999MW1711EQDQ01 -00392ATMN  
0067115180999991929122818004+50100+014283FM-12+037199999V0202301N00101004501CN0040001N9+00221+99999101561ADDAA199000691GF106991061051004501999999KA1999M+00391MD1310161+9999
0059038560999991929101513004+50533-002450FM-12+001099999V0201401N002619999999N0040001N9+01441+01001102771ADDGA1011+999999019GF108991081051008001999999MD1810151+9999
0024990061999991929112614004+62000-033000SAO  +00004YA  V02099999999999999999N0000001N1+01961+00801999999ADDMA1999999101831MW1001
0059033230999991929122418004+53350-002883FM-12+002499999V0201501N006719999999N0040001N9+00501+00281099381ADDGA1011+999999019GF108991001001999999001071MD1810101+9999
0051033020999991929091706004+53317-004617FM-12+000899999V0209991C00001220001CN0040001N9+01221+99999102301ADDAY101999GF102991021051017501031001MD1610061+9999
0096037950999991929101501004+51083+001017FM-12+010499999V0203201N001019999999N0040001N9+01001+00891103051ADDGA1011+999999019GF199999001001999999001001EQDQ01+000002SCOTCVQ02+000032APCTENQ03+000002APC3  
0045030530999991929103118004+57600-003867FM-12+000099999V0202701N001019999999N0200001N9+00561+00171102421ADDGA1011+999999019GF106991061011008001001001
0081102240999991929112706004+53083+008783FM-12+000499999V0202301N00671002401CN0040001N9+00721+99999101171ADDAA199001091AY161999GF108991071061002501999999KA1999N+00721MD1310061+9999MW1601
0051104190999991929020906004+51217+007633FM-12+013699999V0209991C00001220001CN0100001N9-00391+99999102531ADDAY101061GF100991001001999999001001MD1810061+9999
0043061800999991929100418004+55617+012650FM-12+000199999V0202301N00461007801CN0040001N9+01281+99999100911ADDGF108991081051008001999999MD1310161+9999
0064107270999991929083018004+49017+008383FM-12+011899999V0209991C00001220001CN0200001N9+02721+99999101591ADDAY101061GF102991001001999999001081KA1999M+02891MD1810061+9999
0081104270999991929122906004+51183+008483FM-12+025799999V0209999900931000151CN0000501N9+00281+00221999999ADDAA199003091AY141061GF108991081051000251999999KA1999N-00111MD1810261+9999MW1451
0070122050999991929021212004+53400+014633FM-12+000199999V0200501N00101220001CN0200001N9-01611-02061102711ADDAY101999GF102991999001999999031001MD1810201+9999EQDQ01+000002SCOTLC
0051101200999991929112718004+54183+007883FM-12+005099999V0202701N009319999999N0100001N9+00781+99999101071ADDAY111999GF108991081051999999999999MD1310141+9999
0086034970999991929121418004+52583+001733FM-12+000299999V0202601N006719999999N0100001N9+01331+01111101921ADDGA1011+999999019GF108991081061008001999999MW1611EQDQ01+000032APCTENQ02+000002APC3  
0062265090999991929102718004+55717+021133FM-12+000399999V0202501N00101220001CN0000501N9+01001+99999100421ADDAA199003091AY111999GF104991041051008001001001MD1310141+9999
0059033230999991929111813004+53350-002883FM-12+002499999V0201601N006719999999N0020001N9+00221+00001101591ADDGA1011+999999019GF108991081051008001999999MD1810151+9999
0081038040999991929100406004+49933-006300FM-12+005099999V0202901N004619999999N0200001N9+01001+99999100901ADDAA199001091AY181999GF106991999011012501001001MD1310061+9999EQDQ01+000042SCOTLC
0064108650999991929062806004+48183+011550FM-12+015599999V02099999001019999999N0040001N9+01001+00781102071ADDAY111061GF108991999051004501001001KA1999N+00721MD1310061+9999
0065031710999991929121713004+56383-002883FM-12+001199999V0202501N002619999999N0040001N9+00441+00061103661ADDGA1011+999999019GF102991021051008001001001IA1139MD1810151+9999
0078034970999991929082713004+52583+001733FM-12+000299999V0201401N002619999999N0040001N9+01941+01501101341ADDGA1011+999999019GF199999001001999999001001MD1810151+9999EQDQ01+000002SCOTCV
0059039660999991929101618004+53100-007900FM-12+005799999V0202601N002619999999N0200001N9+01221+01001101531ADDGA1011+999999019GF107991071051008001001001MD1310051+9999
0051070050999991929052812004+50133+001850FM-12+007199999V0200901N00671220001CN0040001N9+02611+99999101661ADDAY111999GF102991021011012501001001MD1990061+9999
0100031000999991929122018004+56483-006867FM-12+000999999V0201801N026819999999N0040001N9+00501+00391097892ADDGA1011+999999019GF108991081061004501999999MD1811612+9999MW1891EQDQ01+097893APOSLPQ02+001612APC3  
0087039530999991929080406004+51933-010250FM-12+000999999V0203401N004619999999N0200001N9+01281+99999100261ADDAA199001091AY181999GF107991999051002501001001MD1310261+9999MW1801EQDQ01+000042SCOTLC
0085267020999991929010406004+54733+020567FM-12+000999999V0200701N00671007801CN0100001N9-00891-00941103441ADDAY121999GF108991081051008001999999KA1999N-01001EQDQ01+000042APCTENQ02+000062APC3  
0057101470999991929042412004+53633+010000FM-12+000599999V0202701N01541007801CN0200001N9+00611+00221100631ADDAY181999GF108991081061008001999999MD1810201+9999MW1801
0050104530999991929102306004+51800+010617FM-12+034899999V0209999900931220001CN0100001N9+00221+00171999999ADDAY141061GF102991999051002501999999KA1999N+00221
0080038880999991929121313004+50917+000967FM-12+000699999V0202501N002619999999N0100001N9+01111+01001102761ADDGA1011+999999019GF107991071051012501001001EQDQ01+000032APCTENQ02+000002APC3  
0024990061999991929120407004+62000-033000SAO  +00004YA  V02099999999999999999N0000001N1+01351+00691999999ADDMA1999999102301MW1001
0075108650999991929041706004+48183+011550FM-12+015599999V0209999900261220001CN0100001N9+00281-00111102801ADDAA199000691AY101061GF100991001001999999001001KA1999N-00221MD1310201+9999
0064061800999991929080806004+55617+012650FM-12+000199999V0201601N00101220001CN0100001N9+01721+99999101201ADDGF108991001001999999999999EQDQ01+000032APCTENQ02+000002APC3  
0059036980999991929122218004+51783+001167FM-12+005299999V0201801N006719999999N0100001N9+00501+00391099261ADDGA1011+999999019GF108991081051008001999999MD1310051+9999
0059030910999991929120618004+57167-002200FM-12+007199999V0201801N006719999999N0040001N9+00721+00331097821ADDGA1011+999999019GF104991021051004501001011MD1810101+9999
0059037480999991929101718004+51067-001317FM-12+008399999V0202101N002619999999N0200001N9+01171+01061101601ADDGA1011+999999019GF104991021051017501001081MD1810051+9999
0065036270999991929100913004+51917-002583FM-12+006899999V0203001N006719999999N0200001N9+01221+00611101921ADDGA1011+999999019GF104991041011012501001001MD1310301+9999MW1251
0051265090999991929081506004+55717+021133FM-12+000399999V0202001N00931220001CN0100001N9+01891+99999101751ADDAY111999GF104991021001999999071999MD1510141+9999
0059037770999991929091418004+51350-000117FM-12+006699999V0202001N004619999999N0040001N9+02001+01561101701ADDGA1011+999999019GF104991041011008001001001MD1310051+9999
0102031620999991929101507004+55317-003200FM-12+024299999V0203601N002619999999N0020001N9+00611+00561102731ADDAA199003091GA1011+999999019GF108991081051001501999999KA1999M+01391KA2999N+00221MD1810051+9999MW1531
0043113090999991929031206004+46967+009917FM-12+043899999V0209999900261000151CN0005001N9+99999+99999999999ADDAY141061GF108991081051000251999999MW1451
0059031400999991929101318004+55867-004433FM-12+000699999V0202301N006719999999N0100001N9+01331+01111101861ADDGA1011+999999019GF108991081051008001999999MD1810101+9999
0086038940999991929111218004+49450-002550FM-12+010499999V0202701N004619999999N0200001N9+00891+00441100031ADDGA1011+999999019GF104991041051012501001001MW1271EQDQ01+000032APCTENQ02+000002APC3  
0084038560999991929120701004+50533-002450FM-12+001099999V0202301N026819999999N0100001N9+01061+01001097161ADDGA1011+999999019GF106991061061004501001001MD1810602+9999MW1251EQDQ01+000602APC3  
0064076020999991929090206004+43483-001567FM-12+002999999V0201801N00101220001CN0100001N9+02111+99999101471ADDGF104991021011012501999999EQDQ01+000032APCTENQ02+000002APC3  
0057106370999991929121712004+50050+008600FM-12+003499999V0203201N002619999999N0040001N9+00501+00281103041ADDAY111061GF106991999061008001001001MD1610141+9999MW1801
0059039730999991929101513004+54100-010067FM-12+000599999V0202301N004619999999N0200001N9+01391+01171102061ADDGA1011+999999019GF108991001001999999011999MD1810051+9999
0102033480999991929112913004+53983-001550FM-12+014699999V0201801N001019999999N0005001N9+00891+00781099741ADDGA1011+999999019GF108991061051000251011999MW1441EQDQ01+000032APCTENQ02+000002APC3  Q03+000452PRSWM1
0024990061999991929112102004+62000-033000SAO  +00004YA  V02099999999999999999N0000001N1+02021+01691999999ADDMA1999999101521MW1001
0059030750999991929112413004+58450-003083FM-12+003699999V0201801N012319999999N0100001N9+00831+00611099091ADDGA1011+999999019GF106991041051004501001081MD1310201+9999
0065030050999991929112813004+60133-001183FM-12+008399999V0201401N004619999999N0040001N9+00831+00611999999ADDGA1011+999999019GF108991081061004501999999MD1810101+9999MW1631
0059033790999991929101618004+53033-000500FM-12+006299999V0202501N009319999999N0200001N9+01391+00721101261ADDGA1011+999999019GF106991061051008001001001MD1310101+9999
0059034970999991929112201004+52583+001733FM-12+000299999V0201701N004619999999N0040001N9+00831+00781100641ADDGA1011+999999019GF102991001001999999001011MD1810051+9999
0037113090999991929040406004+46967+009917FM-12+043899999V0209999900261220001CN0500001N9+99999+99999999999ADDAY101061GF102991001001999999001021
0059032620999991929101601004+55017-001417FM-12+003399999V0201801N002619999999N0040001N9+01281+01061101811ADDGA1011+999999019GF108991081051004501999999MD1810251+9999
0051267020999991929111812004+54733+020567FM-12+002099999V0203201N004619999999N0100001N9+00611+99999101111ADDAY161999GF107991021071012501999999MD1310141+9999
0059037750999991929112818004+51467-000317FM-12+000599999V0202501N009319999999N0200001N9+01281+01061099251ADDGA1011+999999019GF106991061051008001001001MD1310201+9999
0059030910999991929120513004+57167-002200FM-12+007199999V0201601N012319999999N0040001N9+00941+00721096921ADDGA1011+999999019GF106991011061004501031001MD1810201+9999
0065039800999991929111101004+55367-007333FM-12+002699999V0201801N009319999999N0100001N9+00561+00501100321ADDGA1011+999999019GF107991011061012501001081MD1810201+9999MW1211
0059038560999991929111213004+50533-002450FM-12+001099999V0202901N012319999999N0200001N9+00941+00331099831ADDGA1011+999999019GF106991061031004501001001MD1310051+9999
0086034970999991929112613004+52583+001733FM-12+000299999V0202301N006719999999N0040001N9+01001+00891100401ADDGA1011+999999019GF108991081061008001999999MW1611EQDQ01+000032APCTENQ02+000002APC3  
0065031710999991929100718004+56383-002883FM-12+001199999V0202301N002619999999N0200001N9+00831+00611100041ADDGA1011+999999019GF107991071061008001001001MD1310201+9999MW1611
0062039530999991929022206004+51933-010250FM-12+000999999V0200901N00671030001CN0200001N9+00781+99999101311ADDAA199002091AY161999GF108991021051012501021001MD1810401+9999
0051071800999991929101412004+48700+006233FM-12+023699999V0200501N00101220001CN0040001N9+01721+99999102831ADDAY121999GF108991001001999999001021MD1810061+9999
0065038110999991929122513004+50133-005033FM-12+006199999V0202701N019019999999N0100001N9+01001+00391099001ADDGA1011+999999019GF107991041031012501011001MD1310251+9999MW1251
0064106370999991929021106004+50050+008600FM-12+003499999V0209999900671220001CN0040001N9-02111-02391102381ADDAY101061GF101991001001999999001081KA1999N-02111MD1310141+9999
0064103380999991929082506004+52417+009750FM-12+005199999V0202501N00261002401CN0040001N9+01721+99999101941ADDAY111999GF108991081051002501999999KA1999N+01611MD1310061+9999
0085037770999991929091207004+51350-000117FM-12+006699999V0209991C000019999999N0020001N9+01391+01171101571ADDGA1011+999999019GF106991001001999999031999KA1999M+02441KA2999N+01331MD1810051+9999
0096033010999991929111607004+53217-003000FM-12+005299999V0200701N006719999999N0020001N9+00331+00111099901ADDAA199003091GA1011+999999019GF108991081051004501999999KA1999M+00501KA2999N+00111MD1310201+9999
0037105490999991929082806004+50850+010467FM-12+027999999V0209999900931220001CN0100001N9+01501+00611999999ADDAY101061GF101991001001999999001021
0072101200999991929100518004+54183+007883FM-12+005099999V0202501N004619999999N0100001N9+01391+99999100651ADDAY111999GF107991041011008001031999EQDQ01+000032APCTENQ02+000002APC3  
0077122050999991929021606004+53400+014633FM-12+000199999V0200701N00461004501CN0040001N9-00721-00781101641ADDGF108991081051004501999999KA1999N-00781EQDQ01+000082APCTENQ02+000002APC3  
0059038040999991929100918004+49933-006300FM-12+005099999V0203401N009319999999N0100001N9+01171+00721102961ADDGA1011+999999019GF104991041051012501031001MD1310151+9999
0065038280999991929112418004+50483-004100FM-12+019899999V0201801N012319999999N0040001N9+01171+01111100451ADDGA1011+999999019GF108991081061004501999999MD1810101+9999MW1611
0096039660999991929100707004+53100-007900FM-12+005799999V0201801N001019999999N0200001N9+00441+00391100251ADDAA124999999GA1011+999999019GF106991041051008001001091KA1999M+01221KA2999N+00441MD1310051+9999
0065030750999991929101013004+58450-003083FM-12+003699999V0202701N006719999999N0200001N9+01171+01061100771ADDGA1011+999999019GF108991061031004501011999MD1810301+9999MW1211
0024990061999991929111023004+62000-033000SAO  +00004YA  V02099999999999999999N0000001N1+01691+00741999999ADDMA1999999102071MW1001
0024990061999991929121823004+62000-033000SAO  +00004YA  V02099999999999999999N0000001N1+01961+01801999999ADDMA1999999101291MW1001
0037104330999991929110706004+51400+008567FM-12+013799999V0209999900671220001CN0100001N9+99999+99999999999ADDAY111061GF106991001001999999021999
0065037950999991929082013004+51083+001017FM-12+010499999V0201401N002619999999N0100001N9+01561+01111102171ADDGA1011+999999019GF106991061051017501001001IA1009MD1810051+9999
0077115180999991929093006004+50100+014283FM-12+037199999V0209991C000019999999N0005001N9+01001+99999102431ADDGF106991041051017501999999KA1999N+00781EQDQ01+000032APCTENQ02+000002APC3  
0075106370999991929122706004+50050+008600FM-12+003499999V0209999900261004501CN0020001N9+00281+00221102061ADDAA199000691AY161061GF108991061061004501021001KA1999N+00111MD1310061+9999
0050107270999991929093006004+49017+008383FM-12+011899999V0209991C00001220001CN0200001N9+01111+99999102281ADDAY101061GF104991001001999999031081KA1999N+00891
0059033230999991929100718004+53350-002883FM-12+002499999V0201601N002619999999N0200001N9+01111+00501100361ADDGA1011+999999019GF104991041061008001001001MD1810051+9999
0086030910999991929122113004+57167-002200FM-12+007199999V0201801N002619999999N0020001N9+00391+00281098431ADDGA1011+999999019GF108991081061004501999999MW1211EQDQ01+000032APCTENQ02+000002APC3  
0115036980999991929111607004+51783+001167FM-12+005299999V0201101N009319999999N0100001N9+00561+00441098521ADDAA199002091GA1011+999999019GF106991061061008001001001KA1999M+99999KA2999N+00001MD1810251+9999EQDQ01 +00002ATMX  
0072100020999991929013106004+53767+006067FM-12+999999999V0201601N009319999999N0100001N9-00111+99999102771ADDAY121999GF108991999999999999001001EQDQ01+000032APCTENQ02+000002APC3  
0080033480999991929100813004+53983-001550FM-12+014699999V0201801N004619999999N0100001N9+01441+01001099181ADDGA1011+999999019GF104991041031012501001011EQDQ01+000032APCTENQ02+000002APC3  
0070264470999991929013006004+56783+027733FM-12+012099999V0201101N00101007801CN0100001N9-01611+99999104661ADDAY171999GF108991081061008001999999KA1999N-02111MD1210141+9999MW1231
0043070090999991929080718004+50967+001833FM-12+002799999V0202701N004619999999N0100001N9+01501+99999101051ADDGF107991021011004501999999MD1810041+9999
0073100460999991929082306004+54383+010150FM-12+002899999V0202301N00461002401CN0040001N9+01501+99999101841ADDAA199001091GF107991071051002501001001KA1999N+01391MD1310141+9999MW1281
0043014030999991929082406004+59300+004883FM-12+005699999V0202301N00101220001CN0500001N9+01221+99999100661ADDGF102991021011999999999999MD1810041+9999
0075070050999991929093006004+50133+001850FM-12+007199999V0202501N006719999999N0020001N9+01611+99999101941ADDAA199000691AY161999GF107991999999004501999999KA1999N+01111MD1410001+9999
0070104270999991929112806004+51183+008483FM-12+025799999V0209999900671000151CN0000001N9+00111+00061999999ADDAY141061GF108991081051000251999999KA1999N+00001MD1810061+9999MW1451
0080034970999991929081518004+52583+001733FM-12+000299999V0201601N004619999999N0040001N9+01721+01441101831ADDGA1011+999999019GF104991001001999999001011EQDQ01+000032APCTENQ02+000002APC3  
0024990061999991929120910004+62000-033000SAO  +00004YA  V02099999999999999999N0000001N1+02071+01631999999ADDMA1999999101731MW1001
0072122050999991929022012004+53400+014633FM-12+000199999V0200501N00101220001CN0200001N9-00891-01221104121ADDAY101999GF100991001001999999001001EQDQ01+000032APCTENQ02+000002APC3  
0057124250999991929021712004+51133+016967FM-12+003799999V0200501N00261002401CN0010001N9-00721-00781102191ADDAY171999GF108991081061002501999999MD1310141+9999MW1711
0091037770999991929111507004+51350-000117FM-12+006699999V0202801N002619999999N0010001N9-00171-00221100621ADDGA1011+999999019GF101991001001999999001011KA1999M+00671KA2999N-00281MD1310101+9999MW1101
0153034970999991929122907004+52583+001733FM-12+000299999V0202001N015419999999N0040001N9+01061+01001999999ADDAA199009091GA1011+999999019GF108991081061004501999999KA1999M+99999KA2999N+00671MD1810502+9999MW1631EQDQ01+098143APOSLPQ02+000502APC3  Q03 +00722ATMX  
0043023610999991929122118004+62617+017950FM-12+000999999V0201801N00261002401CN0500001N9+00001+99999102741ADDGF106991061061002501999999MD1310041+9999
0037104330999991929092606004+51400+008567FM-12+013799999V0209999900101220001CN0100001N9+99999+99999999999ADDAY101061GF101991001001999999001021
0051070050999991929052312004+50133+001850FM-12+007199999V0201401N00671220001CN0200001N9+02611+99999101071ADDAY111999GF108991001001999999001021MD1810141+9999
0043070090999991929101518004+50967+001833FM-12+002799999V0209991C00001220001CN9999999N9+01001+99999102531ADDGF100991001001999999999999MD1810161+9999
0072101200999991929121906004+54183+007883FM-12+005099999V0202301N00671012301CN0100001N9+00501+99999999999ADDAY111999GF107991061051012501031001EQDQ01+000032APCTENQ02+000002APC3  
0075103840999991929103018004+52483+013433FM-12+004899999V0202501N00461007801CN0100001N9+01111+99999100591ADDAA199000591AY111999GF107991071051008001001001KA1999M+01111MD1310261+9999
0051014030999991929020712004+59300+004883FM-12+005799999V0201601N00671007801CN0200001N9+00001+99999103061ADDAY171999GF108991081061008001999999MD1810061+9999
0064107270999991929121418004+49017+008383FM-12+011899999V0202701N004610360019N0010001N9+01111+99999102961ADDAY111061GF108991021051008001011999KA1999M+01221MD1010001+9999
0065033790999991929091313004+53033-000500FM-12+006299999V0203501N001019999999N0100001N9+01781+01111101871ADDGA1011+999999019GF106991061051008001001001IA1009MD1810051+9999
0051071800999991929122512004+48700+006233FM-12+023699999V0202001N012319999999N0100001N9+01111+99999100571ADDAY111999GF108991999999008001999999MD1310141+9999
0065031620999991929100318004+55317-003200FM-12+024299999V0202401N015419999999N0200001N9+00671+00281099281ADDGA1011+999999019GF104991041031008001001001MD1310151+9999MW1251
0050071500999991929022306004+48950+002433FM-12+004699999V0201601N00101220001CN0010001N9+00391+99999101221ADDAY111999GF104991999999999999999999KA1999N+00111
0043077470999991929110706004+42733+002867FM-12+004599999V0202901N009319999999N0100001N9+01221+99999101431ADDGF107991021999017501999999MD1310241+9999
0065039530999991929101718004+51933-010250FM-12+000999999V0203001N006719999999N0200001N9+01061+00611101871ADDGA1011+999999019GF104991041051004501031001MD1310051+9999MW1251
0064070090999991929091606004+50967+001833FM-12+002799999V0200501N00671000151CN0000501N9+01611+99999101111ADDGF108991081051000251999999EQDQ01+000032APCTENQ02+000002APC3  
0050104270999991929083006004+51183+008483FM-12+025799999V02099999001019999999N0200001N9+01721+01281999999ADDAY111061GF106991999001999999021001KA1999N+01391
0064023610999991929080618004+62617+017950FM-12+000999999V0202701N00261220001CN0500001N9+01501+99999101181ADDGF102991021011004501999999EQDQ01+000032APCTENQ02+000002APC3  
0065038280999991929101713004+50483-004100FM-12+019899999V0202501N009319999999N0200001N9+01441+01221101881ADDGA1011+999999019GF104991041061004501001081IA1089MD1810151+9999
0024990061999991929111004004+62000-033000SAO  +00004YA  V02099999999999999999N0000001N1+01851+00961999999ADDMA1999999101691MW1001
0064267020999991929010306004+54733+020567FM-12+000999999V0200701N00261030001CN0500001N9-00611-01281103231ADDAY111999GF108991041051012501021999KA1999N-00611MD1310061+9999
0043070090999991929092518004+50967+001833FM-12+002799999V0200701N00671220001CN0040001N9+01391+99999103221ADDGF100991001001999999999999MD1810041+9999
0086033480999991929120918004+53983-001550FM-12+014699999V0202301N001019999999N0010001N9+00061+00001098401ADDGA1011+999999019GF108991081061008001999999MW1651EQDQ01+000032APCTENQ02+000002APC3  
0024990061999991929121423004+62000-033000SAO  +00004YA  V02099999999999999999N0000001N1+02181+02071999999ADDMA1999999100951MW1001
0051011060999991929021506004+67500+012067FM-12+001199999V0202001N00101220001CN0500001N9+00001+99999103301ADDAY101999GF100991001001999999001001MD1810061+9999
0085103840999991929082618004+52483+013433FM-12+004899999V0203401N00101220001CN0100001N9+01781+99999102391ADDAY101999GF102991001001999999001011KA1999M+02001EQDQ01+000032APCTENQ02+000002APC3  
0059030750999991929122318004+58450-003083FM-12+003699999V0201601N019019999999N0100001N9+00671+00441098561ADDGA1011+999999019GF108991081051004501999999MD1810101+9999
0051104190999991929100206004+51217+007633FM-12+013699999V0209999901231030001CN0200001N9+01221+99999100731ADDAY101061GF106991011051000751021001MD1810141+9999
0057106370999991929101912004+50050+008600FM-12+003499999V0203401N001019999999N0020001N9+01111+00891100381ADDAY161061GF108991999061008001001001MD1510061+9999MW1611
0037108060999991929061106004+48633+008083FM-12+004599999V0209999900671220001CN0040001N9+99999+99999999999ADDAY111061GF106991001001999999001081
0062100460999991929122006004+54383+010150FM-12+002899999V0201801N00671002401CN0040001N9-00391+99999102881ADDGF108991081051002501999999KA1999N-00501MD1810141+9999MW1281
0051108660999991929111012004+48183+011550FM-12+052099999V0202001N00101007801CN0040001N9+00891+99999101601ADDAY121061GF108991081051008001999999MD1810141+9999
0084033480999991929120213004+53983-001550FM-12+014699999V0201601N009319999999N0020001N9+01001+00891098032ADDGA1011+999999019GF108991071061008001011999MD1810251+9999MW1631EQDQ01+098033APOSLP
0083333930999991929102306004+49817+023950FM-12+033999999V0201801N00101007801CN0010001N9+00891+99999101011ADDGF108991081051008001999999KA1999N+00721MW1101EQDQ01+000032APCTENQ02+000002APC3  
0024990061999991929102707004+62000-033000SAO  +00004YA  V02099999999999999999N0000001N1+02181+01741999999ADDMA1999999101731MW1001
0064077470999991929113006004+42733+002867FM-12+004599999V0203401N00261220001CN0100001N9+01111+99999100221ADDGF102991021051001501999999EQDQ01+000032APCTENQ02+000002APC3  
0037105490999991929100806004+50850+010467FM-12+027999999V0209999900461002401CN0100001N9+00501+00441999999ADDAY111061GF106991061051002501001001
0102038880999991929100807004+50917+000967FM-12+000699999V0201801N012319999999N0100001N9+01331+01221099991ADDAA124999999GA1011+999999019GF108991081051008001999999KA1999M+01671KA2999N+01221MD1810401+9999MW1211
0051101200999991929091918004+54183+007883FM-12+005099999V0202701N00461007801CN0100001N9+01221+99999100661ADDAY121999GF107991071011008001001001MD1810061+9999
0065033960999991929121201004+53583-000117FM-12+000999999V0202901N012319999999N0100001N9+00831+00391099721ADDGA1011+999999019GF106991041031012501011001MD1310051+9999MW1251
0083101270999991929102006004+53533+008150FM-12+000499999V0202301N001019999999N0040001N9+00611+99999100301ADDAY111999GF106991041011008001001091KA1999N+99999MD1810061+9999EQDQ01 +00722ATMN  
0057071800999991929011512004+48700+006233FM-12+023699999V0202701N00461001501CN0005001N9-00221+99999101311ADDAY171999GF108991081061001501999999MD1810341+9999MW1731
0117037750999991929112307004+51467-000317FM-12+000599999V0201801N006719999999N0200001N9+01001+00781099691ADDAA124999999GA1011+999999019GF102991011011001501031001KA1999M+01391KA2999N+01001EQDQ01+000032APCTENQ02+000002APC3  
0059031590999991929110501004+56033-003133FM-12+005899999V0202301N009319999999N0200001N9+01221+01001100831ADDGA1011+999999019GF108991041051008001011999MD1810201+9999
0070071800999991929111906004+48700+006233FM-12+023699999V0209999900461001501CN0010001N9+00001+99999102271ADDAY141999GF108991081051001501999999KA1999N+00001MD1710141+9999MW1101
0115038280999991929112407004+50483-004100FM-12+019899999V0202501N009319999999N0100001N9+01001+00391100061ADDAA124999999GA1011+999999019GF104991041031012501001001KA1999M+01281KA2999N+00781MD1310502+9999EQDQ01+000502APC3  
0065038280999991929110218004+50483-004100FM-12+019899999V0202301N006719999999N0040001N9+01111+01001102541ADDGA1011+999999019GF108991081051000751999999MD1810051+9999MW1511
0064106370999991929042506004+50050+008600FM-12+003499999V0209999900671220001CN0200001N9+00391+00001101551ADDAY111061GF104991999091012501001001KA1999N+00221MD1310201+9999
0096038560999991929101707004+50533-002450FM-12+001099999V0202501N006719999999N0200001N9+01391+01171101891ADDAA124999999GA1011+999999019GF104991041011004501001081KA1999M+01671KA2999N+01281MD1810051+9999
0059038940999991929111713004+49450-002550FM-12+010499999V0200901N002619999999N0100001N9+00891+00441100841ADDGA1011+999999019GF104991041051008001031001MD1310051+9999
0051103840999991929120312004+52483+013433FM-12+004899999V0202501N00261002401CN0010001N9+00781+99999101151ADDAY161999GF108991081061002501999999MD1210201+9999
0051014270999991929011706004+58100+006567FM-12+000999999V0200501N00671220001CN0500001N9-01001+99999100801ADDAY101999GF101991999999999999999999MD1310141+9999
0075108660999991929122818004+48183+011550FM-12+052099999V0202501N00261220001CN0040001N9+00111+99999101981ADDAA199002091AY181061GF100991001001999999001001KA1999M+00391MD1110141+9999
0065038560999991929102418004+50533-002450FM-12+001099999V0202901N006719999999N0040001N9+00941+00721098801ADDGA1011+999999019GF108991081061002501999999MD1310251+9999MW1651
0037104190999991929082006004+51217+007633FM-12+013699999V0209991C00001220001CN0200001N9+01111+99999102021ADDAY101061GF104991021011004501001081
0050106370999991929092406004+50050+008600FM-12+003499999V0209999900101030001CN0040001N9+01391+01171102741ADDAY121061GF108991041051012501021001KA1999N+01281
0051108650999991929090512004+48183+011550FM-12+015599999V0202701N00261220001CN0200001N9+02781+01501101531ADDAY101061GF101991011011012501001001MD1810061+9999
0000115180999991929120218004+50100+014283FM-12+037199999V02099999999999999999N9999999N9+99999+99999999999
0115033790999991929100707004+53033-000500FM-12+006299999V0202401N006719999999N0100001N9+00721+00501100291ADDAA199003091GA1011+999999019GF199999001001999999001001KA1999M+01221KA2999N+00671MD1310351+9999EQDQ01+000002SCOTCV
0065030750999991929100601004+58450-003083FM-12+003699999V0200901N009319999999N0200001N9+00941+00831099281ADDGA1011+999999019GF108991081061004501999999MD1810251+9999MW1631
0075107270999991929122318004+49017+008383FM-12+011899999V0200901N00101220001CN0010001N9+00221+99999100461ADDAA199000591AY161061GF100991001001999999001001KA1999M+00391MD1990061+9999
0092124250999991929011312004+51133+016967FM-12+003799999V0202901N012319999999N0040001N9+00111-00111101541ADDAY171999GF108991999061004501001001MD1710542+9999MW1701EQDQ01+000042SCOTLCQ02+000542APC3  
0051039530999991929010206004+51933-010250FM-12+000999999V0200701N00101220001CN0200001N9-00281+99999103101ADDAY101999GF100991001001999999001001MD1710061+9999
0072122050999991929010612004+53400+014633FM-12+000199999V0200901N00671007801CN0100001N9-00391-00561103551ADDAY111999GF107991071051008001001001EQDQ01+000032APCTENQ02+000002APC3  
0065031000999991929102213004+56483-006867FM-12+000999999V0202801N009319999999N0100001N9+01061+00611100371ADDGA1011+999999019GF108991041051008001011999IA1089MD1810101+9999
0056071500999991929103106004+48950+002433FM-12+004699999V0200701N00461220001CN0020001N9+00891+99999102071ADDGF104991041051004501999999KA1999N+00781MD1310301+9999
0024990061999991929120218004+62000-033000SAO  +00004YA  V02099999999999999999N0000001N1+02131+01631999999ADDMA1999999101761MW1001
0081104490999991929070606004+51483+010317FM-12+009099999V02099999006719999999N0100001N9+01501+01061101401ADDAA199002091AY191061GF108991999061004501001001KA1999N+01111MD1610141+9999MW1801
0085100460999991929110206004+54383+010150FM-12+002899999V0201401N00101004501CN0040001N9+00611+99999102871ADDAY111999GF106991061051004501001001KA1999N+00391EQDQ01+000032APCTENQ02+000002APC3  
0059039520999991929121913004+51800-008250FM-12+000799999V0202301N012319999999N0200001N9+01001+00891101851ADDGA1011+999999019GF106991061031004501001001MD1810301+9999
0080037770999991929082818004+51350-000117FM-12+006699999V0202101N009319999999N0100001N9+01831+01391101411ADDGA1011+999999019GF106991041011004501001011EQDQ01+000032APCTENQ02+000002APC3  
0050104270999991929090106004+51183+008483FM-12+025799999V0209999900461220001CN0200001N9+02001+01061999999ADDAY101061GF101991001001999999001081KA1999N+01891
0059038940999991929110901004+49450-002550FM-12+010499999V0203201N001019999999N0200001N9+00891+00671101781ADDGA1011+999999019GF104991041051012501001001MD1310151+9999
0102033110999991929101907004+53317-004617FM-12+000899999V0203001N009319999999N0200001N9+01001+00891100651ADDAA199001091GA1011+999999019GF107991071061004501001001KA1999M+01111KA2999N+00831MD1810151+9999MW1251
0075103840999991929121406004+52483+013433FM-12+004899999V0202301N004619999999N0020001N9+00891+99999102241ADDAA199001091AY161999GF108991041061004501999999KA1999N+00611MD1610061+9999
0057104270999991929100312004+51183+008483FM-12+025799999V0202001N01901000151CN0002001N9+01111+01061999999ADDAY161061GF108991081061000251999999MD1810141+9999MW1631
0067106370999991929012706004+50050+008600FM-12+003499999V0202701N00101004501CN0020001N9-00501-00671101711ADDAA199000591AY171061GF108991081051004501999999KA1999N-00501MW1711
0094267020999991929021406004+54733+020567FM-12+000999999V0201101N01231220001CN0200001N9-01221+99999102331ADDAA199000591AY171999GF108991999001999999021001KA1999N-01281MD1510001+9999EQDQ01+000002SCOTLC
0059033110999991929122118004+53317-004617FM-12+000899999V0201501N006719999999N0040001N9+00391+00281099051ADDGA1011+999999019GF102991021011004501001001MD1310051+9999
0085033010999991929103107004+53217-003000FM-12+005299999V0203201N001019999999N0020001N9+00111+00001103021ADDGA1011+999999019GF101991011051012501001001KA1999M+01061KA2999N+00001MD1310151+9999
0072034970999991929071206004+52583+001717FM-12+000299999V0202901N00261220001CN0040001N9+01891+99999102371ADDAY101999GF100991001001999999001001EQDQ01+000032APCTENQ02+000002APC3  
0065038110999991929102101004+50133-005033FM-12+006199999V0200301N009319999999N0100001N9+01001+00781099091ADDGA1011+999999019GF106991041031012501011001MD1810251+9999MW1251
0024990061999991929110711004+62000-033000SAO  +00004YA  V02099999999999999999N0000001N1+02021+01691999999ADDMA1999999101661MW1001
0062033020999991929012306004+53317-004617FM-12+000899999V0200901N00931220001CN0040001N9+00281+99999102471ADDAA199000691AY141999GF100991001001999999001001MD1310261+9999
0081108650999991929122406004+48183+011550FM-12+015599999V0209999900101001501CN0005001N9-00391-00441100351ADDAA199003091AY171061GF108991081061001501999999KA1999N-01001MD1710061+9999MW1731
0072070050999991929051312004+50133+001850FM-12+007199999V0202001N004619999999N0100001N9+01391+99999101931ADDAY121999GF107991999999008001999999EQDQ01+000042APCTENQ02+000062APC3  
0037106370999991929091412004+50050+008600FM-12+003499999V0202501N00101075001CN0020001N9+02221+01781101731ADDAY141061GF106991041051012501001081
0037104400999991929090906004+51200+010033FM-12+004899999V0209999900101220001CN0040001N9+99999+99999999999ADDAY101061GF100991001001999999001001
0086032620999991929102701004+55017-001417FM-12+003399999V0202701N002619999999N0040001N9+00331+00111100591ADDGA1011+999999019GF102991021011004501001001MW1211EQDQ01+000032APCTENQ02+000002APC3  
0054014030999991929112618004+59300+004883FM-12+005699999V0202301N00931007801CN0200001N9+00721+99999099751ADDAA199005091GF108991081061008001999999MD1310201+9999
0072265090999991929092518004+55717+021133FM-12+000399999V0209991C00001007801CN0020001N9+01221+99999103421ADDAY111999GF107991071051008001001001EQDQ01+000082APCTENQ02+000002APC3  
0051106370999991929121812004+50050+008600FM-12+003499999V0200201N00101220001CN0100001N9+00221-00171104001ADDAY101061GF102991011011017501001081MD1610061+9999
0050108660999991929091218004+48183+011550FM-12+052099999V0200901N00101220001CN0100001N9+02221+99999101981ADDAY101061GF102991001001999999001081KA1999M+02721
0100033480999991929120713004+53983-001550FM-12+014699999V0202701N012319999999N0100001N9+00611+00391097582ADDGA1011+999999019GF107991071061012501001001MD1310602+9999MW1211EQDQ01+097583APOSLPQ02+000602APC3  
0059038560999991929111813004+50533-002450FM-12+001099999V0201801N004619999999N0040001N9+00891+00281101801ADDGA1011+999999019GF108991081051002501999999MD1810051+9999
0077115180999991929092706004+50100+014283FM-12+037199999V0202001N00101220001CN0020001N9+00611+99999103031ADDGF101991001001999999999999KA1999N+00391EQDQ01+000032APCTENQ02+000002APC3  
0024990061999991929101513004+62000-033000SAO  +00004YA  V02099999999999999999N0000001N1+02741+01961999999ADDMA1999999101081MW1001
0102036010999991929122507004+51683-005167FM-12+004399999V0202301N022619999999N0100001N9+00831+00781097341ADDAA199006091GA1011+999999019GF106991041031004501011001KA1999M+01001KA2999N+00671MD1810101+9999MW1251
0056115180999991929080618004+50100+014283FM-12+037199999V0201101N00101220001CN0100001N9+02001+99999101661ADDGF102991001001999999999999KA1999M+02281MD1810161+9999
0059038560999991929111018004+50533-002450FM-12+001099999V0202801N012319999999N0200001N9+01001+00111101701ADDGA1011+999999019GF107991071051008001001001MD1310301+9999
0100039530999991929120818004+51933-010250FM-12+000999999V0202801N012319999999N0100001N9+00561+00171099772ADDGA1011+999999019GF108991061051008001011999MD1310752+9999MW1271EQDQ01+099773APOSLPQ02+000752APC3  
0059039280999991929102713004+54650-005533FM-12+001299999V0202901N001019999999N0200001N9+00891+00441101351ADDGA1011+999999019GF101991011011012501001001MD1310101+9999
0024990061999991929101900004+62000-033000SAO  +00004YA  V02099999999999999999N0000001N1+02411+01851999999ADDMA1999999101391MW1001
0062076020999991929111018004+43483-001567FM-12+002999999V0202701N01231004501CN0100001N9+01281+99999102371ADDAA199007091AY161999GF108991081031004501999999MD1310361+9999
0064107270999991929122218004+49017+008383FM-12+011899999V0202001N00101007801CN0010001N9-00391+99999100411ADDAY111061GF108991081051008001999999KA1999M-00281MD1310061+9999
0024990061999991929102206004+62000-033000SAO  +00004YA  V02099999999999999999N0000001N1+02181+01801999999ADDMA1999999101121MW1001
0024990061999991929111714004+62000-033000SAO  +00004YA  V02099999999999999999N0000001N1+02241+01801999999ADDMA1999999101561MW1001
0080034970999991929082113004+52583+001733FM-12+000299999V0202301N004619999999N0040001N9+01831+01391101971ADDGA1011+999999019GF107991071011012501001001EQDQ01+000032APCTENQ02+000002APC3  
0065033790999991929121213004+53033-000500FM-12+006299999V0202701N015419999999N0200001N9+00721+00111100911ADDGA1011+999999019GF107991071051008001001001IA1089MD1310151+9999
0059039800999991929120613004+55367-007333FM-12+002699999V0201801N009319999999N0100001N9+00561+00331097741ADDGA1011+999999019GF107991021051012501011001MD1810101+9999
0059038110999991929110618004+50133-005033FM-12+006199999V0203401N006719999999N0200001N9+00941+00501101281ADDGA1011+999999019GF104991041031012501001001MD1310201+9999
0102039800999991929110307004+55367-007333FM-12+002699999V0202901N012319999999N0200001N9+00831+00611102291ADDAA124999999GA1011+999999019GF106991061031008001001001KA1999M+01221KA2999N+00611MD1310201+9999MW1161
0096034970999991929122807004+52583+001733FM-12+000299999V0202701N002619999999N0040001N9+00281+00061100781ADDAA199011091GA1011+999999019GF104991021011012501011999KA1999M+00941KA2999N+00221MD1310151+9999
0086038280999991929101818004+50483-004100FM-12+019899999V0203601N004619999999N0040001N9+00831+00721101021ADDGA1011+999999019GF107991071061008001001001MW1631EQDQ01+000032APCTENQ02+000002APC3  
0000108660999991929101212004+48183+011550FM-12+052099999V02099999999999999999N9999999N9+99999+99999999999
0043070090999991929092718004+50967+001833FM-12+002799999V0202701N00461220001CN0100001N9+01721+99999102411ADDGF100991001001999999999999MD1810041+9999
0096033230999991929120107004+53350-002883FM-12+002499999V0202601N004619999999N0040001N9+00781+00721099221ADDAA199003091GA1011+999999019GF108991081051008001999999KA1999M+00891KA2999N+00721MD1310151+9999
0064108650999991929091706004+48183+011550FM-12+015599999V0209999900101220001CN0100001N9+01111+00891101981ADDAY141061GF100991001001999999001001KA1999N+00721MD1410001+9999
0065038560999991929102313004+50533-002450FM-12+001099999V0202301N009319999999N0200001N9+01171+00721100641ADDGA1011+999999019GF108991071051004501011999MD1810101+9999MW1251
0051104270999991929110912004+51183+008483FM-12+025799999V0202701N00101002401CN0200001N9+00281+00221999999ADDAY111061GF106991061051002501001001MD1310141+9999
0059037750999991929122713004+51467-000317FM-12+000599999V0202501N004619999999N0020001N9+00891+00671100541ADDGA1011+999999019GF104991011011008001031001MD1810051+9999
0064108660999991929102218004+48183+011550FM-12+052099999V0200901N00101220001CN0500001N9+01111+99999101191ADDAY101061GF102991999001999999031001KA1999M+01891MD1310061+9999
0059030750999991929111713004+58450-003083FM-12+003699999V0203601N006719999999N0200001N9+00441-00111101381ADDGA1011+999999019GF106991061051008001001001MD1310201+9999
0065037750999991929101013004+51467-000317FM-12+000599999V0202501N006719999999N0200001N9+01441+00781102631ADDGA1011+999999019GF107991061051008001031001IA1089MD1810051+9999
0025100020999991929010612004+53767+006067FM-12+999999999V0201401N009319999999N0100001N9-00281+99999102711ADDAY121999MD1810061+9999
0121038280999991929120907004+50483-004100FM-12+019899999V0202301N019019999999N0100001N9+01001+00941100011ADDAA124999999GA1011+999999019GF108991081061002501999999KA1999M+01111KA2999N+00561MD1810552+9999MW1611EQDQ01+000552APC3  
0077333930999991929101618004+49817+023950FM-12+033999999V0209991C00001220001CN0040001N9+00391+99999102341ADDGF104991001001999999999999KA1999M+01001EQDQ01+000032APCTENQ02+000002APC3  
0059038940999991929122913004+49450-002550FM-12+010499999V0202701N009319999999N0040001N9+01111+00501101041ADDGA1011+999999019GF104991041051008001001001MD1310351+9999
0065033790999991929112213004+53033-000500FM-12+006299999V0201501N009319999999N0200001N9+01221+00781099911ADDGA1011+999999019GF106991061011008001031999IA1089MD1810151+9999
0059037750999991929101618004+51467-000317FM-12+000599999V0202501N004619999999N0100001N9+01391+00941101641ADDGA1011+999999019GF101991011011008001001001MD1310101+9999
0057105010999991929011112004+50783+006100FM-12+006399999V0200701N002619999999N0020001N9-00501-00671103411ADDAY171061GF108991999051004501001001MD1810061+9999MW1231
0035073150999991929090618004+45917-000983FM-12+000499999V0202701N004619999999N9999999N9+02501+99999100901EQDQ01+000032APCTENQ02+000002APC3  
0065037950999991929101013004+51083+001017FM-12+010499999V0202801N006719999999N0100001N9+01331+00671102581ADDGA1011+999999019GF107991061051012501031999IA1089MD1810101+9999
0051135860999991929040612004+41983+021467FM-12+024099999V0203201N00261007801CN0200001N9+00721-00111101011ADDAY111999GF108991081051008001999999MD1810141+9999
0070124250999991929012612004+51133+016967FM-12+003799999V0200501N001019999999N0040001N9-00721-00891101361ADDAY111999GF108991999061008001001001MD1810061+9999EQDQ01+000042SCOTLC
0096038040999991929112507004+49933-006300FM-12+005099999V0201801N004619999999N0100001N9+01061+01001099011ADDAA124999999GA1011+999999019GF107991071051012501001001KA1999M+01221KA2999N+00941MD1810101+9999
0059038640999991929112418004+50817-001300FM-12+000299999V0201801N006719999999N0100001N9+01111+00891100941ADDGA1011+999999019GF104991021051008001011001MD1310051+9999
0062039530999991929092506004+51933-010250FM-12+000999999V0201601N00461002401CN0200001N9+01611+99999102741ADDAA199000691AY111999GF106991061051002501001091MD1310061+9999
0096035310999991929121507004+52483-001933FM-12+016399999V0202701N004619999999N0200001N9+00671+00441102691ADDAA199001091GA1011+999999019GF106991061061012501001001KA1999M+01281KA2999N+00611MD1310101+9999
0051104190999991929112706004+51217+007633FM-12+013699999V0209999901231002401CN0100001N9+00391+99999101621ADDAY121061GF108991081051002501999999MD1310141+9999
0024990061999991929100615004+62000-033000SAO  +00004YA  V02099999999999999999N0000001N1+02801+02131999999ADDMA1999999100811MW1001
0085100460999991929112418004+54383+010150FM-12+002899999V0201801N00671004501CN0040001N9+00891+99999101071ADDAY111999GF108991081011004501999999KA1999M+00891EQDQ01+000032APCTENQ02+000002APC3  
0057106350999991929061706004+50217+008450FM-12+024499999V0209999900261000151CN0000501N9+01111+01061999999ADDAY141061GF108991081051000251999999MD1310141+9999MW1451
0065033010999991929111813004+53217-003000FM-12+005299999V0201501N004619999999N0010001N9+00171+00061101611ADDGA1011+999999019GF108991001001999999011999MD1810151+9999MW1101
0024990061999991929120118004+62000-033000SAO  +00004YA  V02099999999999999999N0000001N1+02071+01461999999ADDMA1999999101691MW1001
0054071100999991929081806004+48283-004433FM-12+009799999V0203201N001019999999N0040001N9+01391+99999102091ADDAA199000591GF106991011011008001999999MD1310161+9999
0043060810999991929092306004+55550+008083FM-12+001599999V0203201N00461220001CN0200001N9+01221+99999102021ADDGF104991021051008001999999MD1310361+9999
0106038560999991929121707004+50533-002450FM-12+001099999V0202901N004619999999N0100001N9+00441+00221104071ADDGA1011+999999019GF102991021051008001001001KA1999M+00721KA2999N+00111EQDQ01+000032APCTENQ02+000002APC3  
0037113090999991929041306004+46967+009917FM-12+043899999V0209999900931220001CN0200001N9+99999+99999999999ADDAY141061GF108991999001999999021001
0056123750999991929101318004+52183+020967FM-12+013399999V0202901N00461007801CN0040001N9+01111+99999102251ADDGF107991071051008001999999KA1999M+01111MD1310041+9999
0065037660999991929113013004+51283-000750FM-12+006999999V0202001N004619999999N0100001N9+01111+00891099121ADDGA1011+999999019GF104991041031002501001001MD1810051+9999MW1161
0067115180999991929121706004+50100+014283FM-12+037199999V0202301N00671007801CN0100001N9+00281+99999102361ADDAA199003091GF107991061051008001999999KA1999N+00111MD1810161+9999
0081102240999991929080806004+53083+008783FM-12+000499999V0203401N00261001501CN0040001N9+01501+99999101211ADDAA199005091AY161999GF108991061061001501011999KA1999N+01391MD1210141+9999MW1521
0065039280999991929111913004+54650-005533FM-12+001299999V0201601N002619999999N0100001N9+00941+00721099021ADDGA1011+999999019GF107991071061008001001001MD1810101+9999MW1611
0017061800999991929111318004+55617+012650FM-12+000199999V0202301N002619999999N9999999N9+00501+99999100301ADDMD1310101+9999
0051103840999991929090912004+52483+013433FM-12+004899999V0202701N00671220001CN0040001N9+02611+99999101141ADDAY101999GF104991021011012501001011MD1810201+9999
0064103840999991929111518004+52483+013433FM-12+004899999V0202301N00261007801CN0040001N9+00501+99999100221ADDAY121999GF108991081051008001999999KA1999M+00611MD1310141+9999
0043077470999991929101206004+42733+002867FM-12+004599999V0203201N00931220001CN0500001N9+01721+99999102531ADDGF101991001001999999999999MD1810041+9999
0071033790999991929122113004+53033-000500FM-12+006299999V0201601N006719999999N0040001N9+00171+00111099121ADDGA1011+999999019GF108991081061002501999999IA1159MD1310051+9999MW1681
0059038040999991929101913004+49933-006300FM-12+005099999V0200101N002619999999N0200001N9+01111+00501100951ADDGA1011+999999019GF104991041011012501001001MD1810051+9999
0069104490999991929091806004+51483+010317FM-12+009099999V0209999900101220001CN0100001N9+01391+00721101571ADDAY111061GF104991021051017501001021KA1999N+99999EQDQ01 +01892ATMN  
0059033010999991929101418004+53217-003000FM-12+005299999V0202401N004619999999N0100001N9+01501+01441102651ADDGA1011+999999019GF106991041051012501001011MD1310101+9999
0051267020999991929100712004+54733+020567FM-12+002099999V0202901N00461220001CN0100001N9+01781+99999101331ADDAY101999GF102991011011008001031999MD1310141+9999
0042108660999991929081706004+48183+011550FM-12+052099999V0201801N00101220001CN0020001N9+01891+99999101461ADDGF100991001001999999001001KA1999N+01111
0065030260999991929110818004+58217-006333FM-12+000399999V0202301N006719999999N0100001N9+00501+00111099771ADDGA1011+999999019GF106991041031012501031001MD1810051+9999MW1251
0054071100999991929082306004+48283-004433FM-12+009799999V0202701N00101002401CN0020001N9+01721+99999102341ADDAA199000591GF108991081051002501999999MD1310041+9999
0133031620999991929122907004+55317-003200FM-12+024299999V0202601N012319999999N0100001N9+00611+00221096841ADDAA199032091GA1011+999999019GF107991071051004501001001KA1999M+99999KA2999N+00111EQDQ01+000032APCTENQ02+000002APC3  Q03 +00222ATMX  
0065037770999991929111713004+51350-000117FM-12+006699999V0203201N001019999999N0010001N9+00561+00171100881ADDGA1011+999999019GF104991001001999999001011MD1310101+9999MW1101
0096038640999991929110707004+50817-001300FM-12+000299999V0202601N002619999999N0100001N9+00611+00391101441ADDAA124999999GA1011+999999019GF107991041051022501011001KA1999M+01221KA2999N+00391MD1310101+9999
0054061800999991929101918004+55617+012650FM-12+000199999V0203401N00101007801CN0040001N9+01001+99999100481ADDAA199001091GF108991081051008001999999MD1310041+9999
0072101200999991929102112004+54183+007883FM-12+005099999V0201801N00101220001CN0100001N9+01111+99999100931ADDAY101999GF104991001001999999031999EQDQ01+000032APCTENQ02+000002APC3  
0024990061999991929101917004+62000-033000SAO  +00004YA  V02099999999999999999N0000001N1+02461+01691999999ADDMA1999999101151MW1001
0059036010999991929121618004+51683-005167FM-12+004399999V0200501N001019999999N0200001N9+00561+00331104001ADDGA1011+999999019GF102991021011008001011001MD1310101+9999
0059036010999991929112318004+51683-005167FM-12+004399999V0202501N009319999999N0200001N9+00891+00831098801ADDGA1011+999999019GF104991041031004501031001MD1310201+9999
0037104190999991929020206004+51217+007633FM-12+013699999V0209999901231220001CN0500001N9-00111+99999102351ADDAY101061GF100991001001999999001001
0024990061999991929112013004+62000-033000SAO  +00004YA  V02099999999999999999N0000001N1+02241+01241999999ADDMA1999999101521MW1001
0075061800999991929123018004+55617+012650FM-12+000199999V0202301N00931004501CN0040001N9+00501+99999100381ADDAA199001091GF108991081061004501999999EQDQ01+000032APCTENQ02+000002APC3  
0070108650999991929111906004+48183+011550FM-12+015599999V0209991C00001220001CN0005001N9-00281-00331102601ADDAY141061GF100991001001999999001001KA1999N-00391MD1210061+9999MW1421
0081101270999991929080906004+53533+008150FM-12+000499999V0202301N00261012301CN0005001N9+01391+99999101521ADDAA199000691AY141999GF108991081051012501999999KA1999N+01111MD1310061+9999MW1441
0043060410999991929082118004+57733+010633FM-12+000399999V0202301N00101012301CN0100001N9+01501+99999102071ADDGF106991061051012501999999MD1810161+9999
0051265090999991929101718004+55717+021133FM-12+000399999V0201401N00261007801CN0010001N9+00611+99999100911ADDAY111999GF108991081051008001999999MD1810141+9999
0050108660999991929121418004+48183+011550FM-12+052099999V0202701N00101021001CN0200001N9+00721+99999103031ADDAY111061GF106991061001022501011001KA1999M+01111
0065032620999991929110413004+55017-001417FM-12+003399999V0202501N002619999999N0010001N9+00831+00721102161ADDGA1011+999999019GF108991081061004501999999MD1810201+9999MW1611
0029070090999991929120706004+50967+001833FM-12+002799999V0202301N02261002401CN0020001N9+00781+99999098021ADDGF108991061061002501999999
0059039660999991929101613004+53100-007900FM-12+005799999V0202701N006719999999N0200001N9+01281+00831101331ADDGA1011+999999019GF106991061011008001001001MD1310301+9999
0017333930999991929082618004+49817+023950FM-12+033999999V0203601N001019999999N9999999N9+01891+99999101901ADDMD1310101+9999
0028014030999991929123106004+59300+004883FM-12+005699999V0202901N999999999999N9999999N9+99999+99999099461ADDAA199001091MD1310201+9999
0024990061999991929102500004+62000-033000SAO  +00004YA  V02099999999999999999N0000001N1+02351+01961999999ADDMA1999999101251MW1001
0094101200999991929120112004+54183+007883FM-12+005099999V0202301N00101000151CN0000501N9+00891+99999099452ADDAY141999GF108991081051000251999999MW1441EQDQ01+099453APOSLPQ02+000032APCTENQ03+000002APC3  
0080037770999991929111101004+51350-000117FM-12+006699999V0202601N006719999999N0100001N9+00611+00221101751ADDGA1011+999999019GF104991041051012501001001EQDQ01+000032APCTENQ02+000002APC3  
0059037770999991929091701004+51350-000117FM-12+006699999V0200501N004619999999N0040001N9+01561+01281102331ADDGA1011+999999019GF108991081051004501999999MD1810051+9999
0059030260999991929101918004+58217-006333FM-12+000399999V0202901N001019999999N0100001N9+00781+00561100331ADDGA1011+999999019GF108991081051012501999999MD1810151+9999
0087039530999991929112906004+51933-010250FM-12+000999999V0201401N002619999999N0200001N9+01111+99999099101ADDAA199003091AY161999GF106991999051004501001001MD1810141+9999MW1621EQDQ01+000042SCOTLC
0057101470999991929042712004+53633+010000FM-12+000599999V0202501N00671001501CN0020001N9+00501+00441100061ADDAY161999GF108991081061001501999999MD1610061+9999MW1631
0059038880999991929112718004+50917+000967FM-12+000699999V0202301N004619999999N0200001N9+01061+00941101401ADDGA1011+999999019GF106991061051012501001001MD1810151+9999
0024990061999991929110311004+62000-033000SAO  +00004YA  V02099999999999999999N0000001N1+02411+01631999999ADDMA1999999101791MW1001
0071033790999991929092013004+53033-000500FM-12+006299999V0203301N012319999999N0200001N9+01331+00671100371ADDGA1011+999999019GF107991071031004501001001IA1089MD1310251+9999MW1611
0024990061999991929110401004+62000-033000SAO  +00004YA  V02099999999999999999N0000001N1+02301+01741999999ADDMA1999999101591MW1001
0059033790999991929080518004+53033-000500FM-12+006299999V0202701N004619999999N0200001N9+01561+00891101261ADDGA1011+999999019GF107991041051022501011999MD1310051+9999
0064106350999991929092506004+50217+008450FM-12+024499999V0209999900671220001CN0500001N9+00501+00111999999ADDAY101061GF100991001001999999001001KA1999N+00391MD1310141+9999
0059037750999991929100418004+51467-000317FM-12+000599999V0202001N001019999999N0020001N9+01171+00941100741ADDGA1011+999999019GF108991001001999999011999MD1810051+9999
0085037950999991929102007004+51083+001017FM-12+010499999V0202501N004619999999N0020001N9+00441+00221100561ADDGA1011+999999019GF101991011011012501001011KA1999M+01061KA2999N+00171MD1810151+9999
0024990061999991929122920004+62000-033000SAO  +00004YA  V02099999999999999999N0000001N1+01691+01351999999ADDMA1999999101561MW1001
0024990061999991929102213004+62000-033000SAO  +00004YA  V02099999999999999999N0000001N1+02681+01241999999ADDMA1999999101191MW1001
0115039520999991929102807004+51800-008250FM-12+000799999V0202301N001019999999N0100001N9+01331+01281100401ADDAA124999999GA1011+999999019GF108991081051004501999999KA1999M+99999KA2999N+00891MD1810301+9999EQDQ01 +01222ATMX  
0075103840999991929102618004+52483+013433FM-12+004899999V0202501N00261004501CN0020001N9+00781+99999099781ADDAA199011091AY161999GF107991071051004501001001KA1999M+01001MD1210061+9999
0102100460999991929082418004+54383+010150FM-12+002899999V0202501N00671001501CN0020001N9+01721+99999101471ADDAA199004091AY161999GF108991081061001501999999KA1999M+01891MW1531EQDQ01+000062APCTENQ02+000002APC3  
0096034970999991929080407004+52583+001733FM-12+000299999V0202001N009319999999N0100001N9+01671+01391100531ADDAA199000391GA1011+999999019GF102991001001999999001011KA1999M+01721KA2999N+01391MD1810151+9999
0078103380999991929111406004+52417+009750FM-12+001699999V0209999900461030001CN0010001N9-00111-00171099841ADDAY141999GF106991041051000751031001MW1101EQDQ01+000032APCTENQ02+000002APC3  
0115038880999991929110907004+50917+000967FM-12+000699999V0203401N001019999999N0040001N9+00331+00111101741ADDAA124999999GA1011+999999019GF199999001001999999001001KA1999M+01561KA2999N+00171MD1310151+9999EQDQ01+000002SCOTCV
0078037770999991929081501004+51350-000117FM-12+006699999V0209991C000019999999N0040001N9+01061+00831102121ADDGA1011+999999019GF199999001001999999001001MD1310051+9999EQDQ01+000002SCOTCV
0024990061999991929103017004+62000-033000SAO  +00004YA  V02099999999999999999N0000001N1+02461+01741999999ADDMA1999999101321MW1001
0024990061999991929122923004+62000-033000SAO  +00004YA  V02099999999999999999N0000001N1+01691+01521999999ADDMA1999999101661MW1001
0057011060999991929011206004+67500+012067FM-12+001199999V0202501N01231030001CN0100001N9+00501+99999101941ADDAY121999GF108991021061008001021001MD1810341+9999MW1161
0059038560999991929112618004+50533-002450FM-12+001099999V0202501N012319999999N0200001N9+01061+00611100801ADDGA1011+999999019GF104991041051008001001001MD1310201+9999
0091037770999991929103007004+51350-000117FM-12+006699999V0203601N004619999999N0020001N9+00941+00721100401ADDGA1011+999999019GF108991081051002501999999KA1999M+01331KA2999N+00831MD1310201+9999MW1101
0059038940999991929110518004+49450-002550FM-12+010499999V0201801N009319999999N0100001N9+01111+00671101201ADDGA1011+999999019GF104991041051012501001001MD1810351+9999
0059039800999991929102313004+55367-007333FM-12+002699999V0202301N012319999999N0040001N9+01171+01111098951ADDGA1011+999999019GF107991041051004501001081MD1810301+9999
0054014030999991929122518004+59300+004883FM-12+005699999V0201101N01231007801CN0200001N9-00111+99999098781ADDAA199001091GF108991081061008001999999MD1810401+9999
0065039530999991929121413004+51933-010250FM-12+000999999V0203401N004619999999N0100001N9+00831+00781102081ADDGA1011+999999019GF108991081051001501999999MD1310101+9999MW1511
0037108650999991929021112004+48183+011550FM-12+015599999V0200901N00461220001CN0040001N9-01891-02501102071ADDAY101061GF100991001001999999001001
0075109350999991929122806004+47650+009483FM-12+040099999V0202001N00261012301CN0200001N9+00391+99999101551ADDAA199005091AY121061GF108991081061012501999999KA1999N+00001MD1110061+9999
0024990061999991929121015004+62000-033000SAO  +00004YA  V02099999999999999999N0000001N1+02021+01521999999ADDMA1999999101561MW1001
0096033790999991929082207004+53033-000500FM-12+006299999V0202701N004619999999N0040001N9+01391+01331101621ADDAA199001091GA1011+999999019GF106991061051008001001001KA1999M+02001KA2999N+01281MD1310051+9999
0065033230999991929121418004+53350-002883FM-12+002499999V0202801N004619999999N0200001N9+00781+00671101981ADDGA1011+999999019GF108991081061008001999999MD1310151+9999MW1201
0081108660999991929122618004+48183+011550FM-12+052099999V0202501N00101001501CN0020001N9+00221+99999102081ADDAA199003091AY161061GF108991081061001501999999KA1999M+00281MD1310141+9999MW1631
0075014030999991929121406004+59300+004883FM-12+005699999V0202701N01541007801CN0100001N9+00501+99999099761ADDAA199010091GF106991061031008001999999EQDQ01+000032APCTENQ02+000002APC3  
0061108660999991929103006004+48183+011550FM-12+052099999V0202301N00461012301CN0040001N9+00721+99999100791ADDAA199000391AY121061GF107991061051012501031999KA1999N+00611
0121033010999991929101607004+53217-003000FM-12+005299999V0201601N006719999999N0040001N9+01171+00941101251ADDAA199999999GA1011+999999019GF107991071051004501001001KA1999M+01611KA2999N+01111MD1810251+9999MW1611EQDQ01  00002PRCP99
0089011060999991929020306004+67500+012067FM-12+001199999V0202001N00461007801CN0040001N9+00501+99999101861ADDAA199001091AY161999GF108991081061008001999999MW1611EQDQ01+000022APCTENQ02+000002APC3  
0080031590999991929102818004+56033-003133FM-12+005899999V0202301N004619999999N0100001N9+01001+00781099311ADDGA1011+999999019GF108991081051002501999999EQDQ01+000032APCTENQ02+000002APC3  
0050108660999991929082218004+48183+011550FM-12+052099999V0202501N002610360019N0100001N9+01501+99999102101ADDAY111061GF106991041051012501031999KA1999M+01721
0059036980999991929100118004+51783+001167FM-12+005299999V0201601N004619999999N0100001N9+01391+01281101381ADDGA1011+999999019GF108991081051012501999999MD1810201+9999
0059038040999991929121713004+49933-006300FM-12+005099999V0201601N004619999999N0200001N9+00831+00391104181ADDGA1011+999999019GF106991041011012501031001MD1810051+9999
0037108660999991929080212004+48183+011550FM-12+052099999V0202301N004610360019N0200001N9+01721+99999101381ADDAY181061GF107991041051012501011999
0070265090999991929081418004+55717+021133FM-12+000399999V0201801N00101220001CN0040001N9+01721+99999102151ADDAY101999GF102991999001999999011001MD1810141+9999EQDQ01+000002SCOTLC
0057060410999991929012906004+57733+010633FM-12+000399999V0209991C00001004501CN0000001N9-00721+99999102571ADDAY141999GF108991081051004501999999MD1310201+9999MW1441
0077330190999991929082906004+52117+026100FM-12+013799999V0200901N00101220001CN0040001N9+01891+99999102111ADDGF100991001001999999999999KA1999N+01111EQDQ01+000032APCTENQ02+000002APC3  
0077100460999991929121906004+54383+010150FM-12+002899999V0202501N00261004501CN0040001N9+00111+99999103671ADDGF108991081051004501999999KA1999N-00111EQDQ01+000062APCTENQ02+000002APC3  
0051060810999991929011112004+55550+008083FM-12+001599999V0200901N00101007801CN0100001N9-00501+99999104041ADDAY111999GF108991081061008001999999MD1810141+9999
0059039660999991929101413004+53100-007900FM-12+005799999V0202301N004619999999N0200001N9+01891+01221102441ADDGA1011+999999019GF107991061051012501001011MD1310051+9999
0051071800999991929020312004+48700+006233FM-12+023699999V0200701N00461220001CN0100001N9-00501+99999102101ADDAY111999GF100991001001999999001001MD1810141+9999
0051108660999991929120912004+48183+011550FM-12+052099999V0202701N00461220001CN0500001N9+00721+99999102151ADDAY101061GF101991001001999999001011MD1990061+9999
0064108650999991929080906004+48183+011550FM-12+015599999V02099999001019999999N0100001N9+01501+01441101601ADDAY121061GF108991999061004501001001KA1999N+01391MD1310141+9999
0065038560999991929102413004+50533-002450FM-12+001099999V0202301N019019999999N0040001N9+01441+01221098661ADDGA1011+999999019GF108991081051002501999999MD1810251+9999MW1651
0077330190999991929112218004+52117+026100FM-12+013799999V0200701N006719999999N0005001N9-00111+99999103271ADDGF108991081051999999999999KA1999M+00001EQDQ01+000032APCTENQ02+000002APC3  
0064108650999991929120906004+48183+011550FM-12+015599999V0209999900931220001CN0500001N9+00391+00001102131ADDAY101061GF104991021051012501031001KA1999N+00001MD1310201+9999
0024990061999991929100507004+62000-033000SAO  +00004YA  V02099999999999999999N0000001N1+02571+02181999999ADDMA1999999101021MW1001
0065036970999991929121013004+51950+001333FM-12+000399999V0202501N006719999999N0100001N9+00671+00281100611ADDGA1011+999999019GF102991001001999999001011IA1089MD1310251+9999
0048039800999991929102406004+55367-007333FM-12+002699999V0202301N009319999999N0200001N9+00721+99999098161ADDAA199005091AY161999GF106991999999012501999999
0080039730999991929112813004+54100-010067FM-12+000599999V0209991C000019999999N0100001N9+01001+00781099161ADDGA1011+999999019GF104991001001999999031001EQDQ01+000032APCTENQ02+000002APC3  
0024990061999991929111321004+62000-033000SAO  +00004YA  V02099999999999999999N0000001N1+01961+01411999999ADDMA1999999101291MW1001
0088034970999991929102706004+52583+001717FM-12+000299999V0202701N006719999999N0040001N9+00221+99999100561ADDAY101999GF106991999061008001001001EQDQ01+000022SCOTLCQ02+000032APCTENQ03+000002APC3  
0131031590999991929120207004+56033-003133FM-12+005899999V0201601N006719999999N0200001N9+00891+00441098601ADDAA199000091GA1011+999999019GF106991041051012501011001KA1999M+99999KA2999N+00611MD1810602+9999EQDQ01+000602APC3  Q02 +00832ATMX  
0068034970999991929120706004+52583+001717FM-12+000299999V0202301N01541007801CN0040001N9+00891+99999097091ADDAA199002091AY161999GF108991081061008001999999MD1510141+9999MW1211
0051106370999991929122112004+50050+008600FM-12+003499999V0201401N00261220001CN0040001N9-00221-00561101181ADDAY101061GF102991021011012501001001MD1810201+9999
0086071500999991929080106004+48950+002433FM-12+004699999V0202701N004619999999N0040001N9+01611+99999100501ADDAA199003091GF108991041999004501999999KA1999N+99999MD1310041+9999EQDQ01 +02112ATMN  
0077115180999991929101806004+50100+014283FM-12+037199999V0209991C000019999999N0040001N9+00891+99999101791ADDGF106991041011012501999999KA1999N+00781EQDQ01+000032APCTENQ02+000002APC3  
0024990061999991929123013004+62000-033000SAO  +00004YA  V02099999999999999999N0000001N1+01801+01521999999ADDMA1999999101761MW1001
0139031620999991929121107004+55317-003200FM-12+024299999V0202301N006719999999N0100001N9+00501+00441098011ADDAA199011091GA1011+999999019GF108991081061004501999999KA1999M+99999KA2999N-00061MW1611EQDQ01+000032APCTENQ02+000002APC3  Q03 +00392ATMX  
0064103380999991929123018004+52417+009750FM-12+005199999V0202001N00671012301CN0100001N9+00721+99999100741ADDAY101999GF107991071001012501011001KA1999M+00781MD1810401+9999
0117038560999991929122807004+50533-002450FM-12+001099999V0202501N009319999999N0200001N9+00831+00611100801ADDAA124999999GA1011+999999019GF104991041051008001011001KA1999M+01061KA2999N+00611EQDQ01+000032APCTENQ02+000002APC3  
0068032620999991929010606004+55017-001417FM-12+003399999V0201401N00461004501CN0100001N9+00391+99999102311ADDAA199000591AY161999GF108991081061004501999999MD1810141+9999MW1211
0056106350999991929101706004+50217+008450FM-12+024499999V0209999900261000151CN0005001N9+00721+00671999999ADDAY141061GF108991081051000251999999KA1999N+00611MW1451
0064106350999991929071006004+50217+008450FM-12+024499999V0209999900101220001CN0040001N9+01111+00501999999ADDAY101061GF102991001001999999001081KA1999N+00781MD1310061+9999
0051101200999991929102206004+54183+007883FM-12+005099999V0202301N004619999999N0040001N9+01001+99999100771ADDAY111999GF106991021061008001031999MD1810061+9999
0059039730999991929102218004+54100-010067FM-12+000599999V0202701N006719999999N0200001N9+01111+00891100621ADDGA1011+999999019GF106991061031999999001001MD1810051+9999
0059039800999991929101113004+55367-007333FM-12+002699999V0202701N012319999999N0100001N9+01281+01061102181ADDGA1011+999999019GF104991041011008001001001MD1310201+9999
0061108650999991929021406004+48183+011550FM-12+015599999V0209999900261004501CN0020001N9-02111-02281101541ADDAA199002091AY121061GF108991081051004501999999KA1999N-02391
0056333930999991929112218004+49817+023950FM-12+033999999V0201401N00671002401CN0020001N9+00281+99999102751ADDGF108991081051002501999999KA1999M+00391MD1810041+9999
0059035220999991929102718004+51850-001550FM-12+018799999V0203001N004619999999N0100001N9+00281-00111101481ADDGA1011+999999019GF101991011051017501001001MD1310201+9999
0081039530999991929022606004+51933-010250FM-12+000999999V0200501N001019999999N0200001N9+00611+99999100311ADDAA199006091AY111999GF106991999051008001001001MD1310141+9999EQDQ01+000022SCOTLC
0096030260999991929102907004+58217-006333FM-12+000399999V0209991C000019999999N0100001N9+00671+00611098591ADDAA199006091GA1011+999999019GF107991071051008001001001KA1999M+01111KA2999N+00611MD1310101+9999
0081100460999991929101818004+54383+010150FM-12+002899999V0202301N00261002401CN0040001N9+01111+99999100781ADDAA199004091AY181999GF108991081061002501999999KA1999M+01281MD1810141+9999MW1801
0106037950999991929110207004+51083+001017FM-12+010499999V0203601N002619999999N0100001N9+00391+00171102741ADDGA1011+999999019GF106991061051008001001001KA1999M+00781KA2999N+00281EQDQ01+000032APCTENQ02+000002APC3  
0065036980999991929102418004+51783+001167FM-12+005299999V0201801N015419999999N0040001N9+01331+01281098671ADDGA1011+999999019GF108991081061008001999999MD1810351+9999MW1631
0081124250999991929021506004+51133+016967FM-12+003799999V0203201N00101004501CN0010001N9-01611-01671999999ADDAA199000691AY171999GF108991081051004501999999KA1999N-02501MD1510201+9999MW1701
0051108650999991929021212004+48183+011550FM-12+015599999V0200901N00461220001CN0040001N9-01781-02221101351ADDAY141061GF100991001001999999001001MD1810141+9999
0075104490999991929102806004+51483+010317FM-12+009099999V0209999900671220001CN0100001N9+00391+00171101181ADDAA199001091AY181061GF104991041051008001031001KA1999N+00221MD1310201+9999
0075102240999991929100318004+53083+008783FM-12+000499999V0202001N004619999999N0100001N9+01221+99999100331ADDAA199007091AY161999GF108991041061004501999999KA1999M+01781MD1710141+9999
0059037750999991929110418004+51467-000317FM-12+000599999V0202001N004619999999N0020001N9+00831+00611102951ADDGA1011+999999019GF106991001001999999011001MD1810051+9999
0059034970999991929082101004+52583+001733FM-12+000299999V0201901N002619999999N0100001N9+01441+01331102071ADDGA1011+999999019GF102991001001999999031999MD1810051+9999
0051108660999991929112312004+48183+011550FM-12+052099999V0202901N00101220001CN0020001N9+01001+99999101711ADDAY101061GF102991999001999999031001MD1990061+9999
0107030530999991929111907004+57600-003867FM-12+000099999V0209991C000019999999N0100001N9+00281+00171099001ADDAA199003091GA1011+999999019GF108991081061002501999999KA1999M+99999KA2999N+00221MW1631EQDQ01 +00222ATMX  
0050109350999991929122318004+47650+009483FM-12+040099999V0200201N00101220001CN0020001N9-00501+99999100791ADDAY101061GF104991041051017501001001KA1999M+00111
0075060810999991929121606004+55550+008083FM-12+001599999V0203201N00461220001CN0200001N9+00501+99999102101ADDAA199002091GF104991021061008001999999EQDQ01+000032APCTENQ02+000002APC3  
0085033790999991929090207004+53033-000500FM-12+006299999V0202701N002619999999N0040001N9+01221+01171102111ADDGA1011+999999019GF106991001001999999001011KA1999M+02281KA2999N+01111MD1310201+9999
0024990061999991929110106004+62000-033000SAO  +00004YA  V02099999999999999999N0000001N1+01911+01351999999ADDMA1999999101521MW1001
0084039530999991929111713004+51933-010250FM-12+000999999V0200701N002619999999N0200001N9+00721+00111101271ADDGA1011+999999019GF199999001001999999001001IA1089MD1310201+9999EQDQ01+000002SCOTCV
0062039800999991929091606004+55367-007333FM-12+002699999V0202301N00101220001CN0200001N9+01001+99999102901ADDAA199000591AY111999GF102991021051012501001091MD1310061+9999
0075108650999991929050206004+48183+011550FM-12+015599999V0209999900261220001CN0200001N9+00781+00561101181ADDAA199000691AY181061GF104991999001999999031001KA1999N+00501MD1310061+9999
0102031000999991929120807004+56483-006867FM-12+000999999V0202101N012319999999N0040001N9+00561+00441097181ADDAA199008091GA1011+999999019GF107991071061008001001001KA1999M+00781KA2999N+00171MD1810251+9999MW1161
0059038940999991929100901004+49450-002550FM-12+010499999V0203201N006719999999N0500001N9+01001+00391101461ADDGA1011+999999019GF104991041011012501001001MD1310451+9999
0056115180999991929090706004+50100+014283FM-12+037199999V0203601N00461220001CN0200001N9+01221+99999102141ADDGF104991041051012501999999KA1999N+01111MD1310201+9999
0054073150999991929112318004+45917-000983FM-12+000499999V0201801N006719999999N0005001N9+01281+99999100941ADDAA199004091GF108991041061002501999999MD1310041+9999
0024990061999991929100515004+62000-033000SAO  +00004YA  V02099999999999999999N0000001N1+02851+01961999999ADDMA1999999100881MW1001
0059036010999991929101613004+51683-005167FM-12+004399999V0202501N006719999999N0100001N9+01441+01391101511ADDGA1011+999999019GF102991021031004501001001MD1310051+9999
0059033960999991929110313004+53583-000117FM-12+000999999V0203301N006719999999N0100001N9+00941+00721102361ADDGA1011+999999019GF102991021011012501001001MD1310051+9999
0051071800999991929021212004+48700+006233FM-12+023699999V0200501N01231220001CN0040001N9-01391+99999101191ADDAY111999GF100991001001999999001001MD1810141+9999
0065038640999991929111313004+50817-001300FM-12+000299999V0203301N006719999999N0100001N9+00671+00061099821ADDGA1011+999999019GF106991011011012501001011IA1009MD1310051+9999
0064104490999991929072606004+51483+010317FM-12+009099999V0209999900261030001CN0100001N9+01111+00891101571ADDAY111061GF108991041051004501021001KA1999N+00781MD1310061+9999
0024990061999991929112822004+62000-033000SAO  +00004YA  V02099999999999999999N0000001N1+01851+01241999999ADDMA1999999102001MW1001
0037070050999991929082012004+50133+001850FM-12+007199999V0209991C000019999999N0040001N9+02111+99999102101ADDAY121999GF108991041011008001999999
0024990061999991929121716004+62000-033000SAO  +00004YA  V02099999999999999999N0000001N1+02021+01911999999ADDMA1999999101251MW1001
0089038040999991929122306004+49933-006300FM-12+005099999V0202501N00931220001CN0100001N9+00781+99999098611ADDAA199002091AY161999GF104991041011012501001001MW1161EQDQ01+000032APCTENQ02+000002APC3  
0064071800999991929042206004+48700+006233FM-12+023699999V0209999900931220001CN0100001N9+00221+99999101631ADDAY111999GF101991001001999999001021KA1999N-00111MD1810061+9999
0051108660999991929120512004+48183+011550FM-12+052099999V0201101N00261220001CN0500001N9+01281+99999100861ADDAY101061GF101991999001999999011001MD1610461+9999
0096031590999991929100207004+56033-003133FM-12+005899999V0202701N019019999999N0200001N9+00941+00721098671ADDAA199011091GA1011+999999019GF106991061011004501001001KA1999M+01281KA2999N+00781MD1810051+9999
0059030910999991929120918004+57167-002200FM-12+007199999V0202501N002619999999N0100001N9+00391+00001098041ADDGA1011+999999019GF107991001001999999031001MD1810051+9999
0086030260999991929120618004+58217-006333FM-12+000399999V0202301N002619999999N0040001N9+00501+00441097111ADDGA1011+999999019GF107991071061004501001001MW1251EQDQ01+000032APCTENQ02+000002APC3  
0051100460999991929120912004+54383+010150FM-12+002899999V0202501N009319999999N0040001N9+00721+99999100191ADDAY181999GF106991021011004501011999MD1310061+9999
0043077470999991929112018004+42733+002867FM-12+004599999V0201401N00671220001CN0100001N9+01221+99999101301ADDGF104991011011008001999999MD1310041+9999
0121031590999991929121107004+56033-003133FM-12+005899999V0200901N002619999999N0100001N9+00391+00281097942ADDAA199004091GA1011+999999019GF108991081051008001999999KA1999M+00671KA2999N+00281MD1810301+9999MW1611EQDQ01+097943APOSLP
0070030910999991929101206004+57167-002100FM-12+002499999V0202301N00261220001CN0200001N9+00891+99999101931ADDAY111999GF107991999001999999021001MD1710061+9999EQDQ01+000002SCOTLC
0059038940999991929123018004+49450-002550FM-12+010499999V0202701N006719999999N0100001N9+00891+00671100581ADDGA1011+999999019GF104991041051008001001001MD1310301+9999
0096033230999991929111007004+53350-002883FM-12+002499999V0203001N009319999999N0200001N9+00721+00331100381ADDAA199012091GA1011+999999019GF106991061031004501001081KA1999M+00941KA2999N+00561MD1310251+9999
0075122050999991929011306004+53400+014633FM-12+000199999V0202701N00931002401CN0020001N9+00111+00061101641ADDGF108991081061002501999999KA1999N-00111MD1810542+9999EQDQ01+000542APC3  
0024990061999991929111214004+62000-033000SAO  +00004YA  V02099999999999999999N0000001N1+02131+00691999999ADDMA1999999101631MW1001
0059036930999991929122713004+51533+000817FM-12+000399999V0202501N002619999999N0200001N9+00941+00721100531ADDGA1011+999999019GF102991011051012501031001MD1810051+9999
0059038640999991929110118004+50817-001300FM-12+000299999V0200701N002619999999N0040001N9+00891+00441102871ADDGA1011+999999019GF108991081051012501999999MD1310051+9999
0117031400999991929100107004+55867-004433FM-12+000699999V0202701N002619999999N0100001N9+00501+00391100981ADDAA199001091GA1011+999999019GF102991021031008001031001KA1999M+01391KA2999N+00281EQDQ01+000032APCTENQ02+000002APC3  
0081100460999991929120818004+54383+010150FM-12+002899999V0202001N01231002401CN0040001N9+00781+99999099741ADDAA199002091AY161999GF108991081061002501999999KA1999M+00781MD1810341+9999MW1621
0051014270999991929010906004+58100+006567FM-12+000999999V0200901N00671007801CN0200001N9+00001+99999104631ADDAY121999GF108991081061008001999999MD1810061+9999
0059030260999991929122313004+58217-006333FM-12+000399999V0201401N015419999999N0100001N9+00501+00111097951ADDGA1011+999999019GF108991081051008001999999MD1810251+9999
0080039280999991929103113004+54650-005533FM-12+001299999V0202001N002619999999N0200001N9+01061+00441103051ADDGA1011+999999019GF102991021011012501001001EQDQ01+000032APCTENQ02+000002APC3  
0080033110999991929101718004+53317-004617FM-12+000899999V0202801N006719999999N0200001N9+01221+01001101291ADDGA1011+999999019GF107991061051008001011001EQDQ01+000032APCTENQ02+000002APC3  
0064108660999991929123106004+48183+011550FM-12+052099999V0202301N00261220001CN0500001N9+00221+99999101631ADDAY111061GF104991021051022501031999KA1999N-00221MD1610061+9999
0080038040999991929102201004+49933-006300FM-12+005099999V0203401N006719999999N0100001N9+01171+01061101361ADDGA1011+999999019GF107991071051012501001001EQDQ01+000032APCTENQ02+000002APC3  
0051333930999991929010806004+49817+023950FM-12+033099999V0200201N00261220001CN0020001N9-01111-01441104901ADDAY101999GF104991001001999999021021MD1310061+9999
0056333930999991929120318004+49817+023950FM-12+033999999V0201801N00261000601CN0040001N9+00281+99999102101ADDGF108991081051000751999999KA1999M+01001MD1310101+9999
0085103840999991929111506004+52483+013433FM-12+004899999V0209991C00001002401CN0010001N9+00281+99999099711ADDAY121999GF108991061061002501999999KA1999N+00281EQDQ01+000042APCTENQ02+000142APC3  
0096030260999991929100807004+58217-006333FM-12+000399999V0209991C000019999999N0100001N9+00441+00391099621ADDAA199002091GA1011+999999019GF104991021031012501001081KA1999M+01061KA2999N+00331MD1310101+9999
0085267020999991929112006004+54733+020567FM-12+002099999V0202001N00101012301CN0040001N9+00111+99999102581ADDAY111999GF107991061051012501031999KA1999N+00001EQDQ01+000032APCTENQ02+000002APC3  
0072063100999991929012706004+51567-003500FM-12+000999999V0202701N00261012301CN0020001N9-00281+99999101911ADDAY171999GF107991071051012501001001EQDQ01+000062APCTENQ02+000002APC3  
0050104270999991929080406004+51183+008483FM-12+025799999V0209999900671220001CN0200001N9+01721+01281999999ADDAY101061GF102991999001999999001081KA1999N+01001
0059039730999991929100701004+54100-010067FM-12+000599999V0203201N009319999999N0040001N9+00891+00441099891ADDGA1011+999999019GF106991061031999999001001MD1310101+9999
0000115180999991929121818004+50100+014283FM-12+037199999V02099999999999999999N9999999N9+99999+99999999999
0059038880999991929100513004+50917+000967FM-12+000699999V0202301N009319999999N0200001N9+01561+01441100631ADDGA1011+999999019GF106991041011008001001091MD1810151+9999
0117036930999991929112007004+51533+000817FM-12+000399999V0200601N002619999999N0100001N9+00721+00501100621ADDAA199000091GA1011+999999019GF104991001001999999031001KA1999M+01061KA2999N+00671EQDQ01+000032APCTENQ02+000002APC3  
0096039520999991929111607004+51800-008250FM-12+000799999V0203601N006719999999N0100001N9+00501+00391099271ADDAA124999999GA1011+999999019GF107991071031004501001001KA1999M+01061KA2999N+00441MD1310401+9999
0051032620999991929062006004+55017-001417FM-12+003399999V0202901N00261220001CN0100001N9+01221+99999102121ADDAY101999GF102991011011012501001021MD1310201+9999
0102031000999991929121707004+56483-006867FM-12+000999999V0202401N004619999999N0200001N9+00501+00391103741ADDAA199001091GA1011+999999019GF106991021031008001001091KA1999M+00891KA2999N+00331MD1810051+9999MW1251
0056071500999991929080318004+48950+002433FM-12+004699999V0202301N00261220001CN0040001N9+02221+99999101501ADDGF104991021011008001999999KA1999M+02391MD1810201+9999
0067115180999991929122418004+50100+014283FM-12+037199999V0209991C00001004501CN0010001N9-00281+99999100561ADDAA199003091GF108991081061004501999999KA1999M-00221MD1310201+9999
0096039660999991929122107004+53100-007900FM-12+005799999V0202301N002619999999N0200001N9+00061+00001098791ADDAA124999999GA1011+999999019GF108991011051008001011999KA1999M+00611KA2999N+00001MD1310201+9999
0043061800999991929121606004+55617+012650FM-12+000199999V0203201N00461220001CN0040001N9+00391+99999101721ADDGF102991021011008001999999MD1310161+9999
0078037480999991929103013004+51067-001317FM-12+008399999V0203601N009319999999N0100001N9+01111+00501101882ADDGA1011+999999019GF104991041051004501001001MD1310301+9999EQDQ01+101883APOSLP
0043073150999991929081706004+45917-000983FM-12+000499999V0209991C00001220001CN0040001N9+01721+99999101741ADDGF104991011011008001999999MD1310161+9999
0056333930999991929082206004+49817+023950FM-12+033999999V0203401N00101004501CN0040001N9+01391+99999101811ADDGF108991081061004501999999KA1999N+01281MD1310041+9999
0080030050999991929102713004+60133-001183FM-12+008399999V0203501N004619999999N0500001N9+00611+00001100791ADDGA1011+999999019GF104991021051004501031001EQDQ01+000032APCTENQ02+000002APC3  
0102039730999991929112607004+54100-010067FM-12+000599999V0201801N006719999999N0200001N9+00891+00441098961ADDAA124999999GA1011+999999019GF106991061031999999001001KA1999M+01001KA2999N+00671MD1310051+9999MW1251
0065033790999991929080513004+53033-000500FM-12+006299999V0202701N006719999999N0200001N9+01671+00781101211ADDGA1011+999999019GF107991061011004501031999IA1009MD1310101+9999
0050104270999991929090306004+51183+008483FM-12+025799999V0209999900101220001CN0200001N9+01721+01281999999ADDAY101061GF101991001001999999001081KA1999N+01501
0051108650999991929100212004+48183+011550FM-12+015599999V0202901N00931090001CN0200001N9+02001+01061101441ADDAY111061GF106991021051012501001081MD1810141+9999
0059038880999991929121013004+50917+000967FM-12+000699999V0202701N004619999999N0200001N9+00781+00391100931ADDGA1011+999999019GF104991001001999999011001MD1310251+9999
0065039530999991929110913004+51933-010250FM-12+000999999V0201801N009319999999N0200001N9+00941+00831100971ADDGA1011+999999019GF108991081051004501999999MD1810251+9999MW1611
0059033790999991929091101004+53033-000500FM-12+006299999V0201801N002619999999N0100001N9+01391+01281102411ADDGA1011+999999019GF106991061051008001001001MD1310101+9999
0059036980999991929102318004+51783+001167FM-12+005299999V0202301N006719999999N0100001N9+01221+00781100411ADDGA1011+999999019GF106991061011008001001001MD1810101+9999
0067330190999991929110218004+52117+026100FM-12+013799999V0201401N00261007801CN0020001N9+01001+99999102231ADDAA199003091GF108991081051008001999999KA1999M+01221MD1810161+9999
