0024990061999991930031304004+62000-033000SAO  +00004YA  V02099999999999999999N0000001N1+01301+00131999999ADDMA1999999101661MW1001
0102037770999991930022607004+51350-000117FM-12+006699999V0201601N006719999999N0020001N9+00561+00441100981ADDAA124999999GA1011+999999019GF108991061051008001011999KA1999M+00611KA2999N+00331MD1810101+9999MW1511
0059034970999991930071313004+52583+001733FM-12+000299999V0201701N006719999999N0040001N9+01561+01281101331ADDGA1011+999999019GF104991041011012501001001MD1810061+9999
0090037770999991930041018004+51350-000117FM-12+006699999V0200901N004619999999N0040001N9+01281+00611101071ADDGA1011+999999019GF199999001001999999001001IA1009MD1310041+9999MW1051EQDQ01+000002SCOTCV
0108267020999991930100406004+54733+020567FM-12+002099999V0202901N002619999999N0040001N9+01111+99999102121ADDAA199003091AY121999GF107991041081004501001011IA1089KA1999N+00781MW1051EQDQ01+000032APCTENQ02+000002APC3  
0070038880999991930120413004+50917+000967FM-12+000699999V0200501N002619999999N0020001N9+99999+99999999999ADDGA1011+999999019GF199999001001999999001001MW1051EQDQ01+000002SCOTCV
0088333930999991930081106004+49817+023950FM-12+033999999V0209999900931004501CN0020001N9+01221+99999100551ADDAA199007091GF108991081061004501999999KA1999N+01111EQDQ01+000032APCTENQ02+000002APC3  
0096031710999991930011307004+56383-002883FM-12+001199999V0202501N006719999999N0200001N9+00281+00061098971ADDAA199000591GA1011+999999019GF102991021031004501001011KA1999M+00391KA2999N+00111MD1310451+9999
0024990061999991930061223004+62000-033000SAO  +00004YA  V02099999999999999999N0000001N1+02681+02461999999ADDMA1999999100881MW1001
0065033960999991930102618004+53583-000117FM-12+000999999V0203301N006719999999N0100001N9+00831+00391101471ADDGA1011+999999019GF104991001001999999021001IA1009MD1310081+9999
0102030260999991930051907004+58217-006333FM-12+000399999V0202501N004619999999N0100001N9+00781+00561100751ADDAA199013091GA1011+999999019GF108991081051008001999999IA1089KA1999M+00831KA2999N+00671MD1310041+9999
0051101270999991930103112004+53533+008150FM-12+000499999V0202901N01231220001CN0100001N9+01001+99999101351ADDAY181999GF104991041041012501999999MD1310341+9999
0051108660999991930011212004+48183+011550FM-12+052099999V0202701N002619999999N0100001N9+00111+99999101061ADDAY171061GF106991041061002501999999MD1210261+9999
0059032620999991930082813004+55017-001417FM-12+003399999V0203601N002619999999N0040001N9+01831+01391101971ADDGA1011+999999019GF102991021051004501001001MD1310041+9999
0070103840999991930091518004+52483+013433FM-12+004899999V0202301N00461220001CN0100001N9+01781+99999101281ADDAY111999GF102991011021008001001061IA1009KA1999M+02221MD1310021+9999
0081070050999991930041406004+50133+001850FM-12+007199999V0203401N00461004501CN0040001N9+00891+99999099461ADDAA199007091AY121999GF108991061061004501011999IA1109KA1999N+00391MD1310181+9999
0065039530999991930112513004+51933-010250FM-12+000999999V0202401N012319999999N0200001N9+00941+00501098571ADDGA1011+999999019GF104991041081004501001001MD1310181+9999MW1211
0080030750999991930040713004+58450-003083FM-12+003699999V0202301N002619999999N0200001N9+00781+00721102281ADDGA1011+999999019GF106991011011012501031001EQDQ01+000032APCTENQ02+000002APC3  
0059037750999991930051613004+51467-000317FM-12+000599999V0202701N002619999999N0200001N9+01721+00831102301ADDGA1011+999999019GF106991041011012501001081MD1310021+9999
0070108650999991930112906004+48183+011550FM-12+015599999V0201601N00461220001CN0500001N9+01221-00671101071ADDAY101061GF104991001001999999031041IA1009KA1999N+01001MD1210021+9999
0091030910999991930060307004+57167-002200FM-12+007199999V0203201N001019999999N0200001N9+00941+00721101851ADDGA1011+999999019GF102991021051008001001001IA1009KA1999M+01171KA2999N+00501MD1310021+9999
0059037970350471930030313004+51350+001367FM-12+004799999V0201501N004619999999N0040001N9+01221+00611102581ADDGA1011+999999019GF104991001001999999001011MD1310061+9999
0078101200999991930012906004+54183+007883FM-12+005099999V0202301N00261000151CN0040001N9+00391+99999100851ADDAY161999GF108991081051000251999999MW1511EQDQ01+000032APCTENQ02+000002APC3  
0085031590999991930021307004+56033-003133FM-12+005899999V0202501N002619999999N0020001N9+00001-00061102801ADDGA1011+999999019GF104991041061001501001001KA1999M+00501KA2999N-00061MD1810151+9999
0070102240999991930090218004+53083+008783FM-12+000499999V0203401N00461220001CN0200001N9+01721+99999102481ADDAY101999GF101991011011012501001001IA1009KA1999M+01781MD1510021+9999
0037108060999991930022406004+48633+008083FM-12+004599999V0209999900461220001CN0100001N9+99999+99999999999ADDAY141061GF102991001001999999031999
0065031400999991930060418004+55867-004433FM-12+000699999V0202301N004619999999N0100001N9+01831+01171102421ADDGA1011+999999019GF107991001001999999071999IA1009MD1810021+9999
0059038040999991930010913004+49933-006300FM-12+005099999V0202001N015419999999N0040001N9+01001+00891100151ADDGA1011+999999019GF107991071051012501001001MD1810251+9999
0000076020999991930061418004+43483-001567FM-12+002999999V02099999999999999999N9999999N9+99999+99999999999
0096030910999991930010307004+57167-002200FM-12+007199999V0202301N006719999999N0100001N9+00781+00561099041ADDAA199000591GA1011+999999019GF106991001001999999011001KA1999M+00831KA2999N+00501MD1310151+9999
0102036980999991930091507004+51783+001167FM-12+005299999V0203201N004619999999N0100001N9+00941+00721101831ADDAA199000391GA1011+999999019GF102991021031001501001001IA1009KA1999M+01331KA2999N+00831MD1310141+9999
0051103840999991930091912004+52483+013433FM-12+004899999V0201601N002619999999N0040001N9+01781+99999101241ADDAY101999GF106991021011012501031081MD1990181+9999
0059035220999991930031113004+51850-001550FM-12+018799999V0203301N009319999999N0200001N9+00501-00111100221ADDGA1011+999999019GF107991071081012501001001MD1310101+9999
0070101270999991930072312004+53533+008150FM-12+000499999V0201801N002619999999N0040001N9+01501+99999100691ADDAY121999GF108991999001012501021999MD1110021+9999EQDQ01+000002SCOTLC
0071033110999991930081118004+53317-004617FM-12+000899999V0202301N006719999999N0200001N9+01501+01221100901ADDGA1011+999999019GF107991041051008001051001IA1089MD1810061+9999MW1251
0065031000999991930101418004+56483-006867FM-12+000999999V0201901N009319999999N0100001N9+01441+01391099521ADDGA1011+999999019GF104991011051002501041081IA1089MD1310261+9999
0064264220999991930011206004+56983+024083FM-12+000299999V0201801N00931004501CN0100001N9-00111+99999100301ADDAY121999GF108991081051004501999999KA1999N-00281MD1810201+9999
0024990061999991930102820004+62000-033000SAO  +00004YA  V02099999999999999999N0000001N1+02571+02301999999ADDMA1999999100951MW1001
0043014030999991930041506004+59300+004883FM-12+005699999V0203601N00931220001CN0200001N9+00501+99999100871ADDGF102991011011012501999999MD1310061+9999
0059033480999991930112313004+53983-001550FM-12+014699999V0202501N006719999999N0500001N9+00721+00331101451ADDGA1011+999999019GF101991011021012501001011MD1310201+9999
0108038040999991930032107004+49933-006300FM-12+005099999V0202401N006719999999N0200001N9+00611+00561100591ADDAA124999999GA1011+999999019GF106991061081012501001001IA1089KA1999M+00781KA2999N+00611MD1810101+9999MW1251
0102039280999991930061107004+54650-005533FM-12+001299999V0202601N002619999999N0100001N9+01061+00611100531ADDAA124999999GA1011+999999019GF106991041051012501021001IA1009KA1999M+01611KA2999N+00891MD1310101+9999
0037104090999991930092412004+51833+006267FM-12+000599999V0201801N00461012301CN0040001N9+99999+99999999999ADDAY121061GF107991061041012501021999
0059030910999991930120313004+57167-002200FM-12+007199999V0202301N002619999999N0020001N9+00781+00391102831ADDGA1011+999999019GF107991001001999999071001MD1810121+9999
0024990061999991930101601004+62000-033000SAO  +00004YA  V02099999999999999999N0000001N1+02461+02131999999ADDMA1999999101521MW1001
0065033960999991930081018004+53583-000117FM-12+000999999V0202601N002619999999N0040001N9+01721+01281101071ADDGA1011+999999019GF108991041061008001031081IA1089MD1810061+9999
0071037950999991930041218004+51083+001017FM-12+010499999V0202301N002619999999N0040001N9+00781+00721100461ADDGA1011+999999019GF108991081051004501999999IA1089MD1810161+9999MW1611
0043115180999991930021306004+50100+014283FM-12+037199999V0209991C00001012301CN0005001N9-00391+99999103271ADDGF107991071051012501999999MD1310041+9999
0071033960999991930030518004+53583-000117FM-12+000999999V0202701N002619999999N0040001N9+00781+00561102941ADDGA1011+999999019GF108991061061012501021999IA1199MD1810021+9999MW1601
0071037480999991930123018004+51067-001317FM-12+008399999V0202001N006719999999N0100001N9+00941+00891098261ADDGA1011+999999019GF107991071051004501001001IA1089MD1810141+9999MW1211
0143033480999991930030207004+53983-001550FM-12+014699999V0200701N002619999999N0100001N9+00281+00221103111ADDAA199999999GA1011+999999019GF108991999061008001051999IA1089KA1999M+00331KA2999N+00221MD1810061+9999MW1201EQDQ01+000082SCOTLCQ02  00002PRCP99
0065039520999991930041518004+51800-008250FM-12+000799999V0203601N009319999999N0500001N9+01171+00281102271ADDGA1011+999999019GF104991041031004501001001IA1009MD1310101+9999
0097031590999991930110607004+56033-003133FM-12+005899999V0202301N002619999999N0020001N9+00111+00061101011ADDGA1011+999999019GF107991041051002501091999IA1139KA1999M+00831KA2999N+00061MD1310021+9999MW1051
0102036270999991930072207004+51917-002583FM-12+006899999V0202901N006719999999N0200001N9+01281+00611101251ADDAA199004091GA1011+999999019GF106991061071012501001081IA1089KA1999M+01561KA2999N+01001MD1310041+9999
0065037970350471930081318004+51350+001367FM-12+004799999V0202701N006719999999N0200001N9+01671+01001100851ADDGA1011+999999019GF107991021051008001071999IA1009MD1810021+9999
0059033790999991930092613004+53033-000500FM-12+006299999V0203201N009319999999N0040001N9+01061+00831100971ADDGA1011+999999019GF108991081051004501999999MD1810101+9999
0059038110999991930091301004+50133-005033FM-12+006199999V0202101N004619999999N0040001N9+01441+01391101101ADDGA1011+999999019GF108991081051004501999999MD1810101+9999
0143031620999991930121107004+55317-003200FM-12+024299999V0201601N009319999999N0040001N9+00281+00221099231ADDAA199000391GA1011+999999019GF108991081051004501999999IA1139KA1999M+99999KA2999N-00221MD1810542+9999MW1501EQDQ01+000542APC3  Q02 -00062ATMX  
0024990061999991930121508004+62000-033000SAO  +00004YA  V02099999999999999999N0000001N1+01631+01241999999ADDMA1999999101961MW1001
0051108650999991930010512004+48183+011550FM-12+015599999V0200701N00261220001CN0500001N9+00501-00111101001ADDAY111061GF106991001001999999021091MD1810141+9999
0059037480999991930060313004+51067-001317FM-12+008399999V0200201N004619999999N0200001N9+01501+01061101551ADDGA1011+999999019GF106991061011008001001001MD1810021+9999
0065030910999991930121718004+57167-002200FM-12+007199999V0201801N004619999999N0020001N9+00501+00281101961ADDGA1011+999999019GF107991041051012501071999IA1089MD1810121+9999
0065036980999991930100318004+51783+001167FM-12+005299999V0201401N006719999999N0100001N9+01391+00941102621ADDGA1011+999999019GF104991041071004501061001IA1009MD1810061+9999
0045030530999991930021118004+57600-003867FM-12+000099999V0209991C000019999999N0100001N9+00111-00111103391ADDGA1011+999999019GF104991001001999999001081
0051108650999991930072712004+48183+011550FM-12+015599999V0202701N00461036001CN0200001N9+02111+01441101621ADDAY121061GF107991041051017501051999MD1610021+9999
0043023610999991930072218004+62617+017950FM-12+000999999V0201801N00101220001CN0500001N9+01891+99999100751ADDGF102991011011004501999999MD1810101+9999
0037108060999991930070112004+48633+008083FM-12+004599999V0200501N00261220001CN0100001N9+99999+99999999999ADDAY101061GF102991021011012501001999
0059031710999991930061913004+56383-002883FM-12+001199999V0201801N004619999999N0100001N9+02331+01391101081ADDGA1011+999999019GF101991011021008001001001MD1810061+9999
0059030260999991930082313004+58217-006333FM-12+000399999V0200901N004619999999N0200001N9+01501+01441100521ADDGA1011+999999019GF104991011021012501031011MD1810041+9999
0123038280999991930091107004+50483-004100FM-12+019899999V0200901N004619999999N0100001N9+01501+01441100931ADDAA124999999GA1011+999999019GF107991071051008001001001IA1089KA1999M+01891KA2999N+01331EQDQ01+000032APCTENQ02+000002APC3  
0091032620999991930052807004+55017-001417FM-12+003399999V0202701N004619999999N0100001N9+01061+00441100451ADDGA1011+999999019GF104991041021008001001001IA1009KA1999M+02111KA2999N+01001MD1310201+9999
0059030050999991930041101004+60133-001183FM-12+008399999V0202801N001019999999N0200001N9+00611+00561100821ADDGA1011+999999019GF106991041041004501071001MD1310061+9999
0096032620999991930102101004+55017-001417FM-12+003399999V0202301N002619999999N0100001N9+00611+00391100111ADDGA1011+999999019GF199999001001999999001001EQDQ01+000002SCOTCVQ02+000032APCTENQ03+000002APC3  
0000333930999991930101806004+49817+023950FM-12+033999999V0201101N001019999999N0040001N9+01111+99999102501
0065030260999991930062018004+58217-006333FM-12+000399999V0202001N004619999999N0100001N9+01441+01001100631ADDGA1011+999999019GF104991041081008001001001IA1009MD1810041+9999
0071030750999991930102318004+58450-003083FM-12+003699999V0202701N004619999999N0200001N9+00501+00281099491ADDGA1011+999999019GF106991041081004501041091IA1089MD1810121+9999MW1251
0024990061999991930061612004+62000-033000SAO  +00004YA  V02099999999999999999N0000001N1+03181+02521999999ADDMA1999999100511MW1001
0061107270999991930010918004+49017+008383FM-12+011899999V0209991C00001220001CN0005001N9+00391+99999101991ADDAA199000391AY121061GF100991001001999999001001KA1999M+00721
0024990061999991930120600004+62000-033000SAO  +00004YA  V02099999999999999999N0000001N1+01351+00851999999ADDMA1999999101931MW1001
0078038640999991930032501004+50817-001300FM-12+000299999V0209991C000019999999N0100001N9+00111-00221102901ADDGA1011+999999019GF199999001001999999001001MD1310021+9999EQDQ01+000002SCOTCV
0076101270999991930040718004+53533+008150FM-12+000499999V0200201N00261220001CN0040001N9+00891+99999999999ADDAY111999GF104991999041017501001011IA1009MD1310181+9999EQDQ01+000062SCOTLC
0076162400999991930012406004+41867+012550FM-12+005099999V0209991C000019999999N0040001N9+00781+99999102231ADDAY161999GF108991999051004501001001MD1810141+9999MW1501EQDQ01+000042SCOTLC
0024990061999991930072901004+62000-033000SAO  +00004YA  V02099999999999999999N0000001N1+02801+02521999999ADDMA1999999099831MW1001
0084037750999991930012713004+51467-000317FM-12+000599999V0209991C000019999999N0000501N9+00831+00611100181ADDGA1011+999999019GF108991081051000251999999MD1310051+9999MW1441EQDQ01+000452PRSWM1
0080035220999991930030213004+51850-001550FM-12+018799999V0200901N006719999999N0040001N9+00391+00171102391ADDGA1011+999999019GF107991061051002501071001EQDQ01+000032APCTENQ02+000002APC3  
0071038940999991930121618004+49450-002550FM-12+010499999V0203601N006719999999N0100001N9+00721+00501100341ADDGA1011+999999019GF108991081061004501999999IA1089MD1310461+9999MW1621
0059030750999991930021601004+58450-003083FM-12+003699999V0203201N004619999999N0200001N9+00111+00001102181ADDGA1011+999999019GF104991041031004501001091MD1310151+9999
0051030530999991930110518004+57600-003867FM-12+005299999V0202701N001019999999N0200001N9+00111-00111100631ADDGA1011+999999019GF104991041051012501011001IA1009
0059038640999991930052513004+50817-001300FM-12+000299999V0203301N002619999999N0040001N9+01561+01111101221ADDGA1011+999999019GF108991081051004501999999MD1810101+9999
0075267020999991930030518004+54733+020567FM-12+002099999V0203401N00931007801CN0200001N9+00111+99999101011ADDAA199006091AY181999GF107991071031008001001001KA1999M+00281MD1310281+9999
0072103380999991930122806004+52417+009750FM-12+001699999V0202001N00461220001CN0040001N9+00501+00441101261ADDAY161999GF104991041051008001011999EQDQ01+000042APCTENQ02+000122APC3  
0059033110999991930112701004+53317-004617FM-12+000899999V0202701N006719999999N0040001N9+00721+00501099571ADDGA1011+999999019GF102991021081008001001001MD1310281+9999
0054070090999991930081018004+50967+001833FM-12+002799999V0202301N00931000151CN0000501N9+01501+99999101471ADDAA199000391GF108991081051000251999999MD1810141+9999
0057108660999991930011012004+48183+011550FM-12+052099999V0203201N00101000601CN0010001N9+00001+99999101711ADDAY141061GF108991081051000751999999MD1810061+9999MW1441
0059031710999991930022813004+56383-002883FM-12+001199999V0209991C000019999999N0020001N9+01111+00671103261ADDGA1011+999999019GF102991021051001501001081MD1310101+9999
0059038640999991930041901004+50817-001300FM-12+000299999V0203301N006719999999N0200001N9+00441+00061101191ADDGA1011+999999019GF101991011051008001001001MD1810201+9999
0091033110999991930060807004+53317-004617FM-12+000899999V0203601N004619999999N0200001N9+01111+00891102641ADDGA1011+999999019GF102991011011004501001011IA1009KA1999M+01331KA2999N+00941MD1310021+9999
0024990061999991930092913004+62000-033000SAO  +00004YA  V02099999999999999999N0000001N1+02801+02521999999ADDMA1999999100981MW1001
0024990061999991930030807004+62000-033000SAO  +00004YA  V02099999999999999999N0000001N1+01131+00691999999ADDMA1999999102101MW1001
0024990061999991930091919004+62000-033000SAO  +00004YA  V02099999999999999999N0000001N1+02631+02181999999ADDMA1999999100781MW1001
0024990061999991930112314004+62000-033000SAO  +00004YA  V02099999999999999999N0000001N1+02301+01571999999ADDMA1999999101691MW1001
0059039800999991930042401004+55367-007333FM-12+002699999V0209991C000019999999N0020001N9+00721+00671099491ADDGA1011+999999019GF108991041051004501021999MD1810061+9999
0071039280999991930041118004+54650-005533FM-12+001299999V0202701N002619999999N0100001N9+00831+00391100671ADDGA1011+999999019GF107991071061004501001001IA1089MD1810081+9999MW1601
0043073150999991930032806004+45917-000983FM-12+000499999V0201101N00101220001CN0020001N9+00501+99999101531ADDGF101991001001999999999999MD1810081+9999
0051267020999991930080812004+54733+020567FM-12+002099999V0202901N00461220001CN0100001N9+02001+99999101531ADDAY111999GF104991021011012501071999MD1310021+9999
0056071500999991930052718004+48950+002433FM-12+004699999V0202001N002619999999N0040001N9+01721+99999100691ADDGF106991041031008001999999KA1999M+02001MD1810061+9999
0096038640999991930081701004+50817-001300FM-12+000299999V0202701N002619999999N0200001N9+01171+00941102131ADDGA1011+999999019GF199999001001999999001001EQDQ01+000002SCOTCVQ02+000032APCTENQ03+000002APC3  
0143035220999991930101907004+51850-001550FM-12+018799999V0201401N004619999999N0000501N9+00561+00501101341ADDAA199000591GA1011+999999019GF199999001001999999001001IA1089KA1999M+01501KA2999N+00441MD1810101+9999MW1441EQDQ01+000002SCOTCVQ02+000452PRSWM1
0108039660999991930031507004+53100-007900FM-12+005799999V0200501N006719999999N0040001N9+00171+00111098801ADDAA124999999GA1011+999999019GF108991081051004501999999IA1089KA1999M+00721KA2999N+00061MD1310021+9999MW1681
0108033230999991930102407004+53350-002883FM-12+002499999V0202501N009319999999N0200001N9+00781+00561100101ADDAA199003091GA1011+999999019GF107991071061004501001001IA1089KA1999M+01111KA2999N+00721MD1810061+9999MW1251
0080031590999991930052413004+56033-003133FM-12+005899999V0200901N004619999999N0100001N9+01061+01001102401ADDGA1011+999999019GF108991041051002501011999EQDQ01+000032APCTENQ02+000002APC3  
0108037770999991930041707004+51350-000117FM-12+006699999V0203501N006719999999N0040001N9+00671+00061101311ADDAA124999999GA1011+999999019GF107991041081004501071999IA1089KA1999M+00941KA2999N+00671MD1310021+9999MW1051
0065038560999991930031513004+50533-002450FM-12+001099999V0201801N006719999999N0100001N9+00721+00671098681ADDGA1011+999999019GF108991071031004501011021MD1810101+9999MW1601
0065037950999991930090513004+51083+001017FM-12+010499999V0201501N004619999999N0040001N9+02111+01671101421ADDGA1011+999999019GF102991001001999999041011MD1810121+9999MW1051
0037104340999991930051712004+51533+009017FM-12+006199999V0203201N00261012301CN0100001N9+99999+99999999999ADDAY111061GF106991061051012501001999
0065030050999991930050618004+60133-001183FM-12+008399999V0209991C000019999999N0100001N9+00671+00441101741ADDGA1011+999999019GF108991041051004501021999IA1009MD1810061+9999
0065039660999991930052118004+53100-007900FM-12+005799999V0200201N001019999999N0200001N9+01611+01171102351ADDGA1011+999999019GF107991071051012501001001IA1009MD1810041+9999
0123037750999991930102107004+51467-000317FM-12+000599999V0202001N004619999999N0200001N9+00501+00441100651ADDAA124999999GA1011+999999019GF102991011081008001001061IA1089KA1999M+01331KA2999N+00391EQDQ01+000032APCTENQ02+000002APC3  
0092033960999991930121918004+53583-000117FM-12+000999999V0202801N002619999999N0020001N9+00891+00831103281ADDGA1011+999999019GF108991081051002501999999IA1009MW1101EQDQ01+000032APCTENQ02+000002APC3  
0091033790999991930072607004+53033-000500FM-12+006299999V0201901N006719999999N0200001N9+01391+00941101391ADDGA1011+999999019GF106991041051022501031091IA1089KA1999M+02001KA2999N+01061MD1810061+9999
0102037660999991930081007004+51283-000750FM-12+006999999V0202001N002619999999N0040001N9+01441+01391101631ADDAA124999999GA1011+999999019GF108991081051004501999999IA1009KA1999M+02001KA2999N+01281MD1810061+9999
0059038040999991930070113004+49933-006300FM-12+005099999V0202001N006719999999N0200001N9+01831+01391100451ADDGA1011+999999019GF106991041081012501081001MD1310101+9999
0057265090999991930030706004+55717+021133FM-12+000399999V0202901N00931007801CN0100001N9+00281+99999101101ADDAY111999GF108991081051008001999999MD1610061+9999MW1171
0065030910999991930012013004+57167-002200FM-12+007199999V0202701N004619999999N0200001N9+00721+00111100631ADDGA1011+999999019GF101991011011012501001001IA1089MD1310251+9999
0017061800999991930052318004+55617+012650FM-12+000199999V0200901N002619999999N0100001N9+01281+99999102181ADDMD1310141+9999
0059033960999991930010718004+53583-000117FM-12+000999999V0202001N012319999999N0100001N9+00831+00721100951ADDGA1011+999999019GF106991061051012501001001MD1810151+9999
0024990061999991930090400004+62000-033000SAO  +00004YA  V02099999999999999999N0000001N1+02741+02411999999ADDMA1999999100681MW1001
0059033960999991930041713004+53583-000117FM-12+000999999V0203601N015419999999N0100001N9+00721+00501100821ADDGA1011+999999019GF106991041021012501031001MD1810061+9999
0127035220999991930031607004+51850-001550FM-12+018799999V0203401N002619999999N0000501N9+00171+00111098661ADDAA199014091GA1011+999999019GF199999999001999999001001IA1089KA1999M+00721KA2999N+00111MD1810061+9999MW1441EQDQ01+000452PRSWM1
0070103840999991930051918004+52483+013433FM-12+004899999V0202701N00671220001CN0200001N9+01281+99999101761ADDAY111999GF104991021071012501001081IA1009KA1999M+01611MD1310101+9999
0082030530999991930020107004+57600-003867FM-12+000099999V0201101N006719999999N0100001N9+00391+00171098461ADDAA199002091GA1011+999999019GF106991061051004501001001KA1999M+00441KA2999N+00281
0056108660999991930112906004+48183+011550FM-12+052099999V0201601N00461220001CN0500001N9+01221+99999101071ADDAY101061GF104991001001999999031021IA1009KA1999N+01001
0043014030999991930112418004+59300+004883FM-12+005699999V0201401N01541220001CN0500001N9+00391+99999099971ADDGF102991021051012501999999MD1810401+9999
0059030750999991930090213004+58450-003083FM-12+003699999V0202701N002619999999N0200001N9+01331+00891102731ADDGA1011+999999019GF106991041081008001061001MD1310101+9999
0075014030999991930040606004+59300+004883FM-12+005699999V0200901N00671007801CN0500001N9+00721+99999101391ADDAA199000691GF108991081061008001999999EQDQ01+000032APCTENQ02+000002APC3  
0024990061999991930101205004+62000-033000SAO  +00004YA  V02099999999999999999N0000001N1+02301+01411999999ADDMA1999999101491MW1001
0065035310999991930101918004+52483-001933FM-12+016399999V0201601N004619999999N0200001N9+01111+00671100421ADDGA1011+999999019GF102991021061008001041001IA1089MD1810141+9999
0102031000999991930082207004+56483-006867FM-12+000999999V0202501N009319999999N0100001N9+01281+01061100261ADDAA199023091GA1011+999999019GF106991061061008001001001IA1089KA1999M+01391KA2999N+01111MD1310281+9999
0056071500999991930062818004+48950+002433FM-12+004699999V0202701N00261220001CN0040001N9+02001+99999101831ADDGF104991021011008001999999KA1999M+02221MD1310021+9999
0070064510999991930100312004+50883+004417FM-12+005599999V0201601N00261220001CN0100001N9+01781+99999102961ADDAY101999GF100991001001999999001001MD1810201+9999EQDQ01+000012SCOHCG
0100031000999991930101913004+56483-006867FM-12+000999999V0201501N019019999999N0040001N9+01111+01061098872ADDGA1011+999999019GF108991081061002501999999MD1810502+9999MW1631EQDQ01+098873APOSLPQ02+000502APC3  
0043782593999991930061116004+20450-076633FM-12+010199999V0200501N00261220001CN0200001N9+03281+99999999999ADDAY111999GF104991041999008001999999MW1021
0059037950999991930032401004+51083+001017FM-12+010499999V0200501N009319999999N0040001N9+00501+00441101051ADDGA1011+999999019GF108991081061002501999999MD1310161+9999
0086038040999991930041218004+49933-006300FM-12+005099999V0203201N009319999999N0100001N9+00941+00501101061ADDGA1011+999999019GF102991021011012501001001IA1009EQDQ01+000032APCTENQ02+000002APC3  
0059030910999991930120913004+57167-002200FM-12+007199999V0202701N002619999999N0200001N9+00331-00061100271ADDGA1011+999999019GF106991001001999999061031MD1310121+9999
0043014030999991930040906004+59300+004883FM-12+005699999V0209999900671007801CN0500001N9+00501+99999101921ADDGF108991081061008001999999MD1810061+9999
0065037770999991930061001004+51350-000117FM-12+006699999V0201901N004619999999N0040001N9+00941+00891101561ADDGA1011+999999019GF101991001001999999001011MD1810101+9999MW1051
0051103380999991930082012004+52417+009750FM-12+001699999V0209991C00001220001CN0200001N9+02001+00781102371ADDAY101999GF104991041011012501001001MD1610021+9999
0057103840999991930081412004+52483+013433FM-12+004899999V0202301N006719999999N0020001N9+01501+99999099681ADDAY181999GF108991041061008001021999MD1510221+9999MW1611
0059030750999991930051101004+58450-003083FM-12+003699999V0200901N001019999999N0200001N9+00671+00611099711ADDGA1011+999999019GF107991041061004501061001MD1810101+9999
0051103840999991930011512004+52483+013433FM-12+004899999V0202301N002619999999N0020001N9+01001+99999101461ADDAY161999GF107991021061012501999999MD1610061+9999
0102030750999991930051107004+58450-003083FM-12+003699999V0202001N002619999999N0200001N9+00671+00611099801ADDAA199006091GA1011+999999019GF107991061031004501011001IA1089KA1999M+00941KA2999N+00501MD1310081+9999
0087104270999991930102206004+51183+008483FM-12+025799999V0202301N00671000151CN0000001N9+00221+00171099441ADDAA199002091AY141061GF109991091999000251999999IA1089KA1999N+00221MD1410001+9999MW1451
0088330190999991930120118004+52117+026100FM-12+013799999V0203201N00461007801CN0020001N9+00221+99999102061ADDAA199000391GF108991081051008001999999KA1999M+00501EQDQ01+000032APCTENQ02+000002APC3  
0059037660999991930100813004+51283-000750FM-12+006999999V0202301N012319999999N0100001N9+01561+00891099281ADDGA1011+999999019GF107991061091004501091001MD1810141+9999
0017073150999991930051918004+45917-000983FM-12+000499999V0202901N006719999999N9999999N9+01391+99999102701ADDMD1810101+9999
0059030050999991930122113004+60133-001183FM-12+008399999V0202801N006719999999N0100001N9+00501+00111101581ADDGA1011+999999019GF104991041081004501001001MD1310161+9999
0059039800999991930050313004+55367-007333FM-12+002699999V0203201N002619999999N0040001N9+01111+01061102351ADDGA1011+999999019GF106991011021008001091091MD1310061+9999
0078034970999991930030401004+52583+001733FM-12+000299999V0202301N002619999999N0040001N9+00721+00501102821ADDGA1011+999999019GF199999001001999999001001MD1310101+9999EQDQ01+000002SCOTCV
0059037660999991930082213004+51283-000750FM-12+006999999V0202301N006719999999N0200001N9+01831+00891101761ADDGA1011+999999019GF106991041051012501031091MD1310021+9999
0065032620999991930021813004+55017-001417FM-12+003399999V0200901N002619999999N0200001N9+00561-00061103801ADDGA1011+999999019GF104991041011008001001001MD1310051+9999MW1281
0065038280999991930021413004+50483-004100FM-12+019899999V0201401N002619999999N0200001N9+01001+00561101781ADDGA1011+999999019GF104991041011012501001001IA1089MD1810051+9999
0086039660999991930123118004+53100-007900FM-12+005799999V0203201N001019999999N0100001N9+00391+00331099191ADDGA1011+999999019GF107991071051008001999999IA1089EQDQ01+000032APCTENQ02+000002APC3  
0077333930999991930070506004+49817+023950FM-12+033999999V0209999900261220001CN0100001N9+02001+99999101411ADDGF100991001001999999999999KA1999N+01001EQDQ01+000032APCTENQ02+000002APC3  
0065038110999991930061818004+50133-005033FM-12+006199999V0202401N002619999999N0200001N9+01721+01281101611ADDGA1011+999999019GF104991021081012501031001IA1009MD1810061+9999
0059038640999991930090501004+50817-001300FM-12+000299999V0200901N009319999999N0040001N9+01831+01561101641ADDGA1011+999999019GF106991061091004501041001MD1810161+9999
0091033230999991930021707004+53350-002883FM-12+002499999V0200701N002619999999N0010001N9+00061-00441103171ADDGA1011+999999019GF102991021051004501001001KA1999M+00391KA2999N-00061MD1310051+9999MW1101
0128030910999991930061507004+57167-002200FM-12+007199999V0201101N002619999999N0200001N9+01281+01061103041ADDGA1011+999999019GF199999001001999999001001IA1009KA1999M+01721KA2999N+00721EQDQ01+000002SCOTCVQ02+000032APCTENQ03+000002APC3  
0051070050999991930091712004+50133+001850FM-12+007199999V0202501N00261030001CN0100001N9+01891+99999101301ADDAY121999GF107991041061017501051081MD1610061+9999
0043061800999991930092418004+55617+012650FM-12+000199999V0201601N00261007801CN0100001N9+01611+99999101861ADDGF108991081051008001999999MD1810141+9999
0065033480999991930051818004+53983-001550FM-12+014699999V0202301N012319999999N0200001N9+01061+00441101291ADDGA1011+999999019GF107991041031008001001091IA1089MD1310101+9999
0065039800999991930061001004+55367-007333FM-12+002699999V0202501N006719999999N0100001N9+00941+00891100561ADDGA1011+999999019GF107991071091004501999999MD1810101+9999MW1211
0024990061999991930120417004+62000-033000SAO  +00004YA  V02099999999999999999N0000001N1+01961+01411999999ADDMA1999999101561MW1001
0123036010999991930102907004+51683-005167FM-12+004399999V0202501N004619999999N0200001N9+01171+01111101321ADDAA199000591GA1011+999999019GF107991071051004501999999IA1089KA1999M+01501KA2999N+01111EQDQ01+000032APCTENQ02+000002APC3  
0065039730999991930070413004+54100-010067FM-12+000599999V0202701N004619999999N0200001N9+01391+01171101451ADDGA1011+999999019GF108991081061002501999999MD1310041+9999MW1581
0084037660999991930021318004+51283-000750FM-12+006999999V0200701N002619999999N0005001N9+00281+00061102371ADDGA1011+999999019GF107991061051017501001011MD1810051+9999MW1441EQDQ01+000452PRSWM1
0121033010999991930022707004+53217-003000FM-12+005299999V0203001N001019999999N0000501N9+00391+00331101511ADDAA199001091GA1011+999999019GF108991081051004501999999KA1999M+00441KA2999N+00061MD1310251+9999MW1441EQDQ01+000452PRSWM1
0065037750999991930072618004+51467-000317FM-12+000599999V0202001N006719999999N0200001N9+01831+01561101221ADDGA1011+999999019GF107991071051008001999999IA1089MD1810141+9999
0024990061999991930020803004+62000-033000SAO  +00004YA  V02099999999999999999N0000001N1+01071+00801999999ADDMA1999999101491MW1001
0054060810999991930100918004+55550+008083FM-12+001599999V0202901N01901007801CN0200001N9+00891+99999099641ADDAA199001091GF106991061061008001999999MD1310261+9999
0056330190999991930110418004+52117+026100FM-12+013799999V0200901N00261012301CN0020001N9+01111+99999099931ADDGF108991081041012501999999KA1999M+01501MD1310061+9999
0059038280999991930040313004+50483-004100FM-12+019899999V0201601N009319999999N0200001N9+01221+00781098991ADDGA1011+999999019GF108991071061008001021091MD1810161+9999
0024990061999991930013011004+62000-033000SAO  +00004YA  V02099999999999999999N0000001N1+01071+00461999999ADDMA1999999101861MW1001
0086037950999991930120213004+51083+001017FM-12+010499999V0200501N004619999999N0040001N9+00891+00441102041ADDGA1011+999999019GF101991001001999999031001MW1051EQDQ01+000032APCTENQ02+000002APC3  
0071037750999991930110618004+51467-000317FM-12+000599999V0200201N004619999999N0010001N9+00611+00001100981ADDGA1011+999999019GF101991001001999999041001IA1089MD1310241+9999MW1101
0102033790999991930081807004+53033-000500FM-12+006299999V0201401N004619999999N0040001N9+01331+01281100851ADDAA199000391GA1011+999999019GF101991001001999999031001IA1009KA1999M+02171KA2999N+01111MD1810221+9999
0071037660999991930112518004+51283-000750FM-12+006999999V0202001N004619999999N0200001N9+01001+00941099191ADDGA1011+999999019GF106991061061002501001001IA1109MD1810121+9999MW1211
0123036010999991930061607004+51683-005167FM-12+004399999V0200501N002619999999N0200001N9+01391+01171102441ADDAA199001091GA1011+999999019GF104991001001999999041021IA1009KA1999M+02111KA2999N+01221EQDQ01+000032APCTENQ02+000002APC3  
0065039800999991930081013004+55367-007333FM-12+002699999V0202301N004619999999N0100001N9+01721+01671100691ADDGA1011+999999019GF107991061091002501031999MD1810041+9999MW1161
0059033230999991930062913004+53350-002883FM-12+002499999V0202301N001019999999N0500001N9+01831+00891101091ADDGA1011+999999019GF104991041071012501061001MD1810101+9999
0065031000999991930093018004+56483-006867FM-12+000999999V0200501N004619999999N0500001N9+01221+00781102741ADDGA1011+999999019GF107991071051008001041001IA1009MD1310081+9999
0059030750999991930032713004+58450-003083FM-12+003699999V0202701N004619999999N0200001N9+01001+00561101501ADDGA1011+999999019GF104991041031008001041001MD1810041+9999
0059038110999991930051813004+50133-005033FM-12+006199999V0202801N012319999999N0200001N9+01221+00611102111ADDGA1011+999999019GF104991041011012501041001MD1310301+9999
0065036970999991930111807004+51950+001333FM-12+000399999V0209991C000019999999N0020001N9+00061-00671102711ADDGA1011+999999019GF107991071999999999999071IA1109MD1810101+9999
0102036970999991930100507004+51950+001333FM-12+000399999V0202701N006719999999N0200001N9+01391+00941100091ADDAA124999999GA1011+999999019GF106991021051017501001061IA1089KA1999M+01721KA2999N+01331MD1310241+9999
0024990061999991930102702004+62000-033000SAO  +00004YA  V02099999999999999999N0000001N1+02461+02131999999ADDMA1999999101151MW1001
0102030910999991930030107004+57167-002200FM-12+007199999V0203201N002619999999N0040001N9+00111+00061103641ADDAA199000091GA1011+999999019GF104991001001999999001021IA1139KA1999M+01111KA2999N+00061MD1310061+9999
0065033010999991930021013004+53217-003000FM-12+005299999V0200801N002619999999N0020001N9+00281-00281104081ADDGA1011+999999019GF104991041051012501001001IA1139MD1810051+9999
0073108660999991930103106004+48183+011550FM-12+052099999V0202501N01231007801CN0500001N9+01221+99999101861ADDAA199000391AY181061GF108991061061008001071999IA1089KA1999N+01111MW1801
0024990061999991930110106004+62000-033000SAO  +00004YA  V02099999999999999999N0000001N1+02521+02301999999ADDMA1999999100751MW1001
0070038110999991930060201004+50133-005033FM-12+006199999V0201701N002619999999N0000001N9+01221+01171101111ADDGA1011+999999019GF108991081051000251999999MW1461EQDQ01+000472PRSWM1
0059038040999991930012901004+49933-006300FM-12+005099999V0203201N006719999999N0200001N9+00781+00561100801ADDGA1011+999999019GF102991021011012501001001MD1310051+9999
0065038280999991930072013004+50483-004100FM-12+019899999V0202001N009319999999N0020001N9+01501+01441100291ADDGA1011+999999019GF108991081061000251999999MD1810181+9999MW1511
0081101270999991930111606004+53533+008150FM-12+000499999V0202501N00461004501CN0040001N9+00391+99999101151ADDAA199002091AY161999GF107991071051004501001001IA1089KA1999N+00281MD1310061+9999
0102035310999991930032207004+52483-001933FM-12+016399999V0202701N004619999999N0100001N9+00171-00221101291ADDAA199003091GA1011+999999019GF101991001001999999001011IA1089KA1999M+00781KA2999N-00061MD1310261+9999
0065039170999991930040918004+54650-006217FM-12+006799999V0209991C000019999999N0040001N9+01001+00561101131ADDGA1011+999999019GF107991061051008001001081IA1089MD1310021+9999
0059037950999991930051013004+51083+001017FM-12+010499999V0201601N006719999999N0100001N9+00941+00501100871ADDGA1011+999999019GF108991041041012501021999MD1310101+9999
0064071100999991930061706004+48283-004433FM-12+009799999V0200201N00261001501CN0020001N9+01391+99999101771ADDGF108991081021001501999999EQDQ01+000032APCTENQ02+000002APC3  
0056106350999991930061806004+50217+008450FM-12+024499999V0201401N00461220001CN0100001N9+01611+00721100371ADDAY101061GF101991001001999999001999IA1009KA1999N+01221
0123038110999991930031807004+50133-005033FM-12+006199999V0202701N004619999999N0200001N9+00391+00001099681ADDAA199000591GA1011+999999019GF104991041031012501001001IA1089KA1999M+00561KA2999N+00221EQDQ01+000032APCTENQ02+000002APC3  
0054061800999991930020318004+55617+012650FM-12+000199999V0200901N00461004501CN0040001N9+00221+99999100481ADDAA199000691GF108991081061004501999999MD1310041+9999
0074032620999991930081006004+55017-001417FM-12+003399999V0202501N00101004501CN0010001N9+01391+99999101391ADDAA199003091AY161999GF108991081061004501001001IA1089MD1810101+9999MW1631
0043076020999991930012606004+43483-001567FM-12+002999999V0200901N00261220001CN0100001N9+01221+99999098571ADDGF104991021011017501999999MD1810161+9999
0043071500999991930121818004+48950+002433FM-12+004699999V0202301N001019999999N0005001N9-00111+99999104021ADDGF108991011999000751999999MD1310061+9999
0051105010999991930020612004+50783+006100FM-12+006399999V0200201N00101004501CN0020001N9-00111-00171100871ADDAY171061GF108991081061004501999999MD1310141+9999
0059038110999991930012713004+50133-005033FM-12+006199999V0203001N015419999999N0200001N9+00721+00331100451ADDGA1011+999999019GF106991041011012501031001MD1310151+9999
0024990061999991930091218004+62000-033000SAO  +00004YA  V02099999999999999999N0000001N1+02801+02241999999ADDMA1999999101021MW1001
0080038040999991930072401004+49933-006300FM-12+005099999V0203601N009319999999N0200001N9+01391+01171101511ADDGA1011+999999019GF107991071081012501999999EQDQ01+000032APCTENQ02+000002APC3  
0024990061999991930042508004+62000-033000SAO  +00004YA  V02099999999999999999N0000001N1+02241+02021999999ADDMA1999999100371MW1001
0059038640999991930092601004+50817-001300FM-12+000299999V0203201N006719999999N0200001N9+01111+00671101501ADDGA1011+999999019GF101991011011008001001001MD1310021+9999
0089033020999991930081106004+53317-004617FM-12+000899999V0202701N00931220001CN0100001N9+01391+99999100901ADDAA199010091AY161999GF104991021051004501041021IA1089EQDQ01+000042APCTENQ02+000042APC3  
0065036270999991930070318004+51917-002583FM-12+006899999V0202001N004619999999N0200001N9+01721+01441101221ADDGA1011+999999019GF106991061081012501001001IA1089MD1310061+9999
0078038940999991930081801004+49450-002550FM-12+010499999V0201601N002619999999N0200001N9+01561+01281101041ADDGA1011+999999019GF199999001001999999001001MD1810181+9999EQDQ01+000002SCOTCV
0086038940999991930062118004+49450-002550FM-12+010499999V0209991C000019999999N0100001N9+02061+01611101901ADDGA1011+999999019GF104991041051012501001001IA1109EQDQ01+000032APCTENQ02+000002APC3  
0081101270999991930031806004+53533+008150FM-12+000499999V0200901N00671012301CN0040001N9+00281+99999098511ADDAA199000691AY121999GF108991061061012501999999KA1999N+00221MD1810261+9999MW1601
0070033020999991930020606004+53317-004617FM-12+000899999V0203601N01231220001CN0200001N9+00391+99999101571ADDAY101999GF102991999091008001001001MD1310141+9999EQDQ01+000012SCOTLC
0102038560999991930102007004+50533-002450FM-12+001099999V0202601N012319999999N0200001N9+01111+01061100441ADDAA124999999GA1011+999999019GF104991021041008001081001IA1089KA1999M+01561KA2999N+01061MD1310261+9999
0019039730999991930031801004+54100-010067FM-12+000599999V0202701N002619999999N0100001N9+00331+00111099641ADDGA1011+999999019
0096103380999991930030418004+52417+009750FM-12+005199999V0202501N00261220001CN0020001N9+01001+99999102841ADDAA199000691AY111999GF108991001001999999031081KA1999M+01391EQDQ01+000042APCTENQ02+000042APC3  
0065037770999991930020618004+51350-000117FM-12+006699999V0200501N006719999999N0010001N9+00281+00061101591ADDGA1011+999999019GF106991061051004501001001MD1310251+9999MW1101
0059031710999991930072413004+56383-002883FM-12+001199999V0201101N002619999999N0200001N9+01281+01061101431ADDGA1011+999999019GF108991071061004501021999MD1310021+9999
0043023610999991930120118004+62617+017950FM-12+000999999V0209991C00001004501CN0500001N9-00391+99999102611ADDGF106991061041004501999999MD1310021+9999
0080036010999991930092401004+51683-005167FM-12+004399999V0202301N006719999999N0100001N9+01391+01331101041ADDGA1011+999999019GF107991071081004501999999EQDQ01+000032APCTENQ02+000002APC3  
0076103380999991930101218004+52417+009750FM-12+005199999V0202301N00101220001CN0020001N9+00891+99999101231ADDAY121999GF102991001001999999001081IA1089KA1999M+01221MD1310141+9999MW1051
0019039730999991930041613004+54100-010067FM-12+000599999V0203201N006719999999N0040001N9+01001+00941102621ADDGA1011+999999019
0108033230999991930042407004+53350-002883FM-12+002499999V0201401N004619999999N0020001N9+01111+01061099741ADDAA199002091GA1011+999999019GF106991041051004501031001IA1089KA1999M+01331KA2999N+01001MD1310101+9999MW1201
0024990061999991930120403004+62000-033000SAO  +00004YA  V02099999999999999999N0000001N1+01801+01461999999ADDMA1999999101831MW1001
0051108650999991930021912004+48183+011550FM-12+015599999V0200901N00671220001CN0100001N9+00221-00331102111ADDAY111061GF100991001001999999001001MD1810061+9999
0065033790999991930112618004+53033-000500FM-12+006299999V0202001N004619999999N0100001N9+00391+00331099071ADDGA1011+999999019GF104991041051012501001001IA1089MD1310141+9999
0065035590999991930091818004+52117-000417FM-12+003099999V0202401N004619999999N0200001N9+01501+01061100711ADDGA1011+999999019GF106991041081004501041011IA1009MD1310101+9999
0091037750999991930111107004+51467-000317FM-12+000599999V0202601N002619999999N0040001N9+00391+00171103341ADDGA1011+999999019GF102991011071012501001061IA1089KA1999M+01221KA2999N+00391MD1310121+9999
0065035310999991930021518004+52483-001933FM-12+016399999V0202901N004619999999N0010001N9+00281-00111101761ADDGA1011+999999019GF108991041061004501011999MD1310251+9999MW1101
0091037660999991930050107004+51283-000750FM-12+006999999V0200201N004619999999N0200001N9+00611+00221101911ADDGA1011+999999019GF101991001001999999001011IA1009KA1999M+01501KA2999N+00331MD1310181+9999
0065037480999991930092613004+51067-001317FM-12+008399999V0203301N006719999999N0200001N9+01061+00611101391ADDGA1011+999999019GF106991061051012501001001MD1810081+9999MW1211
0054070090999991930121306004+50967+001833FM-12+002799999V0201801N01231002401CN0020001N9+00721+99999099351ADDAA199003091GF108991071061002501999999MD1810401+9999
0100038560999991930010418004+50533-002450FM-12+001099999V0201801N019019999999N0100001N9+01001+00891099272ADDGA1011+999999019GF108991081051004501999999MD1810502+9999MW1251EQDQ01+099273APOSLPQ02+000502APC3  
0108035220999991930052007004+51850-001550FM-12+018799999V0202801N004619999999N0200001N9+01061+01001101991ADDAA199000091GA1011+999999019GF107991071061008001999999IA1009KA1999M+01391KA2999N+00941MD1310061+9999MW1161
0073071500999991930093006004+48950+002433FM-12+004699999V0209991C00001002401CN0005001N9+01001+99999101901ADDAA199000691GF108991081051002501999999KA1999N+00891MD1310101+9999MW1121
0043060810999991930022618004+55550+008083FM-12+001599999V0201401N00461007801CN0100001N9+00111+99999101911ADDGF107991071051008001999999MD1810101+9999
0065038040999991930111918004+49933-006300FM-12+005099999V0202301N002619999999N0040001N9+01111+01061101191ADDGA1011+999999019GF106991021051012501031001IA1009MD1810021+9999
0024990061999991930060921004+62000-033000SAO  +00004YA  V02099999999999999999N0000001N1+02461+02351999999ADDMA1999999100851MW1001
0102031710999991930081107004+56383-002883FM-12+001199999V0202501N004619999999N0200001N9+01391+01171100451ADDAA199006091GA1011+999999019GF101991011071012501999999IA1089KA1999M+01891KA2999N+01001MD1810021+9999
0024990061999991930122703004+62000-033000SAO  +00004YA  V02099999999999999999N0000001N1+01691+01301999999ADDMA1999999101961MW1001
0108036010999991930120907004+51683-005167FM-12+004399999V0202901N006719999999N0200001N9+00501+00281100121ADDAA199003091GA1011+999999019GF104991041021008001041001IA1089KA1999M+00781KA2999N+00441MD1310061+9999MW1271
0061105010999991930021806004+50783+006100FM-12+006399999V0209999901231007801CN0040001N9-00111-00281102741ADDAA199000691AY171061GF107991071051008001001001KA1999N-00221
0057108660999991930070712004+48183+011550FM-12+052099999V0202701N00261004501CN0100001N9+01781+99999101811ADDAY161061GF108991061061004501021999MD1610021+9999MW1621
0048038040999991930011506004+49933-006300FM-12+005099999V0200701N002619999999N0200001N9+00611+99999100661ADDAA199002091AY111999GF106991999999012501999999
0091033960999991930101007004+53583-000117FM-12+000999999V0202701N006719999999N0100001N9+00721+00501101431ADDGA1011+999999019GF104991001001999999011081IA1009KA1999M+01171KA2999N+00611MD1310081+9999
0059031710999991930011418004+56383-002883FM-12+001199999V0202701N001019999999N0040001N9+00111+00001100091ADDGA1011+999999019GF108991021051017501011999MD1310051+9999
0054014030999991930092318004+59300+004883FM-12+005699999V0201401N01541007801CN0040001N9+01281+99999100771ADDAA199002091GF108991081061008001999999MD1810161+9999
0065037480999991930111918004+51067-001317FM-12+008399999V0202701N006719999999N0100001N9+00941+00721101001ADDGA1011+999999019GF108991081051008001999999IA1089MD1310301+9999
0043023610999991930041018004+62617+017950FM-12+000999999V0201801N00261220001CN0500001N9+00611+99999101201ADDGF104991041011004501999999MD1810081+9999
0091037970350471930033107004+51350+001367FM-12+004799999V0201401N006719999999N0200001N9+00721+00501101251ADDGA1011+999999019GF108991001001999999041071IA1089KA1999M+01331KA2999N+00501MD1810201+9999
0059036970999991930111513004+51950+001333FM-12+000399999V0202501N009319999999N0100001N9+01281+01061101111ADDGA1011+999999019GF108991081051002501999999MD1810221+9999
0059030750999991930072501004+58450-003083FM-12+003699999V0202701N002619999999N0200001N9+00721+00671101521ADDGA1011+999999019GF104991021051012501001081MD1810041+9999
0059038110999991930091213004+50133-005033FM-12+006199999V0201801N002619999999N0040001N9+01781+01501101391ADDGA1011+999999019GF104991041041008001001001MD1310081+9999
0071037750999991930052418004+51467-000317FM-12+000599999V0203501N004619999999N0040001N9+01561+01111101561ADDGA1011+999999019GF107991061061004501021999IA1089MD1810041+9999MW1251
0043076020999991930030206004+43483-001567FM-12+002999999V0203601N002619999999N0100001N9+00721+99999101191ADDGF106991021021012501999999MD1310021+9999
0059039730999991930072201004+54100-010067FM-12+000599999V0202701N006719999999N0040001N9+01171+00941101931ADDGA1011+999999019GF106991061031008001001001MD1310061+9999
0037104270999991930071406004+51183+008483FM-12+025799999V0202301N006719999999N0200001N9+01891+01831099711ADDAY121061GF108991999041999999999999
0059039660999991930070613004+53100-007900FM-12+005799999V0203201N004619999999N0200001N9+01781+01111101721ADDGA1011+999999019GF106991061011008001001001MD1310061+9999
0091036980999991930062607004+51783+001167FM-12+005299999V0203401N001019999999N0040001N9+01441+01221100881ADDGA1011+999999019GF104991021031004501001021IA1009KA1999M+01941KA2999N+01111MD1810101+9999
0080039170999991930072213004+54650-006217FM-12+006799999V0203401N006719999999N0500001N9+01391+00721101551ADDGA1011+999999019GF107991041081008001001081EQDQ01+000032APCTENQ02+000002APC3  
0059039800999991930071113004+55367-007333FM-12+002699999V0203601N004619999999N0200001N9+01391+00941102111ADDGA1011+999999019GF102991021021004501041011MD1310061+9999
0059034970999991930101813004+52583+001733FM-12+000299999V0202301N006719999999N0040001N9+01501+01061101371ADDGA1011+999999019GF102991021011017501001011MD1310181+9999
0059035590999991930062713004+52117-000417FM-12+003099999V0202801N004619999999N0200001N9+02221+01001100431ADDGA1011+999999019GF107991021011012501041081MD1310041+9999
0102031590999991930071807004+56033-003133FM-12+005899999V0200201N001019999999N0020001N9+01281+01221098871ADDAA199016091GA1011+999999019GF108991041051002501011001IA1089KA1999M+01391KA2999N+01221MD1810021+9999
0065038880999991930021518004+50917+000967FM-12+000699999V0203201N002619999999N0100001N9+00281+00061101541ADDGA1011+999999019GF104991041061008001001001MD1310101+9999MW1611
0051039280999991930031818004+54650-005533FM-12+001299999V0200701N004619999999N0200001N9+00441-00111099511ADDGA1011+999999019GF104991041081012501031001IA1139
0059037750999991930083013004+51467-000317FM-12+000599999V0203401N002619999999N0040001N9+02441+02001102121ADDGA1011+999999019GF101991001001999999001011MD1810021+9999
0097103380999991930061906004+52417+009750FM-12+005199999V0200701N00261220001CN0040001N9+01781+99999101731ADDAY101999GF101991001001999999001081IA1009KA1999N+01001MW1051EQDQ01+000032APCTENQ02+000002APC3  
0017333930999991930050118004+49817+023950FM-12+033999999V0203401N002619999999N9999999N9+00721+99999101501ADDMD1310121+9999
0080039800999991930050701004+55367-007333FM-12+002699999V0203601N006719999999N0200001N9+00831+00781101921ADDGA1011+999999019GF107991021051012501031999EQDQ01+000032APCTENQ02+000002APC3  
0065039660999991930041518004+53100-007900FM-12+005799999V0203601N002619999999N0200001N9+01001+00391102311ADDGA1011+999999019GF106991061051008001001001IA1009MD1310021+9999
0086037750999991930120213004+51467-000317FM-12+000599999V0200701N002619999999N0010001N9+00891+00671102101ADDGA1011+999999019GF104991001001999999001091MW1101EQDQ01+000032APCTENQ02+000002APC3  
0059033010999991930050313004+53217-003000FM-12+005299999V0203301N001019999999N0040001N9+01501+00331102071ADDGA1011+999999019GF104991001001999999031001MD1810021+9999
0024990061999991930111312004+62000-033000SAO  +00004YA  V02099999999999999999N0000001N1+02301+00961999999ADDMA1999999102201MW1001
0051103380999991930101912004+52417+009750FM-12+005199999V0201601N00461007801CN0040001N9+01721+99999101831ADDAY121999GF107991071051008001999999MD1810201+9999
0091034970999991930040907004+52583+001733FM-12+000299999V0202001N002619999999N0040001N9+00671+00441101801ADDGA1011+999999019GF108991041061008001021999IA1009KA1999M+00721KA2999N+00501MD1810101+9999
0059039520999991930070613004+51800-008250FM-12+000799999V0203601N004619999999N0500001N9+01781+01331101801ADDGA1011+999999019GF102991021081008001001001MD1310141+9999
0102030750999991930032507004+58450-003083FM-12+003699999V0202301N009319999999N0200001N9+00501+00441100521ADDAA199002091GA1011+999999019GF108991041051008001031011IA1199KA1999M+00501KA2999N+00391MD1810341+9999
0059030050999991930101201004+60133-001183FM-12+008399999V0201801N006719999999N0200001N9+01061+00831098821ADDGA1011+999999019GF106991041081004501071001MD1810241+9999
0102031400999991930040307004+55867-004433FM-12+000699999V0201401N004619999999N0100001N9+00831+00611100521ADDAA199000591GA1011+999999019GF107991041051012501031999IA1089KA1999M+01501KA2999N+00721MD1310161+9999
0127033480999991930091907004+53983-001550FM-12+014699999V0201801N001019999999N0000501N9+00611+00561100061ADDAA199002091GA1011+999999019GF104991041051000251001001IA1089KA1999M+01331KA2999N+00611MD1810141+9999MW1441EQDQ01+000452PRSWM1
0089038880999991930020307004+50917+000967FM-12+000699999V0203201N001019999999N0040001N9+00501+00441099411ADDAA124999999GA1011+999999019GF107991071061008001001001KA1999M+00721MD1310051+9999MW1511
0024990061999991930100506004+62000-033000SAO  +00004YA  V02099999999999999999N0000001N1+02181+01801999999ADDMA1999999101391MW1001
0065039280999991930032518004+54650-005533FM-12+001299999V0203201N009319999999N0100001N9+00941+00501102041ADDGA1011+999999019GF106991041041012501021001IA1009MD1310041+9999
0085038560999991930012107004+50533-002450FM-12+001099999V0201001N002619999999N0200001N9+00831+00611101971ADDGA1011+999999019GF104991041051008001001001KA1999M+01001KA2999N+00611MD1810051+9999
0024990061999991930012905004+62000-033000SAO  +00004YA  V02099999999999999999N0000001N1+00851+00301999999ADDMA1999999101631MW1001
0065034970999991930010118004+52583+001733FM-12+000299999V0202301N009319999999N0040001N9+00721+00671100741ADDGA1011+999999019GF108991081061004501999999MD1810251+9999MW1611
0059033790999991930022618004+53033-000500FM-12+006299999V0201201N002619999999N0020001N9+00671+00441101091ADDGA1011+999999019GF108991081051002501999999MD1310101+9999
0000076020999991930112906004+43483-001567FM-12+002999999V02099999999999999999N9999999N9+99999+99999999999
0024990061999991930091719004+62000-033000SAO  +00004YA  V02099999999999999999N0000001N1+02521+02351999999ADDMA1999999100611MW1001
0091033230999991930090407004+53350-002883FM-12+002499999V0200901N006719999999N0040001N9+01171+00941102281ADDGA1011+999999019GF104991041051004501001091IA1009KA1999M+02061KA2999N+01111MD1810141+9999
0057030530999991930100618004+57600-003867FM-12+005299999V0202901N002619999999N0200001N9+00891+00671098971ADDGA1011+999999019GF106991061031008001001001IA1089MW1251
0059033960999991930041001004+53583-000117FM-12+000999999V0201501N002619999999N0040001N9+00671+00611101101ADDGA1011+999999019GF107991041051004501031999MD1810041+9999
0091036930999991930032307004+51533+000817FM-12+000399999V0201101N006719999999N0200001N9+00441+00221101591ADDGA1011+999999019GF108991001001999999061091IA1009KA1999M+01061KA2999N-00061MD1810201+9999
0059030750999991930022518004+58450-003083FM-12+003699999V0201601N009319999999N0200001N9+00331+00281101611ADDGA1011+999999019GF108991041031004501011999MD1810151+9999
0102038560999991930121307004+50533-002450FM-12+001099999V0202701N012319999999N0200001N9+00941+00501099451ADDAA124999999GA1011+999999019GF102991021041008001001001IA1109KA1999M+01111KA2999N+00891MD1310121+9999
0065030050999991930120418004+60133-001183FM-12+008399999V0202301N002619999999N0100001N9+00941+00721101891ADDGA1011+999999019GF107991041051004501011001IA1009MD1810101+9999
0108037770999991930041307004+51350-000117FM-12+006699999V0202401N004619999999N0040001N9+00561+00331100411ADDAA124999999GA1011+999999019GF107991041051012501021001IA1089KA1999M+01061KA2999N+00391MD1810041+9999MW1051
0059038040999991930072801004+49933-006300FM-12+005099999V0202101N006719999999N0200001N9+01391+01331100891ADDGA1011+999999019GF102991021051012501001001MD1810101+9999
0059031620999991930070813004+55317-003200FM-12+024299999V0202501N006719999999N0200001N9+01501+01061101921ADDGA1011+999999019GF108991081051004501999999MD1810101+9999
0065033790999991930051518004+53033-000500FM-12+006299999V0202401N002619999999N0100001N9+01561+01281101481ADDGA1011+999999019GF107991061051004501011999IA1009MD1810021+9999
0143033960999991930121007004+53583-000117FM-12+000999999V0202901N002619999999N0000501N9-00111-00171101221ADDAA199000091GA1011+999999019GF199999001001999999001001IA1189KA1999M+00441KA2999N-00111MD1310081+9999MW1441EQDQ01+000002SCOTCVQ02+000452PRSWM1
0024990061999991930123111004+62000-033000SAO  +00004YA  V02099999999999999999N0000001N1+01801+01351999999ADDMA1999999102031MW1001
0024990061999991930081707004+62000-033000SAO  +00004YA  V02099999999999999999N0000001N1+02631+02461999999ADDMA1999999100031MW1001
0065031590999991930110201004+56033-003133FM-12+005899999V0201401N001019999999N0200001N9+00561+00331099411ADDGA1011+999999019GF108991081051002501999999MD1810341+9999MW1601
0121039730999991930070307004+54100-010067FM-12+000599999V0203601N004619999999N0200001N9+01501+01441100341ADDAA124999999GA1011+999999019GF106991061091008001001001IA1089KA1999M+01781KA2999N+01391MD1310101+9999EQDQ01+000852PRSWM1
0108039800999991930080307004+55367-007333FM-12+002699999V0201801N004619999999N0100001N9+01331+01281099031ADDAA124999999GA1011+999999019GF107991061061002501021999IA1089KA1999M+01441KA2999N+01281MD1310101+9999MW1211
0037104330999991930091312004+51400+008567FM-12+013799999V0202301N00461004501CN0040001N9+99999+99999999999ADDAY121061GF108991999041004501031999
0102030050999991930083107004+60133-001183FM-12+008399999V0203201N001019999999N0200001N9+01001+00781102221ADDAA199000591GA1011+999999019GF106991041051004501021001IA1089KA1999M+01441KA2999N+01001MD1310041+9999
0024990061999991930122601004+62000-033000SAO  +00004YA  V02099999999999999999N0000001N1+01521+00631999999ADDMA1999999102201MW1001
0064100460999991930021106004+54383+010150FM-12+002899999V0202701N00101004501CN0040001N9+00221+99999102801ADDAY121999GF108991081051004501999999KA1999N+00001MD1810141+9999
0081267020999991930102818004+54733+020567FM-12+002099999V0202301N00261001501CN0040001N9+00721+99999099731ADDAA199007091AY151999GF108991081051001501999999IA1089KA1999M+01221MD1110041+9999
0086037660999991930041218004+51283-000750FM-12+006999999V0202901N004619999999N0200001N9+01111-00061100441ADDGA1011+999999019GF104991041051008001011001IA1009EQDQ01+000032APCTENQ02+000002APC3  
0076101470999991930013012004+53633+010000FM-12+000599999V0201401N004619999999N0010001N9+00001-00221100591ADDAY171999GF108991999051002501001001MD1810061+9999MW1711EQDQ01+000042SCOTLC
0070267020999991930121112004+54733+020567FM-12+002099999V0200901N00671001501CN0040001N9+00391+99999101111ADDAY151999GF108991999061001501021999MD1810101+9999EQDQ01+000082SCOTLC
0102037770999991930081907004+51350-000117FM-12+006699999V0202501N006719999999N0200001N9+01281+00831101401ADDAA124999999GA1011+999999019GF101991011011004501001011IA1009KA1999M+02171KA2999N+01111MD1310161+9999
0102037660999991930032207004+51283-000750FM-12+006999999V0203301N002619999999N0500001N9+00281-00111101311ADDAA124999999GA1011+999999019GF106991001001999999001081IA1089KA1999M+01061KA2999N+00171MD1310361+9999
0061108650999991930020506004+48183+011550FM-12+015599999V0209999900101220001CN0020001N9-00111-00171100661ADDAA199000691AY141061GF104991999001999999021001KA1999N-00111
0127031590999991930042707004+56033-003133FM-12+005899999V0200701N001019999999N0000501N9+00611+00561102431ADDAA199000391GA1011+999999019GF108991081051000251999999IA1089KA1999M+00781KA2999N+00611MD1310081+9999MW1441EQDQ01+000452PRSWM1
0108031400999991930040707004+55867-004433FM-12+000699999V0202901N002619999999N0040001N9+00171+00111102291ADDAA199000091GA1011+999999019GF107991071051012501001001IA1089KA1999M+01061KA2999N-00111MD1310141+9999MW1051
0054014030999991930091406004+59300+004883FM-12+005699999V0200701N00671015001CN0500001N9+01391+99999100991ADDAA199001091GF107991071071017501999999MD1810041+9999
0059037750999991930030713004+51467-000317FM-12+000599999V0203401N002619999999N0020001N9+00891+00671101631ADDGA1011+999999019GF108991071051008001011999MD1310061+9999
0065039660999991930040518004+53100-007900FM-12+005799999V0200501N001019999999N0100001N9+00671+00061101151ADDGA1011+999999019GF107991071051008001999999IA1089MD1310041+9999
0059038560999991930103101004+50533-002450FM-12+001099999V0202601N006719999999N0200001N9+01331+01111101591ADDGA1011+999999019GF104991041041008001041001MD1310041+9999
0024990061999991930051213004+62000-033000SAO  +00004YA  V02099999999999999999N0000001N1+02631+02181999999ADDMA1999999100371MW1001
0065038640999991930071218004+50817-001300FM-12+000299999V0203201N006719999999N0200001N9+02001+01061101171ADDGA1011+999999019GF104991041071012501001061IA1009MD1810101+9999
0065035220999991930100613004+51850-001550FM-12+018799999V0202801N015419999999N0200001N9+01111+00671100051ADDGA1011+999999019GF104991041081008001001001MD1810081+9999MW1801
0065033110999991930120118004+53317-004617FM-12+000899999V0201101N004619999999N0020001N9+00831+00781102191ADDGA1011+999999019GF108991081051012501999999IA1089MD1810021+9999
0059033790999991930021818004+53033-000500FM-12+006299999V0200701N006719999999N0200001N9+00111-00441103451ADDGA1011+999999019GF108991081051012501999999MD1810051+9999
0102030050999991930080107004+60133-001183FM-12+008399999V0203401N001019999999N0200001N9+01061+01001101231ADDAA199000091GA1011+999999019GF106991041081004501061001IA1009KA1999M+01501KA2999N+00891MD1310101+9999
0043104330999991930102406004+51400+008567FM-12+013799999V0202701N00261002401CN0010001N9+99999+99999999999ADDAY121061GF108991999041002501021999MW1101
0024990061999991930113010004+62000-033000SAO  +00004YA  V02099999999999999999N0000001N1+02351+01911999999ADDMA1999999101021MW1001
0071037770999991930091818004+51350-000117FM-12+006699999V0202001N006719999999N0100001N9+01561+01111100881ADDGA1011+999999019GF106991061081004501001001IA1089MD1310041+9999MW1161
0064103840999991930032106004+52483+013433FM-12+004899999V0202301N00261220001CN0500001N9+00111+99999101571ADDAY101999GF100991001001999999001001KA1999N+00001MD1310181+9999
0037104330999991930052612004+51400+008567FM-12+013799999V0202301N00461030001CN0040001N9+99999+99999999999ADDAY121061GF107991041081004501021999
0086039530999991930021413004+51933-010250FM-12+000999999V0200801N002619999999N0100001N9+00781+00391101971ADDGA1011+999999019GF106991011011012501001091IA1089EQDQ01+000032APCTENQ02+000002APC3  
0024990061999991930081704004+62000-033000SAO  +00004YA  V02099999999999999999N0000001N1+02681+02461999999ADDMA1999999099971MW1001
0108033230999991930061307004+53350-002883FM-12+002499999V0202701N002619999999N0020001N9+01281+01221102051ADDAA199000091GA1011+999999019GF108991081051004501999999IA1009KA1999M+01611KA2999N+01281MD1310021+9999MW1101
0108031000999991930111507004+56483-006867FM-12+000999999V0203001N004619999999N0500001N9+00501+00281100841ADDAA199005091GA1011+999999019GF107991061081004501071999IA1089KA1999M+01111KA2999N+00501MD1310121+9999MW1801
0054071100999991930080318004+48283-004433FM-12+009799999V0201801N01231007801CN0010001N9+01391+99999100211ADDAA199001091GF108991061061008001999999MD1810201+9999
0065036980999991930122018004+51783+001167FM-12+005299999V0202701N001019999999N0040001N9+00671+00611103211ADDGA1011+999999019GF108991081051002501999999IA1009MD1810061+9999
0071039170999991930072118004+54650-006217FM-12+006799999V0203301N009319999999N0500001N9+01221+00781101201ADDGA1011+999999019GF107991061051004501091001IA1089MD1310141+9999MW1161
0065031400999991930091313004+55867-004433FM-12+000699999V0200501N004619999999N0040001N9+01281+01221100831ADDGA1011+999999019GF108991081061002501999999MD1810101+9999MW1501
0071030750999991930101318004+58450-003083FM-12+003699999V0201801N004619999999N0200001N9+01111+01061100091ADDGA1011+999999019GF108991061061004501021999IA1089MD1810061+9999MW1611
0024990061999991930090120004+62000-033000SAO  +00004YA  V02099999999999999999N0000001N1+02851+02411999999ADDMA1999999100711MW1001
0081106350999991930100806004+50217+008450FM-12+024499999V0202001N01231000151CN0000001N9+00501+00441099101ADDAA199002091AY141061GF109991091999000251999999IA1089KA1999N+00391MD1810101+9999
0084038640999991930030118004+50817-001300FM-12+000299999V0200501N006719999999N0040001N9+00611+00001102681ADDGA1011+999999019GF199999001001999999001001IA1009MD1810121+9999EQDQ01+000002SCOTCV
0065037770999991930062618004+51350-000117FM-12+006699999V0201001N004619999999N0100001N9+01781+00891100611ADDGA1011+999999019GF108991061041017501021999IA1009MD1810061+9999
0091038560999991930081707004+50533-002450FM-12+001099999V0202601N002619999999N0200001N9+01441+01001102071ADDGA1011+999999019GF106991041041004501061001IA1009KA1999M+01721KA2999N+01391MD1310041+9999
0065037660999991930020713004+51283-000750FM-12+006999999V0200201N006719999999N0100001N9+00281-00111102391ADDGA1011+999999019GF107991071051004501001001IA1089MD1310101+9999
0059039280999991930111513004+54650-005533FM-12+001299999V0203401N004619999999N0200001N9+00781+00391101251ADDGA1011+999999019GF106991041051012501031001MD1310181+9999
0071036970999991930120618004+51950+001333FM-12+000399999V0202501N001019999999N0010001N9-00061-00111101551ADDGA1011+999999019GF108991081051001501999999IA1089MD1810061+9999MW1101
0059037750999991930080113004+51467-000317FM-12+000599999V0201701N004619999999N0200001N9+02171+01221101221ADDGA1011+999999019GF107991021021012501001091MD1810201+9999
0080030050999991930072301004+60133-001183FM-12+008399999V0203501N004619999999N0100001N9+01061+01001101221ADDGA1011+999999019GF108991041051004501021999EQDQ01+000032APCTENQ02+000002APC3  
0024990061999991930110316004+62000-033000SAO  +00004YA  V02099999999999999999N0000001N1+01961+01351999999ADDMA1999999102101MW1001
0050108660999991930020206004+48183+011550FM-12+052099999V0209991C000010360019N0040001N9+00111+99999099191ADDAY111061GF107991041051008001011999KA1999N-00111
0123031400999991930062307004+55867-004433FM-12+000699999V0202301N004619999999N0200001N9+01171+00721100461ADDAA199001091GA1011+999999019GF104991041031008001001031IA1089KA1999M+01781KA2999N+01001EQDQ01+000032APCTENQ02+000002APC3  
0059039530999991930062913004+51933-010250FM-12+000999999V0201701N012319999999N0200001N9+01721+01281100701ADDGA1011+999999019GF107991071051008001001001MD1810161+9999
0024990061999991930111320004+62000-033000SAO  +00004YA  V02099999999999999999N0000001N1+02021+01351999999ADDMA1999999102071MW1001
0065036010999991930070618004+51683-005167FM-12+004399999V0203201N002619999999N0200001N9+01671+01611101751ADDGA1011+999999019GF104991041071012501081011IA1009MD1310061+9999
0065035220999991930092013004+51850-001550FM-12+018799999V0202401N012319999999N0100001N9+01111+01061098841ADDGA1011+999999019GF108991081061002501999999MD1310401+9999MW1631
0091036270999991930033107004+51917-002583FM-12+006899999V0201801N006719999999N0100001N9+00941+00501100431ADDGA1011+999999019GF108991011051008001999999IA1089KA1999M+01221KA2999N+00781MD1810281+9999
0065032620999991930121918004+55017-001417FM-12+003399999V0202701N001019999999N0040001N9+00941+00721103111ADDGA1011+999999019GF104991041051004501001001IA1009MD1310041+9999
0102036930999991930111607004+51533+000817FM-12+000399999V0202901N001019999999N0100001N9+00171-00061102021ADDAA199002091GA1011+999999019GF106991001001999999071001IA1089KA1999M+01391KA2999N+00111MD1310061+9999
0043104400999991930091106004+51200+010033FM-12+004899999V0200901N00461000601CN0000001N9+99999+99999999999ADDAY141061GF109991091999000751999999MW1451
0059031590999991930012913004+56033-003133FM-12+005899999V0202501N002619999999N0040001N9+00391+00171100231ADDGA1011+999999019GF104991021051002501031001MD1810051+9999
0059037660999991930040113004+51283-000750FM-12+006999999V0201601N009319999999N0200001N9+01671+00781100641ADDGA1011+999999019GF107991021051017501091031MD1810201+9999
0043023610999991930022506004+62617+017950FM-12+000999999V0202701N00101220001CN0500001N9-00891+99999103661ADDGF102991021011004501999999MD1810041+9999
0085037770999991930011807004+51350-000117FM-12+006699999V0202001N004619999999N0020001N9+00781+00671102531ADDGA1011+999999019GF107991061051004501011999KA1999M+01001KA2999N+00671MD1810051+9999
0059030260999991930032801004+58217-006333FM-12+000399999V0202301N009319999999N0040001N9+99999+99999100431ADDGA1011+999999019GF108991999999999999999999MD1810401+9999
0087106350999991930102506004+50217+008450FM-12+024499999V0202001N00261000151CN0000501N9+00001-00061098211ADDAA199002091AY171061GF109991091999000251999999IA1199KA1999N+00001MD1610061+9999MW1711
0043060410999991930080706004+57733+010633FM-12+000399999V0203201N00101220001CN0100001N9+01721+99999100631ADDGF104991001001999999999999MD1310041+9999
0024990061999991930020107004+62000-033000SAO  +00004YA  V02099999999999999999N0000001N1+01071+00081999999ADDMA1999999101661MW1001
0065037660999991930022713004+51283-000750FM-12+006999999V0201001N004619999999N0040001N9+01061+00441101611ADDGA1011+999999019GF106991041011008001001011IA1089MD1310101+9999
0043076020999991930010618004+43483-001567FM-12+002999999V0200701N004619999999N9999999N9+01001+99999102101ADDGF106991999999999999999999MD1310101+9999
0051161200999991930020712004+44400+008917FM-12+000299999V0203401N00671220001CN0100001N9+00721+99999100351ADDAY111999GF104991001001999999001021MD1010061+9999
0102035310999991930033007004+52483-001933FM-12+016399999V0202301N002619999999N0200001N9+00441+00221101471ADDAA199001091GA1011+999999019GF101991001001999999001011IA1089KA1999M+01221KA2999N+00281MD1310161+9999
0089101270999991930042518004+53533+008150FM-12+000499999V0201401N00261012301CN0040001N9+01391+99999100861ADDAA124999999AY191999GF108991081051012501001001IA1089EQDQ01+000042APCTENQ02+000022APC3  
0127031620999991930030207004+55317-003200FM-12+024299999V0200501N006719999999N0020001N9+00001-00061103211ADDAA199999999GA1011+999999019GF108991081051000751999999IA1319KA1999M+01001KA2999N-00221MD1810081+9999MW1531EQDQ01  00002PRCP99
0043101270999991930080318004+53533+008150FM-12+000499999V0201801N00261220001CN0100001N9+02001+99999100401ADDAY111999GF104991041011004501001001IA1009
0102037950999991930040307004+51083+001017FM-12+010499999V0200901N012319999999N0040001N9+00891+00671100321ADDAA124999999GA1011+999999019GF107991041051022501001061IA1089KA1999M+01281KA2999N+00561MD1810241+9999
0065038640999991930120813004+50817-001300FM-12+000299999V0201901N012319999999N0040001N9+00891+00671100411ADDGA1011+999999019GF108991081061002501999999MD1810301+9999MW1651
0059036010999991930090313004+51683-005167FM-12+004399999V0201101N004619999999N0100001N9+01941+01501102501ADDGA1011+999999019GF104991021011012501001011MD1810081+9999
0059031620999991930040713004+55317-003200FM-12+024299999V0200501N004619999999N0200001N9+00671+00441102351ADDGA1011+999999019GF108991081051004501999999MD1310021+9999
0059037950999991930010301004+51083+001017FM-12+010499999V0202301N004619999999N0040001N9+00781+00671101601ADDGA1011+999999019GF108991081051004501999999MD1810151+9999
0108030050999991930090807004+60133-001183FM-12+008399999V0209991C000019999999N0100001N9+01221+01001100741ADDAA199003091GA1011+999999019GF108991081061004501999999IA1089KA1999M+01331KA2999N+01111MD1810021+9999MW1611
0065036270999991930020813004+51917-002583FM-12+006899999V0200201N006719999999N0200001N9+00221-00501103571ADDGA1011+999999019GF108991081051012501999999IA1009MD1310051+9999
0051108650999991930122712004+48183+011550FM-12+015599999V0202701N01231004501CN0200001N9+00501+00111101561ADDAY121061GF107991061051004501031999MD1310161+9999
0037104330999991930100906004+51400+008567FM-12+013799999V0202301N00931002401CN0040001N9+99999+99999999999ADDAY111061GF108991081061002501999999
0051071800999991930111012004+48700+006233FM-12+023699999V0202301N00101004501CN0100001N9+01111+99999102901ADDAY121999GF108991071051004501999999MD1810101+9999
0086037480999991930052613004+51067-001317FM-12+008399999V0201601N002619999999N0040001N9+01221+01171100781ADDGA1011+999999019GF108991081061002501999999MW1621EQDQ01+000032APCTENQ02+000002APC3  
0059030050999991930061301004+60133-001183FM-12+008399999V0209991C000019999999N0100001N9+00721+00671102131ADDGA1011+999999019GF104991041071008001001001MD1310141+9999
0043023610999991930012918004+62617+017950FM-12+000999999V0200901N00261002401CN0500001N9-00391+99999101461ADDGF108991081061002501999999MD1310041+9999
0102037660999991930101407004+51283-000750FM-12+006999999V0201401N002619999999N0040001N9+01061+01001101561ADDAA124999999GA1011+999999019GF104991021051012501081011IA1089KA1999M+01561KA2999N+00831MD1810081+9999
0024990061999991930101303004+62000-033000SAO  +00004YA  V02099999999999999999N0000001N1+02351+01851999999ADDMA1999999101461MW1001
0065030750999991930032318004+58450-003083FM-12+003699999V0202701N002619999999N0200001N9+00221+00001101791ADDGA1011+999999019GF106991011021012501011091IA1209MD1310081+9999
0059039520999991930071713004+51800-008250FM-12+000799999V0202301N004619999999N0500001N9+01561+01111099501ADDGA1011+999999019GF104991041031008001001001MD1810061+9999
0065031590999991930020318004+56033-003133FM-12+005899999V0200901N004619999999N0200001N9+00391+00281099531ADDGA1011+999999019GF106991041051012501011001MD1810051+9999MW1611
0083103380999991930021318004+52417+009750FM-12+005199999V0201101N00261220001CN0020001N9+00001+99999102871ADDAY121999GF104991001999999999999999KA1999M+00221MD1610061+9999EQDQ01+000082SCOLCG
0024990061999991930051410004+62000-033000SAO  +00004YA  V02099999999999999999N0000001N1+02571+02021999999ADDMA1999999100981MW1001
0051103840999991930071112004+52483+013433FM-12+004899999V0202501N002619999999N0100001N9+02001+99999100731ADDAY111999GF106991041071012501001011MD1810141+9999
0067115180999991930102218004+50100+014283FM-12+037199999V0203201N00461002401CN0040001N9+00781+99999100861ADDAA199005091GF108991081061002501999999KA1999M+01111MD1310041+9999
0084038640999991930121713004+50817-001300FM-12+000299999V0203401N001019999999N0005001N9+00391+00171102431ADDGA1011+999999019GF104991041051012501051001MD1310061+9999MW1421EQDQ01+000432PRSWM1
0043023610999991930120706004+62617+017950FM-12+000999999V0209991C00001220001CN0500001N9-00501+99999102101ADDGF104991041061004501999999MD1810021+9999
0043014030999991930040318004+59300+004883FM-12+005699999V0201401N00461220001CN0500001N9+00391+99999102321ADDGF101991001001999999999999MD1310101+9999
0067115180999991930112118004+50100+014283FM-12+037199999V0202001N00261004501CN0010001N9+01001+99999100601ADDAA199002091GF108991081061004501999999KA1999M+01501MD1810061+9999
0065038040999991930112418004+49933-006300FM-12+005099999V0202601N015419999999N0100001N9+01171+01111099541ADDGA1011+999999019GF104991041041012501001001IA1089MD1310021+9999
0081104530999991930110306004+51800+010617FM-12+034899999V0202001N01541000151CN0000001N9+00111+00061096701ADDAA199046091AY161061GF109991091999000251999999IA1089KA1999N+00111MD1710041+9999
0065033960999991930040718004+53583-000117FM-12+000999999V0200201N002619999999N0040001N9+00611+00561102261ADDGA1011+999999019GF108991041051012501021999IA1009MD1310081+9999
0076034970999991930082406004+52583+001717FM-12+000299999V0202501N00461220001CN0100001N9+01281+99999101671ADDAY111999GF101991999001999999051001IA1009MD1310201+9999EQDQ01+000002SCOTLC
0084039800999991930050118004+55367-007333FM-12+002699999V0201401N004619999999N0040001N9+01611+00441101931ADDGA1011+999999019GF199999001001999999001001IA1009MD1810141+9999EQDQ01+000002SCOTCV
0043023610999991930051506004+62617+017950FM-12+000999999V0203601N00101220001CN0500001N9+01111+99999101751ADDGF102991021011008001999999MD1310081+9999
0091030050999991930081207004+60133-001183FM-12+008399999V0201901N001019999999N0200001N9+01281+01221099931ADDGA1011+999999019GF104991041071004501001001IA1009KA1999M+01611KA2999N+01111MD1310041+9999
0051030530999991930083018004+57600-003867FM-12+005299999V0201601N001019999999N0200001N9+01331+01111102311ADDGA1011+999999019GF108991081051008001999999IA1009
0065031400999991930121313004+55867-004433FM-12+000699999V0201701N006719999999N0040001N9+00671+00611098351ADDGA1011+999999019GF107991071091004501999999MD1310141+9999MW1501
0065036010999991930030613004+51683-005167FM-12+004399999V0201601N002619999999N0010001N9+00781+00721101741ADDGA1011+999999019GF108991081051004501999999MD1810101+9999MW1631
0057108650999991930013112004+48183+011550FM-12+015599999V0202701N00101036001CN0040001N9+00221+00171100371ADDAY171061GF107991041051004501021001MD1990201+9999MW1231
0085103840999991930011918004+52483+013433FM-12+004899999V0201601N00101220001CN0010001N9+00611+99999102391ADDAY111999GF104991001001999999031999KA1999M+00721EQDQ01+000032APCTENQ02+000002APC3  
0102038040999991930070901004+49933-006300FM-12+005099999V0203201N004619999999N0002001N9+01441+01391102621ADDGA1011+999999019GF108991081051001501999999MW1441EQDQ01+000032APCTENQ02+000002APC3  Q03+000452PRSWM1
0100039800999991930101913004+55367-007333FM-12+002699999V0201601N019019999999N0040001N9+01111+01061098722ADDGA1011+999999019GF108991061061004501021999MD1810522+9999MW1621EQDQ01+098723APOSLPQ02+000522APC3  
0024990061999991930112804004+62000-033000SAO  +00004YA  V02099999999999999999N0000001N1+02071+01741999999ADDMA1999999101591MW1001
0078037950999991930082913004+51083+001017FM-12+010499999V0201501N002619999999N0100001N9+02831+02331101871ADDGA1011+999999019GF199999001001999999001001MD1810021+9999EQDQ01+000002SCOTCV
0116036970999991930090207004+51950+001333FM-12+000399999V0202601N002619999999N0040001N9+01391+00721102871ADDGA1011+999999019GF199999001001999999001001IA1009KA1999M+01831KA2999N+01171MD1310061+9999MW1051EQDQ01+000002SCOTCV
0043023610999991930082606004+62617+017950FM-12+000999999V0203201N00931002401CN0500001N9+01501+99999100971ADDGF106991061061002501999999MD1310021+9999
0064070090999991930100306004+50967+001833FM-12+002799999V0201101N00261220001CN9999999N9+00721+99999103051ADDGF106991001001999999999999EQDQ01+000032APCTENQ02+000002APC3  
0057063100999991930012312004+51567-003500FM-12+000999999V0202001N00461004501CN0010001N9+00501+99999101661ADDAY141999GF108991081051004501999999MD1810141+9999MW1101
0117031000999991930011807004+56483-006867FM-12+000999999V0202101N012319999999N0200001N9+00891+00781100861ADDAA199000391GA1011+999999019GF108991041051008001011999KA1999M+01111KA2999N+00781EQDQ01+000032APCTENQ02+000002APC3  
0065030260999991930093018004+58217-006333FM-12+000399999V0200501N004619999999N0500001N9+01061+01001102901ADDGA1011+999999019GF107991061051012501061001IA1009MD1310061+9999
0054070090999991930092306004+50967+001833FM-12+002799999V0202501N00671000151CN0002001N9+01611+99999102011ADDAA199002091GF108991081051000251999999MD1310121+9999
0054061800999991930120906004+55617+012650FM-12+000199999V0201801N00261007801CN0040001N9+00391+99999101231ADDAA199000691GF108991081051008001999999MD1310061+9999
0024990061999991930080806004+62000-033000SAO  +00004YA  V02099999999999999999N0000001N1+02571+02411999999ADDMA1999999100641MW1001
0043108660999991930032612004+48183+011550FM-12+052099999V0202501N00461002401CN0040001N9+00721+99999102071ADDAY121061GF108991081061002501999999MW1501
0080037660999991930020413004+51283-000750FM-12+006999999V0203201N001019999999N0040001N9+00721+00501099001ADDGA1011+999999019GF108991081051004501999999EQDQ01+000032APCTENQ02+000002APC3  
0051103840999991930070912004+52483+013433FM-12+004899999V0202701N00671220001CN0040001N9+02111+99999101511ADDAY111999GF104991041021012501001001MD1710021+9999
0091103840999991930061118004+52483+013433FM-12+004899999V0202701N00261220001CN0040001N9+02721+99999101711ADDAY101999GF102991001001999999001061IA1009KA1999M+02891EQDQ01+000042APCTENQ02+000022APC3  
0085037480999991930021907004+51067-001317FM-12+008399999V0200301N006719999999N0100001N9+00111-00111102661ADDGA1011+999999019GF108991081051004501999999KA1999M+00281KA2999N+00111MD1810101+9999
0065035220999991930101418004+51850-001550FM-12+018799999V0201701N006719999999N0200001N9+01331+01111101221ADDGA1011+999999019GF106991061051012501001001IA1089MD1310061+9999
0065031620999991930040113004+55317-003200FM-12+024299999V0201601N009319999999N0040001N9+01001+00781099801ADDGA1011+999999019GF108991061061004501999999MD1810081+9999MW1211
0059037950999991930080601004+51083+001017FM-12+010499999V0202801N004619999999N0040001N9+01001+00941100331ADDGA1011+999999019GF101991011051008001001001MD1310141+9999
0086033960999991930083101004+53583-000117FM-12+000999999V0203601N001019999999N0020001N9+01391+01331102111ADDGA1011+999999019GF108991081061004501999999MW1631EQDQ01+000032APCTENQ02+000002APC3  
0065037770999991930120201004+51350-000117FM-12+006699999V0200701N004619999999N0020001N9+00721+00671102201ADDGA1011+999999019GF108991081051004501999999MD1810141+9999MW1101
0065030050999991930030118004+60133-001183FM-12+008399999V0202301N001019999999N0100001N9+00721+00671103281ADDGA1011+999999019GF106991041051004501071001IA1009MD1310101+9999
0059038110999991930062201004+50133-005033FM-12+006199999V0203001N002619999999N0200001N9+01391+01331101531ADDGA1011+999999019GF107991041051012501001081MD1310061+9999
0102037770999991930102007004+51350-000117FM-12+006699999V0202101N004619999999N0100001N9+00831+00611100481ADDAA124999999GA1011+999999019GF106991021051012501021001IA1089KA1999M+01671KA2999N+00831MD1310201+9999
0059030050999991930091813004+60133-001183FM-12+008399999V0201401N004619999999N0100001N9+01171+01111100221ADDGA1011+999999019GF108991041051004501021999MD1310021+9999
0108037660999991930031007004+51283-000750FM-12+006999999V0202901N004619999999N0040001N9+00501+00441099711ADDAA124999999GA1011+999999019GF108991081061002501999999IA1089KA1999M+01061KA2999N+00501MD1310221+9999MW1601
0059038280999991930052813004+50483-004100FM-12+019899999V0202301N004619999999N0200001N9+01391+00941101441ADDGA1011+999999019GF106991061011012501001001MD1310081+9999
0091038640999991930081507004+50817-001300FM-12+000299999V0202501N004619999999N0100001N9+01281+00611101351ADDGA1011+999999019GF107991021041012501051001IA1009KA1999M+01891KA2999N+01111MD1310101+9999
0087267020999991930102806004+54733+020567FM-12+002099999V0203201N00261000601CN0020001N9+00721+99999099891ADDAA199003091AY161999GF108991081061000751999999IA1089KA1999N+00391MD1710061+9999MW1631
0024990061999991930123100004+62000-033000SAO  +00004YA  V02099999999999999999N0000001N1+01801+01411999999ADDMA1999999101931MW1001
0059038560999991930081201004+50533-002450FM-12+001099999V0202501N006719999999N0200001N9+01501+01221101171ADDGA1011+999999019GF107991061041008001051001MD1810041+9999
0065034970999991930112218004+52583+001733FM-12+000299999V0202401N006719999999N0100001N9+00611+00391098291ADDGA1011+999999019GF104991041091004501001001IA1089MD1310201+9999
0086035590999991930052118004+52117-000417FM-12+003099999V0200301N004619999999N0200001N9+01281+00611102251ADDGA1011+999999019GF104991041011008001001001IA1009EQDQ01+000032APCTENQ02+000002APC3  
0054060410999991930011518004+57733+010633FM-12+000399999V0202501N00461220001CN0100001N9+00501+99999100161ADDAA199000691GF104991001001999999999999MD1310201+9999
0065033230999991930052918004+53350-002883FM-12+002499999V0201401N002619999999N0040001N9+01781+00891101811ADDGA1011+999999019GF106991021051012501071001IA1009MD1810081+9999
0102033790999991930071507004+53033-000500FM-12+006299999V0202701N002619999999N0040001N9+01331+01281100461ADDAA199008091GA1011+999999019GF108991081051004501999999IA1009KA1999M+01831KA2999N+01221MD1810101+9999
0059039520999991930011518004+51800-008250FM-12+000799999V0200701N004619999999N0200001N9+00391+00281101271ADDGA1011+999999019GF104991041031004501001001MD1310101+9999
0043104710999991930080906004+51383+012400FM-12+004099999V0202701N00671007801CN0020001N9+99999+99999999999ADDAY121061GF108991081051008001999999MW1051
0024990061999991930111406004+62000-033000SAO  +00004YA  V02099999999999999999N0000001N1+01851+01411999999ADDMA1999999102101MW1001
0102039170999991930042907004+54650-006217FM-12+006799999V0200301N006719999999N0200001N9+00721+00501101081ADDAA124999999GA1011+999999019GF101991011051008001001001IA1009KA1999M+01221KA2999N+00441MD1810021+9999
0096031000999991930010807004+56483-006867FM-12+000999999V0202501N015419999999N0200001N9+00391+00001099601ADDAA199013091GA1011+999999019GF104991041031012501001001KA1999M+01061KA2999N+00281MD1810101+9999
0051103840999991930072212004+52483+013433FM-12+004899999V0202701N00461220001CN0040001N9+01891+99999101061ADDAY111999GF102991021081017501001001MD1110061+9999
0065032620999991930022601004+55017-001417FM-12+003399999V0201801N002619999999N0040001N9+00391+00281101391ADDGA1011+999999019GF108991081061004501999999MD1810051+9999MW1611
0057037770999991930120818004+51350-000117FM-12+006699999V0202401N004619999999N0040001N9+00671+00611100511ADDGA1011+999999019GF106991061081004501001001IA1089MW1101
0080033960999991930110913004+53583-000117FM-12+000999999V0202801N009319999999N0040001N9+01281+01221101851ADDGA1011+999999019GF108991061061012501031081EQDQ01+000032APCTENQ02+000002APC3  
0077033790999991930072807004+53033-000500FM-12+006299999V0201901N006719999999N0100001N9+01391+01331100761ADDGA1011+999999019GF107991071051008001999999IA1009KA1999M+02061KA2999N+01221
0051108660999991930102112004+48183+011550FM-12+052099999V0203601N00101007801CN0040001N9+01221+99999101401ADDAY121061GF108991061051008001071999MD1990101+9999
0024990061999991930062613004+62000-033000SAO  +00004YA  V02099999999999999999N0000001N1+03021+02521999999ADDMA1999999100681MW1001
0059036010999991930100601004+51683-005167FM-12+004399999V0202901N006719999999N0200001N9+01171+00941100221ADDGA1011+999999019GF104991041081008001001001MD1310081+9999
0051103840999991930053012004+52483+013433FM-12+004899999V0202901N00261220001CN0100001N9+02001+99999101911ADDAY101999GF101991011011012501001001MD1810061+9999
0065037970350471930050518004+51350+001367FM-12+004799999V0201101N004619999999N0100001N9+01221+00781100931ADDGA1011+999999019GF108991041051008001091999IA1009MD1810181+9999
0081108660999991930100718004+48183+011550FM-12+052099999V0202701N006710360019N0100001N9+00721+99999101241ADDAA199002091AY181061GF106991021091008001041999IA1089KA1999M+01001MD1310341+9999
0059037480999991930121113004+51067-001317FM-12+008399999V0202801N006719999999N0100001N9+00891+00831098941ADDGA1011+999999019GF108991081051002501999999MD1810141+9999
0059038560999991930071801004+50533-002450FM-12+001099999V0202301N004619999999N0200001N9+01441+01221099561ADDGA1011+999999019GF102991001001999999041011MD1810061+9999
0102039520999991930081207004+51800-008250FM-12+000799999V0203601N004619999999N0200001N9+01281+01221101391ADDAA124999999GA1011+999999019GF102991021031004501001001IA1009KA1999M+01781KA2999N+01171MD1310101+9999
0037104330999991930071606004+51400+008567FM-12+013799999V0202301N00261220001CN0040001N9+99999+99999999999ADDAY101061GF102991021011012501001999
0102033010999991930092807004+53217-003000FM-12+005299999V0200301N002619999999N0040001N9+01061+00831102571ADDAA199000091GA1011+999999019GF106991061051012501001011IA1089KA1999M+01611KA2999N+00941MD1310121+9999
0077123750999991930082218004+52183+020967FM-12+013399999V0209991C000019999999N0020001N9+02281+99999101811ADDGF108991021051008001999999KA1999M+02501EQDQ01+000032APCTENQ02+000002APC3  
0024990061999991930080805004+62000-033000SAO  +00004YA  V02099999999999999999N0000001N1+02631+02411999999ADDMA1999999100641MW1001
0065038560999991930051818004+50533-002450FM-12+001099999V0202801N009319999999N0200001N9+01111+00891101981ADDGA1011+999999019GF104991041031008001001001IA1009MD1310141+9999
0071039170999991930071318004+54650-006217FM-12+006799999V0201501N004619999999N0040001N9+01501+01441100571ADDGA1011+999999019GF108991071061002501021999IA1089MD1810241+9999MW1211
0057014270999991930021206004+58100+006567FM-12+000999999V0203201N01231004501CN0200001N9+00501+99999102561ADDAY111999GF107991071061004501001001MD1810061+9999MW1161
0102030050999991930123107004+60133-001183FM-12+008399999V0201801N002619999999N0200001N9+00561-00221098651ADDAA199000591GA1011+999999019GF102991021081004501001001IA1089KA1999M+00561KA2999N+00281MD1310081+9999
0043060810999991930032818004+55550+008083FM-12+001599999V0201801N00461007801CN0040001N9+00391+99999101071ADDGF108991081051008001999999MD1810141+9999
0067071500999991930031606004+48950+002433FM-12+004699999V0202001N00461220001CN0020001N9+00501+99999099411ADDAA199000391GF104991021021008001999999KA1999N+00501MD1810061+9999
0059035310999991930061413004+52483-001933FM-12+016399999V0200901N001019999999N0200001N9+01831+01391102521ADDGA1011+999999019GF104991011011008001031001MD1810021+9999
0043077470999991930030618004+42733+002867FM-12+004599999V0200901N00101220001CN0200001N9+01221+99999102301ADDGF104991001001999999999999MD1810141+9999
0106030750999991930021207004+58450-003083FM-12+003699999V0202501N004619999999N0200001N9+00331+00221103011ADDGA1011+999999019GF108991081051008001999999KA1999M+00671KA2999N+00111EQDQ01+000032APCTENQ02+000002APC3  
0024990061999991930012403004+62000-033000SAO  +00004YA  V02099999999999999999N0000001N1+01461+01071999999ADDMA1999999101831MW1001
0102038640999991930080607004+50817-001300FM-12+000299999V0202501N006719999999N0200001N9+01501+01221100401ADDAA124999999GA1011+999999019GF104991041021008001091001IA1009KA1999M+01781KA2999N+01221MD1310061+9999
0117033480999991930020307004+53983-001550FM-12+014699999V0209991C000019999999N0020001N9+00061+00001099541ADDAA199005091GA1011+999999019GF104991011051008001031001KA1999M+00391KA2999N+00061EQDQ01+000032APCTENQ02+000002APC3  
0085038640999991930020707004+50817-001300FM-12+000299999V0203601N009319999999N0100001N9+00111-00221102121ADDGA1011+999999019GF102991011051012501031001KA1999M+00501KA2999N+00061MD1310101+9999
0064102240999991930010518004+53083+008783FM-12+000499999V0201801N00671007801CN0200001N9+00891+99999100231ADDAY111999GF108991081051008001999999KA1999M+01001MD1310061+9999
0086035220999991930082618004+51850-001550FM-12+018799999V0201901N002619999999N0200001N9+02441+02001101921ADDGA1011+999999019GF102991001001999999031011IA1009EQDQ01+000032APCTENQ02+000002APC3  
0065031710999991930101618004+56383-002883FM-12+001199999V0201401N002619999999N0200001N9+01111+00671100541ADDGA1011+999999019GF102991011011008001031041IA1089MD1310061+9999
0091038640999991930071307004+50817-001300FM-12+000299999V0203601N002619999999N0100001N9+01331+00891101551ADDGA1011+999999019GF101991001001999999001011IA1009KA1999M+02061KA2999N+01111MD1310061+9999
0059037660999991930032613004+51283-000750FM-12+006999999V0203401N002619999999N0200001N9+01281+00391102541ADDGA1011+999999019GF106991001001999999001021MD1310061+9999
0086030050999991930010801004+60133-001183FM-12+008399999V0202501N002619999999N0100001N9+00611+00501099301ADDGA1011+999999019GF108991041031004501011999MW1161EQDQ01+000032APCTENQ02+000002APC3  
0056330190999991930011218004+52117+026100FM-12+013799999V0201101N00261220001CN0040001N9-00111+99999999999ADDGF100991001001999999999999KA1999M+00001MD1310101+9999
0059039730999991930081913004+54100-010067FM-12+000599999V0202001N006719999999N0100001N9+01331+01111100891ADDGA1011+999999019GF106991061071004501001001MD1310081+9999
0054070090999991930051606004+50967+001833FM-12+002799999V0202301N00931000151CN0000501N9+00891+99999102191ADDAA199000391GF108991081051000251999999MD1310161+9999
0059036010999991930082313004+51683-005167FM-12+004399999V0202301N012319999999N0100001N9+01501+01221100691ADDGA1011+999999019GF104991021041008001081011MD1310201+9999
0035060410999991930032506004+57733+010633FM-12+000399999V0202701N001019999999N9999999N9+00001+99999102321EQDQ01+000032APCTENQ02+000002APC3  
0024990061999991930092105004+62000-033000SAO  +00004YA  V02099999999999999999N0000001N1+02521+02181999999ADDMA1999999100641MW1001
0059038940999991930020918004+49450-002550FM-12+010499999V0200501N012319999999N0040001N9+00391+00001103021ADDGA1011+999999019GF104991041051012501001001MD1810101+9999
0059037750999991930081513004+51467-000317FM-12+000599999V0202601N004619999999N0200001N9+01561+00891101251ADDGA1011+999999019GF108991021041008001031999MD1810021+9999
0059030050999991930072213004+60133-001183FM-12+008399999V0200101N004619999999N0100001N9+01281+01061101111ADDGA1011+999999019GF108991041051004501021999MD1310061+9999
0078033790999991930122701004+53033-000500FM-12+006299999V0202501N004619999999N0040001N9+00331+00111100151ADDGA1011+999999019GF199999001001999999001001MD1310281+9999EQDQ01+000002SCOTCV
0059038640999991930022001004+50817-001300FM-12+000299999V0200201N002619999999N0100001N9+00171-00221102591ADDGA1011+999999019GF108991081051008001999999MD1810051+9999
0059035590999991930071913004+52117-000417FM-12+003099999V0202501N009319999999N0200001N9+01671+01001100471ADDGA1011+999999019GF107991071081008001999999MD1310141+9999
0078100020999991930020212004+53767+006067FM-12+999999999V0201101N01231004501CN0005001N9+00111+00061099141ADDAY171999GF108991081061004501999999MW1681EQDQ01+000082APCTENQ02+000002APC3  
0092036010999991930110918004+51683-005167FM-12+004399999V0202501N006719999999N0005001N9+01111+01061102651ADDGA1011+999999019GF108991081051001501999999IA1109MW1411EQDQ01+000032APCTENQ02+000002APC3  
0080038940999991930030218004+49450-002550FM-12+010499999V0200701N001019999999N0100001N9+01001+00781101821ADDGA1011+999999019GF104991041051012501061001EQDQ01+000032APCTENQ02+000002APC3  
0077115180999991930061018004+50100+014283FM-12+037199999V0202301N00101220001CN0040001N9+02501+99999101341ADDGF101991011031017501999999KA1999M+02721EQDQ01+000032APCTENQ02+000002APC3  
0102034970999991930031007004+52583+001733FM-12+000299999V0200201N004619999999N0005001N9+00561+00501099471ADDAA199002091GA1011+999999019GF108991081061002501999999IA1089KA1999M+01001KA2999N+00501MD1810101+9999
0059038640999991930081601004+50817-001300FM-12+000299999V0203001N004619999999N0200001N9+01221+01001101761ADDGA1011+999999019GF101991001001999999051001MD1310181+9999
0080030050999991930072901004+60133-001183FM-12+008399999V0209991C000019999999N0100001N9+01281+01221100231ADDGA1011+999999019GF107991041051004501061001EQDQ01+000032APCTENQ02+000002APC3  
0096038560999991930011007004+50533-002450FM-12+001099999V0202601N009319999999N0200001N9+00781+00391100431ADDAA124999999GA1011+999999019GF102991021051008001001001KA1999M+01061KA2999N+00561MD1310101+9999
0081102240999991930102406004+53083+008783FM-12+000499999V0202001N00261004501CN0010001N9+00891+99999099711ADDAA199000591AY121999GF108991081051004501999999IA1089KA1999N+00781MD1810101+9999
0057106350999991930050606004+50217+008450FM-12+024499999V0201801N00461000151CN0002001N9+00891+00831099541ADDAY121061GF109991091999000251999999MD1810061+9999MW1471
0037104330999991930121106004+51400+008567FM-12+013799999V0201801N00261220001CN0040001N9+99999+99999999999ADDAY101061GF101991011011022501001999
0065037480999991930102018004+51067-001317FM-12+008399999V0201801N001019999999N0100001N9+00721+00671100681ADDGA1011+999999019GF106991041081008001031001IA1089MD1310041+9999
0096038110999991930060501004+50133-005033FM-12+006199999V0203501N002619999999N0040001N9+01281+01221102481ADDGA1011+999999019GF199999001001999999001001EQDQ01+000002SCOTCVQ02+000032APCTENQ03+000002APC3  
0086039660999991930062513004+53100-007900FM-12+005799999V0202701N001019999999N0200001N9+01441+00781101001ADDGA1011+999999019GF107991071081012501001001MW1251EQDQ01+000032APCTENQ02+000002APC3  
0091038560999991930070907004+50533-002450FM-12+001099999V0202701N002619999999N0200001N9+01671+01611102381ADDGA1011+999999019GF106991041041008001051001IA1009KA1999M+01831KA2999N+01501MD1310101+9999
0059031000999991930092513004+56483-006867FM-12+000999999V0203401N015419999999N0200001N9+01171+00561101451ADDGA1011+999999019GF104991021021008001031031MD1310261+9999
0056108660999991930091318004+48183+011550FM-12+052099999V0203401N001010360019N0200001N9+01781+99999101501ADDAY121061GF106991021011017501071011IA1009KA1999M+03001
0059031400999991930100813004+55867-004433FM-12+000699999V0203601N002619999999N0200001N9+00891+00441098161ADDGA1011+999999019GF107991071081008001999999MD1310201+9999
0024990061999991930121715004+62000-033000SAO  +00004YA  V02099999999999999999N0000001N1+02131+01631999999ADDMA1999999101351MW1001
0059034970999991930102513004+52583+001733FM-12+000299999V0203201N006719999999N0040001N9+01001+00391099941ADDGA1011+999999019GF106991061091004501001001MD1310101+9999
0059030910999991930111813004+57167-002200FM-12+007199999V0202301N002619999999N0020001N9+00221-00331101771ADDGA1011+999999019GF108991001001999999071999MD1810321+9999
0078034970999991930012801004+52583+001733FM-12+000299999V0203401N004619999999N0040001N9+00561+00501100691ADDGA1011+999999019GF199999001001999999001001MD1310101+9999EQDQ01+000002SCOTCV
0102039280999991930070907004+54650-005533FM-12+001299999V0200901N001019999999N0200001N9+01331+01281102331ADDAA124999999GA1011+999999019GF106991061081012501001001IA1009KA1999M+02001KA2999N+01221MD1310141+9999
0096034970999991930010407004+52583+001733FM-12+000299999V0202301N006719999999N0100001N9+00891+00671100441ADDAA199003091GA1011+999999019GF104991001001999999011999KA1999M+01111KA2999N+00561MD1810051+9999
0071039530999991930092318004+51933-010250FM-12+000999999V0201801N012319999999N0100001N9+01501+01441100501ADDGA1011+999999019GF107991071051002501999999IA1089MD1310021+9999MW1251
0059031000999991930060113004+56483-006867FM-12+000999999V0203601N002619999999N0500001N9+01391+00941101411ADDGA1011+999999019GF107991001001999999031999MD1810081+9999
0102039660999991930102507004+53100-007900FM-12+005799999V0202301N002619999999N0200001N9+00721+00501101011ADDAA124999999GA1011+999999019GF104991041051012501001001IA1089KA1999M+00891KA2999N+00561MD1310181+9999
0043014030999991930121318004+59300+004883FM-12+005699999V0201401N02261012301CN0500001N9+00391+99999099471ADDGF108991081051012501999999MD1310081+9999
0087103380999991930112106004+52417+009750FM-12+001699999V0202501N00461030001CN0040001N9+01001+00941099861ADDAA199013091AY161999GF106991041051012501021999IA1089KA1999N+00221MD1110261+9999MW1201
0088038880999991930122407004+50917+000967FM-12+000699999V0202301N004619999999N0040001N9+99999+99999999999ADDAA124999999GA1011+999999019GF108991081081004501999999KA1999M+00611KA2999N+00391MW1801
0080033960999991930070713004+53583-000117FM-12+000999999V0203201N004619999999N0100001N9+01611+01171102181ADDGA1011+999999019GF107991041041012501011001EQDQ01+000032APCTENQ02+000002APC3  
0059039530999991930110601004+51933-010250FM-12+000999999V0200501N009319999999N0040001N9+01001+00941100541ADDGA1011+999999019GF108991081051004501999999MD1310261+9999
0065035590999991930090618004+52117-000417FM-12+003099999V0202001N006719999999N0100001N9+01671+01391101181ADDGA1011+999999019GF107991041041012501071999IA1089MD1810141+9999
0065036270999991930011318004+51917-002583FM-12+006899999V0201801N004619999999N0040001N9+00941+00831100531ADDGA1011+999999019GF108991081061004501999999MD1810101+9999MW1611
0102033480999991930101307004+53983-001550FM-12+014699999V0201901N004619999999N0040001N9+00611+00561101241ADDAA199000091GA1011+999999019GF108991001001999999041071IA1089KA1999M+01171KA2999N+00611MD1310061+9999
0096037750999991930010607004+51467-000317FM-12+000599999V0202301N002619999999N0020001N9+00221+00111101091ADDAA124999999GA1011+999999019GF102991021051008001001001KA1999M+00831KA2999N+00171MD1310351+9999
0024990061999991930053111004+62000-033000SAO  +00004YA  V02099999999999999999N0000001N1+02851+02351999999ADDMA1999999100541MW1001
0065030750999991930062813004+58450-003083FM-12+003699999V0202801N001019999999N0200001N9+01111+01061100321ADDGA1011+999999019GF108991061061004501011999MD1310061+9999MW1641
0108038280999991930041207004+50483-004100FM-12+019899999V0202501N004619999999N0040001N9+00831+00781100801ADDAA124999999GA1011+999999019GF108991081061002501999999IA1089KA1999M+01331KA2999N+00721MD1810081+9999MW1611
0024990061999991930042420004+62000-033000SAO  +00004YA  V02099999999999999999N0000001N1+02741+02351999999ADDMA1999999100101MW1001
0065038110999991930110618004+50133-005033FM-12+006199999V0203501N009319999999N0040001N9+00721+00111101171ADDGA1011+999999019GF104991041051004501001001IA1009MD1310161+9999
0108039530999991930090807004+51933-010250FM-12+000999999V0201601N004619999999N0040001N9+01501+01441101071ADDAA124999999GA1011+999999019GF108991071061002501021999IA1089KA1999M+01721KA2999N+01281MD1310061+9999MW1611
0070102240999991930101518004+53083+008783FM-12+000499999V0201401N00461220001CN0100001N9+01501+99999101601ADDAY101999GF104991001001999999071091IA1009KA1999M+01721MD1610061+9999
0116037750999991930082707004+51467-000317FM-12+000599999V0200801N001019999999N0005001N9+02001+01941101921ADDGA1011+999999019GF102991001001999999001041IA1009KA1999M+02891KA2999N+01721MD1810061+9999MW1421EQDQ01+000432PRSWM1
0080033790999991930062713004+53033-000500FM-12+006299999V0202701N004619999999N0100001N9+02111+01171100401ADDGA1011+999999019GF107991011011008001071061EQDQ01+000032APCTENQ02+000002APC3  
0065035310999991930052318004+52483-001933FM-12+016399999V0200201N004619999999N0040001N9+01501+00611102171ADDGA1011+999999019GF104991011011008001071001IA1089MD1810021+9999
0024990061999991930071802004+62000-033000SAO  +00004YA  V02099999999999999999N0000001N1+02681+02461999999ADDMA1999999099531MW1001
0024990061999991930071313004+62000-033000SAO  +00004YA  V02099999999999999999N0000001N1+03181+02571999999ADDMA1999999099861MW1001
0030071500999991930041018004+48950+002433FM-12+004699999V0201401N012319999999N9999999N9+01721+99999100761ADDKA1999M+01891MD1310041+9999
0065036270999991930102413004+51917-002583FM-12+006899999V0202701N006719999999N0200001N9+00891+00441100201ADDGA1011+999999019GF104991041091012501001001MD1810201+9999MW1801
0024990061999991930030504004+62000-033000SAO  +00004YA  V02099999999999999999N0000001N1+01741+01691999999ADDMA1999999100981MW1001
0096267020999991930032706004+54733+020567FM-12+002099999V0202301N002619999999N0100001N9+00221+99999100301ADDAA199004091AY161999GF106991041011008001031999KA1999N+00221EQDQ01+000042APCTENQ02+000042APC3  
0051070050999991930122212004+50133+001850FM-12+007199999V0200201N00461220001CN0040001N9+00781+99999103211ADDAY111999GF102991011021004501001011MD1810081+9999
0064267020999991930011206004+54733+020567FM-12+000999999V0201601N00671030001CN0200001N9-00111-00281099981ADDAY121999GF107991021051017501021999KA1999N-00111MD1710061+9999
0024990061999991930052708004+62000-033000SAO  +00004YA  V02099999999999999999N0000001N1+02461+02351999999ADDMA1999999100341MW1001
