0089164200999991931111018004+38200+015550FM-12+005499999V0209991C00001220001CN0100001N9+01611+99999101381ADDAA124999999AY111999GF102991021041012501001001IA1089EQDQ01+000042APCTENQ02+000102APC3  
0084032620999991931081601004+55017-001417FM-12+003399999V0209991C000019999999N0005001N9+01221+01171099511ADDGA1011+999999019GF104991041021008001001001MD1810041+9999MW1441EQDQ01+000452PRSWM1
0057264220999991931022412004+56983+024083FM-12+000299999V0201801N00461004501CN0040001N9-00391+99999102631ADDAY151999GF108991081051004501999999MD1110021+9999MW1051
0009726810241311931022111004+43567-116217SAO  +0874BOI  V0203151N001512200019N1600001N1+00021+99999999999ADDMW1001
0097100460999991931091606004+54383+010150FM-12+000999999V0203201N00461220001CN0010001N9+01281+01221102591ADDAY111999GF104991041041001501061001IA1089KA1999N+01111MW1101EQDQ01+000042APCTENQ02+000062APC3  
0091121950999991931053006004+54083+022933FM-12+017699999V0202001N00101220001CN0040001N9+02501+01561101131ADDAY101999GF100991001001999999001001IA1009KA1999N+01611EQDQ01+000032APCTENQ02+000002APC3  
0070124250999991931062318004+51133+016967FM-12+003799999V0203601N00101030001CN0100001N9+02111+01441101471ADDAY111999GF106991011011017501011011IA1009KA1999M+02281MD1810021+9999
0057060210999991931032412004+57117+008600FM-12+004699999V0202901N00101001501CN0000501N9+00281+99999102441ADDAY141999GF108991081051001501001001MD1310101+9999MW1451
0061827940999991931071812004-07550-034817FM-12+001599999V0201401N002619999999N9999999N9+02611+99999101561ADDGF104991999999999999999999KA1999M+02781KA2999N+01891MW1111
0072821910999991931082112004-01467-048450FM-12+001099999V0209991C000019999999N9999999N9+02611+99999101501ADDAA124006091GF102991999999999999999999KA1999M+03281KA2999N+02221MW1111
0080038940999991931011301004+49450-002550FM-12+010499999V0200201N001019999999N0200001N9+00611+00221100331ADDGA1011+999999019GF104991041051008001001001EQDQ01+000032APCTENQ02+000002APC3  
0070076500999991931100218004+43417+005200FM-12+001299999V0203201N00461220001CN0100001N9+01781+99999102131ADDAY101999GF101991001001999999001031IA1089KA1999M+02221MD1310041+9999
0043080010999991931051906004+43383-008367FM-12+005799999V0209999999999004501CN0100001N9+01221+99999101251ADDAY161999GF107991071999004501999999MW1211
0067029110999991931061206004+63083+021617FM-12+000999999V0201601N00101015001CN0100001N9+00721+99999100251ADDAA199003091AY111999GF108991081051017501001999IA1009KA1999N+00501
0070106850999991931052806004+50300+011867FM-12+017399999V0201601N00261220001CN0200001N9+01781+01111101081ADDAY101061GF100991001001999999001001IA1009KA1999N+01111MD1810041+9999
0074030050999991931032806004+60150-001133FM-12+004899999V0203201N002619999999N0100001N9+00001+99999102841ADDAA199000691AY181999GF107991041081004501021001IA1159MD1210101+9999MW1261
0065036010999991931123001004+51683-005167FM-12+004399999V0203401N002619999999N0100001N9+00391+00331100761ADDGA1011+999999019GF107991041061002501021001MD1310101+9999MW1131
0051107270999991931120512004+49017+008383FM-12+003599999V0202701N00931220001CN0200001N9+01111+00501102391ADDAY101061GF102991021071008001001081MD1310061+9999
0070024640999991931052606004+59350+017950FM-12+001099999V0202701N00101220001CN0100001N9+01611+99999102551ADDAY101999GF101991011011017501081001IA1009KA1999N+01111MD1310061+9999
0089331870999991931113006004+50750+025350FM-12+020099999V0201401N00461220001CN0500001N9-01281-01441103951ADDAY101999GF100991001001999999001001IA1139KA1999N-01391MD1310041+9999EQDQ01+000902SCOLCB
0057101700999991931121618004+54183+012100FM-12+000299999V0203601N01231220001CN0200001N9+00221+00001102041ADDAY111999GF102991021011004501001001IA1159MD1310121+9999
0009726810241311931032002004+43567-116217SAO  +0874BOI  V0200901N001010090019N1600001N1+00961+99999999999ADDMW1001
0070106350999991931052518004+50217+008450FM-12+024499999V0200501N00461220001CN0200001N9+02221+01561100861ADDAY101061GF101991001001999999001051IA1009KA1999M+02391MD1810081+9999
0078100670999991931061406004+54500+011250FM-12+000399999V0203201N00461030001CN0100001N9+01501+99999999999ADDAY121999GF106991011011008001071001IA1009EQDQ01+000032APCTENQ02+000002APC3  
0102070160999991931092518004+50150+003267FM-12+009899999V0203401N00461030001CN0040001N9+01221+99999103261ADDAA199000391AY121999GF108991041061002501071999IA1089KA1999M+01391EQDQ01+000032APCTENQ02+000002APC3  
0051071100999991931032212004+48333-004767FM-12+003299999V0201801N00931036001CN0100001N9+01111+99999101151ADDAY101999GF106991021021008001041999MD1310041+9999
0091036930999991931050107004+51533+000817FM-12+000399999V0202301N004619999999N0040001N9+00831+00391101351ADDGA1011+999999019GF104991021051017501001081IA1089KA1999M+01561KA2999N+00281MD1810021+9999
0009726810241311931073020004+43567-116217SAO  +0874BOI  V0203151N004612200019N0480001N1+03071+99999999999ADDMW1001
0051062300999991931092212004+52967+004750FM-12+000699999V0200701N00461012301CN0040001N9+01221+99999102511ADDAY111999GF106991061051012501001001MD1810121+9999
0043060410999991931083018004+57733+010633FM-12+000399999V0200501N00101220001CN0200001N9+01611+99999102141ADDAY101999GF101991001001999999001021IA1009
0009726810241311931093004004+43567-116217SAO  +0874BOI  V0201801N001012200019N0320001N1+01131+99999999999ADDMW1001
0076010010999991931021912004+70983-008333FM-12+002399999V0202501N001019999999N0100001N9-00721+99999098391ADDAY121999GF106991999001004501071001MD1710061+9999MW1161EQDQ01+000002SCOTLC
0024990061999991931082403004+62000-033000SAO  +00004YA  V02099999999999999999N0000001N1+02851+02681999999ADDMA1999999099801MW1001
0065039660999991931100913004+53100-007900FM-12+005799999V0201801N001019999999N0100001N9+01331+01281100941ADDGA1011+999999019GF108991081061004501999999MD1310121+9999MW1631
0043104330999991931102906004+51400+008567FM-12+013799999V0202701N00461001501CN0020001N9+99999+99999999999ADDAY161061GF108991081061001501999999MW1651
0102102240999991931030918004+53083+008783FM-12+000499999V0200701N001019999999N0020001N9-00501+99999100341ADDAA199000391AY171999GF108991041051008001021999IA1309KA1999M-00391EQDQ01+000032APCTENQ02+000002APC3  
0051070050999991931020612004+50133+001850FM-12+007199999V0201401N00671001501CN0020001N9+00111+99999101511ADDAY121999GF108991061051001501999999MD1810121+9999
0086038110999991931051218004+50133-005033FM-12+006199999V0202301N006719999999N0100001N9+01111+01061102091ADDGA1011+999999019GF106991061041012501001001IA1009EQDQ01+000032APCTENQ02+000002APC3  
0061837460999991931052912004-22450-042933FM-12+087799999V0209991C000019999999N9999999N9+01611+99999102461ADDGF104991999999999999999999KA1999M+01721KA2999N+01111MW1111
0037108060999991931060812004+48633+008083FM-12+004599999V0202301N01231012301CN0100001N9+99999+99999999999ADDAY121061GF107991071051012501001999
0056109080999991931052406004+47867+008017FM-12+045599999V0201401N004619999999N0500001N9+01721+00171100501ADDAY111061GF106991999001017501051091IA1009KA1999N+01221
0074100190999991931042118004+54917+008350FM-12+000599999V0203401N00261002401CN0040001N9+00501+99999999999ADDAA199000391AY161999GF108991081061002501001001IA1089MD1810021+9999MW1211
0072837290999991931032112004-22900-047067FM-12+066599999V0201401N002619999999N9999999N9+02281+99999101311ADDAA124001091GF104991999999999999999999KA1999M+02611KA2999N+02001MW1111
0059033790999991931040513004+53033-000500FM-12+006299999V0202801N006719999999N0100001N9+01061+00171100771ADDGA1011+999999019GF107991021021012501001061MD1310061+9999
0143033480999991931122607004+53983-001550FM-12+014699999V0202301N002619999999N0100001N9+00941+00891102511ADDAA199999999GA1011+999999019GF107991071061008001999999IA1089KA1999M+99999KA2999N+00441MD1810061+9999MW1511EQDQ01  00002PRCP99Q02 +00832ATMX  
0009726810241311931102809004+43567-116217SAO  +0874BOI  V0200451N001010090019N0192001N1+00631+00461999999ADDMW1001
0082101700999991931022406004+54183+012100FM-12+000299999V0201601N00101220001CN0040001N9-00221-00281102421ADDAY111999GF101991999001999999011001IA1139MD1310141+9999MW1051EQDQ01+000002SCOTLC
0108072800999991931110706004+47267+005083FM-12+022399999V0202501N00261004501CN0040001N9+00891+99999100631ADDAA199005091AY121999GF108991071061004501021999IA1109KA1999N+00891MW1611EQDQ01+000042APCTENQ02+000242APC3  
0037083140999991931071706004+39883+004267FM-12+004399999V0200201N00261220001CN0200001N9+02281+99999102381ADDAY101999GF101991011999012501999999
0074060210999991931052918004+57117+008600FM-12+004699999V0202301N00261002401CN0002001N9+01001+99999100901ADDAA199001091AY141999GF108991081051002501001001IA1089MD1310041+9999MW1451
0059030910999991931091313004+57167-002200FM-12+007199999V0202901N002619999999N0200001N9+01171+00281102561ADDGA1011+999999019GF106991041011012501011011MD1310041+9999
0065032620999991931012813004+55017-001417FM-12+003399999V0200201N004619999999N0040001N9+00561+00501100011ADDGA1011+999999019GF108991081061004501999999MD1310081+9999MW1601
0037161200999991931082406004+44400+008917FM-12+000299999V0201401N00261004501CN0040001N9+01781+99999101031ADDAY121999GF108991061999004501999999
0091031000999991931010607004+56483-006867FM-12+000999999V0201401N002619999999N0100001N9+00061-00281102631ADDGA1011+999999019GF108991001001999999091011IA1009KA1999M+00611KA2999N+00001MD1310101+9999
0057100670999991931112412004+54500+011250FM-12+000399999V0201401N00931002401CN0020001N9+00221+99999999999ADDAY121999GF108991081051002501999999MD1810061+9999MW1051
0057034970999991931011106004+52583+001717FM-12+000299999V0202501N00461004501CN0040001N9+00891+99999102371ADDAY121999GF108991081061004501001001IA1089MD1610061+9999
0070121160999991931060912004+54450+017000FM-12+001299999V0202701N00461002401CN0100001N9+01391+00721101091ADDAY121999GF108991081061002501999001MD1310061+9999EQDQ01+000002APC3  
0009726810241311931112712004+43567-116217SAO  +0874BOI  V0201351N000510090019N0192001N1-00311-00421999999ADDMW1001
0059036010999991931020413004+51683-005167FM-12+004399999V0202301N001019999999N0500001N9+00501-00111102571ADDGA1011+999999019GF107991001001999999091081MD1310021+9999
0102038560999991931012807004+50533-002450FM-12+001099999V0202901N015419999999N0200001N9+00781+00171101061ADDAA124999999GA1011+999999019GF102991021041008001041001IA1089KA1999M+01111KA2999N+00441MD1810061+9999
0051104880999991931012312004+51133+013767FM-12+007099999V0201601N00671012301CN0100001N9+00281-00111101631ADDAY121061GF107991071071012501001001MD1810181+9999
0061828990999991931010712004-08017-034850FM-12+006099999V0200901N002619999999N9999999N9+02781+99999101151ADDGF104991999999999999999999KA1999M+03001KA2999N+02611MW1111
0043103840999991931071111004+52483+013433FM-12+001799999V0202701N00461007801CN0200001N9+99999+99999999999ADDAY121999GF107991061081008001001999MW1161
0037260630999991931073018004+59983+030283FM-12+000599999V0201401N00671220001CN0100001N9+02221+99999101241ADDAY121999GF104991021999022501999999
0057072400999991931010112004+47417+000783FM-12+011299999V0202701N00461004501CN0100001N9+00891+99999098741ADDAY161999GF107991061091004501071999MD1410001+9999MW1621
0051040300999991931011606004+64150-021950FM-12+001699999V0202301N00461220001CN9999999N9+00111+99999097871ADDAY181061GF102991999999999999999999MD1810161+9999
0089075100999991931112106004+44833-000700FM-12+004899999V0209991C00001220001CN0040001N9+00281+99999102161ADDAY121999GF102991999001999999031001IA1089KA1999N+00111MD1310201+9999EQDQ01+000002SCOTLC
0061825860999991931072112004-05200-039300FM-12+019999999V0201401N002619999999N9999999N9+02501+99999101721ADDGF102991999999999999999999KA1999M+03001KA2999N+02391MW1111
0037107760999991931052012004+48983+012200FM-12+010199999V0200501N00931036001CN0100001N9+02111+01171099871ADDAY121061GF108991041031004501021999
0065037950999991931010313004+51083+001017FM-12+010499999V0200201N002619999999N0020001N9+00501+00441099231ADDGA1011+999999019GF108991081061002501999999MD1810081+9999MW1611
0057121140999991931062006004+54433+016383FM-12+000299999V0202301N00261004501CN0040001N9+01501+01441101571ADDAY121999GF108991081051004501001001IA1009MD1990021+9999
0057060110999991931092806004+62050-006750FM-12+002699999V0202701N00461001501CN0100001N9+01001+99999101711ADDAY121999GF108991081051001501001001IA1009MD1810041+9999
0065037660999991931062918004+51283-000750FM-12+006999999V0203401N001019999999N0200001N9+02001+00781102401ADDGA1011+999999019GF102991021011012501001091IA1009MD1810021+9999
0070021270999991931040706004+65067+017167FM-12+032899999V0203201N00101220001CN0500001N9-00611+99999100381ADDAY101999GF100991001001999999001001IA1319KA1999N-01221MD1310381+9999
0057025900999991931100406004+57650+018300FM-12+001199999V0203201N01231220001CN0500001N9+00781+99999101491ADDAY111999GF101991001001999999001011IA1009MD1310341+9999
0059039800999991931060913004+55367-007333FM-12+002699999V0201101N002619999999N0100001N9+01111+01061100271ADDGA1011+999999019GF107991071081004501001081MD1810021+9999
0037085450999991931121212004+41133-008667FM-12+002599999V0200701N00261220001CN0100001N9+01501+99999102631ADDAY101999GF100991001999999999999999
0037225500999991931031004004+64567+040517FM-12+001099999V0209991C000019999999N0040001N9-01611+99999101281ADDAY141999GF108991081999012501999999
0081125660999991931020618004+50083+019983FM-12+022299999V0200501N00461002401CN0010001N9-00391+99999102001ADDAA199001091AY171999GF108991081051002501001001IA1309KA1999M-00281MD1710081+9999
0070100910999991931101912004+54600+013233FM-12+000199999V0202301N00461220001CN0200001N9+00891+00281102241ADDAY111999GF100991001001999999001001MD1810301+9999EQDQ01+000042SCOTCV
0037074880999991931111306004+45167+005733FM-12+032499999V0209991C00001004501CN0100001N9+01281+99999102061ADDAY161999GF108991081999004501999999
0051105130999991931040112004+50983+006900FM-12+001599999V0201401N00671220001CN0200001N9+00891-00221102071ADDAY101061GF100991001001999999001001MD1810301+9999
0037163300999991931052006004+40467+017233FM-12+002299999V0201601N00461012301CN0200001N9+01891+99999100931ADDAY151999GF108991081999012501999999
0037070070999991931020812004+50867+001750FM-12+012399999V0201801N00931220001CN0040001N9+00391+99999101631ADDAY121999GF107991001001999999041999
0024990061999991931070522004+62000-033000SAO  +00004YA  V02099999999999999999N0000001N1+02911+02461999999ADDMA1999999100471MW1001
0024990061999991931032423004+62000-033000SAO  +00004YA  V02099999999999999999N0000001N1+01851+01691999999ADDMA1999999101191MW1001
0071037460999991931061118004+51167-001750FM-12+012699999V0202101N006719999999N0040001N9+01611+01561101591ADDGA1011+999999019GF108991071051002501021999IA1089MD1810021+9999MW1051
0043104810999991931102009004+51533+013233FM-12+002999999V0202301N00931220001CN0020001N9+99999+99999999999ADDAY101031GF104991001001999999081999MW1051
0037077470999991931070806004+42733+002867FM-12+004599999V0203201N00671220001CN0200001N9+01781+99999101971ADDAY101999GF102991999021999999041999
0087116430999991931012618004+50750+015733FM-12+049199999V0202901N01231000151CN0000001N9-00781-00831098571ADDAA199001091AY171999GF109991091999000251999999IA1319KA1999M-00721MD1310061+9999MW1731
0037600200999991931112618004+28467-016267FM-12+003799999V0209991C00001220001CN0500001N9+02221+99999102211ADDAY111999GF104991021999022501999999
0072838340999991931060812004-25400-051467FM-12+112099999V0209991C000019999999N9999999N9+01501+99999101781ADDAA124004091GF107991999999999999999999KA1999M+01891KA2999N+01391MW1111
0089010010999991931050618004+70983-008333FM-12+002399999V0202901N00461004501CN0500001N9-00111+99999102651ADDAA199000691AY121999GF107991071071004501999999IA1309EQDQ01+000032APCTENQ02+000002APC3  
0070021960999991931043012004+65833+024150FM-12+000999999V0201801N00461220001CN0500001N9+01501+99999101671ADDAY111999GF106991999001999999031001MD1610101+9999EQDQ01+000002SCOTLC
0037085120999991931052118004+37733-025667FM-12+002299999V0202701N00931002401CN0100001N9+01781+99999101551ADDAY111999GF108991081999002501999999
0078101700999991931103118004+54183+012100FM-12+000299999V0203601N00671030001CN0040001N9+00501-00281102401ADDAY121999GF106991021041004501051001IA1009EQDQ01+000042APCTENQ02+000182APC3  
0072833480999991931121412004-14800-039067FM-12+003999999V0200501N002619999999N9999999N9+02611+99999102001ADDAA124008091GF104991999999999999999999KA1999M+03001KA2999N+02221MW1111
0057104160999991931072006004+51533+007583FM-12+002199999V0202701N004619999999N0100001N9+01391+01171100371ADDAY161061GF108991021061002501999999MD1810021+9999MW1211
0051014270999991931121012004+58100+006567FM-12+000999999V0200901N00261220001CN0500001N9+00001+99999102151ADDAY121999GF107991001001999999011999MD1210081+9999
0070103840999991931082918004+52483+013433FM-12+001799999V0200501N00461004501CN0100001N9+01611+01331101961ADDAY121999GF108991071051004501021999IA1009KA1999M+01781MD1710041+9999
0068060410999991931081006004+57733+010633FM-12+000399999V0202901N00101220001CN0200001N9+01281+99999100061ADDAA199000391AY151999GF104991041021012501001001IA1009MD1110101+9999
0037080010999991931100406004+43383-008367FM-12+005799999V0209999999999220001CN0020001N9+99999+99999999999ADDAY111999GF102991999999999999999999
0102039660999991931061207004+53100-007900FM-12+005799999V0201801N001019999999N0200001N9+01221+01171101381ADDAA124999999GA1011+999999019GF108991081051008001999999IA1089KA1999M+01721KA2999N+01171MD1310161+9999
0037162400999991931082006004+41867+012550FM-12+005099999V0201601N00101220001CN0020001N9+02001+99999101331ADDAY111999GF100991001999999999999999
0102039520999991931051807004+51800-008250FM-12+000799999V0200901N004619999999N0200001N9+00941+00891100091ADDAA124999999GA1011+999999019GF104991021051008001001091IA1009KA1999M+01441KA2999N+00561MD1310061+9999
0051101270999991931061312004+53533+008150FM-12+000299999V0203601N00461220001CN0200001N9+01501+01061102211ADDAY111999GF104991021011012501011001MD1110081+9999
0084038940999991931062218004+49450-002550FM-12+010499999V0202901N001019999999N0100001N9+01781+01331102041ADDGA1011+999999019GF199999001001999999001001IA1009MD1810101+9999EQDQ01+000002SCOTCV
0061839950999991931071412004-11083-043167FM-12+040899999V0200501N009319999999N9999999N9+02391+99999101801ADDGF102991999999999999999999KA1999M+03001KA2999N+01891MW1111
0000226290999991931070706004+54917+023933FM-12+008399999V02099999999999999999N9999999N9+02221+99999101201
0065033010999991931020613004+53217-003000FM-12+005299999V0201401N002619999999N0010001N9+00331+00281101211ADDGA1011+999999019GF108991081061001501999999MD1310061+9999MW1611
0061835260999991931102912004-18167-047967FM-12+084099999V0200901N002619999999N9999999N9+02391+99999100941ADDGF100991999999999999999999KA1999M+03111KA2999N+01781MW1111
0065030560999991931091118004+56933-004233FM-12+035899999V0201801N001019999999N0040001N9+00781+00561101791ADDGA1011+999999019GF108991081011002501999999IA1089MD1810041+9999
0024990061999991931011808004+62000-033000SAO  +00004YA  V02099999999999999999N0000001N1+01411+00301999999ADDMA1999999101831MW1001
0061833610999991931061112004-15583-056100FM-12+016599999V0201801N002619999999N9999999N9+01721+99999102081ADDGF107991999999999999999999KA1999M+02001KA2999N+01611MW1111
0087039730999991931042406004+54100-010067FM-12+000599999V0200901N00671220001CN0200001N9+00781+99999098911ADDAA199000691AY121999GF108991999001999999071001IA1009MD1810121+9999EQDQ01+000002SCOTLC
0102262100999991931092206004+58383+021817FM-12+000799999V0203601N00931007801CN0040001N9+00781+99999101311ADDAA199004091AY161999GF107991071061008001999999IA1089KA1999N+00501EQDQ01+000032APCTENQ02+000002APC3  
0065034970999991931062718004+52583+001733FM-12+000299999V0202901N002619999999N0040001N9+02441+01171102561ADDGA1011+999999019GF102991021011017501001001IA1009MD1810101+9999
0009726810241311931052921004+43567-116217SAO  +0874BOI  V0203151N002112200019N1600001N1+02571-00091999999ADDMW1001
0091021960999991931050418004+65833+024150FM-12+000999999V0202001N00261220001CN0500001N9+00501+99999101751ADDAY101999GF101991001001999999001011IA1089KA1999M+01281EQDQ01+000032APCTENQ02+000002APC3  
0076115190999991931011418004+50067+014433FM-12+025499999V0202501N00261220001CN0010001N9-00281+99999100941ADDAY121999GF102991021001008001001001IA1159KA1999M-00281MD1310201+9999MW1101
0118021270999991931062118004+65067+017167FM-12+032899999V0209991C00001012301CN0200001N9+00891+99999099801ADDAA199000591AY151999GF108991999051012501021001IA1089KA1999M+01391EQDQ01+000082SCOTLCQ02+000032APCTENQ03+000002APC3  
0102030260999991931113007004+58217-006333FM-12+000399999V0202001N004619999999N0200001N9+00781+00721102171ADDAA199000091GA1011+999999019GF104991021051008001041001IA1009KA1999M+00941KA2999N+00221MD1810021+9999
0076062800999991931061206004+53217+006550FM-12+001099999V0202301N004619999999N0020001N9+01721+99999101671ADDAY111999GF107991041999999999999999IA1009KA1999N+01221MD1110041+9999MW1051
0091034970999991931091107004+52583+001733FM-12+000299999V0202901N002619999999N0040001N9+00671+00611102121ADDGA1011+999999019GF104991041011017501051001IA1009KA1999M+01721KA2999N+00671MD1310041+9999
0024990061999991931020223004+62000-033000SAO  +00004YA  V02099999999999999999N0000001N1+02131+01961999999ADDMA1999999100911MW1001
0071031400999991931111018004+55867-004433FM-12+000699999V0201401N002619999999N0040001N9+00831+00781096841ADDGA1011+999999019GF108991071061004501021999IA1089MD1810061+9999MW1621
0102264220999991931102406004+56983+024083FM-12+000299999V0201401N00461024001CN0010001N9+00221+99999099931ADDAA199000591AY121999GF108991081001999999021999IA1089KA1999N+00111EQDQ01+000032APCTENQ02+000002APC3  
0043115190999991931111912004+50067+014433FM-12+025499999V0201101N00261012301CN0020001N9+00281+99999102741ADDAY121999GF107991071051012501999999MW1101
0067103930999991931100606004+52200+014117FM-12+003299999V0202001N00261007801CN0040001N9+01281+01221102191ADDAA199000691AY121061GF108991081051008001999999IA1009KA1999N+01001
0065038040999991931111001004+49933-006300FM-12+005099999V0202401N015419999999N0100001N9+01171+00721097911ADDGA1011+999999019GF106991061081008001001001MD1810161+9999MW1161
0051010980999991931082312004+70367+031100FM-12+001299999V0201601N00461220001CN0500001N9+01281+99999100411ADDAY151999GF100991001001999999001001MD1310061+9999
0091103840999991931083006004+52483+013433FM-12+001799999V0200501N00261004501CN0100001N9+01501+01281101871ADDAY121999GF108991061051004501011999IA1009KA1999N+01391EQDQ01+000032APCTENQ02+000002APC3  
0071038880999991931041107004+50917+000967FM-12+000699999V0200901N001019999999N0100001N9+99999+99999999999ADDGA1011+999999019GF108991081051000251999999KA1999M+01111KA2999N+00331
0068010010999991931021206004+70983-008300FM-12+002399999V0203401N00261220001CN0100001N9-00111+99999097611ADDAA199000591AY101999GF102991021071004501001001IA1309MD1310221+9999
0037083140999991931030718004+39883+004267FM-12+004399999V0202501N00461220001CN0100001N9+01501+99999099331ADDAY111999GF104991041999022501999999
0091030560999991931092507004+56933-004233FM-12+035899999V0209991C000019999999N0200001N9+00831+00781103741ADDGA1011+999999019GF108991021051008001041999IA1009KA1999M+01331KA2999N+00831MD1310081+9999
0043113090999991931080706004+46967+009917FM-12+043899999V0209991C00001012301CN0040001N9+99999+99999999999ADDAY161061GF108991081061012501999999MW1631
0043040060999991931081018004+66167-023217FM-12+000699999V0202701N004619999999N9999999N9+01611+99999101261ADDAY121061GF109991091999999999999999MW1451
0070264470999991931092218004+56783+027733FM-12+012099999V0202501N00261220001CN0100001N9+00611+99999101171ADDAY111999GF104991041051008001001001IA1009KA1999M+01111MD1310121+9999
0108024640999991931030618004+59350+017950FM-12+001099999V0200501N00671007801CN0020001N9-00611+99999101771ADDAA199001091AY171999GF108991081061008001001001IA1319KA1999M-00501MW1711EQDQ01+000042APCTENQ02+000202APC3  
0037011060999991931080918004+67500+012067FM-12+001199999V0203601N00931220001CN0500001N9+00891+99999100461ADDAY111999GF104991021021017501001999
0074060210999991931062206004+57117+008600FM-12+004699999V0202301N00671007801CN0010001N9+01221+99999100431ADDAA199001091AY121999GF108991081061008001001001IA1089MD1810241+9999MW1621
0057071100999991931112612004+48283-004433FM-12+009799999V0202701N01541004501CN0040001N9+00891+99999099671ADDAY161999GF108991061061004501021999MD1510321+9999MW1631
0051100030999991931081106004+53867+007933FM-12+999999999V0203401N00461220001CN0200001N9+01501+00831999999ADDAY111999GF104991041081012501001001MD1310141+9999
0072836840999991931092712004-21850-045300FM-12+096099999V0201401N002619999999N9999999N9+02111+99999101581ADDAA124001091GF107991999999999999999999KA1999M+02501KA2999N+01501MW1051
0102037660999991931013007004+51283-000750FM-12+006999999V0202901N006719999999N0100001N9+00331-00061100371ADDAA124999999GA1011+999999019GF108991081051004501999999IA1089KA1999M+00831KA2999N+00331MD1310161+9999
0051066300999991931021912004+46950+007483FM-12+057299999V0202701N00101220001CN0100001N9+00111+99999101031ADDAY121999GF104991021081012501051001MD1110081+9999
0081103080999991931121106004+52417+007067FM-12+000999999V0200501N00101220001CN0040001N9-00111-00441102791ADDAA199000691AY101999GF100991001001999999001001IA1139KA1999N-00221MD1310381+9999
0061821910999991931102212004-01467-048450FM-12+001099999V0200501N002619999999N9999999N9+02781+99999101351ADDGF104991999999999999999999KA1999M+03281KA2999N+02221MW1111
0029875850999991931092212004-34583-058317FM-12+002599999V0200501N002619999999N9999999N9+01281+99999103191ADDGF100991999999999999999999
0037084530999991931012818004+36467-006200FM-12+002899999V0202701N001019999999N0100001N9+01391+99999102051ADDAY111999GF106991041999999999999999
0081330080999991931042806004+52067+023533FM-12+014099999V0202501N00261030001CN0040001N9+01221+00781100591ADDAA199011091AY181999GF106991041041008001011061IA1089KA1999N+00611MD1110061+9999
0070105540999991931080518004+51017+011033FM-12+005699999V0200901N00261220001CN0200001N9+02781+01781101191ADDAY101061GF101991011011017501001001IA1009KA1999M+03221MD1990081+9999
0108030260999991931071207004+58217-006333FM-12+000399999V0200501N002619999999N0040001N9+01281+01221100561ADDAA199007091GA1011+999999019GF107991041051004501021999IA1089KA1999M+01331KA2999N+00831MD1810201+9999MW1801
0076011060999991931012606004+67500+012067FM-12+001199999V0201601N015419999999N0200001N9+00281+99999098831ADDAY121999GF108991999001017501021999IA1189MD1210221+9999EQDQ01+000002SCOTLC
0048838620999991931110612004-26850-052400FM-12+080199999V0209991C000019999999N9999999N9+01781+99999101661ADDGF100991999999999999999999KA1999N+00501MW1111
0037085120999991931071206004+37733-025667FM-12+002299999V0209991C00001220001CN0500001N9+01721+99999102341ADDAY101999GF102991021999012501999999
0009726810241311931101006004+43567-116217SAO  +0874BOI  V0201351N001512200019N0320001N1+01021+00301999999ADDMW1001
0078060210999991931123106004+57117+008600FM-12+004699999V0203201N00461220001CN0200001N9+00221+99999100831ADDAY101999GF104991011061008001081001IA1309EQDQ01+000032APCTENQ02+000002APC3  
0059033960999991931072913004+53583-000117FM-12+000999999V0202501N006719999999N0100001N9+01721+01061101341ADDGA1011+999999019GF107991041041012501011999MD1810021+9999
0059038110999991931050513004+50133-005033FM-12+006199999V0201901N015419999999N0200001N9+01111+00891100951ADDGA1011+999999019GF106991041081012501031011MD1310021+9999
0051164200999991931090712004+38200+015550FM-12+005499999V0203201N00261220001CN0200001N9+02721+99999101811ADDAY101999GF101991011011012501001001MD1810061+9999
0057014820999991931093006004+59033+010533FM-12+000999999V0202501N00461012301CN0200001N9+01001+99999101691ADDAY101999GF107991071081012501001999IA1009MD1310041+9999
0051132750999991931091112004+44817+020417FM-12+013899999V0202501N00101220001CN0200001N9+02611+00941101701ADDAY101999GF104991011011017501001041MD1710101+9999
0068061930999991931071606004+55283+014767FM-12+007799999V0202501N00261000151CN0000001N9+01281+99999100191ADDAA199021091AY141999GF109991091051000251001001IA1089MD1810201+9999
0029108060999991931111106004+48067+008733FM-12+020199999V0202301N00461220001CN0100001N9+99999+99999999999ADDGF104991041091008001999999
0070108650999991931050306004+48183+011550FM-12+015599999V0200901N00261036001CN0500001N9+00891+00671099931ADDAY121061GF107991041051012501011999IA1009KA1999N+00501MD1710101+9999
0061827940999991931030312004-07550-034817FM-12+001599999V0200501N002619999999N9999999N9+02891+99999101381ADDGF104991999999999999999999KA1999M+03001KA2999N+02001MW1111
0076105440999991931041006004+50500+009933FM-12+028299999V0202501N00461002401CN0100001N9+00501-00281100151ADDAY121061GF108991061061002501021999IA1089KA1999N+00501MD1810021+9999MW1631
0070101270999991931022212004+53533+008150FM-12+000299999V0203201N00461220001CN0100001N9+00391+00171101661ADDAY111999GF104991999001999999071001MD1110081+9999EQDQ01+000002SCOTLC
0051103610999991931051512004+52133+011717FM-12+001499999V0201801N00261220001CN0200001N9+02281+01061101331ADDAY101999GF104991041011008001001011MD1710161+9999
0057101200999991931090118004+54183+007883FM-12+001599999V0202701N00461002401CN0100001N9+01501+01281999999ADDAY111999GF106991061081002501001999IA1009MD1810021+9999
0091029110999991931092606004+63083+021617FM-12+000999999V0200501N00671220001CN0200001N9+00391+99999102241ADDAY111999GF102991021051022501001001IA1009KA1999N+00221EQDQ01+000032APCTENQ02+000002APC3  
0059030050999991931042713004+60133-001183FM-12+008399999V0201401N002619999999N0100001N9+00721+00501100251ADDGA1011+999999019GF108991041051004501021999MD1310081+9999
0072123300999991931051218004+52417+016833FM-12+009999999V0202001N00101030001CN0100001N9+01891+01221101911ADDAY111999GF106991041031008001061001EQDQ01+000032APCTENQ02+000002APC3  
0071033790999991931042618004+53033-000500FM-12+006299999V0202701N006719999999N0040001N9+00671+00611099171ADDGA1011+999999019GF108991061061004501021999IA1089MD1310121+9999MW1621
0068060110999991931081518004+62050-006750FM-12+002699999V0203601N00671007801CN0100001N9+01001+99999999999ADDAA199008091AY121999GF108991081051008001001001IA1009MD1810061+9999
0087101470999991931011206004+53633+010000FM-12+000599999V0202301N00931002401CN0020001N9+00281+00221100641ADDAA199005091AY161999GF108991081061002501999999IA1089KA1999N+00001MD1610201+9999MW1611
0037161700999991931053006004+43800+011200FM-12+007399999V0209991C00001220001CN0040001N9+02221+99999100951ADDAY101999GF102991001999999999999999
0127033110999991931121007004+53317-004617FM-12+000899999V0203001N012319999999N0200001N9+01111+01061102751ADDAA199999999GA1011+999999019GF108991081051002501999999IA1089KA1999M+01061KA2999N+01001MD1810041+9999MW1201EQDQ01  00002PRCP99
0065036270999991931082018004+51917-002583FM-12+006899999V0202701N006719999999N0200001N9+01501+01061099281ADDGA1011+999999019GF106991061081012501061081IA1089MD1310261+9999
0025726810241311931061800004+43567-116217SAO  +0874BOI  V0203151N002112200019N1600001N1+02131+99999999999ADDGA1999+024009999MW1001
0068010050999991931093006004+78067+013633FM-12+000899999V0201401N002619999999N0500001N9+00501+99999099271ADDAA199003091AY161999GF107991021061008001021001IA1199MD1810101+9999
0009726810241311931021710004+43567-116217SAO  +0874BOI  V0201351N004610300019N1600001N1+00741+99999999999ADDMW1001
0043010280999991931070806004+74467+019283FM-12+002999999V0201101N00261000151CN0000001N9+00221+99999101461ADDAY141999GF109991091999999999999999MW1451
0061838600999991931042412004-26317-051817FM-12+108999999V0209991C000019999999N9999999N9+01221+99999101961ADDGF100991999999999999999999KA1999M+01891KA2999N+00391MW1111
0043107760999991931011406004+48983+012200FM-12+010199999V0209991C00001004501CN0010001N9-01001+99999100551ADDAY121061GF108991081051004501999999MW1101
0087012620999991931021018004+64800+010550FM-12+003799999V0202301N00671220001CN0500001N9+00391+99999098001ADDAA199005091AY161999GF101991999001999999021001IA1089MD1610041+9999EQDQ01+000002SCOTLC
0051132750999991931111212004+44817+020417FM-12+013899999V0201801N00101012301CN0200001N9+01781+00561100991ADDAY111999GF106991061051012501999999MD1990141+9999
0043133340999991931050506004+43517+016433FM-12+012899999V0200901N00261220001CN0040001N9+01721+99999101501ADDAY101999GF101991001999999999999999MW1051
0051121500999991931050512004+54383+018600FM-12+000599999V0203401N00461030001CN0100001N9+01391+00941101871ADDAY111999GF106991041071008001031001MD1310101+9999
0081076020999991931021118004+43383-001750FM-12+002999999V0202901N004619999999N0040001N9+00891+99999103231ADDAA199000391AY101999GF106991999091008001001001MD1810101+9999EQDQ01+000042SCOTLC
0070128400999991931080906004+47517+019017FM-12+013099999V0209991C00001220001CN0100001N9+02001+01561101011ADDAY101999GF100991001001999999001001IA1009KA1999N+01721MD1310021+9999
0123033480999991931051407004+53983-001550FM-12+014699999V0201801N004619999999N0100001N9+01061+00831100621ADDAA199000091GA1011+999999019GF107991071061008001999999IA1089KA1999M+01501KA2999N+00891EQDQ01+000032APCTENQ02+000002APC3  
0061834920999991931030912004-17767-041433FM-12+032999999V0203201N002619999999N9999999N9+02611+99999101071ADDGF107991999999999999999999KA1999M+03111KA2999N+02221MW1111
0043085060999991931030818004+38533-028633FM-12+006599999V0202701N01231007801CN0100001N9+01501+99999099581ADDAY171999GF106991061999008001999999MW1801
0087077470999991931030218004+42733+002867FM-12+004599999V0200901N00261004501CN0040001N9+00611+99999101461ADDAA199002091AY161999GF108991081001004501021999IA1089KA1999M+01001MD1710081+9999MW1631
0108038110999991931052407004+50133-005033FM-12+006199999V0201901N015419999999N0100001N9+01061+01001100571ADDAA199007091GA1011+999999019GF108991041061008001021999IA1089KA1999M+01281KA2999N+01061MD1310021+9999MW1211
0051061800999991931052012004+55617+012650FM-12+000599999V0203601N00261220001CN0100001N9+01221+99999101341ADDAY101999GF102991001001999999001081MD1310061+9999
0070064510999991931050906004+50883+004417FM-12+005599999V0203201N00261001501CN0040001N9+00891+99999101961ADDAY141999GF108991071051001501021999IA1089KA1999N+00781MD1310061+9999
0043105100999991931111306004+50350+006950FM-12+018999999V0202701N00461220001CN0000501N9+00281+99999101401ADDAY141061GF100991001001999999001001MW1421
0108125390999991931060118004+50267+018667FM-12+007599999V0202901N00101030001CN0040001N9+01501+01441101151ADDAA199000391AY181999GF107991041061004501041999IA1089KA1999M+02391MW1251EQDQ01+000042APCTENQ02+000062APC3  
0057010050999991931120618004+78067+013633FM-12+000899999V0209991C000019999999N9999999N9-01001+99999099181ADDAY121999GF108991999999999999999999IA1309MD1310081+9999
0051023610999991931021212004+62617+017950FM-12+000999999V0201801N00461002401CN0200001N9+00111+99999100231ADDAY121999GF108991081061002501001001MD1310101+9999
0051010280999991931120412004+74467+019283FM-12+002899999V0202301N004619999999N0500001N9-00111+99999097041ADDAY101999GF106991041031008001011001MD1990121+9999
0037161700999991931061006004+43800+011200FM-12+007399999V0209991C00001220001CN0040001N9+02111+99999101911ADDAY101999GF102991001999999999999999
0087064510999991931102906004+50883+004417FM-12+005599999V0202701N00261030001CN0020001N9+00391+99999101741ADDAA199000691AY121999GF107991041021008001041071IA1109KA1999N+00221MD1310101+9999MW1101
0091039280999991931082807004+54650-005533FM-12+001299999V0201401N002619999999N0040001N9+01281+01061102541ADDGA1011+999999019GF106991041051004501031001IA1009KA1999M+01561KA2999N+01281MD1310081+9999
0087226290999991931042906004+54917+023933FM-12+008399999V0209991C00001004501CN0010001N9+00781+99999100931ADDAA199011091AY161999GF108991081999004501999999IA1109KA1999N+00721MD1210041+9999MW1631
0057123750999991931032712004+52183+020967FM-12+013399999V0203401N002619999999N0020001N9+00501+99999102501ADDAY141999GF107991011051008001021001MD1810061+9999MW1051
0072838740999991931122512004-26250-048667FM-12+001199999V0202301N002619999999N9999999N9+02281+99999101181ADDAA124010091GF107991999999999999999999KA1999M+02891KA2999N+02111MW1601
0037225500999991931030304004+64567+040517FM-12+001099999V0200901N002619999999N0040001N9-01781+99999100021ADDAY121999GF108991081999012501999999
0070105130999991931051318004+50983+006900FM-12+001599999V0209991C00001220001CN0200001N9+02111+01441101571ADDAY111061GF104991011011012501071001IA1009KA1999M+02501MD1810101+9999
0059033790999991931101413004+53033-000500FM-12+006299999V0203401N004619999999N0200001N9+01221+00611103531ADDGA1011+999999019GF104991041011008001001091MD1310081+9999
0057040480999991931020606004+63400-020283FM-12+012299999V0202001N006719999999N9999999N9+00001+99999099241ADDAY181061GF108991999011999999999999MD1110061+9999MW1891
0037160800999991931012806004+45883+009283FM-12+011999999V0203201N00101220001CN0020001N9-00221+99999101771ADDAY111999GF104991021999004501999999
0108103380999991931110806004+52417+009750FM-12+001699999V0201801N00101030001CN0020001N9+00611+00561100591ADDAA199000691AY121999GF108991041051022501021999IA1009KA1999N+00391MW1601EQDQ01+000042APCTENQ02+000022APC3  
0059038110999991931062001004+50133-005033FM-12+006199999V0203501N006719999999N0100001N9+01221+01171101681ADDGA1011+999999019GF106991041051012501011001MD1310181+9999
0070076870999991931120918004+43717+007217FM-12+000399999V0203401N00261220001CN0040001N9+01001+99999101581ADDAY121999GF104991021051008001031001IA1009KA1999M+01111MD1310041+9999
0037085360999991931012712004+38733-009183FM-12+022799999V0203201N00461220001CN0020001N9+01611+99999102831ADDAY111999GF104991001999999999999999
0059030910999991931021213004+57167-002200FM-12+007199999V0203201N009319999999N0200001N9+00561-00061098751ADDGA1011+999999019GF102991021081008001001031MD1310261+9999
0081077470999991931112318004+42733+002867FM-12+004599999V0209991C00001220001CN0040001N9+01111+99999101911ADDAA199010091AY121999GF104991011011004501041021IA1089KA1999M+01611MD1710061+9999
0076267020999991931070500004+54733+020567FM-12+000999999V0200201N00101220001CN0100001N9+01391+01331101281ADDAY111999GF104991999001022501071011MD1010021+9999MW1121EQDQ01+000002SCOTLC
0037076870999991931102912004+43717+007217FM-12+000399999V0202701N00461220001CN0100001N9+01781+99999101191ADDAY101999GF102991011011008001041061
0057061930999991931072312004+55283+014767FM-12+007799999V0202301N00261220001CN0040001N9+01611+99999102081ADDAY141999GF104991041051002501001001MD1310141+9999MW1051
0070103840999991931062121004+52483+013433FM-12+001799999V0202301N00101220001CN0200001N9+01391+00941102201ADDAY101999GF100991001001999999001001MD1310061+9999EQDQ01+000002APC3  
0009726810241311931110420004+43567-116217SAO  +0874BOI  V0203151N001512200019N0240001N1+01691+99999999999ADDMW1001
0057104680999991931042809004+51833+012200FM-12+001899999V0203201N00261004501CN0200001N9+00781+00391100561ADDAY181031GF108991071091004501999999MD1310081+9999MW1271
0127033230999991931013107004+53350-002883FM-12+002499999V0201101N006719999999N0100001N9+00111+00061101491ADDAA199999999GA1011+999999019GF108991081051004501999999IA1159KA1999M+00391KA2999N+00061MD1810221+9999MW1681EQDQ01  00002PRCP99
0059039520999991931121213004+51800-008250FM-12+000799999V0203201N002619999999N0200001N9+00831+00781103821ADDGA1011+999999019GF106991061051004501001001MD1810041+9999
0037082210999991931111306004+40467-003567FM-12+060099999V0203401N00671220001CN0100001N9+00611+99999101621ADDAY101999GF100991001999999999999999
0145037660999991931111707004+51283-000750FM-12+006999999V0200901N004619999999N0002001N9+00171+00111102781ADDAA124999999GA1011+999999019GF108991081051000751999999IA1089KA1999M+00781KA2999N+00171MW1441EQDQ01+000032APCTENQ02+000002APC3  Q03+000452PRSWM1
0029875850999991931042712004-34583-058317FM-12+002599999V0200501N009319999999N9999999N9+01501+99999101221ADDGF107991999999999999999999
0070024640999991931020418004+59350+017950FM-12+001099999V0200501N00101012301CN0040001N9-00501+99999103591ADDAY121999GF108991081051012501001001IA1319KA1999M-00281MD1310041+9999
0070073150999991931090106004+45917-000983FM-12+000499999V0209991C00001220001CN0040001N9+01611+99999101981ADDAY111999GF101991001001999999001011IA1089KA1999N+01501MD1310041+9999
0051100020999991931112106004+53767+006067FM-12+999999999V0201601N006719999999N0100001N9+00501+00441999999ADDAY121999GF107991999001999999071001MD1310021+9999
0037082210999991931122606004+40467-003567FM-12+060099999V0200201N00461004501CN0010001N9+00501+99999102571ADDAY121999GF108991081999004501999999
0057265090999991931080906004+55700+021133FM-12+000199999V0201401N00671220001CN0040001N9+01891+01441100701ADDAY111999GF106991001001999999021091IA1009MD1810041+9999
0102031000999991931031307004+56483-006867FM-12+000999999V0202001N004619999999N0200001N9+00391+00331099661ADDAA199005091GA1011+999999019GF107991041081008001071081IA1089KA1999M+00611KA2999N+00281MD1810101+9999
0037077470999991931062018004+42733+002867FM-12+004599999V0203201N00671036001CN0200001N9+02281+99999101751ADDAY121999GF107991011011017501071999
0108039730999991931101107004+54100-010067FM-12+000599999V0209991C000019999999N0100001N9+01171+00941102151ADDAA124999999GA1011+999999019GF108991081061000251999999IA1089KA1999M+01441KA2999N+01061MD1310061+9999MW1631
0056109610999991931111618004+47417+010983FM-12+090399999V0201401N00461007801CN0500001N9-00501-00671100441ADDAY101061GF107991071001008001071001IA1309KA1999M-00281
0075074810999991931072918004+45733+004917FM-12+019899999V0203601N004619999999N0500001N9+02001+99999101861ADDAA199002091AY101999GF199999011011008001041001KA1999M+02001MD1510061+9999
0043010280999991931042306004+74467+019283FM-12+002999999V0202501N00671007801CN0500001N9+00281+99999099971ADDAY121999GF107991071081008001999999MW1161
0061837290999991931041312004-22900-047067FM-12+066599999V0201801N009319999999N9999999N9+01781+99999101681ADDGF102991999999999999999999KA1999M+02391KA2999N+01721MW1111
0051076310999991931041012004+43550+001383FM-12+016499999V0200201N00261220001CN0100001N9+02221+99999101701ADDAY101999GF100991001001999999001001MD1810141+9999
0073111200999991931102806004+47283+011417FM-12+058299999V0200901N00261000151CN0005001N9+00221+99999101291ADDAA199000691AY161061GF108991081051000251999999IA1089KA1999N+00221MW1601
0057100030999991931011512004+53867+007933FM-12+999999999V0202501N01231007801CN0020001N9+00221+00171999999ADDAY121999GF108991081061008001999999MD1810341+9999MW1511
0037106550999991931070412004+49800+009967FM-12+008199999V0202501N00461036001CN0200001N9+02221+01781101001ADDAY121061GF107991041021008001071999
0070121160999991931020312004+54450+017000FM-12+001299999V0200501N00261007801CN0040001N9-00281-00441102151ADDAY121999GF107991071051008001999999MD1410001+9999EQDQ01+000032APCTEN
0081123750999991931090818004+52183+020967FM-12+013399999V0202501N00101007801CN0040001N9+01001+99999101311ADDAA199000591AY111999GF107991071081008001001001IA1089KA1999M+01281MD1310061+9999
0057076310999991931102712004+43550+001383FM-12+016499999V0202901N00461220001CN0100001N9+00501+99999101501ADDAY121999GF104991041021008001999999MD1990081+9999MW1131
0057100010999991931092712004+53600+006700FM-12+000499999V0202701N00931002401CN0040001N9+01221+01171102461ADDAY111999GF108991081031002501999999MD1990361+9999MW1601
0087262100999991931120106004+58383+021817FM-12+000799999V0200901N00101002401CN0020001N9-00111+99999102811ADDAA199000691AY121999GF108991081061002501999999IA1139KA1999N-00111MD1310101+9999MW1711
0072101700999991931053112004+54183+012100FM-12+000299999V0200201N00671220001CN0100001N9+01281+01061100501ADDAY101999GF104991001001999999021021EQDQ01+000082APCTENQ02+000002APC3  
0057030050999991931082818004+60150-001133FM-12+004899999V0209991C000019999999N0040001N9+01281+99999102701ADDAY111999GF107991041051004501041011IA1009MD1210021+9999
0009726810241311931053017004+43567-116217SAO  +0874BOI  V0202701N001012200019N1600001N1+02461+99999999999ADDMW1001
0051071900999991931101012004+48550+007633FM-12+015499999V0202001N00101036001CN0100001N9+02221+99999102461ADDAY121999GF106991041011012501041021MD1810061+9999
0072834920999991931071912004-17767-041433FM-12+032999999V0200901N002619999999N9999999N9+01781+99999102191ADDAA124002091GF107991999999999999999999KA1999M+02501KA2999N+01391MW1111
0111265090999991931041506004+55700+021133FM-12+000199999V0203201N00261002401CN0005001N9+00111+00061999999ADDAA199003091AY171999GF108991081061002501001999IA1009MW1721EQDQ01+000001APOSP Q02+000082APCTENQ03+000002APC3  
0057040480999991931122806004+63400-020283FM-12+012299999V0203601N01901220001CN9999999N9-00611+99999101031ADDAY101061GF104991001001999999021999MD1210201+9999MW1711
0057011060999991931051806004+67500+012067FM-12+001199999V0203601N00931015001CN0500001N9+00391+99999100701ADDAY121999GF107991061051017501021001IA1009MD1410001+9999
0087121160999991931071606004+54450+017000FM-12+001299999V0202001N00261004501CN0100001N9+01391+01171100261ADDAA199013091AY161999GF108991081061004501999999IA1009KA1999N+01281MD1310021+9999MW1211
0072825860999991931021112004-05200-039300FM-12+019999999V0201401N002619999999N9999999N9+02501+99999101221ADDAA124001091GF107991999999999999999999KA1999M+03001KA2999N+02391MW1111
0057043350999991931061712004+73483-021567FM-12+000399999V0200901N00261220001CN0100001N9+00111+99999102391ADDAY141061GF100991999001999999001001MD1810061+9999MW1281
0051333930999991931052406004+49817+023950FM-12+033099999V0200201N00461220001CN0040001N9+01721+01281102301ADDAY101999GF102991001001999999001011MD1310201+9999
0009726810241311931082110004+43567-116217SAO  +0874BOI  V0201351N002610240019N0320001N1+01851+99999999999ADDMW1001
0051267020999991931092800004+54733+020567FM-12+000999999V0201401N00261004501CN0100001N9+00391+00331100861ADDAY121999GF108991061051004501021999MD1810021+9999
0059030750999991931032413004+58450-003083FM-12+003699999V0200501N002619999999N0200001N9+00721+00331103561ADDGA1011+999999019GF106991021011012501001081MD1310101+9999
0084035220999991931060418004+51850-001550FM-12+018799999V0200901N004619999999N0100001N9+01891+01441101531ADDGA1011+999999019GF199999001001999999001001IA1009MD1810101+9999EQDQ01+000002SCOTCV
0045038880999991931050213004+50917+000967FM-12+000699999V0200701N004619999999N0100001N9+99999+99999999999ADDGA1011+999999019GF106991041071012501061001
0057012620999991931120712004+64800+010550FM-12+003799999V0203601N00461007801CN0500001N9+00111+99999100711ADDAY121999GF107991061051008001021999MD1310201+9999MW1161
0089071900999991931021506004+48550+007633FM-12+015499999V0209991C00001220001CN0040001N9-00281+99999101381ADDAY101999GF102991999001999999031001IA1139KA1999N-00281MD1310101+9999EQDQ01+000002SCOTLC
0037040970999991931091318004+65267-013583FM-12+000899999V0209991C000019999999N9999999N9+01281+99999100761ADDAY111061GF106991999999999999021999
0061837430999991931070312004-22900-043167FM-12+002099999V0203201N002619999999N9999999N9+02221+99999102031ADDGF102991999999999999999999KA1999M+02891KA2999N+01891MW1111
0043782593999991931010316004+20450-076633FM-12+010199999V0200701N00461004501CN0500001N9+02721+99999999999ADDAY111999GF107991061999004501999999MW1021
0065031400999991931060113004+55867-004433FM-12+000699999V0200701N004619999999N0040001N9+01281+01061101071ADDGA1011+999999019GF108991081091004501999999MD1310081+9999MW1601
0051103840999991931050909004+52483+013433FM-12+001799999V0202501N00671007801CN0100001N9+01221+00781101481ADDAY121999GF108991081051008001999999MD1310101+9999
0108115180999991931090718004+50100+014283FM-12+037199999V0202901N00461220001CN0200001N9+01221+99999101661ADDAA199000691AY161999GF102991021051012501061001IA1009KA1999M+01391MW1211EQDQ01+000042APCTENQ02+000022APC3  
0024990061999991931080719004+62000-033000SAO  +00004YA  V02099999999999999999N0000001N1+03021+02571999999ADDMA1999999099801MW1001
0116031400999991931062507004+55867-004433FM-12+000699999V0209991C000019999999N0020001N9+01001+00781102831ADDGA1011+999999019GF199999001001999999001001IA1089KA1999M+01671KA2999N+00331MD1310061+9999MW1121EQDQ01+000002SCOTCV
0065030050999991931061613004+60133-001183FM-12+008399999V0201701N002619999999N0040001N9+01111+01061100301ADDGA1011+999999019GF108991081061001501999999MD1810061+9999MW1601
0068010100999991931100218004+69333+016133FM-12+000799999V0201801N006719999999N0500001N9+00611+99999097961ADDAA199001091AY111999GF106991041051012501061031IA1089MD1810101+9999
0009726810241311931011817004+43567-116217SAO  +0874BOI  V0203151N001012200019N0048001N1-00421+99999999999ADDMW1451
0065031400999991931040718004+55867-004433FM-12+000699999V0201601N004619999999N0100001N9+01061+00611100691ADDGA1011+999999019GF108991081051012501999999IA1089MD1310041+9999
0102031710999991931113007004+56383-002883FM-12+001199999V0202701N002619999999N0040001N9+00281+00221102481ADDAA199002091GA1011+999999019GF107991001001999999031061IA1089KA1999M+00831KA2999N+00171MD1310161+9999
0076111200999991931112106004+47283+011417FM-12+058299999V0209991C00001000151CN0002001N9+00111+99999102171ADDAY141061GF109991091051000251999999IA1009KA1999N+00111MD1110141+9999MW1471
0037084530999991931072618004+36467-006200FM-12+002899999V0202901N00261220001CN0100001N9+02501+99999101421ADDAY101999GF100991001999999999999999
0070071800999991931110206004+48700+006233FM-12+023699999V0209991C00001220001CN0020001N9-00221+99999103131ADDAY101999GF100991001001999999001001IA1139KA1999N-00221MD1310021+9999
0065036970999991931090818004+51950+001333FM-12+000399999V0201801N004619999999N0200001N9+01281+00611101881ADDGA1011+999999019GF104991021071012501001011IA1009MD1810061+9999
0024990061999991931081420004+62000-033000SAO  +00004YA  V02099999999999999999N0000001N1+02851+02571999999ADDMA1999999099631MW1001
0074121140999991931010618004+54433+016383FM-12+000299999V0203201N00671001501CN0010001N9-00221-00391101261ADDAA199002091AY171999GF108991081061001501999999IA1309MD1210261+9999MW1701
0087070280999991931102618004+49517+000117FM-12+001799999V0200501N00261220001CN0010001N9+00721+99999102491ADDAA199000691AY101999GF101991011041012501001001IA1009KA1999M+01111MD1310141+9999MW1101
0127033480999991931102007004+53983-001550FM-12+014699999V0203501N012319999999N0100001N9+00441+00221999999ADDAA199999999GA1011+999999019GF107991061061008001081999IA1089KA1999M+01001KA2999N+00441MD1310101+9999MW1801EQDQ01  00002PRCP99
0056107270999991931053018004+49017+008383FM-12+003599999V0200201N00101036001CN0200001N9+02391+01721100521ADDAY121061GF107991021031017501031081IA1009KA1999M+02501
0061837430999991931060712004-22900-043167FM-12+002099999V0203601N002619999999N9999999N9+02111+99999101991ADDGF107991999999999999999999KA1999M+03001KA2999N+02001MW1111
0091038040999991931101907004+49933-006300FM-12+005099999V0201101N004619999999N0100001N9+01111+01061102611ADDGA1011+999999019GF106991041051012501071001IA1009KA1999M+01441KA2999N+01111MD1810041+9999
0087106370999991931092318004+50050+008600FM-12+003499999V0200201N00261030001CN0500001N9+00781+00391102341ADDAA199000691AY181061GF106991041061008001041999IA1009KA1999M+01111MD1310081+9999MW1161
0059033960999991931040601004+53583-000117FM-12+000999999V0203201N006719999999N0040001N9+00441+00391100461ADDGA1011+999999019GF106991041051004501031001MD1810041+9999
0060014030999991931062706004+59300+004883FM-12+005799999V0202001N004619999999N0010001N9+01111+99999101691ADDAA199003091AY161999GF199999091999999999999999IA1089MW1611
0080039660999991931030313004+53100-007900FM-12+005799999V0201601N002619999999N0100001N9+00671+00611100451ADDGA1011+999999019GF108991001001999999021999EQDQ01+000032APCTENQ02+000002APC3  
0037600960999991931110118004+23683-015900FM-12+000699999V0203201N00931220001CN0100001N9+02391+99999101401ADDAY161999GF100991001999999999999999
0037600690999991931022712004+27933-013000FM-12+000599999V0203601N00461220001CN0040001N9+01721+99999102141ADDAY111999GF104991041999008001999999
0089116430999991931113006004+50750+015733FM-12+049199999V0201101N01231220001CN0500001N9-00501-02561100251ADDAY101999GF199999041001008001001001IA1309KA1999N-00501MD1310061+9999EQDQ01+000002SCOTCV
0059036930999991931072313004+51533+000817FM-12+000399999V0202301N004619999999N0200001N9+02441+02001101541ADDGA1011+999999019GF104991041011012501091011MD1810101+9999
0057105540999991931020412004+51017+011033FM-12+005699999V0200701N00671004501CN0040001N9-00501-00561102101ADDAY171061GF108991061051004501021999MD1810041+9999MW1711
0065033790999991931091518004+53033-000500FM-12+006299999V0202401N002619999999N0040001N9+01781+01501102851ADDGA1011+999999019GF107991071051004501999999IA1009MD1810041+9999
0078100010999991931032718004+53600+006700FM-12+000499999V0202701N00461220001CN0100001N9+00501+00281102271ADDAY101999GF104991999001008001071081IA1009EQDQ01+000002SCOTLCQ02+000002APC3  
0057106090999991931101909004+49750+006667FM-12+008199999V0200901N00101007801CN0020001N9+00721+99999102731ADDAY111031GF106991061071008001001001MD1810081+9999MW1051
0048838870999991931053012004-27233-051500FM-12+028999999V0209991C000019999999N9999999N9+01281+99999102481ADDGF100991999999999999999999KA1999N+00781MW1111
0061825860999991931083112004-05200-039300FM-12+019999999V0200901N009319999999N9999999N9+02611+99999101701ADDGF104991999999999999999999KA1999M+03221KA2999N+02391MW1111
0091330080999991931020706004+52067+023533FM-12+014099999V0201401N00671220001CN0040001N9-01111-01441102331ADDAY111999GF104991001001999999001081IA1139KA1999N-01221EQDQ01+000042APCTENQ02+000182APC3  
0059038940999991931052813004+49450-002550FM-12+010499999V0202001N002619999999N0500001N9+01561+01111100871ADDGA1011+999999019GF102991021071012501041011MD1310161+9999
0037082210999991931022218004+40467-003567FM-12+060099999V0203401N00261012301CN0100001N9+01111+99999102181ADDAY121999GF108991081999012501999999
0127038040999991931033107004+49933-006300FM-12+005099999V0201601N004619999999N0002001N9+00941+00891101241ADDAA124999999GA1011+999999019GF108991081051000251999999IA1089KA1999M+01221KA2999N+00941MD1810061+9999MW1441EQDQ01+000452PRSWM1
0091031000999991931082207004+56483-006867FM-12+000999999V0203601N006719999999N0500001N9+01001+00781101261ADDGA1011+999999019GF102991021071012501061001IA1009KA1999M+01441KA2999N+00941MD1310041+9999
0081070700999991931061618004+49250+004083FM-12+008799999V0202301N00261220001CN0200001N9+02281+99999101741ADDAA199002091AY101999GF102991001001999999001051IA1009KA1999M+02391MD1810141+9999
0076306830999991931123123004+53967+121933FM-12+050899999V0201101N015419999999N0005001N9+00001+99999100001ADDAY171999GF108991011999002501999071MD1810522+9999MW1611EQDQ01+000522APC3  
0076265090999991931111912004+55700+021133FM-12+000199999V0201401N002619999999N0020001N9+00111-00441103621ADDAY121999GF108991999001012501021999MD1110021+9999MW1051EQDQ01+000002SCOTLC
0057109610999991931082612004+47417+010983FM-12+090399999V0203401N00461000151CN0000001N9-00281-00331100971ADDAY171061GF109991091999000251999999MD1310141+9999MW1451
0084031400999991931111613004+55867-004433FM-12+000699999V0202701N001019999999N0000001N9+00281+00221103071ADDGA1011+999999019GF108991081051000251999999MD1810061+9999MW1441EQDQ01+000452PRSWM1
0087108650999991931080606004+48183+011550FM-12+015599999V0201101N00101220001CN0040001N9+02111+01441101401ADDAA199003091AY101061GF100991001001999999001001IA1089KA1999N+01501MD1110041+9999MW1051
0024990061999991931062316004+62000-033000SAO  +00004YA  V02099999999999999999N0000001N1+02741+02351999999ADDMA1999999100271MW1001
0024990061999991931080621004+62000-033000SAO  +00004YA  V02099999999999999999N0000001N1+02801+02411999999ADDMA1999999100171MW1001
0065031400999991931120913004+55867-004433FM-12+000699999V0202301N004619999999N0040001N9+00831+00781102151ADDGA1011+999999019GF107991071091002501999999MD1310061+9999MW1601
0081071500999991931012518004+48950+002433FM-12+004699999V0202701N00461220001CN0040001N9+00721+99999101781ADDAA199002091AY111999GF104991041021008001001001IA1089KA1999M+01001MD1310221+9999
0068100670999991931122506004+54500+011250FM-12+000399999V0202501N00461004501CN0040001N9+00501+99999999999ADDAA199000591AY121999GF106991061051004501999999IA1089MD1310061+9999
0057103840999991931111705004+52483+013433FM-12+001799999V0209991C00001012301CN0040001N9+00281+00061102641ADDAY121999GF108991081051012501999999MD1610041+9999MW1051
0024990061999991931061615004+62000-033000SAO  +00004YA  V02099999999999999999N0000001N1+03071+02571999999ADDMA1999999100541MW1001
0009726810241311931080120004+43567-116217SAO  +0874BOI  V0203151N002612200019N0400001N1+02961+99999999999ADDMW1001
0051226290999991931110612004+54917+023933FM-12+008399999V0201601N00101220001CN0040001N9+00891+99999102211ADDAY111999GF104991001001999999011021MD1810041+9999
0072837290999991931013012004-22900-047067FM-12+066599999V0200501N002619999999N9999999N9+02111+99999101031ADDAA124033091GF107991999999999999999999KA1999M+02391KA2999N+02001MW1601
0074121140999991931012906004+54433+016383FM-12+000299999V0201801N00261001501CN0010001N9-00111-00171100171ADDAA199003091AY171999GF108991081061001501001999IA1209MD1810061+9999MW1771
0059038940999991931071013004+49450-002550FM-12+010499999V0202301N006719999999N0200001N9+01891+01441101561ADDGA1011+999999019GF104991041051008001061001MD1310101+9999
0051076020999991931080812004+43483-001567FM-12+002999999V02099999999999999999N9999999N9+02111+99999101171ADDAY121999GF108991999051999999031999MD1810061+9999
0081103380999991931091306004+52417+009750FM-12+001699999V0202701N00671030001CN0200001N9+00781+00721101581ADDAA199007091AY101999GF106991021021012501031001IA1009KA1999N+00501MD1310061+9999
0068100190999991931061018004+54917+008350FM-12+000599999V0202701N00931004501CN0040001N9+01391+99999999999ADDAA199016091AY121999GF108991081061004501999001IA1089MD1310101+9999
0068014270999991931021706004+58100+006567FM-12+000999999V0200901N00931220001CN0500001N9-00281+99999100391ADDAA199000391AY111999GF104991041081012501001001IA1309MD1310241+9999
0108039730999991931071607004+54100-010067FM-12+000599999V0202701N004619999999N0200001N9+01391+01331101211ADDAA124999999GA1011+999999019GF108991081061000251999999IA1089KA1999M+01671KA2999N+01221MD1310041+9999MW1801
0025726810241311931072311004+43567-116217SAO  +0874BOI  V0203601N002112200019N0480001N1+02301+99999999999ADDGA1999+018009999MW1001
0071031590999991931101618004+56033-003133FM-12+005899999V0202501N001019999999N0010001N9+01281+01221103271ADDGA1011+999999019GF102991021051004501001001IA1009MD1810061+9999MW1101
0091121500999991931070406004+54383+018600FM-12+000599999V0209991C00001220001CN0100001N9+02221+01561101001ADDAY111999GF104991001001999999001061IA1009KA1999N+01611EQDQ01+000032APCTENQ02+000002APC3  
0102037480999991931080907004+51067-001317FM-12+008399999V0203401N006719999999N0200001N9+00891+00671101321ADDAA199004091GA1011+999999019GF102991001001999999001031IA1089KA1999M+01671KA2999N+00721MD1310201+9999
0087103610999991931042806004+52133+011717FM-12+001499999V0202701N00461004501CN0200001N9+00721+00501100371ADDAA199002091AY161999GF108991081051004501999999IA1089KA1999N+00611MD1310141+9999MW1211
0091101270999991931080206004+53533+008150FM-12+000299999V0200701N00461220001CN0100001N9+01781+01561101461ADDAY111999GF104991001001999999031091IA1009KA1999N+01611EQDQ01+000042APCTENQ02+000082APC3  
0065031400999991931012813004+55867-004433FM-12+000699999V0202701N001019999999N0040001N9+00391+00331100431ADDGA1011+999999019GF108991081061004501999999MD1310101+9999MW1611
0061837800999991931060112004-23567-046483FM-12+075199999V0200501N002619999999N9999999N9+01611+99999101761ADDGF107991999999999999999999KA1999M+02281KA2999N+01111MW1111
0037104810999991931090509004+51533+013233FM-12+002999999V0202701N01231007801CN0100001N9+99999+99999999999ADDAY121031GF107991071061008001071999
0037165970999991931121912004+35900+014517FM-12+008599999V0202301N00261012301CN0200001N9+01501+99999101001ADDAY181999GF107991061999012501999999
0057011060999991931031306004+67500+012067FM-12+001199999V0200201N01231030001CN0500001N9-00221+99999099471ADDAY121999GF108991011061008001021999IA1309MD1810041+9999
0024990061999991931103105004+62000-033000SAO  +00004YA  V02099999999999999999N0000001N1+01961+01461999999ADDMA1999999101831MW1001
0051333930999991931031718004+49817+023950FM-12+033099999V0203601N00261007801CN0040001N9-00721-01061102991ADDAY171999GF106991061041008001001001MD1310221+9999
0091039280999991931090907004+54650-005533FM-12+001299999V0202801N002619999999N0200001N9+00891+00831101841ADDGA1011+999999019GF104991041071012501031001IA1009KA1999M+01611KA2999N+00721MD1310021+9999
0080038110999991931032913004+50133-005033FM-12+006199999V0200901N015419999999N0040001N9+00721+00501102171ADDGA1011+999999019GF108991081051012501999999EQDQ01+000032APCTENQ02+000002APC3  
0061836480999991931011712004-20150-040333FM-12+003699999V0201401N002619999999N9999999N9+03001+99999101121ADDGF100991999999999999999999KA1999M+03281KA2999N+02391MW1111
0102037660999991931052907004+51283-000750FM-12+006999999V0201101N002619999999N0200001N9+01331+00891100791ADDAA124999999GA1011+999999019GF101991011051012501081001IA1089KA1999M+01891KA2999N+00781MD1810081+9999
0078010010999991931051418004+70983-008333FM-12+002399999V0200701N00671007801CN0500001N9-00111+99999101001ADDAY121999GF107991071071008001011999IA1309EQDQ01+000082APCTENQ02+000002APC3  
0091030910999991931053007004+57167-002200FM-12+007199999V0200501N002619999999N0100001N9+00891+00831100901ADDGA1011+999999019GF108991081051004501999999IA1089KA1999M+01611KA2999N+00781MD1310061+9999
0084034970999991931041001004+52583+001733FM-12+000299999V0203601N004619999999N0002001N9+00721+00671102031ADDGA1011+999999019GF108991081051000251999999MD1310081+9999MW1441EQDQ01+000452PRSWM1
0102076870999991931082506004+43717+007217FM-12+000399999V0202701N00261220001CN0100001N9+02001+99999100571ADDAA199002091AY111999GF104991021051017501071011IA1089KA1999N+01781EQDQ01+000042APCTENQ02+000042APC3  
0043104330999991931111706004+51400+008567FM-12+013799999V0201401N00261002401CN0010001N9+99999+99999999999ADDAY141061GF108991081051002501999999MW1101
0087071900999991931080406004+48550+007633FM-12+015499999V0203601N00101090001CN0200001N9+01891+99999101821ADDAA199000691AY121999GF106991021081012501081031IA1009KA1999N+01721MD1110061+9999MW1171
0051076500999991931123012004+43417+005200FM-12+001299999V0203401N00671220001CN0200001N9+00721+99999100101ADDAY111999GF104991001001999999001021MD1710201+9999
0057010100999991931012418004+69333+016133FM-12+000799999V0201401N006719999999N0500001N9+00221+99999098521ADDAY121999GF106991041051017501071001IA1309MD1810021+9999
0073106850999991931100718004+50300+011867FM-12+017399999V0202001N00931002401CN0020001N9+01221+01171101241ADDAA199002091AY161061GF108991081061002501999999IA1089KA1999M+02001MW1631
0051077470999991931060612004+42733+002867FM-12+004599999V0209991C00001012301CN0200001N9+02501+99999101541ADDAY121999GF107991061071012501041999MD1710061+9999
0037104740999991931052706004+51850+012650FM-12+002099999V0201401N00461220001CN0040001N9+99999+99999999999ADDAY101061GF100991001001999999001999
0070070070999991931101206004+50867+001750FM-12+012399999V0201601N00101220001CN0040001N9+01281+99999102221ADDAY101999GF100991001001999999001999IA1009KA1999N+01001MD1810081+9999
0051100080999991931010812004+54833+014367FM-12+999999999V0200201N00261220001CN0200001N9+00111-00111102861ADDAY101999GF104991041011008001001001MD1810081+9999
0070103080999991931062518004+52417+007067FM-12+000999999V0200701N00101220001CN0500001N9+02001+00781102461ADDAY101999GF104991041081012501001001IA1009KA1999M+02221MD1310061+9999
0065037950999991931010713004+51083+001017FM-12+010499999V0203601N006719999999N0010001N9+00221+00171103111ADDGA1011+999999019GF107991071051012501001001MD1810061+9999MW1101
0072838740999991931040712004-26250-048667FM-12+001199999V0202301N002619999999N9999999N9+02111+99999102001ADDAA124001091GF104991999999999999999999KA1999M+02611KA2999N+01891MW1111
0065038040999991931073118004+49933-006300FM-12+005099999V0200901N001019999999N0200001N9+01441+01391101021ADDGA1011+999999019GF107991061051012501021001IA1009MD1810041+9999
0065038110999991931022501004+50133-005033FM-12+006199999V0202401N004619999999N0100001N9+00831+00781102971ADDGA1011+999999019GF108991081051008001999999MD1810041+9999MW1511
0051071300999991931041612004+48067-001750FM-12+003999999V0203401N006719999999N0100001N9+00891+99999102401ADDAY101999GF199999999041004501999999MD1310081+9999
0024990061999991931071621004+62000-033000SAO  +00004YA  V02099999999999999999N0000001N1+02631+02411999999ADDMA1999999100511MW1001
0102072800999991931100718004+47267+005083FM-12+022399999V0202301N00931220001CN0100001N9+01501+99999102051ADDAA199001091GF101991999021017501041001KA1999M+99999MD1310261+9999EQDQ01+000042SCOTLCQ02 -00112ATMX  
0009726810241311931122313004+43567-116217SAO  +0874BOI  V0201351N001010120019N0160001N1+00081+99999999999ADDMW1001
0065032620999991931082218004+55017-001417FM-12+003399999V0200201N002619999999N0200001N9+01111+00671101001ADDGA1011+999999019GF104991021041012501061001IA1009MD1810041+9999
0043165300999991931021906004+40933+009500FM-12+000299999V0209991C00001007801CN0040001N9+00721+99999100901ADDAY161999GF108991081999008001999999MW1511
0059038110999991931081901004+50133-005033FM-12+006199999V0201801N006719999999N0010001N9+01501+01441100271ADDGA1011+999999019GF108991081061004501999999MD1810261+9999
0051103840999991931072315004+52483+013433FM-12+001799999V0201801N00261220001CN0500001N9+02611+01331102071ADDAY101999GF101991011041017501041091MD1810101+9999
0057106090999991931020409004+49750+006667FM-12+008199999V0200501N00261002401CN0010001N9-00111+99999101681ADDAY171031GF109991091999002501999999MD1110141+9999MW1101
0070104530999991931010918004+51800+010617FM-12+034899999V0201801N00671220001CN0200001N9-01111-01171100431ADDAY101061GF100991001001999999001001IA1319KA1999M-00721MD1410001+9999
0009726810241311931030819004+43567-116217SAO  +0874BOI  V0201351N008712200019N1600001N1+00911+99999999999ADDMW1001
0009726810241311931071510004+43567-116217SAO  +0874BOI  V0201351N001512200019N0320001N1+01521+99999999999ADDMW1001
0107029110999991931102506004+63083+021617FM-12+000999999V0209991C00001220001CN0500001N9-00501+99999100211ADDAY111999GF101991011051022501001001IA1009KA1999N-00721EQDQ01+000902WODIR Q02+000032APCTENQ03+000002APC3  
0037084870999991931082506004+36850-002467FM-12+006599999V0209991C00001220001CN0100001N9+02001+99999101431ADDAY101999GF100991001999999999999999
0024990061999991931010304004+62000-033000SAO  +00004YA  V02099999999999999999N0000001N1+01801+01631999999ADDMA1999999101561MW1001
0072074200999991931100212004+45667+000233FM-12+008399999V0202301N00261220001CN0040001N9+01721+99999102781ADDAY141999GF106991041021004501001011EQDQ01+000012APCTENQ02+000002APC3  
0095100010999991931110518004+53600+006700FM-12+000499999V0201101N00261004501CN0020001N9+01001+00941101311ADDAA199000691AY161999GF108991081061004501999999IA1089MW1211EQDQ01+000042APCTENQ02+000062APC3  
0057010280999991931091518004+74467+019283FM-12+002899999V0201401N006719999999N0200001N9+00281+99999100101ADDAY121999GF108991041051008001021999IA1089MD1810141+9999
0037074880999991931020918004+45167+005733FM-12+032499999V0203601N00261220001CN0200001N9+01611+99999102551ADDAY101999GF100991001999999999999999
0072836840999991931021712004-21850-045300FM-12+096099999V0201401N002619999999N9999999N9+01781+99999101601ADDAA124018091GF107991999999999999999999KA1999M+02001KA2999N+01611MW1601
0081122050999991931092306004+53400+014633FM-12+000199999V0203601N00671220001CN0500001N9+00781+00561102061ADDAA199001091AY111999GF104991021081008001061001IA1009KA1999N+00611MD1310121+9999
0051104680999991931030806004+51833+012200FM-12+001899999V0200501N00261220001CN0040001N9-00891-01061100841ADDAY101061GF100991001001999999001001MD1810061+9999
0089074810999991931111106004+45733+004917FM-12+019899999V0202001N009319999999N0100001N9+99999+99999100571ADDAY121999GF107991999081008001041001IA1089KA1999N+00721MD1210061+9999EQDQ01 -02003ATOT  
0102038110999991931020107004+50133-005033FM-12+006199999V0203001N019019999999N0100001N9+00671+00061100781ADDAA199025091GA1011+999999019GF106991041081012501001021IA1089KA1999M+01001KA2999N+00501MD1310221+9999
0068010550999991931120206004+71067+024150FM-12+000499999V0201801N00461220001CN0500001N9+00281+99999101471ADDAA199001091AY101999GF102991021051017501001011IA1089MD1810281+9999
0051330190999991931081506004+52117+026100FM-12+013799999V0202501N00461220001CN0100001N9+01391+01171100901ADDAY111999GF104991041051008001001001MD1310181+9999
0037070280999991931050112004+49517+000117FM-12+001799999V0203201N00461220001CN0100001N9+01391+99999101251ADDAY101999GF101991011011012501001999
0051060410999991931060312004+57733+010633FM-12+000399999V0202901N01231220001CN0200001N9+01221+99999101001ADDAY101999GF101991011021012501001021MD1310061+9999
0070029110999991931100918004+63083+021617FM-12+000999999V0202501N00461007801CN0040001N9+00781+99999100251ADDAY121999GF108991081051008001001001IA1009KA1999M+00891MD1310141+9999
0065039530999991931080818004+51933-010250FM-12+000999999V0203601N009319999999N0200001N9+01391+00941101531ADDGA1011+999999019GF107991071081008001001001IA1089MD1310181+9999
0037161200999991931101806004+44400+008917FM-12+000299999V0202501N00101220001CN0040001N9+01221+99999102011ADDAY101999GF100991001999999999999999
0059031590999991931070413004+56033-003133FM-12+005899999V0202001N006719999999N0200001N9+01721+00831099881ADDGA1011+999999019GF107991041081012501081091MD1310041+9999
0081109350999991931121006004+47667+009500FM-12+012299999V0202701N00461007801CN0100001N9+00281+00061102551ADDAA199002091AY161061GF108991071061008001021999IA1089KA1999N+00221MD1510021+9999
0051125660999991931062812004+50083+019983FM-12+022299999V0203201N00261220001CN0040001N9+02391+99999102241ADDAY101999GF101991011021017501001001MD1990161+9999
0051061800999991931012212004+55617+012650FM-12+000599999V0202001N00931030001CN0100001N9-00111+99999102231ADDAY121999GF108991041041008001011001MD1810261+9999
0051104160999991931082612004+51533+007583FM-12+002199999V0203201N001019999999N0040001N9+01501+01281102461ADDAY181061GF108991041061002501999999MD1310101+9999
0059037750999991931071113004+51467-000317FM-12+000599999V0202501N004619999999N0200001N9+02061+01111101711ADDGA1011+999999019GF104991041011008001001011MD1810021+9999
0072830960999991931060912004-10917-037067FM-12+002199999V0201401N002619999999N9999999N9+02721+99999102001ADDAA124014091GF102991999999999999999999KA1999M+02781KA2999N+02221MW1111
0091072400999991931092106004+47417+000783FM-12+011299999V0200201N00261220001CN0040001N9+00721+99999102821ADDAY101999GF104991041051017501001001IA1009KA1999N+00611EQDQ01+000062APCTENQ02+000002APC3  
0059039730999991931092313004+54100-010067FM-12+000599999V0203601N004619999999N0200001N9+01391+01171103201ADDGA1011+999999019GF101991011011012501001001MD1310021+9999
0059031000999991931092813004+56483-006867FM-12+000999999V0202101N002619999999N0100001N9+01331+01111102291ADDGA1011+999999019GF108991081051008001999999MD1810081+9999
0051010280999991931041812004+74467+019283FM-12+002899999V0200501N00461007801CN0200001N9-00281+99999102481ADDAY121999GF108991081051008001999999MD1310061+9999
0057104380999991931011912004+51383+009533FM-12+008899999V0201801N00671004501CN0010001N9+00391+00331101011ADDAY171061GF108991081061004501999999MD1610021+9999MW1681
0070264220999991931060406004+56983+024083FM-12+000299999V0202701N00931220001CN0200001N9+01111+99999100901ADDAY101999GF104991041071012501001001IA1009KA1999N+00001MD1210041+9999
0051104100999991931052412004+51400+006950FM-12+003799999V0201601N00931015001CN0200001N9+02501+01561101291ADDAY111061GF107991071061017501061001MD1310061+9999
0009726810241311931090111004+43567-116217SAO  +0874BOI  V0200901N001512200019N0320001N1+01301+99999999999ADDMW1001
0057060110999991931011506004+62050-006750FM-12+002699999V0209991C00001001501CN0100001N9+00221+99999099831ADDAY121999GF107991071061001501001001IA1009MD1310301+9999
0072123750999991931080212004+52183+020967FM-12+013399999V0200701N00261012301CN0000001N9+02611+99999101551ADDAY111999GF106991061041012501001001EQDQ01+000032APCTENQ02+000002APC3  
0037105770999991931031312004+50817+012883FM-12+010999999V0202501N00261220001CN0100001N9+00281-00721100781ADDAY101061GF101991011011008001001001
0037105480999991931102806004+50550+010367FM-12+013999999V0203401N00261007801CN0040001N9+99999+99999999999ADDAY121061GF108991081051008001999999
0070330080999991931032006004+52067+023533FM-12+014099999V0201801N00101220001CN0040001N9-00111-00171102911ADDAY101999GF100991001001999999001001IA1309KA1999N-00501MD1310081+9999
0059038040999991931073001004+49933-006300FM-12+005099999V0202801N006719999999N0100001N9+01501+01441101221ADDGA1011+999999019GF107991071051012501999999MD1810041+9999
0061836920999991931101712004-21767-043333FM-12+066999999V0200901N002619999999N9999999N9+02111+99999101501ADDGF107991999999999999999999KA1999M+03111KA2999N+01611MW1111
0024990061999991931061621004+62000-033000SAO  +00004YA  V02099999999999999999N0000001N1+02801+02571999999ADDMA1999999100541MW1001
0051010550999991931102612004+71067+024150FM-12+000499999V0202701N00461060001CN0500001N9-00111+99999101221ADDAY111999GF107991021071012501001071MD1310041+9999
0051122050999991931020315004+53400+014633FM-12+000199999V0201101N00461004501CN0020001N9-00391-00561102111ADDAY171999GF108991061051004501031999MD1310101+9999
0037154200999991931020306004+44483+026133FM-12+009299999V0200701N00101007801CN0020001N9-00281+99999101331ADDAY121999GF108991071999008001999999
0086036270999991931030918004+51917-002583FM-12+006899999V0200301N002619999999N0040001N9-00171-00671100811ADDGA1011+999999019GF106991061081012501001001IA1009EQDQ01+000032APCTENQ02+000002APC3  
0091035310999991931040107004+52483-001933FM-12+016399999V0201101N004619999999N0040001N9+00001-00331101831ADDGA1011+999999019GF106991001001999999031081IA1009KA1999M+00941KA2999N-00111MD1810081+9999
0037600960999991931032918004+23683-015900FM-12+000699999V0203601N01901220001CN0040001N9+02001+99999101461ADDAY101999GF100991001999999999999999
0096038880999991931120107004+50917+000967FM-12+000699999V0203201N001019999999N0005001N9+99999+99999999999ADDGA1011+999999019GF107991071051002501999999KA1999M+00721KA2999N+00281MW1421EQDQ01+000432PRSWM1
0037103840999991931042014004+52483+013433FM-12+001799999V0200201N00261007801CN0200001N9+99999+99999999999ADDAY121999GF107991071081008001999999
0057101270999991931061118004+53533+008150FM-12+000299999V0202301N006719999999N0100001N9+01721+01501101491ADDAY111999GF106991041081008001999011IA1009MD1310161+9999
0051103840999991931052803004+52483+013433FM-12+001799999V0201401N00261220001CN0500001N9+01781+01561101301ADDAY101999GF100991001001999999001001MD1810061+9999
0009726810241311931012515004+43567-116217SAO  +0874BOI  V0209991C000010210019N1600001N1-00261+99999999999ADDMW1001
0081102740999991931091418004+53350+012733FM-12+002299999V0203201N00461220001CN0100001N9+01111+00221102571ADDAA199002091AY111999GF104991041021017501001001IA1089KA1999M+01391MD1310121+9999
0102124250999991931072906004+51133+016967FM-12+003799999V0202701N00461004501CN0040001N9+01391+01331101371ADDAA199000391AY121999GF108991061061004501021999IA1089KA1999N+01391EQDQ01+000042APCTENQ02+000142APC3  
0065033480999991931122518004+53983-001550FM-12+014699999V0202301N002619999999N0100001N9+00721+00331102981ADDGA1011+999999019GF107991061051012501001081IA1089MD1810061+9999
0051101700999991931050112004+54183+012100FM-12+000299999V0203601N00101220001CN0200001N9+00891+00441101501ADDAY101999GF102991011001012501021061MD1010041+9999
0051072800999991931092612004+47267+005083FM-12+022399999V0200701N00671007801CN0200001N9+01391+99999102771ADDAY121999GF107991071081008001001001MD1990101+9999
0091024640999991931092406004+59350+017950FM-12+001099999V0202701N00101220001CN0100001N9+00781+99999102211ADDAY111999GF106991001001999999031999IA1009KA1999N+00611EQDQ01+000032APCTENQ02+000002APC3  
0057076070999991931041812004+43900-000500FM-12+006399999V0203401N00261012301CN0100001N9+00501+99999100091ADDAY161999GF107991071031012501999999MD1710161+9999MW1801
0059039660999991931032913004+53100-007900FM-12+005799999V0201401N009319999999N0100001N9+00611+00561101691ADDGA1011+999999019GF108991081051008001999999MD1810081+9999
0057103840999991931012005004+52483+013433FM-12+001799999V0209991C00001220001CN0010001N9-00281-00331101701ADDAY101999GF100991001001999999001999MD1310241+9999MW1101
0037074880999991931062312004+45167+005733FM-12+032499999V0203601N00461012301CN0200001N9+02221+99999101921ADDAY111999GF106991061999012501999999
0037262410999991931041118004+58383+026717FM-12+008199999V0202501N00101030001CN0040001N9-00111+99999101781ADDAY111999GF106991041051004501031999
0037165300999991931010806004+40933+009500FM-12+000299999V0200501N00671007801CN0200001N9+00891+99999101621ADDAY121999GF108991081999008001999999
0092033480999991931090618004+53983-001550FM-12+014699999V0209991C000019999999N0100001N9+01171+00721101841ADDGA1011+999999019GF107991071081008001001001IA1089MW1801EQDQ01+000032APCTENQ02+000002APC3  
0009726810241311931082406004+43567-116217SAO  +0874BOI  V0201351N000512200019N0320001N1+02301-00261999999ADDMW1001
0043014270999991931020818004+58100+006567FM-12+000999999V0201401N01231004501CN0040001N9-00111+99999101611ADDAY171999GF108991081061004501999999MW1711
0081100460999991931021306004+54383+010150FM-12+000999999V0202501N00461002401CN0020001N9+00111+00061098711ADDAA199004091AY161999GF107991071061002501999999IA1309KA1999N+00111MD1210141+9999
0029865850999991931120512004-34850-056200FM-12+002299999V0201101N004619999999N9999999N9+01781+99999102071ADDGF102991999999999999999999
0065039530999991931022601004+51933-010250FM-12+000999999V0202301N006719999999N0010001N9+00941+00891101911ADDGA1011+999999019GF108991081031999999999999MD1810141+9999MW1101
0070104100999991931120306004+51400+006950FM-12+003799999V0201401N00931030001CN0040001N9-00391-00441102301ADDAY121061GF107991021051004501011081IA1139KA1999N-00391MD1990261+9999
0009726810241311931111010004+43567-116217SAO  +0874BOI  V0201351N002610030019N0160001N1+00351+99999999999ADDMW1611
0024990061999991931083004004+62000-033000SAO  +00004YA  V02099999999999999999N0000001N1+02681+02521999999ADDMA1999999100441MW1001
0076100190999991931080618004+54917+008350FM-12+000599999V0202001N004619999999N0100001N9+02001+99999999999ADDAY111999GF107991001001999999001091IA1009MD1810261+9999EQDQ01+000952SCOLCB
0037074880999991931032912004+45167+005733FM-12+032499999V0203401N00261220001CN0200001N9+01721+99999102131ADDAY101999GF101991011999012501999999
0072021270999991931022612004+65067+017167FM-12+032899999V0202701N00101015001CN0200001N9-00781+99999099301ADDAY111999GF107991071051017501011081EQDQ01+000032APCTENQ02+000002APC3  
0037083140999991931031518004+39883+004267FM-12+004399999V0202301N00671012301CN0200001N9+01391+99999101211ADDAY121999GF107991071999012501999999
0080033230999991931122513004+53350-002883FM-12+002499999V0202901N006719999999N0040001N9+00831+00781103201ADDGA1011+999999019GF107991071051004501001001EQDQ01+000032APCTENQ02+000002APC3  
0081105440999991931041806004+50500+009933FM-12+028299999V0202301N00931000151CN0000001N9-00281-00331098231ADDAA199000691AY141061GF109991091051000251999999IA1309KA1999N-00281MD1310021+9999
0037083140999991931022806004+39883+004267FM-12+004399999V0202501N00261220001CN0200001N9+01111+99999101701ADDAY101999GF100991001999999999999999
0057033020999991931092506004+53317-004617FM-12+000899999V0203601N00261004501CN0040001N9+01281+99999103751ADDAY121999GF107991071051004501001999IA1009MD1310121+9999
0037103840999991931050108004+52483+013433FM-12+001799999V0203201N00261030001CN0100001N9+99999+99999999999ADDAY121999GF106991041051008001011999
0072100020999991931080712004+53767+006067FM-12+999999999V0202901N01231007801CN0100001N9+01721+01281999999ADDAY111999GF107991071051008001001001EQDQ01+000022APCTENQ02+000002APC3  
0037083140999991931040512004+39883+004267FM-12+004399999V0201401N00671220001CN0500001N9+01391+99999101531ADDAY111999GF104991041999017501999999
0091038040999991931092807004+49933-006300FM-12+005099999V0201001N002619999999N0040001N9+01171+00941102561ADDGA1011+999999019GF107991071051012501999999IA1009KA1999M+01441KA2999N+01061MD1810041+9999
0024990061999991931082002004+62000-033000SAO  +00004YA  V02099999999999999999N0000001N1+02741+02631999999ADDMA1999999099701MW1001
0102039730999991931102907004+54100-010067FM-12+000599999V0202701N009319999999N0200001N9+01221+01171101921ADDAA124999999GA1011+999999019GF107991071081000751999999IA1089KA1999M+01221KA2999N+00831MD1810081+9999
0009726810241311931042818004+43567-116217SAO  +0874BOI  V0203151N002112200019N1600001N1+01961+00241999999ADDMW1001
0070106850999991931102206004+50300+011867FM-12+017399999V0202301N00101220001CN0040001N9-00281-00331102301ADDAY111061GF102991021071004501001011IA1309KA1999N-00391MD1310081+9999
0037074890999991931122212004+45300+005867FM-12+115499999V0202701N002619999999N0200001N9+01111+99999102551ADDAY121999GF108991041999008001999999
0097074600999991931120218004+45783+003150FM-12+033099999V0209991C00001002401CN0040001N9+00221+99999102791ADDAY121999GF108991081051002501999999IA1009KA1999M+00391MW1051EQDQ01+000032APCTENQ02+000002APC3  
0065036930999991931081318004+51533+000817FM-12+000399999V0201001N002619999999N0040001N9+01501+00831101201ADDGA1011+999999019GF108991061051008001021999IA1009MD1810181+9999
0071039170999991931100618004+54650-006217FM-12+006799999V0202401N002619999999N0200001N9+01171+01111099991ADDGA1011+999999019GF107991061051002501021999IA1089MD1310021+9999MW1211
0057071500999991931090506004+48950+002433FM-12+004699999V0202901N00461002401CN0040001N9+01221+99999099931ADDAY161999GF108991071061002501021999MD1310221+9999MW1511
0051100190999991931091012004+54917+008350FM-12+000599999V0202901N01231220001CN0200001N9+01281+99999999999ADDAY121999GF104991041091004501999999MD1010061+9999
0024990061999991931081308004+62000-033000SAO  +00004YA  V02099999999999999999N0000001N1+02571+02521999999ADDMA1999999099561MW1001
0037165300999991931072318004+40933+009500FM-12+000299999V0200701N00261220001CN0500001N9+02391+99999102101ADDAY101999GF100991001999999999999999
0051062600999991931092012004+52100+005183FM-12+000399999V0203201N00671012301CN0100001N9+01611+99999102951ADDAY111999GF106991061081012501001001MD1810061+9999
0070100030999991931082806004+53867+007933FM-12+999999999V0200201N00261220001CN0200001N9+01501+01061999999ADDAY101999GF100991001001999999001001MD1310061+9999EQDQ01+000902SCOLCB
0081121500999991931051618004+54383+018600FM-12+000599999V0200901N00101220001CN0200001N9+01501+01061100871ADDAA199000591AY111999GF104991011071008001071041IA1009KA1999M+02281MD1310021+9999
0065030260999991931051301004+58217-006333FM-12+000399999V0201801N006719999999N0100001N9+00941+00891100641ADDGA1011+999999019GF108991081061008001999999MD1810081+9999MW1631
0037600960999991931020918004+23683-015900FM-12+000699999V0200501N00931220001CN0100001N9+01611+99999101821ADDAY101999GF100991001999999999999999
0086036270999991931121218004+51917-002583FM-12+006899999V0203401N002619999999N0040001N9+00891+00671103631ADDGA1011+999999019GF108991081051008001999999IA1089EQDQ01+000032APCTENQ02+000002APC3  
0065031000999991931060718004+56483-006867FM-12+000999999V0201201N006719999999N0100001N9+01171+00941100191ADDGA1011+999999019GF107991071051022501999999IA1009MD1810041+9999
0037104680999991931040712004+51833+012200FM-12+001899999V0202701N00461220001CN0200001N9+99999+99999999999ADDAY101061GF101991011011017501001999
0068060410999991931090306004+57733+010633FM-12+000399999V0202301N00671012301CN0040001N9+01391+99999099261ADDAA199019091AY161999GF108991081051012501001001IA1089MD1610041+9999
0051104160999991931073109004+51533+007583FM-12+002199999V0202701N00461030001CN0100001N9+02111+01671101331ADDAY121031GF107991041071008001031999MD1310021+9999
0091039800999991931102307004+55367-007333FM-12+002699999V0201901N004619999999N0200001N9+00611+00561100531ADDGA1011+999999019GF107991071051012501001001IA1009KA1999M+00891KA2999N+00171MD1810201+9999
0072837800999991931022312004-23567-046483FM-12+075199999V0201401N002619999999N9999999N9+02111+99999101511ADDAA124001091GF107991999999999999999999KA1999M+02111KA2999N+01721MW1111
0037164200999991931010506004+38200+015550FM-12+005499999V0202001N006719999999N0100001N9+01501+99999101331ADDAY121999GF107991041999004501999999
0051103380999991931091412004+52417+009750FM-12+005199999V0203201N00261007801CN0500001N9+01391+99999102781ADDAY121999GF106991061021008001001001MD1310061+9999
0102038940999991931011607004+49450-002550FM-12+010499999V0202901N004619999999N0100001N9+00891+00441102201ADDAA124999999GA1011+999999019GF108991081051008001999999IA1009KA1999M+00941KA2999N+00891MD1810021+9999
0057100910999991931090706004+54600+013233FM-12+000199999V0202901N00671030001CN0500001N9+01281+01061100631ADDAY121999GF108991041061004501071999IA1089MD1310161+9999
0087071100999991931112806004+48283-004433FM-12+009799999V0202701N00931004501CN0040001N9+01221+99999100561ADDAA199001091AY161999GF108991081051004501999999IA1109KA1999N+01111MD1310041+9999MW1521
0102074200999991931042006004+45667+000233FM-12+008399999V0209991C00001001501CN0010001N9+00281+99999100471ADDAA199000691AY141999GF108991071051001501031999IA1089KA1999N+00221EQDQ01+000042APCTENQ02+000082APC3  
0072839730999991931082712004-09367-037200FM-12+007799999V0201401N002619999999N9999999N9+02111+99999999999ADDAA124031091GF107991999999999999999999KA1999M+02391KA2999N+01891MW1111
0051076020999991931092812004+43383-001750FM-12+002999999V0203201N00261220001CN0040001N9+01721+99999101871ADDAY101999GF100991001001999999001001MD1810061+9999
0108106350999991931121318004+50217+008450FM-12+024499999V0203201N00671000151CN0000501N9+00111+00061999999ADDAA199002091AY141061GF109991091999000251999999IA1199KA1999M+00221MW1451EQDQ01+103393APOSLPQ02 103393APOSLP
0090031710999991931010318004+56383-002883FM-12+001199999V0209991C000019999999N0005001N9+00061+00001099491ADDGA1011+999999019GF107991021051004501031999IA1139MD1310061+9999MW1441EQDQ01+000452PRSWM1
0081264470999991931012906004+56783+027733FM-12+012099999V0201801N00101007801CN0040001N9-01111+99999101321ADDAA199001091AY171999GF108991081999008001999999IA1319KA1999N-01501MD1310061+9999
0080037480999991931020213004+51067-001317FM-12+008399999V0201801N001019999999N0040001N9+00721+00111101701ADDGA1011+999999019GF104991001001999999071011EQDQ01+000032APCTENQ02+000002APC3  
0102031710999991931051507004+56383-002883FM-12+001199999V0202301N009319999999N0100001N9+01111+00891100131ADDAA199004091GA1011+999999019GF106991041031008001041001IA1089KA1999M+01441KA2999N+00891MD1310021+9999
0051066300999991931111012004+46950+007483FM-12+057299999V0202001N00461012301CN0500001N9+01001+99999099991ADDAY161999GF107991071081012501041001MD1810141+9999
0065036550999991931012918004+51933-001250FM-12+012899999V0202601N004619999999N0200001N9+00331+00281100031ADDGA1011+999999019GF106991061051008001001001IA1089MD1310061+9999
0072010100999991931110312004+69333+016133FM-12+000799999V0202001N006719999999N0500001N9+00721+99999099261ADDAY161999GF108991021051012501021999EQDQ01+000032APCTENQ02+000002APC3  
0072060110999991931090712004+62050-006750FM-12+002699999V0203401N00261004501CN0200001N9+01001+99999101921ADDAY111999GF107991071071004501001001EQDQ01+000032APCTENQ02+000002APC3  
0093039730999991931091806004+54100-010067FM-12+000599999V0202701N00101220001CN0010001N9+01391+99999102471ADDAA199000691AY141999GF108991999001999999021001IA1089MD1310081+9999MW1451EQDQ01+000002SCOTLC
0108038280999991931111907004+50483-004100FM-12+019899999V0200501N002619999999N0040001N9+00611+00561101231ADDAA124999999GA1011+999999019GF107991061061004501021001IA1089KA1999M+01171KA2999N+00611MD1810061+9999MW1211
0072837450999991931102012004-22283-042533FM-12+085099999V0201401N002619999999N9999999N9+02001+99999101521ADDAA124014091GF107991999999999999999999KA1999M+02891KA2999N+01781MW1501
0051072800999991931082512004+47267+005083FM-12+022399999V0202501N01231007801CN0100001N9+01891+99999100421ADDAY121999GF107991071091008001999999MD1210181+9999
0051100060999991931101612004+54600+011150FM-12+999999999V0202701N00101012301CN0040001N9+01221+01001103261ADDAY121999GF108991081051012501999999MD1310061+9999
0051105130999991931061203004+50983+006900FM-12+001599999V0201801N00101030001CN0200001N9+01781+01561101501ADDAY161031GF108991041071004501041999MD1610041+9999
0061839970999991931050912004-33517-053333FM-12+000699999V0200901N002619999999N9999999N9+01281+99999101831ADDGF108991999999999999999999KA1999M+02001KA2999N+01001MW1401
0072060410999991931062512004+57733+010633FM-12+000399999V0203601N00101220001CN0500001N9+01611+99999102541ADDAY101999GF101991011011012501001001EQDQ01+000032APCTENQ02+000002APC3  
0065037950999991931012201004+51083+001017FM-12+010499999V0201801N006719999999N0020001N9+00671+00611101601ADDGA1011+999999019GF108991081051002501999999MD1810121+9999MW1051
0037133340999991931081906004+43517+016433FM-12+012899999V0201101N00101220001CN0500001N9+02391+99999101251ADDAY101999GF100991001999999999999999
0009726810241311931031608004+43567-116217SAO  +0874BOI  V0203601N003610090019N1600001N1+01411+99999999999ADDMW1611
0051061800999991931012612004+55617+012650FM-12+000599999V0203201N00461007801CN0100001N9+00391+99999100191ADDAY141999GF108991061051008001071001MD1310101+9999
0065038040999991931050318004+49933-006300FM-12+005099999V0200101N009319999999N0200001N9+00891+00441100451ADDGA1011+999999019GF102991021071012501001001IA1009MD1310041+9999
0072828930999991931091712004-08883-036517FM-12+084899999V0201401N002619999999N9999999N9+02111+99999101721ADDAA124004091GF107991999999999999999999KA1999M+02501KA2999N+01501MW1111
0072836980999991931092312004-21750-041333FM-12+001399999V0209991C000019999999N9999999N9+02001+99999103031ADDAA124001091GF107991999999999999999999KA1999M+02111KA2999N+01281MW1111
0127031710999991931060807004+56383-002883FM-12+001199999V0200901N004619999999N0100001N9+01001+00941100591ADDAA199999999GA1011+999999019GF108991071051002501021999IA1089KA1999M+01171KA2999N+00831MD1310081+9999MW1201EQDQ01  00002PRCP99
0009726810241311931121311004+43567-116217SAO  +0874BOI  V0201351N001510270019N0320001N1-00591+99999999999ADDMW1001
0072100030999991931080318004+53867+007933FM-12+999999999V0200701N00671220001CN0200001N9+02001+01721999999ADDAY101999GF100991001001999999001001EQDQ01+000022APCTENQ02+000002APC3  
0024990061999991931010506004+62000-033000SAO  +00004YA  V02099999999999999999N0000001N1+02021+01911999999ADDMA1999999101021MW1001
0037163300999991931052806004+40467+017233FM-12+002299999V0202501N004619999999N0100001N9+01891+99999101131ADDAY191999GF106991021999012501999999
0057105130999991931092912004+50983+006900FM-12+001599999V0209991C00001030001CN0100001N9+01391+00721102131ADDAY121061GF106991041071008001031001MD1990061+9999MW1051
0087124000999991931050818004+51917+015500FM-12+004599999V0202301N00671004501CN0040001N9+01111+00671101431ADDAA199000691AY161999GF108991071061004501021999IA1009KA1999M+01391MD1310121+9999MW1601
0035835870999991931120212004-19933-043933FM-12+091599999V0200501N002619999999N9999999N9+02501+99999101501ADDKA1999M+03001KA2999N+01781MW1111
0037104810999991931061706004+51533+013233FM-12+002999999V0202701N00101220001CN0020001N9+99999+99999999999ADDAY101061GF102991001001999999011999
0024990061999991931091423004+62000-033000SAO  +00004YA  V02099999999999999999N0000001N1+02571+02301999999ADDMA1999999101021MW1001
0037108180999991931061506004+48083+008767FM-12+029999999V0202701N01231220001CN0500001N9+99999+99999999999ADDAY101061GF101991011011008001001999
0071031590999991931110718004+56033-003133FM-12+005899999V0200901N001019999999N0100001N9+00891+00831099431ADDGA1011+999999019GF108991061061002501021999IA1089MD1810141+9999MW1611
0108033010999991931012207004+53217-003000FM-12+005299999V0202801N002619999999N0200001N9+00611+00561101061ADDAA199004091GA1011+999999019GF106991061051004501001001IA1089KA1999M+00611KA2999N+00611MD1310061+9999MW1211
0051116430999991931072512004+50750+015733FM-12+049199999V0202001N00671220001CN0200001N9+01221+00781099761ADDAY101999GF102991021051001501001001MD1810101+9999
0072827980999991931051212004-07100-034867FM-12+004799999V0201401N002619999999N9999999N9+02611+99999101351ADDAA124009091GF104991999999999999999999KA1999M+02781KA2999N+02221MW1111
0091125660999991931080218004+50083+019983FM-12+022299999V0200901N00101220001CN0100001N9+02221+99999101491ADDAY111999GF102991011011017501001011IA1009KA1999M+02721EQDQ01+000062APCTENQ02+000002APC3  
0072828990999991931051212004-08017-034850FM-12+006099999V0209991C000019999999N9999999N9+02501+99999101351ADDAA124011091GF104991999999999999999999KA1999M+02721KA2999N+02281MW1111
0057104690999991931050512004+51400+012217FM-12+004199999V0202501N00461004501CN0020001N9+01221+01001102001ADDAY161061GF108991061061004501999999MD1210141+9999MW1631
0072833610999991931111912004-15583-056100FM-12+016599999V0209991C000019999999N9999999N9+02281+99999100921ADDAA124026091GF107991999999999999999999KA1999M+03111KA2999N+02001MW1111
0051103930999991931100612004+52200+014117FM-12+003299999V0202001N00461220001CN0100001N9+01891+01221101971ADDAY111061GF106991041071012501001011MD1810181+9999
0091071900999991931063006004+48550+007633FM-12+015499999V0200201N00461220001CN0100001N9+01721+99999102141ADDAY101999GF102991001001999999001051IA1009KA1999N+01391EQDQ01+000032APCTENQ02+000002APC3  
0086033110999991931110918004+53317-004617FM-12+000899999V0202501N006719999999N0200001N9+01061+00611097621ADDGA1011+999999019GF104991041031004501001001IA1089EQDQ01+000032APCTENQ02+000002APC3  
0072837380999991931111012004-22317-044467FM-12+040499999V0209991C000019999999N9999999N9+02221+99999101221ADDAA124010091GF107991999999999999999999KA1999M+02781KA2999N+02001MW1501
0063014820999991931011112004+59033+010533FM-12+000999999V0202301N00671030001CN0200001N9+00221+99999099991ADDAY121999GF106991021051004501051001IA1209MD1810081+9999MW1051
0061839280999991931013012004-29750-057083FM-12+005699999V0209991C000019999999N9999999N9+02501+99999101381ADDGF102991999999999999999999KA1999M+03221KA2999N+01891MW1111
0043108100999991931080706004+48600+008200FM-12+035599999V0202701N00671000151CN0000001N9+99999+99999999999ADDAY141061GF109991091999000251999999MW1451
0043070070999991931022806004+50867+001750FM-12+012399999V0203401N01541004501CN0040001N9+00281+99999099131ADDAY161999GF108991081061004501999999MW1601
0102036970999991931021107004+51950+001333FM-12+000399999V0202101N004619999999N0100001N9+00221+00171101941ADDAA124999999GA1011+999999019GF106991001001999999011021IA1009KA1999M+00891KA2999N+00221MD1810081+9999
0089128400999991931092806004+47517+019017FM-12+013099999V0202301N002619999999N0200001N9+00721-00111101871ADDAY111999GF107991999001022501071999IA1009KA1999N+00501MD1810041+9999EQDQ01+000002SCOTLC
0024990061999991931061714004+62000-033000SAO  +00004YA  V02099999999999999999N0000001N1+02961+02461999999ADDMA1999999100641MW1001
0068030050999991931100306004+60133-001183FM-12+004899999V0202701N00671004501CN0100001N9+00721+99999100721ADDAA199001091AY181999GF106991061081004501001001IA1089MD1310481+9999
0059037750999991931022513004+51467-000317FM-12+000599999V0202601N006719999999N0040001N9+01171+00721102171ADDGA1011+999999019GF107991071051008001999999MD1810141+9999
0102030750999991931012107004+58450-003083FM-12+003699999V0201801N004619999999N0200001N9+00611+00391101161ADDAA199003091GA1011+999999019GF104991041051008001011001IA1089KA1999M+00611KA2999N+00171MD1810141+9999
0043154200999991931011706004+44483+026133FM-12+009299999V0202501N00461004501CN0005001N9-00111+99999100571ADDAY141999GF108991081999004501999999MW1281
0081105010999991931081718004+50783+006100FM-12+006399999V0202501N01231220001CN0200001N9+01611+01171101281ADDAA199004091AY181061GF104991041091008001031031IA1009KA1999M+01781MD1310041+9999
0061836840999991931062712004-21850-045300FM-12+096099999V0201401N002619999999N9999999N9+01891+99999101661ADDGF102991999999999999999999KA1999M+02391KA2999N+01111MW1111
0078100910999991931010918004+54600+013233FM-12+000199999V0202901N00261002401CN0100001N9+00001-00061102521ADDAY111999GF109991091999999999999999IA1209EQDQ01+000032APCTENQ02+000002APC3  
0095104880999991931073106004+51133+013767FM-12+007099999V0201601N001019999999N0040001N9+02001+01331101311ADDAY101061GF106991999001022501081091IA1009KA1999N+99999MD1210021+9999MW1051EQDQ01 +02282ATMN  
0091037660999991931083007004+51283-000750FM-12+006999999V0200501N004619999999N0040001N9+01441+01391101611ADDGA1011+999999019GF108991081051001501999999IA1009KA1999M+02111KA2999N+01331MD1310021+9999
0056600690999991931031018004+27933-013000FM-12+000599999V0202701N002619999999N0100001N9+01781+99999100792ADDAY111999GF106991041999017501999999EQDQ01+100793APOSLP
0059032620999991931080201004+55017-001417FM-12+003399999V0209991C000019999999N0040001N9+01391+01171101741ADDGA1011+999999019GF108991081051002501999999MD1310041+9999
0051100190999991931072812004+54917+008350FM-12+000599999V0202301N00931030001CN0100001N9+01721+99999999999ADDAY121999GF106991021031004501071999MD1110081+9999
0051104100999991931093009004+51400+006950FM-12+003799999V0201401N00461220001CN0200001N9+01391+00721101841ADDAY101031GF101991011011012501001001MD1810101+9999
0035833740999991931060912004-15967-050067FM-12+015199999V02099999999999999999N9999999N9+99999+99999999999ADDKA1999M+03221KA2999N+01721MW1111
0057060210999991931011918004+57117+008600FM-12+004699999V0200501N00261030001CN0200001N9+00111+99999100671ADDAY111999GF108991041061008001021001IA1089MD1310161+9999
0057100010999991931103118004+53600+006700FM-12+000499999V0202701N00261004501CN0100001N9+00721+00501102701ADDAY121999GF108991061051004501021999IA1009MD1310021+9999
0102033010999991931053007004+53217-003000FM-12+005299999V0201401N009319999999N0100001N9+01281+01061100521ADDAA199001091GA1011+999999019GF104991041051004501001001IA1089KA1999M+01891KA2999N+01001MD1310061+9999
0051128400999991931101412004+47517+019017FM-12+013099999V0203201N004619999999N0200001N9+02001+99999101571ADDAY111999GF106991011021999999081061MD1990281+9999
0059039730999991931060701004+54100-010067FM-12+000599999V0201801N002619999999N0100001N9+01331+01111100341ADDGA1011+999999019GF107991071081000251999999MD1810021+9999
0100121140999991931110506004+54433+016383FM-12+000299999V0201801N00461220001CN0020001N9+00891+00671101771ADDAY111999GF101991999001022501041001IA1009MW1051EQDQ01+000002SCOTLCQ02+000032APCTENQ03+000002APC3  
0051100060999991931060418004+54600+011150FM-12+999999999V0203201N00931007801CN0100001N9+01111+00671101771ADDAY121999GF108991081021008001999999MD1810101+9999
0037080010999991931052406004+43383-008367FM-12+005799999V0202001N00671220001CN0020001N9+01281+99999101301ADDAY111999GF104991041999004501999999
0095010100999991931060518004+69333+016133FM-12+000799999V0200201N01231007801CN0200001N9+00281+99999101451ADDAA199001091AY181999GF107991071081008001001001IA1089MW1161EQDQ01+000032APCTENQ02+000002APC3  
0057103480999991931092506004+52233+010483FM-12+002499999V0202901N00461004501CN0040001N9+00891+00831102591ADDAY141999GF108991081051004501999999MD1310121+9999MW1051
0065037660999991931040313004+51283-000750FM-12+006999999V0203401N002619999999N0020001N9+00611+00561100451ADDGA1011+999999019GF108991081061002501999999MD1310161+9999MW1501
0024990061999991931122315004+62000-033000SAO  +00004YA  V02099999999999999999N0000001N1+02021+01071999999ADDMA1999999102031MW1001
0057063100999991931031112004+51567-003500FM-12+000999999V0203201N00671002401CN0040001N9+00221+99999100291ADDAY171999GF107991071061002501999999MD1310141+9999MW1261
0081072400999991931011606004+47417+000783FM-12+011299999V0202301N00261000601CN0002001N9+00391+99999102421ADDAA199001091AY151999GF109991091999000751999999IA1089KA1999N+00221MD1710041+9999
0057101200999991931111506004+54183+007883FM-12+005099999V0200901N00461002401CN0100001N9+00721+99999102001ADDAY121999GF108991081041002501999999IA1009MD1310161+9999
0091031000999991931033107004+56483-006867FM-12+000999999V0201601N015419999999N0100001N9+00441+00061101641ADDGA1011+999999019GF107991001001999999091091IA1009KA1999M+00721KA2999N+00441MD1810061+9999
0029040060999991931060906004+66167-023217FM-12+000699999V0203601N009319999999N9999999N9+00391+99999102581ADDGF108991999051999999999999
0089124250999991931042918004+51133+016967FM-12+003799999V0201801N001019999999N0100001N9+01001+00611101041ADDAY111999GF107991999001012501071001IA1009KA1999M+01281MD1310061+9999EQDQ01+000002SCOTLC
0071039530999991931031018004+51933-010250FM-12+000999999V0200101N006719999999N0200001N9+00721+00111101241ADDGA1011+999999019GF106991061081008001001001IA1089MD1310101+9999MW1161
0051107630999991931072312004+49483+011100FM-12+009699999V0201801N00261220001CN0200001N9+02391+01111102121ADDAY101061GF100991001001999999001001MD1810121+9999
0123033480999991931060807004+53983-001550FM-12+014699999V0209991C000019999999N0005001N9+00941+00891100431ADDAA199013091GA1011+999999019GF108991081051000251999999IA1089KA1999M+01561KA2999N+00941EQDQ01+000032APCTENQ02+000002APC3  
