0102037950999991932072107004+51083+001017FM-12+010499999V0203401N004619999999N0100001N9+01331+01111101461ADDAA124999999GA1011+999999019GF104991041051012501001001IA1089KA1999M+02111KA2999N+01281MD1310081+9999
0051100460999991932090912004+54383+010150FM-12+000999999V0201401N00461220001CN0100001N9+02221+01781101361ADDAY111999GF104991001001999999001081MD1990021+9999
0081029750999991932102506004+60250+025033FM-12+001599999V0203201N00461220001CN0500001N9+00111+99999099111ADDAA199002091AY101999GF100991001001999999001001IA1089KA1999N+00001MD1310301+9999
0037389110999991932032609004+37833+065250FM-12+024299999V0200501N00461220001CN0040001N9+02611+99999101401ADDAY101999GF100991001001999999001001
0102037660999991932053107004+51283-000750FM-12+006999999V0209991C000019999999N0040001N9+01111+00891101531ADDAA124999999GA1011+999999019GF101991011011004501001081IA1089KA1999M+01561KA2999N+00501MD1810101+9999
0057061800999991932121918004+55617+012650FM-12+000599999V0202001N00101220001CN0040001N9+00501+99999102731ADDAY141999GF101991011041004501001001IA1009MD1110041+9999
0043238490999991932042214004+61250+073400FM-12+004099999V0203601N00461220001CN0040001N9+00111+99999102711ADDAY101999GF100991001001999999001001IA1109
0009726815241061932083007004+43050-115883SAO  +0913MUO  V0203381N005712200019N0320001N1+00301+99999999999ADDMW1001
0024990061999991932061619004+62000-033000SAO  +00004YA  V02099999999999999999N0000001N1+02851+02571999999ADDMA1999999100271MW1001
0102122050999991932022206004+53400+014633FM-12+000199999V0202701N00461004501CN0040001N9+00281+00221101351ADDAA199000591AY161999GF107991071051004501999999IA1089KA1999N+00221EQDQ01+000032APCTENQ02+000002APC3  
0024990061999991932121710004+62000-033000SAO  +00004YA  V02099999999999999999N0000001N1+01631+00521999999ADDMA1999999101961MW1001
0037339760999991932063005004+45033+035383FM-12+000899999V0203201N00461220001CN0100001N9+99999+99999999999ADDAY111999GF102991001001999999001999
0100224710999991932080404004+65833+044267FM-12+001699999V0202701N002619999999N0040001N9+01781+99999101391ADDAA199015091AY151999GF107991999031002501001001IA1109KA1999N+01721MD1310121+9999EQDQ01+000092SCOTLC
0089268500999991932072105004+53783+027567FM-12+022699999V0203401N00461220001CN0100001N9+01501+99999100871ADDAY111999GF100991001001999999001001IA1089KA1999N+01221MD1210081+9999EQDQ01+000012SCOTCV
0051102240999991932120912004+53083+008783FM-12+000499999V0200501N004619999999N0100001N9+00111+99999102871ADDAY111999GF107991041071008001031999MD1710021+9999
0043107620999991932120306004+49300+012833FM-12+012599999V0209991C00001000151CN0000001N9+99999+99999999999ADDAY141061GF109991091999000251999999MW1451
0024990061999991932040710004+62000-033000SAO  +00004YA  V02099999999999999999N0000001N1+01961+01851999999ADDMA1999999101021MW1001
0057266660999991932102511004+55200+030200FM-12+015099999V0202701N00461012001CN0100001N9+00891+99999099581ADDAY121999GF107991071091012501999999MD1210141+9999MW1621
0102037950999991932022607004+51083+001017FM-12+010499999V0201001N002619999999N0040001N9+00111+00061102531ADDAA124999999GA1011+999999019GF107991041051008001031001IA1089KA1999M+00561KA2999N+00111MD1310141+9999
0057279950999991932101210004+53000+049417FM-12+999999999V0203601N00671007501CN0020001N9+00721+99999102901ADDAY121999GF106991061051008001001001MD1010001+9999MW1091
0070101470999991932112818004+53633+010000FM-12+000599999V0202901N00671220001CN0100001N9+00501+00281102431ADDAY111999GF102991021041012501001001IA1009KA1999M+00781MD1310361+9999
0091103080999991932111306004+52417+007067FM-12+000999999V0201101N00461004501CN0100001N9+00281+00061103831ADDAY121999GF106991061051004501001001IA1009KA1999N+00221EQDQ01+000032APCTENQ02+000002APC3  
0076103480999991932091506004+52233+010483FM-12+002499999V0209991C00001004501CN0020001N9+01611+01561102951ADDAY121999GF108991081051004501999999IA1009KA1999N+00001MD1310121+9999MW1051
0051133340999991932061412004+43517+016433FM-12+012899999V0202001N00671220001CN0100001N9+02391+01441101421ADDAY111999GF101991011011012501011001MD1990021+9999
0037040060999991932072512004+66167-023217FM-12+000699999V0203601N004619999999N9999999N9+01001+99999102121ADDAY111061GF106991061061999999999999
0009726815241061932070208004+43050-115883SAO  +0913MUO  V0203151N008212200019N0320001N1+02131+99999999999ADDMW1001
0037077470999991932071618004+42733+002867FM-12+004599999V0202901N00671036001CN0200001N9+02281+99999100581ADDAY121999GF106991041021008001041999
0051385070999991932040609004+40000+053000FM-12-000799999V0201101N00101220001CN0000001N9+01611+99999101321ADDAY101999GF100991001001999999001001MD1810061+9999
0063220190999991932042117004+69183+033500FM-12+999999999V0201601N00931004201CN0040001N9-00221+99999100521ADDAY171999GF108991081061004501999999IA1319MD1810201+9999MW1701
0067225220999991932111705004+64950+034483FM-12+001399999V0203201N00671012001CN0040001N9-00281+99999099671ADDAA199000691AY181999GF107991071051012501999999IA1189KA1999N-00391
0009726810241311932120210004+43567-116217SAO  +0874BOI  V0201351N001510120019N0320001N1+00581+99999999999ADDMW1611
0100284400999991932012115004+56733+060633FM-12+028899999V0202701N00461220001CN0040001N9-00611+99999101062ADDAA199000691AY171999GF104991001001999999001011IA1319KA1999M+00001MD1310421+9999EQDQ01+101063APOSLP
0037014820999991932080818004+59033+010533FM-12+000999999V0202501N00461220001CN0200001N9+01781+99999101421ADDAY101999GF104991041021012501051999
0051262100999991932061712004+58383+021817FM-12+000799999V0201601N00671007801CN0100001N9+01391+99999101471ADDAY111999GF106991061071008001999999MD1310061+9999
0057378500999991932112404004+40350+049833FM-12-001099999V0202301N00461015001CN0020001N9+00781+99999103131ADDAY111999GF108991071041017501001051IA1009MD1310061+9999
0093370000999991932072104004+44733+037650FM-12+003799999V0209991C00001012001CN0020001N9+02001+99999100671ADDAJ100009199999999AY111999GF107991071061012501041999IA1089KA1999N+01721MD1610021+9999MW1101
0037085450999991932040318004+41133-008667FM-12+002599999V02099999006719999999N0040001N9+01111+99999100011ADDAY121999GF107991021999001501999999
0063014270999991932022306004+58100+006567FM-12+000999999V0203201N01231007801CN0200001N9+00611+99999101671ADDAY101999GF106991061051008001001001IA1009MD1810081+9999MW1051
0070286980999991932092914004+54917+073400FM-12+009499999V0201401N00461220001CN0040001N9+01391+99999101881ADDAY101999GF101991001001999999031999IA1009KA1999M+01611MD1810121+9999
0057100050999991932080406004+54017+008217FM-12+999999999V0201801N00101004501CN0020001N9+01501+99999999999ADDAY121999GF108991081041004501999999MD1310021+9999MW1051
0051239330999991932092508004+60967+069067FM-12+012899999V0202701N01231001201CN0002001N9+00721+99999999999ADDAY121999GF108991081091001501999999MD1310021+9999
0076267020999991932052200004+54733+020567FM-12+000999999V0200201N00101220001CN0040001N9+01501+01281100951ADDAY101999GF104991999001022501081021MD1810101+9999MW1051EQDQ01+000002SCOTLC
0051060810999991932062612004+55550+008083FM-12+001599999V0202501N00461007801CN0200001N9+01391+99999101351ADDAY111999GF107991071051008001001001MD1310101+9999
0100103840999991932110818004+52483+013433FM-12+001799999V0201101N002619999999N0020001N9+00781+00561101961ADDAA199000691AY111999GF107991999001017501031999IA1089KA1999M+00891MD1210041+9999EQDQ01+000002SCOTLC
0065031590999991932080418004+56033-003133FM-12+005899999V0202501N006719999999N0200001N9+01671+01611101131ADDGA1011+999999019GF104991021011008001041001IA1009MD1810081+9999
0102030560999991932052107004+56933-004233FM-12+035899999V0200701N001019999999N0200001N9+01001+00941101131ADDAA199001091GA1011+999999019GF108991021041002501021001IA1089KA1999M+01331KA2999N+00781MD1310061+9999
0071030910999991932080218004+57167-002200FM-12+007199999V0202301N004619999999N0100001N9+01331+01111100861ADDGA1011+999999019GF108991041061004501021999IA1089MD1810061+9999MW1611
0057374840999991932052616004+41650+041633FM-12+000399999V0209991C00001220001CN0040001N9+01611+99999101901ADDAY111999GF107991001001999999001011IA1009MD1310041+9999
0043105610999991932112606004+50467+011450FM-12+019599999V0202701N00931001501CN0020001N9+99999+99999999999ADDAY161061GF108991081061001501999999MW1601
0070348800999991932060310004+46350+048033FM-12-002599999V0202901N00671220001CN9999999N9+02891+99999101331ADDAY101999GF102991999001999999081001MD1810061+9999EQDQ01+000002SCOTLC
0087109610999991932072718004+47417+010983FM-12+090399999V0202901N00261000151CN0000001N9+00221+00171100741ADDAA199004091AY191061GF109991091999000251999999IA1089KA1999M+00501MD1310021+9999MW1451
0070071100999991932092106004+48333-004767FM-12+003299999V0200701N00671001501CN0100001N9+01721+99999101411ADDAY121999GF108991081051001501999999IA1009KA1999N+01611MD1310141+9999
0125345040999991932111205004+48550+035100FM-12+006299999V0203401N004619999999N0040001N9-00221+99999999999ADDAJ100009199999999AY101999GF106991999051008001999999HL10009IA1199IA2999-00229KA1999N-00281MD1810041+9999EQDQ01+000072SCOTLC
0024990061999991932020817004+62000-033000SAO  +00004YA  V02099999999999999999N0000001N1+01691+01571999999ADDMA1999999100951MW1001
0037206490999991932063015004+73267+056400FM-12+001899999V0202301N001019999999N9999999N9+00221+99999100861ADDAY141999GF107991001001999999001999
0116037460999991932080607004+51167-001750FM-12+012699999V0202501N002619999999N0005001N9+01561+01501102501ADDGA1011+999999019GF108991081051000251999999IA1089KA1999M+02281KA2999N+01501MD1310021+9999MW1441EQDQ01+000452PRSWM1
0091038940999991932072007004+49450-002550FM-12+010499999V0203401N004619999999N0100001N9+01561+01281102101ADDGA1011+999999019GF104991041081008001001001IA1009KA1999M+01831KA2999N+01441MD1810081+9999
0037378500999991932052010004+40350+049833FM-12-001099999V0203601N01541007501CN0040001N9+01501+99999101471ADDAY111999GF107991071051008001001001
0037166130999991932112612004+40800+021417FM-12+068099999V0200501N00261220001CN0040001N9+01501+99999999999ADDAY101999GF100991001001999999001001
0091033960999991932061307004+53583-000117FM-12+000999999V0200601N006719999999N0040001N9+01061+01001102231ADDGA1011+999999019GF108991081051002501999999IA1009KA1999M+01941KA2999N+00941MD1310061+9999
0070103840999991932101018004+52483+013433FM-12+001799999V0201601N00261030001CN0200001N9+01281+00831100261ADDAY121999GF107991021051008001031999IA1009KA1999M+01501MD1310101+9999
0070103840999991932061221004+52483+013433FM-12+001799999V0200901N00261220001CN0500001N9+01781+00561101901ADDAY101999GF100991001001999999001001MD1110061+9999EQDQ01+000012SCOTCV
0076123750999991932073006004+52183+020967FM-12+010799999V0202501N00261220001CN0040001N9+02001+01561101831ADDAY121999GF108991999001999999011001MD1110021+9999MW1051EQDQ01+000002SCOTLC
0108335870999991932123017004+48750+030217FM-12+021999999V0202701N00101007501CN0010001N9-00391+99999103371ADDAA199000691AY121999GF108991081051008001999999IA1139KA1999M-00391MW1121EQDQ01+000032APCTENQ02+000002APC3  
0063101310999991932030606004+53867+008717FM-12+000199999V0201801N00261002401CN0010001N9+00111+99999100401ADDAY121999GF108991081031002501999001IA1009MD1810101+9999MW1051
0051349290999991932081910004+45033+039650FM-12+003599999V0201601N00101220001CN0040001N9+02781+99999101281ADDAY111999GF104991041011008001001001MD1990021+9999
0061825790999991932110112004-05083-042650FM-12+008499999V0200901N002619999999N9999999N9+02891+99999101221ADDGF107991999999999999999999KA1999M+03721KA2999N+02391MW1111
0070105010999991932041818004+50783+006100FM-12+006399999V0203601N00261030001CN0200001N9+00721-00111101121ADDAY121061GF106991041041004501041999IA1009KA1999M+00781MD1810021+9999
0051339940999991932061705004+44617+033533FM-12+000899999V0200701N004619999999N9999999N9+01781+99999100921ADDAY111999GF107991001001999999031999MD1990061+9999
0070228200999991932111205004+61783+034383FM-12+006799999V0203601N00671220001CN0020001N9+00001+99999103351ADDAY111999GF101991011051004501001001IA1139KA1999N-00111MD1210421+9999
0070105010999991932071418004+50783+006100FM-12+006399999V0203201N00461030001CN0100001N9+02111+01441100821ADDAY121061GF107991041081008001031061IA1009KA1999M+02281MD1610041+9999
0043085360999991932031512004+38733-009183FM-12+022799999V0201401N00671001501CN0020001N9+01221+99999100621ADDAY161999GF108991081999001501999999MW1631
0062100020999991932062118004+53767+006067FM-12+999999999V0203401N00261030001CN0200001N9+01501+01281999999ADDAA199000691AY111999GF106991021081012501061999MD1310021+9999
0043236310999991932013103004+63933+065067FM-12+004099999V0201801N002619999999N0002001N9-01391+99999999999ADDAY171999GF108991001999999999999001MW1711
0063239330999991932072214004+60967+069067FM-12+012899999V0203201N00261002101CN0020001N9+01281+99999999999ADDAY151999GF108991081091002501999999IA1089MD1810141+9999MW1501
0062347270999991932061404004+46717+038267FM-12+000399999V0201601N004619999999N0100001N9+99999+99999999999ADDAY161999GF108991999051008001051999MW1211EQDQ01+000002SCOTLC
0043161700999991932121806004+43800+011200FM-12+007399999V0209991C00001000151CN0000001N9+00111+99999103341ADDAY141999GF109991091999000251999999MW1451
0062106850999991932012418004+50300+011867FM-12+017399999V0200901N00261220001CN0020001N9-00281-00331104451ADDAY111061GF102991021051008001001001IA1139KA1999M+00001MW1051
0081267020999991932120906004+54733+020567FM-12+000999999V0202901N00261007801CN0100001N9+00111-00221102161ADDAA199000391AY181999GF107991061051008001021999IA1009KA1999N-00111MD1310201+9999
0070265090999991932052912004+55700+021133FM-12+000199999V0203601N00461220001CN0100001N9+01781+01111101871ADDAY111999GF102991999071008001001001MD1610221+9999EQDQ01+000012SCOTLC
0061839070999991932011012004-28400-054967FM-12+025799999V0203601N002619999999N9999999N9+02221+99999101001ADDGF102991999999999999999999KA1999M+02721KA2999N+02111MW1111
0051104100999991932041909004+51400+006950FM-12+003799999V0203201N00101007801CN0100001N9+00611+00391101201ADDAY121031GF107991061071008001021999MD1510021+9999
0051374840999991932042310004+41650+041633FM-12+000399999V0203401N00261015001CN0100001N9+01001+99999101771ADDAY121999GF109991081051017501999999MD1310061+9999
0065039530999991932020718004+51933-010250FM-12+000999999V0200501N006719999999N0200001N9+00891+00441102441ADDGA1011+999999019GF106991061051004501001001IA1089MD1310141+9999
0051021960999991932032412004+65833+024150FM-12+000999999V0201801N00671220001CN0500001N9+00001+99999101701ADDAY111999GF102991001001999999001031MD1810201+9999
0072838420999991932051112004-25417-049283FM-12+094999999V0209991C000019999999N9999999N9+01221+99999101841ADDAA124001091GF108991999999999999999999KA1999M+01891KA2999N+01001MW1401
0065039520999991932101913004+51800-008250FM-12+000799999V0202301N009319999999N0040001N9+01171+01111101541ADDGA1011+999999019GF108991081061002501999999MD1810481+9999MW1631
0063060210999991932012018004+57117+008600FM-12+004699999V0202001N00101002401CN0010001N9+00721+99999103121ADDAY141999GF108991081051002501001001IA1089MD1310041+9999MW1281
0051012030999991932111412004+62033+004983FM-12+004199999V0201801N015419999999N0100001N9+00501+99999103341ADDAY161999GF108991041051004501071999MD1710161+9999
0095264220999991932032206004+56983+024083FM-12+000299999V0209991C00001220001CN0010001N9-01281+99999103181ADDAY101999GF100991001001999999001001IA1309KA1999N-01501MD1310141+9999MW1101EQDQ01+002902WODIR 
0057103840999991932102104004+52483+013433FM-12+001799999V0202301N00671001501CN0040001N9+00781+00721100271ADDAY161999GF108991081061001501999999MD1810161+9999MW1631
0106260630999991932020506004+59983+030283FM-12+000599999V0200701N00671007801CN0040001N9-01391+99999101991ADDAA199001091AY171999GF106991061061008001999999IA1309KA1999N-01391MD1310522+9999MW1361EQDQ01+000522APC3  
0076357000999991932102504004+47067+051917FM-12-002199999V0201401N00101220001CN0002001N9+00111+99999102431ADDAY101999GF100991001001999999001001IA1089KA1999N-00111MD1310121+9999MW1461
0037236780999991932022107004+63167+088017FM-12+005599999V0201801N00671021001CN0200001N9-01501+99999102371ADDAY111999GF107991061001022501051999
0122268500999991932012317004+53783+027567FM-12+022699999V0202901N00261220001CN0010001N9+00001+99999099602ADDAA199000691AY171999GF102991999051004501999999IA1189KA1999M+00001MD1990061+9999MW1121EQDQ01+000082SCOTLCQ02+099603APOSLP
0108038140999991932112107004+49950-005200FM-12+007399999V0202901N004619999999N0200001N9+00721+00501101361ADDAA124999999GA1011+999999019GF104991041081012501001001IA1089KA1999M+01111KA2999N+00721MD1310121+9999MW1251
0081105540999991932051806004+51017+011033FM-12+005699999V0202701N00671012301CN0200001N9+01391+01171102631ADDAA124999999AY111061GF106991061051012501001001IA1089KA1999N+01001MD1310141+9999
0087370990999991932093004004+43633+039750FM-12+999999999V0200501N00261220001CN0040001N9+01781+99999102111ADDAJ100009199999999AY111999GF104991021021008001051001IA1009KA1999N+01721MD1310061+9999
0051104990999991932051912004+51150+014950FM-12+007299999V0203201N00101220001CN0100001N9+02221+01001102371ADDAY101061GF101991011011017501001011MD1810201+9999
0072226290999991932073112004+54917+023933FM-12+008399999V0202501N00101220001CN0100001N9+02391+99999101891ADDAY111999GF104991041011017501001011EQDQ01+000032APCTENQ02+000002APC3  
0051319600999991932032004004+43117+131917FM-12+012899999V0203401N00931012001CN0200001N9+00111+99999101281ADDAY111999GF106991061011012501999999MD1810121+9999
0070014820999991932070712004+59033+010533FM-12+000999999V0202501N01231220001CN0200001N9+01781+99999999999ADDAY101999GF101991011071017501001001MD1310301+9999EQDQ01+102293APOSLP
0024990061999991932041208004+62000-033000SAO  +00004YA  V02099999999999999999N0000001N1+02351+02241999999ADDMA1999999101081MW1001
0051104160999991932092603004+51533+007583FM-12+002199999V0202301N00101220001CN0200001N9+99999+99999999999ADDAY121031GF104991021051008001031001MD1810061+9999
0087108650999991932112418004+48183+011550FM-12+015599999V0202701N01901001501CN0040001N9+00391+00171101241ADDAA199013091AY161061GF108991081061001501999999IA1089KA1999M+00611MD1510041+9999MW1681
0037040630999991932010312004+65683-018083FM-12+000799999V0201801N004619999999N9999999N9-01281+99999100701ADDAY111061GF106991999999999999999021
0070072570999991932041306004+47050+002650FM-12+017999999V0209991C00001220001CN0040001N9+00001+99999103371ADDAY101999GF100991001001999999001001IA1139KA1999N-00221MD1310121+9999
0080033960999991932071701004+53583-000117FM-12+000999999V0203601N006719999999N0100001N9+01391+01331100641ADDGA1011+999999019GF107991041041008001021999EQDQ01+000032APCTENQ02+000002APC3  
0057226290999991932021412004+54917+023933FM-12+008399999V0209991C00001220001CN0020001N9-00781+99999102341ADDAY111999GF106991001001999999031999MD1110041+9999MW1211
0059038940999991932020501004+49450-002550FM-12+010499999V0201001N002619999999N0100001N9+00781+00561102921ADDGA1011+999999019GF104991041081008001001001MD1810101+9999
0081104880999991932120806004+51133+013767FM-12+007099999V0203401N00461004501CN0200001N9+00001-00221102481ADDAA199001091AY171061GF108991081061004501999999IA1159KA1999N-00111MD1110161+9999
0051282250999991932061309004+58017+056267FM-12+016799999V0200201N00461220001CN0100001N9+02001+99999102351ADDAY111999GF102991021011999999001001MD1010001+9999
0087114640999991932010418004+50550+013933FM-12+084099999V0209991C00001007801CN0040001N9+00501+99999102231ADDAA199004091AY161999GF108991071051008001021999IA1109KA1999M+01001MD1110161+9999MW1511
0081129410999991932062118004+46100+018250FM-12+015499999V0201801N00101012301CN0100001N9+02781+99999100951ADDAA199000691AY111999GF107991071051012501999999IA1009KA1999M+03001MD1810321+9999
0065036550999991932071418004+51933-001250FM-12+012899999V0200501N004619999999N0200001N9+01941+01501100921ADDGA1011+999999019GF106991041021012501001061IA1009MD1310041+9999
0076278150999991932110705004+53567+037050FM-12+024999999V0202501N00101000151CN0000001N9+00501+99999103021ADDAY141999GF109991091999999999999999IA1109KA1999N+00391MD1210041+9999MW1471
0059031590999991932122301004+56033-003133FM-12+005899999V0201401N004619999999N0200001N9+00891+00671101021ADDGA1011+999999019GF108991081051004501999999MD1810201+9999
0043113090999991932102506004+46967+009917FM-12+043899999V0202701N00461002401CN0040001N9+99999+99999999999ADDAY161061GF108991081061002501999999MW1611
0070239140999991932072415004+60400+056517FM-12+016499999V0200501N00461220001CN0200001N9+02111+99999100521ADDAY111999GF101991011051012501001001IA1009KA1999M+02281MD1810041+9999
0051100010999991932042712004+53600+006700FM-12+000499999V0202901N00461220001CN0100001N9+00891+00671101261ADDAY111999GF104991021011012501011001MD1310261+9999
0037104340999991932091512004+51533+009017FM-12+006199999V0202701N00101002401CN0040001N9+99999+99999999999ADDAY121061GF108991081051002501999999
0059030260999991932011701004+58217-006333FM-12+000399999V0201801N002619999999N0100001N9+00501+00441099761ADDGA1011+999999019GF107991061031008001021001MD1310281+9999
0037040060999991932022718004+66167-023217FM-12+000699999V0209991C00001000151CN9999999N9+00611+99999103001ADDAY121061GF108991071061000251999999
0084339940999991932082917004+44617+033533FM-12+000899999V0209991C00001220001CN9999999N9+02221+99999101411ADDAY101999GF100991001001999999001001IA1009MW1081EQDQ01+000032APCTENQ02+000002APC3  
0073109350999991932112506004+47667+009500FM-12+012299999V0202501N00931004501CN0100001N9+00721+00501101931ADDAA199006091AY161061GF108991081061004501999999IA1109KA1999N+00611MW1611
0037600960999991932060512004+23683-015900FM-12+000699999V0203601N01541220001CN0100001N9+02111+99999101931ADDAY101999GF100991001999999999999999
0037161700999991932060706004+43800+011200FM-12+007399999V0209991C000019999999N0040001N9+01891+99999101651ADDAY111999GF106991041999012501999999
0102037770999991932022807004+51350-000117FM-12+006699999V0200801N009319999999N0100001N9-00111-00171102591ADDAA124999999GA1011+999999019GF107991071051004501999999IA1089KA1999M+00831KA2999N-00111MD1310021+9999
0091039730999991932060807004+54100-010067FM-12+000599999V0202701N001019999999N0100001N9+01331+01111102511ADDGA1011+999999019GF104991041051000251001001IA1009KA1999M+01391KA2999N+01061MD1810021+9999
0057283670999991932081609004+57167+065533FM-12+008099999V0200201N00261004201CN0020001N9+01781+99999102871ADDAY111999GF108991081051004501001001MD1810061+9999MW1051
0107236780999991932091213004+63167+088017FM-12+005599999V0202301N002619999999N0200001N9+00891+99999101601ADDAY111999GF106991999001999999031001IA1089KA1999M+01111EQDQ01+000002SCOTLCQ02+000032APCTENQ03+000002APC3  
0037206490999991932080503004+73267+056400FM-12+001899999V0202901N00671220001CN9999999N9+99999+99999999999ADDAY111999GF102991011051012501041999
0070282750999991932090514004+58200+068233FM-12+010099999V0200501N00101007501CN0100001N9+01281+99999101011ADDAY111999GF106991061051008001001001IA1009KA1999M+01781MD1810101+9999
0051277030999991932072011004+54517+036250FM-12+019199999V0200901N004619999999N0100001N9+02001+99999100031ADDAY161999GF107991071061999999001001MD1310021+9999
0051108660999991932032412004+48183+011550FM-12+052099999V0200901N00461220001CN0200001N9-00111+99999102251ADDAY101061GF102991021011017501001001MD1810081+9999
0112370000999991932070204004+44733+037650FM-12+003799999V0209991C00001220001CN0040001N9+99999+99999101271ADDAJ100009199999999AY191999GF100991001001999999001001IA1009KA1999N+01611MD1990021+9999MW1051EQDQ01 -04003ATOT  
0037600200999991932022712004+28467-016267FM-12+003799999V0201801N002619999999N0200001N9+01001+99999102031ADDAY111999GF108991041999999999999999
0051106090999991932031009004+49750+006667FM-12+008199999V0200501N00461007801CN0100001N9-00111+99999101281ADDAY121031GF107991071081008001001999MD1310101+9999
0068010010999991932052518004+70983-008333FM-12+002399999V0202301N00461004501CN0200001N9+00221+99999101661ADDAA199000691AY121999GF107991061051004501999091IA1089MD1810141+9999
0043010100999991932051806004+69317+016133FM-12+000799999V0209991C00001007801CN0100001N9+00721+99999101771ADDAY161999GF108991081061008001999999MW1601
0065038560999991932120918004+50533-002450FM-12+001099999V0200801N012319999999N0100001N9+00281+00061102311ADDGA1011+999999019GF108991081041008001999999IA1009MD1310021+9999
0063101310999991932082106004+53867+008717FM-12+000199999V0202301N00101000151CN0000501N9+02111+99999101281ADDAY141999GF109991091999999999999999IA1009MD1310081+9999MW1471
0076105130999991932121406004+50983+006900FM-12+001599999V0201401N004619999999N0040001N9+00281-00111102301ADDAY121061GF107991999001022501031001IA1009KA1999N+00001MD1210101+9999MW1051
0123036550999991932032707004+51933-001250FM-12+012899999V0201601N004619999999N0010001N9+00501+00441100801ADDAA199004091GA1011+999999019GF108991081051000751999999IA1089KA1999M+01111KA2999N+00441EQDQ01+000032APCTENQ02+000002APC3  
0057100670999991932081506004+54500+011250FM-12+000399999V0201601N00461004501CN0040001N9+01891+99999999999ADDAY121999GF108991081051004501999999IA1009MD1310061+9999
0102031710999991932011407004+56383-002883FM-12+001199999V0202301N012319999999N0200001N9+00281-00111100641ADDAA199002091GA1011+999999019GF101991011041012501001001IA1089KA1999M+01061KA2999N+00171MD1310181+9999
0102039170999991932032907004+54650-006217FM-12+006799999V0201801N004619999999N0100001N9+00561+00501099251ADDAA124999999GA1011+999999019GF106991041051004501031001IA1089KA1999M+01221KA2999N+00391MD1310021+9999
0061839670999991932112812004-30033-051217FM-12+002399999V0201801N002619999999N9999999N9+02501+99999101501ADDGF102991999999999999999999KA1999M+02891KA2999N+01891MW1111
0084036930999991932010718004+51533+000817FM-12+000399999V0202301N002619999999N0040001N9+00441+00391099641ADDGA1011+999999019GF199999001001999999001001IA1089MD1810161+9999EQDQ01+000002SCOTCV
0127295740999991932090201004+56033+092750FM-12+026899999V0202001N00461220001CN0040001N9+01221+99999102001ADDAJ100009199999999AY101999GF100991001001999999001001HL10009IA1009IA2999+00509KA1999N+00611EQDQ01+000032APCTENQ02+000002APC3  
0078070050999991932030812004+50133+001850FM-12+007199999V0202901N00461002401CN0040001N9+00501+99999101021ADDAY161999GF108991081061002501999999MW1611EQDQ01+000032APCTENQ02+000002APC3  
0057260940999991932122311004+59650+033533FM-12+004999999V0202301N00101007501CN0020001N9-00221+99999102441ADDAY171999GF108991081061008001999999MD1810081+9999MW1731
0051121160999991932100615004+54450+017000FM-12+001299999V0209991C00001220001CN0200001N9+01111+00221102311ADDAY101999GF102991021071008001001001MD1310021+9999
0051286790999991932033108004+54883+069117FM-12+013699999V0202501N00671220001CN0200001N9+00111+99999102661ADDAY171999GF102991001001999999001051MD1310021+9999
0072101700999991932091912004+54183+012100FM-12+000299999V0203201N00461004501CN0100001N9+01611+01331100511ADDAY121999GF108991081081004501999999EQDQ01+000042APCTENQ02+000142APC3  
0081029750999991932090406004+60250+025033FM-12+001599999V0202501N004619999999N0200001N9+01501+99999098691ADDAA199001091AY161999GF107991021021012501001051IA1089KA1999N+01221MD1010001+9999
0051075100999991932071712004+44833-000700FM-12+004899999V0202701N00261007801CN0100001N9+02111+99999100871ADDAY181999GF106991061001008001999001MD1310041+9999
0070380620999991932011003004+44850+065450FM-12+012999999V0200501N002619999999N0040001N9-01001+99999102901ADDAY121999GF107991071999012501031999IA1309KA1999N-01001MD1990061+9999
0068011060999991932071406004+67500+012067FM-12+001199999V0202701N00461004501CN0500001N9+01001+99999101451ADDAA199001091AY121999GF108991061051004501021999IA1009MD1710081+9999
0057319960999991932020122004+43733+135267FM-12+000899999V0200701N00101220001CN0040001N9-02391+99999103291ADDAY101999GF100991001001999999001001IA1319MD1310021+9999
0057319960999991932032222004+43733+135267FM-12+000899999V0209991C00001220001CN0100001N9-01391+99999102611ADDAY101999GF100991001001999999001001IA1309MD1110101+9999
0081268500999991932100405004+53783+027567FM-12+022699999V0202901N00261004201CN0040001N9+00501+99999100921ADDAA199000591AY121999GF107991071051004501999999IA1089KA1999N+00391MD1210341+9999
0051100020999991932010818004+53767+006067FM-12+999999999V0200201N00261220001CN0500001N9+00611+00391999999ADDAY111999GF101991011031012501001001MD1310101+9999
0112033790999991932082407004+53033-000500FM-12+006299999V0200201N001019999999N0200001N9+01171+00721103011ADDGA1011+999999019GF108991081051012501999999IA1009KA1999M+01941KA2999N+01061EQDQ01+000032APCTENQ02+000002APC3  
0076075770999991932081106004+44583+004717FM-12+007599999V0202001N00261001501CN0020001N9+01781+99999101791ADDAY121999GF108991081051001501999999IA1009KA1999N+01391MD1310101+9999MW1051
0051122050999991932020312004+53400+014633FM-12+000199999V0203401N00101220001CN0500001N9+00281-00501102781ADDAY101999GF101991011071008001001001MD1310061+9999
0084037480999991932081918004+51067-001317FM-12+008399999V0201501N001019999999N0200001N9+02831+02111101731ADDGA1011+999999019GF199999001001999999001001IA1009MD1810101+9999EQDQ01+000002SCOTCV
0070112310999991932120118004+46667+014333FM-12+044899999V0209991C00001220001CN0040001N9+00391+99999102191ADDAY121061GF102991021051017501001001IA1089KA1999M+00721MD1990081+9999
0103010980999991932022718004+70367+031100FM-12+001299999V0203201N01901004501CN0500001N9+00001+99999101812ADDAA199000391AY171999GF108991081061004501999999IA1319MD1310562+9999EQDQ01+101813APOSLPQ02+000562APC3  
0037238040999991932020710004+61667+050850FM-12+012299999V0209991C00001220001CN0020001N9-02391+99999102751ADDAY111999GF104991001001999999001999
0073389110999991932100303004+37833+065250FM-12+024299999V0203201N00101220001CN0200001N9+01111+99999102001ADDAJ100009199999999AY101999GF100991001001999999001001IA1009KA1999N+01001
0037040970999991932121718004+65267-013583FM-12+000899999V0209991C00001220001CN9999999N9-00111+99999096621ADDAY111061GF100991001001999999001001
0091125660999991932062906004+50083+019983FM-12+022299999V0209991C00001220001CN0040001N9+02001+99999101801ADDAY101999GF100991001001999999001001IA1009KA1999N+01001EQDQ01+000032APCTENQ02+000002APC3  
0048100060999991932052618004+54600+011150FM-12+999999999V0202001N00261007801CN0100001N9+99999+99999100511ADDAA199002091AY121999GF108991081999008001999999
0072835260999991932120612004-18167-047967FM-12+084099999V0203601N002619999999N9999999N9+02221+99999100941ADDAA124015091GF102991999999999999999999KA1999M+02611KA2999N+01781MW1111
0065030560999991932100418004+56933-004233FM-12+035899999V0201401N001019999999N0200001N9+00561+00331101851ADDGA1011+999999019GF106991041041008001011001IA1009MD1810101+9999
0051370990999991932020710004+43633+039750FM-12+999999999V0201401N00261012001CN0100001N9-00111+99999101531ADDAY111999GF107991071081008001999999MD1810061+9999
0061825860999991932112712004-05200-039300FM-12+019999999V0200901N002619999999N9999999N9+02781+99999101551ADDGF102991999999999999999999KA1999M+03391KA2999N+02391MW1111
0009726815241061932032110004+43050-115883SAO  +0913MUO  V0203151N008212200019N0320001N1+00021+99999999999ADDMW1001
0061838870999991932010812004-27233-051500FM-12+028999999V0209991C000019999999N9999999N9+02001+99999101471ADDGF107991999999999999999999KA1999M+02781KA2999N+01391MW1111
0061834980999991932090512004-17733-039250FM-12+000499999V0203601N002619999999N9999999N9+02391+99999101941ADDGF104991999999999999999999KA1999M+02721KA2999N+01721MW1111
0037074880999991932052712004+45167+005733FM-12+032499999V0203201N00261220001CN0200001N9+01891+99999101991ADDAY121999GF102991021999017501999999
0059036010999991932091701004+51683-005167FM-12+004399999V0200501N001019999999N0040001N9+01561+01501102131ADDGA1011+999999019GF104991041051008001001001MD1810041+9999
0059039800999991932052913004+55367-007333FM-12+002699999V0203201N006719999999N0100001N9+01001+00941101041ADDGA1011+999999019GF107991061051004501011999MD1810141+9999
0059031620999991932101913004+55317-003200FM-12+024299999V0202301N006719999999N0200001N9+00781+00561101661ADDGA1011+999999019GF108991061051004501011999MD1810281+9999
0070239140999991932032703004+60400+056517FM-12+016499999V0202501N00671220001CN0100001N9-00611+99999100641ADDAY111999GF102991021051012501999999IA1319KA1999N-00721MD1310061+9999
0024990061999991932042121004+62000-033000SAO  +00004YA  V02099999999999999999N0000001N1+02131+02021999999ADDMA1999999101321MW1001
0051380010999991932121210004+44550+050250FM-12-002399999V0202701N00261220001CN0100001N9+00611+99999101531ADDAY111999GF104991011051017501041001MD1510001+9999
0106232420999991932111002004+67700+072950FM-12+000499999V0203401N00461220001CN0100001N9-02391+99999102431ADDAA199000391AY101999GF101991999001999999091001IA1319KA1999N-02501MD1110141+9999MW1361EQDQ01+000002SCOTLC
0087129410999991932010918004+46100+018250FM-12+015499999V0209991C00001007801CN0040001N9+00391+99999101431ADDAA199009091AY161999GF108991081061008001999999IA1199KA1999M+00891MD1310201+9999MW1631
0072838600999991932020312004-26317-051817FM-12+108999999V0209991C000019999999N9999999N9+02111+99999101161ADDAA124002091GF104991999999999999999999KA1999M+02611KA2999N+01611MW1111
0051071100999991932060112004+48333-004767FM-12+003299999V0201401N00671220001CN0200001N9+01391+99999100821ADDAY101999GF102991011021008001001999MD1310101+9999
0043104340999991932090906004+51533+009017FM-12+006199999V0202301N00101000151CN0005001N9+99999+99999999999ADDAY141061GF109991091999999999999999MW1471
0081103380999991932053006004+52417+009750FM-12+005199999V0203601N00261002401CN0100001N9+01111+99999101231ADDAA199002091AY121999GF108991081051002501999999IA1089KA1999N+01001MD1610021+9999
0127298380999991932091301004+53333+083800FM-12+015899999V0200901N002619999999N0020001N9+01001+99999101511ADDAJ100009199999999AY121999GF108991081051999999999999HL10009IA1009IA2999+00289KA1999N+01001EQDQ01+000032APCTENQ02+000002APC3  
0074014820999991932121506004+59033+010533FM-12+000999999V0201801N00101000151CN0005001N9+00391+99999102041ADDAA199005091AY161999GF109991091999000251999999IA1089MD1810101+9999MW1451
0037082210999991932012206004+40467-003567FM-12+060099999V0200501N00101004501CN0005001N9+00281+99999103511ADDAY121999GF108991081999004501999999
0056104570999991932091406004+51750+011067FM-12+003899999V0209991C00001007801CN0100001N9+01111+00891101801ADDAY111061GF108991081051008001999999IA1009KA1999N+00611
0107122250999991932122906004+53267+016467FM-12+003899999V0201801N00261004501CN0020001N9-00221-00281102961ADDAY121999GF108991999999004501999001IA1139KA1999N-00221EQDQ01+000092SCOTLCQ02+000032APCTENQ03+000002APC3  
0070107630999991932060218004+49483+011100FM-12+009699999V0203601N00101220001CN0200001N9+02001+00781100821ADDAY101061GF102991021001999999011001IA1009KA1999M+02281MD1610101+9999
0057032620999991932080706004+55017-001417FM-12+003399999V0202701N00261220001CN0200001N9+01391+99999102301ADDAY101999GF102991021011012501001011IA1009MD1110101+9999
0076101270999991932082106004+53533+008150FM-12+000299999V0202901N00261004501CN0020001N9+02001+01941101331ADDAY111999GF107991071051004501999001IA1009KA1999N+01891MD1310141+9999MW1051
0051040060999991932021118004+66167-023217FM-12+000699999V0209991C000019999999N9999999N9+00221+99999103961ADDAY121061GF108991999999999999021999MD1810161+9999
0051370000999991932071510004+44733+037650FM-12+003799999V0201801N00261220001CN0100001N9+99999+99999100911ADDAY111999GF104991041011012501001001MD1010001+9999
0051339830999991932012111004+45367+036317FM-12+000499999V0203601N00461036001CN0040001N9-01281+99999103591ADDAY121999GF108991041061012501021999MD1510041+9999
0091037770999991932062907004+51350-000117FM-12+006699999V0202501N001019999999N0040001N9+01671+01221101491ADDGA1011+999999019GF101991011011008001031001IA1009KA1999M+02171KA2999N+01281MD1310101+9999
0081121160999991932102218004+54450+017000FM-12+001299999V0201801N00101220001CN0040001N9+01281+01221101511ADDAA199000591AY141999GF102991021051004501001001IA1089KA1999M+01281MD1310021+9999
0072264470999991932121312004+56783+027733FM-12+012099999V0202501N00461012301CN0100001N9-00501+99999103501ADDAY101999GF108991081051012501999999EQDQ01+000032APCTENQ02+000002APC3  
0076073150999991932080606004+45917-000983FM-12+000499999V0209991C00001220001CN0040001N9+01781+99999102031ADDAY101999GF100991001001999999001001IA1009KA1999N+01391MD1310021+9999MW1051
0051122050999991932062809004+53400+014633FM-12+000199999V0202301N00101220001CN0200001N9+02501+01561101581ADDAY101999GF100991001001999999001001MD1810081+9999
0081278150999991932112705004+53567+037050FM-12+024999999V0202301N00261004201CN0020001N9-00111+99999101541ADDAA199000391AY171999GF108991081061004501999999IA1309KA1999N-00111MD1310321+9999
0037104400999991932060412004+51200+010033FM-12+004899999V0203201N00461004501CN0040001N9+99999+99999999999ADDAY161061GF108991081061004501999999
0037351080999991932121210004+51200+051367FM-12+003899999V0203201N00931000151CN0005001N9-00221+99999100161ADDAY171999GF109991091051999999999999
0127030910999991932012107004+57167-002200FM-12+007199999V0201801N004619999999N0100001N9+00891+00831102051ADDAA199002091GA1011+999999019GF106991041051004501021001IA1089KA1999M+99999KA2999N+00561MD1810141+9999MW1201EQDQ01 +00672ATMX  
0072161700999991932061512004+43800+011200FM-12+007399999V0201801N002619999999N0040001N9+02611+99999101141ADDAY121999GF107991041999012501999021EQDQ01+000032APCTENQ02+000002APC3  
0057121140999991932121818004+54433+016383FM-12+000299999V0202001N00461220001CN0040001N9+00721+00331102501ADDAY101999GF100991001001999999001001IA1009MD1310041+9999
0029838740999991932111712004-26250-048667FM-12+001199999V0209991C000019999999N9999999N9+02281+99999100981ADDKA1999M+02611KA2999N+02001
0051296120999991932092508004+55350+078400FM-12+012099999V0202701N00671220001CN0100001N9+01111+99999101901ADDAY101999GF104991041011008001001001MD1310121+9999
0051345040999991932073011004+48550+035100FM-12+006299999V0203201N00101090001CN0100001N9+02891+99999101281ADDAY111999GF107991041081017501001021MD1310021+9999
0059033960999991932101901004+53583-000117FM-12+000999999V0203201N012319999999N0100001N9+00831+00611101801ADDGA1011+999999019GF104991021041008001011001MD1310141+9999
0095102240999991932121418004+53083+008783FM-12+000499999V0201801N00461220001CN0040001N9+00391+99999102551ADDAY111999GF101991999001999999031001IA1009KA1999M+00611MD1310141+9999MW1051EQDQ01+000002SCOTLC
0063101310999991932101018004+53867+008717FM-12+000199999V0201801N00261220001CN0020001N9+01111+99999099901ADDAY111999GF102991021999004501999001IA1009MD1310101+9999MW1051
0062264770999991932040205004+56350+030517FM-12+010399999V0201401N00461015001CN0040001N9+00111+99999100861ADDAY181999GF108991081061017501999999IA1319KA1999N+00001MW1851
0009726815241061932022615004+43050-115883SAO  +0913MUO  V0201131N005112200019N0320001N1+00241+99999999999ADDMW1001
0037109080999991932121212004+47867+008017FM-12+045599999V0201601N00101004501CN0500001N9+00611-00171100231ADDAY121061GF108991061001004501021999
0095302300999991932030500004+57783+108117FM-12+026899999V0202701N00101220001CN0020001N9-02501+99999102791ADDAY111999GF101991999001000251001001IA1319KA1999N-02501MD1310281+9999MW1051EQDQ01+000002SCOTLC
0070109080999991932012606004+47867+008017FM-12+045599999V0201101N00671220001CN0500001N9+00111-00831101861ADDAY101061GF199999081001004501001001IA1319KA1999N+00111MD1310041+9999
0051060410999991932032512004+57733+010633FM-12+000399999V0203201N00261220001CN0200001N9+00501+99999102021ADDAY111999GF102991021011012501001001MD1610061+9999
0043080010999991932062312004+43383-008367FM-12+005799999V0203601N00671220001CN0020001N9+01891+99999999999ADDAY111999GF102991011011000751001081MW1121
0070284930999991932122914004+56900+074383FM-12+007499999V0203201N00461220001CN0040001N9-03891+99999101891ADDAY101999GF100991001001999999001001IA1319KA1999M-03781MD1210021+9999
0043296340999991932100507004+54967+082950FM-12+013399999V02099999999999999999N0200001N9+01001+99999102591ADDGF199999001001999999051051MD1990061+9999
0051320610999991932020404004+50900+142167FM-12+001699999V0209991C00001220001CN0200001N9-01391+99999102381ADDAY101999GF101991011011012501061001MD1990101+9999
0056230660999991932072813004+69667+084400FM-12+002599999V0203601N00261030001CN0200001N9+01391+99999100791ADDAY111999GF107991021041012501051999IA1089KA1999M+01611
0051062600999991932052012004+52100+005183FM-12+000399999V0203201N00261030001CN0100001N9+02391+99999101621ADDAY121999GF107991021071012501071061MD1710021+9999
0051075770999991932061112004+44583+004717FM-12+007599999V0202001N00671220001CN0200001N9+02001+99999101891ADDAY121999GF107991001001999999071999MD1810041+9999
0009726810241311932102101004+43567-116217SAO  +0874BOI  V0203151N002112200019N0800001N1+01021+99999999999ADDMW1001
0043106770999991932022506004+50000+011633FM-12+011399999V0200201N00461002401CN0100001N9+99999+99999999999ADDAY171061GF107991061061002501021999MW1701
0059035310999991932103113004+52483-001933FM-12+016399999V0203401N006719999999N0040001N9+00941+00331101171ADDGA1011+999999019GF102991021011008001001001MD1310281+9999
0051043350999991932020412004+73483-021567FM-12+000399999V0203201N00931220001CN0500001N9-00111+99999101471ADDAY111061GF102991001001999999001011MD1610101+9999
0037232050999991932082103004+67650+053117FM-12+001099999V0202301N002619999999N0100001N9+99999+99999999999ADDAY121999GF106991011051004501001999
0057267020999991932021212004+54733+020567FM-12+000999999V0202901N00101030001CN0100001N9-00501-00831101711ADDAY171999GF107991041051008001071999MD1810081+9999MW1221
0070260630999991932011305004+59983+030283FM-12+000599999V0201801N00461220001CN0040001N9-00781+99999102331ADDAY111999GF104991041051008001001001IA1319KA1999N-00781MD1710061+9999
0091033110999991932082607004+53317-004617FM-12+000899999V0201101N001019999999N0100001N9+01441+01221102011ADDGA1011+999999019GF107991011051017501071999IA1009KA1999M+01781KA2999N+01331MD1810061+9999
0124270370999991932081304004+59233+039883FM-12+012499999V0200201N004619999999N0000501N9+01891+99999102021ADDAA199000591AY121999GF108991999999999999999999IA1009KA1999N+01611MW1051EQDQ01+000092SCOTLCQ02+000032APCTENQ03+000002APC3  
0123033960999991932012407004+53583-000117FM-12+000999999V0202101N004619999999N0040001N9+00331+00281103901ADDAA199000091GA1011+999999019GF107991061051004501031999IA1009KA1999M+00721KA2999N+00281EQDQ01+000032APCTENQ02+000002APC3  
0080030260999991932100401004+58217-006333FM-12+000399999V0209991C000019999999N0100001N9+00441+00391102241ADDGA1011+999999019GF104991041051008001001001EQDQ01+000032APCTENQ02+000002APC3  
0057062300999991932031606004+52967+004750FM-12+000699999V0200901N00461220001CN0040001N9+00281+99999102411ADDAY101999GF100991001001999999001001IA1159MD1810081+9999
0072837470999991932121612004-22883-042033FM-12+000399999V0200501N002619999999N9999999N9+02501+99999101401ADDAA124001091GF107991999999999999999999KA1999M+02781KA2999N+02221MW1111
0072838600999991932032812004-26317-051817FM-12+108999999V0209991C000019999999N9999999N9+01781+99999101161ADDAA124010091GF107991999999999999999999KA1999M+02391KA2999N+01501MW1601
0089351210999991932052303004+51750+055100FM-12+010899999V0203201N001019999999N0100001N9+01501+99999100401ADDAY111999GF106991011011999999041011IA1089KA1999N+01111MD1210061+9999EQDQ01+000992SCOLCB
0061838420999991932051912004-25417-049283FM-12+094999999V0209991C000019999999N9999999N9+01281+99999102311ADDGF108991999999999999999999KA1999M+02001KA2999N+01221MW1401
0035838870999991932061712004-27233-051500FM-12+028999999V0203201N002619999999N9999999N9+99999+99999101701ADDKA1999M+01611KA2999N+00891MW1111
0065038140999991932112118004+49950-005200FM-12+007399999V0202601N002619999999N0200001N9+00831+00391101821ADDGA1011+999999019GF104991041041012501001001IA1009MD1310101+9999
0059033790999991932082301004+53033-000500FM-12+006299999V0203401N002619999999N0040001N9+01111+00891102821ADDGA1011+999999019GF107991071051012501001001MD1310061+9999
0076104530999991932122906004+51800+010617FM-12+034899999V0201101N00461220001CN0200001N9-00221-01111100461ADDAY101061GF102991999001008001041041IA1139KA1999N-00281MD1810101+9999MW1121
0087014030999991932120106004+59300+004883FM-12+005799999V0202001N00461220001CN0500001N9+00611+99999999999ADDAA199003091AY111999GF104991021061008001051001IA1089MD1310161+9999EQDQ01+000001APOSP 
0072021960999991932052812004+65833+024150FM-12+000999999V0203201N00261220001CN0500001N9+01611+99999102121ADDAY101999GF100991001001999999001001EQDQ01+000022APCTENQ02+000002APC3  
0061823970999991932080212004-03767-038550FM-12+002799999V0201401N002619999999N9999999N9+02721+99999101391ADDGF100991999999999999999999KA1999M+03111KA2999N+02221MW1111
0051282250999991932111209004+58017+056267FM-12+016799999V0202701N004619999999N0040001N9+00001+99999102301ADDAY121999GF108991081051999999999999MD1810061+9999
0051123300999991932102306004+52417+016833FM-12+009999999V0201801N00101030001CN0040001N9+00781+00721101621ADDAY111999GF107991041051017501071001MD1710101+9999
0051105010999991932033009004+50783+006100FM-12+006399999V0201801N01231030001CN0200001N9+01221+00611100481ADDAY111031GF107991041051012501071091MD1810081+9999
0087239330999991932092002004+60967+069067FM-12+012899999V0200901N00261220001CN0020001N9+00721+99999999999ADDAJ100009199999999AY111999GF104991041051012501031001IA1009KA1999N+00721MD1010001+9999
0072833480999991932071312004-14800-039067FM-12+003999999V0201401N002619999999N9999999N9+02391+99999999999ADDAA124001091GF107991999999999999999999KA1999M+02611KA2999N+02001MW1111
0051339020999991932030411004+46667+032617FM-12+004999999V0200501N00671007501CN0040001N9-01001+99999102801ADDAY121999GF108991081051008001999999MD1810241+9999
0051105130999991932091209004+50983+006900FM-12+001599999V0202501N00931030001CN0200001N9+01891+00941101331ADDAY111031GF106991041081008001031001MD1310101+9999
0057040480999991932063012004+63400-020283FM-12+012299999V0200501N006719999999N9999999N9+01111+99999099481ADDAY181061GF107991999999999999021999MD1810161+9999MW1161
0070104570999991932090506004+51750+011067FM-12+003899999V0202501N00261012301CN0100001N9+01391+00721101731ADDAY111061GF108991081051012501999999IA1009KA1999N+01001MD1310061+9999
0051040060999991932042606004+66167-023217FM-12+000699999V0209991C000019999999N9999999N9-00721+99999102121ADDAY121061GF106991061051999999999999MD1810261+9999
0009726815241061932021519004+43050-115883SAO  +0913MUO  V0201131N007210120019N0240001N1-00761+99999999999ADDMW1001
0081103610999991932052318004+52133+011717FM-12+001499999V0202701N00101030001CN0200001N9+01781+00891100831ADDAA199000391AY181999GF106991041081008001081011IA1009KA1999M+02111MD1710061+9999
0009726810241311932011809004+43567-116217SAO  +0874BOI  V0203151N001510240019N0240001N1-00151-00261999999ADDMW1001
0057104530999991932050812004+51800+010617FM-12+034899999V0203401N00931000151CN0000501N9+00001-00061098961ADDAY171061GF109991091999000251999999MD1310061+9999MW1451
0051298380999991932011207004+53333+083800FM-12+015899999V0201401N002619999999N0020001N9-01111+99999103061ADDAY121999GF108991001001999999071091MD1110021+9999
0059031590999991932022413004+56033-003133FM-12+005899999V0200201N006719999999N0200001N9+00671+00281102781ADDGA1011+999999019GF107991071051008001999999MD1310121+9999
0037010550999991932080318004+71067+024150FM-12+000499999V0202701N00261220001CN0500001N9+01001+99999101031ADDAY121999GF102991021051012501001999
0081380010999991932071704004+44550+050250FM-12-002399999V0209991C00001220001CN0100001N9+02611+99999101401ADDAA199000691AY101999GF100991001001999999001001IA1089KA1999N+02111MD1310101+9999
0057103610999991932012512004+52133+011717FM-12+001499999V0202701N00101000151CN0002001N9-00111-00171104061ADDAY141999GF109991091999999999999999MD1710081+9999MW1471
0037229390999991932062504004+60033+037783FM-12+012099999V0209991C00001220001CN0010001N9+99999+99999999999ADDAY101999GF100991001001999999001999
0065033960999991932112018004+53583-000117FM-12+000999999V0202101N004619999999N0010001N9+00611+00561100641ADDGA1011+999999019GF108991081051000751999999IA1009MD1810041+9999
0100370310999991932031604004+44983+041117FM-12+021299999V0202701N00461007501CN0100001N9+00781+99999102331ADDAA199000391AY121999GF108991081061008001001001HL10009IA1159IA2999+00009KA1999N+00001MD1110101+9999
0037600200999991932062112004+28467-016267FM-12+003799999V0200201N00461220001CN0200001N9+02501+99999102091ADDAY111999GF104991041999008001999999
0051284400999991932062709004+56733+060633FM-12+028899999V0203601N00671075001CN0100001N9+02281+99999101151ADDAY111999GF106991021011008001001021MD1810121+9999
0037077470999991932090218004+42733+002867FM-12+004599999V0203201N01541220001CN0200001N9+02391+99999101951ADDAY101999GF104991999021999999041999
0043010280999991932081106004+74467+019283FM-12+002999999V0201801N00931004501CN0020001N9+00891+99999100801ADDAY161999GF108991081051004501999999MW1051
0076010980999991932020812004+70367+031100FM-12+001299999V0202901N00261002401CN0002001N9-00391+99999102641ADDAY171999GF108991081051002501999999MD1310522+9999MW1751EQDQ01+000522APC3  
0078101700999991932021518004+54183+012100FM-12+000299999V0203201N00671220001CN0100001N9+00221+00171102071ADDAY101999GF100991001001999999001001IA1199EQDQ01+000042APCTENQ02+000102APC3  
0056166270999991932111012004+40850+025883FM-12+001399999V0200501N00461220001CN0040001N9+01721+99999102541ADDAY111999GF104991021041999999061021EQDQ01+000992SCOLCB
0051070160999991932061712004+50150+003267FM-12+009899999V0200501N00461220001CN0100001N9+02221+99999102011ADDAY101999GF101991001001999999001011MD1990081+9999
0051333930999991932080406004+49817+023950FM-12+033099999V0203201N00261036001CN0040001N9+01781+01721101091ADDAY121999GF107991021021002501031001MD1310121+9999
0076234050999991932081904004+65483+052167FM-12+003799999V0202301N00101000151CN0002001N9+01781+99999101391ADDAY121999GF109991091999000251999999IA1009KA1999N+01721MD1810061+9999MW1051
0043103840999991932011908004+52483+013433FM-12+001799999V0201601N00101007801CN0020001N9+99999+99999999999ADDAY121999GF107991071051008001999999MW1051
0059039660999991932091513004+53100-007900FM-12+005799999V0202301N002619999999N0200001N9+01831+01561102971ADDGA1011+999999019GF107991071051008001999999MD1310021+9999
0062104530999991932071618004+51800+010617FM-12+034899999V0202701N00931030001CN0020001N9+01281+01221098671ADDAY111061GF106991041071002501041091IA1009KA1999M+01391MW1051
0095339020999991932020605004+46667+032617FM-12+004999999V0203601N01901002101CN0010001N9-01391+99999100821ADDAY171999GF108991081051002501999999IA1319KA1999N-01501MD1310502+9999MW1731EQDQ01+000502APC3  
0037103840999991932060616004+52483+013433FM-12+001799999V0203201N00101030001CN0200001N9+99999+99999999999ADDAY121999GF108991041051017501021999
0043264770999991932042117004+56350+030517FM-12+010399999V0200501N00261220001CN0200001N9+00721+99999101991ADDAY101999GF101991011011017501001001IA1089
0070062800999991932041806004+53217+006550FM-12+001099999V0200501N00101220001CN0100001N9+00391+99999101301ADDAY111999GF101991011021999999001001IA1009KA1999N+00001MD1010021+9999
0009726815241061932032115004+43050-115883SAO  +0913MUO  V0203151N010310240019N0400001N1+00081+99999999999ADDMW1001
0087296340999991932122713004+54967+082950FM-12+013399999V0201601N009319999999N0040001N9-01781+99999102631ADDAA199000691AY121999GF108991001001999999011071IA1309KA1999M-01781MD1990061+9999MW1361
0070076500999991932052106004+43417+005200FM-12+001299999V0201401N00101220001CN0200001N9+02111+99999101861ADDAY111999GF107991001001999999001041IA1009KA1999N+01281MD1990021+9999
0070315100999991932031204004+50267+127500FM-12+014399999V0200201N01231012001CN0100001N9-01001+99999101831ADDAY121999GF108991999061012501021999MD1810101+9999EQDQ01+000082SCOTLC
0057040300999991932032912004+64150-021950FM-12+001699999V0200501N002619999999N9999999N9+00721+99999099721ADDAY111061GF106991061061999999999001MD1310261+9999MW1471
0037340090999991932020811004+51750+036200FM-12+023499999V0203401N00461220001CN0100001N9-01891+99999100701ADDAY111999GF100991001001999999001999
0068010550999991932020306004+71067+024150FM-12+000499999V0201101N00931000151CN0005001N9-00501+99999099991ADDAA199001091AY171999GF109991091999000251999999IA1319MD1710441+9999
0092121160999991932092421004+54450+017000FM-12+001299999V0209991C00001220001CN0000501N9+99999+99999100801ADDAY141999GF100991001001999999001001MD1310101+9999MW1441EQDQ01+023323ATOT  Q02+022383ATOD  
0059038940999991932022913004+49450-002550FM-12+010499999V0200701N012319999999N0100001N9+00171-00221101861ADDGA1011+999999019GF104991041071008001081001MD1810081+9999
0081346550999991932012604004+47650+043167FM-12+005099999V0202501N00261000301CN0002001N9-01501+99999103731ADDAY131999GF199999081051000251999999HL10009IA1309IA2999-01399KA1999N-01781MW1441
0065039660999991932100818004+53100-007900FM-12+005799999V0202301N001019999999N0200001N9+01001+00561098301ADDGA1011+999999019GF104991021081008001001051IA1089MD1810021+9999
0108030750999991932071607004+58450-003083FM-12+003699999V0200901N004619999999N0200001N9+01061+01001100621ADDAA199004091GA1011+999999019GF108991041061004501021999IA1089KA1999M+01221KA2999N+01001MD1310061+9999MW1611
0057072800999991932091912004+47267+005083FM-12+022399999V0202001N00101004501CN0040001N9+02001+99999101231ADDAY121999GF108991081081004501999999MD1210021+9999MW1601
0123319600999991932081022004+43117+131917FM-12+012899999V0201601N00261000151CN0000001N9+01781+99999101151ADDAA199037091AJ100009199999999AY161999GF109991091999000751999999HL10009IA1109IA2999+01729KA1999N+01721MD1710021+9999MW1431
0091101270999991932011606004+53533+008150FM-12+000299999V0202001N00931004501CN0100001N9+00611+00561102661ADDAY121999GF108991081051004501999999IA1009KA1999N+00391EQDQ01+000032APCTENQ02+000002APC3  
0086038140999991932121918004+49950-005200FM-12+007399999V0201701N006719999999N0100001N9+01171+01111100841ADDGA1011+999999019GF108991081051012501999999IA1089EQDQ01+000032APCTENQ02+000002APC3  
0051263930999991932110911004+57583+034567FM-12+016799999V0201601N00101004201CN0010001N9+00111+99999103831ADDAY121999GF107991071071004501001001MD1310041+9999
0087121500999991932052506004+54383+018600FM-12+000599999V0201601N00101004501CN0040001N9+01391+01331100431ADDAA199015091AY161999GF108991061061004501021999IA1089KA1999N+01111MD1310021+9999MW1051
0068043350999991932122318004+73483-021567FM-12+000399999V0203601N009310024019N0100001N9-00221+99999100071ADDAA199000391AY121061GF109991091999999999999999IA1309MD1310061+9999
0123036970999991932120807004+51950+001333FM-12+000399999V0200701N006719999999N0100001N9+00501-00111102681ADDAA124999999GA1011+999999019GF106991061081008001001001IA1009KA1999M+00561KA2999N+00221EQDQ01+000032APCTENQ02+000002APC3  
0091230660999991932070713004+69667+084400FM-12+002599999V0203401N00261015001CN0200001N9+01721+99999099951ADDAY121999GF108991081051017501999999IA1089KA1999M+01891EQDQ01+000032APCTENQ02+000002APC3  
0037223340999991932090505004+66283+036917FM-12+001399999V0201801N012319999999N0040001N9+99999+99999999999ADDAY181999GF106991061051999999001999
0087282250999991932031215004+58017+056267FM-12+016799999V0200901N001019999999N0010001N9-01001+99999101811ADDAA199000591AY171999GF108991081061999999999999IA1319KA1999M-00891MD1810261+9999MW1731
0070074700999991932080106004+45050+003883FM-12+071599999V0209991C00001036001CN0200001N9+01611+99999101751ADDAY111999GF108991041061012501071999IA1009KA1999N+01501MD1210041+9999
0080030750999991932051113004+58450-003083FM-12+003699999V0202001N002619999999N0200001N9+00721+00501101051ADDGA1011+999999019GF104991041071012501031001EQDQ01+000032APCTENQ02+000002APC3  
0065032800999991932041718004+54367-001617FM-12+005399999V0200501N006719999999N0200001N9+00721+00111102021ADDGA1011+999999019GF102991021011008001041001IA1009MD1310041+9999
0057333450999991932022711004+50450+030500FM-12+018399999V0200701N00671004201CN0020001N9-00611+99999101931ADDAY171999GF108991071061004501999999MD1990101+9999MW1711
0068034970999991932021006004+52583+001717FM-12+000299999V0200701N01231004501CN0040001N9-00111+99999102971ADDAA199000691AY111999GF107991071091004501001001IA1139MD1310201+9999
0051075100999991932100512004+44833-000700FM-12+004899999V0200501N00461220001CN0040001N9+01391+99999101591ADDAY101999GF100991001001999999001001MD1810141+9999
0057123750999991932041512004+52183+020967FM-12+010799999V0201401N00461012301CN0040001N9+01611+00721100651ADDAY121999GF106991061041012501001061MD1810221+9999MW1051
0057107270999991932082312004+49017+008383FM-12+003599999V0203601N00671220001CN0100001N9+02391+01721102161ADDAY111061GF104991021081012501071001MD1810041+9999MW1051
0070070160999991932011006004+50150+003267FM-12+009899999V0201801N00671220001CN0100001N9+00391+99999100751ADDAY121999GF108991001001999999071999IA1089KA1999N+00281MD1810121+9999
0057106550999991932030812004+49800+009967FM-12+008199999V0202701N01231002401CN0040001N9+00221+00171100161ADDAY161061GF108991081061002501999999MD1710101+9999MW1641
0051021960999991932122512004+65833+024150FM-12+000999999V0202501N002619999999N0500001N9-00111+99999101751ADDAY121999GF108991081061999999999999MD1610161+9999
0073296980999991932080100004+54883+099033FM-12+041599999V0203401N00671004201CN0200001N9+01611+99999100111ADDAJ100009199999999AY121999GF108991061061004501011001IA1009KA1999N+01501
0057100910999991932060918004+54600+013233FM-12+000199999V0202701N01231220001CN0500001N9+01221+00781101671ADDAY111999GF104991001001999999071031IA1009MD1310041+9999
0087108660999991932111206004+48183+011550FM-12+052099999V0200901N00101001501CN0010001N9+00391+99999102801ADDAA199000391AY141061GF108991081051001501999999IA1089KA1999N+00281MD1210141+9999MW1201
0127279950999991932050904004+53000+049417FM-12+999999999V0201401N00261220001CN0020001N9+01611+99999101661ADDAJ100009199999999AY111999GF104991021051008001081081HL10009IA1009IA2999+00729KA1999N+00891EQDQ01+000032APCTENQ02+000002APC3  
0051345040999991932062611004+48550+035100FM-12+006299999V0202301N00261036001CN0100001N9+02501+99999100311ADDAY111999GF107991021021017501061011MD1210021+9999
0065031620999991932071118004+55317-003200FM-12+024299999V0200201N006719999999N0100001N9+01281+01061101701ADDGA1011+999999019GF108991081051002501999999IA1089MD1310061+9999
0070282250999991932060603004+58017+056267FM-12+016799999V0202701N00261075001CN0100001N9+01501+99999101711ADDAY111999GF108991001001999999001061IA1089KA1999N+00721MD1310021+9999
0081370500999991932022416004+44050+042083FM-12+057399999V0200901N00461036001CN0100001N9-01111+99999102601ADDAA199000691AY171999GF107991041051004501011999IA1319KA1999M-00611MD1310161+9999
0102036010999991932122307004+51683-005167FM-12+004399999V0201801N015419999999N0040001N9+01061+00831100801ADDAA199005091GA1011+999999019GF108991081051002501999999IA1089KA1999M+01061KA2999N+00941MD1810241+9999
0091307100999991932071712004+52333+104217FM-12+043799999V0201601N001019999999N0200001N9+02111+99999099541ADDAY121999GF107991001001999999041031IA1009KA1999M+02891EQDQ01+000042APCTENQ02+000082APC3  
0051378500999991932102210004+40350+049833FM-12-001099999V0201801N00461220001CN0100001N9+02281+99999101951ADDAY111999GF107991011011012501001041MD1810101+9999
0051333450999991932100311004+50450+030500FM-12+018399999V0201801N00461030001CN0040001N9+02001+99999101471ADDAY111999GF107991021061012501051081MD1810241+9999
0056010280999991932031506004+74467+019283FM-12+002999999V0200501N00461220001CN0500001N9-00781+99999100811ADDAY171999GF101991999071012501001999EQDQ01+000062SCOTLC
0037167380999991932122012004+36767+024417FM-12+018099999V0200201N01541220001CN0100001N9+01111+99999999999ADDAY121999GF104991041081012501001001
0089122050999991932083006004+53400+014633FM-12+000199999V0209991C00001220001CN0200001N9+01611+01331101641ADDAY121999GF102991999001022501031001IA1009KA1999N+01111MD1310041+9999EQDQ01+000002SCOTLC
0043104400999991932051812004+51200+010033FM-12+004899999V0202701N00101220001CN0100001N9+99999+99999999999ADDAY101061GF104991041021012501001999MW1161
0057010010999991932092712004+70983-008333FM-12+002399999V0200701N00671220001CN0100001N9+00221+99999099841ADDAY161999GF102991021051008001051001MD1710221+9999MW1501
0037071100999991932050418004+48333-004767FM-12+003299999V0200501N00671220001CN0100001N9+00891+99999101351ADDAY111999GF104991041051004501001999
0081107270999991932052618004+49017+008383FM-12+003599999V0202701N00461036001CN0200001N9+01391+00941100701ADDAA199005091AY111061GF106991041081008001031001IA1089KA1999M+01501MD1310061+9999
0076010550999991932112812004+71067+024150FM-12+000499999V0203201N00671000151CN0005001N9+00001+99999999999ADDAY121999GF109991091999000251999999MD1310201+9999MW1721EQDQ01+098643APOSLP
0057104380999991932031012004+51383+009533FM-12+008899999V0203601N00461004501CN0040001N9-00221-00281101411ADDAY171061GF107991061051004501031999MD1610041+9999MW1221
0089263930999991932081317004+57583+034567FM-12+016799999V0201101N00261015001CN0040001N9+01781+99999101111ADDAA199009091AY161999GF108991081021017501001001IA1089EQDQ01+000062APCTENQ02+000002APC3  
0065031400999991932091918004+55867-004433FM-12+000699999V0203201N002619999999N0200001N9+01001+00391101291ADDGA1011+999999019GF102991021071012501001001IA1089MD1310141+9999
0070077470999991932122406004+42733+002867FM-12+004599999V0202901N00931036001CN0200001N9+01111+99999103031ADDAY121999GF107991021081012501071999IA1089KA1999N+00781MD1310101+9999
0051279950999991932122910004+53000+049417FM-12+999999999V0202301N00461007501CN0040001N9+00001+99999101231ADDAY121999GF108991081051008001999001MD1310021+9999
0074030260999991932040606004+58183-006350FM-12+001899999V0202701N00261030001CN0200001N9+00721+99999098911ADDAA199008091AY161999GF107991041081004501071001IA1109MD1990341+9999MW1601
0051378500999991932060310004+40350+049833FM-12-001099999V0203601N00931220001CN0040001N9+02781+99999101361ADDAY101999GF100991001001999999001001MD1210041+9999
0062109350999991932013006004+47667+009500FM-12+012299999V0209991C00001000151CN0000501N9-00501-00561103951ADDAY141061GF109991091999000251999999IA1139KA1999N-00501MW1451
0070128400999991932111206004+47517+019017FM-12+013099999V0201801N00261220001CN0100001N9+00611+00391100991ADDAY111999GF102991011041012501001061IA1009KA1999N+00391MD1610061+9999
0093061930999991932112618004+55283+014767FM-12+007799999V0202001N00931004501CN0040001N9+00391+99999100541ADDAA199002091AY181999GF108991081061004501001001IA1089MD1710502+9999MW1631EQDQ01+000502APC3  
0098370990999991932031204004+43633+039750FM-12+999999999V0200501N00261007501CN0200001N9+00721+99999102071ADDAA199000691AJ100009199999999AY121999GF107991071021008001999999IA1009KA1999N+00721MD1310021+9999
0061838440999991932032512004-25517-048500FM-12+001099999V0201801N002619999999N9999999N9+02611+99999101501ADDGF104991999999999999999999KA1999M+03001KA2999N+02221MW1111
0095341720999991932032404004+51533+046050FM-12+006699999V0200901N004619999999N0005001N9-00281+99999100471ADDAY121999GF107991999999000251999999IA1319KA1999N-00281MD1990101+9999MW1471EQDQ01+000092SCOTLC
0051109080999991932071112004+47867+008017FM-12+045599999V0200501N00101002401CN0100001N9+01501+01441100041ADDAY151061GF106991061051002501999999MD1210021+9999
0086030560999991932072118004+56933-004233FM-12+035899999V0202701N002619999999N0200001N9+01281+00831101081ADDGA1011+999999019GF107991021041008001021031IA1089EQDQ01+000032APCTENQ02+000002APC3  
0009726815241061932032317004+43050-115883SAO  +0913MUO  V0202701N008210135019N0400001N1+00741+99999999999ADDMW1001
0072838740999991932020612004-26250-048667FM-12+001199999V0209991C000019999999N9999999N9+02391+99999101141ADDAA124007091GF107991999999999999999999KA1999M+02781KA2999N+02221MW1111
0029039800999991932071506004+55367-007333FM-12+002699999V0202301N00261030001CN0200001N9+01281+99999101041ADDGF106991011011012501051999
0072263930999991932042611004+57583+034567FM-12+016799999V0202301N00261007501CN0020001N9+01111+99999100531ADDAY121999GF106991061061008001001001EQDQ01+000032APCTENQ02+000002APC3  
0100284930999991932122514004+56900+074383FM-12+007499999V0202701N002619999999N0040001N9-02781+99999101241ADDAA199000691AY121999GF108991999001999999031001IA1319KA1999M-02221MD1310141+9999EQDQ01+000002SCOTLC
0009726815241061932040716004+43050-115883SAO  +0913MUO  V0201131N010312200019N0320001N1+01131+99999999999ADDMW1001
0116286980999991932033002004+54917+073400FM-12+009499999V0202301N00671000601CN0020001N9+00001+99999101041ADDAY171999GF108991081061000751999999HL10009IA1309IA2999+00009KA1999N+00001MW1611EQDQ01+000042APCTENQ02+000062APC3  
0072828990999991932072512004-08017-034850FM-12+006099999V0201401N002619999999N9999999N9+02281+99999101741ADDAA124003091GF107991999999999999999999KA1999M+02721KA2999N+02111MW1501
0061837260999991932010512004-22017-047900FM-12+085599999V0201401N009319999999N9999999N9+01891+99999999999ADDGF104991999999999999999999KA1999M+03111KA2999N+01721MW1111
0089029750999991932083118004+60250+025033FM-12+001599999V0202301N00261220001CN0040001N9+01281+99999101641ADDAY111999GF104991041041999999001001IA1009KA1999M+01721MD1310021+9999EQDQ01+000992SCOLCB
0102031620999991932030307004+55317-003200FM-12+024299999V0203601N002619999999N0200001N9+00061-00281101571ADDAA199000091GA1011+999999019GF108991081051012501999999IA1139KA1999M+00221KA2999N+00001MD1310021+9999
0037104330999991932111806004+51400+008567FM-12+013799999V0201401N00671220001CN0100001N9+99999+99999999999ADDAY101061GF100991001001999999001999
0056351880999991932051414004+51167+071433FM-12+035399999V0203401N00931009001CN0040001N9+01111+99999101321ADDAY121999GF108991081081004501999999IA1009KA1999M+01391
0045038880999991932070313004+50917+000967FM-12+000699999V0202301N002619999999N0100001N9+99999+99999999999ADDGA1011+999999019GF106991061051008001001999
0070295740999991932061613004+56033+092750FM-12+026899999V0202701N00261220001CN0200001N9+01611+99999999999ADDAY111999GF106991001001999999001041IA1009KA1999M+01721MD1310021+9999
0037074890999991932031412004+45300+005867FM-12+115499999V0200701N00461220001CN0100001N9+01611+99999101061ADDAY121999GF107991001999999999999999
0051370000999991932091610004+44733+037650FM-12+003799999V0203201N00461015001CN0100001N9+01611+99999102031ADDAY121999GF106991061081012501001001MD1610041+9999
0070106370999991932033018004+50050+008600FM-12+003499999V0201601N00261030001CN0200001N9+01391+00501100421ADDAY121061GF108991011071012501071999IA1009KA1999M+01501MD1810181+9999
0051335480999991932071311004+48667+026583FM-12+022899999V0202001N00461220001CN0100001N9+02781+99999101381ADDAY111999GF102991021011008001061001MD1810121+9999
0061833390999991932112212004-14067-042317FM-12+086999999V0201401N002619999999N9999999N9+02221+99999101391ADDGF104991999999999999999999KA1999M+02891KA2999N+01501MW1111
0070280440999991932122115004+59600+060533FM-12+013299999V0202901N00261012001CN0020001N9-00111+99999099491ADDAY121999GF108991081051012501999999IA1319KA1999M+00001MD1310021+9999
0065033110999991932041313004+53317-004617FM-12+000899999V0201801N006719999999N0200001N9+00891+00671102751ADDGA1011+999999019GF108991011021012501071999MD1810221+9999MW1601
0037083140999991932122212004+39883+004267FM-12+004399999V0200501N001019999999N0200001N9+01501+99999102751ADDAY121999GF107991021999008001999999
0037080010999991932030506004+43383-008367FM-12+005799999V0200201N00931004501CN0040001N9+00891+99999101111ADDAY121999GF106991061999004501999999
0071038880999991932101707004+50917+000967FM-12+000699999V0203201N002619999999N0040001N9+99999+99999999999ADDGA1011+999999019GF107991071051004501999999KA1999M+01441KA2999N+01061
0106037950999991932012318004+51083+001017FM-12+010499999V0200901N004619999999N0005001N9+00441+00391104131ADDGA1011+999999019GF199999001001999999001001IA1089MD1310081+9999MW1441EQDQ01+000002SCOTCVQ02+000452PRSWM1
0070361770999991932112208004+50400+080217FM-12+020299999V0202701N00461220001CN0200001N9-00611+99999103191ADDAY111999GF104991999001999999071001MD1110161+9999EQDQ01+000002SCOTLC
0078206740999991932053114004+73500+080400FM-12+002099999V0200901N00461220001CN0200001N9+00111+99999101171ADDAY101999GF101991001001999999001051IA1109EQDQ01+000032APCTENQ02+000002APC3  
0051010100999991932022012004+69333+016133FM-12+000799999V0203201N00931004501CN0100001N9-00391+99999101761ADDAY181999GF107991071081004501001001MD1810121+9999
0081333450999991932020305004+50450+030500FM-12+018399999V0202701N00261220001CN0100001N9-01221+99999101071ADDAA199000691AY101999GF101991001001999999041091IA1309KA1999N-01221MD1990041+9999
0065036970999991932021618004+51950+001333FM-12+000399999V0200101N002619999999N0040001N9+00391+00171103881ADDGA1011+999999019GF102991011041012501001011IA1009MD1310061+9999
0089234050999991932022616004+65483+052167FM-12+003799999V0202301N00461220001CN0100001N9-01501+99999103091ADDAY111999GF104991999999999999999001IA1319KA1999M-01221MD1310261+9999EQDQ01+000092SCOTLC
0056109350999991932092206004+47667+009500FM-12+012299999V0200201N00461012301CN0100001N9+01111+00891101681ADDAY121061GF108991081051012501999999IA1009KA1999N+01111
0059033110999991932102401004+53317-004617FM-12+000899999V0202501N002619999999N0100001N9+01061+00831100511ADDGA1011+999999019GF107991071051017501999999MD1810021+9999
0065036550999991932082618004+51933-001250FM-12+012899999V0200501N002619999999N0040001N9+02061+01611101721ADDGA1011+999999019GF106991041051012501071011IA1009MD1810061+9999
0037105480999991932081206004+50550+010367FM-12+013999999V0201801N00261220001CN0040001N9+99999+99999999999ADDAY101061GF101991011011022501001999
0081382620999991932071915004+42933+059767FM-12+006799999V0201101N001019999999N9999999N9+02281+99999099661ADDAA199001091AY131999GF107991001001999999021081IA1089KA1999M+03221MD1210201+9999
0087387500999991932103103004+37467+053667FM-12-002299999V0200201N00261220001CN0100001N9+01391+99999102041ADDAJ100009199999999AY101999GF100991001001999999001001IA1009KA1999N+01111MD1310221+9999
0056165300999991932102206004+40933+009500FM-12+000299999V0209991C00001024001CN0000501N9+01111+99999102351ADDAY141999GF109991091999999999999999EQDQ01+000992SCOLCB
0057040480999991932091512004+63400-020283FM-12+012299999V0202501N015419999999N9999999N9+00891+99999100591ADDAY161061GF106991061061999999999999MD1210301+9999MW1251
0037104810999991932092012004+51533+013233FM-12+002999999V0202701N001019999999N0100001N9+99999+99999999999ADDAY111061GF106991999001017501071999
0106306830999991932101923004+53967+121933FM-12+050899999V0203201N001019999999N0040001N9-01281+99999101351ADDAJ100009199999999AY101999GF107991001001999999001999HL10009IA1009IA2999-01509KA1999N-01281MD1810021+9999
0070330380999991932120817004+52267+029833FM-12+013799999V0201801N00261007501CN0020001N9+00001+99999100731ADDAY121999GF108991081061008001999999IA1089KA1999M+00221MD1810041+9999
0068347310999991932070816004+47217+039717FM-12+004899999V0201101N00261036001CN0100001N9+01781+99999100701ADDAA199000591AY161999GF108991041051017501071999IA1089MD1210061+9999
0051286980999991932022508004+54917+073400FM-12+009499999V0209991C00001220001CN0040001N9-00891+99999103391ADDAY101999GF104991001001999999001081MD1310101+9999
0059036550999991932072113004+51933-001250FM-12+012899999V0202901N004619999999N0200001N9+01671+01001101481ADDGA1011+999999019GF107991071081012501999999MD1810021+9999
0097103080999991932030406004+52417+007067FM-12+000999999V0203601N00101007801CN0020001N9+00001-00061101011ADDAY121999GF107991071051008001999999IA1139KA1999N-00281MW1051EQDQ01+000042APCTENQ02+000062APC3  
0062298380999991932110801004+53333+083800FM-12+015899999V0202301N006719999999N0010001N9-00891+99999102421ADDAY171999GF108991081061999999999999IA1309KA1999N-00891MW1711
0051267020999991932021809004+54733+020567FM-12+000999999V0202301N00461220001CN0040001N9-00221-00561103991ADDAY101999GF104991001001999999011021MD1210061+9999
0074012030999991932091206004+62033+004983FM-12+004199999V0203401N009319999999N0040001N9+00891+99999098881ADDAA199003091AY161999GF108991041081000251071999IA1089MD1210181+9999MW1611
0037104330999991932072906004+51400+008567FM-12+013799999V0202301N00461002401CN0020001N9+99999+99999999999ADDAY161061GF108991081051002501999999
0078101310999991932090506004+53867+008717FM-12+000199999V0202301N00261012301CN0040001N9+01281+99999101411ADDAY181999GF107991071051012501999999IA1089EQDQ01+000032APCTENQ02+000002APC3  
0057104160999991932121306004+51533+007583FM-12+002199999V0201401N00101030001CN0020001N9-00111-00171101951ADDAY121061GF107991021051017501031999MD1810041+9999MW1051
0043105610999991932041609004+50467+011450FM-12+019599999V0200501N01231000151CN0000001N9+99999+99999999999ADDAY141031GF109991091999000251999999MW1451
0076282250999991932110715004+58017+056267FM-12+016799999V0202301N006719999999N0020001N9-00221+99999101061ADDAY171999GF108991081061999999999999IA1159KA1999M-00221MD1710161+9999MW1771
0057339940999991932091817004+44617+033533FM-12+000899999V0209991C00001220001CN9999999N9+01781+99999102021ADDAY101999GF100991001001999999001001IA1009MD1710081+9999
0057010010999991932120606004+70983-008300FM-12+002399999V0200201N00261015001CN0500001N9-00391+99999101771ADDAY111999GF108991081051017501999999IA1319MD1990141+9999
0063378500999991932112304004+40350+049833FM-12-001099999V0209991C00001220001CN0010001N9+00611+99999103551ADDAY111999GF104991999071022501001001IA1089MD1810081+9999MW1051
0072838970999991932022112004-27583-048550FM-12+002999999V0203601N002619999999N9999999N9+02501+99999101111ADDAA124001091GF102991999999999999999999KA1999M+02781KA2999N+02221MW1111
0087387630999991932070303004+38967+056283FM-12+007199999V0202701N00261220001CN0200001N9+02781+99999100821ADDAJ100009199999999AY101999GF102991021071999999001001IA1009KA1999N+02501MD1310161+9999
0076106850999991932121906004+50300+011867FM-12+017399999V0201401N00101220001CN0040001N9+00001-00331103281ADDAY101061GF100991001001999999001001IA1309KA1999N+00001MD1810121+9999MW1051
0057384570999991932083008004+41333+069300FM-12+047999999V0201101N00101012001CN0040001N9+02001+99999101661ADDAY121999GF108991061061012501021999MD1710141+9999MW1601
0080032620999991932022213004+55017-001417FM-12+003399999V0203601N004619999999N0200001N9+00941+00501103461ADDGA1011+999999019GF102991021011012501001001EQDQ01+000032APCTENQ02+000002APC3  
0070121160999991932061912004+54450+017000FM-12+001299999V0202501N002619999999N0200001N9+01611+00941101191ADDAY121999GF106991041091004501999999MD1410001+9999EQDQ01+000032APCTEN
0081351210999991932020815004+51750+055100FM-12+010899999V0202301N00261220001CN9999999N9-02281+99999101091ADDAA199000691AY101999GF100991001001999999001001IA1319KA1999M-01391MD1310121+9999
0087124000999991932092506004+51917+015500FM-12+004599999V0202301N00671007801CN0200001N9+01611+01561100391ADDAA199003091AY161999GF108991081061008001999999IA1089KA1999N+01391MD1610041+9999MW1611
0065037480999991932020813004+51067-001317FM-12+008399999V0202901N004619999999N0010001N9+00331-00061102451ADDGA1011+999999019GF102991001001999999001011MD1810281+9999MW1101
0070268500999991932102417004+53783+027567FM-12+022699999V0202301N01541220001CN0040001N9+01001+99999099751ADDAY111999GF100991001001999999001001IA1109KA1999M+01221MD1810241+9999
0037085060999991932013118004+38533-028633FM-12+006599999V0201101N004619999999N0100001N9+01721+99999101101ADDAY161999GF107991041999008001999999
0051368700999991932012208004+43250+076917FM-12+084299999V0209991C00001036001CN0010001N9+99999+99999102991ADDAY111999GF106991011071022501011999MD1990041+9999
0059038940999991932090713004+49450-002550FM-12+010499999V0202501N006719999999N0200001N9+01831+01171101111ADDGA1011+999999019GF104991041071008001001001MD1310021+9999
0051230320999991932072109004+69717+066800FM-12+001799999V0202001N00101220001CN0040001N9+00721+99999101371ADDAY141999GF100991001001999999001001MD1010001+9999
0091288790999991932032414004+53267+069383FM-12+020999999V0200901N00671004201CN0040001N9-00111+99999102441ADDAY111999GF108991081051004501999999IA1199KA1999M+00221EQDQ01+000032APCTENQ02+000002APC3  
0009726815241061932102312004+43050-115883SAO  +0913MUO  V0203151N002110150019N0320001N1+00081+99999999999ADDMW1001
0059032800999991932103113004+54367-001617FM-12+005399999V0203501N004619999999N0100001N9+00891+00441101231ADDGA1011+999999019GF104991041081008001001001MD1310181+9999
0087266660999991932072805004+55200+030200FM-12+015099999V0200901N00101220001CN0040001N9+01891+99999101311ADDAJ100009199999999AY101999GF100991001001999999001001KA1999N+01391MD1310021+9999MW1051
0059039280999991932060913004+54650-005533FM-12+001299999V0202301N001019999999N0100001N9+01611+01171102031ADDGA1011+999999019GF106991041051004501021001MD1810041+9999
0108071500999991932060506004+48950+002433FM-12+004699999V0200201N00671001501CN0020001N9+01221+99999101211ADDAA199001091AY121999GF108991081051001501999999IA1089KA1999N+01111MW1051EQDQ01+000032APCTENQ02+000002APC3  
0065030750999991932021513004+58450-003083FM-12+003699999V0203201N006719999999N0200001N9+00831+00611103491ADDGA1011+999999019GF106991041081004501061081MD1310021+9999MW1271
0070106350999991932081606004+50217+008450FM-12+024499999V0200901N00101220001CN0100001N9+02221+01781100911ADDAY111061GF104991041051002501071999IA1009KA1999N+01891MD1310021+9999
0051262100999991932080912004+58383+021817FM-12+000799999V0201601N00461220001CN0100001N9+01891+99999100711ADDAY111999GF104991041071008001051999MD1310041+9999
0037025500999991932091712004+57783+014167FM-12+009899999V0203401N00461220001CN0500001N9+01391+99999101331ADDAY181999GF104991041011017501031999
0057104570999991932102712004+51750+011067FM-12+003899999V0202701N00461220001CN0100001N9+00891+00831099931ADDAY181061GF102991021051012501041001MD1990021+9999MW1251
0086261790999991932013005004+58517+031300FM-12+001999999V0202501N00461220001CN0040001N9+00111+99999098861ADDAA199001091AY171999GF101991999001999999041001IA1189KA1999N+00001EQDQ01+000002SCOTLC
0070341720999991932012104004+51533+046050FM-12+006699999V0202901N00931002101CN0040001N9+00111+99999102241ADDAY121999GF108991081051002501999999IA1319KA1999N-00391MD1310101+9999
0057313690999991932042304004+53133+140750FM-12+001799999V0201101N00101012001CN0040001N9+00221+99999100241ADDAY171999GF108991081061012501999999MD1990261+9999MW1731
0081296340999991932032013004+54967+082950FM-12+013399999V0202301N00101220001CN0040001N9-00781+99999103771ADDAA199000691AY171999GF102991011051012501001051IA1319KA1999M-00611MD1810021+9999
0073112310999991932072806004+46667+014333FM-12+044899999V0209991C00001015001CN0200001N9+01611+99999101621ADDAA199001091AY161061GF108991081051017501999999IA1089KA1999N+01501MW1511
0065031000999991932040613004+56483-006867FM-12+000999999V0202701N012319999999N0100001N9+00831+00611099141ADDGA1011+999999019GF106991041091004501071001MD1810081+9999MW1251
0081103380999991932081418004+52417+009750FM-12+001699999V0200701N00101220001CN0100001N9+02391+01941101501ADDAA199006091AY121999GF107991001001999999081071IA1009KA1999M+02721MD1610101+9999
0057121160999991932061712004+54450+017000FM-12+001299999V0203201N00101002401CN0100001N9+01001+00781101431ADDAY161999GF108991081061002501999999MD1810221+9999MW1601
0009726815241061932040309004+43050-115883SAO  +0913MUO  V0203151N006710090019N0160001N1+00411+99999999999ADDMW1001
0037084530999991932050712004+36467-006200FM-12+002899999V0202901N00461220001CN0100001N9+01611+99999101751ADDAY101999GF101991011999999999999999
0051167540999991932122612004+35333+025267FM-12+002699999V0200501N00671007801CN0200001N9+01221+99999102561ADDAY151999GF107991071081008001081001MD1810121+9999
0062062400999991932102106004+52300+004783FM-12-000399999V0202301N01231000601CN0020001N9+01391+99999099821ADDAY161999GF108991061061000751021999IA1109KA1999N+01111MW1631
0102036010999991932060507004+51683-005167FM-12+004399999V0200501N004619999999N0040001N9+00891+00831101801ADDAA199001091GA1011+999999019GF101991011051012501001001IA1009KA1999M+01281KA2999N+00611MD1310081+9999
0094101700999991932091006004+54183+012100FM-12+000299999V0202301N002619999999N0040001N9+01781+01721100841ADDAY111999GF107991999001022501071999IA1009EQDQ01+000002SCOTLCQ02+000032APCTENQ03+000002APC3  
0089341520999991932032104004+51550+043650FM-12+015499999V0209991C00001220001CN0040001N9-01111+99999103111ADDAY101999GF102991999001999999051001IA1319KA1999N-01221MD1810041+9999EQDQ01+000002SCOTLC
0111372280999991932010216004+43050+044483FM-12+066899999V0202701N00261220001CN0200001N9+00501+99999101962ADDAY111999GF199999011011017501001001IA1159KA1999M+99999MD1990061+9999MW1121EQDQ01+101963APOSLPQ02 +00282ATMX  
0057100030999991932122106004+53867+007933FM-12+999999999V0201401N00461030001CN0040001N9+00611+00561999999ADDAY111999GF107991021041012501031001MD1310021+9999MW1051
0057104680999991932080206004+51833+012200FM-12+001899999V0202301N00261030001CN0040001N9+01611+01561101571ADDAY121061GF108991041051012501021999MD1310161+9999MW1051
0037104330999991932092906004+51400+008567FM-12+013799999V0200901N00461220001CN0200001N9+99999+99999999999ADDAY101061GF100991001001999999001999
0037085120999991932070418004+37733-025667FM-12+002299999V0200501N004619999999N0200001N9+02001+99999102811ADDAY111999GF106991041999017501999999
0043010050999991932051006004+78067+013633FM-12+000899999V0200901N00671002401CN0020001N9-00611+99999102451ADDAY171999GF107991071051002501999999MW1701
0087030260999991932020506004+58183-006350FM-12+001899999V0201401N006719999999N0100001N9+00721+99999102641ADDAA199060091AY121999GF107991999001008001071001IA1009MD1810121+9999EQDQ01+000002SCOTLC
0051370500999991932040610004+44050+042083FM-12+057399999V0203201N00461220001CN0100001N9+02002+99999100961ADDAY111999GF104991999001002501011999MD1610061+9999
0057101200999991932071806004+54183+007883FM-12+001599999V0202701N00671004501CN0100001N9+01611+01561100531ADDAY121999GF107991061071004501071999IA1009MD1310141+9999
0068100100999991932112206004+54550+007883FM-12+999999999V0202701N006719999999N0200001N9+00721+00501999999ADDAA199000691AY121999GF108991071081999999999999MD1810021+9999MW1251
0081104880999991932052518004+51133+013767FM-12+007099999V0203401N00101030001CN0200001N9+01391+00721100641ADDAA199003091AY181061GF106991041081012501041001IA1089KA1999M+01721MD1210141+9999
0051333450999991932062311004+50450+030500FM-12+018399999V0202701N00461012001CN0100001N9+02391+99999101061ADDAY111999GF106991061011012501001001MD1310041+9999
0037084530999991932120918004+36467-006200FM-12+002899999V0201601N006719999999N0020001N9+01611+99999100421ADDAY161999GF108991081999999999999999
0108039660999991932032907004+53100-007900FM-12+005799999V0201801N001019999999N0200001N9+00611+00561099031ADDAA124999999GA1011+999999019GF107991071091004501999999IA1089KA1999M+01111KA2999N+00331MD1810241+9999MW1251
0070105130999991932070218004+50983+006900FM-12+001599999V0202501N00101012301CN0500001N9+01721+01671101441ADDAY121061GF106991061071012501031021IA1009KA1999M+02221MD1210141+9999
0098374720999991932062804004+43000+047500FM-12+003599999V0203601N00461036001CN0100001N9+02221+99999101041ADDAA199000691AJ100009199999999AY101999GF108991021051012501041001IA1009KA1999N+01891MD1310081+9999
0081388800999991932030615004+38000+058300FM-12+025499999V0200901N001019999999N9999999N9+00281+99999102911ADDAA199000691AY151999GF108991999061999999021999IA1109KA1999M+00391MD1310141+9999
0088333930999991932022506004+49817+023950FM-12+033099999V0209991C00001220001CN0005001N9-01781-02221102271ADDAY111999GF104991011041004501011001EQDQ01+002302WODIR Q02+000032APCTENQ03+000002APC3  
0056108660999991932032706004+48183+011550FM-12+052099999V0200901N00461220001CN0100001N9-00281+99999101961ADDAY101061GF102991021011012501001001IA1139KA1999N-00501
0072345040999991932042011004+48550+035100FM-12+006299999V0202701N00261012001CN0100001N9+01221+99999100911ADDAY151999GF108991081051012501999999EQDQ01+000032APCTENQ02+000002APC3  
0037165300999991932052112004+40933+009500FM-12+000299999V0201101N00671220001CN0100001N9+02111+99999102021ADDAY101999GF102991001999999999999999
0065031590999991932061218004+56033-003133FM-12+005899999V0200901N006719999999N0200001N9+01221+00781102081ADDGA1011+999999019GF106991041081012501051061IA1009MD1310141+9999
0070105100999991932042806004+50350+006950FM-12+018999999V0201801N00101220001CN0100001N9+00611+99999101221ADDAY141061GF106991999001999999071001IA1009KA1999N+00221MD1810081+9999
0056264980999991932011917004+56267+034333FM-12+019799999V0202501N00671007501CN0040001N9+00111+99999103181ADDAY121999GF108991081051008001999999IA1309KA1999M+00111
0059038560999991932081201004+50533-002450FM-12+001099999V0203201N001019999999N0040001N9+01781+01501100941ADDGA1011+999999019GF104991041041008001001001MD1810061+9999
0068370500999991932062616004+44050+042083FM-12+057399999V0200901N00261220001CN0100001N9+02281+99999100381ADDAA199000691AY181999GF104991041061999999001001IA1009MD1710081+9999
0051106090999991932061609004+49750+006667FM-12+008199999V0200501N01231220001CN0100001N9+02111+99999101791ADDAY101031GF102991001001999999081081MD1310081+9999
0091335480999991932062117004+48667+026583FM-12+022899999V0201601N00461007501CN0040001N9+02391+99999101421ADDAY111999GF107991061041008001021051IA1009KA1999M+02891EQDQ01+000032APCTENQ02+000002APC3  
0057103930999991932101712004+52200+014117FM-12+003299999V0201801N00461004501CN0040001N9+00891+00831100231ADDAY161061GF108991081061004501999999MD1810141+9999MW1611
0070109080999991932073018004+47867+008017FM-12+045599999V0201801N00101220001CN0200001N9+01781+00561100601ADDAY111061GF102991001001999999001051IA1009KA1999M+02001MD1610021+9999
0089264470999991932121418004+56783+027733FM-12+012099999V0201601N00461220001CN0100001N9-00891+99999103471ADDAY101999GF100991001001999999001001IA1309KA1999M-00721MD1810061+9999EQDQ01+000902SCOLCB
0102292630999991932051513004+58450+092167FM-12+007899999V0202001N00261220001CN0040001N9+00721+99999101201ADDAA199004091AY111999GF100991001001999999001001IA1089KA1999M+00781EQDQ01+000032APCTENQ02+000002APC3  
0095100010999991932083018004+53600+006700FM-12+000499999V0200501N00461030001CN0020001N9+01781+01721101061ADDAA199000691AY121999GF107991041051002501071091IA1009MW1051EQDQ01+000042APCTENQ02+000022APC3  
0037161200999991932030206004+44400+008917FM-12+000299999V0200201N01901001501CN0002001N9-00111+99999101431ADDAY171999GF108991081999001501999999
0081116430999991932031106004+50750+015733FM-12+049199999V0203601N00461220001CN0100001N9-01611-01781098751ADDAA199001091AY171999GF104991041001008001031999IA1319KA1999N-01721MD1310081+9999
0057010550999991932110312004+71067+024150FM-12+000499999V0203201N01231060001CN0010001N9+00001+99999101601ADDAY121999GF106991041081008001001071MD1210181+9999MW1861
0051260940999991932062511004+59650+033533FM-12+004999999V0201401N00461012001CN0040001N9+02281+99999101041ADDAY111999GF106991061071012501001001MD1810141+9999
0051295740999991932041607004+56033+092750FM-12+026899999V0209999999999220001CN0200001N9+01501+99999101231ADDAY101999GF100991001001999999001001MD1710241+9999
0078060410999991932060718004+57733+010633FM-12+000399999V0202701N00671220001CN0100001N9+01221+99999101151ADDAY111999GF106991001001999999041071IA1009EQDQ01+000032APCTENQ02+000002APC3  
0024990061999991932100107004+62000-033000SAO  +00004YA  V02099999999999999999N0000001N1+02631+02241999999ADDMA1999999100851MW1001
0037298660999991932080807004+53700+091700FM-12+025199999V0203401N002619999999N0200001N9+01781+99999101181ADDAY121999GF106991061051999999001001
0051040480999991932070118004+63400-020283FM-12+012299999V0201801N001019999999N9999999N9+01391+99999099001ADDAY111061GF106991061999999999021999MD1810161+9999
0037084870999991932031518004+36850-002467FM-12+006599999V0203201N004619999999N0200001N9+01781+99999100691ADDAY121999GF106991041999012501999999
0057115190999991932121612004+50067+014433FM-12+025499999V0209991C00001012301CN0005001N9+00001+99999103641ADDAY141999GF107991071051012501999999MD1990061+9999MW1441
0009726810241311932101217004+43567-116217SAO  +0874BOI  V0202931N001512200019N0160001N1+01411+99999999999ADDMW1001
0037010280999991932121006004+74467+019283FM-12+002999999V0203401N01901007801CN0200001N9-00721+99999099951ADDAY121999GF108991081051008001999999
0070023610999991932111412004+62617+017950FM-12+000999999V0203401N00101220001CN0500001N9+00391+99999102791ADDAY111999GF104991999001017501081021MD1810141+9999EQDQ01+000002SCOTLC
0070226290999991932051806004+54917+023933FM-12+008399999V0209991C00001220001CN0040001N9+01781+99999102591ADDAY101999GF100991001001999999001001IA1009KA1999N+00891MD1110041+9999
0086038140999991932072718004+49950-005200FM-12+007399999V0202801N006719999999N0100001N9+01611+01331101131ADDGA1011+999999019GF104991041081012501001001IA1089EQDQ01+000032APCTENQ02+000002APC3  
0065032800999991932072713004+54367-001617FM-12+005399999V0201901N002619999999N0040001N9+01391+01331099701ADDGA1011+999999019GF107991061091004501071999MD1810081+9999MW1621
0037132750999991932040606004+44817+020417FM-12+013899999V0209991C00001015001CN0200001N9+01391+99999100991ADDAY111999GF107991071999017501999999
0057330190999991932102112004+52117+026100FM-12+013799999V0201801N00931002401CN0040001N9+00781+00721100901ADDAY161999GF108991081061002501001001MD1710141+9999MW1611
0037108100999991932020912004+48600+008200FM-12+035599999V0200501N00461001501CN0002001N9+99999+99999999999ADDAY171061GF109991091999001501999999
0086121160999991932062715004+54450+017000FM-12+001299999V0202701N00461220001CN0200001N9+01891+00941101581ADDAY111999GF102991021031008001001001MD1710021+9999EQDQ01+000042APCTENQ02+000022APC3  
0051352290999991932070609004+50233+057233FM-12+022099999V0202501N00461001201CN0002001N9+01891+99999100201ADDAY111999GF107991071031001501001001MD1810061+9999
0127031710999991932032407004+56383-002883FM-12+001199999V0201401N002619999999N0040001N9+00501+00441101751ADDAA199999999GA1011+999999019GF107991071051012501999999IA1089KA1999M+01061KA2999N+00441MD1810021+9999MW1251EQDQ01  00002PRCP99
0037600200999991932100518004+28467-016267FM-12+003799999V0202701N002619999999N0100001N9+02221+99999101961ADDAY111999GF107991011999999999999999
0051224710999991932021610004+65833+044267FM-12+001699999V0202001N00101002101CN0040001N9-01221+99999100451ADDAY121999GF108991081051002501001001MD1310121+9999
0024990061999991932060423004+62000-033000SAO  +00004YA  V02099999999999999999N0000001N1+02681+02461999999ADDMA1999999100681MW1001
0057106350999991932101412004+50217+008450FM-12+024499999V0202001N02261000601CN0200001N9+00721+00671098531ADDAY141061GF108991081061000751999999MD1810301+9999MW1621
0059038640999991932061713004+50817-001300FM-12+000299999V0200801N002619999999N0200001N9+02391+01111102161ADDGA1011+999999019GF104991041071017501001001MD1810061+9999
0067104570999991932031106004+51750+011067FM-12+003899999V0200501N00101007801CN0040001N9-00721-00781999999ADDAA199000391AY171061GF108991081051008001999999IA1309KA1999N-00781
0072837260999991932030812004-22017-047900FM-12+085599999V0200501N002619999999N9999999N9+02001+99999999999ADDAA124001091GF107991999999999999999999KA1999M+03501KA2999N+01781MW1601
0081076500999991932050206004+43417+005200FM-12+001299999V0203201N00261220001CN0200001N9+01111+99999101501ADDAA199002091AY111999GF104991041051008001999001IA1109KA1999N+00721MD1310161+9999
0071038880999991932081607004+50917+000967FM-12+000699999V0201801N004619999999N0020001N9+99999+99999999999ADDGA1011+999999019GF108991081051004501999999KA1999M+02111KA2999N+01671
0059038640999991932011613004+50817-001300FM-12+000299999V0202001N012319999999N0100001N9+01061+00831102291ADDGA1011+999999019GF107991071051002501999999MD1810101+9999
0131294300999991932080901004+56433+084967FM-12+013899999V0202301N00101000151CN0000501N9+01611+99999101631ADDAJ100009199999999AY141999GF109991091999999999999999HL10009IA1089IA2999+01399KA1999N+01501MD1990061+9999MW1451EQDQ01+000092SCOHCG
0065031400999991932100218004+55867-004433FM-12+000699999V0202901N004619999999N0200001N9+00941+00501101201ADDGA1011+999999019GF106991061081012501001001IA1089MD1310261+9999
0037106770999991932031706004+50000+011633FM-12+011399999V0209991C00001220001CN0100001N9+99999+99999999999ADDAY101061GF100991001001999999001999
0086261790999991932102105004+58517+031300FM-12+001999999V0202301N00261015001CN0040001N9+00221+99999099111ADDAA199000691AY121999GF108991999051017501051999IA1109KA1999N+00221EQDQ01+000082SCOTLC
0043104740999991932010409004+51850+012650FM-12+002099999V0201401N00261000601CN0005001N9+99999+99999999999ADDAY141031GF108991081061000751999999MW1531
0056351080999991932011516004+51200+051367FM-12+003899999V0202501N00261015001CN0020001N9-01281+99999103351ADDAY121999GF108991081041017501001001IA1199KA1999M-01221
0089128400999991932100218004+47517+019017FM-12+013099999V0202901N00101220001CN0200001N9+01891+99999101301ADDAY111999GF101991999001999999041001IA1009KA1999M+02781MD1010061+9999EQDQ01+000002SCOTLC
0076249590999991932092604004+62017+129750FM-12+010999999V0202701N00261004201CN0200001N9+00281+99999101461ADDAY151999GF108991999061004501051999MD1310141+9999MW1271EQDQ01+000082SCOTLC
0065037660999991932052418004+51283-000750FM-12+006999999V0200101N004619999999N0100001N9+01061+00441101031ADDGA1011+999999019GF107991071081012501001001IA1089MD1310101+9999
0037082210999991932050218004+40467-003567FM-12+060099999V0202501N00101220001CN0100001N9+01721+99999102021ADDAY111999GF100991001999999999999999
0081339020999991932063005004+46667+032617FM-12+004999999V0209991C00001220001CN0100001N9+01891+99999101831ADDAJ100009199999999AY101999GF101991001001999999001011KA1999N+01391MD1310061+9999
0063103480999991932012906004+52233+010483FM-12+002499999V0203201N00461000151CN0000501N9-00281-00331103581ADDAY141999GF109991091999999999999999IA1139MD1610061+9999MW1451
0102033480999991932101607004+53983-001550FM-12+014699999V0202701N004619999999N0500001N9+00831+00611100571ADDAA199001091GA1011+999999019GF107991001001999999011999IA1089KA1999M+01061KA2999N+00721MD1310141+9999
0051339760999991932070505004+45033+035383FM-12+000899999V0203201N00461220001CN0100001N9+02221+99999101581ADDAY101999GF100991001001999999001001MD1310061+9999
0051105010999991932061412004+50783+006100FM-12+006399999V0200201N00461220001CN0100001N9+02281+01331101861ADDAY141061GF106991001001999999001061MD1990041+9999
0037105790999991932111706004+50617+013467FM-12+018899999V0200901N00101004501CN0020001N9+99999+99999999999ADDAY121061GF108991081061004501999999
0037085060999991932061206004+38533-028633FM-12+006599999V0202301N00101220001CN0100001N9+01891+99999102391ADDAY111999GF104991021999002501999999
0062107270999991932071006004+49017+008383FM-12+003599999V0200501N00261220001CN0100001N9+02001+01561101891ADDAY101061GF100991001001999999001001IA1009KA1999N+01501MW1051
0072839970999991932032812004-33517-053333FM-12+000699999V0203201N002619999999N9999999N9+02111+99999101481ADDAA124019091GF107991999999999999999999KA1999M+02501KA2999N+01891MW1111
0037076500999991932040106004+43417+005200FM-12+001299999V0200901N00261036001CN0040001N9+01111+99999100831ADDAY121999GF107991041051008001071999
0070370500999991932120604004+44050+042083FM-12+057399999V0200901N00671001201CN0040001N9-00281+99999102631ADDAY121999GF108991081051001501999999IA1309KA1999N-00391MD1410001+9999
0037085360999991932081918004+38733-009183FM-12+022799999V0202701N00671220001CN0040001N9+02111+99999101901ADDAY101999GF104991041999008001999999
0037330420999991932062805004+52583+031917FM-12+999999999V0203601N00261030001CN0040001N9+99999+99999999999ADDAY181999GF107991041061008001031999
0009726815241061932012801004+43050-115883SAO  +0913MUO  V0200451N001510090019N0160001N1-00811+99999999999ADDMW1001
0087282750999991932072502004+58200+068233FM-12+010099999V0200501N00261007501CN0040001N9+01781+99999100371ADDAJ100009199999999AY121999GF107991071041008001001001IA1009KA1999N+01391MD1810041+9999
0070220190999991932042611004+69183+033500FM-12+999999999V0201401N006719999999N0100001N9-00891+99999102061ADDAY111999GF106991999001999999999001MD1810021+9999EQDQ01+000002SCOTLC
0070275950999991932032204004+55783+049133FM-12+007099999V0202001N002619999999N0100001N9-01221+99999103031ADDAY101999GF106991001001999999071021IA1319KA1999N-01281MD1310101+9999
0051378500999991932110416004+40350+049833FM-12-001099999V0203601N012319999999N0040001N9+01391+99999102141ADDAY121999GF108991081001012501001001MD1310021+9999
0051123300999991932012606004+52417+016833FM-12+009999999V0202901N00461002401CN0020001N9-00111-00171104301ADDAY121999GF108991081051002501001999MD1310101+9999
0051121160999991932061215004+54450+017000FM-12+001299999V0200501N00261220001CN0200001N9+02281+00671101991ADDAY111999GF100991001001999999001001MD1810261+9999
0024990061999991932022906004+62000-033000SAO  +00004YA  V02099999999999999999N0000001N1+00851-00041999999ADDMA1999999102341MW1001
0029865850999991932022712004-34850-056200FM-12+002299999V0201101N001019999999N9999999N9+02221+99999101271ADDGF104991999999999999999999
0065037950999991932041113004+51083+001017FM-12+010499999V0202501N004619999999N0200001N9+00501+00281100441ADDGA1011+999999019GF108991061081004501071999MD1310101+9999MW1211
0117345040999991932051505004+48550+035100FM-12+006299999V0201601N00461012001CN0100001N9+01391+99999101441ADDAA199001091AJ100009199999999AY121999GF107991071061012501999999HL10009IA1089IA2999+01119KA1999N+01221MD1310261+9999
0037299390999991932062407004+52683+084950FM-12+999999999V0203601N001019999999N0020001N9+01891+99999100631ADDAY121999GF106991061001017501061001
0059036550999991932111613004+51933-001250FM-12+012899999V0200701N006719999999N0040001N9+00831+00391102371ADDGA1011+999999019GF104991041081008001001001MD1810041+9999
0091030560999991932100407004+56933-004233FM-12+035899999V0209991C000019999999N0200001N9-00061-00111999999ADDGA1011+999999019GF104991021041012501021001IA1189KA1999M+00831KA2999N-00441MD1810041+9999
0065039800999991932050618004+55367-007333FM-12+002699999V0203501N009319999999N0200001N9+00671+00441101131ADDGA1011+999999019GF106991061021008001001001IA1009MD1810101+9999
0071036930999991932102018004+51533+000817FM-12+000399999V0202301N001019999999N0040001N9+01331+01281100211ADDGA1011+999999019GF108991081061002501999999IA1089MD1810101+9999MW1631
0080032620999991932120901004+55017-001417FM-12+003399999V0200901N002619999999N0200001N9+00561-00061103101ADDGA1011+999999019GF106991061021008001001001EQDQ01+000032APCTENQ02+000002APC3  
0108286610999991932051803004+55450+065150FM-12+007399999V0200901N00671075001CN0100001N9+01111+99999100921ADDAJ100009199999999AY111999GF107991001001999999001021IA1089KA1999N+00501EQDQ01+000042APCTENQ02+000022APC3  
0037162400999991932111512004+41867+012550FM-12+005099999V0200201N00261220001CN0200001N9+01001+99999102051ADDAY121999GF102991021999012501999999
0063043350999991932112218004+73483-021567FM-12+000399999V0203201N01231220001CN0040001N9-01501+99999099601ADDAY101061GF100991001001999999001001IA1309MD1310141+9999MW1371
0070103380999991932092106004+52417+009750FM-12+001699999V0202701N00261030001CN0200001N9+00781+00721101801ADDAY121999GF106991021051012501071999IA1089KA1999N+00721MD1310081+9999
0070275950999991932090316004+55783+049133FM-12+007099999V0202501N00101220001CN0100001N9+01501+99999101971ADDAY101999GF100991001001999999001001IA1009KA1999M+02001MD1510001+9999
0070262410999991932080906004+58383+026717FM-12+008199999V0201801N00261030001CN0100001N9+02001+99999101001ADDAY121999GF108991021081012501091999IA1009KA1999N+01501MD1310021+9999
0070297420999991932051101004+54650+086650FM-12+999999999V0202001N01231220001CN0010001N9+01221+99999101371ADDAY111999GF104991021021999999011041IA1009KA1999N+01221MD1110381+9999
0106278150999991932020705004+53567+037050FM-12+024999999V0202001N009319999999N0005001N9-01721+99999101131ADDAA199000391AY171999GF108991081061999999999999IA1319KA1999N-02501MD1810542+9999MW1711EQDQ01+000542APC3  
0057063000999991932091306004+51583+002617FM-12+000499999V0202901N00101007801CN0040001N9+01501+99999102041ADDAY121999GF108991081051008001999999IA1209MD1310141+9999
0087348800999991932060904004+46350+048033FM-12-002599999V0203401N00261220001CN0100001N9+02221+99999101281ADDAJ100009199999999AY101999GF101991001001999999001011IA1009KA1999N+01721MD1510001+9999
0051388360999991932120914004+38583+068800FM-12+080099999V0200501N00101220001CN0200001N9+00221+99999103551ADDAY101999GF100991001001999999001001MD1310061+9999
0087104530999991932053006004+51800+010617FM-12+114899999V0203401N01231000151CN0000001N9+00611+99999099541ADDAA199003091AY161061GF109991091999000251999999IA1089KA1999N+00501MD1610081+9999MW1451
0081110350999991932080618004+48217+016550FM-12+015799999V0202701N001010360019N0100001N9+01611+99999101971ADDAA199006091AY121061GF107991041031008001021011IA1089KA1999M+02001MD1310101+9999
0100266660999991932102217004+55200+030200FM-12+015099999V0203201N00261012001CN0040001N9+00391+99999101752ADDAA199000591AY181999GF108991081091012501999999IA1089KA1999M+00891MD1210341+9999EQDQ01+101753APOSLP
0051104380999991932090412004+51383+009533FM-12+008899999V0202701N00671220001CN0200001N9+01891+00671101351ADDAY111061GF104991041011012501001001MD1310281+9999
0070071100999991932121218004+48283-004433FM-12+009799999V0200901N00461220001CN0100001N9+00891+99999100831ADDAY121999GF104991041051004501001001IA1089KA1999M+01111MD1310081+9999
