0051110270999991933071406004+48217+015333FM-12+022099999V0202701N00101220001CN0500001N9+01721+99999999999ADDAY101061GF101991001001999999001091MD1810321+9999
0121037750999991933121007004+51467-000317FM-12+000599999V0200301N004619999999N0100001N9-00171-00331102541ADDAA124999999GA1011+999999019GF199999001001999999001001IA1139KA1999M+00111KA2999N-00221MD1310021+9999EQDQ01+000002SCOTCV
0065039730999991933111518004+54100-010067FM-12+000599999V0200901N012319999999N0200001N9+00941+00721099171ADDGA1011+999999019GF106991061091002501031001IA1089MD1310041+9999
0051349290999991933033110004+45033+039650FM-12+003599999V0200901N00101007501CN0040001N9+00891+99999101721ADDAY111999GF107991061031008001001091MD1310061+9999
0070370310999991933041916004+44983+041117FM-12+021299999V0209991C00001220001CN9999999N9+01391+99999999999ADDAY101999GF102991001001999999001081IA1089KA1999M+01781MD1810061+9999
0043040480999991933060418004+63400-020283FM-12+012299999V0201601N012319999999N9999999N9+00891+99999099421ADDAY161061GF108991081061999999999999MW1651
0051122810999991933082609004+53567+021000FM-12+004599999V0203201N01541030001CN0040001N9+01611+00941101271ADDAY121999GF107991041031008001011999MD1310181+9999
0068010280999991933052218004+74467+019283FM-12+002899999V0202501N006719999999N0100001N9+00221+99999102441ADDAA199000691AY161999GF108991011061004501021999MD1610121+9999MW1611
0037133340999991933011806004+43517+016433FM-12+012899999V0201401N012319999999N0100001N9+01001+99999100311ADDAY111999GF106991041999008001999999
0059038280999991933070913004+50483-004100FM-12+019899999V0202101N009319999999N0200001N9+01781+01331102151ADDGA1011+999999019GF106991021021008001071061MD1810021+9999
0061835520999991933041712004-19000-057483FM-12+014599999V0201801N002619999999N9999999N9+02281+99999101281ADDGF107991999999999999999999KA1999M+02891KA2999N+02001MW1111
0087100460999991933020206004+54383+010150FM-12+000999999V0202701N00461002401CN0020001N9+00501+00441099281ADDAA199012091AY161999GF108991081061002501999999IA1089KA1999N+00501MD1610141+9999MW1601
0037122360999991933100712004+53733+018933FM-12+001999999V0202301N00261220001CN0020001N9+99999+99999999999ADDAY101999GF101991001001999999041999
0070105130999991933062118004+50983+006900FM-12+001599999V0201601N00461030001CN0200001N9+01781+00891100561ADDAY121061GF108991041071017501011999IA1009KA1999M+02111MD1210101+9999
0037166750999991933101212004+38900+022433FM-12+999999999V0203201N00101220001CN0200001N9+02111+99999999999ADDAY111999GF102991021021017501001001
0051238490999991933060920004+61250+073400FM-12+004099999V0209991C00001001201CN0002001N9+01001+99999099431ADDAY121999GF107991071011001501999999MD1810261+9999
0081268500999991933080817004+53783+027567FM-12+022699999V0202701N00101030001CN0100001N9+01721+99999100191ADDAA199000591AY161999GF107991041031004501031011IA1089KA1999M+01891MD1510021+9999
0051378500999991933080610004+40350+049833FM-12-001099999V0203601N00931220001CN0100001N9+03111+99999999999ADDAY101999GF102991001001999999001091MD1810121+9999
0043104090999991933032206004+51833+006267FM-12+000599999V0201401N00261000151CN0000001N9+00001+99999103481ADDAY141061GF109991091999999999999999MW1451
0051167050999991933060812004+37783+020883FM-12+000399999V0202701N00261220001CN0200001N9+02391+99999100741ADDAY101999GF102991001001999999001051MD1510061+9999
0057361770999991933020608004+50400+080217FM-12+020299999V0201801N00101220001CN0010001N9-02781+99999104781ADDAY101999GF100991001001999999001001MD1810041+9999MW1101
0051370500999991933052710004+44050+042083FM-12+057399999V0200901N00261012001CN0100001N9+02001+99999100801ADDAY121999GF108991081051012501999999MD1810021+9999
0043167540999991933022318004+35333+025267FM-12+002699999V0201801N00671220001CN0200001N9+01221+99999101261ADDAY111999GF102991021051012501001001IA1089
0081108650999991933051706004+48183+011550FM-12+015599999V0202301N00671036001CN0040001N9+00721+00671102151ADDAA199002091AY161061GF108991041051017501021999IA1089KA1999N+00501MD1010001+9999
0065032800999991933102513004+54367-001617FM-12+005399999V0203501N009319999999N0200001N9+00721+00331102081ADDGA1011+999999019GF107991071091004501061999MD1310081+9999MW1801
0037338370999991933080711004+46483+030733FM-12+006599999V0203601N00671220001CN9999999N9+02221+99999101491ADDAY111999GF104991041011012501071001
0070071800999991933032918004+48700+006233FM-12+023699999V0209991C00001220001CN0100001N9+01721+99999101541ADDAY101999GF100991001001999999001001IA1009KA1999M+02001MD1810061+9999
0037123750999991933032812004+52183+020967FM-12+010799999V0202701N00461007801CN0040001N9+01111+00501101531ADDAY121999GF108991081051008001001001
0059033010999991933070913004+53217-003000FM-12+005299999V0202401N006719999999N0200001N9+02171+01221101691ADDGA1011+999999019GF106991041011012501041041MD1810061+9999
0078384570999991933101708004+41333+069300FM-12+047999999V0203401N00261015001CN0200001N9+01781+99999101731ADDAY111999GF108991061051017501081999MW1601EQDQ01+000032APCTENQ02+000002APC3  
0051116430999991933062612004+50750+015733FM-12+049199999V0203401N00671220001CN0500001N9+00721+00111098941ADDAY101999GF104991021041000251001041MD1310041+9999
0071033340999991933102818004+53350-002267FM-12+007099999V0203301N006719999999N0020001N9+00721+00501098871ADDGA1011+999999019GF107991071051008001999999IA1089MD1310181+9999MW1051
0059039520999991933031313004+51800-008250FM-12+000799999V0202301N004619999999N0100001N9+01111+00891102131ADDGA1011+999999019GF107991071051008001001001MD1310041+9999
0091038280999991933070207004+50483-004100FM-12+019899999V0209991C000019999999N0200001N9+01831+01561102491ADDGA1011+999999019GF107991071051017501031999IA1009KA1999M+01831KA2999N+01561MD1310081+9999
0051076020999991933122112004+43383-001750FM-12+002999999V0209991C00001002401CN0040001N9+00501+99999103611ADDAY121999GF107991071051002501999999MD1990021+9999
0072076020999991933031112004+43483-001567FM-12+002999999V0202001N006719999999N0200001N9+01501+99999100951ADDAY121999GF107991021021012501041001EQDQ01+000032APCTENQ02+000002APC3  
0074060210999991933051306004+57117+008600FM-12+004699999V0202701N00261007801CN0100001N9+00721+99999100921ADDAA199002091AY151999GF108991081061008001001001IA1089MD1810041+9999MW1501
0108039660999991933102707004+53100-007900FM-12+005799999V0203201N004619999999N0040001N9+00671+00441100851ADDAA124999999GA1011+999999019GF108991081091008001999999IA1089KA1999M+00831KA2999N+00501MD1810381+9999MW1801
0057023610999991933052718004+62617+017950FM-12+000999999V0203601N00261220001CN0500001N9+00891+99999101401ADDAY111999GF100991001001999999001001IA1009MD1310061+9999
0070233300999991933093015004+66533+066600FM-12+003599999V0202701N001019999999N0200001N9+00281+99999101831ADDAY111999GF108991999051017501999999IA1109KA1999M+00611MD1110021+9999
0051012030999991933071912004+62033+004983FM-12+004199999V0202701N00261220001CN0200001N9+01501+99999101691ADDAY121999GF104991021021008001071011MD1210041+9999
0037105610999991933072506004+50467+011450FM-12+019599999V0202701N00261220001CN0100001N9+99999+99999999999ADDAY111061GF104991011011008001001999
0091072400999991933021206004+47417+000783FM-12+011299999V0203601N01231220001CN0100001N9-00111+99999102941ADDAY101999GF100991001001999999001001IA1139KA1999N-00111EQDQ01+000042APCTENQ02+000182APC3  
0051225500999991933081710004+64567+040517FM-12+001099999V0200201N00461220001CN0040001N9+01891+99999101031ADDAY111999GF101991011011008001001011MD1810061+9999
0035875850999991933030712004-34583-058317FM-12+002599999V0203601N006719999999N9999999N9+02001+99999101591ADDGF100991999999999999999999MW1111
0091284400999991933123015004+56733+060633FM-12+028899999V0203601N00261004201CN0005001N9-02001+99999103321ADDAY171999GF107991071051004501999999IA1319KA1999M-02001EQDQ01+000042APCTENQ02+000062APC3  
0061838420999991933080812004-25417-049283FM-12+094999999V0209991C000019999999N9999999N9+00891+99999102441ADDGF100991999999999999999999KA1999M+02501KA2999N+00221MW1051
0037105350999991933102606004+50833+008917FM-12+006099999V0203401N00101004501CN0040001N9+00611+00561100741ADDAY151061GF108991071051004501061001
0081270370999991933100216004+59233+039883FM-12+012499999V0202301N00931007501CN0020001N9+01001+99999100771ADDAA199000691AY121999GF108991081051008001999999IA1009KA1999M+01001MD1810141+9999
0051104160999991933082412004+51533+007583FM-12+002199999V0202901N00261220001CN0500001N9+01781+01331101441ADDAY181061GF104991021081004501071001MD1310201+9999
0070294300999991933052113004+56433+084967FM-12+013899999V0200501N00261007501CN0040001N9+00721+99999101401ADDAY121999GF107991071051008001999999IA1089KA1999M+00781MD1810061+9999
0087104380999991933071806004+51383+009533FM-12+008899999V0201801N00461007801CN0040001N9+01391+01331102341ADDAA199000591AY181061GF108991081061008001999999IA1089KA1999N+00781MD1310061+9999MW1051
0074012620999991933070618004+64800+010550FM-12+003799999V0200501N004619999999N0200001N9+01281+99999102441ADDAA199000691AY121999GF107991041051000251051999IA1009MD1810101+9999MW1121
0037085360999991933042212004+38733-009183FM-12+022799999V0200201N00461220001CN0100001N9+01781+99999102231ADDAY101999GF104991001999999999999999
0074347310999991933020716004+47217+039717FM-12+004899999V0200701N01231012001CN0020001N9-01111+99999101971ADDAA199007091AY171999GF108991081051012501999999IA1319MD1310301+9999MW1361
0076375450999991933020416004+41717+044800FM-12+040999999V0209991C000019999999N0020001N9+00111+99999101891ADDAY121999GF108991001001999999021999IA1109KA1999M+00391MD1210061+9999MW1461
0051330190999991933080412004+52117+026100FM-12+013799999V0203201N00461220001CN0100001N9+02391-00391101051ADDAY111999GF104991041011012501001001MD1810061+9999
0043266140999991933062609004+55083+021800FM-12+000399999V0201801N00261002401CN0040001N9+99999+99999999999ADDAY161999GF108991081061002501999999MW1631
0051121160999991933122412004+54450+017000FM-12+001299999V0202701N00931000151CN0002001N9+00281+00221102291ADDAY151999GF109991091999999999999999MD1810141+9999
0057105130999991933072003004+50983+006900FM-12+001599999V0209991C00001220001CN0040001N9+01501+01441101701ADDAY111031GF104991011011008001031001MD1810061+9999MW1051
0091071900999991933040418004+48550+007633FM-12+015499999V0203401N00671220001CN0200001N9+01111+99999102351ADDAY111999GF106991001001999999001061IA1009KA1999M+01891EQDQ01+000042APCTENQ02+000022APC3  
0091299390999991933031001004+52683+084950FM-12+999999999V0200901N002619999999N0040001N9-00391+99999101521ADDAY121999GF108991061061999999011061IA1309KA1999N-00781EQDQ01+000042APCTENQ02+000142APC3  
0078115180999991933022012004+50100+014283FM-12+037199999V0200201N002619999999N0020001N9+00001+99999101581ADDAY141999GF108991041051008001011999MW1051EQDQ01+000032APCTENQ02+000002APC3  
0037166480999991933040818004+39633+022417FM-12+007599999V0209991C00001220001CN0040001N9+01221+99999101061ADDAY101999GF101991001001999999071999
0073105760999991933071606004+50700+012467FM-12+009499999V0202301N00261007801CN0100001N9+01611+01331100771ADDAA199000691AY161061GF108991081051008001999999IA1009KA1999N+01281MW1601
0064228200999991933122705004+61783+034383FM-12+006799999V0202901N002619999999N0005001N9+99999+99999101981ADDAY121999GF108991999999999999999999KA1999N-01891MD1210021+9999
0051125000999991933080109004+50900+015783FM-12+010499999V0202701N00461030001CN0100001N9+01891+01221101301ADDAY111999GF106991021051008001071999MD1990041+9999
0057106090999991933092200004+49750+006667FM-12+008199999V0200501N00261220001CN0040001N9+01221+99999100291ADDAY101061GF100991001001999999001001MD1410001+9999MW1051
0070384570999991933071008004+41333+069300FM-12+047999999V0203201N00101220001CN0200001N9+03501+99999100081ADDAY101999GF101991999001999999081001MD1810121+9999EQDQ01+000002SCOTLC
0089070050999991933021418004+50133+001850FM-12+007199999V0203601N00461220001CN0040001N9+00281+99999102381ADDAY121999GF104991999001999999031001IA1009KA1999M+00721MD1610061+9999EQDQ01+000002SCOTLC
0037104810999991933061009004+51533+013233FM-12+002999999V0203201N00261030001CN0040001N9+99999+99999999999ADDAY121031GF107991011071008001021999
0081071800999991933092606004+48700+006233FM-12+023699999V0209991C00001036001CN0020001N9+01391+99999101621ADDAA199000591AY161999GF108991041051008001021999IA1089KA1999N+01281MD1110101+9999
0087102740999991933120118004+53350+012733FM-12+002299999V0202001N00261002401CN0010001N9-00111+99999102111ADDAA199004091AY111999GF108991081051002501999999IA1309KA1999M+00001MD1310081+9999MW1051
0051103840999991933090715004+52483+013433FM-12+001799999V0203201N00261030001CN0200001N9+01891+00671102791ADDAY111999GF106991041011012501041001MD1810101+9999
0051121500999991933100212004+54383+018600FM-12+000599999V0203201N00461007801CN0200001N9+01391+00941101231ADDAY181999GF106991061081008001001091MD1710141+9999
0051121140999991933120506004+54433+016383FM-12+000299999V0202701N00671007801CN0100001N9+00281+00061102631ADDAY111999GF108991081051008001999999MD1710101+9999
0078275530999991933121810004+56333+044000FM-12+015999999V0202501N00261007501CN0020001N9-01781+99999101661ADDAY171999GF107991071051008001999999MW1711EQDQ01+000032APCTENQ02+000002APC3  
0087267020999991933012006004+54733+020567FM-12+000999999V0200701N00461012301CN0020001N9-00891-01061102291ADDAA199001091AY171999GF108991081051012501999999IA1309KA1999N-01001MD1310181+9999MW1731
0087124250999991933040406004+51133+016967FM-12+003799999V0202501N00931004501CN0100001N9+00781+00721100791ADDAA199006091AY161999GF107991061061004501021999IA1089KA1999N+00611MD1510021+9999MW1611
0061835870999991933062012004-19933-043933FM-12+091599999V0209991C000019999999N9999999N9+01891+99999101751ADDGF107991999999999999999999KA1999M+02781KA2999N+01391MW1111
0057012620999991933022312004+64800+010550FM-12+003799999V0201401N00461220001CN0200001N9-00391+99999102541ADDAY101999GF101991011011008001001001MD1110041+9999MW1051
0037238040999991933061704004+61667+050850FM-12+012299999V0200201N002619999999N0020001N9+99999+99999999999ADDAY111999GF106991001001999999031999
0037104330999991933081006004+51400+008567FM-12+013799999V0202701N00101220001CN0100001N9+99999+99999999999ADDAY101061GF100991001001999999001999
0065039170999991933050418004+54650-006217FM-12+006799999V0201401N009319999999N0100001N9+01281+01061100531ADDGA1011+999999019GF107991061051004501071999IA1089MD1810201+9999
0057061930999991933112306004+55283+014767FM-12+007799999V0202501N00261007801CN0040001N9+00391+99999101041ADDAY111999GF107991071051008001001001IA1009MD1810201+9999
0057377890999991933010510004+40133+044467FM-12+090799999V0202001N001019999999N0010001N9-01111+99999999999ADDAY171999GF108991001001999999021999MD1310161+9999MW1231
0057107630999991933120215004+49483+011100FM-12+009699999V0200501N00461002401CN0040001N9+00111-00111102521ADDAY171031GF108991061051002501021999MD1310161+9999MW1701
0057105010999991933012209004+50783+006100FM-12+006399999V0200501N00261004501CN0040001N9-00781-00941104021ADDAY171031GF107991071051004501999999MD1310041+9999MW1701
0037085450999991933032612004+41133-008667FM-12+002599999V0203201N00931220001CN0100001N9+01391+99999101691ADDAY121999GF104991041999008001999999
0070106350999991933111218004+50217+008450FM-12+024499999V0203201N00101007801CN0040001N9-00221-00281098731ADDAY121061GF108991081051008001999999IA1139KA1999M-00111MD1310161+9999
0051238490999991933081708004+61250+073400FM-12+004099999V0201801N004619999999N0040001N9+01501+99999100911ADDAY121999GF108991071041999999001071MD1810061+9999
0081370310999991933062516004+44983+041117FM-12+021299999V0202701N001019999999N9999999N9+02001+99999999999ADDAA199003091AY161999GF106991999041008001999999IA1089KA1999M+02111MD1810141+9999
0075228200999991933082905004+61783+034383FM-12+006799999V0202001N004619999999N0100001N9+00891+99999102271ADDAY121999GF107991999001999999031001IA1009KA1999N+00721EQDQ01+000002SCOTLC
0072070700999991933111612004+49250+004083FM-12+008799999V0201401N00261036001CN0100001N9+01001+99999100251ADDAY121999GF106991041071008001041031EQDQ01+000032APCTENQ02+000002APC3  
0070010100999991933061312004+69333+016133FM-12+000799999V0200501N00461220001CN0500001N9+01001+99999101581ADDAY101999GF101991011051999999001051MD1810121+9999EQDQ01+000992SCOLCB
0070341720999991933052404004+51533+046050FM-12+006699999V0201801N00671012001CN0100001N9+01501+99999101201ADDAY111999GF107991071051012501999999IA1009KA1999N+01281MD1310121+9999
0037284930999991933070120004+56900+074383FM-12+007499999V0203601N00101220001CN0040001N9+01781+99999999999ADDAY171999GF104991041051012501999999
0043161700999991933121306004+43800+011200FM-12+007399999V0200501N00261004501CN0020001N9+00611+99999098981ADDAY161999GF108991081999004501999999MW1651
0057060210999991933012212004+57117+008600FM-12+004699999V0201401N00261007801CN0040001N9-00611+99999104061ADDAY171999GF108991081061008001001001MD1810041+9999MW1711
0059037750999991933101613004+51467-000317FM-12+000599999V0202501N006719999999N0200001N9+01331+00441100911ADDGA1011+999999019GF106991061071012501001001MD1810101+9999
0037014820999991933110518004+59033+010533FM-12+000999999V0202701N00461220001CN0200001N9+00891+99999100361ADDAY121999GF107991001001999999071999
0037108100999991933072412004+48600+008200FM-12+035599999V0203601N00671220001CN0200001N9+99999+99999999999ADDAY111061GF104991041071012501001999
0100100910999991933102406004+54600+013233FM-12+000199999V0201401N01231004501CN0040001N9+00721+00671102171ADDAY121999GF108991999051004501041999IA1009MW1051EQDQ01+000082SCOTLCQ02+000032APCTENQ03+000002APC3  
0057061800999991933121812004+55617+012650FM-12+000599999V0202701N00261002401CN0005001N9+00281+99999102471ADDAY141999GF108991081051002501001001MD1810061+9999MW1421
0065030050999991933061813004+60133-001183FM-12+008399999V0200701N002619999999N0200001N9+01111+01061099261ADDGA1011+999999019GF107991041081004501021999MD1310161+9999MW1251
0087236310999991933101703004+63933+065067FM-12+004099999V0203201N002619999999N0020001N9-01111+99999103171ADDAJ100009199999999AY121999GF108991999999999999021999IA1139KA1999N-01111MD1310061+9999
0076104680999991933071106004+51833+012200FM-12+001899999V0202501N00261220001CN0040001N9+02111+01831101501ADDAY111061GF104991999001017501071999IA1009KA1999N+01721MD1610041+9999MW1051
0072838440999991933020612004-25517-048500FM-12+001099999V0201801N002619999999N9999999N9+02281+99999101751ADDAA124003091GF107991999999999999999999KA1999M+02391KA2999N+01891MW1111
0037010280999991933121006004+74467+019283FM-12+002999999V0203201N01231004501CN0200001N9-01221+99999100891ADDAY121999GF108991081051004501999999
0037298660999991933011807004+53700+091700FM-12+025199999V0209991C00001220001CN0040001N9-02781+99999104001ADDAY101999GF100991001001999999001001
0098370990999991933110304004+43633+039750FM-12+999999999V0200501N002619999999N0200001N9+99999+99999999999ADDAA199002091AJ100009199999999AY111999GF106991999999002501071999IA1089KA1999N+01111MD1310041+9999
0051071100999991933040612004+48333-004767FM-12+003299999V0209991C00001220001CN0100001N9+01281+99999102501ADDAY101999GF102991001001999999001999MD1810041+9999
0057330190999991933122018004+52117+026100FM-12+013799999V0203201N00101001501CN0020001N9-00221-00281100811ADDAY171999GF108991081051001501001001MD1710021+9999MW1771
0057128400999991933121212004+47517+019017FM-12+013099999V0203201N00101004501CN0040001N9-00721-01391101791ADDAY151999GF108991081051004501999999MD1810101+9999MW1051
0037104270999991933122012004+51183+008483FM-12+025799999V0203201N01541000151CN0000001N9-00111-00171100971ADDAY181061GF109991091999999999999999
0070307770999991933121423004+52250+117717FM-12+044999999V0202701N00261220001CN0020001N9-03281+99999104211ADDAY101999GF104991001001999999021999IA1309KA1999N-03281MD1810021+9999
0065031590999991933030218004+56033-003133FM-12+005899999V0200901N004619999999N0010001N9+00441+00391099861ADDGA1011+999999019GF108991081051001501999999IA1089MD1810221+9999
0073109610999991933031506004+47417+010983FM-12+090399999V0203601N00101000151CN0000001N9-00891-00941100551ADDAA124999999AY141061GF109991091999000251999999IA1319KA1999N-01001MW1451
0057161100999991933012706004+45650+013767FM-12+001699999V0200701N00671220001CN0100001N9-00281+99999102531ADDAY101999GF100991001001999999001001IA1139MD1510041+9999
0070345600999991933101904004+48700+044517FM-12+006599999V0200701N00671220001CN0100001N9+00391+99999103061ADDAY101999GF102991001001999999001011IA1009KA1999N+00281MD1310061+9999
0070106090999991933032306004+49750+006667FM-12+008199999V0200901N00261220001CN0100001N9+00001+99999103171ADDAY101061GF102991001001999999001051IA1139KA1999N-00111MD1810021+9999
0037104330999991933022006004+51400+008567FM-12+013799999V0200501N00461002401CN0040001N9+99999+99999999999ADDAY121061GF108991081051002501999999
0051105130999991933061403004+50983+006900FM-12+001599999V0203401N00101220001CN0100001N9+01391+01171101441ADDAY121031GF106991001001999999031999MD1310041+9999
0089229390999991933111804004+60033+037783FM-12+012099999V0200501N00671220001CN0010001N9-01281+99999103601ADDAY101999GF101991999001999999041001IA1309KA1999N-01391MD1310321+9999EQDQ01+000002SCOTLC
0076104690999991933050906004+51400+012217FM-12+004199999V0201801N00671007801CN0100001N9+01281+01061101121ADDAY121061GF107991061061008001999999IA1009KA1999N+01111MD1110021+9999MW1051
0025722860231191933112420004+33900-117250SAO  +0466RIV  V0201401N001512200019N0160001N9+03131+99999101731ADDGA1001+999999999MW1001
0070105540999991933072418004+51017+011033FM-12+005699999V0202901N00261030001CN0500001N9+02111+01171102121ADDAY111061GF107991011021012501071999IA1009KA1999M+02501MD1510001+9999
0051040060999991933122306004+66167-023217FM-12+000699999V0202501N002619999999N9999999N9+00281+99999100821ADDAY171061GF108991081061999999999999MD1310261+9999
0100286610999991933042015004+55450+065150FM-12+007399999V0209991C00001004201CN0100001N9+00501+99999101001ADDAA199010091AY121999GF106991061041004501001001IA1089KA1999M+00721MD1310101+9999EQDQ01+002502WODIR 
0076103380999991933100306004+52417+009750FM-12+001699999V0209991C00001220001CN0040001N9+00611+00561102611ADDAY111999GF104991001001999999081061IA1089KA1999N+00391MD1310061+9999MW1051
0100361770999991933111614004+50400+080217FM-12+020299999V0203201N012319999999N0100001N9-00221+99999102461ADDAA199001091GF199999001001999999021999IA1309KA1999M+00281MW1731EQDQ01+000042APCTENQ02+000142APC3  
0051370500999991933062110004+44050+042083FM-12+057399999V0200501N00671007501CN0100001N9+01391+99999101141ADDAY121999GF108991081051008001999001MD1210021+9999
0057105130999991933121009004+50983+006900FM-12+001599999V0209991C00001220001CN0020001N9-00781-00831102771ADDAY101031GF100991001001999999001001MD1310021+9999MW1051
0102039530999991933011407004+51933-010250FM-12+000999999V0201801N006719999999N0200001N9+00831+00611102121ADDAA124999999GA1011+999999019GF107991061081004501071999IA1089KA1999M+01001KA2999N+00391MD1810341+9999
0072838970999991933021412004-27583-048550FM-12+002999999V0201801N002619999999N9999999N9+02281+99999101601ADDAA124019091GF107991999999999999999999KA1999M+03111KA2999N+02111MW1111
0037166750999991933090806004+38900+022433FM-12+999999999V0201401N00461220001CN0200001N9+02001+99999102111ADDAY111999GF104991041011022501001999
0070103930999991933061906004+52200+014117FM-12+003299999V0202701N00461030001CN0200001N9+01221+00781099771ADDAY121061GF107991011011004501011071IA1009KA1999N+00891MD1310021+9999
0051374720999991933013010004+43000+047500FM-12+003599999V0202501N00671036001CN0100001N9+00281+99999102481ADDAY121999GF108991011051012501011999MD1810161+9999
0065039520999991933040318004+51800-008250FM-12+000799999V0202701N004619999999N0200001N9+01111+00671102561ADDGA1011+999999019GF102991021051008001001001IA1009MD1810041+9999
0016136230999991933081406004+40500+019283FM-12+034099999V02099999999999999999N9999999N9+02221+99999999999ADDKA1999N+02001
0051282250999991933041009004+58017+056267FM-12+016799999V0200701N00461220001CN0040001N9+00891+99999101731ADDAY121999GF107991001001999999001041MD1810021+9999
0056167100999991933111318004+37517+022350FM-12+066599999V0209991C00001220001CN0020001N9+01281+99999999999ADDAY111999GF101991011021012501001001IA1089KA1999M+01721
0043105610999991933062312004+50467+011450FM-12+019599999V0202701N00931000601CN0040001N9+99999+99999999999ADDAY161061GF108991081061000751999999MW1601
0072124250999991933070612004+51133+016967FM-12+003799999V0200501N00101030001CN0200001N9+02001+00781101941ADDAY111999GF106991041071012501031001EQDQ01+000032APCTENQ02+000002APC3  
0051076310999991933080112004+43550+001383FM-12+016499999V0202901N00671220001CN0200001N9+02221+99999102701ADDAY121999GF102991021051008001999011MD1990061+9999
0056108660999991933022718004+48183+011550FM-12+052099999V0200901N00931220001CN0040001N9-00221+99999101941ADDAY111061GF101991999001999999071001IA1309KA1999M-00111
0057105130999991933082609004+50983+006900FM-12+001599999V0203401N00101220001CN0020001N9+02111+01171102311ADDAY101031GF100991001001999999001001MD1710021+9999MW1051
0061832290999991933092312004-12817-038317FM-12+000999999V0209991C000019999999N9999999N9+02611+99999101821ADDGF104991999999999999999999KA1999M+02721KA2999N+02221MW1111
0076103930999991933121606004+52200+014117FM-12+003299999V0203601N00461007801CN0040001N9-01611-01891101771ADDAY121061GF107991071051008001999999IA1309KA1999N-01781MD1310041+9999MW1051
0009726810241311933010216004+43567-116217SAO  +0874BOI  V0201351N006210150019N0960001N1+00581-00371999999ADDMW1001
0043600690999991933082318004+27933-013000FM-12+000599999V0203601N01541220001CN0100001N9+02111+99999101111ADDAY101999GF100991001999999999999999MW1051
0051161200999991933110312004+44400+008917FM-12+000299999V0200701N00931004501CN0100001N9+01221+99999100831ADDAY121999GF108991081081004501999999MD1710221+9999
0037206490999991933062303004+73267+056400FM-12+001899999V0202301N006719999999N0200001N9+99999+99999999999ADDAY121999GF107991001001999999021999
0072837430999991933121312004-22900-043167FM-12+002099999V0201401N002619999999N9999999N9+02221+99999101551ADDAA124012091GF107991999999999999999999KA1999M+02221KA2999N+01891MW1111
0070345040999991933051017004+48550+035100FM-12+006299999V0209991C000019999999N0040001N9+02391+99999100991ADDAY111999GF106991001001999999041011IA1009KA1999M+02611MD1810061+9999
0076106370999991933102218004+50050+008600FM-12+003499999V0200201N00461220001CN0200001N9+01111+01061101431ADDAY111061GF102991001001999999071011IA1009KA1999M+01721MD1410001+9999MW1051
0051339020999991933012411004+46667+032617FM-12+004999999V0200201N00931004201CN0040001N9-00781+99999102301ADDAY121999GF108991081051004501999999MD1810101+9999
0070262100999991933020618004+58383+021817FM-12+000799999V0203201N00461007801CN0040001N9+00111+99999100741ADDAY121999GF107991071051008001999999IA1139KA1999M+00281MD1310201+9999
0102036550999991933072907004+51933-001250FM-12+012899999V0202101N004619999999N0200001N9+01501+01441101151ADDAA199000091GA1011+999999019GF106991021051012501071001IA1009KA1999M+02111KA2999N+01391MD1810101+9999
0068220190999991933053017004+69183+033500FM-12+999999999V0209991C00001220001CN0040001N9+00281+99999101971ADDAA199000691AY171999GF104991041061012501001001IA1089MD1990021+9999
0059035310999991933080513004+52483-001933FM-12+016399999V0200901N002619999999N0200001N9+02501+01561102401ADDGA1011+999999019GF104991041071012501001001MD1810081+9999
0037600690999991933080906004+27933-013000FM-12+000599999V0209991C00001004501CN0040001N9+01891+99999101681ADDAY121999GF108991081999004501999999
0051104100999991933051209004+51400+006950FM-12+003799999V0202901N00101007801CN0040001N9+01001+00611101331ADDAY121031GF107991071071008001999999MD1310041+9999
0051100080999991933081818004+54833+014367FM-12+999999999V0202501N00671220001CN0200001N9+01781+01561100791ADDAY101999GF104991021081008001041001MD1610061+9999
0068374840999991933080804004+41650+041633FM-12+000399999V0209991C000019999999N0040001N9+02281+99999999999ADDAA199010091AY121999GF108991001001999999021999IA1009MD1310021+9999
0070380620999991933100309004+44850+065450FM-12+012999999V0200501N00931220001CN0040001N9+01611+99999101721ADDAY111999GF101991999001999999051001MD1810081+9999EQDQ01+000002SCOTLC
0112388360999991933122002004+38583+068800FM-12+080099999V0209991C00001036001CN0100001N9+00611+99999102101ADDAJ100009199999999AY121999GF108991021051017501011999HL10009IA1089IA2999+00229KA1999N+00501MD1310141+9999MW1101
0009726810241311933022208004+43567-116217SAO  +0874BOI  V0201351N001512200019N0320001N1+00301-00261999999ADDMW1001
0070074810999991933071418004+45733+004917FM-12+019899999V0200201N004619999999N0100001N9+01721+99999101511ADDAY161999GF106991041081008001041999IA1089KA1999M+02111MD1310041+9999
0009726810241311933022015004+43567-116217SAO  +0874BOI  V0201351N002612200019N0960001N1-00151+99999999999ADDMW1001
0102030560999991933081407004+56933-004233FM-12+035899999V0209991C000019999999N0100001N9+01391+01171101391ADDAA199002091GA1011+999999019GF108991041041004501041999IA1089KA1999M+01831KA2999N+01221MD1810101+9999
0051264980999991933112411004+56267+034333FM-12+019799999V0202001N009319999999N0020001N9-00281+99999100971ADDAY121999GF108991001001999999021999MD1810081+9999
0087104530999991933022606004+51800+010617FM-12+114899999V0201601N00931220001CN0200001N9-00721+99999100681ADDAA199000391AY171061GF199999081001002501001001IA1319KA1999N-00721MD1210061+9999MW1121
0087122050999991933010518004+53400+014633FM-12+000199999V0202301N00261000601CN0010001N9+00391+00331102431ADDAA199000591AY151999GF108991081051000751999999IA1089KA1999M+00501MD1110021+9999MW1101
0051368700999991933052320004+43250+076917FM-12+084299999V0200701N00101002101CN0040001N9+00891+99999101841ADDAY121999GF108991081051002501999999MD1110021+9999
0037228670999991933082704004+61083+042117FM-12+008999999V0203401N00101004201CN0002001N9+99999+99999999999ADDAY161999GF108991081051004501001999
0095200490999991933022403004+80333+052800FM-12+000699999V0209999C000019999999N0040001N9-01781+99999102801ADDAA199034091AY171999GF199999091001999999051001IA1319MW1231EQDQ01+000032APCTENQ02+000002APC3  
0051105120999991933030812004+50433+007833FM-12+007799999V0203401N00261220001CN0040001N9+00891+99999103101ADDAY111061GF104991021011008001041999MD1110141+9999
0057167460999991933082618004+35500+024033FM-12+006399999V0201401N00101220001CN0200001N9+02391+99999101401ADDAY101999GF100991001001999999001001IA1009MD1510001+9999
0051265090999991933030312004+55700+021133FM-12+000199999V0201101N00671220001CN0040001N9-00221-00721101271ADDAY121999GF108991001001999999021999MD1810181+9999
0051025500999991933121212004+57783+014167FM-12+009899999V0200201N00101220001CN0500001N9-00501+99999102211ADDAY111999GF100991001001999999001001MD1210141+9999
0035875850999991933042812004-34583-058317FM-12+002599999V0200201N004619999999N9999999N9+01611+99999102521ADDGF100991999999999999999999MW1111
0070100020999991933092806004+53767+006067FM-12+999999999V0200701N00261220001CN0100001N9+01721+01671999999ADDAY101999GF102991999001999999091001MD1310041+9999EQDQ01+000002SCOTLC
0102238040999991933012604004+61667+050850FM-12+012299999V0200501N00261220001CN0100001N9-02891+99999103631ADDAA199000691AY101999GF102991001001999999021999IA1319KA1999N-02891EQDQ01+000032APCTENQ02+000002APC3  
0081276120999991933112704004+55767+037667FM-12+014399999V0203201N00261007501CN9999999N9-00501+99999101381ADDAA199000691AY141999GF108991081051008001999999IA1319KA1999N-00501MD1810021+9999
0051282750999991933051220004+58200+068233FM-12+010099999V0202301N01231002401CN0040001N9+00221+99999101031ADDAY121999GF109991091999999999999999MD1310201+9999
0097036010999991933112707004+51683-005167FM-12+004399999V0200901N006719999999N0040001N9+00221+00171100481ADDGA1011+999999019GF104991041081008001001001IA1009KA1999M+00781KA2999N+00171MD1810121+9999MW1051
0070224710999991933012916004+65833+044267FM-12+001699999V0201101N00261220001CN0020001N9-02221+99999099841ADDAY111999GF101991011051002501001001IA1319KA1999M-01781MD1110141+9999
0086034970999991933052818004+52583+001733FM-12+000299999V0200701N002619999999N0100001N9+01221+00611101961ADDGA1011+999999019GF101991001001999999001011IA1009EQDQ01+000032APCTENQ02+000002APC3  
0086039800999991933120518004+55367-007333FM-12+002699999V0200901N004619999999N0100001N9+00561+00171102731ADDGA1011+999999019GF107991071081004501999999IA1009EQDQ01+000032APCTENQ02+000002APC3  
0073237110999991933050215004+62700+056217FM-12+010399999V0209991C00001007501CN0010001N9+00611+99999100371ADDAA199004091AY161999GF107991071031008001001001IA1159KA1999M+01221MW1611
0089264470999991933012418004+56783+027733FM-12+012099999V0201801N00261220001CN0040001N9-02221+99999104341ADDAY101999GF100991001001999999001001IA1319KA1999M-01721MD1810061+9999EQDQ01+000902SCOLCB
0107317350999991933120322004+48467+135050FM-12+004699999V0202701N01231220001CN0200001N9-01721+99999101291ADDAY101999GF100991001001999999001001IA1309KA1999N-01781EQDQ01+000952SCOLCBQ02+000042APCTENQ03+000122APC3  
0037267130999991933092606004+54633+022567FM-12+002399999V0201801N00461220001CN0100001N9+99999+99999999999ADDAY101999GF101991001001999999001999
0056355420999991933070809004+48617+061267FM-12+012799999V0209999999999220001CN0100001N9+03391+99999101141ADDAY101999GF104991999001999999061001EQDQ01+000002SCOTLC
0051109610999991933102912004+47417+010983FM-12+090399999V0203401N00931000151CN0000001N9-01391-01441098331ADDAY171061GF109991091061000251999999MD1210121+9999
0037074890999991933082612004+45300+005867FM-12+115499999V0203601N00261220001CN0200001N9+03001+99999101391ADDAY101999GF102991021999017501999999
0057014820999991933080406004+59033+010533FM-12+000999999V0202701N00461220001CN0500001N9+01891+99999101201ADDAY101999GF101991011011012501001001IA1009MD1310021+9999
0065039170999991933101818004+54650-006217FM-12+006799999V0201401N006719999999N0200001N9+01171+00941100621ADDGA1011+999999019GF108991081051004501999999IA1089MD1810101+9999
0051012030999991933120112004+62033+004983FM-12+004199999V0200901N00261220001CN0500001N9+00281+99999102911ADDAY101999GF102991011041012501001011MD1810021+9999
0057100080999991933050706004+54833+014367FM-12+999999999V0201401N00101030001CN0100001N9+00781+00721999999ADDAY121999GF108991021021004501071999MD1810101+9999MW1251
0074266660999991933020217004+55200+030200FM-12+015099999V0202301N00671007501CN0020001N9+99999+99999999999ADDAA199000391AY171999GF108991081051008001999999IA1309MD1990241+9999MW1711
0043355420999991933062509004+48617+061267FM-12+012799999V0209999999999012001CN0040001N9+02001+99999100261ADDAY191999GF108991061081008001041001MW1301
0037600960999991933071506004+23683-015900FM-12+000699999V0203601N01231220001CN0100001N9+02221+99999101101ADDAY101999GF100991001999999999999999
0051349290999991933081210004+45033+039650FM-12+003599999V0209991C00001220001CN0040001N9+03111+99999999999ADDAY101999GF100991001001999999001001MD1810101+9999
0071030910999991933042618004+57167-002200FM-12+007199999V0201701N006719999999N0040001N9+00891+00671100471ADDGA1011+999999019GF106991041081004501031001IA1089MD1810101+9999MW1251
0057325400999991933111108004+53000+158483FM-12+011399999V0203401N00261220001CN0200001N9+00001+99999102341ADDAY101999GF102991001001999999001031IA1139MD1010001+9999
0057103840999991933090221004+52483+013433FM-12+001799999V0202701N00461002401CN0200001N9+01281+01221101101ADDAY181999GF106991061061002501031001MD1110061+9999MW1251
0070325400999991933022114004+53000+158483FM-12+011399999V0209991C00001220001CN0100001N9-00721+99999100131ADDAY111999GF104991999051017501001001MD1310141+9999EQDQ01+000022SCOTLC
0025726810241311933122317004+43567-116217SAO  +0874BOI  V0203151N008712200019N0480001N1+01021+99999999999ADDGA1999+024009999MW1001
0037229390999991933051610004+60033+037783FM-12+012099999V0203201N00671030001CN0010001N9+01111+99999100811ADDAY141999GF106991041071012501031999
0080030260999991933050201004+58217-006333FM-12+000399999V0209991C000019999999N0200001N9+00561+00501100671ADDGA1011+999999019GF106991021081008001061001EQDQ01+000032APCTENQ02+000002APC3  
0051112310999991933012112004+46667+014333FM-12+044899999V0200201N00261220001CN0200001N9+00001+99999101981ADDAY111061GF102991011011022501071051MD1610021+9999
0070370500999991933120716004+44050+042083FM-12+057399999V0209991C00001220001CN0040001N9+00221+99999101551ADDAY101999GF100991001001999999001001IA1159KA1999M+00281MD1710121+9999
0076124000999991933020406004+51917+015500FM-12+004599999V0202301N00261007801CN0020001N9+00001-00061101871ADDAY121999GF108991071061008001021999IA1139KA1999N+00001MD1990141+9999MW1051
0078071800999991933022412004+48700+006233FM-12+023699999V0209991C00001004501CN0020001N9+00111+99999101271ADDAY121999GF106991061081004501001001MW1051EQDQ01+000032APCTENQ02+000002APC3  
0135239330999991933102002004+60967+069067FM-12+012899999V0202701N00261007501CN0100001N9-01221+99999999999ADDAA199000691AJ100009199999999AY121999GF107991071061008001001001IA1109KA1999N+99999EQDQ01+000032APCTENQ02+000002APC3  Q03 +00112ATMN  
0065037770999991933122418004+51350-000117FM-12+006699999V0202501N001019999999N0040001N9+00111-00111103061ADDGA1011+999999019GF107991071051004501999999IA1089MD1810141+9999
0108033960999991933111107004+53583-000117FM-12+000999999V0203201N004619999999N0100001N9+00441+00391999999ADDAA199001091GA1011+999999019GF104991021031012501071001IA1089KA1999M+00891KA2999N+00391MD1810021+9999MW1251
0108249590999991933111822004+62017+129750FM-12+010999999V0201801N006719999999N0040001N9-01391+99999101631ADDAA199000691AY171999GF108991001001999999011031IA1309KA1999N-01391MW1711EQDQ01+000022APCTENQ02+000002APC3  
0037163300999991933111218004+40467+017233FM-12+002299999V0202001N004619999999N0100001N9+01781+99999100551ADDAY121999GF106991041999012501999999
0091036270999991933022307004+51917-002583FM-12+006899999V0203401N001019999999N0100001N9-00281-00441101571ADDGA1011+999999019GF101991001001999999011001IA1139KA1999M+00441KA2999N-00391MD1810121+9999
0051107270999991933090512004+49017+008383FM-12+003599999V0200701N00671220001CN0500001N9+02391+00781102311ADDAY101061GF102991001001999999001011MD1810141+9999
0070105100999991933111106004+50350+006950FM-12+018999999V0201801N00101001501CN0100001N9-00111+99999099911ADDAY121061GF108991081051001501999999IA1139KA1999N-00221MD1810081+9999
0072838740999991933042812004-26250-048667FM-12+001199999V0202301N002619999999N9999999N9+01501+99999102521ADDAA124031091GF107991999999999999999999KA1999M+02781KA2999N+01501MW1111
0061836970999991933080512004-22383-044967FM-12+091699999V0209991C000019999999N9999999N9+00891+99999102231ADDGF100991999999999999999999KA1999M+02391KA2999N+00111MW1111
0070286610999991933040915004+55450+065150FM-12+007399999V0200701N00671075001CN0100001N9+00221+99999102031ADDAY121999GF108991001001999999001071IA1159KA1999M+00501MD1990021+9999
0043010550999991933031218004+71067+024150FM-12+000499999V0202701N00931024001CN0100001N9+00281+99999099571ADDAY161999GF108991021051008001021999MW1611
0051292630999991933112407004+58450+092167FM-12+007899999V0201601N00261075001CN0040001N9-03111+99999102641ADDAY111999GF108991001001999999001071MD1710141+9999
0057330190999991933090512004+52117+026100FM-12+013799999V0202901N00671002401CN0040001N9+01391+01171101131ADDAY151999GF108991071051002501011001MD1810061+9999MW1201
0070264220999991933080406004+56983+024083FM-12+000299999V0202501N00461030001CN0040001N9+01891+99999100941ADDAY111999GF108991041051008001031999IA1009KA1999N+01501MD1810121+9999
0057345600999991933121710004+48700+044517FM-12+006599999V0201101N00671004201CN0010001N9-00391+99999101041ADDAY151999GF108991081051004501999001MD1810261+9999MW1711
0037355420999991933100209004+48617+061267FM-12+012799999V0200701N001019999999N0100001N9+01281+99999103091ADDAY101999GF106991001001999999081021
0057060210999991933121006004+57117+008600FM-12+004699999V0202701N00461220001CN0100001N9+00391+99999102391ADDAY111999GF102991021041017501001001IA1089MD1810141+9999
0051109350999991933070412004+47667+009500FM-12+012299999V0202301N00261036001CN0100001N9+02281+01611102661ADDAY121061GF106991021011008001041011MD1990061+9999
0072076070999991933121612004+43900-000500FM-12+006399999V0200501N00461220001CN0200001N9-00111+99999101901ADDAY111999GF104991021011008001041041EQDQ01+000022APCTENQ02+000002APC3  
0059031590999991933070813004+56033-003133FM-12+005899999V0202001N004619999999N0200001N9+02221+01561101601ADDGA1011+999999019GF106991041021012501061011MD1310061+9999
0059037460999991933092113004+51167-001750FM-12+012699999V0200301N006719999999N0200001N9+01611+00941100501ADDGA1011+999999019GF107991021051008001071999MD1310061+9999
0061827940999991933021412004-07550-034817FM-12+001599999V0202301N002619999999N9999999N9+02281+99999101501ADDGF107991999999999999999999KA1999M+02891KA2999N+02111MW1171
0051062600999991933012712004+52100+005183FM-12+000399999V0200501N00261220001CN0040001N9-00281+99999102791ADDAY101999GF100991001001999999001001MD1990141+9999
0057277030999991933090811004+54517+036250FM-12+019199999V0202701N00461030001CN0100001N9+00611+99999101271ADDAY161999GF108991011091004501021999MD1310061+9999MW1631
0051284400999991933051509004+56733+060633FM-12+028899999V0200901N00101002101CN0040001N9+01001+99999101831ADDAY151999GF108991081051002501999999MD1210121+9999
0051123300999991933112712004+52417+016833FM-12+009999999V0200901N01231002401CN0040001N9+00111-00111100881ADDAY121999GF108991081061002501001001MD1810061+9999
0061839280999991933051512004-29750-057083FM-12+005699999V0209991C000019999999N9999999N9+01281+99999102391ADDGF102991999999999999999999KA1999M+02611KA2999N+01221MW1111
0051122810999991933090112004+53567+021000FM-12+004599999V0203201N00671220001CN0100001N9+02001+01061100921ADDAY121999GF104991041011008001001081MD1810261+9999
0051307580999991933121005004+52050+113317FM-12+066599999V0209991C00001030001CN0040001N9-01221+99999102521ADDAY171999GF107991011061008001021071MD1310041+9999
0037600200999991933012818004+28467-016267FM-12+003799999V0202701N01231007801CN0500001N9+01891+99999101531ADDAY111999GF106991061999008001999999
0061838740999991933112912004-26250-048667FM-12+001199999V0200501N002619999999N9999999N9+02221+99999101031ADDGF107991999999999999999999KA1999M+02611KA2999N+02111MW1111
0051339020999991933010911004+46667+032617FM-12+004999999V0200501N00671007501CN0040001N9-00611+99999103181ADDAY121999GF108991081051008001999999MD1810181+9999
0081264980999991933111105004+56267+034333FM-12+019799999V0202301N00671220001CN0040001N9-00221+99999101261ADDAA199000691AY111999GF101991001001999999001021IA1309KA1999N-00221MD1990101+9999
0070074700999991933030918004+45050+003883FM-12+071599999V0200201N00261220001CN0040001N9+00611+99999102741ADDAY101999GF106991001001999999001011IA1089KA1999M+01001MD1610061+9999
0091100460999991933072618004+54383+010150FM-12+000999999V0202701N00261220001CN0100001N9+02221+01781101941ADDAY111999GF104991041011012501001001IA1009KA1999M+02281EQDQ01+000032APCTENQ02+000002APC3  
0059038040999991933083113004+49933-006300FM-12+005099999V0203401N004619999999N0200001N9+01891+01441102621ADDGA1011+999999019GF106991041021012501061001MD1810041+9999
0117286980999991933110102004+54917+073400FM-12+009499999V0202901N004619999999N0040001N9+00281+99999102701ADDAA199000691AJ100009199999999AY161999GF108991081061999999999999HL10009IA1089IA2999+00009KA1999N+00001MD1310161+9999
0078063100999991933011406004+51567-003500FM-12+000999999V0200901N002619999999N0020001N9+00111+99999102601ADDAY121999GF108991081051999999999999IA1009EQDQ01+000042APCTENQ02+000022APC3  
0057106090999991933022812004+49750+006667FM-12+008199999V0203601N00461036001CN0040001N9+00281+99999101791ADDAY121061GF108991021051012501031999MD1110021+9999MW1051
0056103120999991933052312004+51933+007650FM-12+001799999V0200901N00461220001CN0200001N9+02221+99999102081ADDAY101999GF101991999001999999041001EQDQ01+000002SCOTLC
0070029110999991933112306004+63083+021617FM-12+000999999V0202701N00261001501CN9999999N9+00111+99999100391ADDAY121999GF108991081051001501001001IA1009KA1999N+00001MD1810261+9999
0051070700999991933102812004+49250+004083FM-12+008799999V0201801N00261036001CN0040001N9+00611+99999099311ADDAY121999GF107991021061004501031999MD1210021+9999
0057014030999991933092618004+59300+004883FM-12+005799999V0203201N00101220001CN0500001N9+01391+99999102431ADDAY101999GF101991011021012501051031IA1009MD1110041+9999
0081107760999991933061906004+48983+012200FM-12+010199999V0202301N00931002401CN0200001N9+01111+00891100081ADDAA199001091AY151061GF107991071061002501001001IA1089KA1999N+00611MD1310121+9999
0025722860231191933061315004+33900-117250SAO  +0466RIV  V0200901N000512200019N0240001N9+02391+99999100981ADDGA1001+999999999MW1001
0070260630999991933053117004+59983+030283FM-12+000599999V0200901N00461220001CN0200001N9+01611+99999101241ADDAY101999GF101991001001999999001061IA1009KA1999M+01781MD1810061+9999
0070260630999991933080705004+59983+030283FM-12+000599999V0202501N002619999999N0100001N9+01611+99999100701ADDAY111999GF107991999001000251071999IA1009KA1999N+01221MD1810061+9999
0102037750999991933052507004+51467-000317FM-12+000599999V0203401N006719999999N0200001N9+01061+00441101571ADDAA124999999GA1011+999999019GF102991021071008001001031IA1009KA1999M+01941KA2999N+01061MD1310101+9999
0051103610999991933042212004+52133+011717FM-12+001499999V0203401N00261007801CN0200001N9+00611-00171101971ADDAY111999GF106991061071008001041999MD1610041+9999
0059038940999991933101301004+49450-002550FM-12+010499999V0209991C000019999999N0500001N9+01061+00831102451ADDGA1011+999999019GF104991041071008001001001MD1310141+9999
0078101270999991933020418004+53533+008150FM-12+000299999V0202301N00461000151CN0005001N9+00891+00831100421ADDAY151999GF109991091999999999999999IA1109EQDQ01+000032APCTENQ02+000002APC3  
0043206490999991933072903004+73267+056400FM-12+001899999V0201601N00261000151CN0010001N9+99999+99999999999ADDAY121999GF109991091999000251999999MW1471
0095267020999991933101406004+54733+020567FM-12+000999999V0209991C00001220001CN0010001N9+00281+99999102461ADDAY141999GF102991021021008001031001IA1009KA1999N+00221MD1310141+9999MW1121EQDQ01+025933ATOD  
0081283670999991933072415004+57167+065533FM-12+008099999V0203201N00261220001CN0040001N9+99999+99999099721ADDAA199002091AY161999GF102991011011008001061011IA1109KA1999M+02111MD1310061+9999
0051282750999991933033020004+58200+068233FM-12+010099999V0201401N00461220001CN0040001N9-00611+99999100441ADDAY111999GF100991001001999999001001MD1810141+9999
0009726810241311933092414004+43567-116217SAO  +0874BOI  V0203151N006710120019N0240001N1+01131+00351999999ADDMW1611
0037166890999991933030112004+38250+021733FM-12+000399999V0203601N00461220001CN0500001N9+01391+99999101551ADDAY111999GF102991011041012501071001
0110039660999991933012807004+53100-007900FM-12+005799999V0200501N002619999999N0200001N9-00221-00281102221ADDGA1011+999999019GF199999001001999999001001IA1139KA1999M+00391KA2999N-00391MD1810141+9999EQDQ01+000002SCOTCV
0065037480999991933081418004+51067-001317FM-12+008399999V0201801N002619999999N0200001N9+02281+01331101081ADDGA1011+999999019GF107991041051012501071001IA1009MD1810081+9999
0057284400999991933032721004+56733+060633FM-12+028899999V0201401N01541220001CN0020001N9-01501+99999099661ADDAY111999GF100991001001999999001001MD1990061+9999MW1051
0070064510999991933032318004+50883+004417FM-12+005599999V0200701N00931220001CN0200001N9+00611+99999102801ADDAY101999GF102991001001999999001011IA1089KA1999M+01001MD1410001+9999
0057380620999991933070315004+44850+065450FM-12+012999999V0203201N00101220001CN0040001N9+03281+99999100031ADDAY101999GF101991011011008001001001IA1009MD1810041+9999
0102037750999991933061607004+51467-000317FM-12+000599999V0202001N002619999999N0040001N9+01721+01441101341ADDAA124999999GA1011+999999019GF102991001001999999031001IA1089KA1999M+02561KA2999N+01501MD1310061+9999
0123030750999991933072307004+58450-003083FM-12+003699999V0202301N002619999999N0200001N9+01561+01281102081ADDAA199000591GA1011+999999019GF107991061051008001011001IA1089KA1999M+01671KA2999N+01061EQDQ01+000032APCTENQ02+000002APC3  
0102030260999991933111407004+58217-006333FM-12+000399999V0202001N002619999999N0200001N9+00501+00281100151ADDAA199004091GA1011+999999019GF102991021081008001061001IA1089KA1999M+00891KA2999N+00391MD1310021+9999
0051121860999991933082812004+54033+022517FM-12+005099999V0203601N00461220001CN0200001N9+01721+01061100971ADDAY111999GF104991041021012501001001MD1810061+9999
0057325400999991933081308004+53000+158483FM-12+011399999V0203601N001019999999N0200001N9+02111+99999100601ADDAY121999GF108991001001999999071999IA1089MD1810141+9999
0051040030999991933032412004+65550-024017FM-12+999999999V0209991C00001220001CN9999999N9+00391+99999101121ADDAY111061GF104991001001999999031999MD1310061+9999
0102038140999991933081007004+49950-005200FM-12+007399999V0200501N006719999999N0200001N9+01671+01611101921ADDAA124999999GA1011+999999019GF106991041081008001051001IA1009KA1999M+02111KA2999N+01611MD1310021+9999
0057370000999991933050116004+44733+037650FM-12+003799999V0201401N00671220001CN0100001N9+01001+99999102201ADDAY101999GF102991021051004501001091IA1089MD1610041+9999
0074347310999991933033004004+47217+039717FM-12+004899999V0202001N00261012001CN0020001N9+00111+99999100171ADDAA199007091AY171999GF108991081031012501999999IA1109MD1110181+9999MW1611
0059037950999991933052713004+51083+001017FM-12+010499999V0201801N004619999999N0200001N9+01391+00941101341ADDGA1011+999999019GF107991011021012501071001MD1810081+9999
0057283670999991933062909004+57167+065533FM-12+008099999V0202301N00931220001CN0040001N9+03001+99999101181ADDAY111999GF104991021041012501021011MD1810141+9999MW1051
0068339760999991933121705004+45033+035383FM-12+000899999V0202901N00101012001CN0040001N9+00721+99999100301ADDAA199004091AY161999GF108991081051012501999999IA1109MD1310101+9999
0091071100999991933110506004+48333-004767FM-12+003299999V0200201N00461220001CN0100001N9+00611+99999102091ADDAY101999GF104991021021008001041999IA1209KA1999N+00111EQDQ01+000042APCTENQ02+000022APC3  
0037104330999991933110606004+51400+008567FM-12+013799999V0202301N00101220001CN0100001N9+99999+99999999999ADDAY101061GF100991001001999999001999
0087330380999991933053117004+52267+029833FM-12+013799999V0203601N00931004201CN0010001N9+01111+99999100021ADDAA199018091AY161999GF108991081061004501999999IA1089KA1999M+01111MD1810121+9999MW1631
0100260630999991933122005004+59983+030283FM-12+000599999V0203201N004619999999N0200001N9-00221+99999100081ADDAA199000391AY171999GF106991999001999999031001IA1309KA1999N-00221MD1310101+9999EQDQ01+000002SCOTLC
0051124950999991933052618004+51233+022583FM-12+020399999V0202901N00101004501CN0040001N9+01281+01061100421ADDAY121999GF107991061041004501071001MD1310121+9999
0102030050999991933050701004+60133-001183FM-12+008399999V0200701N004619999999N0000501N9+00611+00561100821ADDGA1011+999999019GF108991081051000251999999MW1441EQDQ01+000032APCTENQ02+000002APC3  Q03+000452PRSWM1
0043841290999991933120917004-02167-079867FM-12+000399999V0202301N00671220001CN0500001N9+02891+99999100791ADDAY111999GF100991001999999999999999MW1001
0072100080999991933082312004+54833+014367FM-12+999999999V0202701N00101220001CN0200001N9+02111+01441999999ADDAY101999GF104991041021008001001999EQDQ01+000032APCTENQ02+000002APC3  
0076066300999991933030918004+46950+007483FM-12+057299999V0200501N00461012301CN0040001N9+00611+99999102981ADDAY121999GF108991081051012501999999IA1009KA1999M+00721MD1610041+9999MW1051
0105072070999991933122018004+47300-003267FM-12+004599999V0203401N00261220001CN0100001N9+00391+99999102692ADDAY121999GF102991999041008001001001IA1089KA1999M+00611MD1310081+9999EQDQ01+000012SCOTLCQ02+102693APOSLP
0051100010999991933021112004+53600+006700FM-12+000499999V0200501N00261220001CN0200001N9+00281+99999102921ADDAY101999GF104991021021004501001081MD1010101+9999
0057040030999991933021112004+65550-024017FM-12+999999999V0202301N009319999999N9999999N9-00111+99999099741ADDAY171061GF108991081061999999999999MD1810161+9999MW1851
0056370000999991933013004004+44733+037650FM-12+003799999V0209991C00001007501CN0040001N9+00111+99999102741ADDAY121999GF108991081051008001999999IA1309KA1999N+00001
0063101700999991933122918004+54183+012100FM-12+000299999V0200701N00101007801CN0040001N9-00111-00171100571ADDAY101999GF107991071071008001999999IA1009MD1210041+9999MW1051
0089344150999991933020117004+49183+037300FM-12+007999999V0209991C00001220001CN0040001N9-00501+99999102251ADDAY121999GF101991001001999999001081IA1309KA1999M-00111MD1310081+9999EQDQ01+000982SCOLCB
0049167430999991933052718004+36133+023000FM-12+018499999V0202701N00461002401CN0010001N9+02721+99999100741ADDAY111999GF107991071051002501011011IA1009MW1051
0059030260999991933061801004+58217-006333FM-12+000399999V0209991C000019999999N0200001N9+00891+00831999999ADDGA1011+999999019GF104991041091004501071001MD1810061+9999
0037085890999991933100412004+14917-023517FM-12+003499999V0200201N99999220001CN0010001N9+02781+99999101401ADDAY121999GF104991041999012501999999
0037267130999991933050506004+54633+022567FM-12+002399999V0200901N00261220001CN0200001N9+99999+99999999999ADDAY101999GF100991001001999999001999
0089125660999991933101718004+50083+019983FM-12+022299999V0200901N00101220001CN0040001N9+00721+99999101461ADDAY111999GF104991999001999999011001IA1009KA1999M+01221MD1310141+9999EQDQ01+000002SCOTLC
0087064510999991933061706004+50883+004417FM-12+005599999V0202001N00671001501CN0040001N9+01281+99999099911ADDAA199001091AY161999GF108991071061001501021999IA1109KA1999N+01281MD1810341+9999MW1631
0070115190999991933072718004+50067+014433FM-12+025499999V0201601N00101220001CN0200001N9+03111+99999101681ADDAY101999GF100991001001999999001001IA1009KA1999M+03391MD1610081+9999
0070105440999991933041206004+50500+009933FM-12+028299999V0202301N004619999999N0100001N9+01111+00671100071ADDAY121061GF106991999001017501071061IA1009KA1999N+01001MD1810081+9999
0062166270999991933030106004+40850+025883FM-12+001399999V0203601N00461220001CN0040001N9+00281+99999102461ADDAY121999GF108991999001999999021001IA1089EQDQ01+000002SCOTLC
0089010980999991933012106004+70367+031100FM-12+001299999V0202301N012319999999N0500001N9-01281+99999103891ADDAA199001091AY171999GF107991999999008001011999IA1309EQDQ01+000042APCTENQ02+000162APC3  
0051104880999991933060312004+51133+013767FM-12+007099999V0203601N00461012301CN0500001N9+02111+00891102131ADDAY111061GF106991061021012501001001MD1990061+9999
0070108660999991933041706004+48183+011550FM-12+052099999V0202901N002610360019N0200001N9+00781+99999101911ADDAY121061GF108991041041012501021999IA1009KA1999N+00721MD1310061+9999
0037107620999991933032106004+49300+012833FM-12+012599999V0202701N00101220001CN0100001N9+99999+99999999999ADDAY101061GF101991011011012501001999
0057238490999991933041508004+61250+073400FM-12+004099999V0209991C00001075001CN0040001N9+00721+99999102071ADDAY101999GF106991001001999999001091MD1810061+9999MW1401
0091341720999991933081816004+51533+046050FM-12+006699999V0202501N00261220001CN0100001N9+01891+99999101021ADDAY101999GF102991021011012501001001IA1089KA1999M+02391EQDQ01+000032APCTENQ02+000002APC3  
0076267020999991933112506004+54733+020567FM-12+000999999V0200501N00261220001CN0005001N9-00221-00281100601ADDAY141999GF104991041051012501071001IA1139KA1999N-00221MD1310181+9999MW1461
0037071500999991933070818004+48950+002433FM-12+004699999V0202501N00101220001CN0100001N9+02781+99999102111ADDAY101999GF104991041041017501031999
0070335870999991933042717004+48750+030217FM-12+021999999V0203201N004619999999N0040001N9+00501+99999101471ADDAY121999GF108991999999008001999999IA1089KA1999M+00611MD1310041+9999
0074374840999991933030616004+41650+041633FM-12+000399999V0203601N00261012001CN0040001N9+00781+99999102201ADDAA199000391AY151999GF108991081061012501999999IA1089MD1210021+9999MW1601
0062104690999991933120818004+51400+012217FM-12+004199999V0200701N00671220001CN0100001N9-01001-01331102921ADDAY101061GF100991001001999999001001IA1309KA1999M-00611MW1051
0095104160999991933111706004+51533+007583FM-12+002199999V0209991C00001007801CN0010001N9+00001-00061101071ADDAY121061GF107991071051008001999999IA1139KA1999N+99999MD1210101+9999MW1051EQDQ01 +00282ATMN  
0051108460999991933060612004+48933+010550FM-12+013399999V0200501N00671220001CN0100001N9+02221+00611101571ADDAY111061GF101991011011012501081011MD1810041+9999
0059034970999991933101001004+52583+001733FM-12+000299999V0202001N009319999999N0100001N9+01671+01611100201ADDGA1011+999999019GF108991041061004501021999MD1810041+9999
0057040030999991933040806004+65550-024017FM-12+999999999V0203201N002619999999N9999999N9+00001+99999101111ADDAY171061GF108991081061999999999999MD1810161+9999MW1731
0051360030999991933112320004+52283+076950FM-12+012799999V0202301N004619999999N0000501N9-02221+99999999999ADDAY111999GF108991001001999999021999MD1810101+9999
0089349290999991933012216004+45033+039650FM-12+003599999V0200701N002619999999N0040001N9-00221+99999101891ADDAY111999GF108991999999999999999999IA1139KA1999M+00221MD1310061+9999EQDQ01+000092SCOTLC
0072833390999991933032612004-14067-042317FM-12+086999999V0202301N009319999999N9999999N9+01781+99999101741ADDAA124030091GF107991999999999999999999KA1999M+02611KA2999N+01721MW1111
0037229390999991933062310004+60033+037783FM-12+012099999V0202301N006719999999N0010001N9+02281+99999101101ADDAY121999GF106991041011012501001999
0091232420999991933012102004+67700+072950FM-12+000499999V0203601N00101015001CN0010001N9-01111+99999999999ADDAY121999GF108991081051017501999999IA1319KA1999N-01221EQDQ01+000032APCTENQ02+000002APC3  
0070335870999991933092817004+48750+030217FM-12+021999999V0203401N002619999999N0040001N9+01281+99999102391ADDAY111999GF107991001001999999071999IA1089KA1999M+02111MD1610021+9999
0051265100999991933052906004+55150+020867FM-12+000199999V0202901N00671220001CN0200001N9+00891+00441101681ADDAY101999GF101991011051008001001001MD1310101+9999
0067108650999991933021506004+48183+011550FM-12+015599999V0202901N00101220001CN0200001N9-00611-00781101861ADDAA199000591AY101061GF101991011051008001011001IA1309KA1999N-00781
0070233300999991933102503004+66533+066600FM-12+003599999V0202301N00261007501CN0020001N9-00391+99999101091ADDAY171999GF108991999051008001091999MD1310181+9999EQDQ01+000082SCOTLC
0056166750999991933112218004+38900+022433FM-12+999999999V0201401N00101012301CN0010001N9+01001+99999102611ADDAY121999GF108991081091012501001001IA1089KA1999M+01111
0081107270999991933060118004+49017+008383FM-12+003599999V0209991C00001220001CN0200001N9+01281+00831101711ADDAA199000391AY191061GF102991011091017501011031IA1089KA1999M+01721MD1310121+9999
0102039800999991933021907004+55367-007333FM-12+002699999V0203601N006719999999N0200001N9+00391+00171102361ADDAA124999999GA1011+999999019GF106991021051004501071001IA1009KA1999M+00441KA2999N+00221MD1310061+9999
0127039280999991933051707004+54650-005533FM-12+001299999V0201101N001019999999N0005001N9+00891+00831102021ADDAA124999999GA1011+999999019GF108991081051002501999999IA1009KA1999M+01391KA2999N+00831MD1310101+9999MW1441EQDQ01+000452PRSWM1
0057200490999991933093003004+80333+052800FM-12+000699999V0200901N012319999999N0100001N9-00281+99999099681ADDAY111999GF108991071061999999021999IA1309MD1710241+9999
0070029750999991933122018004+60250+025033FM-12+001599999V0200201N00461220001CN0200001N9-00781+99999101881ADDAY101999GF100991001001999999001001IA1159KA1999M+00111MD1310181+9999
0081340090999991933040605004+51750+036200FM-12+023499999V0209991C00001002101CN0000501N9+00281+99999100311ADDAA199000591AY141999GF108991081051002501999999IA1109KA1999N+00221MD1810021+9999
0037267130999991933102109004+54633+022567FM-12+002399999V0201401N00461220001CN0100001N9+99999+99999999999ADDAY111999GF102991001001999999041999
0051370500999991933112522004+44050+042083FM-12+057399999V0209991C000019999999N0020001N9-00111+99999999999ADDAY141999GF108991001001999999071999MD1310141+9999
0057122050999991933021509004+53400+014633FM-12+000199999V0202701N00671002401CN0040001N9+00001-00061100261ADDAY171999GF107991061061002501021999MD1710041+9999MW1221
0076106350999991933122218004+50217+008450FM-12+024499999V0203201N00461000151CN0000501N9-00391-00441101711ADDAY141061GF109991091999000251999999IA1309KA1999M-00111MD1310081+9999MW1451
0037166480999991933110218004+39633+022417FM-12+007599999V0209991C00001220001CN0040001N9+01611+99999101731ADDAY121999GF106991001001999999071999
0051100080999991933012818004+54833+014367FM-12+999999999V0202901N00261004501CN0040001N9+00281+00221101871ADDAY121999GF108991081041004501999999MD1810141+9999
0070294300999991933061013004+56433+084967FM-12+013899999V0209991C00001220001CN0040001N9+01891+99999099701ADDAY111999GF102991001001999999001011IA1009KA1999M+02111MD1710101+9999
0051101700999991933042712004+54183+012100FM-12+000299999V0201401N00931220001CN0200001N9+01501+00331101731ADDAY101999GF100991001001999999001001MD1810261+9999
0078286420999991933112809004+55150+061150FM-12+022799999V0200201N01901004201CN0002001N9-02391+99999101051ADDAY171999GF108991081051004501999999MW1751EQDQ01+000032APCTENQ02+000002APC3  
0072100100999991933010518004+54550+007883FM-12+999999999V0201801N004619999999N0040001N9+00721+00671999999ADDAY121999GF108991081011999999999999EQDQ01+000032APCTENQ02+000002APC3  
0088128400999991933042412004+47517+019017FM-12+013099999V0203601N004619999999N0500001N9+01221-00221101451ADDAY121999GF108991999001022501071999EQDQ01+000002SCOTLCQ02+000082APCTENQ03+000002APC3  
0081029750999991933070106004+60250+025033FM-12+001599999V0209991C00001007801CN0200001N9+01611+99999100481ADDAA199003091AY111999GF106991061081008001051999IA1009KA1999N+01111MD1310021+9999
0057104160999991933032318004+51533+007583FM-12+002199999V0200901N00671220001CN0200001N9+00281-00501103201ADDAY101061GF104991001001999999001011IA1089MD1310041+9999
0051070160999991933090912004+50150+003267FM-12+009899999V0200701N00931220001CN0040001N9+02281+99999102151ADDAY101999GF100991001001999999001001MD1990101+9999
0051103930999991933051312004+52200+014117FM-12+003299999V0203201N00461007801CN0200001N9+01281+00391101221ADDAY121061GF107991071081008001031999MD1810021+9999
0070388800999991933051515004+38000+058300FM-12+025499999V0200901N00261220001CN0000001N9+03001+99999100821ADDAY121999GF100991001001999999001001IA1009KA1999M+03111MD1310021+9999
0051339020999991933032211004+46667+032617FM-12+004999999V0200501N00461220001CN0100001N9+01001+99999101351ADDAY101999GF100991001001999999001001MD1990141+9999
0087106850999991933042906004+50300+011867FM-12+017399999V0202001N00101004501CN0020001N9+00721+00671101101ADDAA199001091AY161061GF108991061061004501021999IA1089KA1999N+00221MD1310061+9999MW1611
0061826860999991933122712004-06367-039300FM-12+021199999V0201401N002619999999N9999999N9+02281+99999101021ADDGF107991999999999999999999KA1999M+03221KA2999N+02221MW1111
0070123300999991933072606004+52417+016833FM-12+009999999V0202701N00461220001CN0040001N9+02111+01671101511ADDAY111999GF102991999001999999081001MD1310021+9999EQDQ01+000002SCOTLC
0102267740999991933041905004+54300+030817FM-12+020399999V0202701N00461007501CN0040001N9+00001+99999099771ADDAA199002091AY171999GF108991081051008001999999IA1199KA1999N-00391EQDQ01+000042APCTENQ02+000182APC3  
0070107270999991933012506004+49017+008383FM-12+003599999V0200701N00931015001CN0100001N9-00721-01221102931ADDAY121061GF107991061051017501021999IA1139KA1999N-00891MD1610041+9999
0065033110999991933091218004+53317-004617FM-12+000899999V0200501N006719999999N0100001N9+01611+01171101881ADDGA1011+999999019GF101991011051012501001091IA1009MD1810061+9999
0025722860231191933110918004+33900-117250SAO  +0466RIV  V0202901N001512200019N0160001N9+02461+99999102301ADDGA1001+999999999MW1001
0037166410999991933110712004+39617+019917FM-12+004299999V0209991C000019999999N0200001N9+02281+99999101951ADDAY111999GF106991021021999999051999
0088124950999991933061306004+51233+022583FM-12+020399999V0209991C00001220001CN0100001N9+01891+01221100971ADDAY101999GF101991999001999999011001EQDQ01+000002SCOTLCQ02+000032APCTENQ03+000002APC3  
0068060210999991933050906004+57117+008600FM-12+004699999V0200501N00101001501CN0020001N9+00891+99999100361ADDAA199007091AY171999GF109991091061001501001001IA1089MD1510021+9999
0051109350999991933080912004+47667+009500FM-12+012299999V0202301N00261220001CN0100001N9+02781+01781101671ADDAY101061GF101991011021012501001001MD1810041+9999
0070112310999991933072818004+46667+014333FM-12+044899999V0202501N00261220001CN0200001N9+03001+99999101411ADDAY111061GF102991999001999999041001IA1009KA1999M+03611MD1810081+9999
0051361770999991933122008004+50400+080217FM-12+020299999V0201601N012319999999N0200001N9-00281+99999101891ADDAY111999GF108991001001999999071999MD1990201+9999
0065039730999991933040913004+54100-010067FM-12+000599999V0202301N009319999999N0100001N9+01111+01061101451ADDGA1011+999999019GF107991071051001501001001MD1310081+9999MW1541
0070260630999991933032806004+59983+030283FM-12+000599999V0202701N00261220001CN0100001N9+00001+99999100781ADDAY121999GF108991001001999999011999IA1139KA1999N-00221MD1810381+9999
0062103120999991933121806004+51933+007650FM-12+001799999V0209991C00001004501CN0010001N9-00501+99999102851ADDAY171999GF108991081061004501999999IA1139KA1999N-01001MW1701
0051221490999991933052110004+68150+039650FM-12+007599999V0200201N00261009001CN0010001N9+00111+99999101731ADDAY151999GF108991081081004501999999MD1310241+9999
0065037660999991933091718004+51283-000750FM-12+006999999V0201901N004619999999N0100001N9+01831+01561101531ADDGA1011+999999019GF104991021081008001061031IA1089MD1810041+9999
0057294300999991933101319004+56433+084967FM-12+013899999V0202301N00671004201CN0020001N9+00111+99999102351ADDAY121999GF108991081061004501999999MD1990021+9999MW1711
0065037460999991933051313004+51167-001750FM-12+012699999V0201801N001019999999N0100001N9+01171+00941101371ADDGA1011+999999019GF107991041051004501021001MD1810101+9999MW1601
0070128400999991933051112004+47517+019017FM-12+013099999V0201801N00101012301CN0100001N9+01611+01171100581ADDAY121999GF108991999061012501071999MD1810081+9999EQDQ01+000082SCOTLC
0037380620999991933041321004+44850+065450FM-12+012999999V0200501N00261090001CN9999999N9+00781+99999101411ADDAY111999GF107991001001999999001081
0065036970999991933092113004+51950+001333FM-12+000399999V0203201N002619999999N0040001N9+01281+01221100371ADDGA1011+999999019GF108991061061004501021999MD1810021+9999MW1631
0070280440999991933040715004+59600+060533FM-12+013299999V0200901N00261220001CN0200001N9+00501+99999101891ADDAY111999GF102991021051022501001001IA1159KA1999M+00721MD1310021+9999
0037167430999991933121112004+36133+023000FM-12+018499999V0209991C00001001501CN0020001N9+01501+99999101281ADDAY161999GF108991061051001501091999
0043113090999991933122206004+46967+009917FM-12+043899999V0202701N00461004501CN0020001N9+99999+99999999999ADDAY171061GF108991081061004501999999MW1681
0108341720999991933122504004+51533+046050FM-12+006699999V0202901N00101007501CN0010001N9-01501+99999100741ADDAA199000391AY171999GF108991081061008001999999IA1319KA1999N-01721MW1711EQDQ01+000082APCTENQ02+000002APC3  
0057319600999991933102016004+43117+131917FM-12+012899999V0203601N00931220001CN0020001N9+00721+99999100541ADDAY101999GF100991001001999999001001MD1810201+9999MW1051
0070122810999991933031109004+53567+021000FM-12+004599999V0209991C00001001501CN0040001N9+00111+00061103031ADDAY121999GF108991999061001501021999MD1810101+9999EQDQ01+000082SCOTLC
0051104530999991933121012004+51800+010617FM-12+034899999V0201401N00931000601CN0200001N9-00891-00941100441ADDAY111061GF107991999001000751071001MD1990161+9999
0087387630999991933060803004+38967+056283FM-12+007199999V0202701N00461220001CN0100001N9+02111+99999101221ADDAJ100009199999999AY101999GF100991001001999999001001IA1009KA1999N+01721MD1310181+9999
0051275530999991933061410004+56333+044000FM-12+015999999V0203401N00671220001CN0040001N9+01721+99999101491ADDAY111999GF104991041071008001001001MD1310021+9999
0083025900999991933050918004+57650+018300FM-12+001199999V0202301N001019999999N0002001N9+00501+99999100801ADDAA199005091AY151999GF108991081061999999001001EQDQ01+000032APCTENQ02+000002APC3  
0037106880999991933103006004+49683+012167FM-12+012199999V0202701N00261220001CN0040001N9+99999+99999999999ADDAY111061GF104991021031012501071999
0051348800999991933112310004+46350+048033FM-12-002599999V0202301N00101220001CN0100001N9+00001+99999103011ADDAY101999GF102991001001999999001999MD1810141+9999
0076074200999991933120818004+45667+000233FM-12+008399999V0209991C00001004501CN0020001N9+00111+99999101191ADDAY121999GF107991071051004501999999IA1089KA1999M+00281MD1310101+9999MW1051
0057105010999991933013012004+50783+006100FM-12+006399999V0202001N01541220001CN0040001N9+00611+00391100231ADDAY161061GF107991001001999999071999MD1810101+9999MW1601
0029032620999991933092906004+55017-001417FM-12+003399999V0209991C00001004501CN0010001N9+01281+99999102021ADDGF108991081051004501999999
0009726810241311933112216004+43567-116217SAO  +0874BOI  V0202701N001512200019N0400001N1+99999+99999999999ADDMW1001
0072835870999991933030712004-19933-043933FM-12+091599999V0200501N002619999999N9999999N9+02111+99999100981ADDAA124010091GF107991999999999999999999KA1999M+02611KA2999N+01721MW1111
0102036550999991933051007004+51933-001250FM-12+012899999V0202701N004619999999N0200001N9+00941+00721101091ADDAA199002091GA1011+999999019GF107991071051008001999999IA1089KA1999M+01501KA2999N+00721MD1310021+9999
0076264220999991933011006004+56983+024083FM-12+000299999V0201601N00931002401CN0020001N9-00611+99999102771ADDAY171999GF108991081051002501999999IA1309KA1999N-00721MD1310321+9999MW1051
0051072570999991933091812004+47050+002650FM-12+017999999V0202301N00101004501CN0040001N9+02111+99999101791ADDAY111999GF108991061061004501011999MD1810241+9999
0057071800999991933062612004+48700+006233FM-12+023699999V0203201N00671004501CN0040001N9+01391+99999101031ADDAY181999GF107991071081004501999999MD1310061+9999MW1251
0070236310999991933122815004+63933+065067FM-12+004099999V0202301N00101220001CN0100001N9-03281+99999104291ADDAY111999GF104991999001999999021081IA1319KA1999M-03281MD1810021+9999
0056107760999991933022106004+48983+012200FM-12+010199999V0200501N00461220001CN0100001N9-00611-00781101861ADDAY101061GF104991011051012501051999IA1159KA1999N-00611
0061836810999991933071912004-21783-046550FM-12+121099999V0200901N002619999999N9999999N9+00781+99999102551ADDGF102991999999999999999999KA1999M+01281KA2999N-00111MW1111
0102234050999991933091904004+65483+052167FM-12+003799999V0201101N00461012001CN0200001N9-00221+99999104001ADDAA199000691AY111999GF107991071051012501001001IA1139KA1999N-00391EQDQ01+000032APCTENQ02+000002APC3  
0037167380999991933092212004+36767+024417FM-12+018099999V0203601N00101220001CN0100001N9+02501+99999101421ADDAY101999GF100991001001999999001001
0091076020999991933091618004+43483-001567FM-12+002999999V0202701N00101220001CN0200001N9+02391+99999102021ADDAY101999GF104991011021008001001051IA1009KA1999M+02611EQDQ01+000032APCTENQ02+000002APC3  
0037010980999991933051206004+70367+031100FM-12+001299999V0203401N00101004501CN0500001N9+00111+99999102221ADDAY111999GF106991061021004501001999
0108266660999991933090617004+55200+030200FM-12+015099999V0200201N00671007501CN0020001N9+00721+99999100691ADDAA199013091AY161999GF108991081061008001999999IA1109KA1999M+00721MW1631EQDQ01+000032APCTENQ02+000002APC3  
0037108100999991933083106004+48600+008200FM-12+035599999V0203201N00461036001CN0200001N9+99999+99999999999ADDAY121061GF106991021051017501031999
0057292630999991933092307004+58450+092167FM-12+007899999V0202701N002619999999N0040001N9+00221+99999102261ADDAY121999GF108991081061999999999001MD1310021+9999MW1721
0051010010999991933022112004+70983-008333FM-12+002399999V0202901N00671220001CN0500001N9-00111+99999102451ADDAY121999GF104991041081012501001001MD1310181+9999
0072827940999991933013112004-07550-034817FM-12+001599999V0201801N002619999999N9999999N9+02891+99999101461ADDAA124005091GF104991999999999999999999KA1999M+03221KA2999N+01891MW1111
0037167430999991933032912004+36133+023000FM-12+018499999V0200501N00101220001CN0020001N9+01391+99999101541ADDAY151999GF104991021021999999051001
0037165300999991933021206004+40933+009500FM-12+000299999V0202901N00261007801CN0100001N9+01221+99999100931ADDAY121999GF108991081999008001999999
0056372280999991933081816004+43050+044483FM-12+066899999V0200501N00101220001CN0500001N9+01891+99999101391ADDAY101999GF100991001001999999001001IA1089KA1999M+02281
0076349290999991933051722004+45033+039650FM-12+003599999V0203601N006719999999N0040001N9+01391+99999999999ADDAY161999GF108991999999999999999999MD1610141+9999MW1611EQDQ01+000092SCOTLC
0065039530999991933010213004+51933-010250FM-12+000999999V0201801N015419999999N0040001N9+01221+01171098131ADDGA1011+999999019GF108991081061002501999999MD1810361+9999MW1611
0108260940999991933111405004+59650+033533FM-12+004999999V0202001N00101220001CN0100001N9-01501+99999102271ADDAY101999GF101991999001999999011001HL10009IA1309IA2999-01899KA1999N-01611MD1310081+9999EQDQ01+000002SCOTLC
0051104570999991933041212004+51750+011067FM-12+003899999V0202701N00101007801CN0100001N9+01611+01171101381ADDAY181061GF108991081051008001999999MD1210011+9999
0106260630999991933100217004+59983+030283FM-12+000599999V0202901N00261007501CN0040001N9+01001+99999100241ADDAA199001091AY161999GF108991999061008001021999IA1089KA1999M+01221MD1810121+9999MW1611EQDQ01+000082SCOTLC
0051104160999991933050603004+51533+007583FM-12+002199999V0209991C00001220001CN0100001N9+01221+01001101281ADDAY121031GF107991001001999999051091MD1810081+9999
0081076020999991933092318004+43483-001567FM-12+002999999V0202501N006719999999N0200001N9+01781+99999100911ADDAA199005091AY161999GF106991041091004501091001IA1109KA1999M+02001MD1310021+9999
0057115180999991933040212004+50100+014283FM-12+037199999V0203401N00931007801CN0200001N9+00781+99999101861ADDAY181999GF107991071061008001999999MD1990061+9999MW1891
0072352290999991933030621004+50233+057233FM-12+022099999V0201801N00261220001CN0005001N9-02391+99999103041ADDAY101999GF100991001001999999001001EQDQ01+000032APCTENQ02+000002APC3  
0070375450999991933060104004+41717+044800FM-12+040999999V0203601N00461036001CN0100001N9+01391+99999100641ADDAY111999GF107991021051012501011071IA1009KA1999N+01111MD1310021+9999
0070229810999991933082104004+60767+046300FM-12+006399999V0200201N01231007501CN0100001N9+01281+99999100081ADDAY121999GF108991081051008001001001IA1089KA1999N+01111MD1810021+9999
0057105130999991933121212004+50983+006900FM-12+001599999V0201101N00101012301CN0020001N9+00001-00331101241ADDAY121061GF107991061051012501999999MD1810221+9999MW1051
0061836460999991933022712004-20850-041100FM-12+003499999V0209991C000019999999N9999999N9+02721+99999101561ADDGF100991999999999999999999KA1999M+03281KA2999N+02001MW1111
0057105440999991933031812004+50500+009933FM-12+028299999V0202301N01541000151CN0500001N9+00221+00001097711ADDAY121061GF108991071061000251021999MD1210041+9999MW1831
0106072800999991933111318004+47267+005083FM-12+022399999V0209991C00001002401CN0020001N9+00391+99999101071ADDAA199001091AY161999GF108991999051002501021999IA1109KA1999M+00501MD1310121+9999MW1211EQDQ01+000082SCOTLC
0051262100999991933100612004+58383+021817FM-12+000799999V0203601N00931220001CN0100001N9+00721+99999101781ADDAY111999GF102991021071017501001001MD1310201+9999
0068370990999991933102716004+43633+039750FM-12+999999999V0200501N004619999999N0100001N9+01281+99999101661ADDAA199003091AY161999GF107991999021004501091001IA1009MD1310021+9999
0070116430999991933082118004+50750+015733FM-12+049199999V0202301N00261220001CN0100001N9+00721+00671099631ADDAY101999GF102991011011002501001041IA1009KA1999M+01001MD1810021+9999
0078100100999991933070606004+54550+007883FM-12+999999999V0209991C000019999999N0000001N9+01501+01441999999ADDAY141999GF108991081999999999999999MW1451EQDQ01+000032APCTENQ02+000002APC3  
0037166480999991933101212004+39633+022417FM-12+007599999V0203601N00101220001CN0500001N9+02391+99999999999ADDAY101999GF101991011011012501001999
0057023610999991933050206004+62617+017950FM-12+000999999V0203201N00261220001CN0500001N9+00501+99999101641ADDAY111999GF104991041001012501041001IA1089MD1310101+9999
0072221490999991933011210004+68150+039650FM-12+007599999V0209999901231006001CN0200001N9-00721+99999102791ADDAY111999GF107991071081002501001001EQDQ01+000032APCTENQ02+000002APC3  
0051100080999991933031706004+54833+014367FM-12+999999999V0202301N00671007801CN0100001N9+00501+00111099861ADDAY121999GF108991081031008001999999MD1810221+9999
0070076020999991933042906004+43383-001750FM-12+002999999V0200501N00101004501CN0200001N9+01391+99999100951ADDAY121999GF108991061061004501031999IA1009KA1999N+01391MD1310061+9999
0043161200999991933010106004+44400+008917FM-12+000299999V0209991C00001004501CN0100001N9+00891+99999102741ADDAY161999GF108991081999004501999999MW1621
0051106090999991933060312004+49750+006667FM-12+008199999V0201401N00101220001CN0200001N9+02611+99999101811ADDAY101061GF101991011011012501001001MD1810141+9999
0057014030999991933062918004+59300+004883FM-12+005799999V0203401N00931220001CN0500001N9+01391+99999100861ADDAY101999GF102991011021012501051041IA1009MD1310041+9999
0078064590999991933100212004+49983+004333FM-12+032899999V0200701N00671004501CN0010001N9+01281+99999102291ADDAY151999GF108991061051004501021999MW1501EQDQ01+000032APCTENQ02+000002APC3  
0056167100999991933060206004+37517+022350FM-12+066599999V0209991C00001220001CN0100001N9+01281+99999101001ADDAY101999GF102991021021017501001091IA1009KA1999N+00721
0037165970999991933042906004+35900+014517FM-12+008599999V0202501N00261220001CN0200001N9+01611+99999102111ADDAY111999GF104991041999008001999999
0081284400999991933112803004+56733+060633FM-12+028899999V0200501N012319999999N0020001N9-02721+99999101521ADDGF108991041051004501999999HL10009IA1319IA2999-02399KA1999N-02721MD1310201+9999
0070021960999991933100118004+65833+024150FM-12+000999999V0209991C000019999999N9999999N9+00891+99999100201ADDAY121999GF108991999999999999999999IA1009KA1999M+01001MD1990041+9999
0051024640999991933091412004+59350+017950FM-12+001099999V0200901N00931012301CN0200001N9+01111+99999100641ADDAY121999GF108991081051012501999999MD1310101+9999
0084370000999991933060104004+44733+037650FM-12+003799999V0202301N00931012001CN0100001N9+01501+99999100481ADDAA199000391AJ100009199999999AY111999GF106991061091012501001001IA1089KA1999N+01391
0051108460999991933101412004+48933+010550FM-12+013399999V0200901N00261220001CN0100001N9+01111+00221102471ADDAY111061GF102991021021008001061999MD1990021+9999
0051062300999991933123012004+52967+004750FM-12+000699999V0201801N00261012301CN0100001N9-00111+99999101031ADDAY121999GF108991081051012501999999MD1990101+9999
0051122050999991933042809004+53400+014633FM-12+000199999V0203601N00101012301CN0500001N9+01111+00221101581ADDAY101999GF106991061011012501001001MD1990121+9999
0043154200999991933111906004+44483+026133FM-12+009299999V0200701N00101002401CN0020001N9+00721+00671103171ADDAY151999GF108991081051002501999999MW1521
0087105010999991933051506004+50783+006100FM-12+006399999V0202901N00461004501CN0100001N9+00721+00501101911ADDAA199000591AY161061GF107991071051004501999999IA1089KA1999N+00611MD1310141+9999MW1601
0076070280999991933102712004+49517+000117FM-12+001799999V0202301N02261002401CN0040001N9+00891+99999099811ADDAY161999GF108991999061002501021999MD1810481+9999MW1611EQDQ01+000082SCOTLC
0074200490999991933061615004+80333+052800FM-12+000699999V0202301N00101004201CN0040001N9-00221+99999101601ADDAA199000691AY111999GF108991081051004501999999IA1199MD1110061+9999MW1161
0076202920999991933022600004+77717+104283FM-12+000699999V0202501N01231000601CN0000501N9-02501+99999999999ADDAY131999GF109991071061000751999999IA1309KA1999N-02721MD1310041+9999MW1391
0043783530999991933063020004+21550-077267FM-12+999999999V0200901N006719999999N0500001N9+03281+99999999999ADDAY111999GF106991041999008001999999MW1021
0094010100999991933011706004+69333+016133FM-12+000799999V0202001N00671220001CN0500001N9-00111+99999101601ADDAY101999GF102991011051999999041051IA1139EQDQ01+000992SCOLCBQ02+000042APCTENQ03+000122APC3  
0043206490999991933022709004+73267+056400FM-12+001899999V0202901N012319999999N0005001N9-02281+99999101391ADDAY171999GF108991001999022501999999MW1361
0091070050999991933100318004+50133+001850FM-12+007199999V0200701N00461015001CN0100001N9+01221+99999102421ADDAY121999GF108991081051017501999999IA1009KA1999M+01501EQDQ01+000042APCTENQ02+000042APC3  
0076102740999991933093006004+53350+012733FM-12+002299999V0200201N00261220001CN0100001N9+00891+00831102121ADDAY101999GF100991001001999999001001IA1009KA1999N+00781MD1310101+9999MW1421
0051104100999991933102409004+51400+006950FM-12+003799999V0201601N00261220001CN0200001N9+01391+00941101061ADDAY101031GF102991001001999999041081MD1710021+9999
0043108100999991933122006004+48600+008200FM-12+035599999V0200501N01231000151CN0000501N9+99999+99999999999ADDAY141061GF109991091999000251999999MW1451
0057111770999991933111506004+47683+015867FM-12+046299999V0209991C00001001501CN0002001N9+00001+99999999999ADDAY141061GF108991081041001501999999MD1810121+9999MW1441
0037070280999991933060418004+49517+000117FM-12+001799999V0200901N00671220001CN0200001N9+02721+99999101431ADDAY101999GF102991001001999999001999
0043105350999991933050506004+50833+008917FM-12+006099999V0200501N00101000151CN0002001N9+01001+00941101771ADDAY141061GF109991091999999999999999MW1431
0051104570999991933062109004+51750+011067FM-12+003899999V0202501N00261030001CN0100001N9+02001+01331100621ADDAY111031GF106991041051008001041021MD1310101+9999
0083101270999991933021818004+53533+008150FM-12+000299999V0201401N00261004501CN0100001N9+00001-00061100861ADDAA199000691AY121999GF106991061081004501081001EQDQ01+000032APCTENQ02+000002APC3  
0076115180999991933070306004+50100+014283FM-12+037199999V0209991C00001012301CN0010001N9+01611+99999102591ADDAY121999GF108991081051012501999999IA1009KA1999N+01221MD1310121+9999MW1101
0070294300999991933022313004+56433+084967FM-12+013899999V0209991C00001220001CN0020001N9-02111+99999104331ADDAY101999GF100991001001999999001001IA1319KA1999M-01891MD1810021+9999
0037166130999991933060206004+40800+021417FM-12+068099999V0200501N002619999999N0200001N9+01391+99999999999ADDAY111999GF108991041061008001001999
0057066300999991933062418004+46950+007483FM-12+057299999V0202301N00261012301CN0200001N9+01281+99999101001ADDAY161999GF108991061061012501021999MD1110021+9999MW1621
0051123750999991933120112004+52183+020967FM-12+010799999V0209991C00001030001CN0040001N9+00001-00221102271ADDAY121999GF108991041051008001021001MD1510061+9999
0072838740999991933011812004-26250-048667FM-12+001199999V0209991C000019999999N9999999N9+02501+99999100841ADDAA124015091GF104991999999999999999999KA1999M+03111KA2999N+02221MW1111
0051040970999991933071712004+65267-013583FM-12+000899999V0209991C000019999999N9999999N9+01221+99999100781ADDAY121061GF107991071051999999999999MD1310061+9999
0057222170999991933100411004+67133+032433FM-12+999999999V0203201N00461004201CN0020001N9+00111+99999100641ADDAY161999GF108991081091004501999999MD1810141+9999MW1711
0070286420999991933021315004+55150+061150FM-12+022799999V0201101N01231220001CN0040001N9-01891+99999102531ADDAY141999GF100991001001999999001999IA1319KA1999M-01281MD1990161+9999
0118031400999991933060507004+55867-004433FM-12+000699999V0200601N002619999999N0010001N9+01831+01391101421ADDGA1011+999999019GF107991061051017501001011IA1009KA1999M+02561KA2999N+01111MW1101EQDQ01+000032APCTENQ02+000002APC3  
0086039530999991933121501004+51933-010250FM-12+000999999V0209991C000019999999N0100001N9+00501+00441102281ADDGA1011+999999019GF107991071081012501999999MW1631EQDQ01+000032APCTENQ02+000002APC3  
0051388360999991933041008004+38583+068800FM-12+080099999V0202701N00461012001CN0040001N9+01111+99999102021ADDAY151999GF108991081091012501999999MD1210141+9999
0051100080999991933053112004+54833+014367FM-12+999999999V0200901N00461220001CN0200001N9+01221+01001101321ADDAY101999GF102991011011012501001999MD1610021+9999
0088295740999991933011607004+56033+092750FM-12+026899999V0209991C00001220001CN0010001N9-03001+99999104421ADDAY101999GF100991001001999999001999EQDQ01+000052SCOMCGQ02+000032APCTENQ03+000002APC3  
0051351210999991933072109004+51750+055100FM-12+010899999V0200201N00461220001CN0100001N9+99999+99999999999ADDAY111999GF104991041011012501001001MD1810061+9999
0065038940999991933050118004+49450-002550FM-12+010499999V0200501N002619999999N0500001N9+01111+00891999999ADDGA1011+999999019GF106991001001999999031001IA1009MD1810161+9999
0065031590999991933111218004+56033-003133FM-12+005899999V0202301N001019999999N0100001N9+00501+00441100781ADDGA1011+999999019GF108991081051004501999999IA1089MD1310021+9999
0089200490999991933080215004+81800+057950FM-12+004799999V0202501N002619999999N0040001N9+00001+99999999999ADDAA199001091AY171999GF107991071051999999999999IA1159EQDQ01+000042APCTENQ02+000022APC3  
0043085830999991933030712004+16883-024983FM-12+001599999V0200501N002619999999N0040001N9+02281+99999101671ADDAY121999GF108991041999004501999999MW1051
0084038040999991933042401004+49933-006300FM-12+005099999V0202001N006719999999N0002001N9+01061+01001101101ADDGA1011+999999019GF108991081051000251999999MD1810041+9999MW1441EQDQ01+000452PRSWM1
0037103840999991933082113004+52483+013433FM-12+001799999V0202301N006719999999N0200001N9+99999+99999999999ADDAY181999GF106991041081012501001999
0051372280999991933080310004+43050+044483FM-12+066899999V0200901N00671012001CN0200001N9+99999+99999100431ADDAY101999GF106991061011012501999999MD1810081+9999
0070167460999991933103012004+35500+024033FM-12+006399999V0203601N00101220001CN0200001N9+02611+99999101911ADDAY111999GF107991999001999999041001MD1810081+9999EQDQ01+000002SCOTLC
0123033230999991933042607004+53350-002883FM-12+002499999V0201601N004619999999N0040001N9+00941+00721100761ADDAA199003091GA1011+999999019GF102991011011008001071001IA1089KA1999M+01441KA2999N+00721EQDQ01+000032APCTENQ02+000002APC3  
0072839670999991933012212004-30033-051217FM-12+002399999V0209991C000019999999N9999999N9+02501+99999100501ADDAA124078091GF102991999999999999999999KA1999M+03281KA2999N+02001MW1111
0063101310999991933103118004+53867+008717FM-12+000199999V0202301N00931004501CN0040001N9+00721+00111099761ADDAY161999GF108991081061004501999999IA1089MD1810021+9999MW1621
0025722860231191933092020004+33900-117250SAO  +0466RIV  V0202901N005112200019N0160001N9+02961+99999101051ADDGA1061+999999029MW1001
0051040030999991933090818004+65550-024017FM-12+999999999V0202301N006719999999N9999999N9+01221+99999999999ADDAY121061GF108991041001999999021999MD1810161+9999
0057030260999991933120106004+58183-006350FM-12+001899999V0201601N00461030001CN0100001N9+00781+99999101061ADDAY111999GF106991041081004501061001IA1009MD1610201+9999
0061837460999991933073112004-22450-042933FM-12+087799999V0203601N002619999999N9999999N9+01721+99999102061ADDGF100991999999999999999999KA1999M+02501KA2999N+00501MW1111
0051108460999991933052312004+48933+010550FM-12+013399999V0200501N00461220001CN0100001N9+02001+00781101551ADDAY111061GF104991041071008001001001MD1990041+9999
0037227680999991933071204004+62100+042900FM-12+004999999V0202501N00261220001CN0100001N9+99999+99999999999ADDAY101999GF101991001001999999081999
0065031590999991933101018004+56033-003133FM-12+005899999V0202301N009319999999N0100001N9+01171+00721098861ADDGA1011+999999019GF108991041051004501021999IA1009MD1810041+9999
0051287220999991933081509004+54717+055933FM-12+017499999V0200501N001019999999N0100001N9+01281+99999101171ADDAY121999GF108991001001999999061999MD1710061+9999
0057010280999991933040912004+74467+019283FM-12+002899999V0202501N015419999999N0100001N9-00221+99999099021ADDAY121999GF107991021031002501061999MD1310081+9999MW1371
0074265090999991933100306004+55700+021133FM-12+000199999V0203401N01231007801CN0100001N9+00781+00171101191ADDAA199000591AY181999GF108991081091008001999999IA1089MD1310081+9999MW1801
0051121600999991933052012004+54150+019433FM-12+000299999V0203601N00461220001CN0200001N9+01611+00941102391ADDAY111999GF104991041081008001001001MD1990061+9999
0102122990999991933062806004+52850+015667FM-12+001199999V0202701N01231012301CN0020001N9+01221+01171101011ADDAA199000591AY121999GF108991081051012501999999IA1089KA1999N+01111EQDQ01+000032APCTENQ02+000002APC3  
0051275950999991933101810004+55783+049133FM-12+007099999V0201801N006719999999N0100001N9+00891+99999103431ADDAY111999GF107991001001999999021999MD1110061+9999
0051338370999991933100211004+46483+030733FM-12+006599999V0200701N00261036001CN9999999N9+01501+99999102231ADDAY111999GF106991011011012501031999MD1990081+9999
0037085120999991933112118004+37733-025667FM-12+002299999V0202501N00101007801CN0200001N9+01781+99999102831ADDAY111999GF106991061999008001999999
0051074810999991933072412004+45733+004917FM-12+019899999V0203401N00931220001CN0100001N9+02501+99999101941ADDAY101999GF101991011011008001001001MD1810141+9999
0059039520999991933120913004+51800-008250FM-12+000799999V0200501N006719999999N0200001N9+00391-00391102421ADDGA1011+999999019GF104991041011008001001001MD1810021+9999
0081282750999991933120702004+58200+068233FM-12+010099999V0201401N00461007501CN0040001N9-00781+99999100591ADDAA199000691AY121999GF108991081051008001999999IA1319KA1999N-00781MD1310041+9999
0051264220999991933070312004+56983+024083FM-12+000299999V0202501N00461007801CN0100001N9+02111+99999101361ADDAY121999GF108991081091008001999999MD1810121+9999
0051111770999991933082906004+47683+015867FM-12+046299999V0209991C00001220001CN0040001N9+01391+99999102131ADDAY111061GF104991021051008001021041MD1810121+9999
0071036550999991933020318004+51933-001250FM-12+012899999V0201701N004619999999N0040001N9+00561+00331101571ADDGA1011+999999019GF108991061051008001071999IA1089MD1810141+9999MW1211
0059039280999991933030213004+54650-005533FM-12+001299999V0201101N004619999999N0100001N9+00721+00501099921ADDGA1011+999999019GF106991061051004501001001MD1810161+9999
0051260630999991933021211004+59983+030283FM-12+000599999V0203201N00261021001CN0040001N9-00721+99999101151ADDAY171999GF107991071061022501051999MD1310141+9999
0072349290999991933072022004+45033+039650FM-12+003599999V0202501N00261220001CN0040001N9+02111+99999999999ADDAY101999GF100991001001999999001001EQDQ01+000032APCTENQ02+000002APC3  
0051286610999991933111009004+55450+065150FM-12+007399999V0202301N00101220001CN0100001N9+00221+99999100551ADDAY101999GF101991011011012501001001MD1810161+9999
0071039170999991933062818004+54650-006217FM-12+006799999V0203401N006719999999N0500001N9+01281+01061101381ADDGA1011+999999019GF107991071051004501999999IA1009MD1310021+9999MW1201
0107343000999991933100117004+50000+036233FM-12+014899999V0209991C00001220001CN9999999N9+99999+99999102661ADDAY101999GF100991001001999999001001IA1009KA1999M+01611EQDQ01+000702WODIR Q02+000032APCTENQ03+000002APC3  
0037103840999991933021010004+52483+013433FM-12+001799999V0209999901231007801CN0200001N9+99999+99999999999ADDAY121999GF106991061051008001999999
0089330380999991933101105004+52267+029833FM-12+013799999V0201401N00261004201CN0020001N9+00611+99999102501ADDAY121999GF108991999051004501041999IA1089KA1999N+00611MD1310061+9999EQDQ01+000082SCOTLC
0051072570999991933052112004+47050+002650FM-12+017999999V0209991C00001036001CN0040001N9+02001+99999101581ADDAY121999GF106991011051008001071001MD1810121+9999
0043166130999991933011112004+40800+021417FM-12+068099999V0200501N00261004501CN0010001N9-00281+99999999999ADDAY121999GF108991081061004501001001MW1701
0089060210999991933010906004+57117+008600FM-12+004699999V0202901N00671220001CN0200001N9+00611+99999101221ADDAA199004091AY161999GF102991011061008001081001IA1089EQDQ01+000042APCTENQ02+000062APC3  
0056372280999991933031716004+43050+044483FM-12+066899999V0202001N00101220001CN0040001N9+00391+99999102281ADDAY111999GF101991999001999999041001IA1109KA1999M+00781
0102033790999991933112807004+53033-000500FM-12+006299999V0200701N001019999999N0040001N9+00281+00221101401ADDAA199000091GA1011+999999019GF107991041051017501071999IA1089KA1999M+00561KA2999N+00221MD1310061+9999
0063010010999991933022506004+70983-008333FM-12+002399999V0202701N00671007801CN0500001N9-00221+99999102831ADDAY121999GF107991071051008001021999IA1319MD1810101+9999MW1051
0037600200999991933071212004+28467-016267FM-12+003799999V0200901N00671220001CN0200001N9+02781+99999101971ADDAY101999GF100991001999999999999999
0091036270999991933021307004+51917-002583FM-12+006899999V0200301N002619999999N0100001N9+00221+00171103631ADDGA1011+999999019GF107991071051008001001001IA1089KA1999M+00721KA2999N+00171MD1310061+9999
0051296120999991933032308004+55350+078400FM-12+012099999V0201601N00261220001CN0100001N9-00501+99999103191ADDAY141999GF101991001001999999001081MD1810041+9999
0087220190999991933102617004+69183+033500FM-12+999999999V0202901N00261220001CN0100001N9+00111+99999101531ADDAA199001091AY171999GF102991999001999999041001IA1009MD1310081+9999EQDQ01+000002SCOTLC
0070370500999991933101216004+44050+042083FM-12+057399999V0200901N00101220001CN0040001N9+01111+99999101791ADDAY111999GF104991001001999999071999IA1009KA1999M+01391MD1710021+9999
0043108180999991933082506004+48083+008767FM-12+029999999V0200501N00101220001CN0200001N9+99999+99999999999ADDAY101061GF100991001001999999001999MW1051
0072116430999991933011812004+50750+015733FM-12+049199999V0201601N00461001501CN0500001N9-00391-00561098321ADDAY101999GF107991071001001501001081EQDQ01+000032APCTENQ02+000002APC3  
0081271960999991933042504004+58600+049683FM-12+018599999V0202301N00931004201CN0040001N9+00221+99999101001ADDAA199000691AY111999GF107991071071004501999999IA1109KA1999N+00111MD1310121+9999
0072830960999991933080112004-10917-037067FM-12+002199999V0203201N002619999999N9999999N9+02391+99999102021ADDAA124002091GF104991999999999999999999KA1999M+02611KA2999N+02001MW1111
0019875850999991933122212004-34583-058317FM-12+002599999V0209991C000019999999N9999999N9+00221+99999100791EQDQ01+001102WODIR 
0072100190999991933110906004+54917+008350FM-12+000599999V0209991C00001220001CN0200001N9-00221+99999102391ADDAY101999GF100991001001999999001001EQDQ01+000032APCTENQ02+000002APC3  
0087108660999991933080306004+48183+011550FM-12+052099999V0202901N00461002401CN0040001N9+01281+99999102631ADDAA199002091AY161061GF108991061061002501021999IA1089KA1999N+01221MD1310061+9999MW1501
0057374720999991933030516004+43000+047500FM-12+003599999V0201401N00461036001CN0010001N9+00001+99999102671ADDAY121999GF108991041051004501031999IA1139MD1210101+9999
0082074300999991933061006004+45700+002250FM-12+076599999V0203601N00261220001CN0020001N9+00891+99999101821ADDAY101999GF100991001001999999001999IA1009MD1310061+9999MW1051EQDQ01+000022SCOMCG
0059030910999991933033113004+57167-002200FM-12+007199999V0202801N004619999999N0200001N9+01061-00061100981ADDGA1011+999999019GF106991041081004501071001MD1310021+9999
0037085060999991933041818004+38533-028633FM-12+006599999V0202301N00671220001CN0100001N9+01721+99999101141ADDAY181999GF104991041999012501999999
0043206490999991933091309004+73267+056400FM-12+001899999V0200501N00931004201CN0100001N9-00111+99999100881ADDAY171999GF108991081061004501999999MW1801
0107029110999991933031418004+63083+021617FM-12+000999999V0209991C00001007801CN0100001N9-00221+99999100201ADDAY111999GF106991061051008001001001IA1139KA1999M+00111EQDQ01+002702WODIR Q02+000032APCTENQ03+000002APC3  
0043163300999991933011706004+40467+017233FM-12+002299999V0200901N00461220001CN0020001N9+00721+99999100511ADDAY101999GF104991041999012501999999MW1051
0091039660999991933121107004+53100-007900FM-12+005799999V0200501N001019999999N0100001N9+00001-00061102781ADDGA1011+999999019GF107991071051008001999999IA1139KA1999M+00441KA2999N-00281MD1810041+9999
0076061800999991933061606004+55617+012650FM-12+000599999V0201101N00261220001CN0100001N9+01721+99999101431ADDAY101999GF101991999001999999031001IA1009MD1610041+9999EQDQ01+000002SCOTLC
0087012620999991933111018004+64800+010550FM-12+003799999V0203401N00261000151CN0100001N9+00391+99999099661ADDAA199003091AY121999GF108991081081000251999999IA1089MD1310662+9999EQDQ01+000662APC3  
0037084530999991933111018004+36467-006200FM-12+002899999V0202701N00101220001CN0100001N9+01501+99999101331ADDAY111999GF100991001999999999999999
0051275530999991933051410004+56333+044000FM-12+015999999V0202301N00671220001CN0100001N9+02221+99999100901ADDAY101999GF104991041011008001061011MD1310041+9999
0057104160999991933072603004+51533+007583FM-12+002199999V0209991C00001220001CN0010001N9+01281+01221101931ADDAY111031GF104991999001999999031001MD1310091+9999MW1101
0061837800999991933123012004-23567-046483FM-12+075199999V0201401N002619999999N9999999N9+02001+99999100801ADDGF107991999999999999999999KA1999M+02391KA2999N+01721MW1111
0059032620999991933100513004+55017-001417FM-12+003399999V0200501N001019999999N0040001N9+01391+01171102371ADDGA1011+999999019GF104991041021008001001001MD1310081+9999
0051121160999991933030409004+54450+017000FM-12+001299999V0200501N00261004501CN0100001N9+00111-00111100561ADDAY121999GF108991081051004501999999MD1310061+9999
0061833610999991933081712004-15583-056100FM-12+016599999V0201801N002619999999N9999999N9+01391+99999101821ADDGF100991999999999999999999KA1999M+02781KA2999N+00891MW1051
0057072070999991933122412004+47300-003267FM-12+004599999V0209991C00001000151CN0002001N9-00111+99999103181ADDAY141999GF109991091999000251999999MD1810141+9999MW1451
0061828960999991933032512004-08400-036767FM-12+070599999V0200501N009319999999N9999999N9+02221+99999100741ADDGF104991999999999999999999KA1999M+03281KA2999N+01891MW1051
0070330380999991933051117004+52267+029833FM-12+013799999V0203601N00101009001CN0040001N9+01721+99999100461ADDAY111999GF107991061081004501031001IA1089KA1999M+02391MD1610021+9999
0087352290999991933031615004+50233+057233FM-12+022099999V0202001N00461007501CN0020001N9-00111+99999101351ADDAA199000691AY171999GF108991081051008001999999IA1319KA1999M+00001MD1310041+9999MW1701
0043167540999991933050306004+35333+025267FM-12+002699999V0209991C00001220001CN0500001N9+02281+99999101531ADDAY111999GF101991001001999999001999MW1051
0051307580999991933041805004+52050+113317FM-12+066599999V0203401N004619999999N0200001N9+00001+99999102341ADDAY141999GF199999041021012501031001MD1510001+9999
0074100190999991933010318004+54917+008350FM-12+000599999V0202001N004619999999N0020001N9+00721+99999101361ADDAA199001091AY121999GF107991071999999999999999IA1089MD1310141+9999MW1051
0037083140999991933101612004+39883+004267FM-12+004399999V0201801N002619999999N0200001N9+02111+99999101901ADDAY111999GF106991041999008001999999
0037166750999991933102312004+38900+022433FM-12+999999999V0202301N00261220001CN0200001N9+02001+99999999999ADDAY111999GF104991041041017501001001
0087339830999991933082705004+45367+036317FM-12+000499999V0203201N00261220001CN0100001N9+01611+99999101401ADDAJ100009199999999AY101999GF100991001001999999001001IA1089KA1999N+01281MD1310041+9999
0051270370999991933083010004+59233+039883FM-12+012499999V0202701N00671012001CN0020001N9+01281+99999102301ADDAY121999GF108991081051012501999999MD1310041+9999
0051122810999991933110512004+53567+021000FM-12+004599999V0202301N00261007801CN0040001N9+00611+00391101901ADDAY121999GF107991061041008001031999MD1810041+9999
0089010980999991933090306004+70367+031100FM-12+001299999V0203201N00671004501CN0500001N9+00501+99999101351ADDAA199000691AY181999GF107991071081004501999999IA1089EQDQ01+000032APCTENQ02+000002APC3  
0051106090999991933061912004+49750+006667FM-12+008199999V0202301N01541036001CN0100001N9+01611+99999099831ADDAY181061GF107991041091004501031001MD1990081+9999
0076338370999991933110717004+46483+030733FM-12+006599999V0202501N00461220001CN9999999N9+01391+99999100691ADDAY101999GF100991001001999999001001IA1089MD1610021+9999EQDQ01+000042SCOHCG
0061839070999991933051812004-28400-054967FM-12+025799999V0203201N002619999999N9999999N9+01891+99999101421ADDGF102991999999999999999999KA1999M+02501KA2999N+01391MW1111
0070279620999991933120204004+53183+045017FM-12+013799999V0203401N00931007501CN0040001N9-02281+99999101251ADDAY121999GF108991081051008001999999IA1309KA1999N-02391MD1210101+9999
0051077470999991933120712004+42733+002867FM-12+004599999V0209991C00001220001CN0200001N9+01391+99999101061ADDAY101999GF102991011011012501001011MD1810201+9999
0009726810241311933072907004+43567-116217SAO  +0874BOI  V0201801N002112200019N0320001N1+01801+00961999999ADDMW1001
0081249440999991933061823004+60367+120600FM-12+015299999V0202701N00101220001CN0500001N9+01281+99999999999ADDAY111999GF101991001001999999001021IA1009KA1999N+00891MW1501EQDQ01+000932SCOLCB
0105100010999991933032018004+53600+006700FM-12+000499999V0203201N01541002401CN0100001N9+00281+00221101152ADDAA199002091AY121999GF106991061091002501999999IA1009EQDQ01+101153APOSLPQ02+000042APCTENQ03+000482APC3  
0037133340999991933030618004+43517+016433FM-12+012899999V0200901N00101007801CN0200001N9+01221+99999101381ADDAY151999GF108991081999008001999999
0087106850999991933022006004+50300+011867FM-12+017399999V0203601N00261002401CN0040001N9-00721-00781101711ADDAA199000591AY171061GF108991061061002501021999IA1309KA1999N-00721MD1310121+9999MW1701
