0070372280999991934122816004+43050+044483FM-12+066899999V0209991C00001004201CN0005001N9-00221+99999101371ADDAY121999GF108991081051004501999999IA1309KA1999M-00111MD1110021+9999
0057103930999991934080112004+52200+014117FM-12+003299999V0202501N00671075001CN0100001N9+02611+01611100911ADDAY111061GF106991011021017501041061MD1310021+9999MW1051
0051070700999991934091812004+49250+004083FM-12+008799999V0203601N00101036001CN0100001N9+02611+99999101631ADDAY111999GF106991041021012501081031MD1710181+9999
0029710934999991934120201004+66133-065750FM-12+001399999V0201801N002119999999N0100001N9-01501+99999101421ADDGF108991001999999999999999
0084061930999991934040606004+55283+014767FM-12+007799999V0201401N00101220001CN0040001N9+00391+99999100861ADDAY141999GF104991041051002501031001IA1009MW1051EQDQ01+000042APCTENQ02+000102APC3  
0051101270999991934040912004+53533+008150FM-12+000299999V0203401N00261030001CN0100001N9+01611+00721099771ADDAY121999GF107991041041017501031999MD1810021+9999
0070121160999991934080921004+54450+017000FM-12+001299999V0209991C00001220001CN0100001N9+01721+01501101061ADDAY111999GF102991021051008001001001MD1410001+9999EQDQ01+000032APCTEN
0091224710999991934072404004+65833+044267FM-12+001699999V0201801N00101220001CN0040001N9+01781+99999101541ADDAY111999GF100991001001999999001001IA1009KA1999N+01001EQDQ01+000032APCTENQ02+000002APC3  
0057105440999991934090812004+50500+009933FM-12+028299999V0201401N00261220001CN0100001N9+02111+01171100601ADDAY101061GF100991001001999999001001MD1810101+9999MW1051
0037105790999991934091206004+50617+013467FM-12+018899999V0200901N00101030001CN0200001N9+99999+99999999999ADDAY111061GF106991041071012501051999
0037280440999991934121409004+59600+060533FM-12+013299999V0202901N00461015001CN9999999N9-00221+99999101511ADDAY111999GF107991061051017501001999
0072100100999991934080712004+54550+007883FM-12+999999999V0200901N002619999999N0200001N9+02001+01721999999ADDAY121999GF107991041051999999071999EQDQ01+000032APCTENQ02+000002APC3  
0029710633999991934051108004+61150-113617FM-12+015899999V02099999999999999999N9999999N9+99999+99999999999ADDKA1999M+01001KA2999N-00221
0061837450999991934012312004-22283-042533FM-12+085099999V0200501N009319999999N9999999N9+02221+99999101561ADDGF104991999999999999999999KA1999M+02721KA2999N+01501MW1111
0061836080999991934031512004-20467-055800FM-12+015699999V0209991C000019999999N9999999N9+02501+99999100961ADDGF107991999999999999999999KA1999M+03221KA2999N+02281MW1111
0057100030999991934010412004+53867+007933FM-12+999999999V0202001N00931000151CN0002001N9+00281+00221999999ADDAY141999GF109991091999000251999999MD1810161+9999MW1451
0043105500999991934111306004+50967+010750FM-12+009199999V0201801N00101220001CN0100001N9+99999+99999999999ADDAY121061GF106991001001999999031999MW1051
0091361770999991934080614004+50400+080217FM-12+020299999V0203601N00261015001CN9999999N9+01501+99999101631ADDAY121999GF107991061051017501031001IA1089KA1999M+01611EQDQ01+000042APCTENQ02+000042APC3  
0037106770999991934090809004+50000+011633FM-12+011399999V0202301N00101220001CN0100001N9+99999+99999999999ADDAY101031GF100991001001999999001999
0051063000999991934102912004+51583+002617FM-12+000499999V0203201N00671220001CN0100001N9+01111+99999100971ADDAY111999GF104991041021008001001001MD1010121+9999
0037100050999991934040906004+54017+008250FM-12+999999999V0201101N00461007801CN0040001N9+00721+99999099721ADDAY121999GF108991081001008001061999
0089239330999991934042514004+60967+069067FM-12+012899999V0201801N00261220001CN0100001N9+00891+99999100951ADDAY111999GF104991999001999999091001IA1209KA1999M+01001MD1810141+9999EQDQ01+000002SCOTLC
0037074880999991934082518004+45167+005733FM-12+032499999V0209991C00001220001CN0200001N9+02391+99999101311ADDAY101999GF100991001999999999999999
0051388360999991934060420004+38583+068800FM-12+080099999V0200901N00101220001CN0020001N9+02111+99999101631ADDAY111999GF104991011031008001061999MD1990061+9999
0018719340999991934050612004+60017-112000FM-12+020399999V0203601N001519999999N9999999N9-00111+99999999999ADDMA1999999098001
0037167430999991934010812004+36133+023000FM-12+018499999V0200501N00671220001CN0020001N9+01111+99999101861ADDAY111999GF104991041021999999001051
0087116430999991934121806004+50750+015733FM-12+049199999V0201401N00261000151CN0000001N9+00221+00171098931ADDAA199002091AY151999GF109991091061000251999999IA1189KA1999N-00221MD1310061+9999MW1411
0029710934999991934022113004+66133-065750FM-12+001399999V0200901N000519999999N0200001N9-03611+99999103281ADDGF100991001999999999999999
0009726810241311934110522004+43567-116217SAO  +0874BOI  V0201351N008212200019N0320001N1+01961+00411999999ADDMW1001
0068077470999991934022006004+42733+002867FM-12+004599999V0202701N01541220001CN0200001N9+01391+99999102771ADDAA199001091AY101999GF100991001001999999001001IA1009MD1010101+9999
0067375450999991934070316004+41717+044800FM-12+040999999V0203201N00261007501CN0100001N9+02611+99999100301ADDAA199000691AY161999GF107991061051008001021999IA1009KA1999M+03221
0063101310999991934090106004+53867+008717FM-12+000199999V0209991C00001000151CN0000501N9+01111+99999100801ADDAY141999GF109991091999000251999999IA1089MD1810041+9999MW1451
0051071100999991934040512004+48333-004767FM-12+003299999V0202701N00261220001CN0100001N9+00891+99999100171ADDAY121999GF104991041071008001001999MD1710021+9999
0009726810241311934011700004+43567-116217SAO  +0874BOI  V0209991C000012200019N0320001N1+00581+99999999999ADDMW1001
0070294300999991934031913004+56433+084967FM-12+013899999V0202001N00671030001CN0020001N9-00721+99999101831ADDAY171999GF108991041061008001011011IA1319KA1999M-00611MD1810341+9999
0056109650999991934050609004+47450+011267FM-12+027799999V0202301N00101004501CN0020001N9+99999+99999999999ADDAY111999GF108991999091004501091999EQDQ01+000082SCOTLC
0051106090999991934070221004+49750+006667FM-12+008199999V0200201N00261220001CN0040001N9+01611+99999102231ADDAY101031GF102991001001999999001051MD1310101+9999
0037083140999991934041106004+39883+004267FM-12+004399999V0201101N00101220001CN0100001N9+01281+99999100991ADDAY111999GF104991021999012501999999
0051072570999991934100312004+47050+002650FM-12+017999999V0209991C00001004501CN0020001N9+01891+99999100741ADDAY121999GF108991081061004501999999MD1810161+9999
0070225500999991934030304004+64567+040517FM-12+001099999V0202701N00461220001CN0040001N9-01781+99999102431ADDAY111999GF104991041051008001001001IA1319KA1999N-02111MD1810061+9999
0051353580999991934052909004+49633+063500FM-12+012199999V0200901N00461220001CN0100001N9+02781+99999101871ADDAY111999GF104991041081017501001031MD1810021+9999
0065033010999991934072913004+53217-003000FM-12+005299999V0203301N002619999999N0040001N9+01611+01331100971ADDGA1011+999999019GF108991081061002501999999MD1310021+9999MW1531
0053275950999991934081204004+55783+049133FM-12+007099999V0202501N002619999999N9999999N9+01281+99999101071ADDAA199005091IA1089KA1999N+01001MD1310081+9999MW1471
0044719070999991934082201004+58450-078133FM-12+002099999V0200501N009319999999N0160001N9+00671+99999999999ADDGF100991001001999999001001MA1999999100341
0070124000999991934012618004+51917+015500FM-12+004599999V0202301N00101220001CN0100001N9+00001-00501102991ADDAY101999GF104991001001999999001999IA1139KA1999M+00721MD1610021+9999
0037122370999991934092706004+53467+018783FM-12+000799999V0202301N00261220001CN0040001N9+01221+00781102131ADDAY121999GF106991001001999999071999
0037225220999991934071611004+64950+034483FM-12+001399999V0200501N00461004201CN0040001N9+01611+99999101721ADDAY121999GF108991081051004501999999
0051320610999991934011904004+50900+142167FM-12+001699999V0203601N00261220001CN0100001N9-01281+99999101091ADDAY171999GF104991041011012501041001MD1990061+9999
0067105440999991934120406004+50500+009933FM-12+028299999V0202501N00931000151CN0000001N9+00611+00561099641ADDAA199003091AY141061GF109991091999000251999999IA1089KA1999N+00501
0057264770999991934090911004+56350+030517FM-12+010399999V0200701N00671220001CN0040001N9+02391+99999102011ADDAY101999GF104991041011012501001001MD1810021+9999MW1051
0089221490999991934042604004+68150+039650FM-12+007599999V0201401N01541009001CN0100001N9-00501+99999101011ADDAA199000691AY161999GF108991081081004501999999IA1319EQDQ01+000032APCTENQ02+000002APC3  
0081335480999991934072805004+48667+026583FM-12+022899999V0202701N00261220001CN0040001N9+01721+99999101011ADDAA199000391AY111999GF104991001001999999041091IA1109KA1999N+01611MD1310061+9999
0057266660999991934060711004+55200+030200FM-12+015099999V0200901N00461007501CN0020001N9+01281+99999101101ADDAY161999GF108991081061008001999999MD1310081+9999MW1631
0051352290999991934061509004+50233+057233FM-12+022099999V0200901N00461030001CN0200001N9+02611+99999101231ADDAY111999GF107991021021017501021999MD1810261+9999
0102034970999991934080907004+52583+001733FM-12+000299999V0202401N002619999999N0040001N9+01671+01611100951ADDAA199002091GA1011+999999019GF106991001001999999031001IA1089KA1999M+02221KA2999N+01671MD1810041+9999
0081114640999991934062906004+50550+013933FM-12+084099999V0200501N00101030001CN0200001N9+02001+99999100821ADDAA199000691AY181999GF107991021071012501071001IA1089KA1999N+01501MD1310021+9999
0061837360999991934071712004-22100-045017FM-12+087299999V0209991C000019999999N9999999N9+01721+99999102041ADDGF104991999999999999999999KA1999M+02501KA2999N+01111MW1111
0059038560999991934090813004+50533-002450FM-12+001099999V0202301N004619999999N0100001N9+01941+01501101131ADDGA1011+999999019GF106991041051008001071001MD1310081+9999
0037043350999991934102506004+73483-021567FM-12+000399999V0203601N00671021001CN0500001N9-01001+99999100331ADDAY121061GF106991061051022501001999
0043109720999991934080909004+47883+011983FM-12+014899999V0202301N00261007801CN0040001N9+99999+99999999999ADDAY121999GF108991061051008001021999MW1211
0072821910999991934092612004-01467-048450FM-12+001099999V0200501N002619999999N9999999N9+02781+99999101261ADDAA124006091GF104991999999999999999999KA1999M+03221KA2999N+02221MW1111
0089273210999991934040104004+57783+038467FM-12+999999999V0203601N00261220001CN0040001N9-00501+99999103361ADDAY101999GF100991001001999999001001IA1319KA1999N-00721MD1610041+9999EQDQ01+000012SCOMCG
0051351080999991934020222004+51200+051367FM-12+003899999V0201801N00261007501CN0010001N9-01221+99999103381ADDAY171999GF108991081051008001999999MD1810101+9999
0051038940999991934080912004+49450-002550FM-12+005399999V0202901N00671007801CN0100001N9+01781+99999101651ADDAY111999GF107991061081008001011001MD1110081+9999
0065039660999991934011213004+53100-007900FM-12+005799999V0202601N004619999999N0200001N9+00671+00281098691ADDGA1011+999999019GF108991041091008001011999MD1310021+9999MW1211
0088122000999991934052606004+53917+014283FM-12+999999999V0202701N00931015001CN0200001N9+00781+00721101351ADDAY121999GF108991999021017501031999EQDQ01+000082SCOTLCQ02+000032APCTENQ03+000002APC3  
0057221490999991934122810004+68150+039650FM-12+007599999V0203401N00931012001CN0040001N9+00111+99999101111ADDAY181999GF108991071091012501011999MD1310101+9999MW1161
0037010100999991934052306004+69317+016133FM-12+000799999V0203601N00461007801CN0200001N9+00501+99999100461ADDAY121999GF108991081051008001999999
0071030750999991934022018004+58450-003083FM-12+003699999V0202901N009319999999N0200001N9+00721+00671101921ADDGA1011+999999019GF108991061061004501021999IA1089MD1810161+9999MW1211
0081284400999991934040115004+56733+060633FM-12+028899999V02099999999999999999N0100001N9-00611+99999102271ADDGF199999999061008001041001IA1319KA1999M-00111MD1310061+9999EQDQ01+000002SCOTLC
0070103610999991934082018004+52133+011717FM-12+001499999V0201801N00261220001CN0100001N9+02391+00781101001ADDAY101999GF106991001001999999071061IA1009KA1999M+02611MD1610121+9999
0065039730999991934032601004+54100-010067FM-12+000599999V0201801N009319999999N0100001N9+00941+00891101831ADDGA1011+999999019GF108991081061001501999999MD1810101+9999MW1631
0076061930999991934042818004+55283+014767FM-12+007799999V0201401N00461220001CN0200001N9+00721+99999102141ADDAY111999GF101991999001999999041001IA1009MD1310041+9999EQDQ01+000002SCOTLC
0072038940999991934020112004+49450-002550FM-12+005399999V0200201N01231007801CN0100001N9+00391+99999103101ADDAY181999GF107991071081008001001001EQDQ01+000022APCTENQ02+000002APC3  
0108031590999991934102807004+56033-003133FM-12+005899999V0202301N015419999999N0200001N9+00671+00441099581ADDAA199003091GA1011+999999019GF104991041081008001091001IA1089KA1999M+00941KA2999N+00501MD1810021+9999MW1251
0093387500999991934030503004+37467+053667FM-12-002299999V0200501N00261007501CN0020001N9+00111+99999101541ADDAJ100009199999999AY121999GF107991071061008001001001IA1109KA1999N+00111MD1310061+9999MW1121
0070319600999991934052810004+43117+131917FM-12+012899999V0201601N00461015001CN0020001N9-00611+99999101331ADDAY141999GF108991081041017501999999IA1009KA1999M+01221MD1310261+9999
0051372280999991934081810004+43050+044483FM-12+066899999V0202701N00671220001CN0200001N9+02611+99999100161ADDAY101999GF104991041011017501001999MD1990021+9999
0067104270999991934050806004+51183+008483FM-12+025799999V0203201N01231024001CN0100001N9+99999+99999101091ADDAA199031091AY141061GF108991999061999999999999IA1089KA1999N+00281
0057073150999991934113012004+45917-000983FM-12+000499999V0203401N00261220001CN0040001N9+00501+99999103171ADDAY111999GF100991001001999999001001MD1990081+9999MW1051
0068010010999991934111606004+70983-008300FM-12+002399999V0202301N01231007801CN0200001N9+00221+99999099281ADDAA199002091AY161999GF108991081051008001999999IA1159MD1610161+9999
0070307100999991934052512004+52333+104217FM-12+043799999V0203601N00101075001CN0100001N9+01281+99999101501ADDAY101999GF107991001001999999001031IA1009KA1999M+01501MD1810161+9999
0057040480999991934042306004+63400-020283FM-12+012299999V0201101N012319999999N9999999N9+00221+99999098942ADDAY181061GF106991999061999999999999MD1810261+9999MW1831
0057110270999991934020606004+48217+015333FM-12+022099999V0201801N00461220001CN0100001N9-01001+99999999999ADDAY101061GF101991999001999999071001MD1310021+9999MW1051
0057349290999991934112622004+45033+039650FM-12+003599999V0201101N001019999999N0020001N9+00281+99999999999ADDAY161999GF108991071999999999071999MD1990081+9999MW1511
0057105390999991934012006004+50350+009533FM-12+006699999V0209991C00001004501CN0040001N9+00111+00061102461ADDAY121061GF108991081051004501999999MD1310181+9999MW1051
0070072070999991934061506004+47300-003267FM-12+004499999V0200501N00261220001CN0200001N9+01501+99999102291ADDAY101999GF100991001001999999001001IA1009KA1999N+01111MD1310101+9999
0070275530999991934053004004+56333+044000FM-12+015999999V0200501N00101220001CN0040001N9+01221+99999101981ADDAY101999GF106991001001999999001081IA1009KA1999N+00721MD1310061+9999
0037167340999991934111112004+36833+021717FM-12+002599999V0200501N00101220001CN0200001N9+01891+99999101581ADDAY121999GF108991001001999999071999
0062112400999991934060306004+46983+015450FM-12+033599999V0203601N00261007801CN0040001N9+01501+99999101521ADDAY161061GF108991071061008001021999IA1109KA1999N+01221MW1601
0051294300999991934032619004+56433+084967FM-12+013899999V0202501N002619999999N0020001N9-00891+99999103341ADDAY121999GF107991001001999999031999MD1990101+9999
0057161100999991934092706004+45650+013767FM-12+001699999V0209991C00001220001CN0200001N9+02001+99999102461ADDAY101999GF100991001001999999001001IA1009MD1310041+9999
0043084870999991934030918004+36850-002467FM-12+006599999V0202701N00261002401CN0200001N9+01281+99999101911ADDAY121999GF108991081999002501999999MW1161
0057104380999991934050912004+51383+009533FM-12+008899999V0200701N00101007801CN0100001N9+01501+00611102971ADDAY121061GF108991081061008001999999MD1810061+9999MW1051
0029719660999991934101809004+64067-139483FM-12+032499999V02099999999999999999N9999999N9+99999+99999999999ADDKA1999M+00221KA2999N-00391
0057010100999991934112512004+69333+016133FM-12+000799999V0202501N00671007801CN0100001N9+00281+99999100291ADDAY181999GF108991081061008001999999MD1010041+9999MW1621
0051307580999991934052517004+52050+113317FM-12+066599999V0209991C00001220001CN0100001N9+00221+99999101851ADDAY121999GF104991041041022501051999MD1310101+9999
0043040480999991934020618004+63400-020283FM-12+012299999V0202901N02261220001CN9999999N9+99999+99999099951ADDAY101061GF101991011011999999999999MW1161
0081121500999991934110318004+54383+018600FM-12+000599999V0202501N00671220001CN0200001N9+00281+00061102191ADDAA199000691AY181999GF102991001001999999031999IA1009KA1999M+00391MD1310221+9999
0081074810999991934060106004+45733+004917FM-12+019899999V0201801N004619999999N0100001N9+01781+99999101791ADDAA199000691AY161999GF107991041081012501041011IA1009KA1999N+01611MD1210141+9999
0051287220999991934102521004+54717+055933FM-12+017499999V0202001N002619999999N0040001N9+00391+99999103391ADDAY121999GF108991001001999999071999MD1810021+9999
0051010280999991934022112004+74467+019283FM-12+002899999V0200201N004619999999N0500001N9-01611+99999099561ADDAY111999GF106991041999012501999001MD1310081+9999
0106238490999991934110702004+61250+073400FM-12+004099999V0202501N00101012001CN0020001N9-00391+99999102381ADDAJ100009199999999AY111999GF108991081051012501999001HL10009IA1139IA2999-00729KA1999N-00501MD1810061+9999
0091034970999991934021407004+52583+001733FM-12+000299999V0203201N002619999999N0040001N9+00171-00061103971ADDGA1011+999999019GF102991021041008001001001IA1009KA1999M+00561KA2999N+00171MD1310081+9999
0070105540999991934121418004+51017+011033FM-12+018099999V0201101N00101000151CN0000501N9+00221+99999099771ADDAY141061GF109991091999000251999999IA1089KA1999M+00221MD1810041+9999
0037105610999991934071112004+50467+011450FM-12+019599999V0203201N00671007801CN0100001N9+99999+99999999999ADDAY121061GF108991081051008001999999
0044719350999991934081101004+60850-115767FM-12+016199999V0203601N001019999999N9999999N9+01671+99999999999ADDGF106991011999999999999999MA1999999099421
0070101470999991934103018004+53633+010000FM-12+000599999V0202001N00671030001CN0100001N9+00721+00331100531ADDAY121999GF108991021051008001021999IA1009KA1999M+01001MD1010001+9999
0044719350999991934100115004+60850-115767FM-12+016199999V0202301N002119999999N9999999N9+00111+99999999999ADDGF108991081999999999999999MA1999999099631
0043109650999991934030506004+47450+011267FM-12+027799999V0203601N00261002401CN0010001N9+99999+99999999999ADDAY121999GF108991081061002501999999MW1701
0037343630999991934072004004+50083+045433FM-12+002999999V0200701N00461220001CN0100001N9+99999+99999999999ADDAY101999GF104991001001999999001999
0059038140999991934122301004+49950-005200FM-12+007399999V0202601N009319999999N0200001N9+00831+00611100611ADDGA1011+999999019GF104991041081008001001001MD1310041+9999
0051125000999991934082809004+50900+015783FM-12+010499999V0200501N00261030001CN0040001N9+01891+01611101131ADDAY121999GF107991041061002501031999MD1810061+9999
0029710950999991934051401004+72700-078000FM-12+000399999V0201801N002119999999N0200001N9-01001+99999102071ADDGF107991001999999999999999
0068060110999991934083006004+62050-006750FM-12+002699999V0201101N00931000601CN0100001N9+01221+99999099401ADDAA199001091AY111999GF107991071051000751001001IA1089MD1310241+9999
0051104100999991934101900004+51400+006950FM-12+003799999V0202501N00671000151CN0005001N9+00891+00831101371ADDAY151061GF109991091999000251999999MD1810061+9999
0087266660999991934083005004+55200+030200FM-12+015099999V0200501N001019999999N0040001N9+01611+99999101871ADDAJ100009199999999AY121999GF108991001001999999071999IA1089KA1999N+01501MD1310021+9999
0057236780999991934053007004+63167+088017FM-12+005599999V0201601N00671015001CN0100001N9+00721+99999999999ADDAY151999GF108991081051017501999999MD1710261+9999MW1201
0070263930999991934091117004+57583+034567FM-12+016799999V0209991C00001220001CN0020001N9+01221+99999102991ADDAY101999GF100991001001999999001001IA1089KA1999M+01781MD1310021+9999
0000719576999991934010112004+64900-125500FM-12+009199999V0209991C000019999999N9999999N9-05331+99999103181
0072833390999991934011512004-14067-042317FM-12+086999999V0200901N009319999999N9999999N9+02221+99999101401ADDAA124001091GF102991999999999999999999KA1999M+02721KA2999N+01781MW1111
0091037970350471934082007004+51350+001367FM-12+004799999V0201801N006719999999N0200001N9+01501+01441101241ADDGA1011+999999019GF104991041011004501001001IA1009KA1999M+02391KA2999N+01061MD1810141+9999
0051317350999991934032116004+48467+135050FM-12+004699999V0200201N00461220001CN0040001N9-00891+99999099491ADDAY111999GF104991001001999999001061MD1810141+9999
0051100060999991934061206004+54600+011150FM-12+999999999V0200901N00261220001CN0100001N9+01281+00611101701ADDAY101999GF102991021011012501999999MD1310141+9999
0061836920999991934032812004-21767-043333FM-12+066999999V0200501N002619999999N9999999N9+02111+99999101321ADDGF100991999999999999999999KA1999M+03281KA2999N+01501MW1111
0100275950999991934021104004+55783+049133FM-12+007099999V0202001N00461004201CN0100001N9-01501+99999100211ADDAA199000391AY121999GF108991999051004501011999IA1319KA1999N-01721MD1310041+9999EQDQ01+000082SCOTLC
0100276480999991934012204004+54967+041750FM-12+013699999V0202501N00931220001CN0040001N9-01391+99999103111ADDAA199000591AY111999GF104991999001999999021001IA1319KA1999N-01391MD1310101+9999EQDQ01+000002SCOTLC
0029719576999991934112312004+64900-125500FM-12+009199999V0203601N007219999999N9999999N9-03561+99999102201ADDGF100991001999999999999999
0057105130999991934111409004+50983+006900FM-12+001599999V0201101N00461030001CN0040001N9+00611+00391100551ADDAY121031GF106991041051012501071051MD1210141+9999MW1051
0037074890999991934080418004+45300+005867FM-12+115499999V0203401N00461007801CN0100001N9+02611+99999101611ADDAY121999GF107991071999008001999999
0100284930999991934042014004+56900+074383FM-12+007499999V0202501N01231220001CN0020001N9-00781+99999101392ADDAA199002091AY171999GF104991041051002501061001IA1319KA1999M-00721MD1310461+9999EQDQ01+101393APOSLP
0051014270999991934030112004+58100+006567FM-12+000999999V0202301N00931220001CN0500001N9+00611+99999101091ADDAY121999GF104991041081012501041001MD1310141+9999
0074010280999991934031218004+74467+019283FM-12+002899999V0200201N00671004501CN0100001N9-01281+99999101411ADDAA199000691AY171999GF108991081051004501999999IA1159MD1110021+9999MW1701
0081105760999991934111606004+50700+012467FM-12+009499999V0209991C00001000151CN0002001N9+00221+00171101591ADDAA199000391AY141061GF109991091999000251999999IA1089KA1999N+00221MD1310161+9999
0051075100999991934110812004+44833-000700FM-12+004899999V0203401N00261007801CN0100001N9+01111+99999101861ADDAY121999GF106991061021008001041001MD1610021+9999
0108035310999991934032307004+52483-001933FM-12+016399999V0202901N002619999999N0010001N9+00281+00221102231ADDAA199000391GA1011+999999019GF104991001001999999031001IA1089KA1999M+00561KA2999N+00221MD1310061+9999MW1101
0037025900999991934041812004+57650+018300FM-12+001199999V0201401N00931012301CN0500001N9+01501+99999100611ADDAY111999GF106991061041012501001999
0072836480999991934021312004-20150-040333FM-12+003699999V0209991C000019999999N9999999N9+02891+99999101671ADDAA124001091GF102991999999999999999999KA1999M+02891KA2999N+02281MW1111
0061834920999991934082112004-17767-041433FM-12+032999999V0200901N002619999999N9999999N9+01781+99999102081ADDGF107991999999999999999999KA1999M+02391KA2999N+01611MW1111
0070226290999991934051612004+54917+023933FM-12+008399999V0202501N00461220001CN0100001N9+01611+99999101321ADDAY111999GF104991999071017501001001MD1310121+9999EQDQ01+000062SCOTLC
0070306360999991934052918004+53617+109633FM-12+048299999V0202701N00671220001CN0100001N9+00781+99999101771ADDAY101999GF101991999001999999061001MD1310061+9999EQDQ01+000002SCOTLC
0065034970999991934041413004+52583+001733FM-12+000299999V0201701N009319999999N0040001N9+01111+00891101211ADDGA1011+999999019GF108991081061004501999999MD1810041+9999MW1801
0009726810241311934042311004+43567-116217SAO  +0874BOI  V0201351N009312200019N0320001N1+02351+99999999999ADDMW1001
0051100020999991934011306004+53767+006067FM-12+999999999V0202301N00671007801CN0100001N9+00391+00331999999ADDAY121999GF108991081081008001001001MD1310041+9999
0051071300999991934010612004+48067-001750FM-12+003999999V0202001N00261220001CN0200001N9+00721+99999103381ADDAY101999GF101991001001999999031999MD1990061+9999
0029719094999991934060912004+62833-069900FM-12+001699999V0202301N001019999999N0100001N9+00171+99999099971ADDGF108991001999999999999999
0051267020999991934040612004+54733+020567FM-12+002099999V0201101N00461007801CN0100001N9+00611+99999999999ADDAY121999GF107991071081008001999999MD1310061+9999
0070077470999991934010506004+42733+002867FM-12+004599999V0202901N01541036001CN0040001N9+00611+99999102311ADDAY121999GF107991011011008001051999IA1009KA1999N+00391MD1210021+9999
0057106370999991934112209004+50050+008600FM-12+003499999V0209991C00001007801CN0005001N9+00221+00171103391ADDAY141031GF108991081051008001999999MD1310041+9999MW1101
0072834920999991934040112004-17767-041433FM-12+032999999V0200501N002619999999N9999999N9+02281+99999101481ADDAA124006091GF104991999999999999999999KA1999M+02781KA2999N+02001MW1111
0057121860999991934112006004+54033+022517FM-12+005099999V0200501N00461002401CN0010001N9+00111+00061101911ADDAY121999GF108991081051002501999999MD1310181+9999MW1101
0043163300999991934022818004+40467+017233FM-12+002299999V0201601N01541007801CN0020001N9+01281+99999100381ADDAY121999GF108991081999008001999999MW1051
0037600690999991934020218004+27933-013000FM-12+000599999V0200201N00931012301CN0100001N9+01501+99999101571ADDAY111999GF107991071999012501999999
0051339020999991934113011004+46667+032617FM-12+004999999V0202901N00931220001CN0040001N9+00501+99999102191ADDAY111999GF104991041081008001001001MD1810021+9999
0057105350999991934043012004+50833+008917FM-12+006099999V0200501N00931030001CN0040001N9+01891+01611101261ADDAY121061GF107991021051012501011999MD1810061+9999MW1051
0091348800999991934091516004+46350+048033FM-12-002599999V0202301N004619999999N0100001N9+01781+99999100611ADDAY121999GF108991021021012501999999IA1009KA1999M+02221EQDQ01+000032APCTENQ02+000002APC3  
0068010280999991934012818004+74467+019283FM-12+002899999V0202001N01231007801CN0500001N9+00111+99999098391ADDAA199000591AY121999GF108991081051008001999999IA1199MD1710281+9999
0057368700999991934060608004+43250+076917FM-12+084299999V0201801N00461036001CN0500001N9+01611+99999101711ADDAY181999GF107991041031022501051071MD1810021+9999MW1251
0076121160999991934111615004+54450+017000FM-12+001299999V0200201N00101001501CN0040001N9+00781+00721101761ADDAY121999GF108991081051001501999999MD1410001+9999MW1501EQDQ01+000032APCTEN
0102037950999991934052107004+51083+001017FM-12+010499999V0202301N006719999999N0002001N9+01061+01001102371ADDAA124999999GA1011+999999019GF108991081051000251999999IA1089KA1999M+01441KA2999N+00721MD1310041+9999
0057267020999991934012009004+54733+020567FM-12+000999999V0202701N00931007801CN0100001N9+00281-00111101121ADDAY161999GF108991081051008001999999MD1310281+9999MW1211
0051333450999991934100811004+50450+030500FM-12+018399999V0201401N00461220001CN0100001N9+02001+99999103351ADDAY111999GF104991011011999999001091MD1990101+9999
0108037460999991934041107004+51167-001750FM-12+012699999V0201801N006719999999N0100001N9+00891+00831099621ADDAA124999999GA1011+999999019GF108991071051001501021999IA1089KA1999M+01061KA2999N+00501MD1310081+9999MW1501
0070288790999991934041620004+53267+069383FM-12+020999999V0202001N00261220001CN0100001N9-00111+99999101221ADDAY101999GF102991999001999999071001MD1310021+9999EQDQ01+000002SCOTLC
0087230660999991934012301004+69667+084400FM-12+002599999V0201601N006719999999N0020001N9-01611+99999101461ADDAA199000691AY171999GF108991001001999999011999IA1189KA1999N-01721MD1310061+9999MW1711
0057380620999991934082009004+44850+065450FM-12+012999999V0200901N00671220001CN0020001N9+03001+99999100801ADDAY141999GF100991001001999999001001MD1810101+9999MW1301
0065037950999991934110813004+51083+001017FM-12+010499999V0202401N006719999999N0200001N9+00831+00221101051ADDGA1011+999999019GF106991021051008001071081MD1810241+9999MW1801
0087267020999991934101306004+54733+020567FM-12+000999999V0202901N01231004501CN0200001N9+01001+00781099681ADDAA199004091AY181999GF106991061081004501001999IA1089KA1999N+00891MD1310201+9999MW1251
0061837450999991934081112004-22283-042533FM-12+085099999V0209991C000019999999N9999999N9+01221+99999102111ADDGF100991999999999999999999KA1999M+02721KA2999N+00611MW1111
0037167380999991934081712004+36767+024417FM-12+018099999V0203601N00461220001CN0100001N9+02721+99999101241ADDAY101999GF101991011011999999001001
0061839970999991934060912004-33517-053333FM-12+000699999V0203601N002619999999N9999999N9+01391+99999101401ADDGF104991999999999999999999KA1999M+01721KA2999N+01111MW1111
0057060810999991934050606004+55550+008083FM-12+001599999V0201401N00461220001CN0040001N9+01221+99999102141ADDAY101999GF102991021051008001001001IA1009MD1310081+9999
0072061800999991934102512004+55617+012650FM-12+000599999V0202301N00101220001CN0040001N9+01281+99999101641ADDAY111999GF104991021041004501041001EQDQ01+000032APCTENQ02+000002APC3  
0074030050999991934122518004+60150-001133FM-12+004899999V0201401N00671220001CN0200001N9+00281+99999102231ADDAA199000391AY181999GF104991041081004501001001IA1009MD1710041+9999MW1251
0076347310999991934081416004+47217+039717FM-12+004899999V0209991C00001220001CN0040001N9+02611+99999101341ADDAY111999GF101991999001999999041001IA1009MD1710021+9999EQDQ01+000002SCOTLC
0068030050999991934010306004+60150-001133FM-12+004899999V0202501N009319999999N0200001N9+00501+99999100451ADDAA199002091AY181999GF106991041081004501081001IA1089MD1210241+9999
0051104160999991934071412004+51533+007583FM-12+002199999V0202501N00261007801CN0100001N9+02281+01331101051ADDAY121061GF107991061081008001061999MD1810061+9999
0043104990999991934030212004+51150+014950FM-12+007299999V0200701N00261002401CN0040001N9+00501+00281101141ADDAY121061GF108991061051002501021999MW1051
0070110350999991934030818004+48217+016550FM-12+015799999V0202901N00101220001CN0100001N9+00501+99999101501ADDAY111061GF104991041051012501001001IA1009KA1999M+00781MD1810221+9999
0127037660999991934121807004+51283-000750FM-12+006999999V0202001N009319999999N0100001N9+01001+00941099001ADDAA124999999GA1011+999999019GF107991071061004501031999IA1089KA1999M+99999KA2999N+00671MD1810101+9999MW1211EQDQ01 +00942ATMX  
0059037460999991934071713004+51167-001750FM-12+012699999V0201601N004619999999N0200001N9+02561+01611101761ADDGA1011+999999019GF102991011011012501001081MD1810281+9999
0057105130999991934051115004+50983+006900FM-12+001599999V0200501N00101007801CN0200001N9+02221+01561102471ADDAY191031GF107991061031008001091061MD1810141+9999MW1921
0057080010999991934062518004+43383-008367FM-12+005799999V0203201N00461220001CN0200001N9+01781+99999102091ADDAY111999GF100991001001999999001001IA1009MD1310041+9999
0070105540999991934050506004+51017+011033FM-12+005699999V0201801N00261007801CN0500001N9+01281+00831101481ADDAY121061GF107991061051008001001011IA1009KA1999N+01111MD1310261+9999
0100387630999991934123115004+38967+056283FM-12+007199999V0209991C00001007501CN0100001N9+00221+99999102861ADDAA199000391AY121999GF108991081051008001999999IA1089KA1999M+00501MD1310021+9999EQDQ01+000902WODIR 
0076125390999991934122706004+50267+018667FM-12+007599999V0201101N00261002401CN0020001N9-00221-00281102121ADDAY121999GF108991081061002501999999IA1139KA1999N-00281MD1810021+9999MW1051
0087320610999991934070710004+50900+142167FM-12+001699999V0200501N002619999999N0040001N9+01221+99999101302ADDAA199002091AY161999GF108991041051017501999071IA1089MD1110101+9999EQDQ01+101303APOSLP
0051267020999991934060309004+54733+020567FM-12+000999999V0200901N00101030001CN0200001N9+02111+00891101131ADDAY101999GF107991011021017501011081MD1810141+9999
0102341720999991934031316004+51533+046050FM-12+006699999V0200201N00101007501CN0040001N9-00281+99999101701ADDAA199000691AY121999GF108991081051008001999999IA1319KA1999M-00111EQDQ01+000042APCTENQ02+000502APC3  
0070345600999991934051016004+48700+044517FM-12+006599999V0203201N00461090001CN0100001N9+02281+99999101331ADDAY111999GF106991001001999999001031IA1009KA1999M+02611MD1810081+9999
0070267020999991934082921004+54733+020567FM-12+000999999V0200701N00101220001CN0200001N9+01611+01561100931ADDAY191999GF104991999001999999071001MD1610041+9999EQDQ01+000002SCOTLC
0051110270999991934110906004+48217+015333FM-12+022099999V0202701N004619999999N0100001N9+00501+99999101441ADDAY111061GF106991021051017501001999MD1210121+9999
0061837290999991934070112004-22900-047067FM-12+066599999V0200901N002619999999N9999999N9+01501+99999102151ADDGF100991999999999999999999KA1999M+02221KA2999N+01281MW1111
0057284400999991934041709004+56733+060633FM-12+028899999V0201401N00261004201CN0100001N9+00111+99999101411ADDAY171999GF108991081011004501999999MD1310021+9999MW1701
0093347310999991934120604004+47217+039717FM-12+004899999V0200701N012319999999N0005001N9-00721+99999101861ADDAA199005091AY171999GF108991999001017501021999IA1309MD1110021+9999MW1731EQDQ01+000002SCOTLC
0037247380999991934101605004+62150+117483FM-12+015299999V0203601N99999015001CN0500001N9+99999+99999999999ADDAY121999GF108991081051017501999999
0043249510999991934100511004+60817+125150FM-12+012599999V0202701N001019999999N9999999N9+00391+99999999999ADDAY111999GF108991001001999999071999IA1159
0091024640999991934050918004+59350+017950FM-12+001099999V0202701N00671220001CN0100001N9+02111+99999102571ADDAY101999GF100991001001999999001001IA1009KA1999M+02501EQDQ01+000032APCTENQ02+000002APC3  
0037074880999991934120612004+45167+005733FM-12+032499999V0209991C00001220001CN0100001N9+02001+99999102171ADDAY101999GF104991001999999999999999
0044719350999991934071515004+60850-115767FM-12+016199999V0201401N006719999999N9999999N9+01611+99999999999ADDGF102991011999999999999999MA1999999098881
0051100190999991934120612004+54917+008350FM-12+000599999V0201801N001019999999N0040001N9+00781+99999100961ADDAY111999GF107991001001999999081999MD1310121+9999
0079280440999991934061303004+59600+060533FM-12+013299999V0201801N00461220001CN0200001N9+01111+99999100411ADDAJ100009199999999AY101999GF104991001001999999051051IA1009KA1999N+00721MW1051
0037377890999991934062922004+40133+044467FM-12+090799999V0201401N00261220001CN0200001N9+01721+99999999999ADDAY111999GF102991999001999999051001
0037084530999991934111612004+36467-006200FM-12+002899999V0209991C000019999999N0100001N9+01391+99999100691ADDAY111999GF107991041999999999999999
0072116430999991934032312004+50750+015733FM-12+049199999V0201801N00461000151CN0040001N9+00001-00061099681ADDAY181999GF107991071081000251999999EQDQ01+000032APCTENQ02+000002APC3  
0081064510999991934101018004+50883+004417FM-12+005599999V0202301N00461012301CN0040001N9+01221+99999102861ADDAA199000691AY161999GF107991071051012501041999IA1009KA1999M+01501MD1710061+9999
0072837430999991934041812004-22900-043167FM-12+002099999V0209991C000019999999N9999999N9+02221+99999101801ADDAA124003091GF107991999999999999999999KA1999M+02501KA2999N+02001MW1111
0037083140999991934120606004+39883+004267FM-12+004399999V0202901N001019999999N0100001N9+01221+99999102221ADDAY121999GF107991011999004501999999
0043104000999991934011206004+51283+006767FM-12+001199999V0201101N00931001501CN0020001N9+99999+99999999999ADDAY161061GF108991081061001501999999MW1631
0056112400999991934081818004+46983+015450FM-12+033599999V0209991C00001220001CN0200001N9+02111+99999101661ADDAY111061GF104991021071022501071011IA1009KA1999M+02611
0080032620999991934122501004+55017-001417FM-12+003399999V0201401N009319999999N0200001N9+00671+00281101801ADDGA1011+999999019GF108991081061004501999999EQDQ01+000032APCTENQ02+000002APC3  
0051070090999991934071912004+50967+001833FM-12+002799999V0202301N00461220001CN0040001N9+02001+99999101471ADDAY101999GF102991011011004501001011MD1810041+9999
0087374720999991934100204004+43000+047500FM-12+003599999V0202701N004619999999N0100001N9+01001+99999101971ADDAJ100009199999999AY111999GF106991999051008001001001IA1009KA1999N+01001MD1110021+9999
0070279620999991934032704004+53183+045017FM-12+013799999V0201401N012319999999N0100001N9-01001+99999103421ADDAY171999GF108991081999004501999999IA1319KA1999N-01111MD1710041+9999
0070074200999991934082018004+45667+000233FM-12+008399999V0203201N00461220001CN0200001N9+02391+99999101731ADDAY111999GF106991001001999999091031IA1009KA1999M+02781MD1410001+9999
0059033230999991934082713004+53350-002883FM-12+002499999V0201401N006719999999N0100001N9+02111+01671101451ADDGA1011+999999019GF102991021071008001001011MD1810161+9999
0102345040999991934020905004+48550+035100FM-12+006299999V0202301N006719999999N0010001N9+99999+99999999999ADDAY121999GF107991001001999999051999HL10009IA2999+00009KA1999N-00111MD1310061+9999EQDQ01 103943APOSLP
0065031590999991934020313004+56033-003133FM-12+005899999V0202301N001019999999N0020001N9+00781+00561103481ADDGA1011+999999019GF107991071051004501999999MD1810061+9999MW1051
0102343000999991934121905004+50000+036233FM-12+014899999V0203201N00261004201CN9999999N9-00781+99999102781ADDAA199000691AY171999GF108991081051004501999999IA1309KA1999N-00891EQDQ01+000042APCTENQ02+000042APC3  
0087115190999991934022006004+50067+014433FM-12+025499999V0202701N00931007801CN0040001N9+00281+99999102041ADDAA199000691AY181999GF107991071051008001071999IA1009KA1999N+00221MD1710241+9999MW1831
0076115180999991934041918004+50100+014283FM-12+037199999V0203601N00261220001CN0040001N9+01781+99999101221ADDAY111999GF104991011011017501011011IA1009KA1999M+02111MD1990061+9999MW1051
0070307770999991934122623004+52250+117717FM-12+044999999V0209991C00001220001CN0020001N9+99999+99999102581ADDAY111999GF101991001001999999001051IA1309KA1999N-03391MD1810041+9999
0037085450999991934021518004+41133-008667FM-12+002599999V0200901N00261220001CN0100001N9+01501+99999103381ADDAY111999GF101991001999999999999999
0068100450999991934013018004+54450+010200FM-12+999999999V0202301N00671002401CN0040001N9+00281+99999102341ADDAA199000691AY151999GF108991081061002501999999IA1089MD1810261+9999
0091124000999991934033018004+51917+015500FM-12+004599999V0200901N00101220001CN0100001N9+01001+00111100921ADDAY111999GF102991021051012501001011IA1009KA1999M+01281EQDQ01+000042APCTENQ02+000082APC3  
0037085450999991934022706004+41133-008667FM-12+002599999V0200701N00101220001CN0040001N9+00221+99999101471ADDAY111999GF102991011999012501999999
0037166480999991934062612004+39633+022417FM-12+007599999V0200901N00671220001CN0200001N9+03221+99999101581ADDAY101999GF100991001001999999001999
0051076310999991934110612004+43550+001383FM-12+016499999V0202701N00461220001CN0200001N9+01391+99999100011ADDAY111999GF104991041021008001041031MD1510021+9999
0051104100999991934030512004+51417+006933FM-12+012099999V0202301N00461012301CN0500001N9+00891+99999101471ADDAY121061GF106991061021012501001051MD1710221+9999
0037082210999991934112018004+40467-003567FM-12+060099999V0203601N00101007801CN0040001N9+00721+99999102101ADDAY121999GF108991081999008001999999
0118029110999991934052206004+63083+021617FM-12+000999999V0202301N00101220001CN0200001N9+00891+99999999999ADDAA199000591AY111999GF101991011001017501031001IA1089KA1999N+00391EQDQ01+000001APOSP Q02+000032APCTENQ03+000002APC3  
0065039800999991934060418004+55367-007333FM-12+002699999V0203601N001019999999N0100001N9+01221+01001102271ADDGA1011+999999019GF101991001001999999001021IA1009MD1810041+9999
0018719340999991934030400004+60017-112000FM-12+020399999V0209991C000019999999N9999999N9+00331+99999999999ADDMA1999999096311
0043855410999991934122217004-32817-070083FM-12+385099999V0202301N01901220001CN0500001N9+00501+99999100391ADDAY101999GF104991041999017501999999MW1011
0037085450999991934060118004+41133-008667FM-12+002599999V0203201N01231220001CN0100001N9+01721+99999101811ADDAY101999GF102991001999999999999999
0037084870999991934020718004+36850-002467FM-12+006599999V0202001N00461220001CN0200001N9+01281+99999102541ADDAY101999GF100991001999999999999999
0051108660999991934122512004+48183+011550FM-12+052099999V0202501N00101004501CN0040001N9+00221+99999102001ADDAY121061GF108991081051004501999999MD1010001+9999
0029719650999991934012412004+63583-135850FM-12+049599999V0209991C000019999999N0010001N9-04111+99999101421ADDGF108991081999999999999999
0051077470999991934071112004+42733+002867FM-12+004599999V0200701N00461220001CN0100001N9+02721+99999101191ADDAY121999GF102991021011004501001001MD1710101+9999
0070284400999991934032921004+56733+060633FM-12+028899999V0201401N001019999999N0100001N9-01001+99999103762ADDAY121999GF106991001001999999041071MD1990061+9999EQDQ01+103763APOSLP
0037085360999991934041906004+38733-009183FM-12+022799999V0202501N00261220001CN0040001N9+00891+99999101951ADDAY101999GF102991011999008001999999
0051286610999991934120521004+55450+065150FM-12+007399999V0202301N00461220001CN0100001N9-02281+99999102541ADDAY101999GF100991001001999999001001MD1310061+9999
0097102740999991934102618004+53350+012733FM-12+002299999V0202001N00461220001CN0040001N9+01221+01171101731ADDAY111999GF104991021051008001001041IA1009KA1999M+01391MW1051EQDQ01+000032APCTENQ02+000002APC3  
0072286980999991934071308004+54917+073400FM-12+009499999V0209999999999006001CN0040001N9+01891+99999101281ADDAY111999GF107991071081000251999011EQDQ01+000032APCTENQ02+000002APC3  
0057224710999991934011216004+65833+044267FM-12+001699999V0202701N00671004201CN0020001N9-00281+99999101631ADDAY111999GF106991061051004501001001IA1319MD1310141+9999
0051104100999991934050709004+51400+006950FM-12+003799999V0202901N00261015001CN0100001N9+01391+00941101811ADDAY121031GF108991081051017501999999MD1310101+9999
0057125000999991934020609004+50900+015783FM-12+010499999V0202901N00461002401CN0010001N9-00221-00281102291ADDAY121999GF108991081051002501999999MD1810101+9999MW1101
0051297420999991934012607004+54650+086650FM-12+999999999V0200901N00101220001CN0040001N9-01721+99999103011ADDAY101999GF100991001001999999001001MD1810061+9999
0037165970999991934012006004+35900+014517FM-12+008599999V0202301N00461220001CN0500001N9+01221+99999102171ADDAY101999GF101991011999008001999999
0037083140999991934122106004+39883+004267FM-12+004399999V0203601N00671220001CN0100001N9+01001+99999101491ADDAY111999GF104991041999012501999999
0088353580999991934121409004+49633+063500FM-12+012199999V0201801N001019999999N0100001N9-00891+99999103131ADDAY121999GF107991999001999999051001EQDQ01+000002SCOTLCQ02+000032APCTENQ03+000002APC3  
0117377890999991934063004004+40133+044467FM-12+090799999V0201801N00101220001CN9999999N9+01891+99999999999ADDAA199000691AJ100009199999999AY111999GF100991001001999999001001HL10009IA1009IA2999+01229KA1999N+01281MD1310061+9999
0080038940999991934071601004+49450-002550FM-12+010499999V0202801N002619999999N0200001N9+01501+01441102381ADDGA1011+999999019GF104991041081012501001001EQDQ01+000032APCTENQ02+000002APC3  
0057104160999991934011409004+51533+007583FM-12+002199999V0201801N01231002401CN0200001N9+00611+00391099751ADDAY161031GF107991071081002501999999MD1710361+9999MW1601
0081111200999991934100606004+47283+011417FM-12+058299999V0209991C00001002401CN0100001N9+00721+99999102381ADDAA199024091AY121061GF108991081051002501999999IA1089KA1999N+00721MD1110201+9999
0037267300999991934092906004+54633+025283FM-12+018899999V0202901N00461220001CN0100001N9+01001+00781102421ADDAY121999GF102991021011008001001999
0118101270999991934031306004+53533+008150FM-12+000299999V0201801N00101004501CN0100001N9+00391+00331098961ADDAA199000691AY121999GF106991999051004501041071IA1009KA1999N+00281EQDQ01+000072SCOTLCQ02+000042APCTENQ03+000062APC3  
0057302300999991934021900004+57783+108117FM-12+026899999V0209991C00001012001CN0010001N9-02281+99999102831ADDAY171999GF108991081051012501999999MD1310061+9999MW1731
0059031590999991934051713004+56033-003133FM-12+005899999V0202301N009319999999N0200001N9+00611+00001099901ADDGA1011+999999019GF104991021021008001061001MD1310061+9999
0051354370999991934030721004+46967+055150FM-12+999999999V0200201N02261220001CN0010001N9-01611+99999102571ADDAY101999GF100991001001999999001001MD1310301+9999
0100264470999991934021306004+56783+027733FM-12+012099999V0203401N00261220001CN0200001N9-01281+99999103681ADDAA199000591AY101999GF100991001001999999001001IA1309KA1999N-01501MD1310381+9999EQDQ01+000902SCOLCB
0061836840999991934032612004-21850-045300FM-12+096099999V0201401N002619999999N9999999N9+02281+99999101421ADDGF102991999999999999999999KA1999M+03001KA2999N+01501MW1111
0070100060999991934030406004+54600+011150FM-12+999999999V0202701N00671220001CN0100001N9+00281+00221102001ADDAY101999GF101991999001022501041999MD1110101+9999EQDQ01+000002SCOTLC
0043165970999991934123006004+35900+014517FM-12+008599999V0202501N004619999999N0200001N9+00611+99999101271ADDAY181999GF107991021999004501999999MW1251
0051010010999991934071812004+70983-008300FM-12+002399999V0200901N01231007801CN0200001N9+00781+99999101251ADDAY121999GF108991081051008001999999MD1310021+9999
0037124900999991934101306004+51550+021850FM-12+012199999V0202701N01541002401CN0100001N9+01221+01001100581ADDAY161999GF106991061061002501001999
0051218240999991934031804004+71583+129033FM-12+000799999V0209991C99999220001CN0200001N9-03221+99999102831ADDAY101999GF100991001001999999001001MD1310021+9999
0051338370999991934011611004+46483+030733FM-12+006599999V0201801N00461004201CN9999999N9+00111+99999101721ADDAY161999GF108991081051004501999999MD1210101+9999
0081105760999991934051106004+50700+012467FM-12+009499999V0202301N00101000151CN0005001N9+01221+01171103011ADDAA199000691AY141061GF109991091999000251999999IA1089KA1999N+00891MD1310061+9999
0076104190999991934092006004+51217+007633FM-12+013699999V0201801N00931220001CN0040001N9+01001+99999999999ADDAY111061GF104991041051004501001011IA1009KA1999N+00891MD1710101+9999MW1051
0051162400999991934011312004+41867+012550FM-12+005099999V0200201N00261007801CN0040001N9+01281+99999100671ADDAY121999GF107991071091008001001001MD1810041+9999
0029719576999991934112508004+64900-125500FM-12+009199999V02099999999999999999N9999999N9+99999+99999999999ADDKA1999M-02891KA2999N-03391
0087283670999991934093003004+57167+065533FM-12+008099999V0202301N00461015001CN0040001N9+00721+99999101891ADDAJ100009199999999AY121999GF108991081051017501999999IA1089KA1999N+00611MD1710101+9999
0098388360999991934070702004+38583+068800FM-12+080099999V0202001N00101220001CN0100001N9+02221+99999100791ADDAJ100009199999999AY101999GF102991011011017501031001HL10009IA1009IA2999+01399KA1999N+01611MW1541
0086166060999991934013118004+41083+023567FM-12+002899999V0202301N00461220001CN0040001N9+00391+99999101011ADDAA199005091AY161999GF107991999001999999071001IA1109KA1999M+00781EQDQ01+000002SCOTLC
0057104100999991934122209004+51400+006950FM-12+003799999V0201401N00101012301CN0020001N9+00721+00501101421ADDAY121031GF108991071051012501999999MD1990021+9999MW1051
0057043350999991934071218004+73483-021567FM-12+000399999V0201101N00461220001CN0500001N9+00391+99999101691ADDAY101061GF102991011061012501001031IA1009MD1210021+9999
0108033340999991934110607004+53350-002267FM-12+007099999V0203601N002619999999N0020001N9+00061+00001100461ADDAA199000091GA1011+999999019GF104991021051008001051011IA1089KA1999M+00781KA2999N+00061MD1310101+9999MW1051
0076076500999991934073118004+43417+005200FM-12+001299999V0202701N00261220001CN0100001N9+02611+99999101141ADDAY111999GF102991021021012501001001IA1009KA1999M+02781MD1410001+9999MW1051
0037040630999991934031006004+65683-018083FM-12+000799999V0201801N00261220001CN9999999N9+99999+99999101201ADDAY101061GF100991001001999999001001
0051121140999991934040306004+54433+016383FM-12+000299999V0200901N00461220001CN0040001N9+00001-00221102671ADDAY101999GF100991001001999999001001MD1310081+9999
0037085890999991934070118004+14917-023517FM-12+003499999V0200501N00931220001CN0040001N9+02721+99999101801ADDAY121999GF102991021999008001999999
0051389870999991934091209004+35283+062350FM-12+062799999V0200701N00261220001CN0100001N9+03392+99999100691ADDAY101999GF100991001001999999001001MD1810101+9999
0029710633999991934060508004+61150-113617FM-12+015899999V02099999999999999999N9999999N9+99999+99999999999ADDKA1999M+02111KA2999N+00171
0043154200999991934080406004+44483+026133FM-12+009299999V0209991C00001220001CN0100001N9+02501+99999101561ADDAY141999GF100991001999999999999999MW1051
0081234050999991934100416004+65483+052167FM-12+003799999V0203601N00101007501CN0100001N9-00281+99999101511ADDAA199037091AY121999GF107991071051008001001999IA1309KA1999M-00111MD1810041+9999
0057401000999991934121906004+33867+035450FM-12+007099999V0201401N00101090001CN0200001N9+02001+99999101141ADDAY121999GF108991021081017501001091IA1009MD1110141+9999
0076106370999991934102106004+50050+008600FM-12+003499999V0202001N00101012301CN0020001N9+00891+00831102231ADDAY121061GF107991071051012501999999IA1089KA1999N+00891MD1310081+9999MW1051
0070286610999991934011703004+55450+065150FM-12+007399999V0202301N00261220001CN0100001N9-02391+99999103711ADDAY101999GF100991001001999999001001IA1319KA1999N-02611MD1310061+9999
0127032800999991934021007004+54367-001617FM-12+005399999V0202601N004619999999N0200001N9+00721+00501102151ADDAA199999999GA1011+999999019GF108991021051008001071071IA1089KA1999M+00721KA2999N+00611MD1310061+9999MW1211EQDQ01  00002PRCP99
0091102740999991934070206004+53350+012733FM-12+002299999V0203401N00461007801CN0100001N9+01221+01171102061ADDAY121999GF108991081051008001999999IA1009KA1999N+01221EQDQ01+000032APCTENQ02+000002APC3  
0037133340999991934050206004+43517+016433FM-12+012899999V0200701N00261220001CN0040001N9+01891+99999101221ADDAY101999GF101991001999999999999999
0057109540999991934100409004+47817+010883FM-12+022199999V0203201N00101220001CN0040001N9+01501+01281100641ADDAY111031GF104991011051004501011081MD1990061+9999MW1051
0037106880999991934052512004+49683+012167FM-12+012199999V0200501N00261220001CN0100001N9+99999+99999999999ADDAY111061GF104991041011008001001999
0070238490999991934062714004+61250+073400FM-12+004099999V0202901N00101220001CN0100001N9+02281+99999101441ADDAY101999GF100991001001999999001001IA1009KA1999M+02391MD1210101+9999
0070106550999991934030606004+49800+009967FM-12+008199999V0202001N00671015001CN0200001N9+00111-00221101371ADDAY121061GF107991061051017501001021IA1139KA1999N-00111MD1810061+9999
0037133340999991934021106004+43517+016433FM-12+012899999V0209991C00001220001CN0100001N9+00501+99999102991ADDAY111999GF104991041999012501999999
0089124000999991934102218004+51917+015500FM-12+004599999V0209991C00001220001CN0100001N9+00781+00561101831ADDAY111999GF104991001001999999071999IA1089KA1999M+01391MD1310021+9999EQDQ01+002302WODIR 
0091267740999991934040105004+54300+030817FM-12+020399999V0200701N00671220001CN0100001N9-00281+99999103201ADDAY101999GF102991001001999999001051IA1139KA1999N-00391EQDQ01+000042APCTENQ02+000042APC3  
0051040480999991934030306004+63400-020283FM-12+012299999V0202901N01231220001CN9999999N9-00111+99999098781ADDAY101061GF101991011011999999999999MD1210261+9999
0043167340999991934021818004+36833+021717FM-12+002599999V0200501N00101220001CN0200001N9+99999+99999102081ADDAY111999GF101991011011999999001001IA1089
0057074200999991934063006004+45667+000233FM-12+008399999V0203201N00261004501CN0040001N9+01391+99999101851ADDAY161999GF108991081051004501999999MD1110061+9999MW1051
0076372280999991934062516004+43050+044483FM-12+066899999V0202001N00101015001CN0100001N9+02001+99999101191ADDAY121999GF108991071071017501999999IA1089KA1999M+02111MD1810061+9999MW1161
0100380620999991934091315004+44850+065450FM-12+012999999V0203601N00261220001CN0040001N9+02111+99999100611ADDAA199005091AY101999GF101991999001999999021001IA1009KA1999M+03111MD1990101+9999EQDQ01+000002SCOTLC
0070360030999991934010502004+52283+076950FM-12+012799999V0202301N001019999999N0040001N9-02501+99999999999ADDAY111999GF107991001001999999021999IA1309KA1999N-02611MD1310021+9999
0081070280999991934010806004+49517+000117FM-12+001799999V0202001N00461000601CN0100001N9+00501+99999102271ADDAA199000691AY151999GF108991081051000751999999IA1089KA1999N+00391MD1210041+9999
0072339020999991934091011004+46667+032617FM-12+004999999V0201101N00261036001CN0100001N9+02281+99999100461ADDAY121999GF107991041081008001031001EQDQ01+000042APCTENQ02+000062APC3  
0057105130999991934112409004+50983+006900FM-12+001599999V0209991C00001000151CN0000501N9+00611+00561103351ADDAY141031GF109991091999000251999999MD1310161+9999MW1451
0037103840999991934031407004+52483+013433FM-12+001799999V0202001N00931015001CN0100001N9+99999+99999999999ADDAY121999GF107991061051017501031999
0124224710999991934120704004+65833+044267FM-12+001699999V0202001N012319999999N0010001N9-00221+99999100601ADDAA199001091AY171999GF108991999001012501021999IA1309KA1999N-00501MW1701EQDQ01+000002SCOTLCQ02+000032APCTENQ03+000002APC3  
0051102240999991934103012004+53083+008783FM-12+000499999V0202301N00931220001CN0200001N9+01001+99999100661ADDAY111999GF104991041011012501001061MD1810021+9999
0057104160999991934022821004+51533+007583FM-12+002199999V0201401N00101220001CN0040001N9-00111-00281101001ADDAY121031GF101991001001999999001081MD1310181+9999MW1051
0092038040999991934080418004+49933-006300FM-12+005099999V0202301N002619999999N0200001N9+01501+01221101291ADDGA1011+999999019GF106991041091008001071031IA1009MW1161EQDQ01+000032APCTENQ02+000002APC3  
0057351080999991934102310004+51200+051367FM-12+003899999V0203601N00261015001CN0040001N9+01221+99999102571ADDAY121999GF107991071081012501001001MD1110061+9999MW1101
0102030750999991934113007004+58450-003083FM-12+003699999V0202001N002619999999N0200001N9+00721+00501102611ADDAA199002091GA1011+999999019GF107991061051004501021001IA1089KA1999M+00781KA2999N+00561MD1810201+9999
0070260940999991934081017004+59650+033533FM-12+004999999V0202701N00461075001CN0100001N9+02111+99999100491ADDAY111999GF106991001001999999001021IA1009KA1999M+02391MD1810061+9999
0070076500999991934050812004+43417+005200FM-12+001299999V0209991C00001090001CN0200001N9+02111+99999102811ADDAY121999GF107991011031012501001021MD1810061+9999EQDQ01+002902WODIR 
0051105120999991934072512004+50433+007833FM-12+007799999V0202901N00461007801CN0040001N9+01891+99999101681ADDAY121061GF107991071071008001999999MD1310061+9999
0078100050999991934022318004+54017+008250FM-12+999999999V0202501N00671000151CN0005001N9+00391+99999102391ADDAY121999GF109991091999000251999999MW1101EQDQ01+000032APCTENQ02+000002APC3  
0087106350999991934081418004+50217+008450FM-12+024499999V0203601N00671030001CN0100001N9+01001+00611099911ADDAA199000391AY191061GF106991041091002501061031IA1009KA1999M+01221MD1310081+9999MW1161
0043166890999991934101106004+38250+021733FM-12+000399999V0209991C00001036001CN0020001N9+01891+99999101311ADDAY111999GF107991041051012501071999MW1051
0051100030999991934061812004+53867+007933FM-12+999999999V0203201N00101030001CN0040001N9+01781+01561999999ADDAY121999GF106991041081008001041031MD1810081+9999
0076249590999991934062122004+62017+129750FM-12+010999999V0202501N002619999999N0100001N9+02391+99999100791ADDAY111999GF107991001001999999081061IA1309KA1999N+01001MD1310021+9999MW1101
0043040300999991934062118004+64150-021950FM-12+001699999V0203201N00461220001CN0500001N9+01391+99999101191ADDAY101061GF104991021031012501001011IA1009
0078239330999991934120608004+60967+069067FM-12+012899999V0203201N001019999999N0010001N9-01781+99999102021ADDAY111999GF108991081999004501999999MW1421EQDQ01+000032APCTENQ02+000002APC3  
0070076500999991934120906004+43417+005200FM-12+001299999V0201101N00461036001CN0200001N9+01281+99999101661ADDAY111999GF107991041081008001041001IA1009KA1999N+01001MD1710121+9999
0037282250999991934062821004+58017+056267FM-12+016799999V0200901N00101030001CN0100001N9+01781+99999100701ADDAY121999GF106991021041017501071081
0051010280999991934050412004+74467+019283FM-12+002899999V0202701N00671015001CN0500001N9+00001+99999102211ADDAY121999GF107991071051017501021999MD1310281+9999
0108077470999991934040506004+42733+002867FM-12+004599999V0209991C00001012301CN0500001N9+01111+99999100471ADDAA199000391AY181999GF108991081081012501999999IA1089KA1999N+00891MW1611EQDQ01+000042APCTENQ02+000062APC3  
0074011060999991934070106004+67500+012067FM-12+001199999V0202701N00671001501CN0200001N9+00781+99999101411ADDAA199000391AY151999GF108991061081001501021999IA1089MD1110041+9999MW1511
0051260630999991934101711004+59983+030283FM-12+000599999V0200901N00461021001CN0040001N9+00721+99999100491ADDAY121999GF108991071051022501011999MD1310141+9999
0051100100999991934043012004+54550+007883FM-12+999999999V0203601N00461220001CN0100001N9+01001+00781999999ADDAY111999GF104991041011017501001999MD1810021+9999
0091071100999991934052406004+48333-004767FM-12+003299999V0200701N00261007801CN0100001N9+01221+99999102551ADDAY121999GF107991071051008001999999IA1009KA1999N+00891EQDQ01+000012APCTENQ02+000002APC3  
0072353580999991934061409004+49633+063500FM-12+012199999V0203601N00101220001CN0100001N9+02391+99999101261ADDAY101999GF100991001001999999001001EQDQ01+000032APCTENQ02+000002APC3  
0051343000999991934091611004+50000+036233FM-12+014899999V0203601N00671220001CN9999999N9+01111+99999102531ADDAY111999GF104991041021012501001001MD1210121+9999
0068012620999991934011718004+64800+010550FM-12+003799999V0201401N00461220001CN0500001N9+00111+99999098951ADDAA199002091AY101999GF101991011081004501001001IA1089MD1810201+9999
0043600960999991934012718004+23683-015900FM-12+000699999V0200901N00461000151CN0040001N9+01781+99999102621ADDAY131999GF109991091999000251999999MW1051
0061838600999991934060112004-26317-051817FM-12+108999999V0209991C000019999999N9999999N9+00721+99999101471ADDGF100991999999999999999999KA1999M+02391KA2999N+00281MW1111
0037072400999991934063018004+47417+000783FM-12+011299999V0203401N00461220001CN0040001N9+02611+99999101751ADDAY101999GF100991001001999999001999
0057122810999991934110809004+53567+021000FM-12+004599999V0200901N00261030001CN0020001N9+01111+00891101191ADDAY111999GF106991021031008001011081MD1310041+9999MW1051
0095061800999991934080506004+55617+012650FM-12+000599999V0209991C00001007801CN0100001N9+01611+99999100321ADDAA199001091AY161999GF108991081061008001001001IA1089MW1601EQDQ01+000032APCTENQ02+000002APC3  
0057319960999991934062022004+43733+135267FM-12+000899999V0200501N00101004201CN0100001N9+01781+99999101241ADDAY111999GF108991081061004501999999IA1209MD1210181+9999
0037106770999991934100612004+50000+011633FM-12+011399999V0202701N00261001501CN0100001N9+99999+99999999999ADDAY121061GF108991061061001501021999
0029719460999991934080800004+61867-121350FM-12+012799999V0203601N007219999999N9999999N9+01391+99999101491ADDGF108991081999999999999999
0043104400999991934062612004+51200+010033FM-12+004899999V0203601N00261004501CN0040001N9+99999+99999999999ADDAY161061GF108991081061004501999999MW1611
0057100910999991934052206004+54600+013233FM-12+000199999V0202301N01541030001CN0100001N9+01111+01061101491ADDAY121999GF106991011071001501031001IA1009MD1310101+9999
0049167460999991934013006004+35500+024033FM-12+006399999V0203201N00461036001CN0040001N9+01391+99999101911ADDAY151999GF106991041061017501071001IA1089MW1511
0060363350999991934062202004+49417+075467FM-12+087399999V0209991C00001220001CN0500001N9+01781+99999100951ADDAJ100009199999999AY111999GF104991001001999999001081IA1009
0111238490999991934050202004+61250+073400FM-12+004099999V0209991C00001220001CN0100001N9+00001+99999101071ADDAY111999GF100991001001999999001001HL10009IA1319IA2999-00619MD1310041+9999EQDQ01+002702WODIR Q02+000062SCOHCG
0057101700999991934050518004+54183+012100FM-12+000299999V0200501N00261030001CN0100001N9+01391+00941101701ADDAY111999GF107991041051012501011061IA1009MD1310061+9999
0092355420999991934092603004+48617+061267FM-12+012799999V0209991C00001220001CN0100001N9+00221+99999999999ADDAJ100009199999999AY101999GF100991001001999999001001IA1009KA1999N-00111EQDQ01+000012SCOTCV
0070294300999991934020201004+56433+084967FM-12+013899999V0201801N00461220001CN0020001N9-02281+99999103911ADDAY101999GF100991001001999999001999IA1319KA1999N-02391MD1310021+9999
0057060410999991934012318004+57733+010633FM-12+000399999V0202301N00261012301CN0100001N9+00281+99999103481ADDAY121999GF108991081051012501001001IA1009MD1310021+9999
0061832290999991934021412004-12817-038317FM-12+000999999V0209991C000019999999N9999999N9+02721+99999101341ADDGF107991999999999999999999KA1999M+03001KA2999N+02281MW1111
0070100080999991934022818004+54833+014367FM-12+999999999V0202501N01541004501CN0100001N9+00221+00171099991ADDAY171999GF108991999051004501001999MD1310201+9999EQDQ01+000092SCOTLC
0097036970999991934070107004+51950+001333FM-12+000399999V0200101N002619999999N0040001N9+01281+01221102571ADDGA1011+999999019GF108991081051001501999999IA1009KA1999M+02171KA2999N+00941MD1310121+9999MW1051
0092333930999991934060518004+49817+023950FM-12+033099999V0209991C00001036001CN0010001N9-00722-00782100621ADDAY181999GF107991041051017501031001MD1310021+9999MW1121EQDQ01+026603ATOT  Q02+026543ATOD  
0043104000999991934121712004+51283+006767FM-12+001199999V0202301N00261030001CN0040001N9+99999+99999999999ADDAY111061GF106991021051008001031999MW1051
0057128820999991934072112004+47567+021617FM-12+013799999V0203601N00101220001CN0100001N9+03221+00941101111ADDAY101999GF102991011999012501999041MD1990081+9999MW1051
0037074890999991934112012004+45300+005867FM-12+115499999V0200201N00261007801CN0200001N9+01281+99999101551ADDAY121999GF106991061999008001999999
0070121600999991934051409004+54150+019433FM-12+000299999V0201601N00461220001CN0200001N9+01392+00941100571ADDAY111999GF104991021071012501001081MD1990021+9999EQDQ01+028713ATOT  
0081105770999991934011406004+50817+012883FM-12+010999999V0201601N00461220001CN0100001N9+00111-00111101271ADDAA199000691AY111061GF104991999001999999011001IA1189KA1999N+00001MD1810101+9999
0000719660999991934101212004+64067-139483FM-12+032499999V02099999999999999999N9999999N9-00281+99999101631
0078100910999991934091218004+54600+013233FM-12+000199999V0200501N00261220001CN0040001N9+01781+01721102961ADDAY101999GF100991001001999999001001IA1009EQDQ01+000032APCTENQ02+000002APC3  
0057010550999991934030906004+71067+024150FM-12+000499999V0200901N00261220001CN0500001N9-00281+99999100071ADDAY121999GF104991021081012501021021IA1309MD1210101+9999
0105082210999991934052818004+40467-003567FM-12+060099999V0209991C00001220001CN0200001N9+02611+99999101271ADDAY111999GF104991999071017501001001IA1159KA1999M+99999MD1810021+9999EQDQ01+000022SCOTLCQ02 +00002ATMX  
0037229390999991934111110004+60033+037783FM-12+012099999V0202501N009319999999N0040001N9+00501+99999101231ADDAY121999GF107991041061002501999999
0070230660999991934112907004+69667+084400FM-12+002599999V0202301N006719999999N0040001N9-00611+99999101851ADDAY171999GF108991081051999999999999MD1310161+9999EQDQ01+000992SCOLCB
0065039170999991934110313004+54650-006217FM-12+006799999V0202901N004619999999N0200001N9+01111+00891100721ADDGA1011+999999019GF108991061051004501021999MD1310061+9999MW1601
0104266660999991934061805004+55200+030200FM-12+015099999V0202701N00261007501CN0040001N9+01001+99999101751ADDAA199001091AJ100009199999999AY111999GF108991081051008001999999IA1089KA1999N+00781MD1810161+9999MW1611
0081282750999991934021702004+58200+068233FM-12+010099999V0209991C000019999999N0020001N9-01611+99999101711ADDAA199000591AY121999GF107991001001999999071999IA1309KA1999N-01781MD1610061+9999
0097030910999991934060107004+57167-002200FM-12+007199999V0201801N002619999999N0040001N9+00831+00781102181ADDGA1011+999999019GF106991061051001501001001IA1009KA1999M+01391KA2999N+00721MD1310081+9999MW1051
0037082210999991934102006004+40467-003567FM-12+060099999V0200501N00101220001CN0100001N9+00721+99999102271ADDAY101999GF100991001999999999999999
0074010010999991934111518004+70983-008300FM-12+002399999V0202301N01541002401CN0010001N9+00221+99999099821ADDAA199009091AY161999GF108991081999002501999999IA1159MD1810321+9999MW1451
0070064510999991934090612004+50883+004417FM-12+005599999V0200701N00261220001CN0100001N9+01781+99999102231ADDAY111999GF104991999001999999031001MD1810201+9999EQDQ01+000002SCOTLC
0070104380999991934051406004+51383+009533FM-12+008899999V0201801N00461030001CN0200001N9+00891+00831100991ADDAY111061GF106991041051008001051001IA1009KA1999N+00611MD1610041+9999
0051388040999991934021509004+38567+063183FM-12+018699999V0203601N00101012001CN0040001N9+01001+99999101731ADDAY121999GF108991081051012501999999MD1990141+9999
0037600690999991934041506004+27933-013000FM-12+000599999V0203601N00261220001CN0100001N9+01721+99999101761ADDAY101999GF100991001999999999999999
0057060210999991934041018004+57117+008600FM-12+004699999V0203601N00671015001CN0200001N9+00281+99999101481ADDAY121999GF107991071041017501011001IA1009MD1310061+9999
0011040630999991934070818004+65683-018083FM-12+000799999V0203601N999999999999N9999999N9+99999+99999101821ADDAY101061
0076105100999991934102206004+50350+006950FM-12+018999999V0201401N00101220001CN0200001N9+00501+99999101881ADDAY141061GF100991001001999999001001IA1009KA1999N+00501MD1810161+9999MW1121
0051105770999991934061212004+50817+012883FM-12+010999999V0200201N00461030001CN0200001N9+01721+00501101391ADDAY181061GF107991041081008001061001MD1010021+9999
0070075930999991934100518004+44900+006517FM-12+999999999V0200501N00101220001CN0200001N9+00781+99999100351ADDAY101999GF104991041011012501001001IA1009KA1999M+01281MD1310161+9999
0057100910999991934051718004+54683+013433FM-12+000299999V0202501N00461220001CN0200001N9+01111+99999100691ADDAY121999GF104991021031002501041001IA1009MD1310081+9999
0087370310999991934082204004+44983+041117FM-12+021299999V0202001N00261220001CN0040001N9+01391+99999101941ADDAJ100009199999999AY111999GF101991999001999999041001IA1009KA1999N+01221MD1310101+9999
0029719094999991934020400004+62833-069900FM-12+001699999V0200501N004619999999N0500001N9-03281+99999100851ADDGF100991001999999999999999
0051349290999991934111710004+45033+039650FM-12+003599999V0201401N00101220001CN0040001N9+01001+99999999999ADDAY101999GF101991001001999999001051MD1990081+9999
0065033110999991934050501004+53317-004617FM-12+000899999V0201801N009319999999N0100001N9+00941+00891099841ADDGA1011+999999019GF108991081061002501999999MD1810301+9999MW1601
0111353580999991934102703004+49633+063500FM-12+012199999V0202701N001019999999N0040001N9+00111+99999103201ADDAJ100009199999999AY111999GF100991001001999999001001IA1009EQDQ01+000062SCOTCVQ02+000032APCTENQ03+000002APC3  
0009726810241311934030415004+43567-116217SAO  +0874BOI  V0202251N001512200019N0320001N1+00461+99999999999ADDMW1001
0074100910999991934101906004+54600+013233FM-12+000199999V0202501N004619999999N0040001N9+00781-00611100431ADDAA199001091AY161999GF108991081999999999999999IA1089MD1810021+9999MW1631
0056385070999991934111921004+40000+053000FM-12-000799999V0200901N002619999999N0100001N9+00391+99999102951ADDAY111999GF108991999001999999021001EQDQ01+000002SCOTLC
0051167460999991934062812004+35500+024033FM-12+006399999V0203601N00101220001CN0200001N9+02781+99999100841ADDAY101999GF100991001001999999001001MD1810061+9999
0051123750999991934090812004+52183+020967FM-12+010799999V0202901N00461004501CN0100001N9+02221+01561101511ADDAY111999GF108991061081004501071081MD1610101+9999
0072132750999991934101012004+44817+020417FM-12+013899999V0200201N00101007801CN0040001N9+01501+01441101601ADDAY161999GF108991081081008001999999EQDQ01+000042APCTENQ02+000022APC3  
0081229810999991934062604004+60767+046300FM-12+006399999V0201601N00461012001CN0100001N9+01501+99999100331ADDAA199000391AY161999GF108991081051012501999001IA1089KA1999N+01281MD1990021+9999
0051167460999991934091212004+35500+024033FM-12+006399999V0203601N00671220001CN0200001N9+02721+99999101761ADDAY101999GF101991011011022501001001MD1310101+9999
0051010010999991934092112004+70983-008333FM-12+002399999V0200701N01901012301CN0500001N9+00781+99999099541ADDAY121999GF107991071051012501999001MD1210061+9999
0029104400999991934102712004+51200+010033FM-12+004899999V0209999900671220001CN0200001N9+99999+99999999999ADDGF104991021021012501001999
0051370310999991934040210004+44983+041117FM-12+021299999V0200501N00931004201CN0100001N9+00891+99999101181ADDAY161999GF108991061061004501021999MD1010021+9999
0076101270999991934032518004+53533+008150FM-12+000299999V0203401N00461002401CN0040001N9+00501+00441102251ADDAY121999GF108991999051002501041031IA1009MD1990061+9999EQDQ01+000082SCOTLC
0070101470999991934071006004+53633+010000FM-12+000599999V0203201N00671002401CN0200001N9+01501+01281101841ADDAY121999GF107991071051002501999001IA1009KA1999N+01001MD1310041+9999
0037264980999991934071111004+56267+034333FM-12+019799999V0201401N00261021001CN0100001N9+02111+99999999999ADDAY121999GF107991061071022501071999
0076101200999991934091506004+54183+007883FM-12+001599999V0200901N00671220001CN0100001N9+01611+01331102331ADDAY101999GF102991001001999999001041IA1009MD1810061+9999EQDQ01+000022SCOTLC
0061838340999991934072112004-25400-051467FM-12+112099999V0200901N002619999999N9999999N9+00781+99999102461ADDGF107991999999999999999999KA1999M+01281KA2999N+00611MW1111
0068319960999991934081210004+43733+135267FM-12+000899999V0209991C00001002101CN0040001N9+01781+99999100371ADDAA199001091AY161999GF108991081051002501999999IA1189MD1610021+9999
0072021960999991934090112004+65833+024150FM-12+000999999V0201401N00461012301CN0500001N9+01391+99999102501ADDAY121999GF108991081051012501999999EQDQ01+000032APCTENQ02+000002APC3  
0051106090999991934042000004+49750+006667FM-12+008199999V0201601N00261220001CN0040001N9+00891+99999101321ADDAY111061GF104991041041004501999999MD1310061+9999
0057100060999991934050612004+54600+011150FM-12+999999999V0202701N00101012301CN0040001N9+01501+01061102301ADDAY161999GF108991081061012501999999MD1810021+9999MW1601
0051122810999991934092612004+53567+021000FM-12+004599999V0202701N01231220001CN0100001N9+01611+00721102161ADDAY121999GF104991041021008001001001MD1310061+9999
0051109350999991934041312004+47667+009500FM-12+012299999V0202701N00461220001CN0100001N9+01281+00611101771ADDAY111061GF101991011021008001001011MD1010061+9999
0051122000999991934080618004+53917+014283FM-12+999999999V0200201N00461030001CN0200001N9+01891+99999101301ADDAY121999GF106991021051012501031999MD1310101+9999
0054236310999991934031415004+63933+065067FM-12+004099999V0201401N02261002401CN0040001N9-01001+99999100531ADDAA199000591AY171999GF109991091999999999999999IA1319
0070072570999991934092206004+47050+002650FM-12+017999999V0202501N00261002401CN0040001N9+01391+99999102171ADDAY121999GF108991081051002501999999IA1009KA1999N+01391MD1310041+9999
0099100050999991934061118004+54017+008250FM-12+999999999V0203401N006719999999N0100001N9+01391+99999999999ADDAA199006091AY111999GF106991999001017501061041EQDQ01+000002SCOTLCQ02+000032APCTENQ03+000002APC3  
0037085450999991934030612004+41133-008667FM-12+002599999V0202501N004619999999N0100001N9+01221+99999102301ADDAY111999GF107991041999012501999999
0072838740999991934041112004-26250-048667FM-12+001199999V0209991C000019999999N9999999N9+02221+99999101271ADDAA124005091GF104991999999999999999999KA1999M+02721KA2999N+02001MW1111
0095128820999991934110618004+47567+021617FM-12+013799999V0200901N00261220001CN0040001N9+01891+01441101111ADDAY111999GF104991999001999999031001IA1089KA1999M+01891MD1610061+9999MW1051EQDQ01+000002SCOTLC
0070230320999991934102803004+69717+066800FM-12+001799999V0202501N01231012001CN0040001N9-00111+99999101341ADDAY111999GF108991081051012501999999IA1309KA1999N-00501MD1810141+9999
0043379850999991934082316004+38733+048833FM-12+999999999V0201801N001019999999N0100001N9+02391+99999101951ADDAY111999GF107991999061012501001001IA1009
0043875740999991934011613004-34667-058633FM-12+002599999V0209991C00001220001CN0500001N9+99999+99999999999ADDAY101999GF100991001999999999999999MW1001
0081121160999991934010906004+54450+017000FM-12+001299999V0202301N01231002401CN0040001N9+00111+00061101941ADDAA199001091AY121999GF108991081051002501999999IA1089KA1999N+00001MD1310021+9999
0089074300999991934122906004+45700+002250FM-12+076599999V0209991C00001220001CN0040001N9+00501+99999101851ADDAY101999GF199999061061004501021999IA1089KA1999N+00501MD1310161+9999EQDQ01+000002SCOTCV
0068043350999991934072406004+73483-021567FM-12+000399999V0200901N00461002401CN0020001N9+00111+99999098841ADDAA199000691AY151061GF108991081051002501999999MD1310061+9999MW1511
0037103840999991934030207004+52483+013433FM-12+001799999V0200501N00261000151CN0002001N9+99999+99999999999ADDAY151999GF109991091999999999999999
0087100460999991934110606004+54383+010150FM-12+000999999V0201801N00461004501CN0040001N9+00781+00561099321ADDAA199001091AY121999GF108991061051004501021999IA1009KA1999N+00611MD1810081+9999MW1051
0037010980999991934041406004+70367+031100FM-12+001299999V0202901N02261220001CN0500001N9-00221+99999100801ADDAY181999GF104991021021004501021999
0076101470999991934021406004+53633+010000FM-12+000599999V0202701N00261220001CN0020001N9-00221-00561104081ADDAY101999GF102991001001999999001011IA1189KA1999N-00391MD1810081+9999MW1051
0106387630999991934070303004+38967+056283FM-12+007199999V0209991C00001220001CN0100001N9+02721+99999100571ADDAJ100009199999999AY101999GF100991001001999999001001HL10009IA1009IA2999+02009KA1999N+02221MD1310061+9999
0102071900999991934031506004+48550+007633FM-12+015499999V0202001N00671007801CN0200001N9+00611+99999099441ADDAA199000691AY111999GF107991071061008001999999IA1089KA1999N+00281EQDQ01+000032APCTENQ02+000002APC3  
0018719340999991934032600004+60017-112000FM-12+020399999V0202701N001519999999N9999999N9-01001+99999999999ADDMA1999999100371
0051121860999991934071906004+54033+022517FM-12+005099999V0203201N00461220001CN0200001N9+02111+01671100921ADDAY101999GF101991001001999999001081MD1990041+9999
0057105770999991934092912004+50817+012883FM-12+010999999V0201101N00101220001CN0040001N9+02611+01331102211ADDAY101061GF100991001001999999001001MD1810141+9999MW1051
0116033340999991934021807004+53350-002267FM-12+007099999V0209991C000019999999N0005001N9+00391+00331104141ADDGA1011+999999019GF108991081051004501999999IA1089KA1999M+00671KA2999N+00331MD1810101+9999MW1441EQDQ01+000452PRSWM1
0070330080999991934011012004+52067+023533FM-12+014099999V0203401N004619999999N0010001N9+00111+00061102901ADDAY121999GF108991999061012501001001MD1310141+9999EQDQ01+000042SCOTLC
0051100190999991934042812004+54917+008350FM-12+000599999V0201401N00461007801CN0040001N9+01221+99999101711ADDAY121999GF108991081051008001999999MD1810061+9999
0037043350999991934022106004+73483-021567FM-12+000399999V0202701N00101220001CN0500001N9-03891+99999101511ADDAY101061GF101991001001999999001999
0070125000999991934071206004+50900+015783FM-12+010499999V0200901N00101220001CN0100001N9+01781+00891100701ADDAY111999GF104991021051008001031011IA1009KA1999N+00891MD1810061+9999
0057105130999991934081909004+50983+006900FM-12+001599999V0201401N00101030001CN0040001N9+02221+01561101711ADDAY121031GF108991021051012501071999MD1710101+9999MW1051
0051380620999991934081121004+44850+065450FM-12+012999999V0203401N00101220001CN9999999N9+02001+99999100601ADDAY101999GF100991001001999999001001MD1810041+9999
0070122050999991934042718004+53400+014633FM-12+000199999V0209991C00001220001CN0500001N9+01891+00671101311ADDAY111999GF102991011011012501001011IA1009KA1999M+02221MD1310081+9999
0091076310999991934101118004+43550+001383FM-12+016499999V0209991C00001220001CN0100001N9+01391+99999102811ADDAY101999GF102991001001999999001021IA1009KA1999M+01781EQDQ01+000042APCTENQ02+000022APC3  
0051268500999991934092811004+53783+027567FM-12+022699999V0202901N00931030001CN0040001N9+01501+99999999999ADDAY111999GF106991021011008001011081MD1810041+9999
0037113090999991934091009004+46967+009917FM-12+043899999V0200901N00261004501CN0040001N9+99999+99999999999ADDAY141031GF108991081051004501999999
0071033340999991934121518004+53350-002267FM-12+007099999V0201801N004619999999N0020001N9+00941+00721097161ADDGA1011+999999019GF108991061061002501011999IA1089MD1310181+9999MW1211
0037166750999991934121012004+38900+022433FM-12+999999999V0200701N00101007801CN0100001N9+01221+99999999999ADDAY121999GF107991071071008001001001
0037107090999991934051906004+49633+007817FM-12+006099999V0201401N00461220001CN0040001N9+99999+99999999999ADDAY111061GF106991001001999999001999
0043276480999991934092904004+54967+041750FM-12+013699999V0202301N00461030001CN0000501N9+99999+99999999999ADDAY121999GF107991021051012501011999MW1101
0070234720999991934122919004+65783+087950FM-12+004599999V0200201N002619999999N0000001N9-01891+99999098651ADDAY121999GF108991999001022501021999MD1810041+9999EQDQ01+000002SCOTLC
0043104560999991934121212004+51850+011067FM-12+004199999V0201401N00931220001CN0020001N9+99999+99999999999ADDAY111061GF102991011011008001041999MW1051
0029040480999991934051218004+63400-020283FM-12+012299999V0201401N006719999999N9999999N9+99999+99999100701ADDGF108991999061999999999999
0051121140999991934042506004+54433+016383FM-12+000299999V0201401N00461220001CN0040001N9+00891+00671100381ADDAY111999GF101991001001999999001011MD1310061+9999
0094278150999991934102705004+53567+037050FM-12+024999999V0202701N999999999999N0040001N9+00501+99999102091ADDAA199000591GF199999999051999999999999IA1089KA1999N+00391EQDQ01+000032APCTENQ02+000002APC3  
0037105690999991934070106004+50533+012100FM-12+013799999V0203601N00931220001CN0100001N9+99999+99999999999ADDAY111061GF102991011011017501051999
0091031620999991934060207004+55317-003200FM-12+024299999V0200701N004619999999N0040001N9+00831+00781102891ADDGA1011+999999019GF108991081051000751999999IA1009KA1999M+02281KA2999N+00781MD1310101+9999
0088122000999991934090512004+53917+014283FM-12+999999999V0203601N001019999999N0040001N9+01781+99999102261ADDAY111999GF109991999001022501011051EQDQ01+000002SCOTLCQ02+000032APCTENQ03+000002APC3  
0070076020999991934123006004+43483-001567FM-12+002999999V0201401N00101007801CN0100001N9+01001+99999103091ADDAY101999GF107991061091008001051999IA1109KA1999N+01001MD1310081+9999
0073103120999991934071406004+51933+007650FM-12+001799999V0201401N00101001501CN0010001N9+01721+99999101051ADDAA199002091AY161999GF108991081051001501999999IA1089KA1999N+01501MW1101
0080037770999991934052613004+51350-000117FM-12+006699999V0200701N004619999999N0200001N9+01331+00171102721ADDGA1011+999999019GF104991041071012501001011EQDQ01+000032APCTENQ02+000002APC3  
0051330380999991934070811004+52267+029833FM-12+013799999V0201401N00261012001CN0040001N9+01781+99999100801ADDAY111999GF107991071021012501021999MD1010021+9999
0009726810241311934121615004+43567-116217SAO  +0874BOI  V0202701N001012200019N0064001N1-00311-00371999999ADDMW1111
0091038560999991934071907004+50533-002450FM-12+001099999V0203201N004619999999N0200001N9+01721+01281101641ADDGA1011+999999019GF104991021041008001001011IA1009KA1999M+02671KA2999N+01391MD1310121+9999
0108038140999991934052018004+49950-005200FM-12+007399999V0202301N009319999999N0000501N9+01111+01061102261ADDGA1011+999999019GF108991081051000751999999IA1089MW1441EQDQ01+000032APCTENQ02+000002APC3  Q03+000452PRSWM1
0051101510999991934091415004+53967+010867FM-12+999999999V0200701N00671220001CN0200001N9+02221+99999102691ADDAY101999GF100991001001999999001001MD1810061+9999
0043085060999991934073006004+38533-028633FM-12+006599999V0202501N00671007801CN0040001N9+02221+99999101761ADDAY151999GF107991061999008001999999MW1521
0029719094999991934042105004+62833-069900FM-12+001699999V02099999999999999999N9999999N9+99999+99999999999ADDKA1999M-00391KA2999N-01331
0059030560999991934092913004+56933-004233FM-12+035899999V0202701N006719999999N0200001N9+01111+00671101091ADDGA1011+999999019GF104991021041008001041001MD1310201+9999
0059037950999991934102013004+51083+001017FM-12+010499999V0202501N004619999999N0100001N9+01441+01221101881ADDGA1011+999999019GF108991061051004501071999MD1810041+9999
0061838910999991934022012004-27650-050333FM-12+091099999V0200501N002619999999N9999999N9+01721+99999101901ADDGF104991999999999999999999KA1999M+01891KA2999N+01001MW1111
0057121600999991934081809004+54150+019433FM-12+000299999V0202701N00671004501CN0200001N9+01391+01331101511ADDAY181999GF107991071081004501999999MD1810021+9999MW1801
0051370500999991934020910004+44050+042083FM-12+057399999V0201401N004619999999N0100001N9+00391+99999100861ADDAY111999GF106991001001999999071999MD1990221+9999
0106286610999991934100303004+55450+065150FM-12+007399999V0202901N00461220001CN0100001N9-00391+99999101502ADDAJ100009199999999AY101999GF100991001001999999001001HL10009IA1139IA2999-00509KA1999N-00391MD1310161+9999
0104266660999991934041705004+55200+030200FM-12+015099999V0201801N00261007501CN0040001N9+00501+99999101661ADDAA199000691AJ100009199999999AY111999GF108991081051008001999999IA1089KA1999N+00391MD1810261+9999MW1091
0043161200999991934032506004+44400+008917FM-12+000299999V0200501N02261007801CN0100001N9+01111+99999101431ADDAY151999GF108991081999008001999999MW1201
0094251730999991934032019004+68917-179483FM-12+000999999V0201401N00461220001CN0500001N9-03611+99999103411ADDAY101999GF101991001001999999001011IA1319EQDQ01+000972SCOLCBQ02+000032APCTENQ03+000002APC3  
0051100910999991934091312004+54600+013233FM-12+000199999V0200701N00261220001CN0100001N9+01891+01831103101ADDAY101999GF101991001001999999001021MD1810021+9999
0081104270999991934112506004+51183+008483FM-12+025799999V0203601N00101007801CN0200001N9-00111-00171101751ADDAA199000691AY121061GF108991081051008001999999IA1139KA1999N-00111MD1310041+9999
0061836810999991934080612004-21783-046550FM-12+121099999V0200901N002619999999N9999999N9+01891+99999101581ADDGF100991999999999999999999KA1999M+02391KA2999N+00781MW1111
0076073150999991934051606004+45917-000983FM-12+000499999V0209991C00001220001CN0100001N9+00891+99999100701ADDAY101999GF101991011011008001001001IA1089KA1999N+00501MD1610041+9999MW1051
0065037950999991934122701004+51083+001017FM-12+010499999V0202401N002619999999N0100001N9+00781+00721100891ADDGA1011+999999019GF107991061061004501011999MD1310121+9999MW1211
0091122050999991934030118004+53400+014633FM-12+000199999V0200901N00261007801CN0200001N9+00221-00171101671ADDAY121999GF108991081051008001999999IA1009KA1999M+00391EQDQ01+000042APCTENQ02+000062APC3  
0051385070999991934021509004+40000+053000FM-12-000799999V0201401N00261220001CN0100001N9+00891+99999101371ADDAY101999GF100991001001999999001001MD1810141+9999
0043802520999991934041313004+03900-077067FM-12+000799999V0209991C00001220001CN0500001N9+02501+99999101401ADDAY111999GF104991021999017501999999MW1011
0051010280999991934091312004+74467+019283FM-12+002899999V0200901N00261000151CN0005001N9+00391+99999102041ADDAY161999GF109991091999000251999999MD1310181+9999
0037105150999991934122012004+50350+007567FM-12+005399999V0201401N00261007801CN0040001N9+99999+99999999999ADDAY111061GF107991061061008001031999
0051161200999991934030512004+44400+008917FM-12+000299999V0203601N01901012301CN0100001N9+00891+99999101031ADDAY121999GF108991061051012501021999MD1710101+9999
0087075100999991934031918004+44833-000700FM-12+004899999V0201801N00461004501CN0100001N9+01221+99999099631ADDAA199000591AY161999GF107991061061004501071999IA1109KA1999M+01611MD1710201+9999MW1601
0091075770999991934102418004+44583+004717FM-12+007599999V0202001N00261220001CN0040001N9+01391+99999102101ADDAY101999GF104991021999012501999011IA1009KA1999M+02001EQDQ01+000042APCTENQ02+000062APC3  
0057104100999991934011821004+51400+006950FM-12+003799999V0202301N00671004501CN0200001N9+01001+00941100371ADDAY161031GF108991081051004501999999MD1710061+9999MW1211
0051268500999991934021311004+53783+027567FM-12+022699999V0203601N00671220001CN0100001N9-00891+99999103531ADDAY101999GF100991001001999999001001MD1310221+9999
0108377890999991934022204004+40133+044467FM-12+090799999V0200501N00261220001CN0200001N9-00611+99999999999ADDAY171999GF102991021051008001999999HL10009IA1199IA2999-01119KA1999N+99999MD1210141+9999EQDQ01 -00112ATMN  
0043111820999991934062106004+47800+016233FM-12+026899999V0203201N00931012301CN0040001N9+02001+99999100841ADDAY121061GF108991081051012501999999MW1051
0056122360999991934040812004+53733+018933FM-12+001999999V0201401N00261220001CN0100001N9+99999+99999999999ADDAY101999GF101991999001999999041999EQDQ01+000022SCOTLC
0081076020999991934080406004+43383-001750FM-12+002999999V0202501N01541004501CN0100001N9+01391+99999101531ADDAA199035091AY161999GF107991071091004501999999IA1109KA1999N+01281MD1110101+9999
0051123750999991934040612004+52183+020967FM-12+010799999V0202701N00461007801CN0040001N9+00721+00331100861ADDAY161999GF107991061081008001071001MD1310021+9999
0125384570999991934091502004+41333+069300FM-12+047999999V0201101N00101220001CN0200001N9+01721+99999101241ADDAJ100009199999999AY101999GF101991999001999999041001HL10009IA1009IA2999+00899KA1999N+01281MD1310081+9999EQDQ01+000002SCOTLC
0043105350999991934041406004+50833+008917FM-12+006099999V0200501N00101004501CN0020001N9+00781+00721102111ADDAY141061GF108991081051004501999999MW1051
0091838440999991934060612004-25517-048500FM-12+001099999V0209991C000019999999N9999999N9+01721+99999101481ADDAA124033091GF107991999999999999999999KA1999M+03281KA2999N+99999MW1111EQDQ01 +01782ATMN  
0070339020999991934050611004+46667+032617FM-12+004999999V0200701N012319999999N0040001N9+02221+99999101431ADDAY111999GF106991999001999999071001MD1110021+9999EQDQ01+000002SCOTLC
0070341220999991934051416004+51700+039217FM-12+014999999V0202501N00461220001CN0100001N9+02221+99999100961ADDAY101999GF100991001001999999001001IA1009KA1999M+02501MD1990101+9999
0070288330999991934021715004+53867+059200FM-12+042199999V0202701N01231220001CN0010001N9-00781+99999101511ADDAY111999GF104991001001999999051999IA1319KA1999M-00501MD1810221+9999
0091076070999991934010306004+43900-000500FM-12+006399999V0202701N00261220001CN0100001N9+00001+99999102181ADDAY101999GF102991021051012501001011IA1089KA1999N+00001EQDQ01+000022APCTENQ02+000002APC3  
0051283670999991934073121004+57167+065533FM-12+008099999V0209991C00001030001CN0100001N9+01281+99999101421ADDAY111999GF107991041061002501021051MD1810121+9999
0051038940999991934020212004+49450-002550FM-12+005399999V0200201N01231007801CN0200001N9+00781+99999103511ADDAY111999GF107991071081008001001001MD1990121+9999
0051109350999991934122812004+47667+009500FM-12+012299999V0202701N00101220001CN0040001N9+00721+00501101931ADDAY111061GF102991001001999999031011MD1810261+9999
0076115180999991934092806004+50100+014283FM-12+037199999V0209991C00001220001CN0005001N9+01501+99999102791ADDAY141999GF101991011011017501001011IA1089KA1999N+01281MD1110061+9999MW1421
0057229810999991934122810004+60767+046300FM-12+006399999V0202701N00671007501CN0100001N9-00391+99999102141ADDAY121999GF108991081051008001001001MD1810041+9999MW1361
0051333930999991934052418004+49817+023950FM-12+033099999V0203201N00261220001CN0100001N9+01001+00391101491ADDAY101999GF102991011011012501031001MD1310061+9999
0087360030999991934071214004+52283+076950FM-12+012799999V0200501N00101007501CN0100001N9+01721+99999101271ADDAA199002091AY181999GF107991061021008001061031IA1089KA1999M+02281MD1710101+9999MW1251
0076103840999991934092906004+52483+013433FM-12+001799999V0200901N00101220001CN0040001N9+01221+00781102731ADDAY101999GF100991001001999999001001IA1009KA1999N+01001MD1210121+9999MW1051
0089267020999991934051018004+54733+020567FM-12+000999999V0203201N00261220001CN0100001N9+01501+00831102741ADDAY101999GF101991999001999999011001IA1009KA1999M+02281MD1710041+9999EQDQ01+000002SCOTLC
0037165300999991934080906004+40933+009500FM-12+000299999V0209991C000019999999N0200001N9+02001+99999101371ADDAY121999GF108991021999012501999999
0061225830999991934020504004+64750+047483FM-12+006699999V0201401N00101002101CN0010001N9-01281+99999101271ADDAA199000391AY171999GF108991081051002501999999KA1999N-01281
0070025900999991934050412004+57650+018300FM-12+001199999V0200701N00461220001CN0500001N9+02001+99999101901ADDAY111999GF104991999001999999021001MD1810101+9999EQDQ01+000002SCOTLC
0078119650999991934120606004+49000+021250FM-12+027099999V0202501N01231002401CN0100001N9+00001+99999099691ADDAY161999GF108991081061002501999999MW1611EQDQ01+000042APCTENQ02+000022APC3  
0056228670999991934102004004+61083+042117FM-12+008999999V0201801N00261007501CN0040001N9+00111+99999100871ADDAY121999GF108991081051008001001001IA1089KA1999N+00111
0078100200999991934062618004+55017+008433FM-12+999999999V0202301N00261004501CN0100001N9+01391+99999101581ADDAY121999GF108991081051004501999999IA1009EQDQ01+000032APCTENQ02+000002APC3  
0043103840999991934083004004+52483+013433FM-12+001799999V0202301N00261004501CN0040001N9+99999+99999999999ADDAY161999GF108991081061004501999999MW1631
0087282750999991934071502004+58200+068233FM-12+010099999V0202001N00671220001CN0100001N9+01281+99999101511ADDAJ100009199999999AY111999GF102991001001999999001041IA1089KA1999N+00781MD1990061+9999
0037135860999991934091506004+41983+021467FM-12+024099999V0202701N00101220001CN0200001N9+01611+99999102011ADDAY111999GF102991001999999999999999
0043125600999991934071806004+50233+019033FM-12+030199999V0203601N00461030001CN0100001N9+01781+01561101431ADDAY111999GF107991041061008001071999MW1611
0037166480999991934050412004+39633+022417FM-12+007599999V0209991C00001220001CN0100001N9+02221+99999100961ADDAY121999GF108991001001999999061999
0092062600999991934111918004+52100+005183FM-12+000399999V02099999999999999999N0040001N9+01781+99999999999ADDAA199090091GF199999071081999999001061IA1109KA1999M+04001MD1710141+9999EQDQ01+000001APOSP 
0051264470999991934092912004+56783+027733FM-12+012099999V0203201N00461007801CN0200001N9+01281+99999102661ADDAY111999GF107991071091008001999001MD1310061+9999
0051103380999991934100812004+52417+009750FM-12+001699999V0202001N00261030001CN0200001N9+01781+00891102861ADDAY121999GF107991041051022501071999MD1810201+9999
0091260940999991934121917004+59650+033533FM-12+004999999V0201801N00461012001CN0020001N9-00391+99999102121ADDAY121999GF108991081051012501999999IA1319KA1999M-00391EQDQ01+000032APCTENQ02+000002APC3  
0070229810999991934110216004+60767+046300FM-12+006399999V0201801N00461220001CN9999999N9+00721+99999102931ADDAY111999GF100991001001999999001999IA1089KA1999M+01221MD1310041+9999
0043105480999991934100606004+50550+010367FM-12+013999999V0201801N00101002401CN0100001N9+99999+99999999999ADDAY161061GF108991081061002501999999MW1611
0061836790999991934071112004-21183-047800FM-12+055399999V0209991C000019999999N9999999N9+01391+99999102161ADDGF104991999999999999999999KA1999M+02391KA2999N+01111MW1051
0025726810241311934061819004+43567-116217SAO  +0874BOI  V0203151N010812200019N0400001N1+02411+00851999999ADDGA1999+027009999MW1001
0089298650999991934080901004+53700+091467FM-12+023999999V0202301N001019999999N0040001N9+01221+99999101031ADDAY121999GF107991001999999999999041IA1009KA1999N+01001MD1310021+9999EQDQ01+000052SCOLCG
0089357000999991934031116004+47067+051917FM-12-002199999V0201801N001019999999N0000501N9-00221+99999101751ADDAY121999GF106991001001999999001051IA1109KA1999M+00111MD1610121+9999EQDQ01+000902SCOLCB
0057121160999991934030809004+54450+017000FM-12+001299999V0202301N01231002401CN0040001N9+00281+00061100231ADDAY181999GF107991071061002501999999MD1310121+9999MW1161
0000719164999991934111512004+63333-090717FM-12+000499999V0203201N008719999999N9999999N9-02781+99999101081
0070234050999991934092304004+65483+052167FM-12+003799999V0209991C00001004201CN0100001N9+00111+99999103381ADDAY111999GF107991071061004501999999IA1089KA1999N-00221MD1710121+9999
0062104880999991934041418004+51133+013767FM-12+007099999V0201601N00101030001CN0040001N9+01501+00831101971ADDAY121061GF107991041091008001081011IA1009KA1999M+01781MW1051
0051388800999991934051909004+38000+058300FM-12+025499999V0200701N00931015001CN0200001N9+02501+99999101191ADDAY111999GF106991061021017501061001MD1810161+9999
0087267020999991934102406004+54733+020567FM-12+000999999V0202501N00461220001CN0020001N9+00721+00671101721ADDAA199000691AY121999GF108991001001999999021081IA1089KA1999N+00611MD1310061+9999MW1601
0070122050999991934042918004+53400+014633FM-12+000199999V0200201N00101007801CN0100001N9+01781+01561101751ADDAY121999GF108991081091008001999999IA1009KA1999M+02221MD1810081+9999
0108035310999991934081707004+52483-001933FM-12+016399999V0202301N001019999999N0040001N9+01441+00781102191ADDAA199000391GA1011+999999019GF108991001001999999021999IA1089KA1999M+02001KA2999N+01391MD1310101+9999MW1501
0037077470999991934112118004+42733+002867FM-12+004599999V0202901N02261036001CN0100001N9+00891+99999101971ADDAY121999GF107991011021008001041999
0108031400999991934102307004+55867-004433FM-12+000699999V0202501N004619999999N0200001N9+00501+00281100301ADDAA199002091GA1011+999999019GF104991041081008001001031IA1089KA1999M+01111KA2999N+00441MD1310141+9999MW1051
0070267020999991934092506004+54733+020567FM-12+000999999V0201801N00261015001CN0100001N9+01221+00781100821ADDAY121999GF107991061051017501031999IA1009KA1999N+01001MD1810161+9999
0051105010999991934062715004+50783+006100FM-12+006399999V0202701N00261004501CN0100001N9+02111+01441101871ADDAY121031GF108991081051004501999999MD1810101+9999
0081105490999991934111806004+50850+010467FM-12+027999999V0200501N00461000151CN0000001N9+00221+00171100111ADDAA199003091AY161061GF109991091999000251999999IA1089KA1999N+00111MD1310101+9999
0037339760999991934071305004+45033+035383FM-12+000899999V0202301N00261012001CN0100001N9+99999+99999999999ADDAY111999GF107991061011012501001999
0065039170999991934091718004+54650-006217FM-12+006799999V0201901N006719999999N0500001N9+01331+00671100411ADDGA1011+999999019GF101991011081008001001031IA1089MD1310201+9999
0037378500999991934122510004+40350+049833FM-12-001099999V0201401N00101018001CN0040001N9+00891+99999101981ADDAY151999GF108991999081017501021999
0070108650999991934040906004+48183+011550FM-12+015599999V0202701N00101220001CN0100001N9+00721+00671099841ADDAY111061GF107991001001999999071021IA1009KA1999N+00391MD1610041+9999
0035837820999991934090712004-23933-046150FM-12+000999999V0203201N009319999999N9999999N9+02111+99999100391ADDKA1999M+02501KA2999N+01781MW1051
0097072800999991934112306004+47267+005083FM-12+022399999V0203601N00261220001CN0040001N9-00111+99999999999ADDAY101999GF100991001001999999001001IA1139KA1999N-00111MW1051EQDQ01+000042APCTENQ02+000022APC3  
0043103840999991934020801004+52483+013433FM-12+001799999V0202701N00931002401CN0040001N9+99999+99999999999ADDAY121999GF108991081051002501999999MW1051
0057073150999991934111112004+45917-000983FM-12+000499999V0209991C00001004501CN0040001N9+01001+99999099661ADDAY161999GF108991081081004501999999MD1110021+9999MW1631
0063061930999991934091318004+55283+014767FM-12+007799999V0200701N00461220001CN0040001N9+01721+99999103071ADDAY111999GF104991041051004501001001IA1009MD1810101+9999MW1051
0076103840999991934032312004+52483+013433FM-12+001799999V0209991C00001007801CN0100001N9+00891+00281102031ADDAY121999GF108991061051008001031999MD1410001+9999MW1051EQDQ01+000032APCTEN
0043010100999991934052106004+69317+016133FM-12+000799999V0200901N00101030001CN0200001N9+00611+99999100401ADDAY161999GF108991041061012501021999MW1611
0037600690999991934020506004+27933-013000FM-12+000599999V0203601N00461220001CN0100001N9+01281+99999101891ADDAY101999GF100991001999999999999999
0073249440999991934113011004+60367+120600FM-12+015299999V0202701N004619999999N0040001N9-01391+99999101491ADDAA199000591AY171999GF108991001001999999021999IA1319KA1999M-01281MW1711
0051339830999991934092711004+45367+036317FM-12+000499999V0203401N00671220001CN0100001N9+02001+99999101931ADDAY101999GF104991021041012501011001MD1310341+9999
0051385070999991934111609004+40000+053000FM-12-000799999V0200901N01231220001CN0100001N9+00391+99999103941ADDAY191999GF100991001001999999001001MD1810061+9999
0074206490999991934021715004+73267+056400FM-12+001899999V0200501N012319999999N0002001N9+99999+99999999999ADDAA199000691AY131999GF108991081999999999999999IA1319MD1210101+9999MW1391
0087070160999991934030618004+50150+003267FM-12+009899999V0202301N00931002401CN0040001N9+01001+99999099791ADDAA199002091AY161999GF108991081061002501999999IA1209KA1999M+01001MD1810341+9999MW1611
0051023610999991934080212004+62617+017950FM-12+000999999V0203201N00671220001CN0100001N9+02281+99999101681ADDAY101999GF100991001001999999001001MD1810041+9999
0102031710999991934010307004+56383-002883FM-12+001199999V0202301N002619999999N0200001N9+00561+00501101281ADDAA199000091GA1011+999999019GF106991041071008001001011IA1089KA1999M+00671KA2999N+00331MD1310041+9999
0043108030999991934100812004+48017+007833FM-12+007599999V0203201N00261220001CN0040001N9+99999+99999999999ADDAY101061GF100991001001999999001999MW1051
0037167540999991934052406004+35333+025267FM-12+002699999V0209991C00001012301CN0500001N9+02001+99999101281ADDAY151999GF107991071051012501001999
0070357150999991934122809004+46750+053183FM-12-002899999V0200701N00671002101CN0040001N9+00501+99999102081ADDAY121999GF108991999051002501999011MD1810141+9999EQDQ01+000082SCOTLC
0037106770999991934051912004+50000+011633FM-12+011399999V0203601N00101007801CN0100001N9+99999+99999999999ADDAY121061GF107991061071008001031999
0009726810241311934080108004+43567-116217SAO  +0874BOI  V0201351N001512200019N0240001N1+01461+00631999999ADDMW1001
0092292310999991934030701004+58300+082900FM-12+008099999V0202001N001019999999N0020001N9-01501+99999999999ADDAA199000691AY121999GF108991001001999999021999HL10009IA1319IA2999-02119KA1999N-01501MW1701
0087351080999991934021116004+51200+051367FM-12+003899999V0202301N01541006001CN0005001N9+00001+99999100851ADDAA199001091AY131999GF108991081081002501999999IA1309KA1999M+00001MD1310161+9999MW1381
0037040480999991934121806004+63400-020283FM-12+012299999V0200501N002619999999N9999999N9+00611+99999098671ADDAY111061GF107991071041999999999999
0037080010999991934102818004+43383-008367FM-12+005799999V0203401N00671007801CN0010001N9+01391+99999102031ADDAY121999GF108991081999008001999999
0087339020999991934071505004+46667+032617FM-12+004999999V0203601N00101220001CN0100001N9+02221+99999101381ADDAJ100009199999999AY101999GF100991001001999999001001IA1009KA1999N+01781MD1310021+9999
0051121160999991934112100004+54450+017000FM-12+001299999V0209991C00001030001CN0200001N9+00281+00061103071ADDAY111999GF107991041051008001031001MD1310081+9999
0072102740999991934060912004+53350+012733FM-12+002299999V0203401N00931220001CN0100001N9+02111+01171102161ADDAY111999GF104991041021012501001001EQDQ01+000032APCTENQ02+000002APC3  
0057010280999991934080218004+74467+019283FM-12+002899999V0201601N00931220001CN0500001N9+01111+99999102381ADDAY101999GF100991001001999999001001IA1009MD1810121+9999
0051297420999991934022119004+54650+086650FM-12+999999999V0201801N00261220001CN0040001N9-01281+99999103651ADDAY101999GF100991001001999999001001MD1310101+9999
0102343000999991934102005004+50000+036233FM-12+014899999V0203401N00261002101CN9999999N9+00611+99999101051ADDAA199001091AY121999GF108991081051002501999999IA1089KA1999N+00611EQDQ01+000032APCTENQ02+000002APC3  
0074012620999991934091818004+64800+010550FM-12+003799999V0201801N004619999999N0200001N9+01111+99999101041ADDAA199004091AY161999GF108991041051000251021999IA1089MD1810041+9999MW1601
0051277030999991934051111004+54517+036250FM-12+019199999V0202501N00101075001CN0100001N9+02391+99999101241ADDAY161999GF107991001001999999001021MD1810181+9999
0070286980999991934092114004+54917+073400FM-12+009499999V0209991C000019999999N0100001N9+00611+99999099431ADDAY111999GF108991001001999999021999IA1089KA1999M+00721MD1810221+9999
0078039730999991934042906004+54100-010067FM-12+000599999V0209991C00001007801CN0500001N9+00721+99999102291ADDAY111999GF107991071051008001999999IA1009EQDQ01+000062APCTENQ02+000002APC3  
0068100200999991934020918004+55017+008433FM-12+999999999V0202701N012319999999N0040001N9+00501+99999101531ADDAA199000691AY121999GF108991081999999999999999IA1009MD1810141+9999
0084036550999991934110513004+51933-001250FM-12+012899999V0203601N002619999999N0020001N9+00501+00441100431ADDGA1011+999999019GF108991999051001501021999MD1810141+9999MW1501EQDQ01+000082SCOTLC
0051286790999991934072020004+54883+069117FM-12+013699999V0200501N00261012001CN0040001N9+01221+99999100821ADDAY121999GF108991081051012501999999MD1810061+9999
0059039660999991934060313004+53100-007900FM-12+005799999V0200501N002619999999N0100001N9+02111+01171102701ADDGA1011+999999019GF104991001001999999001011MD1810041+9999
0087357150999991934072703004+46750+053183FM-12-002899999V0200901N00261220001CN0100001N9+02001+99999101061ADDAJ100009199999999AY101999GF104991001001999999001041IA1009KA1999N+01501MD1310021+9999
0081109080999991934091518004+47867+008017FM-12+045599999V0201801N00101090001CN0200001N9+01391+00941100551ADDAA199000691AY121061GF106991011021004501061031IA1009KA1999M+01721MD1310021+9999
0043166060999991934021806004+41083+023567FM-12+002899999V0200501N00261220001CN0020001N9-00391+99999102581ADDAY111999GF102991001001999999041999MW1051
0087071100999991934092406004+48333-004767FM-12+003299999V0202301N01541004501CN0040001N9+01611+99999100741ADDAA199004091AY161999GF107991071061004501999999IA1109KA1999N+01391MD1810201+9999MW1211
0070021960999991934060818004+65833+024150FM-12+000999999V0203601N00671220001CN0500001N9+01391+99999102391ADDAY101999GF100991001001999999999001IA1009KA1999M+01891MD1610021+9999
0076075770999991934122606004+44583+004717FM-12+007599999V0209991C00001000151CN0000001N9+00281+99999101981ADDAY141999GF109991091999000251999999IA1109KA1999N+00281MD1510021+9999MW1471
