0057106850999991935042612004+50300+011867FM-12+017399999V0202701N00101002401CN0040001N9+00611+00561100521ADDAY161061GF108991071061002501021999MD1810021+9999MW1611
0070275530999991935092704004+56333+044000FM-12+015999999V0200901N00461007501CN0040001N9+00891+99999101391ADDAY121999GF108991071051008001001041IA1089KA1999N+00781MD1510021+9999
0057103380999991935051403004+52417+009750FM-12+001699999V0202301N00101220001CN0100001N9+00001-00061101761ADDAY121999GF102991001001999999031051MD1990041+9999MW1051
0108308790999991935081423004+51317+119617FM-12+062699999V0209991C000019999999N0040001N9+01611+99999100661ADDAA199000691AY121999GF108991001001999999071999IA1109KA1999N+01221MW1601EQDQ01+000032APCTENQ02+000002APC3  
0051125390999991935091800004+50267+018667FM-12+007599999V0209991C00001012301CN0100001N9+01501+01441101031ADDAY121999GF106991061051012501999999MD1310141+9999
0076101780999991935101206004+53917+013233FM-12+000299999V0202301N00461220001CN0040001N9+00781+00721101481ADDAY121999GF104991021051012501041999IA1009KA1999N+00721MD1310021+9999MW1051
0009726810241311935081903004+43567-116217SAO  +0874BOI  V0203151N006712200019N0192001N1+02071+00301999999ADDMW1001
0087335870999991935011517004+48750+030217FM-12+021999999V0200701N00101004201CN0010001N9-00221+99999101971ADDAA199000691AY141999GF108991081051004501999999IA1309KA1999M+03111MD1810021+9999MW1101
0057064590999991935012612004+49983+004333FM-12+032899999V0203201N00461001501CN0020001N9+00001+99999098111ADDAY171999GF108991081051001501999999MD1310201+9999MW1221
0057104160999991935102512004+51533+007583FM-12+002199999V0203601N00101004501CN0020001N9+00611+00561101231ADDAY121061GF107991061051004501999999MD1310021+9999MW1051
0057040030999991935072312004+65550-024017FM-12+999999999V0203601N004619999999N9999999N9+00721+99999100311ADDAY161061GF108991081061999999999999MD1310201+9999MW1611
0037122700999991935030506004+53117+020483FM-12+015599999V0200201N00261004501CN0100001N9-00721-01061103401ADDAY101999GF107991071051004501031999
0087123750999991935122118004+52183+020967FM-12+013399999V0200501N00101000601CN0020001N9+00001+99999099581ADDAA199008091AY171999GF108991081061000751999999IA1009KA1999M+00111MD1610081+9999MW1711
0037109720999991935010209004+47883+011983FM-12+014899999V0203601N00101004501CN0020001N9+99999+99999999999ADDAY121999GF108991081051004501999999
0089401000999991935112606004+33867+035450FM-12+007099999V0202901N00101220001CN0200001N9+01611+99999101781ADDAA199009091AY161999GF104991041081022501001001IA1139EQDQ01+000032APCTENQ02+000002APC3  
0043026350999991935090506004+55617+013033FM-12+000699999V0202001N00101030001CN0100001N9+01391+99999099721ADDAY191999GF107991041061004501091999MW1251
0037022960999991935010812004+64467+021567FM-12+003699999V0202001N00261220001CN0500001N9-01111+99999102871ADDAY101999GF102991011051012501041999
0037107620999991935072012004+49300+012833FM-12+012599999V0202701N00461220001CN0200001N9+99999+99999999999ADDAY121061GF102991021021017501001999
0062070280999991935021518004+49517+000117FM-12+001799999V0202501N01541000601CN0020001N9+00891+99999101661ADDAY161999GF108991999051000751061999MW1511EQDQ01+000082SCOTLC
0051100020999991935010712004+53767+006067FM-12+999999999V0201101N01231007801CN0100001N9+00391+00171999999ADDAY121999GF108991081081008001999999MD1310041+9999
0057071100999991935111412004+48333-004767FM-12+003299999V0202301N01541036001CN0100001N9+01221+99999100971ADDAY161999GF108991041061002501021999MD1810101+9999MW1611
0059837500999991935031612004-22517-043183FM-12+085099999V0200501N002619999999N9999999N9+02111+99999101221ADDAA124005091GF102991999999999999999999KA1999N+01891MW1111
0059036270999991935120113004+51917-002583FM-12+006899999V0202801N006719999999N0200001N9+00721+00111098101ADDGA1011+999999019GF104991041081012501001031MD1810041+9999
0076389870999991935102221004+35283+062350FM-12+062799999V0203601N002619999999N0000001N9+00781+99999102501ADDAY161999GF108991999001008001021999MD1990061+9999MW1211EQDQ01+000092SCOTLC
0065030910999991935031018004+57167-002200FM-12+007199999V0200901N006719999999N0200001N9+00441+00061103981ADDGA1011+999999019GF104991041051012501031001IA1009MD1310041+9999
0124230660999991935112201004+69667+084400FM-12+002599999V0200501N00261004201CN0100001N9-02391+99999101261ADDAA199000591AY171999GF108991999061004501041999IA1319KA1999N-02501MW1731EQDQ01+000082SCOTLCQ02+000042APCTENQ03+000042APC3  
0065038280999991935070918004+50483-004100FM-12+019899999V0202301N001019999999N0200001N9+01721+01441101771ADDGA1011+999999019GF101991011021004501001011IA1009MD1810021+9999
0070377890999991935031716004+40133+044467FM-12+090799999V0209991C00001007501CN0200001N9-00111+99999999999ADDAY121999GF108991081051008001999999IA1089KA1999M+00001MD1310041+9999
0068101200999991935111018004+54183+007883FM-12+001599999V0201101N00461220001CN0040001N9+01001+00781101581ADDAA199000691AY111999GF104991041999999999999999IA1009MD1310081+9999
0037105150999991935021812004+50350+007567FM-12+005399999V0209999900261007801CN0100001N9+99999+99999999999ADDAY121061GF108991081051008001999999
0051339940999991935062405004+44617+033533FM-12+000899999V0200501N00101220001CN9999999N9+02501+99999101071ADDAY111999GF101991011011008001001011MD1810161+9999
0009726810241311935082006004+43567-116217SAO  +0874BOI  V0201351N001512200019N0192001N1+01071+00521999999ADDMW1001
0074164200999991935052018004+38200+015550FM-12+005499999V0203601N00261036001CN0100001N9+01721+99999101821ADDAA199000691AY121999GF108991041051012501021999IA1089MD1710061+9999MW1501
0089278570999991935033104004+53500+042617FM-12+013199999V0203401N00261007501CN0100001N9+00001+99999101901ADDAY121999GF108991061051008001071999IA1159KA1999N+99999MD1210061+9999EQDQ01 +00222ATMN  
0108341720999991935091904004+51533+046050FM-12+006699999V0209991C00001000151CN0000501N9+00501+99999102121ADDAA199000691AY141999GF109991091999000251999999IA1089KA1999N+00501MW1451EQDQ01+000042APCTENQ02+000102APC3  
0051220190999991935112811004+69183+033500FM-12+999999999V0201801N00931012001CN0100001N9-00281+99999999999ADDAY121999GF108991081051012501999999MD1010001+9999
0091346550999991935040616004+47650+043167FM-12+005099999V0201401N00261220001CN0020001N9+01111+99999101381ADDAY121999GF102991021011004501999999IA1089KA1999M+01391EQDQ01+000032APCTENQ02+000002APC3  
0059037770999991935042901004+51350-000117FM-12+006699999V0201801N002619999999N0100001N9+00721+00501102851ADDGA1011+999999019GF104991041051017501001001MD1810021+9999
0087124000999991935112306004+51917+015500FM-12+004599999V0200701N00101002401CN0020001N9+00111+00061100641ADDAA199006091AY171999GF108991081051002501999999IA1089KA1999N+00111MD1510021+9999MW1711
0112389870999991935100103004+35283+062350FM-12+062799999V0202001N00261220001CN0040001N9+00891+99999101891ADDAJ100009199999999AY101999GF100991001001999999001001HL10009IA1009IA2999+00229KA1999N+00721MD1310121+9999MW1051
0063855000999991935092512004-29900-071350FM-12+002599999V0200901N001019999999N0100001N9+01111+99999101891ADDAY101999GF108991081091999999999999IA1009MD1310141+9999MW1031
0098284400999991935081503004+56733+060633FM-12+028899999V0209991C00001220001CN0040001N9+01611+99999102061ADDAJ100009199999999AY101999GF101991001001999999001081HL10009IA1009IA2999+01229KA1999N+01281MW1101
0087024640999991935122018004+59350+017950FM-12+001099999V0200901N00461004501CN0010001N9+00111+99999100801ADDAA199000591AY171999GF108991081051004501999001IA1159KA1999M+00221MD1810161+9999MW1681
0037600960999991935012012004+23683-015900FM-12+000699999V0209991C00001220001CN0100001N9+02001+99999999999ADDAY101999GF100991001999999999999999
0076266660999991935031205004+55200+030200FM-12+015099999V0203201N00261007501CN0010001N9-00281+99999103411ADDAY141999GF108991081051008001999999IA1309KA1999N-00281MD1210081+9999MW1441
0072239140999991935091515004+60400+056517FM-12+016499999V0202701N00461012001CN0040001N9+00501+99999100981ADDAY161999GF107991071051012501999999EQDQ01+000032APCTENQ02+000002APC3  
0037085830999991935020912004+16883-024983FM-12+001599999V0200501N00931220001CN0100001N9+02221+99999101741ADDAY121999GF101991011999999999999999
0051225500999991935031710004+64567+040517FM-12+001099999V0202301N004619999999N0040001N9+00111+99999099521ADDAY111999GF107991001001999999051031MD1810101+9999
0087333930999991935072306004+49817+023950FM-12+033999999V0202701N00261002401CN0020001N9+01111+99999101751ADDAA199005091AY161999GF108991081061002501999999IA1089KA1999N+01001MD1310101+9999MW1611
0065037660999991935091418004+51283-000750FM-12+006999999V0202301N009319999999N0100001N9+01671+01221101261ADDGA1011+999999019GF104991041041012501031011IA1009MD1310121+9999
0051354370999991935100109004+46967+055150FM-12+999999999V0201601N01231036001CN0100001N9+01781+99999102331ADDAY131999GF107991011041012501021021MD1810041+9999
0059039730999991935122701004+54100-010067FM-12+000599999V0202701N002619999999N0100001N9+00721+00671097161ADDGA1011+999999019GF107991071051002501001001MD1310061+9999
0051348800999991935102710004+46350+048033FM-12-002599999V0201401N00261220001CN0200001N9+02281+99999101791ADDAY101999GF101991001001999999001021MD1810101+9999
0037121450999991935041312004+54517+018550FM-12+001499999V0202901N00931004501CN0200001N9+00721-00111099831ADDAY121999GF106991061051004501051999
0070335870999991935063005004+48750+030217FM-12+021999999V0202701N009319999999N0040001N9+01611+99999100951ADDAY121999GF107991071001008001041999IA1009KA1999N+01221MD1810021+9999
0087345040999991935112105004+48550+035100FM-12+006299999V0200901N00261220001CN0040001N9-01111+99999103701ADDAJ100009199999999AY101999GF100991001001999999001001IA1009KA1999N-01391MD1810061+9999
0070103370999991935022106004+52150+009750FM-12+002799999V0202001N00931015001CN0100001N9+01111+99999099991ADDAY121999GF108991061051017501021999IA1009KA1999N+00611MD1990101+9999
0072233300999991935092209004+66533+066600FM-12+003599999V0202301N001019999999N0100001N9+00611+99999099991ADDAY121999GF107991021071012501999999EQDQ01+000042APCTENQ02+000022APC3  
0037238040999991935051610004+61667+050850FM-12+012299999V0200201N004619999999N0100001N9+00611+99999103091ADDAY111999GF108991041011012501999999
0074025900999991935122706004+57650+018300FM-12+001199999V0201801N00671002401CN0010001N9+00391+99999100531ADDAA199000591AY121999GF108991081051002501999999IA1089MD1310061+9999MW1101
0072021960999991935120512004+65833+024150FM-12+000999999V0201401N00461015001CN0500001N9+00001+99999100331ADDAY121999GF106991061051017501001001EQDQ01+000042APCTENQ02+000082APC3  
0059037770999991935011713004+51350-000117FM-12+006699999V0203601N006719999999N0020001N9+00721+00331103631ADDGA1011+999999019GF107991071081004501001001MD1810061+9999
0037268320999991935120106004+53850+025333FM-12+014599999V0201401N00461001501CN0020001N9+00111+00061100431ADDAY121999GF108991081051001501999999
0056266140999991935080312004+55083+021800FM-12+000399999V0202901N00461012301CN0200001N9+99999+99999999999ADDAY111999GF106991999051012501001999EQDQ01+000072SCOTLC
0025726810241311935051802004+43567-116217SAO  +0874BOI  V0203381N005712200019N1600001N1+01411+00301999999ADDGA1999+015009999MW1001
0037269390999991935112118004+53017+025750FM-12+017699999V0201601N00671220001CN0100001N9-00501-00831103071ADDAY111999GF104991001001999999021999
0056266990999991935112112004+54783+020617FM-12+000699999V0201401N009319999999N0100001N9-00111-00441102211ADDAY121999GF107991999001022501071999EQDQ01+000002SCOTLC
0051121160999991935012915004+54450+017000FM-12+001299999V0203401N00671220001CN0100001N9-00111-00611101771ADDAY111999GF102991021051004501001001MD1310021+9999
0065037770999991935012613004+51350-000117FM-12+006699999V0203401N012319999999N0040001N9+00391-00171099991ADDGA1011+999999019GF107991071051004501021999MD1310161+9999MW1231
0087266990999991935101706004+54783+020617FM-12+000699999V0202701N00931001501CN0100001N9+01281+01221101501ADDAA199007091AY161999GF108991061061001501021999IA1089KA1999N+01001MD1510041+9999MW1211
0037370310999991935123122004+44983+041117FM-12+021299999V0201601N01231220001CN0040001N9-00611+99999102671ADDAY101999GF100991001001999999001001
0057333450999991935071111004+50450+030500FM-12+018399999V0200501N00101030001CN0040001N9+01611+99999100801ADDAY121999GF107991021021008001071999MD1110081+9999MW1211
0059032620999991935051513004+55017-001417FM-12+003399999V0202701N002619999999N0100001N9+01001+00111101761ADDGA1011+999999019GF107991071041004501999999MD1810301+9999
0129037750999991935111407004+51467-000317FM-12+000599999V0201801N004619999999N0040001N9+00671+00611101081ADDAA124999999GA1011+999999019GF106991041051008001031001IA1089KA1999M+00831KA2999N+00391MW1051EQDQ01+000032APCTENQ02+000002APC3  
0062100060999991935012118004+54600+011150FM-12+999999999V0203601N002619999999N0005001N9+00221+00171102401ADDAA199000691AY151999GF108991081999999999999999MD1810021+9999
0070236780999991935121401004+63167+088017FM-12+005599999V0209991C00001220001CN0100001N9-02391+99999103141ADDAY101999GF100991001001999999001001IA1319KA1999N-02501MD1810101+9999
0025726770240331935050600004+45800-108533SAO  +1088BIL  V0203151N002612200019N0960001N1+01301+00741999999ADDGA1999+009009999MW1001
0071033110999991935123018004+53317-004617FM-12+000899999V0200701N004619999999N0100001N9+00781+00721098051ADDGA1011+999999019GF108991041051008001021999IA1089MD1310141+9999MW1211
0035722265138211935110513004+32383-086300SAO  +0060MXF  V0209991C000010036019N0048001N9+01781+01781999999ADDMA1101861999999REMAWY00810 ST/SW
0037166060999991935050612004+41083+023567FM-12+002899999V0201601N00671220001CN0200001N9+02001+99999102771ADDAY111999GF104991041081999999061031
0009726770240331935121005004+45800-108533SAO  +1088BIL  V0202031N004612200019N1600001N1+00131-00921999999ADDMW1001
0037080010999991935102406004+43383-008367FM-12+005799999V0202501N00461012301CN0100001N9+01221+99999102151ADDAY121999GF108991061999012501999999
0091036010999991935092607004+51683-005167FM-12+004399999V0202001N006719999999N0200001N9+01281+00831101731ADDGA1011+999999019GF107991021051012501021999IA1009KA1999M+01501KA2999N+01171MD1810061+9999
0043071800999991935092212004+48700+006233FM-12+023699999V0202301N00671007801CN0100001N9+02281+99999101301ADDAY121999GF108991071051008001031999MW1621
0080030260999991935050913004+58217-006333FM-12+000399999V0200501N006719999999N0500001N9+01331+00891103331ADDGA1011+999999019GF101991001001999999071001EQDQ01+000032APCTENQ02+000002APC3  
0063202920999991935103112004+77717+104283FM-12+000699999V0202301N012319999999N0002001N9-00781+99999102381ADDAY131999GF108991081051999999999999IA1309MD1710181+9999MW1371
0051352290999991935110321004+50233+057233FM-12+022099999V0209991C00001220001CN0100001N9-00891+99999104731ADDAY101999GF101991001001999999001011MD1810101+9999
0043843900999991935080317004-04567-081267FM-12+008799999V0202301N00261220001CN0500001N9+99999+99999102661ADDAY101999GF100991001999999999999999MW1001
0065033110999991935051401004+53317-004617FM-12+000899999V0203001N009319999999N0040001N9+00891+00671101841ADDGA1011+999999019GF108991071061008001021999MD1810201+9999MW1601
0078286610999991935111709004+55450+065150FM-12+007399999V0203401N00261030001CN0100001N9-00781+99999102671ADDAY171999GF106991011051017501041001MW1701EQDQ01+000032APCTENQ02+000002APC3  
0077167330999991935070106004+37117+026867FM-12+006299999V0203201N00461220001CN9999999N9+02501+99999101291ADDGF100991999001999999001001KA1999N+02221EQDQ01+000032APCTENQ02+000002APC3  
0051103610999991935032215004+52133+011717FM-12+001499999V0202301N00461220001CN0200001N9+01721+00501101371ADDAY111999GF104991021071012501001999MD1810101+9999
0043021200999991935121618004+66950+017750FM-12+033099999V0201401N00101004501CN0000001N9-00501+99999101701ADDAY181999GF108991081061004501999999MW1701
0071036550999991935061818004+51933-001250FM-12+012899999V0202701N004619999999N0200001N9+01721+01281101181ADDGA1011+999999019GF106991061091004501031001IA1089MD1310221+9999MW1161
0095225500999991935122704004+64567+040517FM-12+001099999V0201801N00261012001CN0020001N9-00391+99999102661ADDAY121999GF108991081051012501999999HL10009IA1319IA2999-00729KA1999N-00501MD1210061+9999MW1701
0081343000999991935031205004+50000+036233FM-12+014899999V0202901N00261001201CN9999999N9+00001+99999102901ADDAA199000691AY151999GF108991081051001501999999IA1309KA1999N+00001MD1810021+9999
0072827980999991935021012004-07100-034867FM-12+004799999V0200501N002619999999N9999999N9+02891+99999100901ADDAA124001091GF102991999999999999999999KA1999M+03221KA2999N+02281MW1111
0009726810241311935052415004+43567-116217SAO  +0874BOI  V0202251N003112200019N1600001N1+01461+00581999999ADDMW1001
0057014270999991935061006004+58100+006567FM-12+000999999V0200501N00101220001CN0500001N9+01111+99999102181ADDAY101999GF102991001001999999041021IA1009MD1310101+9999
0037372280999991935050210004+43050+044483FM-12+066899999V0201801N00671090001CN0200001N9+03391+99999100661ADDAY121999GF108991001001999999001071
0056025120999991935053012004+56667+012867FM-12+001099999V0202901N00461220001CN0500001N9+01611+99999100661ADDAY111999GF102991001001999999001999EQDQ01+000982SCOLCB
0051100200999991935042612004+55017+008433FM-12+999999999V0200201N009319999999N0200001N9+01781+99999101231ADDAY111999GF106991041011008001061011MD1990061+9999
0061838620999991935032612004-26850-052400FM-12+080199999V0209991C000019999999N9999999N9+01781+99999101271ADDGF100991999999999999999999KA1999M+02891KA2999N+00781MW1111
0070319600999991935121022004+43117+131917FM-12+012899999V0203401N01541220001CN0200001N9-01721+99999101751ADDAY101999GF100991001001999999001001IA1309KA1999N-01891MD1810141+9999
0081101270999991935040306004+53533+008150FM-12+000299999V0203201N00461004501CN0100001N9+00281-00111100471ADDAA199002091AY161999GF108991081071004501999999IA1089KA1999N+00111MD1310201+9999
0037024120999991935110518004+60167+013783FM-12+019399999V0200901N00931002401CN0100001N9+00221+99999102341ADDAY121999GF109991091999999999999999
0070070160999991935092706004+50150+003267FM-12+009899999V0202001N00671220001CN0040001N9+01221+99999101631ADDAY121999GF107991001001999999071999IA1089KA1999N+01001MD1710081+9999
0063854660999991935071412004-27033-070833FM-12+001499999V0203601N004619999999N0200001N9+01221+99999101431ADDAY101999GF102991021051999999001001IA1009MD1310021+9999MW1001
0051388360999991935121308004+38583+068800FM-12+080099999V0202301N001019999999N0100001N9+00721+99999100421ADDAY121999GF108991001001999999011071MD1810021+9999
0056239140999991935040715004+60400+056517FM-12+016499999V0201801N00261220001CN0100001N9+00781+99999102011ADDAY101999GF100991001001999999001001IA1319KA1999M+00891
0065033790999991935101018004+53033-000500FM-12+006299999V0202401N009319999999N0200001N9+00941+00501100341ADDGA1011+999999019GF101991011051008001001001IA1089MD1310321+9999
0072066300999991935050112004+46950+007483FM-12+057299999V0200501N00671220001CN0200001N9+01111+99999101661ADDAY111999GF102991021081017501001001EQDQ01+000032APCTENQ02+000002APC3  
0072100020999991935021906004+53767+006067FM-12+999999999V0202301N01231012301CN0040001N9+00611+00561999999ADDAY121999GF108991071051012501999999EQDQ01+000032APCTENQ02+000002APC3  
0057266990999991935111109004+54783+020617FM-12+000699999V0201101N002619999999N0020001N9+00501+00441102501ADDAY141999GF106991021051001501999011MD1990061+9999MW1051
0051112310999991935052412004+46667+014333FM-12+044899999V0201801N00101220001CN0500001N9+02221+99999101061ADDAY111061GF104991021011017501001061MD1810021+9999
0051234720999991935012107004+65783+087950FM-12+004599999V0201401N00671220001CN0040001N9+99999+99999100611ADDAY101999GF100991001001999999001001MD1310061+9999
0070343630999991935033104004+50083+045433FM-12+002999999V0200501N00461002101CN0100001N9+00001+99999101461ADDAY121999GF108991061091002501021999IA1159KA1999N-00111MD1210101+9999
0009726770240331935111300004+45800-108533SAO  +1088BIL  V0200451N005112200019N0960001N1-00091-00371999999ADDMW1001
0089119180999991935052206004+48333+019683FM-12+019199999V0203601N00101220001CN0500001N9+01501+99999101841ADDAY101999GF101991999001999999011001IA1009KA1999N+00781MD1710021+9999EQDQ01+000002SCOTLC
0057104680999991935061712004+51833+012200FM-12+001899999V0202301N00101030001CN0200001N9+01501+01281101471ADDAY191061GF107991041051004501071999MD1310061+9999MW1291
0081335870999991935110617004+48750+030217FM-12+021999999V0201401N00461007501CN0040001N9+00891+99999102221ADDAA199000591AY121999GF108991081051008001999999IA1109KA1999M+00891MD1310021+9999
0057104160999991935041703004+51533+007583FM-12+002199999V0209991C00001004501CN0040001N9+00501+00441100151ADDAY161031GF108991061061004501999999MD1110121+9999MW1051
0056128510999991935090106004+47867+020017FM-12+099899999V0202301N00101220001CN0500001N9+01221+01001100911ADDAY101999GF101991999001012501041999EQDQ01+000002SCOTLC
0037104000999991935110812004+51283+006767FM-12+001199999V0202301N00461030001CN0200001N9+99999+99999999999ADDAY121061GF107991021051012501021999
0070129410999991935110418004+46100+018250FM-12+015499999V0200901N00261220001CN0200001N9+00501+99999101821ADDAY101999GF101991001001999999001031IA1009KA1999M+00891MD1610021+9999
0051320610999991935040104004+50900+142167FM-12+001699999V0203201N00261007501CN0100001N9-00611+99999101931ADDAY121999GF107991071051008001001001MD1990061+9999
0091313690999991935071810004+53133+140750FM-12+001799999V0201101N00461220001CN0200001N9+02111+99999100901ADDAY101999GF101991001001999999001011IA1009KA1999M+03221EQDQ01+000032APCTENQ02+000002APC3  
0108037460999991935090907004+51167-001750FM-12+012699999V0201001N001019999999N0040001N9+01171+01111102041ADDAA124999999GA1011+999999019GF108991021051008001021999IA1089KA1999M+01891KA2999N+01061MD1310061+9999MW1631
0051295740999991935080507004+56033+092750FM-12+026899999V0200701N002619999999N0200001N9+02281+99999999999ADDAY101999GF199999011011008001001071MD1810061+9999
0051104100999991935060209004+51400+006950FM-12+003799999V0202501N00461220001CN0040001N9+01611+00941100981ADDAY121031GF107991001001999999071071MD1710081+9999
0037084870999991935081212004+36850-002467FM-12+006599999V0202001N01231220001CN0100001N9+02721+99999100981ADDAY101999GF101991011999012501999999
0037026350999991935122006004+55617+013033FM-12+000699999V0200501N00101004501CN0100001N9-00281+99999100821ADDAY121999GF108991081051004501999999
0070109350999991935032618004+47650+009483FM-12+040099999V0202301N00101220001CN0500001N9+01001+99999102571ADDAY101061GF100991001001999999001001IA1009KA1999M+01221MD1610101+9999
0087128510999991935040718004+47867+020017FM-12+099899999V0202301N00461007801CN0100001N9+00221-00171099831ADDAA199000691AY171999GF107991071051008001999999IA1089KA1999M+00281MD1310021+9999MW1051
0087128400999991935100518004+47517+019017FM-12+013099999V0202701N00261220001CN0500001N9+02221+99999101021ADDAA199000691AY111999GF104991011041012501071999IA1009KA1999M+03001MD1210141+9999MW1251
0037165970999991935103106004+35900+014517FM-12+008599999V0202701N00461220001CN0200001N9+01781+99999102051ADDAY101999GF102991021999008001999999
0051295810999991935061007004+56200+095683FM-12+020499999V0209999999999007501CN0100001N9+01221+99999101391ADDAY171999GF108991061061008001021999MD1310141+9999
0057109350999991935090512004+47667+009500FM-12+012299999V0202501N00931036001CN0200001N9+01611+01331101871ADDAY161061GF108991021061008001071999MD1710021+9999MW1601
0081104690999991935010106004+51400+012217FM-12+004199999V0202701N00671007801CN0100001N9+00611+00561101691ADDAA199012091AY161061GF108991081051008001999999IA1089KA1999N+00611MD1110161+9999
0037128310999991935102106004+47733+018900FM-12+069899999V0201601N00461220001CN0200001N9+01001+00941099111ADDAY161999GF102991011011001501001999
0043025330999991935012606004+58400+013450FM-12+011599999V0203401N00671007801CN0020001N9-00281+99999097411ADDAY171999GF108991081061008001999999MW1711
0083275950999991935022116004+55783+049133FM-12+007099999V0202701N00671220001CN0010001N9-00281+99999100231ADDAY101999GF102991999001999999011001KA1999M-00221MD1310081+9999EQDQ01+000002SCOTLC
0056026720999991935101106004+56650+016450FM-12+000799999V0202301N01901007801CN0200001N9+01111+99999999999ADDAY181999GF106991061091008001999999EQDQ01+000001APOSP 
0051330190999991935032512004+52117+026100FM-12+013799999V0203401N00261007801CN0040001N9+00391+00001102331ADDAY121999GF107991061071008001061999MD1310181+9999
0096066800999991935102006004+47250+009333FM-12+250199999V0202501N00671000151CN0000001N9-00221+99999999999ADDAA199000591AY171999GF109991091999000251999999IA1159KA1999N-00281MA1999999074021MD1710121+9999
0051105130999991935031009004+50983+006900FM-12+001599999V0201101N00931220001CN0100001N9+00001-00721102901ADDAY101031GF100991001001999999001001MD1710041+9999
0057076870999991935081918004+43717+007217FM-12+000399999V0203401N00101007801CN0100001N9+01891+99999101711ADDAY191999GF108991061091008001071031MD1210021+9999MW1801
0029719576999991935122100004+64900-125500FM-12+009199999V0203601N005119999999N0500001N9-01331+99999101391ADDGF106991061999999999999999
0059038040999991935081613004+49933-006300FM-12+005099999V0202001N006719999999N0200001N9+01941+01501102131ADDGA1011+999999019GF107991021081008001071071MD1810021+9999
0072260630999991935030512004+59983+030283FM-12+000599999V0202701N00261220001CN9999999N9-00391+99999103011ADDAY101999GF100991001001999999001001EQDQ01+000032APCTENQ02+000002APC3  
0057060410999991935111606004+57733+010633FM-12+000399999V0201601N00931030001CN0100001N9+00721+99999101401ADDAY121999GF108991041081012501011001IA1009MD1810061+9999
0037024120999991935090918004+60167+013783FM-12+019399999V0203601N00101220001CN0500001N9+00781+99999101901ADDAY111999GF104991041051002501999999
0074265090999991935070418004+55717+021133FM-12+000399999V0202901N00671004501CN0100001N9+01611+99999100561ADDAA199009091AY121999GF108991081051004501999999IA1089MD1810401+9999MW1601
0051103370999991935041809004+52150+009750FM-12+002799999V0202701N00261220001CN0100001N9+01001+99999100711ADDAY111999GF104991021011012501021051MD1110181+9999
0043370500999991935050622004+44050+042083FM-12+057399999V0203201N00101012001CN9999999N9+00611+99999102741ADDGF108991081051012501999999MD1710081+9999
0043026400999991935072306004+56383+014817FM-12+017399999V0202901N00461220001CN0200001N9+01611+99999101841ADDAY101999GF100991001001999999001999MW1051
0108036270999991935081807004+51917-002583FM-12+006899999V0202301N002619999999N0040001N9+01441+01391101771ADDAA199000391GA1011+999999019GF108991021061008001021999IA1089KA1999M+02331KA2999N+01391MD1810041+9999MW1601
0095307100999991935020500004+52333+104217FM-12+043799999V0209991C00001220001CN0002001N9-02891+99999104141ADDAY101999GF100991001001999999001001HL10009IA1319IA2999-03509KA1999N-03001MD1810081+9999MW1441
0051260630999991935060212004+59983+030283FM-12+000599999V0202501N004619999999N9999999N9+00501+99999100291ADDAY181999GF107991041021012501001031MD1990021+9999
0056315100999991935042410004+50267+127500FM-12+014399999V0201801N00931220001CN0040001N9+00891+99999100902ADDAY111999GF104991041041008001001031EQDQ01+100903APOSLP
0051100460999991935101315004+54383+010150FM-12+000999999V0202501N00461030001CN0040001N9+01281+00831102561ADDAY111999GF107991021011008001031031MD1810041+9999
0081105440999991935100406004+50500+009933FM-12+028299999V0201601N00931007801CN0200001N9+00891+00831098641ADDAA199002091AY121061GF107991061051008001021999IA1089KA1999N+00781MD1610021+9999
0067166750999991935091918004+38900+022433FM-12+999999999V0203201N015419999999N0200001N9+02281+99999999999ADDAA199001091AY191999GF106991061061999999001001IA1089KA1999M+03391
0068249440999991935120923004+60367+120600FM-12+015299999V0202501N009319999999N9999999N9-02781+99999999999ADDAA199000391AY131999GF108991999999999999999999MD1810061+9999MW1711
0057104880999991935102721004+51133+013767FM-12+007099999V0202501N00461001501CN0040001N9+00721+00671099991ADDAY161031GF108991081061001501999999MD1810521+9999MW1631
0051375450999991935072010004+41717+044800FM-12+040999999V0201101N00101220001CN0100001N9+03391+99999100371ADDAY101999GF100991001001999999001001MD1710181+9999
0044719031999991935043013004+61300-064883FM-12+003999999V0201401N002119999999N0060001N9-00171+99999999999ADDGF108991081999999999999999MA1999999100471
0037025500999991935072612004+57783+014167FM-12+009899999V0202301N00671220001CN0200001N9+02111+99999100881ADDAY111999GF104991021081012501001999
0070348800999991935050410004+46350+048033FM-12-002599999V0201401N00461220001CN0100001N9+02391+99999100861ADDAY111999GF104991001001999999001051MD1710141+9999EQDQ01+000982SCOLCB
0070029110999991935071506004+63083+021617FM-12+000999999V0201401N00261220001CN0500001N9+02111+99999101651ADDAY101999GF100991001001999999001001IA1009KA1999N+01391MD1810141+9999
0057330190999991935102312004+52117+026100FM-12+013799999V0200201N00261002401CN0040001N9+00611+00391101531ADDAY151999GF108991081061002501999999MD1310101+9999MW1211
0037334150999991935042812004+49550+025600FM-12+031899999V0202701N00461002401CN0100001N9+01281+00611100781ADDAY121999GF107991061081002501001999
0068101200999991935122506004+54183+007883FM-12+001599999V0201401N00931004501CN0100001N9+00221+00001101591ADDAA199002091AY171999GF108991081051004501999999IA1089MD1710181+9999
0009722860231191935032416004+33900-117250SAO  +0466RIV  V0203201N002612200019N0320001N9+00781+99999999999ADDMW1001
0037074880999991935082706004+45167+005733FM-12+032499999V0209991C00001220001CN0200001N9+01721+99999101531ADDAY101999GF100991001999999999999999
0037334150999991935113006004+49550+025600FM-12+031899999V0209991C00001004501CN0040001N9+00111+00061101671ADDAY121999GF108991081051004501999999
0057100190999991935040612004+54917+008350FM-12+000599999V0202901N00931004501CN0200001N9+00501+99999099791ADDAY181999GF107991061031004501061031MD1810041+9999MW1251
0065032620999991935012513004+55017-001417FM-12+003399999V0202701N009319999999N0040001N9+00111+00061097981ADDGA1011+999999019GF104991041021008001001001MD1810361+9999MW1261
0051100670999991935082618004+54500+011250FM-12+000399999V0200901N00671030001CN0100001N9+01721+99999101001ADDAY111999GF106991021051004501071999MD1810061+9999
0051100100999991935062406004+54550+007883FM-12+999999999V0200901N00461220001CN0200001N9+01781+01561999999ADDAY101999GF101991011071022501081001MD1810041+9999
0057370000999991935083016004+44733+037650FM-12+003799999V0200201N00931220001CN0040001N9+02391+99999101331ADDAY111999GF100991001001999999001001IA1009MD1310021+9999
0051106850999991935051812004+50300+011867FM-12+017399999V0201101N00261004501CN0100001N9+00781+00561101011ADDAY121061GF107991061081004501021999MD1990061+9999
0063010980999991935082606004+70367+031100FM-12+001299999V0201401N002619999999N0002001N9+00781+99999102081ADDAY141999GF199999999999000251999999IA1089MD1210041+9999MW1451
0037024120999991935033006004+60167+013783FM-12+019399999V0202901N00671220001CN0500001N9-00221+99999101991ADDAY111999GF107991001001999999001999
0054325400999991935032708004+53000+158483FM-12+011399999V0201801N01231030001CN0020001N9-00221+99999100661ADDAA199000691AY121999GF108991021061008001021999IA1319
0051024640999991935062512004+59350+017950FM-12+001099999V0202301N00261220001CN0200001N9+03001+99999101901ADDAY101999GF101991011011012501001001MD1810141+9999
0070306830999991935050411004+53967+121933FM-12+050899999V0203601N00101220001CN0200001N9+00891+99999999999ADDAY121999GF100991001001999999001001IA1139KA1999M+01281MD1810061+9999
0056108680999991935030806004+48250+011550FM-12+014899999V0200201N00461220001CN0100001N9-00891-01391103391ADDAY111061GF104991041051017501031001IA1209KA1999N-01111
0065033790999991935112213004+53033-000500FM-12+006299999V0200501N004619999999N0040001N9+00721+00671101311ADDGA1011+999999019GF107991021051004501031999MD1310021+9999MW1051
0057103840999991935010909004+52483+013433FM-12+001799999V0200901N00261220001CN0100001N9-01221-01561103351ADDAY111999GF102991021061004501001001MD1110081+9999MW1711
0057105350999991935122706004+50833+008917FM-12+006099999V0202301N00101220001CN0040001N9+00221+00171100201ADDAY101061GF100991001001999999001001MD1310061+9999MW1051
0056167100999991935070706004+37517+022350FM-12+066599999V0209991C00001220001CN0200001N9+02391+99999101111ADDAY111999GF100991001001999999001001IA1009KA1999N+01611
0065033340999991935081118004+53350-002267FM-12+007099999V0202701N004619999999N0200001N9+02171+01221101051ADDGA1011+999999019GF107991021041008001091999IA1009MD1810101+9999
0037269390999991935081512004+53017+025750FM-12+017699999V0201801N00461220001CN0200001N9+02891+01891100471ADDAY111999GF104991021071012501021999
0078161200999991935042612004+44400+008917FM-12+000299999V0201401N00671036001CN0040001N9+01611+99999999999ADDAY121999GF106991041031008001031999MW1051EQDQ01+000032APCTENQ02+000002APC3  
0037022260999991935011618004+63183+014650FM-12+032199999V0201401N004619999999N9999999N9-00391+99999102971ADDAY171999GF108991999999999999999999
0043372280999991935050710004+43050+044483FM-12+066899999V0202901N00261007501CN0200001N9+00611+99999999999ADDAY161999GF108991071061008001071999MW1601
0065033010999991935110113004+53217-003000FM-12+005299999V0202001N006719999999N0040001N9+00831+00611100281ADDGA1011+999999019GF106991061091012501071001MD1310221+9999MW1801
0037103840999991935091314004+52483+013433FM-12+001799999V0202701N00671030001CN0200001N9+99999+99999999999ADDAY121999GF108991021011012501071999
0078338370999991935052717004+46483+030733FM-12+006599999V0203201N00931220001CN9999999N9+02111+99999101071ADDAY111999GF104991001001999999041071IA1009EQDQ01+000042APCTENQ02+000082APC3  
0111355420999991935092803004+48617+061267FM-12+012799999V0209991C00001220001CN0100001N9+00781+99999102121ADDAJ100009199999999AY171999GF100991001001999999001001HL10009IA1009IA2999+00009KA1999N+00611EQDQ01+000012SCOTCV
0070121140999991935060818004+54433+016383FM-12+000299999V0203201N00461220001CN0040001N9+01721+00831101641ADDAY111999GF102991999001022501031001MD1510021+9999EQDQ01+000002SCOTLC
0070104380999991935100306004+51383+009533FM-12+008899999V0202501N00101030001CN0100001N9+00721+00671099771ADDAY111061GF106991041051012501021999IA1009KA1999N+00221MD1810141+9999
0025725115147111935051020004+40200-076767SAO  +0097MDT  V0202251N001512200019N0160001N1+02241+01521099911ADDGA1999+009009999MW1001
0051260940999991935070111004+59650+033533FM-12+004999999V0202901N00261220001CN0100001N9+01891+99999101651ADDAY111999GF104991041011012501001001MD1310061+9999
0048837360999991935071212004-22100-045017FM-12+087299999V0209991C000019999999N9999999N9+01111+99999102541ADDGF108991999999999999999999KA1999M+02391MW1401
0040719340999991935062607004+60017-112000FM-12+020399999V02099999999999999999N9999999N9+99999+99999999999ADDAA124000691KA1999M+02111KA2999N+00441
0065035780999991935110713004+52367+000467FM-12+000599999V0201101N002619999999N0100001N9+00891+00671100041ADDGA1011+999999019GF108991011011008001021999MD1810341+9999MW1601
0057104160999991935120500004+51533+007583FM-12+002199999V0202301N006719999999N0020001N9+00221+00171099631ADDAY161061GF108991041061001501999999MD1310061+9999MW1611
0037128510999991935110512004+47867+020017FM-12+099899999V0201101N00101007801CN0200001N9+00001-00061099771ADDAY111999GF108991081051008001999999
0123349290999991935102004004+45033+039650FM-12+003599999V0202001N00101220001CN0010001N9+00611+99999999999ADDAA199002091AJ100009199999999AY101999GF101991011051004501001001HL10009IA1109IA2999+00289KA1999N+00501MD1310201+9999MW1121
0051125000999991935061609004+50900+015783FM-12+010499999V0202701N00461012301CN0200001N9+01781+00561101301ADDAY111999GF106991061041012501011001MD1310121+9999
0057014030999991935040906004+59300+004883FM-12+005799999V0201101N00931030001CN0500001N9+00281+99999100111ADDAY121999GF108991041051012501021999IA1009MD1810181+9999
0057278150999991935101311004+53567+037050FM-12+024999999V0203201N00671002101CN0100001N9+00891+99999102091ADDAY121999GF108991071061002501021999MD1310101+9999MW1211
0072835870999991935100412004-19933-043933FM-12+091599999V0203201N002619999999N9999999N9+02111+99999101391ADDAA124004091GF107991999999999999999999KA1999M+03221KA2999N+01781MW1111
0110279950999991935030904004+53000+049417FM-12+999999999V0202001N00261002401CN0100001N9-01221+99999103301ADDAY121999GF109991091051008001999999HL10009IA1309IA2999-01789KA1999N-01501EQDQ01+000032APCTENQ02+000002APC3  
0081107270999991935123106004+49017+008383FM-12+003599999V0202301N00671012301CN0500001N9+00891+00281100971ADDAA199000691AY161061GF107991061051012501011999IA1089KA1999N+00391MD1310061+9999
0108264220999991935091118004+56983+024083FM-12+000299999V0202301N00261004501CN0100001N9+01111+99999101381ADDAA199011091AY161999GF108991081091004501999999IA1089KA1999M+01501MW1271EQDQ01+000032APCTENQ02+000002APC3  
0070352290999991935040915004+50233+057233FM-12+022099999V0200501N00101075001CN0100001N9+00221+99999102651ADDAY111999GF108991001001999999001071IA1199KA1999M+00891MD1810021+9999
0037022960999991935010112004+64467+021567FM-12+003699999V0203201N00931012301CN0100001N9-00281+99999100831ADDAY121999GF108991081061012501999999
0051388360999991935111508004+38583+068800FM-12+080099999V0202701N002619999999N0200001N9+00781+99999100761ADDAY121999GF108991001001999999031071MD1310061+9999
0070073150999991935052218004+45917-000983FM-12+000499999V0200501N00671220001CN0100001N9+01781+99999100491ADDAY111999GF102991021011008001001001IA1089KA1999M+02001MD1810061+9999
0081076020999991935111906004+43383-001750FM-12+002999999V0201801N00261220001CN0200001N9+01281+99999100701ADDAA199000691AY121999GF108991001001999999021999IA1109KA1999N+00781MD1610101+9999
0051100050999991935012512004+54017+008217FM-12+999999999V0202501N019019999999N0100001N9+00501+00441999999ADDAY121999GF108991021001017501031999MD1810281+9999
0065030560999991935031718004+56933-004233FM-12+035899999V0209991C000019999999N0040001N9+00501+00281100981ADDGA1011+999999019GF108991041041002501021999IA1009MD1310161+9999
0073298650999991935111301004+53700+091467FM-12+023999999V0201401N002619999999N0020001N9-01721+99999104101ADDAA199000591AY171999GF108991001001999999011999IA1309KA1999N-01891MW1711
0059031000999991935080213004+56483-006867FM-12+000999999V0203401N002619999999N0200001N9+01561+01111102491ADDGA1011+999999019GF104991041071008001041001MD1310041+9999
0037124900999991935032206004+51550+021850FM-12+012199999V0202701N00261004501CN0040001N9+00391+00171102011ADDAY121999GF107991071051004501999999
0070286420999991935111015004+55150+061150FM-12+022799999V0203601N00101220001CN0040001N9-00891+99999104711ADDAY101999GF102991001001999999001071IA1009KA1999M-00391MD1810081+9999
0057102700999991935030512004+52917+012800FM-12+001499999V0202001N00101220001CN0040001N9-00111-00611999999ADDAY101999GF101991001001999999001011MD1990081+9999MW1051
0057265090999991935092106004+55700+021133FM-12+000199999V0202901N01901004501CN0100001N9+01501+01061100911ADDAY121999GF108991081041004501999999IA1009MD1310181+9999
0037347270999991935061704004+46717+038267FM-12+000399999V0200201N00461220001CN0040001N9+99999+99999999999ADDAY101999GF101991001001999999041999
0029719660999991935020112004+64067-139483FM-12+032499999V0203601N013419999999N0500001N9-01561+99999100341ADDGF100991001999999999999999
0043025840999991935111006004+58383+019183FM-12+001299999V0202301N00461007801CN0010001N9+00781+99999101801ADDAY121999GF108991081051008001999999MW1101
0038722860231191935082117004+33900-117250SAO  +0466RIV  V0203201N002112200019N0400001N9+03331+99999999999ADDMW1001REMAWY020CU OVR MTNS NW TO SE
0051010550999991935011212004+71067+024150FM-12+000499999V0202501N01541024001CN0500001N9+00391+99999098971ADDAY121999GF107991041051008001021999MD1210301+9999
0106225500999991935121104004+64567+040517FM-12+001099999V0203401N00261007501CN0020001N9-00111+99999103351ADDAA199001091AY121999GF108991081001008001021999HL10009IA1319IA2999-00399KA1999N-00391MD1210021+9999MW1711
0056105440999991935072506004+50500+009933FM-12+028299999V0201101N00671220001CN0200001N9+01611+00941100921ADDAY101061GF102991021081012501001001IA1009KA1999N+01281
0108033340999991935031407004+53350-002267FM-12+007099999V0200701N002619999999N0020001N9+00221+00171102301ADDAA199000091GA1011+999999019GF107991071051008001999999IA1089KA1999M+00941KA2999N+00001MD1810161+9999MW1051
0051108660999991935062412004+48183+011550FM-12+052099999V0200501N00461220001CN0200001N9+02721+99999101381ADDAY101061GF104991021081012501081011MD1810081+9999
0057060110999991935042806004+62050-006750FM-12+002699999V0202901N00461001501CN0200001N9+00891+99999102521ADDAY121999GF108991081051001501001001IA1009MD1810021+9999
0034726810241311935020220004+43567-116217SAO  +0874BOI  V0203151N002610015019N0024001N1-00421+99999100831ADDMW1041MW2451EQDQ01+027052ATOD  
0051279950999991935062410004+53000+049417FM-12+999999999V0203401N00461220001CN0100001N9+02221+99999101021ADDAY101999GF100991001001999999001001MD1610101+9999
0073107280999991935011406004+49567+008467FM-12+002999999V0201601N00261007801CN0020001N9+00001+99999101361ADDAA199000391AY171061GF108991081051008001999999IA1309KA1999N-00391MW1701
0070071500999991935012512004+48950+002433FM-12+004699999V0202301N01541004501CN0100001N9+00781+99999100191ADDAY121999GF108991061061004501021999MD1810682+9999EQDQ01+000682APC3  
0061838440999991935080112004-25517-048500FM-12+001099999V0209991C000019999999N9999999N9+01611+99999102021ADDGF104991999999999999999999KA1999M+02111KA2999N+01281MW1111
0062100060999991935091106004+54600+011150FM-12+999999999V0202501N00671012301CN0100001N9+01391+00941102201ADDAA199000691AY121999GF108991081041012501999999MD1310061+9999
0051073150999991935123012004+45917-000983FM-12+000499999V0202301N01231004501CN0100001N9+01001+99999100701ADDAY161999GF106991061081004501001001MD1810041+9999
0093010280999991935053118004+74467+019283FM-12+002899999V0203201N012319999999N0040001N9-00391+99999101211ADDAA199000391AY171999GF108991999051999999021999IA1309MD1810141+9999MW1711EQDQ01+000092SCOTLC
0051101310999991935072912004+53867+008717FM-12+000199999V0203201N01901007801CN0040001N9+01281+99999100821ADDAY121999GF106991061091008001001001MD1310061+9999
0102033340999991935021607004+53350-002267FM-12+007099999V0202601N012319999999N0100001N9+01061+00831099891ADDAA199012091GA1011+999999019GF108991061061004501021999IA1109KA1999M+01111KA2999N+01001MD1810041+9999
0089067700999991935070818004+46000+008950FM-12+027699999V0201801N00101220001CN0100001N9+02221+99999101761ADDAY101999GF102991999001999999041001IA1009KA1999M+02501MD1990081+9999EQDQ01+000002SCOTLC
0043104340999991935020206004+51533+009017FM-12+006199999V0203201N01901007801CN0010001N9+99999+99999999999ADDAY161061GF108991081061008001999999MW1631
0043378500999991935102916004+40350+049833FM-12-001099999V0203201N00461220001CN0100001N9+02001+99999100511ADDAY111999GF100991001001999999001001IA1009
0081167100999991935083106004+37517+022350FM-12+066599999V0209991C00001220001CN0500001N9+02611+99999999999ADDAY101999GF100991001001999999001001IA1009KA1999N+01721MW1101EQDQ01+000902SCOLCB
0068012030999991935081106004+62033+004983FM-12+004199999V0200901N00461012301CN0200001N9+01001+99999100401ADDAA199005091AY161999GF108991071051012501071999IA1089MD1310081+9999
0037025820999991935021112004+58733+017867FM-12+001399999V0202701N00461030001CN0500001N9-00111+99999101111ADDAY121999GF108991011021008001041999
0037353580999991935081421004+49633+063500FM-12+012199999V0201401N00261220001CN0100001N9+02391+99999101941ADDAY111999GF104991041051022501999999
0091296120999991935100114004+55350+078400FM-12+012099999V0202501N00101220001CN0100001N9+01221+99999102941ADDAY101999GF101991011051012501001001IA1009KA1999M+01781EQDQ01+000042APCTENQ02+000042APC3  
0076236780999991935030507004+63167+088017FM-12+005599999V0202901N019019999999N0040001N9-01221+99999101061ADDAY131999GF108991001001999999071999MD1210542+9999MW1361EQDQ01+000542APC3  
0063856800999991935013012004-36700-073100FM-12+008499999V0202301N006719999999N0200001N9+01391+99999101801ADDAY101999GF102991001001999999001091IA1009MD1310041+9999MW1001
0051105010999991935082700004+50783+006100FM-12+006399999V0202301N00671004501CN0040001N9+01721+01501100521ADDAY121061GF108991081051004501999999MD1810141+9999
0051363350999991935100714004+49417+075467FM-12+087399999V0202001N00261090001CN0040001N9+01111+99999999999ADDAY121999GF107991041041012501001031MD1310061+9999
0060372600999991935121416004+42983+040967FM-12+000899999V0201801N00261002101CN9999999N9+01221+99999101901ADDAA199002091AY161999GF108991999061002501021999IA1109MW1621
0057249590999991935010704004+62017+129750FM-12+010999999V0209991C000019999999N0002001N9-04501+99999102541ADDAY171999GF108991001001999999021999MD1210081+9999MW1461
0051167460999991935061712004+35500+024033FM-12+006399999V0203601N00101220001CN0200001N9+02501+99999101441ADDAY101999GF100991001001999999001001MD1810041+9999
0009726810241311935052420004+43567-116217SAO  +0874BOI  V0203151N006712200019N1600001N1+02301-00261999999ADDMW1001
0051266660999991935112611004+55200+030200FM-12+015099999V0201601N01901004201CN0040001N9-00611+99999102211ADDAY171999GF108991081051004501999999MD1990041+9999
0057121950999991935072912004+54083+022933FM-12+017699999V0202501N01901002401CN0020001N9+01501+00831099371ADDAY181999GF108991081081002501999999MD1810021+9999MW1801
0076222160999991935081917004+67583+033700FM-12+999999999V0201801N00261004201CN0200001N9+00891+99999101551ADDAY121999GF108991071061004501021999IA1089KA1999M+01111MD1810021+9999MW1161
0037125600999991935011618004+50233+019033FM-12+030199999V0203201N00261001501CN0020001N9-00221-00281102831ADDAY141999GF108991081051001501999999
0089074700999991935071906004+45050+003883FM-12+071599999V0209991C000019999999N0100001N9+01611+99999101431ADDAY121999GF107991041061004501999999IA1009KA1999N+01501MD1110061+9999EQDQ01+000202WODIR 
0065037750999991935060818004+51467-000317FM-12+000599999V0202501N004619999999N0200001N9+01671+00441101861ADDGA1011+999999019GF104991041011012501001001IA1089MD1310161+9999
0057296340999991935061707004+54967+082950FM-12+013399999V0200701N00671220001CN0040001N9+02501+99999101411ADDAY101999GF100991001001999999001001MD1990061+9999MW1051
0108228200999991935032317004+61783+034383FM-12+006799999V0200901N00931001201CN0002001N9-00391+99999100411ADDAA199000591AY131999GF108991081031001501999999IA1109KA1999M-00391MW1731EQDQ01+000022APCTENQ02+000002APC3  
0037110090999991935090906004+48183+014033FM-12+031999999V0202701N00101220001CN0200001N9+00781+99999102991ADDAY101061GF100991001001999999001001
0037270370999991935022510004+59233+039883FM-12+012499999V0202501N02261030001CN0040001N9+00221+99999100231ADDAY121999GF106991041051008001031999
0081029750999991935071618004+60250+025033FM-12+001599999V0202001N00261220001CN0200001N9+01781+99999100811ADDAA199008091AY111999GF106991001001999999041081IA1009KA1999M+02221MD1810021+9999
0057339020999991935111817004+46667+032617FM-12+004999999V0200501N00261220001CN0040001N9+00001+99999102791ADDAY111999GF100991001001999999001001IA1009MD1110021+9999
0070072070999991935032118004+47300-003267FM-12+004599999V0201601N00461220001CN0100001N9+01001+99999101781ADDAY121999GF104991041051002501081061IA1089KA1999M+01221MD1410001+9999
0106070050999991935102806004+50133+001850FM-12+007199999V0202501N01231002401CN0040001N9+01391+99999101261ADDAA199002091AY161999GF108991081061002501999999IA1199KA1999N+99999MD1410001+9999MW1211EQDQ01 +03112ATMN  
0043029170999991935101006004+62917+027667FM-12+023399999V0202001N00461004501CN0005001N9+00891+99999100541ADDAY141999GF108991081051004501001999MW1421
0051103380999991935012703004+52417+009750FM-12+001699999V0200201N00101012301CN0100001N9+00001-00061099791ADDAY171999GF108991081051012501999999MD1310221+9999
0029719660999991935092600004+64067-139483FM-12+032499999V0202701N006219999999N9999999N9+00501+99999101861ADDGF104991041999999999999999
0076103630999991935050706004+52000+012983FM-12+003199999V0209991C00001220001CN0040001N9+01281+00831101941ADDAY111999GF106991001001999999001081IA1009KA1999N+00781MD1810101+9999MW1051
0037074890999991935041018004+45300+005867FM-12+115499999V0209991C00001220001CN0200001N9+02001+99999102071ADDAY101999GF100991001999999999999999
0051100020999991935042906004+53767+006067FM-12+999999999V0203401N00671007801CN0100001N9+00781+00561999999ADDAY161999GF108991081091008001999999MD1310021+9999
0009726810241311935011605004+43567-116217SAO  +0874BOI  V0201351N004112200019N0160001N1+00131-00371099711ADDMW1001
0072833390999991935020412004-14067-042317FM-12+086999999V0200901N002619999999N9999999N9+02281+99999101581ADDAA124015091GF104991999999999999999999KA1999M+02611KA2999N+01611MW1111
0009722860231191935103021004+33900-117250SAO  +0466RIV  V0202901N008712200019N0400001N9+01611+99999999999ADDMW1001
0077167490999991935110906004+36433+028250FM-12+008899999V0202901N00461220001CN9999999N9+01891+99999101861ADDGF102991999001999999011001KA1999N+01781EQDQ01+000032APCTENQ02+000002APC3  
0057101510999991935072903004+53967+010867FM-12+999999999V0202501N00671007801CN0100001N9+01111+99999100461ADDAY181999GF106991061031008001999999MD1810121+9999MW1251
0017249340999991935051823004+60533+116233FM-12+015099999V0203201N001019999999N9999999N9+00721+99999999999ADDMD1310181+9999
0061837290999991935060812004-22900-047067FM-12+066599999V0209991C000019999999N9999999N9+01891+99999101901ADDGF102991999999999999999999KA1999M+02721KA2999N+01281MW1111
0070348800999991935110210004+46350+048033FM-12-002599999V0200501N00931220001CN0100001N9+00221+99999104031ADDAY111999GF102991999001022501061999MD1210021+9999EQDQ01+000002SCOTLC
0051298380999991935082507004+53333+083800FM-12+015899999V0200201N00261220001CN0100001N9+02001+99999101811ADDAY101999GF100991001001999999001001MD1710141+9999
0106346550999991935011704004+47650+043167FM-12+005099999V0201101N01901004201CN0000501N9-01001+99999999999ADDAA199000391AY131999GF108991081051004501999999IA1319KA1999N-01221MD1810061+9999MW1371EQDQ01 104473APOSLP
0057265090999991935010306004+55700+021133FM-12+000199999V0200501N00461007801CN0100001N9-00281-00781102551ADDAY121999GF108991081041008001999999IA1159MD1310261+9999
0029719660999991935081612004+64067-139483FM-12+032499999V0201801N005119999999N9999999N9+00441+99999101661ADDGF108991081999999999999999
0037104740999991935010309004+51850+012650FM-12+002099999V0203201N00461007801CN0100001N9+99999+99999999999ADDAY121031GF108991081051008001999999
0072100060999991935071612004+54600+011150FM-12+999999999V0202901N01231030001CN0100001N9+02111+01671101501ADDAY121999GF106991011011008001071999EQDQ01+000032APCTENQ02+000002APC3  
0108030560999991935030107004+56933-004233FM-12+035899999V0201801N001019999999N0020001N9+00221+00171098981ADDAA199002091GA1011+999999019GF108991061051002501071999IA1089KA1999M+00281KA2999N+00171MD1310081+9999MW1051
0056323790999991935050420004+56033+159883FM-12+004599999V0200201N01231012001CN0010001N9+00111+99999099381ADDAY131999GF108991081081008001999999IA1319KA1999N-00781
0065038280999991935061113004+50483-004100FM-12+019899999V0202301N019019999999N0020001N9+01111+01061100371ADDGA1011+999999019GF108991081061001501999999MD1310041+9999MW1631
0081292630999991935121001004+58450+092167FM-12+007899999V0202901N002619999999N0100001N9-03221+99999999999ADDAA199000691AY121999GF108991001001999999071999IA1319KA1999N-03281MD1990021+9999
0057107080999991935110512004+49217+007033FM-12+018999999V0202001N00101002401CN0100001N9+01001+99999100391ADDAY161061GF108991081061002501999999MD1610161+9999MW1601
0046722265138211935101914004+32383-086300SAO  +0060MXF  V0209991C000010180019N0112001N9+01781+01501999999ADDMA1102171999999REMAWY0194CI SE/NW 2ST CU/SW
0057061930999991935030518004+55283+014767FM-12+007799999V0201401N00101007801CN0500001N9-00221+99999103261ADDAY121999GF107991071051008001001001IA1139MD1810041+9999
0037600690999991935052118004+27933-013000FM-12+000599999V0203401N00101220001CN0100001N9+02111+99999101871ADDAY101999GF100991001999999999999999
0091074200999991935032206004+45667+000233FM-12+008399999V0201601N00101220001CN0040001N9+00721+99999102131ADDAY101999GF102991001001999999001021IA1009KA1999N+00501EQDQ01+000042APCTENQ02+000082APC3  
0071037950999991935082418004+51083+001017FM-12+010499999V0202001N002619999999N0200001N9+01331+01281101141ADDGA1011+999999019GF107991061051004501071001IA1089MD1310081+9999MW1601
0043024330999991935021212004+60617+015633FM-12+012299999V0201801N00671002401CN0020001N9+00111+99999099241ADDAY171999GF108991081061002501999999MW1711
0097066300999991935020706004+46950+007483FM-12+057299999V0200701N00461012301CN0100001N9+00111+99999101081ADDAY121999GF108991081061012501999999IA1009KA1999N+00001MW1051EQDQ01+000032APCTENQ02+000002APC3  
0080037970350471935122001004+51350+001367FM-12+004799999V0203401N004619999999N0100001N9+00221+00171100741ADDGA1011+999999019GF104991041051008001021001EQDQ01+000032APCTENQ02+000002APC3  
0070265090999991935051812004+55700+021133FM-12+000199999V0202301N00261007801CN0100001N9+00781+00391101351ADDAY121999GF108991999081008001001001MD1310081+9999EQDQ01+000072SCOTLC
0057105760999991935062812004+50700+012467FM-12+009499999V0202701N00261002401CN0040001N9+02111+02061102461ADDAY191061GF108991081061002501999999MD1610061+9999MW1251
0037167340999991935070512004+36833+021717FM-12+002599999V0202701N00101220001CN0200001N9+03001+99999101241ADDAY101999GF100991001001999999001001
0043220190999991935101917004+69183+033500FM-12+999999999V0201101N01901030001CN0100001N9-00221+99999099871ADDAY121999GF107991041051008001021999IA1009
0054064510999991935041806004+50883+004417FM-12+005599999V0209999900671001501CN0040001N9+00721+99999100401ADDAA199001091AY101999GF108991071091001501999999IA1109
0057103840999991935051603004+52483+013433FM-12+001799999V0202001N01231007801CN0200001N9+00611+00221100321ADDAY161999GF107991071051008001021999MD1610061+9999MW1601
0043103100999991935110906004+55367+007933FM-12+001699999V0202301N00261220001CN0020001N9+99999+99999999999ADDAY111999GF104991041051008001041999MW1051
0076067000999991935062006004+46233+006083FM-12+042399999V0209991C00001220001CN0200001N9+01611+99999102261ADDAY101999GF101991011051012501001001IA1009KA1999N+01221MD1210041+9999MW1051
0057124000999991935112712004+51917+015500FM-12+004599999V0202301N00461007801CN0100001N9+00391+00001101201ADDAY161999GF108991061061008001021999MD1990141+9999MW1601
0037025330999991935080418004+58400+013450FM-12+011599999V0202701N00671012301CN0500001N9+01891+99999101531ADDAY111999GF106991061051012501001999
0057104880999991935052103004+51133+013767FM-12+007099999V0209991C00001220001CN0040001N9+00111+00061102291ADDAY101031GF100991001001999999001001MD1310021+9999MW1051
0070326180999991935103014004+55200+165817FM-12+000799999V0200201N00931006001CN0020001N9+00221+99999101341ADDAY121999GF108991999081002501051999MD1710021+9999EQDQ01+000082SCOTLC
0029719094999991935011405004+62833-069900FM-12+001699999V02099999999999999999N9999999N9+99999+99999999999ADDKA1999M-02721KA2999N-03171
0117389110999991935022003004+37833+065250FM-12+024299999V0201601N00101015001CN0100001N9+00611+99999102101ADDAA199002091AJ100009199999999AY161999GF106991061051017501001001HL10009IA1089IA2999+00789KA1999N+00611MD1310261+9999
0068010100999991935071118004+69333+016133FM-12+000799999V0202501N00931002401CN0200001N9+01001+99999101941ADDAA199000691AY121999GF108991081051002501999999IA1089MD1110101+9999
0009726810241311935010513004+43567-116217SAO  +0874BOI  V0201801N003610135019N0160001N1+00241+00191099851ADDMW1001
0070264770999991935061217004+56350+030517FM-12+010399999V0201601N00461220001CN0200001N9+01891+99999101551ADDAY121999GF104991001001999999001081IA1089KA1999M+02221MD1610141+9999
0108036270999991935112207004+51917-002583FM-12+006899999V0200501N004619999999N0040001N9+00671+00611101021ADDAA199000591GA1011+999999019GF108991081051002501999999IA1089KA1999M+00781KA2999N+00611MD1310081+9999MW1051
0089228200999991935060905004+61783+034383FM-12+006799999V0201801N00261007501CN0040001N9+01611+99999100851ADDAY121999GF108991999021008001001011IA1009KA1999N+01281MD1610061+9999EQDQ01+000082SCOTLC
0037238040999991935061404004+61667+050850FM-12+012299999V0200501N004619999999N0100001N9+99999+99999999999ADDAY111999GF106991001001999999071999
0037021270999991935072606004+65067+017167FM-12+032899999V0209991C00001012301CN0500001N9+01281+99999100871ADDAY111999GF107991071051012501001999
0065030560999991935032118004+56933-004233FM-12+035899999V0201801N006719999999N0100001N9+00721+00501100801ADDGA1011+999999019GF108991041051008001061999IA1009MD1810201+9999
0058787930999991935050518004+08383-082450FM-12+001999999V0201801N004119999999N0500001N9+03221+99999999999ADDAY121999GF106991999999999999999999MA1999999101081MW1021
0051106370999991935090815004+50050+008600FM-12+003499999V0203601N00261012301CN0200001N9+01501+00611102241ADDAY121031GF106991061071012501041001MD1710021+9999
0074121070999991935101606004+54283+016117FM-12+999999999V0202501N00671002401CN0020001N9+01221+01171102111ADDAA199000691AY161999GF108991081051002501999999IA1009MD1810061+9999MW1601
0123279950999991935042504004+53000+049417FM-12+999999999V0203201N01901007501CN0020001N9-00221+99999100411ADDAA199000591AJ100009199999999AY171999GF108991081051008001999999HL10009IA1199IA2999+00009KA1999N-00221MD1810081+9999MW1711
0072292310999991935092919004+58300+082900FM-12+008099999V0201801N00101220001CN0100001N9+00111+99999999999ADDAY111999GF102991021041012501001001EQDQ01+000032APCTENQ02+000002APC3  
0076104880999991935031306004+51133+013767FM-12+007099999V0201401N00261004501CN0040001N9-00111-00171103591ADDAY111061GF108991081051004501999999IA1159KA1999N-00221MD1010001+9999MW1051
0108030560999991935020207004+56933-004233FM-12+035899999V0203201N009319999999N0100001N9+00281+00061099621ADDAA199018091GA1011+999999019GF108991041041004501021999IA1159KA1999M+00941KA2999N+00171MD1310201+9999MW1721
0084062300999991935031118004+52967+004750FM-12+000699999V0200501N00931220001CN0040001N9+00281+99999103401ADDAY101999GF100991001001999999001001IA1009MW1051EQDQ01+000042APCTENQ02+000122APC3  
0070104690999991935071318004+51400+012217FM-12+004199999V0200501N00671220001CN0200001N9+02611+00941101901ADDAY101061GF101991011011017501001081IA1009KA1999M+02781MD1410001+9999
0057296340999991935110807004+54967+082950FM-12+013399999V0201801N00671004201CN0005001N9-00391+99999102021ADDAY171999GF199999091001004501021999MD1810221+9999MW1731
0037024360999991935032506004+59267+015217FM-12+003399999V0202501N00261012301CN0500001N9+00221+99999101681ADDAY121999GF108991081051012501001999
0097073150999991935021806004+45917-000983FM-12+000499999V0209991C00001220001CN0002001N9+00111+99999102951ADDAY141999GF100991001001999999001001IA1109KA1999N+00001MW1441EQDQ01+000042APCTENQ02+000022APC3  
0043105480999991935031909004+50550+010367FM-12+013999999V0201801N00261007801CN0005001N9+99999+99999999999ADDAY141031GF108991081051008001999999MW1421
0070296120999991935120508004+55350+078400FM-12+012099999V0203401N00461220001CN0040001N9-03111+99999104181ADDAY101999GF100991001001999999001001MD1810121+9999EQDQ01+000902SCOLCB
0037103120999991935073012004+51933+007650FM-12+001799999V0202901N00461007801CN0100001N9+01721+99999101581ADDAY181999GF106991061081008001999999
0037265100999991935010412004+55150+020867FM-12+000199999V0201601N00931030001CN0040001N9-01111-01171101471ADDAY121999GF108991041051008001071999
0081102240999991935090218004+53083+008783FM-12+000499999V0202701N001019999999N0100001N9+01891+99999101341ADDAA199004091AY191999GF107991021081008001031999IA1089KA1999M+02501MD1310061+9999
0059038040999991935110201004+49933-006300FM-12+005099999V0201701N009319999999N0200001N9+01061+00831100651ADDGA1011+999999019GF102991021021008001001001MD1810101+9999
0070388360999991935122214004+38583+068800FM-12+080099999V0209991C000019999999N0500001N9+00611+99999100441ADDAY121999GF108991001001999999021999IA1109KA1999M+01111MD1310101+9999
0037126650999991935111212004+49750+018633FM-12+031299999V0201601N00461220001CN0200001N9+02001+00781101711ADDAY101999GF104991001001999999001999
0029719094999991935080705004+62833-069900FM-12+001699999V02099999999999999999N9999999N9+99999+99999999999ADDKA1999M+01611KA2999N+00561
0051060110999991935051812004+62050-006750FM-12+002699999V0201401N00931001501CN0200001N9+00781+99999101141ADDAY141999GF108991081051001501999999MD1810021+9999
0057264470999991935122812004+56783+027733FM-12+012099999V0201601N00671007801CN0040001N9-00501+99999101911ADDAY121999GF108991081051008001999999MD1610041+9999MW1441
0051106350999991935060712004+50217+008450FM-12+024499999V0201801N01541220001CN0100001N9+01721+00831100371ADDAY101061GF102991011011008001001061MD1810101+9999
0057121600999991935122512004+54150+019433FM-12+000299999V0201401N00671001501CN0040001N9-00281-00441100971ADDAY121999GF108991081051001501999999MD1810341+9999MW1051
0043107280999991935040606004+49567+008467FM-12+002999999V0202001N01231004501CN0040001N9+99999+99999999999ADDAY161061GF108991081061004501999999MW1631
0057347170999991935110805004+46750+036783FM-12+000299999V0200701N00461002101CN0100001N9+00781+99999102661ADDAY121999GF108991081011002501999999IA1009MD1510061+9999
0057110100999991935030612004+48300+014317FM-12+038499999V0201801N00101036001CN0100001N9+00111+99999102351ADDAY121061GF108991041051012501071999MD1810261+9999MW1051
0070024640999991935011206004+59350+017950FM-12+001099999V0201801N00931007801CN0040001N9+00001+99999101201ADDAY121999GF108991081051008001999999IA1309KA1999N+00001MD1810101+9999
0070070700999991935080718004+49250+004083FM-12+008799999V0200201N00101220001CN0100001N9+02781+99999102141ADDAY101999GF102991021011012501061001IA1309KA1999M+03001MD1710141+9999
0081105490999991935051606004+50850+010467FM-12+091099999V0202301N00931000151CN0000501N9+00001+99999099221ADDAA124999999AY171061GF109991091999000251999999IA1089KA1999N-00111MD1310161+9999
0102036270999991935022607004+51917-002583FM-12+006899999V0203401N001019999999N0200001N9-00171-00331100551ADDAA199003091GA1011+999999019GF101991001001999999001011IA1139KA1999M+01061KA2999N-00171MD1310301+9999
0062021200999991935082406004+66950+017750FM-12+033099999V0209991C000019999999N0100001N9+01221+99999102161ADDAY121999GF106991999001017501051999MW1051EQDQ01+000002SCOTLC
0051121500999991935061612004+54383+018600FM-12+000599999V0202301N00931220001CN0200001N9+02111+00891100951ADDAY111999GF104991041071004501001001MD1310221+9999
0051100460999991935052712004+54383+010150FM-12+000999999V0200601N00671220001CN0500001N9+01501+00331102441ADDAY101999GF101991011011008001001031MD1810081+9999
0009722860231191935072219004+33900-117250SAO  +0466RIV  V0202701N004612200019N0240001N9+02831+99999999999ADDMW1001
0037023160999991935111612004+61683+013117FM-12+045199999V0209991C00001007801CN0500001N9+00001+99999101911ADDAY121999GF108991081051008001999999
0037026350999991935070318004+55617+013033FM-12+000699999V0202701N00671030001CN0100001N9+02111+99999101681ADDAY111999GF107991041081008001071999
0051104100999991935090315004+51400+006950FM-12+003799999V0203401N00261030001CN0100001N9+02001+01331101321ADDAY121031GF107991041081012501031051MD1810081+9999
0051279950999991935052910004+53000+049417FM-12+999999999V0202301N004619999999N0040001N9+01221+99999100131ADDAY121999GF108991081999008001999999MD1310041+9999
0070021960999991935012706004+65833+024150FM-12+000999999V0203401N00671004501CN0500001N9-01281+99999100801ADDAY111999GF108991081051004501001001IA1319KA1999N-01611MD1310381+9999
0037024360999991935120518004+59267+015217FM-12+003399999V0202301N00101012301CN0500001N9+00221+99999099151ADDAY121999GF108991081051012501001999
0037085060999991935042606004+38533-028633FM-12+006599999V0202501N001019999999N0200001N9+01281+99999102031ADDAY121999GF108991011999012501999999
0037346550999991935110310004+47650+043167FM-12+005099999V0200701N01231007501CN0100001N9+00001+99999103621ADDAY121999GF107991071051008001091999
0105167050999991935122118004+37783+020883FM-12+000399999V0202301N00261012301CN0200001N9+01611+99999100911ADDAA199002091AY151999GF108991999061012501001011IA1109EQDQ01+000082SCOTLCQ02+000032APCTENQ03+000002APC3  
0059031400999991935050613004+55867-004433FM-12+000699999V0200501N001019999999N0100001N9+01941+01001102821ADDGA1011+999999019GF101991011011017501001011MD1810021+9999
0136349290999991935110604004+45033+039650FM-12+003599999V0200701N00101004201CN0020001N9+01001+99999999999ADDAA199001091AJ100009199999999AY161999GF108991999071004501071071HL10009IA1109IA2999+00899KA1999N+00781MD1310061+9999EQDQ01+000082SCOTLC
0061837450999991935051012004-22283-042533FM-12+085099999V0209991C000019999999N9999999N9+01111+99999102141ADDGF107991999999999999999999KA1999M+01721KA2999N+00781MW1111
0106341220999991935072604004+51700+039217FM-12+014999999V0201801N00461075001CN0100001N9+01891+99999100061ADDAJ100009199999999AY111999GF106991011021012501031031HL10009IA1009IA2999+01229KA1999N+01391MD1990021+9999
0070288330999991935100603004+53867+059200FM-12+042199999V0203601N00101220001CN0100001N9+00391+99999101501ADDAY101999GF102991001001999999001031IA1089KA1999N+00111MD1310021+9999
0073355420999991935050603004+48617+061267FM-12+012799999V0201601N00461220001CN0100001N9+01891+99999101511ADDAJ100009199999999AY101999GF100991001001999999001001IA1009KA1999N+01281
0037026720999991935010818004+56650+016450FM-12+000799999V0201101N00931007801CN0100001N9-00281+99999103601ADDAY121999GF108991081051008001999999
0037267300999991935071412004+54633+025283FM-12+018899999V0203201N00101220001CN0100001N9+01781+00891101331ADDAY111999GF104991041011004501071999
0051104880999991935100915004+51133+013767FM-12+007099999V0202501N00261220001CN0100001N9+01501+00831101641ADDAY111031GF104991041071012501041081MD1110021+9999
0106351880999991935070102004+51167+071433FM-12+035399999V0203201N001019999999N0100001N9+01891+99999100831ADDAJ100009199999999AY111999GF107991001001999999041041HL10009IA1009IA2999+00899KA1999N+01281MD1110081+9999
0057100450999991935010206004+54450+010200FM-12+999999999V0203601N01231002401CN0100001N9+00391+99999101981ADDAY121999GF107991071051002501001001IA1089MD1310101+9999
0037124650999991935041918004+51717+019400FM-12+017699999V0209991C00001030001CN0040001N9+01001+00611101571ADDAY111999GF107991041051004501071999
0059031590999991935051213004+56033-003133FM-12+005899999V0200201N006719999999N0200001N9+00891+00281102691ADDGA1011+999999019GF106991041081012501031001MD1810021+9999
0043783530999991935041112004+21550-077267FM-12+999999999V0200501N00101220001CN0500001N9+02561+99999999999ADDAY101999GF102991011999008001999999MW1001
0057104160999991935101015004+51533+007583FM-12+002199999V0202501N00931004501CN0040001N9+01501+01281100491ADDAY161031GF107991061081004501999999MD1310601+9999MW1051
0087104380999991935122706004+51383+009533FM-12+008899999V0209991C00001007801CN0040001N9+00281+00221100291ADDAA199000691AY161061GF108991081061008001999999IA1199KA1999N+00001MD1310101+9999MW1251
0072014820999991935080818004+59033+010533FM-12+000999999V0202501N00671220001CN0100001N9+99999+99999101211ADDAY121999GF102991001001999999051999EQDQ01+032043ATOT  Q02 +04723ATOT  
0070361770999991935072714004+50400+080217FM-12+020299999V0200201N00261220001CN0200001N9+02001+99999101341ADDAY111999GF104991041041012501001001IA1009KA1999M+02391MD1210221+9999
0070072570999991935072206004+47050+002650FM-12+017999999V0209991C00001220001CN0100001N9+01391+99999102661ADDAY111999GF108991001001999999031999IA1009KA1999N+00781MD1310101+9999
0072295740999991935110919004+56033+092750FM-12+026899999V0202001N004619999999N0100001N9-00781+99999101861ADDAY121999GF106991001001999999071999EQDQ01+000032APCTENQ02+000002APC3  
0062340090999991935092811004+51750+036200FM-12+023499999V0203401N00671007501CN0040001N9+01001+99999100691ADDAY161999GF108991999061008001021999MW1631EQDQ01+000082SCOTLC
0057040630999991935052118004+65683-018083FM-12+000799999V0201801N004619999999N9999999N9+01111+99999101301ADDAY181061GF107991071031999999999999MD1310061+9999MW1801
0025725115147111935080515004+40200-076767SAO  +0097MDT  V0203151N006212200019N0240001N1+02631+01911099931ADDGA1999+013509999MW1001
0076370310999991935072816004+44983+041117FM-12+021299999V0203401N00101007501CN0040001N9+02721+99999100741ADDAY161999GF106991061051008001001001IA1009KA1999M+03001MD1310021+9999MW1211
0037084530999991935092106004+36467-006200FM-12+002899999V0201101N00671220001CN0100001N9+02281+99999101671ADDAY111999GF102991001999999999999999
0070106350999991935102306004+50217+008450FM-12+024499999V0200901N00931220001CN0100001N9-00111-00281099631ADDAY101061GF102991999001999999071001IA1139KA1999N-00221MD1310061+9999
0051040480999991935110318004+63400-020283FM-12+012299999V0201801N00261220001CN9999999N9+00501+99999100831ADDAY101061GF104991001001999999021999MD1310101+9999
0086125390999991935061121004+50267+018667FM-12+007599999V0201601N00101220001CN0040001N9+02001+01721100911ADDAY111999GF104991001001999999001051MD1410001+9999EQDQ01+000982SCOLCBQ02+000032APCTEN
0051103840999991935091200004+52483+013433FM-12+001799999V0209991C00001220001CN0200001N9+01111+00671101691ADDAY121999GF106991001001999999081081MD1810141+9999
0057010010999991935032406004+70983-008300FM-12+002399999V0200701N00931220001CN0500001N9-00781+99999101131ADDAY111999GF104991041051008001001091IA1319MD1210061+9999
0051108650999991935072615004+48183+011550FM-12+015599999V0200201N00101036001CN0200001N9+02721+01061101291ADDAY111031GF107991011011012501021061MD1610041+9999
0057219820999991935051807004+70967-178550FM-12+000399999V0201101N002619999999N0200001N9-00891+99999101871ADDAY111999GF107991071001008001001999IA1309MD1310101+9999
0087115190999991935091406004+50067+014433FM-12+025499999V0209991C00001030001CN0010001N9+01501+99999102161ADDAA199001091AY111999GF107991011061017501071999IA1089KA1999N+01391MD1210041+9999MW1101
0057107270999991935081315004+49017+008383FM-12+003599999V0202301N00101012301CN0200001N9+02111+01671100191ADDAY121031GF108991061081012501021999MD1810061+9999MW1171
0046837740999991935072312004-23967-048867FM-12+019799999V0202701N002619999999N9999999N9+01391+99999101761ADDAA124010091KA1999M+02391KA2999N+01281MW1401
0057108650999991935123003004+48183+011550FM-12+015599999V0200901N00101000151CN0000501N9+00111+00061101721ADDAY121031GF109991091999000251999999MD1810141+9999MW1471
0063857270999991935060412004-38233-072650FM-12+017799999V0200901N001019999999N0000501N9+00891+99999101871ADDAY101999GF109991091051999999999999IA1009MD1310021+9999MW1401
0051275950999991935033010004+55783+049133FM-12+007099999V0201401N009319999999N0100001N9+00221+99999101971ADDAY111999GF107991001001999999071081MD1810021+9999
0102076020999991935052206004+43383-001750FM-12+002999999V0201101N00101036001CN0100001N9+01391+99999100591ADDAA199006091AY121999GF107991011051002501091999IA1089KA1999N+00891EQDQ01+000022APCTENQ02+000002APC3  
0037122370999991935042512004+53467+018783FM-12+000799999V0201101N00461030001CN0100001N9+01391+00941101241ADDAY121999GF107991021081008001071999
0029710633999991935112113004+61150-113617FM-12+015899999V0201401N004619999999N9999999N9-00891+99999999999ADDGF103991031999999999999999
0051106090999991935070203004+49750+006667FM-12+008199999V0201801N00101036001CN0040001N9+01721+99999101581ADDAY121031GF106991041051008001091001MD1610061+9999
0043343630999991935082604004+50083+045433FM-12+002999999V0202701N00671030001CN0100001N9+99999+99999999999ADDAY161999GF108991041031004501021999MW1171
0037100050999991935060212004+54017+008250FM-12+999999999V0203601N00101220001CN0100001N9+01281+99999999999ADDAY101999GF104991041001017501041001
0070238490999991935042402004+61250+073400FM-12+004099999V0200501N00261075001CN0040001N9-01391+99999103151ADDAY101999GF106991001001999999001021IA1319KA1999N-02111MD1310021+9999
0037123310999991935032518004+52533+017217FM-12+010999999V0202701N00101004501CN0040001N9+00611+00221102591ADDAY121999GF108991081051004501999999
0068101130999991935030406004+53700+007150FM-12+000499999V0201401N01231030001CN0200001N9-00281-00611102781ADDAA199000691AY171999GF106991011051004501031999IA1309MD1310221+9999
0113115190999991935031706004+50067+014433FM-12+025499999V0201601N00101007801CN0020001N9+00111+99999101431ADDAY111999GF108991999051008001071999IA1089KA1999N-00111MW1051EQDQ01+000082SCOTLCQ02+000042APCTENQ03+000102APC3  
0090032800999991935010918004+54367-001617FM-12+005399999V0201401N002619999999N0002001N9-00171-00221102791ADDGA1011+999999019GF108991081051000251999999IA1139MD1310021+9999MW1441EQDQ01+000452PRSWM1
0061837820999991935091512004-23933-046150FM-12+000999999V0209991C000019999999N9999999N9+02111+99999101071ADDGF107991999999999999999999KA1999M+02391KA2999N+01781MW1111
0043841290999991935010617004-02167-079867FM-12+000399999V0201801N00261004501CN0500001N9+02721+99999100931ADDAY161999GF108991081999004501999999MW1031
0087377890999991935061004004+40133+044467FM-12+090799999V0209991C00001220001CN0200001N9+01781+99999100501ADDAJ100009199999999AY101999GF100991001001999999001001IA1009KA1999N+01111MD1310021+9999
0070125000999991935031212004+50900+015783FM-12+010499999V0200901N00461220001CN0200001N9+00221-00331103811ADDAY101999GF100991001001999999001001MD1310021+9999EQDQ01+000002APC3  
0018722265138211935120417004+32383-086300SAO  +0060MXF  V0203601N002112200019N0160001N9+00781+00171999999ADDMA1103291999999
0051105130999991935060500004+50983+006900FM-12+001599999V0202501N00261220001CN0200001N9+01281+01061100501ADDAY111061GF104991999051004501999999MD1310101+9999
0043846910999991935060713004-13750-076233FM-12+000699999V0209991C00001220001CN0500001N9+99999+99999999999ADDAY101999GF100991001999999999999999MW1001
0051122050999991935091100004+53400+014633FM-12+000199999V0202301N00261220001CN0500001N9+00721+00671102461ADDAY101999GF102991011051012501011011MD1810021+9999
0037355420999991935051709004+48617+061267FM-12+012799999V0200901N00671220001CN0200001N9+03221+99999101131ADDAY101999GF100991001001999999001001
0081216470999991935102921004+73183+143233FM-12+000899999V0202901N00461024001CN0020001N9-01391+99999102691ADDAA199007091AY121999GF108991021061004501021999IA1309KA1999N-01721MD1310081+9999
0091292630999991935061213004+58450+092167FM-12+007899999V0203201N004619999999N0100001N9+02111+99999101171ADDAY121999GF106991001001999999061051IA1089KA1999M+02281EQDQ01+000042APCTENQ02+000122APC3  
0037103840999991935032904004+52483+013433FM-12+001799999V0202901N00671030001CN0100001N9+99999+99999999999ADDAY121999GF108991021061004501021999
0057236310999991935042415004+63933+065067FM-12+004099999V0200201N01901075001CN0100001N9-00781+99999103331ADDAY161999GF106991021001012501021081IA1319MD1810021+9999
0051121160999991935020300004+54450+017000FM-12+001299999V0202701N01901220001CN0100001N9+00111-00441098391ADDAY101999GF100991001001999999001001MD1310241+9999
0051167460999991935102312004+35500+024033FM-12+006399999V0201401N00671036001CN0200001N9+02781+99999999999ADDAY111999GF108991021021017501021001MD1710081+9999
0037085220999991935111012004+32633-016900FM-12+011099999V0203601N00931007801CN0200001N9+01781+99999102231ADDAY151999GF106991061999008001999999
0063857990999991935010312004-41450-072917FM-12+001399999V0203601N001019999999N0020001N9+01281+99999101191ADDAY101999GF108991081051999999999999IA1009MD1810021+9999MW1031
0062106350999991935112306004+50217+008450FM-12+024499999V0203201N00101000151CN0000001N9-00221-00281099101ADDAY141061GF109991091999000251999999IA1139KA1999N-00221MW1451
0057010050999991935030212004+78067+013633FM-12+000899999V0201801N012319999999N0020001N9-00721+99999101941ADDAY171999GF108991081051999999999999MD1710281+9999MW1711
0061836480999991935081712004-20150-040333FM-12+003699999V0203601N009319999999N9999999N9+02221+99999102381ADDGF102991999999999999999999KA1999M+02391KA2999N+01781MW1111
0043354160999991935101815004+49067+054683FM-12+008999999V0202301N00461220001CN0100001N9+00721+99999999999ADDAY111999GF104991041021012501001001IA1009
0076103370999991935042206004+52150+009750FM-12+002799999V0209991C00001030001CN0040001N9+01001+99999100711ADDAY111999GF106991021051022501071051IA1009KA1999N+00891MD1310021+9999MW1051
0037107610999991935021806004+49033+010983FM-12+012999999V0203201N00261007801CN0040001N9+99999+99999999999ADDAY121061GF107991071051008001999999
0009722860231191935091621004+33900-117250SAO  +0466RIV  V0202701N006212200019N0400001N9+03501+99999999999ADDMW1001
0037122360999991935062609004+53733+018933FM-12+001999999V0201801N00461220001CN0100001N9+99999+99999999999ADDAY101999GF102991021011017501001999
0051102240999991935051212004+53083+008783FM-12+000499999V0203201N01231007801CN0200001N9+01111+99999101361ADDAY111999GF106991061081008001001999MD1810041+9999
0051121140999991935073112004+54433+016383FM-12+000299999V0202701N00671220001CN0100001N9+01781+01331101431ADDAY161999GF104991041011012501001001MD1310161+9999
0009726770240331935103014004+45800-108533SAO  +1088BIL  V0201801N002110060019N0320001N1-01311-01701999999ADDMW1001
0084033340999991935102213004+53350-002267FM-12+007099999V0202901N001019999999N0010001N9+00501+00281101381ADDGA1011+999999019GF108991001001999999011999MD1810101+9999MW1441EQDQ01+000452PRSWM1
0051349290999991935051522004+45033+039650FM-12+003599999V0209991C000019999999N9999999N9+01721+99999999999ADDAY181999GF108991999999999999999999MD1110041+9999
0043020500999991935012312004+68417+018117FM-12+050899999V0202701N01231000151CN0005001N9-00281+99999096361ADDAY171999GF108991081061000251999999MW1731
0037025920999991935102018004+57367+017100FM-12+000599999V0202701N01231220001CN0200001N9+00781+99999098431ADDAY111999GF101991001001999999001999
0037166890999991935111418004+38250+021733FM-12+000399999V0209991C00001004501CN0100001N9+01391+99999101941ADDAY111999GF106991061031004501001999
0051378500999991935100416004+40350+049833FM-12-001099999V0202001N00261220001CN0040001N9+02611+99999101791ADDAY101999GF101991011051012501001001MD1810101+9999
0051121600999991935040109004+54150+019433FM-12+000299999V0201801N01231007801CN0100001N9+00281-00501100751ADDAY121999GF108991081051008001999999MD1810101+9999
0063857990999991935111712004-41450-072917FM-12+001399999V0202701N002619999999N0020001N9+01111+99999101651ADDAY101999GF108991081051999999999999IA1089MD1310101+9999MW1501
0051374840999991935030810004+41650+041633FM-12+000399999V0203601N00261090001CN0500001N9+00721+99999103031ADDAY121999GF107991011011008001001021MD1990021+9999
0037109540999991935052006004+47817+010883FM-12+022199999V0209991C00001220001CN0100001N9+00501+00281102501ADDAY141061GF100991001001999999001001
0057102700999991935111315004+52917+012800FM-12+001499999V0209991C00001007801CN0005001N9+00891+00831101581ADDAY141999GF108991061051008001071999MD1810081+9999MW1461
0087105760999991935021506004+50700+012467FM-12+009499999V0202701N00931004501CN0100001N9+00281-00281101351ADDAA199000691AY171061GF108991081051004501999999IA1199KA1999N+00221MD1110241+9999MW1051
0051104560999991935103012004+51850+011067FM-12+004199999V0202701N01541007801CN0200001N9+01001+00391100791ADDAY121061GF107991061081008001041011MD1210041+9999
0037121450999991935071206004+54517+018550FM-12+001499999V0203201N00461220001CN0200001N9+01721+01061102031ADDAY101999GF100991001001999999001999
0043378500999991935042110004+40350+049833FM-12-001099999V0201401N00461220001CN0010001N9+01281+99999101151ADDAY141999GF104991021051000251001031MW1121
0061837820999991935112712004-23933-046150FM-12+000999999V0201401N002619999999N9999999N9+02501+99999101441ADDGF104991999999999999999999KA1999M+02501KA2999N+02001MW1111
0059039800999991935012513004+55367-007333FM-12+002699999V0202801N019019999999N0100001N9+99999+99999098311ADDGA1011+999999019GF108991081091001501999999MD1810401+9999
0037125600999991935090506004+50233+019033FM-12+030199999V0202501N00461220001CN0100001N9+01611+01331101091ADDAY101999GF104991001001999999021999
0043268250999991935090706004+53667+023833FM-12+012799999V0202701N00461001501CN0020001N9+01111+01061099891ADDAY161999GF108991081061001501999999MW1611
0037074890999991935072212004+45300+005867FM-12+115499999V0200201N00461220001CN0200001N9+02611+99999101861ADDAY101999GF100991001999999999999999
0106070090999991935021618004+50967+001833FM-12+002799999V0202301N02261000601CN0020001N9+00111+99999100341ADDAA199001091AY141999GF108991999051000751999031IA1089KA1999M+00891MD1810341+9999MW1611EQDQ01+000082SCOTLC
0009726810241311935093005004+43567-116217SAO  +0874BOI  V0201351N001512200019N0192001N1+00961+00521999999ADDMW1001
0087374720999991935032004004+43000+047500FM-12+003599999V0209991C00001004201CN0040001N9+00221+99999101261ADDAJ100009199999999AY121999GF108991081051004501001001IA1009KA1999N+00111MD1810121+9999
0063856800999991935010312004-36700-073100FM-12+008499999V0201801N002619999999N0200001N9+01221+99999101241ADDAY101999GF104991001001999999001071IA1009MD1310061+9999MW1011
0108038040999991935071707004+49933-006300FM-12+005099999V0202801N006719999999N0100001N9+01561+01501102011ADDAA124999999GA1011+999999019GF107991071081004501999999IA1009KA1999M+02001KA2999N+01441MD1310021+9999MW1501
0051387500999991935062609004+37467+053667FM-12-002299999V0200701N00461220001CN0100001N9+03611+99999099751ADDAY111999GF102991021021012501001091MD1810181+9999
0108034970999991935122807004+52583+001733FM-12+000299999V0201401N009319999999N0040001N9+00671+00611098731ADDAA199005091GA1011+999999019GF108991081061004501999999IA1089KA1999M+00941KA2999N+00501MD1810341+9999MW1631
0070040300999991935100106004+64150-021950FM-12+001699999V0200201N01231220001CN0100001N9+00721+99999100341ADDAY111061GF101991011021008001001001IA1009KA1999N+00611MD1010081+9999
0057076500999991935012212004+43417+005200FM-12+001299999V0209991C00001220001CN0100001N9+00611+99999102261ADDAY101999GF100991001001999999001001MD1990141+9999MW1051
0057106090999991935032203004+49750+006667FM-12+008199999V0202001N00101007801CN0020001N9+00611+99999101871ADDAY121031GF108991081051008001999999MD1990041+9999MW1051
0043783530999991935092820004+21550-077267FM-12+999999999V0202001N006719999999N0500001N9+03171+99999999999ADDAY121999GF108991041999008001999999MW1031
0073370000999991935122704004+44733+037650FM-12+003799999V0200701N00931002101CN0040001N9+00111+99999102381ADDAJ100009199999999AY121999GF108991081051002501999999IA1089KA1999N+00001
0107313690999991935092410004+53133+140750FM-12+001799999V0200901N002619999999N0200001N9+00891+99999101631ADDAY111999GF106991999001001501041081IA1089KA1999M+01501EQDQ01+000002SCOTLCQ02+000042APCTENQ03+000022APC3  
0029719650999991935102700004+63583-135850FM-12+049599999V0202301N006719999999N0200001N9-02061+99999103561ADDGF100991001999999999999999
0037026720999991935011506004+56650+016450FM-12+000799999V0202901N00261220001CN0100001N9-00611+99999101951ADDAY111999GF102991021051012501001999
0051100030999991935072306004+53867+007933FM-12+999999999V0202901N00671007801CN0100001N9+01611+01331999999ADDAY121999GF108991081051008001999999MD1310061+9999
0051121140999991935033106004+54433+016383FM-12+000299999V0202001N00461220001CN0040001N9+00001-00221101891ADDAY181999GF102991021021012501001001MD1310061+9999
0078061930999991935092818004+55283+014767FM-12+007799999V0209991C00001002401CN0040001N9+01111+99999101911ADDAY121999GF108991081051002501001001IA1009EQDQ01+000032APCTENQ02+000002APC3  
0091115190999991935091218004+50067+014433FM-12+025499999V0200701N00101220001CN0040001N9+01781+99999101541ADDAY111999GF104991001001999999001021IA1009KA1999M+02281EQDQ01+000042APCTENQ02+000062APC3  
0051282750999991935042208004+58200+068233FM-12+010099999V0202701N004619999999N0100001N9+00781+99999102371ADDAY121999GF107991001001999999041999MD1810141+9999
0009726810241311935062214004+43567-116217SAO  +0874BOI  V0209991C000012200019N1600001N1+02131+00851999999ADDMW1001
0089014030999991935102706004+59300+004883FM-12+005699999V0202901N012319999999N0500001N9+00611+99999099771ADDAA199002091AY121999GF108991021031012501071999IA1089EQDQ01+000022APCTENQ02+000002APC3  
0037319600999991935112304004+43117+131917FM-12+012899999V0203401N01541220001CN0500001N9+99999+99999999999ADDAY101999GF101991001001999999001999
0065038040999991935040913004+49933-006300FM-12+005099999V0202501N006719999999N0010001N9+01111+01061100301ADDGA1011+999999019GF108991081051002501999999MD1310061+9999MW1531
0106377350999991935031204004+40900+046467FM-12+999999999V0202701N00261220001CN0100001N9+00001+99999103141ADDAJ100009199999999AY101999GF100991001001999999001001HL10009IA1089IA2999-00399KA1999N+00001MD1310141+9999
0059038040999991935011313004+49933-006300FM-12+005099999V0203201N012319999999N0040001N9+01061+01001101821ADDGA1011+999999019GF108991081051004501999999MD1810061+9999
0043222170999991935010117004+67133+032433FM-12+999999999V0203601N004619999999N0040001N9-01781+99999101131ADDAY141999GF108991999999999999999999IA1309
0086103380999991935123109004+52417+009750FM-12+001699999V0202301N00671004501CN0100001N9+01001+00611100161ADDAY161999GF107991061051004501021999MD1210151+9999EQDQ01+000042APCTENQ02+000162APC3  
0070288330999991935061815004+53867+059200FM-12+042199999V0200501N00671030001CN0100001N9+02001+99999101031ADDAY121999GF107991041021017501091001IA1089KA1999M+02611MD1310021+9999
0072833740999991935022412004-15967-050067FM-12+015199999V0209991C000019999999N9999999N9+02721+99999101461ADDAA124004091GF102991999999999999999999KA1999M+02891KA2999N+02001MW1111
0081266660999991935080417004+55200+030200FM-12+015099999V0203201N00101220001CN0100001N9+01891+99999101621ADDAA199000691AY111999GF104991021071012501001031IA1089KA1999M+02391MD1310041+9999
0081228200999991935101417004+61783+034383FM-12+006799999V0202701N00461007501CN0020001N9+00611+99999101271ADDAA199000691AY111999GF106991061051008001001001IA1089KA1999M+00721MD1110141+9999
0009726810241311935100614004+43567-116217SAO  +0874BOI  V0200901N001512200019N0240001N1+00741+00581999999ADDMW1001
0070230660999991935092613004+69667+084400FM-12+002599999V0200201N002619999999N0040001N9+00221+99999100391ADDAY121999GF108991001001999999081999IA1109KA1999M+00611MD1810201+9999
0068080010999991935111918004+43383-008367FM-12+005799999V0203201N00931004501CN0040001N9+00891+99999100781ADDAA199028091AY161999GF108991081061004501001001IA1109MD1310021+9999
0070288330999991935072921004+53867+059200FM-12+042199999V0202701N00671220001CN0010001N9+01501+99999100111ADDAY111999GF101991999001999999041001MD1310041+9999EQDQ01+000002SCOTLC
0051100200999991935061612004+55017+008433FM-12+999999999V0202701N00931004501CN0100001N9+01501+99999999999ADDAY121999GF107991061071004501061999MD1310041+9999
0057266990999991935073112004+54783+020617FM-12+000699999V0203401N00261002401CN0040001N9+01721+01501101181ADDAY151999GF108991061051002501071999MD1310301+9999MW1201
0029710633999991935111101004+61150-113617FM-12+015899999V0203601N006719999999N9999999N9-01441+99999999999ADDGF108991081999999999999999
0056110350999991935022006004+48217+016550FM-12+015799999V0202701N00101220001CN0200001N9-00111+99999102361ADDAY101061GF100991001001999999001001IA1139KA1999N-00111
0037103840999991935051407004+52483+013433FM-12+001799999V0202501N001019999999N0200001N9+99999+99999999999ADDAY121999GF106991041011004501001999
0127031400999991935011007004+55867-004433FM-12+000699999V0202001N006719999999N0040001N9+00721+00671101961ADDAA199001091GA1011+999999019GF108991081051004501999999IA1089KA1999M+99999KA2999N+00441MD1810081+9999MW1611EQDQ01 +00502ATMX  
0051104880999991935061603004+51133+013767FM-12+007099999V0202501N01231220001CN0200001N9+01221+01001100951ADDAY181031GF102991011031012501041001MD1310181+9999
0037132750999991935041406004+44817+020417FM-12+013899999V0209991C00001220001CN0200001N9+00611+99999101571ADDAY111999GF104991001999999999999999
0029719350999991935070708004+60850-115767FM-12+016199999V02099999999999999999N9999999N9+99999+99999999999ADDKA1999M+01441KA2999N+00781
0068101700999991935011406004+54183+012100FM-12+000299999V0202501N00461004501CN0040001N9-00111-00171100501ADDAA199000691AY111999GF107991071051004501999999IA1309MD1310041+9999
0037268250999991935012312004+53667+023833FM-12+012799999V0202701N00931002401CN0020001N9+00001-00061100861ADDAY121999GF108991081051002501999999
0091380620999991935042415004+44850+065450FM-12+012999999V0201801N00261012001CN0040001N9+99999+99999999999ADDAY121999GF108991061051012501011999IA1009KA1999M+03001EQDQ01+000032APCTENQ02+000002APC3  
0072323790999991935091308004+56033+159883FM-12+004599999V0203601N00101220001CN9999999N9+00781+99999101971ADDAY101999GF101991999999999999999999EQDQ01+000032APCTENQ02+000002APC3  
0065030750999991935122701004+58450-003083FM-12+003699999V0201601N004619999999N0040001N9+00721+00671097261ADDGA1011+999999019GF108991071061002501021999MD1810221+9999MW1631
0057121070999991935112612004+54283+016117FM-12+999999999V0201601N004619999999N0000501N9+00221+00171101311ADDAY141999GF108991999999999999999999MD1810101+9999MW1471
0043085060999991935110112004+38533-028633FM-12+006599999V0203401N00461220001CN0100001N9+01781+99999101541ADDAY181999GF102991021999008001999999MW1251
0087271960999991935042516004+58600+049683FM-12+018599999V0203601N00671007501CN0010001N9-00501+99999100571ADDAA199007091AY171999GF108991081051008001999999IA1309KA1999M-00391MD1010041+9999MW1711
0044719350999991935091315004+60850-115767FM-12+016199999V0202301N001019999999N9999999N9+00671+99999999999ADDGF102991021999999999999999MA1999999098441
0057040030999991935032906004+65550-024017FM-12+999999999V0201101N009319999999N9999999N9+00221+99999101351ADDAY181061GF108991081041999999999999MD1810261+9999MW1221
0091239330999991935032714004+60967+069067FM-12+012899999V0209991C000019999999N0100001N9+00001+99999102121ADDAY121999GF108991001001999999021999IA1319KA1999M+00111EQDQ01+000032APCTENQ02+000002APC3  
0051357000999991935061010004+47067+051917FM-12-002199999V0201401N00671012001CN0040001N9+02221+99999101141ADDAY111999GF108991061091012501021031MD1990161+9999
0051122000999991935093006004+53917+014283FM-12+999999999V0202301N01541030001CN0200001N9+01281+01061100861ADDAY121999GF108991021051008001061999MD1310061+9999
0074062300999991935112106004+52967+004750FM-12+000699999V0200901N00931002401CN0040001N9+00501+99999100781ADDAA199000391AY161999GF107991071051002501001001IA1009MD1310061+9999MW1051
0076339940999991935062117004+44617+033533FM-12+000899999V0203201N00671220001CN9999999N9+02221+99999999999ADDAY101999GF101991999011012501001001IA1009MD1310061+9999EQDQ01+000002SCOTLC
0061825710999991935061012004-05500-045267FM-12+008299999V0209991C000019999999N9999999N9+02501+99999101641ADDGF107991999999999999999999KA1999M+03281KA2999N+02001MW1111
0059030050999991935042813004+60133-001183FM-12+008399999V0203201N006719999999N0200001N9+01001+00391102381ADDGA1011+999999019GF107991061081004501071999MD1810041+9999
0070104690999991935042018004+51400+012217FM-12+004199999V0200901N00461220001CN0100001N9+01391+00721101071ADDAY101061GF101991999001999999041001IA1009KA1999M+01781MD1610061+9999
0051107080999991935071018004+49217+007033FM-12+018999999V0209991C00001220001CN0200001N9+02721+99999101711ADDAY111061GF101991011011012501001001MD1810021+9999
0072821910999991935083012004-01467-048450FM-12+001099999V0200501N002619999999N9999999N9+02721+99999101501ADDAA124004091GF107991999999999999999999KA1999M+03221KA2999N+02111MW1111
0070071500999991935022018004+48950+002433FM-12+004699999V0202001N01231220001CN0100001N9+01281+99999100811ADDAY121999GF108991001001999999071999IA1009KA1999M+01281MD1710201+9999
0051103370999991935052815004+52150+009750FM-12+002799999V0200901N00461220001CN0500001N9+02111+99999101611ADDAY111999GF102991021021012501001001MD1810081+9999
0087104530999991935100306004+51800+010617FM-12+034899999V0202001N01901000151CN0010001N9+00221+00171098191ADDAA199000591AY141061GF109991091999000251999999IA1089KA1999N+00111MD1610141+9999MW1411
0043260630999991935041006004+59983+030283FM-12+000599999V0209991C00001000151CN9999999N9-00281+99999101051ADDAY141999GF109991091999000251999999MW1451
0059032080999991935090501004+54417-004367FM-12+000999999V0203201N004619999999N0200001N9+01221+01001100651ADDGA1011+999999019GF101991001001999999041001MD1310041+9999
0037026390999991935121918004+55433+013817FM-12+000599999V0202901N00261220001CN0100001N9+00111+99999101031ADDAY101999GF101991011051004501001999
0062339100999991935101705004+46167+034650FM-12+001599999V0203601N00101220001CN0200001N9+01221+99999102241ADDAY101999GF199999011071008001021091IA1009EQDQ01+000002SCOTCV
0084167460999991935032506004+35500+024033FM-12+006399999V0201601N00261220001CN0040001N9+01111+99999101581ADDAY111999GF104991001001999999041091IA1009MW1051EQDQ01+000032APCTENQ02+000002APC3  
0091033790999991935070107004+53033-000500FM-12+006299999V0200201N002619999999N0100001N9+01501+01441101771ADDGA1011+999999019GF106991041071004501031091IA1009KA1999M+02781KA2999N+01111MD1810041+9999
0070101310999991935041712004+53867+008717FM-12+000199999V0201801N00261220001CN0100001N9+01281+99999100082ADDAY111999GF104991041081008001001001MD1810041+9999EQDQ01+100083APOSLP
0089060110999991935091618004+62050-006750FM-12+002699999V0201101N00261000601CN0040001N9+01221+99999097721ADDAA199000591AY121999GF108991081061000751001001IA1089EQDQ01+000032APCTENQ02+000002APC3  
0127128400999991935050406004+47517+019017FM-12+013099999V0209991C00001220001CN0010001N9+00391+00001102521ADDAY101999GF100991001001999999001001IA1009KA1999N+99999MD1110101+9999MW1101EQDQ01+000902WODIR Q02+000042SCOHCGQ03 +01282ATMN  
0037104340999991935042912004+51533+009017FM-12+006199999V0203201N00671007801CN0100001N9+99999+99999999999ADDAY121061GF107991071051008001999999
0061837360999991935072212004-22100-045017FM-12+087299999V0209991C000019999999N9999999N9+01721+99999102121ADDGF104991999999999999999999KA1999M+02611KA2999N+00501MW1111
0051307100999991935072206004+52333+104217FM-12+043799999V0201801N00101220001CN0500001N9+02721+99999099611ADDAY111999GF104991001001999999001021MD1810061+9999
0070307770999991935070611004+52250+117717FM-12+044999999V0203201N00101220001CN0040001N9+03221+99999100371ADDAY121999GF104991001001999999001031IA1009KA1999M+03611MD1810041+9999
0051353580999991935100721004+49633+063500FM-12+012199999V0209991C00001220001CN0100001N9+00891+99999101901ADDAY101999GF100991001001999999001001MD1310021+9999
0037166480999991935081106004+39633+022417FM-12+007599999V0209991C00001220001CN0500001N9+02391+99999999999ADDAY101999GF100991001001999999001999
0051123300999991935040212004+52417+016833FM-12+009999999V0201801N00671002401CN0040001N9+00721+00501099641ADDAY161999GF107991071061002501999999MD1810081+9999
0037085830999991935082906004+16883-024983FM-12+001599999V0200501N004619999999N0040001N9+02501+99999101261ADDAY101999GF108991041999008001999999
0070202920999991935120406004+77717+104283FM-12+000699999V0200501N006719999999N0002001N9-02721+99999104091ADDAY121999GF108991999051999999999999MD1310101+9999EQDQ01+000092SCOTLC
0040719094999991935040205004+62833-069900FM-12+001699999V02099999999999999999N9999999N9+99999+99999999999ADDAA124028091KA1999M-00441KA2999N-01221
0051109610999991935111512004+47417+010983FM-12+090399999V0201601N00261220001CN0500001N9-00281-00611100371ADDAY111061GF104991011001022501041021MD1710061+9999
0057104880999991935111815004+51133+013767FM-12+007099999V0201801N00261002401CN0040001N9+00221+00171100951ADDAY161031GF108991081051002501999999MD1310101+9999MW1611
0070375450999991935061916004+41717+044800FM-12+040999999V0203201N00461220001CN0100001N9+02391+99999100861ADDAY101999GF100991001001999999001001IA1009KA1999M+02721MD1990021+9999
0037026390999991935042112004+55433+013817FM-12+000599999V0201101N00461220001CN0200001N9+01281+99999101591ADDAY101999GF102991001001999999001999
0037167430999991935121806004+36133+023000FM-12+018499999V0203201N00101220001CN0500001N9+01111+99999101571ADDAY111999GF101991011011999999001999
0051040060999991935061418004+66167-023217FM-12+000699999V0200501N01231220001CN9999999N9+00501+99999101821ADDAY111061GF106991001001999999021999MD1810061+9999
0084858340999991935060812004-43550-074733FM-12+014099999V0209991C000019999999N0100001N9+00781+99999102231ADDAY101999GF104991041081999999001001IA1009MW1011EQDQ01+000032APCTENQ02+000002APC3  
0037103840999991935120920004+52483+013433FM-12+001799999V0200701N00671002401CN0100001N9+99999+99999999999ADDAY121999GF108991081051002501999999
0051024640999991935022212004+59350+017950FM-12+001099999V0202301N00671220001CN0100001N9+00611+99999098291ADDAY111999GF104991041041008001001001MD1310141+9999
0051063000999991935092112004+51583+002617FM-12+000499999V0200901N00461220001CN0100001N9+01721+99999102211ADDAY111999GF104991001001999999041031MD1990101+9999
0051108680999991935060709004+48250+011550FM-12+014899999V0201101N00671220001CN0500001N9+01891+00941102041ADDAY101031GF100991001001999999001001MD1810021+9999
0037109650999991935012206004+47450+011267FM-12+027799999V0201801N00261220001CN0200001N9+99999+99999999999ADDAY111999GF102991001001999999031999
0029719660999991935061112004+64067-139483FM-12+032499999V0202301N002619999999N0100001N9+00561+99999101021ADDGF103991031999999999999999
0051319960999991935030804004+43733+135267FM-12+000899999V0203201N00261220001CN0200001N9+00221+99999101501ADDAY101999GF100991001001999999001001MD1810141+9999
0063858340999991935032212004-43550-074733FM-12+014099999V0201801N002619999999N0500001N9+01001+99999101861ADDAY101999GF108991071041999999021999IA1009MD1810181+9999MW1031
0075295810999991935041113004+56200+095683FM-12+020499999V0202301N00261220001CN0020001N9-00501+99999101771ADDAY111999GF102991999041008001001001IA1319KA1999M-00221EQDQ01+000012SCOTLC
0068232420999991935080702004+67700+072950FM-12+000499999V0200701N00461030001CN0100001N9+01611+99999099091ADDAA199004091AY121999GF108991021051012501041071IA1089MD1610021+9999
0057038940999991935032812004+49450-002550FM-12+005399999V0200701N00101220001CN0020001N9+00891+99999102951ADDAY111999GF104991021081008001011001MD1710041+9999MW1051
0072101510999991935060803004+53967+010867FM-12+999999999V0201801N00461012301CN0100001N9+01391+99999101311ADDAY111999GF107991061051012501031999EQDQ01+000042APCTENQ02+000082APC3  
0061836460999991935052512004-20850-041100FM-12+003499999V0209991C000019999999N9999999N9+01891+99999999999ADDGF104991999999999999999999KA1999M+02281KA2999N+01391MW1111
0037071800999991935101112004+48700+006233FM-12+023699999V0202001N00461036001CN0100001N9+01391+99999101871ADDAY121999GF106991041051008001041999
0059039800999991935061201004+55367-007333FM-12+002699999V0201501N009319999999N0100001N9+01061+00831099461ADDGA1011+999999019GF107991071091004501999999MD1310221+9999
0062020680999991935062106004+61867+016567FM-12+007299999V0203601N00101220001CN0200001N9+01611+99999101931ADDAY111999GF102991999001017501041999MW1051EQDQ01+000002SCOTLC
0057103630999991935121612004+52000+012983FM-12+003199999V0201801N00461220001CN0040001N9+00001-00221100511ADDAY121999GF104991041051012501041999MD1810021+9999MW1051
0070323790999991935112408004+56033+159883FM-12+004599999V0203601N012319999999N0040001N9-00391+99999100861ADDAY121999GF108991999041999999999999IA1309KA1999M+00001MD1310261+9999
0037108060999991935090512004+48067+008733FM-12+020199999V0201401N00261036001CN0100001N9+99999+99999999999ADDAY121061GF106991041051008001021999
0035719094999991935110200004+62833-069900FM-12+001699999V0200901N009319999999N0010001N9-00441+99999100201ADDGF108991081999999999999999MW1741
0037024330999991935120806004+60617+015633FM-12+012299999V0209991C00001007801CN9999999N9-00391+99999100991ADDAY111999GF108991081051008001999999
0070377890999991935072016004+40133+044467FM-12+090799999V0209991C00001012001CN0200001N9+03281+99999999999ADDAY111999GF108991061051012501061001IA1009KA1999M+03781MD1410001+9999
0025726810241311935031019004+43567-116217SAO  +0874BOI  V0202701N005112200019N1600001N1+00351-00531999999ADDGA1999+018009999MW1001
0076100460999991935071506004+54383+010150FM-12+000999999V0202501N00101220001CN0040001N9+01781+01561101801ADDAY121999GF106991001001999999011041IA1009KA1999N+01501MD1810021+9999MW1051
0037265100999991935070906004+55150+020867FM-12+000199999V0203601N00931030001CN0200001N9+01611+01331101391ADDAY111999GF106991041051004501071001
0108039800999991935080407004+55367-007333FM-12+002699999V0202301N004619999999N0100001N9+01391+01331102151ADDAA124999999GA1011+999999019GF107991061081004501071999IA1089KA1999M+01721KA2999N+01171MD1810061+9999MW1801
0089263930999991935030405004+57583+034567FM-12+016799999V0203601N002619999999N0040001N9-01001+99999102611ADDAY121999GF107991999001999999021001IA1319KA1999N-01281MD1310121+9999EQDQ01+000002SCOTLC
0057379850999991935100316004+38733+048833FM-12+999999999V0202301N00261220001CN0100001N9+01781+99999101871ADDAY101999GF100991001001999999001001IA1089MD1310021+9999
0100298430999991935081613004+53767+087233FM-12+021399999V0202701N00461220001CN0100001N9+01391+99999101661ADDAA199010091AY161999GF104991999001999999031001IA1109KA1999M+01781MD1310021+9999EQDQ01+000002SCOTLC
0009726810241311935100600004+43567-116217SAO  +0874BOI  V0203151N002612200019N0240001N1+02181+00741999999ADDMW1001
0029719660999991935051009004+64067-139483FM-12+032499999V02099999999999999999N9999999N9+99999+99999999999ADDKA1999M+00001KA2999N-01001
