0065030260999991936102918004+58217-006333FM-12+000399999V0202501N004619999999N0200001N9+01001+00941101281ADDGA1011+999999019GF108991041051004501021999IA1089MD1310221+9999
0043129200999991936101506004+46767+017233FM-12+014199999V0200501N00101036001CN0100001N9+00501+00441102211ADDAY111999GF106991041051017501031999MW1051
0087106370999991936102018004+50050+008600FM-12+003499999V0203201N00461004501CN0100001N9+00721+00671101361ADDAA199002091AY161061GF108991081061004501999999IA1089KA1999M+00891MD1310261+9999MW1611
0078837840999991936120312004-23017-045567FM-12+058399999V0200901N001019999999N0010001N9+02111+99999101141ADDAA124016091GF106991999999999999999999IA1089KA1999M+02781KA2999N+02001MW1601
0036722265138211936081216004+32383-086300SAO  +0060MXF  V0200501N003610060019N0160001N9+02831+02281999999ADDMA1101691999999REMAWY0096 STCU/NE
0061836990999991936122312004-22350-041800FM-12+000599999V0200501N001019999999N0040001N9+02501+99999101381ADDGF103991999999999999999999KA1999M+02721KA2999N+02001MW1111
0057125000999991936053109004+50900+015783FM-12+010499999V0202701N00461002401CN0040001N9+01281+01061100461ADDAY161999GF108991071061002501011999MD1310141+9999MW1601
0059030050999991936031413004+60133-001183FM-12+008399999V0202001N006719999999N0200001N9+00441+00061102141ADDGA1011+999999019GF107991061081004501071999MD1810081+9999
0062108560999991936110306004+48183+010867FM-12+016899999V0201801N00261220001CN0010001N9+00111+00061101981ADDAY111061GF102991021041008001001001IA1089KA1999N+00111MW1121
0051377890999991936032522004+40133+044467FM-12+090799999V0200201N00101220001CN0200001N9+00111+99999999999ADDAY101999GF100991001001999999001001MD1990021+9999
0057105390999991936090406004+50350+009533FM-12+006699999V0209991C00001004501CN0040001N9+01611+01561100831ADDAY191061GF108991081051004501999999MD1210061+9999MW1291
0092121600999991936050612004+54150+019433FM-12+000299999V0200901N009319999999N0200001N9+01501+00831101891ADDAY121999GF108991999001017501071999MD1410001+9999MW1601EQDQ01+000002SCOTLCQ02+000032APCTEN
0097038640999991936062507004+50817-001300FM-12+000299999V0203301N002619999999N0040001N9+01721+01441102111ADDGA1011+999999019GF101991001001999999031001IA1089KA1999M+02441KA2999N+01501MD1310021+9999MW1051
0095284400999991936020203004+56733+060633FM-12+028899999V0203201N00261220001CN0010001N9-02721+99999102341ADDAY101999GF100991001001999999001001HL10009IA1319IA2999-03509KA1999N-02721MD1310121+9999MW1101
0037043600999991936072112004+65600-037567FM-12+007299999V0201801N00101220001CN0200001N9+00611+99999101381ADDAY121061GF107991001001999999021999
0057100910999991936100606004+54683+013433FM-12+000299999V0200201N00931004501CN0500001N9+00501+99999101601ADDAY121999GF108991081051004501999999IA1009MD1810021+9999
0051284400999991936050609004+56733+060633FM-12+028899999V0200901N00261004201CN0100001N9+00221+99999102241ADDAY181999GF108991081061004501999999MD1610021+9999
0051121860999991936072209004+54033+022517FM-12+005099999V0203401N00671012301CN0100001N9+01781+01561100911ADDAY121999GF108991081051012501999999MD1210101+9999
0057104660999991936080512004+51483+011933FM-12+002499999V0202501N00931030001CN0200001N9+01611+00941101791ADDAY181061GF106991041081012501031999MD1210021+9999MW1251
0081278150999991936091405004+53567+037050FM-12+024999999V0203201N00261015001CN0100001N9+00891+99999101471ADDAA199001091AY121999GF107991061051017501071001IA1089KA1999N+00721MD1310041+9999
0076326180999991936110208004+55200+165817FM-12+000799999V0209991C00001012001CN0200001N9+00111+99999100012ADDAY121999GF108991081051012501999999IA1089MD1710101+9999EQDQ01+100013APOSLP
0061837880999991936090812004-23017-044150FM-12+000899999V0201801N002619999999N0020001N9+02001+99999102061ADDGF104991999999999999999999KA1999M+02281KA2999N+01891MW1051
0057121160999991936102703004+54450+017000FM-12+001299999V0201601N01541004501CN0040001N9+00501+00441099591ADDAY181999GF108991081061004501999999MD1810541+9999MW1801
0057100200999991936082412004+55017+008433FM-12+999999999V0203201N00671002401CN0100001N9+01781+99999102101ADDAY151999GF108991061061002501031999MD1310081+9999MW1501
0070112310999991936020606004+46667+014333FM-12+044899999V0209991C00001220001CN0500001N9-00721+99999102151ADDAY111061GF104991021071022501021041IA1309KA1999N-00721MD1310021+9999
0057100080999991936022612004+54833+014367FM-12+999999999V0203401N00261004501CN0040001N9+00001-00061101201ADDAY121999GF108991081081004501999999MD1990041+9999MW1161
0037267130999991936080112004+54633+022567FM-12+002399999V0200501N00261004501CN0100001N9+99999+99999999999ADDAY121999GF108991081051004501999999
0043014270999991936121512004+58100+006567FM-12+000999999V0202501N00671007801CN0200001N9+00721+99999099331ADDAY181999GF106991061081008001001999MW1161
0051101200999991936022612004+54183+007883FM-12+005099999V0200701N00101004501CN0100001N9-00111+99999101601ADDAY121999GF108991081051004501999999MD1810061+9999
0037107610999991936032612004+49033+010983FM-12+012999999V0200501N00261036001CN0100001N9+99999+99999999999ADDAY111061GF107991041051004501021999
0087066300999991936062018004+46950+007483FM-12+057299999V0201401N00461015001CN0200001N9+01891+99999101321ADDAA199000691AY161999GF107991061051017501071001IA1009KA1999M+02501MD1710021+9999MW1211
0037266140999991936030812004+55083+021800FM-12+000399999V0201101N00671220001CN0200001N9+99999+99999999999ADDAY101999GF100991001001999999001999
0037122370999991936022412004+53467+018783FM-12+000799999V0200701N00261002401CN0040001N9+00111+00061100571ADDAY121999GF108991081051002501999999
0059037460999991936032113004+51167-001750FM-12+012699999V0201401N009319999999N0100001N9+01221+00781100811ADDGA1011+999999019GF107991061051012501071001MD1810061+9999
0051236310999991936081209004+63933+065067FM-12+004099999V0200501N00261007501CN0200001N9+01721+99999101551ADDAY101999GF107991071021008001999999MD1110061+9999
0065032620999991936101018004+55017-001417FM-12+003399999V0203601N001019999999N0200001N9+01061+00611102641ADDGA1011+999999019GF104991041081004501011011IA1089MD1810021+9999
0051286980999991936081508004+54917+073400FM-12+009499999V0201401N00261220001CN0100001N9+02001+99999102391ADDAY101999GF102991001001999999001011MD1810061+9999
0043302300999991936012606004+57783+108117FM-12+026899999V0203201N99999012001CN0020001N9-02721+99999100801ADDAY121999GF108991081051012501999999MW1711
0009726980242291936112220004+45600-122650SAO  +0012PDX  V0203381N003112200019N0096001N1+01301+00631999999ADDMW1051
0089288380999991936082615004+53367+059050FM-12+038299999V0200501N00261012001CN0100001N9+01391+99999101251ADDAY111999GF107991999041012501001001IA1009KA1999M+01891MD1210021+9999EQDQ01+000062SCOTLC
0070282750999991936071014004+58200+068233FM-12+010099999V0201601N00101220001CN0200001N9+02221+99999101631ADDAY121999GF100991001001999999001001IA1009KA1999M+02391MD1810161+9999
0108030750999991936120807004+58450-003083FM-12+003699999V0202901N004619999999N0200001N9+00331+00111101241ADDAA199004091GA1011+999999019GF102991021081004501061001IA1089KA1999M+00281KA2999N+00221MD1310141+9999MW1251
0051105120999991936101312004+50433+007833FM-12+007799999V0202301N00261012301CN0100001N9+01221+99999101471ADDAY121061GF108991081051012501999999MD1610141+9999
0031691174999991936123119004+39833-076117SAO  +0002KQAH V0202251N008710012019N0008001N1+01241+01241101831ADDGA1081+999999079MW1451MW2611
0043124140999991936051309004+51267+015567FM-12+005999999V0201401N00101002401CN0010001N9+99999+99999999999ADDAY161999GF108991081051002501999999MW1631
0102102540999991936090506004+52833+011200FM-12+001599999V0202301N00461030001CN0100001N9+01721+01671100711ADDAA199002091AY121999GF106991021051012501031011IA1089KA1999N+01281EQDQ01+000032APCTENQ02+000002APC3  
0051104690999991936102612004+51400+012217FM-12+004199999V0202501N01541220001CN0200001N9+00891+00061101341ADDAY121061GF104991041021008001041001MD1310011+9999
0061836480999991936012912004-20150-040333FM-12+003699999V0203601N002619999999N9999999N9+02891+99999101481ADDGF102991999999999999999999KA1999M+03111KA2999N+02281MW1111
0057326180999991936010908004+55200+165817FM-12+000799999V0209991C00001030001CN0100001N9-00611+99999099941ADDAY111999GF106991041051004501041001IA1319MD1110081+9999
0057104660999991936062306004+51483+011933FM-12+002499999V0203201N00461220001CN0040001N9+02281+01831101791ADDAY101061GF104991011011012501041091MD1310121+9999MW1051
0051106350999991936070809004+50217+008450FM-12+024499999V0202301N00461000151CN0000501N9+01391+01331100151ADDAY161031GF109991091999000251999999MD1210121+9999
0037343910999991936090904004+50150+048717FM-12+002599999V0201401N004619999999N0100001N9+99999+99999999999ADDAY111999GF108991001999999999031999
0070271960999991936031504004+58600+049683FM-12+018599999V0200901N00101220001CN0040001N9-01781+99999103831ADDAY101999GF100991001001999999001001IA1319KA1999N-01781MD1310061+9999
0037133480999991936101206004+43300+017817FM-12+005399999V0203601N00671015001CN0200001N9+01391+01331101371ADDAY121999GF108991081051017501999999
0051105780999991936020909004+50433+012950FM-12+037099999V0203401N00931030001CN0500001N9-00721-01391099631ADDAY111031GF106991041051008001071011MD1810141+9999
0009727640240111936121715004+46767-100750SAO  +0506BIS  V0201801N003610015019N0160001N1-00201-00311999999ADDMW1001
0037262100999991936101012004+58383+021817FM-12+000799999V0200501N00261012301CN0100001N9+00721+99999102551ADDAY111999GF106991061071012501999999
0057105770999991936042912004+50817+012883FM-12+010999999V0200201N00261001501CN0010001N9+01221+00781102041ADDAY151061GF107991071061001501999999MD1990041+9999MW1101
0087112400999991936050218004+46983+015450FM-12+033599999V0202901N00261012301CN0040001N9+01221+99999101731ADDAA199014091AY151061GF108991071051012501021999IA1109KA1999M+01391MD1310061+9999MW1511
0057103430999991936102815004+52600+010033FM-12+001299999V0202701N00671007801CN0200001N9+00721+99999100781ADDAY181999GF106991061081008001061031MD1310181+9999MW1251
0051104270999991936111803004+51183+008483FM-12+025799999V0202301N00671000151CN0000001N9+00501+00441099221ADDAY161031GF109991091999000251999999MD1810121+9999
0037165970999991936091306004+35900+014517FM-12+008599999V0200201N00461220001CN0500001N9+02281+99999101781ADDAY111999GF104991041999008001999999
0078363350999991936071420004+49417+075467FM-12+087399999V0203401N00671007501CN0010001N9+01111+99999999999ADDAY121999GF108991081051008001999999MW1611EQDQ01+000042APCTENQ02+000142APC3  
0057101200999991936120115004+54183+007883FM-12+001599999V0203201N02261007801CN0020001N9+00611-00171099511ADDAY181999GF106991061081008001001001MD1310201+9999MW1811
0059030750999991936100613004+58450-003083FM-12+003699999V0200501N004619999999N0200001N9+01111+00671102741ADDGA1011+999999019GF104991041071004501061001MD1310061+9999
0089074810999991936032118004+45733+004917FM-12+019899999V0202001N00671220001CN0200001N9+01391+99999101431ADDAY101999GF101991999001999999041001IA1009KA1999M+01781MD1610061+9999EQDQ01+000002SCOTLC
0051306360999991936102018004+53617+109633FM-12+048299999V0209991C000019999999N0040001N9+00001+99999999999ADDAY121999GF108991081999008001999999MD1810121+9999
0088363350999991936080608004+49417+075467FM-12+087399999V0200201N002619999999N0040001N9+01611+99999999999ADDAY151999GF107991999051004501999999EQDQ01+000082SCOTLCQ02+000042APCTENQ03+000022APC3  
0057380010999991936120116004+44550+050250FM-12-002399999V0201401N00671220001CN0002001N9+01001+99999999999ADDAY111999GF102991021051999999001001IA1089MD1210021+9999
0040719660999991936121109004+64067-139483FM-12+032499999V02099999999999999999N9999999N9+99999+99999999999ADDAA124002091KA1999M-01891KA2999N-02721
0051101730999991936091812004+54267+012417FM-12+000199999V0201101N00461220001CN0200001N9+99999+99999102441ADDAY121999GF106991001001999999071021MD1810221+9999
0037108560999991936050903004+48183+010867FM-12+016899999V0201801N00261220001CN0500001N9+01001+00941101191ADDAY111031GF104991999001022501071001
0051104880999991936090209004+51133+013767FM-12+007099999V0203201N00671030001CN0200001N9+01391+00721101891ADDAY121031GF107991041051008001071999MD1310021+9999
0043846910999991936101420004-13750-076233FM-12+000699999V0201801N00671220001CN0500001N9+02281+99999100791ADDAY101999GF100991001999999999999999MW1001
0051222170999991936070411004+67133+032433FM-12+999999999V0201401N00671015001CN0200001N9+01501+99999101231ADDAY121999GF108991081081012501999999MD1310041+9999
0057070160999991936030312004+50150+003267FM-12+009899999V0200701N00261001501CN0010001N9+00221+99999100911ADDAY121999GF108991081051001501999999MD1010061+9999MW1101
0037122320999991936091318004+53117+017967FM-12+002199999V0209991C00001007801CN0040001N9+01281+01221102641ADDAY111999GF106991061041008001999999
0051121860999991936061706004+54033+022517FM-12+005099999V0202701N00461220001CN0200001N9+01501+01061102261ADDAY121999GF107991001001999999001061MD1010061+9999
0072388040999991936040309004+38567+063183FM-12+018699999V0200201N02261012001CN0100001N9+00501+99999101851ADDAY121999GF108991081051012501999999EQDQ01+000032APCTENQ02+000002APC3  
0009722860231191936021119004+33900-117250SAO  +0466RIV  V0201401N006210012019N0064001N9+01411+01301101351ADDMW1451
0076103840999991936031009004+52483+013433FM-12+001799999V0201801N00101012301CN0010001N9+00781+00721101421ADDAY141999GF107991061051012501021999MD1410001+9999MW1281EQDQ01+000032APCTEN
0059030750999991936042713004+58450-003083FM-12+003699999V0202901N004619999999N0200001N9+01221+00781102151ADDGA1011+999999019GF106991041081008001071001MD1310201+9999
0057100460999991936102809004+54383+010150FM-12+000999999V0202501N00671007801CN0100001N9+00721+00501099931ADDAY181999GF107991071051008001021999MD1210261+9999MW1251
0009725310148061936080415004+40300-088133SAO  +0228RAN  V0203601N005110180019N0064001N1+02351+02021101691ADDMW1451
0037334150999991936031306004+49550+025600FM-12+031899999V0201401N00101002401CN0040001N9+00501+00441100861ADDAY121999GF108991081061002501999999
0051286790999991936042520004+54883+069117FM-12+013699999V0202301N01231220001CN0100001N9+00281+99999102931ADDAY101999GF100991001001999999001001MD1810061+9999
0062103870999991936100706004+52533+013117FM-12+001099999V0202501N00101220001CN0020001N9-00111-00171101901ADDAY141061GF102991021051012501001001IA1139KA1999N-00391MW1051
0065036270999991936050218004+51917-002583FM-12+006899999V0200501N004619999999N0200001N9+01331+00441102671ADDGA1011+999999019GF101991011071012501001001IA1009MD1810061+9999
0051103120999991936042012004+51933+007650FM-12+001799999V0202701N00671030001CN0100001N9+00891+99999100851ADDAY111999GF107991041051008001021999MD1810101+9999
0056024180999991936061618004+59383+013500FM-12+005399999V0202701N00461220001CN0500001N9+01781+99999101311ADDAY111999GF104991999001017501071999EQDQ01+000002SCOTLC
0043298650999991936041107004+53700+091467FM-12+023999999V0202901N00671007501CN0010001N9+00111+99999102331ADDAY171999GF108991081001008001021999MW1731
0076260630999991936061105004+59983+030283FM-12+000599999V0209991C00001220001CN0100001N9+02001+99999101611ADDAY101999GF100991001001999999001001IA1009KA1999N+01391MD1310101+9999MW1101
0057103160999991936121121004+51967+008550FM-12+004499999V0201401N00101000601CN0002001N9-00111+99999101781ADDAY141999GF108991081051000751999999MD1810041+9999MW1421
0072251730999991936081701004+68917-179483FM-12+000999999V0202701N00261004201CN0200001N9+00391+99999100811ADDAY111999GF107991071071004501999999EQDQ01+000022APCTENQ02+000002APC3  
0084855430999991936110512004-32867-071250FM-12+012099999V0209991C000019999999N0200001N9+01501+99999101541ADDAY101999GF100991001001999999001001IA1009MW1001EQDQ01+000032APCTENQ02+000002APC3  
0037103930999991936061715004+52200+014117FM-12+003299999V0200201N00101220001CN0200001N9+02721+00561102231ADDAY101031GF101991011011012501001001
0072351880999991936102808004+51167+071433FM-12+035399999V0202501N00931007501CN0100001N9+00501+99999102831ADDAY121999GF107991071051008001001999EQDQ01+000032APCTENQ02+000002APC3  
0037082210999991936071012004+40467-003567FM-12+060099999V0202901N006719999999N0100001N9+02611+99999101391ADDAY111999GF106991011999022501999999
0063101130999991936032106004+53700+007150FM-12+000499999V0201401N00261220001CN0020001N9+00501+00281101751ADDAY111999GF104991001001999999071999IA1009MD1310021+9999MW1051
0068221490999991936103104004+68150+039650FM-12+007599999V0202701N00931012001CN0200001N9+00221+99999100471ADDAA199000691AY171999GF108991081041012501999999IA1139MD1210021+9999
0070101470999991936021718004+53633+010000FM-12+000599999V0201101N00461004501CN0040001N9+00391+00171100421ADDAY141999GF107991071051004501999999IA1089KA1999M+00391MD1210141+9999
0056010050999991936082912004+78067+013633FM-12+000899999V0200501N00261220001CN0500001N9+00501+99999101371ADDAY121999GF104991999001000251061999EQDQ01+000002SCOTLC
0057107270999991936101812004+49017+008383FM-12+003599999V0202301N00931004501CN0100001N9+01111+01061101791ADDAY151061GF108991081051004501999999MD1310121+9999MW1501
0044719031999991936022701004+61300-064883FM-12+003999999V0200901N008219999999N0032001N9-00221+99999999999ADDGF108991081999999999999999MA1999999100581
0009726810241311936122411004+43567-116217SAO  +0874BOI  V0201351N006210180019N0240001N1+01021-00091999999ADDMW1001
0089224710999991936080204004+65833+044267FM-12+001699999V0202501N004619999999N0040001N9+01611+99999101601ADDAY121999GF107991999001022501071999IA1009KA1999N+01281MD1310181+9999EQDQ01+000002SCOTLC
0037165300999991936052312004+40933+009500FM-12+000299999V0202301N004619999999N0200001N9+01891+99999100221ADDAY121999GF106991021999012501999999
0084030050999991936120401004+60133-001183FM-12+008399999V0202001N012319999999N0040001N9+00781+00721096911ADDGA1011+999999019GF108991061061002501021999MD1810542+9999MW1251EQDQ01+000542APC3  
0081119650999991936121806004+49000+021250FM-12+027099999V0202701N01231004501CN0100001N9+00501+99999100411ADDAA199001091AY141999GF108991081051004501999999IA1109KA1999N+00111MD1210101+9999
0095101700999991936111806004+54183+012100FM-12+000299999V0200901N00671004501CN0100001N9+00391+00171101171ADDAA199000391AY161999GF108991081061004501999999IA1089MW1611EQDQ01+000042APCTENQ02+000102APC3  
0037164200999991936112106004+38200+015550FM-12+005499999V0201801N006719999999N0100001N9+01721+99999102091ADDAY121999GF106991041999008001999999
0043370990999991936011410004+43633+039750FM-12+999999999V0200901N00261006001CN0010001N9+00281+99999101891ADDAY181999GF108991081081001501999999MW1271
0009726980242291936063020004+45600-122650SAO  +0012PDX  V0200681N001512200019N0192001N1+02571+01411999999ADDMW1001
0039722860231191936050118004+33900-117250SAO  +0466RIV  V0203201N003612200019N0160001N9+02571+00851101351ADDGA1081+999999029MD1710161+9999MW1001
0037166480999991936072418004+39633+022417FM-12+007599999V0200201N00671220001CN0100001N9+02111+99999100911ADDAY111999GF104991041051012501031999
0025745980137021936111601004+37083-076350SAO  +0002LFI  V0203401N008212200019N0160001N9+00301-00811099851ADDGA1001+999999999MW1001
0081100330999991936100606004+54767+009367FM-12+001399999V0203601N00461220001CN0200001N9+00001-00061102031ADDAA199000691AY111999GF104991041081004501001999IA1009KA1999N+00001MD1310061+9999
0059031590999991936031513004+56033-003133FM-12+005899999V0200901N004619999999N0200001N9+00611+00561102511ADDGA1011+999999019GF107991061081012501061001MD1310061+9999
0051104190999991936111115004+51217+007633FM-12+013699999V0202001N00461002401CN0200001N9+00391+99999101051ADDAY121031GF108991081061002501999999MD1810081+9999
0086370990999991936071516004+43633+039750FM-12+999999999V0209991C00001004201CN0040001N9+02111+99999999999ADDAA199008091AY181999GF107991071031004501999999KA1999M+99999MW1921EQDQ01 -04112ATMX  
0037103840999991936081901004+52483+013433FM-12+001799999V0202901N00101007801CN0100001N9+99999+99999999999ADDAY161999GF108991081051008001999999
0074325400999991936081408004+53000+158483FM-12+011399999V0209991C00001000151CN0002001N9+01221+99999101681ADDAA199000691AY141999GF109991091999000251999999IA1209MD1610141+9999MW1471
0092035780999991936092918004+52367+000467FM-12+000599999V0202901N002619999999N0020001N9+01001+00781102471ADDGA1011+999999019GF104991041051012501041001IA1089MW1051EQDQ01+000032APCTENQ02+000002APC3  
0108030910999991936081507004+57167-002200FM-12+007199999V0200901N001019999999N0040001N9+01671+01611101111ADDAA199002091GA1011+999999019GF107991071051012501031999IA1089KA1999M+01781KA2999N+01391MD1310081+9999MW1051
0051104530999991936040812004+51800+010617FM-12+034899999V0200701N00461220001CN0100001N9+00001-00221099901ADDAY111061GF102991021011002501001001MD1110081+9999
0009726980242291936101505004+45600-122650SAO  +0012PDX  V0209991C000012200019N0160001N1+01021+01021999999ADDMW1001
0070271960999991936072704004+58600+049683FM-12+018599999V0200701N00261220001CN0100001N9+02001+99999101741ADDAY101999GF100991001001999999001001IA1009KA1999N+01781MD1310061+9999
0051292310999991936052819004+58300+082900FM-12+008099999V0202701N00461220001CN0100001N9+00281+99999102021ADDAY111999GF102991001001999999001011MD1210121+9999
0037111820999991936091412004+47800+016233FM-12+026899999V0202701N00261220001CN0100001N9+01781+99999102781ADDAY111061GF104991021011012501041001
0061837500999991936011012004-22517-043183FM-12+085099999V0200501N009319999999N9999999N9+02281+99999101161ADDGF102991999999999999999999KA1999M+02781KA2999N+01781MW1111
0037103980999991936072406004+52333+014617FM-12+001599999V0201401N00461220001CN0040001N9+99999+99999999999ADDAY101061GF100991001001999999001999
0070070280999991936032206004+49517+000117FM-12+001799999V0200701N00671220001CN0200001N9+01001+99999100151ADDAY111999GF108991001001999999051071IA1009KA1999N+01001MD1610081+9999
0029719660999991936120612004+64067-139483FM-12+032499999V0201401N001519999999N0010001N9-03941+99999101521ADDGF100991001001999999001001
0057103480999991936091815004+52233+010483FM-12+002499999V0200901N00101220001CN0040001N9+02281+01061102131ADDAY121999GF106991001001999999091011MD1810061+9999MW1051
0051124250999991936082309004+51133+016967FM-12+003799999V0202901N00671030001CN0200001N9+01611+01171102041ADDAY181999GF106991021031008001031001MD1990021+9999
0051103820999991936100609004+52467+013133FM-12+001499999V0203601N00461220001CN0200001N9+00721-00111101351ADDAY111999GF102991021011008001021001MD1210041+9999
0057104690999991936102615004+51400+012217FM-12+004199999V0202001N00671007801CN0100001N9+00891+00061101201ADDAY121031GF106991061051008001071999MD1610141+9999MW1051
0051101510999991936111109004+53967+010867FM-12+999999999V0202301N00931002401CN0100001N9+00611+99999100701ADDAY121999GF107991071051002501999999MD1110081+9999
0087067000999991936121206004+46233+006083FM-12+042399999V0200901N00101000151CN0005001N9-00111+99999101831ADDAA199000691AY141999GF109991091999000251999999IA1089KA1999N-00221MD1810041+9999MW1451
0095307100999991936032500004+52333+104217FM-12+043799999V0200701N00101220001CN0020001N9-00891+99999102691ADDAY101999GF100991001001999999001001HL10009IA1319IA2999-01399KA1999N-01221MD1210181+9999MW1101
0057012030999991936100218004+62033+004983FM-12+004199999V0203601N004619999999N0500001N9+00891+99999102701ADDAY121999GF106991021051022501031071IA1089MD1510021+9999
0037167540999991936070306004+35333+025267FM-12+002699999V0202901N00671220001CN0200001N9+02611+99999101341ADDAY101999GF101991011041999999001999
0070348580999991936061616004+45917+043333FM-12+999999999V0203201N00461036001CN0100001N9+02611+99999100791ADDAY111999GF107991041031022501041031IA1089KA1999M+03001MD1410001+9999
0057109080999991936122115004+47867+008017FM-12+045599999V0201101N00101220001CN0500001N9+00611-01111101151ADDAY101031GF101991999001012501001011MD1810021+9999MW1121
0037029750999991936111512004+60250+025033FM-12+001599999V0202901N00261004501CN0100001N9-00111+99999101951ADDAY121999GF108991081051004501999999
0043103840999991936121213004+52483+013433FM-12+001799999V0201801N00101000601CN0010001N9+99999+99999999999ADDAY121999GF108991071051000751999999MW1101
0057294300999991936071007004+56433+084967FM-12+013899999V0202701N00461012001CN0040001N9+01781+99999101181ADDAY121999GF108991081051012501999999MD1810061+9999MW1601
0051105780999991936092309004+50433+012950FM-12+037099999V0203201N00101000151CN0040001N9+00891+00671101311ADDAY141031GF107991071081000251999999MD1710011+9999
0070388800999991936081809004+38000+058300FM-12+025499999V0202901N009319999999N0100001N9+03501+99999100621ADDAY111999GF106991999001999999051001MD1810101+9999EQDQ01+000002SCOTLC
0057106370999991936022803004+50050+008600FM-12+003499999V0200201N00261220001CN0040001N9+00001-00061099661ADDAY111031GF104991001001999999001011MD1710241+9999MW1051
0051107080999991936031012004+49217+007033FM-12+018999999V0201801N00461220001CN0200001N9+01501+99999101261ADDAY111061GF104991001001999999031011MD1810121+9999
0037124650999991936031806004+51717+019400FM-12+017699999V0202501N00101220001CN0040001N9+00001-00221102801ADDAY101999GF100991001001999999001999
0091333450999991936012617004+50450+030500FM-12+018399999V0201401N00101075001CN0040001N9-00111+99999101551ADDAY111999GF106991001001999999001051IA1209KA1999M+00221EQDQ01+000032APCTENQ02+000002APC3  
0009726770240331936111715004+45800-108533SAO  +1088BIL  V0202251N006212200019N1600001N1+00521-00151999999ADDMW1001
0009726810241311936021806004+43567-116217SAO  +0874BOI  V0201351N004110105019N0160001N1-00201-00761999999ADDMW1001
0051121140999991936122406004+54433+016383FM-12+000299999V0202701N01901007801CN0040001N9+00391+00171102131ADDAY121999GF108991081061008001999999MD1810261+9999
0051122050999991936090600004+53400+014633FM-12+000199999V0201601N00101220001CN0200001N9+01391+01331100431ADDAY111999GF104991041051012501001001MD1810101+9999
0108037770999991936051207004+51350-000117FM-12+006699999V0209991C000019999999N0020001N9+01001+00941101811ADDAA124999999GA1011+999999019GF107991071051008001999999IA1009KA1999M+01891KA2999N+00611MD1310061+9999MW1051
0037085060999991936050706004+38533-028633FM-12+006599999V0203601N00101220001CN0100001N9+01501+99999102891ADDAY111999GF104991041999008001999999
0037156310999991936090106004+42617+025400FM-12+038799999V0202901N00671036001CN0200001N9+02001+99999101311ADDAY161999GF107991041051017501071999
0051108460999991936041512004+48933+010550FM-12+013399999V0201401N00671036001CN0100001N9+01611+00441099731ADDAY111061GF108991021081012501021999MD1810261+9999
0051238490999991936091120004+61250+073400FM-12+004099999V0201401N00931007501CN9999999N9+99999+99999100351ADDAY121999GF108991081061008001999999MD1810261+9999
0037010100999991936093012004+69317+016133FM-12+000799999V0203201N00461030001CN0500001N9+00501+99999102011ADDAY121999GF106991041081012501031999
0057100030999991936122112004+53867+007933FM-12+999999999V0202301N00931220001CN0040001N9+00391+00331999999ADDAY101999GF100991001001999999001001MD1990041+9999MW1051
0037153020999991936040718004+45500+025583FM-12+109399999V0201801N00931036001CN0020001N9+00221-00171099031ADDAY121999GF108991041021008001021999
0081102540999991936111106004+52833+011200FM-12+001599999V0202001N00671007801CN0200001N9+00501+00281100911ADDAA199001091AY121999GF106991061051008001999999IA1009KA1999N+00501MD1310141+9999
0051233300999991936011209004+66533+066600FM-12+003599999V0201401N00101007501CN0040001N9-02221+99999103031ADDAY121999GF108991081051008001999999MD1810021+9999
0057109080999991936051115004+47867+008017FM-12+045599999V0203401N00261000151CN0100001N9+00501+00281100131ADDAY121031GF108991081051000251999999MD1610021+9999MW1051
0043167540999991936101506004+35333+025267FM-12+002699999V0200501N001019999999N0200001N9+02001+99999101471ADDAY111999GF107991071021999999001001IA1009
0057122110999991936120900004+53767+015783FM-12+002799999V0202001N00261001501CN0010001N9+00001-00061103191ADDAY121999GF108991081051001501999999MD1310041+9999MW1101
0009726980242291936062100004+45600-122650SAO  +0012PDX  V0203381N003112200019N0240001N1+02461+01411999999ADDMW1001
0009726770240331936110104004+45800-108533SAO  +1088BIL  V0200231N011310012019N0012001N1-00421-00481999999ADDMW1711
0087103370999991936091806004+52150+009750FM-12+002799999V0201801N00101030001CN0040001N9+01281+99999102261ADDAA199000691AY181999GF106991021051022501031999IA1009KA1999N+00611MD1610061+9999MW1051
0031745980137021936120715004+37083-076350SAO  +0002LFI  V0200201N006710012019N0016001N9+00631+00631100121ADDGA1081+999999079MW1451MW2611
0087346550999991936122904004+47650+043167FM-12+005099999V0202501N01231004201CN0040001N9-00221+99999099471ADDAA199000391AY171999GF108991071061004501021999IA1309KA1999N-00721MD1610321+9999MW1371
0076102890999991936121715004+53317+013867FM-12+000899999V0202301N00101220001CN0040001N9+00391+00331101711ADDAY111999GF102991999001999999031001MD1310081+9999MW1051EQDQ01+000002SCOTLC
0081306360999991936010800004+53617+109633FM-12+048299999V0209991C00001030001CN0010001N9-03281+99999999999ADDAA199001091AY121999GF106991011051002501021001IA1309KA1999N-03391MD1310141+9999
0037074880999991936072912004+45167+005733FM-12+032499999V0203201N00261220001CN0200001N9+02501+99999101901ADDAY101999GF100991001999999999999999
0072360030999991936121008004+52283+076950FM-12+012799999V0202501N00671220001CN0100001N9-01111+99999103341ADDAY101999GF104991001001999999001021EQDQ01+000022APCTENQ02+000002APC3  
0081264770999991936012517004+56350+030517FM-12+010399999V0202701N00671002101CN0040001N9-00281+99999100271ADDAA199001091AY121999GF108991081051002501999999IA1319KA1999M+00001MD1310261+9999
0070348800999991936052916004+46350+048033FM-12-002599999V0200701N00461090001CN0100001N9+02221+99999100411ADDAY121999GF108991001001999999001071IA1009KA1999M+02721MD1810021+9999
0051296120999991936051720004+55350+078400FM-12+012099999V0202301N00261004201CN0100001N9+00221+99999101191ADDAY121999GF108991071051004501999999MD1710021+9999
0070122250999991936061206004+53267+016467FM-12+003899999V0200901N00101220001CN0020001N9+01501+01441101471ADDAY121999GF107991001001999999031999IA1009KA1999N+00781MD1210141+9999
0070370500999991936072404004+44050+042083FM-12+057399999V0202701N00461036001CN0200001N9+02111+99999100821ADDAY121999GF108991021081012501041091IA1009KA1999N+01781MD1310141+9999
0037156150999991936091512004+42200+023583FM-12+292699999V0203601N00101000601CN0100001N9-00111+99999100791ADDAY121999GF107991071041000751001999
0122103380999991936101706004+52417+009750FM-12+001699999V0202701N00671030001CN0040001N9+01001+00781101551ADDAA199000391AY151999GF108991041061004501021999IA1089KA1999N+00891MD1210021+9999MW1511EQDQ01+000042APCTENQ02+000022APC3  
0051111770999991936070406004+47683+015867FM-12+046299999V0203201N00461036001CN0040001N9+01891+99999101641ADDAY111061GF106991021071017501071001MD1810061+9999
0093372280999991936031204004+43050+044483FM-12+066899999V0201601N00101000151CN0002001N9+00001+99999102331ADDAJ100009199999999AY141999GF109991091999000251999999IA1109KA1999N+00001MD1110101+9999MW1281
0057104160999991936050712004+51533+007583FM-12+002199999V0200501N00671220001CN0040001N9+02001+01561100901ADDAY121061GF104991021081008001999999MD1990121+9999MW1051
0043855410999991936121917004-32817-070083FM-12+385099999V0202301N01231220001CN0500001N9+00391+99999999999ADDAY101999GF102991001999999999999999MW1001
0081106370999991936012106004+50050+008600FM-12+003499999V0202001N00671030001CN0200001N9+00611+00221100071ADDAA199004091AY111061GF106991041051012501031001IA1089KA1999N+00611MD1210061+9999
0057104190999991936052712004+51217+007633FM-12+013699999V0203201N00261220001CN0020001N9+01891+99999101981ADDAY111061GF101991011011008001001001MD1810041+9999MW1051
0089286420999991936031103004+55150+061150FM-12+022799999V0203201N002619999999N0040001N9-00281+99999102301ADDAY121999GF108991001001999999021999HL10009IA1319IA2999-01009KA1999N-00501MD1310141+9999
0081234050999991936092116004+65483+052167FM-12+003799999V0202901N00461007501CN0100001N9+00391+99999100831ADDAA199002091AY181999GF107991071061008001999999IA1109KA1999M+00721MD1310061+9999
0037103590999991936082506004+52533+011433FM-12+001699999V0202701N00461030001CN0100001N9+99999+99999999999ADDAY111999GF106991021011012501031999
0057116430999991936041409004+50750+015733FM-12+049199999V0202301N01231000151CN0000001N9-00111-00171098331ADDAY141999GF109991091999000251999999MD1210061+9999MW1451
0037153600999991936022512004+45150+029667FM-12+000299999V0203201N00671001501CN0040001N9+00281+00061100831ADDAY121999GF108991081051001501001999
0051122950999991936010312004+53133+023167FM-12+013599999V0201601N00461007801CN0100001N9+00391+00171100311ADDAY111999GF108991081051008001999999MD1810141+9999
0037024120999991936051006004+60167+013783FM-12+019399999V0209991C00001220001CN0500001N9+01221+99999102341ADDAY101999GF100991001001999999001999
0029719094999991936052105004+62833-069900FM-12+001699999V02099999999999999999N9999999N9+99999+99999999999ADDKA1999M-00281KA2999N-00781
0097125390999991936070106004+50267+018667FM-12+007599999V0209991C00001030001CN0020001N9+02111+01671101241ADDAY121999GF106991021051012501031001IA1009KA1999N+01391MW1051EQDQ01+000032APCTENQ02+000002APC3  
0087307580999991936042711004+52050+113317FM-12+066599999V0201101N001019999999N0020001N9+00111+99999101581ADDAA199000691AY121999GF108991001001999999021999IA1209KA1999M+00501MD1810101+9999MW1501
0037164200999991936090506004+38200+015550FM-12+005499999V0209991C00001220001CN0100001N9+02391+99999101061ADDAY111999GF102991021999017501999999
0070236780999991936061001004+63167+088017FM-12+005599999V0200501N00671220001CN0200001N9+01281+99999101341ADDAY101999GF100991001001999999001001IA1009KA1999N+00781MD1110101+9999
0044719031999991936060801004+61300-064883FM-12+003999999V0203201N004619999999N0240001N9+00111+99999999999ADDGF101991001999999999999999MA1999999100441
0009726810241311936082308004+43567-116217SAO  +0874BOI  V0201351N004112200019N0240001N1+01411+00741999999ADDMW1001
0057374840999991936090816004+41650+041633FM-12+000399999V0203201N00101220001CN0500001N9+02391+99999099551ADDAY101999GF101991001001999999001011IA1009MD1610061+9999
0057105490999991936030512004+50850+010467FM-12+027999999V0201801N00101220001CN0020001N9+00281+00061099351ADDAY121061GF108991001001999999021999MD1310081+9999MW1051
0064385990999991936070414004+40217+069733FM-12+041199999V0202301N00101220001CN0200001N9+02781+99999100181ADDAY101999GF101991011011022501001001KA1999M+03281MD1610061+9999
0057249440999991936012817004+60367+120600FM-12+015299999V0209991C00001220001CN0020001N9-04391+99999999999ADDAY141999GF100991001001999999001001MD1310081+9999MW1421
0057010010999991936010812004+70983-008300FM-12+002399999V0203601N01231004501CN0100001N9-00501+99999100221ADDAY171999GF108991081051004501999001MD1810201+9999MW1701
0051104100999991936042112004+51400+006950FM-12+003799999V0203401N00461007801CN0100001N9+00721+00111100461ADDAY181061GF106991061061008001999999MD1990161+9999
0043104000999991936042515004+51283+006767FM-12+001199999V0202301N00101002401CN0040001N9+99999+99999999999ADDAY121031GF108991081051002501999999MW1051
0051121600999991936010415004+54150+019433FM-12+000299999V0202701N00461002401CN0100001N9+00281+00061100311ADDAY121999GF108991081051002501999999MD1310301+9999
0051101310999991936031303004+53867+008717FM-12+000199999V0203601N006719999999N0100001N9+00001+99999101621ADDAY121999GF108991081999999999999999MD1310021+9999
0044719350999991936063001004+60850-115767FM-12+016199999V0203201N002119999999N9999999N9+01111+99999999999ADDGF107991011999999999999999MA1999999099091
0070104100999991936061706004+51400+006950FM-12+003799999V0201601N00101220001CN0200001N9+02111+01171102101ADDAY101061GF101991001001999999001011IA1009KA1999N+01221MD1310021+9999
0029710633999991936072501004+61150-113617FM-12+015899999V0200901N008719999999N9999999N9+01611+99999999999ADDGF108991081999999999999999
0043122950999991936071412004+53133+023167FM-12+013599999V0202001N00261004501CN0100001N9+02221+01281100911ADDAY121999GF108991081091004501999999MW1171
0051102540999991936060215004+52833+011200FM-12+001599999V0203201N00261220001CN0100001N9+01721+00171101681ADDAY121999GF104991041011008001001081MD1710101+9999
0124234720999991936100501004+65783+087950FM-12+004599999V0200201N001019999999N0100001N9-00281+99999101171ADDAJ100009199999999AY111999GF107991999001017501071001IA1139KA1999N-00281EQDQ01+000002SCOTLCQ02+000032APCTENQ03+000002APC3  
0072100080999991936020118004+54833+014367FM-12+999999999V0202701N00671220001CN0040001N9+00391-02942098901ADDAY101999GF100991001001999999001001EQDQ01+000902SCOLCBQ02+024383ATOD  
0051341720999991936011910004+51533+046050FM-12+006699999V0201601N00461004201CN0040001N9-01111+99999103201ADDAY121999GF108991081051004501999999MD1990061+9999
0037038940999991936062312004+49450-002550FM-12+005399999V0209991C00001007801CN0100001N9+01721+99999102301ADDAY111999GF106991061081008001001999
0078835870999991936122812004-19933-043933FM-12+091599999V0203201N001019999999N0010001N9+01891+99999101261ADDAA124027091GF106991999999999999999999IA1089KA1999M+03111KA2999N+01781MW1601
0057288790999991936041020004+53267+069383FM-12+020999999V0201401N00461012001CN0020001N9+00001+99999102051ADDAY121999GF108991081051012501001999MD1990181+9999MW1101
0037124900999991936012606004+51550+021850FM-12+012199999V0201101N00261030001CN0040001N9+00001-00221101001ADDAY121999GF108991041051008001021999
0051307580999991936022605004+52050+113317FM-12+066599999V0203601N00101075001CN0100001N9-01721+99999103061ADDAY101999GF106991001001999999001091MD1310221+9999
0056025100999991936081512004+58383+012333FM-12+005499999V0200501N00261220001CN0100001N9+02111+99999101571ADDAY111999GF104991999001008001031999EQDQ01+000002SCOTLC
0070351210999991936120703004+51750+055100FM-12+010899999V0203601N00671220001CN0100001N9-00611+99999103821ADDAY101999GF101991001001999999001011IA1159KA1999N-00721MD1310101+9999
0037108560999991936011303004+48183+010867FM-12+016899999V0200701N01231000151CN0005001N9-00111-00171102551ADDAY111031GF108991999999000251999999
0051236780999991936072107004+63167+088017FM-12+005599999V0202301N006719999999N0200001N9+02611+99999101331ADDAY101999GF199999001001999999031001MD1810121+9999
0070296980999991936061600004+54883+099033FM-12+041599999V0201401N00101030001CN0200001N9+01281+99999100981ADDAY111999GF107991021051008001071081IA1009KA1999N+00611MD1310061+9999
0037103840999991936050616004+52483+013433FM-12+001799999V0200701N00931220001CN0200001N9+99999+99999999999ADDAY121999GF104991021011012501071999
0091072070999991936071118004+47300-003267FM-12+004599999V0202701N004619999999N0040001N9+01611+99999101941ADDAY111999GF107991021999004501071001IA1009KA1999M+01721EQDQ01+000032APCTENQ02+000002APC3  
0054121000999991936070418004+54183+015567FM-12+000699999V0202701N00101220001CN0100001N9+02001+99999101491ADDAA199006091AY121999GF104991041071012501001001IA1009
0043100020999991936062318004+53767+006067FM-12+999999999V0203601N00101000151CN0000501N9+01501+01441999999ADDAY141999GF107991071051000251001001MW1441
0076249440999991936022205004+60367+120600FM-12+015299999V0209991C00001220001CN0200001N9-03111+99999999999ADDAY141999GF102991001001999999001081MD1990101+9999MW1101EQDQ01+000902WODIR 
0040710950999991936041505004+72700-078000FM-12+000399999V02099999999999999999N9999999N9+99999+99999999999ADDAA124003091KA1999M-01441KA2999N-02111
0074037770999991936030218004+51350-000117FM-12+006699999V0203401N00461007801CN0200001N9+00391+99999100241ADDAA199001091AY181999GF107991071081008001999999IA1089MD1210221+9999MW1121
0025691174999991936110616004+39833-076117SAO  +0002KQAH V0200451N004610117019N0048001N1+01021+00351103391ADDGA1061+999999059MW1051
0051339940999991936082911004+44617+033533FM-12+000899999V0203201N00931220001CN9999999N9+02001+99999101661ADDAY161999GF101991011021012501001001MD1210021+9999
0087103610999991936092918004+52133+011717FM-12+001499999V0202501N00261220001CN0100001N9+00891+00061101981ADDAA199000691AY181999GF101991011041012501001999IA1009KA1999M+01281MD1210061+9999MW1051
0009726810241311936020906004+43567-116217SAO  +0874BOI  V0209991C000012200019N0128001N1-01311-01591999999ADDMW1001
0051105130999991936032312004+50983+006900FM-12+001599999V0202001N00261030001CN0200001N9+01891+00331100351ADDAY121061GF107991041051017501071011MD1310021+9999
0057104770999991936061109004+51333+012650FM-12+004999999V0202001N00461030001CN0040001N9+01391+01171101191ADDAY151031GF108991041061004501021999MD1210021+9999MW1051
0057101130999991936061118004+53700+007150FM-12+000499999V0203201N00671030001CN0200001N9+01221+00611101361ADDAY121999GF108991041051004501021999IA1009MD1990021+9999
0087104530999991936040718004+51800+010617FM-12+034899999V0203601N00671000151CN0000001N9-00281-00331099091ADDAA199002091AY181061GF109991091999000251999999IA1309KA1999M-00281MD1310081+9999MW1471
0049856400999991936082912004-35317-072417FM-12+000599999V0200501N001019999999N0040001N9+01001+99999101711ADDAY101999GF107991071051999999001001IA1089MW1031
0070351080999991936030816004+51200+051367FM-12+003899999V0203601N00461220001CN0100001N9-00721+99999103661ADDAY101999GF100991001001999999001001IA1309KA1999M+00001MD1310181+9999
0124380010999991936010304004+44550+050250FM-12-002399999V0201101N00671220001CN0000501N9-00391+99999103131ADDAJ100009199999999AY121999GF104991001001999999001051IA1139KA1999N-00501EQDQ01+000972SCOLCBQ02+000032APCTENQ03+000002APC3  
0072832290999991936060612004-12817-038317FM-12+000999999V0200901N004619999999N9999999N9+02501+99999101541ADDAA124005091GF107991999999999999999999KA1999M+02721KA2999N+02221MW1501
0070202740999991936041008004+77550+082200FM-12+001099999V0202901N00461220001CN0000501N9-01721+99999101811ADDAY111999GF101991999001999999041001MD1310201+9999EQDQ01+000002SCOTLC
0072389110999991936041721004+37833+065250FM-12+024299999V0202701N01231220001CN0100001N9+02111+99999101041ADDAY101999GF106991001001999999001041EQDQ01+000042APCTENQ02+000102APC3  
0070129200999991936031706004+46767+017233FM-12+014199999V0200501N00461220001CN0100001N9+00221+00001102061ADDAY111999GF104991001001999999041051IA1089KA1999N+00221MD1310101+9999
0057286980999991936070714004+54917+073400FM-12+009499999V0203401N006719999999N0100001N9+01721+99999101261ADDAY121999GF108991081999004501999999IA1009MD1310021+9999
0119167440999991936042418004+36417+025433FM-12+022399999V0202701N012319999999N0100001N9+01781+01391999999ADDAA199000691AJ100009199999999AY161999GF108991999021999999031999IA1009KA1999M+99999EQDQ01+000082SCOTLCQ02 +01722ATMX  
0070074300999991936090206004+45700+002250FM-12+076599999V0209991C00001220001CN0100001N9+01111+99999102401ADDAY101999GF100991001001999999001001IA1009KA1999N+00781MD1310021+9999
0051105540999991936030312004+51017+011033FM-12+005699999V0209991C00001007801CN0200001N9+00721+00331100931ADDAY121061GF108991061051008001071999MD1110041+9999
0078338370999991936080205004+46483+030733FM-12+006599999V0201601N00461220001CN9999999N9+02721+99999100511ADDAY101999GF101991011011012501001001IA1009EQDQ01+000042APCTENQ02+000062APC3  
0037167340999991936072212004+36833+021717FM-12+002599999V0203201N00261220001CN0200001N9+03001+99999100621ADDAY101999GF100991001001999999001001
0051389870999991936021109004+35283+062350FM-12+062799999V0202001N00671220001CN0040001N9+02282+99999101251ADDAY111999GF107991001001999999001041MD1810261+9999
0057100450999991936091306004+54450+010200FM-12+999999999V0201401N00931220001CN0100001N9+01221+99999102401ADDAY111999GF102991001001999999021021IA1009MD1310021+9999
0043370180999991936052704004+44100+039067FM-12+007999999V0209991C00001015001CN0100001N9+99999+99999999999ADDAY161999GF108991081051017501999999MW1611
0057100010999991936101021004+53600+006700FM-12+000499999V0200501N00461002401CN0100001N9+00611+00391102331ADDAY121999GF109991091999999999999999MD1110021+9999MW1251
0102038140999991936122907004+49950-005200FM-12+007399999V0201901N009319999999N0200001N9+01061+01001101251ADDAA124999999GA1011+999999019GF107991071081008001999999IA1089KA1999M+01061KA2999N+00941MD1310041+9999
0057351210999991936012821004+51750+055100FM-12+010899999V0202701N00101012001CN0040001N9-00891+99999101751ADDAY171999GF108991081051012501999999MD1310101+9999MW1711
0065037750999991936111318004+51467-000317FM-12+000599999V0209991C000019999999N0020001N9+00781+00561101881ADDGA1011+999999019GF106991061051012501001001IA1089MD1310201+9999
0072356630999991936101021004+47933+066750FM-12+048699999V0209991C00001220001CN0020001N9+00611+99999999999ADDAY101999GF100991001001999999001001EQDQ01+000032APCTENQ02+000002APC3  
0043875740999991936030517004-34667-058633FM-12+002599999V0200501N00261220001CN0500001N9+99999+99999999999ADDAY101999GF102991021999012501999999MW1001
0070233300999991936111015004+66533+066600FM-12+003599999V0202301N004619999999N0200001N9+00001+99999101591ADDAY121999GF108991001001999999011999IA1319KA1999M+00221MD1710061+9999
0076219820999991936041901004+70967-178550FM-12+000399999V0203401N019019999999N0040001N9-00891+99999101091ADDAY131999GF108991999001022501021999MD1810091+9999MW1381EQDQ01+000002SCOTLC
0029719460999991936123000004+61867-121350FM-12+012799999V0203601N006219999999N9999999N9-01331+99999102371ADDGF108991081999999999999999
0009722640930351936121116004+30367-104017SAO  +1481MRF  V0201351N000512200019N0800001N1+00461-00151102301ADDMW1001
0057106090999991936012909004+49750+006667FM-12+008199999V0201601N01231002401CN0040001N9+00721+99999099461ADDAY161031GF108991081051002501999999MD1810061+9999MW1601
0089101130999991936031506004+53700+007150FM-12+000499999V0203201N00671004501CN0200001N9+00281-00111102101ADDAA199000691AY121999GF108991081051004501999999IA1309EQDQ01+000032APCTENQ02+000002APC3  
0057030050999991936021018004+60150-001133FM-12+004899999V0202301N00671220001CN0200001N9+00281+99999102571ADDAY101999GF100991001001999999001001IA1009MD1610061+9999
0051286420999991936072809004+55150+061150FM-12+022799999V0200201N00461012001CN0200001N9+02281+99999101051ADDAY111999GF107991071091012501999999MD1310021+9999
0043026400999991936030218004+56383+014817FM-12+017399999V0203401N00101220001CN0002001N9+00001+99999100381ADDAY141999GF100991001001999999001999MW1461
0037134550999991936112706004+42433+018600FM-12+000599999V0200201N00461220001CN0100001N9+00501+00111101481ADDAY101999GF100991001001999999001999
0051107080999991936020912004+49217+007033FM-12+018999999V0203601N00261220001CN0040001N9+00001+99999101661ADDAY111061GF102991021051004501001001MD1810121+9999
0076029750999991936091506004+60250+025033FM-12+001599999V0203601N00101220001CN0020001N9+01221+99999102481ADDAY101999GF100991001001999999001001IA1009KA1999N+00721MD1310061+9999MW1121
0059035780999991936062513004+52367+000467FM-12+000599999V0203201N004619999999N0100001N9+01941+01501102191ADDGA1011+999999019GF108991081051004501999999MD1310021+9999
0070277030999991936110617004+54517+036250FM-12+019199999V0202001N00261004201CN0020001N9+00281+99999103031ADDAY141999GF108991081061004501999999IA1089KA1999M+00501MD1110021+9999
0037268250999991936011506004+53667+023833FM-12+012799999V0202701N00671002401CN0040001N9+00001-00061100111ADDAY171999GF108991081051002501999999
0009726770240331936102022004+45800-108533SAO  +1088BIL  V0200451N004110030019N0128001N1+00191+00081999999ADDMW1711
0025727640240111936080821004+46767-100750SAO  +0506BIS  V0203151N007212200019N0192001N1+03791+00911999999ADDGA1999+024009999MW1001
0078010280999991936032406004+74467+019283FM-12+002999999V0202501N00261220001CN0500001N9-02001+99999103651ADDAY101999GF100991001001999999001001IA1309EQDQ01+000032APCTENQ02+000002APC3  
0009725310148061936092010004+40300-088133SAO  +0228RAN  V0202251N001012200019N0112001N1+01301+01131101801ADDMW1001
0065033010999991936110213004+53217-003000FM-12+005299999V0200901N002619999999N0020001N9+01221+00781101891ADDGA1011+999999019GF106991041081012501071001MD1310061+9999MW1051
0078353580999991936111515004+49633+063500FM-12+012199999V0203401N00261220001CN0100001N9+00221+99999103031ADDAY111999GF100991001001999999001001IA1009EQDQ01+000032APCTENQ02+000002APC3  
0081279620999991936011204004+53183+045017FM-12+013799999V0201401N00461004201CN0100001N9-01001+99999101251ADDAA199000691AY121999GF108991081061004501999999IA1309KA1999N-01221MD1810221+9999
0057108650999991936062303004+48183+011550FM-12+015599999V0202301N00261220001CN0020001N9+01611+01561101811ADDAY111031GF104991011081017501011061MD1310021+9999MW1051
0078834920999991936091712004-17767-041433FM-12+032999999V0202301N001019999999N0002001N9+01781+99999101861ADDAA124009091GF106991999999999999999999IA1089KA1999M+02001KA2999N+01721MW1601
0025726810241311936081413004+43567-116217SAO  +0874BOI  V0201351N001012200019N0240001N1+01741+01191999999ADDGA1999+024009999MW1001
0043100130999991936112709004+53900+009133FM-12+000299999V0201601N00101001501CN0020001N9+99999+99999999999ADDAY151999GF108991081051001501999999MW1501
0068010980999991936090106004+70367+031100FM-12+001299999V0202701N00461004501CN0500001N9+00721+99999100161ADDAA199000691AY181999GF107991071051004501999999IA1089MD1310061+9999
0089341720999991936071504004+51533+046050FM-12+006699999V0200501N00261220001CN0040001N9+02501+99999101221ADDAY111999GF102991999001999999031001IA1009KA1999N+02001MD1310061+9999EQDQ01+000002SCOTLC
0059033960999991936120801004+53583-000117FM-12+000999999V0202001N006719999999N0040001N9+00001-00061102761ADDGA1011+999999019GF104991001001999999011001MD1810181+9999
0037334150999991936102518004+49550+025600FM-12+031899999V0201801N00101220001CN0040001N9+00281+00061102351ADDAY101999GF100991001001999999001999
0051102740999991936050112004+53350+012733FM-12+002299999V0203401N00461220001CN0200001N9+01111+00501102241ADDAY121999GF106991041081008001001061MD1310021+9999
0063859340999991936103012004-52867-070883FM-12+003499999V0203201N002619999999N0200001N9+00501+99999100761ADDAY101999GF108991081071999999999999IA1009MD1310041+9999MW1031
0087104880999991936012406004+51133+013767FM-12+007099999V0202501N01901220001CN0100001N9+00001-00331101131ADDAA199007091AY111061GF104991021051012501031011IA1159KA1999N-00111MD1310031+9999MW1051
0029710950999991936050613004+72700-078000FM-12+000399999V0209991C000019999999N0500001N9-01281+99999999999ADDGF100991001999999999999999
0076206670999991936052608004+73333+070033FM-12+000699999V0201601N006719999999N0010001N9-00111+99999099501ADDAY171999GF108991999001004501071999MD1810041+9999MW1731EQDQ01+000002SCOTLC
0062167540999991936040718004+35333+025267FM-12+002699999V0201401N00101220001CN0200001N9+01501+99999101841ADDAY101999GF104991999001999999021001IA1009EQDQ01+000002SCOTLC
0051375450999991936052310004+41717+044800FM-12+040999999V0201401N00461036001CN0100001N9+02001+99999102021ADDAY111999GF108991021011008001011001MD1810101+9999
0065038640999991936052018004+50817-001300FM-12+000299999V0203601N012319999999N0200001N9+01441+00561101731ADDGA1011+999999019GF107991011081008001031001IA1009MD1310081+9999
0127345230999991936071004004+48583+039267FM-12+006299999V0209991C00001220001CN0040001N9+02001+99999101151ADDAJ100009199999999AY101999GF100991001001999999001001HL10009IA1009IA2999+01229KA1999N+01391EQDQ01+000032APCTENQ02+000002APC3  
0057121140999991936092106004+54433+016383FM-12+000299999V0200901N00461220001CN0040001N9+01501+01441102611ADDAY101999GF100991001001999999001001MD1610061+9999MW1051
0051265100999991936112306004+55150+020867FM-12+000199999V0202701N00671007801CN0040001N9+00501+99999102601ADDAY121999GF108991081051008001999999MD1810061+9999
0037043350999991936060218004+73483-021567FM-12+000399999V0201401N00461002401CN0200001N9-00111+99999102171ADDAY121061GF108991081051002501999999
0057122000999991936112206004+53917+014283FM-12+999999999V0202301N00261004501CN0040001N9+00281+00221102901ADDAY121999GF108991081051004501999999IA1089MD1610121+9999
0077167330999991936092206004+37117+026867FM-12+006299999V0203401N00261220001CN9999999N9+02111+99999102091ADDGF100991999001999999001001KA1999N+02001EQDQ01+000032APCTENQ02+000002APC3  
0065038140999991936100218004+49950-005200FM-12+007399999V0200901N006719999999N0100001N9+01281+01221102241ADDGA1011+999999019GF108991071051008001021999IA1009MD1810021+9999
0106381980999991936051502004+43300+068283FM-12+002199999V0209991C000019999999N0200001N9+02001+99999100461ADDAJ100009199999999AY111999GF106991999001999999011001IA1009KA1999N+01611MD1110061+9999EQDQ01+000002SCOTLC
0070308790999991936012311004+51317+119617FM-12+062699999V0202701N00101220001CN0040001N9-03111+99999104201ADDAY101999GF100991001001999999001001IA1319KA1999M-02781MD1310061+9999
0037104000999991936072815004+51283+006767FM-12+001199999V0202701N00261220001CN0200001N9+99999+99999999999ADDAY121031GF102991021081008001071999
0037134740999991936070406004+42883+020883FM-12+052199999V0209991C00001220001CN0200001N9+01781+01331101331ADDAY111999GF102991011041017501001999
0037085360999991936052212004+38733-009183FM-12+022799999V0203401N00261220001CN0040001N9+01611+99999101651ADDAY101999GF102991011999008001999999
0057101510999991936042303004+53967+010867FM-12+999999999V0203601N00261007801CN0100001N9+00281+99999100691ADDAY161999GF108991081061008001999999MD1310121+9999MW1601
0057319960999991936050110004+43733+135267FM-12+000899999V0203201N001019999999N0100001N9+99999+99999101011ADDAY111999GF108991001001999999071999IA1089MD1310161+9999
0057104270999991936102309004+51183+008483FM-12+025799999V0202901N00101000151CN0000501N9+00891+00831100741ADDAY151031GF109991091999000251999999MD1310081+9999MW1451
0084265090999991936110106004+55717+021133FM-12+000399999V0201601N00101220001CN0020001N9+00391+99999101861ADDAY111999GF104991021011008001001011IA1009MW1051EQDQ01+000042APCTENQ02+000022APC3  
0070230320999991936051703004+69717+066800FM-12+001799999V0203401N006719999999N0100001N9-00501+99999100031ADDAY141999GF108991081999008001999999IA1309KA1999N-01281MD1210041+9999
0085066800999991936031712004+47250+009333FM-12+250199999V0200501N00671220001CN0500001N9-01111+99999999999ADDAY101999GF101991999051000251001051MA1999999074651MD1310041+9999EQDQ01+000002SCOTLC
0089135860999991936012206004+41983+021467FM-12+024099999V0209991C00001012301CN0010001N9+00221+00171102011ADDGF108991081051012501999999IA1009KA1999N+00111MW1421EQDQ01+000042APCTENQ02+000102APC3  
0057380010999991936092816004+44550+050250FM-12-002399999V0203601N00461220001CN0010001N9+02001+99999101061ADDAY111999GF102991021011008001001001IA1009MD1310061+9999
0067833610999991936102012004-15583-056100FM-12+016599999V0203601N002619999999N0100001N9+02721+99999101261ADDGF106991999999999999999999IA1009KA1999M+03111KA2999N+02221MW1111
0070202920999991936042618004+77717+104283FM-12+000699999V0209999C00001220001CN0040001N9-01781+99999102361ADDAY101999GF102991999001999999051001MD1310141+9999EQDQ01+000002SCOTLC
0025726810241311936081019004+43567-116217SAO  +0874BOI  V0203151N005112200019N0240001N1+03181+01411999999ADDGA1999+021009999MW1001
0070071100999991936081106004+48333-004767FM-12+003299999V0203601N00261007801CN0200001N9+01501+99999101651ADDAY121999GF107991071051008001001001IA1009KA1999N+01391MD1310081+9999
0051372600999991936022810004+42983+040967FM-12+000899999V0201801N00671220001CN0200001N9+01111+99999102691ADDAY111999GF102991011071012501061011MD1990181+9999
0037109650999991936100209004+47450+011267FM-12+027799999V0203601N00101002401CN0040001N9+99999+99999999999ADDAY121999GF108991081061002501999999
0102029750999991936060218004+60250+025033FM-12+001599999V0202301N00671007801CN0040001N9+01611+99999100751ADDAA199002091AY121999GF107991061091008001071071IA1009KA1999M+01891EQDQ01+000022APCTENQ02+000002APC3  
0029719660999991936050712004+64067-139483FM-12+032499999V0201801N004619999999N0040001N9+00221+99999100511ADDGF108991081999999999999999
0070108660999991936071318004+48183+011550FM-12+052099999V0202501N002610360019N0500001N9+01781+99999101421ADDAY121061GF108991041071012501021999IA1089KA1999M+01891MD1610081+9999
0065033010999991936040213004+53217-003000FM-12+005299999V0200801N004619999999N0040001N9+00891+00441101801ADDGA1011+999999019GF108991081021004501999999MD1310201+9999MW1611
0051105780999991936062012004+50433+012950FM-12+037099999V0203201N00261001501CN0100001N9+01721+01281100391ADDAY121061GF107991071001001501999031MD1810021+9999
0076100010999991936082718004+53600+006700FM-12+000499999V0200501N00461220001CN0100001N9+01721+00831102921ADDAY101999GF100991001001999999001001IA1009MD1710041+9999EQDQ01+000902SCOLCB
0043166270999991936073106004+40850+025883FM-12+001399999V0200901N00261220001CN0200001N9+02891+99999101041ADDAY101999GF100991001001999999001001IA1009
0051296340999991936051019004+54967+082950FM-12+013399999V0202301N00461220001CN0100001N9-00111+99999101501ADDAY121999GF104991001001999999001021MD1710081+9999
0051103840999991936092619004+52483+013433FM-12+001799999V0203601N00461030001CN0200001N9+00781+00171101191ADDAY121999GF107991021051017501071999MD1110021+9999
0057101200999991936010106004+54183+007883FM-12+005099999V0201801N006719999999N0040001N9+00611+99999100031ADDAY121999GF108991081999999999999999IA1089MD1210061+9999
0043020500999991936122718004+68417+018117FM-12+050899999V0202901N01541000151CN0000001N9-00891+99999100621ADDAY171999GF108991081061000251999999MW1751
0057267020999991936082315004+54733+020567FM-12+000999999V0202901N00461220001CN0200001N9+01721+01281101431ADDAY181999GF104991041081008001031001MD1310041+9999MW1251
0081238490999991936121514004+61250+073400FM-12+004099999V0200901N00261220001CN0002001N9-01781+99999999999ADDAA199000391AY111999GF100991001001999999001001IA1319KA1999M-01781MD1810061+9999
0127035310999991936030807004+52483-001933FM-12+016399999V0201601N002619999999N0000501N9+00501+00441100991ADDAA199001091GA1011+999999019GF108991081999999999999999IA1089KA1999M+00781KA2999N+00391MD1310121+9999MW1441EQDQ01+000452PRSWM1
0070071900999991936062006004+48550+007633FM-12+015499999V0209991C00001220001CN0040001N9+01891+99999101541ADDAY101999GF101991001001999999001031IA1009KA1999N+00501MD1010001+9999
0057267020999991936122412004+54733+020567FM-12+000999999V0202701N01541001501CN0020001N9+00281+00221100821ADDAY161999GF108991081051001501999999MD1810501+9999MW1631
0043103570999991936021112004+52833+013700FM-12+001399999V0202701N00671002401CN0005001N9+99999+99999999999ADDAY171999GF108991081051002501999999MW1731
0025722860231191936030411004+33900-117250SAO  +0466RIV  V0203601N000512200019N0160001N9+00691+00461101151ADDGA1001+999999999MW1001
0051067700999991936011612004+46000+008950FM-12+027699999V0201801N00101007801CN0040001N9+00501+99999101501ADDAY121999GF108991081051008001999999MD1990141+9999
0051103160999991936071512004+51967+008550FM-12+004499999V0201801N01231007801CN0200001N9+01781+99999099931ADDAY121999GF106991061061008001999999MD1310061+9999
0093100010999991936012318004+53600+006700FM-12+000499999V0202301N009319999999N0020001N9+00391+00331100291ADDAA199008091AY121999GF108991999999999999999999IA1089MD1310081+9999MW1051EQDQ01+000092SCOTLC
0110030260999991936020607004+58217-006333FM-12+000399999V0201801N012319999999N0100001N9+00721+00501101521ADDGA1011+999999019GF108991061051004501071999IA1089KA1999M+99999KA2999N+00331MD1810081+9999EQDQ01 +00392ATMX  
0057122000999991936072612004+53917+014283FM-12+999999999V0203201N00671004501CN0200001N9+01781+01561101441ADDAY191999GF107991071091004501031999MD1310121+9999MW1161
0057257770999991936080101004+62300-179050FM-12+999999999V0202301N002619999999N0200001N9+00781+99999101221ADDAY141999GF108991001001999999031999MD1310021+9999MW1101
0057111770999991936022706004+47683+015867FM-12+046299999V0202701N00101012301CN0020001N9+00001+99999101721ADDAY121061GF107991071061012501001001MD1310061+9999MW1051
0057123750999991936012818004+52183+020967FM-12+010799999V0203201N00261000151CN0005001N9+00391+00331100781ADDAY141999GF109991091999000251999999MD1110021+9999MW1471
0037121120999991936052912004+54167+017500FM-12+003899999V0202701N00671015001CN0100001N9+99999+99999999999ADDAY121999GF106991061051017501001999
0070388040999991936061821004+38567+063183FM-12+018699999V0203601N00461220001CN0100001N9+02781+99999100711ADDAY101999GF100991001001999999001001MD1310041+9999EQDQ01+000032SCOHCG
0051101270999991936101003004+53533+008150FM-12+000299999V0200901N002619999999N0040001N9+00611+00561102261ADDAY111999GF108991081999999999999999MD1310181+9999
0087105130999991936060406004+50983+006900FM-12+001599999V0203201N00461007801CN0020001N9+01001+00941100611ADDAA199018091AY161061GF108991081051008001999999IA1089KA1999N+01001MD1810061+9999MW1611
0037167340999991936081506004+36833+021717FM-12+002599999V0203201N00101220001CN0200001N9+02501+99999101411ADDAY101999GF100991001001999999001999
0056026400999991936020118004+56383+014817FM-12+017399999V0209991C000019999999N0010001N9+00111+99999098431ADDAY171999GF108991999001022501021999EQDQ01+000002SCOTLC
0043104330999991936081209004+51400+008567FM-12+013799999V0202301N00261000151CN0005001N9+99999+99999999999ADDAY141031GF109991091999000251999999MW1451
0136351880999991936091702004+51167+071433FM-12+035399999V0203201N00931007501CN0040001N9+00611+99999101351ADDAA199004091AJ100009199999999AY121999GF108991999051008001021999HL10009IA1089IA2999+00619KA1999N+00611MD1210141+9999EQDQ01+000082SCOTLC
0043106770999991936020509004+50000+011633FM-12+011399999V0202901N00261002401CN0040001N9+99999+99999999999ADDAY171031GF108991071051002501001999MW1701
0043166060999991936041206004+41083+023567FM-12+002899999V0201101N00261220001CN0005001N9+01391+99999099441ADDAY161999GF104991001001999999041999MW1461
0037385990999991936010820004+40217+069733FM-12+041199999V0209991C00001220001CN0100001N9-00721+99999103531ADDAY101999GF100991001001999999001001
0056166060999991936030312004+41083+023567FM-12+002899999V0202301N00101220001CN0200001N9+02001+99999101911ADDAY101999GF101991999001999999041001EQDQ01+000002SCOTLC
0070101800999991936100206004+54350+012733FM-12+000199999V0203601N00461004501CN0100001N9+00721+00331102071ADDAY121999GF106991061081004501011001IA1009KA1999N+00721MD1310101+9999
0102264980999991936092317004+56267+034333FM-12+019799999V0202301N00671007501CN0100001N9+01391+99999100791ADDAA199000391AY121999GF106991061051008001001001IA1089KA1999M+01721EQDQ01+000022APCTENQ02+000002APC3  
0073375450999991936112216004+41717+044800FM-12+040999999V0202001N00261036001CN0010001N9+00501+99999101841ADDAA199007091AY161999GF108991011061008001021999IA1109KA1999M+00721MW1611
0081335870999991936090105004+48750+030217FM-12+021999999V0202701N00461004201CN0040001N9+01281+99999100471ADDAA199003091AY161999GF106991061061004501999999IA1089KA1999N+01111MD1410001+9999
0057021270999991936040812004+65067+017167FM-12+032899999V0201801N00101002401CN0010001N9-00281+99999100071ADDAY121999GF108991081999002501999999MD1810241+9999MW1851
0043126250999991936072118004+49300+018950FM-12+084199999V0202301N00101001501CN0020001N9+01281+01221099681ADDAY161999GF108991081051001501999999MW1611
0051103840999991936081115004+52483+013433FM-12+001799999V0201401N00461220001CN0200001N9+02611+00941101361ADDAY111999GF104991021011017501001061MD1810101+9999
0070330380999991936021705004+52267+029833FM-12+013799999V0200501N00101220001CN0020001N9-02111+99999102021ADDAY101999GF100991001001999999001001IA1309KA1999N-02111MD1310021+9999
0106310050999991936122711004+58967+126267FM-12+030899999V0209991C000019999999N0100001N9-02281+99999101192ADDAA199000591AY171999GF108991001001999999011999IA1319KA1999M-02001MD1210061+9999MW1701EQDQ01+101193APOSLP
0116360030999991936121602004+52283+076950FM-12+012799999V0201401N004619999999N0020001N9-01001+99999102831ADDAA199000691AY171999GF108991999001022501021999IA1319KA1999N+99999MD1810041+9999EQDQ01+000002SCOTLCQ02 -00282ATMN  
0037109650999991936082209004+47450+011267FM-12+027799999V0203601N00101021001CN0040001N9+99999+99999999999ADDAY111999GF106991061021022501001999
0056154200999991936080706004+44483+026133FM-12+009299999V0201101N00101007801CN0040001N9+02001+99999102111ADDAY111999GF106991061071008001001999EQDQ01 -01893ATOD  
0051115190999991936052512004+50067+014433FM-12+025499999V0203201N00101030001CN0040001N9+01781+99999101561ADDAY111999GF106991041081008001041001MD1210021+9999
0070284400999991936061215004+56733+060633FM-12+028899999V0200501N00461220001CN0100001N9+02221+99999101411ADDAY111999GF104991001001999999001081IA1009KA1999M+02501MD1810021+9999
0070260630999991936112317004+59983+030283FM-12+000599999V0202501N00261220001CN0100001N9+00221+99999101901ADDAY101999GF100991001001999999001001IA1189KA1999M+00281MD1310141+9999
0037104340999991936012712004+51533+009017FM-12+006199999V0202501N00101004501CN0020001N9+99999+99999999999ADDAY121061GF108991081051004501999999
0037104000999991936120306004+51283+006767FM-12+001199999V0202901N00261007801CN0040001N9+99999+99999999999ADDAY121061GF107991071051008001001999
0070070550999991936011806004+49450+002100FM-12+010099999V0202501N00931220001CN0100001N9+00111+99999100271ADDAY101999GF104991001001999999041011IA1139KA1999N-00111MD1990141+9999
0076135860999991936022706004+41983+021467FM-12+024099999V0209991C00001000151CN0000501N9+00001-00061102171ADDAY141999GF109991091999000251999999IA1089KA1999N-00111MD1310181+9999MW1471
0037122700999991936042606004+53117+020483FM-12+015599999V0200901N00261220001CN0040001N9+00781+00561101981ADDAY121999GF104991041051004501999999
0065033960999991936062618004+53583-000117FM-12+000999999V0201401N002619999999N0200001N9+01391+01171102091ADDGA1011+999999019GF102991001001999999071001IA1009MD1810041+9999
0009726810241311936102421004+43567-116217SAO  +0874BOI  V0203151N006712200019N0240001N1+01631+00131999999ADDMW1001
0051105440999991936012112004+50500+009933FM-12+028299999V0202001N02261004501CN0100001N9+00111-00111098421ADDAY121061GF107991071041004501999999MD1990101+9999
0037122320999991936093012004+53117+017967FM-12+002199999V0202901N00261220001CN0100001N9+01391+00721101321ADDAY111999GF104991041081004501999999
0051103840999991936101000004+52483+013433FM-12+001799999V0200501N00261220001CN0200001N9+00281+00061102171ADDAY111999GF104991041051017501001001MD1810021+9999
0009726810241311936021505004+43567-116217SAO  +0874BOI  V0201801N001512200019N0192001N1-00811-01091999999ADDMW1001
0037125110999991936101412004+50767+016283FM-12+013199999V0202701N00461007801CN0100001N9+99999+99999999999ADDAY111999GF107991061081008001041999
0070121500999991936110315004+54383+018600FM-12+000599999V0202301N004619999999N0100001N9+00721+00331101131ADDAY161999GF108991999001017501031999MD1310081+9999EQDQ01+000002SCOTLC
0108035780999991936110307004+52367+000467FM-12+000599999V0202001N002619999999N0010001N9+00671+00611101261ADDAA199000591GA1011+999999019GF108991081001004501021999IA1089KA1999M+01111KA2999N+00221MD1810081+9999MW1611
0051232420999991936072920004+67700+072950FM-12+000499999V0202301N00671007501CN0100001N9+01281+99999100551ADDAY121999GF108991071051008001001011MD1710161+9999
0067835520999991936101212004-19000-057483FM-12+014599999V0201801N002619999999N9999999N9+02611+99999101531ADDGF102991999999999999999999IA1009KA1999M+03281KA2999N+02001MW1111
0108381980999991936060202004+43300+068283FM-12+002199999V0200901N00931220001CN0200001N9+02611+99999100911ADDAJ100009199999999AY101999GF100991001001999999001001IA1009KA1999N+02111EQDQ01+000032APCTENQ02+000002APC3  
0043121120999991936061009004+54167+017500FM-12+003899999V0202701N00261004501CN0020001N9+99999+99999999999ADDAY161999GF108991081061004501999999MW1631
0061837820999991936032512004-23933-046150FM-12+000999999V02099999999999999999N9999999N9+03001+99999100761ADDGF102991999999999999999999KA1999M+03111KA2999N+02111MW1111
0056370990999991936121316004+43633+039750FM-12+999999999V0209991C00001220001CN0040001N9+00501+99999999999ADDAY141999GF102991011041008001061001IA1009KA1999M+01111
0070349290999991936102116004+45033+039650FM-12+003599999V0201801N00261220001CN0040001N9+01611+99999999999ADDAY111999GF102991999999999999999061IA1089KA1999M+02391MD1310061+9999
0051100080999991936011118004+54833+014367FM-12+999999999V0202901N01901220001CN0100001N9+00501+00441100401ADDAY101999GF100991001001999999001001MD1210421+9999
0037023160999991936070312004+61683+013117FM-12+045199999V0202301N00461004501CN0200001N9+02281+99999100561ADDAY121999GF106991061031004501999999
0091071100999991936091506004+48333-004767FM-12+003299999V0203201N00671220001CN0200001N9+01391+99999102611ADDAY111999GF102991021021008001001999IA1009KA1999N+01391EQDQ01+000032APCTENQ02+000002APC3  
0076105440999991936112818004+50500+009933FM-12+028299999V0200201N006719999999N0040001N9-00111-00171100131ADDAY121061GF108991021001000751999999IA1009KA1999M+00221MD1310101+9999MW1121
0072122990999991936122921004+52850+015667FM-12+001199999V0200901N00101220001CN0020001N9-00281-00331102731ADDAY101999GF100991001001999999001001EQDQ01+000032APCTENQ02+000002APC3  
0037105690999991936041515004+50533+012100FM-12+013799999V0201601N00461030001CN0100001N9+99999+99999999999ADDAY121031GF107991021051004501021999
0081070090999991936042018004+50967+001833FM-12+002799999V0202501N01231000151CN0005001N9+00721+99999100141ADDAA199017091AY141999GF109991091061000251999999IA1109KA1999M+00781MD1810361+9999
0065030260999991936122513004+58217-006333FM-12+000399999V0202701N006719999999N0040001N9+00941+00891103161ADDGA1011+999999019GF108991041031004501021999MD1310061+9999MW1501
0070107630999991936052418004+49483+011100FM-12+009699999V0203601N00101036001CN0200001N9+01501+00831101171ADDAY111061GF106991041041008001071001IA1009KA1999M+01611MD1310081+9999
0056347170999991936091805004+46750+036783FM-12+000299999V0203601N00461007501CN0100001N9+99999+99999999999ADDAY161999GF108991999051008001021999EQDQ01+000082SCOTLC
0072234720999991936060219004+65783+087950FM-12+004599999V0203601N00101007501CN0200001N9+00001+99999101971ADDAY121999GF107991061091008001061999EQDQ01+000032APCTENQ02+000002APC3  
0087228200999991936011005004+61783+034383FM-12+006799999V0202901N00261007501CN0020001N9-01281+99999102351ADDAA199000691AY121999GF108991081051008001999999IA1309KA1999N-01501MD1990141+9999MW1281
0051372280999991936062722004+43050+044483FM-12+066899999V0202501N00101220001CN0040001N9+01501+99999100921ADDAY121999GF104991001001999999001061MD1510061+9999
0051370500999991936102210004+44050+042083FM-12+057399999V0200501N00671036001CN0100001N9+01781+99999100741ADDAY121999GF107991041071012501071071MD1510221+9999
0037262410999991936063006004+58383+026717FM-12+008199999V0202701N00461007801CN0500001N9+01611+99999999999ADDAY111999GF107991071051008001031999
0072264980999991936092411004+56267+034333FM-12+019799999V0203201N00671220001CN0100001N9+01281+99999101451ADDAY111999GF104991041021012501001001EQDQ01+000042APCTENQ02+000242APC3  
0106385990999991936092602004+40217+069733FM-12+041199999V0209991C00001220001CN0200001N9+00891+99999101821ADDAJ100009199999999AY101999GF100991001001999999001001HL10009IA1009IA2999+00619KA1999N+00501MD1310141+9999
0070074600999991936012112004+45783+003150FM-12+033099999V0202001N00461007801CN0500001N9+01002+99999100451ADDAY111999GF106991061051008001001001MD1710101+9999EQDQ01+028323ATOT  
0081073150999991936111306004+45917-000983FM-12+000499999V0203201N00261220001CN0040001N9+01001+99999101411ADDAA199008091AY121999GF104991041081004501001001IA1089KA1999N+00891MD1310161+9999
0072387630999991936062721004+38967+056283FM-12+007199999V0209991C00001220001CN0100001N9+02501+99999100071ADDAY101999GF100991001001999999001001EQDQ01+000032APCTENQ02+000002APC3  
0057102740999991936030903004+53350+012733FM-12+002299999V0201601N00261004501CN0020001N9+00111+00061101701ADDAY121999GF108991081051004501999999MD1810061+9999MW1051
0037122700999991936022906004+53117+020483FM-12+015599999V0201401N00671002401CN0040001N9+00221+00171099321ADDAY121999GF106991061051002501999999
0065031710999991936080618004+56383-002883FM-12+001199999V0200901N002619999999N0200001N9+01441+01221102041ADDGA1011+999999019GF102991021051004501071001IA1009MD1310061+9999
0051307580999991936051717004+52050+113317FM-12+066599999V0209991C00001220001CN9999999N9+00221+99999102021ADDAY101999GF101991011041017501001001MD1310041+9999
0075040300999991936010306004+64150-021950FM-12+001699999V0209991C000019999999N0200001N9-00111+99999101101ADDAY111061GF107991999001017501031001IA1189KA1999N+99999EQDQ01 +01112ATMN  
0043844520999991936062220004-06783-079850FM-12+002599999V0201801N00931220001CN0500001N9+02281+99999100661ADDAY101999GF100991001999999999999999MW1001
0051121500999991936092209004+54383+018600FM-12+000599999V0202301N00461220001CN0200001N9+02111+01441102061ADDAY121999GF104991021081008001071061MD1990061+9999
0086333930999991936032600004+49817+023950FM-12+033099999V0200901N00461220001CN0100001N9-01221-01392102311ADDAY101999GF100991001001999999001001MD1810021+9999EQDQ01+000952SCOLCBQ02+025933ATOD  
0057224710999991936021710004+65833+044267FM-12+001699999V0203201N00461012001CN0020001N9-02111+99999102311ADDAY141999GF108991081051012501999999MD1010001+9999MW1101
0051121500999991936021806004+54383+018600FM-12+000599999V0201101N00261030001CN0100001N9-00721-00891101591ADDAY111999GF106991021051008001031999MD1310061+9999
0059033110999991936031001004+53317-004617FM-12+000899999V0203501N001019999999N0040001N9+00561+00501101011ADDGA1011+999999019GF108991081051001501999999MD1310101+9999
0037135860999991936080706004+41983+021467FM-12+024099999V0209991C00001220001CN0200001N9+01891+99999102131ADDAY101999GF102991021999017501999999
0089294300999991936093013004+56433+084967FM-12+013899999V0209991C00001220001CN0040001N9+01111+99999102431ADDAY121999GF104991999001022501011001IA1089KA1999M+01281MD1310021+9999EQDQ01+000002SCOTLC
0043062400999991936071706004+52300+004783FM-12-000399999V0201801N00261220001CN0100001N9+01611+99999101601ADDAY101999GF104991001001999999031999MW1051
0076122000999991936051706004+53917+014283FM-12+999999999V0200501N00461220001CN0200001N9+01221+00781102521ADDAY111999GF104991999001017501041001IA1009MD1310061+9999EQDQ01+000002SCOTLC
0070313690999991936112010004+53133+140750FM-12+001799999V0203201N00261220001CN0200001N9-01721+99999102411ADDAY101999GF100991001001999999001001IA1309KA1999M-01391MD1110041+9999
0108103820999991936080306004+52467+013133FM-12+001499999V0202301N006719999999N0040001N9+01781+01561099931ADDAA199001091AY121999GF107991041051004501999999IA1089KA1999N+01391MW1051EQDQ01+000032APCTENQ02+000002APC3  
0043010100999991936053006004+69317+016133FM-12+000799999V0200201N00461220001CN0200001N9+00221+99999100691ADDAY111999GF104991041081012501001999MW1161
0025745980137021936123011004+37083-076350SAO  +0002LFI  V0203601N002610024019N0112001N9+00691+00581100351ADDGA1081+999999079MW1001
0009726980242291936110212004+45600-122650SAO  +0012PDX  V0202251N001512200019N0112001N1-00591-00811999999ADDMW1001
0051378500999991936071722004+40350+049833FM-12-001099999V0203601N009319999999N0040001N9+02611+99999101051ADDAY191999GF107991999001999999041001MD1810081+9999
0076296120999991936021208004+55350+078400FM-12+012099999V0202501N004619999999N0100001N9-00111+99999102171ADDAY151999GF108991999001022501021999MD1110021+9999MW1501EQDQ01+000002SCOTLC
0051104570999991936051809004+51750+011067FM-12+003899999V0200901N00461220001CN0100001N9+01611+00721102211ADDAY111031GF106991001001999999041021MD1310041+9999
0092121860999991936061503004+54033+022517FM-12+005099999V0201801N00461007801CN0100001N9+01611+01331101701ADDAY121999GF107991071091008001001001MD1710201+9999MW1171EQDQ01+000032APCTENQ02+000002APC3  
0070234050999991936040304004+65483+052167FM-12+003799999V0201801N00261030001CN0100001N9+00281+99999100231ADDAY121999GF108991011051017501021999IA1319KA1999N+00111MD1810061+9999
0089352290999991936012715004+50233+057233FM-12+022099999V0209991C00001004201CN0020001N9-01221+99999101261ADDAA199012091AY171999GF108991081051004501999999MW1701EQDQ01+000022APCTENQ02+000002APC3  
0063854880999991936051712004-29883-071233FM-12+003299999V0200501N001019999999N0500001N9+01001+99999101941ADDAY101999GF100991001001999999001001IA1009MD1810061+9999MW1001
0037374320999991936110522004+42467+044317FM-12+220099999V0203601N00101000601CN0000501N9+00221+99999999999ADDAY101999GF106991061051000751031001
0051100060999991936110912004+54600+011150FM-12+999999999V0202001N01541004501CN0100001N9+01001+00611999999ADDAY121999GF108991081051004501999999MD1810101+9999
0037021270999991936082406004+65067+017167FM-12+032899999V0209991C000019999999N0500001N9+01001+99999100931ADDAY111999GF107991041051012501999999
0037167430999991936102806004+36133+023000FM-12+018499999V0202701N00261220001CN0500001N9+01721+99999101461ADDAY111999GF102991011041999999041999
0118263930999991936063017004+57583+034567FM-12+016799999V0203201N00671220001CN0040001N9+01721+99999101331ADDAA199000591AY111999GF104991999081012501001001IA1009KA1999M+01891EQDQ01+000072SCOTLCQ02+000042APCTENQ03+000022APC3  
0057107370999991936111212004+48683+009000FM-12+042799999V0201801N00461007801CN0500001N9+01001+99999100831ADDAY161061GF107991061051008001071001MD1310041+9999MW1601
0051333450999991936051011004+50450+030500FM-12+018399999V0200901N00261220001CN0100001N9+02001+99999101911ADDAY101999GF106991001001999999001041MD1610141+9999
0051121500999991936033012004+54383+018600FM-12+000599999V0200501N00461220001CN0200001N9+00891+00441101661ADDAY101999GF101991011071012501001001MD1810141+9999
0087066800999991936091012004+47250+009333FM-12+250199999V0202001N002619999999N0040001N9+00111+99999999999ADDAY111999GF109991081021999999999999MA1999999075391EQDQ01+000032APCTENQ02+000002APC3  
0065033110999991936031318004+53317-004617FM-12+000899999V0201601N002619999999N0100001N9+00441-00111101811ADDGA1011+999999019GF108991061071012501021999IA1089MD1310061+9999
0025722860231191936091713004+33900-117250SAO  +0466RIV  V0209991C000012200019N0128001N9+01411+01131101121ADDGA1001+999999999MW1001
0051101780999991936062912004+53917+013233FM-12+000299999V0201101N00261220001CN0200001N9+02611+01611101511ADDAY101999GF101991011011008001001999MD1810101+9999
0057106350999991936121721004+50217+008450FM-12+024499999V0202701N00931000151CN0000501N9+00501+00441100101ADDAY161031GF109991091999000251999999MD1210031+9999MW1451
0070236780999991936062407004+63167+088017FM-12+005599999V0202901N00461015001CN0200001N9+01111+99999100541ADDAY121999GF108991999051017501041999MD1310121+9999EQDQ01+000082SCOTLC
0037123300999991936112406004+52417+016833FM-12+009999999V0201601N00461002401CN0040001N9+00111-00111102531ADDAY141999GF107991071051002501999999
0037150900999991936060618004+47167+027600FM-12+012899999V0203201N00261007801CN0040001N9+01611+01561100911ADDAY151999GF108991081031008001001999
0070266990999991936021015004+54783+020617FM-12+000699999V0200201N00461220001CN0500001N9-01001-01441102001ADDAY101999GF102991021051008001001001IA1139KA1999M-01001MD1210021+9999
0051104880999991936020818004+51133+013767FM-12+007099999V0209991C00001220001CN0200001N9-00391-00891102521ADDAY101061GF100991001001999999001001MD1810181+9999
0057106530999991936062003004+49650+009967FM-12+008599999V0200201N00261220001CN0100001N9+01281+01061101631ADDAY101031GF100991001001999999001001MD1610041+9999MW1051
0061828930999991936032312004-08883-036517FM-12+084899999V0201401N009319999999N9999999N9+02281+99999101631ADDGF104991999999999999999999KA1999M+03221KA2999N+01721MW1111
0035111820999991936070106004+47800+016233FM-12+026899999V0200501N00101220001CN0040001N9+02001+99999999999ADDGF104991999031008001001001MW1051
0043233300999991936101721004+66533+066600FM-12+003599999V0201401N004619999999N0020001N9+00111+99999100011ADDAY171999GF108991001001999999021999MW1711
0043104000999991936123109004+51283+006767FM-12+001199999V0201801N00261220001CN0010001N9+99999+99999999999ADDAY101031GF100991001001999999001999MW1101
0009727640240111936111901004+46767-100750SAO  +0506BIS  V0201801N004112200019N0240001N1+00521+00301999999ADDMW1001
0057167460999991936090518004+35500+024033FM-12+006399999V0209991C00001220001CN0200001N9+02611+99999101191ADDAY101999GF100991001001999999001001IA1009MD1510021+9999
0037133480999991936100106004+43300+017817FM-12+005399999V0203601N00261007801CN0100001N9+00891+00831101271ADDAY121999GF108991081051008001999999
0018722265138211936022312004+32383-086300SAO  +0060MXF  V0200501N002112200019N0004001N9+00281+00281999999ADDMA1102781999999
0051102890999991936082815004+53317+013867FM-12+000899999V0202901N00101220001CN0500001N9+02221+01001102801ADDAY101999GF101991011041012501001001MD1810101+9999
0051070090999991936012312004+50967+001833FM-12+002799999V0202501N006719999999N0100001N9+00501+99999100991ADDAY121999GF106991011021004501001061MD1310121+9999
0076066600999991936021318004+47383+008550FM-12+049399999V0203601N00101004501CN0010001N9+00001+99999102111ADDAY121999GF108991081051004501999999IA1159KA1999M+00221MD1510021+9999MW1051
0051346550999991936042510004+47650+043167FM-12+005099999V0201101N015419999999N0100001N9+02001+99999100991ADDAY121999GF107991001001999999071999MD1710041+9999
0037126250999991936091718004+49300+018950FM-12+084199999V0209991C00001220001CN0200001N9+00891+00831101581ADDAY101999GF100991001001999999001999
0037025100999991936040518004+58383+012333FM-12+005499999V0202701N00261220001CN0500001N9+00281+99999101941ADDAY111999GF102991021051012501071999
0037020500999991936070212004+68417+018117FM-12+050899999V0202301N00261220001CN0500001N9+01391+99999101561ADDAY111999GF102991001001999999001999
0037026800999991936031106004+56917+018150FM-12+003999999V0200501N00101001501CN0010001N9+00111+99999101221ADDAY121999GF109991081051001501999999
0070286610999991936093015004+55450+065150FM-12+007399999V0202001N00101220001CN0100001N9+01391+99999102311ADDAY101999GF100991001001999999001001IA1009KA1999M+02501MD1310061+9999
0037125110999991936030506004+50767+016283FM-12+013199999V0201801N01541007801CN0100001N9+99999+99999999999ADDAY121999GF108991081051008001999999
0051296340999991936032707004+54967+082950FM-12+013399999V0201601N00461075001CN0100001N9-00111+99999101691ADDAY121999GF108991001001999999001071MD1710161+9999
0067166750999991936122118004+38900+022433FM-12+999999999V0203201N00101002401CN0010001N9+00501+99999102781ADDAA199001091AY151999GF108991081061002501001001IA1089KA1999M+00611
0087287220999991936110103004+54717+055933FM-12+017499999V0202301N00261002101CN0020001N9+00111+99999102701ADDAA199000591AY151999GF108991081051002501999999IA1089KA1999N-00111MD1810041+9999MW1101
0037338150999991936121612004+47033+028800FM-12+009799999V0201401N00101004501CN0040001N9+00781+00721102961ADDAY141999GF107991071051004501001999
0057265100999991936080112004+55150+020867FM-12+000199999V0200501N00461007801CN0040001N9+01891+99999101391ADDAY161999GF108991081051008001999001MD1810101+9999MW1601
0057106530999991936031806004+49650+009967FM-12+008599999V0200501N00101220001CN0040001N9-00281-00441102821ADDAY101061GF100991001001999999001001MD1310041+9999MW1051
0044719081999991936090400004+63117-077933FM-12+001699999V0202701N002619999999N0500001N9+00391+99999999999ADDGF106991001999999999999999MA1999999102401
0037033020999991936100812004+53317-004617FM-12+000899999V0200901N00461220001CN0100001N9+01221+99999102231ADDAY101999GF104991021081012501041999
0091287220999991936021815004+54717+055933FM-12+017499999V0200701N00931220001CN0040001N9-00781+99999103101ADDAY101999GF100991001001999999001001IA1319KA1999M-00721EQDQ01+000032APCTENQ02+000002APC3  
0037074880999991936101512004+45167+005733FM-12+032499999V0202901N00101220001CN0200001N9+01891+99999101901ADDAY101999GF102991021999012501999999
0086105390999991936062412004+50350+009533FM-12+006699999V0203201N00461030001CN0100001N9+99999+99999101721ADDAY111061GF106991041021008001071031MD1990101+9999EQDQ01+022823ATOT  Q02 -04503ATOT  
0037122000999991936051112004+53917+014283FM-12+999999999V0203601N00261004501CN0100001N9+99999+99999999999ADDAY121999GF108991081051004501999999
0068232420999991936080714004+67700+072950FM-12+000499999V0203601N00671075001CN0200001N9+01721+99999100901ADDAA199000591AY101999GF107991041031008001001031IA1089MD1110041+9999
0087282250999991936050203004+58017+056267FM-12+016799999V0202701N001019999999N0020001N9+00891+99999102341ADDAA199000691AY121999GF107991001001999999071999IA1089KA1999N+00721MD1610061+9999MW1101
0063855000999991936010812004-29900-071350FM-12+002599999V0203601N002619999999N0200001N9+01501+99999101481ADDAY101999GF108991081051999999999999IA1009MD1310061+9999MW1031
0081072800999991936042218004+47267+005083FM-12+022399999V0203401N00931004501CN0100001N9+00391+99999100211ADDAA199002091AY181999GF108991081091004501999999IA1109KA1999M+01391MD1310421+9999
0107066600999991936102206004+47383+008550FM-12+049399999V0209991C00001036001CN0040001N9+00721+99999102641ADDAY121999GF108991011051008001021999IA1009KA1999N+00721EQDQ01+002002WODIR Q02+000042APCTENQ03+000042APC3  
0000719164999991936020500004+63333-090717FM-12+000499999V0209991C000019999999N0200001N9-03001+99999102681
0037104900999991936072706004+51600+013733FM-12+003899999V0201401N00261007801CN0020001N9+99999+99999999999ADDAY111061GF107991061051008001021999
0076268500999991936121805004+53783+027567FM-12+022699999V0201801N00261000151CN0002001N9+00111+99999102031ADDAY141999GF109991091051000251999999IA1199KA1999N+00001MD1990141+9999MW1451
0037074880999991936102306004+45167+005733FM-12+032499999V0209991C00001220001CN0200001N9+01281+99999101911ADDAY101999GF102991001999999999999999
0106234720999991936101113004+65783+087950FM-12+004599999V0202701N001019999999N0000501N9-00391+99999100491ADDAA199000391AY171999GF108991999001012501021999IA1319KA1999M-00391MD1310221+9999MW1701EQDQ01+000002SCOTLC
0057122000999991936103018004+53917+014283FM-12+999999999V0202301N00101220001CN0200001N9+00391+00331102261ADDAY111999GF104991001001999999051021IA1009MD1610121+9999
0081239330999991936121302004+60967+069067FM-12+012899999V0202301N00261004201CN0040001N9-00781+99999100701ADDAA199090091AY121999GF108991081051004501999999IA1319KA1999N-00891MD1810021+9999
0057121070999991936020109004+54283+016117FM-12+999999999V0202501N00931001501CN0040001N9+00611+00561098991ADDAY121999GF108991081051001501999999MD1310041+9999MW1051
0051109610999991936100512004+47417+010983FM-12+090399999V0202901N006719999999N0500001N9-00611-00781099701ADDAY111061GF106991041001001501071091MD1810061+9999
0009788071999991936100514004+08967-079550SAO  +0012MBLB V0201801N004110021019N0016001N1+99999+99999101191ADDMW1631
0025722860231191936041003004+33900-117250SAO  +0466RIV  V0203601N003612200019N0096001N9+01851+01241101631ADDGA1001+999999999MW1051
0070121160999991936070300004+54450+017000FM-12+001299999V0202301N00101030001CN0100001N9+01501+01441101221ADDAY111999GF106991021051004501031001MD1410001+9999EQDQ01+000032APCTEN
0074222170999991936060605004+67133+032433FM-12+999999999V0201101N00261075001CN0200001N9+01001+99999101351ADDAJ100009199999999AY111999GF107991001001999999001061IA1009MD1110021+9999
0086030560999991936072818004+56933-004233FM-12+035899999V0209991C000019999999N0200001N9+01221+01001999999ADDGA1011+999999019GF106991001001999999041081IA1089EQDQ01+000032APCTENQ02+000002APC3  
0051283670999991936070915004+57167+065533FM-12+008099999V0201401N00461075001CN0040001N9+02501+99999101431ADDAY121999GF106991001001999999001021MD1810101+9999
0085066800999991936031512004+47250+009333FM-12+250199999V0202501N00101220001CN0500001N9-00611+99999999999ADDAY111999GF102991999051000251001051MA1999999074621MD1810021+9999EQDQ01+000002SCOTLC
0078387500999991936081115004+37467+053667FM-12-002299999V0202701N00461220001CN0100001N9+02781+99999101171ADDAY101999GF100991001001999999001001IA1009EQDQ01+000032APCTENQ02+000002APC3  
0065039520999991936051818004+51800-008250FM-12+000799999V0200101N004619999999N0200001N9+01781+01331101971ADDGA1011+999999019GF106991001001999999001071IA1009MD1310021+9999
0056298650999991936031213004+53700+091467FM-12+023999999V0202301N001019999999N0040001N9-00891+99999103071ADDAY121999GF108991001001999999021999IA1309KA1999M-00391
0043026800999991936121812004+56917+018150FM-12+003999999V0202301N00671001501CN0002001N9+00501+99999100801ADDAY141999GF109991091999001501999999MW1471
0122124000999991936072206004+51917+015500FM-12+004599999V0202701N00671007801CN0100001N9+01611+01331101111ADDAA199000691AY161999GF107991061061008001021999IA1009KA1999N+01611MD1210151+9999MW1601EQDQ01+000042APCTENQ02+000142APC3  
0043040480999991936090818004+63400-020283FM-12+012299999V0201401N00931004501CN0040001N9+00891+99999100461ADDAY181061GF108991081061004501999999MW1251
0072060410999991936111612004+57733+010633FM-12+000399999V0202901N001019999999N0100001N9+00721+99999099941ADDAY111999GF106991021051012501041001EQDQ01+000032APCTENQ02+000002APC3  
0081112400999991936122418004+46983+015450FM-12+033599999V0209991C00001000151CN0000501N9+00111+99999102152ADDAY121061GF109991091999000251999999IA1209KA1999M+00111MW1471EQDQ01+102153APOSLP
0057105760999991936121115004+50700+012467FM-12+009499999V0209991C00001220001CN0005001N9-00111-00171101751ADDAY141031GF102991021051012501001001MD1610021+9999MW1281
0051320610999991936120504004+50900+142167FM-12+001699999V0203401N00671220001CN0040001N9-01111+99999100661ADDAY111999GF104991041061008001001001MD1210101+9999
0078839370999991936120412004-29683-053800FM-12+014199999V0202701N001019999999N0040001N9+02391+99999101291ADDAA124001091GF103991999999999999999999IA1009KA1999M+02721KA2999N+01611MW1111
0051100910999991936121909004+54600+013233FM-12+000199999V0202501N00671002401CN0200001N9+00721+00671101771ADDAY121999GF108991081051002501999999MD1310201+9999
0072239330999991936092220004+60967+069067FM-12+012899999V0202701N00261007501CN0200001N9+00281+99999100591ADDAY121999GF108991081051008001999999EQDQ01+000032APCTENQ02+000002APC3  
0076135860999991936011206004+41983+021467FM-12+024099999V0209991C00001000151CN0000501N9+00111+00061102391ADDAY141999GF109991091999000251999999IA1009KA1999N+00111MD1310061+9999MW1451
0070315100999991936051910004+50267+127500FM-12+014399999V0209999900261075001CN0002001N9+01281+99999100781ADDAY121999GF108991021041017501001061IA1009KA1999M+01781MD1310101+9999
0037121120999991936111906004+54167+017500FM-12+003899999V0200901N00671012301CN0040001N9+99999+99999999999ADDAY121999GF108991081051012501999999
0037153020999991936050318004+45500+025583FM-12+109399999V0209991C00001220001CN0100001N9+00781+00171099011ADDAY121999GF104991041051017501001999
0043040480999991936051712004+63400-020283FM-12+012299999V0202901N00461001501CN0040001N9+00781+99999101491ADDAY181061GF107991071051001501999999MW1251
0043039530999991936091112004+51933-010250FM-12+000999999V0201601N00931002401CN0100001N9+01721+99999100441ADDAY161999GF108991081061002501999999MW1601
0043022060999991936083006004+63317+012100FM-12+059899999V0209991C00001002401CN0100001N9+01001+99999100151ADDAY161999GF108991081061002501999999MW1611
0057206740999991936092420004+73500+080400FM-12+002099999V0202701N019019999999N9999999N9+00391+99999098181ADDAY161999GF109991999999999999999001MD1710261+9999MW1611
0051100460999991936031509004+54383+010150FM-12+000999999V0202901N00671007801CN0200001N9+00281-00111101761ADDAY121999GF108991081051008001999999MD1310021+9999
0066167440999991936012312004+36417+025433FM-12+022399999V0202301N006719999999N0100001N9+01721+01281999999ADDAJ100009199999999AY141999GF106991031021999999071001IA1089MW1051
0043020680999991936042912004+61867+016567FM-12+007299999V0200201N00101007801CN0005001N9+00501+99999102641ADDAY141999GF108991081051008001999999MW1461
0051124250999991936090212004+51133+016967FM-12+003799999V0202901N00671012301CN0200001N9+01611+00441101621ADDAY121999GF107991061051012501061081MD1990041+9999
0051071500999991936030512004+48950+002433FM-12+004699999V0202501N009319999999N0040001N9+00891+99999101271ADDAY141999GF106991041021008001041031MD1990121+9999
0089308790999991936033023004+51317+119617FM-12+062699999V0209991C000019999999N0040001N9-01111+99999102071ADDAY121999GF108991999001022501021999IA1199KA1999N-01281MD1810101+9999EQDQ01+000002SCOTLC
0056029170999991936061518004+62917+027667FM-12+023399999V0209991C00001007801CN0500001N9+01891+99999101451ADDAY121999GF106991061031008001001999EQDQ01+000702WODIR 
0043124650999991936011018004+51717+019400FM-12+017699999V0202001N00671002401CN0040001N9+00781+00721100631ADDAY161999GF108991081061002501999999MW1601
0037154100999991936051906004+44633+023550FM-12+007099999V0200501N00261220001CN0100001N9+01391+00221102201ADDAY111999GF104991041041017501031999
0058787930999991936073118004+08383-082450FM-12+001999999V0202301N004119999999N0500001N9+02941+99999999999ADDAY121999GF107991999999999999999999MA1999999100981MW1021
0043132600999991936121406004+44517+019167FM-12+012599999V0209991C00001000151CN0000001N9+00221+00171102221ADDAY141999GF109991091999000251999999MW1471
0029719094999991936070200004+62833-069900FM-12+001699999V0200501N004619999999N0500001N9+01171+99999999999ADDGF102991001999999999999999
0043338150999991936091706004+47033+028800FM-12+009799999V0209991C00001220001CN0040001N9+00781+00721103641ADDAY141999GF100991001001999999001999MW1431
0043232050999991936072403004+67650+053117FM-12+001099999V0200201N00101000151CN0000501N9+99999+99999999999ADDAY141999GF109991091999000251999999MW1431
0057101130999991936100312004+53700+007150FM-12+000499999V0203201N00931002401CN0040001N9+01221+00781102351ADDAY151999GF108991081081002501999999MD1610101+9999MW1501
0037028360999991936090506004+67367+026650FM-12+018099999V0200501N00261030001CN0200001N9+00721+99999101321ADDAY111999GF106991021051012501061999
0108275530999991936092104004+56333+044000FM-12+015999999V0202901N001019999999N0040001N9+00391+99999102131ADDAA199000691AY101999GF107991001001999999041021IA1089KA1999N+00281MW1101EQDQ01+000032APCTENQ02+000002APC3  
0087107080999991936081818004+49217+007033FM-12+018999999V0209991C000010360019N0100001N9+02221+99999101791ADDAA199000391AY191061GF107991041081012501071001IA1009KA1999M+02781MD1210021+9999MW1171
0091230660999991936081913004+69667+084400FM-12+002599999V0209991C00001220001CN0200001N9+00891+99999101231ADDAY111999GF100991001001999999001001IA1109KA1999M+01111EQDQ01+000042APCTENQ02+000062APC3  
0059036010999991936021413004+51683-005167FM-12+004399999V0201101N004619999999N0040001N9+00441+00061100551ADDGA1011+999999019GF107991071051008001999999MD1810101+9999
0037374720999991936042022004+43000+047500FM-12+003599999V0202701N01231004201CN0040001N9+01001+99999101451ADDAY161999GF108991081031004501001999
0072067300999991936062506004+46533+007967FM-12+357999999V0203601N00671000151CN0000001N9-00111+99999999999ADDAY141999GF109991091999000251999999MA1999999067271MD1310021+9999MW1451
0051338370999991936092911004+46483+030733FM-12+006599999V0202701N00671036001CN9999999N9+02721+99999999999ADDAY111999GF106991041051017501061999MD1310181+9999
0091072800999991936013018004+47267+005083FM-12+022399999V0201801N00261004501CN0100001N9+00501+99999101091ADDAY121999GF106991061051004501001001IA1089KA1999M+00891EQDQ01+000032APCTENQ02+000002APC3  
0037040480999991936112718004+63400-020283FM-12+012299999V0202001N00461030001CN0500001N9+00221+99999102001ADDAY111061GF107991021051004501011999
0087234720999991936020913004+65783+087950FM-12+004599999V0200901N019019999999N0000501N9-01721+99999100211ADDAA199000391AY171999GF108991001001999999021999IA1319KA1999M-01721MD1810141+9999MW1711
0087116430999991936031718004+50750+015733FM-12+049199999V0203201N00261000151CN0000001N9-00781-00831099681ADDAA199000591AY141999GF109991091999000251999999IA1319KA1999M-00611MD1210121+9999MW1451
0051280440999991936091509004+59600+060600FM-12+009699999V0203601N00461030001CN0500001N9+00891+99999100611ADDAY121999GF108991011061012501021999MD1310061+9999
0037331870999991936112106004+50750+025350FM-12+020099999V0200901N00261007801CN0040001N9-00501-00561103641ADDAY121999GF108991081051008001999999
0049287220999991936012109004+54717+055933FM-12+017499999V0202001N01231012001CN0040001N9-01281+99999103671ADDGF108991081051012501999999MD1710081+9999MW1371
0037077470999991936061012004+42733+002867FM-12+004599999V0202901N012319999999N0200001N9+02281+99999101491ADDAY121999GF106991011011008001001999
0127032620999991936061607004+55017-001417FM-12+003399999V0201801N002619999999N0040001N9+01111+00891100941ADDAA199999999GA1011+999999019GF108991081061002501999999IA1089KA1999M+01501KA2999N+00831MD1810041+9999MW1251EQDQ01  00002PRCP99
0057319960999991936111222004+43733+135267FM-12+000899999V0202501N00461007501CN0200001N9-00611+99999101291ADDAY101999GF108991081051008001999999IA1139MD1810061+9999
0009726770240331936102019004+45800-108533SAO  +1088BIL  V0200231N002110030019N0160001N1+00351-00041999999ADDMW1001
0051101800999991936101709004+54350+012733FM-12+000199999V0202901N01231030001CN0200001N9+01111+00891100911ADDAY111999GF106991021071008001071001MD1310221+9999
0065031000999991936122718004+56483-006867FM-12+000999999V0201701N009319999999N0040001N9+00721+00501102111ADDGA1011+999999019GF108991071051008001021999IA1009MD1810101+9999
0009726810241311936072600004+43567-116217SAO  +0874BOI  V0203151N005112200019N0240001N1+03131+00021999999ADDMW1001
0076375450999991936041804004+41717+044800FM-12+040999999V0209991C00001220001CN0010001N9+00781+99999101641ADDAY101999GF100991001001999999001001IA1009KA1999N+00501MD1210061+9999MW1051
0063854880999991936070512004-29883-071233FM-12+003299999V0200501N002619999999N0040001N9+00781+99999101611ADDAY101999GF108991081051999999999999IA1009MD1810101+9999MW1031
0051345600999991936051510004+48700+044517FM-12+006599999V0202501N00261220001CN0200001N9+02391+99999100991ADDAY101999GF106991041011017501001011MD1810061+9999
0078100080999991936012406004+54833+014367FM-12+999999999V0202501N01901002401CN0040001N9+00281+00221100101ADDAY151999GF108991081031002501999999MW1501EQDQ01+000042APCTENQ02+000062APC3  
0051102540999991936102715004+52833+011200FM-12+001599999V0202701N00931030001CN0100001N9+00721+00331099911ADDAY181999GF107991041051004501011999MD1210161+9999
0070260630999991936021518004+59983+030283FM-12+000599999V0203601N00461220001CN0040001N9-01611+99999100781ADDAY121999GF108991001001999999011999IA1319KA1999M-01611MD1310101+9999
0009726770240331936071104004+45800-108533SAO  +1088BIL  V02099999999990240019N0640001N1+99999+99999999999ADDMW1001
0051104880999991936092703004+51133+013767FM-12+007099999V0203201N00671030001CN0200001N9+00501+00281100961ADDAY121031GF107991041051012501021999MD1610141+9999
0076010010999991936120712004+70983-008333FM-12+002399999V0201801N01901004501CN0040001N9+00001+99999099811ADDAY171999GF108991081061004501999999MD1810522+9999MW1701EQDQ01+000522APC3  
0058787930999991936062212004+08383-082450FM-12+001999999V0202901N002119999999N0500001N9+02561+99999999999ADDAY121999GF106991999999999999999999MA1999999101191MW1021
0091352290999991936022815004+50233+057233FM-12+022099999V0209991C00001220001CN0100001N9-01501+99999103891ADDAY101999GF100991001001999999001001IA1139KA1999M-01501EQDQ01+000032APCTENQ02+000002APC3  
0057319600999991936112604004+43117+131917FM-12+012899999V0209991C00001004201CN0100001N9+00391+99999102151ADDAY121999GF108991081051004501999999MD1710181+9999MW1051
0087200490999991936111203004+80333+052800FM-12+000699999V0200901N00461004201CN0040001N9-01281+99999102151ADDAA199000691AY171999GF107991071051004501999999IA1319KA1999N-01281MD1990061+9999MW1701
0037232420999991936110214004+67700+072950FM-12+000499999V0209991C00001004201CN0040001N9+99999+99999102181ADDAY101999GF107991071051004501999999
0107075770999991936011806004+44583+004717FM-12+007599999V0200201N00261220001CN0100001N9+00111+99999101051ADDAY101999GF101991999001999999041001IA1089KA1999N+00111EQDQ01+000002SCOTLCQ02+000042APCTENQ03+000042APC3  
0043121000999991936060518004+54183+015567FM-12+000699999V0200501N00931220001CN0100001N9+01221+99999100651ADDAY111999GF104991021081012501001021IA1009
0048838620999991936040712004-26850-052400FM-12+080199999V0209991C000019999999N9999999N9+01781+99999101501ADDGF107991999999999999999999KA1999N+00891MW1111
0057100190999991936102315004+54917+008350FM-12+000599999V0202301N00101007801CN0040001N9+01221+99999102031ADDAY141999GF108991061051008001071999MD1810041+9999MW1051
0009727640240111936081009004+46767-100750SAO  +0506BIS  V0201351N005110180019N0160001N1+02351+00351999999ADDMW1001
0009726810241311936072915004+43567-116217SAO  +0874BOI  V0203151N001012200019N0240001N1+02521+01241999999ADDMW1001
0037030260999991936072418004+58183-006350FM-12+001899999V0202501N00461030001CN0200001N9+01721+99999098591ADDAY111999GF107991041081008001071999
0043107620999991936100109004+49300+012833FM-12+012599999V0202701N00461004501CN0020001N9+99999+99999999999ADDAY151031GF108991081051004501999999MW1511
0037074890999991936020912004+45300+005867FM-12+115499999V0209991C00001220001CN0200001N9+01781+99999101131ADDAY121999GF108991001999999999999999
0037124650999991936080218004+51717+019400FM-12+017699999V0202001N00671004501CN0040001N9+01611+01561100331ADDAY161999GF108991081081004501999999
0092101780999991936121515004+53917+013233FM-12+000299999V0202001N00461012301CN0040001N9+00221+00001100861ADDAY161999GF108991081051012501999999MD1210081+9999MW1051EQDQ01+000042APCTENQ02+000082APC3  
0055745700138401936051316004+39833-084050SAO  +0254FFO  V0202701N007210150019N0160001N9+02181+01691101291ADDGA1051+999999089GA2021+999999039MD1710041+9999MW1001
0043103400999991936122912004+51983+009517FM-12+002399999V0201801N00261002401CN0005001N9+99999+99999999999ADDAY141999GF109991071051002501999999MW1441
