0051103840999991937061400004+52483+013433FM-12+001799999V0200501N00261220001CN0200001N9+01391+00941102371ADDAY101999GF100991001001999999001001MD1310021+9999
0081108660999991937041806004+48183+011550FM-12+052099999V0202701N00931220001CN0200001N9+00611+99999101331ADDAA199000691AY121061GF104991021081017501041031IA1009KA1999N+00501MD1210081+9999
0037128820999991937050418004+47567+021617FM-12+013799999V0209991C00001220001CN0200001N9+01721+01281101431ADDAY111999GF104991021051012501031999
0076304930999991937062717004+55633+125517FM-12+085799999V0200501N001019999999N0000501N9+01281+99999999999ADDAY161999GF108991999001008001031999MD1990021+9999MW1511EQDQ01+000002SCOTLC
0037100270999991937081815004+54300+009600FM-12+000299999V0202701N00671030001CN0100001N9+99999+99999999999ADDAY111999GF106991041021012501061999
0029719576999991937100408004+64900-125500FM-12+009199999V02099999999999999999N9999999N9+99999+99999999999ADDKA1999M+00561KA2999N-00111
0043105350999991937090906004+50833+008917FM-12+006099999V0203201N00261220001CN0020001N9+00721+00611102131ADDAY101061GF106991999001999999031001MW1051
0037040300999991937093018004+64150-021950FM-12+001699999V0202501N00671004501CN0100001N9+00611+99999098631ADDAY181061GF106991061031004501001999
0062020500999991937110206004+68417+018117FM-12+050899999V0209991C00001000151CN0100001N9+00111+99999100521ADDAY161999GF108991999061000251999999MW1611EQDQ01+000092SCOTLC
0009722860231191937092114004+33900-117250SAO  +0466RIV  V0202701N002610001519N0002001N9+01351+01351101251ADDMW1451
0025722485139441937051702004+32500-093683SAO  +0053BAD  V0201401N001012200019N0240001N9+02411+01301101561ADDGA1001+999999999MW1001
0024990061999991937102118004+62000-033000SAO  +00004YA  V02099999999999999999N0000001N1+02461+01801999999ADDMA1999999101561MW1001
0029710633999991937061308004+61150-113617FM-12+015899999V02099999999999999999N9999999N9+99999+99999999999ADDKA1999M+02831KA2999N+01611
0112380010999991937081604004+44550+050250FM-12-002399999V0201401N00261220001CN0100001N9+02501+99999100541ADDAJ100009199999999AY101999GF100991001001999999001001IA1009KA1999N+02001MD1310021+9999MW1101EQDQ01+000932SCOLCB
0037085060999991937120512004+38533-028633FM-12+006599999V0201601N00261007801CN0100001N9+01781+99999102621ADDAY121999GF107991061999008001999999
0091387630999991937101015004+38967+056283FM-12+007199999V0201101N00101220001CN0100001N9+01501+99999102111ADDAY101999GF100991001001999999001001IA1009KA1999M+02391EQDQ01+000042APCTENQ02+000022APC3  
0000719164999991937011112004+63333-090717FM-12+000499999V0202701N002619999999N9999999N9-02501+99999098851
0057108680999991937011109004+48250+011550FM-12+014899999V0200901N00101220001CN0100001N9-00391-00721103671ADDAY101031GF104991001001999999031021MD1710151+9999MW1051
0057104720999991937090109004+51833+011700FM-12+002599999V0201101N00101220001CN0040001N9+02001+01561101941ADDAY111031GF104991999001999999031001MD1410001+9999MW1051
0051100050999991937073106004+54017+008250FM-12+999999999V0203401N00461012301CN0040001N9+01721+99999999999ADDAY121999GF108991081001012501021999MD1310141+9999
0065039170999991937061418004+54650-006217FM-12+006799999V0202901N004619999999N0200001N9+01391+00941102691ADDGA1011+999999019GF108991061051004501021999IA1089MD1310021+9999
0087122990999991937082606004+52850+015667FM-12+001199999V0200501N00101012301CN0040001N9+01721+01721101971ADDAA199001091AY121999GF108991081051012501999999IA1089KA1999N+01611MD1310021+9999MW1051
0037126250999991937020718004+49300+018950FM-12+084199999V0202301N00261012301CN0100001N9-00391-00721099201ADDAY111999GF106991061051012501999999
0078825860999991937062012004-05200-039300FM-12+019999999V0201801N004619999999N0100001N9+02281+99999101671ADDAA124006091GF103991999999999999999999IA1089KA1999M+02781KA2999N+02221MW1111
0037025840999991937091806004+58383+019183FM-12+001299999V0201401N00461012301CN0100001N9+01501+99999100211ADDAY111999GF108991081051012501999999
0018719070999991937033101004+58450-078133FM-12+002099999V0203601N002119999999N0120001N9-02221+99999999999ADDMA1999999102571
0057105760999991937090809004+50700+012467FM-12+009499999V0202301N00931220001CN0100001N9+02611+01611101891ADDAY101031GF102991021071008001001001MD1810061+9999MW1051
0051352290999991937122709004+50233+057233FM-12+022099999V0200701N00101220001CN0100001N9-01721+99999103991ADDAY101999GF100991001001999999001001MD1810161+9999
0056128550999991937110418004+47033+019783FM-12+011499999V0203601N00671012301CN0020001N9+00781+00561999999ADDAY161999GF108991081001012501071999EQDQ01+000702PRSWM1
0037132420999991937021706004+44783+017217FM-12+015099999V0209991C00001220001CN0200001N9-00111-00111101341ADDAY101999GF104991001001999999041999
0072347040999991937062723004+46833+035367FM-12+003999999V0209991C00001220001CN0040001N9+01781+99999101191ADDAY101999GF100991001001999999001001EQDQ01+000032APCTENQ02+000002APC3  
0043122720999991937030615004+53767+020417FM-12+004199999V0200501N00261002401CN0040001N9+99999+99999999999ADDAY121999GF108991081051002501999999MW1051
0037122360999991937091906004+53733+018933FM-12+001999999V0201401N00261220001CN0200001N9+99999+99999999999ADDAY101999GF101991011011022501001999
0065031000999991937011418004+56483-006867FM-12+000999999V0201701N015419999999N0200001N9+00561+00171101301ADDGA1011+999999019GF101991011011008001041081IA1009MD1810181+9999
0056023240999991937121506004+62050+014417FM-12+036399999V0209991C00001004501CN0500001N9-00721+99999100901ADDAY121999GF106991061051004501001999EQDQ01+000902WODIR 
0076101700999991937092809004+54183+012100FM-12+000299999V0201601N00461220001CN0020001N9+01611+01331101071ADDAY101999GF104991999001999999071001MD1710161+9999MW1051EQDQ01+000002SCOTLC
0037020800999991937112606004+68450+022500FM-12+033399999V0202301N001019999999N0500001N9-01391+99999099131ADDAY121999GF107991011051008001999999
0065037970350471937071718004+51350+001367FM-12+004799999V0201801N004619999999N0200001N9+02171+00941102391ADDGA1011+999999019GF101991011011008001001001IA1009MD1310041+9999
0025745700138401937022713004+39833-084050SAO  +0254FFO  V0202701N001510090019N0112001N9-00091-00421102441ADDGA1081+999999059MW1001
0051238490999991937112720004+61250+073400FM-12+004099999V0200901N00461220001CN9999999N9-02391+99999102981ADDAY101999GF100991001001999999001001MD1310141+9999
0051319960999991937092504004+43733+135267FM-12+000899999V0201801N00931090001CN0200001N9+02001+99999101781ADDAY121999GF108991021061002501001071MD1810121+9999
0043103840999991937021710004+52483+013433FM-12+001799999V0202501N00671004501CN0100001N9+99999+99999999999ADDAY161999GF108991061061004501999999MW1211
0070275530999991937051116004+56333+044000FM-12+015999999V0203201N00671007501CN0040001N9+00781+99999101661ADDAY111999GF107991061051008001041001IA1089KA1999M+01221MD1310141+9999
0037074880999991937010506004+45167+005733FM-12+032499999V0209991C00001220001CN0100001N9+00781+99999103301ADDAY101999GF104991001999999999999999
0100102700999991937010806004+52917+012800FM-12+001499999V0203401N00671007801CN0040001N9+00221+00001102051ADDAA199002091AY121999GF108991081051008001999999IA1089KA1999N+00221MD1310522+9999EQDQ01+000522APC3  
0072270510999991937122622004+59967+042750FM-12+011799999V0209991C000019999999N9999999N9-02001+99999104271ADDAY111999GF107991001001999999071999EQDQ01+000032APCTENQ02+000002APC3  
0037166750999991937110106004+38900+022433FM-12+999999999V0209991C00001007801CN0100001N9+01501+99999999999ADDAY111999GF107991071051008001001999
0057103160999991937101309004+51967+008550FM-12+004499999V0202901N00261000601CN0020001N9+00891+99999102301ADDAY151999GF108991081051000751999999MD1310081+9999MW1531
0025722535129091937090111004+29383-098567SAO  +0207SKF  V0200701N000510045019N0192001N9+02301+02131101321ADDGA1061+999999059MW1001
0051103840999991937021103004+52483+013433FM-12+001799999V0202701N00461002401CN0100001N9+00221+00111100011ADDAY121999GF108991081051002501999999MD1110021+9999
0057104880999991937121912004+51133+013767FM-12+007099999V0209991C00001004501CN0010001N9+00111-00111101541ADDAY121061GF108991081051004501999999MD1710021+9999MW1101
0057104100999991937042112004+51400+006950FM-12+003799999V0202901N00931004501CN0100001N9+00721+00501100931ADDAY191061GF107991061081004501021999MD1310241+9999MW1211
0051108660999991937041012004+48183+011550FM-12+052099999V0202501N002610360019N0100001N9+01891+99999100321ADDAY121061GF107991011011012501071999MD1510021+9999
0037330080999991937030406004+52067+023533FM-12+014099999V0200701N00931220001CN0040001N9-00721-00891102351ADDAY101999GF104991041051002501001999
0037330190999991937100312004+52117+026100FM-12+013799999V0203201N00671220001CN0100001N9+01391+00221102071ADDAY111999GF104991041081004501001999
0057102500999991937121009004+53333+011500FM-12+001299999V0202901N01231002401CN0100001N9-00221+99999099801ADDAY171999GF108991081051002501999999MD1210401+9999MW1711
0051106350999991937103112004+50217+008450FM-12+024499999V0201401N00461220001CN0040001N9+01221+00781099721ADDAY111061GF106991011011001501001041MD1990101+9999
0043103100999991937092306004+55367+007933FM-12+001699999V0200901N00101220001CN0000501N9+99999+99999999999ADDAY141999GF100991001001999999001999MW1421
0072292630999991937050707004+58450+092167FM-12+007899999V0202701N00461220001CN0100001N9+01391+99999101991ADDAY101999GF101991001001999999001081EQDQ01+000032APCTENQ02+000002APC3  
0041722485139441937072123004+32500-093683SAO  +0053BAD  V0200501N001512200019N0240001N9+03021+02241101521ADDGA1011+999999089GA2021+999999029MW1001
0015722860231191937021414004+33900-117250SAO  +0466RIV  V0201401N002610030019N0032001N9+00801+00801101221ADDMW1451MW2611
0037154900999991937081612004+43750+024883FM-12+004099999V0202701N00671220001CN0200001N9+03221+01501100821ADDAY101999GF100991001001999999001999
0067167100999991937062118004+37517+022350FM-12+066599999V0209991C00001220001CN0100001N9+02111+99999101151ADDAA199003091AY111999GF101991011011008001001001IA1009KA1999M+02891
0065036970999991937070418004+51950+001333FM-12+000399999V0202101N004619999999N0200001N9+01721+01061101911ADDGA1011+999999019GF107991061051004501071999IA1009MD1310101+9999
0076122070999991937121606004+53317+015000FM-12+000999999V0203601N00101001501CN0020001N9-00391-00391100231ADDAY121999GF108991081051001501999999IA1309KA1999N-00391MD1710101+9999MW1051
0087104690999991937021806004+51400+012217FM-12+004199999V0203201N00461001501CN0020001N9+00111+00061101171ADDAA199000691AY161061GF108991081051001501999999IA1089KA1999N+00111MD1210241+9999MW1051
0102031400999991937062907004+55867-004433FM-12+000699999V0202801N009319999999N0500001N9+01061+00611100261ADDAA199004091GA1011+999999019GF104991041081008001051011IA1089KA1999M+01611KA2999N+00891MD1310201+9999
0056349290999991937052616004+45033+039650FM-12+003599999V0203401N00101090001CN0200001N9+02281+99999999999ADDAY101999GF107991011041012501001021IA1009KA1999M+02891
0072275530999991937082610004+56333+044000FM-12+015999999V0200201N00671004201CN0040001N9+01391+99999101791ADDAY111999GF108991071091004501001011EQDQ01+000032APCTENQ02+000002APC3  
0037624170999991937042406004+29200+025483FM-12-001599999V0209991C00001220001CN0040001N9+01891+99999101641ADDAY101999GF100991001001999999001999
0057105780999991937020303004+50433+012950FM-12+037099999V0202301N01901000151CN0000001N9-00111-00111099751ADDAY141031GF109991091999000251999999MD1710081+9999MW1451
0029719681999991937031012004+68233-134833FM-12+000999999V0209991C000019999999N0000501N9-02831+99999102171ADDGF100991001999999999999999
0051313690999991937031304004+53133+140750FM-12+001799999V0202701N00261220001CN0500001N9-01391+99999101311ADDAY111999GF101991011041012501001061MD1610401+9999
0037100270999991937050806004+54300+009600FM-12+000299999V0202301N002619999999N0100001N9+99999+99999999999ADDAY121999GF107991041081008001999999
0043783134128571937071312004+22133-084150FM-12+005799999V0200701N00461007801CN0500001N9+02561+99999999999ADDAY111999GF106991061999008001999999MW1021
0037109650999991937012206004+47450+011267FM-12+027799999V0201801N00261220001CN0200001N9+99999+99999999999ADDAY101999GF102991001001999999031999
0063855770999991937030412004-33433-070683FM-12+052099999V0209991C000019999999N0040001N9+01721+99999101331ADDAY101999GF100991001001999999001001IA1009MD1310081+9999MW1001
0057101700999991937102012004+54183+012100FM-12+000299999V0201401N00671220001CN0040001N9+01221+01001102101ADDAY141999GF100991001001999999001001MD1810221+9999MW1051
0087107280999991937020106004+49567+008467FM-12+002999999V0209991C00001000151CN0005001N9+00111+00061100311ADDAA199003091AY131061GF109991091999999999999999IA1199KA1999N-00221MD1310081+9999MW1471
0057166890999991937021718004+38250+021733FM-12+000399999V0200901N00101220001CN0500001N9+00781+99999101551ADDAY101999GF100991001001999999001001IA1009MD1210041+9999
0009726770240331937071701004+45800-108533SAO  +1088BIL  V0200451N008210210019N0800001N1+02301+01021999999ADDMW1171
0057023610999991937070606004+62617+017950FM-12+000999999V0201801N00101220001CN0500001N9+02391+99999101631ADDAY101999GF100991001001999999001001IA1009MD1610021+9999
0037021960999991937021406004+65833+024150FM-12+000999999V0209991C00001007801CN0200001N9-01501+99999102521ADDAY181999GF108991081061008001001999
0067839670999991937020212004-30033-051217FM-12+002399999V0200501N004619999999N0040001N9+02221+99999101591ADDGF104991999999999999999999IA1089KA1999M+03001KA2999N+02001MW1111
0043154100999991937100618004+44633+023550FM-12+007099999V0201601N00101004501CN0005001N9+01001+00891102261ADDAY161999GF108991081061004501001999MW1611
0076286420999991937112003004+55150+061150FM-12+022799999V0209991C00001220001CN0010001N9-01391+99999999999ADDAY141999GF100991001001999999001001IA1309KA1999N-01391MD1810061+9999MW1471
0037122700999991937012106004+53117+020483FM-12+015599999V0209991C00001004501CN0020001N9-01281-01441102571ADDAY101999GF107991071051004501999999
0057124000999991937112921004+51917+015500FM-12+004599999V0202501N00671004501CN0040001N9+00221+00111102271ADDAY161999GF108991081061004501999999MD1990041+9999MW1601
0057357910999991937042814004+47200+073350FM-12+073699999V0209991C00001220001CN0200001N9+01281+99999102631ADDAY111999GF101991001001999999001011IA1009MD1310041+9999
0072340090999991937070623004+51750+036200FM-12+023499999V0202701N00261220001CN0100001N9+01111+99999100541ADDAY101999GF100991001001999999001001EQDQ01+000032APCTENQ02+000002APC3  
0057110350999991937040812004+48217+016550FM-12+015799999V0202501N00101007801CN0040001N9+01001+99999101851ADDAY161061GF108991061061008001021999MD1810061+9999MW1621
0091389870999991937051715004+35283+062350FM-12+062799999V0200201N00261220001CN0200001N9+02501+99999101471ADDAY101999GF100991001001999999001001IA1009KA1999M+02721EQDQ01+000042APCTENQ02+000162APC3  
0070338370999991937112923004+46483+030733FM-12+006599999V0203401N00931007501CN9999999N9+00111+99999999999ADDAY121999GF108991081051008001999999MD1990061+9999EQDQ01+098053APOSLP
0059038560999991937071013004+50533-002450FM-12+001099999V0202901N006719999999N0200001N9+01611+01171101801ADDGA1011+999999019GF107991071041008001001001MD1310101+9999
0037266140999991937081009004+55083+021800FM-12+000399999V0202701N00101220001CN0200001N9+99999+99999999999ADDAY101999GF102991021011008001001999
0074221130999991937061317004+68950+033050FM-12+004699999V0203401N00461007501CN0100001N9+00891+99999101951ADDAA199000391AY181999GF107991061031008001081031IA1089MD1210121+9999MW1801
0037060810999991937120706004+55550+008083FM-12+001599999V0201101N00461007801CN0040001N9+00111+99999099841ADDAY121999GF108991081051008001999999
0009723030137141937092923004+35183-079017SAO  +0064POB  V0200201N001512200019N0128001N9+01571+01351102781ADDMW1001
0057105010999991937012209004+50783+006100FM-12+006399999V0202001N00931030001CN0200001N9+01001+00611101571ADDAY161031GF107991041051004501021999MD1110141+9999MW1211
0043154100999991937021206004+44633+023550FM-12+007099999V0209991C00001002401CN0020001N9+00111-01501100801ADDAY121999GF108991081061002501001999MW1501
0081104680999991937041606004+51833+012200FM-12+001899999V0202701N00461004501CN0100001N9+00891+00671100311ADDAA199007091AY121061GF108991081051004501999999IA1089KA1999N+00891MD1210121+9999
0051352290999991937062109004+50233+057233FM-12+022099999V0203401N00101030001CN0100001N9+01721+99999100851ADDAY121999GF107991021031012501041001MD1310021+9999
0051200490999991937060521004+80333+052800FM-12+000699999V0209999C00001220001CN0200001N9-00281+99999101551ADDAY111999GF104991011051017501031001MD1310101+9999
0035837470999991937032412004-22883-042033FM-12+000399999V0209991C000019999999N0100001N9+02501+99999101551ADDKA1999M+02721KA2999N+02001MW1111
0070282750999991937053014004+58200+068233FM-12+010099999V0203201N00261220001CN0200001N9+00781+99999101941ADDAY121999GF100991001001999999001001IA1089KA1999M+01221MD1310261+9999
0009724567139211937041518004+39367-094917SAO  +0238FLV  V0203601N003612200019N0128001N1+01521+00581101801ADDMW1001
0025722860231191937120716004+33900-117250SAO  +0466RIV  V0201101N001512200019N0160001N9+01071-00651101461ADDGA1001+999999999MW1001
0051103660999991937031812004+52400+012917FM-12+001099999V0202001N00261030001CN0500001N9+01281+00111100921ADDAY121999GF107991041011008001011061MD1990041+9999
0043103400999991937062106004+51983+009517FM-12+002399999V0203201N00261004501CN0040001N9+99999+99999999999ADDAY121999GF108991081061004501999999MW1051
0057218250999991937091516004+71583+130000FM-12+000599999V0203401N00461007501CN0100001N9+00221+99999100331ADDAY161999GF108991081001008001021999MD1310161+9999MW1631
0037121080999991937092306004+54117+016683FM-12+002499999V0200901N00101220001CN0040001N9+99999+99999999999ADDAY101999GF100991001001999999001999
0070071500999991937080418004+48950+002433FM-12+004699999V0203601N00101220001CN0100001N9+02611+99999101731ADDAY111999GF106991001001999999001061IA1009KA1999M+03221MD1610061+9999
0043103120999991937092609004+51933+007650FM-12+001799999V0200701N00101220001CN0020001N9+99999+99999999999ADDAY121999GF101991001001999999031999MW1051
0043122950999991937121312004+53133+023167FM-12+013599999V0209991C00001001501CN0010001N9-00111-00111100951ADDAY141999GF108991081051001501999999MW1101
0070102740999991937073021004+53350+012733FM-12+002299999V0203401N00101220001CN0100001N9+01721+01611101281ADDAY101999GF101991999001999999041001MD1310141+9999EQDQ01+000002SCOTLC
0037166270999991937122712004+40850+025883FM-12+001399999V0200501N00461220001CN0500001N9+00391+99999102501ADDAY111999GF102991001001999999041999
0051363350999991937111420004+49417+075467FM-12+087399999V0203201N00671004201CN0040001N9-02221+99999999999ADDAY121999GF108991081051004501999999MD1310101+9999
0095066600999991937041906004+47383+008550FM-12+049399999V0209991C00001220001CN0040001N9+00501+99999101281ADDAY121999GF108991001001999999071999IA1009KA1999N+00391MD1210101+9999MW1051EQDQ01+001602WODIR 
0043160800999991937120912004+45883+009283FM-12+011999999V0201401N00261000151CN0000501N9+00611+99999100471ADDAY141999GF109991091999000251999999MW1471
0051121860999991937062206004+54033+022517FM-12+005099999V0202501N00461220001CN0200001N9+01611+01331101771ADDAY101999GF100991001001999999001001MD1310061+9999
0037104330999991937022712004+51400+008567FM-12+013799999V0202301N00461220001CN0100001N9+99999+99999999999ADDAY121061GF104991041011008001001999
0009727640240111937020507004+46767-100750SAO  +0506BIS  V0201581N004112200019N0160001N1-01761-02091999999ADDMW1001
0037125700999991937070218004+50850+020667FM-12+999999999V0203401N00101030001CN0040001N9+02001+01331102201ADDAY121999GF107991041071008001061999
0037333930999991937050606004+49817+023950FM-12+033099999V0200501N00101220001CN0100001N9+01781+01331101741ADDAY101999GF100991001001999999001999
0051109620999991937090312004+47800+011017FM-12+030199999V0200501N00461220001CN0200001N9+02221+01001100591ADDAY101061GF101991011011017501001001MD1810021+9999
0037040060999991937061312004+66167-023217FM-12+000699999V0201801N00461012301CN0500001N9+01111+99999099891ADDAY121061GF108991081051012501999999
0087101850999991937072206004+54100+013433FM-12+000199999V0202001N00101004501CN0040001N9+01721+01611100571ADDAA199004091AY121999GF108991061051004501021999IA1009KA1999N+01721MD1990241+9999MW1051
0024990061999991937120122004+62000-033000SAO  +00004YA  V02099999999999999999N0000001N1+01961+01301999999ADDMA1999999101521MW1001
0100319600999991937120822004+43117+131917FM-12+012899999V0201401N00461004201CN0010001N9-00281+99999101171ADDAA199011091AY171999GF108991081051004501999999HL10009IA1189IA2999-00509KA1999N-00281MD1810261+9999
0043166250999991937061918004+40933+024417FM-12+003399999V0209991C000019999999N0500001N9+02501+99999101451ADDAY111999GF106991041071999999001091IA1009
0037040970999991937112506004+65267-013583FM-12+000899999V0202901N00671220001CN0200001N9+00391+99999099621ADDAY111061GF104991001001999999041999
0056349290999991937123016004+45033+039650FM-12+003599999V0200701N001019999999N0200001N9+00501+99999999999ADDAY111999GF108991001001999999071999IA1109KA1999M+00891
0087105010999991937022318004+50783+006100FM-12+006399999V0202901N00671002401CN0010001N9+00281+00061100391ADDAA199000391AY181061GF108991081051002501999999IA1089KA1999M+00501MD1310061+9999MW1681
0051260940999991937082523004+59650+033533FM-12+004999999V0209991C00001220001CN0040001N9+01001+99999102331ADDAY101999GF100991001001999999001001MD1010101+9999
0081351210999991937061115004+51750+055100FM-12+010899999V0203201N00261007501CN0100001N9+02221+99999101051ADDAA199009091AY191999GF106991061091008001999999IA1089KA1999M+03281MD1510021+9999
0065037660999991937100713004+51283-000750FM-12+006999999V0200201N002619999999N0020001N9+01171+01061101471ADDGA1011+999999019GF108991081051002501999999MD1810101+9999MW1051
0051385070999991937072621004+40000+053000FM-12-000799999V0209991C00001220001CN0100001N9+02721+99999100931ADDAY121999GF100991001001999999001001MD1990041+9999
0074101700999991937111418004+54183+012100FM-12+000299999V0202501N00671030001CN0040001N9+00281+00171100691ADDAA199000691AY121999GF107991041081002501071999IA1009MD1810021+9999MW1051
0037135860999991937091618004+41983+021467FM-12+024099999V0209991C00001220001CN0100001N9+01781+99999101451ADDAY101999GF100991001999999999999999
0108249440999991937020811004+60367+120600FM-12+015299999V0209991C00001220001CN0500001N9+99999+99999999999ADDAA199000691AY171999GF100991001001999999001001IA1319KA1999M-02221MW1101EQDQ01+000042APCTENQ02+000122APC3  
0051122050999991937041321004+53400+014633FM-12+000199999V0201101N00461220001CN0200001N9+00721+00501100781ADDAY101999GF101991001001999999001031MD1990081+9999
0051275950999991937061410004+55783+049133FM-12+007099999V0203401N015419999999N0040001N9+01501+99999100231ADDAY121999GF108991081001002501999999MD1310061+9999
0051104690999991937090903004+51400+012217FM-12+004199999V0202701N00261220001CN0100001N9+01001+00781102251ADDAY101031GF102991021051012501001001MD1990061+9999
0057272250999991937100822004+58050+038867FM-12+010199999V0201601N001019999999N0040001N9+00781+99999101541ADDAY161999GF108991001001999999021999MD1810281+9999MW1601
0070284400999991937031721004+56733+060633FM-12+028899999V0203201N009319999999N0040001N9+00111+99999101551ADDAY171999GF107991999061004501999999MD1310061+9999EQDQ01+000092SCOTLC
0009725377148041937011703004+42617-082817SAO  +0176MTC  V0201801N010810075019N0240001N9-00371-00811999999ADDMW1001
0067835870999991937012012004-19933-043933FM-12+091599999V0200501N002619999999N0200001N9+02281+99999101751ADDGF103991999999999999999999IA1009KA1999M+02781KA2999N+01781MW1111
0106289010999991937082904004+53233+050167FM-12+013699999V0200501N00101220001CN0500001N9+01111+99999103191ADDAJ100009199999999AY101999GF100991001001999999001001HL10009IA1009IA2999+00619KA1999N+00891MD1310101+9999
0092122990999991937101809004+52850+015667FM-12+001199999V0202701N00931000151CN0005001N9+01111+01001103011ADDAY141999GF109991091999999999999999MD1710321+9999MW1431EQDQ01+000032APCTENQ02+000002APC3  
0051108640999991937051012004+48067+011650FM-12+016799999V0200501N00101220001CN0500001N9+02001+01061999999ADDAY111061GF104991041021012501001001MD1810101+9999
0070100320999991937040406004+54783+009433FM-12+004299999V0200901N00101012301CN0100001N9+00501+99999100921ADDAY121999GF107991071051012501001001IA1009KA1999N+00391MD1310041+9999
0057109620999991937101209004+47800+011017FM-12+030199999V0201801N00101220001CN0200001N9+00391+00171100041ADDAY101031GF104991041021000251001001MD1110061+9999MW1051
0051356330999991937060409004+47850+059600FM-12+017399999V0200701N006719999999N0100001N9+03001+99999100981ADDAY111999GF107991001001999999041031MD1010001+9999
0043843900999991937021313004-04567-081267FM-12+008799999V0201401N00261220001CN0500001N9+02781+99999100931ADDAY111999GF104991041999012501999999MW1011
0076104680999991937033006004+51833+012200FM-12+001899999V0201401N00261220001CN0020001N9+00111-00111102751ADDAY111061GF104991999001999999021001IA1009KA1999N-00391MD1310101+9999MW1051
0029719576999991937102208004+64900-125500FM-12+009199999V02099999999999999999N9999999N9+99999+99999999999ADDKA1999M+00111KA2999N-00671
0051304930999991937061711004+55633+125517FM-12+085799999V0209991C00001220001CN0100001N9+02001+99999999999ADDAY111999GF106991001001999999001081MD1610061+9999
0070369740999991937060214004+41433+076000FM-12+202099999V0209991C00001220001CN0200001N9+01281+99999099511ADDAY121999GF102991011051012501031001IA1009KA1999M+01891MD1110201+9999
0076351210999991937050415004+51750+055100FM-12+010899999V0203201N00931007501CN0100001N9+00611+99999099691ADDAY181999GF107991071091008001999999IA1089KA1999M+00891MD1210101+9999MW1251
0009726770240331937110509004+45800-108533SAO  +1088BIL  V0202481N009312200019N0640001N1+00521-00651999999ADDMW1001
0067349290999991937022816004+45033+039650FM-12+003599999V0200901N00461001201CN0100001N9-00281+99999999999ADDAA199000691AY171999GF108991081051001501999999IA1159KA1999M+00111
0024990061999991937080202004+62000-033000SAO  +00004YA  V02099999999999999999N0000001N1+02851+02631999999ADDMA1999999099731MW1001
0051356330999991937120809004+47850+059600FM-12+017399999V0202001N00671007501CN0100001N9+00221+99999101341ADDAY121999GF108991081051008001999999MD1610081+9999
0023725377148041937121109004+42617-082817SAO  +0176MTC  V0202301N003610150019N0160001N9-00921-01151102171ADDMD1310041+9999MW1001
0100249590999991937112822004+62017+129750FM-12+010999999V0209991C00001220001CN0200001N9-04221+99999103261ADDAA199000391AY101999GF100991001001999999001001HL10009IA1319IA2999-04399KA1999N-04221MD1310021+9999
0051111200999991937090318004+47283+011417FM-12+057099999V0209991C00001220001CN0200001N9+02001+99999101761ADDAY111061GF102991021011022501001001MD1310021+9999
0025725377148041937031423004+42617-082817SAO  +0176MTC  V0203601N008712200019N0240001N9-00261-00761102341ADDGA1001+999999999MW1001
0023691174999991937060100004+39833-076117SAO  +0002KQAH V0202251N003112200019N0112001N1+02521+01961101461ADDMD1710101+9999MW1001
0076105130999991937100206004+50983+006883FM-12+004899999V0201401N00461220001CN0020001N9+00891+99999101331ADDAY101061GF101991001001999999001011IA1089KA1999N+00611MD1310021+9999MW1051
0037024330999991937070106004+60617+015633FM-12+012299999V0201801N00461220001CN0500001N9+01611+99999100441ADDAY111999GF104991041011008001031999
0057106850999991937012615004+50300+011867FM-12+017399999V0201601N00261004501CN0040001N9-00721-00831101161ADDAY121031GF108991071051004501021999MD1310041+9999MW1051
0051369740999991937031920004+41433+076000FM-12+202099999V0201101N00461220001CN0200001N9-01111+99999099901ADDAY101999GF100991001001999999001001MD1810101+9999
0076335870999991937101217004+48750+030217FM-12+021999999V0202701N00461004201CN0020001N9+00721+99999101191ADDAY161999GF108991061061004501021999IA1109KA1999M+01001MD1310101+9999MW1611
0071033340999991937050818004+53350-002267FM-12+007099999V0201401N002619999999N0020001N9+01111+00891101841ADDGA1011+999999019GF108991081051004501999999IA1089MD1810141+9999MW1051
0015725310148061937021810004+40300-088133SAO  +0228RAN  V0201801N005110018019N0024001N1+00081+00021101351ADDMW1451MW2711
0051223490999991937012822004+66167+039533FM-12+000899999V0201401N00261015001CN0100001N9-00611+99999102851ADDAY121999GF108991081051017501999999MD1110141+9999
0091382620999991937060715004+42933+059767FM-12+006799999V0203401N00101220001CN0200001N9+02721+99999999999ADDAY101999GF100991001001999999001001IA1009KA1999M+03111EQDQ01+000032APCTENQ02+000002APC3  
0043129420999991937121118004+46100+018250FM-12+015499999V0200501N00461007801CN0100001N9+00391+00281101351ADDAY161999GF108991081061008001999999MW1211
0009725377148041937091114004+42617-082817SAO  +0176MTC  V0203201N012310045019N0240001N9+01851+01411100511ADDMW1001
0083100050999991937110118004+54017+008250FM-12+999999999V0201101N006719999999N0040001N9+01111+99999100771ADDAA199007091AY111999GF199999999999012501999001EQDQ01+000032APCTENQ02+000002APC3  
0093280440999991937121015004+59600+060600FM-12+009699999V0203201N009319999999N0040001N9-01891+99999101741ADDAA199000391AY171999GF107991999001999999071001IA1319MD1310201+9999MW1971EQDQ01+000002SCOTLC
0009724050137431937121809004+38850-077033SAO  +0020DCA  V0201801N003110105019N0064001N1+01301+01191999999ADDMW1051
0078221490999991937051704004+68150+039650FM-12+007599999V0200201N01541004201CN0100001N9+00111+99999102731ADDAY121999GF108991081051004501999999IA1089EQDQ01+000042APCTENQ02+000102APC3  
0051122110999991937030200004+53767+015783FM-12+002799999V0200901N00261220001CN0100001N9+00001-00111100701ADDAY101999GF104991001001999999031999MD1310101+9999
0104374720999991937031204004+43000+047500FM-12+003599999V0202901N01231000151CN0005001N9+00391+99999101371ADDAA199000391AJ100009199999999AY131999GF109991091999000251999999IA1089KA1999N+00281MD1310181+9999MW1451
0076124000999991937042400004+51917+015500FM-12+004599999V0202901N00671004501CN0100001N9+00501+00391100741ADDAY161999GF108991081061004501999999MD1410001+9999MW1581EQDQ01+000032APCTEN
0025725115147111937121908004+40200-076767SAO  +0097MDT  V0203151N004110090019N0240001N1+00411+00081099951ADDGA1081+999999059MW1001
0029719681999991937030412004+68233-134833FM-12+000999999V0209991C000019999999N0000501N9-03111+99999102071ADDGF100991001999999999999999
0037166750999991937120312004+38900+022433FM-12+999999999V0209991C00001015001CN0200001N9+01501+99999101331ADDAY111999GF108991081061017501001001
0037103400999991937010512004+51983+009517FM-12+002399999V0202701N00261004501CN0040001N9+99999+99999999999ADDAY151999GF108991081061004501999999
0095060810999991937091718004+55550+008083FM-12+001599999V0201401N00101007801CN0100001N9+01501+99999099721ADDAA199009091AY161999GF108991081061008001999999IA1089MW1611EQDQ01+000042APCTENQ02+000042APC3  
0072100050999991937052518004+54017+008217FM-12+999999999V0200501N00101220001CN0040001N9+01721+99999999999ADDAY101999GF104991041001017501001011EQDQ01+000062APCTENQ02+000002APC3  
0067834830999991937080512004-17350-044950FM-12+049399999V0202301N001019999999N9999999N9+02111+99999102071ADDGF100991999999999999999999IA1009KA1999M+03111KA2999N+00891MW1401
0076222160999991937112505004+67583+033700FM-12+999999999V0201601N00101001201CN0040001N9-00721+99999100941ADDAY121999GF108991081051001501999999HL10009IA1319IA2999-01119MD1810221+9999
0043103640999991937102009004+51983+013083FM-12+002799999V0201101N00261220001CN0040001N9+99999+99999999999ADDAY101999GF100991001001999999001999MW1051
0076104100999991937090706004+51400+006950FM-12+003799999V0202001N00261220001CN0040001N9+01611+01171102021ADDAY121061GF104991001001999999001051IA1009KA1999N+01001MD1210061+9999MW1051
0073108660999991937022818004+48183+011550FM-12+052099999V0202701N00931000151CN0002001N9-00221+99999099841ADDAA199004091AY171061GF109991091999000251999999IA1209KA1999M+00781MW1731
0009727640240111937110810004+46767-100750SAO  +0506BIS  V0202931N004612200019N0160001N1-00041-00311999999ADDMW1001
0051354060999991937042910004+49033+051833FM-12+002099999V0202501N00671012001CN0100001N9+02611+99999101171ADDAY121999GF107991061051012501041001MD1810101+9999
0106380010999991937071204004+44550+050250FM-12-002399999V0200901N00671220001CN0100001N9+02781+99999100631ADDAJ100009199999999AY101999GF102991999001999999041001IA1009KA1999N+02391MD1210081+9999EQDQ01+000002SCOTLC
0037151110999991937082806004+46917+026900FM-12+018099999V0209991C000019999999N9999999N9+99999+99999104151ADDAY111999GF107991999999999999999999
0057112400999991937012412004+46983+015450FM-12+033599999V0200901N00101004501CN0020001N9-00721+99999102721ADDAY171061GF108991081051004501999999MD1990061+9999MW1771
0043110270999991937032406004+48217+015333FM-12+022099999V0200901N00101015001CN0100001N9+00281+99999100701ADDAY121061GF108991081051017501999999MW1051
0051122000999991937082612004+53917+014283FM-12+999999999V0200501N00261030001CN0100001N9+02221+01941102001ADDAY121999GF108991011011004501011999MD1810061+9999
0037110090999991937111612004+48183+014033FM-12+031999999V0202701N00101012301CN0200001N9+00501+99999103461ADDAY111061GF106991061051012501001001
0070229810999991937080404004+60767+046300FM-12+006399999V0203201N00261220001CN0200001N9+01281+99999102751ADDAY101999GF101991001001999999001051IA1009KA1999N+00611MD1310141+9999
0106361770999991937081202004+50400+080217FM-12+020299999V0209991C00001220001CN0200001N9+01111+99999101741ADDAJ100009199999999AY101999GF101991011001022501051011HL10009IA1009IA2999+00509KA1999N+00721MD1310101+9999
0051226760999991937030322004+63583+045633FM-12+006599999V0203201N00261007501CN0000001N9-00281+99999103091ADDAY121999GF108991081051008001999999MD1010001+9999
0087249440999991937100111004+60367+120600FM-12+015299999V0209991C00001002101CN0002001N9-00111+99999999999ADDAA199000691AY171999GF108991081051002501999999IA1139KA1999M+00391MD1810181+9999MW1711
0063856200999991937050312004-35417-071650FM-12+009799999V0203201N002619999999N0010001N9+00781+99999101801ADDAY101999GF108991081051999999999999IA1009MD1310061+9999MW1031
0039691174999991937051718004+39833-076117SAO  +0002KQAH V0202701N009810150019N1600001N1+02351+00851101151ADDGA1061+999999089MD1710141+9999MW1001
0057109540999991937101600004+47817+010883FM-12+022199999V0209991C00001002401CN0020001N9+00781+00721102541ADDAY161061GF108991081061002501999999MD1210021+9999MW1601
0057105100999991937051509004+50350+006950FM-12+018999999V0202301N00461004501CN0200001N9+01111+99999101301ADDAY181031GF108991081091004501999999MD1310061+9999MW1161
0051307580999991937112205004+52050+113317FM-12+066599999V0202901N99999030001CN0200001N9-01891+99999101731ADDAY121999GF108991011061012501021999MD1510221+9999
0057100060999991937120312004+54600+011150FM-12+999999999V0200901N00261000151CN0005001N9+00721+99999099641ADDAY151999GF109991091999999999999999MD1310041+9999MW1451
0041722485139441937081210004+32500-093683SAO  +0053BAD  V0202301N001012200019N0192001N9+02181+02071101521ADDGA1061+015009049GA2021+999999019MW1001
0024990061999991937112408004+62000-033000SAO  +00004YA  V02099999999999999999N0000001N1+01301+00631999999ADDMA1999999101961MW1001
0070389870999991937101315004+35283+062350FM-12+062799999V0209991C00001220001CN0200001N9+01391+99999999999ADDAY101999GF100991001001999999001001IA1009KA1999M+02781MD1310101+9999
0071031710999991937110618004+56383-002883FM-12+001199999V0209991C000019999999N0040001N9+00941+00721102301ADDGA1011+999999019GF108991081051012501999999IA1089MD1810101+9999MW1051
0068108660999991937112406004+48183+011550FM-12+052099999V0201401N00101001501CN0040001N9+03221+99999102081ADDAA199000691AY121061GF108991081051001501999999MD1810121+9999MW1051
0037162400999991937100918004+41867+012550FM-12+005099999V0203401N00101220001CN0040001N9+01781+99999101891ADDAY121999GF102991021999012501999999
0009749105999991937121204004+40733-073600SAO  +003899999V0203151N001512200019N0096001N1-00531-01311102031ADDMW1051
0037126650999991937102418004+49750+018633FM-12+031299999V0201601N00261220001CN0040001N9+01501+01061100081ADDAY111999GF101991011041008001001999
0074858620999991937072112004-45383-072683FM-12+001099999V0209991C000019999999N0010001N9+00221+99999103121ADDAA124006091AY101999GF108991081061999999999999IA1089MD1310401+9999MW1501
0037108450999991937110909004+48433+010233FM-12+014599999V0202501N00671015001CN0100001N9+99999+99999999999ADDAY121031GF107991071051017501071999
0083382620999991937090715004+42933+059767FM-12+006799999V0200201N00101220001CN0100001N9+02001+99999999999ADDGF102991001001999999001061IA1009KA1999M+02781EQDQ01+000032APCTENQ02+000002APC3  
0090037970350471937120618004+51350+001367FM-12+004799999V0202601N002619999999N0005001N9+00061-00061099501ADDGA1011+999999019GF106991061051008001001001IA1089MD1310061+9999MW1441EQDQ01+000452PRSWM1
0043267130999991937012612004+54633+022567FM-12+002399999V0200901N00461220001CN0020001N9+99999+99999999999ADDAY101999GF100991001001999999001999MW1051
0065038940999991937122113004+49450-002550FM-12+010499999V0201801N001019999999N0005001N9+00831+00781100991ADDGA1011+999999019GF108991081051002501999999MD1810021+9999MW1611
0078154600999991937110518004+44200+027350FM-12+002699999V0200901N00461000151CN9999999N9+01391+01281104951ADDAY141999GF108991999051000251091999MW1451EQDQ01+000082SCOTLCQ02+500002VODIS 
0057333450999991937041711004+50450+030500FM-12+018399999V0201101N00461012001CN0040001N9+01281+99999100481ADDAY121999GF107991061061012501071999MD1310021+9999MW1211
0057360460999991937101907004+51867+084833FM-12+025399999V0200501N00261004201CN0100001N9+00111+99999101661ADDAY171999GF108991081051004501999999MD1810301+9999MW1711
0072125660999991937090212004+50083+019983FM-12+022299999V0200701N00261220001CN0100001N9+02221+99999102181ADDAY101999GF102991021011012501001001EQDQ01+000012APCTENQ02+000002APC3  
0051105100999991937010603004+50350+006950FM-12+018999999V0202701N00671000151CN0040001N9+00001+99999102101ADDAY121031GF108991081061000251999999MD1810141+9999
0043010010999991937040418004+70983-008300FM-12+002399999V0209991C00001000151CN0000001N9-00111+99999101281ADDAY141999GF109991091999000251999999MW1361
0043020800999991937082106004+68450+022500FM-12+033399999V0209991C00001007801CN0002001N9+01221+99999102381ADDAY111999GF108991081051008001999999MW1421
0037103030999991937071312004+52867+007317FM-12+000499999V0202501N00671004501CN0040001N9+99999+99999999999ADDAY111999GF107991071051004501001999
0037021960999991937040106004+65833+024150FM-12+000999999V0200501N00101220001CN0500001N9+00111+99999102431ADDAY111999GF108991001001999999011999
0037330190999991937051918004+52117+026100FM-12+013799999V0202701N00261030001CN0100001N9+02111+01171101391ADDAY111999GF106991021091004501061999
0051268980999991937040523004+53300+034250FM-12+016299999V0209991C00001220001CN0040001N9+00001+99999102261ADDAY101999GF100991001001999999001001MD1310081+9999
0056028360999991937121112004+67367+026650FM-12+018099999V0200901N00461004501CN0100001N9-00501+99999102051ADDAY171999GF107991071051004501001999EQDQ01+000802PRSWM1
0024990061999991937122619004+62000-033000SAO  +00004YA  V02099999999999999999N0000001N1+01631+01351999999ADDMA1999999101631MW1001
0051104270999991937021700004+51183+008483FM-12+025799999V0202501N00931000151CN0000001N9+00001+00001098681ADDAY171061GF109991091999000251999999MD1710101+9999
0024990061999991937041216004+62000-033000SAO  +00004YA  V02099999999999999999N0000001N1+02521+02241999999ADDMA1999999100711MW1001
0051104800999991937050509004+51300+013067FM-12+004999999V0202501N00261220001CN0100001N9+01891+00941999999ADDAY101031GF102991011011017501071001MD1510021+9999
0076351210999991937040703004+51750+055100FM-12+010899999V0203401N00101220001CN0100001N9-00391+99999102051ADDAY101999GF100991001001999999001001IA1159KA1999N-00501MD1310101+9999MW1101
0043102800999991937020912004+53600+013300FM-12+002199999V0201101N00671002401CN0040001N9+99999+99999999999ADDAY171999GF108991081061002501999999MW1681
0051370990999991937031310004+43633+039750FM-12+999999999V0202901N00101220001CN0100001N9+01111+99999999999ADDAY101999GF101991011011008001001001MD1810081+9999
0037125700999991937120112004+50850+020667FM-12+999999999V0202301N00261001501CN0005001N9+00111+00061101361ADDAY171999GF108991081051001501999999
0051104490999991937010603004+51483+010317FM-12+009099999V0202501N00931004501CN0100001N9+00221+00001101941ADDAY121031GF108991081051004501999999MD1990101+9999
0094382620999991937050815004+42933+059767FM-12+006799999V0200501N001019999999N0200001N9+01391+99999100851ADDAY121999GF107991999001999999011001IA1009EQDQ01+000002SCOTLCQ02+000032APCTENQ03+000002APC3  
0037135850999991937030506004+41333+021550FM-12+066199999V0202301N00101007801CN0200001N9+00501+00281101771ADDAY121999GF108991081051008001999999
0037134740999991937122712004+42883+020883FM-12+052199999V0203601N00261007801CN0100001N9-00221-00331102741ADDAY121999GF108991081999008001999999
0051367140999991937041108004+46600+073100FM-12+035199999V0201101N00101220001CN0200001N9+00221+99999102101ADDAY111999GF104991041011017501001001MD1310201+9999
0051219820999991937031201004+70967-178550FM-12+000399999V0209991C00001060001CN0500001N9+99999+99999102821ADDAY181999GF108991001001999999001071MD1310061+9999
0061824000999991937080612004-03833-032417FM-12+010199999V0201401N009319999999N0100001N9+02611+99999101661ADDGF102991999999999999999999KA1999M+02721KA2999N+02391MW1111
0070319600999991937040322004+43117+131917FM-12+012899999V0201401N00461090001CN0040001N9+00001+99999101511ADDAY111999GF107991011051001501001071IA1139KA1999N-00111MD1810061+9999
0076103490999991937092606004+52633+011933FM-12+001699999V0202901N00261002401CN0005001N9+01221+01221102441ADDAY141999GF108991081051002501999999IA1009KA1999N+01221MD1310181+9999MW1461
0009726810241311937071310004+43567-116217SAO  +0874BOI  V0201351N001512200019N0240001N1+01571+01191999999ADDMW1001
0051343360999991937071922004+49933+040567FM-12+008699999V0209991C00001220001CN0040001N9+01391+99999101421ADDAY111999GF100991001001999999001001MD1210061+9999
0081106850999991937022706004+50300+011867FM-12+017399999V0202001N00461030001CN0200001N9+00391+00281100141ADDAA199002091AY121061GF106991041061004501031001IA1199KA1999N+00221MD1610021+9999
0024990061999991937040115004+62000-033000SAO  +00004YA  V02099999999999999999N0000001N1+02071+01691999999ADDMA1999999101121MW1001
0043126650999991937090406004+49750+018633FM-12+031299999V0201601N00261220001CN0100001N9+01721+01281102161ADDAY101999GF100991001001999999001999MW1051
0057121160999991937082403004+54450+017000FM-12+001299999V0209991C00001000151CN0000001N9+01391+01391101631ADDAY141999GF109991091999999999999999MD1310041+9999MW1451
0029154200999991937060912004+44483+026133FM-12+009299999V0209991C00001220001CN0200001N9+02781+00611102021ADDGF199999001001999999001999
0071035780999991937031418004+52367+000467FM-12+000599999V0203401N009319999999N0040001N9+00281+00221098411ADDGA1011+999999019GF108991071061002501021999IA1089MD1310301+9999MW1611
0037128050999991937071906004+47683+016583FM-12+023499999V0203601N00931220001CN0200001N9+02001+01721101821ADDAY101999GF100991001001999999001999
0037167430999991937051512004+36133+023000FM-12+018499999V0200501N00671220001CN0500001N9+02281+99999101541ADDAY101999GF101991011021999999001001
0043072490999991937090106004+48000+001800FM-12+012999999V0209991C00001220001CN0040001N9+01721+99999101671ADDAY121999GF106991001001999999001999MW1051
0043111820999991937120312004+47800+016233FM-12+026899999V0201101N00261036001CN0040001N9+00721+99999099261ADDAY161061GF108991041051002501021999MW1211
0070116030999991937041006004+50767+015067FM-12+038799999V0201401N00261220001CN0040001N9+00891+99999101121ADDAY111999GF102991021041008001001001IA1089KA1999N+00501MD1810101+9999
0076103160999991937082509004+51967+008550FM-12+004499999V0200501N00101220001CN0020001N9+02001+99999102211ADDAY141999GF104991021041004501001021MD1810011+9999MW1051EQDQ01+000002APC3  
0058787930999991937092409004+08383-082450FM-12+001999999V0202301N00411220001CN0500001N9+99999+99999999999ADDAY101999GF102991999999999999999999MA1999999100981MW1001
0009726770240331937041905004+45800-108533SAO  +1088BIL  V0201801N001512200019N0960001N1+01071-00371999999ADDMW1001
0043104000999991937052503004+51283+006767FM-12+001199999V0209991C00001220001CN0020001N9+99999+99999999999ADDAY101031GF100991001001999999001999MW1051
0051257770999991937090313004+62300-179050FM-12+999999999V0200501N00101007501CN0000001N9+00781+99999102751ADDAY111999GF108991081051008001999999MD1810021+9999
0037133530999991937113006004+43867+018350FM-12+048899999V0209991C00001012301CN0100001N9-00611-00611102891ADDAY121999GF107991061041012501001999
0009691174999991937050119004+39833-076117SAO  +0002KQAH V0202251N005112200019N1600001N1+02131+00411102611ADDMW1001
0091031590999991937060907004+56033-003133FM-12+005899999V0202301N001019999999N0200001N9+01111+00891101341ADDGA1011+999999019GF106991041051008001041001IA1009KA1999M+01671KA2999N+00941MD1310081+9999
0073104530999991937032118004+51800+010617FM-12+034899999V0202901N01231000151CN0000001N9-00281-00281098151ADDAA199001091AY141061GF109991091999000251999999IA1319KA1999M-00281MW1451
0037167100999991937073106004+37517+022350FM-12+066599999V0209991C00001220001CN0200001N9+02111+99999999999ADDAY101999GF100991001001999999001999
0009726810241311937011508004+43567-116217SAO  +0874BOI  V0201581N005110075019N0160001N1+00021-00481999999ADDMW1001
0051286980999991937110508004+54917+073400FM-12+009499999V02099999999999999999N0100001N9+00721+99999100691ADDAY121999GF108991999051000751999999MD1310021+9999
0043101310999991937060118004+53867+008717FM-12+000499999V0202501N00671007801CN0200001N9+01221+99999999999ADDAY121999GF106991061021008001001001IA1009
0029691174999991937011409004+39833-076117SAO  +0002KQAH V0201801N001510001519N0000001N1+00691+00631102201ADDMD1710161+9999MW1451MW2511
0057061800999991937020818004+55617+012650FM-12+000199999V0201101N01231220001CN0100001N9-00111+99999100781ADDAY111999GF102991021011008001001001IA1139MD1310081+9999
0076101800999991937090606004+54350+012733FM-12+000199999V0202001N00671220001CN0100001N9+01501+01391101941ADDAY111999GF104991001001999999071051IA1009KA1999N+00721MD1990041+9999MW1051
0031691174999991937012023004+39833-076117SAO  +0002KQAH V0200231N007210045019N0016001N1+00191+00131103081ADDGA1081+999999079MW1451MW2511
0024990061999991937031318004+62000-033000SAO  +00004YA  V02099999999999999999N0000001N1+01631+01241999999ADDMA1999999101291MW1001
0059039170999991937111713004+54650-006217FM-12+006799999V0201101N012319999999N0040001N9+00671+00061099971ADDGA1011+999999019GF107991021051004501071999MD1810201+9999
0043846910999991937042720004-13750-076233FM-12+000699999V0202301N00671220001CN0500001N9+02281+99999100661ADDAY101999GF100991001999999999999999MW1001
0072236310999991937072221004+63933+065067FM-12+004099999V0202901N00261015001CN0500001N9+00721+99999100381ADDAY121999GF108991081081012501999999EQDQ01+000032APCTENQ02+000002APC3  
0057372600999991937032416004+42983+040967FM-12+000899999V0202001N00261220001CN0200001N9+01281+99999101851ADDAY101999GF102991001001999999001051IA1089MD1610061+9999
0054374840999991937042016004+41650+041633FM-12+000399999V0209991C00001220001CN0500001N9+01221+99999101991ADDAA199031091AY161999GF100991001001999999001001IA1009
0009726980242291937032819004+45600-122650SAO  +0012PDX  V0202701N001510090019N0400001N1+00801+00131999999ADDMW1001
0057100320999991937090212004+54783+009433FM-12+004299999V0202301N00931004501CN0040001N9+02001+99999101351ADDAY161999GF107991071051004501999999MD1310061+9999MW1051
0041691174999991937061420004+39833-076117SAO  +0002KQAH V0202251N004612200019N0128001N1+03131+02301100711ADDGA1021+015009089GA2051+999999029MW1001
0072219820999991937031813004+70967-178550FM-12+000399999V0203401N00671060001CN0200001N9-02611+99999101441ADDAY121999GF108991001001999999001071EQDQ01+000032APCTENQ02+000002APC3  
0057104770999991937113012004+51333+012650FM-12+004999999V0202301N00671004501CN0040001N9+00281+00171102081ADDAY171061GF108991081051004501999999MD1810101+9999MW1051
0076360460999991937102907004+51867+084833FM-12+025399999V0202301N009319999999N0200001N9+00501+99999102351ADDAY101999GF106991999051008001999999MD1810141+9999MW1601EQDQ01+000082SCOTLC
0051104920999991937031212004+51767+014300FM-12+002399999V0201601N00931220001CN0100001N9+01281+00391099331ADDAY121061GF107991001001999999071061MD1710181+9999
0037121950999991937080906004+54083+022933FM-12+017699999V0209991C00001220001CN0040001N9+02111+01831101431ADDAY111999GF102991021011004501001999
0065034970999991937011518004+52583+001733FM-12+000299999V0200801N002619999999N0100001N9+00441+00061101401ADDGA1011+999999019GF107991071051008001001001IA1089MD1810101+9999
0059031590999991937041113004+56033-003133FM-12+005899999V0202301N001019999999N0200001N9+01001+00111100101ADDGA1011+999999019GF107991021081008001001041MD1310081+9999
0087259540999991937101620004+60433+166050FM-12+000599999V0202501N00101012001CN0500001N9+00001+99999101501ADDAJ100009199999999AY101999GF108991081051012501999999IA1139KA1999N-00281MD1610021+9999
0043109650999991937111809004+47450+011267FM-12+027799999V0201801N00101015001CN0020001N9+99999+99999999999ADDAY121999GF107991071051017501999999MW1051
0037026720999991937061806004+56650+016450FM-12+000799999V0202501N00461220001CN0200001N9+01391+99999102231ADDAY111999GF102991011011012501001999
0056077470999991937013012004+42733+002867FM-12+004599999V0200701N00101220001CN0200001N9+01391+99999100392ADDAY101999GF100991001001999999001999EQDQ01+100393APOSLP
0067834370999991937092812004-16717-043850FM-12+063499999V0203201N002619999999N0040001N9+02111+99999101411ADDGF105991999999999999999999IA1009KA1999M+03001KA2999N+01721MW1501
0078280440999991937030115004+59600+060600FM-12+009699999V0201601N00261021001CN0100001N9-01281+99999103491ADDAY121999GF107991071001022501071001IA1319EQDQ01+000032APCTENQ02+000002APC3  
0043103430999991937122309004+52600+010033FM-12+001299999V0201801N00101002401CN0020001N9+99999+99999999999ADDAY151999GF108991061051002501999999MW1051
0064129410999991937110506004+46100+018250FM-12+015499999V0203601N00101007801CN0100001N9+00891+99999101591ADDAY121999GF108991071061008001021999KA1999N+00781MD1610021+9999
0080037750999991937031713004+51467-000317FM-12+000599999V0201901N006719999999N0200001N9+01171+00721100071ADDGA1011+999999019GF107991071081004501001011EQDQ01+000032APCTENQ02+000002APC3  
0057103200999991937060209004+51933+008317FM-12+002199999V0202701N00931004501CN0040001N9+01221+99999101391ADDAY181999GF106991061081004501071001MD1210141+9999MW1801
0051101470999991937011300004+53633+010000FM-12+000599999V0201401N00461004501CN0100001N9-00111-00281103261ADDAY121999GF108991081051004501999999MD1710041+9999
0102388800999991937100215004+38000+058300FM-12+025499999V0201801N002619999999N9999999N9+02281+99999101571ADDAA199005091AY191999GF107991999091999999001001IA1009KA1999M+02611EQDQ01+000032APCTENQ02+000002APC3  
0089323790999991937120920004+56033+159883FM-12+004599999V0209991C00001007501CN0005001N9-02111+99999999999ADDAY111999GF108991999051008001081999IA1319KA1999N-02721MD1310061+9999EQDQ01+000082SCOTLC
0071032080999991937111118004+54417-004367FM-12+000999999V0203601N006719999999N0200001N9+00941+00831102431ADDGA1011+999999019GF106991061081008001041001IA1089MD1810021+9999MW1251
0309722265138211937040210003+32383-086350SAO  +0053MXF  V02020359001552200019N0080005N9+00835+00615101935ADDGA1001+999999999GA2999+999999999GA3999+999999999GD19005+9999999GD29005+9999999GD39005+9999999GD49999+9999999MW1045EQDN01 00900CCLHT 3N02 08200JPWTH 1QNNE11 1 09900E11 1 09900E11 1 09900E11 1 09999G11 3 00900H11U1 00999H11 1 00999H11 1 00999K11 1 00043L11 1 00500N11 1 08200Q11 1 10193S11 1 00047W11 1 56003
0097102890999991937112306004+53317+013867FM-12+000899999V0209991C00001000151CN0000001N9-00391-00391102121ADDAY141999GF109991091999000251999999IA1139KA1999N-00611MW1451EQDQ01+000042APCTENQ02+000062APC3  
0037135850999991937041912004+41333+021550FM-12+066199999V0201801N00101220001CN0200001N9+01501+00611100931ADDAY111999GF104991041011017501001999
0051341220999991937112010004+51700+039217FM-12+014999999V0201101N00931220001CN0100001N9-00111+99999103261ADDAY111999GF102991001001999999001051MD1610121+9999
0059038040999991937122001004+49933-006300FM-12+005099999V0201401N004619999999N0200001N9+00831+00391101321ADDGA1011+999999019GF108991021041008001011999MD1810121+9999
0065036550999991937032713004+51933-001250FM-12+012899999V0203401N006719999999N0040001N9+00721-00111101311ADDGA1011+999999019GF104991041081008001001001MD1310061+9999MW1051
0044719350999991937071415004+60850-115767FM-12+016199999V0200501N002119999999N9999999N9+01391+99999999999ADDGF102991011999999999999999MA1999999100101
0063100910999991937051106004+54600+013233FM-12+000199999V0200901N00261004501CN0010001N9+00781+00721101511ADDAY121999GF107991071051004501999999IA1089MD1310021+9999MW1101
0078037970350471937071701004+51350+001367FM-12+004799999V0202301N001019999999N0200001N9+01281+01061102091ADDGA1011+999999019GF199999001001999999001001MD1310181+9999EQDQ01+000002SCOTCV
0037103840999991937102401004+52483+013433FM-12+001799999V0201401N00461220001CN0200001N9+99999+99999999999ADDAY121999GF106991001001999999071999
0081109080999991937111818004+47867+008017FM-12+045599999V0202501N01231000151CN0000001N9+00221+00171098401ADDAA199005091AY161061GF109991091999000251999999IA1199KA1999M+00281MD1710021+9999
0106296340999991937090101004+54967+082950FM-12+013399999V0201601N00101021001CN0100001N9+01111+99999101971ADDAJ100009199999999AY111999GF107991071001022501071001HL10009IA1089IA2999+00509KA1999N+00781MD1210021+9999
0107239140999991937121903004+60400+056517FM-12+016499999V0200901N00261220001CN0200001N9-02611+99999104361ADDAY111999GF100991001001999999001001IA1319KA1999N-02611EQDQ01+000012SCOTCVQ02+000032APCTENQ03+000002APC3  
0059036970999991937030313004+51950+001333FM-12+000399999V0201401N002619999999N0100001N9+00611+00391100351ADDGA1011+999999019GF108991061051008001021999MD1810061+9999
0081109620999991937120306004+47800+011017FM-12+030199999V0202901N00261000151CN0000001N9-00111-00111097811ADDAA199003091AY161061GF109991091999000251999999IA1209KA1999N-00111MD1710041+9999
0051101130999991937052215004+53700+007150FM-12+000499999V0203201N00101220001CN0200001N9+01611+00941102331ADDAY111999GF104991021021012501041041MD1210021+9999
0029710633999991937121008004+61150-113617FM-12+015899999V02099999999999999999N9999999N9+99999+99999999999ADDKA1999M-02441KA2999N-03221
0071030910999991937042218004+57167-002200FM-12+007199999V0202901N004619999999N0100001N9+01111+00671100771ADDGA1011+999999019GF106991061091004501001001IA1089MD1310241+9999MW1251
0056379070999991937110116004+39600+047650FM-12+043199999V0203201N001019999999N9999999N9+01501+99999999999ADDAY141999GF109991999999999999091999IA1009KA1999M+01781
0081122050999991937022518004+53400+014633FM-12+000199999V0203401N00261220001CN0100001N9-00501-00671101301ADDAA199000691AY121999GF104991041051004501001001IA1309KA1999M+00001MD1310061+9999
0087101800999991937062306004+54350+012733FM-12+000199999V0201801N00461220001CN0040001N9+01501+01061101661ADDAA199003091AY101999GF102991001001999999001021IA1009KA1999N+00891MD1310021+9999MW1051
0051264980999991937122711004+56267+034333FM-12+019799999V0200701N00261220001CN0040001N9-01781+99999104091ADDAY101999GF102991001001999999001021MD1710021+9999
0049854640999991937111412004-32850-070150FM-12+225199999V0209991C000019999999N0500001N9+01001+99999999999ADDAY101999GF100991001001999999001001IA1009MW1001
0037122950999991937120706004+53133+023167FM-12+013599999V0200201N00461220001CN0100001N9-00611-00781100371ADDAY121999GF108991001001999999071999
0055723556999991937111215004+35667-095367SAO  +0186MKO  V0201801N003612200019N0240001N1+01351+00631100851ADDGA1021+018009079GA2021+999999009MD1210101+9999MW1001
0009749105999991937102520004+40733-073600SAO  +003899999V0202251N003612200019N0160001N1+01131+00021101591ADDMW1001
0025726810241311937112920004+43567-116217SAO  +0874BOI  V0203151N002112200019N0192001N1+00581+00241999999ADDGA1999+003009999MW1001
0089345230999991937092416004+48583+039267FM-12+006299999V0200501N00261220001CN0100001N9+02221+99999102171ADDAY101999GF100991001001999999001001IA1009KA1999M+02781MD1310101+9999EQDQ01+000032SCOHCG
0057104480999991937111509004+51483+010783FM-12+005599999V0202501N00671007801CN0100001N9+00281+00061101271ADDAY121031GF108991081051008001999999MD1210011+9999MW1601
0057104880999991937020509004+51133+013767FM-12+007099999V0202001N00671012301CN0040001N9+00501+00281100271ADDAY161031GF108991061051012501071999MD1710181+9999MW1611
0051121160999991937031209004+54450+017000FM-12+001299999V0201601N00671030001CN0100001N9+00611+00391099901ADDAY111999GF106991021051008001071001MD1810121+9999
0009726770240331937072816004+45800-108533SAO  +1088BIL  V0202251N002112200019N0800001N1+02411+01191999999ADDMW1001
0070292630999991937042219004+58450+092167FM-12+007899999V0202501N001019999999N0100001N9-01611+99999102371ADDAY121999GF107991999071017501001001MD1710041+9999EQDQ01+000022SCOTLC
0037153460999991937062406004+45133+024383FM-12+027099999V0200501N00261220001CN0100001N9+02221+01001101751ADDAY101999GF100991001001999999001999
0062104530999991937082906004+51800+010617FM-12+114899999V0203201N00461220001CN0002001N9+01001+99999100391ADDAY141061GF104991001001999999001081IA1009KA1999N+01001MW1411
0051388800999991937042209004+38000+058300FM-12+025499999V0200901N00261220001CN0200001N9+02001+99999102751ADDAY101999GF100991001001999999001001MD1310141+9999
0043040480999991937080912004+63400-020283FM-12+012299999V0202701N00261030001CN0200001N9+01001+99999101361ADDAY121061GF108991041081008001021999MW1161
0106317350999991937101522004+48467+135050FM-12+004699999V0202501N00671220001CN0200001N9-00281+99999101251ADDAJ100009199999999AY101999GF100991001001999999001001HL10009IA1139IA2999-00509KA1999N-00281MD1610061+9999
0068121140999991937050718004+54433+016383FM-12+000299999V0200501N00261220001CN0200001N9+01221+00781102171ADDAA199000691AY171999GF102991011091012501041001IA1009MD1990061+9999
0051380010999991937011210004+44550+050250FM-12-002399999V0201401N01901220001CN0100001N9+00221+99999102541ADDAY111999GF104991001001999999031031MD1990201+9999
0044710435999991937040701004+66250-128633FM-12+006599999V0200901N001019999999N0500001N9-00891+99999999999ADDGF101991001999999999999999MA1999999100241
0056167330999991937090806004+37117+026867FM-12+006299999V0203401N00671220001CN9999999N9+02611+99999100771ADDGF102991999001999999031001KA1999N+02221MD1310101+9999
0111103840999991937050106004+52483+013433FM-12+001799999V0200501N00101021001CN0040001N9+01221+00611102331ADDAY121999GF106991061051022501999001IA1009KA1999N+00891MD1210031+9999MW1051EQDQ01+000042APCTENQ02+000042APC3  
0051347040999991937122523004+46833+035367FM-12+003999999V0200501N00461007501CN0020001N9-00111+99999102101ADDAY121999GF108991081061008001999999MD1410001+9999
0065030750999991937122918004+58450-003083FM-12+003699999V0202901N002619999999N0200001N9+00281+00221104011ADDGA1011+999999019GF106991041051004501071001IA1089MD1810041+9999
0082859670999991937091212004-55150-067483FM-12+000899999V0201801N001019999999N0020001N9+00501+99999098891ADDAY101999GF107991999001999999071001IA1009MD1810121+9999MW1031EQDQ01+000002SCOTLC
0070286790999991937101414004+54883+069117FM-12+013699999V0202001N00101015001CN0100001N9+01221+99999101471ADDAY111999GF108991081051017501999999IA1009KA1999M+01781MD1110021+9999
0070106370999991937061818004+50050+008600FM-12+003499999V0203401N00101030001CN0200001N9+01611+00721101461ADDAY121061GF106991041021012501071011IA1009KA1999M+01781MD1610021+9999
0059037970350471937102501004+51350+001367FM-12+004799999V0201801N006719999999N0200001N9+01061+00831099121ADDGA1011+999999019GF104991001001999999001081MD1810121+9999
0091310880999991937113021004+59350+143283FM-12+000599999V0200201N00261220001CN0500001N9-01781+99999100821ADDAY101999GF102991001001999999001051IA1319KA1999N-02001EQDQ01+000032APCTENQ02+000002APC3  
0025722485139441937071611004+32500-093683SAO  +0053BAD  V0201801N001512200019N0240001N9+02411+02181101631ADDGA1001+999999999MW1001
0057108560999991937110112004+48183+010867FM-12+016899999V0200701N00461036001CN0040001N9+01111+00891100361ADDAY141061GF106991021051002501071011MD1810221+9999MW1051
0076103430999991937102006004+52600+010033FM-12+001299999V0201401N00261000151CN0000501N9+00501+99999102291ADDAY141999GF109991091999000251999999IA1089KA1999N+00391MD1610081+9999MW1451
0043037770999991937041418004+51350-000117FM-12+006699999V0200201N00461002401CN0010001N9+01111+99999099971ADDAY121999GF108991071051002501999999MW1101
0065031590999991937042018004+56033-003133FM-12+005899999V0202301N004619999999N0200001N9+00671+00441099751ADDGA1011+999999019GF107991041081008001061001IA1009MD1310021+9999
0072232420999991937021020004+67700+072950FM-12+000499999V0201601N00671220001CN0010001N9+99999+99999999999ADDAY101999GF100991001001999999001001EQDQ01+000032APCTENQ02+000002APC3  
0102037950999991937031607004+51083+001017FM-12+010499999V0201201N004619999999N0100001N9+00391+00171101961ADDAA124999999GA1011+999999019GF102991011051004501001051IA1089KA1999M+00721KA2999N-00061MD1810121+9999
0043875740999991937101420004-34667-058633FM-12+002599999V0201401N00101004501CN0020001N9+01611+99999101191ADDAY161999GF108991081999004501999999MW1601
0037012350999991937051518004+62083+009117FM-12+064799999V0201801N002619999999N0500001N9+01111+99999101621ADDAY101999GF106991011011012501001999
0041745980137021937030717004+37083-076350SAO  +0002LFI  V0200701N006212200019N0160001N9+00691-00091101901ADDGA1001+999999999GA2001+999999999MW1001
0057265120999991937111612004+54950+120250FM-12+000799999V0203201N00671030001CN0500001N9+00281-00281101331ADDAY171999GF107991041081004501041071MD1310041+9999MW1161
0070286790999991937090402004+54883+069117FM-12+013699999V0203601N01231030001CN0040001N9+01221+99999100671ADDAY121999GF108991011061012501011999IA1009KA1999N+01111MD1010061+9999
0051104270999991937082015004+51183+008483FM-12+025799999V0202501N004619999999N0100001N9+01281+01061100041ADDAY161031GF107991041081004501999999MD1310081+9999
0070288060999991937122816004+53650+052433FM-12+008299999V0200501N00101220001CN0040001N9-02111+99999103591ADDAY111999GF102991001001999999001031IA1309KA1999M-01611MD1810121+9999
0044719031999991937012801004+61300-064883FM-12+003999999V0202301N013419999999N0160001N9-02671+99999999999ADDGF102991021999999999999999MA1999999101421
0072133530999991937091618004+43867+018350FM-12+048899999V0209991C00001220001CN0200001N9+99999+99999101591ADDAY111999GF109991001001999999001999EQDQ01+022933ATOT  Q02 -04393ATOT  
0043154900999991937062812004+43750+024883FM-12+004099999V0201801N00101036001CN0100001N9+02781+01501101091ADDAY121999GF107991021031012501011999MW1171
0065039530999991937041713004+51933-010250FM-12+000999999V0203201N006719999999N0500001N9+00891+00281101911ADDGA1011+999999019GF106991061081008001001001MD1310021+9999MW1251
0067838850999991937081712004-16967-048950FM-12+015299999V0200501N002619999999N9999999N9+01891+99999100581ADDGF100991999999999999999999IA1009KA1999M+03501KA2999N+00721MW1111
0037121080999991937112812004+54117+016683FM-12+002499999V0203601N00931001501CN0020001N9+99999+99999999999ADDAY121999GF108991081061001501999999
0067835240999991937051312004-18867-048850FM-12+072199999V0201401N002619999999N9999999N9+02221+99999101461ADDGF100991999999999999999999IA1009KA1999M+02611KA2999N+01001MW1111
0100105780999991937071906004+50433+012950FM-12+037099999V0202501N00101220001CN0100001N9+01111+01061100471ADDAA199000691AY111061GF104991041071000751001001IA1089KA1999N+99999MD1310021+9999EQDQ01 -04892ATMN  
0074104660999991937121912004+51483+011933FM-12+002499999V0202001N00261012301CN0020001N9+00111-00111101461ADDAA199000691AY171061GF107991061051012501031021IA1309MD1610041+9999MW1221
0025722535129091937082808004+29383-098567SAO  +0207SKF  V0203401N001512200019N0160001N9+02301+01801101151ADDGA1001+999999999MW1001
0070112310999991937021306004+46650+014333FM-12+044999999V0200501N00261220001CN0200001N9-00501+99999101121ADDAY101061GF101991011071022501001001IA1139KA1999N-00501MD1210201+9999
0037023160999991937031106004+61683+013117FM-12+045199999V0209991C00001012301CN0500001N9-02221+99999101931ADDAY121999GF108991081051012501999999
0091367140999991937080914004+46600+073100FM-12+035199999V0209991C00001036001CN0500001N9+02221+99999101211ADDAY101999GF106991021021017501081001IA1009KA1999M+02391EQDQ01+000032APCTENQ02+000002APC3  
0065038140999991937012418004+49950-005200FM-12+007399999V0201801N009319999999N0200001N9+00891+00671098451ADDGA1011+999999019GF106991041091008001011001IA1089MD1310361+9999
0118225220999991937030117004+64950+034483FM-12+001399999V0202001N002619999999N0100001N9-00611+99999102561ADDAA199000691AY121999GF108991999999999999999071IA1319KA1999M-00501EQDQ01+000092SCOTLCQ02+000032APCTENQ03+000002APC3  
0074354060999991937050304004+49033+051833FM-12+002099999V0203201N009319999999N0100001N9+00891+99999100421ADDAJ100009199999999AY141999GF106991061001008001999001IA1009MD1310101+9999
0070282750999991937050314004+58200+068233FM-12+010099999V0200501N006719999999N0100001N9+00891+99999099251ADDAY121999GF108991001001999999071999IA1089KA1999M+01221MD1810241+9999
0009726980242291937082910004+45600-122650SAO  +0012PDX  V0203601N001512200019N0240001N1+01131+00911999999ADDMW1001
0009725377148041937051411004+42617-082817SAO  +0176MTC  V0203401N007210090019N0240001N9+00631+00411101661ADDMW1611
0031745700138401937111822004+39833-084050SAO  +0254FFO  V0202301N002610030019N0016001N9-00091-00091102001ADDGA1081+999999079MW1451MW2711
0057103340999991937082309004+52467+009450FM-12+001699999V0203401N00261001501CN0040001N9+01721+99999101571ADDAY161999GF108991081061001501999999MD1310061+9999MW1501
0043076470999991937082206004+43417+004983FM-12+002999999V0209991C00001220001CN0040001N9+01281+99999101871ADDAY101999GF102991001001999999041999MW1051
0063856400999991937031712004-35317-072417FM-12+000599999V0203201N001019999999N0005001N9+01111+99999101621ADDAY101999GF108991081051999999999999IA1009MD1310101+9999MW1031
0070103930999991937061406004+52200+014117FM-12+003299999V0200701N00261220001CN0200001N9+01721+01061102291ADDAY101061GF101991001001999999001011IA1009KA1999N+01221MD1810021+9999
0051200490999991937032009004+80333+052800FM-12+000699999V0200901N00261220001CN0200001N9-02221+99999101891ADDAY171999GF104991001001999999001091MD1310041+9999
0037130150999991937050412004+46067+014500FM-12+028499999V0209991C00001004501CN0020001N9+01391+00941101351ADDAY121999GF108991081051004501999999
0087304690999991937092823004+55150+116783FM-12+999999999V0209991C000019999999N0005001N9-00501+99999101421ADDAA199000691AY101999GF107991001001999999041071IA1139KA1999N-00611MD1810121+9999MW1421
0113286790999991937060102004+54883+069117FM-12+013699999V0209991C000019999999N0040001N9+01721+99999101841ADDAY111999GF106991999001999999051001IA1009KA1999N+00891MW1101EQDQ01+000002SCOTLCQ02+000032APCTENQ03+000002APC3  
0009726810241311937052215004+43567-116217SAO  +0874BOI  V0203151N002112200019N0240001N1+02021+00631999999ADDMW1001
0089288380999991937020403004+53367+059050FM-12+038299999V0202301N00461220001CN0100001N9-01721+99999103101ADDAY101999GF102991001001999999001021HL10009IA1319IA2999-02229KA1999N-01891MD1990141+9999
0078368700999991937091414004+43250+076917FM-12+084299999V0201101N00461220001CN0500001N9+02001+99999101731ADDAY111999GF102991001001999999001011IA1009EQDQ01+000042APCTENQ02+000102APC3  
0025691174999991937040319004+39833-076117SAO  +0002KQAH V0203601N008212200019N1600001N1+01071-00761102171ADDGA1081+999999029MW1001
0070107370999991937062218004+48683+009000FM-12+042799999V0201101N00261220001CN0200001N9+01891+99999101621ADDAY101061GF101991001001999999001091IA1009KA1999M+02221MD1810061+9999
0072292310999991937070419004+58300+082900FM-12+008099999V0209991C00001220001CN0100001N9+00891+99999101251ADDAY101999GF101991001001999999001051EQDQ01+000032APCTENQ02+000002APC3  
0265722265138211937061214003+32383-086350SAO  +0053MXF  V02036059002152200019N0160005N9+02725+02115102035ADDGA1999+999999004GD19005+9999999GD29999+9999999GD39999+9999999GD49999+9999999EQDQ01    003SCCGA1N01 00900CCLHT 3N02 00000JPWTH 1QNNE11 1 09900E11 1 09999E11 1 09999E11 1 09999G11 3 00900H11U1 32999K11 1 00070L11 1 01000N11 1 00000Q11 1 10203S11 1 00081W11 1 11004
0043028360999991937110912004+67367+026650FM-12+018099999V0209991C00001220001CN0000501N9-00281+99999101591ADDAY141999GF102991001001999999001999MW1461
0051225500999991937060810004+64567+040517FM-12+001099999V0202701N00101030001CN0100001N9+01781+99999102051ADDAY111999GF106991041051004501051999MD1710101+9999
0025788071999991937071317004+08967-079550SAO  +0012MBLB V0201801N003612200019N0240001N1+99999+99999101021ADDGA1999+006009999MW1001
0051264770999991937110611004+56350+030517FM-12+010399999V0202501N00671004201CN0100001N9+00391+99999103491ADDAY121999GF108991081051004501999999MD1210041+9999
0051317350999991937073104004+48467+135050FM-12+004699999V0202501N00671220001CN0200001N9+02611+99999100741ADDAY111999GF104991011021012501001031MD1990041+9999
0070208910999991937072612004+71983+102467FM-12+007099999V0200501N004619999999N0200001N9+02001+99999100611ADDAY101999GF107991001001999999081091IA1089KA1999M+02501MD1810121+9999
0025788071999991937111819004+08967-079550SAO  +0012MBLB V0203151N004112200019N0320001N1+02851+99999100951ADDGA1999+004809999MW1171
0009749105999991937052119004+40733-073600SAO  +003899999V0203151N005112200019N0240001N1+02241+00741101321ADDMW1001
0025725310148061937070311004+40300-088133SAO  +0228RAN  V0201801N001012200019N0112001N1+01691+01461101421ADDGA1031+999999029MW1001
0087377890999991937011616004+40133+044467FM-12+090799999V0201101N00101004201CN0100001N9-00221+99999999999ADDAA199000391AY111999GF108991081051004501999999IA1159KA1999M+00001MD1510101+9999MW1401
0081345040999991937052917004+48550+035100FM-12+006299999V0209991C00001021001CN0040001N9+02111+99999101421ADDAA199000691AY161999GF107991071001022501071001IA1009KA1999M+02281MD1810121+9999
0065032800999991937062018004+54367-001617FM-12+005399999V0200601N002619999999N0100001N9+01391+00721101671ADDGA1011+999999019GF102991021011012501051001IA1089MD1310101+9999
0076317350999991937060422004+48467+135050FM-12+004699999V0201801N001019999999N0200001N9+01281+99999101261ADDAY121999GF108991999001022501071999IA1009MD1510001+9999EQDQ01+000002SCOTLC
0051111200999991937110912004+47283+011417FM-12+057099999V0209991C00001024001CN0100001N9+00891+99999101471ADDAY121061GF107991071001999999031999MD1810201+9999
0037121950999991937081112004+54083+022933FM-12+017699999V0203201N00261030001CN0040001N9+02221+01281101141ADDAY111999GF106991041011004501071999
0009726810241311937010719004+43567-116217SAO  +0874BOI  V0202931N001512200019N0240001N1-01641-02201999999ADDMW1001
0084121070999991937030606004+54283+016117FM-12+999999999V0200701N00461001501CN0020001N9-00111-00221100771ADDAY121999GF108991081051001501999999IA1159MW1051EQDQ01+000042APCTENQ02+000062APC3  
0037022060999991937072512004+63317+012100FM-12+059899999V0201401N00261004501CN0200001N9+01611+99999100081ADDAY161999GF108991081061004501999999
0043074960999991937120606004+45283+006883FM-12+140399999V0209991C00001004501CN0040001N9-00501+99999097891ADDAY171999GF108991081061004501999999MW1731
0037378500999991937060722004+40350+049833FM-12-001099999V0203601N01231012001CN0100001N9+01721+99999101501ADDAY111999GF107991071051012501071999
0037154100999991937022506004+44633+023550FM-12+007099999V0209991C00001004501CN0020001N9-00111-00221101301ADDAY111999GF108991061051004501021999
0051105690999991937091412004+50533+012100FM-12+013799999V0202001N00931004501CN0200001N9+01391+00721100201ADDAY121061GF108991061051004501021999MD1810021+9999
0056166420999991937072206004+39667+020850FM-12+050299999V0209991C00001036001CN0200001N9+01891+99999999999ADDAY191999GF106991011051017501031999EQDQ01+002702WODIR 
0037167100999991937122106004+37517+022350FM-12+066599999V0202701N004619999999N0100001N9+00501+99999999999ADDAY161999GF108991081091999999001999
0057109620999991937082903004+47800+011017FM-12+030199999V0201801N00101220001CN0500001N9+01221+01111100121ADDAY101031GF101991001001999999041999MD1990061+9999MW1121
0059033010999991937010713004+53217-003000FM-12+005299999V0202401N012319999999N0100001N9+00831+00221101571ADDGA1011+999999019GF108991081051008001999999MD1310261+9999
0059036550999991937061613004+51933-001250FM-12+012899999V0202901N004619999999N0200001N9+01561+01111102551ADDGA1011+999999019GF107991061081004501031999MD1810141+9999
0037385070999991937010221004+40000+053000FM-12-000799999V0201401N00261012001CN0100001N9+00221+99999103581ADDAY121999GF107991071051012501001999
0070100050999991937050218004+54017+008250FM-12+999999999V0203601N00261220001CN0200001N9+01001+99999999999ADDAY101999GF101991001999999999999001MD1810181+9999EQDQ01+000052SCOLCG
0009727640240111937073011004+46767-100750SAO  +0506BIS  V0200451N003112200019N0160001N1+01411+01351999999ADDMW1001
0081129410999991937113018004+46100+018250FM-12+015499999V0209991C000019999999N9999999N9+00111+99999101761ADDAA199002091AY141999GF108991999051999999999051IA1109KA1999M+00221MD1310041+9999
0009726810241311937081409004+43567-116217SAO  +0874BOI  V0202251N001012200019N0240001N1+01521+01021999999ADDMW1001
0009727640240111937021108004+46767-100750SAO  +0506BIS  V0202251N003612200019N0240001N1+99999+99999999999ADDMW1001
0057102240999991937112112004+53083+008783FM-12+000499999V0202501N00671220001CN0040001N9+00501+99999101361ADDAY101999GF100991001001999999001001MD1110221+9999MW1051
0070124250999991937090918004+51133+016967FM-12+003799999V0202901N00101012301CN0100001N9+01611+01171101411ADDAY121999GF108991061071012501011999IA1009KA1999M+02001MD1810061+9999
0043100130999991937112212004+53900+009133FM-12+000299999V0201401N00101220001CN0020001N9+99999+99999999999ADDAY101999GF100991001001999999001999MW1051
0039749105999991937051512004+40733-073600SAO  +003899999V0202701N008210045019N0240001N1+01191+00851100611ADDGA1061+999999079MD1210381+9999MW1001
0223722265138211937080308003+32383-086350SAO  +0053MXF  V02002359001552200019N0128005N9+02285+02115101695ADDGA1999+999999999GD19999+9999999GD29999+9999999GD39999+9999999EQDN01 00900CCLHT 3N02 00000JPWTH 1QNNE11 1 09999E11 1 09999E11 1 09999G11 3 00900H11U1 99999K11 1 00070L11 1 00800N11 1 00000Q11 1 10169S11 1 00073W11 1 12003
0037150900999991937022312004+47167+027600FM-12+012899999V0201101N00101220001CN0100001N9+00501+00111099461ADDAY111999GF104991001001999999071999
0037029110999991937020112004+63083+021617FM-12+000999999V0202001N00261030001CN0100001N9-00721+99999101971ADDAY171999GF107991021051008001011999
0081370500999991937081116004+44050+042083FM-12+057399999V0201601N00101012001CN0200001N9+02001+99999101031ADDAA199008091AY161999GF107991071041012501001001IA1109KA1999M+02611MD1310141+9999
0051229810999991937020922004+60767+046300FM-12+006399999V0201801N00261220001CN0200001N9-01501+99999099491ADDAY101999GF101991011051017501001001MD1310101+9999
0057103390999991937122309004+52583+010533FM-12+002099999V0201801N00101002401CN0010001N9+00111+99999102731ADDAY151999GF108991081051002501999999MD1210081+9999MW1511
0037024580999991937011906004+59850+017633FM-12+002499999V0201401N00931004501CN0200001N9-00221+99999102871ADDAY111999GF108991081051004501999999
0037061800999991937111806004+55617+012650FM-12+000599999V0200701N00261220001CN0100001N9+00001+99999101221ADDAY111999GF104991041041008001061999
0051110350999991937050212004+48217+016550FM-12+015799999V0203401N001010360019N0100001N9+02001+99999101511ADDAY121061GF106991041011022501021001MD1810141+9999
0037128400999991937050318004+47517+019017FM-12+013099999V0201801N00101007801CN0200001N9+01781+01111101301ADDAY111999GF107991071081008001011999
0057108650999991937110712004+48183+011550FM-12+015599999V0203601N00101220001CN0040001N9+01001+00391102031ADDAY111061GF104991999001999999071001MD1990121+9999MW1051
0029719460999991937101908004+61867-121350FM-12+012799999V02099999999999999999N9999999N9+99999+99999999999ADDKA1999M+00111KA2999N-00441
0051333450999991937052811004+50450+030500FM-12+018399999V0202301N00461012001CN0100001N9+02781+99999101621ADDAY101999GF106991061011012501001001MD1990301+9999
0067837380999991937052812004-22317-044467FM-12+040499999V0209991C000019999999N0005001N9+01611+99999101861ADDGF106991999999999999999999IA1009KA1999M+02391KA2999N+01391MW1111
0125348800999991937072504004+46350+048033FM-12-002599999V0201801N00261220001CN0100001N9+02501+99999100871ADDAJ100009199999999AY101999GF102991999001999999041001HL10009IA1009IA2999+02009KA1999N+01891MD1110021+9999EQDQ01+000002SCOTLC
0055745980137021937072621004+37083-076350SAO  +0002LFI  V0201801N005112200019N0192001N9+02851+02071101391ADDGA1021+012009089GA2061+999999049MD1510061+9999MW1001
0039749105999991937071309004+40733-073600SAO  +003899999V0200451N001010027019N0048001N1+01911+01801101191ADDGA1081+999999079MD1510041+9999MW1451
0009726980242291937010405004+45600-122650SAO  +0012PDX  V0200901N004110039019N0064001N1+00081+00021999999ADDMW1051
0043105590999991937052806004+50467+011083FM-12+025699999V0200501N00101220001CN0100001N9+99999+99999999999ADDAY111061GF106991001001999999041999MW1051
0057105770999991937040615004+50817+012883FM-12+010999999V0200701N00261007801CN0040001N9+01221+00611101431ADDAY121031GF107991061051008001031999MD1310081+9999MW1051
0051357910999991937112220004+47200+073350FM-12+073699999V0209991C00001220001CN0040001N9-02001+99999103611ADDAY111999GF101991001001999999001011MD1810161+9999
0057343000999991937010711004+50000+036233FM-12+014899999V0201801N00261007501CN0010001N9-00111+99999101981ADDAY141999GF108991071061008001021999MD1710221+9999MW1711
0051100670999991937122109004+54500+011250FM-12+000399999V0203601N00101004501CN0100001N9+00001+99999102401ADDAY121999GF108991081051004501999999MD1310061+9999
0081348800999991937061516004+46350+048033FM-12-002599999V0202501N00461220001CN0100001N9+01891+99999101071ADDAA199000391AY121999GF104991041011017501021001IA1009KA1999M+02281MD1710081+9999
0043061930999991937042606004+55283+014767FM-12+007799999V0200501N00101000151CN0000001N9+00391+99999099991ADDAY141999GF109991091051000251001999MW1471
0057101470999991937120509004+53633+010000FM-12+000599999V0200901N00671001501CN0010001N9-00111-00111099541ADDAY171999GF108991081051001501999999MD1810301+9999MW1731
0070270370999991937081416004+59233+039883FM-12+012499999V0209991C00001220001CN0100001N9+02001+99999101371ADDAY101999GF101991001001999999001031IA1009KA1999M+02281MD1810061+9999
0040719576999991937092008004+64900-125500FM-12+009199999V02099999999999999999N9999999N9+99999+99999999999ADDAA124000591KA1999M+00501KA2999N+00221
0037061800999991937020806004+55617+012650FM-12+000599999V0200901N00261220001CN0100001N9-00281+99999100661ADDAY111999GF102991001001999999031999
0009726810241311937052904004+43567-116217SAO  +0874BOI  V0203151N008212200019N0240001N1+01461+00241999999ADDMW1001
0025745700138401937082914004+39833-084050SAO  +0254FFO  V0201401N005112200019N0240001N9+02681+02241102101ADDGA1001+999999999MW1001
0051106370999991937041909004+50050+008600FM-12+003499999V0202301N00671030001CN0100001N9+01001+00391101171ADDAY111031GF106991041021008001031041MD1310041+9999
0037023610999991937070518004+62617+017950FM-12+000999999V0200501N00101220001CN0500001N9+02391+99999101681ADDAY101999GF100991001001999999001999
0000719070999991937121212004+58450-078133FM-12+002099999V0200501N005119999999N0120001N9-01941+99999102611
0057380010999991937081322004+44550+050250FM-12-002399999V0209991C000019999999N9999999N9+02611+99999101191ADDAY121999GF108991999051999999999999MD1310021+9999MW1051
0087104270999991937121218004+51183+008483FM-12+025799999V0202301N00931001501CN0100001N9-00221-00221098171ADDAA199000691AY171061GF108991081061001501999999IA1319KA1999M-00111MD1110041+9999MW1221
0051219650999991937052002004+70633+162500FM-12+000699999V0202901N00671002101CN0100001N9-00611+99999101211ADDAY141999GF108991081051002501999999MD1310081+9999
0091224710999991937072816004+65833+044267FM-12+001699999V0200901N001019999999N0100001N9+01721+99999101071ADDAY111999GF108991001001999999071999IA1009KA1999M+02001EQDQ01+000032APCTENQ02+000002APC3  
0043101850999991937121109004+54100+013433FM-12+000199999V0201601N00671007801CN0040001N9+99999+99999999999ADDAY121999GF108991071051008001999999MW1051
0057106530999991937110812004+49650+009967FM-12+008599999V0200901N00101000151CN0000501N9+00391+00331102171ADDAY141061GF109991091999000251999999MD1810061+9999MW1431
0043854860999991937072717004-28567-070767FM-12+046399999V0202701N00101220001CN0500001N9+01611+99999999999ADDAY101999GF100991001999999999999999MW1001
0043085060999991937041212004+38533-028633FM-12+006599999V0202701N00461007801CN0040001N9+01721+99999102451ADDAY151999GF108991061999008001999999MW1501
0072288380999991937031721004+53367+059050FM-12+038299999V0202301N00461220001CN0040001N9-00221+99999102381ADDAY101999GF101991001001999999001021EQDQ01+000032APCTENQ02+000002APC3  
0025745700138401937062320004+39833-084050SAO  +0254FFO  V0202301N001010240019N0160001N9+02241+01301101731ADDGA1081+999999049MW1001
0037400840999991937063006004+34367+040150FM-12+011999999V0202701N00931220001CN0200001N9+02891+99999100211ADDAY101999GF100991001001999999001999
0041725115147111937071818004+40200-076767SAO  +0097MDT  V0203151N006712200019N0240001N1+02461+01461099881ADDGA1031+010509089GA2021+999999009MW1001
0108039530999991937072007004+51933-010250FM-12+000999999V0201801N004619999999N0200001N9+01391+01281102121ADDAA124999999GA1011+999999019GF108991041061004501021999IA1089KA1999M+01721KA2999N+01001MD1810101+9999MW1611
0051370500999991937042910004+44050+042083FM-12+057399999V0200501N00261036001CN0200001N9+02391+99999101111ADDAY121999GF106991011051017501031021MD1810141+9999
0037262100999991937061412004+58383+021817FM-12+000799999V0202901N00261220001CN0200001N9+02391+99999102791ADDAY101999GF101991999001999999999999
0089381980999991937061514004+43300+068283FM-12+002199999V0203601N00671220001CN0200001N9+03391+99999100571ADDAY111999GF101991999001002501041001IA1009KA1999M+04111MD1310141+9999EQDQ01+000002SCOTLC
0043125990999991937011106004+50033+019217FM-12+007399999V0203601N00261002401CN0020001N9-00221-00391103531ADDAY121999GF108991081051002501999999MW1051
0057309650999991937071511004+50400+116317FM-12+068599999V0202501N002619999999N0200001N9+02281+99999099811ADDAY121999GF106991001001999999031031IA1089MD1510061+9999
0051122990999991937062009004+52850+015667FM-12+001199999V0200501N00461012301CN0100001N9+01781+01111101731ADDAY121999GF107991071051012501999999MD1810101+9999
0051339940999991937122011004+44617+033533FM-12+000899999V0202301N01541007501CN9999999N9+01221+99999100371ADDAY111999GF108991081051008001999999MD1010021+9999
0051224710999991937061522004+65833+044267FM-12+001699999V0200501N004619999999N0040001N9+00501+99999102251ADDAY121999GF106991001001999999031021MD1310061+9999
0051202740999991937092508004+77550+082200FM-12+001099999V0203601N00261004201CN0200001N9-00611+99999099741ADDAY171999GF108991081001004501021999MD1310141+9999
0059030750999991937100901004+58450-003083FM-12+003699999V0202701N001019999999N0200001N9+00781+00721102711ADDGA1011+999999019GF107991041051004501011001MD1310061+9999
0057105540999991937102721004+50967+010967FM-12+009899999V0202301N00461220001CN0040001N9+01001+00611101271ADDAY101031GF100991001001999999001001MD1110081+9999MW1051
0039722860231191937070109004+33900-117250SAO  +0466RIV  V0209991C000012200019N0096001N9+01911+00911101051ADDGA1001+999999999MD1610041+9999MW1051
0057102700999991937042412004+52917+012800FM-12+001499999V0203201N00931004501CN0100001N9+01001+00611100981ADDAY181999GF107991071081004501999999MD1110021+9999MW1801
0055722860231191937011300004+33900-117250SAO  +0466RIV  V0201801N003110075019N0160001N9+00691+00581101121ADDGA1051+999999059GA2001+999999999MD1410001+9999MW1001
0037024120999991937031818004+60167+013783FM-12+019399999V0202701N00261002401CN0040001N9+00001+99999100901ADDAY121999GF109991091999999999999999
0087108660999991937092818004+48183+011550FM-12+052099999V0202501N00671012301CN0040001N9+01721+99999101651ADDAA199000591AY121061GF107991071051012501071999IA1089KA1999M+02111MD1990021+9999MW1601
0057284400999991937071021004+56733+060633FM-12+028899999V0202701N002619999999N0040001N9+01611+99999099171ADDAY121999GF108991081999004501999999MD1310021+9999MW1611
0049855480999991937030512004-32817-070600FM-12+081399999V0209991C000019999999N0500001N9+01501+99999999999ADDAY101999GF100991001001999999001001IA1009MW1001
0037040060999991937060912004+66167-023217FM-12+000699999V0203601N00461004501CN0200001N9+00281+99999100041ADDAY121061GF108991081051004501999999
0057282250999991937031921004+58017+056267FM-12+016799999V0200901N00671007501CN0100001N9-00891+99999102301ADDAY121999GF108991071061008001021999MD1810061+9999MW1711
0070107080999991937021718004+49217+007033FM-12+018999999V0201801N001010360019N0100001N9+00501+99999100861ADDAY121061GF106991041051008001011999IA1089KA1999M+00611MD1610021+9999
0065037770999991937123113004+51350-000117FM-12+006699999V0203601N004619999999N0010001N9+00391+00281102931ADDGA1011+999999019GF108991071051002501999999MD1810181+9999MW1281
0059033340999991937080613004+53350-002267FM-12+007099999V0201801N002619999999N0200001N9+02391+01111101611ADDGA1011+999999019GF106991001001999999001061MD1810101+9999
0056023240999991937091618004+62050+014417FM-12+036399999V0209991C00001007801CN0500001N9+00781+99999100201ADDAY111999GF107991071051008001001999EQDQ01+000502WODIR 
0057122250999991937010412004+53267+016467FM-12+003899999V0202701N00671007801CN0020001N9+00781+00671102111ADDAY121999GF108991071061008001021999MD1810041+9999MW1051
0043108030999991937082209004+48017+007833FM-12+007599999V0202901N00461036001CN0200001N9+99999+99999999999ADDAY111031GF106991041081012501071999MW1051
0009724050137431937100623004+38850-077033SAO  +0020DCA  V0201801N001012200019N0096001N1+02411+02181999999ADDMW1001
0037107620999991937081609004+49300+012833FM-12+012599999V0202701N00261036001CN0100001N9+99999+99999999999ADDAY121031GF108991021061008001021999
0037014820999991937071612004+59033+010533FM-12+000999999V0203201N00261220001CN0200001N9+02111+99999101571ADDAY121999GF102991021071012501001999
0072040970999991937070718004+65267-013583FM-12+000899999V0201401N00101220001CN0500001N9+01391+99999999999ADDAY101061GF102991011051012501051999EQDQ01+098833APOSLPQ02 098833APOSLP
0303722265138211937041507003+32383-086350SAO  +0053MXF  V02022559003652200019N0128005N9+01395+01065101565ADDGA1001+999999999GA2999+999999999GA3999+999999999GD19005+9999999GD29005+9999999GD39005+9999999GD49999+9999999EQDN01 00900CCLHT 3N02 00000JPWTH 1QNNE11 1 09900E11 1 09900E11 1 09900E11 1 09999G11 3 00900H11U1 00999H11 1 00999H11 1 00999K11 1 00051L11 1 00800N11 1 00000Q11 1 10156S11 1 00057W11 1 66007
0067838670999991937061812004-26117-049917FM-12+079099999V0209991C000019999999N0020001N9+01391+99999102501ADDGF107991999999999999999999IA1009KA1999M+01721KA2999N+00891MW1111
0062071300999991937031306004+48067-001750FM-12+003999999V0201101N00261007801CN0040001N9+00391+99999098661ADDAY161999GF108991999061008001021999MW1631EQDQ01+000082SCOTLC
0051284400999991937051609004+56733+060633FM-12+028899999V0203601N004619999999N0100001N9+01111+99999101901ADDAY101999GF106991001001999999021011MD1810021+9999
0051372280999991937090610004+43050+044483FM-12+066899999V0202901N00261220001CN0200001N9+02281+99999100971ADDAY101999GF102991021011012501001001MD1810021+9999
0051330380999991937030323004+52267+029833FM-12+013799999V0200901N00671220001CN0040001N9-00891+99999102921ADDAY111999GF100991001001999999001001MD1210021+9999
0043803360999991937010420004+01800-078767FM-12+000399999V0202701N00671220001CN0500001N9+99999+99999999999ADDAY101999GF102991011999008001999999MW1001
0081122250999991937030506004+53267+016467FM-12+003899999V0200901N00461015001CN0040001N9-00391-00501100661ADDAA199000391AY121999GF108991081051017501999999IA1309KA1999N-00391MD1810101+9999
0009726810241311937050607004+43567-116217SAO  +0874BOI  V0201801N003612200019N0240001N1+00581-00041999999ADDMW1001
0037122950999991937111806004+53133+023167FM-12+013599999V0201401N00261004501CN0040001N9-00221-00221101631ADDAY121999GF108991081061004501999999
0078228200999991937010411004+61783+034383FM-12+006799999V0201601N00261009001CN0040001N9+00001+99999100131ADDAY171999GF108991081081004501999999MW1851EQDQ01+000032APCTENQ02+000002APC3  
0091286420999991937071915004+55150+061150FM-12+022799999V0200201N00101030001CN0200001N9+01501+99999101101ADDAY111999GF106991041081012501041011IA1009KA1999M+01781EQDQ01+000032APCTENQ02+000002APC3  
0076101270999991937030218004+53533+008150FM-12+000299999V0201401N00461220001CN0100001N9+00501+00391100691ADDAY101999GF102991999001999999041001IA1009MD1310161+9999EQDQ01+000002SCOTLC
0039723556999991937112818004+35667-095367SAO  +0186MKO  V0201801N005112200019N0160001N1+00691-00261102071ADDGA1021+999999049MD1810041+9999MW1001
0045749105999991937012309004+40733-073600SAO  +003899999V0203601N005110018019N0064001N1+00241+00191101731ADDGA1081+999999079MD1210201+9999MW1451MW2611
0043844520999991937120813004-06783-079850FM-12+002599999V0201801N00461220001CN0500001N9+02221+99999101191ADDAY111999GF104991021999022501999999MW1011
0087103610999991937072606004+52133+011717FM-12+001499999V0200701N00931002401CN0040001N9+01501+01281100781ADDAA199000691AY151999GF108991081061002501999999IA1089KA1999N+01391MD1310101+9999MW1611
0081102240999991937060206004+53083+008783FM-12+000499999V0202901N00931004501CN0200001N9+01111+99999101101ADDAA199002091AY181999GF106991061081004501051001IA1089KA1999N+00781MD1210121+9999
0037228020999991937013118004+61700+030683FM-12+001999999V0203601N00671004501CN0040001N9-01111+99999102641ADDAY121999GF108991081051004501001999
0057104570999991937021809004+51750+011067FM-12+003899999V0203201N00671001501CN0010001N9+00221+00001101431ADDAY171031GF108991081051001501999999MD1310341+9999MW1501
0037026400999991937060206004+56383+014817FM-12+017399999V0202701N01231004501CN0500001N9+01001+99999099951ADDAY111999GF106991061021004501001999
0043841290999991937090817004-02167-079867FM-12+000399999V0201401N00261007801CN0500001N9+02611+99999101721ADDAY121999GF108991081999008001999999MW1031
0057105770999991937080915004+50817+012883FM-12+010999999V0202701N00261007801CN0020001N9+02221+01781101701ADDAY121031GF107991061051008001071999MD1810101+9999MW1051
0057236780999991937122307004+63167+088017FM-12+005599999V0201101N00101220001CN0020001N9-02391+99999104581ADDAY111999GF100991001001999999001001MD1990101+9999MW1101
0051109620999991937060709004+47800+011017FM-12+030199999V0200901N00261220001CN0500001N9+02221+01001100351ADDAY111031GF104991011021017501091031MD1010021+9999
0056167330999991937080618004+37117+026867FM-12+006299999V0203201N00931220001CN9999999N9+02721+99999100621ADDGF100991999001999999001001KA1999M+03001MD1310061+9999
0037134550999991937012106004+42433+018600FM-12+000599999V0200501N00931220001CN0200001N9+00891-00221102191ADDAY101999GF100991001001999999001999
0113388360999991937072814004+38583+068800FM-12+080099999V0202901N00261220001CN0200001N9+03111+99999098781ADDAY101999GF101991011011999999001001IA1009KA1999M+03781MW1051EQDQ01+000992SCOLCBQ02+000032APCTENQ03+000002APC3  
0057105780999991937061312004+50433+012950FM-12+037099999V0203201N00931030001CN0020001N9+01281+01281100661ADDAY151061GF106991041071000751071021MD1210101+9999MW1051
0051288060999991937020810004+53650+052433FM-12+008299999V0202001N00931007501CN0040001N9+00001+99999100801ADDAY121999GF108991081051008001999999MD1710041+9999
0037025920999991937052906004+57367+017100FM-12+000599999V0203601N01541220001CN0200001N9+00891+99999102661ADDAY111999GF100991001001999999001999
0057104570999991937110309004+51750+011067FM-12+003899999V0200901N00261007801CN0020001N9+00611+00391102101ADDAY121031GF108991081051008001999999MD1310181+9999MW1051
0051103120999991937112615004+51933+007650FM-12+001799999V0202501N00461001501CN0010001N9+00611+99999102241ADDAY161999GF108991081051001501999999MD1710041+9999
0024990061999991937020914004+62000-033000SAO  +00004YA  V02099999999999999999N0000001N1+01571+01191999999ADDMA1999999101961MW1001
0145031710999991937080307004+56383-002883FM-12+001199999V0202301N001019999999N0000501N9+01331+01221102131ADDAA199000091GA1011+999999019GF108991081999999999999999IA1089KA1999M+01721KA2999N+01221MW1441EQDQ01+000032APCTENQ02+000002APC3  Q03+000452PRSWM1
0051108560999991937080912004+48183+010867FM-12+016899999V0200701N00261036001CN0040001N9+02891+02171101551ADDAY101061GF106991041031017501061031MD1810061+9999
0051236310999991937042009004+63933+065067FM-12+004099999V0200701N00461220001CN0200001N9-01001+99999103711ADDAY101999GF100991001001999999001001MD1310121+9999
0037406720999991937030906004+31983+044983FM-12+000699999V0200201N00101012301CN0200001N9+01331+99999101711ADDAY161999GF107991061061012501051999
0037167380999991937122412004+36767+024417FM-12+018099999V0200501N00671220001CN0100001N9+00111+99999102051ADDAY111999GF104991041041999999001001
0102039660999991937040707004+53100-007900FM-12+005799999V0201801N001019999999N0200001N9+00941+00891100271ADDAA124999999GA1011+999999019GF102991021051008001001001IA1089KA1999M+01561KA2999N+00941MD1810041+9999
0051377890999991937090610004+40133+044467FM-12+090799999V0209991C00001220001CN0200001N9+02721+99999999999ADDAY101999GF101991011011012501001001MD1710261+9999
0094326180999991937061314004+55200+165817FM-12+000799999V0200701N002619999999N0040001N9+00221+99999100171ADDAY161999GF108991999061002501051999MW1631EQDQ01+000092SCOTLCQ02+000072APCTENQ03+000002APC3  
0029363350999991937122002004+49417+075467FM-12+087399999V0203601N002619999999N0040001N9-02281+99999104541ADDIA1319MD1310141+9999MW1431
0043133630999991937012506004+43350+019367FM-12+076999999V0209991C00001004501CN0020001N9-00281-00281102011ADDAY171999GF108991081061004501999999MW1731
0057122810999991937042112004+53567+021000FM-12+004599999V0201401N00671004501CN0040001N9+01501+00611100951ADDAY161999GF106991061021004501041999MD1810141+9999MW1601
0051371930999991937033122004+43467+041750FM-12+132799999V0209991C00001220001CN0020001N9+00001+99999102171ADDAY111999GF100991001001999999001001MD1310061+9999
0057105500999991937012903004+50967+010750FM-12+009199999V0200701N00931007801CN0005001N9-01111-01221099601ADDAY171031GF108991081051008001999999MD1810081+9999MW1731
0065036010999991937041018004+51683-005167FM-12+004399999V0203401N002619999999N0200001N9+00891+00671099691ADDGA1011+999999019GF106991041051008001021001IA1089MD1310161+9999
0065031710999991937072618004+56383-002883FM-12+001199999V0200901N002619999999N0200001N9+01561+01111101411ADDGA1011+999999019GF104991011041012501041061IA1009MD1310021+9999
0037108450999991937110512004+48433+010233FM-12+014599999V0200901N00461004501CN0200001N9+99999+99999999999ADDAY121061GF108991081051004501999999
0057101700999991937102212004+54183+012100FM-12+000299999V0201801N00671000601CN0020001N9+00781+00671101071ADDAY141999GF107991071051000751999999MD1710141+9999MW1101
0043334150999991937111112004+49550+025600FM-12+031899999V0201401N00101001501CN0020001N9+00721+00671101051ADDAY151999GF108991081051001501999999MW1501
0070389870999991937073115004+35283+062350FM-12+062799999V0200201N00671220001CN0200001N9+03281+99999100231ADDAY101999GF100991001001999999001001IA1009KA1999M+03611MD1510001+9999
0009726770240331937072418004+45800-108533SAO  +1088BIL  V0200901N005112200019N0640001N1+02631+00461999999ADDMW1001
0070101470999991937100806004+53633+010000FM-12+000599999V0200501N00461030001CN0100001N9+01111+00891101571ADDAY121999GF107991041051008001071999IA1009KA1999N+00891MD1610041+9999
0025722535129091937122222004+29383-098567SAO  +0207SKF  V0203201N005112200019N0192001N9+01241+00851101191ADDGA1031+018009039MW1001
0108115190999991937122106004+50067+014433FM-12+025499999V0202701N00261007801CN0040001N9-00111+99999102471ADDAA199000691AY171999GF108991081051008001999999IA1159KA1999N-00111MW1701EQDQ01+000042APCTENQ02+000082APC3  
0057379890999991937092616004+38450+048883FM-12-002199999V0200901N00101220001CN0100001N9+02221+99999102091ADDAY101999GF100991001001999999001001IA1009MD1810041+9999
0037024330999991937040206004+60617+015633FM-12+012299999V0202901N00101220001CN0500001N9-00611+99999103141ADDAY101999GF101991011051008001001999
0024990061999991937100416004+62000-033000SAO  +00004YA  V02099999999999999999N0000001N1+02521+02301999999ADDMA1999999099971MW1001
0037166420999991937030806004+39667+020850FM-12+050299999V0203201N00101036001CN0200001N9+00611+99999999999ADDAY111999GF107991011041012501071999
0037122950999991937021312004+53133+023167FM-12+013599999V0203401N00261220001CN0100001N9-00501-00831101031ADDAY111999GF106991001001999999001999
0072335480999991937091023004+48667+026583FM-12+022899999V0201401N00101220001CN0040001N9+01611+99999100591ADDAY101999GF100991001001999999001001EQDQ01+000042APCTENQ02+000042APC3  
0043103840999991937020908004+52483+013433FM-12+001799999V0201101N00931004501CN0100001N9+99999+99999999999ADDAY171999GF108991071061004501999999MW1701
0009726810241311937111001004+43567-116217SAO  +0874BOI  V02099999999990210019N0240001N1+99999+99999999999ADDMW1001
0087109530999991937112515004+47867+010617FM-12+021699999V0200201N00101007801CN0040001N9-00111-00281999999ADDAA199002091AY171031GF107991071051008001001999IA1199KA1999M+00111MD1210301+9999MW1221
0070103390999991937031818004+52583+010533FM-12+002099999V0202001N00101220001CN0200001N9+00781+99999999999ADDAY121999GF108991001001999999011071IA1009KA1999M+01281MD1510021+9999
0106380620999991937112303004+44850+065450FM-12+012999999V0200201N00261220001CN0100001N9-01281+99999103351ADDAJ100009199999999AY101999GF100991001001999999001001HL10009IA1139IA2999-01619KA1999N-01391MD1810021+9999
0037266140999991937011809004+55083+021800FM-12+000399999V0200901N00671220001CN0200001N9+99999+99999999999ADDAY101999GF100991001001999999001999
0051107280999991937032612004+49567+008467FM-12+002999999V0201801N01231004501CN0200001N9+00781+00171100171ADDAY121061GF108991071081004501999999MD1810061+9999
0274722265138211937022109003+32383-086350SAO  +0053MXF  V02018059001550121949N0112005N9+01225+01115100615ADDGA1051+999999074GA2021+999999044GD19055+9999999GD29025+9999999GD39999+9999999GD49999+9999999MD1610241+9999EQDN01 00000JPWTH 1QNNE11 1 09906E11 1 09902E11 1 09999E11 1 09999G11 1 00040H11U1 16999H11 1 21999K11 1 00052L11 1 00700N11 1 00000Q11 1 10061S11 1 00054W11 1 55003
0072330380999991937062223004+52267+029833FM-12+013799999V0209991C00001075001CN0040001N9+01281+99999101941ADDAY111999GF106991021001017501031071EQDQ01+000032APCTENQ02+000002APC3  
0051380010999991937112222004+44550+050250FM-12-002399999V0201401N01901220001CN0040001N9+00001+99999102931ADDAY101999GF100991001001999999001001MD1710021+9999
0067839140999991937052212004-28267-052400FM-12+068099999V0200501N002619999999N0100001N9+00611+99999102311ADDGF107991999999999999999999IA1089KA1999M+01221KA2999N+00391MW1111
0043105590999991937050509004+50467+011083FM-12+025699999V0202001N00671220001CN0100001N9+01221+01001999999ADDAY111031GF104991041021012501061011MW1051
0057104880999991937101312004+51133+013767FM-12+007099999V0202901N00461001501CN0040001N9+00891+00781101971ADDAY161061GF108991061061001501021999MD1710021+9999MW1201
0097117350999991937011206004+50067+017233FM-12+145899999V0209991C00001220001CN0010001N9-00781+99999103391ADDAY101999GF100991001001999999001001IA1139KA1999N-00781MW1101EQDQ01+000022APCTENQ02+000002APC3  
0037262100999991937090912004+58383+021817FM-12+000799999V0202701N01231007801CN0100001N9+01391+99999100121ADDAY111999GF107991071071008001021999
0043105690999991937031406004+50533+012100FM-12+013799999V0201801N00261220001CN0040001N9+99999+99999999999ADDAY111061GF104991001001999999021999MW1051
0070236310999991937080115004+63933+065067FM-12+004099999V0200201N00261220001CN0200001N9+01501+99999101851ADDAY101999GF101991011041012501001021IA1009KA1999M+01611MD1810041+9999
0009725310148061937102218004+40300-088133SAO  +0228RAN  V0203601N007210045019N0160001N1+00521-00091101521ADDMW1001
0009722860231191937050717004+33900-117250SAO  +0466RIV  V0202701N002610105019N0128001N9+01411+00911101831ADDMW1051
0091030560999991937073107004+56933-004233FM-12+035899999V0200501N001019999999N0100001N9+01221+01111999999ADDGA1011+999999019GF108991041041012501051999IA1009KA1999M+02221KA2999N+00561MD1310061+9999
0051357910999991937072908004+47200+073350FM-12+073699999V0201401N00931220001CN0200001N9+03391+99999099661ADDAY111999GF100991001001999999001001MD1810121+9999
0051104160999991937123021004+51533+007583FM-12+002199999V0203601N00671012301CN0100001N9-00111-00281102941ADDAY121031GF107991071051012501999999MD1410001+9999
0056206670999991937121602004+73333+070033FM-12+000699999V0201801N00261220001CN0010001N9-03221+99999103331ADDAY101999GF100991001001999999001001IA1309KA1999N-03391
