0041836840999991938120212004-21850-045300FM-12+096099999V02099999999999999999N9999999N9+99999+99999100781ADDIA1109KA1999M+02001KA2999N+01721MW1111
0043085060999991938071906004+38533-028633FM-12+006599999V0200501N004619999999N0100001N9+02111+99999102041ADDAY181999GF106991041999004501999999MW1161
0037135850999991938022312004+41333+021550FM-12+066199999V0203601N00261220001CN0200001N9+00391-00171101771ADDAY101999GF100991001001999999001999
0009726980242291938111822004+45600-122650SAO  +0012PDX  V0201581N002110270019N0020001N1+00691+00581999999ADDMW1451
0051104380999991938100312004+51383+009533FM-12+008899999V0202001N00931007801CN0200001N9+01111+00501101281ADDAY121061GF107991061081008001999031MD1310021+9999
0046829940999991938092112004-09667-035700FM-12+004599999V0200901N004619999999N0040001N9+02611+99999101791ADDAA124001091KA1999M+02721KA2999N+02281MW1401
0059039800999991938091501004+55367-007333FM-12+002699999V0203601N002619999999N0200001N9+01061+00611102161ADDGA1011+999999019GF106991041021012501071001MD1310041+9999
0051108680999991938081115004+48250+011550FM-12+014899999V0200201N00101220001CN0200001N9+02391+01441101141ADDAY111031GF104991021031008001031031MD1610121+9999
0078166890999991938032506004+38250+021733FM-12+000399999V0209991C00001220001CN0200001N9+01001+99999102081ADDAY101999GF101991001001999999001011IA1009EQDQ01+000042APCTENQ02+000062APC3  
0134999999241551938072615005+45683-118850SAO  +045599999V02011359001552200049N008000599+02065+00725099855ADDMA1999999095875MW1045EQDN01 08000JPWTH 1QNNG11U1 99999K11 1 00045L11 1 00500M11 1 28310N11 1 08000Q11 1 09985S11 1 00069W11 1 34003
0037022260999991938012218004+63183+014650FM-12+032199999V0202701N00261220001CN0500001N9+00221+99999101351ADDAY101999GF102991021041008001001999
0037266140999991938090612004+55083+021800FM-12+000399999V0202301N00261030001CN0100001N9+99999+99999999999ADDAY121999GF107991041051004501071999
0076067000999991938022418004+46233+006083FM-12+042399999V0200201N00101220001CN0200001N9+00391+99999103261ADDAY101999GF101991011001012501041001IA1009KA1999M+00501MD1310061+9999MW1051
0037122950999991938080618004+53133+023167FM-12+013599999V0200901N00101220001CN0100001N9+02281+01061101891ADDAY111999GF102991021071012501001999
0051108650999991938051303004+48183+011550FM-12+015599999V0209991C00001220001CN0100001N9+00221+00001102481ADDAY101031GF101991001001999999001051MD1210101+9999
0029710934999991938022604004+66133-065750FM-12+001399999V02099999999999999999N9999999N9+99999+99999999999ADDKA1999M-03001KA2999N-03501
0037024330999991938021406004+60617+015633FM-12+012299999V0202501N00101220001CN0200001N9-01391+99999103371ADDAY101999GF101991001001999999001999
0057122810999991938020306004+53567+021000FM-12+004599999V0202301N00261004501CN0020001N9-00111-00221101501ADDAY121999GF108991071051004501011999MD1310121+9999MW1051
0037153120999991938120418004+45367+028833FM-12+002999999V0203601N00461007801CN0040001N9+00501+00391101471ADDAY121999GF108991081051008001001999
0043085890999991938083112004+14917-023517FM-12+003499999V0209991C00001000151CN0020001N9+02501+99999101101ADDAY151999GF109991091999000251999999MW1051
0037132160999991938072706004+44750+014800FM-12+034299999V0209991C00001220001CN0100001N9+02721+01441101461ADDAY101999GF100991001001999999001999
0037133630999991938070312004+43350+019367FM-12+076999999V0201801N00461220001CN0200001N9+02891+01561100911ADDAY111999GF102991021011017501001999
0043103590999991938092415004+52533+011433FM-12+001699999V0201401N00461220001CN0040001N9+99999+99999999999ADDAY101999GF100991001001999999001999MW1051
0043071490999991938051706004+48867+002300FM-12+003299999V0200701N002619999999N0040001N9+01391+99999101111ADDAY121999GF108991021061999999021999MW1601
0009691174999991938012402004+39833-076117SAO  +0002KQAH V0200451N001012200019N0112001N1+00131-00151102681ADDMW1001
0037121630999991938020618004+54133+020567FM-12+002799999V0202701N00461220001CN0040001N9+99999+99999999999ADDAY101999GF100991001001999999001999
0057110390999991938040912004+48000+016900FM-12+018099999V0202501N00461004501CN0100001N9+00221+99999101941ADDAY171061GF107991061051004501011001MD1710181+9999MW1701
0051104570999991938041109004+51750+011067FM-12+003899999V0202701N00671030001CN0100001N9+00721+00111103611ADDAY111031GF106991041011012501041021MD1410001+9999
0051102890999991938091009004+53317+013867FM-12+000899999V0200501N00101007801CN0100001N9+01611+01171102031ADDAY141999GF106991061051008001001001MD1710041+9999
0025725115147111938091306004+40200-076767SAO  +0097MDT  V0201801N003610021019N0128001N1+01911+01741099891ADDGA1081+999999079MW1001
0037012620999991938042706004+64800+010550FM-12+003799999V0201801N00261220001CN0500001N9+00721+99999102071ADDAY111999GF104991011071008001011999
0056167330999991938081718004+37117+026867FM-12+006299999V0202701N00931220001CN9999999N9+02501+99999100691ADDGF100991999001999999001001KA1999M+03001MD1310041+9999
0057109610999991938052615004+47417+010983FM-12+090399999V0202901N00671036001CN0100001N9-00111-00441099791ADDAY141031GF107991041081000251041021MD1110021+9999MW1401
0009724050137431938033005004+38850-077033SAO  +0020DCA  V0200901N003110240019N0080001N1+00961+00911100161ADDMW1451
0051100060999991938101518004+54600+011150FM-12+999999999V0203201N00671220001CN0100001N9+01281+99999101791ADDAY101999GF100991001001999999001001MD1310021+9999
0051101620999991938013109004+53617+011383FM-12+001499999V0202001N00461220001CN0200001N9+00111+99999100881ADDAY121999GF108991001001999999071999MD1210161+9999
0057265090999991938032706004+55717+021133FM-12+000399999V0202701N00461220001CN0200001N9+00391+99999099681ADDAY111999GF102991021021008001001001IA1009MD1310061+9999
0043103190999991938090506004+52233+008917FM-12+002699999V0200901N00261000151CN0000501N9+99999+99999999999ADDAY141999GF109991091999000251999999MW1451
0043103660999991938072115004+52400+012917FM-12+001099999V0203201N00461004501CN0100001N9+99999+99999999999ADDAY181999GF107991061081004501031999MW1251
0037029110999991938122806004+63083+021617FM-12+000999999V0200901N00261004501CN0020001N9-00721+99999101341ADDAY121999GF108991081051004501001999
0039722535129091938062409004+29383-098567SAO  +0207SKF  V0201401N001510051019N0192001N9+02521+02301101321ADDGA1051+999999079MD1510061+9999MW1001
0051108650999991938040303004+48183+011550FM-12+015599999V0202301N00461220001CN0100001N9+00891+00281101211ADDAY101031GF101991001001999999001051MD1710301+9999
0072228020999991938071212004+61700+030683FM-12+001999999V0201401N01541220001CN0200001N9+02221+99999101791ADDAY101999GF101991001001999999001999EQDQ01+000942SCOLCBQ02+000232PRSWM1
0087103630999991938061806004+52000+012983FM-12+003199999V0202901N00261004501CN0100001N9+01111+00891101981ADDAA199000691AY151999GF108991081081004501999999IA1009KA1999N+01001MD1310061+9999MW1251
0043853730999991938020720004-22083-065600FM-12+345199999V0209991C00001220001CN0500001N9+99999+99999999999ADDAY101999GF104991021999012501999999MW1011
0051124000999991938112803004+51917+015500FM-12+004599999V0209991C00001220001CN0100001N9+00111+00061101941ADDAY111999GF102991001001999999001051MD1010021+9999
0074858340999991938102212004-43550-074733FM-12+014099999V0203201N004619999999N0010001N9+00721+99999101861ADDAA124002091AY101999GF108991081061999999999999IA1089MD1310101+9999MW1031
0037028360999991938111412004+67367+026650FM-12+018099999V0202301N00461002401CN0040001N9+00391+99999100221ADDAY121999GF108991081051002501001999
0087104720999991938050206004+51833+011700FM-12+002599999V0200701N00671000601CN0020001N9+00721+00671101101ADDAA199001091AY151061GF108991081051000751999999IA1089KA1999N+00611MD1310061+9999MW1051
0041722535129091938080903004+29383-098567SAO  +0207SKF  V0201401N005112200019N0240001N9+03021+01911101421ADDGA1001+999999999GA2001+999999999MW1001
0043228020999991938010506004+61700+030683FM-12+001999999V0203601N00261007801CN0010001N9-01501+99999101261ADDAY171999GF108991081051008001001999MW1711
0058787930999991938030809004+08383-082450FM-12+001999999V0200501N00311220001CN0500001N9+99999+99999999999ADDAY101999GF104991999999999999999999MA1999999101251MW1011
0037167380999991938090206004+36767+024417FM-12+018099999V0203601N00671220001CN0100001N9+02391+99999100881ADDAY101999GF100991001001999999001999
0009726770240331938110700004+45800-108533SAO  +1088BIL  V0202931N007712200019N1600001N1+00021-00811999999ADDMW1001
0037109360999991938012106004+47817+009800FM-12+020199999V0202701N00461002401CN0020001N9+99999+99999999999ADDAY121061GF108991081051002501999999
0223722265138211938090316003+32383-086350SAO  +0053MXF  V02018059001052200019N0160005N9+03005+02285101635ADDGA1999+009144999GD19999+9999999GD29999+9999999GD39999+9999999EQDN01 00900CCLHT 3N02 00000JPWTH 1QNNE11 1 09999E11 1 09999E11 1 09999G11 3 00900H11 1 99030K11 1 00073L11 1 01000N11 1 00000Q11 1 10163S11 1 00086W11 1 55002
0067838140999991938072312004-24267-049700FM-12+089799999V0201801N002619999999N0200001N9+01391+99999102241ADDGF102991999999999999999999IA1089KA1999M+02001KA2999N+01001MW1111
0043122320999991938072718004+53117+017967FM-12+002199999V0202301N00261002401CN0040001N9+02001+01721101761ADDAY191999GF108991081081002501999999MW1811
0078167460999991938040612004+35500+024033FM-12+006399999V0200501N00931004501CN0040001N9+01391+99999999999ADDAY161999GF108991081061004501001001MW1211EQDQ01+000042APCTENQ02+000142APC3  
0043129820999991938012006004+46250+020150FM-12+009799999V0202501N00101004501CN0010001N9+00221+00111101461ADDAY161999GF108991081051004501999999MW1211
0057101700999991938110609004+54183+012100FM-12+000299999V0202701N00671001501CN0040001N9+01221+01221101491ADDAY151999GF108991081051001501999999MD1210101+9999MW1511
0043040300999991938102906004+64150-021950FM-12+001699999V0201801N009319999999N0040001N9+00501+99999097981ADDAY161061GF108991999051999999021999MW1611
0037022260999991938022312004+63183+014650FM-12+032199999V0202701N01231007801CN0500001N9+00281+99999101201ADDAY121999GF108991081051008001001999
0087122070999991938022206004+53317+015000FM-12+000999999V0202701N00261004501CN0040001N9+00111+00001101731ADDAA199000691AY151999GF108991071051004501999999IA1109KA1999N-00281MD1610161+9999MW1201
0037029750999991938061218004+60250+025033FM-12+001599999V0202301N00461220001CN0200001N9+01391+99999100821ADDAY111999GF102991021041012501001999
0087111500999991938120118004+47800+013083FM-12+043499999V0209991C00001036001CN0040001N9+00501+99999101271ADDAA199003091AY121061GF107991041051012501031999IA1089KA1999M+00611MD1310041+9999MW1051
0057101200999991938031706004+54183+007883FM-12+001599999V0202501N00931220001CN0100001N9+00501+00391101891ADDAY111999GF102991001001999999001051IA1009MD1310181+9999
0051100670999991938100615004+54500+011250FM-12+000399999V0202701N00671030001CN0100001N9+01111+99999100531ADDAY161999GF106991021051004501071001MD1310101+9999
0029719380999991938021013004+67817-115167FM-12+000499999V0202301N005119999999N0200001N9-03441+99999102911ADDGF100991001001999999001001
0051102890999991938091012004+53317+013867FM-12+000899999V0203601N00261030001CN0100001N9+01721+01061101951ADDAY111999GF106991041081008001061001MD1710081+9999
0051103870999991938061415004+52533+013117FM-12+001099999V0203201N00461007801CN0200001N9+01781+00891101681ADDAY121031GF107991999051008001001001MD1710121+9999
0025725115147111938110911004+40200-076767SAO  +0097MDT  V0202931N004112200019N0192001N1+00191-00311100351ADDGA1021+999999039MW1001
0051108580999991938062312004+48200+011267FM-12+015899999V0202701N00671004501CN0200001N9+01891+01611999999ADDAY191061GF107991061091004501021999MD1210041+9999
0108039660999991938052107004+53100-007900FM-12+005799999V0201801N001019999999N0100001N9+01111+01061102031ADDAA124999999GA1011+999999019GF108991081051008001999999IA1089KA1999M+01611KA2999N+01001MD1310061+9999MW1211
0056024640999991938070212004+59350+017950FM-12+001099999V0200701N00461012301CN0200001N9+01501+99999100691ADDAY121999GF108991999051012501071999EQDQ01+000082SCOTLC
0051103160999991938122812004+51967+008550FM-12+004499999V0203601N00461004501CN0020001N9-00221+99999100881ADDAY121999GF108991081051004501999999MD1310101+9999
0037024580999991938021912004+59850+017633FM-12+002499999V0202501N00101220001CN0500001N9+00501+99999102361ADDAY111999GF100991001001999999001999
0037110270999991938082212004+48217+015333FM-12+022099999V0202701N00261004501CN0100001N9+01611+99999102741ADDAY121061GF108991081999004501061999
0059039800999991938122013004+55367-007333FM-12+002699999V0200501N004619999999N0200001N9+00171-00391102061ADDGA1011+999999019GF104991021011017501001091MD1810081+9999
0043803360999991938102313004+01800-078767FM-12+000399999V0209991C00001004501CN0500001N9+02611+99999101501ADDAY121999GF108991081999004501999999MW1031
0057108560999991938111509004+48183+010867FM-12+016899999V0201601N00101220001CN0040001N9+00611+00501103281ADDAY141031GF106991001001999999001081MD1710191+9999MW1051
0062852300999991938100520004-17600-069450FM-12+405999999V0202301N00671004501CN0200001N9+01002+99999999999ADDAY111999GF108991081999004501999999MW1031EQDQ01+028323ATOT  
0043040060999991938090918004+66167-023217FM-12+000699999V0202501N00931007801CN0200001N9+00891+99999099681ADDAY181061GF107991071061008001999999MW1811
0057103930999991938050209004+52200+014117FM-12+003299999V0200201N00461002401CN0040001N9+00891+00671101181ADDAY121031GF108991081051002501999999MD1310081+9999MW1501
0049854320999991938090312004-22450-068917FM-12+226199999V0200901N001019999999N0500001N9+01001+99999999999ADDAY101999GF102991001001999999001061IA1009MW1001
0037124140999991938011506004+51267+015567FM-12+005999999V0201601N00261220001CN0010001N9+99999+99999999999ADDAY101999GF102991021011008001001999
0009724050137431938100908004+38850-077033SAO  +0020DCA  V0202251N001512200019N0128001N1+00911+00741100151ADDMW1001
0037131500999991938010312004+45150+018017FM-12+009099999V0209991C00001007801CN0010001N9-00611-00781102381ADDAY121999GF108991081051008001999999
0070106550999991938030215004+49800+009967FM-12+008199999V0202701N00461036001CN0100001N9+00611+00001999999ADDAY121031GF108991041051012501071999IA1009KA1999M+00721MD1210041+9999
0025724338138021938022120004+38550-089983SAO  +0134BLV  V0200501N001010018019N0048001N9+00021-00041999999ADDGA1081+999999079MW1451
0037025900999991938051312004+57650+018300FM-12+001199999V0202301N01541220001CN0200001N9+01721+99999101681ADDAY101999GF100991001001999999001999
0067835380999991938100112004-18233-043567FM-12+127599999V0200501N006719999999N0020001N9+01781+99999999999ADDGF103991999999999999999999IA1009KA1999M+02501KA2999N+01391MW1111
0061835500999991938012712004-18617-039667FM-12+000699999V0200501N001019999999N0100001N9+02781+99999101531ADDGF102991999999999999999999KA1999M+03111KA2999N+02281MW1111
0043108060999991938081106004+48067+008733FM-12+020199999V0200901N00101220001CN0000501N9+99999+99999999999ADDAY141061GF100991001001999999001999MW1441
0057108354999991938090512004+48717+009700FM-12+011599999V0202001N00101036001CN0200001N9+01111+00891101931ADDAY181061GF107991021081004501071001MD1990121+9999MW1251
0037122950999991938081606004+53133+023167FM-12+013599999V0200501N00101030001CN0100001N9+01891+01611100501ADDAY121999GF107991021051002501051999
0057107270999991938081609004+49017+008383FM-12+003599999V0202301N00461220001CN0040001N9+02111+01671101441ADDAY101031GF102991021021012501001001MD1010021+9999MW1051
0083100050999991938122806004+54017+008250FM-12+999999999V0203601N01541012301CN0040001N9+00281+99999999999ADDAA199001091AY121999GF108991071061012501061001EQDQ01+000062APCTENQ02+000002APC3  
0029719380999991938072508004+67817-115167FM-12+000499999V02099999999999999999N9999999N9+99999+99999999999ADDKA1999M+01671KA2999N+01111
0051121140999991938092412004+54433+016383FM-12+000299999V0201101N00261220001CN0040001N9+02001+01061102751ADDAY101999GF100991001001999999001001MD1810101+9999
0076121020999991938030403004+54017+014767FM-12+999999999V0202501N00931220001CN0040001N9+00281+00171102461ADDAY101999GF102991999001999999071001MD1410001+9999MW1051EQDQ01+000002SCOTLC
0051103610999991938041112004+52133+011717FM-12+001499999V0203201N00671007801CN0200001N9+00891+00061103391ADDAY121999GF106991061011008001001011MD1810101+9999
0037039730999991938021706004+54100-010067FM-12+000599999V0200701N00671220001CN0200001N9+00391+99999103361ADDAY111999GF104991041041004501001999
0089103640999991938031106004+51983+013083FM-12+002799999V0202901N00671007801CN0200001N9+00501+00111102021ADDAA124999999AY181999GF107991071051008001999999IA1009EQDQ01+000042APCTENQ02+000122APC3  
0037074960999991938061406004+45283+006883FM-12+140399999V0209991C00001002401CN0010001N9+00501+99999100071ADDAY121999GF108991081051002501999999
0037128550999991938112206004+47033+019783FM-12+011499999V0201801N00931036001CN0040001N9+00391+00281100621ADDAY111999GF106991041071004501021999
0037071900999991938033112004+48550+007633FM-12+015499999V0200201N00101220001CN0100001N9+01781+99999102571ADDAY101999GF101991011011999999001999
0037268320999991938011106004+53850+025333FM-12+014599999V0201101N00261004501CN0040001N9-00721-00891100341ADDAY171999GF108991081061004501999999
0051103570999991938061109004+52833+013700FM-12+001399999V0200901N00101075001CN0100001N9+01891+00671102161ADDAY111999GF106991041021008001001021MD1210021+9999
0040719650999991938110809004+63583-135850FM-12+049599999V02099999999999999999N9999999N9+99999+99999999999ADDAA124003091KA1999M-01001KA2999N-01221
0024990061999991938031216004+62000-033000SAO  +00004YA  V02099999999999999999N0000001N1+01461+01131999999ADDMA1999999101561MW1001
0037135860999991938100318004+41983+021467FM-12+024099999V0209991C00001220001CN0100001N9+01781+99999101701ADDAY111999GF104991041999017501999999
0043010050999991938012012004+78067+013633FM-12+000899999V0200701N015419999999N0020001N9-01111+99999100401ADDAY121999GF107991041081999999021999MW1851
0223722265138211938021320003+32383-086350SAO  +0053MXF  V02018059000552200019N0160005N9+02335+01445102475ADDGA1999+018294999GD19999+9999999GD29999+9999999GD39999+9999999EQDN01 00800CCLHT 3N02 00000JPWTH 1QNNE11 1 09999E11 1 09999E11 1 09999G11 3 00800H11 1 99060K11 1 00058L11 1 01000N11 1 00000Q11 1 10247S11 1 00074W11 1 55001
0091035310999991938041007004+52483-001933FM-12+016399999V0200901N002619999999N0100001N9+00391-00391104011ADDGA1011+999999019GF106991061051017501001011IA1009KA1999M+00781KA2999N+00281MD1310101+9999
0059038940999991938042313004+49450-002550FM-12+010499999V0203201N002619999999N0040001N9+01061+00611102061ADDGA1011+999999019GF108991081051008001999999MD1810021+9999
0051104530999991938093003004+51800+010617FM-12+034899999V0201801N00261220001CN0200001N9+01391+00501100061ADDAY121031GF106991001001999999071071MD1610041+9999
0057108560999991938072603004+48183+010867FM-12+016899999V0202001N00101000151CN0002001N9+01221+01221101641ADDAY141031GF109991091999000251999999MD1810021+9999MW1451
0043167430999991938052118004+36133+023000FM-12+018499999V0202701N00261220001CN0500001N9+02111+99999101071ADDAY111999GF104991041041999999001001IA1009
0037122950999991938092112004+53133+023167FM-12+013599999V0200501N00261220001CN0100001N9+02221+00611102261ADDAY101999GF100991001001999999001999
0043268250999991938062312004+53667+023833FM-12+012799999V0202001N00931002401CN0040001N9+02281+01061100911ADDAY111999GF107991071091002501999999MW1641
0057100330999991938111715004+54767+009367FM-12+001399999V0202501N00261004501CN0020001N9+00721+00671102471ADDAY141999GF107991071051004501999999MD1810021+9999MW1051
0078167050999991938072918004+37783+020883FM-12+000399999V0203201N00461220001CN0200001N9+03001+99999100971ADDAY101999GF100991001001999999001001IA1009EQDQ01+000042APCTENQ02+000042APC3  
0065030260999991938052318004+58217-006333FM-12+000399999V0203401N004619999999N0200001N9+01111+00501101271ADDGA1011+999999019GF104991041051008001051001IA1089MD1810061+9999
0037075770999991938120606004+44583+004717FM-12+007599999V0202901N00931007801CN0100001N9+00721+99999102021ADDAY121999GF107991061051008001041999
0037267300999991938021906004+54633+025283FM-12+018899999V0200201N00671004501CN0100001N9-00611-00781102691ADDAY111999GF107991071051004501999999
0037121120999991938030715004+54167+017500FM-12+003899999V0202701N00931002401CN0005001N9+99999+99999999999ADDAY141999GF108991081061002501999999
0025722535129091938012010004+29383-098567SAO  +0207SKF  V0201401N002610075019N0192001N9+01801+01691100851ADDGA1081+005409059MW1001
0043803410999991938081413004+01967-077183FM-12+057999999V0209991C00001220001CN0500001N9+02611+99999999999ADDAY101999GF102991011999999999999999MW1001
0303722265138211938030108003+32383-086350SAO  +0053MXF  V02036059002652200019N0112005N9+00335-00065102515ADDGA1001+999999999GA2999+999999999GA3999+999999999GD19005+9999999GD29005+9999999GD39005+9999999GD49999+9999999EQDN01 00900CCLHT 3N02 00000JPWTH 1QNNE11 1 09900E11 1 09900E11 1 09900E11 1 09999G11 3 00900H11U1 00999H11 1 00999H11 1 00999K11 1 00031L11 1 00700N11 1 00000Q11 1 10251S11 1 00038W11 1 11005
0065032080999991938103018004+54417-004367FM-12+000999999V0202901N009319999999N0200001N9+01001+00781100911ADDGA1011+999999019GF107991041051012501031001IA1009MD1310101+9999
0051106350999991938052512004+50217+008450FM-12+024499999V0202301N00261002401CN0040001N9+00891+00441099701ADDAY181061GF107991071021002501999999MD1610061+9999
0063857030999991938070712004-37450-072333FM-12+013099999V0201801N006719999999N0020001N9+00281+99999102231ADDAY101999GF102991001001999999001041IA1009MD1810041+9999MW1001
0043103030999991938082906004+52867+007317FM-12+000499999V0200901N00461000151CN0002001N9+99999+99999999999ADDAY141999GF109991091999000251999999MW1471
0059036930999991938080413004+51533+000817FM-12+000399999V0200701N006719999999N0100001N9+02111+01671101841ADDGA1011+999999019GF101991001001999999001081MD1810181+9999
0037166250999991938061412004+40933+024417FM-12+003399999V0202301N00101220001CN0100001N9+02891+99999999999ADDAY101999GF101991011021008001001071
0043109290999991938080306004+47667+009183FM-12+012299999V0202901N00101220001CN0100001N9+99999+99999999999ADDAY111061GF104991001001999999001999MW1051
0051104720999991938050312004+51833+011700FM-12+002599999V0200901N00931220001CN0200001N9+01281+00111101891ADDAY111061GF104991041011008001001011MD1310021+9999
0067836820999991938041012004-21367-046517FM-12+105299999V0203601N001019999999N9999999N9+02001+99999999999ADDGF107991999999999999999999IA1009KA1999M+02781KA2999N+01781MW1111
0076122000999991938111809004+53917+014283FM-12+999999999V0202301N00261220001CN0020001N9+00721+00331102501ADDAY111999GF104991999001999999051001MD1310081+9999MW1051EQDQ01+000002SCOTLC
0091124000999991938032006004+51917+015500FM-12+004599999V0202301N00261220001CN0100001N9+00781+00671102511ADDAY101999GF101991001001999999001011IA1009KA1999N+00221EQDQ01+000042APCTENQ02+000062APC3  
0037122950999991938041306004+53133+023167FM-12+013599999V0202901N00261002401CN0040001N9+00611+00501100541ADDAY121999GF108991081051002501999999
0039745980137021938030600004+37083-076350SAO  +0002LFI  V0201801N006712200019N0128001N9+01851+01351100781ADDGA1051+999999009MD1610161+9999MW1001
0037105150999991938062512004+50350+007567FM-12+005399999V0202001N00671012301CN0100001N9+99999+99999999999ADDAY111061GF106991061071012501001999
0081103570999991938112606004+52833+013700FM-12+001399999V0202301N00671220001CN0100001N9+00781+00391101271ADDAA199001091AY111999GF106991001001999999011071IA1009KA1999N+00501MD1610041+9999
0043109650999991938100109004+47450+011267FM-12+027799999V0203601N00261004501CN0020001N9+99999+99999999999ADDAY141999GF109991091999004501999999MW1121
0041724338138021938031515004+38550-089983SAO  +0134BLV  V0200901N005710045019N0128001N9+00961+00801999999ADDGA1031+999999059GA2051+999999049MW1001
0043167540999991938062518004+35333+025267FM-12+002699999V0200901N01541220001CN0500001N9+02391+99999101181ADDAY101999GF100991001001999999001001IA1009
0067829890999991938100712004-09250-037933FM-12+056099999V0201401N002619999999N0200001N9+02111+99999999999ADDGF104991999999999999999999IA1009KA1999M+02781KA2999N+01781MW1111
0057122050999991938050703004+53400+014633FM-12+000199999V0202501N00461220001CN0005001N9+00221+00171100911ADDAY101999GF102991001001999999001051MD1710061+9999MW1461
0059037770999991938012913004+51350-000117FM-12+006699999V0202901N019019999999N0100001N9+00781-00061099951ADDGA1011+999999019GF104991041021001501061001MD1310301+9999
0037060210999991938081006004+57117+008600FM-12+004699999V0201101N00101220001CN0200001N9+02221+99999102201ADDAY101999GF100991001001999999001999
0029132420999991938120906004+44783+017217FM-12+015099999V0209991C00001220001CN0100001N9+00391+00171101991ADDGF106991001001999999031999
0037124650999991938051212004+51717+019400FM-12+017699999V0200701N00261220001CN0100001N9+01221-00671102831ADDAY101999GF104991001001999999001999
0057124150999991938051015004+51200+016083FM-12+003899999V0203201N00461030001CN0100001N9+01781+00221101191ADDAY121999GF106991041011012501031001MD1710021+9999MW1051
0037076500999991938052106004+43417+005200FM-12+001299999V0203201N02261036001CN0200001N9+01111+99999100351ADDAY111999GF106991011011008001041999
0037123110999991938030109004+52433+015550FM-12+001499999V0202701N00931002401CN0040001N9+99999+99999999999ADDAY121999GF108991081051002501001999
0056406880999991938071106004+30417+047650FM-12+000599999V0202501N00261220001CN0200001N9+99999+99999099521ADDAY101999GF100991001001999999001999EQDQ01 +03673ATOT  
0051109610999991938033003004+47417+010983FM-12+090399999V0203601N00261000151CN0000001N9-00721-00721100031ADDAY171031GF109991091999000251999999MD1810061+9999
0067825860999991938071012004-05200-039300FM-12+019999999V0201401N006719999999N0500001N9+02611+99999101551ADDGF102991999999999999999999IA1009KA1999M+03221KA2999N+02391MW1111
0063857270999991938082212004-38233-072650FM-12+017799999V0203601N006719999999N0020001N9+00891+99999101221ADDAY101999GF108991081031999999999999IA1089MD1810201+9999MW1601
0116124000999991938041918004+51917+015500FM-12+004599999V0202701N00101220001CN0500001N9+00391-00611102021ADDAA199000691AY181999GF102991011031012501061011IA1009KA1999M+00781MD1210131+9999EQDQ01+000042APCTENQ02+000102APC3  
0049855480999991938062312004-32817-070600FM-12+081399999V0200901N001019999999N0500001N9+00111+99999999999ADDAY101999GF100991001001999999001001IA1009MW1001
0127031620999991938121907004+55317-003200FM-12+024299999V0200601N002619999999N0200001N9-00331-00501102831ADDAA199999999GA1011+999999019GF102991021051004501001001IA1139KA1999M-00061KA2999N-00391MD1810041+9999MW1851EQDQ01  00002PRCP99
0043104100999991938091212004+51417+006933FM-12+012099999V0202501N00461002401CN0020001N9+01721+99999101941ADDAY161061GF108991061051002501999011MW1051
0043021200999991938101812004+66950+017750FM-12+033099999V0201401N00101002401CN0010001N9+00111+99999099501ADDAY181999GF108991081061002501999999MW1101
0043852300999991938030813004-17600-069450FM-12+405999999V0209991C00001007801CN0500001N9+99999+99999999999ADDAY111999GF106991061999008001999999MW1021
0009727640240111938090108004+46767-100750SAO  +0506BIS  V0200451N001512200019N0240001N1+01131+00691999999ADDMW1001
0057122990999991938091203004+52850+015667FM-12+001199999V0202701N00261012301CN0100001N9+01281+01171101181ADDAY151999GF108991081061012501999999MD1810281+9999MW1531
0025722535129091938080623004+29383-098567SAO  +0207SKF  V0201401N003612200019N0240001N9+03571+01801101191ADDGA1021+018009089MW1001
0051104380999991938050400004+51383+009533FM-12+008899999V0200901N00671220001CN0200001N9+00501-00281102101ADDAY101061GF100991001001999999001001MD1310101+9999
0009724050137431938051807004+38850-077033SAO  +0020DCA  V0202701N001010180019N0128001N1+01851+00961100091ADDMW1001
0043126250999991938090518004+49300+018950FM-12+084199999V0202301N00101004501CN0040001N9+01111+01061099951ADDAY191999GF108991071061004501021999MW1211
0037225500999991938093016004+64567+040517FM-12+001099999V0202701N009319999999N0100001N9+01001+99999101551ADDAY121999GF108991081999008001999999
0037131300999991938010306004+45817+016033FM-12+016399999V0202901N00101220001CN0040001N9-00111-00281102451ADDAY111999GF108991001001999999051999
0009723030137141938091211004+35183-079017SAO  +0064POB  V0209991C000010105019N0128001N9+01911+01801102301ADDMW1001
0102102240999991938040906004+53083+008783FM-12+000499999V0203601N00931220001CN0100001N9+00501+99999101931ADDAA199001091AY171999GF104991041081012501001001IA1009KA1999N+00221EQDQ01+000042APCTENQ02+000102APC3  
0009727640240111938040116004+46767-100750SAO  +0506BIS  V0203381N009810054019N0064001N1-00531-01031999999ADDMW1711
0080039800999991938032213004+55367-007333FM-12+002699999V0202301N006719999999N0200001N9+00941+00501101381ADDGA1011+999999019GF106991041071017501001091EQDQ01+000032APCTENQ02+000002APC3  
0025722485139441938052200004+32500-093683SAO  +0053BAD  V0201801N002612200019N0240001N9+03021+02131101081ADDGA1001+999999999MW1001
0037107610999991938051315004+49033+010983FM-12+012999999V0203201N00461220001CN0100001N9+99999+99999999999ADDAY101031GF100991001001999999001999
0037260630999991938092911004+59983+030283FM-12+000599999V0200501N00261220001CN0040001N9+01611+99999102231ADDAY121999GF102991021999012501999999
0059038040999991938051013004+49933-006300FM-12+005099999V0201801N002619999999N0200001N9+01441+00781102161ADDGA1011+999999019GF102991001001999999051021MD1310041+9999
0065033110999991938011813004+53317-004617FM-12+000899999V0201901N009319999999N0100001N9+00831+00721100241ADDGA1011+999999019GF108991061061004501021999MD1810401+9999MW1211
0043029110999991938021006004+63083+021617FM-12+000999999V0202001N00261000601CN0020001N9+00001+99999099601ADDAY121999GF108991081061000751001999MW1121
0025724338138021938051316004+38550-089983SAO  +0134BLV  V0201401N008710150019N0240001N9+01351+00411999999ADDGA1081+999999049MW1001
0051101850999991938051115004+54100+013433FM-12+000199999V0203401N00461220001CN0500001N9+01001-00111102791ADDAY101999GF102991001001999999001051MD1210021+9999
0303722265138211938042504003+32383-086350SAO  +0053MXF  V02036059000552200019N0160005N9+01505+01335102205ADDGA1001+999999999GA2999+999999999GA3999+999999999GD19005+9999999GD29005+9999999GD39005+9999999GD49999+9999999EQDN01 00900CCLHT 3N02 00000JPWTH 1QNNE11 1 09900E11 1 09900E11 1 09900E11 1 09999G11 3 00900H11U1 00999H11 1 00999H11 1 00999K11 1 00056L11 1 01000N11 1 00000Q11 1 10220S11 1 00059W11 1 11001
0025724338138021938010502004+38550-089983SAO  +0134BLV  V0202301N002612200019N0112001N9+00131-00371999999ADDGA1001+999999999MW1001
0039723030137141938051018004+35183-079017SAO  +0064POB  V0202901N004612200019N0160001N9+02411+00851101021ADDGA1031+015009089MD1710061+9999MW1001
0043043350999991938020112004+73483-021567FM-12+000399999V0203601N00671007801CN0500001N9-00501+99999100201ADDAY131061GF108991071091008001999999MW1161
0037103400999991938081106004+51983+009517FM-12+002399999V0200901N00101220001CN0040001N9+99999+99999999999ADDAY101999GF102991021001999999041999
0102076020999991938112718004+43483-001567FM-12+002999999V0201801N00261220001CN0100001N9+00721+99999102111ADDAA199002091AY101999GF102991011051008001071001IA1109KA1999M+01501EQDQ01+000032APCTENQ02+000002APC3  
0037040060999991938081218004+66167-023217FM-12+000699999V0203601N00101030001CN0500001N9+01221+99999100551ADDAY121061GF106991021041012501031999
0057123750999991938040212004+52183+020967FM-12+013399999V0202701N01541002401CN0040001N9+00501+99999101191ADDAY161999GF108991081061002501999999MD1990141+9999MW1611
0051104100999991938013100004+51400+006950FM-12+003799999V0202501N00261002401CN0100001N9+00111+00061101151ADDAY121061GF106991061051002501001001MD1310221+9999
0037063000999991938121306004+51583+002617FM-12+000499999V0201601N00461012301CN0100001N9+01111+99999101331ADDAY121999GF108991081051012501999999
0223722265138211938122022003+32383-086350SAO  +0053MXF  V02022559001552200019N0160005N9+01335-00175102005ADDGA1999+999999999GD19999+9999999GD29999+9999999GD39999+9999999EQDN01 00800CCLHT 3N02 00000JPWTH 1QNNE11 1 09999E11 1 09999E11 1 09999G11 3 00800H11U1 99999K11 1 00029L11 1 01000N11 1 00000Q11 1 10200S11 1 00056W11 1 66003
0037331870999991938112512004+50750+025350FM-12+020099999V0202701N00261220001CN0100001N9+00891+00281102261ADDAY141999GF100991001001999999001999
0025788071999991938112816004+08967-079550SAO  +0012MBLB V0203151N004112200019N0192001N1+99999+99999101291ADDGA1999+003609999MW1001
0057266970999991938020315004+54617+019883FM-12+000699999V0202001N01231004501CN0040001N9+00221+00111101511ADDAY121999GF108991081051004501999999MD1610041+9999MW1601
0051101220999991938061812004+53533+007883FM-12+000299999V0202901N00671220001CN0200001N9+01781+99999101941ADDAY121999GF104991041071012501001001MD1990061+9999
0037024180999991938030606004+59383+013500FM-12+005399999V0202501N00671220001CN0500001N9+00501+99999100511ADDAY101999GF100991001001999999001999
0035855770999991938091712004-33450-070700FM-12+052099999V0209991C000019999999N0020001N9+00781+99999101651ADDGF104991999999999999999999MW1111
0037234050999991938052416004+65483+052167FM-12+003799999V0209991C000019999999N0500001N9+00501+99999101851ADDAY121999GF108991071999017501999999
0092101800999991938121215004+54350+012733FM-12+000199999V0201101N00671220001CN0040001N9+00111+00001101941ADDAY111999GF101991011051002501001001MD1210011+9999MW1051EQDQ01+000042APCTENQ02+000022APC3  
0106115190999991938012906004+50067+014433FM-12+025499999V0202901N00671007801CN0100001N9-01501+99999098951ADDAA199000391AY171999GF106991061051008001001999IA1159KA1999N+99999MD1810461+9999MW1051EQDQ01 +00002ATMN  
0015745700138401938021820004+39833-084050SAO  +0254FFO  V0203601N009810015019N0032001N9+00741+00741101021ADDMW1451MW2611
0088100330999991938082503004+54767+009367FM-12+001399999V0203601N00461220001CN0100001N9+01221+01111101671ADDAY111999GF104991999001999999071001EQDQ01+000002SCOTLCQ02+000082APCTENQ03+000002APC3  
0043037770999991938021712004+51350-000117FM-12+006699999V0200701N00671001501CN0010001N9+00111+99999101241ADDAY171999GF108991081061001501999999MW1771
0025724338138021938120311004+38550-089983SAO  +0134BLV  V0201801N008710033019N0032001N9+01071+01021100581ADDGA1081+999999079MW1451
0037029170999991938121318004+62917+027667FM-12+023399999V0202301N00101004501CN0040001N9+00111+99999103601ADDAY121999GF109991091051004501001999
0057107100999991938111821004+49317+008100FM-12+020599999V0201401N00461220001CN0100001N9+00281+00061102461ADDAY101031GF100991001001999999001001MD1810041+9999MW1121
0057103630999991938082618004+52000+012983FM-12+003199999V0203201N00261001501CN0040001N9+01611+01611100931ADDAY161999GF108991081061001501999999MD1310081+9999MW1051
0009749105999991938111222004+40733-073600SAO  +003899999V0202251N001512200019N0012001N1+01411+00911102031ADDMW1051
0037043600999991938041312004+65600-037567FM-12+007299999V0201801N00261030001CN0100001N9+00391+99999100541ADDAY121061GF107991041051008001041999
0078121000999991938111918004+54183+015567FM-12+000699999V0201801N00931220001CN0040001N9+00391+99999999999ADDAY111999GF104991001001999999001021IA1009EQDQ01+000032APCTENQ02+000002APC3  
0070106530999991938051818004+49650+009967FM-12+008599999V0202701N00461220001CN0200001N9+01391+00501100881ADDAY121061GF104991021071012501001071IA1009KA1999M+02001MD1810041+9999
0087107630999991938010418004+49483+011100FM-12+009699999V0202701N00101002401CN0010001N9-00721-00891101831ADDAA199000391AY171061GF108991081061002501999999IA1309KA1999M-00611MD1010001+9999MW1731
0009723556999991938071513004+35667-095367SAO  +0186MKO  V0200451N001512200019N0240001N1+02631+02021101661ADDMW1001
0043105780999991938040509004+50433+012950FM-12+037099999V0202901N006719999999N0002001N9+99999+99999100211ADDAY141031GF109991999999999999999999MW1411
0057101850999991938091412004+54100+013433FM-12+000199999V0203401N00461001501CN0020001N9+01281+01171100831ADDAY161999GF108991071061001501999999MD1210201+9999MW1631
0037100270999991938082006004+54300+009600FM-12+000299999V0202301N00931030001CN0040001N9+99999+99999999999ADDAY111999GF107991041031008001071999
0071036970999991938121718004+51950+001333FM-12+000399999V0200801N009319999999N0040001N9+00171-00221102841ADDGA1011+999999019GF106991061051008001001001IA1009MD1310021+9999MW1051
0037154800999991938020318004+44183+028650FM-12+005099999V0203201N00101001501CN0000501N9+00391+00281102471ADDAY151999GF108991081051001501001999
0037039730999991938012418004+54100-010067FM-12+000599999V0201801N01901001501CN0100001N9+01111+99999101571ADDAY121999GF108991081091001501001999
0057103380999991938123000004+52417+009750FM-12+001699999V0201801N00931004501CN0020001N9-00281-00441100471ADDAY121999GF108991081051004501999999MD1710421+9999MW1731
0057103390999991938102709004+52583+010533FM-12+002099999V0209991C00001007801CN0040001N9+00611+99999100431ADDAY111999GF108991081051008001999999MD1110101+9999MW1051
0087112400999991938100706004+46983+015450FM-12+033599999V0209991C00001036001CN0200001N9+00781+99999102311ADDAA199000691AY121061GF107991021051017501071051IA1009KA1999N+00611MD1210101+9999MW1051
0037111580999991938060306004+47117+013733FM-12+102599999V0209991C00001012301CN0100001N9+01281+99999097601ADDAY121061GF108991081061012501999999
0058787930999991938052615004+08383-082450FM-12+001999999V0202001N003119999999N0500001N9+02671+99999999999ADDAY121999GF106991999999999999999999MA1999999101321MW1021
0070121150999991938022512004+54583+016850FM-12+000499999V0202301N00461002401CN0100001N9+00001-00221103621ADDAY121999GF108991081051002501999999MD1410001+9999EQDQ01+000092APCTEN
0051104730999991938070815004+51350+011967FM-12+003399999V0201601N00671220001CN0100001N9+03221+01501101061ADDAY101031GF102991011011012501041001MD1710301+9999
0102031620999991938040307004+55317-003200FM-12+024299999V0203001N006719999999N0200001N9+00171-00221101381ADDAA199017091GA1011+999999019GF101991011011004501001011IA1089KA1999M+00891KA2999N+00111MD1310341+9999
0074122000999991938070206004+53917+014283FM-12+999999999V0202701N00101002401CN0040001N9+01501+01391100561ADDAA199003091AY111999GF108991081051002501999999IA1089MD1210101+9999MW1641
0323722265138211938102809003+32383-086350SAO  +0053MXF  V02022559001552200019N0064005N9+00675+00285101565ADDGA1001+999999999GA2999+999999999GA3999+999999999GD19005+9999999GD29005+9999999GD39005+9999999GD49999+9999999MD1810041+9999MW1045EQDN01 00900CCLHT 3N02 08200JPWTH 1QNNE11 1 09900E11 1 09900E11 1 09900E11 1 09999G11 3 00900H11U1 00999H11 1 00999H11 1 00999K11 1 00037L11 1 00400N11 1 08200Q11 1 10156S11 1 00044W11 1 66003
0039722485139441938110306004+32500-093683SAO  +0053BAD  V0201401N006212200019N0160001N9+02021+01851101191ADDGA1021+006009059MD1010001+9999MW1001
0074101200999991938071706004+54183+007883FM-12+005099999V0202501N00261220001CN0040001N9+01501+99999101861ADDAA199044091AY161999GF106991001001999999071999IA1009MD1510041+9999MW1051
0078836460999991938101712004-20850-041100FM-12+003499999V0209991C000019999999N0200001N9+02281+99999101421ADDAA124002091GF107991999999999999999999IA1089KA1999M+02611KA2999N+01891MW1111
0057116430999991938103015004+50750+015733FM-12+049199999V0202501N00261220001CN0020001N9+00111+00061098641ADDAY141999GF104991021051000251081021MD1310061+9999MW1121
0073109530999991938062706004+47867+010617FM-12+021699999V0209991C00001036001CN0040001N9+01721+01501999999ADDAA199001091AY121061GF107991041051002501071999IA1089KA1999N+00891MW1051
0051122250999991938071115004+53267+016467FM-12+003899999V0202701N00101030001CN0040001N9+01891+01221101091ADDAY121999GF108991041081008001011999MD1710101+9999
0024990061999991938091812004+62000-033000SAO  +00004YA  V02099999999999999999N0000001N1+02911+02301999999ADDMA1999999100811MW1001
0057107760999991938031815004+48983+012200FM-12+010199999V0201801N00101220001CN0100001N9+01611+00441102861ADDAY111031GF101991011001022501031001MD1810121+9999MW1051
0065037770999991938021713004+51350-000117FM-12+006699999V0200801N006719999999N0010001N9+00111+00061102241ADDGA1011+999999019GF108991081061001501999999MD1810141+9999MW1891
0102038640999991938011007004+50817-001300FM-12+000299999V0202501N006719999999N0200001N9+00281+00171097801ADDAA124999999GA1011+999999019GF102991021081008001001001IA1089KA1999M+00781KA2999N+00281MD1310181+9999
0065038140999991938011318004+49950-005200FM-12+007399999V0202301N004619999999N0200001N9+00781+00561101061ADDGA1011+999999019GF107991071051004501001001IA1089MD1310041+9999
0076267020999991938100618004+54733+020567FM-12+002099999V0202501N00101220001CN0040001N9+01111+99999101131ADDAY121999GF104991041071017501071001IA1009KA1999M+01721MD1010121+9999MW1051
0051101930999991938092109004+53800+013700FM-12+000599999V0201101N00671220001CN0200001N9+01781+01111101861ADDAY101999GF101991001001999999001021MD1210041+9999
0037128510999991938092606004+47867+020017FM-12+099899999V0209991C00001220001CN0200001N9+01001+00391101091ADDAY101999GF100991001001999999001999
0037028360999991938122218004+67367+026650FM-12+018099999V0201801N00261004501CN0100001N9-00611+99999104201ADDAY121999GF108991081051004501001999
0051102740999991938063009004+53350+012733FM-12+002299999V0202301N00671220001CN0200001N9+01891+00941101171ADDAY111999GF104991041021008001001001MD1210041+9999
0057108640999991938032112004+48067+011650FM-12+016799999V0201101N00461220001CN0100001N9+01721+00501101791ADDAY111061GF104991001001999999001021MD1810201+9999MW1051
0067839750999991938050812004-15717-052750FM-12+041699999V0201401N001019999999N0100001N9+02111+99999101391ADDGF102991999999999999999999IA1009KA1999M+03111KA2999N+01221MW1111
0108038560999991938010307004+50533-002450FM-12+001099999V0200201N004619999999N0100001N9+00441+00331102981ADDAA124999999GA1011+999999019GF108991081051004501999999IA1089KA1999M+00671KA2999N+00391MD1810041+9999MW1511
0037130150999991938050118004+46067+014500FM-12+028499999V0202301N00461220001CN0200001N9+01391+00221100341ADDAY111999GF102991021071017501001999
0078837500999991938060712004-22517-043183FM-12+085099999V0209991C000019999999N0100001N9+01281+99999102901ADDAA124058091GF106991999999999999999999IA1109KA1999M+01611KA2999N+01221MW1111
0043122720999991938092306004+53767+020417FM-12+004199999V0200901N00101220001CN0040001N9+99999+99999999999ADDAY101999GF101991001001999999051999MW1051
0065033110999991938103018004+53317-004617FM-12+000899999V0202701N006719999999N0200001N9+01111+00671101111ADDGA1011+999999019GF106991061051008001001001IA1089MD1310101+9999
0068265090999991938041806004+55717+021133FM-12+000399999V0203401N00261220001CN0100001N9+00391+99999101011ADDAA199001091AY181999GF108991001001999999021999IA1089MD1310201+9999
0051104270999991938042500004+51183+008483FM-12+025799999V0203401N00261220001CN0100001N9+00001-00331099701ADDAY121061GF106991001001999999011999MD1990081+9999
0009723556999991938100913004+35667-095367SAO  +0186MKO  V0201351N001512200019N0112001N1+01631+00911102511ADDMW1001
0043110100999991938100206004+48300+014317FM-12+038499999V0209991C00001036001CN0020001N9+99999+99999999999ADDAY161061GF107991041061004501021999MW1051
0051106350999991938070215004+50217+008450FM-12+024499999V0201401N00261004501CN0040001N9+01281+00831099671ADDAY121031GF107991071071004501999999MD1310031+9999
0009722640930351938060218004+30367-104017SAO  +1481MRF  V0202251N004612200019N0800001N1+03071+00581101631ADDMW1001
0024990061999991938062302004+62000-033000SAO  +00004YA  V02099999999999999999N0000001N1+02851+02461999999ADDMA1999999100271MW1001
0055745700138401938120818004+39833-084050SAO  +0254FFO  V0201801N008212200019N0192001N9+01071+00131101051ADDGA1031+009009059GA2031+999999029MD1710101+9999MW1001
0051103840999991938031721004+52483+013433FM-12+001799999V0202701N00261220001CN0200001N9+01001+00781102621ADDAY121999GF106991001001999999001061MD1310321+9999
0025745980137021938110108004+37083-076350SAO  +0002LFI  V0202501N002112200019N0080001N9+00691+00581102271ADDGA1001+999999999MW1111
0051104530999991938042912004+51800+010617FM-12+034899999V0209991C00001000151CN0000501N9+00001+00001099261ADDAY181061GF109991091999000251999999MD1810061+9999
0009724550139471938090816004+39050-096767SAO  +0324FRI  V0202301N007212200019N0128001N9+03071+01961101661ADDMW1001
0037072570999991938080806004+47050+002650FM-12+017999999V0202501N00101002401CN0100001N9+01611+99999101661ADDAY121999GF107991071051002501999999
0070108660999991938050506004+48183+011550FM-12+052099999V0201101N00931220001CN0500001N9+00391+99999101841ADDAY101061GF100991001001999999001001IA1009KA1999N-00111MD1610061+9999
0037166750999991938110812004+38900+022433FM-12+999999999V0201401N00261220001CN0200001N9+02111+99999999999ADDAY101999GF100991001001999999001001
0051101200999991938041115004+54183+007883FM-12+001599999V0203201N00671220001CN0100001N9+00721+00501103511ADDAY121999GF106991021051002501001061MD1810041+9999
0039723030137141938013112004+35183-079017SAO  +0064POB  V0201801N002610120019N0112001N9+01301+01241102171ADDGA1081+999999059MD1210041+9999MW1001
0057100200999991938022018004+55017+008433FM-12+999999999V0200201N00261220001CN0200001N9+00281+99999103321ADDAY101999GF101991001001999999001011IA1009MD1310061+9999
0070108640999991938080306004+48067+011650FM-12+016799999V0202001N00101220001CN0200001N9+01891+01611101811ADDAY141061GF102991011021012501041011IA1009KA1999N+00891MD1210021+9999
0051108560999991938101715004+48183+010867FM-12+016899999V0202501N00671036001CN0200001N9+01721+01061101651ADDAY121031GF107991011081008001071031MD1610101+9999
0025724338138021938111710004+38550-089983SAO  +0134BLV  V0201801N001512200019N0080001N9+00301+00021999999ADDGA1001+999999999MW1051
0043135850999991938012106004+41333+021550FM-12+066199999V0209991C00001007801CN0010001N9+00001-00111102141ADDAY171999GF108991081051008001999999MW1731
0037021960999991938050418004+65833+024150FM-12+000999999V0201801N00101030001CN0500001N9+00391+99999100991ADDAY111999GF106991011011008001031999
0037164200999991938022306004+38200+015550FM-12+005499999V0209991C00001007801CN0040001N9+00781+99999102101ADDAY121999GF107991071999008001999999
0037025330999991938061918004+58400+013450FM-12+011599999V0202001N00461007801CN0100001N9+01781+99999100751ADDAY111999GF108991081051008001999999
0057108660999991938121312004+48183+011550FM-12+052099999V0209991C00001000151CN0000001N9+00001+99999102241ADDAY141061GF109991091999000251999999MD1610081+9999MW1451
0037129920999991938031218004+46667+021100FM-12+009199999V0203601N01901220001CN0100001N9+00111+00001102601ADDAY111999GF101991011041008001001999
0037109650999991938073109004+47450+011267FM-12+027799999V0203601N00261220001CN0100001N9+99999+99999999999ADDAY111999GF102991001001999999041999
0060856290999991938050612004-34967-071217FM-12+021199999V0201801N001019999999N0020001N9+00781+99999101701ADDAA124002091AY101999GF109991081051999999031999IA1089MW1031
0051102500999991938041509004+53333+011500FM-12+001299999V0202501N00101030001CN0200001N9+01001+99999102021ADDAY121999GF107991011051004501071999MD1210041+9999
0065030050999991938042013004+60133-001183FM-12+008399999V0202301N006719999999N0100001N9+00891+00781102471ADDGA1011+999999019GF107991061081002501071999MD1310061+9999MW1251
0051103870999991938080112004+52533+013117FM-12+001099999V0200901N00461220001CN0200001N9+03001+01671102301ADDAY111061GF104991021021017501001081MD1810061+9999
0037125110999991938041409004+50767+016283FM-12+013199999V0203601N00461007801CN0100001N9+99999+99999999999ADDAY121999GF108991061081008001021999
0043846910999991938021717004-13750-076233FM-12+000699999V0202701N00461220001CN0500001N9+02611+99999100531ADDAY101999GF102991001999999999999999MW1001
0025725310148061938020817004+40300-088133SAO  +0228RAN  V0202031N008712200019N0096001N1+01131+00461102641ADDGA1999+018009999MW1051
0043105150999991938112109004+50350+007567FM-12+005399999V0200901N00101007801CN0040001N9+99999+99999999999ADDAY161031GF108991081051008001999999MW1611
0063857430999991938053012004-38733-072567FM-12+011499999V0200501N001019999999N0040001N9+00391+99999101291ADDAY101999GF108991041031999999021999IA1009MD1810121+9999MW1131
0065032620999991938021213004+55017-001417FM-12+003399999V0203201N019019999999N0100001N9+00671+00561101611ADDGA1011+999999019GF104991041091002501001001MD1310121+9999MW1251
0051108680999991938073012004+48250+011550FM-12+014899999V0200901N00261090001CN0200001N9+02611+01611101991ADDAY111061GF106991041011012501001021MD1810041+9999
0037154200999991938031612004+44483+026133FM-12+009299999V0202501N00261220001CN0100001N9+01391+99999102361ADDAY101999GF100991001999999999999999
0051105540999991938071800004+50967+010967FM-12+009899999V0202001N00261220001CN0100001N9+01111+01001102351ADDAY101061GF100991001001999999001001MD1990021+9999
0037062450999991938022306004+53450+004783FM-12+000399999V0201401N00101012301CN0200001N9+00611+99999102931ADDAY121999GF108991081051012501999999
0009727640240111938012601004+46767-100750SAO  +0506BIS  V0203151N001512200019N0240001N1-02261-02751999999ADDMW1001
0037124650999991938080112004+51717+019400FM-12+017699999V0201401N00261220001CN0100001N9+03001+01671102261ADDAY101999GF102991021011017501001999
0056133630999991938021618004+43350+019367FM-12+076999999V0200901N00931012301CN0100001N9+00611+00001102612ADDAY121999GF106991061051012501001999EQDQ01+102613APOSLP
0037100130999991938081518004+53900+009133FM-12+000299999V0200201N00461004501CN0100001N9+99999+99999999999ADDAY121999GF107991071051004501001999
0087067300999991938100512004+46533+007967FM-12+357999999V0201401N00461220001CN0500001N9+00001+99999999999ADDAY101999GF100991001001999999001001MA1999999065491EQDQ01+000032APCTENQ02+000002APC3  
0035710950999991938111701004+72700-078000FM-12+000399999V0201801N001019999999N0005001N9-01441+99999999999ADDGF108991001999999999999999MW1711
0009725310148061938041103004+40300-088133SAO  +0228RAN  V0201581N006712200019N0240001N1+00631+00411101731ADDMW1001
0091103200999991938051506004+51933+008317FM-12+002199999V0201101N00101220001CN0200001N9+01281+99999101321ADDAY101999GF100991001001999999001001IA1009KA1999N+01221EQDQ01+000032APCTENQ02+000002APC3  
0057105540999991938030900004+50967+010967FM-12+009899999V0202301N00461220001CN0040001N9+00501+00281101971ADDAY101061GF100991001001999999001001MD1990181+9999MW1051
0000719070999991938011412004+58450-078133FM-12+002099999V0201801N002619999999N0080001N9-02061+99999100641
0057105690999991938011612004+50533+012100FM-12+013799999V0202301N00931030001CN0100001N9+00501-00111101681ADDAY111061GF106991021081004501031011MD1610081+9999MW1051
0043104740999991938091906004+51850+012650FM-12+002099999V0200701N00261220001CN0020001N9+99999+99999999999ADDAY101061GF104991001001999999071999MW1051
0025722485139441938111201004+32500-093683SAO  +0053BAD  V0201401N001512200019N0128001N9+01691+00741101661ADDGA1051+999999029MW1001
0000151110999991938013106004+46917+026900FM-12+018099999V0203201N002619999999N9999999N9+00111+00001100981
0037331870999991938121306004+50750+025350FM-12+020099999V0201401N01541002401CN0040001N9-00221-00331103431ADDAY121999GF108991081051002501999999
0051074810999991938040512004+45733+004917FM-12+019899999V0200201N00671220001CN0200001N9+01111+99999102581ADDAY121999GF107991001001999999001061MD1810161+9999
0062107080999991938040506004+49217+007033FM-12+018999999V0201801N00101220001CN0020001N9+00001+99999102861ADDAY101061GF102991999001999999051001IA1009KA1999N-00281MW1051
0043105580999991938052509004+50383+011183FM-12+019599999V0202301N00261002401CN0040001N9+99999+99999999999ADDAY121031GF107991071051002501999999MW1051
0087104880999991938061018004+51133+013767FM-12+007099999V0200201N00261001501CN0020001N9+01391+01391102061ADDAA199002091AY161061GF108991081061001501999999IA1089KA1999M+01891MD1210021+9999MW1611
0015726980242291938121004004+45600-122650SAO  +0012PDX  V0209991C000012200019N0064001N1+00131+00131999999ADDMW1041MW2111
0037103980999991938071415004+52333+014617FM-12+001599999V0200501N00461220001CN0200001N9+99999+99999999999ADDAY111031GF102991011011008001001999
0025722535129091938022011004+29383-098567SAO  +0207SKF  V0200501N003612200019N0192001N9+00411+00021102101ADDGA1001+999999999MW1001
0043166420999991938012906004+39667+020850FM-12+050299999V0201801N00461004501CN0020001N9+01001+99999999999ADDAY161999GF108991081061004501001999MW1631
0037076450999991938030506004+43850+004400FM-12+006199999V0202901N00931220001CN0100001N9+01221+99999103091ADDAY101999GF101991001001999999001999
0081103370999991938061718004+52150+009750FM-12+002799999V0202901N00461007801CN0100001N9+01281+99999102241ADDAA199000591AY181999GF108991081051008001999999IA1089KA1999M+01501MD1010001+9999
0059032080999991938070501004+54417-004367FM-12+000999999V0209991C000019999999N0200001N9+01001+00781099941ADDGA1011+999999019GF104991011021012501041061MD1810021+9999
0025725115147111938071503004+40200-076767SAO  +0097MDT  V0201581N005112200019N0160001N1+02301+02131099761ADDGA1051+018009009MW1001
0037020480999991938012406004+67133+020667FM-12+036599999V0203201N00461220001CN0500001N9-00221+99999098921ADDAY171999GF104991021051008001041999
0043840270999991938121617004+00967-079717FM-12+000399999V0209991C00001007801CN0500001N9+99999+99999999999ADDAY111999GF107991071999008001999999MW1021
0051105540999991938112709004+50967+010967FM-12+009899999V0201801N001019999999N0200001N9+00391+00171101771ADDAY121031GF108991999001022501071999MD1010081+9999
0057104490999991938122603004+51483+010317FM-12+009099999V0203601N00101001501CN0020001N9-00781-00891103141ADDAY171031GF108991081051001501999999MD1310061+9999MW1711
0085066800999991938031906004+47250+009333FM-12+250199999V0200901N00261220001CN0500001N9+00111+99999999999ADDAY101999GF100991001001999999001001IA1319KA1999N-00221MA1999999075891MD1610021+9999
0097037970350471938102007004+51350+001367FM-12+004799999V0202501N001019999999N0010001N9+00501+00391102641ADDGA1011+999999019GF107991001001999999001061IA1009KA1999M+01391KA2999N+00391MD1810101+9999MW1101
0037020680999991938121612004+61867+016567FM-12+007299999V0201601N00671030001CN0200001N9-00281+99999104791ADDAY121999GF107991041051008001041999
0037123310999991938020118004+52533+017217FM-12+010999999V0202301N00261002401CN0020001N9+00281+00171100571ADDAY161999GF108991081051002501999999
0043104340999991938031706004+51533+009017FM-12+006199999V0202301N00101007801CN0040001N9+99999+99999999999ADDAY121061GF108991081051008001999999MW1051
0037122950999991938112218004+53133+023167FM-12+013599999V0201401N00461004501CN0040001N9+00721+00331099701ADDAY121999GF107991071051004501999999
0051100050999991938022706004+54017+008217FM-12+999999999V0201801N00461012301CN0040001N9+00501+99999101991ADDAY121999GF108991071001012501061999MD1810101+9999
0051122000999991938020709004+53917+014283FM-12+999999999V0202701N00261220001CN0100001N9+00281+00061103531ADDAY101999GF101991011011004501001001MD1110141+9999
0056103380999991938082409004+52417+009750FM-12+001699999V0203401N00461220001CN0200001N9+99999+99999102171ADDAY111999GF102991999021017501041001EQDQ01+000072SCOTLC
0074858620999991938112612004-45383-072683FM-12+001099999V0202301N001019999999N0005001N9+00721+99999100871ADDAA124012091AY101999GF108991081031999999999999IA1089MD1810041+9999MW1601
0065031000999991938092118004+56483-006867FM-12+000999999V0201901N004619999999N0200001N9+01171+00941099731ADDGA1011+999999019GF106991041081004501091031IA1089MD1310061+9999
0029710934999991938021601004+66133-065750FM-12+001399999V0209991C000019999999N0500001N9-03561+99999999999ADDGF102991001999999999999999
0057108580999991938052909004+48200+011267FM-12+015899999V0202701N00931002401CN0100001N9+01111+00501999999ADDAY121031GF108991061061002501021999MD1210081+9999MW1801
0070124000999991938072306004+51917+015500FM-12+004599999V0203201N00261220001CN0100001N9+01611+01331101361ADDAY101999GF101991011051004501001011IA1089KA1999N+01111MD1310021+9999
0043110090999991938042506004+48183+014033FM-12+031999999V0202301N00261004501CN0020001N9+00111+99999999999ADDAY171061GF108991081051004501999999MW1711
0057108690999991938020715004+48317+011933FM-12+014199999V0201101N00261000151CN0002001N9-00221-00221103431ADDAY141031GF109991091999000251999999MD1310141+9999MW1451
0040719164999991938110106004+63333-090717FM-12+000499999V02099999999999999999N9999999N9+99999+99999999999ADDAA124000691KA1999M-00281KA2999N-01941
0043166250999991938091818004+40933+024417FM-12+003399999V0200501N001019999999N0040001N9+02611+99999999999ADDAY111999GF108991081051999999001001IA1089
0051101510999991938110403004+53967+010867FM-12+999999999V0202701N00931004501CN0100001N9+00891+99999101001ADDAY181999GF108991081081004501999999MD1810181+9999
0065036930999991938092918004+51533+000817FM-12+000399999V0203401N001019999999N0100001N9+01561+01111101321ADDGA1011+999999019GF107991011041012501031091IA1089MD1310121+9999
0037163300999991938101706004+40467+017233FM-12+002299999V0209991C00001220001CN0200001N9+01781+99999102181ADDAY101999GF100991001999999999999999
0037167100999991938100506004+37517+022350FM-12+066599999V0209991C00001036001CN0200001N9+01391+99999999999ADDAY111999GF106991021021008001061999
0063855580999991938060112004-33000-071617FM-12+004199999V0200901N001019999999N0040001N9+01221+99999101901ADDAY101999GF106991999999999999001001IA1009MD1310061+9999MW1021
0025725115147111938012100004+40200-076767SAO  +0097MDT  V0200901N001512200019N0112001N1-00311-00591100361ADDGA1051+999999009MW1001
0323722265138211938112915003+32383-086350SAO  +0053MXF  V02031559000552200019N0032005N9+00285-00505103395ADDGA1001+999999999GA2999+999999999GA3999+999999999GD19005+9999999GD29005+9999999GD39005+9999999GD49999+9999999MD1110101+9999MW1045EQDN01 00900CCLHT 3N02 08200JPWTH 1QNNE11 1 09900E11 1 09900E11 1 09900E11 1 09999G11 3 00900H11U1 00999H11 1 00999H11 1 00999K11 1 00023L11 1 00200N11 1 08200Q11 1 10339S11 1 00037W11 1 88001
0084857430999991938091312004-38733-072567FM-12+011499999V0202301N001019999999N0040001N9+00221+99999102721ADDAY101999GF101991011011999999001001IA1009MW1001EQDQ01+000032APCTENQ02+000002APC3  
0009724567139211938110614004+39367-094917SAO  +0238FLV  V0200231N005710030019N0160001N1+00241+00131102301ADDMW1611
0070106530999991938121706004+49650+009967FM-12+008599999V0200701N00671220001CN0100001N9-00781-01111103241ADDAY101061GF100991001001999999001001IA1009KA1999N-00781MD1310121+9999
0067839670999991938011912004-30033-051217FM-12+002399999V0209991C000019999999N0040001N9+02611+99999100851ADDGF104991999999999999999999IA1009KA1999M+03111KA2999N+02281MW1111
0067833790999991938121512004-15533-047300FM-12+091499999V0209991C000019999999N0500001N9+02611+99999100631ADDGF104991999999999999999999IA1089KA1999M+02891KA2999N+01891MW1111
0070105690999991938052718004+50533+012100FM-12+013799999V0201801N00261220001CN0100001N9+02001+00391100611ADDAY111061GF102991011011017501001011IA1009KA1999M+02221MD1810021+9999
0056136230999991938092418004+40500+019283FM-12+034099999V0203401N002619999999N9999999N9+01781+99999101801ADDGF106991999031999999001001KA1999M+02111MD1310081+9999
0057108640999991938121209004+48067+011650FM-12+016799999V0209991C00001220001CN0500001N9+00221+00001101671ADDAY111031GF106991001001999999041021MD1210161+9999MW1041
0009724050137431938032217004+38850-077033SAO  +0020DCA  V0202251N004612200019N0112001N1+03352+01351100121ADDMW1001
0037012350999991938102012004+62083+009117FM-12+064799999V0203201N00671220001CN0500001N9+00721+99999102111ADDAY111999GF104991021081012501041999
0092033960999991938010318004+53583-000117FM-12+000999999V0200901N004619999999N0200001N9+00331+00221103431ADDGA1011+999999019GF108991081051004501999999IA1089MW1631EQDQ01+000032APCTENQ02+000002APC3  
0025722535129091938120610004+29383-098567SAO  +0207SKF  V0202901N001512200019N0160001N9+00351-00811102101ADDGA1031+999999029MW1001
0024990061999991938090804004+62000-033000SAO  +00004YA  V02099999999999999999N0000001N1+02851+02521999999ADDMA1999999100441MW1001
0051122990999991938110803004+52850+015667FM-12+001199999V0202501N00461007801CN0040001N9+01001+00611101221ADDAY121999GF108991081051008001999999MD1810041+9999
0015725310148061938013018004+40300-088133SAO  +0228RAN  V0202701N009810024019N0064001N1-00261-00481101421ADDMW1451MW2711
0025745980137021938042523004+37083-076350SAO  +0002LFI  V0201101N004112200019N0192001N9+01301+00961102371ADDGA1001+999999999MW1001
0065031620999991938013018004+55317-003200FM-12+024299999V0202101N002619999999N0200001N9+00061-00171100651ADDGA1011+999999019GF104991041051004501001001IA1089MD1310241+9999
0023724567139211938081600004+39367-094917SAO  +0238FLV  V0201801N002110090019N0112001N1+02411+02131100951ADDMD1710061+9999MW1001
0009722210138581938110713004+30500-086500SAO  +0025VPS  V0200501N001010054019N0064001N9+01961+01911102001ADDMW1111
0009745700138401938121011004+39833-084050SAO  +0254FFO  V0202501N007710036019N0048001N9+00191-00041101801ADDMW1451
0051266990999991938101909004+54783+020617FM-12+000699999V0202501N01231030001CN0100001N9+01281+00831100241ADDAY121999GF108991041061004501021999MD1710021+9999
0303722265138211938061401003+32383-086350SAO  +0053MXF  V02036059001552200019N0192005N9+02615+01895101805ADDGA1001+999999999GA2999+999999999GA3999+999999999GD19005+9999999GD29005+9999999GD39005+9999999GD49999+9999999EQDN01 00900CCLHT 3N02 00000JPWTH 1QNNE11 1 09900E11 1 09900E11 1 09900E11 1 09999G11 3 00900H11U1 00999H11 1 00999H11 1 00999K11 1 00066L11 1 01200N11 1 00000Q11 1 10180S11 1 00079W11 1 11003
0039722536129111938111015004+29533-098283SAO  +0226RND  V0201801N002612200019N0240001N9+01351+00911101931ADDGA1001+999999999MD1310061+9999MW1001
0009745700138401938122119004+39833-084050SAO  +0254FFO  V0202901N008210075019N0160001N9+00191-00531102031ADDMW1001
0063857430999991938060912004-38733-072567FM-12+011499999V0200501N001019999999N0040001N9-00221+99999102741ADDAY101999GF104991041021999999001001IA1009MD1810101+9999MW1011
0051121630999991938091712004+54133+020567FM-12+002799999V0202301N00461220001CN0100001N9+01501+00611102591ADDAY121999GF104991041011004501001021MD1810061+9999
0037026350999991938062312004+55617+013033FM-12+000699999V0202701N00671030001CN0200001N9+01501+99999101391ADDAY121999GF107991041071008001031999
0043108060999991938092406004+48067+008733FM-12+020199999V0200901N00101220001CN0000501N9+99999+99999999999ADDAY141061GF102991001001999999999999MW1441
0057060410999991938090218004+57733+010633FM-12+000399999V0202501N00461220001CN0200001N9+01611+99999101061ADDAY111999GF104991021051004501051011IA1009MD1310041+9999
0089073150999991938042806004+45917-000983FM-12+000499999V0200901N00261220001CN0100001N9+00611+99999100991ADDAY111999GF107991999001999999031001IA1009KA1999N+00611MD1310161+9999EQDQ01+000002SCOTLC
0057104000999991938052412004+51283+006767FM-12+001199999V0202901N00461007801CN0200001N9+01501+99999101391ADDAY121061GF107991071081008001999999MD1710061+9999MW1801
0009722860231191938121919004+33900-117250SAO  +0466RIV  V0200501N002110045019N0160001N9+01021+00911101251ADDMW1001
0015724050137431938022000004+38850-077033SAO  +0020DCA  V0200681N008710021019N0016001N1+00691+00581099711ADDMW1451MW2611
0037040970999991938091806004+65267-013583FM-12+000899999V0209991C00001220001CN0500001N9+00501+99999100501ADDAY111061GF106991001001999999051999
0087104160999991938122406004+51533+007583FM-12+002199999V0200501N00671004501CN0040001N9-00611-00781101751ADDAA199000691AY171061GF108991071051004501999999IA1309KA1999N-00781MD1310141+9999MW1221
0037124950999991938080118004+51233+022583FM-12+020399999V0201401N00101220001CN0100001N9+02611+02111102241ADDAY101999GF102991001001999999081999
0009722860231191938080514004+33900-117250SAO  +0466RIV  V0200901N000512200019N0160001N9+02071+01571101631ADDMW1001
0051114060999991938110512004+50083+012400FM-12+047399999V0202701N00261004501CN0100001N9+01281+99999102021ADDAY161061GF108991061061004501021999MD1310021+9999
0037122370999991938063018004+53467+018783FM-12+000799999V0202701N00261220001CN0100001N9+02111+00891101361ADDAY101999GF102991021071017501001999
0037062400999991938021006004+52300+004783FM-12-000399999V0202501N00931007801CN0040001N9+00721+99999100931ADDAY121999GF107991061051008001071999
0044719081999991938030912004+63117-077933FM-12+001699999V0203601N000519999999N0100001N9-03111+99999999999ADDGF102991001999999999999999MA1999999100441
0037134550999991938111512004+42433+018600FM-12+000599999V0200901N00461220001CN0200001N9+01611+00941102731ADDAY101999GF101991011011008001001999
0037103100999991938101906004+55367+007933FM-12+001699999V0202501N00671000601CN0020001N9+99999+99999999999ADDAY111999GF107991071091000751999999
0043109620999991938091803004+47800+011017FM-12+030199999V0202701N00101220001CN0100001N9+01221+00611100481ADDAY101031GF100991001001999999001999MW1121
0091036930999991938060307004+51533+000817FM-12+000399999V0202401N004619999999N0200001N9+01111+00671101831ADDGA1011+999999019GF106991041071012501041091IA1089KA1999M+01391KA2999N+00891MD1310121+9999
0025722485139441938121204004+32500-093683SAO  +0053BAD  V0201801N001512200019N0192001N9+01741+01301101731ADDGA1001+999999999MW1001
0037132600999991938020806004+44517+019167FM-12+012599999V0209991C00001007801CN0100001N9+00221+00171103021ADDAY121999GF106991061051008001001999
0037105590999991938092915004+50467+011083FM-12+025699999V0202001N00261220001CN0200001N9+01781+00891999999ADDAY111031GF107991001001999999071061
0062107370999991938050718004+48683+009000FM-12+042799999V0203601N00461220001CN0100001N9+01501+99999100871ADDAY111061GF102991999001999999051001IA1009KA1999M+01781MW1051
0051104900999991938112109004+51600+013733FM-12+003899999V0201801N00931030001CN0100001N9+00721+00111100531ADDAY121031GF107991041051017501071081MD1810061+9999
0057106090999991938101103004+49750+006667FM-12+008199999V0202001N00101004501CN0010001N9+00781+99999101671ADDAY121031GF108991081051004501999999MD1210091+9999MW1101
0102333930999991938042618004+49817+023950FM-12+033999999V0200701N00461004501CN0040001N9+00891+99999101671ADDAA199000691AY181999GF108991081051004501999999IA1009KA1999M+01281EQDQ01+000042APCTENQ02+000062APC3  
0029719681999991938110812004+68233-134833FM-12+000999999V0203601N013419999999N0010001N9-01501+99999101861ADDGF108991081999999999999999
0043076500999991938061912004+43417+005200FM-12+001299999V0202701N00101220001CN0100001N9+02391+99999101991ADDAY101999GF101991011021012501081999MW1601
0044719350999991938050115004+60850-115767FM-12+016199999V0200501N002119999999N9999999N9+00001+99999999999ADDGF107991021999999999999999MA1999999099051
0085066800999991938122518004+47250+009333FM-12+250199999V0200201N00931220001CN0500001N9-01221+99999999999ADDAY111999GF100991001001999999001001IA1319KA1999M-01001MA1999999074151MD1210041+9999
0051104190999991938071115004+51217+007633FM-12+013699999V0202301N00261007801CN0200001N9+01501+99999101251ADDAY161031GF106991061081008001001001MD1810061+9999
0067836850999991938022412004-21817-042017FM-12+060999999V0203201N001019999999N9999999N9+02221+99999101461ADDGF106991999999999999999999IA1009KA1999M+03001KA2999N+01891MW1111
0009724567139211938101710004+39367-094917SAO  +0238FLV  V0202701N000512200019N0112001N1+00961+00851101901ADDMW1001
0037161200999991938082012004+44400+008917FM-12+000299999V0209991C00001220001CN0100001N9+02611+99999101451ADDAY121999GF104991021999012501999999
0037167380999991938102806004+36767+024417FM-12+018099999V0202301N002619999999N0200001N9+02001+99999101591ADDAY121999GF108991041081999999021999
0009745700138401938041617004+39833-084050SAO  +0254FFO  V0202001N004612200019N0112001N9+02521+01191101661ADDMW1001
0052837460999991938112212004-22450-042933FM-12+087799999V0200501N002619999999N0100001N9+02281+99999101321ADDAA124002091IA1009KA1999M+02781KA2999N+01611MW1111
0087107460999991938090306004+49133+010050FM-12+012999999V0209991C00001007801CN0040001N9+01111+01001999999ADDAA199003091AY161061GF108991061051008001071999IA1089KA1999N+00781MD1210021+9999MW1611
0039722860231191938123000004+33900-117250SAO  +0466RIV  V0200201N003612200019N0160001N9+01691+00021102171ADDGA1021+999999029MD1710041+9999MW1001
0043104710999991938061606004+51383+012400FM-12+004099999V0202901N01231004501CN0100001N9+99999+99999999999ADDAY161061GF108991081051004501999999MW1251
0037023610999991938013106004+62617+017950FM-12+000999999V0209991C00001030001CN0100001N9-00221+99999098871ADDAY171999GF106991021051004501081999
0009725310148061938121305004+40300-088133SAO  +0228RAN  V0202701N001512200019N0112001N1-00591-00811102571ADDMW1001
0009726770240331938083113004+45800-108533SAO  +1088BIL  V0200231N005112200019N0640001N1+01071+00581999999ADDMW1001
0081108690999991938040906004+48317+011933FM-12+014199999V0202701N00261220001CN0100001N9+00111-00111102131ADDAA199001091AY121061GF104991041081008001071001IA1159KA1999N-00111MD1310081+9999
0037267130999991938090212004+54633+022567FM-12+002399999V0201801N00461220001CN0100001N9+99999+99999999999ADDAY121999GF106991001001999999061999
0091038560999991938072707004+50533-002450FM-12+001099999V0201801N006719999999N0200001N9+01561+01281101601ADDGA1011+999999019GF108991061051008001041999IA1089KA1999M+01721KA2999N+01391MD1310041+9999
0057104490999991938091200004+51483+010317FM-12+009099999V0202301N00461004501CN0020001N9+01221+01111101931ADDAY121061GF108991999041004501001001MD1990061+9999MW1051
0009725310148061938010918004+40300-088133SAO  +0228RAN  V0201801N008210024019N0032001N1-00421-00531102201ADDMW1711
0037100270999991938041112004+54300+009600FM-12+000299999V0202901N00461220001CN0100001N9+99999+99999999999ADDAY111999GF102991021011022501001999
0037122700999991938082506004+53117+020483FM-12+015599999V0200901N00461004501CN0100001N9+01781+01561100311ADDAY121999GF107991071091004501071999
0057100330999991938011312004+54767+009367FM-12+001399999V0202301N00931001501CN0010001N9+00111+00061100331ADDAY161999GF108991081061001501999999MD1810081+9999MW1601
0029719380999991938080713004+67817-115167FM-12+000499999V0202701N005119999999N0200001N9+00671+99999101731ADDGF105991051041999999001001
0067839670999991938051212004-30033-051217FM-12+002399999V0209991C000019999999N0020001N9+01281+99999102141ADDGF106991999999999999999999IA1089KA1999M+02391KA2999N+01221MW1401
0051101220999991938051612004+53533+007883FM-12+000299999V0202701N00671004501CN0100001N9+01721+99999101671ADDAY121999GF108991061051004501021999MD1310061+9999
0037025100999991938062818004+58383+012333FM-12+005499999V0202501N01541012301CN0200001N9+01221+99999099371ADDAY161999GF107991071061012501999999
0009788071999991938083111004+08967-079550SAO  +0012MBLB V0202701N000510045019N0160001N1+99999+99999100951ADDMW1001
0009724567139211938072720004+39367-094917SAO  +0238FLV  V0202251N001512200019N0160001N1+03181+02071101421ADDMW1001
0024990061999991938060913004+62000-033000SAO  +00004YA  V02099999999999999999N0000001N1+03181+02461999999ADDMA1999999100951MW1001
0043040970999991938032918004+65267-013583FM-12+000899999V0203601N00461012301CN0040001N9-00221+99999100601ADDAY171061GF107991071061012501999999MW1701
0128999999241551938030809005+45683-118850SAO  +045599999V02020359001552200049N048000599+00505+00005100115ADDMA1999999096555EQDN01 00000JPWTH 1QNNG11U1 99999K11 1 00032L11 1 03000M11 1 28510N11 1 00000Q11 1 10011S11 1 00041W11 1 56003
0067837320999991938100812004-22267-046367FM-12+093699999V0200901N001019999999N0040001N9+01721+99999101871ADDGF107991999999999999999999IA1009KA1999M+02721KA2999N+01391MW1111
0102037950999991938061907004+51083+001017FM-12+010499999V0202401N002619999999N0040001N9+01441+01221101631ADDAA124999999GA1011+999999019GF107991071051002501999999IA1009KA1999M+02061KA2999N+01111MD1310061+9999
0102037660999991938082107004+51283-000750FM-12+006999999V0209991C000019999999N0500001N9+00831+00721101401ADDAA124999999GA1011+999999019GF102991011031008001001031IA1009KA1999M+01891KA2999N+00331MD1310141+9999
0051265120999991938071515004+54950+120250FM-12+000799999V0203401N00101220001CN0200001N9+01781+01331102101ADDAY121999GF104991021021012501071001MD1710061+9999
0043266140999991938081506004+55083+021800FM-12+000399999V0200701N00101220001CN0040001N9+99999+99999999999ADDAY101999GF106991001001999999011999MW1051
0051103840999991938081403004+52483+013433FM-12+001799999V0209991C00001075001CN0100001N9+01891+01611100571ADDAY121999GF106991021051012501031061MD1410001+9999
0037023240999991938012106004+62050+014417FM-12+036399999V0201801N00261004501CN0500001N9+00111+99999100991ADDAY121999GF108991081051004501999999
0025745980137021938013117004+37083-076350SAO  +0002LFI  V0202001N006710090019N0128001N9+01461+01301102101ADDGA1081+002409079MW1001
0037070280999991938060418004+49517+000117FM-12+001799999V0201401N00671220001CN0200001N9+02221+99999101011ADDAY101999GF104991001001999999081999
0051102500999991938032815004+53333+011500FM-12+001299999V0203601N00671220001CN0200001N9+00721+99999102111ADDAY101999GF102991011011008001001051MD1110161+9999
0051101270999991938062503004+53533+008150FM-12+000299999V0202301N00461030001CN0040001N9+01501+01391101071ADDAY121999GF107991041061008001051001MD1810141+9999
0009726770240331938052321004+45800-108533SAO  +1088BIL  V0203601N008210150019N0640001N1+02071+00581999999ADDMW1001
0082101310999991938102206004+53867+008717FM-12+000199999V0200901N00931015001CN0040001N9+00611+00501102531ADDAY121999GF107991071001017501001061IA1009MD1410001+9999MW1051EQDQ01+000082APCTEN
0056161700999991938012006004+43800+011200FM-12+007399999V0209991C00001220001CN0100001N9+00891+99999101531ADDAY121999GF104991041999012501999999EQDQ01+009992WODIR 
0037406720999991938110206004+31983+044983FM-12+000699999V0209991C00001220001CN0100001N9+02061+99999101851ADDAY111999GF106991001001999999011999
0009749105999991938020605004+40733-073600SAO  +003899999V0202251N001510036019N0080001N1+00521+00411103081ADDMW1051
0029719650999991938121509004+63583-135850FM-12+049599999V02099999999999999999N9999999N9+99999+99999999999ADDKA1999M-00611KA2999N-03061
0024990061999991938051205004+62000-033000SAO  +00004YA  V02099999999999999999N0000001N1+02411+02131999999ADDMA1999999100881MW1001
0025725310148061938052900004+40300-088133SAO  +0228RAN  V0201581N001512200019N0160001N1+01801+01351101121ADDGA1999+015009999MW1001
0015725377148041938020607004+42617-082817SAO  +0176MTC  V0202001N005110001519N0000001N9+00461+00461101491ADDMW1451MW2611
0043133530999991938041112004+43867+018350FM-12+048899999V0203601N00931004501CN0040001N9+00111+00061102661ADDAY171999GF108991081061004501999999MW1701
0023749105999991938021612004+40733-073600SAO  +003899999V0203151N005112200019N0240001N1-00151-01151103491ADDMD1210341+9999MW1001
0043026400999991938083006004+56383+014817FM-12+017399999V0200501N00461021001CN0010001N9+01781+99999100881ADDAY181999GF106991061001022501091999MW1101
0303722265138211938092007003+32383-086350SAO  +0053MXF  V02033859003652200019N0192005N9+01505+00785101735ADDGA1001+999999999GA2999+999999999GA3999+999999999GD19005+9999999GD29005+9999999GD39005+9999999GD49999+9999999EQDN01 00900CCLHT 3N02 00000JPWTH 1QNNE11 1 09900E11 1 09900E11 1 09900E11 1 09999G11 3 00900H11U1 00999H11 1 00999H11 1 00999K11 1 00046L11 1 01200N11 1 00000Q11 1 10173S11 1 00059W11 1 18007
0039722860231191938083115004+33900-117250SAO  +0466RIV  V0201401N000512200019N0160001N9+02181+01411101121ADDGA1001+999999999MD1210101+9999MW1001
0051108570999991938051903004+48067+010917FM-12+018999999V0201101N00101220001CN0500001N9+00501+00391101001ADDAY121031GF106991001001999999051071MD1610141+9999
0065035310999991938093013004+52483-001933FM-12+016399999V0202701N002619999999N0010001N9+01221+01171101201ADDGA1011+999999019GF108991081061002501999999MD1810101+9999MW1631
0037077610999991938081606004+41917+008750FM-12+000899999V0209991C00001220001CN0200001N9+01891+99999101371ADDAY111999GF102991011011012501001999
0057105130999991938041115004+50933+007067FM-12+001599999V0200201N00461007801CN0040001N9+00781+99999103681ADDAY121031GF108991061051008001999999MD1810101+9999MW1051
0057103390999991938021215004+52583+010533FM-12+002099999V0202901N004619999999N0040001N9+00221+99999099631ADDAY181999GF107991041091002501999999MD1710201+9999MW1831
0037104000999991938021421004+51283+006767FM-12+001199999V0200501N01231004501CN0040001N9+99999+99999999999ADDAY121031GF108991081051004501999999
0078821910999991938050812004-01467-048450FM-12+001099999V0200501N001019999999N0010001N9+02611+99999101151ADDAA124013091GF107991999999999999999999IA1089KA1999M+03111KA2999N+02281MW1111
0065033790999991938040218004+53033-000500FM-12+006299999V0202301N006719999999N0100001N9+01221+00611100971ADDGA1011+999999019GF108991061051008001071001IA1009MD1810201+9999
0078121070999991938102306004+54283+016117FM-12+999999999V0200901N00461007801CN0200001N9+00281+00061102661ADDAY121999GF106991061051008001001999IA1009EQDQ01+000042APCTENQ02+000022APC3  
0067835870999991938011612004-19933-043933FM-12+091599999V0200501N001019999999N0200001N9+02501+99999999999ADDGF104991999999999999999999IA1009KA1999M+02891KA2999N+02001MW1111
0063859370999991938101212004-52383-068417FM-12+000599999V0209991C000019999999N0200001N9+00721+99999099701ADDAY101999GF108991081041999999999999IA1009MD1810081+9999MW1031
0086838690999991938102712004-26250-050800FM-12+078399999V0203201N006719999999N0100001N9+02221+99999101291ADDGF104991999999999999999999IA1009KA1999M+99999KA2999N+01781MW1111EQDQ01 +02002ATMX  
0057102890999991938012709004+53317+013867FM-12+000899999V0201801N00671004501CN0040001N9+00281+00061099871ADDAY121999GF108991081051004501999999MD1710061+9999MW1051
0037124650999991938112618004+51717+019400FM-12+017699999V0201801N00461220001CN0040001N9+00501-00111102041ADDAY101999GF100991001001999999001999
0051104570999991938051209004+51750+011067FM-12+003899999V0201401N00671220001CN0200001N9+01721-00281102691ADDAY111031GF104991001001999999001021MD1990101+9999
0072167540999991938030612004+35333+025267FM-12+002699999V0203401N00931036001CN0200001N9+01391+99999102261ADDAY111999GF106991041051017501061001EQDQ01+000042APCTENQ02+000022APC3  
0051102460999991938062215004+52933+010183FM-12+002299999V0202901N00461030001CN0100001N9+02611+99999101681ADDAY111999GF106991021081017501061091MD1610061+9999
0073107760999991938110206004+48983+012200FM-12+010199999V0201101N00101001501CN0010001N9+00281+00221101171ADDAA199000591AY151061GF108991081051001501999999IA1089KA1999N+00001MW1551
0037161200999991938011006004+44400+008917FM-12+000299999V0203601N00261004501CN0040001N9+00611+99999099781ADDAY121999GF108991081999004501999999
0009726770240331938122010004+45800-108533SAO  +1088BIL  V0202251N002612200019N0640001N1-00811-01151999999ADDMW1001
0059033110999991938070201004+53317-004617FM-12+000899999V0209991C000019999999N0200001N9+01001+00941101151ADDGA1011+999999019GF101991011021012501061001MD1310061+9999
0051104660999991938041409004+51483+011933FM-12+002499999V0203401N00261030001CN0100001N9+01111+00501101491ADDAY121031GF106991021011012501031999MD1110041+9999
0056021200999991938112912004+66950+017750FM-12+033099999V0202701N00101220001CN0200001N9-00281+99999100341ADDAY111999GF104991999001017501041999EQDQ01+000002SCOTLC
0037013090999991938042406004+61567+004800FM-12+000899999V0200701N00261220001CN0500001N9+00611+99999101871ADDAY101999GF101991001001999999051999
0025722535129091938032703004+29383-098567SAO  +0207SKF  V0201401N006710048019N0192001N9+02241+01961101081ADDGA1081+999999059MW1001
0037154200999991938042618004+44483+026133FM-12+009299999V0200901N00101012301CN0040001N9+01221+99999101371ADDAY121999GF108991081999012501999999
0051106370999991938110509004+50050+008600FM-12+003499999V0202501N00671030001CN0200001N9+01501+01061102081ADDAY121031GF107991041071008001071999MD1210101+9999
0051104880999991938032709004+51133+013767FM-12+007099999V0202901N01231007801CN0200001N9+00281-00281101001ADDAY121031GF106991061081008001001011MD1990021+9999
0009727640240111938102820004+46767-100750SAO  +0506BIS  V0203381N005112200019N0032001N1+01301-00261999999ADDMW1051
0057121860999991938011321004+54033+022517FM-12+005099999V0202001N00931000151CN0002001N9-00221-00221101501ADDAY141999GF109991091999000251999999MD1710161+9999MW1451
0051100050999991938092512004+54017+008250FM-12+999999999V0201401N00461220001CN0040001N9+01781+99999101681ADDAY101999GF102991001001999999001011MD1990041+9999
0080031620999991938071813004+55317-003200FM-12+024299999V0202401N004619999999N0200001N9+01721+01061102041ADDGA1011+999999019GF102991021011012501001011EQDQ01+000032APCTENQ02+000002APC3  
0051103380999991938032900004+52417+009750FM-12+001699999V0202301N00101030001CN0100001N9+00611+00391102331ADDAY121999GF108991041051008001021999MD1810081+9999
0089100100999991938040818004+54550+007883FM-12+999999999V0203201N01231220001CN0200001N9+00391+99999101701ADDAA199000691AY111999GF104991041081008001999999MW1271EQDQ01+000032APCTENQ02+000002APC3  
0076115180999991938051506004+50100+014283FM-12+037199999V0209991C00001220001CN0020001N9+01611+99999101921ADDAY101999GF100991001001999999001001IA1009KA1999N+00891MD1110021+9999MW1051
0009724567139211938040416004+39367-094917SAO  +0238FLV  V0201351N004610126019N0160001N1+01071+00021102001ADDMW1001
0051125000999991938050709004+50900+015783FM-12+010499999V0202901N00261220001CN0100001N9+01221+00061101091ADDAY101999GF102991021011012501001001MD1610141+9999
0043106770999991938111209004+50000+011633FM-12+011399999V0201601N00671004501CN0040001N9+99999+99999999999ADDAY121031GF107991071051004501001999MW1051
0091034970999991938042807004+52583+001733FM-12+000299999V0203601N006719999999N0040001N9+00831+00611101961ADDGA1011+999999019GF107991071051008001001001IA1009KA1999M+01061KA2999N+00781MD1310041+9999
0078265090999991938111118004+55700+021133FM-12+000199999V0201601N00101220001CN0100001N9+00221+00001102601ADDAY101999GF100991001001999999001001IA1009EQDQ01+000032APCTENQ02+000002APC3  
0051102500999991938031115004+53333+011500FM-12+001299999V0203401N01541220001CN0500001N9+00781+99999102741ADDAY101999GF101991011011008001001001MD1210181+9999
0045691174999991938013115004+39833-076117SAO  +0002KQAH V0202931N003110021019N0008001N1+00801+00801101931ADDGA1081+999999059MD1210161+9999MW1451MW2611
0037260630999991938021617004+59983+030283FM-12+000599999V0202901N00261220001CN0100001N9-00221+99999101931ADDAY101999GF100991001999999999999999
0037025920999991938080818004+57367+017100FM-12+000599999V0203601N00101220001CN0200001N9+02221+99999102271ADDAY101999GF100991001001999999001999
0039691174999991938082912004+39833-076117SAO  +0002KQAH V0200451N002612200019N0064001N1+02131+01851102071ADDGA1011+999999049MD1210061+9999MW1051
0057266970999991938082812004+54617+019883FM-12+000699999V0200201N00261220001CN0100001N9+01891+01441101991ADDAY111999GF102991021021004501001001MD1990021+9999MW1051
0082857030999991938032512004-37450-072333FM-12+013099999V0201401N001019999999N0002001N9+00611+99999101531ADDAY101999GF104991999001999999061001IA1009MD1810041+9999MW1021EQDQ01+000002SCOTLC
0043026350999991938022512004+55617+013033FM-12+000699999V0201801N00671220001CN0040001N9+00111+99999103461ADDAY111999GF104991021051004501001999MW1051
0025722536129111938082923004+29533-098283SAO  +0226RND  V0201101N005112200019N0240001N9+03071+02131101661ADDGA1999+012009999MW1001
0065035310999991938102818004+52483-001933FM-12+016399999V0202901N001019999999N0020001N9+00941+00331101601ADDGA1011+999999019GF107991071051004501999999IA1089MD1310041+9999
0025788071999991938010715004+08967-079550SAO  +0012MBLB V0201801N003612200019N0240001N1+99999+99999101191ADDGA1999+004209999MW1001
0009725310148061938072619004+40300-088133SAO  +0228RAN  V0202701N003110090019N0112001N1+03181+02411101461ADDMW1171
0102039520999991938100207004+51800-008250FM-12+000799999V0202801N006719999999N0020001N9+01111+01001100201ADDAA124999999GA1011+999999019GF104991041031004501001051IA1089KA1999M+01611KA2999N+01001MD1310081+9999
0043853220999991938031620004-20450-066800FM-12+367099999V0202301N00261220001CN0500001N9+01281+99999999999ADDAY111999GF102991001999999999999999MW1011
0037105480999991938032606004+50550+010367FM-12+013999999V0202701N00461002401CN0100001N9+99999+99999999999ADDAY121061GF108991081061002501999999
0009725377148041938052916004+42617-082817SAO  +0176MTC  V0201401N004610210019N0128001N9+01961+01521101691ADDMW1001
0051103930999991938100509004+52200+014117FM-12+003299999V0202001N00931220001CN0100001N9+01391+00721101191ADDAY101031GF102991011011008001041001MD1310081+9999
0009749105999991938030707004+40733-073600SAO  +003899999V0202701N001512200019N0160001N1-00151-00981102031ADDMW1001
0102039800999991938012607004+55367-007333FM-12+002699999V0202701N004619999999N0040001N9+00441+00391100691ADDAA124999999GA1011+999999019GF108991061061002501021999IA1089KA1999M+00831KA2999N+00391MD1810121+9999
0051106370999991938080521004+50050+008600FM-12+003499999V0200201N00461220001CN0100001N9+02501+01781101391ADDAY101031GF104991999001999999071001MD1210101+9999
0059035780999991938020213004+52367+000467FM-12+000599999V0202701N009319999999N0100001N9+00781+00391101211ADDGA1011+999999019GF106991061051017501001001MD1310181+9999
0025722535129091938070708004+29383-098567SAO  +0207SKF  V0200901N001512200019N0160001N9+02461+01911101121ADDGA1001+999999999MW1001
0098166720999991938080806004+38617+021400FM-12+003699999V0209991C00001220001CN0100001N9+02501+01781999999ADDAJ100009199999999AY141999GF101991999001999999031001IA1009KA1999N+01781MW1051EQDQ01+000002SCOTLC
0037040970999991938030806004+65267-013583FM-12+000899999V0209991C00001030001CN0200001N9+00111+99999098911ADDAY121061GF108991041051012501071999
0102030260999991938070507004+58217-006333FM-12+000399999V0200501N006719999999N0200001N9+01111+00891100341ADDAA199003091GA1011+999999019GF106991021051008001061061IA1089KA1999M+01331KA2999N+00721MD1310021+9999
0037121450999991938042618004+54517+018550FM-12+001499999V0203601N00261030001CN0100001N9+00611+00221102101ADDAY101999GF106991021071008001041999
0051100440999991938090112004+54483+010283FM-12+999999999V0203201N004619999999N0100001N9+01611+99999101771ADDAY111999GF106991041021008001041041MD1310041+9999
0051103160999991938080506004+53183+008017FM-12+000399999V0200701N00671220001CN0200001N9+02001+99999101891ADDAY101999GF101991001001999999001011MD1610041+9999
0076101620999991938042606004+53617+011383FM-12+001499999V0200201N00261220001CN0100001N9+00721+99999102071ADDAY111999GF106991041001022501081011IA1009KA1999N+00221MD1310141+9999MW1051
0057103410999991938051915004+51933+010433FM-12+007999999V0202501N00261004501CN0040001N9+01111+00671100811ADDAY161999GF108991061091004501021999MD1710041+9999MW1051
0078103370999991938121109004+52150+009750FM-12+002799999V0201801N00261220001CN0040001N9+00611+99999100971ADDAY111999GF104991001001999999071051MW1051EQDQ01+000042APCTENQ02+000202APC3  
0037103820999991938082209004+52467+013133FM-12+001499999V0202901N00261075001CN0200001N9+01721+01061101891ADDAY121999GF106991041011008001001021
0037020500999991938032718004+68417+018117FM-12+050899999V0209991C00001220001CN0500001N9-01721+99999100841ADDAY111999GF101991011051002501001999
0057104530999991938121309004+51800+010617FM-12+034899999V0200701N00461220001CN0500001N9+00891-00221100161ADDAY121031GF107991001001999999031021MD1310061+9999MW1121
0068100200999991938110418004+55017+008433FM-12+999999999V0202901N009319999999N0040001N9+01221+99999100241ADDAA199002091AY151999GF108991021051002501999999IA1089MD1210301+9999
0043803360999991938080613004+01800-078767FM-12+000399999V0200501N001019999999N0500001N9+02501+99999101601ADDAY121999GF106991041999012501999999MW1021
0029710934999991938031101004+66133-065750FM-12+001399999V0209991C000019999999N0500001N9-03281+99999999999ADDGF106991001999999999999999
0057124000999991938072609004+51917+015500FM-12+004599999V0201801N00101220001CN0100001N9+02611+01611101591ADDAY101999GF100991001001999999001001MD1990061+9999MW1051
0037121120999991938042106004+54167+017500FM-12+003899999V0203201N00671012301CN0100001N9+99999+99999999999ADDAY121999GF106991061041012501001999
0059037030999991938092513004+51017-004533FM-12+009199999V0202701N004619999999N0200001N9+01721+01441101071ADDGA1011+999999019GF104991041021004501061051MD1310021+9999
0076107280999991938111406004+49567+008467FM-12+002999999V0201801N00261220001CN0040001N9+00891+00671102911ADDAY111061GF106991001001999999001061IA1089KA1999N+00721MD1310081+9999MW1051
0037012620999991938040518004+64800+010550FM-12+003799999V0202501N00461030001CN0500001N9+00221+99999099781ADDAY121999GF108991041051004501021999
0023749105999991938123109004+40733-073600SAO  +003899999V0203601N001510024019N0032001N1-00481-00871102541ADDMD1310041+9999MW1711
0037024180999991938100718004+59383+013500FM-12+005399999V0202001N00671007801CN0500001N9+01111+99999099951ADDAY111999GF108991081051008001999999
0037070070999991938012506004+50867+001750FM-12+012399999V0202301N01541002401CN0040001N9+00501+99999102511ADDAY111999GF107991071051002501999999
0037104980999991938030906004+50900+014817FM-12+008499999V0202701N00671220001CN0200001N9+99999+99999999999ADDAY111061GF107991001001999999071999
0037010050999991938062406004+78067+013633FM-12+000899999V0200901N00461220001CN0500001N9+00391+99999101231ADDAY121999GF100991001001999999001999
0057101470999991938050603004+53633+010000FM-12+000599999V0202901N00671002401CN0040001N9+00611+00391101301ADDAY121999GF108991081051002501999999MD1810081+9999MW1051
0037133630999991938070618004+43350+019367FM-12+076999999V0209991C00001220001CN0200001N9+02281+01331101811ADDAY101999GF104991041021017501001999
0057124250999991938122712004+51133+016967FM-12+003799999V0201801N00261220001CN0040001N9-00611-00941101411ADDAY121999GF108991001001999999011999MD1710341+9999MW1051
0051104990999991938070709004+51150+014950FM-12+007299999V0202301N00261220001CN0200001N9+02001+01061102371ADDAY111031GF104991041011012501001001MD1810031+9999
0009726770240331938061119004+45800-108533SAO  +1088BIL  V0203601N001512200019N0960001N1+01131+00351999999ADDMW1001
0037165970999991938011512004+35900+014517FM-12+008599999V0201801N00671220001CN0200001N9+01391+99999102351ADDAY111999GF104991041999008001999999
0057101310999991938101418004+53867+008717FM-12+000199999V0202701N015419999999N0040001N9+01391+01171101361ADDAY121999GF107991071999999999999999IA1009MD1310181+9999
0087107630999991938110218004+49483+011100FM-12+009699999V0202501N00261220001CN0040001N9+00611+00391101221ADDAA199000591AY161061GF100991001001999999001001IA1089KA1999M+01001MD1310241+9999MW1051
0037121120999991938040506004+54167+017500FM-12+003899999V0202001N00461004501CN0100001N9+99999+99999999999ADDAY121999GF108991081061004501999999
0108101220999991938082206004+53533+007883FM-12+000299999V0201801N00101030001CN0100001N9+01001+99999101621ADDAA199000691AY121999GF106991041081008001051091IA1089KA1999N+00721MW1251EQDQ01+000042APCTENQ02+000062APC3  
0057103870999991938031409004+52533+013117FM-12+001099999V0202501N00101220001CN0040001N9+00781+00171103231ADDAY101031GF100991001001999999001001MD1010101+9999MW1051
0078167460999991938021906004+35500+024033FM-12+006399999V0202301N00101090001CN0200001N9+00611+99999101671ADDAY111999GF106991011071012501051041IA1009EQDQ01+000032APCTENQ02+000002APC3  
0043026350999991938011018004+55617+013033FM-12+000699999V0201101N00461007801CN0040001N9+00111+99999098881ADDAY121999GF108991061051008001071999MW1051
0057101470999991938111821004+53633+010000FM-12+000599999V0201801N00261000601CN0010001N9+00721+00671102031ADDAY121999GF108991081051000751999999MD1810221+9999MW1101
0025691174999991938010223004+39833-076117SAO  +0002KQAH V0203601N002610105019N1600001N1+00461+00081101861ADDGA1081+999999059MW1001
0024990061999991938032919004+62000-033000SAO  +00004YA  V02099999999999999999N0000001N1+02021+01191999999ADDMA1999999101351MW1001
0065035780999991938090218004+52367+000467FM-12+000599999V0203001N002619999999N0100001N9+01391+00721101941ADDGA1011+999999019GF104991011011017501061011IA1009MD1310061+9999
0009723030137141938020222004+35183-079017SAO  +0064POB  V0200501N002112200019N0160001N9+01191+00021103391ADDMW1001
0037124900999991938012818004+51550+021850FM-12+012199999V0209991C00001220001CN0040001N9+00001-00331100881ADDAY111999GF100991001001999999001999
0093859670999991938031112004-55150-067483FM-12+000899999V0203601N009319999999N0010001N9+00721+99999098601ADDAA124003091AY101999GF106991999001999999041001IA1009MD1310221+9999MW1021EQDQ01+000002SCOTLC
0051100060999991938052212004+54600+011150FM-12+999999999V0200901N01231220001CN0200001N9+00891+99999102831ADDAY111999GF104991011071012501051061MD1990021+9999
0102036280999991938112507004+51517-002583FM-12+006499999V0202401N009319999999N0200001N9+00781+00671100401ADDAA199004091GA1011+999999019GF104991021051004501011081IA1089KA1999M+00891KA2999N+00281MD1810201+9999
0037040300999991938021206004+64150-021950FM-12+001699999V0209991C00001220001CN0500001N9-00281+99999103431ADDAY101061GF101991001001999999041999
0051104160999991938121612004+51533+007583FM-12+002199999V0200901N00931220001CN0100001N9+00111-00221102451ADDAY121061GF104991041051017501001001MD1110081+9999
0041724338138021938061620004+38550-089983SAO  +0134BLV  V0203601N001512200019N0240001N9+02801+01301999999ADDGA1041+018009039GA2031+999999029MW1001
0057101730999991938033009004+54267+012417FM-12+000199999V0202701N01541001501CN0020001N9+00891+00831101011ADDAY161999GF108991081051001501999999MD1210041+9999MW1601
0009726980242291938022114004+45600-122650SAO  +0012PDX  V0201351N001510021019N0032001N1+00521+00521999999ADDMW1451
0070104820999991938120115004+51300+013550FM-12+003899999V0201801N00261220001CN0100001N9+00501+00111100841ADDAY121031GF102991021051012501031001IA1009KA1999M+00891MD1310021+9999
0037043390999991938011212004+70483-021967FM-12+007099999V0209991C00001004501CN0100001N9-01281+99999098721ADDAY121061GF107991071051004501999999
0043269390999991938080218004+53017+025750FM-12+017699999V0201401N00261007801CN0100001N9+02611+02331102031ADDAY111999GF108991061031008001999999MW1171
0106066600999991938052306004+47383+008550FM-12+049399999V0209991C00001004501CN0020001N9+00891+99999101881ADDAA199001091AY121999GF108991081051004501999999IA1089KA1999N+00391MD1210021+9999MW1051EQDQ01+001402WODIR 
0037029110999991938051118004+63083+021617FM-12+000999999V0202301N01231007801CN0100001N9+00501+99999101021ADDAY121999GF108991071051008001011999
0037040630999991938042106004+65683-018083FM-12+000799999V0201801N00461220001CN0500001N9+00781+99999101711ADDAY121061GF107991001001999999071999
0037012620999991938121606004+64800+010550FM-12+003799999V0201401N00931220001CN0500001N9+00281+99999103231ADDAY111999GF101991011001999999011999
0059034970999991938082013004+52583+001733FM-12+000299999V0202501N006719999999N0100001N9+01831+00611100431ADDGA1011+999999019GF106991021011008001031001MD1310101+9999
0009745700138401938030607004+39833-084050SAO  +0254FFO  V0200201N008210120019N0128001N9-00091-00421101221ADDMW1001
0037020180999991938071806004+67533+018233FM-12+041599999V0201401N01231007801CN0200001N9+01391+99999101671ADDAY151999GF106991061071008001999999
0051100050999991938060118004+54017+008250FM-12+999999999V0200701N00101012301CN0200001N9+01281+99999101111ADDAY121999GF107991071001012501031999MD1810061+9999
0043122500999991938111418004+53033+018567FM-12+004799999V0201601N00101220001CN0020001N9+00781+00721102871ADDAY141999GF104991041051002501999999MW1051
0009727640240111938013007004+46767-100750SAO  +0506BIS  V0202931N006712200019N0192001N1-02701-03141999999ADDMW1001
0057100010999991938010212004+53600+006700FM-12+000499999V0202001N002619999999N0020001N9-00111-00111102781ADDAY171999GF108991081999999999999999MD1110021+9999MW1711
0057265120999991938021609004+54950+120250FM-12+000799999V0202001N00101220001CN0020001N9-00501-00671103261ADDAY101999GF100991001001999999001001MD1310061+9999MW1051
0061836480999991938032012004-20150-040333FM-12+003699999V0203201N004619999999N0040001N9+03001+99999101321ADDGF102991999999999999999999KA1999M+03001KA2999N+02391MW1111
0037167540999991938092318004+35333+025267FM-12+002699999V0203601N00261220001CN0500001N9+99999+99999101571ADDAY111999GF102991021021017501061999
0052837460999991938102712004-22450-042933FM-12+087799999V0203601N001019999999N0100001N9+02001+99999101541ADDAA124007091IA1089KA1999M+02501KA2999N+01781MW1111
0076100320999991938032206004+54783+009433FM-12+004299999V0202301N00101220001CN0020001N9+00501+99999101281ADDAY131999GF100991001001999999001001MD1310061+9999MW1051EQDQ01+000012SCOHCG
0061822800999991938091312004-02533-044283FM-12+003399999V0200501N004619999999N0040001N9+02891+99999101391ADDGF104991999999999999999999KA1999M+03001KA2999N+02391MW1111
0037075100999991938072406004+44833-000700FM-12+004899999V0202701N00101007801CN0100001N9+01781+99999101621ADDAY121999GF108991071051008001999999
0070104880999991938050318004+51133+013767FM-12+007099999V0200901N00461220001CN0500001N9+01001-00391101941ADDAY111061GF101991011011012501001011IA1009KA1999M+01281MD1210071+9999
0043030910999991938051812004+57167-002100FM-12+002499999V0203601N00461007801CN0200001N9+00891+99999101411ADDAY181999GF107991071081008001999999MW1251
0071036280999991938020718004+51517-002583FM-12+006499999V0209991C000019999999N0020001N9+00501+00391102781ADDGA1011+999999019GF107991071051012501001001IA1089MD1810041+9999MW1051
0025722485139441938072602004+32500-093683SAO  +0053BAD  V0203201N001012200019N0160001N9+02521+02351101351ADDGA1031+999999039MW1001
0037029110999991938110112004+63083+021617FM-12+000999999V0202001N00461004501CN0100001N9+00611+99999100141ADDAY121999GF107991071091004501001999
0051116430999991938050103004+50750+015733FM-12+049199999V0200901N00261000151CN0000001N9+00001+00001098301ADDAY151999GF109991091999000251999999MD1610081+9999
0039725377148041938040715004+42617-082817SAO  +0176MTC  V0200501N012312200019N0240001N9+00241-00311102811ADDGA1001+999999999MD1210061+9999MW1001
0063101130999991938022618004+53700+007150FM-12+000499999V0201801N00461220001CN0040001N9+00611+00391102301ADDAY121999GF108991001001999999071999IA1009MD1610081+9999MW1051
0009722860231191938091507004+33900-117250SAO  +0466RIV  V0200901N001012200019N0160001N9+02411+01021101191ADDMW1001
0078828930999991938112212004-08883-036517FM-12+084899999V0201401N004619999999N0020001N9+01891+99999101361ADDAA124063091GF106991999999999999999999IA1089KA1999M+02501KA2999N+01611MW1111
0043167430999991938030218004+36133+023000FM-12+018499999V0209991C00001220001CN0500001N9+01001+99999102241ADDAY111999GF101991011041999999001001IA1009
0024990061999991938081321004+62000-033000SAO  +00004YA  V02099999999999999999N0000001N1+02571+02351999999ADDMA1999999100201MW1001
0056023240999991938060106004+62050+014417FM-12+036399999V0209991C00001220001CN0500001N9+01111+99999100301ADDAY111999GF101991011021004501001999EQDQ01+003602WODIR 
0043840450999991938090317004-00150-078483FM-12+281899999V0201401N00261220001CN0500001N9+02111+99999102801ADDAY101999GF104991041999012501999999MW1011
0187722265138211938102401003+32383-086350SAO  +0053MXF  V02013559002650091449N0080005N9+01675+01285101495ADDGA1999+999999999GD19999+9999999GD29999+9999999MW1045EQDN01 08200JPWTH 1QNNE11 1 09999E11 1 09999G11 1 00030H11U1 99999K11 1 00055L11 1 00500N11 1 08200Q11 1 10149S11 1 00062W11 1 44005
0065036550999991938050818004+51933-001250FM-12+012899999V0202301N002619999999N0100001N9+01171-00281102111ADDGA1011+999999019GF104991041041012501001001IA1009MD1810061+9999
0065037460999991938101918004+51167-001750FM-12+012699999V0202701N001019999999N0100001N9+01061+00831102561ADDGA1011+999999019GF107991011051008001041061IA1009MD1310161+9999
0037153120999991938022118004+45367+028833FM-12+002999999V0203201N00101220001CN0200001N9-00111-00611102041ADDAY111999GF104991041041001501001999
0025724050137431938120617004+38850-077033SAO  +0020DCA  V0202701N008212200019N0160001N1+01131+00131099761ADDGA1999+010509999MW1001
0063010010999991938102506004+70983-008333FM-12+002399999V0203601N00261000151CN0020001N9+00221+99999098091ADDAY121999GF108991081051000251999999IA1009MD1310121+9999MW1051
0067837740999991938081512004-23967-048867FM-12+019799999V0209991C000019999999N0100001N9+01501+99999101891ADDGF100991999999999999999999IA1009KA1999M+02501KA2999N+00391MW1051
0039724338138021938082609004+38550-089983SAO  +0134BLV  V0209991C000012200019N0240001N9+02021+01741101351ADDGA1001+999999999MD1610061+9999MW1001
0043021960999991938100112004+65833+024150FM-12+000999999V0201801N00461000151CN0000501N9+01001+99999102101ADDAY141999GF109991091999999999999999MW1431
0037040300999991938041406004+64150-021950FM-12+001699999V0202001N00931007801CN0100001N9+00281+99999101581ADDAY181061GF108991081051008001999999
0037152000999991938102706004+46183+021317FM-12+011399999V0201401N00461012301CN0100001N9+00891+00441100871ADDAY121999GF108991081051012501001999
0037104500999991938030312004+51367+011100FM-12+004399999V0203601N00671004501CN0040001N9+99999+99999999999ADDAY121061GF107991071051004501001999
0065827980999991938100112004-07100-034867FM-12+004799999V0200901N002619999999N0100001N9+02721+99999101631ADDAA124000391GF103991999999999999999999IA1089KA1999M+02781MW1111
0051267020999991938111700004+54733+020567FM-12+000999999V0203201N00261012301CN0100001N9+00721+00331102211ADDAY121999GF108991081051012501999999MD1990101+9999
