0031745980137021939112017004+37083-076350SAO  +0002LFI  V0203601N015410018019N0032001N9+00851+00741101591ADDGA1081+999999079MW1451MW2511
0037122110999991939111809004+53767+015783FM-12+002799999V0203201N00671002401CN0040001N9+99999+99999999999ADDAY121999GF107991071091002501001999
0104066800999991939022606004+47250+009333FM-12+250199999V0202301N00671024001CN0500001N9-00501+99999999999ADDAY111999GF108991999999999999071999IA1319KA1999N-00611MA1999999074851MD1710041+9999EQDQ01+000092SCOTLC
0057107630999991939051521004+49483+011100FM-12+009699999V0201401N00101220001CN0040001N9+00891+00781100821ADDAY111031GF101991011051012501001001MD1310021+9999MW1051
0040719164999991939102406004+63333-090717FM-12+000499999V02099999999999999999N9999999N9+99999+99999999999ADDAA124009091KA1999M-00671KA2999N-01781
0041722485139441939072907004+32500-093683SAO  +0053BAD  V0201401N001512200019N0192001N9+02351+02181101191ADDGA1031+012009059GA2051+999999049MW1611
0076103520999991939121718004+52533+013017FM-12+001399999V0200901N00461220001CN0040001N9-00611-00941103061ADDAY101999GF100991001001999999001999IA1139KA1999M-00281MD1110021+9999MW1051
0043117240999991939120209004+50100+016683FM-12+016099999V0202701N00261030001CN0100001N9+99999+99999999999ADDAY161999GF108991041051002501021999MW1501
0043875000999991939082713004-35117-069567FM-12+152499999V0209991C000019999999N0500001N9+00501+99999999999ADDAY121999GF108991041999008001999999MW1031
0037085360999991939042018004+38733-009183FM-12+022799999V0200701N00461220001CN0200001N9+01781+99999101881ADDAY101999GF100991001001999999001999
0057121600999991939082009004+54150+019433FM-12+000299999V0202001N00101220001CN0100001N9+02891+01561101811ADDAY101999GF100991001001999999001001MD1810021+9999MW1051
0059030910999991939022613004+57167-002200FM-12+007199999V0202601N006719999999N0200001N9+00671-00171099401ADDGA1011+999999019GF106991041011004501061031MD1310021+9999
0057108690999991939022309004+48317+011933FM-12+014199999V0200501N00261220001CN0040001N9+00001-00331100781ADDAY121031GF102991001001999999021051MD1710091+9999MW1051
0025722535129091939021102004+29383-098567SAO  +0207SKF  V0200501N004112200019N0112001N9+00961-00311102131ADDGA1001+999999999MW1001
0041742070242011939071015004+47083-122617SAO  +0095GRF  V0202701N002612200019N1600001N9+01241+01021101731ADDGA1999+003609999GA2999+999999049MW1001
0065035310999991939020813004+52483-001933FM-12+016399999V0201801N004619999999N0010001N9+01061+01001102131ADDGA1011+999999019GF108991081051000751999999MD1810121+9999MW1101
0089131500999991939032118004+45150+018017FM-12+009099999V0209991C00001220001CN0100001N9+00111-00221100191ADDAY121999GF108991001001999999021999IA1109KA1999M+00391MD1610141+9999EQDQ01+002302WODIR 
0009722860231191939020305004+33900-117250SAO  +0466RIV  V0201401N001012200019N0160001N9+00301-00261102171ADDMW1001
0057116030999991939040815004+50767+015067FM-12+038799999V0203201N00671000601CN0010001N9+00611+99999101581ADDAY151999GF108991081051000751999999MD1310021+9999MW1201
0074101810999991939031906004+54367+013083FM-12+000299999V0202301N00671000151CN0010001N9-00281-00391100831ADDAA199000691AY171999GF109991091999999999999999IA1159MD1810261+9999MW1731
0025722535129091939020408004+29383-098567SAO  +0207SKF  V0200501N001512200019N0240001N9+00021-00311102171ADDGA1061+999999039MW1001
0051104070999991939102109004+51183+006400FM-12+002499999V0203401N00461030001CN0200001N9+00721+99999102171ADDAY101031GF106991041051008001041999MD1310101+9999
0051122320999991939112015004+53117+017967FM-12+002199999V0209991C00001220001CN0200001N9+00001-00221102341ADDAY111999GF102991021051012501001001MD1310301+9999
0039722535129091939052215004+29383-098567SAO  +0207SKF  V0201401N005112200019N0192001N9+02741+02021101221ADDGA1051+999999029MD1110141+9999MW1001
0037406370999991939052806004+34300+045433FM-12+006199999V0200501N00101036001CN0500001N9+03001+99999100891ADDAY161999GF106991021051017501011999
0057105150999991939121312004+50350+007567FM-12+005399999V0200701N00101004501CN0040001N9+00111+99999101981ADDAY171061GF108991081051004501999999MD1810201+9999MW1701
0057105540999991939112309004+50967+010967FM-12+009899999V0201801N00261220001CN0040001N9-00221-00391102991ADDAY101031GF102991001001999999001051MD1310021+9999MW1051
0009788078999991939021116004+08383-080133SAO  +0031MPRH V0200231N007212200019N0240001N1+99999+99999101421ADDMW1001
0076112310999991939091006004+46667+014333FM-12+044899999V0209991C00001220001CN0040001N9+01111+99999102161ADDAY101061GF100991001001999999001001IA1009KA1999N+00721MD1310041+9999MW1051
0025725115147111939101711004+40200-076767SAO  +0097MDT  V0202931N004612200019N0064001N1+00581+00351101901ADDGA1031+999999049MW1111
0051102890999991939041215004+53317+013867FM-12+000899999V0202001N00101220001CN0100001N9+02111+00061101751ADDAY101999GF101991001001999999001011MD1810201+9999
0041788071999991939062315004+08967-079550SAO  +0012MBLB V0202701N002112200019N0128001N1+99999+99999101051ADDGA1031+006009059GA2051+999999049MW1001
0043104340999991939021012004+51533+009017FM-12+006199999V0202501N01231007801CN0020001N9+99999+99999999999ADDAY161061GF108991081061008001999999MW1611
0062167380999991939041106004+36767+024417FM-12+018099999V0203601N00101220001CN0100001N9+01501+99999101221ADDAY111999GF107991999001999999081001IA1009EQDQ01+000002SCOTLC
0000911820225211939081503004+21333-157950SAO  +0011PHNL V0200501N011310105019N0240001N9+02681+01961101321
0037122720999991939091012004+53767+020417FM-12+004199999V0202701N00461030001CN0100001N9+99999+99999999999ADDAY121999GF106991041021008001051999
0066066800999991939061012004+47250+009333FM-12+250199999V0202301N004619999999N0005001N9+01221+99999999999ADDAY111999GF106991061021999999999999MA1999999075541MD1010001+9999
0057121150999991939030709004+54583+016850FM-12+000499999V0202501N00461001501CN0020001N9+00391+00281100501ADDAY161999GF108991071051001501999999MD1610061+9999MW1601
0043840450999991939081217004-00150-078483FM-12+281899999V0201401N01231220001CN0500001N9+02111+99999103591ADDAY101999GF102991021999022501999999MW1001
0051106530999991939052509004+49650+009967FM-12+008599999V0203601N00261002401CN0100001N9+00891+00671101981ADDAY161031GF108991081051002501999999MD1610021+9999
0009911800999991939080721004+21333-157950SAO  +0009PHIK V0200451N004610090019N0240001N1+02801+01801101731ADDMW1001
0037104740999991939082212004+51850+012650FM-12+002099999V0201101N00261220001CN0100001N9+99999+99999999999ADDAY101061GF101991001001999999001999
0025725377148041939070104004+42617-082817SAO  +0176MTC  V0202701N001512200019N1600001N9+01801+01351100911ADDGA1001+999999999MW1001
0057104190999991939111609004+51217+007633FM-12+013699999V0202501N00931001501CN0200001N9+00611+99999101301ADDAY161031GF108991081061001501999999MD1210061+9999MW1211
0074855850999991939101012004-33600-078850FM-12+000699999V0202301N001019999999N0040001N9+01281+99999102331ADDAA124004091AY101999GF107991041081999999071001IA1089MD1310081+9999MW1021
0070103390999991939102518004+52583+010533FM-12+002099999V0209991C00001030001CN0200001N9+00391+99999100551ADDAY121999GF108991021051008001011999IA1009KA1999M+00721MD1210041+9999
0039723550139451939112709004+34650-098383SAO  +0360FSI  V0203601N001010120019N0128001N9+00581+00191103691ADDGA1081+999999059MD1310041+9999MW1001
0081124150999991939120606004+51200+016083FM-12+003899999V0203601N00101001501CN0005001N9+00221+00171100181ADDAA199004091AY161999GF108991081051001501999999IA1089KA1999N+00001MD1210021+9999
0069787930999991939071412004+08383-082450FM-12+001999999V0202301N001019999999N0500001N9+02561+99999999999ADDAA124001091AY121999GF106991999999999999999999MA1999999101221MW1021
0057101930999991939091412004+53800+013700FM-12+000599999V0202001N00671075001CN0040001N9+02001+01331100261ADDAY121999GF108991041021008001001071MD1810021+9999MW1051
0023724050137431939103000004+38850-077033SAO  +0020DCA  V0201351N004612200019N0160001N1+00691+00021102371ADDMD1110041+9999MW1001
0041723030137141939032620004+35183-079017SAO  +0064POB  V0202301N004612200019N0096001N9+02521+00911101421ADDGA1021+018009049GA2061+999999019MW1051
0070107320999991939112118004+49400+008733FM-12+017299999V0200701N00461007801CN0040001N9-00221-00561103541ADDAY121061GF106991061051008001001001IA1139KA1999M+00281MD1310021+9999
0056166750999991939012712004+38900+022433FM-12+999999999V0201401N00101220001CN0200001N9+01221+99999999999ADDAY121999GF108991999001999999071001EQDQ01+000002SCOTLC
0025723030137141939061910004+35183-079017SAO  +0064POB  V0203601N001010009019N0004001N9+02131+02131101631ADDGA1081+999999079MW1451
0076112310999991939090506004+46667+014333FM-12+044899999V0200901N00261012301CN0040001N9+01891+99999101441ADDAY121061GF107991061051012501071999IA1009KA1999N+01501MD1610021+9999MW1051
0055723030137141939081518004+35183-079017SAO  +0064POB  V0202301N003110105019N0192001N9+03181+02071101661ADDGA1051+999999089GA2021+999999009MD1610141+9999MW1001
0051109720999991939052612004+47883+011983FM-12+014899999V0209991C00001007801CN0200001N9+01391+00501102071ADDAY121999GF108991061071008001021999MD1810041+9999
0057103200999991939080606004+51933+008317FM-12+002199999V0202901N004619999999N0040001N9+01281+99999100831ADDAY161999GF108991041061002501999999MD1210101+9999MW1631
0009724956232111939101707004+38067-122517SAO  +0003SRF  V0202251N000512200019N1600001N1+01071+00851101931ADDMW1001
0025749105999991939062904004+40733-073600SAO  +003899999V0202031N006210105019N0192001N1+02071+01691101961ADDGA1061+999999059MW1001
0290722265138211939082321003+32383-086350SAO  +0053MXF  V02013559001552200019N0240005N9+03005+02225101495ADDGA1031+012194084GA2021+999999044GD19035+9999999GD29025+9999999GD39999+9999999GD49999+9999999MD1710101+9999EQDN01 00800CCLHT 3N02 00000JPWTH 1QNNE11 1 09904E11 1 09902E11 1 09999E11 1 09999G11 3 00800H11 1 11040H11 1 21999K11 1 00072L11 1 01500N11 1 00000Q11 1 10149S11 1 00086W11 1 44003
0112038280999991939031407004+50483-004100FM-12+019899999V0203201N002619999999N0200001N9+00831+00611103561ADDGA1011+999999019GF106991041051008001071001IA1089KA1999M+01001KA2999N+00671EQDQ01+000032APCTENQ02+000002APC3  
0084856570999991939061112004-35833-071583FM-12+015799999V0209991C000019999999N0000001N9+00221+99999101571ADDAY101999GF108991081051999999999999IA1009MW1401EQDQ01+000032APCTENQ02+000002APC3  
0025788078999991939040516004+08383-080133SAO  +0031MPRH V0201801N003112200019N0320001N1+99999+99999101251ADDGA1999+010509999MW1001
0023724567139211939012300004+39367-094917SAO  +0238FLV  V0202701N001512200019N0240001N1-00871-01811103011ADDMD1710141+9999MW1001
0041724338138021939111113004+38550-089983SAO  +0134BLV  V0209991C000012200019N0048001N9-00041-00151103011ADDGA1021+999999999GA2001+999999999MW1111
0043102700999991939090300004+52917+012800FM-12+001499999V0200601N00461220001CN0040001N9+99999+99999999999ADDAY101999GF102991001001999999041999MW1051
0071037950999991939011918004+51083+001017FM-12+010499999V0202501N004619999999N0020001N9+00721+00501101161ADDGA1011+999999019GF102991021051012501001001IA1089MD1310101+9999MW1051
0043104980999991939111412004+50900+014817FM-12+008499999V0202301N00261002401CN0020001N9+99999+99999999999ADDAY121061GF108991081051002501999999MW1051
0057108354999991939082412004+48717+009700FM-12+011599999V0202901N00101220001CN0100001N9+02611+01611101351ADDAY111061GF104991041021008001001001MD1810121+9999MW1051
0041745980137021939102619004+37083-076350SAO  +0002LFI  V0202301N006712200019N0240001N9+02801+01691101811ADDGA1031+024009039GA2011+999999029MW1001
0051103120999991939060512004+51933+007650FM-12+001799999V0200501N00461220001CN0200001N9+02721+99999102341ADDAY111999GF102991001001999999001051MD1810081+9999
0043841290999991939070113004-02167-079867FM-12+000399999V0209991C00001220001CN0500001N9+99999+99999101591ADDAY121999GF104991041999008001999999MW1011
0025724550139471939030713004+39050-096767SAO  +0324FRI  V0202301N002612200019N0160001N9+00351-00481102401ADDGA1001+999999999MW1001
0057105500999991939032309004+50967+010750FM-12+009199999V0202701N00261220001CN0200001N9+00391+00001099691ADDAY101031GF104991041021012501061011MD1110101+9999MW1051
0095107760999991939112206004+48983+012200FM-12+010199999V0203601N00101012301CN0040001N9-00111-00281103431ADDAY101061GF107991071051012501999999IA1139KA1999N+99999MD1310011+9999MW1051EQDQ01 +00282ATMN  
0089877900999991939102712004-40783-062967FM-12+003499999V0201801N00101220001CN0100001N9+01501-00061101621ADDAY101999GF100991001001999999001001IA1009KA1999M+02111KA2999N+01001MD1110201+9999MW1001
004594999900073193910030500N-16270+133380AUST +0214     V0200685N004659999999N999999999+03645+99999999999ADDGA1005+999999999GF108995004999999999999999
0057103280999991939101509004+51950+008917FM-12+005899999V0202501N00931004501CN0200001N9+01391+99999099831ADDAY151999GF107991061081004501999999MD1210261+9999MW1201
0025724338138021939110517004+38550-089983SAO  +0134BLV  V0202301N004612200019N0160001N9+01071-00481102681ADDGA1001+999999999MW1001
0067828930999991939091312004-08883-036517FM-12+084899999V0200901N002619999999N0200001N9+02001+99999101561ADDGF106991999999999999999999IA1009KA1999M+02281KA2999N+01611MW1111
0051105550999991939073112004+50950+011250FM-12+009399999V0202701N00671220001CN0500001N9+02281+01611101511ADDAY181061GF104991021021008001041041MD1210141+9999
0057156310999991939070412004+42617+025400FM-12+038799999V0203201N00261007801CN0200001N9+02111+99999101791ADDAY161999GF107991061051008001051001MD1990061+9999MW1211
0057115440999991939101409004+49467+017133FM-12+021999999V0202001N00461001501CN0040001N9+01221+99999100361ADDAY161999GF108991061061001501021999MD1710061+9999MW1051
0025724050137431939061616004+38850-077033SAO  +0020DCA  V0202701N005712200019N0240001N1+03291+02131101591ADDGA1031+012009089MW1001
0057108460999991939050315004+48933+010550FM-12+013399999V0200501N00261002401CN0040001N9+00781+00671100701ADDAY161031GF108991081051002501999999MD1310101+9999MW1611
0023724956232111939120915004+38067-122517SAO  +0003SRF  V0202031N008710048019N0048001N1+01571+01461101491ADDMD1810021+9999MW1511
0051107260999991939021406004+49500+010967FM-12+009299999V0203201N00461220001CN0200001N9-00111-00111999999ADDAY111061GF104991021051008001041011MD1510201+9999
0074167460999991939112306004+35500+024033FM-12+006399999V0202301N00261012301CN0200001N9+01391+99999101911ADDAA199000391AY161999GF107991071051012501041001IA1089MD1210101+9999MW1211
0057112310999991939111412004+46667+014333FM-12+044899999V0209991C00001220001CN0020001N9+00891+99999102181ADDAY121061GF104991041051004501001999MD1990141+9999MW1051
0009726980242291939123019004+45600-122650SAO  +0012PDX  V0203151N002610012019N0008001N1+00521+00521999999ADDMW1451
0051115670999991939081415004+50117+014533FM-12+028399999V0203601N00261030001CN0200001N9+01891+99999102111ADDAY121999GF107991021021012501061061MD1710081+9999
0091133760999991939090406004+43733+020717FM-12+023499999V0202301N00261012301CN0040001N9+01781+01561101721ADDAY121999GF108991081051012501999999IA1009KA1999N+01111EQDQ01+000032APCTENQ02+000002APC3  
004594637099999193908070700N-30780+121470AUST +0360YPKG V0202255N006759999999N999999999+99999+99999999999ADDGA1015+015005999GF101995014999015005999999
0087116430999991939081018004+50750+015733FM-12+049199999V0203201N00671000151CN0000001N9+00781+00721104341ADDAA199000691AY141999GF109991091999000251999999IA1009KA1999M+00891MD1310081+9999MW1411
0043840450999991939102017004-00150-078483FM-12+281899999V0203601N002619999999N0500001N9+01781+99999103991ADDAY111999GF107991041999008001999999MW1021
0025749105999991939042216004+40733-073600SAO  +003899999V0202481N007210180019N0128001N1+01571+00461102031ADDGA1061+999999059MW1001
0025742070242011939042016004+47083-122617SAO  +0095GRF  V0209991C000012200019N0016001N9+01191+00851101961ADDGA1001+999999999MW1051
0051105540999991939022612004+50967+010967FM-12+009899999V0202001N01231030001CN0200001N9+00611+00221101351ADDAY121061GF107991041051004501071081MD1710021+9999
0051112040999991939013012004+46750+012750FM-12+067099999V0201401N00101220001CN0200001N9-00111+99999096431ADDAY121061GF107991001001999999051071MD1990041+9999
0050722535129091939070112004+29383-098567SAO  +0207SKF  V0200901N002112200019N0240001N9+02301+02071101491ADDAA124999999GA1021+999999039MD1110061+9999MW1001
0039725377148041939122806004+42617-082817SAO  +0176MTC  V0200501N008710045019N1600001N9-00981-01481101961ADDGA1081+999999059MD1210101+9999MW1001
004594374099999193908090500N-23380+150470AUST +0014YBRK V0202705N004659999999N999999999+02225+99999999999ADDGA1005+999999999GF101995004999999999999999
0087107280999991939010906004+49567+008467FM-12+002999999V0201801N00461036001CN0040001N9+00281+00171102111ADDAA199000591AY161061GF107991041051008001071999IA1089KA1999N+00281MD1610061+9999MW1051
0057101800999991939092015004+54350+012733FM-12+000199999V0200501N00101012301CN0100001N9+01501+01391102081ADDAY121999GF108991061051012501071999MD1010041+9999MW1051
0051101200999991939050203004+54183+007883FM-12+001599999V0200701N00931004501CN0100001N9+00611+00391101361ADDAY161999GF108991081051004501999999MD1810021+9999
0043844520999991939031717004-06783-079850FM-12+002599999V0201801N00671220001CN0500001N9+03001+99999101331ADDAY101999GF102991001999999999999999MW1001
0073104900999991939010206004+51600+013733FM-12+003899999V0202001N00671004501CN0040001N9+00221+00111099861ADDAA199011091AY161061GF108991081061004501999999IA1199KA1999N-00111MW1631
0051101930999991939081209004+53800+013700FM-12+000599999V0202901N00101004501CN0100001N9+01781+01561101911ADDAY121999GF108991071071004501021999MD1210141+9999
0009724567139211939052208004+39367-094917SAO  +0238FLV  V0202031N001512200019N0192001N1+01691+01571100951ADDMW1001
0057108600999991939112903004+48717+011517FM-12+011199999V0202501N00461004501CN0100001N9+00501+00281102401ADDAY161031GF108991081051004501999999MD1410001+9999MW1611
0051101200999991939052100004+54183+007883FM-12+001599999V0202301N00101220001CN0500001N9+00781+00391101571ADDAY111999GF102991001001999999041051MD1310141+9999
0087107370999991939062206004+48683+009000FM-12+013199999V0209991C00001000151CN0000501N9+01391+01391101321ADDAA199000391AY141061GF109991091999000251999999IA1089KA1999N+01281MD1210041+9999MW1451
0049856210999991939070212004-34567-071650FM-12+035099999V0201801N002619999999N0002001N9+00281+99999102351ADDAY101999GF108991081051999999999999IA1009MW1401
0071036970999991939061218004+51950+001333FM-12+000399999V0203501N004619999999N0100001N9+00891+00671101281ADDGA1011+999999019GF108991071081008001071999IA1089MD1310121+9999MW1611
0065837420999991939072612004-22400-043667FM-12+043399999V0201801N002619999999N0100001N9+01721+99999101911ADDAA124003091GF104991999999999999999999IA1109KA1999M+01721MW1111
0065036010999991939051018004+51683-005167FM-12+004399999V0203601N002619999999N0100001N9+01281+01061102801ADDGA1011+999999019GF104991041071008001071011IA1089MD1810041+9999
0051108680999991939062603004+48250+011550FM-12+014899999V0209991C00001004501CN0100001N9+01281+01171101251ADDAY121031GF107991071051004501041001MD1310061+9999
0035719164999991939092912004+63333-090717FM-12+000499999V0202301N005119999999N0100001N9-00391-00441098951ADDGF108991041999999999999999MW1701
0037116440999991939090612004+50667+015917FM-12+017399999V0201801N00101220001CN0100001N9+99999+99999999999ADDAY101999GF101991011011012501001999
0057100910999991939062618004+54683+013433FM-12+000299999V0200201N004619999999N0200001N9+01611+99999101281ADDAY121999GF107991041051008001071999IA1009MD1310041+9999
0057111810999991939030612004+47967+016267FM-12+023599999V0202301N00101012301CN0040001N9+00611+99999101981ADDAY161061GF108991061061012501021999MD1990321+9999MW1611
0070166480999991939043006004+39633+022417FM-12+007599999V0209991C00001036001CN0040001N9+01501+99999101301ADDAY111999GF107991041051017501061001IA1009KA1999N+01001MD1310021+9999
0057102540999991939121209004+52833+011200FM-12+001599999V0200501N00261007801CN0040001N9+00001-00111102881ADDAY171999GF106991061051008001999999MD1310021+9999MW1051
0057101810999991939101221004+54367+013083FM-12+000299999V0201101N00931001501CN0040001N9+00891+00831100751ADDAY161999GF108991081051001501999999MD1810141+9999MW1211
0057108460999991939091309004+48933+010550FM-12+013399999V0201801N00261036001CN0100001N9+01501+01061101171ADDAY121031GF106991021051012501011081MD1510021+9999MW1051
0061822800999991939120112004-02533-044283FM-12+003399999V0200501N009319999999N0040001N9+02891+99999101281ADDGF106991999999999999999999KA1999M+03111KA2999N+02501MW1111
0037103590999991939090309004+52533+011433FM-12+001699999V0200201N00101030001CN0100001N9+99999+99999999999ADDAY121999GF106991011011022501031999
0051100100999991939050612004+54550+007883FM-12+999999999V0200901N00461220001CN0200001N9+00891+99999100601ADDAY121999GF107991001001999999031999MD1810061+9999
0078838670999991939111412004-26117-049917FM-12+079099999V0200901N001019999999N0020001N9+01001+99999102631ADDAA124000591GF107991999999999999999999IA1089KA1999M+01721KA2999N+00501MW1501
0059035310999991939070413004+52483-001933FM-12+016399999V0201601N004619999999N0200001N9+02171+01501101051ADDGA1011+999999019GF107991041081008001071999MD1810081+9999
0081109530999991939082106004+47867+010617FM-12+021699999V0202001N00461220001CN0200001N9+01611+01331999999ADDAA199001091AY111061GF102991001001999999041011IA1009KA1999N+01111MD1210101+9999
0057107450999991939092703004+49117+009800FM-12+011999999V0209991C00001007801CN0100001N9+00611+00391101901ADDAY121031GF107991071051008001999999MD1710011+9999MW1051
0009726625240061939072900004+44133-103100SAO  +0979RCA  V0201801N011312200019N1600001N9+03461+00631101251ADDMW1001
0041722536129111939060801004+29533-098283SAO  +0226RND  V0201601N005112200019N1600001N9+02571+01961101491ADDGA1021+010509059GA2011+999999049MW1001
0089872170999991939071612004-29400-066850FM-12+051799999V0202301N00101220001CN0200001N9+00781-00061101621ADDAY101999GF101991001001999999001011IA1009KA1999M+02391KA2999N+00781MD1310161+9999MW1001
0009911700225081939110717004+21483-158033SAO  +0271PHHI V0203601N002110120019N0320001N9+02021+01631101801ADDMW1001
0081133760999991939120906004+43733+020717FM-12+023499999V0202701N00261004501CN0040001N9+00111-00111102071ADDAA199002091AY121999GF108991081051004501999999IA1109KA1999N+00001MD1310061+9999
0043108530999991939030412004+48717+011217FM-12+011699999V0200701N00261220001CN0040001N9+99999+99999999999ADDAY101061GF100991001001999999001999MW1051
0097123300999991939112206004+52417+016833FM-12+009999999V0203601N00101004501CN0040001N9-00111-00221103831ADDAY121999GF107991071051004501999999IA1009KA1999N-00281MW1051EQDQ01+000042APCTENQ02+000082APC3  
0087116430999991939120218004+50750+015733FM-12+049199999V0202901N02261000151CN0010001N9-00111-00111102871ADDAA199000591AY151999GF109991091999000251999999IA1159KA1999M+00221MD1710021+9999MW1411
0039725310148061939010421004+40300-088133SAO  +0228RAN  V0201351N003610120019N0192001N1+01191+01131100681ADDGA1081+003009059MD1610301+9999MW1001
0076108560999991939112406004+48183+010867FM-12+016899999V0201801N00101220001CN0040001N9-00781-00891102391ADDAY101061GF104991001001999999001061IA1139KA1999N-00891MD1710081+9999MW1051
0070101850999991939060206004+54100+013433FM-12+000199999V0201101N00931220001CN0500001N9+01221-00221102951ADDAY101999GF101991001001999999001011IA1009KA1999N+00781MD1310061+9999
0025725115147111939082904004+40200-076767SAO  +0097MDT  V0200681N000512200019N0160001N1+01691+01571101631ADDGA1081+999999049MW1001
0059030560999991939082018004+56933-004233FM-12+035899999V0201801N002619999999N0100001N9+01331+01111101771ADDGA1011+999999019GF108991081051008001999999MD1810041+9999
0009722535129091939102716004+29383-098567SAO  +0207SKF  V0201801N004110090019N1600001N9+02741+02301101591ADDMW1001
0043105620999991939040806004+50683+011300FM-12+006299999V0202001N00101004501CN0040001N9+99999+99999999999ADDAY161061GF108991081061004501999999MW1631
0009722536129111939021711004+29533-098283SAO  +0226RND  V0203601N010310015019N0032001N9+00801+00691101801ADDMW1631
0070128510999991939031706004+47867+020017FM-12+099899999V0209991C00001220001CN0100001N9-00781-00891099251ADDAY111999GF101991011041004501001001IA1319KA1999N-00891MD1310041+9999
0044719350999991939050301004+60850-115767FM-12+016199999V0203601N001019999999N9999999N9+00391+99999999999ADDGF104991041999999999999999MA1999999099531
0025745700138401939040823004+39833-084050SAO  +0254FFO  V0202701N003112200019N0240001N9+00301-00481101081ADDGA1021+009009059MW1001
0089876160999991939032312004-36200-065400FM-12+031299999V0203601N00461220001CN0040001N9+01611+01171101821ADDAY101999GF102991001001999999001051IA1089KA1999M+02891KA2999N+01281MD1110041+9999MW1011
0054821410999991939122212004-00667-048550FM-12+001199999V0200501N004619999999N0040001N9+02281+99999101271ADDGF106991999999999999999999IA1009KA1999N+02111MW1111
0080030910999991939080418004+57167-002200FM-12+007199999V0200501N004619999999N0200001N9+01331+00891102381ADDGA1011+999999019GF101991011041004501001001EQDQ01+000032APCTENQ02+000002APC3  
0070112400999991939041118004+46983+015450FM-12+033599999V0201401N00101220001CN0200001N9+01221+99999102351ADDAY101061GF101991001001999999001041IA1009KA1999M+01611MD1310021+9999
0051103840999991939063015004+52483+013433FM-12+001799999V0202001N00461030001CN0100001N9+02611+01331101201ADDAY111999GF107991041081017501071999MD1810221+9999
0039723030137141939042015004+35183-079017SAO  +0064POB  V0200901N003612200019N0160001N9+01741+00021101631ADDGA1041+018009089MD1110061+9999MW1001
0043123110999991939022806004+52433+015550FM-12+001499999V0201401N00261220001CN0005001N9+99999+99999999999ADDAY101999GF100991001001999999001999MW1101
0037167380999991939042118004+36767+024417FM-12+018099999V0200901N002619999999N0100001N9+01501+99999101581ADDAY161999GF108991041081999999081999
0070106530999991939080718004+49650+009967FM-12+008599999V0201401N00261036001CN0200001N9+02001+01331101181ADDAY121061GF107991021021012501041071IA1009KA1999M+02001MD1610061+9999
0051108650999991939030803004+48183+011550FM-12+015599999V0202701N00671220001CN0100001N9+00111-00111102221ADDAY121031GF101991011051004501001001MD1310021+9999
0084856400999991939042612004-35317-072417FM-12+000599999V0209991C000019999999N0500001N9+00721+99999101961ADDAY101999GF100991001001999999001001IA1009MW1001EQDQ01+000032APCTENQ02+000002APC3  
0057101200999991939010209004+54183+007883FM-12+001599999V0202301N00931002401CN0040001N9+00281+00221099171ADDAY161999GF108991061061002501021999MD1210121+9999MW1611
0051105500999991939032312004+50967+010750FM-12+009199999V0202501N00261012301CN0200001N9+00501-00281099671ADDAY111061GF106991061021012501061001MD1710021+9999
0095106570999991939122006004+49767+009500FM-12+010299999V0200701N00261000601CN0005001N9-00611-00611999999ADDAY141061GF108991081051000751999999IA1309KA1999N+99999MD1210121+9999MW1421EQDQ01 -00392ATMN  
0057108690999991939081809004+48317+011933FM-12+014199999V0200501N00461220001CN0100001N9+02221+01561101671ADDAY101031GF101991011011008001001001MD1710111+9999MW1051
0092101700999991939062218004+54183+012100FM-12+000299999V0200501N00671004501CN0200001N9+01781+01331101151ADDAY121999GF108991071051004501999999IA1009MD1210081+9999EQDQ01+000042APCTENQ02+000102APC3  
0071036970999991939042718004+51950+001333FM-12+000399999V0200301N006719999999N0200001N9+00611+00001102441ADDGA1011+999999019GF102991011021004501061011IA1009MD1310101+9999MW1271
0043875000999991939110613004-35117-069567FM-12+152499999V0209991C000019999999N0500001N9+01221+99999999999ADDAY111999GF106991041999022501999999MW1021
0025725377148041939041214004+42617-082817SAO  +0176MTC  V0202701N009310060019N0240001N9-00371-01421101901ADDGA1051+999999059MW1001
0057105500999991939071209004+50967+010750FM-12+009199999V0202301N00461030001CN0100001N9+01781+00891101671ADDAY111031GF106991041071012501051999MD1710081+9999MW1051
0070156140999991939060418004+42767+023200FM-12+053899999V0203201N00461220001CN0200001N9+01721+99999101431ADDAY111999GF104991001001999999061051IA1089KA1999M+02281MD1410001+9999
0107131680999991939081506004+45267+019800FM-12+008099999V0200901N00261220001CN0200001N9+02391+01721101611ADDAY111999GF101991999001999999011001IA1009KA1999N+01891EQDQ01+000002SCOTLCQ02+000012APCTENQ03+000002APC3  
0056124160999991939042106004+51800+016317FM-12+002999999V0202701N00671007801CN0100001N9+00721+00501102001ADDAY121999GF107991071051008001001001IA1009KA1999N+00391
0037105170999991939011706004+50767+007167FM-12+001899999V0202301N00261220001CN0100001N9+99999+99999999999ADDAY101061GF100991001001999999001999
0057103120999991939090312004+51933+007650FM-12+001799999V0200901N00671030001CN0200001N9+02721+99999101441ADDAY121999GF106991041081012501061999MD1810041+9999MW1171
0037103400999991939061306004+51983+009517FM-12+002399999V0202901N002619999999N0040001N9+99999+99999999999ADDAY111999GF106991041051008001999999
0025722535129091939102317004+29383-098567SAO  +0207SKF  V0201801N002612200019N1600001N9+02741+01741101661ADDGA1999+009009999MW1001
0057104510999991939122315004+51267+011233FM-12+004399999V0209991C00001220001CN0040001N9-00221-00561102341ADDAY111031GF104991001001999999041041MD1610061+9999MW1051
0051121600999991939062315004+54150+019433FM-12+000299999V0203401N00261220001CN0500001N9+01611+00721100841ADDAY121999GF102991011011012501041011MD1310081+9999
0043167320999991939112818004+37100+025400FM-12+000699999V0202001N001019999999N0100001N9+01501+99999101911ADDAY111999GF106991061051999999001001IA1009
0051116480999991939060309004+50250+015850FM-12+023999999V0203201N00101220001CN0200001N9+01891+99999102221ADDAY101999GF101991001001999999001011MD1990041+9999
0057122000999991939111115004+53917+014283FM-12+999999999V0201401N00261000151CN0000501N9+00611+00501101771ADDAY141999GF109991091999000251999999MD1710081+9999MW1451
0068014820999991939032506004+59033+010533FM-12+000999999V0200201N00931220001CN0500001N9-00221+99999101571ADDAA199000691AY121999GF108991001001999999071999IA1009MD1310201+9999
0048719070999991939110200004+58450-078133FM-12+002099999V0209991C000019999999N0120001N9-01441+99999102401ADDGF102991021051999999001001EQDQ01+000992SCOLCB
0087104390999991939080506004+51117+009283FM-12+005299999V0202001N00101012301CN0100001N9+01501+01391101311ADDAA199001091AY161061GF108991081051012501999999IA1009KA1999N+00891MD1210041+9999MW1611
0051104100999991939052803004+51400+006950FM-12+003799999V0203201N006719999999N0100001N9+01001+00781102111ADDAY121031GF108991041051002501999999MD1310021+9999
0057103660999991939080712004+52400+012917FM-12+001099999V0202301N00101012301CN0100001N9+01891+01221101321ADDAY181999GF107991071051012501999999MD1990021+9999MW1251
0057114060999991939111221004+50083+012400FM-12+047399999V0202501N00101001501CN0010001N9+00611+99999102171ADDAY121031GF108991081051001501999999MD1110161+9999MW1101
0051104000999991939050921004+51283+006767FM-12+001199999V0200501N00461007801CN0100001N9+01221+99999102231ADDAY121031GF108991071051008001999999MD1210021+9999
0102153460999991939031406004+45133+024383FM-12+027099999V0201401N00101004501CN0100001N9-00111-00441102301ADDAA199000691AY171999GF108991081051004501001001IA1139KA1999N-00391EQDQ01+000042APCTENQ02+000062APC3  
0043624410999991939011306004+30600+032233FM-12+001399999V0201801N00261015001CN0040001N9-00721+99999102751ADDAY111999GF106991061051017501001999MW1051
0037166270999991939020518004+40850+025883FM-12+001399999V0209991C00001220001CN0200001N9+00611+99999102071ADDAY111999GF106991001001999999011999
0207722265138211939122522003+32383-086350SAO  +0053MXF  V02004559002150243849N0128005N9+01065+00065101905ADDGA1081+999999044GD19085+9999999GD29999+9999999GD39999+9999999EQDN01 00000JPWTH 1QNNE11 1 09910E11 1 09999E11 1 09999G11 1 00080H11U1 21999K11 1 00033L11 1 00800N11 1 00000Q11 1 10190S11 1 00051W11 1 22004
0051108460999991939011309004+48933+010550FM-12+013399999V0201401N00101007801CN0100001N9+00221+00001101111ADDAY121031GF107991071051008001001999MD1310101+9999
0029710934999991939090804004+66133-065750FM-12+001399999V02099999999999999999N9999999N9+99999+99999999999ADDKA1999M+00831KA2999N+00001
0070153460999991939021606004+45133+024383FM-12+027099999V0203601N00101004501CN0100001N9-00391-00721103261ADDAY111999GF107991071051004501001001IA1139KA1999N-00721MD1310041+9999
0059031850999991939092013004+55917-002133FM-12+008599999V0200201N004619999999N0200001N9+01281+01061103081ADDGA1011+999999019GF107991061081004501061999MD1810061+9999
0057103120999991939033015004+51933+007650FM-12+001799999V0200701N00461220001CN0100001N9+01221+99999101361ADDAY121999GF104991021021012501061001MD1810101+9999MW1051
0095104260999991939120318004+51700+008750FM-12+005799999V0202001N00671004501CN0040001N9-01502+99999101311ADDAY121061GF108991081051004501999999IA1009KA1999M+00721MD1990041+9999MW1051EQDQ01+025823ATOT  
0025911700225081939121004004+21483-158033SAO  +0271PHHI V0203601N003112200019N1600001N9+01851+01301101761ADDGA1999+012009999MW1001
0051101850999991939020112004+54100+013433FM-12+000199999V0202501N00461004501CN0040001N9-00111-00281102201ADDAY121999GF108991061051004501999999MD1990101+9999
0076105170999991939122006004+50767+007167FM-12+001899999V0203601N00101007801CN0020001N9-00391+99999102111ADDAY141061GF108991081051008001999999IA1139KA1999N-00501MD1210141+9999MW1051
0073107080999991939052518004+49217+007033FM-12+018999999V0200901N00101004501CN0020001N9+01111+99999102231ADDAA199008091AY161061GF108991061051004501999999IA1089KA1999M+01391MW1611
0025691174999991939020511004+39833-076117SAO  +0002KQAH V0203381N001512200019N0144001N1-00591-01151102981ADDGA1021+999999009MW1001
0071037660999991939042518004+51283-000750FM-12+006999999V0200801N002619999999N0040001N9+00721+00331100661ADDGA1011+999999019GF108991081071012501999999IA1089MD1310201+9999MW1501
0043106880999991939032906004+49683+012167FM-12+012199999V0202701N00261007801CN0010001N9+99999+99999999999ADDAY121061GF108991071051008001021999MW1101
0089871290999991939060512004-27767-064283FM-12+018899999V0201801N00101220001CN0010001N9+00721+00671101441ADDAY141999GF102991001001999999001081IA1009KA1999M+02391KA2999N+00501MD1310141+9999MW1281
0043803360999991939061320004+01800-078767FM-12+000399999V0209991C00001007801CN0500001N9+02001+99999999999ADDAY111999GF108991081999008001999999MW1031
0059035780999991939092018004+52367+000467FM-12+000599999V0200201N004619999999N0200001N9+01501+01221102401ADDGA1011+999999019GF107991071051017501999999MD1810021+9999
0051106550999991939070512004+49800+009967FM-12+008199999V0201401N00261220001CN0200001N9+02721+01061101381ADDAY101061GF101991001001999999001011MD1810041+9999
0039722536129111939051921004+29533-098283SAO  +0226RND  V0201601N005112200019N0240001N9+03521+01961100811ADDGA1011+018009089MD1710281+9999MW1001
0084859340999991939121112004-52867-070883FM-12+003499999V0202301N001019999999N0500001N9+01001+99999101271ADDAY101999GF100991001001999999001001IA1009MW1001EQDQ01+000032APCTENQ02+000002APC3  
0025724567139211939121213004+39367-094917SAO  +0238FLV  V0203601N008210105019N1600001N1+01071+00521101081ADDGA1081+999999059MW1001
0081131500999991939061406004+45150+018017FM-12+009099999V0200501N00261007801CN0040001N9+01781+01671100491ADDAA199001091AY161999GF107991071051008001011001IA1089KA1999N+01391MD1710041+9999
0041724050137431939050719004+38850-077033SAO  +0020DCA  V0202251N005112200019N0192001N1+03181+00961101151ADDGA1021+015009089GA2061+999999029MW1001
0025723550139451939121013004+34650-098383SAO  +0360FSI  V0203601N002612200019N0240001N9+00521+00131101191ADDGA1001+999999999MW1001
0043108450999991939111818004+48433+010233FM-12+014599999V0202301N00461220001CN0040001N9+99999+99999999999ADDAY111061GF104991021081008001031999MW1051
0009722210138581939060120004+30500-086500SAO  +0025VPS  V0201601N004610060019N0240001N9+02741+02351101321ADDMW1001
0024723030137141939102011004+35183-079017SAO  +0064POB  V0203201N000512200019N0010001N9+01221+01221102301ADDMA1102301999999MW1111
0063101310999991939032306004+53867+008717FM-12+000199999V0201401N00461000151CN0000501N9+00111+00001099321ADDAY171999GF109991091999999999999999IA1089MD1310101+9999MW1451
0057121020999991939121212004+54017+014767FM-12+999999999V0200701N00671000601CN0040001N9-00111-00221102991ADDAY121999GF108991081051000751999999MD1710021+9999MW1051
0025722535129091939030905004+29383-098567SAO  +0207SKF  V0201401N003610030019N0160001N9+01961+01851102071ADDGA1081+999999079MW1001
0055722640930351939052718004+30367-104017SAO  +1481MRF  V0203381N006212200019N0640001N1+03241+00411101421ADDGA1031+012001081GA2021+999999021MD1210141+9999MW1001
0057167340999991939051606004+36833+021717FM-12+002599999V0209991C00001220001CN0200001N9+01891+99999101371ADDAY111999GF101991001001999999061031IA1009MD1210061+9999
0059037030999991939080518004+51017-004533FM-12+009199999V0203401N004619999999N0200001N9+01611+01331101321ADDGA1011+999999019GF104991011021008001031001MD1810061+9999
0025722210138581939012215004+30500-086500SAO  +0025VPS  V0202501N006712200019N0160001N9+02021+01351102271ADDGA1021+999999029MW1001
0249722265138211939040504003+32383-086350SAO  +0053MXF  V02036059000552200019N0128005N9+01445+01225101695ADDGA1081+999999024GD19085+9999999GD29999+9999999GD39999+9999999GD49999+9999999EQDN01 00800CCLHT 3N02 00000JPWTH 1QNNE11 1 09910E11 1 09999E11 1 09999E11 1 09999G11 3 00800H11U1 37999K11 1 00054L11 1 00800N11 1 00000Q11 1 10169S11 1 00058W11 1 11001
0025722535129091939010910004+29383-098567SAO  +0207SKF  V0203601N003110021019N0128001N9+01351+01241101351ADDGA1081+999999079MW1001
0023724567139211939093009004+39367-094917SAO  +0238FLV  V0203601N001512200019N1600001N1+00301+00191102511ADDMD1210161+9999MW1001
0057102540999991939082409004+52833+011200FM-12+001599999V0200901N00101220001CN0040001N9+02501+01781101991ADDAY141999GF101991001001999999001011MD1710021+9999MW1051
0067836920999991939080812004-21767-043333FM-12+066999999V0203401N001019999999N0020001N9+01501+99999102121ADDGF100991999999999999999999IA1089KA1999M+02891KA2999N+00781MW1111
0057106370999991939092909004+50050+008600FM-12+003499999V0200501N00261220001CN0020001N9+00891+00061101771ADDAY101031GF100991001001999999001001MD1810061+9999MW1051
0076104920999991939020818004+51767+014300FM-12+002399999V0202501N00261004501CN0040001N9+00501+00111103011ADDAY121061GF108991081051004501999999IA1009KA1999M+00611MD1210061+9999MW1051
0037109650999991939060312004+47450+011267FM-12+027799999V0203601N00261220001CN0100001N9+99999+99999999999ADDAY111999GF104991001001999999041999
0000784390999991939082618004+18550-072350FM-12+001699999V02099999999999999999N9999999N9+99999+99999999999
0051103930999991939100509004+52200+014117FM-12+003299999V0202001N00931220001CN0200001N9+00891-00221102021ADDAY101031GF101991001001999999001011MD1810161+9999
0025722250138291939061216004+32333-085000SAO  +0071LSF  V0201601N002610060019N0240001N9+02911+02181101661ADDGA1051+999999089MW1001
0067823970999991939100512004-03767-038550FM-12+002799999V0201401N004619999999N0100001N9+02781+99999101471ADDGF106991999999999999999999IA1109KA1999M+03001KA2999N+02501MW1111
0051101310999991939021900004+53867+008717FM-12+000199999V0202701N01231220001CN0040001N9+00501+99999100611ADDAY101999GF102991021999999999999999MD1310101+9999
0037101800999991939091218004+54350+012733FM-12+000199999V0200901N00461002401CN0100001N9+99999+99999999999ADDAY121999GF108991061081002501071999
0091034970999991939021707004+52583+001733FM-12+000299999V0202801N004619999999N0040001N9+00001-00061101831ADDGA1011+999999019GF106991001001999999011001IA1139KA1999M+00941KA2999N+00001MD1810121+9999
0037117400999991939060912004+49933+017883FM-12+026799999V0203401N00261004501CN0040001N9+99999+99999999999ADDAY121999GF108991081051004501999999
0037102700999991939041406004+52917+012800FM-12+001499999V0202001N00261030001CN0040001N9+99999+99999999999ADDAY161999GF108991041061008001071999
0084857990999991939102212004-41450-072917FM-12+001399999V0203601N004619999999N0020001N9+01281+99999101401ADDAY101999GF108991081001999999021999IA1009MW1031EQDQ01+000032APCTENQ02+000002APC3  
0057100460999991939120403004+54383+010150FM-12+000999999V0201601N00671075001CN0040001N9+00281+00061099981ADDAY121999GF106991011051004501001071MD1810361+9999MW1051
0092115670999991939082815004+50117+014533FM-12+028399999V0200501N00261220001CN0100001N9+02501+99999101701ADDAY121999GF104991021021017501001021MD1210021+9999MW1051EQDQ01+000062APCTENQ02+000002APC3  
0009725115147111939030722004+40200-076767SAO  +0097MDT  V0202931N011312200019N0240001N1+00301-00981102781ADDMW1001
0070102740999991939072218004+53350+012733FM-12+002299999V0202501N00461030001CN0200001N9+01781+01331100751ADDAY111999GF107991021081012501071999IA1009KA1999M+02221MD1990061+9999
0051102130999991939092712004+52667+007933FM-12+000799999V0200501N00461007801CN0200001N9+01001+99999102771ADDAY111999GF106991061071008001001001MD1310021+9999
0051101810999991939033115004+54367+013083FM-12+000299999V0200701N00671004501CN0200001N9+00391+00001102291ADDAY121999GF106991061051004501001001MD1610061+9999
0057114060999991939013112004+50083+012400FM-12+047399999V0200201N00101220001CN0040001N9+00001+99999102171ADDAY111061GF102991001001999999001011MD1810021+9999MW1051
0025745700138401939083111004+39833-084050SAO  +0254FFO  V0209991C000012200019N0024001N9+01131+01131101591ADDGA1001+999999999MW1111
0057103390999991939051903004+52583+010533FM-12+002099999V0203401N00101220001CN0010001N9+00391+99999100501ADDAY141999GF102991021051017501001041MD1210041+9999MW1441
0076104880999991939090918004+51133+013767FM-12+007099999V0201601N00261220001CN0100001N9+02221+01001101581ADDAY101061GF100991001001999999001001IA1009KA1999M+02721MD1510001+9999MW1051
0025724338138021939111714004+38550-089983SAO  +0134BLV  V0201601N000510150019N0024001N9+01021+00691102681ADDGA1081+999999059MW1051
0025725115147111939032619004+40200-076767SAO  +0097MDT  V0201581N003112200019N0040001N1+01911+01021100981ADDGA1061+999999009MW1051
0051122050999991939070412004+53400+014633FM-12+000199999V0201801N00101220001CN0200001N9+02281+01061102551ADDAY111999GF106991041021012501001011MD1810081+9999
0009726625240061939111404004+44133-103100SAO  +0979RCA  V0202501N003612200019N1600001N9+00631-00531101801ADDMW1001
0057107550999991939072103004+49317+010667FM-12+014299999V0203601N00101036001CN0040001N9+01501+01501101631ADDAY191031GF108991041051002501021999MD1990081+9999MW1921
0065166720999991939042018004+38617+021400FM-12+003699999V0203601N001019999999N0200001N9+01501+01111101681ADDAJ100009199999999GF108991999999999999999999IA1089KA1999M+02001
0040719070999991939071005004+58450-078133FM-12+002099999V02099999999999999999N9999999N9+99999+99999999999ADDAA124000591KA1999M+00671KA2999N+00171
0025723030137141939102202004+35183-079017SAO  +0064POB  V0202001N004112200019N0128001N9+01961+01461101191ADDGA1001+999999999MW1001
0057104900999991939032409004+51600+013733FM-12+003899999V0201401N00261001501CN0020001N9+00111-00111100101ADDAY171031GF108991071051001501999999MD1210061+9999MW1701
0057266990999991939090203004+54783+020617FM-12+000699999V0209991C00001220001CN0000501N9+01391+01391101771ADDAY141999GF101991011021017501041001MD1310081+9999MW1461
0025722536129111939042805004+29533-098283SAO  +0226RND  V0200901N002112200019N0192001N9+02241+01961101491ADDGA1081+999999049MW1001
0009726625240061939020403004+44133-103100SAO  +0979RCA  V0200901N001012200019N1600001N9-01591-01811099991ADDMW1001
0025726810241311939100204004+43567-116217SAO  +0874BOI  V0209991C000010039019N1600001N1+01131+01021999999ADDGA1999+004509999MW1001
0102037460999991939080107004+51167-001750FM-12+012699999V0202501N004619999999N0040001N9+01281+01221101921ADDAA124999999GA1011+999999019GF108991041051017501021999KA1999M+01671KA2999N+01221MD1310101+9999MW1511
0063101310999991939032018004+53867+008717FM-12+000199999V0202001N00461000151CN0005001N9+00111-00441100501ADDAY171999GF109991091999999999999999IA1159MD1810201+9999MW1701
0057103170999991939081709004+52283+008017FM-12+002799999V0200501N00101007801CN0040001N9+01721+99999102471ADDAY141999GF106991061081008001001001MD1310021+9999MW1051
0076107080999991939021806004+49217+007033FM-12+018999999V0201801N01231002401CN0020001N9+00221+99999101431ADDAY121061GF108991071061002501999999IA1089KA1999N+00001MD1610061+9999MW1051
0029719380999991939121313004+67817-115167FM-12+000499999V0209991C000019999999N0200001N9-02171+99999101421ADDGF108991001001999999011999
0051108570999991939030509004+48067+010917FM-12+018999999V0202001N00461012301CN0200001N9+00721+00501102301ADDAY161031GF108991061051012501021999MD1210021+9999
0057040060999991939072212004+66167-023217FM-12+000699999V0203601N00461004501CN0200001N9+01281+99999100711ADDAY121061GF108991081071004501999999MD1310161+9999MW1161
0061836990999991939122712004-22350-041800FM-12+000599999V0209991C000019999999N0040001N9+02781+99999100751ADDGF107991999999999999999999KA1999M+02891KA2999N+02281MW1111
0057060110999991939041112004+62050-006750FM-12+002699999V0200901N00101000151CN0005001N9+00891+99999101541ADDAY141999GF109991091051000251999999MD1810041+9999MW1431
0009724956232111939062014004+38067-122517SAO  +0003SRF  V0203601N001012200019N0112001N1+01521+01021101121ADDMW1001
0091132750999991939101306004+44817+020417FM-12+013899999V0201101N00261220001CN0100001N9+01001+00781101691ADDAY111999GF107991001001999999071021IA1089KA1999N+00501EQDQ01+000042APCTENQ02+000022APC3  
0076101220999991939061706004+53533+007883FM-12+000299999V0201801N00101220001CN0040001N9+01781+99999101101ADDAY101999GF101991001001999999001011IA1009KA1999N+00781MD1210061+9999MW1051
0025725377148041939090604004+42617-082817SAO  +0176MTC  V0201101N001512200019N1600001N9+01351+01071102101ADDGA1051+999999049MW1001
0051101270999991939101703004+53533+008150FM-12+000299999V0202301N00461220001CN0200001N9+00611+00501102131ADDAY101999GF100991001001999999001001MD1310061+9999
0081104490999991939010818004+51483+010317FM-12+009099999V0202701N00671004501CN0100001N9+00501+00281101811ADDAA199000691AY121061GF108991081051004501999999IA1199KA1999M+00501MD1110081+9999
0025722535129091939021507004+29383-098567SAO  +0207SKF  V0203401N002612200019N0240001N9+00911+00021101731ADDGA1001+999999999MW1001
0025722485139441939030416004+32500-093683SAO  +0053BAD  V0201401N005110060019N0128001N9+02131+01851100951ADDGA1081+999999079MW1001
0058725115147111939082106004+40200-076767SAO  +0097MDT  V0202931N001512200019N0160001N1+02241+02131101221ADDGA1031+999999009MD1210031+9999MW1001EQDQ01+000002APC3  
0043782800999991939031412004+20833-075717FM-12+000399999V0201801N00261220001CN0500001N9+02221+99999999999ADDAY101999GF102991021999012501999999MW1001
0039724338138021939061409004+38550-089983SAO  +0134BLV  V0200701N001012200019N0003001N9+01411+01411101731ADDGA1001+999999999MD1410001+9999MW1111
0249722265138211939061005003+32383-086350SAO  +0053MXF  V02022559002152200019N0160005N9+02335+02175099915ADDGA1081+999999044GD19085+9999999GD29999+9999999GD39999+9999999GD49999+9999999EQDN01 00800CCLHT 3N02 00000JPWTH 1QNNE11 1 09910E11 1 09999E11 1 09999E11 1 09999G11 3 00800H11U1 21999K11 1 00071L11 1 01000N11 1 00000Q11 1 09991S11 1 00074W11 1 66004
0076103430999991939030306004+52600+010033FM-12+001299999V0200901N00101220001CN0040001N9+00001+99999102661ADDAY101999GF106991001001999999031081IA1009KA1999N-00111MD1310041+9999MW1051
0051101200999991939051215004+54183+007883FM-12+001599999V0200701N01231220001CN0100001N9+01281+00831101751ADDAY121999GF102991021071008001001001MD1210061+9999
0043844520999991939050820004-06783-079850FM-12+002599999V0202301N00671220001CN0500001N9+03001+99999101191ADDAY101999GF102991001999999999999999MW1001
0049856290999991939090612004-34967-071217FM-12+021199999V0201801N001019999999N0100001N9+01001+99999101811ADDAY101999GF108991001001999999021999IA1009MW1031
0051100460999991939110915004+54383+010150FM-12+000999999V0202001N01231007801CN0100001N9+01281+00831100661ADDAY121999GF107991061051008001031999MD1610101+9999
0051105100999991939072121004+50350+006950FM-12+018999999V0202701N00101220001CN0100001N9+01281+99999101411ADDAY121031GF104991021091002501021999MD1810061+9999
0063161200999991939113018004+44400+008917FM-12+000299999V0201101N00101007801CN0020001N9+01391+99999102781ADDAY121999GF106991061051008001001001IA1009MD1310061+9999MW1051
0025726810241311939073005004+43567-116217SAO  +0874BOI  V0201131N003612200019N0240001N1+02961+01071999999ADDGA1999+021009999MW1001
0051108354999991939101900004+48717+009700FM-12+011599999V0202501N00101007801CN0100001N9+01501+01061101171ADDAY181061GF108991061081008001071999MD1110261+9999
0070116030999991939062118004+50767+015067FM-12+038799999V0203201N00261007801CN0200001N9+02221+99999101181ADDAY121999GF106991061081008001001001IA1009KA1999M+02281MD1210021+9999
0089877150999991939070112004-38933-067967FM-12+026699999V0209991C00001220001CN0200001N9+00391+00281101041ADDAY121999GF107991001001999999091999IA1089KA1999M+01721KA2999N+00001MD1210081+9999MW1031
0051267020999991939090121004+54733+020567FM-12+000999999V0202901N00261220001CN0100001N9+01721+01611101671ADDAY101999GF102991021031012501001001MD1210041+9999
0039749105999991939120306004+40733-073600SAO  +003899999V0202031N007210003019N0008001N1+00911+00911099731ADDGA1081+999999049MD1710161+9999MW1451
0057103370999991939110600004+52150+009750FM-12+002799999V0201601N00461220001CN0040001N9+00611+99999100561ADDAY111999GF102991001001999999041011MD1990101+9999MW1051
0100067700999991939050918004+46000+008950FM-12+027699999V0209991C00001007801CN0100001N9+01281+99999101281ADDAA199000391AY111999GF108991081051008001999999IA1009KA1999M+01611MD1310141+9999EQDQ01+001802WODIR 
0087265120999991939120806004+54950+120250FM-12+000799999V0203401N00671001501CN0040001N9+00391+00281101171ADDAA199001091AY161999GF108991081051001501999999IA1089KA1999N+00281MD1210081+9999MW1611
0051121020999991939092609004+54017+014767FM-12+999999999V0201801N00671030001CN0100001N9+00781+00561101831ADDAY121999GF107991041051012501021999MD1710021+9999
0045723030137141939122812004+35183-079017SAO  +0064POB  V0200501N001010015019N0032001N9+00351+00301102241ADDGA1081+999999079MD1210341+9999MW1041MW2451
0056167490999991939100718004+36433+028250FM-12+008899999V0209991C00001220001CN0100001N9+02391+99999101391ADDGF100991999001999999001001KA1999M+02781MD1310041+9999
0025745700138401939081119004+39833-084050SAO  +0254FFO  V0202001N000512200019N1600001N9+03241+01571101961ADDGA1001+999999999MW1001
0051107100999991939011815004+49317+008100FM-12+020599999V0202301N01231000151CN0005001N9+00721+00671102211ADDAY161031GF109991091999000251999999MD1210061+9999
0057105780999991939111112004+50433+012950FM-12+037099999V0201101N00931220001CN0100001N9+00611+00391097801ADDAY141061GF104991001001999999001061MD1810061+9999MW1121
0043853730999991939121617004-22083-065600FM-12+345199999V0202701N00261015001CN0500001N9+00781+99999999999ADDAY151999GF108991081999017501999999MW1501
0009749105999991939010411004+40733-073600SAO  +003899999V0203601N003610024019N0112001N1-00201-00421102441ADDMW1001
0065166720999991939080218004+38617+021400FM-12+003699999V0200901N00101220001CN0200001N9+03001+01391101111ADDAJ100009199999999GF102991999999999999999999IA1009KA1999M+03721
0025726625240061939100919004+44133-103100SAO  +0979RCA  V0203401N008212200019N1600001N9+01191+00581102201ADDGA1999+015009999MW1001
0057107260999991939042909004+49500+010967FM-12+009299999V0200201N00261002401CN0040001N9+00781+00561999999ADDAY121031GF108991061051002501021001MD1710121+9999MW1051
0074121070999991939112606004+54283+016117FM-12+999999999V0202001N01231002401CN0040001N9+00221+00111100661ADDAA199002091AY121999GF108991081051002501999999IA1089MD1710201+9999MW1051
0025722536129111939070707004+29533-098283SAO  +0226RND  V0201801N002612200019N1600001N9+02461+01961101491ADDGA1001+999999999MW1001
0057104300999991939112000004+51717+008367FM-12+002399999V0203401N00461002401CN0020001N9+00611+99999101601ADDAY161061GF108991061051002501999999MD1310441+9999MW1611
0057109350999991939091915004+47667+009500FM-12+012299999V0202301N00261007801CN0100001N9+01501+01061101651ADDAY121031GF107991071021008001041999MD1510021+9999MW1601
0089876920999991939063012004-38017-057533FM-12+001499999V0203201N00101220001CN0200001N9+00501+00281101141ADDAY101999GF106991001001999999001011IA1089KA1999M+01391KA2999N+00111MD1990081+9999MW1021
004594999900175193909280200N-27570+153000AUST +0011     V0202255N004659999999N999999999+02395+99999999999ADDGA1015+018005999GF101995014999018005999999
0029719460999991939051012004+61867-121350FM-12+012799999V0209991C000019999999N0500001N9-00111+99999101561ADDGF104991001999999999999999
0051111500999991939110712004+47800+013083FM-12+043499999V0201601N00261220001CN0500001N9+01721+99999101971ADDAY101061GF101991999001999999041001MD1710221+9999
0023749105999991939110918004+40733-073600SAO  +003899999V0203151N011312200019N0240001N1+00521-01371102511ADDMD1210121+9999MW1001
0025722536129111939010416004+29533-098283SAO  +0226RND  V0202701N003612200019N0192001N9+01911+00691101081ADDGA1001+999999999MW1001
0067838370999991939072412004-25100-050167FM-12+087799999V0209991C000019999999N0100001N9+00391+99999102071ADDGF106991999999999999999999IA1009KA1999M+01501KA2999N+00001MW1111
0037100130999991939110409004+53900+009133FM-12+000299999V0201101N00671220001CN0040001N9+99999+99999999999ADDAY111999GF104991041051008001999999
0051102500999991939022003004+53333+011500FM-12+001299999V0203201N00261220001CN0100001N9-00221+99999101701ADDAY101999GF102991001001999999001021MD1310101+9999
0059035780999991939013101004+52367+000467FM-12+000599999V0200301N002619999999N0100001N9-00171-00281102191ADDGA1011+999999019GF106991061051008001031001MD1310041+9999
0076104270999991939092906004+51183+008483FM-12+025799999V0200201N00101002401CN0005001N9+00391+00331101681ADDAY141061GF106991061051002501001001IA1089KA1999N+00281MD1610041+9999MW1441
0089873740999991939101512004-31767-060467FM-12+006399999V0200501N004619999999N0040001N9+02501+02001100731ADDAY101999GF106991021021008001001061IA1009KA1999M+02611KA2999N+01221MD1610021+9999MW1021
0070132750999991939113012004+44817+020417FM-12+013899999V0202301N00261220001CN0200001N9+01221+00781102411ADDAY111999GF107991999001999999031001MD1810081+9999EQDQ01+000002SCOTLC
0070106090999991939031406004+49750+006667FM-12+008199999V0202301N00461000151CN0000001N9+00001+99999102381ADDAY171061GF109991091999000251999999IA1209KA1999N-00111MD1810301+9999
0087067000999991939081918004+46233+006083FM-12+042399999V0203201N00101012301CN0200001N9+01781+99999101231ADDAA199001091AY121999GF107991071061012501999999IA1089KA1999M+02611MD1810021+9999MW1921
0037085890999991939013012004+14917-023517FM-12+003499999V0200501N00931220001CN0100001N9+02221+99999101301ADDAY101999GF101991011061008001001999
0057103660999991939040309004+52400+012917FM-12+001099999V0201401N00261012301CN0040001N9+00891+00441100261ADDAY121999GF107991061051012501021999MD1810061+9999MW1051
0087010980999991939011718004+70367+031100FM-12+001299999V0201601N00671012301CN0500001N9+00001+99999097172ADDAA199000391AY181999GF107991071051012501999999IA1319MD1810221+9999EQDQ01+097173APOSLP
0063870970999991939081312004-25667-054433FM-12+017999999V0209991C000019999999N0020001N9+01501+99999101851ADDAY141999IA1089KA1999M+03001KA2999N+01111MD1310161+9999MW1121
0087103510999991939111206004+52283+013400FM-12+001299999V0202301N00261030001CN0040001N9+00891+00671101151ADDAA199000691AY161999GF106991041051012501041001IA1089KA1999N+00281MD1310121+9999MW1051
0057103980999991939120912004+52333+014617FM-12+001599999V0201401N00261220001CN0100001N9+00111-00441102021ADDAY101061GF100991001001999999001001MD1610081+9999MW1051
0065036270999991939060318004+51917-002583FM-12+006899999V0200801N006719999999N0200001N9+02061-00611102431ADDGA1011+999999019GF101991001001999999001011IA1009MD1810081+9999
0009722860231191939022608004+33900-117250SAO  +0466RIV  V0201401N001510051019N0160001N9+00741+00631101351ADDMW1001
0037156150999991939052412004+42200+023583FM-12+292699999V0202701N00101002401CN0500001N9+00501+99999099321ADDAY111999GF106991061071002501001999
0043107880999991939100303004+48883+012583FM-12+010799999V0202701N00671004501CN0040001N9+99999+99999999999ADDAY121031GF108991071051004501021999MW1051
0051122110999991939103000004+53767+015783FM-12+002799999V0200501N00671004501CN0100001N9+00501+00391101681ADDAY121999GF108991081051004501999999MD1310121+9999
0025723030137141939110916004+35183-079017SAO  +0064POB  V0203401N001512200019N0160001N9+01521-00261103051ADDGA1001+999999999MW1001
0025724567139211939042417004+39367-094917SAO  +0238FLV  V0202481N009812200019N0240001N1+02681+01241100981ADDGA1061+999999029MW1001
0051104380999991939032512004+51383+009533FM-12+008899999V0200901N00101007801CN0200001N9+00611-00171100521ADDAY111061GF106991061081008001001999MD1310021+9999
0039722860231191939033112004+33900-117250SAO  +0466RIV  V0201801N000512200019N0112001N9+00911+00801101961ADDGA1041+999999049MD1510061+9999MW1001
0025724338138021939103000004+38550-089983SAO  +0134BLV  V0203601N005110180019N0128001N9+00961+00521101661ADDGA1081+999999059MW1001
0051133760999991939051512004+43733+020717FM-12+023499999V0200701N00461036001CN0100001N9+01001+00111101101ADDAY111999GF107991041011012501021001MD1810061+9999
0025724550139471939042807004+39050-096767SAO  +0324FRI  V0200501N004612200019N0192001N9+01191+00691101961ADDGA1001+999999999MW1001
0063121070999991939111506004+54283+016117FM-12+999999999V0201801N00931000601CN0010001N9+00721+00671101361ADDAY121999GF108991081051000751999999IA1089MD1710181+9999MW1101
0051122250999991939082109004+53267+016467FM-12+003899999V0201101N00461220001CN0040001N9+02501+01561101731ADDAY101999GF101991001001999999041081MD1310061+9999
0081104990999991939080706004+51150+014950FM-12+007299999V0202001N00931220001CN0100001N9+01501+01281101461ADDAA199001091AY111061GF104991021051012501041011IA1009KA1999N+01281MD1310121+9999
0057103390999991939011003004+52583+010533FM-12+002099999V0202501N00931004501CN0100001N9+00611+99999100551ADDAY161999GF108991061051004501999999MD1990041+9999MW1211
0276722265138211939051120003+32383-086350SAO  +0053MXF  V02022559003152200019N0240005N9+03005+01225101395ADDGA1011+013724084GA2021+999999024GD19015+9999999GD29025+9999999GD39999+9999999GD49999+9999999EQDN01 00900CCLHT 3N02 00000JPWTH 1QNNE11 1 09901E11 1 09902E11 1 09999E11 1 09999G11 3 00900H11 1 11045H11 1 37999K11 1 00054L11 1 01500N11 1 00000Q11 1 10139S11 1 00086W11 1 66006
0057104400999991939092209004+51200+010033FM-12+004899999V0201801N00101004501CN0040001N9+01391+00941101971ADDAY121031GF107991071081004501999999MD1810021+9999MW1051
0059031850999991939020101004+55917-002133FM-12+008599999V0201401N004619999999N0200001N9+00391+00171102231ADDGA1011+999999019GF108991081051008001999999MD1810041+9999
0037124030999991939021412004+51683+015733FM-12+003199999V0202701N00931220001CN0100001N9+99999+99999999999ADDAY121999GF104991041061008001001999
0043105730999991939091709004+50333+012267FM-12+013799999V0203401N00671004501CN0020001N9+99999+99999999999ADDAY161031GF108991999999004501999999MW1651
0091032620999991939053007004+55017-001417FM-12+003399999V0202301N002619999999N0020001N9+01111+00891103131ADDGA1011+999999019GF102991021051004501001001IA1009KA1999M+01281KA2999N+00781MD1310041+9999
0051106874999991939071812004+49583+010900FM-12+010199999V0202001N00101012301CN0200001N9+02501+01221101531ADDAY121061GF106991061021012501001001MD1710061+9999
0041745980137021939010610004+37083-076350SAO  +0002LFI  V0202501N005710051019N0112001N9+01461+01241102001ADDGA1051+999999059GA2021+999999039MW1001
0057102540999991939070506004+52833+011200FM-12+001599999V0201401N00461220001CN0040001N9+01891+01221101911ADDAY101999GF102991001001999999001051MD1710021+9999MW1051
0102103410999991939031106004+51933+010433FM-12+007999999V0202901N00101002401CN0040001N9-00111-00221102571ADDAA199000391AY121999GF108991081051002501999999IA1139KA1999N-00111EQDQ01+000042APCTENQ02+000102APC3  
0076104410999991939121818004+51000+010417FM-12+010499999V0200901N00261000151CN0005001N9-00391-00391102491ADDAY121061GF109991091999000251999999IA1309KA1999M-00391MD1510061+9999MW1451
0076102500999991939032415004+53333+011500FM-12+001299999V0200901N00101002401CN0020001N9+00281+99999100271ADDAY121999GF107991999051002501999999MD1310041+9999MW1221EQDQ01+000082SCOTLC
0081123750999991939010418004+52183+020967FM-12+013399999V0202301N00461004501CN0100001N9+00001+99999100931ADDAA199002091AY121999GF109991091051004501999999IA1309KA1999M+00111MD1310021+9999
0070103100999991939101403004+55367+007933FM-12+001699999V0202001N00461002401CN0040001N9+00611+99999099611ADDAY161999GF108991081051002501999999MD1810281+9999EQDQ01+000692PRSWM1
0037100130999991939020212004+53900+009133FM-12+000299999V0201801N00101002401CN0040001N9+99999+99999999999ADDAY121999GF108991081051002501999999
0009724050137431939101522004+38850-077033SAO  +0020DCA  V0200681N001012200019N0240001N1+01131-00091102981ADDMW1001
0057266970999991939091812004+54617+019883FM-12+000699999V0200501N00671001501CN0020001N9+01281+01171101761ADDAY161999GF108991081051001501999999MD1210061+9999MW1051
0265722265138211939121122003+32383-086350SAO  +0053MXF  V02002359002152200019N0192005N9+01835-00505101695ADDGA1999+999999024GD19005+9999999GD29999+9999999GD39999+9999999GD49999+9999999EQDQ01    003SCCGA1N01 00900CCLHT 3N02 00000JPWTH 1QNNE11 1 09900E11 1 09999E11 1 09999E11 1 09999G11 3 00900H11U1 37999K11 1 00023L11 1 01200N11 1 00000Q11 1 10169S11 1 00065W11 1 12004
0051109610999991939011515004+47417+010983FM-12+090399999V0202501N022619999999N0500001N9-00221-00941100701ADDAY121031GF108991041001008001071071MD1210041+9999
0070132850999991939011418004+44750+021517FM-12+008199999V0209991C00001220001CN0040001N9+00221+00171102271ADDAY111999GF101991011051012501001001IA1209KA1999M+00391MD1310061+9999
0051104690999991939011815004+51400+012217FM-12+004199999V0201801N00101030001CN0100001N9+01001+00781100221ADDAY121031GF106991021051012501041021MD1210101+9999
0057104270999991939061221004+51183+008483FM-12+025799999V0203201N00931000151CN0000001N9+00281+00221100841ADDAY161031GF109991091999000251999999MD1310121+9999MW1451
0043103660999991939111209004+52400+012917FM-12+001099999V0202501N00101012301CN0040001N9+01001+99999101171ADDAY121999GF108991081051012501999999MW1051
0076109620999991939070406004+47800+011017FM-12+030199999V0201801N00101220001CN0100001N9+01611+00441999999ADDAY101061GF101991001001999999001051IA1009KA1999N+01111MD1210061+9999MW1051
0025724550139471939120222004+39050-096767SAO  +0324FRI  V0203201N005712200019N1600001N9+00911-00531101861ADDGA1061+999999029MW1001
0025722485139441939071908004+32500-093683SAO  +0053BAD  V0202001N003612200019N0192001N9+02521+02071101451ADDGA1001+999999999MW1001
0072101700999991939051303004+54183+012100FM-12+000299999V0200501N00671220001CN0200001N9+00721+00331101971ADDAY101999GF101991001001999999001011EQDQ01+000032APCTENQ02+000002APC3  
0041722250138291939062715004+32333-085000SAO  +0071LSF  V0203601N000510075019N0160001N9+02571+02241102031ADDGA1051+999999059GA2021+999999039MW1001
0037085890999991939012412004+14917-023517FM-12+003499999V0203601N00261220001CN0100001N9+99999+99999101301ADDAY121999GF107991001001999999051999
0051100020999991939021412004+53767+006067FM-12+999999999V0202701N002619999999N0200001N9+00611+99999103101ADDAY121999GF108991011021012501011071MD1810081+9999
0057109620999991939070612004+47800+011017FM-12+030199999V0202901N00101036001CN0200001N9+01611+01171101131ADDAY181061GF107991041081004501071999MD1410001+9999MW1251
0087102130999991939071106004+52667+007933FM-12+000799999V0202701N00671012301CN0200001N9+01281+99999101971ADDAA199000691AY121999GF107991061051012501041999IA1009KA1999N+01221MD1210101+9999MW1601
0043103160999991939101315004+51967+008550FM-12+004499999V0202701N00461220001CN0040001N9+01221+99999100411ADDAY111999GF102991011011012501041011MW1051
0057105590999991939032812004+50467+011083FM-12+025699999V0202501N00261000151CN0005001N9+00001+00001100151ADDAY141061GF109991091999000251999999MD1210101+9999MW1431
0057107270999991939091515004+49017+008383FM-12+003599999V0202001N00261036001CN0200001N9+01391+01391100921ADDAY181031GF108991021081004501021999MD1210061+9999MW1251
0067834230999991939072212004-16683+049300FM-12+073299999V0201401N001019999999N0100001N9+01891+99999101871ADDGF106991999999999999999999IA1009KA1999M+03001KA2999N+01391MW1111
0025722860231191939110111004+33900-117250SAO  +0466RIV  V0209991C000012200019N0160001N9+00961+00301101391ADDGA1001+999999999MW1001
0029719660999991939101300004+64067-139483FM-12+032499999V0202701N002619999999N0500001N9-01221+99999103421ADDGF100991001999999999999999
0041745980137021939080807004+37083-076350SAO  +0002LFI  V0202001N005112200019N0112001N9+02411+02181101691ADDGA1001+999999999GA2051+999999029MW1001
004594374099999193905072300N-23380+150470AUST +0014YBRK V0201585N004659999999N999999999+99999+99999999999ADDGA1005+999999999GF100995004999999999999999
0076105760999991939110918004+50700+012467FM-12+009499999V0202301N00101004501CN0020001N9+01111+00891101601ADDAY121061GF106991061051004501001001IA1009KA1999M+01391MD1810061+9999MW1051
0029719460999991939121912004+61867-121350FM-12+012799999V0209991C000019999999N0040001N9-02501+99999101521ADDGF104991041999999999999999
0057100460999991939091421004+54383+010150FM-12+000999999V0202501N00261030001CN0040001N9+01391+01281100331ADDAY111999GF107991021051008001071999MD1310061+9999MW1051
0081101780999991939073118004+53917+013233FM-12+000299999V0202501N00931220001CN0200001N9+02221+01561101311ADDAA199000591AY111999GF104991021021008001041021IA1009KA1999M+02721MD1110061+9999
0076102130999991939090309004+52667+007933FM-12+000799999V0201101N00671220001CN0040001N9+02221+99999101631ADDAY121999GF104991999001999999031001MD1990061+9999MW1051EQDQ01+000002SCOTLC
0070122000999991939033115004+53917+014283FM-12+999999999V0200501N00671220001CN0100001N9+00281-00111102271ADDAY101999GF101991011011008001001001MD1410001+9999EQDQ01+000032APCTEN
0057107100999991939102403004+49317+008100FM-12+020599999V0202501N01541000151CN0000001N9+00221+00171103681ADDAY151031GF109991091999000251999999MD1710181+9999MW1471
0029710950999991939111601004+72700-078000FM-12+000399999V0200901N001519999999N9999999N9-01891+99999999999ADDGF108991081999999999999999
0025722535129091939082014004+29383-098567SAO  +0207SKF  V0203601N000512200019N0160001N9+02631+02181101661ADDGA1011+004509059MW1001
0062104800999991939041206004+51300+013067FM-12+004999999V0201601N00101220001CN0040001N9+00891+00441999999ADDAY101061GF101991001001999999001999IA1009KA1999N+00221MW1051
0078100910999991939083012004+54600+013233FM-12+000199999V0203201N00101030001CN0100001N9+02221+01781101471ADDAY121999GF106991021031008001011071MW1171EQDQ01+000032APCTENQ02+000002APC3  
0087104570999991939072606004+51750+011067FM-12+003899999V0203201N00461001501CN0040001N9+01611+01501101191ADDAA199000591AY161061GF108991071051001501021999IA1009KA1999N+01111MD1310101+9999MW1051
0051121070999991939042409004+54283+016117FM-12+999999999V0202701N00931007801CN0200001N9+00721+00111100111ADDAY121999GF107991061081008001061999MD1110121+9999
0087105100999991939073106004+50350+006950FM-12+018999999V0202501N00461002401CN0200001N9+01391+99999101411ADDAA199000391AY121061GF108991081081002501999999IA1089KA1999N+01281MD1310241+9999MW1611
0057103280999991939080812004+51950+008917FM-12+005899999V0201101N00461030001CN0100001N9+01721+99999101011ADDAY161999GF108991041081004501071031MD1810021+9999MW1051
0070122250999991939051818004+53267+016467FM-12+003899999V0201401N00101220001CN0040001N9+01781+00891100511ADDAY101999GF104991021011008001001041IA1009KA1999M+02001MD1610021+9999
0076110090999991939011806004+48183+014033FM-12+031999999V0209991C00001000151CN0000501N9+00221+99999100601ADDAY101061GF109991091999000251999999IA1309KA1999N-00391MD1710021+9999MW1471
0081267020999991939122218004+54733+020567FM-12+000999999V0202901N00261220001CN0100001N9-00111-00441100781ADDAA199011091AY181999GF100991001001999999001001IA1319KA1999M+00001MD1310161+9999
0073103820999991939111718004+52467+013133FM-12+001499999V0202701N00461030001CN0100001N9+00611+00501101101ADDAA199001091AY181999GF107991021051004501041999IA1089KA1999M+00781MW1251
0057109080999991939020915004+47867+008017FM-12+045599999V0202701N01901001501CN0200001N9+00111+00001095771ADDAY121031GF108991081051001501999999MD1210041+9999MW1051
0074726770240331939091106004+45800-108533SAO  +1088BIL  V0202481N005112200019N0800001N1+02241+00351100101ADDGA1999+018009999MD1710071+9999MW1001EQDQ01+000012APCTENQ02+000002APC3  
0303722265138211939011919003+32383-086350SAO  +0053MXF  V02031559006752200019N0240005N9+01225+00285101905ADDGA1001+999999999GA2999+999999999GA3999+999999999GD19005+9999999GD29005+9999999GD39005+9999999GD49999+9999999EQDN01 00900CCLHT 3N02 00000JPWTH 1QNNE11 1 09900E11 1 09900E11 1 09900E11 1 09999G11 3 00900H11U1 00999H11 1 00999H11 1 00999K11 1 00037L11 1 01500N11 1 00000Q11 1 10190S11 1 00054W11 1 88013
0057102890999991939031115004+53317+013867FM-12+000899999V0200201N00671030001CN0200001N9+00111-00111102311ADDAY181999GF106991041081004501061001MD1710041+9999MW1271
0043104480999991939061412004+51483+010783FM-12+005599999V0202501N00931002401CN0100001N9+00891+00441101711ADDAY181061GF107991071081002501999999MW1801
0025725377148041939041922004+42617-082817SAO  +0176MTC  V0202301N008710030019N0192001N9+00461+00081100511ADDGA1081+999999059MW1611
0076106530999991939122418004+49650+009967FM-12+008599999V0203401N00101001501CN0010001N9-00281-00281102261ADDAY121061GF108991081051001501999999IA1309KA1999M-00221MD1810061+9999MW1101
0076103840999991939090306004+52483+013433FM-12+001799999V0200701N00461220001CN0040001N9+01781+01561102021ADDAY111999GF100991001001999999001001IA1009KA1999N+01611MD1310101+9999MW1051
0057104490999991939102412004+51483+010317FM-12+009099999V0202301N00461002401CN0020001N9+00611+00501100901ADDAY161061GF108991081061002501999999MD1810261+9999MW1601
0057103570999991939022512004+52833+013700FM-12+001399999V0202301N00261220001CN0040001N9+01111+00221101331ADDAY101999GF102991001001999999001011MD1990121+9999MW1051
0043103380999991939111000004+52417+009750FM-12+001699999V0202501N00461007801CN0040001N9+99999+99999999999ADDAY121999GF108991061051008001999999MW1211
004594374099999193911262300N-23380+150470AUST +0014YBRK V0203385N002659999999N999999999+02825+99999999999ADDGA1055+007505999GF107995054999007505999999
0057100460999991939011803004+54383+010150FM-12+000999999V0201801N002619999999N0020001N9+00781+00671099071ADDAY161999GF108991041051000751999999MD1710201+9999MW1631
0025722640930351939050515004+30367-104017SAO  +1481MRF  V0202031N002112200019N0800001N1+01961+01071101461ADDGA1021+999999021MW1001
0076103200999991939060606004+51933+008317FM-12+002199999V0201401N00101220001CN0100001N9+02111+99999102531ADDAY101999GF100991001001999999001001IA1009KA1999N+01501MD1210101+9999MW1051
0057102130999991939121103004+52667+007933FM-12+000799999V0200901N00671004501CN0020001N9+00111+99999101791ADDAY121999GF108991081051004501999999MD1110141+9999MW1051
0057104730999991939103109004+51350+011967FM-12+003399999V0200901N00261007801CN0100001N9+00281-00111102301ADDAY121031GF108991071051008001999999MD1010101+9999MW1051
0025911700225081939121804004+21483-158033SAO  +0271PHHI V0203201N002612200019N1600001N9+02071+01571101661ADDGA1999+013509999MW1001
0009724050137431939020804004+38850-077033SAO  +0020DCA  V0202251N001012200019N0080001N1+00081-00041102571ADDMW1051
0025691174999991939050122004+39833-076117SAO  +0002KQAH V0203151N003610150019N1600001N1+01411-00151101351ADDGA1051+999999089MW1001
0025691174999991939040811004+39833-076117SAO  +0002KQAH V0200681N003610240019N0112001N1+00301-00651101801ADDGA1081+999999049MW1001
0015726980242291939022315004+45600-122650SAO  +0012PDX  V0202701N001510024019N0032001N1+00581+00521999999ADDMW1451MW2511
0057108650999991939013009004+48183+011550FM-12+015599999V0200701N00671004501CN0100001N9-00111-00281101841ADDAY121031GF108991081051004501999999MD1990021+9999MW1051
0025724338138021939060613004+38550-089983SAO  +0134BLV  V0202301N002612200019N0240001N9+02461+02071101691ADDGA1051+999999039MW1001
0009726980242291939070200004+45600-122650SAO  +0012PDX  V0202931N005112200019N0640001N1+02411+01021999999ADDMW1001
0025724338138021939100404004+38550-089983SAO  +0134BLV  V0209991C000012200019N0160001N9+01461+01021101631ADDGA1001+999999999MW1001
0051103930999991939082503004+52200+014117FM-12+003299999V0200901N00671220001CN0100001N9+01501+00831101811ADDAY101031GF101991999001999999041001MD1810021+9999
0063121010999991939032718004+54150+015350FM-12+000199999V0200701N00931004501CN0040001N9+00501+00391100821ADDAY121999GF108991071051004501999999IA1009MD1810181+9999MW1051
0051105500999991939081209004+50967+010750FM-12+009199999V0202901N00461030001CN0100001N9+01611+01331102131ADDAY161031GF107991041071004501071999MD1010001+9999
0089871490999991939032912004-26800-060433FM-12+009099999V0201801N00261220001CN0040001N9+01611+01331102131ADDAY111999GF107991001001999999001061IA1089KA1999M+02501KA2999N+01391MD1310241+9999MW1021
0041725115147111939070704004+40200-076767SAO  +0097MDT  V0201801N004612200019N0128001N1+02411+02181101691ADDGA1041+999999049GA2011+999999009MW1001
0037167380999991939050812004+36767+024417FM-12+018099999V0203201N00101220001CN0100001N9+02281+99999101551ADDAY121999GF104991001001999999001061
0039722640930351939022412004+30367-104017SAO  +1481MRF  V0203601N001512200019N0640001N1-00311-00871101491ADDGA1021+999999021MD1610061+9999MW1001
0059038040999991939032101004+49933-006300FM-12+005099999V0203601N006719999999N0200001N9+00781+00561102521ADDGA1011+999999019GF102991021051008001001001MD1310041+9999
004594926099999193909172000N-35320+149200AUST +0577YSCB V0209999C000059999999N999999999+00395+99999999999ADDGA1005+999999999GF106995004999999999999999
0043840450999991939112513004-00150-078483FM-12+281899999V0209991C00001007801CN0500001N9+01221+99999103861ADDAY141999GF107991071999008001999999MW1021
0039745980137021939082109004+37083-076350SAO  +0002LFI  V0201801N005112200019N0112001N9+02571+02351101291ADDGA1001+999999999MD1410001+9999MW1001
0009722860231191939110419004+33900-117250SAO  +0466RIV  V0201101N002112200019N0160001N9+02911+00191101561ADDMW1001
0051165970999991939121306004+35900+014517FM-12+008599999V0202901N00671220001CN0200001N9+01281+99999101321ADDAY181999GF102991021081008001071999MD1210181+9999
0070108560999991939092718004+48183+010867FM-12+016899999V0200501N00261012301CN0100001N9+00611+00221102291ADDAY121061GF107991071051012501001999IA1009KA1999M+00781MD1310081+9999
0051121000999991939070809004+54200+015667FM-12+000299999V0202501N00261030001CN0200001N9+02391+01111101671ADDAY111999GF106991011021008001071021MD1810061+9999
0054836860999991939091212004-21817-044950FM-12+091799999V0209991C000019999999N0005001N9+01281+99999101581ADDGF107991999999999999999999IA1009KA1999N+01221MW1111
0043843900999991939090513004-04567-081267FM-12+008799999V0202701N00671024001CN0500001N9+02391+99999101861ADDAY111999GF108991061999999999999999MW1031
0057103630999991939040312004+52000+012150FM-12+002499999V0202701N00461004501CN0100001N9+00891+00671100191ADDAY161999GF108991061051004501999999MD1710021+9999MW1211
0076128700999991939050406004+47000+020633FM-12+008899999V0202301N00101015001CN0040001N9+01281+01171100791ADDAY111999GF108991081051017501999999IA1009KA1999N+01111MD1310061+9999MW1051
0057108450999991939020609004+48433+010233FM-12+014599999V0209991C00001000151CN0000001N9-00721-00831103431ADDAY141031GF109991091999000251999999MD1110021+9999MW1451
0057104690999991939062412004+51400+012217FM-12+004199999V0202501N00101004501CN0020001N9+02281+02001099761ADDAY161061GF108991061051004501021999MD1710141+9999MW1211
0317722265138211939101603003+32383-086350SAO  +0053MXF  V02004559003652200019N0160005N9+01225+00615102345ADDGA1001+999999999GA2999+999999999GA3999+999999999GD19005+9999999GD29005+9999999GD39005+9999999GD49999+9999999MD1110061+9999EQDN01 00900CCLHT 3N02 00000JPWTH 1QNNE11 1 09900E11 1 09900E11 1 09900E11 1 09999G11 3 00900H11U1 00999H11 1 00999H11 1 00999K11 1 00043L11 1 01000N11 1 00000Q11 1 10234S11 1 00054W11 1 22007
0107133630999991939011806004+43350+019367FM-12+076999999V0209991C00001220001CN0100001N9-00111-00111102481ADDAY111999GF106991999001999999041001IA1109KA1999N-00281EQDQ01+000002SCOTLCQ02+000032APCTENQ03+000002APC3  
0303722265138211939120407003+32383-086350SAO  +0053MXF  V02015859001552200019N0160005N9+00225+00065101805ADDGA1001+999999999GA2999+999999999GA3999+999999999GD19005+9999999GD29005+9999999GD39005+9999999GD49999+9999999EQDN01 00900CCLHT 3N02 00000JPWTH 1QNNE11 1 09900E11 1 09900E11 1 09900E11 1 09999G11 3 00900H11U1 00999H11 1 00999H11 1 00999K11 1 00033L11 1 01000N11 1 00000Q11 1 10180S11 1 00036W11 1 54003
0303722265138211939061808003+32383-086350SAO  +0053MXF  V02018059003652200019N0160005N9+02395+02225100025ADDGA1001+999999999GA2999+999999999GA3999+999999999GD19005+9999999GD29005+9999999GD39005+9999999GD49999+9999999EQDN01 00900CCLHT 3N02 00000JPWTH 1QNNE11 1 09900E11 1 09900E11 1 09900E11 1 09999G11 3 00900H11U1 00999H11 1 00999H11 1 00999K11 1 00072L11 1 01000N11 1 00000Q11 1 10002S11 1 00075W11 1 55007
0057104300999991939020212004+51717+008367FM-12+002399999V0200701N00261220001CN0020001N9-00111+99999102291ADDAY121061GF102991021051004501001001MD1990021+9999MW1051
0076101270999991939013106004+53533+008150FM-12+000499999V0202501N00261004501CN0020001N9-00111+99999102351ADDAY121999GF108991081051004501999999IA1139KA1999N-00221MD1710021+9999MW1051
0051105490999991939042409004+50850+010467FM-12+027999999V0201801N01231000601CN0200001N9+00111+00001099871ADDAY141031GF108991081081000751999999MD1410001+9999
0041745700138401939072805004+39833-084050SAO  +0254FFO  V0209991C000012200019N0080001N9+02131+02071101461ADDGA1021+015009059GA2051+999999049MW1111
0057106370999991939030603004+50050+008600FM-12+003499999V0202001N00931004501CN0020001N9+00891+00781101571ADDAY161031GF108991081051004501999999MD1810241+9999MW1631
0009911800999991939083100004+21333-157950SAO  +0009PHIK V0200901N008210114019N0240001N1+02741+01851101561ADDMW1001
0051100020999991939022406004+53767+006067FM-12+999999999V0201401N00461007801CN0100001N9+00501+99999100401ADDAY121999GF108991081041008001999999MD1310121+9999
0025725377148041939111610004+42617-082817SAO  +0176MTC  V0202301N003112200019N0096001N9+00631-00151102341ADDGA1001+999999999MW1051
0043840480999991939062517004-00083-078283FM-12+270099999V0209991C000019999999N0500001N9+99999+99999999999ADDAY111999GF106991041999008001999999MW1021
0057105130999991939081303004+50983+006900FM-12+001599999V0203401N00101220001CN0020001N9+01281+01171102201ADDAY121031GF102991999001999999041001MD1610021+9999MW1051
0037124140999991939121409004+51267+015567FM-12+005999999V0200701N00461007801CN0020001N9+99999+99999999999ADDAY121999GF108991061051008001031999
0057104480999991939112412004+51483+010783FM-12+005599999V0209991C00001001501CN0010001N9-00111-00281101721ADDAY141061GF108991081051001501999999MD1710201+9999MW1101
0057116030999991939113012004+50767+015067FM-12+038799999V0202901N00931004501CN0040001N9+01111+99999101221ADDAY161999GF108991061061004501021999MD1610101+9999MW1631
0009724050137431939081002004+38850-077033SAO  +0020DCA  V0201801N001010105019N0128001N1+02571+02411101291ADDMW1001
0051100670999991939022015004+54500+011250FM-12+000399999V0203601N00461004501CN0100001N9+00281+99999102191ADDAY121999GF107991071051004501999999MD1310101+9999
0051061600999991939111809004+55767+012317FM-12+001999999V0202901N00931004501CN0100001N9+00501+99999101751ADDAY121999GF107991071051004501999999MD1310161+9999
0059035310999991939090613004+52483-001933FM-12+016399999V0202301N002619999999N0200001N9+01941+01281102291ADDGA1011+999999019GF107991041011008001071999MD1310021+9999
0055725115147111939081100004+40200-076767SAO  +0097MDT  V0203381N004112200019N0192001N1+02631+01571101831ADDGA1011+021009089GA2021+999999039MD1210141+9999MW1001
0057106420999991939072815004+50167+008967FM-12+003499999V0203401N00101220001CN0100001N9+02391+01441101791ADDAY111031GF104991041041012501031011MD1710101+9999MW1051
0057100460999991939122500004+54383+010150FM-12+000999999V0202501N00461004501CN0100001N9+00281+00221101221ADDAY161999GF108991081051004501999999MD1710041+9999MW1211
0057110100999991939092712004+48300+014317FM-12+038499999V0200501N00261007801CN0040001N9+00781+99999102131ADDAY121061GF108991081051008001999999MD1310141+9999MW1051
0081122320999991939102406004+53117+017967FM-12+002199999V0201401N00261001501CN0100001N9+00391+00331100961ADDAA199005091AY121999GF108991081051001501999999IA1089KA1999N+00391MD1610061+9999
0076067000999991939020906004+46233+006083FM-12+042399999V0200901N00101000151CN0005001N9-00391+99999103351ADDAY141999GF109991091999000251999999IA1139KA1999N-00501MD1310021+9999MW1101
0037108690999991939090421004+48317+011933FM-12+014199999V0202701N01231002401CN0020001N9+99999+99999999999ADDAY121031GF108991061061002501021999
0067167490999991939112306004+36433+028250FM-12+008899999V0203201N002619999999N0200001N9+01721+99999101761ADDAA199003091GF106991999041999999011001KA1999N+01611MD1310221+9999
0078835380999991939072312004-18233-043567FM-12+127599999V0203201N006719999999N0100001N9+01781+99999101421ADDAA124001091GF106991999999999999999999IA1089KA1999M+02221KA2999N+01221MW1111
0076166480999991939112906004+39633+022417FM-12+007599999V0203401N00101000151CN0000001N9+00221+99999102271ADDAY141999GF109991091999999999999999IA1009KA1999N+00111MD1310141+9999MW1471
0037133530999991939032912004+43867+018350FM-12+048899999V0203201N00461012301CN0100001N9+00781+99999101021ADDAY121999GF107991061051012501021999
0039722485139441939010506004+32500-093683SAO  +0053BAD  V0202301N006712200019N0160001N9+01411+00911101151ADDGA1001+999999999MD1010301+9999MW1001
0089121000999991939040406004+54200+015667FM-12+000299999V0201801N00671220001CN0040001N9+00611+00391099861ADDAA199005091AY121999GF104991001001999999071011IA1089EQDQ01+000042APCTENQ02+000062APC3  
0051103100999991939120521004+55367+007933FM-12+001699999V0202001N00261004501CN0040001N9+00391+99999099591ADDAY121999GF107991061051004501999999MD1310201+9999
0037124030999991939111009004+51683+015733FM-12+003199999V0202701N00461220001CN0040001N9+99999+99999999999ADDAY111999GF104991041031012501001999
0051108640999991939060512004+48067+011650FM-12+016799999V0200201N00461090001CN0200001N9+02221+01001101971ADDAY111061GF106991041011017501001071MD1810061+9999
0072121590999991939110603004+54033+019133FM-12+000299999V0201601N00461004501CN0100001N9+00611+00501101101ADDAY121999GF108991081051004501999999EQDQ01+000042APCTENQ02+000142APC3  
0051104000999991939060415004+51283+006767FM-12+001199999V0200501N00671220001CN0200001N9+02721+99999102211ADDAY101031GF101991001001999999001011MD1810061+9999
0043108680999991939122521004+48250+011550FM-12+014899999V0202701N00101000151CN0000501N9+99999+99999999999ADDAY141031GF109991091999000251999999MW1451
0009724567139211939031607004+39367-094917SAO  +0238FLV  V0203151N001512200019N0112001N1-00701-01031102951ADDMW1001
0023726770240331939090915004+45800-108533SAO  +1088BIL  V0202031N005710096019N0640001N1+01191+00581102741ADDMD1110401+9999MW1001
0057106370999991939021212004+50050+008600FM-12+003499999V0202501N00931007801CN0040001N9+01001+00781102241ADDAY161061GF108991061051008001999999MD1810221+9999MW1601
0051100030999991939010912004+53867+007933FM-12+000199999V0202501N01901004501CN0040001N9+00501+99999100091ADDAY121999GF108991081061004501999999MD1710301+9999
0095061800999991939061806004+55617+012650FM-12+000199999V0203601N001019999999N0040001N9+01721+99999101331ADDAA199005091AY121999GF107991011051017501071001IA1089MW1051EQDQ01+000042APCTENQ02+000082APC3  
0051105390999991939122806004+50350+009533FM-12+006699999V0200901N00261220001CN0040001N9-01111+99999102201ADDAY101061GF100991001001999999001001MD1310101+9999
0077167330999991939062618004+37117+026867FM-12+006299999V0203201N00261220001CN0100001N9+02891+99999101181ADDGF100991999001999999001001KA1999M+03281EQDQ01+000032APCTENQ02+000002APC3  
0057106874999991939022509004+49583+010900FM-12+010199999V0202701N00461220001CN0020001N9+00781+00391101821ADDAY101031GF101991999001999999071001MD1310101+9999MW1051
0037121080999991939060212004+54117+016683FM-12+002499999V0201401N00461220001CN0040001N9+99999+99999999999ADDAY101999GF100991001001999999001999
0110876370999991939071312004-37483-061933FM-12+023499999V0200901N002619999999N0200001N9-00111-00221102581ADDAY101999GF106991011041999999001031IA1189KA1999M+01501KA2999N-00281MW1021EQDQ01+000032APCTENQ02+000002APC3  
0037165300999991939081318004+40933+009500FM-12+000299999V0209991C99999220001CN9999999N9+02611+99999101551ADDAY121999GF104991041071012501071999
0039722535129091939021015004+29383-098567SAO  +0207SKF  V0203601N004612200019N0192001N9+01191-01311101931ADDGA1011+999999039MD1210341+9999MW1001
0009911800999991939092723004+21333-157950SAO  +0009PHIK V0201351N005110126019N0240001N1+02851+01851101391ADDMW1001
0057103430999991939101115004+52600+010033FM-12+001299999V0200901N00461004501CN0020001N9+00611+99999101601ADDAY121999GF108991081061004501999999MD1810061+9999MW1501
0037108450999991939101121004+48433+010233FM-12+014599999V0201801N00101220001CN0100001N9+99999+99999999999ADDAY101031GF102991021011008001001999
0063859370999991939013112004-52383-068417FM-12+000599999V0202301N004619999999N0200001N9+00891+99999101041ADDAY101999GF104991021071999999051031IA1009MD1310101+9999MW1021
0057101270999991939072303004+53533+008150FM-12+000299999V0202301N00461000151CN0005001N9+01281+01171100701ADDAY121999GF109991091999000251999999MD1710081+9999MW1471
0076167460999991939111118004+35500+024033FM-12+006399999V0200501N00261220001CN0200001N9+01391+99999101861ADDAY111999GF101991999001999999041001IA1009MD1110021+9999EQDQ01+000002SCOTLC
0025725115147111939120323004+40200-076767SAO  +0097MDT  V0202701N009810072019N0160001N1+00581+00131100441ADDGA1081+999999059MW1001
0025745700138401939020914004+39833-084050SAO  +0254FFO  V0200501N006712200019N0048001N9-00041-00311102301ADDGA1999+015009999MW1051
0039722536129111939072203004+29533-098283SAO  +0226RND  V0201401N007212200019N1600001N9+03021+01691101351ADDGA1001+999999999MD1210161+9999MW1001
0051107450999991939112015004+49117+009800FM-12+011999999V0200201N00261036001CN0200001N9+00281-00111102601ADDAY121031GF107991041081008001071031MD1310221+9999
0025724338138021939093019004+38550-089983SAO  +0134BLV  V0203601N003610120019N0160001N9+01461+00691102171ADDGA1051+999999059MW1001
0039724550139471939121309004+39050-096767SAO  +0324FRI  V0203201N003612200019N1600001N9+00081-00481102881ADDGA1001+999999999MD1110061+9999MW1001
0110878070999991939101712004-44050-070600FM-12+073099999V0203201N00461220001CN0100001N9+00781+00171999999ADDAY111999GF106991001001999999001021IA1089KA1999M+01001KA2999N+00221MW1021EQDQ01+000032APCTENQ02+000002APC3  
0070131680999991939061606004+45267+019800FM-12+008099999V0203601N00261012301CN0200001N9+02501+02441101211ADDAY121999GF108991081051012501999999IA1109KA1999N+02221MD1310101+9999
0023749105999991939080709004+40733-073600SAO  +003899999V0200231N001512200019N0112001N1+01961+01801101761ADDMD1510001+9999MW1001
0076108680999991939091806004+48250+011550FM-12+014899999V0202301N00101001501CN0020001N9+01111+01001101671ADDAY121061GF107991071061001501999999IA1089KA1999N+00781MD1710041+9999MW1051
0025722536129111939102023004+29533-098283SAO  +0226RND  V0201801N001512200019N1600001N9+02911+01351101481ADDGA1021+015009089MW1001
0029719070999991939072118004+58450-078133FM-12+002099999V0201801N010819999999N0090001N9+00941+99999100611ADDGF106991011031999999031001
0070135850999991939011912004+41333+021550FM-12+066199999V0202301N00261220001CN0200001N9+01221+00611101851ADDAY101999GF101991999001999999071001MD1810061+9999EQDQ01+000002SCOTLC
0059036270999991939090813004+51917-002583FM-12+006899999V0202001N006719999999N0100001N9+02441+01721101911ADDGA1011+999999019GF102991021011012501001001MD1810061+9999
0057106330999991939122515004+50050+008333FM-12+004299999V0209991C00001000151CN0000001N9-00391-00391101701ADDAY141031GF109991091999000251999999MD1610101+9999MW1451
0043841290999991939071717004-02167-079867FM-12+000399999V0209991C00001220001CN0500001N9+99999+99999101721ADDAY111999GF102991011999999999999999MW1001
0051021960999991939022212004+65833+024150FM-12+000999999V0209991C000019999999N0500001N9-00281+99999102671ADDAY121999GF108991041051017501011999MD1110081+9999
0043267130999991939091006004+54633+022567FM-12+002399999V0202701N00461220001CN0040001N9+99999+99999999999ADDAY101999GF102991001001999999041999MW1051
0043782680999991939022312004+20367-074500FM-12+001599999V0209991C00001220001CN0500001N9+01891+99999999999ADDAY111999GF102991021999008001999999MW1001
0072132420999991939100612004+44783+017217FM-12+015099999V0209991C00001012301CN0100001N9+01221+01001101131ADDAY121999GF107991071051012501001001EQDQ01+000032APCTENQ02+000002APC3  
0051125250999991939031715004+50833+017433FM-12+004799999V0202901N00261220001CN0200001N9+00001-00501101271ADDAY101999GF102991011021008001031001MD1610041+9999
0009725310148061939060507004+40300-088133SAO  +0228RAN  V0201581N002612200019N0192001N1+01461+01191101961ADDMW1001
0070130150999991939032206004+46067+014500FM-12+028499999V0202301N00101220001CN0100001N9-00501-00501100571ADDAY111999GF101991011041017501001001IA1139KA1999N-00501MD1210021+9999
0065037770999991939012313004+51350-000117FM-12+006699999V0203001N009319999999N0040001N9+00781+00391099731ADDGA1011+999999019GF108991071061004501021999MD1310341+9999MW1601
0059038560999991939042513004+50533-002450FM-12+001099999V0202501N002619999999N0200001N9+00831+00721100271ADDGA1011+999999019GF106991041051008001041001MD1310141+9999
0051107100999991939090603004+49317+008100FM-12+020599999V0209991C00001000151CN0000001N9+01281+01281104031ADDAY151031GF109991091999000251999999MD1310061+9999
0009726770240331939072616004+45800-108533SAO  +1088BIL  V0201801N003612200019N0800001N1+02351+01131101421ADDMW1001
0081166420999991939030806004+39667+020850FM-12+050299999V0209991C00001004501CN9999999N9+00781+99999999999ADDAA199002091AY161999GF108991081081004501999999IA1089KA1999N+00721MD1810121+9999
0063854060999991939091712004-18450-070317FM-12+002999999V0202301N006719999999N0040001N9+01721+99999101731ADDAY101999GF108991081041999999999999IA1009MD1810041+9999MW1031
0057103480999991939120321004+52233+010483FM-12+002499999V0202001N00671220001CN0100001N9+00501+00281100961ADDAY121999GF104991041051008001001999MD1810141+9999MW1051
0044719350999991939072401004+60850-115767FM-12+016199999V0209991C000019999999N9999999N9+01671+99999999999ADDGF106991061999999999999999MA1999999098711
0031691174999991939041623004+39833-076117SAO  +0002KQAH V0200901N006210015019N0064001N1+00581+00521102681ADDGA1081+999999079MW1451MW2611
0051103870999991939092321004+52533+013117FM-12+001099999V0203601N00101220001CN0200001N9+01001+00781101591ADDAY121031GF102991021001022501041001MD1210161+9999
0051121000999991939041212004+54200+015667FM-12+000299999V0200501N00461220001CN0200001N9+00781+00391101971ADDAY101999GF102991001001999999001021MD1810161+9999
0039722485139441939090712004+32500-093683SAO  +0053BAD  V0201801N000512200019N0096001N9+02181+02131101691ADDGA1001+999999999MD1010201+9999MW1111
0057105690999991939033012004+50533+012100FM-12+013799999V0200701N00461002401CN0010001N9+00501+00281101601ADDAY121061GF108991081051002501999999MD1990021+9999MW1101
0037623360999991939101206004+31117+033767FM-12+001099999V0209991C00001220001CN0100001N9+02281+99999101511ADDAY111999GF104991041011012501001999
0070103160999991939120915004+51967+008550FM-12+004499999V0202701N00101000151CN0002001N9+00611+99999101301ADDAY151999GF108991999999000251999999MD1310061+9999EQDQ01+000092SCOTLC
0043103400999991939041006004+51983+009517FM-12+002399999V0200501N00101220001CN0005001N9+99999+99999999999ADDAY101999GF100991001001999999001999MW1101
0057122250999991939050603004+53267+016467FM-12+003899999V0201101N00671007801CN0040001N9+00611+00001100301ADDAY121999GF108991061051008001021999MD1810161+9999MW1611
0025745700138401939080504004+39833-084050SAO  +0254FFO  V0209991C000012200019N1600001N9+01461+01411101491ADDGA1001+999999999MW1001
0043843900999991939121317004-04567-081267FM-12+008799999V0201801N00671220001CN0500001N9+02781+99999101721ADDAY101999GF102991001999999999999999MW1001
0051105490999991939021915004+50850+010467FM-12+027999999V0202701N00261000151CN0000501N9-00281-00281100311ADDAY171031GF109991091999000251999999MD1710031+9999
0070154200999991939062506004+44483+026133FM-12+009299999V0200901N00101220001CN0100001N9+02391+99999101301ADDAY101999GF104991001001999999031051IA1009KA1999N+01501MD1310241+9999
0062266140999991939090406004+55083+021800FM-12+000399999V0209991C00001220001CN0040001N9+99999+99999999999ADDAY101999GF100991001001999999001999MW1051EQDQ01+000902SCOLCB
0051122990999991939010521004+52850+015667FM-12+001199999V0201801N00101007801CN0100001N9+00111-00221100471ADDAY121999GF108991081051008001999999MD1810021+9999
0076104000999991939051606004+51283+006767FM-12+001199999V0201601N00461007801CN0040001N9+01221+99999100331ADDAY121061GF106991061071008001071999IA1009KA1999N+00781MD1990021+9999MW1051
0070154200999991939060806004+44483+026133FM-12+009299999V0200501N00461220001CN0200001N9+02221+99999102061ADDAY101999GF101991001001999999001011IA1009KA1999N+00781MD1810101+9999
0108875060999991939021112004-35450-069567FM-12+141899999V0200501N002619999999N0040001N9+00891+00061100251ADDAY111999GF104991021041022501001021IA1009KA1999M+02721KA2999N+00781MD1010582+9999MW1051EQDQ01+000582APC3  
0051103370999991939050309004+52150+009750FM-12+002799999V0200701N00931220001CN0200001N9+01001+99999101071ADDAY121999GF104991021011004501001081MD1210021+9999
0089876370999991939120112004-37483-061933FM-12+023499999V0200501N00261220001CN0500001N9+01501+00331101101ADDAY101999GF101991001001999999001011IA1009KA1999M+02501KA2999N+00111MD1210021+9999MW1011
0076128120999991939061806004+47250+016600FM-12+024199999V0203601N00261015001CN0200001N9+01781+01331100781ADDAY121999GF108991081051017501999999IA1089KA1999N+01501MD1110021+9999MW1051
0076104490999991939082706004+51483+010317FM-12+009099999V0209991C00001000151CN0010001N9+01611+01501101801ADDAY121061GF108991081051000251999999IA1089KA1999N+01281MD1310101+9999MW1101
0025722536129111939040201004+29533-098283SAO  +0226RND  V0202001N005112200019N0240001N9+03021-00261100511ADDGA1011+999999029MW1001
0057105760999991939021003004+50700+012467FM-12+009499999V0202001N00931004501CN0020001N9+00501+00391102511ADDAY161031GF108991081051004501999999MD1310041+9999MW1611
0039724567139211939081606004+39367-094917SAO  +0238FLV  V0202251N000510240019N1600001N1+02301+02241101521ADDGA1061+999999049MD1210141+9999MW1001
0076103700999991939121706004+52433+012450FM-12+000999999V0200901N00931007801CN0040001N9-00501-00671102841ADDAY111999GF108991081051008001001001IA1139KA1999N-00891MD1210061+9999MW1051
0065039730999991939042018004+54100-010067FM-12+000599999V0202301N004619999999N0100001N9+01111+00891102791ADDGA1011+999999019GF107991071041002501999999IA1009MD1810081+9999
0059038640999991939052113004+50817-001300FM-12+000299999V0202101N004619999999N0200001N9+01611+00721101621ADDGA1011+999999019GF106991061081012501001001MD1310021+9999
0076107270999991939122918004+49017+008383FM-12+003599999V0200501N00101220001CN0020001N9-01281-01441102121ADDAY101061GF100991001001999999001001IA1309KA1999M-01001MD1310161+9999MW1051
0041745700138401939081301004+39833-084050SAO  +0254FFO  V0201801N002612200019N1600001N9+02351+02131101751ADDGA1021+018009059GA2061+999999049MW1001
0051103430999991939051215004+52600+010033FM-12+001299999V0200701N00671030001CN0200001N9+01501+99999101491ADDAY121999GF106991041081012501061031MD1990021+9999
0063857320999991939111412004-38350-073883FM-12+003099999V0201801N012319999999N0200001N9+01501+99999101301ADDAY101999GF101991001001999999001011IA1009MD1310081+9999MW1001
0057106530999991939102912004+49650+009967FM-12+008599999V0201101N00671036001CN0100001N9+00281+00061100681ADDAY121061GF107991021051004501031001MD1210141+9999MW1051
0025745980137021939012712004+37083-076350SAO  +0002LFI  V0202901N007212200019N0160001N9-00371-00871102171ADDGA1021+999999029MW1001
0051103170999991939072415004+52283+008017FM-12+002799999V0201401N00461075001CN0100001N9+01721+99999999999ADDAY181999GF107991041011012501001061MD1810061+9999
0037122360999991939090406004+53733+018933FM-12+001999999V0209991C00001220001CN0020001N9+99999+99999999999ADDAY101999GF100991001001999999001999
0100125000999991939122706004+50900+015783FM-12+010499999V0203601N00101220001CN0040001N9-01281-01281101951ADDAA199002091AY111999GF102991011031004501041001IA1319KA1999N+99999MD1310201+9999EQDQ01 +01282ATMN  
0023724956232111939092103004+38067-122517SAO  +0003SRF  V0203151N002612200019N1600001N1+03021+01191101351ADDMD1310061+9999MW1001
0051114060999991939082609004+50083+012400FM-12+047399999V0209991C00001220001CN0100001N9+02221+99999101491ADDAY101031GF101991011011012501001001MD1710201+9999
0067836870999991939101112004-21233-045000FM-12+083999999V0200901N009319999999N0010001N9+02001+99999101611ADDGF100991999999999999999999IA1009KA1999M+03001KA2999N+01221MW1051
0039724550139471939112109004+39050-096767SAO  +0324FRI  V0200201N001512200019N0128001N9-00201-00261102201ADDGA1001+999999999MD1210041+9999MW1001
0025726810241311939122015004+43567-116217SAO  +0874BOI  V0201351N001512200019N0480001N1+00131+00021999999ADDGA1999+012009999MW1001
0057103170999991939120309004+52283+008017FM-12+002799999V0202501N00931030001CN0040001N9+00611+99999101271ADDAY121999GF106991041051012501071001MD1310021+9999MW1051
002994753099999193912172300N-33600+150780AUST +0021YSRI V0209999C000059999999N999999999+02835+99999999999ADDGF100995999999999999999999
0057043350999991939061218004+73483-021567FM-12+000399999V0200901N00461220001CN0500001N9+00111+99999101251ADDAY101061GF100991001001999999001001IA1159MD1810141+9999
0057266990999991939122312004+54783+020617FM-12+000699999V0202501N00261030001CN0020001N9+00001-00221100951ADDAY121999GF108991041051004501011999MD1710101+9999MW1051
0051108100999991939111406004+48600+008200FM-12+035599999V0203601N00101021001CN0100001N9+00721+00611098821ADDAY121061GF107991071001022501021999MD1310041+9999
0089878280999991939021312004-43233-065350FM-12+001399999V0202301N00671220001CN0200001N9+01891+00671101761ADDAY101999GF100991001001999999001001IA1009KA1999M+02221KA2999N+01391MD1210141+9999MW1001
0089877650999991939082112004-41133-071283FM-12+085499999V0203201N00671007801CN0100001N9+00391+00001999999ADDAY111999GF108991081051008001999999IA1089KA1999M+00611KA2999N+00001MD1710101+9999MW1161
0084167440999991939050418004+36417+025433FM-12+022399999V0201401N015419999999N9999999N9+01781+01501100721ADDAA199000591AJ100009199999999AY161999GF108991031061999999031999IA1089KA1999M+02281
0081105130999991939071506004+50983+006883FM-12+004899999V0202001N00261220001CN0100001N9+02001+99999100831ADDAA199000691AY161061GF104991001001999999071071IA1009KA1999N+01781MD1110061+9999
0009726980242291939060118004+45600-122650SAO  +0012PDX  V0200901N001012200019N0192001N1+01691+00631999999ADDMW1001
0057101620999991939021712004+53617+011383FM-12+001499999V0202501N00261002401CN0040001N9+00391+99999101501ADDAY121999GF106991061051002501001001MD1990101+9999MW1051
0057105130999991939101500004+50983+006900FM-12+001599999V0202501N00101007801CN0040001N9+01221+01001099601ADDAY161061GF108991071051008001999999MD1510061+9999MW1611
0057102130999991939123021004+52667+007933FM-12+000799999V0202501N00931220001CN0100001N9-00111+99999100571ADDAY111999GF104991021081017501011001MD1210061+9999MW1051
0057108030999991939110400004+48017+007833FM-12+007599999V0209991C00001000601CN0005001N9+00501+00441100751ADDAY141061GF109991091051000751999999MD1710321+9999MW1431
0065036270999991939032813004+51917-002583FM-12+006899999V0203501N002619999999N0040001N9+00441+00221100701ADDGA1011+999999019GF108991081051004501999999MD1810041+9999MW1051
0051100020999991939031012004+53767+006067FM-12+999999999V0200201N00671220001CN0200001N9+00611+99999102401ADDAY101999GF102991021071008001001001MD1310181+9999
0009722860231191939100117004+33900-117250SAO  +0466RIV  V0201401N001010075019N0080001N9+01851+01301101291ADDMW1051
0102033110999991939022607004+53317-004617FM-12+000899999V0202701N006719999999N0200001N9+00441+00221100531ADDAA199001091GA1011+999999019GF106991061021008001031001IA1089KA1999M+00781KA2999N+00441MD1310021+9999
0057116430999991939060912004+50750+015733FM-12+049199999V0203401N00671220001CN0100001N9+00391+00331104001ADDAY141999GF104991041081000251999999MD1310041+9999MW1051
0041722250138291939080522004+32333-085000SAO  +0071LSF  V0202701N002612200019N0160001N9+03351+01911101051ADDGA1001+999999999GA2011+999999049MW1001
004594653099999193912100200N-32130+133720AUST +0017YPCD V0201805N011359999999N999999999+02785+99999999999ADDGA1005+999999999GF103995004999999999999999
