0025722860231191940110423004+33900-117250SAO  +0466RIV  V0202901N004612200019N0160001N9+02071-00151101521ADDGA1001+999999999MW1001
0039722535129091940071103004+29383-098567SAO  +0207SKF  V0201101N005112200019N1600001N9+02911+01961101391ADDGA1001+999999999MD1310061+9999MW1001
0057108570999991940051500004+48067+010917FM-12+018999999V0201101N00261220001CN0100001N9+00611+00501101341ADDAY101061GF100991001001999999001001MD1310221+9999MW1051
0087114480999991940071806004+49733+013350FM-12+035699999V0202501N00461007801CN0100001N9+01501+99999101071ADDAA199002091AY161999GF107991071051008001071999IA1089KA1999N+01281MD1310101+9999MW1211
004594926099999194004270200N-35320+149200AUST +0577YSCB V0201355N007259999999N999999999+01225+99999999999ADDGA1075+012005999GF107995074999012005999999
0260722265138211940081901003+32383-086350SAO  +0053MXF  V02018059003650457249N1600005N9+02615+02225101255ADDGA1021+007624084GA2051+999999044GD19025+9999999GD29055+9999999GD39999+9999999GD49999+9999999EQDN01 00000JPWTH 1QNNE11 1 09903E11 1 09906E11 1 09999E11 1 09999G11 1 00150H11 1 11025H11 1 21999K11 1 00072L11N1 99999N11 1 00000Q11 1 10125S11 1 00079W11 1 55007
0048838600999991940081012004-26317-051817FM-12+108999999V0209991C000019999999N9999999N9+01391+99999102561ADDGF106991999999999999999999KA1999N+00221MW1111
0009726625240061940071813004+44133-103100SAO  +0979RCA  V0203401N007212200019N1600001N9+02351+01571101051ADDMW1001
0039911700225081940012821004+21483-158033SAO  +0271PHHI V0202701N003610030019N0096001N9+02071+01801101021ADDGA1081+999999059MD1110061+9999MW1511
0051106600999991940090312004+50050+010167FM-12+007399999V0203401N00461007801CN0200001N9+01781+00891102381ADDAY121061GF106991061011008001001001MD1010001+9999
0051105590999991940011109004+50467+011083FM-12+025699999V0200901N00261220001CN0200001N9-01281-01721102881ADDAY101031GF100991001001999999001001MD1310061+9999
0105100200999991940113018004+55017+008433FM-12+999999999V0202501N004619999999N0100001N9+00281-00111103741ADDAY121999GF109991011051004501001999IA1009KA1999M+00501MD1210061+9999EQDQ01+000042APCTENQ02+000062APC3  
0025691174999991940110811004+39833-076117SAO  +0002KQAH V0203151N002110120019N1600001N1+00461-00041101521ADDGA1081+003609049MW1001
0081104570999991940072206004+51750+011067FM-12+003899999V0202301N00261220001CN0200001N9+01611+01171101361ADDAA199000691AY111061GF102991021051012501041001IA1009KA1999N+01221MD1810041+9999
0076122250999991940050706004+53267+016467FM-12+003899999V0200901N00261007801CN0040001N9+01111+00891101791ADDAY121999GF108991071051008001021999IA1009KA1999N+00891MD1310241+9999MW1051
0009691174999991940122801004+39833-076117SAO  +0002KQAH V0200901N004110001519N0000001N1+00741+00741101151ADDMW1451
0009725115147111940031819004+40200-076767SAO  +0097MDT  V0201131N006712200019N0032001N1+00911+00411101081ADDMW1051
0057101810999991940082212004+54367+013083FM-12+000299999V0202901N00461030001CN0040001N9+01281+01281099091ADDAY161999GF108991021051002501021999MD1210061+9999MW1631
0076104730999991940060406004+51350+011967FM-12+003399999V0203401N00461004501CN0010001N9+01281+01171102611ADDAY121061GF108991081051004501999999IA1009KA1999N+01001MD1210101+9999MW1101
0087106330999991940112306004+50050+008333FM-12+004299999V0203201N00461220001CN0040001N9+00501+00281102871ADDAA199000691AY111061GF104991999001999999051001IA1009KA1999N+00501MD1310261+9999MW1501
0061836480999991940070112004-20150-040333FM-12+003699999V0202301N004619999999N9999999N9+02281+99999102201ADDGF106991999999999999999999KA1999M+02891KA2999N+02001MW1111
0043125770999991940121612004+50300+021467FM-12+016499999V0200701N00461007801CN0100001N9+99999+99999999999ADDAY171999GF108991081051008001999999MW1701
0048834920999991940071212004-17767-041433FM-12+032999999V0200901N001019999999N9999999N9+01391+99999102501ADDGF108991999999999999999999KA1999N+01111MW1111
0076107270999991940081818004+49017+008383FM-12+003599999V0202301N00461220001CN0040001N9+02391+01441102041ADDAY101061GF102991011051012501041021IA1009KA1999M+02501MD1810221+9999MW1051
0025724836232081940121014004+38650-121383SAO  +0024MCC  V0203601N001012200019N0016001N9+00241+00131101351ADDGA1001+999999999MW1451
0057106570999991940071712004+49767+009500FM-12+010299999V0202501N00261036001CN0100001N9+01721+01281100851ADDAY121061GF107991041071008001071001MD1810041+9999MW1051
0031691174999991940082722004+39833-076117SAO  +0002KQAH V0201131N004610018019N0024001N1+01851+01801101731ADDGA1081+999999079MW1451MW2611
0087126500999991940062418004+49233+019983FM-12+198899999V0201601N01541002401CN0200001N9+00781+00721099361ADDAA199000391AY181999GF107991071091002501999999IA1089KA1999M+00891MD1990101+9999MW1251
0084266940999991940122209004+54750+020283FM-12+000399999V0200501N00261007801CN0100001N9-00111-00441103591ADDGF108991081051008001999999MD1210051+9999MW1701EQDQ01+000042APCTENQ02+000062APC3  
0000784390999991940042518004+18550-072350FM-12+001699999V02099999999999999999N9999999N9+99999+99999999999
0081108530999991940100806004+48717+011217FM-12+011699999V0200501N00261012301CN0020001N9+00781+00721101941ADDAA199000391AY141061GF107991071051012501999999IA1089KA1999N+00721MD1110021+9999
0041722210138581940072320004+30500-086500SAO  +0025VPS  V0202501N001510420019N0320001N9+03521+02131101891ADDGA1021+018009089GA2031+999999049MW1001
0055911700225081940121115004+21483-158050SAO  +0257PHHI V0203201N002612200019N1600001N9+01801+01691101321ADDGA1001+999999999GA2021+999999039MD1710021+9999MW1001
0025749105999991940073122004+40733-073600SAO  +003899999V0203151N004112200019N0128001N1+02911+01741100911ADDGA1051+999999009MW1001
0009726770240331940071213004+45800-108533SAO  +1088BIL  V0202251N004612200019N1600001N1+01911+01131101831ADDMW1001
0015726980242291940091401004+45600-122650SAO  +0012PDX  V0202481N002610120019N1600001N1+02071+01411999999ADDMW1171MW2611
0025724567139211940030120004+39367-094917SAO  +0238FLV  V0201131N003110210019N0128001N1+00631+00301101351ADDGA1081+999999049MW1001
0041788071999991940110317004+08967-079550SAO  +0012MBLB V0209991C000012200019N1600001N1+02961+02571101081ADDGA1021+003609089GA2021+999999029MW1001
0057107320999991940102415004+49400+008733FM-12+017299999V0200501N00261036001CN0020001N9+00611+00501100531ADDAY121031GF108991041051008001021999MD1990021+9999MW1051
0043803360999991940010917004+01800-078767FM-12+000399999V0209991C000019999999N0500001N9+03001+99999999999ADDAY111999GF106991041999012501999999MW1021
0076102500999991940031203004+53333+011500FM-12+001299999V0202001N00461012301CN0100001N9+00501+99999100171ADDAY121999GF108991999051012501001001MD1810201+9999MW1051EQDQ01+000062SCOTLC
0025722860231191940042808004+33900-117250SAO  +0466RIV  V0202301N000510027019N0112001N9+01131+00911101931ADDGA1081+999999059MW1001
0051107650999991940121115004+49250+011100FM-12+011799999V0202501N00261002401CN0040001N9+00111-00111099771ADDAY121031GF108991081051002501999999MD1210121+9999
0051107270999991940010812004+49017+008383FM-12+003599999V0203601N00101000151CN0002001N9-00221-00221102081ADDAY151061GF109991091999000251999999MD1810161+9999
0061833700999991940061912004-15633-053917FM-12+048099999V0209991C000019999999N9999999N9+01611+99999101891ADDGF102991999999999999999999KA1999M+02891KA2999N+00891MW1111
0043123590999991940041606004+52650+019083FM-12+006199999V0201801N00461030001CN0040001N9+99999+99999999999ADDAY121999GF107991041051008001011999MW1051
0051125700999991940080112004+50850+020667FM-12+999999999V0203601N00261030001CN0200001N9+01611+00721101551ADDAY181999GF107991041081008001041021MD1810101+9999
0043111430999991940121809004+47317+012867FM-12+075199999V0209991C00001000151CN0000001N9-01391+99999101091ADDAY141031GF109991091999000251999999MW1451
0087107370999991940102818004+48683+009000FM-12+013199999V0201101N00261001501CN0020001N9+00221+00111102131ADDAA199000591AY161061GF108991061061001501011999IA1089KA1999M+00281MD1310061+9999MW1611
0041788071999991940120719004+08967-079550SAO  +0012MBLB V0203381N002610420019N1600001N1+03131+02241100681ADDGA1021+004209089GA2041+999999039MW1001
004594203099999194011200400N-17950+122230AUST +0009YBRM V0202705N004659999999N999999999+03205+02405999999ADDGA1005+999999999GF102995004999999999999999
0025749105999991940122020004+40733-073600SAO  +003899999V0202031N004110180019N0032001N1+00801+00461102071ADDGA1081+999999049MW1051
0087107550999991940082006004+49317+010667FM-12+014299999V0203401N00461004501CN0100001N9+01001+00891101401ADDAA199010091AY121061GF107991061071004501071999IA1089KA1999N+00891MD1210141+9999MW1051
0087115440999991940030806004+49467+017133FM-12+021999999V0209991C00001220001CN0005001N9-01001+99999101711ADDAA199000591AY171999GF104991021051012501041001IA1309KA1999N-01111MD1210081+9999MW1441
0043125190999991940082406004+50400+016400FM-12+017099999V0200501N00461000151CN0000501N9+99999+99999999999ADDAY161999GF109991091999000251999999MW1471
0057013840999991940121103004+60200+011083FM-12+020299999V0200201N00671002401CN0040001N9-00391+99999099741ADDAY171999GF108991081051002501999999MD1710021+9999MW1711
0057121620999991940082712004+54483+019967FM-12+000499999V0202001N00931007801CN0100001N9+02111+01441102031ADDAY121999GF107991061051008001031999MD1710101+9999MW1051
0070124150999991940051200004+51200+016083FM-12+003899999V0202901N00461220001CN0100001N9+00611+00391101921ADDAY111999GF102991011051012501001011MD1310011+9999EQDQ01+000002APC3  
0057104100999991940101121004+51400+006950FM-12+003799999V0209991C00001002401CN0010001N9+00891+00781101811ADDAY161031GF108991081051002501999999MD1310061+9999MW1511
0057105760999991940050409004+50700+012467FM-12+009499999V0209991C00001000151CN0002001N9+01281+01281100471ADDAY151031GF109991091999000251999999MD1310141+9999MW1451
0035834980999991940030600004-17733-039250FM-12+000499999V0203601N004619999999N9999999N9+02501+99999101081ADDGF107991999999999999999999MW1111
0057106370999991940120703004+50050+008600FM-12+003499999V0202701N00931220001CN0100001N9+00221+00001098311ADDAY161031GF102991021051008001001001MD1710061+9999MW1211
0025724338138021940111207004+38550-089983SAO  +0134BLV  V0202701N005112200019N1600001N9-00201-00651102511ADDGA1001+999999999MW1001
0061835870999991940042412004-19933-043933FM-12+091599999V02099999999999999999N9999999N9+02391+99999101481ADDGF104991999999999999999999KA1999M+02781KA2999N+01891MW1111
0025722860231191940011607004+33900-117250SAO  +0466RIV  V0200501N001512200019N0160001N9+00631-00371102101ADDGA1001+999999999MW1001
0025724550139471940102919004+39050-096767SAO  +0324FRI  V0202501N002612200019N1600001N9+01911+00581101901ADDGA1001+999999999MW1001
0033911820225211940090919004+21333-157950SAO  +0011PHNL V0201101N001512200019N1600001N9+02851+01961101591ADDGA1031+012609059MD1210161+9999
0043840450999991940032413004-00150-078483FM-12+281899999V0209991C00001004501CN0040001N9+01221+99999103861ADDAY111999GF107991071999004501999999MW1021
0051014520999991940121512004+58200+008083FM-12+001599999V0201801N00931030001CN0200001N9+00111+99999103321ADDAY111999GF106991011011012501041091MD1110081+9999
0057104820999991940122415004+51300+013550FM-12+003899999V0202501N00261004501CN0020001N9-00781-00941102971ADDAY171031GF108991081051004501999999MD1610041+9999MW1731
0025691174999991940021314004+39833-076117SAO  +0002KQAH V0203601N003610240019N0112001N1+00521+00131101351ADDGA1081+999999049MW1001
0043106570999991940071503004+49767+009500FM-12+010299999V0200501N00101220001CN0000501N9+99999+99999999999ADDAY101031GF102991021041012501001999MW1461
004594653099999194002020200N-32130+133720AUST +0017YPCD V0201805N006759999999N999999999+02045+99999999999ADDGA1015+009005999GF101995014999009005999999
0025785140999991940081023004+18500-067133SAO  +0075TJBQ V0200901N001010390019N1600001N1+02571+02461101561ADDGA1081+999999049MW1001
0015745980137021940122711004+37083-076350SAO  +0002LFI  V0200201N001510001519N0000001N9+01021+01021101121ADDMW1451MW2511
0057100200999991940121209004+55017+008433FM-12+999999999V0200501N00931007801CN0100001N9+00221+00111101241ADDAY121999GF107991071051008001999999MD1310341+9999MW1051
0057125500999991940121809004+50783+019183FM-12+025099999V0209991C00001220001CN0040001N9-01611-01781104521ADDAY101999GF100991001001999999001001MD1710121+9999MW1051
0051266990999991940042715004+54783+020617FM-12+000699999V0200501N00461015001CN0500001N9+01111+00001101951ADDAY121999GF107991071001017501071999MD1810081+9999
0057108354999991940100403004+48717+009700FM-12+011599999V0209991C00001220001CN0010001N9+00721+00611102171ADDAY101031GF100991001001999999001999MD1810021+9999MW1101
0057266970999991940011109004+54617+019883FM-12+000699999V0201801N00671220001CN0040001N9-02001-02171104901ADDAY111999GF102991021051008001041001MD1010021+9999MW1051
0087999999241551940100618005+45683-118850SAO  +045599999V02036059001552200049N999999999+01835+00445102545ADDMA1999999097125QNNG11U1 99999K11 1 00040M11 1 28680Q11 1 10254S11 1 00065W11 1 11003
0043109540999991940092812004+47817+010883FM-12+022199999V0202701N00931002401CN0100001N9+99999+99999999999ADDAY161061GF108991081051002501999999MW1211
0076104420999991940010318004+51083+010167FM-12+006699999V0209991C00001007801CN0020001N9-01001-01171101351ADDAY121061GF107991071051008001999999IA1309KA1999M-00891MD1710021+9999MW1051
0051101850999991940071615004+54100+013433FM-12+000199999V0200201N00461220001CN0200001N9+02001+01561100751ADDAY101999GF102991011011012501001051MD1610021+9999
0025722536129111940050917004+29533-098283SAO  +0226RND  V0200201N005110054019N0080001N9+01851+01741101961ADDGA1081+004209049MW1611
0051109610999991940110400004+47417+010983FM-12+090399999V0202901N02261012301CN0500001N9-00221-00221100371ADDAY171061GF106991061001012501071001MD1990061+9999
0041749105999991940061510004+40733-073600SAO  +003899999V0201801N005112200019N0064001N1+01851+01741101251ADDGA1021+015009059GA2041+999999049MW1451
0048837360999991940112012004-22100-045017FM-12+087299999V0209991C000019999999N9999999N9+02281+99999101181ADDGF102991999999999999999999KA1999N+01611MW1111
0055911800999991940092021004+21333-157950SAO  +0009PHIK V0201801N005110150019N1600001N1+02961+02181101391ADDGA1021+010509059GA2051+999999039MD1110041+9999MW1001
0051012710999991940121618004+63467+010933FM-12+015099999V0201801N01541030001CN0200001N9+00501+99999100481ADDAY161999GF108991041051012501071999MD1710281+9999
0076105760999991940090318004+50700+012467FM-12+009499999V0202301N00261007801CN0040001N9+01391+00941102431ADDAY121061GF106991061051008001011001IA1009KA1999M+01721MD1310021+9999MW1051
0035839950999991940080600004-32033-052650FM-12+000599999V0202301N006719999999N9999999N9+01501+99999101061ADDGF108991999999999999999999MW1501
0296999999149361940091308005+44383-098217SAO  +039599999V02036059003152200059N016000599+01225+00565101255ADDGA1999+000004999GD19999+9999999GD29999+9999999GD39999+9999999GD49999+9999999GF100995999999999999999999MA1999999096685EQDN01 00000JPWTH 1QNNE11 1 09999E11 1 09999E11 1 09999E11 1 09999G11U1 99999H11 1 99000K11 1 00042L11 1 01000M11 1 28550N11 1 00000Q11 1 10125S11 1 00054V11 1 00099W11 1 11006
0057109620999991940071212004+47800+011017FM-12+030199999V0202301N00671036001CN0200001N9+01001+00891100471ADDAY161061GF107991041051008001071999MD1710031+9999MW1211
0057121160999991940102812004+54450+017000FM-12+001299999V0202701N00101002401CN0100001N9+00501+00391102441ADDAY181999GF107991061081002501999999MD1210061+9999MW1251
0057060630999991940122012004+56300+009067FM-12+005199999V0200701N00671004501CN0040001N9-00221+99999103951ADDAY111999GF108991081051004501999999MD1510021+9999MW1051
0039722535129091940051006004+29383-098567SAO  +0207SKF  V0203401N001510210019N1600001N9+02021+01741101831ADDGA1081+999999039MD1210031+9999MW1001
0025745700138401940111505004+39833-084050SAO  +0254FFO  V0203401N006210210019N0128001N9-00261-00871102471ADDGA1081+999999039MW1001
0033911820225211940061616004+21333-157950SAO  +0011PHNL V0203201N001512200019N1600001N9+02351+02021101561ADDGA1999+008409999MD1210061+9999
0039722650999991940110221004+31933-102200SAO  +0871MAF  V0201581N008712200019N1600001N1+02131+00691101801ADDGA1021+999999041MD1710241+9999MW1001
0057115180999991940022000004+50100+014283FM-12+036399999V0203601N00931004501CN0040001N9-00611+99999101791ADDAY121999GF107991071051004501001001MD1310401+9999MW1051
0051124250999991940041812004+51133+016967FM-12+003799999V0202001N00261220001CN0200001N9+02111+00501100741ADDAY121999GF106991001001999999011071MD1710061+9999
0076111810999991940090818004+47967+016267FM-12+023599999V0201601N00101220001CN0100001N9+02781+99999100931ADDAY101061GF101991011011012501001001IA1009KA1999M+02781MD1810081+9999MW1051
0009723556999991940092510004+35667-095367SAO  +0186MKO  V0203601N007210210019N1600001N1+01521+01131101761ADDMW1001
0023724956232111940011818004+38067-122517SAO  +0003SRF  V0200901N004610027019N0064001N1+00351+00241101461ADDMD1110061+9999MW1051
0087121500999991940122706004+54383+018600FM-12+000599999V0209991C00001004501CN0040001N9-00391-00501101771ADDAA199000591AY171999GF108991081051004501999999IA1309KA1999N-00391MD1710161+9999MW1701
0037102700999991940091012004+52917+012800FM-12+001499999V0202001N001019999999N0500001N9+99999+99999999999ADDAY111999GF106991041011012501001999
0076100460999991940040706004+54383+010150FM-12+000999999V0201801N00461220001CN0100001N9+00281-00501103271ADDAY101999GF101991001001999999041081IA1139KA1999N+00001MD1810081+9999MW1051
0055724836232081940102000004+38650-121383SAO  +0024MCC  V0203201N003612200019N0096001N9+02911+01131101661ADDGA1021+999999039GA2041+999999029MD1710141+9999MW1051
0076108660999991940072906004+48133+011700FM-12+015699999V0202501N00101220001CN0100001N9+01111+00891102441ADDAY111061GF101991999001999999041001IA1009KA1999N+00721MD1210061+9999MW1051
0025691174999991940103008004+39833-076117SAO  +0002KQAH V0201581N002110060019N1600001N1+00851+00521102031ADDGA1081+999999059MW1001
0061829940999991940112512004-09667-035700FM-12+004599999V0200501N009319999999N9999999N9+02891+99999101361ADDGF101991999999999999999999KA1999M+03721KA2999N+02221MW1111
0092106870999991940021015004+49700+011833FM-12+012599999V0200201N00261220001CN0100001N9+00612-00172999999ADDAY101031GF100991001001999999001001MD1310181+9999MW1051EQDQ01+027933ATOT  Q02+027153ATOD  
0041722535129091940071514004+29383-098567SAO  +0207SKF  V0201401N004110030019N1600001N9+02631+02301101901ADDGA1061+999999059GA2021+999999039MW1001
0057071900999991940101703004+48550+007633FM-12+015499999V0209991C00001000151CN0002001N9+01001+99999101531ADDAY141999GF109991091999000251999999MD1810021+9999MW1451
0043110100999991940061012004+48300+014317FM-12+038499999V0200501N00261012301CN0100001N9+01611+99999101591ADDAY191061GF106991061091012501001001MW1921
0057105690999991940041509004+50533+012100FM-12+013799999V0202301N01541030001CN0100001N9+00721+00111100211ADDAY121031GF108991041051002501011999MD1810201+9999MW1051
0043101130999991940101718004+53700+007150FM-12+000499999V0200901N00261001501CN0010001N9+99999+99999999999ADDAY151999GF108991081051001501999999MW1501
0037103030999991940082006004+52867+007317FM-12+000499999V0203201N00671012301CN0100001N9+99999+99999999999ADDAY121999GF107991071051012501001999
0057060630999991940080806004+56300+009067FM-12+005199999V0202301N00261030001CN0040001N9+01501+99999999999ADDAY121999GF108991041051012501071999MD1610021+9999MW1051
0051106590999991940082203004+49750+010200FM-12+006099999V0202701N00461004501CN0100001N9+01001+00781099801ADDAY161031GF108991999081004501001001MD1110101+9999
0035833610999991940071500004-15583-056100FM-12+016599999V0209991C000019999999N9999999N9+02281+99999101151ADDGF100991999999999999999999MW1111
0039722485139441940082503004+32500-093683SAO  +0053BAD  V0201101N001012200019N0240001N9+02571+02181101631ADDGA1001+999999999MD1010061+9999MW1001
0057106600999991940082118004+50050+010167FM-12+007399999V0202701N00261001501CN0020001N9+01221+01221099761ADDAY161061GF108991061061001501021999MD1810101+9999MW1611
0037109540999991940092109004+47817+010883FM-12+022199999V0202301N00461036001CN0200001N9+99999+99999999999ADDAY121031GF106991041051012501021999
0070110090999991940040806004+48183+014033FM-12+031999999V0200901N00261220001CN0200001N9+00111+99999102111ADDAY111061GF102991999001999999051001IA1089KA1999N-00221MD1510041+9999
0296999999149361940062410005+44383-098217SAO  +039599999V02031559005252200059N016000599+01065+00785101325ADDGA1999+000004999GD19999+9999999GD29999+9999999GD39999+9999999GD49999+9999999GF101995999999999999999999MA1999999096685EQDN01 00000JPWTH 1QNNE11 1 09999E11 1 09999E11 1 09999E11 1 09999G11U1 99999H11 1 99000K11 1 00046L11 1 01000M11 1 28550N11 1 00000Q11 1 10132S11 1 00051V11 1 00199W11 1 88010
0057102890999991940053103004+53317+013867FM-12+000899999V0203601N00931004501CN0040001N9+01221+01221101231ADDAY121999GF108991081051004501999999MD1310121+9999MW1051
0051107270999991940062615004+49017+008383FM-12+003599999V0201801N00671036001CN0200001N9+01611+01171101411ADDAY181031GF106991021021008001071011MD1010021+9999
0051104260999991940031109004+51700+008750FM-12+005799999V0201801N00671007801CN0100001N9+00721+99999101241ADDAY121031GF108991061051008001011999MD1810101+9999
0055722640930351940041714004+30367-104017SAO  +1481MRF  V0203151N005112200019N1600001N1+01071-00371101001ADDGA1021+012001081GA2021+999999041MD1210281+9999MW1001
0051060630999991940083009004+56300+009067FM-12+005199999V0203201N00461220001CN0500001N9+01391+99999999999ADDAY111999GF104991041011008001001021MD1110161+9999
0057125500999991940122803004+50783+019183FM-12+025099999V0202701N00261007801CN0020001N9-00281-00391102571ADDAY171999GF108991081051008001999999MD1310041+9999MW1701
0062103820999991940010518004+52467+013133FM-12+001499999V0201601N00261220001CN0010001N9-01111-01221101761ADDAY101999GF100991001001999999001001IA1309KA1999M-00891MW1101
0057014880999991940110518004+59900+010617FM-12+001899999V0209991C00001220001CN0040001N9+00001+99999100651ADDAY101999GF101991001001999999001011MD1310081+9999MW1051
0051107450999991940032803004+49117+009800FM-12+011999999V0202701N00931004501CN0100001N9+00111-00111100871ADDAY111031GF108991081051004501999999MD1710031+9999
0065836790999991940011212004-21183-047800FM-12+055399999V0209991C000019999999N0100001N9+02721+99999101121ADDAA124097091GF106991999999999999999999IA1089KA1999N+02001MW1111
0025726980242291940122202004+45600-122650SAO  +0012PDX  V0200901N011812200019N1600001N1+01071+00521099291ADDGA1999+013509999MW1001
0025911665999991940040919004+21867-159450SAO  +00161Z4  V0202251N001510210019N1600001N1+02571+01961101251ADDGA1999+010509999MW1001
0076104160999991940012906004+51533+007583FM-12+002199999V0209991C00001004501CN0010001N9-00891-01061102231ADDAY141061GF108991061051004501999999IA1309KA1999N-01281MD1810081+9999MW1101
0037100130999991940052512004+53900+009133FM-12+000299999V0202701N00261220001CN0040001N9+99999+99999999999ADDAY101999GF102991021071008001001999
0009726625240061940121400004+44133-103100SAO  +0979RCA  V0201801N010810060019N0024001N9-01421-01641103591ADDMW1711
0057121860999991940111700004+54033+022517FM-12+005099999V0203201N00261004501CN0040001N9+00391+00171100131ADDAY121999GF108991081051004501999999MD1310021+9999MW1051
0025725310148061940122916004+40300-088133SAO  +0228RAN  V0203381N004110021019N0112001N1+00351+00241100371ADDGA1081+999999079MW1001
0009726625240061940113015004+44133-103100SAO  +0979RCA  V0203401N017510030019N1600001N9-00091-00371102031ADDMW1001
0025726980242291940050620004+45600-122650SAO  +0012PDX  V0202931N002612200019N1600001N1+01691+00851999999ADDGA1999+018009999MW1001
0070108560999991940070318004+48183+010867FM-12+016899999V0202501N00261090001CN0200001N9+02391+01441100751ADDAY111061GF106991011021012501061031IA1009KA1999M+02611MD1710021+9999
0081101620999991940092518004+53617+011383FM-12+001499999V0202901N00671030001CN0200001N9+01111+99999101571ADDAA199000391AY181999GF106991041051012501041001IA1009KA1999M+01501MD1210161+9999
0051124010999991940042012004+51650+015150FM-12+014499999V0203201N00101220001CN0200001N9+01781+00561102061ADDAY101999GF101991011011012501001011MD1990101+9999
0057108400999991940080209004+48717+009267FM-12+011599999V0200701N00461220001CN0100001N9+02001+01331102071ADDAY111031GF102991021021008001001001MD1210021+9999MW1051
0031722650999991940040502004+31933-102200SAO  +0871MAF  V0200451N008210030019N0080001N1+01691+00961100911ADDGA1081+999999051MW1171MW2631
0009749154999991940091816004+18917-155683SAO  +001299999V0200451N001012200019N1600001N1+02521+01961101191ADDMW1001
0070103630999991940021015004+52000+012150FM-12+002499999V0203401N00261220001CN0100001N9-01221-01671102061ADDAY111999GF102991021051008001001001IA1309KA1999M-01001MD1210121+9999
0051121630999991940071712004+54133+020567FM-12+002799999V0200901N00261030001CN0100001N9+02391+01441100441ADDAY121999GF106991041021008001041091MD1310041+9999
0009726770240331940110604004+45800-108533SAO  +1088BIL  V0202931N004612200019N1600001N1-00311-00371101801ADDMW1001
0092121860999991940062606004+54033+022517FM-12+005099999V0201601N00671012301CN0040001N9+02221+01561100511ADDAY121999GF107991071071012501001001MD1710021+9999MW1051EQDQ01+000032APCTENQ02+000002APC3  
0057121620999991940040112004+54483+019967FM-12+000499999V0202001N00931007801CN0040001N9+00611+00391102001ADDAY161999GF108991081051008001999999MD1990081+9999MW1051
0051107760999991940061800004+48983+012200FM-12+010199999V0200201N00261007801CN0100001N9+01611+01331101461ADDAY161061GF106991061051008001999999MD1710041+9999
0076111200999991940022818004+47283+011417FM-12+057099999V0209991C00001220001CN0040001N9+00281+99999102041ADDAY121061GF108991001001999999021999IA1309KA1999M+00891MD1310121+9999MW1051
0057108354999991940102415004+48717+009700FM-12+011599999V0200201N00101004501CN0020001N9+01001+00611100471ADDAY121031GF108991081051004501999999MD1410001+9999MW1051
0023722535129091940010521004+29383-098567SAO  +0207SKF  V0200501N003610060019N0064001N9+00851+00241101831ADDMD1710241+9999MW1051
0025724338138021940061402004+38550-089983SAO  +0134BLV  V0200201N002610360019N1600001N9+02351+01851101661ADDGA1061+999999039MW1001
0043853220999991940082017004-20450-066800FM-12+367099999V0203201N00671220001CN0500001N9+01391+99999999999ADDAY101999GF100991001999999999999999MW1001
0057104990999991940121909004+51150+014950FM-12+007299999V0201801N01231220001CN0100001N9-00891-01391102671ADDAY111031GF107991001001999999071999MD1810261+9999MW1051
0043124140999991940101006004+51267+015567FM-12+005999999V0201401N00261030001CN0010001N9+99999+99999999999ADDAY121999GF107991041041012501041999MW1101
0076102500999991940051500004+53333+011500FM-12+001299999V0201101N00461007801CN0040001N9+00721+99999101531ADDAY121999GF107991071051008001999999MD1210021+9999MW1051EQDQ01+000002APC3  
0057116500999991940090209004+49617+015583FM-12+045699999V0209991C00001012301CN0100001N9+01721+99999102021ADDAY121999GF107991061021012501041999MD1990041+9999MW1051
0059825790999991940051012004-05083-042650FM-12+008499999V0209991C000019999999N9999999N9+02611+99999101341ADDAA124046091GF104991999999999999999999KA1999N+02281MW1111
0057115670999991940031815004+50117+014533FM-12+028399999V0201101N00671007801CN0100001N9+00111+99999102521ADDAY121999GF108991061051008001011999MD1710261+9999MW1051
0057105320999991940092200004+50567+008700FM-12+005099999V0201801N00101004501CN0040001N9+01391+01391101541ADDAY161061GF108991071051004501999999MD1310161+9999MW1601
0057104100999991940071109004+51400+006950FM-12+003799999V0201801N00671030001CN0100001N9+02001+01561101111ADDAY121031GF108991041051012501021999MD1310101+9999MW1601
0025722860231191940071907004+33900-117250SAO  +0466RIV  V0203401N003612200019N0160001N9+01631+01131101661ADDGA1001+999999999MW1001
0076122320999991940091906004+53117+017967FM-12+002199999V0202301N00671030001CN0040001N9+01001+00891101711ADDAY121999GF106991041051008001041071IA1089KA1999N+00781MD1310061+9999MW1051
0051107370999991940041515004+48683+009000FM-12+013199999V0202501N00931036001CN0500001N9+01281+00111100271ADDAY121031GF106991011011008001011081MD1810181+9999
0025725690240891940081800004+42917-106467SAO  +1612CPR  V0200231N010312200019N1600001N1+01911+00961102241ADDGA1999+018009999MW1001
0041723030137141940122722004+35183-079017SAO  +0064POB  V0200701N001510045019N0112001N9+01801+01691100341ADDGA1051+999999059GA2021+999999039MW1001
0057104900999991940041812004+51600+013733FM-12+003899999V0201601N00461220001CN0040001N9+02001+00781100881ADDAY111061GF104991001001999999051011MD1710121+9999MW1051
004594999900142194004222000N-15470+145250AUST +0006     V0201355N006759999999N999999999+02475+99999999999ADDGA1045+007505999GF105995044999007505999999
0072837460999991940122212004-22450-042933FM-12+087799999V0203601N001019999999N9999999N9+02111+99999100951ADDAA124037091GF108991999999999999999999KA1999M+02611KA2999N+01891MW1601
0057100190999991940010812004+54917+008350FM-12+000599999V0201101N01541001501CN0040001N9-00281+99999102801ADDAY121999GF108991081051001501999999MD1110021+9999MW1051
0057108530999991940033021004+48717+011217FM-12+011699999V0209991C00001004501CN0040001N9+00281+00221102291ADDAY161031GF108991081051004501999999MD1310281+9999MW1611
0100874480999991940032212004-33667-065467FM-12+051499999V0201801N00101001501CN0020001N9+01891+01891100701ADDAA124001091AY151999GF108991081031001501999999IA1089KA1999M+02221KA2999N+01781MD1310041+9999MW1031
0106105130999991940020718004+50933+007067FM-12+001599999V0201601N00671012301CN0020001N9+00391+99999101231ADDAA199001091AY161061GF108991061051012501021999IA1199KA1999M+99999MD1710101+9999MW1051EQDQ01 +00112ATMX  
0043105790999991940101306004+50617+013467FM-12+018899999V0200901N00461001501CN0002001N9+99999+99999999999ADDAY141061GF109991091999001501999999MW1471
0029719094999991940101100004+62833-069900FM-12+001699999V0201801N002119999999N0100001N9-00221+99999999999ADDGF108991999999999999999999
0057117230999991940053100004+49183+016650FM-12+024399999V0203201N00101007801CN0040001N9+01501+99999100391ADDAY121999GF108991081051008001999999MD1710101+9999MW1051
0086124650999991940072118004+51717+019400FM-12+017699999V0202301N00461030001CN0200001N9+02111+01671101171ADDAY121999GF107991041081008001071999MD1210041+9999EQDQ01+000042APCTENQ02+000022APC3  
0051121590999991940050212004+54033+019133FM-12+000299999V0201101N00931220001CN0200001N9+01611+00441101941ADDAY101999GF100991001001999999001001MD1710101+9999
0070124000999991940071106004+51917+015500FM-12+004599999V0201401N00261220001CN0100001N9+02221+01781101581ADDAY101999GF101991001001999999001011IA1009KA1999N+01611MD1110021+9999
0057122370999991940051515004+53467+018783FM-12+000799999V0200501N01901220001CN0200001N9+01001+00111101321ADDAY111999GF104991041081008001999031MD1710081+9999MW1161
0051110090999991940072012004+48183+014033FM-12+031999999V0203601N00101220001CN0200001N9+02611+99999101891ADDAY111061GF102991021021022501081001MD1810161+9999
0025722860231191940021501004+33900-117250SAO  +0466RIV  V0202701N009310060019N0160001N9+01021+00461100981ADDGA1051+999999049MW1001
0050719081999991940100212004+63117-077933FM-12+001699999V0203401N008219999999N0020001N9-00111-00111999999ADDGF108991081999999999999999MA1999999101791MW1701
0076122050999991940022718004+53400+014633FM-12+000199999V0201801N00261220001CN0040001N9+00391+00001101231ADDAY121999GF102991001001999999001011IA1189KA1999M+00501MD1510141+9999MW1051
0057101700999991940022918004+54183+012100FM-12+000299999V0200201N00931004501CN0200001N9-00111-00441102671ADDAY121999GF108991081051004501999999IA1139MD1310221+9999
004595677099999194005300500N-34800+138630AUST +0016YPPF V0202705N004659999999N999999999+01475+99999999999ADDGA1075+012005999GF107995074999012005999999
0025724567139211940121022004+39367-094917SAO  +0238FLV  V0200231N003610240019N1600001N1+00301-00261102611ADDGA1081+999999049MW1001
0043125990999991940112206004+50033+019217FM-12+007399999V0202301N00101220001CN0020001N9+99999+99999999999ADDAY101999GF104991001001999999041999MW1051
0057109610999991940111215004+47417+010983FM-12+090399999V0202301N022619999999N0020001N9-00611-00721099131ADDAY121031GF107991041051999999021999MD1710021+9999MW1401
0043122990999991940012015004+52700+016383FM-12+005499999V0200701N00261007801CN0020001N9+99999+99999999999ADDAY171999GF108991081051008001999999MW1711
0087105540999991940122918004+50967+010967FM-12+009899999V0202501N01541004501CN0020001N9+00111+00001101631ADDAA199000691AY121061GF108991081051004501999999IA1209KA1999M+00221MD1810221+9999MW1681
0057100670999991940010500004+54500+011250FM-12+000399999V0209991C00001000151CN0000001N9-00721+99999101511ADDAY141999GF109991091999000251999999MD1310021+9999MW1451
0070100460999991940080418004+54383+010150FM-12+000999999V0200901N00261220001CN0200001N9+02001+01061102261ADDAY101999GF102991001001999999001021IA1009KA1999M+02221MD1810061+9999
0057124250999991940021900004+51133+016967FM-12+003799999V0202501N00261004501CN0020001N9-00721-01061101601ADDAY121999GF107991071051004501011999MD1810021+9999MW1051
0015691174999991940122507004+39833-076117SAO  +0002KQAH V0200231N001512200019N0004001N1+00021+00021102101ADDMW1041MW2111
0051011470999991940120509004+65600+014000FM-12+022299999V0209991C00001220001CN0100001N9-00721+99999099361ADDAY121999GF108991001001999999071999MD1810141+9999
0043107380999991940080612004+48700+009200FM-12+011899999V0209991C00001012301CN0100001N9+99999+99999999999ADDAY121061GF107991061021012501071999MW1051
0041722250138291940080620004+32333-085000SAO  +0071LSF  V0201401N002612200019N0160001N9+03291+02021101691ADDGA1021+015009089GA2011+999999019MW1001
0039722860231191940052121004+33900-117250SAO  +0466RIV  V0202901N005112200019N0096001N9+02461+01301101021ADDGA1021+999999029MD1710021+9999MW1051
0070111820999991940010806004+47800+016233FM-12+026899999V0209991C00001001501CN0010001N9-00891+99999102731ADDAY141061GF108991081051001501999999IA1309KA1999N-00891MD1310061+9999
0076116030999991940080100004+50767+015067FM-12+038799999V0203201N00461002401CN0040001N9+01281+99999101751ADDAY161999GF108991061061002501021999MD1310021+9999MW1601EQDQ01+000002APC3  
0009742070242011940011004004+47083-122617SAO  +0095GRF  V0201801N001510105019N1600001N9+00581+00521100781ADDMW1001
0025723030137141940050608004+35183-079017SAO  +0064POB  V0202501N002612200019N0080001N9+01191+00631102341ADDGA1001+999999999MW1051
0057108570999991940041000004+48067+010917FM-12+018999999V0202501N00461007801CN0040001N9+00221+00111101751ADDAY121061GF108991081051008001999999MD1110021+9999MW1051
0087101270999991940122906004+53533+008150FM-12+000299999V0202501N00931004501CN0040001N9+00281+00171101731ADDAA199000691AY121999GF108991081051004501999999IA1089KA1999N+00281MD1810301+9999MW1501
0041724550139471940080215004+39050-096767SAO  +0324FRI  V0201801N007212200019N1600001N9+03181+02351101491ADDGA1031+012009089GA2011+999999029MW1001
0076112310999991940040406004+46667+014333FM-12+044899999V0209991C00001220001CN0040001N9+00391+99999100991ADDAY121061GF108991001001999999021999IA1009KA1999N+00221MD1110121+9999MW1051
0057104680999991940122415004+51833+012200FM-12+001899999V0202501N00261002401CN0010001N9-00721-00891102901ADDAY171031GF108991081051002501999999MD1810101+9999MW1701
0057108030999991940032815004+48017+007833FM-12+007599999V0203401N00261036001CN0200001N9+00001-00111100901ADDAY181031GF106991041051002501081001MD1410001+9999MW1851
0057104410999991940100615004+51000+010417FM-12+010499999V0200901N01541030001CN0100001N9+01281+01061101351ADDAY161031GF108991041051008001021999MD1810061+9999MW1611
0076106550999991940033106004+49800+009967FM-12+008199999V0202701N00101002401CN0020001N9+00281+00221102721ADDAY121061GF108991081051002501999999IA1089KA1999N+00221MD1210261+9999MW1051
0029719491999991940050412004+70500-117633FM-12+000999999V0200901N008219999999N0500001N9-01001+99999999999ADDGF103991031999999999999999
0270999999149361940041009005+44383-098217SAO  +039599999V02033859009850012249N012800599+00005-00115101635ADDGA1999+000004999GD19999+9999999GD29999+9999999GD39999+9999999GF108995999999999999999999MA1999999096925EQDN01 00000JPWTH 1QNNE11 1 09999E11 1 09999E11 1 09999G11 1 00004H11 1 99000K11 1 00030L11 1 00800M11 1 28620N11 1 00000Q11 1 10163S11 1 00032V11 1 01099W11 1 18019
0023724956232111940050906004+38067-122517SAO  +0003SRF  V0201351N000512200019N1600001N1+01461+01241101661ADDMD1110041+9999MW1001
0055911700225081940061502004+21483-158033SAO  +0271PHHI V0200901N007212200019N1600001N9+02571+01851101461ADDGA1031+012009059GA2041+999999029MD1710101+9999MW1001
0076124260999991940122318004+51667+017800FM-12+013399999V0200901N00261007801CN0020001N9-00781-00941103001ADDAY121999GF108991081051008001999999IA1309KA1999M-00611MD1310021+9999MW1701
005194374099999194009132000N-23380+150470AUST +0014YBRK V0201585N001559999999N999999999+01155+99999999999ADDGA1085+000005999GF108995084999000005999999MW1455
0065167440999991940092406004+36417+025433FM-12+022399999V0200501N00931220001CN9999999N9+01891+01501101501ADDAJ100009199999999GF103991031061999999001001IA1009KA1999N+01781
0025745700138401940053114004+39833-084050SAO  +0254FFO  V0202001N004110015019N0112001N9+01571+01241100881ADDGA1081+999999059MW1001
0009726625240061940050814004+44133-103100SAO  +0979RCA  V0202301N004612200019N1600001N9+01631+00631102301ADDMW1001
0051105560999991940083009004+50967+011617FM-12+011099999V0203201N00671004501CN0200001N9+01001+00781102071ADDAY121031GF108991061051004501021999MD1210261+9999
0076105690999991940061406004+50533+012100FM-12+013799999V0202001N00101220001CN0040001N9+01391+00941101591ADDAY121061GF104991001001999999031021IA1009KA1999N+00891MD1310041+9999MW1051
0247722265138211940022706003+32383-086350SAO  +0053MXF  V02018059002650457249N0112005N9+00785+00285102175ADDGA1081+999999034GD19085+9999999GD29999+9999999GD39999+9999999GD49999+9999999MD1710161+9999EQDN01 00000JPWTH 1QNNE11 1 09910E11 1 09999E11 1 09999E11 1 09999G11 1 00150H11U1 23999K11 1 00037L11 1 00700N11 1 00000Q11 1 10217S11 1 00046W11 1 55005
0078837460999991940022012004-22450-042933FM-12+087799999V0203601N002619999999N0100001N9+02281+99999101031ADDAA124008091GF107991999999999999999999IA1089KA1999M+02501KA2999N+01891MW1111
0043782800999991940070812004+20833-075717FM-12+000399999V0200901N00261220001CN0500001N9+02721+99999999999ADDAY101999GF102991021999008001999999MW1001
0033911820225211940103010004+21333-157950SAO  +0011PHNL V0200901N006212200019N1600001N9+02571+01961101631ADDGA1001+999999999MD1810031+9999
0076105170999991940080406004+50767+007167FM-12+001899999V0200901N00101220001CN0040001N9+01611+99999102381ADDAY101061GF100991001001999999001001IA1009KA1999N+01221MD1210021+9999MW1051
0025722860231191940081216004+33900-117250SAO  +0466RIV  V0202501N000512200019N0160001N9+02851+00911101151ADDGA1001+999999999MW1001
0134999999241551940122115005+45683-118850SAO  +045599999V02022559001552200049N000200599+00065+00065101595ADDMA1999999096145MW1445EQDN01 07200JPWTH 1QNNG11U1 99999K11 1 00033L11 1 00012M11 1 28390N11 1 07200Q11 1 10159S11 1 00033W11 1 66003
0065167440999991940062218004+36417+025433FM-12+022399999V0203201N00261220001CN9999999N9+02221+01721100861ADDAJ100009199999999GF102991021011999999001001IA1009KA1999M+02721
0121101730999991940101618004+54267+012417FM-12+000199999V0201101N00671220001CN0100001N9+00891+00441102441ADDAY101999GF101991999001999999041001IA1009KA1999M+01391MD1210021+9999EQDQ01+000002SCOTLCQ02+000042APCTENQ03+000022APC3  
0108870470999991940011112004-24767-065400FM-12+118299999V0209991C00001220001CN0200001N9+02221+01501099361ADDAY101999GF101991999001999999091001IA1009KA1999M+03281KA2999N+01391MD1310081+9999MW1001EQDQ01+000002SCOTLC
0039722650999991940061818004+31933-102200SAO  +0871MAF  V0200681N002110150019N1600001N1+03071+01411101221ADDGA1051+999999081MD1810061+9999MW1001
0043266140999991940021509004+55083+021800FM-12+000399999V0200501N00671001501CN0020001N9+99999+99999999999ADDAY171999GF108991081051001501999999MW1221
0035827980999991940112600004-07100-034867FM-12+004799999V0200901N001019999999N9999999N9+02611+99999101401ADDGF104991999999999999999999MW1111
0089873950999991940111012004-31367-058017FM-12+003899999V0200501N00261220001CN0200001N9+02391+01721101201ADDAY101999GF104991001001999999001051IA1009KA1999M+03111KA2999N+01721MD1310021+9999MW1011
0057105780999991940112212004+50433+012950FM-12+037099999V0202301N00931220001CN0200001N9+00611+00001097941ADDAY101061GF102991001001999999041011MD1810141+9999MW1051
0043122990999991940110303004+52700+016383FM-12+005499999V0202301N00461002401CN0040001N9+99999+99999999999ADDAY161999GF108991081051002501999999MW1611
0043783134128571940091712004+22133-084150FM-12+005799999V0200501N001019999999N0500001N9+02281+99999999999ADDAY111999GF107991011999999999999999MW1021
0051104090999991940050409004+51833+006267FM-12+000599999V0200901N00261030001CN0100001N9+01501+99999100601ADDAY111031GF108991041051004501011999MD1310141+9999
004594653099999194009052300N-32130+133720AUST +0017YPCD V0200455N004659999999N999999999+01225+99999999999ADDGA1005+999999999GF100995004999999999999999
0057103870999991940101715004+52600+013150FM-12+001099999V0200901N00671220001CN0040001N9+01221+00611102061ADDAY121031GF107991001001999999071081MD1610041+9999MW1051
0019911820225211940040320004+21333-157950SAO  +0011PHNL V0201801N005112200019N1600001N9+02681+01741101521ADDGA1999+013509999
0276999999149361940010615005+44383-098217SAO  +039599999V02013559002152200059N004800599-01945-02175103295ADDGA1999+000004999GD19999+9999999GD29999+9999999GD39999+9999999GF103995999999999999999999MA1999999098215MW1045EQDN01 08000JPWTH 1QNNE11 1 09999E11 1 09999E11 1 09999G11U1 99999H11 1 99000K11 1-00007L11 1 00300M11 1 29000N11 1 08000Q11 1 10329S11 1-00003V11 1 00499W11 1 44004
0025745980137021940072813004+37083-076350SAO  +0002LFI  V0202301N003612200019N1600001N9+03021+02631101761ADDGA1011+999999039MW1001
0039911800999991940091102004+21333-157950SAO  +0009PHIK V0200451N008212200019N1600001N1+02851+01801101351ADDGA1031+013509089MD1610061+9999MW1001
0260722265138211940040516003+32383-086350SAO  +0053MXF  V02004559002650076249N0128005N9+02175+01675101805ADDGA1051+999999084GA2021+999999024GD19055+9999999GD29025+9999999GD39999+9999999GD49999+9999999EQDN01 00000JPWTH 1QNNE11 1 09906E11 1 09902E11 1 09999E11 1 09999G11 1 00025H11U1 11999H11 1 37999K11 1 00062L11 1 00800N11 1 00000Q11 1 10180S11 1 00071W11 1 22005
0029719164999991940050206004+63333-090717FM-12+000499999V02099999999999999999N9999999N9+99999+99999999999ADDKA1999M-01221KA2999N-02281
0057166890999991940041306004+38250+021733FM-12+000399999V0209991C00001220001CN0200001N9+01501+99999101001ADDAY101999GF104991001001999999001031IA1009MD1210021+9999
0051100460999991940082800004+54383+010150FM-12+000999999V0202901N00261220001CN0200001N9+00781+00721102211ADDAY101999GF102991011051008001041001MD1010061+9999
0037624140999991940031606004+24033+032883FM-12+011199999V0203601N00261220001CN0100001N9+01611+99999101871ADDAY101999GF100991001001999999001999
0070107450999991940051515004+49117+009800FM-12+011999999V0200701N00931220001CN0200001N9+02001+00391100282ADDAY111031GF104991041021012501001001MD1610181+9999EQDQ01+100283APOSLP
0087111460999991940062118004+47050+013050FM-12+310699999V0203601N00101000151CN0002001N9+00111+99999099681ADDAA199000591AY171061GF109991091999000251999999IA1319KA1999M+00221MD1810061+9999MW1461
0029719681999991940073006004+68233-134833FM-12+000999999V0203201N001519999999N0500001N9+00561+99999100951ADDGF103991031999999999999999
0009722536129111940020214004+29533-098283SAO  +0226RND  V0200701N002610001519N0002001N9+01461+01411102401ADDMW1451
0051102620999991940102315004+53067+011817FM-12+000999999V0200701N01231220001CN0200001N9+00721+00111101761ADDAY121999GF107991001001999999071999MD1610021+9999
0076107100999991940071706004+49317+008100FM-12+020599999V0202301N00671000151CN0005001N9+01111+01061103171ADDAY141061GF109991091999000251999999IA1089KA1999N+01001MD1510041+9999MW1411
0037100270999991940061512004+54300+009600FM-12+000299999V0200901N00671030001CN0040001N9+99999+99999999999ADDAY121999GF108991041051012501021999
0076104190999991940011406004+51217+007633FM-12+013699999V0200901N00261000151CN0000501N9-00111+99999103201ADDAY141061GF109991091999000251999999IA1309KA1999N-00391MD1710061+9999MW1451
0087114180999991940090918004+49917+012717FM-12+053899999V0209991C00001001501CN0010001N9+01391+99999100761ADDAA199019091AY161999GF108991061061001501021999IA1109KA1999M+01891MD1110021+9999MW1611
0019911820225211940030819004+21333-157950SAO  +0011PHNL V0202701N000510270019N1600001N9+02571+01851101521ADDGA1999+013509999
0043104230999991940012306004+50700+008083FM-12+018199999V0202701N00261001501CN0010001N9+99999+99999999999ADDAY121061GF108991081051001501999999MW1101
0048823310999991940021512004-03133-060017FM-12+004499999V0209991C000019999999N0020001N9+02391+99999101271ADDGF107991999999999999999999KA1999M+02891MW1401
0025725115147111940050217004+40200-076767SAO  +0097MDT  V0201351N001510180019N1600001N1+01571+00411100511ADDGA1061+999999059MW1001
0051102740999991940060515004+53350+012733FM-12+002299999V0203401N00461220001CN0500001N9+02221+01001102511ADDAY101999GF102991001001999999001021MD1710081+9999
0057104300999991940061600004+51717+008367FM-12+002399999V0202301N00261000151CN0000501N9+01281+99999101661ADDAY151061GF109991091999000251999999MD1310041+9999MW1451
0041722640930351940121213004+30367-104017SAO  +1481MRF  V0203601N001010210019N1600001N1+00411+00351101391ADDGA1061+999999051GA2011+999999031MW1001
0070108660999991940110518004+48133+011700FM-12+015699999V0201101N00461220001CN0200001N9+00721+00331101501ADDAY121061GF106991001001999999051021IA1009KA1999M+01281MD1710081+9999
0106121160999991940050918004+54450+017000FM-12+001299999V0203201N00101007801CN0100001N9+01111+00671101951ADDAA199000691AY121999GF108991071051008001071999IA1009KA1999M+01891MD1710031+9999MW1251EQDQ01+000002APC3  
0039691174999991940010415004+39833-076117SAO  +0002KQAH V0202701N005110300019N0112001N1-00371-01371102341ADDGA1061+999999039MD1110141+9999MW1001
0051105500999991940072009004+50967+010750FM-12+009199999V0202001N00671220001CN0200001N9+02111+01441101751ADDAY121031GF104991041021008001031051MD1990041+9999
0009727855241141940050619004+47617-117650SAO  +0741SKA  V0202501N002110105019N1600001N9+01351+00351102241ADDMW1001
0051103340999991940030509004+52467+009450FM-12+001699999V0202701N01231001501CN0100001N9+00111+99999100351ADDAY171999GF108991081061001501999999MD1210021+9999
0057103280999991940080103004+51950+008917FM-12+005899999V0203201N00261001501CN0040001N9+01281+99999102271ADDAY161999GF108991071061001501999999MD1310041+9999MW1501
0055725115147111940082212004+40200-076767SAO  +0097MDT  V0200451N001510150019N0048001N1+01411+01131102071ADDGA1061+999999059GA2011+999999039MD1110061+9999MW1051
0025722485139441940070902004+32500-093683SAO  +0053BAD  V0202901N001510120019N0160001N9+02461+02241101521ADDGA1061+999999059MW1001
0039722210138581940042212004+30500-086500SAO  +0025VPS  V0203601N001512200019N0160001N9+00911+00581101351ADDGA1021+999999049MD1310161+9999MW1001
0031725377148041940011016004+42617-082817SAO  +0176MTC  V0201801N004610060019N0016001N9-00421-00651103121ADDGA1081+999999059MW1041MW2111
0057105130999991940100709004+50933+007067FM-12+001599999V0202901N00931004501CN0100001N9+01391+99999100671ADDAY181031GF107991061051004501041999MD1210381+9999MW1051
0025724338138021940110904004+38550-089983SAO  +0134BLV  V0201601N005112200019N1600001N9+00461-00091102341ADDGA1001+999999999MW1001
0057103160999991940081312004+53183+008017FM-12+000399999V0202701N00461002401CN0040001N9+00501+99999102071ADDAY181999GF107991061081002501999999MD1990061+9999MW1801
0051125000999991940051812004+50900+015783FM-12+010499999V0203201N00461007801CN0040001N9+01221+00781101351ADDAY121999GF108991081061008001999999MD1810021+9999
0076104690999991940012418004+51400+012217FM-12+004199999V0202301N00261012301CN0020001N9-00391-00561102821ADDAY111061GF106991061051012501001001IA1309KA1999M-00221MD1210061+9999MW1051
0057103820999991940092503004+52467+013133FM-12+001499999V0202701N00461220001CN0040001N9+01111+00891101331ADDAY121999GF108991001001999999021999MD1710081+9999MW1051
0057103130999991940061103004+52000+007733FM-12+001699999V0200901N00101220001CN0040001N9+01221+99999101461ADDAY111999GF101991001001999999041011MD1510021+9999MW1051
0035821910999991940072900004-01467-048450FM-12+001099999V0209991C000019999999N9999999N9+02501+99999101441ADDGF100991999999999999999999MW1111
0070103630999991940061806004+52000+012150FM-12+002499999V0203601N00261220001CN0200001N9+01501+00831101941ADDAY101999GF101991011011012501001001IA1009KA1999N+01111MD1210061+9999
0057104560999991940111103004+51117+010633FM-12+006299999V0201601N00101007801CN0040001N9+00391+00001100791ADDAY121031GF106991061051008001999999MD1710101+9999MW1051
0035837460999991940072300004-22450-042933FM-12+087799999V0202301N002619999999N9999999N9+01391+99999102001ADDGF108991999999999999999999MW1111
0092114480999991940033112004+49733+013350FM-12+035699999V0202301N002619999999N0100001N9+00611+99999102881ADDAY121999GF108991041051004501999999MD1710031+9999MW1051EQDQ01+000032APCTENQ02+000002APC3  
0057105150999991940021409004+50350+007567FM-12+005399999V0202901N00261002401CN0020001N9-01391+99999101541ADDAY171031GF108991081051002501999999MD1810161+9999MW1771
0051122050999991940040215004+53400+014633FM-12+000199999V0202301N00461015001CN0200001N9+01611+00721100841ADDAY111999GF107991061051017501071999MD1810241+9999
0051109080999991940041600004+47867+008017FM-12+045599999V0202301N02261000601CN0100001N9+00111+00001103441ADDAY121061GF107991071051000751999999MD1710101+9999
0057101470999991940030515004+53633+010000FM-12+000599999V0203401N00671002401CN0010001N9-00221-00331100401ADDAY181999GF108991081061002501999999MD1310361+9999MW1711
0087106530999991940120518004+49650+009967FM-12+008599999V0202501N01231036001CN0040001N9+00221+00001100961ADDAA199001091AY121061GF107991041051004501041999IA1159KA1999M+00281MD1210061+9999MW1051
0057266980999991940020815004+54567+020600FM-12+000799999V0200501N00461004501CN0010001N9-01281-01441101851ADDAY171999GF107991071051004501999999MD1310021+9999MW1731
0041725310148061940033119004+40300-088133SAO  +0228RAN  V0203601N002612200019N0160001N1+01961+00461101221ADDGA1021+015009039GA2061+999999029MW1001
0070125240999991940080506004+50517+018300FM-12+006999999V0203201N00101220001CN0040001N9+01891+01441101861ADDAY111999GF104991021011012501081021IA1009KA1999N+01221MD1810081+9999
0057103200999991940080221004+51933+008317FM-12+002199999V0200501N00101220001CN0040001N9+01281+99999102481ADDAY101999GF100991001001999999001001MD1210121+9999MW1051
0087102740999991940092406004+53350+012733FM-12+002299999V0202501N00101012301CN0100001N9+01221+01221101601ADDAA199001091AY121999GF107991061051012501031999IA1089KA1999N+01111MD1310101+9999MW1051
0037121080999991940020112004+54117+016683FM-12+002499999V0201801N00461220001CN0100001N9+99999+99999999999ADDAY101999GF100991001001999999001999
0043103510999991940101612004+52283+013400FM-12+001299999V0200901N00671220001CN0100001N9+99999+99999999999ADDAY101999GF101991001001999999041999MW1051
0051109650999991940042412004+47450+011267FM-12+027799999V0201801N00671220001CN0100001N9+02001-00061097601ADDAY121999GF108991001001999999021999MD1990141+9999
0057101700999991940072815004+54183+012100FM-12+000299999V0202901N01541004501CN0200001N9+01611+01171101231ADDAY181999GF106991061081004501001001MD1310041+9999MW1251
0051121620999991940110612004+54483+019967FM-12+000499999V0201801N00671030001CN0100001N9+00391+00001101201ADDAY121999GF107991011051012501051071MD1710141+9999
0081108640999991940083018004+48067+011650FM-12+016799999V0202901N00261036001CN0100001N9+01001+00611102771ADDAA199001091AY121061GF107991021081012501061999IA1089KA1999M+01221MD1310121+9999
0037116440999991940103106004+50667+015917FM-12+017399999V0202701N00101000601CN0000501N9+99999+99999999999ADDAY171999GF109991091999000751999999
0063855770999991940111812004-33433-070683FM-12+052099999V0209991C000019999999N0020001N9+01501+99999101581ADDAY101999GF100991001001999999001001IA1009MD1810021+9999MW1001
0043844520999991940070320004-06783-079850FM-12+002599999V0201801N00461220001CN0500001N9+02501+99999100791ADDAY101999GF100991001999999999999999MW1001
0051121160999991940010903004+54450+017000FM-12+001299999V0200901N00101220001CN0100001N9-01501-01831104111ADDAY101999GF100991001001999999001001MD1210141+9999
0057107450999991940110603004+49117+009800FM-12+011999999V0202301N00461007801CN0040001N9+00721+00611100801ADDAY161031GF108991081051008001999999MD1990141+9999MW1611
0070107280999991940060418004+49333+008200FM-12+003799999V0200701N00261220001CN0100001N9+02221+01281102211ADDAY111061GF104991041041012501001001IA1009KA1999M+02501MD1610081+9999
0043875740999991940012217004-34667-058633FM-12+002599999V0200501N00101220001CN0040001N9+03221+99999999999ADDAY101999GF102991011999012501999999MW1001
0023725310148061940052903004+40300-088133SAO  +0228RAN  V0203381N002612200019N1600001N1+01301+01191101461ADDMD1310141+9999MW1001
0051122990999991940120721004+52850+015667FM-12+001199999V0202501N01231007801CN0040001N9+00221+00171098081ADDAY121999GF108991081061008001999999MD1310061+9999
0076122000999991940071603004+53917+014283FM-12+999999999V0203201N00261220001CN0100001N9+01111+01001100881ADDAY101999GF101991999001999999041001MD1710061+9999MW1051EQDQ01+000002SCOTLC
0076064070999991940110712004+51200+002917FM-12+000499999V0200201N01231004501CN0200001N9+01111+99999101792ADDAY181999GF106991061081004501061999MD1210341+9999MW1251EQDQ01+101793APOSLP
0087122370999991940122606004+53467+018783FM-12+000799999V0202501N00101012301CN0040001N9-00501-00501102731ADDAA199000391AY171999GF108991081051012501999999IA1309KA1999N-00611MD1610041+9999MW1051
0057104100999991940121812004+51400+006950FM-12+003799999V0201801N00261004501CN0040001N9-00221-00561103831ADDAY121061GF108991081051004501999999MD1710201+9999MW1051
0070106570999991940052718004+49767+009500FM-12+010299999V0202701N00261220001CN0200001N9+01721+01281101341ADDAY111061GF104991021081008001071001IA1009KA1999M+01721MD1310021+9999
0056112040999991940041118004+46750+012750FM-12+067099999V0203201N00931220001CN0500001N9+00721+99999101551ADDAY101061GF102991021011022501001001IA1009KA1999M+01221
0057108600999991940092703004+48717+011517FM-12+011199999V0209991C00001220001CN0005001N9+00391+00331102691ADDAY141031GF100991001001999999001001MD1810061+9999MW1441
0025727855241141940051702004+47617-117650SAO  +0741SKA  V0203201N004612200019N1600001N9+01801+00191101931ADDGA1999+015009999MW1001
0057108640999991940012312004+48067+011650FM-12+016799999V0209991C00001220001CN0020001N9-01001-01331102281ADDAY111061GF100991001001999999001001MD1310121+9999MW1051
0057103100999991940073021004+55367+007933FM-12+001699999V0202901N00461004501CN0040001N9+01501+99999102161ADDAY161999GF108991061051004501021999MD1210041+9999MW1631
0039725115147111940031406004+40200-076767SAO  +0097MDT  V0201131N007210093019N0160001N1+00191-00651102741ADDGA1081+999999059MD1710101+9999MW1001
0057103490999991940011915004+52633+011933FM-12+001699999V0200501N00101007801CN0040001N9-01001-01331102551ADDAY121999GF108991081051008001999999MD1810041+9999MW1051
0057105560999991940082215004+50967+011617FM-12+011099999V0203401N01231030001CN0200001N9+01001+00891100091ADDAY121031GF106991041081004501061999MD1210221+9999MW1161
0070101220999991940020521004+53533+007883FM-12+000299999V0201101N00261002401CN0020001N9-00721+99999101581ADDAY161999GF108991081051002501999999MD1110081+9999EQDQ01+000612PRSWM1
0057124000999991940052303004+51917+015500FM-12+004599999V0201401N00101220001CN0040001N9+00891+00781101571ADDAY101999GF101991001001999999041021MD1810061+9999MW1051
0076103480999991940020109004+52233+010483FM-12+002499999V0201401N00671220001CN0040001N9-01611-01891100801ADDAY101999GF101991999001999999041001MD1710021+9999MW1051EQDQ01+000002SCOTLC
0029719340999991940091807004+60017-112000FM-12+020399999V02099999999999999999N9999999N9+99999+99999999999ADDKA1999M+01391KA2999N+00441
0035830360999991940052900004-23650-045417FM-12+000399999V0209991C000019999999N9999999N9+02221+99999101641ADDGF102991999999999999999999MW1111
0057107760999991940020521004+48983+012200FM-12+010199999V0209991C00001000151CN0002001N9-00281-00281101931ADDAY111031GF109991091999000251999999MD1310141+9999MW1451
0057104530999991940011909004+51800+010617FM-12+034899999V0201101N00931220001CN0200001N9-01611-01611098341ADDAY101031GF102991001001999999001081MD1310101+9999MW1051
0057108530999991940050509004+48717+011217FM-12+011699999V0202701N00101001501CN0100001N9+01111+01061100971ADDAY161031GF108991081061001501999999MD1310041+9999MW1611
0023749105999991940051218004+40733-073600SAO  +003899999V0203381N006212200019N1600001N1+01461-00041101521ADDMD1710081+9999MW1001
0025724338138021940030304004+38550-089983SAO  +0134BLV  V0203201N003612200019N0080001N9+01071+00911100441ADDGA1001+999999999MW1051
0057104750999991940031218004+50967+012517FM-12+005999999V0202001N00671220001CN0040001N9+00781-00061099991ADDAY111061GF102991001001999999011021MD1710081+9999MW1051
0009725115147111940060716004+40200-076767SAO  +0097MDT  V0201581N003112200019N1600001N1+02631+00851101591ADDMW1001
0089875850999991940030112004-34567-058467FM-12+002599999V0201801N00101002401CN0010001N9+01891+01441101491ADDAY121999GF108991081051002501999999IA1009KA1999M+02611KA2999N+01721MD1110021+9999MW1101
0057104400999991940102909004+51200+010033FM-12+004899999V0201101N00671007801CN0040001N9+00111-00441102241ADDAY121031GF107991061051008001041001MD1810041+9999MW1051
0051105120999991940010215004+50433+007833FM-12+007799999V0201601N00101220001CN0100001N9-00781+99999102251ADDAY101031GF100991001001999999001001MD1610161+9999
0078124000999991940021515004+51917+015500FM-12+004599999V0200501N00101002401CN0020001N9-01221-01391100341ADDAY171999GF108991081051002501999999MW1711EQDQ01+000042APCTENQ02+000042APC3  
0057104240999991940031021004+51567+007917FM-12+002699999V0202001N00261012301CN0020001N9+00391+99999101881ADDAY161031GF108991081051012501999999MD1810101+9999MW1611
0039745700138401940102409004+39833-084050SAO  +0254FFO  V0209991C000012200019N0096001N9+01071+00741101901ADDGA1001+999999999MD1110101+9999MW1051
0051104880999991940110315004+51133+013767FM-12+007099999V0202301N01541007801CN0200001N9+01221+00781099721ADDAY121031GF108991071051008001021999MD1610161+9999
0270999999149361940091419005+44383-098217SAO  +039599999V02015859008252200059N016000599+02065+00785101735ADDGA1999+000004999GD19999+9999999GD29999+9999999GD39999+9999999GF107995999999999999999999MA1999999097095EQDN01 00000JPWTH 1QNNE11 1 09999E11 1 09999E11 1 09999G11U1 99999H11 1 99000K11 1 00046L11 1 01000M11 1 28670N11 1 00000Q11 1 10173S11 1 00069V11 1 00999W11 1 54016
0051104260999991940071212004+51700+008750FM-12+005799999V0202701N00261030001CN0200001N9+01611+99999101441ADDAY161061GF107991041081008001071999MD1990021+9999
0043122080999991940031215004+53900+015450FM-12+001299999V0202001N00931030001CN0040001N9+99999+99999999999ADDAY121999GF106991041051004501061999MW1051
0076103340999991940040106004+52467+009450FM-12+001699999V0202001N00671220001CN0100001N9+00721+99999102201ADDAY111999GF104991001001999999041021IA1089KA1999N+00391MD1510001+9999MW1051
0025911800999991940010600004+21333-157950SAO  +0009PHIK V0203151N009312200019N1600001N1+02461+01351101191ADDGA1999+015009999MW1001
0043104070999991940091509004+51183+006400FM-12+002499999V0209991C00001002401CN0020001N9+01001+99999099321ADDAY161031GF108991081051002501999999MW1211
0000911820225211940032123004+21333-157950SAO  +0011PHNL V0202301N006710120019N1600001N9+02571+01801101081
0051100010999991940062912004+53600+006700FM-12+000499999V0200501N00461220001CN0200001N9+02001+01061102791ADDAY101999GF102991011021008001051001MD1810061+9999
0057121070999991940022712004+54283+016117FM-12+999999999V0201801N00931007801CN0040001N9+00111-00221101351ADDAY121999GF107991071051008001999999MD1710121+9999MW1051
0057104680999991940073112004+51833+012200FM-12+001899999V0202701N00671002401CN0040001N9+01781+01331101831ADDAY151061GF108991081051002501999999MD1610021+9999MW1501
0025722650999991940040720004+31933-102200SAO  +0871MAF  V0203601N001512200019N1600001N1+01801+00691101221ADDGA1021+015001081MW1001
0360722265138211940101412003+32383-086350SAO  +0053MXF  V02022559001552200019N0016005N9+01285+01175102105ADDAA124000091GA1001+999999999GA2999+999999999GA3999+999999999GD19005+9999999GD29005+9999999GD39005+9999999GD49999+9999999KA1999M+03081KA2999N+01241MD1110081+9999MW1445EQDN01 00900CCLHT 3N02 07200JPWTH 1QNNE11 1 09900E11 1 09900E11 1 09900E11 1 09999G11 3 00900H11U1 00999H11 1 00999H11 1 00999K11 1 00053L11 1 00100N11 1 07200Q11 1 10210S11 1 00055W11 1 66003
0105124040999991940041718004+51633+015383FM-12+004699999V0201601N00261220001CN0100001N9+01781+00221100681ADDAY111999GF106991001001999999071999IA1009KA1999M+02001MD1210021+9999EQDQ01+000082APCTENQ02+000002APC3  
0062852300999991940030220004-17600-069450FM-12+405999999V0202301N01231220001CN0500001N9+01612+99999999999ADDAY101999GF101991001999999999999999MW1011EQDQ01+028933ATOT  
0043100270999991940061209004+54300+009600FM-12+000299999V0202501N002619999999N0020001N9+99999+99999999999ADDAY121999GF108991041999012501071999MW1051
0057107280999991940120621004+49567+008467FM-12+002999999V0202501N01541220001CN0200001N9+00391+00001098641ADDAY181031GF102991021051008001001001MD1710061+9999MW1251
0057107650999991940070515004+49250+011100FM-12+011799999V0202701N00261007801CN0200001N9+01781+01111101441ADDAY121031GF106991061081008001001001MD1510001+9999MW1801
0089872890999991940050412004-29700-057083FM-12+006699999V0203601N001019999999N0040001N9+01721+01561101651ADDAY121999GF107991071041999999001001IA1089KA1999M+02281KA2999N+01501MD1310061+9999MW1021
0043853220999991940082720004-20450-066800FM-12+367099999V0203201N00461220001CN0500001N9+01501+99999999999ADDAY101999GF102991001999999999999999MW1011
0057102620999991940081512004+53067+011817FM-12+000999999V0202301N00261030001CN0200001N9+01721+01281101711ADDAY161999GF106991041081004501061999MD1110021+9999MW1801
0087110090999991940020206004+48183+014033FM-12+031999999V0200701N00101004501CN0010001N9-00781+99999101151ADDAA199001091AY171061GF108991081051004501999999IA1319KA1999N-00891MD1310221+9999MW1711
0025722535129091940051605004+29383-098567SAO  +0207SKF  V0201601N004112200019N1600001N9+02301+01521101691ADDGA1081+999999029MW1001
0057100200999991940091515004+55017+008433FM-12+999999999V0202001N00101030001CN0100001N9+01001+00891099431ADDAY161999GF107991041051004501021999MD1210061+9999MW1211
0009726625240061940020119004+44133-103100SAO  +0979RCA  V0203601N004110033019N1600001N9-00591-00811103521ADDMW1711
0087104510999991940071706004+51267+011233FM-12+004399999V0202501N00261004501CN0040001N9+01391+01391100831ADDAA199009091AY161061GF108991061051004501021999IA1089KA1999N+01281MD1410001+9999MW1581
0074265090999991940010218004+55700+021133FM-12+000199999V0202001N01901002401CN0005001N9-00111-00111100201ADDAA199000691AY131999GF109991091061002501999999IA1309MD1810461+9999MW1261
0037104740999991940083109004+51850+012650FM-12+002099999V0202701N00461007801CN0100001N9+99999+99999999999ADDAY121031GF106991061081008001001999
0057108640999991940071003004+48067+011650FM-12+016799999V0201801N00101220001CN0100001N9+00721+00671102241ADDAY101031GF104991001001999999041061MD1610061+9999MW1121
0039725377148041940022603004+42617-082817SAO  +0176MTC  V0202701N001512200019N1600001N9-01031-01371102981ADDGA1041+999999059MD1210041+9999MW1001
0051070140999991940120809004+50417+001600FM-12+000799999V0203201N01231220001CN0200001N9+00611+99999101261ADDAY101999GF101991011011008001001001MD1310401+9999
0057122500999991940121912004+53033+018567FM-12+004799999V0201101N00261220001CN0020001N9-01221-01391102881ADDAY121999GF106991001001999999001041MD1810181+9999MW1051
0057108580999991940122709004+48200+011267FM-12+015899999V0202701N00261000601CN0010001N9-00781-00941102971ADDAY171031GF108991081051000751999999MD1110061+9999MW1731
0057116430999991940112300004+50750+015733FM-12+049199999V0202701N01541220001CN0100001N9+00221+00171103891ADDAY141999GF106991001001999999071999MD1810021+9999MW1281
0070121630999991940070218004+54133+020567FM-12+002799999V0203601N00461220001CN0100001N9+02221+01281101331ADDAY101999GF100991001001999999001001IA1009KA1999M+02501MD1610061+9999
0023911800999991940051800004+21333-157950SAO  +0009PHIK V0200451N005110090019N1600001N1+02851+01851101661ADDMD1710161+9999MW1001
0270999999149361940020616005+44383-098217SAO  +039599999V02022559002150021349N016000599-00615-00895101085ADDGA1999+000004999GD19999+9999999GD29999+9999999GD39999+9999999GF107995999999999999999999MA1999999096285EQDN01 00000JPWTH 1QNNE11 1 09999E11 1 09999E11 1 09999G11 1 00007H11 1 99000K11 1 00016L11 1 01000M11 1 28430N11 1 00000Q11 1 10108S11 1 00021V11 1 00999W11 1 66004
0057104990999991940032221004+51150+014950FM-12+007299999V0201801N00261004501CN0020001N9+00501+00391101501ADDAY121031GF108991081051004501999999MD1810101+9999MW1051
0043108060999991940041112004+48633+008083FM-12+004599999V0203601N00461007801CN0040001N9+99999+99999999999ADDAY121061GF106991061071008001001999MW1051
0078167540999991940011506004+35333+025267FM-12+002699999V0209991C00001220001CN0200001N9+00891+99999101941ADDAY111999GF101991011041012501001011IA1009EQDQ01+000032APCTENQ02+000002APC3  
0044719350999991940112501004+60850-115767FM-12+016199999V0201401N002119999999N9999999N9-01221+99999999999ADDGF104991001999999999999999MA1999999100641
0025745980137021940020117004+37083-076350SAO  +0002LFI  V0201801N004612200019N0024001N9+00411-00531102441ADDGA1021+999999029MW1051
0057109620999991940062909004+47800+011017FM-12+030199999V0200701N00101007801CN0100001N9+01221+00781100031ADDAY121031GF107991071071008001999999MD1410001+9999MW1051
0078070160999991940090212004+50333+003000FM-12+004899999V0203201N00461220001CN0040001N9+02281+99999102381ADDAY111999GF104991041011008001001001MW1051EQDQ01+000032APCTENQ02+000002APC3  
0025722485139441940061904004+32500-093683SAO  +0053BAD  V0201601N002612200019N1600001N9+02411+02241101691ADDGA1021+999999039MW1001
0051104000999991940062412004+51283+006767FM-12+001199999V0209991C00001075001CN0100001N9+02611+99999099861ADDAY121061GF106991041081008001001071MD1710061+9999
0057121860999991940071909004+54033+022517FM-12+005099999V0202501N00461030001CN0100001N9+02111+01671101461ADDAY121999GF106991041021008001081001MD1310101+9999MW1051
0043855410999991940032613004-32817-070083FM-12+385099999V0202001N00671015001CN0500001N9-00281+99999999999ADDAY111999GF106991061999017501999999MW1021
0025724567139211940020920004+39367-094917SAO  +0238FLV  V0203151N003612200019N1600001N1-00531-01091102201ADDGA1061+999999049MW1001
0057103100999991940081803004+55367+007933FM-12+001699999V0202901N00261000151CN0002001N9+01281+99999102471ADDAY141999GF109991091999000251999999MD1810121+9999MW1451
0057102890999991940042603004+53317+013867FM-12+000899999V0202301N00261030001CN0010001N9+00891+00781101191ADDAY111999GF106991041051012501071001MD1310021+9999MW1101
0057104260999991940103115004+51700+008750FM-12+005799999V0201401N01231012301CN0020001N9+00391+99999101301ADDAY121031GF107991061051012501071999MD1710021+9999MW1051
0035830360999991940032700004-23650-045417FM-12+000399999V0200501N004619999999N9999999N9+02611+99999101581ADDGF102991999999999999999999MW1111
0037266960999991940062109004+54767+020400FM-12+001099999V0202901N00461220001CN0100001N9+99999+99999999999ADDAY111999GF101991011011022501031999
0057116030999991940022403004+50767+015067FM-12+038799999V0201601N00931220001CN0040001N9-00221+99999101511ADDAY121999GF108991001001999999021999MD1810181+9999MW1051
0057105590999991940040321004+50467+011083FM-12+025699999V0201801N00101000151CN0010001N9+00281+00221100331ADDAY161031GF108991081051000251999999MD1990081+9999MW1631
0039723030137141940032103004+35183-079017SAO  +0064POB  V0202301N001012200019N0112001N9+00631+00411101121ADDGA1001+999999999MD1210161+9999MW1001
0039911800999991940050623004+21333-157950SAO  +0009PHIK V0200451N008212200019N1600001N1+02631+01911101661ADDGA1999+013509999MD1710141+9999MW1001
0025722860231191940022320004+33900-117250SAO  +0466RIV  V0200501N000510120019N0160001N9+01631+01021102201ADDGA1061+007509059MW1001
0029719031999991940040112004+61300-064883FM-12+003999999V0203201N008219999999N0200001N9-01001+99999100911ADDGF102991021999999999999999
0055745980137021940050221004+37083-076350SAO  +0002LFI  V0201401N005110420019N1600001N9+02131+01351100171ADDGA1021+006009059GA2061+999999049MD1710201+9999MW1001
0113871960999991940112712004-27583-066317FM-12+106899999V0209991C00001220001CN0500001N9+02281+01331999999ADDAY101999GF100991001001999999001001IA1009KA1999M+03221KA2999N+01501MA1999999099291MD1310141+9999ME1900009MW1001
0025749154999991940031400004+18917-155683SAO  +001299999V0200901N004612200019N1600001N1+02461+01961100851ADDGA1999+010809999MW1001
0009726770240331940091214004+45800-108533SAO  +1088BIL  V0202481N001512200019N1600001N1+01631+00521101461ADDMW1001
0043121120999991940011509004+54167+017500FM-12+003899999V0202701N00671004501CN0005001N9+99999+99999999999ADDAY131999GF108991081061004501999999MW1381
0051101310999991940092912004+53867+008717FM-12+000199999V0200201N00671030001CN0200001N9+01001+00941102131ADDAY111999GF106991021011008001041011MD1310061+9999
0025724338138021940040417004+38550-089983SAO  +0134BLV  V0202901N011812200019N1600001N9+01021+00581101691ADDGA1011+999999029MW1001
0098124040999991940051106004+51633+015383FM-12+004699999V0201801N00101012301CN0040001N9+01221+01001101661ADDAY121999GF108991071051012501071999IA1009MD1710011+9999MW1051EQDQ01+000032APCTENQ02+000002APC3  
0037114230999991940022315004+49683+012667FM-12+021399999V0203201N00261036001CN0040001N9+99999+99999999999ADDAY121999GF106991041051004501051999
0051125330999991940030803004+50300+016667FM-12+011399999V0201801N00101220001CN0040001N9-00891-01061101641ADDAY121999GF104991001001999999071999MD1210021+9999
0057104100999991940100109004+51400+006950FM-12+003799999V0200701N00931220001CN0040001N9+00781+00391102031ADDAY101031GF100991001001999999001001MD1810081+9999MW1051
0087104300999991940040506004+51717+008367FM-12+002399999V0202701N004619999999N0040001N9+00611+99999100431ADDAA199003091AY161061GF108991041061001501999999IA1089KA1999N+00501MD1210181+9999MW1211
0025724338138021940090717004+38550-089983SAO  +0134BLV  V0202001N002112200019N0112001N9+03131+01521102171ADDGA1001+999999999MW1001
0057103640999991940050509004+51983+013083FM-12+002799999V0200201N00261001501CN0040001N9+00891+00671101201ADDAY151999GF108991071061001501999999MD1310041+9999MW1051
0070108100999991940060318004+48600+008200FM-12+035599999V0200701N00461220001CN0200001N9+01281+00611099151ADDAY121061GF102991021021002501001001IA1009KA1999M+01391MD1610021+9999
0029839260999991940050200004-28883-049517FM-12+002799999V0209991C000019999999N9999999N9+02221+99999101551ADDGF106991999999999999999999
0029710950999991940103001004+72700-078000FM-12+000399999V0209991C000019999999N9999999N9-00441+99999999999ADDGF108991001999999999999999
0025691174999991940122714004+39833-076117SAO  +0002KQAH V0200451N001510021019N0004001N1+00801+00741101351ADDGA1081+999999079MW1451
0039724836232081940041921004+38650-121383SAO  +0024MCC  V0201801N008712200019N1600001N9+02631+00691101491ADDGA1081+999999029MD1210041+9999MW1001
0039911700225081940021421004+21483-158033SAO  +0271PHHI V0200901N002112200019N1600001N9+02571+02021101631ADDGA1001+999999999MD1710031+9999MW1001
0039725377148041940080221004+42617-082817SAO  +0176MTC  V0201601N004610300019N1600001N9+02411+01351102171ADDGA1061+999999039MD1710141+9999MW1001
0037114230999991940062815004+49683+012667FM-12+021399999V0200501N00261004501CN0040001N9+99999+99999999999ADDAY111999GF107991071051004501001999
0051111810999991940041812004+47967+016267FM-12+023599999V0200901N00261220001CN0200001N9+02281+99999100641ADDAY111061GF106991001001999999051021MD1710161+9999
0045723556999991940020421004+35667-095367SAO  +0186MKO  V0201801N004610009019N0024001N1+00581+00411101251ADDGA1081+999999079MD1710221+9999MW1451MW2511
0025722536129111940051720004+29533-098283SAO  +0226RND  V0202001N006210105019N1600001N9+02961+01911101121ADDGA1051+999999089MW1001
0039724050137431940040715004+38850-077033SAO  +0020DCA  V0201801N002112200019N0160001N1+01521-00151102571ADDGA1011+999999029MD1610061+9999MW1001
0051106350999991940101221004+50217+008450FM-12+024499999V0200901N00461220001CN0100001N9+00501+00391102801ADDAY121031GF104991021051008001001011MD1990061+9999
0023724836232081940021715004+38650-121383SAO  +0024MCC  V0201401N008710075019N1600001N9+00911+00741102071ADDMD1210481+9999MW1001
0025742070242011940062623004+47083-122617SAO  +0095GRF  V0202701N004612200019N1600001N9+02351+00851102071ADDGA1031+013509059MW1001
0051104940999991940122315004+51983+014733FM-12+001399999V0200501N00261007801CN0100001N9-00611-00941102881ADDAY171031GF108991071051008001999999MD1710041+9999
0025722110128421940122205004+27967-082533SAO  +0003TPA  V0200681N005110021019N0112001N1+01801+01691999999ADDGA1081+999999059MW1001
0037124160999991940043009004+51800+016317FM-12+002999999V0200901N01231220001CN0100001N9+99999+99999999999ADDAY101999GF104991041071008001001999
0057104730999991940070503004+51350+011967FM-12+003399999V0202901N00101220001CN0020001N9+01111+00891101091ADDAY101031GF102991021021012501041091MD1210061+9999MW1051
0051107630999991940042215004+49483+011100FM-12+009699999V0202001N00261220001CN0200001N9+02281+00671101501ADDAY111031GF104991021021017501061001MD1810141+9999
0039911700225081940070403004+21483-158050SAO  +0257PHHI V0200501N007212200019N1600001N9+02521+01801101391ADDGA1999+012609999MD1710041+9999MW1001
0051103980999991940043015004+52333+014617FM-12+001599999V0201101N00671030001CN0200001N9+01391+00221101621ADDAY121031GF106991041051008001031071MD1810161+9999
0070109650999991940111206004+47450+011267FM-12+027799999V0201801N00931220001CN0040001N9+00391+00171097361ADDAY121999GF108991999001999999061001MD1810301+9999EQDQ01+000002SCOTLC
0043108680999991940082821004+48250+011550FM-12+014899999V0200501N00461012301CN0040001N9+99999+99999999999ADDAY121031GF108991061051012501021999MW1051
0057104000999991940010503004+51283+006767FM-12+001199999V0209991C00001220001CN0005001N9-01111+99999101191ADDAY141031GF100991001001999999001001MD1210041+9999MW1421
0057104070999991940111103004+51183+006400FM-12+002499999V0202301N00261220001CN0040001N9+00501+99999100461ADDAY161031GF104991041051008001999999MD1210021+9999MW1211
0043852300999991940071317004-17600-069450FM-12+405999999V0209991C00001220001CN0500001N9+01221+99999999999ADDAY101999GF100991001999999999999999MW1001
0051112040999991940050812004+46750+012750FM-12+067099999V0200901N00671015001CN0200001N9+01721+99999101281ADDAY121061GF107991061081017501051001MD1810141+9999
0057122070999991940082212004+53317+015000FM-12+000999999V0202501N00931002401CN0100001N9+01221+01111099301ADDAY181999GF108991061081002501021999MD1210141+9999MW1801
0057106770999991940011209004+50000+011633FM-12+011399999V0201401N00261220001CN0040001N9-00781-01441103531ADDAY101031GF101991001001999999001011MD1990061+9999MW1051
0057104570999991940120912004+51750+011067FM-12+003899999V0202501N00671075001CN0100001N9+00391+00001101301ADDAY121061GF106991041051012501001081MD1710201+9999MW1051
0043114230999991940031309004+49683+012667FM-12+021399999V0202301N00671004501CN0040001N9+99999+99999999999ADDAY121999GF108991081051004501999999MW1501
0057106850999991940102203004+50300+011867FM-12+017399999V0202001N00101000151CN0000001N9+00221+00171101311ADDAY141031GF109991091999000251999999MD1810021+9999MW1451
0043101130999991940040218004+53700+007150FM-12+000499999V0202901N00461030001CN0040001N9+99999+99999999999ADDAY121999GF107991041051004501021999MW1051
0057103590999991940082715004+52533+011433FM-12+001699999V0202501N00461012301CN0040001N9+02001+01331102031ADDAY121999GF107991061051012501071999MD1610101+9999MW1051
0051102740999991940053115004+53350+012733FM-12+002299999V0202901N00671004501CN0200001N9+01611+01171101411ADDAY121999GF107991071081004501001011MD1610021+9999
0057107550999991940011221004+49317+010667FM-12+014299999V0209991C00001220001CN0040001N9-01221-01391103831ADDAY101031GF100991001001999999001001MD1210191+9999MW1051
0009723556999991940072007004+35667-095367SAO  +0186MKO  V0201801N002612200019N1600001N1+02131+02021101521ADDMW1001
0051111570999991940090709004+47533+014150FM-12+064099999V0209991C00001220001CN0200001N9+01781+99999102121ADDAY101031GF101991011011022501001001MD1990141+9999
0025725377148041940121101004+42617-082817SAO  +0176MTC  V0203601N001510078019N1600001N9+00021-00421102571ADDGA1081+999999059MW1001
0102103840999991940122315004+52483+013433FM-12+001799999V0200501N00261220001CN0100001N9-00611-00941102991ADDAY121999GF102991999001999999031001MD1210031+9999EQDQ01+000002SCOTLCQ02+000042APCTENQ03+000042APC3  
0057108660999991940061712004+48133+011700FM-12+015699999V0202501N00461004501CN0100001N9+01501+01281101421ADDAY121061GF108991071051004501999999MD1710061+9999MW1051
0043855410999991940120613004-32817-070083FM-12+385099999V0202301N00261220001CN0500001N9+00001+99999999999ADDAY101999GF100991001999999999999999MW1001
0076107100999991940100206004+49317+008100FM-12+020599999V0200201N00931000151CN0002001N9+00501+00391103061ADDAY141061GF108991081051000251999999IA1089KA1999N+00501MD1110021+9999MW1461
0023911800999991940051419004+21333-157950SAO  +0009PHIK V0201351N004110105019N1600001N1+02681+02071101631ADDMD1210101+9999MW1001
0057267020999991940091812004+54733+020567FM-12+000999999V0202501N00671220001CN0100001N9+01781+01111100951ADDAY101999GF102991021021008001061001MD1210121+9999MW1051
0025724338138021940071513004+38550-089983SAO  +0134BLV  V0202301N003612200019N0112001N9+02571+02021101901ADDGA1021+021009039MW1001
0087114060999991940021718004+50083+012400FM-12+047399999V0200901N00101220001CN0010001N9-01281+99999100441ADDAA199000691AY111061GF102991021051008001001001IA1309KA1999M-00721MD1710101+9999MW1101
0070103120999991940042112004+51933+007650FM-12+001799999V0202701N00671220001CN0100001N9+02221+99999101212ADDAY101999GF101991001001999999001011MD1990061+9999EQDQ01+101213APOSLP
0087102800999991940060106004+53600+013300FM-12+002199999V0202901N00671001501CN0020001N9+01111+01061101931ADDAA199000691AY151999GF108991081051001501999999IA1089KA1999N+00891MD1310201+9999MW1511
0031724550139471940092418004+39050-096767SAO  +0324FRI  V0200501N007210024019N0096001N9+01691+01631101521ADDGA1081+999999059MW1451MW2611
0051121160999991940033009004+54450+017000FM-12+001299999V0202901N00101220001CN0200001N9-00281-00781101591ADDAY101999GF101991011011004501001001MD1310161+9999
0041911800999991940110919004+21333-157950SAO  +0009PHIK V0203151N001510510019N1600001N1+02521+02021101321ADDGA1011+009009089GA2061+999999039MW1001
0057121500999991940030321004+54383+018600FM-12+000599999V0203401N00261001501CN0040001N9+00001+00001101151ADDAY151999GF108991081051001501999999MD1710261+9999MW1511
0051104190999991940050415004+51217+007633FM-12+013699999V0200501N00461002401CN0002001N9+01111+99999100751ADDAY151031GF108991081051002501999999MD1110101+9999
0051122070999991940102309004+53317+015000FM-12+000999999V0200901N00461015001CN0100001N9+00611+00001101971ADDAY121999GF107991061051017501071999MD1310141+9999
0025745700138401940091107004+39833-084050SAO  +0254FFO  V0202301N001512200019N1600001N9+00801+00301101391ADDGA1021+018009049MW1001
0009726770240331940032323004+45800-108533SAO  +1088BIL  V0200681N007212200019N1600001N1+00131-00481102201ADDMW1001
0057105130999991940100600004+50983+006900FM-12+001599999V0201801N00261030001CN0040001N9+01221+01001101901ADDAY121061GF106991021051008001011071MD1810101+9999MW1051
0037107380999991940111112004+48700+009200FM-12+011899999V0202501N00461004501CN0200001N9+99999+99999999999ADDAY161061GF106991061081004501001999
0043106570999991940072803004+49767+009500FM-12+010299999V0202501N00261004501CN0040001N9+99999+99999999999ADDAY111031GF106991061061004501001999MW1051
0057103100999991940121403004+55367+007933FM-12+001699999V0200701N00461021001CN0040001N9-00281+99999103171ADDAY121999GF106991061051022501999999MD1990081+9999MW1051
0037122720999991940081809004+53767+020417FM-12+004199999V0201801N00261004501CN0100001N9+99999+99999999999ADDAY121999GF108991081051004501999999
0057125390999991940101700004+50267+018667FM-12+007599999V0201101N00461220001CN0040001N9+00111+00001102801ADDAY101999GF100991001001999999001001MD1310021+9999MW1051
0000719031999991940092900004+61300-064883FM-12+003999999V0202701N008719999999N0100001N9-00061-00171101081
0035836980999991940102400004-21750-041333FM-12+001399999V0200501N009319999999N9999999N9+02281+99999101321ADDGF108991999999999999999999MW1111
0051121600999991940082415004+54150+019433FM-12+000299999V0201801N01541002401CN0100001N9+01281+01061100071ADDAY151999GF108991071061002501999999MD1310181+9999
0076115670999991940090506004+50117+014533FM-12+028399999V0209991C00001000151CN0000501N9+00891+99999102711ADDAY141999GF109991091999000251999999IA1089KA1999N+00721MD1310061+9999MW1431
0087106550999991940112518004+49800+009967FM-12+008199999V0201801N00461004501CN0010001N9+00391+00281103721ADDAA199000691AY121061GF107991071051004501999999IA1009KA1999M+00611MD1410001+9999MW1101
0089879120999991940031512004-50000-068517FM-12+001199999V0201601N00671015001CN0100001N9+01221+00781099381ADDAY121999GF106991061031017501999999IA1009KA1999M+02721KA2999N+01111MD1110261+9999MW1021
0070104970999991940061118004+51283+014133FM-12+008899999V0200901N00101220001CN0100001N9+02111+01171101531ADDAY121061GF108991001001999999021999IA1009KA1999M+02391MD1990021+9999
0009702000266171940020101004+64500-165433SAO  +0007OME  V0203601N001512200019N0320001N1-01981-02981100031ADDMW1001
0061823920999991940080112004-03700-040350FM-12+006499999V0201801N002619999999N9999999N9+02781+99999101471ADDGF100991999999999999999999KA1999M+03501KA2999N+02001MW1111
0100879380999991940082012004-54800-068300FM-12+000799999V0209991C000019999999N0020001N9-00501-00891098461ADDAA124000591AY101999GF104991041081999999001001IA1139KA1999M+00281KA2999N-00611MD1310141+9999MW1011
0023722650999991940073106004+31933-102200SAO  +0871MAF  V0201801N001512200019N1600001N1+02571+01571101251ADDMD1210161+9999MW1001
0025724836232081940123122004+38650-121383SAO  +0024MCC  V0203201N001512200019N1600001N9+01131+99999101591ADDGA1041+999999029MW1001
0057166890999991940031518004+38250+021733FM-12+000399999V0201801N00261220001CN0500001N9+01391+99999101131ADDAY101999GF100991001001999999001001IA1009MD1210021+9999
0057103820999991940121512004+52467+013133FM-12+001499999V0209991C00001220001CN0040001N9-00391-00721103571ADDAY111999GF102991011051017501041001MD1210081+9999MW1051
0041722536129111940060223004+29533-098283SAO  +0226RND  V0201401N005112200019N1600001N9+03131+01741101121ADDGA1031+018009089GA2011+999999049MW1001
0057106850999991940111112004+50300+011867FM-12+017399999V0202301N00461001501CN0010001N9+00281+00221101001ADDAY121061GF108991081051001501999999MD1310021+9999MW1101
0057101220999991940082415004+53533+007883FM-12+000299999V0202901N01231004501CN0200001N9+01281+99999101181ADDAY121999GF107991071081004501021999MD1310261+9999MW1251
0039745980137021940120412004+37083-076350SAO  +0002LFI  V0203201N001512200019N0096001N9-00651-00871103011ADDGA1001+999999999MD1110041+9999MW1051
0033911820225211940122318004+21333-157950SAO  +0011PHNL V0203401N005112200019N1600001N9+02301+01911101521ADDGA1031+008409059MD1210161+9999
0057107760999991940092900004+48983+012200FM-12+010199999V0202901N00261004501CN0040001N9+00781+00561101321ADDAY161061GF108991081051004501999999MD1210051+9999MW1611
0009722650999991940102607004+31933-102200SAO  +0871MAF  V0201351N002612200019N1600001N1+01461+01351101521ADDMW1001
0037121950999991940011912004+54083+022933FM-12+017699999V0200501N00931220001CN0100001N9+99999+99999999999ADDAY121999GF108991001001999999021999
0025722110128421940080716004+27967-082533SAO  +0003TPA  V0200901N002110090019N1600001N1+03131+02181999999ADDGA1051+999999089MW1001
0037104490999991940080200004+51483+010317FM-12+009099999V0203601N00101220001CN0100001N9+01281+01061102771ADDAY111061GF100991001001999999001001
0051107760999991940123103004+48983+012200FM-12+010199999V0202501N01541007801CN0040001N9+00281+00171100201ADDAY171031GF108991081051008001999999MD1990041+9999
0025749154999991940052421004+18917-155683SAO  +001299999V0200901N007210210019N1600001N1+02801+01961101421ADDGA1999+009009999MW1001
0057106550999991940011709004+49800+009967FM-12+008199999V0200501N00461002401CN0020001N9-01611-01891100891ADDAY171031GF108991081051002501999999MD1310281+9999MW1711
0031725115147111940053107004+40200-076767SAO  +0097MDT  V0200451N007710021019N0032001N1+01131+01021101021ADDGA1081+999999079MW1451MW2611
0057122250999991940050812004+53267+016467FM-12+003899999V0201801N00101007801CN0040001N9+01611+00941101991ADDAY121999GF108991061051008001021999MD1810021+9999MW1051
004594999900142194008032300N-15470+145250AUST +0006     V0201585N004659999999N999999999+02215+99999999999ADDGA1075+006005999GF107995074999006005999999
0025725377148041940030519004+42617-082817SAO  +0176MTC  V0203201N004610060019N0080001N9+00191-00261101021ADDGA1081+999999059MW1051
0057104750999991940043012004+50967+012517FM-12+005999999V0201401N00671220001CN0040001N9+01281+00611101281ADDAY121061GF104991021071008001041001MD1710101+9999MW1051
0100873950999991940041712004-31367-058017FM-12+003899999V0209991C00001220001CN0040001N9+01111+00831102091ADDAA124006091AY111999GF100991001001999999001001IA1109KA1999M+01501KA2999N+00781MD1310141+9999MW1001
0025723030137141940121105004+35183-079017SAO  +0064POB  V0202701N000512200019N0128001N9+00021-00261102511ADDGA1001+999999999MW1001
0057104390999991940032709004+51117+009283FM-12+005299999V0202501N00461007801CN0100001N9+00891+00671099231ADDAY161031GF107991061051008001021999MD1310061+9999MW1211
0025724338138021940060202004+38550-089983SAO  +0134BLV  V0201601N002612200019N1600001N9+02131+01191101631ADDGA1001+999999999MW1001
0043107380999991940103118004+48700+009200FM-12+011899999V0201601N00461036001CN0040001N9+99999+99999999999ADDAY121061GF107991041051017501041999MW1051
0051013840999991940081609004+60200+011083FM-12+020299999V0203601N00671220001CN0500001N9+01391+99999101651ADDAY111999GF102991021051012501041001MD1110141+9999
0108101470999991940111718004+53633+010000FM-12+000599999V0201401N00461220001CN0010001N9-00391-00721100291ADDAA199000691AY121999GF104991001001999999041061IA1319KA1999M+00001MW1101EQDQ01+000042APCTENQ02+000022APC3  
0055724956232111940040618004+38067-122517SAO  +0003SRF  V0201351N002612200019N0128001N1+01571+01071102001ADDGA1021+006009089GA2061+999999029MD1310041+9999MW1001
0009727855241141940101401004+47617-117650SAO  +0741SKA  V0200201N001512200019N1600001N9+01071+00741999999ADDMW1001
0070103390999991940061918004+52583+010533FM-12+002099999V0200501N00261220001CN0500001N9+02391+99999101641ADDAY101999GF102991011011017501001041IA1009KA1999M+02501MD1510041+9999
0043124140999991940062706004+51267+015567FM-12+005999999V0202301N00461007801CN0020001N9+99999+99999999999ADDAY121999GF108991071051008001031999MW1051
0057106770999991940013000004+50000+011633FM-12+011399999V0209991C00001220001CN0040001N9-01111-01281102231ADDAY101061GF100991001001999999001001MD1810061+9999MW1051
0037104500999991940051709004+51367+011100FM-12+004399999V0200501N00461220001CN0100001N9+99999+99999999999ADDAY121031GF107991001001999999071999
0051108680999991940050715004+48250+011550FM-12+014899999V0203601N00101036001CN0200001N9+01391+00501101791ADDAY121031GF108991041081012501011999MD1810061+9999
0057785140999991940061917004+18500-067133SAO  +0075TJBQ V0201581N002110150019N0096001N1+02521+02351101421ADDGA1021+999999079GA2031+999999049GA3021+999999029MW1801
0051109350999991940062412004+47667+009500FM-12+012299999V0201601N00261036001CN0200001N9+02221+01281099621ADDAY121061GF107991011021008001071041MD1810021+9999
0037070570999991940071812004+49267+002650FM-12+008699999V0203201N00671004501CN0200001N9+99999+99999999999ADDAY121999GF107991061081004501061999
004595677099999194003262000N-34800+138630AUST +0016YPPF V0209999C000059999999N999999999+02175+99999999999ADDGA1005+999999999GF102995004999999999999999
0039724550139471940082715004+39050-096767SAO  +0324FRI  V0200501N001510045019N1600001N9+02241+01911100981ADDGA1061+999999089MD1210101+9999MW1001
0051121010999991940050215004+54150+015350FM-12+000199999V0201101N01231220001CN0200001N9+01611+00441101531ADDAY101999GF100991001001999999001001MD1710101+9999
0072826900999991940071612004-06967-035683FM-12+061999999V0200901N002619999999N9999999N9+02111+99999101591ADDAA124002091GF102991999999999999999999KA1999M+02221KA2999N+01611MW1401
0108103370999991940030618004+52150+009750FM-12+002799999V0203401N00261007801CN0040001N9+00001+99999101671ADDAA199000391AY121999GF107991071051008001999999IA1159KA1999M+00001MW1051EQDQ01+000042APCTENQ02+000062APC3  
0219722265138211940121420003+32383-086350SAO  +0053MXF  V02009059002650030549N0048005N9+01835+01785102135ADDGA1081+001834064GD19085+9999999GD29999+9999999GD39999+9999999MW1455MW2615EQDN01 02070JPWTH 1QNNE11 1 09910E11 1 09999E11 1 09999G11 1 00010H11 1 15006K11 1 00064L11 1 00300N11 1 02070Q11 1 10213S11 1 00065W11 1 33005
0025723030137141940050107004+35183-079017SAO  +0064POB  V0202501N005110210019N1600001N9+01691+01131101461ADDGA1081+999999059MW1001
0037125850999991940101406004+50683+021750FM-12+020199999V0200901N00461220001CN0200001N9+99999+99999999999ADDAY101999GF104991001001999999001999
0057116430999991940110203004+50750+015733FM-12+049199999V0201801N01231220001CN0100001N9+00221-00721103131ADDAY121999GF107991001001999999001071MD1710121+9999MW1051
0033742060242071940092106004+47150-122483SAO  +0086TCM  V0209991C000012200019N1600001N9+01071+01071101801ADDGA1001+999999999MD1410001+9999
004594999900137194012020500N-17470+140830AUST +0009     V0203155N005759999999N999999999+03045+99999999999ADDGA1025+007505999GF102995024999007505999999
0070114060999991940081118004+50083+012400FM-12+047399999V0202701N00461220001CN0200001N9+01781+99999101721ADDAY121061GF102991021011008001041011IA1009KA1999M+02111MD1210031+9999
0057102620999991940052212004+53067+011817FM-12+000999999V0203601N00261030001CN0040001N9+01891+01221101431ADDAY121999GF107991041051008001021999MD1810101+9999MW1051
0041722640930351940060319004+30367-104017SAO  +1481MRF  V0201801N004610510019N1600001N1+03461+00411100691ADDGA1011+015001051GA2061+999999021MW1001
0025724338138021940020719004+38550-089983SAO  +0134BLV  V0202701N003610045019N0048001N9-00041-00371101421ADDGA1081+999999079MW1051
0025722860231191940082508004+33900-117250SAO  +0466RIV  V0202901N003112200019N0032001N9+01461+01351101381ADDGA1001+999999999MW1111
0009727855241141940072608004+47617-117650SAO  +0741SKA  V0201101N002612200019N1600001N9+01691+00691101121ADDMW1001
0051104880999991940050103004+51133+013767FM-12+007099999V0201101N00671030001CN0100001N9+00891+00441101131ADDAY121031GF106991041051008001071999MD1610101+9999
0051106090999991940071909004+49750+006667FM-12+008199999V0201801N00461004501CN0100001N9+01721+99999101571ADDAY121031GF107991071051004501031999MD1210021+9999
0073104800999991940020806004+51300+013067FM-12+004999999V0202501N00261007801CN0040001N9+00391+00281100971ADDAA199004091AY161061GF108991061051008001071999IA1309KA1999N-00721MW1211
0037122730999991940013012004+52883+020633FM-12+003699999V0200701N00261220001CN0100001N9+99999+99999999999ADDAY101999GF100991001001999999001999
0057108600999991940111809004+48717+011517FM-12+011199999V0201801N00101220001CN0100001N9+00501+00391099901ADDAY121031GF104991999001022501071011MD1310181+9999MW1051
0037267130999991940062906004+54633+022567FM-12+002399999V0200901N00101220001CN0100001N9+99999+99999999999ADDAY101999GF100991001001999999001999
0089102620999991940031018004+53067+011817FM-12+000999999V0209991C00001220001CN0100001N9+00391+00171102051ADDAY101999GF101991999001999999041001IA1159KA1999M+00611MD1210081+9999EQDQ01+000002SCOTLC
0025724567139211940022323004+39367-094917SAO  +0238FLV  V0201801N005110045019N0112001N1+00241+00191101461ADDGA1081+999999059MW1611
0076103520999991940012612004+52533+013017FM-12+001399999V0202301N00261004501CN0040001N9-00501-00671102301ADDAY121999GF108991081051004501999999MD1410001+9999MW1051EQDQ01+000062APCTEN
0071722640930351940090114004+30367-104017SAO  +1481MRF  V0201801N001512200019N1600001N1+02131+01691101801ADDGA1021+004501071GA2021+999999041GA3021+999999001MD1110041+9999MW1001
0025723030137141940081013004+35183-079017SAO  +0064POB  V0200501N004110036019N0112001N9+02461+02181101901ADDGA1081+999999079MW1001
0100875850999991940020212004-34567-058467FM-12+002599999V0201801N00261001501CN0040001N9+01891+01781101251ADDAA124140091AY191999GF108991081081001501999999IA1109KA1999M+02111KA2999N+01721MD1310081+9999MW1031
0081104660999991940032006004+51483+011933FM-12+002499999V0202301N00461220001CN0100001N9+00501+00111101411ADDAA199000591AY111061GF104991011051012501031001IA1109KA1999N+00221MD1110121+9999
0057116430999991940060103004+50750+015733FM-12+049199999V0203401N01901000151CN0000001N9+00221+00171103411ADDAY141999GF109991091999000251999999MD1210081+9999MW1451
0087999999241551940052909005+45683-118850SAO  +045599999V02013559001552200049N999999999+01445+00335100855ADDMA1999999095605QNNG11U1 99999K11 1 00038M11 1 28230Q11 1 10085S11 1 00058W11 1 44003
0057103170999991940032415004+52283+008017FM-12+002799999V0202301N00461007801CN0040001N9+01111+99999100991ADDAY121999GF108991081051008001999999MD1810061+9999MW1051
0056166750999991940051706004+38900+022433FM-12+999999999V0203201N00461220001CN0100001N9+01501+99999100061ADDAY111999GF104991041051012501001011IA1089KA1999N+00891
0076108580999991940040206004+48200+011267FM-12+015899999V0202301N00461220001CN0100001N9+00721+00111101821ADDAY101061GF102991001001999999001041IA1009KA1999N-00281MD1810081+9999MW1051
0057265090999991940032109004+55700+021133FM-12+000199999V0201601N01231004501CN0040001N9-00391-00391101591ADDAY121999GF108991081051004501999999MD1310041+9999MW1051
0043061600999991940090215004+55767+012317FM-12+001999999V0202701N00671004501CN0100001N9+99999+99999999999ADDAY161999GF108991061051004501021999MW1801
0051109470999991940062500004+47983+010233FM-12+019299999V0202301N00671220001CN0200001N9+01111+00891100341ADDAY121061GF104991001001999999041081MD1210201+9999
0057109650999991940111306004+47450+011267FM-12+027799999V0202701N00101015001CN0040001N9+00391+00001097381ADDAY161999GF108991081051017501999999MD1310101+9999MW1211
0051107270999991940123003004+49017+008383FM-12+003599999V0202001N01541012301CN0040001N9+00281-00111102121ADDAY121031GF108991081051012501999999MD1810101+9999
0043104380999991940042812004+51383+009533FM-12+008899999V0200701N00261004501CN0020001N9+99999+99999999999ADDAY121061GF108991061031004501011999MW1801
0072265100999991940071706004+55150+020867FM-12+000199999V0200501N00261007801CN0100001N9+01891+01611100471ADDAY111999GF106991061051008001999999EQDQ01+000032APCTENQ02+000002APC3  
0051104190999991940081209004+51217+007633FM-12+013699999V0202701N00461030001CN0200001N9+01501+99999102231ADDAY121031GF107991041021004501071001MD1110061+9999
0051126500999991940090512004+49233+019983FM-12+198899999V0203601N00461220001CN0200001N9+00721+00671100901ADDAY101999GF101991011021004501001011MD1110021+9999
0057101200999991940120600004+54183+007883FM-12+001599999V0202701N02261004501CN0010001N9+00391+99999098571ADDAY121999GF108991081081004501999999MD1990301+9999MW1101
0043114550999991940122312004+49383+013300FM-12+039799999V0209991C00001007801CN0020001N9+99999+99999999999ADDAY171999GF108991081051008001999999MW1711
0076125330999991940051606004+50300+016667FM-12+011399999V0203201N00261220001CN0100001N9+00391+00171100691ADDAY111999GF104991041051012501041001IA1009KA1999N+00001MD1210021+9999MW1051
0057064070999991940091921004+51200+002917FM-12+000499999V0201601N00461004501CN0100001N9+01501+99999100691ADDAY121999GF108991081081004501999999MD1710041+9999MW1811
0296999999149361940032919005+44383-098217SAO  +039599999V02022559006252200059N016000599+00785+00225100715ADDGA1999+000004999GD19999+9999999GD29999+9999999GD39999+9999999GD49999+9999999GF100995999999999999999999MA1999999096005EQDN01 00000JPWTH 1QNNE11 1 09999E11 1 09999E11 1 09999E11 1 09999G11U1 99999H11 1 99000K11 1 00036L11 1 01000M11 1 28350N11 1 00000Q11 1 10071S11 1 00046V11 1 00099W11 1 66012
0023691174999991940031106004+39833-076117SAO  +0002KQAH V0203151N004612200019N1600001N1-00201-00871101691ADDMD1210141+9999MW1001
004594637099999194004270700N-30780+121470AUST +0360YPKG V0203385N003659999999N999999999+02735+99999999999ADDGA1005+999999999GF105995004999999999999999
0087103870999991940122606004+52533+013117FM-12+001099999V0202501N00261000601CN0010001N9-00391-00501102871ADDAA199000691AY171061GF108991081051000751999999IA1159KA1999N-00501MD1410001+9999MW1101
0043107380999991940120215004+48700+009200FM-12+011899999V0201601N00261220001CN0040001N9+99999+99999999999ADDAY101031GF101991001001999999001999MW1051
0061835260999991940092312004-18167-047967FM-12+084099999V0209991C000019999999N9999999N9+02391+99999101221ADDGF102991999999999999999999KA1999M+03001KA2999N+01891MW1051
0072836980999991940122012004-21750-041333FM-12+001399999V0203601N002619999999N9999999N9+03001+99999100831ADDAA124000391GF104991999999999999999999KA1999M+03001KA2999N+02111MW1111
0043107610999991940121909004+49033+010983FM-12+012999999V0200901N00461004501CN0020001N9+99999+99999999999ADDAY121031GF108991081051004501999999MW1051
0009722535129091940020505004+29383-098567SAO  +0207SKF  V0201801N001010033019N0080001N9+01461+01351101191ADDMW1111
0057103660999991940031309004+52400+012917FM-12+001099999V0202001N00461012301CN0100001N9+01111+00671999999ADDAY121999GF107991071051012501999999MD1990081+9999MW1211
0023725690240891940033109004+42917-106467SAO  +1612CPR  V0202251N010812200019N1600001N1+01021-00151100311ADDMD1810061+9999MW1001
0025745700138401940071903004+39833-084050SAO  +0254FFO  V0209991C000012200019N0112001N9+02241+01851102201ADDGA1001+999999999MW1001
0057105690999991940091012004+50533+012100FM-12+013799999V0200201N00671001501CN0010001N9+00891+00831101441ADDAY151061GF108991081051001501999999MD1210021+9999MW1511
0055691174999991940052800004+39833-076117SAO  +0002KQAH V0201131N006210060019N0012001N1+01851+01741101291ADDGA1061+999999079GA2021+999999049MD1810061+9999MW1451
0087111570999991940042106004+47533+014150FM-12+064099999V0209991C00001220001CN0100001N9+00891+99999102311ADDAA199001091AY121061GF104991999001999999041001IA1089KA1999N+00501MD1110021+9999MW1051
0041722640930351940120618004+30367-104017SAO  +1481MRF  V0201801N001510270019N1600001N1+01741+00411101661ADDGA1011+015001081GA2061+999999041MW1001
0031722535129091940112514004+29383-098567SAO  +0207SKF  V0203201N002610012019N0016001N9+00961+00851101461ADDGA1081+999999079MW1451MW2511
0019742060242071940111204004+47150-122483SAO  +0086TCM  V0202701N001012200019N0032001N9-00201+99999102911ADDGA1001+999999999
0057125010999991940091906004+50950+016767FM-12+004799999V0209991C00001220001CN0100001N9+01221-01671101861ADDAY101999GF104991001001999999041021MD1310061+9999MW1051
0051266940999991940100209004+54750+020283FM-12+000399999V0200901N00461220001CN0100001N9+01221+00781102771ADDAY101999GF102991021051008001001001MD1710141+9999
0057104270999991940012709004+51183+008483FM-12+025799999V0201101N00461000151CN0000001N9-00781-00891101241ADDAY141031GF109991091999000251999999MD1210021+9999MW1451
0072834790999991940031712004-17217-046883FM-12+060799999V0200501N002619999999N9999999N9+02221+99999101711ADDAA124011091GF105991999999999999999999KA1999M+03001KA2999N+01781MW1111
0057106590999991940040309004+49750+010200FM-12+006099999V0202901N00461036001CN0100001N9+00891+00671100841ADDAY161031GF108991041061004501011999MD1710101+9999MW1601
0057070750999991940102412004+49783+004633FM-12+015699999V0200901N00261004501CN0040001N9+00891+99999100701ADDAY121999GF108991071051004501999999MD1810021+9999MW1051
0041724690230621940070622004+39750-104867SAO  +1625DEN  V0201801N001510330019N1600001N1+03411+00021101291ADDGA1021+024009089GA2051+999999039MW1001
0309722265138211940051813003+32383-086350SAO  +0053MXF  V02022559001552200019N0032005N9+02285+01445101525ADDGA1001+999999999GA2999+999999999GA3999+999999999GD19005+9999999GD29005+9999999GD39005+9999999GD49999+9999999MW1045EQDN01 00900CCLHT 3N02 08200JPWTH 1QNNE11 1 09900E11 1 09900E11 1 09900E11 1 09999G11 3 00900H11U1 00999H11 1 00999H11 1 00999K11 1 00058L11 1 00200N11 1 08200Q11 1 10152S11 1 00073W11 1 66003
0025785140999991940032814004+18500-067133SAO  +0075TJBQ V0200681N005112200019N1600001N1+02741+02021102071ADDGA1011+012009089MW1001
0025702000266171940010918004+64500-165433SAO  +0007OME  V0200451N007212200019N0320001N1-00921-01371100241ADDGA1999+018009999MW1001
