0043121120999991941082106004+54167+017500FM-12+003899999V0203201N00461002401CN0040001N9+99999+99999999999ADDAY161999GF108991081061002501999999MW1611
0039911800999991941062203004+21333-157950SAO  +0009PHIK V0200901N006710105019N1600001N1+02631+01741101591ADDGA1061+999999059MD1610041+9999MW1001
0051115670999991941051315004+50117+014533FM-12+028399999V0202301N00261220001CN0100001N9+01721+99999101801ADDAY101999GF102991001001999999001061MD1810281+9999
0025723556999991941040719004+35667-095367SAO  +0186MKO  V0201801N005110090019N0192001N1+01461+01131100641ADDGA1081+999999059MW1001
0072121950999991941100712004+54083+022933FM-12+017699999V0200501N00461220001CN0500001N9+00891-00221103671ADDAY101999GF101991011071012501001001EQDQ01+000032APCTENQ02+000002APC3  
0051100670999991941111209004+54500+011250FM-12+000399999V0201101N01901220001CN0100001N9+00281+99999101831ADDAY111999GF104991001001999999041071MD1310161+9999
0057070590999991941111612004+49900+002333FM-12+006499999V0201401N01231004501CN0100001N9+00781+99999100601ADDAY141999GF108991061051004501071999MD1710221+9999MW1051
0045745700138401941120309004+39833-084050SAO  +0254FFO  V0201601N002110045019N0012001N9+00581+00581102271ADDGA1081+999999059MD1310021+9999MW1041MW2111
0039745700138401941070800004+39833-084050SAO  +0254FFO  V0202301N002110105019N0128001N9+02181+01961101081ADDGA1081+999999059MD1310101+9999MW1001
0057107280999991941042615004+49567+008467FM-12+002999999V0200501N00671004501CN0040001N9+00501+00281100421ADDAY161031GF108991061061004501021999MD1210061+9999MW1611
0009723840231551941112810004+35433-119050SAO  +0130BFL  V0209999C000012200019N1600001N1+00581+99999999999ADDMW1001
0009722585939011941092802004+32733-096967SAO  +0151NBE  V0201801N004612200019N1600001N1+02631+02131101561ADDMW1001
0051122050999991941092112004+53400+014633FM-12+000199999V0209991C00001220001CN0200001N9+01891+00941102931ADDAY101999GF101991011011012501001001MD1810041+9999
0025724338138021941043001004+38550-089983SAO  +0134BLV  V0201601N003612200019N1600001N9+02131+01071102031ADDGA1031+024009049MW1001
0051111570999991941062215004+47533+014150FM-12+064099999V0200501N00671220001CN0200001N9+02501+99999101591ADDAY101031GF102991021021022501001001MD1810101+9999
0087106570999991941041306004+49767+009500FM-12+010299999V0202501N00461004501CN0040001N9+00721+00611101951ADDAA199000691AY161061GF108991081051004501999999IA1089KA1999N+00501MD1210061+9999MW1501
0051101800999991941072615004+54350+012733FM-12+000199999V0201101N00671220001CN0200001N9+02281+01611101621ADDAY101999GF101991011011012501061001MD1990061+9999
0041911700225081941093020004+21483-158050SAO  +0257PHHI V0200901N006210054019N1600001N9+02241+02021101661ADDGA1051+999999089GA2021+999999039MW1001
004594294599999194107112300N-19250+146770AUST +0006YBTL V0202035N004659999999N999999999+01525+99999999999ADDGA1005+999999999GF100995004999999999999999
0087116030999991941101018004+50767+015067FM-12+038799999V0201601N00671002401CN0040001N9+00781+99999100841ADDAA199007091AY161999GF108991081051002501999999IA1089KA1999M+01001MD1810181+9999MW1611
0089061600999991941050306004+55767+012317FM-12+001999999V0203601N00931220001CN0500001N9+00501+99999102331ADDAY101999GF101991999001999999041001IA1009KA1999N-00221MD1810121+9999EQDQ01+000002SCOTLC
0087116500999991941020618004+49617+015583FM-12+045699999V0209991C00001220001CN0040001N9-00781+99999101241ADDAA199000391AY121999GF107991001001999999021999IA1319KA1999M-00501MD1710061+9999MW1051
0051122810999991941032500004+53567+021000FM-12+004599999V0202701N00461004501CN0040001N9-00111-00221100551ADDAY121999GF107991071061004501999999MD1810101+9999
0057725377148041941081509004+42617-082817SAO  +0176MTC  V0209991C000010150019N0096001N9+01571+01461101221ADDGA1081+999999059MD1710041+9999MW1051MW2171MW3801MW4951
0051124040999991941071503004+51633+015383FM-12+004699999V0200701N00261220001CN0100001N9+01781+01561101321ADDAY121999GF107991001001999999051999MD1510041+9999
0122103200999991941030218004+51933+008317FM-12+002199999V0202701N01231007801CN0040001N9+01111+99999100391ADDAA199001091AY161999GF108991061061008001999999IA1089KA1999M+01611MD1210131+9999MW1631EQDQ01+000042APCTENQ02+000102APC3  
0057100010999991941121512004+53600+006700FM-12+000499999V0202301N00931220001CN0100001N9+00781+00561101311ADDAY111999GF104991001001999999071081MD1010041+9999MW1051
0009727846241601941092219004+46100-118283SAO  +0367ALW  V0202931N003112200019N1600001N1+01801+00521999999ADDMW1001
0055722640930351941071720004+30367-104017SAO  +1481MRF  V0201351N002610090019N1600001N1+02911+01521101591ADDGA1061+999999051GA2011+999999021MD1810081+9999MW1001
0051104260999991941090715004+51700+008750FM-12+005799999V0202901N00461220001CN0200001N9+01501+99999102071ADDAY121031GF106991021081008001001011MD1410001+9999
0087265120999991941112306004+54950+120250FM-12+000799999V0201601N00461002401CN0040001N9-00281-00441103111ADDAA199000691AY121999GF108991081051002501999999IA1139KA1999N-00391MD1810061+9999MW1701
0051104090999991941021809004+51833+006267FM-12+000599999V0201801N002619999999N0100001N9+00721+99999098961ADDAY121031GF107991041051004501999041MD1710011+9999
0025725755241011941102716004+41117-011250SAO  +1459FFO  V0200701N005110240019N1600001N9+00691+00131999999ADDGA1081+999999049MW1001
0037124300999991941032415004+51217+017450FM-12+004699999V0202701N006719999999N0100001N9+99999+99999999999ADDAY121999GF106991041081004501001999
0082103160999991941070406004+51967+008550FM-12+004499999V0201801N00101007801CN0010001N9+01501+99999101281ADDAY121999GF108991081051008001999999IA1009MD1410001+9999MW1101EQDQ01+000082APCTEN
0009703610253391941102219004+59517-139667SAO  +0009CYAK V0209991C000010150019N1600001N1+00131-00151101521ADDMW1001
0009724920232371941082514004+37900-121250SAO  +0008SCK  V0202481N001512200019N1600001N1+01741+01461101051ADDMW1001
0076108600999991941072506004+48717+011517FM-12+011199999V0209991C00001220001CN0010001N9+01111+01061101981ADDAY101061GF101991999001999999041001IA1009KA1999N+01001MD1410001+9999MW1101
0039743941999991941122521004+42933-071433SAO  +0076MHT  V0202931N010810090019N1600001N1+00521-00311999999ADDGA1051+999999089MD1210341+9999MW1001
0057104380999991941012212004+51383+009533FM-12+008899999V0202001N00261004501CN0010001N9+00221+00111099151ADDAY121061GF108991081051004501999999MD1710021+9999MW1101
0039722585939011941101104004+32733-096967SAO  +0151NBE  V0200681N001512200019N1600001N1+01571+01241102441ADDGA1031+999999049MD1210161+9999MW1001
0025724550139471941111116004+39050-096767SAO  +0324FRI  V0202301N003610120019N1600001N9+00581+00191103081ADDGA1081+999999059MW1001
0039722250138291941072403004+32333-085000SAO  +0071LSF  V0200501N001010570019N0128001N9+02571+02521101561ADDGA1061+999999049MD1310101+9999MW1001
0055722535129091941011721004+29383-098567SAO  +0207SKF  V0203401N005710099019N1600001N9+01071-00041101961ADDGA1061+999999059GA2021+999999049MD1710041+9999MW1001
0041722485139441941050222004+32500-093683SAO  +0053BAD  V0201601N005712200019N1600001N9+02741+01411100851ADDGA1021+015009089GA2041+999999029MW1001
0051104260999991941031715004+51700+008750FM-12+005799999V0200501N00461220001CN0200001N9+00501+99999102931ADDAY121031GF102991021011008001001001MD1210021+9999
0076727850241571941082915004+47633-117533SAO  +0721GEG  V0200451N001012200019N0240001N1+01071+00851999999ADDGA1011+006009059GA2041+999999029MW1001EQDQ01+000022APCTENQ02+000002APC3  
0089122370999991941080406004+53467+018783FM-12+000799999V0202501N00101012301CN0100001N9+01611+01611100771ADDAY121999GF107991071051012501999999IA1009KA1999N+01501MD1410001+9999EQDQ01+000032APCTEN
0025722535129091941030720004+29383-098567SAO  +0207SKF  V0203201N008710105019N0128001N9+00961+00131102171ADDGA1081+999999079MW1001
0041722436129061941090323004+29600-095167SAO  +0014EFD  V0201401N003612200019N1600001N9+02911+02571101281ADDGA1011+006009089GA2061+999999049MW1001
0100871200999991941102712004-26833-065167FM-12+042799999V0202301N00101220001CN0100001N9+01891+01441101681ADDAA124028091AY191999GF107991001001999999041999IA1109KA1999M+03391KA2999N+01221MD1310141+9999MW1021
0037122850999991941071306004+53083+021550FM-12+003199999V0201401N00461220001CN0200001N9+99999+99999999999ADDAY101999GF101991011011008001001999
0037107090999991941102509004+49633+007817FM-12+006099999V0203601N00261012301CN0100001N9+99999+99999999999ADDAY121031GF108991081051012501999999
0019742060242071941090119004+47150-122483SAO  +0086TCM  V0209991C000010135019N1600001N9+01801+01351100981ADDGA1081+999999049
0086125330999991941041712004+50300+016667FM-12+011399999V0200501N00461220001CN0500001N9+01001-00111101491ADDAY101999GF104991001001999999061011MD1710111+9999EQDQ01+000032APCTENQ02+000002APC3  
0025722487139351941122415004+31400-092300SAO  +0034ESF  V0202931N001012200019N1600001N1+00741+00461999999ADDGA1021+999999039MW1001
0009725690240891941110311004+42917-106467SAO  +1612CPR  V0202481N007712200019N1600001N1+00191-00261101691ADDMW1001
0039724050137431941050812004+38850-077033SAO  +0020DCA  V0203151N005112200019N1600001N1+02071+01521100751ADDGA1021+999999039MD1210141+9999MW1001
0037122110999991941042906004+53767+015783FM-12+002799999V0203201N00261004501CN0040001N9+99999+99999999999ADDAY121999GF108991081051004501999999
0051122370999991941032203004+53467+018783FM-12+000799999V0202501N00931220001CN0100001N9+00221+00001099531ADDAY121999GF104991041051008001001001MD1710241+9999
0051109720999991941020909004+47883+011983FM-12+014899999V0202501N00461015001CN0200001N9+00611+00221102481ADDAY121999GF107991071051017501001999MD1810101+9999
0051104510999991941052309004+51267+011233FM-12+004399999V0202301N00461007801CN0200001N9+01611+01171101021ADDAY121031GF107991061071008001031999MD1710121+9999
0009724920232371941102911004+37900-121250SAO  +0008SCK  V0209991C000012200019N1600001N1+00851+00741101691ADDMW1001
0070107760999991941111418004+48983+012200FM-12+010199999V0200901N00931220001CN0500001N9-00111-00831102091ADDAY101061GF101991011051012501001001IA1009KA1999M+00281MD1110101+9999
0057122500999991941061409004+53033+018567FM-12+004799999V0202901N004619999999N0020001N9+00891+00781101731ADDAY161999GF108991041061001501999999MD1210101+9999MW1611
0041723140138811941100400004+35217-080933SAO  +0234CLT  V0202031N003612200019N0160001N1+02741+01801999999ADDGA1021+010509089GA2051+999999039MW1001
0057121590999991941011809004+54033+019133FM-12+000299999V0202701N00101002401CN0010001N9-01111-01281100021ADDAY171999GF108991081051002501999999MD1210081+9999MW1751
0037124190999991941110615004+51967+017550FM-12+012099999V0203201N00461004501CN0100001N9+99999+99999999999ADDAY121999GF108991081051004501999999
0025722745231091941111414004+32183-110917SAO  +0782DMA  V0203201N001012200019N1600001N9+01021+00851101931ADDGA1001+999999999MW1001
0055785201999991941112415004+18017-066567SAO  +0009TJPS V0201131N008210450019N1600001N1+03021+02241101561ADDGA1041+009009059GA2021+999999049MD1810061+9999MW1001
0041722535129091941041101004+29383-098567SAO  +0207SKF  V0201401N007210075019N1600001N9+02131+01631101151ADDGA1061+999999059GA2021+999999039MW1001
0025723556999991941050708004+35667-095367SAO  +0186MKO  V0203601N006710090019N0144001N1+01691+01301100951ADDGA1081+999999059MW1001
0061838620999991941081012004-26850-052400FM-12+080199999V0203201N009319999999N9999999N9+02111+99999100921ADDGF100991999999999999999999KA1999M+02781KA2999N+01891MW1111
0043103030999991941112112004+52867+007317FM-12+000499999V0201401N00671220001CN0020001N9+99999+99999999999ADDAY101999GF101991001001999999001999MW1051
0057103490999991941120909004+52633+011933FM-12+001699999V0202701N00671012301CN0040001N9+00281+00061100331ADDAY121999GF107991071051012501999999MD1210161+9999MW1051
0043107610999991941121306004+49033+010983FM-12+012999999V0202301N00461004501CN0020001N9+99999+99999999999ADDAY121061GF107991071051004501001999MW1051
004594653099999194105060200N-32130+133720AUST +0017YPCD V0200235N011359999999N999999999+02335+99999999999ADDGA1005+999999999GF108995004999999999999999
0067106290999991941020918004+49967+007933FM-12+002699999V0202701N00101007801CN0040001N9+00781+00561102021ADDAA199000691AY121061GF107991071051008001999999IA1089KA1999M+01111
0061837260999991941081912004-22017-047900FM-12+085599999V0201401N001019999999N9999999N9+99999+99999100701ADDGF106991999999999999999999KA1999M+02281KA2999N+01281MW1111
0025726810241311941111420004+43567-116217SAO  +0874BOI  V0200451N003110135019N1600001N1+01071+00741101931ADDGA1081+999999059MW1001
0057108390999991941122309004+48383+010033FM-12+014499999V0202501N00261004501CN0020001N9-00111-00221999999ADDAY121031GF108991081051004501999999MD1210181+9999MW1051
0025745980137021941122917004+37083-076350SAO  +0002LFI  V0203201N011810150019N0112001N9+00461-00531102511ADDGA1081+999999059MW1001
0041724567139211941021822004+39367-094917SAO  +0238FLV  V0200231N003610450019N1600001N1-00091-01091102781ADDGA1051+999999049GA2031+999999009MW1001
0039722860231191941012606004+33900-117250SAO  +0466RIV  V0202901N001510075019N0096001N9+01131+00911101931ADDGA1081+999999059MD1810041+9999MW1051
0070122990999991941080600004+52850+015667FM-12+001199999V0202701N00461220001CN0100001N9+01721+01061100181ADDAY111999GF102991021051004501001001MD1410001+9999EQDQ01+000032APCTEN
0025722266138501941071411004+32350-086983SAO  +0054SEM  V0209991C000012200019N0024001N1+02301+02241999999ADDGA1021+999999009MW1111
0039726071146061941121315004+44800-068817SAO  +0059BGR  V0203381N002110180019N0112001N1-00811-01151103121ADDGA1081+999999049MD1710321+9999MW1001
0025722210138581941101307004+30483-086517SAO  +0025VPS  V0200201N002112200019N1600001N9+01851+01301102441ADDGA1011+999999009MW1001
0089874480999991941102412004-33667-065467FM-12+051499999V0202301N00101220001CN0040001N9+02281+00671100561ADDAY101999GF107991001001999999001061IA1009KA1999M+03611KA2999N+01611MD1310101+9999MW1021
0025722745231091941081122004+32183-110917SAO  +0782DMA  V0203201N001512200019N1600001N9+03241+01241101421ADDGA1999+024009999MW1001
0057107550999991941080318004+49317+010667FM-12+014299999V0203601N00101090001CN0200001N9+02281+01331100921ADDAY121061GF106991021021008001001081MD1810101+9999MW1051
0041722165138151941121918004+31583-084117SAO  +0065TRF  V0202031N001512200019N1600001N1+02021+00911999999ADDGA1021+009009089GA2031+999999009MW1001
0023726980242291941040115004+45600-122650SAO  +0012PDX  V0203381N001510009019N0020001N1+00961+00961099901ADDMD1810021+9999MW1451
0057064500999991941010700004+51183+004467FM-12+001099999V0200901N00261015001CN0020001N9-00391+99999102441ADDAY121999GF108991081051017501999999MD1110041+9999MW1051
0058723556999991941040100004+35667-095367SAO  +0186MKO  V0200231N002612200019N0192001N1+02241+00301100781ADDGA1011+999999029MD1410001+9999MW1001EQDQ01+000022APCTEN
0023725115147111941110206004+40200-076767SAO  +0097MDT  V0202701N005712200019N1600001N1+01241+00461100411ADDMD1210301+9999MW1001
004594999900265194108020200N-34630+148050AUST +0338     V0209999C000059999999N999999999+01485+99999999999ADDGA1005+999999999GF101995004999999999999999
0051104880999991941060915004+51133+013767FM-12+007099999V0201101N00461220001CN0100001N9+02221+01001100481ADDAY111031GF104991041021012501001001MD1810181+9999
0070103130999991941031806004+52000+007733FM-12+001699999V0201101N00261220001CN0100001N9-00391+99999103301ADDAY101999GF101991001001999999001021IA1139KA1999N-00391MD1710021+9999
0025724836232081941031510004+38650-121383SAO  +0024MCC  V0201401N003612200019N0240001N9+01071+99999101591ADDGA1001+999999999MW1001
0086115670999991941081209004+50117+014533FM-12+028399999V0201801N00261030001CN0100001N9+01611+99999101241ADDAY121999GF107991041071012501041051MD1710071+9999EQDQ01+000022APCTENQ02+000002APC3  
0009691174999991941122114004+39833-076117SAO  +0002KQAH V0203601N005112200019N0128001N1-00421-01421103451ADDMW1001
0057106530999991941102400004+49650+009967FM-12+008599999V0203601N00461002401CN0040001N9+00281+00171102131ADDAY121061GF108991081051002501999999MD1310061+9999MW1051
0025702720999991941042808004+61200-149767SAO  +0055PAED V0200501N001510210019N1600001N9+00521+00021999999ADDGA1081+999999059MW1001
0051013840999991941110803004+60200+011083FM-12+020299999V0203201N00671030001CN0200001N9+00221+99999098471ADDAY121999GF108991041051008001011999MD1310041+9999
0025747880128101941101520004+27850-082500SAO  +0003KMCF V0200501N004612200019N1600001N9+03071+01631101591ADDGA1021+009009089MW1001
0041788610999991941112316004+17117-061783SAO  +0010TAPA V0200681N008212200019N1600001N1+02911+02411999999ADDGA1021+009009089GA2021+999999029MW1001
0051103520999991941072009004+52533+013017FM-12+001399999V0203401N00101002401CN0100001N9+01501+01391101581ADDAY121999GF108991061051002501999999MD1510121+9999
0041785201999991941092213004+18017-066567SAO  +0009TJPS V0201351N002112200019N1600001N1+03021+02131101521ADDGA1021+012009089GA2021+999999029MW1001
0025718030999991941122313004+48950-054567SAO  +0151CYQX V0203601N005110015019N0032001N1-00151-00151100621ADDGA1081+999999079MW1451
0039702720999991941123009004+61200-149767SAO  +0055PAED V0202501N001510210019N1600001N9-00091-00371101801ADDGA1081+999999049MD1210161+9999MW1001
004594999900013194112080700N-21670+115120AUST +0005     V0203155N007759999999N999999999+03225+02505999999ADDGA1005+999999999GF108995004999999999999999
0049856210999991941060312004-34567-071650FM-12+035099999V0201801N002619999999N0000501N9+00281+99999102021ADDAY101999GF108991081051999999999999IA1009MW1401
0057104100999991941101621004+51400+006950FM-12+003799999V0202001N00931004501CN0040001N9+01001+00941101431ADDAY161031GF108991081051004501999999MD1210041+9999MW1631
0076101310999991941032909004+53867+008717FM-12+000199999V0200901N00671004501CN0005001N9+00111+00061099541ADDAY141999GF108991081051004501999999MD1410001+9999MW1461EQDQ01+000032APCTEN
0041723556999991941070811004+35667-095367SAO  +0186MKO  V0202481N001012200019N0192001N1+02301+02071101391ADDGA1021+999999039GA2011+999999009MW1001
0043854860999991941110817004-28567-070767FM-12+046399999V0202701N00261220001CN0500001N9+02891+99999100301ADDAY101999GF100991001999999999999999MW1001
0025724836232081941042102004+38650-121383SAO  +0024MCC  V0203201N003112200019N0480001N9+02021+00851101491ADDGA1001+999999999MW1001
0009722266138501941111120004+32350-086983SAO  +0054SEM  V0203151N006212200019N1600001N1+01851+00021102341ADDMW1001
0317722265138211941060706003+32383-086350SAO  +0053MXF  V02022559002652200019N1600005N9+02335+01565101735ADDGA1001+999999999GA2999+999999999GA3999+999999999GD19005+9999999GD29005+9999999GD39005+9999999GD49999+9999999MD1110081+9999EQDN01 00900CCLHT 3N02 00000JPWTH 1QNNE11 1 09900E11 1 09900E11 1 09900E11 1 09999G11 3 00900H11U1 00999H11 1 00999H11 1 00999K11 1 00060L11N1 99999N11 1 00000Q11 1 10173S11 1 00074W11 1 66005
0134724050137431941080601005+38850-077033SAO  +002099999V02031559006750152449N006400599+02835+02115101085ADDMA1999999100855MW1045EQDN01 08000JPWTH 1QNNG11 1 00050K11 1 00070L11 1 00400M11 1 29780N11 1 08000Q11 1 10108S11 1 00083W11 1 88013
0025723556999991941040413004+35667-095367SAO  +0186MKO  V0202931N005110060019N0160001N1+00631+00461100641ADDGA1081+999999079MW1001
0009727855241141941122401004+47617-117650SAO  +0741SKA  V0202001N002110090019N1600001N9+00191-00151100751ADDMW1001
0061837490999991941071812004-22300-048567FM-12+050399999V0201401N001019999999N9999999N9+00281+99999102081ADDGF100991999999999999999999KA1999M+02391KA2999N+00111MW1111
0063101310999991941011018004+53867+008717FM-12+000199999V0202301N00461004501CN0020001N9-00391+99999102031ADDAY141999GF108991081051004501999999IA1309MD1810161+9999MW1051
0023725310148061941092403004+40300-088133SAO  +0228RAN  V0200451N004612200019N1600001N1+02131+01411101491ADDMD1610021+9999MW1001
0128724050137431941121004005+38850-077033SAO  +002099999V02099999000052200049N011200599+00005-00335102035ADDMA1999999101795EQDN01 00000JPWTH 1QNNG11U1 99999K11 1 00026L11 1 00700M11 1 30060N11 1 00000Q11 1 10203S11 1 00032W11 1 00000
0057100010999991941092515004+53600+006700FM-12+000499999V0201401N00101220001CN0010001N9+01721+01501102171ADDAY121999GF106991001001999999041071MD1710081+9999MW1101
0057102540999991941011603004+52833+011200FM-12+001599999V0203601N00101220001CN0040001N9-00891-01001100151ADDAY121999GF108991001001999999001071MD1990061+9999MW1051
0057103160999991941051315004+51967+008550FM-12+004499999V0202701N01231220001CN0040001N9+01721+99999101891ADDAY101999GF100991001001999999001001MD1810141+9999MW1051
0087102740999991941101618004+53350+012733FM-12+002299999V0201601N00461030001CN0040001N9+01001+00891101601ADDAA199000391AY121999GF108991041051004501021999IA1089KA1999M+01221MD1810101+9999MW1611
0025723650230501941102805004+35050-106667SAO  +1620ABQ  V0201601N003610180019N1600001N9+99999+99999999999ADDGA1081+999999089MW1001
0051064740999991941011512004+49917+005367FM-12+049299999V0200901N00261220001CN0100001N9+00001+99999099721ADDAY121999GF107991001001999999071071MD1610101+9999
0025911665999991941091220004+21867-159450SAO  +00161Z4  V0202701N001012200019N1600001N1+02741+01801101351ADDGA1021+012009089MW1001
004594646099999194104140100N-30830+128100AUST +0160YPFT V0200455N001559999999N999999999+02005+99999999999ADDGA1075+012005999GF107995074999012005999999
0025911800999991941113005004+21333-157950SAO  +0009PHIK V0203601N005112200019N1600001N1+02021+01801101321ADDGA1031+013509059MW1001
0057122070999991941012815004+53317+015000FM-12+000999999V0200901N00671220001CN0040001N9-01281-01611103061ADDAY101999GF100991001001999999001001MD1710021+9999MW1051
0051070140999991941071412004+50417+001600FM-12+000799999V0201601N00261220001CN0500001N9+02281+99999101201ADDAY101999GF104991021011012501041011MD1810181+9999
0035837740999991941050500004-23950-048883FM-12+069799999V0209991C000019999999N9999999N9+02001+99999101161ADDGF101991999999999999999999MW1111
014599999913739194102051900E+39883-075233SAO  +000899999V02029359005252200049N009600599+00175-00505101525ADDAA101000095MA1999999101425MW1045EQDN01 08000JPWTH 1QNNG11U1 99999K11 1 00023L11 1 00600M11 1 29950N11 1 08000Q11 1 10152S11 1 00035W11 1 78010
0051101310999991941040500004+53867+008717FM-12+000199999V0201801N00101030001CN0100001N9+00611+00561101351ADDAY111999GF107991041051008001041001MD1310021+9999
0035837360999991941062300004-22100-045017FM-12+087299999V0209991C000019999999N9999999N9+01221+99999999999ADDGF100991999999999999999999MW1111
013999999913739194112300000E+39883-075233SAO  +000899999V02036059005252200049N160000599-00115-00835102575ADDAA101000095MA1999999102475EQDN01 00000JPWTH 1QNNG11U1 99999K11 1 00017L11N1 99999M11 1 30260N11 1 00000Q11 1 10257S11 1 00030W11 1 11010
0041726980242291941101613004+45600-122650SAO  +0012PDX  V0201351N003610360019N1600001N1+01191+00961999999ADDGA1021+012009059GA2061+999999049MW1001
0057122250999991941061112004+53267+016467FM-12+003899999V0201601N00461002401CN0100001N9+01891+01611099971ADDAY161999GF108991061061002501999999MD1810041+9999MW1051
0076064740999991941020500004+49917+005367FM-12+049299999V0203601N00101004501CN0020001N9-00891+99999102561ADDAY121999GF107991071051004501999999MD1410001+9999MW1051EQDQ01+000032APCTEN
0025722485139441941081119004+32500-093683SAO  +0053BAD  V0202501N003612200019N1600001N9+03521+02351101521ADDGA1031+013509089MW1001
0076104970999991941102006004+51283+014133FM-12+008899999V0202501N006719999999N0040001N9+01111+01001101551ADDAY151061GF108991041051002501999999IA1089KA1999N+00781MD1990041+9999MW1201
0041747880128101941062314004+27850-082500SAO  +0003KMCF V0201601N003112200019N1600001N9+02851+02411101691ADDGA1021+006009089GA2021+999999039MW1001
0057103380999991941060912004+52417+009750FM-12+001699999V0200901N00671220001CN0100001N9+02111+01441100651ADDAY121999GF104991041021008001001001MD1810141+9999MW1051
0037116440999991941091206004+50667+015917FM-12+017399999V0203601N00671030001CN0040001N9+99999+99999999999ADDAY121999GF106991041041004501051999
0025722860231191941100902004+33900-117250SAO  +0466RIV  V0202901N001512200019N0160001N9+01671+01111101321ADDGA1001+999999999MW1051
0097125240999991941110406004+50517+018300FM-12+006999999V0201401N00261000601CN0010001N9+00111+00061102151ADDAY141999GF108991081051000751999999IA1089KA1999N+00111MW1281EQDQ01+000032APCTENQ02+000002APC3  
0009785140999991941031910004+18500-067133SAO  +0075TJBQ V0201581N001512200019N1600001N1+02071+01741101631ADDMW1001
0072064500999991941061615004+51183+004467FM-12+001099999V0200201N00461030001CN0500001N9+02001+99999102561ADDAY121999GF106991041021008001031001EQDQ01+000032APCTENQ02+000002APC3  
0087070550999991941112206004+49450+002100FM-12+010099999V0201601N00261220001CN0040001N9+00891+99999101551ADDAA199001091AY161999GF104991041051008001001001IA1089KA1999N+00891MD1710101+9999MW1051
0057103870999991941010521004+52533+013117FM-12+001099999V0200501N00261007801CN0040001N9-00721-01061102901ADDAY121031GF108991061051008001999999MD1610041+9999MW1051
004595866099999194102150500N-37730+144900AUST +0081YMEN V0203605N006759999999N999999999+03005+99999999999ADDGA1015+021005999GF101995014999021005999999
0076060630999991941120106004+56300+009067FM-12+005199999V0201101N00671004501CN0040001N9+00001+99999103841ADDAY121999GF108991081051004501999999IA1009KA1999N-00111MD1210041+9999MW1051
0000742060242071941101513004+47150-122483SAO  +0086TCM  V0202301N001510060019N0064001N9+00801+00741102271
0303722265138211941031508003+32383-086350SAO  +0053MXF  V02029359001552200019N1600005N9+00115-00115102405ADDGA1001+999999999GA2999+999999999GA3999+999999999GD19005+9999999GD29005+9999999GD39005+9999999GD49999+9999999EQDN01 00900CCLHT 3N02 00000JPWTH 1QNNE11 1 09900E11 1 09900E11 1 09900E11 1 09999G11 3 00900H11U1 00999H11 1 00999H11 1 00999K11 1 00030L11N1 99999N11 1 00000Q11 1 10240S11 1 00034W11 1 78003
0009725690240891941010910004+42917-106467SAO  +1612CPR  V0202481N007212200019N1600001N1-00261-00651103291ADDMW1001
0051107110999991941022415004+49517+007483FM-12+017199999V0200901N00261000151CN0000501N9-00221-00221999999ADDAY171031GF109991091999000251999999MD1810141+9999
0057103160999991941012003004+51967+008550FM-12+004499999V0202501N00261004501CN0040001N9+00111+99999099691ADDAY161999GF108991081051004501999999MD1810061+9999MW1601
0039691174999991941042606004+39833-076117SAO  +0002KQAH V0200681N006212200019N1600001N1+00801+00461102781ADDGA1021+999999039MD1110041+9999MW1001
0081124240999991941032606004+51100+016917FM-12+003799999V0202901N00671030001CN0200001N9+00111-00611100671ADDAA199001091AY121999GF108991021051008001041021IA1139KA1999N+00001MD1110141+9999
0037124190999991941051712004+51967+017550FM-12+012099999V0202701N00931004501CN0100001N9+99999+99999999999ADDAY121999GF107991071071004501001999
0043843900999991941122413004-04567-081267FM-12+008799999V0201801N00461220001CN0500001N9+02391+99999999999ADDAY101999GF100991001999999999999999MW1021
0037103820999991941090121004+52467+013133FM-12+001499999V0200501N00261220001CN0500001N9+99999+99999999999ADDAY101999GF100991001001999999001999
0081108680999991941080606004+48250+011550FM-12+014899999V0202501N00461036001CN0200001N9+01001+00781101091ADDAA199005091AY161061GF107991041081008001071999IA1089KA1999N+01001MD1210181+9999
0051102500999991941050321004+53333+011500FM-12+001299999V0202901N00671030001CN0200001N9+00391+99999101721ADDAY121999GF107991021051008001011999MD1990101+9999
0039722650999991941101815004+31933-102200SAO  +0871MAF  V0201801N002612200019N1600001N1+01961+01521101591ADDGA1021+999999011MD1210181+9999MW1001
0062782800999991941011712004+20833-075717FM-12+000399999V0209991C00001000151CN0000001N9+02281+99999999999ADDAY141999GF109991091999000251999999MW1401EQDQ01+001402WODIR 
0025722585939011941100120004+32733-096967SAO  +0151NBE  V0201131N005110090019N1600001N1+02851+02241101191ADDGA1061+999999089MW1001
0057123750999991941101112004+52183+020967FM-12+010799999V0201401N00101002401CN0020001N9+00281+00221100171ADDAY151999GF108991081051002501999999MD1510001+9999MW1201
0062103830999991941041706004+52433+013517FM-12+001199999V0209991C00001220001CN0020001N9+00221+00111101791ADDAY101999GF100991001001999999001001IA1009KA1999N-00221MW1051
0057060630999991941062306004+56300+009067FM-12+005199999V0201601N00101220001CN0100001N9+01721+99999101941ADDAY101999GF101991001001999999001011MD1610061+9999MW1051
0041727850241571941083123004+47633-117533SAO  +0721GEG  V0203151N001510300019N0320001N1+02021+00581999999ADDGA1021+021009089GA2061+999999049MW1051
0070111810999991941091706004+47967+016267FM-12+023599999V0203201N00261220001CN0200001N9+00781+99999103141ADDAY101061GF100991001001999999001001IA1009KA1999N+00611MD1310041+9999
0072101200999991941050309004+54183+007883FM-12+001599999V0200201N00671220001CN0500001N9+00611+00221102551ADDAY101999GF102991021021008001001001EQDQ01+000032APCTENQ02+000002APC3  
0043124190999991941010806004+51967+017550FM-12+012099999V0202901N00261002401CN0020001N9+99999+99999999999ADDAY171999GF108991081051002501999999MW1711
0037010520999991941032015004+70667+023683FM-12+001999999V0202301N00101220001CN0200001N9-00221+99999999999ADDAY111999GF106991001001999999031071
0051121500999991941060715004+54383+018600FM-12+000599999V0200501N00461220001CN0500001N9+01611+00061101181ADDAY111999GF102991001001999999001081MD1610061+9999
0057104910999991941062009004+51583+014133FM-12+003699999V0203401N00461220001CN0500001N9+01891+00941102261ADDAY111031GF104991021011012501001061MD1010021+9999MW1081
0025745700138401941021617004+39833-084050SAO  +0254FFO  V0201801N002612200019N1600001N9-00041-00811102001ADDGA1081+999999029MW1001
0043266960999991941021009004+54767+020400FM-12+001099999V0202001N00261001501CN0020001N9+99999+99999999999ADDAY161999GF108991081051001501999999MW1601
0051108530999991941052621004+48717+011217FM-12+011699999V0202901N00931036001CN0100001N9+01111+00891100681ADDAY191031GF107991021051008001071999MD1210381+9999
0051265120999991941072503004+54950+120250FM-12+000799999V0201401N00101220001CN0040001N9+01221+01221101331ADDAY101999GF104991001001999999041061MD1310041+9999
0081103130999991941122218004+52000+007733FM-12+001699999V0202501N00461000151CN0002001N9+00281+99999102611ADDAA199000691AY151999GF109991091999000251999999IA1089KA1999M+00281MD1710061+9999
0081122990999991941122318004+52850+015667FM-12+001199999V0202701N00931002401CN0100001N9+00281-00111101621ADDAA199004091AY161999GF107991071041002501001001IA1089KA1999M+00391MD1310221+9999
0035833480999991941073100004-14800-039067FM-12+003999999V0201401N004619999999N9999999N9+02281+99999102111ADDGF102991999999999999999999MW1111
0043116440999991941120906004+50667+015917FM-12+017399999V0202301N00261002401CN0010001N9+99999+99999999999ADDAY171999GF108991081061002501999999MW1711
0049742060242071941091818004+47150-122483SAO  +0086TCM  V0201801N003110120019N1600001N9+01521+01071101151ADDGA1051+999999089GA2021+999999039MD1110081+9999
0051105010999991941092012004+50783+006100FM-12+006399999V0201101N00671220001CN0200001N9+01891+00671102751ADDAY141061GF100991001001999999001001MD1990041+9999
0039724920232371941051803004+37900-121250SAO  +0008SCK  V0202251N011312200019N1600001N1+01411+99999101631ADDGA1021+999999029MD1310121+9999MW1001
0029710950999991941031405004+72700-078000FM-12+000399999V02099999999999999999N9999999N9+99999+99999999999ADDKA1999M-03441KA2999N-04441
0009722110128421941013004004+27967-082533SAO  +0003TPA  V0203601N001012200019N0128001N1+00851+00691999999ADDMW1001
0057101730999991941062809004+54267+012417FM-12+000199999V0202701N01231001501CN0020001N9+01221+01221101501ADDAY181999GF108991081061001501999999MD1710081+9999MW1811
0067749007999991941112014004+53800-000750SAO  +0004EGCS V0201351N004610018019N0010001N1+99999+99999999999ADDGA1091+001809999GA2091+999999999GF109991999999999999999999MW1001
0009722700230441941041807004+31800-106400SAO  +1194ELP  V0202701N008712200019N1600001N1+01851-00311100171ADDMW1001
0041723030137141941080316004+35183-079017SAO  +0064POB  V0200901N004612200019N1600001N9+03071+02241101691ADDGA1011+012009089GA2021+999999039MW1001
0057108570999991941111112004+48067+010917FM-12+018999999V0200701N00461220001CN0020001N9+00721+00331100681ADDAY111061GF106991001001999999001061MD1710041+9999MW1051
003672253612911194111010400D+29533-098283SAO  +0226RND  V0203601N002612200019N1600001N9+00961+00741102021ADDAA101000095GA1001+999999999MW1001
0054719083999991941080912004+60500-099000FM-12+033599999V0202001N004619999999N0010001N9+00671+00671100981ADDGF106991999001012501071001MW1101EQDQ01+000002SCOTLC
0025724338138021941082122004+38550-089983SAO  +0134BLV  V0202301N004612200019N1600001N9+02851+00911999999ADDGA1021+999999029MW1001
0057070750999991941041815004+49783+004633FM-12+015699999V0201601N00671004501CN0100001N9+01611+99999100061ADDAY121999GF107991061081004501041999MD1810161+9999MW1051
0062112450999991941022806004+46800+015883FM-12+037399999V0203201N00261220001CN0020001N9-00281+99999102961ADDAY111061GF102991999001999999051001IA1139KA1999N-00281MW1051
0037122690999991941021012004+53533+019950FM-12+009299999V0202501N00931000151CN0002001N9+99999+99999999999ADDAY161999GF109991091999000251999999
0025723550139451941020617004+34650-098383SAO  +0360FSI  V0200201N008710030019N1600001N9+00801+00301101051ADDGA1061+999999059MW1001
0070103280999991941021800004+51950+008917FM-12+005899999V0201601N00101075001CN0100001N9+00221+99999099231ADDAY121999GF106991041051008001001051MD1310011+9999EQDQ01+000002APC3  
0055785201999991941100412004+18017-066567SAO  +0009TJPS V0200231N002112200019N1600001N1+02571+02301101391ADDGA1011+007509089GA2061+999999009MD1210181+9999MW1001
0057104940999991941061003004+51983+014733FM-12+001399999V0209991C00001220001CN0100001N9+01281+01061100331ADDAY101031GF100991001001999999001001MD1810061+9999MW1051
004594203099999194104090100N-17950+122230AUST +0009YBRM V0200905N002659999999N999999999+02945+02505999999ADDGA1005+999999999GF100995004999999999999999
0039724567139211941072200004+39367-094917SAO  +0238FLV  V0201801N004112200019N1600001N1+03291+02131100981ADDGA1061+999999029MD1710101+9999MW1001
0035839140999991941041900004-28267-052400FM-12+068099999V0200501N009319999999N9999999N9+01891+99999101661ADDGF108991999999999999999999MW1111
0076115670999991941071818004+50117+014533FM-12+028399999V0203201N00261220001CN0040001N9+02001+99999101991ADDAY111999GF101991011011008001001001IA1009KA1999M+02221MD1510041+9999MW1051
0041722487139351941071021004+31400-092300SAO  +0034ESF  V0202251N002110300019N1600001N1+99999+99999999999ADDGA1021+012009089GA2061+999999049MW1001
0070103410999991941082206004+51933+010433FM-12+007999999V0202701N00101220001CN0100001N9+01221+01001100801ADDAY111999GF104991011051012501041031IA1009KA1999N+01111MD1710081+9999
0043266960999991941020415004+54767+020400FM-12+001099999V0200901N00261004501CN0040001N9+99999+99999999999ADDAY121999GF108991081051004501999999MW1051
0076125250999991941052306004+50833+017433FM-12+004799999V0202301N00261220001CN0040001N9+01501+01061101201ADDAY101999GF100991001001999999001001IA1009KA1999N+00891MD1610021+9999MW1051
0023725115147111941092212004+40200-076767SAO  +0097MDT  V0209991C000012200019N0012001N1+01071+00911102471ADDMD1110041+9999MW1111
0035837800999991941012100004-23567-046483FM-12+075199999V0200901N002619999999N9999999N9+02221+99999101621ADDGF104991999999999999999999MW1111
004594999900137194107120500N-17470+140830AUST +0009     V0201805N004659999999N999999999+02495+99999999999ADDGA1005+999999999GF100995004999999999999999
0087103840999991941052906004+52483+013433FM-12+001799999V0200501N00671002401CN0020001N9+01501+01391099031ADDAA199004091AY121999GF108991081061002501999999IA1089KA1999N+01501MD1610181+9999MW1801
0043117400999991941092106004+49933+017883FM-12+026799999V0209991C00001220001CN0040001N9+99999+99999999999ADDAY141999GF102991001001999999081999MW1051
0076103610999991941010221004+52133+011717FM-12+001499999V0203601N00671220001CN0040001N9-01001-01331102201ADDAY121999GF102991999001999999011001MD1210061+9999MW1051EQDQ01+000002SCOTLC
0057070550999991941022415004+49450+002100FM-12+010099999V0203401N00671220001CN0040001N9+00111+99999100081ADDAY171999GF104991041051008001001001MD1310361+9999MW1051
0087104570999991941120506004+51750+011067FM-12+003899999V0202701N00461004501CN0020001N9+00501+00281102841ADDAA199001091AY121061GF108991081051004501999999IA1089KA1999N+00391MD1610081+9999MW1611
0015749105999991941082202004+40733-073600SAO  +003899999V0201351N001012200019N0064001N1+01741+01741102031ADDMW1041MW2451
0051265090999991941060509004+55700+021133FM-12+000199999V0203601N00461220001CN0200001N9+01111+00671101391ADDAY101999GF100991001001999999001001MD1310021+9999
0019911820225211941121411004+21333-157950SAO  +0011PHNL V0200501N001510105019N1600001N9+99999+99999101961ADDGA1051+999999089
0051103840999991941030215004+52483+013433FM-12+001799999V0202001N01231030001CN0200001N9+01221+00611100441ADDAY111999GF107991041051012501071999MD1710281+9999
0039722650999991941052818004+31933-102200SAO  +0871MAF  V0201351N004612200019N1600001N1+02801+02021101191ADDGA1021+018001081MD1710101+9999MW1001
0057121620999991941121709004+54483+019967FM-12+000499999V0202001N00461002401CN0040001N9+00391+00281100821ADDAY121999GF108991081051002501999999MD1310101+9999MW1801
0057107260999991941042812004+49500+010967FM-12+009299999V0209991C00001036001CN0100001N9+01221+00061100791ADDAY121061GF106991041081008001061001MD1310041+9999MW1051
0055788071999991941111200004+08967-079550SAO  +0012MBLB V0203151N000512200019N1600001N1+02521+02301100881ADDGA1021+006009089GA2061+999999029MD1210121+9999MW1001
0057103430999991941051800004+52600+010033FM-12+001299999V0200901N00101220001CN0040001N9+00501+99999101141ADDAY101999GF100991001001999999001001MD1810121+9999MW1051
0041702615999991941092501004+64850-147583SAO  +0148FBK  V0200681N006210150019N0480001N1+01301-00371999999ADDGA1061+999999059GA2011+999999049MW1001
0051122090999991941042109004+53400+016100FM-12+004599999V0203201N00261030001CN0100001N9+00891+00441101151ADDAY121999GF106991021071008001051999MD1310061+9999
0035838420999991941010500004-25417-049283FM-12+094999999V0209991C000019999999N9999999N9+01781+99999100981ADDGF108991999999999999999999MW1111
0063855580999991941030512004-33000-071617FM-12+004199999V0209991C000019999999N0100001N9+01611+99999101601ADDAY101999GF108991081051999999999999IA1009MD1310101+9999MW1031
0057103430999991941091603004+52600+010033FM-12+001299999V0209991C00001220001CN0005001N9+00221+99999102861ADDAY101999GF100991001001999999001001MD1310081+9999MW1461
0072103620999991941091612004+52267+011900FM-12+001699999V0203201N00261220001CN0200001N9+01391+00501102981ADDAY121999GF104991041011008001001061EQDQ01+000022APCTENQ02+000002APC3  
0009726625240061941092020004+44133-103100SAO  +0979RCA  V0203401N008712200019N1600001N9+01851+00801100311ADDMW1001
0041042700999991941112204004+61183-045417SAO  +0026BGBW V0200451N001510180019N1600001N1-00481-01201098401ADDGA1061+999999079GA2021+999999029MW1001
0025723550139451941050614004+34650-098383SAO  +0360FSI  V0201801N001512200019N1600001N9+02131+01691100681ADDGA1001+999999999MW1001
0041722630999991941091217004+31367-100500SAO  +0585SJT  V0201351N008210036019N1600001N1+02521+02021101521ADDGA1061+999999071GA2021+999999041MW1001
0051109350999991941122603004+47667+009500FM-12+012299999V0203401N00461220001CN0100001N9-00111-00441102681ADDAY101031GF101991011051008001001001MD1310181+9999
0076104820999991941111206004+51300+013550FM-12+003899999V0200701N01231007801CN0040001N9+00111-00111101361ADDAY121061GF108991081051008001999999IA1009KA1999N+00001MD1810101+9999MW1051
0025726980242291941013017004+45600-122650SAO  +0012PDX  V0201131N005110105019N1600001N1+00521+00411101761ADDGA1999+004509999MW1611
0057115670999991941022615004+50117+014533FM-12+028399999V0202001N00101012301CN0020001N9-00111+99999101751ADDAY171999GF107991071051012501999999MD1310141+9999MW1051
0041723550139451941072420004+34650-098383SAO  +0360FSI  V0202301N002110330019N1600001N9+03241+02131101251ADDGA1021+015009089GA2051+999999039MW1001
0057104480999991941060700004+51483+010783FM-12+005599999V0203201N00461004501CN0040001N9+01281+01281101201ADDAY161061GF108991081051004501999999MD1310021+9999MW1601
0057101700999991941081309004+54183+012100FM-12+000299999V0202301N00671004501CN0100001N9+01611+01171101001ADDAY121999GF107991061081004501031999MD1110081+9999MW1051
0076103380999991941121718004+52417+009750FM-12+001699999V0202501N00261030001CN0040001N9+00391+00281101411ADDAY121999GF108991041051008001021999IA1089KA1999M+00501MD1110061+9999MW1051
0057107100999991941120315004+49317+008100FM-12+020599999V0202501N01231220001CN0040001N9+00221-00171095151ADDAY121031GF107991001001999999031999MD1810101+9999MW1051
0057722436129061941082223004+29600-095167SAO  +0014EFD  V0201401N004612200019N0112001N9+03241+02301101251ADDGA1021+012009089GA2011+999999039GA3011+999999009MW1001
0057060630999991941072312004+56300+009067FM-12+005199999V0203401N00261001501CN0100001N9+01221+99999101101ADDAY161999GF107991061061001501071999MD1510021+9999MW1611
0043803360999991941123117004+01800-078767FM-12+000399999V0202701N002619999999N0500001N9+03221+99999999999ADDAY121999GF106991041999008001999999MW1021
0092101200999991941021921004+54183+007883FM-12+001599999V0202001N01231002401CN0020001N9+00001+99999098801ADDAY121999GF107991071051002501999999MD1210191+9999MW1051EQDQ01+000042APCTENQ02+000062APC3  
0057103610999991941111603004+52133+011717FM-12+001499999V0201401N00461015001CN0040001N9+00111-00441102281ADDAY121999GF108991081051017501999999MD1990061+9999MW1051
0076014520999991941011815004+58200+008083FM-12+001599999V0200201N00671004501CN0020001N9-01001+99999101571ADDAY181999GF107991071081004501999999MD1410001+9999MW1861EQDQ01+000032APCTEN
004594203099999194105282200N-17950+122230AUST +0009YBRM V0201135N001059999999N999999999+01985+01305999999ADDGA1005+999999999GF100995004999999999999999
0041725310148061941101914004+40300-088133SAO  +0228RAN  V0202701N001012200019N0008001N1+01741+01411102401ADDGA1031+999999049GA2011+999999019MW1111
0070265090999991941053015004+55700+021133FM-12+000199999V0203601N00461220001CN0200001N9+01721+01281100401ADDAY111999GF101991999001999999051001MD1310101+9999EQDQ01+000002SCOTLC
0087103490999991941110806004+52633+011933FM-12+001699999V0202701N00931004501CN0100001N9+00281+00061100451ADDAA199001091AY161999GF108991061051004501999999IA1089KA1999N+00221MD1210081+9999MW1211
0041747880128101941082505004+27850-082500SAO  +0003KMCF V0200901N004612200019N1600001N9+02681+02461101761ADDGA1021+009009089GA2051+999999049MW1001
0009726770240331941122400004+45800-108533SAO  +1088BIL  V0202251N007712200019N1600001N1-00091-00761100411ADDMW1001
0043266990999991941020721004+54783+020617FM-12+000699999V0202001N00261004501CN0040001N9+99999+99999999999ADDAY121999GF108991081051004501999999MW1051
0059823980999991941052012004-16000-041283FM-12+062799999V0201801N002619999999N9999999N9+02001+99999101961ADDAA124004091GF106991999999999999999999KA1999N+01781MW1111
0057104090999991941071509004+51833+006267FM-12+000599999V0201801N00261004501CN0100001N9+02111+99999100901ADDAY121031GF106991061051004501001001MD1410001+9999MW1601
0009725690240891941060702004+42917-106467SAO  +1612CPR  V0200451N008212200019N1600001N1+01301+00351101081ADDMW1001
0087104940999991941110706004+51983+014733FM-12+001399999V0202501N01231004501CN0100001N9+00611+00391099941ADDAA199002091AY161061GF108991071051004501999999IA1089KA1999N+00281MD1410001+9999MW1211
0095101510999991941051706004+53967+010867FM-12+999999999V0202701N00101002401CN0040001N9+00391+99999101221ADDAA199005091AY161999GF108991081051002501999999IA1089MW1051EQDQ01+000032APCTENQ02+000002APC3  
0019742060242071941010510004+47150-122483SAO  +0086TCM  V0200701N001012200019N1600001N9-00151-00151100471ADDGA1001+999999999
0025788071999991941053102004+08967-079550SAO  +0012MBLB V0209991C000010180019N0096001N1+02681+02521100811ADDGA1061+999999049MW1051
0035836480999991941031100004-20150-040333FM-12+003699999V0209991C000019999999N9999999N9+02501+99999101541ADDGF108991999999999999999999MW1111
0051107450999991941122603004+49117+009800FM-12+011999999V0203401N00671220001CN0100001N9-00221-00561102611ADDAY101031GF102991999001999999041001MD1310261+9999
0009722170038131941110916004+32700-083650SAO  +0111MCN  V0203151N005710150019N1600001N1+00631-00531102071ADDMW1001
0039785140999991941020512004+18500-067133SAO  +0075TJBQ V0201581N001012200019N1600001N1+02351+01961101631ADDGA1021+999999039MD1210141+9999MW1001
0087101270999991941021918004+53533+008150FM-12+000299999V0202001N00671001501CN0010001N9+00281+00171098731ADDAA199003091AY161999GF108991061061001501021999IA1089KA1999M+00501MD1310101+9999MW1101
0039724338138021941042609004+38550-089983SAO  +0134BLV  V0200201N001512200019N0128001N9+00741+00301102911ADDGA1001+999999999MD1810041+9999MW1001
0057103840999991941051521004+52483+013433FM-12+001799999V0202901N00261004501CN0040001N9+00501+00281101021ADDAY121999GF108991081051004501999999MD1310041+9999MW1611
0039744910147031941062200004+42200-072533SAO  +0075CEF  V0202501N001012200019N0048001N9+02741+02301101631ADDGA1061+999999009MD1610041+9999MW1051
0057101470999991941030615004+53633+010000FM-12+000599999V0201801N00101012301CN0040001N9+00781+00171100481ADDAY111999GF106991061071012501041001MD1310041+9999MW1051
0025724550139471941092505004+39050-096767SAO  +0324FRI  V0203601N003612200019N1600001N9+01521+01241100951ADDGA1001+999999999MW1001
0087109350999991941101606004+47667+009500FM-12+012299999V0209991C00001220001CN0100001N9+00001+00001102611ADDAA199000691AY111061GF101991011051008001001001IA1009KA1999N+00001MD1610021+9999MW1121
0051103340999991941081412004+52467+009450FM-12+001699999V0202501N00931030001CN0200001N9+01891+99999100671ADDAY121999GF107991041021004501041999MD1310101+9999
0009725115147111941021007004+40200-076767SAO  +0097MDT  V0203601N004612200019N1600001N1-00761-01641102201ADDMW1001
0031725755241011941121020004+41117-011250SAO  +1459FFO  V0201601N001510120019N0048001N9+00131-00041101351ADDGA1081+999999059MW1111MW2711
0043803390999991941052420004+05733-075617FM-12+091599999V0209991C00001220001CN0500001N9+03391+99999999999ADDAY121999GF108991001999999999999999MW1031
0025723030137141941081719004+35183-079017SAO  +0064POB  V0200501N002612200019N1600001N9+02911+01131101521ADDGA1011+999999009MW1001
0009727855241141941030805004+47617-117650SAO  +0741SKA  V0200501N001512200019N1600001N9+00631+00301102401ADDMW1001
0076115180999991941111012004+50100+014283FM-12+036399999V0200701N00461220001CN0040001N9+00111+99999101151ADDAY141999GF101991999001999999041001MD1710041+9999MW1051EQDQ01+000002SCOTLC
0057070590999991941041009004+49900+002333FM-12+006499999V0200201N00931220001CN0040001N9+00611+99999103101ADDAY101999GF104991001001999999001061MD1110041+9999MW1051
0087110110999991941080918004+48233+014183FM-12+029599999V0202701N00931007801CN0200001N9+01391+99999101221ADDAA199005091AY181061GF107991061081008001071001IA1089KA1999M+01611MD1310261+9999MW1051
0043111200999991941081118004+47283+011417FM-12+057099999V0200701N002619999999N0500001N9+02281+99999101241ADDGF199999011021022501999001MD1610041+9999
0057122050999991941020203004+53400+014633FM-12+000199999V0201101N00101004501CN0040001N9-00891-00891100481ADDAY121999GF108991081051004501999999MD1510001+9999MW1051
0041722210138581941072514004+30500-086500SAO  +0025VPS  V0200701N003112200019N1600001N9+02801+02181101631ADDGA1001+999999999GA2021+999999009MW1001
0057070070999991941042212004+50867+001750FM-12+012399999V0200701N00261220001CN0040001N9+01281+99999102031ADDAY111999GF102991021051002501001001MD1990041+9999MW1051
0025725377148041941100808004+42617-082817SAO  +0176MTC  V0202901N005112200019N1600001N9+01241+00631101151ADDGA1001+999999999MW1001
0025727130146041941121911004+46683-068050SAO  +0146PQI  V0202251N004610120019N0112001N1+00191-00041100311ADDGA1081+999999059MW1001
0029719031999991941042018004+61300-064883FM-12+003999999V0202301N002619999999N0200001N9-00671+99999100851ADDGF108991001999999999999999
0037104330999991941051709004+51400+008567FM-12+013799999V0202701N00671220001CN0100001N9+99999+99999999999ADDAY101031GF101991011011012501001999
0192999999149361941070423005+44383-098217SAO  +039599999V02015859011852200059N016000599+02945+01395101425ADDGA1999+000004999GF104995999999999999999999MA1999999096855EQDN01 00000JPWTH 1QNNG11U1 99999H11 1 99000K11 1 00057L11 1 01000M11 1 28600N11 1 00000Q11 1 10142S11 1 00085V11 1 00599W11 1 54023
0009723530139671941121918004+35400-097600SAO  +0397OKC  V0203151N003612200019N1600001N1+01631+00691102441ADDMW1051
0070115670999991941051618004+50117+014533FM-12+028399999V0202901N00671220001CN0100001N9+00891+99999101481ADDAY121999GF102991021071008001001001IA1009KA1999M+01111MD1210021+9999
0025725115147111941071214004+40200-076767SAO  +0097MDT  V0209991C000010360019N0064001N1+02631+02181101321ADDGA1061+999999049MW1051
0087101850999991941103006004+54100+013433FM-12+000199999V0202301N00461002401CN0020001N9+00221+00171100161ADDAA199002091AY161999GF108991061051002501999999IA1089KA1999N+00111MD1010121+9999MW1211
0035829150999991941061500004-09967-067800FM-12+013699999V0209991C000019999999N9999999N9+02391+99999101301ADDGF100991999999999999999999MW1111
0072839800999991941020412004-31333-054117FM-12+020499999V0201401N002619999999N9999999N9+02001+99999101231ADDAA124011091GF108991999999999999999999KA1999M+02611KA2999N+01891MW1501
0009725115147111941102205004+40200-076767SAO  +0097MDT  V0203151N002112200019N0096001N1+01521+00631101631ADDMW1051
0051123600999991941031812004+52550+019700FM-12+003199999V0202901N00461075001CN0100001N9-00221-00721102531ADDAY171999GF106991011051008001001071MD1710321+9999
0057070700999991941052209004+49250+004083FM-12+008799999V0202301N00671004501CN0040001N9+01221+99999101901ADDAY161999GF108991081051004501999999MD1110021+9999MW1601
0057105490999991941021600004+50850+010467FM-12+027999999V0201401N01231220001CN0200001N9-00111-00281099301ADDAY141061GF107991001001999999011071MD1990261+9999MW1051
0044042310999991941121417004+66967-050917SAO  +0047BGSF V0200451N001510210019N0128001N1-01481-01701099701ADDGA1081+999999039MW1711EQDQ01    003PRSWM1
0025723550139451941042420004+34650-098383SAO  +0360FSI  V0200201N003612200019N1600001N9+02021+01191102271ADDGA1031+015009089MW1001
0057115180999991941030603004+50100+014283FM-12+036399999V0202901N00461012301CN0020001N9+00001+99999100611ADDAY141999GF108991081051012501999999MD1310061+9999MW1051
0041785201999991941102416004+18017-066567SAO  +0009TJPS V0201351N007210450019N1600001N1+03071+02301101221ADDGA1041+012009089GA2011+999999039MW1001
0025749076999991941112412004+38833-085417SAO  +0268MDN  V0203381N003612200019N1600001N1-00261-00591999999ADDGA1031+012009059MW1001
0087106290999991941101918004+49967+007933FM-12+002699999V0202701N00101004501CN0200001N9+01221+01221101861ADDAA199002091AY161061GF108991081051004501999999IA1089KA1999M+01281MD1310021+9999MW1211
0092116430999991941111209004+50750+015733FM-12+049199999V0201801N02261000151CN0000001N9-00281-00281103051ADDAY141999GF109991091999000251999999MD1210011+9999MW1451EQDQ01+000042APCTENQ02+000022APC3  
0025724690230621941032920004+39750-104867SAO  +1625DEN  V0203151N003610420019N1600001N1+01521+00801100641ADDGA1081+999999049MW1001
0041722650999991941092101004+31933-102200SAO  +0871MAF  V0201801N007212200019N1600001N1+02301+01741100911ADDGA1041+999999041GA2021+999999021MW1001
0051100670999991941071215004+54500+011250FM-12+000399999V0200701N00671220001CN0100001N9+02281+99999101311ADDAY101999GF100991001001999999001001MD1810061+9999
0102121620999991941020112004+54483+019967FM-12+000499999V0201101N01541220001CN0040001N9+99999+99999101711ADDAY111999GF104991999001999999051001MD1810321+9999EQDQ01+000002SCOTLCQ02+028933ATOT  Q03+028493ATOD  
0025788610999991941122008004+17117-061783SAO  +0010TAPA V0200451N005712200019N1600001N1+02631+02241999999ADDGA1021+007509059MW1001
0031745700138401941031523004+39833-084050SAO  +0254FFO  V0202001N007210030019N0048001N9+00241+00241101081ADDGA1081+999999079MW1051MW2511
0039722640930351941011717004+30367-104017SAO  +1481MRF  V0203601N007210060019N1600001N1+00241-00261102201ADDGA1051+999999081MD1110141+9999MW1001
0057106090999991941030709004+49750+006667FM-12+008199999V0202001N00261036001CN0100001N9+00781+99999100551ADDAY121031GF108991041051008001021999MD1210081+9999MW1051
0073106570999991941091218004+49767+009500FM-12+010299999V0203201N00461036001CN0100001N9+01111+00671101601ADDAA199000591AY181061GF106991041081008001031021IA1089KA1999M+01391MW1251
0045749105999991941101409004+40733-073600SAO  +003899999V0209991C000012200019N0080001N1+00961+00911102611ADDGA1081+999999029MD1610101+9999MW1041MW2451
0081125330999991941012806004+50300+016667FM-12+011399999V0209991C00001220001CN0100001N9-02281-02561103231ADDAA199000691AY101999GF102991001001999999081021IA1309KA1999N-02281MD1710081+9999
0051100460999991941021615004+54383+010150FM-12+000999999V0200901N01231000601CN0010001N9+00001+00001099631ADDAY141999GF108991081051000751999999MD1710261+9999
0057105760999991941091812004+50700+012467FM-12+009499999V0202701N00101007801CN0040001N9+01111+00501999999ADDAY121061GF108991081051008001999999MD1710041+9999MW1051
0057104990999991941102600004+51150+014950FM-12+007299999V0202501N00461001501CN0020001N9+00111+00001101541ADDAY161061GF108991081051001501999999MD1810061+9999MW1681
0035828990999991941071600004-08017-034850FM-12+006099999V0201401N006719999999N9999999N9+02501+99999101591ADDGF104991999999999999999999MW1111
0070104880999991941060118004+51133+013767FM-12+007099999V0202901N00461220001CN0200001N9+02221+01001101831ADDAY101061GF101991011011012501001001IA1009KA1999M+02281MD1810061+9999
0041722630999991941090322004+31367-100500SAO  +0585SJT  V0201351N008712200019N1600001N1+03461+01851100751ADDGA1021+018001081GA2021+999999021MW1001
0081105490999991941011806004+50850+010467FM-12+027999999V0202701N01231000151CN0000501N9-01111-01221099551ADDAA199003091AY171061GF109991091999000251999999IA1319KA1999N-01281MD1310121+9999
0048836810999991941030812004-21783-046550FM-12+121099999V0209991C000019999999N9999999N9+02001+99999101721ADDGF100991999999999999999999KA1999M+02501MW1111
0009727855241141941111005004+47617-117650SAO  +0741SKA  V0200201N001512200019N0128001N9+00521+00191102241ADDMW1001
0019911820225211941072102004+21333-157950SAO  +0011PHNL V0200501N012312200019N1600001N9+02741+01911101591ADDGA1021+013509089
0057114060999991941061903004+50083+012400FM-12+047399999V0209991C00001220001CN0000501N9+00781+99999102481ADDAY141031GF100991001001999999001001MD1810041+9999MW1461
0009722977931841941051801004+33683-117867SAO  +0016SNA  V0202701N003112200019N0128001N1+01741+01301999999ADDMW1001
0068100190999991941072806004+54917+008350FM-12+000599999V0200901N00671012301CN0100001N9+01891+99999101281ADDAA199009091AY121999GF107991061051012501071999IA1009MD1310021+9999
0057108940999991941011215004+48383+013300FM-12+010099999V0209991C00001220001CN0010001N9-01111-01221102361ADDAY101031GF100991001001999999001001MD1710241+9999MW1051
0025723030137141941031505004+35183-079017SAO  +0064POB  V0202701N001012200019N1600001N9-00421-00651102401ADDGA1001+999999999MW1001
0086014520999991941071421004+58200+008083FM-12+001599999V0200901N00671220001CN0200001N9+02221+99999100911ADDAY121999GF104991041091012501001031MD1210181+9999EQDQ01+000042APCTENQ02+000062APC3  
004594999900137194106101700N-17470+140830AUST +0009     V0201355N001059999999N999999999+01335+99999999999ADDGA1005+999999999GF101995004999999999999999
0009725115147111941092319004+40200-076767SAO  +0097MDT  V0200451N006712200019N1600001N1+03021+01191101251ADDMW1001
0039911700225081941022618004+21483-158050SAO  +0257PHHI V0203401N003110078019N1600001N9+01741+01301101731ADDGA1061+999999059MD1310041+9999MW1001
0009723556999991941031614004+35667-095367SAO  +0186MKO  V0202701N002112200019N0096001N1+00461+00191101631ADDMW1111
0057125180999991941061312004+50633+017783FM-12+005799999V0200901N00261004501CN0040001N9+01281+00831101001ADDAY161999GF108991061051004501021999MD1710161+9999MW1211
0051123400999991941071303004+52800+018300FM-12+008699999V0201101N00461220001CN0200001N9+01721+01501101771ADDAY101999GF100991001001999999001001MD1310121+9999
0057010520999991941090609004+70667+023683FM-12+001999999V0200701N00671024001CN0100001N9+00721+99999999999ADDAY181999GF108991041081004501071999MD1510101+9999MW1801
0041722051128411941073117004+28550-081333SAO  +0034ORL  V0202701N005110075019N1600001N1+03411+02411101591ADDGA1051+999999089GA2021+999999029MW1001
0057124260999991941080815004+51667+017800FM-12+013399999V0202701N00261220001CN0100001N9+01781+00891101771ADDAY161999GF102991021011008001001001MD1810061+9999MW1211
0043122110999991941040206004+53767+015783FM-12+002799999V0200501N00461220001CN0040001N9+99999+99999999999ADDAY101999GF100991001001999999001999MW1051
0035837500999991941011700004-22517-043183FM-12+085099999V0209991C000019999999N9999999N9+02001+99999101301ADDGF106991999999999999999999MW1111
0057103390999991941041203004+52583+010533FM-12+002099999V0202301N00461004501CN0040001N9+00391+99999101791ADDAY161999GF108991081051004501999001MD1810201+9999MW1611
0039743941999991941121021004+42933-071433SAO  +0076MHT  V0202701N009812200019N0112001N1+00241-00811999999ADDGA1031+009009059MD1210241+9999MW1001
0051106350999991941050415004+50217+008450FM-12+024499999V0203601N01231004501CN0100001N9+00281-00281102471ADDAY181031GF106991061071004501001001MD1210011+9999
0057121500999991941020112004+54383+018600FM-12+000599999V0201601N00461030001CN0100001N9-01111-01441101571ADDAY111999GF106991041051012501051999MD1810281+9999MW1051
0057107070999991941071212004+49750+008117FM-12+005599999V0201601N00261220001CN0100001N9+02891+01891100831ADDAY121061GF104991021021008001041031MD1710021+9999MW1051
0076125000999991941120415004+50900+015783FM-12+010499999V0203201N00461001501CN0010001N9-00111-00221103171ADDAY121999GF108991081051001501999999IA1309KA1999M+00001MD1810021+9999MW1101
0057104090999991941100712004+51833+006267FM-12+000599999V0201401N00261002401CN0020001N9+01611+99999102671ADDAY101061GF108991081051002501999999MD1310041+9999MW1051
0051104260999991941022112004+51700+008750FM-12+005799999V0201601N00261220001CN0200001N9+00501+99999099551ADDAY121061GF104991001001999999001061MD1710061+9999
0041725377148041941090816004+42617-082817SAO  +0176MTC  V0201601N008710084019N1600001N9+01911+01461101691ADDGA1061+999999059GA2021+999999049MW1001
0057114480999991941031303004+49733+013350FM-12+035699999V0200201N00101220001CN0040001N9-00391+99999102691ADDAY101999GF100991001001999999001001MD1510041+9999MW1041
0051100670999991941110112004+54500+011250FM-12+000399999V0200201N01901015001CN0100001N9+00281+99999101811ADDAY121999GF107991071031017501061001MD1310061+9999
0043841380999991941121813004-02850-078983FM-12+253299999V0200501N001019999999N0500001N9+01391+99999102701ADDAY121999GF106991041999012501999999MW1021
0051106090999991941051115004+49750+006667FM-12+008199999V0200501N00461007801CN0200001N9+01001+99999102081ADDAY121031GF107991061081008001041001MD1310021+9999
0009788078999991941021316004+08383-080133SAO  +0031MPRH V0201801N001510120019N1600001N1+02851+02301100851ADDMW1051
0029014150999991941050621004+58883+005633FM-12+000799999V0203601N00461220001CN0040001N9+00221+99999999999ADDGF104991999999999999999999
0025785140999991941072717004+18500-067133SAO  +0075TJBQ V0200901N008712200019N1600001N1+03021+02301101861ADDGA1021+009009089MW1001
0051108570999991941021100004+48067+010917FM-12+018999999V0202501N00261220001CN0500001N9+00281+00171102321ADDAY111061GF104991999001999999041001MD1310101+9999
0070265100999991941121912004+55150+020867FM-12+000199999V0203601N00101007801CN0100001N9+00221+00111102661ADDAY121999GF108991081051008001999999MD1410001+9999EQDQ01+000032APCTEN
0046719576999991941082708004+64900-125500FM-12+009199999V02099999999999999999N9999999N9+99999+99999999999ADDAJ100009199999999KA1999M+01561KA2999N-00281
0025727850241571941112217004+47633-117533SAO  +0721GEG  V0201351N002110090019N0240001N1-00151-00151102881ADDGA1061+999999059MW1001
0076104480999991941111218004+51483+010783FM-12+005599999V0201101N00671004501CN0040001N9+00281+00061101081ADDAY121061GF108991081051004501999999IA1009KA1999M+00391MD1110041+9999MW1051
0025723030137141941092720004+35183-079017SAO  +0064POB  V0200901N001512200019N1600001N9+02801+01801102101ADDGA1021+015009089MW1001
0029719460999991941121500004+61867-121350FM-12+012799999V0209991C000019999999N0500001N9-02221+99999100681ADDGF108991001999012501999999
0043782240999991941081912004+23017-082400FM-12+006999999V0209991C00001220001CN0500001N9+02831+99999999999ADDAY101999GF101991001999999999999999MW1001
0057724338138021941071123004+38550-089983SAO  +0134BLV  V0203201N003112200019N1600001N9+02911+01911101151ADDGA1021+006009089GA2021+999999049GA3041+999999029MW1001
004594999900073194108132300N-16270+133380AUST +0214     V0201135N004159999999N999999999+01445+99999999999ADDGA1005+999999999GF102995004999999999999999
0035835500999991941051000004-18617-039667FM-12+000699999V0201401N004619999999N9999999N9+02501+99999101951ADDGF101991999999999999999999MW1111
0080749105999991941121812004+40733-073600SAO  +003899999V0203151N001012200019N0064001N1-00201-00261101931ADDGA1011+999999089GA2021+999999049MD1410001+9999MW1041MW2111EQDQ01+000082APCTEN
0041723550139451941031220004+34650-098383SAO  +0360FSI  V0203601N010810054019N1600001N9+00241-00261102811ADDGA1051+999999059GA2021+999999009MW1001
0037108590999991941041912004+48083+011300FM-12+017799999V0202701N00461004501CN0040001N9+99999+99999999999ADDAY121061GF108991081051004501999999
0025743941999991941121307004+42933-071433SAO  +0076MHT  V0203381N001510048019N0040001N1-00811-01701999999ADDGA1081+999999049MW1051
0070103490999991941072603004+52633+011933FM-12+001699999V0200701N00101220001CN0040001N9+01501+01061101681ADDAY101999GF101991999001999999041001MD1710041+9999EQDQ01+000002SCOTLC
0037103510999991941061315004+52283+013400FM-12+001299999V0201801N00461030001CN0100001N9+99999+99999999999ADDAY121999GF108991041051004501021999
0057111570999991941021215004+47533+014150FM-12+064099999V0209991C00001220001CN0200001N9+00281+99999100671ADDAY121031GF108991001001999999001061MD1810221+9999MW1051
0041724338138021941090819004+38550-089983SAO  +0134BLV  V0202301N008212200019N1600001N9+03411+01911101111ADDGA1011+015009089GA2051+999999029MW1001
0009726770240331941122000004+45800-108533SAO  +1088BIL  V0202481N007212200019N1600001N1+01131-00261101321ADDMW1001
0041723650230501941082300004+35050-106667SAO  +1620ABQ  V0202301N004610420019N1600001N9+02851+00911999999ADDGA1021+015009099GA2021+999999009MW1001
0051109610999991941061415004+47417+010983FM-12+090399999V0203201N00261000151CN0000001N9-00501-00501101191ADDAY171031GF109991091999000251999999MD1210101+9999
0025722051128411941120214004+28550-081333SAO  +0034ORL  V0200231N004112200019N1600001N1+02301+02021101931ADDGA1031+999999029MW1001
0039722535129091941080309004+29383-098567SAO  +0207SKF  V0201401N001012200019N1600001N9+02411+02131101691ADDGA1021+003609079MD1210041+9999MW1001
0025042700999991941080902004+61183-045417SAO  +0026BGBW V0209991C000010150019N1600001N1+00961+00741099861ADDGA1081+999999079MW1511
0055837500999991941013112004-22517-043183FM-12+085099999V0200501N006719999999N9999999N9+02391+99999101391ADDGF100991999999999999999999KA1999M+02721KA2999N+01891
0041725720241271941122914004+40783-111967SAO  +1288SLC  V0201581N003610210019N1600001N1+00241+99999999999ADDGA1021+012009059GA2061+999999039MW1001
0039725310148061941071515004+40300-088133SAO  +0228RAN  V0201801N001012200019N0080001N1+02851+01571101591ADDGA1021+999999009MD1710041+9999MW1061
0059836840999991941072012004-21850-045300FM-12+096099999V0200901N002619999999N9999999N9+01111+99999102241ADDAA124004091GF108991999999999999999999KA1999N+00891MW1111
0067108400999991941041518004+48717+009267FM-12+011599999V0202301N00261007801CN0200001N9+01001+00781101201ADDAA199000591AY161061GF108991061051008001021999IA1089KA1999M+01611
0051123300999991941081515004+52417+016833FM-12+009999999V0202001N00261030001CN0200001N9+02501+01561101261ADDAY121999GF107991041051008001041021MD1710141+9999
0009749142999991941121104004+67100-062350SAO  +004099999V0209991C000012200019N1600001N1-02481-03201100581ADDMW1001
0057109470999991941092609004+47983+010233FM-12+019299999V0203201N00101220001CN0040001N9+01391+01171102201ADDAY121031GF107991001001999999071071MD1990041+9999MW1051
0025724835232061941102516004+38417-121333SAO  +0027MHR  V0201801N001010180019N0176001N9+01351+01071999999ADDGA1081+999999059MW1001
0025911665999991941062401004+21867-159450SAO  +00161Z4  V0200681N012312200019N1600001N1+02741+02131101731ADDGA1021+007509089MW1001
0025749154999991941062222004+18917-155683SAO  +001299999V0200901N009812200019N1600001N1+02851+01911101391ADDGA1021+007509059MW1001
0025722700230441941060701004+31800-106400SAO  +1194ELP  V0202701N001512200019N1600001N1+02801+00241100441ADDGA1011+999999009MW1001
0087107260999991941040806004+49500+010967FM-12+009299999V0200501N00461004501CN0040001N9-00111-00281102231ADDAA199006091AY171061GF108991081061004501999999IA1089KA1999N-00221MD1310101+9999MW1701
0029719350999991941090115004+60850-115767FM-12+016199999V0203601N009319999999N9999999N9+00671+99999999999ADDGF108991081999999999999999
0057070900999991941080921004+49083+006133FM-12+019099999V0201801N00261220001CN0040001N9+01391+99999101721ADDAY121999GF104991041041012501001001MD1310101+9999MW1051
0043875000999991941110317004-35117-069567FM-12+152499999V0209991C00001220001CN0500001N9+01781+99999999999ADDAY101999GF102991001999999999999999MW1011
0051121630999991941051603004+54133+020567FM-12+002799999V0209991C00001220001CN0100001N9+00221+00111100751ADDAY111999GF104991041001012501051001MD1810041+9999
0043117240999991941092506004+50100+016683FM-12+016099999V0209991C00001220001CN0040001N9+99999+99999999999ADDAY101999GF100991001001999999001999MW1051
005272253612911194101291700D+29533-098283SAO  +0226RND  V0200901N003610210019N0096001N9+01301+00581102811ADDAA101000095GA1051+999999049GA2021+999999029MW1051
0009722650999991941082710004+31933-102200SAO  +0871MAF  V0201581N004612200019N1600001N1+02071+01851101191ADDMW1001
0023749105999991941091503004+40733-073600SAO  +003899999V0202251N006212200019N1600001N1+01741+01461102541ADDMD1710061+9999MW1001
0041722585939011941120716004+32733-096967SAO  +0151NBE  V0201581N008712200019N1600001N1+00911+00021102541ADDGA1031+999999039GA2051+999999029MW1001
0037133880999991941111609004+43350+021867FM-12+020899999V0201101N00671015001CN0200001N9+99999+99999999999ADDAY121999GF108991081051017501999999
0009702000266171941110502004+64500-165433SAO  +0007OME  V0203381N005712200019N0560001N1-00261-00921101391ADDMW1001
0025724835232061941112904004+38417-121333SAO  +0027MHR  V0203201N005112200019N0112001N9+00911+00741999999ADDGA1011+999999049MW1001
0051105590999991941052903004+50467+011083FM-12+025699999V0202301N00671000151CN0002001N9+00781+00721099501ADDAY161031GF109991091999000251999999MD1990101+9999
0031722436129061941091516004+29600-095167SAO  +0014EFD  V0203201N003610015019N0016001N9+02411+02351101051ADDGA1081+999999079MW1451MW2611
0051104680999991941062212004+51833+012200FM-12+001899999V0203201N00261220001CN0100001N9+02611+01331101971ADDAY101061GF101991011011017501001001MD1990101+9999
0051101810999991941011700004+54367+013083FM-12+000299999V0201101N00461004501CN0100001N9-00891-01061100231ADDAY121999GF107991071051004501999999MD1990021+9999
0025724567139211941062516004+39367-094917SAO  +0238FLV  V0201801N005112200019N0128001N1+03071+02131101351ADDGA1011+012009089MW1001
0057011520999991941020212004+67283+014400FM-12+001799999V0203201N00671007801CN0040001N9-00281+99999101441ADDAY181999GF107991071081008001999999MD1310221+9999MW1161
0134724050137431941112305005+38850-077033SAO  +002099999V02018059005252200049N009600599+00565+00065102275ADDMA1999999102035MW1615EQDN01 02000JPWTH 1QNNG11U1 99999K11 1 00033L11 1 00600M11 1 30130N11 1 02000Q11 1 10227S11 1 00042W11 1 55010
0047724050137431941061601004+38850-077033SAO  +0020DCA  V0202481N003610120019N0080001N1+02021+01741100811ADDGA1011+007509059GA2061+999999049MW1051MW2801
0057105760999991941120415004+50700+012467FM-12+009499999V0202501N00261004501CN0020001N9+00221+00001103241ADDAY121031GF106991061051004501999999MD1710021+9999MW1051
0025724956232111941030910004+38067-122517SAO  +0003SRF  V0202701N001010420019N1600001N1+01131+00961101901ADDGA1081+999999049MW1001
0076122320999991941020506004+53117+017967FM-12+002199999V0202701N00101004501CN0040001N9-01111-01221102131ADDAY101999GF106991061051004501001999IA1319KA1999N-01221MD1310021+9999MW1051
0087124000999991941120718004+51917+015500FM-12+004599999V0201801N00671004501CN0200001N9+00501+00111098831ADDAA199000591AY161999GF107991061051004501071999IA1089KA1999M+00501MD1610201+9999MW1211
0076122370999991941121912004+53467+018783FM-12+000799999V0200201N00261004501CN0040001N9+00281+00171102861ADDAY121999GF108991081051004501999999MD1310021+9999MW1051EQDQ01+000002APC3  
0023726625240061941120221004+44133-103100SAO  +0979RCA  V0201801N011812200019N1600001N9+01911-00651100581ADDMD1510481+9999MW1001
0031724836232081941112811004+38650-121383SAO  +0024MCC  V0201101N001012200019N0024001N9+00691+00351101631ADDGA1021+999999039MW1041MW2451
0037124030999991941080809004+51683+015733FM-12+003199999V0202701N00671220001CN0040001N9+99999+99999999999ADDAY111999GF102991021041017501001999
0037122730999991941051909004+52883+020633FM-12+003699999V0200901N00461004501CN0100001N9+99999+99999999999ADDAY121999GF108991081051004501999999
0057265090999991941042506004+55700+021133FM-12+000199999V0200201N00261220001CN0200001N9+00281+00061101541ADDAY101999GF101991001001999999001011IA1009MD1810041+9999
0057103700999991941020812004+52433+012450FM-12+000999999V0202501N00671220001CN0040001N9+00501+00281100991ADDAY121999GF104991021051004501051001MD1210181+9999MW1051
0057070050999991941063009004+50133+001850FM-12+007199999V0200901N00101004501CN0040001N9+01391+99999102271ADDAY121999GF108991081051004501999999MD1110081+9999MW1051
0025726770240331941040619004+45800-108533SAO  +1088BIL  V0203151N008210102019N1600001N1+00801-00041101081ADDGA1999+006009999MW1001
0057103660999991941040709004+52400+012917FM-12+001099999V0200201N00931030001CN0040001N9+00501+00281101781ADDAY121999GF108991021051004501021999MD1110101+9999MW1051
0081103930999991941082318004+52200+014117FM-12+003299999V0202301N00461030001CN0100001N9+01721+01501101461ADDAA199001091AY121061GF106991041071012501051011IA1089KA1999M+01781MD1810061+9999
0023724690230621941092006004+39750-104867SAO  +1625DEN  V0201801N005712200019N1600001N1+02021+00581100101ADDMD1610061+9999MW1001
0029719094999991941120605004+62833-069900FM-12+001699999V02099999999999999999N9999999N9+99999+99999999999ADDKA1999M-01391KA2999N-01561
0057107460999991941100615004+49133+010050FM-12+012999999V0200901N00261004501CN0040001N9+01501+01281102681ADDAY121031GF108991081051004501999999MD1610041+9999MW1051
0043103510999991941102818004+52283+013400FM-12+001299999V0202001N00461001501CN0040001N9+99999+99999999999ADDAY121999GF108991081061001501999999MW1611
0057121620999991941050315004+54483+019967FM-12+000499999V0200201N00931001501CN0040001N9+00611+00561100791ADDAY161999GF108991071061001501999999MD1710061+9999MW1611
0070060630999991941121906004+56300+009067FM-12+005199999V0202301N00261220001CN0200001N9-00281+99999102751ADDAY101999GF100991001001999999001001IA1139KA1999N-00391MD1710081+9999
0023718030999991941102300004+48950-054567SAO  +0151CYQX V0201801N002112200019N1600001N1+00461+00351100801ADDMD1210081+9999MW1001
0076121000999991941111806004+54200+015667FM-12+000299999V0201801N00461012301CN0040001N9+00281+00171101701ADDAY121999GF108991081051012501999999IA1089KA1999N+00221MD1990061+9999MW1051
0041724338138021941080808004+38550-089983SAO  +0134BLV  V0201801N001510480019N0112001N9+02411+02131999999ADDGA1061+999999049GA2021+999999029MW1001
0076111460999991941051218004+47050+013050FM-12+310699999V0200501N00671000151CN0002001N9-01221+99999099221ADDAY141061GF109991091999000251999999IA1319KA1999M-00891MD1310041+9999MW1411
0041911665999991941111017004+21867-159450SAO  +00161Z4  V0200451N005110180019N1600001N1+02241+01911101861ADDGA1041+010509089GA2021+999999039MW1001
0076101470999991941021421004+53633+010000FM-12+000599999V0209991C00001002401CN0010001N9+00221+00111099821ADDAY141999GF108991081051002501999999MD1410001+9999MW1101EQDQ01+000032APCTEN
0035836120999991941072800004-20450-054617FM-12+056199999V0201401N002619999999N9999999N9+01721+99999101781ADDGF100991999999999999999999MW1111
0055722051128411941090918004+28550-081333SAO  +0034ORL  V0200901N005112200019N1600001N1+03241+02241101801ADDGA1041+006009089GA2021+999999039MD1710101+9999MW1001
0057125390999991941091800004+50267+018667FM-12+007599999V0203201N00101004501CN0040001N9+00891+00831102951ADDAY121999GF108991081051004501999999MD1810081+9999MW1051
0051105690999991941012409004+50533+012100FM-12+013799999V0201801N00261004501CN0010001N9+00281+00171099711ADDAY121031GF108991081051004501999999MD1310061+9999
0025722210138581941090210004+30500-086500SAO  +0025VPS  V0200201N001012200019N1600001N9+02301+02241101831ADDGA1021+999999039MW1001
0087123750999991941031006004+52183+020967FM-12+010799999V0201101N00461004501CN0040001N9+00221+00111101301ADDAA199000691AY161999GF108991071051004501999999IA1089KA1999N+00221MD1710101+9999MW1501
0039722210138581941040918004+30500-086500SAO  +0025VPS  V0201801N004112200019N1600001N9+02301+01571101631ADDGA1021+004509059MD1810041+9999MW1001
004594476099999194107052300N-27570+135450AUST +0117     V0209999C000059999999N999999999+00845+99999999999ADDGA1005+999999999GF100995004999999999999999
0023703610253391941052521004+59517-139667SAO  +0009CYAK V0202481N001510090019N0160001N1+01021+00581102711ADDMD1810061+9999MW1001
0039723030137141941121409004+35183-079017SAO  +0064POB  V0202701N002612200019N1600001N9+00301+00191101151ADDGA1001+999999999MD1110081+9999MW1001
0043114230999991941093012004+49683+012667FM-12+021399999V0200901N00461036001CN0040001N9+99999+99999999999ADDAY121999GF107991041051004501021999MW1051
0039722250138291941070906004+32333-085000SAO  +0071LSF  V0201401N000512200019N0128001N9+02301+02241101491ADDGA1011+999999009MD1410001+9999MW1001
0070104490999991941041006004+51483+010317FM-12+009099999V0209991C00001220001CN0200001N9-00111-00441102871ADDAY101061GF100991001001999999001001IA1139KA1999N-00501MD1210081+9999
0051266970999991941081712004+54617+019883FM-12+000699999V0202001N00461220001CN0200001N9+02391+01941100641ADDAY101999GF102991011011008001001081MD1510101+9999
015199999913739194102141500E+39883-075233SAO  +000899999V02009059006250009149N001300599+00445+00445100985ADDAA101000095MA1999999100885MW1455MW2515EQDN01 03370JPWTH 1QNNG11 1 00003K11 1 00040L11 1 00081M11 1 29790N11 1 03370Q11 1 10098S11 1 00040W11 1 33012
0057266930999991941083109004+54683+020650FM-12+000399999V0203201N00101007801CN0100001N9+01721+01061100911ADDAY101999GF106991061081008001001001MD1310081+9999MW1051
0051101310999991941010421004+53867+008717FM-12+000199999V0200501N00931004501CN0100001N9-00221-00221103241ADDAY121999GF108991081051004501999999MD1810021+9999
0051911820225211941092902004+21333-157950SAO  +0011PHNL V0200901N009312200019N1600001N9+02851+01851101321ADDGA1011+010509089GA2011+999999039GA3001+999999999
0057101620999991941040512004+53617+011383FM-12+001499999V0209991C00001004501CN0010001N9+00781+99999101351ADDAY161999GF108991071051004501021999MD1710041+9999MW1611
0025722250138291941040907004+32333-085000SAO  +0071LSF  V0200901N003110150019N1600001N9+01571+01351101391ADDGA1051+999999059MW1001
0083871780999991941011512004-27350-055950FM-12+013399999V0201601N00461004501CN0040001N9+02111+99999101331ADDAY111999GF106991061051004501001001IA1009KA1999M+03281KA2999N+01891MD1110161+9999
0043111580999991941042906004+47117+013733FM-12+102599999V0209991C00001001501CN0100001N9+00281+99999999999ADDAY121061GF107991071051001501999999MW1051
0035719181999991941101523004+73000-085300FM-12+001199999V0209991C000019999999N0100001N9-00561+99999101221ADDGF108991081061002501999999MW1701
0058749154999991941021802004+18917-155683SAO  +001299999V0200901N005710120019N1600001N1+02461+01571101191ADDGA1061+999999059MD1410001+9999MW1001EQDQ01+000032APCTEN
0041788071999991941072314004+08967-079550SAO  +0012MBLB V0202251N001012200019N0128001N1+02911+02521101051ADDGA1031+006009089GA2051+999999029MW1001
0037122730999991941021406004+52883+020633FM-12+003699999V0200901N00671030001CN0100001N9+99999+99999999999ADDAY121999GF107991021051004501051999
0057122120999991941061109004+53750+015333FM-12+001399999V0201601N00671030001CN0100001N9+02001+01561099951ADDAY121999GF107991041081004501071021MD1810041+9999MW1051
0037109620999991941113006004+49750+012383FM-12+028499999V0200901N00261220001CN0020001N9+99999+99999999999ADDAY101061GF100991001001999999001999
0025042700999991941122900004+61183-045417SAO  +0026BGBW V0200681N001010090019N0128001N1+00351+00241098471ADDGA1081+999999079MW1611
0076873440999991941041912004-31400-064183FM-12+042699999V0201401N00101220001CN0200001N9+01001+00781100881ADDAY101999GF100991001001999999001001IA1009KA1999N+00611MD1310041+9999MW1001
0087104260999991941120918004+51700+008750FM-12+005799999V0202501N00671001501CN0020001N9+00611+99999100711ADDAA199003091AY151061GF108991061061001501999999IA1089KA1999M+00611MD1210081+9999MW1611
0009749154999991941021716004+18917-155683SAO  +001299999V0200231N003112200019N1600001N1+01911+01461101391ADDMW1001
0041745980137021941072510004+37083-076350SAO  +0002LFI  V0209991C000012200019N0048001N9+02021+99999101631ADDGA1011+012009089GA2021+999999029MW1111
0043102890999991941012609004+53317+013867FM-12+000899999V0200201N00101007801CN0100001N9+99999+99999999999ADDAY111999GF108991081051008001999999MW1711
0029719031999991941022418004+61300-064883FM-12+003999999V0200701N011819999999N0200001N9-00111+99999101081ADDGF108991081999999999999999
0044719081999991941051118004+63117-077933FM-12+001699999V0201801N003119999999N0100001N9-00501-00501999999ADDGF108991081999999999999999MA1999999103011
0061837460999991941082212004-22450-042933FM-12+087799999V0200501N002619999999N9999999N9+01391+99999102241ADDGF108991999999999999999999KA1999M+02391KA2999N+00781MW1111
0037125690999991941081512004+50850+019967FM-12+026199999V0202301N00101030001CN0100001N9+99999+99999999999ADDAY121999GF106991041021012501031999
0057103640999991941090209004+51983+013083FM-12+002799999V0200901N00101220001CN0100001N9+01501+01061102771ADDAY111999GF102991021081012501001011MD1110141+9999MW1051
0029719181999991941101023004+73000-085300FM-12+001199999V0209991C000019999999N0100001N9-00941+99999101631ADDGF108991081051001501999999
0076071900999991941031718004+48550+007633FM-12+015499999V0200501N00101007801CN0040001N9+01281+99999100982ADDAY181999GF106991061081008001071021MD1710101+9999MW1051EQDQ01+100983APOSLP
0041724956232111941043001004+38067-122517SAO  +0003SRF  V0201801N002610036019N0112001N1+01411+01241101051ADDGA1061+999999079GA2021+999999049MW1611
0057125390999991941082015004+50267+018667FM-12+007599999V0200501N00101030001CN0040001N9+02001+01561101191ADDAY161999GF108991041051008001021999MD1990161+9999MW1601
0041785260999991941082720004+18433-066000SAO  +0019TJSJ V0200451N004112200019N1600001N1+02801+02411101251ADDGA1021+009009089GA2031+999999009MW1001
0025726625240061941021801004+44133-103100SAO  +0979RCA  V0202901N007212200019N1600001N9+00081-00811102001ADDGA1999+021009999MW1001
0043122360999991941011906004+53733+018933FM-12+001999999V0203601N00261002401CN0020001N9+99999+99999999999ADDAY121999GF108991081051002501999999MW1051
0081104820999991941071606004+51300+013550FM-12+003899999V0202501N00261030001CN0100001N9+01781+01331101191ADDAA199000691AY121061GF107991021051012501031061IA1009KA1999N+01501MD1010041+9999
0057110110999991941081703004+48233+014183FM-12+029599999V0202701N00671036001CN0100001N9+01721+99999100861ADDAY111031GF106991041051004501041001MD1210221+9999MW1051
0043106410999991941112512004+50133+008550FM-12+004099999V0209991C00001000151CN0000501N9+99999+99999999999ADDAY141061GF109991091999000251999999MW1471
0045745980137021941120215004+37083-076350SAO  +0002LFI  V0202701N004610024019N0016001N9+01301+01241102371ADDGA1081+999999079MD1110041+9999MW1041MW2451
0029710613999991941103012004+71917-094250FM-12+001599999V0203201N001519999999N0100001N9-01671-01671100141ADDGF109991091999000251999999
0087123400999991941042418004+52800+018300FM-12+008699999V0200201N00461002401CN0040001N9+00221+00111101591ADDAA199000691AY161999GF108991061061002501999999IA1009KA1999M+00391MD1510001+9999MW1681
0051121000999991941090415004+54200+015667FM-12+000299999V0202701N00671075001CN0500001N9+01721+01281102201ADDAY171999GF106991041011004501001021MD1810061+9999
0009726810241311941110710004+43567-116217SAO  +0874BOI  V0201351N007212200019N1600001N1+00351-00041103051ADDMW1001
0043070050999991941011506004+50133+001850FM-12+007199999V0202001N00101002401CN0010001N9+99999+99999999999ADDAY121999GF108991081051002501999999MW1101
0035827640999991941071400004-07333-047467FM-12+019599999V0209991C000019999999N9999999N9+02611+99999101521ADDGF100991999999999999999999MW1111
0055747880128101941120418004+27850-082500SAO  +0003KMCF V0202301N006710030019N1600001N9+02461+02181101521ADDGA1061+999999059GA2021+999999049MD1710141+9999MW1001
0023725377148041941091909004+42617-082817SAO  +0176MTC  V0209991C000010001519N0000001N9+01351+01351102471ADDMD1810041+9999MW1451
0070122250999991941061806004+53267+016467FM-12+003899999V0203201N00261220001CN0100001N9+01281+01061102431ADDAY101999GF102991001001999999051091IA1089KA1999N+01001MD1310041+9999
0057106090999991941012500004+49750+006667FM-12+008199999V0203601N00101001501CN0020001N9+00391+99999099931ADDAY161061GF108991081061001501999999MD1810141+9999MW1631
0057104810999991941032921004+51533+013233FM-12+002999999V0202701N00461007801CN0100001N9+00611+00391099841ADDAY161031GF108991081061008001999999MD1310161+9999MW1601
0051109620999991941071109004+47800+011017FM-12+030199999V0202501N00101220001CN0200001N9+02111+01671100091ADDAY101031GF102991011021017501001999MD1310101+9999
0023725690240891941060203004+42917-106467SAO  +1612CPR  V0203151N006212200019N1600001N1+01631-00591101121ADDMD1210181+9999MW1001
0057102540999991941051909004+52833+011200FM-12+001599999V0201101N00461030001CN0040001N9+01501+01061100231ADDAY161999GF107991041051012501071999MD1610021+9999MW1051
004594999900222194108190500N-33050+151600AUST +0009     V0201585N004659999999N999999999+01565+99999999999ADDGA1015+009005999GF102995014999009005999999
0078070580999991941091909004+49817+001967FM-12+018099999V0200901N00461004501CN0010001N9+01001+99999999999ADDAY121999GF108991081051004501999999MW1101EQDQ01+000032APCTENQ02+000002APC3  
0037114060999991941030515004+50083+012400FM-12+047399999V0209991C00001220001CN0200001N9+00221+99999999999ADDAY101031GF104991999081008001999999
0043103850999991941101515004+52367+013517FM-12+001499999V0202501N00461002401CN0040001N9+99999+99999999999ADDAY121031GF108991061051002501021999MW1161
0043122720999991941051512004+53767+020417FM-12+004199999V0200201N00261004501CN0100001N9+99999+99999999999ADDAY161999GF108991081051004501999999MW1211
0057104660999991941100812004+51483+011933FM-12+002499999V0202501N00461220001CN0040001N9+01781+01111102371ADDAY101061GF104991001001999999031021MD1710141+9999MW1051
0076100200999991941012318004+55017+008433FM-12+999999999V0201101N00461000601CN0020001N9+00001+00001099801ADDAY121999GF108991081051000751999999IA1189KA1999M+00001MD1110021+9999MW1051
0009724690230621941100722004+39750-104867SAO  +1625DEN  V0203601N004112200019N1600001N1+01571-00811101251ADDMW1001
0057116500999991941040815004+49617+015583FM-12+045699999V0200201N01231000601CN0040001N9-00221+99999101961ADDAY171999GF108991081051000751999999MD1310161+9999MW1711
0025723550139451941030201004+34650-098383SAO  +0360FSI  V0201401N005712200019N1600001N9+01571+00851100981ADDGA1061+999999029MW1001
0025723550139451941120708004+34650-098383SAO  +0360FSI  V0201801N005112200019N1600001N9+00301-00151102271ADDGA1021+999999009MW1001
0043107260999991941020612004+49500+010967FM-12+009299999V0201601N00101004501CN0040001N9+99999+99999999999ADDAY121061GF108991081051004501999999MW1221
0043841290999991941111113004-02167-079867FM-12+000399999V0202301N00101007801CN0500001N9+02111+99999100751ADDAY121999GF108991081999008001999999MW1031
0025726770240331941071820004+45800-108533SAO  +1088BIL  V0202031N003112200019N1600001N1+03411+01021101291ADDGA1999+021009999MW1001
0023788071999991941082409004+08967-079550SAO  +0012MBLB V02099999000512200019N0016001N1+02351+02301101051ADDMD1610041+9999MW1451
0057106330999991941042903004+50050+008333FM-12+004299999V0202701N00101007801CN0020001N9+00721+00611101281ADDAY161031GF107991061051008001021999MD1310101+9999MW1051
0025725377148041941010807004+42617-082817SAO  +0176MTC  V0209991C000010072019N1600001N9-00371-00591103521ADDGA1061+999999059MW1001
0041702615999991941070411004+64850-147583SAO  +0148FBK  V0203151N001510120019N0160001N1+01461+01351999999ADDGA1061+999999059GA2011+999999049MW1611
0009722700230441941100702004+31800-106400SAO  +1194ELP  V0200901N001012200019N1600001N1+01851+99999101151ADDMW1001
0057104260999991941110703004+51700+008750FM-12+005799999V0202901N00931002401CN0040001N9+00501+99999100511ADDAY161031GF108991061051002501999999MD1510101+9999MW1611
0039722210138581941092306004+30500-086500SAO  +0025VPS  V0200701N002612200019N1600001N9+02131+01691101561ADDGA1021+999999049MD1710081+9999MW1001
0057124250999991941010512004+51133+016967FM-12+003799999V0200701N00261004501CN0040001N9-00721-00891102731ADDAY171999GF107991061051004501031999MD1810041+9999MW1221
0041724050137431941051319004+38850-077033SAO  +0020DCA  V0203151N002610150019N1600001N1+02131-00371101491ADDGA1061+999999089GA2011+999999009MW1001
004594374099999194109102000N-23380+150470AUST +0014YBRK V0202705N001559999999N999999999+01485+99999999999ADDGA1005+999999999GF101995004999999999999999
0057101470999991941022800004+53633+010000FM-12+000599999V0201601N00931002401CN0020001N9+00221+00171101131ADDAY161999GF108991081061002501999999MD1710241+9999MW1631
0043075920999991941112809004+44667+006650FM-12+099599999V0201801N00261220001CN0040001N9+99999+99999999999ADDAY111999GF102991001001999999071999MW1051
0039724690230621941102021004+39750-104867SAO  +1625DEN  V0203601N004612200019N1600001N1+01691+00461101251ADDGA1021+999999009MD1710101+9999MW1001
0076014520999991941070818004+58200+008083FM-12+001599999V0202001N00101220001CN0100001N9+02281+99999101771ADDAY111999GF107991001001999999051071IA1009KA1999M+02391MD1810041+9999MW1051
0055785201999991941071415004+18017-066567SAO  +0009TJPS V0201351N006710420019N0128001N1+03181+02411101801ADDGA1021+007509089GA2051+999999039MD1110041+9999MW1001
0072103820999991941111903004+52467+013133FM-12+001499999V0201801N00101220001CN0040001N9+00281+00221101911ADDAY121999GF104991021051012501071001EQDQ01+000032APCTENQ02+000002APC3  
0039911700225081941012718004+21483-158050SAO  +0257PHHI V0203401N000510060019N0012001N9+01911+01851101351ADDGA1081+999999059MD1210101+9999MW1611
0108126500999991941021418004+49233+019983FM-12+198899999V0202001N00931220001CN0005001N9-00721-00831098131ADDAA199001091AY141999GF102991021051000251999999IA1319KA1999M-00221MW1411EQDQ01+000042APCTENQ02+000022APC3  
0057124650999991941112315004+51717+019400FM-12+017699999V0201101N00671002401CN0040001N9-00281-00281102691ADDAY121999GF108991081051002501999999MD1510001+9999MW1051
0057103160999991941120921004+51967+008550FM-12+004499999V0202701N01231001501CN0002001N9+00611+99999100781ADDAY161999GF108991081051001501999999MD1310101+9999MW1631
0025724690230621941012714004+39750-104867SAO  +1625DEN  V0201801N003610180019N1600001N1-00421-00761103891ADDGA1081+999999039MW1001
0009723890931931941121904004+36767-119717SAO  +0100FAT  V0209991C000012200019N0080001N1+00741+00631999999ADDMW1111
0048834270999991941031812004-16267-047883FM-12+091099999V0200901N002619999999N9999999N9+02111+99999101061ADDGF106991999999999999999999KA1999N+01781MW1111
0025749142999991941112822004+67100-062350SAO  +004099999V0203151N006712200019N1600001N1-02701-03371099461ADDGA1021+999999029MW1001
0076114500999991941012206004+49167+013250FM-12+121499999V0201401N00671036001CN0200001N9+00281+99999095511ADDAY121999GF107991041051008001071999IA1319KA1999N+00221MD1710041+9999MW1121
0057108680999991941112312004+48250+011550FM-12+014899999V0200901N00261000151CN0010001N9+00111+00001101801ADDAY141061GF108991081051000251999999MD1990061+9999MW1101
0043853730999991941050117004-22083-065600FM-12+345199999V0209991C00001220001CN0500001N9+01281+99999999999ADDAY101999GF100991001999999999999999MW1001
0087106850999991941102606004+50300+011867FM-12+017399999V0202701N00931004501CN0040001N9+00001+00001101421ADDAA199003091AY171061GF108991081051004501999999IA1199KA1999N+00001MD1810221+9999MW1701
0057103640999991941092512004+51983+013083FM-12+002799999V0209991C00001220001CN0020001N9+02222+01281102271ADDAY101999GF100991001001999999001001MD1810061+9999MW1051
0087108640999991941112618004+48067+011650FM-12+016799999V0200901N00261001501CN0020001N9+00111+00061103101ADDAA199000691AY121061GF108991081051001501999999IA1089KA1999M+00111MD1310021+9999MW1051
0037266960999991941051309004+54767+020400FM-12+001099999V0202501N00931030001CN0100001N9+99999+99999999999ADDAY121999GF108991041051008001071999
0043110390999991941090706004+48000+016900FM-12+018099999V0201101N00261220001CN0040001N9+99999+99999999999ADDAY101061GF101991001001999999999999MW1051
0051105100999991941051500004+50350+006950FM-12+018999999V0202701N00461004501CN0040001N9+00721+99999101391ADDAY121061GF108991081051004501999999MD1810121+9999
0037105790999991941090215004+50617+013467FM-12+018899999V0202701N00101007801CN0100001N9+99999+99999999999ADDAY121031GF108991081051008001999999
0043070140999991941100709004+50417+001600FM-12+000799999V0201401N00261220001CN0010001N9+99999+99999999999ADDAY101999GF100991001001999999001999MW1101
0025744910147031941092220004+42200-072533SAO  +0075CEF  V0201801N005112200019N0080001N9+02961+01131101691ADDGA1001+999999999MW1051
004594326599999194104192000N-23820+133900AUST +0545YBAS V0209999C000059999999N999999999+01345+99999999999ADDGA1005+999999999GF100995004999999999999999
0041722487139351941090523004+31400-092300SAO  +0034ESF  V0201351N000510150019N1600001N1+03241+02461999999ADDGA1061+999999089GA2011+999999009MW1001
0081108650999991941072318004+48183+011550FM-12+015599999V0203201N00671220001CN0200001N9+02221+01281101311ADDAA199000691AY111061GF102991021081008001001031IA1009KA1999M+02281MD1310101+9999
0043105760999991941121421004+50700+012467FM-12+009499999V0202301N01541004501CN0020001N9+99999+99999999999ADDAY161031GF108991081051004501999999MW1611
0055911700225081941071506004+21483-158050SAO  +0257PHHI V0200501N002110072019N1600001N9+02241+01851101631ADDGA1051+999999059GA2021+999999029MD1210181+9999MW1001
0110877650999991941101712004-41133-071283FM-12+085499999V0201801N00101220001CN0500001N9+00781-00061999999ADDAY101999GF100991001001999999001001IA1009KA1999M+02001KA2999N+00221MW1001EQDQ01+000042APCTENQ02+000102APC3  
0023780160136011941122315004+32367-064683SAO  +0006TXKF V0200501N004610150019N1600001N9+01801+00801102541ADDMD1810061+9999MW1001
0037105730999991941081315004+50333+012267FM-12+013799999V0202501N00261220001CN0100001N9+99999+99999999999ADDAY121031GF104991041051008001001999
0031724956232111941121511004+38067-122517SAO  +0003SRF  V0202251N002610048019N0024001N1+01571+01461101461ADDGA1081+999999079MW1451MW2611
004595677099999194109142000N-34800+138630AUST +0016YPPF V0201355N000559999999N999999999+00585+99999999999ADDGA1025+011405999GF102995024999011405999999
0031725080147401941103100004+41933-072683SAO  +0055BDL  V0209991C000010090019N0064001N1+99999+99999102161ADDGA1081+999999049MW1051MW2611
0037104090999991941082606004+51833+006267FM-12+000599999V0202301N00261220001CN0100001N9+01501+99999101031ADDAY181061GF104991041051004501001001
0051118160999991941031812004+48200+017200FM-12+013399999V0203201N00931220001CN0200001N9+00111+99999102841ADDAY101999GF101991011011008001001001MD1810161+9999
0025911665999991941110220004+21867-159450SAO  +00161Z4  V0201351N005110120019N1600001N1+02801+02351101461ADDGA1061+999999059MW1001
0072838130999991941010712004-24783-050000FM-12+099799999V0200501N002619999999N9999999N9+02281+99999101431ADDAA124009091GF106991999999999999999999KA1999M+02281KA2999N+01721MW1111
0043123110999991941010315004+52433+015550FM-12+001499999V0203601N01901012301CN0002001N9+99999+99999999999ADDAY131999GF108991081051012501001999MW1391
0037125230999991941111512004+50850+016483FM-12+007599999V0201601N00931220001CN0200001N9+99999+99999999999ADDAY101999GF102991001001999999041999
0068100190999991941010206004+54917+008350FM-12+000599999V0200501N01541220001CN0200001N9-00891+99999102021ADDAA199000691AY171999GF101991011051004501001001IA1159MD1310241+9999
0051118160999991941122121004+48200+017200FM-12+013399999V0209991C00001220001CN0100001N9-00391+99999103171ADDAY101999GF100991001001999999001001MD1310061+9999
0043855410999991941102017004-32817-070083FM-12+385099999V0202301N00461220001CN0500001N9+00281+99999999999ADDAY101999GF100991001999999999999999MW1001
0055725115147111941021518004+40200-076767SAO  +0097MDT  V0203151N009812200019N1600001N1+00351-00311101051ADDGA1021+010509059GA2041+999999039MD1610061+9999MW1001
0031723650230501941092914004+35050-106667SAO  +1620ABQ  V0200901N004610075019N0032001N9+99999+99999999999ADDGA1081+999999079MW1451MW2611
0043104910999991941010906004+51583+014133FM-12+003699999V0203601N00461004501CN0040001N9+99999+99999999999ADDAY171061GF108991081051004501999999MW1221
0043846910999991941022413004-13750-076233FM-12+000699999V0209991C00001220001CN0500001N9+02281+99999100651ADDAY121999GF104991001999999999999999MW1021
0037125760999991941071209004+50017+022683FM-12+021099999V0201401N00671220001CN0200001N9+99999+99999999999ADDAY101999GF101991001001999999011999
0057104260999991941030200004+51700+008750FM-12+005799999V0201801N00931220001CN0040001N9+00721+99999101431ADDAY121061GF102991999001999999041001MD1990161+9999MW1051
0076105170999991941030506004+50767+007167FM-12+001899999V0202501N00671030001CN0100001N9+00391+99999099771ADDAY121061GF107991041061004501021999IA1089KA1999N+00391MD1310121+9999MW1051
0128724050137431941100403005+38850-077033SAO  +002099999V02020359008852200049N012800599+02505+01785101635ADDMA1999999101395EQDN01 00000JPWTH 1QNNG11U1 99999K11 1 00064L11 1 00800M11 1 29940N11 1 00000Q11 1 10163S11 1 00077W11 1 56017
0039703610253391941120821004+59517-139667SAO  +0009CYAK V0200901N002110135019N1600001N1-00311-00591101081ADDGA1999+999999009MD1210201+9999MW1001
0025722436129061941111718004+29600-095167SAO  +0014EFD  V0201801N004610105019N1600001N9+02461+01521101631ADDGA1061+999999089MW1001
0041722485139441941080214004+32500-093683SAO  +0053BAD  V0202901N002612200019N1600001N9+02851+02301101731ADDGA1021+999999049GA2051+999999029MW1001
0134724050137431941072607005+38850-077033SAO  +002099999V02022559002652200049N009600599+02445+02065101255ADDMA1999999101025MW1045EQDN01 08000JPWTH 1QNNG11U1 99999K11 1 00069L11 1 00600M11 1 29830N11 1 08000Q11 1 10125S11 1 00076W11 1 66005
0058785140999991941011415004+18500-067133SAO  +0075TJBQ V0200901N008212200019N1600001N1+02571+01741101901ADDGA1031+009009089MD1410001+9999MW1001EQDQ01+000082APCTEN
0057106370999991941110412004+50050+008600FM-12+003499999V0200501N00461220001CN0040001N9+00221-00171102101ADDAY101061GF100991001001999999001001MD1990081+9999MW1051
0043104330999991941120306004+51400+008567FM-12+013799999V0202301N00671004501CN0040001N9+99999+99999999999ADDAY121061GF108991081051004501999999MW1051
0009724567139211941030509004+39367-094917SAO  +0238FLV  V0203151N001012200019N0128001N1-00761-01031102911ADDMW1001
0009727855241141941030123004+47617-117650SAO  +0741SKA  V0202501N005110150019N1600001N9+01071+00581099831ADDMW1801
0051104660999991941101612004+51483+011933FM-12+002499999V0202301N00671030001CN0200001N9+01111+00501101841ADDAY121061GF108991011011012501071071MD1810161+9999
0041722436129061941100917004+29600-095167SAO  +0014EFD  V0202001N001512200019N1600001N9+03071+02411101801ADDGA1021+007509089GA2021+999999039MW1001
0045040300999991941111218004+64133-021900SAO  +0061BIRK V0201131N007212200019N0080001N1+00581+00351098861ADDGA1041+007509099MD1110041+9999MW1451MW2801
0051108560999991941051115004+48183+010867FM-12+016899999V0203601N00931036001CN0100001N9+00611-00171101951ADDAY111031GF107991041081004501061021MD1210061+9999
0009727855241141941083100004+47617-117650SAO  +0741SKA  V0202301N005112200019N1600001N9+02071+00691101491ADDMW1001
0051104730999991941050400004+51350+011967FM-12+003399999V0203401N01231220001CN0100001N9+00501-00281101671ADDAY121061GF108991001001999999021999MD1710141+9999
0025723550139451941061014004+34650-098383SAO  +0360FSI  V0201401N005110018019N0112001N9+01911+01911100951ADDGA1081+999999079MW1611
0057106090999991941100509004+49750+006667FM-12+008199999V0200501N00261000151CN0000501N9+01111+99999102751ADDAY141031GF109991091999000251999999MD1210181+9999MW1451
0037102890999991941040515004+53317+013867FM-12+000899999V0200501N00931220001CN0100001N9+99999+99999999999ADDAY121999GF108991001001999999071999
0025785201999991941121722004+18017-066567SAO  +0009TJPS V0200901N002112200019N1600001N1+02631+02071101491ADDGA1021+010509089MW1001
0023727855241141941062121004+47617-117650SAO  +0741SKA  V0200501N007712200019N1600001N9+02741+00461101321ADDMD1710201+9999MW1001
0041702720999991941061213004+61200-149767SAO  +0055PAED V0203201N003610180019N1600001N9+01071+00461100781ADDGA1051+999999059GA2031+999999049MW1001
0019742060242071941081023004+47150-122483SAO  +0086TCM  V0203201N002612200019N1600001N9+02681+01131101591ADDGA1061+999999009
0025724338138021941050505004+38550-089983SAO  +0134BLV  V0201801N005112200019N1600001N9+01851+01411101321ADDGA1001+999999999MW1001
0057103280999991941082503004+51950+008917FM-12+005899999V0202901N00101002401CN0040001N9+01221+99999101891ADDAY121999GF108991071051002501999999MD1310021+9999MW1051
0070101730999991941050918004+54267+012417FM-12+000199999V0201101N00671220001CN0200001N9+00721-00111102231ADDAY111999GF104991041031008001001051IA1009KA1999M+00781MD1810021+9999
0051011470999991941102515004+65600+014000FM-12+022299999V0203401N00101002401CN0100001N9+00391+99999101221ADDAY121999GF106991061051002501001001MD1810101+9999
0041788071999991941022816004+08967-079550SAO  +0012MBLB V0203381N006210105019N0128001N1+03131+02181101191ADDGA1061+999999059GA2021+999999009MW1001
0039040300999991941112100004+64133-021900SAO  +0061BIRK V0200901N011310105019N1600001N1+00801+00241097601ADDGA1061+999999059MD1710501+9999MW1001
0041722485139441941090901004+32500-093683SAO  +0053BAD  V0201601N003612200019N1600001N9+02631+02241101251ADDGA1031+999999049GA2031+999999029MW1001
0057126000999991941080103004+49800+019000FM-12+037599999V0202701N00261007801CN0040001N9+01221+01111101201ADDAY121999GF108991061051008001071999MD1310041+9999MW1051
0043122080999991941030209004+53900+015450FM-12+001299999V0201801N00931007801CN0100001N9+99999+99999999999ADDAY181999GF108991061051008001021999MW1251
0076105760999991941041806004+50700+012467FM-12+009499999V0200501N00261220001CN0020001N9+00501-00111101471ADDAY101061GF100991001001999999001001IA1089KA1999N-00111MD1310061+9999MW1051
0057726810241311941082318004+43567-116217SAO  +0874BOI  V0202931N004612200019N1600001N1+02351+01301101291ADDGA1999+027009999GA2021+999999039GA3061+999999019MW1001
0041788071999991941081616004+08967-079550SAO  +0012MBLB V0203151N001010360019N1600001N1+02741+02351101121ADDGA1021+006009089GA2061+999999049MW1001
0057070900999991941052803004+49083+006133FM-12+019099999V0209991C00001036001CN0040001N9+00891+99999100751ADDAY121999GF107991041051012501021001MD1810061+9999MW1051
0023749105999991941123003004+40733-073600SAO  +003899999V0203601N010812200019N1600001N1-00371-00811102541ADDMD1210141+9999MW1001
0039722535129091941033109004+29383-098567SAO  +0207SKF  V0202701N001512200019N0000001N9+01191+01191101081ADDGA1001+999999999MD1710061+9999MW1111
0081265100999991941021206004+55150+020867FM-12+000199999V0202901N00671007801CN0100001N9+00001-00221100641ADDAA199002091AY121999GF108991081051008001999999IA1319KA1999N-00111MD1310041+9999
0057105490999991941121312004+50850+010467FM-12+027999999V0202701N022619999999N9999999N9+00001+00001100551ADDAY181061GF108991999051000751999999MD1110141+9999MW1281
0057124650999991941052606004+51717+019400FM-12+017699999V0201401N00261220001CN0100001N9+01611+01171101111ADDAY101999GF101991001001999999051021MD1310021+9999MW1051
0029719531999991941111309004+60133-128783FM-12+068599999V02099999999999999999N9999999N9+99999+99999999999ADDKA1999M-00611KA2999N-01781
