0028749231999991942102411004+60350-172700SAO  +002999999V0203151N003610060019N0064001N1+00131+99999101291ADDMW1711EQDQ01+027722ATOD  
0025723650230501942031716004+35050-106667SAO  +1620ABQ  V0203601N004612200019N1600001N9+00331-00941999999ADDGA1001+999999999MW1001
0041656600999991942090816004+06250-010350SAO  +0018GLRB V0202031N006210045019N0128001N1+02741+02411101221ADDGA1061+999999089GA2011+999999039MW1001
0009726625240061942012604004+44133-103100SAO  +0979RCA  V0203601N005712200019N1600001N9+00351-00531100981ADDMW1001
0039704820256261942120705004+52950-168850SAO  +0021IKO  V0200681N007212200019N0160001N1+00191+00131100371ADDGA1999+003009999MD1110041+9999MW1001
004594753099999194209231100N-33600+150780AUST +0021YSRI V0202485N009859999999N999999999+01115+99999999999ADDGA1025+012005999GF103995024999012005999999
013999999913739194209020000E+39883-075233SAO  +000899999V02027059003652200049N011200599+02395+01505101965ADDAA101000095MA1999999101865EQDN01 00000JPWTH 1QNNG11U1 99999K11 1 00059L11 1 00700M11 1 30080N11 1 00000Q11 1 10196S11 1 00075W11 1 77007
0025722140938051942071202004+30433-084333SAO  +0021TLH  V0201351N001512200019N1600001N1+02521+02301102031ADDGA1021+999999029MW1001
0057106550999991942022512004+49800+009967FM-12+008199999V0200201N00671004501CN0020001N9+00111-00111100461ADDAY121061GF108991081051004501999999MD1210061+9999MW1051
0041723840231551942020209004+35433-119050SAO  +0130BFL  V0209999C000010210019N1600001N1+01301+01071999999ADDGA1021+015001041GA2061+999999041MW1611
0076124150999991942030603004+51200+016083FM-12+003899999V0200701N00931002401CN0040001N9-01111-01281102381ADDAY171999GF108991999051002501011999MD1310141+9999MW1221EQDQ01+000082SCOTLC
0025722175138601942103005004+32633-083600SAO  +0090WRB  V0200201N001512200019N1600001N9+01461+00911102511ADDGA1001+999999999MW1001
0025619020999991942092623004-07967-014400SAO  +0086FHAW V0201401N006712200019N1600001N9+02241+01911101271ADDGA1021+007509089MW1001
0039722356139391942093021004+33483-090983SAO  +0040GLH  V0201351N003612200019N1600001N1+02571+00961102101ADDGA1021+999999019MD1710181+9999MW1001
0025725080147401942050101004+41933-072683SAO  +0055BDL  V0202931N002112200019N1600001N1+02351+01191101591ADDGA1041+999999039MW1001
0057111570999991942121912004+47533+014150FM-12+064099999V0201401N00101012301CN0040001N9+00281+99999101511ADDAY121061GF108991061051012501021999MD1990061+9999MW1511
0041725755241011942062901004+41117-111967SAO  +1459HIF  V0202001N001512200019N1600001N9+02131+00581102201ADDGA1001+999999999GA2001+999999999MW1001
0025749142999991942083019004+67100-062350SAO  +004099999V0203601N008210240019N1600001N1+00911+00301099021ADDGA1081+999999039MW1001
013999999913739194203270100E+39883-075233SAO  +000899999V02015859005252200049N011200599+00785+00005102445ADDAA101000095MA1999999102345EQDN01 00000JPWTH 1QNNG11U1 99999K11 1 00032L11 1 00700M11 1 30220N11 1 00000Q11 1 10244S11 1 00046W11 1 54010
0039749081999991942082621004+33467-082033SAO  +0134DNL  V0200451N003612200019N1600001N1+02571+01071102241ADDGA1041+018009039MD1710201+9999MW1001
005194999900265194211012300N-34630+148050AUST +0338     V0201355N003159999999N999999999+01565+99999999999ADDGA1065+006005999GF108995064999006005999999MW1615
005272205112841194209040800D+28550-081333SAO  +0034ORL  V0201351N001510450019N0112001N1+02301+02301101391ADDAA101000095GA1011+003009059GA2061+999999049MW1001
0009719450999991942040710004+58833-122583SAO  +0382CYYE V0203601N003610018019N0080001N1-01311-01921103181ADDMW1711
0074266970999991942031118004+54617+019883FM-12+000699999V0202301N00261004501CN0010001N9+00001-00221100441ADDAA199001091AY181999GF108991081051004501999999IA1319MD1610121+9999MW1861
0037105480999991942060612004+50550+010367FM-12+013999999V0203401N00261220001CN0200001N9+99999+99999999999ADDAY101061GF100991001001999999001999
0071788078999991942061621004+08383-080133SAO  +0031MPRH V0201351N004612200019N1600001N1+02961+02351100911ADDGA1021+009009059GA2021+999999039GA3021+999999009MD1710321+9999MW1001
0051103520999991942052415004+52533+013017FM-12+001399999V0202701N004619999999N0200001N9+01281+00831101311ADDAY191999GF108991041071008001999999MD1210301+9999
0039722175138601942112515004+32633-083600SAO  +0090WRB  V0202301N003612200019N1600001N9+01131+00411101351ADDGA1001+999999999MD1310101+9999MW1001
0025723408138141942101818004+35967-089867SAO  +0080BYH  V0201101N003112200019N0096001N9+02411+00961101801ADDGA1051+999999009MW1051
004594653099999194202011900N-32130+133720AUST +0017YPCD V0201355N004659999999N999999999+01675+99999999999ADDGA1005+999999999GF100995004999999999999999
0041786470999991942102112004+13917-090817SAO  +0002MGSJ V0209991C000012200019N1600001N1+02351+99999101151ADDGA1011+018009059GA2061+999999009MW1001
0025723825231311942062713004+34583-117383SAO  +0875VCV  V0202701N006712200019N1600001N9+01571+00241101461ADDGA1021+999999029MW1001
0025724235138101942072021004+38233-085667SAO  +0167LOU  V0203601N003610075019N0096001N1+02461+02241101591ADDGA1061+999999059MW1801
0029710435999991942082100004+66250-128633FM-12+006599999V0202701N002119999999N0040001N9+01501+00891101121ADDGF107991041999999999999999
0051118160999991942101221004+48200+017200FM-12+013399999V0209991C00001220001CN0200001N9+00391+99999102631ADDAY101999GF100991001001999999001001MD1210041+9999
0039722436129061942120809004+29600-095167SAO  +0014EFD  V0203601N003110042019N0096001N9+00461+00191102471ADDGA1081+999999079MD1210061+9999MW1051
0037122730999991942062309004+52883+020633FM-12+003699999V0203201N00671220001CN0200001N9+99999+99999999999ADDAY101999GF100991001001999999001999
0023725690240891942060718004+42917-106467SAO  +1612CPR  V0201131N008712200019N1600001N1+01911+01071100881ADDMD1710121+9999MW1001
0051103160999991942041612004+53183+008017FM-12+000399999V0200701N00261220001CN0200001N9+01281+99999103061ADDAY101999GF101991001001999999001011MD1990061+9999
0057042310999991942021401004+66967-050917SAO  +0047BGSF V0209991C000012200019N1600001N1-02921-03811101121ADDGA1001+999999999GA2001+999999999GA3001+999999999MW1001
0051124010999991942051103004+51650+015150FM-12+014499999V0201101N00261007801CN0100001N9+01001+00391101241ADDAY121999GF106991061051008001001001MD1710061+9999
0043114550999991942082906004+49383+013300FM-12+039799999V0209991C00001220001CN0040001N9+99999+99999999999ADDAY141999GF100991001001999999001999MW1051
0025788610999991942122301004+17117-061783SAO  +0010TAPA V0201131N009812200019N1600001N1+02571+02021101731ADDGA1031+006009089MW1001
003672253612911194212161700D+29533-098283SAO  +0226RND  V0203601N004112200019N1600001N9+01411+00241102841ADDAA101000095GA1001+999999999MW1001
0057108600999991942051312004+48717+011517FM-12+011199999V0200701N00101036001CN0200001N9+01721+01061100181ADDAY161061GF108991041081008001071999MD1710021+9999MW1211
0025723965932091942040208004+35667-120633SAO  +0255PRB  V0203381N000512200019N0240001N1+00851+00521101931ADDGA1021+999999029MW1001
0055943560999991942120606004-20067+146250SAO  +031399999V0203601N001510330019N1600001N1+02801+01911100911ADDGA1031+009009059GA2051+999999049MD1510101+9999MW1611
0057749029999991942111513004+09183-079567SAO  +011399999V0209991C000010360019N1600001N1+02521+02351100951ADDGA1021+003909079GA2021+999999039GA3031+999999029MW1001
0087107450999991942031806004+49117+009800FM-12+011999999V0202301N00671015001CN0200001N9+00721+00611100871ADDAA199001091AY161061GF108991061051017501071999IA1159KA1999N+00391MD1210021+9999MW1611
0025619020999991942091118004-07967-014400SAO  +0086FHAW V0201401N006210105019N1600001N9+02351+01911999999ADDGA1061+006009059MW1001
0041917000999991942091101004-02767-171717SAO  +0003PCIS V0200681N004610300019N1600001N1+02911+02301101001ADDGA1031+009009089GA2021+999999039MW1001
0087333930999991942041518004+49817+023950FM-12+033099999V0203401N00461002401CN0040001N9+00221+00001102151ADDAA199000691AY121999GF108991081051002501999999IA1089KA1999M+00281MD1710021+9999MW1051
0046719531999991942063009004+60133-128783FM-12+068599999V02099999999999999999N9999999N9+99999+99999999999ADDAJ100009199999999KA1999M+02501KA2999N+00561
0057102800999991942060503004+53600+013300FM-12+002199999V0202701N00461220001CN0040001N9+01281+01171102551ADDAY111999GF104991001001999999041041MD1710081+9999MW1051
0041725755241011942050507004+41117-111967SAO  +1459HIF  V0202001N001010105019N1600001N9+00411+00351102131ADDGA1061+999999059GA2011+999999049MW1801
0039723535999991942031715004+36333-097833SAO  +0390END  V0202901N003110105019N1600001N9+00521+00081101551ADDGA1081+999999039MD1210261+9999MW1001
0041722486139421942100203004+32517-092050SAO  +0025MLU  V0203601N001510210019N1600001N1+02021+01851999999ADDGA1021+999999059GA2061+999999039MW1001
004594999900114194210081900N-34420+138500AUST +0044     V0203155N002659999999N999999999+00845+99999999999ADDGA1035+009005999GF103995034999009005999999
0009726835242301942072519004+44250-121150SAO  +0938RDM  V0200681N001512200019N1600001N1+03021+00351999999ADDMW1001
0025745700138401942011202004+39833-084050SAO  +0254FFO  V0201801N005712200019N0112001N9-00591-01031102641ADDGA1061+999999029MW1001
0025745700138401942041518004+39833-084050SAO  +0254FFO  V0202701N005110150019N0112001N9+02411+00851102271ADDGA1061+999999089MW1051
0041911700225081942032610004+21483-158050SAO  +0257PHHI V0203201N002112200019N1600001N9+01801+01521101661ADDGA1021+008409089GA2011+999999039MW1001
0071785201999991942060103004+18017-066567SAO  +0009TJPS V0200451N001512200019N1600001N1+02461+01851101561ADDGA1011+013509059GA2021+999999039GA3051+999999029MD1210041+9999MW1001
0025723406999991942120503004+36133-090933SAO  +0084ARG  V0200681N001510180019N1600001N1+00131-00151999999ADDGA1081+999999039MW1001
0009702220999991942123004004+64733-156933SAO  +0049GAL  V0209991C000012200019N1600001N1-03371-03701999999ADDMW1001
0025722700230441942020916004+31800-106400SAO  +1194ELP  V0203381N001510150019N1600001N1+00801+00301101691ADDGA1051+999999059MW1001
0009702615999991942061905004+64850-147583SAO  +0148FBK  V0202701N003110090019N0800001N1+02131+01021101931ADDMW1001
0076108640999991942082418004+48067+011650FM-12+016799999V0203601N00101007801CN0100001N9+01781+01561101601ADDAY121061GF108991081051008001999999IA1009KA1999M+01891MD1510021+9999MW1051
0025725038147141942090415004+41500-074100SAO  +0150SWF  V0203151N001510030019N0064001N1+01691+01521101521ADDGA1081+999999059MW1451
0025727846241601942110612004+46100-118283SAO  +0367ALW  V0200901N003110210019N0240001N1+00461+00131999999ADDGA1061+999999039MW1001
0042724920232371942112209004+37900-121250SAO  +0008SCK  V0202701N002112200019N1600001N1+00521+00411102741ADDMD1810071+9999MW1001EQDQ01+000002APC3  
0076103830999991942101609004+52433+013517FM-12+001199999V0202001N00931012301CN0100001N9+01111+00671101461ADDAY121999GF108991081051012501999999MD1410001+9999MW1051EQDQ01+000032APCTEN
0009749055999991942101004004+26400-098350SAO  +00627R7  V0200451N002112200019N1600001N1+02181+02021102131ADDMW1001
0025785201999991942011820004+18017-066567SAO  +0009TJPS V0200901N007212200019N1600001N1+02801+01961101661ADDGA1021+012009089MW1001
0025749444999991942121317004-10317+150333SAO  +002799999V0209991C000010090019N1600001N1+02521+02461100681ADDGA1061+999999059MW1001
0025783550999991942082802004+21400-077917SAO  +0122MUCM V0200901N001510420019N0112001N1+02351+02301101361ADDGA1061+999999049MW1001
0043105790999991942040412004+50617+013467FM-12+018899999V0202701N00101004501CN0040001N9+99999+99999999999ADDAY121061GF108991081051004501999999MW1051
0025722785231111942030823004+33533-112367SAO  +0333LUF  V0200201N001512200019N1600001N9+02351-01151102301ADDGA1031+999999009MW1001
0025726810241311942010217004+43567-116217SAO  +0874BOI  V0201581N003610180019N1600001N1-01031-01421102811ADDGA1081+999999049MW1001
0025723140138811942092011004+35217-080933SAO  +0234CLT  V0203151N001012200019N0112001N1+02181+01961101121ADDGA1011+999999009MW1001
0009703610253391942082006004+59517-139667SAO  +0009CYAK V0203151N001012200019N1600001N1+01191+00911101291ADDMW1001
0025722110128421942082117004+27967-082533SAO  +0003TPA  V0201131N003610120019N1600001N1+03291+02181101831ADDGA1061+999999089MW1001
0029718760999991942111407004+52683-108333FM-12+049499999V02099999999999999999N9999999N9+99999+99999999999ADDKA1999M+00891KA2999N+00111
0051749007999991942052105004+53800-000750SAO  +0004EGCS V0200231N002110120019N0192001N1+99999+99999999999ADDGA1051+012009999GF108991999999999999999999MW1001
004594926099999194207191700N-35320+149200AUST +0577YSCB V0203155N004659999999N999999999+00365+99999999999ADDGA1025+013505999GF102995024999013505999999
0025726810241311942112620004+43567-116217SAO  +0874BOI  V0201351N006210030019N0020001N1+00081-00041101491ADDGA1081+999999059MW1711
0041749027999991942052423004+08850-079783SAO  +009499999V0202251N001010210019N1600001N1+99999+99999999999ADDGA1021+004509089GA2061+999999049MW1001
0037124260999991942042515004+51300+017717FM-12+005199999V0203201N00261220001CN0040001N9+99999+99999999999ADDAY111999GF101991011011017501001999
0041785145999991942110617004+18267-067150SAO  +0009TJMZ V0202251N003610120019N1600001N1+02851+02411999999ADDGA1061+999999089GA2021+999999049MW1001
0023704851999991942081709004+53367-167900SAO  +0039UNS  V0202701N005110075019N0192001N1+01071+00801100751ADDMD1210221+9999MW1001
0009943350999991942102205004-20717+140517SAO  +019099999V0201581N008712200019N1600001N1+02681+01351101051ADDMW1001
0057107450999991942081503004+49117+009800FM-12+011999999V0203201N00101012301CN0040001N9+01001+00941102101ADDAY111031GF106991061051012501001001MD1410001+9999MW1051
0037105790999991942011718004+50617+013467FM-12+018899999V0203201N00101220001CN0040001N9+99999+99999999999ADDAY101061GF100991001001999999001999
0057106530999991942060921004+49650+009967FM-12+008599999V0202901N00101220001CN0100001N9+01281+00831101561ADDAY111031GF104991011041008001001081MD1210141+9999MW1051
004594403099999194212141500N-28800+114700AUST +0034YPGN V0209999C000059999999N999999999+02185+01905999999ADDGA1005+999999999GF101995004999999999999999
0025747686138201942093004004+30400-088917SAO  +0009BIX  V0200501N003610126019N1600001N9+01911+01461102371ADDGA1081+999999059MW1001
0048719181999991942081023004+73000-085300FM-12+001199999V0203401N004619999999N0500001N9+00561+00171101081ADDGF106991999011999999051091EQDQ01+000002SCOTLC
0067749007999991942061405004+53800-000750SAO  +0004EGCS V0203601N001010060019N0064001N1+99999+99999999999ADDGA1011+004509999GA2071+006009999GF108991999999999999999999MW1051
0041040180162011942122805004+63967-022600SAO  +0050BIKF V0200231N004610075019N1600001N1+99999+99999100611ADDGA1051+999999089GA2021+999999029MW1001
0037104500999991942032712004+51367+011100FM-12+004399999V0201401N00261220001CN0020001N9+99999+99999999999ADDAY121061GF104991001001999999041999
0025722170038131942040802004+32700-083650SAO  +0111MCN  V0202031N003112200019N1600001N1+02351+01461101801ADDGA1031+024009039MW1001
0057102890999991942020312004+53317+013867FM-12+000899999V0201801N00101001501CN0010001N9-00721-00721102401ADDAY171999GF108991081051001501999999MD1810041+9999MW1221
0070104910999991942061818004+51583+014133FM-12+003699999V0202701N00931220001CN0100001N9+01891+00671101241ADDAY121061GF104991041081008001001001IA1009KA1999M+02001MD1610061+9999
0041911681999991942112123004+21583-158200SAO  +000599999V0200681N001510360019N1600001N1+02961+02021999999ADDGA1021+012009089GA2021+999999039MW1001
0009722806999991942110606004+32450-112867SAO  +0444P01  V0201351N001512200019N0400001N1+01461+00851999999ADDMW1001
0039749142999991942082909004+67100-062350SAO  +004099999V0200901N002612200019N1600001N1+00461+00081101051ADDGA1021+999999009MD1210081+9999MW1001
0025722745231091942042402004+32183-110917SAO  +0782DMA  V0201401N002612200019N1600001N9+00691+00521100781ADDGA1031+999999059MW1001
002072256013959194206040400D+31617-097217SAO  +0155ACT  V0202031N002112200019N1600001N1+02681+01851999999ADDAA101000095MW1001
0025722138138351942082505004+31083-083800SAO  +0090MGR  V0202701N001012200019N1600001N1+02351+02241101731ADDGA1021+999999039MW1001
0041788078999991942032622004+08383-080133SAO  +0031MPRH V0203601N005112200019N1600001N1+03181+02241100611ADDGA1031+010509059GA2051+999999029MW1001
0039747810999991942102909004+30967-083200SAO  +0072VAD  V0200501N005110060019N1600001N9+01571+01191102341ADDGA1061+999999059MD1310041+9999MW1001
0055788610999991942102806004+17117-061783SAO  +0010TAPA V0201131N004610450019N1600001N1+02681+02351101081ADDGA1021+006009089GA2061+999999049MD1810041+9999MW1001
0233999999149361942071605005+44383-098217SAO  +039599999V02009059002652200049N012800599+02505+02335100585ADDGA1999+000004999GD19999+9999999GD29999+9999999GD39999+9999999MA1999999096075EQDN01 00000JPWTH 1QNNE11 1 09999E11 1 09999E11 1 09999G11U1 99999H11 1 99000K11 1 00074L11 1 00800M11 1 28370N11 1 00000Q11 1 10058S11 1 00077W11 1 33005
0009724380938191942120504004+39733-086267SAO  +0246IND  V0202251N003612200019N0096001N1-00761-00981102341ADDMW1051
0045691174999991942102612004+39833-076117SAO  +0002KQAH V0201581N005710012019N0040001N1+01521+01351100781ADDGA1081+999999079MD1710201+9999MW1051MW2611
004594326599999194211110400N-23820+133900AUST +0545YBAS V0201355N002659999999N999999999+03255+99999999999ADDGA1005+999999999GF100995004999999999999999
0078125950999991942010612004+50700+023217FM-12+022599999V0202901N00671004501CN0010001N9+00001+00001100961ADDAY171999GF108991081051004501999999MW1731EQDQ01+000022APCTENQ02+000002APC3  
0055749105999991942031509004+40733-073600SAO  +003899999V0200231N004610033019N1600001N1+00131+00021101491ADDGA1051+999999059GA2021+999999049MD1710081+9999MW1001
0025722165138151942070717004+31583-084117SAO  +0065TRF  V0202481N004110240019N1600001N1+03021+02241102001ADDGA1081+999999049MW1001
0039726226999991942030903004+44050-075717SAO  +0210GTB  V0201351N008210120019N0112001N1+00961+00411099801ADDGA1081+999999059MD1610301+9999MW1611
0023722687930331942102412004+32333-104267SAO  +1004CNM  V0201351N001512200019N1600001N1+00741+00411999999ADDMD1310141+9999MW1001
0051749007999991942042404004+53800-000750SAO  +0004EGCS V0200451N004610084019N0192001N1+99999+99999999999ADDGA1071+008409999GF108991999999999999999999MW1001
0025745700138401942110504004+39833-084050SAO  +0254FFO  V0201401N004610480019N0112001N9+00741-00041102511ADDGA1081+999999009MW1001
0051122070999991942061015004+53317+015000FM-12+000999999V0202701N00261030001CN0200001N9+01611+00441101171ADDAY121999GF107991041081008001021999MD1710081+9999
0043103030999991942032306004+52867+007317FM-12+000499999V0200501N00261220001CN0020001N9+99999+99999999999ADDAY101999GF100991001001999999001999MW1051
0039702615999991942062400004+64850-147583SAO  +0148FBK  V0202031N002112200019N0640001N1+02911+00801101521ADDGA1999+010509999MD1710161+9999MW1001
0025722266138501942030605004+32350-086983SAO  +0054SEM  V0202931N002610150019N0096001N1+00741+00691101151ADDGA1081+999999059MW1051
0055783550999991942081712004+21400-077917SAO  +0122MUCM V0201351N005110120019N0096001N1+02411+02241101581ADDGA1061+999999059GA2021+999999049MD1110161+9999MW1051
0025727130146041942031107004+46683-068050SAO  +0146PQI  V0202481N003610150019N0128001N1-00981-01481100001ADDGA1081+009009059MW1001
0009749067999991942052914004+39950-079650SAO  +03832G3  V0200901N004612200019N0064001N1+02411+01571999999ADDMW1051
0025744910147031942021819004+42200-072533SAO  +0075CEF  V0203601N001012200019N1600001N9+00521-00811101391ADDGA1001+999999999MW1001
0025725080147401942092602004+41933-072683SAO  +0055BDL  V0203381N002112200019N1600001N1+01021+00691102571ADDGA1021+999999009MW1001
0023724970999991942091315004+39783-121850SAO  +0069CIC  V0202701N001012200019N0240001N1+01961+00741101391ADDMD1210141+9999MW1001
0041727937999991942022817004+47917-122283SAO  +0187PAE  V0201581N006710210019N0160001N1+00691+00301999999ADDGA1021+009009059GA2061+999999049MW1001
0039722650999991942061021004+31933-102200SAO  +0871MAF  V0203381N003612200019N1600001N1+03461+01351100171ADDGA1021+018001081MD1810201+9999MW1001
0009702615999991942070917004+64850-147583SAO  +0148FBK  V0200901N000510210019N0480001N1+01021+00911101391ADDMW1001
0039745980137021942022821004+37083-076350SAO  +0002LFI  V0202901N009310150019N1600001N9+00741-00371101251ADDGA1061+999999089MD1310061+9999MW1001
0025724235138101942021016004+38233-085667SAO  +0167LOU  V0202481N005110030019N0016001N1+00191+00131102001ADDGA1081+999999079MW1451
0043106850999991942110515004+50300+011867FM-12+017399999V0201401N00261004501CN0040001N9+99999+99999999999ADDAY121031GF108991061051004501021999MW1051
0041747810999991942070217004+30967-083200SAO  +0072VAD  V0201801N003610360019N0128001N9+02631+02351101491ADDGA1021+003009059GA2061+999999049MW1001
0025725810241931942112907004+40733-114033SAO  +1292ENV  V0200451N001012200019N0480001N1+00131-00261101631ADDGA1021+024009039MW1001
0009722170038131942012911004+32700-083650SAO  +0111MCN  V0202931N001012200019N0064001N1+00131+00081101901ADDMW1051
0057788071999991942100813004+08967-079550SAO  +0012MBLB V0202701N000512200019N1600001N1+02681+02301101191ADDGA1021+007509089GA2041+999999049GA3021+999999009MW1001
005072255012912194205170300D+28850-096917SAO  +0036VCT  V0201351N005110036019N0080001N1+02301+02301100951ADDAA101000095GA1081+999999079MD1210101+9999MW1451
003672253612911194203281600D+29533-098283SAO  +0226RND  V0201101N004112200019N1600001N9+01521-00591102641ADDAA101000095GA1011+999999009MW1001
0019724660930371942100919004+38817-104700SAO  +1881COS  V0201601N008712200019N1600001N9+02411+00191102471ADDGA1011+024009089
0041722119999991942091216004+27983-082017SAO  +0043LAL  V0200901N002112200019N1600001N1+03241+02241101381ADDGA1021+012009089GA2011+999999029MW1001
002072256013959194212190200D+31617-097217SAO  +0155ACT  V0201801N003112200019N1600001N1+01631+01131102241ADDAA101000095MW1001
0055788078999991942061006004+08383-080133SAO  +0031MPRH V0209991C000010360019N1600001N1+02411+02351101151ADDGA1021+009009059GA2021+999999049MD1810081+9999MW1001
0051106770999991942111603004+50000+011633FM-12+011399999V0202301N00261000151CN0000001N9-00221-00221102661ADDAY141031GF109991091999000251999999MD1710201+9999
004594637099999194204272130N-30780+121470AUST +0360YPKG V0202935N001559999999N999999999+01285+99999999999ADDGA1015+013505999GF102995014999013505999999
0025722586999991942090914004+33717-096667SAO  +0233PNX  V0202031N003610042019N0096001N1+02301+02181101731ADDGA1081+999999079MW1111
0076108030999991942070518004+48017+007833FM-12+007599999V0203601N00101220001CN0200001N9+03001+01671100961ADDAY121061GF104991021031012501061031IA1009KA1999M+03001MD1810141+9999MW1051
0070125950999991942060306004+50700+023217FM-12+022599999V0203401N00671220001CN0200001N9+01221+00781102931ADDAY121999GF100991001001999999001001IA1009KA1999N+01001MD1210101+9999
0057106874999991942031412004+49583+010900FM-12+010199999V0201401N00461220001CN0100001N9+00001-00501101801ADDAY121061GF106991999001999999041001MD1710021+9999MW1051
0108877900999991942092412004-40783-062967FM-12+003499999V0209991C00001220001CN0100001N9+01221+00561102001ADDAY101999GF101991999001999999031001IA1009KA1999M+02391KA2999N+01221MD1110061+9999MW1011EQDQ01+000002SCOTLC
0039702615999991942022806004+64850-147583SAO  +0148FBK  V0201581N002110300019N0960001N1-01591-01811098311ADDGA1999+015009999MD1210281+9999MW1001
005072221013858194204251500D+30483-086517SAO  +0025VPS  V0201601N003612200019N1600001N9+02351+01691102131ADDAA101000095GA1051+999999009MD1210121+9999MW1001
0025722630999991942031813004+31367-100500SAO  +0585SJT  V0209999C000012200019N1600001N1+00301-00091101831ADDGA1051+999999021MW1001
0055042310999991942012121004+66967-050917SAO  +0047BGSF V0209991C000012200019N1600001N1-02871-03371098751ADDGA1011+999999039GA2021+999999009MD1410001+9999MW1001
0025724920232371942011901004+37900-121250SAO  +0008SCK  V0209991C000012200019N0112001N1+01131+00691102201ADDGA1081+999999029MW1001
0089878520999991942101412004-46533-068933FM-12+038099999V0202701N00461007801CN0200001N9+01281+00391101081ADDAY111999GF106991061051008001001001IA1009KA1999M+02001KA2999N+00001MD1310081+9999MW1021
0041719060999991942080923004+58083-068417SAO  +0034CYVP V0202481N002110390019N1600001N1+01131+00241100881ADDGA1031+006909059GA2051+999999049MW1001
015199999913739194201250800E+39883-075233SAO  +000899999V02009059002652200049N002400599+00225+00115101225ADDAA101000095MA1999999101125MW1045MW2455EQDN01 07080JPWTH 1QNNG11U1 99999K11 1 00034L11 1 00150M11 1 29860N11 1 07080Q11 1 10122S11 1 00036W11 1 33005
0009727846241601942092501004+46100-118283SAO  +0367ALW  V0202031N001512200019N0240001N1+02851+00521999999ADDMW1001
0025722485139441942050805004+32500-093683SAO  +0053BAD  V0209991C000012200019N1600001N9+01411+01241102001ADDGA1001+999999999MW1001
0057108680999991942051503004+48250+011550FM-12+014899999V0202701N00461002401CN0010001N9+01111+01061101211ADDAY161031GF108991081051002501999999MD1210031+9999MW1101
0057125390999991942030812004+50267+018667FM-12+007599999V0201401N00101004501CN0010001N9+00221-00331101351ADDAY121999GF108991081051004501999999MD1110061+9999MW1101
0039723530139671942070512004+35400-097600SAO  +0397OKC  V0202031N003112200019N1600001N1+02071+01961101801ADDGA1021+999999029MD1210101+9999MW1001
0031725330148271942022614004+41000-085200SAO  +0252FWA  V0202931N003610030019N0016001N1-00261-00481999999ADDGA1081+999999079MW1451MW2871
0055749081999991942092018004+33467-082033SAO  +0134DNL  V0200231N003612200019N1600001N1+03411+01911100911ADDGA1021+012009089GA2011+999999009MD1710281+9999MW1001
0009042700999991942030906004+61183-045417SAO  +0026BGBW V0200681N008712200019N1600001N1+00461-00261101711ADDMW1001
003672256013959194211271900D+31617-097217SAO  +0155ACT  V0202031N008712200019N1600001N1+01351-00531101931ADDAA101000095GA1021+999999029MW1001
0043105480999991942010806004+50550+010367FM-12+013999999V0209991C00001220001CN0020001N9+99999+99999999999ADDAY101061GF100991001001999999001999MW1051
0259999999149361942071609005+44383-098217SAO  +039599999V02009059003152200049N011200599+02335+02175100415ADDGA1999+000004999GD19999+9999999GD29999+9999999GD39999+9999999GD49999+9999999MA1999999095945EQDN01 00000JPWTH 1QNNE11 1 09999E11 1 09999E11 1 09999E11 1 09999G11U1 99999H11 1 99000K11 1 00071L11 1 00700M11 1 28330N11 1 00000Q11 1 10041S11 1 00074W11 1 33006
0057070550999991942061712004+49450+002100FM-12+010099999V0202701N00261036001CN0200001N9+01611+99999101321ADDAY121999GF107991041081008001041001MD1610061+9999MW1161
0044702000266171942092904004+64500-165433SAO  +0007OME  V0203601N001512200019N0480001N1+00581+99999099761ADDGA1999+007509999MW1001EQDQ01+028052ATOD  
0051125010999991942030606004+50950+016767FM-12+004799999V0200701N00261220001CN0100001N9-01501-01671102661ADDAY111999GF104991021051004501041021MD1310181+9999
003672205112841194212260200D+28550-081333SAO  +0034ORL  V0200681N001012200019N1600001N1+01911+01741102131ADDAA101000095GA1021+999999009MW1001
0055911840999991942080400004+21333-157717SAO  +001899999V0200681N005110084019N1600001N1+02851+02241101421ADDGA1061+999999089GA2021+999999039MD1810081+9999MW1001
0039724835232061942091421004+38417-121333SAO  +0027MHR  V0203201N003112200019N0160001N9+03411+00911100881ADDGA1011+999999009MD1710201+9999MW1001
0019911820225211942022219004+21333-157950SAO  +0011PHNL V0200701N006712200019N1600001N9+02301+01191102241ADDGA1041+010509059
0025724836232081942052004004+38650-121383SAO  +0024MCC  V0202301N001512200019N0240001N9+02681+01461101631ADDGA1051+999999009MW1001
005072253612911194204021500D+29533-098283SAO  +0226RND  V0201801N007212200019N1600001N9+01631+01131102401ADDAA101000095GA1001+999999999MD1210141+9999MW1001
0039725377148041942071512004+42617-082817SAO  +0176MTC  V0202701N001012200019N0112001N9+01851+01411102031ADDGA1001+999999999MD1210061+9999MW1001
0025722268938431942032014004+31317-085450SAO  +0122DHN  V0201351N004110300019N0096001N1+01411+00911101931ADDGA1081+999999049MW1051
0057070050999991942012706004+50133+001850FM-12+007199999V0201401N00671220001CN0010001N9-01001+99999102381ADDAY101999GF100991001001999999001999MD1990021+9999MW1101
0039717070999991942071715004+46167-060050SAO  +0062CYQY V0203151N004610120019N0240001N1+01911+01191101651ADDGA1061+999999089MD1210061+9999MW1001
0035725196147171942081819004+43233-075417SAO  +0144RME  V0201401N005112200019N0144001N9+02571+01301999999ADDGA1011+015009089GA2021+999999049
0025702615999991942012802004+64850-147583SAO  +0148FBK  V0209991C000012200019N0240001N1-02641-02921999999ADDGA1999+004509999MW1001
005072253612911194210051200D+29533-098283SAO  +0226RND  V0203601N002110036019N1600001N9+01961+01961101901ADDAA101000095GA1081+999999079MD1210161+9999MW1611
0070061600999991942032909004+55767+012317FM-12+001999999V0201601N00461220001CN0500001N9+00111+99999102931ADDAY101999GF101991001001999999001051MD1410001+9999EQDQ01+000032APCTEN
0057103870999991942110812004+52533+013117FM-12+001099999V0202901N00461004501CN0100001N9+01001+00781101541ADDAY161061GF108991061051004501999999MD1210101+9999MW1051
0128724050137431942022205005+38850-077033SAO  +002099999V02029359007252200049N012800599-00335-01565101695ADDMA1999999101465EQDN01 00000JPWTH 1QNNG11U1 99999K11 1 00004L11 1 00800M11 1 29960N11 1 00000Q11 1 10169S11 1 00026W11 1 78014
0051070590999991942012800004+49900+002333FM-12+006499999V0202701N00671220001CN0100001N9+00221+99999100531ADDAY171999GF104991041051004501001001MD1510181+9999
0051266140999991942092115004+55083+021800FM-12+000399999V0201401N00671030001CN0200001N9+01111+00671101801ADDAY121999GF107991041051012501041999MD1710141+9999
0057121020999991942022215004+54017+014767FM-12+999999999V0201401N00461220001CN0040001N9-00391-00721101011ADDAY101999GF100991001001999999001001MD1810181+9999MW1051
0041722800231951942041622004+32650-114600SAO  +0063YUM  V0201581N005712200019N1600001N1+03021+01021999999ADDGA1021+021009089GA2021+999999019MW1001
0025727850241571942102507004+47633-117533SAO  +0721GEG  V0202251N002112200019N0480001N1+00301-00811102201ADDGA1021+999999029MW1001
0025722350039401942092610004+32317-090083SAO  +0101JAN  V0201131N003110300019N1600001N1+02131+01961100911ADDGA1081+999999049MW1001
0039722350039401942121921004+32317-090083SAO  +0101JAN  V0201801N001012200019N1600001N1+02071+01021102411ADDGA1061+999999009MD1610201+9999MW1001
0000719340999991942092607004+60017-112000FM-12+020399999V02099999999999999999N9999999N9+99999+99999999999
003672253612911194206171300D+29533-098283SAO  +0226RND  V0201601N003110045019N1600001N9+02631+02301101421ADDAA101000095GA1081+999999059MW1001
0009749055999991942031009004+26400-098350SAO  +00627R7  V0201581N006212200019N1600001N1+01351+00631101641ADDMW1001
0025702615999991942041017004+64850-147583SAO  +0148FBK  V0200681N001510360019N0960001N1+00241-00151098921ADDGA1999+021009999MW1001
0041789700999991942021923004+10617-061350SAO  +0015TTPP V0200451N002112200019N1600001N1+02351+02181101221ADDGA1021+009009089GA2021+999999029MW1001
0025723273999991942101921004+36000-086500SAO  +0166MQY  V0200451N001512200019N1600001N1+02301+01071999999ADDGA1081+012009049MW1001
0025619020999991942103002004-07967-014400SAO  +0086FHAW V0201401N006710045019N1600001N9+02131+02021101211ADDGA1081+999999059MW1001
0057070640999991942080612004+49417+003883FM-12+999999999V0209991C00001007801CN0100001N9+01721+99999102571ADDAY111999GF107991071021008001001001MD1810041+9999MW1051
0055785470116241942051821004+17700-064800SAO  +0017TISX V0201131N007210540019N1600001N1+02801+02351101181ADDGA1021+009009089GA2061+999999049MD1810181+9999MW1001
0317722265138211942092900003+32383-086350SAO  +0053MXF  V02002359002652200019N1600005N9+01675+00675102175ADDGA1001+999999999GA2999+999999999GA3999+999999999GD19005+9999999GD29005+9999999GD39005+9999999GD49999+9999999MD1210141+9999EQDN01 00900CCLHT 3N02 00000JPWTH 1QNNE11 1 09900E11 1 09900E11 1 09900E11 1 09999G11 3 00900H11U1 00999H11 1 00999H11 1 00999K11 1 00044L11N1 99999N11 1 00000Q11 1 10217S11 1 00062W11 1 12005
0025747900138491942102705004+33967-080483SAO  +0072SSC  V0203601N002612200019N1600001N9+00911+00301101291ADDGA1001+999999999MW1001
0025718030999991942011309004+48950-054567SAO  +0151CYQX V0202251N010810105019N1600001N1-00481-00871100531ADDGA1081+999999059MW1711
0044710613999991942042712004+71917-094250FM-12+001599999V0203201N000519999999N0200001N9-01891-01891999999ADDGF102991001001999999001051MA1999999102641
0009723556999991942070114004+35667-095367SAO  +0186MKO  V0203601N004612200019N0112001N1+02351+01851101961ADDMW1001
0039725396148151942121912004+42300-085250SAO  +0290BTL  V0203381N005110060019N1600001N1-01031+99999103491ADDGA1081+999999079MD1310101+9999MW1001
0043105480999991942032512004+50550+010367FM-12+013999999V0202301N00101220001CN0040001N9+99999+99999999999ADDAY101061GF100991001001999999001999MW1051
0041722266138501942030117004+32350-086983SAO  +0054SEM  V0200901N004110480019N0128001N1+01021-00151102171ADDGA1061+999999049GA2011+999999009MW1001
0041654720999991942101801004+05600-000167SAO  +0069DGAA V0202931N002612200019N0128001N1+02351+02301101181ADDGA1031+006009059GA2021+999999039MW1001
0025749025999991942091301004+08600-079917SAO  +0037MPHF V0201801N001010360019N1600001N1+02521+02461101151ADDGA1081+999999049MW1001
0009726810241311942093023004+43567-116217SAO  +0874BOI  V0203151N001512200019N0560001N1+99999+99999999999ADDMW1001
0057103130999991942011121004+52000+007733FM-12+001699999V0203601N00261220001CN0100001N9-00501+99999102431ADDAY111999GF102991021051012501001001MD1210101+9999MW1051
0009810010999991942010904004+06500-058250SAO  +0029SYGT V0202701N000512200019N1600001N1+02071+02021101391ADDMW1001
0025724338138021942072920004+38550-089983SAO  +0134BLV  V0202901N001510390019N1600001N9+03351+02301101461ADDGA1051+999999039MW1001
0037122730999991942051103004+52883+020633FM-12+003699999V0209991C00001220001CN0100001N9+99999+99999999999ADDAY101999GF100991001001999999001999
0019718160999991942053017004+53317-060433SY-SA+0044YYR  V02099999999990099019N0320001N9+00581-00091100451ADDGA1081+999999059
0037101430999991942033000004+54100+009967FM-12+000799999V0201101N00671220001CN0200001N9+99999+99999999999ADDAY121999GF107991001001999999001999
0055744910147031942051915004+42200-072533SAO  +0075CEF  V0201801N003610045019N0048001N9+01801+01411102341ADDGA1061+999999059GA2021+999999039MD1410001+9999MW1051
0037101620999991942111700004+53617+011383FM-12+001499999V0202901N00671220001CN0200001N9+99999+99999999999ADDAY121999GF102991001001999999001999
0000417800999991942110321004+24900+067133SAO  +0022OPKC V0202301N007212200019N0128001N9+03351+01411100881
0043782680999991942041322004+20367-074500FM-12+001599999V0209991C00001002401CN0005001N9+02561+99999999999ADDAY121999GF108991081999002501999999MW1031
0041722165138151942070522004+31583-084117SAO  +0065TRF  V0202481N004610360019N1600001N1+03021+02071101901ADDGA1041+009009089GA2021+999999039MW1001
0025747686138201942122423004+30400-088917SAO  +0009BIX  V0201601N002610012019N0008001N9+01741+01741101561ADDGA1081+999999079MW1451
0041789480999991942032706004+13750-060950SAO  +0003TLPL V0200901N005110210019N1600001N1+02571+02071999999ADDGA1021+007509059GA2041+999999039MW1001
0057104970999991942012803004+51283+014133FM-12+008899999V0202001N00931012301CN0040001N9-01111-01781101091ADDAY121031GF107991071051012501999999MD1810421+9999MW1051
004594999900222194206280500N-33050+151600AUST +0009     V0203385N004659999999N999999999+01865+99999999999ADDGA1025+012005999GF103995024999012005999999
0009788060999991942080202004+08917-079600SAO  +0007MPHO V0202301N003110036019N0096001N9+99999+99999999999ADDMW1801
0051108410999991942081709004+48483+008767FM-12+015199999V0203601N00101220001CN0200001N9+01891+00941102241ADDAY121031GF106991001001999999031061MD1110021+9999
0009725690240891942072304004+42917-106467SAO  +1612CPR  V0203601N007710180019N1600001N1+02801+00351101591ADDMW1001
0051107450999991942040403004+49117+009800FM-12+011999999V0202301N00261015001CN0100001N9+00391+00001100851ADDAY121031GF108991081051017501999999MD1610181+9999
0020724810232031942011512004+37333-120517SAO  +0053MER  V0209991C000010001519N0000001N9+00411+00411101151ADDAA124999999MW1451
0051133530999991942093012004+43867+018350FM-12+048899999V0203201N00101220001CN0200001N9+02391+01941102101ADDAY101999GF101991011011012501001001MD1710081+9999
0128724050137431942022819005+38850-077033SAO  +002099999V02031559008852200049N024000599+00565-00675101085ADDMA1999999100855EQDN01 00000JPWTH 1QNNG11U1 99999K11 1 00020L11 1 01500M11 1 29780N11 1 00000Q11 1 10108S11 1 00042W11 1 88017
0039718030999991942050910004+48950-054567SAO  +0151CYQX V0200451N002110051019N1600001N1+00081+00021101211ADDGA1081+999999059MD1610041+9999MW1001
0009425910999991942112808004+24750+084950SAO  +0016VEGY V0202701N004612200019N1600001N1+02631+01191101561ADDMW1001
0009726835242301942071317004+44250-121150SAO  +0938RDM  V0209991C000010210019N1600001N1+02181+00581999999ADDMW1001
0025722745231091942061915004+32183-110917SAO  +0782DMA  V0200201N001512200019N1600001N9+03241+00801100881ADDGA1001+999999999MW1001
0072125330999991942042203004+50300+016667FM-12+011399999V0203201N00101220001CN0100001N9+00611+00391101401ADDAY121999GF107991001001999999071999EQDQ01+000032APCTENQ02+000002APC3  
0076107370999991942102406004+48683+009000FM-12+013199999V0201401N00101220001CN0200001N9+01001+00781101731ADDAY111061GF104991021051012501041001IA1009KA1999N+00891MD1810161+9999MW1121
0070102130999991942062309004+52667+007933FM-12+000799999V0201601N00461220001CN0100001N9+02111+99999101971ADDAY101999GF101991999001999999041001MD1990041+9999EQDQ01+000002SCOTLC
0025749089999991942090808004+32500-085767SAO  +0076TGE  V0200681N999992200019N1600001N1+02351+99999101161ADDGA1031+999999059MW1001
0048719340999991942092100004+60017-112000FM-12+020399999V0202701N004619999999N0500001N9+00441+00171101831ADDGF102991021041999999001001EQDQ01+000992SCOLCB
004595677099999194212282200N-34800+138630AUST +0016YPPF V0201355N003159999999N999999999+01675+99999999999ADDGA1005+999999999GF100995004999999999999999
0089870650999991942010712004-24150-062883FM-12+020699999V0200501N00101220001CN0200001N9+02281+01331999999ADDAY101999GF100991001001999999001001IA1009KA1999M+03391KA2999N+01501MD1310201+9999MW1001
0057103100999991942122109004+55367+007933FM-12+001699999V0202001N006719999999N0040001N9+00721+99999102481ADDAY121999GF107991041051012501999999MD1310221+9999MW1051
0025724810232031942091921004+37333-120517SAO  +0053MER  V0203401N001512200019N0128001N9+02741+00631999999ADDGA1001+999999999MW1001
0025722487139351942082405004+31400-092300SAO  +0034ESF  V0203601N001512200019N1600001N1+02461+02351101831ADDGA1011+999999049MW1001
0041722268938431942060407004+31317-085450SAO  +0122DHN  V0200681N005110180019N0112001N1+02241+01961101461ADDGA1021+010509059GA2031+999999039MW1001
0092064740999991942042015004+49917+005367FM-12+049299999V0202701N00261004501CN0100001N9+01281+99999100971ADDAY181999GF107991071081004501999999MD1710021+9999MW1251EQDQ01+000032APCTENQ02+000002APC3  
0039722250138291942101709004+32333-085000SAO  +0071LSF  V0209991C000012200019N0064001N9+01301+01191101691ADDGA1001+999999999MD1610041+9999MW1111
0029710435999991942101909004+66250-128633FM-12+006599999V02099999999999999999N9999999N9+99999+99999999999ADDKA1999M-00501KA2999N-00941
0025724810232031942050221004+37333-120517SAO  +0053MER  V0203201N001512200019N1600001N9+01911+99999102101ADDGA1001+999999999MW1001
0043103850999991942012309004+52367+013517FM-12+001499999V0202301N00101220001CN0010001N9+99999+99999999999ADDAY111031GF102991001001999999031999MW1101
0089875850999991942012012004-34567-058467FM-12+002599999V0202501N00261000601CN0005001N9+02281+02061101281ADDAY141999GF109991091999000751999999IA1089KA1999M+03221KA2999N+01781MD1110201+9999MW1431
0025722110128421942121613004+27967-082533SAO  +0003TPA  V0201801N002612200019N1600001N1+01521+01351101291ADDGA1021+003009059MW1001
0041722485139441942060723004+32500-093683SAO  +0053BAD  V0200901N003112200019N1600001N9+02801+02181100411ADDGA1021+008709089GA2061+999999029MW1001
0110872890999991942102412004-29700-057083FM-12+006699999V0200501N00261220001CN0100001N9+01891+01221101621ADDAY101999GF100991001001999999001001IA1009KA1999M+02501KA2999N+01221MW1001EQDQ01+000032APCTENQ02+000002APC3  
0025724810232031942100405004+37333-120517SAO  +0053MER  V0203201N000512200019N1600001N9+02301+00801999999ADDGA1011+999999009MW1001
0029719460999991942080106004+61867-121350FM-12+012799999V0209991C000019999999N0500001N9+01391+99999101461ADDGF105991001999999999999999
0039726980242291942012515004+45600-122650SAO  +0012PDX  V0202031N001510090019N1600001N1+00741+00521101461ADDGA1081+999999059MD1210121+9999MW1001
0041722110128421942082813004+27967-082533SAO  +0003TPA  V0200681N005112200019N1600001N1+02741+02241101521ADDGA1021+999999049GA2011+999999029MW1001
0041725377148041942091422004+42617-082817SAO  +0176MTC  V0201801N004110360019N0064001N9+02521+02351101081ADDGA1021+999999089GA2061+999999049MW1051
0043117810999991942033015004+49600+018017FM-12+008799999V0200501N00101007801CN0040001N9+99999+99999999999ADDAY121999GF108991071051008001021999MW1051
0025724640930581942101410004+38300-104483SAO  +1416PUB  V0202701N001512200019N1600001N9+00581+00131101491ADDGA1021+999999009MW1001
0025718010999991942040112004+47617-052750SAO  +0140CYYT V0203381N002612200019N0160001N1-00371-00481102431ADDGA1021+006009059MW1001
0057121020999991942080912004+54017+014767FM-12+999999999V0201801N00261030001CN0040001N9+02221+01281101721ADDAY111999GF107991041081012501061011MD1710081+9999MW1051
0043104970999991942122503004+51283+014133FM-12+008899999V0201101N00101220001CN0010001N9+99999+99999999999ADDAY101031GF100991001001999999001999MW1051
0043122990999991942041603004+52700+016383FM-12+005499999V0203601N00101004501CN0040001N9+99999+99999999999ADDAY121999GF108991081051004501999999MW1051
0025722535129091942091819004+29383-098567SAO  +0207SKF  V0201601N008710075019N1600001N9+03351+02301101251ADDGA1051+999999089MW1001
0076106600999991942033006004+50050+010167FM-12+007399999V0203401N00101220001CN0100001N9-00221-00331101951ADDAY101061GF102991999001999999071001IA1139KA1999N-00221MD1210011+9999MW1051
0092116500999991942020812004+49617+015583FM-12+045699999V0203601N00101007801CN0040001N9-01281+99999102641ADDAY171999GF108991061051008001011999MD1710021+9999MW1221EQDQ01+000032APCTENQ02+000002APC3  
0025749076999991942102103004+38833-085417SAO  +0268MDN  V0201581N003612200019N0112001N1+01411+00961100981ADDGA1021+021009039MW1001
0025719060999991942051504004+58083-068417SAO  +0034CYVP V0200451N006210024019N0048001N1-00151-00261100881ADDGA1081+999999079MW1561
0039703160256241942062216004+55200-162717SAO  +0031CDB  V0201131N010810054019N0112001N1+00851+00691101391ADDGA1081+999999059MD1710241+9999MW1611
0076121500999991942040906004+54383+018600FM-12+000599999V0202301N00671030001CN0040001N9+00281+00171101011ADDAY121999GF106991041051008001041081IA1009KA1999N+00221MD1710061+9999MW1041
0076101220999991942031509004+53533+007883FM-12+000299999V0201401N00261220001CN0040001N9+00281+99999101071ADDAY121999GF106991999001999999041001MD1210101+9999MW1051EQDQ01+000002SCOTLC
0009726625240061942092611004+44133-103100SAO  +0979RCA  V0203201N001512200019N1600001N9-00701-00981102571ADDMW1001
0025722485139441942030209004+32500-093683SAO  +0053BAD  V0203401N008210033019N0112001N9+00241+00131101761ADDGA1081+999999079MW1001
0023749231999991942122915004+60350-172700SAO  +002999999V0200451N005712200019N1600001N1-01641-02701101861ADDMD1710101+9999MW1001
006094608099999194208112200N-31950+115850AUST +0020     V0202935N009359999999N999999999+01415+01005999999ADDGA1025+007505085GF102995024085007505999999MA1999999100075
0009703260255031942041100004+58683-156650SAO  +0015AKN  V0202901N003610054019N1600001N9+00411+00131099221ADDMW1001
0076112400999991942062006004+46983+015450FM-12+033599999V0209991C00001012301CN0040001N9+01501+99999102031ADDAY121061GF108991061051012501071999IA1009KA1999N+01281MD1210141+9999MW1051
0025727850241571942091822004+47633-117533SAO  +0721GEG  V0202931N004110240019N0400001N1+01571-00041102681ADDGA1061+999999039MW1001
0025727855241141942052911004+47617-117650SAO  +0741SKA  V0209991C000012200019N1600001N9+00521+00461101491ADDGA1999+018009999MW1001
0025722745231091942050210004+32183-110917SAO  +0782DMA  V0201801N003112200019N1600001N9+01191+00131101051ADDGA1001+999999999MW1001
0057788078999991942090516004+08383-080133SAO  +0031MPRH V0201581N002610300019N1600001N1+02851+02411101421ADDGA1031+010509089GA2021+999999049GA3021+999999029MW1001
0041723011137481942072814004+34267-077900SAO  +0008ILM  V0202481N005112200019N1600001N1+03021+02351101931ADDGA1021+010509089GA2011+999999009MW1001
0041785201999991942083010004+18017-066567SAO  +0009TJPS V0203381N000512200019N1600001N1+02351+02021101461ADDGA1021+010509089GA2031+999999029MW1001
0041719640999991942112005004+60717-135067SAO  +0703CYXY V0209991C000012200019N0048001N1-02201-02591100741ADDGA1011+009009059GA2021+999999049MW1111
0089877330999991942100812004-39267-065633FM-12+013399999V0202701N00261220001CN0200001N9+01001+00111102251ADDAY101999GF106991001001999999001021IA1009KA1999M+01891KA2999N+00221MD1710061+9999MW1021
0023724050137431942100803001+38850-077033SAO  +0020DCA  V0209991C000012200019N0080001N1+01741+01131102131ADDMD1110101+9999MW1051
0025783550999991942120523004+21400-077917SAO  +0122MUCM V0200901N005112200019N1600001N1+02521+02071101661ADDGA1021+999999049MW1001
0009703260255031942030119004+58683-156650SAO  +0015AKN  V0202301N001510105019N1600001N9-00921-01151099931ADDMW1001
0031722680230091942082413004+33300-104533SAO  +1118ROW  V0201581N005110024019N0080001N1+01961+01911101461ADDGA1081+999999059MW1451MW2611
0057101700999991942120521004+54183+012100FM-12+000299999V0201801N00671007801CN0040001N9+00281+00221099221ADDAY161999GF107991071051008001999999MD1710241+9999MW1211
0057123400999991942050509004+52800+018300FM-12+008699999V0202501N00671004501CN0100001N9+00501+00111102191ADDAY171999GF107991071081004501999999MD1710081+9999MW1501
0049742060242071942022600004+47150-122483SAO  +0086TCM  V0201801N001510105019N1600001N9+00691-00091102071ADDGA1051+999999089GA2021+999999039MD1810061+9999
0025745700138401942053102004+39833-084050SAO  +0254FFO  V0201801N002612200019N0144001N9+02521+02021101761ADDGA1001+999999999MW1001
0025722268938431942081108004+31317-085450SAO  +0122DHN  V0202251N001512200019N0144001N1+02241+02181101351ADDGA1031+999999049MW1001
0071785201999991942120809004+18017-066567SAO  +0009TJPS V0200451N003112200019N1600001N1+02411+02021101591ADDGA1021+007509089GA2011+999999049GA3021+999999009MD1510041+9999MW1001
0041787930999991942080720004+08400-082417SAO  +0026MPDA V0201581N002610075019N1600001N1+02801+99999100781ADDGA1061+999999059GA2021+999999049MW1801
0025724836232081942120905004+38650-121383SAO  +0024MCC  V0201401N003612200019N0480001N9+00961+00631102511ADDGA1021+999999009MW1001
0009722170038131942041902004+32700-083650SAO  +0111MCN  V0202701N001512200019N1600001N1+02241+01131101051ADDMW1001
0076105490999991942090806004+51717+011967FM-12+002899999V0202501N00101015001CN0100001N9+01221+01001102621ADDAY121061GF107991071051017501999999IA1009KA1999N+01001MD1510061+9999MW1051
0041783970999991942021021004+17933-076783SAO  +0009MKJP V0201351N002110300019N1600001N1+02851+02131999999ADDGA1031+012009059GA2021+999999039MW1001
004594326599999194212181900N-23820+133900AUST +0545YBAS V0209999C000059999999N999999999+02675+99999999999ADDGA1075+021005999GF107995074999021005999999
003472205112841194211080000D+28550-081333SAO  +0034ORL  V0203601N002112200019N1600001N1+02241+01801101961ADDAA101000095MD1210161+9999MW1001
0039749142999991942062021004+67100-062350SAO  +004099999V0200901N002110120019N1600001N1+00241+00131102441ADDGA1081+999999059MD1110081+9999MW1001
003672253612911194208280700D+29533-098283SAO  +0226RND  V0209991C000010036019N1600001N9+02461+02131101691ADDAA101000095GA1061+999999079MW1001
0043841380999991942030313004-02850-078983FM-12+253299999V0209991C000019999999N0500001N9+01611+99999102501ADDAY121999GF106991041999008001999999MW1021
003672205112841194207161000D+28550-081333SAO  +0034ORL  V0209991C000012200019N1600001N1+02301+02241101761ADDAA101000095GA1011+010509059MW1001
0041722268938431942071416004+31317-085450SAO  +0122DHN  V0202931N001512200019N0144001N1+02801+02241102071ADDGA1011+006009089GA2021+999999049MW1001
0031724970999991942122217004+39783-121850SAO  +0069CIC  V0200451N002110090019N0048001N1+00631+00581102171ADDGA1081+999999079MW1111MW2611
0039724835232061942092100004+38417-121333SAO  +0027MHR  V0202701N001512200019N0240001N9+03241+00631101491ADDGA1001+999999999MD1710141+9999MW1001
0070071690999991942041318004+48633+004967FM-12+999999999V0200901N00461220001CN0200001N9+02001+99999101041ADDAY101999GF102991001001999999001031IA1009KA1999M+02001MD1810061+9999
0041911840999991942112717004+21333-157717SAO  +001899999V0201351N001012200019N1600001N1+02521+01961101491ADDGA1011+009609059GA2061+999999009MW1001
0009702000266171942101600004+64500-165433SAO  +0007OME  V0203381N003112200019N1600001N1+00021-00871100881ADDMW1001
0039785140999991942022421004+18500-067133SAO  +0075TJBQ V0201801N007212200019N1600001N1+02801+01911100811ADDGA1011+009009089MD1610061+9999MW1001
0259999999149361942042203005+44383-098217SAO  +039599999V02018059008852200049N016000599+01725+00335101735ADDGA1999+000004999GD19999+9999999GD29999+9999999GD39999+9999999GD49999+9999999MA1999999097055EQDN01 00000JPWTH 1QNNE11 1 09999E11 1 09999E11 1 09999E11 1 09999G11U1 99999H11 1 99000K11 1 00038L11 1 01000M11 1 28660N11 1 00000Q11 1 10173S11 1 00063W11 1 55017
0009724855231531942101312004+38067-117083SAO  +1654TPH  V0202931N005712200019N0016001N1+00351-00091999999ADDMW1001
0025725370948471942102513004+42233-083333SAO  +0202DTW  V0200901N001510150019N0048001N1+00691+00131102001ADDGA1081+999999039MW1051
0057116500999991942041215004+49617+015583FM-12+045699999V0200201N00671012301CN0100001N9+00391+99999102481ADDAY161999GF108991081051012501999999MD1990021+9999MW1211
006094608099999194212171900N-31950+115850AUST +0020     V0201355N006759999999N999999999+01675+00705999999ADDGA1005+999999999GF100995004999999999999999MA1999999100995
0051109350999991942081309004+47667+009500FM-12+012299999V0202501N00461036001CN0200001N9+01721+01281101811ADDAY121031GF107991041081008001071999MD1310041+9999
0041722640930351942091720004+30367-104017SAO  +1481MRF  V0202251N001510150019N1600001N1+02911+01521100751ADDGA1041+999999081GA2041+999999041MW1001
0057106600999991942071903004+50050+010167FM-12+007399999V0201401N00261030001CN0040001N9+00891+00831101101ADDAY111031GF106991041071012501041001MD1990041+9999MW1051
0057108660999991942010403004+48133+011700FM-12+015699999V0202001N00101220001CN0002001N9-00501-00501102721ADDAY141031GF108991001001999999071999MD1710201+9999MW1441
0009724970999991942110602004+39783-121850SAO  +0069CIC  V0200681N002612200019N0240001N1+01241+00131101691ADDMW1001
0009421820999991942111311004+28583+077200SAO  +0216VIDD V0203151N008212200019N1600001N1+02911+01071100981ADDMW1001
0025727850241571942040707004+47633-117533SAO  +0721GEG  V0201581N001512200019N0480001N1+00631-00261101691ADDGA1021+999999029MW1001
0019742060242071942011713004+47150-122483SAO  +0086TCM  V0201601N001010001519N0002001N9+00241+00241102401ADDGA1081+999999079
0039722630999991942030703004+31367-100500SAO  +0585SJT  V0201801N008212200019N1600001N1+01911-00871099591ADDGA1041+999999041MD1710141+9999MW1001
0023722110128421942101409004+27967-082533SAO  +0003TPA  V0203601N003112200019N1600001N1+01801+01411101521ADDMD1610061+9999MW1001
0025788071999991942083022004+08967-079550SAO  +0012MBLB V0203151N001010300019N1600001N1+02681+02351100951ADDGA1999+009009999MW1001
0025723530139671942110116004+35400-097600SAO  +0397OKC  V0202031N006212200019N1600001N1+01461+00741100951ADDGA1061+999999029MW1001
0029710435999991942041800004+66250-128633FM-12+006599999V0202701N002119999999N0200001N9-00561-00781100781ADDGF100991001999999999999999
0086103390999991942070121004+52583+010533FM-12+002099999V0203401N00261220001CN0100001N9+01391+99999101881ADDAY121999GF101991011051008001001001MD1210051+9999EQDQ01+000042APCTENQ02+000162APC3  
008294608099999194206282200N-31950+115850AUST +0020     V0200905N001559999999N999999999+00755+00705999999ADDGA1005+999999999GA2075+999999035GF107995004999999999075999MA1999999100165MW1055
002072351013966194211111900D+33983-098500SAO  +0314SPS  V0202701N002612200019N1600001N1+01521-00151103451ADDAA101000095MW1001
0025719060999991942060311004+58083-068417SAO  +0034CYVP V0200681N003610060019N0128001N1-00041-00311101931ADDGA1081+999999079MW1711
0076071900999991942031506004+48550+007633FM-12+015499999V0200201N00101036001CN0020001N9+00111+99999101301ADDAY121999GF107991041051012501071999IA1009KA1999N+00001MD1210041+9999MW1051
0057106590999991942040103004+49750+010200FM-12+006099999V0202301N00461007801CN0040001N9+01001+00891101091ADDAY161031GF108991081051008001999999MD1710261+9999MW1051
0025727850241571942120114004+47633-117533SAO  +0721GEG  V0200681N001510006019N0016001N1-00091-00091101651ADDGA1081+999999079MW1451
0276999999149361942081705005+44383-098217SAO  +039599999V02099999000052200059N008000599+01785+01505101525ADDGA1999+000004999GD19999+9999999GD29999+9999999GD39999+9999999GF100995999999999999999999MA1999999096925MW1045EQDN01 08000JPWTH 1QNNE11 1 09999E11 1 09999E11 1 09999G11U1 99999H11 1 99000K11 1 00059L11 1 00500M11 1 28620N11 1 08000Q11 1 10152S11 1 00064V11 1 00099W11 1 00000
0025911690999991942070609004+21683-158033SAO  +001099999V0200901N008212200019N1600001N1+02461+99999999999ADDGA1041+006009059MW1001
0025726810241311942081904004+43567-116217SAO  +0874BOI  V0201801N001512200019N0320001N1+99999+99999999999ADDGA1011+999999009MW1001
0057104730999991942020203004+51350+011967FM-12+003399999V0209991C00001000151CN0005001N9-00781-00891101981ADDAY141031GF109991091999000251999999MD1990061+9999MW1451
0025725330148271942112422004+41000-085200SAO  +0252FWA  V0202481N003110045019N0080001N1+00461+00131100781ADDGA1081+999999079MW1051
0067749007999991942051920004+53800-000750SAO  +0004EGCS V0202481N002119999999N0064001N1+99999+99999999999ADDGA1031+008409999GA2999+135009999GF107991999999999999999999MW1051
0041780160136011942091910004+32367-064683SAO  +0006TXKF V0201801N011810540019N1600001N9+02681+02241100681ADDGA1021+006009059GA2051+999999049MW1001
0009916800999991942041610004-17750+177450SAO  +0018NFFN V0209991C000012200019N1600001N1+02571+02241101161ADDMW1001
0057118160999991942010112004+48200+017200FM-12+013399999V0202501N00461004501CN0005001N9-00391+99999102231ADDAY171999GF108991081051004501999999MD1810321+9999MW1731
0057103820999991942030415004+52467+013133FM-12+001499999V0201101N00461004501CN0100001N9+00001-00501101311ADDAY171999GF108991071051004501021999MD1810221+9999MW1701
0025726810241311942051804004+43567-116217SAO  +0874BOI  V0202251N001512200019N1600001N1+01131+00131101761ADDGA1021+999999049MW1001
0073111820999991942090906004+47800+016233FM-12+026899999V0209991C00001036001CN0100001N9+01501+99999102391ADDAA199000691AY121061GF108991041051008001021999IA1009KA1999N+01391MW1601
006495677099999194207060200N-34800+138630AUST +0016YPPF V0200235N003159999999N999999999+01235+99999999999ADDGA1999+012005999GF108995004999012005999999EQDP01    003SCCGA1
0108103610999991942011706004+52133+011717FM-12+001499999V0200501N00261004501CN0040001N9-01111-01281102251ADDAA199000691AY111999GF108991081051004501999999IA1139KA1999N-01281MW1711EQDQ01+000042APCTENQ02+000022APC3  
0057265110999991942010918004+54933+019950FM-12+001099999V0200901N00461001501CN0040001N9-00611-00721101591ADDAY171999GF108991081051001501999999MD1210021+9999MW1711
0025717070999991942071301004+46167-060050SAO  +0062CYQY V0202251N001512200019N0240001N1+01301+01241101271ADDGA1021+999999039MW1001
0009749092999991942121623004+37100-095583SAO  +0227CFV  V0201801N005112200019N0128001N1+00691-00041999999ADDMW1001
0039749438999991942102818004-12700+143300SAO  +001899999V0201581N003110090019N0240001N1+02411+02181100981ADDGA1061+999999059MD1510061+9999MW1001
0025747880128101942071907004+27850-082500SAO  +0003KMCF V0201401N003612200019N1600001N9+02681+02351101901ADDGA1001+999999999MW1001
0048727850241571942120806004+47633-117533SAO  +0721GEG  V0201351N002110033019N0016001N1-00151+99999101081ADDMD1310041+9999MW1451MW2711EQDQ01+027222ATOD  
0009722356139391942100808004+33483-090983SAO  +0040GLH  V0201131N001012200019N1600001N1+01021+00801102201ADDMW1001
0025725377148041942041916004+42617-082817SAO  +0176MTC  V0203601N010810060019N1600001N9+00301-00091102841ADDGA1081+999999059MW1001
0025719060999991942020814004+58083-068417SAO  +0034CYVP V0209991C000010105019N0048001N1-01031-01371101191ADDGA1081+999999079MW1711
0051106090999991942040315004+49750+006667FM-12+008199999V0201801N00101012301CN0200001N9+01111+99999101281ADDAY121031GF108991081051012501999999MD1810261+9999
0051122320999991942042703004+53117+017967FM-12+002199999V0200201N00671001501CN0100001N9+00221+00171102441ADDAY121999GF107991071051001501999999MD1310021+9999
0037109540999991942082912004+47817+010883FM-12+022199999V0200201N00101220001CN0200001N9+99999+99999999999ADDAY101061GF100991001001999999001999
0043855770999991942011908004-33450-070700FM-12+052099999V0209991C00001220001CN0500001N9+02331+01611101241ADDAY101999GF100991001001999999001001MW1001
0057104070999991942121212004+51183+006400FM-12+002499999V0202001N00931002401CN0100001N9+00891+99999101541ADDAY151061GF108991061051002501999999MD1510021+9999MW1531
0051131300999991942082621004+45817+016033FM-12+016399999V0209991C00001220001CN0100001N9+02111+01441102101ADDAY101999GF100991001001999999001001MD1310141+9999
0062103830999991942070306004+52433+013517FM-12+001199999V0203601N00101220001CN0040001N9+01501+01061101861ADDAY111999GF106991001001999999071071IA1009KA1999N+00781MW1051
0025810010999991942100911004+06500-058250SAO  +0029SYGT V0209991C000012200019N1600001N1+02741+02411101461ADDGA1061+999999029MW1001
0025724920232371942010813004+37900-121250SAO  +0008SCK  V0203151N002110075019N0024001N1+00801+00801102371ADDGA1081+999999079MW1111
0086103430999991942090400004+52600+010033FM-12+001299999V0202001N00261220001CN0100001N9+01781+99999101531ADDAY101999GF100991001001999999001001MD1210051+9999EQDQ01+000042APCTENQ02+000062APC3  
0025723825231311942090707004+34583-117383SAO  +0875VCV  V0201601N001512200019N1600001N9+01691-00041101591ADDGA1001+999999999MW1001
0035911820225211942062505004+21333-157950SAO  +0011PHNL V0200901N011310420019N1600001N9+02571+01741101691ADDGA1031+007809089GA2051+999999049
0025722266138501942122611004+32350-086983SAO  +0054SEM  V0200681N002610015019N0096001N1+01851+01691101861ADDGA1081+999999079MW1451
0025725635999991942121907004+42050-102800SAO  +1198AIA  V0201581N004610030019N0080001N1-00591-00591999999ADDGA1081+999999079MW1451
0023722140938051942112815004+30433-084333SAO  +0021TLH  V0201131N005712200019N1600001N1+01131-00311102241ADDMD1210061+9999MW1001
0041911800999991942042320004+21333-157950SAO  +0009PHIK V0200901N001512200019N1600001N1+02521+01851101591ADDGA1021+012009089GA2061+999999029MW1001
0057718760999991942071007004+52683-108333FM-12+049499999V02099999999999999999N9999999N9+99999+99999999999ADDAA124002091AJ100009199999999KA1999M+02561KA2999N+01171
0025788610999991942012604004+17117-061783SAO  +0010TAPA V0200451N005110045019N1600001N1+02351+02241999999ADDGA1061+999999079MW1001
0023723140138811942020818004+35217-080933SAO  +0234CLT  V0200231N005112200019N1600001N1+01021+99999101491ADDMD1710041+9999MW1001
0025725330148271942022417004+41000-085200SAO  +0252FWA  V0200451N005710045019N0096001N1-00311-00761999999ADDGA1061+999999059MW1051
0043266940999991942060606004+54750+020283FM-12+000399999V0202901N00461220001CN0200001N9+01281+00831101771ADDGF101991011011008001999001MD1710021+9999
0039749170999991942121821004+35117-119300SAO  +0133L17  V0200231N001510021019N0064001N1+00911+00581102271ADDGA1081+999999079MD1710221+9999MW1451
0041787930999991942103005004+08400-082417SAO  +0026MPDA V0202481N001510450019N0128001N1+02301+02301100781ADDGA1021+006009059GA2051+999999039MW1001
0025724235138101942031711004+38233-085667SAO  +0167LOU  V0202481N009810090019N1600001N1+00801+00241100541ADDGA1081+999999059MW1001
0041727937999991942022520004+47917-122283SAO  +0187PAE  V0201581N001012200019N0112001N1+00521+00191999999ADDGA1021+006009059GA2061+999999039MW1001
0029710934999991942020101004+66133-065750FM-12+001399999V0209991C000019999999N0500001N9+00281+99999999999ADDGF100991999999999999999999
0057266140999991942121821004+55083+021800FM-12+000399999V0201401N00101004501CN0100001N9+00221+00171101731ADDAY121999GF108991081051004501999999MD1210021+9999MW1051
0039722268938431942052915004+31317-085450SAO  +0122DHN  V0201131N004112200019N1600001N1+02571+01851102101ADDGA1021+015009089MD1210161+9999MW1001
0074810010999991942042421004+06500-058250SAO  +0029SYGT V0200681N003612200019N1600001N1+02741+02411101081ADDGA1031+006009059GA2041+999999029MD1410001+9999MW1001EQDQ01+000032APCTEN
0025722170038131942060911004+32700-083650SAO  +0111MCN  V0200681N002610108019N1600001N1+02301+02241101461ADDGA1081+999999059MW1001
0009726625240061942021113004+44133-103100SAO  +0979RCA  V0202901N002612200019N1600001N9-00481-01031101661ADDMW1001
0041788060999991942101803004+08917-079600SAO  +0007MPHO V0203601N001512200019N1600001N9+02461+02241999999ADDGA1021+999999049GA2061+999999029MW1001
0041723865231121942122601004+36250-115033SAO  +0569LSV  V0203601N011810360019N0112001N9+01241-00481100711ADDGA1021+021009059GA2021+999999039MW1001
0029719576999991942050808004+64900-125500FM-12+009199999V02099999999999999999N9999999N9+99999+99999999999ADDKA1999M+01611KA2999N+00331
0073107650999991942043018004+49250+011100FM-12+011799999V0201101N00101007801CN0200001N9+00501-00501101741ADDAA199000691AY181061GF107991071081008001999999IA1009KA1999M+00781MW1851
0023722486139421942111300004+32517-092050SAO  +0025MLU  V0209991C000012200019N0080001N1+01461+00191102371ADDMD1610061+9999MW1051
0019724660930371942120607004+38817-104700SAO  +1881COS  V0201401N003612200019N1600001N9-00871-01031102131ADDGA1021+000609059
0023725280147331942050615004+42933-078733SAO  +0215BUF  V0200901N006210270019N1600001N1+01131+00191102541ADDMD1710241+9999MW1001
0025724235138101942031409004+38233-085667SAO  +0167LOU  V0202701N001510036019N0080001N1+01301+01191100881ADDGA1081+999999059MW1051
0074722268938431942070309004+31317-085450SAO  +0122DHN  V0201801N001510360019N0112001N1+02181+02071101561ADDGA1021+012009059GA2021+999999049MD1410001+9999MW1001EQDQ01+000012APCTEN
0009722800231951942032000004+32650-114600SAO  +0063YUM  V0203601N002112200019N1600001N1+02181-01091999999ADDMW1001
0031724235138101942021609004+38233-085667SAO  +0167LOU  V0201581N005110051019N0064001N1+01071+00961100581ADDGA1081+999999059MW1051MW2611
014599999913739194201100500E+39883-075233SAO  +000899999V02020359002150030549N003200599-00565-00615102005ADDAA101000095MA1999999101905MW1715EQDN01 04000JPWTH 1QNNG11 1 00010K11 1 00021L11 1 00200M11 1 30090N11 1 04000Q11 1 10200S11 1 00022W11 1 56004
0057105690999991942092109004+50533+012100FM-12+013799999V0201801N00461220001CN0100001N9+01721+01281101281ADDAY121031GF102991011011008001041011MD1990021+9999MW1051
0009703160256241942032423004+55200-162717SAO  +0031CDB  V0203151N011310001519N0003001N1+99999+99999999999ADDMW1751
0035742060242071942101217004+47150-122483SAO  +0086TCM  V0209991C000010021019N0008001N9+00631+00521102201ADDGA1051+999999079GA2011+999999009
0067749007999991942010904004+53800-000750SAO  +0004EGCS V0203381N006712200019N0064001N1+99999+99999999999ADDGA1011+220009999GA2999+012009999GF102991999999999999999999MW1051
0019417800999991942071121004+24900+067133SAO  +0022OPKC V0202301N005110045019N0080001N9+03071+02681099491ADDGA1061+999999049
0057108680999991942041912004+48250+011550FM-12+014899999V0202501N00671036001CN0100001N9+00891+00671101311ADDAY161061GF108991041051004501021999MD1110061+9999MW1611
0019725196147171942100817004+43233-075417SAO  +0144RME  V0201801N006712200019N1600001N9+02021+00521999999ADDGA1001+999999999
0025719060999991942060822004+58083-068417SAO  +0034CYVP V0203381N005110135019N1600001N1+00411-00041101051ADDGA1081+999999089MW1001
0025724835232061942010211004+38417-121333SAO  +0027MHR  V0201401N002112200019N0240001N9-00261-00481999999ADDGA1001+999999999MW1001
0051122370999991942032609004+53467+018783FM-12+000799999V0202901N00671004501CN0100001N9+00281-00111101011ADDAY121999GF106991061051004501001001MD1110081+9999
0023703610253391942051016004+59517-139667SAO  +0009CYAK V0209991C000012200019N1600001N1+00691+00351102301ADDMD1210201+9999MW1001
0035719340999991942022218004+60017-112000FM-12+020399999V0200501N001019999999N0040001N9-01611+99999102841ADDGF108991081999017501999999MW1701
0039725510149391942100715004+40850-096750SAO  +0362LNK  V0201581N003612200019N0128001N1+01801+01351101801ADDGA1021+999999009MD1110041+9999MW1001
0057103390999991942053121004+52583+010533FM-12+002099999V0200501N00101030001CN0040001N9+01111+99999101501ADDAY161999GF107991041051008001071999MD1310061+9999MW1051
0025703160256241942061005004+55200-162717SAO  +0031CDB  V0203381N008712200019N1600001N1+00801+00461100001ADDGA1999+003009999MW1001
0041749029999991942102716004+09183-079567SAO  +011399999V0201801N000510045019N0128001N1+02631+02571100981ADDGA1061+999999059GA2021+999999049MW1801
0053036690999991942092221004+51717-000533FM-12+015799999V0202301N00671220001CN0040001N9+99999+99999999999ADDAY121999GA1001+999999999GF107991011051008001031999
0025749211999991942100712004+60500-133400SAO  +078299999V0201801N004612200019N1600001N1+00241-00151999999ADDGA1041+015009059MW1001
0070267020999991942051206004+54733+020567FM-12+000999999V0201101N00461030001CN0200001N9+01001+00611100771ADDAY121999GF107991041051017501011071IA1009KA1999N+00391MD1710101+9999
0009726810241311942091711004+43567-116217SAO  +0874BOI  V0202251N001512200019N0320001N1+99999+99999999999ADDMW1051
005072253612911194211260300D+29533-098283SAO  +0226RND  V0200201N008212200019N1600001N9+01851+00581101051ADDAA101000095GA1001+999999999MD1210541+9999MW1001
0055724550139471942043018004+39050-096767SAO  +0324FRI  V0201601N014410045019N0064001N9+02071+01631099971ADDGA1061+999999079GA2021+999999029MD1710141+9999MW1051
0057101310999991942011703004+53867+008717FM-12+000199999V0201401N00931004501CN0040001N9-00611-00721102191ADDAY171999GF108991081051004501999001MD1310041+9999MW1711
0041783970999991942040817004+17933-076783SAO  +0009MKJP V0201351N010310084019N1600001N1+02911+02131999999ADDGA1061+999999059GA2021+999999049MW1001
007694608099999194201011300N-31950+115850AUST +0020     V0202035N004659999999N999999999+02195+01805999999ADDGA1005+999999999GA2065+999999035GF106995004999999999075999MA1999999100355
0128724050137431942052721002+38850-077033SAO  +002099999V02013559003150167649N012800599+02565+01115101355ADDMA1999999101125EQDN01 00000JPWTH 1QNNG11 1 00055K11 1 00052L11 1 00800M11 1 29860N11 1 00000Q11 1 10135S11 1 00078W11 1 44006
0009726510149441942102106004+43583-096733SAO  +0435FSD  V0202931N007712200019N1600001N1+00741-00261101291ADDMW1001
0025747900138491942070807004+33967-080483SAO  +0072SSC  V0202701N002612200019N1600001N9+02411+02071101491ADDGA1021+999999029MW1001
0041718010999991942033018004+47583-052700SAO  +0017CYYT V0202701N013910360019N1600001N1+00631-00311101881ADDGA1051+999999039GA2021+999999009MW1001
0037035560999991942101521004+52233-000467FM-12+008799999V0202301N00671220001CN0200001N9+99999+99999999999ADDAY101999GF100991001001999999001001
0063064070999991942041806004+51200+002917FM-12+000499999V0200901N00461220001CN0040001N9+00781+99999100561ADDAY101999GF106991001001999999041011IA1009MD1610081+9999MW1051
0057124150999991942011321004+51200+016083FM-12+003899999V0201401N00671004501CN0020001N9-01221-01331101551ADDAY171999GF108991081051004501999999MD1710021+9999MW1731
0025911700225081942052314004+21483-158050SAO  +0257PHHI V0203201N001512200019N1600001N9+01911+01631101391ADDGA1011+007809089MW1001
0039724970999991942061700004+39783-121850SAO  +0069CIC  V0201801N004612200019N1600001N1+02851+00191101081ADDGA1021+999999009MD1710101+9999MW1001
0025724956232111942032214004+38067-122517SAO  +0003SRF  V0209991C000012200019N1600001N1+00521+00131101631ADDGA1061+999999049MW1001
0039718150999991942121512004+48550-058550SAO  +0013CYJT V0202931N008710060019N1600001N1-00531-01031099531ADDGA1051+999999059MD1310041+9999MW1001
0039719060999991942051607004+58083-068417SAO  +0034CYVP V0202481N003110240019N1600001N1-00531-00811102441ADDGA1081+999999049MD1110481+9999MW1001
0009749142999991942061623004+67100-062350SAO  +004099999V0209991C000012200019N1600001N1+00461-00371102681ADDMW1001
0009422600999991942120913004+27150+077967SAO  +0169VIAG V0209991C000012200019N1600001N1+01741+00301101561ADDMW1001
004594294599999194206042000N-19250+146770AUST +0006YBTL V0209999C000059999999N999999999+01555+99999999999ADDGA1005+999999999GF107995004999999999999999
0057266940999991942082909004+54750+020283FM-12+000399999V0201801N00101220001CN0040001N9+02501+01561101531ADDAY141999GF100991001001999999001001MD1710041+9999MW1051
0009749040999991942081518004+10833-060933SAO  +004199999V0201801N004612200019N0000001N1+99999+99999999999ADDMW1001
0051121630999991942062012004+54133+020567FM-12+002799999V0203401N00671220001CN0100001N9+01611+00721101671ADDAY121999GF104991041021012501001001MD1310021+9999
0025722630999991942012807004+31367-100500SAO  +0585SJT  V0202701N002612200019N1600001N1+00411-00311102071ADDGA1021+999999021MW1001
0041744910147031942032220004+42200-072533SAO  +0075CEF  V0202501N008710090019N1600001N9+00581-00041099631ADDGA1041+999999089GA2031+999999029MW1001
0009424750999991942101102004+25450+081733SAO  +0098VIAL V0209991C000012200019N1600001N1+02071+01801101121ADDMW1001
0051108560999991942012512004+48183+010867FM-12+016899999V0202701N01231002401CN0010001N9+00221+00001099261ADDAY181061GF108991081081002501999999MD1110121+9999
0009702720999991942082922004+61200-149767SAO  +0055PAED V0203201N001512200019N1600001N9+01571+00741102371ADDMW1001
0025722806999991942071818004+32450-112867SAO  +0444P01  V0209991C000012200019N1600001N1+03741+01691999999ADDGA1021+024009039MW1001
0025725755241011942082317004+41117-111967SAO  +1459HIF  V0201801N005712200019N0400001N9+02961+00631101321ADDGA1001+999999999MW1001
0055725330148271942080311004+41000-085200SAO  +0252FWA  V0203151N001512200019N0016001N1+01631+99999101561ADDGA1051+999999049GA2031+999999029MD1210101+9999MW1111
0041749438999991942111320004-12700+143300SAO  +001899999V0201351N004610150019N0192001N1+02521+02461100851ADDGA1031+999999059GA2021+999999039MW1801
0025725330148271942102821004+41000-085200SAO  +0252FWA  V0201801N004112200019N0048001N1+01411+00301101761ADDGA1061+999999029MW1051
0025723530139671942062405004+35400-097600SAO  +0397OKC  V0201351N006210090019N1600001N1+02351+01961101321ADDGA1081+999999059MW1001
0019723810231141942051922004+34967-117900SAO  +0693EDW  V0200501N003612200019N1600001N9+03351+00131999999ADDGA1021+999999009
0043104330999991942012109004+51400+008567FM-12+013799999V0201401N00671220001CN0040001N9+99999+99999999999ADDAY101031GF100991001001999999001999MW1051
0025943560999991942122808004-20067+146250SAO  +031399999V0209991C000010024019N0032001N1+02301+02301100421ADDGA1081+999999079MW1611
0041787605999991942062022004+09933-084100SAO  +1132MRSJ V0201351N001510450019N1600001N1+02801+99999101421ADDGA1041+009009059GA2041+999999049MW1001
0057121020999991942102018004+54017+014767FM-12+999999999V0209991C00001220001CN0500001N9+00721+00331102061ADDAY111999GF102991011021012501071011IA1009MD1310021+9999
0039841110999991942062412004-02017-081000SAO  +0007SESA V0202031N004610030019N1600001N1+02071+01801101131ADDGA1081+999999059MD1710041+9999MW1001
0070122320999991942082718004+53117+017967FM-12+002199999V0201101N00101220001CN0100001N9+03001+01671102191ADDAY101999GF102991021011012501001011IA1009KA1999M+03001MD1710121+9999
0025654720999991942081003004+05600-000167SAO  +0069DGAA V0202481N003610045019N0112001N1+99999+99999999999ADDGA1081+999999059MW1001
0041911800999991942082504004+21333-157950SAO  +0009PHIK V0200681N006712200019N1600001N1+02741+02021101491ADDGA1031+009009089GA2011+999999039MW1001
0128724050137431942030117002+38850-077033SAO  +002099999V02031559004652200049N011200599+00675-00445102275ADDMA1999999102035EQDN01 00000JPWTH 1QNNG11U1 99999K11 1 00024L11 1 00700M11 1 30130N11 1 00000Q11 1 10227S11 1 00044W11 1 88009
0041719450999991942041116004+58833-122583SAO  +0382CYYE V0201801N003612200019N0240001N1+00351-00261099581ADDGA1041+999999039GA2011+999999029MW1001
0057106330999991942081300004+50050+008333FM-12+004299999V0202001N00101220001CN0040001N9+01281+01171101591ADDAY121061GF104991041051008001001001MD1110061+9999MW1051
0039722650999991942030100004+31933-102200SAO  +0871MAF  V0201581N006210120019N1600001N1+01191+00021100641ADDGA1081+999999051MD1310181+9999MW1001
0009703610253391942021115004+59517-139667SAO  +0009CYAK V0201131N001510036019N0128001N1+00351+00241102371ADDMW1001
0025725080147401942090320004+41933-072683SAO  +0055BDL  V0203601N006212200019N0048001N1+02801+01911100881ADDGA1041+009009059MW1051
0039749078999991942101906004+30983-084633SAO  +0040BGE  V0203601N001512200019N1600001N1+01691+01191101491ADDGA1021+999999029MD1710041+9999MW1001
0009722636930421942110710004+36017-102550SAO  +1216DHT  V0202251N003612200019N0002001N1+00801+00801999999ADDMW1111
0039911620225011942092417004+22050-159783SAO  +0005PHBK V0200681N001012200019N1600001N1+02301+02021101661ADDGA1061+999999019MD1310061+9999MW1001
0025042700999991942032610004+61183-045417SAO  +0026BGBW V0200681N010812200019N1600001N1-00041-01371102691ADDGA1011+015009059MW1001
0070122370999991942082018004+53467+018783FM-12+000799999V0201601N00261220001CN0100001N9+02501+01561101731ADDAY101999GF100991001001999999001001IA1009KA1999M+02781MD1810121+9999
004594612099999194203080000N-31680+116020AUST +0046YPEA V0209999C000059999999N999999999+02065+99999999999ADDGA1005+999999999GF107995004999999999999999
0045725070147651942102700004+41733-071433SAO  +0019PVD  V0201581N004610012019N0064001N1+01461+01461099971ADDGA1081+999999059MD1710341+9999MW1451MW2611
0041785470116241942051601004+17700-064800SAO  +0017TISX V0200681N003610075019N1600001N1+02521+02181101291ADDGA1051+999999089GA2031+999999049MW1001
0055749444999991942120603004-10317+150333SAO  +002799999V0201131N003612200019N1600001N1+03071+02571100811ADDGA1021+010509089GA2061+999999029MD1710241+9999MW1001
0039722250138291942110415004+32333-085000SAO  +0071LSF  V0200501N004612200019N1600001N9+01131+00301102841ADDGA1001+999999999MD1110061+9999MW1001
0031722165138151942040412004+31583-084117SAO  +0065TRF  V0201801N001512200019N0048001N1+01131+00691102341ADDGA1011+999999009MW1041MW2111
0076107550999991942112018004+49317+010667FM-12+014299999V0202701N00101002401CN0020001N9+00281+00171102501ADDAY121061GF108991081051002501999999IA1089KA1999M+00391MD1310021+9999MW1051
0055724970999991942052112004+39783-121850SAO  +0069CIC  V0200451N001512200019N1600001N1+01911+01351999999ADDGA1999+006009999GA2999+999999009MD1610061+9999MW1001
0057104440999991942010406004+51550+009900FM-12+004799999V0201601N00261002401CN0020001N9+00391+00281101681ADDAY121061GF108991081051002501999999MD1810281+9999MW1051
0025724836232081942031011004+38650-121383SAO  +0024MCC  V0201601N003612200019N0160001N9+01131+00911101961ADDGA1081+999999029MW1001
0057061600999991942102109004+55767+012317FM-12+001999999V0201401N01231030001CN0100001N9+00721+99999101131ADDAY161999GF108991041061004501021999MD1710141+9999MW1211
0025722487139351942091713004+31400-092300SAO  +0034ESF  V0201581N003110018019N0024001N1+02461+02411101591ADDGA1081+999999079MW1451
0041726071146061942070820004+44800-068817SAO  +0059BGR  V0201801N004110360019N1600001N1+02351+01131100541ADDGA1021+015009059GA2051+999999049MW1001
0057115670999991942100815004+50117+014533FM-12+028399999V0202501N00461030001CN0020001N9+02281+99999101261ADDAY121999GF107991011051012501031021MD1610221+9999MW1051
0041786410999991942061507004+14583-090517SAO  +1499MGGT V0209991C000010060019N1600001N1+99999+99999101801ADDGA1051+999999059GA2031+999999049MW1001
0057101470999991942070615004+53633+010000FM-12+000599999V0202501N01231012301CN0100001N9+02391+01441100811ADDAY181999GF108991061091012501061999MD1310241+9999MW1921
0057108640999991942022212004+48067+011650FM-12+016799999V0200201N00261220001CN0010001N9-00391-00561100951ADDAY111061GF106991001001999999071021MD1810081+9999MW1101
0025722860231191942062623004+33900-117250SAO  +0466RIV  V0203201N005112200019N0160001N9+02441+01111101321ADDGA1001+999999999MW1001
0025722487139351942082305004+31400-092300SAO  +0034ESF  V0209991C000012200019N1600001N1+02461+02411101801ADDGA1041+999999049MW1001
0031722165138151942032713004+31583-084117SAO  +0065TRF  V0201131N005110015019N0096001N1+01631+01571101391ADDGA1081+999999079MW1051MW2611
0057104240999991942112715004+51567+007917FM-12+002699999V0201601N00101007801CN0040001N9+00721+99999102151ADDAY121031GF108991081051008001999999MD1710181+9999MW1051
0025724050137431942121823001+38850-077033SAO  +0020DCA  V0203381N005112200019N0080001N1+00241-00591102401ADDGA1021+018009059MW1051
0134724050137431942070614002+38850-077033SAO  +002099999V02020359004652200049N009600599+02565+02115101195ADDMA1999999100955MW1045EQDN01 08000JPWTH 1QNNG11U1 99999K11 1 00070L11 1 00600M11 1 29810N11 1 08000Q11 1 10119S11 1 00078W11 1 56009
0086266980999991942102121004+54567+020600FM-12+000799999V0200701N00461220001CN0200001N9+00111+00001101901ADDAY101999GF101991011051012501041001MD1210071+9999EQDQ01+000042APCTENQ02+000062APC3  
0025724050137431942062618001+38850-077033SAO  +0020DCA  V0201581N002110150019N0080001N1+02681+01741102471ADDGA1081+999999079MW1051
0041749076999991942060122004+38833-085417SAO  +0268MDN  V0202701N003112200019N1600001N1+03131+01691101661ADDGA1011+024009039GA2031+999999009MW1001
0037110390999991942101412004+48000+016900FM-12+018099999V0202901N00671012301CN0200001N9+99999+99999999999ADDAY111061GF107991071051012501001999
0025821930999991942120116004-01383-048483SAO  +0016SBBE V0202251N004610105019N1600001N1+02631+02131100951ADDGA1081+999999059MW1001
0025723840231551942020416004+35433-119050SAO  +0130BFL  V0200681N001512200019N1600001N1+01021+00741999999ADDGA1081+999999041MW1001
0039725755241011942083118004+41117-111967SAO  +1459HIF  V0202501N002612200019N0480001N9+02571+00131101321ADDGA1001+999999999MD1710071+9999MW1001
0057108030999991942080812004+48017+007833FM-12+007599999V0203401N00101220001CN0100001N9+02001+01331101941ADDAY101061GF101991011011012501001001MD1810141+9999MW1051
0050723550139451942030812004+34650-098383SAO  +0360FSI  V0203201N006712200019N1600001N9+00021-00531101491ADDAA124999999GA1021+999999049MD1310021+9999MW1001
0051071900999991942092215004+48550+007633FM-12+015499999V0202301N00671036001CN0100001N9+01721+99999100621ADDAY121999GF106991021081008001021001MD1310041+9999
0025722485139441942062519004+32500-093683SAO  +0053BAD  V0201801N002612200019N1600001N9+03291+02241101661ADDGA1031+012909089MW1001
0041911800999991942032723004+21333-157950SAO  +0009PHIK V0200451N010812200019N1600001N1+02571+01351101631ADDGA1021+009009089GA2051+999999029MW1001
0057106530999991942100709004+49650+009967FM-12+008599999V0200501N00261036001CN0010001N9+01501+01501102451ADDAY141031GF107991011051012501071999MD1110061+9999MW1051
0043104970999991942063003004+51283+014133FM-12+008899999V0202301N00101220001CN0100001N9+01111+01001102111ADDAY181031GF102991021051012501001001MW1051
0041042310999991942061416004+66967-050917SAO  +0047BGSF V0202031N015410240019N1600001N1+01191+00241101001ADDGA1031+013509079GA2051+999999039MW1001
0041789480999991942022416004+13750-060950SAO  +0003TLPL V0201351N004610210019N1600001N1+03021+02301999999ADDGA1041+009009059GA2021+999999039MW1001
0037104740999991942042506004+51850+012650FM-12+002099999V0200701N00671220001CN0100001N9+99999+99999999999ADDAY101061GF101991001001999999001999
0057114180999991942122815004+49917+012717FM-12+053899999V0201101N00931220001CN0100001N9-00611+99999102701ADDAY121999GF104991041051002501001001MD1810161+9999MW1051
0057104190999991942063009004+51217+007633FM-12+013699999V0200201N00101021001CN0040001N9+01721+99999102281ADDAY191031GF108991081001022501021999MD1210171+9999MW1051
0055789480999991942051706004+13750-060950SAO  +0003TLPL V0200901N005112200019N1600001N1+02741+02301101121ADDGA1021+007509059GA2021+999999029MD1710101+9999MW1001
0039723556999991942041303004+35667-095367SAO  +0186MKO  V0201801N006210180019N1600001N1+01461+01071101761ADDGA1081+999999049MD1210241+9999MW1611
0081125390999991942020206004+50267+018667FM-12+007599999V0209991C00001000151CN0000501N9-01281-01441101991ADDAA199000691AY121999GF109991091999000251999999IA1319KA1999N-01391MD1210021+9999
0025724970999991942120207004+39783-121850SAO  +0069CIC  V0201581N007710300019N0128001N1+01521+01131101631ADDGA1081+999999049MW1001
0025749044999991942121519004+26367-080100SAO  +0005BCT  V0200231N005110075019N1600001N1+02181+01461999999ADDGA1061+999999089MW1001
0057125390999991942021912004+50267+018667FM-12+007599999V0202701N00101004501CN0020001N9-00501-00611102911ADDAY171999GF108991081051004501999999MD1710101+9999MW1771
0071787930999991942050212004+08400-082417SAO  +0026MPDA V0209991C000010240019N1600001N1+02571+02351101121ADDGA1061+007509059GA2021+999999049GA3011+999999029MD1110101+9999MW1001
0057108570999991942033112004+48067+010917FM-12+018999999V0202301N00261007801CN0100001N9+01221+00331101821ADDAY121061GF106991061021008001001001MD1710101+9999MW1051
0019724660930371942113009004+38817-104700SAO  +1881COS  V0201601N008712200019N1600001N9+00581-00761099991ADDGA1061+999999049
0045727130146041942123015004+46683-068050SAO  +0146PQI  V0201351N002110042019N0028001N1-00651-00811102101ADDGA1081+999999079MD1810141+9999MW1711MW2791
0009725370948471942110902004+42233-083333SAO  +0202DTW  V0209991C000012200019N0064001N1+00241+00191102571ADDMW1051
0039725510149391942110215004+40850-096750SAO  +0362LNK  V0203151N009312200019N1600001N1+00581-00091102171ADDGA1011+010509059MD1210201+9999MW1001
0076100370999991942071421004+54467+009533FM-12+000699999V0202901N00461002401CN0010001N9+01501+99999101261ADDAY161999GF108991081051002501999999MD1410001+9999MW1601EQDQ01+000032APCTEN
0043122990999991942050103004+52700+016383FM-12+005499999V0209991C00001004501CN0040001N9+99999+99999999999ADDAY121999GF108991081051004501999999MW1051
0009726625240061942070211004+44133-103100SAO  +0979RCA  V0202701N003612200019N0064001N9+00911+00741101831ADDMW1051
0025724835232061942060408004+38417-121333SAO  +0027MHR  V0201401N003112200019N0192001N9+01571+01021101351ADDGA1001+999999999MW1001
0041780160136011942102522004+32367-064683SAO  +0006TXKF V0201101N004610060019N1600001N9+02351+01741101631ADDGA1061+999999059GA2011+999999049MW1001
0025783550999991942103004004+21400-077917SAO  +0122MUCM V0200901N005110090019N0112001N1+02241+02181101521ADDGA1061+999999099MW1001
005272221013858194212151900D+30483-086517SAO  +0025VPS  V0202301N003612200019N1600001N9+01961+01071102131ADDAA101000095GA1011+010509089GA2021+999999009MW1001
0009788060999991942022718004+08917-079600SAO  +0007MPHO V0202301N001510090019N1600001N9+99999+99999999999ADDMW1001
0076101730999991942032406004+54267+012417FM-12+000199999V0202701N00931000151CN0002001N9-00111-00111102401ADDAY141999GF109991091999000251999999IA1159KA1999N-00221MD1710101+9999MW1471
0041749027999991942060903004+08850-079783SAO  +009499999V0201351N001010060019N1600001N1+99999+99999999999ADDGA1051+999999059GA2021+999999029MW1001
0009749171999991942121017004+35133-118450SAO  +1210TSP  V0201131N003612200019N1600001N1+01021-00371999999ADDMW1001
0009723840231551942071114004+35433-119050SAO  +0130BFL  V0203381N002112200019N0480001N1+02241+99999101561ADDMW1001
0041911170999991942121408004+21483-158033SAO  +0256PHHI V0203151N001510072019N1600001N1+01911+01801101831ADDGA1051+999999059GA2031+999999049MW1001
0023788078999991942032603004+08383-080133SAO  +0031MPRH V0203601N004112200019N1600001N1+02631+02131100951ADDMD1210241+9999MW1001
0025723306138251942112820004+33633-088450SAO  +0059CBM  V0201801N007212200019N1600001N9+01411+00241101391ADDGA1061+999999029MW1001
0055722630999991942061903004+31367-100500SAO  +0585SJT  V0201351N004612200019N1600001N1+02961+01741100751ADDGA1021+021001031GA2021+999999001MD1110101+9999MW1001
0057104000999991942091221004+51283+006767FM-12+001199999V0200201N00461012301CN0020001N9+02111+99999102041ADDAY121031GF108991081091012501999999MD1010101+9999MW1171
0025724235138101942102801004+38233-085667SAO  +0167LOU  V0200901N001510180019N0064001N1+00461-00151101731ADDGA1081+999999039MW1051
0051265110999991942111309004+54933+019950FM-12+001099999V0201401N00461220001CN0200001N9+00001-00331103501ADDAY101999GF102991021051008001041021MD1110041+9999
0039947760999991942110921004-32783+151817SAO  +0008ASWM V0202931N002112200019N1600001N1+02411+01241101491ADDGA1031+999999029MD1210061+9999MW1001
0025724917232331942072910004+36667-121600SAO  +0026SNS  V0202031N001510015019N1600001N1+01351+01191101561ADDGA1081+999999079MW1511
0039745700138401942092503004+39833-084050SAO  +0254FFO  V0202701N004612200019N0064001N9+00741+00021102241ADDGA1001+999999999MD1210121+9999MW1051
0233999999118011942121923005+12133-086200SAO  +0063MNMG V02036059003650070149N160000599+02945+02115101175ADDGA1999+999999064GD19065+9999999GD29999+9999999GD39999+9999999GD49999+9999999EQDN01 00000JPWTH 1QNNE11 1 09907E11 1 09999E11 1 09999E11 1 09999G11 1 00023H11U1 15999K11 1 00070L11N1 99999N11 1 00000Q11 1 10117S11 1 00085W11 1 11007
0045723140138811942092616004+35217-080933SAO  +0234CLT  V0200451N001510012019N0012001N1+01571+01571101731ADDGA1081+999999079MD1710141+9999MW1451MW2611
0039749170999991942113009004+35117-119300SAO  +0133L17  V0202251N002112200019N1600001N1+00801+00691102001ADDGA1061+999999029MD1210041+9999MW1001
004594968099999194206200500N-41550+147220AUST +0178YMLT V0203155N006759999999N999999999+00945+99999999999ADDGA1035+007505999GF103995034999007505999999
0057788060999991942071918004+08917-079600SAO  +0007MPHO V0203201N001012200019N1600001N9+99999+99999999999ADDGA1021+006009089GA2021+999999049GA3041+999999029MW1001
0303722265138211942112422003+32383-086350SAO  +0053MXF  V02029359003652200019N1600005N9+01065+00225101225ADDGA1001+999999999GA2999+999999999GA3999+999999999GD19005+9999999GD29005+9999999GD39005+9999999GD49999+9999999EQDN01 00900CCLHT 3N02 00000JPWTH 1QNNE11 1 09900E11 1 09900E11 1 09900E11 1 09999G11 3 00900H11U1 00999H11 1 00999H11 1 00999K11 1 00036L11N1 99999N11 1 00000Q11 1 10122S11 1 00051W11 1 78007
0039726226999991942022221004+44050-075717SAO  +0210GTB  V0202701N008210054019N0080001N1-00531-00871999999ADDGA1081+999999059MD1110021+9999MW1381
0094102800999991942102715004+53600+013300FM-12+002199999V0200901N00101220001CN0040001N9+01391+01171100631ADDAY121999GF106991999001999999071001MW1051EQDQ01+000002SCOTLCQ02+000042APCTENQ03+000022APC3  
0025747686138201942082817004+30400-088917SAO  +0009BIX  V0200701N007210420019N1600001N9+02961+01911101691ADDGA1061+999999049MW1001
0057101700999991942012609004+54183+012100FM-12+000299999V0209991C00001220001CN0020001N9-02001-02171100871ADDAY171999GF107991001001999999071999MD1310121+9999MW1051
0025747750138461942110202004+30067-085583SAO  +0007PAM  V0203401N001512200019N1600001N9+01691+00911101461ADDGA1001+999999999MW1001
0089104070999991942083118004+51183+006400FM-12+002499999V0200901N00101220001CN0500001N9+03781+99999101111ADDAY101061GF101991011011017501001001IA1009KA1999M+99999MD1810201+9999EQDQ01 +02892ATMX  
0041724970999991942051419004+39783-121850SAO  +0069CIC  V0201581N007710270019N1600001N1+01691+00851999999ADDGA1011+012009089GA2081+999999049MW1001
0045723306138251942042309004+33633-088450SAO  +0059CBM  V0200501N001512200019N0064001N9+00961+00521101761ADDGA1001+999999999MD1010001+9999MW1041MW2111
0025747880128101942112620004+27850-082500SAO  +0003KMCF V0202501N006212200019N1600001N9+02301+01521101321ADDGA1031+010509089MW1001
0057105130999991942012315004+50933+007067FM-12+001599999V0201401N00931030001CN0040001N9-00781+99999102781ADDAY121031GF107991041051017501071001MD1710181+9999MW1051
0057122370999991942111209004+53467+018783FM-12+000799999V0201101N00461002401CN0100001N9-00221-00331103111ADDAY171999GF108991081051002501999999MD1510021+9999MW1221
0051107260999991942081415004+49500+010967FM-12+009299999V0203401N00101012301CN0200001N9+01781+01111101951ADDAY121031GF108991061081012501071999MD1710041+9999
0089124260999991942020106004+51667+017800FM-12+013399999V0201101N00261220001CN0040001N9-00891-01061101681ADDAY111999GF107991999001999999011001IA1309KA1999N-01001MD1310041+9999EQDQ01+000002SCOTLC
0025726226999991942082210004+44050-075717SAO  +0210GTB  V0202031N005110090019N0048001N1+02351+01851101151ADDGA1081+999999059MW1051
0009725080147401942093008004+41933-072683SAO  +0055BDL  V0201131N001512200019N0080001N1+00131-00091103081ADDMW1111
0009783550999991942102723004+21400-077917SAO  +0122MUCM V0200231N004612200019N0128001N1+02521+02071101021ADDMW1001
0009723890931931942080808004+36767-119717SAO  +0100FAT  V0202931N004612200019N0400001N1+02411+01071100951ADDMW1001
0041726071146061942111011004+44800-068817SAO  +0059BGR  V0201581N006210090019N1600001N1+00301+00021102201ADDGA1061+999999059GA2021+999999049MW1001
0039722138138351942050118004+31083-083800SAO  +0090MGR  V0201581N001512200019N0096001N1+03021+01851101931ADDGA1999+009009999MD1710241+9999MW1051
0051167500999991942051715004+35533+023817FM-12+002599999V0202701N00931220001CN0500001N9+02221+99999101641ADDAY121999GF106991011011008001001061MD1810081+9999
0051115440999991942050509004+49467+017133FM-12+021999999V0201801N00261220001CN0200001N9+00721+99999102781ADDAY101999GF104991021071012501041001MD1010021+9999
0025821930999991942101521004-01383-048483SAO  +0016SBBE V0209991C000010090019N0096001N1+02351+02301101051ADDGA1081+999999059MW1611
0025841110999991942100723004-02017-081000SAO  +0007SESA V0202251N003110039019N1600001N1+01961+01691101091ADDGA1081+999999059MW1001
0023704851999991942112819004+53367-167900SAO  +0039UNS  V0203151N015910075019N0016001N1-00371-00651101021ADDMD1810061+9999MW1171
0039722640930351942080117004+30367-104017SAO  +1481MRF  V0202031N004610150019N1600001N1+02911+01741101591ADDGA1061+999999081MD1810101+9999MW1001
0037104230999991942010806004+50700+008083FM-12+018199999V0200901N00461220001CN0100001N9+99999+99999999999ADDAY101061GF100991001001999999001999
0072135860999991942051818004+41983+021467FM-12+024099999V0203601N00101012301CN0200001N9+02001+01061101751ADDAY181999GF107991061091012501001031EQDQ01+000042APCTENQ02+000102APC3  
0070104690999991942051618004+51400+012217FM-12+004199999V0203601N01231030001CN0200001N9+01781+00221101061ADDAY121061GF108991021011012501011071IA1009KA1999M+01891MD1710101+9999
0051124650999991942072603004+51717+019400FM-12+017699999V0201801N00461220001CN0100001N9+01721+01611101631ADDAY111999GF106991001001999999071999MD1810121+9999
0057107270999991942020221004+49017+008383FM-12+003599999V0209991C00001007801CN0020001N9-00611-00781102241ADDAY121031GF108991081051008001999999MD1310141+9999MW1051
0041722860231191942022719004+33900-117250SAO  +0466RIV  V0200701N005112200019N0160001N9+01051+00501101221ADDGA1001+999999999GA2051+999999039MW1001
0057749027999991942072911004+08850-079783SAO  +009499999V0202701N001510360019N1600001N1+02521+02461999999ADDGA1031+012009059GA2031+999999049GA3021+999999029MW1001
0035742060242071942071417004+47150-122483SAO  +0086TCM  V0202301N002610105019N0112001N9+01741+01351101321ADDGA1061+999999059GA2021+999999039
0039724956232111942050212004+38067-122517SAO  +0003SRF  V0201351N001512200019N1600001N1+00691+00351102031ADDGA1021+999999009MD1710041+9999MW1001
0051105170999991942021215004+50767+007167FM-12+001899999V0202001N006719999999N0200001N9+00111+99999101401ADDAY121031GF107991999001022501071999MD1810201+9999
0039727826241411942123015004+47317-119517SAO  +0388EPH  V0209991C000010150019N0160001N1-00651-00811999999ADDGA1081+999999059MD1210041+9999MW1001
0070106090999991942072406004+49750+006667FM-12+008199999V0202301N00461007801CN0200001N9+01281+99999101991ADDAY121061GF108991081051008001999999IA1089KA1999N+01281MD1310141+9999
0041916800999991942111600004-17750+177450SAO  +0018NFFN V0202251N004112200019N1600001N1+02911+01411100751ADDGA1021+012009089GA2021+999999049MW1001
0025722266138501942122908004+32350-086983SAO  +0054SEM  V0202481N004610036019N0112001N1+00961+00741101351ADDGA1081+999999079MW1001
0039726071146061942040712004+44800-068817SAO  +0059BGR  V0200231N007210180019N1600001N1+00241-00371101631ADDGA1081+999999049MD1110281+9999MW1001
0051106320999991942041518004+49933+008217FM-12+007099999V0200501N00671220001CN0100001N9+01221+00612102641ADDAY101061GF101991011041017501001011MD1810101+9999
0055722268938431942072321004+31317-085450SAO  +0122DHN  V0203601N003610240019N1600001N1+03021+02181101151ADDGA1021+007509089GA2051+999999039MD1710141+9999MW1001
0009722650999991942092916004+31933-102200SAO  +0871MAF  V0202031N003612200019N1600001N1+02131+00521102441ADDMW1001
0025719430999991942081516004+56233-120733SAO  +0695CYXJ V0201801N001512200019N0096001N1+01521+00851101781ADDGA1031+999999039MW1051
0055724810232031942042101004+37333-120517SAO  +0053MER  V0203601N008210360019N0096001N9+02071+01351100751ADDGA1031+013509059GA2051+999999029MD1310041+9999MW1061
0025723306138251942121105004+33633-088450SAO  +0059CBM  V0201401N003112200019N0064001N9+00741+00521102241ADDGA1081+999999039MW1051
0025725755241011942021804004+41117-111967SAO  +1459HIF  V0200701N005112200019N1600001N9-01591-02031103251ADDGA1001+999999999MW1001
0039911840999991942032109004+21333-157717SAO  +001899999V0200681N004610060019N1600001N1+02241+02021101731ADDGA1081+999999059MD1110081+9999MW1001
0041911840999991942061420004+21333-157717SAO  +001899999V0200451N009810150019N1600001N1+02521+01961102031ADDGA1041+009009089GA2011+999999039MW1001
0025702615999991942011808004+64850-147583SAO  +0148FBK  V0209991C000012200019N0320001N1-01871-02091999999ADDGA1999+018009999MW1001
0025785470116241942032716004+17700-064800SAO  +0017TISX V0201131N005712200019N1600001N1+02801+02181101151ADDGA1031+009009089MW1001
0009717050999991942060101004+46117-064683SAO  +0071CYQM V0203151N003612200019N0240001N1+00581+00241101931ADDMW1001
0039722268938431942091914004+31317-085450SAO  +0122DHN  V0203601N003612200019N1600001N1+02741+02181101731ADDGA1021+999999039MD1210101+9999MW1001
0053723530139671942090222004+35400-097600SAO  +0397OKC  V0201801N005110060019N0064001N1+02242+02131101191ADDGA1051+999999049GA2031+999999049MW1171MW2801MW3951
0039724920232371942011612004+37900-121250SAO  +0008SCK  V0202701N003112200019N0008001N1+00351+00351102271ADDGA1021+009009059MD1810041+9999MW1111
0108879120999991942121612004-50000-068517FM-12+001199999V0202901N002619999999N0200001N9+01721+00501101451ADDAY101999GF104991999051022501001001IA1009KA1999M+02111KA2999N+01001MD1010021+9999MW1011EQDQ01+000022SCOTLC
0025812250999991942120708004+05450-055200SAO  +0015SMZY V0209991C000012200019N0112001N1+02181+02131100681ADDGA1021+999999049MW1001
0051107630999991942122812004+49483+011100FM-12+009699999V0200501N00101220001CN0100001N9+00001-00721102631ADDAY101061GF100991001001999999001001MD1710201+9999
0051122500999991942032312004+53033+018567FM-12+004799999V0202501N00101220001CN0100001N9+00391-00611102901ADDAY101999GF100991001001999999001001MD1810081+9999
0025042310999991942042413004+66967-050917SAO  +0047BGSF V0209991C000012200019N1600001N1-00921-01591100261ADDGA1001+999999999MW1001
0025703610253391942110817004+59517-139667SAO  +0009CYAK V0200681N001012200019N1600001N1-00091-00421101291ADDGA1999+021009999MW1001
003672205112841194211201000D+28550-081333SAO  +0034ORL  V0203151N000512200019N0024001N1+01631+01631102241ADDAA101000095GA1011+007509059MW1111
004594999900222194211220400N-33050+151600AUST +0009     V0203155N009359999999N999999999+02995+99999999999ADDGA1045+006005999GF104995044999006005999999
0039749132999991942101618004+60683-046533SAO  +006299999V0202931N001510024019N1600001N1+00131+00081100371ADDGA1081+999999079MD1210041+9999MW1001
0057104690999991942121109004+51400+012217FM-12+004199999V0201601N00461220001CN0020001N9+00611+00221101591ADDAY101031GF100991001001999999001001MD1510021+9999MW1051
0051108354999991942053109004+48717+009700FM-12+011599999V0201101N00261036001CN0500001N9+01501+00611101751ADDAY121031GF107991041021012501041061MD1990081+9999
0040719360999991942122608004+62467-114450FM-12+020099999V02099999999999999999N9999999N9+99999+99999999999ADDAA124000691KA1999M-02561KA2999N-03171
0057111650999991942031312004+47200+014767FM-12+066999999V0201101N00101004501CN0100001N9-00281+99999102371ADDAY121061GF108991081051004501999999MD1010081+9999MW1161
0023724920232371942071915004+37900-121250SAO  +0008SCK  V0203151N002612200019N1600001N1+01961+01351101561ADDMD1210101+9999MW1001
0025719090999991942060621004+63750-068550SAO  +0020CYFB V0201351N004610060019N1600001N1+00131-00151100001ADDGA1081+999999059MW1001
0057103370999991942071721004+52150+009750FM-12+002799999V0202001N00101007801CN0100001N9+01501+99999100631ADDAY121999GF107991061081008001999999MD1410001+9999MW1051
0043109540999991942011415004+47817+010883FM-12+022199999V0202301N00101007801CN0020001N9+99999+99999999999ADDAY121031GF107991061051008001071999MW1051
0025747910137171942111407004+33683-078933SAO  +0008MYR  V0203201N002612200019N0112001N9+00911+00021999999ADDGA1001+999999999MW1001
0009722268938431942030313004+31317-085450SAO  +0122DHN  V0202481N005712200019N0112001N1+00191-00091101291ADDMW1001
0009727826241411942080316004+47317-119517SAO  +0388EPH  V0200231N004612200019N0320001N1+02911+99999999999ADDMW1001
0041749076999991942060220004+38833-085417SAO  +0268MDN  V0202701N003612200019N1600001N1+03181+01741101661ADDGA1021+018009059GA2051+999999009MW1001
0041789480999991942040402004+13750-060950SAO  +0003TLPL V0200901N006710180019N1600001N1+02631+02131999999ADDGA1021+009009059GA2061+999999039MW1001
0039743700999991942091221004+44050-075717SAO  +0211GTB  V0201801N006212200019N0096001N9+02241+01521100851ADDGA1061+999999039MD1710341+9999MW1051
0025724338138021942101813004+38550-089983SAO  +0134BLV  V0202901N001510240019N0016001N9+01461+01021102171ADDGA1051+999999039MW1051
0025722745231091942033002004+32183-110917SAO  +0782DMA  V0203201N001512200019N1600001N9+01911-00421101251ADDGA1001+999999999MW1001
0087125250999991942112706004+50833+017433FM-12+004799999V0203201N00461004501CN0040001N9+00281+00171102171ADDAA199000691AY151999GF108991081051004501999999IA1089KA1999N+00111MD1210161+9999MW1201
0025723273999991942092013004+36000-086500SAO  +0166MQY  V0203601N004610036019N0096001N1+99999+99999999999ADDGA1081+999999079MW1511
003672205112841194202230800D+28550-081333SAO  +0034ORL  V0203151N000512200019N0096001N1+00461+00411101561ADDAA101000095GA1021+999999089MW1111
0057265090999991942050303004+55700+021133FM-12+000199999V0202301N00101004501CN0020001N9+00391+00331100571ADDAY161999GF108991081051004501999999MD1710121+9999MW1611
0025727130146041942112208004+46683-068050SAO  +0146PQI  V0203381N001510108019N1600001N1-00871-01371102071ADDGA1061+999999059MW1001
0025749027999991942122407004+08850-079783SAO  +009499999V0203151N000512200019N1600001N1+02241+02181999999ADDGA1061+999999029MW1001
0051105010999991942092509004+50783+006100FM-12+006399999V0202301N01231220001CN0200001N9+01391+00941100421ADDAY181031GF104991041021004501001001MD1310161+9999
0025840010999991942111216004-00450-090267SAO  +0016SEGS V0202031N005110075019N1600001N1+02241+01691101441ADDGA1081+999999059MW1001
0025723011137481942070913004+34267-077900SAO  +0008ILM  V0202251N005112200019N1600001N1+02681+02301101561ADDGA1051+999999049MW1001
0041783970999991942051323004+17933-076783SAO  +0009MKJP V0200901N001012200019N1600001N1+02801+02071101321ADDGA1021+999999039GA2021+999999009MW1001
0081104680999991942102206004+51833+012200FM-12+001899999V0202901N01231007801CN0200001N9+00891+00671101351ADDAA199007091AY161061GF108991081051008001999999IA1109KA1999N+00781MD1210081+9999
0009702720999991942031105004+61200-149767SAO  +0055PAED V0201801N003610075019N0080001N9-00311-00761098681ADDMW1711
0089879380999991942102112004-54800-068300FM-12+000799999V0201801N001019999999N9999999N9+00221-00061100731ADDAY131999GF108991081061999999999999IA1089KA1999M+01001KA2999N+00111MD1610221+9999MW1131
0057723650230501942072817004+35050-106667SAO  +1620ABQ  V0203601N001512200019N1600001N9+02801+01071101691ADDGA1021+999999059GA2021+999999039GA3011+999999019MW1001
