0015723140138811943013104004+35217-080933SAO  +0234CLT  V0209991C000012200019N0016001N1+00081+00021102881ADDMW1041MW2111
0023722505129041943082809004+26233-097667SAO  +0011HRL  V0209991C000012200019N1600001N1+02411+02241101351ADDMD1810061+9999MW1001
0025747320999991943032905004+32850-106083SAO  +1240HMN  V0201101N002112200019N1600001N9+01801-00761101251ADDGA1001+999999999MW1001
0025749023999991943101908004+06750-011250SAO  +000099999V0200681N001510075019N1600001N1+02411+02181101081ADDGA1081+999999059MW1001
0039749098999991943060718004+30833-093367SAO  +0061DRI  V0202251N002112200019N1600001N1+03241+02071101901ADDGA1031+012009089MD1710061+9999MW1001
0025702720999991943110611004+61200-149767SAO  +0055PAED V0200901N002612200019N0480001N9-01481-01641102511ADDGA1001+999999999MW1001
0039704820256261943122021004+52950-168850SAO  +0021IKO  V0200451N003610090019N0400001N1-00481-01091100681ADDGA1061+999999059MD1210141+9999MW1001
0025914870999991943052302004+03850-159367SAO  +0005PLFA V0200901N001510180019N1600001N1+02911+02521101021ADDGA1061+006009059MW1001
0025783970999991943081207004+17933-076783SAO  +0009MKJP V0200231N002112200019N1600001N1+02351+02181101321ADDGA1021+007509089MW1001
0100871200999991943050112004-26833-065167FM-12+042799999V0201801N00101004501CN0010001N9+01501+01281102301ADDAA124024091AY161999GF108991081061004501999999IA1109KA1999M+02781KA2999N+01501MD1210101+9999MW1511
0009722688930341943091119004+32683-103217SAO  +1115HOB  V0202481N008212200019N1600001N1+03351+00691101391ADDMW1001
0009425910999991943042615004+24750+084950SAO  +0016VEGY V0202701N001012200019N0128001N1+03071+00961099971ADDMW1001
0009725265999991943112910004+40200-100583SAO  +0786MCK  V0202251N006212200019N1600001N1-00811-00981102341ADDMW1001
0025828981999991943102411004-08117-034917SAO  +0009SBRF V0200901N005110075019N1600001N1+02801+02181101391ADDGA1051+999999089MW1001
0025749438999991943032313004-12700+143300SAO  +001899999V0209991C000010120019N1600001N1+02411+02351100911ADDGA1081+999999059MW1001
0009749093999991943103108004+34367-099000SAO  +0377FDR  V0202481N006212200019N1600001N1+01191-00371100541ADDMW1001
0025783134128571943070115004+22100-084150SAO  +0030MUSJ V0201351N004610120019N1600001N1+02851+02351101901ADDGA1081+999999059MW1001
0025724855231531943020907004+38067-117083SAO  +1654TPH  V0202931N005112200019N0640001N1-00481-01481100571ADDGA1031+999999049MW1001
0035742060242071943052901004+47150-122483SAO  +0086TCM  V0203601N002610360019N0160001N9+01851+00631101591ADDGA1021+010509089GA2051+999999039
0055914900999991943093014004+01983-157483SAO  +0003PLCH V0200901N004112200019N1600001N1+02461+02131100981ADDGA1021+005409089GA2021+999999039MD1310041+9999MW1001
0043800280999991943083121004+10883-074783FM-12+002399999V0201801N00211001501CN0010001N9+02391+99999100951ADDAY161999GF108991081091001501001999MW1601
0055940350999991943073001004-09433+147217SAO  +0047AYPY V0202031N002110090019N1600001N1+02741+99999101121ADDGA1061+999999059GA2011+999999049MD1110041+9999MW1001
0025605250999991943022307004+34800+005733SAO  +0087DAUB V0203151N002110150019N1600001N1+01191+00961102571ADDGA1081+999999059MW1001
0041722280138761943103116004+33567-086750SAO  +0192BHM  V0201801N004610045019N0112001N1+02021+01741101801ADDGA1061+999999059GA2021+999999049MW1001
0039945750999991943120203004-27567+153000SAO  +0018ABBN V0200231N003612200019N1600001N1+02681+01571101421ADDGA1021+015009089MD1710181+9999MW1001
0041749045999991943062413004+27467-081367SAO  +0020SEF  V0201131N003612200019N1600001N1+02851+02411101661ADDGA1041+007509089GA2021+999999029MW1001
0025724663999991943042308004+38783-104717SAO  +1881PEF  V0201351N005110390019N1600001N1+00961+00301102171ADDGA1061+999999039MW1001
0035719380999991943010912004+67817-115167FM-12+000499999V0200701N005119999999N0020001N9-01391+99999099151ADDGF108991081999002501999999MW1361
0057724586139221943101011004+38817-097650SAO  +0379SLN  V0201351N001512200019N1600001N1+01021+00581101591ADDGA1001+999999999GA2001+999999999GA3001+999999999MW1001
0039727755241121943012315004+47500-111167SAO  +1054KGFA V0203401N001510024019N0016001N9-03091-03421101121ADDGA1081+999999079MD1510281+9999MW1711
0041722687930331943061916004+32333-104267SAO  +1004CNM  V0201581N005112200019N1600001N1+02631+01521101321ADDGA1011+999999049GA2051+999999029MW1001
0023724663999991943111909004+38783-104717SAO  +1881PEF  V0201131N005712200019N1600001N1+00351-00421102641ADDMD1710141+9999MW1001
0057107650999991943070903004+49250+011100FM-12+011799999V0202301N00101036001CN0100001N9+00781+00671101551ADDAY121031GF108991041051008001021999MD1210081+9999MW1051
0031704545999991943121311004+51383+179267SAO  +0069AHT  V0200901N021110018019N0032001N1+00021+00021099391ADDGA1081+999999049MW1381MW2711
0058749000999991943110212004+35367-086050SAO  +0331TUH  V0202031N001510135019N0080001N1+01741+01571102071ADDGA1081+999999059MD1410001+9999MW1051EQDQ01+000012APCTEN
0057123400999991943030703004+52800+018300FM-12+008699999V0203401N00261220001CN0040001N9-00111-00221103091ADDAY121999GF100991001001999999001001MD1210201+9999MW1051
0023043610999991943110718004+65567-037117SAO  +0327BGKK V0200451N001010030019N0016001N1-00311-00421099491ADDMD1810121+9999MW1711
0041724096147061943070623004+40033-074600SAO  +0038WRI  V0200901N005112200019N1600001N9+02411+01801101491ADDGA1001+999999999GA2061+999999029MW1001
0019724660930371943022819004+38817-104700SAO  +1881COS  V0201401N003110480019N1600001N9+00691-00531101191ADDGA1051+999999049
0025749044999991943112805004+26367-080100SAO  +0005BCT  V0202701N001512200019N1600001N1+01851+01741101731ADDGA1011+009009089MW1001
0039724956232111943041018004+38067-122517SAO  +0003SRF  V0200901N001512200019N1600001N1+01691+00301101251ADDGA1011+999999049MD1110061+9999MW1051
0035724660930371943110301004+38817-104700SAO  +1881COS  V0203601N003612200019N1600001N9-00151-01151103251ADDGA1021+999999049GA2031+999999029
0025723825231311943041507004+34583-117383SAO  +0875VCV  V0201801N004610360019N1600001N9+01021+00581101491ADDGA1051+999999059MW1001
0025432960999991943072303004+12950+077633SAO  +0897VOBG V0202701N004610024019N1600001N1+02071+01851999999ADDGA1061+999999079MW1001
0025812250999991943061301004+05450-055200SAO  +0015SMZY V0200901N001512200019N1600001N1+02411+02351101421ADDGA1061+999999029MW1001
0009722165138151943112721004+31583-084117SAO  +0065TRF  V0202931N002112200019N0064001N1+02301+00851101691ADDMW1051
0009749002999991943092902004+52500+000950SAO  +000099999V02099999999999999999N0000001N1+99999+99999999999ADDMW1001
0058724970999991943020309004+39783-121850SAO  +0069CIC  V0209991C000010180019N0080001N1+00631+99999102441ADDGA1061+999999039MD1110041+9999MW1451EQDQ01+028002ATOD  
0041722280138761943110120004+33567-086750SAO  +0192BHM  V0201801N004610120019N1600001N1+02631+01571102171ADDGA1051+999999089GA2021+999999039MW1001
0025605054999991943022502004+35550-000533SAO  +0112DAOL V0201801N001510210019N0064001N1+00691+00691102341ADDGA1061+999999049MW1111
0023749035999991943011209004+08250-080567SAO  +0046MADU V0200681N004112200019N1600001N1+02131+99999101051ADDMD1610161+9999MW1001
0039567780999991943081221004+25017+102683SAO  +1892ZPPP V0209991C000010150019N0112001N1+01741+01631100311ADDGA1081+999999059MD1510121+9999MW1001
0025717050999991943061711004+46117-064683SAO  +0071CYQM V0202251N003612200019N0240001N1+01241+01131101571ADDGA1011+999999009MW1001
0051121620999991943121603004+54483+019967FM-12+000499999V0203401N00261007801CN0200001N9+00391+00171102971ADDAY121999GF107991071051008001999999MD1310161+9999
0041820300999991943121722004+02067-050850SAO  +0010SBAM V0200901N002112200019N1600001N1+02741+02351100851ADDGA1021+006009089GA2021+999999049MW1001
0025749073999991943100107004+32400-086250SAO  +0067GUN  V0203151N002612200019N1600001N1+01741+01411101561ADDGA1041+999999049MW1001
0009749430999991943090605004-13300+131133SAO  +013199999V0201131N002612200019N1600001N1+03351+00461100941ADDMW1001
0025418620999991943111523004+25883+089483SAO  +0034VGLM V0203381N001012200019N0012001N1+01631+01631999999ADDGA1031+999999039MW1111
0025745700138401943030905004+39833-084050SAO  +0254FFO  V0201101N004112200019N0096001N9-00761-01371103621ADDGA1001+999999999MW1051
0025726071146061943110804004+44800-068817SAO  +0059BGR  V0202701N001510090019N0128001N1+00521+00351103221ADDGA1081+999999059MW1001
0051266990999991943040412004+54783+020617FM-12+000699999V0202701N01231220001CN0500001N9+01001+00111102071ADDAY101999GF104991011011008001001031MD1710081+9999
0023749184999991943072621004+44667-121167SAO  +0744S33  V0202481N003112200019N1600001N1+03131+00581101931ADDMD1710161+9999MW1001
0041719676999991943110423004+60783-137550SAO  +0655CYHT V0203151N002112200019N0320001N1-00091-00591999999ADDGA1011+004509059GA2031+999999009MW1001
0040719371999991943122208004+66083-118033FM-12+018399999V02099999999999999999N9999999N9+99999+99999999999ADDAA124008091KA1999M-01391KA2999N-01611
0057124060999991943111200004+51550+015583FM-12+003999999V0202701N00461002401CN0020001N9+00391+00281101281ADDAY161999GF108991081051002501999999MD1810121+9999MW1201
0039724096147061943103115004+40033-074600SAO  +0038WRI  V0203201N003612200019N1600001N9+00961+00191101931ADDGA1011+015009089MD1110101+9999MW1001
0009749142999991943022620004+67100-062350SAO  +004099999V0209991C000012200019N1600001N1-02921-04031100001ADDMW1001
0009749112999991943123004004+40583-097567SAO  +050018NE V0201801N003612200019N1600001N1-00921-01311101561ADDMW1001
0025725755241011943102008004+41117-111967SAO  +1459HIF  V0203201N005110270019N0240001N9+00301-00261101121ADDGA1061+999999039MW1001
0039726810241311943102212004+43567-116217SAO  +0874BOI  V0201131N003610360019N1600001N1+00461+00021101731ADDGA1081+018009049MD1210081+9999MW1001
0050724088137071943090612004+39133-075467SAO  +0006KDOV V0202301N005110240019N0040001N9+02461+02241101631ADDAA124999999GA1061+999999039MD1210041+9999MW1111
0055722865931801943121200004+34050-117600SAO  +0287ONT  V0200681N001010180019N0240001N1+01411+01021101521ADDGA1051+999999059GA2021+999999049MD1710101+9999MW1001
0025722970231291943082010004+33817-118150SAO  +0012LGB  V0209991C000010021019N0064001N1+01741+01631101121ADDGA1081+999999079MW1051
0025723066137131943090420004+35333-077967SAO  +0033GSB  V0201601N003612200019N1600001N9+03181+01961999999ADDGA1041+010509089MW1001
0055749110999991943121718004+40333-097417SAO  +047186Y  V0202251N009812200019N1600001N1+00191-00371102911ADDGA1011+999999049GA2051+999999009MD1710301+9999MW1001
0009749430999991943092023004-13300+131133SAO  +013199999V0202701N001512200019N1600001N1+02851+01961101241ADDMW1001
0041749140999991943092320004+66033-053567SAO  +001399999V0200451N008212200019N0480001N1+00241-00311102081ADDGA1021+999999039GA2061+999999029MW1001
0031722235138381943010817004+30633-088067SAO  +0008BFM  V0203381N004110021019N0064001N1+00801+00581102171ADDGA1081+999999059MW1041MW2451
0025722250138291943011423004+32333-085000SAO  +0071LSF  V0202001N003612200019N0144001N9+01301+00411101051ADDGA1021+999999009MW1001
0072839950999991943122212004-11083-043167FM-12+040899999V0203601N002619999999N9999999N9+02281+99999101151ADDAA124012091GF108991999999999999999999KA1999M+02611KA2999N+02111MW1111
0023749059999991943050809004+34083-004917SAO  +0401GFEZ V0209991C000012200019N1600001N1+01521+00691102241ADDMD1310061+9999MW1001
0025722615220011943030814004+29350-100783SAO  +032399999V0201401N001510090019N1600001N9+00351-00531999999ADDGA1081+999999059MW1001
0009724089137811943011211004+39683-075600SAO  +0024ILG  V0202251N003112200019N0064001N1-00151-00371100751ADDMW1051
0025724089137811943121510004+39683-075600SAO  +0024ILG  V0203151N006210360019N0112001N1-00871-01531102711ADDGA1051+999999049MW1001
0041911860999991943070415004+21150-157100SAO  +0037MKK  V0200901N005112200019N1600001N1+02351+02021101561ADDGA1011+009609089GA2041+999999009MW1001
0055719640999991943031903004+60717-135067SAO  +0703CYXY V0202031N003610150019N0640001N1-00261-01371101871ADDGA1061+999999059GA2011+999999029MD1710241+9999MW1001
0025722860231191943060310004+33900-117250SAO  +0466RIV  V0201601N004110042019N0160001N9+01221+00941100981ADDGA1081+999999079MW1001
0057105170999991943062515004+50767+007167FM-12+001899999V0202701N00101220001CN0100001N9+02111+99999102211ADDAY121031GF101991011021017501001001MD1710161+9999MW1051
015199999913739194310131200E+39883-075233SAO  +000899999V02022559001550000049N000400599+00565+00505102545ADDAA101000095MA1999999102445MW1045MW2445EQDN01 07280JPWTH 1QNNG11 1 00000K11 1 00041L11 1 00025M11 1 30250N11 1 07280Q11 1 10254S11 1 00042W11 1 66003
0025749278999991943030708004+35683+000183SAO  +010099999V0202481N001512200019N1600001N1+01241+00801101321ADDGA1021+999999029MW1001
0025424160999991943101315004+26717+092800SAO  +007599999V0201801N001012200019N1600001N1+02411+02241101291ADDGA1021+007509089MW1001
0076115180999991943021106004+50100+014283FM-12+036399999V0201801N00461220001CN0040001N9+00001+99999101681ADDAY111999GF104991021051012501041011IA1139KA1999N+00001MD1310141+9999MW1051
0039747880128101943042815004+27850-082500SAO  +0003KMCF V0200701N002112200019N0064001N9+02631+01801102171ADDGA1001+999999999MD1210101+9999MW1451
0009724050137431943112708001+38850-077033SAO  +0020DCA  V0201801N002112200019N0080001N1+00631-00261101561ADDMW1051
0031722266138501943112910004+32350-086983SAO  +0054SEM  V0203151N001510090019N0032001N1+00961+00851101421ADDGA1081+999999079MW1041MW2451
0009749231999991943040411004+60350-172700SAO  +002999999V0200231N005712200019N0112001N1-01371-01811101931ADDMW1001
0076724586139221943010110004+38817-097650SAO  +0379SLN  V0200901N001012200019N0080001N1-00091-00311999999ADDGA1001+999999999GA2001+999999999GA3001+999999999MW1111EQDQ01    003PRSWM1
0039911620225011943060618004+22050-159783SAO  +0005PHBK V0201801N003610090019N1600001N1+02351+02131101491ADDGA1061+999999059MD1210041+9999MW1001
0039749044999991943061606004+26367-080100SAO  +0005BCT  V0200451N001012200019N1600001N1+02411+02241101661ADDGA1021+009009089MD1710081+9999MW1001
0025701160266181943112702004+65617-168050SAO  +0005WAA  V0200901N006710360019N0480001N1-00201-00371100811ADDGA1081+999999049MW1001
0041788071999991943082911004+08967-079550SAO  +0012MBLB V0203151N001012200019N0128001N1+02351+02241101081ADDGA1021+000609059GA2061+999999029MW1001
0041788078999991943042719004+08383-080133SAO  +0031MPRH V0201351N003610360019N1600001N1+02681+02241101191ADDGA1021+018009059GA2021+999999039MW1001
0023725570149431943122506004+42400-096383SAO  +0336SUX  V0201351N004612200019N1600001N1-00701-00981101901ADDMD1710101+9999MW1001
0041979800999991943013020004-08467+140383SAO  +0003WABM V0209991C000010075019N1600001N1+02521+02461100701ADDGA1051+999999059GA2031+999999049MW1001
0023723406999991943050503004+36133-090933SAO  +0084ARG  V0201351N002112200019N1600001N1+01851+00631101561ADDMD1210021+9999MW1001
0031749322999991943081800004+25417+100733SAO  +196799999V0209991C000010030019N0048001N1+01631+01571999999ADDGA1081+001509049MW1451MW2611
0051103870999991943043012004+52533+013117FM-12+001099999V0203201N00671007801CN0500001N9+01001+00111101831ADDAY121061GF107991061081008001061999MD1710061+9999
0025841110999991943102507004-02017-081000SAO  +0007SESA V0202701N002610102019N1600001N1+01961+01691101191ADDGA1081+002409059MW1001
0087118160999991943070706004+48200+017200FM-12+013399999V0209991C00001002401CN0020001N9+01781+99999100501ADDAA199007091AY161999GF108991081061002501999999IA1089KA1999N+01721MD1710181+9999MW1631
0045719340999991943112800004+60017-111967SAO  +0203CYSM V0202931N005710015019N0048001N1-00151-00311999999ADDGA1081+999999079MD1210161+9999MW1451MW2711
013999999913739194311140500E+39883-075233SAO  +000899999V02027059005752200049N160000599+00065-00615102375ADDAA101000095MA1999999102275EQDN01 00000JPWTH 1QNNG11U1 99999K11 1 00021L11N1 99999M11 1 30200N11 1 00000Q11 1 10237S11 1 00033W11 1 77011
0087107380999991943050606004+48700+009200FM-12+011899999V0202001N00101012301CN0100001N9+01111+00891101761ADDAA199000691AY111061GF107991061071012501071999IA1089KA1999N+00721MD1710221+9999MW1501
0039724920232371943041515004+37900-121250SAO  +0008SCK  V0202251N002610090019N0112001N1+01241+00851101661ADDGA1081+999999059MD1110141+9999MW1001
0039724467139301943110806004+38767-093550SAO  +0265SZL  V0202701N009810060019N0112001N9-00041-00311101251ADDGA1081+999999059MD1810061+9999MW1711
0265999999118011943090918005+12133-086200SAO  +0063MNMG V02011359011359999999N160000599+03285+99999100955ADDGA1999+009144084GA2999+999999004GD19025+9999999GD29055+9999999GD39999+9999999GD49999+9999999EQDN01 00800CCLHT 3N02 00000JPWTH 1QNNE11 1 09903E11 1 09906E11 1 09999E11 1 09999G11 3 00800H11 1 11030H11 1 32999L11N1 99999N11 1 00000Q11 1 10095S11 1 00091W11 1 34022
0039722520999991943021000004+27533-099450SAO  +0158LRD  V0201581N002112200019N1600001N1+02741+01071099971ADDGA1061+999999009MD1810061+9999MW1001
0037788079999991943090920004+07517-078150SAO  +0009MPJE V0202931N006210030019N0064001N1+02571+02521100751ADDGA1081+999999059MW1171MW2801MW3951
0023749105999991943101215004+40733-073600SAO  +003899999V0202251N002612200019N0020001N1+01571+00691102811ADDMD1810061+9999MW1051
0025724565139201943011308004+38950-095667SAO  +0323FOE  V0200501N004610540019N0128001N9-00261-00531102571ADDGA1081+999999049MW1001
0071812250999991943011912004+05450-055200SAO  +0015SMZY V0200681N002110480019N0144001N1+02571+02241100851ADDGA1021+009009089GA2051+999999039GA3011+999999009MD1210201+9999MW1001
0041725690240891943080114004+42917-106467SAO  +1612CPR  V0202251N006710540019N1600001N1+02851+00911100341ADDGA1021+024009039GA2061+999999009MW1001
0076108650999991943032006004+48183+011550FM-12+015599999V0201101N00101036001CN0040001N9+00111-00441102371ADDAY121061GF107991041051022501031999IA1009KA1999N-00111MD1310021+9999MW1051
0055724050137431943061300001+38850-077033SAO  +0020DCA  V0201581N004112200019N0096001N1+02521+01961101861ADDGA1021+015009059GA2011+999999039MD1310041+9999MW1051
0041780160136011943042023004+32367-064683SAO  +0006TXKF V0201801N007712200019N1600001N9+02071+01961102001ADDGA1021+004509089GA2011+999999049MW1001
0009724635230671943101316004+38050-103517SAO  +1292LHX  V0202251N005112200019N1600001N1+01741-00261101461ADDMW1001
0055789880999991943030415004+12200-068967SAO  +0067TNCC V0200681N005112200019N1600001N1+02801+02181101521ADDGA1021+006009089GA2041+999999029MD1110101+9999MW1001
0009749166999991943102105004+33750-115333SAO  +0165DSC  V0202251N001512200019N0480001N1+01571+00351999999ADDMW1001
0025942830999991943052511004-15433+145183SAO  +000999999V0201351N003112200019N1600001N1+02241+01851101521ADDGA1011+009009059MW1001
0025724285138121943030111004+39817-082933SAO  +0225LCK  V0201601N003112200019N0080001N9-00481-00871101631ADDGA1011+015009059MW1051
0051109350999991943082215004+47667+009500FM-12+012299999V0201801N00101036001CN0200001N9+02281+01611100831ADDAY121031GF108991021051012501021999MD1710101+9999
0039783970999991943122502004+17933-076783SAO  +0009MKJP V0203601N001512200019N1600001N1+02241+02071101631ADDGA1011+999999009MD1210121+9999MW1001
0025724087999991943112214004+40100-074017SAO  +000154N  V0202931N006212200019N1600001N1+00461-00091101561ADDGA1021+009009089MW1001
0025604190999991943032001004+36283+006617SAO  +0694DABC V0201131N000512200019N0096001N1-00041-00041101801ADDGA1011+009009089MW1051
0039722675230211943122909004+33600-102250SAO  +1009REE  V0202701N002112200019N1600001N9-00651-00811102401ADDGA1001+999999999MD1610161+9999MW1001
0009701043999991943101316004+68350-166800SAO  +0004PHO  V0201801N001512200019N0560001N1-00311-00371100241ADDMW1001
0055749203999991943121622004+51550-178800SAO  +001599999V0201131N013410060019N0144001N1+00301-00041100511ADDGA1061+999999059GA2021+999999049MD1310201+9999MW1801
0041040300999991943101502004+64133-021900SAO  +0061BIRK V0202031N002110075019N0320001N1+00131+00021098581ADDGA1021+999999089GA2031+999999039MW1001
0035829900999991943081800004-09767-037450FM-12+004499999V0201401N004619999999N9999999N9+02111+99999101771ADDGF108991999999999999999999MW1601
0100878520999991943051912004-46533-068933FM-12+038099999V0202701N004619999999N0200001N9+00611-00221099381ADDAA124001091AY101999GF101991011021002501001001IA1089KA1999M+01221KA2999N+00611MD1310321+9999MW1011
0025718010999991943123013004+47583-052700SAO  +0017CYYT V0202251N003610090019N0024001N1-00091-00091101661ADDGA1081+999999059MW1451
0041655920999991943062206004+04417-007367SAO  +0021DITB V0203601N000510300019N1600001N1+02521+02071101491ADDGA1021+006009059GA2031+999999039MW1001
0039943350999991943081807004-20717+140517SAO  +019099999V0202031N005112200019N1600001N1+02681+00411101281ADDGA1021+999999039MD1110041+9999MW1001
0031722138138351943012213004+31083-083800SAO  +0090MGR  V0202031N001010150019N0040001N1+01071+00961101901ADDGA1081+999999079MW1041MW2451
0057719530999991943072801004+60117-128817SAO  +0690CYQH V0202701N012310150019N0640001N1+02021+00851100771ADDGA1061+999999059GA2021+999999039GA3011+999999009MW1001
0071749027999991943091318004+08850-079783SAO  +009499999V0201351N006712200019N1600001N1+02961+02301100951ADDGA1011+008709089GA2021+999999039GA3031+999999029MD1810281+9999MW1001
0031747910137171943012509004+33683-078933SAO  +0008MYR  V0201601N001510090019N0012001N9+01071+01071101391ADDGA1061+999999059MW1041MW2111
0039722687930331943020218004+32333-104267SAO  +1004CNM  V0202251N014412200019N1600001N1+01411-00421101391ADDGA1021+021009089MD1710061+9999MW1001
0009725816999991943102205004+40183-112933SAO  +1326DPG  V0201581N001512200019N0320001N1+00241+00241101631ADDMW1001
0035837820999991943070500004-23933-046150FM-12+000999999V0209991C000019999999N9999999N9+02111+99999101761ADDGF104991999999999999999999MW1111
0009749064999991943070122004+34200-004183SAO  +0564GMFT V0202701N008212200019N1600001N1+02021+01301101441ADDMW1001
0009749075999991943021819004+38767-087600SAO  +0131LMV  V0202251N002112200019N0048001N1+01021+00021103251ADDMW1051
0043035420999991943112908004+52567+001167FM-12+004999999V0202301N00671220001CN0040001N9+00391+00111999999ADDAY121999GF107991001001999999071999MW1051
0039695023999991943041416004-10583+142300SAO  +0038KQXC V0201131N004612200019N1600001N1+02681+02461100751ADDGA1011+006009089MD1710161+9999MW1001
0037109820999991943110109004+47867+012350FM-12+016299999V0203601N00101220001CN0100001N9+99999+99999999999ADDAY111999GF104991041051012501001999
0031749000999991943022110004+35367-086050SAO  +0331TUH  V0202481N001010090019N0064001N1+00961+00851999999ADDGA1081+999999059MW1041MW2451
0025722588999991943032104004+33067-096067SAO  +0166GVT  V0203601N006710120019N1600001N1+00741+99999102201ADDGA1051+999999059MW1001
0025719320999991943110313004+56750-111150SAO  +0371CYMM V0203381N001510003019N0016001N1-00421-00481101691ADDGA1081+999999079MW1451
0039749177999991943102500004+33933-120117SAO  +045599999V0202251N001512200019N0320001N1+02241+00911101561ADDGA1061+999999029MD1810041+9999MW1001
0039040300999991943042706004+64133-021900SAO  +0061BIRK V0202931N002110045019N1600001N1+00351+00081101081ADDGA1081+999999059MD1210161+9999MW1001
0025724835232061943050813004+38417-121333SAO  +0027MHR  V0203601N008712200019N0320001N9+01241-00151101521ADDGA1001+999999999MW1001
0039785260999991943050321004+18433-066000SAO  +0019TJSJ V0200451N005112200019N1600001N1+02631+02131101321ADDGA1021+009009089MD1610061+9999MW1001
0009726196146101943073113004+39367-075067SAO  +0025MIV  V0200231N004612200019N0064001N1+02521+01691101561ADDMW1051
0059035520999991943110419004+52100+000133FM-12+003099999V0201401N00671220001CN0040001N9+01001+00501102901ADDAY111999GA1081+999999999GF108991081051004501999999MW1051
0025749082999991943092422004+35433-082483SAO  +06610A7  V0203381N006212200019N1600001N1+01691+00411999999ADDGA1011+015009089MW1001
0041722745231091943062511004+32183-110917SAO  +0782DMA  V0203601N001010450019N0480001N9+02741+00021100681ADDGA1021+027009059GA2041+999999039MW1001
0092101700999991943100521004+54183+012100FM-12+000299999V0201801N00931004501CN0040001N9+01281+01171101281ADDAY121999GF108991081051004501999999MD1210161+9999MW1051EQDQ01+000042APCTENQ02+000122APC3  
0025747910137171943012118004+33683-078933SAO  +0008MYR  V0200501N001010036019N0080001N9+00911+00461102241ADDGA1081+999999079MW1051
0025719120999991943051314004+56350-094700SAO  +0144CYGX V0202031N002610270019N1600001N1+00961-00261999999ADDGA1051+999999039MW1001
0041424750999991943081309004+25450+081733SAO  +0098VIAL V0202701N005110060019N1600001N1+02851+02461099831ADDGA1051+999999089GA2021+999999049MW1001
0039749059999991943070412004+34083-004917SAO  +0401GFEZ V0203151N005112200019N1600001N1+02911+01631101811ADDGA1021+012009089MD1110021+9999MW1001
0031725080147401943101610004+41933-072683SAO  +0055BDL  V0202031N008210036019N0064001N1+01851+01741099971ADDGA1081+999999079MW1451MW2511
0041749123999991943051311004+54917-098633SAO  +0233CYWB V0202931N002110390019N1600001N1+00081-00481999999ADDGA1021+018009059GA2041+999999039MW1001
0025722786231041943082804004+33317-111650SAO  +0410IWA  V0200501N001512200019N1600001N9+03461+01351100911ADDGA1031+021009039MW1001
0057111810999991943010312004+47967+016267FM-12+023599999V0203201N00931007801CN0100001N9+00391+99999099891ADDAY121061GF106991061081008001001001MD1210261+9999MW1051
0009749272999991943081407004+36800+009883SAO  +004999999V0202931N005112200019N1600001N1+03021+01461101411ADDMW1001
0025727755241121943022604004+47500-111167SAO  +1054KGFA V0202701N005112200019N0320001N9-00371-00591103811ADDGA1021+999999049MW1001
0025724565139201943061910004+38950-095667SAO  +0323FOE  V0202001N005112200019N1600001N9+02071+01801101491ADDGA1021+999999009MW1001
0057104190999991943010512004+51217+007633FM-12+013699999V0202701N00261002401CN0020001N9-00221+99999101501ADDAY141061GF108991071051002501071999MD1710031+9999MW1101
0025725816999991943102106004+40183-112933SAO  +1326DPG  V0201581N002610210019N0320001N1+00741+00301100951ADDGA1061+999999049MW1001
0025724550139471943091504004+39050-096767SAO  +0324FRI  V0200201N003112200019N1600001N9+02071+01521101051ADDGA1021+999999029MW1001
0019744900147021943063010004+42467-071283SAO  +0045BED  V0202701N004612200019N0144001N9+01521+01021100911ADDGA1011+018009059
0025745096999991943110916004+37183-122400SAO  +000193Q  V0201351N001512200019N0400001N1+01631+00461102101ADDGA1011+999999009MW1001
0025722350039401943011320004+32317-090083SAO  +0101JAN  V0203151N000512200019N1600001N1+01461-00091102031ADDGA1021+999999039MW1001
0023723119138861943100918004+34850-082350SAO  +0319GMU  V0202251N001512200019N0096001N1+02681+00631101191ADDMD1710161+9999MW1051
013999999913739194308220100E+39883-075233SAO  +000899999V02015859005250182949N011200599+02335+01395101695ADDAA101000095MA1999999101595EQDN01 00000JPWTH 1QNNG11 1 00060K11 1 00057L11 1 00700M11 1 30000N11 1 00000Q11 1 10169S11 1 00074W11 1 54010
0025724338138021943092116004+38550-089983SAO  +0134BLV  V0209991C000010105019N0064001N9+01851+01631101801ADDGA1081+999999059MW1051
0057107460999991943011109004+49133+010050FM-12+012999999V0201101N00671220001CN0100001N9-00781-01111101391ADDAY121031GF102991001001999999001051MD1510061+9999MW1051
0041787410999991943122814004+12150-086167SAO  +0050MNMG V0200451N003110360019N1600001N1+02571+02021101421ADDGA1011+010509059GA2051+999999049MW1001
0035719070999991943101100004+58450-078133FM-12+002099999V0201801N010819999999N0090001N9+00391+00171099151ADDGF108991081051004501999999MW1681
0041725046147071943050813004+41333-072050SAO  +0006GON  V0202031N003610180019N0032001N1+01461+01191101421ADDGA1061+999999079GA2021+999999039MW1051
0047747910137171943010712004+33683-078933SAO  +0008MYR  V0200501N002610240019N0080001N9+00581+00301102781ADDGA1031+009009059GA2051+999999049MW1051MW2611
0031749000999991943010823004+35367-086050SAO  +0331TUH  V0203151N002110075019N0040001N1+00191-00091999999ADDGA1081+999999059MW1041MW2451
0009422600999991943121718004+27150+077967SAO  +0169VIAG V0209991C000012200019N0064001N1+01131+00691102001ADDMW1051
0023722688930341943011303004+32683-103217SAO  +1115HOB  V0202701N003112200019N1600001N1+00241-00151999999ADDMD1210081+9999MW1001
0043854420999991943031518004-23467-070433FM-12+011199999V0202001N00721220001CN0500001N9+02671+02281999999ADDAY101999GF100991001001999999001001MW1001
0041722110128421943092120004+27967-082533SAO  +0003TPA  V0202701N005712200019N1600001N1+03131+02351101291ADDGA1011+007509089GA2021+999999039MW1001
0025749044999991943082208004+26367-080100SAO  +0005BCT  V0201801N001512200019N1600001N1+02411+02351101251ADDGA1031+999999039MW1001
0041749516999991943082214004+60483-133450SAO  +080499999V0200901N001512200019N0480001N1+00521+00411999999ADDGA1031+012009059GA2051+999999049MW1001
0009749000999991943063022004+35367-086050SAO  +0331TUH  V0200231N006212200019N1600001N1+02521+01131101691ADDMW1001
0025724835232061943030205004+38417-121333SAO  +0027MHR  V0201401N003612200019N0160001N9+01131+00801101321ADDGA1001+999999999MW1001
0023614210999991943111415004+20517-013067SAO  +0224GQPA V0200901N004112200019N1600001N1+02911-00311101421ADDMD1710181+9999MW1001
0041042310999991943032219004+66967-050917SAO  +0047BGSF V0200231N007710135019N1600001N1-00811-01421102001ADDGA1051+999999059GA2021+999999049MW1001
0041722165138151943110308004+31583-084117SAO  +0065TRF  V0203151N003112200019N0112001N1+01911+01521101801ADDGA1031+999999039GA2041+999999029MW1001
0025749159999991943091706004+35533-100750SAO  +0955PPA  V0201131N006212200019N1600001N1+01461+00521102471ADDGA1011+999999009MW1001
0041785201999991943092201004+18017-066567SAO  +0009TJPS V0200451N001012200019N1600001N1+02631+02241101421ADDGA1021+010509089GA2011+999999049MW1001
0009726071146061943011707004+44800-068817SAO  +0059BGR  V0203381N003612200019N1600001N1-00701-00871101081ADDMW1001
0041749438999991943091502004-12700+143300SAO  +001899999V0201351N001512200019N1600001N1+02851+01911100911ADDGA1031+999999049GA2051+999999029MW1001
0025704851999991943120504004+53367-167900SAO  +0039UNS  V0202031N001510120019N0480001N1+00241-00311098711ADDGA1061+999999059MW1001
0043035610999991943051308004+52250+000767FM-12+006399999V0201801N00261220001CN0040001N9+01721+01331999999ADDAY111999GF107991001001999999071999MW1051
0025726071146061943010602004+44800-068817SAO  +0059BGR  V0202931N004610450019N1600001N1-01371-01811100981ADDGA1061+999999049MW1001
0084855000999991943101512004-29900-071350FM-12+002599999V0209991C000019999999N0010001N9+01501+99999101831ADDAY101999GF108991081061999999999999IA1009MW1401EQDQ01+000032APCTENQ02+000002APC3  
0039724836232081943120800004+38650-121383SAO  +0024MCC  V0201401N002612200019N0112001N9+01461+00191101421ADDGA1061+999999029MD1710201+9999MW1001
0025725310148061943090310004+40300-088133SAO  +0228RAN  V0200681N002112200019N0112001N1+01851+01571101521ADDGA1011+999999009MW1001
0041722686230081943112701004+34383-103317SAO  +1309CVS  V0203601N006710210019N1600001N9-00421-00651102741ADDGA1021+004509059GA2051+999999039MW1001
0055789700999991943051915004+10617-061350SAO  +0015TTPP V0200681N008210096019N1600001N1+02851+02181101521ADDGA1061+999999089GA2021+999999029MD1810021+9999MW1001
0009722806999991943101419004+32450-112867SAO  +0444P01  V0203151N004112200019N0320001N1+03131+00191101251ADDMW1001
0009724515230641943070414004+37933-100733SAO  +0880GCK  V0201801N005112200019N1600001N1+02631+01631999999ADDMW1001
0009724957999991943092020004+38517-122817SAO  +0038STS  V0202701N001512200019N0112001N1+03851+00691101081ADDMW1001
0025722636930421943090814004+36017-102550SAO  +1216DHT  V0200451N009810360019N1600001N1+01351+00241102171ADDGA1061+999999031MW1001
0051107370999991943041009004+48683+009000FM-12+013199999V0202501N00261007801CN0100001N9+00721+00331102561ADDAY121031GF107991071071008001041999MD1210061+9999
0039749141999991943081912004+63433-051183SAO  +0041BMKA V0200451N000510012019N0112001N1+00301+00131102271ADDGA1081+999999079MD1610101+9999MW1001
0081114140999991943060918004+50200+012900FM-12+059399999V0200901N00461004501CN0200001N9+01281+99999101511ADDAA199007091AY161061GF108991081081004501999999IA1009KA1999M+01611MD1710061+9999
0041823980999991943042005004-03783-038533SAO  +0025SBFZ V0200901N001010240019N1600001N1+02351+02241101391ADDGA1021+005409089GA2041+999999039MW1001
0041749080999991943080518004+34650-087333SAO  +017699999V0203381N003610300019N0096001N1+03131+02351101521ADDGA1021+021009089GA2041+999999039MW1051
0055749068999991943020421004+34800-079367SAO  +0069MEB  V0201801N007210045019N0064001N1+01961+01521101391ADDGA1051+999999059GA2031+999999049MD1710141+9999MW1051
0041740430999991943051113004+65283-126800SAO  +0064CYVQ V0203151N003110270019N1600001N1+00521+00191999999ADDGA1021+012009059GA2051+999999039MW1001
0055945680999991943040603004-27633+152717SAO  +0031ABAM V0200901N001512200019N1600001N1+02741+00801101631ADDGA1031+007509089GA2011+999999049MD1710221+9999MW1001
0023722680230091943012012004+33300-104533SAO  +1118ROW  V0202931N001512200019N1600001N1-01151-01641102881ADDMD1710141+9999MW1001
0019744900147021943052419004+42467-071283SAO  +0045BED  V0201801N004612200019N1600001N9+02681+00851101931ADDGA1031+015009089
0025749438999991943021011004-12700+143300SAO  +001899999V0209991C000010240019N1600001N1+02411+02411100341ADDGA1081+999999049MW1611
0025719060999991943020911004+58083-068417SAO  +0034CYVP V0203601N005110075019N1600001N1-01481-01761101731ADDGA1051+999999079MW1711
0039722586999991943102921004+33717-096667SAO  +0233PNX  V0201801N011312200019N0128001N1+02851+01241100641ADDGA1061+999999009MD1710141+9999MW1001
0045749130999991943010814004+63183-041333SAO  +009199999V0200681N012310018019N0016001N1-00091-00091100191ADDGA1081+999999079MD1710201+9999MW1381MW2711
0039722235138381943050709004+30633-088067SAO  +0008BFM  V0201801N008712200019N0112001N1+02181+01851101691ADDGA1031+006009059MD1610041+9999MW1001
0025749155999991943052023004+28867-100517SAO  +0070EGP  V0203601N003110090019N1600001N1+02961+01911101291ADDGA1061+999999099MW1001
0039722545999991943081203004+30200-097667SAO  +0154BSM  V0201601N003612200019N1600001N9+02631+02351101221ADDGA1001+999999999MD1210041+9999MW1001
0041749044999991943060423004+26367-080100SAO  +0005BCT  V0200901N004612200019N1600001N1+02801+02241101831ADDGA1011+010509089GA2021+999999009MW1001
0041723100138831943101416004+33950-081117SAO  +0069CAE  V0201581N003112200019N1600001N1+02631+01801101761ADDGA1021+018009089GA2051+999999029MW1001
0015726625240061943110704004+44133-103100SAO  +0979RCA  V0200201N011310015019N0012001N9-00371-00421103051ADDMW1381MW2711
0055043900999991943021017004+60033-043117SAO  +0019BGPC V0203151N001510360019N1600001N1-00701-01031099051ADDGA1021+006009079GA2051+999999029MD1710161+9999MW1001
0025725570149431943082914004+42400-096383SAO  +0336SUX  V0201131N002612200019N0128001N1+02181+01851101251ADDGA1021+015009099MW1001
0041703330999991943052101004+56950-158617SAO  +0029PTH  V0202701N003110105019N1600001N1+00351+00021100511ADDGA1031+003009079GA2031+999999039MW1001
0023606560999991943102204004+27667-008133SAO  +0431DAOF V0203151N003612200019N1600001N1+01741+00411101491ADDMD1710101+9999MW1001
0025749130999991943101319004+63183-041333SAO  +009199999V0203601N001012200019N0480001N1+00191-01481097631ADDGA1041+999999009MW1001
0025724956232111943022020004+38067-122517SAO  +0003SRF  V0201131N003110420019N0144001N1+01741+00961101461ADDGA1081+999999039MW1001
0009749089999991943112219004+32500-085767SAO  +0076TGE  V0203151N006212200019N0064001N1+02181+00631101961ADDMW1051
0009911690999991943123117004+21683-158033SAO  +001099999V0200901N008712200019N1600001N1+02241+01521101911ADDMW1001
0041749025999991943082211004+08600-079917SAO  +0037MPHF V0202251N001512200019N1600001N1+02131+02131100751ADDGA1021+999999039GA2061+999999029MW1001
0025722785231111943072305004+33533-112367SAO  +0333LUF  V0203201N002612200019N0480001N9+03461+00241101021ADDGA1001+999999999MW1001
0025722595139111943040511004+32783-097433SAO  +0192FWH  V0200901N001512200019N1600001N9+01571+01301999999ADDGA1011+999999019MW1001
0025042310999991943060622004+66967-050917SAO  +0047BGSF V0203381N003112200019N1600001N1+01071-00041100851ADDGA1011+024009039MW1001
0009722696999991943092908004+32850-106100SAO  +1251HMN  V0200681N001512200019N1600001N1+01461+00911101351ADDMW1001
0023602300999991943091116004+31617-008033SAO  +0466GMMX V0203151N003612200019N0096001N1+03131+01021101341ADDMD1710181+9999MW1051
0041722745231091943122120004+32183-110917SAO  +0782DMA  V0203201N003612200019N0480001N9+01851+00411101251ADDGA1021+027009059GA2021+999999039MW1001
0028725635999991943010213004+42050-102800SAO  +1198AIA  V0201351N004610018019N0032001N1-00531-00591101801ADDMW1451EQDQ01+000512PRSWM2
0025784090999991943092910004+19750-072183SAO  +0003MTCH V0209991C000012200019N1600001N1+02351+02241101191ADDGA1051+999999009MW1001
0041945100999991943013008004-26417+146267SAO  +0304ABCV V0201131N003110540019N1600001N1+03071+99999100811ADDGA1021+018009059GA2031+999999049MW1001
0134724050137431943082503002+38850-077033SAO  +002099999V02015859004652200049N008000599+02725+02005101085ADDMA1999999100855MW1055EQDN01 08100JPWTH 1QNNG11U1 99999K11 1 00068L11 1 00500M11 1 29780N11 1 08100Q11 1 10108S11 1 00081W11 1 54009
0055786470999991943090509004+13917-090817SAO  +0002MGSJ V0200231N001510075019N1600001N1+02181+02181101251ADDGA1051+999999059GA2031+999999049MD1810141+9999MW1801
0039614210999991943112812004+20517-013067SAO  +0224GQPA V0200681N002612200019N1600001N1+02851-00591101591ADDGA1061+999999029MD1810161+9999MW1001
0076266930999991943120606004+54683+020650FM-12+000399999V0202501N01231004501CN0020001N9+00281+00171102071ADDAY121999GF107991071051004501999999IA1089KA1999N+00001MD1010061+9999MW1051
0039749282999991943050821004+36117+006350SAO  +075499999V0202031N002112200019N1600001N1+00961+00521101831ADDGA1021+999999029MD1210101+9999MW1001
0009701780265291943060302004+65167-152100SAO  +0067TAL  V0201581N001010135019N0320001N1+01961+01021101021ADDMW1001
0051265090999991943070415004+55700+021133FM-12+000199999V0202901N00671220001CN0200001N9+01721+01061100961ADDAY101999GF101991011011008001041001MD1810061+9999
0041423140999991943043004004+27483+095017SAO  +0111VEMN V0200451N008210360019N1600001N1+02461+02071999999ADDGA1051+999999059GA2021+999999039MW1001
0009724880231851943090311004+39500-119783SAO  +1341RNO  V0202701N002112200019N0240001N1+01021-00311101661ADDMW1001
0023994010999991943110506004+28833-089717SAO  +0000URL1 V0200901N002612200019N1600001N1+01801+01301101661ADDMD1810101+9999MW1001
0025723890931931943052720004+36767-119717SAO  +0100FAT  V0202701N003612200019N0240001N1+02681+01021100911ADDGA1061+999999009MW1001
0069871610999991943120912004-26150-058183FM-12+006599999V0200501N001019999999N0020001N9+02781+99999101211ADDAY111999GF108991081051999999999999IA1009KA1999M+03501KA2999N+02501
0041916430807051943101007004-08517+179217SAO  +0002NGFU V0200231N001010090019N1600001N1+02741+02351101061ADDGA1051+999999089GA2021+999999039MW1001
0009424750999991943010203004+25450+081733SAO  +0098VIAL V0209991C000012200019N0032001N1+01351+01191101631ADDMW1051
0058914900999991943112814004+01983-157483SAO  +0003PLCH V0200901N004110090019N1600001N1+02571+02181100851ADDGA1081+006009059MD1310071+9999MW1001EQDQ01+000002APC3  
0051115420999991943080321004+50033+015750FM-12+022399999V0200701N00671220001CN0100001N9+02391+99999101221ADDAY101999GF104991001001999999001051MD1710061+9999
0058725190147711943123109004+43150-076267SAO  +0128SYR  V0209991C000012200019N0096001N9-00651-01031101831ADDGA1001+999999999MD1410001+9999MW1051EQDQ01+000022APCTEN
0037035623999991943112116004+52367-000233FM-12+005099999V0202301N00261000151CN0000501N9+00561+00561102101ADDAY151999GF109991091999000251999999
0039702220999991943071712004+64733-156933SAO  +0049GAL  V0202031N001510105019N0320001N1+01351+01191999999ADDGA1999+999999049MD1210081+9999MW1001
0009749096999991943042420004+34600-091583SAO  +0068SGT  V0200231N003112200019N1600001N1+02351+00741999999ADDMW1001
0009719150999991943050123004+64183-083350SAO  +0059CYZS V0203151N004612200019N1600001N1-01311-01591101391ADDMW1001
0025723890931931943020516004+36767-119717SAO  +0100FAT  V0201131N001510012019N0012001N1+01021+00911102341ADDGA1081+999999079MW1111
0055911800999991943050318004+21333-157950SAO  +0009PHIK V0200681N006712200019N1600001N1+02461+01691101661ADDGA1021+009009089GA2011+999999049MD1210141+9999MW1001
0043105150999991943011112004+50350+007567FM-12+005399999V0201101N00261007801CN0040001N9+99999+99999999999ADDAY121061GF108991081051008001999999MW1051
0039723865231121943013009004+36250-115033SAO  +0569LSV  V0201801N007712200019N0480001N9+01021+00461101291ADDGA1001+999999999MD1710061+9999MW1001
0009724970999991943100214004+39783-121850SAO  +0069CIC  V0200231N001512200019N0240001N1+01241+00851101391ADDMW1001
0009722880231521943112810004+34200-118350SAO  +0236BUR  V0202931N002112200019N0192001N1+00461-00091102071ADDMW1001
0025704540257041943050523004+51883-176650SAO  +0005PADK V0203601N011310060019N1600001N9+00241-00091100541ADDGA1999+999999049MW1001
0031601560999991943050213004+33367-007583SAO  +0206GMMN V0202481N001510030019N0040001N1+01631+01521100471ADDGA1081+999999079MW1451MW2611
002072351013966194305030400D+33983-098500SAO  +0314SPS  V0202031N003612200019N1600001N1+02461+01191101151ADDAA101000095MW1001
0041917880999991943030801004-21133-175183SAO  +0002NFTN V0203151N005112200019N1600001N1+02961+02571100381ADDGA1031+004509059GA2051+999999029MW1001
0025942830999991943101005004-15433+145183SAO  +000999999V0200901N003612200019N1600001N1+02911+01851101131ADDGA1021+009009089MW1001
0074725780241561943072803004+42917-112600SAO  +1365PIH  V0202031N003612200019N0560001N1+02911+00411101021ADDGA1011+999999039MD1710031+9999MW1051EQDQ01+000022APCTENQ02+000002APC3  
0055722235138381943101212004+30633-088067SAO  +0008BFM  V0200901N006710330019N0064001N1+02021+01691101961ADDGA1021+006009079GA2061+999999039MD1310141+9999MW1051
0037114550999991943053106004+49383+013300FM-12+039799999V0209991C00001220001CN0100001N9+99999+99999999999ADDAY121999GF108991001001999999011999
0009749292999991943112411004+33467+049050SAO  +140899999V0209991C000012200019N1600001N1+01411-00421999999ADDMW1001
0025722588999991943031511004+33067-096067SAO  +0166GVT  V0201581N007710090019N1600001N1+01801+01691100981ADDGA1081+999999079MW1001
0025702720999991943082723004+61200-149767SAO  +0055PAED V0202501N001012200019N0480001N9+01691+00911100001ADDGA1999+012009999MW1001
0041788079999991943100710004+07517-078150SAO  +0009MPJE V0200451N001010300019N0112001N1+02351+02351100981ADDGA1011+005409059GA2061+999999049MW1611
0023749220999991943102221004+64900-154667SAO  +0056KKS  V0209991C000012200019N0320001N1-00151-00761999999ADDMD1210061+9999MW1001
0025916600999991943091806004-16700+177583SAO  +005099999V0201131N003610120019N0096001N1+02631+02301101191ADDGA1061+999999059MW1051
0009722119999991943112102004+27983-082017SAO  +0043LAL  V0200451N004612200019N1600001N1+01691+01411101931ADDMW1001
0057749425999991943110219004-09433+160183SAO  +000799999V0201801N003110420019N1600001N1+02461+02411100811ADDGA1021+009009059GA2031+999999049GA3021+999999029MW1001
0009724010137401943051314004+37500-077333SAO  +0054RIC  V0203601N003612200019N0096001N1+01961+01191101731ADDMW1051
0045033010999991943062023004+53417-002650FM-12+001899999V0201801N00461220001CN0100001N9+01281+00941100881ADDGA1001+999999999GF104991041051008001061001
0009749175999991943101122004+38433-123133SAO  +007299999V0202701N005112200019N0400001N1+01631+01071101591ADDMW1001
0023722970231291943073112004+33817-118150SAO  +0012LGB  V0209991C000012200019N0004001N1+01521+01521100751ADDMD1710041+9999MW1111
0009749175999991943072819004+38433-123133SAO  +007299999V0202481N002612200019N0320001N1+01741+00961999999ADDMW1001
0025724690230621943080713004+39750-104867SAO  +1625DEN  V0202031N004612200019N1600001N1+01851+01411101731ADDGA1011+999999039MW1001
0025749158999991943022512004+34483-104217SAO  +1263FUS  V0203381N002610210019N1600001N1-00531-00651999999ADDGA1061+999999039MW1001
0025749064999991943111812004+34200-004183SAO  +0564GMFT V0202701N014410012019N0016001N1+00851+00741101661ADDGA1081+999999079MW1451
0025726196146101943101405004+39367-075067SAO  +0025MIV  V0201351N004612200019N0096001N1+01241+01241102241ADDGA1051+999999029MW1051
0041940560999991943042720004-08750+148250SAO  +009199999V0202251N001512200019N1600001N1+02301+02241100911ADDGA1021+009009059GA2061+999999049MW1001
0039747188231581943052721004+33617-114717SAO  +0121BLH  V0202031N003612200019N1600001N1+03461+00801100611ADDGA1061+999999009MD1710141+9999MW1001
0009749170999991943083122004+35117-119300SAO  +0133L17  V0200451N003612200019N1600001N1+03521+00631100641ADDMW1001
0009722688930341943072114004+32683-103217SAO  +1115HOB  V0201801N003112200019N1600001N1+02521+01691101321ADDMW1001
0025656600999991943011401004+06250-010350SAO  +0018GLRB V0200451N001012200019N0024001N1+02071+02021101081ADDGA1051+999999049MW1111
0076123400999991943013000004+52800+018300FM-12+008699999V0201801N00461030001CN0020001N9+00111+00001101531ADDAY111999GF108991041051008001011999MD1410001+9999MW1051EQDQ01+000032APCTEN
0023724296138411943120506004+39433-083800SAO  +0327ILN  V0209991C000012200019N0064001N1+00081+00081102441ADDMD1210101+9999MW1051
0025703260255031943032922004+58683-156650SAO  +0015AKN  V0203401N003612200019N1600001N9-01201-01981100201ADDGA1001+999999999MW1001
0047725115147111943062916004+40200-076767SAO  +0097MDT  V0203151N003610045019N0064001N1+02411+02071100811ADDGA1051+999999059GA2031+999999049MW1051MW2611
0087726880241551943120612005+45683-118850SAO  +0455PDT  V02015859003152200049N999999999-00225-00505103085ADDMA1999999097495QNNG11U1 99999K11 1 00023M11 1 28790Q11 1 10308S11 1 00028W11 1 54006
0057107280999991943101515004+49333+008200FM-12+003799999V0209991C00001220001CN0020001N9+01221+00061101461ADDAY101031GF100991001001999999001001MD1710161+9999MW1051
0055749280999991943051812004+36200+005967SAO  +085999999V0203601N009310300019N0224001N1+02301+00911101731ADDGA1011+024009059GA2041+999999049MD1610081+9999MW1001
0039722650999991943122721004+31933-102200SAO  +0871MAF  V0203601N006210072019N1600001N1+00131-00261102171ADDGA1081+003001051MD1210101+9999MW1001
0057104190999991943052209004+51217+007633FM-12+013699999V0202301N00261220001CN0020001N9+02001+99999101591ADDAY111031GF104991011021017501041999MD1710101+9999MW1051
0025725570149431943110423004+42400-096383SAO  +0336SUX  V0209991C000010360019N1600001N1+00911+00461100981ADDGA1081+999999049MW1001
0023723890931931943052409004+36767-119717SAO  +0100FAT  V0203151N002112200019N0192001N1+02241+01241101151ADDMD1110061+9999MW1001
0025042310999991943121805004+66900-050917SAO  +0047BGSF V0200451N004112200019N0240001N1-01641-01811097821ADDGA1031+012009059MW1001
0031725377148041943013113004+42617-082817SAO  +0176MTC  V0202301N006710060019N0032001N9+00021-00091102511ADDGA1081+999999059MW1041MW2451
0025723406999991943012206004+36133-090933SAO  +0084ARG  V0201351N001512200019N0128001N1+00241+00131999999ADDGA1031+024009049MW1001
0025749067999991943061917004+39950-079650SAO  +03832G3  V0202481N003612200019N0048001N1+02801+01571999999ADDGA1021+012009089MW1051
0025724515230641943041617004+37933-100733SAO  +0880GCK  V0200681N013412200019N0080001N1+01691-00091999999ADDGA1021+999999009MW1061
0025606560999991943102709004+27667-008133SAO  +0431DAOF V0203151N004112200019N1600001N1+01851+00851101631ADDGA1011+999999039MW1001
0039943670999991943101809004-21117+149217SAO  +0031ABMK V0203601N004612200019N1600001N1+02571+02241100911ADDGA1011+999999039MD1310121+9999MW1001
0035722026128261943091720004+25483-080383SAO  +0002HST  V0201101N006712200019N0160001N9+03071+02301101561ADDGA1041+007509089GA2021+999999009
0025749175999991943091402004+38433-123133SAO  +007299999V0202031N001510003019N0016001N1+01411+01241101151ADDGA1081+999999079MW1451
0025749445999991943052522004-15500+167250SAO  +000999999V0201801N003610099019N1600001N1+02631+02131100911ADDGA1081+999999059MW1001
0070167590999991943060518004+35067+024767FM-12+000999999V0202001N00931220001CN0200001N9+02111+99999101551ADDAY101999GF100991001001999999001001IA1009KA1999M+02391MD1710021+9999
0039745980137021943080106004+37083-076350SAO  +0002LFI  V0209991C000012200019N0080001N9+02241+02021101691ADDGA1001+999999999MD1210061+9999MW1051
0025726810241311943053116004+43567-116217SAO  +0874BOI  V0200681N005110075019N1600001N1+01021+00911100541ADDGA1081+999999079MW1611
0023749076999991943100805004+38833-085417SAO  +0268MDN  V0200231N004112200019N0080001N1+01241+00461102171ADDMD1810081+9999MW1051
0041785201999991943110101004+18017-066567SAO  +0009TJPS V0203381N001512200019N1600001N1+02351+02241101421ADDGA1031+009009059GA2011+999999049MW1001
0043035560999991943063017004+52233-000467FM-12+008799999V0200201N00671004501CN0040001N9+01441+01171102571ADDAY121999GF108991081051004501999999MW1051
014599999913739194310290200E+39883-075233SAO  +000899999V02024859011350039649N008000599+01065+00895100315ADDAA101000095MA1999999100205MW1045EQDN01 08000JPWTH 1QNNG11 1 00013K11 1 00048L11 1 00500M11 1 29590N11 1 08000Q11 1 10031S11 1 00051W11 1 76022
0023727937999991943081515004+47917-122283SAO  +0187PAE  V0203601N001512200019N0240001N1+01851+01071101251ADDMD1310061+9999MW1001
0071412880999991943121016004+20667+058900SAO  +0019OOMA V0200901N005710450019N1600001N1+02461+01571102071ADDGA1031+009009059GA2021+999999039GA3021+999999029MD1110101+9999MW1001
0041710563999991943090316004+55750-120183SAO  +0655CYDQ V0202481N006210240019N1600001N1+01351+00461100751ADDGA1021+015009059GA2061+999999049MW1001
0057116500999991943040500004+49617+015583FM-12+045699999V0209991C00001220001CN0020001N9+00001+99999102871ADDAY101999GF100991001001999999001001MD1990061+9999MW1051
0041943740999991943121216004-23383+150467SAO  +0014ABRK V0201581N002110300019N1600001N1+02411+02241100541ADDGA1021+012009099GA2031+999999049MW1171
0039704851999991943051401004+53367-167900SAO  +0039UNS  V0200681N005110045019N1600001N1+00631+00521103351ADDGA1999+999999049MD1710061+9999MW1001
0041994010999991943092804004+28833-089717SAO  +0000URL1 V0200901N009810096019N0112001N1+02351+02181101691ADDGA1051+999999059GA2031+999999039MW1611
0047749441999991943022214004-19250+146750SAO  +0006ABTL V0200451N004110060019N0032001N1+02411+02351100981ADDGA1051+999999059GA2031+999999049MW1451MW2611
0023749096999991943102806004+34600-091583SAO  +0068SGT  V0202701N002112200019N0096001N1+00691+00301101491ADDMD1710041+9999MW1051
0041652020999991943100517004+06550+003350SAO  +001999999V0202251N001012200019N1600001N1+02681+02351101161ADDGA1021+006009099GA2021+999999039MW1001
0025725310148061943111307004+40300-088133SAO  +0228RAN  V0203151N004612200019N0128001N1-00151-00761102171ADDGA1031+999999029MW1001
0041722636930421943120708004+36017-102550SAO  +1216DHT  V0202481N006212200019N1600001N1-00311-00761101861ADDGA1011+999999041GA2051+999999021MW1001
0045722545999991943010621004+30200-097667SAO  +0154BSM  V0203601N003610012019N0024001N9+00581+00521101961ADDGA1081+999999079MD1710241+9999MW1451MW2511
0023723556999991943110406004+35667-095367SAO  +0186MKO  V0201351N001512200019N1600001N1+00801+00301102031ADDMD1710061+9999MW1001
0041749444999991943073011004-10317+150333SAO  +002799999V0209991C000010075019N1600001N1+02571+99999101251ADDGA1061+999999059GA2021+999999049MW1001
0035823310999991943093000004-03133-060017FM-12+004499999V0201101N002619999999N9999999N9+02611+99999101071ADDGF108991999999999999999999MW1501
0041424160999991943062908004+26717+092800SAO  +007599999V0201801N006710450019N0128001N1+03181+02681999999ADDGA1021+006009089GA2031+999999039MW1001
0041722165138151943073013004+31583-084117SAO  +0065TRF  V0202701N004112200019N0128001N1+02681+02351101761ADDGA1021+000609079GA2021+999999039MW1001
0037108640999991943110409004+48067+011650FM-12+016799999V0200701N00671000151CN0000501N9+00281+00221102931ADDAY151031GF109991091999000251999999
0041749416999991943081305004-09200+152950SAO  +000799999V0202251N004610045019N1600001N1+02631+02411100881ADDGA1061+999999059GA2011+999999039MW1801
0081107550999991943040918004+49317+010667FM-12+014299999V0202701N00461004501CN0040001N9+00391+00281101821ADDAA199000691AY121061GF107991071051004501999999IA1159KA1999M+00391MD1210151+9999
0025911800999991943111814004+21333-157950SAO  +0009PHIK V0200681N001512200019N1600001N1+02351+01741101801ADDGA1021+010509089MW1001
0025702615999991943081619004+64850-147583SAO  +0148FBK  V0202031N001510030019N1600001N1+00801+00631101391ADDGA1081+999999059MW1001
005272203012844194308170500D+26683-080117SAO  +0006PBI  V0202031N004612200019N1600001N1+02631+02411100911ADDAA101000095GA1011+007509089GA2041+999999029MW1001
0025917000999991943061510004-02767-171717SAO  +0003PCIS V0200451N006212200019N1600001N1+02741+02351101021ADDGA1031+007509089MW1001
0053722266138501943062502004+32350-086983SAO  +0054SEM  V0201351N003610450019N0112001N1+02801+02571101631ADDGA1021+010509099GA2061+999999049MW1171MW2801MW3951
0055702600264351943081200004+64550-149083SAO  +0110ENN  V0202251N006210090019N0640001N1+01241+00581101221ADDGA1999+004509999GA2999+999999049MD1810021+9999MW1001
0023749286999991943081414004+36883+010333SAO  +005799999V0200451N003612200019N0240001N1+03071+02521101591ADDMD1510041+9999MW1001
0025911840999991943120614004+21333-157717SAO  +001899999V0202701N004610105019N1600001N1+02071+02071101021ADDGA1061+008409059MW1001
0025749191999991943122313004+56700-121750SAO  +090599999V0202251N003110420019N1600001N1+00021-00761100811ADDGA1081+999999049MW1001
0039722675230211943071612004+33600-102250SAO  +1009REE  V0202001N003112200019N1600001N9+02071+01741101051ADDGA1021+999999039MD1310021+9999MW1001
0041424750999991943082103004+25450+081733SAO  +0098VIAL V0203601N002110330019N1600001N1+02911+02631100041ADDGA1021+006009059GA2041+999999049MW1001
0025722140938051943122914004+30433-084333SAO  +0021TLH  V0203381N004110060019N1600001N1+00741+00631101861ADDGA1081+999999059MW1001
0025703610253391943042018004+59517-139667SAO  +0009CYAK V0202931N001510450019N1600001N1+00131-00041098371ADDGA1999+015009999MW1001
0025912853215041943061601004+19717-155017SAO  +0012PHTO V0200231N004612200019N1600001N1+02741+02021101631ADDGA1031+013509089MW1001
0041749238999991943061009004+23617+087200SAO  +008699999V0201351N005110450019N1600001N1+03461+02571099801ADDGA1021+012009089GA2031+999999039MW1001
0009749238999991943123100004+23617+087200SAO  +008699999V0202701N001012200019N0016001N1+01241+00851101731ADDMW1051
0025723030137141943092310004+35183-079017SAO  +0064POB  V0209991C000012200019N0064001N9+01411+01411101631ADDGA1001+999999999MW1111
0041749212999991943111002004+60000-131183SAO  +088099999V0209991C000010060019N0064001N1-00261-00311999999ADDGA1061+999999079GA2011+999999039MW1711
0025916430807051943091020004-08517+179217SAO  +0002NGFU V0201131N002610090019N1600001N1+02851+02411101101ADDGA1051+999999089MW1001
0025724565139201943091708004+38950-095667SAO  +0323FOE  V0201101N002612200019N1600001N9+00961+00521103011ADDGA1001+999999999MW1001
0041745980137021943031802004+37083-076350SAO  +0002LFI  V0200901N001010360019N0112001N9+00851+00351102271ADDGA1021+018009059GA2061+999999049MW1001
0025042700999991943022417004+61183-045417SAO  +0026BGBW V0203601N003110060019N0064001N1-00371-00811100141ADDGA1081+999999079MW1711
0025723306138251943100511004+33633-088450SAO  +0059CBM  V0203601N001510099019N0112001N9+01131+00801102201ADDGA1061+999999059MW1001
0023724957999991943082421004+38517-122817SAO  +0038STS  V0201801N004612200019N0480001N1+02681+01241101461ADDMD1710101+9999MW1001
0041722486139421943062322004+32517-092050SAO  +0025MLU  V0200231N005710240019N0128001N1+02911+02021101291ADDGA1051+999999059GA2031+999999049MW1801
0031042200999991943062308004+68700-052750SAO  +0047BGEM V0201801N006210018019N0048001N1+00301+00241101121ADDGA1081+999999079MW1451MW2611
0057109530999991943032909004+47867+010617FM-12+021699999V0203201N00261001501CN0020001N9+00281+00221102251ADDAY161031GF108991061061001501021999MD1310121+9999MW1611
0041726766999991943081513004+44567-112317SAO  +2068MOM  V0209991C000012200019N0480001N1+00741+00301999999ADDGA1999+024009999GA2031+999999049MW1001
0025043610999991943101407004+65567-037117SAO  +0327BGKK V0200901N001510330019N0480001N1-00261-00371097901ADDGA1061+999999049MW1001
0050724810232031943032512004+37333-120517SAO  +0053MER  V0202701N001012200019N0096001N9+00911+00801101901ADDAA124999999GA1001+999999999MD1610061+9999MW1111
0025747810999991943070823004+30967-083200SAO  +0072VAD  V0201101N003110075019N1600001N9+02521+02131101351ADDGA1061+999999059MW1001
0093851510999991943072716004-14717-068500FM-12+138299999V0203601N00211220001CN0500001N9+02441+99999999999ADDAY101999GF103991021041999999051001MA1999999095232MW1011EQDQ01+000992SCOLCBQ02+095233APOSP 
0051106090999991943082712004+49750+006667FM-12+008199999V0202501N00671004501CN0200001N9+01611+99999101671ADDAY181061GF106991061081004501001001MD1710031+9999
0060719460999991943113014004+61750-121233SAO  +0169CYFS V0202931N001510210019N0240001N1-01871-02201101961ADDGA1061+999999049MW1001EQDQ01+000022APCTENQ02+000002APC3  
0039723700999991943082714004+35267-113950SAO  +1033IGM  V0209991C000012200019N1600001N1+02571+00691101291ADDGA1011+024009039MD1310101+9999MW1001
0055785470116241943040518004+17700-064800SAO  +0017TISX V0201131N006712200019N1600001N1+02681+01691101391ADDGA1021+007509089GA2031+999999009MD1710281+9999MW1001
0055040300999991943061303004+64133-021900SAO  +0061BIRK V0203601N008210075019N1600001N1+00461+00191099591ADDGA1061+999999059GA2021+999999039MD1210061+9999MW1001
0055749122999991943061321004+59367-097383SAO  +027199999V0202481N008710180019N1600001N1+01631+01131100751ADDGA1051+999999089GA2031+999999029MD1810161+9999MW1001
0058704545999991943052002004+51383+179267SAO  +0069AHT  V0202481N004110045019N1600001N1+00411+00131101251ADDGA1081+999999099MD1410001+9999MW1001EQDQ01+000032APCTEN
0039719676999991943113018004+60783-137550SAO  +0655CYHT V0200451N001010024019N0080001N1-01311-01531999999ADDGA1081+999999079MD1610061+9999MW1451
0025722350039401943110301004+32317-090083SAO  +0101JAN  V0203381N006710018019N0040001N1+01351+01241102371ADDGA1081+999999079MW1451
0025718670999991943062223004+53967-101100SAO  +0271CYQD V0201581N005110210019N0240001N1+02131+01191101191ADDGA1081+999999049MW1001
0025722535129091943121102004+29383-098567SAO  +0207SKF  V0203601N009810075019N1600001N9+00911+00521102841ADDGA1081+999999079MW1001
0025606560999991943103111004+27667-008133SAO  +0431DAOF V0201801N006712200019N1600001N1+02801+00351101931ADDGA1031+999999039MW1001
0039725370948471943111909004+42233-083333SAO  +0202DTW  V0202251N007212200019N0040001N1+00631+00241101421ADDGA1061+999999029MD1210101+9999MW1051
0049723810231141943100600004+34967-117900SAO  +0693EDW  V0201601N002112200019N0240001N9+03291+00081101051ADDGA1001+999999999GA2011+999999039MD1710241+9999
0041724855231531943122518004+38067-117083SAO  +1654TPH  V0203151N008712200019N0640001N1+00351-00531101721ADDGA1031+009009089GA2011+999999049MW1001
0019722026128261943060617004+25483-080383SAO  +0002HST  V0200901N005112200019N0160001N9+03131+01801101861ADDGA1021+007509089
0025725046147071943092900004+41333-072050SAO  +0006GON  V0200231N002112200019N0028001N1+01411+01301102571ADDGA1011+999999009MW1111
0025710691999991943120921004+55350-114983SAO  +058499999V0202931N005110540019N0320001N1+00301-00041101831ADDGA1061+999999049MW1001
0025940270999991943120115004-06733+147000SAO  +0009AYLA V0202031N001510150019N0128001N1+02411+02351100761ADDGA1081+999999049MW1611
0025726810241311943121304004+43567-116217SAO  +0874BOI  V0201351N001512200019N0128001N1-00371-00811102441ADDGA1021+999999009MW1051
0041711896999991943080622004+50283-064167SAO  +0022CYLP V0200901N005110120019N1600001N1+01191+00961100781ADDGA1061+999999059GA2021+999999049MW1611
0055723100138831943082618004+33950-081117SAO  +0069CAE  V0201131N002110120019N0112001N1+03791+02071101321ADDGA1051+999999089GA2021+999999039MD1810101+9999MW1001
0041749268999991943091901004+36500+002817SAO  +017099999V0202251N004112200019N1600001N1+02021+01851101351ADDGA1011+003009079GA2021+999999039MW1001
0055749091999991943101306004+30667-096550SAO  +0084CFD  V0203381N007210180019N0112001N1+02411+02351100951ADDGA1011+006009079GA2051+999999039MD1110061+9999MW1001
0025724838999991943101910004+39100-121567SAO  +0019MYV  V0200901N001512200019N0240001N1+00461+00351101081ADDGA1021+999999009MW1001
0041652020999991943102105004+06550+003350SAO  +001999999V0202931N000512200019N0144001N1+02351+02301100991ADDGA1021+004509089GA2011+999999039MW1001
0009749097999991943040210004+37167-097033SAO  +0350WLD  V0200681N006212200019N1600001N1+01191+00301102071ADDMW1001
0025725570149431943070105004+42400-096383SAO  +0336SUX  V0201581N003610240019N1600001N1+01461+00961102171ADDGA1081+999999049MW1001
0025745096999991943111211004+37183-122400SAO  +000193Q  V0200231N001010075019N0240001N1+01191+00851102251ADDGA1061+999999059MW1001
0025607250999991943071312004+36483+008800SAO  +0144DTTN V0200231N004612200019N0160001N1+03911+99999101091ADDGA1011+999999029MW1001
0025704140999991943091917004+52717+174100SAO  +0021PASY V0202701N005112200019N1600001N9+00911+00851101561ADDGA1061+999999009MW1001
0058749076999991943110902004+38833-085417SAO  +0268MDN  V0202251N008210090019N0064001N1+00191+00021101251ADDGA1081+999999059MD1410001+9999MW1711EQDQ01+000022APCTEN
0031704820256261943120619004+52950-168850SAO  +0021IKO  V0202701N005110045019N0160001N1+00241+00131099261ADDGA1061+999999099MW1611MW2711
0041749438999991943080505004-12700+143300SAO  +001899999V0201351N004112200019N1600001N1+02631+02021101121ADDGA1031+010509089GA2011+999999039MW1001
0031745160232021943121817004+38267-121933SAO  +0017SUU  V0200201N002110210019N0080001N9+01111+00441102101ADDGA1081+999999049MW1051MW2611
0009424750999991943110817004+25450+081733SAO  +0098VIAL V0209991C000012200019N1600001N1+01801+01131101351ADDMW1001
0009724956232111943072501004+38067-122517SAO  +0003SRF  V0203151N006212200019N1600001N1+02181+01021101931ADDMW1001
0055724880231851943040503004+39500-119783SAO  +1341RNO  V0202481N005110330019N0400001N1+01191+00021100981ADDGA1021+012009059GA2031+999999009MD1610041+9999MW1001
0025727827241101943121020004+47183-119333SAO  +0362MWH  V0203201N001512200019N0480001N9+00241-00371103291ADDGA1001+999999999MW1001
0025749215999991943101601004+60083-130167SAO  +084699999V0209991C000010330019N0320001N1-00041-00421999999ADDGA1081+999999049MW1001
0025727130146041943081808004+46683-068050SAO  +0146PQI  V0209991C000012200019N1600001N1+01301+01241100411ADDGA1021+021009039MW1001
0025749068999991943032702004+34800-079367SAO  +0069MEB  V0201351N004110180019N0048001N1+01521+01241101691ADDGA1081+999999039MW1051
0039725510149391943042809004+40850-096750SAO  +0362LNK  V0203151N001512200019N1600001N1+00411+00241102641ADDGA1021+999999039MD1110041+9999MW1001
0023722350039401943111306004+32317-090083SAO  +0101JAN  V0201801N001512200019N1600001N1+00521+00241102611ADDMD1810041+9999MW1001
0039703260255031943080609004+58683-156650SAO  +0015AKN  V0202001N004610030019N0128001N9+00851+00741102241ADDGA1081+999999079MD1810041+9999MW1511
0081104510999991943021606004+51267+011233FM-12+004399999V0202501N01901007801CN0200001N9+00221+00001100821ADDAA199001091AY181061GF108991081051008001999999IA1089KA1999N+00111MD1210091+9999
0019742060242071943090816004+47150-122483SAO  +0086TCM  V0203601N000512200019N0024001N9+01741+01071101521ADDGA1021+999999009
0009722280138761943111120004+33567-086750SAO  +0192BHM  V0200231N004612200019N1600001N1+01131-00151102911ADDMW1001
0051106770999991943032221004+50000+011633FM-12+011399999V0201101N00461220001CN0200001N9+00501-00501102021ADDAY101031GF101991001001999999001011MD1990041+9999
0009722696999991943052113004+32850-106100SAO  +1251HMN  V0202031N002112200019N1600001N1+01461+00961101661ADDMW1001
0057784390999991943072920004+18567-072300SAO  +0029MTPP V0200901N006710300019N1600001N1+03291+02071101421ADDGA1021+012009059GA2061+999999049GA3011+999999029MW1001
0043484560999991943071906004+13917+100600FM-12+000399999V0202301N004619999999N0100001N9+03111+02501100341ADDAY101999GF106991999999999999999999MW1001
0025749112999991943021623004+40583-097567SAO  +050018NE V0201801N008712200019N0064001N1+00461+00081999999ADDGA1031+999999049MW1061
0055749127999991943061506004+65933-036683SAO  +0057BIAK V0200681N002610210019N0480001N1+00241+00131101641ADDGA1021+001809079GA2061+999999039MD1210121+9999MW1001
0025911170999991943121414004+21483-158033SAO  +0256PHHI V0203601N001510135019N1600001N1+02071+01911101861ADDGA1061+008409059MW1001
0039723408138141943083018004+35967-089867SAO  +0080BYH  V0201401N003112200019N1600001N9+03351+01691101661ADDGA1001+999999999MD1210141+9999MW1001
0009722167999991943091317004+30967-083200SAO  +0074VAD  V0200681N003612200019N0128001N1+02741+01191101801ADDMW1001
0055911681999991943030500004+21583-158200SAO  +000599999V0200901N004110090019N1600001N1+02181+01741999999ADDGA1061+999999059GA2021+999999039MD1710201+9999MW1001
0009724930232301943040404004+37733-122217SAO  +0003OAK  V0202931N002112200019N0160001N1+01461+99999100981ADDMW1001
0041702070266271943100802004+63883-160800SAO  +0006UNK  V0200901N008212200019N0480001N1+00691+00241100201ADDGA1061+999999039GA2021+999999029MW1001
0025749187999991943121419004+58200-111383SAO  +0236CYEM V0201801N004112200019N1600001N1-00811-01311101151ADDGA1061+999999039MW1001
0039722250138291943051903004+32333-085000SAO  +0071LSF  V0209991C000012200019N1600001N9+02351+02021102071ADDGA1021+013509059MD1310061+9999MW1001
0039749132999991943042806004+60683-046533SAO  +006299999V0200901N008210021019N0112001N1+00241+00191099461ADDGA1081+999999079MD1710241+9999MW1631
0025040180162011943050409004+63967-022600SAO  +0050BIKF V0202031N014910036019N0048001N1+00131+00021100141ADDGA1061+999999099MW1871
0041702070266271943121316004+63883-160800SAO  +0006UNK  V0203381N007212200019N0320001N1-02091-02591100411ADDGA1021+012009079GA2061+999999039MW1001
0009422600999991943042617004+27150+077967SAO  +0169VIAG V0203151N003112200019N0080001N1+03021+00801100471ADDMW1051
0039702960264101943121815004+60500-145500SAO  +0013CDV  V0200681N003610027019N0032001N1-00261-00421101491ADDGA1081+999999079MD1810041+9999MW1711
0025722680230091943071910004+33300-104533SAO  +1118ROW  V0209991C000012200019N1600001N1+02021+01631101521ADDGA1021+999999009MW1001
0057425910999991943102014004+24750+084950SAO  +0016VEGY V0209991C000010300019N1600001N1+02181+02131101251ADDGA1031+006009099GA2031+999999049GA3021+999999029MW1171
0039814050999991943091705004+04833-052367SAO  +0009SOCA V0209991C000010420019N1600001N1+02351+02301101351ADDGA1061+999999039MD1710201+9999MW1001
0025749272999991943100806004+36800+009883SAO  +004999999V0202701N002612200019N1600001N1+02241+01571101481ADDGA1011+999999039MW1001
0055749161999991943051400004+31517-103133SAO  +079848F  V0200681N005112200019N1600001N1+02241+01071101151ADDGA1011+021009099GA2051+999999009MD1810181+9999MW1001
0043484560999991943020212004+13917+100600FM-12+000399999V0202001N006719999999N9999999N9+02781+02111100671ADDAY101999KA1999M+03441KA2999N+02441MW1001
0035837290999991943083000004-22900-047067FM-12+066599999V0201401N012319999999N9999999N9+01001+99999102461ADDGF100991999999999999999999MW1111
0009945750999991943062119004-27567+153000SAO  +0018ABBN V0201801N001512200019N1600001N1+00741+00241101751ADDMW1001
0192999999149361943022123005+44383-098217SAO  +039599999V02033859001552200059N016000599+01335+00285101155ADDGA1999+000004999GF102995999999999999999999MA1999999096445EQDN01 00000JPWTH 1QNNG11U1 99999H11 1 99000K11 1 00037L11 1 01000M11 1 28480N11 1 00000Q11 1 10115S11 1 00056V11 1 00299W11 1 18003
0009432960999991943022309004+12950+077633SAO  +0897VOBG V0200451N006712200019N1600001N1+03071-00421999999ADDMW1001
0058851510999991943072612004-14717-068500FM-12+138299999V0200501N00311004501CN0040001N9+02441+99999999999ADDAY101999GF106991061061004501001001MA1999999095101MW1021
0009727796241371943102811004+48600-112367SAO  +1175CTB  V0203151N001512200019N0480001N1-00261-00371101081ADDMW1001
0025749067999991943041420004+39950-079650SAO  +03832G3  V0202251N008710180019N0048001N1+00631+00021999999ADDGA1061+999999089MW1051
0025719450999991943030917004+58833-122583SAO  +0382CYYE V0201801N002110150019N0240001N1-01031+99999101171ADDGA1081+999999079MW1001
0039749142999991943082903004+67100-062350SAO  +004099999V0200681N001510210019N1600001N1+00351+00081102241ADDGA1061+999999039MD1710041+9999MW1001
0071786370999991943072412004+15717-088600SAO  +0001MGPB V0209991C000012200019N1600001N1+02301+02241101661ADDGA1021+010509059GA2011+999999039GA3051+999999029MD1310061+9999MW1001
0009749194999991943082707004+59383-126117SAO  +042299999V0201801N001012200019N0320001N1+00581+00461999999ADDMW1001
0039719640999991943081118004+60717-135067SAO  +0703CYXY V0200451N004610120019N0640001N1+01131+00911101101ADDGA1081+003009059MD1210141+9999MW1001
0025719120999991943052902004+56350-094700SAO  +0144CYGX V0200451N004610240019N0048001N1+00021+00021999999ADDGA1081+999999049MW1711
0009722533129621943080905004+29333-099167SAO  +0280HDO  V0201351N005112200019N1600001N1+02911+02301101021ADDMW1001
0025567780999991943021604004+25017+102683SAO  +1892ZPPP V0202701N005710105019N1600001N1+01741+00411999999ADDGA1051+999999089MW1001
0025718010999991943122717004+47583-052700SAO  +0017CYYT V0202701N005110075019N0128001N1+00241+99999102271ADDGA1081+999999059MW1001
0025727850241571943121504004+47633-117533SAO  +0721GEG  V0203601N002110021019N0128001N1-00421-00481102911ADDGA1081+999999079MW1001
0025749430999991943070920004-13300+131133SAO  +013199999V0203381N002110210019N1600001N1+02351+01851101271ADDGA1051+999999039MW1001
0029723119138861943101212004+34850-082350SAO  +0319GMU  V0200451N002112200019N0064001N1+01131+00801102681ADDMD1210061+9999MW1041MW2111
0025911700225081943061208004+21483-158050SAO  +0257PHHI V0200501N002612200019N1600001N9+02181+02021101801ADDGA1031+010509059MW1001
0025724835232061943082004004+38417-121333SAO  +0027MHR  V0202001N006712200019N0240001N9+01961+01131101221ADDGA1001+999999999MW1001
0071749407999991943122421004-06067+145917SAO  +0394AGAP V0209991C000012200019N1600001N1+02351+02131100981ADDGA1011+009009089GA2011+999999039GA3061+999999029MD1210161+9999MW1001
0051724050137431943031315004+38850-077033SAO  +0020DCA  V0203601N003610060019N0012001N1+00131+00081102131ADDGA1081+999999059MD1110061+9999MW1451MW2611MW3791
0009603900999991943052222004+36717+003250SAO  +0025DAAG V0203601N001012200019N1600001N1+01741+01461102031ADDMW1001
0039726835242301943082615004+44250-121150SAO  +0938RDM  V0201351N002610360019N0480001N1+01461+00631101591ADDGA1051+999999039MD1210101+9999MW1001
0055788060999991943042021004+08917-079600SAO  +0010MPHO V0203201N005112200019N1600001N9+02911+02131100951ADDGA1021+009009059GA2031+999999029MD1810101+9999MW1001
0025723865231121943081916004+36250-115033SAO  +0569LSV  V0200701N001012200019N0480001N9+03351+01071101051ADDGA1001+999999999MW1001
0023567780999991943011417004+25017+102683SAO  +1892ZPPP V0209991C000012200019N0096001N1+00691+00581999999ADDMD1110021+9999MW1051
0051114180999991943050512004+49917+012717FM-12+053899999V0201401N01231220001CN0200001N9+01391+99999101531ADDAY101999GF100991001001999999001001MD1810261+9999
0029719340999991943041700004+60017-112000FM-12+020399999V0203601N001519999999N0500001N9+00171+99999102131ADDGF100991001001999999001001
0025723100138831943070504004+33950-081117SAO  +0069CAE  V0202251N001512200019N0128001N1+02521+02351101591ADDGA1041+999999029MW1001
0057108680999991943080115004+48250+011550FM-12+014899999V0200501N00261220001CN0100001N9+03001+00781101371ADDAY121031GF106991001001999999001061MD1990041+9999MW1051
0055788610999991943060715004+17117-061783SAO  +0010TAPA V0201131N008710210019N1600001N1+02801+02411101761ADDGA1031+007509089GA2021+999999039MD1310041+9999MW1001
0025724050137431943011617001+38850-077033SAO  +0020DCA  V0201801N005110390019N0080001N1+01691+00801100511ADDGA1081+999999049MW1051
0080749045999991943111512004+27467-081367SAO  +0020SEF  V0200451N004612200019N0080001N1+01351+01191102271ADDGA1011+009009059GA2051+999999029MD1410001+9999MW1041MW2111EQDQ01+000022APCTEN
0077850430999991943102716004-11000-066083FM-12+017299999V0209991C00001220001CN0500001N9+02941+02441999999ADDAY101999GF106991999001999999071001MA1999999099611MW1021EQDQ01+000002SCOTLC
0043109820999991943010909004+47867+012350FM-12+016299999V0202701N00101000601CN0005001N9+99999+99999999999ADDAY171999GF109991091999000751999999MW1731
0041749268999991943011211004+36500+002817SAO  +017099999V0202481N008710135019N1600001N1+01801+00911101371ADDGA1051+999999059GA2031+999999049MW1001
0061829840999991943042412004-09383-040317FM-12+038199999V0201401N002619999999N9999999N9+02391+99999101581ADDGF108991999999999999999999KA1999M+03281KA2999N+02111MW1111
0260999999118011943013015005+12133-086200SAO  +0063MNMG V02004559005250365849N160000599+02835+01945101395ADDGA1999+007624064GA2999+999999044GD19035+9999999GD29025+9999999GD39999+9999999GD49999+9999999EQDN01 00000JPWTH 1QNNE11 1 09904E11 1 09903E11 1 09999E11 1 09999G11 1 00120H11 1 15025H11 1 21999K11 1 00067L11N1 99999N11 1 00000Q11 1 10139S11 1 00083W11 1 22010
0009722140938051943082304004+30433-084333SAO  +0021TLH  V0200451N001012200019N1600001N1+02131+02131101461ADDMW1001
0055911700225081943012806004+21483-158050SAO  +0257PHHI V0201601N002610075019N1600001N9+02181+02071101521ADDGA1061+999999089GA2021+999999039MD1210201+9999MW1001
0025722545999991943022105004+30200-097667SAO  +0154BSM  V0201801N001512200019N1600001N9+01801+01571101591ADDGA1031+004509089MW1001
0025726510149441943090902004+43583-096733SAO  +0435FSD  V0203151N001510180019N1600001N1+00911+00581102171ADDGA1081+999999039MW1001
0249722265138211943050401003+32383-086350SAO  +0053MXF  V02031559001552200019N1600005N9+02835+01675101695ADDGA1021+015244084GD19025+9999999GD29999+9999999GD39999+9999999GD49999+9999999EQDN01 00900CCLHT 3N02 00000JPWTH 1QNNE11 1 09902E11 1 09999E11 1 09999E11 1 09999G11 3 00900H11 1 11050K11 1 00062L11N1 99999N11 1 00000Q11 1 10169S11 1 00083W11 1 88003
0009601560999991943071317004+33367-007583SAO  +0206GMMN V0203601N005712200019N1600001N1+02681+02021101921ADDMW1001
0039722680230091943100603004+33300-104533SAO  +1118ROW  V0201581N004610450019N1600001N1+01801+00581102101ADDGA1081+999999049MD1210161+9999MW1001
0057106590999991943052809004+49750+010200FM-12+006099999V0202901N00261007801CN0040001N9+01721+01281102571ADDAY121031GF106991061071008001001001MD1990021+9999MW1051
0025724663999991943031316004+38783-104717SAO  +1881PEF  V0203381N001012200019N1600001N1+00631-00761102131ADDGA1081+999999039MW1001
0025725330148271943052007004+41000-085200SAO  +0252FWA  V0200681N005110006019N0032001N1+01301+01071101801ADDGA1081+999999079MW1451
005072270023044194301262100D+31800-106400SAO  +1194ELP  V0201351N003612200019N1600001N1+01021-00921101901ADDAA101000095GA1021+999999009MD1610341+9999MW1001
0025722868999991943121808004+33833-116500SAO  +0141PSP  V0209991C000010150019N0240001N1+01301+01021102401ADDGA1081+999999049MW1001
0025722686230081943022616004+34383-103317SAO  +1309CVS  V0200701N005112200019N1600001N9+00411-00591999999ADDGA1021+999999039MW1001
0025749090999991943011710004+32917-080650SAO  +0029RBW  V0201801N003610060019N0096001N1+01801+99999999999ADDGA1081+999999079MW1451
0009749463999991943110310004-21267+164917SAO  +001499999V0201351N001512200019N1600001N1+02071+01631101561ADDMW1001
0039749270999991943082311004+36867+009900SAO  +000099999V0200681N005110105019N1600001N1+03181+01911101761ADDGA1061+999999059MD1310041+9999MW1001
003672221013858194304190100D+30483-086517SAO  +0025VPS  V0201401N001510105019N0064001N9+01851+01691100441ADDAA101000095GA1061+999999059MW1451
0025726395148081943082604004+44467-083400SAO  +0183OSC  V0200501N007712200019N1600001N9+01851+01521999999ADDGA1001+999999999MW1001
0039783284999991943110201004+22867-082517SAO  +0050MUSA V0200451N003612200019N1600001N1+02571+02301101631ADDGA1061+999999029MD1210061+9999MW1001
0095103480999991943031806004+52233+010483FM-12+002499999V0200501N00461220001CN0040001N9+00111-00111102151ADDAY111999GF100991001001999999001001IA1009KA1999N+00111MD1310031+9999MW1051EQDQ01+000002APC3  
0025749286999991943112502004+36883+010333SAO  +005799999V0209991C000012200019N0128001N1+00911+00581102311ADDGA1021+999999039MW1001
0015749095999991943111012004+35633-091167SAO  +0074EWP  V0202251N001512200019N0064001N1-00091-00311103121ADDMW1041MW2111
0074722636930421943090212004+36017-102550SAO  +1216DHT  V0202031N002612200019N1600001N1+01521+01351101251ADDGA1021+999999031GA2021+999999001MD1210101+9999MW1001EQDQ01+000002APC3  
0055725265999991943112014004+40200-100583SAO  +0786MCK  V0201581N002112200019N1600001N1+00581-00481101561ADDGA1021+999999049GA2041+999999009MD1710041+9999MW1001
0045749125999991943101700004+65533-018067SAO  +003599999V0200231N004110075019N0080001N1+00131-00091100801ADDGA1081+999999079MD1710101+9999MW1451MW2711
0039722735930261943100200004+31467-109600SAO  +1267DUG  V0201351N004612200019N0320001N1+02631+00801101291ADDGA1021+024009059MD1610061+9999MW1001
0039724835232061943040903004+38417-121333SAO  +0027MHR  V0202001N001510105019N0240001N9+01191+00521101491ADDGA1051+999999059MD1310041+9999MW1001
0058723100138831943120203004+33950-081117SAO  +0069CAE  V0202481N001012200019N0096001N1+00581+00351102001ADDGA1041+999999009MD1410001+9999MW1051EQDQ01+000022APCTEN
0025722347999991943110110004+31267-089250SAO  +0046HBG  V0209991C000010027019N0064001N1+01851+01851101961ADDGA1051+999999079MW1111
0055724810232031943032400004+37333-120517SAO  +0053MER  V0203601N003112200019N1600001N9+02021+01021102101ADDGA1001+999999999GA2061+999999029MD1710081+9999MW1001
0025722588999991943071813004+33067-096067SAO  +0166GVT  V0202031N002112200019N1600001N1+02681+02301102001ADDGA1061+999999009MW1001
0025717050999991943072905004+46117-064683SAO  +0071CYQM V0203601N001512200019N0240001N1+01521+01241101161ADDGA1021+015009059MW1001
0025724835232061943010316004+38417-121333SAO  +0027MHR  V0200201N001012200019N0240001N9+00131-00091102511ADDGA1021+999999009MW1001
0037749090999991943121505004+32917-080650SAO  +0029RBW  V0200231N003110060019N0064001N1+00301+00301101591ADDGA1081+999999059MW1041MW2451MW3611
0041749055999991943090717004+26400-098350SAO  +00627R7  V0201351N001510054019N1600001N1+02801+02351101391ADDGA1061+999999059GA2021+999999009MW1611
0023979800999991943062911004-08467+140383SAO  +0003WABM V0201581N001512200019N1600001N1+02241+02021101281ADDMD1310201+9999MW1001
0041749035999991943022216004+08250-080567SAO  +0046MADU V0200451N010812200019N1600001N1+03071+01961101251ADDGA1021+010509089GA2061+999999029MW1001
0025722970231291943071619004+33817-118150SAO  +0012LGB  V0201581N002112200019N0096001N1+02181+01241101691ADDGA1021+009009079MW1051
0023812250999991943072906004+05450-055200SAO  +0015SMZY V0209991C000012200019N0112001N1+02301+02301101461ADDMD1710161+9999MW1001
0025727755241121943081113004+47500-111167SAO  +1054KGFA V0202701N004612200019N0480001N9+01301+00581100901ADDGA1021+015009059MW1001
0025749155999991943071307004+28867-100517SAO  +0070EGP  V0203601N001510420019N1600001N1+02241+02181101251ADDGA1051+999999049MW1001
0051108680999991943092412004+48250+011550FM-12+014899999V0209991C00001220001CN0200001N9+01891+01441102031ADDAY141061GF100991001001999999001001MD1810121+9999
0039703980253081943102312004+55033-131567SAO  +0034ANN  V0201131N005110090019N0320001N1+00741+00521101321ADDGA1081+999999059MD1110101+9999MW1611
0025749447999991943110801004-16633+178533SAO  +007999999V0201351N011312200019N1600001N1+02961+02181100811ADDGA1021+006009089MW1001
0039749122999991943103103004+59367-097383SAO  +027199999V0202481N003610180019N0096001N1+00131-00151101081ADDGA1081+999999059MD1210061+9999MW1711
0025749023999991943071508004+06750-011250SAO  +000099999V0201801N009810054019N0080001N1+02461+02411101351ADDGA1081+999999059MW1611
0025722250138291943032123004+32333-085000SAO  +0071LSF  V0203201N009810030019N0112001N9+00911+00461101731ADDGA1081+999999079MW1001
0055911690999991943051203004+21683-158033SAO  +001099999V0200681N002610090019N1600001N1+02681+02241101061ADDGA1061+007509089GA2021+999999049MD1310021+9999MW1001
0009725068999991943052510004+41650-070517SAO  +0043FMH  V0201351N001512200019N0128001N1+00961+00961102001ADDMW1001
0023783284999991943120913004+22867-082517SAO  +0050MUSA V0200901N003612200019N1600001N1+02071+01411102071ADDMD1310101+9999MW1001
0009718030999991943022817004+48950-054567SAO  +0151CYQX V0202481N007212200019N1600001N1-00651-01371101121ADDMW1001
0041727680940081943051704004+48217-106617SAO  +0700GGW  V0202031N005112200019N0240001N1+00911-00091102131ADDGA1021+018009059GA2021+999999039MW1001
0009749123999991943100721004+54917-098633SAO  +0233CYWB V0202481N006712200019N1600001N1+02181+00801100911ADDMW1001
0042722977931841943061809004+33683-117867SAO  +0016SNA  V0202251N002610001519N0004001N1+01571+01521101321ADDMD1410001+9999MW1451EQDQ01+000022APCTEN
0025722400039371943112616004+30117-093317SAO  +0010LCH  V0201131N004112200019N0032001N1+01571+01071102201ADDGA1081+999999009MW1051
0043125320999991943070503004+50367+017933FM-12+005999999V0209991C00001220001CN0020001N9+99999+99999999999ADDAY121999GF106991001001999999071999MW1051
0041749425999991943100903004-09433+160183SAO  +000799999V0203601N005112200019N1600001N1+03241+02301100811ADDGA1021+010509089GA2011+999999029MW1001
0009703980253081943032114004+55033-131567SAO  +0034ANN  V0202701N003610075019N0128001N1-00041-00371100471ADDMW1851
0057722687930331943093023004+32333-104267SAO  +1004CNM  V0200681N009810390019N0128001N1+02461+01241101251ADDGA1021+015009099GA2021+999999049GA3011+999999009MW1001
0041942830999991943012401004-15433+145183SAO  +000999999V0201131N003110105019N1600001N1+03351+02521100951ADDGA1051+999999089GA2021+999999049MW1001
0042749073999991943051409004+32400-086250SAO  +0067GUN  V0203601N001012200019N0096001N1+01911+01801101661ADDMD1410001+9999MW1051EQDQ01+000022APCTEN
0009607150999991943081316004+36833+010233SAO  +0004DTTA V0203381N007212200019N1600001N1+02911+01741101351ADDMW1001
0025749111999991943102917004+40650-098083SAO  +055408K  V0200451N011312200019N1600001N1+01521+00691100851ADDGA1031+999999039MW1001
0031745700138401943051305004+39833-084050SAO  +0254FFO  V0209991C000012200019N0048001N9+01351+01131101691ADDGA1001+999999999MW1041MW2451
0009691174999991943080102004+39833-076117SAO  +0002KQAH V0202701N001512200019N0112001N1+02131+01851101661ADDMW1001
0031425910999991943072214004+24750+084950SAO  +0016VEGY V0202251N001510180019N0112001N1+02741+02571099461ADDGA1081+006009099MW1171MW2611
0029719460999991943091918004+61867-121350FM-12+012799999V0201401N003619999999N0500001N9+00171+99999101251ADDGF108991081999008001999999
0025724635230671943082713004+38050-103517SAO  +1292LHX  V0202031N001010360019N1600001N1+01741+01631102071ADDGA1061+999999039MW1001
0039718010999991943050110004+47617-052750SAO  +0140CYYT V0201801N006212200019N0240001N1-00151-00371102561ADDGA1081+999999029MD1110041+9999MW1001
0041726815241061943120419004+43050-115850SAO  +0911MUO  V0201401N006710360019N0480001N9+01131-00091101321ADDGA1051+999999039GA2031+999999019MW1001
0039749045999991943100912004+27467-081367SAO  +0020SEF  V0200681N004610009019N0016001N1+02181+02181101391ADDGA1081+999999079MD1110201+9999MW1451
0039749044999991943120121004+26367-080100SAO  +0005BCT  V0200901N002110099019N1600001N1+02071+01241101961ADDGA1081+999999059MD1610061+9999MW1001
0025812250999991943120816004+05450-055200SAO  +0015SMZY V0200901N002610105019N1600001N1+03131+02131101221ADDGA1061+999999089MW1001
0025162603999991943103110004+41433+015533SAO  +0094LIBF V0203381N005112200019N1600001N1+02071+01351102021ADDGA1021+015009089MW1001
0041725080147401943071514004+41933-072683SAO  +0055BDL  V0202931N001010240019N0032001N1+02961+01801100981ADDGA1011+006009059GA2061+999999039MW1051
0025749059999991943012905004+34083-004917SAO  +0401GFEZ V0201351N000510540019N0128001N1+00191-00041103021ADDGA1061+999999029MW1001
0025725690240891943092420004+42917-106467SAO  +1612CPR  V0201581N001512200019N1600001N1+02521+00021101421ADDGA1011+021009089MW1001
0023702070266271943120306004+63883-160800SAO  +0006UNK  V0200901N002112200019N0320001N1-01591-01811099591ADDMD1210241+9999MW1001
0009423390999991943102501004+26300+073017SAO  +0224VIOJ V0202931N001512200019N0144001N1+02131+00851101321ADDMW1001
0025749235999991943050303004+22450+086700SAO  +013199999V0200451N001512200019N0112001N1+03021+02301100911ADDGA1011+999999009MW1001
0025723030137141943011514004+35183-079017SAO  +0064POB  V0202701N003612200019N0080001N9+01021+00801101021ADDGA1021+999999049MW1051
0057101470999991943021103004+53633+010000FM-12+000599999V0202301N00671007801CN0040001N9+00281+00221100811ADDAY131999GF108991081051008001999999MD1310121+9999MW1511
0041656600999991943090413004+06250-010350SAO  +0018GLRB V0202251N006210045019N0112001N1+02851+02181101151ADDGA1051+999999059GA2021+999999049MW1001
0025749076999991943091019004+38833-085417SAO  +0268MDN  V0202931N003112200019N1600001N1+02241+00351102341ADDGA1011+999999049MW1001
0025725310148061943091723004+40300-088133SAO  +0228RAN  V0200901N002110120019N1600001N1+01521+00581103081ADDGA1061+999999059MW1001
0057787930999991943092413004+08400-082417SAO  +0026MPDA V0200451N001512200019N1600001N1+02631+02351101121ADDGA1021+009009099GA2011+999999039GA3061+999999009MW1001
0061837360999991943101112004-22100-045017FM-12+087299999V0209991C000019999999N9999999N9+02001+99999100621ADDGF108991999999999999999999KA1999M+02721KA2999N+01781MW1111
0039749062999991943041521004+34300-006583SAO  +001399999V0203151N001010180019N1600001N1+01801+01131101151ADDGA1081+999999059MD1110161+9999MW1001
0039722167999991943120721004+30967-083200SAO  +0074VAD  V0202481N004112200019N0080001N1+02461+01571101661ADDGA1041+010509089MD1610081+9999MW1051
0025745700138401943070307004+39833-084050SAO  +0254FFO  V0201401N002612200019N0064001N9+01911+01571102131ADDGA1031+999999009MW1051
0025722745231091943012304004+32183-110917SAO  +0782DMA  V0201801N005110180019N0480001N9+01911-01091101351ADDGA1061+999999039MW1001
0041788071999991943052123004+08967-079550SAO  +0012MBLB V0203151N003110240019N1600001N1+02681+02461100681ADDGA1031+006009099GA2051+999999049MW1001
0025745700138401943092801004+39833-084050SAO  +0254FFO  V0209991C000012200019N0080001N9+01521+00851102171ADDGA1031+999999029MW1051
0025915900999991943020720004-22017+166217SAO  +0014NWWW V0201581N001510240019N1600001N1+02521+01961100881ADDGA1061+999999049MW1001
0041916800999991943121305004-17750+177450SAO  +0018NFFN V0202031N002610450019N1600001N1+02911+02351100411ADDGA1021+012009059GA2061+999999049MW1001
0041749045999991943111517004+27467-081367SAO  +0020SEF  V0200901N006210105019N0128001N1+02631+01351102131ADDGA1051+999999089GA2021+999999029MW1001
0025784390999991943092005004+18567-072300SAO  +0029MTPP V0201801N001510240019N1600001N1+02571+02461101251ADDGA1051+999999039MW1001
0039727850241571943100609004+47633-117533SAO  +0721GEG  V0200451N005712200019N0240001N1+01461+00801102301ADDGA1021+999999009MD1710061+9999MW1001
0058749441999991943082818004-19250+146750SAO  +0006ABTL V0209991C000012200019N1600001N1+01741+01571101351ADDGA1011+009009059MD1410001+9999MW1001EQDQ01+000022APCTEN
0039722970231291943021718004+33817-118150SAO  +0012LGB  V0200901N002110090019N0064001N1+01571+01191102271ADDGA1061+999999059MD1210061+9999MW1051
0009722925931171943062720004+33017-118583SAO  +0055NUC  V0202251N004112200019N0240001N1+01571+01191101681ADDMW1001
0025749159999991943042111004+35533-100750SAO  +0955PPA  V0201801N005712200019N1600001N1+00741+00521100911ADDGA1031+999999039MW1001
0039607250999991943080311004+36483+008800SAO  +0144DTTN V0209991C000012200019N0128001N1+03741+01691100951ADDGA1021+999999029MD1810161+9999MW1001
0041749191999991943081308004+56700-121750SAO  +090599999V0209991C000010300019N1600001N1+00851+00741100781ADDGA1021+018009059GA2061+999999039MW1001
0070102890999991943072906004+53317+013867FM-12+000899999V0209991C00001220001CN0100001N9+01611+01331102001ADDAY121999GF104991001001999999071021IA1009KA1999N+01391MD1210021+9999
0039727796241371943060406004+48600-112367SAO  +1175CTB  V0203601N002110105019N0320001N1+00301+00241102401ADDGA1081+999999059MD1210101+9999MW1001
0025788071999991943021919004+08967-079550SAO  +0012MBLB V0203151N003610075019N1600001N1+02681+02241101221ADDGA1081+999999059MW1001
0025725101147121943070716004+40383-075967SAO  +0106RDG  V0200451N006710090019N0128001N1+02071+01571101661ADDGA1081+999999059MW1001
0025722650999991943052916004+31933-102200SAO  +0871MAF  V0201801N005710075019N1600001N1+02241+01571101221ADDGA1081+999999051MW1001
0055749166999991943092500004+33750-115333SAO  +0165DSC  V0200901N002610450019N0320001N1+03021+01741999999ADDGA1021+018009099GA2061+999999039MD1810141+9999MW1001
0039654720999991943063022004+05600-000167SAO  +0069DGAA V0202031N004610036019N0112001N1+02461+02241101461ADDGA1061+999999059MD1110161+9999MW1001
0025914900999991943100107004+01983-157483SAO  +0003PLCH V0200901N002112200019N1600001N1+02571+02241101121ADDGA1021+006009089MW1001
0025719430999991943021103004+56233-120733SAO  +0695CYXJ V0202701N001012200019N0128001N1-01981-02371100291ADDGA1011+999999049MW1001
0041722347999991943010417004+31267-089250SAO  +0046HBG  V0203601N005112200019N1600001N1+00801-00761999999ADDGA1021+999999039GA2041+999999029MW1001
0041722640930351943010805004+30367-104017SAO  +1481MRF  V0200901N002110180019N1600001N1-00201-00371999999ADDGA1051+999999031GA2031+999999021MW1001
0009724585939971943092120004+38867-098817SAO  +0568RSL  V0202251N005712200019N1600001N1+03521+00801100711ADDMW1001
0025749045999991943110813004+27467-081367SAO  +0020SEF  V0201801N004610018019N0080001N1+02411+02351101731ADDGA1081+999999089MW1051
0025724338138021943060905004+38550-089983SAO  +0134BLV  V0200201N004612200019N0048001N9+01691+01631102201ADDGA1021+999999029MW1051
0055789880999991943102714004+12200-068967SAO  +0067TNCC V0200231N001510060019N1600001N1+02851+02571101221ADDGA1061+999999059GA2011+999999029MD1110081+9999MW1801
0039723030137141943101012004+35183-079017SAO  +0064POB  V0202701N001012200019N0096001N9+01071+00961101691ADDGA1001+999999999MD1210281+9999MW1111
0055745980137021943012121004+37083-076350SAO  +0002LFI  V0200501N003612200019N0112001N9+00461-00531101831ADDGA1021+999999039GA2041+999999029MD1610161+9999MW1001
0025725068999991943083020004+41650-070517SAO  +0043FMH  V0200681N002612200019N1600001N1+02181+01631101461ADDGA1011+006009089MW1001
0039745940137051943112800004+38683-076883SAO  +0085ADW  V0202901N003612200019N0096001N9+00521-00261101561ADDGA1001+999999999MD1210241+9999MW1051
0025783970999991943101000004+17933-076783SAO  +0009MKJP V0203601N002112200019N1600001N1+02461+02301101321ADDGA1051+999999009MW1001
0055724836232081943110418004+38650-121383SAO  +0024MCC  V0201801N005112200019N0160001N9+01851+01191102371ADDGA1021+999999049GA2051+999999029MD1810041+9999MW1001
0025914900999991943103121004+01983-157483SAO  +0003PLCH V0200451N003612200019N1600001N1+03021+02241101051ADDGA1021+006009089MW1001
0039724970999991943112518004+39783-121850SAO  +0069CIC  V0201801N003112200019N0112001N1+01191+00741102371ADDGA1061+999999029MD1810041+9999MW1001
0025749273999991943030907004+36133+006617SAO  +077099999V0202701N005112200019N1600001N1+00801+00461101051ADDGA1031+006009059MW1001
0025914900999991943110409004+01983-157483SAO  +0003PLCH V0200901N002612200019N1600001N1+02571+02181101021ADDGA1021+999999059MW1001
0025911700225081943111013004+21483-158050SAO  +0257PHHI V0202301N000512200019N1600001N9+02131+01691101561ADDGA1011+009009089MW1001
0019744900147021943030511004+42467-071283SAO  +0045BED  V0202001N006710360019N1600001N9-00421-00921999999ADDGA1061+999999049
0025749035999991943012701004+08250-080567SAO  +0046MADU V0209991C000010360019N1600001N1+02521+99999101221ADDGA1061+999999039MW1001
0025749516999991943112105004+60483-133450SAO  +080499999V0201131N004110360019N0320001N1+00191-00151999999ADDGA1081+999999049MW1001
0065033010999991943112301004+53417-002650FM-12+001899999V0202701N00261220001CN0020001N9+00441+00221101201ADDGA1999+004509009GF100991001001999999001001MD1010041+9999MW1051
0025722615220011943110619004+29350-100783SAO  +032399999V0203401N008212200019N1600001N9+02911+00351100441ADDGA1001+999999999MW1001
0041749120999991943122717004+51833-062883SAO  +052499999V0203601N002110300019N0320001N1-01921-02141101931ADDGA1041+006009079GA2041+999999049MW1001
0055749438999991943010709004-12700+143300SAO  +001899999V0201351N001012200019N0240001N1+02631+02301100541ADDGA1031+006009089GA2051+999999039MD1210041+9999MW1001
0025722650999991943051001004+31933-102200SAO  +0871MAF  V0200231N008210015019N0128001N1+01021+00911100711ADDGA1081+999999071MW1001
0009749282999991943050605004+36117+006350SAO  +075499999V0202481N002112200019N1600001N1+01741+00801100911ADDMW1001
0025619020999991943033014004-07967-014400SAO  +0086FHAW V0201401N008210075019N1600001N9+03071+02181101081ADDGA1051+999999059MW1001
0070106770999991943103018004+50000+011633FM-12+011399999V0200701N00461220001CN0100001N9+01221+00061102531ADDAY101061GF101991999001999999041001IA1009KA1999M+01721MD1210061+9999
0039725370948471943033003004+42233-083333SAO  +0202DTW  V0201581N005112200019N0096001N1+00241-00151102241ADDGA1021+999999039MD1710161+9999MW1051
0055785260999991943032421004+18433-066000SAO  +0019TJSJ V0200231N004612200019N1600001N1+02631+01911101391ADDGA1021+009009089GA2041+999999039MD1610041+9999MW1001
0087110380999991943011306004+48100+016467FM-12+017499999V0201401N00931007801CN0020001N9-00781+99999101101ADDAA199000691AY171061GF108991061051008001021999IA1159KA1999N-00891MD1210081+9999MW1221
0057035610999991943020918004+52250+000767FM-12+006399999V0203201N00261007801CN0010001N9+00561+00391099481ADDAY121999GF108991081051008001999999MD1310141+9999MW1101
0025915900999991943080903004-22017+166217SAO  +0014NWWW V0202701N009310105019N1600001N1+02411+01741100881ADDGA1051+999999089MW1001
0025722505129041943112819004+26233-097667SAO  +0011HRL  V0203381N004610030019N1600001N1+01571+00911101831ADDGA1051+999999089MW1001
0039722340138651943032121004+32333-088750SAO  +0094MEI  V0203381N005712200019N1600001N1+01411+00411102131ADDGA1021+010509059MD1610041+9999MW1001
0041722235138381943062708004+30633-088067SAO  +0008BFM  V0202931N001512200019N0048001N1+02521+02351101461ADDGA1021+007509099GA2021+999999009MW1051
0025703330999991943052018004+56950-158617SAO  +0029PTH  V0201581N001510030019N1600001N1+00021-00091100641ADDGA1081+999999059MW1001
0041422600999991943072010004+27150+077967SAO  +0169VIAG V0200681N006710120019N1600001N1+03071+02571099761ADDGA1051+999999089GA2021+999999039MW1001
0039725190147711943021918004+43150-076267SAO  +0128SYR  V0202701N002110360019N0040001N9+00581+00021102171ADDGA1081+999999049MD1710301+9999MW1051
0055711896999991943121418004+50283-064167SAO  +0022CYLP V0202701N005712200019N0320001N1-01641-02591100911ADDGA1021+009009059GA2011+999999039MD1310161+9999MW1001
0009915900999991943120103004-22017+166217SAO  +0014NWWW V0202251N004612200019N1600001N1+02801+01571101081ADDMW1001
0055702615999991943081518004+64850-147583SAO  +0148FBK  V0200681N001510120019N0960001N1+00581+00411101121ADDGA1061+999999059GA2011+999999029MD1610041+9999MW1001
0039702600264351943100709004+64550-149083SAO  +0110ENN  V0202481N003110330019N0400001N1+00631+00241100511ADDGA1051+999999049MD1210301+9999MW1001
0061838130999991943071912004-24783-050000FM-12+099799999V0200901N004619999999N9999999N9+01001+99999101061ADDGF108991999999999999999999KA1999M+01891KA2999N+00891MW1111
0055749026999991943100609004+08233-078900SAO  +0024MPYI V0202931N002612200019N1600001N1+02631+02351100911ADDGA1041+009009059GA2041+999999029MD1710061+9999MW1001
0009722317139701943102802004+30533-091150SAO  +0021BTR  V0202701N002112200019N0080001N1+01131+00581101731ADDMW1051
0025979800999991943082922004-08467+140383SAO  +0003WABM V0201351N002110051019N0016001N1+02411+02351100951ADDGA1081+999999079MW1631
0009724800231571943011821004+37367-118367SAO  +1263BIH  V0201801N001512200019N1600001N1+00351-01591999999ADDMW1001
0025749446999991943060204004-17683+168300SAO  +002099999V0200901N002610105019N1600001N1+02461+01801101591ADDGA1081+999999059MW1001
0025040180162011943060622004+63967-022600SAO  +0050BIKF V0200681N007710027019N0080001N1+00691+00581100311ADDGA1081+999999059MW1611
0041749447999991943112803004-16633+178533SAO  +007999999V0203381N005110360019N1600001N1+03131+02351100811ADDGA1041+006009089GA2031+999999049MW1001
0009702220999991943110319004+64733-156933SAO  +0049GAL  V0209991C000010180019N0240001N1-01311-01591999999ADDMW1001
0025747188231581943040511004+33617-114717SAO  +0121BLH  V0201801N001512200019N1600001N1+02071-00531100951ADDGA1031+999999049MW1001
0039042610999991943112606004+61217-048117SAO  +0029BGGD V0202701N001510105019N0160001N1-00201-00311099171ADDGA1081+999999079MD1210041+9999MW1711
0025724517999991943092113004+38350-098867SAO  +0576GBD  V0201801N006712200019N1600001N1+01411+01131101321ADDGA1021+999999009MW1001
0009943560999991943080613004-20067+146250SAO  +031399999V0203601N001012200019N1600001N1+01691+01521101561ADDMW1001
0025702615999991943082510004+64850-147583SAO  +0148FBK  V0200451N002112200019N0560001N1+00521+00411101021ADDGA1021+999999029MW1001
0070106874999991943092818004+49583+010900FM-12+010199999V0201801N00461036001CN0200001N9+01111+00501101601ADDAY121061GF106991011041012501041021IA1009KA1999M+01391MD1510081+9999
0025749141999991943110710004+63433-051183SAO  +0041BMKA V0202931N013410087019N0112001N1-00261-00651100811ADDGA1081+999999079MW1001
0025722675230211943100919004+33600-102250SAO  +1009REE  V0201801N004612200019N1600001N9+02461+00241101491ADDGA1051+999999009MW1001
0055723347038091943122015004+36017-089400SAO  +0103DYR  V0203601N002110450019N0064001N1+00131-00591103181ADDGA1061+999999039GA2021+999999009MD1210201+9999MW1051
0025749090999991943081517004+32917-080650SAO  +0029RBW  V0201351N001510075019N0112001N1+02961+02521100471ADDGA1081+999999089MW1801
0073035510999991943082816004+52317+001233FM-12+005599999V0202501N00931220001CN0040001N9+01671+01501101071ADDAY121999GA1001+999999999GF108991061051004501071999MD1710181+9999MW1051
0039726625240061943101518004+44133-103100SAO  +0979RCA  V0201101N004612200019N1600001N9+01021-00261102541ADDGA1001+999999999MD1810041+9999MW1001
0039042610999991943061300004+61217-048117SAO  +0029BGGD V0202931N002112200019N0320001N1+00691+00191101601ADDGA1081+999999029MD1310081+9999MW1001
0055979800999991943052003004-08467+140383SAO  +0003WABM V0201351N001510075019N1600001N1+02631+02301100781ADDGA1061+999999059GA2021+999999039MD1810201+9999MW1001
0057104510999991943090521004+51267+011233FM-12+004399999V0209991C00001220001CN0020001N9+01501+01281102111ADDAY101031GF100991001001999999001001MD1810021+9999MW1051
0025724361138031943072913004+39267-085900SAO  +0200BAK  V0202481N004610510019N0096001N1+02351+02131101021ADDGA1081+999999049MW1451
0039725377148041943091315004+42617-082817SAO  +0176MTC  V0201101N004610180019N0096001N9+01571+01071102171ADDGA1081+999999059MD1810041+9999MW1051
0039840010999991943040203004-00450-090267SAO  +0016SEGS V0200901N001012200019N1600001N1+02741+02351101081ADDGA1021+009009059MD1210201+9999MW1001
0071788078999991943102106004+08383-080133SAO  +0031MPRH V0203151N001510330019N1600001N1+02351+02181100781ADDGA1011+009009059GA2041+999999039GA3021+999999029MD1810121+9999MW1001
0042719060999991943022119004+58083-068417SAO  +0034CYVP V0201801N003612200019N1600001N1-02751-03201101591ADDMD1410001+9999MW1001EQDQ01+000022APCTEN
0039725396148151943092415004+42300-085250SAO  +0290BTL  V0202251N003610090019N1600001N1+01131+00301102241ADDGA1061+999999089MD1710101+9999MW1001
0057749444999991943032920004-10317+150333SAO  +002799999V0209991C000010360019N0128001N1+02681+02411100791ADDGA1021+007509059GA2031+999999049GA3021+999999029MW1001
0041916800999991943021702004-17750+177450SAO  +0018NFFN V0203601N002610120019N1600001N1+02571+02411100881ADDGA1061+999999059GA2021+999999049MW1801
0023749195999991943120612004+57750-122900SAO  +085799999V0202251N002112200019N1600001N1+00191-01031100371ADDMD1110101+9999MW1001
0037116500999991943052112004+49617+015583FM-12+045699999V0200201N00461220001CN0200001N9+01391+99999102441ADDAY101999GF100991001001999999001001
0058724565139201943032603004+38950-095667SAO  +0323FOE  V0202701N001510060019N0112001N9+01071+00851101591ADDGA1081+999999079MD1410001+9999MW1001EQDQ01+000022APCTEN
0044042310999991943060410004+66967-050917SAO  +0047BGSF V0202251N001510015019N0016001N1+00081+00081102071ADDGA1081+999999079MW1711EQDQ01    003PRSWM1
