0009412880999991944120607004+20667+058900SAO  +0019OOMA V0200451N008212200019N1600001N1+02851+01801101591ADDMW1001
0055040180162011944033122004+63967-022600SAO  +0050BIKF V0203601N008210240019N0640001N1-00151-00761102301ADDGA1021+009009059GA2041+999999039MD1110041+9999MW1001
0041749444999991944021819004-10317+150333SAO  +002799999V0209991C000012200019N1600001N1+02241+02181100841ADDGA1011+010509089GA2061+999999029MW1001
0023704851999991944080818004+53367-167900SAO  +0039UNS  V0201801N005110001519N0002001N1+00911+00911101961ADDMD1210161+9999MW1451
0041812250999991944122311004+05450-055200SAO  +0015SMZY V0200901N001012200019N0064001N1+02351+02301101221ADDGA1011+001809089GA2061+999999029MW1111
004594287599999194407100500N-16920+145770AUST +0007YBCS V0201805N001059999999N999999999+02625+99999999999ADDGA1055+007505999GF107995054999007505999999
0019417800999991944060611004+24900+067133SAO  +0022OPKC V0202501N005110060019N0112001N9+02911+02351100271ADDGA1081+999999059
0025785470116241944120210004+17700-064800SAO  +0017TISX V0200681N005712200019N1600001N1+02521+02181101251ADDGA1021+006009089MW1001
0009722650999991944080508004+31933-102200SAO  +0871MAF  V0201801N003112200019N1600001N1+02741+01571100711ADDMW1001
0009701791999991944091004004+65000-150650SAO  +0085MLY  V0203601N001512200019N1600001N1+00191-00091101901ADDMW1001
0071749110999991944052921004+40333-097417SAO  +047186Y  V0202031N003612200019N1600001N1+02631+01691101691ADDGA1041+013509089GA2011+999999049GA3021+999999009MD1710141+9999MW1001
0025723865231121944092605004+36250-115033SAO  +0569LSV  V0200501N002612200019N0480001N9+02681+00801100611ADDGA1011+999999049MW1001
0031719130999991944033123004+58750-094067SAO  +0029CYYQ V0203601N010310060019N0004001N1-01261-01421101221ADDGA1081+999999079MW1381MW2711
0041749238999991944080510004+23617+087200SAO  +008699999V0201351N005710060019N0064001N1+02571+02521099901ADDGA1061+999999049GA2021+999999049MW1801
0009702070266271944012714004+63883-160800SAO  +0006UNK  V0202481N004612200019N0064001N1-02701-02981100751ADDMW1451
0025749054999991944122120004+28683-082083SAO  +00274FL2 V0202481N001010240019N1600001N1+02131+01021102071ADDGA1081+999999049MW1001
0025749079999991944050304004+33783-089800SAO  +006399999V0201581N007210066019N0080001N1+02181+01691101351ADDGA1081+999999059MW1051
0025749132999991944051013004+60683-046533SAO  +006299999V0202931N015912200019N0480001N1-00371-01031101631ADDGA1021+006009059MW1001
0025943670999991944060817004-21117+149217SAO  +0031ABMK V0202031N001510360019N1600001N1+01631+01521101731ADDGA1081+999999039MW1001
0025722038999991944021312004+26133-081800SAO  +0003APF  V0200451N005110090019N1600001N1+00961+00351999999ADDGA1061+999999059MW1001
0058749519999991944120406004+41233+015800SAO  +016799999V0202251N001512200019N1600001N1+00461+00351101601ADDGA1011+999999039MD1410001+9999MW1001EQDQ01+000072APCTEN
0133415300999991944112803004+34017+071583FM-12+035599999V0201401N00101220001CN0200001N9+00941-00111101621ADDAY111999GA1999+000159999GA2999+000159999GF101991999031999999001001KA1999N+00561EQDQ01+000002SCOTLCQ02    003SCCGA1Q03    003SCCGA2
0140999999241551944022418005+45683-118850SAO  +0455PDT  V02024859009350030549N004800599+00225+00115100685ADDMA1999999095295MW1455MW2715EQDN01 04070JPWTH 1QNNG11 1 00010K11 1 00034L11 1 00300M11 1 28140N11 1 04070Q11 1 10068S11 1 00036W11 1 76018
0057788078999991944010813004+08383-080133SAO  +0031MPRH V0203381N004612200019N1600001N1+02521+02301100951ADDGA1011+009009089GA2011+999999049GA3011+999999009MW1001
0025749219999991944110702004+64300-158717SAO  +0048KAL  V0203381N005110090019N0480001N1-00591-01481999999ADDGA1081+999999059MW1001
0055703330999991944022513004+56950-158617SAO  +0029PTH  V0202031N005110180019N0160001N1+00131-00091100911ADDGA1021+004509079GA2061+999999049MD1210341+9999MW1001
0009407690999991944063018004+34100+049400SAO  +172099999V0202031N005112200019N1600001N1+02631-00151100311ADDMW1001
0025616410999991944122922004+14733-017500SAO  +0024GOOY V0200231N005710420019N1600001N1+01911+01411101121ADDGA1061+999999039MW1001
0023749184999991944011318004+44667-121167SAO  +0744S33  V0200451N001510001519N0000001N1-00421-00481102341ADDMD1810141+9999MW1451
0071652020999991944102709004+06550+003350SAO  +001999999V0202481N001512200019N1600001N1+02851+02521101121ADDGA1021+004509089GA2021+999999039GA3041+999999009MD1110141+9999MW1001
0065724660930371944092621004+38817-104700SAO  +1881COS  V0200701N002610420019N1600001N9+02351+00301100981ADDGA1021+024009089GA2061+999999049GA3011+999999029MD1710241+9999
0039722786231041944010700004+33317-111650SAO  +0410IWA  V0203601N001012200019N0400001N9+00961+00411101491ADDGA1021+018009059MD1310141+9999MW1001
0074749514999991944091906004+41300+015833SAO  +009199999V0201801N001512200019N1600001N1+01191+99999102221ADDGA1011+010509089GA2031+999999009MD1610011+9999MW1001EQDQ01+000002APC3  
0088036690999991944120211004+51717-000533FM-12+015799999V0202301N00671220001CN0100001N9+00671+00111101211ADDAY101999GA1061+004509009GA2999+009609029GF199999011001022501041001EQDQ01+000012SCOTCV
0039722955031221944070715004+33800-118333SAO  +0031TOA  V0200901N001010045019N0048001N1+01571+01191101561ADDGA1081+999999079MD1210061+9999MW1051
0039727850241571944101006004+47633-117533SAO  +0721GEG  V0200681N003112200019N0320001N1+01351+00631102781ADDGA1031+999999029MD1210061+9999MW1001
0039722138138351944011215004+31083-083800SAO  +0090MGR  V0203601N001012200019N0096001N1+01071+00521102811ADDGA1031+021009039MD1110141+9999MW1051
0009566510999991944121411004+26967+100233SAO  +239499999V0203151N002112200019N1600001N1+01521-00151099151ADDMW1001
0071722356139391944080100004+33483-090983SAO  +0040GLH  V0201351N002612200019N1600001N1+02911+02241101291ADDGA1999+027009999GA2021+999999039GA3031+999999029MD1610061+9999MW1001
0025723011137481944032022004+34267-077900SAO  +0008ILM  V0202701N006712200019N0112001N1+02071+01301100641ADDGA1021+006009089MW1001
0086035460999991944021315004+52450+001150FM-12+005499999V0201801N00461220001CN0100001N9+00391-00281102461ADDAY111999GA1051+004509009GF199999041051012501001001MD1810081+9999EQDQ01+000042SCOTCV
0031654720999991944083106004+05600-000167SAO  +0069DGAA V0202251N005110009019N0032001N1+02241+02181101221ADDGA1081+999999059MW1451MW2511
0009744865147191944022305004+40850-072633SAO  +0020FOK  V0201801N003610001519N0002001N1+00351+00351100071ADDMW1451
0025723550139451944112623004+34650-098383SAO  +0360FSI  V0203201N003112200019N1600001N9+00691-00311102131ADDGA1001+999999999MW1001
0025749256999991944081404004+26683+096217SAO  +020899999V0201801N002110420019N1600001N1+03131+02521100411ADDGA1061+999999039MW1001
0009749075999991944010908004+38767-087600SAO  +0131LMV  V0209991C000012200019N0080001N1-00981-01201102681ADDMW1051
0100033910999991944090705004+53083-000167SAO  +0007EGXC V0203381N001012100019N0048001N1+01191+00961100571ADDGA1021+009009999GA2081+210009999GF108991999999999999999999MD1410001+9999MW1051EQDQ01+000072APCTEN
0071783550999991944051321004+21400-077917SAO  +0122MUCM V0200451N005110090019N1600001N1+02681+02021101251ADDGA1051+999999089GA2011+999999039GA3011+999999009MD1810141+9999MW1001
0041787605999991944080320004+09933-084100SAO  +1132MRSJ V0200901N004610075019N1600001N1+02411+01911100851ADDGA1061+999999059GA2021+999999029MW1801
0025722170038131944050214004+32700-083650SAO  +0111MCN  V0201801N005712200019N1600001N1+02071+01301102511ADDGA1021+999999009MW1001
0055702220999991944011821004+64733-156933SAO  +0049GAL  V0203601N005110240019N0480001N1-01531-01761097871ADDGA1021+010509059GA2031+999999039MD1710201+9999MW1001
0023749140999991944070304004+66033-053567SAO  +001399999V0202701N002110006019N0004001N1+00241+00241101071ADDMD1110061+9999MW1451
0041614210999991944090704004+20517-013067SAO  +0224GQPA V0203381N003610360019N1600001N1+02961+01911101321ADDGA1061+999999049GA2021+999999029MW1001
0009722586999991944030410004+33717-096667SAO  +0233PNX  V0203381N006212200019N1600001N1+00521+00081101351ADDMW1001
0009724663999991944120511004+38783-104717SAO  +1881PEF  V0203381N005112200019N1600001N1-00151-01031102811ADDMW1001
0035719531999991944060318004+60133-128783FM-12+068599999V0200901N008219999999N0100001N9+00831+00611101271ADDGF108991081051004501999999MW1601
0055749108999991944100806004+41267-072017SAO  +00150B8  V0202031N001510450019N0080001N1+01801+01691100981ADDGA1021+012009059GA2061+999999049MD1710141+9999MW1451
0025943740999991944011916004-23383+150467SAO  +0014ABRK V0201581N004610105019N1600001N1+02301+02071101421ADDGA1061+999999059MW1001
0025724810232031944060502004+37333-120517SAO  +0053MER  V0203401N003612200019N0320001N9+03021+00741100951ADDGA1011+999999009MW1001
0041749444999991944022501004-10317+150333SAO  +002799999V0202251N001510090019N1600001N1+03241+02411100711ADDGA1061+999999059GA2021+999999029MW1001
0025723066137131944040216004+35333-077967SAO  +0033GSB  V0202301N008712200019N1600001N9+02241+00911101801ADDGA1001+999999999MW1001
0009077910999991944032901004+42800+009483SAO  +012099999V0202931N001512200019N1600001N1+00741+00081101201ADDMW1001
0025749422999991944072507004-06233+155117SAO  +004099999V0201801N002110090019N0064001N1+02631+02521100881ADDGA1081+999999059MW1801
0025789540999991944121505004+13067-059483SAO  +0056TBPB V0200681N005710060019N0128001N1+02631+02351101321ADDGA1051+999999089MW1801
0025725816999991944101519004+40183-112933SAO  +1326DPG  V0202701N005110240019N0400001N1+01351+00581101961ADDGA1061+999999039MW1801
0023749173999991944121709004+32933-111433SAO  +048199999V0201351N002612200019N0320001N1+00521-00091101731ADDMD1810101+9999MW1001
0025945680999991944022914004-27633+152717SAO  +0031ABAM V0201131N002612200019N1600001N1+02351+02181101331ADDGA1021+009009059MW1001
0025749091999991944032801004+30667-096550SAO  +0084CFD  V0200231N001510036019N0128001N1+01911+01631101081ADDGA1081+999999059MW1001
0025749076999991944112110004+38833-085417SAO  +0268MDN  V0202701N004110042019N0048001N1+00241+00131101631ADDGA1061+999999059MW1111
0009725115147111944013108004+40200-076767SAO  +0097MDT  V0209991C000012200019N0128001N1-00151-00421101801ADDMW1001
003672205112841194402052300D+28550-081333SAO  +0034ORL  V0201131N004612200019N1600001N1+01961+01191102511ADDAA101000095GA1021+999999009MW1001
0039724517999991944072515004+38350-098867SAO  +0576GBD  V0202931N004610060019N0144001N1+02351+01961100641ADDGA1081+999999059MD1110041+9999MW1001
0039749205999991944072503004+52217-174200SAO  +0011ATK  V0202931N015910030019N0112001N1+00851+00741100851ADDGA1081+999999059MD1110041+9999MW1001
0053722146128161944091920004+29683-082267SAO  +0046GNV  V0203601N001510090019N0128001N1+02351+02351101591ADDGA1051+999999089GA2021+999999049MW1171MW2801MW3951
0041749416999991944122514004-09200+152950SAO  +000799999V0201131N001512200019N1600001N1+02681+02461100411ADDGA1021+006009089GA2051+999999029MW1001
0039749244999991944071420004+27567+095567SAO  +013099999V0203151N001010420019N1600001N1+02571+02521099751ADDGA1051+999999039MD1710121+9999MW1001
0025749067999991944012617004+39950-079650SAO  +03832G3  V0202251N006210330019N0040001N1+01521+00461999999ADDGA1061+999999039MW1051
0009749047999991944041705004+28283-081417SAO  +0025ISM  V0202251N001512200019N0080001N1+02241+02181101251ADDMW1051
0009723700999991944080415004+35267-113950SAO  +1033IGM  V0203601N001012200019N0640001N1+03131-00591100711ADDMW1001
0062725190147711944052412004+43150-076267SAO  +0128SYR  V0201401N001510060019N0048001N9+01571+01411101831ADDAA124999929GA1081+999999059KA1999M+02081KA2999N+01521MW1451
0025724810232031944060402004+37333-120517SAO  +0053MER  V0203401N008212200019N0240001N9+02461+00461101021ADDGA1001+999999999MW1001
0041726625240061944050101004+44133-103100SAO  +0979RCA  V0203201N009810099019N1600001N9+00911+00191100511ADDGA1061+999999059GA2011+999999009MW1001
0039746710138061944041003004+36667-087500SAO  +0170HOP  V0202001N004112200019N1600001N9+01631+01241101051ADDGA1001+999999999MD1110081+9999MW1001
0025745940137051944021708004+38683-076883SAO  +0085ADW  V0200201N002610360019N0096001N9-00041-00261102641ADDGA1081+999999039MW1051
0025722640930351944110102004+30367-104017SAO  +1481MRF  V0201351N005112200019N1600001N1+01571+00301101461ADDGA1051+999999001MW1001
0128425550999991944070212004+24533+076167FM-12+032199999V0200201N00261004501CN0040001N9+02501+02391100211ADDAA199001091AY161999GA1999+000159999GA2999+000159999GF108991081061004501999999KA1999M+02831EQDQ01    003SCCGA1Q02    003SCCGA2
0058749167999991944011109004+32517-111317SAO  +057599999V0201581N001512200019N0480001N1+00021-00651101631ADDGA1031+999999009MD1210041+9999MW1001EQDQ01+000002APC3  
0025749120999991944120719004+51833-062883SAO  +052499999V0203601N002610015019N0016001N1-00421-00481101221ADDGA1081+999999079MW1711
0025619010999991944071821004-15967-005700SAO  +043699999V0201581N005110027019N0096001N1+01411+01301102141ADDGA1081+001509089MW1611
0031071490999991944123006004+48733+002400SAO  +0096LFPO V0203381N003610018019N0008001N1-00261-00311103141ADDGA1081+999999079MW1041MW2451
0009414670999991944061111004+12867+044967SAO  +0010ODAA V0201801N004612200019N1600001N9+03521+02181100611ADDMW1001
0009623660999991944040616004+30133+031400SAO  +0074NECA V0203381N006712200019N1600001N1+02351+01021101081ADDMW1001
0039163320999991944100715004+40233+018150SAO  +0061LIBN V0201581N005110300019N1600001N1+02461+01801101941ADDGA1081+999999049MD1710141+9999MW1001
0039745980137021944021912004+37083-076350SAO  +0002LFI  V0203601N008210450019N0112001N9+00191-00421103351ADDGA1081+999999049MD1210201+9999MW1001
0039724920232371944042300004+37900-121250SAO  +0008SCK  V0203381N001512200019N1600001N1+02181+00801101901ADDGA1061+999999029MD1710201+9999MW1001
0074722138138351944080503004+31083-083800SAO  +0090MGR  V0201351N001510450019N1600001N1+02411+02241101801ADDGA1061+999999039GA2011+999999009MD1410001+9999MW1001EQDQ01+000012APCTEN
0025723601230071944052712004+34433-100300SAO  +0595CDS  V0201801N004610240019N1600001N1+01631+01521101251ADDGA1051+999999049MW1611
0025781180127141944012815004+21483-071150SAO  +0004MBSC V0200901N004612200019N1600001N1+02571+01851102101ADDGA1021+007509089MW1001
0025723650230501944112701004+35050-106667SAO  +1620ABQ  V0201601N003610001519N1600001N9+00191-00481102371ADDGA1021+999999009MW1001
0039650820999991944102506004+11850+013083SAO  +0354DNMA V0202931N002112200019N0128001N1+02071+01461101021ADDGA1051+999999029MD1210141+9999MW1001
0025740430999991944011512004+65283-126800SAO  +0064CYVQ V0201351N002110300019N0240001N1-01981-02261999999ADDGA1081+999999039MW1001
0025719640999991944101013004+60717-135067SAO  +0703CYXY V0201801N006712200019N0320001N1+00741+00461101731ADDGA1081+999999049MW1001
0009749158999991944031701004+34483-104217SAO  +1263FUS  V0202481N005112200019N1600001N1+01691-00091100811ADDMW1001
0074603900999991944052818004+36717+003250SAO  +0025DAAG V0200451N004610150019N0128001N1+02021+01691101931ADDGA1051+999999059GA2031+999999049MD1410001+9999MW1001EQDQ01+000012APCTEN
0025789700999991944081602004+10617-061350SAO  +0015TTPP V0201131N001012200019N1600001N1+02521+02351101351ADDGA1021+007509089MW1001
0025703080257131944062205004+57150-170217SAO  +0009SNP  V0203601N007710018019N0112001N1+00631+00521099461ADDGA1081+000609079MW1611
0041590460999991944090304004+24350+109400SAO  +009799999V0202481N002112200019N1600001N1+03351+02521100881ADDGA1041+009009089GA2031+999999009MW1001
0009724517999991944092013004+38350-098867SAO  +0576GBD  V0201801N006212200019N1600001N1+02241+01691100851ADDMW1001
0025722130138611944100619004+31250-082400SAO  +0046AYS  V0203601N002610090019N1600001N1+03071+01691102401ADDGA1061+999999089MW1001
0000417800999991944011507004+24900+067133SAO  +0022OPKC V0203601N003112200019N1600001N9+01301+00081101761
0025722146128161944022722004+29683-082267SAO  +0046GNV  V0202031N004112200019N1600001N1+02801+01131101761ADDGA1021+999999009MW1001
0009749239999991944010717004+24600+084883SAO  +014999999V0202251N002112200019N0048001N1+01301+00851101931ADDMW1051
0039749123999991944011722004+54917-098633SAO  +0233CYWB V0201581N003110135019N1600001N1-00981-01201100581ADDGA1081+999999059MD1710321+9999MW1001
0025724855231531944012623004+38067-117083SAO  +1654TPH  V0202251N005110045019N0032001N1-00151-00531101091ADDGA1081+999999059MW1851
0039749102999991944031715004+49150-053583SAO  +002699999V0201801N009310210019N0240001N1-00371-00651101861ADDGA1081+999999049MD1810161+9999MW1001
0041749186999991944090206004+55533-102350SAO  +029999999V0201581N001512200019N0240001N1+01131+00801100441ADDGA1031+999999049GA2021+999999029MW1001
0070784570999991944071112004+19783-070667FM-12+001699999V0200901N004619999999N0500001N9+02781+99999101801ADDAY111999GF104991021031008001001041KA1999N+02391MD1310141+9999MW1011
0025602300999991944122714004+31617-008033SAO  +0466GMMX V0202481N006210021019N1600001N1+00911+00411101191ADDGA1081+999999059MW1801
0025703160256241944100621004+55200-162717SAO  +0031CDB  V0203151N009810084019N0320001N1+00581+00351100751ADDGA1061+999999089MW1001
0071785201999991944090106004+18017-066567SAO  +0009TJPS V0209991C000010510019N1600001N1+02521+02181101461ADDGA1021+009009099GA2051+999999049GA3011+999999009MD1810141+9999MW1001
0039725370948471944011215004+42233-083333SAO  +0202DTW  V0202481N007210090019N1600001N1-00591-01371102951ADDGA1061+999999059MD1210261+9999MW1001
0055940691999991944080704004-06200+149550SAO  +009199999V0201351N004110045019N0096001N1+02631+02571100781ADDGA1061+999999059GA2021+999999039MD1710121+9999MW1801
0039744650999991944020909004+41783-087533SAO  +0191DUK  V0203151N001510045019N0048001N1-00151-00371101761ADDGA1081+999999059MD1210021+9999MW1051
0041701160266181944101513004+65617-168050SAO  +0005WAA  V0202931N009310240019N0480001N1-00041-00311100101ADDGA1031+004509079GA2051+999999049MW1001
0039702220999991944112015004+64733-156933SAO  +0049GAL  V0209991C000012200019N0480001N1-01261-01591099731ADDGA1031+018009049MD1710061+9999MW1001
0025724285138121944112418004+39817-082933SAO  +0225LCK  V0203601N006210129019N0128001N9+00521-00591102271ADDGA1061+999999059MW1001
0009614210999991944120800004+20517-013067SAO  +0224GQPA V0200231N004612200019N0112001N1+01741+00131102001ADDMW1001
0039704540257041944082618004+51883-176650SAO  +0005PADK V0200501N004610003019N0032001N9+00911+00911099931ADDGA1081+999999059MD1410001+9999MW1451
0039718010999991944111100004+47583-052700SAO  +0017CYYT V0209991C000012200019N0160001N1-00091-00421102841ADDGA1061+999999049MD1210201+9999MW1001
0025726226999991944060507004+44050-075717SAO  +0210GTB  V0201351N000510480019N0112001N1+01241+00911101831ADDGA1061+999999049MW1001
0009724956232111944042511004+38067-122517SAO  +0003SRF  V0209991C000012200019N0240001N1+00581+00191101761ADDMW1001
0067033910999991944031613004+53083-000167SAO  +0007EGXC V0202481N004619999999N0036001N1+99999+99999999999ADDGA1031+009009999GA2999+210009999GF107991999999999999999999MW1051
0029719164999991944061000004+63333-090717FM-12+000499999V0203601N004619999999N0200001N9+00781+00281101291ADDGF100991001001999999001001
0039723119138861944020803004+34850-082350SAO  +0319GMU  V0202481N005712200019N0112001N1+01131+00131101321ADDGA1061+999999009MD1610061+9999MW1001
0025724087999991944011605004+40100-074017SAO  +000154N  V0203381N006710045019N0112001N1+00021-00311100751ADDGA1081+999999079MW1001
0117430090999991944070512004+19083+074917FM-12+065799999V0203201N006719999999N0500001N9+02781+01941099911ADDAY121999GA1999+000159999GA2999+000159999GF107991021041017501071001KA1999M+02831EQDQ01    003SCCGA1Q02    003SCCGA2
0041749094999991944052701004+38700-096817SAO  +0455HRU  V0200451N006210120019N1600001N1+01961+01631101901ADDGA1051+999999059GA2031+999999049MW1001
0041749092999991944080514004+37100-095583SAO  +0227CFV  V0201801N003612200019N1600001N1+02521+01961101351ADDGA1021+999999049GA2061+999999029MW1001
014599999913739194410010600E+39883-075233SAO  +000899999V02036059004152200049N008000599+01065+00835101635ADDAA101000095MA1999999101525MW1045EQDN01 08000JPWTH 1QNNG11U1 99999K11 1 00047L11 1 00500M11 1 29980N11 1 08000Q11 1 10163S11 1 00051W11 1 11008
0031724565139201944082514004+38950-095667SAO  +0323FOE  V0201401N008710018019N0048001N9+01801+01741101521ADDGA1081+999999059MW1451MW2801
0039740030999991944050109004+40200-112933SAO  +1326DPG  V0201601N001510330019N0240001N9+00801+00351101321ADDGA1081+999999049MD1710061+9999MW1001
0009722735930261944052910004+31467-109600SAO  +1267DUG  V0201581N001512200019N0320001N1+01741+00301101121ADDMW1001
0023749118999991944060301004+54767-058450SAO  +001099999V0203151N005110001519N0006001N1-00041-00041100911ADDMD1210101+9999MW1451
0039722970231291944010903004+33817-118150SAO  +0012LGB  V0202931N001510240019N0112001N1+01241+00581102071ADDGA1061+999999039MD1310061+9999MW1001
0009724490139931944113009004+39767-094917SAO  +0249STJ  V02099999999992200019N1600001N1+99999+99999999999ADDMW1001
0055725510149391944092600004+40850-096750SAO  +0362LNK  V0201581N003612200019N1600001N1+01911+01301101691ADDGA1021+999999039GA2041+999999029MD1610101+9999MW1001
0025722170038131944070411004+32700-083650SAO  +0111MCN  V0200231N001510360019N0096001N1+01961+01521101901ADDGA1081+999999039MW1051
0039710691999991944101904004+55350-114983SAO  +058499999V0202701N001510330019N0000001N1+01741+01071101081ADDGA1051+999999039MD1310041+9999MW1001
0041916800999991944061407004-17750+177450SAO  +0018NFFN V0201581N005110450019N1600001N1+02411+02021101391ADDGA1041+010509059GA2041+999999049MW1001
0055722436129061944041321004+29600-095167SAO  +0014EFD  V0201401N008210120019N0144001N9+02131+01411101221ADDGA1061+999999059GA2021+999999029MD1710401+9999MW1001
0025722106128351944071717004+26583-081867SAO  +0005FMY  V0202481N002612200019N1600001N1+03241+02241101491ADDGA1031+006009089MW1001
0025749102999991944080516004+49150-053583SAO  +002699999V0201581N004110024019N0024001N1+01301+01241100581ADDGA1081+999999079MW1451
0055749159999991944061012004+35533-100750SAO  +0955PPA  V0201581N005110360019N1600001N1+01741+01461101391ADDGA1021+004509059GA2051+999999039MD1310061+9999MW1001
0055781180127141944081821004+21483-071150SAO  +0004MBSC V0200451N005712200019N1600001N1+02851+02521101251ADDGA1041+006009089GA2041+999999029MD1610061+9999MW1001
0041746710138061944060622004+36667-087500SAO  +0170HOP  V0203201N008212200019N1600001N9+02681+00961101561ADDGA1021+012009089GA2051+999999029MW1001
0041749413999991944120407004-01650+149967SAO  +003399999V0202701N001010420019N1600001N1+03021+02571100371ADDGA1021+004509089GA2061+999999049MW1001
0025428081999991944080607004+22767+088367SAO  +000799999V0201581N003610030019N0128001N1+02911+02631100201ADDGA1081+999999059MW1001
0025785140999991944020907004+18500-067133SAO  +0075TJBQ V0200681N004610180019N1600001N1+02131+01631101691ADDGA1051+999999059MW1001
0023701160266181944042800004+65617-168050SAO  +0005WAA  V0200451N008212200019N0960001N1-00591-00811101491ADDMD1810061+9999MW1001
0025718010999991944091106004+47617-052750SAO  +0140CYYT V0201801N002612200019N0160001N1+01191+01191101871ADDGA1021+006009059MW1001
0041911800999991944051316004+21333-157950SAO  +0009PHIK V0200681N008212200019N1600001N1+02181+01741101731ADDGA1021+009009089GA2011+999999049MW1001
0025724285138121944030319004+39817-082933SAO  +0225LCK  V0202501N007710240019N0096001N9+01351+00461101461ADDGA1081+999999039MW1051
0009749208999991944111302004+60267-121800SAO  +050399999V0203601N004610021019N0012001N1-01921-02141999999ADDMW1711
0029719650999991944050900004+63583-135850FM-12+049599999V0203601N004619999999N0700001N9+00831-00391100881ADDGF102991021999999999999999
0009749155999991944070313004+28867-100517SAO  +0070EGP  V0200901N004112200019N1600001N1+02461+02131101351ADDMW1001
0039722175138601944122921004+32633-083600SAO  +0090WRB  V0201601N001510036019N0080001N9+01571+01301102401ADDGA1081+999999079MD1810061+9999MW1051
0067033910999991944060311004+53083-000167SAO  +0007EGXC V0202481N004610060019N0064001N1+99999+99999999999ADDGA1061+006009999GA2999+165009999GF108991999999999999999999MW1611
0039749118999991944020423004+54767-058450SAO  +001099999V0202931N007710210019N0080001N1-00921-01201099151ADDGA1081+999999049MD1210141+9999MW1711
0025702960264101944112803004+60500-145500SAO  +0013CDV  V0200901N002110057019N0128001N1+00351+00131101321ADDGA1081+999999059MW1611
0025722266138501944041623004+32350-086983SAO  +0054SEM  V0202931N004612200019N1600001N1+02131+00851101121ADDGA1021+999999029MW1001
0025567680999991944082208004+25017+101533SAO  +177399999V0200231N003610090019N1600001N1+02521+01191100301ADDGA1081+999999059MW1001
0057722138138351944052222004+31083-083800SAO  +0090MGR  V0202701N004612200019N1600001N1+03131+01741101291ADDGA1011+013509089GA2021+999999039GA3011+999999009MW1001
0025726815241061944040102004+43050-115850SAO  +0911MUO  V0202901N003612200019N0480001N9+01241-00261101351ADDGA1021+999999049MW1001
0023725816999991944081815004+40183-112933SAO  +1326DPG  V0202251N005712200019N0480001N1+02631+01021101021ADDMD1210101+9999MW1001
0309722265138211944011817003+32383-086350SAO  +0053MXF  V02099999000052200019N0048005N9+00895+00225102815ADDGA1001+999999999GA2999+999999999GA3999+999999999GD19005+9999999GD29005+9999999GD39005+9999999GD49999+9999999MW1045EQDN01 00900CCLHT 3N02 08200JPWTH 1QNNE11 1 09900E11 1 09900E11 1 09900E11 1 09999G11 3 00900H11U1 00999H11 1 00999H11 1 00999K11 1 00036L11 1 00300N11 1 08200Q11 1 10281S11 1 00048W11 1 00000
0076031350999991944120417004+55517-004600FM-12+000999999V0202701N00981004501CN0110001N9+00501+00111099651ADDAY181999GF106991999091004501001001MD1010041+9999MW1251EQDQ01+000052SCOTLC
0009787410999991944042623004+12150-086167SAO  +0050MNMG V0201351N007212200019N1600001N1+03181+01801100911ADDMW1001
0039724550139471944033103004+39050-096767SAO  +0324FRI  V0202501N001510270019N1600001N9+00191-00091101631ADDGA1081+999999039MD1310061+9999MW1001
0039785201999991944041703004+18017-066567SAO  +0009TJPS V0200451N001012200019N1600001N1+02411+02021101631ADDGA1021+009009059MD1210141+9999MW1001
0025423140999991944061401004+27483+095017SAO  +0111VEMN V0200901N001510009019N0080001N1+02571+02521100031ADDGA1081+999999079MW1451
0025841110999991944062901004-02017-081000SAO  +0007SESA V0202481N003110042019N1600001N1+02181+01851101081ADDGA1081+999999059MW1001
0057788060999991944030919004+08917-079600SAO  +0009MPHO V0200201N007710300019N0144001N9+03181+01961100851ADDGA1021+009009089GA2051+999999039GA3011+999999029MW1001
0025722860231191944121011004+33900-117250SAO  +0466RIV  V0200701N004112200019N0480001N9+01281-00941102131ADDGA1001+999999999MW1001
0031722250138291944121814004+32333-085000SAO  +0071LSF  V0209991C000010090019N0012001N9+00521+00521101861ADDGA1081+999999059MW1041MW2111
0009749077999991944071522004+37550-087967SAO  +0114I05  V0203601N002612200019N0144001N1+03461+01631101421ADDMW1001
0041749254999991944052207004+26550+097550SAO  +105399999V0200451N000510060019N0080001N1+02241+02071999999ADDGA1051+999999059GA2031+999999039MW1451
0133425910999991944103003004+24750+084950FM-12+011199999V0201801N00101220001CN0100001N9+02331+01941101101ADDAY111999GA1999+000159999GA2999+000159999GF107991999001999999031001KA1999N+02111EQDQ01+000002SCOTLCQ02    003SCCGA1Q03    003SCCGA2
0039722140938051944032412004+30433-084333SAO  +0021TLH  V0203601N005110027019N0064001N1+01631+01571101051ADDGA1081+999999059MD1210101+9999MW1611
0037749068999991944032916004+34800-079367SAO  +0069MEB  V0200451N004610015019N0016001N1+00851+00851101691ADDGA1081+999999079MW1041MW2451MW3511
0041943670999991944070714004-21117+149217SAO  +0031ABMK V0201581N004610390019N1600001N1+02021+01961101901ADDGA1011+009009059GA2061+999999039MW1001
0041722866231221944031011004+34100-117250SAO  +0334SBD  V0201101N003612200019N0320001N9+01021+00461101491ADDGA1021+999999049GA2011+999999009MW1001
0025624050999991944050310004+25700+032700SAO  +0088HELX V0200901N001510240019N0144001N1+02571+01071101191ADDGA1081+999999039MW1001
0039719675999991944021303004+62417-140867SAO  +0649CYXQ V0200231N001510090019N0480001N1-01031-01201100781ADDGA1081+999999059MD1610121+9999MW1001
0041823980999991944091116004-03783-038533SAO  +0025SBFZ V0201131N010312200019N1600001N1+02911+02021101121ADDGA1021+010509089GA2021+999999029MW1001
0025718680999991944100418004+52867-102400SAO  +0372CYHB V0202701N004112200019N0480001N1+01801+01021100001ADDGA1061+999999009MW1001
0009724838999991944081420004+39100-121567SAO  +0019MYV  V0203601N001512200019N0240001N1+03681+01191100711ADDMW1001
0031724515230641944012616004+37933-100733SAO  +0880GCK  V0200231N005710021019N0016001N1+00581+00581101121ADDGA1081+999999079MW1451MW2611
0055408310999991944111906004+30367+048250SAO  +0011OIAA V0201801N004610150019N1600001N1+02071+01801101691ADDGA1061+999999059GA2011+999999039MD1210101+9999MW1001
0057749078999991944050318004+30983-084633SAO  +0040BGE  V0201131N003610360019N1600001N1+02631+01351102301ADDGA1021+012009089GA2051+999999039GA3011+999999009MW1001
0039710450999991944071403004+60167-132750SAO  +0705CYZW V0201351N003110150019N0480001N1+01691+00961101421ADDGA1081+999999059MD1710081+9999MW1001
004594999900222194404280800N-33050+151600AUST +0009     V0201805N004659999999N999999999+01835+99999999999ADDGA1085+006005999GF108995084999006005999999
0025749210999991944111119004+60633-132050SAO  +086799999V0201581N003610090019N0320001N1-00981-01311101251ADDGA1081+999999079MW1711
004594926099999194409111700N-35320+149200AUST +0577YSCB V0209999C000059999999N999999999-00105+99999999999ADDGA1005+999999999GF100995004999999999999999
0025614210999991944012307004+20517-013067SAO  +0224GQPA V0203601N003610390019N1600001N1+01631-00481101961ADDGA1081+999999049MW1001
0023724920232371944032809004+37900-121250SAO  +0008SCK  V0203601N005112200019N1600001N1+00911-00371102301ADDMD1110061+9999MW1001
0039722786231041944071803004+33317-111650SAO  +0410IWA  V0201101N006210300019N0320001N9+03521+01411100881ADDGA1061+999999049MD1210201+9999MW1001
0059035610999991944042712004+52317-000383FM-12+007399999V0202901N00931220001CN0040001N9+01891+00831999999ADDAY101999GA1999+004509009GF100991001001999999001001MW1051
0025704851999991944112612004+53367-167900SAO  +0039UNS  V0201581N004612200019N0112001N1+00521+00521098781ADDGA1031+004509059MW1001
0117422650999991944012512004+27233+079050FM-12+015799999V0202901N00261220001CN9999999N9+01671+01001101661ADDAY141999GA1999+000159999GA2999+000159999GF102991001001999999001051KA1999M+01891EQDQ01    003SCCGA1Q02    003SCCGA2
0247722265138211944050321003+32383-086350SAO  +0053MXF  V02015859004150137249N0112005N9+02895+01615101935ADDGA1051+999999084GD19055+9999999GD29999+9999999GD39999+9999999GD49999+9999999MD1710161+9999EQDN01 00000JPWTH 1QNNE11 1 09906E11 1 09999E11 1 09999E11 1 09999G11 1 00045H11U1 11999K11 1 00061L11 1 00700N11 1 00000Q11 1 10193S11 1 00084W11 1 54008
002072256013959194401091500D+31617-097217SAO  +0155ACT  V0202031N002612200019N1600001N1-00311-00761102981ADDAA101000095MW1001
0025724550139471944021308004+39050-096767SAO  +0324FRI  V0202001N005110240019N1600001N9-00531-01151102951ADDGA1081+999999049MW1001
0009724855231531944082616004+38067-117083SAO  +1654TPH  V0203381N002612200019N0640001N1+02461-00371101761ADDMW1001
0015722165138151944111205004+31583-084117SAO  +0065TRF  V0209991C000012200019N0080001N1+00961+00741102001ADDMW1041MW2111
0025722886231301944092707004+34217-118483SAO  +0244VNY  V0201401N002110012019N0012001N9+01461+01351100981ADDGA1081+999999079MW1451
0039745430999991944061618004+37700-098750SAO  +0595PTT  V0202031N010812200019N1600001N1+03351+02301100611ADDGA1011+999999009MD1710481+9999MW1001
0025722119999991944042708004+27983-082017SAO  +0043LAL  V0202031N004612200019N0112001N1+02131+02071101521ADDGA1081+999999009MW1001
0025652020999991944041020004+06550+003350SAO  +001999999V0202701N003612200019N1600001N1+02911+02571100951ADDGA1021+999999009MW1001
0009423390999991944101018004+26300+073017SAO  +0224VIOJ V0200231N001012200019N0128001N1+02741+00691101051ADDMW1001
0041726196146101944112218004+39367-075067SAO  +0025MIV  V0203151N007710120019N0128001N1+00741-00421100951ADDGA1061+999999059GA2011+999999039MW1001
0041749073999991944031816004+32400-086250SAO  +0067GUN  V0202481N002610420019N1600001N1+02131+01631101491ADDGA1021+003009059GA2061+999999039MW1001
0025749093999991944111319004+34367-099000SAO  +0377FDR  V0202481N010312200019N1600001N1+02681+00691100611ADDGA1011+004509089MW1001
0023724010137401944121103004+37500-077333SAO  +0054RIC  V0209991C000012200019N0080001N1-00091-00311102241ADDMD1710161+9999MW1051
0025785140999991944012813004+18500-067133SAO  +0075TJBQ V0200681N008212200019N1600001N1+02461+01631101861ADDGA1031+009009089MW1001
0025606560999991944081414004+27667-008133SAO  +0431DAOF V0201351N009812200019N1600001N1+04291+00801101021ADDGA1061+999999039MW1001
0025722675230211944020411004+33600-102250SAO  +1009REE  V0202001N003612200019N1600001N9+00301-00151102341ADDGA1001+999999999MW1001
0009623660999991944093018004+30133+031400SAO  +0074NECA V0200681N007212200019N1600001N1+02301+01801101391ADDMW1001
0025727846241601944101508004+46100-118283SAO  +0367ALW  V0203151N001012200019N0240001N1+01301+00851102301ADDGA1031+999999009MW1001
0039723408138141944042909004+35967-089867SAO  +0080BYH  V0200701N003612200019N1600001N9+01021+00521102441ADDGA1021+999999009MD1610061+9999MW1001
0041789540999991944071223004+13067-059483SAO  +0056TBPB V0200681N007212200019N1600001N1+02681+02351101831ADDGA1031+006009089GA2011+999999049MW1001
0025749155999991944072316004+28867-100517SAO  +0070EGP  V0201131N003112200019N1600001N1+03181+02131101221ADDGA1061+999999009MW1001
0025749241999991944120505004+22300+087333SAO  +004199999V0202931N002112200019N1600001N1+02681+01131101351ADDGA1031+999999009MW1001
0025719264999991944091905004+61100-094067SAO  +0011CYEK V0203601N013410024019N0096001N1+00301+00301100341ADDGA1081+999999079MW1611
0039722485139441944071415004+32500-093683SAO  +0053BAD  V0201401N002612200019N0128001N9+02961+02241101901ADDGA1021+999999009MD1010061+9999MW1001
0025747540139341944112808004+31317-092550SAO  +0027KAEX V0209991C000012200019N0112001N9+00131+00021102241ADDGA1001+999999999MW1001
0055701791999991944030610004+65000-150650SAO  +0085MLY  V0203601N001012200019N0240001N1-01201-01761999999ADDGA1031+007509079GA2051+999999029MD1210081+9999MW1001
0126877590999991944102012004-38900-070050FM-12+101599999V0202701N00461220001CN0100001N9+01501+00331999999ADDAY111999GF106991999001999999031001IA1009KA1999M+02281KA2999N+01001MW1011EQDQ01+000002SCOTLCQ02+000032APCTENQ03+000002APC3  
0023650460999991944030906004+12050+008533SAO  +0481DNKN V0202701N001012200019N0032001N1+02131+00081100821ADDMD1310201+9999MW1051
0039711896999991944022600004+50283-064167SAO  +0022CYLP V0203381N005112200019N0320001N1-00481-00981101151ADDGA1021+999999039MD1210261+9999MW1001
0025820300999991944121210004+02067-050850SAO  +0010SBAM V0209991C000012200019N1600001N1+02521+02351100881ADDGA1021+006009089MW1001
0039724567139211944122918004+39367-094917SAO  +0238FLV  V0202031N003110021019N0064001N1+00241+00131101861ADDGA1081+999999079MD1810061+9999MW1451
0025840010999991944040322004-00450-090267SAO  +0016SEGS V0200901N004612200019N1600001N1+02961+02301100811ADDGA1021+009009059MW1001
0009749096999991944071905004+34600-091583SAO  +0068SGT  V0201801N001512200019N0112001N1+02571+02181101421ADDMW1001
0041749093999991944090316004+34367-099000SAO  +0377FDR  V0202031N010312200019N1600001N1+03071+01961101421ADDGA1021+018009059GA2021+999999039MW1001
0009620100999991944051204004+32667+013150SAO  +0081HLLT V0201351N004612200019N1600001N1+02181+00521101251ADDMW1001
0041749168999991944011101004+34067-114833SAO  +026999999V0201801N001512200019N0400001N1+01191-00651999999ADDGA1011+999999049GA2011+999999009MW1001
0041747960128041944032522004+27650-081350SAO  +0021AGR  V0202501N007212200019N1600001N9+02961+01741101561ADDGA1021+009009089GA2051+999999009MW1001
0009747187031041944082510004+33633-116167SAO  -0031TRM  V0203381N005112200019N0160001N1+02741+00961100411ADDMW1001
0025722675230211944031110004+33600-102250SAO  +1009REE  V0202001N006210015019N1600001N9+00851+00631100681ADDGA1081+999999079MW1001
0055942870999991944061907004-16883+145750SAO  +000799999V0201581N001510120019N1600001N1+02071+01241101591ADDGA1061+999999059GA2021+999999049MD1310121+9999MW1001
0041722140938051944022719004+30433-084333SAO  +0021TLH  V0202481N004612200019N1600001N1+02961+01461101801ADDGA1021+007509089GA2011+999999009MW1001
0041749098999991944021113004+30833-093367SAO  +0061DRI  V0203151N008210072019N0096001N1+00411-00091102301ADDGA1061+999999079GA2011+999999039MW1051
0041789700999991944090917004+10617-061350SAO  +0015TTPP V0202701N004610060019N1600001N1+02741+02411101251ADDGA1051+999999059GA2031+999999049MW1001
0117417600999991944082012004+25250+064650FM-12+000599999V0201601N00671220001CN0200001N9+03171+02781099981ADDAY101999GA1999+000159999GA2999+000159999GF102991021011022501001001KA1999M+03221EQDQ01    003SCCGA1Q02    003SCCGA2
0025726776240361944061416004+47050-109467SAO  +1270LWT  V0200231N001012200019N0480001N1+01801+00801100711ADDGA1041+999999009MW1001
0025162603999991944011520004+41433+015533SAO  +0094LIBF V0203151N006710210019N0128001N1+00741+99999102891ADDGA1061+999999059MW1001
0009723601230071944112619004+34433-100300SAO  +0595CDS  V0203381N006212200019N1600001N1+00801-00871102171ADDMW1001
0039704540257041944071903004+51883-176650SAO  +0005PADK V0200701N003110330019N0320001N9+01191+00741100811ADDGA1061+999999049MD1610201+9999MW1001
0009725810241931944082919004+40733-114033SAO  +1292ENV  V0201581N004612200019N0480001N1+02461+00191101461ADDMW1001
002072256013959194410141100D+31617-097217SAO  +0155ACT  V0201801N003612200019N1600001N1+01131+00631101961ADDAA101000095MW1001
0025789480999991944020507004+13750-060950SAO  +0003TLPL V0200901N004612200019N1600001N1+02461+01911101561ADDGA1021+007509089MW1001
0058724838999991944020206004+39100-121567SAO  +0019MYV  V0200451N002110150019N0128001N1+01131+01021102071ADDGA1081+999999059MD1410001+9999MW1001EQDQ01+000022APCTEN
0039656600999991944060800004+06250-010350SAO  +0018GLRB V0200681N001512200019N0096001N1+02461+02411101151ADDGA1021+006009099MD1110041+9999MW1051
0025703605999991944080600004+59017-161817SAO  +0003PTU  V0201801N005110024019N0160001N1+01571+01461101351ADDGA1081+999999079MW1001
0025164600999991944032208004+37467+015050SAO  +0017LICC V0202931N006712200019N1600001N1+01461+00741100371ADDGA1021+009009089MW1001
0058704820256261944012202004+52950-168850SAO  +0021IKO  V0203381N014910060019N0320001N1-00261-01091099861ADDGA1081+999999059MD1410001+9999MW1001EQDQ01+000012APCTEN
0039911690999991944090515004+21683-158033SAO  +001099999V0200901N006712200019N1600001N1+02411+02021101691ADDGA1031+009009089MD1610081+9999MW1001
0041915030999991944021418004-08333+157267SAO  +0006AGGM V0203601N001512200019N1600001N1+02521+02411100581ADDGA1021+009009089GA2011+999999039MW1001
0025425910999991944090812004+24750+084950SAO  +0016VEGY V0202251N000510240019N1600001N1+02911+02631100311ADDGA1081+999999049MW1001
0009787410999991944120505004+12150-086167SAO  +0050MNMG V0201351N004112200019N1600001N1+02241+01801101081ADDMW1001
0041590460999991944072101004+24350+109400SAO  +009799999V0209991C000010270019N1600001N1+03071+02571099971ADDGA1021+010509089GA2021+999999039MW1001
0039943560999991944042101004-20067+146250SAO  +031399999V0201131N001012200019N1600001N1+02801+01631101661ADDGA1021+999999009MD1810041+9999MW1001
0057785140999991944071719004+18500-067133SAO  +0075TJBQ V0200681N001510420019N1600001N1+02801+02241101631ADDGA1031+006009089GA2031+999999039GA3021+999999009MW1001
0039747540139341944081115004+31317-092550SAO  +0027KAEX V0202301N003610030019N1600001N9+02911+02351101691ADDGA1051+999999079MD1210061+9999MW1001
0025911860999991944111816004+21150-157100SAO  +0037MKK  V0200681N007712200019N1600001N1+02131+01571101591ADDGA1031+008409059MW1001
0071722535129091944120921004+29383-098567SAO  +0207SKF  V0201801N005110330019N1600001N9+02071+01071101491ADDGA1021+015009059GA2061+999999049GA3001+999999999MD1610201+9999MW1001
0041749438999991944040410004-12700+143300SAO  +001899999V0201581N001010540019N1600001N1+02301+02241100951ADDGA1031+012009089GA2021+999999049MW1001
0025722356139391944112710004+33483-090983SAO  +0040GLH  V0203151N003610078019N0112001N1+00521+00191102131ADDGA1081+999999059MW1001
0039723535999991944041909004+36333-097833SAO  +0390END  V0200701N005110111019N0020001N9+00631+00521101661ADDGA1081+999999059MD1710161+9999MW1451
0041749195999991944101408004+57750-122900SAO  +085799999V0201581N003612200019N1600001N1+01191-00371100241ADDGA1011+999999039GA2051+999999029MW1001
0025042200999991944120600004+68700-052750SAO  +0047BGEM V0201351N005110090019N0240001N1-01091-01311102161ADDGA1081+999999059MW1711
0303999999118011944012507005+12133-086200SAO  +0063MNMG V02099999000059999999N160000599+02225+02005101325ADDGA1999+999999999GA2999+999999999GA3999+999999999GD19005+9999999GD29005+9999999GD39005+9999999GD49999+9999999EQDN01 00900CCLHT 3N02 00000JPWTH 1QNNE11 1 09900E11 1 09900E11 1 09900E11 1 09999G11 3 00900H11U1 00999H11 1 00999H11 1 00999K11 1 00068L11N1 99999N11 1 00000Q11 1 10132S11 1 00072W11 1 00000
0055781090999991944110903004+22367-072967SAO  +0003MYMM V0200681N005112200019N1600001N1+02461+01961101761ADDGA1031+007509059GA2051+999999029MD1310041+9999MW1001
0025749203999991944012718004+51550-178800SAO  +001599999V0201131N026810024019N0048001N1-00041-00041099321ADDGA1081+999999059MW1851
0039722950231741944052809004+33933-118400SAO  +0032LAX  V0203601N002110045019N0048001N1+01521+01301101521ADDGA1051+999999079MD1810061+9999MW1051
0041783284999991944121518004+22867-082517SAO  +0050MUSA V0200681N006712200019N1600001N1+02021+00801102511ADDGA1021+009009089GA2061+999999009MW1001
0025749186999991944032711004+55533-102350SAO  +029999999V0209991C000010210019N1600001N1-02371-02751102741ADDGA1051+999999039MW1001
0025701043999991944112705004+68350-166800SAO  +0004PHO  V0200901N003112200019N1600001N1-02261-02641101761ADDGA1011+999999029MW1001
0035724660930371944041302004+38817-104700SAO  +1881COS  V0201401N004612200019N1600001N9+00741+00301100951ADDGA1031+024009059GA2011+999999049
0055424160999991944102803004+26717+092800SAO  +007599999V0200451N002110360019N1600001N1+02301+01691101351ADDGA1021+018009059GA2021+999999039MD1210281+9999MW1001
0039749535999991944093004004+42483+009500SAO  +002399999V0203151N003610120019N1600001N1+01631+00911102131ADDGA1061+999999059MD1210061+9999MW1001
0019723520139021944102019004+34650-099267SAO  +0413LTS  V0202501N003112200019N1600001N9+02411+01461101461ADDGA1001+999999999
0067035460999991944032113004+52450+001150FM-12+005499999V0200201N00671220001CN0100001N9+00721+00221101951ADDAY121999GA1051+999999999GF107991071051008001999999MD1990021+9999
0025480010999991944010208004+27333+097417SAO  +0409VBPT V0200451N001012200019N1600001N1+01741+01021999999ADDGA1021+999999039MW1001
0025043610999991944010220004+65567-037117SAO  +0327BGKK V0200681N001510120019N0480001N1-00871-01421101121ADDGA1081+999999049MW1001
0039722356139391944022612004+33483-090983SAO  +0040GLH  V0201801N002110090019N0080001N1+01961+01851100981ADDGA1061+004509099MD1210061+9999MW1051
0055722675230211944061403004+33600-102250SAO  +1009REE  V0201801N011812200019N1600001N9+02631+01741100611ADDGA1021+018009099GA2051+999999029MD1310141+9999MW1001
0025911700225081944110205004+21483-158050SAO  +0257PHHI V0200901N001510078019N1600001N9+02241+01851101691ADDGA1061+999999089MW1001
0025722786231041944072108004+33317-111650SAO  +0410IWA  V0200201N004610570019N0320001N9+03021+01521101081ADDGA1061+999999049MW1001
0039726835242301944020806004+44250-121150SAO  +0938RDM  V0202481N001010420019N0320001N1+00081-00531101631ADDGA1081+999999049MD1710181+9999MW1001
0041749141999991944122911004+63433-051183SAO  +0041BMKA V0200451N003612200019N0480001N1-01151-02031101351ADDGA1021+006009059GA2031+999999049MW1001
0025566510999991944102207004+26967+100233SAO  +239499999V0201801N001510120019N1600001N1+01961+01191100101ADDGA1051+999999059MW1001
0041401800999991944012405004+32000+034900SAO  +0049LLBG V0201801N004110105019N0128001N1+01021+00631101861ADDGA1061+999999059GA2011+999999039MW1611
0025411500999991944071508004+26267+050650SAO  +0002OBBI V0203381N010810360019N0024001N1+03461+02411099631ADDGA1061+999999039MW1051
0041424750999991944070614004+25450+081733SAO  +0098VIAL V0200681N001510090019N0112001N1+02631+02571100101ADDGA1061+999999049GA2011+999999049MW1611
0009722347999991944102517004+31267-089250SAO  +0046HBG  V0203151N003612200019N0112001N1+02741+01301102271ADDMW1001
0041719530999991944050801004+60117-128817SAO  +0690CYQH V0202481N008210150019N0480001N1+00911+00191100831ADDGA1061+999999059GA2011+999999009MW1001
0015718150999991944080208004+48550-058550SAO  +0013CYJT V0202481N002610006019N0008001N1+01411+01411101411ADDMW1451MW2511
0088036690999991944072615004+51717-000533FM-12+015799999V0202001N00931220001CN0100001N9+02111+01561100961ADDAY121999GA1999+004509009GA2999+008409029GF104991041021012501001001EQDQ01    003SCCGA1
0057749420999991944072302004-07417+155583SAO  +002399999V0201351N002112200019N1600001N1+02961+02521100951ADDGA1021+006009089GA2021+999999049GA3041+999999029MW1001
0025749069999991944032921004+34500-077567SAO  +0021NC95 V0201801N006710060019N0112001N1+02131+01851999999ADDGA1081+999999099MW1001
0049630210999991944080317004+15283+038917SAO  +2356HAAY V0202901N005710045019N0128001N9+01961+01411101191ADDGA1061+999999089GA2021+999999039MD1710141+9999
0041749443999991944120207004-10933+142483SAO  +001499999V0200901N005710075019N1600001N1+03071+02411100411ADDGA1051+999999089GA2011+999999009MW1001
0009725510149391944062405004+40850-096750SAO  +0362LNK  V0203381N002612200019N1600001N1+01911+01571101491ADDMW1001
0081749006999991944112320004+52133+001100SAO  +005899999V0202481N002612200019N0064001N1+01021+00911099781ADDGA1011+060009999GA2999+000309999GF102991999999999999999999MD1210021+9999MW1051
0025745096999991944012308004+37183-122400SAO  +000193Q  V0201581N007210090019N0160001N1+01021+00801101801ADDGA1081+999999059MW1001
0009710563999991944010416004+55750-120183SAO  +0655CYDQ V0209991C000012200019N1600001N1-03141-03531102201ADDMW1001
0025722487139351944052008004+31400-092300SAO  +0034ESF  V0201801N001512200019N0128001N1+02021+01911101251ADDGA1021+003009079MW1001
0009725810241931944090409004+40733-114033SAO  +1292ENV  V0200451N001512200019N0480001N1+01631+00521101761ADDMW1001
002072256013959194410161100D+31617-097217SAO  +0155ACT  V0200231N003112200019N1600001N1+01241+00911102681ADDAA101000095MW1001
0009786470999991944111811004+13917-090817SAO  +0002MGSJ V0203601N001012200019N1600001N1+01961+01911101221ADDMW1001
0039722167999991944052203004+30967-083200SAO  +0074VAD  V0201801N001512200019N0128001N1+02521+01571101491ADDGA1021+999999009MD1310201+9999MW1001
0009043820999991944122408004+61933-042067SAO  +001399999V0202931N014912200019N0320001N1-00531-01591099461ADDMW1001
0023163320999991944090309004+40233+018150SAO  +0061LIBN V0202481N004112200019N1600001N1+03291+01851101371ADDMD1310041+9999MW1001
004594510099999194405191100N-26420+146270AUST +0304YBCV V0209999C000059999999N999999999+01225+99999999999ADDGA1005+999999999GF102995004999999999999999
0041724361138031944050804004+39267-085900SAO  +0200BAK  V0203151N001510240019N0096001N1+01021+00581102131ADDGA1021+009009059GA2061+999999039MW1051
0009724920232371944092514004+37900-121250SAO  +0008SCK  V0202701N001012200019N0048001N1+01411+00961101081ADDMW1051
0029749049999991944010106004+28483-082450SAO  +0023BKV  V0200231N001512200019N0048001N1+00521+00411102241ADDMD1710081+9999MW1041MW2111
0059035540999991944102611004+52567-000483FM-12+007799999V0202001N00261220001CN0020001N9+00891+00831999999ADDAY121999GA1061+999999999GF108991081051002501999999MW1051
0043483270999991944012106004+18783+098817FM-12+031399999V0200501N001019999999N0200001N9+02721+01891999999ADDAY141999GF102991999999999999999999MW1051
0025703610253391944041214004+59517-139667SAO  +0009CYAK V0201581N001512200019N0400001N1-00091-00091100341ADDGA1041+021009049MW1001
0041749519999991944120607004+41233+015800SAO  +016799999V0201801N004110300019N0112001N1+00801+00691101351ADDGA1021+012009059GA2061+999999049MW1001
0025722595139111944121722004+32783-097433SAO  +0192FWH  V0202501N006212200019N1600001N9+02131+00461101051ADDGA1001+999999999MW1001
0042408310999991944060621004+30367+048250SAO  +0011OIAA V0202701N004612200019N0048001N1+03021+01801100371ADDMD1410001+9999MW1061EQDQ01+000022APCTEN
0023726686240251944032711004+44383-100283SAO  +0531PIR  V0200231N003610001519N0003001N1+99999+99999999999ADDMD1310161+9999MW1451
0009722505129041944062102004+26233-097667SAO  +0011HRL  V0201801N004112200019N1600001N1+02741+02351101151ADDMW1001
0071723650230501944101915004+35050-106667SAO  +1620ABQ  V0200501N003610180019N1600001N9+01021+00631102541ADDGA1051+999999059GA2021+999999049GA3011+999999009MD1310041+9999MW1001
0041725377148041944052801004+42617-082817SAO  +0176MTC  V0200201N001012200019N0096001N9+02021+01241102131ADDGA1021+010509059GA2021+999999039MW1051
004594910099999194401090400N-35170+147470AUST +0213YSWG V0203385N007759999999N999999999+03815+99999999999ADDGA1055+012005999GF107995054999012005999999
0117432050999991944021612004+15150+076850FM-12+044999999V0201101N002619999999N0020001N9+03171+00611100671ADDAY111999GA1999+000159999GA2999+000159999GF106991011071017501041091KA1999M+03281EQDQ01    003SCCGA1Q02    003SCCGA2
0025722688930341944053002004+32683-103217SAO  +1115HOB  V0201801N003612200019N1600001N1+02521+01191101021ADDGA1041+999999029MW1001
0039727855241141944072015004+47617-117650SAO  +0741SKA  V0201801N008210210019N0320001N9+02021+01131101591ADDGA1061+999999039MD1210061+9999MW1001
0031744865147191944091908004+40850-072633SAO  +0020FOK  V0200681N001510045019N0080001N1+01741+01631102641ADDGA1081+999999059MW1451MW2611
0041614210999991944102612004+20517-013067SAO  +0224GQPA V0203151N001512200019N1600001N1+03351+01351101251ADDGA1011+021009089GA2011+999999039MW1001
0025723840231551944111019004+35433-119050SAO  +0130BFL  V0203151N002610120019N0128001N1+01851+01191101321ADDGA1081+004501051MW1001
0078035540999991944022320004+52567-000483FM-12+007799999V0200701N00261220001CN0040001N9+00331+00111999999ADDAY121999GA1051+004509009GF199999061051008001001001MW1051EQDQ01+000042SCOTCV
0041749406999991944080902004-06567+146733SAO  +0107AYNZ V0201351N001510210019N1600001N1+02521+02241101151ADDGA1031+006009059GA2051+999999049MW1001
0025723840231551944041420004+35433-119050SAO  +0130BFL  V0201801N001510090019N0240001N1+01521+00851101931ADDGA1081+999999051MW1001
0039722588999991944042515004+33067-096067SAO  +0166GVT  V0201581N008210150019N1600001N1+02071+01131101321ADDGA1081+999999039MD1210061+9999MW1001
0065749002999991944020523004+52500+000950SAO  +000099999V0202481N001012200019N0006001N1-00151-00311103411ADDGA1999+000159999GF100991999999999999999999MD1310041+9999MW1451
0041749054999991944052407004+28683-082083SAO  +00274FL2 V0202031N001512200019N1600001N1+01911+01911101581ADDGA1021+004509079GA2021+999999049MW1001
0009726835242301944071505004+44250-121150SAO  +0938RDM  V0203381N001512200019N0480001N1+02071+00461101591ADDMW1001
0009725816999991944052810004+40183-112933SAO  +1326DPG  V0201581N002112200019N0320001N1+01021+00691101691ADDMW1001
0041042801999991944093010004+61000-046000SAO  +0030BGNS V0200681N008212200019N0480001N1+00021-00421101561ADDGA1021+999999039GA2051+999999029MW1001
0015718010999991944041913004+47583-052700SAO  +0017CYYT V0203601N006210001519N0000001N1+00081+00081099591ADDMW1381MW2751
0025650820999991944032308004+11850+013083SAO  +0354DNMA V0200451N005710360019N0012001N1+02961+00461101351ADDGA1081+999999049MW1051
0025749503999991944112408004+42000+009400SAO  +001899999V0201351N002112200019N1600001N1+01631+01131100771ADDGA1041+999999029MW1001
0092035530999991944120307004+52500-000583FM-12+010199999V0202501N00671220001CN0040001N9+00441+00281101131ADDAY121999GA1999+004509059GF107991011051008001071999MD1810121+9999MW1051EQDQ01    003SCCGA1
0029719360999991944070508004+62467-114450FM-12+020099999V02099999999999999999N9999999N9+99999+99999999999ADDKA1999M+01561KA2999N+00721
0039749055999991944072200004+26400-098350SAO  +00627R7  V0201131N008212200019N1600001N1+03461+01911101081ADDGA1011+999999029MD1710081+9999MW1001
0055749407999991944011309004-06067+145917SAO  +0394AGAP V0209991C000010300019N1600001N1+02351+02301100611ADDGA1021+012009059GA2061+999999049MD1210041+9999MW1001
0025749087999991944070716004+30833-085200SAO  +0033MAI  V0202931N002610066019N0112001N1+02801+02071102071ADDGA1061+999999089MW1001
0074480010999991944072405004+27333+097417SAO  +0409VBPT V0201351N001510360019N1600001N1+03181+02521099631ADDGA1021+003009089GA2061+999999039MD1410001+9999MW1001EQDQ01+000012APCTEN
0051033010999991944092917004+53417-002650FM-12+001899999V0202701N00931999999CN0040001N9+01561+01391101441ADDGA1071+999999049GF107991061051002501031999MW1201
0009624400999991944121510004+30600+032250SAO  +001399999V0200451N001512200019N1600001N1+01911+01071101661ADDMW1001
0031749193999991944080504004+58650-124650SAO  +128199999V0200681N001510006019N0004001N1+00851+00851100951ADDGA1081+999999079MW1451MW2511
0025911840999991944050322004+21333-157717SAO  +001899999V0200681N006712200019N1600001N1+02681+01741102101ADDGA1031+010509089MW1001
0041725780241561944061323004+42917-112600SAO  +1365PIH  V0201801N003610300019N0480001N1+01801+00801100781ADDGA1031+013509099GA2051+999999049MW1001
0025724920232371944051517004+37900-121250SAO  +0008SCK  V0202931N002110450019N1600001N1+01301+00691101961ADDGA1081+999999049MW1001
0025717050999991944111604004+46117-064683SAO  +0071CYQM V0202481N005110001519N0012001N1-00091-00151101251ADDGA1081+999999059MW1451
0025619020999991944012005004-07967-014400SAO  +0086FHAW V0201101N007210084019N1600001N9+02351+02071101291ADDGA1061+999999059MW1001
0025911690999991944121511004+21683-158033SAO  +001099999V0200901N012912200019N1600001N1+02241+01631102131ADDGA1021+007509089MW1001
0039725690240891944080600004+42917-106467SAO  +1612CPR  V0200231N005112200019N1600001N1+03131-00421100981ADDGA1011+015009089MD1710121+9999MW1001
0025749046999991944090616004+26917-081983SAO  +0009PGD  V0201801N004112200019N1600001N1+03291+02301101631ADDGA1041+007509089MW1001
0041747320999991944081022004+32850-106083SAO  +1240HMN  V0201401N002110330019N1600001N9+02631+01741101081ADDGA1021+012009089GA2061+999999049MW1001
0041702091999991944110323004+62083-163717SAO  +0050MOU  V0203601N001510330019N0240001N1-00651-00761999999ADDGA1011+006009059GA2061+999999039MW1711
0041911170999991944022901004+21483-158033SAO  +0256PHHI V0200901N002610330019N1600001N1+02351+01691101081ADDGA1021+009009089GA2051+999999049MW1001
0025722866231221944061010004+34100-117250SAO  +0334SBD  V0202501N001510075019N0112001N9+01461+01191101191ADDGA1081+999999059MW1001
0041789540999991944071102004+13067-059483SAO  +0056TBPB V0200231N003110360019N0144001N1+02411+02351101661ADDGA1021+006009059GA2051+999999049MW1001
0009740630999991944010920004+61167-113683SAO  +0167CYFR V0201351N001512200019N0240001N1-02091-02701100441ADDMW1001
0025702960264101944013011004+60500-145500SAO  +0013CDV  V0200901N002610087019N0480001N1-00261-00651101491ADDGA1081+999999059MW1001
0058749024999991944062008004+03867-051817SAO  +0002SBVE V0209991C000012200019N0048001N1+02131+02131101221ADDGA1021+006009059MD1410001+9999MW1111EQDQ01+000022APCTEN
0041722167999991944063023004+30967-083200SAO  +0074VAD  V0201581N003610420019N1600001N1+02681+02181101591ADDGA1021+007509099GA2061+999999049MW1001
0041722340138651944041913004+32333-088750SAO  +0094MEI  V0200451N003110066019N0080001N1+01801+01631101731ADDGA1061+999999059GA2021+999999039MW1051
0041744865147191944072915004+40850-072633SAO  +0020FOK  V0201801N004110480019N0096001N1+02521+02181101021ADDGA1011+001209079GA2051+999999049MW1051
0009162700999991944052802004+41133+016783SAO  +0044LIBD V0200451N003612200019N1600001N1+01571+01241102361ADDMW1001
0009164100999991944020308004+38117+013317SAO  +0105LICP V0201581N001512200019N1600001N1+01241+00581102341ADDMW1001
0049411960999991944042008004+25350+055383SAO  +0002OMSJ V0201401N001512200019N1600001N9+01961+01191101151ADDGA1021+999999049GA2021+999999009MD1510061+9999
0029719360999991944122118004+62467-114450FM-12+020099999V0203601N002119999999N0500001N9-01831+99999102301ADDGF106991001999012501999999
0039703605999991944070219004+59017-161817SAO  +0003PTU  V0200231N002110240019N0480001N1+00961+00741101191ADDGA1061+999999039MD1310041+9999MW1001
0039978760999991944070714004-06100+140300SAO  +0016WAKT V0209991C000010036019N0032001N1+02131+02071101461ADDGA1081+999999059MD1110121+9999MW1611
0009418910999991944020305004+24900+091883SAO  +0035VGSY V0201131N004112200019N1600001N1+02131+01411999999ADDMW1001
0009724970999991944102417004+39783-121850SAO  +0069CIC  V0202701N001512200019N0240001N1+02021+00961102101ADDMW1001
0045723530139671944013015004+35400-097600SAO  +0397OKC  V0201801N005110003019N0016001N1+00911+00851102241ADDGA1081+999999079MD1210041+9999MW1451MW2511
0025724640930581944011805004+38300-104483SAO  +1416PUB  V0201401N008712200019N0064001N9-00091-00811102241ADDGA1001+999999999MW1051
0109850410999991944110222004-11067-068733FM-12+026099999V0200501N00211220001CN0500001N9+02891+99999999999ADDAY101999GA1091+999999999GF109991021051999999031001MA1999999098441MW1011EQDQ01+000032SCOTCVQ02+000992SCOLCB
0023749191999991944101109004+56700-121750SAO  +090599999V0202481N005712200019N1600001N1+01191+00021999999ADDMD1710061+9999MW1001
0041071490999991944121517004+48733+002400SAO  +0096LFPO V0201581N001510120019N0032001N1+00351+00021101011ADDGA1051+999999059GA2031+999999039MW1051
0025656600999991944102005004+06250-010350SAO  +0018GLRB V0209991C000010036019N0064001N1+02351+02301100981ADDGA1081+999999099MW1451
0025727796241371944032704004+48600-112367SAO  +1175CTB  V0203381N008212200019N0320001N1-01261-01591102541ADDGA1021+999999039MW1001
0039652020999991944081115004+06550+003350SAO  +001999999V0202251N005112200019N1600001N1+02681+02301101251ADDGA1021+999999009MD1710221+9999MW1001
0025723650230501944102416004+35050-106667SAO  +1620ABQ  V0203601N003112200019N1600001N9+01521+00521102641ADDGA1001+999999999MW1001
0041726196146101944112315004+39367-075067SAO  +0025MIV  V0202701N002610210019N0048001N1+00521-00091101221ADDGA1021+012009059GA2051+999999049MW1051
0025749395999991944091318004+52400+175967SAO  +001599999V0201351N003612200019N0240001N1+00631+00241101351ADDGA1021+004509059MW1001
0041749000999991944022313004+35367-086050SAO  +0331TUH  V0203381N001010360019N0096001N1+01071+00851101761ADDGA1061+999999049GA2021+999999019MW1051
0023747188231581944052215004+33617-114717SAO  +0121BLH  V0201351N003612200019N0320001N1+02301+00961100911ADDMD1110121+9999MW1001
0025726196146101944112004004+39367-075067SAO  +0025MIV  V0200681N004112200019N0032001N1+00191-00261102101ADDGA1061+999999029MW1051
0025717070999991944123114004+46167-060050SAO  +0062CYQY V0202251N004612200019N0240001N1-00761-01091103101ADDGA1081+999999039MW1001
0039717050999991944090908004+46117-064683SAO  +0071CYQM V0202251N002610075019N0128001N1+00911+00801101181ADDGA1081+999999059MD1310121+9999MW1001
0025722688930341944111922004+32683-103217SAO  +1115HOB  V0202701N005712200019N1600001N1+01351-00151101491ADDGA1011+024009089MW1001
0025722675230211944042119004+33600-102250SAO  +1009REE  V0202001N010310540019N1600001N9+02851-00371100171ADDGA1081+999999029MW1001
0059035623999991944011214004+52367-000233FM-12+005099999V0202301N00461220001CN0020001N9+00781+00671101881ADDAY121999GA1041+999999999GF108991081051001501999999MW1051
0009722121128091944102411004+27950-081783SAO  +0039BOW  V0200231N003112200019N0128001N1+01741+01461102071ADDMW1001
0025749416999991944120921004-09200+152950SAO  +000799999V0201351N003612200019N1600001N1+02961+02411100781ADDGA1021+006009059MW1001
0025749091999991944121005004+30667-096550SAO  +0084CFD  V0203381N009810069019N0128001N1+00631+00241102131ADDGA1081+999999079MW1001
0039749096999991944052421004+34600-091583SAO  +0068SGT  V0201801N004610105019N1600001N1+03021+02131101151ADDGA1061+999999089MD1610101+9999MW1001
0039162603999991944061700004+41433+015533SAO  +0094LIBF V0202931N005712200019N1600001N1+01461+00461101241ADDGA1011+999999039MD1710101+9999MW1001
0041749026999991944091502004+08233-078900SAO  +0024MPYI V0209991C000010060019N1600001N1+02521+02461101051ADDGA1061+999999059GA2021+999999039MW1001
0025654720999991944121501004+05600-000167SAO  +0069DGAA V0202701N001512200019N0128001N1+02571+02461100881ADDGA1021+999999009MW1001
0041917530999991944040800004-13233-176167SAO  +0027NLWW V0200901N003110360019N1600001N1+03241+02571101021ADDGA1041+006609059GA2031+999999049MW1001
0025749297999991944062902004+40950+016100SAO  +043799999V0209991C000010105019N1600001N1+02241+01131101631ADDGA1051+999999059MW1801
0025567480999991944070816004+25133+099217SAO  +165599999V0202251N001510090019N0096001N1+01851+01801100981ADDGA1081+999999059MW1611
0009722170038131944020414004+32700-083650SAO  +0111MCN  V0203151N003612200019N0096001N1+00911+00461102271ADDMW1051
0044724690230621944062122004+39750-104867SAO  +1625DEN  V0200901N005110180019N1600001N1+03071+00962100031ADDGA1061+999999059MW1001EQDQ01+028283ATOD  
0023749271999991944120502004+36300+006700SAO  +055999999V0200681N001012200019N1600001N1+00021-00041102031ADDMD1710061+9999MW1001
0041723550139451944122607004+34650-098383SAO  +0360FSI  V0203601N007212200019N0144001N9-00261-00651103051ADDGA1031+999999049GA2051+999999029MW1001
0025163320999991944062610004+40233+018150SAO  +0061LIBN V0203601N008212200019N1600001N1+02911+01411101811ADDGA1011+010509089MW1001
0041655920999991944091916004+04417-007367SAO  +0021DITB V0202031N005110330019N1600001N1+02681+02351101251ADDGA1031+007509089GA2021+999999039MW1001
0025724836232081944050307004+38650-121383SAO  +0024MCC  V0201601N005112200019N0240001N9+01691+01191101251ADDGA1001+999999999MW1001
0025724695230361944072708004+39617-104750SAO  +1695BKF  V0202301N003612200019N1600001N9+99999+99999999999ADDGA1001+999999999MW1001
0025747686138201944040205004+30400-088917SAO  +0009BIX  V0201601N004610270019N1600001N9+01851+01301101761ADDGA1051+999999039MW1001
0041428090999991944070511004+22650+088450SAO  +0006VECC V0202251N004112200019N1600001N1+03181+02411099861ADDGA1021+004509089GA2051+999999039MW1001
0041704545999991944042220004+51383+179267SAO  +0069AHT  V0203151N006210060019N0320001N1+00241+00191099421ADDGA1061+999999059GA2021+999999039MW1001
0117423480999991944031812004+26917+075833FM-12+043699999V0202501N00261220001CN0500001N9+03111+00561100591ADDAY121999GA1999+000159999GA2999+000159999GF107991001001999999011061KA1999M+03171EQDQ01    003SCCGA1Q02    003SCCGA2
0039723406999991944071206004+36133-090933SAO  +0084ARG  V0202251N004110450019N0128001N1+02961+01741101191ADDGA1081+999999049MD1110141+9999MW1001
0041723011137481944082916004+34267-077900SAO  +0008ILM  V0202251N008210090019N0128001N1+02911+02131101801ADDGA1061+999999059GA2021+999999009MW1001
0041749069999991944080707004+34500-077567SAO  +0021NC95 V0201801N003110360019N0096001N1+02631+02411101021ADDGA1021+009009059GA2061+999999039MW1051
0039627700999991944101722004+13483+022450SAO  +0805HSGN V0201801N002112200019N1600001N1+02411+00911100751ADDGA1021+999999039MD1210201+9999MW1001
0039749087999991944083003004+30833-085200SAO  +0033MAI  V0200901N008710090019N0128001N1+02571+02181101661ADDGA1051+999999099MD1210141+9999MW1801
0057724586139221944083110004+38817-097650SAO  +0379SLN  V0202931N003112200019N1600001N1+01411+01241101191ADDGA1001+999999999GA2001+999999999GA3001+999999999MW1001
0078035450999991944011020004+52250+000950FM-12+006199999V0203401N00461220001CN0040001N9+00171-00221999999ADDAY121999GA1081+999999999GF199999001001999999071999MW1051EQDQ01+000072SCOTCV
0009749064999991944081305004+34200-004183SAO  +0564GMFT V0200901N012312200019N1600001N1+02241+01741101391ADDMW1001
0039749506999991944072400004+41417+015650SAO  +006999999V0202701N001012200019N1600001N1+02131+01571101001ADDGA1031+999999039MD1810021+9999MW1001
0023722165138151944022209004+31583-084117SAO  +0065TRF  V0209991C000012200019N0024001N1+01571+01571102201ADDMD1710081+9999MW1111
0041749503999991944112515004+42000+009400SAO  +001899999V0203151N002110300019N0096001N1+01521+01131100371ADDGA1041+009009059GA2041+999999049MW1611
0051033010999991944052002004+53417-002650FM-12+001899999V0202001N00101220001CN0020001N9+00611+00561101361ADDGA1999+004509009GF100991001001999999001001MW1051
0009749240999991944122706004+23633+087350SAO  +009499999V0202931N001512200019N0096001N1+02351+00521101661ADDMW1051
0039722910931161944012515004+33250-119450SAO  +0154N51  V0203151N010812200019N0480001N1+00801+00301100681ADDGA1031+001509059MD1310101+9999MW1001
0039740030999991944122615004+40200-112933SAO  +1326DPG  V0203401N001510105019N0240001N9-00261-00371102271ADDGA1081+999999059MD1310161+9999MW1001
0035744900147021944112018004+42467-071283SAO  +0045BED  V0200901N005110090019N0064001N9+00851+00241101391ADDGA1061+999999089GA2021+999999049
0041749027999991944062517004+08850-079783SAO  +009499999V0203381N005112200019N1600001N1+03021+02301100911ADDGA1031+007509089GA2031+999999009MW1001
0023702000266171944120321004+64500-165433SAO  +0007OME  V0202701N001512200019N0320001N1-02201-02701101121ADDMD1210161+9999MW1001
0053035500999991944110717004+52567+000717FM-12+004099999V0202701N00261004501CN0100001N9+00611+00061999999ADDAY121999GA1051+004509049GF106991011041008001031999
0009723890931931944090722004+36767-119717SAO  +0100FAT  V0203151N002112200019N0160001N1+04071+01131100711ADDMW1001
0009727796241371944091808004+48600-112367SAO  +1175CTB  V0202931N008212200019N0960001N1+00081-00481101761ADDMW1001
0092035420999991944040721004+52567+001167FM-12+004999999V0200701N00261220001CN0020001N9+00391+00171102111ADDAY111999GA1999+004509009GF101991001001999999071001MD1010041+9999MW1051EQDQ01    003SCCGA1
0041749463999991944022802004-21267+164917SAO  +001499999V0201801N006710105019N1600001N1+02801+02411100541ADDGA1051+999999089GA2021+999999039MW1001
0039727937999991944022615004+47917-122283SAO  +0187PAE  V0202701N001510060019N0112001N1+00301+00191101421ADDGA1081+999999059MD1210101+9999MW1001
0025702000266171944061811004+64500-165433SAO  +0007OME  V0200451N001510180019N0480001N1+01301+00741101321ADDGA1081+999999039MW1001
0039043820999991944052212004+61933-042067SAO  +001399999V0200231N001010009019N0112001N1+00351+00241100981ADDGA1081+999999079MD1310061+9999MW1001
0057749402999991944071122004-00950+134817SAO  +000599999V0202251N001510420019N1600001N1+02411+02351101121ADDGA1021+009009059GA2041+999999049GA3021+999999029MW1001
0041749253999991944041401004+26333+096617SAO  +020499999V0201801N001012200019N0128001N1+02021+01741999999ADDGA1021+000309079GA2021+999999039MW1001
0053787605999991944091920004+09933-084100SAO  +1132MRSJ V0209991C000010060019N0128001N1+01851+01801101051ADDGA1061+999999059GA2021+999999029MW1171MW2801MW3951
0064749099999991944010200004+37167-095767SAO  +0250IDP  V0201581N001510120019N0080001N1+00021-00311101901ADDGA1081+999999079MD1410001+9999MW1051MW2511EQDQ01+000022APCTEN
0025825990999991944072008004-05917-035250SAO  +0049SBNT V0201801N002612200019N1600001N1+02301+02131101631ADDGA1011+005409089MW1001
0134429330999991944072512004+20700+077033FM-12+028299999V0203201N004619999999N0040001N9+02441+02331099761ADDAA199014091AY151999GA1999+000159999GA2999+000159999GF107991041051017501071001KA1999M+02561MW1531EQDQ01    003SCCGA1Q02    003SCCGA2
0031704820256261944062916004+52950-168850SAO  +0021IKO  V0201351N005110006019N0016001N1+00741+00741100681ADDGA1081+999999079MW1451MW2611
0057133880999991944040712004+43350+021867FM-12+020899999V0209991C00001012301CN0100001N9+01281+00831102421ADDAY161999GF108991071081012501011999MD1310021+9999MW1051
0009749187999991944040921004+58200-111383SAO  +0236CYEM V0201581N005112200019N1600001N1+01021+00351101561ADDMW1001
0009749074999991944101821004+38933-085917SAO  +0176SER  V0201801N002112200019N1600001N1+02351+00411101831ADDMW1001
0025723555999991944092423004+34300-097017SAO  +0235ADM  V0200231N004612200019N1600001N1+02351+01191102101ADDGA1081+999999029MW1001
0009749073999991944102516004+32400-086250SAO  +0067GUN  V0203601N001512200019N0024001N1+02461+00911102201ADDMW1051
0025423390999991944080102004+26300+073017SAO  +0224VIOJ V0203151N001512200019N1600001N1+03021+02571099901ADDGA1011+999999039MW1001
0055785201999991944120506004+18017-066567SAO  +0009TJPS V0209991C000012200019N1600001N1+02071+01801100811ADDGA1011+012009059GA2011+999999049MD1710061+9999MW1001
0041703610253391944071920004+59517-139667SAO  +0009CYAK V0201351N008710030019N0096001N1+01461+01191101731ADDGA1061+999999059GA2021+999999039MW1611
0009624050999991944101020004+25700+032700SAO  +0088HELX V0201581N003112200019N1600001N1+02741+01191101151ADDMW1001
0025722977931841944030102004+33683-117867SAO  +0016SNA  V0202031N003610120019N0320001N1+01301+00801101631ADDGA1081+999999059MW1611
0296999999149361944122104005+44383-098217SAO  +039599999V02033859003652200059N016000599-01285-01615103225ADDGA1999+000004999GD19999+9999999GD29999+9999999GD39999+9999999GD49999+9999999GF101995999999999999999999MA1999999098275EQDN01 00000JPWTH 1QNNE11 1 09999E11 1 09999E11 1 09999E11 1 09999G11U1 99999H11 1 99000K11 1 00003L11 1 01000M11 1 29020N11 1 00000Q11 1 10322S11 1 00009V11 1 00199W11 1 18007
0039704540257041944032618004+51883-176650SAO  +0005PADK V0203601N002610090019N0160001N9+00191+00021102271ADDGA1081+999999059MD1710041+9999MW1001
0039749047999991944061812004+28283-081417SAO  +0025ISM  V0202251N002110042019N1600001N1+02631+02461101801ADDGA1061+999999079MD1210141+9999MW1051
0025749183999991944050905004+47850-110650SAO  +088079S  V0202031N005110300019N0480001N1+01301+00131999999ADDGA1051+999999039MW1001
0041749028999991944110111004+09133-079233SAO  +004899999V0202481N003610105019N1600001N1+02351+02301100681ADDGA1061+999999059GA2021+999999049MW1001
0025725370948471944102319004+42233-083333SAO  +0202DTW  V0202251N009812200019N1600001N1+01691+00521101801ADDGA1061+999999009MW1001
0048719691999991944102718004+62367-140367FM-12+058799999V0202301N000519999999N0500001N9-01721-02001101921ADDGF108991999051022501071999EQDQ01+000002SCOTLC
0041042310999991944110713004+67000-050800SAO  +0050BGSF V0200451N006212200019N0640001N1-01701-02031101541ADDGA1011+999999049GA2011+999999009MW1001
0009749170999991944063013004+35117-119300SAO  +0133L17  V0202481N002112200019N0240001N1+02351+00631101321ADDMW1001
0041781180127141944110117004+21483-071150SAO  +0004MBSC V0200231N007712200019N1600001N1+02851+01961101351ADDGA1021+009009089GA2061+999999029MW1001
0025656600999991944031922004+06250-010350SAO  +0018GLRB V0200451N001012200019N0064001N1+02521+02461101321ADDGA1021+999999049MW1051
0025724835232061944021323004+38417-121333SAO  +0027MHR  V0202001N005712200019N0480001N9+01351-00041102101ADDGA1051+999999009MW1001
0041723011137481944111014004+34267-077900SAO  +0008ILM  V0202251N005110036019N0080001N1+01961+01691100951ADDGA1051+999999059GA2021+999999039MW1051
0041726077999991944050317004+44450-068367SAO  +0026BHB  V0202481N007712200019N0160001N1+01071+00631102511ADDGA1031+000909079GA2031+999999019MW1001
0041725190147711944010817004+43150-076267SAO  +0128SYR  V0203201N003112200019N0112001N9-01261-01761102611ADDGA1021+007509059GA2061+999999029MW1001
0025724663999991944061323004+38783-104717SAO  +1881PEF  V0202251N001510180019N1600001N1+02521-00041100711ADDGA1051+999999099MW1171
0009719640999991944061620004+60717-135067SAO  +0703CYXY V0201801N005112200019N0480001N1+02571-00042101491ADDMW1001
0031723030137141944041205004+35183-079017SAO  +0064POB  V0201601N004610018019N0096001N9+01521+01521100881ADDGA1081+999999059MW1051MW2611
0041747810999991944082101004+30967-083200SAO  +0072VAD  V0200701N004612200019N0128001N9+02631+02071102131ADDGA1031+015009049GA2021+999999009MW1001
0025722860231191944070302004+33900-117250SAO  +0466RIV  V0203201N005112200019N0192001N9+02331+01281100981ADDGA1001+999999999MW1001
0039788610999991944081018004+17117-061783SAO  +0010TAPA V0200681N005112200019N1600001N1+02961+02351101321ADDGA1031+006009089MD1810141+9999MW1001
0025749441999991944083012004-19250+146750SAO  +0006ABTL V0201581N002112200019N1600001N1+01851+01801102071ADDGA1061+999999029MW1001
0025704540257041944022210004+51883-176650SAO  +0005PADK V0202301N008710045019N0112001N9+00351+00021099861ADDGA1081+999999059MW1001
0042725396148151944122700004+42300-085250SAO  +0290BTL  V0201581N002612200019N1600001N1-01311-01531103761ADDMD1410001+9999MW1001EQDQ01+000022APCTEN
0023749080999991944121418004+34650-087333SAO  +017699999V0203381N002112200019N1600001N1+00021-00591102741ADDMD1810061+9999MW1001
0039723530139671944030309004+35400-097600SAO  +0397OKC  V0201581N011810072019N1600001N1+01301+01071100881ADDGA1081+999999079MD1810141+9999MW1001
0025424230999991944040823004+26733+094167SAO  +0090VEJT V0200901N003112200019N0080001N1+01741+01301101121ADDGA1041+999999039MW1051
0045722165138151944033009004+31583-084117SAO  +0065TRF  V0203381N005710060019N0032001N1+00851+00741101521ADDGA1081+999999079MD1310041+9999MW1451MW2611
0084854060999991944041312004-18450-070317FM-12+002999999V0201401N001019999999N0040001N9+01721+99999101181ADDAY101999GF104991021041999999011001IA1009MW1011EQDQ01+000032APCTENQ02+000002APC3  
0025749110999991944101123004+40333-097417SAO  +047186Y  V0203151N004612200019N1600001N1+01021+00241102441ADDGA1021+999999029MW1001
0055749536999991944022415004+41717+015367SAO  +003899999V0200901N003112200019N1600001N1+01071+00801102161ADDGA1031+009009059GA2021+999999039MD1810021+9999MW1001
0039722880231521944051506004+34200-118350SAO  +0236BUR  V0200901N002112200019N0160001N1+01411+01191102001ADDGA1041+009009079MD1210041+9999MW1001
0055724285138121944121518004+39817-082933SAO  +0225LCK  V0201801N009812200019N0144001N9+00021-00921101251ADDGA1011+999999049GA2031+999999009MD1710481+9999MW1001
0115036584999991944121904004+51633-000767SAO  +015799999V0201801N002610150019N0032001N1+00581+00581101921ADDGA1061+015009999GA2999+120009999GF107991999999999999999999MA1999999099981MD1310121+9999MW1051EQDQ01+999990APOSP 
0058725330148271944111823004+41000-085200SAO  +0252FWA  V0201131N002610084019N0096001N1+00301-00151102511ADDGA1081+999999059MD1410001+9999MW1051EQDQ01+000022APCTEN
0102033010999991944062220004+53417-002650FM-12+001899999V0203201N00461004501CN0040001N9+01671+01171101781ADDGA1081+004509089GF108991999999999999071021MW1051EQDQ01+000002SCOTLCQ02+000002SCOLCGQ03+000992SCOLCB
0041749045999991944011701004+27467-081367SAO  +0020SEF  V0200231N006212200019N0128001N1+00851+00521102241ADDGA1041+999999039GA2021+999999009MW1001
0041722680230091944091513004+33300-104533SAO  +1118ROW  V0201351N002110420019N1600001N1+01851+01241100611ADDGA1061+999999049GA2011+999999009MW1001
0009425910999991944112219004+24750+084950SAO  +0016VEGY V0201801N002112200019N1600001N1+01411+01191101291ADDMW1001
0055787410999991944020621004+12150-086167SAO  +0050MNMG V0200451N005710420019N1600001N1+03021+01691101191ADDGA1021+010509089GA2041+999999049MD1610301+9999MW1001
0025043820999991944020310004+61933-042067SAO  +001399999V0202701N001510120019N0160001N1-00761-01091102101ADDGA1061+999999059MW1001
0041424230999991944041000004+26733+094167SAO  +0090VEJT V0200451N001510240019N1600001N1+01631+01461101191ADDGA1021+012009059GA2051+999999049MW1001
0025749055999991944112202004+26400-098350SAO  +00627R7  V0203151N001010180019N1600001N1+01461+00961102541ADDGA1081+999999049MW1001
0009607150999991944101900004+36833+010233SAO  +0004DTTA V0202481N004112200019N1600001N1+01631+01241101461ADDMW1001
0025746710138061944042520004+36667-087500SAO  +0170HOP  V0202301N005112200019N1600001N9+02241+00461101521ADDGA1001+999999999MW1001
0035911820225211944092023004+21333-157950SAO  +0011PHNL V0200701N006712200019N1600001N9+02851+01851101631ADDGA1021+009009089GA2021+999999049
004594999900276194403070400N-35780+145570AUST +0096     V0200455N001059999999N999999999+02975+99999999999ADDGA1005+999999999GF100995004999999999999999
0045725038147141944041600004+41500-074100SAO  +0150SWF  V0200451N006710024019N0024001N1+00191+00131100311ADDGA1081+999999059MD1710161+9999MW1451MW2611
0019725196147171944080105004+43233-075417SAO  +0144RME  V0200501N001512200019N0096001N9+01691+01411102001ADDGA1001+999999999
0023947670999991944102116004-33950+151183SAO  +0003ASSY V0209991C000012200019N1600001N1+01851+00631101391ADDMD1710081+9999MW1001
0025747686138201944111004004+30400-088917SAO  +0009BIX  V0203201N003612200019N0128001N9+01411+00961101461ADDGA1001+999999999MW1001
0041724838999991944060120004+39100-121567SAO  +0019MYV  V0201801N005110135019N0480001N1+02071+00961100951ADDGA1061+999999059GA2021+999999029MW1001
0025567480999991944100117004+25133+099217SAO  +165599999V0203601N003112200019N0144001N1+01961+01631101251ADDGA1031+024009039MW1001
0039607140999991944100502004+37250+009800SAO  +0003DTTB V0209991C000010180019N1600001N1+01911+01801101081ADDGA1081+999999059MD1810041+9999MW1611
0009749321999991944052414004+25500+103083SAO  +195599999V0202031N001512200019N1600001N1+01741+01301100441ADDMW1001
0117431500999991944121803004+17700+083300FM-12+003899999V0203201N00101220001CN0100001N9+02391+01891101541ADDAY111999GA1999+000159999GA2999+000159999GF101991011051999999001001KA1999N+02061EQDQ01    003SCCGA1Q02    003SCCGA2
0025725310148061944120119004+40300-088133SAO  +0228RAN  V0203151N005110066019N0128001N1-00261-00871103351ADDGA1061+999999089MW1001
0060749005999991944093011004+52467+001150SAO  +000099999V0203381N004610060019N0128001N1+99999+99999999999ADDGA1061+006009999GA2081+220009999MW1001EQDQ01+000072SCOTCV
0025749098999991944102801004+30833-093367SAO  +0061DRI  V0200451N002612200019N0048001N1+01851+00631102881ADDGA1021+999999009MW1051
0019911820225211944083111004+21333-157950SAO  +0011PHNL V0203201N003110150019N1600001N9+02411+02021101691ADDGA1061+009009059
0025043820999991944012302004+61933-042067SAO  +001399999V0202251N001010300019N0160001N1-00761-00981099561ADDGA1081+999999049MW1001
0041749411999991944031817004-02000+147450SAO  +000499999V0209991C000012200019N1600001N1+02631+02411100781ADDGA1021+006009059GA2031+999999009MW1001
0039040180162011944102404004+63967-022600SAO  +0050BIKF V0201131N022110015019N0112001N1+00461+00461099151ADDGA1081+999999059MD1710961+9999MW1611
0037723100138831944021922004+33950-081117SAO  +0069CAE  V0200681N005110012019N0016001N1+00581+00521102781ADDGA1081+999999059MW1041MW2451MW3611
0025749167999991944051319004+32517-111317SAO  +057599999V0202251N004612200019N0400001N1+03521+00521101221ADDGA1081+999999029MW1001
0039722588999991944062815004+33067-096067SAO  +0166GVT  V0200681N001512200019N1600001N1+03071+02461101761ADDGA1021+999999029MD1110101+9999MW1001
0041722266138501944080411004+32350-086983SAO  +0054SEM  V0201131N003610240019N1600001N1+02301+02131101491ADDGA1041+007509059GA2041+999999039MW1611
0039724810232031944092600004+37333-120517SAO  +0053MER  V0202901N003612200019N0192001N9+03521+01191100681ADDGA1001+999999999MD1710141+9999MW1001
0025745940137051944061722004+38817-076883SAO  +0085ADW  V0203201N002110135019N0128001N9+03241+01961101221ADDGA1051+999999089MW1001
0025624400999991944013120004+30600+032250SAO  +001399999V0202481N003610096019N1600001N1+01131+00581102371ADDGA1081+999999059MW1001
0041749076999991944100222004+38833-085417SAO  +0268MDN  V0200901N003610360019N0080001N1+02071+01691101661ADDGA1061+999999049GA2011+999999029MW1051
0055702650999991944121400004+64650-147067SAO  +0164PAEI V0200201N002110360019N1600001N9-01091-01371101961ADDGA1051+999999049GA2031+999999029MD1210041+9999MW1001
0025749322999991944071814004+25417+100733SAO  +196799999V0202031N002612200019N1600001N1+01851+01631100781ADDGA1021+015009059MW1001
0057788079999991944081720004+07517-078150SAO  +0009MPJE V0202251N003112200019N1600001N1+02961+02631100681ADDGA1031+007509059GA2011+999999049GA3021+999999029MW1171
0045722359139781944082412004+33500-090083SAO  +0047GWO  V0201801N001012200019N0080001N1+02351+02241101591ADDGA1061+999999009MD1310061+9999MW1041MW2111
0039071800999991944120705004+48683+006217SAO  +0217LFSN V0202251N004610030019N0080001N1+00461+00351100351ADDGA1081+999999059MD1710141+9999MW1051
0039724550139471944033015004+39050-096767SAO  +0324FRI  V0202901N006212200019N1600001N9-00201-01201102071ADDGA1001+999999999MD1410001+9999MW1001
0025749159999991944112823004+35533-100750SAO  +0955PPA  V0200231N009812200019N1600001N1+00741+00021102071ADDGA1031+999999039MW1001
0039745980137021944102415004+37083-076350SAO  +0002LFI  V0202501N002112200019N0080001N9+01631+00581102301ADDGA1001+999999999MD1810061+9999MW1051
0025704540257041944010922004+51883-176650SAO  +0005PADK V0202701N008210030019N0032001N9-00261-00871098481ADDGA1081+999999059MW1851
0025726776240361944040807004+47050-109467SAO  +1270LWT  V0201581N002610180019N1600001N1+00131+00021100881ADDGA1081+999999049MW1001
0039749244999991944022614004+27567+095567SAO  +013099999V0203601N002112200019N0032001N1+01411+01351101521ADDGA1021+021009039MD1310081+9999MW1451
0009784390999991944031013004+18567-072300SAO  +0029MTPP V0200451N003612200019N1600001N1+02631+01691101861ADDMW1001
0055749028999991944110321004+09133-079233SAO  +004899999V0201801N003110060019N1600001N1+02801+02351100641ADDGA1051+999999059GA2011+999999019MD1610141+9999MW1001
0041422600999991944010713004+27150+077967SAO  +0169VIAG V0202251N001010540019N0096001N1+01851+00631101801ADDGA1061+999999049GA2021+999999029MW1051
0089877150999991944031412004-38933-067967FM-12+026699999V0200901N001019999999N0040001N9+01721+01281101621ADDAY121999GF108991011021017501071061IA1009KA1999M+02781KA2999N+01391MD1310081+9999MW1031
0009749047999991944031403004+28283-081417SAO  +0025ISM  V0200451N001512200019N0096001N1+01571+01351999999ADDMW1051
004594907099999194401100100N-38100+147150AUST +0008YMES V0202485N004659999999N999999999+02395+99999999999ADDGA1015+010505999GF101995014999010505999999
0009941200999991944101808004-12400+130867SAO  +0030ADDN V0203151N002612200019N1600001N1+02961+02131100951ADDMW1001
0055722785231111944050121004+33533-112367SAO  +0333LUF  V0203201N003612200019N0480001N9+03021+00021100751ADDGA1031+018009089GA2021+999999029MD1710241+9999MW1001
0117430630999991944122303004+18533+073850FM-12+055999999V0202301N00101220001CN0200001N9+01391+01221101671ADDAY101999GA1999+000159999GA2999+000159999GF100991001001999999001001KA1999N+01281EQDQ01    003SCCGA1Q02    003SCCGA2
0025726226999991944072022004+44050-075717SAO  +0210GTB  V0202031N006210270019N1600001N1+01961+01521100521ADDGA1061+999999039MW1001
0031704140999991944052207004+52717+174100SAO  +0021PASY V0201401N012910024019N0080001N9+00301+00241100641ADDGA1081+999999079MW1451MW2611
0042723100138831944062806004+33950-081117SAO  +0069CAE  V0200901N002112200019N0112001N1+02411+02021102071ADDMD1410001+9999MW1001EQDQ01+000022APCTEN
0071656600999991944120709004+06250-010350SAO  +0018GLRB V0200901N001012200019N0080001N1+02681+02461101191ADDGA1021+006009089GA2021+999999039GA3041+999999029MD1210161+9999MW1111
0041916310999991944040604004-05667+176133SAO  +0003NGFO V0200231N001510540019N1600001N1+02911+02521100681ADDGA1011+007509089GA2051+999999049MW1001
0057847520999991944050123004-16317-071550FM-12+252499999V0202301N00311220001CN0500001N9+01501+00671999999ADDAY101999GF102991001001999999001031MD1310061+9999MW1011
0041719456999991944041522004+59000-125883SAO  +0830WWQ  V0203601N002610360019N1600001N1+00691-00421999999ADDGA1021+018009059GA2061+999999039MW1001
0041940481999991944082102004-06617+147850SAO  +000899999V0201801N001510240019N0096001N1+02631+02301100891ADDGA1021+006009059GA2061+999999049MW1611
0039042610999991944081703004+61217-048117SAO  +0029BGGD V0209991C000010330019N0480001N1+00801+00581100651ADDGA1081+999999049MD1210011+9999MW1001
0009749271999991944122500004+36300+006700SAO  +055999999V0201131N001012200019N0112001N1+00021-00091101591ADDMW1001
0009725520149351944121306004+40967-098317SAO  +0566GRI  V0203381N005112200019N1600001N1+99999+99999999999ADDMW1001
0057915030999991944121308004-08333+157267SAO  +0006AGGM V0200231N001512200019N1600001N1+02521+02461100611ADDGA1021+009009099GA2021+999999049GA3051+999999029MW1001
0061723306138251944080612004+33633-088450SAO  +0059CBM  V0202001N001512200019N0048001N9+02351+02301101291ADDGA1011+999999039GA2061+999999029MD1010141+9999MW1041MW2111
014599999913739194401101500E+39883-075233SAO  +000899999V02031559004152200049N004000599-00335-00945102275ADDAA101000095MA1999999102175MW1045EQDN01 08000JPWTH 1QNNG11U1 99999K11 1 00015L11 1 00250M11 1 30170N11 1 08000Q11 1 10227S11 1 00026W11 1 88008
0058749205999991944052009004+52217-174200SAO  +0011ATK  V0203151N002610090019N0480001N1+00191-00261101491ADDGA1081+999999059MD1410001+9999MW1001EQDQ01+000012APCTEN
0009578961999991944122622004+26333+114500SAO  +015299999V0202251N002112200019N0048001N1+00081+00081103181ADDMW1451
0048719531999991944051600004+60133-128783FM-12+068599999V0201801N001019999999N0500001N9+02171+00671100481ADDGF104991011071999999001011EQDQ01+000992SCOLCB
0041725510149391944062205004+40850-096750SAO  +0362LNK  V0202701N001510180019N1600001N1+02571+02351100171ADDGA1061+007509049GA2021+999999009MW1001
0023719120999991944022603004+56350-094700SAO  +0144CYGX V0209991C000012200019N0160001N1-03141+99999102131ADDMD1110061+9999MW1001
0039722106128351944051803004+26583-081867SAO  +0005FMY  V0201581N005712200019N1600001N1+02301+01961101831ADDGA1021+012009099MD1110281+9999MW1001
0025722696999991944111804004+32850-106100SAO  +1251HMN  V0200451N002110042019N0112001N1+00461+00411101761ADDGA1081+001509059MW1511
0025040180162011944111223004+63967-022600SAO  +0050BIKF V0201351N006710090019N0320001N1+00241-00041099731ADDGA1081+999999059MW1001
0055727937999991944081412004+47917-122283SAO  +0187PAE  V0202701N001012200019N0024001N1+01131+01131101761ADDGA1011+012009059GA2021+999999039MD1310021+9999MW1111
0041749024999991944072219004+03867-051817SAO  +0002SBVE V0201131N002112200019N1600001N1+03071+02241101251ADDGA1021+006009089GA2011+999999009MW1001
0041702923264401944101911004+63383-143333SAO  +0472TSG  V0200231N003112200019N0480001N1+00241-00531101931ADDGA1011+015009059GA2021+999999029MW1001
0009654720999991944011602004+05600-000167SAO  +0069DGAA V0202701N001512200019N0080001N1+02351+02301101191ADDMW1051
0025727935242341944032114004+47533-122300SAO  +0005BFI  V0201351N002612200019N0048001N1+00191+00081103151ADDGA1999+009009999MW1051
0009417560999991944081921004+25067+061800SAO  +0057OPJI V0200901N003612200019N1600001N1+02851+02631100001ADDMW1001
0128416000999991944070612004+32500+074533FM-12+020899999V0209991C00001220001CN0200001N9+03221+02561099691ADDAA124003091AY161999GA1999+000159999GA2999+000159999GF100991001001999999001001KA1999M+03221EQDQ01    003SCCGA1Q02    003SCCGA2
0025745700138401944101823004+39833-084050SAO  +0254FFO  V0202501N001512200019N0080001N9+01851+00461101831ADDGA1001+999999999MW1051
0025702615999991944112101004+64850-147583SAO  +0148FBK  V0203601N001510450019N0480001N1-00981-01371099661ADDGA1081+999999049MW1001
0025722675230211944122117004+33600-102250SAO  +1009REE  V0200501N005110063019N1600001N9-00091-00761102911ADDGA1081+999999059MW1001
0039740030999991944030718004+40200-112933SAO  +1326DPG  V0201401N001012200019N0320001N9+00351-00921103521ADDGA1011+999999029MD1110101+9999MW1001
0055566510999991944090801004+26967+100233SAO  +239499999V0209991C000010054019N1600001N1+01801+01411099901ADDGA1061+999999059GA2011+999999049MD1110101+9999MW1001
0041749210999991944082803004+60633-132050SAO  +086799999V0202251N001512200019N0400001N1+01071+00411999999ADDGA1011+013509059GA2021+999999009MW1001
0025164600999991944011203004+37467+015050SAO  +0017LICC V0202481N001510210019N1600001N1+00691+00521102181ADDGA1061+999999039MW1001
0041725635999991944123016004+42050-102800SAO  +1198AIA  V0202931N008212200019N1600001N1-00371-00981101901ADDGA1011+006009059GA2011+999999009MW1001
0057719675999991944063007004+62417-140867SAO  +0649CYXQ V0202251N002112200019N0480001N1+01131+00691101331ADDGA1021+015009059GA2011+999999039GA3011+999999009MW1001
0025701780265291944121910004+65167-152100SAO  +0067TAL  V0201131N003110120019N0160001N1-00591-00871101901ADDGA1081+999999059MW1711
0025704090457091944060814004+52833+173183SAO  +0012ATU  V0200901N001010030019N0112001N1+00461+00411101831ADDGA1081+999999059MW1001
0041789480999991944052513004+13750-060950SAO  +0003TLPL V0200681N005112200019N1600001N1+02911+02351101591ADDGA1021+006609089GA2021+999999039MW1001
0057702720999991944052520004+61233-149867SAO  +0055PAED V0203201N001510240019N0640001N9+01131+00081100201ADDGA1011+018009059GA2051+999999049GA3021+999999029MW1001
0041749445999991944061811004-15500+167250SAO  +000999999V0201351N003112200019N1600001N1+02521+02351101151ADDGA1021+006009059GA2011+999999049MW1001
0029719576999991944060118004+64900-125500FM-12+009199999V0200901N006719999999N0450001N9+01441+00721101081ADDGF106991021999022501999999
0055566510999991944081513004+26967+100233SAO  +239499999V0203601N002610210019N1600001N1+01301+01131100241ADDGA1041+012009059GA2021+999999049MD1210181+9999MW1801
0041786410999991944011420004+14583-090517SAO  +1499MGGT V0200451N008210120019N1600001N1+02071+01301101081ADDGA1051+999999059GA2021+999999039MW1001
0039725377148041944092200004+42617-082817SAO  +0176MTC  V0202901N004112200019N1600001N9+02021+00911101221ADDGA1031+012009089MD1210281+9999MW1001
0117411500999991944120203004+26233+050583FM-12+000299999V0202001N00261220001CN0040001N9+02061+02001101151ADDAY111999GA1999+000159999GA2999+000159999GF101991011999999999999999KA1999N+01941EQDQ01    003SCCGA1Q02    003SCCGA2
0071042200999991944072501004+68700-052750SAO  +0047BGEM V0202481N005112200019N0480001N1+00521+00411102021ADDGA1999+024009999GA2021+999999049GA3051+999999029MD1810061+9999MW1001
0009749246999991944053001004+26800+092617SAO  +009899999V0209991C000012200019N0112001N1+02521+02131100581ADDMW1001
0118035530999991944090510004+51833-000683FM-12+009399999V0202501N00931004501CN0200001N9+01501+01111099951ADDAY121999GA1081+004509999GF199999071051004501041999MD1210201+9999EQDQ01+000072SCOTCVQ02+000042APCTENQ03+000042APC3  
0023164100999991944062812004+38117+013317SAO  +0105LICP V0200901N004112200019N1600001N1+03181+01351101691ADDMD1110041+9999MW1001
0053821930999991944051518004-01383-048483SAO  +0016SBBE V0203151N003610036019N0112001N1+02851+02571100951ADDGA1061+999999099GA2011+999999049MW1171MW2801MW3951
0031749075999991944010217004+38767-087600SAO  +0131LMV  V0201351N003110180019N0024001N1+00081-00151101931ADDGA1081+999999049MW1041MW2451
0025719640999991944021418004+60717-135067SAO  +0703CYXY V0201801N003612200019N0320001N1-00921-01311102451ADDGA1081+999999049MW1001
0039702070266271944012718004+63883-160800SAO  +0006UNK  V0202481N005110030019N0128001N1-02701-02981100981ADDGA1061+999999049MD1110121+9999MW1001
0025722250138291944010522004+32333-085000SAO  +0071LSF  V0202701N002110180019N0080001N9+01411+00521101801ADDGA1081+999999039MW1051
0009722806999991944033016004+32450-112867SAO  +0444P01  V0200681N000512200019N0320001N1+01521-00151101801ADDMW1001
000094999900024194402190100N-26600+118480AUST +0511     V0200455N007759999999N999999999+03115-00505999999
0073035500999991944010917004+52567+000717FM-12+004099999V0203401N00261220001CN0005001N9+00831+00831100511ADDAY161999GA1061+999999999GF108991081061002501999999MD1710081+9999MW1611
0104852070999991944021318004-16367-060983FM-12+037099999V0203601N00311220001CN0500001N9+02721+99999999999ADDAA199003091AY181999GA1071+999999009GF199999051061008001001021MA1999999097041MW1021EQDQ01+000062SCOTCV
0042749091999991944011812004+30667-096550SAO  +0084CFD  V0209991C000012200019N0112001N1+00021-00041102951ADDMD1410001+9999MW1001EQDQ01+000032APCTEN
0051033010999991944092316004+53417-002650FM-12+001899999V0202301N00461220001CN0020001N9+01221+00781101171ADDGA1041+004509089GF108991041051004501021999MW1501
0009749292999991944030312004+33467+049050SAO  +140899999V0203601N001512200019N1600001N1+01851-00981101521ADDMW1001
0009401800999991944120217004+32000+034900SAO  +0049LLBG V0201131N002612200019N1600001N1+01301+01071101591ADDMW1001
0009749105999991944031711004+40733-073600SAO  +003899999V0203601N001010001519N0002001N1+00351+00351100241ADDMW1451
0025722785231111944061707004+33533-112367SAO  +0333LUF  V0202301N003612200019N0400001N9+01911+00081100881ADDGA1001+999999999MW1001
0041975800999991944063001004-01833+138717SAO  +0003WAJI V0200901N002110480019N1600001N1+02961+02461100781ADDGA1011+006009059GA2061+999999049MW1001
0042722138138351944123112004+31083-083800SAO  +0090MGR  V0201581N001510001519N0002001N1+01241+01241102201ADDMD1410001+9999MW1451EQDQ01+000032APCTEN
0039911681999991944080421004+21583-158200SAO  +000599999V0200451N007710150019N1600001N1+02801+01961101801ADDGA1061+009009059MD1810041+9999MW1001
0025786410999991944101520004+14583-090517SAO  +1499MGGT V0200231N007212200019N1600001N1+02021+01021100981ADDGA1021+999999009MW1001
0041085150999991944100713004+36967-025167SAO  +0100LPAZ V0200451N005112200019N0480001N1+02351+01801102241ADDGA1031+004509059GA2021+999999009MW1001
0025040180162011944040809004+63967-022600SAO  +0050BIKF V0200231N007710210019N1120001N1+00351+00021100171ADDGA1061+999999039MW1001
0037108760999991944061012004+48267+013033FM-12+035099999V0200501N002619999999N0100001N9+99999+99999999999ADDAY121061GF108991021031012501001999
004594910099999194402290500N-35170+147470AUST +0213YSWG V0202035N006259999999N999999999+02695+99999999999ADDGA1005+999999999GF100995004999999999999999
0009407540999991944062021004+35683+051350SAO  +1191OIII V0209991C000012200019N1600001N1+02351+00131100101ADDMW1001
0025656600999991944041402004+06250-010350SAO  +0018GLRB V0200681N001512200019N0080001N1+02461+02411100911ADDGA1011+006009089MW1051
0041703980253081944011417004+55033-131567SAO  +0034ANN  V0201131N008710240019N0400001N1+00801+00241100171ADDGA1021+009009059GA2061+999999049MW1611
0047974040999991944111403004+02050+129300SAO  +001599999V0201801N005110060019N1600001N1+02571+02351100881ADDGA1051+999999099GA2031+999999049MW1171MW2631
0025723408138141944041204004+35967-089867SAO  +0080BYH  V0202901N008212200019N1600001N9+01241+00691100611ADDGA1001+999999999MW1001
0025747900138491944101023004+33967-080483SAO  +0072SSC  V0203601N002612200019N1600001N9+01911+01021101321ADDGA1001+999999999MW1001
0025747960128041944091508004+27650-081350SAO  +0021AGR  V0203401N003112200019N0112001N9+02241+01911101351ADDGA1031+999999029MW1001
0041787410999991944011007004+12150-086167SAO  +0050MNMG V0201351N001510240019N1600001N1+02351+01741101191ADDGA1051+999999039GA2021+999999009MW1001
0039724880231851944052909004+39500-119783SAO  +1341RNO  V0203381N001512200019N0160001N1+00911+00581101421ADDGA1011+018009059MD1310041+9999MW1001
0041427040999991944061510004+23467+087433SAO  +0074VEPH V0203151N001510360019N1600001N1+03741+02351099531ADDGA1011+007509089GA2061+999999049MW1001
0128438150999991944091612004+16183+081133FM-12+000399999V0201401N00261220001CN0100001N9+02941+02501100391ADDAA199016091AY161999GA1999+000159999GA2999+000159999GF104991021051017501041041KA1999M+03171EQDQ01    003SCCGA1Q02    003SCCGA2
0058749187999991944051905004+58200-111383SAO  +0236CYEM V0201801N002610210019N0112001N1+01691+01411100881ADDGA1081+999999039MD1410001+9999MW1001EQDQ01+000022APCTEN
0025725038147141944060705004+41500-074100SAO  +0150SWF  V0202701N002610075019N0080001N1+01851+01741100851ADDGA1081+999999059MW1451
0039749130999991944052221004+63183-041333SAO  +009199999V0200681N003610030019N0032001N1+00131+00021101421ADDGA1081+999999079MD1210141+9999MW1711
0009567510999991944102713004+25700+100183SAO  +199299999V0202251N001512200019N1600001N1+01241+00691102001ADDMW1001
0041718030999991944082416004+48950-054567SAO  +0151CYQX V0202931N006212200019N0240001N1+02241+01351100511ADDGA1031+010509089GA2011+999999009MW1001
0059035623999991944020611004+52367-000233FM-12+005099999V0202301N00461220001CN0010001N9+00111-00331103321ADDAY121999GA1051+999999999GF107991001001999999011999MW1101
0041942870999991944062102004-16883+145750SAO  +000799999V0201801N005110360019N1600001N1+02351+01461101531ADDGA1021+012009059GA2061+999999049MW1001
0041823980999991944083008004-03783-038533SAO  +0025SBFZ V0201351N007210060019N1600001N1+02461+01911101461ADDGA1061+999999059GA2021+999999039MW1001
0041719675999991944061323004+62417-140867SAO  +0649CYXQ V0201801N004612200019N0640001N1+02411+00581102021ADDGA1021+015009089GA2021+999999029MW1001
0009406480999991944061801004+33283+043483SAO  +004599999V0203151N004112200019N1600001N1+02571+01021100281ADDMW1001
0009423390999991944050508004+26300+073017SAO  +0224VIOJ V0202031N005112200019N0080001N1+03911+00301100631ADDMW1061
0039749140999991944020901004+66033-053567SAO  +001399999V0201351N002110105019N0160001N1-00201-00761100981ADDGA1081+999999059MD1810021+9999MW1001
0025724010137401944051922004+37500-077333SAO  +0054RIC  V0201131N003610180019N0096001N1+02241+01461101761ADDGA1051+999999039MW1051
0057749445999991944020203004-15500+167250SAO  +000999999V0200451N003112200019N1600001N1+02801+02521100311ADDGA1041+004509089GA2021+999999049GA3021+999999029MW1001
0025725040947021944021013004+41167-073133SAO  +0005BDR  V0203381N004612200019N1600001N1-00371-01371102721ADDGA1021+999999039MW1001
0019742060242071944102504004+47150-122483SAO  +0086TCM  V0203401N001012200019N0016001N9+00911+00851102101ADDGA1031+999999029
0041915900999991944022621004-22017+166217SAO  +0014NWWW V0209991C000010135019N1600001N1+02461+02411100851ADDGA1061+999999059GA2021+999999049MW1001
0041747750138461944080508004+30067-085583SAO  +0007PAM  V0201401N004610180019N0080001N9+02681+02351101561ADDGA1021+006009059GA2061+999999039MW1511
0031723535999991944111910004+36333-097833SAO  +0390END  V0203601N002110045019N0048001N9+00581+00581101731ADDGA1081+001209079MW1451MW2511
0039724835232061944022009004+38417-121333SAO  +0027MHR  V0201801N002110108019N0192001N9+00691+00521101321ADDGA1081+999999059MD1410001+9999MW1611
0039722423129231944080109004+29267-094867SAO  +0002GLS  V0201801N003612200019N1600001N1+02911+02571101291ADDGA1011+999999009MD1210061+9999MW1001
0025650820999991944011120004+11850+013083SAO  +0354DNMA V0200451N003112200019N0032001N1+02241+00241101521ADDGA1021+999999029MW1051
0117428510999991944082703004+21050+075567FM-12+020199999V0202301N001019999999N0040001N9+02441+02281100571ADDAY111999GA1999+000159999GA2999+000159999GF107991041051017501021001KA1999N+02331EQDQ01    003SCCGA1Q02    003SCCGA2
0009722655230051944121004004+32217-101517SAO  +0784BGS  V0203601N003112200019N1600001N1-00041-00311102911ADDMW1001
0023749080999991944102206004+34650-087333SAO  +017699999V0209991C000012200019N0064001N1+00851+00411102131ADDMD1110061+9999MW1051
0009749322999991944010404004+25417+100733SAO  +196799999V0202251N004612200019N1600001N1+01521+00021999999ADDMW1001
0041724490139931944092618004+39767-094917SAO  +0249STJ  V02099999999990420019N1600001N1+99999+99999999999ADDGA1061+999999049GA2021+999999029MW1001
004594999900276194406040800N-35780+145570AUST +0096     V0201805N004659999999N999999999+01015+99999999999ADDGA1005+999999999GF100995004999999999999999
0039724663999991944030621004+38783-104717SAO  +1881PEF  V0202931N007710150019N1600001N1+00191-01981101561ADDGA1061+999999059MD1710141+9999MW1001
0023749441999991944101113004-19250+146750SAO  +0006ABTL V0202031N001012200019N1600001N1+01961+01521101691ADDMD1210041+9999MW1001
0025749214999991944013120004+60417-133750SAO  +087299999V0200451N002110030019N0032001N1-00921-01091999999ADDGA1081+999999079MW1711
0055749024999991944071514004+03867-051817SAO  +0002SBVE V0200901N002610060019N1600001N1+02911+02241101661ADDGA1061+999999089GA2021+999999039MD1810041+9999MW1001
0039749119999991944122518004+58217-062583SAO  +000899999V0202251N001012200019N0480001N1-02201-02701102001ADDGA1061+999999029MD1710141+9999MW1001
0025722138138351944081814004+31083-083800SAO  +0090MGR  V0202251N002112200019N0112001N1+02911+02351101631ADDGA1011+999999019MW1001
0025722130138611944032808004+31250-082400SAO  +0046AYS  V0203601N001510120019N0048001N1+01691+01521101831ADDGA1061+999999079MW1051
0045162980999991944110909004+40900+014300SAO  +0093LIRN V0202481N004610060019N0080001N1+01571+01351100471ADDGA1081+999999059MD1810041+9999MW1051MW2511
0071722146128161944080518004+29683-082267SAO  +0046GNV  V0202251N002110105019N1600001N1+03291+02461101831ADDGA1051+999999089GA2021+999999049GA3011+999999029MD1710101+9999MW1001
0025724663999991944062414004+38783-104717SAO  +1881PEF  V0200901N001012200019N1600001N1+02131+01461101491ADDGA1011+999999039MW1001
