0009722880231521945072308004+34200-118350SAO  +0236BUR  V0201351N003112200019N0112001N1+02131+01801101151ADDMW1001
0025749208999991945041304004+60267-121800SAO  +050399999V0201131N001010360019N0400001N1-00761-01201103291ADDGA1061+999999049MW1001
0009749241999991945050114004+22300+087333SAO  +004199999V0201801N005112200019N1600001N1+02911+02351100411ADDMW1001
0057726510149441945071601004+43583-096733SAO  +0435FSD  V0201801N006212200019N0240001N1+02351+01461101391ADDGA1021+015009089GA2021+999999049GA3021+999999029MW1001
0025719150999991945050311004+64183-083350SAO  +0059CYZS V0202701N002110060019N0160001N1-01761-01981102131ADDGA1061+999999059MW1711
0041785470116241945082619004+17700-064800SAO  +0017TISX V0201131N008212200019N1600001N1+03021+02181101251ADDGA1021+006009089GA2031+999999009MW1001
0009604920999991945102419004+35733+000550SAO  +007599999V0203381N003112200019N0192001N1+01911+01741101931ADDMW1001
0039747910137171945100921004+33683-078933SAO  +0008MYR  V0203601N002612200019N0144001N9+02131+01071101021ADDGA1051+999999009MD1710061+9999MW1001
0025749035999991945021413004+08250-080567SAO  +0046MADU V0202251N003112200019N1600001N1+02351+01961101221ADDGA1011+009009089MW1001
0039749118999991945101500004+54767-058450SAO  +001099999V0202931N005110111019N0320001N1+00081+00021101191ADDGA1061+999999059MD1810061+9999MW1001
0041749183999991945010623004+47850-110650SAO  +088079S  V0202701N004610240019N0800001N1+00351-00151100851ADDGA1061+999999049GA2011+999999009MW1001
0025722268938431945111223004+31317-085450SAO  +0122DHN  V0200901N003610300019N0160001N1+02021+01741101801ADDGA1061+999999039MW1001
0055722866231221945062321004+34100-117250SAO  +0334SBD  V0202001N001512200019N0144001N9+02741+01021101121ADDGA1011+012009089GA2061+999999019MD1710161+9999MW1001
0025726226999991945011910004+44050-075717SAO  +0210GTB  V0209991C000012200019N1600001N1-01311-01591102471ADDGA1021+027009049MW1001
0025749153999991945012519004+00217-176467SAO  +000399999V0200901N008712200019N1600001N1+02741+02241100611ADDGA1021+009009089MW1001
0025480350999991945051617004+22933+097750SAO  +0749VBLS V0200451N002110180019N0080001N1+01911+01851100511ADDGA1081+999999059MW1611
0239999999137591945042318005+36617-076017SAO  +001199999V02009059004150152449N009600599+01285+00725102065ADDGA1999+015244074GD19085+9999999GD29999+9999999GD39999+9999999MA1999999101935MW1055EQDN01 08100JPWTH 1QNNE11 1 09910E11 1 09999E11 1 09999G11 1 00050H11 1 16050K11 1 00045L11 1 00600M11 1 30100N11 1 08100Q11 1 10206S11 1 00055W11 1 33008
0025722315539171945052222004+30050-090033SAO  +0003NEW  V0200231N001512200019N0080001N1+02351+02131101841ADDGA1081+999999049MW1051
0340999999931151945060618005+32567-117117SAO  +000999999V02022559007752200049N024000599+01834+01175101694ADDGA1999+012194064GA2999+999999999GA3999+999999999GA4999+999999999GD19025+9999999GD29005+9999999GD39005+9999999GD49005+9999999MA1999999101594EQDN01 00000JPWTH 1QNNE11 1 09902E11 1 09900E11 1 09900E11 1 09900G11U1 99999H11 1 15040H11 1 00999H11 1 00999H11 1 00999K11 1 00053L11 1 01500M11 1 30000N11 1 00000Q11 1 10169S11 1 00065W11 1 66015
0041749045999991945062908004+27467-081367SAO  +0020SEF  V0203381N001012200019N1600001N1+02351+02181101591ADDGA1011+999999049GA2021+999999009MW1001
0025171290999991945032809004+39950+032683SAO  +0806LTAD V0209991C000010360019N1600001N1+00961-00151999999ADDGA1081+999999039MW1001
0041727755241121945033113004+47517-111167SAO  +1049KGFA V0202501N007710240019N1600001N9+00911-00151099951ADDGA1061+999999049GA2021+999999009MW1001
0029719303999991945111201004+74500-083500FM-12+000099999V0203601N002119999999N9999999N9-01891+99999099971ADDGF100991001001999999001001
0041040180162011945092205004+63967-022600SAO  +0050BIKF V0200681N005112200019N0640001N1+00631+00461099291ADDGA1011+007509059GA2021+999999049MW1001
0039723306138251945081303004+33633-088450SAO  +0060CBM  V0201101N001510360019N0128001N9+02571+02411101561ADDGA1051+999999039MD1010161+9999MW1001
0025171290999991945021320004+39950+032683SAO  +0806LTAD V0202251N001010060019N1600001N1+00241+00131999999ADDGA1051+999999059MW1001
0025749501999991945022607004+41033+014333SAO  +004099999V0209991C000012200019N0112001N1+00131+99999103251ADDGA1061+999999009MW1001
0055722359139781945032015004+33500-090083SAO  +0047GWO  V0202701N008710480019N0112001N1+01461+01241101391ADDGA1041+002709059GA2021+999999049MD1210141+9999MW1001
0025723535999991945060413004+36333-097833SAO  +0390END  V0200701N005710033019N0128001N9+01351+01021101631ADDGA1081+999999059MW1001
0340999999225171945051706005+21350-157950SAO  +0010NPS  V02004559006752200049N019200599+02505+01835101765ADDGA1999+999999084GA2999+999999004GA3999+999999999GA4999+999999999GD19025+9999999GD29025+9999999GD39005+9999999GD49005+9999999MA1999999101735EQDN01 00000JPWTH 1QNNE11 1 09902E11 1 09902E11 1 09900E11 1 09900G11U1 99999H11 1 11999H11 1 32999H11 1 00999H11 1 00999K11 1 00065L11 1 01200M11 1 30040N11 1 00000Q11 1 10176S11 1 00077W11 1 22013
0039723030137141945080812004+35183-079017SAO  +0064POB  V0202901N001012200019N0160001N9+02351+02021101251ADDGA1061+999999009MD1210161+9999MW1001
0025722675230211945072408004+33600-102250SAO  +1009REE  V0201801N001512200019N0320001N9+02131+01411101081ADDGA1001+999999999MW1001
0041780160136011945053016004+32367-064683SAO  +0006TXKF V0202501N008712200019N0320001N9+02461+01571101251ADDGA1041+009009059GA2011+999999009MW1001
0057424100999991945082110004+26100+091583SAO  +0054VEGT V0209991C000010390019N1600001N1+03131+02681099931ADDGA1021+009009089GA2031+999999049GA3021+999999009MW1001
0041982320999991945080806004+18367+121633SAO  +0004RPUA V0200451N006212200019N1600001N1+02961+02571100581ADDGA1011+009009099GA2081+999999029MW1001
0025749322999991945040514004+25417+100733SAO  +196799999V0202251N004112200019N0128001N1+01571+00691100541ADDGA1021+021009039MW1001
0039722110128421945082209004+27967-082533SAO  +0003TPA  V0200451N002112200019N0240001N1+02461+02411101461ADDGA1011+999999049MD1710061+9999MW1001
0039749141999991945071200004+63433-051183SAO  +0041BMKA V0202931N004110066019N0080001N1+00631+00631100201ADDGA1081+999999079MD1610201+9999MW1611
0025719120999991945062801004+56350-094700SAO  +0144CYGX V0200451N007210075019N0320001N1+00581+00241101151ADDGA1061+999999059MW1001
0009749054999991945082907004+28683-082083SAO  +00274FL2 V0200681N002112200019N0112001N1+02181+02131101761ADDMW1001
0025702660999991945092116004+63967-145700SAO  +0398PABG V0200901N007710240019N0320001N1+00301+00021102101ADDGA1081+999999049MW1611
0109852070999991945081622004-16367-060983FM-12+037099999V0203601N00101220001CN0500001N9+03111+99999999999ADDAY101999GA1011+999999019GF101991011011999999041021MA1999999096352MW1001EQDQ01+000992SCOLCBQ02+096353APOSP 
0025076470999991945111500004+43517+004933SAO  +0024LFMI V0200231N002610300019N0080001N1+00351+00241101591ADDGA1061+999999049MW1051
0039411500999991945050912004+26267+050650SAO  +0002OBBI V0203381N002612200019N1600001N1+03411+01691100471ADDGA1021+999999009MD1710161+9999MW1001
0009743941999991945021414004+42933-071433SAO  +0076MHT  V0203601N003610105019N0032001N1-00531-00811101591ADDMW1711
0009432960999991945040916004+12950+077633SAO  +0897VOBG V0201351N004112200019N1600001N1+02801+01411100981ADDMW1001
0055655920999991945091609004+04417-007367SAO  +0021DITB V0209991C000010060019N0096001N1+02521+02411101591ADDGA1061+999999059GA2021+999999039MD1310201+9999MW1451
0039724380938191945072405004+39733-086267SAO  +0246IND  V0209991C000010360019N0048001N1+02301+02131101151ADDGA1051+999999039MD1110021+9999MW1051
0041749141999991945062923004+63433-051183SAO  +0041BMKA V0203151N004110057019N0240001N1+00301+00241101121ADDGA1061+999999079GA2011+999999049MW1001
0041749425999991945012602004-09433+160183SAO  +000799999V0203151N001510120019N1600001N1+02851+02571100441ADDGA1061+999999059GA2021+999999049MW1801
0039722745231091945020103004+32183-110917SAO  +0782DMA  V0202301N002112200019N1600001N9+01241+00131101801ADDGA1061+999999009MD1310141+9999MW1001
0055749026999991945012712004+08233-078900SAO  +0024MPYI V0202931N003612200019N1600001N1+02411+02241101121ADDGA1011+007509059GA2031+999999039MD1210061+9999MW1001
004594653099999194503070500N-32130+133720AUST +0017YPCD V0201805N006259999999N999999999+01825+99999999999ADDGA1035+007505999GF108995034999007505999999
0025749056999991945010520004+29883-097867SAO  +0178SRO  V0209991C000010120019N0112001N1+01301+00911101931ADDGA1081+007509079MW1001
0025411500999991945042702004+26267+050650SAO  +0002OBBI V0202481N002612200019N1600001N1+02351+02021100641ADDGA1021+999999049MW1001
0025423140999991945111501004+27483+095017SAO  +0111VEMN V0209991C000010420019N0128001N1+01411+01301101351ADDGA1061+999999039MW1001
006094608099999194501090400N-31950+115850AUST +0020     V0201805N002159999999N999999999+02505+00805999999ADDGA1005+999999999GF100995004999999999999999MA1999999101235
0041749316999991945031802004+15117+145700SAO  +003299999V0200451N004610420019N1600001N1+02741+02181100951ADDGA1021+005109089GA2061+999999049MW1001
0117427370999991945110803004+22300+070833FM-12+013299999V0209991C00001220001CN0100001N9+01671+00721101351ADDAY101999GA1999+000159999GA2999+000159999GF100991001001999999001001KA1999N+01501EQDQ01    003SCCGA1Q02    003SCCGA2
0055749118999991945041103004+54767-058450SAO  +001099999V0202931N018510072019N0240001N1+00851+00301100031ADDGA1061+999999059GA2021+999999049MD1610201+9999MW1001
0086035530999991945053110004+52500-000583FM-12+010199999V0202001N00671220001CN0100001N9+01561+00721101311ADDAY121999GA1999+004509049GF104991021021012501001031MD1010001+9999EQDQ01    003SCCGA1
0340999999938441945112308005+32317-080683SAO  +001099999V02027059004652200049N014400599+00504-00175101934ADDGA1999+999999999GA2999+999999999GA3999+999999999GA4999+999999999GD19005+9999999GD29005+9999999GD39005+9999999GD49005+9999999MA1999999101864EQDN01 00000JPWTH 1QNNE11 1 09900E11 1 09900E11 1 09900E11 1 09900G11U1 99999H11 1 00999H11 1 00999H11 1 00999H11 1 00999K11 1 00029L11 1 00900M11 1 30080N11 1 00000Q11 1 10193S11 1 00041W11 1 77009
0314999999116211945063003005+10683-061617SAO  +0013MCGU V02036059001052200049N016000599+02395+02225101505ADDGA1999+999999034GA2999+999999004GA3999+999999999GA4999+999999999GD19025+9999999GD29025+9999999GD39005+9999999GD49005+9999999EQDN01 00000JPWTH 1QNNE11 1 09902E11 1 09902E11 1 09900E11 1 09900G11U1 99999H11 1 23999H11 1 32999H11 1 00999H11 1 00999K11 1 00072L11 1 01000N11 1 00000Q11 1 10150S11 1 00075W11 1 11002
0081749003999991945030708004+52500-000600SAO  +000099999V0202931N004610180019N0032001N1+00691+00461103211ADDGA1071+018009999GA2011+036009999GF108991999999999999999999MD1110041+9999MW1051
0009427040999991945012910004+23467+087433SAO  +0074VEPH V0202931N004112200019N1600001N1+02461+00131101291ADDMW1001
0025723550139451945031520004+34650-098383SAO  +0360FSI  V0202001N008212200019N1600001N9+02241+01241100201ADDGA1081+999999009MW1001
0039912853215041945080305004+19717-155017SAO  +0012PHTO V0203601N001012200019N1600001N1+02521+01911101661ADDGA1031+006009089MD1210161+9999MW1001
0025724380938191945070801004+39733-086267SAO  +0246IND  V0202481N004112200019N0240001N1+02131+01521101761ADDGA1021+018009059MW1001
0025747750138461945092719004+30067-085583SAO  +0006PAM  V0201401N005110060019N0240001N9+03291+02021101731ADDGA1061+999999089MW1001
0009749096999991945082713004+34600-091583SAO  +0068SGT  V0200231N002612200019N0160001N1+01801+01411101731ADDMW1001
0092035530999991945010116004+52500-000583FM-12+010199999V0202501N00461220001CN0010001N9+00111-00171103761ADDAY121999GA1999+150009089GF108991041051008001071999MD1610021+9999MW1101EQDQ01    003SCCGA1
004594203099999194503091600N-17950+122230AUST +0009YBRM V0202705N001059999999N999999999+02675+02305999999ADDGA1025+007505999GF102995024999007505999999
0134999999137251945031415005+39250-076517SAO  +000599999V02013559003152200049N008000599+01115-00115102445ADDMA1999999102375MW1045EQDN01 08000JPWTH 1QNNG11U1 99999K11 1 00030L11 1 00500M11 1 30230N11 1 08000Q11 1 10244S11 1 00052W11 1 44006
0340999999938291945112712005+30350-087267SAO  +0021CVD  V02015859003652200049N012800599+01834+01395102024ADDGA1999+012194084GA2999+999999004GA3999+999999999GA4999+999999999GD19015+9999999GD29065+9999999GD39005+9999999GD49005+9999999MA1999999101794EQDN01 00000JPWTH 1QNNE11 1 09901E11 1 09907E11 1 09900E11 1 09900G11U1 99999H11 1 11040H11 1 32999H11 1 00999H11 1 00999K11 1 00057L11 1 00800M11 1 30060N11 1 00000Q11 1 10202S11 1 00065W11 1 54007
0031749130999991945030608004+63183-041333SAO  +009199999V0201581N007210045019N0040001N1+00191+00131098781ADDGA1081+999999079MW1451MW2611
0041722055999991945071302004+28433-081300SAO  +0029MCO  V0201351N001510270019N0112001N1+02411+02241101761ADDGA1021+010509099GA2061+999999049MW1001
0029710430999991945080506004+65250-126633FM-12+008899999V0202701N002119999999N0200001N9+01391+01391101081ADDGF105991001999999999999999
0050702190266151945100110004+60783-161800SAO  +0046BET  V0202931N001510120019N0240001N1+00631+00631099361ADDGF108991999999999999999999MA1999999099221MW1611
0025749064999991945052208004+34200-004183SAO  +0564GMFT V0202701N004612200019N1600001N1+01741+00911101801ADDGA1021+999999009MW1001
0039749499999991945051103004+41267+015917SAO  +012399999V0201801N003112200019N1600001N1+01301+00631102321ADDGA1021+999999009MD1310041+9999MW1001
0025040180162011945062300004+63967-022600SAO  +0050BIKF V0201131N011310150019N0240001N1+01071+00961101461ADDGA1061+006009059MW1611
0009042200999991945033015004+68700-052750SAO  +0047BGEM V0201581N006710018019N0012001N1-01311-01591099381ADDMW1711
0025724088137071945031104004+39133-075467SAO  +0006KDOV V0203201N004112200019N0128001N9+00411+00131101931ADDGA1001+999999999MW1001
0134999999137581945062201005+32850-079933SAO  +000999999V02018059004150182949N011200599+02615+02335101545ADDMA1999999101565MW1805EQDN01 02300JPWTH 1QNNG11 1 00060K11 1 00074L11 1 00700M11 1 29990N11 1 02300Q11 1 10154S11 1 00079W11 1 55008
003672221013858194509260400D+30483-086517SAO  +0025VPS  V0200201N001012200019N0128001N9+02411+02351102001ADDAA101000095GA1001+999999999MW1001
0071986370999991945072909004+10700+122567SAO  +0008RPVI V0202251N006712200019N1600001N1+02911+02571100781ADDGA1021+007509089GA2011+999999049GA3021+999999029MD1810081+9999MW1001
0025042801999991945041813004+61000-046000SAO  +0030BGNS V0209991C000010075019N0480001N1-00091-00531101051ADDGA1081+004509059MW1001
0025749118999991945052717004+54767-058450SAO  +001099999V0203381N001510105019N0480001N1+00461+00131103151ADDGA1061+999999059MW1001
0025623060999991945022308004+31333+027217SAO  +0030HEMM V0202701N008712200019N1600001N1+01021+00521102001ADDGA1041+007509089MW1001
0039722630999991945011609004+31367-100500SAO  +0585SJT  V0200901N002612200019N1600001N1+00351+00021102131ADDGA1081+999999021MD1810141+9999MW1001
0233999999137551945051920005+37800-075467SAO  +001599999V02031559006250076249N016000599+01725+00835101085ADDGA1999+999999064GD19085+9999999GD29999+9999999GD39999+9999999MA1999999100915EQDN01 00000JPWTH 1QNNE11 1 09910E11 1 09999E11 1 09999G11 1 00025H11 1 15999K11 1 00047L11 1 01000M11 1 29800N11 1 00000Q11 1 10108S11 1 00063W11 1 88012
0025722745231091945070908004+32183-110917SAO  +0782DMA  V0201401N003612200019N0640001N9+02411+01411101221ADDGA1021+999999009MW1001
0025704140999991945041514004+52717+174100SAO  +0021PASY V0203401N004110066019N0096001N9+00191+00131101021ADDGA1081+001809049MW1451
0025915900999991945120123004-22017+166217SAO  +0014NWWW V0201801N005110090019N1600001N1+02521+02131101251ADDGA1081+999999059MW1001
0041703330999991945082203004+56950-158617SAO  +0029PTH  V0201581N014410180019N0240001N1+01631+01351101421ADDGA1061+999999059GA2021+999999049MW1801
005272221013858194506141000D+30483-086517SAO  +0025VPS  V0201601N004610060019N1600001N9+02741+02351101691ADDAA101000095GA1051+999999059GA2021+999999009MW1001
0031749257999991945072702004+25800+096650SAO  +018799999V0201351N001010018019N0016001N1+02521+02521100581ADDGA1081+999999059MW1451MW2631
0041719676999991945102110004+60783-137550SAO  +0655CYHT V0201581N001510120019N0480001N1+00301-00591999999ADDGA1061+999999059GA2021+999999049MW1001
0041911690999991945110717004+21683-158033SAO  +001099999V0200901N013412200019N1600001N1+02461+01911101731ADDGA1021+007509089GA2021+999999009MW1001
0019724660930371945032316004+38817-104700SAO  +1882COS  V0201401N005110420019N1600001N9+00851-01091098951ADDGA1061+999999039
0340999999137551945110615005+37800-075467SAO  +001599999V02013559002652200049N012800599+01675+00615102575ADDGA1999+999999999GA2999+999999999GA3999+999999999GA4999+999999999GD19005+9999999GD29005+9999999GD39005+9999999GD49005+9999999MA1999999102405EQDN01 00000JPWTH 1QNNE11 1 09900E11 1 09900E11 1 09900E11 1 09900G11U1 99999H11 1 00999H11 1 00999H11 1 00999H11 1 00999K11 1 00043L11 1 00800M11 1 30240N11 1 00000Q11 1 10257S11 1 00062W11 1 44005
0041749322999991945032604004+25417+100733SAO  +196799999V0202701N006710210019N0128001N1+01961+00581101491ADDGA1021+015009089GA2031+999999039MW1001
0071983250999991945080110004+16050+120333SAO  +000299999V0202701N001012200019N1600001N1+02851+02411100681ADDGA1011+004509059GA2021+999999049GA3051+999999029MD1310141+9999MW1001
0050702735264091945121517004+61217-149833SAO  +0041MRI  V0201801N000510015019N0160001N1-00811-00981102681ADDGF107991999999999999999999MA1999999102171MW1001
0246999999128511945051410005+99999+999999SAO  +999999999V02022559002152200049N004800599+01945+01835101325ADDGA1999+999999034GA2999+999999024GD19065+9999999GD29025+9999999GD39999+9999999MW1045MW2445EQDN01 07280JPWTH 1QNNE11 1 09907E11 1 09903E11 1 09999G11U1 99999H11 1 23999H11 1 37999K11 1 00065L11 1 00300N11 1 07280Q11 1 10132S11 1 00067W11 1 66004
0009749244999991945051804004+27567+095567SAO  +013099999V0209991C000012200019N1600001N1+02851+02131100311ADDMW1001
004594999900276194512032300N-35780+145570AUST +0096     V0202255N004659999999N999999999+01635+99999999999ADDGA1005+999999999GF100995004999999999999999
0025911840999991945011017004+21333-157717SAO  +001899999V0200901N005110075019N1600001N1+02301+01911102071ADDGA1051+999999089MW1001
0067031350999991945061312004+55500-004583SAO  +0020EGPK V0202481N006710075019N0080001N1+01411+01021102411ADDGA1061+007509089GA2999+999999039GF107991999999999999999999MW1051
0025722925931171945042220004+33017-118583SAO  +0055NUC  V0202701N002610003019N0020001N1+01071+01021999999ADDGA1081+000309079MW1451
0340999999931211945090918005+34217-116050SAO  +053899999V02009059003152200049N048000599+03064+01445101054ADDGA1999+999999034GA2999+999999999GA3999+999999999GA4999+999999999GD19055+9999999GD29005+9999999GD39005+9999999GD49005+9999999MA1999999095364EQDN01 00000JPWTH 1QNNE11 1 09906E11 1 09900E11 1 09900E11 1 09900G11U1 99999H11 1 23999H11 1 00999H11 1 00999H11 1 00999K11 1 00058L11 1 03000M11 1 28160N11 1 00000Q11 1 10105S11 1 00087W11 1 33006
0025749080999991945011704004+34650-087333SAO  +017699999V0200681N004110048019N0032001N1-00041-00371102781ADDGA1081+999999079MW1051
0025722868999991945030520004+33833-116500SAO  +0141PSP  V0200901N004612200019N1600001N1+01571+00021101321ADDGA1011+024009059MW1001
005072255012912194508040300D+28850-096917SAO  +0036VCT  V0201801N001512200019N0200001N1+02681+02351101391ADDAA101000095GA1061+999999009MD1310101+9999MW1001
0055832480999991945111920004-12900-038333SAO  +0006SBSV V0201131N005112200019N0240001N1+02681+02181101191ADDGA1021+005409089GA2031+999999009MD1310041+9999MW1001
0025749045999991945040104004+27467-081367SAO  +0020SEF  V0201581N005110120019N0080001N1+02301+01911101691ADDGA1061+999999059MW1051
0039749133999991945072415004+65067-040233SAO  +036199999V0200901N002610240019N0480001N1+00301+00131102031ADDGA1081+999999049MD1210101+9999MW1001
0292999999137731945032111005+38500-077317SAO  +000499999V02018059004650152449N011200599+01615+01565100365ADDGA1999+015244064GA2999+999999044GD19065+9999999GD29085+9999999GD39999+9999999GD49999+9999999MA1999999100275MW1615EQDN01 02000JPWTH 1QNNE11 1 09907E11 1 09910E11 1 09999E11 1 09999G11 1 00050H11 1 15050H11 1 21999K11 1 00060L11 1 00700M11 1 29610N11 1 02000Q11 1 10036S11 1 00061W11 1 55009
0128433530999991945081712004+09967+076233FM-12+000399999V0202701N006719999999N0100001N9+02831+02501101041ADDAA199003091AY161999GA1999+000159999GA2999+000159999GF107991041081012501041001KA1999M+02941EQDQ01    003SCCGA1Q02    003SCCGA2
0025725038147141945092016004+41500-074100SAO  +0150SWF  V0202251N003110024019N0096001N1+01631+01351101691ADDGA1081+999999059MW1051
0024702190266151945011902004+60783-161800SAO  +0046BET  V0200451N010312200019N0320001N1-00151-00311097901ADDMA1999999097771MW1001
0039749231999991945091113004+60350-172700SAO  +002999999V0202481N009310045019N0240001N1+00351+00241099971ADDGA1081+999999059MD1810101+9999MW1611
0025711896999991945050923004+50283-064167SAO  +0022CYLP V0202481N008712200019N0240001N1+00461+00021100201ADDGA1021+999999039MW1001
004595677099999194502270200N-34800+138630AUST +0016YPPF V0202485N006259999999N999999999+02045+99999999999ADDGA1035+009005999GF103995034999009005999999
0039702091999991945062715004+62083-163717SAO  +0050MOU  V0202701N007210009019N0032001N1+00461+00461101461ADDGA1081+999999079MD1710021+9999MW1451
0071784390999991945011015004+18567-072300SAO  +0029MTPP V0202701N001512200019N1600001N1+02801+02071101901ADDGA1011+010509089GA2011+999999039GA3051+999999009MD1110101+9999MW1001
0233999999137631945080514005+99999+999999SAO  +999999999V02002359002152200049N012800599+02445+01895102465ADDGA1999+999999004GD19085+9999999GD29999+9999999GD39999+9999999MA1999999102345EQDN01 00000JPWTH 1QNNE11 1 09910E11 1 09999E11 1 09999G11U1 99999H11 1 32999K11 1 00066L11 1 00800M11 1 30220N11 1 00000Q11 1 10246S11 1 00076W11 1 12004
0009703980253081945103007004+55033-131567SAO  +0034ANN  V0200231N002112200019N0480001N1-00041-00311101391ADDMW1001
0025724565139201945032911004+38950-095667SAO  +0323FOE  V0200701N004110012019N1600001N9+00961+00911101421ADDGA1081+999999079MW1001
0039725101147121945042721004+40383-075967SAO  +0106RDG  V0202931N010310105019N1600001N1+01021+00081100981ADDGA1061+999999059MD1610061+9999MW1001
0029719070999991945072406004+58450-078133FM-12+002099999V0200501N006219999999N0120001N9+00561+00561100321ADDGF108991001001999999031999
0031724338138021945120113004+38550-089983SAO  +0134BLV  V0201401N004612200019N0024001N9-00151-00151102441ADDGA1031+999999029MW1041MW2111
0340999999107151945051505005+09367-079900SAO  +0004MBFS V02011359002152200049N016000599+02445+02225100935ADDGA1999+999999084GA2999+999999999GA3999+999999999GA4999+999999999GD19025+9999999GD29005+9999999GD39005+9999999GD49005+9999999MA1999999100715EQDN01 00000JPWTH 1QNNE11 1 09902E11 1 09900E11 1 09900E11 1 09900G11U1 99999H11 1 11999H11 1 00999H11 1 00999H11 1 00999K11 1 00072L11 1 01000M11 1 29740N11 1 00000Q11 1 10093S11 1 00076W11 1 34004
0009745430999991945111010004+37700-098750SAO  +0595PTT  V0201351N005112200019N0160001N1-00261-00761102571ADDMW1001
0057784860999991945120321004+18467-069883FM-12+001499999V0200701N004619999999N0500001N9+02561+99999101421ADDAY101999GF104991041001022501031001MD1810041+9999MW1021
0049744900147021945091915004+42467-071283SAO  +0045BED  V0203201N006210060019N0192001N9+02021+01741101191ADDGA1061+999999059GA2011+999999009MD1210061+9999
0340999999231991945081907005+32833-115667SAO  -001399999V02027059001050152449N016000599+02615+02285101105ADDGA1999+015244064GA2999+999999999GA3999+999999999GA4999+999999999GD19055+9999999GD29005+9999999GD39005+9999999GD49005+9999999MA1999999101255EQDN01 00000JPWTH 1QNNE11 1 09906E11 1 09900E11 1 09900E11 1 09900G11 1 00050H11 1 15050H11 1 00999H11 1 00999H11 1 00999K11 1 00073L11 1 01000M11 1 29900N11 1 00000Q11 1 10110S11 1 00079W11 1 77002
0041911170999991945020816004+21483-158033SAO  +0256PHHI V0202031N001010090019N1600001N1+01961+01851101731ADDGA1061+999999089GA2021+999999049MW1001
0031724296138411945122413004+39433-083800SAO  +0327ILN  V0201131N006710090019N0048001N1-00591-00871102301ADDGA1081+999999059MW1051MW2561
0340999999139991945100619005+35367-099183SAO  +058599999V02020359004152200049N024000599+02615+01895101495ADDGA1999+010674084GA2999+067064004GA3999+999999999GA4999+999999999GD19005+9999999GD29075+9999999GD39005+9999999GD49005+9999999MA1999999094825EQDN01 00000JPWTH 1QNNE11 1 09900E11 1 09909E11 1 09900E11 1 09900G11U1 99999H11 1 11035H11 1 32220H11 1 00999H11 1 00999K11 1 00066L11 1 01500M11 1 28000N11 1 00000Q11 1 10149S11 1 00079W11 1 56008
0039717050999991945012720004+46117-064683SAO  +0071CYQM V0202931N003610150019N0240001N1-00091-00481099621ADDGA1081+999999039MD1210321+9999MW1001
0050724060937211945073105004+39250-076667SAO  +0047BWI  V0200901N004610030019N0080001N1+02351+02181102401ADDGF108991999999999999999999MA1999999102341MW1041
0340999999242501945080418005+99999+999999SAO  +999999999V02029359001052200049N048000599+02675+00615101705ADDGA1999+999999999GA2999+999999999GA3999+999999999GA4999+999999999GD19005+9999999GD29005+9999999GD39005+9999999GD49005+9999999MA1999999085885EQDN01 00000JPWTH 1QNNE11 1 09900E11 1 09900E11 1 09900E11 1 09900G11U1 99999H11 1 00999H11 1 00999H11 1 00999H11 1 00999K11 1 00043L11 1 03000M11 1 25360N11 1 00000Q11 1 10170S11 1 00080W11 1 78002
0340999999242491945050520005+99999+999999SAO  +999999999V02022559001052200049N024000599+02505+00335101425ADDGA1999+013724084GA2999+999999004GA3999+999999999GA4999+999999999GD19025+9999999GD29025+9999999GD39005+9999999GD49005+9999999MA1999999087645EQDN01 00000JPWTH 1QNNE11 1 09903E11 1 09902E11 1 09900E11 1 09900G11U1 99999H11 1 11045H11 1 32999H11 1 00999H11 1 00999K11 1 00038L11 1 01500M11 1 25880N11 1 00000Q11 1 10142S11 1 00077W11 1 66002
0041701791999991945061204004+65000-150650SAO  +0085MLY  V0200451N001510240019N1600001N1+02021+00961099831ADDGA1021+011109099GA2061+999999039MW1001
0009722225038551945110107004+30350-087317SAO  +0009NPA  V0200901N001512200019N0032001N1+01741+01741101511ADDMW1111
0023749127999991945090621004+65933-036683SAO  +0057BIAK V0202251N006712200019N0480001N1+00461-00761099561ADDMD1710041+9999MW1001
0025722866231221945050807004+34100-117250SAO  +0334SBD  V0202501N001510030019N0064001N9+01351+01131101561ADDGA1081+999999079MW1051
0041432960999991945081010004+12950+077633SAO  +0897VOBG V0202251N005710075019N1600001N1+02571+01961100341ADDGA1051+999999059GA2021+999999049MW1001
0025085150999991945112101004+36967-025167SAO  +0100LPAZ V0209991C000010075019N0240001N1+01571+00961102371ADDGA1081+999999059MW1001
0086075100999991945032112004+44833-000700FM-12+004899999V0209991C000019999999N0150001N9+01781+99999102891ADDAY101999GA1011+999999019GF199999001001999999001001MD1710101+9999EQDQ01+000002SCOTCV
0009749196999991945011604004+55467-125950SAO  +069299999V0209991C000010180019N0048001N1-00651-00811101101ADDMW1711
0023406420999991945062403004+33033+040283SAO  +061599999V0202931N006712200019N1600001N1+01961+00631100371ADDMD1310021+9999MW1001
0025749395999991945042517004+52400+175967SAO  +001599999V0201131N004610054019N0192001N1+00301-00041102101ADDGA1081+999999059MW1001
0055702720999991945082406004+61233-149867SAO  +0055PAED V0201801N004610180019N0320001N9+01351+00851101561ADDGA1061+012009059GA2021+999999049MD1210101+9999MW1001
0041749323999991945102305004+25000+103583SAO  +184999999V0202481N003610090019N1600001N1+01741+00411101861ADDGA1051+999999059GA2031+999999039MW1001
0023749161999991945112606004+31517-103133SAO  +079848F  V0202481N003612200019N0480001N1+01131-00261101221ADDMD1110021+9999MW1001
0031724338138021945050319004+38550-089983SAO  +0134BLV  V0202701N010810024019N0064001N9+00801+00521100681ADDGA1081+999999079MW1051MW2611
0023620100999991945050321004+32667+013150SAO  +0081HLLT V0200681N004612200019N1600001N1+01741+01351101761ADDMD1310101+9999MW1001
0025749208999991945030622004+60267-121800SAO  +050399999V0203601N003610090019N0320001N1-01481-01981101121ADDGA1081+999999079MW1001
0041940270999991945041221004-06733+147000SAO  +0009AYLA V0202701N001510300019N1600001N1+02571+02411101251ADDGA1061+999999049GA2021+999999029MW1001
0009691174999991945031501004+39833-076117SAO  +0002KQAH V0202481N001512200019N1600001N1+01071+00631102131ADDMW1001
0055749108999991945090215004+41267-072017SAO  +00150B8  V0202701N007210060019N0112001N1+02301+02071101021ADDGA1061+999999059GA2021+999999049MD1810101+9999MW1001
0298999999147931945111017005+40200-075150SAO  +011699999V02002359003150045749N002400599+00895+00565103355ADDGA1999+999999064GA2999+999999044GD19055+9999999GD29035+9999999GD39999+9999999GD49999+9999999MA1999999101935MW1055MW2805EQDN01 02381JPWTH 1QNNE11 1 09906E11 1 09904E11 1 09999E11 1 09999G11 1 00015H11 1 15999H11 1 21999K11 1 00042L11 1 00150M11 1 30100N11 1 02381Q11 1 10335S11 1 00048W11 1 12006
0043800280999991945022612004+10883-074783FM-12+002399999V0200501N00821220001CN0200001N9+02391+01941100981ADDAY101999GF100991001001999999001001MW1001
0314999999128501945032919005+24583-081683SAO  +000899999V02011359011352200049N019200599+02565+01785101925ADDGA1999+007624084GA2999+999999999GA3999+999999999GA4999+999999999GD19025+9999999GD29005+9999999GD39005+9999999GD49005+9999999EQDN01 00000JPWTH 1QNNE11 1 09902E11 1 09900E11 1 09900E11 1 09900G11U1 99999H11 1 11025H11 1 00999H11 1 00999H11 1 00999K11 1 00064L11 1 01200N11 1 00000Q11 1 10192S11 1 00078W11 1 34022
0043726064999991945051004004+43400-070717SAO  +0074SFM  V0202701N003612200019N0480001N1+00631-00421101861ADDMA1999999100821MW1001EQDQ01+999990APOSP 
0041749057999991945071222004+28767-097117SAO  +003499999V0201581N007212200019N0240001N1+03521+01911101191ADDGA1021+013509089GA2041+999999029MW1001
0009783550999991945032504004+21400-077917SAO  +0122MUCM V0200681N005112200019N1600001N1+02131+01801101691ADDMW1001
0041784390999991945100823004+18567-072300SAO  +0029MTPP V0200901N002110360019N0240001N1+02461+02301101121ADDGA1021+013509059GA2061+999999039MW1611
0039820990999991945083111004+00033-051050SAO  +0015SBMQ V0200451N002612200019N0320001N1+02801+02301101421ADDGA1011+007509089MD1310241+9999MW1001
0025163200999991945021416004+40650+017950SAO  +0010LIBR V0203601N005110060019N1600001N1+01241+01021102271ADDGA1081+999999059MW1001
0041703610253391945032410004+59517-139667SAO  +0009CYAK V0200901N007712200019N0320001N1-00261-00421100301ADDGA1041+006009089GA2021+999999039MW1001
0039789540999991945051709004+13067-059483SAO  +0056TBPB V0200681N006712200019N1600001N1+02521+02181101291ADDGA1021+006009089MD1310041+9999MW1001
0025655920999991945091120004+04417-007367SAO  +0021DITB V0202251N005110045019N0128001N1+02351+02301101591ADDGA1081+999999059MW1001
0041789880999991945101317004+12200-068967SAO  +0067TNCC V0201131N006712200019N0400001N1+03071+02241101121ADDGA1031+006009089GA2021+999999029MW1001
0221722265138211945033115003+32383-086350SAO  +0053MXF  V02020359002150091449N1600005N9+01895+01565101635ADDGA1081+003054064GD19085+9999999GD29999+9999999GD39999+9999999MD1210161+9999EQDN01 00000JPWTH 1QNNE11 1 09910E11 1 09999E11 1 09999G11 1 00030H11 1 15010K11 1 00060L11N1 99999N11 1 00000Q11 1 10163S11 1 00066W11 1 56004
0009749077999991945031404004+37550-087967SAO  +0114I05  V0209991C000012200019N0096001N1+00741+00631101761ADDMW1051
0239999999129251945112009005+28367-097667SAO  +006299999V02011359004150061049N008000599+02005+01945101375ADDGA1999+999999064GD19085+9999999GD29999+9999999GD39999+9999999MA1999999101125MW1615EQDN01 02000JPWTH 1QNNE11 1 09910E11 1 09999E11 1 09999G11 1 00020H11 1 15999K11 1 00067L11 1 00500M11 1 29860N11 1 02000Q11 1 10137S11 1 00068W11 1 34008
0340999999938391945092708005+99999+999999SAO  +999999999V02011359002652200049N016000599+02284+02065101764ADDGA1999+045724034GA2999+060964004GA3999+999999999GA4999+999999999GD19025+9999999GD29015+9999999GD39005+9999999GD49005+9999999MA1999999100754EQDN01 00000JPWTH 1QNNE11 1 09902E11 1 09901E11 1 09900E11 1 09900G11U1 99999H11 1 23150H11 1 32200H11 1 00999H11 1 00999K11 1 00069L11 1 01000M11 1 29750N11 1 00000Q11 1 10176S11 1 00073W11 1 34005
0019724660930371945082317004+38817-104700SAO  +1882COS  V0201401N003112200019N0240001N9+02021+01351101831ADDGA1001+999999999
0025620530999991945101205004+32083+020267SAO  +0132HLLB V0201801N002112200019N0240001N1+01461+00911102241ADDGA1031+015009059MW1001
0025749252999991945041823004+26717+093950SAO  +009199999V0209991C000010450019N0048001N1+02071+01911100851ADDGA1051+999999049MW1051
0090726766999991945040321004+44567-112317SAO  +2068MOM  V0201801N004110180019N1600001N1-00311-01151102641ADDGA1021+010509089GA2051+999999049MD1710141+9999MW1001EQDQ01+000022APCTENQ02+000002APC3  
0039035963999991945022020004+52133+001433SAO  +0026EGVJ V0202931N001512200019N0040001N1+00631+00411103831ADDGA1021+007509059MD1210161+9999MW1051
0009812250999991945093023004+05450-055200SAO  +0015SMZY V0200231N001512200019N0192001N1+02741+02181101151ADDMW1001
0165999999149331945031005005+41533-093650SAO  +0286DSM  V02029359003652200059N160000599+00175-00175102475ADDGF100995999999999999999999MA1999999098885EQDN01 00000JPWTH 1QNNG11U1 99999K11 1 00029L11N1 99999M11 1 29200N11 1 00000Q11 1 10247S11 1 00035V11 1 00099W11 1 78007
0041749246999991945050507004+26800+092617SAO  +009899999V0200901N004610360019N0112001N1+02571+02071100611ADDGA1021+012009059GA2041+999999039MW1001
0055710691999991945071522004+55350-114983SAO  +058499999V0203151N005110360019N1600001N1+01631+00741100981ADDGA1021+015009059GA2041+999999039MD1810021+9999MW1001
0039911681999991945012821004+21583-158200SAO  +000599999V0202481N006712200019N1600001N1+02521+01851101491ADDGA1021+009009089MD1210061+9999MW1001
0039719130999991945070212004+58750-094067SAO  +0029CYYQ V0202481N003112200019N0320001N1+01241+00801100781ADDGA1021+021009039MD1710101+9999MW1001
0039722485139441945102903004+32500-093683SAO  +0053BAD  V0201401N003112200019N0160001N9+01801+01461102271ADDGA1001+999999999MD1010061+9999MW1001
0025918000999991945101604004-09017-158067SAO  +0002NCPY V0201131N001012200019N1600001N1+02681+02241100951ADDGA1021+024009039MW1001
0346999999147801945063012005+40033-074317SAO  +003799999V02029359003652200049N004800599+02835+02445101405ADDGA1999+999999034GA2999+999999024GA3999+999999999GA4999+999999999GD19025+9999999GD29065+9999999GD39005+9999999GD49005+9999999MA1999999100955MW1455EQDN01 07000JPWTH 1QNNE11 1 09902E11 1 09907E11 1 09900E11 1 09900G11U1 99999H11U1 23999H11U1 37999H11 1 00999H11 1 00999K11 1 00076L11 1 00300M11 1 29810N11 1 07000Q11 1 10140S11 1 00083W11 1 78007
0041785140999991945042201004+18500-067133SAO  +0075TJBQ V0200681N007210210019N1600001N1+02461+02071101761ADDGA1021+005409089GA2061+999999039MW1001
0051724467139301945092203004+38767-093550SAO  +0265SZL  V0201401N011810036019N0096001N9+01911+01741101521ADDGA1081+999999059MD1510081+9999MW1171MW2801MW3951
0025749224999991945082901004+64867-161100SAO  +0013KKA  V0202251N012310036019N0192001N1+00961+00801100581ADDGA1081+999999079MW1511
0025749322999991945040711004+25417+100733SAO  +196799999V0202481N004610180019N1600001N1+01801+00801100441ADDGA1061+999999059MW1001
0058071490999991945062212004+48733+002400SAO  +0096LFPO V0209991C000012200019N1600001N1+02571+99999102121ADDGA1031+009009089MD1310061+9999MW1001EQDQ01+029843ATOD  
0033911820225211945072509004+21333-157950SAO  +0004PHNL V0209991C000012200019N1600001N9+02411+02181101661ADDGA1021+012009059MD1210141+9999
0057787930999991945092219004+08400-082417SAO  +0026MPDA V0201801N002110420019N0480001N1+03021+02301100881ADDGA1041+004509059GA2031+999999049GA3011+999999029MW1001
0041825990999991945032412004-05917-035250SAO  +0049SBNT V0201131N004110270019N1600001N1+02801+02351101191ADDGA1021+006009059GA2061+999999049MW1001
0041569640999991945081213004+22767+100983SAO  +130399999V0209991C000010360019N1600001N1+02071+01911100241ADDGA1021+009009059GA2051+999999049MW1001
0039749091999991945122415004+30667-096550SAO  +0084CFD  V0202251N004110018019N0048001N1+01851+01801100751ADDGA1081+999999079MD1210161+9999MW1451
0023722800231951945031906004+32650-114600SAO  +0063YUM  V0203381N004612200019N1600001N1+01741-00591102101ADDMD1210161+9999MW1001
0058749302999991945010703004+41100+015933SAO  +022699999V0201581N004610120019N1600001N1+00411+00131100201ADDGA1061+999999059MD1410001+9999MW1001EQDQ01+000022APCTEN
0041749423999991945051003004-09067+159233SAO  +001899999V0209991C000010060019N1600001N1+02851+02521100641ADDGA1061+999999059GA2021+999999049MW1001
0039724467139301945081115004+38767-093550SAO  +0265SZL  V0202001N005710105019N0112001N9+02631+01961101221ADDGA1061+999999089MD1710021+9999MW1001
0025619010999991945052701004-15967-005700SAO  +043699999V0201581N005710054019N1600001N1+01521+01301101641ADDGA1081+999999059MW1001
0039702220999991945071809004+64733-156933SAO  +0049GAL  V0201581N001510240019N0320001N1+01571+01021100781ADDGA1081+999999039MD1110021+9999MW1001
0025722880231521945050708004+34200-118350SAO  +0236BUR  V0209991C000012200019N1600001N1+01131+01021101591ADDGA1021+004509079MW1001
0025724296138411945122314004+39433-083800SAO  +0327ILN  V0200681N007212200019N0024001N1-01091-01481103421ADDGA1041+999999009MW1051
0029719576999991945090100004+64900-125500FM-12+009199999V02099999999999999999N0500001N9+01111+00941101831ADDGF107991051999008001999999
004594294599999194510210200N-19250+146770AUST +0006YBTL V0200905N006259999999N999999999+02835+99999999999ADDGA1025+009005999GF103995024999009005999999
0009624050999991945080702004+25700+032700SAO  +0088HELX V0203381N001512200019N1600001N1+02851+01131100641ADDMW1001
0041749036999991945041313004+09517-084333SAO  +0006MRPR V0200451N001512200019N1600001N1+02851+02301999999ADDGA1021+012009089GA2021+999999009MW1001
0025722860231191945100805004+33900-117250SAO  +0466RIV  V0203201N003612200019N0160001N9+01721+01221100951ADDGA1001+999999999MW1001
0134999999137751945051016005+38983-074917SAO  +001799999V02015859009850213449N008000599+01445+00945100925ADDMA1999999100715MW1615EQDN01 02000JPWTH 1QNNG11 1 00070K11 1 00049L11 1 00500M11 1 29740N11 1 02000Q11 1 10092S11 1 00058W11 1 54019
0314999999225151945061608005+21333-158050SAO  +002099999V02004559001052200049N024000599+02395+02005101455ADDGA1999+999999084GA2999+999999034GA3999+999999999GA4999+999999999GD19015+9999999GD29035+9999999GD39005+9999999GD49005+9999999EQDN01 00000JPWTH 1QNNE11 1 09901E11 1 09904E11 1 09900E11 1 09900G11U1 99999H11 1 11999H11 1 23999H11 1 00999H11 1 00999K11 1 00068L11 1 01500N11 1 00000Q11 1 10145S11 1 00075W11 1 22002
0340999999139991945042116005+35367-099183SAO  +058599999V02013559001052200049N011200599+01945+01675101765ADDGA1999+999999024GA2999+999999999GA3999+999999999GA4999+999999999GD19065+9999999GD29005+9999999GD39005+9999999GD49005+9999999MA1999999095065EQDN01 00000JPWTH 1QNNE11 1 09908E11 1 09900E11 1 09900E11 1 09900G11U1 99999H11 1 37999H11 1 00999H11 1 00999H11 1 00999K11 1 00062L11 1 00700M11 1 28070N11 1 00000Q11 1 10176S11 1 00067W11 1 44002
0009722640930351945081911004+30367-104017SAO  +1481MRF  V0200901N001512200019N0480001N1+01851+01021101081ADDMW1001
0039725396148151945021903004+42300-085250SAO  +0290BTL  V0202931N003110075019N0128001N1-00981-01201103451ADDGA1081+999999059MD1210101+9999MW1851
0165999999137531945102120005+39450-074583SAO  +002099999V02015859005752200059N011200599+01895+01225101855ADDGF100995999999999999999999MA1999999101525EQDN01 00000JPWTH 1QNNG11U1 99999K11 1 00054L11 1 00700M11 1 29980N11 1 00000Q11 1 10185S11 1 00066V11 1 00099W11 1 54011
0128999999931041945123103005+35683-117683SAO  +068199999V02022559002152200049N048000599+00834+00565102394ADDMA1999999094344EQDN01 00000JPWTH 1QNNG11U1 99999K11 1 00042L11 1 03000M11 1 27860N11 1 00000Q11 1 10239S11 1 00047W11 1 66004
0057749307999991945010222004+06900+134150SAO  +000699999V0200231N004112200019N1600001N1+02801+02411100751ADDGA1011+006009089GA2011+999999039GA3011+999999029MW1001
0050702710264251945111201004+62150-145450SAO  +0481GKN  V0200231N001012200019N0240001N1-01761-02261100951ADDGF100991999999999999999999MA1999999094851MW1001
0025424750999991945082900004+25450+081733SAO  +0098VIAL V0209991C000010360019N1600001N1+02681+02631100041ADDGA1061+999999039MW1001
0117429700999991945032203004+20483+085867FM-12+002699999V0209991C00001220001CN0040001N9+02391+02111101471ADDAY141999GA1999+000159999GA2999+000159999GF100991001001999999001001KA1999N+02221EQDQ01    003SCCGA1Q02    003SCCGA2
0041814050999991945041600004+04833-052367SAO  +0009SOCA V0209991C000010060019N1600001N1+02461+02351101221ADDGA1061+999999089GA2021+999999049MW1001
0031749205999991945092606004+52217-174200SAO  +0011ATK  V0201581N008710027019N0024001N1+00911+00801100411ADDGA1081+999999079MW1451MW2611
0025747900138491945122505004+33967-080483SAO  +0072SSC  V0200501N004110051019N0112001N9+00301-00091102171ADDGA1081+999999059MW1511
0025085150999991945051207004+36967-025167SAO  +0100LPAZ V0203381N006210150019N0320001N1+01571+01131101861ADDGA1061+007509059MW1001
0025749074999991945010510004+38933-085917SAO  +0176SER  V0201801N001512200019N0064001N1-00591-00921102711ADDGA1011+012009059MW1051
0041749198999991945081920004+59767-134983SAO  +088499999V0201351N007210090019N0400001N1+00741+00241999999ADDGA1061+999999059GA2011+999999039MW1001
0025725510149391945081702004+40850-096750SAO  +0362LNK  V0209991C000010330019N0240001N1+02521+02301100951ADDGA1051+999999049MW1001
0057747910137171945082416004+33683-078933SAO  +0008MYR  V0201601N007212200019N0240001N9+02851+02351101591ADDGA1021+006609089GA2011+999999039GA3031+999999009MW1001
0340999999938411945083008005+99999+999999SAO  +999999999V02002359003152200049N012800599+02224+02005101894ADDGA1999+999999999GA2999+999999999GA3999+999999999GA4999+999999999GD19005+9999999GD29005+9999999GD39005+9999999GD49005+9999999MA1999999101254EQDN01 00000JPWTH 1QNNE11 1 09900E11 1 09900E11 1 09900E11 1 09900G11U1 99999H11 1 00999H11 1 00999H11 1 00999H11 1 00999K11 1 00068L11 1 00800M11 1 29900N11 1 00000Q11 1 10189S11 1 00072W11 1 12006
005194821099999194502222300N-37750+140780AUST +0069YMMG V0201805N004659999999N999999999+01445+99999999999ADDGA1085+000905999GF108995084999000905999999MW1515
0025747880128101945011605004+27850-082500SAO  +0003KMCF V0202501N003612200019N0128001N9+01571+01411101521ADDGA1021+015009059MW1001
0025724550139471945120820004+39050-096767SAO  +0324FRI  V0202501N001512200019N0160001N9+01191-00481101021ADDGA1001+999999999MW1001
0087999999241551945050203005+45683-118850SAO  +0455PDT  V02002359005252200049N999999999+02005+00505101865ADDMA1999999096515QNNG11U1 99999K11 1 00041M11 1 28500Q11 1 10186S11 1 00068W11 1 12010
0025749321999991945010111004+25500+103083SAO  +195599999V0202251N005712200019N1600001N1+01691+00411100781ADDGA1011+999999039MW1001
0025724517999991945092211004+38350-098867SAO  +0576GBD  V0201801N008712200019N0240001N1+01961+01801100611ADDGA1011+999999039MW1001
0055043390999991945022612004+70483-021967SAO  +0066BGSC V0203601N003112200019N0480001N1-01421-02421098411ADDGA1021+024009049GA2051+999999029MD1210141+9999MW1001
0041787930999991945070713004+08400-082417SAO  +0026MPDA V0209991C000012200019N1600001N1+02741+02351101121ADDGA1021+007509089GA2021+999999029MW1001
0025042700999991945090822004+61183-045417SAO  +0026BGBW V0200451N008212200019N0480001N1+00581-00811101021ADDGA1021+999999029MW1001
0055722346999991945100221004+31667-089167SAO  +0073LUL  V0203381N005112200019N0192001N1+02851+02181101931ADDGA1021+009009059GA2061+999999009MD1610161+9999MW1001
0041820990999991945033009004+00033-051050SAO  +0015SBMQ V0209991C000010036019N0064001N1+02351+02351100981ADDGA1061+999999059GA2021+999999049MW1611
0039749094999991945082212004+38700-096817SAO  +0455HRU  V0203601N004610330019N0240001N1+01571+01301102241ADDGA1081+999999049MD1310021+9999MW1001
0055702615999991945062412004+64833-147600SAO  +0140PAFB V0200701N002110240019N1600001N9+00911+00411101151ADDGA1001+999999999GA2061+999999049MD1210141+9999MW1001
0041619020999991945052608004-07967-014400SAO  +0086FHAW V0201101N010810135019N1600001N9+02571+02021101321ADDGA1061+007509059GA2011+999999029MW1001
0041724640930581945050705004+38300-104483SAO  +1416PUB  V0203601N008212200019N1600001N9+01301+00911100951ADDGA1011+012009059GA2031+999999049MW1001
0025943740999991945032121004-23383+150467SAO  +0014ABRK V0201801N001512200019N1600001N1+02301+01571101391ADDGA1011+007509089MW1001
0057719530999991945031222004+60117-128817SAO  +0690CYQH V0201131N002612200019N0480001N1+00131-00651099991ADDGA1041+013509089GA2021+999999049GA3021+999999029MW1001
0025825990999991945072403004-05917-035250SAO  +0049SBNT V0202031N003610069019N0096001N1+02021+02021101521ADDGA1081+001809079MW1611
0025704540257041945101420004+51883-176650SAO  +0005PADK V0209991C000010105019N0320001N9+00301+00081102031ADDGA1061+999999059MW1001
0039749091999991945042206004+30667-096550SAO  +0084CFD  V0209991C000010036019N0064001N1+01851+01741101021ADDGA1081+999999079MD1810041+9999MW1451
0025749399999991945082703004-01067-047617SAO  +005799999V0209991C000012200019N0144001N1+02301+02241101391ADDGA1011+006009099MW1001
0015749121999991945111622004+56233-064733SAO  +0311CYIH V0202931N012910024019N0012001N1-00981-01371098651ADDMW1381MW2711
0023740030999991945082800004+40200-112933SAO  +1326DPG  V0203601N001512200019N0960001N9+02961-00091101051ADDMD1710121+9999MW1001
0025749392999991945020215004+51983+177550SAO  +009199999V0202481N005110060019N0320001N1+00131-00261101021ADDGA1081+999999059MW1001
0031724690230621945092713004+39750-104867SAO  +1625DEN  V0203601N005110015019N0032001N1+00691+00631101901ADDGA1081+999999059MW1451MW2511
0009726510149441945053014004+43583-096733SAO  +0435FSD  V0202031N006212200019N1600001N1+01631+00961101461ADDMW1001
0041071490999991945032516004+48733+002400SAO  +0096LFPO V0200451N005110240019N0128001N1+01191+00851101021ADDGA1031+012009059GA2051+999999049MW1001
0041724089137811945060722004+39683-075600SAO  +0024ILG  V0202931N002110600019N1600001N1+02301+00911101901ADDGA1011+012009089GA2041+999999029MW1001
0039702720999991945111715004+61233-149867SAO  +0055PAED V0200901N002112200019N0240001N9-01421-03371099291ADDGA1031+018009059MD1510021+9999MW1001
0039614210999991945020820004+20517-013067SAO  +0224GQPA V0200681N003110510019N0144001N1+02301-00481101761ADDGA1061+999999039MD1210161+9999MW1001
0025749191999991945061313004+56700-121750SAO  +090599999V0200231N005110030019N0240001N1+00741+00631101351ADDGA1081+999999059MW1001
0123417120999991945071303004+28900+064433FM-12+084999999V0209991C00001220001CN0020001N9+02781+01501098851ADDAY101999GA1999+000159999GA2999+000159999GF100991001001999999001001KA1999N+02391MW1051EQDQ01    003SCCGA1Q02    003SCCGA2
0171725190147711945051600003+43067-076267SAO  +0123SYR  V02024859005250027449N0096005N9+00895+00675101395ADDGF108995999999999999999999MA1999999099865MW1055EQDN01 08100JPWTH 1QNNG11 1 00009K11 1 00044L11 1 00600M11 1 29490N11 1 08100Q11 1 10139S11 1 00048V11 1 01099W11 1 76010
0057031350999991945121300004+55517-004600FM-12+000999999V0203201N007219999999N0160001N9+00891+00671102001ADDAY121999GF106991021051008001071001MD1710221+9999MW1001
0039911681999991945031018004+21583-158200SAO  +000599999V0200901N002612200019N1600001N1+02071+01741101961ADDGA1021+009009089MD1210121+9999MW1001
0055917000999991945080821004-02767-171717SAO  +0003PCIS V0200901N006712200019N1600001N1+02961+02351101151ADDGA1021+006009089GA2061+999999029MD1210141+9999MW1001
0025726766999991945031916004+44567-112317SAO  +2068MOM  V0201581N010812200019N1600001N1-00871-01031103321ADDGA1021+009009059MW1001
0340999999931021945083012005+39417-118717SAO  +120099999V02020359002652200049N064000599+00894+00445101354ADDGA1999+999999999GA2999+999999999GA3999+999999999GA4999+999999999GD19005+9999999GD29005+9999999GD39005+9999999GD49005+9999999MA1999999088114EQDN01 00000JPWTH 1QNNE11 1 09900E11 1 09900E11 1 09900E11 1 09900G11U1 99999H11 1 00999H11 1 00999H11 1 00999H11 1 00999K11 1 00040L11 1 04000M11 1 26020N11 1 00000Q11 1 10135S11 1 00048W11 1 56005
0017411960999991945060208004+25350+055383SAO  +0002OMSJ V0201101N003112200019N1600001N9+02521+01131100201ADDMD1610041+9999
0133428670999991945030712004+21150+079117FM-12+031299999V0200701N00101220001CN0200001N9+03171+00281101141ADDAY111999GA1999+000159999GA2999+000159999GF102991999001999999011001KA1999M+03281EQDQ01+000002SCOTLCQ02    003SCCGA1Q03    003SCCGA2
0041703160256241945072811004+55200-162717SAO  +0031CDB  V0201581N011310360019N0240001N1+00961+00911101761ADDGA1021+003009079GA2031+999999039MW1001
0025744910147031945102504004+42200-072533SAO  +0075CEF  V0201101N004610054019N0096001N9+00691+00351101831ADDGA1081+999999079MW1511
0271999999137531945041110005+39450-074583SAO  +002099999V02002359004150000049N000200599+00895+00895102915ADDGA1999+000004104GD19085+9999999GD29999+9999999GD39999+9999999GD49999+9999999MA1999999102545MW1455MW2515EQDN01 03370JPWTH 1QNNE11 1 09910E11 1 09999E11 1 09999E11 1 09999G11 1 00000H11 1 45000K11 1 00048L11 1 00012M11 1 30280N11 1 03370Q11 1 10291S11 1 00048W11 1 12008
0117432450999991945040303004+14450+079983FM-12+002099999V0203401N001019999999N0200001N9+02721+02501100601ADDAY121999GA1999+000159999GA2999+000159999GF106991011071022501071081KA1999N+02671EQDQ01    003SCCGA1Q02    003SCCGA2
0041781090999991945100116004+22367-072967SAO  +0003MYMM V0200901N006212200019N1600001N1+03071+02301101831ADDGA1041+006009089GA2041+999999029MW1001
0041788071999991945110504004+08967-079550SAO  +0012MBLB V0200451N001510450019N0192001N1+02461+02411101151ADDGA1041+007509059GA2041+999999049MW1001
004594612099999194511111900N-31680+116020AUST +0046YPEA V0200455N005759999999N999999999+01725+99999999999ADDGA1085+010505999GF108995084999010505999999
0071916100999991945081909004+01350+172917SAO  +0004NGTA V0201351N006712200019N1600001N1+02741+02411100851ADDGA1031+006009089GA2011+999999039GA3011+999999029MD1210201+9999MW1001
0044719465999991945042818004+63217-123433FM-12+015699999V0203201N004619999999N0100001N9-00721-01171999999ADDGF108991081999008001999999MA1999999100611
0171722080138801945100705003+32900-080033SAO  +0014CHS  V02029359001550061049N0128005N1+01895+01835101125ADDGF106995999999999999999999MA1101081100915MW1001EQDN01 00000JPWTH 1QNNG11 1 00020K11 1 00065L11 1 00800M11 1 29800N11 1 00000Q11 1 10112S11 1 00066V11 1 00899W11 1 78003
0057031350999991945041402004+55517-004600FM-12+000999999V0201101N00461015001CN0032001N9+01001+00671101381ADDAY141999GF105991051061017501001001MD1990141+9999MW1051
0041479810999991945081105004+24783+141317SAO  +0114RJAW V0203601N006212200019N1600001N1+03181+02461100781ADDGA1021+004509089GA2011+999999049MW1001
0041911690999991945082410004+21683-158033SAO  +001099999V0200901N008710240019N1600001N1+02571+02181101801ADDGA1031+009009089GA2031+999999039MW1001
0039747910137171945031715004+33683-078933SAO  +0008MYR  V0202701N003612200019N1600001N9+02741+01851102241ADDGA1011+999999039MD1810041+9999MW1001
0340999999149481945082703005+41100-092433SAO  +025899999V02018059007252200049N016000599+02175+01115101565ADDGA1999+999999999GA2999+999999999GA3999+999999999GA4999+999999999GD19005+9999999GD29005+9999999GD39005+9999999GD49005+9999999MA1999999098515EQDN01 00000JPWTH 1QNNE11 1 09900E11 1 09900E11 1 09900E11 1 09900G11U1 99999H11 1 00999H11 1 00999H11 1 00999H11 1 00999K11 1 00052L11 1 01000M11 1 29090N11 1 00000Q11 1 10156S11 1 00071W11 1 55014
0061702000266171945040103001+64500-165433SAO  +0007OME  V0202701N013410024019N0002001N1-01481-01701102301ADDGA1061+999999079GA2021+999999039MD1210581+9999MW1381MW2711
0025820300999991945080400004+02067-050850SAO  +0010SBAM V0209991C000012200019N0160001N1+02241+02181101421ADDGA1021+006009059MW1001
0039749159999991945031515004+35533-100750SAO  +0955PPA  V0202701N010312200019N1600001N1+01191+00581099971ADDGA1021+999999009MD1110141+9999MW1001
0030724060937211945052615004+39250-076667SAO  +0047BWI  V0201131N007210045019N0064001N1+01691+01521102171ADDMA1999999102101MW1041MW2611
0233999999149481945040418005+41100-092433SAO  +025899999V02029359011350067149N160000599+00065-00225101325ADDGA1999+006714064GD19085+9999999GD29999+9999999GD39999+9999999MA1999999098175EQDN01 00000JPWTH 1QNNE11 1 09910E11 1 09999E11 1 09999G11 1 00022H11 1 15022K11 1 00028L11N1 99999M11 1 28990N11 1 00000Q11 1 10132S11 1 00033W11 1 78022
0233999999242551945122205005+99999+999999SAO  +999999999V02004559002650061049N016000599+00445+00395099805ADDGA1999+006104064GD19085+9999999GD29999+9999999GD39999+9999999MA1999999099735EQDN01 00000JPWTH 1QNNE11 1 09910E11 1 09999E11 1 09999G11 1 00020H11 1 15020K11 1 00039L11 1 01000M11 1 29450N11 1 00000Q11 1 09980S11 1 00040W11 1 22005
0055975800999991945050507004-01833+138717SAO  +0003WAJI V0202481N001010330019N1600001N1+02681+02351100641ADDGA1061+999999049GA2011+999999029MD1510041+9999MW1001
0025071490999991945030703004+48733+002400SAO  +0096LFPO V0202701N003610210019N0080001N1+00581+00461103021ADDGA1081+999999039MW1051
0025915920999991945110506004-22267+166450SAO  +0072NWWN V0201351N009310105019N0160001N1+02181+01521101521ADDGA1081+999999059MW1001
0041428081999991945071002004+22767+088367SAO  +000799999V0202031N001010036019N0096001N1+02911+02681099661ADDGA1061+999999059GA2021+999999039MW1051
0025043820999991945011710004+61933-042067SAO  +001399999V0203151N006710120019N0128001N1-00811-01481101151ADDGA1081+999999079MW1711
0340999999931241945111720005+34433-119850SAO  +000499999V02013559004652200049N048000599+01674+00835101974ADDGA1999+060964004GA2999+999999999GA3999+999999999GA4999+999999999GD19055+9999999GD29005+9999999GD39005+9999999GD49005+9999999MA1999999101934EQDN01 00000JPWTH 1QNNE11 1 09906E11 1 09900E11 1 09900E11 1 09900G11U1 99999H11 1 32200H11 1 00999H11 1 00999H11 1 00999K11 1 00047L11 1 03000M11 1 30100N11 1 00000Q11 1 10197S11 1 00062W11 1 44009
0039749193999991945080915004+58650-124650SAO  +128199999V0202481N005112200019N0240001N1+00961+00461101021ADDGA1061+999999029MD1210041+9999MW1001
0025747900138491945041314004+33967-080483SAO  +0072SSC  V0200901N001510021019N0112001N9+02021+01801102441ADDGA1081+999999079MW1001
0009076500999991945092801004+43450+005233SAO  +0036LFML V0203381N004612200019N1600001N1+01461+00961102221ADDMW1001
0025723550139451945020405004+34650-098383SAO  +0360FSI  V0202001N001512200019N0048001N9+00911+00851100981ADDGA1001+999999999MW1451
0025911700225081945102308004+21483-158050SAO  +0257PHHI V0209991C000012200019N1600001N9+02131+01801101561ADDGA1011+008409089MW1001
0025749316999991945020610004+15117+145700SAO  +003299999V0200681N003112200019N1600001N1+02631+02411100951ADDGA1021+004509089MW1001
0340999999116181945112523005+18467-066117SAO  +001399999V02009059001552200049N024000599+02565+01835101435ADDGA1999+009144084GA2999+999999999GA3999+999999999GA4999+999999999GD19025+9999999GD29005+9999999GD39005+9999999GD49005+9999999MA1999999101325EQDN01 00000JPWTH 1QNNE11 1 09903E11 1 09900E11 1 09900E11 1 09900G11U1 99999H11 1 11030H11 1 00999H11 1 00999H11 1 00999K11 1 00065L11 1 01500M11 1 29920N11 1 00000Q11 1 10143S11 1 00078W11 1 33003
0025749094999991945050713004+38700-096817SAO  +0455HRU  V0203381N009810090019N1600001N1+00851+00411100851ADDGA1081+999999079MW1001
0023606560999991945012504004+27667-008133SAO  +0431DAOF V0209991C000012200019N1600001N1+00241-01151102171ADDMD1710061+9999MW1001
0009724567139211945070205004+39367-094917SAO  +0238FLV  V0209991C000012200019N0144001N1+01411+01241102241ADDMW1001
0009419770999991945011306004+22350+091817SAO  +003499999V0203151N003112200019N0112001N1+02301+01571101591ADDMW1001
0023722118999991945042106004+27067-082450SAO  +0001X90  V0209991C000012200019N0128001N1+02071+01911101961ADDMD1810121+9999MW1001
0058719580999991945030113004+58417-130000SAO  +0816CYDL V0201131N001510210019N0240001N1-00371-00421102021ADDGA1081+999999039MD1110011+9999MW1001EQDQ01+000002APC3  
0009703980253081945012906004+55033-131567SAO  +0034ANN  V0209991C000012200019N0480001N1+00461+00021101861ADDMW1001
0025722675230211945081513004+33600-102250SAO  +1009REE  V0200501N002610330019N0240001N9+02021+01801101491ADDGA1061+999999039MW1001
0023749122999991945011103004+59367-097383SAO  +027199999V0203151N007212200019N0160001N1-03421+99999101801ADDMD1210021+9999MW1001
0009749074999991945042406004+38933-085917SAO  +0176SER  V0201351N001510001519N0000001N1+01461+01461100371ADDMW1451
0031725370948471945031907004+42233-083333SAO  +0202DTW  V0209991C000010018019N0048001N1+01021+00961101591ADDGA1081+999999059MW1051MW2611
0009749075999991945062401004+38767-087600SAO  +0131LMV  V0200681N001512200019N1600001N1+02681+01851101661ADDMW1001
0066703430254021945091503004+59433-146333SAO  +0014MDO  V0202701N017512200019N0480001N1+01071+00631100641ADDGA1999+004509999GF100991999999999999999999MA1999999100471MW1001
0314999999128511945052705005+99999+999999SAO  +999999999V02009059003152200049N019200599+02285+01615101845ADDGA1999+999999999GA2999+999999999GA3999+999999999GA4999+999999999GD19005+9999999GD29005+9999999GD39005+9999999GD49005+9999999EQDN01 00000JPWTH 1QNNE11 1 09900E11 1 09900E11 1 09900E11 1 09900G11U1 99999H11 1 00999H11 1 00999H11 1 00999H11 1 00999K11 1 00061L11 1 01200N11 1 00000Q11 1 10184S11 1 00073W11 1 33006
0039719530999991945110815004+60117-128817SAO  +0690CYQH V0209991C000010120019N0160001N1-01811-02201101891ADDGA1081+999999079MD1710081+9999MW1711
0029719360999991945072012004+62467-114450FM-12+020099999V0209991C000019999999N0500001N9+01001+00891101121ADDGF106991001999999999999999
0056910660227011945081117004+28200-177383SAO  +0007PMDY V0200681N005712200019N0192001N1+02571+02181102271ADDGA1021+999999089GA2011+999999029MA1999999102131MW1001
0065749006999991945022120004+52133+001100SAO  +005899999V0202031N004110450019N0010001N1+00521+00191103711ADDGA1081+045009999GF108991999999999999999999MD1710101+9999MW1451
0023650820999991945020409004+11850+013083SAO  +0354DNMA V0200451N005112200019N0012001N1+01961+00191101631ADDMD1110061+9999MW1051
0340999999129251945072709005+28367-097667SAO  +006299999V02018059005252200049N019200599+02505+02335101185ADDGA1999+999999004GA2999+999999999GA3999+999999999GA4999+999999999GD19055+9999999GD29005+9999999GD39005+9999999GD49005+9999999MA1999999100985EQDN01 00000JPWTH 1QNNE11 1 09906E11 1 09900E11 1 09900E11 1 09900G11U1 99999H11 1 32999H11 1 00999H11 1 00999H11 1 00999K11 1 00074L11 1 01200M11 1 29820N11 1 00000Q11 1 10118S11 1 00077W11 1 55010
0055724516999991945041720004+37050-100967SAO  +0880LBL  V0201801N002112200019N1600001N1+01691-00091101521ADDGA1041+009009089GA2021+999999009MD1710161+9999MW1001
0055781180127141945013115004+21483-071150SAO  +0004MBSC V0200681N003612200019N1600001N1+02571+02021101961ADDGA1031+006009059GA2021+999999009MD1110061+9999MW1001
0372701740265331945110402003+66917-151517SAO  +0196BTT  V02015859001552200059N0640005N1-02895-03005999999ADDGA1999+999999999GA2999+999999999GA3999+999999999GA4999+999999999GD19005+9999999GD29005+9999999GD39005+9999999GD49005+9999999GF100995999999999999999999MA1999999100105MW1001EQDN01 00000JPWTH 1QNNE11 1 09900E11 1 09900E11 1 09900E11 1 09900G11U1 99999H11 1 00999H11 1 00999H11 1 00999H11 1 00999K11 1-00022L11 1 04000M11 1 29560N11 1 00000S11 1-00020V11 1 00099W11 1 54003
0025724467139301945100302004+38767-093550SAO  +0265SZL  V0200201N002112200019N0160001N9+01301+00691102741ADDGA1061+999999029MW1001
0074722266138501945030500004+32350-086983SAO  +0054SEM  V0203381N002110330019N1600001N1+02301+01961101661ADDGA1021+012009089GA2061+999999049MD1410001+9999MW1001EQDQ01+000022APCTEN
0009722533129621945062623004+29333-099167SAO  +0280HDO  V0201131N008212200019N1600001N1+03461+01961100751ADDMW1001
0025702720999991945020205004+61233-149867SAO  +0055PAED V0200501N000512200019N0096001N9-00531-00761100641ADDGA1001+999999999MW1111
0009749243999991945030918004+23717+087283SAO  +008799999V0202481N001012200019N0112001N1+01911+00131101421ADDMW1001
0213999999931061945062612005+33800-118117SAO  +001799999V02009059001550036649N006400599+01334+01225101324ADDGA1999+999999064GD19085+9999999GD29999+9999999GD39999+9999999MW1055EQDN01 08100JPWTH 1QNNE11 1 09910E11 1 09999E11 1 09999G11 1 00012H11 1 15999K11 1 00054L11 1 00400N11 1 08100Q11 1 10132S11 1 00056W11 1 33003
0104852230999991945011012004-17383-066167FM-12+257199999V0203201N00101012301CN0200001N9+01561+01061999999ADDAA199001091AY151999GF108991061051012501021001MA1999999095521MW1031EQDQ01+000042APCTENQ02+000162APC3  
004594637099999194507250100N-30780+121470AUST +0360YPKG V0202705N003659999999N999999999+00815+99999999999ADDGA1015+004505999GF101995014999004505999999
0071749127999991945053009004+65933-036683SAO  +0057BIAK V0209991C000010060019N0480001N1+00241-00041102031ADDGA1051+999999079GA2011+999999039GA3021+999999029MD1810141+9999MW1001
004594646099999194502270700N-30830+128100AUST +0160YPFT V0201135N004659999999N999999999+03055+99999999999ADDGA1005+999999999GF100995004999999999999999
0071718150999991945050400004+48550-058550SAO  +0013CYJT V0203381N001012200019N0240001N1-00041-00261102361ADDGA1011+007509059GA2011+999999039GA3021+999999009MD1210161+9999MW1001
003672221013858194503271000D+30483-086517SAO  +0025VPS  V0209991C000012200019N0012001N9+01191+01131101591ADDAA101000095GA1001+999999999MW1111
0041749330999991945120522004+26333+127783SAO  +007599999V0200451N005110360019N0160001N1+01851+01571102031ADDGA1021+006009059GA2051+999999049MW1001
0023722687930331945050303004+32333-104267SAO  +1004CNM  V0200681N012312200019N0064001N1+01851+00851101051ADDMD1710401+9999MW1061
0025719640999991945011901004+60717-135067SAO  +0703CYXY V0202251N013410240019N0240001N1-01811-02091102261ADDGA1081+999999049MW1001
0041723119138861945060223004+34850-082350SAO  +0319GMU  V0202481N005110120019N0080001N1+02131+01961100881ADDGA1061+999999059GA2021+999999049MW1051
0039724096147061945080909004+40033-074600SAO  +0038WRI  V0209991C000012200019N0048001N9+01691+01691101901ADDGA1021+999999039MD1710021+9999MW1111
0057749097999991945032920004+37167-097033SAO  +0350WLD  V0203601N008710180019N1600001N1+01741+01071101661ADDGA1031+006009059GA2021+999999039GA3021+999999029MW1001
0009426180999991945012808004+24317+092000SAO  +0030VEKR V0203151N001012200019N0128001N1+02681+00801101221ADDMW1001
0009722170038131945012311004+32700-083650SAO  +0111MCN  V0203151N003612200019N0112001N1+00411-00091101761ADDMW1001
0039723601230071945052612004+34433-100300SAO  +0595CDS  V0202251N002612200019N1600001N1+01961+01461100951ADDGA1061+999999009MD1210141+9999MW1001
0041725080147401945091514004+41933-072683SAO  +0055BDL  V0202031N008710270019N0160001N1+02681+02071101321ADDGA1041+004209059GA2031+999999039MW1001
0057749403999991945021317004-00500+132083SAO  +000099999V0209991C000012200019N1600001N1+02461+02301100541ADDGA1021+012009059GA2021+999999049GA3041+999999029MW1001
0039749160999991945020609004+31400-103517SAO  +0095PEQ  V0201581N001512200019N1600001N1+00301-00151101521ADDGA1021+999999049MD1710201+9999MW1001
0025434670999991945022517004+06817+079883SAO  +0005VCCC V0209991C000012200019N0128001N1+02631+02351101221ADDGA1031+999999039MW1001
0039723825231311945111306004+34600-117367SAO  +0875VCV  V0202701N007212200019N0400001N9+00911+00241101761ADDGA1031+999999039MD1210081+9999MW1001
0025725755241011945080814004+41117-111967SAO  +1459HIF  V0200901N002612200019N0320001N9+02021+01191101691ADDGA1031+999999039MW1001
0039917000999991945100206004-02767-171717SAO  +0003PCIS V0200901N006212200019N1600001N1+02801+02181100981ADDGA1021+006009089MD1310061+9999MW1001
0073035530999991945012810004+52500-000583FM-12+010199999V0203601N00671220001CN0040001N9-00061-00221102171ADDAY181999GA1001+999999999GF107991071021008001999999MD1310341+9999MW1261
0055722175138601945070806004+32633-083600SAO  +0090WRB  V0200201N003610360019N0128001N9+02461+02021101691ADDGA1021+010509059GA2061+999999039MD1410001+9999MW1001
0055749307999991945032220004+06900+134150SAO  +000699999V0200231N006710420019N1600001N1+02741+02411100751ADDGA1021+006009089GA2021+999999049MD1310041+9999MW1001
0102035460999991945050719004+52450+001150FM-12+005499999V0201401N00261220001CN0100001N9+01561+01171101651ADDAY121999GA1021+004509049GF106991999001999999031081MD1810021+9999EQDQ01+000002SCOTLCQ02+000992SCOLCB
0025161580999991945042105004+43683+010383SAO  +0001LIRP V0201131N001510054019N0048001N1+01351+01191101551ADDGA1081+999999059MW1451
0015749224999991945030707004+64867-161100SAO  +0013KKA  V0203601N010810036019N0048001N1-01761-02031100471ADDMW1381MW2711
0042749537999991945032017004+43400+010400SAO  +000099999V0209991C000012200019N1600001N1+01241+00911103121ADDMD1410001+9999MW1001EQDQ01+000032APCTEN
0320999999232421945021202005+37683-121700SAO  +019799999V02020359005752200049N004800599+01175+01065101855ADDGA1999+006104074GA2999+999999004GA3999+999999999GA4999+999999999GD19025+9999999GD29025+9999999GD39005+9999999GD49005+9999999MW1055EQDN01 08100JPWTH 1QNNE11 1 09902E11 1 09902E11 1 09900E11 1 09900G11U1 99999H11 1 16020H11 1 32999H11 1 00999H11 1 00999K11 1 00051L11 1 00300N11 1 08100Q11 1 10185S11 1 00053W11 1 56011
0346783670117061945062520003+19900-075150SAO  +0016MUGM V02020359006252200049N1600005N9+03065+02175101345ADDGA1001+999999999GA2999+999999999GA3999+999999999GA4999+999999999GD19005+9999999GD29005+9999999GD39005+9999999GD49005+9999999MA1999999100955MW1001EQDN01 00000JPWTH 1QNNE11 1 09900E11 1 09900E11 1 09900E11 1 09900G11U1 99999H11 1 00999H11 1 00999H11 1 00999H11 1 00999K11 1 00071L11N1 99999M11 1 29810N11 1 00000Q11 1 10134S11 1 00087W11 1 56012
0023749511999991945082512004+43767+011250SAO  +006799999V0200451N004112200019N1600001N1+03241+01351101861ADDMD1710101+9999MW1001
0041749205999991945072121004+52217-174200SAO  +0011ATK  V0200901N002610036019N0064001N1+00961+00911102131ADDGA1061+999999079GA2021+999999039MW1451
0023724920232371945101921004+37900-121250SAO  +0008SCK  V0202931N002612200019N0080001N1+02351+01521101861ADDMD1810201+9999MW1051
0041567780999991945010601004+25017+102683SAO  +1892ZPPP V0200451N001512200019N1600001N1+00411+00191101571ADDGA1031+024009049GA2021+999999009MW1001
0314999999931151945050917005+32567-117117SAO  +000999999V02029359004650091449N024000599+01724+01285101944ADDGA1999+009144064GA2999+999999999GA3999+999999999GA4999+999999999GD19075+9999999GD29005+9999999GD39005+9999999GD49005+9999999EQDN01 00000JPWTH 1QNNE11 1 09909E11 1 09900E11 1 09900E11 1 09900G11 1 00030H11 1 15030H11 1 00999H11 1 00999H11 1 00999K11 1 00055L11 1 01500N11 1 00000Q11 1 10194S11 1 00063W11 1 78009
0025749161999991945020210004+31517-103133SAO  +079848F  V0201131N001012200019N0112001N1+00581+00461101761ADDGA1061+999999029MW1001
0041986370999991945080805004+10700+122567SAO  +0008RPVI V0202251N002110360019N1600001N1+03021+02301100811ADDGA1031+007509089GA2051+999999049MW1001
0134723530139671945051315003+35400-097600SAO  +0390OKC  V02015859005752200049N0128005N1+02115+01945100615ADDMA1999999096075MW1001EQDN01 00000JPWTH 1QNNG11U1 99999K11 1 00067L11 1 00800M11 1 28370N11 1 00000Q11 1 10061S11 1 00070W11 1 54011
0303722265138211945040301003+32383-086350SAO  +0053MXF  V02099999000052200019N1600005N9+02335+01725101295ADDGA1001+999999999GA2999+999999999GA3999+999999999GD19005+9999999GD29005+9999999GD39005+9999999GD49999+9999999EQDN01 00900CCLHT 3N02 00000JPWTH 1QNNE11 1 09900E11 1 09900E11 1 09900E11 1 09999G11 3 00900H11U1 00999H11 1 00999H11 1 00999K11 1 00063L11N1 99999N11 1 00000Q11 1 10129S11 1 00074W11 1 00000
0025601410999991945071504004+33900-004983SAO  +0579GMFF V0203151N001510105019N1600001N1+01571+01301101731ADDGA1081+999999059MW1001
0071988360999991945060907004+06900+122067SAO  +0006RPMZ V0202251N001510420019N1600001N1+02961+02461100641ADDGA1021+009009059GA2041+999999049GA3021+999999029MD1610201+9999MW1001
0128999999232721945062616005+37783-122417SAO  +003899999V02031559005252200049N160000599+01395+01115101495ADDMA1999999101425EQDN01 00000JPWTH 1QNNG11U1 99999K11 1 00052L11N1 99999M11 1 29950N11 1 00000Q11 1 10149S11 1 00057W11 1 88010
0055702220999991945092021004+64733-156933SAO  +0049GAL  V0201131N011310210019N0400001N1+00691+00241102001ADDGA1021+013509059GA2061+999999049MD1710141+9999MW1001
018299999913739194508211000E+39883-075233SAO  +000899999V02024859001552200059N004800599+01895+01785101905ADDAA101000095GF100995999999999999999999MA1999999101465MW1045EQDN01 08000JPWTH 1QNNG11U1 99999K11 1 00064L11 1 00300M11 1 29960N11 1 08000Q11 1 10190S11 1 00066V11 1 00099W11 1 76003
0025722250138291945090508004+32333-085000SAO  +0071LSF  V0200501N002110024019N0080001N9+02131+02021101121ADDGA1081+999999079MW1611
0065033910999991945012802004+53083-000167SAO  +0007EGXC V0203381N006710060019N0064001N1-00041-00151101481ADDGA1081+006009999GF108991999999999999999999MD1210181+9999MW1051
0025703160256241945060223004+55200-162717SAO  +0031CDB  V0201351N006210045019N0192001N1+00911+00691101021ADDGA1081+999999059MW1611
0260999999118011945062016005+12133-086200SAO  +0063MNMG V02099999000050335349N160000599+02945+02445101025ADDGA1999+012194084GA2999+999999034GD19045+9999999GD29025+9999999GD39999+9999999GD49999+9999999EQDN01 00000JPWTH 1QNNE11 1 09905E11 1 09902E11 1 09999E11 1 09999G11 1 00110H11 1 11040H11 1 23999K11 1 00076L11N1 99999N11 1 00000Q11 1 10102S11 1 00085W11 1 00000
0025785201999991945031601004+18017-066567SAO  +0009TJPS V0200681N001512200019N1600001N1+02301+01741101831ADDGA1061+999999029MW1001
0041719580999991945041511004+58417-130000SAO  +0816CYDL V0201581N002110240019N0128001N1-00201-00371102111ADDGA1031+006009079GA2051+999999049MW1711
0025825990999991945111702004-05917-035250SAO  +0049SBNT V0200901N003110060019N0192001N1+02521+02131101081ADDGA1051+999999089MW1001
0051703500255011945081321004+57750-152500SAO  +0034ADQ  V0201801N008210060019N0192001N1+01191+00851101311ADDGA1081+006009059GF108991999999999999999999MW1001
0029719491999991945010412004+70500-117633FM-12+000999999V0203201N003619999999N0200001N9-03331+99999102501ADDGF100991001001999999001001
0009749510999991945041120004+41000+015867SAO  +038999999V0201581N004112200019N1600001N1+01021+00411101951ADDMW1001
0039749123999991945060622004+54917-098633SAO  +0233CYWB V0201801N003610150019N0400001N1+02071+00191102741ADDGA1061+999999059MD1710141+9999MW1001
0023726766999991945060106004+44567-112317SAO  +2068MOM  V0202931N007212200019N1600001N1+00581+00241101191ADDMD1210161+9999MW1001
0057822810999991945021419004-02600-044233SAO  +0054SBSL V0200681N001512200019N1600001N1+02631+02461100781ADDGA1021+006009099GA2011+999999049GA3041+999999029MW1001
0045724567139211945041515004+39367-094917SAO  +0238FLV  V0200231N003610018019N0048001N1+00631+00581101291ADDGA1081+999999079MD1510141+9999MW1451MW2611
0009428081999991945032108004+22767+088367SAO  +000799999V0202701N001512200019N0128001N1+03631+01521100911ADDMW1001
0133416200999991945082812004+31350+069450FM-12+140799999V0202501N00261220001CN0500001N9+03441+00611098791ADDAY111999GA1999+000159999GA2999+000159999GF104991001001999999001051KA1999M+03441EQDQ01+000042SCOTLCQ02    003SCCGA1Q03    003SCCGA2
0041724567139211945090714004+39367-094917SAO  +0238FLV  V0209991C000012200019N0112001N1+02241+99999101321ADDGA1031+999999049GA2021+999999009MW1001
0039726625240061945062418004+44133-103100SAO  +0974RCA  V0202901N003610150019N1600001N9+01571+01131102571ADDGA1081+999999079MD1110041+9999MW1001
0041071470999991945120116004+48767+002200SAO  +0179LFPV V0201581N003110021019N0032001N1+00631+00521101561ADDGA1061+999999059GA2011+999999049MW1051
0025749087999991945022413004+30833-085200SAO  +0033MAI  V0200681N005112200019N0112001N1+00801+00191103151ADDGA1021+999999009MW1001
0154703080257131945110818003+57117-170267SAO  +0029SNP  V02022559013450076249N0112005N1+00445+00351102131ADDGA1081+007509059GF108995999999999999999999MA1999999101761MW1615EQDN01 02000JPWTH 1QNNG11 1 00025L11 1 00700N11 1 02000S11 1 00040V11 1 01099W11 1 66026
0041975800999991945041011004-01833+138717SAO  +0003WAJI V0202251N002610360019N1600001N1+02631+02461100981ADDGA1021+006009099GA2061+999999049MW1001
0041822880999991945061118004-02900-041750SAO  +0005SBPB V0201131N004110480019N1600001N1+03071+02241100981ADDGA1031+009009089GA2041+999999049MW1001
0009749167999991945062607004+32517-111317SAO  +057599999V0209991C000012200019N1600001N1+02301-00261100611ADDMW1001
0041620530999991945022523004+32083+020267SAO  +0132HLLB V0201131N002110120019N1600001N1+00911+00851102681ADDGA1051+999999059GA2031+999999049MW1001
0009719130999991945061707004+58750-094067SAO  +0029CYYQ V0202031N006212200019N0320001N1+00411+00301101221ADDMW1001
0039746710138061945040206004+36667-087500SAO  +0170HOP  V0201401N008710210019N0112001N9+01801+01631099701ADDGA1081+999999049MD1810201+9999MW1611
0039722650999991945101915004+31933-102200SAO  +0871MAF  V0200451N011312200019N0240001N1+01411+00461101861ADDGA1011+999999031MD1210281+9999MW1001
0045701160266181945021621004+65617-168050SAO  +0005WAA  V0200451N011310060019N0010001N1-02031-02311101491ADDGA1081+999999079MD1110081+9999MW1381MW2711
0340999999938391945070801005+99999+999999SAO  +999999999V02036059001552200049N017600599+02894+01175101664ADDGA1999+030484044GA2999+999999024GA3999+999999999GA4999+999999999GD19025+9999999GD29015+9999999GD39005+9999999GD49005+9999999MA1999999100684EQDN01 00000JPWTH 1QNNE11 1 09903E11 1 09901E11 1 09900E11 1 09900G11U1 99999H11 1 21100H11 1 37999H11 1 00999H11 1 00999K11 1 00053L11 1 01100M11 1 29730N11 1 00000Q11 1 10166S11 1 00084W11 1 11003
0025749159999991945042407004+35533-100750SAO  +0955PPA  V0203381N005710018019N0080001N1+00351+00301100951ADDGA1081+999999079MW1451
0025722487139351945082510004+31400-092300SAO  +0034ESF  V0200231N003610018019N0128001N1+02241+02071101521ADDGA1081+999999079MW1001
0260999999414111945091320005+13433+144633SAO  +002499999V02015859004152200049N016000599+02505+02395100685ADDGA1999+999999064GA2999+999999044GD19025+9999999GD29085+9999999GD39999+9999999GD49999+9999999EQDN01 00000JPWTH 1QNNE11 1 09903E11 1 09910E11 1 09999E11 1 09999G11U1 99999H11 1 15999H11 1 21999K11 1 00075L11 1 01000N11 1 00000Q11 1 10068S11 1 00077W11 1 54008
0039821930999991945082614004-01383-048483SAO  +0016SBBE V0201131N004110060019N0320001N1+03021+02301101251ADDGA1061+999999089MD1810041+9999MW1001
0074749501999991945012415004+41033+014333SAO  +004099999V0202701N002110150019N0096001N1+01131+00911101151ADDGA1051+999999059GA2021+999999049MD1410001+9999MW1051EQDQ01+000032APCTEN
0025722745231091945061914004+32183-110917SAO  +0782DMA  V0202301N004612200019N1600001N9+02801-00981100751ADDGA1001+999999999MW1001
0025691174999991945051705004+39833-076117SAO  +0002KQAH V0200681N002112200019N0112001N1+02071+01851101251ADDGA1021+009009099MW1001
0009725816999991945032507004+40183-112933SAO  +1326DPG  V0201801N001012200019N1600001N1+00131-00311101591ADDMW1001
0039724836232081945092609004+38667-121400SAO  +0024MCC  V0200901N002612200019N0480001N9+01631+00351101321ADDGA1001+999999999MD1610021+9999MW1001
0025749193999991945051107004+58650-124650SAO  +128199999V0200681N000512200019N0240001N1-00091-00421100611ADDGA1021+010509059MW1001
0239999999149471945111119005+44883-093217SAO  +0255MSP  V02015859008250024449N009600599+00335+00005101735ADDGA1999+002444074GD19085+9999999GD29999+9999999GD39999+9999999MA1999999098585MW1055EQDN01 08100JPWTH 1QNNE11 1 09910E11 1 09999E11 1 09999G11 1 00008H11 1 16008K11 1 00032L11 1 00600M11 1 29110N11 1 08100Q11 1 10173S11 1 00038W11 1 54016
0009719456999991945021203004+59000-125883SAO  +0830WWQ  V0201801N001512200019N0240001N1-00651-01031999999ADDMW1001
004595866099999194508292300N-37730+144900AUST +0081YMEN V0203605N013459999999N999999999+01115+99999999999ADDGA1005+999999999GF108995004999999999999999
0041749075999991945052107004+38767-087600SAO  +0131LMV  V0202031N004110360019N0128001N1+02071+01521100811ADDGA1051+999999049GA2031+999999029MW1001
0039749215999991945040915004+60083-130167SAO  +084699999V0209991C000010180019N0080001N1-00651-00981999999ADDGA1081+999999079MD1710081+9999MW1711
0025426230999991945070422004+24767+093900SAO  +0781VEIM V0202031N001510090019N0064001N1+02411+02301100071ADDGA1051+999999059MW1051
0140999999147621945010810005+40350-079933SAO  +038899999V02036059004150027449N001300599+00005-00115100755ADDMA1999999096075MW1045MW2455EQDN01 07080JPWTH 1QNNG11 1 00009K11 1 00030L11 1 00081M11 1 28370N11 1 07080Q11 1 10075S11 1 00032W11 1 11008
0009426230999991945021503004+24767+093900SAO  +0781VEIM V0201351N001512200019N0096001N1+01691+00351101321ADDMW1051
0039749024999991945100320004+03867-051817SAO  +0002SBVE V0201351N004612200019N0480001N1+02961+02071100951ADDGA1021+015009059MD1510041+9999MW1001
0110870470999991945050812004-24767-065400FM-12+118299999V0200501N00101220001CN0100001N9+01111+01061099471ADDAY101999GF100991001001999999001001IA1009KA1999M+02611KA2999N+00781MW1001EQDQ01+000042APCTENQ02+000162APC3  
0346999999137501945030719005+36933-076300SAO  +000699999V02004559007250182949N009600599+01005+00445101525ADDGA1999+999999084GA2999+999999034GA3999+999999999GA4999+999999999GD19065+9999999GD29025+9999999GD39005+9999999GD49005+9999999MA1999999101465MW1045EQDN01 08200JPWTH 1QNNE11 1 09907E11 1 09903E11 1 09900E11 1 09900G11 1 00060H11U1 11999H11U1 23999H11 1 00999H11 1 00999K11 1 00040L11 1 00600M11 1 29960N11 1 08200Q11 1 10152S11 1 00050W11 1 22014
0250999999938301945112714005+33867-084300SAO  +0302NCQ  V02006859004150006149N001300599+00674+00675102154ADDGA1999+000614074GD19085+9999999GD29999+9999999GD39999+9999999GF108995999999999999999999MW1455EQDN01 07000JPWTH 1QNNE11 1 09910E11 1 09999E11 1 09999G11 1 00002H11 1 16002K11 1 00044L11 1 00081N11 1 07000Q11 1 10215S11 1 00044V11 1 01099W11 1 32008
0035724660930371945081311004+38817-104700SAO  +1882COS  V0200701N002612200019N0240001N9+01801+01021100751ADDGA1031+999999039GA2031+999999029
0041702615999991945113002004+64833-147600SAO  +0140PAFB V0209991C000010300019N0048001N9-02811-03091101231ADDGA1041+012009059GA2041+999999049MW1451
0056749072999991945111804004+36233-076133SAO  +0007EKV  V0202031N004610240019N0192001N1+01571+01461102211ADDGA1021+004509079GA2031+024009039MA1999999102101MW1001
0377999999139941945081221005+38750-090383SAO  +017699999V02002359002152200059N019200599+03005+02225101325ADDGA1999+010674084GA2999+999999999GA3999+999999999GA4999+999999999GD19005+9999999GD29005+9999999GD39005+9999999GD49005+9999999GF100995999999999999999999MA1999999099325EQDN01 00000JPWTH 1QNNE11 1 09900E11 1 09900E11 1 09900E11 1 09900G11U1 99999H11 1 11035H11 1 00999H11 1 00999H11 1 00999K11 1 00072L11 1 01200M11 1 29330N11 1 00000Q11 1 10132S11 1 00086V11 1 00099W11 1 12004
0025746710138061945022815004+36667-087500SAO  +0170HOP  V0203201N005110027019N0064001N9+00081-00041102301ADDGA1081+999999059MW1451
0055832480999991945101308004-12900-038333SAO  +0006SBSV V0201801N009810027019N0112001N1+02301+02131101731ADDGA1061+999999059GA2011+999999049MD1310121+9999MW1001
0117421220999991945092103004+29183+072833FM-12+014599999V0201401N00261220001CN0100001N9+03001+02281100571ADDAY101999GA1999+000159999GA2999+000159999GF100991001001999999001001KA1999N+02781EQDQ01    003SCCGA1Q02    003SCCGA2
0041749425999991945030210004-09433+160183SAO  +000799999V0201581N001012200019N1600001N1+02741+02411100781ADDGA1011+009009059GA2011+999999049MW1001
0025747960128041945051223004+27650-081350SAO  +0021AGR  V0202301N001010135019N0048001N9+03071+01631101251ADDGA1051+999999059MW1051
0025723119138861945083119004+34850-082350SAO  +0319GMU  V0201581N005712200019N0240001N1+03291+01851102101ADDGA1041+010509089MW1001
004594612099999194505242200N-31680+116020AUST +0046YPEA V0200685N006759999999N999999999+01585+99999999999ADDGA1005+999999999GF103995004999999999999999
0009788071999991945021113004+08967-079550SAO  +0012MBLB V0203151N001512200019N1600001N1+02631+02131101191ADDMW1001
0041749322999991945072101004+25417+100733SAO  +196799999V0201581N003110360019N1600001N1+02071+01691100411ADDGA1041+012009089GA2011+999999039MW1001
0057940020999991945050700004-03150+142350SAO  +000399999V0202251N000510510019N1600001N1+03181+02521100881ADDGA1021+009009089GA2031+999999049GA3021+999999009MW1001
0025702660999991945090617004+63967-145700SAO  +0398PABG V0202481N004110066019N0160001N1+00691+00581100141ADDGA1081+999999059MW1611
0046749072999991945060908004+36233-076133SAO  +0007EKV  V0200451N001510045019N0064001N1+01801+01741101471ADDGA1081+004509079MA1999999101321MW1451MW2611
0340999999242491945090621005+99999+999999SAO  +999999999V02009059004152200049N048000599+02005+00115101935ADDGA1999+999999999GA2999+999999999GA3999+999999999GA4999+999999999GD19005+9999999GD29005+9999999GD39005+9999999GD49005+9999999MA1999999087945EQDN01 00000JPWTH 1QNNE11 1 09900E11 1 09900E11 1 09900E11 1 09900G11U1 99999H11 1 00999H11 1 00999H11 1 00999H11 1 00999K11 1 00034L11 1 03000M11 1 25970N11 1 00000Q11 1 10193S11 1 00068W11 1 33008
0040722085938311945051005004+32483-080733SAO  +0010NBC  V0201351N002612200019N0080001N1+01801+01691101711ADDGA1031+999999009MA1999999101861MW1051
0041911170999991945051820004+21483-158033SAO  +0256PHHI V0201351N002612200019N1600001N1+02681+01801101761ADDGA1031+009009089GA2011+999999009MW1001
0041749445999991945032601004-15500+167250SAO  +000999999V0201131N005112200019N1600001N1+03021+02461100981ADDGA1021+007509099GA2011+999999039MW1001
004594653099999194504012000N-32130+133720AUST +0017YPCD V0209999C000059999999N999999999+01115+99999999999ADDGA1005+999999999GF100995004999999999999999
0346999999137541945111713005+34900-076883SAO  +001499999V02099999000052200049N009600599+00945+00225102845ADDGA1999+015244064GA2999+999999999GA3999+999999999GA4999+999999999GD19025+9999999GD29005+9999999GD39005+9999999GD49005+9999999MA1999999102685MW1055EQDN01 08100JPWTH 1QNNE11 1 09903E11 1 09900E11 1 09900E11 1 09900G11U1 99999H11 1 15050H11 1 00999H11 1 00999H11 1 00999K11 1 00036L11 1 00600M11 1 30320N11 1 08100Q11 1 10284S11 1 00049W11 1 00000
004272221013858194506032000D+30483-086517SAO  +0025VPS  V0202501N002610075019N0096001N9+02741+02241101151ADDAA101000095GA1061+999999059MW1171MW2611
0025423140999991945050211004+27483+095017SAO  +0111VEMN V0202931N002612200019N1600001N1+03411+01911100311ADDGA1021+999999049MW1001
0041724970999991945102723004+39783-121850SAO  +0069CIC  V0201351N008710420019N0160001N1+01961+00741101461ADDGA1031+012009059GA2041+999999049MW1001
0031424100999991945051500004+26100+091583SAO  +0054VEGT V0200901N001510120019N0080001N1+02131+01961100911ADDGA1081+006009059MW1451MW2611
0055569850999991945091018004+23383+103383SAO  +130299999V0201351N001010150019N1600001N1+02071+01851100911ADDGA1051+999999059GA2011+999999039MD1110041+9999MW1001
0009623660999991945060207004+30133+031400SAO  +0074NECA V0209991C000012200019N0128001N1+02461+01911101191ADDMW1001
0025724917232331945080611004+36667-121600SAO  +0026SNS  V0202931N002610033019N0112001N1+01301+01071101761ADDGA1081+999999079MW1001
0340999999931131945092303005+33750-118250SAO  +001399999V02009059002152200049N040000599+01784+01335101334ADDGA1999+999999999GA2999+999999999GA3999+999999999GA4999+999999999GD19005+9999999GD29005+9999999GD39005+9999999GD49005+9999999MA1999999101194EQDN01 00000JPWTH 1QNNE11 1 09900E11 1 09900E11 1 09900E11 1 09900G11U1 99999H11 1 00999H11 1 00999H11 1 00999H11 1 00999K11 1 00056L11 1 02500M11 1 29880N11 1 00000Q11 1 10133S11 1 00064W11 1 33004
0025704090457091945011907004+52833+173183SAO  +0012ATU  V0203601N007710054019N0048001N1+00131-00151098411ADDGA1081+999999059MW1711
0025749241999991945040821004+22300+087333SAO  +004199999V0201801N003612200019N0080001N1+02801+02071100641ADDGA1021+021009039MW1051
0055749024999991945071805004+03867-051817SAO  +0002SBVE V0209991C000012200019N1600001N1+02241+02241101391ADDGA1021+006009099GA2021+999999039MD1710101+9999MW1001
0025749093999991945061307004+34367-099000SAO  +0377FDR  V0200451N001510360019N1600001N1+01851+01631101151ADDGA1051+999999049MW1001
0030703430254021945012901004+59433-146333SAO  +0014MDO  V0201131N011310030019N0048001N1+00631+00581101121ADDMA1999999100951MW1451MW2611
0023722110128421945102021004+27967-082533SAO  +0003TPA  V0203601N001512200019N0240001N1+02801+01241101561ADDMD1710101+9999MW1001
0041723306138251945031622004+33633-088450SAO  +0060CBM  V0202001N005712200019N1600001N9+03021+01801101351ADDGA1041+010509089GA2011+999999029MW1001
0128999999148301945061020005+42900-085667SAO  +021399999V02022559008250106749N011200599+02445+01835100445ADDMA1999999097975EQDN01 00000JPWTH 1QNNG11 1 00035K11 1 00065L11 1 00700M11 1 28930N11 1 00000Q11 1 10044S11 1 00076W11 1 66016
0340999999939091945111719005+38833-094883SAO  +034199999V02029359004152200049N040000599+01504+00895101664ADDGA1999+999999999GA2999+999999999GA3999+999999999GA4999+999999999GD19005+9999999GD29005+9999999GD39005+9999999GD49005+9999999MA1999999097704EQDN01 00000JPWTH 1QNNE11 1 09900E11 1 09900E11 1 09900E11 1 09900G11U1 99999H11 1 00999H11 1 00999H11 1 00999H11 1 00999K11 1 00048L11 1 02500M11 1 28850N11 1 00000Q11 1 10166S11 1 00059W11 1 78008
004594926099999194501222000N-35320+149200AUST +0577YSCB V0209999C000059999999N999999999+02005+99999999999ADDGA1005+999999999GF107995004999999999999999
0025787930999991945122510004+08400-082417SAO  +0026MPDA V0209991C000012200019N0480001N1+02071+01961100881ADDGA1021+999999029MW1001
0055810010999991945092209004+06500-058250SAO  +0029SYGT V0209991C000012200019N0096001N1+02301+02241101221ADDGA1011+999999039GA2031+999999009MD1210061+9999MW1111
0320999999412251945081117005+99999+999999SAO  +999999999V02009059001052200049N160000599+02565+02395101125ADDGA1999+999999094GA2999+999999044GA3999+999999004GA4999+999999999GD19025+9999999GD29035+9999999GD39015+9999999GD49005+9999999MW1955EQDN01 01000JPWTH 1QNNE11 1 09903E11 1 09904E11 1 09901E11 1 09900G11U1 99999H11 1 18999H11 1 21999H11 1 32999H11 1 00999K11 1 00075L11N1 99999N11 1 01000Q11 1 10112S11 1 00078W11 1 33002
0041654720999991945061604004+05600-000167SAO  +0069DGAA V0202931N004610090019N0128001N1+02461+02351101351ADDGA1061+999999059GA2021+999999049MW1001
0040749483999991945031214004+34183-083683SAO  +038799999V0200901N005110240019N0064001N1+00961+00131102301ADDGA1081+999999039MA1999999097661MW1041
0025940270999991945020216004-06733+147000SAO  +0009AYLA V0200231N001512200019N1600001N1+02411+02351100681ADDGA1081+999999029MW1001
0009575160999991945041509004+29517+106483SAO  +0351ZUCK V0200681N001012200019N0048001N1+02521+01351101801ADDMW1051
0041749399999991945080318004-01067-047617SAO  +005799999V0201131N004610075019N0144001N1+02961+02301101121ADDGA1061+999999099GA2021+999999039MW1171
0041747810999991945052523004+30967-083200SAO  +0072VAD  V0200701N003612200019N1600001N9+02911+01411101861ADDGA1011+013509089GA2061+999999029MW1001
0025724467139301945051722004+38767-093550SAO  +0265SZL  V0203401N004110060019N1600001N9+01241+00631101691ADDGA1081+999999059MW1001
013999999913739194505191800E+39883-075233SAO  +000899999V02033859011850115849N011200599+01445+00615101055ADDAA101000095MA1999999100955EQDN01 00000JPWTH 1QNNG11 1 00038K11 1 00043L11 1 00700M11 1 29810N11 1 00000Q11 1 10105S11 1 00058W11 1 18023
0055718030999991945081221004+48950-054567SAO  +0151CYQX V0200451N001512200019N0480001N1+01521+00351102401ADDGA1011+013509089GA2061+999999009MD1210141+9999MW1001
0346999999137731945112005005+38500-077317SAO  +000499999V02031559005252200049N009600599+00895+00285101085ADDGA1999+999999999GA2999+999999999GA3999+999999999GA4999+999999999GD19005+9999999GD29005+9999999GD39005+9999999GD49005+9999999MA1999999100985MW1055EQDN01 08100JPWTH 1QNNE11 1 09900E11 1 09900E11 1 09900E11 1 09900G11U1 99999H11 1 00999H11 1 00999H11 1 00999H11 1 00999K11 1 00037L11 1 00600M11 1 29820N11 1 08100Q11 1 10108S11 1 00048W11 1 88010
0245999999137551945112812005+37800-075467SAO  +001599999V02011359008250030549N004800599+01175+01065101495ADDGA1999+999999064GD19085+9999999GD29999+9999999GD39999+9999999MA1999999101325MW1455MW2615EQDN01 02070JPWTH 1QNNE11 1 09910E11 1 09999E11 1 09999G11 1 00010H11 1 15999K11 1 00051L11 1 00300M11 1 29920N11 1 02070Q11 1 10149S11 1 00053W11 1 34016
0071727850241571945022218004+47633-117533SAO  +0721GEG  V0201801N003610300019N0320001N1+00351-00041102741ADDGA1011+001509059GA2051+999999049GA3021+999999029MD1310061+9999MW1001
0023602300999991945040121004+31617-008033SAO  +0466GMMX V0200231N001512200019N1600001N1+02351+00461102031ADDMD1310161+9999MW1001
0025704140999991945020808004+52717+174100SAO  +0021PASY V0200201N008710075019N0160001N9-00201-00761101191ADDGA1081+999999059MW1001
0041722886231301945100722004+34217-118483SAO  +0244VNY  V0201401N003610210019N0112001N9+02571+01461100711ADDGA1011+012009089GA2041+999999039MW1001
0025727850241571945010622004+47633-117533SAO  +0721GEG  V0201351N003110030019N0048001N1+00241+00191101391ADDGA1081+999999079MW1511
0025722588999991945021614004+33067-096067SAO  +0166GVT  V0201581N004110060019N0128001N1+01851+01691101421ADDGA1081+999999059MW1001
0041424100999991945060412004+26100+091583SAO  +0054VEGT V0209991C000010240019N1600001N1+02681+02351099931ADDGA1051+999999039GA2021+999999009MW1001
0340999999128531945061502005+25617-080417SAO  +000999999V02006859004152200049N019200599+02675+02335102075ADDGA1999+007624084GA2999+999999999GA3999+999999999GA4999+999999999GD19035+9999999GD29005+9999999GD39005+9999999GD49005+9999999MA1999999101965EQDN01 00000JPWTH 1QNNE11 1 09904E11 1 09900E11 1 09900E11 1 09900G11U1 99999H11 1 11025H11 1 00999H11 1 00999H11 1 00999K11 1 00074L11 1 01200M11 1 30110N11 1 00000Q11 1 10207S11 1 00080W11 1 32008
0090749293999991945052115004+34850+048533SAO  +172799999V0203151N002610480019N1600001N1+02131-00041101121ADDGA1061+999999049GA2021+999999029MD1710031+9999MW1001EQDQ01+000022APCTENQ02+000002APC3  
0029702091999991945052418004+62083-163717SAO  +0050MOU  V0202031N004610001519N0000001N1+00021+00021101461ADDMD1210021+9999MW1451MW2711
0009424230999991945011518004+26733+094167SAO  +0090VEJT V0209991C000012200019N0032001N1+01131+01131101561ADDMW1111
0025718150999991945062113004+48550-058550SAO  +0013CYJT V0201131N006210135019N0320001N1+01461+00911101681ADDGA1081+006009059MW1001
0025722055999991945052820004+28433-081300SAO  +0029MCO  V0200451N005112200019N0080001N1+03071+01851101761ADDGA1021+012009089MW1051
0340999999128471945081810005+99999+999999SAO  +999999999V02018059001052200049N011200599+02445+02395101195ADDGA1999+009144064GA2999+999999044GA3999+999999999GA4999+999999999GD19025+9999999GD29025+9999999GD39005+9999999GD49005+9999999MA1999999100855EQDN01 00000JPWTH 1QNNE11 1 09903E11 1 09903E11 1 09900E11 1 09900G11U1 99999H11 1 15030H11 1 21999H11 1 00999H11 1 00999K11 1 00075L11 1 00700M11 1 29780N11 1 00000Q11 1 10119S11 1 00076W11 1 55002
0340999999414131945070119005+15000+145633SAO  +007699999V02099999000052200049N024000599+02565+02335100835ADDGA1999+999999084GA2999+999999004GA3999+999999999GA4999+999999999GD19015+9999999GD29025+9999999GD39005+9999999GD49005+9999999MA1999999100035EQDN01 00000JPWTH 1QNNE11 1 09901E11 1 09902E11 1 09900E11 1 09900G11U1 99999H11 1 11999H11 1 32999H11 1 00999H11 1 00999K11 1 00074L11 1 01500M11 1 29540N11 1 00000Q11 1 10083S11 1 00078W11 1 00000
0177725090147391945090808003+42367-071033SAO  +0013BOS  V02029359002652200059N0048005N9+02225+01785101565ADDGF100995999999999999999999MA1999999101465MW1045MW2051EQDN01 08200JPWTH 1QNNG11U1 99999K11 1 00064L11 1 00300M11 1 29960N11 1 08200Q11 1 10156S11 1 00072V11 1 00099W11 1 78005
0050722486139421945122506004+32517-092050SAO  +0025MLU  V0203151N004112200019N0192001N1+01131+00461100681ADDGF100991999999999999999999MA1999999100371MW1001
0039749153999991945020905004+00217-176467SAO  +000399999V0201131N008710075019N1600001N1+02631+02301100611ADDGA1081+999999089MD1310041+9999MW1001
0352999999137591945050817005+36617-076017SAO  +001199999V02022559006750076249N006400599+02065+01615101015ADDGA1999+007624074GA2999+999999044GA3999+999999999GA4999+999999999GD19065+9999999GD29065+9999999GD39005+9999999GD49005+9999999MA1999999100885MW1455MW2615EQDN01 02070JPWTH 1QNNE11 1 09908E11 1 09908E11 1 09900E11 1 09900G11 1 00025H11 1 16025H11 1 21999H11 1 00999H11 1 00999K11 1 00061L11 1 00400M11 1 29790N11 1 02070Q11 1 10101S11 1 00069W11 1 66013
0025619020999991945060409004-07967-014400SAO  +0086FHAW V0201401N009810075019N1600001N9+02521+01851101561ADDGA1061+999999089MW1001
0041749338999991945070804004+31117+104000SAO  +050099999V0203601N005110420019N0112001N1+02911+02461100141ADDGA1041+010509059GA2031+999999049MW1001
0055725635999991945021415004+42050-102800SAO  +1198AIA  V0202251N001510210019N1600001N1+00691+00351100311ADDGA1061+999999049GA2021+999999009MD1710041+9999MW1001
0025749097999991945041420004+37167-097033SAO  +0350WLD  V0200681N005110060019N0112001N1+01241+01021101251ADDGA1081+001509059MW1001
0025162610999991945020608004+41533+015717SAO  +0060LIBA V0209991C000012200019N0096001N1+00461+00461101731ADDGA1081+999999029MW1051
0031423140999991945122223004+27483+095017SAO  +0111VEMN V0200681N000510090019N0032001N1+01351+01241101081ADDGA1081+999999059MW1111MW2801
0025701043999991945092216004+68350-166800SAO  +0004PHO  V0201351N008710039019N0240001N1+00741+00631100411ADDGA1081+999999079MW1611
0025722680230091945040811004+33300-104533SAO  +1118ROW  V0203151N001512200019N1600001N1+00521-00311101351ADDGA1011+999999029MW1001
0041983250999991945071515004+16050+120333SAO  +000299999V0201351N001010060019N0128001N1+02631+02461100621ADDGA1061+999999059GA2021+999999049MW1611
0340999999939091945050618005+38833-094883SAO  +034199999V02020359004152200049N160000599+02444+01225100814ADDGA1999+999999004GA2999+999999999GA3999+999999999GA4999+999999999GD19015+9999999GD29005+9999999GD39005+9999999GD49005+9999999MA1999999096954EQDN01 00000JPWTH 1QNNE11 1 09901E11 1 09900E11 1 09900E11 1 09900G11U1 99999H11 1 32999H11 1 00999H11 1 00999H11 1 00999K11 1 00054L11N1 99999M11 1 28630N11 1 00000Q11 1 10081S11 1 00076W11 1 56008
0025749299999991945031022004+41683+015333SAO  +017099999V0202931N003612200019N1600001N1+00801+00411102471ADDGA1021+999999049MW1001
0041434670999991945111004004+06817+079883SAO  +0005VCCC V0202251N001510600019N1600001N1+02911+02351100981ADDGA1031+004509089GA2031+999999029MW1001
0314999999146111945122317005+43883-069933SAO  +003099999V02033859008250243849N024000599-00895-01565101465ADDGA1999+999999044GA2999+999999999GA3999+999999999GA4999+999999999GD19055+9999999GD29005+9999999GD39005+9999999GD49005+9999999EQDN01 00000JPWTH 1QNNE11 1 09906E11 1 09900E11 1 09900E11 1 09900G11 1 00080H11U1 21999H11 1 00999H11 1 00999H11 1 00999K11 1 00004L11 1 01500N11 1 00000Q11 1 10146S11 1 00016W11 1 18016
0025569640999991945031508004+22767+100983SAO  +130399999V0201801N004110120019N1600001N1+02681+01021100811ADDGA1061+999999089MW1001
0062852420999991945111818004-17967-067117FM-12+370799999V0209991C000019999999N0500001N9+02111+00831999999ADDAY111999GF106991041021999999001031MW1021EQDQ01+000992SCOLCB
0039412880999991945041106004+20667+058900SAO  +0019OOMA V0203151N002112200019N1600001N1+02741+02131101731ADDGA1031+009009059MD1210241+9999MW1001
0041703160256241945101104004+55200-162717SAO  +0031CDB  V0201131N011810096019N0320001N1+00521+00081099591ADDGA1061+999999059GA2021+999999039MW1001
0025749090999991945052423004+32917-080650SAO  +0029RBW  V0201581N002612200019N1600001N1+02631+01301101901ADDGA1031+007509089MW1001
0128999999931141945051220005+33700-117833SAO  +002999999V02022559004150061049N032000599+01724+01225101614ADDMA1999999101254EQDN01 00000JPWTH 1QNNG11 1 00020K11 1 00054L11 1 02000M11 1 29900N11 1 00000Q11 1 10161S11 1 00063W11 1 66008
0041654720999991945020204004+05600-000167SAO  +0069DGAA V0202931N002610450019N0112001N1+02521+02461100881ADDGA1011+009009059GA2061+999999039MW1001
0023071470999991945100920004+48767+002200SAO  +0179LFPV V0201801N002612200019N0112001N1+01351+00851101861ADDMD1710041+9999MW1001
0025480350999991945052215004+22933+097750SAO  +0749VBLS V0209991C000012200019N0064001N1+02131+02071100241ADDGA1031+999999039MW1111
0025702650999991945050705004+64650-147067SAO  +0164PAEI V0202701N002612200019N1600001N9+00851-00371103221ADDGA1001+999999999MW1001
0023749056999991945021400004+29883-097867SAO  +0178SRO  V0201801N002112200019N1600001N1+02131+01131100851ADDMD1310061+9999MW1001
0025749067999991945102516004+39950-079650SAO  +03832G3  V0202251N004610180019N0064001N1+01071+00741999999ADDGA1081+009009059MW1051
0025911170999991945050222004+21483-158033SAO  +0256PHHI V0201801N003110090019N1600001N1+02571+01911101391ADDGA1061+999999089MW1801
0071916100999991945072403004+01350+172917SAO  +0004NGTA V0200901N005110420019N1600001N1+03131+02351100851ADDGA1031+006009089GA2021+999999049GA3031+999999029MD1610161+9999MW1001
0025604920999991945121013004+35733+000550SAO  +007599999V0200681N005710330019N0240001N1+01301+00581101081ADDGA1081+999999039MW1001
0025704820256261945043002004+52950-168850SAO  +0021IKO  V0203381N018010030019N0096001N1+00301+00191101151ADDGA1081+999999079MW1611
0025480330999991945082910004+22583+095717SAO  +0110VBSB V0200901N002610090019N0112001N1+02681+02461100311ADDGA1081+004509099MW1801
0025702720999991945030308004+61233-149867SAO  +0055PAED V0209991C000010003019N0006001N9-00091-00091102031ADDGA1081+999999079MW1451
0025725810241931945053118004+40733-114033SAO  +1292ENV  V0203151N003610180019N1600001N1+02021+00131100641ADDGA1061+999999089MW1001
0009785201999991945081307004+18017-066567SAO  +0009TJPS V0209991C000012200019N0192001N1+02351+02131101321ADDMW1001
0041918000999991945081604004-09017-158067SAO  +0002NCPY V0200681N003110210019N1600001N1+02461+02241101121ADDGA1011+006009089GA2061+999999049MW1001
0340999999128471945101711005+99999+999999SAO  +999999999V02027059001552200049N011200599+01115+00945101495ADDGA1999+999999999GA2999+999999999GA3999+999999999GA4999+999999999GD19005+9999999GD29005+9999999GD39005+9999999GD49005+9999999MA1999999101125EQDN01 00000JPWTH 1QNNE11 1 09900E11 1 09900E11 1 09900E11 1 09900G11U1 99999H11 1 00999H11 1 00999H11 1 00999H11 1 00999K11 1 00049L11 1 00700M11 1 29860N11 1 00000Q11 1 10149S11 1 00052W11 1 77003
0025747320999991945052108004+32850-106083SAO  +1240HMN  V0203401N006712200019N1600001N9+01021-01151101021ADDGA1001+999999999MW1001
0025480350999991945060915004+22933+097750SAO  +0749VBLS V0209991C000012200019N0112001N1+02241+02071100001ADDGA1051+999999029MW1001
0025747900138491945021402004+33967-080483SAO  +0072SSC  V0202501N002112200019N0096001N9+01801+01021100851ADDGA1001+999999999MW1051
0140999999147621945012917005+40350-079933SAO  +038899999V02024859008250042749N004800599-00565-00835101595ADDMA1999999096855MW1045MW2715EQDN01 04080JPWTH 1QNNG11 1 00014K11 1 00017L11 1 00300M11 1 28600N11 1 04080Q11 1 10159S11 1 00022W11 1 76016
0041040180162011945020214004+63967-022600SAO  +0050BIKF V0200681N005110150019N0480001N1-00201-00591100171ADDGA1061+999999059GA2021+999999039MW1001
0009749321999991945022019004+25500+103083SAO  +195599999V0201801N001512200019N1600001N1+00581+00131100951ADDMW1001
0039432960999991945113009004+12950+077633SAO  +0897VOBG V0200451N002612200019N1600001N1+02681+00801100981ADDGA1051+999999029MD1710301+9999MW1001
0025723030137141945082514004+35183-079017SAO  +0064POB  V0202701N001010033019N0192001N9+02571+02301101291ADDGA1081+999999079MW1001
0025749120999991945050711004+51833-062883SAO  +052499999V0200451N001510075019N0128001N1+00191+00191100981ADDGA1081+999999059MW1001
0314999999232421945080610005+37683-121700SAO  +019799999V02018059001052200049N012800599+01175+00945101365ADDGA1999+999999999GA2999+999999999GA3999+999999999GA4999+999999999GD19005+9999999GD29005+9999999GD39005+9999999GD49005+9999999EQDN01 00000JPWTH 1QNNE11 1 09900E11 1 09900E11 1 09900E11 1 09900G11U1 99999H11 1 00999H11 1 00999H11 1 00999H11 1 00999K11 1 00049L11 1 00800N11 1 00000Q11 1 10136S11 1 00053W11 1 55002
0025724565139201945040111004+38950-095667SAO  +0323FOE  V0201401N006212200019N1600001N9+01021+00581100541ADDGA1001+999999999MW1001
0055724296138411945081121004+39433-083800SAO  +0327ILN  V0201581N002610075019N0112001N1+02071+01851101831ADDGA1051+999999059GA2031+999999049MD1610061+9999MW1001
0041749413999991945071001004-01650+149967SAO  +003399999V0209991C000010360019N1600001N1+02801+02571100711ADDGA1031+006009089GA2051+999999049MW1001
0039749521999991945010118004+41700+015433SAO  +005099999V0200901N001510030019N0008001N1+00021+00021100441ADDGA1081+999999079MD1210161+9999MW1861
0024702735264091945052318004+61217-149833SAO  +0041MRI  V0203151N001510240019N0480001N1+00961+00521101731ADDMA1999999101221MW1001
0055076470999991945042108004+43517+004933SAO  +0024LFMI V0202031N005110030019N0064001N1+01741+01351101371ADDGA1061+999999059GA2021+999999029MD1510041+9999MW1051
0134432910999991945100712004+12300+076700FM-12+076899999V0200701N00261007801CN0500001N9+02391+02001100731ADDAA199002091AY161999GA1999+000159999GA2999+000159999GF107991061091008001041041KA1999M+02941MW1161EQDQ01    003SCCGA1Q02    003SCCGA2
