0050108560999991946123104004+48183+010867SAO  +0555EDSL V0202701N001012200019N0024001N1-01261+99999102301ADDGF100991999999999999999999MA1999999095431MW1451
0066788078999991946122408004+08383-080133SAO  +0031MPRH V0203151N002612200019N0320001N1+02301+02071100851ADDGA1031+036009049GF102991999999999999999999MA1999999100581MW1001
007772221013858194605250200D+30483-086517SAO  +0025VPS  V0201801N002112200019N0160001N9+02461+02181101761ADDAA101000095GA1031+060009009GF102991999999999999999999MA1999999101561MW1001
0245999999432041946122514005+31233+121450SAO  +002799999V02027059001550061049N000300599+00835+00835102265ADDGA1999+006104074GD19085+9999999GD29999+9999999GD39999+9999999MA1999999102275MW1455MW2635EQDN01 02170JPWTH 1QNNE11 1 09910E11 1 09999E11 1 09999G11 1 00020H11 1 16020K11 1 00047L11 1 00019M11 1 30200N11 1 02170Q11 1 10226S11 1 00047W11 1 77003
0082828981999991946022407004-08117-034917SAO  +0009SBRF V0201131N005710060019N0192001N1+02681+02301101291ADDGA1051+006009089GA2021+066009009GF107991999999999999999999MA1999999101151MW1001
0340999999225191946022413005+21450-157767SAO  +001599999V02022559001052200049N032000599+01895+01785101475ADDGA1999+010674064GA2999+999999999GA3999+999999999GA4999+999999999GD19015+9999999GD29005+9999999GD39005+9999999GD49005+9999999MA1999999101295EQDN01 00000JPWTH 1QNNE11 1 09901E11 1 09900E11 1 09900E11 1 09900G11U1 99999H11 1 15035H11 1 00999H11 1 00999H11 1 00999K11 1 00064L11 1 02000M11 1 29910N11 1 00000Q11 1 10147S11 1 00066W11 1 66002
006172253012921194610130600D+29533-098467SAO  +0242SAT  V0201581N001012200019N0240001N1+00801+00581102031ADDAA101000095GF100991999999999999999999MA1999999099191MW1001
0060724660930371946112219004+38817-104700SAO  +1882COS  V0200501N002610420019N0240001N9+01241+00461102511ADDGA1071+042009039GF107991999999999999999999MA1999999081481
0072910660227011946102902004+28200-177383SAO  +0007PMDY V0200451N008212200019N0192001N1+02411+01911101651ADDGA1031+999999089GA2021+999999039GA3011+999999009MA1999999101521MW1001
0340999999129251946032012005+28367-097667SAO  +006299999V02004559003152200049N024000599+00945+00835101965ADDGA1999+999999004GA2999+999999999GA3999+999999999GA4999+999999999GD19025+9999999GD29005+9999999GD39005+9999999GD49005+9999999MA1999999101765EQDN01 00000JPWTH 1QNNE11 1 09902E11 1 09900E11 1 09900E11 1 09900G11U1 99999H11 1 32999H11 1 00999H11 1 00999H11 1 00999K11 1 00047L11 1 01500M11 1 30050N11 1 00000Q11 1 10196S11 1 00049W11 1 22006
0067727755241121946041002004+47517-111183SAO  +1054KGFA V0202701N005110450019N1120001N9+00631-00981101121ADDGA1021+015009059GA2051+045009049GF107991999999999999999999MW1001
0082823980999991946080712004-03783-038533SAO  +0025SBFZ V0202031N012310054019N0240001N1+02741+01961101661ADDGA1051+005409059GA2021+030009039GF107991999999999999999999MA1999999101391MW1001
0377999999147881946070604005+41583-071417SAO  +001099999V02099999000052200059N019200599+01725+01335102335ADDGA1999+999999999GA2999+999999999GA3999+999999999GA4999+999999999GD19005+9999999GD29005+9999999GD39005+9999999GD49005+9999999GF100995999999999999999999MA1999999102245EQDN01 00000JPWTH 1QNNE11 1 09900E11 1 09900E11 1 09900E11 1 09900G11U1 99999H11 1 00999H11 1 00999H11 1 00999H11 1 00999K11 1 00056L11 1 01200M11 1 30190N11 1 00000Q11 1 10233S11 1 00063V11 1 00099W11 1 00000
0377999999147881946071901005+41583-071417SAO  +001099999V02020359004152200059N024000599+01895+01615101595ADDGA1999+060964004GA2999+999999999GA3999+999999999GA4999+999999999GD19025+9999999GD29005+9999999GD39005+9999999GD49005+9999999GF102995999999999999999999MA1999999101495EQDN01 00000JPWTH 1QNNE11 1 09902E11 1 09900E11 1 09900E11 1 09900G11U1 99999H11 1 32200H11 1 00999H11 1 00999H11 1 00999K11 1 00061L11 1 01500M11 1 29970N11 1 00000Q11 1 10159S11 1 00066V11 1 00299W11 1 56008
0066749351999991946041111004+31317+121500SAO  +0006RHGH V0202031N003610540019N0096001N1+01571+01241101661ADDGA1061+054009029GF107991999999999999999999MA1999999101591MW1051
0082725755241011946120310004+41117-111967SAO  +1459HIF  V0200501N005110360019N0240001N9+00411+00021102341ADDGA1021+036009039GA2031+066009009GF107991999999999999999999MA1999999085911MW1001
0314999999225151946011120005+21333-158050SAO  +002099999V02004559006752200049N019200599+02395+01725101885ADDGA1999+999999084GA2999+999999044GA3999+999999999GA4999+999999999GD19025+9999999GD29055+9999999GD39005+9999999GD49005+9999999EQDN01 00000JPWTH 1QNNE11 1 09903E11 1 09906E11 1 09900E11 1 09900G11U1 99999H11 1 11999H11 1 21999H11 1 00999H11 1 00999K11 1 00063L11 1 01200N11 1 00000Q11 1 10188S11 1 00075W11 1 22013
0082722175138601946032520004+32633-083600SAO  +0090WRB  V0202001N005110300019N0160001N9+02521+01411101731ADDGA1021+012009059GA2081+030009049GF108991999999999999999999MA1999999100751MW1001
0066616410999991946071612004+14733-017500SAO  +0024GOOY V0200231N005110036019N0112001N1+02851+02131101461ADDGA1051+003609059GF107991999999999999999999MA1999999101251MW1001
0082724690230621946101222004+39750-104867SAO  +1625DEN  V0202931N010310210019N0240001N1+01461+00191101051ADDGA1051+021009059GA2051+036009039GF107991999999999999999999MA1999999082931MW1001
0088727755241121946040512004+47517-111183SAO  +1054KGFA V0201601N002612200019N0640001N9-00201-00531101541ADDAA124000091GA1001+999999999GF100991999999999999999999KA1999M+01581KA2999N-00311MW1001
0171725280147331946123020003+42933-078733SAO  +0217BUF  V02033859003652200059N0096005N1-00945-01395103055ADDGF102995999999999999999999MA1999999100305MW1855EQDN01 05000JPWTH 1QNNG11U1 99999K11 1 00007L11 1 00600M11 1 29620N11 1 05000Q11 1 10305S11 1 00015V11 1 00299W11 1 18007
0066722970231291946052219004+33817-118150SAO  +0012LGB  V0201801N005710060019N0240001N1+01631+00851101561ADDGA1061+006009089GF107991999999999999999999MA1999999101421MW1001
0383722080138801946080609003+32900-080033SAO  +0014CHS  V02024859004652200059N0160005N1+02285+02115101395ADDGA1001+999999999GA2999+999999999GA3999+999999999GA4999+999999999GD19005+9999999GD29005+9999999GD39005+9999999GD49005+9999999GF100995999999999999999999MA1101351101195MW1001EQDN01 00000JPWTH 1QNNE11 1 09900E11 1 09900E11 1 09900E11 1 09900G11U1 99999H11 1 00999H11 1 00999H11 1 00999H11 1 00999K11 1 00070L11 1 01000M11 1 29880N11 1 00000Q11 1 10139S11 1 00073V11 1 00099W11 1 76009
0066704851999991946031107004+53367-167900SAO  +0039UNS  V0202251N007210036019N0160001N1+00131+00081098541ADDGA1071+003609059GF107991999999999999999999MA1999999098071MW1001
0128999999107151946091813005+09367-079900SAO  +0004MBFS V02013559001552200049N019200599+02615+02395101215ADDMA1999999101155EQDN01 00000JPWTH 1QNNG11U1 99999K11 1 00075L11 1 01200M11 1 29870N11 1 00000Q11 1 10121S11 1 00079W11 1 44003
0082749036999991946042714004+09517-084333SAO  +0006MRPR V0201801N001510450019N0064001N1+02801+02681101371ADDGA1021+006009089GA2051+045009039GF107991999999999999999999MA1999999101291MW1001
0050749351999991946051515004+31317+121500SAO  +0006RHGH V0201801N002612200019N0064001N1+01461+01071101761ADDGF100991999999999999999999MA1999999101691MW1451
0117416000999991946030312004+32500+074533FM-12+020899999V0200501N00101007801CN0100001N9+01611+00941100861ADDAY121999GA1999+000159999GA2999+000159999GF107991071081008001001001KA1999M+02061EQDQ01    003SCCGA1Q02    003SCCGA2
0050702190266151946100702004+60783-161800SAO  +0046BET  V0200681N005710060019N0240001N1+00631+00411097871ADDGF108991999999999999999999MA1999999097731MW1611
0340999999232461946091622005+38417-122750SAO  +003799999V02031559002152200049N048000599+02225+00835101285ADDGA1999+009144084GA2999+999999004GA3999+999999999GA4999+999999999GD19015+9999999GD29035+9999999GD39005+9999999GD49005+9999999MA1999999100915EQDN01 00000JPWTH 1QNNE11 1 09901E11 1 09904E11 1 09900E11 1 09900G11U1 99999H11 1 11030H11 1 32999H11 1 00999H11 1 00999K11 1 00047L11 1 03000M11 1 29800N11 1 00000Q11 1 10128S11 1 00072W11 1 88004
0340999999931131946041122005+33750-118250SAO  +001399999V02033859005252200049N012800599+03064-00395101354ADDGA1999+045724044GA2999+999999999GA3999+999999999GA4999+999999999GD19015+9999999GD29005+9999999GD39005+9999999GD49005+9999999MA1999999101224EQDN01 00000JPWTH 1QNNE11 1 09901E11 1 09900E11 1 09900E11 1 09900G11U1 99999H11 1 21150H11 1 00999H11 1 00999H11 1 00999K11 1 00025L11 1 00800M11 1 29890N11 1 00000Q11 1 10135S11 1 00087W11 1 18010
0066911800999991946021500004+21333-157950SAO  +0009PHIK V0200901N004612200019N0240001N1+02741+01741101661ADDGA1021+009009089GF102991999999999999999999MA1999999101521MW1001
0340999999107151946012020005+09367-079900SAO  +0004MBFS V02002359003650061049N016000599+02835+02115100925ADDGA1999+999999084GA2999+999999034GA3999+999999999GA4999+999999999GD19065+9999999GD29025+9999999GD39005+9999999GD49005+9999999MA1999999100915EQDN01 00000JPWTH 1QNNE11 1 09907E11 1 09902E11 1 09900E11 1 09900G11 1 00020H11 1 11999H11 1 23999H11 1 00999H11 1 00999K11 1 00070L11 1 01000M11 1 29800N11 1 00000Q11 1 10092S11 1 00083W11 1 12007
0117430030999991946060403004+19100+072850FM-12+000499999V0201801N00931220001CN0200001N9+02891+02561100401ADDAY121999GA1999+000159999GA2999+000159999GF104991041081008001031011KA1999N+02781EQDQ01    003SCCGA1Q02    003SCCGA2
0050110300999991946122120004+48317+016117SAO  +0176LOXT V02099999999992200019N0080001N1-00421-00651102611ADDGF100991999999999999999999MA1999999100341MW1051
0066810010999991946043005004+06500-058250SAO  +0029SYGT V0209991C000010210019N0192001N1+02351+02301101221ADDGA1061+021009049GF107991999999999999999999MA1999999100851MW1001
0040910660227011946101110004+28200-177383SAO  +0007PMDY V0200451N003112200019N0192001N1+02411+01521101881ADDGA1021+999999089MA1999999101731MW1001
0066749347999991946062603004+32083+118750SAO  +0025RNKG V0202251N005110036019N1600001N1+02741+02681100711ADDGA1081+003609099GF108991999999999999999999MA1999999100441MW1611
0035912750216031946021002004+16733-169533SAO  +0002PJON V0200701N006712200019N0192001N9+02631+02241100891ADDGA1021+999999089GA2061+999999039
0066691174999991946120904004+39833-076117SAO  +0002KQAH V0202251N001512200019N0064001N1+00351+00351102571ADDGA1071+075009029GF107991999999999999999999MA1999999102341MW1051
0082704851999991946072921004+53367-167900SAO  +0039UNS  V0200451N005110018019N0112001N1+00911+00801101961ADDGA1051+001809059GA2021+045009039GF107991999999999999999999MA1999999101461MW1001
0066106580999991946020501004+50200+010083SAO  +0266EDFK V0202481N008710024019N0048001N1+00301+00301100951ADDGA1081+002409079GF108991999999999999999999MA1999999097931MW1611
0054851750999991946122112004-15700-063083FM-12+024799999V0203601N00101002401CN0500001N9+99999+99999999999ADDAA199003091AY121999GF108991081081002501001001MW1031
0066723535999991946111818004+36333-097833SAO  +0390END  V0201601N005112200019N0240001N9+01071+00021102781ADDGA1011+075009009GF102991999999999999999999MA1999999098041MW1001
0082545110999991946091302004+39933+116283SAO  +0055ZBAA V0200451N001510240019N0096001N1+01911+01801101051ADDGA1061+024009049GA2021+024009039GF108991999999999999999999MA1999999100301MW1451
0050616410999991946121313004+14733-017500SAO  +0024GOOY V0200231N003612200019N0128001N1+02681+01571100881ADDGF100991999999999999999999MA1999999100641MW1001
0302999999137501946120910005+36933-076300SAO  +000699999V02020359002150000049N000000599+00395+00395102715ADDGA1999+000004104GD19085+9999999GD29999+9999999GD39999+9999999GD49999+9999999GF108995999999999999999999MA1999999102685MW1455EQDN01 07000JPWTH 1QNNE11 1 09910E11 1 09999E11 1 09999E11 1 09999G11 1 00000H11 1 45000K11 1 00039L11 1 00000M11 1 30320N11 1 07000Q11 1 10271S11 1 00039V11 1 01099W11 1 56004
0040718070999991946122910004+47300-054000SAO  +0016CYAR V0203381N005112200019N0192001N1-00811-01421101771ADDGA1021+999999059MA1999999101561MW1001
0024724506139861946021504004+38067-097867SAO  +0470HUT  V0200901N003112200019N0192001N1+00241-00311102641ADDMA1999999096851MW1001
0066703610253391946083005004+59517-139667SAO  +0009CYAK V0202701N000510001519N0002001N1+00801+00801101691ADDGA1091+000159999GF109991999999999999999999MA1999999101591MW1451
0101474250999991946022200004+42800+141650SAO  +0027RJCC V0203381N004610600019N1600001N1-00921-01311100581ADDGA1061+060009019GF107991999999999999999999MA1999999100171MW1001EQDQ01+100583APOSP Q02+999990APOSP 
0314999999146111946040623005+43883-069933SAO  +003099999V02031559003650091449N024000599+00445-00115100145ADDGA1999+999999064GA2999+999999044GA3999+999999999GA4999+999999999GD19055+9999999GD29015+9999999GD39005+9999999GD49005+9999999EQDN01 00000JPWTH 1QNNE11 1 09906E11 1 09901E11 1 09900E11 1 09900G11 1 00030H11U1 15999H11U1 21999H11 1 00999H11 1 00999K11 1 00030L11 1 01500N11 1 00000Q11 1 10014S11 1 00040W11 1 88007
0050702770999991946083103004+60117-149450SAO  +00185WD  V0201801N001512200019N0240001N1+01521+01071102031ADDGF108991999999999999999999MA1999999101791MW1001
0066703980253081946010310004+55033-131567SAO  +0034ANN  V0200681N002112200019N0160001N1+00081-00041099831ADDGA1021+006009059GF102991999999999999999999MA1999999099421MW1001
0340999999148551946011906005+42083-087833SAO  +0197NBU  V02002359014952200049N016000599-00395-01065102065ADDGA1999+006104064GA2999+999999999GA3999+999999999GA4999+999999999GD19025+9999999GD29005+9999999GD39005+9999999GD49005+9999999MA1999999099535EQDN01 00000JPWTH 1QNNE11 1 09902E11 1 09900E11 1 09900E11 1 09900G11U1 99999H11 1 15020H11 1 00999H11 1 00999H11 1 00999K11 1 00013L11 1 01000M11 1 29390N11 1 00000Q11 1 10206S11 1 00025W11 1 12029
0117427790999991946070603004+22767+081900FM-12+062299999V0201601N00261012301CN0500001N9+02441+02171099741ADDAY121999GA1999+000159999GA2999+000159999GF108991061071012501021001KA1999N+02391EQDQ01    003SCCGA1Q02    003SCCGA2
0050601560999991946071613004+33367-007583SAO  +0206GMMN V0200231N004112200019N0128001N1+02411+01911101251ADDGF100991999999999999999999MA1999999100711MW1001
0066722866231221946010122004+34100-117250SAO  +0334SBD  V0202301N003112200019N0160001N9+02351+00631101251ADDGA1031+066009009GF102991999999999999999999MA1999999097361MW1001
0066108690999991946122719004+48317+011950SAO  +0467EDSE V02099999999990018019N0016001N1+00021+00021100881ADDGA1081+001809079GF108991999999999999999999MA1999999095191MW1111
0340999999116181946020106005+18467-066117SAO  +001399999V02013559002652200049N019200599+02225+01895101525ADDGA1999+009144084GA2999+999999999GA3999+999999999GA4999+999999999GD19025+9999999GD29005+9999999GD39005+9999999GD49005+9999999MA1999999101395EQDN01 00000JPWTH 1QNNE11 1 09903E11 1 09900E11 1 09900E11 1 09900G11U1 99999H11 1 11030H11 1 00999H11 1 00999H11 1 00999K11 1 00066L11 1 01200M11 1 29940N11 1 00000Q11 1 10152S11 1 00072W11 1 44005
0066106330999991946040800004+50050+008333SAO  +0145EDOU V0209991C000010600019N0112001N9+00691+00301102731ADDGA1081+060009029GF108991999999999999999999MA1999999100911MW1001
0101479310999991946010902004+26350+127750SAO  +0046RODN V0203601N008212200019N0224001N9+02021+00691102131ADDGA1999+015009999GA2031+021009039GF102991999999999999999999MA1999999101561MW1001EQDQ01    003SCCGA1
0066725755241011946080923004+41117-111967SAO  +1459HIF  V0201401N002112200019N0640001N9+03351+99999101221ADDGA1001+999999999GF100991999999999999999999MA1999999085441MW1001
004594999900024194606220700N-26600+118480AUST +0511     V0201805N004659999999N999999999+01615-00305999999ADDGA1005+999999999GF100995004999999999999999
0060620111999991946120421004+32900+013283SAO  +0003HTIP V0202501N008712200019N0064001N9+01571+00081100371ADDGA1081+072009029GF108991999999999999999999MA1999999100371
0050702710264251946111211004+62150-145450SAO  +0481GKN  V0201581N007212200019N0480001N1-00091-00531100581ADDGF107991999999999999999999MA1999999094751MW1001
0060911820225211946062723004+21333-157950SAO  +0008PHNL V0200901N004112200019N0240001N9+03021+02131101661ADDGA1041+010509089GF102991999999999999999999MA1999999101521
0082428081999991946042707004+22767+088367SAO  +000799999V0201801N001510360019N0112001N1+03521+02741100441ADDGA1041+015009089GA2021+036009049GF107991999999999999999999MA1999999100371MW1001
0035749070999991946121900004+39433-077450SAO  +0100FDK  V0203151N001512200019N0128001N1-00091-00421999999ADDGF100991999999999999999999MW1001
0340999999148551946121314005+42083-087833SAO  +0197NBU  V02024859007750213449N016000599-00675-01065101615ADDGA1999+021344034GA2999+999999999GA3999+999999999GA4999+999999999GD19065+9999999GD29005+9999999GD39005+9999999GD49005+9999999MA1999999098985EQDN01 00000JPWTH 1QNNE11 1 09908E11 1 09900E11 1 09900E11 1 09900G11 1 00070H11 1 23070H11 1 00999H11 1 00999H11 1 00999K11 1 00013L11 1 01000M11 1 29230N11 1 00000Q11 1 10161S11 1 00020W11 1 76015
0000967450999991946051900004-06183+106833FM-12+000899999V02099999999999999999N9999999N9+99999+99999999999
004594646099999194609250700N-30830+128100AUST +0160YPFT V0200905N002159999999N999999999+02285+99999999999ADDGA1005+999999999GF100995004999999999999999
0082703980253081946080110004+55033-131567SAO  +0034ANN  V0202031N002110270019N0160001N1+01071+00911101321ADDGA1031+010509059GA2061+027009039GF107991999999999999999999MA1999999100911MW1001
0066601560999991946051719004+33367-007583SAO  +0206GMMN V0200451N004112200019N0160001N1+01741+01351101461ADDGA1081+066009029GF108991999999999999999999MA1999999100881MW1001
0051276650999991946080910004+55033+044500FM-12+020699999V0202501N00671012301CN0200001N9+01611+99999100821ADDAY121999GF108991081021012501001999MD1310041+9999
0340999999412281946083114005+99999+999999SAO  +999999999V02004559000552200049N019200599+02565+02335100755ADDGA1999+999999999GA2999+999999999GA3999+999999999GA4999+999999999GD19005+9999999GD29005+9999999GD39005+9999999GD49005+9999999MA1999999100375EQDN01 00000JPWTH 1QNNE11 1 09900E11 1 09900E11 1 09900E11 1 09900G11U1 99999H11 1 00999H11 1 00999H11 1 00999H11 1 00999K11 1 00074L11 1 01200M11 1 29640N11 1 00000Q11 1 10075S11 1 00078W11 1 22001
0050702031266201946112502004+64200-162050SAO  +0005MOS  V0200231N010310180019N0640001N1-00761-01311101191ADDGF108991999999999999999999MA1999999101121MW1001
0077745940137051946101512004+38817-076883SAO  +0085ADW  V0200201N001512200019N0096001N9+00691+00521102841ADDAA124999999GA1001+999999999GF100991999999999999999999MA1999999101791MW1051
0029719640999991946030709004+60700-135117FM-12+069899999V02099999999999999999N9999999N9+99999+99999999999ADDKA1999M-00111KA2999N-01721
0082108660999991946082212004+48133+011700SAO  +0529EDDM V0202701N005110105019N0096001N1+01241+00961102251ADDGA1041+003009059GA2081+010509079GF108991999999999999999999MA1999999095941MW1511
0340999999412281946111200005+99999+999999SAO  +999999999V02031559001052200049N048000599+02565+02175101325ADDGA1999+999999084GA2999+999999034GA3999+999999004GA4999+999999999GD19015+9999999GD29015+9999999GD39035+9999999GD49005+9999999MA1999999100955EQDN01 00000JPWTH 1QNNE11 1 09901E11 1 09901E11 1 09904E11 1 09900G11U1 99999H11 1 11999H11 1 23999H11 1 32999H11 1 00999K11 1 00071L11 1 03000M11 1 29810N11 1 00000Q11 1 10132S11 1 00078W11 1 88002
0336722906931121946100413003+32717-117217SAO  +0015NZY  V02022559002152200049N0112005N9+01835+01725100835ADDGA1999+004574064GA2999+999999999GA3999+999999999GA4999+999999999GD19005+9999999GD29005+9999999GD39005+9999999GD49005+9999999MW1001EQDQ01    003SCCGA1N01 00000JPWTH 1QNNE11 1 09900E11 1 09900E11 1 09900E11 1 09900G11U1 99999H11 1 15015H11 1 00999H11 1 00999H11 1 00999K11 1 00063L11 1 00700N11 1 00000Q11 1 10083S11 1 00065W11 1 66004
0292999999137511946010719005+38850-077017SAO  +001399999V02020359005250259149N009600599+01675+01565101495ADDGA1999+999999074GA2999+999999054GD19015+9999999GD29085+9999999GD39999+9999999GD49999+9999999MA1999999101055MW1615EQDN01 02000JPWTH 1QNNE11 1 09901E11 1 09910E11 1 09999E11 1 09999G11 1 00085H11 1 16999H11 1 22999K11 1 00060L11 1 00600M11 1 29840N11 1 02000Q11 1 10149S11 1 00062W11 1 56010
0050722505129041946012007004+26233-097667SAO  +0011HRL  V0202481N002112200019N0160001N1+01631+01571101051ADDGF100991999999999999999999MA1999999100911MW1001
0072912750216031946032112004+16733-169533SAO  +0002PJON V0200701N011812200019N0192001N9+02461+02131101601ADDAA124999929GA1021+999999089GA2061+999999049KA1999M+02741KA2999N+02461
0029719070999991946101306004+58450-078133FM-12+002099999V0202701N010819999999N0120001N9+00171+00111099691ADDGF108991061061004501031999
0051749001999991946032013004+53167+000167SAO  +001199999V0202031N006712100019N0080001N1+99999+99999999999ADDGA1081+210009999GF108991999999999999999999MW1051
0233999999148551946022710005+42083-087833SAO  +0197NBU  V02002359007250048849N012800599-00335-00785100765ADDGA1999+004884074GD19085+9999999GD29999+9999999GD39999+9999999MA1999999098245EQDN01 00000JPWTH 1QNNE11 1 09910E11 1 09999E11 1 09999G11 1 00016H11 1 16016K11 1 00018L11 1 00800M11 1 29010N11 1 00000Q11 1 10076S11 1 00026W11 1 12014
0117434180999991946060503004+08583+081250FM-12+000799999V0202501N004619999999N0200001N9+02831+02281100671ADDAY111999GA1999+000159999GA2999+000159999GF107991011011008001001081KA1999N+02721EQDQ01    003SCCGA1Q02    003SCCGA2
0082040180162011946090404004+63967-022600SAO  +0050BIKF V0200231N006712200019N0320001N1+00801+00631101351ADDGA1021+009009059GA2021+033009039GF102991999999999999999999MA1999999100641MW1001
0066724810232031946062806004+37367-120567SAO  +0053MER  V0203401N008212200019N0240001N9+01851+01191101691ADDGA1001+999999999GF100991999999999999999999MA1999999101051MW1001
0066724956232111946111003004+38067-122517SAO  +0003SRF  V0203151N002112200019N0320001N1+01301+00521101591ADDGA1999+036009999GF100991999999999999999999MA1999999101591MW1001
0082111500999991946080203004+47800+013000SAO  +0450LOWS V0209991C000010090019N0128001N1+01521+01351102351ADDGA1061+009009059GA2061+027009039GF108991999999999999999999MA1999999097431MW1001
0117429030999991946061103004+21650+088050FM-12+000399999V0202501N004619999999N0200001N9+02941+02501100311ADDAY111999GA1999+000159999GA2999+000159999GF106991041011012501001011KA1999N+02831EQDQ01    003SCCGA1Q02    003SCCGA2
0050843900999991946101417004-04567-081250SAO  +0086SPYL V0202031N005112200019N0720001N1+02411+01521101251ADDGF100991999999999999999999MA1999999100241MW1001
0066718150999991946091215004+48550-058550SAO  +0013CYJT V0202701N003610075019N0400001N1+01191+00631101381ADDGA1071+007509059GF107991999999999999999999MA1999999101221MW1001
0346999999938291946051012005+30350-087267SAO  +0021CVD  V02006859004152200049N009600599+02064+01565101874ADDGA1999+999999004GA2999+999999999GA3999+999999999GA4999+999999999GD19075+9999999GD29005+9999999GD39005+9999999GD49005+9999999MA1999999101634MW1045EQDN01 08000JPWTH 1QNNE11 1 09909E11 1 09900E11 1 09900E11 1 09900G11U1 99999H11 1 32999H11 1 00999H11 1 00999H11 1 00999K11 1 00060L11 1 00600M11 1 30010N11 1 08000Q11 1 10187S11 1 00069W11 1 32008
0340999999116181946111922005+18467-066117SAO  +001399999V02099999000050061049N016000599+02725+02395101115ADDGA1999+006104084GA2999+021344034GA3999+060964024GA4999+999999999GD19055+9999999GD29025+9999999GD39015+9999999GD49005+9999999MA1999999100985EQDN01 00000JPWTH 1QNNE11 1 09906E11 1 09902E11 1 09901E11 1 09900G11 1 00020H11 1 11020H11 1 23070H11 1 37200H11 1 00999K11 1 00075L11 1 01000M11 1 29820N11 1 00000Q11 1 10111S11 1 00081W11 1 00000
0082749034999991946120314004+07733-080133SAO  +0014MPCI V0203381N004112200019N0240001N1+02801+02411101051ADDGA1021+007509089GA2011+036009049GF102991999999999999999999MA1999999100881MW1001
0082592870999991946070304004+23133+113317SAO  +0008ZGGG V0201801N003610036019N1600001N1+03131+02681100541ADDGA1061+003609089GA2011+066009009GF107991999999999999999999MA1999999100411MW1001
0029719650999991946030806004+63583-135850FM-12+049599999V0209991C000019999999N0450001N9-00781+99999101351ADDGF108991081999017501999999
0098913660406041946032303004+08733+167733SAO  +0008PKWA V0200451N011310330019N1600001N1+02911+02301100711ADDGA1021+006009089GA2051+033009049GA3011+075009029GF108991999999999999999999MA1999999100711MW1001
0082722586999991946082400004+33717-096667SAO  +0233PNX  V0201131N003612200019N0240001N1+03131+01521101421ADDGA1021+033009049GA2031+063009009GF107991999999999999999999MA1999999098781MW1001
0066788610999991946010709004+17117-061783SAO  +0010TAPA V0200451N007212200019N0240001N1+02411+01801101661ADDGA1021+007509089GF102991999999999999999999MA1999999101521MW1001
0051727755241121946021210004+47517-111183SAO  +1054KGFA V0202301N004112200019N0480001N9-01371-01641101621ADDGA1011+033009049GF102991999999999999999999MW1001
0259722585939011946040623005+32733-096967SAO  +0150NBE  V02027059001552200049N019200599+03395+01395100885ADDGA1999+067064004GD19085+9999999GD29999+9999999GD39999+9999999GD49999+9999999MA1999999099325EQDN01 00000JPWTH 1QNNE11 1 09910E11 1 09999E11 1 09999E11 1 09999G11U1 99999H11 1 32220K11 1 00057L11 1 01200M11 1 29330N11 1 00000Q11 1 10088S11 1 00093W11 1 77003
0117423670999991946102503004+26467+080350FM-12+012699999V0209991C00001220001CN0040001N9+02391+01831101161ADDAY101999GA1999+000159999GA2999+000159999GF100991001001999999001001KA1999N+01941EQDQ01    003SCCGA1Q02    003SCCGA2
0051749340999991946020200004+30583+107833SAO  +0501RLGN V0209991C000010180019N0024001N1+00631+00521103731ADDGA1081+018009059GF108991999999999999999999MW1451
0128999999107151946032600005+09367-079900SAO  +0004MBFS V02002359002650076249N011200599+02615+02285100995ADDMA1999999100955EQDN01 00000JPWTH 1QNNG11 1 00025K11 1 00073L11 1 00700M11 1 29810N11 1 00000Q11 1 10099S11 1 00079W11 1 12005
0066749509999991946101818004+13517+144817SAO  +005499999V0200901N001012200019N0240001N1+02351+02301100981ADDGA1021+006009089GF102991999999999999999999MA1999999100001MW1001
0066724338138021946071105004+38550-089983SAO  +0134BLV  V0202001N003612200019N0160001N9+02351+02181101321ADDGA1021+036009039GF102991999999999999999999MA1999999099761MW1001
0346783670117061946040323003+19900-075150SAO  +0016MUGM V02036059005252200049N0240005N9+02565+01895101325ADDGA1021+999999084GA2999+999999999GA3999+999999999GA4999+999999999GD19025+9999999GD29005+9999999GD39005+9999999GD49005+9999999MA1999999100915MW1001EQDN01 00000JPWTH 1QNNE11 1 09903E11 1 09900E11 1 09900E11 1 09900G11U1 99999H11 1 11999H11 1 00999H11 1 00999H11 1 00999K11 1 00066L11 1 01500M11 1 29800N11 1 00000Q11 1 10132S11 1 00078W11 1 11010
006172363023047194610131000D+35233-101700SAO  +1099AMA  V0202481N008212200019N0240001N1+00691+00461101101ADDAA101000095GF102991999999999999999999MA1999999088861MW1001
0239999999931141946122517005+33700-117833SAO  +002999999V02006859002150091449N004000599+01444+01335101644ADDGA1999+009144064GD19085+9999999GD29999+9999999GD39999+9999999MA1999999101324MW1615EQDN01 02000JPWTH 1QNNE11 1 09910E11 1 09999E11 1 09999G11 1 00030H11 1 15030K11 1 00056L11 1 00250M11 1 29920N11 1 02000Q11 1 10164S11 1 00058W11 1 32004
0066101360999991946101906004+53767+008667SAO  +0032EDCN V0200901N003612200019N0024001N1+00631+99999102181ADDGA1021+021009039GF102991999999999999999999MA1999999101861MW1111
0066749345999991946062217004+30417+103917SAO  +000099999V0200451N002610090019N0032001N1+02411+02351099761ADDGA1081+009009079GF108991999999999999999999MA1999999094511MW1051
0050722970231291946120507004+33817-118150SAO  +0012LGB  V0200901N001012200019N0048001N1+01571+01351101731ADDGF100991999999999999999999MA1999999101591MW1051
0050702710264251946101822004+62150-145450SAO  +0481GKN  V0201351N002610042019N0192001N1+00301+00021099221ADDGF107991999999999999999999MA1999999093501MW1001
0041984280412241946112717004+14500+120917SAO  +0002RPMS V0200901N003112200019N0192001N1+02631+02351101111ADDGA1021+006009089GA2021+030009039MW1001
0066749445999991946011303004-15500+167250SAO  +000999999V0201351N004612200019N1600001N1+03021+02521100581ADDGA1041+013509089GF102991999999999999999999MA1999999100471MW1001
0340999999107151946022508005+09367-079900SAO  +0004MBFS V02036059001552200049N016000599+02505+02005101185ADDGA1999+999999084GA2999+999999999GA3999+999999999GA4999+999999999GD19025+9999999GD29005+9999999GD39005+9999999GD49005+9999999MA1999999101125EQDN01 00000JPWTH 1QNNE11 1 09902E11 1 09900E11 1 09900E11 1 09900G11U1 99999H11 1 11999H11 1 00999H11 1 00999H11 1 00999K11 1 00068L11 1 01000M11 1 29860N11 1 00000Q11 1 10118S11 1 00077W11 1 11003
0066843900999991946072111004-04567-081250SAO  +0086SPYL V0201801N010310030019N0560001N1+01631+01521101191ADDGA1071+003009059GF107991999999999999999999MA1999999100171MW1001
0060723810231141946111803004+34967-117900SAO  +0693EDW  V0200901N001012200019N0640001N9+00961+00351102201ADDGA1001+999999999GF100991999999999999999999MA1999999094111
0050702031266201946032105004+64200-162050SAO  +0005MOS  V0200681N001512200019N0480001N1-02981-04031100911ADDGF100991999999999999999999MA1999999100851MW1001
0066725810241931946122520004+40733-114033SAO  +1292ENV  V0202031N002110009019N0048001N1+00131+00081102241ADDGA1081+000909079GF108991999999999999999999MA1999999087501MW1451
0066704890999991946041400004+53900-166533SAO  +0004DUT  V0203151N010810060019N0112001N1-00151-00371100611ADDGA1081+006009059GF108991999999999999999999MA1999999100441MW1871
0340999999938411946030909005+99999+999999SAO  +999999999V02036059004652200049N011200599+00834+00335102344ADDGA1999+999999999GA2999+999999999GA3999+999999999GA4999+999999999GD19005+9999999GD29005+9999999GD39005+9999999GD49005+9999999MA1999999101664EQDN01 00000JPWTH 1QNNE11 1 09900E11 1 09900E11 1 09900E11 1 09900G11U1 99999H11 1 00999H11 1 00999H11 1 00999H11 1 00999K11 1 00038L11 1 00700M11 1 30020N11 1 00000Q11 1 10234S11 1 00047W11 1 11009
0177725280147331946110314003+42933-078733SAO  +0217BUF  V02015859002150213449N0048005N1+01565+01445101905ADDGF106995999999999999999999MA1999999099325MW1045MW2051EQDN01 08200JPWTH 1QNNG11 1 00070K11 1 00058L11 1 00300M11 1 29330N11 1 08200Q11 1 10190S11 1 00060V11 1 00899W11 1 54004
0066749044999991946101706004+26367-080100SAO  +0005BCT  V0200901N004612200019N0016001N1+02461+01961101321ADDGA1031+006009089GF102991999999999999999999MA1999999101251MW1001
0066722575999991946092517004+31083-097683SAO  +0256ILE  V0209991C000010240019N0112001N1+02681+02181102001ADDGA1081+024009059GF108991999999999999999999MA1999999098751MW1001
0082723650230501946081015004+35050-106617SAO  +1620ABQ  V0201101N007712200019N0960001N9+02301+01191101801ADDGA1021+015009089GA2021+048009039GF102991999999999999999999MA1999999084461MW1001
0050749178999991946111520004+35367-120850SAO  +0020MQO  V0203601N005112200019N0160001N1+01631+00801102291ADDGF100991999999999999999999MA1999999102071MW1001
0098747750138461946011422004+30067-085583SAO  +0006PAM  V0200701N001510300019N0080001N9+01521+00851101901ADDGA1031+013509059GA2021+030009039GA3021+030009049GF108991999999999999999999MA1999999101831MW1041
0072106330999991946061707004+50050+008333SAO  +0145EDOU V0202301N002110045019N0012001N9+01191+01191101441ADDGA1081+004509079GF108991999999999999999999MA1999999099701MW1451MW2611
0066727130146041946060512004+46683-068050SAO  +0146PQI  V0201801N003110060019N0240001N1+01021+00691101591ADDGA1081+006009059GF108991999999999999999999MA1999999099831MW1001
0057710430999991946061908004+65250-126633FM-12+008899999V02099999999999999999N9999999N9+99999+99999999999ADDAA124001091AJ100009199999999KA1999M+01721KA2999N+01441
0066703610253391946032516004+59517-139667SAO  +0009CYAK V0209991C000010330019N0096001N1-00311-00421098101ADDGA1071+033009049GF107991999999999999999999MA1999999098001MW1111
0066704851999991946081219004+53367-167900SAO  +0039UNS  V0202031N011310054019N0112001N1+01131+00961101081ADDGA1081+005409059GF108991999999999999999999MA1999999100611MW1001
0340999999107151946090820005+09367-079900SAO  +0004MBFS V02027059005250045749N016000599+02785+02505100695ADDGA1999+004574084GA2999+030484034GA3999+999999999GA4999+999999999GD19055+9999999GD29055+9999999GD39005+9999999GD49005+9999999MA1999999100645EQDN01 00000JPWTH 1QNNE11 1 09906E11 1 09906E11 1 09900E11 1 09900G11 1 00015H11 1 11015H11 1 23100H11 1 00999H11 1 00999K11 1 00077L11 1 01000M11 1 29720N11 1 00000Q11 1 10069S11 1 00082W11 1 77010
0072743941999991946081705004+42933-071433SAO  +0076MHT  V0201581N005110024019N0040001N1+01691+01691101591ADDGA1081+002409059GF108991999999999999999999MA1999999100751MW1451MW2611
0066749161999991946020722004+31517-103133SAO  +079848F  V0201581N001512200019N0320001N1+02301-00261100851ADDGA1061+084009009GF107991999999999999999999MA1999999091911MW1001
0265701740265331946030815003+66917-151517SAO  +0196BTT  V02033859004150061049N0064005N1-01445-01675999999ADDGA1081+006104074GD19085+9999999GD29999+9999999GD39999+9999999GF108995999999999999999999MA1999999098275MW1715EQDN01 04000JPWTH 1QNNE11 1 09910E11 1 09999E11 1 09999G11 1 00020H11 1 16020K11 1 00002L11 1 00400M11 1 29020N11 1 04000S11 1 00006V11 1 01099W11 1 18008
0340999999148551946121722005+42083-087833SAO  +0197NBU  V02029359009352200049N024000599-00725-01005102285ADDGA1999+999999024GA2999+999999999GA3999+999999999GA4999+999999999GD19025+9999999GD29005+9999999GD39005+9999999GD49005+9999999MA1999999099705EQDN01 00000JPWTH 1QNNE11 1 09903E11 1 09900E11 1 09900E11 1 09900G11U1 99999H11 1 37999H11 1 00999H11 1 00999H11 1 00999K11 1 00014L11 1 01500M11 1 29440N11 1 00000Q11 1 10228S11 1 00019W11 1 78018
017699999913739194608120700E+39883-075233SAO  +000899999V02029359001552200059N011200599+01725+01395101595ADDAA101000095GF102995999999999999999999MA1999999101495EQDN01 00000JPWTH 1QNNG11U1 99999K11 1 00057L11 1 00700M11 1 29970N11 1 00000Q11 1 10159S11 1 00063V11 1 00299W11 1 78003
0239999999231961946032420005+99999+999999SAO  +999999999V02022559002150106749N009600599+01445+01065101765ADDGA1999+010674064GD19085+9999999GD29999+9999999GD39999+9999999MA1999999099865MW1055EQDN01 08100JPWTH 1QNNE11 1 09910E11 1 09999E11 1 09999G11 1 00035H11 1 15035K11 1 00051L11 1 00600M11 1 29490N11 1 08100Q11 1 10176S11 1 00058W11 1 66004
0066404160999991946031008004+26267+050150SAO  +0023OEDR V0203401N004112200019N0192001N9+02301+00691102011ADDGA1001+999999999GF100991999999999999999999MA1999999101731MW1001
0066744910147031946022822004+42200-072533SAO  +0075CEF  V0203201N005712200019N0160001N9+00021-00421101761ADDGA1021+033009049GF102991999999999999999999MA1999999100811MW1001
0082704540257041946041401004+51883-176650SAO  +0005PADK V0202701N008710096019N0320001N9+00191-00531102131ADDGA1051+009609059GA2081+030009049GF108991999999999999999999MA1999999102071MW1001
0383783670117061946080712003+19900-075150SAO  +0016MUGM V02002359002152200049N0240005N9+02505+02335101695ADDAA124003091GA1021+009144084GA2021+999999034GA3999+999999999GA4999+999999999GD19025+9999999GD29025+9999999GD39005+9999999GD49005+9999999KA1999M+03301KA2999N+02351MA1999999101295MW1001EQDN01 00000JPWTH 1QNNE11 1 09902E11 1 09902E11 1 09900E11 1 09900G11U1 99999H11 1 11030H11 1 23999H11 1 00999H11 1 00999K11 1 00074L11 1 01500M11 1 29910N11 1 00000Q11 1 10169S11 1 00077W11 1 12004
0066106530999991946091122004+49667+009883SAO  +0300EDEU V0202501N003112200019N0128001N9+01241+99999101871ADDGA1031+021009039GF102991999999999999999999MA1999999098271MW1001
0066723030137141946040513004+35183-079017SAO  +0064POB  V0203201N005112200019N0192001N9+01741+00131101491ADDGA1001+999999999GF100991999999999999999999MA1999999100781MW1001
0372701740265331946062820003+66917-151517SAO  +0196BTT  V02015859001052200059N0800005N1+02175+01065999999ADDGA1999+999999999GA2999+999999999GA3999+999999999GA4999+999999999GD19005+9999999GD29005+9999999GD39005+9999999GD49005+9999999GF101995999999999999999999MA1999999098925MW1001EQDN01 00000JPWTH 1QNNE11 1 09900E11 1 09900E11 1 09900E11 1 09900G11U1 99999H11 1 00999H11 1 00999H11 1 00999H11 1 00999K11 1 00051L11 1 05000M11 1 29210N11 1 00000S11 1 00071V11 1 00199W11 1 54002
0340999999137731946101703005+38500-077317SAO  +000499999V02020359003152200049N012800599+01225+01005102005ADDGA1999+999999999GA2999+999999999GA3999+999999999GA4999+999999999GD19005+9999999GD29005+9999999GD39005+9999999GD49005+9999999MA1999999101965EQDN01 00000JPWTH 1QNNE11 1 09900E11 1 09900E11 1 09900E11 1 09900G11U1 99999H11 1 00999H11 1 00999H11 1 00999H11 1 00999K11 1 00050L11 1 00800M11 1 30110N11 1 00000Q11 1 10200S11 1 00054W11 1 56006
0066745980137021946101715004+37083-076350SAO  +0002LFI  V0202001N004612200019N0160001N9+01891+01221101761ADDGA1001+999999999GF100991999999999999999999MA1999999101731MW1001
0270722265138211946091500003+32383-086350SAO  +0053MXF  V02009059004650061049N0112005N9+02285+01835101765ADDGA1081+006104064GD19085+9999999GD29999+9999999GD39999+9999999GF108995999999999999999999MA1999999101125EQDN01 00000JPWTH 1QNNE11 1 09910E11 1 09999E11 1 09999G11 1 00020H11 1 15020K11 1 00065L11 1 00700M11 1 29860N11 1 00000Q11 1 10176S11 1 00073V11 1 01099W11 1 33009
0050723060137221946061908004+35867-078783SAO  +0134RDU  V0202701N001012200019N0240001N1+02351+02181101491ADDGF102991999999999999999999MA1999999099931MW1001
0082722235138381946050122004+30633-088067SAO  +0008BFM  V0201581N006712200019N0192001N1+02571+02021101421ADDGA1021+007509089GA2061+075009029GF108991999999999999999999MA1999999101321MW1001
0340999999938391946010123005+99999+999999SAO  +999999999V02031559001552200049N016000599+00114-00565102654ADDGA1999+036584044GA2999+999999999GA3999+999999999GA4999+999999999GD19025+9999999GD29005+9999999GD39005+9999999GD49005+9999999MA1999999101524EQDN01 00000JPWTH 1QNNE11 1 09902E11 1 09900E11 1 09900E11 1 09900G11U1 99999H11 1 21120H11 1 00999H11 1 00999H11 1 00999K11 1 00022L11 1 01000M11 1 29980N11 1 00000Q11 1 10265S11 1 00034W11 1 88003
004594999900222194606110800N-33050+151600AUST +0009     V0203605N001059999999N999999999+01145+99999999999ADDGA1005+999999999GF100995004999999999999999
0117424630999991946032412004+25450+078583FM-12+025199999V0202901N00261220001CN0200001N9+02671-01611100661ADDAY101999GA1999+000159999GA2999+000159999GF100991001001999999001001KA1999M+02941EQDQ01    003SCCGA1Q02    003SCCGA2
0117983270999991946051201004+15183+120550SAO  +0145RPMK V0201101N003610600019N0240001N9+03071+02301100951ADDGA1041+010509089GA2999+021009999GA3021+060009009GF107991999999999999999999MA1999999099221MW1001EQDQ01    003SCCGA2
0056725115147111946102802004+40200-076767SAO  +0097MDT  V0209991C000012200019N0032001N1+01461+01351103221ADDGF100991999999999999999999MA1999999102071MW1041MW2451
0066601560999991946122808004+33367-007583SAO  +0206GMMN V0202031N003110075019N0112001N1+00961+00961102711ADDGA1081+007509059GF108991999999999999999999MA1999999102131MW1001
0051335620999991946050611004+49233+028467FM-12+028799999V0201601N00461007801CN0100001N9+01891+99999101561ADDAY111999GF108991081051008001999999MD1810061+9999
0082162980999991946111121004+40900+014300SAO  +0093LIRN V0202251N002110210019N0112001N1+01521+01071100911ADDGA1021+012009059GA2051+021009049GF107991999999999999999999MA1999999099831MW1001
0082749330999991946011523004+26333+127783SAO  +007599999V0203601N005712200019N0192001N1+01571+00741102101ADDGA1021+007509059GA2021+024009039GF102991999999999999999999MA1999999101191MW1001
0077853640999991946022218004-21533-064783FM-12+190599999V0202001N001019999999N0500001N9+02561+01391999999ADDAY101999GF106991031081999999071999MA1999999100601MW1021EQDQ01+000992SCOLCB
0066722210138581946061707004+30483-086517SAO  +0025VPS  V0209991C000012200019N0160001N9+02351+02301101961ADDGA1021+060009009GF102991999999999999999999MA1999999101761MW1001
0050702735264091946032901004+61217-149833SAO  +0041MRI  V0201351N001512200019N0800001N1+00131-01091101491ADDGF100991999999999999999999MA1999999100981MW1001
0233999999242551946112412005+99999+999999SAO  +999999999V02009059002650076249N012800599+00615+00505101325ADDGA1999+007624074GD19085+9999999GD29999+9999999GD39999+9999999MA1999999101225EQDN01 00000JPWTH 1QNNE11 1 09910E11 1 09999E11 1 09999G11 1 00025H11 1 16025K11 1 00041L11 1 00800M11 1 29890N11 1 00000Q11 1 10132S11 1 00043W11 1 33005
0050722423129231946101920004+29267-094867SAO  +0002GLS  V0201581N005712200019N0224001N1+02801+02461101761ADDGF102991999999999999999999MA1999999101731MW1001
0066749044999991946082304004+26367-080100SAO  +0005BCT  V0202931N001510360019N0128001N1+02571+02521101731ADDGA1081+036009049GF108991999999999999999999MA1999999101661MW1001
0066592870999991946071210004+23133+113317SAO  +0008ZGGG V0201801N005110060019N0032001N1+02461+02461100001ADDGA1081+006009049GF108991999999999999999999MA1999999099861MW1611
0050723555999991946122907004+34300-097017SAO  +0235ADM  V0203381N012312200019N0240001N1-00651-01151102301ADDGF100991999999999999999999MA1999999099091MW1001
0340999999225191946030713005+21450-157767SAO  +001599999V02009059009852200049N024000599+02225+01785101925ADDGA1999+009144084GA2999+999999999GA3999+999999999GA4999+999999999GD19035+9999999GD29005+9999999GD39005+9999999GD49005+9999999MA1999999101765EQDN01 00000JPWTH 1QNNE11 1 09904E11 1 09900E11 1 09900E11 1 09900G11U1 99999H11 1 11030H11 1 00999H11 1 00999H11 1 00999K11 1 00064L11 1 01500M11 1 30050N11 1 00000Q11 1 10192S11 1 00072W11 1 33019
004594910099999194609181700N-35170+147470AUST +0213YSWG V0200905N005759999999N999999999+01075+99999999999ADDGA1005+999999999GF102995004999999999999999
0093852070999991946092522004-16367-060983FM-12+037099999V0202301N00311007801CN0500001N9+02721+01331999999ADDAY121999GF108991061051008001071001MA1999999096231MW1031EQDQ01+000042APCTENQ02+000102APC3  
0165999999137531946010813005+39450-074583SAO  +002099999V02036059002150182949N016000599+00945+00785102425ADDGF108995999999999999999999MA1999999102075EQDN01 00000JPWTH 1QNNG11 1 00060K11 1 00046L11 1 01000M11 1 30140N11 1 00000Q11 1 10242S11 1 00049V11 1 01099W11 1 11004
0051317350999991946020416004+48517+135167FM-12+007299999V0202301N00461220001CN0040001N9+99999+99999102591ADDAY101999GF100991001001999999001001MD1610041+9999
0025710450999991946102710004+60167-132750SAO  +0705CYZW V0203601N002612200019N0480001N1-00651-01091102491ADDGA1081+999999039MW1001
0066911700225081946011420004+21483-158050SAO  +0257PHHI V0200501N008710105019N1600001N9+02181+01411101801ADDGA1061+010509059GF107991999999999999999999MA1999999098781MW1001
0050722448999991946110422004+32367-095400SAO  +0168TYR  V0201131N003610090019N0144001N1+02351+02071101691ADDGF107991999999999999999999MA1999999099861MW1001
0114484560999991946082509004+13917+100600SAO  +0004VTBD V0202031N007210300019N1600001N1+03131+02461100101ADDGA1031+005409059GA2011+005409099GA3011+030009049GA4021+063009029GF108991999999999999999999MA1999999100031MW1001
0050749229999991946040623004+65900-154667SAO  +0056KOU  V0209991C000012200019N0480001N1-01871-02591102371ADDGF100991999999999999999999MA1999999101081MW1001
0082749105999991946022222004+40733-073600SAO  +003899999V0200901N004610150019N0080001N1-00201-00811101661ADDGA1061+015009059GA2021+033009039GF108991999999999999999999MA1999999101291MW1041
0286999999939051946061419005+37917-097900SAO  +047999999V02020359009352200049N024000599+03504+01615101484ADDGA1999+012194084GA2999+045724034GD19025+9999999GD29005+9999999GD39999+9999999GD49999+9999999MA1999999096044EQDN01 00000JPWTH 1QNNE11 1 09902E11 1 09900E11 1 09999E11 1 09999G11U1 99999H11 1 11040H11 1 23150K11 1 00061L11 1 01500M11 1 28360N11 1 00000Q11 1 10148S11 1 00095W11 1 56018
0340999999938411946102508005+99999+999999SAO  +999999999V02011359003652200049N012800599+02114+02065101054ADDGA1999+999999999GA2999+999999999GA3999+999999999GA4999+999999999GD19005+9999999GD29005+9999999GD39005+9999999GD49005+9999999MA1999999100444EQDN01 00000JPWTH 1QNNE11 1 09900E11 1 09900E11 1 09900E11 1 09900G11U1 99999H11 1 00999H11 1 00999H11 1 00999H11 1 00999K11 1 00069L11 1 00800M11 1 29660N11 1 00000Q11 1 10105S11 1 00070W11 1 34007
0050724663999991946030514004+38783-104717SAO  +1881PEF  V0203151N002110015019N0024001N1-00531-00651100911ADDGF108991999999999999999999MA1999999079951MW1711
0050703430254021946022201004+59433-146333SAO  +0014MDO  V0201131N014910030019N0080001N1+00521+00351098711ADDGF108991999999999999999999MA1999999098541MW1511
0066982230999991946112213004+18183+120533SAO  +0005RPML V0201351N001012200019N0400001N1+02241+02181101351ADDGA1011+069009029GF102991999999999999999999MA1999999101251MW1001
0066825990999991946011707004-05917-035250SAO  +0049SBNT V0201131N002612200019N0192001N1+02521+02241101251ADDGA1041+006009089GF102991999999999999999999MA1999999100681MW1001
0066911700225081946122912004+21483-158033SAO  +0257PHHI V0209991C000012200019N0240001N9+01571+01571101121ADDGA1021+009009089GF102991999999999999999999MA1999999098141MW1001
0340999999129281946031008005+27500-097800SAO  +001899999V02036059003152200049N019200599+00945+00835102625ADDGA1999+999999999GA2999+999999999GA3999+999999999GA4999+999999999GD19005+9999999GD29005+9999999GD39005+9999999GD49005+9999999MA1999999102405EQDN01 00000JPWTH 1QNNE11 1 09900E11 1 09900E11 1 09900E11 1 09900G11U1 99999H11 1 00999H11 1 00999H11 1 00999H11 1 00999K11 1 00047L11 1 01200M11 1 30240N11 1 00000Q11 1 10262S11 1 00049W11 1 11006
0066711896999991946111503004+50283-064167SAO  +0022CYLP V0203601N005112200019N0320001N1-00371-00591101081ADDGA1021+027009049GF102991999999999999999999MA1999999100781MW1001
0066843900999991946031023004-04567-081250SAO  +0086SPYL V0202701N007712200019N0720001N1+02631+01801100851ADDGA1021+090009009GF102991999999999999999999MA1999999099831MW1001
0340999999137521946072201005+38983-076483SAO  +001299999V02013559002652200049N012800599+02335+02005101495ADDGA1999+009144084GA2999+039624044GA3999+067064024GA4999+999999999GD19025+9999999GD29025+9999999GD39035+9999999GD49005+9999999MA1999999101355EQDN01 00000JPWTH 1QNNE11 1 09903E11 1 09902E11 1 09904E11 1 09900G11U1 99999H11 1 11030H11 1 21130H11 1 37220H11 1 00999K11 1 00068L11 1 00800M11 1 29930N11 1 00000Q11 1 10149S11 1 00074W11 1 44005
0029719371999991946021912004+66083-118033FM-12+018399999V0203601N002619999999N0500001N9-03001+99999102481ADDGF100991001999999999999999
0050749026999991946030722004+08233-078900SAO  +0024MPYI V0203151N004112200019N0192001N1+02741+01851100811ADDGF100991999999999999999999MA1999999100541MW1001
0051727755241121946091122004+47517-111183SAO  +1054GFA  V0202501N003610600019N0960001N9+02911+01351101161ADDGA1061+060009009GF107991999999999999999999MW1001
0066725755241011946090802004+41117-111967SAO  +1459HIF  V0203401N009812200019N0640001N9+01571+00631100951ADDGA1021+030009039GF102991999999999999999999MA1999999085001MW1001
0219999999242541946090215005+99999+999999SAO  +999999999V02015859000550018349N001300599+01445+01335101805ADDGA1999+001834074GD19085+9999999GD29999+9999999GD39999+9999999MW1455MW2515EQDN01 03370JPWTH 1QNNE11 1 09910E11 1 09999E11 1 09999G11 1 00006H11 1 16006K11 1 00056L11 1 00081N11 1 03370Q11 1 10180S11 1 00058W11 1 54001
0082724467139301946042901004+38767-093550SAO  +0265SZL  V0200201N003610300019N0096001N9+01461+01351101291ADDGA1051+030009039GA2021+036009049GF107991999999999999999999MA1999999098271MW1451
0117427540999991946010503004+22717+075900FM-12+055699999V0200501N00101220001CN0040001N9+00721+00111102171ADDAY101999GA1999+000159999GA2999+000159999GF100991001001999999001001KA1999N+00611EQDQ01    003SCCGA1Q02    003SCCGA2
0377702000266171946092607005+64500-165433SAO  +0004OME  V02031559001552200059N040000599+00335+00225101905ADDGA1999+999999999GA2999+999999999GA3999+999999999GA4999+999999999GD19005+9999999GD29005+9999999GD39005+9999999GD49005+9999999GF107995999999999999999999MA1999999101835EQDN01 00000JPWTH 1QNNE11 1 09900E11 1 09900E11 1 09900E11 1 09900G11U1 99999H11 1 00999H11 1 00999H11 1 00999H11 1 00999K11 1 00036L11 1 02500M11 1 30070N11 1 00000Q11 1 10190S11 1 00038V11 1 00999W11 1 88003
0025719675999991946111017004+62417-140867SAO  +0649CYXQ V0201351N001510240019N0640001N1-01531-01761101921ADDGA1081+999999049MW1001
0066745160232021946090805004+38267-121933SAO  +0017SUU  V0202301N007212200019N0160001N9+01831+01051101021ADDGA1001+999999999GF100991999999999999999999MA1999999100811MW1001
0098108690999991946080906004+48317+011950SAO  +0467EDSE V0202031N001510270019N0128001N1+01851+01521101221ADDGA1021+015009059GA2041+027009039GA3021+063009029GF107991999999999999999999MA1999999095901MW1001
0058852830999991946112218004-19050-065267FM-12+285199999V0200501N00211007801CN0500001N9+02001+00721999999ADDAY121999GF108991051081008001001071MA1999999102501MW1031
0377702000266171946082118005+64500-165433SAO  +0004OME  V02031559001550243849N032000599+00725+00725100585ADDGA1999+003664074GA2999+024384034GA3999+999999999GA4999+999999999GD19025+9999999GD29065+9999999GD39005+9999999GD49005+9999999GF106995999999999999999999MA1999999100515EQDN01 00000JPWTH 1QNNE11 1 09903E11 1 09908E11 1 09900E11 1 09900G11 1 00080H11 1 16012H11 1 23080H11 1 00999H11 1 00999K11 1 00045L11 1 02000M11 1 29680N11 1 00000Q11 1 10058S11 1 00045V11 1 00899W11 1 88003
0035912750216031946101215004+16733-169533SAO  +0002PJON V0200701N007212200019N0192001N9+02631+02181101001ADDGA1021+005409089GA2021+024009049
0058851040999991946050718004-13067-046800FM-12+020099999V0202701N00211004501CN0500001N9+99999+99999999999ADDAY101999GF108991081081004501001001MA1999999099321MW1031
0066722860231191946121005004+33900-117250SAO  +0466RIV  V0203601N004612200019N0240001N9+01281-00061102101ADDGA1021+054009039GF102991999999999999999999MA1999999096581MW1001
0066722886231301946081323004+34217-118483SAO  +0244VNY  V0201401N006712200019N0160001N9+03071+01461101321ADDGA1001+999999999GF100991999999999999999999MA1999999098541MW1001
0066691174999991946052502004+39833-076117SAO  +0002KQAH V0201131N003612200019N0128001N1+01691+01351101861ADDGA1021+060009009GF102991999999999999999999MA1999999101631MW1001
0098749026999991946091015004+08233-078900SAO  +0024MPYI V0203601N002610600019N0320001N1+02851+02741100911ADDGA1021+006009059GA2021+036009049GA3041+060009029GF108991999999999999999999MA1999999100641MW1001
0383722525129201946121314003+27533-099467SAO  +0144LOI  V02031559001552200059N0240005N1+00895+00285101465ADDGA1999+999999999GA2999+999999999GA3999+999999999GA4999+999999999GD19005+9999999GD29005+9999999GD39005+9999999GD49005+9999999GF106995999999999999999999MA1999999099635MW1001EQDN01 00000JPWTH 1QNNE11 1 09900E11 1 09900E11 1 09900E11 1 09900G11U1 99999H11 1 00999H11 1 00999H11 1 00999H11 1 00999K11 1 00037L11 1 01500M11 1 29420N11 1 00000Q11 1 10146S11 1 00048V11 1 00799W11 1 88003
0082723535999991946081109004+36333-097833SAO  +0390END  V0200901N002612200019N0240001N9+02241+01241101691ADDGA1011+045009039GA2011+075009009GF102991999999999999999999MA1999999097191MW1001
0066722555129351946080315004+28717-096250SAO  +0005PSX  V0201581N004612200019N0192001N1+03071+02461101761ADDGA1031+007509089GF102991999999999999999999MA1999999101691MW1001
0066725115147111946072601004+40200-076767SAO  +0097MDT  V0203151N001510150019N0240001N1+02181+01131101661ADDGA1071+015009039GF107991999999999999999999MA1999999100541MW1001
0029719164999991946062900004+63333-090717FM-12+000499999V0201801N006719999999N0200001N9+00671+00281101631ADDGF100991001001999999001001
0098785140999991946091713004+18500-067133SAO  +0075TJBQ V0200901N007210600019N0240001N1+02801+02181101731ADDGA1021+009009089GA2011+024009049GA3051+060009009GF107991999999999999999999MA1999999100911MW1001
0066725526999991946011706004+40733-099000SAO  +0649EAR  V0203601N005712200019N0160001N1-00261-00591102681ADDGA1021+033009039GF102991999999999999999999MA1999999094821MW1001
0082749034999991946090312004+07733-080133SAO  +0014MPCI V0202931N001510300019N0128001N1+02461+02461100811ADDGA1041+009009059GA2021+030009049GF107991999999999999999999MA1999999100641MW1001
0377999999938371946030518005+30233-081667SAO  +0009NIP  V02011359004150152449N016000599+02444+01175102604ADDGA1999+015244034GA2999+999999999GA3999+999999999GA4999+999999999GD19075+9999999GD29005+9999999GD39005+9999999GD49005+9999999GF107995999999999999999999MA1999999102474EQDN01 00000JPWTH 1QNNE11 1 09909E11 1 09900E11 1 09900E11 1 09900G11 1 00050H11 1 23050H11 1 00999H11 1 00999H11 1 00999K11 1 00053L11 1 01000M11 1 30260N11 1 00000Q11 1 10260S11 1 00076V11 1 00999W11 1 34008
009372221013858194608280200D+30483-086517SAO  +0025VPS  V0209991C000010360019N0160001N9+02521+02181101291ADDAA101000095GA1041+009009059GA2041+036009039GF108991999999999999999999MA1999999101081MW1001
0066724956232111946051200004+38067-122517SAO  +0003SRF  V0203151N007212200019N0160001N1+01801+00961101571ADDGA1999+004509999GF100991999999999999999999MA1999999101561MW1001
0171999999147621946011501005+40350-079933SAO  +038899999V02020359005252200059N008000599-00065-00785101905ADDGF101995999999999999999999MA1999999097125MW1045EQDN01 08000JPWTH 1QNNG11U1 99999K11 1 00018L11 1 00500M11 1 28680N11 1 08000Q11 1 10190S11 1 00031V11 1 00199W11 1 56010
0050723546139691946102822004+36733-097100SAO  +0304PNC  V0201801N011312200019N0240001N1+02801+01691101521ADDGF102991999999999999999999MA1999999098001MW1001
0082103840999991946081318004+52467+013400SAO  +0049EDBB V0202031N002110330019N0160001N1+01911+01241101081ADDGA1031+005409059GA2081+033009049GF108991999999999999999999MA1999999100511MW1001
0166724040137211946091907003+38283-076417SAO  +0014NHK  V02031559002152200049N0080005N1+01725+01725102425ADDGA1001+999999999MA1999999102275MW1455EQDQ01    003PRSWM1N01 07000JPWTH 1QNNG11U1 99999K11 1 00063L11 1 00500M11 1 30200N11 1 07000Q11 1 10242S11 1 00063W11 1 88004
0050043820999991946101903004+61933-042067SAO  +001399999V0200451N001010001519N0080001N1+00191+00191100001ADDGF108991999999999999999999MA1999999099831MW1631
0050812250999991946101608004+05450-055200SAO  +0015SMZY V0209991C000012200019N0096001N1+02071+02021100981ADDGF100991999999999999999999MA1999999100751MW1451
0128432260999991946082512004+14283+074450FM-12+002699999V0202901N00261015001CN0200001N9+02611+02331100561ADDAA199020091AY161999GA1999+000159999GA2999+000159999GF107991071081017501001001KA1999M+02781EQDQ01    003SCCGA1Q02    003SCCGA2
0050722596139611946092607004+32817-097350SAO  +0215FTW  V0201801N001510054019N0192001N1+02351+02131101661ADDGF107991999999999999999999MA1999999099191MW1001
0104852680999991946061512004-18333-059750FM-12+030099999V0202001N003119999999N0200001N9+01441+01111999999ADDAA199001091AY121999GF108991021051017501071001MA1999999099291MW1031EQDQ01+000042APCTENQ02+000302APC3  
0066749118999991946091606004+54767-058450SAO  +001099999V0201351N008710060019N0320001N1+00631+00521100851ADDGA1081+006009079GF108991999999999999999999MA1999999100641MW1611
0050724567139211946101214004+39367-094917SAO  +0238FLV  V0201801N001512200019N0240001N1+00581+00131101761ADDGF100991999999999999999999MA1999999098881MW1001
0050724060937211946050119004+39250-076667SAO  +0047BWI  V0202031N004610060019N0064001N1+01911+01521102371ADDGF108991999999999999999999MA1999999102301MW1041
0051108640999991946110823004+48067+011633SAO  +0560EDSN V0201131N003610045019N0048001N1-00041-00151101081ADDGA1081+004509059GF108991999999999999999999MW1051
0050623660999991946041422004+30133+031400SAO  +0074NECA V0200901N008212200019N0192001N1+01801+01461101591ADDGF100991999999999999999999MA1999999100781MW1001
0054483270999991946062412004+18783+098817FM-12+031399999V0202301N002619999999N9999999N9+02831+02221999999ADDAA124001091AY161999KA1999M+03391KA2999N+02331MW1001
0050702710264251946060309004+62150-145450SAO  +0481GKN  V0209991C000012200019N1120001N1+01021+00461100781ADDGF100991999999999999999999MA1999999095091MW1001
0050722423129231946120715004+29267-094867SAO  +0002GLS  V0201351N005112200019N0192001N1+02181+01571102201ADDGF100991999999999999999999MA1999999102171MW1001
0171999999147621946101701005+40350-079933SAO  +038899999V02020359005250198149N012800599+01675+00505101695ADDGF108995999999999999999999MA1999999097125MW1805EQDN01 02300JPWTH 1QNNG11 1 00065K11 1 00041L11 1 00800M11 1 28680N11 1 02300Q11 1 10169S11 1 00062V11 1 01099W11 1 56010
0276999999137501946031701005+36933-076300SAO  +000699999V02006859009350015249N004000599+00895+00785102065ADDGA1999+001524074GD19085+9999999GD29999+9999999GD39999+9999999GF108995999999999999999999MA1999999102005MW1455EQDN01 07000JPWTH 1QNNE11 1 09910E11 1 09999E11 1 09999G11 1 00005H11 1 16005K11 1 00046L11 1 00250M11 1 30120N11 1 07000Q11 1 10206S11 1 00048V11 1 01099W11 1 32018
0088040180162011946101801004+63967-022600SAO  +0050BIKF V0201581N008210012019N0016001N1+00911+00911101191ADDGA1061+001209079GA2081+002409049GF108991999999999999999999MA1999999100471MW1451MW2611
0050623660999991946052618004+30133+031400SAO  +0074NECA V0203381N007212200019N0192001N1+02411+01411101061ADDGF100991999999999999999999MA1999999100271MW1001
0340999999414061946120511005+13483+144800SAO  +0085PGUM V02009059004152200049N032000599+02565+02285101185ADDGA1999+003054084GA2999+999999999GA3999+999999999GA4999+999999999GD19025+9999999GD29005+9999999GD39005+9999999GD49005+9999999MA1999999099025EQDN01 00000JPWTH 1QNNE11 1 09902E11 1 09900E11 1 09900E11 1 09900G11U1 99999H11 1 11010H11 1 00999H11 1 00999H11 1 00999K11 1 00073L11 1 02000M11 1 29240N11 1 00000Q11 1 10118S11 1 00078W11 1 33008
0128999999931041946062002005+35683-117683SAO  +068199999V02004559003152200049N048000599+03444+00065100754ADDMA1999999093194EQDN01 00000JPWTH 1QNNG11U1 99999K11 1 00033L11 1 03000M11 1 27520N11 1 00000Q11 1 10075S11 1 00094W11 1 22006
0056747950128671946082011004+28250-080617SAO  +0002COF  V0201581N003112200019N0240001N1+02411+02131101671ADDGA1011+999999089GA2021+999999009MA1999999101561MW1001
0066722786231041946121201004+33317-111650SAO  +0408IWA  V0209991C000010600019N0240001N9+01191+00131101191ADDGA1061+060009009GF107991999999999999999999MA1999999096381MW1001
0066724467139301946052410004+38767-093550SAO  +0265SZL  V0202701N006210036019N0128001N9+02021+01301100471ADDGA1061+003609059GF107991999999999999999999MA1999999097561MW1001
0050727130146041946032507004+46683-068050SAO  +0146PQI  V0201801N001012200019N0240001N1-00421-00871102001ADDGF100991999999999999999999MA1999999100171MW1001
0314999999137711946100216005+39883-075167SAO  +0006MUV  V02036059006752200049N024000599+01565+00065101465ADDGA1999+009144084GA2999+060964024GA3999+999999999GA4999+999999999GD19025+9999999GD29025+9999999GD39005+9999999GD49005+9999999EQDN01 00000JPWTH 1QNNE11 1 09902E11 1 09902E11 1 09900E11 1 09900G11U1 99999H11 1 11030H11 1 37200H11 1 00999H11 1 00999K11 1 00033L11 1 01500N11 1 00000Q11 1 10146S11 1 00060W11 1 11013
0066479810999991946121314004+24783+141317SAO  +0114RJAW V0200681N008710060019N0160001N1+02021+01911101651ADDGA1081+006009059GF108991999999999999999999MA1999999100411MW1001
0066567780999991946100604004+25017+102683SAO  +1892ZPPP V0200451N003610060019N1600001N1+01411+01021101931ADDGA1081+006009079GF108991999999999999999999MA1999999081751MW1001
0050691174999991946112117004+39833-076117SAO  +0002KQAH V0202031N001012200019N0048001N1+01571+00911102541ADDGF100991999999999999999999MA1999999102301MW1051
0098917000999991946010701004-02767-171717SAO  +0003PCIS V0200681N005710420019N1600001N1+03071+02351100881ADDGA1021+006009089GA2021+042009039GA3011+999999009GF107991999999999999999999MA1999999100851MW1001
0066747750138461946121013004+30067-085583SAO  +0006PAM  V0200901N000510360019N0096001N9+01461+01411102371ADDGA1061+036009039GF107991999999999999999999MA1999999102301MW1111
0066723306138251946011222004+33633-088450SAO  +0060CBM  V0203601N005110069019N0144001N9+00801+00301102781ADDGA1081+006909059GF108991999999999999999999MA1999999102001MW1001
0340999999938291946091315005+30350-087267SAO  +0021CVD  V02002359002152200049N016000599+02444+01785101684ADDGA1999+045724044GA2999+999999999GA3999+999999999GA4999+999999999GD19065+9999999GD29005+9999999GD39005+9999999GD49005+9999999MA1999999101464EQDN01 00000JPWTH 1QNNE11 1 09907E11 1 09900E11 1 09900E11 1 09900G11U1 99999H11 1 21150H11 1 00999H11 1 00999H11 1 00999K11 1 00064L11 1 01000M11 1 29960N11 1 00000Q11 1 10168S11 1 00076W11 1 12004
0050700260275021946062119004+71300-156783SAO  +0004BRW  V0201131N011812200019N0240001N1+00581+00351101801ADDGF102991999999999999999999MA1999999101731MW1001
0066724956232111946051119004+38067-122517SAO  +0003SRF  V0201131N006212200019N0128001N1+01801+01021101771ADDGA1011+006009079GF102991999999999999999999MA1999999101761MW1001
0098749120999991946082818004+51833-062883SAO  +052499999V0203151N002110210019N0240001N1+01851+01021100311ADDGA1011+012009089GA2041+021009049GA3081+024009039GF108991999999999999999999MA1999999094341MW1001
0098749509999991946092902004+13517+144817SAO  +005499999V0201351N002112200019N0240001N1+03131+02461100851ADDGA1031+006009089GA2011+048009049GA3011+090009009GF102991999999999999999999MA1999999100301MW1001
004594653099999194609280800N-32130+133720AUST +0017YPCD V0202035N007259999999N999999999+01665+99999999999ADDGA1005+999999999GF100995004999999999999999
0066719090999991946101213004+63750-068550SAO  +0020CYFB V0201801N012310075019N0112001N1+00081-00041100711ADDGA1081+007509079GF108991999999999999999999MA1999999100471MW1001
0082106420999991946052402004+50167+008967SAO  +0115EDID V0203601N002112200019N0080001N9+01071+00961101081ADDGA1011+027009049GA2011+060009029GF102991999999999999999999MA1999999099761MW1051
0066743941999991946111423004+42933-071433SAO  +0076MHT  V0203151N006210105019N0144001N1+00581+00351101051ADDGA1081+010509059GF108991999999999999999999MA1999999100201MW1001
0171725280147331946101301003+42933-078733SAO  +0217BUF  V02024859005250182949N0160005N1+00675+00395101495ADDGF108995999999999999999999MA1999999098885MW1001EQDN01 00000JPWTH 1QNNG11 1 00060K11 1 00039L11 1 01000M11 1 29200N11 1 00000Q11 1 10149S11 1 00044V11 1 01099W11 1 76010
0082703610253391946080417004+59517-139667SAO  +0009CYAK V0203381N004112200019N0640001N1+01191+00801100911ADDGA1021+012009059GA2051+075009009GF107991999999999999999999MA1999999100811MW1001
0082986180999991946081613004+09750+118733SAO  +0016RPVP V0200231N001512200019N0192001N1+02521+02241100611ADDGA1031+006009089GA2051+066009029GF108991999999999999999999MA1999999100471MW1001
0117429530999991946060512004+20267+081483FM-12+040299999V0209991C00001021001CN0200001N9+03331+02061099701ADDAY121999GA1999+000159999GA2999+000159999GF108991081091022501001001KA1999M+03831EQDQ01    003SCCGA1Q02    003SCCGA2
0066703610253391946060612004+59517-139667SAO  +0009CYAK V0203151N002110045019N0128001N1+00851+00801101661ADDGA1081+004509079GF108991999999999999999999MA1999999101561MW1511
0098477710999991946022422004+34783+135433SAO  +0015RJOO V0209991C000010045019N0048001N1+00851+00741100391ADDGA1041+004509079GA2021+004509059GA3021+024009049GF108991999999999999999999MA1999999100241MW1111
0035107880999991946093000004+48833+012567SAO  +0360EDPS V0202251N000512200019N0080001N1+00961+00801101921ADDGF100991999999999999999999MW1051
0082703160256241946061222004+55200-162717SAO  +0031CDB  V0201351N023110180019N0160001N1+00741+00521102001ADDGA1041+002709059GA2081+018009039GF108991999999999999999999MA1999999101631MW1511
0066703610253391946042308004+59517-139667SAO  +0009CYAK V0201131N007210030019N0112001N1+00241+00191101421ADDGA1081+003009079GF108991999999999999999999MA1999999101321MW1001
0025710435999991946021514004+66267-128617SAO  +0066CYGH V0200901N001010120019N0480001N1-02531-02921101751ADDGA1061+999999079MW1001
0377999999139941946011606005+38750-090383SAO  +017699999V02004559005252200059N011200599-00505-00945102985ADDGA1999+076204024GA2999+999999999GA3999+999999999GA4999+999999999GD19055+9999999GD29005+9999999GD39005+9999999GD49005+9999999GF105995999999999999999999MA1999999100815EQDN01 00000JPWTH 1QNNE11 1 09906E11 1 09900E11 1 09900E11 1 09900G11U1 99999H11 1 37250H11 1 00999H11 1 00999H11 1 00999K11 1 00015L11 1 00700M11 1 29770N11 1 00000Q11 1 10298S11 1 00023V11 1 00699W11 1 22010
0066702720999991946020217004+61233-149867SAO  +0055PAED V0203601N001510021019N0080001N9-01261-01481101831ADDGA1081+002109079GF108991999999999999999999MA1999999101051MW1711
0117433440999991946042203004+10817+078700FM-12+007899999V0203201N00261220001CN0200001N9+02831+02221100911ADDAY111999GA1999+000159999GA2999+000159999GF104991011071008001001031KA1999N+02561EQDQ01    003SCCGA1Q02    003SCCGA2
0066785140999991946012611004+18500-067133SAO  +0075TJBQ V0201131N003612200019N0240001N1+01961+01801101661ADDGA1021+009009089GF102991999999999999999999MA1999999100851MW1001
0029718160999991946031509004+53317-060433SY-SA+0044YYR  V0202501N008210030019N0016001N9-00531-00811100231ADDGF108991999999999999999999
0050702710264251946092720004+62150-145450SAO  +0481GKN  V0203381N001512200019N1120001N1-00041-00651102071ADDGF100991999999999999999999MA1999999096111MW1001
0377999999230121946090615005+39717-104900SAO  +1645LRY  V02036059002150365849N019200599+01945+00945101835ADDGA1999+036584034GA2999+999999999GA3999+999999999GA4999+999999999GD19065+9999999GD29005+9999999GD39005+9999999GD49005+9999999GF106995999999999999999999MA1999999083985EQDN01 00000JPWTH 1QNNE11 1 09908E11 1 09900E11 1 09900E11 1 09900G11 1 00120H11 1 23120H11 1 00999H11 1 00999H11 1 00999K11 1 00049L11 1 01200M11 1 24800N11 1 00000Q11 1 10183S11 1 00067V11 1 00899W11 1 11004
0278999999148341946110309005+41500-088167SAO  +0181JOT  V02009059004650006149N000800599+01445+01445101125ADDGA1999+000614074GD19085+9999999GD29999+9999999GD39999+9999999MA1999999098985MW1045MW2455MW3615EQDN01 02070JPWTH 1N02 08000JPWTH 1QNNE11 1 09910E11 1 09999E11 1 09999G11 1 00002H11 1 16002K11 1 00058L11 1 00050M11 1 29230N11 1 02070N11 1 08000Q11 1 10112S11 1 00058W11 1 33009
0082619020999991946010717004-07967-014400SAO  +0086FHAW V0201401N008210120019N0240001N9+02681+01961101221ADDGA1031+007509089GA2051+012009059GF108991999999999999999999MA1999999100241MW1001
0009719640999991946091612004+60717-135067SAO  +0703CYXY V0209991C000010001519N0002001N1+00131+00131101291ADDMW1451
0117431970999991946011603004+15850+074517FM-12+078199999V0200901N00261220001CN0200001N9+01171+00671101681ADDAY101999GA1999+000159999GA2999+000159999GF100991001001999999001001KA1999N+00891EQDQ01    003SCCGA1Q02    003SCCGA2
0050725526999991946021003004+40733-099000SAO  +0649EAR  V0201581N003612200019N0128001N1-00311-00811101761ADDGF100991999999999999999999MA1999999093871MW1001
0082788060999991946091718004+08917-079600SAO  +0009MPHO V0202901N001010360019N0144001N9+02681+02461101121ADDGA1021+002709059GA2081+036009049GF108991999999999999999999MA1999999100981MW1001
0245999999130171946122319005+34300-006600SAO  +0012GMMP V02020359004150259149N009600599+00895+00565101555ADDGA1999+999999044GD19085+9999999GD29999+9999999GD39999+9999999MA1999999101395MW1055MW2655EQDN01 02281JPWTH 1QNNE11 1 09910E11 1 09999E11 1 09999G11 1 00085H11 1 21999K11 1 00042L11 1 00600M11 1 29940N11 1 02281Q11 1 10155S11 1 00048W11 1 56008
004594203099999194611202200N-17950+122230AUST +0009YBRM V0202255N003659999999N999999999+02785+02205999999ADDGA1005+999999999GF100995004999999999999999
0050700260275021946012502004+71300-156783SAO  +0004BRW  V0200681N010812200019N0020001N1-02531-02811102811ADDGF100991999999999999999999MA1999999102741MW1381
0320722906931121946090222003+32717-117217SAO  +0015NZY  V02031559008252200049N0192005N9+02395+01785101425ADDGA1021+045724034GA2999+999999999GA3999+999999999GA4999+999999999GD19025+9999999GD29005+9999999GD39005+9999999GD49005+9999999MW1001EQDN01 00000JPWTH 1QNNE11 1 09903E11 1 09900E11 1 09900E11 1 09900G11U1 99999H11 1 23150H11 1 00999H11 1 00999H11 1 00999K11 1 00064L11 1 01200N11 1 00000Q11 1 10142S11 1 00075W11 1 88016
0066703610253391946092610004+59517-139667SAO  +0009CYAK V0200681N002612200019N0320001N1-00091-00371101591ADDGA1011+013509059GF102991999999999999999999MA1999999101491MW1001
0066727855241141946041307004+47617-117650SAO  +0741SKA  V0202301N006210600019N0400001N9+00911+00581101631ADDGA1081+060009029GF108991999999999999999999MA1999999092991MW1001
0165999999149331946071619005+41533-093650SAO  +0286DSM  V02015859007250027449N012800599+02335+02225101805ADDGF108995999999999999999999MA1999999098345EQDN01 00000JPWTH 1QNNG11 1 00009K11 1 00072L11 1 00800M11 1 29040N11 1 00000Q11 1 10180S11 1 00074V11 1 01099W11 1 54014
0314999999938401946111321005+31167-081400SAO  +000399999V02002359004152200049N016000599+01564+00835101954ADDGA1999+999999999GA2999+999999999GA3999+999999999GA4999+999999999GD19005+9999999GD29005+9999999GD39005+9999999GD49005+9999999EQDN01 00000JPWTH 1QNNE11 1 09900E11 1 09900E11 1 09900E11 1 09900G11U1 99999H11 1 00999H11 1 00999H11 1 00999H11 1 00999K11 1 00047L11 1 01000N11 1 00000Q11 1 10195S11 1 00060W11 1 12008
0098984290999991946103005004+14517+121000SAO  +0015RPMM V0200681N002610105019N0240001N1+03131+99999100911ADDGA1051+010509059GA2021+030009039GA3031+075009009GF107991999999999999999999MA1999999100851MW1001
0051031350999991946120915004+55500-004583SAO  +0020EGPK V0200681N003110045019N0048001N1+00411+00241099701ADDGA1081+004509079GF108991999999999999999999MW1051
0171725280147331946110219003+42933-078733SAO  +0217BUF  V02020359005250143349N0064005N1+01785+01225101565ADDGF108995999999999999999999MA1999999098985MW1045EQDN01 08000JPWTH 1QNNG11 1 00047K11 1 00054L11 1 00400M11 1 29230N11 1 08000Q11 1 10156S11 1 00064V11 1 01099W11 1 56010
0383703500255011946112815003+57750-152500SAO  +0034ADQ  V02031559004652200059N0240005N1-00225-00505100955ADDGA1999+999999999GA2999+999999999GA3999+999999999GA4999+999999999GD19005+9999999GD29005+9999999GD39005+9999999GD49005+9999999GF100995999999999999999999MA1999999100515MW1001EQDN01 00000JPWTH 1QNNE11 1 09900E11 1 09900E11 1 09900E11 1 09900G11U1 99999H11 1 00999H11 1 00999H11 1 00999H11 1 00999K11 1 00023L11 1 01500M11 1 29680N11 1 00000Q11 1 10095S11 1 00028V11 1 00099W11 1 88009
0082704140999991946102701004+52717+174100SAO  +0027PASY V0202501N015410060019N0160001N9+00411+00131101251ADDGA1051+006009059GA2061+045009009GF107991999999999999999999MA1999999100911MW1001
0340999999137541946041017005+34900-076883SAO  +001499999V02004559012450152449N012800599+01445+00725101845ADDGA1999+015244064GA2999+076204024GA3999+999999999GA4999+999999999GD19055+9999999GD29035+9999999GD39005+9999999GD49005+9999999MA1999999101665EQDN01 00000JPWTH 1QNNE11 1 09906E11 1 09904E11 1 09900E11 1 09900G11 1 00050H11 1 15050H11 1 37250H11 1 00999H11 1 00999K11 1 00045L11 1 00800M11 1 30020N11 1 00000Q11 1 10184S11 1 00058W11 1 22024
0082477710999991946072418004+34783+135433SAO  +0015RJOO V0203381N005112200019N0112001N1+02461+02241101001ADDGA1011+010509059GA2011+090009009GF102991999999999999999999MA1999999100851MW1001
004594610599999194611130100N-31930+115970AUST +0012YPPH V0202255N005159999999N999999999+01465+01305999999ADDGA1085+006005999GF108995084999006005999999
0066724836232081946051908004+38667-121400SAO  +0024MCC  V0201601N007210018019N0240001N9+01191+00911101051ADDGA1061+001809079GF107991999999999999999999MA1999999100781MW1001
0085474250999991946110115004+42800+141650SAO  +0027RJCC V0202931N005112200019N0320001N1+00631+99999101761ADDGA1021+010509059GF102991999999999999999999MA1999999101391MW1001EQDQ01+026513ATOD  
0133416750999991946030703004+30200+071517FM-12+012699999V0203601N00101220001CN0040001N9+01111+00501101881ADDAY111999GA1999+000159999GA2999+000159999GF104991999001999999051001KA1999N+00941EQDQ01+000002SCOTLCQ02    003SCCGA1Q03    003SCCGA2
0066722485139441946031700004+32500-093683SAO  +0053BAD  V0202301N006712200019N0240001N9+02181+00801100341ADDGA1001+999999999GF100991999999999999999999MA1999999099701MW1001
0082725370948471946042220004+42233-083333SAO  +0202DTW  V0202481N007210540019N0080001N1+02681+01131102031ADDGA1011+018009089GA2071+054009029GF108991999999999999999999MA1999999099631MW1041
0066719090999991946102201004+63750-068550SAO  +0020CYFB V0203601N011310270019N0320001N1-01201-01531100141ADDGA1081+027009049GF108991999999999999999999MA1999999099901MW1001
0051722250138291946051215004+32333-085000SAO  +0071LSF  V0202901N001510030019N0112001N9+99999+99999999999ADDGA1081+003009059GF108991999999999999999999MW1001
0066043390999991946042109004+70483-021967SAO  +0066BGSC V0200901N001512200019N1600001N1-00921-01811101421ADDGA1021+072009009GF102991999999999999999999MA1999999101321MW1001
0050722310129161946090114004+29983-090250SAO  +0009MSY  V0200681N004612200019N0160001N1+02411+01801101861ADDGF102991999999999999999999MA1999999101761MW1001
0066040180162011946122402004+63967-022600SAO  +0050BIKF V0200681N002610360019N0320001N1-00421-00591100141ADDGA1081+036009039GF108991999999999999999999MA1999999099361MW1001
0066749140999991946122001004+66033-053567SAO  +001399999V0200451N008210090019N0032001N1-00261-00311099631ADDGA1061+009009059GF107991999999999999999999MA1999999099461MW1711
0066788060999991946022321004+08917-079600SAO  +0009MPHO V0203601N010312200019N0320001N9+03021+02071100881ADDGA1021+006009059GF102991999999999999999999MA1999999100781MW1001
0066724690230621946020407004+39750-104867SAO  +1625DEN  V0202251N004612200019N0640001N1+00801-01151100471ADDGA1031+075009009GF102991999999999999999999MA1999999082491MW1001
0029719576999991946042012004+64900-125500FM-12+009199999V0200501N002119999999N0500001N9-00831+99999099861ADDGF103991001999999999999999
0066749347999991946052211004+32083+118750SAO  +0025RNKG V0200901N002110210019N1600001N1+02411+01411101461ADDGA1071+021009039GF107991999999999999999999MA1999999101191MW1001
0050722350039401946031022004+32317-090083SAO  +0101JAN  V0203381N008212200019N0240001N1+01571+00301102781ADDGF100991999999999999999999MA1999999101561MW1001
0050747750138461946111215004+30067-085583SAO  +0006PAM  V0200201N007210105019N0192001N9+01891+01221102071ADDGF107991999999999999999999MA1102031102001MW1001
0066043390999991946061200004+70483-021967SAO  +0066BGSC V0202251N001510075019N1600001N1-00201-00311102241ADDGA1081+007509079GF108991999999999999999999MA1999999102131MW1001
004594821099999194604050500N-37750+140780AUST +0069YMMG V0201805N008259999999N999999999+01465+99999999999ADDGA1075+009005999GF107995074999009005999999
0051722575999991946051515004+31083-097683SAO  +0256ILE  V0200451N002110120019N0240001N1+02181+01741999999ADDGA1051+012009059GF107991999999999999999999MW1001
0025710435999991946042920004+66267-128617SAO  +0066CYGH V0202701N003110120019N0480001N1-00041-00151101241ADDGA1081+999999059MW1001
0066749347999991946030413004+32083+118750SAO  +0025RNKG V0201131N008710300019N0096001N1+00801+00581101421ADDGA1061+030009049GF107991999999999999999999MA1999999101151MW1051
0066724956232111946021114004+38067-122517SAO  +0003SRF  V0203151N001512200019N0400001N1+00351-00261101501ADDGA1021+063009009GF102991999999999999999999MA1999999101491MW1001
0314999999804311946040416005+99999+999999SAO  +999999999V02027059002152200049N019200599+02565+02335100795ADDGA1999+006104064GA2999+045724044GA3999+999999024GA4999+999999999GD19025+9999999GD29045+9999999GD39025+9999999GD49005+9999999EQDN01 00000JPWTH 1QNNE11 1 09903E11 1 09905E11 1 09902E11 1 09900G11U1 99999H11 1 15020H11 1 21150H11 1 37999H11 1 00999K11 1 00074L11 1 01200N11 1 00000Q11 1 10079S11 1 00078W11 1 77004
0066724810232031946022007004+37367-120567SAO  +0053MER  V0200901N001510105019N0128001N9+00911+00691101731ADDGA1081+010509049GF108991999999999999999999MA1999999101051MW1611
0082616410999991946120811004+14733-017500SAO  +0024GOOY V0200451N002112200019N0160001N1+02521+01691101291ADDGA1021+045009039GA2021+060009009GF102991999999999999999999MA1999999101051MW1001
0076744900147021946102811004+42467-071283SAO  +0045BED  V0200201N001010600019N0032001N9+01021+00961103451ADDGA1021+036009049GA2061+060009009GF107991999999999999999999MA1999999102981
0066745940137051946040810004+38817-076883SAO  +0085ADW  V0200901N003612200019N0096001N9+00581-00371101831ADDGA1031+054009009GF102991999999999999999999MA1999999100711MW1051
0056702610264111946120911004+64817-147867SAO  +0138FAI  V0209991C000012200019N0001001N1-04531-04921102441ADDGF100991999999999999999999MA1999999100441MW1041MW2451
0177999999138741946112202005+33650-084417SAO  +030399999V02009059004150009149N002000599+01175+01175102135ADDGF108995999999999999999999MA1999999098615MW1455MW2515EQDN01 03370JPWTH 1QNNG11 1 00003K11 1 00053L11 1 00125M11 1 29120N11 1 03370Q11 1 10213S11 1 00053V11 1 01099W11 1 33008
0320999999242461946030314005+46167-123883SAO  +000499999V02020359001052200049N000400599+00445+00445102515ADDGA1999+009144064GA2999+999999999GA3999+999999999GA4999+999999999GD19035+9999999GD29005+9999999GD39005+9999999GD49005+9999999MW1445EQDN01 07200JPWTH 1QNNE11 1 09904E11 1 09900E11 1 09900E11 1 09900G11U1 99999H11 1 15030H11 1 00999H11 1 00999H11 1 00999K11 1 00040L11 1 00025N11 1 07200Q11 1 10251S11 1 00040W11 1 56002
0233999999137551946022005005+37933-075433SAO  +001599999V02027059010350061049N011200599+00565+00445099975ADDGA1999+999999064GD19085+9999999GD29999+9999999GD39999+9999999MA1999999099805EQDN01 00000JPWTH 1QNNE11 1 09910E11 1 09999E11 1 09999G11 1 00020H11 1 15999K11 1 00040L11 1 00700M11 1 29470N11 1 00000Q11 1 09997S11 1 00042W11 1 77020
0066724467139301946010423004+38767-093550SAO  +0265SZL  V0201801N006710024019N0064001N9+01241+00961100851ADDGA1081+002409059GF108991999999999999999999MA1999999097831MW1801
0066725038147141946012522004+41500-074100SAO  +0150SWF  V0202701N006212200019N0192001N1+00021-00651100171ADDGA1051+066009009GF107991999999999999999999MA1999999098441MW1001
0066749120999991946060600004+51833-062883SAO  +052499999V0201801N003610210019N0240001N1+00691+00581101291ADDGA1051+021009039GF107991999999999999999999MA1999999095121MW1001
0165999999138741946061807005+33650-084417SAO  +030399999V02027059003152200059N019200599+02285+02115101665ADDGF103995999999999999999999MA1999999098345EQDN01 00000JPWTH 1QNNG11U1 99999K11 1 00070L11 1 01200M11 1 29040N11 1 00000Q11 1 10166S11 1 00073V11 1 00499W11 1 77006
0296999999149361946072207005+44383-098217SAO  +039599999V02011359004152200059N032000599+01565+01335101595ADDGA1999+000004999GD19999+9999999GD29999+9999999GD39999+9999999GD49999+9999999GF100995999999999999999999MA1999999097025EQDN01 00000JPWTH 1QNNE11 1 09999E11 1 09999E11 1 09999E11 1 09999G11U1 99999H11 1 99000K11 1 00056L11 1 02000M11 1 28650N11 1 00000Q11 1 10159S11 1 00060V11 1 00099W11 1 34008
0029719350999991946090700004+60850-115767FM-12+016199999V0203601N002119999999N0200001N9+01561+00561101901ADDGF100991001999999999999999
0066723540139191946122913004+35433-097383SAO  +0383TIK  V0203401N012312200019N0192001N9-01031-02261102641ADDGA1021+004509079GF102991999999999999999999MA1999999097871MW1001
0340999999225151946112400005+21333-158050SAO  +002099999V02004559004652200049N032000599+02675+01835101285ADDGA1999+009144084GA2999+999999999GA3999+999999999GA4999+999999999GD19025+9999999GD29005+9999999GD39005+9999999GD49005+9999999MA1999999101055EQDN01 00000JPWTH 1QNNE11 1 09902E11 1 09900E11 1 09900E11 1 09900G11U1 99999H11 1 11030H11 1 00999H11 1 00999H11 1 00999K11 1 00065L11 1 02000M11 1 29840N11 1 00000Q11 1 10128S11 1 00080W11 1 22009
0128431600999991946082312004+16817+074683FM-12+055499999V0202501N00671021001CN0500001N9+02501+02001100251ADDAA199001091AY161999GA1999+000159999GA2999+000159999GF106991061021022501001001KA1999M+02671EQDQ01    003SCCGA1Q02    003SCCGA2
0133417100999991946021512004+28817+062750FM-12+068099999V0209991C00001220001CN0100001N9+02061-00171101121ADDAY121999GA1999+000159999GA2999+000159999GF107991999001999999021001KA1999M+02171EQDQ01+000002SCOTLCQ02    003SCCGA1Q03    003SCCGA2
0340999999425011946011708005+24283+153967SAO  +000799999V02022559002652200049N016000599+02565+02335101415ADDGA1999+999999084GA2999+999999034GA3999+999999999GA4999+999999999GD19015+9999999GD29015+9999999GD39005+9999999GD49005+9999999MA1999999101325EQDN01 00000JPWTH 1QNNE11 1 09901E11 1 09901E11 1 09900E11 1 09900G11U1 99999H11 1 11999H11 1 23999H11 1 00999H11 1 00999K11 1 00074L11 1 01000M11 1 29920N11 1 00000Q11 1 10141S11 1 00078W11 1 66005
0057702650999991946121419004+64650-147067SAO  +0164PAEI V0209991C000012200019N0008001N9-05091+99999999999ADDGA1001+999999999GF100991999999999999999999MW1041MW2451
0066723535999991946101205004+36333-097833SAO  +0390END  V0202501N003612200019N0240001N9+00581+00131102101ADDGA1001+999999999GF100991999999999999999999MA1999999097391MW1001
0151703500255011946020418003+57750-152500SAO  +0034ADQ  V02031559018550000049N0000005N1-00395-00445098025ADDGF108995999999999999999999MW1385MW2715EQDN01 04084JPWTH 1QNNG11 1 00000K11 1 00024L11 1 00000N11 1 04084Q11 1 09802S11 1 00025V11 1 01099W11 1 88036
0082780160136011946113019004+32367-064683SAO  +0006TXKF V0200701N002112200019N0320001N9+02131+01571102221ADDGA1021+006009089GA2021+063009009GF102991999999999999999999MA1999999102131MW1001
0082104390999991946120815004+51117+009283SAO  +0181EDPF V0201801N003612200019N0064001N1+00191-00041099871ADDGA1031+003009079GA2031+018009049GF102991999999999999999999MA1999999097661MW1051
0082745940137051946081722004+38817-076883SAO  +0085ADW  V0202301N002610360019N0144001N9+02911+02301101221ADDGA1061+036009039GA2021+066009029GF108991999999999999999999MA1999999100201MW1001
0066786470999991946040217004+13917-090817SAO  +0002MGSJ V0201801N003112200019N0320001N1+03241+02021101221ADDGA1011+042009039GF102991999999999999999999MA1999999101191MW1001
0072315880999991946103010004+49483+129467FM-12+012699999V0201401N00461220001CN9999999N9+00221+99999101011ADDAY111999GF108991001001999999001999EQDQ01+000032APCTENQ02+000002APC3  
0340999999242551946061302005+99999+999999SAO  +999999999V02027059003152200049N032000599+01565+01005101875ADDGA1999+999999034GA2999+999999004GA3999+999999999GA4999+999999999GD19025+9999999GD29045+9999999GD39005+9999999GD49005+9999999MA1999999101865EQDN01 00000JPWTH 1QNNE11 1 09903E11 1 09905E11 1 09900E11 1 09900G11U1 99999H11 1 23999H11 1 32999H11 1 00999H11 1 00999K11 1 00050L11 1 02000M11 1 30080N11 1 00000Q11 1 10187S11 1 00060W11 1 77006
0066747910137171946121719004+33683-078933SAO  +0008MYR  V0201401N001512200019N0128001N9+02131+00961101661ADDGA1021+036009039GF102991999999999999999999MA1999999101561MW1001
0239999999232421946072711005+37683-121700SAO  +019799999V02027059003150009149N009600599+01505+01395101625ADDGA1999+000914074GD19085+9999999GD29999+9999999GD39999+9999999MA1999999099395MW1455EQDN01 07000JPWTH 1QNNE11 1 09910E11 1 09999E11 1 09999G11 1 00003H11 1 16003K11 1 00057L11 1 00600M11 1 29350N11 1 07000Q11 1 10162S11 1 00059W11 1 77006
0060723810231141946032516004+34967-117900SAO  +0693EDW  V0203601N001012200019N0480001N9+00911+00191102171ADDGA1061+063009009GF107991999999999999999999MA1999999094071
0067031350999991946092706004+55500-004583SAO  +0020EGPK V0201581N006710045019N0160001N1+01631+01411101041ADDGA1051+004509059GA2999+999999039GF108991999999999999999999MW1001
0082914900999991946120119004+01983-157483SAO  +0003PLCH V0200901N003112200019N0240001N1+02851+02411100751ADDGA1021+006009089GA2011+090009009GF102991999999999999999999MA1999999100751MW1001
0066477710999991946103116004+34783+135433SAO  +0015RJOO V0202701N002110150019N0096001N1+01691+01691101661ADDGA1081+015009059GF108991999999999999999999MA1999999101461MW1511
0377999999137101946060421005+38850-077017SAO  +000899999V02031559005252200059N022400599+02175+01445101525ADDGA1999+018294084GA2999+999999999GA3999+999999999GA4999+999999999GD19035+9999999GD29005+9999999GD39005+9999999GD49005+9999999GF103995999999999999999999MA1999999101525EQDN01 00000JPWTH 1QNNE11 1 09904E11 1 09900E11 1 09900E11 1 09900G11U1 99999H11 1 11060H11 1 00999H11 1 00999H11 1 00999K11 1 00058L11 1 01400M11 1 29980N11 1 00000Q11 1 10152S11 1 00071V11 1 00499W11 1 88010
0078749074999991946013009004+38933-085917SAO  +0176SER  V0201581N006210054019N0040001N1+00241+00241101291ADDGA1081+005409059GF108991999999999999999999MA1999999099151MW1041MW2451MW3511
0110429770999991946012103004+20850+088250FM-12+000999999V0203601N00261220001CN0040001N9+02111+02061101871ADDAY141999GA1999+000159999GA2999+000159999GF104991041011008001001001MW1401EQDQ01    003SCCGA1Q02    003SCCGA2
0117420340999991946042903004+34150+077567FM-12+351599999V0200501N00101220001CN0500001N9+00441-00891100751ADDAY101999GA1999+000159999GA2999+000159999GF100991001001999999001001KA1999N-00061EQDQ01    003SCCGA1Q02    003SCCGA2
0340999999414071946121921005+13467+144250SAO  +005599999V02006859004652200049N024000599+02335+01945101195ADDGA1999+003054084GA2999+999999999GA3999+999999999GA4999+999999999GD19015+9999999GD29005+9999999GD39005+9999999GD49005+9999999MA1999999099125EQDN01 00000JPWTH 1QNNE11 1 09901E11 1 09900E11 1 09900E11 1 09900G11U1 99999H11 1 11010H11 1 00999H11 1 00999H11 1 00999K11 1 00067L11 1 01500M11 1 29270N11 1 00000Q11 1 10119S11 1 00074W11 1 32009
0066911800999991946070305004+21333-157950SAO  +0009PHIK V0200681N005710105019N0240001N1+02681+02071101691ADDGA1061+010509059GF107991999999999999999999MA1999999101591MW1001
0051031350999991946041521004+55500-004583SAO  +0020EGPK V0202481N004610120019N0064001N1+01021+00741101491ADDGA1061+012009089GF107991999999999999999999MW1051
0128999999931041946080802005+35683-117683SAO  +068199999V02018059005252200049N048000599+03674+00285100374ADDMA1999999092854EQDN01 00000JPWTH 1QNNG11U1 99999K11 1 00037L11 1 03000M11 1 27420N11 1 00000Q11 1 10037S11 1 00098W11 1 55010
0320999999137601946102316005+38333-077033SAO  +000699999V02024859001052200049N006400599+01785+01115102435ADDGA1999+999999999GA2999+999999999GA3999+999999999GA4999+999999999GD19005+9999999GD29005+9999999GD39005+9999999GD49005+9999999MW1055EQDN01 08100JPWTH 1QNNE11 1 09900E11 1 09900E11 1 09900E11 1 09900G11U1 99999H11 1 00999H11 1 00999H11 1 00999H11 1 00999K11 1 00052L11 1 00400N11 1 08100Q11 1 10243S11 1 00064W11 1 76002
0066722630999991946111408004+31367-100500SAO  +0585SJT  V0201351N002612200019N0240001N1+01191+00521102241ADDGA1021+036001031GF102991999999999999999999MA1999999095461MW1001
0066725377148041946091204004+42617-082817SAO  +0176MTC  V0203601N003612200019N0160001N9+01131+00911102131ADDGA1011+009009059GF102991999999999999999999MA1999999099971MW1001
0177999999266161946050210005+66867-162633SAO  +0006OTZ  V02013559017050054949N012800599+00115+00065101055ADDGF108995999999999999999999MA1999999100985MW1615MW2715EQDN01 02040JPWTH 1QNNG11 1 00018K11 1 00033L11 1 00800M11 1 29820N11 1 02040Q11 1 10105S11 1 00034V11 1 01099W11 1 44033
0082820300999991946012015004+02067-050850SAO  +0010SBAM V0200451N005710054019N0192001N1+02911+02461101191ADDGA1061+005409089GA2011+066009029GF107991999999999999999999MA1999999101051MW1001
0066161580999991946021909004+43683+010383SAO  +0001LIRP V0200901N001010120019N0048001N1+01131+00801101451ADDGA1081+012009059GF108991999999999999999999MA1999999101461MW1051
0066749132999991946011413004+60683-046533SAO  +006299999V0200451N006212200019N0480001N1-01151-01591099421ADDGA1021+033009049GF102991999999999999999999MA1999999098611MW1001
0098108660999991946081115004+48133+011700SAO  +0529EDDM V0200231N006710090019N0320001N1+01961+01351101811ADDGA1021+006009099GA2021+009009059GA3041+024009049GF108991999999999999999999MA1999999095671MW1171
0066783284999991946030104004+22867-082517SAO  +0050MUSA V0201801N001010045019N0160001N1+02521+02351101561ADDGA1081+004509059GF108991999999999999999999MA1999999101021MW1001
0066744910147031946042023004+42200-072533SAO  +0075CEF  V0203201N008710135019N0240001N9+00911-00041101561ADDGA1071+013509059GF107991999999999999999999MA1999999100681MW1001
0082982230999991946070209004+18183+120533SAO  +0005RPML V0201801N005110075019N0320001N1+02961+02741100601ADDGA1051+007509089GA2021+027009039GF107991999999999999999999MA1999999100511MW1001
0050749515999991946010202004+41800+012600SAO  +012999999V0209991C000012200019N0240001N1+00021+00021102041ADDGF100991999999999999999999MA1999999100641MW1001
007772253612911194610222200D+29533-098283SAO  +0226RND  V0201801N003612200019N0240001N9+02961+01741101761ADDAA101000095GA1021+013509089GF102991999999999999999999MA1999999099051MW1001
0066727130146041946091106004+46683-068050SAO  +0146PQI  V0202031N004612200019N0160001N1+01741+01631100071ADDGA1031+012009059GF102991999999999999999999MA1999999098341MW1001
0128423830999991946060903004+26667+084917FM-12+006699999V0209991C00001220001CN0040001N9+02831+02501100071ADDAA124004091AY161999GA1999+000159999GA2999+000159999GF100991001001999999001001KA1999N+02331EQDQ01    003SCCGA1Q02    003SCCGA2
0077852010999991946112722004-16500-068167FM-12+406399999V0200901N001019999999N0500001N9+01281+00331999999ADDAY101999GF107991021071999999071001MA1999999102211MW1021EQDQ01+000992SCOLCB
0346999999412281946072415005+99999+999999SAO  +999999999V02009059000550061049N009600599+02445+02395100815ADDGA1999+999999084GA2999+999999034GA3999+999999999GA4999+999999999GD19065+9999999GD29055+9999999GD39005+9999999GD49005+9999999MA1999999100445MW1805EQDN01 02300JPWTH 1QNNE11 1 09907E11 1 09906E11 1 09900E11 1 09900G11 1 00020H11 1 11999H11 1 23999H11 1 00999H11 1 00999K11 1 00075L11 1 00600M11 1 29660N11 1 02300Q11 1 10081S11 1 00076W11 1 33001
0320999999242541946040514005+99999+999999SAO  +999999999V02018059000552200049N001300599-00065-00065101835ADDGA1999+999999034GA2999+999999999GA3999+999999999GA4999+999999999GD19055+9999999GD29005+9999999GD39005+9999999GD49005+9999999MW1445EQDN01 07200JPWTH 1QNNE11 1 09906E11 1 09900E11 1 09900E11 1 09900G11U1 99999H11 1 23999H11 1 00999H11 1 00999H11 1 00999K11 1 00031L11 1 00081N11 1 07200Q11 1 10183S11 1 00031W11 1 55001
0063725370948471946022722004+42233-083333SAO  +0202DTW  V0202701N003110021019N0016001N1-00261-00421999999ADDGA1081+002109059GF108991999999999999999999MW1041MW2451MW3711
0082545110999991946090723004+39933+116283SAO  +0055ZBAA V0209991C000010090019N0128001N1+01691+01571101961ADDGA1061+009009079GA2021+021009039GF108991999999999999999999MA1999999101191MW1001
0165999999139941946082016005+38750-090383SAO  +017699999V02033859001552200059N024000599+02395+01285102245ADDGF100995999999999999999999MA1999999100205EQDN01 00000JPWTH 1QNNG11U1 99999K11 1 00055L11 1 01500M11 1 29590N11 1 00000Q11 1 10224S11 1 00075V11 1 00099W11 1 18003
0082162603999991946071313004+41433+015533SAO  +0094LIBF V0203381N004112200019N0400001N1+03021+01241101241ADDGA1021+012009089GA2021+060009009GF102991999999999999999999MA1999999100201MW1001
0117430630999991946041112004+18533+073850FM-12+055999999V0202701N00261220001CN0100001N9+03391+01221100161ADDAY101999GA1999+000159999GA2999+000159999GF101991011011022501001001KA1999M+03611EQDQ01    003SCCGA1Q02    003SCCGA2
0340999999225191946112115005+21450-157767SAO  +001599999V02029359003152200049N024000599+02285+02005101505ADDGA1999+999999084GA2999+999999999GA3999+999999999GA4999+999999999GD19025+9999999GD29005+9999999GD39005+9999999GD49005+9999999MA1999999101325EQDN01 00000JPWTH 1QNNE11 1 09902E11 1 09900E11 1 09900E11 1 09900G11U1 99999H11 1 11999H11 1 00999H11 1 00999H11 1 00999K11 1 00068L11 1 01500M11 1 29920N11 1 00000Q11 1 10150S11 1 00073W11 1 78006
0082722485139441946032602004+32500-093683SAO  +0053BAD  V0200501N008710024019N0048001N9+01571+01571100951ADDGA1051+002409079GA2081+009009059GF108991999999999999999999MA1999999100341MW1611
0066722860231191946102114004+33900-117250SAO  +0466RIV  V0209991C000012200019N0032001N9+00781+00441101691ADDGA1001+999999999GF100991999999999999999999MA1999999096241MW1451
0098982230999991946061000004+18183+120533SAO  +0005RPML V0201581N001012200019N0480001N1+02911+02461100961ADDGA1999+007509999GA2021+036009039GA3051+105009009GF107991999999999999999999MA1999999100911MW1001
0346999999232441946090812005+37417-122050SAO  +000899999V02022559001552200049N008000599+01115+00835101065ADDGA1999+999999999GA2999+999999999GA3999+999999999GA4999+999999999GD19005+9999999GD29005+9999999GD39005+9999999GD49005+9999999MA1999999100985MW1055EQDN01 08100JPWTH 1QNNE11 1 09900E11 1 09900E11 1 09900E11 1 09900G11U1 99999H11 1 00999H11 1 00999H11 1 00999H11 1 00999K11 1 00047L11 1 00500M11 1 29820N11 1 08100Q11 1 10106S11 1 00052W11 1 66003
0066428081999991946042322004+22767+088367SAO  +000799999V0209991C000012200019N0128001N1+02301+02241100711ADDGA1011+069009029GF102991999999999999999999MA1999999100641MW1001
0060744900147021946070616004+42467-071283SAO  +0045BED  V0202301N007212200019N0240001N9+02571+01741101821ADDGA1051+066009009GF107991999999999999999999MA1999999101321
0066577450999991946031704004+27450+109683SAO  +027399999V0200451N002110060019N0112001N1+00741+00521100951ADDGA1081+006009079GF108991999999999999999999MA1999999097731MW1001
0082789700999991946091708004+10617-061350SAO  +0015TTPP V0202251N001510540019N0160001N1+02351+02301101151ADDGA1041+007509089GA2061+054009039GF107991999999999999999999MA1999999100681MW1001
0340999999232421946050519005+37683-121700SAO  +019799999V02027059004652200049N032000599+02505+00945101355ADDGA1999+999999999GA2999+999999999GA3999+999999999GA4999+999999999GD19005+9999999GD29005+9999999GD39005+9999999GD49005+9999999MA1999999099095EQDN01 00000JPWTH 1QNNE11 1 09900E11 1 09900E11 1 09900E11 1 09900G11U1 99999H11 1 00999H11 1 00999H11 1 00999H11 1 00999K11 1 00049L11 1 02000M11 1 29260N11 1 00000Q11 1 10135S11 1 00077W11 1 77009
0051315940999991946072010004+49417+130083FM-12+013599999V0203201N002619999999N9999999N9+02221+99999100251ADDAY191999GF199999041031004501001021MD1310241+9999
0066704545999991946030820004+51383+179267SAO  +0069AHT  V0202481N011310054019N0080001N1+00241+00191098071ADDGA1081+005409059GF108991999999999999999999MA1999999097321MW1451
0050723677230541946121217004+35650-105150SAO  +2095LVS  V0203601N001012200019N0480001N1+01131+00021100781ADDGF102991999999999999999999MA1999999078501MW1001
004594907099999194601162000N-38100+147150AUST +0008YMES V0203155N001559999999N999999999+01965+99999999999ADDGA1045+010505999GF108995044999010505999999
0082912500999991946080503004+11350+162350SAO  +0005PKMA V0200451N004110060019N0480001N1+03131+02521100921ADDGA1051+006009089GA2061+075009029GF107991999999999999999999MA1999999100851MW1001
0160701740265331946080811003+66917-151517SAO  +0196BTT  V02024859002150076249N0160005N1+01005+00835999999ADDGF108995999999999999999999MA1999999098925MW1001EQDN01 00000JPWTH 1QNNG11 1 00025K11 1 00047L11 1 01000M11 1 29210N11 1 00000S11 1 00050V11 1 01099W11 1 76004
0066749074999991946061723004+38933-085917SAO  +0176SER  V0202031N002612200019N0160001N1+03071+02301101221ADDGA1031+054009009GF102991999999999999999999MA1999999099191MW1001
0066477710999991946103004004+34783+135433SAO  +0015RJOO V0200901N005712200019N0240001N1+02301+01191102371ADDGA1031+036009039GF102991999999999999999999MA1999999102131MW1001
004594326599999194607070500N-23820+133900AUST +0545YBAS V0200905N004659999999N999999999+02005+99999999999ADDGA1015+012005999GF101995014999012005999999
0340999999242441946082211005+47683-122267SAO  +001599999V02036059002652200049N024000599+01395+01225101655ADDGA1999+999999999GA2999+999999999GA3999+999999999GA4999+999999999GD19005+9999999GD29005+9999999GD39005+9999999GD49005+9999999MA1999999101495EQDN01 00000JPWTH 1QNNE11 1 09900E11 1 09900E11 1 09900E11 1 09900G11U1 99999H11 1 00999H11 1 00999H11 1 00999H11 1 00999K11 1 00054L11 1 01500M11 1 29970N11 1 00000Q11 1 10165S11 1 00057W11 1 11005
0117428750999991946011712004+21233+081650FM-12+029699999V0209991C00001220001CN0200001N9+02831+01001101201ADDAY101999GA1999+000159999GA2999+000159999GF100991001001999999001001KA1999M+03001EQDQ01    003SCCGA1Q02    003SCCGA2
0140036690999991946010308004+51717-000533FM-12+015799999V0200901N00261220001CN0040001N9-00391-00611103661ADDAY111999GA1999+004509009GA2999+999999029GF102991021051008001001001MD1210061+9999MW1051EQDQ01+000042APCTENQ02+000062APC3  Q03    003SCCGA1
0050749538999991946111206004+48083+011267SAO  +058099999V0209991C000012200019N0112001N1-00531+99999102371ADDGF100991999999999999999999MA1999999095161MW1001
0165999999139941946081516005+38750-090383SAO  +017699999V02020359006252200059N024000599+02785+02335101565ADDGF108995999999999999999999MA1999999099565EQDN01 00000JPWTH 1QNNG11U1 99999K11 1 00074L11 1 01500M11 1 29400N11 1 00000Q11 1 10156S11 1 00082V11 1 01099W11 1 56012
0025718030999991946122210004+48950-054567SAO  +0151CYQX V0201351N006210045019N0028001N1-00591-00651101171ADDGA1081+999999049MW1791
0050702670264151946111101004+64000-145733SAO  +0388BIG  V0200901N010812200019N0480001N1-00651-01091099761ADDGF107991999999999999999999MA1999999094891MW1001
0066525330999991946080608004+39767+098483SAO  +1478ZLJQ V0201351N003612200019N0096001N1+03071+01131999999ADDGA1011+039009039GF102991999999999999999999MA1999999085031MW1051
0200999999441011946050816005+40000+116500SAO  +0051RPEK V02022559002650213449N011200599+99999+99999999999ADDGA1999+021344044GD19085+9999999GD29999+9999999GD39999+9999999MA1999999101085EQDN01 00000JPWTH 1QNNE11 1 09910E11 1 09999E11 1 09999G11 1 00070H11 1 21070L11 1 00700M11 1 29850N11 1 00000W11 1 66005
0233999999422101946120310005+26200+127750SAO  +000999999V02033859004150091449N019200599+01675+01395101705ADDGA1999+009144064GD19085+9999999GD29999+9999999GD39999+9999999MA1999999101595EQDN01 00000JPWTH 1QNNE11 1 09910E11 1 09999E11 1 09999G11 1 00030H11 1 15030K11 1 00057L11 1 01200M11 1 30000N11 1 00000Q11 1 10170S11 1 00062W11 1 18008
0050722423129231946112414004+29267-094867SAO  +0002GLS  V0201581N006212200019N0192001N1+02131+01851101321ADDGF102991999999999999999999MA1999999101291MW1001
0025710450999991946081011004+60167-132750SAO  +0705CYZW V0200451N002610150019N0400001N1+01131+00911102041ADDGA1081+999999059MW1001
0050601560999991946020410004+33367-007583SAO  +0206GMMN V0201801N002112200019N0080001N1+01131+00691102881ADDGF100991999999999999999999MA1999999102301MW1051
0050423140999991946010803004+27483+095017SAO  +0111VEMN V0200681N001012200019N0048001N1+01351+01131101901ADDGF100991999999999999999999MA1999999100541MW1111
0259999999230121946122807005+39717-104900SAO  +1645LRY  V02031559004650012249N016000599-00225+99999100855ADDGA1999+001224074GD19085+9999999GD29999+9999999GD39999+9999999GF108995999999999999999999MA1999999082465EQDN01 00000JPWTH 1QNNE11 1 09910E11 1 09999E11 1 09999G11 1 00004H11 1 16004L11 1 01000M11 1 24350N11 1 00000Q11 1 10085S11 1 00028V11 1 01099W11 1 88009
0346999999931011946011610005+33683-117733SAO  +010899999V02006859000552200049N001600599+00504+00505102134ADDGA1999+076204024GA2999+999999999GA3999+999999999GA4999+999999999GD19065+9999999GD29005+9999999GD39005+9999999GD49005+9999999MA1999999100814MW1445EQDN01 07200JPWTH 1QNNE11 1 09907E11 1 09900E11 1 09900E11 1 09900G11U1 99999H11 1 37250H11 1 00999H11 1 00999H11 1 00999K11 1 00041L11 1 00100M11 1 29770N11 1 07200Q11 1 10213S11 1 00041W11 1 32001
0128432910999991946072112004+12300+076700FM-12+076899999V0202501N006719999999N0500001N9+02501+01941100461ADDAA199001091AY161999GA1999+000159999GA2999+000159999GF108991041071008001021051KA1999M+02721EQDQ01    003SCCGA1Q02    003SCCGA2
0029718160999991946012518004+53317-060433SY-SA+0044YYR  V0200501N007210015019N0008001N9-00761-00921099721ADDGF108991999999999999999999
0171725190147711946051005003+43067-076267SAO  +0123SYR  V02024859005252200059N0192005N9+00505+00005101525ADDGF100995999999999999999999MA1999999100005MW1001EQDN01 00000JPWTH 1QNNG11U1 99999K11 1 00032L11 1 01200M11 1 29530N11 1 00000Q11 1 10152S11 1 00041V11 1 00099W11 1 76010
0067107380999991946100510004+48683+009200SAO  +0399EDDS V0202501N008710060019N0240001N9+99999+99999999999ADDGA1061+006009059GA2081+012009059GF108991999999999999999999MW1611
0066723066137131946062403004+35333-077967SAO  +0033GSB  V0200701N002112200019N0160001N9+02071+01911102371ADDGA1011+006009079GF102991999999999999999999MA1999999102071MW1001
004594999900024194604130700N-26600+118480AUST +0511     V0200455N001059999999N999999999+02945-00505999999ADDGA1005+999999999GF103995004999999999999999
0066723540139191946100922004+35433-097383SAO  +0383TIK  V0202001N004610150019N0240001N9+02411+01741100711ADDGA1051+015009059GF107991999999999999999999MA1999999096311MW1001
0066723030137141946111803004+35183-079017SAO  +0064POB  V0209991C000010060019N0032001N9+01521+01521102641ADDGA1081+006009079GF108991999999999999999999MA1999999101901MW1171
0340999999414071946120516005+13467+144250SAO  +005599999V02009059004652200049N032000599+02565+02225101035ADDGA1999+003054084GA2999+999999999GA3999+999999999GA4999+999999999GD19025+9999999GD29005+9999999GD39005+9999999GD49005+9999999MA1999999098885EQDN01 00000JPWTH 1QNNE11 1 09902E11 1 09900E11 1 09900E11 1 09900G11U1 99999H11 1 11010H11 1 00999H11 1 00999H11 1 00999K11 1 00072L11 1 02000M11 1 29200N11 1 00000Q11 1 10103S11 1 00078W11 1 33009
0066421820999991946022401004+28583+077200SAO  +0216VIDD V0209991C000012200019N1600001N1+01301+01241101491ADDGA1021+015009059GF102991999999999999999999MA1999999098921MW1001
0340999999231991946112702005+32833-115667SAO  -001399999V02099999000052200049N048000599+01725+00115102085ADDGA1999+999999999GA2999+999999999GA3999+999999999GA4999+999999999GD19005+9999999GD29005+9999999GD39005+9999999GD49005+9999999MA1999999102275EQDN01 00000JPWTH 1QNNE11 1 09900E11 1 09900E11 1 09900E11 1 09900G11U1 99999H11 1 00999H11 1 00999H11 1 00999H11 1 00999K11 1 00034L11 1 03000M11 1 30200N11 1 00000Q11 1 10208S11 1 00063W11 1 00000
