0051107340999991947041517004+49400+008650SAO  +0110EDIE V0202701N002612200019N0112001N1+02351+00521999999ADDGA1021+060009029GF102991999999999999999999MW1001
0314999999129261947020214005+27700-097267SAO  +001099999V02002359008852200049N012800599+01005+00505103095ADDGA1999+999999044GA2999+999999999GA3999+999999999GA4999+999999999GD19065+9999999GD29005+9999999GD39005+9999999GD49005+9999999EQDN01 00000JPWTH 1QNNE11 1 09908E11 1 09900E11 1 09900E11 1 09900G11U1 99999H11 1 21999H11 1 00999H11 1 00999H11 1 00999K11 1 00041L11 1 00800N11 1 00000Q11 1 10309S11 1 00050W11 1 12017
0067031350999991947062005004+55500-004583SAO  +0020EGPK V0201351N005110045019N0160001N1+01241+01071100841ADDGA1061+004509059GA2999+999999039GF107991999999999999999999MW1001
0389999999457091947070913005+52833+173183SAO  +002899999V02024859015550027449N004800599+00675+00615101355ADDGA1999+002744074GA2999+999999999GA3999+999999999GA4999+999999999GD19065+9999999GD29005+9999999GD39005+9999999GD49005+9999999GF106995999999999999999999MA1999999101195MW1455MW2515EQDN01 03370JPWTH 1QNNE11 1 09907E11 1 09900E11 1 09900E11 1 09900G11 1 00009H11 1 16009H11 1 00999H11 1 00999H11 1 00999K11 1 00043L11 1 00300M11 1 29880N11 1 03370Q11 1 10135S11 1 00044V11 1 00799W11 1 76030
0029710351999991947102609004+61617-137517FM-12+096699999V02099999999999999999N9999999N9+99999+99999999999ADDKA1999M+00331KA2999N-00501
0066747880128101947122800004+27850-082500SAO  +0003KMCF V0203601N003612200019N0160001N9+01281+00941102171ADDGA1001+999999999GF100991999999999999999999MA1999999102131MW1001
0389999999148341947110212005+41500-088167SAO  +0181JOT  V02004559003652200059N003200599+00675+00565102035ADDGA1999+076204024GA2999+999999999GA3999+999999999GA4999+999999999GD19015+9999999GD29005+9999999GD39005+9999999GD49005+9999999GF101995999999999999999999MA1999999099865MW1045MW2445EQDN01 07280JPWTH 1QNNE11 1 09901E11 1 09900E11 1 09900E11 1 09900G11U1 99999H11 1 37250H11 1 00999H11 1 00999H11 1 00999K11 1 00042L11 1 00200M11 1 29490N11 1 07280Q11 1 10203S11 1 00044V11 1 00199W11 1 22007
0050723560139681947031702004+36200-095900SAO  +0206TUL  V0202031N008710180019N0192001N1+01351+00631100511ADDGF108991999999999999999999MA1999999098071MW1611
0050722486139421947012308004+32517-092050SAO  +0025MLU  V0202031N003610240019N0192001N1+00741-00041102681ADDGF107991999999999999999999MA1999999102371MW1001
0050723527139751947110117004+36300-099767SAO  +0671GAG  V0203601N009310045019N0240001N1+01191+00581102301ADDGF108991999999999999999999MA1999999094481MW1001
0362783670117061947031000003+19900-075150SAO  +0016MUGM V02018059001052200049N0240005N9+02615+02115101395ADDGA1011+007624064GA2999+036584034GA3999+999999999GA4999+999999999GD19015+9999999GD29005+9999999GD39005+9999999GD49005+9999999MA1999999100985MW1001EQDQ01    003SCCGA2N01 00000JPWTH 1QNNE11 1 09901E11 1 09900E11 1 09900E11 1 09900G11U1 99999H11 1 15025H11 1 23120H11 1 00999H11 1 00999K11 1 00070L11 1 01500M11 1 29820N11 1 00000Q11 1 10139S11 1 00079W11 1 55002
0314999999129261947092213005+27700-097267SAO  +001099999V02036059010352200049N019200599+02445+01505101755ADDGA1999+009144084GA2999+999999024GA3999+999999999GA4999+999999999GD19025+9999999GD29025+9999999GD39005+9999999GD49005+9999999EQDN01 00000JPWTH 1QNNE11 1 09902E11 1 09902E11 1 09900E11 1 09900G11U1 99999H11 1 11030H11 1 37999H11 1 00999H11 1 00999K11 1 00059L11 1 01200N11 1 00000Q11 1 10175S11 1 00076W11 1 11020
0050723446139711947061408004+36267-093150SAO  +0422HRO  V0209991C000012200019N0192001N1+00961+00851101561ADDGF102991999999999999999999MA1999999097601MW1001
0088478080999991947072517004+33583+130450SAO  +0012RJFF V0209991C000010600019N0096001N1+02571+02521100981ADDGA1021+013509059GA2061+060009029GF107991999999999999999999MA1999999100911MW1051MW2451
0101107380999991947011509004+48683+009200SAO  +0399EDDS V0202301N006710060019N0320001N9+00741+00521102811ADDGA1999+004509999GA2081+006009059GF108991999999999999999999MA1999999097871MW1001EQDQ01    003SCCGA1
0066704140999991947070501004+52717+174100SAO  +0027PASY V0201801N007710009019N0016001N9+00631+00581101121ADDGA1091+000159999GF109991999999999999999999MA1999999100781MW1451
0066999999947411947111215005+40850-074050SAO  +0002TEB  V02033859015552200049N024000599+99999+99999999999EQDN01 00000JPWTH 1QNNG11U1 99999L11 1 01500N11 1 00000W11 1 18030
0117415600999991947112703004+33867+070067FM-12+173099999V0200501N00261220001CN0500001N9+00721-00441099941ADDAY101999GA1999+000159999GA2999+000159999GF104991001001999999001021KA1999N+00611EQDQ01    003SCCGA1Q02    003SCCGA2
0072703980253081947042703004+55033-131567SAO  +0034ANN  V0202251N001510060019N0080001N1+01071+01071100781ADDGA1081+006009059GF108991999999999999999999MA1999999100371MW1451MW2611
0171725180147351947082421003+42750-073800SAO  +0089ALB  V02027059002652200059N0160005N1+03505+02175101395ADDGF101995999999999999999999MA1999999100345MW1001EQDN01 00000JPWTH 1QNNG11U1 99999K11 1 00071L11 1 01000M11 1 29630N11 1 00000Q11 1 10139S11 1 00095V11 1 00199W11 1 77005
0314999999129261947051305005+27700-097267SAO  +001099999V02013559007752200049N012800599+02505+02335101455ADDGA1999+002444084GA2999+999999999GA3999+999999999GA4999+999999999GD19035+9999999GD29005+9999999GD39005+9999999GD49005+9999999EQDN01 00000JPWTH 1QNNE11 1 09904E11 1 09900E11 1 09900E11 1 09900G11U1 99999H11 1 11008H11 1 00999H11 1 00999H11 1 00999K11 1 00074L11 1 00800N11 1 00000Q11 1 10145S11 1 00077W11 1 44015
0066106370999991947071702004+50033+008583SAO  +0110EDDF V0200501N003112200019N0160001N9+01721+01001101521ADDGA1021+027009039GF102991999999999999999999MA1999999100171MW1001
0082110300999991947062215004+48317+016117SAO  +0176LOXT V0202701N004612200019N0240001N1+02301+01631100811ADDGA1021+006009089GA2081+066009029GF108991999999999999999999MA1999999098811MW1001
004594287599999194705160800N-16920+145770AUST +0007YBCS V0201585N005759999999N999999999+02385+99999999999ADDGA1035+006005999GF105995034999006005999999
0276725190147711947031118003+43067-076267SAO  +0123SYR  V02029359002650042749N0080005N9+00225-00115102955ADDGA1081+004274064GD19085+9999999GD29999+9999999GD39999+9999999GF108995999999999999999999MA1999999101395MW1855EQDN01 05000JPWTH 1QNNE11 1 09910E11 1 09999E11 1 09999G11 1 00014H11 1 15014K11 1 00030L11 1 00500M11 1 29940N11 1 05000Q11 1 10295S11 1 00036V11 1 01099W11 1 78005
0050722575999991947062715004+31083-097683SAO  +0256ILE  V0202031N008712200019N0240001N1+02961+02021101081ADDGF100991999999999999999999MA1999999097871MW1001
0314999999129261947102012005+27700-097267SAO  +001099999V02036059004152200049N012800599+02175+01945101615ADDGA1999+999999999GA2999+999999999GA3999+999999999GA4999+999999999GD19005+9999999GD29005+9999999GD39005+9999999GD49005+9999999EQDN01 00000JPWTH 1QNNE11 1 09900E11 1 09900E11 1 09900E11 1 09900G11U1 99999H11 1 00999H11 1 00999H11 1 00999H11 1 00999K11 1 00067L11 1 00800N11 1 00000Q11 1 10161S11 1 00071W11 1 11008
0082703260255031947040217004+58683-156650SAO  +0015AKN  V0203601N003610210019N0640001N9-01641-02091102071ADDGA1031+021009039GA2011+045009029GF107991999999999999999999MA1999999101791MW1001
004594999900175194709140800N-27570+153000AUST +0011     V0200455N006259999999N999999999+02075+99999999999ADDGA1005+999999999GF102995004999999999999999
0171999999147621947080923005+40350-079933SAO  +038899999V02004559006252200059N006400599+03615+01785101495ADDGF107995999999999999999999MA1999999097025MW1045EQDN01 08000JPWTH 1QNNG11U1 99999K11 1 00064L11 1 00400M11 1 28650N11 1 08000Q11 1 10149S11 1 00097V11 1 00999W11 1 22012
006172356013968194712071000D+36200-095900SAO  +0206TUL  V0201801N005112200019N0192001N1+01351+01301100411ADDAA101000095GF108991999999999999999999MA1999999098001MW1001
0066749164999991947100915004+33233-107017SAO  +147899999V0200231N002612200019N0800001N1+01911+00241101391ADDGA1011+075009009GF102991999999999999999999MA1999999085441MW1001
0340999999938301947053123005+33867-084300SAO  +0302NCQ  V02011359003152200049N019200599+02504+01115101864ADDGA1999+999999999GA2999+999999999GA3999+999999999GA4999+999999999GD19005+9999999GD29005+9999999GD39005+9999999GD49005+9999999MA1999999098374EQDN01 00000JPWTH 1QNNE11 1 09900E11 1 09900E11 1 09900E11 1 09900G11U1 99999H11 1 00999H11 1 00999H11 1 00999H11 1 00999K11 1 00052L11 1 01200M11 1 29050N11 1 00000Q11 1 10186S11 1 00077W11 1 34006
0117432330999991947090412004+14233+076450FM-12+073399999V0202301N002619999999N0500001N9+02611+01831100471ADDAY111999GA1999+000159999GA2999+000159999GF107991041071004501031001KA1999M+02671EQDQ01    003SCCGA1Q02    003SCCGA2
0177999999139831947032712005+38967-092367SAO  +023899999V02004559005750027449N001300599-00225-00395101765ADDGF108995999999999999999999MA1999999098815MW1455MW2715EQDN01 04070JPWTH 1QNNG11 1 00009K11 1 00025L11 1 00081M11 1 29180N11 1 04070Q11 1 10176S11 1 00028V11 1 01099W11 1 22011
0340999999116181947031121005+18467-066117SAO  +001399999V02013559001552200049N019200599+02615+02115101625ADDGA1999+009144084GA2999+030484034GA3999+999999999GA4999+999999999GD19015+9999999GD29065+9999999GD39005+9999999GD49005+9999999MA1999999101495EQDN01 00000JPWTH 1QNNE11 1 09901E11 1 09907E11 1 09900E11 1 09900G11U1 99999H11 1 11030H11 1 23100H11 1 00999H11 1 00999K11 1 00070L11 1 01200M11 1 29970N11 1 00000Q11 1 10162S11 1 00079W11 1 44003
0098747750138461947110715004+30067-085583SAO  +0006PAM  V0201801N008710420019N0240001N9+02631+02241101121ADDGA1011+009009089GA2021+007509089GA3061+042009039GF107991999999999999999999MA1999999101051MW1001
0066749105999991947062110004+40733-073600SAO  +003899999V0200231N002110060019N0128001N1+01241+01071102611ADDGA1061+006009089GF107991999999999999999999MA1999999102271MW1001
0050722423129231947092920004+29267-094867SAO  +0002GLS  V0200901N004612200019N0128001N1+02631+01631102171ADDGF100991999999999999999999MA1999999102131MW1001
0082747950128671947071220004+28250-080617SAO  +0002COF  V0201351N001012200019N0192001N1+02681+99999101831ADDGA1021+006009089GA2081+030009039GF108991999999999999999999MA1999999101691MW1001
0050723656230491947073017004+35617-106083SAO  +1923SAF  V0201801N003612200019N0640001N1+02851+00851101691ADDGF100991999999999999999999MA1999999081481MW1001
0023719530999991947052803004+60117-128817SAO  +0690CYQH V0209991C000012200019N0480001N1+02461+01021101411ADDMD1710121+9999MW1001
0066042801999991947072318004+61000-046000SAO  +0030BGNS V0202251N005712200019N0480001N1+01241+00851102071ADDGA1999+018009999GF100991999999999999999999MA1999999101691MW1001
0292999999931131947052700005+33750-118250SAO  +001399999V02013559001550054949N006400599+01674+01175101434ADDGA1999+004574064GA2999+005494074GD19025+9999999GD29065+9999999GD39999+9999999GD49999+9999999MA1999999101294MW1045EQDN01 08200JPWTH 1QNNE11 1 09903E11 1 09907E11 1 09999E11 1 09999G11 1 00018H11 1 15015H11 1 16018K11 1 00053L11 1 00400M11 1 29910N11 1 08200Q11 1 10143S11 1 00062W11 1 44003
0082724296138411947072619004+39433-083800SAO  +0327ILN  V0202481N006210420019N0096001N1+02741+01911102241ADDGA1021+015009089GA2051+042009039GF107991999999999999999999MA1999999098541MW1051
0051255950999991947122300004+64417+172250FM-12+999999999V0203601N01231220001CN0200001N9-02281+99999100591ADDAY101999GF100991001001999999001001MD1710041+9999
0066749118999991947041910004+54767-058450SAO  +001099999V0203151N004610036019N0320001N1-00481-00761100271ADDGA1081+003609079GF108991999999999999999999MA1999999100031MW1001
0050702670264151947102417004+64000-145733SAO  +0388BIG  V0202931N004610036019N0160001N1-00701-00981099121ADDGF108991999999999999999999MA1999999094341MW1001
0340999999137541947020404005+34900-076883SAO  +001499999V02011359001552200049N016000599+00675+00225102015ADDGA1999+004574064GA2999+045724034GA3999+060964004GA4999+999999999GD19025+9999999GD29055+9999999GD39015+9999999GD49005+9999999MA1999999101835EQDN01 00000JPWTH 1QNNE11 1 09902E11 1 09906E11 1 09901E11 1 09900G11U1 99999H11 1 15015H11 1 23150H11 1 32200H11 1 00999K11 1 00036L11 1 01000M11 1 30070N11 1 00000Q11 1 10201S11 1 00044W11 1 34003
0085722575999991947040423004+31083-097683SAO  +0256ILE  V0201801N012310030019N0240001N1+02411+02021099532ADDGA1081+003009079GF108991999999999999999999MA1999999096381MW1001EQDQ01+099533APOSLP
0117432010999991947010212004+15417+075633FM-12+065099999V0200701N00101220001CN0500001N9+02221+01721101091ADDAY111999GA1999+000159999GA2999+000159999GF100991001001999999001001KA1999M+02611EQDQ01    003SCCGA1Q02    003SCCGA2
0082725038147141947032612004+41500-074100SAO  +0150SWF  V0202701N015410210019N0240001N1-00651-01531099121ADDGA1021+007509059GA2081+021009049GF108991999999999999999999MA1999999097391MW1001
0056749066999991947091916004+32267-064850SAO  +0013MYUN V0201131N004612200019N0240001N1+03021+02131102301ADDGA1041+999999089GA2021+999999009MA1999999102171MW1001
0082718150999991947111822004+48550-058550SAO  +0013CYJT V0203601N005110210019N0160001N1+00461+00131100271ADDGA1021+006009059GA2061+021009049GF108991999999999999999999MA1999999100101MW1001
0377999999138741947012421005+33650-084417SAO  +030399999V02022559004652200059N024000599+01675+00225101935ADDGA1999+999999034GA2999+999999999GA3999+999999999GA4999+999999999GD19015+9999999GD29005+9999999GD39005+9999999GD49005+9999999GF101995999999999999999999MA1999999098375EQDN01 00000JPWTH 1QNNE11 1 09901E11 1 09900E11 1 09900E11 1 09900G11U1 99999H11 1 23999H11 1 00999H11 1 00999H11 1 00999K11 1 00036L11 1 01500M11 1 29050N11 1 00000Q11 1 10193S11 1 00062V11 1 00199W11 1 66009
0058850330999991947110812004-10800-065367FM-12+017099999V0209991C00001004501CN0500001N9+02281+02171999999ADDAY121999GF108991081051004501001001MA1999999098061MW1031
0029719380999991947030200004+67817-115167FM-12+000499999V0202001N004619999999N0200001N9-02831+99999103151ADDGF100991001999999999999999
0050725810241931947021707004+40733-114033SAO  +1292ENV  V0203601N008212200019N0400001N1+00911+00081100341ADDGF100991999999999999999999MA1999999086081MW1001
0050723676230481947010204004+35183-103600SAO  +1231TCC  V0200231N003110090019N0128001N1-00311-00421101591ADDGF108991999999999999999999MA1999999087441MW1711
0066747340999991947111409004+32367-106467SAO  +129799999V0202901N003110030019N0128001N9+00581+00351100811ADDGA1081+003009079GF108991999999999999999999MA1999999086291MW1611
0085085090999991947042718004+38750-027083SAO  +0052LPLA V0201101N004612200019N0720001N9+01631+00961103381ADDGA1999+010509999GF100991999999999999999999MA1999999102741MW1001EQDQ01    003SCCGA1
0134427990999991947121603004+22817+086183FM-12+012999999V0209991C00001015001CN0010001N9+02001+01611101501ADDAA124009091AY151999GA1999+000159999GA2999+000159999GF107991071051017501001001KA1999N+01781MW1101EQDQ01    003SCCGA1Q02    003SCCGA2
006172354613969194711300100D+36733-097100SAO  +0304PNC  V0200451N004612200019N0240001N1+00191-00151103321ADDAA101000095GF100991999999999999999999MA1999999099591MW1001
0066724050137431947101903004+38850-077033SAO  +0020DCA  V0209991C000012200019N0080001N1+02071+02021101051ADDGA1011+060009009GF102991999999999999999999MA1999999100981MW1051
0082725300948461947050322004+41983-087900SAO  +0186ORD  V0201801N003110090019N0064001N9+01241+99999100751ADDGA1061+009009059GA2081+021009049GF108991999999999999999999MA1999999098371MW1041
0067727755241121947100923004+47517-111183SAO  +1054GFA  V0202301N002610600019N0960001N9+01721-00281100761ADDGA1021+045009039GA2061+060009009GF107991999999999999999999MW1001
0082724550139471947061918004+39050-096767SAO  +0324FRI  V0200701N003610045019N0080001N9+02411+02131101491ADDGA1061+004509059GA2061+042009039GF107991999999999999999999MA1999999097661MW1051
0017484560999991947071721004+13917+100600FM-12+000399999V02099999999999999999N9999999N9+99999+99999999999ADDAY101999MW1001
0383702960264101947103115003+60500-145500SAO  +0013CDV  V02004559001052200059N0480005N1-00445-00505101155ADDGA1999+999999999GA2999+999999999GA3999+999999999GA4999+999999999GD19005+9999999GD29005+9999999GD39005+9999999GD49005+9999999GF100065999999999999999999MA1999999100985MW1001EQDN01 00000JPWTH 1QNNE11 1 09900E11 1 09900E11 1 09900E11 1 09900G11U1 99999H11 1 00999H11 1 00999H11 1 00999H11 1 00999K11 1 00023L11 1 03000M11 1 29820N11 1 00000Q11 1 10115S11 1 00024V11 1 00008W11 1 22002
0066043390999991947040906004+70483-021967SAO  +0066BGSC V0201801N001510270019N0480001N1-02261-02481101731ADDGA1051+027009039GF107991999999999999999999MA1999999101591MW1001
0117430130999991947022003004+19883+075333FM-12+058199999V0201401N00261220001CN0100001N9+02111+00941101621ADDAY111999GA1999+000159999GA2999+000159999GF100991001001999999001001KA1999N+01941EQDQ01    003SCCGA1Q02    003SCCGA2
0270722265138211947010911003+32383-086350SAO  +0053MXF  V02031559002150304849N0112005N9+00725+00445102515ADDGA1081+030484034GD19085+9999999GD29999+9999999GD39999+9999999GF108995999999999999999999MA1999999101865EQDN01 00000JPWTH 1QNNE11 1 09910E11 1 09999E11 1 09999G11 1 00100H11 1 23100K11 1 00040L11 1 00700M11 1 30080N11 1 00000Q11 1 10251S11 1 00045V11 1 01099W11 1 88004
0066749044999991947072605004+26367-080100SAO  +0005BCT  V0201351N004112200019N0160001N1+02681+02411102031ADDGA1021+006009059GF102991999999999999999999MA1999999101961MW1001
0082479810999991947082619004+24783+141317SAO  +0114RJAW V0201131N002112200019N0480001N1+02681+02351101201ADDGA1011+005409089GA2021+066009009GF102991999999999999999999MA1999999100031MW1001
0066789480999991947091506004+13750-060950SAO  +0003TLPL V0200901N008210054019N0080001N1+02681+02351101251ADDGA1061+005409089GF107991999999999999999999MA1999999101191MW1801
0340999999931151947072523005+32567-117117SAO  +000999999V02027059005252200049N011200599+02114+01835101344ADDGA1999+001524074GA2999+045724044GA3999+999999999GA4999+999999999GD19015+9999999GD29015+9999999GD39005+9999999GD49005+9999999MA1999999101254EQDN01 00000JPWTH 1QNNE11 1 09901E11 1 09901E11 1 09900E11 1 09900G11U1 99999H11 1 16005H11 1 21150H11 1 00999H11 1 00999K11 1 00065L11 1 00700M11 1 29900N11 1 00000Q11 1 10134S11 1 00070W11 1 77010
0066749348999991947052023004+30583+114250SAO  +003799999V0200451N004610150019N0040001N1+02181+01911101051ADDGA1061+015009099GF107991999999999999999999MA1999999100611MW1051
0165999999149331947011013005+41533-093650SAO  +0286DSM  V02024859004652200059N016000599+00285+00005101395ADDGF107995999999999999999999MA1999999097805EQDN01 00000JPWTH 1QNNG11U1 99999K11 1 00032L11 1 01000M11 1 28880N11 1 00000Q11 1 10139S11 1 00037V11 1 00999W11 1 76009
0066747900138491947102017004+33967-080483SAO  +0072SSC  V0200201N003612200019N0112001N9+02551+01891101351ADDGA1021+010509059GF102991999999999999999999MA1999999100441MW1001
004594646099999194710050400N-30830+128100AUST +0160YPFT V0203155N007259999999N999999999+01925+99999999999ADDGA1005+999999999GF103995004999999999999999
0082749105999991947080619004+40733-073600SAO  +003899999V0201351N004612200019N0160001N1+02961+01521101731ADDGA1011+033009039GA2031+066009009GF102991999999999999999999MA1999999101391MW1001
0082724285138121947080403004+39817-082933SAO  +0225LCK  V0201401N002110360019N0128001N9+02571+02301101521ADDGA1021+007509089GA2051+036009039GF107991999999999999999999MA1999999098921MW1001
0066743941999991947112915004+42933-071433SAO  +0076MHT  V0202031N003612200019N0320001N1-00041-01031102401ADDGA1031+030009039GF102991999999999999999999MA1999999101521MW1001
0098749414999991947041104004-02050+147433SAO  +000899999V0203601N005110060019N0480001N1+02961+02411100371ADDGA1051+006009089GA2031+054009049GA3081+090009029GF108991999999999999999999MA1999999100471MW1001
0259999999242551947101923005+99999+999999SAO  +999999999V02036059001052200049N048000599+01065+00615101255ADDGA1999+999999044GD19085+9999999GD29999+9999999GD39999+9999999GD49999+9999999MA1999999101155EQDN01 00000JPWTH 1QNNE11 1 09910E11 1 09999E11 1 09999E11 1 09999G11U1 99999H11 1 21999K11 1 00043L11 1 03000M11 1 29870N11 1 00000Q11 1 10125S11 1 00051W11 1 11002
0346783670117061947010510003+19900-075150SAO  +0016MUGM V02009059004152200049N0240005N9+02335+02115101515ADDGA1021+009144064GA2021+036584034GA3999+999999999GA4999+999999999GD19025+9999999GD29025+9999999GD39005+9999999GD49005+9999999MA1999999101125MW1001EQDN01 00000JPWTH 1QNNE11 1 09902E11 1 09903E11 1 09900E11 1 09900G11U1 99999H11 1 15030H11 1 23120H11 1 00999H11 1 00999K11 1 00070L11 1 01500M11 1 29860N11 1 00000Q11 1 10151S11 1 00074W11 1 33008
0050702735264091947122908004+61217-149833SAO  +0041MRI  V0203601N002110150019N0240001N1-00921-01201101421ADDGF108991999999999999999999MA1999999100911MW1711
0259999999931131947041002005+33750-118250SAO  +001399999V02033859002152200049N048000599+01564+00615101224ADDGA1999+076204024GD19085+9999999GD29999+9999999GD39999+9999999GD49999+9999999MA1999999101224EQDN01 00000JPWTH 1QNNE11 1 09910E11 1 09999E11 1 09999E11 1 09999G11U1 99999H11 1 37250K11 1 00043L11 1 03000M11 1 29890N11 1 00000Q11 1 10122S11 1 00060W11 1 18004
0383999999938371947022112005+30233-081667SAO  +0009NIP  V02031559004152200059N008000599+00504+00225101324ADDGA1999+005494064GA2999+999999999GA3999+999999999GA4999+999999999GD19025+9999999GD29005+9999999GD39005+9999999GD49005+9999999GF102995999999999999999999MA1999999101194MW1045EQDN01 08200JPWTH 1QNNE11 1 09903E11 1 09900E11 1 09900E11 1 09900G11U1 99999H11 1 15018H11 1 00999H11 1 00999H11 1 00999K11 1 00036L11 1 00500M11 1 29880N11 1 08200Q11 1 10132S11 1 00041V11 1 00399W11 1 88008
0050749347999991947040910004+32083+118750SAO  +0025RNKG V0201131N004112200019N0160001N1+02131+00131101901ADDGF100991999999999999999999MA1999999101631MW1001
0060725196147171947081105004+43233-075417SAO  +0144RME  V0201101N001512200019N0048001N9+02051+01891102371ADDGA1001+999999999GF100991999999999999999999MA1999999100641
0233999999232391947122109005+37783-122317SAO  +000999999V02011359001550076249N011200599+01065+00895101965ADDGA1999+007624064GD19085+9999999GD29999+9999999GD39999+9999999MA1999999101865EQDN01 00000JPWTH 1QNNE11 1 09910E11 1 09999E11 1 09999G11 1 00025H11 1 15025K11 1 00048L11 1 00700M11 1 30080N11 1 00000Q11 1 10196S11 1 00051W11 1 34003
0066749121999991947122900004+56233-064733SAO  +0311CYIH V0203151N001510051019N0064001N1-01091-01371101051ADDGA1071+005109059GF107991999999999999999999MA1999999096921MW1711
010972221013858194705271800D+30483-086517SAO  +0025VPS  V0202001N006212200019N0240001N9+03021+02301101491ADDAA101000095GA1021+006009089GA2021+036009039GA3011+060009009GF102991999999999999999999MA1999999101251MW1001
0117432130999991947092603004+15833+078067FM-12+028199999V0202901N00461220001CN0200001N9+02391+02171100641ADDAY111999GA1999+000159999GA2999+000159999GF104991041001017501021001KA1999N+02221EQDQ01    003SCCGA1Q02    003SCCGA2
0066725377148041947110500004+42617-082817SAO  +0176MTC  V0201101N002610081019N0112001N9+01071+00801100881ADDGA1081+008109059GF108991999999999999999999MA1999999098711MW1001
0085106370999991947051403004+50033+008583SAO  +0110EDDF V0200201N001512200019N0320001N9+01551+00891101151ADDGA1999+075009999GF100991999999999999999999MA1999999099831MW1001EQDQ01    003SCCGA1
0056749498999991947121308004+15217+145750SAO  +001199999V0200681N005112200019N0320001N1+02801+02411100971ADDGA1031+006009089GA2011+060009009MA1999999100851MW1001
004594767599999194706140500N-33930+151170AUST +0004YSSY V0200905N003659999999N999999999+01775+99999999999ADDGA1005+999999999GF100995004999999999999999
0377999999266161947103011005+66867-162633SAO  +0006OTZ  V02011359008850015249N048000599-01005-01225102275ADDGA1999+999999999GA2999+999999999GA3999+999999999GA4999+999999999GD19005+9999999GD29005+9999999GD39005+9999999GD49005+9999999GF106995999999999999999999MA1999999102205EQDN01 00000JPWTH 1QNNE11 1 09900E11 1 09900E11 1 09900E11 1 09900G11 1 00005H11 1 00999H11 1 00999H11 1 00999H11 1 00999K11 1 00010L11 1 03000M11 1 30180N11 1 00000Q11 1 10227S11 1 00014V11 1 00799W11 1 34017
0060911820225211947121611004+21333-157950SAO  +0008PHNL V0203601N003112200019N0240001N9+02021+01691101221ADDGA1021+009009089GF102991999999999999999999MA1999999101121
017699999913739194702052300E+39883-075233SAO  +000899999V02027059006752200059N016000599-01115-01505100205ADDAA101000095GF100995999999999999999999MA1999999100105EQDN01 00000JPWTH 1QNNG11U1 99999K11 1 00005L11 1 01000M11 1 29560N11 1 00000Q11 1 10020S11 1 00012V11 1 00099W11 1 77013
0066467630999991947090618004+24333+121617SAO  +0013RCYU V0209991C000012200019N0020001N1+02521+02301100901ADDGA1041+018009059GF102991999999999999999999MA1999999100681MW1001
0066914900999991947062003004+01983-157483SAO  +0003PLCH V0200901N002110060019N0240001N1+02911+02131100781ADDGA1051+006009089GF107991999999999999999999MA1999999100781MW1001
0082914900999991947080109004+01983-157483SAO  +0003PLCH V0200901N001012200019N0240001N1+02681+02351101221ADDGA1021+006009089GA2011+036009049GF102991999999999999999999MA1999999101221MW1001
0066911700225081947072814004+21483-158033SAO  +0257PHHI V0209991C000010060019N0240001N9+02241+01911101591ADDGA1061+006009089GF107991999999999999999999MA1999999098611MW1001
0066704890999991947070211004+53900-166533SAO  +0004DUT  V0202481N006712200019N0240001N1+00851+00241101251ADDGA1021+999999059GF102991999999999999999999MA1999999101151MW1001
0340999999137731947041019005+38500-077317SAO  +000499999V02013559005252200049N012800599+01785+00785103015ADDGA1999+999999034GA2999+999999004GA3999+999999999GA4999+999999999GD19035+9999999GD29065+9999999GD39005+9999999GD49005+9999999MA1999999102985EQDN01 00000JPWTH 1QNNE11 1 09904E11 1 09908E11 1 09900E11 1 09900G11U1 99999H11 1 23999H11 1 32999H11 1 00999H11 1 00999K11 1 00046L11 1 00800M11 1 30410N11 1 00000Q11 1 10301S11 1 00064W11 1 44010
0346999999931141947061307005+33700-117833SAO  +002999999V02011359002152200049N006400599+01614+01445101094ADDGA1999+999999999GA2999+999999999GA3999+999999999GA4999+999999999GD19005+9999999GD29005+9999999GD39005+9999999GD49005+9999999MA1999999100784MW1055EQDN01 08100JPWTH 1QNNE11 1 09900E11 1 09900E11 1 09900E11 1 09900G11U1 99999H11 1 00999H11 1 00999H11 1 00999H11 1 00999K11 1 00058L11 1 00400M11 1 29760N11 1 08100Q11 1 10109S11 1 00061W11 1 34004
0066702615999991947010123004+64833-147600SAO  +0139PAFB V0209991C000010135019N0240001N9-00701-00871100741ADDGA1081+013509079GF108991999999999999999999MA1999999099091MW1711
004594646099999194705052200N-30830+128100AUST +0160YPFT V0202705N003159999999N999999999+01285+99999999999ADDGA1005+999999999GF103995004999999999999999
0171725190147711947110214003+43067-076267SAO  +0123SYR  V02099999000052200059N0024005N9+00675+00225102955ADDGF100995999999999999999999MA1999999101425MW1045EQDN01 08000JPWTH 1QNNG11U1 99999K11 1 00036L11 1 00150M11 1 29950N11 1 08000Q11 1 10295S11 1 00044V11 1 00099W11 1 00000
0377999999232721947060921005+37783-122417SAO  +003899999V02029359011352200059N019200599+01835+01285101835ADDGA1999+999999074GA2999+999999999GA3999+999999999GA4999+999999999GD19005+9999999GD29005+9999999GD39005+9999999GD49005+9999999GF100995999999999999999999MA1999999101765EQDN01 00000JPWTH 1QNNE11 1 09900E11 1 09900E11 1 09900E11 1 09900G11U1 99999H11 1 16999H11 1 00999H11 1 00999H11 1 00999K11 1 00055L11 1 01200M11 1 30050N11 1 00000Q11 1 10183S11 1 00065V11 1 00099W11 1 78022
0066107550999991947050311004+49317+010633SAO  +0472EDEB V0200901N006710240019N0128001N9+01631+00741101351ADDGA1081+024009049GF108991999999999999999999MA1999999095901MW1001
004594120099999194704281100N-12420+130870AUST +0030YPDN V0203605N001059999999N999999999+02595+99999999999ADDGA1005+999999999GF100995004999999999999999
0066724338138021947051007004+38550-089983SAO  +0134BLV  V0209991C000012200019N0096561N9+00671+00331102711ADDGA1001+999999999GF100991999999999999999999MA1999999101051MW1041
0025719675999991947041813004+62417-140867SAO  +0649CYXQ V0202701N002110120019N0128001N1-00421-00761100531ADDGA1081+999999059MW1711
0072749105999991947011600004+40733-073600SAO  +003899999V0209991C000010006019N0012001N1+00581+00521101591ADDGA1081+000609079GF108991999999999999999999MA1999999101221MW1451MW2611
0298999999931131947052214005+33750-118250SAO  +001399999V02015859004150027449N004800599+01564+01445101264ADDGA1999+002744064GA2999+004884074GD19055+9999999GD29035+9999999GD39999+9999999GD49999+9999999MA1999999101124MW1045MW2515EQDN01 03380JPWTH 1QNNE11 1 09906E11 1 09904E11 1 09999E11 1 09999G11 1 00009H11 1 15009H11 1 16016K11 1 00058L11 1 00300M11 1 29860N11 1 03380Q11 1 10126S11 1 00060W11 1 54008
0066749070999991947052815004+39433-077450SAO  +0100FDK  V0201801N001012200019N0160001N1+02571+02021101461ADDGA1031+066009009GF102991999999999999999999MA1999999100271MW1001
0050723418139771947070110004+33450-094000SAO  +0112TXK  V0201801N002612200019N0192001N1+02301+02181101731ADDGF102991999999999999999999MA1999999100441MW1001
0050749164999991947061516004+33233-107017SAO  +147899999V0201801N005112200019N0800001N1+02351+01351101221ADDGF100991999999999999999999MA1999999085341MW1001
0066718150999991947060123004+48550-058550SAO  +0013CYJT V0201801N007210105019N0240001N1+01191+00631101131ADDGA1081+010509079GF108991999999999999999999MA1999999100981MW1801
0066107380999991947040923004+48683+009200SAO  +0399EDDS V0203201N002610090019N0160001N9+00241+00131103251ADDGA1081+009009059GF108991999999999999999999MA1999999098271MW1001
0082983270999991947032902004+15183+120550SAO  +0145RPMK V0200201N001512200019N0321871N9+03161+01891101461ADDGA1021+012009089GA2021+075009019GF102991999999999999999999MA1999999099701MW1001
0082702720999991947021900004+61233-149867SAO  +0055PAED V0209991C000010240019N0240001N9+00301-00091101591ADDGA1021+015009059GA2061+024009039GF107991999999999999999999MA1999999100851MW1001
0082913660406041947013119004+08733+167733SAO  +0008PKWA V0200451N004110060019N0160001N1+02461+02411100581ADDGA1021+005409059GA2051+006009089GF107991999999999999999999MA1999999100541MW1801
0040911903225161947011216004+20900-156433SAO  +0012OGG  V0200451N002110045019N0160001N1+01911+01461101421ADDGA1081+004509059MA1999999098271MW1801
0082724070937301947090703004+39450-074583SAO  +0024ACY  V0200901N003610075019N0128001N9+02241+02071101831ADDGA1051+999999059GA2081+999999049GF108991999999999999999999MA1999999101591MW1001
0082747750138461947081101004+30067-085583SAO  +0006PAM  V0201101N005112200019N0128001N9+02681+02351101391ADDGA1021+006009089GA2061+075009029GF107991999999999999999999MA1999999101321MW1001
0383726580149221947041406003+44883-093217SAO  +0254MSP  V02029359003152200059N0240005N9+00445+00175102075ADDGA1001+999999999GA2999+999999999GA3999+999999999GA4999+999999999GD19005+9999999GD29005+9999999GD39005+9999999GD49005+9999999GF100995999999999999999999MA1999999098955MW1001EQDN01 00000JPWTH 1QNNE11 1 09900E11 1 09900E11 1 09900E11 1 09900G11U1 99999H11 1 00999H11 1 00999H11 1 00999H11 1 00999K11 1 00035L11 1 01500M11 1 29220N11 1 00000Q11 1 10207S11 1 00040V11 1 00099W11 1 78006
0066747900138491947010312004+33967-080483SAO  +0072SSC  V0201401N001010006019N0032001N9+01001+01001102131ADDGA1081+000609079GF108991999999999999999999MA1999999101191MW1451
0082983260999991947010806004+14983+120483SAO  +0046RPUF V0200681N005712200019N0240001N1+03181+01801100951ADDGA1011+009009089GA2011+075009029GF102991999999999999999999MA1999999100411MW1001
0082703160256241947013005004+55200-162717SAO  +0031CDB  V0201351N010810210019N0240001N1-00151-00371102171ADDGA1011+012009059GA2081+021009039GF108991999999999999999999MA1999999101791MW1001
0076911820225211947022703004+21333-157950SAO  +0008PHNL V0203401N002110105019N0240001N9+02181+01301101761ADDGA1051+010509089GA2061+036009049GF107991999999999999999999MA1999999101661
0340999999148551947071019005+42083-087833SAO  +0197NBU  V02002359003652200049N019200599+02175+01505101375ADDGA1999+999999034GA2999+999999004GA3999+999999999GA4999+999999999GD19015+9999999GD29005+9999999GD39005+9999999GD49005+9999999MA1999999099155EQDN01 00000JPWTH 1QNNE11 1 09901E11 1 09900E11 1 09900E11 1 09900G11U1 99999H11 1 23999H11 1 32999H11 1 00999H11 1 00999K11 1 00059L11 1 01200M11 1 29280N11 1 00000Q11 1 10137S11 1 00071W11 1 12007
0066476350999991947110323004+35250+136933SAO  +0017RJNN V0209991C000012200019N0048001N1+00961+00741102131ADDGA1999+015009999GF100991999999999999999999MA1999999102001MW1111
0114479810999991947060122004+24783+141317SAO  +0114RJAW V0202251N007712200019N0480001N1+02571+02521100741ADDGA1061+001809079GA2011+006009059GA3021+036009039GA4041+066009009GF107991999999999999999999MA1999999099561MW1001
0059949680999991947051108003-41550+147217FM-12+0174YMLT V0203201N001519999999N0190001N9+01391+01061999999ADDAY101999GA1025+015005999GF105991021999017501999999MW1001
0082085090999991947030805004+38750-027083SAO  +0052LPLA V0202501N008710060019N0160001N9+01571+01301100691ADDGA1021+004509059GA2061+006009059GF108991999999999999999999MA1999999100071MW1001
0056913340405051947102922004+07467+151850SAO  +0002PTKK V0200901N002112200019N0320001N1+02851+02461100781ADDGA1041+006009089GA2071+054009039MA1999999100711MW1001
0082722535129091947031116004+29383-098567SAO  +0208SKF  V0201401N006710030019N0128001N9+01571+01461101831ADDGA1061+003009059GA2081+012009059GF108991999999999999999999MA1999999099361MW1001
0117431690999991947033012004+16200+077350FM-12+040099999V0201101N00461220001CN0200001N9+03721+01391100491ADDAY111999GA1999+000159999GA2999+000159999GF104991001001999999081041KA1999M+03781EQDQ01    003SCCGA1Q02    003SCCGA2
0050723546139691947092204004+36733-097100SAO  +0304PNC  V0200231N004612200019N0240001N1+01571+01241102201ADDGF100991999999999999999999MA1999999098611MW1001
0072747900138491947111512004+33967-080483SAO  +0072SSC  V0203601N003610015019N0048001N9+00611+00611101521ADDGA1081+001509079GF108991999999999999999999MA1999999100581MW1051MW2611
0009717070999991947022404004+46167-060050SAO  +0062CYQY V0202251N004612200019N0192001N1-00371-00481099711ADDMW1001
0383999999137101947081400005+38850-077017SAO  +000899999V02013559004652200059N006400599+03005+02395101565ADDGA1999+030484034GA2999+999999999GA3999+999999999GA4999+999999999GD19025+9999999GD29005+9999999GD39005+9999999GD49005+9999999GF102995999999999999999999MA1999999101495MW1045EQDN01 08200JPWTH 1QNNE11 1 09902E11 1 09900E11 1 09900E11 1 09900G11U1 99999H11 1 23100H11 1 00999H11 1 00999H11 1 00999K11 1 00075L11 1 00400M11 1 29970N11 1 08200Q11 1 10156S11 1 00086V11 1 00299W11 1 44009
0383999999147621947071709005+40350-079933SAO  +038899999V02018059001552200059N004000599+02005+01895101025ADDGA1999+009144064GA2999+045724034GA3999+999999999GA4999+999999999GD19025+9999999GD29065+9999999GD39005+9999999GD49005+9999999GF106995999999999999999999MA1999999096585MW1045EQDN01 08000JPWTH 1QNNE11 1 09903E11 1 09907E11 1 09900E11 1 09900G11U1 99999H11 1 15030H11 1 23150H11 1 00999H11 1 00999K11 1 00066L11 1 00250M11 1 28520N11 1 08000Q11 1 10102S11 1 00068V11 1 00899W11 1 55003
0029719660999991947110112004+64067-139483FM-12+032499999V0209991C000019999999N0500001N9-00221-00281100631ADDGF108991001999999999999999
0066724550139471947111914004+39050-096767SAO  +0324FRI  V0201401N004110027019N0128001N9+00441+00331102271ADDGA1081+002709079GF108991999999999999999999MA1999999098271MW1001
0082085090999991947122623004+38750-027083SAO  +0054LPLA V0202301N006710210019N0160001N9+01851+01571102551ADDGA1021+007509089GA2061+021009039GF107991999999999999999999MA1999999101931MW1001
0066476430999991947111408004+35833+139417SAO  +0090RJTJ V0202701N003112200019N0400001N1+01571+00411101391ADDGA1999+007509999GF100991999999999999999999MA1999999100341MW1001
0025719675999991947092519004+62417-140867SAO  +0649CYXQ V0202701N004610120019N0480001N1+00411+00191101751ADDGA1081+999999059MW1611
0066722670230421947111509004+33650-101833SAO  +0988LBB  V0203381N006212200019N0240001N1+00301+00021101021ADDGA1001+999999999GF100991999999999999999999MA1999999089841MW1001
0351999999938321947040319005+99999+999999SAO  +999999999V02027059004150091449N019200599+02784+01505101464ADDGA1999+009144084GA2999+999999999GA3999+999999999GA4999+999999999GD19055+9999999GD29005+9999999GD39005+9999999GD49005+9999999GF105995999999999999999999EQDN01 00000JPWTH 1QNNE11 1 09906E11 1 09900E11 1 09900E11 1 09900G11 1 00030H11 1 11030H11 1 00999H11 1 00999H11 1 00999K11 1 00059L11 1 01200N11 1 00000Q11 1 10146S11 1 00082V11 1 00699W11 1 77008
0117424100999991947091412004+26183+091750FM-12+005599999V0202001N001019999999N0200001N9+02941+02441100381ADDAY111999GA1999+000159999GA2999+000159999GF106991041999012501999999KA1999M+03171EQDQ01    003SCCGA1Q02    003SCCGA2
0128430810999991947081203004+18667+078100FM-12+038199999V0201801N00101220001CN0040001N9+02721+02331100441ADDAA124000591AY111999GA1999+000159999GA2999+000159999GF102991001001999999051011KA1999N+02441EQDQ01    003SCCGA1Q02    003SCCGA2
0066722657230411947072721004+32300-101450SAO  +0781HCA  V0201351N007210210019N0240001N1+03461+01461101591ADDGA1051+021009089GF107991999999999999999999MA1999999092961MW1001
0066745940137051947092909004+38817-076883SAO  +0085ADW  V0200701N002612200019N0160001N9+00801+00801102841ADDGA1001+999999999GF100991999999999999999999MA1999999101791MW1001
0066703610253391947042907004+59517-139667SAO  +0009CYAK V0200901N012310066019N0160001N1+00461+00351099091ADDGA1071+006609059GF107991999999999999999999MA1999999098981MW1001
0270999999149361947121016005+44383-098217SAO  +039599999V02013559001052200059N012800599-01285-01505102375ADDGA1999+000004999GD19999+9999999GD29999+9999999GD39999+9999999GF105995999999999999999999MA1999999097435EQDN01 00000JPWTH 1QNNE11 1 09999E11 1 09999E11 1 09999G11U1 99999H11 1 99000K11 1 00005L11 1 00800M11 1 28770N11 1 00000Q11 1 10237S11 1 00009V11 1 00699W11 1 44002
0171726580149221947032308003+44883-093217SAO  +0254MSP  V02024859002652200059N0240005N9+00615+00395099935ADDGF108995999999999999999999MA1999999096885MW1001EQDN01 00000JPWTH 1QNNG11U1 99999K11 1 00039L11 1 01500M11 1 28610N11 1 00000Q11 1 09993S11 1 00043V11 1 01099W11 1 76005
0066840010999991947081014004-00450-090267SAO  +0016SEGS V0201581N004110075019N0160001N1+02181+01741101521ADDGA1081+007509059GF108991999999999999999999MA1999999101391MW1001
0079723630230471947092603004+35233-101700SAO  +1099AMA  V0201351N007212200019N0240001N1+01851+00801102331ADDGA1999+042009999GF100991999999999999999999MA1999999090011EQDQ01    003SCCGA1
0051719130999991947112409004+58750-094067SAO  +0029CYYQ V0202701N008212200019N0240001N1-02641-02921100431ADDGA1021+015009059GF102991999999999999999999MW1001
0050106875999991947081900004+49583+011033SAO  +0282EDET V0209991C000012200019N0240001N1+01461+01191101591ADDGF100991999999999999999999MA1999999098371MW1001
0035107340999991947012513004+49400+008650SAO  +0110EDIE V0201581N002612200019N0064001N1+99999+99999999999ADDGF100991999999999999999999MW1051
005194610599999194705140100N-31930+115970AUST +0012YPPH V0202935N005159999999N999999999+01345+01005999999ADDGA1085+007505085GF108995084085007505999999MW1815
0039710351999991947090721004+61650-137483SAO  +0966CYZK V0201801N004612200019N0480001N1+01071-00261100461ADDGA1041+999999009MD1710121+9999MW1001
0050722670230421947100613004+33650-101833SAO  +0988LBB  V0202031N004612200019N0240001N1+01961+01411101421ADDGF108991999999999999999999MA1999999090481MW1001
0072704140999991947040109004+52717+174100SAO  +0027PASY V0200901N011810024019N0048001N9+00131+00081098411ADDGA1081+002409079GF108991999999999999999999MA1999999098071MW1451MW2711
0050722448999991947101208004+32367-095400SAO  +0168TYR  V0201581N003112200019N0160001N1+01961+01571101321ADDGF100991999999999999999999MA1999999099531MW1001
0082702610264111947090919004+64817-147867SAO  +0138FAI  V0200901N003612200019N0160001N1+00631+00521099531ADDGA1061+000909079GA2081+033009039GF108991999999999999999999MA1999999097801MW1611
0066108580999991947052614004+48200+011267SAO  +0519EDSF V0209991C000012200019N0240001N1+02521+01301101731ADDGA1021+013509089GF102991999999999999999999MA1999999095771MW1001
0070784570999991947011818004+19783-070667FM-12+001699999V0200501N002619999999N0200001N9+02501+99999101761ADDAY111999GF104991041021008001001001KA1999N+01891MD1810281+9999MW1011
0119042310999991947061012004+67000-050800SAO  +0050BGSF V0201351N008210210019N0480001N1+01411-00091101081ADDAA124000091GA1011+013509059GA2081+021009039GF108991999999999999999999KA1999M+01631KA2999N+00961MA1999999100411MW1001
0233999999938411947052617005+99999+999999SAO  +999999999V02027059002150061049N012800599+02784+02505101654ADDGA1999+006104084GD19085+9999999GD29999+9999999GD39999+9999999MA1999999101024EQDN01 00000JPWTH 1QNNE11 1 09910E11 1 09999E11 1 09999G11 1 00020H11 1 11020K11 1 00077L11 1 00800M11 1 29830N11 1 00000Q11 1 10165S11 1 00082W11 1 77004
004594767599999194703042300N-33930+151170AUST +0004YSSY V0202705N002159999999N999999999+02185+99999999999ADDGA1005+999999999GF100995004999999999999999
0060744900147021947103002004+42467-071283SAO  +0045BED  V0200501N004610015019N0032001N9+00801+00691101521ADDGA1081+001509059GF108991999999999999999999MA1999999101051
0066724338138021947092303004+38550-089983SAO  +0134BLV  V0209991C000012200019N0193121N9+00831+00611102681ADDGA1001+999999999GF100991999999999999999999MA1999999101021MW1001
0117427310999991947041803004+22367+069083FM-12+001199999V0203201N00261220001CN0100001N9+02671+02441100651ADDAY111999GA1999+000159999GA2999+000159999GF102991011011012501051031KA1999N+02611EQDQ01    003SCCGA1Q02    003SCCGA2
0066702720999991947092712004+61233-149867SAO  +0055PAED V0200501N000510180019N0240001N9+00741+00631102171ADDGA1081+018009039GF108991999999999999999999MA1999999101421MW1801
0050723273999991947031501004+36000-086500SAO  +0166MQY  V0201581N003612200019N0160001N1+00521+99999101631ADDGF100991999999999999999999MA1999999099661MW1001
0066704140999991947070508004+52717+174100SAO  +0027PASY V0201801N008210001519N0001001N9+00631+00581100851ADDGA1091+000159999GF109991999999999999999999MA1999999100511MW1451
0066725810241931947111114004+40733-114033SAO  +1292ENV  V0203151N002610006019N0032001N1+00191+00081101521ADDGA1081+000609079GF108991999999999999999999MA1999999086961MW1711
0066703160256241947042613004+55200-162717SAO  +0031CDB  V0201131N013410105019N0240001N1+00241+00131100441ADDGA1081+010509059GF108991999999999999999999MA1999999100071MW1001
0082479810999991947080801004+24783+141317SAO  +0114RJAW V0200231N005712200019N0480001N1+02851+02461101741ADDGA1021+005409089GA2011+066009009GF102991999999999999999999MA1999999100541MW1001
0329999999931151947031201005+32567-117117SAO  +000999999V02029359004652200049N016000599+01564+99999101304ADDGA1999+018294064GA2999+999999999GA3999+999999999GA4999+999999999GD19015+9999999GD29005+9999999GD39005+9999999GD49005+9999999MA1999999101194EQDN01 00000JPWTH 1QNNE11 1 09901E11 1 09900E11 1 09900E11 1 09900G11U1 99999H11 1 15060H11 1 00999H11 1 00999H11 1 00999L11 1 01000M11 1 29880N11 1 00000Q11 1 10130S11 1 00060W11 1 78009
0029719460999991947040208004+61867-121350FM-12+012799999V02099999999999999999N9999999N9+99999+99999999999ADDKA1999M-00721KA2999N-02061
0377999999137251947071012005+39250-076533SAO  +001399999V02022559004652200059N011200599+02335+02065101935ADDGA1999+004574074GA2999+060964004GA3999+999999999GA4999+999999999GD19025+9999999GD29065+9999999GD39005+9999999GD49005+9999999GF106995999999999999999999MA1999999101905EQDN01 00000JPWTH 1QNNE11 1 09903E11 1 09908E11 1 09900E11 1 09900G11U1 99999H11 1 16015H11 1 32200H11 1 00999H11 1 00999K11 1 00069L11 1 00700M11 1 30090N11 1 00000Q11 1 10193S11 1 00074V11 1 00899W11 1 66009
0165999999147521947021813005+41733-072650SAO  +0006HFD  V02036059002152200059N019200599-00175-01005101025ADDGF102995999999999999999999MA1999999100955EQDN01 00000JPWTH 1QNNG11U1 99999K11 1 00014L11 1 01200M11 1 29810N11 1 00000Q11 1 10102S11 1 00029V11 1 00399W11 1 11004
0050701160266181947101517004+65617-168050SAO  +0005WAA  V0200231N015910090019N0160001N1-00041-00371099151ADDGF108991999999999999999999MA1999999099091MW1001
0383725101147121947063002003+40383-075967SAO  +0096RDG  V02099999000052200059N0128005N1+02395+02065101525ADDGA1999+999999999GA2999+999999999GA3999+999999999GA4999+999999999GD19005+9999999GD29005+9999999GD39005+9999999GD49005+9999999GF100995999999999999999999MA1999999100375MW1001EQDN01 00000JPWTH 1QNNE11 1 09900E11 1 09900E11 1 09900E11 1 09900G11U1 99999H11 1 00999H11 1 00999H11 1 00999H11 1 00999K11 1 00069L11 1 00800M11 1 29640N11 1 00000Q11 1 10152S11 1 00075V11 1 00099W11 1 00000
0082107380999991947033101004+48683+009200SAO  +0399EDDS V0202001N004610600019N0240001N9+00691+00411100031ADDGA1031+021009039GA2021+060009029GF107991999999999999999999MA1999999095291MW1001
0050722435999991947091307004+29650-095283SAO  +0019HOU  V0203601N003112200019N0160001N1+02411+02071101591ADDGF102991999999999999999999MA1999999101391MW1001
0117417150999991947022812004+28283+068483FM-12+005799999V0203401N00261220001CN0100001N9+02941+00831100861ADDAY111999GA1999+000159999GA2999+000159999GF104991001001999999001041KA1999M+03111EQDQ01    003SCCGA1Q02    003SCCGA2
0066749140999991947122802004+66033-053567SAO  +001399999V0202701N008210030019N0008001N1-00811-01151100071ADDGA1081+003009059GF108991999999999999999999MA1999999099901MW1731
0066911700225081947032422004+21483-158033SAO  +0257PHHI V0200501N005110054019N0160001N9+02071+01631102301ADDGA1061+005409059GF107991999999999999999999MA1999999099291MW1511
0050108640999991947092714004+48067+011633SAO  +0560EDSN V0203601N003612200019N0320001N1+02181+00961101861ADDGF100991999999999999999999MA1999999095461MW1001
0134703500255011947110619003+57750-152500SAO  +0034ADQ  V02099999000050213449N0240005N1+00565+00225099835ADDMA1999999099425MW1001EQDN01 00000JPWTH 1QNNG11 1 00070K11 1 00036L11 1 01500M11 1 29360N11 1 00000Q11 1 09983S11 1 00042W11 1 00000
0066788071999991947100207004+08967-079550SAO  +0012MBLB V0202701N001512200019N0128001N1+02571+02411100851ADDGA1051+090009009GF107991999999999999999999MA1999999100781MW1001
0066110100999991947012102004+48233+014183SAO  +0304LOXL V0203381N002610060019N0032001N1-00261-00311101961ADDGA1081+006009079GF108991999999999999999999MA1999999098211MW1711
0072723170137231947040503004+36083-079950SAO  +0270GSO  V0203381N002110114019N0096001N1+01241+00961102341ADDGA1081+011409059GF108991999999999999999999MA1999999099091MW1051MW2611
0066724567139211947021410004+39367-094917SAO  +0238FLV  V0203151N004612200019N0160001N1+00581+00081101691ADDGA1021+069009009GF102991999999999999999999MA1999999098851MW1001
0098476430999991947072611004+35833+139417SAO  +0090RJTJ V0200451N001510600019N0048001N1+02741+02521100951ADDGA1031+006009099GA2021+024009039GA3081+060009029GF108991999999999999999999MA1999999100141MW1051
0050702770999991947091801004+60117-149450SAO  +00185WD  V0201801N005710045019N0048001N1+01191+01071101291ADDGF108991999999999999999999MA1999999101051MW1611
0050722448999991947100923004+32367-095400SAO  +0168TYR  V0200681N002612200019N0192001N1+02851+01571101491ADDGF102991999999999999999999MA1999999099701MW1001
0117433190999991947042703004+11000+076967FM-12+040999999V0202001N00261220001CN0200001N9+02561+02171100951ADDAY111999GA1999+000159999GA2999+000159999GF102991011011012501041001KA1999N+02391EQDQ01    003SCCGA1Q02    003SCCGA2
0050723601230071947080305004+34433-100300SAO  +0595CDS  V0201581N005112200019N0240001N1+02851+01521101561ADDGF102991999999999999999999MA1999999094921MW1001
0346999999931131947011615005+33750-118250SAO  +001399999V02031559002152200049N000800599+00174-00225102424ADDGA1999+999999999GA2999+999999999GA3999+999999999GA4999+999999999GD19005+9999999GD29005+9999999GD39005+9999999GD49005+9999999MA1999999102274MW1045EQDN01 08200JPWTH 1QNNE11 1 09900E11 1 09900E11 1 09900E11 1 09900G11U1 99999H11 1 00999H11 1 00999H11 1 00999H11 1 00999K11 1 00028L11 1 00050M11 1 30200N11 1 08200Q11 1 10242S11 1 00035W11 1 88004
0066724070937301947012612004+39450-074583SAO  +0024ACY  V0201401N004112200019N0048001N9+00461+99999101511ADDGA1041+999999049GF102991999999999999999999MA1999999101251MW1451
0340999999412241947051715005+14500+120917SAO  +0002RPMS V02022559003152200049N019200599+02835+02395101105ADDGA1999+009144084GA2999+033534034GA3999+079254004GA4999+999999999GD19025+9999999GD29025+9999999GD39025+9999999GD49005+9999999MA1999999101085EQDN01 00000JPWTH 1QNNE11 1 09902E11 1 09902E11 1 09902E11 1 09900G11U1 99999H11 1 11030H11 1 23110H11 1 32260H11 1 00999K11 1 00075L11 1 01200M11 1 29850N11 1 00000Q11 1 10110S11 1 00083W11 1 66006
0066722595139111947030123004+32783-097433SAO  +0192FWH  V0203401N008712200019N0192001N9+00611+99999102001ADDGA1021+042009039GF102991999999999999999999MA1999999099761MW1001
0066724550139471947122310004+39050-096767SAO  +0324FRI  V0203601N004110030019N0128001N9+00001-00111102371ADDGA1081+003009079GF108991999999999999999999MA1999999098341MW1511
007772351013966194711262000D+33983-098517SAO  +0310SPS  V0202901N004612200019N0240001N9+01571+00301101931ADDAA101000095GA1001+999999999GF100991999999999999999999MA1999999098211MW1001
0098725755241011947101500004+41117-111967SAO  +1459HIF  V0202301N001512200019N0320001N9+01501+00441101461ADDGA1021+018009059GA2011+042009049GA3021+075009009GF102991999999999999999999MA1999999085371MW1001
0050723446139711947101608004+36267-093150SAO  +0422HRO  V0209991C000012200019N0240001N1+00691+00581101191ADDGF100991999999999999999999MA1999999097261MW1001
0066722485139441947011706004+32500-093683SAO  +0053BAD  V0200201N008710027019N0096001N9+00521+00411102511ADDGA1081+002709079GF108991999999999999999999MA1999999101831MW1611
0050722596139611947020711004+32817-097350SAO  +0215FTW  V0201801N002612200019N0080001N1+00461-00261100951ADDGF100991999999999999999999MA1999999098411MW1061
0035719340999991947010918004+60017-112000FM-12+020399999V0209991C000019999999N0100001N9-01221-01331101701ADDGF108991081999008001999999MW1711
0050702670264151947102612004+64000-145733SAO  +0388BIG  V0201351N007712200019N0320001N1-00261-00591098981ADDGF100991999999999999999999MA1999999094241MW1001
0009717070999991947072506004+46167-060050SAO  +0062CYQY V0202251N003612200019N0240001N1+01571+01521102041ADDMW1001
0082749044999991947091104004+26367-080100SAO  +0005BCT  V0200451N001512200019N0160001N1+02631+99999101761ADDGA1011+006009089GA2031+060009009GF102991999999999999999999MA1999999101731MW1001
0088999999947351947111021005+43067-070817SAO  +002999999V02029359004652200049N064000599+00724-00445999999EQDN01 00000JPWTH 1QNNG11U1 99999K11 1 00024L11 1 04000N11 1 00000S11 1 00045W11 1 78009
004594646099999194712190400N-30830+128100AUST +0160YPFT V0202935N013459999999N999999999+03445+99999999999ADDGA1025+021005999GF102995024999021005999999
0296999999149361947092023005+44383-098217SAO  +039599999V02029359006752200059N048000599+02285+00285101395ADDGA1999+000004999GD19999+9999999GD29999+9999999GD39999+9999999GD49999+9999999GF100995999999999999999999MA1999999096825EQDN01 00000JPWTH 1QNNE11 1 09999E11 1 09999E11 1 09999E11 1 09999G11U1 99999H11 1 99000K11 1 00037L11 1 03000M11 1 28590N11 1 00000Q11 1 10139S11 1 00073V11 1 00099W11 1 78013
0050467510999991947012415004+24183+120650SAO  +0111RCLG V0203601N002112200019N0040001N1+01191+01071102841ADDGF100991999999999999999999MA1999999100071MW1001
0171723530139671947032813003+35400-097600SAO  +0390OKC  V02018059004652200059N0240005N1-00065-00285102545ADDGF104995999999999999999999MA1999999097735MW1001EQDN01 00000JPWTH 1QNNG11U1 99999K11 1 00027L11 1 01500M11 1 28860N11 1 00000Q11 1 10254S11 1 00031V11 1 00599W11 1 55009
004594999900073194704241100N-16270+133380AUST +0214     V0209999C000059999999N999999999+02115+99999999999ADDGA1005+999999999GF100995004999999999999999
0340999999414111947100413005+13433+144633SAO  +002499999V02027059002652200049N019200599+02615+02445100725ADDGA1999+003664084GA2999+999999999GA3999+999999999GA4999+999999999GD19035+9999999GD29005+9999999GD39005+9999999GD49005+9999999MA1999999100445EQDN01 00000JPWTH 1QNNE11 1 09904E11 1 09900E11 1 09900E11 1 09900G11U1 99999H11 1 11012H11 1 00999H11 1 00999H11 1 00999K11 1 00076L11 1 01200M11 1 29660N11 1 00000Q11 1 10072S11 1 00079W11 1 77005
0346999999130171947031508005+34300-006600SAO  +0012GMMP V02009059001552200049N008000599+01175+00945101835ADDGA1999+999999024GA2999+999999999GA3999+999999999GA4999+999999999GD19025+9999999GD29005+9999999GD39005+9999999GD49005+9999999MA1999999101665MW1055EQDN01 08100JPWTH 1QNNE11 1 09902E11 1 09900E11 1 09900E11 1 09900G11U1 99999H11 1 37999H11 1 00999H11 1 00999H11 1 00999K11 1 00049L11 1 00500M11 1 30020N11 1 08100Q11 1 10183S11 1 00053W11 1 33003
0066749105999991947122616004+40733-073600SAO  +003899999V0200231N008210001519N0002001N1-00091-00091100171ADDGA1091+000159999GF109991999999999999999999MA1999999099801MW1751
0050723546139691947062807004+36733-097100SAO  +0304PNC  V0201581N005112200019N0192001N1+02741+02241100201ADDGF100991999999999999999999MA1999999096781MW1001
0050722525129201947071007004+27600-099517SAO  +0161LOI  V0201351N005112200019N0240001N1+02801+02071101351ADDGF100991999999999999999999MA1999999099591MW1001
0077851040999991947122618004-13067-046800FM-12+020099999V0203401N006219999999N0500001N9+03171+02331999999ADDAY121999GF106991041081999999001021MA1999999098711MW1021EQDQ01+000992SCOLCB
0066722400039371947111921004+30117-093317SAO  +0010LCH  V0200231N003110039019N0160001N1+01301+00961101801ADDGA1081+003909079GF108991999999999999999999MA1999999101691MW1001
0057702650999991947013013004+64650-147067SAO  +0164PAEI V0201401N000512200019N0004021N9-04991+99999999999ADDGA1001+999999999GF100991999999999999999999MW1041MW2451
0009719640999991947092708004+60717-135067SAO  +0703CYXY V0203151N003112200019N0480001N1+00351+00081103051ADDMW1001
0066983270999991947050320004+15183+120550SAO  +0145RPMK V0202701N002112200019N0209211N9+02391+02161101021ADDGA1021+024009039GF102991999999999999999999MA1999999099291MW1001
0066747910137171947030307004+33683-078933SAO  +0008MYR  V0202701N004112200019N0128001N9-00151-00591100911ADDGA1001+999999999GF100991999999999999999999MA1999999100781MW1001
0066724060937211947112700004+39250-076667SAO  +0047BWI  V0202701N008712200019N0160001N1+00351-00531101351ADDGA1011+033009039GF102991999999999999999999MA1999999101291MW1001
0377999999266171947082305005+64500-165433SAO  +0004OME  V02027059005252200059N040000599+01225+00785102075ADDGA1999+999999999GA2999+999999999GA3999+999999999GA4999+999999999GD19005+9999999GD29005+9999999GD39005+9999999GD49005+9999999GF102995999999999999999999MA1999999102005EQDN01 00000JPWTH 1QNNE11 1 09900E11 1 09900E11 1 09900E11 1 09900G11U1 99999H11 1 00999H11 1 00999H11 1 00999H11 1 00999K11 1 00046L11 1 02500M11 1 30120N11 1 00000Q11 1 10207S11 1 00054V11 1 00299W11 1 77010
0340999999116181947031521005+18467-066117SAO  +001399999V02006859004652200049N024000599+02615+02225101635ADDGA1999+009144084GA2999+076204004GA3999+999999999GA4999+999999999GD19025+9999999GD29025+9999999GD39005+9999999GD49005+9999999MA1999999101495EQDN01 00000JPWTH 1QNNE11 1 09902E11 1 09902E11 1 09900E11 1 09900G11U1 99999H11 1 11030H11 1 32250H11 1 00999H11 1 00999K11 1 00072L11 1 01500M11 1 29970N11 1 00000Q11 1 10163S11 1 00079W11 1 32009
0077852010999991947050522004-16500-068167FM-12+406399999V0200901N003119999999N0500001N9+01171+00611999999ADDAY101999GF105991031071999999001021MA1999999102671MW1021EQDQ01+000992SCOLCB
0383702923264401947090113003+63400-143317SAO  +0471TSG  V02029359001550213449N0480005N1+00725+00285100245ADDGA1999+999999999GA2999+999999999GA3999+999999999GA4999+999999999GD19005+9999999GD29005+9999999GD39005+9999999GD49005+9999999GF107995999999999999999999MA1999999094585MW1001EQDN01 00000JPWTH 1QNNE11 1 09900E11 1 09900E11 1 09900E11 1 09900G11 1 00070H11 1 00999H11 1 00999H11 1 00999H11 1 00999K11 1 00037L11 1 03000M11 1 27930N11 1 00000Q11 1 10024S11 1 00045V11 1 00999W11 1 78003
0066724338138021947040209004+38550-089983SAO  +0134BLV  V0202901N004612200019N0048281N9+00721+00561101391ADDGA1001+999999999GF100991999999999999999999MA1999999099731MW1111
0049856290999991947102812004-34967-071217FM-12+021199999V0209991C000019999999N0040001N9+01221+99999101901ADDAY101999GF108991081041999999999999IA1009MW1031
0066724550139471947032521004+39050-096767SAO  +0324FRI  V0203401N008210075019N0240001N9+01071-00041102371ADDGA1061+007509059GF107991999999999999999999MA1999999098411MW1001
0066724567139211947082415004+39367-094917SAO  +0238FLV  V0202251N002112200019N0192001N1+03291+02131101691ADDGA1021+075009009GF102991999999999999999999MA1999999098921MW1001
0029719031999991947022418004+61300-064883FM-12+003999999V0200501N011819999999N0200001N9-00941+99999102921ADDGF106991051051008001031001
0270722265138211947070620003+32383-086350SAO  +0053MXF  V02027059003150365849N0128005N9+02945+01565101695ADDGA1081+036584034GD19085+9999999GD29999+9999999GD39999+9999999GF108995999999999999999999MA1999999101085EQDN01 00000JPWTH 1QNNE11 1 09910E11 1 09999E11 1 09999G11 1 00120H11 1 23120K11 1 00060L11 1 00800M11 1 29850N11 1 00000Q11 1 10169S11 1 00085V11 1 01099W11 1 77006
0128480420999991947061203004+21983+096083FM-12+007799999V0201801N00671004501CN0100001N9+02941+02611100351ADDAA124003091AY151999GA1999+000159999GA2999+000159999GF107991061061004501071001KA1999N+02501EQDQ01    003SCCGA1Q02    003SCCGA2
0060723810231141947122021004+34967-117900SAO  +0693EDW  V0209991C000012200019N0800001N9+01551+00221101461ADDGA1021+045009039GF102991999999999999999999MA1999999093431
007772365023050194712252100D+35050-106617SAO  +1620ABQ  V0203401N002612200019N0960001N9+00851-00481103321ADDAA101000095GA1011+105009009GF102991999999999999999999MA1999999085101MW1001
0082719060999991947090101004+58083-068417SAO  +0034CYVP V0202931N005710036019N0096001N1+00461+00351098751ADDGA1061+003609059GA2081+036009039GF108991999999999999999999MA1999999098341MW1611
0340999999412241947091605005+14500+120917SAO  +0002RPMS V02024859005752200049N019200599+03065+02395100885ADDGA1999+009144084GA2999+082304004GA3999+999999999GA4999+999999999GD19025+9999999GD29015+9999999GD39005+9999999GD49005+9999999MA1999999100885EQDN01 00000JPWTH 1QNNE11 1 09903E11 1 09901E11 1 09900E11 1 09900G11U1 99999H11 1 11030H11 1 32270H11 1 00999H11 1 00999K11 1 00075L11 1 01200M11 1 29790N11 1 00000Q11 1 10088S11 1 00087W11 1 76011
0066810010999991947120405004+06500-058250SAO  +0029SYGT V0209991C000010300019N0160001N1+02351+02301101191ADDGA1061+030009049GF107991999999999999999999MA1999999100881MW1001
0072747880128101947121503004+27850-082500SAO  +0003KMCF V0200901N004610003019N0024001N9+01721+01611101421ADDGA1081+000309079GF108991999999999999999999MA1999999101391MW1041MW2451
0060723810231141947101205004+34967-117900SAO  +0693EDW  V0203201N002612200019N0320001N9+01441+00221100881ADDGA1001+999999999GF100991999999999999999999MA1999999093021
0329999999137251947041206005+39250-076533SAO  +001399999V02018059008850057949N012800599+01565+01395101325ADDGA1999+005794064GA2999+030484044GD19065+9999999GD29085+9999999GD39999+9999999GD49999+9999999GF108995999999999999999999MA1999999101255MW1615EQDN01 02000JPWTH 1QNNE11 1 09907E11 1 09910E11 1 09999E11 1 09999G11 1 00019H11 1 15019H11 1 21100K11 1 00057L11 1 00800M11 1 29900N11 1 02000Q11 1 10132S11 1 00060V11 1 01099W11 1 55017
0346999999148551947071212005+42083-087833SAO  +0197NBU  V02024859002652200049N003200599+02225+01675101525ADDGA1999+999999999GA2999+999999999GA3999+999999999GA4999+999999999GD19005+9999999GD29005+9999999GD39005+9999999GD49005+9999999MA1999999099325MW1045EQDN01 08000JPWTH 1QNNE11 1 09900E11 1 09900E11 1 09900E11 1 09900G11U1 99999H11 1 00999H11 1 00999H11 1 00999H11 1 00999K11 1 00062L11 1 00200M11 1 29330N11 1 08000Q11 1 10152S11 1 00072W11 1 76005
0340999999412241947011118005+14500+120917SAO  +0002RPMS V02004559005252200049N019200599+02565+02175101275ADDGA1999+006104084GA2999+030484034GA3999+999999999GA4999+999999999GD19015+9999999GD29035+9999999GD39005+9999999GD49005+9999999MA1999999101255EQDN01 00000JPWTH 1QNNE11 1 09901E11 1 09904E11 1 09900E11 1 09900G11U1 99999H11 1 11020H11 1 23100H11 1 00999H11 1 00999K11 1 00071L11 1 01200M11 1 29900N11 1 00000Q11 1 10127S11 1 00078W11 1 22010
0050722596139611947071110004+32817-097350SAO  +0215FTW  V0202251N005112200019N0240001N1+02181+01691101391ADDGF107991999999999999999999MA1999999098921MW1801
0346724040137211947111702003+38283-076417SAO  +0014NHK  V02033859004152200049N0160005N1+00785+00725101405ADDGA1021+999999064GA2999+999999999GA3999+999999999GA4999+999999999GD19025+9999999GD29005+9999999GD39005+9999999GD49005+9999999MA1999999101255MW1001EQDN01 00000JPWTH 1QNNE11 1 09902E11 1 09900E11 1 09900E11 1 09900G11U1 99999H11U1 15999H11 1 00999H11 1 00999H11 1 00999K11 1 00045L11 1 01000M11 1 29900N11 1 00000Q11 1 10140S11 1 00046W11 1 18008
0066788610999991947011713004+17117-061783SAO  +0010TAPA V0200681N008712200019N0240001N1+02631+02181101831ADDGA1021+007509089GF102991999999999999999999MA1999999101691MW1001
0340999999412291947063003005+99999+999999SAO  +999999999V02031559002652200049N016000599+03065+02395100905ADDGA1999+999999084GA2999+999999034GA3999+999999999GA4999+999999999GD19035+9999999GD29015+9999999GD39005+9999999GD49005+9999999MA1999999100955EQDN01 00000JPWTH 1QNNE11 1 09904E11 1 09901E11 1 09900E11 1 09900G11U1 99999H11 1 11999H11 1 23999H11 1 00999H11 1 00999K11 1 00075L11 1 01000M11 1 29810N11 1 00000Q11 1 10090S11 1 00087W11 1 88005
0082724296138411947103017004+39433-083800SAO  +0327ILN  V0203151N006210030019N0080001N1+01131+00851101521ADDGA1031+001509089GA2081+003009059GF108991999999999999999999MA1999999097701MW1051
0050476430999991947110802004+35833+139417SAO  +0090RJTJ V0209991C000012200019N0064001N1+01691+00581102211ADDGF100991999999999999999999MA1999999101151MW1051
0000970720999991947090400004-00683+119733FM-12+000699999V02099999999999999999N9999999N9+99999+99999999999
0123999999930321947110319005+39700-104750SAO  +169799999V02099999000050009149N002400599+00174-00065999999ADDMA1999999081884MW1735EQDN01 04100JPWTH 1QNNG11 1 00003K11 1 00031L11 1 00150M11 1 24180N11 1 04100S11 1 00035W11 1 00000
0050749109999991947110207004+40300-074050SAO  +001680NJ V0200451N003612200019N0128001N1+00801+00461102641ADDGF100991999999999999999999MA1999999102131MW1001
0329999999148301947042012005+42900-085667SAO  +021399999V02006859007750091449N012800599-00115-00335101765ADDGA1999+009144064GA2999+024384044GD19065+9999999GD29085+9999999GD39999+9999999GD49999+9999999GF108995999999999999999999MA1999999099195MW1805EQDN01 02300JPWTH 1QNNE11 1 09908E11 1 09910E11 1 09999E11 1 09999G11 1 00030H11 1 15030H11 1 21080K11 1 00026L11 1 00800M11 1 29290N11 1 02300Q11 1 10176S11 1 00030V11 1 01099W11 1 32015
0377999999147521947020403005+41733-072650SAO  +0006HFD  V02020359006252200059N019200599-00065-00335101805ADDGA1999+036584034GA2999+999999999GA3999+999999999GA4999+999999999GD19065+9999999GD29005+9999999GD39005+9999999GD49005+9999999GF106995999999999999999999MA1999999101795EQDN01 00000JPWTH 1QNNE11 1 09907E11 1 09900E11 1 09900E11 1 09900G11U1 99999H11 1 23120H11 1 00999H11 1 00999H11 1 00999K11 1 00026L11 1 01200M11 1 30060N11 1 00000Q11 1 10180S11 1 00031V11 1 00799W11 1 56012
0066702610264111947082210004+64817-147867SAO  +0138FAI  V0209991C000010210019N0240001N1+00801+00631102031ADDGA1081+018009039GF108991999999999999999999MA1999999100301MW1001
0117427040999991947042612004+23683+086983FM-12+012699999V0203201N00101220001CN0100001N9+04001+00331099931ADDAY111999GA1999+000159999GA2999+000159999GF100991001001999999001001KA1999M+04171EQDQ01    003SCCGA1Q02    003SCCGA2
0025717070999991947121613004+46167-060050SAO  +0062CYQY V0202251N002612200019N0240001N1-00811-01031101891ADDGA1031+999999009MW1001
0117415920999991947102303004+32300+072367FM-12+018799999V0200901N00101220001CN0200001N9+01891+01281101431ADDAY101999GA1999+000159999GA2999+000159999GF100991001001999999001001KA1999N+00941EQDQ01    003SCCGA1Q02    003SCCGA2
0066722670230421947101109004+33650-101833SAO  +0988LBB  V0201801N007212200019N0240001N1+02021+01301100581ADDGA1021+084009009GF102991999999999999999999MA1999999089811MW1001
018272353013967194712090100C+35400-097600SAO  +0390OKC  V02006859004652200059N0240005N1+00285-00225102005ADDAA101000095GF100995999999999999999999MA1999999097195MW1001EQDN01 00000JPWTH 1QNNG11U1 99999K11 1 00028L11 1 01500M11 1 28700N11 1 00000Q11 1 10200S11 1 00037V11 1 00099W11 1 32009
0165999999266161947070511005+66867-162633SAO  +0006OTZ  V02013559003150137249N048000599+01005+00895101155ADDGF108995999999999999999999MA1999999101085EQDN01 00000JPWTH 1QNNG11 1 00045K11 1 00048L11 1 03000M11 1 29850N11 1 00000Q11 1 10115S11 1 00050V11 1 01099W11 1 44006
0066723060137221947082400004+35867-078783SAO  +0134RDU  V0200451N002112200019N0240001N1+02571+02181101631ADDGA1041+013509059GF102991999999999999999999MA1999999100031MW1001
0082747880128101947110200004+27850-082500SAO  +0003KMCF V0202001N002610600019N0144001N9+02501+02441100611ADDGA1041+003009099GA2021+060009009GF107991999999999999999999MA1999999100581MW1001
0377999999148491947072115005+41567-083467SAO  +019499999V02036059006252200059N024000599+01835+01065101395ADDGA1999+009144084GA2999+042674034GA3999+999999999GA4999+999999999GD19005+9999999GD29005+9999999GD39005+9999999GD49005+9999999GF100995999999999999999999MA1999999099095EQDN01 00000JPWTH 1QNNE11 1 09900E11 1 09900E11 1 09900E11 1 09900G11U1 99999H11 1 11030H11 1 23140H11 1 00999H11 1 00999K11 1 00051L11 1 01500M11 1 29260N11 1 00000Q11 1 10139S11 1 00065V11 1 00099W11 1 11012
0066999999947351947020713005+43067-070817SAO  +002999999V02099999000050061049N012800599+99999+99999999999EQDN01 00000JPWTH 1QNNG11 1 00020L11 1 00800N11 1 00000W11 1 00000
0039717070999991947063020004+46167-060050SAO  +0062CYQY V0202251N006712200019N0240001N1+03021+02131101221ADDGA1081+999999009MD1510001+9999MW1001
0066476430999991947101812004+35833+139417SAO  +0090RJTJ V0203151N002110180019N0096001N1+01411+01021102571ADDGA1081+018009059GF108991999999999999999999MA1999999101521MW1051
0383702960264101947051618003+60500-145500SAO  +0013CDV  V02029359001552200059N0480005N1+00615+00175101055ADDGA1021+009144084GA2021+054864024GA3999+999999999GA4999+999999999GD19025+9999999GD29025+9999999GD39005+9999999GD49005+9999999GF103065999999999999999999MA1999999100855MW1001EQDN01 00000JPWTH 1QNNE11 1 09903E11 1 09903E11 1 09900E11 1 09900G11U1 99999H11 1 11030H11 1 37180H11 1 00999H11 1 00999K11 1 00035L11 1 03000M11 1 29780N11 1 00000Q11 1 10105S11 1 00043V11 1 00408W11 1 78003
0066789480999991947032507004+13750-060950SAO  +0003TLPL V0201131N008212200019N0240001N1+02461+02071101661ADDGA1041+006009089GF102991999999999999999999MA1999999101561MW1001
0346999999432041947060712005+31233+121450SAO  +002799999V02018059002152200049N004800599+02225+01785101025ADDGA1999+999999999GA2999+999999999GA3999+999999999GA4999+999999999GD19005+9999999GD29005+9999999GD39005+9999999GD49005+9999999MA1999999101025MW1055EQDN01 08100JPWTH 1QNNE11 1 09900E11 1 09900E11 1 09900E11 1 09900G11U1 99999H11 1 00999H11 1 00999H11 1 00999H11 1 00999K11 1 00064L11 1 00300M11 1 29830N11 1 08100Q11 1 10102S11 1 00072W11 1 55004
0050723555999991947100311004+34300-097017SAO  +0235ADM  V0200451N001512200019N0240001N1+01351+01191101901ADDGF100991999999999999999999MA1999999098811MW1001
0340999999931131947040806005+33750-118250SAO  +001399999V02004559002652200049N024000599+01504+00725101754ADDGA1999+999999999GA2999+999999999GA3999+999999999GA4999+999999999GD19005+9999999GD29005+9999999GD39005+9999999GD49005+9999999MA1999999101594EQDN01 00000JPWTH 1QNNE11 1 09900E11 1 09900E11 1 09900E11 1 09900G11U1 99999H11 1 00999H11 1 00999H11 1 00999H11 1 00999K11 1 00045L11 1 01500M11 1 30000N11 1 00000Q11 1 10175S11 1 00059W11 1 22005
0239999999137541947041002005+34900-076883SAO  +001499999V02006859009350106749N009600599+01505+01115102285ADDGA1999+010674074GD19085+9999999GD29999+9999999GD39999+9999999MA1999999102105MW1055EQDN01 08100JPWTH 1QNNE11 1 09910E11 1 09999E11 1 09999G11 1 00035H11 1 16035K11 1 00052L11 1 00600M11 1 30150N11 1 08100Q11 1 10228S11 1 00059W11 1 32018
0066718150999991947021704004+48550-058550SAO  +0013CYJT V0200681N010810120019N0160001N1+00131-00151100971ADDGA1081+012009059GF108991999999999999999999MA1999999100811MW1001
0340999999149471947011116005+44883-093217SAO  +0255MSP  V02031559009352200049N024000599-00615-01005101195ADDGA1999+999999024GA2999+999999999GA3999+999999999GA4999+999999999GD19065+9999999GD29005+9999999GD39005+9999999GD49005+9999999MA1999999097975EQDN01 00000JPWTH 1QNNE11 1 09908E11 1 09900E11 1 09900E11 1 09900G11U1 99999H11 1 37999H11 1 00999H11 1 00999H11 1 00999K11 1 00014L11 1 01500M11 1 28930N11 1 00000Q11 1 10119S11 1 00021W11 1 88018
004594767599999194707172300N-33930+151170AUST +0004YSSY V0202705N005759999999N999999999+01015+99999999999ADDGA1005+999999999GF100995004999999999999999
0059949680999991947041802003-41550+147217FM-12+0174YMLT V0209999C000019999999N0450001N9+01501+00611999999ADDAY101999GA1015+012005999GF101991011999012501999999MW1001
0050722580139601947061322004+32850-096850SAO  +0149DAL  V0203601N006212200019N0240001N1+02631+01071101351ADDGF102991999999999999999999MA1999999099631MW1001
0171999999931061947102413005+33800-118117SAO  +001799999V02004559001552200059N001300599+01004+00785101544ADDGF100995999999999999999999MA1999999101324MW1445EQDN01 07200JPWTH 1QNNG11U1 99999K11 1 00046L11 1 00081M11 1 29920N11 1 07200Q11 1 10154S11 1 00050V11 1 00099W11 1 22003
0050725115147111947112907004+40200-076767SAO  +0097MDT  V0202031N002112200019N0112001N1-00151-00481102471ADDGF100991999999999999999999MA1999999101291MW1001
0292999999414061947101119005+13483+144800SAO  +0085PGUM V02020359004650048849N009600599+02445+02395100535ADDGA1999+999999084GA2999+033534044GD19055+9999999GD29085+9999999GD39999+9999999GD49999+9999999MA1999999099635MW1805EQDN01 02300JPWTH 1QNNE11 1 09906E11 1 09910E11 1 09999E11 1 09999G11 1 00016H11 1 11999H11 1 21110K11 1 00075L11 1 00600M11 1 29420N11 1 02300Q11 1 10053S11 1 00076W11 1 56009
0165999999139831947071314005+38967-092367SAO  +023899999V02031559003652200059N016000599+02615+01945101565ADDGF108995999999999999999999MA1999999098785EQDN01 00000JPWTH 1QNNG11U1 99999K11 1 00067L11 1 01000M11 1 29170N11 1 00000Q11 1 10156S11 1 00079V11 1 01099W11 1 88007
0082789480999991947061720004+13750-060950SAO  +0003TLPL V0201131N008210120019N0160001N1+02681+02461101491ADDGA1061+006909089GA2081+012009059GF108991999999999999999999MA1999999101391MW1001
0165999999149331947090419005+41533-093650SAO  +0286DSM  V02024859005252200059N024000599+03445+01785100615ADDGF100995999999999999999999MA1999999097265EQDN01 00000JPWTH 1QNNG11U1 99999K11 1 00064L11 1 01500M11 1 28720N11 1 00000Q11 1 10061S11 1 00094V11 1 00099W11 1 76010
0050702910264121947100605004+62950-141933SAO  +0525ORT  V0201131N001512200019N0640001N1+00081+00021101521ADDGF102991999999999999999999MA1999999095091MW1001
0050722596139611947022823004+32817-097350SAO  +0215FTW  V0203381N007212200019N0240001N1+02071+00081100311ADDGF100991999999999999999999MA1999999097801MW1001
0346999999137521947010513005+38983-076483SAO  +001299999V02024859001050152449N009600599+00115-00175102355ADDGA1999+015244064GA2999+999999999GA3999+999999999GA4999+999999999GD19065+9999999GD29005+9999999GD39005+9999999GD49005+9999999MA1999999102205MW1045EQDN01 08000JPWTH 1QNNE11 1 09908E11 1 09900E11 1 09900E11 1 09900G11 1 00050H11 1 15050H11 1 00999H11 1 00999H11 1 00999K11 1 00029L11 1 00600M11 1 30180N11 1 08000Q11 1 10235S11 1 00034W11 1 76002
0035912750216031947072605004+16733-169533SAO  +0002PJON V0200701N011812200019N0192001N9+02911+02181101561ADDGA1031+006009089GA2031+054009009
0082108640999991947070314004+48067+011633SAO  +0560EDSN V0200681N003110120019N0160001N1+02301+01631101731ADDGA1051+012009089GA2081+054009029GF108991999999999999999999MA1999999095391MW1001
0340999999137541947070411005+34900-076883SAO  +001499999V02031559001552200049N011200599+01835+01565101795ADDGA1999+007624064GA2999+999999999GA3999+999999999GA4999+999999999GD19025+9999999GD29005+9999999GD39005+9999999GD49005+9999999MA1999999101635EQDN01 00000JPWTH 1QNNE11 1 09902E11 1 09900E11 1 09900E11 1 09900G11U1 99999H11 1 15025H11 1 00999H11 1 00999H11 1 00999K11 1 00060L11 1 00700M11 1 30010N11 1 00000Q11 1 10179S11 1 00065W11 1 88003
0066722695999991947120515004+32283-106917SAO  +1358LRU  V0202701N001510180019N0560001N1+00351+00241102441ADDGA1081+018009049GF108991999999999999999999MA1999999087401MW1001
0134999999137551947020820005+37933-075433SAO  +001599999V02031559007750030549N001300599-00505-00895100205ADDMA1999999100035MW1715EQDN01 04000JPWTH 1QNNG11 1 00010K11 1 00016L11 1 00081M11 1 29540N11 1 04000Q11 1 10020S11 1 00023W11 1 88015
0050723060137221947122317004+35867-078783SAO  +0134RDU  V0202251N005712200019N0112001N1+01021+00191101321ADDGF107991999999999999999999MA1999999099701MW1001
0377999999931061947032923005+33800-118117SAO  +001799999V02020359007752200059N040000599+01784+01285101874ADDGA1999+006104084GA2999+999999999GA3999+999999999GA4999+999999999GD19025+9999999GD29005+9999999GD39005+9999999GD49005+9999999GF102995999999999999999999MA1999999101664EQDN01 00000JPWTH 1QNNE11 1 09902E11 1 09900E11 1 09900E11 1 09900G11U1 99999H11 1 11020H11 1 00999H11 1 00999H11 1 00999K11 1 00055L11 1 02500M11 1 30020N11 1 00000Q11 1 10187S11 1 00064V11 1 00299W11 1 56015
0282725101147121947082006003+40383-075967SAO  +0096RDG  V02099999000050365849N0048005N1+02395+02225101905ADDGA1081+036584044GD19085+9999999GD29999+9999999GD39999+9999999GF108995999999999999999999MA1999999100755MW1045MW2051EQDN01 08200JPWTH 1QNNE11 1 09910E11 1 09999E11 1 09999G11 1 00120H11 1 21120K11 1 00072L11 1 00300M11 1 29750N11 1 08200Q11 1 10190S11 1 00075V11 1 01099W11 1 00000
0066788078999991947010719004+08383-080133SAO  +0031MPRH V0203151N003112200019N0320001N1+03241+02571100811ADDGA1031+007509089GF102991999999999999999999MA1999999100541MW1001
0134999999947021947081421005+41167-073133SAO  +000499999V02018059005252200049N008000599+02944+02395101564ADDMA1999999101494MW1045EQDN01 08200JPWTH 1QNNG11U1 99999K11 1 00075L11 1 00500M11 1 29970N11 1 08200Q11 1 10156S11 1 00085W11 1 55010
0346999999232441947100211005+37417-122050SAO  +000899999V02029359001550039649N009600599+01395+01225101795ADDGA1999+003964064GA2999+999999999GA3999+999999999GA4999+999999999GD19065+9999999GD29005+9999999GD39005+9999999GD49005+9999999MA1999999101695MW1055EQDN01 08100JPWTH 1QNNE11 1 09908E11 1 09900E11 1 09900E11 1 09900G11 1 00013H11 1 15013H11 1 00999H11 1 00999H11 1 00999K11 1 00054L11 1 00600M11 1 30030N11 1 08100Q11 1 10179S11 1 00057W11 1 78003
0082749036999991947051311004+09517-084333SAO  +0006MRPR V0200231N001012200019N0192001N1+02181+02131101161ADDGA1011+009009089GA2051+105009009GF107991999999999999999999MA1999999101081MW1001
0050724060937211947070616004+39250-076667SAO  +0047BWI  V0201801N005712200019N0128001N1+02961+02021101691ADDGF107991999999999999999999MA1999999101631MW1001
0082722696999991947011500004+32850-106100SAO  +1251HMN  V0202031N006210330019N0224001N1+01301+00191100541ADDGA1021+012009079GA2051+033009039GF107991999999999999999999MA1999999086961MW1001
0082725526999991947121903004+40733-099000SAO  +0649EAR  V0203601N003612200019N0160001N1+00021-00151102201ADDGA1021+036009039GA2021+060009009GF102991999999999999999999MA1999999094411MW1001
0117420830999991947081403004+31100+077167FM-12+220299999V0209991C00001012301CN0040001N9+01611+01501099521ADDAY121999GA1999+000159999GA2999+000159999GF108991081001012501021001KA1999N+01501EQDQ01    003SCCGA1Q02    003SCCGA2
0066703260255031947041422004+58683-156650SAO  +0015AKN  V0200901N003110078019N0096001N9+00351+00241102811ADDGA1081+007809049GF108991999999999999999999MA1999999102541MW1611
0067702650999991947062902004+64650-147067SAO  +0164PAEI V0202301N003110150019N0482801N9+01171+00831999999ADDGA1061+015009059GA2081+030009049GF108991999999999999999999MW1001
0072476600999991947091316004+35700+139400SAO  +0098RJTC V0209991C000010009019N0016001N1+02181+02131100981ADDGA1081+000909079GF108991999999999999999999MA1999999099901MW1451MW2611
0066724070937301947092811004+39450-074583SAO  +0024ACY  V0200201N004612200019N0160001N9+00461+00191103581ADDGA1001+999999999GF100991999999999999999999MA1999999103321MW1001
0165999999266161947082207005+66867-162633SAO  +0006OTZ  V02029359007250152449N048000599+01005+00785102205ADDGF108995999999999999999999MA1999999102135EQDN01 00000JPWTH 1QNNG11 1 00050K11 1 00046L11 1 03000M11 1 30160N11 1 00000Q11 1 10220S11 1 00050V11 1 01099W11 1 78014
0025710435999991947031616004+66267-128617SAO  +0066CYGH V0200901N003610180019N0096001N1-01261-01481102891ADDGA1081+999999059MW1001
0082747910137171947050801004+33683-078933SAO  +0008MYR  V0202701N001512200019N0160001N9+02411+01631100711ADDGA1021+036009039GA2021+090009009GF102991999999999999999999MA1999999100641MW1001
0088225500999991947091112004+64583+040500FM-12+001399999V0201401N00931004501CN9999999N9+01281+99999099661ADDAY121999GF108991999051004501021999EQDQ01+000082SCOTLCQ02+000032APCTENQ03+000002APC3  
0066911700225081947052104004+21483-158033SAO  +0257PHHI V0203601N004612200019N0320001N9+02131+01461101831ADDGA1031+007509059GF102991999999999999999999MA1999999098811MW1001
0051031350999991947090916004+55500-004583SAO  +0020EGPK V0202481N006719999999N0160001N1+01571+01301099961ADDGA1021+002409079GF107991999999999999999999MW1001
0082747320999991947031502004+32850-106083SAO  +1240HMN  V0201101N004112200019N0480001N9+01301-01531100781ADDGA1021+024009039GA2011+060009009GF102991999999999999999999MA1999999087001MW1001
0050722266138501947012301004+32350-086983SAO  +0054SEM  V0201801N002112200019N0160001N1+00411+00131103051ADDGF100991999999999999999999MA1999999102441MW1001
0050161580999991947011714004+43683+010383SAO  +0001LIRP V0209991C000012200019N0096001N1+01241+00961102641ADDGF100991999999999999999999MA1999999102611MW1051
0072725300948461947122514004+41983-087900SAO  +0186ORD  V0202301N006710120019N0012001N9-00481-00761101831ADDGA1081+012609049GF108991999999999999999999MA1999999099361MW1451MW2711
0066749163999991947042015004+31933-108983SAO  +125599999V0201801N003612200019N0960001N1+01801+00021101461ADDGA1999+060009999GF100991999999999999999999MA1999999087711MW1001
0320999999137521947011221005+38983-076483SAO  +001299999V02004559006252200049N006400599+01005+00505101935ADDGA1999+999999999GA2999+999999999GA3999+999999999GA4999+999999999GD19005+9999999GD29005+9999999GD39005+9999999GD49005+9999999MW1055EQDN01 08100JPWTH 1QNNE11 1 09900E11 1 09900E11 1 09900E11 1 09900G11U1 99999H11 1 00999H11 1 00999H11 1 00999H11 1 00999K11 1 00041L11 1 00400N11 1 08100Q11 1 10193S11 1 00050W11 1 22012
006172360123007194710240200D+34433-100300SAO  +0595CDS  V0203601N003112200019N0240001N1+01571+00691101521ADDAA101000095GF102991999999999999999999MA1999999094651MW1001
0115421390999991947072403004+29017+077717FM-12+022399999V0209991C00001220001CN0100001N9+99999+99999999999ADDAA124021091AY161999GA1999+000159999GA2999+000159999GF106991001001999999021999EQDQ01    003SCCGA1Q02    003SCCGA2
0098788071999991947082018004+08967-079550SAO  +0012MBLB V0202931N000510060019N0192001N1+03131+02521100781ADDGA1051+006009099GA2011+036009039GA3021+090009029GF108991999999999999999999MA1999999100711MW1001
0050702710264251947051307004+62150-145450SAO  +0481GKN  V0202251N001510180019N0480001N1+00581-00091100751ADDGF108991999999999999999999MA1999999094951MW1001
0050725810241931947121503004+40733-114033SAO  +1292ENV  V0209991C000012200019N0240001N1+00021-00151101931ADDGF100991999999999999999999MA1999999087131MW1001
0066725038147141947080619004+41500-074100SAO  +0150SWF  V0201351N003112200019N0064001N1+03181+02181101561ADDGA1021+012009089GF102991999999999999999999MA1999999099901MW1051
0066104390999991947101005004+51117+009283SAO  +0181EDPF V0209991C000010075019N0048001N1+00741+00581102121ADDGA1081+007509059GF108991999999999999999999MA1999999100031MW1051
0066747320999991947012618004+32850-106083SAO  +1240HMN  V0200901N002612200019N1120001N9+00801-00311101801ADDGA1021+060009009GF102991999999999999999999MA1999999087881MW1001
0050722696999991947012400004+32850-106100SAO  +1251HMN  V0202701N004612200019N1120001N1+01191+00191101491ADDGF100991999999999999999999MA1999999087641MW1001
0082702610264111947122413004+64817-147867SAO  +0138FAI  V0209991C000012200019N0240001N1-01761-01981100201ADDGA1081+018009049GA2081+045009039GF108991999999999999999999MA1999999098411MW1001
0066724338138021947010715004+38550-089983SAO  +0134BLV  V0202501N005110105019N0032191N9+00171-00061101691ADDGA1081+010509059GF108991999999999999999999MA1999999100031MW1041
0082749034999991947022318004+07733-080133SAO  +0014MPCI V0200681N003112200019N0240001N1+02801+02241101291ADDGA1021+007509089GA2021+060009009GF102991999999999999999999MA1999999101121MW1001
0066476710999991947091609004+35550+139783SAO  +0008RJTT V0200451N006712200019N0240001N1+02521+02071099831ADDGA1011+012009059GF102991999999999999999999MA1999999099801MW1001
0050722435999991947121703004+29650-095283SAO  +0019HOU  V0201351N002112200019N0192001N1+00631+00461102271ADDGF100991999999999999999999MA1999999102001MW1001
0082110300999991947063021004+48317+016117SAO  +0176LOXT V0202701N002612200019N0160001N1+02181+01631101421ADDGA1011+030009039GA2021+066009029GF102991999999999999999999MA1999999099461MW1001
0372701740265331947081512003+66917-151517SAO  +0196BTT  V02099999000052200059N0800005N1+00445+00395999999ADDGA1021+018294064GA2031+003054034GA3999+999999999GA4999+999999999GD19025+9999999GD29035+9999999GD39005+9999999GD49005+9999999GF106995999999999999999999MA1999999098215MW1001EQDN01 00000JPWTH 1QNNE11 1 09903E11 1 09904E11 1 09900E11 1 09900G11U1 99999H11 1 15060H11 1 23010H11 1 00999H11 1 00999K11 1 00039L11 1 05000M11 1 29000N11 1 00000S11 1 00040V11 1 00799W11 1 00000
0171726580149221947010919003+44883-093217SAO  +0254MSP  V02022559001552200059N0240005N9-00335-00785102445ADDGF108995999999999999999999MA1999999099225MW1001EQDN01 00000JPWTH 1QNNG11U1 99999K11 1 00018L11 1 01500M11 1 29300N11 1 00000Q11 1 10244S11 1 00026V11 1 01099W11 1 66003
0066722536129111947031015004+29533-098283SAO  +0226RND  V0200701N004610060019N0160001N9+01071+00521102401ADDGA1081+006009059GF108991999999999999999999MA1999999099631MW1001
0340999999938291947120115005+30350-087267SAO  +0021CVD  V02004559004652200049N012800599+00724+00445102864ADDGA1999+999999999GA2999+999999999GA3999+999999999GA4999+999999999GD19005+9999999GD29005+9999999GD39005+9999999GD49005+9999999MA1999999102644EQDN01 00000JPWTH 1QNNE11 1 09900E11 1 09900E11 1 09900E11 1 09900G11U1 99999H11 1 00999H11 1 00999H11 1 00999H11 1 00999K11 1 00040L11 1 00800M11 1 30310N11 1 00000Q11 1 10286S11 1 00045W11 1 22009
0177722525129201947111716003+27533-099467SAO  +0152LRD  V02006859005250024449N0048005N1+01785+01725101025ADDGF108995999999999999999999MA1999999099225MW1455MW2805EQDN01 02370JPWTH 1QNNG11 1 00008K11 1 00063L11 1 00300M11 1 29300N11 1 02370Q11 1 10102S11 1 00064V11 1 01099W11 1 32010
0025717050999991947112913004+46117-064683SAO  +0071CYQM V0202701N005110090019N0160001N1+00131+00081101301ADDGA1081+999999059MW1001
0066042610999991947041600004+61217-048117SAO  +0029BGGD V0209991C000010240019N0480001N1-00261-01091099901ADDGA1061+024009039GF107991999999999999999999MA1999999099561MW1001
0171725090147391947101017003+42367-071033SAO  +0013BOS  V02013559005252200059N0240005N9+01615+00725102595ADDGF103995999999999999999999MA1999999102475MW1001EQDN01 00000JPWTH 1QNNG11U1 99999K11 1 00045L11 1 01500M11 1 30260N11 1 00000Q11 1 10259S11 1 00061V11 1 00499W11 1 44010
0050722610220041947110511004+29367-100917SAO  +0313DRT  V0200451N001012200019N0240001N1+01301+00631101251ADDGF100991999999999999999999MA1999999097971MW1001
0050723601230071947071810004+34433-100300SAO  +0595CDS  V0203601N005112200019N0240001N1+02301+01911101521ADDGF108991999999999999999999MA1999999094891MW1001
0171999999148301947010301005+42900-085667SAO  +021399999V02004559012450030549N004800599-00395-00615102205ADDGF108995999999999999999999MA1999999099595MW1715EQDN01 04000JPWTH 1QNNG11 1 00010K11 1 00021L11 1 00300M11 1 29410N11 1 04000Q11 1 10220S11 1 00025V11 1 01099W11 1 22024
0066727130146041947040722004+46683-068050SAO  +0146PQI  V0203151N003610210019N0400001N1+00521+00191100611ADDGA1081+021009039GF108991999999999999999999MA1999999098811MW1001
0066744910147031947062310004+42200-072533SAO  +0075CEF  V0200701N002612200019N0024001N9+01131+01071102271ADDGA1021+066009009GF102991999999999999999999MA1999999101391MW1111
0117433030999991947041612004+12917+079150FM-12+021499999V0202001N00461220001CN0500001N9+03611+02171100301ADDAY111999GA1999+000159999GA2999+000159999GF101991011011999999001001KA1999M+03781EQDQ01    003SCCGA1Q02    003SCCGA2
0060911820225211947021117004+21333-157950SAO  +0008PHNL V0209991C000012200019N0192001N9+01801+01301101491ADDGA1021+010509089GF102991999999999999999999MA1999999101391
0050723060137221947112220004+35867-078783SAO  +0134RDU  V0203601N003110012019N0096001N1+00691+00691102511ADDGF108991999999999999999999MA1999999100811MW1511
0383999999148341947091909005+41500-088167SAO  +0181JOT  V02013559001552200059N003200599+01835+01785102375ADDGA1999+999999999GA2999+999999999GA3999+999999999GA4999+999999999GD19005+9999999GD29005+9999999GD39005+9999999GD49005+9999999GF100995999999999999999999MA1999999100245MW1445EQDN01 07200JPWTH 1QNNE11 1 09900E11 1 09900E11 1 09900E11 1 09900G11U1 99999H11 1 00999H11 1 00999H11 1 00999H11 1 00999K11 1 00064L11 1 00200M11 1 29600N11 1 07200Q11 1 10237S11 1 00065V11 1 00099W11 1 44003
0066745980137021947062708004+37083-076350SAO  +0002LFI  V0202501N001510036019N0096001N9+02001+01941101321ADDGA1081+003609079GF108991999999999999999999MA1999999101291MW1451
0346722906931121947121110003+32717-117217SAO  +0015NZY  V02036059001052200049N0240005N9+00725+00615102405ADDGA1999+999999999GA2999+999999999GA3999+999999999GA4999+999999999GD19005+9999999GD29005+9999999GD39005+9999999GD49005+9999999MA1999999102245MW1001EQDN01 00000JPWTH 1QNNE11 1 09900E11 1 09900E11 1 09900E11 1 09900G11U1 99999H11 1 00999H11 1 00999H11 1 00999H11 1 00999K11 1 00043L11 1 01500M11 1 30190N11 1 00000Q11 1 10240S11 1 00045W11 1 11002
0377999999147881947070115005+41583-071417SAO  +000999999V02018059004650030549N012800599+02335+02005101125ADDGA1999+003054074GA2999+999999999GA3999+999999999GA4999+999999999GD19055+9999999GD29005+9999999GD39005+9999999GD49005+9999999GF105995999999999999999999MA1999999101025EQDN01 00000JPWTH 1QNNE11 1 09906E11 1 09900E11 1 09900E11 1 09900G11 1 00010H11 1 16010H11 1 00999H11 1 00999H11 1 00999K11 1 00068L11 1 00800M11 1 29830N11 1 00000Q11 1 10112S11 1 00074V11 1 00699W11 1 55009
0066749026999991947042400004+08233-078900SAO  +0024MPYI V0203601N001510450019N0160001N1+02801+02411100911ADDGA1061+045009039GF107991999999999999999999MA1999999100641MW1001
0066747900138491947041006004+33967-080483SAO  +0072SSC  V0200501N004612200019N0128001N9+01891+01001102101ADDGA1031+015009059GF102991999999999999999999MA1999999101191MW1001
0082702735264091947060806004+61217-149833SAO  +0041MRI  V0203151N001512200019N0800001N1+01241+00631100611ADDGA1999+018009999GA2071+075009009GF107991999999999999999999MA1999999100101MW1001
0340999999931041947090217005+35683-117683SAO  +068199999V02099999000052200049N048000599+03444+00835101354ADDGA1999+021344084GA2999+999999999GA3999+999999999GA4999+999999999GD19005+9999999GD29005+9999999GD39005+9999999GD49005+9999999MA1999999093744EQDN01 00000JPWTH 1QNNE11 1 09900E11 1 09900E11 1 09900E11 1 09900G11U1 99999H11 1 11070H11 1 00999H11 1 00999H11 1 00999K11 1 00047L11 1 03000M11 1 27680N11 1 00000Q11 1 10135S11 1 00094W11 1 00000
0245999999457091947030914005+52833+173183SAO  +002899999V02009059013950051849N009600599-00065-00065101185ADDGA1999+999999064GD19085+9999999GD29999+9999999GD39999+9999999MA1999999101055MW1455MW2855EQDN01 05070JPWTH 1QNNE11 1 09910E11 1 09999E11 1 09999G11 1 00017H11 1 15999K11 1 00031L11 1 00600M11 1 29840N11 1 05070Q11 1 10118S11 1 00031W11 1 33027
0346999999148561947080416005+42100-083167SAO  +018099999V02020359002652200049N008000599+02945+02395101665ADDGA1999+999999999GA2999+999999999GA3999+999999999GA4999+999999999GD19005+9999999GD29005+9999999GD39005+9999999GD49005+9999999MA1999999099595MW1045EQDN01 08200JPWTH 1QNNE11 1 09900E11 1 09900E11 1 09900E11 1 09900G11U1 99999H11 1 00999H11 1 00999H11 1 00999H11 1 00999K11 1 00075L11 1 00500M11 1 29410N11 1 08200Q11 1 10166S11 1 00085W11 1 56005
0050702610264111947051210004+64817-147867SAO  +0138FAI  V0203381N001510075019N0160001N1+00521+00411100441ADDGF107991999999999999999999MA1999999098751MW1611
0066703610253391947080208004+59517-139667SAO  +0009CYAK V0201131N002110072019N0160001N1+01021+01021101491ADDGA1081+007209059GF108991999999999999999999MA1999999101391MW1001
0050701160266181947090120004+65617-168050SAO  +0005WAA  V0203381N011310060019N0320001N1+00411+00021100641ADDGF108991999999999999999999MA1999999100581MW1001
0066722596139611947073006004+32817-097350SAO  +0215FTW  V0202031N003612200019N0192001N1+02961+01741101491ADDGA1011+090009009GF102991999999999999999999MA1999999099051MW1001
0066747686138201947032613004+30400-088917SAO  +0009BIX  V0202701N001512200019N0240001N9+00911+00461102471ADDGA1001+999999999GF100991999999999999999999MA1999999102371MW1001
007172363023047194710011300D+35233-101700SAO  +1099AMA  V0201801N007212200019N0240001N1+01351+00521101891ADDAA101000095GA1001+999999999GF107991999999999999999999MA1999999089671
0066722405139761947082709004+30200-091983SAO  +0013LFT  V0202031N001512200019N0160001N1+02351+02301101801ADDGA1011+075009029GF102991999999999999999999MA1999999101631MW1001
0060744900147021947080301004+42467-071283SAO  +0045BED  V0201601N001512200019N0096001N9+01691+00911101931ADDGA1011+036009039GF102991999999999999999999MA1999999101391
0066747686138201947102006004+30400-088917SAO  +0009BIX  V0201401N002110045019N0112001N9+02021+99999101491ADDGA1081+004509059GF108991999999999999999999MA1999999101391MW1001
0050723656230491947070120004+35617-106083SAO  +1923SAF  V0201581N010812200019N0640001N1+02741+01191101931ADDGF102991999999999999999999MA1999999081611MW1001
0066042310999991947061805004+67000-050800SAO  +0050BGSF V0200451N002112200019N0320001N1+00411-00151101151ADDGA1011+015009059GF102991999999999999999999MA1999999100441MW1001
006494312099999194702190400N-20380+118620AUST +0011YPPD V0203605N004659999999N999999999+03385+02005999999ADDGA1999+009005999GF106995004999009005999999EQDP01    003SCCGA1
0066983270999991947042408004+15183+120550SAO  +0145RPMK V0201801N002112200019N0321871N9+03051+02281100511ADDGA1021+012009089GF102991999999999999999999MA1999999098781MW1001
0233999999242551947090312005+99999+999999SAO  +999999999V02013559005250061049N016000599+01565+01065102105ADDGA1999+006104064GD19085+9999999GD29999+9999999GD39999+9999999MA1999999102005EQDN01 00000JPWTH 1QNNE11 1 09910E11 1 09999E11 1 09999G11 1 00020H11 1 15020K11 1 00051L11 1 01000M11 1 30120N11 1 00000Q11 1 10210S11 1 00060W11 1 44010
0066722596139611947090700004+32817-097350SAO  +0215FTW  V0201351N005112200019N0240001N1+03571+01571101121ADDGA1999+090009999GF100991999999999999999999MA1999999098681MW1001
0083749031999991947082311004+08250-079133SAO  +008299999V0209991C000012200019N0240001N1+02461+02411999999ADDGA1011+007509059GA2021+030009039GA3021+060009029GF102991999999999999999999MW1001
0056910660227011947021402004+28200-177383SAO  +0007PMDY V0202251N012312200019N0160001N1+02131+01691100321ADDGA1041+999999089GA2021+999999009MA1999999100141MW1001
0050567780999991947031223004+25017+102683SAO  +1892ZPPP V0209991C000012200019N1600001N1+00961+00691101731ADDGF100991999999999999999999MA1999999081241MW1001
0340999999232441947121116005+37417-122050SAO  +000899999V02013559001550106749N012800599+00395+00115102815ADDGA1999+010674074GA2999+999999999GA3999+999999999GA4999+999999999GD19065+9999999GD29005+9999999GD39005+9999999GD49005+9999999MA1999999102715EQDN01 00000JPWTH 1QNNE11 1 09908E11 1 09900E11 1 09900E11 1 09900G11 1 00035H11 1 16035H11 1 00999H11 1 00999H11 1 00999K11 1 00034L11 1 00800M11 1 30330N11 1 00000Q11 1 10281S11 1 00039W11 1 44003
0340999999232441947011619005+37417-122050SAO  +000899999V02031559002652200049N012800599+00895-00335103005ADDGA1999+999999999GA2999+999999999GA3999+999999999GA4999+999999999GD19005+9999999GD29005+9999999GD39005+9999999GD49005+9999999MA1999999102955EQDN01 00000JPWTH 1QNNE11 1 09900E11 1 09900E11 1 09900E11 1 09900G11U1 99999H11 1 00999H11 1 00999H11 1 00999H11 1 00999K11 1 00026L11 1 00800M11 1 30400N11 1 00000Q11 1 10300S11 1 00048W11 1 88005
0165999999931011947081113005+33683-117733SAO  +010899999V02099999000052200059N012800599+01834+01395101354ADDGF100995999999999999999999MA1999999100104EQDN01 00000JPWTH 1QNNG11U1 99999K11 1 00057L11 1 00800M11 1 29560N11 1 00000Q11 1 10135S11 1 00065V11 1 00099W11 1 00000
0340999999242551947012812005+99999+999999SAO  +999999999V02002359004152200049N016000599+00005-00225100225ADDGA1999+006104064GA2999+999999999GA3999+999999999GA4999+999999999GD19025+9999999GD29005+9999999GD39005+9999999GD49005+9999999MA1999999100105EQDN01 00000JPWTH 1QNNE11 1 09902E11 1 09900E11 1 09900E11 1 09900G11U1 99999H11 1 15020H11 1 00999H11 1 00999H11 1 00999K11 1 00028L11 1 01000M11 1 29560N11 1 00000Q11 1 10022S11 1 00032W11 1 12008
0050722525129201947030114004+27600-099517SAO  +0161LOI  V0200231N005712200019N0240001N1+01351+00851101321ADDGF100991999999999999999999MA1999999099491MW1001
0050722510129241947060905004+27767-097500SAO  +0013CRP  V0201351N003612200019N0192001N1+02571+02301101291ADDGF102991999999999999999999MA1999999101121MW1001
0082747900138491947081719004+33967-080483SAO  +0072SSC  V0201601N003612200019N0240001N9+03331+02111102271ADDGA1021+010509089GA2011+051009039GF102991999999999999999999MA1999999101391MW1001
0082085090999991947021806004+38750-027083SAO  +0052LPLA V0201601N008210069019N0240001N9+01191+00961101361ADDGA1061+006909089GA2021+011109059GF107991999999999999999999MA1999999100751MW1801
0082788078999991947112900004+08383-080133SAO  +0031MPRH V0203601N002110075019N0112001N1+02461+02351101221ADDGA1051+007509059GA2041+030009049GF108991999999999999999999MA1999999100951MW1811
0029719576999991947012618004+64900-125500FM-12+009199999V0202701N001019999999N0500001N9-04171+99999102461ADDGF108991001999999999999999
0051285060999991947072410004+55767+052067FM-12+009099999V0201601N00261007801CN0100001N9+01781+99999999999ADDAY181999GF108991081031008001999999MD1810041+9999
0082744910147031947062612004+42200-072533SAO  +0075CEF  V0202301N002612200019N0040001N9+02021+01571101291ADDGA1021+024009039GA2061+066009029GF107991999999999999999999MA1999999100411MW1111
0117412560999991947050203004+23750+058583FM-12+000599999V0209991C00001220001CN0500001N9+02941+02561100701ADDAY101999GA1999+000159999GA2999+000159999GF100991001001999999001001KA1999N+02891EQDQ01    003SCCGA1Q02    003SCCGA2
006172259613961194711191000D+32817-097350SAO  +0215FTW  V0203601N003610090019N0160001N1+00741+00631101861ADDAA101000095GF108991999999999999999999MA1999999099291MW1001
0171722080138801947032222003+32900-080033SAO  +0014CHS  V02033859005252200059N0240005N1+01615-00335101905ADDGF102995999999999999999999MA1101901101735MW1001EQDN01 00000JPWTH 1QNNG11U1 99999K11 1 00026L11 1 01500M11 1 30040N11 1 00000Q11 1 10190S11 1 00061V11 1 00299W11 1 18010
0029719640999991947112700004+60700-135117FM-12+069899999V0201401N008219999999N0500001N9+00561-00171102251ADDGF108991021999999999999999
0050724060937211947050508004+39250-076667SAO  +0047BWI  V0202251N006210096019N0144001N1+01461+01241100471ADDGF108991999999999999999999MA1999999100411MW1611
0082722175138601947052915004+32633-083600SAO  +0090WRB  V0202301N001512200019N0240001N9+02571+99999101291ADDGA1021+009009089GA2021+066009029GF102991999999999999999999MA1999999100341MW1001
0029719260999991947030806004+64300-096083FM-12+000999999V02099999999999999999N9999999N9+99999+99999999999ADDKA1999M-02221KA2999N-02671
0171999999148491947080604005+41567-083467SAO  +019499999V02009059001052200059N006400599+02615+02175101195ADDGF102995999999999999999999MA1999999098955MW1045EQDN01 08200JPWTH 1QNNG11U1 99999K11 1 00071L11 1 00400M11 1 29220N11 1 08200Q11 1 10119S11 1 00079V11 1 00399W11 1 33002
0066108580999991947090722004+48200+011267SAO  +0519EDSF V0202251N003610180019N0064001N1+01461+01071101961ADDGA1081+018009059GF108991999999999999999999MA1999999095941MW1051
0066107635999991947050719004+49500+010950SAO  +0305EDEW V0209991C000012200019N0240001N1+01851+99999101781ADDGA1999+015009999GF100991999999999999999999MA1999999098141MW1001
0066747686138201947060808004+30400-088917SAO  +0009BIX  V0202701N001012200019N0160001N9+02571+02351101491ADDGA1011+060009029GF102991999999999999999999MA1999999101391MW1001
0050722970231291947100306004+33817-118150SAO  +0012LGB  V0202931N001512200019N0064001N1+01741+01461101391ADDGF100991999999999999999999MA1999999101251MW1451
0270722265138211947111521003+32383-086350SAO  +0053MXF  V02031559001552200059N0240005N9+02005+00835101055ADDGA1051+067064014GD19055+9999999GD29999+9999999GD39999+9999999GF105995999999999999999999MA1999999100415EQDN01 00000JPWTH 1QNNE11 1 09906E11 1 09999E11 1 09999G11U1 99999H11 1 39220K11 1 00047L11 1 01500M11 1 29650N11 1 00000Q11 1 10105S11 1 00068V11 1 00699W11 1 88003
0051315870999991947102506004+49617+128483FM-12+011799999V0202701N00671220001CN0200001N9+01001+99999101541ADDAY101999GF100991001001999999001001MD1810021+9999
0029943350999991947092809004-20667+140500FM-12+018899999V02099999999999999999N9999999N9+99999+99999999999ADDKA1999M+03061KA2999N+01721
0072749066999991947121214004+32267-064850SAO  +0013MYUN V0202931N003112200019N0192001N1+02131+01631101351ADDGA1011+999999089GA2021+999999049GA3011+999999009MA1999999101221MW1001
0066704851999991947102417004+53367-167900SAO  +0039UNS  V0202251N012910090019N0160001N1+00411+00351099971ADDGA1061+009009059GF107991999999999999999999MA1999999099461MW1001
0066749509999991947030503004+13517+144817SAO  +005499999V0200901N006710060019N0240001N1+03021+02411100911ADDGA1081+006009089GF108991999999999999999999MA1999999100371MW1001
0066704540257041947052115004+51883-176650SAO  +0005PADK V0202301N004110054019N0112001N9+00191+00081099421ADDGA1061+005409059GF107991999999999999999999MA1999999099391MW1001
0067071490999991947080606004+48733+002383FM-12+009699999V0202501N003119999999N0150001N9+01501+99999101651ADDAY121999GA1011+999999019GF108991061051012501071999MD1310091+9999
0117425870999991947071103004+24050+084067FM-12+022199999V0209991C00001220001CN0100001N9+02831+02561099861ADDAY111999GA1999+000159999GA2999+000159999GF106991001001999999071999KA1999N+02561EQDQ01    003SCCGA1Q02    003SCCGA2
0066724565139201947010317004+38950-095667SAO  +0323FOE  V0203401N007212200019N0160001N9-01701+99999104201ADDGA1031+036009049GF102991999999999999999999MA1999999099971MW1001
0066725115147111947030706004+40200-076767SAO  +0097MDT  V0203151N003610120019N0160001N1+00131-00261101761ADDGA1071+012009059GF107991999999999999999999MA1999999100611MW1001
0082724070937301947100912004+39450-074583SAO  +0024ACY  V0200201N004112200019N0128001N9+01301+01071102001ADDGA1021+999999059GA2051+999999049GF107991999999999999999999MA1999999101761MW1001
0050702610264111947071301004+64817-147867SAO  +0138FAI  V0200681N004112200019N1440001N1+02411+00581100371ADDGF100991999999999999999999MA1999999098681MW1001
0117428510999991947041103004+21050+075567FM-12+020199999V0202301N00461220001CN0200001N9+02781+01611999999ADDAY111999GA1999+000159999GA2999+000159999GF102991021011022501001001KA1999N+02441EQDQ01    003SCCGA1Q02    003SCCGA2
0117722175138601947072923004+32633-083600SAO  +0090WRB  V0209991C000012200019N0240001N9+03291+99999101421ADDGA1999+009009999GA2999+066009999GF100991999999999999999999MA1999999100441MW1001EQDQ01    003SCCGA1Q02    003SCCGA2
0171726580149221947090720003+44883-093217SAO  +0254MSP  V02011359005752200059N0192005N9+03065+02065101525ADDGF100995999999999999999999MA1999999098545MW1001EQDN01 00000JPWTH 1QNNG11U1 99999K11 1 00069L11 1 01200M11 1 29100N11 1 00000Q11 1 10152S11 1 00087V11 1 00099W11 1 34011
0066911700225081947060211004+21483-158033SAO  +0257PHHI V0209991C000012200019N0320001N9+02241+01631101961ADDGA1041+006009089GF102991999999999999999999MA1999999098951MW1001
0050725038147141947122418004+41500-074100SAO  +0150SWF  V0203601N005112200019N0240001N1-00091-01031102401ADDGF100991999999999999999999MA1999999100581MW1001
0072043900999991947100619004+60033-043117SAO  +0019BGPC V0200231N002610018019N0048001N1+00081+00081100711ADDGA1081+001809079GF108991999999999999999999MA1999999099761MW1451MW2511
0066725115147111947032211004+40200-076767SAO  +0097MDT  V0203151N004610360019N0064001N1+00191-00091100911ADDGA1061+036009039GF107991999999999999999999MA1999999099761MW1041
