0377999999231801948100712005+34400-118550SAO  +037099999V02013559003152200059N024000599+00785+00175101125ADDGA1999+999999999GA2999+999999999GA3999+999999999GA4999+999999999GD19005+9999999GD29005+9999999GD39005+9999999GD49005+9999999GF100995999999999999999999MA1999999096855EQDN01 00000JPWTH 1QNNE11 1 09900E11 1 09900E11 1 09900E11 1 09900G11U1 99999H11 1 00999H11 1 00999H11 1 00999H11 1 00999K11 1 00035L11 1 01500M11 1 28600N11 1 00000Q11 1 10112S11 1 00046V11 1 00099W11 1 44006
0087296120999991948013106004+55367+078400FM-12+012099999V0202501N00261012301CN0040001N9-02781+99999104271ADDAA199000391AY171999GF108991081051012501999999IA1319KA1999N-02781MD1310141+9999MW1711
0066724956232111948071712004+38067-122517SAO  +0003SRF  V0209991C000010030019N0080001N1+01131+00961101071ADDGA1051+003009079GF107991999999999999999999MA1999999101051MW1451
0066747880128101948010607004+27850-082500SAO  +0003KMCF V0201101N003612200019N0160001N9+00831+00721102201ADDGA1001+999999999GF100991999999999999999999MA1999999102171MW1001
0340999999930321948082300005+39700-104750SAO  +169799999V02004559004152200049N024000599+03114+00675100794ADDGA1999+024384084GA2999+042674034GA3999+067064004GA4999+999999999GD19035+9999999GD29025+9999999GD39025+9999999GD49005+9999999MA1999999082564EQDN01 00000JPWTH 1QNNE11 1 09904E11 1 09902E11 1 09903E11 1 09900G11U1 99999H11 1 11080H11 1 23140H11 1 32220H11 1 00999K11 1 00044L11 1 01500M11 1 24380N11 1 00000Q11 1 10079S11 1 00088W11 1 22008
0072303640999991948030512004+56500+115667FM-12+047499999V0209991C00001220001CN0200001N9-02001+99999999999ADDAY101999GF199999001001999999001061EQDQ01+000032APCTENQ02+000002APC3  
0372701740265331948060914003+66917-151517SAO  +0196BTT  V02099999000052200059N0800005N1+01005+00445999999ADDGA1999+999999999GA2999+999999999GA3999+999999999GA4999+999999999GD19005+9999999GD29005+9999999GD39005+9999999GD49005+9999999GF100995999999999999999999MA1999999099865MW1001EQDN01 00000JPWTH 1QNNE11 1 09900E11 1 09900E11 1 09900E11 1 09900G11U1 99999H11 1 00999H11 1 00999H11 1 00999H11 1 00999K11 1 00040L11 1 05000M11 1 29490N11 1 00000S11 1 00050V11 1 00099W11 1 00000
017699999913965194812100500E+34300-097150SAO  +026499999V02036059001552200059N024000599-00285-00675103185ADDAA101000095GF100995999999999999999999MA1999999099935EQDN01 00000JPWTH 1QNNG11U1 99999K11 1 00020L11 1 01500M11 1 29510N11 1 00000Q11 1 10318S11 1 00027V11 1 00099W11 1 11003
004594999900175194811200800N-27570+153000AUST +0011     V0200455N006259999999N999999999+02245+99999999999ADDGA1055+015005999GF108995054999015005999999
0057257770999991948102600004+62417+179133FM-12+001099999V0203601N00931220001CN0200001N9-00781+99999100731ADDAY101999GF102991001001999999001061IA1199MD1710161+9999
0098789700999991948091402004+10617-061350SAO  +0015TTPP V0209991C000010600019N0160001N1+02241+02181101151ADDGA1999+006009999GA2021+030009049GA3061+060009029GF107991999999999999999999MA1999999100641MW1001
0082789700999991948082204004+10617-061350SAO  +0015TTPP V0200451N001512200019N0192001N1+02461+02411101351ADDGA1021+006009089GA2021+075009029GF102991999999999999999999MA1999999100881MW1001
0377999999137531948091618005+39450-074583SAO  +002099999V02006859006252200059N016000599+02005+01175103045ADDGA1999+015244084GA2999+999999999GA3999+999999999GA4999+999999999GD19035+9999999GD29005+9999999GD39005+9999999GD49005+9999999GF103995999999999999999999MA1999999102815EQDN01 00000JPWTH 1QNNE11 1 09904E11 1 09900E11 1 09900E11 1 09900G11U1 99999H11 1 11050H11 1 00999H11 1 00999H11 1 00999K11 1 00053L11 1 01000M11 1 30360N11 1 00000Q11 1 10304S11 1 00068V11 1 00499W11 1 32012
0082724663999991948030901004+38783-104717SAO  +1881PEF  V0202931N003612200019N0240001N1-00311-00761101421ADDGA1021+018009059GA2021+036009049GF102991999999999999999999MA1999999080121MW1001
0133427310999991948091012004+22367+069083FM-12+001199999V0202501N00671012301CN0040001N9+02891+02391100511ADDAY121999GA1999+000159999GA2999+000159999GF108991999011012501051081KA1999M+03061EQDQ01+000082SCOTLCQ02    003SCCGA1Q03    003SCCGA2
0092317860999991948051009004+47550+134650FM-12+008499999V0202701N00261007801CN0040001N9+01221+99999100271ADDAY161999GF108991081061008001999999MD1210091+9999MW1631EQDQ01+000042APCTENQ02+000202APC3  
0051291110999991948041012004+59217+078233FM-12+008599999V0202001N00671030001CN0200001N9+00781+99999100991ADDAY111999GF106991011011004501081001MD1810181+9999
0171999999938141948121404005+39050-084667SAO  +027199999V02024859004650033549N002400599+01394+01335102034ADDGF108995999999999999999999MA1999999098814MW1455EQDN01 07000JPWTH 1QNNG11 1 00011K11 1 00056L11 1 00150M11 1 29180N11 1 07000Q11 1 10203S11 1 00057V11 1 01099W11 1 76009
0051306690999991948011509004+53067+117317FM-12+070799999V0202701N00461220001CN0200001N9-02111+99999103151ADDAY101999GF100991001001999999001001MD1310041+9999
0082911800999991948111904004+21333-157950SAO  +0009PHIK V0200681N004112200019N0240001N1+02571+02021101561ADDGA1011+009009089GA2031+045009039GF102991999999999999999999MA1999999101461MW1001
0165999999240301948062004005+41133-103033SAO  +126299999V02013559004650012249N016000599+01115+01065101495ADDGF108995999999999999999999MA1999999087375EQDN01 00000JPWTH 1QNNG11 1 00004K11 1 00051L11 1 01000M11 1 25800N11 1 00000Q11 1 10149S11 1 00052V11 1 01099W11 1 44009
039472518014735194811261800C+42750-073800SAO  +0089ALB  V02013559004652200059N0160005N1+01005-00065101635ADDAA101000095GA1011+091444004GA2999+999999999GA3999+999999999GA4999+999999999GD19015+9999999GD29005+9999999GD39005+9999999GD49005+9999999GF101995999999999999999999MA1999999100545MW1001EQDN01 00000JPWTH 1QNNE11 1 09901E11 1 09900E11 1 09900E11 1 09900G11U1 99999H11 1 32300H11 1 00999H11 1 00999H11 1 00999K11 1 00031L11 1 01000M11 1 29690N11 1 00000Q11 1 10163S11 1 00050V11 1 00199W11 1 44009
0383722687930331948092915003+32333-104267SAO  +0986CNM  V02002359003152200059N0800005N1+01395-00065102035ADDGA1999+075009004GA2999+999999999GA3999+999999999GA4999+999999999GD19005+9999999GD29005+9999999GD39005+9999999GD49005+9999999GF100995999999999999999999MA1999999090865MW1001EQDN01 00000JPWTH 1QNNE11 1 09900E11 1 09900E11 1 09900E11 1 09900G11U1 99999H11 1 32999H11 1 00999H11 1 00999H11 1 00999K11 1 00031L11 1 05000M11 1 26830N11 1 00000Q11 1 10203S11 1 00057V11 1 00099W11 1 12006
0377999999147891948050420005+42267-071033SAO  +000599999V02018059004152200059N016000599+01895+00565101295ADDGA1999+013724084GA2999+999999999GA3999+999999999GA4999+999999999GD19015+9999999GD29005+9999999GD39005+9999999GD49005+9999999GF101995999999999999999999MA1999999101225EQDN01 00000JPWTH 1QNNE11 1 09901E11 1 09900E11 1 09900E11 1 09900G11U1 99999H11 1 11045H11 1 00999H11 1 00999H11 1 00999K11 1 00042L11 1 01000M11 1 29890N11 1 00000Q11 1 10129S11 1 00066V11 1 00199W11 1 55008
0082783970999991948090422004+17933-076783SAO  +0009MKJP V0209991C000010045019N0064001N1+02631+02571101191ADDGA1071+004509089GA2011+054009049GF108991999999999999999999MA1999999100751MW1811
0066787804999991948070521004+32133-081200SAO  +0013SVN  V0201351N005112200019N0240001N1+03131+01801101901ADDGA1021+105009009GF102991999999999999999999MA1999999101731MW1001
0066723527139751948050215004+36300-099767SAO  +0671GAG  V0200231N003612200019N0192001N1+01571+00911101191ADDGA1021+075009029GF102991999999999999999999MA1999999093531MW1001
0024718070999991948042106004+47300-054000SAO  +0016CYAR V0202031N008210018019N0048001N1+00021+00021101891ADDMA1999999101691MW1731
0165999999242361948011408005+99999+999999SAO  +999999999V02015859001552200059N080000599+00115-00505103185ADDGF100995999999999999999999MA1999999087445EQDN01 00000JPWTH 1QNNG11U1 99999K11 1 00023L11 1 05000M11 1 25820N11 1 00000Q11 1 10318S11 1 00034V11 1 00099W11 1 54003
0165999999241301948042323005+44833-117833SAO  +102899999V02036059010350167649N064000599+01005-00065101525ADDGF108995999999999999999999MA1999999089645EQDN01 00000JPWTH 1QNNG11 1 00055K11 1 00031L11 1 04000M11 1 26470N11 1 00000Q11 1 10152S11 1 00050V11 1 01099W11 1 11020
0165999999138951948050220005+32300-086400SAO  +006199999V02020359009352200059N024000599+03335+01445101085ADDGF108995999999999999999999MA1999999100375EQDN01 00000JPWTH 1QNNG11U1 99999K11 1 00058L11 1 01500M11 1 29640N11 1 00000Q11 1 10108S11 1 00092V11 1 01099W11 1 56018
0165999999149311948061817005+40783-091117SAO  +021299999V02022559005252200059N016000599+02725+01835101125ADDGF102995999999999999999999MA1999999098615EQDN01 00000JPWTH 1QNNG11U1 99999K11 1 00065L11 1 01000M11 1 29120N11 1 00000Q11 1 10112S11 1 00081V11 1 00399W11 1 66010
0082723625930571948082203004+35167-107900SAO  +0087GNT  V0200681N003612200019N0960001N1+01961+01191101521ADDGA1041+027009059GA2041+048009039GF108991999999999999999999MA1999999080431MW1001
0171702710264251948123123003+62150-145450SAO  +0481GKN  V02099999000052200059N0800005N1-03335-03725100475ADDGF106995999999999999999999MA1999999094245MW1001EQDN01 00000JPWTH 1QNNG11U1 99999K11 1-00035L11 1 05000M11 1 27830N11 1 00000Q11 1 10047S11 1-00028V11 1 00799W11 1 00000
0377999999257091948090823005+51750-178033SAO  +004599999V02099999000050076249N048000599+00945+00835101245ADDGA1999+007624064GA2999+033534034GA3999+999999999GA4999+999999999GD19065+9999999GD29025+9999999GD39005+9999999GD49005+9999999GF107995999999999999999999MA1999999100645EQDN01 00000JPWTH 1QNNE11 1 09907E11 1 09902E11 1 09900E11 1 09900G11 1 00025H11 1 15025H11 1 23110H11 1 00999H11 1 00999K11 1 00047L11 1 03000M11 1 29720N11 1 00000Q11 1 10124S11 1 00049V11 1 00999W11 1 00000
0165999999241561948061319005+42917-112533SAO  +136299999V02022559005252200059N096000599+02115+00725101495ADDGF106995999999999999999999MA1999999086395EQDN01 00000JPWTH 1QNNG11U1 99999K11 1 00045L11 1 06000M11 1 25510N11 1 00000Q11 1 10149S11 1 00070V11 1 00899W11 1 66010
0165999999265281948120214005+62300-150100SAO  +010799999V02033859005252200059N096000599-01725-02115101195ADDGF100995999999999999999999MA1999999099805EQDN01 00000JPWTH 1QNNG11U1 99999K11 1-00006L11 1 06000M11 1 29470N11 1 00000Q11 1 10119S11 1 00001V11 1 00099W11 1 18010
0082478080999991948050915004+33583+130450SAO  +0012RJFF V0200231N001010600019N0064001N1+01301+01241101551ADDGA1011+030009039GA2071+060009029GF107991999999999999999999MA1999999101461MW1051
0050702190266151948050118004+60783-161800SAO  +0046BET  V0203601N003612200019N0640001N1-00151-00311102241ADDGF100991999999999999999999MA1999999102071MW1001
0066911800999991948102418004+21333-157950SAO  +0009PHIK V0200681N006712200019N0240001N1+02411+01801101761ADDGA1021+007509089GF102991999999999999999999MA1999999101661MW1001
0171702923264401948102216003+63400-143317SAO  +0471TSG  V02099999000052200059N0480005N1-00835-00945100375ADDGF108995999999999999999999MA1999999094555MW1001EQDN01 00000JPWTH 1QNNG11U1 99999K11 1 00015L11 1 03000M11 1 27920N11 1 00000Q11 1 10037S11 1 00017V11 1 01099W11 1 00000
0165999999231671948032323005+36733-119817SAO  +008699999V02020359002152200059N064000599+02175+00565101025ADDGF108995999999999999999999MA1999999099975EQDN01 00000JPWTH 1QNNG11U1 99999K11 1 00042L11 1 04000M11 1 29520N11 1 00000Q11 1 10102S11 1 00071V11 1 01099W11 1 56004
0082724810232031948010310004+37367-120567SAO  +0057MER  V0200501N003610240019N0240001N9+01191+01021102031ADDGA1021+018009079GA2051+024009039GF107991999999999999999999MA1999999101391MW1001
0165999999139831948060113005+38967-092367SAO  +023899999V02036059002652200059N019200599+01835+01005102615ADDGF104995999999999999999999MA1999999099765EQDN01 00000JPWTH 1QNNG11U1 99999K11 1 00050L11 1 01200M11 1 29460N11 1 00000Q11 1 10261S11 1 00065V11 1 00599W11 1 11005
0066749207999991948063012004+65733-118917SAO  +017199999V0209991C000012200019N0480001N1+01071+00521101501ADDGA1011+030009039GF102991999999999999999999MA1999999099091MW1001
0165999999938181948011001005+38417-082500SAO  +017199999V02024859002650106749N016000599+00394-00335102204ADDGF108995999999999999999999MA1999999100104EQDN01 00000JPWTH 1QNNG11 1 00035K11 1 00026L11 1 01000M11 1 29560N11 1 00000Q11 1 10220S11 1 00039V11 1 01099W11 1 76005
0171725250148521948060201003+41250-080667SAO  +0359YNG  V02029359003652200059N0160005N9+01785+00945101905ADDGF100995999999999999999999MA1999999097665MW1001EQDN01 00000JPWTH 1QNNG11U1 99999K11 1 00049L11 1 01000M11 1 28840N11 1 00000Q11 1 10190S11 1 00064V11 1 00099W11 1 78007
0066467430999991948021112004+23000+120217SAO  +0000RCNN V0203601N004610078019N0040001N1+01571+01191101791ADDGA1081+007809079GF108991999999999999999999MA1999999101631MW1001
0323999999255071948092412005+59633-151500SAO  +002299999V02033859001550198149N024000599+00725+00285098685ADDGA1999+013724064GA2999+019814044GD19025+9999999GD29085+9999999GD39999+9999999GD49999+9999999GF108995999999999999999999MA1999999098415EQDN01 00000JPWTH 1QNNE11 1 09903E11 1 09910E11 1 09999E11 1 09999G11 1 00065H11 1 15045H11 1 21065K11 1 00037L11 1 01500M11 1 29060N11 1 00000Q11 1 09868S11 1 00045V11 1 01099W11 1 18003
0059949100999991948091217003-35167+147467FM-12+0070YSWG V0201401N001019999999N0200001N9+00941+00721999999ADDAY101999GA1005+999999999GF101991001001999999999999MW1001
0117424830999991948092212004+25300+083017FM-12+007699999V0200501N002619999999N0100001N9+03001+02561100341ADDAY121999GA1999+000159999GA2999+000159999GF106991041021012501071001KA1999M+03221EQDQ01    003SCCGA1Q02    003SCCGA2
0066722630230341948081212004+31367-100500SAO  +0585SJT  V0201801N003612200019N0240001N1+02571+02071101221ADDGA1011+063001001GF102991999999999999999999MA1999999094851MW1001
0383703500255011948071911003+57750-152500SAO  +0034ADQ  V02099999000050106749N0240005N1+01005+00785100715ADDGA1061+010674064GA2011+030484034GA3999+999999999GA4999+999999999GD19065+9999999GD29015+9999999GD39005+9999999GD49005+9999999GF107995999999999999999999MA1999999100275MW1001EQDN01 00000JPWTH 1QNNE11 1 09908E11 1 09901E11 1 09900E11 1 09900G11 1 00035H11 1 15035H11 1 23100H11 1 00999H11 1 00999K11 1 00046L11 1 01500M11 1 29610N11 1 00000Q11 1 10071S11 1 00050V11 1 00999W11 1 00000
0165999999137331948071414005+37333-079200SAO  +029199999V02018059001550228649N016000599+02565+02175101225ADDGF108995999999999999999999MA1999999097935EQDN01 00000JPWTH 1QNNG11 1 00075K11 1 00071L11 1 01000M11 1 28920N11 1 00000Q11 1 10122S11 1 00078V11 1 01099W11 1 55003
0050701160266181948100222004+65617-168050SAO  +0005WAA  V0200451N005712200019N0480001N1+00191+00081099491ADDGF108991999999999999999999MA1999999099421MW1001
017699999924033194807141100E+45800-108533SAO  +1087BIL  V02036059003150182949N048000599+01615+01445101635ADDAA101000095GF108995999999999999999999MA1999999089435EQDN01 00000JPWTH 1QNNG11 1 00060K11 1 00058L11 1 03000M11 1 26410N11 1 00000Q11 1 10163S11 1 00061V11 1 01099W11 1 11006
0066466960999991948051812004+25050+121533SAO  +0006RCTP V0200901N006712200019N0096001N1+02131+01571101291ADDGA1031+027009039GF102991999999999999999999MA1999999101191MW1001
0082722535129091948062215004+29383-098567SAO  +0209SKF  V0201401N011310078019N0240001N9+02961+02181100851ADDGA1061+007809089GA2021+008409059GF108991999999999999999999MA1999999098511MW1001
0377999999148411948033006005+45567-084783SAO  +021699999V02029359002652200059N024000599-00725-01065100885ADDGA1999+999999999GA2999+999999999GA3999+999999999GA4999+999999999GD19005+9999999GD29005+9999999GD39005+9999999GD49005+9999999GF100995999999999999999999MA1999999098175EQDN01 00000JPWTH 1QNNE11 1 09900E11 1 09900E11 1 09900E11 1 09900G11U1 99999H11 1 00999H11 1 00999H11 1 00999H11 1 00999K11 1 00013L11 1 01500M11 1 28990N11 1 00000Q11 1 10088S11 1 00019V11 1 00099W11 1 78005
0044710740999991948100121004+78783-103533FM-12+002599999V0203201N005119999999N0040001N9-01061-01111999999ADDGF103991021999999999999001MA1999999100821
0165722585939011948091022002+32733-096967SAO  +0150NBE  V02006859005752200059N024000599+02675+01225101765ADDGF108995999999999999999999MA1999999100175EQDN01 00000JPWTH 1QNNG11U1 99999K11 1 00054L11 1 01500M11 1 29580N11 1 00000Q11 1 10176S11 1 00080V11 1 01099W11 1 32011
0177999999138711948052800005+33583-085850SAO  +0184ANB  V02022559006750012249N000800599+02115+02065101355ADDGF108995999999999999999999MA1999999099155MW1815MW2955EQDN01 01025JPWTH 1QNNG11 1 00004K11 1 00069L11 1 00050M11 1 29280N11 1 01025Q11 1 10135S11 1 00070V11 1 01099W11 1 66013
0066749348999991948020120004+30583+114250SAO  +003799999V0203381N001512200019N0020001N1+00081+00021102471ADDGA1011+045009039GF102991999999999999999999MA1999999102001MW1451
0133431110999991948011703004+17933+073667FM-12+138299999V0201101N00261220001CN0500001N9+01501+01331100221ADDAY111999GA1999+000159999GA2999+000159999GF102991999051999999001001KA1999N+01331EQDQ01+000002SCOTLCQ02    003SCCGA1Q03    003SCCGA2
018272785024157194809071900C+47617-117517SAO  +0721GEG  V02009059003152200059N0480005N1+02005+00395102245ADDAA101000095GF100995999999999999999999MA1999999093845MW1001EQDN01 00000JPWTH 1QNNG11U1 99999K11 1 00039L11 1 03000M11 1 27710N11 1 00000Q11 1 10224S11 1 00068V11 1 00099W11 1 33006
0014973780999991948021100004-10733+123067FM-12+000199999V02099999999999999999N9999999N9+99999+99999999999ADDAA124036091
018899999914762194807122300E+40350-079933SAO  +038899999V02015859006250112849N016000599+02395+02115101325ADDAA101000095GF108995999999999999999999MA1999999096855MW1805MW2955EQDN01 01023JPWTH 1QNNG11 1 00037K11 1 00070L11 1 01000M11 1 28600N11 1 01023Q11 1 10132S11 1 00075V11 1 01099W11 1 54012
0171999999139831948021010005+38967-092367SAO  +023899999V02009059002652200059N008000599-01065-01335102845ADDGF101995999999999999999999MA1999999099835MW1045EQDN01 08000JPWTH 1QNNG11U1 99999K11 1 00008L11 1 00500M11 1 29480N11 1 08000Q11 1 10284S11 1 00013V11 1 00199W11 1 33005
009372537714804194810122200D+42617-082817SAO  +0176MTC  V0202301N005110105019N0192001N9+00961+00911101121ADDAA101000095GA1051+010509059GA2031+075009009GF108991999999999999999999MA1999999098951MW1001
0165999999231931948060418005+32183-110917SAO  +078099999V02033859001552200059N080000599+03005+00225101155ADDGF100995999999999999999999MA1999999092525EQDN01 00000JPWTH 1QNNG11U1 99999K11 1 00036L11 1 05000M11 1 27320N11 1 00000Q11 1 10115S11 1 00086V11 1 00099W11 1 18003
0377999999265121948082321005+63883-152283SAO  +021499999V02004559009352200059N112000599+00785+00065101465ADDGA1999+999999084GA2999+999999999GA3999+999999999GA4999+999999999GD19005+9999999GD29005+9999999GD39005+9999999GD49005+9999999GF100995999999999999999999MA1999999098785EQDN01 00000JPWTH 1QNNE11 1 09900E11 1 09900E11 1 09900E11 1 09900G11U1 99999H11 1 11999H11 1 00999H11 1 00999H11 1 00999K11 1 00033L11 1 07000M11 1 29170N11 1 00000Q11 1 10146S11 1 00046V11 1 00099W11 1 22018
0082789700999991948032706004+10617-061350SAO  +0015TTPP V0209991C000010360019N0192001N1+02411+02351101391ADDGA1021+005409089GA2041+036009039GF107991999999999999999999MA1999999100911MW1001
0340999999931111948120808005+34117-119117SAO  +000599999V02036059002652200049N040000599+00894+00285102004ADDGA1999+999999999GA2999+999999999GA3999+999999999GA4999+999999999GD19005+9999999GD29005+9999999GD39005+9999999GD49005+9999999MA1999999101934EQDN01 00000JPWTH 1QNNE11 1 09900E11 1 09900E11 1 09900E11 1 09900G11U1 99999H11 1 00999H11 1 00999H11 1 00999H11 1 00999K11 1 00037L11 1 02500M11 1 30100N11 1 00000Q11 1 10200S11 1 00048W11 1 11005
0088309780999991948011218004+49833+118383FM-12+055099999V0209991C00001220001CN0200001N9-02111+99999102251ADDAY121999GF107991999001999999021001EQDQ01+000002SCOTLCQ02+000032APCTENQ03+000002APC3  
0043297360999991948061500004+54333+084217FM-12+019899999V0202701N00101220001CN0040001N9+99999+99999999999ADDAY141999GF100991001001999999001999MW1421
0377999999148191948012218005+41783-087750SAO  +0187MDW  V02031559006752200059N016000599-01065-01675100585ADDGA1999+060964004GA2999+999999999GA3999+999999999GA4999+999999999GD19025+9999999GD29005+9999999GD39005+9999999GD49005+9999999GF102995999999999999999999MA1999999098175EQDN01 00000JPWTH 1QNNE11 1 09903E11 1 09900E11 1 09900E11 1 09900G11U1 99999H11 1 32200H11 1 00999H11 1 00999H11 1 00999K11 1 00002L11 1 01000M11 1 28990N11 1 00000Q11 1 10058S11 1 00013V11 1 00399W11 1 88013
0066722235138381948021104004+30633-088067SAO  +0008BFM  V0201131N007210081019N0096001N1+01021+00581102511ADDGA1081+008109079GF108991999999999999999999MA1999999102401MW1051
0165999999241421948041805005+42917-114767SAO  +112999999V02027059004652200059N048000599+00565+00115101595ADDGF102995999999999999999999MA1999999088865EQDN01 00000JPWTH 1QNNG11U1 99999K11 1 00034L11 1 03000M11 1 26240N11 1 00000Q11 1 10159S11 1 00042V11 1 00399W11 1 77009
0144425870999991948110903004+24050+084067FM-12+022199999V0202701N00101220001CN0100001N9+02441+02221101601ADDAA124009091AY111999GA1999+000159999GA2999+000159999GF104991999021008001001081KA1999N+02171EQDQ01+000062SCOTLCQ02    003SCCGA1Q03    003SCCGA2
0165999999240291948030115005+44767-106967SAO  +1202SHR  V02031559001552200059N064000599-00395-00945101865ADDGF100995999999999999999999MA1999999087715EQDN01 00000JPWTH 1QNNG11U1 99999K11 1 00015L11 1 04000M11 1 25900N11 1 00000Q11 1 10186S11 1 00025V11 1 00099W11 1 88003
0050701160266181948022411004+65617-168050SAO  +0005WAA  V0200451N009312200019N0048001N1-02811-03091101251ADDGF107991999999999999999999MA1999999101191MW1451
0340999999107151948051218005+09367-079900SAO  +0004MBFS V02031559006252200049N012800599+02945+02395100925ADDGA1999+009144084GA2999+076204004GA3999+999999999GA4999+999999999GD19045+9999999GD29045+9999999GD39005+9999999GD49005+9999999MA1999999100885EQDN01 00000JPWTH 1QNNE11 1 09905E11 1 09905E11 1 09900E11 1 09900G11U1 99999H11 1 11030H11 1 32250H11 1 00999H11 1 00999K11 1 00075L11 1 00800M11 1 29790N11 1 00000Q11 1 10092S11 1 00085W11 1 88012
0009718010999991948011509004+47617-052750SAO  +0140CYYT V0202251N018012200019N0192001N1+00961+00691101221ADDMW1001
0082467430999991948091213004+23000+120217SAO  +0000RCNN V0203601N002112200019N0040001N1+02571+02461100851ADDGA1011+027009039GA2011+069009009GF102991999999999999999999MA1999999100581MW1001
0134999999432041948031204005+31233+121450SAO  +002799999V02013559003150036649N003200599+01445+01285100885ADDMA1999999100885MW1455EQDN01 07000JPWTH 1QNNG11 1 00012K11 1 00055L11 1 00200M11 1 29790N11 1 07000Q11 1 10088S11 1 00058W11 1 44006
029399999913739194809060900E+39883-075233SAO  +000899999V02011359001050045749N003200599+01835+01835102445ADDAA101000095GA1999+004574064GD19085+9999999GD29999+9999999GD39999+9999999GF108995999999999999999999MA1999999102345MW1045MW2445EQDN01 07280JPWTH 1QNNE11 1 09910E11 1 09999E11 1 09999G11 1 00015H11 1 15015K11 1 00065L11 1 00200M11 1 30220N11 1 07280Q11 1 10244S11 1 00065V11 1 01099W11 1 34002
006172207003822194807252200D+32017-081133SAO  +0016SAV  V0201401N005112200019N0240001N9+03021+02351101351ADDAA101000095GF102991999999999999999999MA1999999101191MW1001
0377999999240191948121600005+42750-105367SAO  +148799999V02024859009852200059N064000599-00565-01225101665ADDGA1999+048774034GA2999+999999999GA3999+999999999GA4999+999999999GD19005+9999999GD29005+9999999GD39005+9999999GD49005+9999999GF100995999999999999999999MA1999999084525EQDN01 00000JPWTH 1QNNE11 1 09900E11 1 09900E11 1 09900E11 1 09900G11U1 99999H11 1 23160H11 1 00999H11 1 00999H11 1 00999K11 1 00010L11 1 04000M11 1 24960N11 1 00000Q11 1 10166S11 1 00022V11 1 00099W11 1 76019
017699999924015194812102300E+40117-103167SAO  +139899999V02033859005752200059N019200599+00565-00615100445ADDAA101000095GF100995999999999999999999MA1999999084665EQDN01 00000JPWTH 1QNNG11U1 99999K11 1 00021L11 1 01200M11 1 25000N11 1 00000Q11 1 10044S11 1 00042V11 1 00099W11 1 18011
0051283190999991948032609004+57083+054750FM-12+013099999V0209991C00001220001CN0200001N9-00111+99999101221ADDAY171999GF102991021011008001001001MD1310041+9999
017699999924133194810150400E+42533-113767SAO  +1267BYI  V02027059001550152449N024000599+01225+00835101055ADDAA101001595GF108995999999999999999999MA1999999086965EQDN01 00000JPWTH 1QNNG11 1 00050K11 1 00047L11 1 01500M11 1 25680N11 1 00000Q11 1 10105S11 1 00054V11 1 01099W11 1 77003
0088389270999991948041700004+37233+067267FM-12+030299999V0209991C00001220001CN0200001N9+01501+99999101251ADDAY111999GF102991999001999999031001EQDQ01+000002SCOTLCQ02+000032APCTENQ03+000002APC3  
0088722266138501948013020004+32350-086983SAO  +0054SEM  V0203151N001010030019N0064001N1+00851+00851101561ADDGA1061+003009059GA2081+003609079GF108991999999999999999999MA1999999100951MW1051MW2611
0165999999149311948121113005+40783-091117SAO  +021399999V02018059005752200059N016000599-00175-00615101255ADDGF102995999999999999999999MA1999999098615EQDN01 00000JPWTH 1QNNG11U1 99999K11 1 00021L11 1 01000M11 1 29120N11 1 00000Q11 1 10125S11 1 00029V11 1 00299W11 1 55011
0066722235138381948041304004+30633-088067SAO  +0008BFM  V0201581N008710027019N0112001N1+02411+02241101731ADDGA1051+002709059GF107991999999999999999999MA1999999101631MW1001
0171727846241601948072510003+46100-118283SAO  +0368ALW  V02009059002152200059N0480005N1+01335+00445101595ADDGF100995999999999999999999MA1999999097295MW1001EQDN01 00000JPWTH 1QNNG11U1 99999K11 1 00040L11 1 03000M11 1 28730N11 1 00000Q11 1 10159S11 1 00056V11 1 00099W11 1 33004
017699999923225194807211700E+39283-120700SAO  +1609BLU  V02020359003152200059N032000599+02285+00785100885ADDAA101000095GF100995999999999999999999MA1999999083855EQDN01 00000JPWTH 1QNNG11U1 99999K11 1 00046L11 1 02000M11 1 24760N11 1 00000Q11 1 10088S11 1 00073V11 1 00099W11 1 56006
039499999924153194811170000E+46917-114083SAO  +097799999V02031559002150106749N019200599+00115+00065100915ADDAA101000095GA1999+999999074GA2999+010674064GA3999+999999999GA4999+999999999GD19005+9999999GD29055+9999999GD39005+9999999GD49005+9999999GF105995999999999999999999MA1999999089545MW1805EQDN01 02300JPWTH 1QNNE11 1 09900E11 1 09906E11 1 09900E11 1 09900G11 1 00035H11 1 16999H11 1 15035H11 1 00999H11 1 00999K11 1 00033L11 1 01200M11 1 26440N11 1 02300Q11 1 10091S11 1 00034V11 1 00699W11 1 88004
0082788071999991948092903004+08967-079550SAO  +0012MBLB V0201131N001510300019N0128001N1+02571+02411101051ADDGA1041+006009059GA2041+030009049GF108991999999999999999999MA1999999100981MW1611
0082478030999991948062413004+33883+130650SAO  +0033RJFA V0203381N001010540019N0064001N1+02351+02131101051ADDGA1021+013509059GA2081+054009049GF108991999999999999999999MA1999999100751MW1051
0066749142999991948031715004+67100-062350SAO  +004099999V0202931N005710210019N0240001N1-03031-03591098921ADDGA1081+021009049GF108991999999999999999999MA1999999098371MW1001
0171727846241601948030100003+46100-118283SAO  +0368ALW  V02024859003152200059N0560005N1+00895-00175101935ADDGF106995999999999999999999MA1999999097495MW1001EQDN01 00000JPWTH 1QNNG11U1 99999K11 1 00029L11 1 03500M11 1 28790N11 1 00000Q11 1 10193S11 1 00048V11 1 00899W11 1 76006
0340999999116181948021105005+18467-066117SAO  +001399999V02006859005250076249N016000599+02445+02225102195ADDGA1999+007624084GA2999+999999999GA3999+999999999GA4999+999999999GD19065+9999999GD29005+9999999GD39005+9999999GD49005+9999999MA1999999102075EQDN01 00000JPWTH 1QNNE11 1 09907E11 1 09900E11 1 09900E11 1 09900G11 1 00025H11 1 11025H11 1 00999H11 1 00999H11 1 00999K11 1 00072L11 1 01000M11 1 30140N11 1 00000Q11 1 10219S11 1 00076W11 1 32010
0377999999264451948112519005+60083-142500SAO  +0010CYT  V02033859007250097549N024000599-01225-01395099295ADDGA1999+999999074GA2999+009754064GA3999+027434034GA4999+999999999GD19005+9999999GD29055+9999999GD39065+9999999GD49005+9999999GF106995999999999999999999MA1999999099225EQDN01 00000JPWTH 1QNNE11 1 09900E11 1 09906E11 1 09907E11 1 09900G11 1 00032H11 1 16999H11 1 15032H11 1 23090H11 1 00999K11 1 00007L11 1 01500M11 1 29300N11 1 00000Q11 1 09929S11 1 00010V11 1 00799W11 1 18014
0177702735264091948101917003+61217-149833SAO  +0041MRI  V02002359002150039649N0032005N1+00005+00005100205ADDGF108995999999999999999999MA1999999099735MW1455MW2715EQDN01 04070JPWTH 1QNNG11 1 00013K11 1 00032L11 1 00200M11 1 29450N11 1 04070Q11 1 10020S11 1 00032V11 1 01099W11 1 12004
0082719060999991948102318004+58083-068417SAO  +0034CYVP V0202251N008210180019N0480001N1+00241-00151101221ADDGA1031+009009059GA2071+018009039GF107991999999999999999999MA1999999100811MW1001
0165999999230681948053104005+38233-104633SAO  +146599999V02011359002152200059N032000599+01785+01395101595ADDGF106995999999999999999999MA1999999085615EQDN01 00000JPWTH 1QNNG11U1 99999K11 1 00057L11 1 02000M11 1 25280N11 1 00000Q11 1 10159S11 1 00064V11 1 00799W11 1 34004
0171727846241601948060100003+46100-118283SAO  +0368ALW  V02029359001050243849N0640005N1+02335+01395101295ADDGF106995999999999999999999MA1999999096995MW1001EQDN01 00000JPWTH 1QNNG11 1 00080K11 1 00057L11 1 04000M11 1 28640N11 1 00000Q11 1 10129S11 1 00074V11 1 00899W11 1 78002
0165999999240301948072805005+41133-103033SAO  +126299999V02018059004652200059N032000599+02065+01505100585ADDGF100995999999999999999999MA1999999086935EQDN01 00000JPWTH 1QNNG11U1 99999K11 1 00059L11 1 02000M11 1 25670N11 1 00000Q11 1 10058S11 1 00069V11 1 00099W11 1 55009
0165724660930371948082113003+38817-104700SAO  +2804COS  V02013559002652200059N0480005N9+01565+01175101595ADDGF108995999999999999999999MA1999999081545EQDN01 00000JPWTH 1QNNG11U1 99999K11 1 00053L11 1 03000M11 1 24080N11 1 00000Q11 1 10159S11 1 00060V11 1 01099W11 1 44005
017699999923065194811010100E+39367-101700SAO  +111599999V02009059004152200059N024000599+00895-00065101425ADDAA101000095GF102995999999999999999999MA1999999088665EQDN01 00000JPWTH 1QNNG11U1 99999K11 1 00031L11 1 01500M11 1 26180N11 1 00000Q11 1 10142S11 1 00048V11 1 00399W11 1 33008
006172251012924194803271600D+27767-097500SAO  +0013CRP  V0200451N008712200019N0160001N1+01691+00581101901ADDAA101000095GF108991999999999999999999MA1999999101731MW1001
0340999999931041948051305005+35683-117683SAO  +068199999V02022559007252200049N048000599+02784+00065101194ADDGA1999+999999999GA2999+999999999GA3999+999999999GA4999+999999999GD19005+9999999GD29005+9999999GD39005+9999999GD49005+9999999MA1999999093534EQDN01 00000JPWTH 1QNNE11 1 09900E11 1 09900E11 1 09900E11 1 09900G11U1 99999H11 1 00999H11 1 00999H11 1 00999H11 1 00999K11 1 00033L11 1 03000M11 1 27620N11 1 00000Q11 1 10119S11 1 00082W11 1 66014
0050749165999991948011122004+31833-107650SAO  +1223CUS  V0201351N001012200019N0640001N1+02181+00521101251ADDGF107991999999999999999999MA1999999087671MW1001
0050042700999991948103016004+61183-045417SAO  +0026BGBW V0200451N001012200019N0480001N1-00701-01371099391ADDGF100991999999999999999999MA1999999099021MW1001
0165999999241261948042115005+41200-112017SAO  +135499999V02015859006752200059N096000599+01615+00115101055ADDGF107995999999999999999999MA1999999086155EQDN01 00000JPWTH 1QNNG11U1 99999K11 1 00034L11 1 06000M11 1 25440N11 1 00000Q11 1 10105S11 1 00061V11 1 00999W11 1 54013
0070784570999991948040600004+19783-070667FM-12+001699999V0209991C000019999999N0100001N9+02281+99999101631ADDAY111999GF106991061031008001001001KA1999M+02781MD1310141+9999MW1021
0302999999265131948121812005+66900-157033SAO  +0042SHG  V02006859005750036649N002400599-00945-01115098785ADDGA1999+003664104GD19085+9999999GD29999+9999999GD39999+9999999GD49999+9999999GF108995999999999999999999MA1999999098245MW1715EQDN01 04000JPWTH 1QNNE11 1 09910E11 1 09999E11 1 09999E11 1 09999G11 1 00012H11 1 98012K11 1 00012L11 1 00150M11 1 29010N11 1 04000Q11 1 09878S11 1 00015V11 1 01099W11 1 32011
0276999999137531948112011005+39450-074583SAO  +002099999V02020359011350036649N008000599+01785+01785100565ADDGA1999+003664064GD19085+9999999GD29999+9999999GD39999+9999999GF108995999999999999999999MA1999999100345MW1805EQDN01 02300JPWTH 1QNNE11 1 09910E11 1 09999E11 1 09999G11 1 00012H11 1 15012K11 1 00064L11 1 00500M11 1 29630N11 1 02300Q11 1 10056S11 1 00064V11 1 01099W11 1 56022
017699999913894194807091600E+30683-088233SAO  +006699999V02031559008850067149N024000599+02785+02225101495ADDAA101000095GF107995999999999999999999MA1999999100715EQDN01 00000JPWTH 1QNNG11 1 00022K11 1 00072L11 1 01500M11 1 29740N11 1 00000Q11 1 10149S11 1 00082V11 1 00999W11 1 88017
0383702735264091948111109003+61217-149833SAO  +0041MRI  V02013559001552200059N0160005N1+00175+00065100145ADDGA1021+042674034GA2999+999999999GA3999+999999999GA4999+999999999GD19025+9999999GD29005+9999999GD39005+9999999GD49005+9999999GF102995999999999999999999MA1999999099665MW1001EQDN01 00000JPWTH 1QNNE11 1 09902E11 1 09900E11 1 09900E11 1 09900G11U1 99999H11 1 23140H11 1 00999H11 1 00999H11 1 00999K11 1 00033L11 1 01000M11 1 29430N11 1 00000Q11 1 10014S11 1 00035V11 1 00299W11 1 44003
0270999999938071948102406005+36133-080233SAO  +030399999V02006859006250152449N019200599+01004+00785102204ADDGA1999+015244064GD19085+9999999GD29999+9999999GD39999+9999999GF108995999999999999999999MA1999999098654EQDN01 00000JPWTH 1QNNE11 1 09910E11 1 09999E11 1 09999G11 1 00050H11 1 15050K11 1 00046L11 1 01200M11 1 29130N11 1 00000Q11 1 10220S11 1 00050V11 1 01099W11 1 32012
0165999999149401948011408005+43150-093333SAO  +036999999V02031559008252200059N024000599-02115-02225103255ADDGF100995999999999999999999MA1999999098655EQDN01 00000JPWTH 1QNNG11U1 99999K11 1-00008L11 1 01500M11 1 29130N11 1 00000Q11 1 10325S11 1-00006V11 1 00099W11 1 88016
0082724070937301948072115004+39450-074583SAO  +0024ACY  V0202301N002612200019N0112001N9+02961+02071100911ADDGA1041+010509089GA2041+075009009GF107991999999999999999999MA1999999100681MW1001
0165999999231581948120407005+33617-114717SAO  +0119BLH  V02027059015552200059N032000599+01445+00395100915ADDGF100995999999999999999999MA1999999099535EQDN01 00000JPWTH 1QNNG11U1 99999K11 1 00039L11 1 02000M11 1 29390N11 1 00000Q11 1 10091S11 1 00058V11 1 00099W11 1 77030
0098788610999991948070120004+17117-061783SAO  +0010TAPA V0200901N005112200019N0240001N1+03021+02301101521ADDGA1011+006009089GA2011+045009039GA3041+075009019GF107991999999999999999999MA1999999101391MW1001
0383722310129161948100403003+29983-090250SAO  +0001MSY  V02036059006752200059N0160005N1+02335+01725101835ADDGA1999+999999999GA2999+999999999GA3999+999999999GA4999+999999999GD19005+9999999GD29005+9999999GD39005+9999999GD49005+9999999GF100995999999999999999999MA1999999101735MW1001EQDN01 00000JPWTH 1QNNE11 1 09900E11 1 09900E11 1 09900E11 1 09900G11U1 99999H11 1 00999H11 1 00999H11 1 00999H11 1 00999K11 1 00063L11 1 01000M11 1 30040N11 1 00000Q11 1 10183S11 1 00074V11 1 00099W11 1 11013
0165999999232301948040700005+37733-122200SAO  +000599999V02027059006752200059N048000599+01285+00285102345ADDGF102995999999999999999999MA1999999102305EQDN01 00000JPWTH 1QNNG11U1 99999K11 1 00037L11 1 03000M11 1 30210N11 1 00000Q11 1 10234S11 1 00055V11 1 00399W11 1 77013
017699999913874194806200000E+33650-084417SAO  +030699999V02024859005252200059N024000599+02335+02065101565ADDAA101000095GF108995999999999999999999MA1999999098175EQDN01 00000JPWTH 1QNNG11U1 99999K11 1 00069L11 1 01500M11 1 28990N11 1 00000Q11 1 10156S11 1 00074V11 1 01099W11 1 76010
0177999999938011948012115005+34350-085167SAO  +0195RMG  V02002359001550009149N003200599+00394+00335101394ADDGF108995999999999999999999MA1999999099024MW1455MW2615EQDN01 02070JPWTH 1QNNG11 1 00003K11 1 00038L11 1 00200M11 1 29240N11 1 02070Q11 1 10139S11 1 00039V11 1 01099W11 1 12003
0165999999938011948101216005+34350-085167SAO  +0195RMG  V02033859001552200059N024000599+01944+00785101934ADDGF100995999999999999999999MA1999999099634EQDN01 00000JPWTH 1QNNG11U1 99999K11 1 00046L11 1 01500M11 1 29420N11 1 00000Q11 1 10193S11 1 00067V11 1 00099W11 1 18003
0066471100999991948060318004+37550+126800SAO  +0020RKSS V0201581N003112200019N0128001N1+01571+01461100591ADDGA1031+006009059GF102991999999999999999999MA1999999100371MW1001
0165999999149331948042809005+41533-093650SAO  +0286DSM  V02033859006752200059N024000599+01065+00395102375ADDGF100995999999999999999999MA1999999098855EQDN01 00000JPWTH 1QNNG11U1 99999K11 1 00039L11 1 01500M11 1 29190N11 1 00000Q11 1 10237S11 1 00051V11 1 00099W11 1 18013
0340999999931111948041317005+34117-119117SAO  +000599999V02015859004652200049N040000599+01564+01005102194ADDGA1999+045724044GA2999+999999999GA3999+999999999GA4999+999999999GD19065+9999999GD29005+9999999GD39005+9999999GD49005+9999999MA1999999102134EQDN01 00000JPWTH 1QNNE11 1 09908E11 1 09900E11 1 09900E11 1 09900G11U1 99999H11 1 21150H11 1 00999H11 1 00999H11 1 00999K11 1 00050L11 1 02500M11 1 30160N11 1 00000Q11 1 10219S11 1 00060W11 1 54009
017699999914840194809222200E+43167-086233SAO  +019399999V02002359001552200059N024000599+01835+00505101355ADDAA101000095GF100995999999999999999999MA1999999099055EQDN01 00000JPWTH 1QNNG11U1 99999K11 1 00041L11 1 01500M11 1 29250N11 1 00000Q11 1 10135S11 1 00065V11 1 00099W11 1 12003
038899999993825194810012100E+37100-089917SAO  +010999999V02006859001552200059N014400599+02564+01335101804ADDAA101000095GA1999+012194084GA2999+033534034GA3999+999999999GA4999+999999999GD19025+9999999GD29025+9999999GD39005+9999999GD49005+9999999GF105995999999999999999999MA1999999100514EQDN01 00000JPWTH 1QNNE11 1 09903E11 1 09903E11 1 09900E11 1 09900G11U1 99999H11 1 11040H11 1 23110H11 1 00999H11 1 00999K11 1 00056L11 1 00900M11 1 29680N11 1 00000Q11 1 10180S11 1 00078V11 1 00699W11 1 32003
0050700260275021948012901004+71300-156783SAO  +0004BRW  V0202251N005112200019N0320001N1-03371-03861101591ADDGF102991999999999999999999MA1999999101521MW1001
0082911700225081948111620004+21483-158033SAO  +0257PHHI V0200701N005110360019N0192001N9+02021+01911101861ADDGA1041+006009089GA2081+036009039GF108991999999999999999999MA1999999098881MW1801
0050474250999991948041214004+42800+141650SAO  +0027RJCC V0201801N002612200019N0320001N1+00241-00041102401ADDGF100991999999999999999999MA1999999102001MW1001
0082747880128101948091401004+27850-082500SAO  +0003KMCF V0200501N004110360019N0160001N9+02831+02331101491ADDGA1021+009009059GA2061+036009039GF108991999999999999999999MA1999999101461MW1611
018272446113988194810092200C+39117-094583SAO  +0231MKC  V02004559004652200059N0240005N1+01835+00445101355ADDAA101000095GF102995999999999999999999MA1999999098615MW1001EQDN01 00000JPWTH 1QNNG11U1 99999K11 1 00040L11 1 01500M11 1 29120N11 1 00000Q11 1 10135S11 1 00065V11 1 00299W11 1 22009
0051727755241121948101714004+47517-111183SAO  +1054GFA  V0201801N008212200019N0960001N9+00391-00831102551ADDGA1021+060009009GF102991999999999999999999MW1001
0066722487139351948032712004+31400-092300SAO  +0034ESF  V0202701N002112200019N0192001N1+01131+00461101251ADDGA1031+060009009GF102991999999999999999999MA1999999100951MW1001
0383702610264111948082912003+64833-147717SAO  +0135FAI  V02018059001550091449N0096005N1+00505+00445100715ADDGA1999+002444074GA2081+009144054GA3081+076204024GA4999+999999999GD19005+9999999GD29085+9999999GD39085+9999999GD49005+9999999GF108085999999999999999999MA1999999099025MW1615EQDN01 02000JPWTH 1QNNE11 1 09900E11 1 09910E11 1 09910E11 1 09900G11 1 00030H11 1 16008H11 1 22030H11 1 37250H11 1 00999K11 1 00040L11 1 00600M11 1 29240N11 1 02000Q11 1 10071S11 1 00041V11 1 01010W11 1 55003
034699999913881194812080600E+35217-080933SAO  +023499999V02022559003650006149N004800599+01005+00895101055ADDAA101000095GA1999+000614074GA2999+003054064GD19055+9999999GD29035+9999999GD39999+9999999GD49999+9999999GF108995999999999999999999MA1999999098275MW1455MW2515EQDN01 03370JPWTH 1QNNE11 1 09906E11 1 09904E11 1 09999E11 1 09999G11 1 00002H11 1 16002H11 1 15010K11 1 00048L11 1 00300M11 1 29020N11 1 03370Q11 1 10105S11 1 00050V11 1 01099W11 1 66007
0066042310999991948060414004+67000-050800SAO  +0050BGSF V0200451N005112200019N0640001N1+01411+00081101051ADDGA1021+045009029GF102991999999999999999999MA1999999100341MW1001
0050702031266201948011314004+64200-162050SAO  +0005MOS  V0200231N004110081019N0160001N1-01261-01701100911ADDGF108991999999999999999999MA1999999100851MW1001
0165999999231841948041409005+34650-112433SAO  +153099999V02020359002652200059N024000599+00285-00895102345ADDGF100995999999999999999999MA1999999085405EQDN01 00000JPWTH 1QNNG11U1 99999K11 1 00016L11 1 01500M11 1 25220N11 1 00000Q11 1 10234S11 1 00037V11 1 00099W11 1 56005
028799999923236194809190900E+34933-120417SAO  +007199999V02031559003150015249N006400599+01505+01395101735ADDAA101000095GA1999+001524074GD19085+9999999GD29999+9999999GD39999+9999999GF108995999999999999999999MA1999999100855MW1455EQDN01 07000JPWTH 1QNNE11 1 09910E11 1 09999E11 1 09999G11 1 00005H11 1 16005K11 1 00057L11 1 00400M11 1 29780N11 1 07000Q11 1 10173S11 1 00059V11 1 01099W11 1 88006
0051282140999991948052312004+58133+052667FM-12+014799999V0201801N00261007801CN0100001N9+01781+99999100741ADDAY121999GF108991081051008001999999MD1810141+9999
0044620111999991948042720004+32900+013283SAO  +0003HTIP V0200901N006712200019N0160001N9+01571+01301102441ADDGF100991999999999999999999MA1999999102401
0082913660406041948102812004+08733+167733SAO  +0008PKWA V0200231N001512200019N0192001N1+02741+02411100911ADDGA1021+006009089GA2021+036009039GF102991999999999999999999MA1999999100711MW1001
007772406093721194812181200D+39250-076667SAO  +0047BWI  V0202931N006212200019N0080001N1+00131-00531102441ADDAA101000095GA1061+036009039GF107991999999999999999999MA1999999102371MW1041
0051219310999991948022803004+70750+136217FM-12+002299999V0201801N00261220001CN0500001N9-02611+99999102181ADDAY101999GF100991001001999999001001MD1710041+9999
034699999914944194809201800E+43567-096733SAO  +043499999V02011359003650036649N004000599+02065+01835101225ADDAA101000095GA1999+003664074GA2999+006104064GD19065+9999999GD29085+9999999GD39999+9999999GD49999+9999999GF108995999999999999999999MA1999999096175MW1455MW2515EQDN01 03370JPWTH 1QNNE11 1 09908E11 1 09910E11 1 09999E11 1 09999G11 1 00012H11 1 16012H11 1 15020K11 1 00065L11 1 00250M11 1 28400N11 1 03370Q11 1 10122S11 1 00069V11 1 01099W11 1 34007
0060723810231141948050914004+34900-117883SAO  +0693EDW  V0202301N002112200019N0560001N9+00781+00221101081ADDGA1001+999999999GF100991999999999999999999MA1999999093091
0066727570999991948110518004+48117-098867SAO  +0450P11  V0203381N005710012019N0240001N1+00411+00301100851ADDGA1081+001209059GF108991999999999999999999MA1999999095431MW1001
017699999923194194807172300E+35017-110733SAO  +148999999V02024859005752200059N096000599+03225+00505100855ADDAA101000095GF108995999999999999999999MA1999999085075EQDN01 00000JPWTH 1QNNG11U1 99999K11 1 00041L11 1 06000M11 1 25120N11 1 00000Q11 1 10085S11 1 00090V11 1 01099W11 1 76011
0050722487139351948022917004+31400-092300SAO  +0034ESF  V0200681N002112200019N0240001N1+02241+01411101931ADDGF108991999999999999999999MA1999999101631MW1001
0043946930999991948022618004-34233+142083FM-12+005499999V0201801N006719999999N0500001N9+01671+00941999999ADDAY101999GF100991001001999999999999MW1001
0029719240999991948022712004+74683-094917FM-12+001799999V0202301N004119999999N0200001N9-04111-04331101761ADDGF100991001001999999001001
0165999999241451948010115005+43517-112067SAO  +144699999V02002359002152200059N048000599-01445-01445102915ADDGF106995999999999999999999MA1999999085685EQDN01 00000JPWTH 1QNNG11U1 99999K11 1 00006L11 1 03000M11 1 25300N11 1 00000Q11 1 10291S11 1 00006V11 1 00899W11 1 12004
0050467430999991948111411004+23000+120217SAO  +0000RCNN V0203601N002112200019N0040001N1+01961+01631102031ADDGF100991999999999999999999MA1999999101761MW1001
0160701740265331948121805003+66917-151517SAO  +0196BTT  V02033859002150030549N0032005N1-01175-01445999999ADDGF108995999999999999999999MA1999999096115MW1715EQDN01 04000JPWTH 1QNNG11 1 00010K11 1 00006L11 1 00200M11 1 28380N11 1 04000S11 1 00011V11 1 01099W11 1 18004
0098780160136011948092721004+32367-064683SAO  +0006TXKF V0201801N003110300019N0240001N9+02681+02461101961ADDGA1021+006009089GA2021+030009039GA3011+066009009GF107991999999999999999999MA1999999101901MW1001
0057341220999991948012812004+51700+039167FM-12+016499999V0201801N00261002401CN0040001N9-00721+99999103261ADDAY141999GF108991081051002501999999MD1990041+9999MW1051
0171999999149411948032618005+41983-097433SAO  +0471OFK  V02033859016050018349N006400599-00115-00335100145ADDGF108995999999999999999999MA1999999094515MW1565EQDN01 03600JPWTH 1QNNG11 1 00006K11 1 00026L11 1 00400M11 1 27910N11 1 03600Q11 1 10014S11 1 00030V11 1 01099W11 1 18031
0082704545999991948012021004+51383+179267SAO  +0069AHT  V0203151N005110075019N0160001N1-00311-00811100851ADDGA1051+007509059GA2061+012009059GF107991999999999999999999MA1999999100031MW1001
006172341813977194805240400D+33450-094000SAO  +0112TXK  V0201351N002112200019N0240001N1+02461+02071101021ADDAA101000095GF102991999999999999999999MA1999999099731MW1001
0098780160136011948081622004+32367-064683SAO  +0006TXKF V0201801N005110300019N0112001N9+02681+02411101591ADDGA1011+006009059GA2051+030009049GA3011+066009029GF107991999999999999999999MA1999999101521MW1001
0377999999241371948011612005+48600-112367SAO  +117099999V02013559001552200059N024000599-01445-01445103395ADDGA1999+999999999GA2999+999999999GA3999+999999999GA4999+999999999GD19005+9999999GD29005+9999999GD39005+9999999GD49005+9999999GF100995999999999999999999MA1999999089235EQDN01 00000JPWTH 1QNNE11 1 09900E11 1 09900E11 1 09900E11 1 09900G11U1 99999H11 1 00999H11 1 00999H11 1 00999H11 1 00999K11 1 00006L11 1 01500M11 1 26350N11 1 00000Q11 1 10339S11 1 00006V11 1 00099W11 1 44003
006172344013964194806240800D+35333-094367SAO  +0141FSM  V0200231N001010210019N0192001N1+02021+01961101421ADDAA101000095GF108991999999999999999999MA1999999099831MW1001
007772531014806194809050900D+40300-088133SAO  +0228RAN  V0200681N002612200019N0112001N1+02021+01631101491ADDAA101000095GA1021+075009009GF102991999999999999999999MA1999999098851MW1001
0165999999242401948052502005+48383-124733SAO  +0035TTI  V02018059004152200059N016000599+01285+01115101355ADDGF107995999999999999999999MA1999999101055EQDN01 00000JPWTH 1QNNG11U1 99999K11 1 00052L11 1 01000M11 1 29840N11 1 00000Q11 1 10135S11 1 00055V11 1 00999W11 1 55008
018272446113988194811241700C+39117-094583SAO  +0231MKC  V02022559004650064049N0192005N1+00505+00005100855ADDAA101000095GF107995999999999999999999MA1999999098075MW1001EQDN01 00000JPWTH 1QNNG11 1 00021K11 1 00032L11 1 01200M11 1 28960N11 1 00000Q11 1 10085S11 1 00041V11 1 00999W11 1 66009
0171999999139051948102910005+30633-096467SAO  +008199999V02015859002150009149N004800599+01945+01835101635ADDGF108995999999999999999999MA1999999100685MW1455EQDN01 07000JPWTH 1QNNG11 1 00003K11 1 00065L11 1 00300M11 1 29730N11 1 07000Q11 1 10163S11 1 00067V11 1 01099W11 1 54004
0165999999231561948051714005+33933-116933SAO  +079099999V02033859003152200059N048000599+01895+00565101125ADDGF100995999999999999999999MA1999999092285EQDN01 00000JPWTH 1QNNG11U1 99999K11 1 00042L11 1 03000M11 1 27250N11 1 00000Q11 1 10112S11 1 00066V11 1 00099W11 1 18006
0165727345148471948031410005+99999+999999SAO  +999999999V02009059001550039649N016000599-01005-01115101635ADDGF108995999999999999999999MA1999999098855EQDN01 00000JPWTH 1QNNG11 1 00013K11 1 00012L11 1 01000M11 1 29190N11 1 00000Q11 1 10163S11 1 00014V11 1 01099W11 1 33003
0171999999232301948011518005+37733-122200SAO  +000599999V02020359001052200059N004000599+00945+00445102345ADDGF100995999999999999999999MA1999999102305MW1045EQDN01 08200JPWTH 1QNNG11U1 99999K11 1 00040L11 1 00250M11 1 30210N11 1 08200Q11 1 10234S11 1 00049V11 1 00099W11 1 56002
0070313920999991948012100004+52800+131717FM-12+035899999V0200501N00101220001CN0200001N9-03281+99999102211ADDAY121999GF107991001001999999001011IA1089KA1999N-03891MD1310141+9999
0383703500255011948092614003+57750-152500SAO  +0034ADQ  V02031559007252200059N0240005N1+00565-00335101195ADDGA1021+022864034GA2999+999999999GA3999+999999999GA4999+999999999GD19025+9999999GD29005+9999999GD39005+9999999GD49005+9999999GF102995999999999999999999MA1999999100785MW1001EQDN01 00000JPWTH 1QNNE11 1 09902E11 1 09900E11 1 09900E11 1 09900G11U1 99999H11 1 23075H11 1 00999H11 1 00999H11 1 00999K11 1 00026L11 1 01500M11 1 29760N11 1 00000Q11 1 10119S11 1 00042V11 1 00299W11 1 88014
0165999999147451948031111005+43200-071517SAO  +010899999V02031559003152200059N032000599-00565-01175102175ADDGF100995999999999999999999MA1999999100855EQDN01 00000JPWTH 1QNNG11U1 99999K11 1 00011L11 1 02000M11 1 29780N11 1 00000Q11 1 10217S11 1 00022V11 1 00099W11 1 88006
0066704540257041948031915004+51883-176650SAO  +0005PADK V0200201N008710075019N0080001N9-00091-00311101251ADDGA1081+007509059GF108991999999999999999999MA1999999101221MW1381
0171999999148171948122109005+44283-085417SAO  +039599999V02015859005750024449N004800599-00175-00335099425ADDGF108995999999999999999999MA1999999094655MW1715EQDN01 04000JPWTH 1QNNG11 1 00008K11 1 00026L11 1 00300M11 1 27950N11 1 04000Q11 1 09942S11 1 00029V11 1 01099W11 1 54011
038899999993822194811282100E+39833-089667SAO  +0179SPI  V02036059014450061049N016000599+00394-00115101694ADDAA101000095GA1999+006104064GA2999+036584034GA3999+999999999GA4999+999999999GD19065+9999999GD29055+9999999GD39005+9999999GD49005+9999999GF106995999999999999999999MA1999999099424EQDN01 00000JPWTH 1QNNE11 1 09907E11 1 09906E11 1 09900E11 1 09900G11 1 00020H11 1 15020H11 1 23120H11 1 00999H11 1 00999K11 1 00030L11 1 01000M11 1 29360N11 1 00000Q11 1 10169S11 1 00039V11 1 00899W11 1 11028
0340999999241621948081718005+44017-117017SAO  +0668ONO  V02011359003652200059N064000599+02785+00225999999ADDGA1999+999999999GA2999+999999999GA3999+999999999GA4999+999999999GD19005+9999999GD29005+9999999GD39005+9999999GD49005+9999999GF100995999999999999999999EQDN01 00000JPWTH 1QNNE11 1 09900E11 1 09900E11 1 09900E11 1 09900G11U1 99999H11 1 00999H11 1 00999H11 1 00999H11 1 00999K11 1 00036L11 1 04000N11 1 00000S11 1 00082V11 1 00099W11 1 34007
0117428550999991948043003004+21833+076367FM-12+031899999V0202701N00461220001CN0500001N9+03001+01611100561ADDAY111999GA1999+000159999GA2999+000159999GF101991001001999999001011KA1999N+02781EQDQ01    003SCCGA1Q02    003SCCGA2
034699999914836194811121700E+42783-084600SAO  +026699999V02022559004650121949N009600599+00895+00175101865ADDAA101000095GA1999+009144064GA2999+012194064GD19035+9999999GD29085+9999999GD39999+9999999GD49999+9999999GF108995999999999999999999MA1999999098615MW1045MW2615EQDN01 02080JPWTH 1QNNE11 1 09904E11 1 09910E11 1 09999E11 1 09999G11 1 00040H11 1 15030H11 1 15040K11 1 00035L11 1 00600M11 1 29120N11 1 02080Q11 1 10186S11 1 00048V11 1 01099W11 1 66009
009372503814714194807271800D+41500-074100SAO  +0150SWF  V0202481N005112200019N0128001N1+03071+02351101021ADDAA101000095GA1031+015009089GA2021+036009049GF102991999999999999999999MA1999999099321MW1001
017699999914822194809081600E+42400-083000SAO  +018999999V02004559001552200059N024000599+02225+01675101425ADDAA101000095GF104995999999999999999999MA1999999099195EQDN01 00000JPWTH 1QNNG11U1 99999K11 1 00062L11 1 01500M11 1 29290N11 1 00000Q11 1 10142S11 1 00072V11 1 00599W11 1 22003
0066042610999991948020414004+61217-048117SAO  +0029BGGD V0201351N004610075019N0048001N1-00311-00421098881ADDGA1081+007509079GF108991999999999999999999MA1999999098371MW1711
007772250012919194810070900D+25900-097433SAO  +0006BRO  V0201801N003112200019N0112001N1+02351+02241100641ADDAA101000095GA1031+090009009GF102991999999999999999999MA1999999100581MW1001
0352999999931111948012422005+34117-119117SAO  +000599999V02013559004150024449N002400599+01334+01065101054ADDGA1999+002444074GA2999+999999999GA3999+999999999GA4999+999999999GD19055+9999999GD29005+9999999GD39005+9999999GD49005+9999999MA1999999101024MW1055MW2455EQDN01 07081JPWTH 1QNNE11 1 09906E11 1 09900E11 1 09900E11 1 09900G11 1 00008H11 1 16008H11 1 00999H11 1 00999H11 1 00999K11 1 00051L11 1 00150M11 1 29830N11 1 07081Q11 1 10105S11 1 00056W11 1 44008
0043940270999991948041920004-06717+147000FM-12+000499999V0202901N001519999999N0100001N9+02331+02331999999ADDAY161999GF108991021999008001999999MW1631
0082474250999991948111500004+42800+141650SAO  +0027RJCC V0209991C000012200019N0320001N1+00191-00811102401ADDGA1011+009009059GA2021+024009039GF102991999999999999999999MA1999999101931MW1001
007772365023050194805221600D+35050-106600SAO  +1634ABQ  V0201101N001512200019N0960001N9+02411+00461100811ADDAA101000095GA1001+999999999GF100991999999999999999999MA1999999083751MW1001
0059943740999991948092420003-23383+150317FM-12+0010YBRK V0202301N002119999999N0190001N9+01171+00891999999ADDAY101999GA1045+015005999GF104991041999017501999999MW1001
018299999993808194809031300E+36967-086433SAO  +016499999V02099999000052200059N008000599+02114+01785101634ADDAA101000095GF105995999999999999999999MA1999999099734MW1045EQDN01 08200JPWTH 1QNNG11U1 99999K11 1 00064L11 1 00500M11 1 29450N11 1 08200Q11 1 10163S11 1 00070V11 1 00699W11 1 00000
0165999999939191948122214005+31250-090467SAO  +0140MCB  V02022559003152200059N011200599+01944+01895101734ADDGF108995999999999999999999MA1999999100074EQDN01 00000JPWTH 1QNNG11U1 99999K11 1 00066L11 1 00700M11 1 29550N11 1 00000Q11 1 10173S11 1 00067V11 1 01099W11 1 66006
0057784570999991948031815004+19783-070667FM-12+001699999V0200901N002619999999N0200001N9+02611+99999101801ADDAY111999GF104991041021008001001001MD1310141+9999MW1011
0323999999147881948051318005+41583-071417SAO  +000999999V02004559008250042749N012800599+01225+01005101955ADDGA1999+004274064GA2999+012194064GD19065+9999999GD29085+9999999GD39999+9999999GD49999+9999999GF108995999999999999999999MA1999999101865EQDN01 00000JPWTH 1QNNE11 1 09908E11 1 09910E11 1 09999E11 1 09999G11 1 00014H11 1 15014H11 1 15040K11 1 00050L11 1 00800M11 1 30080N11 1 00000Q11 1 10195S11 1 00054V11 1 01099W11 1 22016
0082745980137021948081516004+37083-076350SAO  +0003LFI  V0200201N006212200019N0128001N9+02661+01941101561ADDGA1021+009009089GA2011+036009039GF102991999999999999999999MA1999999101521MW1001
018272509014739194809131700C+42367-071033SAO  +0013BOS  V02024859004652200059N0112005N9+03115+01785101575ADDAA101000095GF101995999999999999999999MA1999999101465MW1001EQDN01 00000JPWTH 1QNNG11U1 99999K11 1 00064L11 1 00700M11 1 29960N11 1 00000Q11 1 10157S11 1 00088V11 1 00199W11 1 76009
0082477710999991948053117004+34783+135433SAO  +0015RJOO V0202251N002110330019N0096001N1+01741+01351100981ADDGA1031+010509049GA2051+033009049GF108991999999999999999999MA1999999100781MW1051
0377999999947891948111412005+40650-073783SAO  +0006JFK  V02029359007752200059N019200599+00444-00395102104ADDGA1999+009144084GA2999+064014024GA3999+999999999GA4999+999999999GD19005+9999999GD29055+9999999GD39005+9999999GD49005+9999999GF105995999999999999999999MA1999999102034EQDN01 00000JPWTH 1QNNE11 1 09900E11 1 09906E11 1 09900E11 1 09900G11U1 99999H11 1 11030H11 1 37210H11 1 00999H11 1 00999K11 1 00025L11 1 01200M11 1 30130N11 1 00000Q11 1 10210S11 1 00040V11 1 00699W11 1 78015
0085722866231221948010220004+34100-117250SAO  +0334SBD  V0202901N002112200019N0064001N9+01351+00241102131ADDGA1999+060009999GF100991999999999999999999MA1999999098141MW1051EQDQ01    003SCCGA1
0082788071999991948042820004+08967-079550SAO  +0012MBLB V0203381N003610105019N0160001N1+03131+02301100811ADDGA1051+010509059GA2031+045009049GF108991999999999999999999MA1999999100751MW1001
0165999999264141948091411005+63333-149133SAO  +073499999V02004559001552200059N104000599-00115-00395101595ADDGF101995999999999999999999MA1999999092855EQDN01 00000JPWTH 1QNNG11U1 99999K11 1 00025L11 1 06500M11 1 27420N11 1 00000Q11 1 10159S11 1 00030V11 1 00199W11 1 22003
0165999999242301948052718005+44267-121150SAO  +094099999V02099999000050228649N048000599+01945+00835100375ADDGF108995999999999999999999MA1999999089845EQDN01 00000JPWTH 1QNNG11 1 00075K11 1 00047L11 1 03000M11 1 26530N11 1 00000Q11 1 10037S11 1 00067V11 1 01099W11 1 00000
0050725959999991948022501004+41733-122533SAO  +08071O5  V0202031N001512200019N0480001N1+01071-00091102371ADDGF107991999999999999999999MA1999999093191MW1001
0086317860999991948031415004+47550+134650FM-12+008499999V0209991C00001220001CN9999999N9-01781+99999102671ADDAY101999GF100991001001999999001001MD1710081+9999EQDQ01+000022APCTENQ02+000002APC3  
018272266013962194807021400C+32433-099683SAO  +0535ABI  V02020359003150289649N0480005N1+02225+02005101965ADDAA101000095GF108995999999999999999999MA1999999095945MW1001EQDN01 00000JPWTH 1QNNG11 1 00095K11 1 00068L11 1 03000M11 1 28330N11 1 00000Q11 1 10196S11 1 00072V11 1 01099W11 1 56006
017699999913881194811220100E+35217-080933SAO  +023499999V02011359001552200059N016000599+01395+00675102005ADDAA101000095GF108995999999999999999999MA1999999099195EQDN01 00000JPWTH 1QNNG11U1 99999K11 1 00044L11 1 01000M11 1 29290N11 1 00000Q11 1 10200S11 1 00057V11 1 01099W11 1 34003
0117425710999991948032403004+24567+080833FM-12+031799999V0209991C00001220001CN0200001N9+02001+00781101391ADDAY111999GA1999+000159999GA2999+000159999GF102991001001999999001051KA1999N+01671EQDQ01    003SCCGA1Q02    003SCCGA2
018299999913896194812311300E+34750-087617SAO  +017199999V02033859002652200059N006400599-00505-00675102715ADDAA101000095GF100995999999999999999999MA1999999100585MW1045EQDN01 08000JPWTH 1QNNG11U1 99999K11 1 00020L11 1 00400M11 1 29700N11 1 08000Q11 1 10271S11 1 00023V11 1 00099W11 1 18005
0117429250999991948101303004+20550+074533FM-12+043799999V0209991C00001220001CN0200001N9+02611+02001100991ADDAY111999GA1999+000159999GA2999+000159999GF101991011051022501001001KA1999N+02171EQDQ01    003SCCGA1Q02    003SCCGA2
0082722435999991948080509004+29650-095283SAO  +0019HOU  V0202251N001510135019N0064001N1+02571+02351101391ADDGA1061+013501051GA2061+090001001GF107991999999999999999999MA1999999101191MW1041
009372266013962194806192100D+32433-099683SAO  +0534ABI  V0201351N007212200019N0480001N1+03681+01301101081ADDAA101000095GA1031+018009089GA2999+090009999GF102991999999999999999999MA1999999095191MW1001
017699999913985194812021100E+37767-099967SAO  +0791DDC  V02033859008252200059N032000599-00445-00565101735ADDAA101000095GF100995999999999999999999MA1999999092385EQDN01 00000JPWTH 1QNNG11U1 99999K11 1 00022L11 1 02000M11 1 27280N11 1 00000Q11 1 10173S11 1 00024V11 1 00099W11 1 18016
017699999924156194809290200E+42917-112533SAO  +136299999V02011359002152200059N096000599+01395+00445101865ADDAA101000095GF102995999999999999999999MA1999999086495EQDN01 00000JPWTH 1QNNG11U1 99999K11 1 00040L11 1 06000M11 1 25540N11 1 00000Q11 1 10186S11 1 00057V11 1 00299W11 1 34004
0377999999147891948051121005+42267-071033SAO  +000599999V02006859003152200059N016000599+01225+00895102135ADDGA1999+045724024GA2999+999999999GA3999+999999999GA4999+999999999GD19045+9999999GD29005+9999999GD39005+9999999GD49005+9999999GF104995999999999999999999MA1999999102105EQDN01 00000JPWTH 1QNNE11 1 09905E11 1 09900E11 1 09900E11 1 09900G11U1 99999H11 1 37150H11 1 00999H11 1 00999H11 1 00999K11 1 00048L11 1 01000M11 1 30150N11 1 00000Q11 1 10213S11 1 00054V11 1 00599W11 1 32006
0050703330999991948100316004+56950-158617SAO  +0029PTH  V0202481N011810120019N0240001N1+00411+00021098711ADDGF107991999999999999999999MA1999999098371MW1001
0078209630999991948050506004+70933+078417FM-12+999999999V0203401N01901012301CN0005001N9-01001+99999102461ADDAY121999GF199999061061012501001001MW1391EQDQ01+000042APCTENQ02+000222APC3  
0377999999242151948080318005+41317-122317SAO  +1078MHS  V02015859003152200059N024000599+02835+00785101195ADDGA1999+999999999GA2999+999999999GA3999+999999999GA4999+999999999GD19005+9999999GD29005+9999999GD39005+9999999GD49005+9999999GF100995999999999999999999MA1999999089105EQDN01 00000JPWTH 1QNNE11 1 09900E11 1 09900E11 1 09900E11 1 09900G11U1 99999H11 1 00999H11 1 00999H11 1 00999H11 1 00999K11 1 00046L11 1 01500M11 1 26310N11 1 00000Q11 1 10119S11 1 00083V11 1 00099W11 1 54006
007772253612911194806041400D+29533-098283SAO  +0226RND  V0201801N003112200019N0240001N9+02411+01911101461ADDAA101000095GA1001+999999999GF100991999999999999999999MA1999999098751MW1001
0043484560999991948091109004+13917+100600FM-12+000399999V0201801N002619999999N0100001N9+02941+02501100641ADDAY101999GF107991999999999999999999MW1001
0128999999240151948040202005+40117-103167SAO  +139899999V02006859002652200049N024000599+00445-00175101665ADDMA1999999085745EQDN01 00000JPWTH 1QNNG11U1 99999K11 1 00029L11 1 01500M11 1 25320N11 1 00000Q11 1 10166S11 1 00040W11 1 32005
0177999999138741948052611005+33650-084417SAO  +030699999V02036059001550018349N004800599+01785+01675101085ADDGF108995999999999999999999MA1999999097735MW1045MW2455EQDN01 07080JPWTH 1QNNG11 1 00006K11 1 00062L11 1 00300M11 1 28860N11 1 07080Q11 1 10108S11 1 00064V11 1 01099W11 1 11003
0070360610999991948020212004+52267+087167FM-12+032299999V0202301N00461220001CN0100001N9-01891+99999103222ADDAY111999GF104991001001999999001021MD1610041+9999EQDQ01+103223APOSLP
0066704851999991948122621004+53367-167900SAO  +0039UNS  V0203601N001010060019N0112001N1-00091-00311100071ADDGA1061+006009059GF107991999999999999999999MA1999999099561MW1001
0165999999931061948083107005+33800-118117SAO  +001799999V02099999000052200059N016000599+01784+01615101204ADDGF100995999999999999999999MA1999999101024EQDN01 00000JPWTH 1QNNG11U1 99999K11 1 00061L11 1 01000M11 1 29830N11 1 00000Q11 1 10120S11 1 00064V11 1 00099W11 1 00000
038899999913997194810051200E+38133-091767SAO  +0350VIH  V02020359005252200059N016000599+00565+00285101525ADDAA101000095GA1999+021344084GA2999+042674034GA3999+088394004GA4999+999999999GD19005+9999999GD29015+9999999GD39015+9999999GD49005+9999999GF102995999999999999999999MA1999999097395EQDN01 00000JPWTH 1QNNE11 1 09900E11 1 09901E11 1 09901E11 1 09900G11U1 99999H11 1 11070H11 1 23140H11 1 32290H11 1 00999K11 1 00037L11 1 01000M11 1 28760N11 1 00000Q11 1 10152S11 1 00042V11 1 00299W11 1 56010
017699999913957194812071700E+32550-093767SAO  +005999999V02029359006252200059N019200599+01725+00895101195ADDAA101000095GF105995999999999999999999MA1999999100545EQDN01 00000JPWTH 1QNNG11U1 99999K11 1 00048L11 1 01200M11 1 29690N11 1 00000Q11 1 10119S11 1 00063V11 1 00699W11 1 78012
038899999914764194812151500E+43650-070317SAO  +002199999V02031559005252200059N024000599+00005-01175102715ADDAA101000095GA1999+067064004GA2999+999999999GA3999+999999999GA4999+999999999GD19025+9999999GD29005+9999999GD39005+9999999GD49005+9999999GF102995999999999999999999MA1999999102475EQDN01 00000JPWTH 1QNNE11 1 09902E11 1 09900E11 1 09900E11 1 09900G11U1 99999H11 1 32220H11 1 00999H11 1 00999H11 1 00999K11 1 00011L11 1 01500M11 1 30260N11 1 00000Q11 1 10271S11 1 00032V11 1 00299W11 1 88010
0165999999149311948111916005+40783-091117SAO  +021299999V02018059008250030549N016000599+01005+00615099295ADDGF106995999999999999999999MA1999999096785EQDN01 00000JPWTH 1QNNG11 1 00010K11 1 00043L11 1 01000M11 1 28580N11 1 00000Q11 1 09929S11 1 00050V11 1 00799W11 1 55016
0082476420999991948081508004+35733+139367SAO  +0140RJTY V0201401N002110300019N0160001N9+02781+02501100541ADDGA1041+006009089GA2071+030009039GF107991999999999999999999MA1999999099091MW1001
0377999999253291948071601005+56817-132950SAO  +003499999V02006859004152200059N048000599+02065+01225102275ADDGA1999+015244084GA2999+036584034GA3999+070104004GA4999+999999999GD19025+9999999GD29065+9999999GD39025+9999999GD49005+9999999GF106995999999999999999999MA1999999101865EQDN01 00000JPWTH 1QNNE11 1 09902E11 1 09907E11 1 09902E11 1 09900G11U1 99999H11 1 11050H11 1 23120H11 1 32230H11 1 00999K11 1 00054L11 1 03000M11 1 30080N11 1 00000Q11 1 10227S11 1 00069V11 1 00899W11 1 32008
0165999999232371948110223005+37900-121250SAO  +000899999V02020359002152200059N064000599+02335+01115101635ADDGF107995999999999999999999MA1999999101525EQDN01 00000JPWTH 1QNNG11U1 99999K11 1 00052L11 1 04000M11 1 29980N11 1 00000Q11 1 10163S11 1 00074V11 1 00999W11 1 56004
018272734514847194808211600E+99999+999999SAO  +999999999V02009059001550243849N012800599+02115+01675101805ADDAA101000095GF108995999999999999999999MA1999999099155MW1805EQDN01 02300JPWTH 1QNNG11 1 00080K11 1 00062L11 1 00800M11 1 29280N11 1 02300Q11 1 10180S11 1 00070V11 1 01099W11 1 33003
0066749538999991948121604004+48083+011267SAO  +058099999V0202701N007210036019N0112001N1+00301+00241102711ADDGA1081+003609059GF108991999999999999999999MA1999999095731MW1001
0050702735264091948042910004+61217-149833SAO  +0041MRI  V0200231N999992200019N0160001N1-00041-00531101631ADDGF100991999999999999999999MA1999999101121MW1001
0171702735264091948092213003+61217-149833SAO  +0041MRI  V02036059001552200059N0320005N1+00175-00505100175ADDGF101995999999999999999999MA1999999099665MW1001EQDN01 00000JPWTH 1QNNG11U1 99999K11 1 00023L11 1 02000M11 1 29430N11 1 00000Q11 1 10017S11 1 00035V11 1 00199W11 1 11003
006172469023062194809211100A+39750-104867SAO  +1625DEN  V0209991C000012200019N0240001N1+01241+00961101391ADDAA101000095GF100991999999999999999999MA1999999083541MW1001
0082476350999991948022823004+35250+136933SAO  +0017RJNN V0203151N004112200019N0160001N1+00851+00691101051ADDGA1999+010509999GA2999+036009999GF100991999999999999999999MA1999999100911MW1001
0059943120999991948052622003-20367+118617FM-12+0008YPPD V0201101N005719999999N0500001N9+02061+00671999999ADDAY101999GA1005+999999999GF106991001001999999999999MW1001
0165999999230681948052121005+38233-104633SAO  +146599999V02020359004652200059N064000599+03065+00895100815ADDGF106995999999999999999999MA1999999085205EQDN01 00000JPWTH 1QNNG11U1 99999K11 1 00048L11 1 04000M11 1 25160N11 1 00000Q11 1 10081S11 1 00087V11 1 00799W11 1 56009
0165999999139931948022908005+39767-094917SAO  +024799999V02033859004652200059N024000599-00225-00675102615ADDGF101995999999999999999999MA1999999099565EQDN01 00000JPWTH 1QNNG11U1 99999K11 1 00020L11 1 01500M11 1 29400N11 1 00000Q11 1 10261S11 1 00028V11 1 00199W11 1 18009
0051313380999991948040412004+53133+133967FM-12+067099999V0203601N00461220001CN9999999N9+00221+99999101461ADDAY101999GF100991001001999999001001MD1310021+9999
0377999999938371948061203005+30233-081667SAO  +0009NIP  V02006859001052200059N024000599+02444+01945101704ADDGA1999+067064024GA2999+999999999GA3999+999999999GA4999+999999999GD19025+9999999GD29005+9999999GD39005+9999999GD49005+9999999GF102995999999999999999999MA1999999101634EQDN01 00000JPWTH 1QNNE11 1 09902E11 1 09900E11 1 09900E11 1 09900G11U1 99999H11 1 37220H11 1 00999H11 1 00999H11 1 00999K11 1 00067L11 1 01500M11 1 30010N11 1 00000Q11 1 10170S11 1 00076V11 1 00299W11 1 32002
038899999923043194809191200E+33400-104533SAO  +110299999V02099999000052200059N064000599+01565+01115101225ADDAA101000095GA1999+036584034GA2999+999999999GA3999+999999999GA4999+999999999GD19015+9999999GD29005+9999999GD39005+9999999GD49005+9999999GF101995999999999999999999MA1999999089165EQDN01 00000JPWTH 1QNNE11 1 09901E11 1 09900E11 1 09900E11 1 09900G11U1 99999H11 1 23120H11 1 00999H11 1 00999H11 1 00999K11 1 00052L11 1 04000M11 1 26330N11 1 00000Q11 1 10122S11 1 00060V11 1 00199W11 1 00000
0066085090999991948062403004+38750-027083SAO  +0054LPLA V0209991C000010180019N0240001N9+01741+01631102741ADDGA1051+018009039GF107991999999999999999999MA1999999102131MW1001
0059949100999991948032523003-35167+147467FM-12+0070YSWG V0200901N002619999999N0200001N9+02061+01441999999ADDAY101999GA1005+999999999GF100991001001999999999999MW1001
0066722270138641948043000004+33917-084517SAO  +0308MGE  V0202901N003612200019N0192001N9+01851+99999100981ADDGA1001+999999999GF100991999999999999999999MA1999999097391MW1001
017672640014839194812161900C+42950-087900SAO  +0211MKE  V02024859012452200059N0240005N9+00175-00285101495ADDAA101000095GF100995999999999999999999MA1999999098885EQDN01 00000JPWTH 1QNNG11U1 99999K11 1 00027L11 1 01500M11 1 29200N11 1 00000Q11 1 10149S11 1 00035V11 1 00099W11 1 76024
0128999999149501948010809005+41100-092450SAO  +0257OTM  V02020359003152200049N016000599-00175-00335101225ADDMA1999999098075EQDN01 00000JPWTH 1QNNG11U1 99999K11 1 00026L11 1 01000M11 1 28960N11 1 00000Q11 1 10122S11 1 00029W11 1 56006
0051357000999991948041312004+47017+051850FM-12-002199999V0203601N00261036001CN0040001N9+01891+99999101581ADDAY121999GF108991041021008001061999MD1810061+9999
0383999999240341948072100005+48183-106633SAO  +064399999V02031559004650182949N048000599+02005+01335100475ADDGA1999+009144134GA2999+018294094GA3999+036584034GA4999+091444004GD19025+9999999GD29055+9999999GD39015+9999999GD49015+9999999GF106995999999999999999999MA1999999093195MW1955EQDN01 01000JPWTH 1QNNE11 1 09902E11 1 09906E11 1 09901E11 1 09901G11 1 00060H11 1 13030H11 1 18060H11 1 23120H11 1 32300K11 1 00056L11 1 03000M11 1 27520N11 1 01000Q11 1 10047S11 1 00068V11 1 00799W11 1 88009
0383999999137531948082801005+39450-074583SAO  +002099999V02020359001052200059N009600599+02725+02285102065ADDGA1999+076204004GA2999+999999999GA3999+999999999GA4999+999999999GD19035+9999999GD29005+9999999GD39005+9999999GD49005+9999999GF103995999999999999999999MA1999999101835MW1055EQDN01 08100JPWTH 1QNNE11 1 09904E11 1 09900E11 1 09900E11 1 09900G11U1 99999H11 1 32250H11 1 00999H11 1 00999H11 1 00999K11 1 00073L11 1 00600M11 1 30070N11 1 08100Q11 1 10206S11 1 00081V11 1 00499W11 1 56002
0043946460999991948082018004-30833+128100FM-12+016099999V0203201N005719999999N0200001N9+01221-00281999999ADDAY101999GF108991031999017501999999MW1001
0082749347999991948071902004+32083+118750SAO  +0025RNKG V0200901N004610060019N0160001N1+02741+02351100511ADDGA1051+006009089GA2081+045009039GF108991999999999999999999MA1999999100241MW1001
0066726625240061948040216004+44133-103100SAO  +0974RCA  V0200501N008212200019N0560001N9+00221-00761999999ADDGA1021+036009049GF102991999999999999999999MA1999999090351MW1001
0091308440999991948050712004+51350+110500FM-12+080199999V0209991C00001220001CN0200001N9+00781+99999100751ADDAY121999GF108991001001999999001071IA1159KA1999M+02221EQDQ01+000032APCTENQ02+000002APC3  
0340999999242551948102804005+99999+999999SAO  +999999999V02009059000552200049N012800599+00395+00285101665ADDGA1999+030484044GA2999+060964004GA3999+999999999GA4999+999999999GD19045+9999999GD29015+9999999GD39005+9999999GD49005+9999999MA1999999101565EQDN01 00000JPWTH 1QNNE11 1 09905E11 1 09901E11 1 09900E11 1 09900G11U1 99999H11 1 21100H11 1 32200H11 1 00999H11 1 00999K11 1 00037L11 1 00800M11 1 29990N11 1 00000Q11 1 10166S11 1 00039W11 1 33001
0165999999137481948022920005+34233-077950SAO  +001499999V02031559004652200059N024000599+02505-00115101525ADDGF100995999999999999999999MA1999999101395EQDN01 00000JPWTH 1QNNG11U1 99999K11 1 00030L11 1 01500M11 1 29940N11 1 00000Q11 1 10152S11 1 00077V11 1 00099W11 1 88009
0051298690999991948092815004+53300+092417FM-12+030199999V0209991C00001220001CN9999999N9+00281+99999102501ADDAY101999GF100991001001999999001001MD1310061+9999
0066725115147111948021109004+40200-076767SAO  +0097MDT  V0202931N001510420019N0112001N1-01151-01921104131ADDGA1081+042009039GF108991999999999999999999MA1999999102881MW1001
0040910660227011948021110004+28200-177383SAO  +0007PMDY V0200451N006712200019N0192001N1+01691+01411101241ADDGA1031+006009059MA1999999101121MW1001
0165999999265281948101616005+62300-150100SAO  +010799999V02015859000550137249N048000599+00115+00005098375ADDGF108995999999999999999999MA1999999097055EQDN01 00000JPWTH 1QNNG11 1 00045K11 1 00032L11 1 03000M11 1 28660N11 1 00000Q11 1 09837S11 1 00034V11 1 01099W11 1 54001
0082703430254021948060412004+59433-146333SAO  +0014MDO  V0201351N003110090019N0240001N1+00691+00581101801ADDGA1031+003609089GA2081+009009039GF108991999999999999999999MA1999999101631MW1001
004595866099999194811110200N-37730+144900AUST +0081YMEN V0203385N011859999999N999999999+01885+99999999999ADDGA1005+999999999GF107995004999999999999999
0165999999241301948021903005+44833-117833SAO  +102899999V02029359002652200059N064000599+00115-00835102135ADDGF102995999999999999999999MA1999999090215EQDN01 00000JPWTH 1QNNG11U1 99999K11 1 00017L11 1 04000M11 1 26640N11 1 00000Q11 1 10213S11 1 00034V11 1 00299W11 1 78005
0085724586139221948030120004+38817-097650SAO  +0379SLN  V0200451N008710001519N0004001N1-00151-00371100982ADDGA1091+000159999GF109991999999999999999999MA1999999096342MW1381EQDQ01    003PRSWM1
0377999999139901948102600005+38433-095800SAO  +035299999V02018059003652200059N019200599+01335+00335102205ADDGA1999+999999999GA2999+999999999GA3999+999999999GA4999+999999999GD19005+9999999GD29005+9999999GD39005+9999999GD49005+9999999GF100995999999999999999999MA1999999097975EQDN01 00000JPWTH 1QNNE11 1 09900E11 1 09900E11 1 09900E11 1 09900G11U1 99999H11 1 00999H11 1 00999H11 1 00999H11 1 00999K11 1 00038L11 1 01200M11 1 28930N11 1 00000Q11 1 10220S11 1 00056V11 1 00099W11 1 55007
0165999999231561948040621005+33933-116933SAO  +079099999V02029359005250106749N024000599+01175+00285102075ADDGF107995999999999999999999MA1999999092925EQDN01 00000JPWTH 1QNNG11 1 00035K11 1 00037L11 1 01500M11 1 27440N11 1 00000Q11 1 10207S11 1 00053V11 1 00999W11 1 78010
0171727846241601948053111003+46100-118283SAO  +0368ALW  V02022559000552200059N0320005N1+01285+01065101085ADDGF100995999999999999999999MA1999999096785MW1001EQDN01 00000JPWTH 1QNNG11U1 99999K11 1 00051L11 1 02000M11 1 28580N11 1 00000Q11 1 10108S11 1 00055V11 1 00099W11 1 66001
0066476350999991948091012004+35250+136933SAO  +0017RJNN V0203601N001510150019N0112001N1+02241+02181101351ADDGA1081+015009059GF108991999999999999999999MA1999999101221MW1611
0346722906931121948091522003+32717-117217SAO  +0015NZY  V02018059004152200049N0080005N9+02445+01945101095ADDGA1051+036584034GA2011+076204004GA3999+999999999GA4999+999999999GD19055+9999999GD29015+9999999GD39005+9999999GD49005+9999999MA1999999100955MW1055EQDN01 08100JPWTH 1QNNE11 1 09906E11 1 09901E11 1 09900E11 1 09900G11U1 99999H11 1 23120H11 1 32250H11 1 00999H11 1 00999K11 1 00067L11 1 00500M11 1 29810N11 1 08100Q11 1 10109S11 1 00076W11 1 55008
0171999999147601948010305005+40850-076117SAO  +0591PKL  V02031559005750039649N009600599-00445-00565100815ADDGF108995999999999999999999MA1999999093705MW1455EQDN01 07000JPWTH 1QNNG11 1 00013K11 1 00022L11 1 00600M11 1 27670N11 1 07000Q11 1 10081S11 1 00024V11 1 01099W11 1 88011
0082718150999991948091920004+48550-058550SAO  +0013CYJT V0200681N006210105019N0320001N1+01131+00581100791ADDGA1061+010509059GA2021+036009049GF108991999999999999999999MA1999999100641MW1001
0050724663999991948013018004+38783-104717SAO  +1881PEF  V0201801N001512200019N0240001N1+00411+00191101801ADDGF100991999999999999999999MA1999999080731MW1001
0383725101147121948090108003+40383-075967SAO  +0096RDG  V02036059002652200059N0160005N1+01115+00505102105ADDGA1999+999999999GA2999+999999999GA3999+999999999GA4999+999999999GD19005+9999999GD29005+9999999GD39005+9999999GD49005+9999999GF100995999999999999999999MA1999999100955MW1001EQDN01 00000JPWTH 1QNNE11 1 09900E11 1 09900E11 1 09900E11 1 09900G11U1 99999H11 1 00999H11 1 00999H11 1 00999H11 1 00999K11 1 00041L11 1 01000M11 1 29810N11 1 00000Q11 1 10210S11 1 00052V11 1 00099W11 1 11005
0340722585939011948010315005+32733-096967SAO  +0150NBE  V02018059006252200049N016000599+00615+00225101565ADDGA1999+999999999GA2999+999999999GA3999+999999999GA4999+999999999GD19005+9999999GD29005+9999999GD39005+9999999GD49005+9999999MA1999999099835EQDN01 00000JPWTH 1QNNE11 1 09900E11 1 09900E11 1 09900E11 1 09900G11U1 99999H11 1 00999H11 1 00999H11 1 00999H11 1 00999K11 1 00036L11 1 01000M11 1 29480N11 1 00000Q11 1 10156S11 1 00043W11 1 55012
0171722525129201948091804003+27533-099467SAO  +0152LRD  V02009059004652200059N0240005N1+02675+02225101735ADDGF100995999999999999999999MA1999999099935MW1001EQDN01 00000JPWTH 1QNNG11U1 99999K11 1 00072L11 1 01500M11 1 29510N11 1 00000Q11 1 10173S11 1 00080V11 1 00099W11 1 33009
0082718150999991948101516004+48550-058550SAO  +0013CYJT V0200231N006210540019N0240001N1+01571+00691101191ADDGA1021+007509089GA2041+054009029GF107991999999999999999999MA1999999101021MW1001
017699999912834194808161100E+29183-081050SAO  +001099999V02018059002652200059N019200599+02335+02285101295ADDAA101000095GF106995999999999999999999MA1999999101155EQDN01 00000JPWTH 1QNNG11U1 99999K11 1 00073L11 1 01200M11 1 29870N11 1 00000Q11 1 10129S11 1 00074V11 1 00799W11 1 55005
0165999999253331948110209005+57067-135350SAO  +002099999V02013559020652200059N024000599+00725-00565098045ADDGF108995999999999999999999MA1999999097835EQDN01 00000JPWTH 1QNNG11U1 99999K11 1 00022L11 1 01500M11 1 28890N11 1 00000Q11 1 09804S11 1 00045V11 1 01099W11 1 44040
0066749109999991948022123004+40300-074050SAO  +001680NJ V0200451N001012200019N0144001N1-00371-01031103181ADDGA1021+027009039GF102991999999999999999999MA1999999102981MW1001
0165999999139981948021718005+37633-097267SAO  +043299999V02022559005252200059N024000599+01675+00505102475ADDGF102995999999999999999999MA1999999097465EQDN01 00000JPWTH 1QNNG11U1 99999K11 1 00041L11 1 01500M11 1 28780N11 1 00000Q11 1 10247S11 1 00062V11 1 00399W11 1 66010
0377999999240281948080321005+41867-103600SAO  +120999999V02002359004150091449N040000599+02175+01115102245ADDGA1999+009144064GA2999+999999999GA3999+999999999GA4999+999999999GD19075+9999999GD29005+9999999GD39005+9999999GD49005+9999999GF107995999999999999999999MA1999999088795EQDN01 00000JPWTH 1QNNE11 1 09909E11 1 09900E11 1 09900E11 1 09900G11 1 00030H11 1 15030H11 1 00999H11 1 00999H11 1 00999K11 1 00052L11 1 02500M11 1 26220N11 1 00000Q11 1 10224S11 1 00071V11 1 00999W11 1 12008
0044744900147021948121503004+42467-071283SAO  +0045BED  V0203401N002112200019N0240001N9-00201-00421102571ADDGF100991999999999999999999MA1999999102071
0066726071146061948101106004+44800-068833SAO  +0050BGR  V0209991C000012200019N0240001N9+00741+00301101521ADDGA1001+999999999GF100991999999999999999999MA1999999100951MW1001
0050722630230341948060319004+31367-100500SAO  +0585SJT  V0201581N003612200019N0240001N1+03131+00911101461ADDGF100991999999999999999999MA1999999095021MW1001
038899999923043194807041500E+33400-104533SAO  +110299999V02015859005252200059N064000599+02335+01565101425ADDAA101000095GA1999+045724034GA2999+999999004GA3999+999999999GA4999+999999999GD19015+9999999GD29005+9999999GD39005+9999999GD49005+9999999GF101995999999999999999999MA1999999089405EQDN01 00000JPWTH 1QNNE11 1 09901E11 1 09900E11 1 09900E11 1 09900G11U1 99999H11 1 23150H11 1 32999H11 1 00999H11 1 00999K11 1 00060L11 1 04000M11 1 26400N11 1 00000Q11 1 10142S11 1 00074V11 1 00199W11 1 54010
0066722270138641948110413004+33917-084517SAO  +0317MGE  V0209991C000010001519N0004001N9+01071+01071101321ADDGA1091+000159999GF109991999999999999999999MA1999999097731MW1451
0098749509999991948060600004+13517+144817SAO  +005499999V0200681N002610420019N0192001N1+02461+02461100981ADDGA1021+005409089GA2021+006009059GA3061+042009049GF107991999999999999999999MA1999999100441MW1001
039472344013964194811250900C+35333-094367SAO  +0136FSM  V02004559003652200059N0240005N1+00335+00115100645ADDAA101000095GA1999+999999999GA2999+999999999GA3999+999999999GA4999+999999999GD19005+9999999GD29005+9999999GD39005+9999999GD49005+9999999GF100995999999999999999999MA1999999098985MW1001EQDN01 00000JPWTH 1QNNE11 1 09900E11 1 09900E11 1 09900E11 1 09900G11U1 99999H11 1 00999H11 1 00999H11 1 00999H11 1 00999K11 1 00034L11 1 01500M11 1 29230N11 1 00000Q11 1 10064S11 1 00038V11 1 00099W11 1 22007
0072258210999991948111009004+61917+158817FM-12+002399999V0200201N00671220001CN0500001N9+99999+99999098961ADDAY101999GF102991001001999999041011EQDQ01+000032APCTENQ02+000002APC3  
0051287990999991948032812004+54167+074800FM-12+010899999V0202301N00671220001CN0200001N9-00221+99999100701ADDAY171999GF101991001001999999001011MD1810061+9999
0165999999047251948081020005+99999+999999SAO  +999999999V02031559000550152449N024000599+02335+01225102075ADDGF105995999999999999999999MA1999999099025EQDN01 00000JPWTH 1QNNG11 1 00050K11 1 00054L11 1 01500M11 1 29240N11 1 00000Q11 1 10207S11 1 00074V11 1 00699W11 1 88001
0066744910147031948022120004+42200-072533SAO  +0075CEF  V0200501N002610360019N0240001N9-00201-01371103121ADDGA1051+036009039GF107991999999999999999999MA1999999102171MW1001
0165999999147371948041514005+40650-075433SAO  +011799999V02031559006750061049N011200599+00895+00565102245ADDGF107995999999999999999999MA1999999100785EQDN01 00000JPWTH 1QNNG11 1 00020K11 1 00042L11 1 00700M11 1 29760N11 1 00000Q11 1 10224S11 1 00048V11 1 00999W11 1 88013
0171727530149141948072914003+46900-096800SAO  +0273FAR  V02015859006750100649N0192005N9+02445+01835099905ADDGF108995999999999999999999MA1999999096755MW1001EQDN01 00000JPWTH 1QNNG11 1 00033K11 1 00065L11 1 01200M11 1 28570N11 1 00000Q11 1 09990S11 1 00076V11 1 01099W11 1 54013
0250999999137711948011711005+39883-075167SAO  +0006MUV  V02013559003650213449N004800599-00115-00175102515ADDGA1999+021344064GD19085+9999999GD29999+9999999GD39999+9999999GF108995999999999999999999MW1045EQDN01 08000JPWTH 1QNNE11 1 09910E11 1 09999E11 1 09999G11 1 00070H11 1 15070K11 1 00029L11 1 00300N11 1 08000Q11 1 10251S11 1 00030V11 1 01099W11 1 44007
0051246520999991948072306004+63967+127467FM-12+009099999V0202701N00931220001CN0500001N9+02111+99999100951ADDAY101999GF102991001001999999001041MD1110071+9999
018299999913739194808221600E+39883-075233SAO  +000899999V02015859001552200059N006400599+02565+02115102175ADDAA101000095GF107995999999999999999999MA1999999102075MW1045EQDN01 08000JPWTH 1QNNG11U1 99999K11 1 00070L11 1 00400M11 1 30140N11 1 08000Q11 1 10217S11 1 00078V11 1 00999W11 1 54003
0066724565139201948091919004+38950-095667SAO  +0323FOE  V0202001N005112200019N0240001N9+03291+02021101051ADDGA1021+013509089GF102991999999999999999999MA1999999097291MW1001
0066749164999991948042400004+33233-107017SAO  +147899999V0202251N018510240019N0032001N1+02241-00531099421ADDGA1051+024009089GF107991999999999999999999MA1999999083811MW1071
0165999999242241948012609005+42167-121733SAO  +124599999V02004559004652200059N048000599-00565-01225102575ADDGF100995999999999999999999MA1999999088115EQDN01 00000JPWTH 1QNNG11U1 99999K11 1 00010L11 1 03000M11 1 26020N11 1 00000Q11 1 10257S11 1 00022V11 1 00099W11 1 22009
0082476420999991948061802004+35733+139367SAO  +0140RJTY V0201401N003610075019N0160001N9+02281+01781100911ADDGA1061+007509059GA2081+036009039GF108991999999999999999999MA1999999099421MW1001
0171999999148301948110523005+42900-085667SAO  +021399999V02015859004650048849N011200599+01445+01335099665ADDGF108995999999999999999999MA1999999097195MW1615EQDN01 02000JPWTH 1QNNG11 1 00016K11 1 00056L11 1 00700M11 1 28700N11 1 02000Q11 1 09966S11 1 00058V11 1 01099W11 1 54009
0066108580999991948021421004+48200+011267SAO  +0519EDSF V0209991C000010015019N0008001N1+00351+00351102781ADDGA1091+000159999GF109991999999999999999999MA1999999096381MW1451
004594999900175194805302000N-27570+153000AUST +0011     V0202485N005759999999N999999999+00895+99999999999ADDGA1005+999999999GF101995004999999999999999
0066724240138071948012322004+37900-085967SAO  +0223FTK  V0200901N004110450019N0096001N9-00871+99999102371ADDGA1081+045009049GF108991999999999999999999MA1999999099491MW1051
0050747804999991948052022004+32017-081133SAO  +0016SVN  V0201401N003612200019N0240001N9+02571+01301101351ADDGF102991999999999999999999MA1999999101191MW1001
0051282140999991948032212004+58133+052667FM-12+014799999V0201801N00261075001CN0100001N9-00611+99999100311ADDAY121999GF108991021041008001001071MD1810081+9999
0062852420999991948081518004-17967-067117FM-12+370799999V0209991C000019999999N0500001N9+01671-00281999999ADDAY101999GF106991021021999999011061MW1021EQDQ01+000992SCOLCB
018899999913781194811191300E+39667-075600SAO  +002499999V02009059003650137249N002400599+00725+00675102345ADDAA101000095GF108995999999999999999999MA1999999102035MW1045MW2455EQDN01 07080JPWTH 1QNNG11 1 00045K11 1 00044L11 1 00150M11 1 30130N11 1 07080Q11 1 10234S11 1 00045V11 1 01099W11 1 33007
018272352713975194808261300C+36300-099767SAO  +0669GAG  V02018059003150024449N0240005N1+02065+01835101395ADDAA101000095GF108995999999999999999999MA1999999093875MW1001EQDN01 00000JPWTH 1QNNG11 1 00008K11 1 00065L11 1 01500M11 1 27720N11 1 00000Q11 1 10139S11 1 00069V11 1 01099W11 1 55006
0083031350999991948021715004+55500-004583SAO  +0020EGPK V0201581N004619999999N0112001N1+00581+00021102881ADDGA1021+012009089GA2999+999999039GA3999+999999029GF108991999999999999999999MW1001
0140999999148221948030710005+42400-083000SAO  +018999999V02022559005250003049N001300599+00115+00115101125ADDMA1999999098785MW1045MW2455EQDN01 07080JPWTH 1QNNG11 1 00001K11 1 00034L11 1 00081M11 1 29170N11 1 07080Q11 1 10112S11 1 00034W11 1 66010
0050722745231091948021600004+32183-110917SAO  +0782DMA  V0203201N004112200019N0800001N9+01941-00721102001ADDGF108991999999999999999999MA1102071093021MW1001
0082476430999991948062700004+35833+139417SAO  +0090RJTJ V0201801N001510120019N0048001N1+02351+01801101281ADDGA1061+012009059GA2081+027009049GF108991999999999999999999MA1999999100271MW1051
0165999999241461948020500005+48300-114267SAO  +0904FCA  V02004559004652200059N040000599-00945-01895102405ADDGF108995999999999999999999MA1999999091535EQDN01 00000JPWTH 1QNNG11U1 99999K11 1-00002L11 1 02500M11 1 27030N11 1 00000Q11 1 10240S11 1 00015V11 1 01099W11 1 22009
038899999924230194810270000E+44267-121150SAO  +094099999V02033859004652200059N128000599+00725-00445102345ADDAA101000095GA1999+999999064GA2999+999999999GA3999+999999999GA4999+999999999GD19005+9999999GD29005+9999999GD39005+9999999GD49005+9999999GF100995999999999999999999MA1999999091335EQDN01 00000JPWTH 1QNNE11 1 09900E11 1 09900E11 1 09900E11 1 09900G11U1 99999H11 1 15999H11 1 00999H11 1 00999H11 1 00999K11 1 00024L11 1 08000M11 1 26970N11 1 00000Q11 1 10234S11 1 00045V11 1 00099W11 1 18009
0165999999240241948082713005+44050-101600SAO  +0672PHP  V02029359002152200059N024000599+01725+01505101225ADDGF102995999999999999999999MA1999999093535EQDN01 00000JPWTH 1QNNG11U1 99999K11 1 00059L11 1 01500M11 1 27620N11 1 00000Q11 1 10122S11 1 00063V11 1 00299W11 1 78004
017699999914943194808091600E+42383-096367SAO  +033499999V02018059007250048849N012800599+02565+02115101225ADDAA101000095GF106995999999999999999999MA1999999097325EQDN01 00000JPWTH 1QNNG11 1 00016K11 1 00070L11 1 00800M11 1 28740N11 1 00000Q11 1 10122S11 1 00078V11 1 00799W11 1 55014
0060620111999991948070217004+32900+013283SAO  +0003HTIP V0200501N005712200019N0160001N9+02351+01961101961ADDGA1031+007509059GF102991999999999999999999MA1999999101931
0066722595139111948020703004+32783-097433SAO  +0192FWH  V0203601N002110012019N0024001N9+00501+00441101831ADDGA1081+001209079GF108991999999999999999999MA1999999099591MW1451
0051345230999991948111012004+48600+039267FM-12+013899999V0203201N01541220001CN0200001N9+00221+99999103701ADDAY171999GF104991041011008001001081MD1310221+9999
0165999999265281948072905005+62300-150100SAO  +010799999V02006859001550137249N096000599+01115+00445101125ADDGF106995999999999999999999MA1999999099865EQDN01 00000JPWTH 1QNNG11 1 00045K11 1 00040L11 1 06000M11 1 29490N11 1 00000Q11 1 10112S11 1 00052V11 1 00899W11 1 32003
0066474250999991948120313004+42800+141650SAO  +0027RJCC V0209991C000010060019N0160001N1+00131+00021101081ADDGA1061+006009059GF107991999999999999999999MA1999999100681MW1001
0066745160232021948091900004+38267-121933SAO  +0019SUU  V0202301N009312200019N0240001N9+02111+01331101661ADDGA1021+009009089GF102991999999999999999999MA1999999101461MW1001
0276999999147881948052617005+41583-071417SAO  +000999999V02002359003150015249N008000599+01445+01335101855ADDGA1999+001524064GD19085+9999999GD29999+9999999GD39999+9999999GF108995999999999999999999MA1999999101765MW1455EQDN01 07000JPWTH 1QNNE11 1 09910E11 1 09999E11 1 09999G11 1 00005H11 1 15005K11 1 00056L11 1 00500M11 1 30050N11 1 07000Q11 1 10185S11 1 00058V11 1 01099W11 1 12006
0102852890999991948020818004-18950-057867FM-12+015499999V0209991C000019999999N0500001N9+03171+02561999999ADDAA199010091AY181999GF107991021081999999011031MA1999999099361MD1710201+9999MW1021EQDQ01+000992SCOLCB
0059944030999991948030722003-28800+114700FM-12+0029YPGN V0200901N002619999999N0500001N9+02561+01111999999ADDAY101999GA1005+999999999GF100991001001999999999999MW1001
0066043900999991948012515004+60033-043117SAO  +0019BGPC V0203381N003110060019N0112001N1-00091-00311097071ADDGA1051+006009079GF107991999999999999999999MA1999999096141MW1711
0165999999265161948102404005+61583-159533SAO  +003099999V02033859003652200059N048000599-01005-01175099975ADDGF102995999999999999999999MA1999999099635EQDN01 00000JPWTH 1QNNG11U1 99999K11 1 00011L11 1 03000M11 1 29420N11 1 00000Q11 1 09997S11 1 00014V11 1 00299W11 1 18007
0340999999148551948012111005+42083-087833SAO  +0197NBU  V02024859005252200049N016000599-01115-01115100745ADDGA1999+999999999GA2999+999999999GA3999+999999999GA4999+999999999GD19005+9999999GD29005+9999999GD39005+9999999GD49005+9999999MA1999999098315EQDN01 00000JPWTH 1QNNE11 1 09900E11 1 09900E11 1 09900E11 1 09900G11U1 99999H11 1 00999H11 1 00999H11 1 00999H11 1 00999K11 1 00012L11 1 01000M11 1 29030N11 1 00000Q11 1 10074S11 1 00012W11 1 76010
0128999999242431948021215005+46567-120533SAO  +032499999V02029359001552200049N048000599-01115-01335103425ADDMA1999999099295EQDN01 00000JPWTH 1QNNG11U1 99999K11 1 00008L11 1 03000M11 1 29320N11 1 00000Q11 1 10342S11 1 00012W11 1 78003
0082789480999991948082213004+13750-060950SAO  +0003TLPL V0200901N003610330019N0192001N1+02961+02521101521ADDGA1031+007209089GA2061+033009049GF107991999999999999999999MA1999999101421MW1001
0165999999138811948041403005+35217-080933SAO  +023499999V02015859005252200059N024000599+02115+01565102105ADDGF102995999999999999999999MA1999999099365EQDN01 00000JPWTH 1QNNG11U1 99999K11 1 00060L11 1 01500M11 1 29340N11 1 00000Q11 1 10210S11 1 00070V11 1 00399W11 1 54010
0050710720999991948081718004+76233-119833FM-12+001799999V0202501N013419999999N0040001N9+00061+00061999999ADDGF108991081051002501999999MA1999999099251MW1711
0383722657230411948112218003+32233-101500SAO  +0773HCA  V02036059002152200059N0240005N1+00565-00285102345ADDGA1021+012194064GA2021+048774034GA3999+999999999GA4999+999999999GD19025+9999999GD29025+9999999GD39005+9999999GD49005+9999999GF103995999999999999999999MA1999999093265MW1001EQDN01 00000JPWTH 1QNNE11 1 09902E11 1 09902E11 1 09900E11 1 09900G11U1 99999H11 1 15040H11 1 23160H11 1 00999H11 1 00999K11 1 00027L11 1 01500M11 1 27540N11 1 00000Q11 1 10234S11 1 00042V11 1 00499W11 1 11004
038899999923058194811020600E+31817-107633SAO  +122999999V02031559001052200059N048000599+00835+00285101905ADDAA101000095GA1999+064014004GA2999+999999999GA3999+999999999GA4999+999999999GD19025+9999999GD29005+9999999GD39005+9999999GD49005+9999999GF102995999999999999999999MA1999999088285EQDN01 00000JPWTH 1QNNE11 1 09902E11 1 09900E11 1 09900E11 1 09900G11U1 99999H11 1 32210H11 1 00999H11 1 00999H11 1 00999K11 1 00037L11 1 03000M11 1 26070N11 1 00000Q11 1 10190S11 1 00047V11 1 00299W11 1 88002
0171999999242271948010405005+46967-122900SAO  +006699999V02018059006750094549N008000599+00565+00445101055ADDGF108995999999999999999999MA1999999100305MW1615EQDN01 02000JPWTH 1QNNG11 1 00031K11 1 00040L11 1 00500M11 1 29620N11 1 02000Q11 1 10105S11 1 00042V11 1 01099W11 1 55013
007772270023044194805302300D+31800-106400SAO  +1194ELP  V0201801N003612200019N0960001N1+03411+00021100471ADDAA101000095GA1031+075009009GF102991999999999999999999MA1999999087641MW1001
0165999999128391948072507005+25817-080283SAO  +000799999V02022559001552200059N016000599+02445+02335101695ADDGF106995999999999999999999MA1999999101665EQDN01 00000JPWTH 1QNNG11U1 99999K11 1 00074L11 1 01000M11 1 30020N11 1 00000Q11 1 10169S11 1 00076V11 1 00899W11 1 66003
017699999923068194812261400E+38233-104633SAO  +146599999V02099999000052200059N016000599-01285-01505102845ADDAA101000095GF108995999999999999999999MA1999999085545EQDN01 00000JPWTH 1QNNG11U1 99999K11 1 00005L11 1 01000M11 1 25260N11 1 00000Q11 1 10284S11 1 00009V11 1 01099W11 1 00000
0171727846241601948030912003+46100-118283SAO  +0368ALW  V02018059001550048849N0160005N1+00225+00175101465ADDGF108995999999999999999999MA1999999097055MW1615EQDN01 02000JPWTH 1QNNG11 1 00016K11 1 00035L11 1 01000M11 1 28660N11 1 02000Q11 1 10146S11 1 00036V11 1 01099W11 1 55003
0082743941999991948083022004+42933-071433SAO  +0076MHT  V0201351N005110120019N0400001N1+02071+01521101291ADDGA1061+012009059GA2071+036009039GF107991999999999999999999MA1999999100441MW1001
0037383280999991948071312004+42300+069600FM-12+055299999V0200501N00671220001CN0200001N9+02111+99999100031ADDAY101999GF100991001001999999001001
0051219310999991948061118004+70750+136217FM-12+002299999V0200201N00461220001CN0500001N9+00281+99999101461ADDAY111999GF102991001001999999001011MD1210021+9999
0165999999148481948042500005+41700-086317SAO  +023499999V02018059001552200059N019200599+02005+01505101355ADDGF100995999999999999999999MA1999999098585EQDN01 00000JPWTH 1QNNG11U1 99999K11 1 00059L11 1 01200M11 1 29110N11 1 00000Q11 1 10135S11 1 00068V11 1 00099W11 1 55003
0051293560999991948052600004+57367+089150FM-12+015099999V0202501N00101220001CN0100001N9+01391+99999100741ADDAY101999GF100991001001999999001001MD1310061+9999
0062389470999991948102618004+37233+069083FM-12+036499999V0209991C00001220001CN0200001N9+01611+99999102672ADDAY101999GF100991001001999999001001IA1009EQDQ01+102673APOSLP
007772503814714194806160500D+41500-074100SAO  +0150SWF  V0202701N002612200019N0112001N1+01631+01351101251ADDAA101000095GA1021+060009029GF102991999999999999999999MA1999999099591MW1001
0165999999139941948060311005+38750-090383SAO  +017699999V02027059001552200059N011200599+01785+01175101835ADDGF100995999999999999999999MA1999999099835EQDN01 00000JPWTH 1QNNG11U1 99999K11 1 00053L11 1 00700M11 1 29480N11 1 00000Q11 1 10183S11 1 00064V11 1 00099W11 1 77003
0091852890999991948072318004-18950-057867FM-12+015499999V0200901N005119999999N0500001N9+03061+01941999999ADDAY101999GF107991021071999999091001MA1999999099491MD1810341+9999MW1021EQDQ01+000992SCOLCB
0066110100999991948110116004+48233+014183SAO  +0304LOXL V0209991C000010120019N0064001N1+00801+00581102341ADDGA1081+012009059GF108991999999999999999999MA1999999098681MW1051
0165999999931061948120210005+33800-118117SAO  +001799999V02031559002152200059N024000599+00894-00395102004ADDGF100995999999999999999999MA1999999101794EQDN01 00000JPWTH 1QNNG11U1 99999K11 1 00025L11 1 01500M11 1 30060N11 1 00000Q11 1 10200S11 1 00048V11 1 00099W11 1 88004
0165999999138761948021316005+33567-086750SAO  +0192BHM  V02018059008250057949N011200599+02065+01785101125ADDGF108995999999999999999999MA1999999098885EQDN01 00000JPWTH 1QNNG11 1 00019K11 1 00064L11 1 00700M11 1 29200N11 1 00000Q11 1 10112S11 1 00069V11 1 01099W11 1 55016
0171725640240181948062801003+41150-104817SAO  +1877CYS  V02036059005252200059N1120005N9+01395+00725101495ADDGF107995999999999999999999MA1999999081345MW1001EQDN01 00000JPWTH 1QNNG11U1 99999K11 1 00045L11 1 07000M11 1 24020N11 1 00000Q11 1 10149S11 1 00057V11 1 00999W11 1 11010
018299999993818194810310000E+38417-082500SAO  +017199999V02099999000052200059N004800599+01004+00505102104ADDAA101000095GF102995999999999999999999MA1999999100004MW1045EQDN01 08000JPWTH 1QNNG11U1 99999K11 1 00041L11 1 00300M11 1 29530N11 1 08000Q11 1 10210S11 1 00050V11 1 00399W11 1 00000
0117423610999991948082703004+26217+078133FM-12+020899999V0202701N00101220001CN0100001N9+02831+02441099981ADDAY111999GA1999+000159999GA2999+000159999GF106991001001999999001051KA1999N+02611EQDQ01    003SCCGA1Q02    003SCCGA2
018899999923174194807141100E+33933-118383SAO  +003799999V02002359001550012249N002400599+01675+01565101295ADDAA101000095GF108995999999999999999999MA1999999100915MW1045MW2455EQDN01 07082JPWTH 1QNNG11 1 00004K11 1 00060L11 1 00150M11 1 29800N11 1 07082Q11 1 10129S11 1 00062V11 1 01099W11 1 12003
0165999999231831948032209005+33433-112033SAO  +033999999V02011359003152200059N024000599+00505-00445102175ADDGF100995999999999999999999MA1999999098175EQDN01 00000JPWTH 1QNNG11U1 99999K11 1 00024L11 1 01500M11 1 28990N11 1 00000Q11 1 10217S11 1 00041V11 1 00099W11 1 34006
018272248613942194809150100C+32517-092050SAO  +0025MLU  V02006859001552200059N0240005N1+02445+01785101805ADDAA101000095GF100995999999999999999999MA1999999101495MW1001EQDN01 00000JPWTH 1QNNG11U1 99999K11 1 00064L11 1 01500M11 1 29970N11 1 00000Q11 1 10180S11 1 00076V11 1 00099W11 1 32003
0165999999148121948060317005+99999+999999SAO  +999999999V02004559005252200059N024000599+02565+00785101465ADDGF100995999999999999999999MA1999999096855EQDN01 00000JPWTH 1QNNG11U1 99999K11 1 00046L11 1 01500M11 1 28600N11 1 00000Q11 1 10146S11 1 00078V11 1 00099W11 1 22010
0050723676230481948011307004+35183-103600SAO  +1231TCC  V0200681N004110240019N0480001N1-00041-00481103181ADDGF107991999999999999999999MA1999999088991MW1001
0066724836232081948072717004+38667-121400SAO  +0024MCC  V0201601N001512200019N0240001N9+02571+01521101351ADDGA1001+999999999GF100991999999999999999999MA1999999101051MW1001
0114983270999991948112804004+15183+120550SAO  +0145RPMK V0203401N003610300019N0482801N9+02721+01891101321ADDGA1011+009009059GA2011+006009089GA3061+030009049GA4021+030009039GF108991999999999999999999MA1999999099591MW1001
0082727855241141948061311004+47617-117650SAO  +0741SKA  V0203201N003110150019N0240001N9+01501+99999101151ADDGA1051+015009059GA2081+036009049GF108991999999999999999999MA1999999092651MW1001
017699999914936194810030800E+44383-098217SAO  +039599999V02013559004650213449N024000599+01115+00445102715ADDAA101000095GF106995999999999999999999MA1999999098005EQDN01 00000JPWTH 1QNNG11 1 00070K11 1 00040L11 1 01500M11 1 28940N11 1 00000Q11 1 10271S11 1 00052V11 1 00799W11 1 44009
0066702720999991948033005004+61233-149867SAO  +0055PAED V0203401N004610021019N0032001N9-00531-00761100781ADDGA1091+002109999GF109991999999999999999999MA1999999100031MW1711
0377999999930351948101009005+30250-103883SAO  +1481MRF  V02024859001052200059N024000599+01174+01115100954ADDGA1999+999999999GA2999+999999999GA3999+999999999GA4999+999999999GD19005+9999999GD29005+9999999GD39005+9999999GD49005+9999999GF100995999999999999999999MA1999999084934EQDN01 00000JPWTH 1QNNE11 1 09900E11 1 09900E11 1 09900E11 1 09900G11U1 99999H11 1 00999H11 1 00999H11 1 00999H11 1 00999K11 1 00052L11 1 01500M11 1 25080N11 1 00000Q11 1 10095S11 1 00053V11 1 00099W11 1 76002
038899999923056194809021800E+35083-106017SAO  +190099999V02024859001552200059N096000599+03065+00785101665ADDAA101000095GA1999+999999094GA2999+085344024GA3999+999999999GA4999+999999999GD19005+9999999GD29015+9999999GD39005+9999999GD49005+9999999GF101995999999999999999999MA1999999081655EQDN01 00000JPWTH 1QNNE11 1 09900E11 1 09901E11 1 09900E11 1 09900G11U1 99999H11 1 18999H11 1 37280H11 1 00999H11 1 00999K11 1 00046L11 1 06000M11 1 24110N11 1 00000Q11 1 10166S11 1 00087V11 1 00199W11 1 76003
0165999999139961948053117005+39067-095633SAO  +0267TOP  V02009059003652200059N019200599+02335+01565102345ADDGF108995999999999999999999MA1999999099155EQDN01 00000JPWTH 1QNNG11U1 99999K11 1 00060L11 1 01200M11 1 29280N11 1 00000Q11 1 10234S11 1 00074V11 1 01099W11 1 33007
0066722786231041948081007004+33317-111650SAO  +0408IWA  V0202301N001512200019N0240001N9+03071+01851100911ADDGA1001+999999999GF100991999999999999999999MA1999999096341MW1001
018299999993818194810310900E+38417-082500SAO  +017199999V02099999000052200059N003200599+00614+00445102034ADDAA101000095GF106995999999999999999999MA1999999099974MW1045EQDN01 08000JPWTH 1QNNG11U1 99999K11 1 00040L11 1 00200M11 1 29520N11 1 08000Q11 1 10203S11 1 00043V11 1 00899W11 1 00000
0066724835232061948100410004+38550-121300SAO  +0027MHR  V0201601N005112200019N0240001N9+01461+01351101691ADDGA1001+999999999GF100991999999999999999999MA1999999101351MW1001
018299999914933194812191600E+41533-093650SAO  +0286DSM  V02027059002150021349N006400599-00785-00895101325ADDAA101000095GF108995999999999999999999MA1999999097705MW1455EQDN01 07000JPWTH 1QNNG11 1 00007K11 1 00016L11 1 00400M11 1 28850N11 1 07000Q11 1 10132S11 1 00018V11 1 01099W11 1 77004
0051450050999991948012206004+22300+114167FM-12+003399999V0200901N008219999999N0100001N9+02001+01721101271ADDAY111999GF107991041051008001001011MD1810301+9999
0340999999242441948041117005+47683-122267SAO  +001599999V02020359004150112849N016000599+00725+00505101555ADDGA1999+011284064GA2999+030484044GA3999+999999999GA4999+999999999GD19065+9999999GD29075+9999999GD39005+9999999GD49005+9999999MA1999999101355EQDN01 00000JPWTH 1QNNE11 1 09908E11 1 09909E11 1 09900E11 1 09900G11 1 00037H11 1 15037H11 1 21100H11 1 00999H11 1 00999K11 1 00041L11 1 01000M11 1 29930N11 1 00000Q11 1 10155S11 1 00045W11 1 56008
0066788071999991948060708004+08967-079550SAO  +0012MBLB V0202701N001512200019N0160001N1+02461+02411101051ADDGA1031+036009039GF102991999999999999999999MA1999999100981MW1001
0072725115147111948112822004+40200-076767SAO  +0097MDT  V0200681N001510039019N0048001N1+00351+00351101831ADDGA1081+003909079GF108991999999999999999999MA1999999100681MW1451MW2611
0165999999266171948091220005+64500-165433SAO  +0004OME  V02020359008250106749N016000599+00725+00615102745ADDGF108995999999999999999999MA1999999102715EQDN01 00000JPWTH 1QNNG11 1 00035K11 1 00043L11 1 01000M11 1 30330N11 1 00000Q11 1 10274S11 1 00045V11 1 01099W11 1 56016
0057248560999991948122415004+61483+129650FM-12+011299999V0209999900101220001CN0040001N9-04611+99999102331ADDAY171999GF107991001001999999001061MD1990181+9999MW1711
