0329724586139221949042119003+38800-097633SAO  +0384SLN  V02020359004650061049N0240005N1+01615+01395101495ADDGA1061+006104064GA2081+024384044GD19065+9999999GD29085+9999999GD39999+9999999GD49999+9999999GF108995999999999999999999MA1999999096995MW1001EQDN01 00000JPWTH 1QNNE11 1 09908E11 1 09910E11 1 09999E11 1 09999G11 1 00020H11 1 15020H11 1 21080K11 1 00057L11 1 01500M11 1 28640N11 1 00000Q11 1 10149S11 1 00061V11 1 01099W11 1 56009
0383702610264111949031923003+64833-147717SAO  +0135FAI  V02013559001052200059N1440005N1-00615-00895101085ADDGA1021+036584034GA2061+060964004GA3999+999999999GA4999+999999999GD19025+9999999GD29065+9999999GD39005+9999999GD49005+9999999GF104085999999999999999999MA1999999099295MW1001EQDN01 00000JPWTH 1QNNE11 1 09902E11 1 09908E11 1 09900E11 1 09900G11U1 99999H11 1 23120H11 1 32200H11 1 00999H11 1 00999K11 1 00016L11 1 09000M11 1 29320N11 1 00000Q11 1 10108S11 1 00021V11 1 00510W11 1 44002
0165999999231671949061910005+36733-119817SAO  +008699999V02031559003652200059N024000599+01505+00785101805ADDGF102995999999999999999999MA1999999100785EQDN01 00000JPWTH 1QNNG11U1 99999K11 1 00046L11 1 01500M11 1 29760N11 1 00000Q11 1 10180S11 1 00059V11 1 00299W11 1 88007
0165999999264131949092519005+66583-145300SAO  +012899999V02004559002150609649N024000599+01115+00505100005ADDGF108995999999999999999999MA1999999098445EQDN01 00000JPWTH 1QNNG11 1 00200K11 1 00041L11 1 01500M11 1 29070N11 1 00000Q11 1 10000S11 1 00052V11 1 01099W11 1 22004
0070301360999991949012712004+58550+109767FM-12+023499999V0209991C00001220001CN0100001N9-01001+99999101251ADDAY171999GF108991001001999999011071IA1319KA1999M-00611MD1310061+9999
0128999999038161949092616005+37067-088767SAO  +012199999V02020359004652200059N024000599+02335+01065999999ADDGF100995999999999999999999EQDN01 00000JPWTH 1QNNG11U1 99999K11 1 00051L11 1 01500N11 1 00000S11 1 00074V11 1 00099W11 1 56009
0085745160232021949010700004+38267-121933SAO  +0019SUU  V0200901N002612200019N0160001N9+00891+00001102341ADDGA1999+075009999GF100991999999999999999999MA1999999102131MW1001EQDQ01    003SCCGA1
017699999914745194901240400E+43200-071517SAO  +010899999V02033859001050076249N016000599-00335-00785103525ADDAA101000095GF108995999999999999999999MA1999999102175EQDN01 00000JPWTH 1QNNG11 1 00025K11 1 00018L11 1 01000M11 1 30170N11 1 00000Q11 1 10352S11 1 00026V11 1 01099W11 1 18002
0051037720999991949051122004+51483-000450SAO  +0024EGLL V0200231N003112200019N0096001N1+01071+00741103181ADDGA1021+075009999GF102991999999999999999999MW1001
017699999923237194901120600E+37900-121250SAO  +000899999V02027059003652200059N024000599-00285-00835101425ADDAA101000095GF100995999999999999999999MA1999999101325EQDN01 00000JPWTH 1QNNG11U1 99999K11 1 00017L11 1 01500M11 1 29920N11 1 00000Q11 1 10142S11 1 00027V11 1 00099W11 1 77007
0177999999242411949093011005+99999+999999SAO  +999999999V02024859001550094549N008000599+01115+01065102035ADDGF108995999999999999999999MA1999999100645MW1455MW2615EQDN01 02070JPWTH 1QNNG11 1 00031K11 1 00051L11 1 00500M11 1 29720N11 1 02070Q11 1 10203S11 1 00052V11 1 01099W11 1 76003
0377999999267031949070109005+63767-171750SAO  +000999999V02099999000050762049N128000599+00565+00335101225ADDGA1999+027434034GA2999+060964024GA3999+076204004GA4999+999999999GD19035+9999999GD29025+9999999GD39055+9999999GD49005+9999999GF107995999999999999999999MA1999999101125EQDN01 00000JPWTH 1QNNE11 1 09904E11 1 09902E11 1 09906E11 1 09900G11 1 00250H11 1 23090H11 1 37200H11 1 32250H11 1 00999K11 1 00038L11 1 08000M11 1 29860N11 1 00000Q11 1 10122S11 1 00042V11 1 00999W11 1 00000
0296999999147891949062812005+42267-071033SAO  +000599999V02004559007750061049N016000599+01565+01395102015ADDGA1999+006104064GD19085+9999999GD29999+9999999GD39999+9999999GD49999+9999999GF108995999999999999999999MA1999999101935EQDN01 00000JPWTH 1QNNE11 1 09910E11 1 09999E11 1 09999E11 1 09999G11 1 00020H11 1 15020K11 1 00057L11 1 01000M11 1 30100N11 1 00000Q11 1 10201S11 1 00060V11 1 01099W11 1 22015
0050749066999991949121123004+32267-064850SAO  +0013MYUN V0200451N007710600019N0192001N1+01911+01191102891ADDGF107991999999999999999999MA1999999102741MW1001
0383722886231301949060516003+34217-118500SAO  +0240VNY  V02099999000052200059N0240005N9+02225+00395101195ADDGA1041+036584034GA2999+999999999GA3999+999999999GA4999+999999999GD19045+9999999GD29005+9999999GD39005+9999999GD49005+9999999GF104995999999999999999999MA1999999098415MW1001EQDN01 00000JPWTH 1QNNE11 1 09905E11 1 09900E11 1 09900E11 1 09900G11U1 99999H11 1 23120H11 1 00999H11 1 00999H11 1 00999K11 1 00039L11 1 01500M11 1 29060N11 1 00000Q11 1 10119S11 1 00072V11 1 00599W11 1 00000
0165999999128331949091400005+29633-083100SAO  +0013CTY  V02099999000052200059N024000599+02175+01835101495ADDGF100995999999999999999999MA1999999101325EQDN01 00000JPWTH 1QNNG11U1 99999K11 1 00065L11 1 01500M11 1 29920N11 1 00000Q11 1 10149S11 1 00071V11 1 00099W11 1 00000
0356999999422041949101410005+26350+127767SAO  +0043RODN V02004559008850091449N008000599+02225+02115101395ADDGA1999+002134154GA2999+009144064GA3999+024384044GD19035+9999999GD29065+9999999GD39085+9999999GD49999+9999999GF108995999999999999999999MA1999999100855MW1535EQDN01 03400JPWTH 1QNNE11 1 09904E11 1 09907E11 1 09910E11 1 09999G11 1 00030H11 1 17007H11 1 15030H11 1 21080K11 1 00070L11 1 00500M11 1 29780N11 1 03400Q11 1 10139S11 1 00072V11 1 01099W11 1 22017
0057031350999991949052000004+55517-004600FM-12+000999999V0202401N00361012301CN0200001N9+01001+00721101891ADDAY111999GF107991071051012501999999MD1310121+9999MW1021
0066723550139451949101413004+34650-098383SAO  +0360FSI  V0203601N001512200019N0240001N9+00671+00611102271ADDGA1011+036009039GF102991999999999999999999MA1999999097931MW1001
0265999999938411949011713005+99999+999999SAO  +999999999V02011359003150030549N003200599+01894+01895102004ADDGA1999+003054074GD19085+9999999GD29999+9999999GD39999+9999999GD49999+9999999MA1999999101354MW1455EQDN01 07000JPWTH 1QNNE11 1 09910E11 1 09999E11 1 09999E11 1 09999G11 1 00010H11 1 16010K11 1 00066L11 1 00200M11 1 29930N11 1 07000Q11 1 10200S11 1 00066W11 1 34006
0165999999149211949092811005+43200-090183SAO  +0219LNR  V02033859003150152449N024000599+00835+00445101805ADDGF105995999999999999999999MA1999999099155EQDN01 00000JPWTH 1QNNG11 1 00050K11 1 00040L11 1 01500M11 1 29280N11 1 00000Q11 1 10180S11 1 00047V11 1 00699W11 1 18006
0082718070999991949090908004+47300-054000SAO  +0016CYAR V0201131N007710045019N0064001N1+01301+01301101631ADDGA1051+004509059GA2031+018009049GF108991999999999999999999MA1999999101421MW1631
0165999999241221949103115005+40350-112050SAO  +151499999V02099999000052200059N064000599-00335-00675103595ADDGF100995999999999999999999MA1999999086225EQDN01 00000JPWTH 1QNNG11U1 99999K11 1 00020L11 1 04000M11 1 25460N11 1 00000Q11 1 10359S11 1 00026V11 1 00099W11 1 00000
018272643014920194903100800C+43933-091283SAO  +0204LSE  V02002359003652200059N0240005N9-00615-01225102375ADDAA101000095GF101995999999999999999999MA1999999099805MW1001EQDN01 00000JPWTH 1QNNG11U1 99999K11 1 00010L11 1 01500M11 1 29470N11 1 00000Q11 1 10237S11 1 00021V11 1 00199W11 1 12007
0050723625930571949030210004+35167-107900SAO  +0087GNT  V0202931N001012200019N1200001N1-00311-00481102071ADDGF100991999999999999999999MA1999999080121MW1001
0165999999038151949112504005+30483-087350SAO  +002899999V02024859010350109749N016000599+02065+01895101155ADDGF107995999999999999999999MA1999999100715EQDN01 00000JPWTH 1QNNG11 1 00036K11 1 00066L11 1 01000M11 1 29740N11 1 00000Q11 1 10115S11 1 00069V11 1 00999W11 1 76020
0165999999149311949111308005+40783-091117SAO  +021399999V02031559008850045749N024000599+00725+00565100955ADDGF108995999999999999999999MA1999999098415EQDN01 00000JPWTH 1QNNG11 1 00015K11 1 00042L11 1 01500M11 1 29060N11 1 00000Q11 1 10095S11 1 00045V11 1 01099W11 1 88017
0066724550139471949082316004+39050-096767SAO  +0324FRI  V0201601N005112200019N0240001N9+02831+01331101661ADDGA1001+999999999GF100991999999999999999999MA1999999097871MW1001
0165999999147471949082215005+42500-079283SAO  +020699999V02036059002650609649N019200599+02445+01395102075ADDGF107995999999999999999999MA1999999099635EQDN01 00000JPWTH 1QNNG11 1 00200K11 1 00057L11 1 01200M11 1 29420N11 1 00000Q11 1 10207S11 1 00076V11 1 00999W11 1 11005
039472658014922194906091500C+44883-093217SAO  +0254MSP  V02013559005750762049N0240005N9+02115+00835102275ADDAA101000095GA1021+030484034GA2061+076204024GA3999+999999999GA4999+999999999GD19025+9999999GD29065+9999999GD39005+9999999GD49005+9999999GF106995999999999999999999MA1999999099195MW1001EQDN01 00000JPWTH 1QNNE11 1 09903E11 1 09907E11 1 09900E11 1 09900G11 1 00250H11 1 23100H11 1 37250H11 1 00999H11 1 00999K11 1 00047L11 1 01500M11 1 29290N11 1 00000Q11 1 10227S11 1 00070V11 1 00899W11 1 44011
038899999993822194910271500E+39833-089667SAO  +0179SPI  V02015859003652200059N011200599+00784-00115102954ADDAA101000095GA1999+091444024GA2999+999999999GA3999+999999999GA4999+999999999GD19015+9999999GD29005+9999999GD39005+9999999GD49005+9999999GF101995999999999999999999MA1999999100644EQDN01 00000JPWTH 1QNNE11 1 09901E11 1 09900E11 1 09900E11 1 09900G11U1 99999H11 1 37300H11 1 00999H11 1 00999H11 1 00999K11 1 00030L11 1 00700M11 1 29720N11 1 00000Q11 1 10295S11 1 00046V11 1 00199W11 1 54007
0171910660227011949032022003+28200-177383SAO  +0007PMDY V02020359008252200059N0192005N1+02395+02005101835ADDGF104995999999999999999999MA1999999101695MW1001EQDN01 00000JPWTH 1QNNG11U1 99999K11 1 00068L11 1 01200M11 1 30030N11 1 00000Q11 1 10183S11 1 00075V11 1 00599W11 1 56016
0057601300999991949083012004+34000-006833FM-12+006899999V0203001N00411220001CN0150001N9+02721+02111101121ADDAY101999GF100991001001999999001001MD1810021+9999MW1021
0059948210999991949030911003-37733+140783FM-12+0020YMMG V0209999C000019999999N0160001N9+01281+01171999999ADDAY141999GA1035+001805999GF103991031999002501999999MW1055
0171702670264151949112407003+64000-145733SAO  +0389BIG  V02009059003152200059N0240005N1-00445-00785099935ADDGF103995999999999999999999MA1999999095165MW1001EQDN01 00000JPWTH 1QNNG11U1 99999K11 1 00018L11 1 01500M11 1 28100N11 1 00000Q11 1 09993S11 1 00024V11 1 00499W11 1 33006
018299999914737194910081600E+40650-075433SAO  +011799999V02027059002650045749N006400599+02285+01945102515ADDAA101000095GF108995999999999999999999MA1999999101125MW1045EQDN01 08200JPWTH 1QNNG11 1 00015K11 1 00067L11 1 00400M11 1 29860N11 1 08200Q11 1 10251S11 1 00073V11 1 01099W11 1 77005
017699999924243194903131400E+46567-120533SAO  +032499999V02029359003150670649N032000599+00065-00115101905ADDAA101000095GF106995999999999999999999MA1999999097975EQDN01 00000JPWTH 1QNNG11 1 00220K11 1 00030L11 1 02000M11 1 28930N11 1 00000Q11 1 10190S11 1 00033V11 1 00799W11 1 78006
0165999999139921949090405005+38883-091433SAO  +026999999V02015859007250426749N019200599+02005+01565101325ADDGF106995999999999999999999MA1999999098145EQDN01 00000JPWTH 1QNNG11 1 00140K11 1 00060L11 1 01200M11 1 28980N11 1 00000Q11 1 10132S11 1 00068V11 1 00899W11 1 54014
017699999994789194907080700E+40650-073783SAO  +0006JFK  V02004559002650426749N016000599+01894+01615102174ADDAA101000095GF106995999999999999999999MA1999999102104EQDN01 00000JPWTH 1QNNG11 1 00140K11 1 00061L11 1 01000M11 1 30150N11 1 00000Q11 1 10217S11 1 00066V11 1 00799W11 1 22005
017699999923063194911271600E+39650-106917SAO  +1980EGE  V02099999000050548649N040000599+00285-00565102515ADDAA101000095GF105995999999999999999999MA1999999080265EQDN01 00000JPWTH 1QNNG11 1 00180K11 1 00022L11 1 02500M11 1 23700N11 1 00000Q11 1 10251S11 1 00037V11 1 00699W11 1 00000
0177999999930421949021322005+36017-102550SAO  +1218DHT  V02006859004150018349N006400599-00784-00895101804ADDGF108995999999999999999999MA1999999087574MW1455MW2715EQDN01 04070JPWTH 1QNNG11 1 00006K11 1 00016L11 1 00400M11 1 25860N11 1 04070Q11 1 10180S11 1 00018V11 1 01099W11 1 32008
0072725300948461949090620004+41983-087900SAO  +0186ORD  V0202501N002110180019N0064001N9+01851+01521102001ADDGA1081+018009039GF108991999999999999999999MA1999999099631MW1041MW2611
0165999999939921949091510005+33217-092800SAO  +0082ELD  V02002359001550167649N012800599+01834+01725101664ADDGF108995999999999999999999MA1999999100644EQDN01 00000JPWTH 1QNNG11 1 00055K11 1 00063L11 1 00800M11 1 29720N11 1 00000Q11 1 10166S11 1 00065V11 1 01099W11 1 12003
017699999994746194901031300E+42267-071867SAO  +030099999V02029359010852200059N024000599-00444-00835101834ADDAA101000095GF100995999999999999999999MA1999999098004EQDN01 00000JPWTH 1QNNG11U1 99999K11 1 00017L11 1 01500M11 1 28940N11 1 00000Q11 1 10183S11 1 00024V11 1 00099W11 1 78021
017672256013959194907300200B+31617-097217SAO  +015599999V02015859005752200059N019200599+03065+01785101355ADDAA101000095GF100995999999999999999999MA1999999099595EQDN01 00000JPWTH 1QNNG11U1 99999K11 1 00064L11 1 01200M11 1 29410N11 1 00000Q11 1 10135S11 1 00087V11 1 00099W11 1 54011
0383724810232031949060905003+37367-120567SAO  +0054MER  V02036059004152200059N0160005N9+02505+01115100985ADDGA1001+999999999GA2999+999999999GA3999+999999999GA4999+999999999GD19005+9999999GD29005+9999999GD39005+9999999GD49005+9999999GF100995999999999999999999MA1999999100375MW1001EQDN01 00000JPWTH 1QNNE11 1 09900E11 1 09900E11 1 09900E11 1 09900G11U1 99999H11 1 00999H11 1 00999H11 1 00999H11 1 00999K11 1 00052L11 1 01000M11 1 29640N11 1 00000Q11 1 10098S11 1 00077V11 1 00099W11 1 11008
0066467460999991949102012004+23450+120383SAO  +0000RCKU V0209991C000012200019N0040001N1+02181+01801101101ADDGA1031+007809089GF102991999999999999999999MA1999999100751MW1451
018272785024157194905090800C+47617-117517SAO  +0721GEG  V02099999000052200059N0480005N1+01505+00445100985ADDAA101000095GF100995999999999999999999MA1999999092755MW1001EQDN01 00000JPWTH 1QNNG11U1 99999K11 1 00040L11 1 03000M11 1 27390N11 1 00000Q11 1 10098S11 1 00059V11 1 00099W11 1 00000
0165999999939861949101601005+35000-099050SAO  +0474HBR  V02018059003152200059N032000599+01784+00565101734ADDGF100995999999999999999999MA1999999096144EQDN01 00000JPWTH 1QNNG11U1 99999K11 1 00042L11 1 02000M11 1 28390N11 1 00000Q11 1 10173S11 1 00064V11 1 00099W11 1 55006
0165999999241491949051513005+46383-117017SAO  +043399999V02018059002650365849N048000599+01725+01445100755ADDGF108995999999999999999999MA1999999095705EQDN01 00000JPWTH 1QNNG11 1 00120K11 1 00058L11 1 03000M11 1 28260N11 1 00000Q11 1 10075S11 1 00063V11 1 01099W11 1 55005
0383722745231091949080107003+32183-110917SAO  +0798DMA  V02015859001552200059N0560005N9+02785+01675101225ADDGA1031+076204024GA2999+999999999GA3999+999999999GA4999+999999999GD19035+9999999GD29005+9999999GD39005+9999999GD49005+9999999GF103995999999999999999999MA1999999092525MW1001EQDN01 00000JPWTH 1QNNE11 1 09904E11 1 09900E11 1 09900E11 1 09900G11U1 99999H11 1 37250H11 1 00999H11 1 00999H11 1 00999K11 1 00062L11 1 03500M11 1 27320N11 1 00000Q11 1 10122S11 1 00082V11 1 00499W11 1 54003
0165999999266161949031122005+66867-162633SAO  +0006OTZ  V02015859005752200059N032000599-00285-00565102175ADDGF100995999999999999999999MA1999999102135EQDN01 00000JPWTH 1QNNG11U1 99999K11 1 00022L11 1 02000M11 1 30160N11 1 00000Q11 1 10217S11 1 00027V11 1 00099W11 1 54011
0070286370999991949033012004+55000+057817FM-12+040299999V0203201N00671220001CN0200001N9-00221+99999102881ADDAY121999GF106991999001999999041001MD1810201+9999EQDQ01+000002SCOTLC
0066745940137051949021310004+38817-076883SAO  +0085ADW  V0202501N005110360019N0160001N9+00691+99999102171ADDGA1081+036009039GF108991999999999999999999MA1999999101121MW1001
017699999913881194903160200E+35217-080933SAO  +023499999V02036059005252200059N024000599+00005-01175102405ADDAA101000095GF103995999999999999999999MA1999999099565EQDN01 00000JPWTH 1QNNG11U1 99999K11 1 00011L11 1 01500M11 1 29400N11 1 00000Q11 1 10240S11 1 00032V11 1 00499W11 1 11010
0165999999947251949123122005+44933-074850SAO  +006399999V02009059001550609649N024000599-00944-01395103394ADDGF105995999999999999999999MA1999999102574EQDN01 00000JPWTH 1QNNG11 1 00200K11 1 00007L11 1 01500M11 1 30290N11 1 00000Q11 1 10339S11 1 00015V11 1 00699W11 1 33003
017699999923182194908120700E+34633-118083SAO  +077099999V02022559002152200059N032000599+01565+00335101565ADDAA101000095GF100995999999999999999999MA1999999092855EQDN01 00000JPWTH 1QNNG11U1 99999K11 1 00038L11 1 02000M11 1 27420N11 1 00000Q11 1 10156S11 1 00060V11 1 00099W11 1 66004
0051314440999991949012218004+51567+126717FM-12+017999999V0201401N00101220001CN9999999N9-02221+99999102261ADDAY101999GF100991001001999999001001MD1310041+9999
039472221013858194910241000C+30483-086517SAO  +0018VPS  V02002359002652200059N0128005N9+01945+01395101865ADDAA101000095GA1001+999999999GA2999+999999999GA3999+999999999GA4999+999999999GD19005+9999999GD29005+9999999GD39005+9999999GD49005+9999999GF100995999999999999999999MA1999999101665MW1001EQDN01 00000JPWTH 1QNNE11 1 09900E11 1 09900E11 1 09900E11 1 09900G11U1 99999H11 1 00999H11 1 00999H11 1 00999H11 1 00999K11 1 00057L11 1 00800M11 1 30020N11 1 00000Q11 1 10186S11 1 00067V11 1 00099W11 1 12005
0165999999241481949112300005+99999+999999SAO  +999999999V02013559008250365849N040000599+01005-00175102475ADDGF108995999999999999999999MA1999999092655EQDN01 00000JPWTH 1QNNG11 1 00120K11 1 00029L11 1 02500M11 1 27360N11 1 00000Q11 1 10247S11 1 00050V11 1 01099W11 1 44016
0058063100999991949101415004+51450+003600FM-12+001399999V0201501N00211220001CN0024001N9+01721+01391999999ADDAY121999GF100991001001999999001001MA1999999102261MW1011
0059949070999991949090311003-38100+147133FM-12+0009YMES V0202701N007719999999N0160001N9+00891+00781999999ADDAY101999GA1065+009005999GF106991061999012501999999MW1001
0165999999128351949052511005+26650-081867SAO  +001199999V02099999000052200059N019200599+02175+02065101495ADDGF100995999999999999999999MA1999999101465EQDN01 00000JPWTH 1QNNG11U1 99999K11 1 00069L11 1 01200M11 1 29960N11 1 00000Q11 1 10149S11 1 00071V11 1 00099W11 1 00000
013999999914859194905311700E+46617-085917SAO  +025599999V02099999000050198149N024000599+02445+00945999999ADDAA101000095GF106995999999999999999999EQDN01 00000JPWTH 1QNNG11 1 00065K11 1 00049L11 1 01500N11 1 00000S11 1 00076V11 1 00799W11 1 00000
0043671290999991949091112004-20867+055450FM-12+001299999V0201101N011819999999N0200001N9+02391+01391102021ADDAY121999GF105991041021012501999999MW1021
0165999999137311949042815005+39000-078233SAO  +020899999V02006859004650762049N032000599+01445+00335102515ADDGF106995999999999999999999MA1999999100035EQDN01 00000JPWTH 1QNNG11 1 00250K11 1 00038L11 1 02000M11 1 29540N11 1 00000Q11 1 10251S11 1 00058V11 1 00799W11 1 32009
005574724023168194911301600D+32883-112717SAO  +0261GBN  V0200701N002110480019N0800001N9+01631-00151101421ADDAA101000095GF107991999999999999999999MA1999999098371
0383722886231301949111502003+34217-118500SAO  +0240VNY  V02033859006750762049N0240005N9+02445-00065101495ADDGA1071+076204024GA2999+999999999GA3999+999999999GA4999+999999999GD19075+9999999GD29005+9999999GD39005+9999999GD49005+9999999GF107995999999999999999999MA1999999098685MW1001EQDN01 00000JPWTH 1QNNE11 1 09909E11 1 09900E11 1 09900E11 1 09900G11 1 00250H11 1 37250H11 1 00999H11 1 00999H11 1 00999K11 1 00031L11 1 01500M11 1 29140N11 1 00000Q11 1 10149S11 1 00076V11 1 00999W11 1 18013
017699999924232194907070200E+44917-123000SAO  +006499999V02002359005250762049N096000599+02115+00835101865ADDAA101000095GF108995999999999999999999MA1999999101125EQDN01 00000JPWTH 1QNNG11 1 00250K11 1 00047L11 1 06000M11 1 29860N11 1 00000Q11 1 10186S11 1 00070V11 1 01099W11 1 12010
0068234120999991949121118004+65967+056917FM-12+007799999V0202701N00671012301CN0100001N9+00001+99999101781ADDAA199000691AY121999GF108991081051012501999999IA1319MD1310101+9999
0057035810999991949021210004+52483+000517FM-12+001499999V0202101N005119999999N0040001N9+00441+00391101541ADDAY121999GF108991041071002501021001MD1510241+9999MW1621
0165999999137301949082317005+39417-077383SAO  +0094FDK  V02022559001550137249N012800599+02395+01945101835ADDGF108995999999999999999999MA1999999100715EQDN01 00000JPWTH 1QNNG11 1 00045K11 1 00067L11 1 00800M11 1 29740N11 1 00000Q11 1 10183S11 1 00075V11 1 01099W11 1 66003
038872256013959194901070300E+31617-097217SAO  +015599999V02022559003652200059N024000599+00615-00785102745ADDAA101000095GA1999+076204004GA2999+999999999GA3999+999999999GA4999+999999999GD19025+9999999GD29005+9999999GD39005+9999999GD49005+9999999GF102995999999999999999999MA1999999100855EQDN01 00000JPWTH 1QNNE11 1 09903E11 1 09900E11 1 09900E11 1 09900G11U1 99999H11 1 32250H11 1 00999H11 1 00999H11 1 00999K11 1 00018L11 1 01500M11 1 29780N11 1 00000Q11 1 10274S11 1 00043V11 1 00399W11 1 66007
0165999999128501949092102005+24583-081683SAO  +000899999V02009059004650914449N019200599+02835+02445101695ADDGF106995999999999999999999MA1999999101665EQDN01 00000JPWTH 1QNNG11 1 00300K11 1 00076L11 1 01200M11 1 30020N11 1 00000Q11 1 10169S11 1 00083V11 1 00899W11 1 33009
017699999914910194907262200E+45867-095383SAO  +0435AXN  V02011359003650914449N024000599+02945+02065100855ADDAA101000095GF106995999999999999999999MA1999999095805EQDN01 00000JPWTH 1QNNG11 1 00300K11 1 00069L11 1 01500M11 1 28290N11 1 00000Q11 1 10085S11 1 00085V11 1 00899W11 1 34007
031372258013960194910061500C+32850-096850SAO  +0153DAL  V02018059007250518249N0240005N1+02565+01895100885ADDAA101000095GA1081+051824044GD19085+9999999GD29999+9999999GD39999+9999999GD49999+9999999GF108995999999999999999999MA1999999099155MW1001EQDN01 00000JPWTH 1QNNE11 1 09910E11 1 09999E11 1 09999E11 1 09999G11 1 00170H11 1 21170K11 1 00066L11 1 01500M11 1 29280N11 1 00000Q11 1 10088S11 1 00078V11 1 01099W11 1 55014
0082479300999991949082723004+26200+127650SAO  +0004ROAH V0202251N004110300019N0240001N1+02571+99999100951ADDGA1021+006009089GA2071+030009039GF107991999999999999999999MA1999999100911MW1001
0043944760999991949120306004-27550+035450FM-12+011699999V0200901N007219999999N0400001N9+03111+00501999999ADDAY101999GF100991001001999999999999MW1001
0039718030999991949060412004+48950-054567SAO  +0151CYQX V0202481N005112200019N0480001N1+01571+01301101041ADDGA1011+021009039MD1110261+9999MW1001
0094450070999991949121116004+22333+114200FM-12+000499999V0201101N009319999999N0090001N9+99999+99999999999ADDAY121999GA1999+006009079GA2061+999999999GF107991999999999999999999MW1021EQDQ01    003SCCGA1
017699999913996194907311100E+39067-095633SAO  +0267TOP  V02099999000052200059N019200599+01505+01445102005ADDAA101000095GF101995999999999999999999MA1999999098815EQDN01 00000JPWTH 1QNNG11U1 99999K11 1 00058L11 1 01200M11 1 29180N11 1 00000Q11 1 10200S11 1 00059V11 1 00199W11 1 00000
018272240513976194903161500C+30200-091983SAO  +0013LFT  V02013559006252200059N0160005N1+01445+00785102545ADDAA101000095GF100995999999999999999999MA1999999102405MW1001EQDN01 00000JPWTH 1QNNG11U1 99999K11 1 00046L11 1 01000M11 1 30240N11 1 00000Q11 1 10254S11 1 00058V11 1 00099W11 1 44012
0165999999937181949032600005+33683-078933SAO  +000899999V02011359003650762049N011200599+01834+01785102274ADDGF107995999999999999999999MA1999999102174EQDN01 00000JPWTH 1QNNG11 1 00250K11 1 00064L11 1 00700M11 1 30170N11 1 00000Q11 1 10227S11 1 00065V11 1 00999W11 1 34007
0177999999149191949020610005+46917-098683SAO  +0455JMS  V02031559008850012249N001000599-01785-02065100885ADDGF108995999999999999999999MA1999999095165MW1385MW2715EQDN01 04084JPWTH 1QNNG11 1 00004K11 1-00005L11 1 00062M11 1 28100N11 1 04084Q11 1 10088S11 1 00000V11 1 01099W11 1 88017
0082103430999991949051109004+52600+010017SAO  +0052EDCL V0209991C000010540019N0240001N1+01191+00461103121ADDGA1021+010509089GA2061+054009029GF107991999999999999999999MA1999999102611MW1001
0049844250999991949080412004-05883-076067FM-12+018499999V0203601N00101012301CN0160001N9+02221+01781999999ADDAY111999GF107991071051012501001001IA1089MW1031
0165999999136021949061423005+32267-064850SAO  +0013MYUN V02009059005750045749N024000599+02395+02175102585ADDGF106995999999999999999999MA1999999102445EQDN01 00000JPWTH 1QNNG11 1 00015K11 1 00071L11 1 01500M11 1 30250N11 1 00000Q11 1 10258S11 1 00075V11 1 00899W11 1 33011
0066745980137021949041704004+37083-076350SAO  +0003LFI  V0202901N005112200019N0144001N9+00671-00171101351ADDGA1001+999999999GF100991999999999999999999MA1999999101321MW1001
0165999999931011949041201005+33683-117733SAO  +010899999V02031559003150670649N012800599+02614+00005101774ADDGF106995999999999999999999MA1999999100144EQDN01 00000JPWTH 1QNNG11 1 00220K11 1 00032L11 1 00800M11 1 29570N11 1 00000Q11 1 10177S11 1 00079V11 1 00799W11 1 88006
018272344613971194904130600C+36233-093117SAO  +0337HRO  V02029359002652200059N0240005N1+01285+00785100715ADDAA101000095GF100995999999999999999999MA1999999096785MW1001EQDN01 00000JPWTH 1QNNG11U1 99999K11 1 00046L11 1 01500M11 1 28580N11 1 00000Q11 1 10071S11 1 00055V11 1 00099W11 1 78005
017699999914842194909061600E+40667-089683SAO  +020199999V02031559006250213449N016000599+01835+01335102245ADDAA101000095GF108995999999999999999999MA1999999099835EQDN01 00000JPWTH 1QNNG11 1 00070K11 1 00056L11 1 01000M11 1 29480N11 1 00000Q11 1 10224S11 1 00065V11 1 01099W11 1 88012
0089061800999991949052521004+55617+012650FM-12+000599999V0202501N00721030001CN0160001N9+01001+00611100151ADDAY121999GA1011+006009089GA2051+030009039GF106991011021008001071011MD1310121+9999MW1011
0165999999148411949091220005+45567-084783SAO  +021699999V02013559004650304849N012800599+02335+01565101635ADDGF108995999999999999999999MA1999999099025EQDN01 00000JPWTH 1QNNG11 1 00100K11 1 00060L11 1 00800M11 1 29240N11 1 00000Q11 1 10163S11 1 00074V11 1 01099W11 1 44009
017699999914605194906272000E+44317-069800SAO  +0108AUG  V02004559004150106749N024000599+01615+01335101495ADDAA101000095GF108995999999999999999999MA1999999100175EQDN01 00000JPWTH 1QNNG11 1 00035K11 1 00056L11 1 01500M11 1 29580N11 1 00000Q11 1 10149S11 1 00061V11 1 01099W11 1 22008
017699999913736194905150600E+39633-079917SAO  +038099999V02099999000052200059N011200599+01395+01225102035ADDAA101000095GF100995999999999999999999MA1999999097565EQDN01 00000JPWTH 1QNNG11U1 99999K11 1 00054L11 1 00700M11 1 28810N11 1 00000Q11 1 10203S11 1 00057V11 1 00099W11 1 00000
017699999914752194905241400E+41733-072650SAO  +0006HFD  V02024859001552200059N011200599+02225+01335101195ADDAA101000095GF103995999999999999999999MA1999999101125EQDN01 00000JPWTH 1QNNG11U1 99999K11 1 00056L11 1 00700M11 1 29860N11 1 00000Q11 1 10119S11 1 00072V11 1 00499W11 1 76003
0165999999265101949102704005+62967-155617SAO  +0104MCG  V02027059001052200059N024000599-00395-00615098955ADDGF102995999999999999999999MA1999999097665EQDN01 00000JPWTH 1QNNG11U1 99999K11 1 00021L11 1 01500M11 1 28840N11 1 00000Q11 1 09895S11 1 00025V11 1 00299W11 1 77002
018272255512935194907272000C+28717-096250SAO  +0005PSX  V02013559006250457249N0240005N1+03005+02615101735ADDAA101000095GF108995999999999999999999MA1999999101665MW1001EQDN01 00000JPWTH 1QNNG11 1 00150K11 1 00079L11 1 01500M11 1 30020N11 1 00000Q11 1 10173S11 1 00086V11 1 01099W11 1 44012
0165999999264391949100711005+99999+999999SAO  +999999999V02006859005250396249N032000599-00335-00615101195ADDGF108995999999999999999999MA1999999092655EQDN01 00000JPWTH 1QNNG11 1 00130K11 1 00021L11 1 02000M11 1 27360N11 1 00000Q11 1 10119S11 1 00026V11 1 01099W11 1 32010
004594926099999194903302000N-35320+149200AUST +0577YSCB V0209999C000059999999N999999999+00085+99999999999ADDGA1005+999999999GF100995004999999999999999
0059946370999991949122916003-30783+121450FM-12+0361YPKG V0201801N003619999999N0200001N9+02671+01781999999ADDAY101999GA1005+999999999GF108991001001999999999999MW1001
0076042200999991949122206004+68700-052867FM-12+004899999V0200301N00671220001CN0200001N9-01221-01501100341ADDAY101061GF101991001001999999001021MD1011182+9999MW1021EQDQ01+001182APC3  
0082722586999991949100403004+33717-096667SAO  +0233PNX  V0200681N003110021019N0128001N1+02131+02071101391ADDGA1061+002109079GA2081+009009059GF108991999999999999999999MA1999999098681MW1611
017699999913958194906240500E+30300-097700SAO  +018999999V02013559004652200059N024000599+02725+02285100645ADDAA101000095GF100995999999999999999999MA1999999098515EQDN01 00000JPWTH 1QNNG11U1 99999K11 1 00073L11 1 01500M11 1 29090N11 1 00000Q11 1 10064S11 1 00081V11 1 00099W11 1 44009
0051308120999991949113021004+51650+103733FM-12+046499999V0202301N00101220001CN0100001N9-01781+99999103521ADDAY111999GF100991001001999999001001MD1310101+9999
017699999994705194911241400E+44200-072567SAO  +0344MPV  V02033859001552200059N040000599-00674-01065101564ADDAA101000095GF104995999999999999999999MA1999999097364EQDN01 00000JPWTH 1QNNG11U1 99999K11 1 00013L11 1 02500M11 1 28750N11 1 00000Q11 1 10156S11 1 00020V11 1 00599W11 1 18003
0165999999231601949060523005+32133-110950SAO  +078099999V02029359005750609649N160000599+03395-00505100645ADDGF106995999999999999999999MA1999999092045EQDN01 00000JPWTH 1QNNG11 1 00200K11 1 00023L11G1 10000M11 1 27180N11 1 00000Q11 1 10064S11 1 00093V11 1 00899W11 1 78011
0062249230999991949071206004+60717+114883FM-12+016899999V0203201N00671030001CN0500001N9+01611+99999100701ADDAA199000691AY161999GF108991021061008001021999MD1110021+9999
0050723755031031949090319004+35133-111667SAO  +2137FLG  V0202251N005712200019N0320001N1+02461+00631101151ADDGF100991999999999999999999MA1999999079111MW1001
017699999913735194909050900E+39367-075067SAO  +002299999V02018059002652200059N011200599+01725+01675101865ADDAA101000095GF100995999999999999999999MA1999999101595EQDN01 00000JPWTH 1QNNG11U1 99999K11 1 00062L11 1 00700M11 1 30000N11 1 00000Q11 1 10186S11 1 00063V11 1 00099W11 1 55005
0043945680999991949061705004-27633+152717FM-12+002699999V0201801N003619999999N0200001N9+01781+01331999999ADDAY101999GF108991081999012501999999MW1001
0057272420999991949121421004+58483+041533FM-12+009799999V0202001N00261012301CN0040001N9-00391+99999102821ADDAY121999GF108991081051012501999999MD1310041+9999MW1051
0051315320999991949102618004+50817+132167FM-12+023499999V0209991C00001220001CN9999999N9-00501+99999101491ADDAY111999GF108991001001999999071999MD1310021+9999
0377999999932111949060221005+37733-122200SAO  +0002NBJ  V02027059009852200059N024000599+02894+01065101644ADDGA1999+060964004GA2999+999999999GA3999+999999999GA4999+999999999GD19025+9999999GD29005+9999999GD39005+9999999GD49005+9999999GF102995999999999999999999MA1999999101634EQDN01 00000JPWTH 1QNNE11 1 09902E11 1 09900E11 1 09900E11 1 09900G11U1 99999H11 1 32200H11 1 00999H11 1 00999H11 1 00999K11 1 00051L11 1 01500M11 1 30010N11 1 00000Q11 1 10164S11 1 00084V11 1 00299W11 1 77019
0165999999266271949040123005+63883-160800SAO  +0006UNK  V02031559005752200059N032000599-01895-02115101075ADDGF100995999999999999999999MA1999999101025EQDN01 00000JPWTH 1QNNG11U1 99999K11 1-00006L11 1 02000M11 1 29830N11 1 00000Q11 1 10107S11 1-00002V11 1 00099W11 1 88011
0089236310999991949120818004+63933+065050FM-12+002099999V0202001N00671220001CN9999999N9-01221+99999103001ADDAY111999GF101991999001999999041001IA1319KA1999M-01001MD1710021+9999EQDQ01+000002SCOTLC
0051467520999991949122721004+22033+120733SAO  +0013RCKW V0200451N012310060019N0040001N1+99999+99999999999ADDGA1061+006009059GF107991999999999999999999MW1001
0165999999931111949082304005+34117-119117SAO  +000599999V02031559001052200059N016000599+01614+01445101174ADDGF100995999999999999999999MA1999999101124EQDN01 00000JPWTH 1QNNG11U1 99999K11 1 00058L11 1 01000M11 1 29860N11 1 00000Q11 1 10117S11 1 00061V11 1 00099W11 1 88002
0043355350999991949111918004+48467+058583FM-12+040499999V0203601N00261220001CN0100001N9-00721+99999104791ADDAY121999GF100991001001999999001001IA1139
0377999999232451949061618005+99999+999999SAO  +999999999V02027059005250030549N016000599+01395+01225100955ADDGA1999+003054074GA2999+999999999GA3999+999999999GA4999+999999999GD19065+9999999GD29005+9999999GD39005+9999999GD49005+9999999GF106995999999999999999999MA1999999100305EQDN01 00000JPWTH 1QNNE11 1 09908E11 1 09900E11 1 09900E11 1 09900G11 1 00010H11 1 16010H11 1 00999H11 1 00999H11 1 00999K11 1 00054L11 1 01000M11 1 29620N11 1 00000Q11 1 10095S11 1 00057V11 1 00899W11 1 77010
0043481120999991949121503004+09967+098583FM-12+004799999V0200801N003119999999N0400001N9+02781+02281101321ADDAY111999GF104991011011012501031061MW1021
0377999999138531949100413005+32133-081200SAO  +001699999V02006859002650762049N016000599+02115+01895102135ADDGA1999+036584034GA2999+076204004GA3999+999999999GA4999+999999999GD19015+9999999GD29065+9999999GD39005+9999999GD49005+9999999GF106995999999999999999999MA1999999101965EQDN01 00000JPWTH 1QNNE11 1 09901E11 1 09907E11 1 09900E11 1 09900G11 1 00250H11 1 23120H11 1 32250H11 1 00999H11 1 00999K11 1 00066L11 1 01000M11 1 30110N11 1 00000Q11 1 10213S11 1 00070V11 1 00899W11 1 32005
0165999999265101949121517005+62967-155617SAO  +0104MCG  V02099999000050365849N024000599-02615-03335102375ADDGF106995999999999999999999MA1999999100985EQDN01 00000JPWTH 1QNNG11 1 00120K11 1-00028L11 1 01500M11 1 29820N11 1 00000Q11 1 10237S11 1-00015V11 1 00899W11 1 00000
0165999999215041949122221005+19717-155067SAO  +001299999V02002359002652200059N024000599+02335+01835101125ADDGF102995999999999999999999MA1999999100985EQDN01 00000JPWTH 1QNNG11U1 99999K11 1 00065L11 1 01500M11 1 29820N11 1 00000Q11 1 10112S11 1 00074V11 1 00399W11 1 12005
0383724810232031949040919003+37367-120567SAO  +0054MER  V02099999000052200059N0096005N9+02065+01445102305ADDGA1001+999999999GA2999+999999999GA3999+999999999GA4999+999999999GD19005+9999999GD29005+9999999GD39005+9999999GD49005+9999999GF100995999999999999999999MA1999999101665MW1055EQDN01 08100JPWTH 1QNNE11 1 09900E11 1 09900E11 1 09900E11 1 09900G11U1 99999H11 1 00999H11 1 00999H11 1 00999H11 1 00999K11 1 00058L11 1 00600M11 1 30020N11 1 08100Q11 1 10230S11 1 00069V11 1 00099W11 1 00000
0171999999938241949082723005+39950-081900SAO  +0268ZZV  V02033859001550137249N011200599+02224+02065101494ADDGF108995999999999999999999MA1999999098244MW1805EQDN01 02300JPWTH 1QNNG11 1 00045K11 1 00069L11 1 00700M11 1 29010N11 1 02300Q11 1 10149S11 1 00072V11 1 01099W11 1 18003
0165999999137331949121917005+37333-079200SAO  +029199999V02036059001052200059N048000599+01615+01065102245ADDGF100995999999999999999999MA1999999098815EQDN01 00000JPWTH 1QNNG11U1 99999K11 1 00051L11 1 03000M11 1 29180N11 1 00000Q11 1 10224S11 1 00061V11 1 00099W11 1 11002
018272509014739194908292200C+42367-071033SAO  +0013BOS  V02022559006250213449N0240005N9+02335+02005100515ADDAA101000095GF106995999999999999999999MA1999999100415MW1001EQDN01 00000JPWTH 1QNNG11 1 00070K11 1 00068L11 1 01500M11 1 29650N11 1 00000Q11 1 10051S11 1 00074V11 1 00899W11 1 66012
017699999924036194905202300E+47050-109450SAO  +125999999V02031559008850609649N064000599+01395+00725101125ADDAA101000095GF108995999999999999999999MA1999999086935EQDN01 00000JPWTH 1QNNG11 1 00200K11 1 00045L11 1 04000M11 1 25670N11 1 00000Q11 1 10112S11 1 00057V11 1 01099W11 1 88017
017699999924152194907112000E+45500-118400SAO  +1234MEH  V02027059005252200059N024000599+02785+00505101635ADDAA101000095GF104995999999999999999999MA1999999087915EQDN01 00000JPWTH 1QNNG11U1 99999K11 1 00041L11 1 01500M11 1 25960N11 1 00000Q11 1 10163S11 1 00082V11 1 00599W11 1 77010
017699999912917194904092300E+29950-094017SAO  +0009BPT  V02015859006250243849N024000599+02175+01785101195ADDAA101000095GF108995999999999999999999MA1999999101125EQDN01 00000JPWTH 1QNNG11 1 00080K11 1 00064L11 1 01500M11 1 29860N11 1 00000Q11 1 10119S11 1 00071V11 1 01099W11 1 54012
0017484560999991949020112004+13917+100600FM-12+000399999V0201801N003119999999N9999999N9+99999+99999999999ADDAY101999MW1001
0054219210999991949012106004+70683+127400FM-12+003099999V0209991C00001220001CN0040001N9-04611+99999102191ADDAA199000691AY171999GF108991001001999999021071MW1711
0165999999128501949040813005+24583-081683SAO  +000899999V02004559004652200059N019200599+02285+01445102075ADDGF102995999999999999999999MA1999999102035EQDN01 00000JPWTH 1QNNG11U1 99999K11 1 00058L11 1 01200M11 1 30130N11 1 00000Q11 1 10207S11 1 00073V11 1 00399W11 1 22009
010572256013959194908021800A+31617-097217SAO  +0155ACT  V0202931N004610090019N0240001N1+02801+01741101321ADDAA101000095GA1051+009009059GA2061+027009039GF107991999999999999999999MA1999999099661MW1171MW2801MW3951
017699999913996194905090500E+39067-095633SAO  +0267TOP  V02020359003652200059N024000599+01445+01175100915ADDAA101000095GF104995999999999999999999MA1999999097775EQDN01 00000JPWTH 1QNNG11U1 99999K11 1 00053L11 1 01500M11 1 28870N11 1 00000Q11 1 10091S11 1 00058V11 1 00599W11 1 56007
0060744900147021949071303004+42467-071283SAO  +0045BED  V0202001N004610660019N0160001N9+02131+01851101421ADDGA1081+066009009GF108991999999999999999999MA1999999100951
0066106370999991949081007004+50033+008583SAO  +0110EDDF V0209991C000012200019N0160001N9+01671+01221102541ADDGA1021+030009039GF102991999999999999999999MA1999999101191MW1001
0106101290999991949010818004+53567+008550FM-12+001199999V0202201N00981004501CN0080001N9+00501+00501100801ADDAA199000591AY121999GF108991081061004501999999IA1089KA1999M+00611MD1810111+9999MW1801EQDQ01+082091APOA  
017699999923068194911181900E+38233-104633SAO  +146599999V02099999000050914449N160000599+02065-00565102205ADDAA101000095GF108995999999999999999999MA1999999085915EQDN01 00000JPWTH 1QNNG11 1 00300K11 1 00022L11G1 10000M11 1 25370N11 1 00000Q11 1 10220S11 1 00069V11 1 01099W11 1 00000
0050034820999991949043018004+52650+000567SAO  +0023EGYM V0200231N005112200019N0144001N1+00801+00461102941ADDGF100991999999999999999999MA1999999102741MW1001
038899999913956194909021500E+32333-090217SAO  +010299999V02006859003152200059N024000599+02785+01505101935ADDAA101000095GA1999+999999999GA2999+999999999GA3999+999999999GA4999+999999999GD19005+9999999GD29005+9999999GD39005+9999999GD49005+9999999GF100995999999999999999999MA1999999100785EQDN01 00000JPWTH 1QNNE11 1 09900E11 1 09900E11 1 09900E11 1 09900G11U1 99999H11 1 00999H11 1 00999H11 1 00999H11 1 00999K11 1 00059L11 1 01500M11 1 29760N11 1 00000Q11 1 10193S11 1 00082V11 1 00099W11 1 32006
017699999913987194907140000E+37150-094500SAO  +030199999V02002359003152200059N016000599+02725+02065101225ADDAA101000095GF100995999999999999999999MA1999999097735EQDN01 00000JPWTH 1QNNG11U1 99999K11 1 00069L11 1 01000M11 1 28860N11 1 00000Q11 1 10122S11 1 00081V11 1 00099W11 1 12006
0165999999137381949071122005+39000-079117SAO  +031499999V02027059001550304849N012800599+02785+02115101695ADDGF108995999999999999999999MA1999999098045EQDN01 00000JPWTH 1QNNG11 1 00100K11 1 00070L11 1 00800M11 1 28950N11 1 00000Q11 1 10169S11 1 00082V11 1 01099W11 1 77003
0351999999938371949100323005+30233-081667SAO  +0009NIP  V02004559004150762049N024000599+02564+02225101964ADDGA1999+003054154GA2999+076204004GA3999+999999999GA4999+999999999GD19025+9999999GD29055+9999999GD39005+9999999GD49005+9999999GF105995999999999999999999EQDN01 00000JPWTH 1QNNE11 1 09902E11 1 09906E11 1 09900E11 1 09900G11 1 00250H11 1 17010H11 1 32250H11 1 00999H11 1 00999K11 1 00072L11 1 01500N11 1 00000Q11 1 10196S11 1 00078V11 1 00699W11 1 22008
0051383960999991949012012004+41567+060567FM-12+009999999V0203601N00671001501CN0040001N9+00001+99999101641ADDAY121999GF108991081051001501999999MD1810181+9999
0082722860231191949051723004+33900-117250SAO  +0466RIV  V0201801N005110045019N0160001N9+01221+01051101051ADDGA1061+004509059GA2081+009009059GF108991999999999999999999MA1999999095631MW1001
0329999999264031949081220005+64850-147583SAO  +014199999V02022559001050137249N016000599+01065+01065101055ADDGA1999+001524074GA2999+013724064GD19025+9999999GD29065+9999999GD39999+9999999GD49999+9999999GF108995999999999999999999MA1999999099295MW1615EQDN01 02000JPWTH 1QNNE11 1 09903E11 1 09907E11 1 09999E11 1 09999G11 1 00045H11 1 16005H11 1 15045K11 1 00051L11 1 01000M11 1 29320N11 1 02000Q11 1 10105S11 1 00051V11 1 01099W11 1 66002
017699999914605194901261300E+44317-069800SAO  +0108AUG  V02004559003650365849N024000599-01445-02445103665ADDAA101000095GF108995999999999999999999MA1999999102245EQDN01 00000JPWTH 1QNNG11 1 00120K11 1-00012L11 1 01500M11 1 30190N11 1 00000Q11 1 10366S11 1 00006V11 1 01099W11 1 22007
017699999924138194905310900E+45250-112550SAO  +158699999V02013559003150198149N048000599+00675+00565100855ADDAA101000095GF106995999999999999999999MA1999999083545EQDN01 00000JPWTH 1QNNG11 1 00065K11 1 00042L11 1 03000M11 1 24670N11 1 00000Q11 1 10085S11 1 00044V11 1 00799W11 1 44006
0073061800999991949122203004+55617+012650FM-12+000599999V0202701N00411001501CN0080001N9+00391+00281102331ADDAY121999GA1081+001509079GF108991081061001501999999MD1310141+9999MW1021
0076042600999991949090307004+62000-049717FM-12+001699999V0201601N01441015001CN0700001N9+00721+00281101661ADDAY121999GF108991081061017501999999MD1011112+9999MW1601EQDQ01+001112APC3  
0177999999266171949082711005+64500-165433SAO  +0004OME  V02006859003150024449N004800599+00945+00895099865ADDGF108995999999999999999999MA1999999099805MW1455MW2615EQDN01 02070JPWTH 1QNNG11 1 00008K11 1 00048L11 1 00300M11 1 29470N11 1 02070Q11 1 09986S11 1 00049V11 1 01099W11 1 32006
017699999914944194907061000E+43567-096733SAO  +043499999V02018059003650365849N019200599+02445+02065100915ADDAA101000095GF106995999999999999999999MA1999999095975EQDN01 00000JPWTH 1QNNG11 1 00120K11 1 00069L11 1 01200M11 1 28340N11 1 00000Q11 1 10091S11 1 00076V11 1 00799W11 1 55007
0165999999939881949060920005+34167-091933SAO  +0063PBF  V02015859001550609649N016000599+02944+02175101694ADDGF106995999999999999999999MA1999999100954EQDN01 00000JPWTH 1QNNG11 1 00200K11 1 00071L11 1 01000M11 1 29810N11 1 00000Q11 1 10169S11 1 00085V11 1 00799W11 1 54003
0323999999947021949052700005+41167-073133SAO  +000899999V02015859004650182949N019200599+01334+01115101194ADDGA1999+010674064GA2999+018294064GD19035+9999999GD29085+9999999GD39999+9999999GD49999+9999999GF108995999999999999999999MA1999999101124EQDN01 00000JPWTH 1QNNE11 1 09904E11 1 09910E11 1 09999E11 1 09999G11 1 00060H11 1 15035H11 1 15060K11 1 00052L11 1 01200M11 1 29860N11 1 00000Q11 1 10119S11 1 00056V11 1 01099W11 1 54009
017699999924146194912291100E+48200-114317SAO  +090999999V02022559005752200059N024000599-00175-00505100885ADDAA101000095GF102995999999999999999999MA1999999090455EQDN01 00000JPWTH 1QNNG11U1 99999K11 1 00023L11 1 01500M11 1 26710N11 1 00000Q11 1 10088S11 1 00029V11 1 00299W11 1 66011
0383722250138291949111701003+32350-085000SAO  +0069LSF  V02099999000052200059N0160005N9+00835+00285101735ADDGA1001+999999999GA2999+999999999GA3999+999999999GA4999+999999999GD19005+9999999GD29005+9999999GD39005+9999999GD49005+9999999GF100995999999999999999999MA1999999100915MW1001EQDN01 00000JPWTH 1QNNE11 1 09900E11 1 09900E11 1 09900E11 1 09900G11U1 99999H11 1 00999H11 1 00999H11 1 00999H11 1 00999K11 1 00037L11 1 01000M11 1 29800N11 1 00000Q11 1 10173S11 1 00047V11 1 00099W11 1 00000
0043960350999991949102206004+03567+098683FM-12+002699999V0200201N000519999999N0100001N9+03281+02331100651ADDAY121999GF105991031011008001071091MW1021
0066744910147031949091809004+42200-072533SAO  +0075CEF  V0209991C000012200019N0080001N9+01131+00961101631ADDGA1001+999999999GF100991999999999999999999MA1999999100781MW1451
0383702610264111949032519003+64833-147717SAO  +0135FAI  V02009059001550182949N0320005N1-00115-00335099635ADDGA1071+015244064GA2999+999999999GA3999+999999999GA4999+999999999GD19075+9999999GD29005+9999999GD39005+9999999GD49005+9999999GF106085999999999999999999MA1999999097935MW1001EQDN01 00000JPWTH 1QNNE11 1 09909E11 1 09900E11 1 09900E11 1 09900G11 1 00060H11 1 15050H11 1 00999H11 1 00999H11 1 00999K11 1 00026L11 1 02000M11 1 28920N11 1 00000Q11 1 09963S11 1 00030V11 1 00810W11 1 33003
018299999914750194909231000E+43350-073617SAO  +0104GFL  V02027059001050012249N000600599+01225+01225100475ADDAA101000095GF108995999999999999999999MA1999999099265MW1455EQDN01 07000JPWTH 1QNNG11 1 00004K11 1 00054L11 1 00038M11 1 29310N11 1 07000Q11 1 10047S11 1 00054V11 1 01099W11 1 77002
0377999999146011949070718005+44800-068817SAO  +004799999V02002359005750121949N096000599+02335+01675101765ADDGA1999+012194084GA2999+999999999GA3999+999999999GA4999+999999999GD19065+9999999GD29005+9999999GD39005+9999999GD49005+9999999GF106995999999999999999999MA1999999101195EQDN01 00000JPWTH 1QNNE11 1 09908E11 1 09900E11 1 09900E11 1 09900G11 1 00040H11 1 11040H11 1 00999H11 1 00999H11 1 00999K11 1 00062L11 1 06000M11 1 29880N11 1 00000Q11 1 10176S11 1 00074V11 1 00899W11 1 12011
0171723676230481949121412003+35183-103600SAO  +1236TCC  V02036059002150067149N0480005N1-00725-00945102985ADDGF108995999999999999999999MA1999999088595MW1001EQDN01 00000JPWTH 1QNNG11 1 00022K11 1 00015L11 1 03000M11 1 26160N11 1 00000Q11 1 10298S11 1 00019V11 1 01099W11 1 11004
0177999999139931949011507005+39767-094917SAO  +024799999V02018059004650000049N000000599+00565+00565100755ADDGF108995999999999999999999MA1999999097775MW1455MW2515EQDN01 03370JPWTH 1QNNG11 1 00000K11 1 00042L11 1 00000M11 1 28870N11 1 03370Q11 1 10075S11 1 00042V11 1 01099W11 1 55009
017699999924142194908290000E+42917-114767SAO  +112999999V02018059001550198149N048000599+02785+00565101425ADDAA101000095GF108995999999999999999999MA1999999088995EQDN01 00000JPWTH 1QNNG11 1 00065K11 1 00042L11 1 03000M11 1 26280N11 1 00000Q11 1 10142S11 1 00082V11 1 01099W11 1 55003
0165999999232261949081218005+39317-120333SAO  +219499999V02020359007252200059N048000599+01335+00005102105ADDGF100995999999999999999999MA1999999078705EQDN01 00000JPWTH 1QNNG11U1 99999K11 1 00032L11 1 03000M11 1 23240N11 1 00000Q11 1 10210S11 1 00056V11 1 00099W11 1 56014
0043645530999991949042112004-01633+013567FM-12+042699999V0202201N00101220001CN0200001N9+03111+02221100891ADDAY191999GF102991021031008001001001MW1171
0171702710264251949090808003+62150-145450SAO  +0481GKN  V02022559002650167649N0640005N1+00565+00505102105ADDGF106995999999999999999999MA1999999096245MW1001EQDN01 00000JPWTH 1QNNG11 1 00055K11 1 00041L11 1 04000M11 1 28420N11 1 00000Q11 1 10210S11 1 00042V11 1 00899W11 1 66005
031372525014852194902260600C+41250-080667SAO  +0359YNG  V02031559007250039649N0160005N9-00335-00615102615ADDAA101000095GA1081+003964064GD19085+9999999GD29999+9999999GD39999+9999999GD49999+9999999GF108995999999999999999999MA1999999098145MW1001EQDN01 00000JPWTH 1QNNE11 1 09910E11 1 09999E11 1 09999E11 1 09999G11 1 00013H11 1 15013K11 1 00021L11 1 01000M11 1 28980N11 1 00000Q11 1 10261S11 1 00026V11 1 01099W11 1 88014
017699999993989194908240300E+39933-091200SAO  +023499999V02015859001552200059N019200599+02114+01505101764ADDAA101000095GF100995999999999999999999MA1999999099024EQDN01 00000JPWTH 1QNNG11U1 99999K11 1 00059L11 1 01200M11 1 29240N11 1 00000Q11 1 10176S11 1 00070V11 1 00099W11 1 54003
0181999999147471949062614005+42500-079283SAO  +020699999V02027059004659999999N012800599+02565+02225101085ADDGF102995999999999999999999MA1999999098685EQDN01 00000JPWTH 1P01 030483SCOCIGQNNG11 1 00100K11 1 00072L11 1 00800M11 1 29140N11 1 00000Q11 1 10108S11 1 00078V11 1 00399W11 1 77009
0335999999253391949060400005+59517-139667SAO  +0009YAK  V02013559007750024449N004800599+00675+00565101865ADDGA1999+002444074GA2999+004574074GD19065+9999999GD29025+9999999GD39999+9999999GD49999+9999999GF108995999999999999999999MA1999999101735MW1455MW2615EQDN01 02070JPWTH 1QNNE11 1 09908E11 1 09902E11 1 09999E11 1 09999G11 1 00008H11 1 16008H11 1 16015K11 1 00042L11 1 00300M11 1 30040N11 1 02070Q11 1 10186S11 1 00044V11 1 01099W11 1 44015
0091233300999991949123006004+66533+066533FM-12+003599999V0209999999999007801CN0200001N9-02721+99999104071ADDAY121999GF108991081051008001999999IA1319KA1999N-03391EQDQ01+000032APCTENQ02+000002APC3  
0066404160999991949120909004+26283+050150SAO  +0023OEDR V0203601N003612200019N0240001N9+02351+01411101801ADDGA1011+012009089GF102991999999999999999999MA1999999101521MW1001
0383722535129091949050817003+29383-098567SAO  +0208SKF  V02011359003652200059N0224005N9+02565+01835101355ADDGA1021+006104084GA2011+027434034GA3999+999999999GA4999+999999999GD19025+9999999GD29015+9999999GD39005+9999999GD49005+9999999GF102995999999999999999999MA1999999098955MW1001EQDN01 00000JPWTH 1QNNE11 1 09902E11 1 09901E11 1 09900E11 1 09900G11U1 99999H11 1 11020H11 1 23090H11 1 00999H11 1 00999K11 1 00065L11 1 01400M11 1 29220N11 1 00000Q11 1 10135S11 1 00078V11 1 00399W11 1 34007
039472509014739194906120300C+42367-071033SAO  +0013BOS  V02022559007252200059N0160005N9+02115+01675101395ADDAA101000095GA1031+036584034GA2999+999999999GA3999+999999999GA4999+999999999GD19035+9999999GD29005+9999999GD39005+9999999GD49005+9999999GF103995999999999999999999MA1999999101295MW1001EQDN01 00000JPWTH 1QNNE11 1 09904E11 1 09900E11 1 09900E11 1 09900G11U1 99999H11 1 23120H11 1 00999H11 1 00999H11 1 00999K11 1 00062L11 1 01000M11 1 29910N11 1 00000Q11 1 10139S11 1 00070V11 1 00499W11 1 66014
0029852230999991949061818004-17383-066167FM-12+257199999V02099999999999999999N9999999N9+99999+99999999999ADDKA1999M+02721KA2999N+00221
0054485000999991949090606004+11800+099800FM-12+000599999V0202701N005119999999N0040001N9+02831+02281100771ADDAA124000691AY151999GF108991031051008001071999MW1501
0165999999939881949082601005+34167-091933SAO  +0063PBF  V02018059001550182949N012800599+02444+02065101734ADDGF105995999999999999999999MA1999999100984EQDN01 00000JPWTH 1QNNG11 1 00060K11 1 00069L11 1 00800M11 1 29820N11 1 00000Q11 1 10173S11 1 00076V11 1 00699W11 1 55003
018272341813977194910200700C+33450-094000SAO  +0112TXK  V02013559005750182949N0240005N1+02285+02115101525ADDAA101000095GF106995999999999999999999MA1999999100245MW1001EQDN01 00000JPWTH 1QNNG11 1 00060K11 1 00070L11 1 01500M11 1 29600N11 1 00000Q11 1 10152S11 1 00073V11 1 00899W11 1 44011
0171999999265291949011515005+65167-152100SAO  +0073TAL  V02004559006750182949N008000599-02395-03225101805ADDGF108995999999999999999999MA1999999100885MW1715EQDN01 04000JPWTH 1QNNG11 1 00060K11 1-00026L11 1 00500M11 1 29790N11 1 04000Q11 1 10180S11 1-00011V11 1 01099W11 1 22013
017672270023044194911180100B+31800-106400SAO  +120199999V02006859002152200059N080000599+01675-00285102575ADDAA101000095GF100995999999999999999999MA1999999089135EQDN01 00000JPWTH 1QNNG11U1 99999K11 1 00027L11 1 05000M11 1 26320N11 1 00000Q11 1 10257S11 1 00062V11 1 00099W11 1 32004
034072266013962194904290000C+32433-099683SAO  +0535ABI  V02036059005250067149N0240005N1+01675+01395101665ADDAA101000095GA1021+003664074GA2081+006714064GD19025+9999999GD29085+9999999GD39999+9999999GD49999+9999999GF108995999999999999999999MA1999999095535MW1001EQDN01 00000JPWTH 1QNNE11 1 09902E11 1 09910E11 1 09999E11 1 09999G11 1 00022H11 1 16012H11 1 15022K11 1 00057L11 1 01500M11 1 28210N11 1 00000Q11 1 10166S11 1 00062V11 1 01099W11 1 11010
0111109630999991949101606004+47500+011100FM-12+070899999V0201801N00261220001CN0400001N9+00611+00501102591ADDAY121999GF103991001001999999001051IA1009KA1999N+00611MD1310041+9999MW1021EQDQ01+082091APOA  Q02+000002APC3  
0165999999139861949051722005+38067-097867SAO  +046499999V02018059008850365849N024000599+02335+01895100785ADDGF108995999999999999999999MA1999999095465EQDN01 00000JPWTH 1QNNG11 1 00120K11 1 00066L11 1 01500M11 1 28190N11 1 00000Q11 1 10078S11 1 00074V11 1 01099W11 1 55017
0066722695999991949110909004+32283-106917SAO  +1358LRU  V0202701N007710660019N0240001N1+01741-00531100881ADDGA1081+066009029GF108991999999999999999999MA1999999086791MW1001
039472519014771194907050900C+43117-076117SAO  +0130SYR  V02029359001550128049N0160005N9+02175+01945101425ADDAA101000095GA1061+012804064GA2999+999999999GA3999+999999999GA4999+999999999GD19065+9999999GD29005+9999999GD39005+9999999GD49005+9999999GF106995999999999999999999MA1999999099975MW1001EQDN01 00000JPWTH 1QNNE11 1 09908E11 1 09900E11 1 09900E11 1 09900G11 1 00042H11 1 15042H11 1 00999H11 1 00999H11 1 00999K11 1 00067L11 1 01000M11 1 29520N11 1 00000Q11 1 10142S11 1 00071V11 1 00899W11 1 78003
0050788071999991949020412004+08967-079550SAO  +0012MBLB V0209991C000012200019N0192001N1+02351+02021101121ADDGF100991999999999999999999MA1999999101051MW1001
0066404160999991949060713004+26283+050150SAO  +0023OEDR V0200201N008212200019N0160001N9+03631+01801100311ADDGA1001+999999999GF100991999999999999999999MA1999999100031MW1001
0035727834999991949032505004+47783-116817SAO  +0707COE  V0201581N003112200019N0480001N1+00301-00091999999ADDGF100991999999999999999999MW1001
0383724586139221949072516003+38800-097633SAO  +0384SLN  V02020359011352200059N0240005N1+03225+02115101255ADDGA1021+018294064GA2999+999999999GA3999+999999999GA4999+999999999GD19025+9999999GD29005+9999999GD39005+9999999GD49005+9999999GF102995999999999999999999MA1999999096885MW1001EQDN01 00000JPWTH 1QNNE11 1 09903E11 1 09900E11 1 09900E11 1 09900G11U1 99999H11 1 15060H11 1 00999H11 1 00999H11 1 00999K11 1 00070L11 1 01500M11 1 28610N11 1 00000Q11 1 10125S11 1 00090V11 1 00399W11 1 56022
0051293560999991949030721004+57367+089150FM-12+015099999V0209991C00001220001CN9999999N9-03001+99999102901ADDAY101999GF100991001001999999001001MD1310061+9999
0128999999148161949101101005+41233-089617SAO  +0242BDF  V02020359004652200059N024000599+01335+00895999999ADDGF100995999999999999999999EQDN01 00000JPWTH 1QNNG11U1 99999K11 1 00048L11 1 01500N11 1 00000S11 1 00056V11 1 00099W11 1 56009
0177999999038151949012222005+30483-087350SAO  +002899999V02011359003650012249N006400599+02005+01835102515ADDGF108995999999999999999999MA1999999102075MW1045MW2455EQDN01 07082JPWTH 1QNNG11 1 00004K11 1 00065L11 1 00400M11 1 30140N11 1 07082Q11 1 10251S11 1 00068V11 1 01099W11 1 34007
017699999912839194902262000E+25817-080283SAO  +000799999V02013559004150487749N012800599+02615+01445101495ADDAA101000095GF108995999999999999999999MA1999999101465EQDN01 00000JPWTH 1QNNG11 1 00160K11 1 00058L11 1 00800M11 1 29960N11 1 00000Q11 1 10149S11 1 00079V11 1 01099W11 1 44008
0115687280999991949061906004-32350+022583FM-12+090099999V0202901N01291036001CN0160001N9+01331+00561999999ADDAA124000091AY141999GF107991021051008001071061KA1999M+01611KA2999N+01331MD1210151+9999MW1051REMSYN0121400GDM= 105
0043689140999991949050712004-34200+018433FM-12+029399999V0209991C00001036001CN0110001N9+01671+01501101571ADDAY141999GF108991011051002501091061MW1401
0165999999242281949100213005+99999+999999SAO  +999999999V02022559002152200059N032000599+00725+00565102005ADDGF101995999999999999999999MA1999999101905EQDN01 00000JPWTH 1QNNG11U1 99999K11 1 00042L11 1 02000M11 1 30090N11 1 00000Q11 1 10200S11 1 00045V11 1 00199W11 1 66004
0259999999147801949093010005+40033-074317SAO  +003799999V02029359003650146349N016000599+01175+00945101485ADDGA1999+014634074GD19085+9999999GD29999+9999999GD39999+9999999GD49999+9999999MA1999999101025EQDN01 00000JPWTH 1QNNE11 1 09910E11 1 09999E11 1 09999E11 1 09999G11 1 00048H11 1 16048K11 1 00049L11 1 01000M11 1 29830N11 1 00000Q11 1 10148S11 1 00053W11 1 78007
0076315320999991949122812004+50817+132167FM-12+023499999V0209991C00001220001CN9999999N9-04391+99999102251ADDAY141999GF100991001001999999001001IA1319KA1999M-03611MD1310181+9999MW1441
0088999999949101949110118005+42550-092400SAO  +026599999V02029359008852200049N024000599+01564+00005999999EQDN01 00000JPWTH 1QNNG11U1 99999K11 1 00032L11 1 01500N11 1 00000S11 1 00060W11 1 78017
0050723625930571949073000004+35167-107900SAO  +0087GNT  V0203151N004612200019N1200001N1+03241+00581101121ADDGF102991999999999999999999MA1999999080291MW1001
018272654614946194912182300C+44917-097150SAO  +0532ATY  V02009059002150015249N0064005N1-00725-00835101935ADDAA101000095GF108995999999999999999999MA1999999095365MW1715EQDN01 04000JPWTH 1QNNG11 1 00005K11 1 00017L11 1 00400M11 1 28160N11 1 04000Q11 1 10193S11 1 00019V11 1 01099W11 1 33004
0086314230999991949102921004+52900+158867FM-12+001599999V0202701N00461004501CN0040001N9-00611+99999101311ADDAY121999GF106991061011004501001001MD1710041+9999EQDQ01+000032APCTENQ02+000002APC3  
017699999924230194907270800E+44267-121150SAO  +094099999V02099999000052200059N024000599+01005+00505101395ADDAA101000095GF100995999999999999999999MA1999999090765EQDN01 00000JPWTH 1QNNG11U1 99999K11 1 00041L11 1 01500M11 1 26800N11 1 00000Q11 1 10139S11 1 00050V11 1 00099W11 1 00000
0062307290999991949052806004+52050+106483FM-12+046999999V0203201N00101220001CN0200001N9+01781+99999100301ADDAA199000691AY111999GF101991001001999999001031MD1710321+9999
0073984390999991949122706004+14117+122950FM-12+001199999V0200701N00461220001CN0200001N9+02721+02331100681ADDAY161999GA1021+004509099GF107991021031004501071061MD1610281+9999MW1151
018299999914848194901140900E+41700-086317SAO  +023499999V02022559002152200059N004800599-00335-00335101595ADDAA101000095GF100995999999999999999999MA1999999098685MW1045EQDN01 08200JPWTH 1QNNG11U1 99999K11 1 00026L11 1 00300M11 1 29140N11 1 08200Q11 1 10159S11 1 00026V11 1 00099W11 1 66004
0050749071999991949091519004+36017-076567SAO  +0006EDE  V0202251N002110540019N0080001N1+03071+02241101541ADDGF107991999999999999999999MA1999999101421MW1051
017699999924036194910211700E+47050-109450SAO  +125999999V02022559006252200059N080000599+00175-00225101865ADDAA101000095GF101995999999999999999999MA1999999087135EQDN01 00000JPWTH 1QNNG11U1 99999K11 1 00028L11 1 05000M11 1 25730N11 1 00000Q11 1 10186S11 1 00035V11 1 00199W11 1 66012
0165999999947041949100910005+42583-077717SAO  +0199DSV  V02015859005252200059N012800599+01394+01285102134ADDGF100995999999999999999999MA1999999099634EQDN01 00000JPWTH 1QNNG11U1 99999K11 1 00055L11 1 00800M11 1 29420N11 1 00000Q11 1 10213S11 1 00057V11 1 00099W11 1 54010
0094035810999991949120607004+52483+000517FM-12+001499999V0202701N00511220001CN0120001N9+00441+00221101031ADDAY161999GF108991999001999999021001MW1601EQDQ01+000002SCOTLCQ02+000042APCTENQ03+000052APC3  
0165999999241181949072115005+41400-110417SAO  +213799999V02004559001552200059N096000599+01565-00065101865ADDGF100995999999999999999999MA1999999079115EQDN01 00000JPWTH 1QNNG11U1 99999K11 1 00031L11 1 06000M11 1 23360N11 1 00000Q11 1 10186S11 1 00060V11 1 00099W11 1 22003
0098702650999991949041522004+64650-147067SAO  +0164PAEI V0203401N002610750019N1126541N9+00391-00331101151ADDGA1011+009009089GA2021+030009039GA3021+075009029GF107991999999999999999999MA1999999099051MW1001
0078040040999991949122912004+64917-023883FM-12+001299999V0200901N00261012301CN0400001N9+00001+99999999999ADDAY121061GA1999+000159999GF105991051071012501001001MW1021EQDQ01    003SCCGA1
0177999999938141949092211005+39050-084667SAO  +027199999V02022559002150137249N004800599+01114+01005101634ADDGF108995999999999999999999MA1999999098484MW1055MW2815EQDN01 02481JPWTH 1QNNG11 1 00045K11 1 00050L11 1 00300M11 1 29080N11 1 02481Q11 1 10163S11 1 00052V11 1 01099W11 1 66004
0082475800999991949102721004+40700+141367SAO  +0037RJSM V0200201N004110105019N0160001N9+01131+01071101121ADDGA1071+010509059GA2081+030009049GF108991999999999999999999MA1999999100681MW1001
017699999924142194902192300E+42917-114767SAO  +112999999V02011359005752200059N048000599+00225-00115101695ADDAA101000095GF100995999999999999999999MA1999999088695EQDN01 00000JPWTH 1QNNG11U1 99999K11 1 00030L11 1 03000M11 1 26190N11 1 00000Q11 1 10169S11 1 00036V11 1 00099W11 1 34011
007772469023062194912071800A+39750-104867SAO  +1625DEN  V0203151N003612200019N0240001N1+00411-01591102071ADDAA101000095GA1021+024009059GF102991999999999999999999MA1999999083541MW1001
0051306360999991949012206004+53617+109633FM-12+048699999V0209991C00001220001CN0500001N9-01721+99999102871ADDAY111999GF100991001001999999001001MD1810141+9999
0177999999937201949031104005+38333-075517SAO  +0021SBY  V02002359007250009149N002400599+00674+00675099704ADDGF108995999999999999999999MA1999999099494MW1455MW2635EQDN01 02170JPWTH 1QNNG11 1 00003K11 1 00044L11 1 00150M11 1 29380N11 1 02170Q11 1 09970S11 1 00044V11 1 01099W11 1 12014
0066722866231221949041118004+34100-117250SAO  +0334SBD  V0200501N003610600019N0960001N9+02851+01241101761ADDGA1051+060009009GF107991999999999999999999MA1999999097901MW1001
0165999999231671949031507005+36733-119817SAO  +008699999V02033859001550670649N024000599+01285+01005101525ADDGF108995999999999999999999MA1999999100475EQDN01 00000JPWTH 1QNNG11 1 00220K11 1 00050L11 1 01500M11 1 29670N11 1 00000Q11 1 10152S11 1 00055V11 1 01099W11 1 18003
0051303090999991949060306004+56067+101833FM-12+032699999V0200501N00261024001CN0500001N9+01781+99999101041ADDAY111999GF108991081001999999011999MD1810081+9999
0078321950999991949011121004+46850+151867FM-12+002699999V0209991C00001220001CN0100001N9-00611+99999102151ADDAY171999GF108991001001999999021999MW1711EQDQ01+000032APCTENQ02+000002APC3  
018299999993821194910190400E+38183-085733SAO  +014899999V02031559000550914449N008000599+01614+01505102174ADDAA101000095GF105995999999999999999999MA1999999100414MW1045EQDN01 08000JPWTH 1QNNG11 1 00300K11 1 00059L11 1 00500M11 1 29650N11 1 08000Q11 1 10217S11 1 00061V11 1 00699W11 1 88001
0165999999137731949120320005+38500-077317SAO  +000499999V02031559004152200059N024000599+00675-00445103095ADDGF100995999999999999999999MA1999999103055EQDN01 00000JPWTH 1QNNG11U1 99999K11 1 00024L11 1 01500M11 1 30430N11 1 00000Q11 1 10309S11 1 00044V11 1 00099W11 1 88008
0324999999433091949070202005+35833+139417SAO  +0094RJTJ V02011359006250061049N009600599+02005+99999100815ADDGA1999+006104154GA2999+012194064GD19065+9999999GD29085+9999999GD39999+9999999GD49999+9999999GF108995999999999999999999MA1999999099805MW1055MW2615EQDN01 02081JPWTH 1QNNE11 1 09908E11 1 09910E11 1 09999E11 1 09999G11 1 00020H11 1 17020H11 1 15040L11 1 00600M11 1 29470N11 1 02081Q11 1 10081S11 1 00068V11 1 01099W11 1 34012
0165999999930261949033018005+31467-109600SAO  +1249DUG  V02099999000052200059N088000599+01284-00615101494ADDGF100995999999999999999999MA1999999087474EQDN01 00000JPWTH 1QNNG11U1 99999K11 1 00021L11 1 05500M11 1 25830N11 1 00000Q11 1 10149S11 1 00055V11 1 00099W11 1 00000
006172207003822194903170400D+32017-081133SAO  +0016SAV  V0201801N003612200019N0192001N9+00691+00301102441ADDAA101000095GF100991999999999999999999MA1999999102241MW1001
0165999999139781949033018005+33500-090200SAO  +003999999V02020359007250457249N024000599+02445+01945101055ADDGF108995999999999999999999MA1999999100585EQDN01 00000JPWTH 1QNNG11 1 00150K11 1 00067L11 1 01500M11 1 29700N11 1 00000Q11 1 10105S11 1 00076V11 1 01099W11 1 56014
0066724835232061949012614004+38550-121300SAO  +0027MHR  V0200701N003612200019N0160001N9-00151-00371102471ADDGA1001+999999999GF100991999999999999999999MA1999999102131MW1001
0165999999147701949033002005+40900-076783SAO  +013599999V02015859003652200059N019200599+01285+00615101735ADDGF100995999999999999999999MA1999999100035EQDN01 00000JPWTH 1QNNG11U1 99999K11 1 00043L11 1 01200M11 1 29540N11 1 00000Q11 1 10173S11 1 00055V11 1 00099W11 1 54007
0308999999038131949020500005+32700-083650SAO  +0108MCN  V02099999000050091449N004800599+01445+01335101595ADDGA1999+009144054GD19085+9999999GD29999+9999999GD39999+9999999GD49999+9999999GF108995999999999999999999MA1999999100275MW1455MW2615EQDN01 02070JPWTH 1QNNE11 1 09910E11 1 09999E11 1 09999E11 1 09999G11 1 00030H11 1 22030K11 1 00056L11 1 00300M11 1 29610N11 1 02070Q11 1 10159S11 1 00058V11 1 01099W11 1 00000
0377999999147101949101213005+42933-071433SAO  +0071MHT  V02018059006252200059N014400599+02065+01725101195ADDGA1999+999999999GA2999+999999999GA3999+999999999GA4999+999999999GD19005+9999999GD29005+9999999GD39005+9999999GD49005+9999999GF100995999999999999999999MA1999999100345EQDN01 00000JPWTH 1QNNE11 1 09900E11 1 09900E11 1 09900E11 1 09900G11U1 99999H11 1 00999H11 1 00999H11 1 00999H11 1 00999K11 1 00063L11 1 00900M11 1 29630N11 1 00000Q11 1 10119S11 1 00069V11 1 00099W11 1 55012
0160701740265331949012805003+66917-151517SAO  +0196BTT  V02031559001552200059N0320005N1-02395-02785999999ADDGF103995999999999999999999MA1999999099155MW1001EQDN01 00000JPWTH 1QNNG11U1 99999K11 1-00018L11 1 02000M11 1 29280N11 1 00000S11 1-00011V11 1 00499W11 1 88003
017699999993989194903211500E+39933-091200SAO  +023499999V02018059011350243849N016000599+01444+00565100984ADDAA101000095GF108995999999999999999999MA1999999098214EQDN01 00000JPWTH 1QNNG11 1 00080K11 1 00042L11 1 01000M11 1 29000N11 1 00000Q11 1 10098S11 1 00058V11 1 01099W11 1 55022
0377999999931061949111821005+33800-118117SAO  +001799999V02022559004652200059N012800599+02894+00565101844ADDGA1999+999999999GA2999+999999999GA3999+999999999GA4999+999999999GD19005+9999999GD29005+9999999GD39005+9999999GD49005+9999999GF100995999999999999999999MA1999999101764EQDN01 00000JPWTH 1QNNE11 1 09900E11 1 09900E11 1 09900E11 1 09900G11U1 99999H11 1 00999H11 1 00999H11 1 00999H11 1 00999K11 1 00042L11 1 00800M11 1 30050N11 1 00000Q11 1 10184S11 1 00084V11 1 00099W11 1 66009
0082912500999991949092712004+11350+162350SAO  +0005PKMA V0200901N009312200019N0192001N1+02801+02631101051ADDGA1011+006009089GA2041+075009029GF102991999999999999999999MA1999999101051MW1801
038899999924131194908152100E+43567-116217SAO  +087199999V02031559004652200059N048000599+03005+00675101125ADDAA101000095GA1999+024384084GA2999+036584034GA3999+999999999GA4999+999999999GD19005+9999999GD29005+9999999GD39005+9999999GD49005+9999999GF100995999999999999999999MA1999999091365EQDN01 00000JPWTH 1QNNE11 1 09900E11 1 09900E11 1 09900E11 1 09900G11U1 99999H11 1 11080H11 1 23120H11 1 00999H11 1 00999K11 1 00044L11 1 03000M11 1 26980N11 1 00000Q11 1 10112S11 1 00086V11 1 00099W11 1 88009
0165999999241611949032504005+45867-112100SAO  +043099999V02027059006752200059N048000599-00175-00565101195ADDGF100995999999999999999999MA1999999085205EQDN01 00000JPWTH 1QNNG11U1 99999K11 1 00022L11 1 03000M11 1 25160N11 1 00000Q11 1 10119S11 1 00029V11 1 00099W11 1 77013
0066404160999991949072720004+26283+050150SAO  +0023OEDR V0202301N003112200019N0160001N9+02961+02911099631ADDGA1001+999999999GF100991999999999999999999MA1999999099361MW1001
017699999913745194908280700E+35217-075683SAO  +000399999V02013559002152200059N016000599+02565+02445101935ADDAA101000095GF102995999999999999999999MA1999999101905EQDN01 00000JPWTH 1QNNG11U1 99999K11 1 00076L11 1 01000M11 1 30090N11 1 00000Q11 1 10193S11 1 00078V11 1 00399W11 1 44004
0082749205999991949042118004+52217-174200SAO  +0011ATK  V0201581N008710021019N0048001N1+00461+00411102001ADDGA1061+002109059GA2021+021009049GF108991999999999999999999MA1999999101861MW1451
0383999999116301949082309005+18250-065633SAO  +002099999V02033859004152200059N012800599+02505+02285101105ADDGA1999+009144084GA2999+999999999GA3999+999999999GA4999+999999999GD19045+9999999GD29005+9999999GD39005+9999999GD49005+9999999GF104995999999999999999999MA1999999100885MW1805EQDN01 02300JPWTH 1QNNE11 1 09905E11 1 09900E11 1 09900E11 1 09900G11U1 99999H11 1 11030H11 1 00999H11 1 00999H11 1 00999K11 1 00073L11 1 00800M11 1 29790N11 1 02300Q11 1 10110S11 1 00077V11 1 00599W11 1 18008
0066745160232021949022105004+38267-121933SAO  +0019SUU  V0202301N002610090019N0240001N9+01001+00721102371ADDGA1061+009009059GF107991999999999999999999MA1999999102171MW1001
0051317350999991949092118004+48517+135167FM-12+007299999V0209991C00001220001CN0200001N9+00891+99999102611ADDAY101999GF100991001001999999001001MD1110021+9999
0383702610264111949052003003+64833-147717SAO  +0135FAI  V02029359005752200059N1440005N1+01895+00175101735ADDGA1999+045724034GA2999+999999999GA3999+999999999GA4999+999999999GD19005+9999999GD29005+9999999GD39005+9999999GD49005+9999999GF100085999999999999999999MA1999999100035MW1001EQDN01 00000JPWTH 1QNNE11 1 09900E11 1 09900E11 1 09900E11 1 09900G11U1 99999H11 1 23150H11 1 00999H11 1 00999H11 1 00999K11 1 00035L11 1 09000M11 1 29540N11 1 00000Q11 1 10173S11 1 00066V11 1 00010W11 1 78011
0066476710999991949091422004+35550+139783SAO  +0008RJTT V0203601N005112200019N0080001N1+01851+01571102541ADDGA1041+066009009GF102991999999999999999999MA1999999102441MW1051
0063853150999991949080112004-20083-063533FM-12+091499999V0209991C00001220001CN0600001N9+01281+01111101241ADDAY101999GF100991001001999999001001IA1009MD1310121+9999MW1021
0165999999931111949073005005+34117-119117SAO  +000599999V02004559000552200059N024000599+01564+01395101634ADDGF101995999999999999999999MA1999999101564EQDN01 00000JPWTH 1QNNG11U1 99999K11 1 00057L11 1 01500M11 1 29990N11 1 00000Q11 1 10163S11 1 00060V11 1 00199W11 1 22001
0070309710999991949110921004+50917+117933FM-12+079599999V0202301N00261220001CN0200001N9-01781+99999102271ADDAY111999GF101991999001999999041001MD1810121+9999EQDQ01+000002SCOTLC
018299999993822194910051000E+39833-089667SAO  +0179SPI  V02009059004650003049N000200599+01784+01785101764ADDAA101000095GF108995999999999999999999MA1999999099564MW1455EQDN01 07000JPWTH 1QNNG11 1 00001K11 1 00064L11 1 00012M11 1 29400N11 1 07000Q11 1 10176S11 1 00064V11 1 01099W11 1 33009
0165999999147561949101501005+41250-070067SAO  +0015ACK  V02009059003150045749N019200599+01445+01175102375ADDGF108995999999999999999999MA1999999102345EQDN01 00000JPWTH 1QNNG11 1 00015K11 1 00053L11 1 01200M11 1 30220N11 1 00000Q11 1 10237S11 1 00058V11 1 01099W11 1 33006
0165999999931061949062013005+33800-118117SAO  +001799999V02004559002652200059N011200599+00944+00835101514ADDGF100995999999999999999999MA1999999101324EQDN01 00000JPWTH 1QNNG11U1 99999K11 1 00047L11 1 00700M11 1 29920N11 1 00000Q11 1 10151S11 1 00049V11 1 00099W11 1 22005
039499999924011194904120900E+46767-100750SAO  +050799999V02033859002152200059N006400599+00945+00395100615ADDAA101000095GA1999+042674034GA2999+999999999GA3999+999999999GA4999+999999999GD19035+9999999GD29005+9999999GD39005+9999999GD49005+9999999GF103995999999999999999999MA1999999094755MW1055EQDN01 08100JPWTH 1QNNE11 1 09904E11 1 09900E11 1 09900E11 1 09900G11U1 99999H11 1 23140H11 1 00999H11 1 00999H11 1 00999K11 1 00039L11 1 00400M11 1 27980N11 1 08100Q11 1 10061S11 1 00049V11 1 00499W11 1 18004
0165999999241261949051222005+41200-112017SAO  +135499999V02024859002150365849N064000599+02005+00785101355ADDGF108995999999999999999999MA1999999086425EQDN01 00000JPWTH 1QNNG11 1 00120K11 1 00046L11 1 04000M11 1 25520N11 1 00000Q11 1 10135S11 1 00068V11 1 01099W11 1 76004
017699999993814194909092200E+39050-084667SAO  +027199999V02002359003652200059N024000599+02224+00725102004ADDAA101000095GF104995999999999999999999MA1999999098784EQDN01 00000JPWTH 1QNNG11U1 99999K11 1 00045L11 1 01500M11 1 29170N11 1 00000Q11 1 10200S11 1 00072V11 1 00599W11 1 12007
0057612900999991949091412004+12633-008033FM-12+033299999V0201801N00511220001CN0200001N9+02721+02111101431ADDAY121999GF105991011051012501001041MD1010021+9999MW1021
0165999999225251949101102005+20833-156467SAO  +004099999V02004559007752200059N032000599+02725+01835101665ADDGF101995999999999999999999MA1999999101295EQDN01 00000JPWTH 1QNNG11U1 99999K11 1 00065L11 1 02000M11 1 29910N11 1 00000Q11 1 10166S11 1 00081V11 1 00199W11 1 22015
0082467430999991949012905004+23000+120217SAO  +0000RCNN V0203151N004612200019N0096001N1+02241+01741101721ADDGA1021+039009039GA2021+057009009GF102991999999999999999999MA1999999101391MW1001
0067031350999991949083121004+55500-004583SAO  +0020EGPK V0201801N006719999999N0192001N1+01461+01241100701ADDGA1041+012009059GA2999+999999039GF108991999999999999999999MW1001
0066723550139451949082203004+34650-098383SAO  +0360FSI  V0209991C000012200019N0320001N9+02221+01111101861ADDGA1001+999999999GF100991999999999999999999MA1999999097631MW1001
0070320880999991949080309004+49083+142067FM-12+005399999V0201801N00261007801CN0100001N9+00782+99999100781ADDAY121999GF108991081051008001999001MD1210602+9999EQDQ01+000602APC3  
017699999913897194904140400E+36117-086683SAO  +017799999V02024859004650609649N024000599+01785+01225100645ADDAA101000095GF108995999999999999999999MA1999999098485EQDN01 00000JPWTH 1QNNG11 1 00200K11 1 00054L11 1 01500M11 1 29080N11 1 00000Q11 1 10064S11 1 00064V11 1 01099W11 1 76009
0165999999240401949042209005+46117-107517SAO  +087999999V02018059002150182949N048000599+00785+00065101495ADDGF108995999999999999999999MA1999999091365EQDN01 00000JPWTH 1QNNG11 1 00060K11 1 00033L11 1 03000M11 1 26980N11 1 00000Q11 1 10149S11 1 00046V11 1 01099W11 1 55004
0057307770999991949022400004+52267+117700FM-12+046599999V0209991C00001220001CN0100001N9-02221+99999102661ADDAY101999GF100991001001999999001001MD1310181+9999MW1051
0050710740999991949020606004+78783-103533FM-12+002599999V0203201N010319999999N0006001N9-03171-03391999999ADDGF105991051999000251999999MA1999999100611MW1391
017699999923070194910140500E+37250-104333SAO  +1749TAD  V02018059002652200059N064000599+00565-00065102375ADDAA101000095GF100995999999999999999999MA1999999083175EQDN01 00000JPWTH 1QNNG11U1 99999K11 1 00031L11 1 04000M11 1 24560N11 1 00000Q11 1 10237S11 1 00042V11 1 00099W11 1 55005
0165999999240401949080510005+46117-107517SAO  +087999999V02013559001552200059N048000599+02005+01175100985ADDGF102995999999999999999999MA1999999091235EQDN01 00000JPWTH 1QNNG11U1 99999K11 1 00053L11 1 03000M11 1 26940N11 1 00000Q11 1 10098S11 1 00068V11 1 00299W11 1 44003
0066107380999991949031405004+48683+009200SAO  +0399EDDS V0202301N008710075019N0128001N9+00521+00411101731ADDGA1081+007509059GF108991999999999999999999MA1999999096851MW1001
017699999993808194907201200E+36967-086433SAO  +016499999V02099999000050304849N019200599+02394+02175101594ADDAA101000095GF106995999999999999999999MA1999999099704EQDN01 00000JPWTH 1QNNG11 1 00100K11 1 00071L11 1 01200M11 1 29440N11 1 00000Q11 1 10159S11 1 00075V11 1 00899W11 1 00000
0098108580999991949080914004+48200+011267SAO  +0519EDSF V0203151N008712200019N0096001N1+03131+01461101421ADDGA1021+018009089GA2021+030009039GA3031+060009009GF102991999999999999999999MA1999999095631MW1051
0165999999139901949103117005+38433-095800SAO  +035299999V02033859004152200059N016000599+00445-00395102845ADDGF100995999999999999999999MA1999999098515EQDN01 00000JPWTH 1QNNG11U1 99999K11 1 00025L11 1 01000M11 1 29090N11 1 00000Q11 1 10284S11 1 00040V11 1 00099W11 1 18008
0165724370938231949091121005+99999+999999SAO  +999999999V02015859005250274349N024000599+02335+01175102005ADDGF108995999999999999999999MA1999999099865EQDN01 00000JPWTH 1QNNG11 1 00090K11 1 00053L11 1 01500M11 1 29490N11 1 00000Q11 1 10200S11 1 00074V11 1 01099W11 1 54010
0165999999138831949112005005+33983-081000SAO  +006999999V02022559004652200059N024000599+00835-00285101695ADDGF100995999999999999999999MA1999999100885EQDN01 00000JPWTH 1QNNG11U1 99999K11 1 00027L11 1 01500M11 1 29790N11 1 00000Q11 1 10169S11 1 00047V11 1 00099W11 1 66009
0377999999231871949061412005+34750-118733SAO  +1379SDB  V02031559007752200059N040000599+02225+00395100985ADDGA1999+999999999GA2999+999999999GA3999+999999999GA4999+999999999GD19005+9999999GD29005+9999999GD39005+9999999GD49005+9999999GF100995999999999999999999MA1999999086185EQDN01 00000JPWTH 1QNNE11 1 09900E11 1 09900E11 1 09900E11 1 09900G11U1 99999H11 1 00999H11 1 00999H11 1 00999H11 1 00999K11 1 00039L11 1 02500M11 1 25450N11 1 00000Q11 1 10098S11 1 00072V11 1 00099W11 1 88015
017699999994746194911131300E+42267-071867SAO  +030099999V02006859001550097549N019200599+00064-00225102684ADDAA101000095GF108995999999999999999999MA1999999098854EQDN01 00000JPWTH 1QNNG11 1 00032K11 1 00028L11 1 01200M11 1 29190N11 1 00000Q11 1 10268S11 1 00033V11 1 01099W11 1 32003
009372256013959194908171400A+31617-097217SAO  +0155ACT  V0201351N003610420019N0240001N1+02571+02181101351ADDAA101000095GA1021+007509089GA2071+042009039GF107991999999999999999999MA1999999099701MW1001
0050749070999991949022404004+39433-077450SAO  +0100FDK  V0203381N006212200019N0112001N1+00461+00131102571ADDGF100991999999999999999999MA1999999101321MW1001
039472509014739194903150000C+42367-071033SAO  +0013BOS  V02029359005252200059N0176005N9+00675-00675101445ADDAA101000095GA1999+999999999GA2999+999999999GA3999+999999999GA4999+999999999GD19005+9999999GD29005+9999999GD39005+9999999GD49005+9999999GF100995999999999999999999MA1999999101325MW1001EQDN01 00000JPWTH 1QNNE11 1 09900E11 1 09900E11 1 09900E11 1 09900G11U1 99999H11 1 00999H11 1 00999H11 1 00999H11 1 00999K11 1 00020L11 1 01100M11 1 29920N11 1 00000Q11 1 10144S11 1 00044V11 1 00099W11 1 78010
0114747750138461949081001004+30067-085583SAO  +0008PAM  V0200501N002110300019N0240001N9+02631+02411101561ADDGA1021+007509059GA2021+021009039GA3061+030009049GA4081+060009029GF108991999999999999999999MA1999999101491MW1001
0113852680999991949080912004-18317-059733FM-12+030099999V0201801N00621220001CN0400001N9+01781+01111101201ADDAY121999GF108991999001999999021001IA1089KA1999N+01721MW1211EQDQ01+000002SCOTLCQ02+000042APCTENQ03+000402APC3  
0292999999938411949021823005+99999+999999SAO  +999999999V02004559004150036649N009600599+01834+01395102054ADDGA1999+004274074GA2999+007014064GD19065+9999999GD29025+9999999GD39999+9999999GD49999+9999999MA1999999101294MW1055EQDN01 08100JPWTH 1QNNE11 1 09908E11 1 09902E11 1 09999E11 1 09999G11 1 00012H11 1 16014H11 1 15023K11 1 00057L11 1 00600M11 1 29910N11 1 08100Q11 1 10205S11 1 00065W11 1 22008
0070316240999991949010612004+49400+133233FM-12+019899999V0203201N00461220001CN9999999N9-01891+99999101461ADDAY101999GF107991001001999999041011IA1319KA1999M-01221MD1110061+9999
018299999913894194901161000E+30683-088233SAO  +006699999V02011359003650006149N000800599+01505+01505101965ADDAA101000095GF108995999999999999999999MA1999999101155MW1455EQDN01 07000JPWTH 1QNNG11 1 00002K11 1 00059L11 1 00050M11 1 29870N11 1 07000Q11 1 10196S11 1 00059V11 1 01099W11 1 34007
0302704540257041949111202003+51950-176600SAO  +0032PADK V02024859004150061049N0112005N9+00615+00505100315ADDGA1081+006104064GD19085+9999999GD29999+9999999GD39999+9999999GD49999+9999999GF108995999999999999999999MA1999999100245MW1001EQDN01 00000JPWTH 1QNNE11 1 09910E11 1 09999E11 1 09999E11 1 09999G11 1 00020H11 1 15020K11 1 00041L11 1 00700M11 1 29600N11 1 00000Q11 1 10031S11 1 00043V11 1 01099W11 1 76008
0171999999137711949100117005+39883-075167SAO  +0006MUV  V02006859005252200059N009600599+02115+00835103105ADDGF100995999999999999999999MA1999999103055MW1045EQDN01 08200JPWTH 1QNNG11U1 99999K11 1 00047L11 1 00600M11 1 30430N11 1 08200Q11 1 10310S11 1 00070V11 1 00099W11 1 32010
039472356013968194903150000C+36200-095900SAO  +0206TUL  V02002359005752200059N0112005N1+00895+00225102345ADDAA101000095GA1999+999999999GA2999+999999999GA3999+999999999GA4999+999999999GD19005+9999999GD29005+9999999GD39005+9999999GD49005+9999999GF100995999999999999999999MA1999999099835MW1001EQDN01 00000JPWTH 1QNNE11 1 09900E11 1 09900E11 1 09900E11 1 09900G11U1 99999H11 1 00999H11 1 00999H11 1 00999H11 1 00999K11 1 00036L11 1 00700M11 1 29480N11 1 00000Q11 1 10234S11 1 00048V11 1 00099W11 1 12011
0165999999240161949122705005+42917-106333SAO  +161399999V02024859010352200059N096000599-00895-01395101865ADDGF100995999999999999999999MA1999999083445EQDN01 00000JPWTH 1QNNG11U1 99999K11 1 00007L11 1 06000M11 1 24640N11 1 00000Q11 1 10186S11 1 00016V11 1 00099W11 1 76020
0089104380999991949030503004+51317+009450FM-12+019799999V0209991C00001015001CN0060001N9-00891-01111102991ADDAY171031GA1061+015009059GA2061+015009059GF106991061051017501999999MD1710111+9999MW1101
0066747880128101949111902004+27850-082500SAO  +0003KMCF V0203601N003112200019N0192001N9+01111+00501102241ADDGA1001+999999999GF100991999999999999999999MA1999999102201MW1001
0009711010999991949100518004+53250-131817SAO  +0006CYZP V0202251N004610240019N0160001N1+01021+00911099721ADDMW1001
0165040180162011949032905005+63967-022600SAO  +0050BIKF V02024859001550064049N032000599+00335+00285101205ADDGF108995999999999999999999MA1999999100515EQDN01 00000JPWTH 1QNNG11 1 00021K11 1 00037L11 1 02000M11 1 29680N11 1 00000Q11 1 10120S11 1 00038V11 1 01099W11 1 76003
017699999913980194912312100E+37167-098083SAO  +040399999V02099999000050045749N016000599+01225+01005102245ADDAA101000095GF108995999999999999999999MA1999999097395EQDN01 00000JPWTH 1QNNG11 1 00015K11 1 00050L11 1 01000M11 1 28760N11 1 00000Q11 1 10224S11 1 00054V11 1 01099W11 1 00000
0066475910999991949021501004+38400+141217SAO  +0003RJST V0203151N013410075019N0240001N1+00461+00351099261ADDGA1051+007509059GF107991999999999999999999MA1999999099221MW1001
0165999999139821949052422005+39783-093500SAO  +023599999V02033859005252200059N024000599+01785+00615102135ADDGF100995999999999999999999MA1999999099295EQDN01 00000JPWTH 1QNNG11U1 99999K11 1 00043L11 1 01500M11 1 29320N11 1 00000Q11 1 10213S11 1 00064V11 1 00099W11 1 18010
017699999924156194902072300E+42917-112533SAO  +135699999V02024859009852200059N012800599-00725-01225100885ADDAA101000095GF102995999999999999999999MA1999999085205EQDN01 00000JPWTH 1QNNG11U1 99999K11 1 00010L11 1 00800M11 1 25160N11 1 00000Q11 1 10088S11 1 00019V11 1 00299W11 1 76019
0065948210999991949011323003-37733+140783FM-12+0020YMMG V0200501N002619999999N0200001N9+01561+01561999999ADDAY161999GA1035+001805999GF107991031999002501999999MW1615MW2631
0076360340999991949121018004+51500+081217FM-12+021599999V0201801N00101220001CN9999999N9-03221+99999999999ADDAY101999GF100991001001999999001001IA1309KA1999M-02781MD1310041+9999MW1051
0165999999139921949061123005+38883-091433SAO  +026999999V02018059007250762049N024000599+02395+02005101255ADDGF106995999999999999999999MA1999999098105EQDN01 00000JPWTH 1QNNG11 1 00250K11 1 00068L11 1 01500M11 1 28970N11 1 00000Q11 1 10125S11 1 00075V11 1 00899W11 1 55014
0087347310999991949122506004+47250+039650FM-12+007799999V0203201N00461036001CN0040001N9-00221+99999101141ADDAA199001091AY171999GF108991041051002501051001IA1309KA1999N-00391MD1310121+9999MW1701
0171999999241261949100806005+41200-112017SAO  +135499999V02013559003150076249N016000599+00285+00115101055ADDGF108995999999999999999999MA1999999085885MW1615EQDN01 02000JPWTH 1QNNG11 1 00025K11 1 00034L11 1 01000M11 1 25360N11 1 02000Q11 1 10105S11 1 00037V11 1 01099W11 1 44006
0165999999136021949120413005+32267-064850SAO  +0013MYUN V02033859007750106749N019200599+01785+01065102215ADDGF107995999999999999999999MA1999999102075EQDN01 00000JPWTH 1QNNG11 1 00035K11 1 00051L11 1 01200M11 1 30140N11 1 00000Q11 1 10221S11 1 00064V11 1 00999W11 1 18015
038899999914944194907261800E+43567-096733SAO  +043499999V02018059004650609649N024000599+02675+01895100885ADDAA101000095GA1999+012194084GA2999+030484034GA3999+060964024GA4999+999999999GD19005+9999999GD29045+9999999GD39025+9999999GD49005+9999999GF106995999999999999999999MA1999999095905EQDN01 00000JPWTH 1QNNE11 1 09900E11 1 09905E11 1 09903E11 1 09900G11 1 00200H11 1 11040H11 1 23100H11 1 37200H11 1 00999K11 1 00066L11 1 01500M11 1 28320N11 1 00000Q11 1 10088S11 1 00080V11 1 00899W11 1 55009
0066725300948461949052719004+41983-087900SAO  +0186ORD  V0200201N004612200019N0160001N9+01411+00521101801ADDGA1041+024009039GF102991999999999999999999MA1999999099421MW1001
0043948640999991949020311004-37733+144900FM-12+008299999V0201801N004119999999N0350001N9+01781+01561999999ADDAY101999GF100991001001999999999999MW1001
0171999999931111949100311005+34117-119117SAO  +000599999V02002359002652200059N000100599+01064+01005101144ADDGF100995999999999999999999MA1999999101084MW1445EQDN01 07200JPWTH 1QNNG11U1 99999K11 1 00050L11 1 00006M11 1 29850N11 1 07200Q11 1 10114S11 1 00051V11 1 00099W11 1 12005
0165999999128331949072817005+29633-083100SAO  +0013CTY  V02020359002152200059N024000599+03335+02285102105ADDGF104995999999999999999999MA1999999101965EQDN01 00000JPWTH 1QNNG11U1 99999K11 1 00073L11 1 01500M11 1 30110N11 1 00000Q11 1 10210S11 1 00092V11 1 00599W11 1 56004
0050914130403081949112417004+09483+138083SAO  +0017PTYA V0200451N002610900019N0160001N1+02631+02411100851ADDGF107991999999999999999999MA1999999100641MW1001
0165999999930421949051408005+36017-102550SAO  +1218DHT  V02033859005250213449N024000599+01284+01005101324ADDGF108995999999999999999999MA1999999087844EQDN01 00000JPWTH 1QNNG11 1 00070K11 1 00050L11 1 01500M11 1 25940N11 1 00000Q11 1 10132S11 1 00055V11 1 01099W11 1 18010
0078359980999991949111812004+45050+074033FM-12+034799999V0203201N00461000151CN0002001N9-00501+99999103451ADDAY141999GF109991091001000251999999MW1471EQDQ01+000032APCTENQ02+000002APC3  
0066749126999991949112421004+63950-022617SAO  +005999999V0201351N007710048019N0240001N1+00691+00461101731ADDGA1081+004809079GF108991999999999999999999MA1999999101021MW1511
039472250012919194911130600C+25900-097433SAO  +0010BRO  V02031559005752200059N0192005N1+01505-00115101905ADDAA101000095GA1999+999999999GA2999+999999999GA3999+999999999GA4999+999999999GD19005+9999999GD29005+9999999GD39005+9999999GD49005+9999999GF100995999999999999999999MA1999999101835MW1001EQDN01 00000JPWTH 1QNNE11 1 09900E11 1 09900E11 1 09900E11 1 09900G11U1 99999H11 1 00999H11 1 00999H11 1 00999H11 1 00999K11 1 00030L11 1 01200M11 1 30070N11 1 00000Q11 1 10190S11 1 00059V11 1 00099W11 1 88011
017699999924144194904232300E+46600-112000SAO  +1167HLN  V02018059004650213449N064000599+02505-00115100645ADDAA101000095GF108995999999999999999999MA1999999087375EQDN01 00000JPWTH 1QNNG11 1 00070K11 1 00030L11 1 04000M11 1 25800N11 1 00000Q11 1 10064S11 1 00077V11 1 01099W11 1 55009
0082702650999991949091103004+64650-147067SAO  +0164PAEI V0201101N002110600019N0643741N9+01671+00111101001ADDGA1021+030009049GA2061+060009029GF107991999999999999999999MA1999999098951MW1001
017699999913995194910111000E+37233-093383SAO  +038699999V02009059001550064049N019200599+01835+01785100955ADDAA101000095GF108995999999999999999999MA1999999096485EQDN01 00000JPWTH 1QNNG11 1 00021K11 1 00064L11 1 01200M11 1 28490N11 1 00000Q11 1 10095S11 1 00065V11 1 01099W11 1 33003
018272344013964194902260800C+35333-094367SAO  +0136FSM  V02006859003152200059N0240005N1+00505+00225102075ADDAA101000095GF102995999999999999999999MA1999999100415MW1001EQDN01 00000JPWTH 1QNNG11U1 99999K11 1 00036L11 1 01500M11 1 29650N11 1 00000Q11 1 10207S11 1 00041V11 1 00299W11 1 32006
0383727755241121949042704003+47517-111167SAO  +1051GFA  V02013559004652200059N0800005N9+01115-00835101565ADDGA1021+091444004GA2999+999999999GA3999+999999999GA4999+999999999GD19025+9999999GD29005+9999999GD39005+9999999GD49005+9999999GF102995999999999999999999MA1999999089605MW1001EQDN01 00000JPWTH 1QNNE11 1 09902E11 1 09900E11 1 09900E11 1 09900G11U1 99999H11 1 32300H11 1 00999H11 1 00999H11 1 00999K11 1 00017L11 1 05000M11 1 26460N11 1 00000Q11 1 10156S11 1 00052V11 1 00299W11 1 44009
0165999999241261949012212005+41200-112017SAO  +135499999V02031559002650152449N012800599-00615-00895101085ADDGF108995999999999999999999MA1999999085545EQDN01 00000JPWTH 1QNNG11 1 00050K11 1 00016L11 1 00800M11 1 25260N11 1 00000Q11 1 10108S11 1 00021V11 1 01099W11 1 88005
0165999999147751949062610005+42167-072717SAO  +008599999V02022559002152200059N016000599+02285+02225100545ADDGF102995999999999999999999MA1999999099565EQDN01 00000JPWTH 1QNNG11U1 99999K11 1 00072L11 1 01000M11 1 29400N11 1 00000Q11 1 10054S11 1 00073V11 1 00299W11 1 66004
0177999999047251949091811005+99999+999999SAO  +999999999V02002359002150304849N006400599+01285+01285101525ADDGF108995999999999999999999MA1999999098485MW1445MW2805EQDN01 02372JPWTH 1QNNG11 1 00100K11 1 00055L11 1 00400M11 1 29080N11 1 02372Q11 1 10152S11 1 00055V11 1 01099W11 1 12004
0165999999147701949120203005+40900-076783SAO  +013599999V02099999000050365849N012800599-00505-00615102035ADDGF108995999999999999999999MA1999999100305EQDN01 00000JPWTH 1QNNG11 1 00120K11 1 00021L11 1 00800M11 1 29620N11 1 00000Q11 1 10203S11 1 00023V11 1 01099W11 1 00000
017699999923182194910261200E+34633-118083SAO  +077099999V02018059001552200059N056000599+00395-00565101935ADDAA101000095GF100995999999999999999999MA1999999093095EQDN01 00000JPWTH 1QNNG11U1 99999K11 1 00022L11 1 03500M11 1 27490N11 1 00000Q11 1 10193S11 1 00039V11 1 00099W11 1 55003
0165999999241331949020507005+42533-113767SAO  +1267BYI  V02027059006750213449N011200599-00675-01115100685ADDGF107995999999999999999999MA1999999086155EQDN01 00000JPWTH 1QNNG11 1 00070K11 1 00012L11 1 00700M11 1 25440N11 1 00000Q11 1 10068S11 1 00020V11 1 00999W11 1 77013
0165999999139921949042004005+38883-091433SAO  +026999999V02013559006250762049N016000599+00445+00065102475ADDGF106995999999999999999999MA1999999099155EQDN01 00000JPWTH 1QNNG11 1 00250K11 1 00033L11 1 01000M11 1 29280N11 1 00000Q11 1 10247S11 1 00040V11 1 00799W11 1 44012
0177999999138701949053022005+31533-082517SAO  +0062AMG  V02029359001550036649N012800599+02005+01895101565ADDGF108995999999999999999999MA1999999100815MW1615MW2955EQDN01 01020JPWTH 1QNNG11 1 00012K11 1 00066L11 1 00800M11 1 29770N11 1 01020Q11 1 10156S11 1 00068V11 1 01099W11 1 78003
017699999914944194905101100E+43567-096733SAO  +043499999V02006859001552200059N024000599+00505+00115102445ADDAA101000095GF102995999999999999999999MA1999999097265EQDN01 00000JPWTH 1QNNG11U1 99999K11 1 00034L11 1 01500M11 1 28720N11 1 00000Q11 1 10244S11 1 00041V11 1 00299W11 1 32003
013999999924139194903261300E+46617-113200SAO  +129399999V02031559003650167649N072000599-00565-00835999999ADDAA101000095GF106995999999999999999999EQDN01 00000JPWTH 1QNNG11 1 00055K11 1 00017L11 1 04500N11 1 00000S11 1 00022V11 1 00799W11 1 88007
017699999913970194901291700E+30533-091150SAO  +0020BTR  V02002359010350076249N019200599+00175-00335103185ADDAA101000095GF108995999999999999999999MA1999999102915EQDN01 00000JPWTH 1QNNG11 1 00025K11 1 00026L11 1 01200M11 1 30390N11 1 00000Q11 1 10318S11 1 00035V11 1 01099W11 1 12020
0089106880999991949052215004+49683+012183FM-12+040299999V0203401N00411003001CN0080001N9+01501+01111100911ADDAY121031GA1081+003009079GA2081+003009079GF108991081061004501999999MD1810111+9999MW1051
0165999999932111949072120005+37733-122200SAO  +0002NBJ  V02029359002652200059N016000599+01944+01065101534ADDGF100995999999999999999999MA1999999101494EQDN01 00000JPWTH 1QNNG11U1 99999K11 1 00051L11 1 01000M11 1 29970N11 1 00000Q11 1 10153S11 1 00067V11 1 00099W11 1 78005
0097295740999991949112818004+56000+092883FM-12+019499999V0202701N00101220001CN0040001N9-03111+99999103201ADDAY101999GF102991001001999999001011IA1159KA1999M-02391MW1051EQDQ01+000032APCTENQ02+000002APC3  
0165999999138671949071201005+39267-081567SAO  +018899999V02004559001050304849N016000599+02615+01835101565ADDGF106995999999999999999999MA1999999098485EQDN01 00000JPWTH 1QNNG11 1 00100K11 1 00065L11 1 01000M11 1 29080N11 1 00000Q11 1 10156S11 1 00079V11 1 00899W11 1 22002
0171722687930331949030400003+32333-104267SAO  +0986CNM  V02018059006250762049N0800005N1+02065+00225101565ADDGF108995999999999999999999MA1999999090385MW1001EQDN01 00000JPWTH 1QNNG11 1 00250K11 1 00036L11 1 05000M11 1 26690N11 1 00000Q11 1 10156S11 1 00069V11 1 01099W11 1 55012
007772256013959194902071600A+31617-097217SAO  +0155ACT  V0202031N001512200019N0192001N1+00741+00131102131ADDAA101000095GA1011+060009009GF102991999999999999999999MA1999999100371MW1001
017699999914825194902120700E+41017-083667SAO  +0245FDY  V02015859008250609649N012800599-00065-00565102075ADDAA101000095GF106995999999999999999999MA1999999099055EQDN01 00000JPWTH 1QNNG11 1 00200K11 1 00022L11 1 00800M11 1 29250N11 1 00000Q11 1 10207S11 1 00031V11 1 00899W11 1 54016
018299999914734194911101700E+40700-074167SAO  +0002EWR  V02024859006752200059N006400599+01785+00785101765ADDAA101000095GF100995999999999999999999MA1999999101665MW1045EQDN01 08000JPWTH 1QNNG11U1 99999K11 1 00046L11 1 00400M11 1 30020N11 1 08000Q11 1 10176S11 1 00064V11 1 00099W11 1 76013
0383722680230091949061608003+33300-104517SAO  +1111ROW  V02020359005252200059N0240005N1+02285+01225100755ADDGA1999+999999999GA2999+999999999GA3999+999999999GA4999+999999999GD19005+9999999GD29005+9999999GD39005+9999999GD49005+9999999GF100995999999999999999999MA1999999088795MW1001EQDN01 00000JPWTH 1QNNE11 1 09900E11 1 09900E11 1 09900E11 1 09900G11U1 99999H11 1 00999H11 1 00999H11 1 00999H11 1 00999K11 1 00054L11 1 01500M11 1 26220N11 1 00000Q11 1 10075S11 1 00073V11 1 00099W11 1 56010
0072314450999991949063021004+51450+128117FM-12+019799999V0209991C00001220001CN0040001N9+01501+99999100541ADDAY121999GF108991001001999999001071EQDQ01+000042APCTENQ02+000142APC3  
039472658014922194911031800C+44883-093217SAO  +0254MSP  V02020359007750213449N0240005N9+00395-00675101425ADDAA101000095GA1061+021344034GA2999+999999999GA3999+999999999GA4999+999999999GD19065+9999999GD29005+9999999GD39005+9999999GD49005+9999999GF106995999999999999999999MA1999999098275MW1001EQDN01 00000JPWTH 1QNNE11 1 09907E11 1 09900E11 1 09900E11 1 09900G11 1 00070H11 1 23070H11 1 00999H11 1 00999H11 1 00999K11 1 00020L11 1 01500M11 1 29020N11 1 00000Q11 1 10142S11 1 00039V11 1 00799W11 1 56015
0165999999938031949090618005+35967-085783SAO  +032999999V02006859002152200059N040000599+02784+02005101564ADDGF103995999999999999999999MA1999999097774EQDN01 00000JPWTH 1QNNG11U1 99999K11 1 00068L11 1 02500M11 1 28870N11 1 00000Q11 1 10156S11 1 00082V11 1 00499W11 1 32004
0165999999264131949042423005+66583-145300SAO  +012899999V02027059002152200059N024000599-00285-01005100755ADDGF100995999999999999999999MA1999999099155EQDN01 00000JPWTH 1QNNG11U1 99999K11 1 00014L11 1 01500M11 1 29280N11 1 00000Q11 1 10075S11 1 00027V11 1 00099W11 1 77004
0070308230999991949111315004+51800+107433FM-12+051099999V0209991C00001075001CN0200001N9-02221+99999102781ADDAY121999GF108991021051017501001071MD1310021+9999EQDQ01+000002APC3  
0089040030999991949012418004+65550-024017FM-12+004899999V0201401N01541000151CN0001001N9-00221+99999999999ADDAA199000391AY171061GA1999+000159999GF109991091999000251999999MW1731EQDQ01    003SCCGA1
017699999914848194904181800E+41700-086317SAO  +023499999V02033859007750027449N019200599+00285+00175101255ADDAA101000095GF108995999999999999999999MA1999999098375EQDN01 00000JPWTH 1QNNG11 1 00009K11 1 00035L11 1 01200M11 1 29050N11 1 00000Q11 1 10125S11 1 00037V11 1 01099W11 1 18015
017699999923232194909210700E+38517-121500SAO  +000799999V02004559001552200059N024000599+02225+01005101295ADDAA101000095GF108995999999999999999999MA1999999101195EQDN01 00000JPWTH 1QNNG11U1 99999K11 1 00050L11 1 01500M11 1 29880N11 1 00000Q11 1 10129S11 1 00072V11 1 01099W11 1 22003
017699999914745194909251100E+43200-071517SAO  +010899999V02031559001052200059N048000599+00395+00285102245ADDAA101000095GF100995999999999999999999MA1999999100915EQDN01 00000JPWTH 1QNNG11U1 99999K11 1 00037L11 1 03000M11 1 29800N11 1 00000Q11 1 10224S11 1 00039V11 1 00099W11 1 88002
0043286450999991949090912004+55150+061150FM-12+023099999V0202901N00461002401CN0100001N9+01111+99999101681ADDAY161999GF108991071031002501021999MW1611
016599999914859194909111200E+46617-085917SAO  +025599999V02015859005750762049N019200599+01675+01065999999ADDAA101000095GF108995999999999999999999MA1999999099055EQDN01 00000JPWTH 1QNNG11 1 00250K11 1 00051L11 1 01200M11 1 29250N11 1 00000S11 1 00062V11 1 01099W11 1 54011
0383722525129201949031706003+27533-099467SAO  +0152LRD  V02013559005252200059N0240005N1+02065+01565101255ADDGA1011+060964004GA2999+999999999GA3999+999999999GA4999+999999999GD19015+9999999GD29005+9999999GD39005+9999999GD49005+9999999GF101995999999999999999999MA1999999099465MW1001EQDN01 00000JPWTH 1QNNE11 1 09901E11 1 09900E11 1 09900E11 1 09900G11U1 99999H11 1 32200H11 1 00999H11 1 00999H11 1 00999K11 1 00060L11 1 01500M11 1 29370N11 1 00000Q11 1 10125S11 1 00069V11 1 00199W11 1 44010
017699999914945194912050200E+40450-095367SAO  +028299999V02015859001552200059N024000599-00225-00835103055ADDAA101000095GF100995999999999999999999MA1999999099565EQDN01 00000JPWTH 1QNNG11U1 99999K11 1 00017L11 1 01500M11 1 29400N11 1 00000Q11 1 10305S11 1 00028V11 1 00099W11 1 54003
017699999913896194911181600E+34750-087617SAO  +017199999V02033859005752200059N016000599+00675-00285102615ADDAA101000095GF100995999999999999999999MA1999999100515EQDN01 00000JPWTH 1QNNG11U1 99999K11 1 00027L11 1 01000M11 1 29680N11 1 00000Q11 1 10261S11 1 00044V11 1 00099W11 1 18011
0165999999139901949071519005+38433-095800SAO  +035299999V02036059006750091449N016000599+02565+01835101495ADDGF106995999999999999999999MA1999999097395EQDN01 00000JPWTH 1QNNG11 1 00030K11 1 00065L11 1 01000M11 1 28760N11 1 00000Q11 1 10149S11 1 00078V11 1 00899W11 1 11013
017699999914757194908091900E+41633-073883SAO  +004999999V02029359001550609649N024000599+03675+02175101025ADDAA101000095GF106995999999999999999999MA1999999100445EQDN01 00000JPWTH 1QNNG11 1 00200K11 1 00071L11 1 01500M11 1 29660N11 1 00000Q11 1 10102S11 1 00098V11 1 00899W11 1 78003
039470261026411194911102200C+64833-147717SAO  +0135FAI  V02099999000050152449N0320005N1-00895-01005100315ADDAA101000095GA1061+015244064GA2081+036584044GA3999+999999999GA4999+999999999GD19065+9999999GD29085+9999999GD39005+9999999GD49005+9999999GF108085999999999999999999MA1999999098515MW1715EQDN01 04000JPWTH 1QNNE11 1 09908E11 1 09910E11 1 09900E11 1 09900G11 1 00050H11 1 15050H11 1 21120H11 1 00999H11 1 00999K11 1 00014L11 1 02000M11 1 29090N11 1 04000Q11 1 10031S11 1 00016V11 1 01010W11 1 00000
0050749066999991949092608004+32267-064850SAO  +0013MYUN V0200451N009310750019N0192001N1+02521+02021102111ADDGF107991999999999999999999MA1999999101961MW1001
017699999913737194907091100E+36883-076200SAO  +001299999V02006859001052200059N019200599+02115+01615102545ADDAA101000095GF102995999999999999999999MA1999999102405EQDN01 00000JPWTH 1QNNG11U1 99999K11 1 00061L11 1 01200M11 1 30240N11 1 00000Q11 1 10254S11 1 00070V11 1 00399W11 1 32002
0066478030999991949081100004+33883+130650SAO  +0033RJFA V0200901N002112200019N0080001N1+02801+02351101351ADDGA1999+006009999GF100991999999999999999999MA1999999101051MW1051
0106330880999991949101506004+51350+026617FM-12+015399999V0202701N00101220001CN0020001N9+01001+99999102381ADDAA199000691AY161999GF108991999081999999021999IA1009KA1999N+00721MD1810021+9999MW1051EQDQ01+000002SCOTLC
0066747340999991949122519004+32367-106467SAO  +129799999V0202701N005112200019N0480001N9+00911-00981102001ADDGA1001+999999999GF100991999999999999999999MA1999999087371MW1001
0383722886231301949090908003+34217-118500SAO  +0240VNY  V02099999000050274349N0192005N9+02225+00895101155ADDGA1071+027434034GA2999+999999999GA3999+999999999GA4999+999999999GD19075+9999999GD29005+9999999GD39005+9999999GD49005+9999999GF107995999999999999999999MA1999999098415MW1001EQDN01 00000JPWTH 1QNNE11 1 09909E11 1 09900E11 1 09900E11 1 09900G11 1 00090H11 1 23090H11 1 00999H11 1 00999H11 1 00999K11 1 00048L11 1 01200M11 1 29060N11 1 00000Q11 1 10115S11 1 00072V11 1 00999W11 1 00000
017699999914764194910240100E+43650-070317SAO  +002499999V02036059003650109749N024000599+01115+00615101565ADDAA101000095GF108995999999999999999999MA1999999101325EQDN01 00000JPWTH 1QNNG11 1 00036K11 1 00043L11 1 01500M11 1 29920N11 1 00000Q11 1 10156S11 1 00052V11 1 01099W11 1 11007
0050723555999991949111714004+34300-097017SAO  +0235ADM  V0202931N001510900019N0240001N1+00461-00201103011ADDGF107991999999999999999999MA1999999099831MW1001
0066726625240061949031304004+44150-103100SAO  +0990RCA  V0200201N009310045019N0192001N9-00391-00611102441ADDGA1081+004509059GF108991999999999999999999MA1999999090821MW1711
0066103430999991949070820004+52600+010017SAO  +0052EDCL V0203151N002112200019N0240001N1+01461+01191102241ADDGA1011+024009049GF102991999999999999999999MA1999999101761MW1001
017699999914858194903120900E+47167-088500SAO  +033199999V02031559002152200059N032000599-01615-01785101905ADDAA101000095GF100995999999999999999999MA1999999097735EQDN01 00000JPWTH 1QNNG11U1 99999K11 1 00000L11 1 02000M11 1 28860N11 1 00000Q11 1 10190S11 1 00003V11 1 00099W11 1 88004
0050722487139351949081802004+31400-092300SAO  +0034ESF  V0201801N003612200019N0192001N1+02801+02521101251ADDGF102991999999999999999999MA1999999100951MW1001
0155701620265081949010705003+69367-152133SAO  +0103UMT  V02027059003152200059N0160005N1-04505+99999999999ADDGF100995999999999999999999MA1999999102035MW1761MW2785EQDN01 04600JPWTH 1QNNG11U1 99999L11 1 01000M11 1 30130N11 1 04600S11 1-00049V11 1 00099W11 1 77006
0323999999241431949010721005+47483-111350SAO  +112499999V02036059008850182949N096000599+00175-00285099665ADDGA1999+018294064GA2999+039624044GD19065+9999999GD29085+9999999GD39999+9999999GD49999+9999999GF108995999999999999999999MA1999999087105EQDN01 00000JPWTH 1QNNE11 1 09907E11 1 09910E11 1 09999E11 1 09999G11 1 00060H11 1 15060H11 1 21130K11 1 00027L11 1 06000M11 1 25720N11 1 00000Q11 1 09966S11 1 00035V11 1 01099W11 1 11017
0089107270999991949031600004+49017+008383FM-12+011699999V0202701N00151009901CN0160001N9+00391+00001102671ADDAY121061GA1081+009909059GA2081+009909059GF108991081051012501999999MD1010021+9999MW1021
039499999914819194908251200E+41783-087750SAO  +0187MDW  V02018059002652200059N004800599+02065+01835102105ADDAA101000095GA1999+039624034GA2999+999999999GA3999+999999999GA4999+999999999GD19005+9999999GD29005+9999999GD39005+9999999GD49005+9999999GF100995999999999999999999MA1999999099865MW1045EQDN01 08000JPWTH 1QNNE11 1 09900E11 1 09900E11 1 09900E11 1 09900G11U1 99999H11 1 23130H11 1 00999H11 1 00999H11 1 00999K11 1 00065L11 1 00300M11 1 29490N11 1 08000Q11 1 10210S11 1 00069V11 1 00099W11 1 55005
