0066912500999991950061515004+11350+162350SAO  +0005PKMA V0200681N010812200019N0192001N1+02741+02521100911ADDGA1021+006009089GF102991999999999999999999MA1999999100911MW1001
0165999999147471950012911005+42500-079283SAO  +020699999V02020359008850079249N016000599+01005+00785100715ADDGF108995999999999999999999MA1999999098245EQDN01 00000JPWTH 1QNNG11 1 00026K11 1 00046L11 1 01000M11 1 29010N11 1 00000Q11 1 10071S11 1 00050V11 1 01099W11 1 56017
017699999914764195008051000E+43650-070317SAO  +002499999V02036059003150167649N016000599+01835+01445101025ADDAA101000095GF108995999999999999999999MA1999999100785EQDN01 00000JPWTH 1QNNG11 1 00055K11 1 00058L11 1 01000M11 1 29760N11 1 00000Q11 1 10102S11 1 00065V11 1 01099W11 1 11006
0082718410999991950092415004+50283-088900SAO  +0325CYYW V0201801N002110090019N0240001N1+00411+00131101341ADDGA1051+999999059GA2031+999999049GF108991999999999999999999MA1999999097321MW1001
017699999993987195009070400E+31233-094750SAO  +0089LFK  V02002359001552200059N011200599+02004+01835101524ADDAA101000095GF100995999999999999999999MA1999999100414EQDN01 00000JPWTH 1QNNG11U1 99999K11 1 00065L11 1 00700M11 1 29650N11 1 00000Q11 1 10152S11 1 00068V11 1 00099W11 1 12003
017699999913997195008290000E+38133-091767SAO  +0350VIH  V02022559001550762049N019200599+02395+01945101195ADDAA101000095GF106995999999999999999999MA1999999097225EQDN01 00000JPWTH 1QNNG11 1 00250K11 1 00067L11 1 01200M11 1 28710N11 1 00000Q11 1 10119S11 1 00075V11 1 00899W11 1 66003
0383722165138151950050221003+31583-084117SAO  +0066TRF  V02015859008252200059N0240005N1+03115+01675101195ADDGA1021+007624084GA2041+024384034GA3999+999999999GA4999+999999999GD19025+9999999GD29045+9999999GD39005+9999999GD49005+9999999GF104995999999999999999999MA1999999100415MW1001EQDN01 00000JPWTH 1QNNE11 1 09903E11 1 09905E11 1 09900E11 1 09900G11U1 99999H11 1 11025H11 1 23080H11 1 00999H11 1 00999K11 1 00062L11 1 01500M11 1 29650N11 1 00000Q11 1 10119S11 1 00088V11 1 00599W11 1 54016
0098108640999991950022802004+48067+011633SAO  +0560EDSN V0209991C000010030019N0080001N1-00701-00981101731ADDGA1021+002409079GA2031+003009079GA3031+024009049GF108991999999999999999999MA1999999094891MW1711
0081306270999991950061712004+53100+105533FM-12+076199999V0203601N00311004501CN0100001N9+01611+01391101421ADDAA199005091AY191999GF108991081061004501999999KA1999M+02721MD1210031+9999MW1621
0082479300999991950072815004+26200+127650SAO  +0004ROAH V0202481N007212200019N0240001N1+02681+02411100311ADDGA1021+006009089GA2011+075009029GF102991999999999999999999MA1999999100241MW1001
0066722536129111950081416004+29533-098283SAO  +0226RND  V0201401N002610066019N0240001N9+02961+02131101931ADDGA1051+006609089GF107991999999999999999999MA1999999099221MW1001
0057302530999991950051109004+57850+114200FM-12+027899999V0200401N00311012301CN0100001N9+00501+00001101181ADDAY181999GF106991061031012501999999MD1990031+9999MW1871
0165999999138691950112622005+31533-084183SAO  +006299999V02024859005252200059N024000599+01065-00785101155ADDGF100995999999999999999999MA1999999100445EQDN01 00000JPWTH 1QNNG11U1 99999K11 1 00018L11 1 01500M11 1 29660N11 1 00000Q11 1 10115S11 1 00051V11 1 00099W11 1 76010
0165999999265101950032614005+62967-155617SAO  +0104MCG  V02011359001550073249N016000599-00445-00895099595ADDGF108995999999999999999999MA1999999098315EQDN01 00000JPWTH 1QNNG11 1 00024K11 1 00016L11 1 01000M11 1 29030N11 1 00000Q11 1 09959S11 1 00024V11 1 01099W11 1 34003
017699999923063195007130900E+39650-106917SAO  +1980EGE  V02099999000052200059N040000599+00725+00115102255ADDAA101000095GF100995999999999999999999MA1999999080805EQDN01 00000JPWTH 1QNNG11U1 99999K11 1 00034L11 1 02500M11 1 23860N11 1 00000Q11 1 10225S11 1 00045V11 1 00099W11 1 00000
0082479300999991950061821004+26200+127650SAO  +0004ROAH V0201131N003110270019N0192001N1+02461+02411100681ADDGA1021+006009059GA2051+027009039GF107991999999999999999999MA1999999100641MW1001
0377999999231841950071409005+34650-112433SAO  +153099999V02020359005252200059N024000599+02335+00505100855ADDGA1999+021344064GA2999+999999999GA3999+999999999GA4999+999999999GD19005+9999999GD29005+9999999GD39005+9999999GD49005+9999999GF100995999999999999999999MA1999999084735EQDN01 00000JPWTH 1QNNE11 1 09900E11 1 09900E11 1 09900E11 1 09900G11U1 99999H11 1 15070H11 1 00999H11 1 00999H11 1 00999K11 1 00041L11 1 01500M11 1 25020N11 1 00000Q11 1 10085S11 1 00074V11 1 00099W11 1 56010
038899999913741195006092100E+37317-079967SAO  +036699999V02015859001550914449N040000599+02445+02065102075ADDAA101000095GA1999+013724094GA2999+030484034GA3999+091444004GA4999+999999999GD19025+9999999GD29025+9999999GD39035+9999999GD49005+9999999GF106995999999999999999999MA1999999097905EQDN01 00000JPWTH 1QNNE11 1 09902E11 1 09902E11 1 09904E11 1 09900G11 1 00300H11 1 18045H11 1 23100H11 1 32300H11 1 00999K11 1 00069L11 1 02500M11 1 28910N11 1 00000Q11 1 10207S11 1 00076V11 1 00899W11 1 54003
0082478080999991950092207004+33583+130450SAO  +0012RJFF V0200451N003110660019N0240001N1+02131+01411101431ADDGA1011+012009089GA2081+066009029GF108991999999999999999999MA1999999101351MW1001
0057206670999991950092200004+73333+070033FM-12+000699999V0202001N00621007801CN0200001N9+00391+00391100731ADDAY151999GF108991081051008001999999MD1710111+9999MW1021
0043618290999991950072112004+10383-009300FM-12+038499999V0202301N00511012001CN0200001N9+02721+02111101231ADDAY121999GF108991081081008001999999MW1021
0377999999147881950072718005+41583-071417SAO  +000999999V02027059004652200059N024000599+02945+01115101105ADDGA1999+018294084GA2999+999999999GA3999+999999999GA4999+999999999GD19035+9999999GD29005+9999999GD39005+9999999GD49005+9999999GF103995999999999999999999MA1999999100985EQDN01 00000JPWTH 1QNNE11 1 09904E11 1 09900E11 1 09900E11 1 09900G11U1 99999H11 1 11060H11 1 00999H11 1 00999H11 1 00999K11 1 00052L11 1 01500M11 1 29820N11 1 00000Q11 1 10110S11 1 00085V11 1 00499W11 1 77009
038899999912836195002181800E+24583-081700SAO  +000299999V02002359006252200059N019200599+01945+01115102375ADDAA101000095GA1999+076204004GA2999+999999999GA3999+999999999GA4999+999999999GD19035+9999999GD29005+9999999GD39005+9999999GD49005+9999999GF103995999999999999999999MA1999999102345EQDN01 00000JPWTH 1QNNE11 1 09904E11 1 09900E11 1 09900E11 1 09900G11U1 99999H11 1 32250H11 1 00999H11 1 00999H11 1 00999K11 1 00052L11 1 01200M11 1 30220N11 1 00000Q11 1 10237S11 1 00067V11 1 00499W11 1 12012
017699999923237195003141700E+37900-121250SAO  +000899999V02029359003152200059N040000599+01335+00785101835ADDAA101000095GF103995999999999999999999MA1999999101735EQDN01 00000JPWTH 1QNNG11U1 99999K11 1 00046L11 1 02500M11 1 30040N11 1 00000Q11 1 10183S11 1 00056V11 1 00499W11 1 78006
017699999923043195005261900E+33400-104533SAO  +110299999V02009059002650228649N056000599+01225+00065102375ADDAA101000095GF108995999999999999999999MA1999999089915EQDN01 00000JPWTH 1QNNG11 1 00075K11 1 00033L11 1 03500M11 1 26550N11 1 00000Q11 1 10237S11 1 00054V11 1 01099W11 1 33005
0057259540999991950030406004+60350+166000FM-12+999999999V0203601N00981220001CN9999999N9+99999+99999999999ADDAY131999GF108991001001999999071041MD1210071+9999MW1031
0165999999930351950102723005+30250-103883SAO  +1481MRF  V02020359005252200059N072000599+02614+00065101154ADDGF100995999999999999999999MA1999999085174EQDN01 00000JPWTH 1QNNG11U1 99999K11 1 00033L11 1 04500M11 1 25150N11 1 00000Q11 1 10115S11 1 00079V11 1 00099W11 1 56010
0165999999939881950113003005+34167-091933SAO  +0063PBF  V02015859001050106749N019200599+00504-00175101694ADDGF108995999999999999999999MA1999999100914EQDN01 00000JPWTH 1QNNG11 1 00035K11 1 00029L11 1 01200M11 1 29800N11 1 00000Q11 1 10169S11 1 00041V11 1 01099W11 1 54002
0329722680230091950060501003+33300-104517SAO  +1111ROW  V02002359008250137249N0240005N1+01505+01115101295ADDGA1061+013724064GA2021+015244074GD19065+9999999GD29025+9999999GD39999+9999999GD49999+9999999GF108995999999999999999999MA1999999088995MW1001EQDN01 00000JPWTH 1QNNE11 1 09908E11 1 09902E11 1 09999E11 1 09999G11 1 00045H11 1 15045H11 1 16050K11 1 00052L11 1 01500M11 1 26280N11 1 00000Q11 1 10129S11 1 00059V11 1 01099W11 1 12016
0177999999147701950112509005+40900-076783SAO  +013599999V02009059013450067149N004800599+01225+00945100205ADDGF108995999999999999999999MA1999999098545MW1185MW2635EQDN01 01521JPWTH 1QNNG11 1 00022K11 1 00049L11 1 00300M11 1 29100N11 1 01521Q11 1 10020S11 1 00054V11 1 01099W11 1 33026
0187999999242441950110122005+47683-122267SAO  +001599999V02031559002150128049N006400599+00835+00835101935ADDGF108995999999999999999999MA1999999999999MW1455EQDN01 07000JPWTH 1P01 098343APOSP QNNG11 1 00042K11 1 00047L11 1 00400M11 1 29040N11 1 07000Q11 1 10193S11 1 00047V11 1 01099W11 1 88004
017699999924036195005250100E+47050-109450SAO  +1259LWT  V02036059005250121949N080000599+00895-00225102685ADDAA101000095GF106995999999999999999999MA1999999088085EQDN01 00000JPWTH 1QNNG11 1 00040K11 1 00028L11 1 05000M11 1 26010N11 1 00000Q11 1 10268S11 1 00048V11 1 00899W11 1 11010
0383722250138291950082705003+32350-085000SAO  +0069LSF  V02099999000050457249N0160005N9+02065+02005101665ADDGA1061+045724034GA2999+999999999GA3999+999999999GA4999+999999999GD19065+9999999GD29005+9999999GD39005+9999999GD49005+9999999GF106995999999999999999999MA1999999100915MW1001EQDN01 00000JPWTH 1QNNE11 1 09907E11 1 09900E11 1 09900E11 1 09900G11 1 00150H11 1 23150H11 1 00999H11 1 00999H11 1 00999K11 1 00068L11 1 01000M11 1 29800N11 1 00000Q11 1 10166S11 1 00069V11 1 00799W11 1 00000
0177999999265171950111013005+66900-151717SAO  +026199999V02031559002150033549N003200599-00395-00445102645ADDGF108995999999999999999999MA1999999099295MW1455MW2715EQDN01 04070JPWTH 1QNNG11 1 00011K11 1 00024L11 1 00200M11 1 29320N11 1 04070Q11 1 10264S11 1 00025V11 1 01099W11 1 88004
0082702615999991950092315004+64833-147600SAO  +0139PAFB V0209991C000010300019N0240001N9+00241+00131098771ADDGA1011+012009059GA2071+030009049GF108991999999999999999999MA1999999097051MW1001
038899999914925195002011200E+44000-092450SAO  +031599999V02099999000052200059N019200599-02445-03005103225ADDAA101000095GA1999+999999999GA2999+999999999GA3999+999999999GA4999+999999999GD19005+9999999GD29005+9999999GD39005+9999999GD49005+9999999GF100995999999999999999999MA1999999099155EQDN01 00000JPWTH 1QNNE11 1 09900E11 1 09900E11 1 09900E11 1 09900G11U1 99999H11 1 00999H11 1 00999H11 1 00999H11 1 00999K11 1-00022L11 1 01200M11 1 29280N11 1 00000Q11 1 10322S11 1-00012V11 1 00099W11 1 00000
0165999999149211950010800005+43200-090183SAO  +0219LNR  V02004559001552200059N019200599-01115-01445103865ADDGF100995999999999999999999MA1999999101025EQDN01 00000JPWTH 1QNNG11U1 99999K11 1 00006L11 1 01200M11 1 29830N11 1 00000Q11 1 10386S11 1 00012V11 1 00099W11 1 22003
019872518014735195002061400C+42750-073800SAO  +0089ALB  V02036059001050259149N0080005N1-00725-01065101935ADDAA101000095GF108995999999999999999999MA1999999100785MW1055EQDQ01    003PRSWM1N01 08100JPWTH 1QNNG11 1 00085K11 1 00013L11 1 00500M11 1 29760N11 1 08100Q11 1 10193S11 1 00019V11 1 01099W11 1 11002
0171999999231701950010308005+38417-110700SAO  +136099999V02031559007250091449N024000599-00115-01005099665ADDGF108995999999999999999999MA1999999084565MW1855EQDN01 05000JPWTH 1QNNG11 1 00030K11 1 00014L11 1 01500M11 1 24970N11 1 05000Q11 1 09966S11 1 00030V11 1 01099W11 1 88014
0066747950128671950041113004+28217-080600SAO  +0003COF  V0201401N001512200019N0160001N9+02181+01741102401ADDGA1031+075009009GF102991999999999999999999MA1999999102341MW1001
0165999999038181950120807005+30833-085183SAO  +003899999V02099999000050487749N011200599+00285+00175102375ADDGF108995999999999999999999MA1999999101935EQDN01 00000JPWTH 1QNNG11 1 00160K11 1 00035L11 1 00700M11 1 30100N11 1 00000Q11 1 10237S11 1 00037V11 1 01099W11 1 00000
017699999993808195004200900E+36967-086433SAO  +016499999V02027059002152200059N012800599+00064+00005101804ADDAA101000095GF100995999999999999999999MA1999999099834EQDN01 00000JPWTH 1QNNG11U1 99999K11 1 00032L11 1 00800M11 1 29480N11 1 00000Q11 1 10180S11 1 00033V11 1 00099W11 1 77004
0082718150999991950052114004+48550-058550SAO  +0013CYJT V0200451N008210150019N0240001N1+00521-00041101321ADDGA1021+007509059GA2061+015009079GF108991999999999999999999MA1999999101151MW1001
018272641014837195001160500C+43133-089333SAO  +0266MSN  V02027059010852200059N0240005N9-01675-02505102275ADDAA101000095GF100995999999999999999999MA1999999098955MW1001EQDN01 00000JPWTH 1QNNG11U1 99999K11 1-00013L11 1 01500M11 1 29220N11 1 00000Q11 1 10227S11 1 00002V11 1 00099W11 1 77021
0058644600999991950121012004+02067+014050FM-12+054799999V0201801N00211220001CN0100001N9+02721+02281999999ADDAY111999GF104991999021008001001011MA1999999094931MW1031
0308724361138031950122009003+39250-085900SAO  +0199BAK  V02036059003150015249N0004005N1-00895-01065102645ADDGA1081+001524074GD19085+9999999GD29999+9999999GD39999+9999999GD49999+9999999GF108995999999999999999999MA1999999100145MW1045MW2455EQDN01 07080JPWTH 1QNNE11 1 09910E11 1 09999E11 1 09999E11 1 09999G11 1 00005H11 1 16005K11 1 00013L11 1 00025M11 1 29570N11 1 07080Q11 1 10264S11 1 00016V11 1 01099W11 1 11006
017699999914941195003241700E+41983-097433SAO  +0471OFK  V02033859009850670649N024000599+00565-00115101495ADDAA101000095GF107995999999999999999999MA1999999095835EQDN01 00000JPWTH 1QNNG11 1 00220K11 1 00030L11 1 01500M11 1 28300N11 1 00000Q11 1 10149S11 1 00042V11 1 00999W11 1 18019
017699999914826195003020300E+42967-083733SAO  +023799999V02029359005252200059N024000599-01225-01505101395ADDAA101000095GF102995999999999999999999MA1999999098445EQDN01 00000JPWTH 1QNNG11U1 99999K11 1 00005L11 1 01500M11 1 29070N11 1 00000Q11 1 10139S11 1 00010V11 1 00299W11 1 78010
0057297560999991950110700004+54500+089933FM-12+046899999V0202001N00211007801CN9999999N9-01001-02001102961ADDAY121999GF108991081051008001999999MD1990151+9999MW1021
018272734514847195008171900E+99999+999999SAO  +999999999V02029359005750274349N024000599+01285+01005101965ADDAA101000095GF108995999999999999999999MA1999999099295MW1805EQDN01 02300JPWTH 1QNNG11 1 00090K11 1 00050L11 1 01500M11 1 29320N11 1 02300Q11 1 10196S11 1 00055V11 1 01099W11 1 78011
0066704851999991950061920004+53367-167900SAO  +0039UNS  V0203151N007710036019N0240001N1+00581+00411101151ADDGA1081+003609059GF108991999999999999999999MA1999999100641MW1001
0105106090999991950041509004+49750+006667FM-12+027399999V0200401N00461999999CN0080001N9+00721+00281100901ADDAY111031GA1011+004509089GA2011+004509089GA3051+999999039GF108991011021004501071071MD1210031+9999MW1051
017699999914858195005080000E+47167-088500SAO  +033199999V02020359001052200059N024000599+00115-00565103595ADDAA101000095GF101995999999999999999999MA1999999099465EQDN01 00000JPWTH 1QNNG11U1 99999K11 1 00022L11 1 01500M11 1 29370N11 1 00000Q11 1 10359S11 1 00034V11 1 00199W11 1 56002
0377999999264031950091821005+64850-147583SAO  +014199999V02009059002152200059N144000599+01445+00175100355ADDGA1999+060964004GA2999+999999999GA3999+999999999GA4999+999999999GD19005+9999999GD29005+9999999GD39005+9999999GD49005+9999999GF100995999999999999999999MA1999999098615EQDN01 00000JPWTH 1QNNE11 1 09900E11 1 09900E11 1 09900E11 1 09900G11U1 99999H11 1 32200H11 1 00999H11 1 00999H11 1 00999K11 1 00035L11 1 09000M11 1 29120N11 1 00000Q11 1 10035S11 1 00058V11 1 00099W11 1 33004
018272595524259195002271000C+41783-122467SAO  +0805SIY  V02002359005250106749N0240005N1+00445-00175101865ADDAA101000095GF108995999999999999999999MA1999999092485MW1001EQDN01 00000JPWTH 1QNNG11 1 00035K11 1 00029L11 1 01500M11 1 27310N11 1 00000Q11 1 10186S11 1 00040V11 1 01099W11 1 12010
0076042600999991950092713004+62000-049717FM-12+001699999V0203601N00511000151CN0002001N9+00281+00281100311ADDAY141999GF109991091999000251999999MD1011142+9999MW1471EQDQ01+001142APC3  
017699999913994195006131400E+38750-090383SAO  +017699999V02020359006750914449N024000599+02675+02065101125ADDAA101000095GF105995999999999999999999MA1999999099125EQDN01 00000JPWTH 1QNNG11 1 00300K11 1 00069L11 1 01500M11 1 29270N11 1 00000Q11 1 10112S11 1 00080V11 1 00699W11 1 56013
018274694113786195009211100C+36267-076183SAO  +0004ECG  V02099999000050009149N0016005N9+02115+02115101695ADDAA101000095GF108995999999999999999999MA1999999101665MW1455EQDN01 07000JPWTH 1QNNG11 1 00003K11 1 00070L11 1 00100M11 1 30020N11 1 07000Q11 1 10169S11 1 00070V11 1 01099W11 1 00000
0165999999241191950122908005+40650-116933SAO  +137699999V02009059002650121949N056000599+00065-00065102275ADDGF108995999999999999999999MA1999999086565EQDN01 00000JPWTH 1QNNG11 1 00040K11 1 00031L11 1 03500M11 1 25560N11 1 00000Q11 1 10227S11 1 00033V11 1 01099W11 1 33005
017699999913996195006042200E+39067-095633SAO  +0267TOP  V02099999000052200059N024000599+02175+00785101805ADDAA101000095GF103995999999999999999999MA1999999098615EQDN01 00000JPWTH 1QNNG11U1 99999K11 1 00046L11 1 01500M11 1 29120N11 1 00000Q11 1 10180S11 1 00071V11 1 00499W11 1 00000
0066467600999991950072421004+22767+121100SAO  +004599999V0209991C000010099019N0056001N1+02461+02351099441ADDGA1081+009909059GF108991999999999999999999MA1999999099321MW1001
017699999923065195012310400E+39367-101700SAO  +1111GLD  V02020359009850609649N024000599+00445-01065100375ADDAA101000095GF108995999999999999999999MA1999999087645EQDN01 00000JPWTH 1QNNG11 1 00200K11 1 00013L11 1 01500M11 1 25880N11 1 00000Q11 1 10037S11 1 00040V11 1 01099W11 1 56019
0059782240999991950051714004+22983-082400FM-12+007599999V0209991C00001220001CN0160001N9+02721+01781101391ADDAY111999GA1041+007509059GF104991041051008001999999MW1021
0066718150999991950102609004+48550-058550SAO  +0013CYJT V0200681N009810240019N0096001N1+00411+00191100611ADDGA1081+024009039GF108991999999999999999999MA1999999100441MW1611
0057330270999991950031112004+52217+027883FM-12+013899999V0202701N00721004501CN0100001N9+00111-00501100971ADDAY111999GF106991061091004501001001MD1610031+9999MW1021
0171999999416061950012912005+19283+166650SAO  +0004PWAK V02022559007250030549N004800599+02115+02115100815ADDGF108995999999999999999999MA1999999100785MW1615EQDN01 02000JPWTH 1QNNG11 1 00010K11 1 00070L11 1 00300M11 1 29760N11 1 02000Q11 1 10081S11 1 00070V11 1 01099W11 1 66014
0171999999147741950082620005+43167-075317SAO  +016399999V02020359005250609649N009600599+02335+01725101905ADDGF106995999999999999999999MA1999999099975MW1055EQDN01 08100JPWTH 1QNNG11 1 00200K11 1 00063L11 1 00600M11 1 29520N11 1 08100Q11 1 10190S11 1 00074V11 1 00899W11 1 56010
0165999999137311950121708005+39000-078233SAO  +020899999V02031559001550274349N016000599-00615-00785102005ADDGF106995999999999999999999MA1999999099425EQDN01 00000JPWTH 1QNNG11 1 00090K11 1 00018L11 1 01000M11 1 29360N11 1 00000Q11 1 10200S11 1 00021V11 1 00899W11 1 88003
018272446113988195008081300C+39117-094583SAO  +0231MKC  V02033859002650027449N0192005N1+02065+01895101735ADDAA101000095GF108995999999999999999999MA1999999099055MW1001EQDN01 00000JPWTH 1QNNG11 1 00009K11 1 00066L11 1 01200M11 1 29250N11 1 00000Q11 1 10173S11 1 00069V11 1 01099W11 1 18005
017699999924235195008071400E+42617-123367SAO  +1169SXT  V02013559001552200059N080000599+01335+00895101425ADDAA101000095GF100995999999999999999999MA1999999088455EQDN01 00000JPWTH 1QNNG11U1 99999K11 1 00048L11 1 05000M11 1 26120N11 1 00000Q11 1 10142S11 1 00056V11 1 00099W11 1 44003
0084643600999991950040712004-11650+027467FM-12+129899999V0200501N00511004201CN0700001N9+02501+01611999999ADDAY121999GF106991061021004501001021IA1009MD1710211+9999MW1021REMSYN0121250GPM= 754
0165999999265121950031809005+63883-152283SAO  +021499999V02031559003152200059N024000599-01065-01505099635ADDGF100995999999999999999999MA1999999096925EQDN01 00000JPWTH 1QNNG11U1 99999K11 1 00005L11 1 01500M11 1 28620N11 1 00000Q11 1 09963S11 1 00013V11 1 00099W11 1 88006
0082466960999991950062112004+25050+121533SAO  +0006RCTP V0203151N001010060019N0020001N1+02521+02461100691ADDGA1051+006009099GA2071+027009049GF107991999999999999999999MA1999999100581MW1451
039472251012924195002160300C+27767-097450SAO  +0014CRP  V02015859001552200059N0160005N1+01115+00725102675ADDAA101000095GA1999+999999999GA2999+999999999GA3999+999999999GA4999+999999999GD19005+9999999GD29005+9999999GD39005+9999999GD49005+9999999GF100995999999999999999999MA1999999102515MW1001EQDN01 00000JPWTH 1QNNE11 1 09900E11 1 09900E11 1 09900E11 1 09900G11U1 99999H11 1 00999H11 1 00999H11 1 00999H11 1 00999K11 1 00045L11 1 01000M11 1 30270N11 1 00000Q11 1 10267S11 1 00052V11 1 00099W11 1 54003
0171999999038121950122920005+35433-082483SAO  +064099999V02099999000050018349N003200599+00505+00445101465ADDGF108995999999999999999999MA1999999093875MW1455EQDN01 07000JPWTH 1QNNG11 1 00006K11 1 00040L11 1 00200M11 1 27720N11 1 07000Q11 1 10146S11 1 00041V11 1 01099W11 1 00000
0165999999146101950041318005+45650-068683SAO  +0124MLT  V02033859001052200059N040000599+00835-00395101225ADDGF103995999999999999999999MA1999999099665EQDN01 00000JPWTH 1QNNG11U1 99999K11 1 00025L11 1 02500M11 1 29430N11 1 00000Q11 1 10122S11 1 00047V11 1 00499W11 1 18002
0165999999930441950102714005+35100-108783SAO  +1963ZUN  V02004559006252200059N064000599+00224-00615102004ADDGF102995999999999999999999MA1999999080664EQDN01 00000JPWTH 1QNNG11U1 99999K11 1 00021L11 1 04000M11 1 23820N11 1 00000Q11 1 10200S11 1 00036V11 1 00399W11 1 22012
0165999999147701950010707005+40900-076783SAO  +013599999V02031559007750051849N019200599+00335+00175101195ADDGF108995999999999999999999MA1999999099495EQDN01 00000JPWTH 1QNNG11 1 00017K11 1 00035L11 1 01200M11 1 29380N11 1 00000Q11 1 10119S11 1 00038V11 1 01099W11 1 88015
017699999924150195012080600E+45667-110533SAO  +139999999V02022559006250243849N048000599-00065-00565101225ADDAA101000095GF108995999999999999999999MA1999999085245EQDN01 00000JPWTH 1QNNG11 1 00080K11 1 00022L11 1 03000M11 1 25170N11 1 00000Q11 1 10122S11 1 00031V11 1 01099W11 1 66012
039472641014837195001200300C+43133-089333SAO  +0266MSN  V02036059002152200059N0240005N9-01395-02115103625ADDAA101000095GA1001+999999999GA2999+999999999GA3999+999999999GA4999+999999999GD19005+9999999GD29005+9999999GD39005+9999999GD49005+9999999GF100995999999999999999999MA1999999100205MW1001EQDN01 00000JPWTH 1QNNE11 1 09900E11 1 09900E11 1 09900E11 1 09900G11U1 99999H11 1 00999H11 1 00999H11 1 00999H11 1 00999K11 1-00006L11 1 01500M11 1 29590N11 1 00000Q11 1 10362S11 1 00007V11 1 00099W11 1 11004
0066722786231041950051615004+33317-111650SAO  +0408IWA  V0200201N003612200019N0480001N9+02571-00261100981ADDGA1001+999999999GF100991999999999999999999MA1999999096341MW1001
0140999999148161950090813005+41233-089617SAO  +0242BDF  V02002359003650365849N003200599+01505+01395999999ADDGF108995999999999999999999MW1045MW2455EQDN01 07080JPWTH 1QNNG11 1 00120K11 1 00057L11 1 00200N11 1 07080S11 1 00059V11 1 01099W11 1 12007
0171999999137461950102809005+35967-077800SAO  +0026RMT  V02099999000050304849N012800599+01005+00945102515ADDGF108995999999999999999999MA1999999102075MW1805EQDN01 02300JPWTH 1QNNG11 1 00100K11 1 00049L11 1 00800M11 1 30140N11 1 02300Q11 1 10251S11 1 00050V11 1 01099W11 1 00000
018272595524259195006221600C+41783-122467SAO  +0805SIY  V02006859002652200059N0800005N1+01615-00175101425ADDAA101000095GF100995999999999999999999MA1999999092215MW1001EQDN01 00000JPWTH 1QNNG11U1 99999K11 1 00029L11 1 05000M11 1 27230N11 1 00000Q11 1 10142S11 1 00061V11 1 00099W11 1 32005
0383722235138381950010902003+30633-088067SAO  +0009BFM  V02011359006252200059N0192005N1+01395+00945102745ADDGA1021+091444024GA2999+999999999GA3999+999999999GA4999+999999999GD19025+9999999GD29005+9999999GD39005+9999999GD49005+9999999GF102995999999999999999999MA1999999102645MW1001EQDN01 00000JPWTH 1QNNE11 1 09903E11 1 09900E11 1 09900E11 1 09900G11U1 99999H11 1 37300H11 1 00999H11 1 00999H11 1 00999K11 1 00049L11 1 01200M11 1 30310N11 1 00000Q11 1 10274S11 1 00057V11 1 00399W11 1 34012
030799999914935195010050900E+40967-098317SAO  +056799999V02018059007250109749N024000599+00945+00505101225ADDAA101000095GA1999+010974064GD19085+9999999GD29999+9999999GD39999+9999999GD49999+9999999GF108995999999999999999999MA1999999094625EQDN01 00000JPWTH 1QNNE11 1 09910E11 1 09999E11 1 09999E11 1 09999G11 1 00036H11 1 15036K11 1 00041L11 1 01500M11 1 27940N11 1 00000Q11 1 10122S11 1 00049V11 1 01099W11 1 55014
018299999924020195003272200E+40517-100967SAO  +092499999V02031559020650121949N003200599+00615-00785099395ADDAA101000095GF106995999999999999999999MA1999999088895MW1075EQDN01 07300JPWTH 1QNNG11 1 00040K11 1 00018L11 1 00200M11 1 26250N11 1 07300Q11 1 09939S11 1 00043V11 1 00899W11 1 88040
030799999924011195003181800E+46767-100750SAO  +050799999V02011359004650548649N024000599-01115-01675103085ADDAA101000095GA1999+054864024GD19085+9999999GD29999+9999999GD39999+9999999GD49999+9999999GF108995999999999999999999MA1999999096685EQDN01 00000JPWTH 1QNNE11 1 09910E11 1 09999E11 1 09999E11 1 09999G11 1 00180H11 1 37180K11 1 00002L11 1 01500M11 1 28550N11 1 00000Q11 1 10308S11 1 00012V11 1 01099W11 1 34009
0165999999230561950021102005+35083-106017SAO  +190099999V02027059002150152449N064000599+00225-00115101905ADDGF108995999999999999999999MA1999999080665EQDN01 00000JPWTH 1QNNG11 1 00050K11 1 00030L11 1 04000M11 1 23820N11 1 00000Q11 1 10190S11 1 00036V11 1 01099W11 1 77004
0084642350999991950030912004-05750+022417FM-12+065799999V0200901N00151220001CN0600001N9+03111+01721999999ADDAY121999GF104991041011008001001041IA1009MD1710311+9999MW1021REMSYN0121250GPM= 795
0083762800999991950021000004+27283-103667FM-12+139899999V0200901N00311220001CN0600001N9+02281+00221100641ADDAY121999GF108991001001999999001061KA1999M+02501KA2999N+01891MD1610051+9999MW1021
0302725310148061950111602003+40300-088150SAO  +0226RAN  V02020359008850033549N0080005N1+01395+01225101225ADDGA1081+003354064GD19085+9999999GD29999+9999999GD39999+9999999GD49999+9999999GF108995999999999999999999MA1999999098515MW1055EQDN01 08100JPWTH 1QNNE11 1 09910E11 1 09999E11 1 09999E11 1 09999G11 1 00011H11 1 15011K11 1 00054L11 1 00500M11 1 29090N11 1 08100Q11 1 10122S11 1 00057V11 1 01099W11 1 56017
017699999923158195003290100E+33617-114717SAO  +0119BLH  V02024859002650914449N048000599+02675+00005101295ADDAA101000095GF107995999999999999999999MA1999999099905EQDN01 00000JPWTH 1QNNG11 1 00300K11 1 00032L11 1 03000M11 1 29500N11 1 00000Q11 1 10129S11 1 00080V11 1 00999W11 1 76005
017699999924023195004270100E+41133-100700SAO  +085099999V02004559005250762049N024000599+00675-00505101565ADDAA101000095GF108995999999999999999999MA1999999091645EQDN01 00000JPWTH 1QNNG11 1 00250K11 1 00023L11 1 01500M11 1 27060N11 1 00000Q11 1 10156S11 1 00044V11 1 01099W11 1 22010
0066722175138601950033018004+32633-083600SAO  +0090WRB  V0203201N008212200019N0160001N9+01001+00111102371ADDGA1021+009009089GF102991999999999999999999MA1999999101391MW1001
0165999999241581950090311005+42017-113250SAO  +161099999V02099999000052200059N048000599+01175+00225101425ADDGF100995999999999999999999MA1999999084085EQDN01 00000JPWTH 1QNNG11U1 99999K11 1 00036L11 1 03000M11 1 24830N11 1 00000Q11 1 10142S11 1 00053V11 1 00099W11 1 00000
038872469023062195001040300B+39767-104883SAO  +161599999V02036059001552200059N032000599-02225-02675101635ADDAA101000095GA1999+022864044GA2999+999999999GA3999+999999999GA4999+999999999GD19025+9999999GD29005+9999999GD39005+9999999GD49005+9999999GF102995999999999999999999MA1999999082535EQDN01 00000JPWTH 1QNNE11 1 09903E11 1 09900E11 1 09900E11 1 09900G11U1 99999H11 1 21075H11 1 00999H11 1 00999H11 1 00999K11 1-00016L11 1 02000M11 1 24370N11 1 00000Q11 1 10163S11 1-00008V11 1 00399W11 1 11003
0224725246148911950082812003+40817-082517SAO  +0397MFD  V02022559004650213449N0040005N1+02115+02065101665ADDAA124012091GF106995999999999999999999KA1999M+03021KA2999N+01851MA1999999097025MW1455EQDQ01    003PRSWM1N01 07000JPWTH 1QNNG11 1 00070K11 1 00069L11 1 00250M11 1 28650N11 1 07000Q11 1 10166S11 1 00070V11 1 00799W11 1 66009
0308040180162011950032509005+63967-022600SAO  +0050BIKF V02099999000050076249N016000599+00065+00005099365ADDGA1999+007624064GD19085+9999999GD29999+9999999GD39999+9999999GD49999+9999999GF108995999999999999999999MA1999999098655MW1615MW2715EQDN01 02040JPWTH 1QNNE11 1 09910E11 1 09999E11 1 09999E11 1 09999G11 1 00025H11 1 15025K11 1 00032L11 1 01000M11 1 29130N11 1 02040Q11 1 09936S11 1 00033V11 1 01099W11 1 00000
018272367723054195008052300C+35650-105150SAO  +2093LVS  V02018059008250609649N0480005N1+02335+01065101295ADDAA101000095GF106995999999999999999999MA1999999079385MW1001EQDN01 00000JPWTH 1QNNG11 1 00200K11 1 00051L11 1 03000M11 1 23440N11 1 00000Q11 1 10129S11 1 00074V11 1 00899W11 1 55016
018899999924237195002052000E+47283-121333SAO  +1206SMP  V02009059008850003049N000200599-00395-00445100955ADDAA101000095GF108995999999999999999999MA1999999086895MW1455MW2855EQDN01 05070JPWTH 1QNNG11 1 00001K11 1 00024L11 1 00012M11 1 25660N11 1 05070Q11 1 10095S11 1 00025V11 1 01099W11 1 33017
017699999913734195007221800E+39400-077983SAO  +0164MRB  V02031559001052200059N024000599+02505+01115102135ADDAA101000095GF103995999999999999999999MA1999999100205EQDN01 00000JPWTH 1QNNG11U1 99999K11 1 00052L11 1 01500M11 1 29590N11 1 00000Q11 1 10213S11 1 00077V11 1 00499W11 1 88002
0078317540999991950100618004+48600+137050FM-12+040899999V0209991C00001220001CN9999999N9-00221+99999101471ADDAY101999GF100991001001999999001001MW1021EQDQ01+000032APCTENQ02+000002APC3  
017699999924153195003100200E+46917-114083SAO  +0972MSO  V02018059001550167649N032000599-00175-00725101635ADDAA101000095GF108995999999999999999999MA1999999090115EQDN01 00000JPWTH 1QNNG11 1 00055K11 1 00019L11 1 02000M11 1 26610N11 1 00000Q11 1 10163S11 1 00029V11 1 01099W11 1 55003
0069944300999991950072410004-26600+118550FM-12+051199999V0200701N007719999999N0200001N9+01721-00171999999ADDAY101999GF100991001001999999999999KA1999M+01941KA2999N+00781MW1001
0165999999232391950041602005+37783-122317SAO  +000999999V02027059003152200059N012800599+01725+01285102135ADDGF102995999999999999999999MA1999999102035EQDN01 00000JPWTH 1QNNG11U1 99999K11 1 00055L11 1 00800M11 1 30130N11 1 00000Q11 1 10213S11 1 00063V11 1 00299W11 1 77006
0308725115147111950050311003+40200-076750SAO  +0092MDT  V02009059002150018349N0024005N1+01175+01115101805ADDGA1081+001834074GD19085+9999999GD29999+9999999GD39999+9999999GD49999+9999999GF108995999999999999999999MA1999999100645MW1045MW2455EQDN01 07080JPWTH 1QNNE11 1 09910E11 1 09999E11 1 09999E11 1 09999G11 1 00006H11 1 16006K11 1 00052L11 1 00150M11 1 29720N11 1 07080Q11 1 10180S11 1 00053V11 1 01099W11 1 33004
0171999999148411950010512005+45567-084783SAO  +021699999V02033859001550061049N016000599-01175-01335102845ADDGF108995999999999999999999MA1999999100075MW1855EQDN01 05000JPWTH 1QNNG11 1 00020K11 1 00008L11 1 01000M11 1 29550N11 1 05000Q11 1 10284S11 1 00011V11 1 01099W11 1 18003
0076337910999991950111700004+47933+033333FM-12+010399999V0203401N00621004501CN0050001N9+00281+00111100691ADDAY161999GF108991999071004501021999MD1310051+9999MW1611EQDQ01+000082SCOTLC
0329999999231831950013009005+33433-112033SAO  +033999999V02009059003150015249N006400599+00835+00725101465ADDGA1999+001524134GA2999+002744074GD19065+9999999GD29025+9999999GD39999+9999999GD49999+9999999GF108995999999999999999999MA1999999097465MW1055EQDN01 08100JPWTH 1QNNE11 1 09908E11 1 09902E11 1 09999E11 1 09999G11 1 00005H11 1 13005H11 1 16009K11 1 00045L11 1 00400M11 1 28780N11 1 08100Q11 1 10146S11 1 00047V11 1 01099W11 1 33006
0171999999128411950090316005+28550-081333SAO  +003499999V02009059004650609649N019200599+02615+02225101225ADDGF108995999999999999999999MA1999999100815MW1615EQDN01 02000JPWTH 1QNNG11 1 00200K11 1 00072L11 1 01200M11 1 29770N11 1 02000Q11 1 10122S11 1 00079V11 1 01099W11 1 33009
017699999924036195006290500E+47050-109450SAO  +1259LWT  V02011359004650762049N064000599+01335+00945102345ADDAA101000095GF106995999999999999999999MA1999999088155EQDN01 00000JPWTH 1QNNG11 1 00250K11 1 00049L11 1 04000M11 1 26030N11 1 00000Q11 1 10234S11 1 00056V11 1 00899W11 1 34009
0076912750216031950041000004+16733-169533SAO  +0002PJON V0200901N009310270019N0192001N9+02631+02301101461ADDGA1031+005409089GA2081+027009049GF108991999999999999999999MA1999999101421
017699999913885195005110000E+31417-087033SAO  +0078EVR  V02022559003152200059N024000599+02675+02005101965ADDAA101000095GF102995999999999999999999MA1999999101055EQDN01 00000JPWTH 1QNNG11U1 99999K11 1 00068L11 1 01500M11 1 29840N11 1 00000Q11 1 10196S11 1 00080V11 1 00299W11 1 66006
017699999912839195011300500E+25817-080283SAO  +000799999V02036059003652200059N024000599+01115+00285101965ADDAA101000095GF100995999999999999999999MA1999999101935EQDN01 00000JPWTH 1QNNG11U1 99999K11 1 00037L11 1 01500M11 1 30100N11 1 00000Q11 1 10196S11 1 00052V11 1 00099W11 1 11007
017699999924130195008110600E+44833-117817SAO  +1028BKE  V02015859001052200059N064000599+01285+00675101565ADDAA101000095GF100995999999999999999999MA1999999089985EQDN01 00000JPWTH 1QNNG11U1 99999K11 1 00044L11 1 04000M11 1 26570N11 1 00000Q11 1 10156S11 1 00055V11 1 00099W11 1 54002
0171701740265331950102708003+66917-151517SAO  +0196BTT  V02033859001550091449N0240005N1-00785-01115100145ADDGF108995999999999999999999MA1999999096825MW1001EQDN01 00000JPWTH 1QNNG11 1 00030K11 1 00012L11 1 01500M11 1 28590N11 1 00000Q11 1 10014S11 1 00018V11 1 01099W11 1 18003
0165999999148561950050622005+42100-083167SAO  +018199999V02024859012952200059N024000599+02175+00505101175ADDGF102995999999999999999999MA1999999099095EQDN01 00000JPWTH 1QNNG11U1 99999K11 1 00041L11 1 01500M11 1 29260N11 1 00000Q11 1 10117S11 1 00071V11 1 00399W11 1 76025
017699999913894195006151000E+30683-088250SAO  +0064MOB  V02099999000052200059N019200599+02175+02115101735ADDAA101000095GF102995999999999999999999MA1999999100955EQDN01 00000JPWTH 1QNNG11U1 99999K11 1 00070L11 1 01200M11 1 29810N11 1 00000Q11 1 10173S11 1 00071V11 1 00299W11 1 00000
0078255630999991950032718004+64783+177567FM-12+006299999V0203401N00211220001CN0100001N9-03111+99999101971ADDAY101999GF100991001001999999001001MW1081EQDQ01+000022APCTENQ02+000002APC3  
0165999999939861950042307005+35000-099050SAO  +0474HBR  V02020359008250609649N024000599+02114+01675100584ADDGF106995999999999999999999MA1999999095194EQDN01 00000JPWTH 1QNNG11 1 00200K11 1 00062L11 1 01500M11 1 28110N11 1 00000Q11 1 10058S11 1 00070V11 1 00899W11 1 56016
018299999913882195011032000E+35033-085200SAO  +021099999V02029359004150079249N004800599+01615+01505100515ADDAA101002895GF108995999999999999999999MA1999999098075MW1655EQDN01 02200JPWTH 1QNNG11 1 00026K11 1 00059L11 1 00300M11 1 28960N11 1 02200Q11 1 10051S11 1 00061V11 1 01099W11 1 78008
0165999999241261950070609005+41200-112017SAO  +135499999V02015859003652200059N024000599+02115+00785101155ADDGF104995999999999999999999MA1999999086495EQDN01 00000JPWTH 1QNNG11U1 99999K11 1 00046L11 1 01500M11 1 25540N11 1 00000Q11 1 10115S11 1 00070V11 1 00599W11 1 54007
0165999999038151950061622005+30483-087350SAO  +002899999V02029359002150091449N019200599+02785+02225101565ADDGF108995999999999999999999MA1999999101155EQDN01 00000JPWTH 1QNNG11 1 00030K11 1 00072L11 1 01200M11 1 29870N11 1 00000Q11 1 10156S11 1 00082V11 1 01099W11 1 78004
0050718070999991950051117004+47300-054000SAO  +0016CYAR V0202031N012910001519N0002001N1+00351+00351100551ADDGF108991999999999999999999MA1999999100371MW1451
0171999999148261950022207005+42967-083733SAO  +023799999V02002359007250021349N014400599-00835-01065101155ADDGF108995999999999999999999MA1999999098245MW1855EQDN01 05000JPWTH 1QNNG11 1 00007K11 1 00013L11 1 00900M11 1 29010N11 1 05000Q11 1 10115S11 1 00017V11 1 01099W11 1 12014
018872734514847195011020500E+99999+999999SAO  +999999999V02033859004650024449N002400599+00445+00445099765ADDAA101000595GF108995999999999999999999MA1999999097125MW1455MW2615EQDN01 02070JPWTH 1QNNG11 1 00008K11 1 00040L11 1 00150M11 1 28680N11 1 02070Q11 1 09976S11 1 00040V11 1 01099W11 1 18009
0323999999139931950041212005+39767-094917SAO  +024799999V02002359006750213449N019200599+00115-00785102745ADDGA1999+015244064GA2999+021344034GD19025+9999999GD29085+9999999GD39999+9999999GD49999+9999999GF108995999999999999999999MA1999999099735EQDN01 00000JPWTH 1QNNE11 1 09902E11 1 09910E11 1 09999E11 1 09999G11 1 00070H11 1 15050H11 1 23070K11 1 00018L11 1 01200M11 1 29450N11 1 00000Q11 1 10274S11 1 00034V11 1 01099W11 1 12013
0171702710264251950080615003+62150-145450SAO  +0481GKN  V02027059001050304849N0640005N1+00725+00615101255ADDGF107995999999999999999999MA1999999095505MW1001EQDN01 00000JPWTH 1QNNG11 1 00100K11 1 00043L11 1 04000M11 1 28200N11 1 00000Q11 1 10125S11 1 00045V11 1 00999W11 1 77002
0066745940137051950102904004+38817-076883SAO  +0085ADW  V0201401N002610210019N0160001N9+01461+01351102201ADDGA1061+021009039GF107991999999999999999999MA1999999101151MW1001
0165999999137311950070305005+39000-078233SAO  +020899999V02022559002650274349N024000599+01835+01725101735ADDGF106995999999999999999999MA1999999099295EQDN01 00000JPWTH 1QNNG11 1 00090K11 1 00063L11 1 01500M11 1 29320N11 1 00000Q11 1 10173S11 1 00065V11 1 00799W11 1 66005
0050477710999991950100618004+34783+135433SAO  +0015RJOO V0209991C000012200019N0200001N1+01071+01021101661ADDGF100991999999999999999999MA1999999101491MW1001
0066724096147061950010902004+40033-074600SAO  +0038WRI  V0201601N004112200019N0160931N9-00611-01831103491ADDGA1001+999999999GF100991999999999999999999MA1999999102981MW1001
017699999923063195009190300E+39650-106917SAO  +1980EGE  V02004559003150167649N024000599+01175+00895102445ADDAA101000095GF108995999999999999999999MA1999999080735EQDN01 00000JPWTH 1QNNG11 1 00055K11 1 00048L11 1 01500M11 1 23840N11 1 00000Q11 1 10244S11 1 00053V11 1 01099W11 1 22006
0165999999129471950111201005+28450-099217SAO  +0141COT  V02011359002152200059N024000599+00785-01005102615ADDGF100995999999999999999999MA1999999100855EQDN01 00000JPWTH 1QNNG11U1 99999K11 1 00014L11 1 01500M11 1 29780N11 1 00000Q11 1 10261S11 1 00046V11 1 00099W11 1 34004
0165999999232391950122410005+37783-122317SAO  +000999999V02099999000052200059N011200599+00725+00615102245ADDGF100995999999999999999999MA1999999102175EQDN01 00000JPWTH 1QNNG11U1 99999K11 1 00043L11 1 00700M11 1 30170N11 1 00000Q11 1 10224S11 1 00045V11 1 00099W11 1 00000
0082722436129061950013018004+29600-095167SAO  +0012EFD  V0202001N009810066019N0160001N9+02571+02071101661ADDGA1041+004509059GA2061+006609089GF107991999999999999999999MA1999999101521MW1001
017699999913997195012042000E+38133-091767SAO  +0350VIH  V02013559007250213449N024000599+00445-00835101085ADDAA101000095GF108995999999999999999999MA1999999096925EQDN01 00000JPWTH 1QNNG11 1 00070K11 1 00017L11 1 01500M11 1 28620N11 1 00000Q11 1 10108S11 1 00040V11 1 01099W11 1 44014
0165999999242831950121909005+40983-124100SAO  +0062ACV  V02015859004650152449N016000599+01675+00615101085ADDGF108995999999999999999999MA1999999100275EQDN01 00000JPWTH 1QNNG11 1 00050K11 1 00043L11 1 01000M11 1 29610N11 1 00000Q11 1 10108S11 1 00062V11 1 01099W11 1 54009
0165999999147471950090214005+42500-079283SAO  +020699999V02004559005752200059N019200599+01945+01335101595ADDGF104995999999999999999999MA1999999099155EQDN01 00000JPWTH 1QNNG11U1 99999K11 1 00056L11 1 01200M11 1 29280N11 1 00000Q11 1 10159S11 1 00067V11 1 00599W11 1 22011
018272654614946195003200000C+44917-097150SAO  +0532ATY  V02011359004150182949N0240005N1-00395-00785102135ADDAA101000095GF108995999999999999999999MA1999999095605MW1001EQDN01 00000JPWTH 1QNNG11 1 00060K11 1 00018L11 1 01500M11 1 28230N11 1 00000Q11 1 10213S11 1 00025V11 1 01099W11 1 34008
0165999999930261950061510005+31467-109600SAO  +1249DUG  V02004559002152200059N032000599+01504-00945100814ADDGF100995999999999999999999MA1999999087334EQDN01 00000JPWTH 1QNNG11U1 99999K11 1 00015L11 1 02000M11 1 25790N11 1 00000Q11 1 10081S11 1 00059V11 1 00099W11 1 22004
018272225593842195008241100C+32517-084933SAO  +0118CSG  V02002359001052200059N0112005N1+01565+01445101865ADDAA101000095GF100995999999999999999999MA1999999100475MW1001EQDN01 00000JPWTH 1QNNG11U1 99999K11 1 00058L11 1 00700M11 1 29670N11 1 00000Q11 1 10186S11 1 00060V11 1 00099W11 1 12002
0165999999240301950100817005+41100-102983SAO  +130899999V02024859001552200059N024000599+01785+00005102205ADDGF100995999999999999999999MA1999999087445EQDN01 00000JPWTH 1QNNG11U1 99999K11 1 00032L11 1 01500M11 1 25820N11 1 00000Q11 1 10220S11 1 00064V11 1 00099W11 1 76003
038899999924155195006210000E+45683-118850SAO  +045599999V02036059002150762049N032000599+03065+01065100685ADDAA101000095GA1999+015244094GA2999+076204004GA3999+999999999GA4999+999999999GD19005+9999999GD29065+9999999GD39005+9999999GD49005+9999999GF106995999999999999999999MA1999999095465EQDN01 00000JPWTH 1QNNE11 1 09900E11 1 09908E11 1 09900E11 1 09900G11 1 00250H11 1 18050H11 1 32250H11 1 00999H11 1 00999K11 1 00051L11 1 02000M11 1 28190N11 1 00000Q11 1 10068S11 1 00087V11 1 00899W11 1 11004
0108108930999991950041806004+48583+013483FM-12+040899999V0201801N00051220001CN0200001N9+00111+00001100881ADDAY101061GA1011+012009059GA2011+012009059GF101991011051012501001001IA1089KA1999N-00111MD1810171+9999MW1011
0066722595139111950031620004+32783-097433SAO  +0192FWH  V0200201N004610750019N0240001N9+01891+00561102151ADDGA1061+075009009GF107991999999999999999999MA1999999099971MW1001
018274694113786195011011300C+36267-076183SAO  +0004ECG  V02022559002152200059N0080005N9+02175+01565101665ADDAA101000095GF100995999999999999999999MA1999999101635MW1055EQDN01 08100JPWTH 1QNNG11U1 99999K11 1 00060L11 1 00500M11 1 30010N11 1 08100Q11 1 10166S11 1 00071V11 1 00099W11 1 66004
0066042610999991950101420004+61217-048117SAO  +0029BGGD V0201351N008210030019N0064001N1+00801+00691099291ADDGA1081+003009079GF108991999999999999999999MA1999999098951MW1611
018299999913983195002140400E+38967-092367SAO  +023899999V02031559005250018349N006400599-00175-00225101355ADDAA101000095GF108995999999999999999999MA1999999098415MW1455EQDN01 07000JPWTH 1QNNG11 1 00006K11 1 00028L11 1 00400M11 1 29060N11 1 07000Q11 1 10135S11 1 00029V11 1 01099W11 1 88010
018299999914923195010010800E+41450-090500SAO  +0177MLI  V02013559001552200059N008000599+01785+01675101965ADDAA101000095GF100995999999999999999999MA1999999099805MW1045EQDN01 08200JPWTH 1QNNG11U1 99999K11 1 00062L11 1 00500M11 1 29470N11 1 08200Q11 1 10196S11 1 00064V11 1 00099W11 1 44003
0066717020999991950041608004+46433-063833SAO  +0024CYSU V0202481N001512200019N0240001N1-00091-00261100991ADDGA1031+999999059GF102991999999999999999999MA1999999100681MW1001
0082724835232061950121523004+38550-121300SAO  +0027MHR  V0203601N001510600019N0160001N9+01851+01241102241ADDGA1021+007509089GA2061+060009009GF107991999999999999999999MA1999999101901MW1001
0383722886231301950050407003+34217-118500SAO  +0240VNY  V02099999000052200059N0240005N9+00785+00395101255ADDGA1021+015244064GA2999+999999999GA3999+999999999GA4999+999999999GD19025+9999999GD29005+9999999GD39005+9999999GD49005+9999999GF102995999999999999999999MA1999999098445MW1001EQDN01 00000JPWTH 1QNNE11 1 09902E11 1 09900E11 1 09900E11 1 09900G11U1 99999H11 1 15050H11 1 00999H11 1 00999H11 1 00999K11 1 00039L11 1 01500M11 1 29070N11 1 00000Q11 1 10125S11 1 00046V11 1 00299W11 1 00000
017699999914944195004282000E+43567-096733SAO  +043499999V02006859006750106749N024000599+00445-00445102305ADDAA101000095GF108995999999999999999999MA1999999096995EQDN01 00000JPWTH 1QNNG11 1 00035K11 1 00024L11 1 01500M11 1 28640N11 1 00000Q11 1 10230S11 1 00040V11 1 01099W11 1 32013
0057308290999991950031918004+51100+106483FM-12+054299999V0209991C00001220001CN9999999N9-01611-01721103071ADDAY101999GF100991001001999999001001MD1810071+9999MW1021
0296999999947021950031712005+41167-073133SAO  +000899999V02004559004650426749N024000599-00394-01785101524ADDGA1999+042674044GD19085+9999999GD29999+9999999GD39999+9999999GD49999+9999999GF108995999999999999999999MA1999999101464EQDN01 00000JPWTH 1QNNE11 1 09910E11 1 09999E11 1 09999E11 1 09999G11 1 00140H11 1 21140K11 1 00000L11 1 01500M11 1 29960N11 1 00000Q11 1 10152S11 1 00025V11 1 01099W11 1 22009
017699999993808195009260500E+36967-086433SAO  +016499999V02099999000052200059N032000599+01064+00895102274ADDAA101000095GF100995999999999999999999MA1999999100304EQDN01 00000JPWTH 1QNNG11U1 99999K11 1 00048L11 1 02000M11 1 29620N11 1 00000Q11 1 10227S11 1 00051V11 1 00099W11 1 00000
0057310880999991950082621004+59367+143200FM-12+000699999V0209991C00001002401CN0020001N9+01221+00891101021ADDAY121999GF107991071051002501001001MD1310061+9999MW1101
0058062100999991950111021004+52167+004417FM-12+000199999V0202001N01231001501CN0022001N9+01391+01391999999ADDAY161999GF108991081061001501999999MA1999999099201MW1631
018272784624160195011021600C+46100-118283SAO  +0363ALW  V02015859003150009149N0016005N1+00565+00565103455ADDAA101000095GF108995999999999999999999MA1999999098955MW1455EQDN01 07000JPWTH 1QNNG11 1 00003K11 1 00042L11 1 00100M11 1 29220N11 1 07000Q11 1 10345S11 1 00042V11 1 01099W11 1 54006
0049407120999991950121204004+37533+045083FM-12+133099999V0209991C00001220001CN0160001N9-00061-00391999999ADDAY141999GF107991031051012501071001IA1009MW1051
0165999999240191950062705005+42750-105367SAO  +148799999V02009059004150701049N064000599+01285+00675101965ADDGF106995999999999999999999MA1999999085615EQDN01 00000JPWTH 1QNNG11 1 00230K11 1 00044L11 1 04000M11 1 25280N11 1 00000Q11 1 10196S11 1 00055V11 1 00799W11 1 33008
0171999999265191950062506005+62533-153900SAO  +045899999V02029359002650198149N096000599+01115+00725100145ADDGF108995999999999999999999MA1999999094685MW1805EQDN01 02300JPWTH 1QNNG11 1 00065K11 1 00045L11 1 06000M11 1 27960N11 1 02300Q11 1 10014S11 1 00052V11 1 01099W11 1 78005
039472356013968195012262100C+36200-095900SAO  +0206TUL  V02002359011352200059N0192005N1-00115-01395102575ADDAA101000095GA1011+076204004GA2999+999999999GA3999+999999999GA4999+999999999GD19015+9999999GD29005+9999999GD39005+9999999GD49005+9999999GF101995999999999999999999MA1999999100075MW1001EQDN01 00000JPWTH 1QNNE11 1 09901E11 1 09900E11 1 09900E11 1 09900G11U1 99999H11 1 32250H11 1 00999H11 1 00999H11 1 00999K11 1 00007L11 1 01200M11 1 29550N11 1 00000Q11 1 10257S11 1 00030V11 1 00199W11 1 12022
0165999999139981950082323005+37633-097267SAO  +043299999V02018059006252200059N024000599+02785+01785101155ADDGF100995999999999999999999MA1999999096315EQDN01 00000JPWTH 1QNNG11U1 99999K11 1 00064L11 1 01500M11 1 28440N11 1 00000Q11 1 10115S11 1 00082V11 1 00099W11 1 55012
0082106330999991950052104004+50050+008333SAO  +0145EDOU V0209991C000010240019N0240001N9+01461+01191101421ADDGA1021+012009059GA2051+024009049GF107991999999999999999999MA1999999099731MW1001
0165999999266271950110514005+63883-160800SAO  +0006UNK  V02004559005750137249N024000599-00835-01175102445ADDGF108995999999999999999999MA1999999102375EQDN01 00000JPWTH 1QNNG11 1 00045K11 1 00011L11 1 01500M11 1 30230N11 1 00000Q11 1 10244S11 1 00017V11 1 01099W11 1 22011
0050914130403081950092213004+09483+138083SAO  +0017PTYA V0209991C000010750019N0160001N1+02571+02461101101ADDGF108991999999999999999999MA1999999100911MW1001
0165999999038151950040718005+30483-087350SAO  +002899999V02031559002652200059N024000599+01615-00115102615ADDGF100995999999999999999999MA1999999102175EQDN01 00000JPWTH 1QNNG11U1 99999K11 1 00030L11 1 01500M11 1 30170N11 1 00000Q11 1 10261S11 1 00061V11 1 00099W11 1 88005
0050747910137171950022221004+33683-078933SAO  +0008MYR  V0202501N009810480019N0128001N9+02071+01241100781ADDGF108991999999999999999999MA1999999100681MW1001
0165999999266161950040704005+66867-162633SAO  +0006OTZ  V02009059006750030549N024000599-00785-00895101965ADDGF108995999999999999999999MA1999999101905EQDN01 00000JPWTH 1QNNG11 1 00010K11 1 00016L11 1 01500M11 1 30090N11 1 00000Q11 1 10196S11 1 00018V11 1 01099W11 1 33013
0083787450999991950061400004+11983-083783FM-12+001199999V0200901N001019999999N0200001N9+02671+02281100981ADDAY111999GF106991041051012501021041KA1999M+03111KA2999N+02281MD1610121+9999MW1031
017699999923174195012180700E+33933-118383SAO  +003799999V02002359003652200059N024000599+01505+00335101715ADDAA101000095GF100995999999999999999999MA1999999101355EQDN01 00000JPWTH 1QNNG11U1 99999K11 1 00038L11 1 01500M11 1 29930N11 1 00000Q11 1 10171S11 1 00059V11 1 00099W11 1 12007
018299999914752195009231300E+41733-072650SAO  +0006HFD  V02029359003652200059N009600599+01615+01175099935ADDAA101000095GF100995999999999999999999MA1999999099865MW1055EQDN01 08100JPWTH 1QNNG11U1 99999K11 1 00053L11 1 00600M11 1 29490N11 1 08100Q11 1 09993S11 1 00061V11 1 00099W11 1 78007
0066749058999991950071811004+29350-098450SAO  +0182XS88 V0201581N004110042019N0240001N1+02461+02301101631ADDGA1051+004209079GF107991999999999999999999MA1999999099531MW1001
0165999999264451950052302005+60083-142500SAO  +0010CYT  V02018059003150243849N096000599+00945+00395102205ADDGF106995999999999999999999MA1999999102105EQDN01 00000JPWTH 1QNNG11 1 00080K11 1 00039L11 1 06000M11 1 30150N11 1 00000Q11 1 10220S11 1 00049V11 1 00799W11 1 55006
0356999999433161950111107005+33633+130500SAO  +0014RKBD V02009059001550076249N008000599+01785+01445101155ADDGA1999+006104134GA2999+007624064GA3999+015244064GD19015+9999999GD29065+9999999GD39085+9999999GD49999+9999999GF108995999999999999999999MA1999999101155MW1055EQDN01 08100JPWTH 1QNNE11 1 09901E11 1 09908E11 1 09910E11 1 09999G11 1 00025H11 1 13020H11 1 15025H11 1 15050K11 1 00058L11 1 00500M11 1 29870N11 1 08100Q11 1 10115S11 1 00064V11 1 01099W11 1 33003
0165999999265161950052003005+61583-159533SAO  +002499999V02024859006750548649N064000599+01285+00285100375ADDGF105995999999999999999999MA1999999100035EQDN01 00000JPWTH 1QNNG11 1 00180K11 1 00037L11 1 04000M11 1 29540N11 1 00000Q11 1 10037S11 1 00055V11 1 00699W11 1 76013
0165999999937181950071502005+33683-078933SAO  +000899999V02022559002152200059N012800599+02504+02445102034ADDGF102995999999999999999999MA1999999101934EQDN01 00000JPWTH 1QNNG11U1 99999K11 1 00076L11 1 00800M11 1 30100N11 1 00000Q11 1 10203S11 1 00077V11 1 00299W11 1 66004
0165999999129471950070517005+28450-099217SAO  +0141COT  V02015859005252200059N024000599+03445+01835101465ADDGF102995999999999999999999MA1999999099805EQDN01 00000JPWTH 1QNNG11U1 99999K11 1 00065L11 1 01500M11 1 29470N11 1 00000Q11 1 10146S11 1 00094V11 1 00399W11 1 54010
0165999999240121950081718005+46800-102800SAO  +079399999V02015859003652200059N024000599+01675+00505102845ADDGF100995999999999999999999MA1999999093605EQDN01 00000JPWTH 1QNNG11U1 99999K11 1 00041L11 1 01500M11 1 27640N11 1 00000Q11 1 10284S11 1 00062V11 1 00099W11 1 54007
0329999999422041950060208005+26350+127767SAO  +0043RODN V02099999000050054949N012800599+02065+01615100955ADDGA1999+004574154GA2999+005494064GD19015+9999999GD29085+9999999GD39999+9999999GD49999+9999999GF108995999999999999999999MA1999999100415MW1615EQDN01 02000JPWTH 1QNNE11 1 09901E11 1 09910E11 1 09999E11 1 09999G11 1 00018H11 1 17015H11 1 15018K11 1 00061L11 1 00800M11 1 29650N11 1 02000Q11 1 10095S11 1 00069V11 1 01099W11 1 00000
038899999914925195007060000E+44000-092450SAO  +031599999V02036059005252200059N024000599+02335+01115101905ADDAA101000095GA1999+009144084GA2999+021344034GA3999+999999999GA4999+999999999GD19005+9999999GD29025+9999999GD39005+9999999GD49005+9999999GF102995999999999999999999MA1999999098215EQDN01 00000JPWTH 1QNNE11 1 09900E11 1 09903E11 1 09900E11 1 09900G11U1 99999H11 1 11030H11 1 23070H11 1 00999H11 1 00999K11 1 00052L11 1 01500M11 1 29000N11 1 00000Q11 1 10190S11 1 00074V11 1 00399W11 1 11010
0165999999931041950062310005+35683-117683SAO  +068199999V02018059008252200059N024000599+02224+00675100344ADDGF100995999999999999999999MA1999999092754EQDN01 00000JPWTH 1QNNG11U1 99999K11 1 00044L11 1 01500M11 1 27390N11 1 00000Q11 1 10034S11 1 00072V11 1 00099W11 1 55016
004594776099999195010090500N-32800+151830AUST +0011YSWM V0201135N006759999999N999999999+01895+99999999999ADDGA1075+009005999GF108995074999009005999999
0383725540149491950062321003+41117-095900SAO  +0314OFF  V02020359006252200059N0240005N9+03505+02175099975ADDGA1021+013724084GA2999+999999999GA3999+999999999GA4999+999999999GD19025+9999999GD29005+9999999GD39005+9999999GD49005+9999999GF102995999999999999999999MA1999999096415MW1001EQDN01 00000JPWTH 1QNNE11 1 09903E11 1 09900E11 1 09900E11 1 09900G11U1 99999H11 1 11045H11 1 00999H11 1 00999H11 1 00999K11 1 00071L11 1 01500M11 1 28470N11 1 00000Q11 1 09997S11 1 00095V11 1 00399W11 1 56012
017699999923170195002241600E+38417-110700SAO  +136099999V02011359000550426749N080000599+00615-00505102405ADDAA101000095GF108995999999999999999999MA1999999086935EQDN01 00000JPWTH 1QNNG11 1 00140K11 1 00023L11 1 05000M11 1 25670N11 1 00000Q11 1 10240S11 1 00043V11 1 01099W11 1 34001
018272533014827195010161300C+41000-085217SAO  +0245FWA  V02015859005252200059N0128005N9+01285+00565102815ADDAA101000095GF100995999999999999999999MA1999999099765MW1001EQDN01 00000JPWTH 1QNNG11U1 99999K11 1 00042L11 1 00800M11 1 29460N11 1 00000Q11 1 10281S11 1 00055V11 1 00099W11 1 54010
039472306013722195002082100C+35867-078783SAO  +0135RDU  V02006859003650304849N0240005N1+00945+00005103015ADDAA101000095GA1061+030484034GA2031+091444004GA3999+999999999GA4999+999999999GD19065+9999999GD29035+9999999GD39005+9999999GD49005+9999999GF107995999999999999999999MA1999999101355MW1001EQDN01 00000JPWTH 1QNNE11 1 09908E11 1 09904E11 1 09900E11 1 09900G11 1 00100H11 1 23100H11 1 32300H11 1 00999H11 1 00999K11 1 00032L11 1 01500M11 1 29930N11 1 00000Q11 1 10301S11 1 00049V11 1 00999W11 1 32007
0058062450999991950102703004+53483+005133FM-12+000399999V0201201N005719999999N0200001N9+00501+00001999999ADDAY111999GF107991999999999999999999MA1999999102041MW1031
017699999923158195006061700E+33617-114717SAO  +0119BLH  V02015859006752200059N064000599+03005+00835100415ADDAA101000095GF100995999999999999999999MA1999999099055EQDN01 00000JPWTH 1QNNG11U1 99999K11 1 00047L11 1 04000M11 1 29250N11 1 00000Q11 1 10041S11 1 00086V11 1 00099W11 1 54013
0082723273999991950080520004+36000-086500SAO  +0166MQY  V0203601N006212200019N0240001N1+02681+01691101901ADDGA1021+015009089GA2021+054009039GF102991999999999999999999MA1999999100031MW1001
0082722175138601950051721004+32633-083600SAO  +0090WRB  V0200501N003610105019N0160001N9+02941+01111101251ADDGA1061+010509089GA2021+060009009GF107991999999999999999999MA1999999100301MW1001
0092306750999991950070512004+53533+118717FM-12+060399999V0200901N00101220001CN0200001N9+01611+01111100511ADDAY121999GF106991001001999999001021MD1210281+9999MW1031EQDQ01+000042APCTENQ02+000012APC3  
0066722435999991950121909004+29650-095283SAO  +0019HOU  V0201351N004612200019N0004001N1+00801+00801102541ADDGA1031+000151999GF102991999999999999999999MA1999999102271MW1111
017699999912839195012160500E+25817-080283SAO  +000799999V02024859001552200059N016000599+01835+01505101765ADDAA101000095GF100995999999999999999999MA1999999101735EQDN01 00000JPWTH 1QNNG11U1 99999K11 1 00059L11 1 01000M11 1 30040N11 1 00000Q11 1 10176S11 1 00065V11 1 00099W11 1 76003
0069946460999991950021909004-30833+128100FM-12+016099999V0201101N009319999999N0200001N9+02391+00781999999ADDAY101999GF105991001001999999999999KA1999M+02941KA2999N+01221MW1001
0362999999947021950012921005+41167-073133SAO  +000899999V02022559002650365849N006400599+00834+00615101394ADDGA1999+024384034GA2999+036584034GA3999+085344004GD19025+9999999GD29055+9999999GD39085+9999999GD49999+9999999GF108995999999999999999999MA1999999101324MW1045MW2455EQDN01 07080JPWTH 1QNNE11 1 09902E11 1 09906E11 1 09910E11 1 09999G11 1 00120H11 1 23080H11 1 23120H11 1 32280K11 1 00043L11 1 00400M11 1 29920N11 1 07080Q11 1 10139S11 1 00047V11 1 01099W11 1 66005
0082914080403091950021309004+07333+134483SAO  +0033PTRO V0200451N002110060019N0240001N1+02741+02351100401ADDGA1061+006009059GA2081+090009009GF108991999999999999999999MA1999999100031MW1001
0165999999931051950091323005+33433-112367SAO  +030099999V02033859003652200059N048000599+03564+00615100794ADDGF100995999999999999999999MA1999999097534EQDN01 00000JPWTH 1QNNG11U1 99999K11 1 00043L11 1 03000M11 1 28800N11 1 00000Q11 1 10079S11 1 00096V11 1 00099W11 1 18007
0078250340999991950061818004+69567+162300FM-12+002499999V0200701N00511000601CN0040001N9+00001-00111100631ADDAY171999GF108991081061000751999999MW1531EQDQ01+000032APCTENQ02+000002APC3  
017699999924033195011181300E+45800-108533SAO  +1087BIL  V02002359012450021349N032000599-00675-00895100005ADDAA101000095GF108995999999999999999999MA1999999087505EQDN01 00000JPWTH 1QNNG11 1 00007K11 1 00016L11 1 02000M11 1 25840N11 1 00000Q11 1 10000S11 1 00020V11 1 01099W11 1 12024
017699999923067195011090600E+38050-103517SAO  +1279LHX  V02036059005250088449N024000599-00335-00895102785ADDAA101000095GF108995999999999999999999MA1999999087915EQDN01 00000JPWTH 1QNNG11 1 00029K11 1 00016L11 1 01500M11 1 25960N11 1 00000Q11 1 10278S11 1 00026V11 1 01099W11 1 11010
038899999923187195012290900E+34750-118733SAO  +1379SDB  V02033859008852200059N024000599+00675-00565101595ADDAA101000095GA1999+076204024GA2999+999999999GA3999+999999999GA4999+999999999GD19005+9999999GD29005+9999999GD39005+9999999GD49005+9999999GF100995999999999999999999MA1999999086325EQDN01 00000JPWTH 1QNNE11 1 09900E11 1 09900E11 1 09900E11 1 09900G11U1 99999H11 1 37250H11 1 00999H11 1 00999H11 1 00999K11 1 00022L11 1 01500M11 1 25490N11 1 00000Q11 1 10159S11 1 00044V11 1 00099W11 1 18017
017699999923181195007190100E+33233-117417SAO  +0008OCN  V02024859004652200059N040000599+02065+01615101325ADDAA101000095GF103995999999999999999999MA1999999101225EQDN01 00000JPWTH 1QNNG11U1 99999K11 1 00061L11 1 02500M11 1 29890N11 1 00000Q11 1 10132S11 1 00069V11 1 00499W11 1 76009
018272255512935195012171600C+28717-096250SAO  +0005PSX  V02036059004652200059N0240005N1+01335+00115102815ADDAA101000095GF100995999999999999999999MA1999999102785MW1001EQDN01 00000JPWTH 1QNNG11U1 99999K11 1 00034L11 1 01500M11 1 30350N11 1 00000Q11 1 10281S11 1 00056V11 1 00099W11 1 11009
0057279280999991950010303004+52633+038517FM-12+013099999V0202701N00311007801CN0100001N9-01501-01781100621ADDAY121999GF108991081051008001999999MD1810021+9999MW1021
0050726556999991950012012004+44550-095083SAO  +0314RWF  V0201131N006210300019N0240001N1-01481-01871102881ADDGF107991999999999999999999MA1999999098851MW1001
0165999999265281950122620005+62300-150100SAO  +010799999V02033859002150137249N048000599-00115-00505099225ADDGF108995999999999999999999MA1999999097905EQDN01 00000JPWTH 1QNNG11 1 00045K11 1 00023L11 1 03000M11 1 28910N11 1 00000Q11 1 09922S11 1 00030V11 1 01099W11 1 18004
0052166720999991950011512004+38617+021400FM-12+003699999V0203201N00261220001CN0200001N9+00781+00111102301ADDAJ100009199999999GF103991999001999999051021IA1009
0165999999231921950062602005+35333-116100SAO  +028299999V02018059001552200059N048000599+03615-00225100885ADDGF100995999999999999999999MA1999999097735EQDN01 00000JPWTH 1QNNG11U1 99999K11 1 00028L11 1 03000M11 1 28860N11 1 00000Q11 1 10088S11 1 00097V11 1 00099W11 1 55003
0068407780999991950110414004+33483+048367FM-12+131199999V0200501N00101220001CN0160001N9+02281-00061999999ADDAY101999GF107991011041999999031081IA1009MW1001EQDQ01+000992SCOLCB
0057305420999991950020306004+54850+111650FM-12+056399999V0209991C00001220001CN0500001N9-02391-02781999999ADDAY121999GF108991001001999999001071MD1810201+9999MW1021
0165999999139051950090300005+30633-096467SAO  +008199999V02002359002152200059N024000599+02785+01675100615ADDGF100995999999999999999999MA1999999099705EQDN01 00000JPWTH 1QNNG11U1 99999K11 1 00062L11 1 01500M11 1 29440N11 1 00000Q11 1 10061S11 1 00082V11 1 00099W11 1 12004
0377999999137491950120113005+39433-077450SAO  +010199999V02027059003652200059N016000599+00005-00065102005ADDGA1999+999999999GA2999+999999999GA3999+999999999GA4999+999999999GD19005+9999999GD29005+9999999GD39005+9999999GD49005+9999999GF100995999999999999999999MA1999999100755EQDN01 00000JPWTH 1QNNE11 1 09900E11 1 09900E11 1 09900E11 1 09900G11U1 99999H11 1 00999H11 1 00999H11 1 00999H11 1 00999K11 1 00031L11 1 01000M11 1 29750N11 1 00000Q11 1 10200S11 1 00032V11 1 00099W11 1 77007
0165999999931291950062711005+37700-113100SAO  +171399999V02015859004152200059N048000599+01444-00445101634ADDGF100995999999999999999999MA1999999083314EQDN01 00000JPWTH 1QNNG11U1 99999K11 1 00024L11 1 03000M11 1 24600N11 1 00000Q11 1 10163S11 1 00058V11 1 00099W11 1 54008
0057314840999991950030718004+51417+135083FM-12+026299999V0209991C00001220001CN9999999N9-00221-01281999999ADDAY181999GF108991001001999999011999MD1810301+9999MW1711
0377999999148341950020106005+41500-088167SAO  +0181JOT  V02033859004150365849N016000599-00835-01005102915ADDGA1999+036584034GA2999+999999999GA3999+999999999GA4999+999999999GD19075+9999999GD29005+9999999GD39005+9999999GD49005+9999999GF107995999999999999999999MA1999999100645EQDN01 00000JPWTH 1QNNE11 1 09909E11 1 09900E11 1 09900E11 1 09900G11 1 00120H11 1 23120H11 1 00999H11 1 00999H11 1 00999K11 1 00014L11 1 01000M11 1 29720N11 1 00000Q11 1 10291S11 1 00017V11 1 00999W11 1 18008
0082170920999991950030518004+39733+039500SAO  +1215LTCD V02099999999990039019N0000001N1+00691+00131999999ADDGA1061+003909049GA2021+027009049GF108991999999999999999999MA1999999089711MW1001
033499999923051195006010900E+36450-103150SAO  +1515CAO  V02018059004650182949N024000599+01335+01115101565ADDAA101000095GA1999+018294064GA2999+067064024GD19065+9999999GD29085+9999999GD39999+9999999GD49999+9999999GF108995999999999999999999MA1999999084865EQDN01 00000JPWTH 1QNNE11 1 09908E11 1 09910E11 1 09999E11 1 09999G11 1 00060H11 1 15060H11 1 37220K11 1 00052L11 1 01500M11 1 25060N11 1 00000Q11 1 10156S11 1 00056V11 1 01099W11 1 55009
0066477710999991950011521004+34783+135433SAO  +0015RJOO V0209991C000012200019N0176001N1-00041-00201102511ADDGA1999+013509999GF100991999999999999999999MA1999999102341MW1001
0035722315539171950112914004+30050-090033SAO  +0003NEW  V0200681N008710150019N0064001N1+00961+00521102481ADDGF107991999999999999999999MW1041
0171724660930371950122620003+38817-104700SAO  +2804COS  V02015859008850015249N0016005N9-00285-00395102375ADDGF108995999999999999999999MA1999999081105MW1715EQDN01 04000JPWTH 1QNNG11 1 00005K11 1 00025L11 1 00100M11 1 23950N11 1 04000Q11 1 10237S11 1 00027V11 1 01099W11 1 54017
017699999914778195012201000E+41250-076917SAO  +0160IPT  V02027059003652200059N011200599-00785-01225102615ADDAA101000095GF103995999999999999999999MA1999999100585EQDN01 00000JPWTH 1QNNG11U1 99999K11 1 00010L11 1 00700M11 1 29700N11 1 00000Q11 1 10261S11 1 00018V11 1 00499W11 1 77007
0165999999139731950021516005+30500-099767SAO  +052199999V02020359001552200059N024000599+00895+00115102845ADDGF100995999999999999999999MA1999999096655EQDN01 00000JPWTH 1QNNG11U1 99999K11 1 00034L11 1 01500M11 1 28540N11 1 00000Q11 1 10284S11 1 00048V11 1 00099W11 1 56003
018272451523064195001131200C+37967-100817SAO  +0867GCK  V02036059000552200059N0240005N1-00945-01225100615ADDAA101000095GF100995999999999999999999MA1999999090525MW1001EQDN01 00000JPWTH 1QNNG11U1 99999K11 1 00010L11 1 01500M11 1 26730N11 1 00000Q11 1 10061S11 1 00015V11 1 00099W11 1 11001
017699999924141195007301100E+47300-119533SAO  +038899999V02027059005252200059N024000599+01445+00615101695ADDAA101000095GF102995999999999999999999MA1999999097225EQDN01 00000JPWTH 1QNNG11U1 99999K11 1 00043L11 1 01500M11 1 28710N11 1 00000Q11 1 10169S11 1 00058V11 1 00299W11 1 77010
0059782550999991950102017004+21400-077917FM-12+012599999V0201801N00411009001CN0120001N9+03221+99999100941ADDAY111999GA1061+009009089GF106991061021008001999999MW1051
0057349290999991950072412004+45033+039650FM-12+003399999V0200401N00821220001CN0500001N9+03111+00721101071ADDAY101999GF101991011011012501001001MD1810151+9999MW1031
0165999999241281950121214005+40900-117800SAO  +1311WMC  V02015859001552200059N064000599-00065-00175102135ADDGF102995999999999999999999MA1999999087105EQDN01 00000JPWTH 1QNNG11U1 99999K11 1 00029L11 1 04000M11 1 25720N11 1 00000Q11 1 10213S11 1 00031V11 1 00299W11 1 54003
0118352170999991950081006004+50250+052567FM-12+003499999V0201101N00511220001CN0100001N9+02281+01501100751ADDAA199001091AY121999GF101991999001999999051001KA1999N+01501MW1011EQDQ01+000002SCOTLCQ02+000022APCTENQ03+000002APC3  
0377999999230191950121422005+31833-106400SAO  +1196BIF  V02027059005252200059N048000599+02285+00225101255ADDGA1999+076204004GA2999+999999999GA3999+999999999GA4999+999999999GD19025+9999999GD29005+9999999GD39005+9999999GD49005+9999999GF102995999999999999999999MA1999999088115EQDN01 00000JPWTH 1QNNE11 1 09902E11 1 09900E11 1 09900E11 1 09900G11U1 99999H11 1 32250H11 1 00999H11 1 00999H11 1 00999K11 1 00036L11 1 03000M11 1 26020N11 1 00000Q11 1 10125S11 1 00073V11 1 00299W11 1 77010
0165999999149211950090822005+43200-090183SAO  +0219LNR  V02036059002150426749N016000599+02225+01445101695ADDGF108995999999999999999999MA1999999099055EQDN01 00000JPWTH 1QNNG11 1 00140K11 1 00058L11 1 01000M11 1 29250N11 1 00000Q11 1 10169S11 1 00072V11 1 01099W11 1 11004
0323999999242401950021021005+48383-124733SAO  +0035TTI  V02018059006250182949N016000599+00615+00335100075ADDGA1999+018294044GA2999+054864024GD19065+9999999GD29085+9999999GD39999+9999999GD49999+9999999GF108995999999999999999999MA1999999099765EQDN01 00000JPWTH 1QNNE11 1 09908E11 1 09910E11 1 09999E11 1 09999G11 1 00060H11 1 21060H11 1 37180K11 1 00038L11 1 01000M11 1 29460N11 1 00000Q11 1 10007S11 1 00043V11 1 01099W11 1 55012
0377999999230171950012220005+31400-100400SAO  +0573GOF  V02024859007252200059N024000599+02505+01115101255ADDGA1999+076204004GA2999+999999999GA3999+999999999GA4999+999999999GD19025+9999999GD29005+9999999GD39005+9999999GD49005+9999999GF102995999999999999999999MA1999999094795EQDN01 00000JPWTH 1QNNE11 1 09903E11 1 09900E11 1 09900E11 1 09900G11U1 99999H11 1 32250H11 1 00999H11 1 00999H11 1 00999K11 1 00052L11 1 01500M11 1 27990N11 1 00000Q11 1 10125S11 1 00077V11 1 00399W11 1 76014
0082749070999991950062100004+39433-077450SAO  +0100FDK  V0209991C000010360019N0128001N1+02301+02131100981ADDGA1021+015009059GA2041+036009039GF107991999999999999999999MA1999999099831MW1001
038899999924011195009181800E+46767-100750SAO  +050799999V02031559005752200059N024000599+01835+01115101765ADDAA101000095GA1999+009144084GA2999+060964004GA3999+999999999GA4999+999999999GD19005+9999999GD29005+9999999GD39005+9999999GD49005+9999999GF100995999999999999999999MA1999999095805EQDN01 00000JPWTH 1QNNE11 1 09900E11 1 09900E11 1 09900E11 1 09900G11U1 99999H11 1 11030H11 1 32200H11 1 00999H11 1 00999K11 1 00052L11 1 01500M11 1 28290N11 1 00000Q11 1 10176S11 1 00065V11 1 00099W11 1 88011
0057287220999991950012100004+54750+056000FM-12+019799999V0209991C00001220001CN0040001N9-03221-03391101781ADDAY121999GF108991001001999999021999MD1310031+9999MW1031
0066173520999991950051815004+36983+035300SAO  +0020LTAF V0203601N001010147019N0192001N1+02461+01911101171ADDGA1061+014701051GF107991999999999999999999MA1999999100981MW1001
0171999999137541950041908005+34900-076883SAO  +001499999V02099999000052200059N009600599+01395+01285101895ADDGF102995999999999999999999MA1999999101735MW1055EQDN01 08100JPWTH 1QNNG11U1 99999K11 1 00055L11 1 00600M11 1 30040N11 1 08100Q11 1 10189S11 1 00057V11 1 00399W11 1 00000
0165999999231761950050100005+38417-113017SAO  +153499999V02015859005252200059N064000599+01895-00785100855ADDGF102995999999999999999999MA1999999084025EQDN01 00000JPWTH 1QNNG11U1 99999K11 1 00018L11 1 04000M11 1 24810N11 1 00000Q11 1 10085S11 1 00066V11 1 00299W11 1 54010
0043628800999991950072912004+07700+028017FM-12+043899999V0202701N00261045001CN0200001N9+02781+02111100711ADDAY161999GF108991021051004501071999MW1611
018272451523064195002131700C+37967-100817SAO  +0867GCK  V02033859010850042749N0112005N1-00225-00615102305ADDAA101000095GF108995999999999999999999MA1999999092015MW1715EQDN01 04000JPWTH 1QNNG11 1 00014K11 1 00021L11 1 00700M11 1 27170N11 1 04000Q11 1 10230S11 1 00028V11 1 01099W11 1 18021
0064407450999991950060615004+36283+059633FM-12+098399999V0200901N00931220001CN0600001N9+02721+00441999999ADDAY101999GF101991011031017501001001IA1009MA1999999099291MW1001
0082475910999991950101804004+38400+141217SAO  +0003RJST V0209991C000010270019N0080001N1+01461+01191102001ADDGA1041+015009059GA2081+027009049GF108991999999999999999999MA1999999101961MW1051
0171701740265331950060811003+66917-151517SAO  +0196BTT  V02020359002650121949N0320005N1+00785+00565101635ADDGF108995999999999999999999MA1999999098445MW1001EQDN01 00000JPWTH 1QNNG11 1 00040K11 1 00042L11 1 02000M11 1 29070N11 1 00000Q11 1 10163S11 1 00046V11 1 01099W11 1 56005
0085467640999991950040718004+24733+121750SAO  +0009RCMS V0202251N002110060019N0020001N1+01071+00961102231ADDGA1081+006009079GF108991999999999999999999MA1999999102101MW1631EQDQ01+999990APOSLP
0082722545999991950031314004+30200-097667SAO  +0154BSM  V0203601N008712200019N0160001N9+00021-00591102911ADDGA1011+009009059GA2021+030009039GF102991999999999999999999MA1999999101021MW1001
0165999999138991950021717005+30467-087200SAO  +0034PNS  V02002359006752200059N024000599+01285-00725102615ADDGF100995999999999999999999MA1999999102175EQDN01 00000JPWTH 1QNNG11U1 99999K11 1 00019L11 1 01500M11 1 30170N11 1 00000Q11 1 10261S11 1 00055V11 1 00099W11 1 12013
0066466960999991950112303004+25050+121533SAO  +0006RCTP V0202701N002110147019N0040001N1+02301+02181101131ADDGA1081+014709059GF108991999999999999999999MA1999999101021MW1631
038899999914822195008201200E+42400-083000SAO  +018999999V02033859004152200059N024000599+01225+00725101695ADDAA101000095GA1999+999999999GA2999+999999999GA3999+999999999GA4999+999999999GD19005+9999999GD29005+9999999GD39005+9999999GD49005+9999999GF100995999999999999999999MA1999999099425EQDN01 00000JPWTH 1QNNE11 1 09900E11 1 09900E11 1 09900E11 1 09900G11U1 99999H11 1 00999H11 1 00999H11 1 00999H11 1 00999K11 1 00045L11 1 01500M11 1 29360N11 1 00000Q11 1 10169S11 1 00054V11 1 00099W11 1 18008
0165999999137311950071413005+39000-078233SAO  +020899999V02036059004650182949N016000599+02175+01675101835ADDGF106995999999999999999999MA1999999099365EQDN01 00000JPWTH 1QNNG11 1 00060K11 1 00062L11 1 01000M11 1 29340N11 1 00000Q11 1 10183S11 1 00071V11 1 00899W11 1 11009
0057294980999991950010312004+56367+098367FM-12+022099999V0209991C00001220001CN9999999N9-04001+99999103361ADDAY111999GF100991001001999999001001MD1310221+9999MW1011
017699999923183195003051400E+33433-112033SAO  +033999999V02009059001552200059N064000599+01005+00615101695ADDAA101000095GF100995999999999999999999MA1999999097775EQDN01 00000JPWTH 1QNNG11U1 99999K11 1 00043L11 1 04000M11 1 28870N11 1 00000Q11 1 10169S11 1 00050V11 1 00099W11 1 33003
0082106370999991950061702004+50033+008583SAO  +0110EDDF V0209991C000010540019N0080001N9+01441+01441101021ADDGA1021+024009039GA2051+054009009GF107991999999999999999999MA1999999099701MW1451
0059943000999991950081407003-24883+113667FM-12+000599999V0202001N009319999999N0400001N9+02171+01282999999ADDAY101999GA1005+999999999GF100991001001999999999999MW1001
018272784624160195006101300C+46100-118283SAO  +0363ALW  V02099999000052200059N0640005N1+01225+00945101395ADDAA101000095GF102995999999999999999999MA1999999097095MW1001EQDN01 00000JPWTH 1QNNG11U1 99999K11 1 00049L11 1 04000M11 1 28670N11 1 00000Q11 1 10139S11 1 00054V11 1 00299W11 1 00000
0050914130403081950041720004+09483+138083SAO  +0017PTYA V0200451N004610750019N0160001N1+02681+02461100821ADDGF108991999999999999999999MA1999999100641MW1001
018299999914950195008121100E+41100-092450SAO  +0257OTM  V02011359006250304849N009600599+01565+01285102135ADDAA101000095GF108995999999999999999999MA1999999099055MW1805EQDN01 02300JPWTH 1QNNG11 1 00100K11 1 00055L11 1 00600M11 1 29250N11 1 02300Q11 1 10213S11 1 00060V11 1 01099W11 1 34012
0165999999241261950070707005+41200-112017SAO  +135499999V02099999000050335349N024000599+02175+01115101195ADDGF108995999999999999999999MA1999999086525EQDN01 00000JPWTH 1QNNG11 1 00110K11 1 00052L11 1 01500M11 1 25550N11 1 00000Q11 1 10119S11 1 00071V11 1 01099W11 1 00000
0377999999137491950080702005+39433-077450SAO  +010199999V02031559002152200059N024000599+01675+01175101835ADDGA1999+999999999GA2999+999999999GA3999+999999999GA4999+999999999GD19005+9999999GD29005+9999999GD39005+9999999GD49005+9999999GF100995999999999999999999MA1999999100645EQDN01 00000JPWTH 1QNNE11 1 09900E11 1 09900E11 1 09900E11 1 09900G11U1 99999H11 1 00999H11 1 00999H11 1 00999H11 1 00999K11 1 00053L11 1 01500M11 1 29720N11 1 00000Q11 1 10183S11 1 00062V11 1 00099W11 1 88004
0165999999129261950030102005+27700-097267SAO  +000699999V02013559009352200059N012800599+02225+02065101365ADDGF100995999999999999999999MA1999999101255EQDN01 00000JPWTH 1QNNG11U1 99999K11 1 00069L11 1 00800M11 1 29900N11 1 00000Q11 1 10136S11 1 00072V11 1 00099W11 1 44018
0070306730999991950032800004+53733+119783FM-12+061999999V0209991C00001220001CN0500001N9-01891-02001102791ADDAY101999GF100991001001999999001001KA1999N-02501MD1310051+9999MW1021
0088999999230901950123116005+36750-108233SAO  +167599999V02004559006250152449N064000599+00065-00335999999EQDN01 00000JPWTH 1QNNG11 1 00050K11 1 00026L11 1 04000N11 1 00000S11 1 00033W11 1 22012
0165999999148291950020201005+41533-085800SAO  +0252GSH  V02011359003650054949N012800599-00175-00565102545ADDGF108995999999999999999999MA1999999099365EQDN01 00000JPWTH 1QNNG11 1 00018K11 1 00022L11 1 00800M11 1 29340N11 1 00000Q11 1 10254S11 1 00029V11 1 01099W11 1 34007
0171702031266201950082620003+64200-162050SAO  +0005MOS  V02004559005750121949N0096005N1+01005+00785098585ADDGF108995999999999999999999MA1999999098515MW1045EQDN01 08000JPWTH 1QNNG11 1 00040K11 1 00046L11 1 00600M11 1 29090N11 1 08000Q11 1 09858S11 1 00050V11 1 01099W11 1 22011
018299999923181195001182000E+33233-117417SAO  +0008OCN  V02027059003650012249N001600599+01115+01005101835ADDAA101000095GF108995999999999999999999MA1999999101735MW1455EQDN01 07000JPWTH 1QNNG11 1 00004K11 1 00050L11 1 00100M11 1 30040N11 1 07000Q11 1 10183S11 1 00052V11 1 01099W11 1 77007
0165999999241191950072003005+40650-116933SAO  +137699999V02031559007252200059N072000599+02395-00065101225ADDGF100995999999999999999999MA1999999086185EQDN01 00000JPWTH 1QNNG11U1 99999K11 1 00031L11 1 04500M11 1 25450N11 1 00000Q11 1 10122S11 1 00075V11 1 00099W11 1 88014
018272259793985195009180300C+32783-098067SAO  +0286MWL  V02013559001552200059N0400005N1+02175+01945101905ADDAA101000095GF102995999999999999999999MA1999999098445MW1001EQDN01 00000JPWTH 1QNNG11U1 99999K11 1 00067L11 1 02500M11 1 29070N11 1 00000Q11 1 10190S11 1 00071V11 1 00399W11 1 44003
0082042700999991950012817004+61183-045417SAO  +0026BGBW V0209991C000010150019N0160001N1-01421-01701097491ADDGA1021+009009059GA2061+015009039GF108991999999999999999999MA1999999097161MW1851
0171702910264121950032116003+62950-141933SAO  +0524ORT  V02099999000052200059N0640005N1-01725-01945100955ADDGF102995999999999999999999MA1999999094415MW1001EQDN01 00000JPWTH 1QNNG11U1 99999K11 1-00003L11 1 04000M11 1 27880N11 1 00000Q11 1 10095S11 1 00001V11 1 00299W11 1 00000
0165999999231921950060205005+35333-116100SAO  +028299999V02013559005252200059N024000599+03175+01005100145ADDGF103995999999999999999999MA1999999097025EQDN01 00000JPWTH 1QNNG11U1 99999K11 1 00050L11 1 01500M11 1 28650N11 1 00000Q11 1 10014S11 1 00089V11 1 00499W11 1 44010
017699999923043195001150100E+33400-104533SAO  +110299999V02018059004650914449N064000599+01005-01065100985ADDAA101000095GF106995999999999999999999MA1999999088455EQDN01 00000JPWTH 1QNNG11 1 00300K11 1 00013L11 1 04000M11 1 26120N11 1 00000Q11 1 10098S11 1 00050V11 1 00799W11 1 55009
017699999924151195010020600E+42167-112317SAO  +136699999V02036059002152200059N048000599-00225-00445102245ADDAA101000095GF100995999999999999999999MA1999999086565EQDN01 00000JPWTH 1QNNG11U1 99999K11 1 00024L11 1 03000M11 1 25560N11 1 00000Q11 1 10224S11 1 00028V11 1 00099W11 1 11004
0089303720999991950060112004+56917+118367FM-12+070399999V0209991C00001220001CN0500001N9+99999+00171100181ADDAY101999GF104991001001999999001011KA1999M+02891MD1310071+9999MW1021EQDQ01+027713ATOT  
0119106550999991950110406004+49800+009900FM-12+026099999V0203201N00051006901CN0090001N9+00221+00111100341ADDAA199002091AY161061GA1071+006909059GA2071+006909059GF107991071051008001999999IA1089KA1999N+00221MD1210251+9999MW1101
0383747900138491950031108003+33967-080483SAO  +0076SSC  V02099999000052200059N0128005N9+00395+00005102845ADDGA1001+999999999GA2999+999999999GA3999+999999999GA4999+999999999GD19005+9999999GD29005+9999999GD39005+9999999GD49005+9999999GF100995999999999999999999MA1999999101905MW1001EQDN01 00000JPWTH 1QNNE11 1 09900E11 1 09900E11 1 09900E11 1 09900G11U1 99999H11 1 00999H11 1 00999H11 1 00999H11 1 00999K11 1 00032L11 1 00800M11 1 30090N11 1 00000Q11 1 10284S11 1 00039V11 1 00099W11 1 00000
0082108640999991950080519004+48067+011633SAO  +0560EDSN V0202481N003112200019N0160001N1+01461+01301101661ADDGA1021+018009089GA2021+060009029GF102991999999999999999999MA1999999095291MW1001
0165999999240311950110111005+41800-107050SAO  +200099999V02027059005252200059N064000599-00065-00615102105ADDGF102995999999999999999999MA1999999080095EQDN01 00000JPWTH 1QNNG11U1 99999K11 1 00021L11 1 04000M11 1 23650N11 1 00000Q11 1 10210S11 1 00031V11 1 00299W11 1 77010
0050725068999991950081307004+41650-070517SAO  +0043FMH  V0203381N001512200019N0240001N1+01191+00961101731ADDGF100991999999999999999999MA1999999101291MW1001
017699999924225195002222200E+42367-122867SAO  +040599999V02099999000050396249N024000599+01115+00285102105ADDAA101000095GF108995999999999999999999MA1999999097225EQDN01 00000JPWTH 1QNNG11 1 00130K11 1 00037L11 1 01500M11 1 28710N11 1 00000Q11 1 10210S11 1 00052V11 1 01099W11 1 00000
0377999999230121950112711005+39717-104900SAO  +1645LRY  V02018059006252200059N048000599+00675-00505101935ADDGA1999+060964024GA2999+999999999GA3999+999999999GA4999+999999999GD19025+9999999GD29005+9999999GD39005+9999999GD49005+9999999GF102995999999999999999999MA1999999083755EQDN01 00000JPWTH 1QNNE11 1 09902E11 1 09900E11 1 09900E11 1 09900G11U1 99999H11 1 37200H11 1 00999H11 1 00999H11 1 00999K11 1 00023L11 1 03000M11 1 24730N11 1 00000Q11 1 10193S11 1 00044V11 1 00299W11 1 55012
0177999999137461950051417005+35967-077800SAO  +0026RMT  V02018059006750061049N008000599+01675+01505101195ADDGF108995999999999999999999MA1999999100755MW1055MW2615EQDN01 02081JPWTH 1QNNG11 1 00020K11 1 00059L11 1 00500M11 1 29750N11 1 02081Q11 1 10119S11 1 00062V11 1 01099W11 1 55013
0165999999138951950062019005+32300-086400SAO  +006199999V02027059004650365849N024000599+03005+02175101635ADDGF107995999999999999999999MA1999999100915EQDN01 00000JPWTH 1QNNG11 1 00120K11 1 00071L11 1 01500M11 1 29800N11 1 00000Q11 1 10163S11 1 00086V11 1 00999W11 1 77009
017699999993989195011040400E+39933-091200SAO  +023499999V02033859006752200059N019200599+00174-00395102034ADDAA101000095GF102995999999999999999999MA1999999099194EQDN01 00000JPWTH 1QNNG11U1 99999K11 1 00025L11 1 01200M11 1 29290N11 1 00000Q11 1 10203S11 1 00035V11 1 00399W11 1 18013
004594767599999195004150800N-33930+151170AUST +0004YSSY V0200905N000559999999N999999999+01835+99999999999ADDGA1005+999999999GF100995004999999999999999
0165999999038181950120720005+30833-085183SAO  +003899999V02036059005252200059N024000599+00725-00065102035ADDGF100995999999999999999999MA1999999101595EQDN01 00000JPWTH 1QNNG11U1 99999K11 1 00031L11 1 01500M11 1 30000N11 1 00000Q11 1 10203S11 1 00045V11 1 00099W11 1 11010
0377999999164071950062520005+60683-046533SAO  +006299999V02006859006750365849N032000599+01505+00505101325ADDGA1999+036584034GA2999+999999999GA3999+999999999GA4999+999999999GD19075+9999999GD29005+9999999GD39005+9999999GD49005+9999999GF107995999999999999999999MA1999999100585EQDN01 00000JPWTH 1QNNE11 1 09909E11 1 09900E11 1 09900E11 1 09900G11 1 00120H11 1 23120H11 1 00999H11 1 00999H11 1 00999K11 1 00041L11 1 02000M11 1 29700N11 1 00000Q11 1 10132S11 1 00059V11 1 00999W11 1 32013
017699999924015195003241000E+40117-103167SAO  +139999999V02015859002150457249N024000599-00115-01005101295ADDAA101000095GF108995999999999999999999MA1999999085475EQDN01 00000JPWTH 1QNNG11 1 00150K11 1 00014L11 1 01500M11 1 25240N11 1 00000Q11 1 10129S11 1 00030V11 1 01099W11 1 54004
017699999924232195008040700E+44917-123000SAO  +006499999V02036059002652200059N024000599+01175+00725102005ADDAA101000095GF100995999999999999999999MA1999999101255EQDN01 00000JPWTH 1QNNG11U1 99999K11 1 00045L11 1 01500M11 1 29900N11 1 00000Q11 1 10200S11 1 00053V11 1 00099W11 1 11005
0076332130999991950121400004+51317+028783FM-12+017199999V0209991C00001220001CN0010001N9+00221+00221101791ADDAY111999GF102991999001999999041001MD1310231+9999MW1101EQDQ01+000002SCOTLC
0050747910137171950120102004+33683-078933SAO  +0008MYR  V0209991C000012200019N0112001N9+00301-00041101761ADDGF100991999999999999999999MA1999999101661MW1001
039499999913733195010070600E+37333-079200SAO  +029199999V02036059004152200059N009600599+00895+00725102405ADDAA101000095GA1999+999999999GA2999+999999999GA3999+999999999GA4999+999999999GD19005+9999999GD29005+9999999GD39005+9999999GD49005+9999999GF100995999999999999999999MA1999999098985MW1445EQDN01 07200JPWTH 1QNNE11 1 09900E11 1 09900E11 1 09900E11 1 09900G11U1 99999H11 1 00999H11 1 00999H11 1 00999H11 1 00999K11 1 00045L11 1 00600M11 1 29230N11 1 07200Q11 1 10240S11 1 00048V11 1 00099W11 1 11008
0171999999253291950042410005+56817-132950SAO  +003499999V02011359005250076249N009600599+00335+00065101635ADDGF108995999999999999999999MA1999999101195MW1615EQDN01 02000JPWTH 1QNNG11 1 00025K11 1 00033L11 1 00600M11 1 29880N11 1 02000Q11 1 10163S11 1 00038V11 1 01099W11 1 34010
0165999999231621950081419005+39383-112517SAO  +1452UZY  V02029359005252200059N080000599+02895+00225101695ADDGF101995999999999999999999MA1999999085885EQDN01 00000JPWTH 1QNNG11U1 99999K11 1 00036L11 1 05000M11 1 25360N11 1 00000Q11 1 10169S11 1 00084V11 1 00199W11 1 78010
0029852450999991950111118004-17783-063167FM-12+043799999V02099999999999999999N9999999N9+99999+99999999999ADDKA1999M+03441KA2999N+02221
0165999999232441950100908005+37417-122050SAO  +000899999V02018059001052200059N016000599+01445+01175101335ADDGF100995999999999999999999MA1999999101255EQDN01 00000JPWTH 1QNNG11U1 99999K11 1 00053L11 1 01000M11 1 29900N11 1 00000Q11 1 10133S11 1 00058V11 1 00099W11 1 55002
018272617014742195002221000C+44467-073150SAO  +0106BTV  V02006859002150030549N0016005N9-01675-02005101735ADDAA101000395GF108995999999999999999999MA1999999100375MW1715EQDN01 04000JPWTH 1QNNG11 1 00010K11 1-00004L11 1 00100M11 1 29640N11 1 04000Q11 1 10173S11 1 00002V11 1 01099W11 1 32004
0078293630999991950101512004+57633+092267FM-12+018499999V0202901N00621007801CN9999999N9-00111-00501102111ADDAY121999GF108991081051008001999999MW1021EQDQ01+000032APCTENQ02+000002APC3  
0098035833999991950060915004+52333+000550SAO  +0015EGUL V0200501N002610075019N0240001N9+01801+00961101881ADDGA1051+007509089GA2061+033009039GA3071+060009009GF107991999999999999999999MA1999999101761MW1001
0078722270138641950051922004+33917-084517SAO  +0317MGE  V0203201N002110060019N0096001N9+01801+01801101251ADDGA1081+006009099GF108991999999999999999999MA1999999097661MW1171MW2801MW3951
0057784570999991950111521004+19783-070667FM-12+001699999V0200901N003119999999N0200001N9+02561+02221101461ADDAY151999GF106991061051008001001001MD1610101+9999MW1031
018270398025308195005201400C+55033-131567SAO  +0034ANN  V02013559001550048849N0112005N1+00565+00505101425ADDAA101000095GF108995999999999999999999MA1999999101055MW1615EQDN01 02000JPWTH 1QNNG11 1 00016K11 1 00041L11 1 00700M11 1 29840N11 1 02000Q11 1 10142S11 1 00042V11 1 01099W11 1 44003
0057357960999991950011600004+46900+075000FM-12+042399999V0200401N00101001501CN0040001N9-01391-01611101761ADDAY171999GF108991081021001501999999MD1710021+9999MW1711
0165999999416061950071306005+19283+166650SAO  +0004PWAK V02011359006250061049N024000599+02615+02225101495ADDGF108995999999999999999999MA1999999101465EQDN01 00000JPWTH 1QNNG11 1 00020K11 1 00072L11 1 01500M11 1 29960N11 1 00000Q11 1 10149S11 1 00079V11 1 01099W11 1 34012
0057230740999991950041600004+69400+086167FM-12+002899999V0209991C00001220001CN0500001N9-03001-03281102521ADDAY101999GF100991001001999999001001MD1210031+9999MW1001
0082912180999991950022313004+13567+144917SAO  +0159PGUA V02099999999990054019N0240001N9+02391+02001101291ADDGA1051+005409089GA2061+075009029GF107991999999999999999999MA1999999099461MW1001
017699999914736195005271800E+40300-078317SAO  +044899999V02020359002652200059N011200599+02505+01505101695ADDAA101000095GF104995999999999999999999MA1999999096485EQDN01 00000JPWTH 1QNNG11U1 99999K11 1 00059L11 1 00700M11 1 28490N11 1 00000Q11 1 10169S11 1 00077V11 1 00599W11 1 56005
0043371450999991950032400004+43733+044667FM-12+013299999V0200901N00101007801CN9999999N9+00501+00391102231ADDAY121061GF108991081051008001999999MW1021
0057618320999991950101312004+09567-013617FM-12+002699999V0203601N00311045001CN0200001N9+02721+02111101341ADDAY161999GF107991011011008001041061MD1710031+9999MW1021
0072042700999991950121519004+61183-045417SAO  +0026BGBW V0209991C000010015019N0048001N1+00131+00081101321ADDGA1081+001509079GF108991999999999999999999MA1999999100981MW1451MW2611
0066467510999991950091203004+24183+120650SAO  +0111RCLG V0200451N001512200019N0144001N1+03071+02351100851ADDGA1021+006009089GF102991999999999999999999MA1999999099591MW1001
0165999999240251950091706005+44383-100283SAO  +052599999V02004559001050213449N032000599+01175+01065102075ADDGF106995999999999999999999MA1999999095875EQDN01 00000JPWTH 1QNNG11 1 00070K11 1 00051L11 1 02000M11 1 28310N11 1 00000Q11 1 10207S11 1 00053V11 1 00899W11 1 22002
018272255512935195012020300C+28717-096250SAO  +0005PSX  V02018059004652200059N0160005N1+02005+01945100985ADDAA101000095GF100995999999999999999999MA1999999100915MW1001EQDN01 00000JPWTH 1QNNG11U1 99999K11 1 00067L11 1 01000M11 1 29800N11 1 00000Q11 1 10098S11 1 00068V11 1 00099W11 1 55009
038899999923185195006210000E+39500-119783SAO  +134099999V02027059008252200059N056000599+03175+00505100515ADDAA101000095GA1999+024384094GA2999+999999999GA3999+999999999GA4999+999999999GD19015+9999999GD29005+9999999GD39005+9999999GD49005+9999999GF101995999999999999999999MA1999999085985EQDN01 00000JPWTH 1QNNE11 1 09901E11 1 09900E11 1 09900E11 1 09900G11U1 99999H11 1 18080H11 1 00999H11 1 00999H11 1 00999K11 1 00041L11 1 03500M11 1 25390N11 1 00000Q11 1 10051S11 1 00089V11 1 00199W11 1 77016
0057085380999991950022712004+36983-008950FM-12+004899999V0203201N009319999999N0200001N9+01501+99999102301ADDAY101999GF106991999999999999999999MD1310051+9999MW1021
0165999999138671950040920005+39267-081567SAO  +018899999V02004559002650106749N024000599+00565-00565102885ADDGF108995999999999999999999MA1999999099635EQDN01 00000JPWTH 1QNNG11 1 00035K11 1 00022L11 1 01500M11 1 29420N11 1 00000Q11 1 10288S11 1 00042V11 1 01099W11 1 22005
0124984390999991950022209004+14117+122950FM-12+001199999V0200401N00151013501CN0400001N9+02721+02281101091ADDAY111999GA1011+007509089GA2061+013509059GF106991061081012501001001MD1210011+9999MW1031EQDQ01+000042APCTENQ02+000022APC3  
0082106330999991950030919004+50050+008333SAO  +0145EDOU V0200901N001510120019N0048001N9+00851+00521101631ADDGA1061+012009089GA2081+060009029GF108991999999999999999999MA1999999099861MW1051
0383724361138031950021106003+39250-085900SAO  +0199BAK  V02022559004652200059N0160005N1+00175-00175102005ADDGA1999+999999999GA2999+999999999GA3999+999999999GA4999+999999999GD19005+9999999GD29005+9999999GD39005+9999999GD49005+9999999GF100995999999999999999999MA1999999099595MW1001EQDN01 00000JPWTH 1QNNE11 1 09900E11 1 09900E11 1 09900E11 1 09900G11U1 99999H11 1 00999H11 1 00999H11 1 00999H11 1 00999K11 1 00029L11 1 01000M11 1 29410N11 1 00000Q11 1 10200S11 1 00035V11 1 00099W11 1 66009
0066723865231121950101303004+36250-115033SAO  +0569LSV  V0209991C000012200019N0560001N9+02411+00191101121ADDGA1001+999999999GF100991999999999999999999MA1999999094681MW1001
0165999999230591950041005005+31750-105083SAO  +113399999V02027059006752200059N024000599+02005+00175100515ADDGF100995999999999999999999MA1999999088285EQDN01 00000JPWTH 1QNNG11U1 99999K11 1 00035L11 1 01500M11 1 26070N11 1 00000Q11 1 10051S11 1 00068V11 1 00099W11 1 77013
0070340470999991950100706004+51833+041317FM-12+011899999V0200401N00411004501CN0200001N9+00891+00721102171ADDAY121999GF108991081071004501999999KA1999N+00781MD1310071+9999MW1021
0165999999265141950052223005+61967-151200SAO  +004799999V02015859001550167649N024000599+01445+00445101565ADDGF108995999999999999999999MA1999999100955EQDN01 00000JPWTH 1QNNG11 1 00055K11 1 00040L11 1 01500M11 1 29810N11 1 00000Q11 1 10156S11 1 00058V11 1 01099W11 1 54003
017699999924225195010011900E+42367-122867SAO  +040599999V02036059003152200059N040000599+01225+00005101395ADDAA101000095GF100995999999999999999999MA1999999096585EQDN01 00000JPWTH 1QNNG11U1 99999K11 1 00032L11 1 02500M11 1 28520N11 1 00000Q11 1 10139S11 1 00054V11 1 00099W11 1 11006
0057281310999991950080512004+59033+057567FM-12+034699999V0203401N00511012301CN0100001N9+01891+01391100351ADDAY121999GF107991061031012501031001MD1310051+9999MW1021
017699999993123195011110200E+39417-118717SAO  +120099999V02004559003152200059N024000599+00064-01335102744ADDAA101000095GF101995999999999999999999MA1999999088694EQDN01 00000JPWTH 1QNNG11U1 99999K11 1 00008L11 1 01500M11 1 26190N11 1 00000Q11 1 10274S11 1 00033V11 1 00199W11 1 22006
0165999999149281950071307005+45117-095083SAO  +034899999V02027059003652200059N024000599+00835+00785101965ADDGF100995999999999999999999MA1999999097875EQDN01 00000JPWTH 1QNNG11U1 99999K11 1 00046L11 1 01500M11 1 28900N11 1 00000Q11 1 10196S11 1 00047V11 1 00099W11 1 77007
0066745700138401950030518004+39833-084050SAO  +0254FFO  V0202701N008712200019N0096001N9+01331+00221101691ADDGA1021+075009009GF102991999999999999999999MA1999999098751MW1041
0050723625930571950103115004+35167-107900SAO  +0087GNT  V0202701N001510600019N0960001N1+00801-00591101491ADDGF107991999999999999999999MA1999999080161MW1001
0057315110999991950041215004+50783+127300FM-12+014899999V0202201N00311220001CN9999999N9+00891+99999099831ADDAY141999GF108991001001999999011999MD1310071+9999MW1051
0377999999137491950061809005+39433-077450SAO  +010199999V02031559002152200059N022400599+00895+00565101835ADDGA1999+027434044GA2999+999999999GA3999+999999999GA4999+999999999GD19015+9999999GD29005+9999999GD39005+9999999GD49005+9999999GF101995999999999999999999MA1999999100645EQDN01 00000JPWTH 1QNNE11 1 09901E11 1 09900E11 1 09900E11 1 09900G11U1 99999H11 1 21090H11 1 00999H11 1 00999H11 1 00999K11 1 00042L11 1 01400M11 1 29720N11 1 00000Q11 1 10183S11 1 00048V11 1 00199W11 1 88004
017699999914748195006022300E+42167-076900SAO  +029099999V02018059004650243849N024000599+02285+00835101665ADDAA101000095GF107995999999999999999999MA1999999098215EQDN01 00000JPWTH 1QNNG11 1 00080K11 1 00047L11 1 01500M11 1 29000N11 1 00000Q11 1 10166S11 1 00073V11 1 00999W11 1 55009
017699999913748195006161800E+34233-077950SAO  +001499999V02011359003152200059N012800599+02895+02285101595ADDAA101000095GF103995999999999999999999MA1999999101465EQDN01 00000JPWTH 1QNNG11U1 99999K11 1 00073L11 1 00800M11 1 29960N11 1 00000Q11 1 10159S11 1 00084V11 1 00499W11 1 34006
017699999912834195010121400E+29183-081050SAO  +001099999V02029359002152200059N024000599+02395+01835101495ADDAA101000095GF102995999999999999999999MA1999999101355EQDN01 00000JPWTH 1QNNG11U1 99999K11 1 00065L11 1 01500M11 1 29930N11 1 00000Q11 1 10149S11 1 00075V11 1 00299W11 1 78004
017699999913956195003161100E+32333-090217SAO  +010299999V02027059006250030549N016000599+01225+01065101195ADDAA101000095GF108995999999999999999999MA1999999100005EQDN01 00000JPWTH 1QNNG11 1 00010K11 1 00051L11 1 01000M11 1 29530N11 1 00000Q11 1 10119S11 1 00054V11 1 01099W11 1 77012
0165999999149471950122816005+44883-093217SAO  +0255MSP  V02018059004650198149N024000599-00675-01115100785ADDGF106995999999999999999999MA1999999097565EQDN01 00000JPWTH 1QNNG11 1 00065K11 1 00012L11 1 01500M11 1 28810N11 1 00000Q11 1 10078S11 1 00020V11 1 00899W11 1 55009
0050722525129201950062707004+27600-099517SAO  +0161LOI  V0201581N006212200019N0240001N1+02801+02021101521ADDGF100991999999999999999999MA1999999099761MW1001
017699999924149195008292200E+46383-117017SAO  +043399999V02027059005752200059N048000599+03335+00615100985ADDAA101000095GF100995999999999999999999MA1999999095975EQDN01 00000JPWTH 1QNNG11U1 99999K11 1 00043L11 1 03000M11 1 28340N11 1 00000Q11 1 10098S11 1 00092V11 1 00099W11 1 77011
017699999914765195005102200E+41733-071433SAO  +002099999V02020359004150243849N012800599+01505+01225101125ADDAA101000095GF108995999999999999999999MA1999999100885EQDN01 00000JPWTH 1QNNG11 1 00080K11 1 00054L11 1 00800M11 1 29790N11 1 00000Q11 1 10112S11 1 00059V11 1 01099W11 1 56008
0171999999139861950041008005+38067-097867SAO  +046499999V02020359012452200059N008000599+02065+01285099705ADDGF102995999999999999999999MA1999999094485MW1075EQDN01 07300JPWTH 1QNNG11U1 99999K11 1 00055L11 1 00500M11 1 27900N11 1 07300Q11 1 09970S11 1 00069V11 1 00399W11 1 56024
0066725068999991950070611004+41650-070517SAO  +0043FMH  V0202481N005710015019N0016001N1+02071+02071101021ADDGA1081+001509079GF108991999999999999999999MA1999999100581MW1451
0165999999148301950081720005+42900-085667SAO  +021399999V02024859004650762049N019200599+02835+01945101595ADDGF108995999999999999999999MA1999999099155EQDN01 00000JPWTH 1QNNG11 1 00250K11 1 00067L11 1 01200M11 1 29280N11 1 00000Q11 1 10159S11 1 00083V11 1 01099W11 1 76009
0050722487139351950032413004+31400-092300SAO  +0034ESF  V0201131N002610060019N0192001N1+01631+01571101561ADDGF108991999999999999999999MA1999999101251MW1001
038899999912839195002271800E+25817-080283SAO  +000799999V02036059005252200059N011200599+02565+00675102005ADDAA101000095GA1999+999999999GA2999+999999999GA3999+999999999GA4999+999999999GD19005+9999999GD29005+9999999GD39005+9999999GD49005+9999999GF100995999999999999999999MA1999999101965EQDN01 00000JPWTH 1QNNE11 1 09900E11 1 09900E11 1 09900E11 1 09900G11U1 99999H11 1 00999H11 1 00999H11 1 00999H11 1 00999K11 1 00044L11 1 00700M11 1 30110N11 1 00000Q11 1 10200S11 1 00078V11 1 00099W11 1 11010
018272518014735195012281700C+42750-073800SAO  +0089ALB  V02018059005252200059N0160005N1-00785-01675102515ADDAA101000095GF101995999999999999999999MA1999999101355MW1001EQDN01 00000JPWTH 1QNNG11U1 99999K11 1 00002L11 1 01000M11 1 29930N11 1 00000Q11 1 10251S11 1 00018V11 1 00199W11 1 55010
0066745940137051950012305004+38817-076883SAO  +0085ADW  V0209991C000010135019N0080001N9+00741+00241101591ADDGA1081+013509059GF108991999999999999999999MA1999999100541MW1051
013999999924139195004091800E+46617-113200SAO  +129399999V02031559006250167649N048000599+00675-00445999999ADDAA101000095GF107995999999999999999999EQDN01 00000JPWTH 1QNNG11 1 00055K11 1 00024L11 1 03000N11 1 00000S11 1 00044V11 1 00999W11 1 88012
0071062300999991950050618004+52467+004750FM-12+000699999V0209991C00001220001CN0100001N9+01221+00891999999ADDAY121999GF101991011051008001001001KA1999M+01221MA1999999102061MW1011
018272365623049195003051200C+35617-106083SAO  +1926SAF  V02002359007752200059N0640005N1+00005-00615102005ADDAA101000095GF100995999999999999999999MA1999999081075MW1001EQDN01 00000JPWTH 1QNNG11U1 99999K11 1 00021L11 1 04000M11 1 23940N11 1 00000Q11 1 10200S11 1 00032V11 1 00099W11 1 12015
0043915680999991950101212004-20200+169783FM-12+000899999V0200901N002619999999N0110001N9+02331+01941999999ADDAY101999GF108991081999012501999999MW1001
0165999999231701950080223005+38417-110700SAO  +136099999V02033859005250243849N080000599+03225+00615101355ADDGF106995999999999999999999MA1999999086565EQDN01 00000JPWTH 1QNNG11 1 00080K11 1 00043L11 1 05000M11 1 25560N11 1 00000Q11 1 10135S11 1 00090V11 1 00899W11 1 18010
0171727976242171950010918003+48800-122533SAO  +0047BLI  V02033859004650304849N0192005N1+00065-00225100375ADDGF108995999999999999999999MA1999999099765MW1001EQDN01 00000JPWTH 1QNNG11 1 00100K11 1 00028L11 1 01200M11 1 29460N11 1 00000Q11 1 10037S11 1 00033V11 1 01099W11 1 18009
0383747900138491950010806003+33967-080483SAO  +0076SSC  V02031559001552200059N0192005N9+00335-00225103225ADDGA1001+999999999GA2999+999999999GA3999+999999999GA4999+999999999GD19005+9999999GD29005+9999999GD39005+9999999GD49005+9999999GF100995999999999999999999MA1999999102275MW1001EQDN01 00000JPWTH 1QNNE11 1 09900E11 1 09900E11 1 09900E11 1 09900G11U1 99999H11 1 00999H11 1 00999H11 1 00999H11 1 00999K11 1 00028L11 1 01200M11 1 30200N11 1 00000Q11 1 10322S11 1 00038V11 1 00099W11 1 88003
039472251012924195010301200C+27767-097450SAO  +0014CRP  V02015859002152200059N0192005N1+02175+02065101925ADDAA101000095GA1999+007624084GA2041+076204004GA3999+999999999GA4999+999999999GD19005+9999999GD29045+9999999GD39005+9999999GD49005+9999999GF104995999999999999999999MA1999999101765MW1001EQDN01 00000JPWTH 1QNNE11 1 09900E11 1 09905E11 1 09900E11 1 09900G11U1 99999H11 1 11025H11 1 32250H11 1 00999H11 1 00999K11 1 00069L11 1 01200M11 1 30050N11 1 00000Q11 1 10192S11 1 00071V11 1 00599W11 1 54004
017699999924130195010061000E+44833-117817SAO  +1028BKE  V02013559001550167649N064000599+00395+00225101255ADDAA101000095GF106995999999999999999999MA1999999089475EQDN01 00000JPWTH 1QNNG11 1 00055K11 1 00036L11 1 04000M11 1 26420N11 1 00000Q11 1 10125S11 1 00039V11 1 00899W11 1 44003
0165999999265191950071209005+62533-153900SAO  +045899999V02015859003150304849N032000599+00835+00615101595ADDGF108995999999999999999999MA1999999096075EQDN01 00000JPWTH 1QNNG11 1 00100K11 1 00043L11 1 02000M11 1 28370N11 1 00000Q11 1 10159S11 1 00047V11 1 01099W11 1 54006
0057361520999991950041600004+50867+078350FM-12+014899999V0202501N00311012301CN0200001N9+00221-00111102391ADDAY121999GF108991081051012501999999MD1810131+9999MW1021
0066716280999991950101802004+45317-075667SAO  +0126CYOW V0209991C000012200019N0002001N1+00911+00851102731ADDGA1011+999999039GF102991999999999999999999MA1999999101461MW1451
0302999999350461950122118005+52367+000483SAO  +0010EGUN V02015859006250030549N001300599+00175+00115101005ADDGA1999+003054074GD19085+9999999GD29999+9999999GD39999+9999999GD49999+9999999GF108995999999999999999999MA1999999100915MW1455EQDN01 07000JPWTH 1QNNE11 1 09910E11 1 09999E11 1 09999E11 1 09999G11 1 00010H11 1 16010K11 1 00034L11 1 00081M11 1 29800N11 1 07000Q11 1 10100S11 1 00035V11 1 01099W11 1 54012
0165999999938161950060214005+39150-088550SAO  +0185EFF  V02020359008852200059N024000599+02394+01505101524ADDGF103995999999999999999999MA1999999099324EQDN01 00000JPWTH 1QNNG11U1 99999K11 1 00059L11 1 01500M11 1 29330N11 1 00000Q11 1 10152S11 1 00075V11 1 00499W11 1 56017
0302722970231291950012111003+33817-118150SAO  +0013LGB  V02099999000050000049N0000005N1+00785+00785102245ADDGA1091+000004104GD19085+9999999GD29999+9999999GD39999+9999999GD49999+9999999GF108995999999999999999999MA1999999102105MW1455EQDN01 07000JPWTH 1QNNE11 1 09910E11 1 09999E11 1 09999E11 1 09999G11 1 00000H11 1 45000K11 1 00046L11 1 00000M11 1 30150N11 1 07000Q11 1 10224S11 1 00046V11 1 01099W11 1 00000
014599999924139195002240900E+46617-113200SAO  +129399999V02036059002650106749N012800599+00115+00005999999ADDAA101000095GF108995999999999999999999MW1615EQDN01 02000JPWTH 1QNNG11 1 00035K11 1 00032L11 1 00800N11 1 02000S11 1 00034V11 1 01099W11 1 11005
0165999999137461950072300005+35967-077800SAO  +0026RMT  V02004559001550152449N016000599+02285+02065101965ADDGF105995999999999999999999MA1999999101525EQDN01 00000JPWTH 1QNNG11 1 00050K11 1 00069L11 1 01000M11 1 29980N11 1 00000Q11 1 10196S11 1 00073V11 1 00699W11 1 22003
0219999999947921950060801005+45467-073750SAO  +0030CYUL V02024859008252200059N016000599+02334+01335101764ADDGA1999+999999004GD19015+9999999GF101995999999999999999999EQDN01 01390FPRES 5N02 00000JPWTH 1QNNE11 1 09901G11U1 99999H11 1 32999K11 1 00056L11 1 01000M11 5 01390N11 1 00000Q11 1 10176S11 1 00074V11 1 00199W11 1 76016
0066724550139471950012717004+39050-096767SAO  +0324FRI  V0202001N004612200019N0160001N9-00441-01051103491ADDGA1011+066009029GF102991999999999999999999MA1999999099291MW1001
0076782240999991950081212004+22983-082400FM-12+007599999V0200401N00311220001CN0160001N9+02501+02221101661ADDAY111999GF100991001001999999001001MD1310171+9999MW1051EQDQ01+000002APC3  
0323999999350341950112901005+52400+000567SAO  +0010EGUL V02020359008250061049N011200599+01005+00895099155ADDGA1999+006104064GA2999+007624064GD19065+9999999GD29085+9999999GD39999+9999999GD49999+9999999GF108995999999999999999999MA1999999099055EQDN01 00000JPWTH 1QNNE11 1 09908E11 1 09910E11 1 09999E11 1 09999G11 1 00020H11 1 15020H11 1 15025K11 1 00048L11 1 00700M11 1 29250N11 1 00000Q11 1 09915S11 1 00050V11 1 01099W11 1 56016
0050171905999991950112123004+38733+030600SAO  +1010LTAH V0209991C000012200019N0320001N1-00151-00701102881ADDGF100991999999999999999999MA1999999090591MW1001
