0281999999939891951112515005+39933-091200SAO  +023499999V02013559007750018349N003200599-00064-00115101634ADDGD14995+9999999GD20995+9999999GD30995+9999999GD40995+9999999GF108085999999999999999999MA1999999098754MW1455MW2565EQDN01 03670JPWTH 1QNNE11 1 00699E11 1 00099E11 1 00099E11 1 00099G11 1 00006K11 1 00030L11 1 00200M11 1 29160N11 1 03670Q11 1 10163S11 1 00031V11 1 01010W11 1 44015
0383725755241011951011509003+41117-111967SAO  +1459HIF  V02018059005252200059N0240005N9+00285+00005102515ADDGA1031+024384044GA2999+999999999GA3999+999999999GA4999+999999999GD19035+9999999GD29005+9999999GD39005+9999999GD49005+9999999GF103995999999999999999999MA1999999085985MW1001EQDN01 00000JPWTH 1QNNE11 1 09904E11 1 09900E11 1 09900E11 1 09900G11U1 99999H11 1 21080H11 1 00999H11 1 00999H11 1 00999K11 1 00032L11 1 01500M11 1 25390N11 1 00000Q11 1 10251S11 1 00037V11 1 00499W11 1 55010
0377999999137501951080618005+36933-076283SAO  +000699999V02018059005250426749N019200599+02615+01615102085ADDGA1999+012194084GA2999+042674034GA3999+076204024GA4999+999999999GD13005+9999999GD24055+9999999GD30035+9999999GD40005+9999999GF108085999999999999999999MA1999999102005EQDN01 00000JPWTH 1QNNE11 1 00400E11 1 00606E11 1 00004E11 1 00000G11 1 00140H11 1 11040H11 1 23140H11 1 37250H11 1 00999K11 1 00061L11 1 01200M11 1 30120N11 1 00000Q11 1 10208S11 1 00079V11 1 01010W11 1 55010
031999999913740195106080500E+37500-077333SAO  +005599999V02015859001550167649N008000599+01835+01835101635ADDAA101000095GA1999+016764064GD19085+9999999GD29999+9999999GD39999+9999999GD49999+9999999GF108085999999999999999999MA1999999101055MW1445MW2805EQDN01 02372JPWTH 1QNNE11 1 09910E11 1 09999E11 1 09999E11 1 09999G11 1 00055H11 1 15055K11 1 00065L11 1 00500M11 1 29840N11 1 02372Q11 1 10163S11 1 00065V11 1 01010W11 1 54003
0082717270999991951101711004+48333-071000SAO  +0163CYBG V0201351N003610270019N0160001N1+00631+00631102631ADDGA1051+027009039GA2021+066009009GF107991999999999999999999MA1999999100611MW1001
0066172000999991951022712004+38433+038083SAO  +0849LTAT V0202251N002112200019N0320001N1+01301-00591090961ADDGA1031+039009049GF102991999999999999999999MA1999999091091MW1001
0057353940999991951070612004+49800+073133FM-12+055599999V0202001N00311007801CN0200001N9+02391+01611100741ADDAY191999GF108991081031008001999999MD1510031+9999MW1021
0043949680999991951061820004-41550+147217FM-12+017499999V0201601N004119999999N0400001N9+00391+00171999999ADDAY101999GF107991071999012501999999MW1001
0291744865147191951053003003+40833-072633SAO  +0018FOK  V02004559002650030549N0128005N1+01285+99999100885ADDGA1081+003054064GD19085+9999999GD29999+9999999GD39999+9999999GD49999+9999999GF108995999999999999999999MA1999999100685MW1805EQDN01 02300JPWTH 1QNNE11 1 09910E11 1 09999E11 1 09999E11 1 09999G11 1 00010H11 1 15010L11 1 00800M11 1 29730N11 1 02300Q11 1 10088S11 1 00055V11 1 01099W11 1 22005
0076297420999991951020100004+54667+066183FM-12+027699999V0201801N00511220001CN0005001N9-02391-02501103291ADDAY101999GF101991999001999999011001MD1310031+9999MW1021EQDQ01+000002SCOTLC
0177999999138671951011212005+39267-081567SAO  +018899999V02022559002152200059N002000599-00725-00895102745ADDGF103995999999999999999999MA1999999099465MW1045MW2445EQDN01 07280JPWTH 1QNNG11U1 99999K11 1 00016L11 1 00125M11 1 29370N11 1 07280Q11 1 10274S11 1 00019V11 1 00499W11 1 66004
0165999999939861951050108005+35000-099050SAO  +0474HBR  V02015859001550213449N032000599+01174+01005100314ADDGF106995999999999999999999MA1999999094854EQDN01 00000JPWTH 1QNNG11 1 00070K11 1 00050L11 1 02000M11 1 28010N11 1 00000Q11 1 10031S11 1 00053V11 1 00799W11 1 54003
0308999999147891951110715005+42267-071033SAO  +000599999V02011359007750012249N003200599+01115+01115101715ADDGA1999+001224074GD14085+9999999GD20995+9999999GD30995+9999999GD40995+9999999GF108085999999999999999999MA1999999101665MW1455MW2615EQDN01 02070JPWTH 1QNNE11 1 00610E11 1 00099E11 1 00099E11 1 00099G11 1 00004H11 1 16004K11 1 00052L11 1 00200M11 1 30020N11 1 02070Q11 1 10171S11 1 00052V11 1 01010W11 1 34015
038899999923232195111142100E+38517-121500SAO  +000799999V02013559003150762049N032000599+01945+01285101635ADDAA101000095GA1999+007624064GA2999+076204024GA3999+999999999GA4999+999999999GD12035+9999999GD24055+9999999GD30005+9999999GD40005+9999999GF108065999999999999999999MA1999999101525EQDN01 00000JPWTH 1QNNE11 1 00204E11 1 00606E11 1 00000E11 1 00000G11 1 00250H11 1 15025H11 1 37250H11 1 00999H11 1 00999K11 1 00055L11 1 02000M11 1 29980N11 1 00000Q11 1 10163S11 1 00067V11 1 01008W11 1 44006
0066042700999991951122118004+61183-045417SAO  +0026BGBW V0202701N006710075019N0320001N1-01091-02481099661ADDGA1061+007509059GF107991999999999999999999MA1999999099121MW1001
028099999913978195111082000E+33500-090200SAO  +003999999V02099999000052200059N024000599+01065-00225102575ADDAA101000095GD10995+9999999GD20995+9999999GD30995+9999999GD40995+9999999GF100005999999999999999999MA1999999102075EQDN01 00000JPWTH 1QNNE11 1 00099E11 1 00099E11 1 00099E11 1 00099G11U1 99999K11 1 00028L11 1 01500M11 1 30140N11 1 00000Q11 1 10257S11 1 00051V11 1 00000W11 1 00000
0057324080999991951060608004+56217+162467FM-12+000699999V0201801N00211220001CN0200001N9+00611+00391101511ADDAY101999GF101991011051012501001001MD1210061+9999MW1021
0165999999231591951041623005+37700-112150SAO  +231499999V02002359005250518249N040000599+01115-00395101465ADDGF108995999999999999999999MA1999999076775EQDN01 00000JPWTH 1QNNG11 1 00170K11 1 00025L11 1 02500M11 1 22670N11 1 00000Q11 1 10146S11 1 00052V11 1 01099W11 1 12010
0101727855241141951032320004+47617-117650SAO  +0741SKA  V0201801N004610210019N0480001N9+00441-00171102711ADDGA1999+012009999GA2081+021009049GF108991999999999999999999MA1999999093801MW1001EQDQ01    003SCCGA1
0050749020999991951011310004+45583-070867SAO  +0415CYXG V0209991C000012200019N0160001N1-00981-01031102591ADDGF100991999999999999999999MA1999999097361MW1001
0165999999242201951022105005+47033-120517SAO  +0527ELN  V02099999000050259149N048000599-00175-00335101665ADDGF106995999999999999999999MA1999999095265EQDN01 00000JPWTH 1QNNG11 1 00085K11 1 00026L11 1 03000M11 1 28130N11 1 00000Q11 1 10166S11 1 00029V11 1 00899W11 1 00000
0076854680999991951052023004-27150-109417FM-12+002099999V0202701N00101007801CN0040001N9+02111+02001101811ADDAY111999GF108991061061008001021001IA1009KA1999M+02111MD1110041+9999MW1031
0302722785231111951051314003+33550-112367SAO  +0333LUF  V02024859002650609649N0400005N9+01835+00445100715ADDGA1081+060964034GD19085+9999999GD29999+9999999GD39999+9999999GD49999+9999999GF108995999999999999999999MA1999999096855MW1001EQDN01 00000JPWTH 1QNNE11 1 09910E11 1 09999E11 1 09999E11 1 09999G11 1 00200H11 1 23200K11 1 00040L11 1 02500M11 1 28600N11 1 00000Q11 1 10071S11 1 00065V11 1 01099W11 1 76005
0269999999147401951122806005+41933-072683SAO  +005399999V02027059001552200059N024000599-01505-01675102985ADDGD10995+9999999GD20995+9999999GD30995+9999999GD40995+9999999GF100005999999999999999999MA1999999102275EQDN01 00000JPWTH 1QNNE11 1 00099E11 1 00099E11 1 00099E11 1 00099G11U1 99999K11 1 00002L11 1 01500M11 1 30200N11 1 00000Q11 1 10298S11 1 00005V11 1 00000W11 1 77003
0067035881999991951071714004+52317+000917SAO  +006099999V0202701N002610600019N0160001N1+02521+01461999999ADDGA1011+009009089GA2071+060009009GF107991999999999999999999MW1001
033499999914941195104262100E+41983-097433SAO  +0471OFK  V02015859011350670649N016000599+01335+00725101905ADDAA101000095GA1999+007624084GA2999+067064024GD19005+9999999GD29085+9999999GD39999+9999999GD49999+9999999GF108995999999999999999999MA1999999096285EQDN01 00000JPWTH 1QNNE11 1 09900E11 1 09910E11 1 09999E11 1 09999G11 1 00220H11 1 11025H11 1 37220K11 1 00045L11 1 01000M11 1 28430N11 1 00000Q11 1 10190S11 1 00056V11 1 01099W11 1 54022
028099999923238195110220900E+39100-122150SAO  +003999999V02006859002152200059N048000599+00945+00115101695ADDAA101000095GD10995+9999999GD20995+9999999GD30995+9999999GD40995+9999999GF100005999999999999999999MA1999999101225EQDN01 00000JPWTH 1QNNE11 1 00099E11 1 00099E11 1 00099E11 1 00099G11U1 99999K11 1 00034L11 1 03000M11 1 29890N11 1 00000Q11 1 10169S11 1 00049V11 1 00000W11 1 32004
0323999999147081951112600005+40733-073600SAO  +003099999V02009059005250670649N024000599+00175-00445102815ADDGA1999+015244064GA2999+067064024GD12015+9999999GD24085+9999999GD30995+9999999GD40995+9999999GF108085999999999999999999MA1999999102445EQDN01 00000JPWTH 1QNNE11 1 00201E11 1 00610E11 1 00099E11 1 00099G11 1 00220H11 1 15050H11 1 37220K11 1 00024L11 1 01500M11 1 30250N11 1 00000Q11 1 10281S11 1 00035V11 1 01010W11 1 33010
0377999999137101951092821005+38850-077017SAO  +000899999V02031559013452200059N024000599+01945+00335101935ADDGA1999+076204004GA2999+999999999GA3999+999999999GA4999+999999999GD10005+9999999GD20005+9999999GD30005+9999999GD40005+9999999GF100005999999999999999999MA1999999101835EQDN01 00000JPWTH 1QNNE11 1 00000E11 1 00000E11 1 00000E11 1 00000G11U1 99999H11 1 32250H11 1 00999H11 1 00999H11 1 00999K11 1 00038L11 1 01500M11 1 30070N11 1 00000Q11 1 10193S11 1 00067V11 1 00000W11 1 88026
0057267630999991951063003004+54517+030383FM-12+019299999V0202001N001019999999N0100001N9+01501+01391101301ADDAY181999GF108991999999999999999999MD1710141+9999MW1811
038899999913957195109132000E+32550-093767SAO  +005999999V02002359002650670649N024000599+02395+02065101355ADDAA101000095GA1999+007624064GA2999+024384044GA3999+067064004GA4999+999999999GD12025+9999999GD22035+9999999GD34085+9999999GD40005+9999999GF108065999999999999999999MA1999999100715EQDN01 00000JPWTH 1QNNE11 1 00203E11 1 00204E11 1 00610E11 1 00000G11 1 00220H11 1 15025H11 1 21080H11 1 32220H11 1 00999K11 1 00069L11 1 01500M11 1 29740N11 1 00000Q11 1 10135S11 1 00075V11 1 01007W11 1 12005
018272518014735195104191900C+42750-073800SAO  +0089ALB  V02033859008852200059N0320005N1+01505+00115100585ADDAA101000095GF100995999999999999999999MA1999999099495MW1001EQDN01 00000JPWTH 1QNNG11U1 99999K11 1 00034L11 1 02000M11 1 29380N11 1 00000Q11 1 10058S11 1 00059V11 1 00099W11 1 18017
0057761600999991951120909004+29083-110967FM-12+021199999V0203201N00211220001CN0400001N9+01111-00111101641ADDAY101999GF100991001001999999001001MD1310041+9999MW1021
0076042400999991951112712004+65400-052850FM-12+002699999V0201201N01341220001CN0160001N9-00721-01281100961ADDAY121061GF106991001001999999041051MD1011182+9999MW1021EQDQ01+001182APC3  
0057315270999991951101218004+50117+129467FM-12+024299999V0202901N00511220001CN0020001N9-00391-00891102391ADDAY101999GF100991001001999999001001MD1990011+9999MW1021
018272306013722195109301900C+35867-078783SAO  +0135RDU  V02099999000052200059N0320005N1+02445+00225102345ADDAA101000095GF100005999999999999999999MA1999999100755MW1001EQDN01 00000JPWTH 1QNNG11U1 99999K11 1 00036L11 1 02000M11 1 29750N11 1 00000Q11 1 10234S11 1 00076V11 1 00000W11 1 00000
0082719130999991951062911004+58750-094067SAO  +0029CYYQ V0203601N005110240019N0240001N1+00241+00241101571ADDGA1021+999999059GA2041+999999039GF107991999999999999999999MA1999999101121MW1001
038899999923065195110191800E+39367-101700SAO  +1111GLD  V02018059010852200059N024000599+01335+00065101905ADDAA101000095GA1999+060964024GA2999+999999999GA3999+999999999GA4999+999999999GD14085+9999993GD20005+9999999GD30005+9999999GD40005+9999999GF108015999999999999999999MA1999999089065EQDN01 00000JPWTH 1QNNE11 1 00510E11 1 00000E11 1 00000E11 1 00000G11U1 99999H11 1 37200H11 1 00999H11 1 00999H11 1 00999K11 1 00033L11 1 01500M11 1 26300N11 1 00000Q11 1 10190S11 1 00056V11 1 01001W11 1 55021
0081318250999991951032200004+47600+138400FM-12+016099999V0209991C00001220001CN0200001N9-00781-01221101471ADDAA199000391AY171999GF108991001001999999031071KA1999N-01781MD1010001+9999MW1031
0066106370999991951040104004+50033+008583SAO  +0110EDDF V0201801N008210054019N0048001N9+00001+00001101351ADDGA1081+005409079GF108991999999999999999999MA1999999099931MW1051
038899999923187195103160600E+34750-118733SAO  +1379SDB  V02033859013450487749N024000599+01225-00225101255ADDAA101000095GA1999+048774034GA2999+999999999GA3999+999999999GA4999+999999999GD19055+9999999GD29005+9999999GD39005+9999999GD49005+9999999GF105995999999999999999999MA1999999086225EQDN01 00000JPWTH 1QNNE11 1 09906E11 1 09900E11 1 09900E11 1 09900G11 1 00160H11 1 23160H11 1 00999H11 1 00999H11 1 00999K11 1 00028L11 1 01500M11 1 25460N11 1 00000Q11 1 10125S11 1 00054V11 1 00699W11 1 18026
019872698024229195108192000C+45600-122600SAO  +0006PDX  V02031559004652200059N0240005N9+02895+01225101465ADDAA101000095GA1001+999999999GF100005999999999999999999MA1999999101325MW1001EQDN01 00000JPWTH 1QNNG11U1 99999K11 1 00054L11 1 01500M11 1 29920N11 1 00000Q11 1 10146S11 1 00084V11 1 00000W11 1 88009
0383999999148101951081318005+41983-087900SAO  +019899999V02018059005250152449N008000599+02395+02005101835ADDGA1999+015244064GA2999+030484034GA3999+999999999GA4999+999999999GD13065+9999999GD24085+9999999GD30005+9999999GD40005+9999999GF108075999999999999999999MA1999999099425MW1045EQDN01 08000JPWTH 1QNNE11 1 00407E11 1 00610E11 1 00000E11 1 00000G11 1 00050H11 1 15050H11 1 23100H11 1 00999H11 1 00999K11 1 00068L11 1 00500M11 1 29360N11 1 08000Q11 1 10183S11 1 00075V11 1 01009W11 1 55010
026099999914825195106240900E+41017-083667SAO  +0245FDY  V02013559003150365849N004800599+02005+02005101325ADDAA101000095GD19999+9999999GD29999+9999999GD39999+9999999GF108045999999999999999999MA1999999098445MW1455EQDN01 07000JPWTH 1QNNE11 1 09999E11 1 09999E11 1 09999G11 1 00120K11 1 00068L11 1 00300M11 1 29070N11 1 07000Q11 1 10132S11 1 00068V11 1 01005W11 1 44006
0066718670999991951011317004+53967-101100SAO  +0271CYQD V0202481N003610054019N0240001N1-00701-00761101431ADDGA1081+999999059GF108991999999999999999999MA1999999098001MW1001
0377999999267031951100405005+63767-171750SAO  +000999999V02022559005250091449N032000599-00065-00335100585ADDGA1999+009144064GA2999+999999999GA3999+999999999GA4999+999999999GD13065+9999999GD20005+9999999GD30005+9999999GD40005+9999999GF106065999999999999999999MA1999999100475EQDN01 00000JPWTH 1QNNE11 1 00408E11 1 00000E11 1 00000E11 1 00000G11 1 00030H11 1 15030H11 1 00999H11 1 00999H11 1 00999K11 1 00026L11 1 02000M11 1 29670N11 1 00000Q11 1 10058S11 1 00031V11 1 00808W11 1 66010
0171999999931011951060403005+33683-117733SAO  +010899999V02015859004652200059N009600599+01564+01335101054ADDGF100005999999999999999999MA1999999099764MW1055EQDN01 08100JPWTH 1QNNG11U1 99999K11 1 00056L11 1 00600M11 1 29460N11 1 08100Q11 1 10105S11 1 00060V11 1 00000W11 1 54009
028699999914748195108150700E+42167-076900SAO  +029099999V02099999000050304849N001600599+01725+01675101735ADDAA101000095GD16995+9999999GD22995+9999999GD33995+9999999GD40995+9999999GF107065999999999999999999MA1999999098345MW1455EQDN01 07000JPWTH 1QNNE11 1 00899E11 1 00299E11 1 00499E11 1 00099G11 1 00100K11 1 00062L11 1 00100M11 1 29040N11 1 07000Q11 1 10173S11 1 00063V11 1 00908W11 1 00000
007772433813802195112252300D+38550-089983SAO  +0134BLV  V0202901N008710027019N0032191N9-00111-00391102201ADDAA101000095GA1081+002709059GF108991999999999999999999MA1999999100511MW1051
0066747880128101951102711004+27850-082500SAO  +0003KMCF V0201401N004612200019N0160001N9+02221+02161101761ADDGA1001+999999999GF100991999999999999999999MA1999999101691MW1001
031999999924237195111080300E+47283-121333SAO  +1206SMP  V02024859004150000049N000000599+00335+00335101965ADDAA101001095GA1999+000004104GD15085+9999999GD20995+9999999GD30995+9999999GD40995+9999999GF108085999999999999999999MA1999999087945MW1455MW2615EQDN01 02070JPWTH 1QNNE11 1 00710E11 1 00099E11 1 00099E11 1 00099G11 1 00000H11 1 45000K11 1 00038L11 1 00000M11 1 25970N11 1 02070Q11 1 10196S11 1 00038V11 1 01010W11 1 76008
017699999914940195103220900E+43150-093333SAO  +037399999V02013559006750609649N024000599-01065-01335100955ADDAA101000095GF106995999999999999999999MA1999999096515EQDN01 00000JPWTH 1QNNG11 1 00200K11 1 00008L11 1 01500M11 1 28500N11 1 00000Q11 1 10095S11 1 00013V11 1 00899W11 1 44013
0329999999107151951060909005+09367-079900SAO  +0004MBFS V02022559001050036649N012800599+02565+02505100945ADDGA1999+003664064GA2999+024384044GD19065+9999999GD29025+9999999GD39999+9999999GD49999+9999999GF108085999999999999999999MA1999999100915MW1515EQDN01 03300JPWTH 1QNNE11 1 09907E11 1 09903E11 1 09999E11 1 09999G11 1 00012H11 1 15012H11 1 21080K11 1 00077L11 1 00800M11 1 29800N11 1 03300Q11 1 10094S11 1 00078V11 1 01010W11 1 66002
017699999913894195105020400E+30683-088250SAO  +0064MOB  V02015859003652200059N016000599+02005+01895101935ADDAA101000095GF100995999999999999999999MA1999999101155EQDN01 00000JPWTH 1QNNG11U1 99999K11 1 00066L11 1 01000M11 1 29870N11 1 00000Q11 1 10193S11 1 00068V11 1 00099W11 1 54007
0057356330999991951031418004+47850+059617FM-12+017699999V0209991C00001004501CN0020001N9-00781-01391103391ADDAY111999GF108991081051004501999999MD1310131+9999MW1031
0043225250999991951102106004+64567+034917FM-12+000999999V0202001N01391004501CN0100001N9+00221+00001102341ADDAY121999GF108991081071004501999999MW1101
0128999999241621951022312005+44017-117017SAO  +0668ONO  V02002359004150143349N024000599+00175-00225999999ADDGF108995999999999999999999EQDN01 00000JPWTH 1QNNG11 1 00047K11 1 00028L11 1 01500N11 1 00000S11 1 00035V11 1 01099W11 1 12008
0296722585939011951060712002+32733-096967SAO  +0150NBE  V02018059007250036649N016000599+02395+02115100895ADDGA1999+003664064GD19085+9999999GD29999+9999999GD39999+9999999GD49999+9999999GF108085999999999999999999MA1999999099295EQDN01 00000JPWTH 1QNNE11 1 09910E11 1 09999E11 1 09999E11 1 09999G11 1 00012H11 1 15012K11 1 00070L11 1 01000M11 1 29320N11 1 00000Q11 1 10089S11 1 00075V11 1 01010W11 1 55014
0057287970999991951021312004+54200+072967FM-12+012099999V0202201N00311220001CN0200001N9-03001-03221102911ADDAY111999GF100991001001999999001001MD1310031+9999MW1011
0165999999128331951040802005+29633-083100SAO  +0013CTY  V02022559004650018349N016000599+01675+01565100275ADDGF106995999999999999999999MA1999999100105EQDN01 00000JPWTH 1QNNG11 1 00006K11 1 00060L11 1 01000M11 1 29560N11 1 00000Q11 1 10027S11 1 00062V11 1 00899W11 1 66009
004483583099999195108202300N-19850-043950BRAZ +0785SBBH V02013019001019999999N020000199+01551+01001102311ADDGF100991999999999999999999MA1102091100021
0165999999931041951021911005+35683-117683SAO  +068199999V02031559005752200059N024000599+00444-00945102004ADDGF100995999999999999999999MA1999999094044EQDN01 00000JPWTH 1QNNG11U1 99999K11 1 00015L11 1 01500M11 1 27770N11 1 00000Q11 1 10200S11 1 00040V11 1 00099W11 1 88011
0165999999137531951041514005+39450-074583SAO  +002099999V02018059009852200059N016000599+01615+01005100215ADDGF102995999999999999999999MA1999999099975EQDN01 00000JPWTH 1QNNG11U1 99999K11 1 00050L11 1 01000M11 1 29520N11 1 00000Q11 1 10021S11 1 00061V11 1 00399W11 1 55019
017699999993987195102120500E+31233-094750SAO  +0089LFK  V02018059004652200059N016000599+01564+01285101804ADDAA101000095GF100995999999999999999999MA1999999100684EQDN01 00000JPWTH 1QNNG11U1 99999K11 1 00055L11 1 01000M11 1 29730N11 1 00000Q11 1 10180S11 1 00060V11 1 00099W11 1 55009
0165999999148531951053010005+42233-083533SAO  +0237YIP  V02029359001550762049N024000599+01285+01005101525ADDGF107995999999999999999999MA1999999098715EQDN01 00000JPWTH 1QNNG11 1 00250K11 1 00050L11 1 01500M11 1 29150N11 1 00000Q11 1 10152S11 1 00055V11 1 00999W11 1 78003
0043076500999991951012806004+43450+005217FM-12+000899999V0200701N008719999999N0300001N9+00611+99999099001ADDAY161999GF108991999999999999021999MW1021
0066722315539171951121621004+30050-090033SAO  +0003NEW  V0200681N004112200019N0240001N1+00631-00531103201ADDGA1011+060009009GF102991999999999999999999MA1999999103121MW1001
0066747320999991951012118004+32850-106083SAO  +1240HMN  V0203201N001512200019N0640001N9+00851-00811102981ADDGA1001+999999999GF100991999999999999999999MA1999999088861MW1001
0035846310999991951101821004-12100-077033FM-12+015599999V0201801N00311004501CN0200001N9+01781+01501101301ADDGF108991081051004501999999MW1001
017699999912834195102212200E+29183-081050SAO  +001099999V02024859008252200059N024000599+02505+00615100985ADDAA101000095GF100995999999999999999999MA1999999100855EQDN01 00000JPWTH 1QNNG11U1 99999K11 1 00043L11 1 01500M11 1 29780N11 1 00000Q11 1 10098S11 1 00077V11 1 00099W11 1 76016
0377999999231841951011800005+34650-112433SAO  +153099999V02024859002652200059N104000599+00565-00225102175ADDGA1999+012194064GA2999+091444024GA3999+999999999GA4999+999999999GD19005+9999999GD29005+9999999GD39005+9999999GD49005+9999999GF100995999999999999999999MA1999999084865EQDN01 00000JPWTH 1QNNE11 1 09900E11 1 09900E11 1 09900E11 1 09900G11U1 99999H11 1 15040H11 1 37300H11 1 00999H11 1 00999K11 1 00028L11 1 06500M11 1 25060N11 1 00000Q11 1 10217S11 1 00042V11 1 00099W11 1 76005
006083721099999195102211500N-23000-047133BRAZ +0661SBKP V02030019006719999999N020000199+02541+02001999999ADDGA1081+010001231GF108991999999999999999999MA1101281094621
0210999999938291951040713005+30350-087267SAO  +0021CVD  V02011359005750015249N001600599+01834+01725100334ADDGF108995999999999999999999MA1999999100074MW1455MW2805MW3955EQDN01 01023JPWTH 1N02 07000JPWTH 1QNNG11 1 00005K11 1 00063L11 1 00100M11 1 29550N11 1 01023N11 1 07000Q11 1 10033S11 1 00065V11 1 01099W11 1 34011
0076295530999991951033112004+56233+089583FM-12+029199999V0202201N00511220001CN0200001N9+00111-00221103071ADDAY121999GF108991999001999999031001MD1810121+9999MW1031EQDQ01+000002SCOTLC
0043408230999991951090511004+29500+060883FM-12+143899999V0200201N00461220001CN0160001N9+03331+00501999999ADDAY101999GF100991001001999999001001MW1001
028099999903838195108142100E+38983-089167SAO  +0163VLA  V02020359003650762049N019200599+03175+02395101685ADDAA101000095GD12995+9999999GD23995+9999999GD30995+9999999GD40995+9999999GF107065999999999999999999MA1999999099765EQDN01 00000JPWTH 1QNNE11 1 00299E11 1 00499E11 1 00099E11 1 00099G11 1 00250K11 1 00075L11 1 01200M11 1 29460N11 1 00000Q11 1 10168S11 1 00089V11 1 00907W11 1 56007
0171999999148261951052302005+42967-083733SAO  +023799999V02036059004650033549N011200599+01005+00895101085ADDGF108995999999999999999999MA1999999098315MW1615EQDN01 02000JPWTH 1QNNG11 1 00011K11 1 00048L11 1 00700M11 1 29030N11 1 02000Q11 1 10108S11 1 00050V11 1 01099W11 1 11009
030799999913963195111220500E+34733-092233SAO  +008499999V02009059001550167649N011200599+01065+00835102035ADDAA101000095GA1999+016764064GD14085+9999999GD20995+9999999GD30995+9999999GD40995+9999999GF108085999999999999999999MA1999999101055EQDN01 00000JPWTH 1QNNE11 1 00610E11 1 00099E11 1 00099E11 1 00099G11 1 00055H11 1 15055K11 1 00047L11 1 00700M11 1 29840N11 1 00000Q11 1 10203S11 1 00051V11 1 01010W11 1 33003
0165999999947021951052522005+41167-073133SAO  +000899999V02011359004152200059N024000599+01394+01065100584ADDGF104995999999999999999999MA1999999100514EQDN01 00000JPWTH 1QNNG11U1 99999K11 1 00051L11 1 01500M11 1 29680N11 1 00000Q11 1 10058S11 1 00057V11 1 00599W11 1 34008
018272326013891195101081100C+35817-083983SAO  +0276TYS  V02099999000052200059N0160005N9-00675-01225102205ADDAA101000095GF101995999999999999999999MA1999999098515MW1001EQDN01 00000JPWTH 1QNNG11U1 99999K11 1 00010L11 1 01000M11 1 29090N11 1 00000Q11 1 10220S11 1 00020V11 1 00199W11 1 00000
0076912750216031951100106004+16733-169517SAO  +0002PJON V0200901N008210300019N0192001N9+02741+02461101421ADDGA1021+005409089GA2081+030009049GF108991999999999999999999MA1999999101321
039470219026615195106260600C+60783-161717SAO  +0005BET  V02004559003652200059N1120005N1+02335+00895101025ADDAA101000095GA1021+060964004GA2999+999999999GA3999+999999999GA4999+999999999GD19025+9999999GD29005+9999999GD39005+9999999GD49005+9999999GF102025999999999999999999MA1999999100885MW1001EQDN01 00000JPWTH 1QNNE11 1 09903E11 1 09900E11 1 09900E11 1 09900G11U1 99999H11 1 32200H11 1 00999H11 1 00999H11 1 00999K11 1 00048L11 1 07000M11 1 29790N11 1 00000Q11 1 10102S11 1 00074V11 1 00303W11 1 22007
017699999912917195108060800E+29950-094017SAO  +0009BPT  V02099999000052200059N016000599+02675+02615101535ADDAA101000095GF100005999999999999999999MA1999999101465EQDN01 00000JPWTH 1QNNG11U1 99999K11 1 00079L11 1 01000M11 1 29960N11 1 00000Q11 1 10153S11 1 00080V11 1 00000W11 1 00000
028099999923179195111151500E+34767-114617SAO  +0280EED  V02036059004652200059N024000599+01505+00225101395ADDAA101000095GD10995+9999999GD20995+9999999GD30995+9999999GD40995+9999999GF100005999999999999999999MA1999999098245EQDN01 00000JPWTH 1QNNE11 1 00099E11 1 00099E11 1 00099E11 1 00099G11U1 99999K11 1 00036L11 1 01500M11 1 29010N11 1 00000Q11 1 10139S11 1 00059V11 1 00000W11 1 11009
0383703500255011951100621003+57750-152500SAO  +0034ADQ  V02009059002150152449N0240005N1+00565-00285100265ADDGA1061+015244064GA2999+999999999GA3999+999999999GA4999+999999999GD13065+9999999GD20005+9999999GD30005+9999999GD40005+9999999GF106065999999999999999999MA1999999099865MW1001EQDN01 00000JPWTH 1QNNE11 1 00407E11 1 00000E11 1 00000E11 1 00000G11 1 00050H11 1 15050H11 1 00999H11 1 00999H11 1 00999K11 1 00027L11 1 01500M11 1 29490N11 1 00000Q11 1 10026S11 1 00042V11 1 00707W11 1 33004
0377999999129261951111402005+27700-097267SAO  +000699999V02018059007250609649N016000599+02395+02225100465ADDGA1999+060964004GA2999+999999999GA3999+999999999GA4999+999999999GD13065+9999999GD20005+9999999GD30005+9999999GD40005+9999999GF106065999999999999999999MA1999999100375EQDN01 00000JPWTH 1QNNE11 1 00407E11 1 00000E11 1 00000E11 1 00000G11 1 00200H11 1 32200H11 1 00999H11 1 00999H11 1 00999K11 1 00072L11 1 01000M11 1 29640N11 1 00000Q11 1 10046S11 1 00075V11 1 00707W11 1 55014
0329999999433091951041409005+35833+139417SAO  +0094RJTJ V02099999000050061049N004800599+01335+00675102335ADDGA1999+006104154GA2999+009144064GD19065+9999999GD29085+9999999GD39999+9999999GD49999+9999999GF108995999999999999999999MA1999999101195MW1055EQDN01 08100JPWTH 1QNNE11 1 09908E11 1 09910E11 1 09999E11 1 09999G11 1 00020H11 1 17020H11 1 15030K11 1 00044L11 1 00300M11 1 29880N11 1 08100Q11 1 10233S11 1 00056V11 1 01099W11 1 00000
028699999914860195107171300E+42083-080183SAO  +022599999V02004559007750033549N006400599+02115+01835101805ADDAA101000095GD13995+9999999GD24995+9999999GD30995+9999999GD40995+9999999GF108085999999999999999999MA1999999099155MW1045EQDN01 08200JPWTH 1QNNE11 1 00499E11 1 00699E11 1 00099E11 1 00099G11 1 00011K11 1 00065L11 1 00400M11 1 29280N11 1 08200Q11 1 10180S11 1 00070V11 1 01010W11 1 22015
028099999924145195106220000E+43517-112067SAO  +144699999V02099999000050304849N064000599+02065+00005100685ADDAA101000095GD19999+9999999GD29999+9999999GD39999+9999999GD49999+9999999GF106065999999999999999999MA1999999084805EQDN01 00000JPWTH 1QNNE11 1 09999E11 1 09999E11 1 09999E11 1 09999G11 1 00100K11 1 00032L11 1 04000M11 1 25040N11 1 00000Q11 1 10068S11 1 00069V11 1 00808W11 1 00000
0269999999241931951122418005+40733-114033SAO  +129299999V02015859004650213449N048000599+00115-00445101695ADDGD13995+9999999GD20995+9999999GD30995+9999999GD40995+9999999GF105035999999999999999999MA1999999087005EQDN01 00000JPWTH 1QNNE11 1 00499E11 1 00099E11 1 00099E11 1 00099G11 1 00070K11 1 00024L11 1 03000M11 1 25690N11 1 00000Q11 1 10169S11 1 00034V11 1 00604W11 1 54009
0059036690999991951121412004+51717-000533FM-12+015799999V0202201N00511220001CN0006001N9+00721+00721102321ADDAY141999GA1071+999999009GF108991081061000751999999MW1441
0165040180162011951012417005+63967-022600SAO  +0050BIKF V02018059006750024449N019200599+00065-00505098445ADDGF106995999999999999999999MA1999999097735EQDN01 00000JPWTH 1QNNG11 1 00008K11 1 00023L11 1 01200M11 1 28860N11 1 00000Q11 1 09844S11 1 00033V11 1 00899W11 1 55013
0302703260255031951042903003+58683-156650SAO  +0015AKN  V02024859009350024449N0032005N9-00335-00395099125ADDGA1081+002444134GD19085+9999999GD29999+9999999GD39999+9999999GD49999+9999999GF108995999999999999999999MA1999999098955MW1715EQDN01 04000JPWTH 1QNNE11 1 09910E11 1 09999E11 1 09999E11 1 09999G11 1 00008H11 1 13008K11 1 00025L11 1 00200M11 1 29220N11 1 04000Q11 1 09912S11 1 00026V11 1 01099W11 1 76018
0165999999264391951031500005+99999+999999SAO  +999999999V02099999000052200059N032000599-00505-01285102035ADDGF102995999999999999999999MA1999999093235EQDN01 00000JPWTH 1QNNG11U1 99999K11 1 00009L11 1 02000M11 1 27530N11 1 00000Q11 1 10203S11 1 00023V11 1 00399W11 1 00000
0102040650999991951080309004+66533-018017FM-12+000699999V0200901N00261004501CN0040001N9+00891+99999100721ADDAA199001091AY151031GA1999+000159999GF108991081061004501999999KA1999N+00781MW1021EQDQ01    003SCCGA1
0389999999433181951112918005+37950+139117SAO  +0004RJSN V02029359010350054949N009600599+00505+00225101965ADDGA1999+005494064GA2999+999999999GA3999+999999999GA4999+999999999GD13075+9999999GD20005+9999999GD30005+9999999GD40005+9999999GF107075999999999999999999MA1999999101865MW1805MW2895EQDN01 02366JPWTH 1QNNE11 1 00409E11 1 00000E11 1 00000E11 1 00000G11 1 00018H11 1 15018H11 1 00999H11 1 00999H11 1 00999K11 1 00036L11 1 00600M11 1 30080N11 1 02366Q11 1 10196S11 1 00041V11 1 00909W11 1 78020
0165999999149261951050422005+45583-094183SAO  +0316YTC  V02033859004150762049N024000599+01565+00065101565ADDGF106995999999999999999999MA1999999097735EQDN01 00000JPWTH 1QNNG11 1 00250K11 1 00033L11 1 01500M11 1 28860N11 1 00000Q11 1 10156S11 1 00060V11 1 00899W11 1 18008
0066704140999991951100409004+52717+174100SAO  +0032PASY V0209991C000010090019N0160001N9+00631+00081101461ADDGA1081+009009059GF108991999999999999999999MA1999999101081MW1001
0269999999241931951082311005+40733-114033SAO  +129299999V02022559001050274349N048000599+01895+00725100755ADDGD13995+9999999GD20995+9999999GD30995+9999999GD40995+9999999GF105035999999999999999999MA1999999086735EQDN01 00000JPWTH 1QNNE11 1 00499E11 1 00099E11 1 00099E11 1 00099G11 1 00090K11 1 00045L11 1 03000M11 1 25610N11 1 00000Q11 1 10075S11 1 00066V11 1 00604W11 1 66002
017699999924232195104070700E+44917-123017SAO  +006199999V02029359002152200059N024000599+00785+00505102075ADDAA101000095GF100995999999999999999999MA1999999101325EQDN01 00000JPWTH 1QNNG11U1 99999K11 1 00041L11 1 01500M11 1 29920N11 1 00000Q11 1 10207S11 1 00046V11 1 00099W11 1 78004
038899999923061195109081200E+37433-105850SAO  +229899999V02022559002150365849N064000599+00445+00225101965ADDAA101000095GA1999+036584034GA2999+999999999GA3999+999999999GA4999+999999999GD13055+9999999GD20005+9999999GD30005+9999999GD40005+9999999GF105055999999999999999999MA1999999077655EQDN01 00000JPWTH 1QNNE11 1 00406E11 1 00000E11 1 00000E11 1 00000G11 1 00120H11 1 23120H11 1 00999H11 1 00999H11 1 00999K11 1 00036L11 1 04000M11 1 22930N11 1 00000Q11 1 10196S11 1 00040V11 1 00606W11 1 66004
0377999999230191951060112005+31833-106400SAO  +1196BIF  V02015859004152200059N064000599+01895+01175100615ADDGA1999+070104004GA2999+999999999GA3999+999999999GA4999+999999999GD19015+9999999GD29005+9999999GD39005+9999999GD49005+9999999GF101015999999999999999999MA1999999087715EQDN01 00000JPWTH 1QNNE11 1 09901E11 1 09900E11 1 09900E11 1 09900G11U1 99999H11 1 32230H11 1 00999H11 1 00999H11 1 00999K11 1 00053L11 1 04000M11 1 25900N11 1 00000Q11 1 10061S11 1 00066V11 1 00101W11 1 54008
028672797624217195109050700C+48800-122533SAO  +0047BLI  V02099999000052200059N0240005N1+01335+01065101325ADDAA101000095GD10995+9999999GD20995+9999999GD30995+9999999GD40995+9999999GF100005999999999999999999MA1999999100755MW1001EQDN01 00000JPWTH 1QNNE11 1 00099E11 1 00099E11 1 00099E11 1 00099G11U1 99999K11 1 00051L11 1 01500M11 1 29750N11 1 00000Q11 1 10132S11 1 00056V11 1 00000W11 1 00000
0377999999146011951050707005+44800-068817SAO  +004999999V02027059002152200059N024000599+00725+00225100205ADDGA1999+015244064GA2999+999999999GA3999+999999999GA4999+999999999GD19045+9999999GD29005+9999999GD39005+9999999GD49005+9999999GF104995999999999999999999MA1999999099425EQDN01 00000JPWTH 1QNNE11 1 09905E11 1 09900E11 1 09900E11 1 09900G11U1 99999H11 1 15050H11 1 00999H11 1 00999H11 1 00999K11 1 00036L11 1 01500M11 1 29360N11 1 00000Q11 1 10020S11 1 00045V11 1 00599W11 1 77004
0066722585939011951080622001+32733-096967SAO  +0151NBE  V0200681N001512200019N0240001N1+04131+02071101151ADDGA1021+015009089GF102991999999999999999999MA1999999099461MW1001
028099999913896195108151300E+34750-087617SAO  +017199999V02013559002152200059N016000599+02505+02175101805ADDAA101000095GD10995+9999999GD20995+9999999GD30995+9999999GD40995+9999999GF100005999999999999999999MA1999999099805EQDN01 00000JPWTH 1QNNE11 1 00099E11 1 00099E11 1 00099E11 1 00099G11U1 99999K11 1 00071L11 1 01000M11 1 29470N11 1 00000Q11 1 10180S11 1 00077V11 1 00000W11 1 44004
0064675610999991951092012004-13000+028650FM-12+127099999V0201001N00461021001CN0200001N9+02561+00671999999ADDAY111999GF107991071011022501041001MW1041REMSYN0121250GPM= 782
038872734514847195111181000E+99999+999999SAO  +999999999V02036059003152200059N016000599-00725-01065101695ADDAA101000095GA1999+008534064GA2999+054864024GA3999+999999999GA4999+999999999GD12025+9999999GD23065+9999993GD30005+9999999GD40005+9999999GF106025999999999999999999MA1999999098925EQDN01 00000JPWTH 1QNNE11 1 00202E11 1 00308E11 1 00000E11 1 00000G11U1 99999H11 1 15028H11 1 37180H11 1 00999H11 1 00999K11 1 00013L11 1 01000M11 1 29210N11 1 00000Q11 1 10169S11 1 00019V11 1 00802W11 1 11006
0377999999938011951070923005+34350-085167SAO  +0195RMG  V02015859005252200059N024000599+03004+01835101564ADDGA1999+042674034GA2999+091444004GA3999+999999999GA4999+999999999GD12025+9999999GD22025+9999999GD30005+9999999GD40005+9999999GF104025999999999999999999MA1999999099294EQDN01 00000JPWTH 1QNNE11 1 00203E11 1 00202E11 1 00000E11 1 00000G11U1 99999H11 1 23140H11 1 32300H11 1 00999H11 1 00999K11 1 00065L11 1 01500M11 1 29320N11 1 00000Q11 1 10156S11 1 00086V11 1 00503W11 1 54010
0377999999147931951100913005+40200-075150SAO  +011999999V02029359003652200059N016000599+00835+00285102075ADDGA1999+060964004GA2999+999999999GA3999+999999999GA4999+999999999GD12025+9999999GD20005+9999999GD30005+9999999GD40005+9999999GF102025999999999999999999MA1999999100685EQDN01 00000JPWTH 1QNNE11 1 00202E11 1 00000E11 1 00000E11 1 00000G11U1 99999H11 1 32200H11 1 00999H11 1 00999H11 1 00999K11 1 00037L11 1 01000M11 1 29730N11 1 00000Q11 1 10207S11 1 00047V11 1 00202W11 1 78007
0177999999242441951012323005+47683-122267SAO  +001599999V02004559001550030549N004800599+00565+00565102225ADDGF108995999999999999999999MA1999999102516MW1455MW2515EQDN01 03370JPWTH 1QNNG11 1 00010K11 1 00042L11 1 00300M11 1 30270N11 1 03370Q11 1 10222S11 1 00042V11 1 01099W11 1 22003
0076312950999991951071402004+53450+125650FM-12+038499999V0209991C000019999999N0100001N9+01721+01391999999ADDAY121999GF107991999061004501001001MD1210061+9999MW1021EQDQ01+000042SCOTLC
0269999999931021951111608005+39417-118717SAO  +120099999V02022559001052200059N024000599-00674-01065102954ADDGD10995+9999999GD20995+9999999GD30995+9999999GD40995+9999999GF100005999999999999999999MA1999999088994EQDN01 00000JPWTH 1QNNE11 1 00099E11 1 00099E11 1 00099E11 1 00099G11U1 99999K11 1 00013L11 1 01500M11 1 26280N11 1 00000Q11 1 10295S11 1 00020V11 1 00000W11 1 66002
0275999999038121951102008005+35433-082483SAO  +064099999V02099999000052200059N004800599+00505+00505101935ADDGD16995+9999999GD20995+9999999GD30995+9999999GD40995+9999999GF102025999999999999999999MA1999999094555MW1445EQDN01 07200JPWTH 1QNNE11 1 00899E11 1 00099E11 1 00099E11 1 00099G11U1 99999K11 1 00041L11 1 00300M11 1 27920N11 1 07200Q11 1 10193S11 1 00041V11 1 00202W11 1 00000
038899999924152195109271400E+45500-118400SAO  +1234MEH  V02013559001552200059N024000599+00225-00225101595ADDAA101000095GA1999+045724034GA2999+082304004GA3999+999999999GA4999+999999999GD12025+9999999GD21015+9999993GD30005+9999999GD40005+9999999GF103025999999999999999999MA1999999087475EQDN01 00000JPWTH 1QNNE11 1 00203E11 1 00101E11 1 00000E11 1 00000G11U1 99999H11 1 23150H11 1 32270H11 1 00999H11 1 00999K11 1 00028L11 1 01500M11 1 25830N11 1 00000Q11 1 10159S11 1 00036V11 1 00402W11 1 44003
039472341813977195109062000C+33450-094000SAO  +0112TXK  V02004559002650548649N0240005N1+03445+02175101525ADDAA101000095GA1021+015244084GA2021+054864034GA3999+999999999GA4999+999999999GD12025+9999999GD23025+9999999GD30005+9999999GD40005+9999999GF105045999999999999999999MA1999999100245MW1001EQDN01 00000JPWTH 1QNNE11 1 00203E11 1 00403E11 1 00000E11 1 00000G11 1 00180H11 1 11050H11 1 23180H11 1 00999H11 1 00999K11 1 00071L11 1 01500M11 1 29600N11 1 00000Q11 1 10152S11 1 00094V11 1 00605W11 1 22005
005574724023168195102202200D+32883-112717SAO  +0261GBN  V0200701N006710900019N0480001N9+02131-00261101561ADDAA101000095GF107991999999999999999999MA1999999098481
0171999999038111951020921005+35600-088917SAO  +0128MKL  V02036059005250018349N006400599-00065-00115102845ADDGF108995999999999999999999MA1999999101255MW1455EQDN01 07000JPWTH 1QNNG11 1 00006K11 1 00030L11 1 00400M11 1 29900N11 1 07000Q11 1 10284S11 1 00031V11 1 01099W11 1 11010
031999999903103195112122200E+35133-111667SAO  +2135FLG  V02099999000050015249N001600599+00175+00115102075ADDAA101000095GA1999+001524074GD14085+9999999GD20995+9999999GD30995+9999999GD40995+9999999GF108085999999999999999999MA1999999078535MW1515MW2615EQDN01 02033JPWTH 1QNNE11 1 00610E11 1 00099E11 1 00099E11 1 00099G11 1 00005H11 1 16005K11 1 00034L11 1 00100M11 1 23190N11 1 02033Q11 1 10207S11 1 00035V11 1 01010W11 1 00000
0383723825231311951052623003+34583-117383SAO  +0877VCV  V02018059010852200059N0160005N9+03565+00335100755ADDGA1021+091444004GA2999+999999999GA3999+999999999GA4999+999999999GD19025+9999999GD29005+9999999GD39005+9999999GD49005+9999999GF102995999999999999999999MA1999999091035MW1001EQDN01 00000JPWTH 1QNNE11 1 09902E11 1 09900E11 1 09900E11 1 09900G11U1 99999H11 1 32300H11 1 00999H11 1 00999H11 1 00999K11 1 00038L11 1 01000M11 1 26880N11 1 00000Q11 1 10075S11 1 00096V11 1 00299W11 1 55021
0296999999128381951122719005+28083-080600SAO  +000999999V02036059012950039649N019200599+01725+01175102245ADDGA1999+003964064GD14085+9999999GD20995+9999999GD30995+9999999GD40995+9999999GF108085999999999999999999MA1999999102135EQDN01 00000JPWTH 1QNNE11 1 00610E11 1 00099E11 1 00099E11 1 00099G11 1 00013H11 1 15013K11 1 00053L11 1 01200M11 1 30160N11 1 00000Q11 1 10224S11 1 00063V11 1 01010W11 1 11025
0066913660406041951092813004+08733+167733SAO  +0008PKWA V0200681N006712200019N0160001N1+02801+02681101051ADDGA1021+006009089GF102991999999999999999999MA1999999100981MW1001
0066722270138641951122207004+33917-084517SAO  +0317MGE  V0202901N007212200019N0160001N9+00021-00371102001ADDGA1021+030009039GF102991999999999999999999MA1999999098171MW1001
0101745980137021951052307004+37083-076350SAO  +0003LFI  V0202001N003610600019N0128001N9+02051+01891100371ADDGA1999+021009999GA2061+060009009GF107991999999999999999999MA1999999100341MW1001EQDQ01    003SCCGA1
0100309780999991951032600004+49833+118383FM-12+055099999V0200201N00511007801CN0100001N9-00221-00501102401ADDAA199000691AY121999GF108991999021008001061999KA1999N-00281MD1310161+9999MW1221EQDQ01+000082SCOTLC
017699999903813195103242000E+32700-083650SAO  +0108MCN  V02031559008252200059N024000599+02175-00285101525ADDAA101000095GF103995999999999999999999MA1999999100205EQDN01 00000JPWTH 1QNNG11U1 99999K11 1 00027L11 1 01500M11 1 29590N11 1 00000Q11 1 10152S11 1 00071V11 1 00499W11 1 88016
0165999999231951951041021005+32667-114600SAO  +0059YUM  V02027059004150701049N048000599+03225+00395100715ADDGF108995999999999999999999MA1999999100005EQDN01 00000JPWTH 1QNNG11 1 00230K11 1 00039L11 1 03000M11 1 29530N11 1 00000Q11 1 10071S11 1 00090V11 1 01099W11 1 77008
0377999999253391951071207005+59517-139667SAO  +0009YAK  V02099999000052200059N112000599+01065+01065101505ADDGA1999+002444074GA2999+076204004GA3999+999999999GA4999+999999999GD12015+9999999GD22005+9999999GD30005+9999999GD40005+9999999GF102015999999999999999999MA1999999101395EQDN01 00000JPWTH 1QNNE11 1 00201E11 1 00200E11 1 00000E11 1 00000G11U1 99999H11 1 16008H11 1 32250H11 1 00999H11 1 00999K11 1 00051L11 1 07000M11 1 29940N11 1 00000Q11 1 10150S11 1 00051V11 1 00201W11 1 00000
0104106350999991951031021004+50217+008450FM-12+079999999V0201301N00311001801CN0010001N9-00221-00221999999ADDAY141031GA1081+001809079GA2081+001809079GF108991081061001501999999MA1999999100791MD1110021+9999MW1411
0066747880128101951021811004+27850-082500SAO  +0003KMCF V0201601N001512200019N0112001N9+01551+01441102401ADDGA1001+999999999GF100991999999999999999999MA1999999102301MW1001
0066718310999991951010511004+49417-082467SAO  +0229CYYU V0202701N003612200019N0240001N1-02201-02201102191ADDGA1011+999999039GF102991999999999999999999MA1999999099151MW1761
0071062800999991951032718004+53133+006583FM-12+000599999V0203101N004619999999N0200001N9+00221-00281999999ADDAY181999GF105991041021008001071001KA1999M+00501MA1999999100351MW1011
018272267023042195101181600C+33650-101833SAO  +0990LBB  V02029359008852200059N0240005N1+01225-00675101295ADDAA101000095GF100995999999999999999999MA1999999090155MW1001EQDN01 00000JPWTH 1QNNG11U1 99999K11 1 00020L11 1 01500M11 1 26620N11 1 00000Q11 1 10129S11 1 00054V11 1 00099W11 1 78017
039470219026615195103271300C+60783-161717SAO  +0005BET  V02033859003152200059N0240005N1-03005-03445100855ADDAA101000095GA1999+999999999GA2999+999999999GA3999+999999999GA4999+999999999GD19005+9999999GD29005+9999999GD39005+9999999GD49005+9999999GF100995999999999999999999MA1999999100685MW1001EQDN01 00000JPWTH 1QNNE11 1 09900E11 1 09900E11 1 09900E11 1 09900G11U1 99999H11 1 00999H11 1 00999H11 1 00999H11 1 00999K11 1-00030L11 1 01500M11 1 29730N11 1 00000Q11 1 10085S11 1-00022V11 1 00099W11 1 18006
0057360610999991951111812004+52267+087167FM-12+032299999V0202701N00411012301CN9999999N9-01611-01891104301ADDAY171999GF108991081051012501999999MD1310041+9999MW1021
0269999999931981951080223005+37050-113517SAO  +088399999V02022559006750274349N048000599+03674+01395100614ADDGD13995+9999999GD23995+9999993GD30995+9999999GD40995+9999999GF106035999999999999999999MA1999999090924EQDN01 00000JPWTH 1QNNE11 1 00499E11 1 00399E11 1 00099E11 1 00099G11 1 00090K11 1 00057L11 1 03000M11 1 26850N11 1 00000Q11 1 10061S11 1 00098V11 1 00804W11 1 66013
034070273526409195106191100C+61217-149833SAO  +0041MRI  V02031559002650167649N0320005N1+00895+00115102715ADDAA101000095GA1021+009754134GA2081+016764064GD19025+9999999GD29085+9999999GD39999+9999999GD49999+9999999GF108085999999999999999999MA1999999102205MW1001EQDN01 00000JPWTH 1QNNE11 1 09902E11 1 09910E11 1 09999E11 1 09999G11 1 00055H11 1 13032H11 1 15055K11 1 00034L11 1 02000M11 1 30180N11 1 00000Q11 1 10271S11 1 00048V11 1 01010W11 1 88005
0051042000999991951121507004+76500-069000SAO  +0020BGDU V02099999999992200019N0000001N1-02751+99999999999ADDGA1031+054009029GF102991999999999999999999MW1001
017699999923155195103221900E+35417-119050SAO  +015199999V02099999000052200059N024000599+01615+00565101765ADDAA101000095GF102995999999999999999999MA1999999099935EQDN01 00000JPWTH 1QNNG11U1 99999K11 1 00042L11 1 01500M11 1 29510N11 1 00000Q11 1 10176S11 1 00061V11 1 00399W11 1 00000
0269999999240301951080121005+41100-102983SAO  +130899999V02015859004652200059N024000599+03505+01565100885ADDGD12995+9999999GD21995+9999993GD30995+9999999GD40995+9999999GF102015999999999999999999MA1999999086695EQDN01 00000JPWTH 1QNNE11 1 00299E11 1 00199E11 1 00099E11 1 00099G11U1 99999K11 1 00060L11 1 01500M11 1 25600N11 1 00000Q11 1 10088S11 1 00095V11 1 00201W11 1 54009
0171999999149271951010410005+44933-093067SAO  +022099999V02031559001550085349N008000599-00835-01065101395ADDGF108995999999999999999999MA1999999098655MW1045EQDN01 08000JPWTH 1QNNG11 1 00028K11 1 00013L11 1 00500M11 1 29130N11 1 08000Q11 1 10139S11 1 00017V11 1 01099W11 1 88003
0171999999137321951052008005+38067-078150SAO  +013599999V02004559004650012249N001600599+01395+01395101835ADDGF108995999999999999999999MA1999999100205MW1455EQDN01 07000JPWTH 1QNNG11 1 00004K11 1 00057L11 1 00100M11 1 29590N11 1 07000Q11 1 10183S11 1 00057V11 1 01099W11 1 22009
0269999999939921951061006005+33217-092800SAO  +0082ELD  V02015859004650167649N019200599+02504+02335101634ADDGD19999+9999999GD29999+9999999GD39999+9999999GD49999+9999999GF108085999999999999999999MA1999999100614EQDN01 00000JPWTH 1QNNE11 1 09999E11 1 09999E11 1 09999E11 1 09999G11 1 00055K11 1 00074L11 1 01200M11 1 29710N11 1 00000Q11 1 10163S11 1 00077V11 1 01010W11 1 54009
0269999999139971951122005005+38133-091767SAO  +0350VIH  V02015859007250051849N016000599+00115-00285100245ADDGD14995+9999999GD20995+9999999GD30995+9999999GD40995+9999999GF108085999999999999999999MA1999999096075EQDN01 00000JPWTH 1QNNE11 1 00699E11 1 00099E11 1 00099E11 1 00099G11 1 00017K11 1 00027L11 1 01000M11 1 28370N11 1 00000Q11 1 10024S11 1 00034V11 1 01010W11 1 54014
0383722785231111951051603003+33550-112367SAO  +0333LUF  V02013559001050457249N0240005N9+01725+01005101695ADDGA1061+045724034GA2999+999999999GA3999+999999999GA4999+999999999GD19065+9999999GD29005+9999999GD39005+9999999GD49005+9999999GF106995999999999999999999MA1999999097775MW1001EQDN01 00000JPWTH 1QNNE11 1 09908E11 1 09900E11 1 09900E11 1 09900G11 1 00150H11 1 23150H11 1 00999H11 1 00999H11 1 00999K11 1 00050L11 1 01500M11 1 28870N11 1 00000Q11 1 10169S11 1 00063V11 1 00899W11 1 44002
0088999999942251951043001005+46967-123933SAO  +000499999V02027059011350061049N024000599+01064+00445999999EQDN01 00000JPWTH 1QNNG11 1 00020K11 1 00040L11 1 01500N11 1 00000S11 1 00051W11 1 77022
017699999923238195102240000E+39100-122150SAO  +003999999V02036059004152200059N080000599+01285-00065101125ADDAA101000095GF102995999999999999999999MA1999999100645EQDN01 00000JPWTH 1QNNG11U1 99999K11 1 00031L11 1 05000M11 1 29720N11 1 00000Q11 1 10112S11 1 00055V11 1 00399W11 1 11008
006172396593209195109180000D+35667-120633SAO  +0255PRB  V0202251N005110360019N0320001N1+03241+01131101081ADDAA101000095GF107991999999999999999999MA1999999098211MW1001
0377999999137731951081821005+38500-077300SAO  +0004NYG  V02022559001550365849N019200599+02675+01835101515ADDGA1999+013724084GA2999+036584034GA3999+999999999GA4999+999999999GD12025+9999999GD23045+9999999GD30005+9999999GD40005+9999999GF106065999999999999999999MA1999999101465EQDN01 00000JPWTH 1QNNE11 1 00202E11 1 00405E11 1 00000E11 1 00000G11 1 00120H11 1 11045H11 1 23120H11 1 00999H11 1 00999K11 1 00065L11 1 01200M11 1 29960N11 1 00000Q11 1 10151S11 1 00080V11 1 00707W11 1 66003
0377999999938341951051221005+39983-082883SAO  +025299999V02031559006252200059N024000599+01944+00175101424ADDGA1999+999999999GA2999+999999999GA3999+999999999GA4999+999999999GD19005+9999999GD29005+9999999GD39005+9999999GD49005+9999999GF100995999999999999999999MA1999999098544EQDN01 00000JPWTH 1QNNE11 1 09900E11 1 09900E11 1 09900E11 1 09900G11U1 99999H11 1 00999H11 1 00999H11 1 00999H11 1 00999K11 1 00035L11 1 01500M11 1 29100N11 1 00000Q11 1 10142S11 1 00067V11 1 00099W11 1 88012
031372734514847195108081700E+99999+999999SAO  +999999999V02022559002650033549N004800599+01785+01615100475ADDAA101000095GA1999+003354074GD14085+9999999GD20995+9999999GD30995+9999999GD40995+9999999GF108085999999999999999999MA1999999097835MW1455EQDN01 07000JPWTH 1QNNE11 1 00610E11 1 00099E11 1 00099E11 1 00099G11 1 00011H11 1 16011K11 1 00061L11 1 00300M11 1 28890N11 1 07000Q11 1 10047S11 1 00064V11 1 01010W11 1 66005
0302703500255011951102408003+57750-152500SAO  +0034ADQ  V02013559014450061049N0112005N1+00395+00395099955ADDGA1081+006104064GD14085+9999999GD20995+9999999GD30995+9999999GD40995+9999999GF108085999999999999999999MA1999999099565MW1615EQDN01 02000JPWTH 1QNNE11 1 00610E11 1 00099E11 1 00099E11 1 00099G11 1 00020H11 1 15020K11 1 00039L11 1 00700M11 1 29400N11 1 02000Q11 1 09995S11 1 00039V11 1 01010W11 1 44028
008472311913886195101132100A+34850-082350SAO  +0319GMU  V0203601N002610090019N0032001N1+00301+00081999999ADDAA101000395GA1051+009009059GA2081+036009049GF108991999999999999999999MW1051MW2611
0088475910999991951060400004+38400+141217SAO  +0003RJST V0209991C000010048019N0032001N1+01741+01741101191ADDGA1021+002409079GA2081+004809079GF108991999999999999999999MA1999999101121MW1451MW2631
0269999999939881951121319005+34167-091933SAO  +0063PBF  V02006859006250213449N019200599+00944+00065101694ADDGD14995+9999999GD20995+9999999GD30995+9999999GD40995+9999999GF108085999999999999999999MA1999999100914EQDN01 00000JPWTH 1QNNE11 1 00699E11 1 00099E11 1 00099E11 1 00099G11 1 00070K11 1 00033L11 1 01200M11 1 29800N11 1 00000Q11 1 10169S11 1 00049V11 1 01010W11 1 32012
0377999999139411951070101005+30217-093150SAO  +000599999V02020359007252200059N019200599+02835+02335101195ADDGA1999+076204004GA2999+999999999GA3999+999999999GA4999+999999999GD19015+9999999GD29005+9999999GD39005+9999999GD49005+9999999GF101005999999999999999999MA1999999101085EQDN01 00000JPWTH 1QNNE11 1 09901E11 1 09900E11 1 09900E11 1 09900G11U1 99999H11 1 32250H11 1 00999H11 1 00999H11 1 00999K11 1 00074L11 1 01200M11 1 29850N11 1 00000Q11 1 10119S11 1 00083V11 1 00100W11 1 56014
038899999914820195106180000E+41400-081850SAO  +024599999V02018059001552200059N011200599+02565+01615101355ADDAA101000095GA1999+012194084GA2999+076204004GA3999+999999999GA4999+999999999GD19005+9999999GD29025+9999999GD39005+9999999GD49005+9999999GF102005999999999999999999MA1999999098485EQDN01 00000JPWTH 1QNNE11 1 09900E11 1 09903E11 1 09900E11 1 09900G11U1 99999H11 1 11040H11 1 32250H11 1 00999H11 1 00999K11 1 00061L11 1 00700M11 1 29080N11 1 00000Q11 1 10135S11 1 00078V11 1 00300W11 1 55003
0269999999129461951061014005+27683-097450SAO  +0014NGW  V02015859010350045749N016000599+02725+02395101485ADDGD19999+9999999GD29999+9999999GD39999+9999999GD49999+9999999GF106065999999999999999999MA1999999101325EQDN01 00000JPWTH 1QNNE11 1 09999E11 1 09999E11 1 09999E11 1 09999G11 1 00015K11 1 00075L11 1 01000M11 1 29920N11 1 00000Q11 1 10148S11 1 00081V11 1 00808W11 1 54020
0107278570999991951021606004+53500+042617FM-12+013399999V0200401N00981220001CN0100001N9-02111-02501102721ADDAY131999GF102991021051012501001001KA1999N+99999MW1381EQDQ01+000042APCTENQ02+000432APC3  Q03 -02002ATMN  
038899999914943195101301200E+42383-096367SAO  +033499999V02011359002152200059N024000599-02505-02785103835ADDAA101000095GA1999+036584034GA2999+999999999GA3999+999999999GA4999+999999999GD19005+9999999GD29005+9999999GD39005+9999999GD49005+9999999GF100995999999999999999999MA1999999099425EQDN01 00000JPWTH 1QNNE11 1 09900E11 1 09900E11 1 09900E11 1 09900G11U1 99999H11 1 23120H11 1 00999H11 1 00999H11 1 00999K11 1-00018L11 1 01500M11 1 29360N11 1 00000Q11 1 10383S11 1-00013V11 1 00099W11 1 34004
0383725287047241951111021003+43100-078950SAO  +0180IAG  V02022559008852200059N0064005N9+00835+00615101815ADDGA1021+054864034GA2011+076204004GA3999+999999999GA4999+999999999GD12025+9999999GD22015+9999999GD30005+9999999GD40005+9999999GF102025999999999999999999MA1999999099595MW1045EQDN01 08000JPWTH 1QNNE11 1 00202E11 1 00201E11 1 00000E11 1 00000G11U1 99999H11 1 23180H11 1 32250H11 1 00999H11 1 00999K11 1 00043L11 1 00400M11 1 29410N11 1 08000Q11 1 10181S11 1 00047V11 1 00303W11 1 66017
0070360460999991951112206004+51967+084950FM-12+026099999V0209991C00001004501CN0010001N9-00501-00611103991ADDAY171999GF108991081001004501021999KA1999N-01221MD1810021+9999MW1731
0377999999139071951021120005+32750-096967SAO  +014999999V02018059012952200059N024000599+02285+01175101565ADDGA1999+007624084GA2999+999999999GA3999+999999999GA4999+999999999GD19005+9999999GD29005+9999999GD39005+9999999GD49005+9999999GF100995999999999999999999MA1999999099805EQDN01 00000JPWTH 1QNNE11 1 09900E11 1 09900E11 1 09900E11 1 09900G11U1 99999H11 1 11025H11 1 00999H11 1 00999H11 1 00999K11 1 00053L11 1 01500M11 1 29470N11 1 00000Q11 1 10156S11 1 00073V11 1 00099W11 1 55025
0302999999931011951090408005+33683-117733SAO  +010899999V02031559001050012249N004800599+01614+01505101124ADDGA1999+001224074GD14085+9999999GD20995+9999999GD30995+9999999GD40995+9999999GF108085999999999999999999MA1999999099864MW1455EQDN01 07000JPWTH 1QNNE11 1 00610E11 1 00099E11 1 00099E11 1 00099G11 1 00004H11 1 16004K11 1 00059L11 1 00300M11 1 29490N11 1 07000Q11 1 10112S11 1 00061V11 1 01010W11 1 88002
0165999999232751951050402005+39133-123200SAO  +0192UKI  V02029359001050106749N040000599+01005+00895100855ADDGF108995999999999999999999MA1999999098615EQDN01 00000JPWTH 1QNNG11 1 00035K11 1 00048L11 1 02500M11 1 29120N11 1 00000Q11 1 10085S11 1 00050V11 1 01099W11 1 78002
0082171240999991951111311004+39783+030567SAO  +0785LTBI V0202701N007212200019N0320001N1+02181+99999090201ADDGA1011+009909059GA2021+027009039GF102991999999999999999999MA1999999092211MW1001
0094688280999991951100806004-33967+022417FM-12+000099999V0203201N000519999999N0400001N9+01391+00941100911ADDAA124000391AY141999GF108991001001999999081071KA1999M+02221KA2999N+00941MD1310061+9999MW1001
0057307390999991951081302004+52167+109767FM-12+067199999V0209991C00001220001CN0200001N9+01721+01221101111ADDAY121999GF106991001001999999001061MD1990021+9999MW1031
0177999999939871951040203005+31233-094750SAO  +0089LFK  V02031559001550140249N019200599+01784+01675101124ADDGF108995999999999999999999MA1999999100004MW1805MW2955EQDN01 01023JPWTH 1QNNG11 1 00046K11 1 00062L11 1 01200M11 1 29530N11 1 01023Q11 1 10112S11 1 00064V11 1 01099W11 1 88003
0082476430999991951102013004+35833+139417SAO  +0090RJTJ V0209991C000010099019N0064001N1+01691+01461101441ADDGA1031+004809079GA2081+009909059GF108991999999999999999999MA1999999100341MW1051
0050722487139351951061920004+31400-092300SAO  +0034ESF  V0201801N007712200019N0240001N1+03411+02351101221ADDGF102991999999999999999999MA1999999100911MW1001
0377999999433131951020318005+35750+139350SAO  +0139RJTY V02027059002652200059N011200599-00505-01225101195ADDGA1999+999999999GA2999+999999999GA3999+999999999GA4999+999999999GD19005+9999999GD29005+9999999GD39005+9999999GD49005+9999999GF100995999999999999999999MA1999999099425EQDN01 00000JPWTH 1QNNE11 1 09900E11 1 09900E11 1 09900E11 1 09900G11U1 99999H11 1 00999H11 1 00999H11 1 00999H11 1 00999K11 1 00010L11 1 00700M11 1 29360N11 1 00000Q11 1 10119S11 1 00023V11 1 00099W11 1 77005
0377999999231691951101720005+36083-115167SAO  +065999999V02099999000052200059N056000599+02615-00395101355ADDGA1999+085344024GA2999+999999999GA3999+999999999GA4999+999999999GD13065+9999993GD20005+9999999GD30005+9999999GD40005+9999999GF106015999999999999999999MA1999999093845EQDN01 00000JPWTH 1QNNE11 1 00308E11 1 00000E11 1 00000E11 1 00000G11U1 99999H11 1 37280H11 1 00999H11 1 00999H11 1 00999K11 1 00025L11 1 03500M11 1 27710N11 1 00000Q11 1 10135S11 1 00079V11 1 00801W11 1 00000
0165999999147631951032122005+42433-073283SAO  +035399999V02022559004650121949N024000599+00505-00395100815ADDGF108995999999999999999999MA1999999096515EQDN01 00000JPWTH 1QNNG11 1 00040K11 1 00025L11 1 01500M11 1 28500N11 1 00000Q11 1 10081S11 1 00041V11 1 01099W11 1 66009
0056166690999991951092706004+38833+020717FM-12+000699999V0200901N00101220001CN0160001N9+02111+01891999999ADDAY111999GF102991021091012501001001KA1999N+01891MW1011
0377999999242441951011603005+47683-122267SAO  +001599999V02020359006250048849N012800599+00285+00175100435ADDGA1999+004884064GA2999+999999999GA3999+999999999GA4999+999999999GD19065+9999999GD29005+9999999GD39005+9999999GD49005+9999999GF106995999999999999999999MA1999999100245EQDN01 00000JPWTH 1QNNE11 1 09908E11 1 09900E11 1 09900E11 1 09900G11 1 00016H11 1 15016H11 1 00999H11 1 00999H11 1 00999K11 1 00035L11 1 00800M11 1 29600N11 1 00000Q11 1 10043S11 1 00037V11 1 00899W11 1 56012
0066176170999991951070409004+35667+034567FM-12+000699999V0201801N00721015001CN0700001N9+02781+99999100261ADDAJ100009199999999AY111999GF105991051081012501001001IA1009MW1001
0165999999241191951020905005+40650-116933SAO  +137699999V02009059005250289649N064000599+00335+00115102785ADDGF105995999999999999999999MA1999999087005EQDN01 00000JPWTH 1QNNG11 1 00095K11 1 00034L11 1 04000M11 1 25690N11 1 00000Q11 1 10278S11 1 00038V11 1 00699W11 1 33010
0066718560999991951101706004+50633-097050SAO  +0221CYGM V0203151N004610270019N0240001N1-00371-00531103451ADDGA1081+027009039GF108991999999999999999999MA1999999100641MW1001
0389724280148211951080919003+39983-082867SAO  +0254CMH  V02015859003652200059N0048005N1+02785+02065101195ADDGA1021+010674084GA2081+076204024GA3999+999999999GA4999+999999999GD12035+9999999GD24085+9999993GD30005+9999999GD40005+9999999GF108035999999999999999999MA1999999098275MW1045MW2051EQDN01 08200JPWTH 1QNNE11 1 00204E11 1 00510E11 1 00000E11 1 00000G11U1 99999H11 1 11035H11 1 37250H11 1 00999H11 1 00999K11 1 00069L11 1 00300M11 1 29020N11 1 08200Q11 1 10119S11 1 00082V11 1 01004W11 1 54007
0066172000999991951032914004+38433+038083SAO  +0849LTAT V0201581N001510060019N0144001N1+00961+99999090181ADDGA1081+006009079GF108991999999999999999999MA1999999090351MW1001
017699999993820195103030900E+38033-084600SAO  +029999999V02015859008852200059N019200599+01564+01005100954ADDAA101000095GF104995999999999999999999MA1999999097394EQDN01 00000JPWTH 1QNNG11U1 99999K11 1 00050L11 1 01200M11 1 28760N11 1 00000Q11 1 10095S11 1 00060V11 1 00599W11 1 54017
019272363023047195111270900C+35233-101700SAO  +1100AMA  V02022559005752200059N0240005N1+00005-00285102115ADDAA101000095GA1001+999999999GF100005999999999999999999MA1999999089575EQDN01 00000JPWTH 1QNNG11U1 99999K11 1 00027L11 1 01500M11 1 26450N11 1 00000Q11 1 10211S11 1 00032V11 1 00000W11 1 66011
018299999913965195101131600E+34300-097150SAO  +026499999V02004559003650009149N009600599+01065+01065101355ADDAA101000095GF108995999999999999999999MA1999999098245MW1455EQDN01 07000JPWTH 1QNNG11 1 00003K11 1 00051L11 1 00600M11 1 29010N11 1 07000Q11 1 10135S11 1 00051V11 1 01099W11 1 22007
0329999999116371951102123005+17967-066400SAO  +000999999V02006859001550609649N019200599+02725+02285101355ADDGA1999+007624084GA2999+060964024GD12045+9999999GD24045+9999999GD30995+9999999GD40995+9999999GF108065999999999999999999MA1999999101225MW1615EQDN01 02000JPWTH 1QNNE11 1 00205E11 1 00605E11 1 00099E11 1 00099G11 1 00200H11 1 11025H11 1 37200K11 1 00073L11 1 01200M11 1 29890N11 1 02000Q11 1 10135S11 1 00081V11 1 01008W11 1 32003
0059450090999991951040102004+22183-114283FM-12+005699999V0200201N004619999999N0002001N9+99999+99999999999ADDAY141999GA1001+999999999GF109991999999999999999999MW1451
038899999914758195101011500E+41267-072883SAO  +000299999V02002359003152200059N024000599-00115-00835102885ADDAA101000095GA1999+067064004GA2999+076204004GA3999+999999999GA4999+999999999GD19005+9999999GD29045+9999999GD39005+9999999GD49005+9999999GF104995999999999999999999MA1999999102845EQDN01 00000JPWTH 1QNNE11 1 09900E11 1 09905E11 1 09900E11 1 09900G11U1 99999H11 1 32220H11 1 32250H11 1 00999H11 1 00999K11 1 00017L11 1 01500M11 1 30370N11 1 00000Q11 1 10288S11 1 00030V11 1 00599W11 1 12006
028099999914859195107051000E+46617-085917SAO  +025599999V02099999000052200059N024000599+00785+00565101865ADDAA101000095GD10995+9999999GD20995+9999999GD30995+9999999GD40995+9999999GF100005999999999999999999MA1999999098715EQDN01 00000JPWTH 1QNNE11 1 00099E11 1 00099E11 1 00099E11 1 00099G11U1 99999K11 1 00042L11 1 01500M11 1 29150N11 1 00000Q11 1 10186S11 1 00046V11 1 00000W11 1 00000
017699999914895195105301700E+40917-081433SAO  +037099999V02031559003650128049N011200599+02225+01225101805ADDAA101000095GF105995999999999999999999MA1999999097365EQDN01 00000JPWTH 1QNNG11 1 00042K11 1 00054L11 1 00700M11 1 28750N11 1 00000Q11 1 10180S11 1 00072V11 1 00699W11 1 88007
0066702650999991951022113004+64650-147067SAO  +0164PAEI V0209991C000010120019N0241401N9-01501-01661101061ADDGA1081+012009079GF108991999999999999999999MA1999999098921MW1001
0057341160999991951040509004+51300+037883FM-12+014599999V0201101N00511220001CN0100001N9+01501+00501101801ADDAY121999GF107991001001999999031061MD1810141+9999MW1031
0269999999241261951110501005+41200-112017SAO  +135499999V02031559007752200059N048000599+00835-00835101735ADDGD10995+9999999GD20995+9999999GD30995+9999999GD40995+9999999GF100005999999999999999999MA1999999086525EQDN01 00000JPWTH 1QNNE11 1 00099E11 1 00099E11 1 00099E11 1 00099G11U1 99999K11 1 00017L11 1 03000M11 1 25550N11 1 00000Q11 1 10173S11 1 00047V11 1 00000W11 1 88015
028672595524259195106152000C+41783-122467SAO  +0805SIY  V02006859003652200059N0800005N1+03395+00945101225ADDAA101000095GD19999+9999999GD29999+9999999GD39999+9999999GD49999+9999999GF100005999999999999999999MA1999999092215MW1001EQDN01 00000JPWTH 1QNNE11 1 09999E11 1 09999E11 1 09999E11 1 09999G11U1 99999K11 1 00049L11 1 05000M11 1 27230N11 1 00000Q11 1 10122S11 1 00093V11 1 00000W11 1 32007
0165999999128381951122604005+28083-080600SAO  +000999999V02099999000052200059N014400599+02005+02005102305ADDGF100005999999999999999999MA1999999102205EQDN01 00000JPWTH 1QNNG11U1 99999K11 1 00068L11 1 00900M11 1 30180N11 1 00000Q11 1 10230S11 1 00068V11 1 00000W11 1 00000
0319999999147101951112414005+42933-071433SAO  +0071MHT  V02099999000050076249N024000599+00675+00565999999ADDGA1999+004574064GA2999+007624064GA3999+012194064GD12015+9999999GD23065+9999999GD34025+9999999GD40995+9999999GF108085999999999999999999MW1615EQDN01 02000JPWTH 1QNNE11 1 00201E11 1 00407E11 1 00602E11 1 00099G11 1 00025H11 1 15015H11 1 15025H11 1 15040K11 1 00042L11 1 01500N11 1 02000S11 1 00044V11 1 01010W11 1 00000
0082475800999991951073119004+40700+141367SAO  +0037RJSM V0200901N002610006019N0112001N9+01851+01851101491ADDGA1051+000609079GA2081+002709079GF108991999999999999999999MA1999999101021MW1001
0043406650999991951070712004+32167+046033FM-12+001599999V0202901N00411220001CN0200001N9+03831+99999100271ADDAY101999GF100991001001999999001001MW1001
0171702710264251951042522003+62150-145450SAO  +0481GKN  V02013559008250213449N1120005N1+00725-00225099095ADDGF108995999999999999999999MA1999999093405MW1001EQDN01 00000JPWTH 1QNNG11 1 00070K11 1 00028L11 1 07000M11 1 27580N11 1 00000Q11 1 09909S11 1 00045V11 1 01099W11 1 44016
0084450070999991951070622004+22333+114200FM-12+000499999V0202201N003619999999N0120001N9+99999+99999999999ADDAY121999GA1999+005109059GA2081+999999999MW1021EQDQ01+000072SCOTCVQ02    003SCCGA1
028099999923182195107100300E+34633-118083SAO  +0770PMD  V02022559007252200059N024000599+02725-00065100445ADDAA101000095GD10995+9999999GD20995+9999999GD30995+9999999GD40995+9999999GF100005999999999999999999MA1999999091975EQDN01 00000JPWTH 1QNNE11 1 00099E11 1 00099E11 1 00099E11 1 00099G11U1 99999K11 1 00031L11 1 01500M11 1 27160N11 1 00000Q11 1 10044S11 1 00081V11 1 00000W11 1 66014
0060912750216031951082618004+16733-169517SAO  +0002PJON V0200901N005112200019N0192001N9+02801+02411101421ADDGA1021+006009089GF102991999999999999999999MA1999999101351
0066718070999991951121706004+47300-054000SAO  +0016CYAR V0202481N020610045019N0096001N1-00481-00591100201ADDGA1061+004509059GF107991999999999999999999MA1999999100001MW1381
018299999913740195105031300E+37500-077333SAO  +005599999V02031559002150365849N011200599+02065+01225100885ADDAA101000095GF108995999999999999999999MA1999999100305MW1805EQDN01 02300JPWTH 1QNNG11 1 00120K11 1 00054L11 1 00700M11 1 29620N11 1 02300Q11 1 10088S11 1 00069V11 1 01099W11 1 88004
0066719130999991951021005004+58750-094067SAO  +0029CYYQ V0201351N001510300019N0240001N1-03201-03201101341ADDGA1081+999999049GF108991999999999999999999MA1999999100851MW1001
0269999999939931951121612005+36000-094167SAO  +038399999V02099999000050609649N024000599-01114-01505103424ADDGD13995+9999999GD20995+9999999GD30995+9999999GD40995+9999999GF106045999999999999999999MA1999999098584EQDN01 00000JPWTH 1QNNE11 1 00499E11 1 00099E11 1 00099E11 1 00099G11 1 00200K11 1 00005L11 1 01500M11 1 29110N11 1 00000Q11 1 10342S11 1 00012V11 1 00805W11 1 00000
017699999993817195106011600E+38050-087533SAO  +0116EVV  V02022559005252200059N016000599+03284+01785101804ADDAA101000095GF100005999999999999999999MA1999999100414EQDN01 00000JPWTH 1QNNG11U1 99999K11 1 00064L11 1 01000M11 1 29650N11 1 00000Q11 1 10180S11 1 00091V11 1 00000W11 1 66010
0323999999931061951060816005+33800-118117SAO  +000999999V02022559003150064049N016000599+01784+01225101624ADDGA1999+006404064GA2999+012194064GD19055+9999999GD29075+9999999GD39999+9999999GD49999+9999999GF108085999999999999999999MA1999999101524EQDN01 00000JPWTH 1QNNE11 1 09906E11 1 09909E11 1 09999E11 1 09999G11 1 00021H11 1 15021H11 1 15040K11 1 00054L11 1 01000M11 1 29980N11 1 00000Q11 1 10162S11 1 00064V11 1 01010W11 1 66006
0269999999137461951071223005+35967-077800SAO  +0026RMT  V02018059004152200059N016000599+03225+01835101465ADDGD11995+9999993GD20995+9999999GD30995+9999999GD40995+9999999GF103015999999999999999999MA1999999101025EQDN01 00000JPWTH 1QNNE11 1 00199E11 1 00099E11 1 00099E11 1 00099G11U1 99999K11 1 00065L11 1 01000M11 1 29830N11 1 00000Q11 1 10146S11 1 00090V11 1 00401W11 1 55008
0165999999147471951051106005+42500-079283SAO  +020699999V02036059004650103649N012800599+00785+00615101055ADDGF108995999999999999999999MA1999999098585EQDN01 00000JPWTH 1QNNG11 1 00034K11 1 00043L11 1 00800M11 1 29110N11 1 00000Q11 1 10105S11 1 00046V11 1 01099W11 1 11009
0165999999938051951100602005+30433-084333SAO  +002199999V02099999000052200059N024000599+02334+02175101594ADDGF100005999999999999999999MA1999999101354EQDN01 00000JPWTH 1QNNG11U1 99999K11 1 00071L11 1 01500M11 1 29930N11 1 00000Q11 1 10159S11 1 00074V11 1 00000W11 1 00000
0050719160999991951011912004+63333-090717SAO  +0006CYCS V0203151N006212200019N0160001N1-03591-03591101261ADDGF100991999999999999999999MA1999999101251MW1001
0066718410999991951011423004+50283-088900SAO  +0325CYYW V0202701N001010045019N0096001N1-00531-00651100491ADDGA1081+999999079GF108991999999999999999999MA1999999096411MW1711
0066740030999991951062210004+40200-112933SAO  +1326DPG  V0200701N001512200019N0800001N9+01131+00801100821ADDGA1021+033009039GF102991999999999999999999MA1999999086321MW1001
0177999999939881951013115005+34167-091933SAO  +0063PBF  V02002359004650012249N000800599-00784-00895102104ADDGF108995999999999999999999MA1999999101294MW1455MW2795EQDN01 06070JPWTH 1QNNG11 1 00004K11 1 00016L11 1 00050M11 1 29910N11 1 06070Q11 1 10210S11 1 00018V11 1 01099W11 1 12009
0089106850999991951100100004+50317+011883FM-12+056899999V0200701N00411003001CN0060001N9+01001+00891101941ADDAY121061GA1081+003009079GA2081+003009079GF108991081061004501999999MD1710051+9999MW1101
017699999924091195104182000E+40517-101617SAO  +0998IML  V02006859002652200059N024000599+01565-00115100925ADDAA101000095GF100995999999999999999999MA1999999089645EQDN01 00000JPWTH 1QNNG11U1 99999K11 1 00030L11 1 01500M11 1 26470N11 1 00000Q11 1 10092S11 1 00060V11 1 00099W11 1 32005
0050749163999991951042917004+31933-108983SAO  +125599999V0202251N016510150019N0160001N1+01851+00241099901ADDGF108991999999999999999999MA1999999086251MW1001
030799999914936195112300200E+44383-098217SAO  +039599999V02009059002650365849N032000599-00675-00785100515ADDAA101000095GA1999+036584044GD14085+9999999GD20995+9999999GD30995+9999999GD40995+9999999GF108085999999999999999999MA1999999095705EQDN01 00000JPWTH 1QNNE11 1 00610E11 1 00099E11 1 00099E11 1 00099G11 1 00120H11 1 21120K11 1 00018L11 1 02000M11 1 28260N11 1 00000Q11 1 10051S11 1 00020V11 1 01010W11 1 33005
0302999999149271951032312005+44933-093067SAO  +022099999V02004559004150036649N004000599-00505-00895101025ADDGA1999+003664104GD19085+9999999GD29999+9999999GD39999+9999999GD49999+9999999GF108995999999999999999999MA1999999098315MW1715EQDN01 04000JPWTH 1QNNE11 1 09910E11 1 09999E11 1 09999E11 1 09999G11 1 00012H11 1 98012K11 1 00016L11 1 00250M11 1 29030N11 1 04000Q11 1 10102S11 1 00023V11 1 01099W11 1 22008
0057298430999991951010800004+53767+087233FM-12+021599999V0200401N00311220001CN0040001N9-03391-03611999999ADDAY101999GF100991001001999999001001MD1810091+9999MW1001
038872263023034195108142300E+99999+999999SAO  +999999999V02013559005252200059N056000599+03675+01115101255ADDAA101000095GA1999+021345085GA2999+999999999GA3999+999999999GA4999+999999999GD12015+9999999GD20005+9999999GD30005+9999999GD40005+9999999GF101015999999999999999999MA1999999094755EQDN01 00000JPWTH 1QNNE11 1 00201E11 1 00000E11 1 00000E11 1 00000G11U1 99999H11 1 11070H11 1 00999H11 1 00999H11 1 00999K11 1 00052L11 1 03500M11 1 27980N11 1 00000Q11 1 10125S11 1 00098V11 1 00101W11 1 44010
0383722970231291951031507003+33817-118150SAO  +0013LGB  V02099999000052200059N0240005N1+01445+00565101395ADDGA1999+999999999GA2999+999999999GA3999+999999999GA4999+999999999GD19005+9999999GD29005+9999999GD39005+9999999GD49005+9999999GF100995999999999999999999MA1999999101255MW1001EQDN01 00000JPWTH 1QNNE11 1 09900E11 1 09900E11 1 09900E11 1 09900G11U1 99999H11 1 00999H11 1 00999H11 1 00999H11 1 00999K11 1 00042L11 1 01500M11 1 29900N11 1 00000Q11 1 10139S11 1 00058V11 1 00099W11 1 00000
0275999999146221951081514005+44950-068667SAO  +0041OLD  V02022559002650021349N006400599+01945+01725101525ADDGD14995+9999999GD20995+9999999GD30995+9999999GD40995+9999999GF108085999999999999999999MA1999999101055MW1455EQDN01 07000JPWTH 1QNNE11 1 00699E11 1 00099E11 1 00099E11 1 00099G11 1 00007K11 1 00063L11 1 00400M11 1 29840N11 1 07000Q11 1 10152S11 1 00067V11 1 01010W11 1 66005
0083486250999991951020500004+04567+101100FM-12+003999999V0203601N00261220001CN0160001N9+02281+02221100931ADDAA124005091AY121999GA1031+009009059GF107991031051008001041999KA1999N+02281MW1021
039499999923187195110120800E+34750-118733SAO  +1379SDB  V02031559013452200059N024000599+00895+00565101495ADDAA101000095GA1999+003664064GA2999+999999999GA3999+999999999GA4999+999999999GD12025+9999999GD20005+9999999GD30005+9999999GD40005+9999999GF102025999999999999999999MA1999999086295MW1185EQDN01 01400JPWTH 1QNNE11 1 00203E11 1 00000E11 1 00000E11 1 00000G11U1 99999H11 1 15012H11 1 00999H11 1 00999H11 1 00999K11 1 00042L11 1 01500M11 1 25480N11 1 01400Q11 1 10149S11 1 00048V11 1 00303W11 1 88026
0082704140999991951082222004+52717+174100SAO  +0032PASY V0201101N004110030019N0320001N9+01131+00911101521ADDGA1051+003009059GA2021+021009059GF107991999999999999999999MA1999999101151MW1001
0070222350999991951060706004+67367+037033FM-12+016099999V0200901N00211220001CN0200001N9+00721-00721101291ADDAY101999GF101991011011004501001001KA1999N+00001MD1810071+9999MW1021
0044065970999991951021612004+49817+006417FM-12+016499999V0201801N00101220001CN9999999N9+00781+99999999999ADDGF100991999999999999999999MA1999999099361
0066722225038551951051500004+30350-087317SAO  +0009NPA  V0201351N002112200019N0240001N1+02461+01741102511ADDGA1021+015009039GF102991999999999999999999MA1999999102301MW1001
0269999999242411951102021005+99999+999999SAO  +999999999V02024859004150137249N016000599+01065+00835101495ADDGD12995+9999999GD23995+9999999GD34995+9999999GD40995+9999999GF108085999999999999999999MA1999999100105EQDN01 00000JPWTH 1QNNE11 1 00299E11 1 00499E11 1 00699E11 1 00099G11 1 00045K11 1 00047L11 1 01000M11 1 29560N11 1 00000Q11 1 10149S11 1 00051V11 1 01010W11 1 76008
0050740030999991951071301004+40200-112933SAO  +1326DPG  V0202701N003612200019N0800001N9+03071+00461101191ADDGF100991999999999999999999MA1999999086731MW1001
0187722670230421951100415003+33650-101833SAO  +0990LBB  V02033859003652200059N0240005N1+02065+00565100685ADDGA1001+999999999GF100005999999999999999999MA1999999089845MW1001EQDN01 00000JPWTH 1QNNG11U1 99999K11 1 00042L11 1 01500M11 1 26530N11 1 00000Q11 1 10068S11 1 00069V11 1 00000W11 1 18007
028099999914910195110250200E+45867-095383SAO  +0435AXN  V02013559005250457249N024000599+00785+00565101425ADDAA101000095GD12995+9999999GD23995+9999999GD30995+9999999GD40995+9999999GF106065999999999999999999MA1999999096175EQDN01 00000JPWTH 1QNNE11 1 00299E11 1 00499E11 1 00099E11 1 00099G11 1 00150K11 1 00042L11 1 01500M11 1 28400N11 1 00000Q11 1 10142S11 1 00046V11 1 00808W11 1 44010
0165999999938041951021423005+34917-081950SAO  +024899999V02013559001552200059N032000599+01944+00615102814ADDGF100995999999999999999999MA1999999099734EQDN01 00000JPWTH 1QNNG11U1 99999K11 1 00043L11 1 02000M11 1 29450N11 1 00000Q11 1 10281S11 1 00067V11 1 00099W11 1 44003
0377999999231841951061623005+34650-112433SAO  +153099999V02027059006252200059N104000599+03175+00005100645ADDGA1999+024384084GA2999+999999999GA3999+999999999GA4999+999999999GD19015+9999999GD29005+9999999GD39005+9999999GD49005+9999999GF101015999999999999999999MA1999999084425EQDN01 00000JPWTH 1QNNE11 1 09901E11 1 09900E11 1 09900E11 1 09900G11U1 99999H11 1 11080H11 1 00999H11 1 00999H11 1 00999K11 1 00032L11 1 06500M11 1 24930N11 1 00000Q11 1 10064S11 1 00089V11 1 00101W11 1 77012
0302999999147081951081205005+40733-073600SAO  +003099999V02022559002650006149N006400599+02395+02225101765ADDGA1999+000614074GD14085+9999999GD20995+9999999GD30995+9999999GD40995+9999999GF108085999999999999999999MA1999999101425MW1045EQDN01 08200JPWTH 1QNNE11 1 00610E11 1 00099E11 1 00099E11 1 00099G11 1 00002H11 1 16002K11 1 00072L11 1 00400M11 1 29950N11 1 08200Q11 1 10176S11 1 00075V11 1 01010W11 1 66005
0066723535999991951090600004+36333-097917SAO  +0390END  V0200901N004112200019N0240001N9+02681+01851101291ADDGA1031+018009039GF102991999999999999999999MA1999999096781MW1001
0335747900138491951110621003+33967-080483SAO  +0076SSC  V02006859005250079249N0032005N9+01335+01175102035ADDGA1061+007924064GA2021+024384044GD13065+9999999GD24025+9999999GD30995+9999999GD40995+9999999GF108085999999999999999999MA1999999101085MW1455MW2805EQDN01 02370JPWTH 1QNNE11 1 00408E11 1 00602E11 1 00099E11 1 00099G11 1 00026H11 1 15026H11 1 21080K11 1 00053L11 1 00200M11 1 29850N11 1 02370Q11 1 10203S11 1 00056V11 1 01010W11 1 32010
0377722265138211951041219003+32383-086350SAO  +0053MXF  V02024859007752200059N0240005N9+01505+00505101055ADDGA1021+015244084GA2999+999999999GA3999+999999999GA4999+999999999GD19025+9999999GD29005+9999999GD39005+9999999GD49005+9999999GF102995999999999999999999MA1999999100415EQDN01 00000JPWTH 1QNNE11 1 09903E11 1 09900E11 1 09900E11 1 09900G11U1 99999H11 1 11050H11 1 00999H11 1 00999H11 1 00999K11 1 00041L11 1 01500M11 1 29650N11 1 00000Q11 1 10105S11 1 00059V11 1 00399W11 1 76015
031372745014913195101260600C+46833-092183SAO  +0434DLH  V02033859006750085349N0240005N9-01835-02335102375ADDAA101000095GA1081+008534064GD19085+9999999GD29999+9999999GD39999+9999999GD49999+9999999GF108995999999999999999999MA1999999096855MW1715EQDN01 04000JPWTH 1QNNE11 1 09910E11 1 09999E11 1 09999E11 1 09999G11 1 00028H11 1 15028K11 1-00010L11 1 01500M11 1 28600N11 1 04000Q11 1 10237S11 1-00001V11 1 01099W11 1 18013
0081224220999991951081618004+65900+034767FM-12+001099999V0209999900101220001CN0200001N9+01501+01221101101ADDAA199004091AY111999GF102991001001999999041021KA1999M+01721MD1310091+9999MW1021
0377999999147561951111306005+41250-070067SAO  +0015ACK  V02013559004652200059N024000599+00335+00175102715ADDGA1999+009144064GA2999+999999999GA3999+999999999GA4999+999999999GD12035+9999999GD20005+9999999GD30005+9999999GD40005+9999999GF103035999999999999999999MA1999999102685EQDN01 00000JPWTH 1QNNE11 1 00204E11 1 00000E11 1 00000E11 1 00000G11U1 99999H11 1 15030H11 1 00999H11 1 00999H11 1 00999K11 1 00035L11 1 01500M11 1 30320N11 1 00000Q11 1 10271S11 1 00038V11 1 00404W11 1 44009
0067037720999991951042815004+51483-000450SAO  +0024EGLL V0203381N006210210019N0160001N1+00801-00261101981ADDGA1031+006909999GA2071+021009999GF107991999999999999999999MW1001
0082912500999991951071416004+11350+162350SAO  +0005PKMA V0200681N006712200019N0192001N1+02741+02461101191ADDGA1021+006009089GA2061+075009029GF107991999999999999999999MA1999999101081MW1001
0075999999947321951020608005+40083-075017SAO  +0030PNE  V02029359001552200049N009600599+99999+99999999999ADDMW1044EQDN01 08000JPWTH 1QNNG11U1 99999L11 1 00600N11 1 08000W11 1 78003
0059782240999991951040221004+22983-082400FM-12+007599999V0201801N00511220001CN0160001N9+03001+02221101321ADDAY141999GA1031+010509089GF103991031021012501999999MW1051
039472261022010195107250600C+29367-100817SAO  +0334DRT  V02013559005252200059N0240005N1+03115+01725101305ADDAA101000095GA1999+012194094GA2999+091444004GA3999+999999999GA4999+999999999GD10005+9999999GD20005+9999999GD30005+9999999GD40005+9999999GF100005999999999999999999MA1999999097535MW1001EQDN01 00000JPWTH 1QNNE11 1 00000E11 1 00000E11 1 00000E11 1 00000G11U1 99999H11 1 18040H11 1 32300H11 1 00999H11 1 00999K11 1 00063L11 1 01500M11 1 28800N11 1 00000Q11 1 10130S11 1 00088V11 1 00000W11 1 44010
0350999999242161951052700005+40150-122250SAO  +0104RBL  V02013559003651066849N136000599+03725+01225100475ADDGA1999+024384084GA2999+042674034GA3999+106684024GD19005+9999999GD29015+9999999GD39085+9999999GD49999+9999999GF108995999999999999999999MA1999999099265EQDN01 00000JPWTH 1QNNE11 1 09900E11 1 09901E11 1 09910E11 1 09999G11 1 00350H11 1 11080H11 1 23140H11 1 37350K11 1 00054L11 1 08500M11 1 29310N11 1 00000Q11 1 10047S11 1 00099V11 1 01099W11 1 44007
0077063500999991951082509004+51567+004933FM-12+001299999V0202601N00511004501CN0100001N9+01721+01281999999ADDAY121999GF107991999081004501001001MA1999999101401MW1051EQDQ01+000052SCOTLC
009372303013714195104271900D+35183-079017SAO  +0064POB  V0200501N003612200019N0160001N9+02631+01631102541ADDAA101000095GA1031+010509089GA2011+075009019GF102991999999999999999999MA1999999101731MW1001
0057603570999991951061712004+36967+007800FM-12+015699999V0200901N00411220001CN0160001N9+02391+01611101431ADDAY101999GF101991001001999999001021MD1810111+9999MW1021
0377999999139981951082320005+37633-097267SAO  +043299999V02018059006250033549N016000599+02335+02065101905ADDGA1999+003354064GA2999+076204024GA3999+999999999GA4999+999999999GD13055+9999999GD23025+9999999GD30005+9999999GD40005+9999999GF107075999999999999999999MA1999999096995EQDN01 00000JPWTH 1QNNE11 1 00406E11 1 00403E11 1 00000E11 1 00000G11 1 00011H11 1 15011H11 1 37250H11 1 00999H11 1 00999K11 1 00069L11 1 01000M11 1 28640N11 1 00000Q11 1 10190S11 1 00074V11 1 00909W11 1 55012
0066723865231121951053106004+36250-115033SAO  +0569LSV  V0202001N006712200019N0560001N9+02571+00021100031ADDGA1001+999999999GF100991999999999999999999MA1999999093631MW1001
0066749058999991951062709004+29350-098450SAO  +0182XS88 V0201581N003612200019N0080001N1+02351+02181101191ADDGA1051+004509059GF107991999999999999999999MA1999999099121MW1051
0066478080999991951061020004+33583+130450SAO  +0012RJFF V0201801N001512200019N0096001N1+01351+01071101021ADDGA1041+060009029GF102991999999999999999999MA1999999100911MW1051
017699999924028195105261700E+41867-103600SAO  +1206BFF  V02031559001052200059N040000599+01835-00065101595ADDAA101000095GF103995999999999999999999MA1999999088115EQDN01 00000JPWTH 1QNNG11U1 99999K11 1 00031L11 1 02500M11 1 26020N11 1 00000Q11 1 10159S11 1 00065V11 1 00499W11 1 88002
034072466093037195102191800C+38817-104700SAO  +2804COS  V02033859011350106749N0096005N9+00175-00335101425ADDAA101000095GA1051+010674064GA2081+030484044GD19055+9999999GD29085+9999999GD39999+9999999GD49999+9999999GF108995999999999999999999MA1999999080605MW1715EQDN01 04000JPWTH 1QNNE11 1 09906E11 1 09910E11 1 09999E11 1 09999G11 1 00035H11 1 15035H11 1 21100K11 1 00026L11 1 00600M11 1 23800N11 1 04000Q11 1 10142S11 1 00035V11 1 01099W11 1 18022
006172250012919195106070800D+25900-097433SAO  +0006BRO  V0201351N005712200019N0192001N1+02521+02301101021ADDAA101000095GF100991999999999999999999MA1999999100951MW1001
0377999999242161951061017005+40150-122250SAO  +0104RBL  V02002359001552200059N136000599+02785+00615101595ADDGA1999+024384084GA2999+999999999GA3999+999999999GA4999+999999999GD19005+9999999GD29005+9999999GD39005+9999999GD49005+9999999GF100005999999999999999999MA1999999100345EQDN01 00000JPWTH 1QNNE11 1 09900E11 1 09900E11 1 09900E11 1 09900G11U1 99999H11 1 11080H11 1 00999H11 1 00999H11 1 00999K11 1 00043L11 1 08500M11 1 29630N11 1 00000Q11 1 10159S11 1 00082V11 1 00000W11 1 12003
018272341813977195110192300C+33450-094000SAO  +0112TXK  V02031559001052200059N0160005N1+01835+01175102175ADDAA101000095GF100005999999999999999999MA1999999100855MW1001EQDN01 00000JPWTH 1QNNG11U1 99999K11 1 00053L11 1 01000M11 1 29780N11 1 00000Q11 1 10217S11 1 00065V11 1 00000W11 1 88002
0066747750138461951081109004+30067-085583SAO  +0008PAM  V0209991C000012200019N0128001N9+02461+02351101491ADDGA1001+999999999GF100991999999999999999999MA1999999101421MW1001
0383999999457081951092414005+52717+174100SAO  +004099999V02004559007750091449N011200599+00835+00725101355ADDGA1999+003354134GA2999+009144064GA3999+999999999GA4999+999999999GD12025+9999999GD23035+9999999GD30005+9999999GD40005+9999999GF106065999999999999999999MA1999999100985MW1515EQDN01 03300JPWTH 1QNNE11 1 00203E11 1 00404E11 1 00000E11 1 00000G11 1 00030H11 1 13011H11 1 15030H11 1 00999H11 1 00999K11 1 00045L11 1 00700M11 1 29820N11 1 03300Q11 1 10135S11 1 00047V11 1 00707W11 1 22015
028099999913965195110170200E+34300-097150SAO  +026499999V02009059003652200059N024000599+01785+01225101595ADDAA101000095GD11995+9999993GD20995+9999999GD30995+9999999GD40995+9999999GF102005999999999999999999MA1999999098515EQDN01 00000JPWTH 1QNNE11 1 00199E11 1 00099E11 1 00099E11 1 00099G11U1 99999K11 1 00054L11 1 01500M11 1 29090N11 1 00000Q11 1 10159S11 1 00064V11 1 00200W11 1 33007
0076294640999991951110600004+56650+090550FM-12+019699999V0202201N00411012301CN9999999N9-00111-00281101672ADDAY121999GF108991081051012501999999MD1810011+9999MW1021EQDQ01+101673APOSLP
0094450070999991951012217004+22333+114200FM-12+000499999V0209991C000019999999N0120001N9+99999+99999999999ADDAY121999GA1999+006009089GA2061+999999999GF108991999999999999999999MW1021EQDQ01    003SCCGA1
038899999913876195107201800E+33567-086750SAO  +019299999V02004559001052200059N014400599+03335+02175101635ADDAA101000095GA1999+015244084GA2999+999999999GA3999+999999999GA4999+999999999GD12035+9999999GD20005+9999999GD30005+9999999GD40005+9999999GF103035999999999999999999MA1999999099425EQDN01 00000JPWTH 1QNNE11 1 00204E11 1 00000E11 1 00000E11 1 00000G11U1 99999H11 1 11050H11 1 00999H11 1 00999H11 1 00999K11 1 00071L11 1 00900M11 1 29360N11 1 00000Q11 1 10163S11 1 00092V11 1 00404W11 1 22002
0269999999147471951080521005+42500-079283SAO  +020699999V02033859004652200059N019200599+02115+00945102305ADDGD12995+9999999GD20995+9999999GD30995+9999999GD40995+9999999GF101015999999999999999999MA1999999099835EQDN01 00000JPWTH 1QNNE11 1 00299E11 1 00099E11 1 00099E11 1 00099G11U1 99999K11 1 00049L11 1 01200M11 1 29480N11 1 00000Q11 1 10230S11 1 00070V11 1 00101W11 1 18009
0269999999230591951102908005+31750-105083SAO  +113399999V02027059001552200059N048000599+00945+00725101465ADDGD14995+9999993GD20995+9999999GD30995+9999999GD40995+9999999GF108005999999999999999999MA1999999088865EQDN01 00000JPWTH 1QNNE11 1 00599E11 1 00099E11 1 00099E11 1 00099G11U1 99999K11 1 00045L11 1 03000M11 1 26240N11 1 00000Q11 1 10146S11 1 00049V11 1 01000W11 1 77003
031372225593842195112141700C+32517-084933SAO  +0123CSG  V02018059006250051849N0160005N1+01725+01285101595ADDAA101000095GA1081+005184064GD14085+9999999GD20995+9999999GD30995+9999999GD40995+9999999GF108085999999999999999999MA1999999100175MW1001EQDN01 00000JPWTH 1QNNE11 1 00610E11 1 00099E11 1 00099E11 1 00099G11 1 00017H11 1 15017K11 1 00055L11 1 01000M11 1 29580N11 1 00000Q11 1 10159S11 1 00063V11 1 01010W11 1 55012
0062612500999991951082512004+15867+002217FM-12+027899999V0202701N002119999999N0200001N9+03611+02281101061ADDAY121999GF106991999001999999071001MW1021EQDQ01+000002SCOTLC
038899999913881195110090700E+35217-080933SAO  +023499999V02004559005250762049N024000599+01005+00285101905ADDAA101000095GA1999+076204024GA2999+999999999GA3999+999999999GA4999+999999999GD13065+9999999GD20005+9999999GD30005+9999999GD40005+9999999GF106055999999999999999999MA1999999099125EQDN01 00000JPWTH 1QNNE11 1 00408E11 1 00000E11 1 00000E11 1 00000G11 1 00250H11 1 37250H11 1 00999H11 1 00999H11 1 00999K11 1 00037L11 1 01500M11 1 29270N11 1 00000Q11 1 10190S11 1 00050V11 1 00806W11 1 22010
0377999999031091951031203005+36933-116050SAO  +119799999V02009059005252200059N048000599+00785-01785103395ADDGA1999+999999999GA2999+999999999GA3999+999999999GA4999+999999999GD19005+9999999GD29005+9999999GD39005+9999999GD49005+9999999GF100995999999999999999999MA1999999089375EQDN01 00000JPWTH 1QNNE11 1 09900E11 1 09900E11 1 09900E11 1 09900G11U1 99999H11 1 00999H11 1 00999H11 1 00999H11 1 00999K11 1 00000L11 1 03000M11 1 26390N11 1 00000Q11 1 10339S11 1 00046V11 1 00099W11 1 33010
0179725046147071951112323003+41333-072050SAO  +0003GON  V02022559001550213449N0160005N1+99999+99999999999ADDGD13995+9999999GD20995+9999999GD30995+9999999GD40995+9999999MW1001EQDN01 00000JPWTH 1QNNE11 1 00499E11 1 00099E11 1 00099E11 1 00099G11 1 00070L11 1 01000N11 1 00000W11 1 66003
0383744865147191951100119003+40833-072633SAO  +0018FOK  V02027059007250182949N0160005N1+02005+01285101865ADDGA1041+006104084GA2061+018294034GA3999+999999999GA4999+999999999GD12045+9999999GD23065+9999999GD30005+9999999GD40005+9999999GF106065999999999999999999MA1999999101665MW1001EQDN01 00000JPWTH 1QNNE11 1 00205E11 1 00408E11 1 00000E11 1 00000G11 1 00060H11 1 11020H11 1 23060H11 1 00999H11 1 00999K11 1 00055L11 1 01000M11 1 30020N11 1 00000Q11 1 10186S11 1 00068V11 1 00808W11 1 77014
038899999923043195108230100E+33400-104533SAO  +1106RNM  V02011359002150365849N048000599+02615+01675101325ADDAA101000095GA1999+012194084GA2999+036584034GA3999+999999999GA4999+999999999GD12025+9999999GD23045+9999999GD30005+9999999GD40005+9999999GF106065999999999999999999MA1999999089235EQDN01 00000JPWTH 1QNNE11 1 00203E11 1 00405E11 1 00000E11 1 00000G11 1 00120H11 1 11040H11 1 23120H11 1 00999H11 1 00999K11 1 00062L11 1 03000M11 1 26350N11 1 00000Q11 1 10132S11 1 00079V11 1 00808W11 1 34004
0066722175138601951101509004+32633-083600SAO  +0090WRB  V0203601N002112200019N0160001N9+01501+01331102061ADDGA1041+075009009GF102991999999999999999999MA1999999100981MW1001
0043320610999991951101720004+50900+142167FM-12+999999999V0201501N00311220001CN9999999N9-00281+99999101671ADDAY111999GF103991001001999999001021MW1031
017699999914919195102022200E+46917-098683SAO  +0455JMS  V02018059003150762049N024000599-01005-01335101425ADDAA101000095GF108995999999999999999999MA1999999095705EQDN01 00000JPWTH 1QNNG11 1 00250K11 1 00008L11 1 01500M11 1 28260N11 1 00000Q11 1 10142S11 1 00014V11 1 01099W11 1 55006
0108104000999991951060706004+51283+006767FM-12+003899999V0200301N00311220001CN0060001N9+00941+00671101461ADDAY101061GA1011+003009059GA2011+003009059GF101991011051004501001001IA1009KA1999N+00831MD1210031+9999MW1031
0072747340999991951030912004+32367-106467SAO  +1297R2C2 V0202301N002612200019N0640001N9+01391+00501101121ADDAA124999929GF102991999999999999999999KA1999M+02191KA2999N+01351MW1001
0292999999148941951112215005+40183-080650SAO  +036399999V02018059008850021349N004000599+00445+99999999999ADDGD12995+9999999GD24995+9999999GD30995+9999999GD40995+9999999GF108085999999999999999999MA1999999098215MW1045MW2455MW3515EQDN01 03370JPWTH 1N02 08000JPWTH 1QNNE11 1 00299E11 1 00699E11 1 00099E11 1 00099G11 1 00007L11 1 00250M11 1 29000N11 1 03370N11 1 08000S11 1 00040V11 1 01010W11 1 55017
039472658014922195110270200C+44883-093217SAO  +0254MSP  V02031559003152200059N0240005N9-00115-00895103015ADDAA101000095GA1021+067064004GA2999+999999999GA3999+999999999GA4999+999999999GD11025+9999993GD20005+9999999GD30005+9999999GD40005+9999999GF102015999999999999999999MA1999999099835MW1001EQDN01 00000JPWTH 1QNNE11 1 00103E11 1 00000E11 1 00000E11 1 00000G11U1 99999H11 1 32220H11 1 00999H11 1 00999H11 1 00999K11 1 00016L11 1 01500M11 1 29480N11 1 00000Q11 1 10301S11 1 00030V11 1 00301W11 1 88006
017699999913896195101081200E+34750-087617SAO  +017199999V02099999000052200059N012800599-00675-01005102515ADDAA101000095GF100995999999999999999999MA1999999100375EQDN01 00000JPWTH 1QNNG11U1 99999K11 1 00014L11 1 00800M11 1 29640N11 1 00000Q11 1 10251S11 1 00020V11 1 00099W11 1 00000
0101042310999991951102200004+67017-050800SAO  +0050BGSF V0201131N007210210019N0240001N1-00151-00371101801ADDGA1021+010509059GA2061+021009049GF108991999999999999999999MA1999999101121MW1711EQDQ01    003PRSWM1
0066724835232061951041605004+38550-121300SAO  +0027MHR  V0201801N003610033019N0160001N9+01071+00741101251ADDGA1081+003309079GF108991999999999999999999MA1999999100911MW1001
017699999993817195102211000E+38050-087533SAO  +0116EVV  V02033859013450064049N019200599+00564+00335100984ADDAA101000095GF108995999999999999999999MA1999999099564EQDN01 00000JPWTH 1QNNG11 1 00021K11 1 00038L11 1 01200M11 1 29400N11 1 00000Q11 1 10098S11 1 00042V11 1 01099W11 1 18026
038899999924143195110112200E+47483-111350SAO  +112499999V02022559007750304849N096000599+01505+00615100685ADDAA101000095GA1999+013724084GA2999+018294044GA3999+030484034GA4999+076204004GD12005+9999999GD23035+9999999GD33025+9999999GD40025+9999999GF106065999999999999999999MA1999999088185EQDN01 00000JPWTH 1QNNE11 1 00200E11 1 00404E11 1 00402E11 1 00002G11 1 00100H11 1 11045H11 1 21060H11 1 23100H11 1 32250K11 1 00043L11 1 06000M11 1 26040N11 1 00000Q11 1 10068S11 1 00059V11 1 00807W11 1 66015
028672654614946195110240600C+44917-097150SAO  +0532ATY  V02013559005252200059N0240005N1-00065-00115102005ADDAA101000095GD10995+9999999GD20995+9999999GD30995+9999999GD40995+9999999GF100005999999999999999999MA1999999095565MW1001EQDN01 00000JPWTH 1QNNE11 1 00099E11 1 00099E11 1 00099E11 1 00099G11U1 99999K11 1 00030L11 1 01500M11 1 28220N11 1 00000Q11 1 10200S11 1 00031V11 1 00000W11 1 44010
0058063100999991951012009004+51450+003600FM-12+001399999V0202801N00931001501CN0024001N9+00721+00721999999ADDAY121999GF108991081061001501999999MA1999999101331MW1501
028099999924015195109300400E+40117-103167SAO  +139999999V02099999000052200059N024000599+01565+00565101355ADDAA101000095GD11995+9999993GD20995+9999999GD30995+9999999GD40995+9999999GF102015999999999999999999MA1999999085985EQDN01 00000JPWTH 1QNNE11 1 00199E11 1 00099E11 1 00099E11 1 00099G11U1 99999K11 1 00042L11 1 01500M11 1 25390N11 1 00000Q11 1 10135S11 1 00060V11 1 00301W11 1 00000
029299999924012195110130400E+46800-102800SAO  +079399999V02002359003650243849N024000599+01175+00895100615ADDAA101000095GD14995+9999999GD20995+9999999GD30995+9999999GD40995+9999999GF108085999999999999999999MA1999999091505MW1805MW2955EQDN01 01023JPWTH 1QNNE11 1 00699E11 1 00099E11 1 00099E11 1 00099G11 1 00080K11 1 00048L11 1 01500M11 1 27020N11 1 01023Q11 1 10061S11 1 00053V11 1 01010W11 1 12007
038899999924011195105092100E+46767-100750SAO  +050799999V02002359006252200059N024000599+01565+00065102275ADDAA101000095GA1999+045724034GA2999+999999999GA3999+999999999GA4999+999999999GD19005+9999999GD29005+9999999GD39005+9999999GD49005+9999999GF100995999999999999999999MA1999999096245EQDN01 00000JPWTH 1QNNE11 1 09900E11 1 09900E11 1 09900E11 1 09900G11U1 99999H11 1 23150H11 1 00999H11 1 00999H11 1 00999K11 1 00033L11 1 01500M11 1 28420N11 1 00000Q11 1 10227S11 1 00060V11 1 00099W11 1 12012
028099999913885195108070800E+31417-087033SAO  +0078EVR  V02099999000052200059N016000599+02445+02445101525ADDAA101000095GD10995+9999999GD20995+9999999GD30995+9999999GD40995+9999999GF100005999999999999999999MA1999999100615EQDN01 00000JPWTH 1QNNE11 1 00099E11 1 00099E11 1 00099E11 1 00099G11U1 99999K11 1 00076L11 1 01000M11 1 29710N11 1 00000Q11 1 10152S11 1 00076V11 1 00000W11 1 00000
028099999994705195106290300E+44200-072567SAO  +0344MPV  V02015859001552200059N024000599+01674+01505101324ADDAA101000095GD19999+9999999GD29999+9999999GD39999+9999999GD49999+9999999GF100005999999999999999999MA1999999097324EQDN01 00000JPWTH 1QNNE11 1 09999E11 1 09999E11 1 09999E11 1 09999G11U1 99999K11 1 00059L11 1 01500M11 1 28740N11 1 00000Q11 1 10132S11 1 00062V11 1 00000W11 1 54003
028099999993846195107221400E+34500-082717SAO  +0233AND  V02015859002152200059N016000599+02894+02285102134ADDAA101000095GD10995+9999999GD20995+9999999GD30995+9999999GD40995+9999999GF100005999999999999999999MA1999999099424EQDN01 00000JPWTH 1QNNE11 1 00099E11 1 00099E11 1 00099E11 1 00099G11U1 99999K11 1 00073L11 1 01000M11 1 29360N11 1 00000Q11 1 10213S11 1 00084V11 1 00000W11 1 54004
0069306920999991951010112004+54000+123967FM-12+040099999V0203601N00211220001CN9999999N9-03111-03501103271ADDAY121999GF108991001001999999001071KA1999M-02891EQDQ01+000002APC3  
0082474250999991951120200004+42800+141650SAO  +0027RJCC V0209991C000012200019N0112001N1-00091-00421102781ADDGA1011+012009059GA2011+021009039GF102991999999999999999999MA1999999102441MW1001
0171999999232371951020512005+37900-121250SAO  +000899999V02013559004650030549N016000599+01065+01005101805ADDGF108995999999999999999999MA1999999101695MW1615EQDN01 02000JPWTH 1QNNG11 1 00010K11 1 00050L11 1 01000M11 1 30030N11 1 02000Q11 1 10180S11 1 00051V11 1 01099W11 1 44009
0383999999931061951101917005+33800-118117SAO  +000999999V02024859001552200059N004000599+01894+01675101494ADDGA1999+999999104GA2999+999999999GA3999+999999999GA4999+999999999GD16015+9999999GD20005+9999999GD30005+9999999GD40005+9999999GF101015999999999999999999MA1999999101394MW1055EQDN01 08100JPWTH 1QNNE11 1 00801E11 1 00000E11 1 00000E11 1 00000G11U1 99999H11 1 98999H11 1 00999H11 1 00999H11 1 00999K11 1 00062L11 1 00250M11 1 29940N11 1 08100Q11 1 10149S11 1 00066V11 1 00101W11 1 76003
0066108690999991951040919004+48317+011950SAO  +0467EDSE V0201351N001512200019N0240001N1+00801-00151100241ADDGA1031+036009049GF102991999999999999999999MA1999999094721MW1001
018299999924235195103092000E+42617-123367SAO  +1169SXT  V02099999000050012249N016000599-00335-00395102175ADDAA101000095GF106995999999999999999999MA1999999088285MW1855EQDN01 05000JPWTH 1QNNG11 1 00004K11 1 00025L11 1 01000M11 1 26070N11 1 05000Q11 1 10217S11 1 00026V11 1 00899W11 1 00000
0177725115147111951101404003+40200-076750SAO  +0092MDT  V02009059002652200059N0096005N1+00725+00225103525ADDGF100005999999999999999999MA1999999102305MW1045MW2051EQDN01 08200JPWTH 1QNNG11U1 99999K11 1 00036L11 1 00600M11 1 30210N11 1 08200Q11 1 10352S11 1 00045V11 1 00000W11 1 33005
0357999999939061951062515005+30033-090083SAO  +000499999V02036059003150762049N006400599+02894+02335101924ADDGA1999+076204024GA2999+999999999GA3999+999999999GA4999+999999999GD19065+9999999GD29005+9999999GD39005+9999999GD49005+9999999GF106055999999999999999999MW1045EQDN01 08000JPWTH 1QNNE11 1 09907E11 1 09900E11 1 09900E11 1 09900G11 1 00250H11 1 37250H11 1 00999H11 1 00999H11 1 00999K11 1 00074L11 1 00400N11 1 08000Q11 1 10192S11 1 00084V11 1 00706W11 1 11006
0346999999147461951121220005+41050-078583SAO  +067599999V02027059006250036649N003200599-00565-01005999999ADDGA1999+003664064GA2999+999999999GA3999+999999999GA4999+999999999GD13075+9999999GD20005+9999999GD30005+9999999GD40005+9999999GF107075999999999999999999MW1855EQDN01 05000JPWTH 1QNNE11 1 00409E11 1 00000E11 1 00000E11 1 00000G11 1 00012H11 1 15012H11 1 00999H11 1 00999H11 1 00999K11 1 00014L11 1 00200N11 1 05000S11 1 00022V11 1 00909W11 1 77012
0165999999265161951013020005+61583-159533SAO  +002499999V02002359001552200059N064000599-00445-00895101595ADDGF102995999999999999999999MA1999999101255EQDN01 00000JPWTH 1QNNG11U1 99999K11 1 00016L11 1 04000M11 1 29900N11 1 00000Q11 1 10159S11 1 00024V11 1 00399W11 1 12003
030799999923043195110261700E+33400-104533SAO  +1106RNM  V02015859005250021349N012800599+01505+01335101595ADDAA101000095GA1999+002134064GD14085+9999999GD20995+9999999GD30995+9999999GD40995+9999999GF108085999999999999999999MA1999999089335EQDN01 00000JPWTH 1QNNE11 1 00610E11 1 00099E11 1 00099E11 1 00099G11 1 00007H11 1 15007K11 1 00056L11 1 00800M11 1 26380N11 1 00000Q11 1 10159S11 1 00059V11 1 01010W11 1 54010
030799999913958195112072100E+30300-097700SAO  +018999999V02004559007750115849N024000599+01565-00565101425ADDAA101000095GA1999+011584044GD14085+9999999GD20995+9999999GD30995+9999999GD40995+9999999GF108085999999999999999999MA1999999099225EQDN01 00000JPWTH 1QNNE11 1 00610E11 1 00099E11 1 00099E11 1 00099G11 1 00038H11 1 21038K11 1 00022L11 1 01500M11 1 29300N11 1 00000Q11 1 10142S11 1 00060V11 1 01010W11 1 22015
0323999999129221951042715005+28783-097083SAO  +003499999V02015859004650030549N019200599+02335+02065101935ADDGA1999+003054064GA2999+009144064GD19065+9999999GD29085+9999999GD39999+9999999GD49999+9999999GF108995999999999999999999MA1999999101525EQDN01 00000JPWTH 1QNNE11 1 09907E11 1 09910E11 1 09999E11 1 09999G11 1 00010H11 1 15010H11 1 15030K11 1 00069L11 1 01200M11 1 29980N11 1 00000Q11 1 10193S11 1 00074V11 1 01099W11 1 54009
017699999993846195102041600E+34500-082717SAO  +0233AND  V02020359003652200059N014400599+00394-00675102574ADDAA101000095GF102995999999999999999999MA1999999099664EQDN01 00000JPWTH 1QNNG11U1 99999K11 1 00020L11 1 00900M11 1 29430N11 1 00000Q11 1 10257S11 1 00039V11 1 00399W11 1 56007
0057313920999991951122506004+52800+131717FM-12+035899999V0209991C00001220001CN0200001N9+99999+99999102861ADDAY101999GF100991001001999999001001MD1510021+9999MW1001
0066475800999991951080605004+40700+141367SAO  +0037RJSM V0200701N002612200019N0112001N9+03131+02301100711ADDGA1021+010509089GF102991999999999999999999MA1999999100241MW1001
0043652920999991951102812004+05717+009283FM-12+015299999V0202701N002619999999N0400001N9+02941+02221999999ADDAY111999GF105991031021999999061001MW1011
0050722448999991951040304004+32367-095400SAO  +0168TYR  V0200451N002612200019N0240001N1+00911+00301102031ADDGF100991999999999999999999MA1999999100001MW1001
018272225593842195102190500C+32517-084933SAO  +0123CSG  V02099999000052200059N0160005N1+01175+01065102245ADDAA101000095GF100995999999999999999999MA1999999100815MW1001EQDN01 00000JPWTH 1QNNG11U1 99999K11 1 00051L11 1 01000M11 1 29770N11 1 00000Q11 1 10224S11 1 00053V11 1 00099W11 1 00000
0066035833999991951022801004+52333+000550SAO  +0015EGUL V0209991C000012200019N0024001N9-00091-00151102481ADDGA1001+999999999GF100991999999999999999999MA1999999102371MW1051
038899999913994195101160600E+38750-090383SAO  +017699999V02027059003152200059N019200599-00175-00395102105ADDAA101000095GA1999+042674044GA2999+999999999GA3999+999999999GA4999+999999999GD19025+9999999GD29005+9999999GD39005+9999999GD49005+9999999GF102995999999999999999999MA1999999100005EQDN01 00000JPWTH 1QNNE11 1 09902E11 1 09900E11 1 09900E11 1 09900G11U1 99999H11 1 21140H11 1 00999H11 1 00999H11 1 00999K11 1 00025L11 1 01200M11 1 29530N11 1 00000Q11 1 10210S11 1 00029V11 1 00299W11 1 77006
038899999923183195108160800E+33433-112033SAO  +033999999V02027059001052200059N024000599+03005+01895100955ADDAA101000095GA1999+042674034GA2999+076204004GA3999+999999999GA4999+999999999GD11005+9999993GD20015+9999999GD30005+9999999GD40005+9999999GF101005999999999999999999MA1999999097165EQDN01 00000JPWTH 1QNNE11 1 00100E11 1 00001E11 1 00000E11 1 00000G11U1 99999H11 1 23140H11 1 32250H11 1 00999H11 1 00999K11 1 00066L11 1 01500M11 1 28690N11 1 00000Q11 1 10095S11 1 00086V11 1 00100W11 1 77002
0154999999139051951103004005+30667-096550SAO  +008499999V02099999000052200059N016000599+02175+02005999999ADDGF100005999999999999999999MA1999999100375EQDN01 00000JPWTH 1QNNG11U1 99999K11 1 00068L11 1 01000M11 1 29640N11 1 00000S11 1 00071V11 1 00000W11 1 00000
028099999924012195110111300E+46800-102800SAO  +079399999V02013559003652200059N024000599+00395+00225101905ADDAA101000095GD10995+9999999GD20995+9999999GD30995+9999999GD40995+9999999GF100005999999999999999999MA1999999092655EQDN01 00000JPWTH 1QNNE11 1 00099E11 1 00099E11 1 00099E11 1 00099G11U1 99999K11 1 00036L11 1 01500M11 1 27360N11 1 00000Q11 1 10190S11 1 00039V11 1 00000W11 1 44007
031372525014852195111190200C+41250-080667SAO  +0359YNG  V02027059005750030549N0032005N9-00675-00835101965ADDAA101000395GA1091+003054104GD15085+9999999GD20995+9999999GD30995+9999999GD40995+9999999GF108085999999999999999999MA1999999097495MW1855EQDN01 05000JPWTH 1QNNE11 1 00710E11 1 00099E11 1 00099E11 1 00099G11 1 00010H11 1 98010K11 1 00017L11 1 00200M11 1 28790N11 1 05000Q11 1 10196S11 1 00020V11 1 01010W11 1 77011
0082476350999991951100416004+35250+136933SAO  +0017RJNN V0200231N002112200019N0064001N1+01631+01521101691ADDGA1011+030009039GA2061+060009009GF107991999999999999999999MA1999999101491MW1051
0269999999148971951110709005+44917-089617SAO  +036699999V02033859003652200059N024000599-00835-01285102205ADDGD10995+9999999GD20995+9999999GD30995+9999999GD40995+9999999GF100005999999999999999999MA1999999097665EQDN01 00000JPWTH 1QNNE11 1 00099E11 1 00099E11 1 00099E11 1 00099G11U1 99999K11 1 00009L11 1 01500M11 1 28840N11 1 00000Q11 1 10220S11 1 00017V11 1 00000W11 1 18007
039472206013889195107210900C+30417-081650SAO  +0012JAX  V02020359002152200059N0192005N9+02565+02285101805ADDAA101000095GA1011+042674034GA2021+091444024GA3999+999999999GA4999+999999999GD12015+9999999GD21025+9999993GD30005+9999999GD40005+9999999GF102015999999999999999999MA1999999101695MW1001EQDN01 00000JPWTH 1QNNE11 1 00201E11 1 00102E11 1 00000E11 1 00000G11U1 99999H11 1 23140H11 1 37300H11 1 00999H11 1 00999K11 1 00073L11 1 01200M11 1 30030N11 1 00000Q11 1 10180S11 1 00078V11 1 00301W11 1 56004
0066035833999991951100412004+52333+000550SAO  +0015EGUL V0203201N003610045019N0032001N9+01461+01301102241ADDGA1071+004509059GF107991999999999999999999MA1999999102131MW1451
