0377999999414061952022819005+13483+144800SAO  +0085PGUM V02011359005250061049N016000599+02565+02065101115ADDGA1999+006104084GA2999+076204024GA3999+999999999GA4999+999999999GD13055+9999999GD24085+9999993GD30005+9999999GD40005+9999999GF108045999999999999999999MA1999999100275EQDN01 00000JPWTH 1QNNE11 1 00406E11 1 00510E11 1 00000E11 1 00000G11 1 00020H11 1 11020H11 1 37250H11 1 00999H11 1 00999K11 1 00069L11 1 01000M11 1 29610N11 1 00000Q11 1 10111S11 1 00078V11 1 01005W11 1 34010
0057386960999991952110700004+39567+066950FM-12+067599999V0200801N99999220001CN0040001N9+01001+00221101761ADDAY111999GF199999001001999999051061MD1810121+9999MW1021
0165724370938231952042901005+99999+999999SAO  +999999999V02036059002152200059N024000599+01675+00615101295ADDGF100005999999999999999999MA1999999099155EQDN01 00000JPWTH 1QNNG11U1 99999K11 1 00043L11 1 01500M11 1 29280N11 1 00000Q11 1 10129S11 1 00062V11 1 00000W11 1 11004
0382727930242331952120412003+47450-122300SAO  +0122SEA  V02018059008850134149N0240005N1+00945+00445100445ADDAA124005091GA1021+009454074GA2081+013414064GD12025+9999999GD24085+9999999GD30995+9999999GD40995+9999999GF108085999999999999999999KA1999M+01241KA2999N+00631MA1999999098815MW1805EQDQ01    003PRSWM1N01 02300JPWTH 1QNNE11 1 00202E11 1 00610E11 1 00099E11 1 00099G11 1 00044H11 1 16031H11 1 15044K11 1 00040L11 1 01500M11 1 29180N11 1 02300Q11 1 10044S11 1 00049V11 1 01010W11 1 55017
0269999999137361952101811005+39633-079917SAO  +038099999V02099999000052200059N016000599+00285+00175102175ADDGD10995+9999999GD20995+9999999GD30995+9999999GD40995+9999999GF100005999999999999999999MA1999999097605EQDN01 00000JPWTH 1QNNE11 1 00099E11 1 00099E11 1 00099E11 1 00099G11U1 99999K11 1 00035L11 1 01000M11 1 28820N11 1 00000Q11 1 10217S11 1 00037V11 1 00000W11 1 00000
0377999999129171952020217005+29950-094017SAO  +0009BPT  V02033859005750030549N019200599+01615+01335100995ADDGA1999+003054074GA2999+060964024GA3999+999999999GA4999+999999999GD13065+9999999GD23015+9999999GD30005+9999999GD40005+9999999GF107075999999999999999999MA1999999100915EQDN01 00000JPWTH 1QNNE11 1 00408E11 1 00401E11 1 00000E11 1 00000G11 1 00010H11 1 16010H11 1 37200H11 1 00999H11 1 00999K11 1 00056L11 1 01200M11 1 29800N11 1 00000Q11 1 10099S11 1 00061V11 1 00909W11 1 18011
0275999999148941952011412005+40183-080650SAO  +036399999V02024859004650048849N009600599+01225+01065101635ADDGD13995+9999999GD24995+9999999GD30995+9999999GD40995+9999999GF108085999999999999999999MA1999999097265MW1045EQDN01 08000JPWTH 1QNNE11 1 00499E11 1 00699E11 1 00099E11 1 00099G11 1 00016K11 1 00051L11 1 00600M11 1 28720N11 1 08000Q11 1 10163S11 1 00054V11 1 01010W11 1 76009
0067108570999991952051206004+48067+010900SAO  +0628EDSA V0202701N002110021019N0024001N1+01071+01021999999ADDGA1061+002109079GA2081+012009059GF108991999999999999999999MW1631
030799999914840195209061900E+43167-086233SAO  +019699999V02002359005250079249N024000599+02115+01445102245ADDAA101000095GA1999+007924064GD14085+9999999GD20995+9999999GD30995+9999999GD40995+9999999GF108085999999999999999999MA1999999099935EQDN01 00000JPWTH 1QNNE11 1 00610E11 1 00099E11 1 00099E11 1 00099G11 1 00026H11 1 15026K11 1 00058L11 1 01500M11 1 29510N11 1 00000Q11 1 10224S11 1 00070V11 1 01010W11 1 12010
030799999913956195201211700E+32333-090217SAO  +010299999V02013559007250048849N019200599+01505+00565101465ADDAA101000095GA1999+004884064GD14085+9999999GD20995+9999999GD30995+9999999GD40995+9999999GF108085999999999999999999MA1999999100275EQDN01 00000JPWTH 1QNNE11 1 00610E11 1 00099E11 1 00099E11 1 00099G11 1 00016H11 1 15016K11 1 00042L11 1 01200M11 1 29610N11 1 00000Q11 1 10146S11 1 00059V11 1 01010W11 1 44014
0057985430999991952110412004+12367+123617FM-12+001199999V0209991C00001220001CN0140001N9+02671+02441101031ADDAY111999GF100991001001999999001001MD1310141+9999MW1001
0089108030999991952010609004+48000+007850FM-12+028699999V0209991C00001002401CN0020001N9+00281+00221103661ADDAY151031GA1081+002409079GA2081+002409079GF108991081061002501999999MD1210251+9999MW1201
0269999999930451952022103005+33233-107267SAO  +1471TCS  V02020359004652200059N080000599+00724-01335101424ADDGD12995+9999999GD23995+9999993GD30995+9999999GD40995+9999999GF106015999999999999999999MA1999999084964EQDN01 00000JPWTH 1QNNE11 1 00299E11 1 00399E11 1 00099E11 1 00099G11U1 99999K11 1 00008L11 1 05000M11 1 25090N11 1 00000Q11 1 10142S11 1 00045V11 1 00701W11 1 56009
0281999999241301952011004005+44833-117817SAO  +1028BKE  V02013559009850079249N001600599-00395-00505102105ADDGD14995+9999999GD20995+9999999GD30995+9999999GD40995+9999999GF108085999999999999999999MA1999999089945MW1385MW2715EQDN01 04084JPWTH 1QNNE11 1 00699E11 1 00099E11 1 00099E11 1 00099G11 1 00026K11 1 00023L11 1 00100M11 1 26560N11 1 04084Q11 1 10210S11 1 00025V11 1 01010W11 1 44019
028099999924145195204070300E+43517-112067SAO  +144699999V02020359003152200059N024000599+00895+00005101255ADDAA101000095GD12995+9999999GD20995+9999999GD30995+9999999GD40995+9999999GF103035999999999999999999MA1999999085035EQDN01 00000JPWTH 1QNNE11 1 00299E11 1 00099E11 1 00099E11 1 00099G11U1 99999K11 1 00032L11 1 01500M11 1 25110N11 1 00000Q11 1 10125S11 1 00048V11 1 00404W11 1 56006
0066724096147061952091020004+40033-074600SAO  +0037WRI  V0202301N004112200019N0064371N9+02661+01331102371ADDGA1001+999999999GF100991999999999999999999MA1999999101901MW1051
0377999999265101952102303005+62967-155617SAO  +0104MCG  V02002359003152200059N064000599-00675-01005101025ADDGA1999+030484034GA2999+076204024GA3999+999999999GA4999+999999999GD12025+9999999GD22025+9999999GD30005+9999999GD40005+9999999GF103025999999999999999999MA1999999099705EQDN01 00000JPWTH 1QNNE11 1 00202E11 1 00202E11 1 00000E11 1 00000G11U1 99999H11 1 23100H11 1 37250H11 1 00999H11 1 00999K11 1 00014L11 1 04000M11 1 29440N11 1 00000Q11 1 10102S11 1 00020V11 1 00403W11 1 12006
0089105320999991952032709004+50567+008700FM-12+019399999V0201001N00211007801CN0050001N9+00001-00281101281ADDAY171031GA1071+007809059GA2071+007809059GF107991071051008001999999MD1210031+9999MW1731
031399999924232195210281900E+44917-123017SAO  +006199999V02027059001050003049N000200599+00725+00725102305ADDAA101000095GA1999+000304104GD15085+9999999GD20995+9999999GD30995+9999999GD40995+9999999GF108085999999999999999999MA1999999101565MW1455EQDN01 07000JPWTH 1QNNE11 1 00710E11 1 00099E11 1 00099E11 1 00099G11 1 00001H11 1 45001K11 1 00045L11 1 00012M11 1 29990N11 1 07000Q11 1 10230S11 1 00045V11 1 01010W11 1 77002
0269999999230571952061517005+35050-107717SAO  +200799999V02022559005252200059N096000599+02895+00445100985ADDGD10995+9999999GD20995+9999999GD30995+9999999GD40995+9999999GF100005999999999999999999MA1999999080225EQDN01 00000JPWTH 1QNNE11 1 00099E11 1 00099E11 1 00099E11 1 00099G11U1 99999K11 1 00040L11 1 06000M11 1 23690N11 1 00000Q11 1 10098S11 1 00084V11 1 00000W11 1 66010
0165999999433221952110711005+34150+132233SAO  +0003RIWA V02099999000052200059N011200599+01565+01115101665ADDGF100005999999999999999999MA1999999101595EQDN01 00000JPWTH 1QNNG11U1 99999K11 1 00052L11 1 00700M11 1 30000N11 1 00000Q11 1 10166S11 1 00060V11 1 00000W11 1 00000
0275999999240911952030203005+40517-101617SAO  +0998IML  V02011359008250243849N006400599-00175-00445100525ADDGD14995+9999999GD20995+9999999GD30995+9999999GD40995+9999999GF108085999999999999999999MA1999999088865MW1715EQDN01 04000JPWTH 1QNNE11 1 00699E11 1 00099E11 1 00099E11 1 00099G11 1 00080K11 1 00024L11 1 00400M11 1 26240N11 1 04000Q11 1 10052S11 1 00029V11 1 01010W11 1 34016
038899999923052195208031800E+36750-104500SAO  +1946RTN  V02004559008252200059N080000599+02675+00945101255ADDAA101000095GA1999+018294094GA2999+042674184GA3999+999999999GA4999+999999999GD10005+9999999GD20005+9999999GD30005+9999999GD40005+9999999GF100005999999999999999999MA1999999080905EQDN01 00000JPWTH 1QNNE11 1 00000E11 1 00000E11 1 00000E11 1 00000G11U1 99999H11 1 18060H11 1 28140H11 1 00999H11 1 00999K11 1 00049L11 1 05000M11 1 23890N11 1 00000Q11 1 10125S11 1 00080V11 1 00000W11 1 22016
0098035773999991952082714004+52367+000467SAO  +0012EGUN V0202301N008712200019N0128001N9+02391+01611101121ADDGA1021+010509059GA2021+036009039GA3071+060009009GF107991999999999999999999MA1999999100981MW1001
0269999999939891952072412005+39933-091200SAO  +023499999V02013559003152200059N024000599+01724+01335102444ADDGD12995+9999999GD20995+9999999GD30995+9999999GD40995+9999999GF102025999999999999999999MA1999999099664EQDN01 00000JPWTH 1QNNE11 1 00299E11 1 00099E11 1 00099E11 1 00099G11U1 99999K11 1 00056L11 1 01500M11 1 29430N11 1 00000Q11 1 10244S11 1 00063V11 1 00202W11 1 44006
0057936140999991952041212004-47717+170950FM-12+000599999V0201201N00151012301CN0400001N9+01281+01221102341ADDAY121999GF106991061051012501001001MD1310021+9999MW1021
0066723865231121952121506004+36250-115033SAO  +0569LSV  V0209991C000012200019N0560001N9+00801+00081101751ADDGA1001+999999999GF100991999999999999999999MA1999999095061MW1001
0377999999129311952091701005+29350-098450SAO  +0182BRX  V02018059004152200059N024000599+02945+02005101045ADDGA1999+033534034GA2999+999999999GA3999+999999999GA4999+999999999GD12025+9999999GD20005+9999999GD30005+9999999GD40005+9999999GF102025999999999999999999MA1999999098985EQDN01 00000JPWTH 1QNNE11 1 00203E11 1 00000E11 1 00000E11 1 00000G11U1 99999H11 1 23110H11 1 00999H11 1 00999H11 1 00999K11 1 00068L11 1 01500M11 1 29230N11 1 00000Q11 1 10104S11 1 00085V11 1 00303W11 1 55008
038899999914933195204010800E+41533-093650SAO  +0286DSM  V02029359006252200059N016000599+00335+00175101125ADDAA101000095GA1999+003354064GA2999+999999999GA3999+999999999GA4999+999999999GD12025+9999999GD20005+9999999GD30005+9999999GD40005+9999999GF102025999999999999999999MA1999999097605EQDN01 00000JPWTH 1QNNE11 1 00203E11 1 00000E11 1 00000E11 1 00000G11U1 99999H11 1 15011H11 1 00999H11 1 00999H11 1 00999K11 1 00035L11 1 01000M11 1 28820N11 1 00000Q11 1 10112S11 1 00038V11 1 00302W11 1 78012
018299999903820195210261500E+33367-081967SAO  +0045AGS  V02004559004652200059N009600599+01835+00615102635ADDAA101000095GF100005999999999999999999MA1999999102105MW1045EQDN01 08000JPWTH 1QNNG11U1 99999K11 1 00043L11 1 00600M11 1 30150N11 1 08000Q11 1 10263S11 1 00065V11 1 00000W11 1 22009
0082467630999991952092405004+24333+121617SAO  +0013RCYU V0200901N002112200019N0192001N1+02911+02411101141ADDGA1021+007809099GA2011+027009039GF102991999999999999999999MA1999999100911MW1001
0269999999930451952050409005+33233-107267SAO  +1471TCS  V02020359005752200059N080000599+01894+00065101354ADDGD10995+9999999GD20995+9999999GD30995+9999999GD40995+9999999GF100005999999999999999999MA1999999085544EQDN01 00000JPWTH 1QNNE11 1 00099E11 1 00099E11 1 00099E11 1 00099G11U1 99999K11 1 00033L11 1 05000M11 1 25260N11 1 00000Q11 1 10135S11 1 00066V11 1 00000W11 1 56011
017699999924215195209021400E+41317-122317SAO  +1078MHS  V02009059001552200059N024000599+01445+00725101665ADDAA101000095GF100005999999999999999999MA1999999089475EQDN01 00000JPWTH 1QNNG11U1 99999K11 1 00045L11 1 01500M11 1 26420N11 1 00000Q11 1 10166S11 1 00058V11 1 00000W11 1 33003
0081249510999991952060912004+60817+125150FM-12+011899999V0202701N005119999999N0500001N9+01221+00721100571ADDAA199001091AY121999GF106991061091999999001001KA1999M+01501MD1210191+9999MW1011
040472640014839195207021600C+42950-087900SAO  +0211MKE  V02020359004652200059N0160005N9+03065+02115101835ADDAA101000095GA1999+015244094GA2021+045724034GA3999+999999999GA4999+999999999GD12005+9999999GD20025+9999999GD30005+9999999GD40005+9999999GF102025999999999999999999MA1999999099325EQDQ01    003SCCGA1N01 00000JPWTH 1QNNE11 1 00200E11 1 00002E11 1 00000E11 1 00000G11U1 99999H11 1 18050H11 1 23150H11 1 00999H11 1 00999K11 1 00070L11 1 01000M11 1 29330N11 1 00000Q11 1 10183S11 1 00087V11 1 00202W11 1 56009
0083785840999991952060318004+17517-088200FM-12+000199999V0200901N00311220001CN0160001N9+03331+02781100981ADDAY111999GF103991011021004501001021KA1999M+03391KA2999N+02561MD1710171+9999MW1031
0057363970999991952042812004+49217+081217FM-12+045599999V0202201N00871012301CN0100001N9+01391+00721100221ADDAY181999GF108991081091012501999999MD1310051+9999MW1811
0057065850999991952110406004+50050+006017FM-12+045499999V0202701N002619999999N9999999N9+00501+99999999999ADDGF108991999999999999999999KA1999N+00391MA1999999097191
018272531014806195208070400C+40300-088150SAO  +0226RAN  V02004559001552200059N0128005N1+01895+01395101805ADDAA101000095GF100005999999999999999999MA1999999099125MW1001EQDN01 00000JPWTH 1QNNG11U1 99999K11 1 00057L11 1 00800M11 1 29270N11 1 00000Q11 1 10180S11 1 00066V11 1 00000W11 1 22003
0066749070999991952062717004+39433-077450SAO  +0100FDK  V0203381N001510105019N0160001N1+03411+02411101521ADDGA1061+010509089GF107991999999999999999999MA1999999100411MW1001
034072520094823195209171800C+40500-080217SAO  +0373PIT  V02022559005250152449N0240005N1+02285+01225101055ADDAA101000095GA1061+015244064GA2021+036584034GD13065+9999999GD24025+9999999GD30995+9999999GD40995+9999999GF108085999999999999999999MA1999999096725MW1001EQDN01 00000JPWTH 1QNNE11 1 00408E11 1 00602E11 1 00099E11 1 00099G11 1 00050H11 1 15050H11 1 23120K11 1 00054L11 1 01500M11 1 28560N11 1 00000Q11 1 10105S11 1 00073V11 1 01010W11 1 66010
0269999999241931952071508005+40733-114033SAO  +129299999V02099999000052200059N024000599+01895+00505101225ADDGD10995+9999999GD20995+9999999GD30995+9999999GD40995+9999999GF100005999999999999999999MA1999999087135EQDN01 00000JPWTH 1QNNE11 1 00099E11 1 00099E11 1 00099E11 1 00099G11U1 99999K11 1 00041L11 1 01500M11 1 25730N11 1 00000Q11 1 10122S11 1 00066V11 1 00000W11 1 00000
038899999924156195208050200E+42917-112600SAO  +135699999V02018059004652200059N064000599+02785+00615100855ADDAA101000095GA1999+027434084GA2999+045724034GA3999+999999999GA4999+999999999GD10005+9999999GD20005+9999999GD30005+9999999GD40005+9999999GF100005999999999999999999MA1999999086055EQDN01 00000JPWTH 1QNNE11 1 00000E11 1 00000E11 1 00000E11 1 00000G11U1 99999H11 1 11090H11 1 23150H11 1 00999H11 1 00999K11 1 00043L11 1 04000M11 1 25410N11 1 00000Q11 1 10085S11 1 00082V11 1 00000W11 1 55009
0377999999139051952062511005+30667-096550SAO  +008499999V02015859002650024449N024000599+02505+02335101485ADDGA1999+002444074GA2999+999999999GA3999+999999999GA4999+999999999GD13075+9999999GD20005+9999999GD30005+9999999GD40005+9999999GF107075999999999999999999MA1999999100515EQDN01 00000JPWTH 1QNNE11 1 00409E11 1 00000E11 1 00000E11 1 00000G11 1 00008H11 1 16008H11 1 00999H11 1 00999H11 1 00999K11 1 00074L11 1 01500M11 1 29680N11 1 00000Q11 1 10148S11 1 00077V11 1 00909W11 1 54005
038899999914765195202231700E+41733-071433SAO  +002099999V02033859003650106749N024000599+00065-00835102475ADDAA101000095GA1999+010674064GA2999+999999999GA3999+999999999GA4999+999999999GD13065+9999999GD20005+9999999GD30005+9999999GD40005+9999999GF106065999999999999999999MA1999999102245EQDN01 00000JPWTH 1QNNE11 1 00407E11 1 00000E11 1 00000E11 1 00000G11 1 00035H11 1 15035H11 1 00999H11 1 00999H11 1 00999K11 1 00017L11 1 01500M11 1 30190N11 1 00000Q11 1 10247S11 1 00033V11 1 00707W11 1 18007
0050749091999991952121203004+30667-096550SAO  +0084CFD  V0209991C000012200019N0240001N1+01071+00521102001ADDGF100991999999999999999999MA1999999100981MW1001
0377999999128541952110214005+28783-081233SAO  +002799999V02036059004652200059N016000599+02285+01945102065ADDGA1999+006104084GA2999+999999999GA3999+999999999GA4999+999999999GD10005+9999999GD20005+9999999GD30005+9999999GD40005+9999999GF100005999999999999999999MA1999999101635EQDN01 00000JPWTH 1QNNE11 1 00000E11 1 00000E11 1 00000E11 1 00000G11U1 99999H11 1 11020H11 1 00999H11 1 00999H11 1 00999K11 1 00067L11 1 01000M11 1 30010N11 1 00000Q11 1 10206S11 1 00073V11 1 00000W11 1 11009
0029650010999991952091312004+10883+004750FM-12+024499999V0203301N00461045001CN9999999N9+02891+02331999999ADDGF107991041031004501071021
0377999999137551952022405005+37933-075433SAO  +001599999V02011359007252200059N016000599+00285-00065102265ADDGA1999+030484044GA2999+999999999GA3999+999999999GA4999+999999999GD12025+9999999GD20005+9999999GD30005+9999999GD40005+9999999GF102025999999999999999999MA1999999102105EQDN01 00000JPWTH 1QNNE11 1 00203E11 1 00000E11 1 00000E11 1 00000G11U1 99999H11 1 21100H11 1 00999H11 1 00999H11 1 00999K11 1 00031L11 1 01000M11 1 30150N11 1 00000Q11 1 10226S11 1 00037V11 1 00303W11 1 34014
0066034873999991952110906004+52850+000767SAO  +0071EGUP V0202901N004110105019N0064001N9+00301+00131101761ADDGA1081+010509059GF108991999999999999999999MA1999999100881MW1051
0066467700999991952082408004+24267+120617SAO  +0005RCMQ V0203601N002610069019N0080001N1+02801+02461999999ADDGA1071+006909059GF107991999999999999999999MA1999999098751MW1001
0057309570999991952040718004+50283+113283FM-12+073499999V0209991C00001012301CN9999999N9-00221-00501100311ADDAY121999GF108991081051012501999999MD1310111+9999MW1031
0377999999947021952101011005+41167-073133SAO  +000899999V02004559006750274349N012800599+00944+00395102274ADDGA1999+027434034GA2999+999999999GA3999+999999999GA4999+999999999GD13075+9999999GD20005+9999999GD30005+9999999GD40005+9999999GF107075999999999999999999MA1999999102204EQDN01 00000JPWTH 1QNNE11 1 00409E11 1 00000E11 1 00000E11 1 00000G11 1 00090H11 1 23090H11 1 00999H11 1 00999H11 1 00999K11 1 00039L11 1 00800M11 1 30180N11 1 00000Q11 1 10227S11 1 00049V11 1 00909W11 1 22013
0243999999242831952083121005+40983-124100SAO  +0062ACV  V02029359003650457249N011200599+01225+01005101695ADDGD13995+9999999GD20995+9999999GD30995+9999999GF106065999999999999999999MA1999999100855EQDN01 00000JPWTH 1QNNE11 1 00499E11 1 00099E11 1 00099G11 1 00150K11 1 00050L11 1 00700M11 1 29780N11 1 00000Q11 1 10169S11 1 00054V11 1 00808W11 1 78007
038899999913865195202141900E+32333-088750SAO  +009199999V02002359002652200059N024000599+02445+00615101255ADDAA101000095GA1999+091444004GA2999+999999999GA3999+999999999GA4999+999999999GD13065+9999993GD20005+9999999GD30005+9999999GD40005+9999999GF106025999999999999999999MA1999999100145EQDN01 00000JPWTH 1QNNE11 1 00308E11 1 00000E11 1 00000E11 1 00000G11U1 99999H11 1 32300H11 1 00999H11 1 00999H11 1 00999K11 1 00043L11 1 01500M11 1 29570N11 1 00000Q11 1 10125S11 1 00076V11 1 00803W11 1 12005
0275722166938451952122004003+30783-083283SAO  +0061VLD  V02013559002152200059N0128005N1+00785+00225102245ADDGD10995+9999999GD20995+9999999GD30995+9999999GD40995+9999999GF100005999999999999999999MA1999999101425MW1001EQDN01 00000JPWTH 1QNNE11 1 00099E11 1 00099E11 1 00099E11 1 00099G11U1 99999K11 1 00036L11 1 00800M11 1 29950N11 1 00000Q11 1 10224S11 1 00046V11 1 00000W11 1 44004
0070286450999991952040206004+55150+061150FM-12+023099999V0209991C00001220001CN0010001N9-00891-01111101591ADDAY171999GF108991001001999999021999KA1999N-01281MD1310061+9999MW1711
0340722050128151952051622003+28450-081300SAO  +0032MCO  V02009059007252200059N0240005N1+02785+01785999999ADDGA1999+018294084GA2999+999999999GA3999+999999999GA4999+999999999GD10005+9999999GD20005+9999999GD30005+9999999GD40005+9999999GF100005999999999999999999EQDN01 00000JPWTH 1QNNE11 1 00000E11 1 00000E11 1 00000E11 1 00000G11U1 99999H11 1 11060H11 1 00999H11 1 00999H11 1 00999K11 1 00064L11 1 01500N11 1 00000S11 1 00082V11 1 00000W11 1 33014
0269999999230561952113011005+35083-106017SAO  +190099999V02031559001550121949N048000599-01115-01395102695ADDGD14995+9999999GD20995+9999999GD30995+9999999GD40995+9999999GF108085999999999999999999MA1999999081245EQDN01 00000JPWTH 1QNNE11 1 00699E11 1 00099E11 1 00099E11 1 00099G11 1 00040K11 1 00007L11 1 03000M11 1 23990N11 1 00000Q11 1 10269S11 1 00012V11 1 01010W11 1 88003
0082467460999991952041911004+23450+120383SAO  +0000RCKU V0203601N001510117019N0056001N1+02631+02411101301ADDGA1021+009909049GA2081+011709009GF108991999999999999999999MA1999999100951MW1051
0165999999129221952051123005+28783-097083SAO  +003499999V02006859003652200059N024000599+02565+00395101905ADDGF100005999999999999999999MA1999999101495EQDN01 00000JPWTH 1QNNG11U1 99999K11 1 00039L11 1 01500M11 1 29970N11 1 00000Q11 1 10190S11 1 00078V11 1 00000W11 1 32007
0082722315539171952071223004+30050-090033SAO  +0003NEW  V0201351N002610750019N0160001N1+03071+02301102091ADDGA1031+007509099GA2061+075009029GF107991999999999999999999MA1999999102101MW1001
0051711010999991952081405004+53250-131817SAO  +0006CYZP V0201351N001512200019N0240001N1+01411+01241101371ADDGA1999+027009999GF100991999999999999999999MW1001
039499999914849195210311400E+41567-083467SAO  +019499999V02022559008852200059N004800599+01115-00065101355ADDAA101000095GA1999+999999104GA2999+999999999GA3999+999999999GA4999+999999999GD16015+9999999GD20005+9999999GD30005+9999999GD40005+9999999GF101015999999999999999999MA1999999099055MW1045EQDN01 08000JPWTH 1QNNE11 1 00801E11 1 00000E11 1 00000E11 1 00000G11U1 99999H11 1 98999H11 1 00999H11 1 00999H11 1 00999K11 1 00031L11 1 00300M11 1 29250N11 1 08000Q11 1 10135S11 1 00052V11 1 00101W11 1 66017
039472365023050195204250600C+35050-106617SAO  +1619ABQ  V02009059009852200059N0960005N9+01445+00395101465ADDAA101000095GA1021+027434034GA2999+999999999GA3999+999999999GA4999+999999999GD12025+9999999GD20005+9999999GD30005+9999999GD40005+9999999GF102025999999999999999999MA1999999084055MW1001EQDN01 00000JPWTH 1QNNE11 1 00203E11 1 00000E11 1 00000E11 1 00000G11U1 99999H11 1 23090H11 1 00999H11 1 00999H11 1 00999K11 1 00039L11 1 06000M11 1 24820N11 1 00000Q11 1 10146S11 1 00058V11 1 00302W11 1 33019
0076889740999991952022323004-62967-060550FM-12+000899999V0202201N01031004501CN0200001N9+00111-00221099611ADDAY121999GF108991081061004501999999IA1009KA1999M+00221MD1210041+9999MW1021
0081166270999991952112218004+40850+025883FM-12+000499999V0202701N00261012301CN0160001N9+01281+01001100171ADDAA199012091AY121999GF108991081071012501001001KA1999M+01501MD1110031+9999MW1021
039472564024018195210091800C+41150-104817SAO  +1877CYS  V02015859007252200059N1440005N9+02225+00115101415ADDAA101000095GA1061+076204004GA2999+999999999GA3999+999999999GA4999+999999999GD13065+9999993GD20005+9999999GD30005+9999999GD40005+9999999GF106025999999999999999999MA1999999081315MW1001EQDN01 00000JPWTH 1QNNE11 1 00308E11 1 00000E11 1 00000E11 1 00000G11U1 99999H11 1 32250H11 1 00999H11 1 00999H11 1 00999K11 1 00034L11 1 09000M11 1 24010N11 1 00000Q11 1 10141S11 1 00072V11 1 00802W11 1 54014
030799999914942195201071900E+41300-095900SAO  +0304OMA  V02015859004650457249N011200599+00005-00505101065ADDAA101000095GA1999+045724044GD14085+9999999GD20995+9999999GD30995+9999999GD40995+9999999GF108085999999999999999999MA1999999097395EQDN01 00000JPWTH 1QNNE11 1 00610E11 1 00099E11 1 00099E11 1 00099G11 1 00150H11 1 21150K11 1 00023L11 1 00700M11 1 28760N11 1 00000Q11 1 10106S11 1 00032V11 1 01010W11 1 54009
0050740030999991952052611004+40200-112933SAO  +1326DPG  V0209991C000012200019N0480001N9+01131+00581101281ADDGF100991999999999999999999MA1999999086621MW1001
0165999999129311952101522005+29350-098450SAO  +0182BRX  V02033859006752200059N024000599+02285+00395101915ADDGF100005999999999999999999MA1999999099805EQDN01 00000JPWTH 1QNNG11U1 99999K11 1 00039L11 1 01500M11 1 29470N11 1 00000Q11 1 10191S11 1 00073V11 1 00000W11 1 18013
0081226020999991952100906004+63817+030650FM-12+018199999V0201101N00311002401CN0100001N9+00221+00221100141ADDAA199003091AY171999GF108991081061002501999999KA1999N+00001MD1710071+9999MW1021
038899999914842195203271800E+40667-089683SAO  +020199999V02029359006250115849N024000599+00335-00615102215ADDAA101000095GA1999+011584084GA2999+999999999GA3999+999999999GA4999+999999999GD13065+9999999GD20005+9999999GD30005+9999999GD40005+9999999GF106065999999999999999999MA1999999099735EQDN01 00000JPWTH 1QNNE11 1 00408E11 1 00000E11 1 00000E11 1 00000G11 1 00038H11 1 11038H11 1 00999H11 1 00999H11 1 00999K11 1 00021L11 1 01500M11 1 29450N11 1 00000Q11 1 10221S11 1 00038V11 1 00808W11 1 78012
0043639700999991952030112004-10000+039700FM-12+004199999V0200201N00621220001CN0600001N9+03111+02441100951ADDAY101999GF102991021011008001001021MW1021
039470296026410195207261400C+60500-145500SAO  +0013CDV  V02099999000050045749N0112005N1+00675+00675102175ADDAA101000095GA1021+001834074GA2061+004574064GA3999+999999999GA4999+999999999GD19025+9999999GD29065+9999999GD39005+9999999GD49005+9999999GF106065999999999999999999MA1999999102005MW1001EQDN01 00000JPWTH 1QNNE11 1 09903E11 1 09907E11 1 09900E11 1 09900G11 1 00015H11 1 16006H11 1 15015H11 1 00999H11 1 00999K11 1 00044L11 1 00700M11 1 30120N11 1 00000Q11 1 10217S11 1 00044V11 1 00807W11 1 00000
0377999999147561952121100005+41250-070067SAO  +0014ACK  V02011359005252200059N024000599+00675+00615101905ADDGA1999+076204024GA2999+999999999GA3999+999999999GA4999+999999999GD14085+9999993GD20005+9999999GD30005+9999999GD40005+9999999GF108035999999999999999999MA1999999101865EQDN01 00000JPWTH 1QNNE11 1 00510E11 1 00000E11 1 00000E11 1 00000G11U1 99999H11 1 37250H11 1 00999H11 1 00999H11 1 00999K11 1 00043L11 1 01500M11 1 30080N11 1 00000Q11 1 10190S11 1 00044V11 1 01004W11 1 34010
0066724836232081952051608004+38667-121400SAO  +0024MCC  V0203401N005112200019N0240001N9+01691+00631101081ADDGA1001+999999999GF100991999999999999999999MA1999999100781MW1001
0076912750216031952090813004+16733-169517SAO  +0002PJON V0200701N007712200019N0160001N9+02681+02351101191ADDGA1021+006009089GA2081+060009029GF108991999999999999999999MA1999999101121
0082718310999991952051802004+49417-082467SAO  +0229CYYU V0203151N002610240019N0240001N1+00801+00631102241ADDGA1021+010509059GA2061+024009039GF107991999999999999999999MA1999999099391MW1001
0269999999149371952103012005+99999+999999SAO  +999999999V02013559001552200059N019200599+00175-00675101465ADDGD10995+9999999GD20995+9999999GD30995+9999999GD40995+9999999GF100005999999999999999999MA1999999099025EQDN01 00000JPWTH 1QNNE11 1 00099E11 1 00099E11 1 00099E11 1 00099G11U1 99999K11 1 00020L11 1 01200M11 1 29240N11 1 00000Q11 1 10146S11 1 00035V11 1 00000W11 1 44003
0377999999148551952050501005+42083-087833SAO  +0197NBU  V02022559003150137249N019200599+02505+01335100895ADDGA1999+013724084GA2999+060964004GA3999+999999999GA4999+999999999GD13055+9999999GD23065+9999999GD30005+9999999GD40005+9999999GF107075999999999999999999MA1999999098615EQDN01 00000JPWTH 1QNNE11 1 00406E11 1 00408E11 1 00000E11 1 00000G11 1 00045H11 1 11045H11 1 32200H11 1 00999H11 1 00999K11 1 00056L11 1 01200M11 1 29120N11 1 00000Q11 1 10089S11 1 00077V11 1 00909W11 1 66006
0269999999240241952113022005+44050-101600SAO  +0672PHP  V02018059005252200059N024000599+00065-01065101355ADDGD11995+9999993GD20995+9999999GD30995+9999999GD40995+9999999GF102015999999999999999999MA1999999093195EQDN01 00000JPWTH 1QNNE11 1 00199E11 1 00099E11 1 00099E11 1 00099G11U1 99999K11 1 00013L11 1 01500M11 1 27520N11 1 00000Q11 1 10135S11 1 00033V11 1 00301W11 1 55010
0377999999137731952052517005+38500-077300SAO  +0004NYG  V02013559005250091449N024000599+02505+01945101055ADDGA1999+009144084GA2999+076204004GA3999+999999999GA4999+999999999GD13065+9999999GD23015+9999999GD30005+9999999GD40005+9999999GF106065999999999999999999MA1999999101025EQDN01 00000JPWTH 1QNNE11 1 00407E11 1 00401E11 1 00000E11 1 00000G11 1 00030H11 1 11030H11 1 32250H11 1 00999H11 1 00999K11 1 00067L11 1 01500M11 1 29830N11 1 00000Q11 1 10105S11 1 00077V11 1 00808W11 1 44010
0066749020999991952121812004+45583-070867SAO  +0415CYXG V0202701N002610075019N0096001N1-00481-00531101021ADDGA1081+007509059GF108991999999999999999999MA1999999095901MW1711
0399722670230421952030623003+33650-101833SAO  +0990LBB  V02018059005752200059N0240005N1+01835+00115101735ADDGA1999+018294084GA2999+999999999GA3999+999999999GA4999+999999999GD10005+9999999GD20005+9999999GD30005+9999999GD40005+9999999GF100005999999999999999999MA1999999090525MW1001EQDQ01    003SCCGA1N01 00000JPWTH 1QNNE11 1 00000E11 1 00000E11 1 00000E11 1 00000G11U1 99999H11 1 11060H11 1 00999H11 1 00999H11 1 00999K11 1 00034L11 1 01500M11 1 26730N11 1 00000Q11 1 10173S11 1 00065V11 1 00000W11 1 55011
0269999999138991952020404005+30467-087200SAO  +0034PNS  V02020359004652200059N016000599+01835+01675100445ADDGD12995+9999999GD20995+9999999GD30995+9999999GD40995+9999999GF103035999999999999999999MA1999999100005EQDN01 00000JPWTH 1QNNE11 1 00299E11 1 00099E11 1 00099E11 1 00099G11U1 99999K11 1 00062L11 1 01000M11 1 29530N11 1 00000Q11 1 10044S11 1 00065V11 1 00404W11 1 56009
0066172800999991952010512004+37883+040183SAO  +0677LTCC V0203151N002112200019N0480001N1+00131-00091090381ADDGA1021+999999001GF102991999999999999999999MA1999999094451MW1001
0269999999149391952080113005+40850-096767SAO  +036099999V02013559005250365849N024000599+02225+01615101525ADDGD13995+9999999GD20995+9999999GD30995+9999999GD40995+9999999GF105055999999999999999999MA1999999097365EQDN01 00000JPWTH 1QNNE11 1 00499E11 1 00099E11 1 00099E11 1 00099G11 1 00120K11 1 00061L11 1 01500M11 1 28750N11 1 00000Q11 1 10152S11 1 00072V11 1 00606W11 1 44010
0082724240138071952051008004+37900-085967SAO  +0223FTK  V0209991C000012200019N0112001N9+01691+01631100251ADDGA1021+021009039GA2061+075009029GF108991999999999999999999MA1999999097601MW1001
0043961630999991952081306004-00883+100350FM-12+000399999V0203201N001519999999N0400001N9+02891+02331100971ADDAY121999GF105991011011002501041001MW1001
0269999999138701952041001005+31533-082517SAO  +0062AMG  V02011359004652200059N024000599+02005+01335102105ADDGD10995+9999999GD20995+9999999GD30995+9999999GD40995+9999999GF100005999999999999999999MA1999999101355EQDN01 00000JPWTH 1QNNE11 1 00099E11 1 00099E11 1 00099E11 1 00099G11U1 99999K11 1 00056L11 1 01500M11 1 29930N11 1 00000Q11 1 10210S11 1 00068V11 1 00000W11 1 34009
0057307030999991952020618004+52967-101983FM-12+060799999V0209991C00001220001CN9999999N9-01611-01781101841ADDAY121999GF108991001001999999021999MD1810161+9999MW1021
0066035833999991952051323004+52333+000550SAO  +0015EGUL V0202301N001512200019N0160001N9+01191+00741102201ADDGA1001+999999999GF100991999999999999999999MA1999999102031MW1001
017699999923187195209101200E+34750-118733SAO  +1379SDB  V02031559005252200059N024000599+00725+00565100715ADDAA101000095GF100005999999999999999999MA1999999085745EQDN01 00000JPWTH 1QNNG11U1 99999K11 1 00042L11 1 01500M11 1 25320N11 1 00000Q11 1 10071S11 1 00045V11 1 00000W11 1 88010
0082108690999991952010521004+48317+011950SAO  +0467EDSE V0202701N003110021019N0064001N1+00021+00021102811ADDGA1061+002109079GA2021+003009079GF108991999999999999999999MA1999999096921MW1111
0296999999433171952052512005+33667+131033SAO  +0012RJFZ V02099999000050762049N016000599+01395+01175101735ADDGA1999+076204024GD14085+9999999GD20995+9999999GD30995+9999999GD40995+9999999GF108085999999999999999999MA1999999101495EQDN01 00000JPWTH 1QNNE11 1 00610E11 1 00099E11 1 00099E11 1 00099G11 1 00250H11 1 37250K11 1 00053L11 1 01000M11 1 29970N11 1 00000Q11 1 10173S11 1 00057V11 1 01010W11 1 00000
0057325830999991952072620004+52983+158483FM-12+002499999V0201401N00211002401CN0100001N9+99999+99999999999ADDAY121999GF108991081061002501999999MD1210121+9999MW1021
031399999923230195210211900E+37733-122200SAO  +000599999V02024859002650027449N004800599+01395+01175101805ADDAA101000095GA1999+002744074GD14085+9999999GD20995+9999999GD30995+9999999GD40995+9999999GF108085999999999999999999MA1999999101765MW1455EQDN01 07000JPWTH 1QNNE11 1 00610E11 1 00099E11 1 00099E11 1 00099G11 1 00009H11 1 16009K11 1 00053L11 1 00300M11 1 30050N11 1 07000Q11 1 10180S11 1 00057V11 1 01010W11 1 76005
0275722486139421952031419003+32517-092050SAO  +0029MLU  V02009059004650762049N0240005N1+01785+00615101295ADDGD14995+9999999GD20995+9999999GD30995+9999999GD40995+9999999GF108075999999999999999999MA1999999100985MW1001EQDN01 00000JPWTH 1QNNE11 1 00699E11 1 00099E11 1 00099E11 1 00099G11 1 00250K11 1 00043L11 1 01500M11 1 29820N11 1 00000Q11 1 10129S11 1 00064V11 1 01009W11 1 33009
0050749105999991952120609004+40733-073600SAO  +003899999V0202701N006212200019N0128001N1+00521+00081100641ADDGF100991999999999999999999MA1999999100301MW1001
0066466960999991952121422004+25050+121533SAO  +0006RCTP V0201351N004110030019N0016001N1+01851+01851101901ADDGA1081+003009079GF108991999999999999999999MA1999999101791MW1631
0078040890999991952072512004+65267-014417FM-12+002499999V0202401N00671001501CN0200001N9+01391+99999999999ADDAY121061GA1999+000159999GF107991061051001501051051MW1021EQDQ01    003SCCGA1
0269999999147701952061716005+40900-076783SAO  +013599999V02024859005750152449N011200599+03335+02225100755ADDGD13995+9999999GD20995+9999999GD30995+9999999GD40995+9999999GF106065999999999999999999MA1999999099155EQDN01 00000JPWTH 1QNNE11 1 00499E11 1 00099E11 1 00099E11 1 00099G11 1 00050K11 1 00072L11 1 00700M11 1 29280N11 1 00000Q11 1 10075S11 1 00092V11 1 00707W11 1 76011
0415723825231311952072122003+34583-117383SAO  +0877VCV  V02020359006752200059N0400005N9+03615+00835101055ADDGA1999+027434084GA2999+085344004GA3999+999999999GA4999+999999999GD10005+9999999GD20005+9999999GD30005+9999999GD40005+9999999GF100005999999999999999999MA1999999091305MW1001EQDQ01    003SCCGA1Q02    003SCCGA2N01 00000JPWTH 1QNNE11 1 00000E11 1 00000E11 1 00000E11 1 00000G11U1 99999H11 1 11090H11 1 32280H11 1 00999H11 1 00999K11 1 00047L11 1 02500M11 1 26960N11 1 00000Q11 1 10105S11 1 00097V11 1 00000W11 1 56013
0051106140999991952061505004+49417+007583SAO  +0240EDAR V0209991C000010075019N0020001N9+01281+01221999999ADDGA1081+007509059GF108991999999999999999999MW1451
0165999999938051952103123005+30433-084333SAO  +002199999V02099999000052200059N019200599+01894+01065102174ADDGF100005999999999999999999MA1999999101934EQDN01 00000JPWTH 1QNNG11U1 99999K11 1 00051L11 1 01200M11 1 30100N11 1 00000Q11 1 10217S11 1 00066V11 1 00000W11 1 00000
0269999999265161952041421005+61583-159533SAO  +002499999V02002359007252200059N064000599-00065-00225098655ADDGD11995+9999993GD20995+9999999GD30995+9999999GD40995+9999999GF101005999999999999999999MA1999999098315EQDN01 00000JPWTH 1QNNE11 1 00199E11 1 00099E11 1 00099E11 1 00099G11U1 99999K11 1 00028L11 1 04000M11 1 29030N11 1 00000Q11 1 09865S11 1 00031V11 1 00100W11 1 12014
028099999914938195210130300E+40100-092550SAO  +029699999V02031559003650365849N016000599+01335+00335101395ADDAA101000095GD14995+9999999GD20995+9999999GD30995+9999999GD40995+9999999GF108085999999999999999999MA1999999097905EQDN01 00000JPWTH 1QNNE11 1 00699E11 1 00099E11 1 00099E11 1 00099G11 1 00120K11 1 00038L11 1 01000M11 1 28910N11 1 00000Q11 1 10139S11 1 00056V11 1 01010W11 1 88007
0269999999939871952042122005+31233-094750SAO  +0089LFK  V02015859007252200059N024000599+02674+01785101194ADDGD12995+9999999GD22995+9999999GD32995+9999999GD40995+9999999GF104035999999999999999999MA1999999100074EQDN01 00000JPWTH 1QNNE11 1 00299E11 1 00299E11 1 00299E11 1 00099G11U1 99999K11 1 00064L11 1 01500M11 1 29550N11 1 00000Q11 1 10119S11 1 00080V11 1 00504W11 1 54014
0269999999139871952052107005+37150-094500SAO  +030199999V02015859005752200059N024000599+01445+00945101155ADDGD10995+9999999GD20995+9999999GD30995+9999999GD40995+9999999GF100005999999999999999999MA1999999097665EQDN01 00000JPWTH 1QNNE11 1 00099E11 1 00099E11 1 00099E11 1 00099G11U1 99999K11 1 00049L11 1 01500M11 1 28840N11 1 00000Q11 1 10115S11 1 00058V11 1 00000W11 1 54011
0081282400999991952042918004+57883+060067FM-12+025899999V0202901N00411030001CN0040001N9+00501+00001100601ADDAA199000691AY121999GF107991011061008001041001KA1999M+00721MD1710011+9999MW1021
0079163200999991952121406004+40650+017950FM-12+002199999V0201801N00671006901CN0100001N9+01331+01111100661ADDAY121999GA1061+006909059GF107991051051008001071001IA1009MD1510011+9999MW1021
0060620111999991952101416004+32900+013283SAO  +0008HTIP V0200901N003612200019N0240001N9+02681+02301101121ADDGA1011+090009009GF102991999999999999999999MA1999999101081
0269999999939861952082023005+35000-099050SAO  +0474HBR  V02020359008852200059N024000599+03944+01835100714ADDGD12995+9999999GD20995+9999999GD30995+9999999GD40995+9999999GF102025999999999999999999MA1999999095394EQDN01 00000JPWTH 1QNNE11 1 00299E11 1 00099E11 1 00099E11 1 00099G11U1 99999K11 1 00065L11 1 01500M11 1 28170N11 1 00000Q11 1 10071S11 1 00103V11 1 00303W11 1 56017
0066716030999991952031708004+43833-066083SAO  +0043CYQI V0201351N001510090019N0160001N1-00261-00311099071ADDGA1081+009009059GF108991999999999999999999MA1999999098541MW1001
028672268893034195210132100C+32683-103200SAO  +1112HOB  V02024859004652200059N0240005N1+03175-00445100855ADDAA101000095GD10995+9999999GD20995+9999999GD30995+9999999GD40995+9999999GF100005999999999999999999MA1999999088695MW1001EQDN01 00000JPWTH 1QNNE11 1 00099E11 1 00099E11 1 00099E11 1 00099G11U1 99999K11 1 00024L11 1 01500M11 1 26190N11 1 00000Q11 1 10085S11 1 00089V11 1 00000W11 1 76009
007682193099999195204032200N-01383-048483BRAZ +0016SBBE V02036019000019999999N016000199+02621+02501100971ADDGA1051+005001061GA2081+030001041GF108991999999999999999999MA1100941100711
0098471420999991952091901004+35900+128650SAO  +0037RKTN V0209991C000010540019N0128001N9+02301+01741101151ADDGA1011+007509089GA2021+021009039GA3061+054009039GF107991999999999999999999MA1999999100711MW1001
0035727834999991952101616004+47783-116817SAO  +0707COE  V0200901N001512200019N0480001N1+00961+00191999999ADDGF102991999999999999999999MW1001
0082467630999991952091101004+24333+121617SAO  +0013RCYU V0200901N002112200019N0192001N1+03071+02521100531ADDGA1011+009909089GA2011+069009009GF102991999999999999999999MA1999999100301MW1001
0269999999148251952012013005+41017-083667SAO  +0245FDY  V02029359010350091449N016000599+00285-00115100885ADDGD12995+9999999GD24995+9999999GD30995+9999999GD40995+9999999GF108085999999999999999999MA1999999097935EQDN01 00000JPWTH 1QNNE11 1 00299E11 1 00699E11 1 00099E11 1 00099G11 1 00030K11 1 00030L11 1 01000M11 1 28920N11 1 00000Q11 1 10088S11 1 00037V11 1 01010W11 1 78020
017699999993817195208101300E+38050-087533SAO  +0116EVV  V02031559003152200059N024000599+02334+01835101274ADDAA101000095GF100005999999999999999999MA1999999099904EQDN01 00000JPWTH 1QNNG11U1 99999K11 1 00065L11 1 01500M11 1 29500N11 1 00000Q11 1 10127S11 1 00074V11 1 00000W11 1 88006
0377999999433201952092505005+35317+139650SAO  +000899999V02015859006750548649N024000599+02835+02005101045ADDGA1999+007624084GA2999+024384034GA3999+054864024GA4999+999999999GD12015+9999999GD22035+9999999GD33035+9999999GD40005+9999999GF106065999999999999999999MA1999999100955EQDN01 00000JPWTH 1QNNE11 1 00201E11 1 00204E11 1 00404E11 1 00000G11 1 00180H11 1 11025H11 1 23080H11 1 37180H11 1 00999K11 1 00068L11 1 01500M11 1 29810N11 1 00000Q11 1 10104S11 1 00083V11 1 00807W11 1 54013
0009725046147071952031403004+41333-072050SAO  +0006GON  V02099999999999999999N0000001N1+99999+99999999999ADDMW1001
038899999912844195202051800E+26683-080100SAO  +000699999V02029359007750076249N019200599+02285+01395101155ADDAA101000095GA1999+007624084GA2999+999999999GA3999+999999999GA4999+999999999GD13055+9999999GD20005+9999999GD30005+9999999GD40005+9999999GF105055999999999999999999MA1999999101085EQDN01 00000JPWTH 1QNNE11 1 00406E11 1 00000E11 1 00000E11 1 00000G11 1 00025H11 1 11025H11 1 00999H11 1 00999H11 1 00999K11 1 00057L11 1 01200M11 1 29850N11 1 00000Q11 1 10115S11 1 00073V11 1 00606W11 1 78015
0383725287047241952122001003+43100-078950SAO  +0180IAG  V02009059001552200059N0112005N9-00335-00785103095ADDGA1031+009144064GA2999+999999999GA3999+999999999GA4999+999999999GD12035+9999999GD20005+9999999GD30005+9999999GD40005+9999999GF103035999999999999999999MA1999999100785MW1001EQDN01 00000JPWTH 1QNNE11 1 00204E11 1 00000E11 1 00000E11 1 00000G11U1 99999H11 1 15030H11 1 00999H11 1 00999H11 1 00999K11 1 00018L11 1 00700M11 1 29760N11 1 00000Q11 1 10309S11 1 00026V11 1 00404W11 1 33003
032972353013967195202160700C+35400-097600SAO  +0390OKC  V02033859005750487749N0128005N1-00065-00175101765ADDAA101000095GA1081+048774044GD14085+9999999GD20995+9999999GD30995+9999999GD40995+9999999GF108085999999999999999999MA1999999096955MW1715EQDQ01    003PRSWM1N01 04000JPWTH 1QNNE11 1 00610E11 1 00099E11 1 00099E11 1 00099G11 1 00160H11 1 21160K11 1 00029L11 1 00800M11 1 28630N11 1 04000Q11 1 10176S11 1 00031V11 1 01010W11 1 18011
0082036490999991952102916004+51750-001583SAO  +0086EGVN V0202701N005112200019N0160001N9+01241+00691100581ADDGA1021+007509089GA2011+015009059GF102991999999999999999999MA1999999099491MW1001
034072519014771195201230700C+43117-076117SAO  +0130SYR  V02024859006750167649N0192005N9+00505-00225100105ADDAA101000095GA1021+009144064GA2061+016764064GD12025+9999999GD24065+9999999GD30995+9999999GD40995+9999999GF108085999999999999999999MA1999999098585MW1001EQDN01 00000JPWTH 1QNNE11 1 00202E11 1 00608E11 1 00099E11 1 00099G11 1 00055H11 1 15030H11 1 15055K11 1 00028L11 1 01200M11 1 29110N11 1 00000Q11 1 10010S11 1 00041V11 1 01010W11 1 76013
0057315320999991952062714004+50817+132167FM-12+023499999V0209991C00001220001CN9999999N9+02001+01891099991ADDAY121999GF102991021071017501001001MD1310121+9999MW1021
0066722225038551952030216004+30350-087317SAO  +0009NPA  V0201351N006710075019N0096001N1+01851+01301101501ADDGA1081+007509079GF108991999999999999999999MA1999999101321MW1051
0035749015999991952032120004+39767-084833SAO  +0348RID  V0200451N006710600019N0128001N1+01521+99999999999ADDGF108991999999999999999999MW1001
0275999999937181952111300005+33683-078933SAO  +000899999V02099999000052200059N004800599+00614+00565102074ADDGD10995+9999999GD20995+9999999GD30995+9999999GD40995+9999999GF100005999999999999999999MA1999999101964MW1045EQDN01 08000JPWTH 1QNNE11 1 00099E11 1 00099E11 1 00099E11 1 00099G11U1 99999K11 1 00042L11 1 00300M11 1 30110N11 1 08000Q11 1 10207S11 1 00043V11 1 00000W11 1 00000
0050477430999991952051519004+35500+133233SAO  +0006RJOH V0201351N002612200019N0192001N1+00851+00521101801ADDGF100991999999999999999999MA1999999101691MW1001
0076603400999991952040112004+35150-002917FM-12+001199999V0202701N00511012001CN0200001N9+01891+00611100981ADDAY111999GF108991999011012501001001MD1110111+9999MW1021EQDQ01+000062SCOTLC
0070489400999991952071612004+17950+102567FM-12+017099999V0201801N004619999999N0200001N9+02781+02501100591ADDAY121999GF107991011091008001001031KA1999M+03281MD1210121+9999MW1131
0383999999139981952082412005+37633-097267SAO  +043299999V02013559005252200059N019200599+01725+01565101865ADDGA1999+021344094GA2999+036584184GA3999+091444024GA4999+999999999GD12025+9999999GD22015+9999999GD33045+9999993GD40005+9999999GF106025999999999999999999MA1999999096955MW1955EQDN01 01000JPWTH 1QNNE11 1 00202E11 1 00201E11 1 00305E11 1 00000G11U1 99999H11 1 18070H11 1 28120H11 1 37300H11 1 00999K11 1 00060L11 1 01200M11 1 28630N11 1 01000Q11 1 10186S11 1 00063V11 1 00803W11 1 44010
0377999999136021952052705005+32267-064850SAO  +0013MYUN V02022559003652200059N016000599+02065+01725101965ADDGA1999+009144064GA2999+999999999GA3999+999999999GA4999+999999999GD12025+9999999GD20005+9999999GD30005+9999999GD40005+9999999GF102025999999999999999999MA1999999101835EQDN01 00000JPWTH 1QNNE11 1 00202E11 1 00000E11 1 00000E11 1 00000G11U1 99999H11 1 15030H11 1 00999H11 1 00999H11 1 00999K11 1 00063L11 1 01000M11 1 30070N11 1 00000Q11 1 10196S11 1 00069V11 1 00202W11 1 66007
0082722436129061952050814004+29600-095167SAO  +0012EFD  V0201801N004110045019N0192001N9+02241+02071101351ADDGA1051+004509059GA2011+075009009GF107991999999999999999999MA1999999101191MW1001
0377999999139041952021906005+30200-097667SAO  +0154BSM  V02015859008250039649N016000599+01835+01615101195ADDGA1999+003964074GA2999+012194074GA3999+999999999GA4999+999999999GD13065+9999999GD23075+9999999GD30005+9999999GD40005+9999999GF107075999999999999999999MA1999999099325EQDN01 00000JPWTH 1QNNE11 1 00407E11 1 00409E11 1 00000E11 1 00000G11 1 00013H11 1 16013H11 1 16040H11 1 00999H11 1 00999K11 1 00061L11 1 01000M11 1 29330N11 1 00000Q11 1 10119S11 1 00065V11 1 00909W11 1 54016
0323999999129181952122321005+99999+999999SAO  +999999999V02011359002150609649N016000599+01115+00285101865ADDGA1999+036584034GA2999+060964024GD12035+9999999GD24055+9999999GD30995+9999999GD40995+9999999GF108085999999999999999999MA1999999101595EQDN01 00000JPWTH 1QNNE11 1 00204E11 1 00606E11 1 00099E11 1 00099G11 1 00200H11 1 23120H11 1 37200K11 1 00037L11 1 01000M11 1 30000N11 1 00000Q11 1 10186S11 1 00052V11 1 01010W11 1 34004
0275722555129351952112922003+28717-096250SAO  +0005PSX  V02002359006750021349N0160005N1+00675+00565102405ADDGD13995+9999999GD24995+9999999GD30995+9999999GD40995+9999999GF108085999999999999999999MA1999999102375MW1001EQDN01 00000JPWTH 1QNNE11 1 00499E11 1 00699E11 1 00099E11 1 00099G11 1 00007K11 1 00042L11 1 01000M11 1 30230N11 1 00000Q11 1 10240S11 1 00044V11 1 01010W11 1 12013
0066471030999991952042102004+37967+124667SAO  +0193RKSP V0203381N005710210019N0240001N1+00851+00581102231ADDGA1081+021009039GF108991999999999999999999MA1999999102201MW1001
0066725377148041952110421004+42617-082817SAO  +0176MTC  V0202001N007212200019N0160001N9+01021-00151101191ADDGA1001+999999999GF100991999999999999999999MA1999999098951MW1001
0095165600999991952041306004+39250+009050FM-12+001299999V0201401N00721220001CN0080001N9+01561+01111101971ADDAY141999GA1041+030009049GA2081+999999029GF108991021071008001021999IA1009MD1510011+9999MW1051
038899999903813195206160700E+32700-083650SAO  +0108MCN  V02015859002650365849N019200599+02335+02225101395ADDAA101000095GA1999+036584034GA2999+999999999GA3999+999999999GA4999+999999999GD13065+9999999GD20005+9999999GD30005+9999999GD40005+9999999GF106065999999999999999999MA1999999100105EQDN01 00000JPWTH 1QNNE11 1 00408E11 1 00000E11 1 00000E11 1 00000G11 1 00120H11 1 23120H11 1 00999H11 1 00999H11 1 00999K11 1 00072L11 1 01200M11 1 29560N11 1 00000Q11 1 10139S11 1 00074V11 1 00808W11 1 54005
0082785140999991952042522004+18500-067133SAO  +0075TJBQ V0200901N002612200019N0240001N1+02571+02301101401ADDGA1021+007509089GA2021+027009039GF102991999999999999999999MA1999999100581MW1001
0081287970999991952092306004+54200+072967FM-12+012099999V0203201N00721001501CN0100001N9+01221+00781101591ADDAA199003091AY161999GF108991071071001501021999KA1999N+00891MD1110071+9999MW1021
0269999999138851952121922005+31417-087033SAO  +0078EVR  V02018059005252200059N024000599+01785+01065101865ADDGD12995+9999999GD22995+9999999GD32995+9999999GD40995+9999999GF103035999999999999999999MA1999999100915EQDN01 00000JPWTH 1QNNE11 1 00299E11 1 00299E11 1 00299E11 1 00099G11U1 99999K11 1 00051L11 1 01500M11 1 29800N11 1 00000Q11 1 10186S11 1 00064V11 1 00404W11 1 55010
0154102420999991952022706004+52917+010183FM-12+007199999V0203101N00211003001CN0048001N9+00281+00171102501ADDAA199000691AY151999GA1081+003009079GA2041+002109079GA3041+002109079GF108991041061002501999999IA1089KA1999N+00171MD1010021+9999MW1021EQDQ01+081121APOA  
0066593530999991952011805004+23517+120800SAO  +240699999V0202251N001010021019N0002001N1+00521+00521102841ADDGA1081+002109079GF108991999999999999999999MA1999999076531MW1451
017699999913957195209300700E+32467-093817SAO  +0077SHV  V02004559001552200059N016000599+01895+01445101725ADDAA101000095GF100005999999999999999999MA1999999100815EQDN01 00000JPWTH 1QNNG11U1 99999K11 1 00058L11 1 01000M11 1 29770N11 1 00000Q11 1 10172S11 1 00066V11 1 00000W11 1 22003
0269999999265331952121723005+66917-151517SAO  +020599999V02002359006750228649N024000599-00225-00785100565ADDGD14995+9999999GD20995+9999999GD30995+9999999GD40995+9999999GF108065999999999999999999MA1999999097935EQDN01 00000JPWTH 1QNNE11 1 00699E11 1 00099E11 1 00099E11 1 00099G11 1 00075K11 1 00018L11 1 01500M11 1 28920N11 1 00000Q11 1 10056S11 1 00028V11 1 01008W11 1 12013
0377999999128411952032806005+28550-081333SAO  +003799999V02036059004152200059N024000599+01395+01225101765ADDGA1999+009144064GA2999+999999999GA3999+999999999GA4999+999999999GD12045+9999999GD20005+9999999GD30005+9999999GD40005+9999999GF104045999999999999999999MA1999999101325EQDN01 00000JPWTH 1QNNE11 1 00205E11 1 00000E11 1 00000E11 1 00000G11U1 99999H11 1 15030H11 1 00999H11 1 00999H11 1 00999K11 1 00054L11 1 01500M11 1 29920N11 1 00000Q11 1 10176S11 1 00057V11 1 00505W11 1 11008
0098718150999991952050113004+48550-058550SAO  +0013CYJT V0201131N002610027019N0160001N1+00301+00241098881ADDGA1021+001809079GA2051+002709079GA3021+006009079GF108991999999999999999999MA1999999098651MW1611
0383984280412241952081423003+14500+120917SAO  +0002RPMS V02022559002150304849N0160005N1+02675+02445100555ADDGA1021+006104084GA2031+030484034GA3031+060964024GA4999+999999999GD12025+9999999GD23035+9999999GD34035+9999999GD40005+9999999GF108055999999999999999999MA1999999100515MW1001EQDN01 00000JPWTH 1QNNE11 1 00202E11 1 00404E11 1 00604E11 1 00000G11 1 00100H11 1 11020H11 1 23100H11 1 37200H11 1 00999K11 1 00076L11 1 01000M11 1 29680N11 1 00000Q11 1 10055S11 1 00080V11 1 01006W11 1 66004
0269999999240251952082003005+44383-100283SAO  +052599999V02029359002152200059N032000599+02505+02005100755ADDGD10995+9999999GD20995+9999999GD30995+9999999GD40995+9999999GF100005999999999999999999MA1999999094755EQDN01 00000JPWTH 1QNNE11 1 00099E11 1 00099E11 1 00099E11 1 00099G11U1 99999K11 1 00068L11 1 02000M11 1 27980N11 1 00000Q11 1 10075S11 1 00077V11 1 00000W11 1 78004
0057601300999991952020212004+34000-006833FM-12+006899999V0201101N00311007501CN0150001N9+01611+01111102561ADDAY111999GF107991071051008001999999MD1810051+9999MW1031
038899999924135195211211800E+45950-112500SAO  +168799999V02099999000052200059N048000599-00785-01335103125ADDAA101000095GA1999+012194064GA2999+999999999GA3999+999999999GA4999+999999999GD10005+9999999GD20005+9999999GD30005+9999999GD40005+9999999GF100005999999999999999999MA1999999083515EQDN01 00000JPWTH 1QNNE11 1 00000E11 1 00000E11 1 00000E11 1 00000G11U1 99999H11 1 15040H11 1 00999H11 1 00999H11 1 00999K11 1 00008L11 1 03000M11 1 24660N11 1 00000Q11 1 10312S11 1 00018V11 1 00000W11 1 00000
031372785024157195211280800C+47617-117517SAO  +0721GEG  V02099999000050018349N0128005N1-00725-00945102815ADDAA101000095GA1081+001834074GD14085+9999999GD20995+9999999GD30995+9999999GD40995+9999999GF108085999999999999999999MA1999999093975MW1001EQDN01 00000JPWTH 1QNNE11 1 00610E11 1 00099E11 1 00099E11 1 00099G11 1 00006H11 1 16006K11 1 00015L11 1 00800M11 1 27750N11 1 00000Q11 1 10281S11 1 00019V11 1 01010W11 1 00000
0029985430999991952041800004+12367+123617FM-12+001199999V02099999999999999999N9999999N9+99999+99999999999ADDKA1999M+03281KA2999N+02561
0269999999939881952063014005+34167-091933SAO  +0063PBF  V02022559004652200059N024000599+03004+02225101694ADDGD10995+9999999GD20995+9999999GD30995+9999999GD40995+9999999GF100005999999999999999999MA1999999100954EQDN01 00000JPWTH 1QNNE11 1 00099E11 1 00099E11 1 00099E11 1 00099G11U1 99999K11 1 00072L11 1 01500M11 1 29810N11 1 00000Q11 1 10169S11 1 00086V11 1 00000W11 1 66009
028099999914919195205190400E+46917-098683SAO  +0455JMS  V02013559003150274349N024000599+01175+00335102135ADDAA101000095GD13995+9999999GD20995+9999999GD30995+9999999GD40995+9999999GF106065999999999999999999MA1999999096685EQDN01 00000JPWTH 1QNNE11 1 00499E11 1 00099E11 1 00099E11 1 00099G11 1 00090K11 1 00038L11 1 01500M11 1 28550N11 1 00000Q11 1 10213S11 1 00053V11 1 00707W11 1 44006
0350999999432131952011404005+35167+129133SAO  +0005RKPP V02031559004150137249N024000599+00395+00065101195ADDGA1999+007624154GA2999+013724064GA3999+030484034GD13005+9999999GD24055+9999999GD30085+9999999GD40995+9999999GF108085999999999999999999MA1999999101125EQDN01 00000JPWTH 1QNNE11 1 00400E11 1 00606E11 1 00010E11 1 00099G11 1 00045H11 1 17025H11 1 15045H11 1 23100K11 1 00033L11 1 01500M11 1 29860N11 1 00000Q11 1 10119S11 1 00039V11 1 01010W11 1 88008
0269999999147481952010108005+42167-076900SAO  +029099999V02013559002150051849N011200599+00565+00445101595ADDGD14995+9999999GD20995+9999999GD30995+9999999GD40995+9999999GF108085999999999999999999MA1999999098075EQDN01 00000JPWTH 1QNNE11 1 00699E11 1 00099E11 1 00099E11 1 00099G11 1 00017K11 1 00040L11 1 00700M11 1 28960N11 1 00000Q11 1 10159S11 1 00042V11 1 01010W11 1 44004
0092160800999991952031321004+45467+009283FM-12+012099999V0209991C00001220001CN0040001N9+00561+00391101021ADDAY121999GA1041+030009049GF104991999001999999071001MD1310031+9999MW1051EQDQ01+000002SCOTLC
0082717070999991952070222004+46167-060050SAO  +0062CYQY V0202031N008210450019N0240001N1+02181+01131101061ADDGA1061+045009039GA2021+066009019GF108991999999999999999999MA1999999100341MW1001
0377723810231141952042905003+34900-117883SAO  +0697EDW  V02022559008852200059N0240005N9+01115+00835101645ADDGA1021+012194064GA2999+999999999GA3999+999999999GA4999+999999999GD12025+9999999GD20005+9999999GD30005+9999999GD40005+9999999GF102025999999999999999999MA1999999093635EQDN01 00000JPWTH 1QNNE11 1 00202E11 1 00000E11 1 00000E11 1 00000G11U1 99999H11 1 15040H11 1 00999H11 1 00999H11 1 00999K11 1 00047L11 1 01500M11 1 27650N11 1 00000Q11 1 10164S11 1 00052V11 1 00202W11 1 66017
0165999999231991952110304005+32833-115667SAO  -001399999V02029359005252200059N024000599+02005+00565101315ADDGF100005999999999999999999MA1999999101465EQDN01 00000JPWTH 1QNNG11U1 99999K11 1 00042L11 1 01500M11 1 29960N11 1 00000Q11 1 10131S11 1 00068V11 1 00000W11 1 78010
011572458613922195207221200D+38817-097650SAO  +0379SLN  V0201801N007712200019N0240001N1+02631+01691101021ADDAA101000095AA224000591AJ199999900374099GF107991999999999999999999KA1999M+03851KA2999N+02191MA1999999096681MW1001
0082745980137021952010300004+37083-076350SAO  +0003LFI  V0200201N002610003019N0010001N9+00831+00781102241ADDGA1061+000309079GA2081+003009079GF108991999999999999999999MA1999999102171MW1451
0275702670264151952071016003+64000-145733SAO  +0389BIG  V02009059003652200059N0640005N1+01395+00565102275ADDGD12995+9999999GD23995+9999993GD30995+9999999GD40995+9999999GF105025999999999999999999MA1999999097605MW1001EQDN01 00000JPWTH 1QNNE11 1 00299E11 1 00399E11 1 00099E11 1 00099G11U1 99999K11 1 00042L11 1 04000M11 1 28820N11 1 00000Q11 1 10227S11 1 00057V11 1 00602W11 1 33007
0066723550139451952080108004+34650-098400SAO  +0361FSI  V0201101N003612200019N0320001N9+02611+01831101651ADDGA1001+999999999GF100991999999999999999999MA1999999097561MW1001
0269999999938361952080317005+31250-081467SAO  +001599999V02009059003152200059N024000599+03114+02335101634ADDGD12995+9999999GD20995+9999999GD30995+9999999GD40995+9999999GF102025999999999999999999MA1999999101524EQDN01 00000JPWTH 1QNNE11 1 00299E11 1 00099E11 1 00099E11 1 00099G11U1 99999K11 1 00074L11 1 01500M11 1 29980N11 1 00000Q11 1 10163S11 1 00088V11 1 00202W11 1 33006
0092014520999991952112400004+58200+008083FM-12+001699999V0209991C00001024001CN0120001N9+00221+00221099391ADDAY161999GA1081+024009049GF108991999001999999071999MD1810101+9999MW1681EQDQ01+000002SCOTLC
0043406720999991952101400004+31983+044983FM-12+002099999V0203601N00511220001CN0200001N9+02061+99999100941ADDAY101999GF100991001001999999001001MW1021
035772458613922195211092000C+38800-097633SAO  +0383SLN  V02036059006750426749N0240005N1+00675-00175999999ADDAA101000095GA1021+012194064GA2041+042674044GA3021+076204024GA4999+999999999GD12025+9999999GD23045+9999999GD33025+9999999GD40005+9999999GF107065999999999999999999MW1001EQDN01 00000JPWTH 1QNNE11 1 00202E11 1 00405E11 1 00402E11 1 00000G11 1 00140H11 1 15040H11 1 21140H11 1 37250H11 1 00999K11 1 00029L11 1 01500N11 1 00000S11 1 00044V11 1 00907W11 1 11013
0275999999148171952111522005+44283-085417SAO  +039599999V02036059001550182949N004800599+01005+00565101425ADDGD14995+9999999GD20995+9999999GD30995+9999999GD40995+9999999GF108085999999999999999999MA1999999096685MW1045EQDN01 08200JPWTH 1QNNE11 1 00699E11 1 00099E11 1 00099E11 1 00099G11 1 00060K11 1 00042L11 1 00300M11 1 28550N11 1 08200Q11 1 10142S11 1 00050V11 1 01010W11 1 11003
0066749091999991952041409004+30667-096550SAO  +0084CFD  V0200451N001512200019N0192001N1+00961+00631102161ADDGA1021+045009039GF102991999999999999999999MA1999999101151MW1001
0269999999147771952052723005+41350-075733SAO  +028399999V02036059002152200059N024000599+02285+00835101665ADDGD12995+9999999GD20995+9999999GD30995+9999999GD40995+9999999GF101015999999999999999999MA1999999098245EQDN01 00000JPWTH 1QNNE11 1 00299E11 1 00099E11 1 00099E11 1 00099G11U1 99999K11 1 00047L11 1 01500M11 1 29010N11 1 00000Q11 1 10166S11 1 00073V11 1 00101W11 1 11004
007772351013966195211300700D+33983-098517SAO  +0310SPS  V0200501N003110450019N0240001N9-00091-00481103051ADDAA101000095GA1061+045009039GF107991999999999999999999MA1999999099221MW1001
018272306013722195206041500C+35867-078783SAO  +0135RDU  V02022559004652200059N0240005N1+03005+02065101465ADDAA101000095GF100005999999999999999999MA1999999099905MW1001EQDN01 00000JPWTH 1QNNG11U1 99999K11 1 00069L11 1 01500M11 1 29500N11 1 00000Q11 1 10146S11 1 00086V11 1 00000W11 1 66009
0377999999350491952091116005+52317+000917SAO  +006199999V02002359005750115849N011200599+01395+00615101455ADDGA1999+011584064GA2999+999999999GA3999+999999999GA4999+999999999GD13075+9999999GD20005+9999999GD30005+9999999GD40005+9999999GF107075999999999999999999MA1999999100685EQDN01 00000JPWTH 1QNNE11 1 00409E11 1 00000E11 1 00000E11 1 00000G11 1 00038H11 1 15038H11 1 00999H11 1 00999H11 1 00999K11 1 00043L11 1 00700M11 1 29730N11 1 00000Q11 1 10145S11 1 00057V11 1 00909W11 1 12011
0057602300999991952100712004+31617-008033FM-12+046699999V0209991C00001090001CN0400001N9+03111+01111101741ADDAY121999GF105991011011022501001021MD1710081+9999MW1021
0056343570999991952021006004+49567+042750FM-12+012999999V0202501N00211007801CN0100001N9+00001-00281101021ADDAY121999GF108991081061008001999999KA1999N+00001MW1021
0329724810232031952020801003+37367-120567SAO  +0054MER  V02099999000050670649N0240005N9+01335+00895101565ADDGA1031+036584034GA2081+067064024GD12035+9999999GD24085+9999999GD30995+9999999GD40995+9999999GF108085999999999999999999MA1999999100855MW1001EQDN01 00000JPWTH 1QNNE11 1 00204E11 1 00610E11 1 00099E11 1 00099G11 1 00220H11 1 23120H11 1 37220K11 1 00048L11 1 01500M11 1 29780N11 1 00000Q11 1 10156S11 1 00056V11 1 01010W11 1 00000
0070123950999991952122118004+52017+023117FM-12+014799999V0201401N00621220001CN0100001N9+00111+00111100561ADDAY121999GF103991001001999999001061KA1999M+00221MD1710411+9999MW1411
0066722686230081952071222004+34383-103317SAO  +1309CVS  V0201401N008712200019N0240001N9+02461+02021101671ADDGA1031+004509099GF102991999999999999999999MA1999999087301MW1001
038899999914933195208020100E+41533-093650SAO  +0286DSM  V02022559001052200059N024000599+02675+02065101425ADDAA101000095GA1999+011584064GA2999+073154004GA3999+999999999GA4999+999999999GD12035+9999999GD22015+9999999GD30005+9999999GD40005+9999999GF104035999999999999999999MA1999999098005EQDN01 00000JPWTH 1QNNE11 1 00204E11 1 00201E11 1 00000E11 1 00000G11U1 99999H11 1 15038H11 1 32240H11 1 00999H11 1 00999K11 1 00069L11 1 01500M11 1 28940N11 1 00000Q11 1 10142S11 1 00080V11 1 00504W11 1 66002
0383999999116211952102721005+10683-061617SAO  +0013MCGU V02009059007250091449N012800599+02835+02615100975ADDGA1999+007624084GA2999+009144064GA3999+045724044GA4999+091444024GD12025+9999999GD23035+9999999GD33025+9999999GD44075+9999999GF108085999999999999999999MA1999999100855MW1815EQDN01 02400JPWTH 1QNNE11 1 00203E11 1 00404E11 1 00402E11 1 00609G11 1 00030H11 1 11025H11 1 15030H11 1 21150H11 1 37300K11 1 00079L11 1 00800M11 1 29780N11 1 02400Q11 1 10097S11 1 00083V11 1 01010W11 1 33014
0081302530999991952111800004+57850+114200FM-12+027899999V0209991C00001220001CN0020001N9-02221-02501102081ADDAA199002091AY171999GF108991001001999999021999KA1999N-02611MD1310011+9999MW1711
0296999999240141952051815005+48150-103617SAO  +057899999V02013559002150304849N024000599+01285+00565102175ADDGA1999+030484034GD14085+9999999GD20995+9999999GD30995+9999999GD40995+9999999GF108085999999999999999999MA1999999095365EQDN01 00000JPWTH 1QNNE11 1 00610E11 1 00099E11 1 00099E11 1 00099G11 1 00100H11 1 23100K11 1 00042L11 1 01500M11 1 28160N11 1 00000Q11 1 10217S11 1 00055V11 1 01010W11 1 44004
0066718760999991952101322004+52767-108250SAO  +0547CYQW V0203151N008210120019N0240001N1+00461+99999102791ADDGA1071+012009059GF107991999999999999999999MA1999999096071MW1001
0377999999031091952100820005+36933-116050SAO  +119799999V02018059006252200059N080000599+02725+00115101085ADDGA1999+060964004GA2999+999999999GA3999+999999999GA4999+999999999GD13055+9999993GD20005+9999999GD30005+9999999GD40005+9999999GF105025999999999999999999MA1999999087375EQDN01 00000JPWTH 1QNNE11 1 00306E11 1 00000E11 1 00000E11 1 00000G11U1 99999H11 1 32200H11 1 00999H11 1 00999H11 1 00999K11 1 00034L11 1 05000M11 1 25800N11 1 00000Q11 1 10108S11 1 00081V11 1 00602W11 1 55012
0171999999137531952100202005+39450-074583SAO  +002099999V02013559002652200059N004800599+01725+01675101195ADDGF100005999999999999999999MA1999999100955MW1045EQDN01 08200JPWTH 1QNNG11U1 99999K11 1 00062L11 1 00300M11 1 29810N11 1 08200Q11 1 10119S11 1 00063V11 1 00000W11 1 44005
0091307310999991952040600004+52983+108283FM-12+048699999V0209991C00001220001CN0500001N9-01221-01611102001ADDAY121999GF106991001001999999001021KA1999N-01781MW1021EQDQ01+000062APCTENQ02+000002APC3  
0097172200999991952011912004+38433+027167SAO  +012899999V0201601N010810090019N0192001N9+01521+00741100991ADDAA124010091GA1061+009009079GF107991999999999999999999KA1999M+01631KA2999N+01131MA1999999099391
017699999913874195208250600E+33650-084417SAO  +030699999V02006859005752200059N024000599+01725+01395102105ADDAA101000095GF100005999999999999999999MA1999999098685EQDN01 00000JPWTH 1QNNG11U1 99999K11 1 00057L11 1 01500M11 1 29140N11 1 00000Q11 1 10210S11 1 00063V11 1 00000W11 1 32011
0066749331999991952091117004+26383+127750SAO  +007699999V0201581N003612200019N0240001N1+02631+02521100931ADDGA1021+004209089GF102991999999999999999999MA1999999100031MW1001
0275999999265191952042800005+62533-153900SAO  +045899999V02027059002650091449N016000599-00445-00835100915ADDGD12995+9999999GD24995+9999999GD30995+9999999GD40995+9999999GF108085999999999999999999MA1999999095295MW1715EQDN01 04000JPWTH 1QNNE11 1 00299E11 1 00699E11 1 00099E11 1 00099G11 1 00030K11 1 00017L11 1 01000M11 1 28140N11 1 04000Q11 1 10091S11 1 00024V11 1 01010W11 1 77005
0323999999116311952071403005+18467-066100SAO  +001599999V02015859001550045749N016000599+02445+02225101765ADDGA1999+004574084GA2999+030484034GD13055+9999999GD24035+9999999GD30995+9999999GD40995+9999999GF108085999999999999999999MA1999999101565EQDN01 00000JPWTH 1QNNE11 1 00406E11 1 00604E11 1 00099E11 1 00099G11 1 00015H11 1 11015H11 1 23100K11 1 00072L11 1 01000M11 1 29990N11 1 00000Q11 1 10176S11 1 00076V11 1 01010W11 1 54003
0113685900999991952051706004-29850+031050FM-12+001399999V0209991C000019999999N0060001N9+01891+01611101881ADDAA124999929AY141999GF105991999001999999051001KA1999M+02561KA2999N+01611MD1010071+9999MW1041EQDQ01+000002SCOTLC
038899999924155195206120200E+45683-118850SAO  +045599999V02031559004150167649N064000599+01395+00285100855ADDAA101000095GA1999+016764084GA2999+999999999GA3999+999999999GA4999+999999999GD13075+9999999GD20005+9999999GD30005+9999999GD40005+9999999GF107075999999999999999999MA1999999095505EQDN01 00000JPWTH 1QNNE11 1 00409E11 1 00000E11 1 00000E11 1 00000G11 1 00055H11 1 11055H11 1 00999H11 1 00999H11 1 00999K11 1 00037L11 1 04000M11 1 28200N11 1 00000Q11 1 10085S11 1 00057V11 1 00909W11 1 88008
028099999924172195201222100E+40067-118550SAO  +119899999V02013559003150426749N064000599+00395-00725101835ADDAA101000095GD12995+9999999GD24995+9999999GD30995+9999999GD40995+9999999GF108085999999999999999999MA1999999088185EQDN01 00000JPWTH 1QNNE11 1 00299E11 1 00699E11 1 00099E11 1 00099G11 1 00140K11 1 00019L11 1 04000M11 1 26040N11 1 00000Q11 1 10183S11 1 00039V11 1 01010W11 1 44006
0269999999149211952060912005+43200-090183SAO  +0219LNR  V02024859004152200059N024000599+01445+01115101295ADDGD10995+9999999GD20995+9999999GD30995+9999999GD40995+9999999GF100005999999999999999999MA1999999098685EQDN01 00000JPWTH 1QNNE11 1 00099E11 1 00099E11 1 00099E11 1 00099G11U1 99999K11 1 00052L11 1 01500M11 1 29140N11 1 00000Q11 1 10129S11 1 00058V11 1 00000W11 1 76008
0051747940128681952091307004+28467-080550SAO  +0004XMR  V0200901N004612200019N0144001N9+02741+02411999999ADDGA1021+048009039GF102991999999999999999999MW1001
0275999999253231952022409005+59217-135433SAO  +007899999V02036059008850042749N002400599-00225-00285100005ADDGD15995+9999999GD20995+9999999GD30995+9999999GD40995+9999999GF108085999999999999999999MA1999999098985MW1855EQDN01 05300JPWTH 1QNNE11 1 00799E11 1 00099E11 1 00099E11 1 00099G11 1 00014K11 1 00027L11 1 00150M11 1 29230N11 1 05300Q11 1 10000S11 1 00028V11 1 01010W11 1 11017
039472251012924195212122100C+27767-097450SAO  +0014CRP  V02031559004652200059N0112005N1+02285+01285102065ADDAA101000095GA1021+091444004GA2999+999999999GA3999+999999999GA4999+999999999GD12025+9999999GD20005+9999999GD30005+9999999GD40005+9999999GF102025999999999999999999MA1999999101935MW1001EQDN01 00000JPWTH 1QNNE11 1 00203E11 1 00000E11 1 00000E11 1 00000G11U1 99999H11 1 32300H11 1 00999H11 1 00999H11 1 00999K11 1 00055L11 1 00700M11 1 30100N11 1 00000Q11 1 10206S11 1 00073V11 1 00303W11 1 88009
0281999999038121952112613005+35433-082483SAO  +064099999V02015859003150030549N006400599+01285+01285101865ADDGD12995+9999999GD24995+9999999GD30995+9999999GD40995+9999999GF108085999999999999999999MA1999999094415MW1455MW2615EQDN01 02070JPWTH 1QNNE11 1 00299E11 1 00699E11 1 00099E11 1 00099G11 1 00010K11 1 00055L11 1 00400M11 1 27880N11 1 02070Q11 1 10186S11 1 00055V11 1 01010W11 1 54006
0057612900999991952020912004+12633-008033FM-12+033299999V0200901N00311105001CN0100001N9+02721-00891101711ADDAY121999GF107991001001999999001021MD1810151+9999MW1011
0377999999231761952050303005+38417-113017SAO  +153499999V02013559002652200059N064000599+02005+00225101125ADDGA1999+030484044GA2999+076204024GA3999+999999999GA4999+999999999GD13055+9999993GD23025+9999993GD30005+9999999GD40005+9999999GF107025999999999999999999MA1999999084465EQDN01 00000JPWTH 1QNNE11 1 00306E11 1 00303E11 1 00000E11 1 00000G11U1 99999H11 1 21100H11 1 37250H11 1 00999H11 1 00999K11 1 00036L11 1 04000M11 1 24940N11 1 00000Q11 1 10112S11 1 00068V11 1 00903W11 1 44005
034072356013968195202181200C+36200-095900SAO  +0206TUL  V02015859007750762049N0240005N1+00445+00115101215ADDAA101000095GA1021+039624044GA2081+076204024GD12025+9999999GD24085+9999999GD30995+9999999GD40995+9999999GF108085999999999999999999MA1999999098755MW1001EQDN01 00000JPWTH 1QNNE11 1 00202E11 1 00610E11 1 00099E11 1 00099G11 1 00250H11 1 21130H11 1 37250K11 1 00034L11 1 01500M11 1 29160N11 1 00000Q11 1 10121S11 1 00040V11 1 01010W11 1 54015
0057358490999991952020212004+45767+062117FM-12+006899999V0200201N00511220001CN0040001N9-01221-01721102951ADDAY111999GF102991001001999999999999MD1810021+9999MW1021
0066476710999991952030206004+35550+139783SAO  +0008RJTT V0200231N002112200019N0240001N1+01191+00581101191ADDGA1041+010509059GF102991999999999999999999MA1999999101121MW1001
031999999913729195210070500E+38883-079850SAO  +060599999V02033859002650030549N006400599+00505+00445102245ADDAA101000895GA1999+003054074GD14085+9999999GD20995+9999999GD30995+9999999GD40995+9999999GF108085999999999999999999MA1999999095025MW1455MW2615EQDN01 02070JPWTH 1QNNE11 1 00610E11 1 00099E11 1 00099E11 1 00099G11 1 00010H11 1 16010K11 1 00040L11 1 00400M11 1 28060N11 1 02070Q11 1 10224S11 1 00041V11 1 01010W11 1 18005
0269999999947051952080204005+44200-072567SAO  +0344MPV  V02099999000052200059N040000599+01334+01225101864ADDGD11995+9999993GD20995+9999999GD30995+9999999GD40995+9999999GF102005999999999999999999MA1999999097834EQDN01 00000JPWTH 1QNNE11 1 00199E11 1 00099E11 1 00099E11 1 00099G11U1 99999K11 1 00054L11 1 02500M11 1 28890N11 1 00000Q11 1 10186S11 1 00056V11 1 00300W11 1 00000
0072719130999991952053105004+58750-094067SAO  +0029CYYQ V0203601N005110001519N0008001N1+00021+00021101731ADDGA1091+000159999GF109991999999999999999999MA1999999101291MW1451MW2511
0269999999137321952060217005+38067-078150SAO  +013599999V02002359006252200059N032000599+02395+01065101735ADDGD11995+9999993GD20995+9999999GD30995+9999999GD40995+9999999GF101005999999999999999999MA1999999100145EQDN01 00000JPWTH 1QNNE11 1 00199E11 1 00099E11 1 00099E11 1 00099G11U1 99999K11 1 00051L11 1 02000M11 1 29570N11 1 00000Q11 1 10173S11 1 00075V11 1 00100W11 1 12012
0171722525129201952051505003+27533-099467SAO  +0152LRD  V02013559008852200059N0240005N1+02285+01395101225ADDGF100005999999999999999999MA1999999099425MW1001EQDN01 00000JPWTH 1QNNG11U1 99999K11 1 00057L11 1 01500M11 1 29360N11 1 00000Q11 1 10122S11 1 00073V11 1 00000W11 1 44017
038899999913866195205072000E+38367-081600SAO  +029099999V02033859006252200059N024000599+02285+00225101775ADDAA101000095GA1999+060964024GA2999+999999999GA3999+999999999GA4999+999999999GD12025+9999999GD20005+9999999GD30005+9999999GD40005+9999999GF102025999999999999999999MA1999999098245EQDN01 00000JPWTH 1QNNE11 1 00202E11 1 00000E11 1 00000E11 1 00000G11U1 99999H11 1 37200H11 1 00999H11 1 00999H11 1 00999K11 1 00036L11 1 01500M11 1 29010N11 1 00000Q11 1 10177S11 1 00073V11 1 00202W11 1 18012
0058062650999991952070312004+52133+005283FM-12+999999999V0200301N00411001501CN0100001N9+01891+01611999999ADDAY161999GF108991071061001501021999MA1999999101941MW1021
0269999999930261952090318005+31467-109600SAO  +1249DUG  V02002359001552200059N064000599+03504+00445101194ADDGD12995+9999999GD20995+9999999GD30995+9999999GD40995+9999999GF101015999999999999999999MA1999999087784EQDN01 00000JPWTH 1QNNE11 1 00299E11 1 00099E11 1 00099E11 1 00099G11U1 99999K11 1 00040L11 1 04000M11 1 25920N11 1 00000Q11 1 10119S11 1 00095V11 1 00101W11 1 12003
0102040750999991952021009004+65367-015883FM-12+045099999V0203601N00101001501CN0120001N9-00501+99999999999ADDAA199003091AY121031GA1999+000159999GF108991081061001501999999KA1999N-00501MW1701EQDQ01    003SCCGA1
038899999914822195209070800E+42400-083000SAO  +018999999V02004559003650112849N024000599+01285+00785102465ADDAA101000095GA1999+011284064GA2999+999999999GA3999+999999999GA4999+999999999GD13065+9999999GD20005+9999999GD30005+9999999GD40005+9999999GF106065999999999999999999MA1999999100175EQDN01 00000JPWTH 1QNNE11 1 00408E11 1 00000E11 1 00000E11 1 00000G11 1 00037H11 1 15037H11 1 00999H11 1 00999H11 1 00999K11 1 00046L11 1 01500M11 1 29580N11 1 00000Q11 1 10246S11 1 00055V11 1 00808W11 1 22007
0066722686230081952051813004+34383-103317SAO  +1309CVS  V0200201N009310048019N0160001N9+00691+00461102091ADDGA1081+004809059GF108991999999999999999999MA1999999087331MW1001
0269999999241401952050219005+44167-112217SAO  +1564DBS  V02020359003652200059N096000599+02115+00445101465ADDGD12995+9999999GD20995+9999999GD30995+9999999GD40995+9999999GF101015999999999999999999MA1999999084255EQDN01 00000JPWTH 1QNNE11 1 00299E11 1 00099E11 1 00099E11 1 00099G11U1 99999K11 1 00040L11 1 06000M11 1 24880N11 1 00000Q11 1 10146S11 1 00070V11 1 00101W11 1 56007
017699999993817195205270300E+38050-087533SAO  +0116EVV  V02036059001552200059N011200599+01834+01675101744ADDAA101000095GF100005999999999999999999MA1999999100344EQDN01 00000JPWTH 1QNNG11U1 99999K11 1 00062L11 1 00700M11 1 29630N11 1 00000Q11 1 10174S11 1 00065V11 1 00000W11 1 11003
0269999999128331952032915005+29633-083100SAO  +0013CTY  V02004559007252200059N024000599+01945+00615102245ADDGD12995+9999999GD20995+9999999GD30995+9999999GD40995+9999999GF101015999999999999999999MA1999999102075EQDN01 00000JPWTH 1QNNE11 1 00299E11 1 00099E11 1 00099E11 1 00099G11U1 99999K11 1 00043L11 1 01500M11 1 30140N11 1 00000Q11 1 10224S11 1 00067V11 1 00101W11 1 22014
0269999999241461952050800005+48200-114317SAO  +090999999V02033859004650609649N080000599+01725-00175100955ADDGD13995+9999999GD20995+9999999GD30995+9999999GD40995+9999999GF106045999999999999999999MA1999999090655EQDN01 00000JPWTH 1QNNE11 1 00499E11 1 00099E11 1 00099E11 1 00099G11 1 00200K11 1 00029L11 1 05000M11 1 26770N11 1 00000Q11 1 10095S11 1 00063V11 1 00805W11 1 18009
0173999999947321952010721005+40083-075017SAO  +0030PNE  V02033859006752200049N024000599+99999+99999999999ADDGD10995+9999999GD20995+9999999GD30995+9999999GD40995+9999999EQDN01 00000JPWTH 1QNNE11 1 00099E11 1 00099E11 1 00099E11 1 00099G11U1 99999L11 1 01500N11 1 00000W11 1 18013
0066785140999991952121314004+18500-067133SAO  +0075TJBQ V0200901N007212200019N0240001N1+02741+02181101691ADDGA1021+007509089GF102991999999999999999999MA1999999100781MW1001
0269724506139861952121100002+38067-097867SAO  +0472HUT  V02022559003652200059N024000599+00505-00285101965ADDGD10995+9999999GD20995+9999999GD30995+9999999GD40995+9999999GF100005999999999999999999MA1999999096385EQDN01 00000JPWTH 1QNNE11 1 00099E11 1 00099E11 1 00099E11 1 00099G11U1 99999K11 1 00027L11 1 01500M11 1 28460N11 1 00000Q11 1 10196S11 1 00041V11 1 00000W11 1 66007
0072749117999991952121917004+53383-002650SAO  +0027EGOB V0202701N003110054019N0012001N1+00741+00631100001ADDGA1071+005409059GF107991999999999999999999MA1999999099661MW1111MW2511
0066471180999991952110821004+37433+127950SAO  +0101RKNH V0209991C000010300019N0096001N1+00241+00131102501ADDGA1071+030009039GF107991999999999999999999MA1999999101321MW1051
0117726625240061952020420004+44150-103100SAO  +0990RCA  V0203601N008712200019N0640001N9+00781-00671101021ADDGA1999+013509999GA2021+045009039GA3071+075009009GF107991999999999999999999MA1999999089501MW1001EQDQ01    003SCCGA1
0269999999240191952121801005+42750-105367SAO  +148799999V02011359008850021349N024000599-00285-00445102135ADDGD14995+9999999GD20995+9999999GD30995+9999999GD40995+9999999GF108085999999999999999999MA1999999085105EQDN01 00000JPWTH 1QNNE11 1 00699E11 1 00099E11 1 00099E11 1 00099G11 1 00007K11 1 00024L11 1 01500M11 1 25130N11 1 00000Q11 1 10213S11 1 00027V11 1 01010W11 1 34017
0081283190999991952040406004+57083+054750FM-12+013099999V0201401N00621007801CN0040001N9-00611-00891101071ADDAA199000591AY171999GF108991081001008001021999KA1999N-00781MD1710021+9999MW1731
0072107340999991952112822004+49400+008650SAO  +0110EDIE V0203601N004610030019N0048001N9+00741+00691101321ADDGA1081+003009059GF108991999999999999999999MA1999999099971MW1111MW2631
017699999923156195211280400E+33933-116933SAO  +079099999V02099999000052200059N016000599+00565+00115101835ADDAA101000095GF100005999999999999999999MA1999999092655EQDN01 00000JPWTH 1QNNG11U1 99999K11 1 00034L11 1 01000M11 1 27360N11 1 00000Q11 1 10183S11 1 00042V11 1 00000W11 1 00000
0050474250999991952030517004+42800+141650SAO  +0027RJCC V0202701N001512200019N0112001N1-01421-01811102471ADDGF100991999999999999999999MA1999999102101MW1001
0383727755241121952060114003+47517-111167SAO  +1051GFA  V02022559003152200059N0960005N9+01505+01065100715ADDGA1021+018294064GA2021+036584034GA3041+060964024GA4999+999999999GD12025+9999999GD22025+9999999GD34045+9999993GD40005+9999999GF108045999999999999999999MA1999999088825MW1001EQDN01 00000JPWTH 1QNNE11 1 00203E11 1 00202E11 1 00505E11 1 00000G11U1 99999H11 1 15060H11 1 23120H11 1 37200H11 1 00999K11 1 00051L11 1 06000M11 1 26230N11 1 00000Q11 1 10071S11 1 00059V11 1 01005W11 1 66006
0377999999231841952122100005+34650-112433SAO  +153099999V02013559007750073249N032000599+00565+00175101055ADDGA1999+007324084GA2999+021344034GA3999+076204024GA4999+999999999GD13055+9999999GD23025+9999999GD34015+9999999GD40005+9999999GF108075999999999999999999MA1999999084055EQDN01 00000JPWTH 1QNNE11 1 00406E11 1 00403E11 1 00601E11 1 00000G11 1 00024H11 1 11024H11 1 23070H11 1 37250H11 1 00999K11 1 00035L11 1 02000M11 1 24820N11 1 00000Q11 1 10105S11 1 00042V11 1 01009W11 1 44015
0269999999138691952060809005+31533-084183SAO  +006299999V02027059000552200059N011200599+02175+02065101495ADDGD12995+9999999GD21995+9999993GD30995+9999999GD40995+9999999GF104025999999999999999999MA1999999100815EQDN01 00000JPWTH 1QNNE11 1 00299E11 1 00199E11 1 00099E11 1 00099G11U1 99999K11 1 00069L11 1 00700M11 1 29770N11 1 00000Q11 1 10149S11 1 00071V11 1 00502W11 1 77001
0083486940999991952100712004+01350+103900FM-12+001099999V0209991C00001999999CN0110001N9+02671+02331100831ADDAA124009091AY121999GA1051+999999039GF107991011051012501041021KA1999M+02941MW1021
0165999999230191952052417005+31833-106400SAO  +1196BIF  V02013559006252200059N048000599+02445+00115101355ADDGF100005999999999999999999MA1999999088355EQDN01 00000JPWTH 1QNNG11U1 99999K11 1 00034L11 1 03000M11 1 26090N11 1 00000Q11 1 10135S11 1 00076V11 1 00000W11 1 44012
0383727930242331952062906003+47450-122300SAO  +0122SEA  V02004559005752200059N0128005N1+01335+01115101255ADDGA1021+060964004GA2999+999999999GA3999+999999999GA4999+999999999GD11025+9999993GD20005+9999999GD30005+9999999GD40005+9999999GF102005999999999999999999MA1999999099595MW1001EQDN01 00000JPWTH 1QNNE11 1 00102E11 1 00000E11 1 00000E11 1 00000G11U1 99999H11 1 32200H11 1 00999H11 1 00999H11 1 00999K11 1 00052L11 1 00800M11 1 29410N11 1 00000Q11 1 10125S11 1 00056V11 1 00200W11 1 22011
0292999999340531952100105005+49633+003550SAO  +0083LLXO V02018059009850030549N006400599+00945+00785999999ADDGA1999+003054134GA2999+007624064GD13065+9999999GD24085+9999999GD30995+9999999GD40995+9999999GF108085999999999999999999MW1805EQDN01 02300JPWTH 1QNNE11 1 00408E11 1 00610E11 1 00099E11 1 00099G11 1 00010H11 1 13010H11 1 15025K11 1 00046L11 1 00400N11 1 02300S11 1 00049V11 1 01010W11 1 55019
0165999999139411952091611005+30217-093150SAO  +000599999V02036059002152200059N012800599+02285+02175101525ADDGF100005999999999999999999MA1999999101425EQDN01 00000JPWTH 1QNNG11U1 99999K11 1 00071L11 1 00800M11 1 29950N11 1 00000Q11 1 10152S11 1 00073V11 1 00000W11 1 11004
0082722435999991952091811004+29650-095283SAO  +0019HOU  V0200901N004610030019N0128001N1+02241+02131100781ADDGA1061+003001071GA2021+007501081GF108991999999999999999999MA1999999100581MW1611
0323999999129181952051708005+99999+999999SAO  +999999999V02015859008250030549N016000599+02335+02175101025ADDGA1999+003054074GA2999+005794064GD13065+9999999GD24025+9999999GD30995+9999999GD40995+9999999GF108085999999999999999999MA1999999100815EQDN01 00000JPWTH 1QNNE11 1 00408E11 1 00602E11 1 00099E11 1 00099G11 1 00010H11 1 16010H11 1 15019K11 1 00071L11 1 01000M11 1 29770N11 1 00000Q11 1 10102S11 1 00074V11 1 01010W11 1 54016
0082085150999991952021320004+36967-025167SAO  +0100LPAZ V0209991V002610210019N0400001N1+01301+00961102121ADDGA1021+006009999GA2061+021009999GF107991999999999999999999MA1999999100911MW1001
0051602051999991952080806004+32117-007883SAO  +0448GBGY V0203401N003112200019N0240001N9+01851+01521999999ADDGA1011+075009009GF102991999999999999999999MW1001
0081283820999991952081706004+57717+071183FM-12+005099999V0201601N00311004501CN0200001N9+01391+01221100141ADDAA199000591AY121999GF108991081061004501999999KA1999N+01001MD1810041+9999MW1021
0035489350999991952123111004+19467+103133SAO  +1050VLBL V0201581N001012200019N0400001N1+99999+99999999999ADDGF100991999999999999999999MW1001
0269999999137261952072022005+37083-077950SAO  +0136BKT  V02027059003652200059N024000599+03285+02395101325ADDGD12995+9999999GD22995+9999999GD30995+9999999GD40995+9999999GF102025999999999999999999MA1999999099765EQDN01 00000JPWTH 1QNNE11 1 00299E11 1 00299E11 1 00099E11 1 00099G11U1 99999K11 1 00075L11 1 01500M11 1 29460N11 1 00000Q11 1 10132S11 1 00091V11 1 00303W11 1 77007
0074947760999991952090711003-32800+151850FM-12+0004YSWM V0200901N002119999999N0160001N9+01221+00891999999ADDAY141999GA1005+999999999GF100991001001999999999999MA1999999101991MW1055
0275725246148911952020811003+40817-082517SAO  +0397MFD  V02020359004650061049N0160005N1-00115-00285101395ADDGD14995+9999999GD20995+9999999GD30995+9999999GD40995+9999999GF108085999999999999999999MA1999999096515MW1001EQDN01 00000JPWTH 1QNNE11 1 00699E11 1 00099E11 1 00099E11 1 00099G11 1 00020K11 1 00027L11 1 01000M11 1 28500N11 1 00000Q11 1 10139S11 1 00030V11 1 01010W11 1 56009
0066404160999991952042200004+26267+050150SAO  +0023OEDR V0202301N002112200019N0160001N9+02301+01911100881ADDGA1041+090009009GF102991999999999999999999MA1999999100581MW1001
009294999900355195206040200N-42830+147480AUST +0010     V0203385N013459999999N999999999+01285+00805999999ADDGA1025+007505065GA2035+013505095GA3025+999999035GF107995024055007505055999MA1999999097596
0165999999148101952112106005+41983-087900SAO  +019899999V02027059001552200059N012800599-00175-00395101665ADDGF100005999999999999999999MA1999999099195EQDN01 00000JPWTH 1QNNG11U1 99999K11 1 00025L11 1 00800M11 1 29290N11 1 00000Q11 1 10166S11 1 00029V11 1 00000W11 1 77003
0070308620999991952013000004+51850+116017FM-12+049099999V0209991C00001220001CN0200001N9-03391-03391103201ADDAY101999GF100991001001999999001001KA1999N-03501MD1010071+9999MW1021
0066467700999991952051620004+24267+120617SAO  +0005RCMQ V0201801N000510099019N0005001N1+02301+02181999999ADDGA1061+009909049GF107991999999999999999999MA1999999098541MW1451
0066404160999991952010317004+26267+050150SAO  +0023OEDR V0202901N008210120019N0048001N9+01571+01071101691ADDGA1061+012009059GF107991999999999999999999MA1999999101421MW1061
0066042310999991952032601004+67017-050800SAO  +0050BGSF V0200681N003612200019N0320001N1-02311-03031102341ADDGA1001+999999999GF100991999999999999999999MA1999999101661MW1001
0052161210999991952110313004+44400+008900FM-12+003799999V0201201N00461220001CN0160001N9+99999+99999999999ADDAY121999GA1081+009009089MW1021EQDQ01+000042SCOTCV
0350999999225361952031804005+21983-159350SAO  +0031LIH  V02006859006750121949N024000599+02225+01835101835ADDGA1999+006104084GA2999+012194064GA3999+021344034GD12035+9999999GD24085+9999999GD30005+9999999GD40995+9999999GF108085999999999999999999MA1999999101325EQDN01 00000JPWTH 1QNNE11 1 00204E11 1 00610E11 1 00000E11 1 00099G11 1 00040H11 1 11020H11 1 15040H11 1 23070K11 1 00065L11 1 01500M11 1 29920N11 1 00000Q11 1 10183S11 1 00072V11 1 01010W11 1 32013
0081264220999991952020618004+56967+024067FM-12+000399999V0202001N00411012301CN0100001N9-00221-00281101971ADDAA199000691AY121999GF107991071051012501001001KA1999M+00001MD1810061+9999MW1021
0377999999433211952101916005+35383+139917SAO  +0006RJTK V02036059007752200059N019200599+01445+01175102305ADDGA1999+030484034GA2999+999999999GA3999+999999999GA4999+999999999GD12025+9999999GD20005+9999999GD30005+9999999GD40005+9999999GF102025999999999999999999MA1999999102245EQDN01 00000JPWTH 1QNNE11 1 00202E11 1 00000E11 1 00000E11 1 00000G11U1 99999H11 1 23100H11 1 00999H11 1 00999H11 1 00999K11 1 00053L11 1 01200M11 1 30190N11 1 00000Q11 1 10230S11 1 00058V11 1 00202W11 1 11015
038899999913895195204291400E+32300-086400SAO  +006199999V02031559004652200059N024000599+02285+01175101225ADDAA101000095GA1999+091444004GA2999+999999999GA3999+999999999GA4999+999999999GD10005+9999999GD20005+9999999GD30005+9999999GD40005+9999999GF100005999999999999999999MA1999999100515EQDN01 00000JPWTH 1QNNE11 1 00000E11 1 00000E11 1 00000E11 1 00000G11U1 99999H11 1 32300H11 1 00999H11 1 00999H11 1 00999K11 1 00053L11 1 01500M11 1 29680N11 1 00000Q11 1 10122S11 1 00073V11 1 00000W11 1 88009
034072645014898195210280000C+44483-088133SAO  +0213GRB  V02031559008250335349N0240005N1+00395-00945101465ADDAA101000095GA1031+012194064GA2081+033534034GD12035+9999999GD24085+9999999GD30995+9999999GD40995+9999999GF108085999999999999999999MA1999999098855MW1001EQDN01 00000JPWTH 1QNNE11 1 00204E11 1 00610E11 1 00099E11 1 00099G11 1 00110H11 1 15040H11 1 23110K11 1 00015L11 1 01500M11 1 29190N11 1 00000Q11 1 10146S11 1 00039V11 1 01010W11 1 88016
0051602051999991952081414004+32117-007883SAO  +0448GBGY V0203601N006212200019N0240001N9+03741+01521999999ADDGA1011+007509089GF102991999999999999999999MW1001
017699999993817195206240800E+38050-087533SAO  +0116EVV  V02020359004652200059N024000599+02564+02005101574ADDAA101000095GF100005999999999999999999MA1999999100204EQDN01 00000JPWTH 1QNNG11U1 99999K11 1 00068L11 1 01500M11 1 29590N11 1 00000Q11 1 10157S11 1 00078V11 1 00000W11 1 56009
019872365023050195201280100C+35050-106617SAO  +1619ABQ  V02033859002652200059N1280005N9+00675-00725102615ADDAA101000095GA1001+999999999GF100005999999999999999999MA1999999084495MW1001EQDN01 00000JPWTH 1QNNG11U1 99999K11 1 00019L11 1 08000M11 1 24950N11 1 00000Q11 1 10261S11 1 00044V11 1 00000W11 1 18005
0269999999149391952070720005+40850-096767SAO  +036099999V02036059004650457249N024000599+01835+01115102405ADDGD12995+9999999GD23995+9999999GD30995+9999999GD40995+9999999GF106045999999999999999999MA1999999098145EQDN01 00000JPWTH 1QNNE11 1 00299E11 1 00499E11 1 00099E11 1 00099G11 1 00150K11 1 00052L11 1 01500M11 1 28980N11 1 00000Q11 1 10240S11 1 00065V11 1 00705W11 1 11009
033499999994908195205181800E+42400-090700SAO  +032599999V02004559002650243849N040000599+01564+00505102304ADDAA101000095GA1999+018294084GA2999+024384044GD12035+9999999GD24085+9999999GD30995+9999999GD40995+9999999GF108085999999999999999999MA1999999098344EQDN01 00000JPWTH 1QNNE11 1 00204E11 1 00610E11 1 00099E11 1 00099G11 1 00080H11 1 11060H11 1 21080K11 1 00041L11 1 02500M11 1 29040N11 1 00000Q11 1 10230S11 1 00060V11 1 01010W11 1 22005
0302999999938391952021709005+99999+999999SAO  +999999999V02029359004150051849N006400599+00114+00065101664ADDGA1999+005184064GD14085+9999999GD20995+9999999GD30995+9999999GD40995+9999999GF108085999999999999999999MA1999999100544MW1455EQDN01 07000JPWTH 1QNNE11 1 00610E11 1 00099E11 1 00099E11 1 00099G11 1 00017H11 1 15017K11 1 00033L11 1 00400M11 1 29690N11 1 07000Q11 1 10166S11 1 00034V11 1 01010W11 1 78008
039472564024018195203182200C+41150-104817SAO  +1877CYS  V02029359011852200059N1120005N9+00725-01005100375ADDAA101000095GA1011+019814084GA2011+048774034GA3999+999999999GA4999+999999999GD12015+9999999GD22015+9999999GD30005+9999999GD40005+9999999GF102025999999999999999999MA1999999079995MW1001EQDN01 00000JPWTH 1QNNE11 1 00201E11 1 00201E11 1 00000E11 1 00000G11U1 99999H11 1 11065H11 1 23160H11 1 00999H11 1 00999K11 1 00014L11 1 07000M11 1 23620N11 1 00000Q11 1 10037S11 1 00045V11 1 00202W11 1 78023
017699999923194195202170200E+35017-110733SAO  +148899999V02024859004652200059N056000599+00725-00505101225ADDAA101000095GF100005999999999999999999MA1999999084635EQDN01 00000JPWTH 1QNNG11U1 99999K11 1 00023L11 1 03500M11 1 24990N11 1 00000Q11 1 10122S11 1 00045V11 1 00000W11 1 76009
0269999999938061952042710005+33233-087617SAO  +005799999V02031559003652200059N011200599+01174+00895101084ADDGD10995+9999999GD20995+9999999GD30995+9999999GD40995+9999999GF100005999999999999999999MA1999999100414EQDN01 00000JPWTH 1QNNE11 1 00099E11 1 00099E11 1 00099E11 1 00099G11U1 99999K11 1 00048L11 1 00700M11 1 29650N11 1 00000Q11 1 10108S11 1 00053V11 1 00000W11 1 88007
0269999999137281952122814005+36567-079333SAO  +018099999V02004559004652200059N016000599-00115-01065102405ADDGD11995+9999993GD20995+9999999GD30995+9999999GD40995+9999999GF101005999999999999999999MA1999999100205EQDN01 00000JPWTH 1QNNE11 1 00199E11 1 00099E11 1 00099E11 1 00099G11U1 99999K11 1 00013L11 1 01000M11 1 29590N11 1 00000Q11 1 10240S11 1 00030V11 1 00100W11 1 22009
0072042700999991952100609004+61183-045417SAO  +0026BGBW V0202931N002110075019N0064001N1+00461+00351101731ADDGA1081+007509059GF108991999999999999999999MA1999999101221MW1451MW2611
040472363023047195205211500C+35233-101700SAO  +1100AMA  V02022559008252200059N0240005N1+02675+00615100015ADDAA101000095GA1999+091444004GA2999+999999999GA3999+999999999GA4999+999999999GD10005+9999999GD20005+9999999GD30005+9999999GD40005+9999999GF100005999999999999999999MA1999999088155EQDQ01    003SCCGA1N01 00000JPWTH 1QNNE11 1 00000E11 1 00000E11 1 00000E11 1 00000G11U1 99999H11 1 32300H11 1 00999H11 1 00999H11 1 00999K11 1 00043L11 1 01500M11 1 26030N11 1 00000Q11 1 10001S11 1 00080V11 1 00000W11 1 66016
0269999999241451952092711005+43517-112067SAO  +144699999V02004559000552200059N024000599+00785+00335101425ADDGD10995+9999999GD20995+9999999GD30995+9999999GD40995+9999999GF100005999999999999999999MA1999999085515EQDN01 00000JPWTH 1QNNE11 1 00099E11 1 00099E11 1 00099E11 1 00099G11U1 99999K11 1 00038L11 1 01500M11 1 25250N11 1 00000Q11 1 10142S11 1 00046V11 1 00000W11 1 22001
0171724956232111952052309003+38067-122517SAO  +0001SRF  V02099999000052200059N0160005N1+01395+01115101395ADDGF100005999999999999999999MA1999999101355MW1001EQDN01 00000JPWTH 1QNNG11U1 99999K11 1 00052L11 1 01000M11 1 29930N11 1 00000Q11 1 10139S11 1 00057V11 1 00000W11 1 00000
0383722138138351952093020003+31133-083700SAO  +0089MUL  V02006859000552200059N0240005N1+02895+01615101565ADDGA1021+013724084GA2999+999999999GA3999+999999999GA4999+999999999GD12025+9999999GD20005+9999999GD30005+9999999GD40005+9999999GF102025999999999999999999MA1999999100415MW1001EQDN01 00000JPWTH 1QNNE11 1 00202E11 1 00000E11 1 00000E11 1 00000G11U1 99999H11 1 11045H11 1 00999H11 1 00999H11 1 00999K11 1 00061L11 1 01500M11 1 29650N11 1 00000Q11 1 10156S11 1 00084V11 1 00202W11 1 32001
0377999999433181952012711005+37950+139117SAO  +0004RJSN V02018059003152200059N016000599+00065-00065103015ADDGA1999+012194064GA2999+999999999GA3999+999999999GA4999+999999999GD12045+9999999GD20005+9999999GD30005+9999999GD40005+9999999GF104045999999999999999999MA1999999102915EQDN01 00000JPWTH 1QNNE11 1 00205E11 1 00000E11 1 00000E11 1 00000G11U1 99999H11 1 15040H11 1 00999H11 1 00999H11 1 00999K11 1 00031L11 1 01000M11 1 30390N11 1 00000Q11 1 10301S11 1 00033V11 1 00505W11 1 55006
0356999999128381952092119005+28083-080600SAO  +000999999V02013559003650609649N019200599+02445+02395101525ADDGA1999+006104084GA2999+030484034GA3999+060964004GD12015+9999999GD22035+9999999GD34045+9999999GD40995+9999999GF108085999999999999999999MA1999999101425MW1805EQDN01 02300JPWTH 1QNNE11 1 00201E11 1 00204E11 1 00605E11 1 00099G11 1 00200H11 1 11020H11 1 23100H11 1 32200K11 1 00075L11 1 01200M11 1 29950N11 1 02300Q11 1 10152S11 1 00076V11 1 01010W11 1 44007
0066466970999991952042401004+25067+121233SAO  +0045RCGM V0200451N004610021019N0020001N1+01851+01801101521ADDGA1081+002109089GF108991999999999999999999MA1999999100981MW1531
0318704540257041952062718003+51883-176650SAO  +0004PADK V02024859011850033549N0112005N9+00565+00445100685ADDGA1061+003354064GA2021+021009039GD14085+9999999GD20995+9999999GD30995+9999999GD40995+9999999GF108085999999999999999999MA1999999100645MW1001EQDN01 00000JPWTH 1QNNE11 1 00610E11 1 00099E11 1 00099E11 1 00099G11 1 00011H11 1 15011K11 1 00040L11 1 00700M11 1 29720N11 1 00000Q11 1 10068S11 1 00042V11 1 01010W11 1 76023
038899999924225195203200600E+42367-122867SAO  +040599999V02027059002650152449N024000599+00115-00225102205ADDAA101000095GA1999+015244064GA2999+999999999GA3999+999999999GA4999+999999999GD13065+9999999GD20005+9999999GD30005+9999999GD40005+9999999GF106065999999999999999999MA1999999097295EQDN01 00000JPWTH 1QNNE11 1 00407E11 1 00000E11 1 00000E11 1 00000G11 1 00050H11 1 15050H11 1 00999H11 1 00999H11 1 00999K11 1 00028L11 1 01500M11 1 28730N11 1 00000Q11 1 10220S11 1 00034V11 1 00707W11 1 77005
007694287599999195208272000N-16920+145770AUST +0007YBCS V0202035N004159999999N999999999+01945+01305999999ADDGA1015+007505085GA2015+013505065GF102995014015007505999999MA1999999101425
0057154800999991952022112004+44217+028633FM-12+003299999V0200501N00721090001CN0200001N9+00111-00221101041ADDAY121999GF105991031051004501001021MD1310041+9999MW1011
0275999999939931952050910005+36000-094167SAO  +038399999V02033859009850182949N012800599+01564+01565100684ADDGD14995+9999999GD20995+9999999GD30995+9999999GD40995+9999999GF108085999999999999999999MA1999999096314MW1815EQDN01 02400JPWTH 1QNNE11 1 00699E11 1 00099E11 1 00099E11 1 00099G11 1 00060K11 1 00060L11 1 00800M11 1 28440N11 1 02400Q11 1 10068S11 1 00060V11 1 01010W11 1 18019
0165999999931111952120703005+34117-119117SAO  +000999999V02004559000552200059N024000599+00894+00785101684ADDGF100005999999999999999999MA1999999101594EQDN01 00000JPWTH 1QNNG11U1 99999K11 1 00046L11 1 01500M11 1 30000N11 1 00000Q11 1 10168S11 1 00048V11 1 00000W11 1 22001
0082851410999991952070712004-14450-067567FM-12+020099999V0209991C00001220001CN0400001N9+02001+01891101781ADDAY111999GF101991999001999999031001IA1009MD1310221+9999MW1121EQDQ01+000002SCOTLC
0072724640930581952032109004+38233-104633SAO  +1465PUB  V0200501N008210006019N0004001N9-00311-00421100921ADDGA1091+000609999GF109991999999999999999999MA1999999084561MW1381MW2751
0066745980137021952102412004+37083-076350SAO  +0003LFI  V0202501N001512200019N0048001N9+00781+00331102001ADDGA1001+999999999GF100991999999999999999999MA1999999101931MW1051
0057315870999991952080106004+49617+128483FM-12+011799999V0209991C00001015001CN0200001N9+02221+01611100151ADDAY121999GF108991081051017501999999MD1990011+9999MW1021
0073982230999991952031309004+18183+120533FM-12+000599999V0202901N00151012001CN0400001N9+02941+02281101401ADDAY111999GA1051+012009059GF106991051051012501001061MD1310041+9999MW1031
036799999924232195202140600E+44917-123017SAO  +006199999V02004559002650128049N012800599+00445+00285102305ADDAA101000095GA1999+002134134GA2999+006714064GA3999+012804054GD12015+9999999GD22035+9999999GD34045+9999999GD40995+9999999GF108085999999999999999999MA1999999101565MW1615EQDN01 02000JPWTH 1QNNE11 1 00201E11 1 00204E11 1 00605E11 1 00099G11 1 00042H11 1 13007H11 1 15022H11 1 22042K11 1 00037L11 1 00800M11 1 29990N11 1 02000Q11 1 10230S11 1 00040V11 1 01010W11 1 22005
0066744910147031952032918004+42200-072533SAO  +0075CEF  V0203401N007210120019N0192001N9+00741-00811102071ADDGA1061+012009089GF107991999999999999999999MA1999999101121MW1001
0275999999947451952111516005+41067-073717SAO  +0122HPN  V02099999000050304849N004000599+01284+01115102204ADDGD12995+9999999GD23995+9999999GD34995+9999999GD40995+9999999GF108995999999999999999999MA1999999100544MW1455EQDN01 07000JPWTH 1QNNE11 1 00299E11 1 00499E11 1 00699E11 1 00099G11 1 00100K11 1 00052L11 1 00250M11 1 29690N11 1 07000Q11 1 10220S11 1 00055V11 1 01099W11 1 00000
038899999924243195211212200E+46567-120533SAO  +032499999V02018059003150609649N096000599+00835-00565103155ADDAA101000095GA1999+042674034GA2999+060964024GA3999+999999999GA4999+999999999GD13005+9999999GD20075+9999999GD30005+9999999GD40005+9999999GF107065999999999999999999MA1999999099155EQDN01 00000JPWTH 1QNNE11 1 00400E11 1 00009E11 1 00000E11 1 00000G11 1 00200H11 1 23140H11 1 37200H11 1 00999H11 1 00999K11 1 00022L11 1 06000M11 1 29280N11 1 00000Q11 1 10315S11 1 00047V11 1 00907W11 1 55006
0066471270432161952022020001+36967-127067SAO  +0019RKSG V0201801N002112200019N0160001N9-00591-00921102811ADDGA1001+999999999GF100991999999999999999999MA1999999102571MW1001
038872734514847195212120400E+99999+999999SAO  +999999999V02022559001552200059N024000599-00505-00725101085ADDAA101000095GA1999+013724064GA2999+999999999GA3999+999999999GA4999+999999999GD12025+9999999GD20005+9999999GD30005+9999999GD40005+9999999GF102025999999999999999999MA1999999098345EQDN01 00000JPWTH 1QNNE11 1 00203E11 1 00000E11 1 00000E11 1 00000G11U1 99999H11 1 15045H11 1 00999H11 1 00999H11 1 00999K11 1 00019L11 1 01500M11 1 29040N11 1 00000Q11 1 10108S11 1 00023V11 1 00303W11 1 66003
0383999999147861952062418005+40583-073883SAO  +000599999V02022559007252200059N004800599+02505+02065101285ADDGA1999+999999104GA2999+999999999GA3999+999999999GA4999+999999999GD16045+9999999GD20005+9999999GD30005+9999999GD40005+9999999GF104045999999999999999999MA1999999101225MW1045EQDN01 08200JPWTH 1QNNE11 1 00805E11 1 00000E11 1 00000E11 1 00000G11U1 99999H11 1 98999H11 1 00999H11 1 00999H11 1 00999K11 1 00069L11 1 00300M11 1 29890N11 1 08200Q11 1 10128S11 1 00077V11 1 00505W11 1 66014
038899999923232195207251000E+38517-121500SAO  +000799999V02018059003152200059N024000599+01945+00945101325ADDAA101000095GA1999+060964004GA2999+999999999GA3999+999999999GA4999+999999999GD11025+9999993GD20005+9999999GD30005+9999999GD40005+9999999GF102015999999999999999999MA1999999101225EQDN01 00000JPWTH 1QNNE11 1 00103E11 1 00000E11 1 00000E11 1 00000G11U1 99999H11 1 32200H11 1 00999H11 1 00999H11 1 00999K11 1 00049L11 1 01500M11 1 29890N11 1 00000Q11 1 10132S11 1 00067V11 1 00301W11 1 55006
0377999999047271952073114005+99999+999999SAO  +999999999V02033859003150121949N016000599+01835+01225102175ADDGA1999+012194064GA2999+999999999GA3999+999999999GA4999+999999999GD13075+9999999GD20005+9999999GD30005+9999999GD40005+9999999GF107075999999999999999999MA1999999100075EQDN01 00000JPWTH 1QNNE11 1 00409E11 1 00000E11 1 00000E11 1 00000G11 1 00040H11 1 15040H11 1 00999H11 1 00999H11 1 00999K11 1 00054L11 1 01000M11 1 29550N11 1 00000Q11 1 10217S11 1 00065V11 1 00909W11 1 18006
0050722517129321952011812004+27733-098033SAO  +0055ALI  V0201351N006210024019N0160001N1+02131+02021101801ADDGF108991999999999999999999MA1999999101151MW1001
0066722436129061952042700004+29600-095167SAO  +0012EFD  V0203201N003112200019N0240001N9+02411+00911101351ADDGA1001+999999999GF100991999999999999999999MA1999999101191MW1001
0078306830999991952103008004+53967+121933FM-12+052499999V0202201N00721220001CN0500001N9-00501-01611102141ADDAY111999GF102991021051012501001001MW1021EQDQ01+000032APCTENQ02+000002APC3  
0275999999930351952092408005+30250-103883SAO  +1481MRF  V02002359006750051849N004800599+01284+01175101834ADDGD14995+9999999GD20995+9999999GD30995+9999999GD40995+9999999GF108085999999999999999999MA1999999085644MW1455EQDN01 07000JPWTH 1QNNE11 1 00699E11 1 00099E11 1 00099E11 1 00099G11 1 00017K11 1 00053L11 1 00300M11 1 25290N11 1 07000Q11 1 10183S11 1 00055V11 1 01010W11 1 12013
028099999914950195211240000E+41100-092450SAO  +0257OTM  V02029359001550304849N019200599+00395-00225102475ADDAA101000095GD12995+9999999GD24995+9999999GD30995+9999999GD40995+9999999GF108085999999999999999999MA1999999099295EQDN01 00000JPWTH 1QNNE11 1 00299E11 1 00699E11 1 00099E11 1 00099G11 1 00100K11 1 00028L11 1 01200M11 1 29320N11 1 00000Q11 1 10247S11 1 00039V11 1 01010W11 1 78003
038899999923065195210051600E+39367-101700SAO  +1111GLD  V02027059004650365849N024000599+01065-00505102345ADDAA101000095GA1999+036584034GA2999+999999999GA3999+999999999GA4999+999999999GD13065+9999999GD20005+9999999GD30005+9999999GD40005+9999999GF106065999999999999999999MA1999999089505EQDN01 00000JPWTH 1QNNE11 1 00407E11 1 00000E11 1 00000E11 1 00000G11 1 00120H11 1 23120H11 1 00999H11 1 00999H11 1 00999K11 1 00023L11 1 01500M11 1 26430N11 1 00000Q11 1 10234S11 1 00051V11 1 00707W11 1 77009
0076103380999991952112823004+52467+009700FM-12+005599999V0202601N00051220001CN0002001N9-00611-00781101571ADDAY141999GF100991001001999999001001MD1110331+9999MW1461EQDQ01+078311APOA  
041072569024089195205092100C+42917-106467SAO  +1622CPR  V02036059004650106749N0480005N1+00835-00065102175ADDAA101000095GA1061+010674084GA2999+045724034GA3999+999999999GA4999+999999999GD13065+9999999GD23005+9999999GD30005+9999999GD40005+9999999GF106065999999999999999999MA1999999084155MW1001EQDQ01    003SCCGA2N01 00000JPWTH 1QNNE11 1 00408E11 1 00400E11 1 00000E11 1 00000G11 1 00035H11 1 11035H11 1 23150H11 1 00999H11 1 00999K11 1 00031L11 1 03000M11 1 24850N11 1 00000Q11 1 10217S11 1 00047V11 1 00808W11 1 11009
0057350780999991952052800004+51817+068367FM-12+030899999V0203601N00311220001CN0200001N9+01221+00721102061ADDAY101999GF107991011021012501001011MD1310021+9999MW1021
0269999999242301952052817005+44267-121150SAO  +0934RDM  V02029359005252200059N056000599+02065+00115101085ADDGD12995+9999999GD20995+9999999GD30995+9999999GD40995+9999999GF101015999999999999999999MA1999999090555EQDN01 00000JPWTH 1QNNE11 1 00299E11 1 00099E11 1 00099E11 1 00099G11U1 99999K11 1 00034L11 1 03500M11 1 26740N11 1 00000Q11 1 10108S11 1 00069V11 1 00101W11 1 78010
0057284690999991952010912004+56483+067367FM-12+013199999V0202201N00411220001CN0020001N9-01001-01111100861ADDAY171999GF107991001001999999001011MD1310151+9999MW1011
0089108030999991952121312004+48000+007850FM-12+028699999V0202201N00821220001CN0700001N9+00721+00111099391ADDAY121061GA1031+010509089GA2031+010509089GF107991061081012501041001MD1110251+9999MW1021
038899999923187195209201100E+34750-118733SAO  +1379SDB  V02006859009850009149N024000599+01395+01335101125ADDAA101000095GA1999+000914064GA2999+999999999GA3999+999999999GA4999+999999999GD13075+9999999GD20005+9999999GD30005+9999999GD40005+9999999GF107075999999999999999999MA1999999086185EQDN01 00000JPWTH 1QNNE11 1 00409E11 1 00000E11 1 00000E11 1 00000G11 1 00003H11 1 15003H11 1 00999H11 1 00999H11 1 00999K11 1 00056L11 1 01500M11 1 25450N11 1 00000Q11 1 10112S11 1 00057V11 1 00909W11 1 32019
0043064700999991952020618004+50733+005183FM-12+007199999V0202301N00771007801CN0020001N9+00391+00221103131ADDAY121999GF108991071051008001999999MW1051
0409724660930371952081217003+38817-104700SAO  +2804COS  V02018059003152200059N1120005N9+02505+00675101425ADDGA1999+027434084GA2999+082304004GA3999+999999999GA4999+999999999GD10005+9999999GD20005+9999999GD30005+9999999GD40005+9999999GF100005999999999999999999MA1999999081415EQDQ01    003SCCGA1Q02    003SCCGA2N01 00000JPWTH 1QNNE11 1 00000E11 1 00000E11 1 00000E11 1 00000G11U1 99999H11 1 11090H11 1 32270H11 1 00999H11 1 00999K11 1 00044L11 1 07000M11 1 24040N11 1 00000Q11 1 10142S11 1 00077V11 1 00000W11 1 55006
