0091332130999991953122318004+51317+028783FM-12+017199999V0209991C00001002401CN0020001N9-00391-00501102051ADDAY101999GF108991081061002501999999KA1999M-00281MW1101EQDQ01+000042APCTENQ02+000022APC3  
0165999999231991953052905005+32833-115667SAO  -001399999V02027059012452200059N024000599+01725+00565101355ADDGF100005999999999999999999MA1999999101525EQDN01 00000JPWTH 1QNNG11U1 99999K11 1 00042L11 1 01500M11 1 29980N11 1 00000Q11 1 10135S11 1 00063V11 1 00000W11 1 77024
038899999923068195309181700E+38233-104633SAO  +146599999V02013559002152200059N064000599+02175+00725101275ADDAA101000095GA1999+024384084GA2999+036584034GA3999+999999999GA4999+999999999GD12015+9999999GD22015+9999999GD30005+9999999GD40005+9999999GF102025999999999999999999MA1999999085405EQDN01 00000JPWTH 1QNNE11 1 00201E11 1 00201E11 1 00000E11 1 00000G11U1 99999H11 1 11080H11 1 23120H11 1 00999H11 1 00999K11 1 00045L11 1 04000M11 1 25220N11 1 00000Q11 1 10127S11 1 00071V11 1 00202W11 1 44004
0269999999039181953021821005+36300-092600SAO  +021599999V02020359009850914449N024000599+01675-00445101965ADDGD13995+9999999GD20995+9999999GD30995+9999999GD40995+9999999GF106035999999999999999999MA1999999099295EQDN01 00000JPWTH 1QNNE11 1 00499E11 1 00099E11 1 00099E11 1 00099G11 1 00300K11 1 00024L11 1 01500M11 1 29320N11 1 00000Q11 1 10196S11 1 00062V11 1 00704W11 1 56019
0050723566939501953091122004+34883-095783SAO  +0235MLC  V0202031N005112200019N0240001N1+03291+01851101631ADDGF102991999999999999999999MA1999999099021MW1001
0082716280999991953121718004+45317-075667SAO  +0126CYOW V0202931N004112200019N0240001N1-01371-01701102411ADDGA1011+009009059GA2011+030009039GF102991999999999999999999MA1999999101081MW1001
0269999999932091953071722005+35667-120633SAO  +0246PRB  V02022559008852200059N048000599+03064+00395101324ADDGD10995+9999999GD20995+9999999GD30995+9999999GD40995+9999999GF100005999999999999999999MA1999999098414EQDN01 00000JPWTH 1QNNE11 1 00099E11 1 00099E11 1 00099E11 1 00099G11U1 99999K11 1 00039L11 1 03000M11 1 29060N11 1 00000Q11 1 10132S11 1 00087V11 1 00000W11 1 66017
0066722860231191953012416004+33900-117250SAO  +0466RIV  V0209991C000012200019N0720001N9+01221+00221101991ADDGA1071+075009009GF107991999999999999999999MA1999999096481MW1001
0377999999232451953092402005+99999+999999SAO  +999999999V02029359001052200059N012800599+01505+01335101725ADDGA1999+001834074GA2999+076204004GA3999+999999999GA4999+999999999GD12025+9999999GD24085+9999993GD30005+9999999GD40005+9999999GF108025999999999999999999MA1999999101155EQDN01 00000JPWTH 1QNNE11 1 00202E11 1 00510E11 1 00000E11 1 00000G11U1 99999H11 1 16006H11 1 32250H11 1 00999H11 1 00999K11 1 00056L11 1 00800M11 1 29870N11 1 00000Q11 1 10172S11 1 00059V11 1 01002W11 1 78002
0098042020999991953091622004+76550-068800SAO  +0080BGTL V0203601N002112200019N0400001N9+00081-00311100711ADDGA1021+007509059GA2011+021009039GA3031+051009029GF107991999999999999999999MA1999999099701MW1001
0132943120999991953041610003-20367+118617FM-12+0008YPPD V0203201N006719999999N0200001N9+03441+02391999999ADDAY101999GA1005+999999999GA2055+999999045GA3025+999999999GF107991001001999999031081KA1999M+04171KA2999N+02221MA1999999100711MW1001
0066718010999991953120823004+47617-052750SAO  +0140CYYT V0202701N010810090019N0240001N1+00351+00021100561ADDGA1071+009009059GF107991999999999999999999MA1999999098851MW1001
009294610599999195304252200N-31930+115970AUST +0012YPPH V0200455N002659999999N999999999+01205+01105999999ADDGA1025+010505065GA2005+999999999GA3085+999999999GF108995024055010505999065MA1999999101615
0377999999137731953020314005+38500-077300SAO  +0004NYG  V02099999000050051849N012800599+00005-00505101605ADDGA1999+005184064GA2999+036584034GA3999+999999999GA4999+999999999GD13055+9999999GD24085+9999999GD30005+9999999GD40005+9999999GF108075999999999999999999MA1999999101565EQDN01 00000JPWTH 1QNNE11 1 00406E11 1 00610E11 1 00000E11 1 00000G11 1 00017H11 1 15017H11 1 23120H11 1 00999H11 1 00999K11 1 00023L11 1 00800M11 1 29990N11 1 00000Q11 1 10160S11 1 00032V11 1 01009W11 1 00000
0377999999149471953081209005+44883-093217SAO  +0255MSP  V02022559002152200059N016000599+01785+01615101695ADDGA1999+076204024GA2999+999999999GA3999+999999999GA4999+999999999GD13055+9999993GD20005+9999999GD30005+9999999GD40005+9999999GF105025999999999999999999MA1999999098655EQDN01 00000JPWTH 1QNNE11 1 00306E11 1 00000E11 1 00000E11 1 00000G11U1 99999H11 1 37250H11 1 00999H11 1 00999H11 1 00999K11 1 00061L11 1 01000M11 1 29130N11 1 00000Q11 1 10169S11 1 00064V11 1 00603W11 1 66004
0050718560999991953020901004+50633-097050SAO  +0221CYGM V0203381N004612200019N0240001N1-01481-01871103041ADDGF100991999999999999999999MA1999999100141MW1001
0377999999147891953061221005+42267-071033SAO  +000599999V02011359006750762049N024000599+01725+00785102015ADDGA1999+076204004GA2999+999999999GA3999+999999999GA4999+999999999GD13065+9999999GD20005+9999999GD30005+9999999GD40005+9999999GF106065999999999999999999MA1999999101965EQDN01 00000JPWTH 1QNNE11 1 00407E11 1 00000E11 1 00000E11 1 00000G11 1 00250H11 1 32250H11 1 00999H11 1 00999H11 1 00999K11 1 00046L11 1 01500M11 1 30110N11 1 00000Q11 1 10201S11 1 00063V11 1 00707W11 1 34013
0362725038147141953041321003+41500-074100SAO  +0141SWF  V02036059010350033549N0080005N1+00285+00225099595ADDGA1051+001524064GA2061+003354074GA3081+005494074GD13055+9999993GD23065+9999999GD34085+9999999GD40995+9999999GF108085999999999999999999MA1999999097835MW1455MW2615EQDN01 02070JPWTH 1QNNE11 1 00306E11 1 00408E11 1 00610E11 1 00099G11 1 00011H11 1 15005H11 1 16011H11 1 16018K11 1 00036L11 1 00500M11 1 28890N11 1 02070Q11 1 09959S11 1 00037V11 1 01010W11 1 11020
0098747810999991953072900004+30967-083200SAO  +0074VAD  V0201101N003110360019N0160001N9+02851+02631101651ADDGA1031+010509089GA2021+036009039GA3021+075009029GF107991999999999999999999MA1999999100811MW1001
0094101470999991953050602004+53633+010000FM-12+001699999V0203001N00511003001CN0160001N9+99999+99999999999ADDAY121999GA1071+003009079GA2071+003009079GF108991999999999999999999MW1021EQDQ01+082421APOA  
031399999914895195310050700E+40917-081433SAO  +037099999V02002359003150243849N024000599+01005+00675102035ADDAA101000095GA1999+024384054GD14085+9999999GD20995+9999999GD30995+9999999GD40995+9999999GF108085999999999999999999MA1999999097565MW1615EQDN01 02000JPWTH 1QNNE11 1 00610E11 1 00099E11 1 00099E11 1 00099G11 1 00080H11 1 22080K11 1 00044L11 1 01500M11 1 28810N11 1 02000Q11 1 10203S11 1 00050V11 1 01010W11 1 12006
0308999999350461953121005005+52367+000483SAO  +0010EGUN V02022559002650003049N000800599+00505+00445102275ADDGA1999+000304104GD15085+9999999GD20995+9999999GD30995+9999999GD40995+9999999GF108085999999999999999999MA1999999102135MW1455MW2515EQDN01 03370JPWTH 1QNNE11 1 00710E11 1 00099E11 1 00099E11 1 00099G11 1 00001H11 1 45001K11 1 00040L11 1 00050M11 1 30160N11 1 03370Q11 1 10227S11 1 00041V11 1 01010W11 1 66005
0187722745231091953093002003+32183-110883SAO  +0798DMA  V02031559005252200059N0800005N9+02895+00615100635ADDGA1001+999999999GF100005999999999999999999MA1999999091605MW1001EQDN01 00000JPWTH 1QNNG11U1 99999K11 1 00043L11 1 05000M11 1 27050N11 1 00000Q11 1 10063S11 1 00084V11 1 00000W11 1 88010
0066471220999991953121303004+37100-127033SAO  +0012RKSO V0209991C000012200019N0112001N9+00611+00111102611ADDGA1021+012009059GF102991999999999999999999MA1999999102401MW1001
038899999993820195301122000E+38033-084600SAO  +029999999V02018059007752200059N024000599+00564-00395102344ADDAA101000095GA1999+045724034GA2999+076204004GA3999+999999999GA4999+999999999GD12025+9999999GD23045+9999993GD30005+9999999GD40005+9999999GF106025999999999999999999MA1999999098654EQDN01 00000JPWTH 1QNNE11 1 00202E11 1 00305E11 1 00000E11 1 00000G11U1 99999H11 1 23150H11 1 32250H11 1 00999H11 1 00999K11 1 00025L11 1 01500M11 1 29130N11 1 00000Q11 1 10234S11 1 00042V11 1 00703W11 1 55015
0269999999939931953030305005+36000-094167SAO  +038399999V02099999000050061049N011200599+01114+01115100754ADDGD14995+9999999GD20995+9999999GD30995+9999999GD40995+9999999GF108085999999999999999999MA1999999096284EQDN01 00000JPWTH 1QNNE11 1 00699E11 1 00099E11 1 00099E11 1 00099G11 1 00020K11 1 00052L11 1 00700M11 1 28430N11 1 00000Q11 1 10075S11 1 00052V11 1 01010W11 1 00000
0073984290999991953090906004+14517+121000FM-12+001599999V0202401N00311069001CN0200001N9+02671+02441101111ADDAY121999GA1081+069009029GF108991021021008001011081MD1810261+9999MW1021
017699999923174195308220000E+33933-118383SAO  +003799999V02024859005752200059N012800599+02065+01565101085ADDAA101000095GF100005999999999999999999MA1999999100715EQDN01 00000JPWTH 1QNNG11U1 99999K11 1 00060L11 1 00800M11 1 29740N11 1 00000Q11 1 10108S11 1 00069V11 1 00000W11 1 76011
0043162390999991953021907004+41800+012600FM-12+013199999V0200601N00261220001CN0060001N9+99999+99999999999ADDAY101999GF100991999999999999999999MW1051
0067726985999991953032106004+45550-122400SAO  +0010TTD  V0201801N005110114019N0192001N1+00631+00241999999ADDGA1031+006009059GA2081+011409059GF108991999999999999999999MW1611
038899999923188195311181100E+32733-117167SAO  +0011MYF  V02033859004152200059N024000599+01285+00335101425ADDAA101000095GA1999+007624064GA2999+999999999GA3999+999999999GA4999+999999999GD10005+9999999GD20005+9999999GD30005+9999999GD40005+9999999GF100005999999999999999999MA1999999101325EQDN01 00000JPWTH 1QNNE11 1 00000E11 1 00000E11 1 00000E11 1 00000G11U1 99999H11 1 15025H11 1 00999H11 1 00999H11 1 00999K11 1 00038L11 1 01500M11 1 29920N11 1 00000Q11 1 10142S11 1 00055V11 1 00000W11 1 18008
0112317270999991953083000004+48300+133200FM-12+005399999V0202201N00411220001CN0500001N9+02281+01611102281ADDAJ100009199999999AY111999GF108991001001999999001011HL10009IA1009IA2999+01009KA1999N+01611MD1810011+9999MW1021
0058063400999991953071621004+51450+004333FM-12+002099999V0201601N004119999999N0060001N9+01611+01501999999ADDAY121999GF108991041091004501071999MA1999999101231MW1251
0323999999433221953050412005+34150+132233SAO  +0003RIWA V02099999000050091449N024000599+01615+01335102245ADDGA1999+009144064GA2999+013724064GD13055+9999999GD24085+9999999GD30995+9999999GD40995+9999999GF108085999999999999999999MA1999999102175EQDN01 00000JPWTH 1QNNE11 1 00406E11 1 00610E11 1 00099E11 1 00099G11 1 00030H11 1 15030H11 1 15045K11 1 00056L11 1 01500M11 1 30170N11 1 00000Q11 1 10224S11 1 00061V11 1 01010W11 1 00000
034072365023050195302192300C+35050-106617SAO  +1619ABQ  V02029359007250182949N0640005N9+00005-01565100515ADDAA101000095GA1061+018294064GA2021+039624034GD13065+9999999GD24025+9999999GD30995+9999999GD40995+9999999GF108085999999999999999999MA1999999082705MW1001EQDN01 00000JPWTH 1QNNE11 1 00407E11 1 00603E11 1 00099E11 1 00099G11 1 00060H11 1 15060H11 1 23130K11 1 00004L11 1 04000M11 1 24420N11 1 00000Q11 1 10051S11 1 00032V11 1 01010W11 1 78014
0275723527139751953110801003+36300-099767SAO  +0669GAG  V02002359001550024449N0112005N1+00335+00115103015ADDGD14995+9999999GD20995+9999999GD30995+9999999GD40995+9999999GF108085999999999999999999MA1999999094995MW1001EQDN01 00000JPWTH 1QNNE11 1 00699E11 1 00099E11 1 00099E11 1 00099G11 1 00008K11 1 00034L11 1 00700M11 1 28050N11 1 00000Q11 1 10301S11 1 00038V11 1 01010W11 1 12003
0082702615999991953040601004+64833-147600SAO  +0139PAFB V0202901N003610240019N0240001N9-00091-00811101731ADDGA1031+018009059GA2021+024009039GF107991999999999999999999MA1999999099931MW1001
0383999999350491953072611005+52317+000917SAO  +006199999V02022559008850067149N016000599+01675+01115101025ADDGA1999+006714084GA2999+042674034GA3999+999999999GA4999+999999999GD13055+9999999GD23075+9999999GD30005+9999999GD40005+9999999GF107075999999999999999999MA1999999100245MW1805EQDN01 02300JPWTH 1QNNE11 1 00406E11 1 00409E11 1 00000E11 1 00000G11 1 00022H11 1 11022H11 1 23140H11 1 00999H11 1 00999K11 1 00052L11 1 01000M11 1 29600N11 1 02300Q11 1 10102S11 1 00062V11 1 00909W11 1 66017
0057104790999991953100412004+51300+013017FM-12+032599999V0203401N00311001501CN0010001N9+01221+01111102081ADDAY121061GF108991061061001501999999MD1990041+9999MW1281
0078939970999991953080612004-29250+177917FM-12+004999999V0201101N00621220001CN0500001N9+01391+00781102751ADDAY111999GF101991011011008001001001MW1011EQDQ01+000032APCTENQ02+000002APC3  
0269999999240241953041100005+44050-101600SAO  +0672PHP  V02036059004650152449N024000599+00335-00395101635ADDGD13995+9999999GD20995+9999999GD30995+9999999GD40995+9999999GF106065999999999999999999MA1999999093575EQDN01 00000JPWTH 1QNNE11 1 00499E11 1 00099E11 1 00099E11 1 00099G11 1 00050K11 1 00025L11 1 01500M11 1 27630N11 1 00000Q11 1 10163S11 1 00038V11 1 00807W11 1 11009
0057010230999991953032912004+69067+018533FM-12+007999999V0201101N009319999999N0700001N9-00781-01391098541ADDAY121999GF105991021051012501001021MD1610121+9999MW1021
0165999999931161953021021005+33250-119467SAO  +015399999V02036059005252200059N080000599+01504+00115102214ADDGF100005999999999999999999MA1999999100414EQDN01 00000JPWTH 1QNNG11U1 99999K11 1 00034L11 1 05000M11 1 29650N11 1 00000Q11 1 10221S11 1 00059V11 1 00000W11 1 11010
039499999914822195308091900E+42400-083000SAO  +018999999V02036059005250091449N009600599+02505+01615101405ADDAA101000095GA1999+009144084GA2999+999999999GA3999+999999999GA4999+999999999GD13065+9999999GD20005+9999999GD30005+9999999GD40005+9999999GF106065999999999999999999MA1999999099155MW1045EQDN01 08000JPWTH 1QNNE11 1 00407E11 1 00000E11 1 00000E11 1 00000G11 1 00030H11 1 11030H11 1 00999H11 1 00999H11 1 00999K11 1 00061L11 1 00600M11 1 29280N11 1 08000Q11 1 10140S11 1 00077V11 1 00707W11 1 11010
038899999914942195301272300E+41300-095900SAO  +0304OMA  V02031559005752200059N024000599-00285-00725102375ADDAA101000095GA1999+076204004GA2999+999999999GA3999+999999999GA4999+999999999GD10005+9999999GD20005+9999999GD30005+9999999GD40005+9999999GF100005999999999999999999MA1999999098685EQDN01 00000JPWTH 1QNNE11 1 00000E11 1 00000E11 1 00000E11 1 00000G11U1 99999H11 1 32250H11 1 00999H11 1 00999H11 1 00999K11 1 00019L11 1 01500M11 1 29140N11 1 00000Q11 1 10237S11 1 00027V11 1 00000W11 1 88011
0082701730999991953061423004+66050-153750SAO  +0305PAIM V0209991C000010150019N0240001N9+01301+00741101611ADDGA1051+015009059GA2031+021009039GF108991999999999999999999MA1999999097801MW1001
0057233300999991953102306004+66533+066533FM-12+003599999V0203201N00411015001CN0500001N9-00891-01391101341ADDAY121999GF107991071051017501001001MD1210111+9999MW1021
0068314430999991953120412004+51633+128650FM-12+016399999V0202901N00101220001CN0010001N9-02891-03281102961ADDAA199002091AY101999GF100991001001999999001001MD1810021+9999MW1021
0296999999225361953092319005+21983-159350SAO  +0031LIH  V02006859004150054949N024000599+02505+02065101805ADDGA1999+005494084GD14085+9999999GD20995+9999999GD30995+9999999GD40995+9999999GF108085999999999999999999MA1999999101295EQDN01 00000JPWTH 1QNNE11 1 00610E11 1 00099E11 1 00099E11 1 00099G11 1 00018H11 1 11018K11 1 00069L11 1 01500M11 1 29910N11 1 00000Q11 1 10180S11 1 00077V11 1 01010W11 1 32008
0085467700999991953020122004+24267+120617SAO  +0005RCMQ V0203601N005110039019N0008001N1+01411+01411102151ADDGA1081+003909089GF108991999999999999999999MA1999999099801MW1451EQDQ01+999990APOSLP
010972251012924195304181400D+27767-097500SAO  +0013CRP  V0202031N010310036019N0160001N1+02571+02351100771ADDAA101000095GA1051+003609079GA2031+054009039GA3081+075009029GF108991999999999999999999MA1999999100611MW1001
0049407090999991953041908004+38083+046283FM-12+139199999V0202901N00101220001CN0400001N9+01781+00721999999ADDAY101999GF106991011011012501001011IA1009MW1001
0179999999947321953111716005+40083-075017SAO  +0030PNE  V02031559003152200049N009600599+99999+99999999999ADDGD10995+9999999GD20995+9999999GD30995+9999999GD40995+9999999MW1044EQDN01 08200JPWTH 1QNNE11 1 00099E11 1 00099E11 1 00099E11 1 00099G11U1 99999L11 1 00600N11 1 08200W11 1 88006
0123474300999991953010521004+41817+140750FM-12+003699999V0200901N010819999999N0060001N9+00111+00001100461ADDAY101999GA1999+087009029GA2031+027009059GF108991999071008001021999MA1999999100031MD1810421+9999MW1711EQDQ01+000002SCOTLC
0126305140999991953050300004+54417+103250FM-12+036599999V0201401N00211220001CN0200001N9+00221-00501100631ADDAY121999GF106991999001999999031001HL10009IA2999-00289KA1999N-00111MW1021EQDQ01+000002SCOTLCQ02+000032APCTENQ03+000002APC3  
0296999999148101953110103005+41983-087900SAO  +020199999V02002359003650045749N019200599+01065+00785102075ADDGA1999+004574074GD14085+9999999GD20995+9999999GD30995+9999999GD40995+9999999GF108085999999999999999999MA1999999099635EQDN01 00000JPWTH 1QNNE11 1 00610E11 1 00099E11 1 00099E11 1 00099G11 1 00015H11 1 16015K11 1 00046L11 1 01200M11 1 29420N11 1 00000Q11 1 10207S11 1 00051V11 1 01010W11 1 12007
038899999914737195304281900E+40650-075433SAO  +0118ABE  V02027059008850182949N024000599+01225-00065101155ADDAA101000095GA1999+018294064GA2999+999999999GA3999+999999999GA4999+999999999GD13055+9999999GD20005+9999999GD30005+9999999GD40005+9999999GF105055999999999999999999MA1999999099735EQDN01 00000JPWTH 1QNNE11 1 00406E11 1 00000E11 1 00000E11 1 00000G11 1 00060H11 1 15060H11 1 00999H11 1 00999H11 1 00999K11 1 00031L11 1 01500M11 1 29450N11 1 00000Q11 1 10115S11 1 00054V11 1 00606W11 1 77017
007772405013743195306031900D+38850-077033SAO  +0020DCA  V0202931N003112200019N0240001N1+02631+01191101761ADDAA101000095GA1999+018009999GF100991999999999999999999MA1999999101661MW1001
0050110300999991953050323004+48317+016117SAO  +0176LOXT V0209991C000012200019N0160001N1+00741+00691101791ADDGF100991999999999999999999MA1999999099701MW1001
0112307390999991953053000004+52167+109767FM-12+067199999V0209991C00001220001CN0200001N9+01111+00391101641ADDAJ100009199999999AY101999GF103991001001999999001051HL10009IA1009IA2999+00229KA1999N+00281MD1310111+9999MW1031
0082912500999991953120213004+11350+162350SAO  +0005PKMA V0200681N008212200019N0160001N1+02681+02301100911ADDGA1021+005409089GA2081+090009029GF108991999999999999999999MA1999999100851MW1001
0094477780999991953122810004+33450+135767FM-12+007599999V0209991C00051024001CN0150001N9+01221+00501101641ADDAY101999GA1999+011709059GA2999+014709089GF108991061001999999071999MW1211EQDQ01    003SCCGA2
0108325400999991953110518004+52967+158750FM-12+000799999V0200901N01591007801CN0005001N9+00001-00391099402ADDAY171999GF108991999071008001021999MD1710582+9999MW1731EQDQ01+000082SCOTLCQ02+099403APOSLPQ03+000582APC3  
0281999999149401953022011005+43150-093333SAO  +037399999V02002359009850006149N004800599-00225-00225100515ADDGD14995+9999999GD20995+9999999GD30995+9999999GD40995+9999999GF108085999999999999999999MA1999999096175MW1455MW2665EQDN01 02670JPWTH 1QNNE11 1 00699E11 1 00099E11 1 00099E11 1 00099G11 1 00002K11 1 00028L11 1 00300M11 1 28400N11 1 02670Q11 1 10051S11 1 00028V11 1 01010W11 1 12019
0085724240138071953072713004+37900-085967SAO  +0223FTK  V0209991C000012200019N0112001N9+02571+01411102271ADDGA1999+075009999GF100991999999999999999999MA1999999099561MW1001EQDQ01    003SCCGA1
0066106070999991953071801004+49967+006700SAO  +0362EDAD V0209991C000012200019N0128001N9+01571+01411101471ADDGA1021+006009059GF102991999999999999999999MA1999999097191MW1001
031399999924225195301050500E+42367-122867SAO  +0396MFR  V02099999000050003049N000200599+00065+00065101955ADDAA101000095GA1999+000304104GD15085+9999999GD20995+9999999GD30995+9999999GD40995+9999999GF108085999999999999999999MA1999999097055MW1455EQDN01 07000JPWTH 1QNNE11 1 00710E11 1 00099E11 1 00099E11 1 00099G11 1 00001H11 1 45001K11 1 00033L11 1 00012M11 1 28660N11 1 07000Q11 1 10195S11 1 00033V11 1 01010W11 1 00000
0058946460999991953060621004-30833+128100FM-12+016099999V0200901N004119999999N0190001N9+01001+00891999999ADDAY161999GF107991031031012501999999MA1999999099291MW1001
039472531014806195308292100C+40300-088150SAO  +0226RAN  V02018059005252200059N0160005N1+03565+01895101225ADDAA101000095GA1011+018294084GA2999+999999999GA3999+999999999GA4999+999999999GD12015+9999999GD20005+9999999GD30005+9999999GD40005+9999999GF101015999999999999999999MA1999999098615MW1001EQDN01 00000JPWTH 1QNNE11 1 00201E11 1 00000E11 1 00000E11 1 00000G11U1 99999H11 1 11060H11 1 00999H11 1 00999H11 1 00999K11 1 00066L11 1 01000M11 1 29120N11 1 00000Q11 1 10122S11 1 00096V11 1 00101W11 1 55010
038899999914942195312080200E+41300-095900SAO  +0304OMA  V02036059005752200059N024000599+00285+00005101135ADDAA101000095GA1999+076204024GA2999+999999999GA3999+999999999GA4999+999999999GD13065+9999993GD20005+9999999GD30005+9999999GD40005+9999999GF106025999999999999999999MA1999999097495EQDN01 00000JPWTH 1QNNE11 1 00307E11 1 00000E11 1 00000E11 1 00000G11U1 99999H11 1 37250H11 1 00999H11 1 00999H11 1 00999K11 1 00032L11 1 01500M11 1 28790N11 1 00000Q11 1 10113S11 1 00037V11 1 00703W11 1 11011
0269999999231531953120221005+38067-117117SAO  +165499999V02029359010850243849N064000599+00505-00785101615ADDGD13995+9999999GD24995+9999999GD30995+9999999GD40995+9999999GF108075999999999999999999MA1999999083105EQDN01 00000JPWTH 1QNNE11 1 00499E11 1 00699E11 1 00099E11 1 00099G11 1 00080K11 1 00018L11 1 04000M11 1 24540N11 1 00000Q11 1 10161S11 1 00041V11 1 01009W11 1 78021
0269999999939951953111200005+38300-094333SAO  +026599999V02004559001552200059N024000599+00724+00335102684ADDGD10995+9999999GD20995+9999999GD30995+9999999GD40995+9999999GF100005999999999999999999MA1999999099394EQDN01 00000JPWTH 1QNNE11 1 00099E11 1 00099E11 1 00099E11 1 00099G11U1 99999K11 1 00038L11 1 01500M11 1 29350N11 1 00000Q11 1 10268S11 1 00045V11 1 00000W11 1 22003
0269999999148171953072611005+44283-085417SAO  +039599999V02022559004152200059N024000599+02005+01835101765ADDGD12995+9999999GD22995+9999999GD30995+9999999GD40995+9999999GF104035999999999999999999MA1999999097125EQDN01 00000JPWTH 1QNNE11 1 00299E11 1 00299E11 1 00099E11 1 00099G11U1 99999K11 1 00065L11 1 01500M11 1 28680N11 1 00000Q11 1 10176S11 1 00068V11 1 00504W11 1 66008
0089108660999991953010615004+48133+011700FM-12+056399999V0200701N00411002401CN0050001N9-00281-00501100771ADDAY171031GA1081+002409079GA2081+002409079GF108991081061002501999999MD1810201+9999MW1101
0057303280999991953070318004+56050+105833FM-12+033899999V0209991C00001220001CN9999999N9+01721+01111100601ADDAY121999GF105991001001999999001011MD1310021+9999MW1021
0377999999225361953070805005+21983-159350SAO  +0031LIH  V02004559004150182949N024000599+02395+01895101865ADDGA1999+006714084GA2999+018294034GA3999+999999999GA4999+999999999GD12015+9999999GD23055+9999999GD30005+9999999GD40005+9999999GF105055999999999999999999MA1999999101355EQDN01 00000JPWTH 1QNNE11 1 00201E11 1 00406E11 1 00000E11 1 00000G11 1 00060H11 1 11022H11 1 23060H11 1 00999H11 1 00999K11 1 00066L11 1 01500M11 1 29930N11 1 00000Q11 1 10186S11 1 00075V11 1 00606W11 1 22008
0070263780999991953010806004+57150+031183FM-12+007199999V0202001N00621007801CN0100001N9-00781-01001101861ADDAY121999GF108991081051008001999999KA1999N-01781MD1710061+9999MW1021
0165999999139281953041604005+31633-097067SAO  +014599999V02002359004652200059N024000599+01285+00005102095ADDGF100005999999999999999999MA1999999100375EQDN01 00000JPWTH 1QNNG11U1 99999K11 1 00032L11 1 01500M11 1 29640N11 1 00000Q11 1 10209S11 1 00055V11 1 00000W11 1 12009
0000489550999991953070318004+15117+105783FM-12+009399999V02099999999999999999N9999999N9+02331+02221999999
0081226570999991953100806004+63067+040350FM-12+010899999V0200401N00411000151CN0002001N9-00111-00111100191ADDAA199000391AY141999GF109991091999000251999999KA1999N-00391MD1310131+9999MW1481
0302999999942241953012413005+46150-123883SAO  +000399999V02027059005250030549N008000599+00894+00835101634ADDGA1999+003054134GD14085+9999999GD20995+9999999GD30995+9999999GD40995+9999999GF108085999999999999999999MA1999999101564MW1615EQDN01 02000JPWTH 1QNNE11 1 00610E11 1 00099E11 1 00099E11 1 00099G11 1 00010H11 1 13010K11 1 00047L11 1 00500M11 1 29990N11 1 02000Q11 1 10163S11 1 00048V11 1 01010W11 1 77010
0057122050999991953050500004+53400+014617FM-12+000799999V0200201N00101007801CN0100001N9+01001+00391102071ADDAY121999GF108991081051008001999999MD1990071+9999MW1021
0088724096147061953051210004+40033-074600SAO  +0037WRI  V0209991C000012200019N0032191N9+01221+01051101321ADDGA1011+027009039GA2021+075009029GF102991999999999999999999MA1999999100851MW1041MW2111
0066722686230081953040205004+34383-103317SAO  +1309CVS  V0201401N010312200019N0240001N9+01131-00041101071ADDGA1011+075009009GF102991999999999999999999MA1999999086591MW1001
0232999999149391953100103005+40850-096767SAO  +035899999V02015859001552200059N024000599+01675-00565999999ADDGD10995+9999999GD20995+9999999GD30995+9999999GD40995+9999999GF100005999999999999999999EQDN01 00000JPWTH 1QNNE11 1 00099E11 1 00099E11 1 00099E11 1 00099G11U1 99999K11 1 00022L11 1 01500N11 1 00000S11 1 00062V11 1 00000W11 1 54003
0269999999137281953112520005+36567-079333SAO  +018099999V02031559007252200059N024000599+01005-00335100075ADDGD12995+9999999GD20995+9999999GD30995+9999999GD40995+9999999GF101015999999999999999999MA1999999097975EQDN01 00000JPWTH 1QNNE11 1 00299E11 1 00099E11 1 00099E11 1 00099G11U1 99999K11 1 00026L11 1 01500M11 1 28930N11 1 00000Q11 1 10007S11 1 00050V11 1 00101W11 1 88014
0082466960999991953042619004+25067+121550SAO  +0006RC55 V0209991C000010099019N0028001N1+02071+02071101151ADDGA1051+009909009GA2081+027009079GF108991999999999999999999MA1999999101051MW1451
0066747340999991953041014004+32367-106467SAO  +129399999V0202501N004612200019N0640001N9+01521-00311100921ADDGA1001+999999999GF100991999999999999999999MA1999999086761MW1001
0187722080138801953052608003+32900-080033SAO  +0012CHS  V02022559004652200059N0240005N1+02565+02115101225ADDGA1001+999999999GF100005999999999999999999MA1101221101055MW1001EQDN01 00000JPWTH 1QNNG11U1 99999K11 1 00070L11 1 01500M11 1 29840N11 1 00000Q11 1 10122S11 1 00078V11 1 00000W11 1 66009
0057355220999991953101912004+48733+056033FM-12+018699999V0201601N00871220001CN0100001N9+01391-00721102211ADDAY121999GF106991001001999999001051MD1710231+9999MW1021
028099999914910195308221300E+45867-095383SAO  +0435AXN  V02015859003152200059N019200599+01785+01395102275ADDAA101000095GD10995+9999999GD20995+9999999GD30995+9999999GD40995+9999999GF100005999999999999999999MA1999999097125EQDN01 00000JPWTH 1QNNE11 1 00099E11 1 00099E11 1 00099E11 1 00099G11U1 99999K11 1 00057L11 1 01200M11 1 28680N11 1 00000Q11 1 10227S11 1 00064V11 1 00000W11 1 54006
0089889250999991953122718004-60700-045583FM-12+000799999V0203001N018519999999N0200001N9+00611+00501099071ADDAY111999GA1999+030009049GA2031+999999999GF105991031051012501041999MD1610031+9999MW1011
0187725540149491953122611003+41117-095900SAO  +0314OFF  V02029359003652200059N0192005N9-00285-00565102345ADDGA1001+999999999GF100005999999999999999999MA1999999098375MW1001EQDN01 00000JPWTH 1QNNG11U1 99999K11 1 00022L11 1 01200M11 1 29050N11 1 00000Q11 1 10234S11 1 00027V11 1 00000W11 1 78007
0066747880128101953102708004+27850-082500SAO  +0003KMCF V0201401N001512200019N0128001N9+02111+01831101521ADDGA1061+090009009GF107991999999999999999999MA1999999101461MW1001
0377999999938391953112607005+99999+999999SAO  +999999999V02029359005250182949N024000599+00284-00115101564ADDGA1999+018294064GA2999+999999999GA3999+999999999GA4999+999999999GD13055+9999999GD20005+9999999GD30005+9999999GD40005+9999999GF105055999999999999999999MA1999999100474EQDN01 00000JPWTH 1QNNE11 1 00406E11 1 00000E11 1 00000E11 1 00000G11 1 00060H11 1 15060H11 1 00999H11 1 00999H11 1 00999K11 1 00030L11 1 01500M11 1 29670N11 1 00000Q11 1 10156S11 1 00037V11 1 00606W11 1 78010
0050722448999991953091407004+32367-095400SAO  +0168TYR  V0201351N002112200019N0240001N1+02351+01191101421ADDGF100991999999999999999999MA1999999099491MW1001
0383702610264111953061802003+64817-147867SAO  +0135FAI  V02022559003650091449N0240005N1+01565+01285101395ADDGA1051+009144084GA2021+024384034GA3021+076204024GA4999+999999999GD19055+9999999GD29025+9999999GD39025+9999999GD49005+9999999GF108065999999999999999999MA1999999099705MW1001EQDN01 00000JPWTH 1QNNE11 1 09906E11 1 09902E11 1 09902E11 1 09900G11 1 00030H11 1 11030H11 1 23080H11 1 37250H11 1 00999K11 1 00055L11 1 01500M11 1 29440N11 1 00000Q11 1 10139S11 1 00060V11 1 01008W11 1 66007
0081288310999991953120606004+53933+058333FM-12+056599999V0202201N01391007801CN0020001N9-00111-00281099921ADDAA199003091AY131999GF108991081051008001999999KA1999N-00501MD1810061+9999MW1391
0269999999242201953100316005+47033-120517SAO  +0527ELN  V02018059001550670649N048000599+00505+00395103125ADDGD12995+9999999GD23995+9999999GD30995+9999999GD40995+9999999GF106055999999999999999999MA1999999096725EQDN01 00000JPWTH 1QNNE11 1 00299E11 1 00499E11 1 00099E11 1 00099G11 1 00220K11 1 00039L11 1 03000M11 1 28560N11 1 00000Q11 1 10312S11 1 00041V11 1 00806W11 1 55003
0057254930999991953091800004+65783+169083FM-12+003999999V0203601N00721030001CN0200001N9+00221+00221100101ADDAY121999GF107991031061004501031001MD1310031+9999MW1401
0165999999148551953092300005+42083-087833SAO  +0197NBU  V02013559002652200059N024000599+01335+00615102805ADDGF100005999999999999999999MA1999999100415EQDN01 00000JPWTH 1QNNG11U1 99999K11 1 00043L11 1 01500M11 1 29650N11 1 00000Q11 1 10280S11 1 00056V11 1 00000W11 1 44005
0057303120999991953110506004+56767+103833FM-12+027599999V0209991C00001220001CN0500001N9-00891-01281103051ADDAY101999GF103991001001999999001011MD1810171+9999MW1021
0063853150999991953070312004-20083-063533FM-12+091499999V0201801N00101002401CN0100001N9+01001+00891102281ADDAY151999GF108991081071002501999999IA1089MD1310201+9999MW1521
0350471410432191953081208002+35900+126617SAO  +001099999V02024859001550609649N019200599+02895+02565100825ADDGA1999+007624064GA2999+036584034GA3999+060964024GD12005+9999999GD24025+9999999GD30085+9999999GD40995+9999999GF108085999999999999999999MA1999999100685EQDN01 00000JPWTH 1QNNE11 1 00200E11 1 00602E11 1 00010E11 1 00099G11 1 00200H11 1 15025H11 1 23120H11 1 37200K11 1 00078L11 1 01200M11 1 29730N11 1 00000Q11 1 10082S11 1 00084V11 1 01010W11 1 76003
038899999924153195311070000E+46917-114083SAO  +0972MSO  V02011359002150137249N048000599+00565+00115101615ADDAA101000095GA1999+003664154GA2999+007624154GA3999+013724064GA4999+999999999GD12005+9999999GD23025+9999999GD30055+9999999GD40005+9999999GF106065999999999999999999MA1999999090285EQDN01 00000JPWTH 1QNNE11 1 00200E11 1 00402E11 1 00006E11 1 00000G11 1 00045H11 1 17012H11 1 17025H11 1 15045H11 1 00999K11 1 00034L11 1 03000M11 1 26660N11 1 00000Q11 1 10161S11 1 00042V11 1 00808W11 1 34004
017699999924021195309272300E+42817-108733SAO  +1694LND  V02027059004652200059N112000599+02615-00445100315ADDAA101000095GF100005999999999999999999MA1999999082225EQDN01 00000JPWTH 1QNNG11U1 99999K11 1 00024L11 1 07000M11 1 24280N11 1 00000Q11 1 10031S11 1 00079V11 1 00000W11 1 77009
018299999914822195302091300E+42400-083000SAO  +018999999V02027059002652200059N004800599-00565-00895103055ADDAA101000095GF100005999999999999999999MA1999999100645MW1045EQDN01 08000JPWTH 1QNNG11U1 99999K11 1 00016L11 1 00300M11 1 29720N11 1 08000Q11 1 10305S11 1 00022V11 1 00000W11 1 77005
0082467430999991953050522004+23000+120217SAO  +0000RCNN V0200901N002110099019N0096001N1+02301+02131100661ADDGA1051+009909009GA2081+027009079GF108991999999999999999999MA1999999100371MW1001
0121474060999991953122918004+43950+141633FM-12+002399999V0201101N00461007801CN0080001N9-00501-00611101231ADDAA106000691AY101999GA1999+999999089GA2061+999999099GF108991081031008001999999IA1319MA1999999100911MD1990031+9999MW1851
0377999999116181953062916005+18467-066117SAO  +001399999V02006859005750061049N024000599+02945+02285101655ADDGA1999+006104084GA2999+999999999GA3999+999999999GA4999+999999999GD13055+9999999GD20005+9999999GD30005+9999999GD40005+9999999GF105055999999999999999999MA1999999101525EQDN01 00000JPWTH 1QNNE11 1 00406E11 1 00000E11 1 00000E11 1 00000G11 1 00020H11 1 11020H11 1 00999H11 1 00999H11 1 00999K11 1 00073L11 1 01500M11 1 29980N11 1 00000Q11 1 10165S11 1 00085V11 1 00606W11 1 32011
0269999999932091953111121005+35667-120633SAO  +0246PRB  V02022559005250076249N040000599+02004+01395101864ADDGD13995+9999999GD20995+9999999GD30995+9999999GD40995+9999999GF106065999999999999999999MA1999999098924EQDN01 00000JPWTH 1QNNE11 1 00499E11 1 00099E11 1 00099E11 1 00099G11 1 00025K11 1 00057L11 1 02500M11 1 29210N11 1 00000Q11 1 10186S11 1 00068V11 1 00707W11 1 66010
0043108660999991953112922004+48133+011700FM-12+056399999V0202301N00411220001CN0400001N9+99999+99999999999ADDAY101011GF102991999999999999999999MW1021
0383727130146041953061212003+46683-068050SAO  +0148PQI  V02036059002152200059N0320005N1+01005+00565102175ADDGA1081+060964004GA2999+999999999GA3999+999999999GA4999+999999999GD14085+9999993GD20005+9999999GD30005+9999999GD40005+9999999GF108035999999999999999999MA1999999100105MW1001EQDN01 00000JPWTH 1QNNE11 1 00510E11 1 00000E11 1 00000E11 1 00000G11U1 99999H11 1 32200H11 1 00999H11 1 00999H11 1 00999K11 1 00042L11 1 02000M11 1 29560N11 1 00000Q11 1 10217S11 1 00050V11 1 01004W11 1 11004
0072725377148041953011405004+42617-082817SAO  +0176MTC  V0203601N001012200019N0032001N9-00041-00041102061ADDGA1001+999999999GF100991999999999999999999MA1999999099761MW1051MW2111
041072745014913195305061000C+46833-092183SAO  +0434DLH  V02031559001052200059N0240005N9+00675+00335101425ADDAA101000095GA1999+076204004GA2999+999999999GA3999+999999999GA4999+999999999GD10005+9999999GD20005+9999999GD30005+9999999GD40005+9999999GF100005999999999999999999MA1999999096315MW1001EQDQ01    003SCCGA1N01 00000JPWTH 1QNNE11 1 00000E11 1 00000E11 1 00000E11 1 00000G11U1 99999H11 1 32250H11 1 00999H11 1 00999H11 1 00999K11 1 00038L11 1 01500M11 1 28440N11 1 00000Q11 1 10142S11 1 00044V11 1 00000W11 1 88002
0106943120999991953042207003-20367+118617FM-12+0008YPPD V0200501N002119999999N0200001N9+03111+01611999999ADDAY101999GA1025+015005085GA2005+999999999GA3015+999999999GF103991021081017501999081MA1999999100641MW1001
0076130180999991953100606004+46233+014483FM-12+038999999V0209991C00001220001CN0002001N9+00391+00391102541ADDAY101999GF104991001001999999051091IA1089KA1999N+00391MD1310011+9999MW1461
0093166410999991953071918004+39617+019917FM-12+000299999V0209991C00001220001CN0160001N9+02891+02221101631ADDAJ100009199999999AY101999GF100991001001999999001001IA1009KA1999M+03281MD1610161+9999MW1001
0269999999938361953012418005+31250-081467SAO  +001599999V02024859006750061049N011200599+01444+01115100714ADDGD12995+9999999GD23995+9999999GD34995+9999999GD40995+9999999GF108085999999999999999999MA1999999100644EQDN01 00000JPWTH 1QNNE11 1 00299E11 1 00499E11 1 00699E11 1 00099G11 1 00020K11 1 00052L11 1 00700M11 1 29720N11 1 00000Q11 1 10071S11 1 00058V11 1 01010W11 1 76013
038899999914752195302242000E+41733-072650SAO  +0006HFD  V02027059008852200059N024000599+01285-00285101465ADDAA101000095GA1999+076204004GA2999+999999999GA3999+999999999GA4999+999999999GD11025+9999993GD20005+9999999GD30005+9999999GD40005+9999999GF102015999999999999999999MA1999999101395EQDN01 00000JPWTH 1QNNE11 1 00103E11 1 00000E11 1 00000E11 1 00000G11U1 99999H11 1 32250H11 1 00999H11 1 00999H11 1 00999K11 1 00027L11 1 01500M11 1 29940N11 1 00000Q11 1 10146S11 1 00055V11 1 00301W11 1 77017
0181724660930371953120403003+38817-104700SAO  +2804COS  V02004559005252200059N0240005N9-00835-01335101085ADDGA1001+999999999GF100005999999999999999999MA1999999079955EQDN01 00000JPWTH 1QNNG11U1 99999K11 1 00008L11 1 01500M11 1 23610N11 1 00000Q11 1 10108S11 1 00017V11 1 00000W11 1 22010
010972311913886195307161700A+34850-082350SAO  +0319GMU  V0200901N005112200019N0240001N1+02911+01741102471ADDAA101000095GA1011+010509089GA2021+030009039GA3021+048009039GF102991999999999999999999MA1999999099051MW1001
0269999999255071953012407005+59633-151500SAO  +002299999V02036059001552200059N048000599-01565-02335102615ADDGD10995+9999999GD20995+9999999GD30995+9999999GD40995+9999999GF100005999999999999999999MA1999999102345EQDN01 00000JPWTH 1QNNE11 1 00099E11 1 00099E11 1 00099E11 1 00099G11U1 99999K11 1-00010L11 1 03000M11 1 30220N11 1 00000Q11 1 10261S11 1 00004V11 1 00000W11 1 11003
0057316550999991953061006004+49450+136567FM-12+002999999V0202701N00101220001CN0500001N9+01891+01111100641ADDAY111999GF102991011011008001001021MD1710171+9999MW1011
038899999913970195310220100E+30533-091150SAO  +0020BTR  V02011359003152200059N016000599+02225+01445101965ADDAA101000095GA1999+091444004GA2999+999999999GA3999+999999999GA4999+999999999GD13055+9999993GD20005+9999999GD30005+9999999GD40005+9999999GF105025999999999999999999MA1999999101695EQDN01 00000JPWTH 1QNNE11 1 00306E11 1 00000E11 1 00000E11 1 00000G11U1 99999H11 1 32300H11 1 00999H11 1 00999H11 1 00999K11 1 00058L11 1 01000M11 1 30030N11 1 00000Q11 1 10196S11 1 00072V11 1 00602W11 1 34006
0111478290999991953081900004+31733+131083FM-12+015599999V0201801N001019999999N0200001N9+02831+02441101261ADDAJ100009199999999AY101999GA1999+999999019GF102991011011999999001011IA1089MA1999999099491MD1110041+9999MW1021
0302744865147191953040706003+40817-072633SAO  +0017FOK  V02018059004650067149N0112005N1+00895+00675101125ADDGA1081+006714064GD14085+9999999GD20995+9999999GD30995+9999999GD40995+9999999GF108085999999999999999999MA1999999100885MW1615EQDN01 02000JPWTH 1QNNE11 1 00610E11 1 00099E11 1 00099E11 1 00099G11 1 00022H11 1 15022K11 1 00044L11 1 00700M11 1 29790N11 1 02000Q11 1 10112S11 1 00048V11 1 01010W11 1 55009
0091040650999991953020609004+66533-018017FM-12+000699999V0209991C00001007801CN0600001N9+00221+99999101801ADDAY121031GA1999+000159999GF106991051051008001031001KA1999N+00221MW1011EQDQ01    003SCCGA1
0269999999148411953090521005+45567-084783SAO  +0218PLN  V02024859008850091449N024000599+01945+01005101295ADDGD13995+9999999GD20995+9999999GD30995+9999999GD40995+9999999GF106065999999999999999999MA1999999098685EQDN01 00000JPWTH 1QNNE11 1 00499E11 1 00099E11 1 00099E11 1 00099G11 1 00030K11 1 00050L11 1 01500M11 1 29140N11 1 00000Q11 1 10129S11 1 00067V11 1 00707W11 1 76017
009372303013714195301071200D+35183-079017SAO  +0064POB  V0202301N005110750019N0160001N9+01131+00631102541ADDAA101000095GA1021+018009039GA2031+075009009GF107991999999999999999999MA1999999101691MW1001
0275727846241601953062201003+46100-118283SAO  +0363ALW  V02022559002652200059N0480005N1+02175+00505101865ADDGD12995+9999999GD23995+9999993GD30995+9999999GD40995+9999999GF106025999999999999999999MA1999999097535MW1001EQDN01 00000JPWTH 1QNNE11 1 00299E11 1 00399E11 1 00099E11 1 00099G11U1 99999K11 1 00041L11 1 03000M11 1 28800N11 1 00000Q11 1 10186S11 1 00071V11 1 00803W11 1 66005
017699999924033195306120500E+45800-108533SAO  +1087BIL  V02036059003152200059N032000599+02335+01505101565ADDAA101000095GF100005999999999999999999MA1999999089435EQDN01 00000JPWTH 1QNNG11U1 99999K11 1 00059L11 1 02000M11 1 26410N11 1 00000Q11 1 10156S11 1 00074V11 1 00000W11 1 11006
028099999924132195305170600E+45783-111150SAO  +1363BZN  V02031559003652200059N048000599+00895+00065101255ADDAA101000095GD12995+9999999GD20995+9999999GD30995+9999999GD40995+9999999GF101015999999999999999999MA1999999086155EQDN01 00000JPWTH 1QNNE11 1 00299E11 1 00099E11 1 00099E11 1 00099G11U1 99999K11 1 00033L11 1 03000M11 1 25440N11 1 00000Q11 1 10125S11 1 00048V11 1 00101W11 1 88007
0101749103999991953041411004+48000-066683SAO  +000599999V0202031N002610240019N0240001N1+00301+00081099251ADDGA1081+024009039GF108991999999999999999999MA1999999099241MW1001EQDQ01+099763APOSP Q02+999990APOSP 
0269999999947891953082120005+40650-073783SAO  +000999999V02013559005750152449N024000599+02284+01175102404ADDGD13995+9999999GD20995+9999999GD30995+9999999GD40995+9999999GF106065999999999999999999MA1999999102344EQDN01 00000JPWTH 1QNNE11 1 00499E11 1 00099E11 1 00099E11 1 00099G11 1 00050K11 1 00053L11 1 01500M11 1 30220N11 1 00000Q11 1 10240S11 1 00073V11 1 00707W11 1 44011
0269999999241931953030920005+40733-114033SAO  +129299999V02011359003152200059N048000599+01175-00115101325ADDGD12995+9999999GD20995+9999999GD30995+9999999GD40995+9999999GF102025999999999999999999MA1999999086895EQDN01 00000JPWTH 1QNNE11 1 00299E11 1 00099E11 1 00099E11 1 00099G11U1 99999K11 1 00030L11 1 03000M11 1 25660N11 1 00000Q11 1 10132S11 1 00053V11 1 00303W11 1 34006
0377999999225361953012915005+21983-159350SAO  +0031LIH  V02022559002652200059N024000599+01895+01785101595ADDGA1999+006104064GA2999+024384034GA3999+999999999GA4999+999999999GD12005+9999999GD20025+9999999GD30005+9999999GD40005+9999999GF102025999999999999999999MA1999999101085EQDN01 00000JPWTH 1QNNE11 1 00200E11 1 00002E11 1 00000E11 1 00000G11U1 99999H11 1 15020H11 1 23080H11 1 00999H11 1 00999K11 1 00064L11 1 01500M11 1 29850N11 1 00000Q11 1 10159S11 1 00066V11 1 00202W11 1 66005
0372722246038441953021617003+30650-086533SAO  +0059EGI  V02022559003652200059N0240005N9+01725+00615999999ADDGA1011+009144064GA2031+076204004GA3999+999999999GA4999+999999999GD12015+9999999GD22035+9999999GD30005+9999999GD40005+9999999GF104035999999999999999999MA1999999101295MW1001EQDN01 00000JPWTH 1QNNE11 1 00201E11 1 00204E11 1 00000E11 1 00000G11U1 99999H11 1 15030H11 1 32250H11 1 00999H11 1 00999K11 1 00043L11 1 01500M11 1 29910N11 1 00000S11 1 00063V11 1 00504W11 1 66007
0068043100999991953090603004+81600-016667FM-12+003699999V0201101N00261220001CN0160001N9-00611-00781101221ADDAA124000091AY141031GF100991001001999999001001MD1710051+9999MW1401
028099999923058195312040100E+31817-107633SAO  +122999999V02029359007252200059N032000599+00835-00895101255ADDAA101000095GD13995+9999993GD20995+9999999GD30995+9999999GD40995+9999999GF106025999999999999999999MA1999999087505EQDN01 00000JPWTH 1QNNE11 1 00399E11 1 00099E11 1 00099E11 1 00099G11U1 99999K11 1 00016L11 1 02000M11 1 25840N11 1 00000Q11 1 10125S11 1 00047V11 1 00802W11 1 78014
0098749331999991953080404004+26383+127750SAO  +007699999V0202251N003610450019N0320001N1+03071+02851100621ADDGA1021+006009089GA2021+045009039GA3021+075009029GF107991999999999999999999MA1999999099731MW1001
0075478300999991953041310004+31917+131417FM-12+000899999V0200901N00051220001CN0400001N9+01331+00061102131ADDAY101999GA1999+008709079GA2001+999999999GF107991001001999999001071MW1021
0269999999240221953091222005+41317-105683SAO  +221799999V02013559000552200059N064000599+02395+00225101805ADDGD12995+9999999GD20995+9999999GD30995+9999999GD40995+9999999GF104045999999999999999999MA1999999078535EQDN01 00000JPWTH 1QNNE11 1 00299E11 1 00099E11 1 00099E11 1 00099G11U1 99999K11 1 00036L11 1 04000M11 1 23190N11 1 00000Q11 1 10180S11 1 00075V11 1 00505W11 1 44001
0165999999128411953100701005+28550-081333SAO  +003799999V02031559002652200059N024000599+02445+01945101155ADDGF100005999999999999999999MA1999999100755EQDN01 00000JPWTH 1QNNG11U1 99999K11 1 00067L11 1 01500M11 1 29750N11 1 00000Q11 1 10115S11 1 00076V11 1 00000W11 1 88005
0066479810999991953110706004+24783+141317SAO  +0114RJAW V0203601N005112200019N0400001N1+02521+01741101221ADDGA1021+004509089GF102991999999999999999999MA1999999100001MW1001
0269999999137311953052313005+39000-078233SAO  +020899999V02033859004650182949N020800599+02065+01505101195ADDGD13995+9999999GD24995+9999999GD30995+9999999GD40995+9999999GF108085999999999999999999MA1999999098755EQDN01 00000JPWTH 1QNNE11 1 00499E11 1 00699E11 1 00099E11 1 00099G11 1 00060K11 1 00059L11 1 01300M11 1 29160N11 1 00000Q11 1 10119S11 1 00069V11 1 01010W11 1 18009
0102167320999991953101206004+37100+025400FM-12+000999999V0202001N00461220001CN0400001N9+02001+01721101741ADDAA199003091AY161999GF102991021031012501041001KA1999N+01611MW1021EQDQ01+000042APCTENQ02+000222APC3  
0154109630999991953013118004+47500+011100FM-12+070899999V0203201N00101015001CN0200001N9+00281-00501100741ADDAA199000691AY161999GA1071+015009079GA2071+015009079GF108991071061017501999999IA1209KA1999M+01281MD1110692+9999MW1701EQDQ01+079141APOA  Q02+000692APC3  
0383999999264031953011519005+64850-147583SAO  +014199999V02099999000052200059N000600599-03835-04175101505ADDGA1999+999999104GA2999+999999999GA3999+999999999GA4999+999999999GD16035+9999999GD20005+9999999GD30005+9999999GD40005+9999999GF103035999999999999999999MA1999999099565MW1455EQDN01 07100JPWTH 1QNNE11 1 00804E11 1 00000E11 1 00000E11 1 00000G11U1 99999H11 1 45999H11 1 00999H11 1 00999H11 1 00999K11 1-00043L11 1 00038M11 1 29400N11 1 07100Q11 1 10150S11 1-00037V11 1 00404W11 1 00000
0377999999231181953051301005+39667-119867SAO  +153199999V02031559004152200059N024000599+01675-00725101395ADDGA1999+018294084GA2999+999999999GA3999+999999999GA4999+999999999GD12045+9999999GD20005+9999999GD30005+9999999GD40005+9999999GF104045999999999999999999MA1999999084295EQDN01 00000JPWTH 1QNNE11 1 00205E11 1 00000E11 1 00000E11 1 00000G11U1 99999H11 1 11060H11 1 00999H11 1 00999H11 1 00999K11 1 00019L11 1 01500M11 1 24890N11 1 00000Q11 1 10139S11 1 00062V11 1 00505W11 1 88008
0367724280148211953031115003+39983-082867SAO  +0254CMH  V02013559004650243849N0080005N1+00785-00065102505ADDGA1061+024384044GA2021+042674034GD13065+9999999GD24025+9999999GD30995+9999999GD40995+9999999GF108085999999999999999999MA1999999099395MW1045MW2805EQDQ01+100493APOSLPQ02+999990APOSLPN01 02380JPWTH 1QNNE11 1 00407E11 1 00603E11 1 00099E11 1 00099G11 1 00080H11 1 21080H11 1 23140K11 1 00031L11 1 00500M11 1 29350N11 1 02380Q11 1 10250S11 1 00046V11 1 01010W11 1 44009
0066724240138071953081712004+37900-085967SAO  +0223FTK  V0200701N003610270019N0112001N9+01911+01571101911ADDGA1081+027009039GF108991999999999999999999MA1999999099221MW1001
028672595524259195302161800C+41783-122467SAO  +0805SIY  V02009059001550167649N0640005N1+00675+00175103055ADDAA101000395GD13995+9999999GD20995+9999999GD30995+9999999GD40995+9999999GF106065999999999999999999MA1999999093505MW1001EQDN01 00000JPWTH 1QNNE11 1 00499E11 1 00099E11 1 00099E11 1 00099G11 1 00055K11 1 00035L11 1 04000M11 1 27610N11 1 00000Q11 1 10305S11 1 00044V11 1 00808W11 1 33003
038899999923160195301271500E+32133-110950SAO  +078099999V02013559001552200059N112000599+00675+00175102175ADDAA101000095GA1999+048774034GA2999+999999999GA3999+999999999GA4999+999999999GD10005+9999999GD20005+9999999GD30005+9999999GD40005+9999999GF100005999999999999999999MA1999999093195EQDN01 00000JPWTH 1QNNE11 1 00000E11 1 00000E11 1 00000E11 1 00000G11U1 99999H11 1 23160H11 1 00999H11 1 00999H11 1 00999K11 1 00035L11 1 07000M11 1 27520N11 1 00000Q11 1 10217S11 1 00044V11 1 00000W11 1 44003
0059782240999991953022216004+22983-082400FM-12+007599999V0209991C00001220001CN0120001N9+02721+02111102371ADDAY141999GA1031+007509059GF103991031051008001999999MW1051
0057151500999991953051706004+46583+026983FM-12+018399999V0203401N00411220001CN0100001N9+01611+00611999999ADDAY101999GF100991001001999999001001MD1210151+9999MW1101
0058063100999991953012421004+51450+003600FM-12+001399999V0202301N00511220001CN0012001N9+00001-00111999999ADDAY121999GF108991001001999999001071MA1999999101201MW1101
0072152800999991953100812004+45450+025450FM-12+251299999V0202701N00871000151CN0002001N9-00391-00391999999ADDAY141999GF109991091999000251999999MA1999999104661MD1110051+9999MW1431
0377999999230191953011817005+31833-106400SAO  +1196BIF  V02024859008250914449N080000599+01335-01065101805ADDGA1999+091444024GA2999+999999999GA3999+999999999GA4999+999999999GD13075+9999999GD20005+9999999GD30005+9999999GD40005+9999999GF107045999999999999999999MA1999999088425EQDN01 00000JPWTH 1QNNE11 1 00409E11 1 00000E11 1 00000E11 1 00000G11 1 00300H11 1 37300H11 1 00999H11 1 00999H11 1 00999K11 1 00013L11 1 05000M11 1 26110N11 1 00000Q11 1 10180S11 1 00056V11 1 00905W11 1 76016
0066983270999991953022322004+15183+120550SAO  +0145RPMK V0202701N002610120019N0241401N9+02281+01891101661ADDGA1061+012009059GF107991999999999999999999MA1999999099971MW1001
007694326599999195302110800N-23820+133900AUST +0545YBAS V0201355N006259999999N999999999+02835-00605999999ADDGA1005+999999999GA2045+999999045GF104995004999999999035999MA1999999094865
0089107760999991953060409004+49033+012067FM-12+033999999V0202501N00261006901CN0400001N9+01221+00391101091ADDAY101031GA1051+006909089GA2051+006909089GF106991051021008001001021MD1110111+9999MW1031
0269999999137351953091517005+39367-075067SAO  +002299999V02020359006752200059N024000599+02785+01285101085ADDGD12995+9999999GD20995+9999999GD30995+9999999GD40995+9999999GF101015999999999999999999MA1999999100815EQDN01 00000JPWTH 1QNNE11 1 00299E11 1 00099E11 1 00099E11 1 00099G11U1 99999K11 1 00055L11 1 01500M11 1 29770N11 1 00000Q11 1 10108S11 1 00082V11 1 00101W11 1 56013
0350999999242551953013006005+99999+999999SAO  +999999999V02004559002650182949N012800599+00835+00505101515ADDGA1999+007624064GA2999+018294034GA3999+048774024GD12025+9999999GD23045+9999999GD34085+9999999GD40995+9999999GF108085999999999999999999MA1999999101425EQDN01 00000JPWTH 1QNNE11 1 00202E11 1 00405E11 1 00610E11 1 00099G11 1 00060H11 1 15025H11 1 23060H11 1 37160K11 1 00041L11 1 00800M11 1 29950N11 1 00000Q11 1 10151S11 1 00047V11 1 01010W11 1 22005
0377999999129281953090508005+27500-097800SAO  +001899999V02036059003652200059N024000599+02115+01945101555ADDGA1999+030484034GA2999+999999999GA3999+999999999GA4999+999999999GD12015+9999999GD20005+9999999GD30005+9999999GD40005+9999999GF101015999999999999999999MA1999999101355EQDN01 00000JPWTH 1QNNE11 1 00201E11 1 00000E11 1 00000E11 1 00000G11U1 99999H11 1 23100H11 1 00999H11 1 00999H11 1 00999K11 1 00067L11 1 01500M11 1 29930N11 1 00000Q11 1 10155S11 1 00070V11 1 00101W11 1 11007
0281999999947451953010903005+41067-073717SAO  +0122HPN  V02009059005250015249N002400599-00114-00115102404ADDGD14995+9999999GD20995+9999999GD30995+9999999GD40995+9999999GF108995999999999999999999MA1999999100714MW1455MW2665EQDN01 02670JPWTH 1QNNE11 1 00699E11 1 00099E11 1 00099E11 1 00099G11 1 00005K11 1 00030L11 1 00150M11 1 29740N11 1 02670Q11 1 10240S11 1 00030V11 1 01099W11 1 33010
010182193099999195303081200N-01383-048483BRAZ +0016SBBE V02016019002619999999N020000199+02741+02401101131ADDAA101000091GA1051+007001061GA2021+030001031GF107991999999999999999999MA1101091100711MD1110161+9999
0383702060266321953122022003+63317-168933SAO  +0012OHC  V02036059005250274349N0320005N1-02335-02675100925ADDGA1011+005184074GA2061+027434044GA3999+999999999GA4999+999999999GD12015+9999999GD23065+9999999GD30005+9999999GD40005+9999999GF106065999999999999999999MA1999999100755MW1001EQDN01 00000JPWTH 1QNNE11 1 00201E11 1 00407E11 1 00000E11 1 00000G11 1 00090H11 1 16017H11 1 21090H11 1 00999H11 1 00999K11 1-00016L11 1 02000M11 1 29750N11 1 00000Q11 1 10092S11 1-00010V11 1 00807W11 1 11010
0269999999240371953072907005+46433-105867SAO  +0801MLS  V02009059001550457249N024000599+01945+01225101785ADDGD12995+9999999GD24995+9999999GD30995+9999999GD40995+9999999GF108085999999999999999999MA1999999092585EQDN01 00000JPWTH 1QNNE11 1 00299E11 1 00699E11 1 00099E11 1 00099G11 1 00150K11 1 00054L11 1 01500M11 1 27340N11 1 00000Q11 1 10178S11 1 00067V11 1 01010W11 1 33003
0073012710999991953072800004+63467+010933FM-12+001899999V0201201N00101220001CN0200001N9+01281+01221100141ADDAY121999GA1041+009909059GF106991041051008001041999MD1990011+9999MW1011
017699999913882195304110200E+35033-085200SAO  +021099999V02099999000052200059N048000599+01395+00615101155ADDAA101000095GF100005999999999999999999MA1999999098685EQDN01 00000JPWTH 1QNNG11U1 99999K11 1 00043L11 1 03000M11 1 29140N11 1 00000Q11 1 10115S11 1 00057V11 1 00000W11 1 00000
0082717020999991953031422004+46433-063833SAO  +0024CYSU V0203151N008210012019N0192001N1+00021+00021101041ADDGA1031+000909079GA2051+001209079GF108991999999999999999999MA1999999100751MW1511
0269999999266271953112317005+63883-160800SAO  +0006UNK  V02009059008250228649N024000599-00895-01225098105ADDGD14995+9999999GD20995+9999999GD30995+9999999GD40995+9999999GF108085999999999999999999MA1999999098045EQDN01 00000JPWTH 1QNNE11 1 00699E11 1 00099E11 1 00099E11 1 00099G11 1 00075K11 1 00010L11 1 01500M11 1 28950N11 1 00000Q11 1 09810S11 1 00016V11 1 01010W11 1 33016
0085746710138061953032909004+36667-087500SAO  +0170HOP  V0202901N002612200019N0240001N9+00241-00201101661ADDGA1999+075009999GF100991999999999999999999MA1999999099591MW1001EQDQ01    003SCCGA1
0043782640999991953101123004+19950-075850FM-12+006599999V0209991C000019999999N0120001N9+02781+02391101191ADDAY111999GF106991999999999999999999MW1051
0275999999148291953071915005+41533-085800SAO  +0252GSH  V02018059002650106749N008000599+02895+02285101635ADDGD13995+9999999GD20995+9999999GD30995+9999999GD40995+9999999GF106065999999999999999999MA1999999098685MW1055EQDN01 08100JPWTH 1QNNE11 1 00499E11 1 00099E11 1 00099E11 1 00099G11 1 00035K11 1 00073L11 1 00500M11 1 29140N11 1 08100Q11 1 10163S11 1 00084V11 1 00707W11 1 55005
0066466960999991953081919004+25067+121550SAO  +0006RC55 V0200901N005112200019N0096001N1+02571+02461100201ADDGA1041+057009079GF102991999999999999999999MA1999999100101MW1001
0123313380999991953090700004+53133+133967FM-12+067099999V0209991C00001001501CN0040001N9+00501+00391099871ADDAA199003091AJ100009199999999AY131999GF108991081001001501021999HL10009IA1089IA2999+00289KA1999N+00221MD1210021+9999MW1601
0269999999138691953070808005+31533-084183SAO  +006299999V02099999000052200059N012800599+02395+02335101665ADDGD13995+9999993GD20995+9999999GD30995+9999999GD40995+9999999GF106015999999999999999999MA1999999100985EQDN01 00000JPWTH 1QNNE11 1 00399E11 1 00099E11 1 00099E11 1 00099G11U1 99999K11 1 00074L11 1 00800M11 1 29820N11 1 00000Q11 1 10166S11 1 00075V11 1 00701W11 1 00000
0281999999146051953011811005+44317-069800SAO  +0108AUG  V02015859006250018349N001600599+00065+00005101525ADDGD15995+9999999GD20995+9999999GD30995+9999999GD40995+9999999GF108085999999999999999999MA1999999100175MW1615MW2715EQDN01 02040JPWTH 1QNNE11 1 00799E11 1 00099E11 1 00099E11 1 00099G11 1 00006K11 1 00032L11 1 00100M11 1 29580N11 1 02040Q11 1 10152S11 1 00033V11 1 01010W11 1 54012
038899999923155195301020200E+35417-119050SAO  +015199999V02006859001552200059N064000599+00835+00175103255ADDAA101000095GA1999+091444004GA2999+999999999GA3999+999999999GA4999+999999999GD13065+9999993GD20005+9999999GD30005+9999999GD40005+9999999GF106005999999999999999999MA1999999101395EQDN01 00000JPWTH 1QNNE11 1 00308E11 1 00000E11 1 00000E11 1 00000G11U1 99999H11 1 32300H11 1 00999H11 1 00999H11 1 00999K11 1 00035L11 1 04000M11 1 29940N11 1 00000Q11 1 10325S11 1 00047V11 1 00800W11 1 32003
0269999999939931953033012005+36000-094167SAO  +038399999V02018059007750121949N011200599+01504+01285100884ADDGD12995+9999999GD23995+9999999GD34995+9999999GD40995+9999999GF108085999999999999999999MA1999999096444EQDN01 00000JPWTH 1QNNE11 1 00299E11 1 00499E11 1 00699E11 1 00099G11 1 00040K11 1 00055L11 1 00700M11 1 28480N11 1 00000Q11 1 10088S11 1 00059V11 1 01010W11 1 55015
009294646099999195310201600N-30830+128100AUST +0160YPFT V0209999C000059999999N999999999+00675+00105999999ADDGA1005+999999999GA2005+999999999GA3065+999999999GF106995004999999999999065MA1999999100235
030799999994908195304162300E+42400-090700SAO  +032599999V02029359011850182949N040000599+00224-00725101164ADDAA101000095GA1999+018294044GD14085+9999999GD20995+9999999GD30995+9999999GD40995+9999999GF108085999999999999999999MA1999999097164EQDN01 00000JPWTH 1QNNE11 1 00610E11 1 00099E11 1 00099E11 1 00099G11 1 00060H11 1 21060K11 1 00019L11 1 02500M11 1 28690N11 1 00000Q11 1 10116S11 1 00036V11 1 01010W11 1 78023
0066042310999991953040300004+67017-050800SAO  +0050BGSF V0209991C000010300019N0160001N1-00921-01201103441ADDGA1081+030009049GF108991999999999999999999MA1999999102571MW1001
028099999923063195302051000E+39650-106917SAO  +1980EGE  V02022559006250152449N016000599-00115-00335101905ADDAA101000095GD13995+9999999GD20995+9999999GD30995+9999999GD40995+9999999GF106065999999999999999999MA1999999079885EQDN01 00000JPWTH 1QNNE11 1 00499E11 1 00099E11 1 00099E11 1 00099G11 1 00050K11 1 00026L11 1 01000M11 1 23590N11 1 00000Q11 1 10190S11 1 00030V11 1 00707W11 1 66012
0269999999265191953112707005+62533-153900SAO  +045899999V02015859006252200059N024000599+00005+00005098445ADDGD12995+9999999GD20995+9999999GD30995+9999999GD40995+9999999GF103035999999999999999999MA1999999092995EQDN01 00000JPWTH 1QNNE11 1 00299E11 1 00099E11 1 00099E11 1 00099G11U1 99999K11 1 00032L11 1 01500M11 1 27460N11 1 00000Q11 1 09844S11 1 00032V11 1 00404W11 1 54012
0377999999137741953010708005+36233-076133SAO  +001199999V02022559009350365849N011200599+01175+00785102145ADDGA1999+036584034GA2999+999999999GA3999+999999999GA4999+999999999GD13065+9999999GD20005+9999999GD30005+9999999GD40005+9999999GF106065999999999999999999MA1999999102035EQDN01 00000JPWTH 1QNNE11 1 00408E11 1 00000E11 1 00000E11 1 00000G11 1 00120H11 1 23120H11 1 00999H11 1 00999H11 1 00999K11 1 00046L11 1 00700M11 1 30130N11 1 00000Q11 1 10214S11 1 00053V11 1 00808W11 1 66018
0269999999242841953102308005+43417-124250SAO  +000999999V02011359005252200059N024000599+00835+00505101635ADDGD10995+9999999GD20995+9999999GD30995+9999999GD40995+9999999GF100005999999999999999999MA1999999101565EQDN01 00000JPWTH 1QNNE11 1 00099E11 1 00099E11 1 00099E11 1 00099G11U1 99999K11 1 00041L11 1 01500M11 1 29990N11 1 00000Q11 1 10163S11 1 00047V11 1 00000W11 1 34010
0057314440999991953040606004+51567+126717FM-12+017999999V0201401N00721220001CN0200001N9+01611-00721100141ADDAY101999GF100991001001999999001001MD1710181+9999MW1021
0377999999947021953031207005+41167-073133SAO  +000899999V02006859002150426749N019200599-00064-00225103624ADDGA1999+042674034GA2999+999999999GA3999+999999999GA4999+999999999GD13065+9999999GD20005+9999999GD30005+9999999GD40005+9999999GF106065999999999999999999MA1999999103564EQDN01 00000JPWTH 1QNNE11 1 00408E11 1 00000E11 1 00000E11 1 00000G11 1 00140H11 1 23140H11 1 00999H11 1 00999H11 1 00999K11 1 00028L11 1 01200M11 1 30580N11 1 00000Q11 1 10362S11 1 00031V11 1 00808W11 1 32004
0114474260999991953042418004+42167+142783FM-12+003499999V0203601N00511220001CN0200001N9+00221-00221100871ADDAJ100009199999999AY101999GF100991001001999999001001HL10009IA1009IA2999+00289MA1999999100441MD1310191+9999MW1001
0399722785231111953101122003+33500-112367SAO  +0333LUF  V02022559012952200059N0480005N9+03285+00895100525ADDGA1999+030484034GA2999+999999999GA3999+999999999GA4999+999999999GD10005+9999999GD20005+9999999GD30005+9999999GD40005+9999999GF100005999999999999999999MA1999999096685MW1001EQDQ01    003SCCGA1N01 00000JPWTH 1QNNE11 1 00000E11 1 00000E11 1 00000E11 1 00000G11U1 99999H11 1 23100H11 1 00999H11 1 00999H11 1 00999K11 1 00048L11 1 03000M11 1 28550N11 1 00000Q11 1 10052S11 1 00091V11 1 00000W11 1 66025
0173999999947321953062315005+40083-075017SAO  +0030PNE  V02029359002152200049N024000599+99999+99999999999ADDGD10995+9999999GD20995+9999999GD30995+9999999GD40995+9999999EQDN01 00000JPWTH 1QNNE11 1 00099E11 1 00099E11 1 00099E11 1 00099G11U1 99999L11 1 01500N11 1 00000W11 1 78004
0269999999930421953060916005+36017-102550SAO  +1218DHT  V02020359012452200059N024000599+03284+00615101024ADDGD11995+9999993GD20995+9999999GD30995+9999999GD40995+9999999GF102015999999999999999999MA1999999087844EQDN01 00000JPWTH 1QNNE11 1 00199E11 1 00099E11 1 00099E11 1 00099G11U1 99999K11 1 00043L11 1 01500M11 1 25940N11 1 00000Q11 1 10102S11 1 00091V11 1 00201W11 1 56024
0076152300999991953070700004+45883+022900FM-12+019499999V0209991C00001220001CN0100001N9+01781+01781101371ADDAY101999GF101991999001999999071001MD1310031+9999MW1021EQDQ01+000002SCOTLC
0372722785231111953030216003+33500-112367SAO  +0333LUF  V02099999000050121949N0320005N9+00895+00565100775ADDGA1999+002444134GA2061+012194064GA3021+027434034GD13005+9999999GD24065+9999999GD30025+9999999GD40995+9999999GF108085999999999999999999MA1999999096785MW1001EQDQ01    003SCCGA1N01 00000JPWTH 1QNNE11 1 00400E11 1 00608E11 1 00002E11 1 00099G11 1 00040H11 1 13008H11 1 15040H11 1 23090K11 1 00042L11 1 02000M11 1 28580N11 1 00000Q11 1 10077S11 1 00048V11 1 01010W11 1 00000
0112386180999991953062606004+40367+071750FM-12+057799999V0202701N00721220001CN0200001N9+02781+01501100321ADDAJ100009199999999AY111999GF103991011011012501031001HL10009IA1009IA2999+01899KA1999N+02221MD1810061+9999MW1031
0066740900999991953120600004+70417-068283SAO  +0003CYCY V0209991C000012200019N0640001N1-02751-03141999999ADDGA1999+090009009GF100991999999999999999999MA1999999100751MW1001
0071063400999991953042306004+51450+004333FM-12+002099999V0200701N00411220001CN0044001N9+00501+00281999999ADDAY101999GF100991001001999999001001KA1999N+00391MA1999999101731MW1051
017699999914941195307140400E+41983-097433SAO  +0471OFK  V02099999000052200059N024000599+02285+01835101395ADDAA101000095GF100005999999999999999999MA1999999095945EQDN01 00000JPWTH 1QNNG11U1 99999K11 1 00065L11 1 01500M11 1 28330N11 1 00000Q11 1 10139S11 1 00073V11 1 00000W11 1 00000
031399999913893195301160500E+35050-089983SAO  +007999999V02033859005750021349N016000599+00725+00615102305ADDAA101000095GA1999+002134134GD14085+9999999GD20995+9999999GD30995+9999999GD40995+9999999GF108085999999999999999999MA1999999101255MW1615EQDN01 02000JPWTH 1QNNE11 1 00610E11 1 00099E11 1 00099E11 1 00099G11 1 00007H11 1 13007K11 1 00043L11 1 01000M11 1 29900N11 1 02000Q11 1 10230S11 1 00045V11 1 01010W11 1 18011
031399999924144195306200700E+46600-112000SAO  +1167HLN  V02024859005750167649N048000599+00945+00395101255ADDAA101000395GA1999+016764064GD14085+9999999GD20995+9999999GD30995+9999999GD40995+9999999GF108085999999999999999999MA1999999087915MW1805EQDN01 02300JPWTH 1QNNE11 1 00610E11 1 00099E11 1 00099E11 1 00099G11 1 00055H11 1 15055K11 1 00039L11 1 03000M11 1 25960N11 1 02300Q11 1 10125S11 1 00049V11 1 01010W11 1 76011
0269999999265121953021401005+63883-152283SAO  +021499999V02099999000050213449N048000599-01005-01225099565ADDGD14995+9999999GD20995+9999999GD30995+9999999GD40995+9999999GF108085999999999999999999MA1999999096855EQDN01 00000JPWTH 1QNNE11 1 00699E11 1 00099E11 1 00099E11 1 00099G11 1 00070K11 1 00010L11 1 03000M11 1 28600N11 1 00000Q11 1 09956S11 1 00014V11 1 01010W11 1 00000
0377999999432381953102916005+35983+129433SAO  +002099999V02036059006252200059N011200599+01675+01225101915ADDGA1999+012194064GA2999+999999999GA3999+999999999GA4999+999999999GD12015+9999999GD20005+9999999GD30005+9999999GD40005+9999999GF101015999999999999999999MA1999999101695EQDN01 00000JPWTH 1QNNE11 1 00201E11 1 00000E11 1 00000E11 1 00000G11U1 99999H11 1 15040H11 1 00999H11 1 00999H11 1 00999K11 1 00054L11 1 00700M11 1 30030N11 1 00000Q11 1 10191S11 1 00062V11 1 00101W11 1 11012
0383780160136011953022100003+32367-064683SAO  +0006TXKF V02006859003652200059N0240005N9+01675+00945103595ADDGA1021+009144084GA2999+999999999GA3999+999999999GA4999+999999999GD12025+9999999GD20005+9999999GD30005+9999999GD40005+9999999GF102025999999999999999999MA1999999103525MW1001EQDN01 00000JPWTH 1QNNE11 1 00203E11 1 00000E11 1 00000E11 1 00000G11U1 99999H11 1 11030H11 1 00999H11 1 00999H11 1 00999K11 1 00049L11 1 01500M11 1 30570N11 1 00000Q11 1 10359S11 1 00062V11 1 00303W11 1 32007
039499999923152195309252200E+34200-118367SAO  +0221BUR  V02013559003152200059N002400599+02835+01335101125ADDAA101000095GA1999+999999104GA2999+999999999GA3999+999999999GA4999+999999999GD16025+9999999GD20005+9999999GD30005+9999999GD40005+9999999GF102025999999999999999999MA1999999098515MW1045EQDN01 08000JPWTH 1QNNE11 1 00803E11 1 00000E11 1 00000E11 1 00000G11U1 99999H11 1 98999H11 1 00999H11 1 00999H11 1 00999K11 1 00056L11 1 00150M11 1 29090N11 1 08000Q11 1 10112S11 1 00083V11 1 00303W11 1 44006
0269999999255061953021022005+59750-154917SAO  +004699999V02011359012450152449N024000599+00065-00225099685ADDGD13995+9999999GD20995+9999999GD30995+9999999GD40995+9999999GF107075999999999999999999MA1999999099095EQDN01 00000JPWTH 1QNNE11 1 00499E11 1 00099E11 1 00099E11 1 00099G11 1 00050K11 1 00028L11 1 01500M11 1 29260N11 1 00000Q11 1 09968S11 1 00033V11 1 00909W11 1 34024
018272261022010195301150200C+29367-100817SAO  +0334DRT  V02011359004652200059N0240005N1+01945+00945100765ADDAA101000095GF100005999999999999999999MA1999999096885MW1001EQDN01 00000JPWTH 1QNNG11U1 99999K11 1 00049L11 1 01500M11 1 28610N11 1 00000Q11 1 10076S11 1 00067V11 1 00000W11 1 34009
0078478990999991953041108004+33250+134183FM-12+018699999V0202301N000519999999N0400001N9+01891+01501100741ADDAY101999GA1999+011709019GF108991021011012501051071MW1031EQDQ01    003SCCGA1
0165999999138691953100800005+31533-084183SAO  +006299999V02002359001552200059N019200599+02005+00895101905ADDGF100005999999999999999999MA1999999101225EQDN01 00000JPWTH 1QNNG11U1 99999K11 1 00048L11 1 01200M11 1 29890N11 1 00000Q11 1 10190S11 1 00068V11 1 00000W11 1 12003
0043476480999991953011102004+35717+140850FM-12+002899999V0200201N00151220001CN0090001N9+01501+00391101751ADDAY101999GF100991001001999999001001MW1001
0094101470999991953050505004+53633+010000FM-12+001699999V0203001N00721001201CN0140001N9+99999+99999999999ADDAY121999GA1071+001209079GA2071+001209079GF107991999999999999999999MW1011EQDQ01+082921APOA  
0269999999129471953052707005+28450-099217SAO  +0141COT  V02013559005252200059N024000599+02505+02175101565ADDGD10995+9999999GD20995+9999999GD30995+9999999GD40995+9999999GF100005999999999999999999MA1999999099905EQDN01 00000JPWTH 1QNNE11 1 00099E11 1 00099E11 1 00099E11 1 00099G11U1 99999K11 1 00071L11 1 01500M11 1 29500N11 1 00000Q11 1 10156S11 1 00077V11 1 00000W11 1 44010
0066703050999991953103000004+58667-162167SAO  +0148PAEH V0203201N009810090019N0320001N9-00981-01371101551ADDGA1071+009009059GF107991999999999999999999MA1999999099421MW1001
0066702120266331953051615004+61783-165867SAO  +0005PACZ V0203201N011312200019N0240001N9+00411-00151100981ADDGA1001+999999999GF100991999999999999999999MA1999999100951MW1001
0269999999225251953031115005+20833-156467SAO  +004099999V02099999000052200059N032000599+01675+01615101325ADDGD10995+9999999GD20995+9999999GD30995+9999999GD40995+9999999GF100005999999999999999999MA1999999100955EQDN01 00000JPWTH 1QNNE11 1 00099E11 1 00099E11 1 00099E11 1 00099G11U1 99999K11 1 00061L11 1 02000M11 1 29810N11 1 00000Q11 1 10132S11 1 00062V11 1 00000W11 1 00000
0269999999147571953060303005+41633-073883SAO  +004999999V02011359001552200059N024000599+01285+00785101355ADDGD10995+9999999GD20995+9999999GD30995+9999999GD40995+9999999GF100005999999999999999999MA1999999100755EQDN01 00000JPWTH 1QNNE11 1 00099E11 1 00099E11 1 00099E11 1 00099G11U1 99999K11 1 00046L11 1 01500M11 1 29750N11 1 00000Q11 1 10135S11 1 00055V11 1 00000W11 1 34003
0171999999340481953061001005+46850+001717SAO  +0164LFLX V02099999000052200059N006400599+01005+00895101715ADDGF100005999999999999999999MA1999999099665MW1055EQDN01 08100JPWTH 1QNNG11U1 99999K11 1 00048L11 1 00400M11 1 29430N11 1 08100Q11 1 10171S11 1 00050V11 1 00000W11 1 00000
0323999999242441953061506005+47683-122267SAO  +001599999V02004559002650152449N012800599+01285+01005102165ADDGA1999+015244064GA2999+024384044GD13065+9999999GD24085+9999999GD30995+9999999GD40995+9999999GF108085999999999999999999MA1999999102005EQDN01 00000JPWTH 1QNNE11 1 00407E11 1 00610E11 1 00099E11 1 00099G11 1 00050H11 1 15050H11 1 21080K11 1 00050L11 1 00800M11 1 30120N11 1 00000Q11 1 10216S11 1 00055V11 1 01010W11 1 22005
017699999913865195306201200E+32333-088750SAO  +009199999V02099999000052200059N024000599+02395+02175101465ADDAA101000095GF100005999999999999999999MA1999999100375EQDN01 00000JPWTH 1QNNG11U1 99999K11 1 00071L11 1 01500M11 1 29640N11 1 00000Q11 1 10146S11 1 00075V11 1 00000W11 1 00000
017699999924011195307021000E+46767-100750SAO  +050799999V02027059001552200059N024000599+01335+01175101255ADDAA101000095GF100005999999999999999999MA1999999095365EQDN01 00000JPWTH 1QNNG11U1 99999K11 1 00053L11 1 01500M11 1 28160N11 1 00000Q11 1 10125S11 1 00056V11 1 00000W11 1 77003
0123313380999991953071500004+53133+133967FM-12+067099999V0209991C00001030001CN0200001N9+01611+01611099291ADDAA199002091AJ100009199999999AY161999GF108991011061008001021999HL10009IA1089IA2999+01289KA1999N+01281MD1710111+9999MW1211
0094688420999991953090106004-33983+025600FM-12+006999999V0209991C00001220001CN0400001N9+01441+01001102611ADDAA124000091AY101999GF100991001001999999001001KA1999M+03061KA2999N+00941MD1210031+9999MW1001
0106307110999991953111200004+52950+103283FM-12+054299999V0202701N00211220001CN0200001N9-02111-02281103381ADDAA199000691AY111999GF100991001001999999001001HL10009IA1319IA2999-01729KA1999N-02111MD1810081+9999MW1011
0058946460999991953111818004-30833+128100FM-12+016099999V0200901N001019999999N0200001N9+01171+00831999999ADDAY101999GF100991001001999999999999MA1999999099661MW1001
0082722586999991953121623004+33717-096667SAO  +0233PNX  V0203601N003112200019N0240001N1+00741-00041103121ADDGA1011+030009039GA2021+090009029GF102991999999999999999999MA1999999100271MW1001
0269999999939961953081410005+37767-090400SAO  +027499999V02099999000052200059N011200599+01614+01565101864ADDGD10995+9999999GD20995+9999999GD30995+9999999GD40995+9999999GF100005999999999999999999MA1999999098584EQDN01 00000JPWTH 1QNNE11 1 00099E11 1 00099E11 1 00099E11 1 00099G11U1 99999K11 1 00060L11 1 00700M11 1 29110N11 1 00000Q11 1 10186S11 1 00061V11 1 00000W11 1 00000
0066476600999991953111802004+35700+139400SAO  +0098RJTC V0200451N002610180019N0112001N1+00691+00411102331ADDGA1081+018009059GF108991999999999999999999MA1999999101121MW1001
0082749369999991953033121004+39233+127617SAO  +006999999V0202481N004110660019N0160001N1+00411+00081102401ADDGA1021+048009049GA2081+066009029GF108991999999999999999999MA1999999101521MW1001
038872640014839195302140100C+42950-087900SAO  +0211MKE  V02020359009852200059N0240005N9+00005-00505100645ADDAA101000095GA1031+076204004GA2999+999999999GA3999+999999999GA4999+999999999GD11035+9999993GD20005+9999999GD30005+9999999GD40005+9999999GF103005999999999999999999MA1999999098045EQDN01 00000JPWTH 1QNNE11 1 00104E11 1 00000E11 1 00000E11 1 00000G11U1 99999H11 1 32250H11 1 00999H11 1 00999H11 1 00999K11 1 00023L11 1 01500M11 1 28950N11 1 00000Q11 1 10064S11 1 00032V11 1 00400W11 1 56019
038899999913963195306160400E+34733-092233SAO  +008499999V02020359005752200059N019200599+02945+02175100895ADDAA101000095GA1999+054864034GA2999+999999999GA3999+999999999GA4999+999999999GD12025+9999999GD20005+9999999GD30005+9999999GD40005+9999999GF102025999999999999999999MA1999999099975EQDN01 00000JPWTH 1QNNE11 1 00202E11 1 00000E11 1 00000E11 1 00000G11U1 99999H11 1 23180H11 1 00999H11 1 00999H11 1 00999K11 1 00071L11 1 01200M11 1 29520N11 1 00000Q11 1 10089S11 1 00085V11 1 00202W11 1 56011
0089104380999991953070821004+51317+009450FM-12+019799999V0202401N00261220001CN0160001N9+01721+00781101581ADDAY101031GA1031+009909059GA2031+009909059GF104991031051012501041001MD1210171+9999MW1031
0377999999432131953041012005+35167+129133SAO  +0005RKPP V02036059001552200059N011200599+01175+00675101425ADDGA1999+009144064GA2999+999999999GA3999+999999999GA4999+999999999GD12025+9999999GD20005+9999999GD30005+9999999GD40005+9999999GF102025999999999999999999MA1999999101395EQDN01 00000JPWTH 1QNNE11 1 00203E11 1 00000E11 1 00000E11 1 00000G11U1 99999H11 1 15030H11 1 00999H11 1 00999H11 1 00999K11 1 00044L11 1 00700M11 1 29940N11 1 00000Q11 1 10142S11 1 00053V11 1 00303W11 1 11003
0377999999139981953050918005+37633-097267SAO  +043299999V02018059015552200059N012800599+02565+01565100375ADDGA1999+006104064GA2999+091444024GA3999+999999999GA4999+999999999GD12025+9999999GD23035+9999993GD30005+9999999GD40005+9999999GF106025999999999999999999MA1999999095565EQDN01 00000JPWTH 1QNNE11 1 00203E11 1 00304E11 1 00000E11 1 00000G11U1 99999H11 1 15020H11 1 37300H11 1 00999H11 1 00999K11 1 00060L11 1 00800M11 1 28220N11 1 00000Q11 1 10037S11 1 00078V11 1 00703W11 1 55030
0323999999433091953122314005+35833+139417SAO  +0094RJTJ V02099999000050152449N016000599+00505+00115102195ADDGA1999+006104154GA2999+015244064GD12035+9999999GD24085+9999999GD30995+9999999GD40995+9999999GF108085999999999999999999MA1999999101025EQDN01 00000JPWTH 1QNNE11 1 00204E11 1 00610E11 1 00099E11 1 00099G11 1 00050H11 1 17020H11 1 15050K11 1 00034L11 1 01000M11 1 29830N11 1 00000Q11 1 10219S11 1 00041V11 1 01010W11 1 00000
0018450110999991953060818004+22200+113550FM-12+006799999V0201401N000519999999N9999999N9+02611+99999999999ADDMA1999999099981
0063662400999991953010612004-10700+013750FM-12+000599999V0209991C00001009001CN0200001N9+02501+02391101261ADDAY121999GF107991071081004501999999IA1089MD1810051+9999MW1021
018272251012924195302031100C+27767-097450SAO  +0014CRP  V02020359004152200059N0112005N1+00895+00785101455ADDAA101000095GF100005999999999999999999MA1999999101295MW1001EQDN01 00000JPWTH 1QNNG11U1 99999K11 1 00046L11 1 00700M11 1 29910N11 1 00000Q11 1 10145S11 1 00048V11 1 00000W11 1 56008
0057330880999991953101112004+51350+026617FM-12+015399999V0202001N00101220001CN0200001N9+01391+00391102981ADDAY111999GF106991001001999999001041MD1310011+9999MW1031
0377999999230171953091001005+31400-100400SAO  +0573GOF  V02011359005252200059N024000599+02615+01335101715ADDGA1999+076204004GA2999+999999999GA3999+999999999GA4999+999999999GD10005+9999999GD20005+9999999GD30005+9999999GD40005+9999999GF100005999999999999999999MA1999999095295EQDN01 00000JPWTH 1QNNE11 1 00000E11 1 00000E11 1 00000E11 1 00000G11U1 99999H11 1 32250H11 1 00999H11 1 00999H11 1 00999K11 1 00056L11 1 01500M11 1 28140N11 1 00000Q11 1 10171S11 1 00079V11 1 00000W11 1 34010
0066744910147031953082208004+42200-072550SAO  +0074CEF  V0209991C000012200019N0160001N9+01131+00911102441ADDGA1021+024009039GF102991999999999999999999MA1999999101521MW1001
0035037720999991953082416004+51483-000450FM-12+002599999V0202501N00981220001CN0400001N9+01941+01171100801ADDGF103991999999999999999999MW1001
0269999999932091953050904005+35667-120633SAO  +0246PRB  V02031559008852200059N024000599+00944+00225102174ADDGD10995+9999999GD20995+9999999GD30995+9999999GD40995+9999999GF100005999999999999999999MA1999999099194EQDN01 00000JPWTH 1QNNE11 1 00099E11 1 00099E11 1 00099E11 1 00099G11U1 99999K11 1 00036L11 1 01500M11 1 29290N11 1 00000Q11 1 10217S11 1 00049V11 1 00000W11 1 88017
0035172440999991953072508004+37967+032550SAO  +1028LTAN V0200681N005112200019N0320001N1+02181+00461999999ADDGF100991999999999999999999MW1001
0066749372999991953052015004+38133+127300SAO  +015699999V0209991C000012200019N0128001N1+01801+01301101941ADDGA1051+060009029GF107991999999999999999999MA1999999100101MW1001
0081318230999991953101312004+47967+139533FM-12+003699999V0203201N00721007801CN0100001N9+00391-00281100911ADDAA199004091AY161999GF107991071051008001001001KA1999M+00721MD1110271+9999MW1021
0269999999137311953033005005+39000-078233SAO  +020899999V02033859006250097549N019200599+00445-00175101395ADDGD14995+9999999GD20995+9999999GD30995+9999999GD40995+9999999GF108085999999999999999999MA1999999098885EQDN01 00000JPWTH 1QNNE11 1 00699E11 1 00099E11 1 00099E11 1 00099G11 1 00032K11 1 00029L11 1 01200M11 1 29200N11 1 00000Q11 1 10139S11 1 00040V11 1 01010W11 1 18012
0082722545999991953060717004+30200-097667SAO  +0163BSM  V0202001N007710105019N0240001N9+03241+02071101081ADDGA1051+010509089GA2021+105009019GF107991999999999999999999MA1999999099221MW1001
0050724640930581953120805004+38233-104633SAO  +1465PUB  V0202701N004612200019N0960001N9-00151-00761100701ADDGF100991999999999999999999MA1999999084391MW1001
0377999999231831953062820005+33433-112017SAO  +034199999V02013559001052200059N048000599+03895+00065100715ADDGA1999+091444004GA2999+999999999GA3999+999999999GA4999+999999999GD10005+9999999GD20005+9999999GD30005+9999999GD40005+9999999GF100005999999999999999999MA1999999096925EQDN01 00000JPWTH 1QNNE11 1 00000E11 1 00000E11 1 00000E11 1 00000G11U1 99999H11 1 32300H11 1 00999H11 1 00999H11 1 00999K11 1 00033L11 1 03000M11 1 28620N11 1 00000Q11 1 10071S11 1 00102V11 1 00000W11 1 44002
0082467700999991953042509004+24267+120617SAO  +0005RCMQ V0203601N001012200019N0096001N1+02181+01801999999ADDGA1021+006009049GA2011+039009079GF102991999999999999999999MA1999999099151MW1001
0066722055999991953090201004+28433-081300SAO  +0029MCO  V0201801N003110900019N0160001N1+02521+02301101901ADDGA1071+090009029GF107991999999999999999999MA1999999101521MW1001
038872469023062195305181200B+39767-104883SAO  +161599999V02027059000552200059N064000599+00615+00395101295ADDAA101000095GA1999+036584034GA2999+999999999GA3999+999999999GA4999+999999999GD13065+9999993GD20005+9999999GD30005+9999999GD40005+9999999GF106025999999999999999999MA1999999083545EQDN01 00000JPWTH 1QNNE11 1 00307E11 1 00000E11 1 00000E11 1 00000G11U1 99999H11 1 23120H11 1 00999H11 1 00999H11 1 00999K11 1 00039L11 1 04000M11 1 24670N11 1 00000Q11 1 10129S11 1 00043V11 1 00703W11 1 77001
039499999993815195308070900E+39900-084200SAO  +031099999V02099999000052200059N008000599+01834+01675101634ADDAA101000095GA1999+091444024GA2999+999999999GA3999+999999999GA4999+999999999GD13055+9999993GD20005+9999999GD30005+9999999GD40005+9999999GF105025999999999999999999MA1999999098074MW1055EQDN01 08100JPWTH 1QNNE11 1 00306E11 1 00000E11 1 00000E11 1 00000G11U1 99999H11 1 37300H11 1 00999H11 1 00999H11 1 00999K11 1 00062L11 1 00500M11 1 28960N11 1 08100Q11 1 10163S11 1 00065V11 1 00602W11 1 00000
019872458613922195310290700C+38800-097633SAO  +0383SLN  V02033859001052200059N0240005N1+00565+00005101935ADDAA101000095GA1001+999999999GF100005999999999999999999MA1999999097365MW1001EQDN01 00000JPWTH 1QNNG11U1 99999K11 1 00032L11 1 01500M11 1 28750N11 1 00000Q11 1 10193S11 1 00042V11 1 00000W11 1 18002
0066912500999991953051503004+11350+162350SAO  +0005PKMA V0200901N005112200019N0160001N1+02961+02351101081ADDGA1021+005409089GF102991999999999999999999MA1999999101021MW1001
0074948210999991953091217003-37733+140783FM-12+0020YMMG V0209999C000019999999N0200001N9+00891+00671999999ADDAY101999GA1085+011405065GF108991081051012501999999MA1999999102511MW1001
0232999999942251953010923005+46967-123933SAO  +0008HQM  V02029359007750045749N016000599+00674+00445999999ADDGD13995+9999999GD24995+9999999GD30995+9999999GD40995+9999999GF108995999999999999999999EQDN01 00000JPWTH 1QNNE11 1 00499E11 1 00699E11 1 00099E11 1 00099G11 1 00015K11 1 00040L11 1 01000N11 1 00000S11 1 00044V11 1 01099W11 1 78015
0269999999939961953100623005+37767-090400SAO  +027499999V02033859007250121949N024000599+01114+00505102204ADDGD14995+9999999GD20995+9999999GD30995+9999999GD40995+9999999GF108085999999999999999999MA1999999098814EQDN01 00000JPWTH 1QNNE11 1 00699E11 1 00099E11 1 00099E11 1 00099G11 1 00040K11 1 00041L11 1 01500M11 1 29180N11 1 00000Q11 1 10220S11 1 00052V11 1 01010W11 1 18014
0082042700999991953062820004+61183-045417SAO  +0026BGBW V0202481N005112200019N0400001N1+01631+00961101021ADDGA1011+018009059GA2011+075009029GF102991999999999999999999MA1999999100511MW1001
0177722970231291953032720003+33817-118150SAO  +0013LGB  V02018059003652200059N0064005N1+01895+01005101855ADDGF100005999999999999999999MA1999999101635MW1045MW2051EQDN01 08200JPWTH 1QNNG11U1 99999K11 1 00050L11 1 00400M11 1 30010N11 1 08200Q11 1 10185S11 1 00066V11 1 00000W11 1 55007
0269999999139721953013017005+99999+999999SAO  +999999999V02018059007750036649N012800599+01835+01395101465ADDGD13995+9999999GD24995+9999999GD30995+9999999GD40995+9999999GF108075999999999999999999MA1999999099465EQDN01 00000JPWTH 1QNNE11 1 00499E11 1 00699E11 1 00099E11 1 00099G11 1 00012K11 1 00057L11 1 00800M11 1 29370N11 1 00000Q11 1 10146S11 1 00065V11 1 01009W11 1 55015
006172251012924195301200200D+27767-097500SAO  +0013CRP  V0201801N006212200019N0240001N1+01741+01691101031ADDAA101000095GF100991999999999999999999MA1999999100881MW1001
0082788071999991953111704004+08967-079550SAO  +0012MBLB V0209991C000010360019N0192001N1+02461+02351101191ADDGA1011+004509089GA2061+036009039GF107991999999999999999999MA1999999101051MW1001
0066983270999991953040516004+15183+120550SAO  +0145RPMK V0202901N001512200019N0160931N9+02501+02281101331ADDGA1041+042009039GF102991999999999999999999MA1999999099661MW1001
0052166450999991953011906004+39550+021767FM-12+015499999V0203201N004619999999N0200001N9+00501+00001101441ADDAJ100009199999999GF108991081061999999999999IA1089
0098034873999991953120109004+52850+000767SAO  +0071EGUP V0201801N005110840019N0064001N9+00351+00301102401ADDGA1011+010509059GA2021+054009039GA3031+084009009GF107991999999999999999999MA1999999101561MW1051
0066171240999991953090202004+39783+030567SAO  +0785LTBI V0201351N016512200019N0192001N1+01801+99999999999ADDGA1021+011709059GF102991999999999999999999MA1999999092961MW1001
039472446113988195301281000C+39117-094583SAO  +0231MKC  V02099999000052200059N0240005N1-00395-00675102415ADDAA101000095GA1021+030484034GA2999+999999999GA3999+999999999GA4999+999999999GD11025+9999993GD20005+9999999GD30005+9999999GD40005+9999999GF102005999999999999999999MA1999999099595MW1001EQDN01 00000JPWTH 1QNNE11 1 00102E11 1 00000E11 1 00000E11 1 00000G11U1 99999H11 1 23100H11 1 00999H11 1 00999H11 1 00999K11 1 00020L11 1 01500M11 1 29410N11 1 00000Q11 1 10241S11 1 00025V11 1 00200W11 1 00000
0108476370999991953062715004+35517+137833FM-12+048399999V0202901N002619999999N0050001N9+02061+01891100791ADDAY101999GA1999+087009079GA2031+014709089GF108991999071012501021999MD1310071+9999MW1611EQDQ01+000002SCOTLC
0165999999931111953011410005+34117-119117SAO  +000999999V02027059010352200059N056000599+01284+00835102074ADDGF100005999999999999999999MA1999999101964EQDN01 00000JPWTH 1QNNG11U1 99999K11 1 00047L11 1 03500M11 1 30110N11 1 00000Q11 1 10207S11 1 00055V11 1 00000W11 1 77020
0377999999253391953082405005+59517-139667SAO  +0009YAK  V02031559002150121949N064000599+01175+01065100515ADDGA1999+012194064GA2999+030484034GA3999+999999999GA4999+999999999GD14085+9999999GD20025+9999999GD30005+9999999GD40005+9999999GF108075999999999999999999MA1999999100415EQDN01 00000JPWTH 1QNNE11 1 00610E11 1 00002E11 1 00000E11 1 00000G11 1 00040H11 1 15040H11 1 23100H11 1 00999H11 1 00999K11 1 00051L11 1 04000M11 1 29650N11 1 00000Q11 1 10051S11 1 00053V11 1 01009W11 1 88004
0377999999225141953071213005+21317-158067SAO  +0015HNA  V02004559002652200059N024000599+02335+01675101805ADDGA1999+009144084GA2999+012194064GA3999+999999999GA4999+999999999GD12015+9999999GD22035+9999999GD30005+9999999GD40005+9999999GF104045999999999999999999MA1999999101635EQDN01 00000JPWTH 1QNNE11 1 00201E11 1 00204E11 1 00000E11 1 00000G11U1 99999H11 1 11030H11 1 15040H11 1 00999H11 1 00999K11 1 00062L11 1 01500M11 1 30010N11 1 00000Q11 1 10180S11 1 00074V11 1 00505W11 1 22005
0383999999938011953051312005+34350-085167SAO  +0195RMG  V02099999000050762049N006400599+01614+01445101804ADDGA1999+999999104GA2999+076204024GA3999+999999999GA4999+999999999GD14005+9999999GD20085+9999999GD30005+9999999GD40005+9999999GF108075999999999999999999MA1999999099494MW1445EQDN01 07200JPWTH 1QNNE11 1 00600E11 1 00010E11 1 00000E11 1 00000G11 1 00250H11 1 45999H11 1 37250H11 1 00999H11 1 00999K11 1 00058L11 1 00400M11 1 29380N11 1 07200Q11 1 10180S11 1 00061V11 1 01009W11 1 00000
0313999999130211953012807005+32350-008783SAO  +9999GDMS V02011359001550274349N032000599+01335+00945999999ADDGA1999+007624064GA2999+027434034GA3999+070104024GD12025+9999999GD23045+9999999GD34025+9999999GD40995+9999999GF108085999999999999999999EQDN01 00000JPWTH 1QNNE11 1 00202E11 1 00405E11 1 00603E11 1 00099G11 1 00090H11 1 15025H11 1 23090H11 1 37230K11 1 00049L11 1 02000N11 1 00000S11 1 00056V11 1 01010W11 1 34003
0366999999432201953090807005+38017+128133SAO  +0182RKNK V02022559005252200059N011200599+02785+99999101845ADDGA1999+009144084GA2999+999999999GA3999+999999999GA4999+999999999GD12015+9999999GD20005+9999999GD30005+9999999GD40005+9999999GF101015999999999999999999MA1999999099595EQDN01 00000JPWTH 1QNNE11 1 00201E11 1 00000E11 1 00000E11 1 00000G11U1 99999H11 1 11030H11 1 00999H11 1 00999H11 1 00999L11 1 00700M11 1 29410N11 1 00000Q11 1 10184S11 1 00082V11 1 00101W11 1 66010
039499999914732195305120200E+40767-073867SAO  +001699999V02013559001552200059N008000599+01785+01285101425ADDAA101000095GA1999+076204004GA2999+999999999GA3999+999999999GA4999+999999999GD11035+9999993GD20005+9999999GD30005+9999999GD40005+9999999GF103025999999999999999999MA1999999101225MW1045EQDN01 08000JPWTH 1QNNE11 1 00104E11 1 00000E11 1 00000E11 1 00000G11U1 99999H11 1 32250H11 1 00999H11 1 00999H11 1 00999K11 1 00055L11 1 00500M11 1 29890N11 1 08000Q11 1 10142S11 1 00064V11 1 00402W11 1 44003
0094101470999991953110810004+53633+010000FM-12+001699999V0202301N00621001501CN0028001N9+99999+99999999999ADDAY121999GA1051+001509079GA2051+001509079GF108991999999999999999999MW1511EQDQ01+082921APOA  
007772303013714195312201000D+35183-079017SAO  +0061POB  V0209991C000012200019N0160001N9-00701-00981102811ADDAA101000095GA1041+045009049GF102991999999999999999999MA1999999101931MW1001
0112319530999991953072200004+44750+136150FM-12+004899999V0201401N00101220001CN0200001N9+02221+02001100771ADDAJ100009199999999AY121999GF107991001001999999081011HL10009IA1109IA2999+01399KA1999N+01611MD1310041+9999MW1031
036199999924011195304282200E+46767-100750SAO  +050799999V02011359011850365849N024000599+01175+00115100545ADDAA101000095GA1999+013724084GA2999+019814034GA3999+036584034GD12005+9999999GD24025+9999999GD30065+9999999GD40995+9999999GF108085999999999999999999MA1999999094585EQDN01 00000JPWTH 1QNNE11 1 00200E11 1 00602E11 1 00008E11 1 00099G11 1 00120H11 1 11045H11 1 23065H11 1 23120K11 1 00034L11 1 01500M11 1 27930N11 1 00000Q11 1 10054S11 1 00053V11 1 01010W11 1 34023
0269999999266271953042002005+63883-160800SAO  +0006UNK  V02011359003150198149N048000599+00895+00005098485ADDGD12995+9999999GD24995+9999999GD30995+9999999GD40995+9999999GF108085999999999999999999MA1999999098415EQDN01 00000JPWTH 1QNNE11 1 00299E11 1 00699E11 1 00099E11 1 00099G11 1 00065K11 1 00032L11 1 03000M11 1 29060N11 1 00000Q11 1 09848S11 1 00048V11 1 01010W11 1 34006
0050727033999991953072019004+46117-067783SAO  +0150HUL  V0201581N003610150019N0160001N1+02181+01851101421ADDGF108991999999999999999999MA1999999099701MW1001
0092982320999991953112103004+18367+121633FM-12+000499999V0200401N00211220001CN0160001N9+02831+02501101821ADDAY121999GA1011+004209089GF102991999091004501001001MD1010041+9999MW1051EQDQ01+000012SCOTLC
0269999999931231953091115005+39417-118717SAO  +120099999V02013559000552200059N048000599+01894+00505101804ADDGD10995+9999999GD20995+9999999GD30995+9999999GD40995+9999999GF100005999999999999999999MA1999999088494EQDN01 00000JPWTH 1QNNE11 1 00099E11 1 00099E11 1 00099E11 1 00099G11U1 99999K11 1 00041L11 1 03000M11 1 26130N11 1 00000Q11 1 10180S11 1 00066V11 1 00000W11 1 44001
0383999999242551953030814005+99999+999999SAO  +999999999V02099999000052200059N000100599+00175+00175101995ADDGA1999+999999104GA2999+999999999GA3999+999999999GA4999+999999999GD16075+9999999GD20005+9999999GD30005+9999999GD40005+9999999GF107075999999999999999999MA1999999101905MW1455EQDN01 07000JPWTH 1QNNE11 1 00809E11 1 00000E11 1 00000E11 1 00000G11U1 99999H11 1 45999H11 1 00999H11 1 00999H11 1 00999K11 1 00035L11 1 00006M11 1 30090N11 1 07000Q11 1 10199S11 1 00035V11 1 00909W11 1 00000
0275999999147411953020612005+41150-079100SAO  +042799999V02015859008850121949N016000599+00175-00615101355ADDGD13995+9999999GD24995+9999999GD30995+9999999GD40995+9999999GF108085999999999999999999MA1999999096215MW1805EQDN01 02300JPWTH 1QNNE11 1 00499E11 1 00699E11 1 00099E11 1 00099G11 1 00040K11 1 00021L11 1 01000M11 1 28410N11 1 02300Q11 1 10135S11 1 00035V11 1 01010W11 1 54017
039499999903103195307272100E+35133-111667SAO  +2135FLG  V02027059005250182949N024000599+01835+01285102205ADDAA101001095GA1999+018294094GA2999+060964004GA3999+999999999GA4999+999999999GD13065+9999999GD24025+9999999GD30005+9999999GD40005+9999999GF108075999999999999999999MA1999999079445MW1955EQDN01 01000JPWTH 1QNNE11 1 00408E11 1 00602E11 1 00000E11 1 00000G11 1 00060H11 1 18060H11 1 32200H11 1 00999H11 1 00999K11 1 00055L11 1 01500M11 1 23460N11 1 01000Q11 1 10220S11 1 00065V11 1 01009W11 1 77010
0269999999147361953111507005+40300-078317SAO  +044899999V02022559007252200059N011200599+00895+00175102105ADDGD10995+9999999GD20995+9999999GD30995+9999999GD40995+9999999GF100005999999999999999999MA1999999096785EQDN01 00000JPWTH 1QNNE11 1 00099E11 1 00099E11 1 00099E11 1 00099G11U1 99999K11 1 00035L11 1 00700M11 1 28580N11 1 00000Q11 1 10210S11 1 00048V11 1 00000W11 1 66014
041072458613922195304271400C+38800-097633SAO  +0383SLN  V02015859008252200059N0240005N1+01285+00225101045ADDAA101000095GA1999+054864034GA2999+999999999GA3999+999999999GA4999+999999999GD10005+9999999GD20005+9999999GD30005+9999999GD40005+9999999GF100005999999999999999999MA1999999096515MW1001EQDQ01    003SCCGA1N01 00000JPWTH 1QNNE11 1 00000E11 1 00000E11 1 00000E11 1 00000G11U1 99999H11 1 23180H11 1 00999H11 1 00999H11 1 00999K11 1 00036L11 1 01500M11 1 28500N11 1 00000Q11 1 10104S11 1 00055V11 1 00000W11 1 54016
038899999913897195306120700E+36117-086683SAO  +0177BNA  V02009059001552200059N024000599+02065+01895101835ADDAA101000095GA1999+091444004GA2999+999999999GA3999+999999999GA4999+999999999GD12025+9999999GD20005+9999999GD30005+9999999GD40005+9999999GF102025999999999999999999MA1999999099705EQDN01 00000JPWTH 1QNNE11 1 00203E11 1 00000E11 1 00000E11 1 00000G11U1 99999H11 1 32300H11 1 00999H11 1 00999H11 1 00999K11 1 00066L11 1 01500M11 1 29440N11 1 00000Q11 1 10183S11 1 00069V11 1 00303W11 1 33003
033499999914820195302121300E+41400-081850SAO  +024599999V02031559006750033549N012800599+00005-00175100475ADDAA101000095GA1999+003354074GA2999+004274064GD13065+9999999GD24025+9999999GD30995+9999999GD40995+9999999GF108085999999999999999999MA1999999097535EQDN01 00000JPWTH 1QNNE11 1 00407E11 1 00603E11 1 00099E11 1 00099G11 1 00011H11 1 16011H11 1 15014K11 1 00029L11 1 00800M11 1 28800N11 1 00000Q11 1 10047S11 1 00032V11 1 01010W11 1 88013
017699999923160195304100500E+32133-110950SAO  +078099999V02011359001552200059N064000599+01445-00895101395ADDAA101000095GF100005999999999999999999MA1999999092555EQDN01 00000JPWTH 1QNNG11U1 99999K11 1 00016L11 1 04000M11 1 27330N11 1 00000Q11 1 10139S11 1 00058V11 1 00000W11 1 34003
007772311913886195306010700A+34850-082350SAO  +0319GMU  V0202931N003112200019N0240001N1+02351+01851100941ADDAA101000095GA1021+075009009GF102991999999999999999999MA1999999097601MW1001
0269999999240371953110718005+46433-105867SAO  +0801MLS  V02027059006752200059N024000599+00945-00225102895ADDGD10995+9999999GD20995+9999999GD30995+9999999GD40995+9999999GF100005999999999999999999MA1999999093335EQDN01 00000JPWTH 1QNNE11 1 00099E11 1 00099E11 1 00099E11 1 00099G11U1 99999K11 1 00028L11 1 01500M11 1 27560N11 1 00000Q11 1 10289S11 1 00049V11 1 00000W11 1 77013
031399999914942195302281300E+41300-095900SAO  +0304OMA  V02013559001550167649N006400599+00065-00225102005ADDAA101000095GA1999+016764034GD14085+9999999GD20995+9999999GD30995+9999999GD40995+9999999GF108085999999999999999999MA1999999098345MW1045EQDN01 08000JPWTH 1QNNE11 1 00610E11 1 00099E11 1 00099E11 1 00099G11 1 00055H11 1 23055K11 1 00028L11 1 00400M11 1 29040N11 1 08000Q11 1 10200S11 1 00033V11 1 01010W11 1 44003
010183612099999195303141200N-20467-054667BRAZ +0567SBCG V02032019004619999999N020000199+02391+02201101391ADDAA101000091GA1011+002001221GA2031+030001031GF104991999999999999999999MA1101381092411MD1310231+9999
0064915620999991953102607004-18783+168817FM-12+019899999V02099999999999999999N9999999N9+99999+99999999999ADDKA1999M+99999KA2999N+99999EQDQ01 +01723ATMM  Q02 +02613ATMM  
0275722597939851953121313003+32783-098067SAO  +0286MWL  V02031559002652200059N0400005N1-00225-00335101705ADDGD12995+9999999GD20995+9999999GD30995+9999999GD40995+9999999GF101015999999999999999999MA1999999098145MW1001EQDN01 00000JPWTH 1QNNE11 1 00299E11 1 00099E11 1 00099E11 1 00099G11U1 99999K11 1 00026L11 1 02500M11 1 28980N11 1 00000Q11 1 10170S11 1 00028V11 1 00101W11 1 88005
0269999999242241953022612005+42167-121733SAO  +124599999V02036059001552200059N032000599-00175-00445102685ADDGD10995+9999999GD20995+9999999GD30995+9999999GD40995+9999999GF100005999999999999999999MA1999999088385EQDN01 00000JPWTH 1QNNE11 1 00099E11 1 00099E11 1 00099E11 1 00099G11U1 99999K11 1 00024L11 1 02000M11 1 26100N11 1 00000Q11 1 10268S11 1 00029V11 1 00000W11 1 11003
0040476540999991953121818004+34700+137717FM-12+003399999V0200201N002619999999N9999999N9+01111+99999102151ADDAY101999MA1999999101761MD1810091+9999
0377999999266161953032413005+66867-162633SAO  +0006OTZ  V02033859002150243849N024000599-01725-01945100815ADDGA1999+012194064GA2999+024384034GA3999+999999999GA4999+999999999GD12025+9999999GD23045+9999999GD30005+9999999GD40005+9999999GF106065999999999999999999MA1999999100785EQDN01 00000JPWTH 1QNNE11 1 00203E11 1 00405E11 1 00000E11 1 00000G11 1 00080H11 1 15040H11 1 23080H11 1 00999H11 1 00999K11 1-00003L11 1 01500M11 1 29760N11 1 00000Q11 1 10081S11 1 00001V11 1 00808W11 1 18004
0091889380999991953092623004-62967-060550FM-12+000899999V0203301N00261012301CN0700001N9+00111-00111100591ADDAY121999GF107991061051012501031061KA1999M+00221MW1021EQDQ01+000032APCTENQ02+000002APC3  
033499999913963195307141100E+34733-092233SAO  +008499999V02029359001550243849N011200599+01945+01785101525ADDAA101000095GA1999+024384034GA2999+036584034GD13065+9999999GD24055+9999999GD30995+9999999GD40995+9999999GF108085999999999999999999MA1999999100585EQDN01 00000JPWTH 1QNNE11 1 00407E11 1 00606E11 1 00099E11 1 00099G11 1 00080H11 1 23080H11 1 23120K11 1 00064L11 1 00700M11 1 29700N11 1 00000Q11 1 10152S11 1 00067V11 1 01010W11 1 78003
0323999999241491953020101005+46383-117017SAO  +043399999V02020359003650213449N048000599+01335+00335101505ADDGA1999+021344064GA2999+030484034GD13075+9999999GD24085+9999999GD30995+9999999GD40995+9999999GF108085999999999999999999MA1999999096345EQDN01 00000JPWTH 1QNNE11 1 00409E11 1 00610E11 1 00099E11 1 00099G11 1 00070H11 1 15070H11 1 23100K11 1 00038L11 1 03000M11 1 28450N11 1 00000Q11 1 10150S11 1 00056V11 1 01010W11 1 56007
0073477550999991953032603004+34900+132067FM-12+002099999V0203401N00821012301CN0400001N9+00891-00061101461ADDAY101999GA1031+999999999GF107991071021012501001001MD1310151+9999MW1021
0066474250999991953022218004+42800+141650SAO  +0027RJCC V0209991C000010120019N0112001N1-01201-01641102811ADDGA1061+012009059GF107991999999999999999999MA1999999102441MW1001
029272654614946195312031300C+44917-097150SAO  +0532ATY  V02004559008850024449N0008005N1-00335-00395101025ADDAA101001395GD15995+9999999GD20995+9999999GD30995+9999999GD40995+9999999GF108085999999999999999999MA1999999094625MW1385MW2735EQDN01 04184JPWTH 1QNNE11 1 00799E11 1 00099E11 1 00099E11 1 00099G11 1 00008K11 1 00025L11 1 00050M11 1 27940N11 1 04184Q11 1 10102S11 1 00026V11 1 01010W11 1 22017
0156478910999991953090421004+34317+134050FM-12+001099999V0203601N000519999999N0020001N9+02221+02171100521ADDAY101999GA1999+087009079GA2999+027009089GF108991999071004501021999MD1210051+9999MW1631EQDQ01+000002SCOTLCQ02+000042APCTENQ03+000062APC3  Q04    003SCCGA2
031999999913729195301211600E+38883-079850SAO  +060599999V02031559001050015249N001000599+00065+00005101225ADDAA101002095GA1999+001524104GD15085+9999999GD20995+9999999GD30995+9999999GD40995+9999999GF108085999999999999999999MA1999999093975MW1455MW2715EQDN01 04070JPWTH 1QNNE11 1 00710E11 1 00099E11 1 00099E11 1 00099G11 1 00005H11 1 98005K11 1 00032L11 1 00062M11 1 27750N11 1 04070Q11 1 10122S11 1 00033V11 1 01010W11 1 88002
0269999999947041953012705005+42583-077717SAO  +0199DSV  V02018059003650457249N019200599-00674-01065102684ADDGD14995+9999999GD20995+9999999GD30995+9999999GD40995+9999999GF108085999999999999999999MA1999999100034EQDN01 00000JPWTH 1QNNE11 1 00699E11 1 00099E11 1 00099E11 1 00099G11 1 00150K11 1 00013L11 1 01200M11 1 29540N11 1 00000Q11 1 10268S11 1 00020V11 1 01010W11 1 55007
0058915300999991953121204004-00533+166917FM-12+003799999V0203601N000519999999N0300001N9+03061+02391999999ADDAY101999GF107991031031008001011999MA1999999100541MW1001
017699999913748195307190800E+34267-077917SAO  +0009ILM  V02018059003152200059N024000599+02565+02395101665ADDAA101000095GF100005999999999999999999MA1999999101525EQDN01 00000JPWTH 1QNNG11U1 99999K11 1 00075L11 1 01500M11 1 29980N11 1 00000Q11 1 10166S11 1 00078V11 1 00000W11 1 55006
0066749376999991953050609004+38317+128517SAO  +001899999V0209991C000010060019N0064001N1+01521+01241101101ADDGA1081+006009059GF108991999999999999999999MA1999999101121MW1451
028672595524259195310061000C+41783-122467SAO  +0805SIY  V02099999000052200059N0240005N1+00505-00395101665ADDAA101000095GD10995+9999999GD20995+9999999GD30995+9999999GD40995+9999999GF100005999999999999999999MA1999999092415MW1001EQDN01 00000JPWTH 1QNNE11 1 00099E11 1 00099E11 1 00099E11 1 00099G11U1 99999K11 1 00025L11 1 01500M11 1 27290N11 1 00000Q11 1 10166S11 1 00041V11 1 00000W11 1 00000
0368726395148081953113013003+44467-083400SAO  +0188OSC  V02029359002150012249N0024005N9-00065-00175101825ADDGA1021+999999104GA2051+001224154GA3011+004884064GD16025+9999999GD23055+9999999GD34015+9999999GD40995+9999999GF108085999999999999999999MA1999999099425MW1111MW2445MW3715EQDN01 04072JPWTH 1QNNE11 1 00803E11 1 00406E11 1 00601E11 1 00099G11 1 00004H11 1 45999H11 1 17004H11 1 15016K11 1 00029L11 1 00150M11 1 29360N11 1 04072Q11 1 10182S11 1 00031V11 1 01010W11 1 78004
0187723825231311953122207003+34583-117383SAO  +0877VCV  V02031559004652200059N0320005N9+00725-01065102475ADDGA1001+999999999GF100005999999999999999999MA1999999092315MW1001EQDN01 00000JPWTH 1QNNG11U1 99999K11 1 00013L11 1 02000M11 1 27260N11 1 00000Q11 1 10247S11 1 00045V11 1 00000W11 1 88009
0094476550999991953060523004+34600+138217FM-12+004799999V0202501N00821024001CN0140001N9+02061+02061100801ADDAY101999GA1999+011709049GA2031+002709029GF107991051061999999031011MW1011EQDQ01+000992SCOLCB
006094693099999195311302300N-34230+142080AUST +0053YMMI V0209999C000059999999N999999999+01995+00805999999ADDGA1005+999999999GF100995004999999999999999MA1999999101585
0082601560999991953050205004+33367-007583SAO  +0200GMMN V0201601N002612200019N0160001N9+01071+01021101871ADDGA1021+004509059GA2011+048009039GF102991999999999999999999MA1999999099491MW1001
029299999914919195305020100E+46917-098683SAO  +0455JMS  V02002359005750015249N002400599+00395+00335100855ADDAA101000095GD14995+9999999GD20995+9999999GD30995+9999999GD40995+9999999GF108085999999999999999999MA1999999095365MW1455MW2515EQDN01 03370JPWTH 1QNNE11 1 00699E11 1 00099E11 1 00099E11 1 00099G11 1 00005K11 1 00038L11 1 00150M11 1 28160N11 1 03370Q11 1 10085S11 1 00039V11 1 01010W11 1 12011
0383747900138491953040215003+33967-080483SAO  +0076SSC  V02036059002152200059N0240005N9+02225+01005101025ADDGA1011+060964024GA2999+999999999GA3999+999999999GA4999+999999999GD12015+9999999GD20005+9999999GD30005+9999999GD40005+9999999GF101015999999999999999999MA1999999100105MW1001EQDN01 00000JPWTH 1QNNE11 1 00201E11 1 00000E11 1 00000E11 1 00000G11U1 99999H11 1 37200H11 1 00999H11 1 00999H11 1 00999K11 1 00050L11 1 01500M11 1 29560N11 1 00000Q11 1 10102S11 1 00072V11 1 00101W11 1 11004
0269999999265191953011420005+62533-153900SAO  +045899999V02036059001552200059N080000599-03175-03505101055ADDGD10995+9999999GD20995+9999999GD30995+9999999GD40995+9999999GF100005999999999999999999MA1999999095095EQDN01 00000JPWTH 1QNNE11 1 00099E11 1 00099E11 1 00099E11 1 00099G11U1 99999K11 1-00031L11 1 05000M11 1 28080N11 1 00000Q11 1 10105S11 1-00025V11 1 00000W11 1 11003
0081320770999991953120312004+50233+142583FM-12+018099999V0203401N00101220001CN0500001N9-02221-02391101731ADDAA199000391AY101999GF101991011051012501001001KA1999M-01721MD1990011+9999MW1021
0269999999038151953010917005+30483-087350SAO  +002999999V02027059010850036649N024000599+00785+00505100275ADDGD12995+9999999GD24995+9999999GD30995+9999999GD40995+9999999GF108085999999999999999999MA1999999099835EQDN01 00000JPWTH 1QNNE11 1 00299E11 1 00699E11 1 00099E11 1 00099G11 1 00012K11 1 00041L11 1 01500M11 1 29480N11 1 00000Q11 1 10027S11 1 00046V11 1 01010W11 1 77021
0275999999138691953061611005+31533-084183SAO  +006299999V02009059000552200059N009600599+02285+02115101665ADDGD12995+9999999GD23995+9999993GD30995+9999999GD40995+9999999GF106025999999999999999999MA1999999100985MW1445EQDN01 07200JPWTH 1QNNE11 1 00299E11 1 00399E11 1 00099E11 1 00099G11U1 99999K11 1 00070L11 1 00600M11 1 29820N11 1 07200Q11 1 10166S11 1 00073V11 1 00703W11 1 33001
0057268500999991953071612004+53867+027533FM-12+023499999V0202901N00721012301CN0100001N9+01611+01111101041ADDAY181999GF106991061031012501001001MD1810031+9999MW1251
0082475800999991953111818004+40700+141367SAO  +0037RJSM V0209991C000010210019N0160001N9+00021-00311101901ADDGA1021+015009059GA2081+021009039GF108991999999999999999999MA1999999101391MW1001
0323999999225361953052907005+21983-159350SAO  +0031LIH  V02004559006750054949N016000599+02335+02005102135ADDGA1999+005494084GA2999+018294064GD13065+9999999GD24085+9999999GD30995+9999999GD40995+9999999GF108085999999999999999999MA1999999101635EQDN01 00000JPWTH 1QNNE11 1 00408E11 1 00610E11 1 00099E11 1 00099G11 1 00018H11 1 11018H11 1 15060K11 1 00068L11 1 01000M11 1 30010N11 1 00000Q11 1 10213S11 1 00074V11 1 01010W11 1 22013
0050477430999991953122012004+35500+133233SAO  +0006RJOH V0201801N002612200019N0160001N1+00691+00581102371ADDGF100991999999999999999999MA1999999102271MW1001
