0296999999137531954061713005+39450-074583SAO  +002099999V02006859007250045749N016000599+01615+01335102555ADDGA1999+004574064GD14085+9999999GD20995+9999999GD30995+9999999GD40995+9999999GF108085999999999999999999MA1999999102305EQDN01 00000JPWTH 1QNNE11 1 00610E11 1 00099E11 1 00099E11 1 00099G11 1 00015H11 1 15015K11 1 00056L11 1 01000M11 1 30210N11 1 00000Q11 1 10255S11 1 00061V11 1 01010W11 1 32014
0269999999939891954081419005+39933-091200SAO  +023499999V02024859006752200059N019200599+03174+02175101464ADDGD12995+9999999GD22995+9999999GD30995+9999999GD40995+9999999GF102025999999999999999999MA1999999098754EQDN01 00000JPWTH 1QNNE11 1 00299E11 1 00299E11 1 00099E11 1 00099G11U1 99999K11 1 00071L11 1 01200M11 1 29160N11 1 00000Q11 1 10146S11 1 00089V11 1 00303W11 1 76013
0329999999147931954110423005+40200-075150SAO  +011999999V02024859002650213449N009600599+00675-00065101835ADDGA1999+006104064GA2999+021344044GD12025+9999999GD24065+9999999GD30995+9999999GD40995+9999999GF108085999999999999999999MA1999999100375MW1055EQDN01 08100JPWTH 1QNNE11 1 00203E11 1 00607E11 1 00099E11 1 00099G11 1 00070H11 1 15020H11 1 21070K11 1 00031L11 1 00600M11 1 29640N11 1 08100Q11 1 10183S11 1 00044V11 1 01010W11 1 76005
0082702720999991954062808004+61250-149800SAO  +0065PAED V0201801N005110210019N0480001N9+01191+00521101151ADDGA1021+010509059GA2061+021009039GF108991999999999999999999MA1999999100301MW1001
0043110030999991954112512004+47950+013417FM-12+065199999V0200901N00361000151CN0000001N9-00281-00281999999ADDAY141061GF109991091999000251999999MW1451
0076132080999991954060718004+44867+013850FM-12+003299999V0201801N00261220001CN0200001N9+02001+01611101051ADDAY111999GF102991011021008001001021IA1009KA1999M+02391MD1310061+9999MW1011
0114484550999991954091520004+13733+100500SAO  +002099999V0209991C000010390019N0128001N1+02521+02351100721ADDGA1011+006009089GA2031+009009059GA3021+036009039GA4051+039009049GF108991999999999999999999MA1999999100541MW1001
031372533014827195411042000C+41000-085217SAO  +0249FWA  V02024859005750024449N0096005N9+00225+00175101495ADDAA101000095GA1081+002444074GD14085+9999999GD20995+9999999GD30995+9999999GD40995+9999999GF108085999999999999999999MA1999999098415MW1515EQDN01 03300JPWTH 1QNNE11 1 00610E11 1 00099E11 1 00099E11 1 00099G11 1 00008H11 1 16008K11 1 00035L11 1 00600M11 1 29060N11 1 03300Q11 1 10149S11 1 00036V11 1 01010W11 1 76011
031372389093193195403080100C+36783-119700SAO  +0103FAT  V02031559001550304849N0064005N9+01785+01285102075ADDAA101000095GA1081+030484034GD14085+9999999GD20995+9999999GD30995+9999999GD40995+9999999GF108085999999999999999999MA1102071100855MW1055EQDN01 08100JPWTH 1QNNE11 1 00610E11 1 00099E11 1 00099E11 1 00099G11 1 00100H11 1 23100K11 1 00055L11 1 00400M11 1 29780N11 1 08100Q11 1 10207S11 1 00064V11 1 01010W11 1 88003
0377999999138831954102915005+33983-081000SAO  +006999999V02027059005752200059N024000599+01895+01005100855ADDGA1999+076204024GA2999+999999999GA3999+999999999GA4999+999999999GD10005+9999999GD20005+9999999GD30005+9999999GD40005+9999999GF100005999999999999999999MA1999999100035EQDN01 00000JPWTH 1QNNE11 1 00000E11 1 00000E11 1 00000E11 1 00000G11U1 99999H11 1 37250H11 1 00999H11 1 00999H11 1 00999K11 1 00050L11 1 01500M11 1 29540N11 1 00000Q11 1 10085S11 1 00066V11 1 00000W11 1 77011
0116040630999991954030906004+65683-018083FM-12+000599999V0201401N00311000151CN0002001N9-00611-00721100301ADDAA199008091AY171061GA1999+000159999GF109991091999000251999999KA1999N-00611MD1310051+9999MW1731EQDQ01    003SCCGA1
0269999999231591954102202005+37700-112150SAO  +2317BCE  V02018059001552200059N024000599+00835-00505102685ADDGD10995+9999999GD20995+9999999GD30995+9999999GD40995+9999999GF100005999999999999999999MA1999999077685EQDN01 00000JPWTH 1QNNE11 1 00099E11 1 00099E11 1 00099E11 1 00099G11U1 99999K11 1 00023L11 1 01500M11 1 22940N11 1 00000Q11 1 10268S11 1 00047V11 1 00000W11 1 55003
0090945680999991954122502003-27633+152717FM-12+0026YBAM V0200701N006219999999N0350001N9+02721+01561999999ADDAY101999GA1045+012005085GA2015+999999045GF105991041021012501031999MA1999999101251MW1001
017699999914942195411191800E+41300-095900SAO  +0304OMA  V02029359007252200059N016000599+01175+00115101515ADDAA101000095GF100005999999999999999999MA1999999097905EQDN01 00000JPWTH 1QNNG11U1 99999K11 1 00034L11 1 01000M11 1 28910N11 1 00000Q11 1 10151S11 1 00053V11 1 00000W11 1 78014
0112318290999991954112500004+47317+138817FM-12+002699999V0202701N00821220001CN0200001N9-00721-00721102371ADDAJ100009199999999AY101999GF100991001001999999001001HL10009IA1139IA2999-01229KA1999N-00781MD1210201+9999MW1021
0011478940999991954053103004+33850+134100FM-12+194799999V0203401N003619999999N9999999N9+00671+99999999999ADDAY101999
0269999999939931954022213005+36000-094167SAO  +038399999V02099999000052200059N024000599-00174-00335102204ADDGD10995+9999999GD20995+9999999GD30995+9999999GD40995+9999999GF100005999999999999999999MA1999999097604EQDN01 00000JPWTH 1QNNE11 1 00099E11 1 00099E11 1 00099E11 1 00099G11U1 99999K11 1 00026L11 1 01500M11 1 28820N11 1 00000Q11 1 10220S11 1 00029V11 1 00000W11 1 00000
007772303013714195403031700D+35183-079017SAO  +0061POB  V0202701N008710051019N0112001N9+01131+00911100981ADDAA101001095GA1081+005109059GF108991999999999999999999MA1999999100141MW1001
0094476240999991954052420004+36400+139067FM-12+011399999V0203601N01231012301CN0140001N9+01891+01331100331ADDAY101999GA1999+057009079GA2999+014709099GF107991071051012501011999MW1021EQDQ01    003SCCGA2
0377999999129261954080913005+27683-097283SAO  +0006NGP  V02022559003150018349N016000599+02785+02565101515ADDGA1999+001834084GA2999+999999999GA3999+999999999GA4999+999999999GD13065+9999999GD20005+9999999GD30005+9999999GD40005+9999999GF106065999999999999999999MA1999999101465EQDN01 00000JPWTH 1QNNE11 1 00408E11 1 00000E11 1 00000E11 1 00000G11 1 00006H11 1 11006H11 1 00999H11 1 00999H11 1 00999K11 1 00078L11 1 01000M11 1 29960N11 1 00000Q11 1 10151S11 1 00082V11 1 00808W11 1 66006
0383724810232031954090217003+37367-120567SAO  +0054MER  V02031559004652200059N0160005N9+02505+01065101735ADDGA1031+048774034GA2999+999999999GA3999+999999999GA4999+999999999GD12035+9999999GD20005+9999999GD30005+9999999GD40005+9999999GF103035999999999999999999MA1999999101025MW1001EQDN01 00000JPWTH 1QNNE11 1 00204E11 1 00000E11 1 00000E11 1 00000G11U1 99999H11 1 23160H11 1 00999H11 1 00999H11 1 00999K11 1 00051L11 1 01000M11 1 29830N11 1 00000Q11 1 10173S11 1 00077V11 1 00404W11 1 88009
038899999923194195402271400E+35017-110733SAO  +148899999V02029359004152200059N024000599+00175-01285101465ADDAA101000095GA1999+045724034GA2999+076204004GA3999+999999999GA4999+999999999GD11005+9999993GD20025+9999999GD30005+9999999GD40005+9999999GF102005999999999999999999MA1999999085105EQDN01 00000JPWTH 1QNNE11 1 00100E11 1 00003E11 1 00000E11 1 00000G11U1 99999H11 1 23150H11 1 32250H11 1 00999H11 1 00999K11 1 00009L11 1 01500M11 1 25130N11 1 00000Q11 1 10146S11 1 00035V11 1 00300W11 1 78008
0269999999137281954031607005+36567-079333SAO  +018099999V02031559005252200059N024000599+00005-00725102245ADDGD10995+9999999GD20995+9999999GD30995+9999999GD40995+9999999GF100005999999999999999999MA1999999100035EQDN01 00000JPWTH 1QNNE11 1 00099E11 1 00099E11 1 00099E11 1 00099G11U1 99999K11 1 00019L11 1 01500M11 1 29540N11 1 00000Q11 1 10224S11 1 00032V11 1 00000W11 1 88010
0049620630999991954052600004+31850+023917FM-12+015599999V0201101N00671220001CN0120001N9+02061+01221101431ADDGF106991041001999999031061MD1710201+9999MW1001
007772303013714195409241100D+35183-079017SAO  +0061POB  V0209991C000012200019N0064001N9+01021+00911102441ADDAA101000095GA1001+999999999GF100991999999999999999999MA1999999101591MW1111
0173999999938041954110720005+34917-081950SAO  +024899999V02099999000052200049N024000599+99999+99999999999ADDGD10995+9999999GD20995+9999999GD30995+9999999GD40995+9999999EQDN01 00000JPWTH 1QNNE11 1 00099E11 1 00099E11 1 00099E11 1 00099G11U1 99999L11 1 01500N11 1 00000W11 1 00000
0269999999149951954030119005+45800-092667SAO  +028499999V02006859005252200059N024000599+00115-00835101355ADDGD12995+9999999GD21995+9999993GD30995+9999999GD40995+9999999GF103025999999999999999999MA1999999097805EQDN01 00000JPWTH 1QNNE11 1 00299E11 1 00199E11 1 00099E11 1 00099G11U1 99999K11 1 00017L11 1 01500M11 1 28880N11 1 00000Q11 1 10135S11 1 00034V11 1 00402W11 1 32010
0377999999148531954061110005+42233-083533SAO  +0237YIP  V02006859003652200059N024000599+01725+01115101495ADDGA1999+076204004GA2999+999999999GA3999+999999999GA4999+999999999GD10005+9999999GD20005+9999999GD30005+9999999GD40005+9999999GF100005999999999999999999MA1999999098715EQDN01 00000JPWTH 1QNNE11 1 00000E11 1 00000E11 1 00000E11 1 00000G11U1 99999H11 1 32250H11 1 00999H11 1 00999H11 1 00999K11 1 00052L11 1 01500M11 1 29150N11 1 00000Q11 1 10149S11 1 00063V11 1 00000W11 1 32007
0057299250999991954021212004+52833+080950FM-12+016899999V0202901N00721220001CN0010001N9-02281-02391102111ADDAY141999GF103991001001999999001021MD1310171+9999MW1421
0057357960999991954120818004+46900+075000FM-12+042399999V0200401N00821220001CN0100001N9-01281-02001103441ADDAY101999GF101991001001999999001011MD1310061+9999MW1021
039472270023044195407172300C+31800-106400SAO  +1201ELP  V02020359007750365849N0800005N9+03225+01225101135ADDAA101000095GA1011+018294084GA2051+036584034GA3041+076204004GA4999+999999999GD12015+9999999GD23055+9999999GD33045+9999999GD40005+9999999GF106065999999999999999999MA1999999088225MW1001EQDN01 00000JPWTH 1QNNE11 1 00201E11 1 00406E11 1 00405E11 1 00000G11 1 00120H11 1 11060H11 1 23120H11 1 32250H11 1 00999K11 1 00054L11 1 05000M11 1 26050N11 1 00000Q11 1 10113S11 1 00090V11 1 00807W11 1 56015
0296999999147601954033017005+40850-076117SAO  +0591PKL  V02033859009350042749N024000599-00175-00285101155ADDGA1999+004274064GD14085+9999999GD20995+9999999GD30995+9999999GD40995+9999999GF108085999999999999999999MA1999999094015EQDN01 00000JPWTH 1QNNE11 1 00610E11 1 00099E11 1 00099E11 1 00099G11 1 00014H11 1 15014K11 1 00027L11 1 01500M11 1 27760N11 1 00000Q11 1 10115S11 1 00029V11 1 01010W11 1 18018
0057010230999991954041803004+69067+018533FM-12+007999999V0200301N001019999999N0700001N9+00001-00111101691ADDAY121999GF105991031051012501041001MD1810131+9999MW1011
0269999999038111954052510005+35600-088917SAO  +0128MKL  V02099999000050304849N019200599+01505+01395101695ADDGD12995+9999999GD23995+9999999GD30995+9999999GD40995+9999999GF105045999999999999999999MA1999999100205EQDN01 00000JPWTH 1QNNE11 1 00299E11 1 00499E11 1 00099E11 1 00099G11 1 00100K11 1 00057L11 1 01200M11 1 29590N11 1 00000Q11 1 10169S11 1 00059V11 1 00605W11 1 00000
0377999999129311954012121005+29350-098450SAO  +0182BRX  V02033859006752200059N024000599+00835-00175102435ADDGA1999+009144064GA2999+999999999GA3999+999999999GA4999+999999999GD10005+9999999GD20005+9999999GD30005+9999999GD40005+9999999GF100005999999999999999999MA1999999100245EQDN01 00000JPWTH 1QNNE11 1 00000E11 1 00000E11 1 00000E11 1 00000G11U1 99999H11 1 15030H11 1 00999H11 1 00999H11 1 00999K11 1 00029L11 1 01500M11 1 29600N11 1 00000Q11 1 10243S11 1 00047V11 1 00000W11 1 18013
0269999999240131954070806005+48250-101283SAO  +052699999V02011359001552200059N024000599+01675+01615101665ADDGD10995+9999999GD20995+9999999GD30995+9999999GD40995+9999999GF100005999999999999999999MA1999999095565EQDN01 00000JPWTH 1QNNE11 1 00099E11 1 00099E11 1 00099E11 1 00099G11U1 99999K11 1 00061L11 1 01500M11 1 28220N11 1 00000Q11 1 10166S11 1 00062V11 1 00000W11 1 34003
0171722525129201954052903003+27533-099467SAO  +0152LRD  V02011359008252200059N0240005N1+02895+02335100315ADDGF100005999999999999999999MA1999999098545MW1001EQDN01 00000JPWTH 1QNNG11U1 99999K11 1 00074L11 1 01500M11 1 29100N11 1 00000Q11 1 10031S11 1 00084V11 1 00000W11 1 34016
038899999914734195406172000E+40700-074167SAO  +0002EWR  V02015859006752200059N019200599+01895+00675102715ADDAA101000095GA1999+015244084GA2999+076204024GA3999+999999999GA4999+999999999GD12015+9999999GD23075+9999993GD30005+9999999GD40005+9999999GF107035999999999999999999MA1999999102615EQDN01 00000JPWTH 1QNNE11 1 00201E11 1 00309E11 1 00000E11 1 00000G11U1 99999H11 1 11050H11 1 37250H11 1 00999H11 1 00999K11 1 00044L11 1 01200M11 1 30300N11 1 00000Q11 1 10271S11 1 00066V11 1 00904W11 1 54013
0091040500999991954093018004+64067-020250FM-12+013099999V0200701N00671004501CN0200001N9+00391+99999999999ADDAY111061GA1999+000159999GF106991061051004501031011KA1999M+00721MW1031EQDQ01    003SCCGA1
038899999913893195402271000E+35050-089983SAO  +007999999V02018059008250054949N024000599+01675+01285099735ADDAA101000095GA1999+005494074GA2999+999999999GA3999+999999999GA4999+999999999GD13065+9999999GD20005+9999999GD30005+9999999GD40005+9999999GF106065999999999999999999MA1999999098715EQDN01 00000JPWTH 1QNNE11 1 00407E11 1 00000E11 1 00000E11 1 00000G11 1 00018H11 1 16018H11 1 00999H11 1 00999H11 1 00999K11 1 00055L11 1 01500M11 1 29150N11 1 00000Q11 1 09973S11 1 00062V11 1 00707W11 1 55016
0275999999137341954010308005+39400-077983SAO  +0164MRB  V02022559003650182949N019200599+00835-00225101195ADDGD14995+9999999GD20995+9999999GD30995+9999999GD40995+9999999GF108085999999999999999999MA1999999099225MW1615EQDN01 02000JPWTH 1QNNE11 1 00699E11 1 00099E11 1 00099E11 1 00099G11 1 00060K11 1 00028L11 1 01200M11 1 29300N11 1 02000Q11 1 10119S11 1 00047V11 1 01010W11 1 66007
0066404160999991954021909004+26283+050150SAO  +0023OEDR V0202701N002112200019N0240001N9+02071+01021102001ADDGA1021+075009029GF102991999999999999999999MA1999999101691MW1001
0077427270999991954012912004+23733+092717FM-12+109799999V0203201N00101220001CN0100001N9+01891+00061999999ADDAY101999GF100991001001999999001001KA1999M+02111MW1001REMSYN0121000GPM= 021
0090949100999991954103105003-35167+147467FM-12+0070YSWG V0201601N003119999999N0400001N9+02561+00941999999ADDAY101999GA1005+999999999GA2085+999999035GF108991001001999999071999MA1999999098921MW1001
0057762550999991954091309004+27867-110900FM-12+000499999V0209991C00001220001CN0400001N9+03061+99999100491ADDAY101999GF100991001001999999001001MD1110021+9999MW1061
0269999999147401954072623005+41933-072683SAO  +006599999V02022559001052200059N012800599+02225+01895101765ADDGD12995+9999999GD22995+9999999GD30995+9999999GD40995+9999999GF103025999999999999999999MA1999999101125EQDN01 00000JPWTH 1QNNE11 1 00299E11 1 00299E11 1 00099E11 1 00099G11U1 99999K11 1 00066L11 1 00800M11 1 29860N11 1 00000Q11 1 10176S11 1 00072V11 1 00403W11 1 66002
007772251012924195407170500D+27767-097500SAO  +0013CRP  V0201581N004112200019N0240001N1+02571+02411101701ADDAA101000095GA1021+090009009GF102991999999999999999999MA1999999101561MW1001
007682030099999195408262200N+02067-050850BRAZ +0010     V02004019999999999999N020000199+02421+02301101101ADDGA1011+006001231GA2031+030001041GF103991999999999999999999MA1101061101051
0393724660930371954112621003+38817-104700SAO  +1888COS  V02002359009352200059N1040005N9+01005-01285101225ADDGA1999+060964034GA2999+999999999GA3999+999999999GA4999+999999999GD10005+9999999GD20005+9999999GD30005+9999999GD40005+9999999GF100005999999999999999999MA1999999080805EQDQ01    003SCCGA1N01 00000JPWTH 1QNNE11 1 00000E11 1 00000E11 1 00000E11 1 00000G11U1 99999H11 1 23200H11 1 00999H11 1 00999H11 1 00999K11 1 00009L11 1 06500M11 1 23860N11 1 00000Q11 1 10122S11 1 00050V11 1 00000W11 1 12018
0066724467139301954090301004+38767-093550SAO  +0265SZL  V0201601N002112200019N0192001N9+03241+01521101371ADDGA1001+999999999GF100991999999999999999999MA1999999098241MW1001
0302722680230091954102713003+33300-104533SAO  +1111ROW  V02002359004150152449N0240005N1+00565-00225102725ADDGA1081+015244064GD14085+9999999GD20995+9999999GD30995+9999999GD40995+9999999GF108085999999999999999999MA1999999089985MW1001EQDN01 00000JPWTH 1QNNE11 1 00610E11 1 00099E11 1 00099E11 1 00099G11 1 00050H11 1 15050K11 1 00028L11 1 01500M11 1 26570N11 1 00000Q11 1 10272S11 1 00042V11 1 01010W11 1 12008
0088724836232081954123022004+38667-121400SAO  +0022MCC  V0201801N005110039019N0024001N9+00631+00461102341ADDGA1091+999999999GA2061+003909079GF108991999999999999999999MA1999999102031MW1111MW2651
0056489910999991954111900004+11550+104850FM-12+001099999V0203201N004119999999N0200001N9+02111+01781101631ADDAY101999GF106991041051017501041011KA1999N+02111MW1031
0302724810232031954030721003+37367-120567SAO  +0054MER  V02029359002650396249N0112005N9+01615+00945102135ADDGA1081+039624034GD14085+9999999GD20995+9999999GD30995+9999999GD40995+9999999GF108085999999999999999999MA1999999101425MW1001EQDN01 00000JPWTH 1QNNE11 1 00610E11 1 00099E11 1 00099E11 1 00099G11 1 00130H11 1 23130K11 1 00049L11 1 00700M11 1 29950N11 1 00000Q11 1 10213S11 1 00061V11 1 01010W11 1 78005
0066740720999991954011820004+76233-119333SAO  +0015CYMD V0203601N004112200019N0240001N1-03981+99999102521ADDGA1999+030009009GF100991999999999999999999MA1999999102301MW1001
0102264590999991954041318004+56317+028900FM-12+014099999V0201801N00721002401CN0020001N9+00001+00001101231ADDAA199004091AY101999GF108991081091002501999999KA1999M+00221MW1801EQDQ01+000042APCTENQ02+000032APC3  
0377999999433241954101612005+34150+132233SAO  +0003RJOI V02031559003652200059N012800599+01565+01065101785ADDGA1999+015244064GA2999+999999999GA3999+999999999GA4999+999999999GD12025+9999999GD20005+9999999GD30005+9999999GD40005+9999999GF102025999999999999999999MA1999999101735EQDN01 00000JPWTH 1QNNE11 1 00203E11 1 00000E11 1 00000E11 1 00000G11U1 99999H11 1 15050H11 1 00999H11 1 00999H11 1 00999K11 1 00051L11 1 00800M11 1 30040N11 1 00000Q11 1 10178S11 1 00060V11 1 00303W11 1 88007
0051170920999991954111515004+39733+039500SAO  +1215LTCD V0209991C000010780019N0320001N1+01071-00041102371ADDGA1081+078009029GF108991999999999999999999MW1001
018272207003822195402100500C+32133-081200SAO  +0014SAV  V02022559005252200059N0240005N9+01285+00565101155ADDAA101000095GF100005999999999999999999MA1999999100985MW1001EQDN01 00000JPWTH 1QNNG11U1 99999K11 1 00042L11 1 01500M11 1 29820N11 1 00000Q11 1 10115S11 1 00055V11 1 00000W11 1 66010
0377999999139041954061705005+30200-097667SAO  +0154BSM  V02013559009850073249N024000599+02725+02285101065ADDGA1999+007324064GA2999+999999999GA3999+999999999GA4999+999999999GD13065+9999999GD20005+9999999GD30005+9999999GD40005+9999999GF106065999999999999999999MA1999999099225EQDN01 00000JPWTH 1QNNE11 1 00408E11 1 00000E11 1 00000E11 1 00000G11 1 00024H11 1 15024H11 1 00999H11 1 00999H11 1 00999K11 1 00073L11 1 01500M11 1 29300N11 1 00000Q11 1 10106S11 1 00081V11 1 00808W11 1 44019
009372251012924195403161900D+27767-097500SAO  +0013CRP  V0200681N008210420019N0192001N1+01691+00911103011ADDAA101000095GA1021+012009089GA2081+042009039GF108991999999999999999999MA1999999102881MW1001
038899999993817195404181100E+38050-087533SAO  +0116EVV  V02020359006252200059N024000599+01394+00675101374ADDAA101000095GA1999+036584034GA2999+091444004GA3999+999999999GA4999+999999999GD12015+9999999GD21025+9999993GD30005+9999999GD40005+9999999GF102015999999999999999999MA1999999099974EQDN01 00000JPWTH 1QNNE11 1 00201E11 1 00102E11 1 00000E11 1 00000G11U1 99999H11 1 23120H11 1 32300H11 1 00999H11 1 00999K11 1 00044L11 1 01500M11 1 29520N11 1 00000Q11 1 10137S11 1 00057V11 1 00301W11 1 56012
0269999999137461954011620005+35967-077800SAO  +0026RMT  V02033859004652200059N016000599+01285+00725100615ADDGD10995+9999999GD20995+9999999GD30995+9999999GD40995+9999999GF100005999999999999999999MA1999999100175EQDN01 00000JPWTH 1QNNE11 1 00099E11 1 00099E11 1 00099E11 1 00099G11U1 99999K11 1 00045L11 1 01000M11 1 29580N11 1 00000Q11 1 10061S11 1 00055V11 1 00000W11 1 18009
028099999923063195410180500E+39650-106917SAO  +1980EGE  V02099999000052200059N024000599+00115-00285103015ADDAA101000095GD10995+9999999GD20995+9999999GD30995+9999999GD40995+9999999GF100005999999999999999999MA1999999080875EQDN01 00000JPWTH 1QNNE11 1 00099E11 1 00099E11 1 00099E11 1 00099G11U1 99999K11 1 00027L11 1 01500M11 1 23880N11 1 00000Q11 1 10301S11 1 00034V11 1 00000W11 1 00000
0377999999129461954060923005+27683-097450SAO  +0014NGW  V02013559012452200059N016000599+03065+02285101315ADDGA1999+004574084GA2999+999999999GA3999+999999999GA4999+999999999GD12045+9999999GD20005+9999999GD30005+9999999GD40005+9999999GF104045999999999999999999MA1999999101155EQDN01 00000JPWTH 1QNNE11 1 00205E11 1 00000E11 1 00000E11 1 00000G11U1 99999H11 1 11015H11 1 00999H11 1 00999H11 1 00999K11 1 00073L11 1 01000M11 1 29870N11 1 00000Q11 1 10131S11 1 00087V11 1 00505W11 1 44024
0377999999433241954102104005+34150+132233SAO  +0003RJOI V02013559004152200059N012800599+02115+01285101415ADDGA1999+013724084GA2999+999999999GA3999+999999999GA4999+999999999GD12025+9999999GD20005+9999999GD30005+9999999GD40005+9999999GF102025999999999999999999MA1999999101355EQDN01 00000JPWTH 1QNNE11 1 00203E11 1 00000E11 1 00000E11 1 00000G11U1 99999H11 1 11045H11 1 00999H11 1 00999H11 1 00999K11 1 00055L11 1 00800M11 1 29930N11 1 00000Q11 1 10141S11 1 00070V11 1 00303W11 1 44008
0187724565139201954020719003+38950-095667SAO  +0325FOE  V02099999000052200059N0160005N9+00445-00675103055ADDGA1001+999999999GF100005999999999999999999MA1999999098985MW1001EQDN01 00000JPWTH 1QNNG11U1 99999K11 1 00020L11 1 01000M11 1 29230N11 1 00000Q11 1 10305S11 1 00040V11 1 00000W11 1 00000
0067415900999991954082003004+32300+072350FM-12+018899999V0200701N00361220001CN0100001N9+03221+02331099851ADDAA124000091AY121999GF100991001001999999001001KA1999N+02941MW1001
0269999999240361954071606005+47050-109450SAO  +1259LWT  V02015859001550274349N080000599+01725+01175101465ADDGD13995+9999999GD20995+9999999GD30995+9999999GD40995+9999999GF105055999999999999999999MA1999999087505EQDN01 00000JPWTH 1QNNE11 1 00499E11 1 00099E11 1 00099E11 1 00099G11 1 00090K11 1 00053L11 1 05000M11 1 25840N11 1 00000Q11 1 10146S11 1 00063V11 1 00606W11 1 54003
0269999999241191954041623005+40650-116933SAO  +137699999V02020359003652200059N072000599+02565-00565102475ADDGD10995+9999999GD20995+9999999GD30995+9999999GD40995+9999999GF100005999999999999999999MA1999999087005EQDN01 00000JPWTH 1QNNE11 1 00099E11 1 00099E11 1 00099E11 1 00099G11U1 99999K11 1 00022L11 1 04500M11 1 25690N11 1 00000Q11 1 10247S11 1 00078V11 1 00000W11 1 56007
0051478920999991954061318004+33233+132550FM-12+004399999V0202901N003119999999N9999999N9+01781+99999100041ADDAA106026091AY101999MA1999999099531MD1610211+9999
029299999913729195403040800E+38883-079850SAO  +060299999V02029359007250045749N004800599-00945-01445101835ADDAA101000095GD14995+9999999GD20995+9999999GD30995+9999999GD40995+9999999GF108085999999999999999999MA1999999094345MW1385MW2855EQDN01 05084JPWTH 1QNNE11 1 00699E11 1 00099E11 1 00099E11 1 00099G11 1 00015K11 1 00006L11 1 00300M11 1 27860N11 1 05084Q11 1 10183S11 1 00015V11 1 01010W11 1 78014
0066722866231221954091120004+34100-117250SAO  +0352SBD  V0202501N001512200019N0064001N9+03131+02351100981ADDGA1091+999999999GF109991999999999999999999MA1999999096921MW1051
009672351013966195409111300D+33983-098517SAO  +0310SPS  V0200501N002112200019N0240001N9+01801+00741101901ADDAA101000095GA1999+036009999GF100991999999999999999999MA1999999098271MW1001EQDQ01    003SCCGA1
0377999999241281954033102005+40900-117800SAO  +1311WMC  V02033859001552200059N064000599+00445-00945101935ADDGA1999+016764084GA2999+999999999GA3999+999999999GA4999+999999999GD10005+9999999GD20005+9999999GD30005+9999999GD40005+9999999GF100005999999999999999999MA1999999086835EQDN01 00000JPWTH 1QNNE11 1 00000E11 1 00000E11 1 00000E11 1 00000G11U1 99999H11 1 11055H11 1 00999H11 1 00999H11 1 00999K11 1 00015L11 1 04000M11 1 25640N11 1 00000Q11 1 10193S11 1 00040V11 1 00000W11 1 18003
0102118160999991954073106004+48200+017200FM-12+013899999V0203201N00721036001CN0400001N9+01501+01111101001ADDAA199000691AY121999GF107991011051012501071071KA1999N+01391MW1011EQDQ01+000042APCTENQ02+000082APC3  
0377999999232391954070715005+37783-122317SAO  +000999999V02027059001052200059N016000599+01725+01285101785ADDGA1999+003664084GA2999+999999999GA3999+999999999GA4999+999999999GD12025+9999999GD20005+9999999GD30005+9999999GD40005+9999999GF102025999999999999999999MA1999999101695EQDN01 00000JPWTH 1QNNE11 1 00202E11 1 00000E11 1 00000E11 1 00000G11U1 99999H11 1 11012H11 1 00999H11 1 00999H11 1 00999K11 1 00055L11 1 01000M11 1 30030N11 1 00000Q11 1 10178S11 1 00063V11 1 00202W11 1 77002
0066702350999991954081819004+61100-155583SAO  +0487PASV V0201801N005110042019N0400001N9+01351+01191101281ADDGA1081+004209059GF108991999999999999999999MA1999999095461MW1001
0066471200999991954123015004+37250+127000SAO  +0024RKSW V0209991C000010300019N0128001N9-00531-01261103561ADDGA1081+030009039GF108991999999999999999999MA1999999103181MW1001
0057285520999991954012600004+56083+063633FM-12+008199999V0209991C00001220001CN0020001N9-03391-03501103311ADDAY101999GF100991001001999999001001MD1810231+9999MW1021
0296999999137731954042906005+38500-077300SAO  +0004NYG  V02006859004150036649N011200599+01175+01005101625ADDGA1999+003664074GD14085+9999999GD20995+9999999GD30995+9999999GD40995+9999999GF108085999999999999999999MA1999999101595EQDN01 00000JPWTH 1QNNE11 1 00610E11 1 00099E11 1 00099E11 1 00099G11 1 00012H11 1 16012K11 1 00050L11 1 00700M11 1 30000N11 1 00000Q11 1 10162S11 1 00053V11 1 01010W11 1 32008
0351999999432141954081600005+36450+127433SAO  +0040RKTD V02013559006250762049N011200599+02895+02725100205ADDGA1999+036584034GA2999+076204004GA3999+999999999GA4999+999999999GD12035+9999999GD23055+9999999GD30005+9999999GD40005+9999999GF107075999999999999999999EQDN01 00000JPWTH 1QNNE11 1 00204E11 1 00406E11 1 00000E11 1 00000G11 1 00250H11 1 23120H11 1 32250H11 1 00999H11 1 00999K11 1 00081L11 1 00700N11 1 00000Q11 1 10020S11 1 00084V11 1 00909W11 1 44012
0098485680999991954123111004+07200+100600SAO  +0005VTSH V0203601N003112200019N0160001N1+02741+02411101161ADDGA1011+006009089GA2011+036009039GA3021+105009009GF102991999999999999999999MA1999999101021MW1001
007772251012924195402061900D+27767-097500SAO  +0013CRP  V0200901N004612200019N0240001N1+02571+00911101851ADDAA101000095GA1999+075009999GF100991999999999999999999MA1999999101691MW1001
0383725510149391954091107003+40850-096750SAO  +0357LNK  V02013559001550274349N0160005N1+01565+01335101975ADDGA1061+027434034GA2999+999999999GA3999+999999999GA4999+999999999GD13065+9999999GD20005+9999999GD30005+9999999GD40005+9999999GF106065999999999999999999MA1999999097705MW1001EQDN01 00000JPWTH 1QNNE11 1 00407E11 1 00000E11 1 00000E11 1 00000G11 1 00090H11 1 23090H11 1 00999H11 1 00999H11 1 00999K11 1 00056L11 1 01000M11 1 28850N11 1 00000Q11 1 10197S11 1 00060V11 1 00707W11 1 44003
0173999999947321954012908005+40083-075017SAO  +0030PNE  V02033859003652200049N024000599+99999+99999999999ADDGD10995+9999999GD20995+9999999GD30995+9999999GD40995+9999999EQDN01 00000JPWTH 1QNNE11 1 00099E11 1 00099E11 1 00099E11 1 00099G11U1 99999L11 1 01500N11 1 00000W11 1 18007
0066749149999991954092411004+77000-056083SAO  +000099999V0201801N003610090019N0160001N1-01981-02481999999ADDGA1081+009009079GF108991999999999999999999MA1999999094281MW1761
019872569024089195407040600C+42917-106467SAO  +1622CPR  V02024859002152200059N0960005N1+02065+00005101125ADDAA101000095GA1001+999999999GF100005999999999999999999MA1999999083985MW1001EQDN01 00000JPWTH 1QNNG11U1 99999K11 1 00032L11 1 06000M11 1 24800N11 1 00000Q11 1 10112S11 1 00069V11 1 00000W11 1 76004
0082716330999991954053116004+44750-081100SAO  +0219CYVV V0201801N002610210019N0240001N1+02131+01241101611ADDGA1051+021009039GA2031+036009049GF108991999999999999999999MA1999999098981MW1001
0050722225038551954050614004+30350-087317SAO  +0009NPA  V0200451N003612200019N0192001N1+01911+00521101531ADDGF100991999999999999999999MA1999999101421MW1001
0165999999128411954040405005+28550-081333SAO  +003799999V02036059001052200059N011200599+01895+01835102205ADDGF100005999999999999999999MA1999999101765EQDN01 00000JPWTH 1QNNG11U1 99999K11 1 00065L11 1 00700M11 1 30050N11 1 00000Q11 1 10220S11 1 00066V11 1 00000W11 1 11002
033472488023185195403161600B+39500-119783SAO  +134099999V02015859005250487749N056000599+00565-00675100045ADDAA101000095GA1999+024384064GA2999+048774044GD12025+9999999GD24085+9999999GD30995+9999999GD40995+9999999GF108085999999999999999999MA1999999085175EQDN01 00000JPWTH 1QNNE11 1 00203E11 1 00610E11 1 00099E11 1 00099G11 1 00160H11 1 15080H11 1 21160K11 1 00020L11 1 03500M11 1 25150N11 1 00000Q11 1 10004S11 1 00042V11 1 01010W11 1 54010
0074945100999991954091811003-26417+146267FM-12+0299YBCV V0209999C000019999999N0600001N9+01891+01281999999ADDAY101999GA1015+021005065GF101991011041022501999999MA1999999098161MW1001
0269999999937191954042014005+35083-077033SAO  +000699999V02015859004652200059N012800599+02394+01675103054ADDGD12995+9999999GD20995+9999999GD30995+9999999GD40995+9999999GF102025999999999999999999MA1999999102984EQDN01 00000JPWTH 1QNNE11 1 00299E11 1 00099E11 1 00099E11 1 00099G11U1 99999K11 1 00062L11 1 00800M11 1 30410N11 1 00000Q11 1 10305S11 1 00075V11 1 00202W11 1 54009
028672365623049195406081000C+35617-106083SAO  +1926SAF  V02006859004152200059N0640005N1+00835-01005100955ADDAA101000095GD10995+9999999GD20995+9999999GD30995+9999999GD40995+9999999GF100005999999999999999999MA1999999080605MW1001EQDN01 00000JPWTH 1QNNE11 1 00099E11 1 00099E11 1 00099E11 1 00099G11U1 99999K11 1 00014L11 1 04000M11 1 23800N11 1 00000Q11 1 10095S11 1 00047V11 1 00000W11 1 32008
0058940140999991954110820004-05217+145783FM-12+000699999V0209991C000019999999N0400001N9+02281+02221999999ADDAY101999GF108991001001999999071081MA1999999100791MW1001
0132478050999991954090506004+33367+129550FM-12+005899999V0200501N003119999999N0200001N9+02671+02391100611ADDAJ100009199999999AY101999GA1999+999999059GF106991061021999999001001IA1009MA1999999099971MW1021EQDQ01+000032APCTENQ02+000002APC3  
0075477720999991954081717004+34650+135533FM-12+000899999V0209991C00051024001CN0040001N9+02721+02281099791ADDAY101999GA1999+014709089GA2031+999999099GF108991081001999999021999MW1021
0070307510999991954032612004+52733+113300FM-12+999999999V0202901N00721220001CN0100001N9-00721-01501101911ADDAY121999GF105991001001999999041011KA1999M-00221MD1310121+9999MW1011
0377999999147881954041311005+41583-071417SAO  +000999999V02024859003652200059N024000599+00565-00285102265ADDGA1999+076204004GA2999+999999999GA3999+999999999GA4999+999999999GD13055+9999993GD20005+9999999GD30005+9999999GD40005+9999999GF105025999999999999999999MA1999999102175EQDN01 00000JPWTH 1QNNE11 1 00306E11 1 00000E11 1 00000E11 1 00000G11U1 99999H11 1 32250H11 1 00999H11 1 00999H11 1 00999K11 1 00027L11 1 01500M11 1 30170N11 1 00000Q11 1 10226S11 1 00042V11 1 00603W11 1 76007
0165474230999991954082506004+42317+140983FM-12+004299999V0201101N00511024001CN0400001N9+01831+01441102151ADDAJ100009199999999AY101999GA1999+011709059GA2031+002709059GF106991061011999999031021HL10009IA1009IA2999+02679MA1999999101631MD1810131+9999MW1021EQDQ01+000992SCOLCB
038872469023062195409011800B+39767-104883SAO  +161599999V02036059005252200059N080000599+02615+00835101835ADDAA101000095GA1999+024384084GA2999+045724034GA3999+999999999GA4999+999999999GD10005+9999999GD20005+9999999GD30005+9999999GD40005+9999999GF100005999999999999999999MA1999999084425EQDN01 00000JPWTH 1QNNE11 1 00000E11 1 00000E11 1 00000E11 1 00000G11U1 99999H11 1 11080H11 1 23150H11 1 00999H11 1 00999K11 1 00047L11 1 05000M11 1 24930N11 1 00000Q11 1 10183S11 1 00079V11 1 00000W11 1 11010
0341999999148551954011523005+42083-087833SAO  +0197NBU  V02006859001550003049N000100599-00175-00175101195ADDGA1999+000304104GD15085+9999999GD20995+9999999GD30995+9999999GD40995+9999999GF108085999999999999999999MA1999999098755MW1045MW2455MW3515EQDN01 03370JPWTH 1N02 08000JPWTH 1QNNE11 1 00710E11 1 00099E11 1 00099E11 1 00099G11 1 00001H11 1 45001K11 1 00029L11 1 00006M11 1 29160N11 1 03370N11 1 08000Q11 1 10119S11 1 00029V11 1 01010W11 1 32003
0275999999939871954073014005+31233-094750SAO  +0089LFK  V02018059005250021349N004800599+02284+02175101394ADDGD13995+9999999GD24995+9999999GD30995+9999999GD40995+9999999GF108085999999999999999999MA1999999100274MW1615EQDN01 02000JPWTH 1QNNE11 1 00499E11 1 00699E11 1 00099E11 1 00099G11 1 00007K11 1 00071L11 1 00300M11 1 29610N11 1 02000Q11 1 10139S11 1 00073V11 1 01010W11 1 55010
0070318010999991954082412004+47667+136183FM-12+018099999V0209991C00001220001CN0100001N9+01391+01391101561ADDAY111999GF100991001001999999001001KA1999M+02781MD1310091+9999MW1021
028099999914929195410092300E+45450-098433SAO  +040099999V02004559004150182949N024000599+01835+01115101195ADDAA101000095GD13995+9999999GD23995+9999999GD34995+9999999GD40995+9999999GF108085999999999999999999MA1999999096515EQDN01 00000JPWTH 1QNNE11 1 00499E11 1 00499E11 1 00699E11 1 00099G11 1 00060K11 1 00052L11 1 01500M11 1 28500N11 1 00000Q11 1 10119S11 1 00065V11 1 01010W11 1 22008
031399999913741195405140100E+37317-079967SAO  +0350ROA  V02006859006250112849N012800599+01285+00565101665ADDAA101000095GA1999+011284064GD14085+9999999GD20995+9999999GD30995+9999999GD40995+9999999GF108085999999999999999999MA1999999097435MW1615EQDN01 02000JPWTH 1QNNE11 1 00610E11 1 00099E11 1 00099E11 1 00099G11 1 00037H11 1 15037K11 1 00042L11 1 00800M11 1 28770N11 1 02000Q11 1 10166S11 1 00055V11 1 01010W11 1 32012
0269999999116241954060404005+17700-064800SAO  +001799999V02006859003152200059N024000599+02505+02175101595ADDGD12995+9999999GD20995+9999999GD30995+9999999GD40995+9999999GF101015999999999999999999MA1999999101395EQDN01 00000JPWTH 1QNNE11 1 00299E11 1 00099E11 1 00099E11 1 00099G11U1 99999K11 1 00071L11 1 01500M11 1 29940N11 1 00000Q11 1 10159S11 1 00077V11 1 00101W11 1 32006
0269999999939861954112120005+35000-099050SAO  +0474HBR  V02033859012950426749N024000599+01724+00065101564ADDGD13995+9999999GD24995+9999999GD30995+9999999GD40995+9999999GF108075999999999999999999MA1999999095974EQDN01 00000JPWTH 1QNNE11 1 00499E11 1 00699E11 1 00099E11 1 00099G11 1 00140K11 1 00033L11 1 01500M11 1 28340N11 1 00000Q11 1 10156S11 1 00063V11 1 01009W11 1 18025
0073477400999991954041315004+36200+133333FM-12+002899999V0203401N00461004501CN0130001N9+00831+00611101141ADDAY101999GA1061+999999099GF108991081071004501999999MD1310131+9999MW1611
0269999999038091954101307005+36017-089400SAO  +0103DYR  V02099999000050762049N012800599+01945+01835101255ADDGD14995+9999999GD20995+9999999GD30995+9999999GD40995+9999999GF108075999999999999999999MA1999999100035EQDN01 00000JPWTH 1QNNE11 1 00699E11 1 00099E11 1 00099E11 1 00099G11 1 00250K11 1 00065L11 1 00800M11 1 29540N11 1 00000Q11 1 10125S11 1 00067V11 1 01009W11 1 00000
0127075100999991954110118004+44833-000700FM-12+004899999V0201401N002119999999N0200001N9+01331+01061101271ADDAY101999GA1011+999999019GF102991001001999999001021IA1009KA1999M+01671MD1210101+9999MW1021EQDQ01+000042APCTENQ02+000102APC3  
0050722696999991954122709004+32850-106100SAO  +1251HMN  V0201581N002112200019N0480001N1+00461-00701101021ADDGF100991999999999999999999MA1999999087131MW1001
0078317040999991954122006004+48350+130800FM-12+009199999V0203201N00311220001CN0100001N9-01891+99999101821ADDAY121999GF104991001001999999001051MW1021EQDQ01+000042APCTENQ02+000012APC3  
0128999999129251954080402005+28367-097667SAO  +006299999V02015859007252200059N024000599+02945+02335999999ADDGF100005999999999999999999EQDN01 00000JPWTH 1QNNG11U1 99999K11 1 00074L11 1 01500N11 1 00000S11 1 00085V11 1 00000W11 1 54014
0057222350999991954040800004+67367+037033FM-12+016099999V0203601N00101007801CN0200001N9-00611-00721102311ADDAY181999GF107991071091008001999999MD1210081+9999MW1261
0388723520139021954022112003+34650-099267SAO  +0414LTS  V02004559002652200059N0112005N9+00445-00335101755ADDAA124999999GA1011+036584044GA2999+999999999GA3999+999999999GA4999+999999999GD12015+9999999GD20005+9999999GD30005+9999999GD40005+9999999GF101015999999999999999999MA1999999096855EQDN01 00000JPWTH 1QNNE11 1 00201E11 1 00000E11 1 00000E11 1 00000G11U1 99999H11 1 21120H11 1 00999H11 1 00999H11 1 00999K11 1 00026L11 1 00700M11 1 28600N11 1 00000Q11 1 10175S11 1 00040V11 1 00101W11 1 22005
0165999999176051954040204005+76517-068833SAO  +0077BGTL V02099999000052200059N024000599-02785-03225099495ADDGF100005999999999999999999MA1999999098415EQDN01 00000JPWTH 1QNNG11U1 99999K11 1-00026L11 1 01500M11 1 29060N11 1 00000Q11 1 09949S11 1-00018V11 1 00000W11 1 00000
034072617014742195406061400C+44467-073150SAO  +0106BTV  V02020359003650091449N0240005N9+01175+00835100675ADDAA101000095GA1061+009144064GA2021+015244064GD13065+9999999GD24025+9999999GD30995+9999999GD40995+9999999GF108085999999999999999999MA1999999099425MW1805EQDN01 02300JPWTH 1QNNE11 1 00408E11 1 00602E11 1 00099E11 1 00099G11 1 00030H11 1 15030H11 1 15050K11 1 00047L11 1 01500M11 1 29360N11 1 02300Q11 1 10067S11 1 00053V11 1 01010W11 1 56007
0383999999137691954120216005+36817-076033SAO  +000799999V02036059006250061049N006400599+00445+00065101705ADDGA1999+006104064GA2999+009144064GA3999+999999999GA4999+999999999GD13065+9999999GD24025+9999999GD30005+9999999GD40005+9999999GF108075999999999999999999MA1999999101635MW1055EQDN01 08100JPWTH 1QNNE11 1 00407E11 1 00603E11 1 00000E11 1 00000G11 1 00020H11 1 15020H11 1 15030H11 1 00999H11 1 00999K11 1 00033L11 1 00400M11 1 30010N11 1 08100Q11 1 10170S11 1 00040V11 1 01009W11 1 11012
0383780160136011954032516003+32367-064683SAO  +0006TXKF V02006859006750106749N0240005N9+02005+01395102475ADDGA1071+010674064GA2999+999999999GA3999+999999999GA4999+999999999GD13075+9999999GD20005+9999999GD30005+9999999GD40005+9999999GF107075999999999999999999MA1999999102405MW1001EQDN01 00000JPWTH 1QNNE11 1 00409E11 1 00000E11 1 00000E11 1 00000G11 1 00035H11 1 15035H11 1 00999H11 1 00999H11 1 00999K11 1 00057L11 1 01500M11 1 30240N11 1 00000Q11 1 10247S11 1 00068V11 1 00909W11 1 32013
0066476710999991954083109004+35550+139783SAO  +0008RJTT V0203601N005110030019N0160001N1+02181+02021101421ADDGA1081+003009059GF108991999999999999999999MA1999999101351MW1001
0377999999433221954030307005+34150+132233SAO  +0003RIWA V02013559002650640149N024000599+01175+00615101695ADDGA1999+064014024GA2999+999999999GA3999+999999999GA4999+999999999GD13075+9999999GD20005+9999999GD30005+9999999GD40005+9999999GF107075999999999999999999MA1999999101635EQDN01 00000JPWTH 1QNNE11 1 00409E11 1 00000E11 1 00000E11 1 00000G11 1 00210H11 1 37210H11 1 00999H11 1 00999H11 1 00999K11 1 00043L11 1 01500M11 1 30010N11 1 00000Q11 1 10169S11 1 00053V11 1 00909W11 1 44005
0057303090999991954051012004+56067+101833FM-12+032699999V0200401N00311220001CN0500001N9+00781-00281099591ADDAY121999GF108991001001999999031071MD1810041+9999MW1021
017699999993822195401232300E+39833-089667SAO  +0179SPI  V02015859007752200059N011200599+00284-00505101864ADDAA101000095GF100005999999999999999999MA1999999099564EQDN01 00000JPWTH 1QNNG11U1 99999K11 1 00023L11 1 00700M11 1 29400N11 1 00000Q11 1 10186S11 1 00037V11 1 00000W11 1 54015
0057388860999991954042612004+37383+060517FM-12+018899999V0201401N01181220001CN0040001N9+03221+00781100681ADDAY131999GF107991001001999999001031MD1810161+9999MW1301
0066703050999991954102722004+58667-162167SAO  +0148PAEH V0201101N008210015019N0240001N9+00301+00131100561ADDGA1081+001509079GF108991999999999999999999MA1999999098711MW1001
028099999923070195409100400E+37250-104333SAO  +1749TAD  V02015859003152200059N064000599+01835+00945101835ADDAA101000095GD12995+9999999GD20995+9999999GD30995+9999999GD40995+9999999GF101015999999999999999999MA1999999083105EQDN01 00000JPWTH 1QNNE11 1 00299E11 1 00099E11 1 00099E11 1 00099G11U1 99999K11 1 00049L11 1 04000M11 1 24540N11 1 00000Q11 1 10183S11 1 00065V11 1 00101W11 1 54006
039472208013880195411022100C+32900-080033SAO  +0012CHS  V02027059006750115849N0192005N1+01565+00505101565ADDAA101000095GA1051+011584084GA2061+015244064GA3999+999999999GA4999+999999999GD13055+9999999GD23065+9999999GD30005+9999999GD40005+9999999GF106065999999999999999999MA1101561101395MW1805EQDN01 02300JPWTH 1QNNE11 1 00406E11 1 00408E11 1 00000E11 1 00000G11 1 00038H11 1 11038H11 1 15050H11 1 00999H11 1 00999K11 1 00041L11 1 01200M11 1 29940N11 1 02300Q11 1 10156S11 1 00060V11 1 00808W11 1 77013
0269999999253291954052722005+56817-132950SAO  +003499999V02013559003150091449N032000599+01175+00395102205ADDGD12995+9999999GD23995+9999999GD33995+9999999GD40995+9999999GF107075999999999999999999MA1999999101795EQDN01 00000JPWTH 1QNNE11 1 00299E11 1 00499E11 1 00499E11 1 00099G11 1 00030K11 1 00039L11 1 02000M11 1 30060N11 1 00000Q11 1 10220S11 1 00053V11 1 00909W11 1 44006
038899999993822195406190100E+39833-089667SAO  +0179SPI  V02015859004652200059N024000599+03114+02115101734ADDAA101000095GA1999+091444004GA2999+999999999GA3999+999999999GA4999+999999999GD12045+9999999GD20005+9999999GD30005+9999999GD40005+9999999GF104025999999999999999999MA1999999099564EQDN01 00000JPWTH 1QNNE11 1 00205E11 1 00000E11 1 00000E11 1 00000G11U1 99999H11 1 32300H11 1 00999H11 1 00999H11 1 00999K11 1 00070L11 1 01500M11 1 29400N11 1 00000Q11 1 10173S11 1 00088V11 1 00503W11 1 54009
0383722550129121954032609005+28850-096917SAO  +003299999V02004559003152200059N008000599+01225+01065101655ADDGA1999+999999104GA2999+999999999GA3999+999999999GA4999+999999999GD16025+9999999GD20005+9999999GD30005+9999999GD40005+9999999GF102025999999999999999999MA1999999101255MW1075EQDN01 08300JPWTH 1QNNE11 1 00802E11 1 00000E11 1 00000E11 1 00000G11U1 99999H11 1 98999H11 1 00999H11 1 00999H11 1 00999K11 1 00051L11 1 00500M11 1 29900N11 1 08300Q11 1 10165S11 1 00054V11 1 00202W11 1 22006
038872511114751195403210100C+40217-076850SAO  +0106CXY  V02027059007750131149N0240005N9+00445-00285100515ADDAA101000095GA1051+013114064GA2999+999999999GA3999+999999999GA4999+999999999GD13055+9999999GD20005+9999999GD30005+9999999GD40005+9999999GF105055999999999999999999MA1999999099225EQDN01 00000JPWTH 1QNNE11 1 00406E11 1 00000E11 1 00000E11 1 00000G11 1 00043H11 1 15043H11 1 00999H11 1 00999H11 1 00999K11 1 00027L11 1 01500M11 1 29300N11 1 00000Q11 1 10051S11 1 00040V11 1 00606W11 1 77015
017699999914918195409250600E+48567-093383SAO  +0359INL  V02027059003152200059N024000599+00675+00505101415ADDAA101000095GF100005999999999999999999MA1999999097095EQDN01 00000JPWTH 1QNNG11U1 99999K11 1 00041L11 1 01500M11 1 28670N11 1 00000Q11 1 10141S11 1 00044V11 1 00000W11 1 77006
0269724506139861954121014002+38067-097867SAO  +0472HUT  V02018059005250457249N024000599+00065-00835102005ADDGD13995+9999999GD24995+9999999GD30995+9999999GD40995+9999999GF108065999999999999999999MA1999999096385EQDN01 00000JPWTH 1QNNE11 1 00499E11 1 00699E11 1 00099E11 1 00099G11 1 00150K11 1 00017L11 1 01500M11 1 28460N11 1 00000Q11 1 10200S11 1 00033V11 1 01007W11 1 55010
0111478900999991954120906004+34267+133750FM-12+000599999V0202501N007719999999N0160001N9+01561+01001101991ADDAJ100009199999999AY101999GA1999+999999079GF107991071001999999031001IA1009MA1999999101931MD1810081+9999MW1021
0383727755241121954121209003+47517-111167SAO  +1056GFA  V02022559013950548649N0960005N9+00285-01005102155ADDGA1011+036584034GA2061+054864034GA3999+999999999GA4999+999999999GD12015+9999999GD23065+9999999GD30005+9999999GD40005+9999999GF106045999999999999999999MA1999999089715MW1001EQDN01 00000JPWTH 1QNNE11 1 00201E11 1 00407E11 1 00000E11 1 00000G11 1 00180H11 1 23120H11 1 23180H11 1 00999H11 1 00999K11 1 00014L11 1 06000M11 1 26490N11 1 00000Q11 1 10215S11 1 00037V11 1 00705W11 1 66027
0377999999150271954050615005+53383-002650SAO  +002799999V02029359008250274349N032000599+00835+00615101425ADDGA1999+004574094GA2999+027434034GA3999+999999999GA4999+999999999GD12045+9999999GD23015+9999999GD30005+9999999GD40005+9999999GF105055999999999999999999MA1999999101085EQDN01 00000JPWTH 1QNNE11 1 00205E11 1 00401E11 1 00000E11 1 00000G11 1 00090H11 1 18015H11 1 23090H11 1 00999H11 1 00999K11 1 00043L11 1 02000M11 1 29850N11 1 00000Q11 1 10142S11 1 00047V11 1 00606W11 1 78016
0114171150999991954102607004+40317+027967SAO  +0049LTBG V0201581N003110270019N0144001N1+01801+99999101061ADDGA1021+004809079GA2011+009909059GA3021+027009039GA4011+069009009GF107991999999999999999999MA1999999100471MW1001
038899999923061195405261600E+37433-105850SAO  +229899999V02024859005252200059N080000599+01505+00115100645ADDAA101000095GA1999+015244084GA2999+999999999GA3999+999999999GA4999+999999999GD12015+9999999GD20005+9999999GD30005+9999999GD40005+9999999GF101015999999999999999999MA1999999076635EQDN01 00000JPWTH 1QNNE11 1 00201E11 1 00000E11 1 00000E11 1 00000G11U1 99999H11 1 11050H11 1 00999H11 1 00999H11 1 00999K11 1 00034L11 1 05000M11 1 22630N11 1 00000Q11 1 10064S11 1 00059V11 1 00101W11 1 76010
0076345790999991954082112004+48217+046733FM-12+003599999V0202001N00511220001CN0200001N9+02501+01721101011ADDAY161999GF107991999001999999071001MD1810151+9999MW1011EQDQ01+000002SCOTLC
0082718670999991954061918004+53967-101100SAO  +0271CYQD V0203601N003612200019N0240001N1+01691+00851101381ADDGA1011+018009099GA2011+075009009GF102991999999999999999999MA1999999098141MW1001
0067428400999991954071203004+21200+072833FM-12+001299999V0202301N00211004201CN0100001N9+02501+02501100281ADDAA124055091AY161999GF108991081071004501999999KA1999N+02391MW1631
0057125000999991954061000004+50900+015800FM-12+034499999V0201401N00311220001CN0100001N9+01721+01281100681ADDAY101999GF101991001001999999001021MD1990071+9999MW1021
0066036440999991954012420004+51683-001767SAO  +0087EGVA V0200901N005112200019N0128001N9-00111-00281102201ADDGA1011+081009009GF102991999999999999999999MA1999999101021MW1001
0066471220999991954040804004+37100-127033SAO  +0015RKSO V0202901N002110081019N0240001N9+01551+00781101981ADDGA1051+008109059GF107991999999999999999999MA1999999101761MW1001
0082701620265081954073101004+69367-152133SAO  +0085UMT  V0209991C000012200019N0320001N1+02021+00461100411ADDGA1011+012009089GA2061+060009029GF107991999999999999999999MA1999999099121MW1001
0076296390999991954093012004+54833+084700FM-12+999999999V0203201N00211220001CN0500001N9+00501-01111103701ADDAY121999GF105991999001999999031001MD1810081+9999MW1021EQDQ01+000002SCOTLC
0377999999931111954043009005+34117-119117SAO  +000999999V02036059001052200059N012800599+01224+01005101094ADDGA1999+003354134GA2999+999999999GA3999+999999999GA4999+999999999GD13065+9999993GD20005+9999999GD30005+9999999GD40005+9999999GF106025999999999999999999MA1999999100984EQDN01 00000JPWTH 1QNNE11 1 00308E11 1 00000E11 1 00000E11 1 00000G11U1 99999H11 1 13011H11 1 00999H11 1 00999H11 1 00999K11 1 00050L11 1 00800M11 1 29820N11 1 00000Q11 1 10109S11 1 00054V11 1 00803W11 1 11002
0269999999930351954022311005+30250-103883SAO  +1481MRF  V02004559018552200059N024000599+00614-01395101834ADDGD11995+9999993GD20995+9999999GD30995+9999999GD40995+9999999GF102015999999999999999999MA1999999085544EQDN01 00000JPWTH 1QNNE11 1 00199E11 1 00099E11 1 00099E11 1 00099G11U1 99999K11 1 00007L11 1 01500M11 1 25260N11 1 00000Q11 1 10183S11 1 00043V11 1 00301W11 1 22036
0269999999147401954010300005+41933-072683SAO  +006599999V02015859001052200059N024000599-00115-00615102205ADDGD12995+9999999GD20995+9999999GD30995+9999999GD40995+9999999GF102025999999999999999999MA1999999101525EQDN01 00000JPWTH 1QNNE11 1 00299E11 1 00099E11 1 00099E11 1 00099G11U1 99999K11 1 00021L11 1 01500M11 1 29980N11 1 00000Q11 1 10220S11 1 00030V11 1 00202W11 1 54002
0066471060999991954110307004+37733+127033SAO  +0053RKSB V0209991C000012200019N0112001N9+01521+00691102131ADDGA1011+012009089GF102991999999999999999999MA1999999101491MW1001
0130479090999991954082906004+28383+129500FM-12+000499999V0201401N00361011701CN0200001N9+03061+02281101361ADDAJ100009199999999AY101999GA1061+011709019GF107991061021008001041011HL10009IA1009IA2999+99999MA1999999101321MD1810081+9999MW1021
039472306013722195408072200C+35867-078783SAO  +0132RDU  V02018059002652200059N0240005N1+02835+01565101395ADDAA101000095GA1999+013724084GA2999+999999999GA3999+999999999GA4999+999999999GD10005+9999999GD20005+9999999GD30005+9999999GD40005+9999999GF100005999999999999999999MA1999999099805MW1001EQDN01 00000JPWTH 1QNNE11 1 00000E11 1 00000E11 1 00000E11 1 00000G11U1 99999H11 1 11045H11 1 00999H11 1 00999H11 1 00999K11 1 00060L11 1 01500M11 1 29470N11 1 00000Q11 1 10139S11 1 00083V11 1 00000W11 1 55005
0159476410999991954070412004+35983+139083FM-12+022099999V0202301N002119999999N0028001N9+02111+02001101081ADDAA106000691AA224001091AJ100009199999999AY101999GA1999+999999049GF108991051071999999021999IA1089KA1999M+02441KA2999N+01891MA1999999098581MD1310071+9999MW1611
0377999999938361954061905005+31250-081467SAO  +001599999V02004559003150137249N019200599+02444+01895101704ADDGA1999+013724064GA2999+999999999GA3999+999999999GA4999+999999999GD13065+9999999GD20005+9999999GD30005+9999999GD40005+9999999GF106065999999999999999999MA1999999101524EQDN01 00000JPWTH 1QNNE11 1 00408E11 1 00000E11 1 00000E11 1 00000G11 1 00045H11 1 15045H11 1 00999H11 1 00999H11 1 00999K11 1 00066L11 1 01200M11 1 29980N11 1 00000Q11 1 10170S11 1 00076V11 1 00808W11 1 22006
0269999999939911954042006005+36133-090933SAO  +008499999V02018059001552200059N019200599+01724+01175102074ADDGD11995+9999993GD20995+9999999GD30995+9999999GD40995+9999999GF103015999999999999999999MA1999999101054EQDN01 00000JPWTH 1QNNE11 1 00199E11 1 00099E11 1 00099E11 1 00099G11U1 99999K11 1 00053L11 1 01200M11 1 29840N11 1 00000Q11 1 10207S11 1 00063V11 1 00401W11 1 55003
009374780499999195405082000D+32017-081133SAO  +0013SVN  V0202901N005110450019N0240001N9+02351+01351101291ADDAA101000095GA1031+018009059GA2021+045009049GF107991999999999999999999MA1999999101121MW1001
0078315040999991954012006004+51350+139100FM-12+002099999V0202201N00821220001CN0500001N9-02221-02781102301ADDAY101999GF101991001001999999041051MW1001EQDQ01+000042APCTENQ02+000032APC3  
0106325090999991954010100004+54083+159950FM-12+002699999V0200401N01801007801CN0010001N9-00391-00611099701ADDAA199010091AY171999GF108991081001008001021999HL10009IA1209IA2999-00899KA1999N-01221MD1710371+9999MW1731
0104108360999991954011409004+48667+009867FM-12+073799999V0202701N00931000901CN0020001N9-00221-00221999999ADDAY171031GA1071+000909079GA2071+000909079GF107991071071000751999999MA1999999101901MD1210321+9999MW1281
0329726815241061954042713003+43050-115867SAO  +0912MUO  V02031559005250365849N0480005N9+01285+00115100685ADDGA1021+018294064GA2081+036584034GD12025+9999999GD24085+9999999GD30995+9999999GD40995+9999999GF108085999999999999999999MA1999999090285MW1001EQDN01 00000JPWTH 1QNNE11 1 00203E11 1 00610E11 1 00099E11 1 00099G11 1 00120H11 1 15060H11 1 23120K11 1 00034L11 1 03000M11 1 26660N11 1 00000Q11 1 10068S11 1 00055V11 1 01010W11 1 88010
038899999924090195411290300E+44050-103067SAO  +0964RAP  V02033859002652200059N024000599-00285-00675101805ADDAA101000095GA1999+015244064GA2999+999999999GA3999+999999999GA4999+999999999GD12045+9999999GD20005+9999999GD30005+9999999GD40005+9999999GF104035999999999999999999MA1999999090315EQDN01 00000JPWTH 1QNNE11 1 00205E11 1 00000E11 1 00000E11 1 00000G11U1 99999H11 1 15050H11 1 00999H11 1 00999H11 1 00999K11 1 00020L11 1 01500M11 1 26670N11 1 00000Q11 1 10180S11 1 00027V11 1 00504W11 1 18005
0139999999432401954110515005+35083+128067SAO  +0008RKPS V02099999000052200059N012800599+00615+00505102575ADDGF100005999999999999999999EQDN01 00000JPWTH 1QNNG11U1 99999K11 1 00041L11 1 00800N11 1 00000Q11 1 10257S11 1 00043V11 1 00000W11 1 00000
0059782640999991954051608004+19950-075850FM-12+006599999V0200201N00511220001CN0120001N9+02281+02221101321ADDAY141999GA1011+007509089GF103991011021008001999999MW1131
0050723566939501954052103004+34883-095783SAO  +0235MLC  V0209991C000012200019N0240001N1+01461+01071101831ADDGF102991999999999999999999MA1999999099151MW1001
0377999999138941954122317005+30683-088250SAO  +0064MOB  V02027059004652200059N012800599+01445+01065101835ADDGA1999+003054084GA2999+091444004GA3999+999999999GA4999+999999999GD13005+9999993GD20055+9999999GD30005+9999999GD40005+9999999GF105025999999999999999999MA1999999101025EQDN01 00000JPWTH 1QNNE11 1 00300E11 1 00006E11 1 00000E11 1 00000G11U1 99999H11 1 11010H11 1 32300H11 1 00999H11 1 00999K11 1 00051L11 1 00800M11 1 29830N11 1 00000Q11 1 10183S11 1 00058V11 1 00603W11 1 77009
0066724240138071954012517004+37900-085967SAO  +0223FTK  V0202001N006210039019N0112001N9+01071+00851102571ADDGA1081+003909079GF108991999999999999999999MA1999999099761MW1001
0383725510149391954070720003+40850-096750SAO  +0357LNK  V02002359008852200059N0240005N1+03225+01835101195ADDGA1011+009144084GA2999+999999999GA3999+999999999GA4999+999999999GD12015+9999999GD20005+9999999GD30005+9999999GD40005+9999999GF101015999999999999999999MA1999999097025MW1001EQDN01 00000JPWTH 1QNNE11 1 00201E11 1 00000E11 1 00000E11 1 00000G11U1 99999H11 1 11030H11 1 00999H11 1 00999H11 1 00999K11 1 00065L11 1 01500M11 1 28650N11 1 00000Q11 1 10119S11 1 00090V11 1 00101W11 1 12017
0157476730999991954030600004+34917+139833FM-12+001499999V0200501N00511012301CN0060001N9+00061+00001102561ADDAA106002091AJ100009199999999AY101999GA1999+027009089GA2031+999999099GF108991081001012501021999HL10009IA1189IA2999+00179MA1999999102401MD1310071+9999MW1711
0356999999137541954032317005+34900-076883SAO  +001499999V02020359003150039649N009600599+01445+01225101825ADDGA1999+001524064GA2999+003964064GA3999+015244064GD12015+9999999GD23065+9999999GD34025+9999999GD40995+9999999GF108085999999999999999999MA1999999101835MW1615EQDN01 02000JPWTH 1QNNE11 1 00201E11 1 00407E11 1 00602E11 1 00099G11 1 00013H11 1 15005H11 1 15013H11 1 15050K11 1 00054L11 1 00600M11 1 30070N11 1 02000Q11 1 10182S11 1 00058V11 1 01010W11 1 56006
028099999914761195405062200E+40900-078083SAO  +0586PSB  V02024859002150106749N024000599+00945+00005101255ADDAA101000095GD13995+9999999GD23995+9999999GD30995+9999999GD40995+9999999GF107075999999999999999999MA1999999094345EQDN01 00000JPWTH 1QNNE11 1 00499E11 1 00499E11 1 00099E11 1 00099G11 1 00035K11 1 00032L11 1 01500M11 1 27860N11 1 00000Q11 1 10125S11 1 00049V11 1 00909W11 1 76004
0281999999241411954011600005+47300-119533SAO  +038899999V02029359008850003049N000400599-01005-01335101295ADDGD15995+9999999GD20995+9999999GD30995+9999999GD40995+9999999GF108085999999999999999999MA1999999096585MW1455MW2715EQDN01 04070JPWTH 1QNNE11 1 00799E11 1 00099E11 1 00099E11 1 00099G11 1 00001K11 1 00008L11 1 00025M11 1 28520N11 1 04070Q11 1 10129S11 1 00014V11 1 01010W11 1 78017
0377999999412301954020501005+14817+120283SAO  +0004ROLP V02004559001552200059N024000599+02675+01945101445ADDGA1999+010674064GA2999+030484034GA3999+076204024GA4999+999999999GD12015+9999999GD22025+9999999GD33035+9999993GD40005+9999999GF106025999999999999999999MA1999999101425EQDN01 00000JPWTH 1QNNE11 1 00201E11 1 00202E11 1 00304E11 1 00000G11U1 99999H11 1 15035H11 1 23100H11 1 37250H11 1 00999K11 1 00067L11 1 01500M11 1 29950N11 1 00000Q11 1 10144S11 1 00080V11 1 00703W11 1 22003
0269999999137351954061714005+39367-075067SAO  +002299999V02004559006250045749N024000599+01835+01175102645ADDGD14995+9999999GD20995+9999999GD30995+9999999GD40995+9999999GF108085999999999999999999MA1999999102375EQDN01 00000JPWTH 1QNNE11 1 00699E11 1 00099E11 1 00099E11 1 00099G11 1 00015K11 1 00053L11 1 01500M11 1 30230N11 1 00000Q11 1 10264S11 1 00065V11 1 01010W11 1 22012
0275999999149951954061802005+45800-092667SAO  +028499999V02015859006750152449N024000599+02505+02005100915ADDGD13995+9999999GD24995+9999999GD30995+9999999GD40995+9999999GF108085999999999999999999MA1999999097565MW1955EQDN01 01000JPWTH 1QNNE11 1 00499E11 1 00699E11 1 00099E11 1 00099G11 1 00050K11 1 00068L11 1 01500M11 1 28810N11 1 01000Q11 1 10091S11 1 00077V11 1 01010W11 1 54013
017672217003813195402041400B+32700-083650SAO  +0108MCN  V02029359006752200059N024000599+00505-00065101155ADDAA101000095GF100005999999999999999999MA1999999099835EQDN01 00000JPWTH 1QNNG11U1 99999K11 1 00031L11 1 01500M11 1 29480N11 1 00000Q11 1 10115S11 1 00041V11 1 00000W11 1 78013
0091315130999991954051512004+50917+128467FM-12+017899999V0209991C00001075001CN0100001N9+00781-00611100681ADDAY121999GF108991011051012501001071KA1999M+01281MW1021EQDQ01+000042APCTENQ02+000012APC3  
0221999999231841954103109005+34650-112433SAO  +153099999V02099999000052200059N024000599+00395+99999999999ADDGD10995+9999999GD20995+9999999GD30995+9999999GD40995+9999999GF100005999999999999999999EQDN01 00000JPWTH 1QNNE11 1 00099E11 1 00099E11 1 00099E11 1 00099G11U1 99999L11 1 01500N11 1 00000S11 1 00039V11 1 00000W11 1 00000
0035171905999991954082218004+38733+030600SAO  +1010LTAH V0209991C000012200019N0144001N1+02301+00851100771ADDGF100991999999999999999999MW1001
0323999999147901954031116005+42150-070933SAO  +004899999V02027059004150609649N024000599+00335-00895100645ADDGA1999+015244064GA2999+060964004GD12035+9999999GD24055+9999999GD30995+9999999GD40995+9999999GF108085999999999999999999MA1999999100075EQDN01 00000JPWTH 1QNNE11 1 00204E11 1 00606E11 1 00099E11 1 00099G11 1 00200H11 1 15050H11 1 32200K11 1 00016L11 1 01500M11 1 29550N11 1 00000Q11 1 10064S11 1 00038V11 1 01010W11 1 77008
0269999999937191954121613005+35083-077033SAO  +000699999V02027059005252200059N012800599+00224-00395101834ADDGD10995+9999999GD20995+9999999GD30995+9999999GD40995+9999999GF100005999999999999999999MA1999999101734EQDN01 00000JPWTH 1QNNE11 1 00099E11 1 00099E11 1 00099E11 1 00099G11U1 99999K11 1 00025L11 1 00800M11 1 30040N11 1 00000Q11 1 10183S11 1 00036V11 1 00000W11 1 77010
0059486650999991954111306004+02267+102250FM-12+001099999V0202001N00411220001CN0600001N9+03061+02611100991ADDAY111999GA1011+008009089GF103991011021008001001021MW1011
0269999999231581954111101005+33617-114717SAO  +0119BLH  V02018059002650365849N032000599+02335+00005101255ADDGD14995+9999999GD20995+9999999GD30995+9999999GD40995+9999999GF108085999999999999999999MA1999999099865EQDN01 00000JPWTH 1QNNE11 1 00699E11 1 00099E11 1 00099E11 1 00099G11 1 00120K11 1 00032L11 1 02000M11 1 29490N11 1 00000Q11 1 10125S11 1 00074V11 1 01010W11 1 55005
0275999999148171954120718005+44283-085417SAO  +039599999V02029359002650091449N024000599-00395-00895102845ADDGD14995+9999999GD20995+9999999GD30995+9999999GD40995+9999999GF108085999999999999999999MA1999999097805MW1855EQDN01 05000JPWTH 1QNNE11 1 00699E11 1 00099E11 1 00099E11 1 00099G11 1 00030K11 1 00016L11 1 01500M11 1 28880N11 1 05000Q11 1 10284S11 1 00025V11 1 01010W11 1 78005
038899999914734195412110000E+40700-074167SAO  +0002EWR  V02029359006252200059N019200599+00335-00285100855ADDAA101000095GA1999+013724064GA2999+076204004GA3999+999999999GA4999+999999999GD12015+9999999GD21025+9999993GD30005+9999999GD40005+9999999GF102015999999999999999999MA1999999100755EQDN01 00000JPWTH 1QNNE11 1 00201E11 1 00102E11 1 00000E11 1 00000G11U1 99999H11 1 15045H11 1 32250H11 1 00999H11 1 00999K11 1 00027L11 1 01200M11 1 29750N11 1 00000Q11 1 10085S11 1 00038V11 1 00301W11 1 78012
0082108580999991954122519004+48200+011267SAO  +0519EDSF V0202701N010310027019N0040001N1+00191+00021101801ADDGA1091+002709079GA2091+999999999GF108991999999999999999999MA1999999095391MW1711
0383984280412241954030414003+14500+120917SAO  +0002RPMS V02009059002650365849N0160005N1+02785+02225100865ADDGA1021+009144064GA2041+036584034GA3021+091444024GA4999+999999999GD12025+9999999GD23045+9999999GD34025+9999999GD40005+9999999GF108065999999999999999999MA1999999100815MW1001EQDN01 00000JPWTH 1QNNE11 1 00203E11 1 00405E11 1 00602E11 1 00000G11 1 00120H11 1 15030H11 1 23120H11 1 37300H11 1 00999K11 1 00072L11 1 01000M11 1 29770N11 1 00000Q11 1 10086S11 1 00082V11 1 01008W11 1 33005
0066724835232061954071923004+38550-121300SAO  +0028MHR  V0202501N006212200019N0240001N9+03071+01071101331ADDGA1001+999999999GF100991999999999999999999MA1999999100951MW1001
0269999999038161954041722005+37067-088767SAO  +012199999V02020359006752200059N024000599+02065+00505101595ADDGD11995+9999993GD20995+9999999GD30995+9999999GD40995+9999999GF102005999999999999999999MA1999999100075EQDN01 00000JPWTH 1QNNE11 1 00199E11 1 00099E11 1 00099E11 1 00099G11U1 99999K11 1 00041L11 1 01500M11 1 29550N11 1 00000Q11 1 10159S11 1 00069V11 1 00200W11 1 56013
0108014150999991954081721004+58883+005633FM-12+000899999V0202801N00461220001CN0600001N9+01221+01001101631ADDAY111999GA1041+007509099GF106991041091008001061031MD1210051+9999MW1801EQDQ01+000042APCTENQ02+000052APC3  
028099999914761195412022100E+40900-078083SAO  +0586PSB  V02029359005250091449N016000599-00335-00675101525ADDAA101000095GD12995+9999999GD23995+9999999GD30995+9999999GD40995+9999999GF107075999999999999999999MA1999999094485EQDN01 00000JPWTH 1QNNE11 1 00299E11 1 00499E11 1 00099E11 1 00099G11 1 00030K11 1 00020L11 1 01000M11 1 27900N11 1 00000Q11 1 10152S11 1 00026V11 1 00909W11 1 78010
0066747540139341954052523004+31317-092550SAO  +0027KAEX V0202001N001510300019N0080001N9+02241+02071101391ADDGA1081+030009049GF108991999999999999999999MA1999999101021MW1801
0066722175138601954091010004+32633-083600SAO  +0090WRB  V0203401N004112200019N0160001N9+02111+01831100881ADDGA1001+999999999GF100991999999999999999999MA1999999099831MW1001
0269999999241181954030807005+41400-110417SAO  +213799999V02024859009352200059N080000599+00285-00725102075ADDGD14995+9999993GD20995+9999999GD30995+9999999GD40995+9999999GF108045999999999999999999MA1999999078875EQDN01 00000JPWTH 1QNNE11 1 00599E11 1 00099E11 1 00099E11 1 00099G11U1 99999K11 1 00019L11 1 05000M11 1 23290N11 1 00000Q11 1 10207S11 1 00037V11 1 01005W11 1 76018
0066601360999991954031707004+34233-006067SAO  +0055GSSV V0202701N002610090019N0160001N9+01351+01241101321ADDGA1071+009009059GF107991999999999999999999MA1999999100641MW1001
0082485680999991954012223004+07200+100600SAO  +0005VTSH V0209991C000012200019N0160001N1+02521+02411100911ADDGA1031+003009089GA2071+090009009GF107991999999999999999999MA1999999100781MW1001
0081296340999991954031106004+55033+082900FM-12+016299999V0202001N00871220001CN0028001N9-01281-01611103331ADDAA199001091AY171999GF108991001001999999011051KA1999N-01501MD1990021+9999MW1711
0062101470999991954012819004+53633+010000FM-12+001699999V0201001N00311220001CN0090001N9+99999+99999999999ADDAY101999GF100991999999999999999999MW1021EQDQ01+080291APOA  
031999999914822195401260200E+42400-083000SAO  +018999999V02013559002650027449N003200599+00225+00115102155ADDAA101000095GA1999+002744074GD14085+9999999GD20995+9999999GD30995+9999999GD40995+9999999GF108085999999999999999999MA1999999099805MW1455MW2515EQDN01 03370JPWTH 1QNNE11 1 00610E11 1 00099E11 1 00099E11 1 00099G11 1 00009H11 1 16009K11 1 00034L11 1 00200M11 1 29470N11 1 03370Q11 1 10215S11 1 00036V11 1 01010W11 1 44005
034099999914849195411291700E+41567-083467SAO  +019499999V02024859010350048849N024000599+00065-00285101295ADDAA101000095GA1999+004884064GA2999+006104064GD13065+9999999GD24025+9999999GD30995+9999999GD40995+9999999GF108085999999999999999999MA1999999098925MW1855EQDN01 05000JPWTH 1QNNE11 1 00408E11 1 00602E11 1 00099E11 1 00099G11 1 00016H11 1 15016H11 1 15020K11 1 00027L11 1 01500M11 1 29210N11 1 05000Q11 1 10129S11 1 00033V11 1 01010W11 1 76020
0066722695999991954071320004+32283-106917SAO  +1358LRU  V0209991C000012200019N0800001N1+03411+00461101141ADDGA1021+018009089GF102991999999999999999999MA1999999087301MW1001
038899999993815195409031900E+39900-084200SAO  +031099999V02031559004652200059N024000599+02834+01395101694ADDAA101000095GA1999+016764084GA2999+054864034GA3999+091444004GA4999+999999999GD12005+9999999GD23025+9999993GD30035+9999999GD40005+9999999GF106025999999999999999999MA1999999098144EQDN01 00000JPWTH 1QNNE11 1 00200E11 1 00303E11 1 00004E11 1 00000G11U1 99999H11 1 11055H11 1 23180H11 1 32300H11 1 00999K11 1 00057L11 1 01500M11 1 28980N11 1 00000Q11 1 10169S11 1 00083V11 1 00703W11 1 88009
038899999993817195411032000E+38050-087533SAO  +0116EVV  V02020359006752200059N024000599+00834-00225102434ADDAA101000095GA1999+091444004GA2999+999999999GA3999+999999999GA4999+999999999GD13065+9999993GD20005+9999999GD30005+9999999GD40005+9999999GF106025999999999999999999MA1999999100984EQDN01 00000JPWTH 1QNNE11 1 00307E11 1 00000E11 1 00000E11 1 00000G11U1 99999H11 1 32300H11 1 00999H11 1 00999H11 1 00999K11 1 00028L11 1 01500M11 1 29820N11 1 00000Q11 1 10243S11 1 00047V11 1 00703W11 1 56013
0296999999242161954082610005+40150-122250SAO  +0104RBL  V02015859006750073249N016000599+01395+01175101155ADDGA1999+007324064GD14085+9999999GD20995+9999999GD30995+9999999GD40995+9999999GF108085999999999999999999MA1999999099905EQDN01 00000JPWTH 1QNNE11 1 00610E11 1 00099E11 1 00099E11 1 00099G11 1 00024H11 1 15024K11 1 00053L11 1 01000M11 1 29500N11 1 00000Q11 1 10115S11 1 00057V11 1 01010W11 1 54013
0269999999931231954073015005+39417-118717SAO  +120099999V02027059002152200059N056000599+02224+00445101524ADDGD10995+9999999GD20995+9999999GD30995+9999999GD40995+9999999GF100005999999999999999999MA1999999088284EQDN01 00000JPWTH 1QNNE11 1 00099E11 1 00099E11 1 00099E11 1 00099G11U1 99999K11 1 00040L11 1 03500M11 1 26070N11 1 00000Q11 1 10152S11 1 00072V11 1 00000W11 1 77004
039499999913729195407021200E+38883-079850SAO  +060299999V02020359001050762049N001000599+01835+01725102375ADDAA101000095GA1999+999999104GA2999+076204024GA3999+999999999GA4999+999999999GD16025+9999999GD23055+9999999GD30005+9999999GD40005+9999999GF106065999999999999999999MA1999999095395MW1445EQDN01 07200JPWTH 1QNNE11 1 00802E11 1 00406E11 1 00000E11 1 00000G11 1 00250H11 1 45999H11 1 37250H11 1 00999H11 1 00999K11 1 00063L11 1 00062M11 1 28170N11 1 07200Q11 1 10237S11 1 00065V11 1 00808W11 1 56002
0066110300999991954041209004+48317+016117SAO  +0176LOXT V0202931N002110135019N0160001N1+00691-00311102361ADDGA1081+013509089GF108991999999999999999999MA1999999100171MW1001
0056480710999991954123112004+19417+093550FM-12+000699999V0203201N000519999999N0100001N9+02391+01441101521ADDAY101999GF101991011011008001001001KA1999M+02781MW1011
038899999914943195403191000E+42400-096383SAO  +0334SUX  V02036059005750182949N012800599+00335+00225099865ADDAA101000095GA1999+018294104GA2999+999999999GA3999+999999999GA4999+999999999GD14085+9999999GD20005+9999999GD30005+9999999GD40005+9999999GF108065999999999999999999MA1999999095875EQDN01 00000JPWTH 1QNNE11 1 00610E11 1 00000E11 1 00000E11 1 00000G11 1 00060H11 1 98060H11 1 00999H11 1 00999H11 1 00999K11 1 00036L11 1 00800M11 1 28310N11 1 00000Q11 1 09986S11 1 00038V11 1 01007W11 1 11011
0269999999137341954102016005+39400-077983SAO  +0164MRB  V02033859006252200059N024000599+01065+00175102375ADDGD12995+9999999GD22995+9999999GD30995+9999999GD40995+9999999GF102025999999999999999999MA1999999100375EQDN01 00000JPWTH 1QNNE11 1 00299E11 1 00299E11 1 00099E11 1 00099G11U1 99999K11 1 00035L11 1 01500M11 1 29640N11 1 00000Q11 1 10237S11 1 00051V11 1 00303W11 1 18012
028672654614946195407311600C+44917-097150SAO  +0532ATY  V02029359005250061049N0240005N1+02115+01445101865ADDAA101000095GD13995+9999999GD20995+9999999GD30995+9999999GD40995+9999999GF105055999999999999999999MA1999999095675MW1001EQDN01 00000JPWTH 1QNNE11 1 00499E11 1 00099E11 1 00099E11 1 00099G11 1 00020K11 1 00058L11 1 01500M11 1 28250N11 1 00000Q11 1 10186S11 1 00070V11 1 00606W11 1 78010
0066749132999991954012913004+60683-046533SAO  +006299999V0202931N006712200019N0400001N1-00761-01201101251ADDGA1021+006009059GF102991999999999999999999MA1999999100441MW1001
0269999999255071954113006005+59633-151500SAO  +002299999V02004559001050061049N024000599-00225-00945103015ADDGD13995+9999999GD24995+9999999GD30995+9999999GD40995+9999999GF108085999999999999999999MA1999999102745EQDN01 00000JPWTH 1QNNE11 1 00499E11 1 00699E11 1 00099E11 1 00099G11 1 00020K11 1 00015L11 1 01500M11 1 30340N11 1 00000Q11 1 10301S11 1 00028V11 1 01010W11 1 22002
0082042700999991954031715004+61183-045417SAO  +0026BGBW V0200681N012912200019N0400001N1+00911-00151099421ADDGA1011+009009059GA2011+036009039GF102991999999999999999999MA1999999098921MW1001
0066106530999991954100718004+49667+009883SAO  +0300EDEU V0202301N002110075019N0128001N9+00741+00581999999ADDGA1061+007509059GF107991999999999999999999MA1999999098411MW1001
0275727846241601954071316003+46100-118283SAO  +0363ALW  V02022559003152200059N0480005N1+02115+00835101695ADDGD10995+9999999GD20995+9999999GD30995+9999999GD40995+9999999GF100005999999999999999999MA1999999097395MW1001EQDN01 00000JPWTH 1QNNE11 1 00099E11 1 00099E11 1 00099E11 1 00099G11U1 99999K11 1 00047L11 1 03000M11 1 28760N11 1 00000Q11 1 10169S11 1 00070V11 1 00000W11 1 66006
0269999999241931954100404005+40733-114033SAO  +129299999V02006859001552200059N024000599+01445+00335101195ADDGD10995+9999999GD20995+9999999GD30995+9999999GD40995+9999999GF100005999999999999999999MA1999999086935EQDN01 00000JPWTH 1QNNE11 1 00099E11 1 00099E11 1 00099E11 1 00099G11U1 99999K11 1 00038L11 1 01500M11 1 25670N11 1 00000Q11 1 10119S11 1 00058V11 1 00000W11 1 32003
0066718410999991954060513004+50283-088900SAO  +0325CYYW V0200901N001012200019N0240001N1+01351+00521101801ADDGA1021+060009009GF102991999999999999999999MA1999999097871MW1001
0066718150999991954082122004+48550-058550SAO  +0013CYJT V0202931N001512200019N0320001N1+01691+00911101731ADDGA1021+060009009GF102991999999999999999999MA1999999101391MW1001
0044747240231681954122923004+32883-112717SAO  +0261GBN  V0203401N004112200019N0800001N9+01351-01591101661ADDGF107991999999999999999999MA1999999098541
0067104960999991954082918004+51783+014317FM-12+007199999V0202701N00101220001CN0100001N9+01721+00891102151ADDAA199000391AY121061GF104991021051008001001021KA1999M+02001MW1011
0377999999139281954062711005+31633-097067SAO  +014599999V02018059002152200059N024000599+02335+02005101655ADDGA1999+076204004GA2999+999999999GA3999+999999999GA4999+999999999GD13055+9999993GD20005+9999999GD30005+9999999GD40005+9999999GF105025999999999999999999MA1999999099975EQDN01 00000JPWTH 1QNNE11 1 00306E11 1 00000E11 1 00000E11 1 00000G11U1 99999H11 1 32250H11 1 00999H11 1 00999H11 1 00999K11 1 00068L11 1 01500M11 1 29520N11 1 00000Q11 1 10165S11 1 00074V11 1 00602W11 1 55004
035872531014806195407290600C+40300-088150SAO  +0226RAN  V02002359004650243849N0040005N1+02115+02065101325ADDAA101003395GA1081+024384044GD14085+9999999GD20995+9999999GD30995+9999999GD40995+9999999GF108085999999999999999999MA1999999098715MW1171MW2455MW3805MW4955EQDN01 01023JPWTH 1N02 07000JPWTH 1QNNE11 1 00610E11 1 00099E11 1 00099E11 1 00099G11 1 00080H11 1 21080K11 1 00069L11 1 00250M11 1 29150N11 1 01023N11 1 07000Q11 1 10132S11 1 00070V11 1 01010W11 1 12009
0070227980999991954091418004+62167+049083FM-12+006699999V0202201N00211015001CN0040001N9+01001+00781100451ADDAY181999GF106991061091017501031001KA1999M+01391MD1310071+9999MW1151
0117484550999991954122610004+13733+100500SAO  +002099999V0203151N002612200019N0096001N1+02911+01961101031ADDGA1031+008409089GA2011+036009039GA3031+078009009GF102991999999999999999999MA1999999100851MW1051EQDQ01+999990APOSP 
006094693099999195412040200N-34230+142080AUST +0053YMMI V0202255N005159999999N999999999+02165+01105999999ADDGA1045+013505085GF104995044085013505999999MA1999999100865
0187747686138201954110314003+30400-088917SAO  +0008BIX  V02006859005252200059N0240005N9+00335+00065102955ADDGA1001+999999999GF100005999999999999999999MA1999999102815MW1001EQDN01 00000JPWTH 1QNNG11U1 99999K11 1 00033L11 1 01500M11 1 30360N11 1 00000Q11 1 10295S11 1 00038V11 1 00000W11 1 32010
0269999999253291954030206005+56817-132950SAO  +003499999V02022559004150198149N024000599+00175-01005102035ADDGD13995+9999999GD24995+9999999GD30995+9999999GD40995+9999999GF108085999999999999999999MA1999999101595EQDN01 00000JPWTH 1QNNE11 1 00499E11 1 00699E11 1 00099E11 1 00099G11 1 00065K11 1 00014L11 1 01500M11 1 30000N11 1 00000Q11 1 10203S11 1 00035V11 1 01010W11 1 66008
0187747900138491954030700003+33967-080483SAO  +0076SSC  V02099999000052200059N0160005N9+00445-00945101905ADDGA1001+999999999GF100005999999999999999999MA1999999100955MW1001EQDN01 00000JPWTH 1QNNG11U1 99999K11 1 00015L11 1 01000M11 1 29810N11 1 00000Q11 1 10190S11 1 00040V11 1 00000W11 1 00000
006172250012919195412131100D+25900-097433SAO  +0006BRO  V0202931N005112200019N0240001N1+00911+00191102681ADDAA101000095GF100991999999999999999999MA1999999102611MW1001
0057131560999991954042700004+45533+018733FM-12+009299999V0200501N00101007801CN0150001N9+00781+00781101481ADDAY161999GF108991081001008001021999MD1310041+9999MW1611
0102085450999991954042806004+41233-008683FM-12+007999999V0209991C000019999999N0100001N9+01221+99999100901ADDAA199003091AY101999GF107991999999999999999999KA1999N+00781MW1021EQDQ01+000032APCTENQ02+000002APC3  
0377999999230191954010802005+31833-106400SAO  +1196BIF  V02099999000050609649N032000599+01225-00505101345ADDGA1999+039624034GA2999+060964004GA3999+999999999GA4999+999999999GD12045+9999999GD23025+9999999GD30005+9999999GD40005+9999999GF106045999999999999999999MA1999999087915EQDN01 00000JPWTH 1QNNE11 1 00205E11 1 00403E11 1 00000E11 1 00000G11 1 00200H11 1 23130H11 1 32200H11 1 00999H11 1 00999K11 1 00023L11 1 02000M11 1 25960N11 1 00000Q11 1 10134S11 1 00054V11 1 00805W11 1 00000
0383722266138501954042602003+32350-086983SAO  +0063SEM  V02099999000052200059N0192005N1+02175+01895101955ADDGA1011+012194084GA2021+036584034GA3999+999999999GA4999+999999999GD12015+9999999GD22025+9999999GD30005+9999999GD40005+9999999GF103035999999999999999999MA1999999101325MW1001EQDN01 00000JPWTH 1QNNE11 1 00201E11 1 00203E11 1 00000E11 1 00000G11U1 99999H11 1 11040H11 1 23120H11 1 00999H11 1 00999K11 1 00066L11 1 01200M11 1 29920N11 1 00000Q11 1 10195S11 1 00071V11 1 00404W11 1 00000
0082723273999991954012505004+36000-086500SAO  +0166MQY  V0202031N006210120019N0112001N1+00911+00581102471ADDGA1021+007809059GA2061+012009059GF108991999999999999999999MA1999999100541MW1001
0066717170999991954101901004+47017-065450SAO  +0034CYCH V0209991C000012200019N0240001N1+00741+00411102611ADDGA1021+012009059GF102991999999999999999999MA1999999102201MW1001
0081309570999991954013112004+50283+113283FM-12+073499999V0209991C00001220001CN0040001N9-02391-02721103781ADDAA199001091AY171999GF102991001001999999011999KA1999M-02111MD1310351+9999MW1711
0165999999242551954042306005+99999+999999SAO  +999999999V02024859001552200059N024000599+00785+00505101925ADDGF100005999999999999999999MA1999999101835EQDN01 00000JPWTH 1QNNG11U1 99999K11 1 00041L11 1 01500M11 1 30070N11 1 00000Q11 1 10192S11 1 00046V11 1 00000W11 1 76003
0377999999931071954083117005+32867-117133SAO  +014199999V02020359002652200059N016000599+03064+01675101124ADDGA1999+051824034GA2999+999999999GA3999+999999999GA4999+999999999GD10005+9999999GD20005+9999999GD30005+9999999GD40005+9999999GF100005999999999999999999MA1999999099534EQDN01 00000JPWTH 1QNNE11 1 00000E11 1 00000E11 1 00000E11 1 00000G11U1 99999H11 1 23170H11 1 00999H11 1 00999H11 1 00999K11 1 00062L11 1 01000M11 1 29390N11 1 00000Q11 1 10112S11 1 00087V11 1 00000W11 1 56005
0057939950999991954062600004-31517+159067FM-12+001199999V0201601N00261220001CN0700001N9+01781+01061101891ADDAY111999GF103991031011008001001001MD1310111+9999MW1031
028099999914916195404011600E+47933-097083SAO  +025999999V02036059005252200059N024000599-01225-01615102345ADDAA101000095GD13995+9999993GD20995+9999999GD30995+9999999GD40995+9999999GF106025999999999999999999MA1999999099125EQDN01 00000JPWTH 1QNNE11 1 00399E11 1 00099E11 1 00099E11 1 00099G11U1 99999K11 1 00003L11 1 01500M11 1 29270N11 1 00000Q11 1 10234S11 1 00010V11 1 00702W11 1 11010
0269999999939961954030516005+37767-090400SAO  +027499999V02006859002152200059N024000599-00064-00785102884ADDGD10995+9999999GD20995+9999999GD30995+9999999GD40995+9999999GF100005999999999999999999MA1999999099364EQDN01 00000JPWTH 1QNNE11 1 00099E11 1 00099E11 1 00099E11 1 00099G11U1 99999K11 1 00018L11 1 01500M11 1 29340N11 1 00000Q11 1 10288S11 1 00031V11 1 00000W11 1 32004
0377999999116241954021206005+17700-064800SAO  +001799999V02009059002152200059N024000599+02175+02065101665ADDGA1999+007624084GA2999+999999999GA3999+999999999GA4999+999999999GD12025+9999999GD20005+9999999GD30005+9999999GD40005+9999999GF102025999999999999999999MA1999999101465EQDN01 00000JPWTH 1QNNE11 1 00203E11 1 00000E11 1 00000E11 1 00000G11U1 99999H11 1 11025H11 1 00999H11 1 00999H11 1 00999K11 1 00069L11 1 01500M11 1 29960N11 1 00000Q11 1 10166S11 1 00071V11 1 00303W11 1 33004
0066723550139451954071113004+34650-098400SAO  +0360FSI  V0202501N006712200019N0240001N9+02891+01551101261ADDGA1001+999999999GF100991999999999999999999MA1999999097191MW1001
0269999999128351954122223005+26650-081867SAO  +001199999V02099999000052200059N024000599+01395+00895101835ADDGD10995+9999999GD20995+9999999GD30995+9999999GD40995+9999999GF100005999999999999999999MA1999999101795EQDN01 00000JPWTH 1QNNE11 1 00099E11 1 00099E11 1 00099E11 1 00099G11U1 99999K11 1 00048L11 1 01500M11 1 30060N11 1 00000Q11 1 10183S11 1 00057V11 1 00000W11 1 00000
038899999923066195406080400E+39117-108533SAO  +1476GJT  V02013559003152200059N024000599+01505-00895101085ADDAA101000095GA1999+045724044GA2999+070104024GA3999+999999999GA4999+999999999GD12015+9999999GD23065+9999993GD30005+9999999GD40005+9999999GF106025999999999999999999MA1999999084935EQDN01 00000JPWTH 1QNNE11 1 00201E11 1 00307E11 1 00000E11 1 00000G11U1 99999H11 1 21150H11 1 37230H11 1 00999H11 1 00999K11 1 00016L11 1 01500M11 1 25080N11 1 00000Q11 1 10108S11 1 00059V11 1 00702W11 1 44006
0275723815231611954032909003+34867-116783SAO  +0588DAG  V02033859008852200059N0240005N1+01005+00335100785ADDGD10995+9999999GD20995+9999999GD30995+9999999GD40995+9999999GF100005999999999999999999MA1999999094115MW1001EQDN01 00000JPWTH 1QNNE11 1 00099E11 1 00099E11 1 00099E11 1 00099G11U1 99999K11 1 00038L11 1 01500M11 1 27790N11 1 00000Q11 1 10078S11 1 00050V11 1 00000W11 1 18017
0269999999138711954030921005+33583-085850SAO  +0184ANB  V02022559004650609649N019200599+01895+00285100985ADDGD14995+9999999GD20995+9999999GD30995+9999999GD40995+9999999GF108085999999999999999999MA1999999098755EQDN01 00000JPWTH 1QNNE11 1 00699E11 1 00099E11 1 00099E11 1 00099G11 1 00200K11 1 00037L11 1 01200M11 1 29160N11 1 00000Q11 1 10098S11 1 00066V11 1 01010W11 1 66009
028099999913866195403180300E+38367-081600SAO  +029099999V02018059002150762049N011200599+00285-00725102525ADDAA101000095GD14995+9999999GD20995+9999999GD30995+9999999GD40995+9999999GF108065999999999999999999MA1999999098855EQDN01 00000JPWTH 1QNNE11 1 00699E11 1 00099E11 1 00099E11 1 00099G11 1 00250K11 1 00019L11 1 00700M11 1 29190N11 1 00000Q11 1 10252S11 1 00037V11 1 01008W11 1 55004
0302703260255031954020813003+58683-156650SAO  +0015AKN  V02022559002150030549N0024005N9-00565-00675102205ADDGA1091+003054104GD15085+9999999GD20995+9999999GD30995+9999999GD40995+9999999GF108085999999999999999999MA1999999101935MW1715EQDN01 04000JPWTH 1QNNE11 1 00710E11 1 00099E11 1 00099E11 1 00099G11 1 00010H11 1 98010K11 1 00020L11 1 00150M11 1 30100N11 1 04000Q11 1 10220S11 1 00022V11 1 01010W11 1 66004
0236999999148351954121001005+40417-086933SAO  +019099999V02029359011850054949N024000599+99999+99999999999ADDGD14995+9999999GD20995+9999999GD30995+9999999GD40995+9999999GF108085999999999999999999MA1999999099125EQDN01 00000JPWTH 1QNNE11 1 00699E11 1 00099E11 1 00099E11 1 00099G11 1 00018L11 1 01500M11 1 29270N11 1 00000V11 1 01010W11 1 78023
0057383530999991954103018004+42833+074583FM-12+082899999V0201801N00411220001CN0200001N9+00781-00221102081ADDAY111999GF100991001001999999001001MD1990041+9999MW1021
0078475820999991954110107004+39717+140100FM-12+001099999V0202301N002619999999N0600001N9+01331+00331101291ADDAY101999GA1999+011709029GF102991011011012501051001MW1011EQDQ01    003SCCGA1
0296999999340481954072806005+46850+001717SAO  +0164LFLX V02020359003650076249N017600599+01395+01005101145ADDGA1999+007624064GD14085+9999999GD20995+9999999GD30995+9999999GD40995+9999999GF108085999999999999999999MA1999999099125EQDN01 00000JPWTH 1QNNE11 1 00610E11 1 00099E11 1 00099E11 1 00099G11 1 00025H11 1 15025K11 1 00050L11 1 01100M11 1 29270N11 1 00000Q11 1 10114S11 1 00057V11 1 01010W11 1 56007
0269999999147701954100702005+40900-076783SAO  +013599999V02029359014952200059N019200599+00835-00065102715ADDGD12995+9999999GD20995+9999999GD30995+9999999GD40995+9999999GF103035999999999999999999MA1999999100985EQDN01 00000JPWTH 1QNNE11 1 00299E11 1 00099E11 1 00099E11 1 00099G11U1 99999K11 1 00031L11 1 01200M11 1 29820N11 1 00000Q11 1 10271S11 1 00047V11 1 00404W11 1 78029
0066749021999991954030507004+44317-077633SAO  +0139CYQC V0202701N003110090019N0240001N1-01151-01591101011ADDGA1081+009009059GF108991999999999999999999MA1999999099261MW1001
0082749105999991954021807004+40733-073600SAO  +003899999V0203381N006212200019N0160001N1+00301-00091101591ADDGA1011+012009059GA2031+030009039GF102991999999999999999999MA1999999101221MW1001
038899999924028195401280900E+41867-103600SAO  +1206BFF  V02022559005750609649N040000599+00505-00835101465ADDAA101000095GA1999+060964024GA2999+999999999GA3999+999999999GA4999+999999999GD13065+9999999GD20005+9999999GD30005+9999999GD40005+9999999GF106055999999999999999999MA1999999087815EQDN01 00000JPWTH 1QNNE11 1 00408E11 1 00000E11 1 00000E11 1 00000G11 1 00200H11 1 37200H11 1 00999H11 1 00999H11 1 00999K11 1 00017L11 1 02500M11 1 25930N11 1 00000Q11 1 10146S11 1 00041V11 1 00806W11 1 66011
0057319890999991954083118004+42900+133900FM-12+003499999V0200401N00621220001CN0200001N9+01721+01611101541ADDAY111999GF100991001001999999001001MD1990041+9999MW1011
0050723566939501954020312004+34883-095783SAO  +0235MLC  V0202031N001512200019N0240001N1+00411-00151101631ADDGF100991999999999999999999MA1999999098921MW1001
0269999999128431954041301005+27650-080417SAO  +000899999V02006859003652200059N024000599+02395+02005102275ADDGD12995+9999999GD20995+9999999GD30995+9999999GD40995+9999999GF101015999999999999999999MA1999999102175EQDN01 00000JPWTH 1QNNE11 1 00299E11 1 00099E11 1 00099E11 1 00099G11U1 99999K11 1 00068L11 1 01500M11 1 30170N11 1 00000Q11 1 10227S11 1 00075V11 1 00101W11 1 32007
0269999999148291954010818005+41533-085800SAO  +0252GSH  V02011359007750609649N011200599-00115-00505101525ADDGD13995+9999999GD20995+9999999GD30995+9999999GD40995+9999999GF106065999999999999999999MA1999999098415EQDN01 00000JPWTH 1QNNE11 1 00499E11 1 00099E11 1 00099E11 1 00099G11 1 00200K11 1 00023L11 1 00700M11 1 29060N11 1 00000Q11 1 10152S11 1 00030V11 1 00808W11 1 34015
0082718790999991954010818004+53567-113517SAO  +0671CYXD V0201131N003110660019N0240001N1-02141-02311102951ADDGA1021+036009039GA2051+066009009GF107991999999999999999999MA1999999094311MW1001
0082745940137051954070404004+38817-076850SAO  +0085ADW  V0202701N004110750019N0240001N9+02521+01961101411ADDGA1031+030009039GA2081+075009029GF108991999999999999999999MA1999999100441MW1001
0275999999253221954081413005+99999+999999SAO  +999999999V02099999000050121949N024000599+01005+00945101465ADDGD12995+9999999GD23995+9999999GD34995+9999999GD40995+9999999GF108085999999999999999999MA1999999101355MW1615EQDN01 02000JPWTH 1QNNE11 1 00299E11 1 00499E11 1 00699E11 1 00099G11 1 00040K11 1 00049L11 1 01500M11 1 29930N11 1 02000Q11 1 10146S11 1 00050V11 1 01010W11 1 00000
0269999999139971954021304005+38133-091767SAO  +0350VIH  V02015859005252200059N024000599+00065-01285102275ADDGD10995+9999999GD20995+9999999GD30995+9999999GD40995+9999999GF100005999999999999999999MA1999999098005EQDN01 00000JPWTH 1QNNE11 1 00099E11 1 00099E11 1 00099E11 1 00099G11U1 99999K11 1 00009L11 1 01500M11 1 28940N11 1 00000Q11 1 10227S11 1 00033V11 1 00000W11 1 54010
0377999999340511954051008005+48767+005983SAO  +0288LFSL V02013559001552200059N011200599+01945+01115101815ADDGA1999+088394004GA2999+999999999GA3999+999999999GA4999+999999999GD12025+9999999GD20005+9999999GD30005+9999999GD40005+9999999GF102025999999999999999999MA1999999098315EQDN01 00000JPWTH 1QNNE11 1 00202E11 1 00000E11 1 00000E11 1 00000G11U1 99999H11 1 32290H11 1 00999H11 1 00999H11 1 00999K11 1 00052L11 1 00700M11 1 29030N11 1 00000Q11 1 10181S11 1 00067V11 1 00202W11 1 44003
0082170820999991954121416004+40850+035583SAO  +0535LTAP V0209991C000012200019N0192001N1+00351+00081999999ADDGA1021+027009039GA2011+057009009GF102991999999999999999999MA1999999095331MW1001
0066740900999991954110400004+70417-068283SAO  +0003CYCY V0200901N001012200019N0400001N1-01981-02481101351ADDGA1999+060009009GF100991999999999999999999MA1999999101351MW1001
0377999999414061954052301005+13483+144800SAO  +0085PGUM V02011359007752200059N024000599+02785+02505101055ADDGA1999+004574084GA2999+024384034GA3999+091444004GA4999+999999999GD12025+9999999GD22025+9999999GD32015+9999999GD40005+9999999GF104045999999999999999999MA1999999100205EQDN01 00000JPWTH 1QNNE11 1 00203E11 1 00202E11 1 00201E11 1 00000G11U1 99999H11 1 11015H11 1 23080H11 1 32300H11 1 00999K11 1 00077L11 1 01500M11 1 29590N11 1 00000Q11 1 10105S11 1 00082V11 1 00505W11 1 34015
0269999999148151954082015005+99999+999999SAO  +999999999V02011359001552200059N019200599+02395+01445102075ADDGD12995+9999999GD23995+9999993GD30995+9999999GD40995+9999999GF106035999999999999999999MA1999999098685EQDN01 00000JPWTH 1QNNE11 1 00299E11 1 00399E11 1 00099E11 1 00099G11U1 99999K11 1 00058L11 1 01200M11 1 29140N11 1 00000Q11 1 10207S11 1 00075V11 1 00804W11 1 34003
0302724956232111954080815003+38067-122517SAO  +0001SRF  V02099999000050015249N0096005N1+01065+00945101565ADDGA1081+001524074GD14085+9999999GD20995+9999999GD30995+9999999GD40995+9999999GF108085999999999999999999MA1999999101525MW1455EQDN01 07000JPWTH 1QNNE11 1 00610E11 1 00099E11 1 00099E11 1 00099G11 1 00005H11 1 16005K11 1 00049L11 1 00600M11 1 29980N11 1 07000Q11 1 10156S11 1 00051V11 1 01010W11 1 00000
0052161000999991954072407004+45433+012383FM-12+001799999V0203401N00151220001CN0120001N9+99999+99999999999ADDAY101999GA1031+030009039MW1011EQDQ01+000022SCOTCV
038899999993822195406101900E+39833-089667SAO  +0179SPI  V02022559005252200059N024000599+03284+02115101394ADDAA101000095GA1999+013724084GA2999+091444024GA3999+999999999GA4999+999999999GD12015+9999999GD23065+9999993GD30005+9999999GD40005+9999999GF106025999999999999999999MA1999999099224EQDN01 00000JPWTH 1QNNE11 1 00201E11 1 00307E11 1 00000E11 1 00000G11U1 99999H11 1 11045H11 1 37300H11 1 00999H11 1 00999K11 1 00070L11 1 01500M11 1 29300N11 1 00000Q11 1 10139S11 1 00091V11 1 00702W11 1 66010
0067483780999991954070900004+16833+100267FM-12+005099999V0201601N001519999999N0100001N9+02561+02441100771ADDAA124000691AY111999GF107991031081012501041071KA1999N+02501MW1011
0066722696999991954041912004+32850-106100SAO  +1251HMN  V0201351N004110600019N0320001N1+01351+00301100801ADDGA1061+060009009GF107991999999999999999999MA1999999087331MW1001
0057224220999991954080800004+65900+034767FM-12+001099999V0203601N00621007801CN0200001N9+01221+00891101051ADDAY121999GF107991071091008001999999MD1310061+9999MW1151
0269999999241351954041410005+45950-112500SAO  +169099999V02027059004650106749N024000599+00335-00115101295ADDGD13995+9999999GD23995+9999999GD30995+9999999GD40995+9999999GF106065999999999999999999MA1999999082565EQDN01 00000JPWTH 1QNNE11 1 00499E11 1 00499E11 1 00099E11 1 00099G11 1 00035K11 1 00030L11 1 01500M11 1 24380N11 1 00000Q11 1 10129S11 1 00038V11 1 00807W11 1 77009
0281999999942251954092807005+46967-123933SAO  +0003HQM  V02009059003152200059N004800599+00784+00725101764ADDGD10995+9999999GD20995+9999999GD30995+9999999GD40995+9999999GF100005999999999999999999MA1999999101694MW1045MW2455EQDN01 07080JPWTH 1QNNE11 1 00099E11 1 00099E11 1 00099E11 1 00099G11U1 99999K11 1 00045L11 1 00300M11 1 30030N11 1 07080Q11 1 10176S11 1 00046V11 1 00000W11 1 33006
0165999999231991954041114005+32833-115667SAO  -001399999V02031559003152200059N048000599+01835+00285101335ADDGF100005999999999999999999MA1999999101495EQDN01 00000JPWTH 1QNNG11U1 99999K11 1 00037L11 1 03000M11 1 29970N11 1 00000Q11 1 10133S11 1 00065V11 1 00000W11 1 88006
0165999999147601954010215005+40850-076117SAO  +0591PKL  V02015859005752200059N019200599-00115-00725102275ADDGF100005999999999999999999MA1999999095095EQDN01 00000JPWTH 1QNNG11U1 99999K11 1 00019L11 1 01200M11 1 28080N11 1 00000Q11 1 10227S11 1 00030V11 1 00000W11 1 54011
0057305140999991954052018004+54417+103250FM-12+036599999V0209991C00001220001CN0100001N9-00221-00611101721ADDAY121999GF108991001001999999001071MD1310051+9999MW1021
0269999999939911954032810005+36133-090933SAO  +008499999V02018059002152200059N016000599+01174+01065101464ADDGD10995+9999999GD20995+9999999GD30995+9999999GD40995+9999999GF100005999999999999999999MA1999999100444EQDN01 00000JPWTH 1QNNE11 1 00099E11 1 00099E11 1 00099E11 1 00099G11U1 99999K11 1 00051L11 1 01000M11 1 29660N11 1 00000Q11 1 10146S11 1 00053V11 1 00000W11 1 55004
0269999999930571954021608005+35167-107900SAO  +1989GNT  V02029359003652200059N048000599-00724-00835102864ADDGD10995+9999999GD20995+9999999GD30995+9999999GD40995+9999999GF100005999999999999999999MA1999999080774EQDN01 00000JPWTH 1QNNE11 1 00099E11 1 00099E11 1 00099E11 1 00099G11U1 99999K11 1 00017L11 1 03000M11 1 23850N11 1 00000Q11 1 10286S11 1 00019V11 1 00000W11 1 78007
028099999924137195408220300E+48600-112367SAO  +1174CTB  V02024859005252200059N096000599+01445+00615101155ADDAA101000095GD12995+9999999GD20995+9999999GD30995+9999999GD40995+9999999GF102025999999999999999999MA1999999087945EQDN01 00000JPWTH 1QNNE11 1 00299E11 1 00099E11 1 00099E11 1 00099G11U1 99999K11 1 00043L11 1 06000M11 1 25970N11 1 00000Q11 1 10115S11 1 00058V11 1 00202W11 1 76010
005883612099999195408130900N-20467-054667BRAZ +0567SBCG V02005019007219999999N020000199+01901+00901102041ADDGF100991999999999999999999MA1102001092411MD1610041+9999
028099999913878195408190100E+31150-081383SAO  +0007SSI  V02018059006252200059N024000599+02895+02335101835ADDAA101000095GD12995+9999999GD20995+9999999GD30995+9999999GD40995+9999999GF102025999999999999999999MA1999999101735EQDN01 00000JPWTH 1QNNE11 1 00299E11 1 00099E11 1 00099E11 1 00099G11U1 99999K11 1 00074L11 1 01500M11 1 30040N11 1 00000Q11 1 10183S11 1 00084V11 1 00202W11 1 55012
0057354970999991954021900004+48950+072850FM-12+065699999V0201801N01291220001CN0010001N9-01391-01501102371ADDAY171999GF108991001001999999021999MD1810121+9999MW1711
017699999914745195410241400E+43200-071517SAO  +010899999V02031559006252200059N064000599+01565+00565102275ADDAA101000095GF100005999999999999999999MA1999999100985EQDN01 00000JPWTH 1QNNG11U1 99999K11 1 00042L11 1 04000M11 1 29820N11 1 00000Q11 1 10227S11 1 00060V11 1 00000W11 1 88012
039472533014827195407181900C+41000-085217SAO  +0249FWA  V02024859005250304849N0240005N9+02785+02065100915ADDAA101000095GA1021+016764084GA2041+030484034GA3999+999999999GA4999+999999999GD12025+9999999GD23045+9999999GD30005+9999999GD40005+9999999GF106065999999999999999999MA1999999098005MW1001EQDN01 00000JPWTH 1QNNE11 1 00202E11 1 00405E11 1 00000E11 1 00000G11 1 00100H11 1 11055H11 1 23100H11 1 00999H11 1 00999K11 1 00069L11 1 01500M11 1 28940N11 1 00000Q11 1 10091S11 1 00082V11 1 00707W11 1 76010
0165999999148531954072004005+42233-083533SAO  +0237YIP  V02022559001552200059N024000599+02225+01675101105ADDGF100005999999999999999999MA1999999098345EQDN01 00000JPWTH 1QNNG11U1 99999K11 1 00062L11 1 01500M11 1 29040N11 1 00000Q11 1 10110S11 1 00072V11 1 00000W11 1 66003
0066727125146231954121213004+46933-067883SAO  +0227LIZ  V0202501N003112200019N0240001N9-01091-01371101591ADDGA1071+045009049GF107991999999999999999999MA1999999098711MW1001
028099999914910195404160400E+45867-095383SAO  +0435AXN  V02031559010352200059N012800599+00175-00445101395ADDAA101000095GD11995+9999993GD20995+9999999GD30995+9999999GD40995+9999999GF101005999999999999999999MA1999999096115EQDN01 00000JPWTH 1QNNE11 1 00199E11 1 00099E11 1 00099E11 1 00099G11U1 99999K11 1 00024L11 1 00800M11 1 28380N11 1 00000Q11 1 10139S11 1 00035V11 1 00100W11 1 88020
0383724565139201954110903003+38950-095667SAO  +0325FOE  V02011359002150609649N0160005N9+01505+00395102535ADDGA1041+036584034GA2021+060964024GA3999+999999999GA4999+999999999GD12045+9999999GD23025+9999999GD30005+9999999GD40005+9999999GF106065999999999999999999MA1999999098545MW1001EQDN01 00000JPWTH 1QNNE11 1 00205E11 1 00402E11 1 00000E11 1 00000G11 1 00200H11 1 23120H11 1 37200H11 1 00999H11 1 00999K11 1 00039L11 1 01000M11 1 29100N11 1 00000Q11 1 10253S11 1 00059V11 1 00707W11 1 34004
039499999923183195410241500E+33433-112017SAO  +034199999V02024859007250182949N004800599+01835-00065100915ADDAA101000095GA1999+999999104GA2999+018294064GA3999+999999999GA4999+999999999GD16015+9999999GD23045+9999999GD30005+9999999GD40005+9999999GF105055999999999999999999MA1999999097055MW1075EQDN01 08300JPWTH 1QNNE11 1 00801E11 1 00405E11 1 00000E11 1 00000G11 1 00060H11 1 98999H11 1 15060H11 1 00999H11 1 00999K11 1 00031L11 1 00300M11 1 28660N11 1 08300Q11 1 10091S11 1 00065V11 1 00606W11 1 76014
0269999999231621954060106005+39383-112517SAO  +1452UZY  V02015859006752200059N048000599+01565+00175100685ADDGD12995+9999999GD20995+9999999GD30995+9999999GD40995+9999999GF102025999999999999999999MA1999999084935EQDN01 00000JPWTH 1QNNE11 1 00299E11 1 00099E11 1 00099E11 1 00099G11U1 99999K11 1 00035L11 1 03000M11 1 25080N11 1 00000Q11 1 10068S11 1 00060V11 1 00202W11 1 54013
0076304330999991954053018004+55783+109550FM-12+047599999V0209991C00001220001CN0500001N9+00391+00001101781ADDAY121999GF102991999051008001001001MD1990051+9999MW1011EQDQ01+000012SCOTLC
039472250012919195405290400C+25900-097433SAO  +0010BRO  V02013559005752200059N0192005N1+02565+02285100685ADDAA101000095GA1031+005184064GA2999+999999999GA3999+999999999GA4999+999999999GD12035+9999999GD20005+9999999GD30005+9999999GD40005+9999999GF103025999999999999999999MA1999999100615MW1001EQDN01 00000JPWTH 1QNNE11 1 00204E11 1 00000E11 1 00000E11 1 00000G11U1 99999H11 1 15017H11 1 00999H11 1 00999H11 1 00999K11 1 00073L11 1 01200M11 1 29710N11 1 00000Q11 1 10068S11 1 00078V11 1 00403W11 1 44011
0074941200999991954050623003-12467+130867FM-12+0027YPDN V0200901N001519999999N0300001N9+02721+02331999999ADDAY101999GA1015+015005085GF101991011011017501999999MA1999999100881MW1001
0383725540149491954111602003+41117-095900SAO  +0314OFF  V02022559004152200059N0160005N9+01065+00395100945ADDGA1011+091444004GA2999+999999999GA3999+999999999GA4999+999999999GD12015+9999999GD20005+9999999GD30005+9999999GD40005+9999999GF101015999999999999999999MA1999999097095MW1001EQDN01 00000JPWTH 1QNNE11 1 00201E11 1 00000E11 1 00000E11 1 00000G11U1 99999H11 1 32300H11 1 00999H11 1 00999H11 1 00999K11 1 00039L11 1 01000M11 1 28670N11 1 00000Q11 1 10094S11 1 00051V11 1 00101W11 1 66008
0269999999947461954053006005+42267-071867SAO  +0300ORH  V02022559001550015249N011200599+01614+01565101084ADDGD13995+9999999GD24995+9999999GD30995+9999999GD40995+9999999GF108085999999999999999999MA1999999097464EQDN01 00000JPWTH 1QNNE11 1 00499E11 1 00699E11 1 00099E11 1 00099G11 1 00005K11 1 00060L11 1 00700M11 1 28780N11 1 00000Q11 1 10108S11 1 00061V11 1 01010W11 1 66003
0070319260999991954070612004+44600+132650FM-12+009699999V0202201N00411220001CN0200001N9+01781+01281100911ADDAY111999GF101991011041008001001001KA1999M+02781MD1310141+9999MW1011
0066107340999991954102423004+49400+008650SAO  +0110EDIE V0202701N008710075019N0064001N9+01351+01241099681ADDGA1081+007509059GF108991999999999999999999MA1999999098441MW1811
0066103840999991954081706004+52467+013400SAO  +0049EDBB V0209991C000010180019N0048001N1+01351+01071101851ADDGA1061+018009059GF107991999999999999999999MA1999999101251MW1451
038899999924033195409111300E+45800-108533SAO  +1087BIL  V02020359002152200059N096000599+01115+00445100915ADDAA101000095GA1999+042674034GA2999+999999999GA3999+999999999GA4999+999999999GD10005+9999999GD20005+9999999GD30005+9999999GD40005+9999999GF100005999999999999999999MA1999999088795EQDN01 00000JPWTH 1QNNE11 1 00000E11 1 00000E11 1 00000E11 1 00000G11U1 99999H11 1 23140H11 1 00999H11 1 00999H11 1 00999K11 1 00040L11 1 06000M11 1 26220N11 1 00000Q11 1 10091S11 1 00052V11 1 00000W11 1 56004
0092478870999991954061303004+33833+132783FM-12+003499999V0203201N005119999999N0140001N9+02441+01721100821ADDAY101999GA1999+008709049GF105991011021017501001081MD1610081+9999MW1011EQDQ01    003SCCGA1
041072518014735195411081900C+42750-073800SAO  +0089ALB  V02029359006252200059N0080005N1+01175+00395102005ADDAA101000095GA1021+010064064GA2021+015244064GA3999+999999999GA4999+999999999GD12025+9999999GD22025+9999999GD30005+9999999GD40005+9999999GF104045999999999999999999MA1999999100915MW1055EQDQ01    003PRSWM1N01 08100JPWTH 1QNNE11 1 00203E11 1 00202E11 1 00000E11 1 00000G11U1 99999H11 1 15033H11 1 15050H11 1 00999H11 1 00999K11 1 00039L11 1 00500M11 1 29800N11 1 08100Q11 1 10200S11 1 00053V11 1 00505W11 1 78012
0269999999265291954012814005+65167-152100SAO  +0073TAL  V02099999000052200059N024000599-04005-04395101965ADDGD10995+9999999GD20995+9999999GD30995+9999999GD40995+9999999GF100005999999999999999999MA1999999101025EQDN01 00000JPWTH 1QNNE11 1 00099E11 1 00099E11 1 00099E11 1 00099G11U1 99999K11 1-00047L11 1 01500M11 1 29830N11 1 00000Q11 1 10196S11 1-00040V11 1 00000W11 1 00000
0281746941137861954121520003+36267-076183SAO  +0004ECG  V02024859007250036649N0064005N9+00565+00335100145ADDGD14995+9999999GD20995+9999999GD30995+9999999GD40995+9999999GF108085999999999999999999MA1999999100105MW1055MW2615EQDN01 02081JPWTH 1QNNE11 1 00699E11 1 00099E11 1 00099E11 1 00099G11 1 00012K11 1 00038L11 1 00400M11 1 29560N11 1 02081Q11 1 10014S11 1 00042V11 1 01010W11 1 76014
039472569024089195408312000C+42917-106467SAO  +1622CPR  V02024859008250335349N0960005N1+03335+00285100855ADDAA101000095GA1081+033534084GA2999+999999999GA3999+999999999GA4999+999999999GD14085+9999999GD20005+9999999GD30005+9999999GD40005+9999999GF108075999999999999999999MA1999999083885MW1001EQDN01 00000JPWTH 1QNNE11 1 00610E11 1 00000E11 1 00000E11 1 00000G11 1 00110H11 1 11110H11 1 00999H11 1 00999H11 1 00999K11 1 00037L11 1 06000M11 1 24770N11 1 00000Q11 1 10085S11 1 00092V11 1 01009W11 1 76016
0130474260999991954081800004+42167+142783FM-12+003499999V0201101N002619999999N0008001N9+02061+01941100161ADDAJ100009199999999AY101999GA1999+999999099GF107991999999999999999999HL10009IA1089IA2999+02789MA1999999099761MD1810031+9999MW1461
017672488023185195410300300B+39500-119783SAO  +134099999V02020359001052200059N024000599+00225-00675102625ADDAA101000095GF100005999999999999999999MA1999999087175EQDN01 00000JPWTH 1QNNG11U1 99999K11 1 00020L11 1 01500M11 1 25740N11 1 00000Q11 1 10262S11 1 00036V11 1 00000W11 1 56002
0102319750999991954042512004+43567+132500FM-12+008899999V0209991C00001220001CN0200001N9+00721+00221101431ADDAA199000691AY181999GF101991011051008001001001KA1999M+01281MW1011EQDQ01+000042APCTENQ02+000312APC3  
0056483270999991954062300004+18783+098817FM-12+031399999V0209991C000019999999N0160001N9+02391+02221100621ADDAY121999GF106991011051008001031061KA1999N+02281MW1031
0067430490999991954112603004+19267+084883FM-12+001799999V0203601N00211220001CN0040001N9+02061+01561101621ADDAA124000091AY101999GF100991001001999999001001KA1999N+01561MW1021
0071064950999991954031706004+50500+006100FM-12+069499999V0200901N00411220001CN0020001N9+00001-00111999999ADDAY101999GF100991001001999999001001KA1999N-00111MA1999999103191MW1021
0383743920146111954082923003+43900-069933SAO  +0021NHZ  V02020359003150762049N0240005N1+01565+01285101805ADDGA1031+045724034GA2021+076204004GA3999+999999999GA4999+999999999GD12035+9999999GD23025+9999999GD30005+9999999GD40005+9999999GF105055999999999999999999MA1999999101565MW1001EQDN01 00000JPWTH 1QNNE11 1 00204E11 1 00402E11 1 00000E11 1 00000G11 1 00250H11 1 23150H11 1 32250H11 1 00999H11 1 00999K11 1 00055L11 1 01500M11 1 29990N11 1 00000Q11 1 10180S11 1 00060V11 1 00606W11 1 56006
0350999999938301954021117005+33867-084300SAO  +0302NCQ  V02024859003150091449N016000599+01504+01335100984ADDGA1999+002444134GA2999+009144064GA3999+036584044GD12035+9999999GD23075+9999999GD34085+9999999GD40995+9999999GF108085999999999999999999MA1999999097394EQDN01 00000JPWTH 1QNNE11 1 00204E11 1 00409E11 1 00610E11 1 00099G11 1 00030H11 1 13008H11 1 15030H11 1 21120K11 1 00056L11 1 01000M11 1 28760N11 1 00000Q11 1 10098S11 1 00059V11 1 01010W11 1 76006
034099999923232195403300100E+38517-121500SAO  +000799999V02011359005250082349N011200599+01065+00945100715ADDAA101002395GA1999+008234064GA2999+015244054GD13055+9999999GD24035+9999999GD30995+9999999GD40995+9999999GF108085999999999999999999MA1999999100615MW1615EQDN01 02000JPWTH 1QNNE11 1 00406E11 1 00604E11 1 00099E11 1 00099G11 1 00027H11 1 15027H11 1 22050K11 1 00049L11 1 00700M11 1 29710N11 1 02000Q11 1 10071S11 1 00051V11 1 01010W11 1 34010
0281999999148261954101103005+42967-083733SAO  +023799999V02018059008850024449N006400599+01835+01725100445ADDGD14995+9999999GD20995+9999999GD30995+9999999GD40995+9999999GF108085999999999999999999MA1999999097705MW1455MW2815EQDN01 02470JPWTH 1QNNE11 1 00699E11 1 00099E11 1 00099E11 1 00099G11 1 00008K11 1 00063L11 1 00400M11 1 28850N11 1 02470Q11 1 10044S11 1 00065V11 1 01010W11 1 55017
019272640014839195407080000C+42950-087900SAO  +0211MKE  V02004559003652200059N0240005N9+01785+01005101505ADDAA101000095GA1001+999999999GF100005999999999999999999MA1999999098985EQDN01 00000JPWTH 1QNNG11U1 99999K11 1 00050L11 1 01500M11 1 29230N11 1 00000Q11 1 10150S11 1 00064V11 1 00000W11 1 22007
