0269999999230901955040720005+36750-108233SAO  +167799999V02022559006250152449N024000599+01395-00505101605ADDGD13995+9999999GD20995+9999999GD30995+9999999GD40995+9999999GF106055999999999999999999MA1999999083245EQDN01 00000JPWTH 1QNNE11 1 00499E11 1 00099E11 1 00099E11 1 00099G11 1 00050K11 1 00023L11 1 01500M11 1 24580N11 1 00000Q11 1 10160S11 1 00057V11 1 00806W11 1 66012
020472525014852195506120700C+41250-080667SAO  +0359YNG  V02022559002652200059N0080005N9+00895+00895100315ADDAA101000095GA1001+999999999GF100005999999999999999999MA1999999096075MW1111MW2445EQDN01 07200JPWTH 1QNNG11U1 99999K11 1 00048L11 1 00500M11 1 28370N11 1 07200Q11 1 10031S11 1 00048V11 1 00000W11 1 66005
009894175099999195503122000N-10580+142220AUST +0061     V0202935N014459999999N999999999+02765+02605999999ADDGA1025+003605085GA2035+999999045GA3025+999999999GF107995024025003605035085MA1999999100245MW1055
0057303640999991955053006004+56500+115667FM-12+047499999V0203401N00871220001CN0200001N9+01111+00281101531ADDAY111999GF104991041021012501001001MD1510051+9999MW1021
0066727855241141955110512004+47617-117650SAO  +0746SKA  V0202001N005112200019N0320001N9+00001-00171102231ADDGA1001+999999999GF100991999999999999999999MA1999999093331MW1001
0165999999148551955100815005+42083-087833SAO  +0197NBU  V02027059003152200059N024000599+01445+00785102455ADDGF100005999999999999999999MA1999999100075EQDN01 00000JPWTH 1QNNG11U1 99999K11 1 00046L11 1 01500M11 1 29550N11 1 00000Q11 1 10245S11 1 00058V11 1 00000W11 1 77006
0110476620999991955060116004+35683+139767FM-12+000699999V0201801N00361008701CN0060001N9+01941+01501101111ADDAY101999GA1999+011709049GA2051+008709089GF108991051999999999071071MW1021EQDQ01+000002SCOLCGQ02+000992SCOLCB
0078474180999991955021218004+42983+144400FM-12+003499999V0202501N00931220001CN0550001N9-00721-01391100721ADDAY101999GF100991001001999999001001IA1319MA1999999100301MD1510001+9999MW1011
0296999999129261955101010005+27683-097283SAO  +0006NGP  V02002359005250182949N016000599+02285+01675101785ADDGA1999+018294064GD14085+9999999GD20995+9999999GD30995+9999999GD40995+9999999GF108085999999999999999999MA1999999101735EQDN01 00000JPWTH 1QNNE11 1 00610E11 1 00099E11 1 00099E11 1 00099G11 1 00060H11 1 15060K11 1 00062L11 1 01000M11 1 30040N11 1 00000Q11 1 10178S11 1 00073V11 1 01010W11 1 12010
0377999999230191955030715005+31833-106400SAO  +1196BIF  V02036059007752200059N112000599+01115-01115102145ADDGA1999+076204024GA2999+999999999GA3999+999999999GA4999+999999999GD14085+9999993GD20005+9999999GD30005+9999999GD40005+9999999GF108035999999999999999999MA1999999088795EQDN01 00000JPWTH 1QNNE11 1 00510E11 1 00000E11 1 00000E11 1 00000G11U1 99999H11 1 37250H11 1 00999H11 1 00999H11 1 00999K11 1 00012L11 1 07000M11 1 26220N11 1 00000Q11 1 10214S11 1 00052V11 1 01004W11 1 11015
0082476710999991955021223004+35550+139783SAO  +0008RJTT V0203381N005110150019N0064001N1+00131-00981101861ADDGA1061+015009059GA2041+090009009GF108991999999999999999999MA1999999101831MW1041
0165999999230191955110310005+31833-106400SAO  +1196BIF  V02011359002152200059N032000599+00785-00285102335ADDGF100005999999999999999999MA1999999088995EQDN01 00000JPWTH 1QNNG11U1 99999K11 1 00027L11 1 02000M11 1 26280N11 1 00000Q11 1 10233S11 1 00046V11 1 00000W11 1 34004
0269999999139811955071300005+37667-095483SAO  +029999999V02011359004152200059N024000599+03115+01725101565ADDGD10995+9999999GD20995+9999999GD30995+9999999GD40995+9999999GF100005999999999999999999MA1999999098105EQDN01 00000JPWTH 1QNNE11 1 00099E11 1 00099E11 1 00099E11 1 00099G11U1 99999K11 1 00063L11 1 01500M11 1 28970N11 1 00000Q11 1 10156S11 1 00088V11 1 00000W11 1 34008
0269999999038491955050922005+37083-084083SAO  +036899999V02036059000550609649N024000599+02395+00505101965ADDGD13995+9999999GD20995+9999999GD30995+9999999GD40995+9999999GF107045999999999999999999MA1999999097775EQDN01 00000JPWTH 1QNNE11 1 00499E11 1 00099E11 1 00099E11 1 00099G11 1 00200K11 1 00041L11 1 01500M11 1 28870N11 1 00000Q11 1 10196S11 1 00075V11 1 00905W11 1 11001
0073267300999991955092712004+54633+025283FM-12+018999999V0202701N00211001801CN0060001N9+01001+01001101331ADDAY161999GA1081+001809049GF108991081071001501999999MD1210011+9999MW1101
017699999914765195505160200E+41733-071433SAO  +002299999V02018059004152200059N024000599+01115+00675102035ADDAA101000095GF100005999999999999999999MA1999999101795EQDN01 00000JPWTH 1QNNG11U1 99999K11 1 00044L11 1 01500M11 1 30060N11 1 00000Q11 1 10203S11 1 00052V11 1 00000W11 1 55008
0383702190266151955032609003+60783-161717SAO  +0005BET  V02009059004152200059N0240005N1-00285-00505099565ADDGA1999+036584034GA2999+060964004GA3999+999999999GA4999+999999999GD10005+9999999GD20005+9999999GD30005+9999999GD40005+9999999GF100005999999999999999999MA1999999099425MW1001EQDN01 00000JPWTH 1QNNE11 1 00000E11 1 00000E11 1 00000E11 1 00000G11U1 99999H11 1 23120H11 1 32200H11 1 00999H11 1 00999K11 1 00023L11 1 01500M11 1 29360N11 1 00000Q11 1 09956S11 1 00027V11 1 00000W11 1 33008
0377999999107151955011723005+09367-079900SAO  +0004MBFS V02036059002650304849N016000599+02675+02335101065ADDGA1999+006104084GA2999+009144064GA3999+030484034GA4999+999999999GD12025+9999999GD22025+9999999GD33035+9999999GD40005+9999999GF107075999999999999999999MA1999999101025EQDN01 00000JPWTH 1QNNE11 1 00202E11 1 00203E11 1 00404E11 1 00000G11 1 00100H11 1 11020H11 1 15030H11 1 23100H11 1 00999K11 1 00074L11 1 01000M11 1 29830N11 1 00000Q11 1 10106S11 1 00080V11 1 00909W11 1 11005
0383724956232111955112115003+38067-122517SAO  +0001SRF  V02029359004652200059N0320005N1+00945+00505101695ADDGA1999+036584034GA2999+999999999GA3999+999999999GA4999+999999999GD10005+9999999GD20005+9999999GD30005+9999999GD40005+9999999GF100005999999999999999999MA1999999101665MW1001EQDN01 00000JPWTH 1QNNE11 1 00000E11 1 00000E11 1 00000E11 1 00000G11U1 99999H11 1 23120H11 1 00999H11 1 00999H11 1 00999K11 1 00041L11 1 02000M11 1 30020N11 1 00000Q11 1 10169S11 1 00049V11 1 00000W11 1 78009
030799999914895195502010700E+40917-081433SAO  +037099999V02022559007750085349N012800599+00005-00285101355ADDAA101000095GA1999+008534064GD14085+9999999GD20995+9999999GD30995+9999999GD40995+9999999GF108085999999999999999999MA1999999096755EQDN01 00000JPWTH 1QNNE11 1 00610E11 1 00099E11 1 00099E11 1 00099G11 1 00028H11 1 15028K11 1 00027L11 1 00800M11 1 28570N11 1 00000Q11 1 10135S11 1 00032V11 1 01010W11 1 66015
0114986450999991955051901004+10333+123900SAO  +0035RPMC V0200681N001010270019N0240001N1+02911+02631101231ADDGA1021+006009089GA2021+012009059GA3031+027009039GA4011+075009029GF108991999999999999999999MA1999999100711MW1001
0066042020999991955120206004+76550-068800SAO  +0077BGTL V0200901N005112200019N0160001N9-02421-02921099291ADDGA1051+015009059GF107991999999999999999999MA1999999098171MW1001
0058942990999991955090605004-16300+149817FM-12+000899999V0201101N007219999999N0400001N9+02671+01831999999ADDAY101999GF102991021011012501999999MA1999999101231MW1001
0066106100999991955121303004+49950+006567SAO  +0375EDAB V0200701N008212200019N0080001N9-00391-00551101561ADDGA1001+999999999GF100991999999999999999999MA1999999096921MW1051
0081117820999991955121518004+49783+018267FM-12+025799999V0202501N00411220001CN0040001N9+00221+00111099321ADDAA199000391AY121999GF102991021001022501041001KA1999M+00221MD1710171+9999MW1051
0269999999147411955092407005+41150-079100SAO  +042799999V02022559006250076249N011200599+01725+01615101325ADDGD12995+9999999GD24995+9999999GD30995+9999999GD40995+9999999GF108085999999999999999999MA1999999096315EQDN01 00000JPWTH 1QNNE11 1 00299E11 1 00699E11 1 00099E11 1 00099G11 1 00025K11 1 00061L11 1 00700M11 1 28440N11 1 00000Q11 1 10132S11 1 00063V11 1 01010W11 1 66012
0101042310999991955060823004+67017-050800SAO  +0050BGSF V0200231N004110045019N0192001N1+00581+00521101931ADDGA1031+001509079GA2051+004509049GF108991999999999999999999MA1999999101251MW1611EQDQ01    003PRSWM1
0383999999148531955021815005+42233-083533SAO  +0237YIP  V02011359005250030549N006400599-00115-00285103105ADDGA1999+003054074GA2999+999999999GA3999+999999999GA4999+999999999GD13055+9999999GD20005+9999999GD30005+9999999GD40005+9999999GF105055999999999999999999MA1999999100105MW1045EQDN01 08200JPWTH 1QNNE11 1 00406E11 1 00000E11 1 00000E11 1 00000G11 1 00010H11 1 16010H11 1 00999H11 1 00999H11 1 00999K11 1 00027L11 1 00400M11 1 29560N11 1 08200Q11 1 10310S11 1 00030V11 1 00606W11 1 34010
0085103840999991955072304004+52467+013400SAO  +0049EDBB V0203151N004610045019N0036001N1+01571+01411101891ADDGA1081+004509079GF108991999999999999999999MA1999999101291MW1451EQDQ01+999990APOSLP
0059477400999991955081407004+36200+133333FM-12+002899999V0200501N00671012301CN0450001N9+02611+01941100741ADDAY101999GA1031+999999999GF106991061021012501001001MW1011
0101747950128671955031917004+28233-080600SAO  +0006COF  V0201101N002612200019N0160001N9+02241+02071101961ADDGA1999+004509999GA2011+075009009GF102991999999999999999999MA1999999101901MW1001EQDQ01    003SCCGA1
0059161200999991955032613004+44400+008967FM-12+009899999V0201701N00621009001CN0080001N9+99999+99999999999ADDAY121999GA1061+009009059GF106991999999999999999999MW1051
0066042020999991955090403004+76550-068800SAO  +0077BGTL V0209991C000012200019N0400001N9-00201-00761099321ADDGA1011+010509059GF102991999999999999999999MA1999999098311MW1001
0269999999242841955123001005+43417-124250SAO  +000999999V02004559005252200059N024000599+00395-00115102245ADDGD10995+9999999GD20995+9999999GD30995+9999999GD40995+9999999GF100005999999999999999999MA1999999102175EQDN01 00000JPWTH 1QNNE11 1 00099E11 1 00099E11 1 00099E11 1 00099G11U1 99999K11 1 00030L11 1 01500M11 1 30170N11 1 00000Q11 1 10224S11 1 00039V11 1 00000W11 1 22010
0187722535129091955040302003+29383-098567SAO  +0208SKF  V02013559003152200059N0192005N9+02395+00675100805ADDGA1001+999999999GF100005999999999999999999MA1999999098375MW1001EQDN01 00000JPWTH 1QNNG11U1 99999K11 1 00044L11 1 01200M11 1 29050N11 1 00000Q11 1 10080S11 1 00075V11 1 00000W11 1 44006
018299999914819195511200400E+41783-087750SAO  +0187MDW  V02024859002152200059N004800599-00505-00725102745ADDAA101000095GF100005999999999999999999MA1999999100345MW1045EQDN01 08000JPWTH 1QNNG11U1 99999K11 1 00019L11 1 00300M11 1 29630N11 1 08000Q11 1 10274S11 1 00023V11 1 00000W11 1 76004
019872645014898195506210500C+44483-088133SAO  +0213GRB  V02027059005252200059N0240005N1+01675+01505101195ADDAA101000095GA1001+999999999GF100005999999999999999999MA1999999098655MW1001EQDN01 00000JPWTH 1QNNG11U1 99999K11 1 00059L11 1 01500M11 1 29130N11 1 00000Q11 1 10119S11 1 00062V11 1 00000W11 1 77010
019272511114751195504281300C+40217-076850SAO  +0106CXY  V02033859003152200059N0240005N9+01335+00175101355ADDAA101000095GA1001+999999999GF100005999999999999999999MA1999999100075EQDN01 00000JPWTH 1QNNG11U1 99999K11 1 00035L11 1 01500M11 1 29550N11 1 00000Q11 1 10135S11 1 00056V11 1 00000W11 1 18006
0066471066999991955070805004+37917+127067SAO  +0056RKST V0201601N003112200019N0112001N9+03111+02221999999ADDGA1041+010509089GF102991999999999999999999MA1999999100241MW1001
0100219650999991955050612004+70633+162400FM-12+000699999V0200901N00981002401CN0200001N9-00611-01611101131ADDAA199000691AY131999GF105991051061002501001001KA1999M+99999MD1710121+9999MW1361EQDQ01 -01222ATMX  
0296999999129281955120603005+27517-097800SAO  +001799999V02033859005250121949N016000599+01285+00615101965ADDGA1999+012194064GD14085+9999999GD20995+9999999GD30995+9999999GD40995+9999999GF108085999999999999999999MA1999999101795EQDN01 00000JPWTH 1QNNE11 1 00610E11 1 00099E11 1 00099E11 1 00099G11 1 00040H11 1 15040K11 1 00043L11 1 01000M11 1 30060N11 1 00000Q11 1 10196S11 1 00055V11 1 01010W11 1 18010
0098478080999991955113008004+33583+130450SAO  +0012RJFF V0203381N002610330019N0064001N1+01351+01021101591ADDGA1031+013509089GA2061+033009039GA3061+084009009GF107991999999999999999999MA1999999101491MW1051
0275722597939851955052607003+32783-098067SAO  +0286MWL  V02013559010350609649N0160005N1+02395+02065099815ADDGD14995+9999999GD20995+9999999GD30995+9999999GD40995+9999999GF108085999999999999999999MA1999999096485MW1001EQDN01 00000JPWTH 1QNNE11 1 00699E11 1 00099E11 1 00099E11 1 00099G11 1 00200K11 1 00069L11 1 01000M11 1 28490N11 1 00000Q11 1 09981S11 1 00075V11 1 01010W11 1 44020
039472344013964195506251700C+35333-094367SAO  +0136FSM  V02018059008852200059N0192005N1+03065+02225101195ADDAA101000095GA1999+048774034GA2999+999999999GA3999+999999999GA4999+999999999GD10005+9999999GD20005+9999999GD30005+9999999GD40005+9999999GF100005999999999999999999MA1999999099595MW1001EQDN01 00000JPWTH 1QNNE11 1 00000E11 1 00000E11 1 00000E11 1 00000G11U1 99999H11 1 23160H11 1 00999H11 1 00999H11 1 00999K11 1 00072L11 1 01200M11 1 29410N11 1 00000Q11 1 10119S11 1 00087V11 1 00000W11 1 55017
038899999924215195502270300E+41317-122317SAO  +1078MHS  V02013559003650121949N024000599-00175-00285100145ADDAA101000095GA1999+012194064GA2999+999999999GA3999+999999999GA4999+999999999GD13055+9999999GD20005+9999999GD30005+9999999GD40005+9999999GF105055999999999999999999MA1999999087645EQDN01 00000JPWTH 1QNNE11 1 00406E11 1 00000E11 1 00000E11 1 00000G11 1 00040H11 1 15040H11 1 00999H11 1 00999H11 1 00999K11 1 00027L11 1 01500M11 1 25880N11 1 00000Q11 1 10014S11 1 00029V11 1 00606W11 1 44007
0073475880999991955051903004+38250+140350FM-12+015199999V0202001N00871011701CN0180001N9+01671+01061100191ADDAY101999GA1061+011709059GF107991031011012501031001MD1710091+9999MW1031
0377999999116211955032704005+10683-061617SAO  +0013MCGU V02004559003652200059N024000599+02505+02285101295ADDGA1999+009144084GA2999+999999999GA3999+999999999GA4999+999999999GD12025+9999999GD20005+9999999GD30005+9999999GD40005+9999999GF102025999999999999999999MA1999999101155EQDN01 00000JPWTH 1QNNE11 1 00202E11 1 00000E11 1 00000E11 1 00000G11U1 99999H11 1 11030H11 1 00999H11 1 00999H11 1 00999K11 1 00073L11 1 01500M11 1 29870N11 1 00000Q11 1 10129S11 1 00077V11 1 00202W11 1 22007
039472353013967195512161000C+35400-097600SAO  +0390OKC  V02018059006252200059N0240005N1-00675-01445102475ADDAA101000095GA1031+091444024GA2999+999999999GA3999+999999999GA4999+999999999GD11035+9999993GD20005+9999999GD30005+9999999GD40005+9999999GF103015999999999999999999MA1999999097605MW1001EQDN01 00000JPWTH 1QNNE11 1 00104E11 1 00000E11 1 00000E11 1 00000G11U1 99999H11 1 37300H11 1 00999H11 1 00999H11 1 00999K11 1 00006L11 1 01500M11 1 28820N11 1 00000Q11 1 10247S11 1 00020V11 1 00401W11 1 55012
0187727930242331955081507003+47450-122300SAO  +0122SEA  V02002359005252200059N0240005N1+01335+01065101765ADDGA1001+999999999GF100005999999999999999999MA1999999100105MW1001EQDN01 00000JPWTH 1QNNG11U1 99999K11 1 00051L11 1 01500M11 1 29560N11 1 00000Q11 1 10176S11 1 00056V11 1 00000W11 1 12010
0077427540999991955111112004+22717+075800FM-12+056799999V0203601N00211220001CN0100001N9+02671+00111999999ADDAY101999GF100991001001999999001001KA1999M+02831MW1021REMSYN0121000GPM= 996
0106209640999991955101606004+70583+072617FM-12+999999999V0202701N00981004501CN0020001N9+00111+00001999999ADDAA199002091AY171999GF108991061071004501021999HL10009IA1319IA2999-00789KA1999N-00891MD1310111+9999MW1731
017699999923065195512251000E+39367-101700SAO  +1111GLD  V02099999000052200059N024000599-00615-00675102395ADDAA101000095GF100005999999999999999999MA1999999089375EQDN01 00000JPWTH 1QNNG11U1 99999K11 1 00020L11 1 01500M11 1 26390N11 1 00000Q11 1 10239S11 1 00021V11 1 00000W11 1 00000
0066471530999991955111401004+35183+128933SAO  +0004RKPK V0209991C000012200019N0112001N9+01071+00631102671ADDGA1001+999999999GF100991999999999999999999MA1999999102681MW1001
0070123750999991955113018004+52150+020983FM-12+010999999V0201601N00621220001CN0200001N9-00281-00721102861ADDAY121999GF101991001001999999001011KA1999M-00111MD1710191+9999MW1011
0085471270432161955062110001+36967-127067SAO  +0019RKSG V0202901N006212200019N0240001N9+02351+01801100711ADDGA1999+007509999GF100991999999999999999999MA1999999100511MW1001EQDQ01    003SCCGA1
0350999999242551955073105005+99999+999999SAO  +999999999V02011359004150045749N011200599+01565+01395101305ADDGA1999+002744154GA2999+004574064GA3999+007624064GD12025+9999999GD23045+9999999GD34025+9999999GD40995+9999999GF108085999999999999999999MA1999999101125EQDN01 00000JPWTH 1QNNE11 1 00203E11 1 00405E11 1 00602E11 1 00099G11 1 00015H11 1 17009H11 1 15015H11 1 15025K11 1 00057L11 1 00700M11 1 29860N11 1 00000Q11 1 10130S11 1 00060V11 1 01010W11 1 34008
0082085090999991955071901004+38750-027083SAO  +0058LPLA V0209991C000012200019N0240001N9+02021+01691103061ADDGA1011+007209089GA2011+010209059GF102991999999999999999999MA1999999102471MW1001
0070121350999991955100218004+54600+018817FM-12+000399999V0202901N00311220001CN0200001N9+01111+00781102181ADDAY101999GF100991001001999999001001KA1999M+01611MD1210051+9999MW1011
0269999999232331955100905005+36667-121600SAO  +002499999V02036059002152200059N019200599+01065+01005101835ADDGD10995+9999999GD20995+9999999GD30995+9999999GD40995+9999999GF100005999999999999999999MA1999999101565EQDN01 00000JPWTH 1QNNE11 1 00099E11 1 00099E11 1 00099E11 1 00099G11U1 99999K11 1 00050L11 1 01200M11 1 29990N11 1 00000Q11 1 10183S11 1 00051V11 1 00000W11 1 11004
017699999914764195501262300E+43650-070317SAO  +002499999V02024859005752200059N019200599-00395-01005101635ADDAA101000095GF100005999999999999999999MA1999999101395EQDN01 00000JPWTH 1QNNG11U1 99999K11 1 00014L11 1 01200M11 1 29940N11 1 00000Q11 1 10163S11 1 00025V11 1 00000W11 1 76011
0281999999147761955102700005+43633-072317SAO  +0173LEB  V02099999000050061049N006400599+00335+00285100785ADDGD16995+9999999GD24995+9999999GD30995+9999999GD40995+9999999GF108085999999999999999999MA1999999098655MW1455MW2615EQDN01 02070JPWTH 1QNNE11 1 00899E11 1 00699E11 1 00099E11 1 00099G11 1 00020K11 1 00037L11 1 00400M11 1 29130N11 1 02070Q11 1 10078S11 1 00038V11 1 01010W11 1 00000
0329780160136011955022008003+32367-064683SAO  +0006TXKF V02004559004150073249N0160005N9+01835+01565101595ADDGA1051+007324064GA2081+027434044GD13055+9999999GD24085+9999999GD30995+9999999GD40995+9999999GF108085999999999999999999MA1999999101525MW1001EQDN01 00000JPWTH 1QNNE11 1 00406E11 1 00610E11 1 00099E11 1 00099G11 1 00024H11 1 15024H11 1 21090K11 1 00060L11 1 01000M11 1 29980N11 1 00000Q11 1 10159S11 1 00065V11 1 01010W11 1 22008
0066722175138601955050818004+32633-083600SAO  +0090WRB  V0203201N006210120019N0240001N9+03221+01781101361ADDGA1061+012009089GF107991999999999999999999MA1999999100301MW1001
0035031350999991955031223004+55500-004583SAO  +0020EGPK V0209991C000012200019N0040001N1+00021-00151103041ADDGF100991999999999999999999MW1041
0269999999148501955100900005+44733-085583SAO  +0188TVC  V02018059007752200059N024000599+01115+00675102005ADDGD10995+9999999GD20995+9999999GD30995+9999999GD40995+9999999GF100005999999999999999999MA1999999099665EQDN01 00000JPWTH 1QNNE11 1 00099E11 1 00099E11 1 00099E11 1 00099G11U1 99999K11 1 00044L11 1 01500M11 1 29430N11 1 00000Q11 1 10200S11 1 00052V11 1 00000W11 1 55015
0058915620999991955090221004-18783+168817FM-12+019899999V0200901N003119999999N0450001N9+01941+01331999999ADDAY101999GF104991031011017501999061MA1999999099511MW1001
0324999999432401955062006005+35083+128067SAO  +0008RKPS V02022559004150045749N011200599+02615+02175100305ADDGA1999+004574074GA2999+012194064GA3999+036584034GD13055+9999999GD23065+9999999GD34085+9999999GD40995+9999999GF108085999999999999999999EQDN01 00000JPWTH 1QNNE11 1 00406E11 1 00408E11 1 00610E11 1 00099G11 1 00015H11 1 16015H11 1 15040H11 1 23120K11 1 00071L11 1 00700N11 1 00000Q11 1 10030S11 1 00079V11 1 01010W11 1 66008
0275999999240361955062902005+47050-109450SAO  +1259LWT  V02006859007750274349N064000599+01445+01065100685ADDGD12995+9999999GD24995+9999999GD30995+9999999GD40995+9999999GF108085999999999999999999MA1999999086625MW1955EQDN01 01000JPWTH 1QNNE11 1 00299E11 1 00699E11 1 00099E11 1 00099G11 1 00090K11 1 00051L11 1 04000M11 1 25580N11 1 01000Q11 1 10068S11 1 00058V11 1 01010W11 1 32015
007772217003813195511041200A+32700-083650SAO  +0111MCN  V0209991C000010120019N0112001N1-00151-00531102621ADDAA101000095GA1081+012009059GF108991999999999999999999MA1999999099461MW1001
0043477720999991955061317004+34650+135533FM-12+000899999V0200201N00411220001CN0070001N9+02061+01281101271ADDAY101999GF100991001001999999001001MW1051
0098162890999991955080612004+40883+014283FM-12+006899999V0202301N00411006001CN0070001N9+02831+01781101331ADDAY121999GA1081+006009089GF199999031021008001081001IA1009MD1810061+9999MW1051EQDQ01+000052SCOTCV
0111474040999991955092400004+44367+141700FM-12+000999999V0202501N006719999999N0250001N9+01781+01171101201ADDAJ100009199999999AY101999GA1999+999999029GF102991021021999999001001IA1109MA1999999101081MD1210231+9999MW1011
0057386180999991955070600004+40367+071750FM-12+057799999V0203201N00211015001CN0200001N9+02111+01501100231ADDAY181999GF108991081081017501999999MD1710031+9999MW1021
0275722597939851955010402003+32783-098067SAO  +0286MWL  V02013559003150182949N0400005N1+01895+01675101905ADDGD13995+9999999GD20995+9999999GD30995+9999999GD40995+9999999GF107065999999999999999999MA1999999098445MW1001EQDN01 00000JPWTH 1QNNE11 1 00499E11 1 00099E11 1 00099E11 1 00099G11 1 00060K11 1 00062L11 1 02500M11 1 29070N11 1 00000Q11 1 10190S11 1 00066V11 1 00908W11 1 44006
038899999924243195510142100E+46567-120533SAO  +032499999V02006859002152200059N048000599+01945+00895101395ADDAA101000095GA1999+015244084GA2999+042674034GA3999+999999999GA4999+999999999GD12005+9999999GD20015+9999999GD30005+9999999GD40005+9999999GF101015999999999999999999MA1999999097535EQDN01 00000JPWTH 1QNNE11 1 00200E11 1 00001E11 1 00000E11 1 00000G11U1 99999H11 1 11050H11 1 23140H11 1 00999H11 1 00999K11 1 00048L11 1 03000M11 1 28800N11 1 00000Q11 1 10139S11 1 00067V11 1 00101W11 1 32004
0269999999255061955020714005+59750-154917SAO  +004699999V02033859004152200059N048000599-02835-03615101595ADDGD10995+9999999GD20995+9999999GD30995+9999999GD40995+9999999GF100005999999999999999999MA1999999100955EQDN01 00000JPWTH 1QNNE11 1 00099E11 1 00099E11 1 00099E11 1 00099G11U1 99999K11 1-00033L11 1 03000M11 1 29810N11 1 00000Q11 1 10159S11 1-00019V11 1 00000W11 1 18008
038899999903103195510141700E+35133-111667SAO  +2135FLG  V02018059004652200059N024000599+02065-00115101905ADDAA101000095GA1999+060964004GA2999+999999999GA3999+999999999GA4999+999999999GD11025+9999993GD20005+9999999GD30005+9999999GD40005+9999999GF102005999999999999999999MA1999999079115EQDN01 00000JPWTH 1QNNE11 1 00102E11 1 00000E11 1 00000E11 1 00000G11U1 99999H11 1 32200H11 1 00999H11 1 00999H11 1 00999K11 1 00030L11 1 01500M11 1 23360N11 1 00000Q11 1 10190S11 1 00069V11 1 00200W11 1 55009
0131309350999991955042200004+50367+108750FM-12+077099999V0202901N00511220001CN0500001N9+00001-00891103082ADDAJ100009199999999AY121999GF106991021021012501001011HL10009IA1009IA2999-00619KA1999N-00281MD1210141+9999MW1011EQDQ01+103083APOSLP
0275727976242171955091603003+48800-122533SAO  +0047BLI  V02004559002650213449N0192005N1+01065+00895100445ADDGD12995+9999999GD22995+9999999GD34995+9999999GD40995+9999999GF108085999999999999999999MA1999999099865MW1615EQDN01 02000JPWTH 1QNNE11 1 00299E11 1 00299E11 1 00699E11 1 00099G11 1 00070K11 1 00048L11 1 01200M11 1 29490N11 1 02000Q11 1 10044S11 1 00051V11 1 01010W11 1 22005
0114718790999991955061900004+53567-113517SAO  +0671CYXD V0203601N006710270019N0240001N1+01301+01021100931ADDGA1011+002409079GA2011+006609079GA3021+012009059GA4041+027009039GF107991999999999999999999MA1999999093021MW1001
039472518014735195511292100C+42750-073800SAO  +0089ALB  V02022559005252200059N0240005N1-00615-01565100755ADDAA101000095GA1021+012194084GA2999+999999999GA3999+999999999GA4999+999999999GD12025+9999999GD20005+9999999GD30005+9999999GD40005+9999999GF102025999999999999999999MA1999999099635MW1001EQDN01 00000JPWTH 1QNNE11 1 00203E11 1 00000E11 1 00000E11 1 00000G11U1 99999H11 1 11040H11 1 00999H11 1 00999H11 1 00999K11 1 00004L11 1 01500M11 1 29420N11 1 00000Q11 1 10075S11 1 00021V11 1 00303W11 1 66010
0057299620999991955031106004+53050+090917FM-12+044899999V0202201N00511220001CN0500001N9-01221-01721104901ADDAY101999GF101991001001999999001051MD1710121+9999MW1021
0269999999149911955082421005+44867-091483SAO  +0272EAU  V02013559005250182949N024000599+02335+01675101465ADDGD13995+9999999GD20995+9999999GD30995+9999999GD40995+9999999GF106065999999999999999999MA1999999098245EQDN01 00000JPWTH 1QNNE11 1 00499E11 1 00099E11 1 00099E11 1 00099G11 1 00060K11 1 00062L11 1 01500M11 1 29010N11 1 00000Q11 1 10146S11 1 00074V11 1 00808W11 1 44010
0269999999147411955091620005+41150-079100SAO  +042799999V02031559004652200059N016000599+03065+01335102175ADDGD10995+9999999GD20995+9999999GD30995+9999999GD40995+9999999GF100005999999999999999999MA1999999097165EQDN01 00000JPWTH 1QNNE11 1 00099E11 1 00099E11 1 00099E11 1 00099G11U1 99999K11 1 00056L11 1 01000M11 1 28690N11 1 00000Q11 1 10217S11 1 00087V11 1 00000W11 1 88009
0082722695999991955051113004+32283-106917SAO  +1358LRU  V0209991C000010750019N0480001N1+01351+00521101521ADDGA1021+042009039GA2061+075009029GF107991999999999999999999MA1999999087371MW1001
0088749072999991955032012004+36233-076133SAO  +0007EKV  V0200231N003610024019N0048001N1+00691+00581102511ADDGA1061+002409079GA2021+004509059GF108991999999999999999999MA1999999102401MW1451MW2511
0066722533129621955070713004+29333-099167SAO  +0280HDO  V0201351N005110039019N0192001N1+02461+02131101341ADDGA1051+003909059GF107991999999999999999999MA1999999098511MW1001
0130475880999991955071506004+38250+140350FM-12+015199999V0200901N006219999999N0220001N9+03111+02221101531ADDAJ100009199999999AY101999GA1001+999999999GF102991021011012501001001HL10009IA1009IA2999+00569MA1999999099831MD1710061+9999MW1011
0066745700138401955080608004+39833-084050SAO  +0254FFO  V0209991C000012200019N0112001N9+02441+02111101821ADDGA1061+054009039GF107991999999999999999999MA1999999098921MW1001
0058947670999991955022014004-33950+151167FM-12+000799999V0209991C000019999999N0300001N9+02001+01501999999ADDAY101999GF108991081051012501999999MA1999999102041MW1001
0269999999138711955042617005+33583-085850SAO  +0184ANB  V02031559005252200059N019200599+02175+01065101125ADDGD10995+9999999GD20995+9999999GD30995+9999999GD40995+9999999GF100005999999999999999999MA1999999098925EQDN01 00000JPWTH 1QNNE11 1 00099E11 1 00099E11 1 00099E11 1 00099G11U1 99999K11 1 00051L11 1 01200M11 1 29210N11 1 00000Q11 1 10112S11 1 00071V11 1 00000W11 1 88010
0073466970999991955011100004+25050+121217FM-12+004899999V0200401N00671220001CN0120001N9+00721+99999103221ADDAY121999GA1031+005109079GF108991031061004501999999MD1310101+9999MW1021
0057250520999991955031018004+69717+171833FM-12+999999999V0200901N00311220001CN0100001N9-03281-03501103361ADDAY171999GF108991001001999999001071MD1110071+9999MW1711
0377999999241281955021121005+40900-117800SAO  +1311WMC  V02004559005250914449N064000599+00225-00895102845ADDGA1999+091444024GA2999+999999999GA3999+999999999GA4999+999999999GD14085+9999999GD20005+9999999GD30005+9999999GD40005+9999999GF108055999999999999999999MA1999999087505EQDN01 00000JPWTH 1QNNE11 1 00610E11 1 00000E11 1 00000E11 1 00000G11 1 00300H11 1 37300H11 1 00999H11 1 00999H11 1 00999K11 1 00016L11 1 04000M11 1 25840N11 1 00000Q11 1 10284S11 1 00036V11 1 01006W11 1 22010
0308700260275021955091202003+71300-156783SAO  +0009BRW  V02006859005250015249N0048005N1-00175-00225100445ADDGA1081+001524074GD14085+9999999GD20995+9999999GD30995+9999999GD40995+9999999GF108085999999999999999999MA1999999100375MW1455MW2715EQDN01 04070JPWTH 1QNNE11 1 00610E11 1 00099E11 1 00099E11 1 00099G11 1 00005H11 1 16005K11 1 00028L11 1 00300M11 1 29640N11 1 04070Q11 1 10044S11 1 00029V11 1 01010W11 1 32010
0275727976242171955061010003+48800-122533SAO  +0047BLI  V02022559002652200059N0240005N1+01505+01115101225ADDGD12995+9999999GD21995+9999993GD30995+9999999GD40995+9999999GF104025999999999999999999MA1999999100645MW1001EQDN01 00000JPWTH 1QNNE11 1 00299E11 1 00199E11 1 00099E11 1 00099G11U1 99999K11 1 00052L11 1 01500M11 1 29720N11 1 00000Q11 1 10122S11 1 00059V11 1 00502W11 1 66005
0302704540257041955011819003+51883-176650SAO  +0004PADK V02024859016550061049N0112005N9+00065-00065097325ADDGA1081+006104064GD14085+9999999GD20995+9999999GD30995+9999999GD40995+9999999GF108085999999999999999999MA1999999097295MW1001EQDN01 00000JPWTH 1QNNE11 1 00610E11 1 00099E11 1 00099E11 1 00099G11 1 00020H11 1 15020K11 1 00031L11 1 00700M11 1 28730N11 1 00000Q11 1 09732S11 1 00033V11 1 01010W11 1 76032
0051031350999991955042523004+55500-004583SAO  +0020EGPK V0201801N007710102019N0160001N1+00851+00581100781ADDGA1081+010209049GF108991999999999999999999MW1611
0058062200999991955100715004+53017+004367FM-12+000399999V0203101N01081004501CN0200001N9+01391+01001999999ADDAY181999GF107991061091004501081001MA1999999101401MW1021
017699999913970195506200700E+30533-091150SAO  +0020BTR  V02024859002652200059N012800599+02065+01835101635ADDAA101000095GF100005999999999999999999MA1999999101355EQDN01 00000JPWTH 1QNNG11U1 99999K11 1 00065L11 1 00800M11 1 29930N11 1 00000Q11 1 10163S11 1 00069V11 1 00000W11 1 76005
0073620100999991955041212004+32683+013167FM-12+008499999V0203001N00671220001CN0240001N9+01941+00891101891ADDAY101999GA1031+009009089GF103991031011012501001001MD1710141+9999MW1031
0066747340999991955061818004+32367-106467SAO  +129399999V0201401N002612200019N0960001N9+03021-00701101161ADDGA1001+999999999GF100991999999999999999999MA1999999087271MW1001
038899999993814195504142200E+39050-084667SAO  +027099999V02022559006750167649N024000599+01674+00725100854ADDAA101000095GA1999+016764084GA2999+085344004GA3999+999999999GA4999+999999999GD13065+9999999GD23025+9999999GD30005+9999999GD40005+9999999GF107065999999999999999999MA1999999097704EQDN01 00000JPWTH 1QNNE11 1 00407E11 1 00402E11 1 00000E11 1 00000G11 1 00055H11 1 11055H11 1 32280H11 1 00999H11 1 00999K11 1 00045L11 1 01500M11 1 28850N11 1 00000Q11 1 10085S11 1 00062V11 1 00908W11 1 66013
0081125200999991955022018004+50433+016650FM-12+032099999V0202701N00101007801CN0040001N9-00221-00721099861ADDAA199000691AY121999GF107991071051008001999999KA1999M+00001MD1210211+9999MW1051
0051037720999991955062112004+51483-000450SAO  +0024EGLL V0203151N004619999999N0160001N1+02021+01131102351ADDGA1041+008409999GF107991999999999999999999MW1001
017699999913994195507271300E+38750-090383SAO  +017699999V02027059003652200059N024000599+02945+02285101945ADDAA101000095GF100005999999999999999999MA1999999099935EQDN01 00000JPWTH 1QNNG11U1 99999K11 1 00073L11 1 01500M11 1 29510N11 1 00000Q11 1 10194S11 1 00085V11 1 00000W11 1 77007
0187723825231311955090203003+34583-117383SAO  +0877VCV  V02015859002152200059N0480005N9+03065+00785101155ADDGA1001+999999999GF100005999999999999999999MA1999999091405MW1001EQDN01 00000JPWTH 1QNNG11U1 99999K11 1 00046L11 1 03000M11 1 26990N11 1 00000Q11 1 10115S11 1 00087V11 1 00000W11 1 54004
0377999999127131955121600005+25267-076300SAO  +0010MYEM V02033859005752200059N019200599+02225+01895101345ADDGA1999+005794084GA2999+999999999GA3999+999999999GA4999+999999999GD12035+9999999GD20005+9999999GD30005+9999999GD40005+9999999GF103035999999999999999999MA1999999101055EQDN01 00000JPWTH 1QNNE11 1 00204E11 1 00000E11 1 00000E11 1 00000G11U1 99999H11 1 11019H11 1 00999H11 1 00999H11 1 00999K11 1 00066L11 1 01200M11 1 29840N11 1 00000Q11 1 10134S11 1 00072V11 1 00404W11 1 18011
009374780499999195509071700D+32017-081133SAO  +0013SVN  V0203601N003610420019N0240001N9+02961+02181101151ADDAA101000095GA1021+010509089GA2071+042009039GF107991999999999999999999MA1999999100981MW1001
0066476600999991955010905004+35700+139400SAO  +0098RJTC V0209991C000010360019N0112001N1+00691-00651102331ADDGA1061+036009039GF107991999999999999999999MA1999999101121MW1001
0377999999116311955020814005+18467-066100SAO  +001599999V02011359007250243849N019200599+02565+01615101835ADDGA1999+007624084GA2999+024384034GA3999+999999999GA4999+999999999GD12025+9999999GD23025+9999999GD30005+9999999GD40005+9999999GF105055999999999999999999MA1999999101635EQDN01 00000JPWTH 1QNNE11 1 00203E11 1 00403E11 1 00000E11 1 00000G11 1 00080H11 1 11025H11 1 23080H11 1 00999H11 1 00999K11 1 00061L11 1 01200M11 1 30010N11 1 00000Q11 1 10183S11 1 00078V11 1 00606W11 1 34014
0009985360999991955122900004+12583+122267SAO  +0047RPMR V02099999999999999999N0000001N1+99999+99999999999ADDMW1001
033499999914822195512280700E+42400-083000SAO  +018999999V02009059002150054949N019200599-00565-00835103585ADDAA101000095GA1999+005494064GA2999+042674034GD13065+9999999GD24025+9999999GD30995+9999999GD40995+9999999GF108085999999999999999999MA1999999101155EQDN01 00000JPWTH 1QNNE11 1 00408E11 1 00602E11 1 00099E11 1 00099G11 1 00018H11 1 15018H11 1 23140K11 1 00017L11 1 01200M11 1 29870N11 1 00000Q11 1 10358S11 1 00022V11 1 01010W11 1 33004
0066035881999991955032108004+52317+000917SAO  +006099999V0200901N003112200019N0064001N1+00131-00261099391ADDGA1011+036009039GF102991999999999999999999MA1999999098611MW1051
0269999999939871955080701005+31233-094750SAO  +0089LFK  V02013559001552200059N024000599+02944+02175101664ADDGD10995+9999999GD20995+9999999GD30995+9999999GD40995+9999999GF100005999999999999999999MA1999999100544EQDN01 00000JPWTH 1QNNE11 1 00099E11 1 00099E11 1 00099E11 1 00099G11U1 99999K11 1 00071L11 1 01500M11 1 29690N11 1 00000Q11 1 10166S11 1 00085V11 1 00000W11 1 44003
0066983270999991955032405004+15183+120550SAO  +0145RPMK V0200201N003612200019N0402341N9+03221+01721101131ADDGA1031+012009059GF102991999999999999999999MA1999999099461MW1001
0057320760999991955090818004+50400+143767FM-12+000899999V0202201N00211007801CN9999999N9+00891+00721101341ADDAY121999GF108991081051008001999999MD1710031+9999MW1021
019872753014914195503010600C+46900-096800SAO  +0273FAR  V02015859004652200059N0240005N9-02065-02395100945ADDAA101000095GA1001+999999999GF100005999999999999999999MA1999999097435MW1001EQDN01 00000JPWTH 1QNNG11U1 99999K11 1-00011L11 1 01500M11 1 28770N11 1 00000Q11 1 10094S11 1-00005V11 1 00000W11 1 54009
0066722595139111955120504004+32767-097450SAO  +0196FWH  V0200501N004610240019N0240001N9+00781-00061102671ADDGA1081+024009009GF108991999999999999999999MA1999999100301MW1001
0269999999240251955082300005+44383-100283SAO  +052599999V02015859006750243849N024000599+02175+01615100815ADDGD12995+9999999GD23995+9999999GD33995+9999999GD40995+9999999GF106065999999999999999999MA1999999094795EQDN01 00000JPWTH 1QNNE11 1 00299E11 1 00499E11 1 00499E11 1 00099G11 1 00080K11 1 00061L11 1 01500M11 1 27990N11 1 00000Q11 1 10081S11 1 00071V11 1 00807W11 1 54013
039472206013889195505150100C+30417-081650SAO  +0012JAX  V02031559000550365849N0192005N9+02285+01945101465ADDAA101000095GA1061+036584034GA2999+999999999GA3999+999999999GA4999+999999999GD13065+9999999GD20005+9999999GD30005+9999999GD40005+9999999GF106065999999999999999999MA1999999101355MW1001EQDN01 00000JPWTH 1QNNE11 1 00407E11 1 00000E11 1 00000E11 1 00000G11 1 00120H11 1 23120H11 1 00999H11 1 00999H11 1 00999K11 1 00067L11 1 01200M11 1 29930N11 1 00000Q11 1 10146S11 1 00073V11 1 00707W11 1 88001
0066477710999991955111407004+34783+135433SAO  +0015RJOO V0200231N002612200019N0192001N1+01741+00851102671ADDGA1999+012009999GF100991999999999999999999MA1999999102471MW1001
0057263100999991955092512004+57233+022750FM-12+999999999V0201801N00411012301CN0100001N9+01391+00721102581ADDAY121999GF107991071081012501001001MD1710071+9999MW1021
0098727937999991955111006004+47917-122283SAO  +0187PAE  V0203151N004110045019N0112001N1+01191+01191101761ADDGA1021+002709079GA2031+004509059GA3021+009309059GF108991999999999999999999MA1999999099491MW1001
0356725755241011955060321003+41117-111967SAO  +1459HIF  V02018059004650106749N0320005N9+01175+00725101825ADDGA1021+006104154GA2031+010674064GA3021+021344044GD12025+9999999GD23035+9999999GD34025+9999999GD40995+9999999GF108085999999999999999999MA1999999085545MW1615EQDN01 02000JPWTH 1QNNE11 1 00203E11 1 00404E11 1 00603E11 1 00099G11 1 00035H11 1 17020H11 1 15035H11 1 21070K11 1 00045L11 1 02000M11 1 25260N11 1 02000Q11 1 10182S11 1 00053V11 1 01010W11 1 55009
0058946720999991955022406004-34950+138517FM-12+000899999V0201801N005119999999N0400001N9+02331+00781999999ADDAY101999GF100991001001999999999999MA1999999100991MW1001
018272253012921195507060200C+29533-098467SAO  +0240SAT  V02015859005752200059N0240005N1+03005+01945101255ADDAA101000095GF100005999999999999999999MA1999999098515MW1001EQDN01 00000JPWTH 1QNNG11U1 99999K11 1 00067L11 1 01500M11 1 29090N11 1 00000Q11 1 10125S11 1 00086V11 1 00000W11 1 54011
0308726395148081955122214003+44467-083367SAO  +0188OSC  V02020359004150048849N0032005N9-00615-00725100635ADDGA1081+004884134GD14085+9999999GD20995+9999999GD30995+9999999GD40995+9999999GF108085999999999999999999MA1999999098215MW1455MW2715EQDN01 04070JPWTH 1QNNE11 1 00610E11 1 00099E11 1 00099E11 1 00099G11 1 00016H11 1 13016K11 1 00019L11 1 00200M11 1 29000N11 1 04070Q11 1 10063S11 1 00021V11 1 01010W11 1 56008
0101983270999991955030900004+15183+120550SAO  +0145RPMK V0209991C000012200019N0241401N9+02551+01831101431ADDGA1999+012009999GA2081+105009029GF108991999999999999999999MA1999999099731MW1001EQDQ01    003SCCGA1
0117108660999991955082720004+48133+011700FM-12+052799999V0201801N00101220001CN0200001N9+99999+99999999999ADDAJ199999999999999AY101021GA1011+012009089GA2031+060009029GF103991999999999999999999IA1009MW1131EQDQ01  01762SNDP  
0100318290999991955122112004+47317+138817FM-12+002699999V0200701N034019999999N0020001N9-00501-00611099811ADDAA199009091AY171999GF108991999001002501021999KA1999M-00391MD1710421+9999MW1711EQDQ01+000002SCOTLC
031972533014827195512031100C+41000-085217SAO  +0249FWA  V02006859003650003049N0002005N9+00335+00285101525ADDAA101000395GA1091+000304104GD15085+9999999GD20995+9999999GD30995+9999999GD40995+9999999GF108085999999999999999999MA1999999098445MW1455MW2515EQDN01 03370JPWTH 1QNNE11 1 00710E11 1 00099E11 1 00099E11 1 00099G11 1 00001H11 1 45001K11 1 00037L11 1 00012M11 1 29070N11 1 03370Q11 1 10152S11 1 00038V11 1 01010W11 1 32007
0147718711999991955082412004+53350-110833FM-12+062199999V0202701N00101220001CN0240001N9+00501+99999101141ADDAJ199999999999999AL10600091AY101999GF100991001001999999001001KA1999M+02281KA2999N+00441MW1021EQDQ01+000042APCTENQ02+000012APC3  Q03  04472SNDP  
039499999914758195509151500E+41267-072883SAO  +000299999V02024859006752200059N009600599+02335+01725101805ADDAA101000095GA1999+006104084GA2999+073154004GA3999+999999999GA4999+999999999GD12025+9999999GD22025+9999999GD30005+9999999GD40005+9999999GF104035999999999999999999MA1999999101765MW1055EQDN01 08100JPWTH 1QNNE11 1 00203E11 1 00202E11 1 00000E11 1 00000G11U1 99999H11 1 11020H11 1 32240H11 1 00999H11 1 00999K11 1 00063L11 1 00600M11 1 30050N11 1 08100Q11 1 10180S11 1 00074V11 1 00504W11 1 76013
0085725377148041955061622004+42600-082817SAO  +0177MTC  V0201801N004112200019N0240001N9+02801+01521101821ADDGA1999+078009999GF100991999999999999999999MA1999999099661MW1001EQDQ01    003SCCGA1
0383722535129091955101222003+29383-098567SAO  +0208SKF  V02024859003152200059N0240005N9+03285+01835100965ADDGA1031+012194084GA2999+999999999GA3999+999999999GA4999+999999999GD12035+9999999GD20005+9999999GD30005+9999999GD40005+9999999GF103035999999999999999999MA1999999098585MW1001EQDN01 00000JPWTH 1QNNE11 1 00204E11 1 00000E11 1 00000E11 1 00000G11U1 99999H11 1 11040H11 1 00999H11 1 00999H11 1 00999K11 1 00065L11 1 01500M11 1 29110N11 1 00000Q11 1 10096S11 1 00091V11 1 00404W11 1 76006
0269999999931291955062605005+37700-113100SAO  +171399999V02099999000050548649N024000599+01894-00725100804ADDGD13995+9999999GD20995+9999999GD30995+9999999GD40995+9999999GF105055999999999999999999MA1999999082564EQDN01 00000JPWTH 1QNNE11 1 00499E11 1 00099E11 1 00099E11 1 00099G11 1 00180K11 1 00019L11 1 01500M11 1 24380N11 1 00000Q11 1 10080S11 1 00066V11 1 00606W11 1 00000
0011476570999991955032309004+35117+138933FM-12+002299999V0201101N003619999999N9999999N9+01221+99999999999ADDAY101999
0051037720999991955012505004+51483-000450SAO  +0024EGLL V0202481N003110009019N0016001N1+00521+00521102311ADDGA1081+000909999GF108991999999999999999999MW1511
0275722486139421955122211005+32517-092050SAO  +0029MLU  V02099999000050061049N009600599+00565+00285101905ADDGD13995+9999999GD24995+9999999GD30995+9999999GD40995+9999999GF108085999999999999999999MA1999999101595MW1055EQDN01 08100JPWTH 1QNNE11 1 00499E11 1 00699E11 1 00099E11 1 00099G11 1 00020K11 1 00037L11 1 00600M11 1 30000N11 1 08100Q11 1 10190S11 1 00042V11 1 01010W11 1 00000
0082466960999991955012104004+25067+121550SAO  +0006RC55 V0200901N004610120019N0096001N1+01411+00961102591ADDGA1021+005409089GA2081+012009009GF108991999999999999999999MA1999999102471MW1001
006094999900355195501041700N-42830+147480AUST +0010     V0203155N004659999999N999999999+01305+00305999999ADDGA1035+012005085GF103995034025012005999999MA1999999100445
0066042700999991955100714004+61183-045417SAO  +0026BGBW V0209991C000012200019N0240001N1+00021-00651101191ADDGA1031+030009039GF102991999999999999999999MA1999999100611MW1001
0057315380999991955121006004+50067+132133FM-12+031499999V0209991C00001220001CN0200001N9-02111-02391101851ADDAY121999GF107991001001999999001011MD1710121+9999MW1021
0092040050999991955110100004+66167-023567FM-12+002299999V0200501N00771004501CN0100001N9+00221-00111100161ADDAY171061GA1999+000159999GF108991061061004501021999MD1610081+9999MW1711EQDQ01    003SCCGA1
0074947910999991955072905003-30150+153117FM-12+0021YSCH V0202701N003619999999N0450001N9+01891+00171999999ADDAY101999GA1015+021005085GF101991011011022501999999MA1999999101131MW1001
0383999999433241955101704005+34150+132233SAO  +0003RJOI V02011359001550426749N009600599+02115+01675101665ADDGA1999+007624084GA2999+042674034GA3999+060964014GA4999+999999999GD12015+9999999GD23065+9999999GD34025+9999999GD40005+9999999GF108075999999999999999999MA1999999101595MW1045EQDN01 08200JPWTH 1QNNE11 1 00201E11 1 00407E11 1 00602E11 1 00000G11 1 00140H11 1 11025H11 1 23140H11 1 39200H11 1 00999K11 1 00062L11 1 00600M11 1 30000N11 1 08200Q11 1 10166S11 1 00070V11 1 01009W11 1 34003
0066042700999991955061704004+61183-045417SAO  +0026BGBW V0200451N009310240019N0240001N1+01461+00961100101ADDGA1071+024009039GF107991999999999999999999MA1999999099591MW1001
0075478000999991955010713004+34200+129300FM-12+002399999V0203601N00311012301CN0400001N9+00281-00441103811ADDAY101999GA1999+057009079GA2031+999999999GF107991071051012501001001MW1031
006894578599999195505211700N-27430+153080AUST +0006YBBN V0202255N003659999999N999999999+01285+00905999999ADDAY154999GA1005+999999999GF100995004999999999999999MA1999999101935
0112307810999991955051500004+52750+120033FM-12+036099999V0203601N00621220001CN0100001N9+01501+00001099971ADDAJ100009199999999AY121999GF106991001001999999001011HL10009IA1009IA2999+01229KA1999N+01221MD1210201+9999MW1011
0377999999139571955031806005+32467-093817SAO  +0077SHV  V02018059005252200059N019200599+02005+01675101255ADDGA1999+024384034GA2999+999999999GA3999+999999999GA4999+999999999GD12025+9999999GD20005+9999999GD30005+9999999GD40005+9999999GF102025999999999999999999MA1999999100345EQDN01 00000JPWTH 1QNNE11 1 00203E11 1 00000E11 1 00000E11 1 00000G11U1 99999H11 1 23080H11 1 00999H11 1 00999H11 1 00999K11 1 00062L11 1 01200M11 1 29630N11 1 00000Q11 1 10125S11 1 00068V11 1 00303W11 1 55010
0070110100999991955122006004+48233+014183FM-12+030199999V0201001N00151220001CN0070001N9-00391-00391101131ADDAY101061GF100991001001999999001001KA1999N-00391MD1710151+9999MW1021
0058943350999991955092412004-20667+140500FM-12+018899999V0201601N002619999999N0700001N9+02281-00111999999ADDAY101999GF100991001001999999999999MA1999999099271MW1001
0329999999433131955052314005+35750+139350SAO  +0139RJTY V02011359001550091449N006400599+01445+01175102025ADDGA1999+007624064GA2999+009144064GD12025+9999999GD24085+9999999GD30995+9999999GD40995+9999999GF108085999999999999999999MA1999999100345MW1445EQDN01 07200JPWTH 1QNNE11 1 00202E11 1 00610E11 1 00099E11 1 00099G11 1 00030H11 1 15025H11 1 15030K11 1 00053L11 1 00400M11 1 29630N11 1 07200Q11 1 10202S11 1 00058V11 1 01010W11 1 34003
0043164600999991955112920004+37467+015067FM-12+001699999V0209991C00001220001CN0150001N9+99999+99999999999ADDAY101999GF100991999999999999999999MW1011
0066702650999991955010805004+64650-147067SAO  +0167PAEI V0209991C000012200019N0032191N9-03501-03831102181ADDGA1021+060009029GF102991999999999999999999MA1999999099861MW1451
0329703500255011955052207003+57750-152500SAO  +0034ADQ  V02013559010350030549N0096005N1+00445+00395102095ADDGA1051+003054064GA2031+006104074GD13055+9999999GD24035+9999999GD30995+9999999GD40995+9999999GF108085999999999999999999MA1999999101635MW1615EQDN01 02000JPWTH 1QNNE11 1 00406E11 1 00604E11 1 00099E11 1 00099G11 1 00010H11 1 15010H11 1 16020K11 1 00039L11 1 00600M11 1 30010N11 1 02000Q11 1 10209S11 1 00040V11 1 01010W11 1 44020
0383727827241101955122305003+47183-119333SAO  +0361MWH  V02020359004652200059N0240005N9+00175-00175099635ADDGA1021+076204004GA2999+999999999GA3999+999999999GA4999+999999999GD11025+9999993GD20005+9999999GD30005+9999999GD40005+9999999GF102015999999999999999999MA1999999095295MW1001EQDN01 00000JPWTH 1QNNE11 1 00102E11 1 00000E11 1 00000E11 1 00000G11U1 99999H11 1 32250H11 1 00999H11 1 00999H11 1 00999K11 1 00029L11 1 01500M11 1 28140N11 1 00000Q11 1 09963S11 1 00035V11 1 00201W11 1 56009
0269999999242841955060617005+43417-124250SAO  +000999999V02033859009852200059N024000599+01445+01065101465ADDGD10995+9999999GD20995+9999999GD30995+9999999GD40995+9999999GF100005999999999999999999MA1999999101395EQDN01 00000JPWTH 1QNNE11 1 00099E11 1 00099E11 1 00099E11 1 00099G11U1 99999K11 1 00051L11 1 01500M11 1 29940N11 1 00000Q11 1 10146S11 1 00058V11 1 00000W11 1 18019
010183721099999195512111800N-23000-047133BRAZ +0661SBKP V02001019005719999999N020000199+03221+01501999999ADDAA101000091GA1021+007001061GA2061+060001021GF108991999999999999999999MA1100881094621MD1710271+9999
0383722655230051955071310003+32233-101500SAO  +0784BGS  V02018059004152200059N0240005N1+02505+01615101355ADDGA1011+076204004GA2999+999999999GA3999+999999999GA4999+999999999GD12015+9999999GD20005+9999999GD30005+9999999GD40005+9999999GF101015999999999999999999MA1999999092725MW1001EQDN01 00000JPWTH 1QNNE11 1 00201E11 1 00000E11 1 00000E11 1 00000G11U1 99999H11 1 32250H11 1 00999H11 1 00999H11 1 00999K11 1 00061L11 1 01500M11 1 27380N11 1 00000Q11 1 10135S11 1 00077V11 1 00101W11 1 55008
0066716240999991955030502004+43683-079633SAO  +0176CYYZ V0203601N003610042019N0128001N1-00311-00371101531ADDGA1081+004209079GF108991999999999999999999MA1999999099321MW1001
0057931980999991955050518004-37683+178550FM-12+001699999V0203601N00981002401CN0100001N9+01781+01611102651ADDAY181999GF108991081031002501999999MD1510001+9999MW1251
030799999913876195501110100E+33567-086750SAO  +019299999V02027059009850045749N019200599+00675+00395101275ADDAA101000095GA1999+004574064GD14085+9999999GD20995+9999999GD30995+9999999GD40995+9999999GF108085999999999999999999MA1999999098985EQDN01 00000JPWTH 1QNNE11 1 00610E11 1 00099E11 1 00099E11 1 00099G11 1 00015H11 1 15015K11 1 00039L11 1 01200M11 1 29230N11 1 00000Q11 1 10127S11 1 00044V11 1 01010W11 1 77019
0383725755241011955082504003+41117-111967SAO  +1459HIF  V02018059005750426749N0800005N9+02335+01115100895ADDGA1061+042674034GA2021+076204004GA3999+999999999GA4999+999999999GD13065+9999999GD23025+9999999GD30005+9999999GD40005+9999999GF107065999999999999999999MA1999999085105MW1001EQDN01 00000JPWTH 1QNNE11 1 00407E11 1 00402E11 1 00000E11 1 00000G11 1 00140H11 1 23140H11 1 32250H11 1 00999H11 1 00999K11 1 00052L11 1 05000M11 1 25130N11 1 00000Q11 1 10089S11 1 00074V11 1 00908W11 1 55011
0070166250999991955072806004+40933+024417FM-12+006299999V0209991C00001220001CN0250001N9+02501+02001999999ADDAY101999GF100991001001999999001001KA1999N+01781MD1310141+9999MW1001
0089236310999991955070906004+63933+065050FM-12+002099999V0209991C00001220001CN0200001N9+01781+00891101131ADDAY101999GF101991999001999999031001KA1999N+01001MD1710111+9999MW1021EQDQ01+000002SCOTLC
0066725300948461955112315004+41983-087900SAO  +0186ORD  V0202901N007710072019N0080001N9+00131-00091101251ADDGA1081+007209059GF108991999999999999999999MA1999999098811MW1051
0269999999240251955111408005+44383-100283SAO  +052599999V02011359010350057949N032000599-01505-02005102305ADDGD14995+9999999GD20995+9999999GD30995+9999999GD40995+9999999GF108085999999999999999999MA1999999095705EQDN01 00000JPWTH 1QNNE11 1 00699E11 1 00099E11 1 00099E11 1 00099G11 1 00019K11 1-00004L11 1 02000M11 1 28260N11 1 00000Q11 1 10230S11 1 00005V11 1 01010W11 1 34020
011272351013966195505251200D+33983-098517SAO  +0310SPS  V0201401N005710750019N0128001N9+02351+01911100271ADDAA101000095GA1999+030009999GA2061+075009009GF107991999999999999999999MA1999999096751MW1001EQDQ01    003SCCGA1
0092476790999991955012519004+35450+139450SAO  +0061RJTA V0203401N004610105019N0064001N9+00461+00411100921ADDGA1021+999999999GA2051+010509059GA3081+015009059GF108991999999999999999999MA1999999100201
0377999999412311955103004005+14800+120267SAO  +0014RPMB V02004559006250152449N016000599+03175+02395100855ADDGA1999+009144084GA2999+015244084GA3999+076204024GA4999+999999999GD12025+9999999GD23025+9999999GD33025+9999999GD40005+9999999GF107065999999999999999999MA1999999100685EQDN01 00000JPWTH 1QNNE11 1 00203E11 1 00403E11 1 00403E11 1 00000G11 1 00050H11 1 11030H11 1 11050H11 1 37250H11 1 00999K11 1 00075L11 1 01000M11 1 29730N11 1 00000Q11 1 10085S11 1 00089V11 1 00908W11 1 22012
0066085090999991955112417004+38750-027083SAO  +0058LPLA V0201101N004612200019N0176001N9+01741+01071101451ADDGA1021+008109089GF102991999999999999999999MA1999999100851MW1001
0275727935242341955050421003+47533-122300SAO  +0009BIF  V02031559005752200059N0240005N1+01725+00005102175ADDGD10995+9999999GD20995+9999999GD30995+9999999GD40995+9999999GF100005999999999999999999MA1999999102075MW1001EQDN01 00000JPWTH 1QNNE11 1 00099E11 1 00099E11 1 00099E11 1 00099G11U1 99999K11 1 00032L11 1 01500M11 1 30140N11 1 00000Q11 1 10217S11 1 00063V11 1 00000W11 1 88011
0066471070999991955061522004+37750+128933SAO  +0027RKNN V0209991C000010048019N0080001N1+01911+01801100441ADDGA1081+004809059GF108991999999999999999999MA1999999100341MW1451
0070122950999991955100618004+53100-023167FM-12+015199999V0201401N00101220001CN0100001N9+01111+01001101321ADDAY101999GF102991021051008001001001KA1999M+01891MD1310051+9999MW1011
0057067500999991955022509004+46650+008617FM-12+228499999V0201601N008219999999N0300001N9-00721-00891999999ADDAY171999GF107991071071999999999999MD1810031+9999MW1711
0117722615220011955061421004+29367-100783SAO  +032999999V0201401N005112200019N0240001N9+03131+02071100941ADDGA1999+012009999GA2021+036009039GA3041+090009009GF107991999999999999999999MA1999999097191MW1001EQDQ01    003SCCGA1
033572406093721195509200200C+39183-076667SAO  +0045BAL  V02004559007750033549N0080005N1+02225+02175100445ADDAA101000395GA1081+003354064GD14085+9999999GD20995+9999999GD30995+9999999GD40995+9999999GF108085999999999999999999MA1999999099905MW1455MW2615EQDQ01    003PRSWM1N01 02070JPWTH 1QNNE11 1 00610E11 1 00099E11 1 00099E11 1 00099G11 1 00011H11 1 15011K11 1 00071L11 1 00500M11 1 29500N11 1 02070Q11 1 10044S11 1 00072V11 1 01010W11 1 22015
0066724505039231955040802004+37617-097267SAO  +0419IAB  V0203401N001512200019N0240001N9+01131-00371102361ADDGA1001+999999999GF100991999999999999999999MA1999999097291MW1001
0084945780999991955092308004-27417+153083FM-12+000499999V0200201N005119999999N0450001N9+02171+01611999999ADDAY101999GF101991011051017501999999KA1999M+02561KA2999N+01331MA1999999101061MW1001
0060620111999991955030921004+32900+013283SAO  +0008HTIP V0202901N008212200019N0036001N9+01461-00201100951ADDGA1091+999999999GF102991999999999999999999MA1999999100851
028099999923070195510220900E+37250-104333SAO  +1749TAD  V02022559007750457249N024000599+01285+00225101395ADDAA101000095GD14995+9999999GD20995+9999999GD30995+9999999GD40995+9999999GF108085999999999999999999MA1999999082705EQDN01 00000JPWTH 1QNNE11 1 00699E11 1 00099E11 1 00099E11 1 00099G11 1 00150K11 1 00036L11 1 01500M11 1 24420N11 1 00000Q11 1 10139S11 1 00055V11 1 01010W11 1 66015
0377999999931021955031112005+39417-118717SAO  +120099999V02099999000052200059N024000599+00284-00175101284ADDGA1999+039624034GA2999+999999999GA3999+999999999GA4999+999999999GD12025+9999999GD20005+9999999GD30005+9999999GD40005+9999999GF102025999999999999999999MA1999999087784EQDN01 00000JPWTH 1QNNE11 1 00203E11 1 00000E11 1 00000E11 1 00000G11U1 99999H11 1 23130H11 1 00999H11 1 00999H11 1 00999K11 1 00029L11 1 01500M11 1 25920N11 1 00000Q11 1 10128S11 1 00037V11 1 00303W11 1 00000
039472208013880195506032300C+32900-080033SAO  +0012CHS  V02015859005752200059N0240005N1+02505+01445101525ADDAA101000095GA1021+076204004GA2999+999999999GA3999+999999999GA4999+999999999GD11025+9999993GD20005+9999999GD30005+9999999GD40005+9999999GF102015999999999999999999MA1101521101355MW1001EQDN01 00000JPWTH 1QNNE11 1 00103E11 1 00000E11 1 00000E11 1 00000G11U1 99999H11 1 32250H11 1 00999H11 1 00999H11 1 00999K11 1 00058L11 1 01500M11 1 29930N11 1 00000Q11 1 10152S11 1 00077V11 1 00301W11 1 54011
0269722486139421955022111005+32517-092050SAO  +0029MLU  V02036059008250091449N019200599+00175-00065102205ADDGD13995+9999999GD24995+9999999GD30995+9999999GD40995+9999999GF108085999999999999999999MA1999999101905EQDN01 00000JPWTH 1QNNE11 1 00499E11 1 00699E11 1 00099E11 1 00099G11 1 00030K11 1 00031L11 1 01200M11 1 30090N11 1 00000Q11 1 10220S11 1 00035V11 1 01010W11 1 11016
0000852470999991955083018004-17850-060783FM-12+039799999V02099999999999999999N9999999N9+99999+99999999999
0082722615220011955100108004+29367-100783SAO  +032999999V0200901N003610900019N0240001N9+02571+02071101391ADDGA1021+012009059GA2061+090009029GF108991999999999999999999MA1999999097631MW1001
039472356013968195509041700C+36200-095900SAO  +0206TUL  V02004559002652200059N0192005N1+02835+01445101825ADDAA101000095GA1011+048774034GA2021+091444004GA3999+999999999GA4999+999999999GD12015+9999999GD22025+9999999GD30005+9999999GD40005+9999999GF102025999999999999999999MA1999999099425MW1001EQDN01 00000JPWTH 1QNNE11 1 00201E11 1 00202E11 1 00000E11 1 00000G11U1 99999H11 1 23160H11 1 32300H11 1 00999H11 1 00999K11 1 00058L11 1 01200M11 1 29360N11 1 00000Q11 1 10182S11 1 00083V11 1 00302W11 1 22005
0383722266138501955042322003+32350-086983SAO  +0063SEM  V02020359010350609649N0240005N1+02895+01505100475ADDGA1011+015244084GA2021+024384034GA3031+060964004GA4999+999999999GD12015+9999999GD22025+9999999GD33035+9999999GD40005+9999999GF106045999999999999999999MA1999999099835MW1001EQDN01 00000JPWTH 1QNNE11 1 00201E11 1 00202E11 1 00404E11 1 00000G11 1 00200H11 1 11050H11 1 23080H11 1 32200H11 1 00999K11 1 00059L11 1 01500M11 1 29480N11 1 00000Q11 1 10047S11 1 00084V11 1 00705W11 1 56020
0329722265138211955012718003+32383-086350SAO  +0053MXF  V02031559006250064049N0112005N9+00895+00565102175ADDGA1051+006404064GA2081+024384034GD13055+9999999GD24085+9999999GD30995+9999999GD40995+9999999GF108085999999999999999999MA1999999101525MW1615EQDN01 02000JPWTH 1QNNE11 1 00406E11 1 00610E11 1 00099E11 1 00099G11 1 00021H11 1 15021H11 1 23080K11 1 00042L11 1 00700M11 1 29980N11 1 02000Q11 1 10217S11 1 00048V11 1 01010W11 1 88012
0066479300999991955121716004+26200+127650SAO  +0004ROAH V0200451N005110120019N0160001N1+01571+00911102111ADDGA1051+012009059GF107991999999999999999999MA1999999102031MW1001
0066749008999991955071114004+53367-000683SAO  +002199999V0200451N003612200019N0200001N1+02301+01691101831ADDGA1021+004509059GF102991999999999999999999MA1999999101561MW1001
0058062450999991955061809004+53483+005133FM-12+000399999V0200601N00311004501CN0200001N9+01001+00391999999ADDAY121999GF106991061051004501001001MA1999999102391MW1031
0377999999340621955081418005+48817+007200SAO  +0313LFQP V02022559001552200059N017600599+01725+01285101775ADDGA1999+012194094GA2999+027434034GA3999+999999999GA4999+999999999GD12015+9999999GD22025+9999999GD30005+9999999GD40005+9999999GF102025999999999999999999MA1999999098075EQDN01 00000JPWTH 1QNNE11 1 00201E11 1 00202E11 1 00000E11 1 00000G11U1 99999H11 1 18040H11 1 23090H11 1 00999H11 1 00999K11 1 00055L11 1 01100M11 1 28960N11 1 00000Q11 1 10177S11 1 00063V11 1 00303W11 1 66003
0066477430999991955121112004+35500+133233SAO  +0006RJOH V0209991C000012200019N0144001N1+00961+00741102341ADDGA1021+010209089GF102991999999999999999999MA1999999102271MW1001
0377999999150271955040517005+53383-002650SAO  +002799999V02020359004650070149N016000599+01565+01225101325ADDGA1999+005494064GA2999+007014064GA3999+010974064GA4999+015244064GD12025+9999999GD23045+9999999GD33025+9999999GD44025+9999999GF108085999999999999999999MA1999999100985EQDN01 00000JPWTH 1QNNE11 1 00203E11 1 00405E11 1 00402E11 1 00602G11 1 00023H11 1 15018H11 1 15023H11 1 15036H11 1 15050K11 1 00054L11 1 01000M11 1 29820N11 1 00000Q11 1 10132S11 1 00060V11 1 01010W11 1 56009
039472258013960195506120000C+32850-096850SAO  +0153DAL  V02029359008252200059N0240005N1+02505+01115101325ADDAA101000095GA1999+018294084GA2999+999999999GA3999+999999999GA4999+999999999GD10005+9999999GD20005+9999999GD30005+9999999GD40005+9999999GF100005999999999999999999MA1999999099595MW1001EQDN01 00000JPWTH 1QNNE11 1 00000E11 1 00000E11 1 00000E11 1 00000G11U1 99999H11 1 11060H11 1 00999H11 1 00999H11 1 00999K11 1 00052L11 1 01500M11 1 29410N11 1 00000Q11 1 10132S11 1 00077V11 1 00000W11 1 78016
034072641014837195511211400C+43133-089333SAO  +0266MSN  V02006859001050304849N0240005N9-00065-00505102035ADDAA101000095GA1051+030484034GA2031+076204024GD13055+9999999GD24035+9999999GD30995+9999999GD40995+9999999GF108085999999999999999999MA1999999098755MW1001EQDN01 00000JPWTH 1QNNE11 1 00406E11 1 00604E11 1 00099E11 1 00099G11 1 00100H11 1 23100H11 1 37250K11 1 00023L11 1 01500M11 1 29160N11 1 00000Q11 1 10203S11 1 00031V11 1 01010W11 1 32002
0275999999265121955021016005+63883-152283SAO  +021499999V02011359007750121949N016000599-02285-02835101735ADDGD14995+9999999GD20995+9999999GD30995+9999999GD40995+9999999GF108085999999999999999999MA1999999098885MW1715EQDN01 04000JPWTH 1QNNE11 1 00699E11 1 00099E11 1 00099E11 1 00099G11 1 00040K11 1-00019L11 1 01000M11 1 29200N11 1 04000Q11 1 10173S11 1-00009V11 1 01010W11 1 34015
0296999999127121955012120005+26617-078367SAO  +0006MYGM V02015859002650106749N016000599+02005+01005102135ADDGA1999+010674064GD14085+9999999GD20995+9999999GD30995+9999999GD40995+9999999GF108085999999999999999999MA1999999102105EQDN01 00000JPWTH 1QNNE11 1 00610E11 1 00099E11 1 00099E11 1 00099G11 1 00035H11 1 15035K11 1 00050L11 1 01000M11 1 30150N11 1 00000Q11 1 10213S11 1 00068V11 1 01010W11 1 54005
0057319150999991955020706004+44400+131383FM-12+021199999V0202701N01181220001CN0200001N9-00501-01611101491ADDAY101999GF100991001001999999001001MD1210051+9999MW1021
0329724810232031955122222003+37367-120567SAO  +0054MER  V02015859007750076249N0048005N9+01675+01565101365ADDGA1031+001834134GA2081+007624064GD12035+9999999GD24085+9999999GD30995+9999999GD40995+9999999GF108085999999999999999999MA1999999100645MW1615EQDN01 02000JPWTH 1QNNE11 1 00204E11 1 00610E11 1 00099E11 1 00099G11 1 00025H11 1 13006H11 1 15025K11 1 00060L11 1 00300M11 1 29720N11 1 02000Q11 1 10136S11 1 00062V11 1 01010W11 1 54015
038899999924221195503032100E+44117-123217SAO  +0109EUG  V02024859006250076249N016000599+00505+00005102465ADDAA101000095GA1999+007624084GA2999+018294034GA3999+999999999GA4999+999999999GD13055+9999999GD23025+9999999GD30005+9999999GD40005+9999999GF106065999999999999999999MA1999999101055EQDN01 00000JPWTH 1QNNE11 1 00406E11 1 00402E11 1 00000E11 1 00000G11 1 00025H11 1 11025H11 1 23060H11 1 00999H11 1 00999K11 1 00032L11 1 01000M11 1 29840N11 1 00000Q11 1 10246S11 1 00041V11 1 00707W11 1 76012
0075477780999991955070511004+33450+135767FM-12+007599999V0202501N00511011701CN0040001N9+02501+02441100821ADDAY101999GA1999+057009049GA2061+011709039GF108991051071002501071999MW1021
0122260380999991955010506004+59417+024800FM-12+004499999V0202201N00511008401CN0100001N9-00721-00781102191ADDAA199000691AY171999GA1081+008409049GF108991081001008001021999HL10009IA1209IA2999-00789KA1999N-00721MD1710231+9999MW1711
036199999912917195505191600E+29950-094017SAO  +0009BPT  V02013559004650121949N016000599+02505+02285101025ADDAA101000095GA1999+004884064GA2999+012194064GA3999+054864024GD12035+9999999GD23035+9999999GD34025+9999999GD40995+9999999GF108085999999999999999999MA1999999100955EQDN01 00000JPWTH 1QNNE11 1 00204E11 1 00404E11 1 00602E11 1 00099G11 1 00040H11 1 15016H11 1 15040H11 1 37180K11 1 00073L11 1 01000M11 1 29810N11 1 00000Q11 1 10102S11 1 00077V11 1 01010W11 1 44009
038872640014839195512161600C+42950-087900SAO  +0215MKE  V02020359007752200059N0240005N9-01005-01445102015ADDAA101000095GA1021+045724034GA2081+076204024GA3999+999999999GA4999+999999999GD12025+9999999GD24085+9999993GD30005+9999999GD40005+9999999GF108025999999999999999999MA1999999099325EQDN01 00000JPWTH 1QNNE11 1 00202E11 1 00510E11 1 00000E11 1 00000G11U1 99999H11 1 23150H11 1 37250H11 1 00999H11 1 00999K11 1 00006L11 1 01500M11 1 29330N11 1 00000Q11 1 10201S11 1 00014V11 1 01003W11 1 56015
0165999999231181955071205005+39667-119867SAO  +153199999V02022559002152200059N024000599+02005+00225100855ADDGF100005999999999999999999MA1999999084255EQDN01 00000JPWTH 1QNNG11U1 99999K11 1 00036L11 1 01500M11 1 24880N11 1 00000Q11 1 10085S11 1 00068V11 1 00000W11 1 66004
0060476790999991955110113004+35450+139450SAO  +0061RJTA V0203201N002112200019N0048001N9+00911+00851101991ADDGA1091+999999999GF102991999999999999999999MA1999999101251
0165999999948241955052103005+46250-084467SAO  +024599999V02099999000052200059N016000599+01064+00115101784ADDGF100005999999999999999999MA1999999098784EQDN01 00000JPWTH 1QNNG11U1 99999K11 1 00034L11 1 01000M11 1 29170N11 1 00000Q11 1 10178S11 1 00051V11 1 00000W11 1 00000
0057297060999991955091812004+54367+077283FM-12+011699999V0203401N00311220001CN0100001N9+01281+00221101621ADDAY101999GF104991041011012501001001MD1410001+9999MW1021
0057981330999991955031100004+19267+121467FM-12+001399999V0200401N001519999999N0240001N9+02501+02001101761ADDAY121999GF106991041091008001031011MD1210081+9999MW1021
0000853150999991955031818004-20100-063550FM-12+091499999V02099999999999999999N9999999N9+99999+99999999999
0383722266138501955070412003+32350-086983SAO  +0063SEM  V02099999000052200059N0192005N1+02565+02335102105ADDGA1021+042674034GA2051+091444004GA3999+999999999GA4999+999999999GD12025+9999999GD23055+9999993GD30005+9999999GD40005+9999999GF106035999999999999999999MA1999999101465MW1001EQDN01 00000JPWTH 1QNNE11 1 00202E11 1 00306E11 1 00000E11 1 00000G11U1 99999H11 1 23140H11 1 32300H11 1 00999H11 1 00999K11 1 00074L11 1 01200M11 1 29960N11 1 00000Q11 1 10210S11 1 00078V11 1 00804W11 1 00000
0269999999266271955071223005+63883-160800SAO  +0006UNK  V02022559004650304849N024000599+01115+00785100885ADDGD12995+9999999GD22995+9999999GD33995+9999999GD40995+9999999GF106065999999999999999999MA1999999100815EQDN01 00000JPWTH 1QNNE11 1 00299E11 1 00299E11 1 00499E11 1 00099G11 1 00100K11 1 00046L11 1 01500M11 1 29770N11 1 00000Q11 1 10088S11 1 00052V11 1 00808W11 1 66009
039472258013960195510012100C+32850-096850SAO  +0153DAL  V02009059006750762049N0240005N1+02835+02225101905ADDAA101000095GA1011+012194064GA2051+076204024GA3999+999999999GA4999+999999999GD12015+9999999GD23055+9999999GD30005+9999999GD40005+9999999GF106065999999999999999999MA1999999100175MW1001EQDN01 00000JPWTH 1QNNE11 1 00201E11 1 00406E11 1 00000E11 1 00000G11 1 00250H11 1 15040H11 1 37250H11 1 00999H11 1 00999K11 1 00072L11 1 01500M11 1 29580N11 1 00000Q11 1 10190S11 1 00083V11 1 00707W11 1 33013
0083405860999991955101018004+14650+049400FM-12+002399999V0201601N00311220001CN0400001N9+02611+02331101151ADDAA199000091AY101999GA1021+006009999GF102991021051008001001001KA1999M+03001MW1001
0377999999938051955021123005+30433-084333SAO  +002199999V02033859007752200059N024000599+00564-00945102404ADDGA1999+091444004GA2999+999999999GA3999+999999999GA4999+999999999GD11025+9999993GD20005+9999999GD30005+9999999GD40005+9999999GF102005999999999999999999MA1999999102174EQDN01 00000JPWTH 1QNNE11 1 00102E11 1 00000E11 1 00000E11 1 00000G11U1 99999H11 1 32300H11 1 00999H11 1 00999H11 1 00999K11 1 00015L11 1 01500M11 1 30170N11 1 00000Q11 1 10240S11 1 00042V11 1 00200W11 1 18015
038899999924152195503170000E+45500-118400SAO  +1234MEH  V02031559003150304849N024000599-00065-00565102205ADDAA101000095GA1999+021344034GA2999+030484034GA3999+999999999GA4999+999999999GD12025+9999999GD23065+9999999GD30005+9999999GD40005+9999999GF106065999999999999999999MA1999999087745EQDN01 00000JPWTH 1QNNE11 1 00203E11 1 00407E11 1 00000E11 1 00000G11 1 00100H11 1 23070H11 1 23100H11 1 00999H11 1 00999K11 1 00022L11 1 01500M11 1 25910N11 1 00000Q11 1 10220S11 1 00031V11 1 00707W11 1 88006
0057288250999991955090112004+53617+055817FM-12+013099999V0200401N00871220001CN0500001N9+01391+00721101761ADDAY111999GF101991011011012501999999MD1010031+9999MW1021
0108477620999991955101403004+33950+130933FM-12+004899999V0200901N002619999999N0050001N9+01831+01721101051ADDAY101999GA1999+087009039GA2999+057009079GF108991031051008001999999MD1710051+9999MW1611EQDQ01    003SCCGA2
0377999999414061955031206005+13483+144800SAO  +0085PGUM V02011359008252200059N016000599+02445+02285101045ADDGA1999+005494084GA2999+091444024GA3999+999999999GA4999+999999999GD12035+9999999GD23065+9999993GD30005+9999999GD40005+9999999GF106035999999999999999999MA1999999100205EQDN01 00000JPWTH 1QNNE11 1 00204E11 1 00308E11 1 00000E11 1 00000G11U1 99999H11 1 11018H11 1 37300H11 1 00999H11 1 00999K11 1 00073L11 1 01000M11 1 29590N11 1 00000Q11 1 10104S11 1 00076V11 1 00804W11 1 34016
028099999923070195510301500E+37250-104333SAO  +1749TAD  V02024859005252200059N080000599+00565-00505101565ADDAA101000095GD10995+9999999GD20995+9999999GD30995+9999999GD40995+9999999GF100005999999999999999999MA1999999082195EQDN01 00000JPWTH 1QNNE11 1 00099E11 1 00099E11 1 00099E11 1 00099G11U1 99999K11 1 00023L11 1 05000M11 1 24270N11 1 00000Q11 1 10156S11 1 00042V11 1 00000W11 1 76010
0059476620999991955072408004+35683+139767FM-12+000699999V0201801N012319999999N0060001N9+03001+02331100131ADDAY101999GA1031+002709049GF106991041011012501001011MW1021
0050722435999991955082710004+29650-095283SAO  +0019HOU  V0200231N004612200019N0144001N1+02521+02301100951ADDGF100991999999999999999999MA1999999100751MW1001
018272464093058195510121500C+38283-104500SAO  +1416PUB  V02011359002152200059N0960005N9+00895-00175102105ADDAA101000095GF100005999999999999999999MA1999999086155MW1001EQDN01 00000JPWTH 1QNNG11U1 99999K11 1 00029L11 1 06000M11 1 25440N11 1 00000Q11 1 10210S11 1 00048V11 1 00000W11 1 34004
038899999924235195510012000E+42617-123367SAO  +1169SXT  V02027059001052200059N080000599+02065+00565101295ADDAA101000095GA1999+076204004GA2999+999999999GA3999+999999999GA4999+999999999GD13065+9999993GD20005+9999999GD30005+9999999GD40005+9999999GF106025999999999999999999MA1999999088425EQDN01 00000JPWTH 1QNNE11 1 00308E11 1 00000E11 1 00000E11 1 00000G11U1 99999H11 1 32250H11 1 00999H11 1 00999H11 1 00999K11 1 00042L11 1 05000M11 1 26110N11 1 00000Q11 1 10129S11 1 00069V11 1 00802W11 1 77002
0070307080999991955112418004+52100+101583FM-12+999999999V0209991C00001220001CN0500001N9-00781-01501999999ADDAY121999GF107991001001999999041061KA1999M-00281MD1710331+9999MW1021
0269999999116401955042204005+18333-064967SAO  +000299999V02099999000052200059N024000599+02065+01675101465ADDGD10995+9999999GD20995+9999999GD30995+9999999GD40995+9999999GF100995999999999999999999MA1999999101425EQDN01 00000JPWTH 1QNNE11 1 00099E11 1 00099E11 1 00099E11 1 00099G11U1 99999K11 1 00062L11 1 01500M11 1 29950N11 1 00000Q11 1 10146S11 1 00069V11 1 00099W11 1 00000
0072718930999991955010805004+49717-124900SAO  +0023CYQQ V0201351N004610009019N0008001N1+00521+00521101871ADDGA1091+000909999GF109991999999999999999999MA1999999101591MW1451MW2631
0066724240138071955012913004+37900-085967SAO  +0230FTK  V0202301N001012200019N0112001N9-01481-01871102541ADDGA1031+030009039GF102991999999999999999999MA1999999099591MW1001
0323999999038401955092716005+30533-087200SAO  +0040NDP  V02006859006750051849N012800599+02615+02115102305ADDGA1999+004274154GA2999+005184064GD12025+9999999GD24085+9999999GD30995+9999999GD40995+9999999GF108085999999999999999999MA1999999101865EQDN01 00000JPWTH 1QNNE11 1 00203E11 1 00610E11 1 00099E11 1 00099G11 1 00017H11 1 17014H11 1 15017K11 1 00070L11 1 00800M11 1 30080N11 1 00000Q11 1 10230S11 1 00079V11 1 01010W11 1 32013
0043480770999991955010203004+18800+095217FM-12+006099999V0202501N00211220001CN0100001N9+02061+02061101811ADDAY111999GF101991001001999999001011MW1011
038899999913882195508172200E+35033-085200SAO  +021099999V02031559005252200059N032000599+03175+02175100755ADDAA101000095GA1999+013724084GA2999+091444004GA3999+999999999GA4999+999999999GD12025+9999999GD22015+9999999GD30005+9999999GD40005+9999999GF102025999999999999999999MA1999999098345EQDN01 00000JPWTH 1QNNE11 1 00202E11 1 00201E11 1 00000E11 1 00000G11U1 99999H11 1 11045H11 1 32300H11 1 00999H11 1 00999K11 1 00071L11 1 02000M11 1 29040N11 1 00000Q11 1 10075S11 1 00089V11 1 00303W11 1 88010
031399999913897195508160700E+36117-086683SAO  +0177BNA  V02099999000050289649N008000599+02175+02175101325ADDAA101000095GA1999+028964044GD14085+9999999GD20995+9999999GD30995+9999999GD40995+9999999GF108085999999999999999999MA1999999099195MW1455EQDN01 07000JPWTH 1QNNE11 1 00610E11 1 00099E11 1 00099E11 1 00099G11 1 00095H11 1 21095K11 1 00071L11 1 00500M11 1 29290N11 1 07000Q11 1 10132S11 1 00071V11 1 01010W11 1 00000
040472363023047195509120100C+35233-101700SAO  +1100AMA  V02011359005252200059N0240005N1+02115+01065101895ADDAA101000095GA1999+076204004GA2999+999999999GA3999+999999999GA4999+999999999GD10005+9999999GD20005+9999999GD30005+9999999GD40005+9999999GF100005999999999999999999MA1999999089715EQDQ01    003SCCGA1N01 00000JPWTH 1QNNE11 1 00000E11 1 00000E11 1 00000E11 1 00000G11U1 99999H11 1 32250H11 1 00999H11 1 00999H11 1 00999K11 1 00051L11 1 01500M11 1 26490N11 1 00000Q11 1 10189S11 1 00070V11 1 00000W11 1 34010
038899999903928195509121500E+37650-097433SAO  +0406ICT  V02015859007252200059N024000599+02115+00725102225ADDAA101000095GA1999+091444004GA2999+999999999GA3999+999999999GA4999+999999999GD10005+9999999GD20005+9999999GD30005+9999999GD40005+9999999GF100005999999999999999999MA1999999097465EQDN01 00000JPWTH 1QNNE11 1 00000E11 1 00000E11 1 00000E11 1 00000G11U1 99999H11 1 32300H11 1 00999H11 1 00999H11 1 00999K11 1 00045L11 1 01500M11 1 28780N11 1 00000Q11 1 10222S11 1 00070V11 1 00000W11 1 54014
038899999923183195506082000E+33433-112017SAO  +034199999V02027059003652200059N064000599+04175+00945100445ADDAA101000095GA1999+030484084GA2999+091444004GA3999+999999999GA4999+999999999GD10005+9999999GD20005+9999999GD30005+9999999GD40005+9999999GF100005999999999999999999MA1999999096685EQDN01 00000JPWTH 1QNNE11 1 00000E11 1 00000E11 1 00000E11 1 00000G11U1 99999H11 1 11100H11 1 32300H11 1 00999H11 1 00999K11 1 00049L11 1 04000M11 1 28550N11 1 00000Q11 1 10044S11 1 00107V11 1 00000W11 1 77007
0016402650999991955100518004+32333+036233FM-12+068799999V02099999999999999999N9999999N9+99999+99999999999ADDKA1999M+02611
0269999999137341955082414005+39400-077983SAO  +0164MRB  V02036059005752200059N024000599+01895+01335101965ADDGD12995+9999999GD20995+9999999GD30995+9999999GD40995+9999999GF103035999999999999999999MA1999999100035EQDN01 00000JPWTH 1QNNE11 1 00299E11 1 00099E11 1 00099E11 1 00099G11U1 99999K11 1 00056L11 1 01500M11 1 29540N11 1 00000Q11 1 10196S11 1 00066V11 1 00404W11 1 11011
031999999913733195509231400E+37333-079200SAO  +029199999V02004559003150006149N000100599+01565+01565102175ADDAA101000095GA1999+000614104GD15085+9999999GD20995+9999999GD30995+9999999GD40995+9999999GF108085999999999999999999MA1999999098785MW1455MW2515EQDN01 03370JPWTH 1QNNE11 1 00710E11 1 00099E11 1 00099E11 1 00099G11 1 00002H11 1 45002K11 1 00060L11 1 00006M11 1 29170N11 1 03370Q11 1 10217S11 1 00060V11 1 01010W11 1 22006
0056489950999991955061100004+12000+105450FM-12+001699999V0209991C00001220001CN0200001N9+02721+02501100601ADDAY101999GF103991001001999999001011KA1999N+02501MW1021
0043971800999991955071606004-05067+119550FM-12+001499999V0202401N004619999999N0190001N9+03001+02391100841ADDAY101999GF105991041081004501041021MW1151
0082724070937301955072412004+39450-074583SAO  +0024ACY  V0202701N003610300019N0096001N9+02631+02241100931ADDGA1061+030009039GA2011+066009009GF107991999999999999999999MA1999999100711MW1051
0057297420999991955102300004+54667+066183FM-12+027699999V0203201N00311012301CN0005001N9+00001+00001101761ADDAY181999GF108991081091012501999999MD1210161+9999MW1831
0088420830999991955101603004+31100+077167FM-12+220299999V0201601N00101220001CN0200001N9+01281+00671999999ADDAA124004091AY101999GF103991031001999999051001KA1999N+01001MW1031REMSYN0122000GPM= 012
0056307380999991955102012004+52050+108933FM-12+999999999V0202201N00511220001CN0100001N9+00721-00111999999ADDAY121999GF106991001001999999001011KA1999M+00891MW1011
0073271960999991955090606004+58650+049617FM-12+016499999V0202501N00621000901CN0040001N9+01281+01221101051ADDAY161999GA1081+000909079GF108991081061001501999999MD1210041+9999MW1201
0057285860999991955020600004+55867+072200FM-12+012099999V0202701N00101220001CN0100001N9-03391-03611102421ADDAY121999GF108991001001999999031999MD1310081+9999MW1031
0043164600999991955050220004+37467+015067FM-12+001699999V0202701N00311220001CN0200001N9+99999+99999999999ADDAY101999GF100991999999999999999999MW1021
0050749132999991955021815004+60683-046533SAO  +006299999V0202701N012912200019N0400001N1-00151-00591102201ADDGF100991999999999999999999MA1999999101421MW1001
0302725755241011955011923003+41117-111967SAO  +1459HIF  V02022559005750030549N0004005N9-00395-00445101225ADDGA1091+003054104GD15085+9999999GD20995+9999999GD30995+9999999GD40995+9999999GF108085999999999999999999MA1999999084595MW1755EQDN01 04200JPWTH 1QNNE11 1 00710E11 1 00099E11 1 00099E11 1 00099G11 1 00010H11 1 98010K11 1 00024L11 1 00025M11 1 24980N11 1 04200Q11 1 10122S11 1 00025V11 1 01010W11 1 66011
0066467460999991955021121004+23450+120383SAO  +0000RCKU V0203601N005110150019N0096001N1+01351+00961101951ADDGA1081+015009009GF108991999999999999999999MA1999999101661MW1001
0383722745231091955041606003+32183-110883SAO  +0798DMA  V02018059001552200059N0640005N9+01725-00785101325ADDGA1021+076204004GA2999+999999999GA3999+999999999GA4999+999999999GD11025+9999993GD20005+9999999GD30005+9999999GD40005+9999999GF102015999999999999999999MA1999999092215MW1001EQDN01 00000JPWTH 1QNNE11 1 00103E11 1 00000E11 1 00000E11 1 00000G11U1 99999H11 1 32250H11 1 00999H11 1 00999H11 1 00999K11 1 00018L11 1 04000M11 1 27230N11 1 00000Q11 1 10132S11 1 00063V11 1 00301W11 1 55003
0057201070999991955070218004+78067+014217FM-12+002099999V0203201N00411007801CN0500001N9+00391+00001101711ADDAY121999GF107991071051008001999999MD1710121+9999MW1021
0383703500255011955080620003+57750-152500SAO  +0034ADQ  V02031559005252200059N0240005N1+01675+01175100835ADDGA1021+009144084GA2021+024384034GA3999+999999999GA4999+999999999GD12025+9999999GD22025+9999999GD30005+9999999GD40005+9999999GF104035999999999999999999MA1999999100415MW1001EQDN01 00000JPWTH 1QNNE11 1 00203E11 1 00202E11 1 00000E11 1 00000G11U1 99999H11 1 11030H11 1 23080H11 1 00999H11 1 00999K11 1 00053L11 1 01500M11 1 29650N11 1 00000Q11 1 10083S11 1 00062V11 1 00504W11 1 88010
0066749022999991955080805004+40183-074067SAO  +0026BLM  V0202481N002110120019N0048001N1+02351+02301101051ADDGA1081+012009059GF108991999999999999999999MA1999999100751MW1801
0377999999414061955122404005+13483+144800SAO  +0085PGUM V02011359006252200059N024000599+02835+01835100715ADDGA1999+005494084GA2999+091444004GA3999+999999999GA4999+999999999GD12025+9999999GD21025+9999993GD30005+9999999GD40005+9999999GF104025999999999999999999MA1999999099905EQDN01 00000JPWTH 1QNNE11 1 00203E11 1 00102E11 1 00000E11 1 00000G11U1 99999H11 1 11018H11 1 32300H11 1 00999H11 1 00999K11 1 00065L11 1 01500M11 1 29500N11 1 00000Q11 1 10071S11 1 00083V11 1 00502W11 1 34012
0057302530999991955112306004+57850+114200FM-12+027899999V0202501N00311075001CN0200001N9-01391-02001102501ADDAY121999GF108991041051017501001071MD1210051+9999MW1021
0049402650999991955040815004+32333+036233FM-12+068799999V0202801N00871220001CN0240001N9+01331+00281101571ADDAY101999GF103991031021012501001001IA1009MW1001
0383999999938321955050917005+99999+999999SAO  +999999999V02009059003652200059N009600599+03174+01785101774ADDGA1999+010674084GA2999+999999999GA3999+999999999GA4999+999999999GD12015+9999999GD20005+9999999GD30005+9999999GD40005+9999999GF101015999999999999999999MA1999999101494MW1045EQDN01 08000JPWTH 1QNNE11 1 00201E11 1 00000E11 1 00000E11 1 00000G11U1 99999H11 1 11035H11 1 00999H11 1 00999H11 1 00999K11 1 00064L11 1 00600M11 1 29970N11 1 08000Q11 1 10177S11 1 00089V11 1 00101W11 1 33007
0043162390999991955072107004+41800+012600FM-12+013199999V0201801N00411220001CN0120001N9+99999+99999999999ADDAY101999GF100991999999999999999999MW1021
0075782640999991955082119004+19950-075850FM-12+006599999V0203601N00411220001CN0130001N9+02891+02391101051ADDAY111999GA1021+006009099GA2021+007509089GF106991021091008001999999MW1151
0210999999947411955091401005+40850-074050SAO  +0002TEB  V02099999000052200059N016000599+99999+99999999999ADDGD11995+9999993GD20995+9999999GD30995+9999999GD40995+9999999GF104995999999999999999999EQDN01 00000JPWTH 1QNNE11 1 00199E11 1 00099E11 1 00099E11 1 00099G11U1 99999L11 1 01000N11 1 00000V11 1 00599W11 1 00000
0082107140999991955081509004+49217-007400SAO  +0345EDAM V0202501N002610024019N0032001N9+01391+01281102031ADDGA1061+002409079GA2021+007509059GF108991999999999999999999MA1999999098041MW1051
038899999923160195508291100E+32133-110950SAO  +078099999V02013559003650426749N072000599+02395+01785100605ADDAA101000095GA1999+042674034GA2999+999999999GA3999+999999999GA4999+999999999GD13055+9999999GD20005+9999999GD30005+9999999GD40005+9999999GF105055999999999999999999MA1999999092085EQDN01 00000JPWTH 1QNNE11 1 00406E11 1 00000E11 1 00000E11 1 00000G11 1 00140H11 1 23140H11 1 00999H11 1 00999H11 1 00999K11 1 00064L11 1 04500M11 1 27190N11 1 00000Q11 1 10060S11 1 00075V11 1 00606W11 1 44007
0082107380999991955060609004+48683+009200SAO  +0398EDDS V0209991C000012200019N0240001N9+02181+01241101341ADDGA1011+009009089GA2041+075009009GF102991999999999999999999MA1999999096721MW1001
0066749103999991955102922004+48000-066683SAO  +000599999V0200681N001010270019N0240001N1+01131+00691101641ADDGA1061+027009039GF107991999999999999999999MA1999999101631MW1001
0066723927931101955072023004+34200-119200SAO  +0013OXR  V0202251N004612200019N0240001N1+02411+01461101191ADDGA1011+054009039GF102991999999999999999999MA1999999100851MW1001
038872469023062195502220200B+39767-104883SAO  +161599999V02018059002652200059N048000599-01225-01725102645ADDAA101000095GA1999+021344064GA2999+999999999GA3999+999999999GA4999+999999999GD10005+9999999GD20005+9999999GD30005+9999999GD40005+9999999GF100005999999999999999999MA1999999083645EQDN01 00000JPWTH 1QNNE11 1 00000E11 1 00000E11 1 00000E11 1 00000G11U1 99999H11 1 15070H11 1 00999H11 1 00999H11 1 00999K11 1 00001L11 1 03000M11 1 24700N11 1 00000Q11 1 10264S11 1 00010V11 1 00000W11 1 55005
038872263023034195503271200E+99999+999999SAO  +999999999V02099999000050762059N024000599-00445-01615103495ADDAA101000095GA1999+024385035GA2999+076205005GA3999+999999999GA4999+999999999GD12025+9999999GD23075+9999999GD30005+9999999GD40005+9999999GF107065999999999999999999MA1999999096445EQDN01 00000JPWTH 1QNNE11 1 00202E11 1 00409E11 1 00000E11 1 00000G11 1 00250H11 1 23080H11 1 32250H11 1 00999H11 1 00999K11 1 00003L11 1 01500M11 1 28480N11 1 00000Q11 1 10349S11 1 00024V11 1 00908W11 1 00000
0066722860231191955022210004+33900-117250SAO  +0468RIV  V0209991C000012200019N0240001N9+00221-00501102471ADDGA1001+999999999GF100991999999999999999999MA1999999096851MW1001
039472641014837195503171500C+43133-089333SAO  +0266MSN  V02015859004650487749N0240005N9-00675-01445102545ADDAA101000095GA1021+024384034GA2061+048774024GA3999+999999999GA4999+999999999GD12025+9999999GD24065+9999999GD30005+9999999GD40005+9999999GF108065999999999999999999MA1999999099225MW1001EQDN01 00000JPWTH 1QNNE11 1 00202E11 1 00608E11 1 00000E11 1 00000G11 1 00160H11 1 23080H11 1 37160H11 1 00999H11 1 00999K11 1 00006L11 1 01500M11 1 29300N11 1 00000Q11 1 10254S11 1 00020V11 1 01008W11 1 54009
0056489660999991955081600004+13367+103850FM-12+001599999V0201801N001019999999N0100001N9+02501+02501100851ADDAY121999GF107991031051017501001021KA1999N+02391MW1011
0165999999137731955092710005+38500-077300SAO  +0004NYG  V02029359002652200059N011200599+01005+01005102895ADDGF100005999999999999999999MA1999999102845EQDN01 00000JPWTH 1QNNG11U1 99999K11 1 00050L11 1 00700M11 1 30370N11 1 00000Q11 1 10289S11 1 00050V11 1 00000W11 1 78005
0269999999138701955062121005+31533-082517SAO  +0062AMG  V02031559004152200059N024000599+03335+01945101325ADDGD12995+9999999GD20995+9999999GD30995+9999999GD40995+9999999GF102025999999999999999999MA1999999100615EQDN01 00000JPWTH 1QNNE11 1 00299E11 1 00099E11 1 00099E11 1 00099G11U1 99999K11 1 00067L11 1 01500M11 1 29710N11 1 00000Q11 1 10132S11 1 00092V11 1 00303W11 1 88008
0117484550999991955121819004+13733+100500SAO  +002099999V0202031N000510120019N0064001N1+02301+02241100961ADDGA1051+012009059GA2031+036009039GA3041+078009029GF107991999999999999999999MA1999999100771MW1451EQDQ01+999990APOSP 
038899999914820195508111900E+41400-081850SAO  +024599999V02036059007252200059N024000599+02725+01615101665ADDAA101000095GA1999+013724064GA2999+076204004GA3999+999999999GA4999+999999999GD12005+9999999GD20015+9999999GD30005+9999999GD40005+9999999GF101015999999999999999999MA1999999098785EQDN01 00000JPWTH 1QNNE11 1 00200E11 1 00001E11 1 00000E11 1 00000G11U1 99999H11 1 15045H11 1 32250H11 1 00999H11 1 00999K11 1 00061L11 1 01500M11 1 29170N11 1 00000Q11 1 10166S11 1 00081V11 1 00101W11 1 11014
031972745014913195512040200C+46833-092183SAO  +0434DLH  V02006859017050015249N0048005N9-00335-00395101125ADDAA101000395GA1081+001524074GD14085+9999999GD20995+9999999GD30995+9999999GD40995+9999999GF108085999999999999999999MA1999999095805MW1385MW2715EQDN01 04084JPWTH 1QNNE11 1 00610E11 1 00099E11 1 00099E11 1 00099G11 1 00005H11 1 16005K11 1 00025L11 1 00300M11 1 28290N11 1 04084Q11 1 10112S11 1 00026V11 1 01010W11 1 32033
0269999999231951955030907005+32667-114600SAO  +0059YUM  V02013559006250762049N024000599+01835-01065101195ADDGD13995+9999999GD20995+9999999GD30995+9999999GD40995+9999999GF106055999999999999999999MA1999999100445EQDN01 00000JPWTH 1QNNE11 1 00499E11 1 00099E11 1 00099E11 1 00099G11 1 00250K11 1 00013L11 1 01500M11 1 29660N11 1 00000Q11 1 10119S11 1 00065V11 1 00706W11 1 44012
0269999999038161955090716005+37067-088767SAO  +012199999V02031559001050304849N012800599+03225+01675101325ADDGD13995+9999999GD20995+9999999GD30995+9999999GD40995+9999999GF105055999999999999999999MA1999999099865EQDN01 00000JPWTH 1QNNE11 1 00499E11 1 00099E11 1 00099E11 1 00099G11 1 00100K11 1 00062L11 1 00800M11 1 29490N11 1 00000Q11 1 10132S11 1 00090V11 1 00606W11 1 88002
0092620020999991955091400004+31867+010983FM-12+063699999V0200201N01391220001CN0080001N9+01781+01671101781ADDAY101999GF103991031051004501001001MD1210021+9999MW1021EQDQ01+000042APCTENQ02+000022APC3  
0060035963999991955032403004+52117+001433SAO  +0027EGVJ V0201601N005110105019N0048001N9+00741+00631100641ADDGA1081+010509059GF108991999999999999999999MA1999999100301
0052162890999991955031008004+40883+014283FM-12+006899999V0202501N00361220001CN0120001N9+99999+99999999999ADDAY121999GA1061+009009059MW1021EQDQ01+000042SCOTCV
0073031350999991955011403004+55517-004600FM-12+000999999V0209991C00001220001CN0048001N9-00501-00721099531ADDAY101999GA1061+999999049GF107991071051017501999999MD1310041+9999MW1031
038899999923174195503082200E+33933-118383SAO  +003799999V02024859005250548649N012800599+02285+00005101195ADDAA101000095GA1999+054864034GA2999+999999999GA3999+999999999GA4999+999999999GD14085+9999999GD20005+9999999GD30005+9999999GD40005+9999999GF108075999999999999999999MA1999999100815EQDN01 00000JPWTH 1QNNE11 1 00610E11 1 00000E11 1 00000E11 1 00000G11 1 00180H11 1 23180H11 1 00999H11 1 00999H11 1 00999K11 1 00032L11 1 00800M11 1 29770N11 1 00000Q11 1 10119S11 1 00073V11 1 01009W11 1 76010
0094152000999991955051300004+46167+021317FM-12+010999999V0203201N00511220001CN0250001N9+00721+00721101891ADDAY111999GF102991999001999999071001MW1031EQDQ01+000002SCOTLCQ02+000042APCTENQ03+000072APC3  
0082474250999991955070502004+42800+141650SAO  +0027RJCC V0201581N004610840019N0480001N1+02461+01411100411ADDGA1011+009009089GA2061+084009009GF107991999999999999999999MA1999999100071MW1001
0269999999241351955060114005+45950-112500SAO  +169099999V02013559001552200059N048000599+00225-00335101705ADDGD10995+9999999GD20995+9999999GD30995+9999999GD40995+9999999GF100005999999999999999999MA1999999082835EQDN01 00000JPWTH 1QNNE11 1 00099E11 1 00099E11 1 00099E11 1 00099G11U1 99999K11 1 00026L11 1 03000M11 1 24460N11 1 00000Q11 1 10170S11 1 00036V11 1 00000W11 1 44003
031372528014733195508040200C+42933-078733SAO  +0217BUF  V02022559008250365849N0080005N1+02725+02335101775ADDAA101000095GA1081+036584034GD14085+9999999GD20995+9999999GD30995+9999999GD40995+9999999GF108085999999999999999999MA1999999099265MW1045EQDN01 08000JPWTH 1QNNE11 1 00610E11 1 00099E11 1 00099E11 1 00099G11 1 00120H11 1 23120K11 1 00074L11 1 00500M11 1 29310N11 1 08000Q11 1 10177S11 1 00081V11 1 01010W11 1 66016
0098478030999991955083005004+33883+130650SAO  +0033RJFA V0203601N006210105019N0128001N1+02681+02301100641ADDGA1021+005109059GA2051+010509089GA3061+036009039GF107991999999999999999999MA1999999100241MW1001
0269727846241601955112916005+46100-118283SAO  +036399999V02009059001050182949N016000599+00005+00005102445ADDGD12995+9999999GD24995+9999999GD30995+9999999GD40995+9999999GF108075999999999999999999MA1999999097935EQDN01 00000JPWTH 1QNNE11 1 00299E11 1 00699E11 1 00099E11 1 00099G11 1 00060K11 1 00032L11 1 01000M11 1 28920N11 1 00000Q11 1 10244S11 1 00032V11 1 01009W11 1 33002
0377999999116311955020617005+18467-066100SAO  +001599999V02006859010350152449N032000599+02565+01285101965ADDGA1999+009144084GA2999+015244064GA3999+999999999GA4999+999999999GD12025+9999999GD23065+9999999GD30005+9999999GD40005+9999999GF107075999999999999999999MA1999999101765EQDN01 00000JPWTH 1QNNE11 1 00202E11 1 00407E11 1 00000E11 1 00000G11 1 00050H11 1 11030H11 1 15050H11 1 00999H11 1 00999K11 1 00055L11 1 02000M11 1 30050N11 1 00000Q11 1 10196S11 1 00078V11 1 00909W11 1 32020
0296999999148551955081509005+42083-087833SAO  +0197NBU  V02024859002650457249N016000599+02115+01395101705ADDGA1999+045724034GD14085+9999999GD20995+9999999GD30995+9999999GD40995+9999999GF108085999999999999999999MA1999999099395EQDN01 00000JPWTH 1QNNE11 1 00610E11 1 00099E11 1 00099E11 1 00099G11 1 00150H11 1 23150K11 1 00057L11 1 01000M11 1 29350N11 1 00000Q11 1 10170S11 1 00070V11 1 01010W11 1 76005
0057028360999991955071500004+67367+026650FM-12+018099999V0201601N00361220001CN0200001N9+01221+01111101781ADDAY111999GF106991031001022501051011MD1710051+9999MW1001
0059976000999991955091800004-02083+126000FM-12+000299999V0209991C00001220001CN0040001N9+02441+02331100741ADDAY101999GA1011+007509089GF103991011011008001031011MW1021
0057319170999991955051106004+44033+131150FM-12+010999999V0201401N00311036001CN0500001N9+01781+00221100271ADDAY121999GF107991031051012501031001MD1710281+9999MW1031
0056421230999991955092512004+29917+073883FM-12+017799999V0209991C00001220001CN0100001N9+03331+01781100371ADDAY101999GF101991001001999999001021KA1999M+03391MW1011
0057938960999991955092512004-45783+170750FM-12+007699999V0202701N00261007801CN0500001N9+00831+00441100611ADDAY121999GF108991081051008001999999MD1010021+9999MW1021
0067070891999991955061514004+49033+005867SAO  +0266LCHM V0203151N005710135019N0240001N1+02241+01351999999ADDGA1061+013509089GA2011+042009039GF107991999999999999999999MW1001
009294120099999195508210830N-12420+130870AUST +0030YPDN V0209999C000059999999N999999999+02785+02105999999ADDGA1005+999999999GA2005+999999999GA3055+999999999GF105995004999999999999085MA1999999100675
034072785024157195510301400C+47617-117517SAO  +0721GEG  V02022559005250304849N0400005N1+00285-00285100755ADDAA101000095GA1999+018294064GA2081+030484034GD14005+9999999GD20085+9999999GD30995+9999999GD40995+9999999GF108085999999999999999999MA1999999092315MW1001EQDN01 00000JPWTH 1QNNE11 1 00600E11 1 00010E11 1 00099E11 1 00099G11 1 00100H11 1 15060H11 1 23100K11 1 00027L11 1 02500M11 1 27260N11 1 00000Q11 1 10075S11 1 00037V11 1 01010W11 1 66010
0031287660999991955102312004+54367+067000FM-12+015399999V0202501N011819999999N0100001N9+99999+99999999999ADDAY101999MD1710101+9999MW1011
0011477420999991955052403004+35550+133233FM-12+000399999V0203201N006219999999N9999999N9+02281+99999999999ADDAY101999
0082749066999991955073104004+32267-064850SAO  +0013MYUN V0201351N004610270019N0160001N1+02411+02241101781ADDGA1041+006009089GA2031+027009039GF107991999999999999999999MA1999999101631MW1001
0275999999253291955051006005+56817-132950SAO  +003499999V02020359001550048849N024000599+00505+00285101055ADDGD13995+9999999GD24995+9999999GD30995+9999999GD40995+9999999GF108085999999999999999999MA1999999100645MW1615EQDN01 02000JPWTH 1QNNE11 1 00499E11 1 00699E11 1 00099E11 1 00099G11 1 00016K11 1 00037L11 1 01500M11 1 29720N11 1 02000Q11 1 10105S11 1 00041V11 1 01010W11 1 56003
0184999999148511955092314005+46350-087400SAO  +036099999V02015859005250121949N024000599+99999+01115999999ADDGD14995+9999999GD20995+9999999GD30995+9999999GD40995+9999999EQDN01 00000JPWTH 1QNNE11 1 00699E11 1 00099E11 1 00099E11 1 00099G11 1 00040K11 1 00052L11 1 01500N11 1 00000W11 1 54010
038899999924227195502230400E+46967-122900SAO  +006699999V02099999000052200059N024000599+00445+00065102445ADDAA101000095GA1999+010674064GA2999+999999999GA3999+999999999GA4999+999999999GD12025+9999999GD20005+9999999GD30005+9999999GD40005+9999999GF102025999999999999999999MA1999999101695EQDN01 00000JPWTH 1QNNE11 1 00202E11 1 00000E11 1 00000E11 1 00000G11U1 99999H11 1 15035H11 1 00999H11 1 00999H11 1 00999K11 1 00033L11 1 01500M11 1 30030N11 1 00000Q11 1 10244S11 1 00040V11 1 00202W11 1 00000
0097108930999991955061506004+48583+013483FM-12+040899999V0209991C00001000601CN0004001N9+00781+00781102511ADDAA124000591AY121061GA1091+000609999GF109991091999000251999999KA1999N+00721MD1310031+9999MW1581
0068407450999991955120714004+36283+059633FM-12+098399999V0201801N00101220001CN0300001N9+00611+00281999999ADDAY101999GF101991999001999999041001IA1009MW1001EQDQ01+000002SCOTLC
0329780160136011955072723003+32367-064683SAO  +0006TXKF V02013559004150304849N0160005N9+02565+02115101905ADDGA1021+007624064GA2081+030484044GD12025+9999999GD24085+9999999GD30995+9999999GD40995+9999999GF108085999999999999999999MA1999999101835MW1001EQDN01 00000JPWTH 1QNNE11 1 00203E11 1 00610E11 1 00099E11 1 00099G11 1 00100H11 1 15025H11 1 21100K11 1 00070L11 1 01000M11 1 30070N11 1 00000Q11 1 10190S11 1 00078V11 1 01010W11 1 44008
0066740030999991955060604004+40200-112933SAO  +1326DPG  V0209991C000012200019N0240001N9+01851+00351100961ADDGA1999+027009999GF100991999999999999999999MA1999999086351MW1001
034072520094823195504060600C+40500-080217SAO  +0373PIT  V02024859006250106749N0240005N1+01505+01065101325ADDAA101000095GA1061+010674064GA2021+076204024GD13065+9999999GD24025+9999999GD30995+9999999GD40995+9999999GF108085999999999999999999MA1999999096955MW1001EQDN01 00000JPWTH 1QNNE11 1 00408E11 1 00602E11 1 00099E11 1 00099G11 1 00035H11 1 15035H11 1 37250K11 1 00051L11 1 01500M11 1 28630N11 1 00000Q11 1 10132S11 1 00059V11 1 01010W11 1 76012
0333722265138211955122812003+32383-086350SAO  +0053MXF  V02006859004650121949N0160005N9+00835-00505102785ADDAA124000091GA1081+012194064GD14085+9999999GD20995+9999999GD30995+9999999GD40995+9999999GF108085999999999999999999KA1999M+01131KA2999N+00851MA1999999102135EQDN01 00000JPWTH 1QNNE11 1 00610E11 1 00099E11 1 00099E11 1 00099G11 1 00040H11 1 15040K11 1 00023L11 1 01000M11 1 30160N11 1 00000Q11 1 10278S11 1 00047V11 1 01010W11 1 32009
017672256013959195511070600B+31617-097217SAO  +0157ACT  V02033859004652200059N024000599+00725-00505102005ADDAA101000095GF100005999999999999999999MA1999999100175EQDN01 00000JPWTH 1QNNG11U1 99999K11 1 00023L11 1 01500M11 1 29580N11 1 00000Q11 1 10200S11 1 00045V11 1 00000W11 1 18009
0057277030999991955061800004+54567+036367FM-12+999999999V0201401N00101012301CN0100001N9+01391+01281100971ADDAY111999GF108991081081012501999999MD1710131+9999MW1031
0057348380999991955121400004+45850+040083FM-12+007999999V0209991C00001220001CN0200001N9-01221-01281101941ADDAY101999GF100991001001999999001001MD1810051+9999MW1021
0076279350999991955080500004+52883+040317FM-12+015899999V0209991C00001220001CN0200001N9+01891+01611100381ADDAY121999GF106991999001999999031001MD1710061+9999MW1021EQDQ01+000002SCOTLC
0057155350999991955120200004+43867+025967FM-12+004699999V0209991C00001220001CN0040001N9-00221-00281103181ADDAY101999GF100991001001999999001001MD1710081+9999MW1101
006172311913886195508210600A+34850-082350SAO  +0319GMU  V0209991C000012200019N0112001N1+02411+02301101351ADDAA101000095GF100991999999999999999999MA1999999098041MW1001
0066042020999991955041808004+76550-068800SAO  +0077BGTL V0201101N004612200019N0400001N9-02531-02921101961ADDGA1001+999999999GF100991999999999999999999MA1999999100881MW1001
0082724070937301955070417004+39450-074583SAO  +0024ACY  V0201601N005110120019N0128001N9+03131+02631101901ADDGA1051+012009089GA2021+024009999GF107991999999999999999999MA1999999101691MW1001
0377999999128521955060712005+99999+999999SAO  +999999999V02099999000052200059N016000599+02675+02005101215ADDGA1999+006714084GA2999+091444024GA3999+999999999GA4999+999999999GD12025+9999999GD22015+9999999GD30005+9999999GD40005+9999999GF102025999999999999999999MA1999999101195EQDN01 00000JPWTH 1QNNE11 1 00202E11 1 00201E11 1 00000E11 1 00000G11U1 99999H11 1 11022H11 1 37300H11 1 00999H11 1 00999K11 1 00068L11 1 01000M11 1 29880N11 1 00000Q11 1 10121S11 1 00080V11 1 00303W11 1 00000
0383725038147141955051707003+41500-074100SAO  +0141SWF  V02002359008850121949N0160005N1+00785+00225101465ADDGA1061+012194064GA2999+999999999GA3999+999999999GA4999+999999999GD13065+9999999GD20005+9999999GD30005+9999999GD40005+9999999GF106065999999999999999999MA1999999099705MW1001EQDN01 00000JPWTH 1QNNE11 1 00407E11 1 00000E11 1 00000E11 1 00000G11 1 00040H11 1 15040H11 1 00999H11 1 00999H11 1 00999K11 1 00036L11 1 01000M11 1 29440N11 1 00000Q11 1 10146S11 1 00046V11 1 00707W11 1 12017
0275723527139751955012719003+36300-099767SAO  +0669GAG  V02024859008252200059N0240005N1+01175-00225102305ADDGD13995+9999993GD20995+9999999GD30995+9999999GD40995+9999999GF107035999999999999999999MA1999999094345MW1001EQDN01 00000JPWTH 1QNNE11 1 00399E11 1 00099E11 1 00099E11 1 00099G11U1 99999K11 1 00028L11 1 01500M11 1 27860N11 1 00000Q11 1 10230S11 1 00053V11 1 00904W11 1 76016
0082717310999991955080403004+46367-079417SAO  +0369CYYB V0200901N002110180019N0160001N1+02241+01961101601ADDGA1051+018009059GA2031+030009039GF108991999999999999999999MA1999999097261MW1001
028099999924137195509070200E+48600-112367SAO  +1174CTB  V02027059004650365849N096000599+02395+00675101425ADDAA101000095GD13995+9999999GD24995+9999999GD30995+9999999GD40995+9999999GF108065999999999999999999MA1999999088285EQDN01 00000JPWTH 1QNNE11 1 00499E11 1 00699E11 1 00099E11 1 00099G11 1 00120K11 1 00044L11 1 06000M11 1 26070N11 1 00000Q11 1 10142S11 1 00075V11 1 01008W11 1 77009
0377999999128541955011217005+28783-081233SAO  +002799999V02022559002152200059N024000599+01835+00945101685ADDGA1999+076204004GA2999+999999999GA3999+999999999GA4999+999999999GD11045+9999993GD20005+9999999GD30005+9999999GD40005+9999999GF104025999999999999999999MA1999999101395EQDN01 00000JPWTH 1QNNE11 1 00105E11 1 00000E11 1 00000E11 1 00000G11U1 99999H11 1 32250H11 1 00999H11 1 00999H11 1 00999K11 1 00049L11 1 01500M11 1 29940N11 1 00000Q11 1 10168S11 1 00065V11 1 00502W11 1 66004
0329999999938011955040614005+34350-085167SAO  +0195RMG  V02018059002650243849N006400599+01784+01615101694ADDGA1999+999999104GA2999+024384034GD13005+9999999GD20055+9999999GD30995+9999999GD40995+9999999GF105085999999999999999999MA1999999099394MW1445EQDN01 07200JPWTH 1QNNE11 1 00400E11 1 00006E11 1 00099E11 1 00099G11 1 00080H11 1 45999H11 1 23080K11 1 00061L11 1 00400M11 1 29350N11 1 07200Q11 1 10169S11 1 00064V11 1 00610W11 1 55005
0296999999148961955110211005+41033-081483SAO  +032099999V02018059004650103649N016000599+01285+00785101395ADDGA1999+010364064GD14085+9999999GD20995+9999999GD30995+9999999GD40995+9999999GF108085999999999999999999MA1999999097605EQDN01 00000JPWTH 1QNNE11 1 00610E11 1 00099E11 1 00099E11 1 00099G11 1 00034H11 1 15034K11 1 00046L11 1 01000M11 1 28820N11 1 00000Q11 1 10139S11 1 00055V11 1 01010W11 1 55009
0057620020999991955021112004+31867+010983FM-12+063699999V0202301N00931220001CN0200001N9+02061+00281101781ADDAY121999GF106991001001999999001061MD1710241+9999MW1021
0124103430999991955081809004+52600+010033FM-12+003999999V0202301N00261036001CN0040001N9+02111+01561101801ADDAY121999GA1041+015009059GA2061+036009039GA3061+036009039GF106991041051017501071021MD1210061+9999MW1011EQDQ01+085221APOA  
0070311680999991955111212004+56450+138650FM-12+000999999V0209991C00001220001CN0100001N9-01111-01891102001ADDAY101999GF100991001001999999001001KA1999M-00221MD1110051+9999MW1021
0269999999931291955091503005+37700-113100SAO  +171399999V02020359005252200059N024000599+02394-00065100884ADDGD10995+9999999GD20995+9999999GD30995+9999999GD40995+9999999GF100005999999999999999999MA1999999082734EQDN01 00000JPWTH 1QNNE11 1 00099E11 1 00099E11 1 00099E11 1 00099G11U1 99999K11 1 00031L11 1 01500M11 1 24430N11 1 00000Q11 1 10088S11 1 00075V11 1 00000W11 1 56010
0165999999137731955100905005+38500-077300SAO  +0004NYG  V02029359003152200059N012800599+01005+00945102445ADDGF100005999999999999999999MA1999999102405EQDN01 00000JPWTH 1QNNG11U1 99999K11 1 00049L11 1 00800M11 1 30240N11 1 00000Q11 1 10244S11 1 00050V11 1 00000W11 1 78006
0329999999433211955101015005+35383+139917SAO  +0006RJTK V02002359011850012249N006400599+01395+01335101155ADDGA1999+001224134GA2999+003054074GD13065+9999999GD24085+9999999GD30995+9999999GD40995+9999999GF108085999999999999999999MA1999999101085MW1615EQDN01 02000JPWTH 1QNNE11 1 00408E11 1 00610E11 1 00099E11 1 00099G11 1 00004H11 1 13004H11 1 16010K11 1 00056L11 1 00400M11 1 29850N11 1 02000Q11 1 10115S11 1 00057V11 1 01010W11 1 12023
0057119300999991955101500004+49200+020217FM-12+263999999V0203601N00211220001CN0300001N9+00281-01281999999ADDAY101999GF100991001001999999001001MD1610051+9999MW1021
0377999999127121955121505005+26617-078367SAO  +0006MYGM V02099999000050121949N016000599+02065+02005101695ADDGA1999+012194064GA2999+999999999GA3999+999999999GA4999+999999999GD13055+9999999GD20005+9999999GD30005+9999999GD40005+9999999GF105055999999999999999999MA1999999101665EQDN01 00000JPWTH 1QNNE11 1 00406E11 1 00000E11 1 00000E11 1 00000G11 1 00040H11 1 15040H11 1 00999H11 1 00999H11 1 00999K11 1 00068L11 1 01000M11 1 30020N11 1 00000Q11 1 10169S11 1 00069V11 1 00606W11 1 00000
0058969960999991955062506004-12183+096833FM-12+000599999V0201101N010319999999N0080001N9+02501+02331999999ADDAY161999GF107991051021004501031999MA1999999101181MW1631
0269999999264141955110310005+63333-149133SAO  +073499999V02036059007752200059N024000599-02005-02395102035ADDGD10995+9999999GD20995+9999999GD30995+9999999GD40995+9999999GF100005999999999999999999MA1999999092795EQDN01 00000JPWTH 1QNNE11 1 00099E11 1 00099E11 1 00099E11 1 00099G11U1 99999K11 1-00011L11 1 01500M11 1 27400N11 1 00000Q11 1 10203S11 1-00004V11 1 00000W11 1 11015
038899999914944195507170200E+43567-096733SAO  +043499999V02004559002652200059N024000599+02285+01565101465ADDAA101000095GA1999+018294064GA2999+999999999GA3999+999999999GA4999+999999999GD10005+9999999GD20005+9999999GD30005+9999999GD40005+9999999GF100005999999999999999999MA1999999096415EQDN01 00000JPWTH 1QNNE11 1 00000E11 1 00000E11 1 00000E11 1 00000G11U1 99999H11 1 15060H11 1 00999H11 1 00999H11 1 00999K11 1 00060L11 1 01500M11 1 28470N11 1 00000Q11 1 10146S11 1 00073V11 1 00000W11 1 22005
017699999923066195501150100E+39117-108533SAO  +1476GJT  V02033859004152200059N024000599-00335-00675102345ADDAA101000095GF100005999999999999999999MA1999999085275EQDN01 00000JPWTH 1QNNG11U1 99999K11 1 00020L11 1 01500M11 1 25180N11 1 00000Q11 1 10234S11 1 00026V11 1 00000W11 1 18008
