0060172200999991956062002004+38433+027167SAO  +010899999V0201801N003112200019N0144001N9+02021+01801100791ADDGA1011+027009059GF102991999999999999999999MA1999999099531
0062964410999991956061303004+03200+113033FM-12+000599999V0201401N002619999999N0240001N9+03001+02331101031ADDAY191999GF106991041011008001061081HL10009IA2999+02289MW1001
039472206013889195612220600C+30417-081650SAO  +0012JAX  V02020359002652200059N0004005N9+01785+01785101935ADDAA101000095GA1071+999999104GA2999+999999999GA3999+999999999GA4999+999999999GD16075+9999999GD20005+9999999GD30005+9999999GD40005+9999999GF107075999999999999999999MA1999999101835MW1455EQDN01 07000JPWTH 1QNNE11 1 00809E11 1 00000E11 1 00000E11 1 00000G11U1 99999H11 1 45999H11 1 00999H11 1 00999H11 1 00999K11 1 00064L11 1 00025M11 1 30070N11 1 07000Q11 1 10193S11 1 00064V11 1 00909W11 1 56005
0075479090999991956032608004+28383+129500FM-12+000499999V0203601N00411007801CN0200001N9+01831+01391101671ADDAY101999GA1999+087009079GA2031+057009089GF108991071051008001999999MW1021
0060722026128261956040221004+25483-080383SAO  +0002HST  V0200901N008712200019N0160001N9+02571+01741102061ADDGA1021+009009089GF102991999999999999999999MA1999999102001
0058062250999991956042012004+52467+004567FM-12+002299999V0203301N006219999999N0200001N9+00611+00221999999ADDAY111999GF106991031021008001051001MA1999999102661MW1031
0082107140999991956052208004+49217-007400SAO  +0345EDAM V0200701N002110300019N0064001N9+01111+00611101171ADDGA1021+015009059GA2061+030009039GF107991999999999999999999MA1999999097191MW1051
0057306500999991956071006004+53217+112767FM-12+089199999V0200201N00511220001CN0200001N9+01891+00721099971ADDAY151999GF106991041011012501001011MD1810041+9999MW1011
0057931850999991956110518004-37667+176200FM-12+000499999V0209991C000019999999N0150001N9+01281+01061100251ADDAY121999GF105991021021008001041001MD1610101+9999MW1151
031399999914732195610010200E+40767-073867SAO  +001699999V02022559004650106749N009600599+01785+01395101665ADDAA101000095GA1999+010674064GD14085+9999999GD20995+9999999GD30995+9999999GD40995+9999999GF108085999999999999999999MA1999999101465MW1055EQDN01 08100JPWTH 1QNNE11 1 00610E11 1 00099E11 1 00099E11 1 00099G11 1 00035H11 1 15035K11 1 00057L11 1 00600M11 1 29960N11 1 08100Q11 1 10166S11 1 00064V11 1 01010W11 1 66009
038899999913958195607220600E+30300-097700SAO  +018999999V02018059004652200059N024000599+02725+01175101735ADDAA101000095GA1999+036584034GA2999+999999999GA3999+999999999GA4999+999999999GD12025+9999999GD20005+9999999GD30005+9999999GD40005+9999999GF102025999999999999999999MA1999999099565EQDN01 00000JPWTH 1QNNE11 1 00203E11 1 00000E11 1 00000E11 1 00000G11U1 99999H11 1 23120H11 1 00999H11 1 00999H11 1 00999K11 1 00053L11 1 01500M11 1 29400N11 1 00000Q11 1 10173S11 1 00081V11 1 00303W11 1 55009
0329725287047241956122804003+43100-078950SAO  +0180IAG  V02022559006250152449N0080005N9+00115-00065100195ADDGA1021+004574074GA2061+015244064GD12025+9999999GD24065+9999999GD30995+9999999GD40995+9999999GF108085999999999999999999MA1999999097975MW1045EQDN01 08000JPWTH 1QNNE11 1 00202E11 1 00608E11 1 00099E11 1 00099G11 1 00050H11 1 16015H11 1 15050K11 1 00031L11 1 00500M11 1 28930N11 1 08000Q11 1 10019S11 1 00034V11 1 01010W11 1 66012
0082479300999991956083004004+26200+127650SAO  +0004ROAH V0200681N007712200019N0240001N1+03241+02461100981ADDGA1031+006009089GA2041+075009029GF107991999999999999999999MA1999999100911MW1001
032572533014827195605300300C+41000-085217SAO  +0249FWA  V02031559010350152449N0160005N9+02335+01835101465ADDAA101000095GA1081+015244094GD14085+9999999GD20995+9999999GD30995+9999999GD40995+9999999GF108085999999999999999999MA1999999098545MW1171MW2805MW3955EQDN01 01023JPWTH 1QNNE11 1 00610E11 1 00099E11 1 00099E11 1 00099G11 1 00050H11 1 18050K11 1 00065L11 1 01000M11 1 29100N11 1 01023Q11 1 10146S11 1 00074V11 1 01010W11 1 88020
0077107120999991956020112004+49500-007867SAO  +0321EDAS V0200501N008712200019N0096001N9-01701-02141102221ADDAA124000091GA1031+069009009GF102991999999999999999999MA1999999097901MW1051
0269999999149911956030123005+44867-091483SAO  +0272EAU  V02024859004650609649N024000599+00335-00225099735ADDGD12995+9999999GD23995+9999999GD30995+9999999GD40995+9999999GF105035999999999999999999MA1999999096445EQDN01 00000JPWTH 1QNNE11 1 00299E11 1 00499E11 1 00099E11 1 00099G11 1 00200K11 1 00028L11 1 01500M11 1 28480N11 1 00000Q11 1 09973S11 1 00038V11 1 00604W11 1 76009
038899999923052195610280000E+36750-104500SAO  +1946RTN  V02018059003652200059N080000599+01285-01395101045ADDAA101000095GA1999+054864034GA2999+999999999GA3999+999999999GA4999+999999999GD10005+9999999GD20005+9999999GD30005+9999999GD40005+9999999GF100005999999999999999999MA1999999080165EQDN01 00000JPWTH 1QNNE11 1 00000E11 1 00000E11 1 00000E11 1 00000G11U1 99999H11 1 23180H11 1 00999H11 1 00999H11 1 00999K11 1 00007L11 1 05000M11 1 23670N11 1 00000Q11 1 10104S11 1 00055V11 1 00000W11 1 55007
0102763420999991956040218004+26900-101417FM-12+058699999V0201801N00411220001CN0400001N9+03331-00391100101ADDAY121999GF107991999001999999061001KA1999M+03391KA2999N+02391MD1010001+9999MW1071EQDQ01+000002SCOTLC
0057277860999991956101418004+54283+048250FM-12+999999999V0202201N00511012301CN0040001N9+00611+00281100221ADDAY111999GF107991071051012501001001MD1210161+9999MW1031
007772256013959195612040700A+31617-097217SAO  +0155ACT  V0201801N005112200019N0240001N1+01691+01241101681ADDAA101000095GA1041+220009029GF102991999999999999999999MA1999999099971MW1001
0275999999265331956040613005+66917-151517SAO  +020599999V02099999000050213449N016000599-02895-03285102615ADDGD13995+9999999GD20995+9999999GD30995+9999999GD40995+9999999GF105035999999999999999999MA1999999099835MW1715EQDN01 04000JPWTH 1QNNE11 1 00499E11 1 00099E11 1 00099E11 1 00099G11 1 00070K11 1-00027L11 1 01000M11 1 29480N11 1 04000Q11 1 10261S11 1-00020V11 1 00604W11 1 00000
018272258013960195611251700C+32850-096850SAO  +0153DAL  V02033859007752200059N0240005N1+01565-00175102075ADDAA101000095GF100005999999999999999999MA1999999100275MW1001EQDN01 00000JPWTH 1QNNG11U1 99999K11 1 00029L11 1 01500M11 1 29610N11 1 00000Q11 1 10207S11 1 00060V11 1 00000W11 1 18015
0377999999127131956080116005+25267-076300SAO  +0010MYEM V02006859003652200059N019200599+02945+02285102055ADDGA1999+005494084GA2999+091444004GA3999+999999999GA4999+999999999GD12015+9999999GD22015+9999999GD30005+9999999GD40005+9999999GF102025999999999999999999MA1999999101965EQDN01 00000JPWTH 1QNNE11 1 00201E11 1 00201E11 1 00000E11 1 00000G11U1 99999H11 1 11018H11 1 32300H11 1 00999H11 1 00999K11 1 00073L11 1 01200M11 1 30110N11 1 00000Q11 1 10205S11 1 00085V11 1 00202W11 1 32007
0066743941999991956122020004+42933-071433SAO  +0076MHT  V0203151N004610120019N0240001N1+00631-00201999999ADDGA1071+012009059GF107991999999999999999999MA1999999100751MW1001
0275999999939971956052713005+38867-098817SAO  +0568RSL  V02015859006750243849N024000599+01894+01505100714ADDGD13995+9999999GD24995+9999999GD30995+9999999GD40995+9999999GF108055999999999999999999MA1999999094244MW1805EQDN01 02300JPWTH 1QNNE11 1 00499E11 1 00699E11 1 00099E11 1 00099G11 1 00080K11 1 00059L11 1 01500M11 1 27830N11 1 02300Q11 1 10071S11 1 00066V11 1 01006W11 1 54013
0066723927931101956081402004+34200-119200SAO  +0013OXR  V0202701N004112200019N0080001N1+01741+01521101691ADDGA1021+003909059GF102991999999999999999999MA1999999101351MW1051
0074943120999991956012616003-20367+118617FM-12+0008YPPD V0202701N002119999999N0300001N9+02941+02561999999ADDAY101999GA1075+004505065GF107991071051004501999999MA1999999100471MW1001
0129711140999991956072512004+49383-121433FM-12+004699999V0201801N00361220001CN0240001N9+01831+01441101631ADDAJ199999999999999AL10600091AY101999GF102991021081012501001001KA1999M+02891KA2999N+01831MD1310101+9999MW1001EQDQ01  04472SNDP  
0383780160136011956072311003+32367-064683SAO  +0006TXKF V02004559002652200059N0160005N9+02505+01835102445ADDGA1031+007624084GA2011+091444004GA3999+999999999GA4999+999999999GD12035+9999999GD22015+9999999GD30005+9999999GD40005+9999999GF104045999999999999999999MA1999999102375MW1001EQDN01 00000JPWTH 1QNNE11 1 00204E11 1 00201E11 1 00000E11 1 00000G11U1 99999H11 1 11025H11 1 32300H11 1 00999H11 1 00999K11 1 00065L11 1 01000M11 1 30230N11 1 00000Q11 1 10244S11 1 00077V11 1 00505W11 1 22005
0057347470999991956042200004+46550+041050FM-12+011299999V0202701N00511004501CN0200001N9+00891+00781101461ADDAY161999GF108991081051004501999999MD1210131+9999MW1211
0383703980253081956041016003+55033-131567SAO  +0034ANN  V02033859005252200059N0240005N1+00225-00065101085ADDGA1021+076204024GA2999+999999999GA3999+999999999GA4999+999999999GD11025+9999993GD20005+9999999GD30005+9999999GD40005+9999999GF102005999999999999999999MA1999999100685MW1001EQDN01 00000JPWTH 1QNNE11 1 00103E11 1 00000E11 1 00000E11 1 00000G11U1 99999H11 1 37250H11 1 00999H11 1 00999H11 1 00999K11 1 00031L11 1 01500M11 1 29730N11 1 00000Q11 1 10108S11 1 00036V11 1 00300W11 1 18010
0129719230999991956071812004+61133-100917FM-12+032599999V0201801N00461220001CN0240001N9+01611+01111101921ADDAJ199999999999999AL10600091AY111999GF102991021001022501011001KA1999M+02441KA2999N+01501MD1710011+9999MW1021EQDQ01  04472SNDP  
0057335870999991956022600004+48767+030233FM-12+021699999V0209991C00001220001CN0040001N9-01501-01721102921ADDAY101999GF100991001001999999001001MD1710041+9999MW1101
0014852680999991956012118004-18333-059750FM-12+030099999V02099999999999999999N9999999N9+99999+99999999999ADDAA124003091
0065405750999991956021606004+17050+054100FM-12+001799999V0200701N00151220001CN0280001N9+02611+02061101711ADDAY131999GA1041+009009999GF104991041051008001001001IA1009MW1061
007772303013714195601271600D+35183-079017SAO  +0066POB  V0209991C000010330019N0080001N9+00191-00531103121ADDAA101000095GA1081+033009039GF108991999999999999999999MA1999999102271MW1041
0098479300999991956100114004+26200+127650SAO  +0004ROAH V0203601N001512200019N0160001N1+02461+02301101551ADDGA1021+004509089GA2011+021009039GA3011+220009009GF102991999999999999999999MA1999999101491MW1001
0329999999136021956032002005+32267-064850SAO  +0013MYUN V02027059005250079249N008000599+01675+01505101725ADDGA1999+007924064GA2999+024384044GD13055+9999999GD24035+9999999GD30995+9999999GD40995+9999999GF108085999999999999999999MA1999999101565MW1615EQDN01 02000JPWTH 1QNNE11 1 00406E11 1 00604E11 1 00099E11 1 00099G11 1 00026H11 1 15026H11 1 21080K11 1 00059L11 1 00500M11 1 29990N11 1 02000Q11 1 10172S11 1 00062V11 1 01010W11 1 77010
0082477430999991956040121004+35500+133233SAO  +0006RJOH V0209991C000010093019N0192001N1+00351+00191101631ADDGA1021+007209089GA2031+009309089GF107991999999999999999999MA1999999101561MW1001
0335702960264101956100218003+60500-145500SAO  +0013CDV  V02009059002650030549N0112005N1+00615+00505100075ADDGA1061+003054064GA2081+004574064GD13065+9999999GD24085+9999999GD30995+9999999GD40995+9999999GF108085999999999999999999MA1999999099905MW1515MW2615EQDN01 02033JPWTH 1QNNE11 1 00408E11 1 00610E11 1 00099E11 1 00099G11 1 00010H11 1 15010H11 1 15015K11 1 00041L11 1 00700M11 1 29500N11 1 02033Q11 1 10007S11 1 00043V11 1 01010W11 1 33005
0269999999930441956110702005+35100-108783SAO  +1963ZUN  V02036059001052200059N024000599+00724-00285102644ADDGD10995+9999999GD20995+9999999GD30995+9999999GD40995+9999999GF100005999999999999999999MA1999999080974EQDN01 00000JPWTH 1QNNE11 1 00099E11 1 00099E11 1 00099E11 1 00099G11U1 99999K11 1 00027L11 1 01500M11 1 23910N11 1 00000Q11 1 10264S11 1 00045V11 1 00000W11 1 11002
0182722650230231956070806003+31933-102200SAO  +0871MAF  V02015859001552200059N0240005N1+02725+01395101095ADDAA101000095GF100005999999999999999999MA1999999091535MW1001EQDN01 00000JPWTH 1QNNG11U1 99999K11 1 00057L11 1 01500M11 1 27030N11 1 00000Q11 1 10109S11 1 00081V11 1 00000W11 1 54003
0070304390999991956033012004+55117+109750FM-12+045899999V0209991C00001220001CN0500001N9-01221-01781103331ADDAY111999GF101991001001999999001011KA1999M-00721MD1410001+9999MW1011
0058062900999991956061700004+52267+006883FM-12+004199999V0201301N00101012301CN0060001N9+01001+00721999999ADDAY121999GF108991061051012501071999MA1999999101531MW1051
0060742060242071956120109004+47150-122483SAO  +0098TCM  V0209991C000010001519N0004021N9+00171+00171103011ADDGA1091+000159999GF109991999999999999999999MA1999999101761
0089479090999991956010815004+28383+129500FM-12+000499999V0203201N00621007801CN0200001N9+00831+00281101761ADDAY101999GA1999+057009079GA2061+999999099GF107991071051008001999999MD1810011+9999MW1211
0011474290999991956070203004+42100+140567FM-12+002099999V0203401N001519999999N9999999N9+01671+99999999999ADDAY101999
0377999999406041956021201005+08733+167717SAO  +000099999V02004559006752200059N016000599+02725+02115100925ADDGA1999+007624084GA2999+042674034GA3999+076204004GA4999+999999999GD12025+9999999GD22015+9999999GD32025+9999999GD40005+9999999GF104035999999999999999999MA1999999100855EQDN01 00000JPWTH 1QNNE11 1 00202E11 1 00201E11 1 00202E11 1 00000G11U1 99999H11 1 11025H11 1 23140H11 1 32250H11 1 00999K11 1 00070L11 1 01000M11 1 29780N11 1 00000Q11 1 10092S11 1 00081V11 1 00504W11 1 22013
0269999999116241956060608005+17700-064800SAO  +001799999V02009059001052200059N024000599+02505+02285101295ADDGD12995+9999999GD20995+9999999GD30995+9999999GD40995+9999999GF104045999999999999999999MA1999999101085EQDN01 00000JPWTH 1QNNE11 1 00299E11 1 00099E11 1 00099E11 1 00099G11U1 99999K11 1 00073L11 1 01500M11 1 29850N11 1 00000Q11 1 10129S11 1 00077V11 1 00505W11 1 33002
0383744865147191956031513003+40817-072633SAO  +0017FOK  V02033859005252200059N0160005N1+00175-00505102685ADDGA1061+060964024GA2999+999999999GA3999+999999999GA4999+999999999GD13065+9999993GD20005+9999999GD30005+9999999GD40005+9999999GF106025999999999999999999MA1999999102405MW1001EQDN01 00000JPWTH 1QNNE11 1 00308E11 1 00000E11 1 00000E11 1 00000G11U1 99999H11 1 37200H11 1 00999H11 1 00999H11 1 00999K11 1 00023L11 1 01000M11 1 30240N11 1 00000Q11 1 10268S11 1 00035V11 1 00803W11 1 18010
0165999999031251956051509005+32833-114400SAO  +009999999V02099999000052200059N024000599+01675-00835101695ADDGF100005999999999999999999MA1999999100585EQDN01 00000JPWTH 1QNNG11U1 99999K11 1 00017L11 1 01500M11 1 29700N11 1 00000Q11 1 10169S11 1 00062V11 1 00000W11 1 00000
0057350780999991956110818004+51817+068367FM-12+030899999V0209991C00001015001CN0100001N9+00721-00111102791ADDAY101999GF108991081051017501999999MD1210031+9999MW1021
0269999999230701956041701005+37250-104333SAO  +1749TAD  V02024859005250243849N096000599+01285-00175101025ADDGD13995+9999999GD24995+9999999GD30995+9999999GD40995+9999999GF108085999999999999999999MA1999999082055EQDN01 00000JPWTH 1QNNE11 1 00499E11 1 00699E11 1 00099E11 1 00099G11 1 00080K11 1 00029L11 1 06000M11 1 24230N11 1 00000Q11 1 10102S11 1 00055V11 1 01010W11 1 76010
0011476260999991956022015004+36150+139383FM-12+003199999V0202901N002619999999N9999999N9+00061+99999999999ADDAY101999
0057202740999991956113012004+77500+082233FM-12+000999999V0202001N008719999999N0040001N9-01221-01281102221ADDAY171999GF108991031071002501999999MD1610031+9999MW1711
038899999914935195608191900E+40967-098317SAO  +056799999V02004559005250152449N024000599+01895+00675102545ADDAA101000095GA1999+015244084GA2999+030484034GA3999+076204024GA4999+999999999GD13055+9999999GD23015+9999999GD33015+9999999GD40005+9999999GF106065999999999999999999MA1999999095905EQDN01 00000JPWTH 1QNNE11 1 00406E11 1 00401E11 1 00401E11 1 00000G11 1 00050H11 1 11050H11 1 23100H11 1 37250H11 1 00999K11 1 00044L11 1 01500M11 1 28320N11 1 00000Q11 1 10254S11 1 00066V11 1 00807W11 1 22010
0089151200999991956061706004+46783+023567FM-12+041599999V0209991C00001220001CN0080001N9+01611+01391101211ADDAY111999GF101991999001999999041001KA1999N+01281MD1310041+9999MW1101EQDQ01+000002SCOTLC
018872317013723195609231100C+36083-079950SAO  +0275GSO  V02024859003652200059N0048005N1+01725+01725101905ADDAA101000095GF100005999999999999999999MA1999999098755MW1111MW2445EQDN01 07200JPWTH 1QNNG11U1 99999K11 1 00063L11 1 00300M11 1 29160N11 1 07200Q11 1 10190S11 1 00063V11 1 00000W11 1 76007
0302999999432381956061817005+35983+129433SAO  +002099999V02002359001050006149N001600599+01785+01725100975ADDGA1999+000614104GD15085+9999999GD20995+9999999GD30995+9999999GD40995+9999999GF108085999999999999999999MA1999999100755MW1455EQDN01 07000JPWTH 1QNNE11 1 00710E11 1 00099E11 1 00099E11 1 00099G11 1 00002H11 1 45002K11 1 00063L11 1 00100M11 1 29750N11 1 07000Q11 1 10097S11 1 00064V11 1 01010W11 1 12002
0165999999432401956092823005+35083+128067SAO  +0008RKPS V02099999000052200059N012800599+01065+00945102675ADDGF100005999999999999999999MA1999999102575EQDN01 00000JPWTH 1QNNG11U1 99999K11 1 00049L11 1 00800M11 1 30290N11 1 00000Q11 1 10267S11 1 00051V11 1 00000W11 1 00000
0082743941999991956041623004+42933-071433SAO  +0076MHT  V0201801N007710030019N0064001N1+01301+01131999999ADDGA1011+999999999GA2071+003009079GF108991999999999999999999MA1999999098101MW1451
0057348660999991956100600004+46183+045350FM-12-000799999V0201601N00211220001CN0200001N9+00781+00721101821ADDAY101999GF100991001001999999001001MD1210021+9999MW1021
038872263023034195611212100E+99999+999999SAO  +999999999V02002359005752200059N056000599+01395-00615103015ADDAA101000095GA1999+999999015GA2999+999999999GA3999+999999999GA4999+999999999GD10005+9999999GD20005+9999999GD30005+9999999GD40005+9999999GF100005999999999999999999MA1999999096175EQDN01 00000JPWTH 1QNNE11 1 00000E11 1 00000E11 1 00000E11 1 00000G11U1 99999H11C1 39999H11 1 00999H11 1 00999H11 1 00999K11 1 00021L11 1 03500M11 1 28400N11 1 00000Q11 1 10301S11 1 00057V11 1 00000W11 1 12011
0066471410432191956050420001+35900+126617SAO  +0013RKJK V0200901N005112200019N0128001N9+01411+00741101071ADDGA1031+075009029GF102991999999999999999999MA1999999100981MW1001
0098718150999991956101906004+48550-058550SAO  +0013CYJT V0203601N002610105019N0160001N1+00461+00191100951ADDGA1021+006009059GA2031+010509059GA3011+024009049GF107991999999999999999999MA1999999100611MW1801
030799999924155195603211500E+45683-118850SAO  +0452PDT  V02029359002150426749N048000599+00675+00615101355ADDAA101000095GA1999+042674034GD14085+9999999GD20995+9999999GD30995+9999999GD40995+9999999GF108085999999999999999999MA1999999095945EQDN01 00000JPWTH 1QNNE11 1 00610E11 1 00099E11 1 00099E11 1 00099G11 1 00140H11 1 23140K11 1 00043L11 1 03000M11 1 28330N11 1 00000Q11 1 10135S11 1 00044V11 1 01010W11 1 78004
0108889560999991956121918004-66883-066950FM-12+000099999V0201301N002619999999N0700001N9+00111-00281100171ADDAY111999GA1999+030009019GA2031+999999999GF199999011001999999031011MD1210111+9999MW1021EQDQ01+000022SCOTCV
0058062900999991956021100004+52267+006883FM-12+004199999V0200201N00311220001CN0060001N9-01111-01281999999ADDAY101999GF100991001001999999001001MA1999999102811MW1051
039472458613922195607080500C+38800-097633SAO  +0390SLN  V02002359005252200059N0240005N1+02725+01895100935ADDAA101000095GA1021+015244094GA2999+999999999GA3999+999999999GA4999+999999999GD12025+9999999GD20005+9999999GD30005+9999999GD40005+9999999GF102025999999999999999999MA1999999096515MW1001EQDN01 00000JPWTH 1QNNE11 1 00202E11 1 00000E11 1 00000E11 1 00000G11U1 99999H11 1 18050H11 1 00999H11 1 00999H11 1 00999K11 1 00066L11 1 01500M11 1 28500N11 1 00000Q11 1 10093S11 1 00081V11 1 00202W11 1 12010
034099999914935195608040200E+40967-098317SAO  +056799999V02024859010350335349N024000599+02505+01565101145ADDAA101000095GA1999+033534094GA2999+076204004GD13075+9999999GD24015+9999999GD30995+9999999GD40995+9999999GF108085999999999999999999MA1999999094725MW1955EQDN01 01000JPWTH 1QNNE11 1 00409E11 1 00601E11 1 00099E11 1 00099G11 1 00110H11 1 18110H11 1 32250K11 1 00060L11 1 01500M11 1 27970N11 1 01000Q11 1 10114S11 1 00077V11 1 01010W11 1 76020
0066471200999991956052407004+37250+127000SAO  +0024RKSW V0202301N003110090019N0192001N9+02521+01691100841ADDGA1051+009009059GF107991999999999999999999MA1999999100511MW1001
0377999999433251956040405005+35517+139400SAO  +0107RJTW V02036059006252200059N024000599+01285+00395101535ADDGA1999+012194084GA2999+054864034GA3999+076204024GA4999+999999999GD12015+9999999GD22005+9999999GD32015+9999999GD40005+9999999GF102025999999999999999999MA1999999100175EQDN01 00000JPWTH 1QNNE11 1 00201E11 1 00200E11 1 00201E11 1 00000G11U1 99999H11 1 11040H11 1 23180H11 1 37250H11 1 00999K11 1 00039L11 1 01500M11 1 29580N11 1 00000Q11 1 10153S11 1 00055V11 1 00202W11 1 11012
0082722586999991956060823004+33717-096667SAO  +0233PNX  V0200451N006210600019N0240001N1+03181+02301101211ADDGA1031+018009099GA2021+060009009GF107991999999999999999999MA1999999098541MW1001
0377722550129121956100416005+28850-096917SAO  +003299999V02099999000052200059N016000599+02945+02335101615ADDGA1999+009144084GA2999+999999024GA3999+999999999GA4999+999999999GD12025+9999999GD22015+9999999GD30005+9999999GD40005+9999999GF103035999999999999999999MA1999999101225EQDN01 00000JPWTH 1QNNE11 1 00203E11 1 00201E11 1 00000E11 1 00000G11U1 99999H11 1 11030H11C1 37999H11 1 00999H11 1 00999K11 1 00074L11 1 01000M11 1 29890N11 1 00000Q11 1 10161S11 1 00085V11 1 00404W11 1 00000
0050747910137171956042808004+33683-078933SAO  +0008MYR  V0201601N003612200019N0160001N9+01851+01801102371ADDGF102991999999999999999999MA1999999102271MW1001
0057135620999991956123012004+41917+019217FM-12+010099999V0200501N00311007801CN9999999N9+00281+00111101901ADDAY161999GF108991081001008001021999MD1410001+9999MW1611
0085722175138601956010713004+32633-083600SAO  +0090WRB  V0203601N004112200019N0160001N9+00891+00561101391ADDGA1999+027009999GF100991999999999999999999MA1999999100301MW1001EQDQ01    003SCCGA1
0092763820999991956073115004+25567-103417FM-12+115099999V0209991C00001220001CN0160001N9+02441+00941101351ADDAY111999GF102991001001999999001021MD1210131+9999MW1021EQDQ01+000042APCTENQ02+000142APC3  
0052164600999991956092804004+37467+015067FM-12+001699999V0202601N00101220001CN0140001N9+99999+99999999999ADDAY101999GA1031+036009039MW1031EQDQ01+000022SCOTCV
038899999993815195610260500E+39900-084200SAO  +031099999V02013559005752200059N019200599+01394+00835102074ADDAA101000095GA1999+036584034GA2999+999999004GA3999+999999999GA4999+999999999GD11005+9999993GD20025+9999999GD30005+9999999GD40005+9999999GF102015999999999999999999MA1999999098444EQDN01 00000JPWTH 1QNNE11 1 00100E11 1 00002E11 1 00000E11 1 00000G11U1 99999H11 1 23120H11C1 32999H11 1 00999H11 1 00999K11 1 00047L11 1 01200M11 1 29070N11 1 00000Q11 1 10207S11 1 00057V11 1 00201W11 1 44011
0082108580999991956011511004+48200+011267SAO  +0519EDSF V0202481N005710750019N0160001N1+00691+00581101271ADDGA1031+030009039GA2071+075009029GF107991999999999999999999MA1999999094991MW1001
0269999999148601956061011005+42083-080183SAO  +022599999V02018059003652200059N024000599+01785+01005101695ADDGD12995+9999999GD22995+9999999GD30995+9999999GD40995+9999999GF102025999999999999999999MA1999999099055EQDN01 00000JPWTH 1QNNE11 1 00299E11 1 00299E11 1 00099E11 1 00099G11U1 99999K11 1 00050L11 1 01500M11 1 29250N11 1 00000Q11 1 10169S11 1 00064V11 1 00302W11 1 55007
0070298130999991956042418004+53967+079233FM-12+014399999V0201401N00821220001CN0100001N9+00391-00391100491ADDAY121999GF106991001001999999001051KA1999M+00891MD1710241+9999MW1031
0269999999225251956080921005+20833-156467SAO  +004099999V02020359004150762049N032000599+03175+02065101425ADDGD12995+9999999GD23995+9999999GD30995+9999999GD40995+9999999GF106055999999999999999999MA1999999101055EQDN01 00000JPWTH 1QNNE11 1 00299E11 1 00499E11 1 00099E11 1 00099G11 1 00250K11 1 00069L11 1 02000M11 1 29840N11 1 00000Q11 1 10142S11 1 00089V11 1 00706W11 1 56008
0066471200999991956091721004+37250+127000SAO  +0024RKSW V0209991C000012200019N0112001N9+01631+01521101521ADDGA1001+999999999GF100991999999999999999999MA1999999101191MW1001
0269999999231531956112008005+38067-117083SAO  +1654TPH  V02033859005252200059N024000599-01065-01895102945ADDGD10995+9999999GD20995+9999999GD30995+9999999GD40995+9999999GF100005999999999999999999MA1999999084125EQDN01 00000JPWTH 1QNNE11 1 00099E11 1 00099E11 1 00099E11 1 00099G11U1 99999K11 1-00002L11 1 01500M11 1 24840N11 1 00000Q11 1 10294S11 1 00013V11 1 00000W11 1 18010
0269999999230901956122600005+36750-108233SAO  +167799999V02024859002652200059N024000599-00175-01065103705ADDGD10995+9999999GD20995+9999999GD30995+9999999GD40995+9999999GF100005999999999999999999MA1999999084295EQDN01 00000JPWTH 1QNNE11 1 00099E11 1 00099E11 1 00099E11 1 00099G11U1 99999K11 1 00013L11 1 01500M11 1 24890N11 1 00000Q11 1 10370S11 1 00029V11 1 00000W11 1 76005
0076351660999991956122818004+51267+067233FM-12+025299999V0202201N00211220001CN0040001N9-02501-02611102961ADDAY171999GF107991999001999999011001MD1210021+9999MW1771EQDQ01+000002SCOTLC
0116040450999991956070706004+65667-020300FM-12+000799999V0202301N00261000601CN0040001N9+00721+00611100651ADDAA199010091AY161061GA1999+000159999GF108991081061000751999999KA1999N+00391MD1710061+9999MW1631EQDQ01    003SCCGA1
0057320430999991956060206004+51833+142333FM-12+999999999V0201801N00411000151CN0000501N9+00501+00501100741ADDAY141999GF109991091999000251999999MD1710161+9999MW1471
017699999914918195604260500E+48567-093383SAO  +0359INL  V02031559003152200059N024000599-00565-01065102085ADDAA101000095GF100005999999999999999999MA1999999097605EQDN01 00000JPWTH 1QNNG11U1 99999K11 1 00013L11 1 01500M11 1 28820N11 1 00000Q11 1 10208S11 1 00022V11 1 00000W11 1 88006
0066471200999991956021306004+37250+127000SAO  +0024RKSW V0202701N002610600019N0112001N9+00461-00651102061ADDGA1081+060009029GF108991999999999999999999MA1999999101731MW1001
039472533014827195607210500C+41000-085217SAO  +0249FWA  V02018059001052200059N0240005N9+01785+01675101355ADDAA101000095GA1041+024384034GA2999+999999999GA3999+999999999GA4999+999999999GD12045+9999999GD20005+9999999GD30005+9999999GD40005+9999999GF104045999999999999999999MA1999999098415MW1001EQDN01 00000JPWTH 1QNNE11 1 00205E11 1 00000E11 1 00000E11 1 00000G11U1 99999H11 1 23080H11 1 00999H11 1 00999H11 1 00999K11 1 00062L11 1 01500M11 1 29060N11 1 00000Q11 1 10135S11 1 00064V11 1 00505W11 1 55002
0377999999038151956070311005+30483-087350SAO  +002999999V02024859002652200059N019200599+02565+02395101675ADDGA1999+006104084GA2999+030484034GA3999+076204004GA4999+999999999GD12025+9999999GD22015+9999999GD32015+9999999GD40005+9999999GF103025999999999999999999MA1999999101355EQDN01 00000JPWTH 1QNNE11 1 00202E11 1 00201E11 1 00201E11 1 00000G11U1 99999H11 1 11020H11 1 23100H11 1 32250H11 1 00999K11 1 00075L11 1 01200M11 1 29930N11 1 00000Q11 1 10167S11 1 00078V11 1 00403W11 1 76005
0057360220999991956102112004+52017+080367FM-12+019599999V0202801N00511012301CN0100001N9+00281+00111102861ADDAY161999GF108991081051012501999999MD1710011+9999MW1021
0059476750999991956092507004+34767+139383FM-12+019399999V0202001N00511057001CN0230001N9+02331+01721101331ADDAY101999GA1061+057009049GF106991021051008001031011MW1031
005083721099999195607150200N-23000-047133BRAZ +0661SBKP V02009019004119999999N016000199+01481+01301999999ADDGF100991999999999999999999MA1102251094621MW1951
0066722686230081956111023004+34383-103317SAO  +1309CVS  V0202301N005112200019N0240001N9+01961-00201101981ADDGA1001+999999999GF100991999999999999999999MA1999999087331MW1001
0092265850999991956120500004+55850+032950FM-12+021499999V0203201N00411004501CN0100001N9-00281-00391099502ADDAY121999GF108991999071004501021999MD1210101+9999MW1021EQDQ01+000082SCOTLCQ02+099503APOSLP
0377999999433241956062320005+34150+132233SAO  +0003RJOI V02027059003150121949N012800599+01945+01565100305ADDGA1999+007624064GA2999+012194064GA3999+999999999GA4999+999999999GD12025+9999999GD23065+9999999GD30005+9999999GD40005+9999999GF107075999999999999999999MA1999999100245EQDN01 00000JPWTH 1QNNE11 1 00202E11 1 00407E11 1 00000E11 1 00000G11 1 00040H11 1 15025H11 1 15040H11 1 00999H11 1 00999K11 1 00060L11 1 00800M11 1 29600N11 1 00000Q11 1 10030S11 1 00067V11 1 00909W11 1 77006
0062478270999991956061010004+31567+130550FM-12+000599999V0201801N00151220001CN0250001N9+02501+01781100731ADDAY101999GF100991001001999999001001MW1031EQDQ01+000012SCOTCV
0377999999147931956070921005+40200-075150SAO  +0102NXX  V02022559005250365849N016000599+02725+02175100615ADDGA1999+006104084GA2999+036584034GA3999+067064024GA4999+999999999GD12035+9999999GD23025+9999999GD34025+9999999GD40005+9999999GF108075999999999999999999MA1999999099465EQDN01 00000JPWTH 1QNNE11 1 00204E11 1 00403E11 1 00603E11 1 00000G11 1 00120H11 1 11020H11 1 23120H11 1 37220H11 1 00999K11 1 00071L11 1 01000M11 1 29370N11 1 00000Q11 1 10061S11 1 00081V11 1 01009W11 1 66010
0377999999231571956033021005+37367-118367SAO  +1253BIH  V02099999000052200059N112000599+02335-01225100785ADDGA1999+060964034GA2999+999999999GA3999+999999999GA4999+999999999GD11015+9999993GD20005+9999999GD30005+9999999GD40005+9999999GF101005999999999999999999MA1999999086835EQDN01 00000JPWTH 1QNNE11 1 00101E11 1 00000E11 1 00000E11 1 00000G11U1 99999H11 1 23200H11 1 00999H11 1 00999H11 1 00999K11 1 00010L11 1 07000M11 1 25640N11 1 00000Q11 1 10078S11 1 00074V11 1 00100W11 1 00000
0076297120999991956040600004+54700+078667FM-12+011299999V0201801N00311220001CN0100001N9-00221-00391103491ADDAY101999GF102991999001999999031001MD1210081+9999MW1031EQDQ01+000002SCOTLC
0139475850999991956120921004+39650+141967FM-12+004799999V0203201N002619999999N0150001N9+00171-00441100531ADDAY101999GA1999+011709019GA2999+011709059GF107991011051999999051021MA1999999099931MD1310321+9999MW1021EQDQ01+000992SCOLCBQ02    003SCCGA2
0058943260999991956020612004-23800+133883FM-12+054699999V0203601N006219999999N0600001N9+03331+01561999999ADDAY101999GF102991011091022501081999MA1999999104161MW1001
0275999999038161956020112005+37067-088767SAO  +012199999V02011359002150121949N011200599+00175-00395103125ADDGD13995+9999999GD24995+9999999GD30995+9999999GD40995+9999999GF108085999999999999999999MA1999999101565MW1795EQDN01 06000JPWTH 1QNNE11 1 00499E11 1 00699E11 1 00099E11 1 00099G11 1 00040K11 1 00025L11 1 00700M11 1 29990N11 1 06000Q11 1 10312S11 1 00035V11 1 01010W11 1 34004
0105040300999991956051406004+64133-021933FM-12+001899999V0202501N00931220001CN0400001N9+00501+00111100321ADDAY121061GA1999+000159999GF104991031031004501001061KA1999N+00281MD1210231+9999MW1011EQDQ01    003SCCGA1
0057334660999991956051912004+49667+031000FM-12+999999999V0202001N00621036001CN0100001N9+99999+99999101151ADDAY121999GF108991031021012501061071MD1710141+9999MW1021
0081265240999991956071618004+55933+023150FM-12+010899999V0200401N00511007801CN0040001N9+01611+01391100551ADDAA199003091AY181999GF108991081031008001999999KA1999M+02001MD1210071+9999MW1801
0066035953999991956010118004+52083+001400SAO  +0029EGVG V0202901N009312200019N0128001N9+00741+00461099661ADDGA1001+999999999GF100991999999999999999999MA1999999099291MW1001
038899999914745195604241100E+43200-071517SAO  +010899999V02024859001550762049N048000599+00115-00285102005ADDAA101000095GA1999+076204024GA2999+999999999GA3999+999999999GA4999+999999999GD14085+9999999GD20005+9999999GD30005+9999999GD40005+9999999GF108055999999999999999999MA1999999100685EQDN01 00000JPWTH 1QNNE11 1 00610E11 1 00000E11 1 00000E11 1 00000G11 1 00250H11 1 37250H11 1 00999H11 1 00999H11 1 00999K11 1 00027L11 1 03000M11 1 29730N11 1 00000Q11 1 10200S11 1 00034V11 1 01006W11 1 76003
0269999999241331956022906005+42533-113767SAO  +1267BYI  V02018059007750335349N048000599+00225-00565101595ADDGD14995+9999999GD20995+9999999GD30995+9999999GD40995+9999999GF108085999999999999999999MA1999999087175EQDN01 00000JPWTH 1QNNE11 1 00699E11 1 00099E11 1 00099E11 1 00099G11 1 00110K11 1 00022L11 1 03000M11 1 25740N11 1 00000Q11 1 10159S11 1 00036V11 1 01010W11 1 55015
0377999999403091956081308005+07333+134483SAO  +002799999V02004559001050914449N024000599+02785+02505100785ADDGA1999+005494084GA2999+091444004GA3999+999999999GA4999+999999999GD12035+9999999GD24075+9999999GD30005+9999999GD40005+9999999GF108065999999999999999999MA1999999100415EQDN01 00000JPWTH 1QNNE11 1 00204E11 1 00609E11 1 00000E11 1 00000G11 1 00300H11 1 11018H11 1 32300H11 1 00999H11 1 00999K11 1 00077L11 1 01500M11 1 29650N11 1 00000Q11 1 10078S11 1 00082V11 1 01008W11 1 22002
0377999999038531956042916005+30383-081417SAO  +000699999V02011359005250091449N024000599+02565+02175102345ADDGA1999+003054084GA2999+009144084GA3999+999999999GA4999+999999999GD12025+9999999GD23035+9999999GD30005+9999999GD40005+9999999GF105055999999999999999999MA1999999102275EQDN01 00000JPWTH 1QNNE11 1 00202E11 1 00404E11 1 00000E11 1 00000G11 1 00030H11 1 11010H11 1 11030H11 1 00999H11 1 00999K11 1 00071L11 1 01500M11 1 30200N11 1 00000Q11 1 10234S11 1 00078V11 1 00606W11 1 34010
038899999923066195601061600E+39117-108533SAO  +1476GJT  V02009059003650365849N144000599+00225-00785102515ADDAA101000095GA1999+024384064GA2999+036584034GA3999+060964004GA4999+999999999GD12015+9999999GD23065+9999999GD33015+9999999GD40005+9999999GF107065999999999999999999MA1999999085745EQDN01 00000JPWTH 1QNNE11 1 00201E11 1 00407E11 1 00401E11 1 00000G11 1 00120H11 1 15080H11 1 23120H11 1 32200H11 1 00999K11 1 00018L11 1 09000M11 1 25320N11 1 00000Q11 1 10251S11 1 00036V11 1 00908W11 1 33007
0057620020999991956030609004+31867+010983FM-12+063699999V0203601N00721002101CN0080001N9+00831+00611102271ADDAY101999GF108991081061002501999999MD1210401+9999MW1031
0377999999038151956042116005+30483-087350SAO  +002999999V02011359003152200059N024000599+02115-00175102525ADDGA1999+076204024GA2999+999999999GA3999+999999999GA4999+999999999GD14085+9999993GD20005+9999999GD30005+9999999GD40005+9999999GF108045999999999999999999MA1999999102205EQDN01 00000JPWTH 1QNNE11 1 00510E11 1 00000E11 1 00000E11 1 00000G11U1 99999H11 1 37250H11 1 00999H11 1 00999H11 1 00999K11 1 00029L11 1 01500M11 1 30180N11 1 00000Q11 1 10252S11 1 00070V11 1 01005W11 1 34006
028099999923063195610301800E+39650-106917SAO  +1980EGE  V02099999000052200059N040000599+00335-00445102745ADDAA101000095GD10995+9999999GD20995+9999999GD30995+9999999GD40995+9999999GF100005999999999999999999MA1999999080465EQDN01 00000JPWTH 1QNNE11 1 00099E11 1 00099E11 1 00099E11 1 00099G11U1 99999K11 1 00024L11 1 02500M11 1 23760N11 1 00000Q11 1 10274S11 1 00038V11 1 00000W11 1 00000
030799999924149195610281600E+46383-117017SAO  +043399999V02099999000050182949N016000599+00225+00115101685ADDAA101000095GA1999+018294064GD14085+9999999GD20995+9999999GD30995+9999999GD40995+9999999GF108085999999999999999999MA1999999096415EQDN01 00000JPWTH 1QNNE11 1 00610E11 1 00099E11 1 00099E11 1 00099G11 1 00060H11 1 15060K11 1 00034L11 1 01000M11 1 28470N11 1 00000Q11 1 10168S11 1 00036V11 1 01010W11 1 00000
039472753014914195601282100C+46900-096800SAO  +0273FAR  V02029359009350548649N0240005N9-00835-01175101145ADDAA101000095GA1051+054864004GA2999+999999999GA3999+999999999GA4999+999999999GD13055+9999999GD20005+9999999GD30005+9999999GD40005+9999999GF105035999999999999999999MA1999999097735MW1001EQDN01 00000JPWTH 1QNNE11 1 00406E11 1 00000E11 1 00000E11 1 00000G11 1 00180H11 1 32180H11 1 00999H11 1 00999H11 1 00999K11 1 00011L11 1 01500M11 1 28860N11 1 00000Q11 1 10114S11 1 00017V11 1 00604W11 1 78018
031372785024157195612270700C+47617-117517SAO  +0721GEG  V02020359002150009149N0013005N1-00285-00335103625ADDAA101000095GA1091+000914104GD15085+9999999GD20995+9999999GD30995+9999999GD40995+9999999GF108085999999999999999999MA1999999094825MW1455EQDN01 07000JPWTH 1QNNE11 1 00710E11 1 00099E11 1 00099E11 1 00099G11 1 00003H11 1 45003K11 1 00026L11 1 00081M11 1 28000N11 1 07000Q11 1 10362S11 1 00027V11 1 01010W11 1 56004
018272251012924195612310900C+27767-097450SAO  +0014CRP  V02018059003652200059N0240005N1+01285+01225101665ADDAA101000095GF100005999999999999999999MA1999999101525MW1001EQDN01 00000JPWTH 1QNNG11U1 99999K11 1 00054L11 1 01500M11 1 29980N11 1 00000Q11 1 10166S11 1 00055V11 1 00000W11 1 55007
0091040870999991956081609004+65783-014450FM-12+003999999V0209991C00001004501CN0300001N9+00611+00501999999ADDAY141031GA1999+000159999GF108991081051004501999999KA1999N+00391MW1411EQDQ01    003SCCGA1
0377999999931051956073017005+33433-112367SAO  +029799999V02013559005250396249N080000599+02834+01945101204ADDGA1999+039624034GA2999+060964024GA3999+999999999GA4999+999999999GD13065+9999999GD24025+9999999GD30005+9999999GD40005+9999999GF108065999999999999999999MA1999999097974EQDN01 00000JPWTH 1QNNE11 1 00408E11 1 00602E11 1 00000E11 1 00000G11 1 00130H11 1 23130H11 1 37200H11 1 00999H11 1 00999K11 1 00067L11 1 05000M11 1 28930N11 1 00000Q11 1 10120S11 1 00083V11 1 01007W11 1 44010
028099999923063195608071600E+39650-106917SAO  +1980EGE  V02099999000052200059N040000599+02225+00675101765ADDAA101000095GD10995+9999999GD20995+9999999GD30995+9999999GD40995+9999999GF100005999999999999999999MA1999999080465EQDN01 00000JPWTH 1QNNE11 1 00099E11 1 00099E11 1 00099E11 1 00099G11U1 99999K11 1 00044L11 1 02500M11 1 23760N11 1 00000Q11 1 10176S11 1 00072V11 1 00000W11 1 00000
0072035833999991956100209004+52417+000550SAO  +0015EGUL V0203601N005110024019N0064001N9+01191+01071101001ADDGA1081+002409079GF108991999999999999999999MA1999999100851MW1051MW2611
0106948680999991956072905003-37650+144967FM-12+004499999V0203601N014419999999N0240001N9+01501+00721999999ADDAY101999GA1015+009005085GA2055+999999035GA3015+999999999GF107991011011012501071061MA1999999100301MW1001
0383722356139391956110423003+33517-091000SAO  +0042GLH  V02009059001550137249N0160005N1+02175+01565102005ADDGA1051+013724084GA2021+220009024GA3999+999999999GA4999+999999999GD13055+9999999GD23025+9999999GD30005+9999999GD40005+9999999GF106055999999999999999999MA1999999101495MW1001EQDN01 00000JPWTH 1QNNE11 1 00406E11 1 00402E11 1 00000E11 1 00000G11 1 00045H11 1 11045H11C1 37999H11 1 00999H11 1 00999K11 1 00060L11 1 01000M11 1 29970N11 1 00000Q11 1 10200S11 1 00071V11 1 00806W11 1 33003
0275999999947251956111122005+44933-074850SAO  +0067MSS  V02020359007750064049N019200599+00394-00065100444ADDGD14995+9999999GD20995+9999999GD30995+9999999GD40995+9999999GF108085999999999999999999MA1999999099664MW1805EQDN01 02300JPWTH 1QNNE11 1 00699E11 1 00099E11 1 00099E11 1 00099G11 1 00021K11 1 00031L11 1 01200M11 1 29430N11 1 02300Q11 1 10044S11 1 00039V11 1 01010W11 1 56015
0066785140999991956010611004+18500-067133SAO  +0075TJBQ V0203601N006212200019N0240001N1+02241+01911101201ADDGA1021+007509089GF102991999999999999999999MA1999999100301MW1001
0383999999137521956012221005+38983-076467SAO  +000899999V02018059005252200059N009600599+00395-00175102255ADDGA1999+076204004GA2999+999999999GA3999+999999999GA4999+999999999GD13065+9999993GD20005+9999999GD30005+9999999GD40005+9999999GF106025999999999999999999MA1999999102175MW1055EQDN01 08100JPWTH 1QNNE11 1 00307E11 1 00000E11 1 00000E11 1 00000G11U1 99999H11 1 32250H11 1 00999H11 1 00999H11 1 00999K11 1 00029L11 1 00600M11 1 30170N11 1 08100Q11 1 10225S11 1 00039V11 1 00703W11 1 55010
0377999999138831956081217005+33983-081000SAO  +006999999V02029359002152200059N024000599+03335+02285101765ADDGA1999+091444004GA2999+999999999GA3999+999999999GA4999+999999999GD13065+9999993GD20005+9999999GD30005+9999999GD40005+9999999GF106025999999999999999999MA1999999100955EQDN01 00000JPWTH 1QNNE11 1 00307E11 1 00000E11 1 00000E11 1 00000G11U1 99999H11 1 32300H11 1 00999H11 1 00999H11 1 00999K11 1 00073L11 1 01500M11 1 29810N11 1 00000Q11 1 10176S11 1 00092V11 1 00702W11 1 78004
0057352250999991956101712004+50750+056533FM-12+017899999V0202201N00411015001CN0200001N9+00611+00281101151ADDAY101999GF108991081081017501999999MD1210021+9999MW1021
0281723677230541956081921003+35650-105150SAO  +2093LVS  V02018059005250091449N0160005N1+01565+01115101905ADDGD14995+9999999GD20995+9999999GD30995+9999999GD40995+9999999GF108085999999999999999999MA1999999079685MW1171MW2955EQDN01 01000JPWTH 1QNNE11 1 00699E11 1 00099E11 1 00099E11 1 00099G11 1 00030K11 1 00052L11 1 01000M11 1 23530N11 1 01000Q11 1 10190S11 1 00060V11 1 01010W11 1 55010
0058942940999991956090905004-19250+146767FM-12+000499999V0202701N004119999999N0300001N9+02561+00001999999ADDAY101999GF100991001001999999999999MA1999999100901MW1001
007772303013714195608020700D+35183-079017SAO  +0066POB  V0202001N002612200019N0112001N9+02461+02351101651ADDAA101000095GA1001+999999999GF100991999999999999999999MA1999999100881MW1001
039472353013967195601202100C+35400-097600SAO  +0390OKC  V02011359004652200059N0240005N1+00505-00395101255ADDAA101000095GA1031+024384034GA2051+091444024GA3999+999999999GA4999+999999999GD12035+9999999GD24055+9999993GD30005+9999999GD40005+9999999GF108035999999999999999999MA1999999096485MW1001EQDN01 00000JPWTH 1QNNE11 1 00204E11 1 00506E11 1 00000E11 1 00000G11U1 99999H11 1 23080H11 1 37300H11 1 00999H11 1 00999K11 1 00025L11 1 01500M11 1 28490N11 1 00000Q11 1 10125S11 1 00041V11 1 01004W11 1 34009
0076155110999991956091400004+43817+023233FM-12+003399999V0203201N00511220001CN0200001N9+01281+00611100961ADDAY111999GF105991999001999999041001MD1410001+9999MW1031EQDQ01+000002SCOTLC
028099999914916195611230900E+47933-097083SAO  +025999999V02036059001552200059N024000599-01725-02005102745ADDAA101000095GD10995+9999999GD20995+9999999GD30995+9999999GD40995+9999999GF100005999999999999999999MA1999999099465EQDN01 00000JPWTH 1QNNE11 1 00099E11 1 00099E11 1 00099E11 1 00099G11U1 99999K11 1-00004L11 1 01500M11 1 29370N11 1 00000Q11 1 10274S11 1 00001V11 1 00000W11 1 11003
0057308560999991956111906004+51483+114550FM-12+085699999V0203401N00101220001CN0100001N9-01281-01281999999ADDAY171999GF102991021011004501041001MD1210071+9999MW1011
0082719250999991956030701004+69100-105117SAO  +0027CYCB V0203151N001510600019N0240001N1-03811+99999102181ADDGA1041+015009049GA2041+060009029GF108991999999999999999999MA1999999102171MW1001
0377999999127141956102711005+21433-071133SAO  +0003MKJT V02009059005252200059N019200599+02675+02225101155ADDGA1999+006404084GA2999+033534034GA3999+999999004GA4999+999999999GD12025+9999999GD22015+9999999GD33035+9999999GD40005+9999999GF106045999999999999999999MA1999999101085EQDN01 00000JPWTH 1QNNE11 1 00203E11 1 00201E11 1 00404E11 1 00000G11C1 99999H11 1 11021H11 1 23110H11C1 32999H11 1 00999K11 1 00072L11 1 01200M11 1 29850N11 1 00000Q11 1 10115S11 1 00080V11 1 00705W11 1 33010
0057260380999991956020800004+59417+024800FM-12+004499999V0200701N00211220001CN0200001N9-02391-02501103071ADDAY101999GF100991001001999999001001MD1210051+9999MW1021
0098479310999991956051812004+26350+127750SAO  +0046RODN V0203201N006710054019N0160001N9+02221+01941100731ADDGA1021+001809059GA2031+005409059GA3061+024009039GF108991999999999999999999MA1999999100201MW1001
038899999904725195602270500E+42217-075983SAO  +0485BGM  V02024859008250128049N032000599+00065-00395100455ADDAA101000095GA1999+012804064GA2999+999999999GA3999+999999999GA4999+999999999GD13055+9999999GD20005+9999999GD30005+9999999GD40005+9999999GF105045999999999999999999MA1999999094485EQDN01 00000JPWTH 1QNNE11 1 00406E11 1 00000E11 1 00000E11 1 00000G11 1 00042H11 1 15042H11 1 00999H11 1 00999H11 1 00999K11 1 00025L11 1 02000M11 1 27900N11 1 00000Q11 1 10045S11 1 00033V11 1 00605W11 1 76016
0117108660999991956052913004+48133+011700FM-12+052799999V0200201N00211220001CN0170001N9+99999+99999999999ADDAJ199999999999999AY121011GA1041+030009039GA2031+075009009GF106991999999999999999999IA1009MW1021EQDQ01  01762SNDP  
017672488023185195612150600B+39500-119783SAO  +134099999V02031559001552200059N024000599-00565-00785102705ADDAA101000095GF100005999999999999999999MA1999999087235EQDN01 00000JPWTH 1QNNG11U1 99999K11 1 00018L11 1 01500M11 1 25760N11 1 00000Q11 1 10270S11 1 00022V11 1 00000W11 1 88003
0089404490999991956112315004+25350+055383FM-12+000299999V0203101N00461220001CN0450001N9+02501+02001101561ADDAA199000091AY101999GA1001+999999999GF100991001001999999001001IA1319KA1999M+02781MW1001
0082483270999991956011611004+18283+098983SAO  +0314VTCC V0209991C000012200019N0080001N1+01961+01571101101ADDGA1011+012009089GA2021+072009009GF102991999999999999999999MA1999999097461MW1451
0075419400999991956102105004+22350+091833AERO +001499999V0200901N00461036001CN0120001N9+99999+99999101231ADDAY121999GA1041+006009059GA2041+030009039GF108991041051008001061999MW1031
007772351013966195606130700D+33983-098517SAO  +0310SPS  V0201101N005112200019N0240001N9+02521+01691101291ADDAA101000095GA1001+999999999GF100991999999999999999999MA1999999097731MW1001
038899999913866195605131000E+38367-081600SAO  +029099999V02022559003150762049N024000599+02115+01565101405ADDAA101000095GA1999+076204024GA2999+999999999GA3999+999999999GA4999+999999999GD13065+9999999GD20005+9999999GD30005+9999999GD40005+9999999GF106065999999999999999999MA1999999097905EQDN01 00000JPWTH 1QNNE11 1 00407E11 1 00000E11 1 00000E11 1 00000G11 1 00250H11 1 37250H11 1 00999H11 1 00999H11 1 00999K11 1 00060L11 1 01500M11 1 28910N11 1 00000Q11 1 10140S11 1 00070V11 1 00707W11 1 66006
007772251012924195602210400D+27767-097500SAO  +0013CRP  V0200681N005710048019N0160001N1+01801+01461102251ADDAA101000095GA1081+004809059GF108991999999999999999999MA1999999102101MW1001
0127474020999991956053106004+44933+142583FM-12+000899999V0200701N00261001501CN0040001N9+00781+00721101191ADDAJ100009199999999AY101999GA1999+087009089GA2031+999999099GF108991081061001501999999IA1009MA1999999101081MD1110051+9999MW1021
0165999999231691956031519005+36083-115167SAO  +065999999V02009059003652200059N104000599+01065-01505102885ADDGF100005999999999999999999MA1999999095095EQDN01 00000JPWTH 1QNNG11U1 99999K11 1 00005L11 1 06500M11 1 28080N11 1 00000Q11 1 10288S11 1 00051V11 1 00000W11 1 33007
0070308380999991956041712004+51317+108850FM-12+080099999V0202901N00101220001CN0200001N9-00221-01611101661ADDAY121999GF108991001001999999041011KA1999M+00221MD1210231+9999MW1021
0066725300948461956021603004+41983-087900SAO  +0186ORD  V0200701N002612200019N0240001N9-00371-00811102611ADDGA1011+006009059GF102991999999999999999999MA1999999100071MW1001
0377999999232441956022915005+37417-122050SAO  +0012NUQ  V02099999000050304849N016000599+00835+00725102225ADDGA1999+009144064GA2999+030484034GA3999+076204024GA4999+999999999GD12035+9999999GD23025+9999999GD33015+9999999GD40005+9999999GF106065999999999999999999MA1999999102105EQDN01 00000JPWTH 1QNNE11 1 00204E11 1 00403E11 1 00401E11 1 00000G11 1 00100H11 1 15030H11 1 23100H11 1 37250H11 1 00999K11 1 00045L11 1 01000M11 1 30150N11 1 00000Q11 1 10222S11 1 00047V11 1 00808W11 1 00000
033499999924232195610300300E+44917-123017SAO  +006199999V02013559004650021349N011200599+00835+00785099465ADDAA101000895GA1999+002134134GA2999+005494134GD13065+9999999GD24025+9999999GD30995+9999999GD40995+9999999GF108085999999999999999999MA1999999098715EQDN01 00000JPWTH 1QNNE11 1 00407E11 1 00603E11 1 00099E11 1 00099G11 1 00007H11 1 13007H11 1 13018K11 1 00046L11 1 00700M11 1 29150N11 1 00000Q11 1 09946S11 1 00047V11 1 01010W11 1 44009
0165999999128411956072007005+28550-081333SAO  +003799999V02020359002152200059N016000599+02395+02335101865ADDGF100005999999999999999999MA1999999101465EQDN01 00000JPWTH 1QNNG11U1 99999K11 1 00074L11 1 01000M11 1 29960N11 1 00000Q11 1 10186S11 1 00075V11 1 00000W11 1 56004
0089476380999991956091309004+35667+138550FM-12+027399999V0202001N00151007801CN0040001N9+01941+01891101541ADDAY101999GA1999+027009089GA2061+999999099GF108991081001008001021999MD1710031+9999MW1611
0066601360999991956080914004+34233-006067SAO  +0055GSSV V0203601N006212200019N0240001N9+02741+01301101841ADDGA1011+007509079GF102991999999999999999999MA1999999101151MW1001
0066726071146061956022018004+44800-068833SAO  +0058BGR  V0202901N006712200019N0240001N9+00021-00701100991ADDGA1021+012009059GF102991999999999999999999MA1999999100171MW1001
0057620190999991956022600004+31200+016583FM-12+002299999V0209991C00001220001CN0160001N9+01281+01281100811ADDAY101999GF100991001001999999001001MD1210161+9999MW1021
038899999913963195604221800E+34733-092233SAO  +008499999V02022559006252200059N024000599+02175+01065101635ADDAA101000095GA1999+012194084GA2999+999999999GA3999+999999999GA4999+999999999GD12025+9999999GD20005+9999999GD30005+9999999GD40005+9999999GF102025999999999999999999MA1999999100685EQDN01 00000JPWTH 1QNNE11 1 00202E11 1 00000E11 1 00000E11 1 00000G11U1 99999H11 1 11040H11 1 00999H11 1 00999H11 1 00999K11 1 00051L11 1 01500M11 1 29730N11 1 00000Q11 1 10163S11 1 00071V11 1 00202W11 1 66012
0057129200999991956030912004+46750+017250FM-12+011799999V0203601N00871220001CN0300001N9-00111-00781999999ADDAY111999GF102991021011012501001021MD1610051+9999MW1011
0281999999139761956020415005+30200-091983SAO  +0013LFT  V02004559004150021349N004800599+00675+00675101495ADDGD13995+9999999GD24995+9999999GD30995+9999999GD40995+9999999GF108085999999999999999999MA1999999101325MW1455MW2515EQDN01 03370JPWTH 1QNNE11 1 00499E11 1 00699E11 1 00099E11 1 00099G11 1 00007K11 1 00044L11 1 00300M11 1 29920N11 1 03370Q11 1 10149S11 1 00044V11 1 01010W11 1 22008
0043489480999991956022610004+16667+105000FM-12+018499999V0202901N00101220001CN0120001N9+99999+99999999999ADDAY101999GF101991999999999999999999MW1051
0377999999433181956011513005+37950+139117SAO  +0004RJSN V02029359007750070149N011200599+00005-00225102375ADDGA1999+002444154GA2999+007014064GA3999+999999999GA4999+999999999GD12015+9999999GD23055+9999999GD30005+9999999GD40005+9999999GF105055999999999999999999MA1999999102275EQDN01 00000JPWTH 1QNNE11 1 00201E11 1 00406E11 1 00000E11 1 00000G11 1 00023H11 1 17008H11 1 15023H11 1 00999H11 1 00999K11 1 00028L11 1 00700M11 1 30200N11 1 00000Q11 1 10237S11 1 00032V11 1 00606W11 1 78015
0072106070999991956041709004+49967+006700SAO  +0362EDAD V0203601N005110030019N0096001N9+00221+00001101151ADDGA1081+003009079GF108991999999999999999999MA1999999096681MW1111MW2711
0269999999129351956042801005+28717-096250SAO  +0005PSX  V02013559007750036649N016000599+02335+02225101255ADDGD12995+9999999GD24995+9999999GD30995+9999999GD40995+9999999GF108085999999999999999999MA1999999101195EQDN01 00000JPWTH 1QNNE11 1 00299E11 1 00699E11 1 00099E11 1 00099G11 1 00012K11 1 00072L11 1 01000M11 1 29880N11 1 00000Q11 1 10125S11 1 00074V11 1 01010W11 1 44015
0302999999147801956102712005+40033-074317SAO  +003799999V02004559005250030549N006400599+01395+01225102375ADDGA1999+003054064GD14085+9999999GD20995+9999999GD30995+9999999GD40995+9999999GF108085999999999999999999MA1999999101935MW1455EQDN01 07000JPWTH 1QNNE11 1 00610E11 1 00099E11 1 00099E11 1 00099G11 1 00010H11 1 15010K11 1 00054L11 1 00400M11 1 30100N11 1 07000Q11 1 10237S11 1 00057V11 1 01010W11 1 22010
0057067500999991956022815004+46650+008617FM-12+228499999V0200301N00621220001CN0700001N9-00281-01501999999ADDAY121999GF108991011001017501041011MD1510041+9999MW1031
0066718310999991956122215004+49417-082467SAO  +0229CYYU V0201351N008210210019N0240001N1-01871-02261102681ADDGA1081+021009039GF108991999999999999999999MA1999999099661MW1001
0377999999038151956072618005+30483-087350SAO  +002999999V02015859002650061049N019200599+02945+02335101955ADDGA1999+006104094GA2999+076204004GA3999+999999999GA4999+999999999GD13055+9999999GD23025+9999999GD30005+9999999GD40005+9999999GF106065999999999999999999MA1999999101635EQDN01 00000JPWTH 1QNNE11 1 00406E11 1 00402E11 1 00000E11 1 00000G11 1 00020H11 1 18020H11 1 32250H11 1 00999H11 1 00999K11 1 00074L11 1 01200M11 1 30010N11 1 00000Q11 1 10195S11 1 00085V11 1 00807W11 1 54005
0043227680999991956102800004+62100+042900FM-12+005099999V0203601N00411007801CN0100001N9-00721+99999102361ADDAY171999GF108991081001008001021999MW1711
0171722550129121956091807003+28850-096917SAO  +0032VCT  V02099999000052200059N0240005N1+02445+02175101655ADDGF100005999999999999999999MA1999999101255MW1001EQDN01 00000JPWTH 1QNNG11U1 99999K11 1 00071L11 1 01500M11 1 29900N11 1 00000Q11 1 10165S11 1 00076V11 1 00000W11 1 00000
0383999999147561956051318005+41250-070067SAO  +0014ACK  V02029359005250670649N009600599+02175+01395100345ADDGA1999+013724064GA2999+067064024GA3999+999999999GA4999+999999999GD12045+9999999GD23035+9999999GD30005+9999999GD40005+9999999GF107065999999999999999999MA1999999100305MW1055EQDN01 08100JPWTH 1QNNE11 1 00205E11 1 00404E11 1 00000E11 1 00000G11 1 00220H11 1 15045H11 1 37220H11 1 00999H11 1 00999K11 1 00057L11 1 00600M11 1 29620N11 1 08100Q11 1 10034S11 1 00071V11 1 00908W11 1 78010
0066470660999991956100707004+38017+128133SAO  +0181RKNK V0200681N003110300019N0112001N1+02301+01911999999ADDGA1081+030009039GF108991999999999999999999MA1999999099971MW1001
0383722970231291956070202003+33817-118150SAO  +0013LGB  V02027059003152200059N0192005N1+02005+01395101385ADDGA1011+004574064GA2011+010674064GA3021+042674034GA4999+999999999GD12015+9999999GD22015+9999999GD32025+9999999GD40005+9999999GF103035999999999999999999MA1999999101155MW1001EQDN01 00000JPWTH 1QNNE11 1 00201E11 1 00201E11 1 00202E11 1 00000G11U1 99999H11 1 15015H11 1 15035H11 1 23140H11 1 00999K11 1 00057L11 1 01200M11 1 29870N11 1 00000Q11 1 10138S11 1 00068V11 1 00404W11 1 77006
0058949950999991956120310004-31517+159050FM-12+001199999V0200201N008219999999N0400001N9+01941+01561999999ADDAY101999GF104991041081008001999999MA1999999100451MW1001
0072405900999991956020206004+14883+045700FM-12+115899999V0209991C00001220001CN0450001N9+01561+00391999999ADDAY101999GA1001+999999999GF100991001001999999001001KA1999N+01561MW1001
009294212099999195602010700N-18230+127670AUST +0424     V0201355N012959999999N999999999+03655+01605999999ADDGA1035+021005085GA2015+999999045GA3045+999999999GF107995034085021005025085MA1999999095555
0329727930242331956070111003+47450-122300SAO  +0122SEA  V02009059001550112849N0192005N1+01065+00895102005ADDGA1051+011284064GA2061+015244064GD13055+9999999GD24065+9999999GD30995+9999999GD40995+9999999GF108085999999999999999999MA1999999100345MW1001EQDN01 00000JPWTH 1QNNE11 1 00406E11 1 00608E11 1 00099E11 1 00099G11 1 00037H11 1 15037H11 1 15050K11 1 00048L11 1 01200M11 1 29630N11 1 00000Q11 1 10200S11 1 00051V11 1 01010W11 1 33003
0057336780999991956090500004+48150+028283FM-12+999999999V0201401N00311220001CN0100001N9+01721+01111101701ADDAY101999GF100991001001999999001001MD1710031+9999MW1021
0050471030999991956020706004+37967+124667SAO  +0193RKSP V0202031N003612200019N0160001N1+00521-00311101971ADDGF100991999999999999999999MA1999999101691MW1001
0066722730031241956113003004+31567-110333SAO  +1422FHU  V0201801N003112200019N0640001N9+00891-01051102201ADDGA1001+999999999GF100991999999999999999999MA1999999086391MW1001
039472446113988195607082200C+39117-094583SAO  +0231KC   V02024859007752200059N0240005N1+02785+01225101345ADDAA101000095GA1031+042674184GA2011+076204024GA3999+999999999GA4999+999999999GD12035+9999999GD22015+9999999GD30005+9999999GD40005+9999999GF104045999999999999999999MA1999999098685MW1001EQDN01 00000JPWTH 1QNNE11 1 00204E11 1 00201E11 1 00000E11 1 00000G11U1 99999H11 1 28140H11 1 37250H11 1 00999H11 1 00999K11 1 00054L11 1 01500M11 1 29140N11 1 00000Q11 1 10134S11 1 00082V11 1 00505W11 1 76015
038899999924232195602240800E+44917-123017SAO  +006199999V02022559005252200059N024000599+00175+00115101055ADDAA101000095GA1999+003054154GA2999+007624084GA3999+076204024GA4999+999999999GD12005+9999999GD24025+9999993GD30065+9999999GD40005+9999999GF108035999999999999999999MA1999999100305EQDN01 00000JPWTH 1QNNE11 1 00200E11 1 00503E11 1 00007E11 1 00000G11U1 99999H11 1 17010H11 1 11025H11 1 37250H11 1 00999K11 1 00034L11 1 01500M11 1 29620N11 1 00000Q11 1 10105S11 1 00035V11 1 01004W11 1 66010
030799999913877195611091400E+36483-082400SAO  +047799999V02027059004650067149N019200599+00175-00285102575ADDAA101000095GA1999+006714064GD14085+9999999GD20995+9999999GD30995+9999999GD40995+9999999GF108085999999999999999999MA1999999096995EQDN01 00000JPWTH 1QNNE11 1 00610E11 1 00099E11 1 00099E11 1 00099G11 1 00022H11 1 15022K11 1 00027L11 1 01200M11 1 28640N11 1 00000Q11 1 10257S11 1 00035V11 1 01010W11 1 77009
0057238040999991956122900004+61667+050850FM-12+009699999V0209991C00001220001CN0020001N9-01391-01611103141ADDAY171999GF102991021051012501001001MD1710111+9999MW1011
0104749117999991956012709004+53383-002650SAO  +0027EGOB V0200681N005110006019N0008001N1+00691+00631101691ADDGA1091+999999999GA2021+000609079GA3061+001509079GF108991999999999999999999MA1999999101351MW1041MW2611
0165999999432141956020107005+36450+127433SAO  +0040RKTD V02031559002152200059N016000599+00065-00615102565ADDGF100005999999999999999999MA1999999101935EQDN01 00000JPWTH 1QNNG11U1 99999K11 1 00021L11 1 01000M11 1 30100N11 1 00000Q11 1 10256S11 1 00033V11 1 00000W11 1 88004
0011478290999991956090703004+31733+131083FM-12+015599999V0203601N006219999999N9999999N9+02501+99999999999ADDAY101999
0383725287047241956072816003+43100-078950SAO  +0180IAG  V02029359003152200059N0240005N9+02335+01065101585ADDGA1021+100584004GA2999+999999999GA3999+999999999GA4999+999999999GD12025+9999999GD20005+9999999GD30005+9999999GD40005+9999999GF102025999999999999999999MA1999999099395MW1001EQDN01 00000JPWTH 1QNNE11 1 00202E11 1 00000E11 1 00000E11 1 00000G11U1 99999H11 1 32330H11 1 00999H11 1 00999H11 1 00999K11 1 00051L11 1 01500M11 1 29350N11 1 00000Q11 1 10158S11 1 00074V11 1 00202W11 1 78006
038899999914745195609290000E+43200-071517SAO  +010899999V02099999000050152449N048000599+01175+00785102305ADDAA101000095GA1999+015244064GA2999+999999999GA3999+999999999GA4999+999999999GD13055+9999999GD20005+9999999GD30005+9999999GD40005+9999999GF105055999999999999999999MA1999999101025EQDN01 00000JPWTH 1QNNE11 1 00406E11 1 00000E11 1 00000E11 1 00000G11 1 00050H11 1 15050H11 1 00999H11 1 00999H11 1 00999K11 1 00046L11 1 03000M11 1 29830N11 1 00000Q11 1 10230S11 1 00053V11 1 00606W11 1 00000
038899999924021195609071300E+42817-108733SAO  +1694LND  V02013559002152200059N112000599+00895-00565102315ADDAA101000095GA1999+999999004GA2999+999999999GA3999+999999999GA4999+999999999GD10005+9999999GD20005+9999999GD30005+9999999GD40005+9999999GF100005999999999999999999MA1999999083715EQDN01 00000JPWTH 1QNNE11 1 00000E11 1 00000E11 1 00000E11 1 00000G11U1 99999H11C1 32999H11 1 00999H11 1 00999H11 1 00999K11 1 00022L11 1 07000M11 1 24720N11 1 00000Q11 1 10231S11 1 00048V11 1 00000W11 1 44004
030799999914935195612151200E+40967-098317SAO  +056799999V02031559003150259149N012800599-00505-00675101905ADDAA101000095GA1999+025914034GD14085+9999999GD20995+9999999GD30995+9999999GD40995+9999999GF108085999999999999999999MA1999999095025EQDN01 00000JPWTH 1QNNE11 1 00610E11 1 00099E11 1 00099E11 1 00099G11 1 00085H11 1 23085K11 1 00020L11 1 00800M11 1 28060N11 1 00000Q11 1 10190S11 1 00023V11 1 01010W11 1 88006
0377999999457091956060404005+52800+173167SAO  +002899999V02029359004150076249N032000599+00615+00445100515ADDGA1999+007624084GA2999+999999999GA3999+999999999GA4999+999999999GD13065+9999999GD20005+9999999GD30005+9999999GD40005+9999999GF106065999999999999999999MA1999999100175EQDN01 00000JPWTH 1QNNE11 1 00407E11 1 00000E11 1 00000E11 1 00000G11 1 00025H11 1 11025H11 1 00999H11 1 00999H11 1 00999K11 1 00040L11 1 02000M11 1 29580N11 1 00000Q11 1 10051S11 1 00043V11 1 00707W11 1 78008
0057296650999991956030806004+55133+091033FM-12+032799999V0209991C00001220001CN0010001N9-01001-01391103361ADDAY171999GF108991001001999999021999MD1210051+9999MW1711
0081121150999991956121418004+54583+016867FM-12+000899999V0202201N00721004501CN0040001N9+00501+00221101031ADDAA199001091AY121999GF108991081051004501999999KA1999M+00501MD1110031+9999MW1101
0066723555999991956080418004+34300-097017SAO  +0235ADM  V0201801N005112200019N0240001N1+03681+01691101821ADDGA1021+018009089GF102991999999999999999999MA1999999099091MW1001
0066716275999991956091401004+45517-073417SAO  +0031CYHU V0201801N006712200019N0128001N1+02131+01741100531ADDGA1041+060009009GF102991999999999999999999MA1999999100171MW1001
0057317860999991956062106004+47550+134650FM-12+008499999V0200401N00211007801CN0500001N9+02281+01281101031ADDAY121999GF107991071091008001041001MD1710011+9999MW1031
017699999914848195601090600E+41700-086317SAO  +0236SBN  V02036059003152200059N024000599-01115-01565102595ADDAA101000095GF100005999999999999999999MA1999999099635EQDN01 00000JPWTH 1QNNG11U1 99999K11 1 00004L11 1 01500M11 1 29420N11 1 00000Q11 1 10259S11 1 00012V11 1 00000W11 1 11006
0383725540149491956080311003+41117-095900SAO  +0314OFF  V02013559005252200059N0160005N9+02395+02115101165ADDGA1011+045724034GA2021+091444024GA3999+999999999GA4999+999999999GD12015+9999999GD22025+9999999GD30005+9999999GD40005+9999999GF102025999999999999999999MA1999999097435MW1001EQDN01 00000JPWTH 1QNNE11 1 00201E11 1 00202E11 1 00000E11 1 00000G11U1 99999H11 1 23150H11 1 37300H11 1 00999H11 1 00999K11 1 00070L11 1 01000M11 1 28770N11 1 00000Q11 1 10116S11 1 00075V11 1 00303W11 1 44010
0110476710999991956100208004+35550+139783SAO  +0008RJTT V0200231N006710030019N0048001N1+01961+01961101931ADDGA1011+999999999GA2061+003009079GA3081+009009049GF108991999999999999999999MA1999999101761MW1041MW2451MW3611
0105476320999991956010806004+35400+136767FM-12+001499999V0203201N005719999999N0200001N9+00441-00611100771ADDAA106000391AY101999GA1999+999999049GF105991051021999999001001IA1089MA1999999100611MD1610101+9999MW1011
0377999999129251956112119005+28367-097667SAO  +006299999V02036059006252200059N016000599+01615-00115102745ADDGA1999+036584034GA2999+999999999GA3999+999999999GA4999+999999999GD12025+9999999GD20005+9999999GD30005+9999999GD40005+9999999GF102025999999999999999999MA1999999102005EQDN01 00000JPWTH 1QNNE11 1 00203E11 1 00000E11 1 00000E11 1 00000G11U1 99999H11 1 23120H11 1 00999H11 1 00999H11 1 00999K11 1 00030L11 1 01000M11 1 30120N11 1 00000Q11 1 10274S11 1 00061V11 1 00303W11 1 11012
0275999999253221956062111005+99999+999999SAO  +999999999V02036059002150109749N024000599+00785+00675101255ADDGD12995+9999999GD24995+9999999GD30995+9999999GD40995+9999999GF108085999999999999999999MA1999999101155MW1805EQDN01 02300JPWTH 1QNNE11 1 00299E11 1 00699E11 1 00099E11 1 00099G11 1 00036K11 1 00044L11 1 01500M11 1 29870N11 1 02300Q11 1 10125S11 1 00046V11 1 01010W11 1 11004
038899999914936195606101900E+44383-098217SAO  +039599999V02020359003652200059N040000599+03675+01335101365ADDAA101000095GA1999+030484084GA2999+999999999GA3999+999999999GA4999+999999999GD10005+9999999GD20005+9999999GD30005+9999999GD40005+9999999GF100005999999999999999999MA1999999096825EQDN01 00000JPWTH 1QNNE11 1 00000E11 1 00000E11 1 00000E11 1 00000G11U1 99999H11 1 11100H11 1 00999H11 1 00999H11 1 00999K11 1 00056L11 1 02500M11 1 28590N11 1 00000Q11 1 10136S11 1 00098V11 1 00000W11 1 56007
0070761510999991956043000004+29167-118317FM-12+002599999V0203201N00821004501CN0400001N9+01781+01391101561ADDAY121999GF106991061051004501001001KA1999N+01221MD1710141+9999MW1061
0082727125146231956030416004+46933-067883SAO  +0227LIZ  V0200501N001510300019N0160001N9-00261-00591100541ADDGA1011+007509059GA2081+030009049GF108991999999999999999999MA1999999097701MW1001
0383999999147081956112919005+40733-073600SAO  +003099999V02029359008850213449N006400599+00785-00785100915ADDGA1999+021344044GA2999+999999024GA3999+999999999GA4999+999999999GD13055+9999999GD24085+9999999GD30005+9999999GD40005+9999999GF108065999999999999999999MA1999999100545MW1055EQDN01 08100JPWTH 1QNNE11 1 00406E11 1 00610E11 1 00000E11 1 00000G11 1 00070H11 1 21070H11C1 37999H11 1 00999H11 1 00999K11 1 00018L11 1 00400M11 1 29690N11 1 08100Q11 1 10091S11 1 00046V11 1 01008W11 1 78017
0050785140999991956011610004+18500-067133SAO  +0075TJBQ V0201351N003112200019N0240001N1+02021+01741101271ADDGF100991999999999999999999MA1999999100371MW1001
0066484560999991956013016004+13917+100600SAO  +0004VTBD V0201801N002612200019N0128001N1+02241+02131101191ADDGA1011+081009009GF102991999999999999999999MA1999999101081MW1001
0070301360999991956040112004+58550+109767FM-12+023499999V0201401N00101220001CN0500001N9-00111-01721101561ADDAY111999GF100991001001999999001001KA1999M+00611MD1610081+9999MW1021
038899999993814195602281600E+39050-084667SAO  +027099999V02033859005252200059N024000599-00284-00895101934ADDAA101000095GA1999+009144064GA2999+999999999GA3999+999999999GA4999+999999999GD12025+9999999GD20005+9999999GD30005+9999999GD40005+9999999GF102025999999999999999999MA1999999098654EQDN01 00000JPWTH 1QNNE11 1 00203E11 1 00000E11 1 00000E11 1 00000G11U1 99999H11 1 15030H11 1 00999H11 1 00999H11 1 00999K11 1 00016L11 1 01500M11 1 29130N11 1 00000Q11 1 10193S11 1 00027V11 1 00303W11 1 18010
0066478080999991956051721004+33583+130450SAO  +0012RJFF V0209991C000010360019N0112001N1+01461+01301100981ADDGA1081+036009049GF108991999999999999999999MA1999999100881MW1611
0059405640999991956090209004+20683+058900FM-12+001699999V0202301N00771220001CN0160001N9+02671+02281100561ADDAY131999GA1001+999999999GF100991001001999999001001MW1061
0377999999230121956010315005+39717-104900SAO  +1645LRY  V02018059006752200059N048000599-00115-01225103105ADDGA1999+091444004GA2999+999999999GA3999+999999999GA4999+999999999GD12045+9999999GD20005+9999999GD30005+9999999GD40005+9999999GF104035999999999999999999MA1999999084325EQDN01 00000JPWTH 1QNNE11 1 00205E11 1 00000E11 1 00000E11 1 00000G11U1 99999H11 1 32300H11 1 00999H11 1 00999H11 1 00999K11 1 00010L11 1 03000M11 1 24900N11 1 00000Q11 1 10310S11 1 00030V11 1 00504W11 1 55013
0377999999129181956010119005+99999+999999SAO  +999999999V02020359005752200059N024000599+02005+00945102005ADDGA1999+009144084GA2999+076204004GA3999+999999999GA4999+999999999GD13005+9999993GD20065+9999999GD30005+9999999GD40005+9999999GF106025999999999999999999MA1999999101735EQDN01 00000JPWTH 1QNNE11 1 00300E11 1 00007E11 1 00000E11 1 00000G11U1 99999H11 1 11030H11 1 32250H11 1 00999H11 1 00999K11 1 00049L11 1 01500M11 1 30040N11 1 00000Q11 1 10200S11 1 00068V11 1 00703W11 1 56011
038899999914943195612301900E+42400-096383SAO  +0334SUX  V02031559012952200059N024000599+01285-00335100315ADDAA101000095GA1999+030484034GA2999+999999004GA3999+999999999GA4999+999999999GD13005+9999993GD20075+9999999GD30005+9999999GD40005+9999999GF107025999999999999999999MA1999999096315EQDN01 00000JPWTH 1QNNE11 1 00300E11 1 00009E11 1 00000E11 1 00000G11U1 99999H11 1 23100H11C1 32999H11 1 00999H11 1 00999K11 1 00026L11 1 01500M11 1 28440N11 1 00000Q11 1 10031S11 1 00055V11 1 00903W11 1 88025
0057304990999991956071618004+55183+124667FM-12+051399999V0200901N00211007801CN0100001N9+01501+01391101011ADDAY121999GF107991071051008001001001MD1410001+9999MW1021
0383999999340531956072305005+49633+003550SAO  +0083LLXO V02099999000052200059N004800599+01115+01115102155ADDGA1999+999999104GA2999+027434034GA3999+076204004GA4999+999999999GD16015+9999999GD22025+9999999GD32015+9999999GD40005+9999999GF102025999999999999999999MA1999999101155MW1445EQDN01 07200JPWTH 1QNNE11 1 00801E11 1 00202E11 1 00201E11 1 00000G11U1 99999H11 1 45999H11 1 23090H11 1 32250H11 1 00999K11 1 00052L11 1 00300M11 1 29870N11 1 07200Q11 1 10215S11 1 00052V11 1 00303W11 1 00000
0082719130999991956050709004+58750-094067SAO  +0029CYYQ V0201801N004610600019N0240001N1-01421-01701102541ADDGA1021+030009039GA2061+060009009GF108991999999999999999999MA1999999102071MW1001
0335999999947021956051213005+41167-073133SAO  +000899999V02022559001550024449N004800599+01064+00945101834ADDGA1999+002444154GA2999+009144064GD13055+9999999GD24035+9999999GD30995+9999999GD40995+9999999GF108085999999999999999999MA1999999101764MW1045MW2805EQDN01 02382JPWTH 1QNNE11 1 00406E11 1 00604E11 1 00099E11 1 00099G11 1 00008H11 1 17008H11 1 15030K11 1 00049L11 1 00300M11 1 30050N11 1 02382Q11 1 10183S11 1 00051V11 1 01010W11 1 66003
0377999999225141956110512005+21317-158067SAO  +0015HNA  V02036059001552200059N024000599+02115+01835101185ADDGA1999+009144084GA2999+013724064GA3999+999999999GA4999+999999999GD12015+9999999GD22025+9999999GD30005+9999999GD40005+9999999GF102025999999999999999999MA1999999101025EQDN01 00000JPWTH 1QNNE11 1 00201E11 1 00202E11 1 00000E11 1 00000G11U1 99999H11 1 11030H11 1 15045H11 1 00999H11 1 00999K11 1 00065L11 1 01500M11 1 29830N11 1 00000Q11 1 10118S11 1 00070V11 1 00303W11 1 11003
0076264980999991956033100004+56267+034150FM-12+019699999V0202501N00721004501CN0100001N9+00001-00281101111ADDAY171999GF108991999071004501021999MD1710181+9999MW1021EQDQ01+000082SCOTLC
039472698024229195603291500C+45600-122600SAO  +0006PDX  V02011359002652200059N0400005N9+00785+00565101805ADDAA101000095GA1031+013724064GA2021+054864034GA3021+076204004GA4999+999999999GD12035+9999999GD23025+9999993GD33025+9999993GD40005+9999999GF106035999999999999999999MA1999999101665MW1001EQDN01 00000JPWTH 1QNNE11 1 00204E11 1 00302E11 1 00303E11 1 00000G11U1 99999H11 1 15045H11 1 23180H11 1 32250H11 1 00999K11 1 00042L11 1 02500M11 1 30020N11 1 00000Q11 1 10180S11 1 00046V11 1 00804W11 1 34005
0377999999148961956080216005+41033-081483SAO  +032399999V02009059004652200059N024000599+02505+01175102105ADDGA1999+009144084GA2999+999999999GA3999+999999999GA4999+999999999GD12025+9999999GD20005+9999999GD30005+9999999GD40005+9999999GF102025999999999999999999MA1999999098345EQDN01 00000JPWTH 1QNNE11 1 00202E11 1 00000E11 1 00000E11 1 00000G11U1 99999H11 1 11030H11 1 00999H11 1 00999H11 1 00999K11 1 00053L11 1 01500M11 1 29040N11 1 00000Q11 1 10210S11 1 00077V11 1 00202W11 1 33009
0269999999265331956052401005+66917-151517SAO  +020599999V02015859002650137249N048000599+01065+00225101185ADDGD13995+9999999GD24995+9999999GD30995+9999999GD40995+9999999GF108075999999999999999999MA1999999098655EQDN01 00000JPWTH 1QNNE11 1 00499E11 1 00699E11 1 00099E11 1 00099G11 1 00045K11 1 00036L11 1 03000M11 1 29130N11 1 00000Q11 1 10118S11 1 00051V11 1 01009W11 1 54005
0377999999939051956011215005+37917-097900SAO  +047999999V02002359003652200059N019200599-00564-00835103424ADDGA1999+030484044GA2999+999999999GA3999+999999999GA4999+999999999GD12025+9999999GD20005+9999999GD30005+9999999GD40005+9999999GF102025999999999999999999MA1999999097434EQDN01 00000JPWTH 1QNNE11 1 00202E11 1 00000E11 1 00000E11 1 00000G11U1 99999H11 1 21100H11 1 00999H11 1 00999H11 1 00999K11 1 00017L11 1 01200M11 1 28770N11 1 00000Q11 1 10342S11 1 00022V11 1 00202W11 1 12007
031372464093058195601171000C+38283-104500SAO  +1416PUB  V02015859001050018349N0013005N9-01175-01335101635ADDAA101000595GA1091+001834104GD15085+9999999GD20995+9999999GD30995+9999999GD40995+9999999GF108085999999999999999999MA1999999085105MW1715EQDN01 04000JPWTH 1QNNE11 1 00710E11 1 00099E11 1 00099E11 1 00099G11 1 00006H11 1 98006K11 1 00008L11 1 00081M11 1 25130N11 1 04000Q11 1 10163S11 1 00011V11 1 01010W11 1 54002
028099999924137195607141700E+48600-112367SAO  +1174CTB  V02033859004650067149N096000599+01895+01175101355ADDAA101000095GD13995+9999999GD24995+9999999GD30995+9999999GD40995+9999999GF108085999999999999999999MA1999999088255EQDN01 00000JPWTH 1QNNE11 1 00499E11 1 00699E11 1 00099E11 1 00099G11 1 00022K11 1 00053L11 1 06000M11 1 26060N11 1 00000Q11 1 10135S11 1 00066V11 1 01010W11 1 18009
0071062900999991956112706004+52267+006883FM-12+004199999V0202701N00981007801CN0150001N9+00781+00281999999ADDAY161999GF108991081081008001999999KA1999N+00721MA1999999099751MW1251
0377910660227011956100405002+28200-177383SAO  +0007PMDY V02006859002152200059N012800599+02615+01785101455ADDGA1999+009144084GA2999+036584034GA3999+999999999GA4999+999999999GD12015+9999999GD22015+9999999GD30005+9999999GD40005+9999999GF102025999999999999999999MA1999999101355EQDN01 00000JPWTH 1QNNE11 1 00201E11 1 00201E11 1 00000E11 1 00000G11U1 99999H11 1 11030H11 1 23120H11 1 00999H11 1 00999K11 1 00064L11 1 00800M11 1 29930N11 1 00000Q11 1 10145S11 1 00079V11 1 00202W11 1 32004
0043489400999991956100204004+17950+102567FM-12+017099999V0200901N001019999999N0150001N9+99999+99999999999ADDAY121999GF107991999999999999999999MW1021
0383724361138031956012406003+39267-085900SAO  +0199BAK  V02036059002652200059N0160005N1-01285-01445102075ADDGA1021+076204004GA2999+999999999GA3999+999999999GA4999+999999999GD12025+9999999GD20005+9999999GD30005+9999999GD40005+9999999GF102025999999999999999999MA1999999099535MW1001EQDN01 00000JPWTH 1QNNE11 1 00203E11 1 00000E11 1 00000E11 1 00000G11U1 99999H11 1 32250H11 1 00999H11 1 00999H11 1 00999K11 1 00006L11 1 01000M11 1 29390N11 1 00000Q11 1 10207S11 1 00009V11 1 00303W11 1 11005
0158322170999991956101200004+50000+155383FM-12+001699999V0202701N01591220001CN0200001N9+00501+00111100251ADDAA199001091AJ100009199999999AY161999GF102991999001999999071001HL10009IA1109IA2999+00619KA1999N+99999MD1210361+9999MW1021EQDQ01+000002SCOTLCQ02 +00612ATMN  
0058915580999991956101800004-17733+168150FM-12+002099999V0200901N006219999999N0600001N9+02721+02221999999ADDAY101999GF107991071021008001999999MA1999999101111MW1001
0066723405039301956112120004+34917-092150SAO  +0095LRF  V0202901N008712200019N0240001N9+01001-00221102061ADDGA1011+012009059GF102991999999999999999999MA1999999100851MW1001
038899999924144195607190400E+46600-112000SAO  +1167HLN  V02018059001052200059N064000599+01945+00785102075ADDAA101000095GA1999+022864064GA2999+999999999GA3999+999999999GA4999+999999999GD10005+9999999GD20005+9999999GD30005+9999999GD40005+9999999GF100005999999999999999999MA1999999088795EQDN01 00000JPWTH 1QNNE11 1 00000E11 1 00000E11 1 00000E11 1 00000G11U1 99999H11 1 15075H11 1 00999H11 1 00999H11 1 00999K11 1 00046L11 1 04000M11 1 26220N11 1 00000Q11 1 10207S11 1 00067V11 1 00000W11 1 55002
0094474120999991956041508004+43050+141333FM-12+001899999V0200201N00211999999CN0040001N9+00941+00671099981ADDAY101999GA1061+999999019GF199999021011004501001999MW1051EQDQ01+000022SCOTCVQ02+000002SCOHCG
0098724506139861956121221004+38067-097867SAO  +0470HUT  V0203601N011810180019N0144001N1-00371-00811101731ADDGA1021+003009059GA2021+007209059GA3021+018009059GF107991999999999999999999MA1999999095971MW1001
0057101770999991956051312004+53767+012617FM-12+004699999V0202901N00871220001CN0200001N9+01281+00611102471ADDAY121999GF104991041021004501001001MD1110061+9999MW1021
0377999999264511956111912005+61167-149983SAO  +0032ANC  V02015859003150076249N012800599-00175-00285100885ADDGA1999+001834074GA2999+007624064GA3999+999999999GA4999+999999999GD12025+9999999GD24065+9999999GD30005+9999999GD40005+9999999GF108075999999999999999999MA1999999100375EQDN01 00000JPWTH 1QNNE11 1 00203E11 1 00607E11 1 00000E11 1 00000G11 1 00025H11 1 16006H11 1 15025H11 1 00999H11 1 00999K11 1 00027L11 1 00800M11 1 29640N11 1 00000Q11 1 10088S11 1 00029V11 1 01009W11 1 54006
0057119680999991956092112004+48700+021267FM-12+023299999V0201801N00621220001CN0150001N9+02001+00111102041ADDAY101999GF101991001001999999001011MD1710051+9999MW1021
0383070881340641956032720002+49233+005683SAO  +0237LEQE V02004559004652200059N003600599+01005+00675101985ADDGA1999+015244064GA2999+999999999GA3999+999999999GA4999+999999999GD12035+9999999GD20005+9999999GD30005+9999999GD40005+9999999GF103035999999999999999999MA1999999099125MW1055EQDN01 08100JPWTH 1QNNE11 1 00204E11 1 00000E11 1 00000E11 1 00000G11U1 99999H11 1 15050H11 1 00999H11 1 00999H11 1 00999K11 1 00044L11 1 00225M11 1 29270N11 1 08100Q11 1 10198S11 1 00050V11 1 00404W11 1 22009
0255999999947411956040712005+40850-074050SAO  +0002TEB  V02009059009350030549N004000599+99999+99999999999ADDGD13995+9999999GD24995+9999999GD30995+9999999GD40995+9999999GF108995999999999999999999MW1044MW2454MW3614EQDN01 02070JPWTH 1N02 08000JPWTH 1QNNE11 1 00499E11 1 00699E11 1 00099E11 1 00099G11 1 00010L11 1 00250N11 1 02070N11 1 08000V11 1 01099W11 1 33018
0072307080999991956122112004+52100+101583FM-12+999999999V0203401N00101220001CN0100001N9-02501+99999999999ADDAY101999GF100991001001999999001001MA1999999099161MD1210101+9999MW1021
0011478310999991956070321004+31267+130300FM-12+003199999V0202501N008719999999N9999999N9+02561+99999999999ADDAY101999
0131061490999991956102512004+54567+011967FM-12+000899999V0202901N01231220001CN0200001N9+01111+00501100451ADDAJ100009199999999AY121999GA1031+007509099GF103991031031008001001001IA1009MD1710071+9999MW1021EQDQ01+000042APCTENQ02+000092APC3  
0377999999416061956100613005+19283+166650SAO  +0004PWAK V02006859008252200059N024000599+02725+02335101295ADDGA1999+006104084GA2999+999999004GA3999+999999999GA4999+999999999GD11005+9999993GD20025+9999999GD30005+9999999GD40005+9999999GF102015999999999999999999MA1999999101255EQDN01 00000JPWTH 1QNNE11 1 00100E11 1 00003E11 1 00000E11 1 00000G11U1 99999H11 1 11020H11C1 32999H11 1 00999H11 1 00999K11 1 00074L11 1 01500M11 1 29900N11 1 00000Q11 1 10129S11 1 00081V11 1 00301W11 1 32016
0377999999416061956030209005+19283+166650SAO  +0004PWAK V02006859011852200059N024000599+02395+01835101525ADDGA1999+006104084GA2999+076204004GA3999+999999999GA4999+999999999GD12015+9999999GD21025+9999993GD30005+9999999GD40005+9999999GF103015999999999999999999MA1999999101495EQDN01 00000JPWTH 1QNNE11 1 00201E11 1 00103E11 1 00000E11 1 00000G11U1 99999H11 1 11020H11 1 32250H11 1 00999H11 1 00999K11 1 00065L11 1 01500M11 1 29970N11 1 00000Q11 1 10152S11 1 00075V11 1 00401W11 1 32023
038899999914764195604102100E+43650-070317SAO  +002499999V02033859005750152449N024000599+00785-00225101395ADDAA101000095GA1999+015244084GA2999+999999999GA3999+999999999GA4999+999999999GD13055+9999999GD20005+9999999GD30005+9999999GD40005+9999999GF105055999999999999999999MA1999999101155EQDN01 00000JPWTH 1QNNE11 1 00406E11 1 00000E11 1 00000E11 1 00000G11 1 00050H11 1 11050H11 1 00999H11 1 00999H11 1 00999K11 1 00028L11 1 01500M11 1 29870N11 1 00000Q11 1 10139S11 1 00046V11 1 00606W11 1 18011
0066725060999991956032220004+41650-070533SAO  +0038FMH  V0202301N006712200019N0240001N9+00691-00651101491ADDGA1001+999999999GF100991999999999999999999MA1999999100981MW1001
0066471010999991956062000004+37917+127683SAO  +008099999V0202251N004110060019N0112001N1+02241+02131999999ADDGA1081+006009059GF108991999999999999999999MA1999999099861MW1001
0383724956232111956111400003+38067-122517SAO  +0001SRF  V02031559006252200059N0320005N1+01785+00675101565ADDGA1011+054864044GA2999+999999999GA3999+999999999GA4999+999999999GD12015+9999999GD20005+9999999GD30005+9999999GD40005+9999999GF101015999999999999999999MA1999999101525MW1001EQDN01 00000JPWTH 1QNNE11 1 00201E11 1 00000E11 1 00000E11 1 00000G11U1 99999H11 1 21180H11 1 00999H11 1 00999H11 1 00999K11 1 00044L11 1 02000M11 1 29980N11 1 00000Q11 1 10156S11 1 00064V11 1 00101W11 1 88012
0269999999255061956102422005+59750-154917SAO  +004699999V02029359008852200059N048000599-01005-01615101645ADDGD10995+9999999GD20995+9999999GD30995+9999999GD40995+9999999GF100005999999999999999999MA1999999101025EQDN01 00000JPWTH 1QNNE11 1 00099E11 1 00099E11 1 00099E11 1 00099G11U1 99999K11 1 00003L11 1 03000M11 1 29830N11 1 00000Q11 1 10164S11 1 00014V11 1 00000W11 1 78017
0066723865231121956091516004+36250-115033SAO  +0569LSV  V0209991C000012200019N0560001N9+02681-00201101181ADDGA1001+999999999GF100991999999999999999999MA1999999094721MW1001
0059476780999991956062113004+33100+139783FM-12+008199999V0202301N00821007801CN0250001N9+02441+02331101271ADDAY101999GA1031+999999099GF107991071021008001999999MW1021
0082719130999991956020602004+58750-094067SAO  +0029CYYQ V0202481N004112200019N0240001N1-03201-03641101791ADDGA1011+030009039GA2021+060009009GF102991999999999999999999MA1999999101291MW1761
034072270023044195606190500C+31800-106400SAO  +1201ELP  V02015859012450274349N0240005N9+02505+01335101135ADDAA101009195GA1051+027434094GA2031+076204004GD13055+9999999GD24035+9999999GD30995+9999999GD40995+9999999GF108085999999999999999999MA1999999088255MW1001EQDN01 00000JPWTH 1QNNE11 1 00406E11 1 00604E11 1 00099E11 1 00099G11 1 00090H11 1 18090H11 1 32250K11 1 00056L11 1 01500M11 1 26060N11 1 00000Q11 1 10113S11 1 00077V11 1 01010W11 1 54024
0302999999146011956112614005+44800-068817SAO  +004999999V02004559006250015249N000800599-00285-00335102425ADDGA1999+001524104GD15085+9999999GD20995+9999999GD30995+9999999GD40995+9999999GF108085999999999999999999MA1999999101595MW1735EQDN01 04100JPWTH 1QNNE11 1 00710E11 1 00099E11 1 00099E11 1 00099G11 1 00005H11 1 98005K11 1 00026L11 1 00050M11 1 30000N11 1 04100Q11 1 10242S11 1 00027V11 1 01010W11 1 22012
0082716010999991956071817004+44633-063500SAO  +0041CYAW V0202931N005110150019N0240001N1+02301+01021100921ADDGA1051+015009089GA2021+072009009GF107991999999999999999999MA1999999100441MW1001
039472258013960195610290500C+32850-096850SAO  +0153DAL  V02013559005252200059N0240005N1+02225+01335101525ADDAA101000095GA1021+018294064GA2999+999999999GA3999+999999999GA4999+999999999GD12025+9999999GD20005+9999999GD30005+9999999GD40005+9999999GF102025999999999999999999MA1999999099805MW1001EQDN01 00000JPWTH 1QNNE11 1 00203E11 1 00000E11 1 00000E11 1 00000G11U1 99999H11 1 15060H11 1 00999H11 1 00999H11 1 00999K11 1 00056L11 1 01500M11 1 29470N11 1 00000Q11 1 10152S11 1 00072V11 1 00303W11 1 44010
0066722786231041956030207004+33317-111650SAO  +0415IWA  V0209991C000012200019N0240001N9+00911-00201101611ADDGA1001+999999999GF100991999999999999999999MA1999999096751MW1001
0148476530999991956122212004+34633+137083FM-12+000899999V0202901N00981012301CN0150001N9+00331-00331102171ADDAA124000691AJ100009199999999AY101999GA1031+999999999GF106991061021012501001001IA1009KA1999M+00501KA2999N+00171MA1999999102131MD1110081+9999MW1021
0066718310999991956112116004+49417-082467SAO  +0229CYYU V0200451N008210006019N0004001N1-00311-00371098461ADDGA1091+000609999GF109991999999999999999999MA1999999095671MW1751
0389999999938261956083016005+30400-087600SAO  +002199999V02024859001550076249N016000599+02894+02395101584ADDGA1999+003664094GA2999+007624084GA3999+030484034GA4999+999999999GD12025+9999999GD23035+9999999GD33035+9999999GD40005+9999999GF107065999999999999999999MA1999999101354MW1805MW2955EQDN01 01023JPWTH 1QNNE11 1 00202E11 1 00404E11 1 00404E11 1 00000G11 1 00025H11 1 18012H11 1 11025H11 1 23100H11 1 00999K11 1 00075L11 1 01000M11 1 29930N11 1 01023Q11 1 10158S11 1 00084V11 1 00908W11 1 76003
0093511560999991956101112004+46633+086183FM-12+080099999V0201801N00211220001CN0600001N9+00891-01221102501ADDAY101999GF100991001001999999001001MA1999999097531MW1001EQDQ01+000032APCTENQ02+000002APC3  
0072717070999991956080922004+46167-060050SAO  +0062CYQY V0200231N007710009019N0048001N1+01461+01411101001ADDGA1081+000909079GF108991999999999999999999MA1999999100271MW1451MW2611
0066749072999991956021717004+36233-076133SAO  +0007EKV  V0202031N001010030019N0048001N1+00961+00851101451ADDGA1081+003009059GF108991999999999999999999MA1999999101391MW1051
0393999999876011956080403005-77883+166733SAO  +0024NZCM V02099999000052200059N072000599-00335+99999100785ADDGA1999+048774044GA2999+067064004GA3999+999999999GA4999+999999999GD12015+9999999GD21025+9999993GD30005+9999999GD40005+9999999GF103015999999999999999999MA1999999100445EQDN01 00000JPWTH 1P01 +00672ATOD  QNNE11 1 00201E11 1 00103E11 1 00000E11 1 00000G11U1 99999H11 1 21160H11 1 32220H11 1 00999H11 1 00999K11 1 00044L11 1 04500M11 1 29660N11 1 00000Q11 1 10078S11 1 00026V11 1 00401W11 1 00000
0383722680230091956062716003+33300-104533SAO  +1111ROW  V02015859004152200059N0240005N1+02785+01445101595ADDGA1999+015244084GA2061+091444004GA3999+999999999GA4999+999999999GD13005+9999993GD20065+9999999GD30005+9999999GD40005+9999999GF106025999999999999999999MA1999999089435MW1001EQDN01 00000JPWTH 1QNNE11 1 00300E11 1 00007E11 1 00000E11 1 00000G11U1 99999H11 1 11050H11 1 32300H11 1 00999H11 1 00999K11 1 00058L11 1 01500M11 1 26410N11 1 00000Q11 1 10159S11 1 00082V11 1 00702W11 1 54008
0160722246038441956112715003+30650-086533SAO  +0059EGI  V02031559006252200059N0160005N9+00505-00335999999ADDGF100005999999999999999999MA1999999101695MW1001EQDN01 00000JPWTH 1QNNG11U1 99999K11 1 00026L11 1 01000M11 1 30030N11 1 00000S11 1 00041V11 1 00000W11 1 88012
0165999999242551956072722005+99999+999999SAO  +999999999V02022559006752200059N024000599+01675+00895102205ADDGF100005999999999999999999MA1999999102005EQDN01 00000JPWTH 1QNNG11U1 99999K11 1 00048L11 1 01500M11 1 30120N11 1 00000Q11 1 10220S11 1 00062V11 1 00000W11 1 66013
0066725377148041956112315004+42600-082817SAO  +0177MTC  V0203201N008712200019N0240001N9-00811-01311102121ADDGA1011+006009059GF102991999999999999999999MA1999999099831MW1001
0057103610999991956120712004+52100+011583FM-12+007999999V0202701N00411024001CN0100001N9+00611+00391102591ADDAY121999GF107991071001999999071999MD1810111+9999MW1051
0269999999241451956090908005+43517-112067SAO  +144699999V02036059002152200059N024000599+01115+00615101865ADDGD10995+9999999GD20995+9999999GD30995+9999999GD40995+9999999GF100005999999999999999999MA1999999085915EQDN01 00000JPWTH 1QNNE11 1 00099E11 1 00099E11 1 00099E11 1 00099G11U1 99999K11 1 00043L11 1 01500M11 1 25370N11 1 00000Q11 1 10186S11 1 00052V11 1 00000W11 1 11004
0165999999176051956111118005+76517-068833SAO  +0077BGTL V02011359004152200059N032000599-02285-03335099665ADDGF100005999999999999999999MA1999999098585EQDN01 00000JPWTH 1QNNG11U1 99999K11 1-00028L11 1 02000M11 1 29110N11 1 00000Q11 1 09966S11 1-00009V11 1 00000W11 1 34008
0078478990999991956102917004+33250+134183FM-12+018699999V0200901N01341012301CN0180001N9+02061+01831101531ADDAY101999GA1999+999999099GF107991071021012501999999MW1251EQDQ01    003SCCGA1
0067423690999991956121803004+26750+080883FM-12+012899999V0209991C00001220001CN0100001N9+01111+00441101811ADDAA124000091AY111999GF101991001001999999001011KA1999N+00891MW1031
0011477470999991956060515004+35533+134817FM-12+003399999V0209991C000019999999N9999999N9+01941+99999999999ADDAY101999
0329725540149491956040922003+41117-095900SAO  +0314OFF  V02031559007750149449N0128005N9+00785-00065101855ADDGA1061+014944064GA2021+076204024GD13065+9999999GD24025+9999999GD30995+9999999GD40995+9999999GF108085999999999999999999MA1999999097935MW1001EQDN01 00000JPWTH 1QNNE11 1 00407E11 1 00603E11 1 00099E11 1 00099G11 1 00049H11 1 15049H11 1 37250K11 1 00031L11 1 00800M11 1 28920N11 1 00000Q11 1 10185S11 1 00046V11 1 01010W11 1 88015
0323999999147561956051821005+41250-070067SAO  +0014ACK  V02002359006750021349N012800599+00675+00505102105ADDGA1999+002134154GA2999+012194064GD13065+9999999GD24025+9999999GD30995+9999999GD40995+9999999GF108085999999999999999999MA1999999102075EQDN01 00000JPWTH 1QNNE11 1 00408E11 1 00602E11 1 00099E11 1 00099G11 1 00007H11 1 17007H11 1 15040K11 1 00041L11 1 00800M11 1 30140N11 1 00000Q11 1 10210S11 1 00044V11 1 01010W11 1 12013
0275722597939851956022808003+32783-098067SAO  +0286MWL  V02099999000052200059N0400005N1+00445+00005102165ADDGD10995+9999999GD20995+9999999GD30995+9999999GD40995+9999999GF100005999999999999999999MA1999999098655MW1001EQDN01 00000JPWTH 1QNNE11 1 00099E11 1 00099E11 1 00099E11 1 00099G11U1 99999K11 1 00032L11 1 02500M11 1 29130N11 1 00000Q11 1 10216S11 1 00040V11 1 00000W11 1 00000
0302999999139051956040310005+30667-096550SAO  +008499999V02033859002650045749N003200599+01945+01005100675ADDGA1999+004574104GD15085+9999999GD20995+9999999GD30995+9999999GD40995+9999999GF108085999999999999999999MA1999999099705MW1075EQDN01 08300JPWTH 1QNNE11 1 00710E11 1 00099E11 1 00099E11 1 00099G11 1 00015H11 1 98015K11 1 00050L11 1 00200M11 1 29440N11 1 08300Q11 1 10067S11 1 00067V11 1 01010W11 1 18005
0377999999127141956021907005+21433-071133SAO  +0003MKJT V02009059010352200059N016000599+02285+01835101665ADDGA1999+007014084GA2999+999999999GA3999+999999999GA4999+999999999GD12045+9999999GD20005+9999999GD30005+9999999GD40005+9999999GF104045999999999999999999MA1999999101595EQDN01 00000JPWTH 1QNNE11 1 00205E11 1 00000E11 1 00000E11 1 00000G11U1 99999H11 1 11023H11 1 00999H11 1 00999H11 1 00999K11 1 00065L11 1 01000M11 1 30000N11 1 00000Q11 1 10166S11 1 00073V11 1 00505W11 1 33020
0072526790999991956100300004+38083+102917FM-12+152599999V0203601N00211220001CN0160001N9+00391-01001102311ADDAY111999GF105991001001999999031021MA1999999094771MD1310301+9999MW1011
0165999999230191956031410005+31833-106400SAO  +1196BIF  V02099999000052200059N032000599+00175-00725101025ADDGF100005999999999999999999MA1999999087675EQDN01 00000JPWTH 1QNNG11U1 99999K11 1 00019L11 1 02000M11 1 25890N11 1 00000Q11 1 10102S11 1 00035V11 1 00000W11 1 00000
034099999914822195601062300E+42400-083000SAO  +018999999V02031559006250039649N003200599+00065-00115101305ADDAA101000095GA1999+002744134GA2999+003964074GD12035+9999999GD24055+9999999GD30995+9999999GD40995+9999999GF108085999999999999999999MA1999999098955MW1045EQDN01 08000JPWTH 1QNNE11 1 00204E11 1 00606E11 1 00099E11 1 00099G11 1 00013H11 1 13009H11 1 16013K11 1 00030L11 1 00200M11 1 29220N11 1 08000Q11 1 10130S11 1 00033V11 1 01010W11 1 88012
018272250012919195610050900C+25900-097433SAO  +0010BRO  V02013559001552200059N0240005N1+02175+02175101495ADDAA101000095GF100005999999999999999999MA1999999101425MW1001EQDN01 00000JPWTH 1QNNG11U1 99999K11 1 00071L11 1 01500M11 1 29950N11 1 00000Q11 1 10149S11 1 00071V11 1 00000W11 1 44003
0070299370999991956011618004+52517+082767FM-12+017499999V0200401N00981220001CN0100001N9-02391-02721103211ADDAY131999GF100991001001999999001001KA1999M-02221MD1710071+9999MW1361
031399999923232195605071100E+38517-121500SAO  +001399999V02011359003650243849N024000599+01115+01005101465ADDAA101000095GA1999+024384044GD14085+9999999GD20995+9999999GD30995+9999999GD40995+9999999GF108085999999999999999999MA1999999101355MW1805EQDN01 02300JPWTH 1QNNE11 1 00610E11 1 00099E11 1 00099E11 1 00099G11 1 00080H11 1 21080K11 1 00050L11 1 01500M11 1 29930N11 1 02300Q11 1 10146S11 1 00052V11 1 01010W11 1 34007
0091477780999991956120209004+33450+135767FM-12+007599999V0203401N00361220001CN0300001N9+01111+00171102261ADDAY101999GF100991001001999999001001MA1999999101351MD1210101+9999MW1021EQDQ01+000012SCOTCV
0066717020999991956032212004+46433-063833SAO  +0024CYSU V0201801N003612200019N0160001N1-00531-00651101901ADDGA1031+060009029GF102991999999999999999999MA1999999101591MW1001
0104476620999991956100809004+35683+139767FM-12+000699999V0203601N00361007801CN0050001N9+01781+01501101951ADDAY101999GA1999+087009089GA2061+999999099GF108991081071008001999999MA1999999101901MD1110051+9999MW1611
0383725510149391956092517003+40850-096750SAO  +0357LNK  V02027059004152200059N0240005N1+02725+00335101725ADDGA1021+220009004GA2999+999999999GA3999+999999999GA4999+999999999GD11025+9999993GD20005+9999999GD30005+9999999GD40005+9999999GF102015999999999999999999MA1999999097435MW1001EQDN01 00000JPWTH 1QNNE11 1 00102E11 1 00000E11 1 00000E11 1 00000G11U1 99999H11C1 32999H11 1 00999H11 1 00999H11 1 00999K11 1 00038L11 1 01500M11 1 28770N11 1 00000Q11 1 10172S11 1 00081V11 1 00201W11 1 77008
0296999999128421956040706005+27967-082533SAO  +001099999V02020359006250024449N012800599+02335+02285101235ADDGA1999+002444074GD14085+9999999GD20995+9999999GD30995+9999999GD40995+9999999GF108085999999999999999999MA1999999101225EQDN01 00000JPWTH 1QNNE11 1 00610E11 1 00099E11 1 00099E11 1 00099G11 1 00008H11 1 16008K11 1 00073L11 1 00800M11 1 29890N11 1 00000Q11 1 10123S11 1 00074V11 1 01010W11 1 56012
0052037720999991956122803004+51483-000450FM-12+002599999V0201601N010319999999N0060001N9+00441+00391100531ADDAA199000691GF108991999999999999999999IA1089MW1611
0057287660999991956052206004+54367+067000FM-12+015399999V0201401N00101220001CN0100001N9+02391-00221102001ADDAY101999GF100991001001999999001001MD1210011+9999MW1021
0011478050999991956070703004+33367+129550FM-12+005899999V0201801N005119999999N9999999N9+02611+99999999999ADDAY101999
0075405860999991956070415004+14650+049400FM-12+002399999V0202301N00981220001CN0048001N9+03061+02171099761ADDAY131999GA1001+999999999GA2001+999999999GF100991001001999999001001MW1071
0073474120999991956111315004+43050+141333FM-12+001899999V0201601N00361012301CN0025001N9+00281-00221101141ADDAY101999GA1031+002709099GF107991071011012501999021MD1810151+9999MW1051
0082478030999991956102206004+33883+130650SAO  +0033RJFA V0203601N003612200019N0128001N1+02411+01351101971ADDGA1011+009009089GA2051+045009039GF107991999999999999999999MA1999999101561MW1001
0058062400999991956070100004+52317+004783FM-12-000399999V0201101N00261220001CN0100001N9+01501+01281999999ADDAY101999GF101991001001999999001021MA1999999100881MW1031
0070480420999991956081600004+21983+096100FM-12+007699999V0201801N00151004501CN0040001N9+02611+02281100471ADDAY151999GF108991051081004501071999KA1999N+02501MD1999999+0131MW1151
0383703260255031956081516003+58683-156650SAO  +0013AKN  V02004559002150274349N0240005N9+01065+00945100075ADDGA1021+022864034GA2041+027434034GA3999+999999999GA4999+999999999GD12025+9999999GD23045+9999999GD30005+9999999GD40005+9999999GF106065999999999999999999MA1999999099905MW1001EQDN01 00000JPWTH 1QNNE11 1 00203E11 1 00405E11 1 00000E11 1 00000G11 1 00090H11 1 23075H11 1 23090H11 1 00999H11 1 00999K11 1 00049L11 1 01500M11 1 29500N11 1 00000Q11 1 10007S11 1 00051V11 1 00808W11 1 22004
0057476390999991956120121004+35350+138733FM-12+377499999V0203201N028819999999N0700001N9-01671-02891999999ADDAY101999GF101991999001999999031011MD1610081+9999MW1021
0075476240999991956052917004+36400+139067FM-12+011399999V0201401N00051004501CN0080001N9+01891+01671101331ADDAY101999GA1999+087009059GA2031+027009089GF108991061071004501021999MW1611
0057483810999991956030118004+16333+102850FM-12+015799999V0209991C00001220001CN0040001N9+02281+02001101141ADDAY101999GF100991001001999999001001MD1999999-0111MW1001
0112318660999991956061700004+46533+138333FM-12+005099999V0209991C00001000151CN0002001N9+00611+00611101861ADDAJ100009199999999AY141999GF109991091999000251999999HL10009IA1089IA2999+00289KA1999N+00501MD1710011+9999MW1451
0057293560999991956122812004+57367+089150FM-12+015099999V0209991C00001220001CN0100001N9-02281-02391102451ADDAY111999GF100991001001999999001001MD1210151+9999MW1011
0070319260999991956112412004+44600+132650FM-12+009699999V0201601N00311220001CN0100001N9-01281-01611102771ADDAY101999GF100991001001999999001001KA1999M-00781MD1710091+9999MW1021
0058063700999991956090503004+51450+005417FM-12+002299999V0201601N00461220001CN0060001N9+01111+01001999999ADDAY111999GF108991001001999999001071MA1999999101361MW1031
0081335870999991956062318004+48767+030233FM-12+021699999V0201801N00311220001CN0100001N9+01721+01221100211ADDAA199006091AY111999GF107991001001999999071999KA1999M+02221MD1510021+9999MW1011
017699999913739195611200000E+39883-075250SAO  +0003PHL  V02020359002152200059N011200599+00505-00225102845ADDAA101000095GF100005999999999999999999MA1999999102745EQDN01 00000JPWTH 1QNNG11U1 99999K11 1 00028L11 1 00700M11 1 30340N11 1 00000Q11 1 10284S11 1 00041V11 1 00000W11 1 56004
0377999999350471956060222005+51350+001367SAO  +004499999V02022559007750762049N014400599+01285+01065101905ADDGA1999+015244064GA2999+076204004GA3999+999999999GA4999+999999999GD12035+9999999GD23065+9999999GD30005+9999999GD40005+9999999GF106065999999999999999999MA1999999101225EQDN01 00000JPWTH 1QNNE11 1 00204E11 1 00408E11 1 00000E11 1 00000G11 1 00250H11 1 15050H11 1 32250H11 1 00999H11 1 00999K11 1 00051L11 1 00900M11 1 29890N11 1 00000Q11 1 10190S11 1 00055V11 1 00808W11 1 66015
0057226760999991956012018004+63583+045633FM-12+006699999V0201401N00721004501CN0100001N9-00781-01111099521ADDAY171999GF108991081051004501999999MD1210031+9999MW1381
040099999914734195606110300E+40700-074167SAO  +0002EWR  V02002359001052200059N003600599+01675+01565101665ADDAA101000095GA1999+003354134GA2999+999999999GA3999+999999999GA4999+999999999GD12025+9999999GD20005+9999999GD30005+9999999GD40005+9999999GF102025999999999999999999MA1999999101565MW1045MW2455EQDN01 07082JPWTH 1QNNE11 1 00203E11 1 00000E11 1 00000E11 1 00000G11U1 99999H11 1 13011H11 1 00999H11 1 00999H11 1 00999K11 1 00060L11 1 00225M11 1 29990N11 1 07082Q11 1 10166S11 1 00062V11 1 00303W11 1 12002
019872270023044195610250700C+31800-106400SAO  +1201ELP  V02036059009352200059N0480005N9+01505-00675101125ADDAA101000095GA1001+999999999GF100005999999999999999999MA1999999088055MW1001EQDN01 00000JPWTH 1QNNG11U1 99999K11 1 00020L11 1 03000M11 1 26000N11 1 00000Q11 1 10112S11 1 00059V11 1 00000W11 1 11018
0072108690999991956020120004+48317+011950SAO  +0467EDSE V0200231N002110009019N0018001N1-01811-02091102271ADDGA1091+000909999GF109991999999999999999999MA1999999096141MW1111MW2711
0057326180999991956012112004+55200+165817FM-12+000699999V0201601N00101002401CN0200001N9-00111-00281101611ADDAY181999GF108991081031002501001001MD1710011+9999MW1261
008295866099999195607130800N-37730+144900AUST +0081YMEN V0201585N001059999999N999999999+00875+00605999999ADDGA1025+010505065GA2015+015005065GF103995024055010505999999MA1999999101915MW1055
0269999999149311956111111005+40783-091117SAO  +0212BRL  V02022559004152200059N016000599+00445+00225100815ADDGD10995+9999999GD20995+9999999GD30995+9999999GD40995+9999999GF100005999999999999999999MA1999999098245EQDN01 00000JPWTH 1QNNE11 1 00099E11 1 00099E11 1 00099E11 1 00099G11U1 99999K11 1 00036L11 1 01000M11 1 29010N11 1 00000Q11 1 10081S11 1 00040V11 1 00000W11 1 66008
0081067620999991956071018004+46167+008883FM-12+019899999V0201401N00931015001CN0100001N9+02111+01501101011ADDAA199004091AY121999GF108991081091017501999999KA1999M+02891MD1310051+9999MW1951
0066476430999991956041815004+35833+139417SAO  +0090RJTJ V0202931N002110750019N0160001N1+01131+00801101291ADDGA1081+075009029GF108991999999999999999999MA1999999100141MW1001
0057319740999991956110118004+43367+132167FM-12+004699999V0209991C00001220001CN0200001N9-00281-00501101911ADDAY101999GF100991001001999999001001MD1210151+9999MW1021
0171999999148551956032110005+42083-087833SAO  +0197NBU  V02018059002652200059N009600599-00115-00725102625ADDGF100005999999999999999999MA1999999100175MW1045EQDN01 08000JPWTH 1QNNG11U1 99999K11 1 00019L11 1 00600M11 1 29580N11 1 08000Q11 1 10262S11 1 00030V11 1 00000W11 1 55005
0043961630999991956080406004-00883+100350FM-12+000399999V0202701N005119999999N0240001N9+02781+02221100901ADDAY121999GF108991021021008001071071MW1021
0081291980999991956032712004+58633+098733FM-12+015099999V0203601N00411220001CN0200001N9-00611-01781102701ADDAA124999999AY101999GF103991031071008001001001KA1999M-00221MD1210111+9999MW1021
0335070881340641956102505003+49233+005683SAO  +0237LEQE V02027059005750091449N0080005N1+01005+00895101565ADDGA1061+003054074GA2999+009144064GD12025+9999999GD24085+9999999GD30995+9999999GD40995+9999999GF108085999999999999999999MA1999999098755MW1111MW2445EQDN01 07200JPWTH 1QNNE11 1 00203E11 1 00610E11 1 00099E11 1 00099G11 1 00030H11 1 16010H11 1 15030K11 1 00048L11 1 00500M11 1 29160N11 1 07200Q11 1 10156S11 1 00050V11 1 01010W11 1 77011
0102763420999991956053012004+26900-101417FM-12+058699999V0202001N00311220001CN0400001N9+02391+01941101021ADDAY101999GF101991011021999999001001KA1999M+02671KA2999N+02281MD1210041+9999MW1021EQDQ01+000992SCOLCB
0377999999607031956032322005-02767-171717SAO  +0003PCIS V02006859007752200059N024000599+03005+02335101055ADDGA1999+007624084GA2999+091444024GA3999+999999999GA4999+999999999GD12025+9999999GD22025+9999999GD30005+9999999GD40005+9999999GF102025999999999999999999MA1999999101025EQDN01 00000JPWTH 1QNNE11 1 00202E11 1 00202E11 1 00000E11 1 00000G11U1 99999H11 1 11025H11 1 37300H11 1 00999H11 1 00999K11 1 00074L11 1 01500M11 1 29830N11 1 00000Q11 1 10105S11 1 00086V11 1 00303W11 1 32015
0308999999147321956030715005+40767-073867SAO  +001699999V02036059003150018349N003600599+00445+00335100515ADDGA1999+001834134GD14085+9999999GD20995+9999999GD30995+9999999GD40995+9999999GF108085999999999999999999MA1999999100305MW1045MW2455EQDN01 07080JPWTH 1QNNE11 1 00610E11 1 00099E11 1 00099E11 1 00099G11 1 00006H11 1 13006K11 1 00038L11 1 00225M11 1 29620N11 1 07080Q11 1 10051S11 1 00040V11 1 01010W11 1 11006
0275703430254021956092415003+59467-146317SAO  +0014MDO  V02099999000052200059N0240005N1+00505+00115101355ADDGD10995+9999999GD20995+9999999GD30995+9999999GD40995+9999999GF100005999999999999999999MA1999999101195MW1001EQDN01 00000JPWTH 1QNNE11 1 00099E11 1 00099E11 1 00099E11 1 00099G11U1 99999K11 1 00034L11 1 01500M11 1 29880N11 1 00000Q11 1 10135S11 1 00041V11 1 00000W11 1 00000
0140719300999991956082412004+54133-115667FM-12+074199999V0202701N00101220001CN0240001N9+01331+01171101551ADDAA124012091AJ199999999999999AL10600091AY121999GF108991081001999999071999KA1999M+02391KA2999N+01221MD1510121+9999MW1021EQDQ01  04472SNDP  
0269999999139761956070522005+30200-091983SAO  +0013LFT  V02024859002652200059N024000599+03395+02225101255ADDGD11995+9999993GD20995+9999999GD30995+9999999GD40995+9999999GF103015999999999999999999MA1999999101085EQDN01 00000JPWTH 1QNNE11 1 00199E11 1 00099E11 1 00099E11 1 00099G11U1 99999K11 1 00072L11 1 01500M11 1 29850N11 1 00000Q11 1 10125S11 1 00093V11 1 00401W11 1 76005
0057298130999991956082806004+53967+079233FM-12+014399999V0202701N00211004501CN0100001N9+01281+01001101841ADDAY121999GF108991081011004501999999MD1710041+9999MW1021
0323999999147901956112118005+42150-070933SAO  +004899999V02020359010350045749N012800599+01675+01445100775ADDGA1999+004574074GA2999+007624064GD13065+9999999GD24025+9999999GD30995+9999999GD40995+9999999GF108085999999999999999999MA1999999100205EQDN01 00000JPWTH 1QNNE11 1 00408E11 1 00602E11 1 00099E11 1 00099G11 1 00015H11 1 16015H11 1 15025K11 1 00058L11 1 00800M11 1 29590N11 1 00000Q11 1 10077S11 1 00062V11 1 01010W11 1 56020
