0098484560999991957031712004+13917+100600SAO  +0004VTBD V0201581N006212200019N0160001N1+02801+02411101051ADDGA1011+007509059GA2011+036009039GA3051+081009009GF107991999999999999999999MA1999999100951MW1001
0281999999938181957101310005+38417-082500SAO  +017199999V02099999000050000049N000200599+00334+00285102914ADDGD15995+9999999GD20995+9999999GD30995+9999999GD40995+9999999GF108085999999999999999999MA1999999100814MW1045MW2455EQDN01 07080JPWTH 1QNNE11 1 00799E11 1 00099E11 1 00099E11 1 00099G11 1 00000K11 1 00037L11 1 00012M11 1 29770N11 1 07080Q11 1 10291S11 1 00038V11 1 01010W11 1 00000
0070480780999991957081912004+18917+096467FM-12+004999999V0201801N00361004501CN0020001N9+02501+02501099871ADDAY191999GF106991051031004501061999KA1999M+03111MD1999999-0061MW1511
0049610520999991957102112004+13483+002167FM-12+023499999V0201801N00311105001CN0200001N9+03611+02001101131ADDAY121999GF107991011011017501001021IA1009MW1021
0057312990999991957040306004+53100+126350FM-12+031499999V0203401N00411220001CN0100001N9+00611-00721100381ADDAY121999GF107991001001999999001061MD1710171+9999MW1021
0057470350999991957102018004+40100+124383FM-12+000899999V0200201N00311220001CN0200001N9+00391+00391102331ADDAY101999GF100991001001999999001001MD1310011+9999MW1001
0275723677230541957071317003+35650-105150SAO  +2093LVS  V02006859004152200059N0480005N1+02285+00785101425ADDGD12995+9999999GD22995+9999999GD30995+9999999GD40995+9999999GF102025999999999999999999MA1999999079555MW1001EQDN01 00000JPWTH 1QNNE11 1 00299E11 1 00299E11 1 00099E11 1 00099G11U1 99999K11 1 00046L11 1 03000M11 1 23490N11 1 00000Q11 1 10142S11 1 00073V11 1 00302W11 1 32008
0377999999406041957081514005+08733+167717SAO  +000099999V02006859006752200059N016000599+02725+02505100855ADDGA1999+006104084GA2999+999999024GA3999+999999999GA4999+999999999GD12025+9999999GD23055+9999993GD30005+9999999GD40005+9999999GF106025999999999999999999MA1999999100785EQDN01 00000JPWTH 1QNNE11 1 00202E11 1 00306E11 1 00000E11 1 00000G11U1 99999H11 1 11020H11C1 37999H11 1 00999H11 1 00999K11 1 00077L11 1 01000M11 1 29760N11 1 00000Q11 1 10085S11 1 00081V11 1 00802W11 1 32013
0104476620999991957012621004+35683+139767FM-12+000699999V0203401N00101015001CN0035001N9+00441-00171101091ADDAY101999GA1999+057009079GA2001+999999999GF107991071051017501001001MA1999999101021MD1710261+9999MW1051
0082717310999991957070319004+46367-079417SAO  +0369CYYB V0202251N007210150019N0160001N1+02071+01741100621ADDGA1021+009009089GA2041+015009059GF107991999999999999999999MA1999999096311MW1801
0302999999148961957051214005+41033-081483SAO  +032399999V02027059004150027449N006400599+01895+01565101515ADDGA1999+002744064GD14085+9999999GD20995+9999999GD30995+9999999GD40995+9999999GF108085999999999999999999MA1999999097775MW1045EQDN01 08200JPWTH 1QNNE11 1 00610E11 1 00099E11 1 00099E11 1 00099G11 1 00009H11 1 15009K11 1 00060L11 1 00400M11 1 28870N11 1 08200Q11 1 10151S11 1 00066V11 1 01010W11 1 77008
007694610599999195708200100N-31930+115970AUST +0012YPPH V0200455N001059999999N999999999+01215+00805999999ADDGA1015+012005065GA2015+999999045GF102995014055012005035999MA1999999102645
038899999913995195702111600E+37233-093383SAO  +038699999V02013559003152200059N024000599+00445-00115102845ADDAA101000095GA1999+999999004GA2999+999999999GA3999+999999999GA4999+999999999GD13055+9999999GD20005+9999999GD30005+9999999GD40005+9999999GF105035999999999999999999MA1999999098145EQDN01 00000JPWTH 1QNNE11 1 00406E11 1 00000E11 1 00000E11 1 00000G11C1 99999H11C1 32999H11 1 00999H11 1 00999H11 1 00999K11 1 00030L11 1 01500M11 1 28980N11 1 00000Q11 1 10284S11 1 00040V11 1 00604W11 1 44006
0083718021999991957123006004+47100-055767FM-12+000899999V0202501N00461220001CN0240001N9+00111+00061101481ADDAY121999GF108991081051008001999999KA1999M+00501KA2999N+00111MD1310061+9999MW1021
017699999903820195712110800E+33367-081967SAO  +0045AGS  V02022559003152200059N024000599+00445+00175100505ADDAA101000095GF100005999999999999999999MA1999999100005EQDN01 00000JPWTH 1QNNG11U1 99999K11 1 00035L11 1 01500M11 1 29530N11 1 00000Q11 1 10050S11 1 00040V11 1 00000W11 1 66006
0192723810231141957071912003+34917-117900SAO  +0706EDW  V02015859001552200059N0480005N9+01505+00785100945ADDAA124999999GA1001+999999999GF100005999999999999999999MA1999999093095EQDN01 00000JPWTH 1QNNG11U1 99999K11 1 00046L11 1 03000M11 1 27490N11 1 00000Q11 1 10094S11 1 00059V11 1 00000W11 1 54003
0043486150999991957060912004+06167+102283FM-12+000999999V0209991C000019999999N0300001N9+02891+02391100731ADDAY121999GF108991011011008001011081MW1021
0095477700999991957101300004+34683+135183FM-12+005999999V0202001N00311220001CN0040001N9+02171+01561101921ADDAJ100009199999999AY101999GF100991001001999999001001IA1009MA1999999101221MD1110151+9999MW1021
0090947500999991957110811003-34933+150567FM-12+0117YSNW V0209999C000019999999N0450001N9+01061+00941999999ADDAY101999GA1005+999999999GA2025+999999045GF102991001001999999031999MA1999999100171MW1001
038872469023062195701172000B+39767-104883SAO  +161599999V02033859007752200059N096000599+00445-01115102685ADDAA101000095GA1999+021344064GA2999+999999999GA3999+999999999GA4999+999999999GD10005+9999999GD20005+9999999GD30005+9999999GD40005+9999999GF100005999999999999999999MA1999999084295EQDN01 00000JPWTH 1QNNE11 1 00000E11 1 00000E11 1 00000E11 1 00000G11U1 99999H11 1 15070H11 1 00999H11 1 00999H11 1 00999K11 1 00012L11 1 06000M11 1 24890N11 1 00000Q11 1 10268S11 1 00040V11 1 00000W11 1 18015
0098718670999991957070522004+53967-101100SAO  +0271CYQD V0202701N009810300019N0240001N1+02131+01191100241ADDGA1021+018009089GA2021+024009099GA3021+030009039GF107991999999999999999999MA1999999097051MW1001
0111474130999991957041200004+43217+141783FM-12+003399999V0201801N002619999999N0070001N9+00561+00111101261ADDAJ100009199999999AY101999GA1999+999999039GF106991031021999999061001IA1089MA1999999100851MD1210131+9999MW1051
0269999999947251957021121005+44933-074850SAO  +0067MSS  V02011359002152200059N024000599-01114-01945103054ADDGD10995+9999999GD20995+9999999GD30995+9999999GD40995+9999999GF100005999999999999999999MA1999999102244EQDN01 00000JPWTH 1QNNE11 1 00099E11 1 00099E11 1 00099E11 1 00099G11U1 99999K11 1-00003L11 1 01500M11 1 30190N11 1 00000Q11 1 10305S11 1 00012V11 1 00000W11 1 34004
0070325190999991957090312004+54750+162133FM-12+999999999V0203401N00311007801CN0100001N9+00721+00611100731ADDAY121999GF107991071051008001999999KA1999M+01611MD1210141+9999MW1011
0377999999136021957090704005+32267-064850SAO  +0013MYUN V02018059002652200059N016000599+02615+02225101955ADDGA1999+006104084GA2999+999999024GA3999+999999999GA4999+999999999GD12015+9999999GD21015+9999993GD30005+9999999GD40005+9999999GF102015999999999999999999MA1999999101795EQDN01 00000JPWTH 1QNNE11 1 00201E11 1 00101E11 1 00000E11 1 00000G11U1 99999H11 1 11020H11C1 37999H11 1 00999H11 1 00999K11 1 00072L11 1 01000M11 1 30060N11 1 00000Q11 1 10195S11 1 00079V11 1 00201W11 1 55005
0082724037937281957052220004+38717-077183SAO  +0020DAA  V0209991C000010120019N0112001N9+01961+01571101731ADDGA1021+006009079GA2061+012009059GF108991999999999999999999MA1999999101561MW1001
0356999999253391957121604005+59517-139667SAO  +0009YAK  V02024859007250039649N009600599+00065-00065100115ADDGA1999+001524134GA2999+003964134GA3999+008234064GD12025+9999999GD23035+9999999GD34025+9999999GD40995+9999999GF108085999999999999999999MA1999999100005MW1855EQDN01 05000JPWTH 1QNNE11 1 00203E11 1 00404E11 1 00603E11 1 00099G11 1 00013H11 1 13005H11 1 13013H11 1 15027K11 1 00031L11 1 00600M11 1 29530N11 1 05000Q11 1 10011S11 1 00033V11 1 01010W11 1 76014
031399999924029195701131300E+44767-106967SAO  +1202SHR  V02029359005250039649N000800599-01395-01565102765ADDAA101000395GA1999+003964104GD15085+9999999GD20995+9999999GD30995+9999999GD40995+9999999GF108085999999999999999999MA1999999088155MW1735EQDN01 04100JPWTH 1QNNE11 1 00710E11 1 00099E11 1 00099E11 1 00099G11 1 00013H11 1 98013K11 1 00004L11 1 00050M11 1 26030N11 1 04100Q11 1 10276S11 1 00007V11 1 01010W11 1 78010
0067564750999991957083009004+28617+102550FM-12+173699999V0200701N00211220001CN0200001N9+03111+99999999999ADDAY191999GF104991031091017501001021MA1999999092701ME1314409MW1171
009294267099999195704090500N-17670+141080AUST +0010     V0200905N002659999999N999999999+03285+01705999999ADDGA1035+012005085GA2025+999999035GA3025+999999999GF107995034015012005075015MA1999999100615
0060718160999991957011202004+53317-060433SY-SA+0044YYR  V0202501N002112200019N0320001N9-02981-03421101071ADDGA1001+999999999GF100991999999999999999999MA1999999100471
0089580440999991957101612004+34583+119250FM-12+000499999V0203601N00511220001CN0200001N9+01221-00281102741ADDAY111999GF101991999001999999041001KA1999M+02001MD1210261+9999MW1011EQDQ01+000002SCOTLC
0350999999176121957071411005+76417-068250SAO  +057999999V02011359012450304849N024000599+00285-00115101625ADDGA1999+019814064GA2999+028964034GA3999+030484044GD12025+9999999GD22015+9999999GD34065+9999999GD40995+9999999GF108085999999999999999999MA1999999094625EQDN01 00000JPWTH 1QNNE11 1 00202E11 1 00201E11 1 00607E11 1 00099G11 1 00100H11 1 15065H11 1 23095H11 1 21100K11 1 00030L11 1 01500M11 1 27940N11 1 00000Q11 1 10162S11 1 00037V11 1 01010W11 1 34024
0076598550999991957031721004+19283+110467FM-12+003799999V0200701N00311004501CN0100001N9+02111+02111101581ADDAY161999GF108991999061004501031999MD1610121+9999MW1601EQDQ01+000082SCOTLC
0377070881340641957101819002+49233+005683SAO  +0237LEQE V02018059003152200059N017600599+01675+01005100955ADDGA1999+999999004GA2999+999999999GA3999+999999999GA4999+999999999GD13055+9999993GD20005+9999999GD30005+9999999GD40005+9999999GF105025999999999999999999MA1999999098175EQDN01 00000JPWTH 1QNNE11 1 00306E11 1 00000E11 1 00000E11 1 00000G11U1 99999H11C1 32999H11 1 00999H11 1 00999H11 1 00999K11 1 00050L11 1 01100M11 1 28990N11 1 00000Q11 1 10095S11 1 00062V11 1 00603W11 1 55006
0269999999146221957050805005+44950-068667SAO  +0041OLD  V02024859002652200059N024000599+01115+00615100955ADDGD10995+9999999GD20995+9999999GD30995+9999999GD40995+9999999GF100005999999999999999999MA1999999100475EQDN01 00000JPWTH 1QNNE11 1 00099E11 1 00099E11 1 00099E11 1 00099G11U1 99999K11 1 00043L11 1 01500M11 1 29670N11 1 00000Q11 1 10095S11 1 00052V11 1 00000W11 1 76005
0057253990999991957042206004+66167+169833FM-12+000799999V0203601N00621004501CN0200001N9-00781-00891100881ADDAY171999GF108991081051004501999999MD1210011+9999MW1711
0066719070999991957070703004+58450-078133SAO  +0000CYPH V0200451N005110030019N0096001N1+01131+01071099911ADDGA1081+003009079GF108991999999999999999999MA1999999099661MW1611
0057580440999991957080912004+34583+119250FM-12+000499999V0200901N00411007801CN0400001N9+02501+02221100831ADDAY111999GF106991061041008001041021MD1310101+9999MW1031
0399726815241061957122600003+43050-115867SAO  +0912MUO  V02011359004652200059N0480005N9+00725+00005102425ADDGA1999+015244064GA2021+030484034GA3081+220009024GA4999+999999999GD12005+9999999GD24025+9999993GD30085+9999999GD40005+9999999GF108045999999999999999999MA1999999091575MW1001EQDQ01    003SCCGA1N01 00000JPWTH 1QNNE11 1 00200E11 1 00502E11 1 00010E11 1 00000G11U1 99999H11 1 15050H11 1 23100H11C1 37999H11 1 00999K11 1 00032L11 1 03000M11 1 27040N11 1 00000Q11 1 10242S11 1 00045V11 1 01005W11 1 34009
0308725038147141957040910003+41500-074100SAO  +0142SWF  V02004559009350009149N0032005N1+00005-00115099835ADDGA1081+000914074GD14085+9999999GD20995+9999999GD30995+9999999GD40995+9999999GF108085999999999999999999MA1999999098045MW1455MW2715EQDN01 04070JPWTH 1QNNE11 1 00610E11 1 00099E11 1 00099E11 1 00099G11 1 00003H11 1 16003K11 1 00030L11 1 00200M11 1 28950N11 1 04070Q11 1 09983S11 1 00032V11 1 01010W11 1 22018
034072509014739195704020200C+42367-071017SAO  +0010BOS  V02020359009850335349N0240005N9+00895+00005101775ADDAA101000095GA1061+033534034GA2081+220009024GD13065+9999999GD24085+9999999GD30995+9999999GD40995+9999999GF108085999999999999999999MA1999999101665MW1001EQDN01 00000JPWTH 1QNNE11 1 00407E11 1 00610E11 1 00099E11 1 00099G11 1 00110H11 1 23110H11C1 37999K11 1 00032L11 1 01500M11 1 30020N11 1 00000Q11 1 10177S11 1 00048V11 1 01010W11 1 56019
0060722026128261957110504004+25483-080383SAO  +0002HST  V0209991C000012200019N0096001N9+02071+01961101571ADDGA1051+999999999GF107991999999999999999999MA1999999101521
0066723865231121957121516004+36250-115033SAO  +0569LSV  V0209991C000010300019N0560001N9+00801+00191101641ADDGA1081+030009039GF108991999999999999999999MA1999999094921MW1001
0377999999256241957032303005+55200-162717SAO  +002999999V02031559007250051849N040000599-00285-00615102545ADDGA1999+005184064GA2999+999999024GA3999+999999024GA4999+999999024GD14085+9999999GD20075+9999999GD30075+9999999GD40075+9999999GF108085999999999999999999MA1999999102135EQDN01 00000JPWTH 1QNNE11 1 00610E11 1 00009E11 1 00009E11 1 00009G11 1 00017H11 1 15017H11 1 37999H11 1 37999H11 1 37999K11 1 00021L11 1 02500M11 1 30160N11 1 00000Q11 1 10254S11 1 00027V11 1 01010W11 1 88014
0269999999139731957021518005+30500-099767SAO  +052199999V02024859004652200059N024000599+02615+01395101225ADDGD11995+9999993GD20995+9999999GD30995+9999999GD40995+9999999GF104025999999999999999999MA1999999095295EQDN01 00000JPWTH 1QNNE11 1 00199E11 1 00099E11 1 00099E11 1 00099G11U1 99999K11 1 00057L11 1 01500M11 1 28140N11 1 00000Q11 1 10122S11 1 00079V11 1 00502W11 1 76009
0096942030999991957021304003-17950+122217FM-12+0019YBRM V0201401N009319999999N0450001N9+02941+02391999999ADDAY161999GA1075+007505065GA2085+999999045GF108991071051008001021999MA1999999099441MW1615MW2631
0377999999148261957072420005+42967-083733SAO  +023599999V02004559003152200059N024000599+02395+01115102255ADDGA1999+015244084GA2999+999999999GA3999+999999999GA4999+999999999GD12015+9999999GD20005+9999999GD30005+9999999GD40005+9999999GF101015999999999999999999MA1999999099465EQDN01 00000JPWTH 1QNNE11 1 00201E11 1 00000E11 1 00000E11 1 00000G11U1 99999H11 1 11050H11 1 00999H11 1 00999H11 1 00999K11 1 00052L11 1 01500M11 1 29370N11 1 00000Q11 1 10225S11 1 00075V11 1 00101W11 1 22006
0098719460999991957012719004+61750-121233SAO  +0169CYFS V0203381N005110120019N0240001N1-00151-00371102071ADDGA1011+010509079GA2061+012009079GA3011+030009049GF108991999999999999999999MA1999999100441MW1001
0066471060999991957022600004+37733+127033SAO  +0053RKSB V0209991C000012200019N0008001N9-00531-00921102931ADDGA1001+999999999GF100991999999999999999999MA1999999102241MW1051
0141476310999991957062200004+35650+136067FM-12+000399999V0203401N005119999999N0200001N9+02171+01611100661ADDAA106000691AJ100009199999999AY101999GA1999+005709089GF108991021021008001001071IA1009MA1999999100611MD1210021+9999MW1021EQDQ01    003SCCGA1
0057544230999991957060709004+40967+117833FM-12+037199999V0202501N00211090001CN0400001N9+02721+00611100431ADDAY121031GF108991031091008001001071MD1710141+9999MW1171
0075478160999991957032120004+32617+128767FM-12+002999999V0200201N004619999999N0200001N9+00561-00281102241ADDAY101999GA1999+057009039GA2001+999999999GF103991031051017501001001MW1021
031372389093193195703121000C+36783-119700SAO  +0103FAT  V02013559003150213449N0240005N9+01175+00895101765ADDAA101000095GA1081+021344034GD14085+9999999GD20995+9999999GD30995+9999999GD40995+9999999GF108085999999999999999999MA1101801100585MW1001EQDN01 00000JPWTH 1QNNE11 1 00610E11 1 00099E11 1 00099E11 1 00099G11 1 00070H11 1 23070K11 1 00048L11 1 01500M11 1 29700N11 1 00000Q11 1 10176S11 1 00053V11 1 01010W11 1 44006
019272363023047195705170100C+35233-101700SAO  +1100AMA  V02011359004652200059N0240005N1+01895+00895100775ADDAA101000095GA1001+999999999GF100005999999999999999999MA1999999088625EQDN01 00000JPWTH 1QNNG11U1 99999K11 1 00048L11 1 01500M11 1 26170N11 1 00000Q11 1 10077S11 1 00066V11 1 00000W11 1 34009
0269999999937201957040414005+38333-075517SAO  +0021SBY  V02009059007250182949N016000599+00724+00285102834ADDGD14995+9999999GD20995+9999999GD30995+9999999GD40995+9999999GF108085999999999999999999MA1999999102614EQDN01 00000JPWTH 1QNNE11 1 00699E11 1 00099E11 1 00099E11 1 00099G11 1 00060K11 1 00037L11 1 01000M11 1 30300N11 1 00000Q11 1 10283S11 1 00045V11 1 01010W11 1 33014
0043238830999991957021712004+61850+093467FM-12+999999999V0209991C00001220001CN0100001N9+99999+99999999999ADDAY171999GF199999001001999999999999MW1031
0067325400999991957102512004+52967+158750FM-12+000799999V0209991C00001220001CN0200001N9+00111-00111101511ADDAA199000691AY101999GF100991001001999999001001KA1999M+00721MW1021
010972405013743195706022100D+38850-077033SAO  +0020DCA  V0202931N004610360019N0192001N1+03241+01961101461ADDAA101000095GA1031+012009089GA2031+036009039GA3021+220009029GF108991999999999999999999MA1999999101351MW1001
0269999999265161957120412005+61583-159533SAO  +002499999V02009059006250243849N024000599-00505-00785099295ADDGD14995+9999999GD20995+9999999GD30995+9999999GD40995+9999999GF108075999999999999999999MA1999999098955EQDN01 00000JPWTH 1QNNE11 1 00699E11 1 00099E11 1 00099E11 1 00099G11 1 00080K11 1 00018L11 1 01500M11 1 29220N11 1 00000Q11 1 09929S11 1 00023V11 1 01009W11 1 33012
0057021170999991957050218004+63567+019433FM-12+000999999V0203201N00461220001CN0700001N9+00281+99999100501ADDAY111999GF102991021031008001001021MD1310051+9999MW1011
038899999912844195707211900E+26683-080100SAO  +000999999V02009059004152200059N024000599+03115+02285101525ADDAA101000095GA1999+006104084GA2999+999999999GA3999+999999999GA4999+999999999GD12045+9999999GD20005+9999999GD30005+9999999GD40005+9999999GF104045999999999999999999MA1999999101465EQDN01 00000JPWTH 1QNNE11 1 00205E11 1 00000E11 1 00000E11 1 00000G11U1 99999H11 1 11020H11 1 00999H11 1 00999H11 1 00999K11 1 00073L11 1 01500M11 1 29960N11 1 00000Q11 1 10152S11 1 00088V11 1 00505W11 1 33008
039472528014733195702211100C+42933-078733SAO  +0217BUF  V02020359002150061049N0112005N1-00615-00725102925ADDAA101000095GA1061+006104064GA2999+999999999GA3999+999999999GA4999+999999999GD13065+9999999GD20005+9999999GD30005+9999999GD40005+9999999GF106065999999999999999999MA1999999100205MW1001EQDN01 00000JPWTH 1QNNE11 1 00408E11 1 00000E11 1 00000E11 1 00000G11 1 00020H11 1 15020H11 1 00999H11 1 00999H11 1 00999K11 1 00019L11 1 00700M11 1 29590N11 1 00000Q11 1 10292S11 1 00021V11 1 00808W11 1 56004
041072641014837195711052300C+43133-089333SAO  +0266MSN  V02031559001552200059N0240005N9+00505-00065102515ADDAA101000095GA1999+012194064GA2999+999999999GA3999+999999999GA4999+999999999GD10005+9999999GD20005+9999999GD30005+9999999GD40005+9999999GF100005999999999999999999MA1999999099265MW1001EQDQ01    003SCCGA1N01 00000JPWTH 1QNNE11 1 00000E11 1 00000E11 1 00000E11 1 00000G11U1 99999H11 1 15040H11 1 00999H11 1 00999H11 1 00999K11 1 00031L11 1 01500M11 1 29310N11 1 00000Q11 1 10251S11 1 00041V11 1 00000W11 1 88003
0057011520999991957072912004+67267+014367FM-12+001099999V0200901N004119999999N0700001N9+02721+99999100691ADDAY101999GF102991011021012501041011MD1810061+9999MW1021
0269999999139731957040903005+30500-099767SAO  +052199999V02011359003652200059N024000599+01005-00115102575ADDGD11995+9999993GD20995+9999999GD30995+9999999GD40995+9999999GF103005999999999999999999MA1999999096415EQDN01 00000JPWTH 1QNNE11 1 00199E11 1 00099E11 1 00099E11 1 00099G11U1 99999K11 1 00030L11 1 01500M11 1 28470N11 1 00000Q11 1 10257S11 1 00050V11 1 00400W11 1 34007
017699999914821195712211900E+39983-082867SAO  +025499999V02022559009852200059N024000599+01065+00225101895ADDAA101000095GF100005999999999999999999MA1999999098815EQDN01 00000JPWTH 1QNNG11U1 99999K11 1 00036L11 1 01500M11 1 29180N11 1 00000Q11 1 10189S11 1 00051V11 1 00000W11 1 66019
0070324970999991957090500004+54317+158167FM-12+999999999V0202201N00101007801CN0200001N9+01001+00721101361ADDAY121999GF108991081051008001999999KA1999N+00611MD1410001+9999MW1021
0133747810999991957091013004+30967-083200SAO  +0074VAD  V0200901N002110360019N0192001N9+02241+02071102091ADDGA1999+001509999GA2021+012009059GA3051+036009049GA4011+220009029GF107991999999999999999999MA1999999101221MW1001EQDQ01    003SCCGA1
0377999999047391957013018005+40183-074067SAO  +002699999V02036059003152200059N016000599+00225-00445102585ADDGA1999+999999024GA2999+999999999GA3999+999999999GA4999+999999999GD13065+9999993GD20005+9999999GD30005+9999999GD40005+9999999GF106025999999999999999999MA1999999102275EQDN01 00000JPWTH 1QNNE11 1 00308E11 1 00000E11 1 00000E11 1 00000G11U1 99999H11C1 37999H11 1 00999H11 1 00999H11 1 00999K11 1 00024L11 1 01000M11 1 30200N11 1 00000Q11 1 10258S11 1 00036V11 1 00803W11 1 11006
0377999999340611957102721005+49017+001233SAO  +0141LFOE V02022559001552200059N024000599+00785+00785102165ADDGA1999+999999004GA2999+999999999GA3999+999999999GA4999+999999999GD12025+9999999GD20005+9999999GD30005+9999999GD40005+9999999GF102025999999999999999999MA1999999100415EQDN01 00000JPWTH 1QNNE11 1 00202E11 1 00000E11 1 00000E11 1 00000G11U1 99999H11C1 32999H11 1 00999H11 1 00999H11 1 00999K11 1 00046L11 1 01500M11 1 29650N11 1 00000Q11 1 10216S11 1 00046V11 1 00202W11 1 66003
028099999924138195711130600E+45250-112550SAO  +159099999V02020359004152200059N064000599+00005-00285101125ADDAA101000095GD12995+9999999GD23995+9999993GD30995+9999999GD40995+9999999GF105025999999999999999999MA1999999083345EQDN01 00000JPWTH 1QNNE11 1 00299E11 1 00399E11 1 00099E11 1 00099G11U1 99999K11 1 00027L11 1 04000M11 1 24610N11 1 00000Q11 1 10112S11 1 00032V11 1 00602W11 1 56008
0082722586999991957091001004+33717-096667SAO  +0233PNX  V0201131N003612200019N0240001N1+02411+01351101151ADDGA1011+015009059GA2031+220009009GF102991999999999999999999MA1999999098441MW1001
009294672399999195705080230N-34950+138530AUST +0004APAD V0203385N006759999999N999999999+02225+00005999999ADDGA1005+999999999GA2005+999999999GA3015+999999999GF101995004999999999999015MA1999999101935
0383999999232441957082415005+37417-122050SAO  +0012NUQ  V02013559001552200059N008000599+01335+01115101355ADDGA1999+002134074GA2999+999999999GA3999+999999999GA4999+999999999GD10005+9999999GD20005+9999999GD30005+9999999GD40005+9999999GF100005999999999999999999MA1999999101225MW1045EQDN01 08200JPWTH 1QNNE11 1 00000E11 1 00000E11 1 00000E11 1 00000G11U1 99999H11 1 16007H11 1 00999H11 1 00999H11 1 00999K11 1 00052L11 1 00500M11 1 29890N11 1 08200Q11 1 10135S11 1 00056V11 1 00000W11 1 44003
0100576620999991957112612004+28917+111550FM-12+003799999V0200401N00311004501CN0100001N9+01111+01001102411ADDAA106000691AY161999GF108991081071004501999999KA1999M+01221MD1110211+9999MW1601EQDQ01  00063PRCP99
030799999993817195701271500E+38050-087533SAO  +0116EVV  V02002359003150167649N016000599-00444-01065103154ADDAA101000095GA1999+016764064GD14085+9999999GD20995+9999999GD30995+9999999GD40995+9999999GF108085999999999999999999MA1999999101664EQDN01 00000JPWTH 1QNNE11 1 00610E11 1 00099E11 1 00099E11 1 00099G11 1 00055H11 1 15055K11 1 00013L11 1 01000M11 1 30020N11 1 00000Q11 1 10315S11 1 00024V11 1 01010W11 1 12006
0249999999242191957012100005+45617-121150SAO  +0072DLS  V02006859001550061049N006400599-00615-00895101665ADDGD10995+9999999GD20995+9999999GD30995+9999999GF108085999999999999999999MA1999999100855MW1715EQDN01 04000JPWTH 1QNNE11 1 00099E11 1 00099E11 1 00099G11 1 00020K11 1 00016L11 1 00400M11 1 29780N11 1 04000Q11 1 10166S11 1 00021V11 1 01010W11 1 32003
0057225220999991957021900004+64983+034783FM-12+001099999V0202501N00411004501CN0100001N9-00111-00221099931ADDAY181999GF108991081081004501999999MD1210121+9999MW1851
0066601560999991957102903004+33367-007583SAO  +0200GMMN V0202301N002612200019N0096001N9+01631+01301101881ADDGA1021+000909079GF102991999999999999999999MA1999999099491MW1051
0324719480272021957082803005+99999+999999SAO  +999999999V02029359006752200059N024000599+01065+00895100375ADDGA1999+024384034GA2999+060964004GA3999+067064014GD19025+9999999GD29015+9999999GD39025+9999999GF104035999999999999999999MA1999999099155EQDN01 00000JPWTH 1QNNE11 1 09902E11 1 09901E11 1 09902G11U1 99999H11 1 23080H11 1 32200H11 1 39220K11 1 00048L11 1 01500M11 1 29280N11 1 00000Q11 1 10037S11 1 00051V11 1 00504W11 1 78013
0057122500999991957032412004+53050+018583FM-12+007099999V0201101N00621220001CN0100001N9+00281-00611102971ADDAY121999GF107991001001999999001081MD1810051+9999MW1021
0181723810231141957042819003+34917-117900SAO  +0706EDW  V02009059005252200059N0720005N9+02395-00175101275ADDGA1001+999999999GF100005999999999999999999MA1999999093305EQDN01 00000JPWTH 1QNNG11U1 99999K11 1 00029L11 1 04500M11 1 27550N11 1 00000Q11 1 10127S11 1 00075V11 1 00000W11 1 33010
0083718460999991957120218004+52233-087883FM-12+025699999V0202901N00821220001CN0190001N9-01561-01891101401ADDAY171999GF104991021071004501001011KA1999M-01561KA2999N-02221MD1210161+9999MW1221
0106405750999991957070803004+17050+054100FM-12+001799999V0201601N00261001201CN0011001N9+02501+02501100271ADDAA199000391AJ100009199999999AY151999GA1081+001209999GF108991081061001501999999IA1009KA1999N+02441MW1511
0140475850999991957100418004+39650+141967FM-12+004799999V0202501N00361220001CN0080001N9+00831+00671102021ADDAJ100009199999999AY101999GA1999+002709019GA2999+008709059GF106991001001999999001061MA1999999101461MD1710131+9999MW1021EQDQ01    003SCCGA2
0062663900999991957032512004-14933+013567FM-12+175899999V0200901N00511220001CN0300001N9+02391+01391104972ADDAY101999GF106991041031008001001041MW1031EQDQ01+104973APOSLP
0329723520139021957032417003+34650-099267SAO  +0414LTS  V02033859014450051849N0192005N9+00395+00115099695ADDGA1021+004274064GA2061+005184064GD12025+9999999GD24065+9999999GD30995+9999999GD40995+9999999GF108085999999999999999999MA1999999094825MW1615EQDN01 02000JPWTH 1QNNE11 1 00202E11 1 00608E11 1 00099E11 1 00099G11 1 00017H11 1 15014H11 1 15017K11 1 00034L11 1 01200M11 1 28000N11 1 02000Q11 1 09969S11 1 00039V11 1 01010W11 1 18028
007772251012924195706050200D+27767-097500SAO  +0013CRP  V0201581N002112200019N0240001N1+02461+02131101221ADDAA101000095GA1021+009009099GF102991999999999999999999MA1999999101081MW1001
006082030099999195708131600N+02067-050850BRAZ +0010     V02006019005119999999N020000199+03161+02401101271ADDGA1061+006001231GF106991999999999999999999MA1101231101151
0383743920146111957032811003+43900-069933SAO  +0021NHZ  V02004559007252200059N0240005N1-00335-00565102085ADDGA1021+003054064GA2011+220009004GA3999+999999999GA4999+999999999GD12025+9999999GD22015+9999999GD30005+9999999GD40005+9999999GF103025999999999999999999MA1999999101795MW1001EQDN01 00000JPWTH 1QNNE11 1 00203E11 1 00201E11 1 00000E11 1 00000G11U1 99999H11 1 15010H11C1 32999H11 1 00999H11 1 00999K11 1 00022L11 1 01500M11 1 30060N11 1 00000Q11 1 10208S11 1 00026V11 1 00403W11 1 22014
0082717020999991957062106004+46433-063833SAO  +0024CYSU V0203601N012310039019N0160001N1+01021+00741100861ADDGA1011+001509079GA2071+003909059GF108991999999999999999999MA1999999100581MW1001
0072701170999991957030417004+65567-167917SAO  +0084PATC V0203201N009810051019N0016001N9-00921-01031100621ADDGA1081+005109059GF108991999999999999999999MA1999999099531MW1381MW2451
0377999999137731957053117005+38500-077300SAO  +0004NYG  V02011359001550121949N024000599+02395+01725102315ADDGA1999+012194084GA2999+999999999GA3999+999999999GA4999+999999999GD13055+9999999GD20005+9999999GD30005+9999999GD40005+9999999GF105055999999999999999999MA1999999102275EQDN01 00000JPWTH 1QNNE11 1 00406E11 1 00000E11 1 00000E11 1 00000G11 1 00040H11 1 11040H11 1 00999H11 1 00999H11 1 00999K11 1 00063L11 1 01500M11 1 30200N11 1 00000Q11 1 10231S11 1 00075V11 1 00606W11 1 34003
0082476600999991957070121004+35700+139400SAO  +0098RJTC V0202701N002612200019N0112001N1+01851+01741100601ADDGA1031+024009039GA2011+220009009GF102991999999999999999999MA1999999099421MW1001
0133702720999991957051616004+61250-149800SAO  +0065PAED V0200501N004110180019N1120001N9+00851+00301100711ADDGA1999+003909999GA2021+013509059GA3061+018009059GA4011+033009039GF108991999999999999999999MA1999999099861MW1001EQDQ01    003SCCGA1
0057400250999991957081900004+35400+035950FM-12+003099999V0200901N00211220001CN0300001N9+02281+01891100701ADDAY101999GF100991001001999999001001MD1710051+9999MW1021
0100590650999991957071012004+24433+111517FM-12+010899999V0209991C00001007801CN0180001N9+02501+02391100671ADDAA106008091AY191999GF108991081091008001999999KA1999M+03391MD1310281+9999MW1291EQDQ01  00803PRCP99
0043401540999991957102100004+32817+035000FM-12+000899999V0201601N00931012001CN0100001N9+02001+01501101491ADDAY161999GF108991081081008001001001MW1601
0057066700999991957092312004+47483+008533FM-12+043199999V0202701N00311004501CN0045001N9+01501+01391101321ADDAY161999GF108991081071004501999999MD1010051+9999MW1631
0383999999150271957032200005+53383-002650SAO  +002799999V02099999000052200059N002600599+00285+00115101155ADDGA1999+999999104GA2999+012194064GA3999+999999999GA4999+999999999GD16015+9999999GD22025+9999999GD30005+9999999GD40005+9999999GF103035999999999999999999MA1999999100815MW1045EQDN01 08000JPWTH 1QNNE11 1 00801E11 1 00203E11 1 00000E11 1 00000G11U1 99999H11 1 98999H11 1 15040H11 1 00999H11 1 00999K11 1 00034L11 1 00162M11 1 29770N11 1 08000Q11 1 10115S11 1 00037V11 1 00404W11 1 00000
0045638200999991957101022004-04033+039617FM-12+005599999V0202401N00151007501CN0400001N9+02331+02171999999ADDGA1061+006009089GF106991061021008001031001
0323999999264511957092715005+61167-149983SAO  +0032ANC  V02011359003150167649N024000599+00285+00175099905ADDGA1999+009144064GA2999+016764064GD12025+9999999GD24065+9999999GD30995+9999999GD40995+9999999GF108085999999999999999999MA1999999099395EQDN01 00000JPWTH 1QNNE11 1 00203E11 1 00607E11 1 00099E11 1 00099G11 1 00055H11 1 15030H11 1 15055K11 1 00035L11 1 01500M11 1 29350N11 1 00000Q11 1 09990S11 1 00037V11 1 01010W11 1 34006
0057620100999991957011203004+32683+013167FM-12+008499999V0202401N00411220001CN0300001N9+00781-00111101881ADDAY101999GF100991001001999999001001MD1710071+9999MW1021
0090949700999991957101311003-43050+147333FM-12+005499999V0203201N006219999999N0600001N9+01281+00561999999ADDAY101999GA1025+013505065GA2065+999999035GF108991021051012501071999MA1999999100611MW1001
031372344013964195704281200C+35333-094367SAO  +0136FSM  V02006859003150015249N0160005N1+01725+01675101715ADDAA101000095GA1081+001524074GD14085+9999999GD20995+9999999GD30995+9999999GD40995+9999999GF108085999999999999999999MA1999999100075MW1001EQDN01 00000JPWTH 1QNNE11 1 00610E11 1 00099E11 1 00099E11 1 00099G11 1 00005H11 1 16005K11 1 00062L11 1 01000M11 1 29550N11 1 00000Q11 1 10171S11 1 00063V11 1 01010W11 1 32006
0377722269038501957040617003+31283-085717SAO  +0093OZR  V02029359003152200059N0160005N9+01895+00225102105ADDGA1021+220009004GA2999+999999999GA3999+999999999GA4999+999999999GD11025+9999993GD20005+9999999GD30005+9999999GD40005+9999999GF102015999999999999999999MA1999999100955EQDN01 00000JPWTH 1QNNE11 1 00102E11 1 00000E11 1 00000E11 1 00000G11U1 99999H11C1 32999H11 1 00999H11 1 00999H11 1 00999K11 1 00036L11 1 01000M11 1 29810N11 1 00000Q11 1 10210S11 1 00066V11 1 00201W11 1 78006
0323999999240141957021416005+48150-103617SAO  +057899999V02018059005250243849N024000599+00175-00285100545ADDGA1999+024384044GA2999+027434044GD13075+9999999GD24015+9999999GD30995+9999999GD40995+9999999GF108085999999999999999999MA1999999093675EQDN01 00000JPWTH 1QNNE11 1 00409E11 1 00601E11 1 00099E11 1 00099G11 1 00080H11 1 21080H11 1 21090K11 1 00027L11 1 01500M11 1 27660N11 1 00000Q11 1 10054S11 1 00035V11 1 01010W11 1 55010
0070513340999991957010806004+44617+082967FM-12+049099999V0209991C00001220001CN0400001N9-01721-02221103201ADDAY111999GF102991011011008001001021KA1999N-02721MD1610041+9999MW1761
0076478160999991957090203004+32617+128767FM-12+002999999V0200501N01291220001CN0230001N9+02611+01671100531ADDAY101999GF100991001001999999001001MD1810041+9999MW1021EQDQ01+000012SCOTCV
030799999924023195704230600E+41133-100683SAO  +0846LBF  V02013559011350021349N016000599+01115+01005100275ADDAA101000095GA1999+002134074GD14085+9999999GD20995+9999999GD30995+9999999GD40995+9999999GF108085999999999999999999MA1999999090695EQDN01 00000JPWTH 1QNNE11 1 00610E11 1 00099E11 1 00099E11 1 00099G11 1 00007H11 1 16007K11 1 00050L11 1 01000M11 1 26780N11 1 00000Q11 1 10027S11 1 00052V11 1 01010W11 1 44022
0175478160999991957031612004+32617+128767FM-12+002999999V0202901N00101014701CN0100001N9+00831+00721102031ADDAA106002091AA224003091AJ100009199999999AY101999GA1999+027009049GA2061+014709089GF108991051071008001021999IA1089KA1999M+01111KA2999N+00561MA1999999101691MD1310041+9999MW1611
0099637400999991957073015004-01317+036917FM-12+162499999V0201201N00411045001CN0240001N9+02061+00941999999ADDGA1031+013509059GA2031+039009039GF107991031041012501051001MA1999999083821MD1999999+0061ME1315099
0072476420999991957110622004+35733+139333SAO  +0132RJTY V0209991C000010081019N0048001N9+01281+01111101141ADDGA1051+008109059GF107991999999999999999999MA1999999099491MW1041MW2111
0082718770999991957041422004+51100-114017SAO  +1079CYYC V0201351N003110060019N0080001N1+00581+00351101071ADDGA1071+006009059GA2011+024009049GF108991999999999999999999MA1999999088381MW1611
0098747880128101957082413004+27850-082500SAO  +0004KMCF V0203601N002112200019N0240001N9+02331+02001101251ADDGA1011+006009099GA2041+036009039GA3011+220009009GF107991999999999999999999MA1999999101191MW1001
0081217210999991957102412004+72783+127883FM-12+999999999V0209991C00001220001CN0040001N9-02501-02781101041ADDAA199001091AY171999GF108991001001999999021999KA1999M-02221MD1210051+9999MW1711
0269999999264351957091300005+99999+999999SAO  +999999999V02015859006750243849N040000599+01835+00835099865ADDGD13995+9999999GD24995+9999999GD30995+9999999GD40995+9999999GF108065999999999999999999MA1999999098515EQDN01 00000JPWTH 1QNNE11 1 00499E11 1 00699E11 1 00099E11 1 00099G11 1 00080K11 1 00047L11 1 02500M11 1 29090N11 1 00000Q11 1 09986S11 1 00065V11 1 01008W11 1 54013
038899999923194195710221700E+35017-110733SAO  +148899999V02024859004150137249N064000599+01065-00065101525ADDAA101000095GA1999+013724084GA2999+999999004GA3999+999999999GA4999+999999999GD13055+9999999GD23005+9999999GD30005+9999999GD40005+9999999GF105055999999999999999999MA1999999085205EQDN01 00000JPWTH 1QNNE11 1 00406E11 1 00400E11 1 00000E11 1 00000G11 1 00045H11 1 11045H11C1 32999H11 1 00999H11 1 00999K11 1 00031L11 1 04000M11 1 25160N11 1 00000Q11 1 10152S11 1 00051V11 1 00606W11 1 76008
0377999999350341957033015005+52400+000567SAO  +0010EGUL V02013559005252200059N012800599+01065+00675102185ADDGA1999+007624064GA2999+999999004GA3999+999999999GA4999+999999999GD12045+9999999GD23065+9999999GD30005+9999999GD40005+9999999GF107075999999999999999999MA1999999102035EQDN01 00000JPWTH 1QNNE11 1 00205E11 1 00407E11 1 00000E11 1 00000G11C1 99999H11 1 15025H11C1 32999H11 1 00999H11 1 00999K11 1 00044L11 1 00800M11 1 30130N11 1 00000Q11 1 10218S11 1 00051V11 1 00909W11 1 44010
017699999923160195701170500E+32133-110950SAO  +078099999V02033859004652200059N072000599+01115-00225101835ADDAA101000095GF100005999999999999999999MA1999999092925EQDN01 00000JPWTH 1QNNG11U1 99999K11 1 00028L11 1 04500M11 1 27440N11 1 00000Q11 1 10183S11 1 00052V11 1 00000W11 1 18009
0057548260999991957052121004+36200+117133FM-12+130099999V0201601N00981220001CN0450001N9+01111+00001099491ADDAY121031GF108991001001999999001071MD1610121+9999MW1021
0050722435999991957070223004+29650-095283SAO  +0019HOU  V0202031N004112200019N0240001N1+03571+02241101461ADDGF100991999999999999999999MA1999999101251MW1001
0067423480999991957102603004+26817+075800FM-12+039099999V0209991C00001220001CN0040001N9+01891+01221101561ADDAA124000091AY101999GF100991001001999999001001KA1999N+01001MW1021
0057379070999991957021718004+39600+047650FM-12+043099999V0209991C00001007801CN0040001N9+00501+00281102981ADDAY121061GF108991081051008001999999MD1210051+9999MW1021
0081295400999991957042518004+56333+085417FM-12+999999999V0202201N00311220001CN0100001N9+00001-00221101361ADDAA199000691AY111999GF104991001001999999001021KA1999M+00611MD1210031+9999MW1011
0171724361138031957122210003+39267-085900SAO  +0199BAK  V02099999000052200059N0240005N1+00115-00175102585ADDGF100005999999999999999999MA1999999100105MW1001EQDN01 00000JPWTH 1QNNG11U1 99999K11 1 00029L11 1 01500M11 1 29560N11 1 00000Q11 1 10258S11 1 00034V11 1 00000W11 1 00000
0383910660227011957070503003+28200-177383SAO  +0007PMDY V02011359004650304849N0128005N1+02785+02335101955ADDGA1021+004574084GA2011+030484034GA3999+999999004GA4999+999999999GD12025+9999999GD23025+9999999GD33025+9999999GD40005+9999999GF106055999999999999999999MA1999999101865MW1001EQDN01 00000JPWTH 1QNNE11 1 00203E11 1 00403E11 1 00402E11 1 00000G11 1 00100H11 1 11015H11 1 23100H11C1 32999H11 1 00999K11 1 00074L11 1 00800M11 1 30080N11 1 00000Q11 1 10195S11 1 00082V11 1 00706W11 1 34009
0084942120999991957122209004-18250+127633FM-12+043099999V0200501N009319999999N0090001N9+02671+02281999999ADDAY101999GF106991031031012501071999KA1999M+03441KA2999N+02441MA1999999095821MW1051
0085560290999991957020718004+33100+096750FM-12+387499999V0201801N00101220001CN0140001N9-00501-01001999999ADDAY111999GF100991001001999999001001KA1999M+00611MA1999999093971MD1810051+9999MW1011
0377999999139571957031315005+32467-093817SAO  +0077SHV  V02015859002652200059N016000599+01725+00945101305ADDGA1999+007624064GA2999+999999999GA3999+999999999GA4999+999999999GD10005+9999999GD20005+9999999GD30005+9999999GD40005+9999999GF100005999999999999999999MA1999999100375EQDN01 00000JPWTH 1QNNE11 1 00000E11 1 00000E11 1 00000E11 1 00000G11U1 99999H11 1 15025H11 1 00999H11 1 00999H11 1 00999K11 1 00049L11 1 01000M11 1 29640N11 1 00000Q11 1 10130S11 1 00063V11 1 00000W11 1 54005
0377999999128541957122519005+28783-081233SAO  +002799999V02011359006752200059N024000599+02565+01785102035ADDGA1999+006104084GA2999+999999004GA3999+999999999GA4999+999999999GD12035+9999999GD22015+9999999GD30005+9999999GD40005+9999999GF104045999999999999999999MA1999999101795EQDN01 00000JPWTH 1QNNE11 1 00204E11 1 00201E11 1 00000E11 1 00000G11U1 99999H11 1 11020H11C1 32999H11 1 00999H11 1 00999K11 1 00064L11 1 01500M11 1 30060N11 1 00000Q11 1 10203S11 1 00078V11 1 00505W11 1 34013
0066718930999991957011214004+49717-124900SAO  +0023CYQQ V0203151N003110045019N0128001N1-00091-00151101871ADDGA1081+004509049GF108991999999999999999999MA1999999101591MW1711
039472231012916195705260500C+29983-090250SAO  +0001MSY  V02015859003652200059N0192005N1+02505+02335101715ADDAA101000095GA1021+220009004GA2999+999999999GA3999+999999999GA4999+999999999GD11025+9999993GD20005+9999999GD30005+9999999GD40005+9999999GF102005999999999999999999MA1999999101635MW1001EQDN01 00000JPWTH 1QNNE11 1 00102E11 1 00000E11 1 00000E11 1 00000G11U1 99999H11C1 32999H11 1 00999H11 1 00999H11 1 00999K11 1 00074L11 1 01200M11 1 30010N11 1 00000Q11 1 10171S11 1 00077V11 1 00200W11 1 54007
0081570060999991957101721004+34500+105833FM-12+120299999V0209991C00001220001CN0250001N9+00281-00391102721ADDAY121999GF108991001001999999021999MA1999999099501MD1610081+9999ME1315509MW1021
0085540120999991957040218004+44667+118000FM-12+999999999V0201401N00411220001CN0200001N9-00891-01111103281ADDAY101061GF101991001001999999001021KA1999M+00391MA1999999100301MD1710101+9999MW1021
0269999999241451957022100005+43517-112067SAO  +144699999V02022559008850137249N048000599+00175-00065100815ADDGD12995+9999999GD24995+9999999GD30995+9999999GD40995+9999999GF108085999999999999999999MA1999999084525EQDN01 00000JPWTH 1QNNE11 1 00299E11 1 00699E11 1 00099E11 1 00099G11 1 00045K11 1 00031L11 1 03000M11 1 24960N11 1 00000Q11 1 10081S11 1 00035V11 1 01010W11 1 66017
0066724037937281957082917004+38717-077183SAO  +0020DAA  V0202501N003612200019N0112001N9+02571+01691102511ADDGA1021+009009059GF102991999999999999999999MA1999999102341MW1001
0097719590263941957121712004+69450-133000FM-12+000599999V0202601N00211220001CN0240001N9-03501+99999101681ADDAJ100139199999999AL10600091AY101999GF100991001001999999001001KA1999M-03001MD1610041+9999MW1011
0140719421999991957101512004+56067-118383FM-12+065999999V0202701N00211220001CN0550001N9+00221-00171101581ADDAA124010091AJ199999999999999AL10600091AY111999GF102991021001999999031001KA1999M+00831KA2999N+00171MD1110101+9999MW1011EQDQ01  04472SNDP  
0066701730999991957012410004+66050-153750SAO  +0392PAIM V0209991C000012200019N0240001N9-02261-02811103241ADDGA1081+220009029GF108991999999999999999999MA1999999098041MW1001
0049610170999991957100400004+18683+012917FM-12+035799999V0209991C00001220001CN0300001N9+02721+00781100981ADDAY101999GF100991001001999999001001IA1089MW1021
0130106350999991957071715004+50217+008450FM-12+079999999V0202701N00311220001CN0250001N9+01721+00781999999ADDAJ199999999999999AY121031GA1031+009009089GF104991031021008001031001IA1009MA1999999104971MD1210031+9999MW1011EQDQ01  01762SNDP  
0377999999137691957021301005+36817-076033SAO  +000899999V02036059004650094549N012800599+00225+00065102175ADDGA1999+009454064GA2999+999999999GA3999+999999999GA4999+999999999GD14085+9999999GD20005+9999999GD30005+9999999GD40005+9999999GF108065999999999999999999MA1999999102075EQDN01 00000JPWTH 1QNNE11 1 00610E11 1 00000E11 1 00000E11 1 00000G11 1 00031H11 1 15031H11 1 00999H11 1 00999H11 1 00999K11 1 00033L11 1 00800M11 1 30140N11 1 00000Q11 1 10217S11 1 00036V11 1 01007W11 1 11009
0269999999148501957041501005+44733-085583SAO  +0188TVC  V02027059002652200059N024000599+00115-00505102815ADDGD10995+9999999GD20995+9999999GD30995+9999999GD40995+9999999GF100005999999999999999999MA1999999100415EQDN01 00000JPWTH 1QNNE11 1 00099E11 1 00099E11 1 00099E11 1 00099G11U1 99999K11 1 00023L11 1 01500M11 1 29650N11 1 00000Q11 1 10281S11 1 00034V11 1 00000W11 1 77005
0165999999138941957120122005+30683-088250SAO  +0064MOB  V02022559005252200059N024000599+01335-00285102985ADDGF100005999999999999999999MA1999999102175EQDN01 00000JPWTH 1QNNG11U1 99999K11 1 00027L11 1 01500M11 1 30170N11 1 00000Q11 1 10298S11 1 00056V11 1 00000W11 1 66010
0057265090999991957101400004+55700+021650FM-12+001099999V0202501N00621004501CN0100001N9+01221+00891101851ADDAY121999GF106991051011004501051001MD1710161+9999MW1021
0269999999225251957010410005+20833-156467SAO  +004099999V02036059001552200059N032000599+01505+01395101765ADDGD12995+9999999GD20995+9999999GD30995+9999999GD40995+9999999GF102025999999999999999999MA1999999101395EQDN01 00000JPWTH 1QNNE11 1 00299E11 1 00099E11 1 00099E11 1 00099G11U1 99999K11 1 00057L11 1 02000M11 1 29940N11 1 00000Q11 1 10176S11 1 00059V11 1 00202W11 1 11003
0377725196147171957070522003+43233-075417SAO  +0145RME  V02029359005750121949N0160005N9+02115+01225100255ADDGA1051+012194084GA2011+220009004GA3999+999999999GA4999+999999999GD13055+9999999GD23015+9999999GD30005+9999999GD40005+9999999GF106065999999999999999999MA1999999098515EQDN01 00000JPWTH 1QNNE11 1 00406E11 1 00401E11 1 00000E11 1 00000G11 1 00040H11 1 11040H11C1 32999H11 1 00999H11 1 00999K11 1 00054L11 1 01000M11 1 29090N11 1 00000Q11 1 10025S11 1 00070V11 1 00707W11 1 78011
0057317250999991957091006004+48617+133833FM-12+005399999V0202901N00311220001CN0500001N9+02111+01001101171ADDAY101999GF102991011021008001091001MD1710081+9999MW1021
0011478380999991957050915004+32200+130033FM-12+003199999V0201801N000519999999N9999999N9+01891+99999999999ADDAY101999
0114749071999991957020121004+36017-076567SAO  +0006EDE  V0201131N000510090019N0064001N1+01521+01351101331ADDGA1091+999999999GA2011+004509079GA3061+009009059GA4011+220009009GF108991999999999999999999MA1999999101221MW1051
0066749132999991957042506004+60683-046533SAO  +006299999V0203381N002610240019N0240001N1+00241-00201100171ADDGA1051+024009049GF107991999999999999999999MA1999999099391MW1001
017699999924215195707191600E+41317-122317SAO  +1078MHS  V02099999000052200059N024000599+01785+00835101395ADDAA101000095GF100005999999999999999999MA1999999089205EQDN01 00000JPWTH 1QNNG11U1 99999K11 1 00047L11 1 01500M11 1 26340N11 1 00000Q11 1 10139S11 1 00064V11 1 00000W11 1 00000
038899999924033195708081700E+45800-108533SAO  +1087BIL  V02022559003152200059N096000599+02225+00895101495ADDAA101000095GA1999+042674034GA2999+999999999GA3999+999999999GA4999+999999999GD12025+9999999GD20005+9999999GD30005+9999999GD40005+9999999GF102025999999999999999999MA1999999089375EQDN01 00000JPWTH 1QNNE11 1 00202E11 1 00000E11 1 00000E11 1 00000G11U1 99999H11 1 23140H11 1 00999H11 1 00999H11 1 00999K11 1 00048L11 1 06000M11 1 26390N11 1 00000Q11 1 10149S11 1 00072V11 1 00202W11 1 66006
0093321500999991957051300004+46917+142733FM-12+003199999V0203601N01181000601CN0040001N9+00281+00281099791ADDAJ100009199999999AY121999GF108991081061000751999999IA1009KA1999N+00281MD1410001+9999MW1101
0121476310999991957041418004+35650+136067FM-12+000399999V0203201N00361024001CN0180001N9+00941+00171102331ADDAJ100009199999999AY101999GA1999+002709049GA2051+999999999GF105991051001999999001011MA1999999102301MD1210081+9999MW1021
0035630300999991957111703004+14833+039333FM-12+264299999V0209991C00001220001CN0200001N9+01281+00281999999ADDGF100991001001999999001001MW1001
0082471200999991957092903004+37250+127000SAO  +0024RKSW V0202301N008210150019N0128001N9+02241+01521101421ADDGA1061+015009059GA2081+220009029GF108991999999999999999999MA1999999101081MW1001
0110711030999991957123012004+53033-122517FM-12+054599999V0209991C00001220001CN0240001N9-01891-02111102701ADDAJ100209199999999AL10600091AY101999GF100991001001999999001001KA1999M-00441KA2999N-01891MD1210261+9999MW1021
0165999999231361957071416005+34217-119067SAO  +002599999V02099999000052200059N016000599+02005+01395101395ADDGF100005999999999999999999MA1999999101055EQDN01 00000JPWTH 1QNNG11U1 99999K11 1 00057L11 1 01000M11 1 29840N11 1 00000Q11 1 10139S11 1 00068V11 1 00000W11 1 00000
006094333099999195709300500N-22920+139900AUST +0158     V0201805N001059999999N999999999+03115+99999999999ADDGA1005+999999999GF100995004999999999999999MA1999999099335
0066716280999991957032515004+45317-075667SAO  +0126CYOW V0203381N003612200019N0240001N1-00091-00591102201ADDGA1021+009009059GF102991999999999999999999MA1999999100911MW1001
028099999924138195706281900E+45250-112550SAO  +159099999V02020359006752200059N064000599+02225+00615100685ADDAA101000095GD10995+9999999GD20995+9999999GD30995+9999999GD40995+9999999GF100005999999999999999999MA1999999083515EQDN01 00000JPWTH 1QNNE11 1 00099E11 1 00099E11 1 00099E11 1 00099G11U1 99999K11 1 00043L11 1 04000M11 1 24660N11 1 00000Q11 1 10068S11 1 00072V11 1 00000W11 1 56013
0058063300999991957031215004+51983+004117FM-12+002299999V0201401N00411220001CN0060001N9+01721+00781999999ADDAY111999GF108991001001999999001071MA1999999101761MW1021
041072518014735195705061800C+42750-073800SAO  +0089ALB  V02027059002152200059N0240005N1+01945-00725101665ADDAA101000095GA1999+007624084GA2021+220009024GA3999+999999999GA4999+999999999GD12005+9999999GD20025+9999999GD30005+9999999GD40005+9999999GF102025999999999999999999MA1999999100585MW1001EQDQ01    003SCCGA1N01 00000JPWTH 1QNNE11 1 00200E11 1 00002E11 1 00000E11 1 00000G11U1 99999H11 1 11025H11C1 37999H11 1 00999H11 1 00999K11 1 00019L11 1 01500M11 1 29700N11 1 00000Q11 1 10166S11 1 00067V11 1 00202W11 1 77004
0377999999107151957060215005+09367-079900SAO  +0004MBFS V02031559003652200059N016000599+03005+02445100975ADDGA1999+006104084GA2999+999999024GA3999+999999999GA4999+999999999GD12035+9999999GD23025+9999999GD30005+9999999GD40005+9999999GF106065999999999999999999MA1999999100915EQDN01 00000JPWTH 1QNNE11 1 00204E11 1 00403E11 1 00000E11 1 00000G11C1 99999H11 1 11020H11C1 37999H11 1 00999H11 1 00999K11 1 00076L11 1 01000M11 1 29800N11 1 00000Q11 1 10097S11 1 00086V11 1 00707W11 1 88007
031372253012921195703070700C+29533-098467SAO  +0240SAT  V02002359008850070149N0192005N1+00725+00285102075ADDAA101000095GA1081+007014064GD14085+9999999GD20995+9999999GD30995+9999999GD40995+9999999GF108085999999999999999999MA1999999099225MW1001EQDN01 00000JPWTH 1QNNE11 1 00610E11 1 00099E11 1 00099E11 1 00099G11 1 00023H11 1 15023K11 1 00037L11 1 01200M11 1 29300N11 1 00000Q11 1 10207S11 1 00045V11 1 01010W11 1 12017
034072464093058195703010200C+38283-104500SAO  +1416PUB  V02009059002150097549N0240005N9+00285+00175102295ADDAA101000095GA1031+006104064GA2051+009754064GD12035+9999999GD24055+9999999GD30995+9999999GD40995+9999999GF108085999999999999999999MA1999999085985MW1001EQDN01 00000JPWTH 1QNNE11 1 00204E11 1 00606E11 1 00099E11 1 00099G11 1 00032H11 1 15020H11 1 15032K11 1 00035L11 1 01500M11 1 25390N11 1 00000Q11 1 10229S11 1 00037V11 1 01010W11 1 33004
0269999999139811957112605005+37667-095483SAO  +029999999V02018059002652200059N024000599+00675+00335101565ADDGD10995+9999999GD20995+9999999GD30995+9999999GD40995+9999999GF100005999999999999999999MA1999999098005EQDN01 00000JPWTH 1QNNE11 1 00099E11 1 00099E11 1 00099E11 1 00099G11U1 99999K11 1 00038L11 1 01500M11 1 28940N11 1 00000Q11 1 10156S11 1 00044V11 1 00000W11 1 55005
018272317013723195712290500C+36083-079950SAO  +0275GSO  V02033859002652200059N0240005N1+00565+00225101325ADDAA101000095GF100005999999999999999999MA1999999098105MW1001EQDN01 00000JPWTH 1QNNG11U1 99999K11 1 00036L11 1 01500M11 1 28970N11 1 00000Q11 1 10132S11 1 00042V11 1 00000W11 1 18005
0098716330999991957091420004+44750-081100SAO  +0219CYVV V0202481N004612200019N0240001N1+01851+01191101921ADDGA1011+009009089GA2021+030009039GA3031+075009009GF107991999999999999999999MA1999999099291MW1001
031399999914936195703070300E+44383-098217SAO  +039599999V02031559006750103649N024000599-00675-01065102915ADDAA101000095GA1999+010364064GD14085+9999999GD20995+9999999GD30995+9999999GD40995+9999999GF108085999999999999999999MA1999999097975MW1855EQDN01 05000JPWTH 1QNNE11 1 00610E11 1 00099E11 1 00099E11 1 00099G11 1 00034H11 1 15034K11 1 00013L11 1 01500M11 1 28930N11 1 05000Q11 1 10291S11 1 00020V11 1 01010W11 1 88013
0302999999242401957050922005+48383-124733SAO  +0035TTI  V02020359004150015249N006400599+01115+01065101465ADDGA1999+001524074GD14085+9999999GD20995+9999999GD30995+9999999GD40995+9999999GF108085999999999999999999MA1999999101155MW1615EQDN01 02000JPWTH 1QNNE11 1 00610E11 1 00099E11 1 00099E11 1 00099G11 1 00005H11 1 16005K11 1 00051L11 1 00400M11 1 29870N11 1 02000Q11 1 10146S11 1 00052V11 1 01010W11 1 56008
034099999912844195705012300E+26683-080100SAO  +000999999V02099999000050259149N009600599+02115+02115101255ADDAA101001095GA1999+012194064GA2999+025914044GD12025+9999999GD24085+9999999GD30995+9999999GD40995+9999999GF108085999999999999999999MA1999999101195MW1615EQDN01 02000JPWTH 1QNNE11 1 00203E11 1 00610E11 1 00099E11 1 00099G11 1 00085H11 1 15040H11 1 21085K11 1 00070L11 1 00600M11 1 29880N11 1 02000Q11 1 10125S11 1 00070V11 1 01010W11 1 00000
0356722225038551957111413002+30350-087317SAO  +0010NPA  V02022559007250076249N003200599+01945+01835100885ADDGA1999+003054074GA2999+007624064GA3999+999999024GD12025+9999999GD23055+9999999GD34025+9999999GD40995+9999999GF108085999999999999999999MA1999999100755MW1455EQDN01 07000JPWTH 1QNNE11 1 00202E11 1 00406E11 1 00602E11 1 00099G11 1 00025H11 1 16010H11 1 15025H11C1 37999K11 1 00065L11 1 00200M11 1 29750N11 1 07000Q11 1 10088S11 1 00067V11 1 01010W11 1 66014
0043477800999991957090603004+34683+135833FM-12+010699999V0203401N002619999999N0050001N9+02441+02441100471ADDAY101999GF108991021071999999021999MW1611
0082718410999991957102222004+50283-088900SAO  +0325CYYW V0200231N004110045019N0240001N1+00021-00151102891ADDGA1051+004509059GA2031+007509059GF108991999999999999999999MA1999999098811MW1001
019272363023047195703130300C+35233-101700SAO  +1100AMA  V02020359008252200059N0240005N1+01395-00395100465ADDAA101000095GA1001+999999999GF100005999999999999999999MA1999999088285EQDN01 00000JPWTH 1QNNG11U1 99999K11 1 00025L11 1 01500M11 1 26070N11 1 00000Q11 1 10046S11 1 00057V11 1 00000W11 1 56016
0383783670117061957111513003+19900-075150SAO  +0016MUGM V02036059004152200059N0240005N9+02445+02225101435ADDGA1021+007624084GA2021+220009004GA3999+999999999GA4999+999999999GD12025+9999999GD22025+9999999GD30005+9999999GD40005+9999999GF103035999999999999999999MA1999999101255MW1001EQDN01 00000JPWTH 1QNNE11 1 00202E11 1 00202E11 1 00000E11 1 00000G11U1 99999H11 1 11025H11C1 32999H11 1 00999H11 1 00999K11 1 00072L11 1 01500M11 1 29900N11 1 00000Q11 1 10143S11 1 00076V11 1 00404W11 1 11008
0029410260999991957080709004+21500+039200FM-12+0011OEJD V0202501N00211220001CN0110001N9+03561+99999100711ADDGF100991001001999999001001
0058684380999991957051412004+28800+024767FM-12+125099999V0202501N00511220001CN0300001N9+02061+00171999999ADDAY141999GF104991001001999999001061MA1999999087861MW1021
0377999999127121957081018005+26617-078367SAO  +0006MYGM V02015859002652200059N016000599+03005+02285101665ADDGA1999+006404084GA2999+054864034GA3999+999999999GA4999+999999999GD12035+9999999GD22015+9999999GD30005+9999999GD40005+9999999GF104045999999999999999999MA1999999101595EQDN01 00000JPWTH 1QNNE11 1 00204E11 1 00201E11 1 00000E11 1 00000G11U1 99999H11 1 11021H11 1 23180H11 1 00999H11 1 00999K11 1 00073L11 1 01000M11 1 30000N11 1 00000Q11 1 10166S11 1 00086V11 1 00505W11 1 54005
0329999999147771957042719005+41333-075733SAO  +0283AVP  V02006859004150091449N019200599+02335+01615101735ADDGA1999+009144094GA2999+030484034GD13065+9999999GD24025+9999999GD30995+9999999GD40995+9999999GF108085999999999999999999MA1999999098345MW1955EQDN01 01000JPWTH 1QNNE11 1 00407E11 1 00603E11 1 00099E11 1 00099G11 1 00030H11 1 18030H11 1 23100K11 1 00061L11 1 01200M11 1 29040N11 1 01000Q11 1 10173S11 1 00074V11 1 01010W11 1 32008
0051488770999991957071311004+12233+109200SAO  +0009VVSN V0201351N002619999999N0240001N1+99999+99999999999ADDGA1011+007809009GF107991999999999999999999MW1001
0296999999676011957092420005-78200-162250SAO  +003299999V02020359003150045749N011200599-02565-02835097665ADDGA1999+004574064GD14085+9999999GD20995+9999999GD30995+9999999GD40995+9999999GF108085999999999999999999MA1999999097095EQDN01 00000JPWTH 1QNNE11 1 00610E11 1 00099E11 1 00099E11 1 00099G11 1 00015H11 1 15015K11 1-00019L11 1 00700M11 1 28670N11 1 00000Q11 1 09766S11 1-00014V11 1 01010W11 1 56006
0269999999232751957111506005+39133-123200SAO  +0192UKI  V02099999000052200059N016000599+00675+00445101665ADDGD10995+9999999GD20995+9999999GD30995+9999999GD40995+9999999GF100005999999999999999999MA1999999099395EQDN01 00000JPWTH 1QNNE11 1 00099E11 1 00099E11 1 00099E11 1 00099G11U1 99999K11 1 00040L11 1 01000M11 1 29350N11 1 00000Q11 1 10166S11 1 00044V11 1 00000W11 1 00000
0377999999147901957030711005+42150-070933SAO  +004999999V02002359005252200059N024000599-00065-00115101645ADDGA1999+036584034GA2999+999999004GA3999+999999999GA4999+999999999GD12035+9999999GD23045+9999993GD30005+9999999GD40005+9999999GF107035999999999999999999MA1999999101055EQDN01 00000JPWTH 1QNNE11 1 00204E11 1 00305E11 1 00000E11 1 00000G11U1 99999H11 1 23120H11C1 32999H11 1 00999H11 1 00999K11 1 00030L11 1 01500M11 1 29840N11 1 00000Q11 1 10164S11 1 00031V11 1 00904W11 1 12010
0066471030999991957110312004+37967+124667SAO  +0193RKSP V0202701N005112200019N0112001N1+01131+01021101981ADDGA1081+009009059GF108991999999999999999999MA1999999101931MW1001
007772251012924195706050300D+27767-097500SAO  +0013CRP  V0201581N002612200019N0240001N1+02411+02181101281ADDAA101000095GA1021+009009099GF102991999999999999999999MA1999999101121MW1001
0098724088137071957072600004+39133-075467SAO  +0009KDOV V0201601N003612200019N0192001N9+02411+01691102071ADDGA1021+015009089GA2021+024009039GA3031+220009029GF107991999999999999999999MA1999999101931MW1001
0269999999232751957052504005+39133-123200SAO  +0192UKI  V02099999000052200059N024000599+01285+00895101805ADDGD10995+9999999GD20995+9999999GD30995+9999999GD40995+9999999GF100005999999999999999999MA1999999099565EQDN01 00000JPWTH 1QNNE11 1 00099E11 1 00099E11 1 00099E11 1 00099G11U1 99999K11 1 00048L11 1 01500M11 1 29400N11 1 00000Q11 1 10180S11 1 00055V11 1 00000W11 1 00000
0138474300999991957122506004+41817+140750FM-12+003699999V0202901N00511007801CN0070001N9+00171-00281101231ADDAA106000691AJ100009199999999AY101999GA1999+999999059GA2061+999999999GF106991061031008001061001IA1089MA1999999100781MD1310221+9999MW1011
007772217003813195704120700A+32700-083650SAO  +0111MCN  V0203381N005110150019N0160001N1+00411-00421101881ADDAA101000095GA1081+015009059GF108991999999999999999999MA1999999098781MW1001
0081267020999991957011618004+54700+020617FM-12+002799999V0202501N00311220001CN0100001N9-00501-00611103111ADDAA199000391AY181999GF101991011051012501001001KA1999M-00501MD1410001+9999MW1011
0068939860999991957110100004-43967-176517FM-12+004899999V0202801N002619999999N0350001N9+01171+00831100381ADDAA124001091AY121999GF108991011021008001071999MD1110031+9999MW1611
0383747686138201957052420003+30400-088917SAO  +0008BIX  V02015859006250076249N0160005N9+03175+02565101865ADDGA1051+007624084GA2021+220009024GA3999+999999999GA4999+999999999GD13055+9999999GD23025+9999999GD30005+9999999GD40005+9999999GF106065999999999999999999MA1999999101735MW1001EQDN01 00000JPWTH 1QNNE11 1 00406E11 1 00403E11 1 00000E11 1 00000G11 1 00025H11 1 11025H11C1 37999H11 1 00999H11 1 00999K11 1 00078L11 1 01000M11 1 30040N11 1 00000Q11 1 10186S11 1 00089V11 1 00807W11 1 54012
0377999999938411957061818005+99999+999999SAO  +999999999V02015859002152200059N024000599+03114+02115101764ADDGA1999+009144084GA2999+999999999GA3999+999999999GA4999+999999999GD12045+9999999GD20005+9999999GD30005+9999999GD40005+9999999GF104045999999999999999999MA1999999101154EQDN01 00000JPWTH 1QNNE11 1 00205E11 1 00000E11 1 00000E11 1 00000G11U1 99999H11 1 11030H11 1 00999H11 1 00999H11 1 00999K11 1 00070L11 1 01500M11 1 29870N11 1 00000Q11 1 10176S11 1 00088V11 1 00505W11 1 54004
0269999999242301957042116005+44267-121150SAO  +0934RDM  V02033859004152200059N056000599+00835+00005101635ADDGD12995+9999999GD21995+9999993GD30995+9999999GD40995+9999999GF102015999999999999999999MA1999999090795EQDN01 00000JPWTH 1QNNE11 1 00299E11 1 00199E11 1 00099E11 1 00099G11U1 99999K11 1 00032L11 1 03500M11 1 26810N11 1 00000Q11 1 10163S11 1 00047V11 1 00301W11 1 18008
0165999999139281957122203005+31633-097067SAO  +014599999V02099999000052200059N024000599+01285+00225102245ADDGF100005999999999999999999MA1999999100475EQDN01 00000JPWTH 1QNNG11U1 99999K11 1 00036L11 1 01500M11 1 29670N11 1 00000Q11 1 10224S11 1 00055V11 1 00000W11 1 00000
0350999999422041957020510005+26350+127767SAO  +0043RODN V02015859004650121949N016000599+02065+01895101125ADDGA1999+002744064GA2999+012194064GA3999+024384044GD12015+9999999GD23065+9999999GD34085+9999999GD40995+9999999GF108085999999999999999999MA1999999100585EQDN01 00000JPWTH 1QNNE11 1 00201E11 1 00407E11 1 00610E11 1 00099G11 1 00040H11 1 15009H11 1 15040H11 1 21080K11 1 00066L11 1 01000M11 1 29700N11 1 00000Q11 1 10112S11 1 00069V11 1 01010W11 1 54009
0082722576039021957081102004+31067-097817SAO  +0309GRK  V0209991C000010420019N0240001N9+02801+01961100951ADDGA1021+012009089GA2061+042009039GF108991999999999999999999MA1999999097431MW1001
040472511114751195707290900C+40217-076850SAO  +0106CXY  V02018059000552200059N0112005N9+01945+01835101565ADDAA101000095GA1999+002444134GA2031+006404074GA3999+999999999GA4999+999999999GD12005+9999999GD20035+9999999GD30005+9999999GD40005+9999999GF103025999999999999999999MA1999999100305EQDQ01    003SCCGA1N01 00000JPWTH 1QNNE11 1 00200E11 1 00004E11 1 00000E11 1 00000G11U1 99999H11 1 13008H11 1 16021H11 1 00999H11 1 00999K11 1 00065L11 1 00700M11 1 29620N11 1 00000Q11 1 10156S11 1 00067V11 1 00403W11 1 55001
017699999994908195710280200E+42400-090700SAO  +032599999V02024859004652200059N040000599+00224-00335102844ADDAA101000095GF100005999999999999999999MA1999999098784EQDN01 00000JPWTH 1QNNG11U1 99999K11 1 00026L11 1 02500M11 1 29170N11 1 00000Q11 1 10284S11 1 00036V11 1 00000W11 1 76009
0104474120999991957012309004+43050+141333FM-12+001899999V0202701N00151012301CN0020001N9-00281-00391100831ADDAY101999GA1999+027009089GA2031+999999099GF108991081001012501021999MA1999999100611MD1410001+9999MW1711
0383999999038151957101712005+30483-087350SAO  +002999999V02027059001050061049N006400599+02065+02005101565ADDGA1999+006104064GA2999+009144064GA3999+999999999GA4999+999999999GD13055+9999999GD23015+9999999GD30005+9999999GD40005+9999999GF106055999999999999999999MA1999999101255MW1445EQDN01 07200JPWTH 1QNNE11 1 00406E11 1 00401E11 1 00000E11 1 00000G11 1 00020H11 1 15020H11 1 15030H11 1 00999H11 1 00999K11 1 00068L11 1 00400M11 1 29900N11 1 07200Q11 1 10156S11 1 00069V11 1 00706W11 1 77002
0066723405039301957042803004+34917-092150SAO  +0095LRF  V0209991C000010240019N0112001N9+01721+01721101511ADDGA1081+024009039GF108991999999999999999999MA1999999100341MW1611
0377999999433131957051712005+35750+139350SAO  +0139RJTY V02099999000052200059N011200599+01785+01445101925ADDGA1999+024384044GA2999+999999999GA3999+999999999GA4999+999999999GD12025+9999999GD20005+9999999GD30005+9999999GD40005+9999999GF102025999999999999999999MA1999999100245EQDN01 00000JPWTH 1QNNE11 1 00203E11 1 00000E11 1 00000E11 1 00000G11U1 99999H11 1 21080H11 1 00999H11 1 00999H11 1 00999K11 1 00058L11 1 00700M11 1 29600N11 1 00000Q11 1 10192S11 1 00064V11 1 00303W11 1 00000
0066747320999991957040718004+32850-106083SAO  +1248HMN  V0202501N010812200019N0064001N9+02181+00191100361ADDGA1091+999999999GF109991999999999999999999MA1999999086791MW1071
0100295870999991957010218004+55633+095467FM-12+025199999V0202701N00311220001CN0200001N9-01111-01781103081ADDAA199000691AY121999GF108991001001999999021999KA1999M+99999MD1710041+9999MW1021EQDQ01 -01222ATMX  
0081591170999991957020306004+24300+116100FM-12+008299999V0202001N00101015001CN0200001N9+01891+01501101421ADDAA106000691AY161999GF107991071051017501001001KA1999N+01501MD1810291+9999MW1211
0094478030999991957020301004+33883+130650SAO  +0033RJFA V0201351N004110063019N0032001N1+01071+00961101291ADDGA1031+003009079GA2081+006309059GF108991999999999999999999MA1999999100881MW1041MW2111MW3611
0057604200999991957123100004+36267+006683FM-12+058399999V0209991C00001004201CN0100001N9+00501+00391101051ADDAY181999GF108991081071004501999999MD1110031+9999MW1601
0081580570999991957102006004+34067+120217FM-12+000399999V0200201N00511036001CN0350001N9+01611+00781102181ADDAA106000691AY161999GF107991031051012501071999KA1999N+01281MD1810171+9999MW1021
0085538450999991957020618004+36600+109533FM-12+090099999V0202201N00101220001CN0120001N9-00891-01111102551ADDAY101999GF100991001001999999001001KA1999M+00221MA1999999100651MD1810051+9999MW1001
0269999999240131957032010005+48250-101283SAO  +052699999V02024859003652200059N024000599+00005-00225101025ADDGD11995+9999993GD20995+9999999GD30995+9999999GD40995+9999999GF102005999999999999999999MA1999999094755EQDN01 00000JPWTH 1QNNE11 1 00199E11 1 00099E11 1 00099E11 1 00099G11U1 99999K11 1 00028L11 1 01500M11 1 27980N11 1 00000Q11 1 10102S11 1 00032V11 1 00300W11 1 76007
0057332460999991957090600004+51050+031900FM-12+012699999V0209991C00001220001CN0100001N9+01281+01221101741ADDAY101999GF103991001001999999001011MD1210031+9999MW1021
017699999924033195709290600E+45800-108533SAO  +1087BIL  V02002359007252200059N032000599+01725+00675101805ADDAA101000095GF100005999999999999999999MA1999999089605EQDN01 00000JPWTH 1QNNG11U1 99999K11 1 00044L11 1 02000M11 1 26460N11 1 00000Q11 1 10180S11 1 00063V11 1 00000W11 1 12014
0057228870999991957030806004+61233+046633FM-12+006999999V0209991C00001000151CN0000501N9-01111-01221102831ADDAY141999GF109991091999000251999999MD1210081+9999MW1491
0057401770999991957062806004+32100+034783FM-12+001199999V0202001N00361012001CN0150001N9+02611+02221100661ADDAY121999GF105991051081008001001001MD1210091+9999MW1031
0058949740999991957072714004-42833+147467FM-12+001599999V0203401N002119999999N0450001N9+00171+00171999999ADDAY101999GF100991001001999999999999MA1999999102051MW1001
038899999913897195704252200E+36117-086683SAO  +0177BNA  V02022559005250365849N024000599+02785+01505102005ADDAA101000095GA1999+016764084GA2999+036584034GA3999+999999999GA4999+999999999GD13005+9999999GD20055+9999999GD30005+9999999GD40005+9999999GF105045999999999999999999MA1999999099835EQDN01 00000JPWTH 1QNNE11 1 00400E11 1 00006E11 1 00000E11 1 00000G11 1 00120H11 1 11055H11 1 23120H11 1 00999H11 1 00999K11 1 00059L11 1 01500M11 1 29480N11 1 00000Q11 1 10200S11 1 00082V11 1 00605W11 1 66010
0045638200999991957121905004-04033+039617FM-12+005599999V0203601N00261220001CN0300001N9+02611+02391999999ADDGA1011+006009089GF101991011021008001031001
0043433710999991957060718004+08483+076950FM-12+006499999V0200901N00101045001CN0010001N9+02391+02281100951ADDAY161999GF108991041051008001021999MW1501
0198722785231111957122012003+33500-112367SAO  +0333LUF  V02036059002652200059N0240005N9+00395+00005101845ADDAA124999999GA1001+999999999GF100005999999999999999999MA1999999097835MW1001EQDN01 00000JPWTH 1QNNG11U1 99999K11 1 00032L11 1 01500M11 1 28890N11 1 00000Q11 1 10184S11 1 00039V11 1 00000W11 1 11005
0066718760999991957071902004+52767-108250SAO  +0547CYQW V0203151N004112200019N0240001N1+01851+00961101691ADDGA1021+012009059GF102991999999999999999999MA1999999095191MW1001
0383700260275021957051415003+71300-156783SAO  +0009BRW  V02004559004652200059N0160005N1-00945-01225103695ADDGA1011+036584034GA2999+999999999GA3999+999999999GA4999+999999999GD12015+9999999GD20005+9999999GD30005+9999999GD40005+9999999GF101015999999999999999999MA1999999103665MW1001EQDN01 00000JPWTH 1QNNE11 1 00201E11 1 00000E11 1 00000E11 1 00000G11U1 99999H11 1 23120H11 1 00999H11 1 00999H11 1 00999K11 1 00010L11 1 01000M11 1 30610N11 1 00000Q11 1 10369S11 1 00015V11 1 00101W11 1 22009
0059478270999991957061307004+31567+130550FM-12+000599999V0202901N00571002701CN0400001N9+02941+01941100651ADDAY101999GA1061+002709039GF107991051021012501001011MW1031
0029985430999991957012900004+12367+123617FM-12+001199999V02099999999999999999N9999999N9+99999+99999999999ADDKA1999M+03001KA2999N+02441
0165999999938301957051201005+33867-084300SAO  +0302NCQ  V02011359001552200059N024000599+02114+01895101464ADDGF100005999999999999999999MA1999999097904EQDN01 00000JPWTH 1QNNG11U1 99999K11 1 00066L11 1 01500M11 1 28910N11 1 00000Q11 1 10146S11 1 00070V11 1 00000W11 1 34003
0071062300999991957081218004+52467+004750FM-12+000699999V0202401N00871004501CN0180001N9+01721+01501999999ADDAY111999GF105991051091004501081001KA1999M+01891MA1999999100851MW1251
0094563850999991957110406004+29467+103350FM-12+313899999V0209991C00001000151CN0000501N9+00111+00001999999ADDAY141999GF109991091999000251999999KA1999N-00391MA1999999100201MD1710231+9999ME1431609MW1451
0057345600999991957121012004+48683+044350FM-12+014599999V0202201N00821000601CN0040001N9+00111+00111100481ADDAY121999GF108991081061000751999999MD1210231+9999MW1101
0066725816999991957102002004+40183-112933SAO  +1326DPG  V0200451N003110180019N0240001N1+01351+00191100921ADDGA1061+018009059GF107991999999999999999999MA1999999086081MW1001
0070599480999991957051718004+18233+109533FM-12+001399999V0200801N00311004501CN0230001N9+02611+02391100661ADDAY141999GF107991071091004501041999KA1999M+03111MD1810161+9999MW1161
0057271130999991957071012004+59117+037933FM-12+013199999V0203601N00411007801CN0100001N9+01391+00781101181ADDAY121999GF106991061011008001001001MD1210111+9999MW1021
038899999923273195711111300E+99999+999999SAO  +999999999V02099999000050167649N024000599+01115+00945102115ADDAA101000095GA1999+016764064GA2999+999999999GA3999+999999999GA4999+999999999GD13065+9999999GD20005+9999999GD30005+9999999GD40005+9999999GF106065999999999999999999MA1999999101225EQDN01 00000JPWTH 1QNNE11 1 00407E11 1 00000E11 1 00000E11 1 00000G11 1 00055H11 1 15055H11 1 00999H11 1 00999H11 1 00999K11 1 00049L11 1 01500M11 1 29890N11 1 00000Q11 1 10211S11 1 00052V11 1 00707W11 1 00000
0091470410999991957021300004+39900+127517FM-12+003499999V0203201N00411220001CN0200001N9-01221-02111102231ADDAY101999GF100991001001999999001001KA1999N-01501MW1021EQDQ01+000042APCTENQ02+000012APC3  
028099999924138195711290400E+45250-112550SAO  +159099999V02015859004652200059N048000599-00675-00945103055ADDAA101000095GD12995+9999999GD22995+9999999GD30995+9999999GD40995+9999999GF103035999999999999999999MA1999999084695EQDN01 00000JPWTH 1QNNE11 1 00299E11 1 00299E11 1 00099E11 1 00099G11U1 99999K11 1 00015L11 1 03000M11 1 25010N11 1 00000Q11 1 10305S11 1 00020V11 1 00404W11 1 54009
038899999914768195705311400E+43117-077667SAO  +0167ROC  V02018059004152200059N016000599+02175+01395102305ADDAA101000095GA1999+999999004GA2999+999999999GA3999+999999999GA4999+999999999GD13055+9999993GD20005+9999999GD30005+9999999GD40005+9999999GF105025999999999999999999MA1999999100275EQDN01 00000JPWTH 1QNNE11 1 00306E11 1 00000E11 1 00000E11 1 00000G11U1 99999H11C1 32999H11 1 00999H11 1 00999H11 1 00999K11 1 00057L11 1 01000M11 1 29610N11 1 00000Q11 1 10230S11 1 00071V11 1 00602W11 1 55008
0057321500999991957040906004+46917+142733FM-12+003199999V0203201N01491220001CN0200001N9+00111-00611100601ADDAY121999GF104991041031012501001001MD1210281+9999MW1021
031399999924143195701141000E+47483-111350SAO  +112499999V02022559003650079249N024000599-01225-01675102885ADDAA101000095GA1999+007924074GD14085+9999999GD20995+9999999GD30995+9999999GD40995+9999999GF108085999999999999999999MA1999999089405MW1715EQDN01 04000JPWTH 1QNNE11 1 00610E11 1 00099E11 1 00099E11 1 00099G11 1 00026H11 1 16026K11 1 00002L11 1 01500M11 1 26400N11 1 04000Q11 1 10288S11 1 00010V11 1 01010W11 1 66007
0066716330999991957072710004+44750-081100SAO  +0219CYVV V0201801N002610330019N0160001N1+01631+01461101951ADDGA1061+033009039GF107991999999999999999999MA1999999099321MW1001
037872261022010195706142100C+29367-100817SAO  +0334DRT  V02011359005252200059N0240005N1+03285+02335100435ADDAA101000095GA1021+010674084GA2999+999999999GA3999+999999999GD12025+9999999GD22005+9999999GD30005+9999999GD40005+9999999GF102025999999999999999999MA1999999096685MW1001EQDN01 00000JPWTH 1QNNE11 1 00203E11 1 00200E11 1 00000E11 1 00000G11U1 99999H11 1 11035H11C1 32999H11 1 00999H11 1 00999K11 1 00074L11 1 01500M11 1 28550N11 1 00000Q11 1 10043S11 1 00091V11 1 00303W11 1 34010
0082719130999991957062706004+58750-094067SAO  +0029CYYQ V0200681N005112200019N0240001N1+00241+00131100741ADDGA1011+009009059GA2011+060009009GF102991999999999999999999MA1999999100301MW1001
031399999914768195705121200E+43117-077667SAO  +0167ROC  V02020359002650006149N003200599+01285+01285101595ADDAA101000095GA1999+000614104GD15085+9999999GD20995+9999999GD30995+9999999GD40995+9999999GF108085999999999999999999MA1999999099565MW1455EQDN01 07000JPWTH 1QNNE11 1 00710E11 1 00099E11 1 00099E11 1 00099G11 1 00002H11 1 45002K11 1 00055L11 1 00200M11 1 29400N11 1 07000Q11 1 10159S11 1 00055V11 1 01010W11 1 56005
0035489070999991957110521004+10000+105083FM-12+000399999V0209991C000019999999N0150001N9+02561+02441100901ADDGF105991999999999999999999MW1101
0271999999253421957082408005+51933-131017SAO  +0089CYCJ V02029359007252200059N024000599+01335+01175101925ADDGA1999+004574084GA2999+030484034GD19025+9999999GD29025+9999999GF103025999999999999999999MA1999999100855EQDN01 00000JPWTH 1QNNE11 1 09902E11 1 09902G11U1 99999H11 1 11015H11 1 23100K11 1 00053L11 1 01500M11 1 29780N11 1 00000Q11 1 10192S11 1 00056V11 1 00403W11 1 78014
0383702190266151957070322003+60783-161717SAO  +0005BET  V02022559002650365849N0240005N1+01445+00615101175ADDGA1999+005184084GA2061+036584044GA3999+999999999GA4999+999999999GD13005+9999999GD20065+9999999GD30005+9999999GD40005+9999999GF106065999999999999999999MA1999999101055MW1001EQDN01 00000JPWTH 1QNNE11 1 00400E11 1 00008E11 1 00000E11 1 00000G11 1 00120H11 1 11017H11 1 21120H11 1 00999H11 1 00999K11 1 00043L11 1 01500M11 1 29840N11 1 00000Q11 1 10117S11 1 00058V11 1 00808W11 1 66005
0129718650999991957110512004+51933-104567FM-12+054099999V0202001N00671220001CN0240001N9-00171-00171101771ADDAJ199999999999999AL10600091AY141999GF100991001001999999001001KA1999M+00281KA2999N-00171MD1610261+9999MW1021EQDQ01  04472SNDP  
0377722550129121957060906005+28850-096917SAO  +003299999V02015859002652200059N024000599+02505+02335100915ADDGA1999+004574084GA2999+999999999GA3999+999999999GA4999+999999999GD12015+9999999GD20005+9999999GD30005+9999999GD40005+9999999GF101015999999999999999999MA1999999100515EQDN01 00000JPWTH 1QNNE11 1 00201E11 1 00000E11 1 00000E11 1 00000G11U1 99999H11 1 11015H11 1 00999H11 1 00999H11 1 00999K11 1 00074L11 1 01500M11 1 29680N11 1 00000Q11 1 10091S11 1 00077V11 1 00101W11 1 54005
0043423390999991957110400004+26300+073017FM-12+022499999V0200201N00571220001CN0040001N9+02001+00281101641ADDAY101999GF100991001001999999001001MW1021
028099999924012195710170500E+46800-102800SAO  +079399999V02099999000052200059N024000599+00175-00115102405ADDAA101000095GD10995+9999999GD20995+9999999GD30995+9999999GD40995+9999999GF100005999999999999999999MA1999999093065EQDN01 00000JPWTH 1QNNE11 1 00099E11 1 00099E11 1 00099E11 1 00099G11U1 99999K11 1 00030L11 1 01500M11 1 27480N11 1 00000Q11 1 10240S11 1 00035V11 1 00000W11 1 00000
0399725540149491957090320003+41117-095900SAO  +0314OFF  V02027059010352200059N0240005N9+02785+01175101035ADDGA1999+012194084GA2999+999999999GA3999+999999999GA4999+999999999GD10005+9999999GD20005+9999999GD30005+9999999GD40005+9999999GF100005999999999999999999MA1999999097295MW1001EQDQ01    003SCCGA1N01 00000JPWTH 1QNNE11 1 00000E11 1 00000E11 1 00000E11 1 00000G11U1 99999H11 1 11040H11 1 00999H11 1 00999H11 1 00999K11 1 00053L11 1 01500M11 1 28730N11 1 00000Q11 1 10103S11 1 00082V11 1 00000W11 1 77020
039499999924237195701091200E+47283-121333SAO  +1206SMP  V02022559001050045749N024000599-00675-00725101525ADDAA101000095GA1999+001834154GA2999+004574064GA3999+999999999GA4999+999999999GD12025+9999999GD23045+9999999GD30005+9999999GD40005+9999999GF106065999999999999999999MA1999999087335MW1855EQDN01 05000JPWTH 1QNNE11 1 00203E11 1 00405E11 1 00000E11 1 00000G11 1 00015H11 1 17006H11 1 15015H11 1 00999H11 1 00999K11 1 00019L11 1 01500M11 1 25790N11 1 05000Q11 1 10152S11 1 00020V11 1 00808W11 1 66002
0269999999149401957010218005+43150-093333SAO  +037399999V02015859009352200059N024000599-00615-01395102685ADDGD13995+9999993GD20995+9999999GD30995+9999999GD40995+9999999GF107005999999999999999999MA1999999098175EQDN01 00000JPWTH 1QNNE11 1 00399E11 1 00099E11 1 00099E11 1 00099G11U1 99999K11 1 00007L11 1 01500M11 1 28990N11 1 00000Q11 1 10268S11 1 00021V11 1 00900W11 1 54018
0082106100999991957021513004+49950+006567SAO  +0375EDAB V0202901N004610039019N0176001N9+00331+00111098381ADDGA1051+003909059GA2081+015009059GF108991999999999999999999MA1999999093971MW1001
0057760500999991957122911004+31850-116633FM-12+001399999V0209991C00001220001CN0200001N9+01001+00831101421ADDAY101999GF100991001001999999001001MD1410001+9999MW1401
0066467430999991957101100004+23000+120217SAO  +0000RCNN V0200901N001512200019N0064001N1+02571+02131101541ADDGA1021+030009079GF102991999999999999999999MA1999999101251MW1451
0383722356139391957051115003+33517-091000SAO  +0042GLH  V02099999000050024449N0112005N1+02505+02115101495ADDGA1071+002444064GA2999+999999999GA3999+999999999GA4999+999999999GD13075+9999999GD20005+9999999GD30005+9999999GD40005+9999999GF107075999999999999999999MA1999999100985MW1001EQDN01 00000JPWTH 1QNNE11 1 00409E11 1 00000E11 1 00000E11 1 00000G11 1 00008H11 1 15008H11 1 00999H11 1 00999H11 1 00999K11 1 00070L11 1 00700M11 1 29820N11 1 00000Q11 1 10149S11 1 00077V11 1 00909W11 1 00000
0165999999147901957041809005+42150-070933SAO  +004999999V02036059002652200059N024000599+00835-00115102715ADDGF100005999999999999999999MA1999999102135EQDN01 00000JPWTH 1QNNG11U1 99999K11 1 00030L11 1 01500M11 1 30160N11 1 00000Q11 1 10271S11 1 00047V11 1 00000W11 1 11005
034099999923230195710231700E+37733-122200SAO  +000599999V02013559007250152449N014400599+01505+01225102275ADDAA101004195GA1999+009144064GA2999+015244054GD12025+9999999GD24085+9999999GD30995+9999999GD40995+9999999GF108085999999999999999999MA1999999102245MW1615EQDN01 02000JPWTH 1QNNE11 1 00203E11 1 00610E11 1 00099E11 1 00099G11 1 00050H11 1 15030H11 1 22050K11 1 00054L11 1 00900M11 1 30190N11 1 02000Q11 1 10227S11 1 00059V11 1 01010W11 1 44014
038899999923225195707060300E+39283-120700SAO  +1609BLU  V02022559004152200059N040000599+02115+00615101325ADDAA101000095GA1999+999999004GA2999+999999999GA3999+999999999GA4999+999999999GD13065+9999993GD20005+9999999GD30005+9999999GD40005+9999999GF106025999999999999999999MA1999999084255EQDN01 00000JPWTH 1QNNE11 1 00307E11 1 00000E11 1 00000E11 1 00000G11U1 99999H11C1 32999H11 1 00999H11 1 00999H11 1 00999K11 1 00043L11 1 02500M11 1 24880N11 1 00000Q11 1 10132S11 1 00070V11 1 00702W11 1 66008
0171724361138031957072405003+39267-085900SAO  +0199BAK  V02004559003652200059N0112005N1+01675+01335101835ADDGF100005999999999999999999MA1999999099425MW1001EQDN01 00000JPWTH 1QNNG11U1 99999K11 1 00056L11 1 00700M11 1 29360N11 1 00000Q11 1 10183S11 1 00062V11 1 00000W11 1 22007
034672306013722195702031000C+35867-078783SAO  +0132RDU  V02004559003150018349N0048005N1+00395+00395102445ADDAA101000095GA1021+000914134GA2081+001834074GD12025+9999999GD24085+9999999GD30995+9999999GD40995+9999999GF108085999999999999999999MA1999999100785MW1455MW2615EQDN01 02070JPWTH 1QNNE11 1 00203E11 1 00610E11 1 00099E11 1 00099G11 1 00006H11 1 13003H11 1 16006K11 1 00039L11 1 00300M11 1 29760N11 1 02070Q11 1 10244S11 1 00039V11 1 01010W11 1 22006
0057351920999991957110506004+51533+073650FM-12+999999999V0202701N00511007801CN0200001N9+00611+00281102291ADDAY121999GF108991081051008001999999MD1710041+9999MW1021
028099999924012195706010000E+46800-102800SAO  +079399999V02033859008852200059N024000599+01945-00065102475ADDAA101000095GD10995+9999999GD20995+9999999GD30995+9999999GD40995+9999999GF100005999999999999999999MA1999999093265EQDN01 00000JPWTH 1QNNE11 1 00099E11 1 00099E11 1 00099E11 1 00099G11U1 99999K11 1 00031L11 1 01500M11 1 27540N11 1 00000Q11 1 10247S11 1 00067V11 1 00000W11 1 18017
007494832099999195709170500N-38400+142480AUST +0022     V0203155N002659999999N999999999+01285+00705999999ADDAY154999GA1085+003905085GF108995084085003905999999MA1999999101155MW1055
0082085090999991957061409004+38750-027083SAO  +0058LPLA V0202901N006212200019N0240001N9+01741+01301101971ADDGA1031+006909089GA2011+008109059GF102991999999999999999999MA1999999101391MW1001
0089306570999991957032112004+53217+112767FM-12+999999999V0203601N00211220001CN0200001N9-00221-01281103021ADDAY121999GF107991999001999999011001KA1999M+00111MD1210081+9999MW1021EQDQ01+000002SCOTLC
0085561780999991957011418004+31000+102367FM-12+246699999V0201401N00311220001CN0400001N9-00111-01221999999ADDAY111999GF101991001001999999001021KA1999M+01221MA1999999096031MD1310031+9999MW1031
0057126950999991957101412004+49800+022767FM-12+021999999V0202501N00311220001CN0100001N9+01781+01001102381ADDAY101999GF103991031021008001001001MD1710101+9999MW1031
0066601560999991957112223004+33367-007583SAO  +0200GMMN V0200901N002112200019N0128001N9+01131+00851102111ADDGA1001+999999999GF100991999999999999999999MA1999999099661MW1001
0057596580999991957082921004+21033+110467FM-12+001099999V0209991C00001220001CN9999999N9+02611+02391100621ADDAY101999GF102991021041008001001001MD1610071+9999MW1031
0269999999939971957010109005+38867-098817SAO  +0568RSL  V02004559004652200059N024000599-00394-00785102614ADDGD10995+9999999GD20995+9999999GD30995+9999999GD40995+9999999GF100005999999999999999999MA1999999095804EQDN01 00000JPWTH 1QNNE11 1 00099E11 1 00099E11 1 00099E11 1 00099G11U1 99999K11 1 00018L11 1 01500M11 1 28290N11 1 00000Q11 1 10261S11 1 00025V11 1 00000W11 1 22009
0098788071999991957082019004+08967-079550SAO  +0012MBLB V0201131N003110069019N0192001N1+03241+02521100711ADDGA1051+006909089GA2021+045009049GA3081+220009029GF108991999999999999999999MA1999999100581MW1001
007772251012924195702230000D+27767-097500SAO  +0013CRP  V0201131N001510114019N0096001N1+01911+01741101881ADDAA101000095GA1081+011409059GF108991999999999999999999MA1999999101731MW1611
0029986370999991957021600004+10700+122567FM-12+001499999V02099999999999999999N9999999N9+99999+99999999999ADDKA1999M+02781KA2999N+02331
0082722615220011957061516004+29367-100783SAO  +032999999V0201401N008710039019N0128001N9+02631+01851100831ADDGA1061+003909059GA2081+006909059GF108991999999999999999999MA1999999097091MW1001
0110711111999991957121612004+51633-122250FM-12+102799999V0202001N00151220001CN0450001N9-00671-00781100481ADDAJ100109199999999AL10600091AY101999GF106991061001999999051001KA1999M-00331KA2999N-00831MD1710151+9999MW1031
0062386530999991957111300004+39983+058833FM-12+014299999V0202501N00311220001CN0040001N9+00891+99999101801ADDAY101999GF101991999001999999011001MW1021EQDQ01+000002SCOTLC
0057298480999991957071206004+53467+085917FM-12+027099999V0203601N00411220001CN0500001N9+02221+01111100621ADDAY101999GF101991001001999999001011MD1710051+9999MW1021
0377999999938361957062906005+31250-081467SAO  +0009NEA  V02022559005252200059N012800599+02614+02335101234ADDGA1999+999999004GA2999+999999999GA3999+999999999GA4999+999999999GD13065+9999999GD20005+9999999GD30005+9999999GD40005+9999999GF106055999999999999999999MA1999999101124EQDN01 00000JPWTH 1QNNE11 1 00408E11 1 00000E11 1 00000E11 1 00000G11C1 99999H11C1 32999H11 1 00999H11 1 00999H11 1 00999K11 1 00074L11 1 00800M11 1 29860N11 1 00000Q11 1 10123S11 1 00079V11 1 00806W11 1 66010
0066725300948461957022801004+41983-087900SAO  +0186ORD  V0200201N004612200019N0240001N9-00201-00701102031ADDGA1001+999999999GF100991999999999999999999MA1999999099531MW1001
0061636300999991957061004004+02750+032333FM-12+110599999V0202001N00101045001CN0550001N9+02001+99999999999ADDGA1011+007509059GA2021+084009029GF107991011051008001041071
007772405013743195704011800D+38850-077033SAO  +0020DCA  V0201131N001510150019N0192001N1+00911+00521102271ADDAA101000095GA1081+015009059GF108991999999999999999999MA1999999102171MW1001
0057125950999991957082312004+50717+023250FM-12+021399999V0202701N00411220001CN0100001N9+01781+01001101261ADDAY111999GF103991031021004501001001MD1110041+9999MW1021
0377999999938411957050222005+99999+999999SAO  +999999999V02018059005750061049N024000599+02334+01945100414ADDGA1999+006104084GA2999+999999004GA3999+999999999GA4999+999999999GD13055+9999999GD23025+9999999GD30005+9999999GD40005+9999999GF106065999999999999999999MA1999999099804EQDN01 00000JPWTH 1QNNE11 1 00406E11 1 00402E11 1 00000E11 1 00000G11 1 00020H11 1 11020H11C1 32999H11 1 00999H11 1 00999K11 1 00067L11 1 01500M11 1 29470N11 1 00000Q11 1 10041S11 1 00074V11 1 00808W11 1 55011
0377999999147771957051223005+41333-075733SAO  +0283AVP  V02022559003652200059N017600599+02335+01505101465ADDGA1999+009144084GA2999+999999004GA3999+999999999GA4999+999999999GD12015+9999999GD21015+9999993GD30005+9999999GD40005+9999999GF102015999999999999999999MA1999999098045EQDN01 00000JPWTH 1QNNE11 1 00201E11 1 00101E11 1 00000E11 1 00000G11U1 99999H11 1 11030H11C1 32999H11 1 00999H11 1 00999K11 1 00059L11 1 01100M11 1 28950N11 1 00000Q11 1 10146S11 1 00074V11 1 00201W11 1 66007
0165999999938361957112005005+31250-081467SAO  +0009NEA  V02029359003652200059N016000599+01504+01115101324ADDGF100005999999999999999999MA1999999101224EQDN01 00000JPWTH 1QNNG11U1 99999K11 1 00052L11 1 01000M11 1 29890N11 1 00000Q11 1 10132S11 1 00059V11 1 00000W11 1 78007
0082718560999991957120910004+50633-097050SAO  +0221CYGM V0202031N006710024019N0240001N1-00421-00481100291ADDGA1051+002409059GA2031+024009039GF108991999999999999999999MA1999999097531MW1001
0076315730999991957081206004+50967+140667FM-12+999999999V0200901N00721220001CN0200001N9+01501+01001102131ADDAY111999GF102991999001999999031001MD1710171+9999MW1031EQDQ01+000002SCOTLC
0081531920999991957111815004+43683+114317FM-12+999999999V0203601N00211220001CN9999999N9-01721-02721104271ADDAY101999GF100991001001999999001001MA1999999100301MD1210111+9999ME1315809MW1021
0383725755241011957090608003+41117-111967SAO  +1459HIF  V02004559006252200059N0320005N9+02065+00725101915ADDGA1021+220009024GA2999+999999999GA3999+999999999GA4999+999999999GD11025+9999993GD20005+9999999GD30005+9999999GD40005+9999999GF102015999999999999999999MA1999999085955MW1001EQDN01 00000JPWTH 1QNNE11 1 00103E11 1 00000E11 1 00000E11 1 00000G11U1 99999H11C1 37999H11 1 00999H11 1 00999H11 1 00999K11 1 00045L11 1 02000M11 1 25380N11 1 00000Q11 1 10191S11 1 00069V11 1 00301W11 1 22012
0057362130999991957122412004+50900+084750FM-12+999999999V0200901N00101220001CN0200001N9-01001-02001999999ADDAY131999GF103991031021012501001001MD1210061+9999MW1011
0057599480999991957070621004+18233+109533FM-12+001399999V0200901N00211004501CN0180001N9+02721+02501100751ADDAY111999GF107991071011004501999999MD1510031+9999MW1031
0377999999128411957111311005+28550-081333SAO  +003799999V02004559002652200059N019200599+01725+01615102275ADDGA1999+030484034GA2999+999999999GA3999+999999999GA4999+999999999GD12015+9999999GD20005+9999999GD30005+9999999GD40005+9999999GF101015999999999999999999MA1999999101835EQDN01 00000JPWTH 1QNNE11 1 00201E11 1 00000E11 1 00000E11 1 00000G11U1 99999H11 1 23100H11 1 00999H11 1 00999H11 1 00999K11 1 00061L11 1 01200M11 1 30070N11 1 00000Q11 1 10227S11 1 00063V11 1 00101W11 1 22005
0056967450999991957091712004-06183+106833FM-12+000899999V0200401N001519999999N0090001N9+02721+02281101031ADDAY121999GF107991021001999999011081KA1999M+03501MW1011
0058683880999991957100918004+27000+030800FM-12+125099999V0201401N00151002101CN0010001N9+01221+01171999999ADDAY151999GF108991081051002501999999MA1999999088471MW1501
0377999999127151957010817005+22367-073033SAO  +002199999V02002359005252200059N024000599+02505+01565101865ADDGA1999+007324084GA2999+030484034GA3999+999999999GA4999+999999999GD12025+9999999GD22015+9999999GD30005+9999999GD40005+9999999GF103035999999999999999999MA1999999101795EQDN01 00000JPWTH 1QNNE11 1 00203E11 1 00201E11 1 00000E11 1 00000G11U1 99999H11 1 11024H11 1 23100H11 1 00999H11 1 00999K11 1 00060L11 1 01500M11 1 30060N11 1 00000Q11 1 10186S11 1 00077V11 1 00404W11 1 12010
0070203880999991957121918004+76250+094800FM-12+999999999V0202201N00721220001CN0100001N9-02781-03111999999ADDAY131999GF100991001001999999001001KA1999M-02781MD1210051+9999MW1021
0383724296138411957121214003+39433-083800SAO  +0321ILN  V02024859006252200059N0112005N1-01445-01895102295ADDGA1021+004274074GA2999+999999999GA3999+999999999GA4999+999999999GD12025+9999999GD20005+9999999GD30005+9999999GD40005+9999999GF102025999999999999999999MA1999999098145MW1001EQDN01 00000JPWTH 1QNNE11 1 00203E11 1 00000E11 1 00000E11 1 00000G11U1 99999H11 1 16014H11 1 00999H11 1 00999H11 1 00999K11 1-00002L11 1 00700M11 1 28980N11 1 00000Q11 1 10229S11 1 00006V11 1 00303W11 1 76012
0377999999350491957052210005+52317+000917SAO  +006199999V02002359003150106749N017600599+01065+00835102405ADDGA1999+010674084GA2999+999999999GA3999+999999999GA4999+999999999GD13065+9999999GD20005+9999999GD30005+9999999GD40005+9999999GF106065999999999999999999MA1999999101635EQDN01 00000JPWTH 1QNNE11 1 00407E11 1 00000E11 1 00000E11 1 00000G11 1 00035H11 1 11035H11 1 00999H11 1 00999H11 1 00999K11 1 00047L11 1 01100M11 1 30010N11 1 00000Q11 1 10240S11 1 00051V11 1 00707W11 1 12006
0072106350999991957011100004+50217+008450FM-12+079999999V0203101N01031000151CN0000001N9-00281-00281999999ADDAY141061GF109991091999000251999999MA1999999095061MD1110091+9999MW1451
0329999999931141957032723005+33700-117833SAO  +001999999V02020359001052200059N004800599+02284+01005101644ADDGA1999+999999104GA2999+999999024GD14025+9999999GD20065+9999999GD30995+9999999GD40995+9999999GF108085999999999999999999MA1999999101464MW1055EQDN01 08100JPWTH 1QNNE11 1 00603E11 1 00007E11 1 00099E11 1 00099G11C1 99999H11 1 98999H11C1 37999K11 1 00050L11 1 00300M11 1 29960N11 1 08100Q11 1 10164S11 1 00073V11 1 01010W11 1 56002
0066036880999991957041002004+51967+000500SAO  +0101EGVT V0200451N003610048019N0096001N1+00581+00241101561ADDGA1081+004809059GF108991999999999999999999MA1999999100271MW1051
0377999999147771957122212005+41333-075733SAO  +0283AVP  V02033859005252200059N024000599+00225-00395102815ADDGA1999+012194064GA2999+999999999GA3999+999999999GA4999+999999999GD10005+9999999GD20005+9999999GD30005+9999999GD40005+9999999GF100005999999999999999999MA1999999099265EQDN01 00000JPWTH 1QNNE11 1 00000E11 1 00000E11 1 00000E11 1 00000G11U1 99999H11 1 15040H11 1 00999H11 1 00999H11 1 00999K11 1 00025L11 1 01500M11 1 29310N11 1 00000Q11 1 10281S11 1 00036V11 1 00000W11 1 18010
0057540270999991957071212004+44000+119200FM-12+999999999V0203401N00211220001CN0400001N9+02221+01111099621ADDAY101061GF101991011041012501001011MD1210051+9999MW1011
0302999999340511957112900005+48767+005983SAO  +0288LFSL V02099999000050070149N004800599+00445+00395102705ADDGA1999+007014064GD14085+9999999GD20995+9999999GD30995+9999999GD40995+9999999GF108085999999999999999999MA1999999099155MW1445EQDN01 07200JPWTH 1QNNE11 1 00610E11 1 00099E11 1 00099E11 1 00099G11 1 00023H11 1 15023K11 1 00039L11 1 00300M11 1 29280N11 1 07200Q11 1 10270S11 1 00040V11 1 01010W11 1 00000
0057234450999991957030612004+65600+072733FM-12+999999999V0200401N00101220001CN0200001N9-02891-03391103661ADDAY101999GF100991001001999999001001MD1710031+9999MW1021
0057541350999991957121615004+43667+122250FM-12+018499999V0203601N00411220001CN0180001N9-00781-01001101951ADDAY171031GF108991001001999999021999MD1110051+9999MW1701
0269999999265141957092913005+61967-151200SAO  +004799999V02029359002150106749N024000599+00005-00065100205ADDGD14995+9999999GD20995+9999999GD30995+9999999GD40995+9999999GF108085999999999999999999MA1999999099635EQDN01 00000JPWTH 1QNNE11 1 00699E11 1 00099E11 1 00099E11 1 00099G11 1 00035K11 1 00031L11 1 01500M11 1 29420N11 1 00000Q11 1 10020S11 1 00032V11 1 01010W11 1 78004
0067431490999991957072603004+17717+083267FM-12+000399999V0203201N00101220001CN0100001N9+02781+02391100771ADDAA124005091AY111999GF104991021011008001031001KA1999N+02501MW1011
0066036880999991957011823004+51967+000500SAO  +0101EGVT V0200231N003610060019N0080001N1+00351+00021103591ADDGA1081+006009059GF108991999999999999999999MA1999999102271MW1051
0269999999264351957082402005+99999+999999SAO  +999999999V02099999000050137249N048000599+01895+00835102165ADDGD14995+9999999GD20995+9999999GD30995+9999999GD40995+9999999GF108075999999999999999999MA1999999100785EQDN01 00000JPWTH 1QNNE11 1 00699E11 1 00099E11 1 00099E11 1 00099G11 1 00045K11 1 00047L11 1 03000M11 1 29760N11 1 00000Q11 1 10216S11 1 00066V11 1 01009W11 1 00000
017699999923155195709101600E+35417-119050SAO  +015199999V02031559002652200059N032000599+02675+00835101085ADDAA101000095GF100005999999999999999999MA1999999099365EQDN01 00000JPWTH 1QNNG11U1 99999K11 1 00047L11 1 02000M11 1 29340N11 1 00000Q11 1 10108S11 1 00080V11 1 00000W11 1 88005
0154999999146581957112206005+41017-069500SAO  +002599999V02022559005252200059N019200599+01065+99999102485ADDGF100005999999999999999999MA1999999102515EQDN01 00000JPWTH 1QNNG11U1 99999L11 1 01200M11 1 30270N11 1 00000Q11 1 10248S11 1 00051V11 1 00000W11 1 66010
0057483780999991957091709004+16833+100267FM-12+005099999V0209991C000019999999N0080001N9+03001+02501100641ADDAY151999GF107991041051008001071999MD1999999+0011MW1011
0066747750138461957050306004+30067-085583SAO  +0008PAM  V0202501N004112200019N0112001N9+02351+02131100571ADDGA1031+004509089GF102991999999999999999999MA1999999100471MW1001
017699999993817195702200700E+38050-087533SAO  +0116EVV  V02036059005252200059N016000599-00444-00835102764ADDAA101000095GF100005999999999999999999MA1999999101294EQDN01 00000JPWTH 1QNNG11U1 99999K11 1 00017L11 1 01000M11 1 29910N11 1 00000Q11 1 10276S11 1 00024V11 1 00000W11 1 11010
0275727935242341957071922003+47533-122300SAO  +0009BIF  V02036059005252200059N0240005N1+02675+01115101465ADDGD10995+9999999GD20995+9999999GD30995+9999999GD40995+9999999GF100005999999999999999999MA1999999101355MW1001EQDN01 00000JPWTH 1QNNE11 1 00099E11 1 00099E11 1 00099E11 1 00099G11U1 99999K11 1 00052L11 1 01500M11 1 29930N11 1 00000Q11 1 10146S11 1 00080V11 1 00000W11 1 11010
0098108690999991957091209004+48317+011950SAO  +0467EDSE V0202701N007710090019N0240001N1+01301+00691100751ADDGA1021+003609079GA2051+009009059GA3061+018009059GF107991999999999999999999MA1999999095431MW1001
0243999999242841957070415005+43417-124250SAO  +000999999V02099999000052200059N024000599+01335+01175102175ADDGD10995+9999999GD20995+9999999GD30995+9999999GF100005999999999999999999MA1999999102075EQDN01 00000JPWTH 1QNNE11 1 00099E11 1 00099E11 1 00099G11U1 99999K11 1 00053L11 1 01500M11 1 30140N11 1 00000Q11 1 10217S11 1 00056V11 1 00000W11 1 00000
0011476760999991957121909004+34367+139250FM-12+001099999V0202701N017519999999N9999999N9+01171+99999999999ADDAY101999
0383910660227011957030221003+28200-177383SAO  +0007PMDY V02027059010350091449N0128005N1+01835+01675101135ADDGA1031+009144084GA2011+030009039GA3999+999999999GA4999+999999999GD13055+9999999GD20005+9999999GD30005+9999999GD40005+9999999GF105055999999999999999999MA1999999101055MW1001EQDN01 00000JPWTH 1QNNE11 1 00406E11 1 00000E11 1 00000E11 1 00000G11 1 00030H11 1 11030H11 1 00999H11 1 00999H11 1 00999K11 1 00062L11 1 00800M11 1 29840N11 1 00000Q11 1 10113S11 1 00065V11 1 00606W11 1 77020
0058944760999991957052907004-27550+035450FM-12+011699999V0209999C000019999999N0450001N9+01611-00611999999ADDAY101999GF105991001001999999999061MA1999999100411MW1001
019872658014922195709201000C+44883-093217SAO  +0254MSP  V02004559003152200059N0240005N9+00615+00505101735ADDAA101000095GA1001+999999999GF100005999999999999999999MA1999999098615MW1001EQDN01 00000JPWTH 1QNNG11U1 99999K11 1 00041L11 1 01500M11 1 29120N11 1 00000Q11 1 10173S11 1 00043V11 1 00000W11 1 22006
0057233310999991957080418004+66950+065467FM-12+089099999V0200401N00981220001CN0500001N9+00781+00001101281ADDAY111999GF105991001001999999001011MD1810171+9999MW1031
0377999999230171957102910005+31400-100400SAO  +0573GOF  V02018059005252200059N024000599+00945+00225102255ADDGA1999+999999024GA2999+999999999GA3999+999999999GA4999+999999999GD13065+9999999GD20005+9999999GD30005+9999999GD40005+9999999GF106065999999999999999999MA1999999095635EQDN01 00000JPWTH 1QNNE11 1 00407E11 1 00000E11 1 00000E11 1 00000G11C1 99999H11C1 37999H11 1 00999H11 1 00999H11 1 00999K11 1 00036L11 1 01500M11 1 28240N11 1 00000Q11 1 10225S11 1 00049V11 1 00707W11 1 55010
0057582510999991957100112004+32850+120150FM-12+000599999V0202001N00311220001CN0160001N9+01611+01001101711ADDAY101999GF100991001001999999001001MD1110131+9999MW1021
0082467460999991957071505004+23450+120383SAO  +0000RCKU V0202701N002610210019N0240001N1+03181+02681100171ADDGA1041+009009049GA2071+021009009GF107991999999999999999999MA1999999099901MW1001
0066722686230081957010410004+34383-103317SAO  +1309CVS  V0202301N006710015019N0160001N9+00461+00411100831ADDGA1061+001509059GF107991999999999999999999MA1999999086291MW1001
0057339340999991957110500004+45717+034400FM-12+999999999V0200401N00101220001CN0040001N9+00721+00721102131ADDAY121999GF100991001001999999001001MD1710051+9999MW1101
0066703050999991957122620004+58667-162167SAO  +0164PAEH V0203601N009312200019N0032001N9-02591-02871100841ADDGA1001+999999999GF100991999999999999999999MA1999999098781MW1381
0102719000999991957110918004+55450-060233FM-12+001199999V0201401N01181220001CN0350001N9+00061-00111100231ADDAY171999GF107991071001017501021001KA1999M+00061KA2999N-01171MD1710652+9999MW1021EQDQ01+000652APC3  
0383724565139201957053107003+38950-095667SAO  +0337FOE  V02099999000052200059N0240005N9+01835+01675101455ADDGA1041+024384044GA2999+999999999GA3999+999999999GA4999+999999999GD11045+9999993GD20005+9999999GD30005+9999999GD40005+9999999GF104025999999999999999999MA1999999097605MW1001EQDN01 00000JPWTH 1QNNE11 1 00105E11 1 00000E11 1 00000E11 1 00000G11U1 99999H11 1 21080H11 1 00999H11 1 00999H11 1 00999K11 1 00062L11 1 01500M11 1 28820N11 1 00000Q11 1 10145S11 1 00065V11 1 00502W11 1 00000
0043298160999991957052806004+53617+079550FM-12+013899999V0200401N00511220001CN0100001N9+01501+99999102871ADDAY111999GF102991001001999999001011MW1021
0082483270999991957012008004+18283+098983SAO  +0314VTCC V0209991C000012200019N0048001N1+03021+01241100701ADDGA1011+012009089GA2021+072009009GF102991999999999999999999MA1999999097221MW1051
038899999923152195705121100E+34200-118367SAO  +0221BUR  V02011359000552200059N019200599+01175+01065101665ADDAA101000095GA1999+010674064GA2999+999999999GA3999+999999999GA4999+999999999GD12035+9999999GD20005+9999999GD30005+9999999GD40005+9999999GF103035999999999999999999MA1999999099025EQDN01 00000JPWTH 1QNNE11 1 00204E11 1 00000E11 1 00000E11 1 00000G11U1 99999H11 1 15035H11 1 00999H11 1 00999H11 1 00999K11 1 00051L11 1 01200M11 1 29240N11 1 00000Q11 1 10166S11 1 00053V11 1 00404W11 1 34001
038899999924227195704131600E+46967-122900SAO  +006699999V02020359005252200059N088000599+01065+00565101665ADDAA101000095GA1999+006714154GA2999+015244064GA3999+999999024GA4999+999999999GD12015+9999999GD22025+9999999GD33045+9999993GD40005+9999999GF106025999999999999999999MA1999999100915EQDN01 00000JPWTH 1QNNE11 1 00201E11 1 00202E11 1 00305E11 1 00000G11U1 99999H11 1 17022H11 1 15050H11C1 37999H11 1 00999K11 1 00042L11 1 05500M11 1 29800N11 1 00000Q11 1 10166S11 1 00051V11 1 00803W11 1 56010
0383999999253391957112701005+59517-139667SAO  +0009YAK  V02027059003652200059N019200599+00335-00065099465ADDGA1999+002444154GA2999+005184154GA3999+012194084GA4999+021344064GD12025+9999999GD23045+9999999GD33025+9999999GD44015+9999999GF108085999999999999999999MA1999999099365MW1805EQDN01 02300JPWTH 1QNNE11 1 00202E11 1 00405E11 1 00402E11 1 00601G11C1 99999H11 1 17008H11 1 17017H11 1 11040H11 1 15070K11 1 00031L11 1 01200M11 1 29340N11 1 02300Q11 1 09946S11 1 00038V11 1 01010W11 1 77007
0377999999128421957092906005+27967-082533SAO  +001099999V02029359002152200059N019200599+02335+02175101385ADDGA1999+013724064GA2999+042674034GA3999+999999004GA4999+999999999GD12015+9999999GD22025+9999999GD33035+9999999GD40005+9999999GF106055999999999999999999MA1999999101355EQDN01 00000JPWTH 1QNNE11 1 00201E11 1 00203E11 1 00404E11 1 00000G11C1 99999H11 1 15045H11 1 23140H11C1 32999H11 1 00999K11 1 00071L11 1 01200M11 1 29930N11 1 00000Q11 1 10138S11 1 00074V11 1 00706W11 1 78004
0302999999137741957052703005+36250-076133SAO  +000799999V02022559002650243849N011200599+02225+02225101325ADDGA1999+024384034GD14085+9999999GD20995+9999999GD30995+9999999GD40995+9999999GF108085999999999999999999MA1999999101255MW1805EQDN01 02300JPWTH 1QNNE11 1 00610E11 1 00099E11 1 00099E11 1 00099G11 1 00080H11 1 23080K11 1 00072L11 1 00700M11 1 29900N11 1 02300Q11 1 10132S11 1 00072V11 1 01010W11 1 66005
0050749022999991957082019004+40183-074067SAO  +0026BLM  V0202251N001012200019N0192001N1+02521+01521101451ADDGF100991999999999999999999MA1999999101151MW1001
0082785140999991957011722004+18500-067133SAO  +0075TJBQ V0200901N009312200019N0240001N1+02571+02021101741ADDGA1011+006909089GA2011+024009039GF102991999999999999999999MA1999999100851MW1001
0269999999265141957080519005+61967-151200SAO  +004799999V02099999000050085349N019200599+01445+01175100075ADDGD12995+9999999GD23995+9999999GD34995+9999999GD40995+9999999GF108085999999999999999999MA1999999099495EQDN01 00000JPWTH 1QNNE11 1 00299E11 1 00499E11 1 00699E11 1 00099G11 1 00028K11 1 00053L11 1 01200M11 1 29380N11 1 00000Q11 1 10007S11 1 00058V11 1 01010W11 1 00000
038899999923051195708111800E+36450-103150SAO  +1515CAO  V02018059005752200059N024000599+02675+02335101335ADDAA101000095GA1999+999999004GA2999+999999999GA3999+999999999GA4999+999999999GD10005+9999999GD20005+9999999GD30005+9999999GD40005+9999999GF100005999999999999999999MA1999999085035EQDN01 00000JPWTH 1QNNE11 1 00000E11 1 00000E11 1 00000E11 1 00000G11U1 99999H11C1 32999H11 1 00999H11 1 00999H11 1 00999K11 1 00074L11 1 01500M11 1 25110N11 1 00000Q11 1 10133S11 1 00080V11 1 00000W11 1 55011
0095209640999991957110406004+70583+072617FM-12+999999999V0200901N00821220001CN0040001N9-02221-02391100531ADDAY131999GF104991021051008001001091HL10009IA1209IA2999-02229KA1999N-02221MD1310041+9999MW1281
0066106370999991957022821004+50033+008583SAO  +0110EDDF V0200701N003612200019N0176001N9+00001-00281103821ADDGA1001+999999999GF100991999999999999999999MA1999999102371MW1001
0165999999264511957030523005+61167-149983SAO  +0032ANC  V02024859002152200059N160000599+00225-00565100585ADDGF100005999999999999999999MA1999999100075EQDN01 00000JPWTH 1QNNG11U1 99999K11 1 00022L11G1 10000M11 1 29550N11 1 00000Q11 1 10058S11 1 00036V11 1 00000W11 1 76004
018272306013722195703211300C+35867-078783SAO  +0132RDU  V02031559003652200059N0192005N1+00445-00175101695ADDAA101000095GF100005999999999999999999MA1999999100075MW1001EQDN01 00000JPWTH 1QNNG11U1 99999K11 1 00029L11 1 01200M11 1 29550N11 1 00000Q11 1 10169S11 1 00040V11 1 00000W11 1 88007
0329999999138831957032414005+33983-081000SAO  +006999999V02031559002150182949N009600599+01175+01065101255ADDGA1999+018294064GA2999+030484044GD13065+9999999GD24025+9999999GD30995+9999999GD40995+9999999GF108085999999999999999999MA1999999100445MW1055EQDN01 08100JPWTH 1QNNE11 1 00408E11 1 00602E11 1 00099E11 1 00099G11 1 00060H11 1 15060H11 1 21100K11 1 00051L11 1 00600M11 1 29660N11 1 08100Q11 1 10125S11 1 00053V11 1 01010W11 1 88004
