0377999999129261958010310005+27683-097283SAO  +0006NGP  V02004559009352200059N024000599+01225+00895102315ADDGA1999+999999004GA2999+999999999GA3999+999999999GA4999+999999999GD12035+9999999GD20005+9999999GD30005+9999999GD40005+9999999GF103035999999999999999999MA1999999102245EQDN01 00000JPWTH 1QNNE11 1 00204E11 1 00000E11 1 00000E11 1 00000G11U1 99999H11C1 32999H11 1 00999H11 1 00999H11 1 00999K11 1 00048L11 1 01500M11 1 30190N11 1 00000Q11 1 10231S11 1 00054V11 1 00404W11 1 22018
007694968099999195803072300N-41550+147220AUST +0178YMLT V0201585N008259999999N999999999+01395+00905999999ADDGA1035+007505075GA2045+018005075GF107995034065007505999999MA1999999099545
0057935260999991958041412004-40533+173000FM-12+000399999V0200901N00671220001CN0500001N9+01281+00941102191ADDAY101999GF100991001001999999001001MD1210151+9999MW1021
0269999999242191958092601005+45617-121150SAO  +0072DLS  V02029359009352200059N048000599+02005+00835102645ADDGD13995+9999993GD20995+9999999GD30995+9999999GD40995+9999999GF106025999999999999999999MA1999999101865EQDN01 00000JPWTH 1QNNE11 1 00399E11 1 00099E11 1 00099E11 1 00099G11U1 99999K11 1 00047L11 1 03000M11 1 30080N11 1 00000Q11 1 10264S11 1 00068V11 1 00802W11 1 78018
0377723810231141958031804003+34917-117900SAO  +0706EDW  V02022559006252200059N0240005N9+01005+00335101315ADDGA1011+010674064GA2999+999999999GA3999+999999999GA4999+999999999GD12015+9999999GD20005+9999999GD30005+9999999GD40005+9999999GF101015999999999999999999MA1999999093235EQDN01 00000JPWTH 1QNNE11 1 00201E11 1 00000E11 1 00000E11 1 00000G11U1 99999H11 1 15035H11 1 00999H11 1 00999H11 1 00999K11 1 00038L11 1 01500M11 1 27530N11 1 00000Q11 1 10131S11 1 00050V11 1 00101W11 1 66012
004672311913886195809151900A+34850-082350SAO  +0319GMU  V0200231N002610030019N0112001N1+02351+02181999999ADDAA101000095GF108991999999999999999999MW1001
037272511114751195801101400C+40217-076850SAO  +0106CXY  V02099999000052200059N0208005N9-00505-01285101735ADDAA101000095GA1999+999999999GA2999+999999999GA3999+999999999GD10005+9999999GD20005+9999999GD30005+9999999GD40005+9999999GF100005999999999999999999MA1999999100375EQDN01 00000JPWTH 1QNNE11 1 00000E11 1 00000E11 1 00000E11 1 00000G11U1 99999H11C1 32999H11 1 00999H11 1 00999H11 1 00999K11 1 00009L11 1 01300M11 1 29640N11 1 00000Q11 1 10173S11 1 00023V11 1 00000W11 1 00000
038899999923043195801152100E+33400-104533SAO  +1106RNM  V02015859006252200059N064000599+01335-00445102175ADDAA101000095GA1999+999999004GA2999+999999999GA3999+999999999GA4999+999999999GD10005+9999999GD20005+9999999GD30005+9999999GD40005+9999999GF100005999999999999999999MA1999999089605EQDN01 00000JPWTH 1QNNE11 1 00000E11 1 00000E11 1 00000E11 1 00000G11U1 99999H11C1 32999H11 1 00999H11 1 00999H11 1 00999K11 1 00024L11 1 04000M11 1 26460N11 1 00000Q11 1 10217S11 1 00056V11 1 00000W11 1 54012
0050740820999991958020506004+82500-062333SAO  +0062CYLT V0202701N003112200019N0240001N1-02981-03371103731ADDGF100991999999999999999999MA1999999102841MW1001
0083716251999991958121718004+44317-077633FM-12+013999999V0200401N00621220001CN0012001N9-01171-01281101001ADDAY161999GF108991081061002501999999KA1999M-01001KA2999N-01671MD1610081+9999MW1711
034072270023044195810281700C+31800-106400SAO  +1201ELP  V02009059005250088449N0640005N9+00945+00505101885ADDAA101000095GA1011+004574134GA2081+008844064GD12015+9999999GD24085+9999999GD30995+9999999GD40995+9999999GF108085999999999999999999MA1999999088525MW1001EQDN01 00000JPWTH 1QNNE11 1 00201E11 1 00610E11 1 00099E11 1 00099G11 1 00029H11 1 13015H11 1 15029K11 1 00041L11 1 04000M11 1 26140N11 1 00000Q11 1 10188S11 1 00049V11 1 01010W11 1 33010
036799999994830195803131800E+41600-083800SAO  +0204TOL  V02004559005250365849N009600599+00444-00175101294ADDAA101000095GA1999+007624084GA2999+036584034GA3999+999999024GD12025+9999999GD23025+9999999GD34035+9999999GD40995+9999999GF108085999999999999999999MA1999999098714MW1055EQDN01 08100JPWTH 1QNNE11 1 00203E11 1 00403E11 1 00604E11 1 00099G11 1 00120H11 1 11025H11 1 23120H11C1 37999K11 1 00029L11 1 00600M11 1 29150N11 1 08100Q11 1 10129S11 1 00040V11 1 01010W11 1 22010
0057112310999991958061612004+46650+014350FM-12+044899999V0209991C00001220001CN0500001N9+02111+00891102071ADDAY101061GF101991011021017501001011MD1710231+9999MW1021
0066702615999991958030409004+64833-147600SAO  +0139PAFB V0202301N003112200019N0240001N9-00481-00701102521ADDGA1041+014409059GF102991999999999999999999MA1999999100681MW1001
0057595010999991958021203004+22767+115367FM-12+000599999V0200401N00981220001CN0250001N9+01501-00501102841ADDAY101999GF100991001001999999001001MD1110111+9999MW1021
039472389093193195811172100C+36783-119700SAO  +0103FAT  V02018059002652200059N0480005N9+01065-00335102685ADDAA101000095GA1011+045724034GA2999+999999999GA3999+999999999GA4999+999999999GD12015+9999999GD20005+9999999GD30005+9999999GD40005+9999999GF101015999999999999999999MA1102681101465MW1001EQDN01 00000JPWTH 1QNNE11 1 00201E11 1 00000E11 1 00000E11 1 00000G11U1 99999H11 1 23150H11 1 00999H11 1 00999H11 1 00999K11 1 00026L11 1 03000M11 1 29960N11 1 00000Q11 1 10268S11 1 00051V11 1 00101W11 1 55005
031999999914935195802280100E+40967-098317SAO  +056799999V02033859016550036649N001600599-00725-00945099595ADDAA101000095GA1999+003664074GD14085+9999999GD20995+9999999GD30995+9999999GD40995+9999999GF108085999999999999999999MA1999999092855MW1385MW2775EQDN01 05684JPWTH 1QNNE11 1 00610E11 1 00099E11 1 00099E11 1 00099G11 1 00012H11 1 16012K11 1 00015L11 1 00100M11 1 27420N11 1 05684Q11 1 09959S11 1 00019V11 1 01010W11 1 18032
0377999999938301958070219005+33867-084300SAO  +0302NCQ  V02099999000050121949N019200599+03114+01725102034ADDGA1999+012194084GA2999+999999999GA3999+999999999GA4999+999999999GD13055+9999999GD20005+9999999GD30005+9999999GD40005+9999999GF105055999999999999999999MA1999999098484EQDN01 00000JPWTH 1QNNE11 1 00406E11 1 00000E11 1 00000E11 1 00000G11 1 00040H11 1 11040H11 1 00999H11 1 00999H11 1 00999K11 1 00063L11 1 01200M11 1 29080N11 1 00000Q11 1 10203S11 1 00088V11 1 00606W11 1 00000
031399999913881195801300400E+35217-080933SAO  +0225CLT  V02033859003650015249N003200599+00005-00065101465ADDAA101000095GA1999+001524064GD14085+9999999GD20995+9999999GD30995+9999999GD40995+9999999GF108085999999999999999999MA1999999098615MW1455EQDN01 07000JPWTH 1QNNE11 1 00610E11 1 00099E11 1 00099E11 1 00099G11 1 00005H11 1 15005K11 1 00031L11 1 00200M11 1 29120N11 1 07000Q11 1 10146S11 1 00032V11 1 01010W11 1 18007
0377999999147801958040516005+40017-074317SAO  +003799999V02020359005252200059N016000599+01445+00005102015ADDGA1999+009144084GA2999+999999004GA3999+999999999GA4999+999999999GD12015+9999999GD24075+9999993GD30005+9999999GD40005+9999999GF108045999999999999999999MA1999999101565EQDN01 00000JPWTH 1QNNE11 1 00201E11 1 00509E11 1 00000E11 1 00000G11U1 99999H11 1 11030H11C1 32999H11 1 00999H11 1 00999K11 1 00032L11 1 01000M11 1 29990N11 1 00000Q11 1 10201S11 1 00058V11 1 01005W11 1 56010
031372306013722195808130400C+35867-078783SAO  +0132RDU  V02018059002650304849N0160005N1+02225+02175101595ADDAA101000095GA1081+030484034GD14085+9999999GD20995+9999999GD30995+9999999GD40995+9999999GF108085999999999999999999MA1999999100005MW1001EQDN01 00000JPWTH 1QNNE11 1 00610E11 1 00099E11 1 00099E11 1 00099G11 1 00100H11 1 23100K11 1 00071L11 1 01000M11 1 29530N11 1 00000Q11 1 10159S11 1 00072V11 1 01010W11 1 55005
0066702615999991958032518004+64833-147600SAO  +0139PAFB V0200901N001512200019N1440001N9-01531-01761101681ADDGA1011+018009059GF102991999999999999999999MA1999999099831MW1001
0082718930999991958063007004+49717-124900SAO  +0023CYQQ V0209991C000010210019N0320001N1+01521+01191101391ADDGA1061+021009039GA2021+036009039GF108991999999999999999999MA1999999101121MW1001
0083719211999991958110800004+57883-101667FM-12+035199999V0201801N00621220001CN0240001N9-00171-00331100431ADDAY171999GF108991081051008001999999KA1999M-00171KA2999N-00391MD1210061+9999MW1021
0060911820225211958020109004+21333-157917SAO  +0003PHNL V0200501N010310111019N0240001N9+02071+01301102151ADDGA1061+011109059GF107991999999999999999999MA1999999102101
0080164200999991958051000004+38200+015550FM-12+005199999V0200201N00211220001CN0090001N9+01721+01221102371ADDAJ100009199999999AY101999GF100991001001999999001001IA1009MD1010051+9999MW1021
0269999999230701958041714005+37250-104333SAO  +1749TAD  V02029359006250457249N056000599+01005-00065101225ADDGD12995+9999999GD23995+9999999GD34995+9999999GD40995+9999999GF108085999999999999999999MA1999999082225EQDN01 00000JPWTH 1QNNE11 1 00299E11 1 00499E11 1 00699E11 1 00099G11 1 00150K11 1 00031L11 1 03500M11 1 24280N11 1 00000Q11 1 10122S11 1 00050V11 1 01010W11 1 78012
0377999999129281958050720005+27517-097800SAO  +001799999V02011359009852200059N016000599+02945+01725101215ADDGA1999+999999004GA2999+999999999GA3999+999999999GA4999+999999999GD12045+9999999GD20005+9999999GD30005+9999999GD40005+9999999GF104035999999999999999999MA1999999101055EQDN01 00000JPWTH 1QNNE11 1 00205E11 1 00000E11 1 00000E11 1 00000G11U1 99999H11C1 32999H11 1 00999H11 1 00999H11 1 00999K11 1 00063L11 1 01000M11 1 29840N11 1 00000Q11 1 10121S11 1 00085V11 1 00504W11 1 34019
0068574940999991958123112004+30417+114283FM-12+002399999V0203601N00411004501CN0040001N9+00111+00001102461ADDAA106004091AY161999GF108991071071004501021999MD1310231+9999MW1711
0269999999139731958031003005+30500-099767SAO  +052199999V02013559002152200059N024000599+01335+00725100685ADDGD10995+9999999GD20995+9999999GD30995+9999999GD40995+9999999GF100005999999999999999999MA1999999094655EQDN01 00000JPWTH 1QNNE11 1 00099E11 1 00099E11 1 00099E11 1 00099G11U1 99999K11 1 00045L11 1 01500M11 1 27950N11 1 00000Q11 1 10068S11 1 00056V11 1 00000W11 1 44004
0302999999931071958090915005+32867-117133SAO  +0140NKX  V02031559000550000049N000400599+01894+01785101144ADDGA1999+000004104GD15085+9999999GD20995+9999999GD30995+9999999GD40995+9999999GF108085999999999999999999MA1999999099564MW1455EQDN01 07000JPWTH 1QNNE11 1 00710E11 1 00099E11 1 00099E11 1 00099G11 1 00000H11 1 45000K11 1 00064L11 1 00025M11 1 29400N11 1 07000Q11 1 10114S11 1 00066V11 1 01010W11 1 88001
0035749105999991958121911004+40733-073600SAO  +003899999V0202481N003112200019N0080001N1-00151-00531999999ADDGF100991999999999999999999MW1051
0057020620999991958021912004+63200+014483FM-12+036699999V0203001N00211220001CN0700001N9-00721-00891099921ADDAY101999GF101991011051012501001021MD1710101+9999MW1021
0083637080999991958052413004-00100+034750FM-12+114699999V0202001N00311220001CN0450001N9+02891+01391999999ADDGA1011+010509089GF103991011011012501001081MA1999999088501MD1999999-0971ME1315009
0101108660999991958071813004+48133+011700FM-12+052799999V0200201N00311220001CN0300001N9+99999+99999999999ADDAJ199999999999999AY101011GA1021+012009089GF102991999999999999999999IA1009MW1021EQDQ01  01762SNDP  
0269999999240131958103108005+48250-101283SAO  +052699999V02022559002652200059N024000599+00335-00335101885ADDGD13995+9999993GD20995+9999999GD30995+9999999GD40995+9999999GF106025999999999999999999MA1999999095635EQDN01 00000JPWTH 1QNNE11 1 00399E11 1 00099E11 1 00099E11 1 00099G11U1 99999K11 1 00026L11 1 01500M11 1 28240N11 1 00000Q11 1 10188S11 1 00038V11 1 00802W11 1 66005
038899999924155195810030800E+45683-118850SAO  +0452PDT  V02018059002652200059N024000599+01505+00225101895ADDAA101000095GA1999+999999004GA2999+999999999GA3999+999999999GA4999+999999999GD10005+9999999GD20005+9999999GD30005+9999999GD40005+9999999GF100005999999999999999999MA1999999096585EQDN01 00000JPWTH 1QNNE11 1 00000E11 1 00000E11 1 00000E11 1 00000G11U1 99999H11C1 32999H11 1 00999H11 1 00999H11 1 00999K11 1 00036L11 1 01500M11 1 28520N11 1 00000Q11 1 10189S11 1 00059V11 1 00000W11 1 55005
0323999999948241958030116005+46250-084467SAO  +024599999V02002359003150097549N016000599+00004-00445101204ADDGA1999+005794064GA2999+009754064GD12025+9999999GD24085+9999999GD30995+9999999GD40995+9999999GF108085999999999999999999MA1999999098144EQDN01 00000JPWTH 1QNNE11 1 00202E11 1 00610E11 1 00099E11 1 00099G11 1 00032H11 1 15019H11 1 15032K11 1 00024L11 1 01000M11 1 28980N11 1 00000Q11 1 10120S11 1 00032V11 1 01010W11 1 12006
0112307670999991958120100004+52267+115700FM-12+999999999V0201601N00101220001CN0200001N9-02001-02111102281ADDAJ100009199999999AY121999GF107991001001999999001021HL10009IA1139IA2999-02009KA1999N-02001MD1710081+9999MW1031
0082726225047421958061210004+44650-073450SAO  +0075PBG  V0203601N003112200019N0480001N9+01501+01051101421ADDGA1031+009009059GA2011+220009029GF102991999999999999999999MA1999999100511MW1001
033499999924144195808291200E+46600-112000SAO  +1167HLN  V02024859003150243849N064000599+01285+00335100645ADDAA101000095GA1999+024384064GA2999+036584034GD13075+9999999GD24015+9999999GD30995+9999999GD40995+9999999GF108085999999999999999999MA1999999087505EQDN01 00000JPWTH 1QNNE11 1 00409E11 1 00601E11 1 00099E11 1 00099G11 1 00080H11 1 15080H11 1 23120K11 1 00038L11 1 04000M11 1 25840N11 1 00000Q11 1 10064S11 1 00055V11 1 01010W11 1 76006
031399999913983195802270200E+38967-092367SAO  +0237COU  V02011359006250054949N016000599+01175+01005098825ADDAA101000395GA1999+005494064GD14085+9999999GD20995+9999999GD30995+9999999GD40995+9999999GF108085999999999999999999MA1999999096045MW1805EQDN01 02300JPWTH 1QNNE11 1 00610E11 1 00099E11 1 00099E11 1 00099G11 1 00018H11 1 15018K11 1 00050L11 1 01000M11 1 28360N11 1 02300Q11 1 09882S11 1 00053V11 1 01010W11 1 34012
004594360099999195811300500N-20550+147850AUST +0187     V0200455N007259999999N999999999+02965+02605999999ADDGA1055+015005085GF105995054025015005999999
038372458613922195802162000C+38800-097633SAO  +0390SLN  V02009059003650039649N0240005N1-00785-01115102625ADDAA101000095GA1011+003354074GA2061+003964074GA3011+005184074GD12015+9999999GD23065+9999999GD34015+9999999GD40995+9999999GF108085999999999999999999MA1999999097775MW1715EQDQ01    003PRSWM1N01 04000JPWTH 1QNNE11 1 00201E11 1 00408E11 1 00601E11 1 00099G11 1 00013H11 1 16011H11 1 16013H11 1 16017K11 1 00012L11 1 01500M11 1 28870N11 1 04000Q11 1 10262S11 1 00018V11 1 01010W11 1 33007
0383040180162011958032713003+63967-022600SAO  +0050BIKF V02006859006250091449N0800005N1+00445-00115101025ADDGA1051+009144064GA2021+021344034GA3011+220009024GA4999+999999999GD13055+9999999GD23025+9999999GD33015+9999999GD40005+9999999GF107065999999999999999999MA1999999100345MW1001EQDN01 00000JPWTH 1QNNE11 1 00406E11 1 00402E11 1 00401E11 1 00000G11 1 00030H11 1 15030H11 1 23070H11C1 37999H11 1 00999K11 1 00030L11 1 05000M11 1 29630N11 1 00000Q11 1 10102S11 1 00040V11 1 00908W11 1 32012
0117722675230211958060301004+33600-102033SAO  +1012REE  V0201601N003612200019N0240001N9+03111+01331100801ADDGA1999+012009999GA2011+015009089GA3061+220009029GF107991999999999999999999MA1999999089741MW1001EQDQ01    003SCCGA1
0377999999939051958012609005+37917-097900SAO  +047999999V02033859008852200059N024000599+00114-00175100814ADDGA1999+010674064GA2999+999999999GA3999+999999999GA4999+999999999GD12025+9999999GD20005+9999999GD30005+9999999GD40005+9999999GF102025999999999999999999MA1999999095264EQDN01 00000JPWTH 1QNNE11 1 00202E11 1 00000E11 1 00000E11 1 00000G11U1 99999H11 1 15035H11 1 00999H11 1 00999H11 1 00999K11 1 00029L11 1 01500M11 1 28130N11 1 00000Q11 1 10081S11 1 00034V11 1 00202W11 1 18017
0269999999148501958041113005+44733-085583SAO  +0188TVC  V02002359004152200059N024000599+00335-00285101835ADDGD14995+9999993GD20995+9999999GD30995+9999999GD40995+9999999GF108025999999999999999999MA1999999099465EQDN01 00000JPWTH 1QNNE11 1 00599E11 1 00099E11 1 00099E11 1 00099G11U1 99999K11 1 00027L11 1 01500M11 1 29370N11 1 00000Q11 1 10183S11 1 00038V11 1 01003W11 1 12008
0329999999340531958062622005+49633+003550SAO  +0083LLXO V02011359003650021349N012800599+01615+01565098985ADDGA1999+002134074GA2999+003664074GD13055+9999999GD24065+9999999GD30995+9999999GD40995+9999999GF108085999999999999999999MA1999999098005MW1615EQDN01 02000JPWTH 1QNNE11 1 00406E11 1 00608E11 1 00099E11 1 00099G11 1 00007H11 1 16007H11 1 16012K11 1 00060L11 1 00800M11 1 28940N11 1 02000Q11 1 09898S11 1 00061V11 1 01010W11 1 34007
0377999999432401958050217005+35083+128067SAO  +0008RKPS V02099999000052200059N011200599+01225+01065101755ADDGA1999+999999024GA2999+999999999GA3999+999999999GA4999+999999999GD14085+9999993GD20005+9999999GD30005+9999999GD40005+9999999GF108045999999999999999999MA1999999101665EQDN01 00000JPWTH 1QNNE11 1 00510E11 1 00000E11 1 00000E11 1 00000G11U1 99999H11C1 37999H11 1 00999H11 1 00999H11 1 00999K11 1 00051L11 1 00700M11 1 30020N11 1 00000Q11 1 10175S11 1 00054V11 1 01005W11 1 00000
0165999999232441958110802005+37417-122050SAO  +0012NUQ  V02036059003152200059N019200599+01835+01505101685ADDGF100005999999999999999999MA1999999101565EQDN01 00000JPWTH 1QNNG11U1 99999K11 1 00059L11 1 01200M11 1 29990N11 1 00000Q11 1 10168S11 1 00065V11 1 00000W11 1 11006
0081573280999991958071218004+31267+107467FM-12+031099999V0201401N00211220001CN0150001N9+02391+02111099821ADDAA106000691AY191999GF102991021091012501001001KA1999M+03501MD1610161+9999MW1131
031372344013964195812012000C+35333-094367SAO  +0136FSM  V02022559004150152449N0320005N1+01065+00445102875ADDAA101000095GA1081+015244064GD14085+9999999GD20995+9999999GD30995+9999999GD40995+9999999GF108085999999999999999999MA1999999101155MW1001EQDN01 00000JPWTH 1QNNE11 1 00610E11 1 00099E11 1 00099E11 1 00099G11 1 00050H11 1 15050K11 1 00040L11 1 02000M11 1 29870N11 1 00000Q11 1 10287S11 1 00051V11 1 01010W11 1 66008
0094528360999991958042718004+36333+098033FM-12+340299999V0209991C00001220001CN9999999N9+00501-00501999999ADDAY141999GF108991001001999999001071KA1999M+01721MA1999999098801MD1810041+9999ME1430509MW1061
038899999913983195805181800E+38967-092367SAO  +0237COU  V02036059008252200059N024000599+02445+01175101695ADDAA101000095GA1999+010674084GA2999+999999004GA3999+999999999GA4999+999999999GD13005+9999993GD20055+9999999GD30005+9999999GD40005+9999999GF105015999999999999999999MA1999999098885EQDN01 00000JPWTH 1QNNE11 1 00300E11 1 00006E11 1 00000E11 1 00000G11U1 99999H11 1 11035H11C1 32999H11 1 00999H11 1 00999K11 1 00053L11 1 01500M11 1 29200N11 1 00000Q11 1 10169S11 1 00076V11 1 00601W11 1 11016
0066722225038551958022506001+30350-087317SAO  +0009NPA  V0209991C000012200019N0002001N1+01241+01241101431ADDGA1061+999999999GF107991999999999999999999MA1999999101321MW1451
0082702220999991958060609004+64717-156900SAO  +0041PAGA V0209991C000010090019N0112001N9+01191+01071101861ADDGA1051+009009079GA2031+012009049GF108991999999999999999999MA1999999101351MW1611
0383725510149391958040218003+40850-096750SAO  +0357LNK  V02013559002652200059N0240005N1+01615+00675100955ADDGA1011+019814034GA2031+027434034GA3041+220009024GA4999+999999999GD12015+9999999GD22035+9999999GD34045+9999993GD40005+9999999GF108045999999999999999999MA1999999096615MW1001EQDN01 00000JPWTH 1QNNE11 1 00201E11 1 00204E11 1 00505E11 1 00000G11U1 99999H11 1 23065H11 1 23090H11C1 37999H11 1 00999K11 1 00044L11 1 01500M11 1 28530N11 1 00000Q11 1 10095S11 1 00061V11 1 01005W11 1 44005
0057576620999991958081003004+28917+111550FM-12+003799999V0201101N00211090001CN0200001N9+03221+02281100941ADDAY121999GF106991011021012501001021MD1110011+9999MW1031
041072519014771195810191500C+43117-076117SAO  +0131SYR  V02022559002152200059N0240005N9+00835+00335102455ADDAA101000095GA1999+012194064GA2999+999999999GA3999+999999999GA4999+999999999GD10005+9999999GD20005+9999999GD30005+9999999GD40005+9999999GF100005999999999999999999MA1999999100915MW1001EQDQ01    003SCCGA1N01 00000JPWTH 1QNNE11 1 00000E11 1 00000E11 1 00000E11 1 00000G11U1 99999H11 1 15040H11 1 00999H11 1 00999H11 1 00999K11 1 00038L11 1 01500M11 1 29800N11 1 00000Q11 1 10245S11 1 00047V11 1 00000W11 1 66004
0066701170999991958122800004+65567-167917SAO  +0084PATC V0203601N008212200019N0112001N9-02701-03201102561ADDGA1021+006009059GF102991999999999999999999MA1999999101461MW1001
0068582510999991958080100004+32850+120150FM-12+000599999V0203201N00211004501CN0090001N9+02611+02391100591ADDAA124036091AY111999GF107991071051004501041001MD1210071+9999MW1101
0356690190139101958031018003+32433-099850SAO  +0542DYS  V02033859003650365849N0240005N9+00785+00115101485ADDGA1031+007624064GA2061+036584044GA3081+220009024GD12035+9999999GD23065+9999999GD34085+9999999GD40995+9999999GF108085999999999999999999MA1999999095095MW1001EQDN01 00000JPWTH 1QNNE11 1 00204E11 1 00407E11 1 00610E11 1 00099G11 1 00120H11 1 15025H11 1 21120H11C1 37999K11 1 00034L11 1 01500M11 1 28080N11 1 00000Q11 1 10148S11 1 00046V11 1 01010W11 1 18007
0165999999266161958050118005+66867-162633SAO  +0006OTZ  V02033859007752200059N048000599-00725-01115102685ADDGF100005999999999999999999MA1999999102645EQDN01 00000JPWTH 1QNNG11U1 99999K11 1 00012L11 1 03000M11 1 30310N11 1 00000Q11 1 10268S11 1 00019V11 1 00000W11 1 18015
039472509014739195801312000C+42367-071017SAO  +0010BOS  V02031559007750121949N0240005N9+00445-00505100195ADDAA101000095GA1051+012194064GA2999+999999999GA3999+999999999GA4999+999999999GD13055+9999999GD20005+9999999GD30005+9999999GD40005+9999999GF105055999999999999999999MA1999999100105MW1001EQDN01 00000JPWTH 1QNNE11 1 00406E11 1 00000E11 1 00000E11 1 00000G11 1 00040H11 1 15040H11 1 00999H11 1 00999H11 1 00999K11 1 00023L11 1 01500M11 1 29560N11 1 00000Q11 1 10019S11 1 00040V11 1 00606W11 1 88015
0062345790999991958012918004+48217+046733FM-12+003599999V0202201N00981220001CN0010001N9-00391+99999099441ADDAY171999GF108991999001999999021001MW1711EQDQ01+000002SCOTLC
039472231012916195810101500C+29983-090250SAO  +0001MSY  V02006859003652200059N0112005N1+02615+01945101895ADDAA101000095GA1021+033534034GA2999+999999999GA3999+999999999GA4999+999999999GD12025+9999999GD20005+9999999GD30005+9999999GD40005+9999999GF102025999999999999999999MA1999999101795MW1001EQDN01 00000JPWTH 1QNNE11 1 00203E11 1 00000E11 1 00000E11 1 00000G11U1 99999H11 1 23110H11 1 00999H11 1 00999H11 1 00999K11 1 00067L11 1 00700M11 1 30060N11 1 00000Q11 1 10189S11 1 00079V11 1 00302W11 1 32007
0302700260275021958012810003+71300-156783SAO  +0009BRW  V02031559003650039649N0080005N1-02445-02785102275ADDGA1081+003964074GD14085+9999999GD20995+9999999GD30995+9999999GD40995+9999999GF108085999999999999999999MA1999999102205MW1715EQDN01 04000JPWTH 1QNNE11 1 00610E11 1 00099E11 1 00099E11 1 00099G11 1 00013H11 1 16013K11 1-00018L11 1 00500M11 1 30180N11 1 04000Q11 1 10227S11 1-00012V11 1 01010W11 1 88007
0066726071146061958060803004+44800-068833SAO  +0059BGR  V0201801N002112200019N0240001N9+01071+00411101621ADDGA1021+220009009GF102991999999999999999999MA1999999100851MW1001
0066476430999991958021602004+35833+139417SAO  +0090RJTJ V0203601N005112200019N0480001N1+00691-00701101861ADDGA1021+015009059GF102991999999999999999999MA1999999100641MW1001
0068588340999991958071212004+26650+118167FM-12+012799999V0202701N00211036001CN0400001N9+02391+02221100421ADDAA106009091AY181999GF107991021091012501061031MD1110231+9999MW1291
0117747750138461958020319004+30067-085583SAO  +0008PAM  V0203201N005712200019N0160001N9+00581-00371102271ADDGA1091+001209999GA2999+010509999GF199999999999999999999999MA1999999102171MW1001EQDQ01    003SCOTCVQ02    003SCCGA2
0057571930999991958020521004+33750+114400FM-12+005199999V0200401N00311220001CN0060001N9+00001+00001102481ADDAY171999GF108991001001999999021999MD1810091+9999MW1711
0098483270999991958083018004+18283+098983SAO  +0314VTCC V0209991C000010084019N0000001N1+02411+02301100411ADDGA1061+008409059GA2061+036009049GA3041+069009009GF107991999999999999999999MA1999999096881MW1001
0377999999137541958011821005+34900-076917SAO  +001199999V02031559007252200059N016000599+00675-00725100985ADDGA1999+012194084GA2999+999999999GA3999+999999999GA4999+999999999GD12035+9999999GD20005+9999999GD30005+9999999GD40005+9999999GF103035999999999999999999MA1999999100885EQDN01 00000JPWTH 1QNNE11 1 00204E11 1 00000E11 1 00000E11 1 00000G11U1 99999H11 1 11040H11 1 00999H11 1 00999H11 1 00999K11 1 00019L11 1 01000M11 1 29790N11 1 00000Q11 1 10098S11 1 00044V11 1 00404W11 1 88014
0081623930999991958072718004+27183+031100FM-12+007099999V0203201N00151220001CN0120001N9+03001+01501100441ADDAA199000091AY101999GF100991001001999999001001KA1999M+03611MD1110011+9999MW1021
017699999914848195810131800E+41700-086317SAO  +0236SBN  V02020359005252200059N024000599+02395+01065102375ADDAA101000095GF100005999999999999999999MA1999999099565EQDN01 00000JPWTH 1QNNG11U1 99999K11 1 00051L11 1 01500M11 1 29400N11 1 00000Q11 1 10237S11 1 00075V11 1 00000W11 1 56010
0066724505039231958031723004+37617-097267SAO  +0419IAB  V0200201N005110054019N0240001N9-00151-00531102211ADDGA1081+005409059GF108991999999999999999999MA1999999097051MW1001
0082466970999991958061901004+25067+121233SAO  +0045RCGM V0200901N003610390019N0160001N1+02851+02071100621ADDGA1041+015009009GA2071+039009079GF107991999999999999999999MA1999999100031MW1001
0079575150999991958120900004+29500+106550FM-12+026199999V0202901N00211012301CN0150001N9+01001+00501103361ADDAA106000691AA224002091AY161999GF108991081051012501999999MD1310091+9999MW1021
0275702670264151958040521003+64000-145733SAO  +0389BIG  V02009059002152200059N0800005N1+00565-00445101325ADDGD10995+9999999GD20995+9999999GD30995+9999999GD40995+9999999GF100005999999999999999999MA1999999096515MW1001EQDN01 00000JPWTH 1QNNE11 1 00099E11 1 00099E11 1 00099E11 1 00099G11U1 99999K11 1 00024L11 1 05000M11 1 28500N11 1 00000Q11 1 10132S11 1 00042V11 1 00000W11 1 33004
006083721099999195811201300N-23000-047133BRAZ +0661SBKP V02003019003619999999N020000199+02711+01801999999ADDGA1041+060001211GF104991999999999999999999MA1101781094201
0269999999265291958010212005+65167-152100SAO  +0073TAL  V02011359005250304849N024000599-02175-02565099495ADDGD14995+9999999GD20995+9999999GD30995+9999999GD40995+9999999GF108085999999999999999999MA1999999098615EQDN01 00000JPWTH 1QNNE11 1 00699E11 1 00099E11 1 00099E11 1 00099G11 1 00100K11 1-00014L11 1 01500M11 1 29120N11 1 00000Q11 1 09949S11 1-00007V11 1 01010W11 1 34010
030799999923188195803171200E+32733-117167SAO  +0011MYF  V02013559001050039649N012800599+01335+01285101325ADDAA101000095GA1999+003964064GD14085+9999999GD20995+9999999GD30995+9999999GD40995+9999999GF108085999999999999999999MA1999999101225EQDN01 00000JPWTH 1QNNE11 1 00610E11 1 00099E11 1 00099E11 1 00099G11 1 00013H11 1 15013K11 1 00055L11 1 00800M11 1 29890N11 1 00000Q11 1 10132S11 1 00056V11 1 01010W11 1 44002
0094567510999991958011806004+25717+100183FM-12+196099999V0200901N00311220001CN0600001N9+01281-00501999999ADDAY121999GF104991041041017501001001KA1999N+00781MA1999999100101MD1710231+9999ME1315109MW1021
006599999994008195806190800E+48217-106617SAO  +069699999V02099999999999999999N999999999+01284+00945999999ADDAA101000095MA1999999093304QNNK11 1 00049M11 1 27550S11 1 00055
0098718670999991958071300004+53967-101100SAO  +0271CYQD V0201351N003610600019N0240001N1+02301+01691100131ADDGA1011+015009089GA2031+024009039GA3041+060009009GF108991999999999999999999MA1999999096921MW1001
0377999999128411958062801005+28550-081333SAO  +003799999V02031559002650106749N024000599+02725+02285101735ADDGA1999+010674064GA2999+999999004GA3999+999999999GA4999+999999999GD13055+9999999GD23015+9999999GD30005+9999999GD40005+9999999GF106055999999999999999999MA1999999101325EQDN01 00000JPWTH 1QNNE11 1 00406E11 1 00401E11 1 00000E11 1 00000G11 1 00035H11 1 15035H11C1 32999H11 1 00999H11 1 00999K11 1 00073L11 1 01500M11 1 29920N11 1 00000Q11 1 10173S11 1 00081V11 1 00706W11 1 88005
0070485510999991958083112004+09133+099300FM-12+000399999V0202201N001519999999N0050001N9+02391+02281100691ADDAY161999GF108991031081008001021999KA1999M+02891MD1999999+0221MW1021
0296999999146581958092706005+41017-069500SAO  +002799999V02027059007750061049N019200599+01785+01675101425ADDGA1999+006104064GD14085+9999999GD20995+9999999GD30995+9999999GD40995+9999999GF108085999999999999999999MA1999999101025EQDN01 00000JPWTH 1QNNE11 1 00610E11 1 00099E11 1 00099E11 1 00099G11 1 00020H11 1 15020K11 1 00062L11 1 01200M11 1 29830N11 1 00000Q11 1 10142S11 1 00064V11 1 01010W11 1 77015
0269999999265191958021114005+62533-153900SAO  +045899999V02002359003150213449N024000599-02065-02285101665ADDGD13995+9999999GD23995+9999999GD30995+9999999GD40995+9999999GF106045999999999999999999MA1999999095875EQDN01 00000JPWTH 1QNNE11 1 00499E11 1 00499E11 1 00099E11 1 00099G11 1 00070K11 1-00009L11 1 01500M11 1 28310N11 1 00000Q11 1 10166S11 1-00005V11 1 00705W11 1 12006
0070545270999991958091018004+39183+117133FM-12+001699999V0201601N00211220001CN0140001N9+02221+02001101451ADDAY101061GF100991001001999999001001KA1999M+03001MD1810021+9999MW1021
039499999904725195812071000E+42217-075983SAO  +0485BGM  V02027059004150091449N008000599-01005-01225101975ADDAA101000095GA1999+009144064GA2999+999999999GA3999+999999999GA4999+999999999GD13065+9999999GD20005+9999999GD30005+9999999GD40005+9999999GF106065999999999999999999MA1999999095805MW1855EQDN01 05000JPWTH 1QNNE11 1 00407E11 1 00000E11 1 00000E11 1 00000G11 1 00030H11 1 15030H11 1 00999H11 1 00999H11 1 00999K11 1 00010L11 1 00500M11 1 28290N11 1 05000Q11 1 10197S11 1 00014V11 1 00707W11 1 77008
038872311913886195812230300B+34850-082350SAO  +031699999V02022559005252200059N019200599+00445-00335102575ADDAA101000095GA1999+999999024GA2999+999999999GA3999+999999999GA4999+999999999GD13065+9999993GD20005+9999999GD30005+9999999GD40005+9999999GF106025999999999999999999MA1999999098755EQDN01 00000JPWTH 1QNNE11 1 00307E11 1 00000E11 1 00000E11 1 00000G11U1 99999H11C1 37999H11 1 00999H11 1 00999H11 1 00999K11 1 00026L11 1 01200M11 1 29160N11 1 00000Q11 1 10257S11 1 00040V11 1 00703W11 1 66010
0187723825231311958062318003+34583-117383SAO  +0877VCV  V02027059003152200059N0240005N9+03175+00945101025ADDGA1001+999999999GF100005999999999999999999MA1999999091265MW1001EQDN01 00000JPWTH 1QNNG11U1 99999K11 1 00049L11 1 01500M11 1 26950N11 1 00000Q11 1 10102S11 1 00089V11 1 00000W11 1 77006
0383780160136011958031022003+32367-064683SAO  +0006TXKF V02027059011852200059N0096005N9+01785+01335100105ADDGA1031+004574064GA2999+999999999GA3999+999999999GA4999+999999999GD12035+9999999GD20005+9999999GD30005+9999999GD40005+9999999GF103035999999999999999999MA1999999100035MW1055EQDN01 08100JPWTH 1QNNE11 1 00204E11 1 00000E11 1 00000E11 1 00000G11U1 99999H11 1 15015H11 1 00999H11 1 00999H11 1 00999K11 1 00056L11 1 00600M11 1 29540N11 1 08100Q11 1 10010S11 1 00064V11 1 00404W11 1 77023
017699999913865195808160500E+32333-088750SAO  +009199999V02099999000052200059N012800599+02335+02285101525ADDAA101000095GF100005999999999999999999MA1999999100445EQDN01 00000JPWTH 1QNNG11U1 99999K11 1 00073L11 1 00800M11 1 29660N11 1 00000Q11 1 10152S11 1 00074V11 1 00000W11 1 00000
0051724096147061958021914004+40000-074583SAO  +0041WRI  V0200501N006212200019N0241401N9-00801-01391999999ADDGA1031+030009039GF102991999999999999999999MW1001
0081543110999991958012412004+41950+117550FM-12+085099999V0209991C00001220001CN0300001N9-01501-01781102801ADDAY101061GF100991001001999999001001MA1999999091901MD1710031+9999ME1314309MW1021
0067423690999991958051303004+26750+080883FM-12+012899999V0209991C00001220001CN0040001N9+03221+00891100181ADDAA124000091AY101999GF100991001001999999001001KA1999N+02111MW1021
0123476620999991958100421004+35683+139767FM-12+000699999V0203601N00361004501CN0060001N9+01611+01331102501ADDAY101999GA1999+027009059GA2031+011709099GF108991061999004501021999MA1999999102441MD1310031+9999MW1611EQDQ01+000002SCOLCG
009294664099999195804210530N-33030+137580AUST +0015     V0201805N001059999999N999999999+01945+00905999999ADDGA1005+999999999GA2005+999999999GA3065+999999999GF106995004999999999999025MA1999999102195
0117746710138061958071221004+36667-087500SAO  +0170HOP  V0202701N004110120019N0240001N9+02851+01961101351ADDGA1999+009009999GA2061+012009059GA3021+220009029GF108991999999999999999999MA1999999099321MW1001EQDQ01    003SCCGA1
0096988360999991958062903004+06900+122067SAO  +0006RPMZ V0202701N001510300019N0160001N1+02631+02521100981ADDGA1011+004509079GA2081+030009049GF108991999999999999999999MA1999999100911MD1110041+9999MW1611
0082711210999991958110600004+53667-113467SAO  +0699YED  V0202501N001512200019N0240001N9+00351-00761101871ADDGA1021+051009039GA2021+075009009GF102991999999999999999999MA1999999093431MW1001
031399999903820195804291200E+33367-081967SAO  +0045AGS  V02015859002150009149N003200599+01895+01835101765ADDAA101000095GA1999+000914074GD14085+9999999GD20995+9999999GD30995+9999999GD40995+9999999GF108085999999999999999999MA1999999101255MW1455EQDN01 07000JPWTH 1QNNE11 1 00610E11 1 00099E11 1 00099E11 1 00099G11 1 00003H11 1 16003K11 1 00065L11 1 00200M11 1 29900N11 1 07000Q11 1 10176S11 1 00066V11 1 01010W11 1 54004
0066723550139451958070906004+34650-098400SAO  +0362FSI  V0201601N004612200019N0240001N9+02161+02001101621ADDGA1001+999999999GF100991999999999999999999MA1999999097491MW1001
0081535020999991958011012004+39817+105500FM-12+114399999V0201401N00211220001CN0200001N9-00721-02001103061ADDAY111999GF101991001001999999001021MA1999999100201MD1310061+9999ME1314909MW1011
0165999999938361958040814005+31250-081467SAO  +0009NEA  V02002359005252200059N024000599+01224+00675101844ADDGF100005999999999999999999MA1999999101764EQDN01 00000JPWTH 1QNNG11U1 99999K11 1 00044L11 1 01500M11 1 30050N11 1 00000Q11 1 10184S11 1 00054V11 1 00000W11 1 12010
0057540270999991958093012004+44000+119200FM-12+999999999V0203201N00211220001CN0450001N9+99999+99999101761ADDAY111061GF101991999001999999031001MD1210111+9999MW1011
0323999999137601958081312005+38333-077033SAO  +000699999V02020359003150304849N011200599+02285+02225101425ADDGA1999+003054074GA2999+030484044GD11035+9999993GD24085+9999999GD30995+9999999GD40995+9999999GF108085999999999999999999MA1999999101355EQDN01 00000JPWTH 1QNNE11 1 00104E11 1 00610E11 1 00099E11 1 00099G11 1 00100H11 1 16010H11 1 21100K11 1 00072L11 1 00700M11 1 29930N11 1 00000Q11 1 10142S11 1 00073V11 1 01010W11 1 56006
0377999999938391958100709005+99999+999999SAO  +999999999V02013559002652200059N016000599+01564+01395101464ADDGA1999+036584034GA2999+999999999GA3999+999999999GA4999+999999999GD12035+9999999GD20005+9999999GD30005+9999999GD40005+9999999GF103035999999999999999999MA1999999100444EQDN01 00000JPWTH 1QNNE11 1 00204E11 1 00000E11 1 00000E11 1 00000G11U1 99999H11 1 23120H11 1 00999H11 1 00999H11 1 00999K11 1 00057L11 1 01000M11 1 29660N11 1 00000Q11 1 10146S11 1 00060V11 1 00404W11 1 44005
0238722505129041958090805003+26233-097667SAO  +0011HRL  V02013559003652200059N0240005N1+02615+02445999999ADDGD12995+9999999GD20995+9999999GD30995+9999999GD40995+9999999GF102995999999999999999999MW1001EQDN01 00000JPWTH 1QNNE11 1 00299E11 1 00099E11 1 00099E11 1 00099G11U1 99999K11 1 00076L11 1 01500N11 1 00000S11 1 00079V11 1 00399W11 1 44007
0383690190139101958060618003+32433-099850SAO  +0542DYS  V02013559002152200059N0240005N9+03115+01725101735ADDGA1021+016764084GA2999+999999999GA3999+999999999GA4999+999999999GD12025+9999999GD20005+9999999GD30005+9999999GD40005+9999999GF102025999999999999999999MA1999999095605MW1001EQDN01 00000JPWTH 1QNNE11 1 00203E11 1 00000E11 1 00000E11 1 00000G11U1 99999H11 1 11055H11 1 00999H11 1 00999H11 1 00999K11 1 00063L11 1 01500M11 1 28230N11 1 00000Q11 1 10173S11 1 00088V11 1 00303W11 1 44004
0057315730999991958080618004+50967+140667FM-12+999999999V0203401N00101030001CN0020001N9+01281+01221100951ADDAY141999GF108991041061000751011999MD1410001+9999MW1281
030772511114751195804300100C+40217-076850SAO  +0106CXY  V02029359005250274349N0240005N9+01615+01115101465ADDAA101000095GA1081+027434044GD14085+9999999GD20995+9999999GD30995+9999999GD40995+9999999GF108085999999999999999999MA1999999100175EQDN01 00000JPWTH 1QNNE11 1 00610E11 1 00099E11 1 00099E11 1 00099G11 1 00090H11 1 21090K11 1 00052L11 1 01500M11 1 29580N11 1 00000Q11 1 10146S11 1 00061V11 1 01010W11 1 78010
0103539230999991958081200004+35700+107733FM-12+144699999V0200401N00311007801CN0012001N9+01281+01281100941ADDAA106003091AA224052091AY161999GF108991081001008001021999MA1999999095401MD1210121+9999ME1314609MW1601
0088624140999991958050506004+23967+032783FM-12+0058HESN V0203601N00461220001CN0150001N9+02781+00721999999ADDAA124000091GF102991021001999999031001KA1999N+02281MD1310151+9999REMSYN0121250GPM= 144
0269999999930441958051521005+35100-108783SAO  +1963ZUN  V02029359008252200059N024000599+02504-01005101354ADDGD10995+9999999GD20995+9999999GD30995+9999999GD40995+9999999GF100005999999999999999999MA1999999080464EQDN01 00000JPWTH 1QNNE11 1 00099E11 1 00099E11 1 00099E11 1 00099G11U1 99999K11 1 00014L11 1 01500M11 1 23760N11 1 00000Q11 1 10135S11 1 00077V11 1 00000W11 1 78016
0269999999241451958050110005+43517-112067SAO  +144699999V02020359005252200059N024000599+00565-00505101085ADDGD13995+9999993GD20995+9999999GD30995+9999999GD40995+9999999GF107025999999999999999999MA1999999085075EQDN01 00000JPWTH 1QNNE11 1 00399E11 1 00099E11 1 00099E11 1 00099G11U1 99999K11 1 00023L11 1 01500M11 1 25120N11 1 00000Q11 1 10108S11 1 00042V11 1 00902W11 1 56010
0112385450999991958041006004+40467+062283FM-12+014399999V0200901N00411220001CN0200001N9+99999+99999101101ADDAJ100009199999999AY131999GF108991001001999999031021HL10009IA1089IA2999+00619KA1999N+00781MD1310041+9999MW1031
0057442590999991958082206004+48067+114500FM-12+075699999V0201601N00311220001CN0500001N9+02281+00281101231ADDAY121999GF106991001001999999081011MD1710121+9999MW1021
039472569024089195803051800C+42917-106467SAO  +1622CPR  V02020359010852200059N0960005N1-00175-00895101355ADDAA101000095GA1021+220009004GA2999+999999999GA3999+999999999GA4999+999999999GD11025+9999993GD20005+9999999GD30005+9999999GD40005+9999999GF102005999999999999999999MA1999999083075MW1001EQDN01 00000JPWTH 1QNNE11 1 00103E11 1 00000E11 1 00000E11 1 00000G11U1 99999H11C1 32999H11 1 00999H11 1 00999H11 1 00999K11 1 00016L11 1 06000M11 1 24530N11 1 00000Q11 1 10135S11 1 00029V11 1 00300W11 1 56021
0081566710999991958020203004+26833+102250FM-12+192099999V0201401N00101220001CN0450001N9+01001-00281999999ADDAY101999GF101991001001999999001021MA1999999092001MD1110091+9999ME1314909MW1011
0057984390999991958102409004+14117+122950FM-12+001199999V0202001N001019999999N0450001N9+03001+02391100941ADDAY121999GF105991011021008001001021MD1510001+9999MW1021
0165999999130231958071111005+32117-007883SAO  +0448GBGY V02029359002152200059N024000599+02565+01395101525ADDGF100005999999999999999999MA1999999096515EQDN01 00000JPWTH 1QNNG11U1 99999K11 1 00057L11 1 01500M11 1 28500N11 1 00000Q11 1 10152S11 1 00078V11 1 00000W11 1 78004
0057623930999991958071212004+27183+031100FM-12+007099999V0200301N00261220001CN0150001N9+03721+01111100821ADDAY101999GF100991001001999999001001MD1710211+9999MW1021
0060172200999991958051815004+38433+027167SAO  +010899999V0201801N004112200019N0240001N9+03411+01301101381ADDGA1011+069009009GF102991999999999999999999MA1999999100101
0043661040999991958042109004-05550+012183FM-12+002099999V0202001N00211007501CN0200001N9+02611+02281101371ADDAY121999GF107991071051008001999999MW1021
009372251012924195807171100D+27767-097500SAO  +0013CRP  V0201801N001512200019N0240001N1+02571+02521101751ADDAA101000095GA1011+004509089GA2041+220009009GF107991999999999999999999MA1999999101591MW1001
007694672399999195801211130N-34950+138530AUST +0004APAD V0201805N006259999999N999999999+01595+00705999999ADDGA1015+007505085GA2015+009005065GF102995014015007505999999MA1999999101455
0050717170999991958021906004+47017-065450SAO  +0034CYCH V0201801N004612200019N0240001N1-01311-01641098971ADDGF100991999999999999999999MA1999999098541MW1001
017699999924144195807110500E+46600-112000SAO  +1167HLN  V02022559001052200059N064000599+01675+01115101765ADDAA101000095GF100005999999999999999999MA1999999088455EQDN01 00000JPWTH 1QNNG11U1 99999K11 1 00052L11 1 04000M11 1 26120N11 1 00000Q11 1 10176S11 1 00062V11 1 00000W11 1 66002
0377070881340641958062320002+49233+005683SAO  +0237LEQE V02099999000052200059N017600599+01335+00785101155ADDGA1999+007624064GA2999+999999024GA3999+999999999GA4999+999999999GD12045+9999999GD23045+9999999GD30005+9999999GD40005+9999999GF106065999999999999999999MA1999999098345EQDN01 00000JPWTH 1QNNE11 1 00205E11 1 00405E11 1 00000E11 1 00000G11C1 99999H11 1 15025H11C1 37999H11 1 00999H11 1 00999K11 1 00046L11 1 01100M11 1 29040N11 1 00000Q11 1 10115S11 1 00056V11 1 00808W11 1 00000
0051476270999991958051618004+36217+140100FM-12+087099999V0200201N008219999999N9999999N9+00561+99999999999ADDAA106006091AY101999MA1999999091031MD1210201+9999
0082601360999991958040921004+34233-006067SAO  +0055GSSV V0201601N001012200019N0176001N9+01801+01191101211ADDGA1031+030009049GA2031+220009009GF107991999999999999999999MA1999999100541MW1001
0067037720999991958112803004+51483-000450SAO  +0024EGLL V0200231N003110015019N0016001N1+00801+00741102691ADDGA1061+001509999GA2081+003009999GF108991999999999999999999MW1511
0055065890999991958030920004+49617+006050FM-12+033099999V0203201N001019999999N9999999N9-00281+99999999999ADDAA124000391GF108991999999999999999999MA1999999096261
0050723273999991958010423004+36000-086500SAO  +0166MQY  V0200231N002612200019N0160001N1+00191-00591103721ADDGF100991999999999999999999MA1999999101631MW1001
0082722533129621958030323004+29333-099167SAO  +0280HDO  V0200681N003110135019N0160001N1+01411+00691101451ADDGA1061+013509059GA2061+024009049GF107991999999999999999999MA1999999098071MW1001
006094975099999195806181100N-42830+147520AUST +0003YMHB V0203605N002659999999N999999999+00965+00805999999ADDGA1025+010505085GF102995024025010505999999MA1999999101465
0066488600999991958030603004+16550+111617SAO  +000699999V0200901N002112200019N0400001N1+02801+02571101731ADDGA1041+003909009GF102991999999999999999999MA1999999101661MW1001
038899999914942195811191300E+41300-095900SAO  +0304OMA  V02018059002652200059N024000599+00065-00285101935ADDAA101000095GA1999+999999004GA2999+999999999GA3999+999999999GA4999+999999999GD10005+9999999GD20005+9999999GD30005+9999999GD40005+9999999GF100005999999999999999999MA1999999098275EQDN01 00000JPWTH 1QNNE11 1 00000E11 1 00000E11 1 00000E11 1 00000G11U1 99999H11C1 32999H11 1 00999H11 1 00999H11 1 00999K11 1 00027L11 1 01500M11 1 29020N11 1 00000Q11 1 10193S11 1 00033V11 1 00000W11 1 55005
0308722525129201958102914003+27533-099467SAO  +0152LRD  V02036059006250024449N0048005N1+01005+01005102105ADDGA1081+002444074GD14085+9999999GD20995+9999999GD30995+9999999GD40995+9999999GF108085999999999999999999MA1999999100245MW1455MW2535EQDN01 03470JPWTH 1QNNE11 1 00610E11 1 00099E11 1 00099E11 1 00099G11 1 00008H11 1 16008K11 1 00050L11 1 00300M11 1 29600N11 1 03470Q11 1 10210S11 1 00050V11 1 01010W11 1 11012
0082988360999991958051307004+06900+122067SAO  +0006RPMZ V0202031N003111200019N0320001N1+03021+02411100861ADDGA1031+009009089GA2061+120009009GF107991999999999999999999MA1999999100781MW1001
0089322850999991958041712004+57533+157283FM-12+999999999V0202001N02421004501CN0000501N9-00221-00221100701ADDAY171999GF108991081001004501021999KA1999M+99999MD1710061+9999MW1731EQDQ01 -00612ATMX  
0187722250138291958011707003+32350-085000SAO  +0073LSF  V02031559003152200059N0192005N9+00175-00115101695ADDGA1001+999999999GF100005999999999999999999MA1999999100785MW1001EQDN01 00000JPWTH 1QNNG11U1 99999K11 1 00030L11 1 01200M11 1 29760N11 1 00000Q11 1 10169S11 1 00035V11 1 00000W11 1 88006
0100330190999991958011006004+52117+026133FM-12+014499999V0202001N00981021001CN0020001N9-00221-00281100111ADDAA199000691AY171999GF108991999071022501021041KA1999N-00391MD1710021+9999MW1731EQDQ01+000082SCOTLC
006694999900270195808072300N-35370+145050AUST +0091     V0202935N001559999999N999999999+00965+00905999999ADDGA1075+999999065GF107995074055999999999999MA1999999100205MW1055
0070309780999991958010312004+49833+118383FM-12+055099999V0203201N00511220001CN0500001N9-01501-01781102541ADDAY101999GF100991001001999999001001KA1999M-01001MD1210181+9999MW1021
0081587260999991958011209004+27650+117883FM-12+051599999V0202201N00621220001CN0400001N9+01391+00891101731ADDAY111999GF104991031011008001041011MA1999999096101MD1510051+9999ME1315209MW1011
0082062650999991958090906004+52133+005267SAO  +0013EHSB V0202401N003610072019N0048001N1+01521+01461101561ADDGA1021+001209039GA2051+007209049GF107991999999999999999999MA1999999101561MW1451
0212999999150331958110111005+52367+000217SAO  +0049EGWZ V02022559004152200059N003600599+00785+00505999999ADDGD10995+9999999GD20995+9999999GD30995+9999999GF101995999999999999999999MW1045EQDN01 08200JPWTH 1QNNE11 1 00099E11 1 00099E11 1 00099G11U1 99999K11 1 00041L11 1 00225N11 1 08200S11 1 00046V11 1 00199W11 1 66008
039472267023042195811232100C+33650-101833SAO  +0990LBB  V02027059006252200059N0240005N1+02505+00175100985ADDAA101000095GA1061+042674034GA2999+999999999GA3999+999999999GA4999+999999999GD13065+9999993GD20005+9999999GD30005+9999999GD40005+9999999GF106025999999999999999999MA1999999089985MW1001EQDN01 00000JPWTH 1QNNE11 1 00308E11 1 00000E11 1 00000E11 1 00000G11U1 99999H11 1 23140H11 1 00999H11 1 00999H11 1 00999K11 1 00035L11 1 01500M11 1 26570N11 1 00000Q11 1 10098S11 1 00077V11 1 00803W11 1 77012
0057470350999991958060306004+40100+124383FM-12+000899999V0203601N00311220001CN0100001N9+02611+00501101201ADDAY101999GF101991011041008001001001MD1810091+9999MW1021
0308725310148061958012113003+40300-088150SAO  +0228RAN  V02006859006250012249N0024005N1+00175+00065099975ADDGA1081+001224064GD14085+9999999GD20995+9999999GD30995+9999999GD40995+9999999GF108085999999999999999999MA1999999097225MW1455MW2615EQDN01 02070JPWTH 1QNNE11 1 00610E11 1 00099E11 1 00099E11 1 00099G11 1 00004H11 1 15004K11 1 00033L11 1 00150M11 1 28710N11 1 02070Q11 1 09997S11 1 00035V11 1 01010W11 1 32012
0275722597939851958101423003+32783-098067SAO  +0286MWL  V02099999000050365849N0240005N1+02115+01395102495ADDGD12995+9999999GD24995+9999999GD30995+9999999GD40995+9999999GF108085999999999999999999MA1999999099025MW1615EQDN01 02000JPWTH 1QNNE11 1 00299E11 1 00699E11 1 00099E11 1 00099G11 1 00120K11 1 00057L11 1 01500M11 1 29240N11 1 02000Q11 1 10249S11 1 00070V11 1 01010W11 1 00000
0057262580999991958111312004+57833+028350FM-12+004299999V0201801N00311220001CN0100001N9+00391-00281103001ADDAY101999GF102991001001999999001011MD1710101+9999MW1021
0057859410999991958041618004-53150-070883FM-12+000899999V0201401N001019999999N0100001N9+00781+00111102461ADDAY101999GF103991011011012501041001MD1210071+9999MW1031
038899999903813195808010400E+32700-083650SAO  +0108MCN  V02020359004652200059N016000599+02725+02395101835ADDAA101000095GA1999+999999004GA2999+999999999GA3999+999999999GA4999+999999999GD11025+9999993GD20005+9999999GD30005+9999999GD40005+9999999GF102005999999999999999999MA1999999100545EQDN01 00000JPWTH 1QNNE11 1 00102E11 1 00000E11 1 00000E11 1 00000G11U1 99999H11C1 32999H11 1 00999H11 1 00999H11 1 00999K11 1 00075L11 1 01000M11 1 29690N11 1 00000Q11 1 10183S11 1 00081V11 1 00200W11 1 56009
0377999999215041958120521005+19717-155067SAO  +0008ITO  V02002359003650152449N048000599+02615+01445101015ADDGA1999+009144084GA2999+015244064GA3999+999999004GA4999+999999999GD12025+9999999GD23065+9999999GD33015+9999999GD40005+9999999GF107075999999999999999999MA1999999100885EQDN01 00000JPWTH 1QNNE11 1 00202E11 1 00407E11 1 00401E11 1 00000G11 1 00050H11 1 11030H11 1 15050H11C1 32999H11 1 00999K11 1 00058L11 1 03000M11 1 29790N11 1 00000Q11 1 10101S11 1 00079V11 1 00909W11 1 12007
0165999999147881958081211005+41583-071417SAO  +000999999V02027059001052200059N016000599+01835+01675101655ADDGF100005999999999999999999MA1999999101565EQDN01 00000JPWTH 1QNNG11U1 99999K11 1 00062L11 1 01000M11 1 29990N11 1 00000Q11 1 10165S11 1 00065V11 1 00000W11 1 77002
0035478080999991958110607004+33583+130450SAO  +0012RJFF V0202481N003612200019N0192001N1+01961+01071999999ADDGF102991999999999999999999MW1001
0081243290999991958042012004+66250+114283FM-12+023599999V0209991C00001220001CN0200001N9-01001-01501100651ADDAA199000691AY171999GF108991001001999999071999KA1999M-00611MD1210201+9999MW1021
0111476550999991958120600004+34600+138217FM-12+004799999V0203601N004619999999N0150001N9+01281+00611102591ADDAJ100009199999999AY101999GA1031+011709049GF105991011011012501031001IA1009MA1999999102031MD1210131+9999MW1021
017699999923273195803080600E+99999+999999SAO  +999999999V02099999000052200059N024000599+00565+00445101865ADDAA101000095GF100005999999999999999999MA1999999100985EQDN01 00000JPWTH 1QNNG11U1 99999K11 1 00040L11 1 01500M11 1 29820N11 1 00000Q11 1 10186S11 1 00042V11 1 00000W11 1 00000
0035724550139471958111408004+39050-096767SAO  +0324FRI  V0202001N008712200019N0160001N9+01671+01331999999ADDGF100991999999999999999999MW1001
0043429770999991958031900004+20850-088250FM-12+001099999V0202501N00571220001CN0100001N9+02721+02391100791ADDAY101999GF100991001001999999001001MW1001
0035703050999991958092320004+58667-162167SAO  +0164PAEH V0202501N004110066019N0112001N9+00461+00191999999ADDGF108991999999999999999999MW1001
0098081605999991958051208004+41667-001017SAO  +0263LEZG V0202901N009310300019N0240001N9+01461+00961101291ADDGA1011+012009059GA2061+030009039GA3081+220009029GF108991999999999999999999MA1999999098311MW1001
0073624350999991958120806004+25433+030567FM-12+007399999V0209991C00001220001CN0140001N9+01721+00781101241ADDAA124000091GF106991001001999999001041KA1999N+01221MD1310101+9999MW1001
0011474240999991958110315004+42633+141583FM-12+000899999V0200701N001519999999N9999999N9+00331+99999999999ADDAY101999
0092401650999991958050821004+32667+035183FM-12+005199999V0209991C00001220001CN0080001N9+01611+01281101771ADDAY101999GF100991001001999999001001MD1210021+9999MW1051EQDQ01+000042APCTENQ02+000012APC3  
0076326230999991958032306004+54800+167317FM-12+000499999V0202201N01181007801CN0020001N9-00111-00221099991ADDAY171999GF108991999011008001011999MD1310351+9999MW1711EQDQ01+000082SCOTLC
0112318250999991958060600004+47600+138400FM-12+016099999V0209991C000019999999N0200001N9+01001+00891101121ADDAJ100009199999999AY121999GF107991999051012501031001HL10009IA1089IA2999+00619KA1999N+00501MD1710141+9999MW1031
0323999999432131958082218005+35167+129133SAO  +0005RKPP V02013559001550304849N011200599+02395+02175100985ADDGA1999+004574154GA2999+030484044GD12025+9999999GD24085+9999999GD30995+9999999GD40995+9999999GF108085999999999999999999MA1999999100955EQDN01 00000JPWTH 1QNNE11 1 00202E11 1 00610E11 1 00099E11 1 00099G11 1 00100H11 1 17015H11 1 21100K11 1 00071L11 1 00700M11 1 29810N11 1 00000Q11 1 10098S11 1 00075V11 1 01010W11 1 44003
0083718630999991958102606004+50433-104667FM-12+057499999V0201401N00261220001CN0300001N9-00221-01001102841ADDAY111999GF101991011001022501031001KA1999M+01171KA2999N-00891MD1710021+9999MW1021
0269999999225251958100804005+20833-156467SAO  +004099999V02033859008850243849N032000599+02505+01835101355ADDGD12995+9999999GD23995+9999999GD30995+9999999GD40995+9999999GF106065999999999999999999MA1999999100985EQDN01 00000JPWTH 1QNNE11 1 00299E11 1 00499E11 1 00099E11 1 00099G11 1 00080K11 1 00065L11 1 02000M11 1 29820N11 1 00000Q11 1 10135S11 1 00077V11 1 00807W11 1 18017
0043489180999991958032611004+08700+106583FM-12+000599999V0209991C00001220001CN0200001N9+99999+99999999999ADDAY101999GF100991999999999999999999MW1011
0082070881340641958021810001+49233+005683SAO  +0237LETI V0203381N004112200019N0128001N1+00131-00311101281ADDGA1031+004509059GA2011+024009039GF102991999999999999999999MA1999999098341MW1001
0099639320999991958021109004-08933+033467FM-12+170799999V0202701N00101045001CN0160001N9+01611+01501999999ADDGA1041+001809079GA2041+030009049GF108991041061002501021999MA1999999082961MD1999999+0031ME1315529
0275746941137861958061209003+36267-076183SAO  +0004ECG  V02024859002650070149N0112005N9+02335+02115101255ADDGD14995+9999999GD20995+9999999GD30995+9999999GD40995+9999999GF108085999999999999999999MA1999999101225MW1001EQDN01 00000JPWTH 1QNNE11 1 00699E11 1 00099E11 1 00099E11 1 00099G11 1 00023K11 1 00070L11 1 00700M11 1 29890N11 1 00000Q11 1 10125S11 1 00074V11 1 01010W11 1 76005
0275702031266201958021007003+64200-162050SAO  +0005MOS  V02036059012952200059N0240005N1-01175-01445101595ADDGD10995+9999999GD20995+9999999GD30995+9999999GD40995+9999999GF100005999999999999999999MA1999999101565MW1001EQDN01 00000JPWTH 1QNNE11 1 00099E11 1 00099E11 1 00099E11 1 00099G11U1 99999K11 1 00006L11 1 01500M11 1 29990N11 1 00000Q11 1 10159S11 1 00011V11 1 00000W11 1 11025
0066745980137021958123112004+37083-076350SAO  +0003LFI  V0200201N011812200019N0240001N9+00171-00281102811ADDGA1061+220009009GF107991999999999999999999MA1999999102741MW1001
005994999900356195802162300N-43420+146880AUST +0040     V02099999999999999999N999999999+01365+01105999999ADDAY154999GA1085+999999075GF108995084065999999999999MW1055
039472643014920195810121400C+43867-091250SAO  +0198LSE  V02013559003650365849N0192005N9+00505+00225102885ADDAA101000095GA1061+036584034GA2999+999999999GA3999+999999999GA4999+999999999GD13065+9999999GD20005+9999999GD30005+9999999GD40005+9999999GF106065999999999999999999MA1999999100345MW1001EQDN01 00000JPWTH 1QNNE11 1 00408E11 1 00000E11 1 00000E11 1 00000G11 1 00120H11 1 23120H11 1 00999H11 1 00999H11 1 00999K11 1 00036L11 1 01200M11 1 29630N11 1 00000Q11 1 10288S11 1 00041V11 1 00808W11 1 44007
0329722745231091958022014003+32167-110883SAO  +0809DMA  V02011359001550243849N0640005N9+01115+00615100925ADDGA1061+024384064GA2021+220009024GD13065+9999999GD24025+9999999GD30995+9999999GD40995+9999999GF108085999999999999999999MA1999999091745MW1001EQDN01 00000JPWTH 1QNNE11 1 00407E11 1 00603E11 1 00099E11 1 00099G11 1 00080H11 1 15080H11C1 37999K11 1 00043L11 1 04000M11 1 27090N11 1 00000Q11 1 10092S11 1 00052V11 1 01010W11 1 34003
0057278570999991958122018004+53500+042617FM-12+013399999V0203201N00211007801CN0040001N9+00111-00221101721ADDAY121999GF108991081051008001999999MD1710011+9999MW1021
0296999999175031958070500005+76983-056067SAO  +012499999V02013559001550082349N024000599-00285-00445104445ADDGA1999+008234064GD14085+9999999GD20995+9999999GD30995+9999999GD40995+9999999GF108085999999999999999999MA1999999079285EQDN01 00000JPWTH 1QNNE11 1 00610E11 1 00099E11 1 00099E11 1 00099G11 1 00027H11 1 15027K11 1 00024L11 1 01500M11 1 23410N11 1 00000Q11 1 10444S11 1 00027V11 1 01010W11 1 44003
0035722270138641958112422004+33917-084517SAO  +0329MGE  V0209991C000012200019N0160001N9+02021+00581999999ADDGF108991999999999999999999MW1001
038899999913897195810012000E+36117-086683SAO  +0177BNA  V02036059005252200059N024000599+01675+00175102375ADDAA101000095GA1999+999999004GA2999+999999999GA3999+999999999GA4999+999999999GD10005+9999999GD20005+9999999GD30005+9999999GD40005+9999999GF100005999999999999999999MA1999999100175EQDN01 00000JPWTH 1QNNE11 1 00000E11 1 00000E11 1 00000E11 1 00000G11U1 99999H11C1 32999H11 1 00999H11 1 00999H11 1 00999K11 1 00035L11 1 01500M11 1 29580N11 1 00000Q11 1 10237S11 1 00062V11 1 00000W11 1 11010
0383725510149391958032207003+40850-096750SAO  +0357LNK  V02006859003150304849N0240005N1+00115-00445101695ADDGA1061+030484034GA2999+999999999GA3999+999999999GA4999+999999999GD13065+9999999GD20005+9999999GD30005+9999999GD40005+9999999GF106065999999999999999999MA1999999097265MW1001EQDN01 00000JPWTH 1QNNE11 1 00408E11 1 00000E11 1 00000E11 1 00000G11 1 00100H11 1 23100H11 1 00999H11 1 00999H11 1 00999K11 1 00024L11 1 01500M11 1 28720N11 1 00000Q11 1 10169S11 1 00034V11 1 00808W11 1 32006
0066702615999991958030312004+64833-147600SAO  +0139PAFB V0202301N004612200019N0480001N9-00311-00701102421ADDGA1021+021009039GF102991999999999999999999MA1999999100611MW1001
0043478300999991958110623004+31917+131417FM-12+000899999V0203201N00211220001CN0450001N9+01061+00941102321ADDAY101999GF100991001001999999001001MW1021
0058946720999991958010303004-34950+138517FM-12+000899999V0202701N005719999999N0450001N9+02171+00781999999ADDAY101999GF100991001001999999999999MA1999999102291MW1001
0302700260275021958042714003+71300-156783SAO  +0009BRW  V02022559004650027449N0080005N1+00005-00115102575ADDGA1081+002744074GD14085+9999999GD20995+9999999GD30995+9999999GD40995+9999999GF108085999999999999999999MA1999999102515MW1715EQDN01 04000JPWTH 1QNNE11 1 00610E11 1 00099E11 1 00099E11 1 00099G11 1 00009H11 1 16009K11 1 00030L11 1 00500M11 1 30270N11 1 04000Q11 1 10257S11 1 00032V11 1 01010W11 1 66009
0041037720999991958101918004+51483-000450FM-12+002599999V0202901N002119999999N0048001N9+01281+01111102711ADDGF105991999999999999999999IA1009MW1041
0269999999265191958021407005+62533-153900SAO  +045899999V02018059002152200059N024000599-01835-02175101085ADDGD10995+9999999GD20995+9999999GD30995+9999999GD40995+9999999GF100005999999999999999999MA1999999095295EQDN01 00000JPWTH 1QNNE11 1 00099E11 1 00099E11 1 00099E11 1 00099G11U1 99999K11 1-00007L11 1 01500M11 1 28140N11 1 00000Q11 1 10108S11 1-00001V11 1 00000W11 1 55004
0082106330999991958032812004+50050+008333SAO  +0143EDOU V0201801N003610180019N0064001N9+01241+00911100331ADDGA1021+006309059GA2061+018009059GF107991999999999999999999MA1999999098651MW1051
006172311913886195804080200A+34850-082350SAO  +0319GMU  V0203601N002612200019N0240001N1+00961+00081101201ADDAA101000095GF100991999999999999999999MA1999999097701MW1001
019872406093721195807040700C+39183-076667SAO  +0045BAL  V02033859003152200059N0160005N1+02335+02065101665ADDAA101000095GA1001+999999999GF100005999999999999999999MA1999999101125MW1001EQDN01 00000JPWTH 1QNNG11U1 99999K11 1 00069L11 1 01000M11 1 29860N11 1 00000Q11 1 10166S11 1 00074V11 1 00000W11 1 18006
038899999914942195811170200E+41300-095900SAO  +0304OMA  V02015859004652200059N019200599+01725+01505100535ADDAA101000095GA1999+007624094GA2999+999999024GA3999+999999999GA4999+999999999GD13005+9999999GD20075+9999999GD30005+9999999GD40005+9999999GF107065999999999999999999MA1999999097025EQDN01 00000JPWTH 1QNNE11 1 00400E11 1 00009E11 1 00000E11 1 00000G11C1 99999H11 1 18025H11C1 37999H11 1 00999H11 1 00999K11 1 00059L11 1 01200M11 1 28650N11 1 00000Q11 1 10053S11 1 00063V11 1 00908W11 1 54009
0075479090999991958122019004+28383+129500FM-12+000499999V0203601N005119999999N0220001N9+01561+00611102301ADDAY101999GA1999+057009029GA2001+999999999GF102991021051008001001001MW1011
0243999999942251958050502005+46967-123933SAO  +0003HQM  V02033859004150457249N024000599+01564+00785101934ADDGD12995+9999999GD23995+9999999GD34995+9999999GD40995+9999999GF108075999999999999999999EQDN01 00000JPWTH 1QNNE11 1 00299E11 1 00499E11 1 00699E11 1 00099G11 1 00150K11 1 00046L11 1 01500N11 1 00000Q11 1 10193S11 1 00060V11 1 01009W11 1 18008
0076298650999991958063018004+53750+091400FM-12+024599999V0209991C00001220001CN0100001N9+01281+01001100971ADDAY121999GF106991999001999999031001MD1210031+9999MW1021EQDQ01+000002SCOTLC
010783612099999195804091200N-20467-054667BRAZ +0567SBCG V02003019004119999999N014000199+01901+01901101471ADDAA101012191GA1051+005001061GA2081+024001041GF108991999999999999999999MA1101421094721MD1310011+9999MW1631
0269999999147761958022316005+43633-072317SAO  +0173LEB  V02020359003150365849N024000599-00895-01565101125ADDGD13995+9999999GD20995+9999999GD30995+9999999GD40995+9999999GF106055999999999999999999MA1999999098925EQDN01 00000JPWTH 1QNNE11 1 00499E11 1 00099E11 1 00099E11 1 00099G11 1 00120K11 1 00004L11 1 01500M11 1 29210N11 1 00000Q11 1 10112S11 1 00016V11 1 00806W11 1 56006
0091564440999991958103000004+28483+098650FM-12+999999999V0209991C00001220001CN0200001N9-00221-00281999999ADDAY101999GF100991001001999999001001HL10009IA2999-00399MA1999999096601MD1310031+9999MW1021
0103511560999991958061300004+46633+086183FM-12+080099999V0203201N00621012301CN0350001N9+00501+00221101171ADDAA106004091AA224004091AY171999GF107991071051012501999021MA1999999096501MD1710171+9999ME1314509MW1021
0057544010999991958070409004+40833+115183FM-12+076099999V0201401N00311015001CN0300001N9+02281+01721100181ADDAY191031GF107991071091017501999999MD1210081+9999MW1171
0043480940999991958061906004+16767+094767FM-12+001099999V0202301N002619999999N0010001N9+02781+02721100531ADDAY191999GF108991041091008001041999MW1601
0296999999432141958081016005+36450+127433SAO  +0040RKTD V02099999000050076249N011200599+02565+02175100715ADDGA1999+007624084GD14085+9999999GD20995+9999999GD30995+9999999GD40995+9999999GF108085999999999999999999MA1999999100275EQDN01 00000JPWTH 1QNNE11 1 00610E11 1 00099E11 1 00099E11 1 00099G11 1 00025H11 1 11025K11 1 00071L11 1 00700M11 1 29610N11 1 00000Q11 1 10071S11 1 00078V11 1 01010W11 1 00000
0076505570999991958042712004+49167+125217FM-12+022299999V0203201N00101220001CN0300001N9+00281+00001100831ADDAY111999GF101991999001999999061001MD1210171+9999MW1011EQDQ01+000002SCOTLC
0269999999225251958102917005+20833-156467SAO  +004099999V02002359006250091449N032000599+02115+01895101665ADDGD12995+9999999GD23995+9999999GD30995+9999999GD40995+9999999GF106065999999999999999999MA1999999101295EQDN01 00000JPWTH 1QNNE11 1 00299E11 1 00499E11 1 00099E11 1 00099G11 1 00030K11 1 00066L11 1 02000M11 1 29910N11 1 00000Q11 1 10166S11 1 00070V11 1 00707W11 1 12012
0302999999266161958122312005+66867-162633SAO  +0006OTZ  V02099999000050091449N024000599-01565-02065099805ADDGA1999+009144064GD14085+9999999GD20995+9999999GD30995+9999999GD40995+9999999GF108085999999999999999999MA1999999099735MW1715EQDN01 04000JPWTH 1QNNE11 1 00610E11 1 00099E11 1 00099E11 1 00099G11 1 00030H11 1 15030K11 1-00005L11 1 01500M11 1 29450N11 1 04000Q11 1 09980S11 1 00004V11 1 01010W11 1 00000
0056802220999991958012512004+04700-074133FM-12+260299999V0209991C000019999999N0002001N9+00721+00721100881ADDAY141999GF104991021061004501011001EQDQ01+000482PRSWM1
0057246520999991958052118004+63967+127467FM-12+009099999V0203201N00511220001CN0500001N9-00111-00221100711ADDAY121999GF108991001001999999031071MD1710011+9999MW1021
0035725068999991958080720004+41650-070517SAO  +0043FMH  V0202251N006212200019N0080001N1+02681+02021999999ADDGF107991999999999999999999MW1051
0057865300999991958081103004-33350-056483FM-12+009599999V0209991C00001220001CN0100001N9+00221+00111102241ADDAY101999GF100991001001999999001001MD1510081+9999MW1021
0058683780999991958070520004+27750+029933FM-12+125099999V0201801N00311220001CN0100001N9+01001-00061999999ADDAY121999GF100991999999999999999999MA1999999088201MW1021
0111474050999991958070906004+44583+142967FM-12+001699999V0200201N002619999999N0030001N9+01781+01561100961ADDAJ100009199999999AY101999GA1999+999999079GF108991071061999999999999IA1009MA1999999100781MD1610051+9999MW1401
0275703430254021958042519003+59467-146317SAO  +0014MDO  V02027059002152200059N0320005N1+00725+00395103455ADDGD14995+9999993GD20995+9999999GD30995+9999999GD40995+9999999GF108025999999999999999999MA1999999103285MW1001EQDN01 00000JPWTH 1QNNE11 1 00599E11 1 00099E11 1 00099E11 1 00099G11U1 99999K11 1 00039L11 1 02000M11 1 30500N11 1 00000Q11 1 10345S11 1 00045V11 1 01003W11 1 77004
0057540270999991958010615004+44000+119200FM-12+999999999V0202201N00621220001CN0400001N9-00721-01611101981ADDAY101031GF101991999001999999031001MD1010011+9999MW1021
0057294670999991958061812004+56283+090500FM-12+021999999V0203501N00511220001CN9999999N9+02781+00501101001ADDAY101999GF100991001001999999001001MD1710091+9999MW1101
0269999999264351958112120005+99999+999999SAO  +999999999V02099999000052200059N048000599-03505-04225102685ADDGD10995+9999999GD20995+9999999GD30995+9999999GD40995+9999999GF100005999999999999999999MA1999999101125EQDN01 00000JPWTH 1QNNE11 1 00099E11 1 00099E11 1 00099E11 1 00099G11U1 99999K11 1-00044L11 1 03000M11 1 29860N11 1 00000Q11 1 10268S11 1-00031V11 1 00000W11 1 00000
0275999999932091958032712005+35667-120633SAO  +0246PRB  V02013559007250137249N016000599+00894+00565100204ADDGD14995+9999999GD20995+9999999GD30995+9999999GD40995+9999999GF108085999999999999999999MA1999999097294MW1615EQDN01 02000JPWTH 1QNNE11 1 00699E11 1 00099E11 1 00099E11 1 00099G11 1 00045K11 1 00042L11 1 01000M11 1 28730N11 1 02000Q11 1 10020S11 1 00048V11 1 01010W11 1 44014
028099999924137195801221700E+48600-112367SAO  +1174CTB  V02027059006252200059N096000599-00395-01225101965ADDAA101000095GD10995+9999999GD20995+9999999GD30995+9999999GD40995+9999999GF100005999999999999999999MA1999999088225EQDN01 00000JPWTH 1QNNE11 1 00099E11 1 00099E11 1 00099E11 1 00099G11U1 99999K11 1 00010L11 1 06000M11 1 26050N11 1 00000Q11 1 10196S11 1 00025V11 1 00000W11 1 77012
0165999999938071958020903005+36133-080233SAO  +030399999V02033859006252200059N024000599-00614-01725101934ADDGF100005999999999999999999MA1999999098274EQDN01 00000JPWTH 1QNNG11U1 99999K11 1 00001L11 1 01500M11 1 29020N11 1 00000Q11 1 10193S11 1 00021V11 1 00000W11 1 18012
0082106160999991958020408004+49950+007250SAO  +0506EDAH V0202001N001012200019N0128001N9-00391-00611103461ADDGA1021+030009049GA2081+220009029GF108991999999999999999999MA1999999097051MW1001
0080603180999991958061712004+35583-005400FM-12+001099999V0200701N00621004201CN0120001N9+02281+01501101531ADDAJ100009199999999AY121999GF106991061061004501001001IA1009MD1810051+9999MW1051
0108478150999991958073009004+33233+131617FM-12+000699999V0202301N007219999999N0300001N9+03331+02281100531ADDAY101999GA1999+011709039GA2001+999999999GF103991031041999999031001MD1710051+9999MW1021EQDQ01+000992SCOLCB
0057584570999991958041709004+30267+120167FM-12+001199999V0202001N00411220001CN0130001N9+03111+01501100971ADDAY111999GF106991001001999999001021MD1710181+9999MW1031
0043478360999991958082910004+30450+130500FM-12+001699999V0203201N00721008701CN0450001N9+02781+02281101191ADDAY101999GF108991021021008001001071MW1031
0269999999255071958100522005+59633-151500SAO  +002299999V02013559002150152449N048000599+00175-00785100545ADDGD13995+9999999GD20995+9999999GD30995+9999999GD40995+9999999GF106065999999999999999999MA1999999100275EQDN01 00000JPWTH 1QNNE11 1 00499E11 1 00099E11 1 00099E11 1 00099G11 1 00050K11 1 00018L11 1 03000M11 1 29610N11 1 00000Q11 1 10054S11 1 00035V11 1 00707W11 1 44004
0057343360999991958040512004+49933+040567FM-12+008399999V0201101N00311220001CN0200001N9+00721+00001103131ADDAY101999GF103991031011012501001001MD1710101+9999MW1021
0269999999232331958051414005+36667-121600SAO  +0027SNS  V02011359001552200059N024000599+01005+00565101765ADDGD10995+9999999GD20995+9999999GD30995+9999999GD40995+9999999GF100005999999999999999999MA1999999101495EQDN01 00000JPWTH 1QNNE11 1 00099E11 1 00099E11 1 00099E11 1 00099G11U1 99999K11 1 00042L11 1 01500M11 1 29970N11 1 00000Q11 1 10176S11 1 00050V11 1 00000W11 1 34003
0094548260999991958111906004+36200+117133FM-12+130099999V0202701N00211220001CN0550001N9-00611-01611999999ADDAY121061GF107991001001999999041021KA1999N-00721MA1999999095301MD1710221+9999ME1315609MW1011
0171700260275021958021412003+71300-156783SAO  +0009BRW  V02004559003152200059N0160005N1-02895-03285103295ADDGF100005999999999999999999MA1999999103225MW1001EQDN01 00000JPWTH 1QNNG11U1 99999K11 1-00027L11 1 01000M11 1 30480N11 1 00000Q11 1 10329S11 1-00020V11 1 00000W11 1 22006
0377999999242401958032110005+48383-124733SAO  +0035TTI  V02013559005252200059N024000599+01115+00895099225ADDGA1999+004884064GA2999+999999999GA3999+999999999GA4999+999999999GD12025+9999999GD20005+9999999GD30005+9999999GD40005+9999999GF102025999999999999999999MA1999999098925EQDN01 00000JPWTH 1QNNE11 1 00202E11 1 00000E11 1 00000E11 1 00000G11U1 99999H11 1 15016H11 1 00999H11 1 00999H11 1 00999K11 1 00048L11 1 01500M11 1 29210N11 1 00000Q11 1 09922S11 1 00052V11 1 00202W11 1 44010
038899999993815195809281700E+39900-084200SAO  +031099999V02036059004152200059N024000599+01444+00335102104ADDAA101000095GA1999+013114064GA2999+999999999GA3999+999999999GA4999+999999999GD12025+9999999GD20005+9999999GD30005+9999999GD40005+9999999GF102025999999999999999999MA1999999098484EQDN01 00000JPWTH 1QNNE11 1 00202E11 1 00000E11 1 00000E11 1 00000G11U1 99999H11 1 15043H11 1 00999H11 1 00999H11 1 00999K11 1 00038L11 1 01500M11 1 29080N11 1 00000Q11 1 10210S11 1 00058V11 1 00202W11 1 11008
0269999999242191958030422005+45617-121150SAO  +0072DLS  V02029359005252200059N048000599+01225-00285101565ADDGD14995+9999999GD20995+9999999GD30995+9999999GD40995+9999999GF108075999999999999999999MA1999999100785EQDN01 00000JPWTH 1QNNE11 1 00699E11 1 00099E11 1 00099E11 1 00099G11C1 99999K11 1 00027L11 1 03000M11 1 29760N11 1 00000Q11 1 10156S11 1 00054V11 1 01009W11 1 78010
0066724088137071958013110004+39133-075467SAO  +0009KDOV V0202001N002110144019N0112001N9+00131-00091100881ADDGA1081+014409059GF108991999999999999999999MA1999999100781MW1001
038899999914943195808210000E+42400-096383SAO  +0334SUX  V02036059004152200059N024000599+02565+01335101355ADDAA101000095GA1999+030484034GA2999+999999999GA3999+999999999GA4999+999999999GD12025+9999999GD20005+9999999GD30005+9999999GD40005+9999999GF102025999999999999999999MA1999999097465EQDN01 00000JPWTH 1QNNE11 1 00202E11 1 00000E11 1 00000E11 1 00000G11U1 99999H11 1 23100H11 1 00999H11 1 00999H11 1 00999K11 1 00056L11 1 01500M11 1 28780N11 1 00000Q11 1 10135S11 1 00078V11 1 00202W11 1 11008
017699999913733195810311500E+37333-079200SAO  +029199999V02018059003152200059N064000599+01395+00225102205ADDAA101000095GF100005999999999999999999MA1999999098785EQDN01 00000JPWTH 1QNNG11U1 99999K11 1 00036L11 1 04000M11 1 29170N11 1 00000Q11 1 10220S11 1 00057V11 1 00000W11 1 55006
0058062750999991958020809004+52067+005883FM-12+005299999V0201301N00461000601CN0003001N9+00001-00111999999ADDAY121999GF108991081061000751999999MA1999999099591MW1461
038899999924221195807251700E+44117-123217SAO  +0109EUG  V02020359002652200059N012800599+02395+01395101825ADDAA101000095GA1999+999999004GA2999+999999999GA3999+999999999GA4999+999999999GD13055+9999993GD20005+9999999GD30005+9999999GD40005+9999999GF105005999999999999999999MA1999999100475EQDN01 00000JPWTH 1QNNE11 1 00306E11 1 00000E11 1 00000E11 1 00000G11U1 99999H11C1 32999H11 1 00999H11 1 00999H11 1 00999K11 1 00057L11 1 00800M11 1 29670N11 1 00000Q11 1 10182S11 1 00075V11 1 00600W11 1 56005
0269999999931291958041513005+37700-113100SAO  +171399999V02022559002152200059N048000599+00114-00395102074ADDGD10995+9999999GD20995+9999999GD30995+9999999GD40995+9999999GF100005999999999999999999MA1999999083314EQDN01 00000JPWTH 1QNNE11 1 00099E11 1 00099E11 1 00099E11 1 00099G11U1 99999K11 1 00025L11 1 03000M11 1 24600N11 1 00000Q11 1 10207S11 1 00034V11 1 00000W11 1 66004
0066718660999991958052012004+52167-106683SAO  +0501CYXE V0201131N001012200019N0240001N1+00851+00411102031ADDGA1061+066009009GF107991999999999999999999MA1999999096001MW1001
0057401910999991958110512004+31233+034783FM-12+028099999V0203401N00101007501CN0150001N9+02391+01221101611ADDAY121999GF106991051031008001071001MD1810201+9999MW1151
0111478980999991958071900004+32717+133017FM-12+003299999V0202501N00261220001CN0150001N9+02831+02441100891ADDAJ100009199999999AY101999GA1061+220009029GF106991011021004501001021IA1009MA1999999100541MD1610031+9999MW1011
0377999999216011958070517005+16733-169517SAO  +000599999V02004559008850061049N016000599+02675+02285101355ADDGA1999+006104084GA2999+048774034GA3999+999999024GA4999+999999999GD13065+9999999GD23015+9999999GD34025+9999999GD40005+9999999GF108065999999999999999999MA1999999101295EQDN01 00000JPWTH 1QNNE11 1 00407E11 1 00401E11 1 00602E11 1 00000G11 1 00020H11 1 11020H11 1 23160H11C1 37999H11 1 00999K11 1 00073L11 1 01000M11 1 29910N11 1 00000Q11 1 10135S11 1 00080V11 1 01008W11 1 22017
0066718510999991958061209004+49900-098267SAO  +0264CYPG V0203151N001512200019N0240001N1+00131-00091101511ADDGA1011+024009039GF102991999999999999999999MA1999999098311MW1001
0383724296138411958041316003+39433-083800SAO  +0321ILN  V02024859004652200059N0160005N1+01225+00445102525ADDGA1061+220009024GA2999+999999999GA3999+999999999GA4999+999999999GD13065+9999993GD20005+9999999GD30005+9999999GD40005+9999999GF106025999999999999999999MA1999999098545MW1001EQDN01 00000JPWTH 1QNNE11 1 00307E11 1 00000E11 1 00000E11 1 00000G11U1 99999H11C1 37999H11 1 00999H11 1 00999H11 1 00999K11 1 00040L11 1 01000M11 1 29100N11 1 00000Q11 1 10252S11 1 00054V11 1 00702W11 1 76009
0066718770999991958080312004+51100-114017SAO  +1079CYYC V0202481N005112200019N0640001N1+01741+00691100651ADDGA1011+018009059GF102991999999999999999999MA1999999088591MW1001
0057488810999991958072206004+11750+108383FM-12+096299999V0202701N00671007801CN0200001N9+02501+02001104891ADDAY121999GF107991071021008001001021MD1999999+0141MW1031
0029723930999991958100201004+34717-120567SAO  +0112VBG  V0203201N004610006019N0048001N9+01501+01501999999ADDGF108991999999999999999999
0066723066137131958120715004+35333-077967SAO  +0033GSB  V0200201N004112200019N0160001N9-00061-01111103011ADDGA1061+220009009GF107991999999999999999999MA1999999102571MW1001
0335999999433201958010616005+35317+139650SAO  +000899999V02029359002150304849N003200599+00395+00225101675ADDGA1999+999999104GA2999+030484044GD16025+9999999GD24065+9999999GD30995+9999999GD40995+9999999GF108085999999999999999999MA1999999101635MW1045MW2445EQDN01 07280JPWTH 1QNNE11 1 00803E11 1 00607E11 1 00099E11 1 00099G11 1 00100H11 1 45999H11 1 21100K11 1 00036L11 1 00200M11 1 30010N11 1 07280Q11 1 10167S11 1 00039V11 1 01010W11 1 78004
0057156460999991958091012004+42650+026983FM-12+019599999V0202501N00511220001CN0200001N9+02611+01111101331ADDAY101999GF101991011011012501001001MD1710211+9999MW1031
036772258013960195811141600C+32850-096850SAO  +0159DAL  V02011359002150036649N0024005N1+01785+01785100785ADDAA101010495GA1021+001224074GA2031+003664074GA3021+006714064GD12025+9999999GD23035+9999999GD34025+9999999GD40995+9999999GF108085999999999999999999MA1999999099055MW1815EQDN01 02400JPWTH 1QNNE11 1 00203E11 1 00404E11 1 00603E11 1 00099G11 1 00012H11 1 16004H11 1 16012H11 1 15022K11 1 00064L11 1 00150M11 1 29250N11 1 02400Q11 1 10078S11 1 00064V11 1 01010W11 1 34004
031399999914918195811182300E+48567-093383SAO  +0359INL  V02029359011350027449N011200599-00225-00395098795ADDAA101000095GA1999+002744064GD14085+9999999GD20995+9999999GD30995+9999999GD40995+9999999GF108085999999999999999999MA1999999094485MW1855EQDN01 05000JPWTH 1QNNE11 1 00610E11 1 00099E11 1 00099E11 1 00099G11 1 00009H11 1 15009K11 1 00025L11 1 00700M11 1 27900N11 1 05000Q11 1 09879S11 1 00028V11 1 01010W11 1 78022
039472231012916195806280400C+29983-090250SAO  +0001MSY  V02036059004152200059N0192005N1+02445+01615101925ADDAA101000095GA1061+045724034GA2999+999999999GA3999+999999999GA4999+999999999GD13065+9999993GD20005+9999999GD30005+9999999GD40005+9999999GF106025999999999999999999MA1999999101835MW1001EQDN01 00000JPWTH 1QNNE11 1 00307E11 1 00000E11 1 00000E11 1 00000G11U1 99999H11 1 23150H11 1 00999H11 1 00999H11 1 00999K11 1 00061L11 1 01200M11 1 30070N11 1 00000Q11 1 10192S11 1 00076V11 1 00703W11 1 11008
0066483270999991958011821004+18283+098983SAO  +0314VTCC V0209991C000012200019N0000001N1+01411+01241101581ADDGA1011+072009009GF102991999999999999999999MA1999999097871MW1001
0281999999242841958111909005+43417-124250SAO  +000999999V02015859002150051849N004800599+00945+00945101835ADDGD14995+9999999GD20995+9999999GD30995+9999999GD40995+9999999GF108085999999999999999999MA1999999101735MW1455MW2615EQDN01 02070JPWTH 1QNNE11 1 00699E11 1 00099E11 1 00099E11 1 00099G11 1 00017K11 1 00049L11 1 00300M11 1 30040N11 1 02070Q11 1 10183S11 1 00049V11 1 01010W11 1 54004
038899999913881195803042200E+35217-080933SAO  +0225CLT  V02029359003652200059N024000599+01335-00175101835ADDAA101000095GA1999+999999004GA2999+999999999GA3999+999999999GA4999+999999999GD13055+9999993GD20005+9999999GD30005+9999999GD40005+9999999GF105015999999999999999999MA1999999099025EQDN01 00000JPWTH 1QNNE11 1 00306E11 1 00000E11 1 00000E11 1 00000G11U1 99999H11C1 32999H11 1 00999H11 1 00999H11 1 00999K11 1 00029L11 1 01500M11 1 29240N11 1 00000Q11 1 10183S11 1 00056V11 1 00601W11 1 78007
0035725068999991958082802004+41650-070517SAO  +0043FMH  V0200681N001512200019N0160001N1+01461+01351999999ADDGF108991999999999999999999MW1001
0165999999432401958053007005+35083+128067SAO  +0008RKPS V02020359007252200059N024000599+03115+01675101245ADDGF100005999999999999999999MA1999999101195EQDN01 00000JPWTH 1QNNG11U1 99999K11 1 00062L11 1 01500M11 1 29880N11 1 00000Q11 1 10124S11 1 00088V11 1 00000W11 1 56014
0081525460999991958041221004+39383+099717FM-12+135499999V0200701N00621220001CN0090001N9+00611-01111101961ADDAY121999GF108991001001999999001071MA1999999096701MD1510071+9999ME1315209MW1061
0089239550999991958082718004+60433+077867FM-12+006099999V0200601N00311220001CN0100001N9+00781+00721102231ADDAY111999GF106991999001999999031001KA1999M+01611MD1710041+9999MW1021EQDQ01+000002SCOTLC
0070122500999991958051406004+53050+018583FM-12+007099999V0202901N00311024001CN0100001N9+01001+00281102231ADDAY121999GF106991061001999999041999KA1999N+00391MD1210021+9999MW1031
0082749117999991958042801004+53383-002650SAO  +0027EGOB V0201801N003610030019N0128001N1+00801+00631101561ADDGA1041+001509079GA2081+003009079GF108991999999999999999999MA1999999101221MW1511
0377999999416061958031801005+19283+166650SAO  +0004PWAK V02027059003650137249N024000599+02615+02005101325ADDGA1999+006104084GA2999+013724064GA3999+999999999GA4999+999999999GD12015+9999999GD23065+9999999GD30005+9999999GD40005+9999999GF106065999999999999999999MA1999999101295EQDN01 00000JPWTH 1QNNE11 1 00201E11 1 00407E11 1 00000E11 1 00000G11 1 00045H11 1 11020H11 1 15045H11 1 00999H11 1 00999K11 1 00068L11 1 01500M11 1 29910N11 1 00000Q11 1 10132S11 1 00079V11 1 00807W11 1 77007
038899999924153195811302200E+46917-114083SAO  +0972MSO  V02011359002150426749N012800599+00615+00005102715ADDAA101000095GA1999+042674034GA2999+999999999GA3999+999999999GA4999+999999999GD13065+9999999GD20005+9999999GD30005+9999999GD40005+9999999GF106055999999999999999999MA1999999091205EQDN01 00000JPWTH 1QNNE11 1 00408E11 1 00000E11 1 00000E11 1 00000G11 1 00140H11 1 23140H11 1 00999H11 1 00999H11 1 00999K11 1 00032L11 1 00800M11 1 26930N11 1 00000Q11 1 10271S11 1 00043V11 1 00806W11 1 34004
0057065850999991958070820004+50050+006017FM-12+045499999V0203601N00671220001CN9999999N9+01721+99999999999ADDGF103991999999999999999999KA1999M+02281MA1999999097261
007794139099999195808290530N-11650+133400AUST +0004     V0201135N002659999999N999999999+03115+01905999999ADDGA1005+999999999GA2005+999999999GA3055+999999999GF105995004999999999999065
0043417490999991958112816004+26250+068367AERO +003899999V0203101N00101220001CN0060001N9+99999+99999101941ADDAY101999GF100991001001999999001001MW1021
0302999999148531958122302005+42233-083533SAO  +0237YIP  V02022559007250426749N009600599+00395-00175101105ADDGA1999+042674034GD14085+9999999GD20995+9999999GD30995+9999999GD40995+9999999GF108085999999999999999999MA1999999098215MW1045EQDN01 08200JPWTH 1QNNE11 1 00610E11 1 00099E11 1 00099E11 1 00099G11 1 00140H11 1 23140K11 1 00029L11 1 00600M11 1 29000N11 1 08200Q11 1 10110S11 1 00039V11 1 01010W11 1 66014
0129719050999991958101312004+55283-077767FM-12+002099999V0200201N00211220001CN0240001N9-00111-00391102941ADDAJ199999999999999AL10600091AY181999GF108991081051008001999999KA1999M+00171KA2999N-00171MD1110041+9999MW1261EQDQ01  04472SNDP  
0308725038147141958012523003+41500-074100SAO  +0142SWF  V02009059008250045749N0080005N1+00225+00175099905ADDGA1081+004574064GD14085+9999999GD20995+9999999GD30995+9999999GD40995+9999999GF108085999999999999999999MA1999999098105MW1455MW2615EQDN01 02070JPWTH 1QNNE11 1 00610E11 1 00099E11 1 00099E11 1 00099G11 1 00015H11 1 15015K11 1 00035L11 1 00500M11 1 28970N11 1 02070Q11 1 09990S11 1 00036V11 1 01010W11 1 33016
0232999999149041958080623005+40850-096767SAO  +0356LNK  V02011359004150487749N024000599+03175+02445999999ADDGD12995+9999999GD23995+9999999GD33995+9999999GD40995+9999999GF107995999999999999999999EQDN01 00000JPWTH 1QNNE11 1 00299E11 1 00499E11 1 00499E11 1 00099G11 1 00160K11 1 00076L11 1 01500N11 1 00000S11 1 00089V11 1 00999W11 1 34008
0082716275999991958090400004+45517-073417SAO  +0031CYHU V0201581N001512200019N0240001N1+01911+01301102261ADDGA1011+042009039GA2011+075009009GF102991999999999999999999MA1999999101901MW1001
038899999994008195806130300E+48217-106617SAO  +069699999V02027059001550274349N032000599+01064+00615101504ADDAA101000095GA1999+027434034GA2999+036584034GA3999+999999004GA4999+999999999GD13055+9999999GD23005+9999999GD34035+9999999GD40005+9999999GF108055999999999999999999MA1999999093304EQDN01 00000JPWTH 1QNNE11 1 00406E11 1 00400E11 1 00604E11 1 00000G11 1 00090H11 1 23090H11 1 23120H11C1 32999H11 1 00999K11 1 00043L11 1 02000M11 1 27550N11 1 00000Q11 1 10150S11 1 00051V11 1 01006W11 1 77003
0082722435999991958013116004+29650-095283SAO  +0019HOU  V0202481N009312200019N0224001N1+02021+01461101151ADDGA1999+003601999GA2021+220001001GF102991999999999999999999MA1999999100911MW1001
0051031350999991958070407004+55500-004583SAO  +0020EGPK V0200901N004112200019N0096001N1+01851+99999999999ADDGA1011+004509999GF102991999999999999999999MW1001
0070285930999991958051318004+56100+074633FM-12+007899999V0200901N00981220001CN0040001N9+01391+00781100271ADDAY121999GF108991001001999999071999KA1999M+01781MD1710301+9999MW1601
0100085030999991958122018004+39667-031117FM-12+002999999V0203601N001519999999N0650001N9+01221+99999999999ADDAA199004091AY161999GF108991999999999999999999KA1999M+01391MD1810011+9999MW1601EQDQ01 098503APOSLP
0056417680999991958051112004+25517+069783FM-12+000699999V0203101N00151220001CN0100001N9+04501+00391099761ADDAY101999GF100991001001999999001001KA1999M+04611MW1001
0057787080999991958020912004+15450-087933FM-12+003199999V0209991C00001220001CN0400001N9+01111+01111101821ADDAY141999GF100991001001999999001001MD1210011+9999MW1101
0066717020999991958040714004+46433-063833SAO  +0024CYSU V0200681N007210012019N0006001N1+00021+00021099971ADDGA1091+001209999GF109991999999999999999999MA1999999099661MW1731
0350999999242551958122505005+99999+999999SAO  +999999999V02009059009850106749N016000599+00615+00285100375ADDGA1999+006104064GA2999+010674064GA3999+021344034GD12025+9999999GD23055+9999999GD34025+9999999GD40995+9999999GF108085999999999999999999MA1999999100175EQDN01 00000JPWTH 1QNNE11 1 00202E11 1 00406E11 1 00602E11 1 00099G11 1 00035H11 1 15020H11 1 15035H11 1 23070K11 1 00037L11 1 01000M11 1 29580N11 1 00000Q11 1 10037S11 1 00043V11 1 01010W11 1 33019
0066749022999991958022706004+40183-074067SAO  +0026BLM  V0200451N007210135019N0112001N1+00301+00081101411ADDGA1081+013509059GF108991999999999999999999MA1999999101121MW1001
0275999999148581958012108005+47167-088500SAO  +033099999V02099999000050076249N011200599-00945-01115101645ADDGD12995+9999999GD24995+9999999GD30995+9999999GD40995+9999999GF108085999999999999999999MA1999999097535MW1855EQDN01 05000JPWTH 1QNNE11 1 00299E11 1 00699E11 1 00099E11 1 00099G11 1 00025K11 1 00012L11 1 00700M11 1 28800N11 1 05000Q11 1 10164S11 1 00015V11 1 01010W11 1 00000
038899999913881195811201600E+35217-080933SAO  +0225CLT  V02033859002152200059N024000599+01445+00065102375ADDAA101000095GA1999+999999004GA2999+999999999GA3999+999999999GA4999+999999999GD10005+9999999GD20005+9999999GD30005+9999999GD40005+9999999GF100005999999999999999999MA1999999099565EQDN01 00000JPWTH 1QNNE11 1 00000E11 1 00000E11 1 00000E11 1 00000G11U1 99999H11C1 32999H11 1 00999H11 1 00999H11 1 00999K11 1 00033L11 1 01500M11 1 29400N11 1 00000Q11 1 10237S11 1 00058V11 1 00000W11 1 18004
0043489350999991958121705004+19467+103133FM-12+105099999V0203601N00411220001CN0300001N9+01891+99999999999ADDAY111999GF102991999999999999999999MW1011
0066722730031241958012600004+31567-110333SAO  +1422FHU  V0202701N002112200019N1120001N9+01501-00331101121ADDGA1011+220009019GF102991999999999999999999MA1999999085641MW1001
0394722650230231958051719003+31933-102200SAO  +0871MAF  V02004559007750152459N0160005N1+01945+01445101215ADDAA101000095GA1061+015245095GA2999+999999999GA3999+999999999GA4999+999999999GD13065+9999999GD20005+9999999GD30005+9999999GD40005+9999999GF106065999999999999999999MA1999999091475MW1805EQDN01 02300JPWTH 1QNNE11 1 00407E11 1 00000E11 1 00000E11 1 00000G11 1 00050H11 1 18050H11 1 00999H11 1 00999H11 1 00999K11 1 00058L11 1 01000M11 1 27010N11 1 02300Q11 1 10121S11 1 00067V11 1 00707W11 1 22015
0269999999231791958071420005+34767-114617SAO  +0280EED  V02022559006252200059N064000599+04225+00565100345ADDGD10995+9999999GD20995+9999999GD30995+9999999GD40995+9999999GF100005999999999999999999MA1999999097365EQDN01 00000JPWTH 1QNNE11 1 00099E11 1 00099E11 1 00099E11 1 00099G11U1 99999K11 1 00042L11 1 04000M11 1 28750N11 1 00000Q11 1 10034S11 1 00108V11 1 00000W11 1 66012
006599999923154195809080200E+39283-114850SAO  +190699999V02020359005259999999N999999999+01945+99999999999ADDAA101000095MA1999999081175QNNM11 1 23970S11 1 00067W11 1 56010
0083763420999991958051001004+26900-101417FM-12+058699999V0200501N003619999999N0400001N9+03281+01331100441ADDAY121999GF106991011011008001001021KA1999M+03501KA2999N+03111MD1610041+9999MW1011
0062325110999991958072300004+54717+160350FM-12+999999999V0201801N00311220001CN0500001N9+01721+99999100231ADDAY121999GF101991011011017501001021HL10009IA2999+00789MW1021
0057219460999991958110806004+70617+147883FM-12+004899999V0200201N00211021001CN0040001N9-02611-02611101661ADDAY171999GF106991061001022501021001MD1710041+9999MW1711
034099999913881195808311500E+35217-080933SAO  +0225CLT  V02022559002652200059N009600599+02565+02115101835ADDAA101000095GA1999+030484034GA2999+999999024GD12025+9999999GD24085+9999999GD30995+9999999GD40995+9999999GF108085999999999999999999MA1999999099125MW1055EQDN01 08100JPWTH 1QNNE11 1 00203E11 1 00610E11 1 00099E11 1 00099G11C1 99999H11 1 23100H11C1 37999K11 1 00070L11 1 00600M11 1 29270N11 1 08100Q11 1 10183S11 1 00078V11 1 01010W11 1 66005
0296999999129221958030622005+28783-097083SAO  +003599999V02011359005250045749N024000599+02065+01725100645ADDGA1999+004574064GD14085+9999999GD20995+9999999GD30995+9999999GD40995+9999999GF108085999999999999999999MA1999999100245EQDN01 00000JPWTH 1QNNE11 1 00610E11 1 00099E11 1 00099E11 1 00099G11 1 00015H11 1 15015K11 1 00063L11 1 01500M11 1 29600N11 1 00000Q11 1 10064S11 1 00069V11 1 01010W11 1 34010
031372658014922195811301400C+44883-093217SAO  +0254MSP  V02015859006750149449N0240005N9-01505-02335103295ADDAA101000095GA1081+014944064GD14085+9999999GD20995+9999999GD30995+9999999GD40995+9999999GF108085999999999999999999MA1999999099935MW1001EQDN01 00000JPWTH 1QNNE11 1 00610E11 1 00099E11 1 00099E11 1 00099G11 1 00049H11 1 15049K11 1-00010L11 1 01500M11 1 29510N11 1 00000Q11 1 10329S11 1 00005V11 1 01010W11 1 54013
0098485680999991958011305004+07200+100600SAO  +0005VTSH V0200681N003112200019N0160001N1+02911+02461101301ADDGA1031+005409089GA2021+036009039GA3071+090009009GF107991999999999999999999MA1999999101151MW1001
0081343310999991958031018004+50200+039567FM-12+009299999V0201401N00311220001CN0100001N9+00501+00391100761ADDAA199002091AY121999GF106991021041012501001011KA1999M+01001MD1710041+9999MW1021
0377999999931111958012023005+34117-119117SAO  +000499999V02020359003652200059N048000599+01674+01175101614ADDGA1999+999999004GA2999+999999999GA3999+999999999GA4999+999999999GD11045+9999993GD20005+9999999GD30005+9999999GD40005+9999999GF104005999999999999999999MA1999999101564EQDN01 00000JPWTH 1QNNE11 1 00105E11 1 00000E11 1 00000E11 1 00000G11U1 99999H11C1 32999H11 1 00999H11 1 00999H11 1 00999K11 1 00053L11 1 03000M11 1 29990N11 1 00000Q11 1 10161S11 1 00062V11 1 00500W11 1 56007
028099999924036195810050000E+47050-109450SAO  +1259LWT  V02009059002652200059N080000599+02005+00175101325ADDAA101000095GD12995+9999999GD21995+9999993GD30995+9999999GD40995+9999999GF102015999999999999999999MA1999999087135EQDN01 00000JPWTH 1QNNE11 1 00299E11 1 00199E11 1 00099E11 1 00099G11U1 99999K11 1 00035L11 1 05000M11 1 25730N11 1 00000Q11 1 10132S11 1 00068V11 1 00201W11 1 33005
0227999999146571958121523005+41683-067750SAO  +002699999V02027059015550061049N006400599+00285+99999999999ADDGD14995+9999999GD20995+9999999GD30995+9999999GD40995+9999999GF108995999999999999999999MW1445EQDN01 07200JPWTH 1QNNE11 1 00699E11 1 00099E11 1 00099E11 1 00099G11 1 00020L11 1 00400N11 1 07200S11 1 00037V11 1 01099W11 1 77030
0275999999147411958112717005+41150-079100SAO  +042799999V02024859005250061049N019200599-00225-00675102515ADDGD13995+9999999GD20995+9999999GD30995+9999999GD40995+9999999GF106065999999999999999999MA1999999097225MW1855EQDN01 05000JPWTH 1QNNE11 1 00499E11 1 00099E11 1 00099E11 1 00099G11 1 00020K11 1 00020L11 1 01200M11 1 28710N11 1 05000Q11 1 10251S11 1 00028V11 1 00707W11 1 76010
0081535460999991958082003004+39283+109750FM-12+131099999V0200701N00311036001CN0400001N9+02391+00781101071ADDAY121999GF106991011011008001031021MA1999999097001MD1810011+9999ME1315109MW1031
0122478940999991958063006004+33850+134100FM-12+194799999V0203401N003119999999N0010001N9+01721+01671999999ADDAA106000591AJ100009199999999AY101999GA1999+999999039GF107991031021999999999999IA1089MA1999999080971MD1310031+9999MW1411
0238722235138381958112117003+30633-088067SAO  +0009BFM  V02036059004152200059N0240005N1+01945+00725999999ADDGD10995+9999999GD20995+9999999GD30995+9999999GD40995+9999999GF100995999999999999999999MW1001EQDN01 00000JPWTH 1QNNE11 1 00099E11 1 00099E11 1 00099E11 1 00099G11U1 99999K11 1 00045L11 1 01500N11 1 00000S11 1 00067V11 1 00099W11 1 11008
0070570830999991958012218004+34717+113717FM-12+010999999V0201801N00211220001CN0140001N9-01001-01221104651ADDAY101999GF100991001001999999001001KA1999M-00111MD1810011+9999MW1021
038899999914778195811042200E+41250-076917SAO  +0160IPT  V02099999000052200059N012800599+01225+00615101425ADDAA101000095GA1999+999999004GA2999+999999999GA3999+999999999GA4999+999999999GD13075+9999999GD20005+9999999GD30005+9999999GD40005+9999999GF107065999999999999999999MA1999999099495EQDN01 00000JPWTH 1QNNE11 1 00409E11 1 00000E11 1 00000E11 1 00000G11C1 99999H11C1 32999H11 1 00999H11 1 00999H11 1 00999K11 1 00043L11 1 00800M11 1 29380N11 1 00000Q11 1 10142S11 1 00054V11 1 00907W11 1 00000
0171722085938311958011900003+32467-080717SAO  +0006NBC  V02027059002652200059N0240005N1+00675-00175101535ADDGF100005999999999999999999MA1999999101355MW1001EQDN01 00000JPWTH 1QNNG11U1 99999K11 1 00029L11 1 01500M11 1 29930N11 1 00000Q11 1 10153S11 1 00044V11 1 00000W11 1 77005
0377999999264031958012513005+64850-147583SAO  +0148FBK  V02099999000052200059N048000599-02615-02945099975ADDGA1999+000304104GA2999+999999999GA3999+999999999GA4999+999999999GD10005+9999999GD20005+9999999GD30005+9999999GD40005+9999999GF100005999999999999999999MA1999999098075EQDN01 00000JPWTH 1QNNE11 1 00000E11 1 00000E11 1 00000E11 1 00000G11U1 99999H11 1 98001H11 1 00999H11 1 00999H11 1 00999K11 1-00021L11 1 03000M11 1 28960N11 1 00000Q11 1 09997S11 1-00015V11 1 00000W11 1 00000
038899999924131195805061400E+43567-116217SAO  +087199999V02031559004150304849N048000599+00895+00565101155ADDAA101000095GA1999+012194064GA2999+030484034GA3999+999999004GA4999+999999999GD13005+9999999GD23065+9999999GD30015+9999999GD40005+9999999GF106065999999999999999999MA1999999091265EQDN01 00000JPWTH 1QNNE11 1 00400E11 1 00407E11 1 00001E11 1 00000G11 1 00100H11 1 15040H11 1 23100H11C1 32999H11 1 00999K11 1 00042L11 1 03000M11 1 26950N11 1 00000Q11 1 10115S11 1 00048V11 1 00808W11 1 88008
0076301510999991958061312004+58850+112900FM-12+020199999V0209991C00001220001CN0500001N9+01501+01281101921ADDAY191999GF107991999001999999021001MD1310311+9999MW1011EQDQ01+000002SCOTLC
0275723676230481958091021003+35183-103600SAO  +1236TCC  V02009059002652200059N0480005N1+02785+01505101185ADDGD12995+9999999GD20995+9999999GD30995+9999999GD40995+9999999GF102025999999999999999999MA1999999087885MW1001EQDN01 00000JPWTH 1QNNE11 1 00299E11 1 00099E11 1 00099E11 1 00099G11U1 99999K11 1 00059L11 1 03000M11 1 25950N11 1 00000Q11 1 10118S11 1 00082V11 1 00202W11 1 33005
0076203860999991958110112004+76600+097667FM-12+999999999V0202001N00871220001CN0100001N9-02501-02781100191ADDAY131999GF107991999001999999031001MD1710181+9999MW1361EQDQ01+000002SCOTLC
0085488600999991958101807004+16550+111617SAO  +000699999V0200231N008210060019N0144001N1+02801+99999100931ADDGA1071+006009999GF107991999999999999999999MA1999999100851MW1001EQDQ01+999990APOSLP
0070547360999991958021018004+37267+118867FM-12+999999999V0203401N00621220001CN0150001N9-00611-01221102621ADDAY101061GF100991001001999999001001KA1999M+00221MD1710031+9999MW1021
0238722785231111958102414003+33533-112383SAO  +0333LUF  V02099999000052200059N0400005N9+01725+01615999999ADDGD12995+9999999GD23995+9999999GD30995+9999999GD40995+9999999GF105995999999999999999999MW1001EQDN01 00000JPWTH 1QNNE11 1 00299E11 1 00499E11 1 00099E11 1 00099G11C1 99999K11 1 00061L11 1 02500N11 1 00000S11 1 00063V11 1 00699W11 1 00000
0066719320999991958062406004+56750-111150SAO  +0371CYMM V0201131N002112200019N0240001N1+01191+00191101571ADDGA1021+075009009GF102991999999999999999999MA1999999097091MW1001
0098042310999991958062606004+67017-050800SAO  +0050BGSF V0200681N001510180019N0240001N1+00521+00191101461ADDGA1011+010809059GA2051+999999059GA3021+220009029GF107991999999999999999999MA1999999100811MW1001
0035701730999991958122423004+66050-153750SAO  +0392PAIM V0209991C000010060019N0112001N9-01151-01371999999ADDGF108991999999999999999999MW1711
017672311913886195804070500B+34850-082350SAO  +031699999V02024859004652200059N016000599+01565+00115099735ADDAA101000095GF100005999999999999999999MA1999999096115EQDN01 00000JPWTH 1QNNG11U1 99999K11 1 00034L11 1 01000M11 1 28380N11 1 00000Q11 1 09973S11 1 00060V11 1 00000W11 1 76009
0269999999116241958080205005+17700-064800SAO  +001799999V02004559003652200059N024000599+02675+02285101525ADDGD12995+9999999GD20995+9999999GD30995+9999999GD40995+9999999GF102025999999999999999999MA1999999101325EQDN01 00000JPWTH 1QNNE11 1 00299E11 1 00099E11 1 00099E11 1 00099G11U1 99999K11 1 00073L11 1 01500M11 1 29920N11 1 00000Q11 1 10152S11 1 00080V11 1 00303W11 1 22007
0302722785231111958032806003+33533-112383SAO  +0333LUF  V02020359007750152449N0160005N9+01285+01005100525ADDGA1081+015244064GD14085+9999999GD20995+9999999GD30995+9999999GD40995+9999999GF108085999999999999999999MA1999999096615MW1805EQDN01 02300JPWTH 1QNNE11 1 00610E11 1 00099E11 1 00099E11 1 00099G11 1 00050H11 1 15050K11 1 00050L11 1 01000M11 1 28530N11 1 02300Q11 1 10052S11 1 00055V11 1 01010W11 1 56015
0210999999947411958110823005+40850-074050SAO  +0002TEB  V02018059002650304849N024000599+99999+99999999999ADDGD13995+9999999GD20995+9999999GD30995+9999999GD40995+9999999GF106995999999999999999999EQDN01 00000JPWTH 1QNNE11 1 00499E11 1 00099E11 1 00099E11 1 00099G11 1 00100L11 1 01500N11 1 00000V11 1 00899W11 1 55005
0011478290999991958013009004+31733+131083FM-12+015599999V0202701N002119999999N9999999N9+00611+99999999999ADDAY101999
017699999904725195810180200E+42217-075983SAO  +0485BGM  V02033859003152200059N024000599+01065+00225101405ADDAA101000095GF100005999999999999999999MA1999999095535EQDN01 00000JPWTH 1QNNG11U1 99999K11 1 00036L11 1 01500M11 1 28210N11 1 00000Q11 1 10140S11 1 00051V11 1 00000W11 1 18006
0058062000999991958022212004+52033+004350FM-12+000499999V0203101N004119999999N0300001N9+00501-00281999999ADDAY111999GF105991041091008001001041MA1999999101091MW1011
0081528950999991958011300004+36600+104483FM-12+140599999V0200401N00511220001CN0180001N9-00721-01611102931ADDAY121999GF108991001001999999001071MA1999999096301MD1210091+9999ME1315309MW1021
0050722576039021958040409004+31067-097817SAO  +0309GRK  V0201801N003112200019N0240001N9+01301+00631100331ADDGF100991999999999999999999MA1999999096751MW1001
0011476660999991958041421004+34600+138850FM-12+005699999V0202901N009319999999N9999999N9+00721+99999999999ADDAY101999
0173999999216011958072509005+16733-169517SAO  +000599999V02004559006252200049N016000599+99999+99999999999ADDGD12995+9999999GD20995+9999999GD30995+9999999GD40995+9999999EQDN01 00000JPWTH 1QNNE11 1 00299E11 1 00099E11 1 00099E11 1 00099G11U1 99999L11 1 01000N11 1 00000W11 1 22012
0029742060242071958122816004+47150-122483SAO  +0098TCM  V0201801N002110099019N0241401N9+00561+00331999999ADDGF108991999999999999999999
0057133880999991958072400004+43333+021900FM-12+020299999V0203401N00311090001CN0200001N9+02111+01501101321ADDAY121999GF106991011051012501031061MD1010001+9999MW1031
0093873120999991958062500004-31583-068533FM-12+063099999V0209991C00001220001CN0200001N9+00891+00501099841ADDAJ100009199999999AY101999GF100991001001999999001001IA1009KA1999M+01781MD1310191+9999MW1021
0035037720999991958030204004+51483-000450FM-12+002599999V0203201N000519999999N0012001N9+00611+00561999999ADDGF108991999999999999999999MW1041
0066106370999991958062122004+50033+008583SAO  +0110EDDF V0202001N004112200019N0224001N9+01221+01111100551ADDGA1011+021009059GF102991999999999999999999MA1999999099221MW1001
0377999999127121958060111005+26617-078367SAO  +0006MYGM V02011359003152200059N016000599+02445+02115101355ADDGA1999+004884084GA2999+999999999GA3999+999999999GA4999+999999999GD12035+9999999GD20005+9999999GD30005+9999999GD40005+9999999GF103035999999999999999999MA1999999101295EQDN01 00000JPWTH 1QNNE11 1 00204E11 1 00000E11 1 00000E11 1 00000G11U1 99999H11 1 11016H11 1 00999H11 1 00999H11 1 00999K11 1 00070L11 1 01000M11 1 29910N11 1 00000Q11 1 10135S11 1 00076V11 1 00404W11 1 34006
006094129099999195808050530N-11320+131770AUST +0020     V0201135N007259999999N999999999+02945+01705999999ADDGA1055+006005085GF105995054015006005999999MA1999999100885
0377999999939011958032819005+32733-096967SAO  +0150NBE  V02015859007752200059N024000599+01834+01225101174ADDGA1999+009144084GA2999+999999004GA3999+999999999GA4999+999999999GD12025+9999999GD21025+9999993GD30005+9999999GD40005+9999999GF104025999999999999999999MA1999999099494EQDN01 00000JPWTH 1QNNE11 1 00202E11 1 00103E11 1 00000E11 1 00000G11U1 99999H11 1 11030H11C1 32999H11 1 00999H11 1 00999K11 1 00054L11 1 01500M11 1 29380N11 1 00000Q11 1 10117S11 1 00065V11 1 00502W11 1 54015
040472363023047195808101900C+35233-101700SAO  +1100AMA  V02022559005252200059N0240005N1+03115+01505101325ADDAA101000095GA1999+018904084GA2999+033534034GA3011+045724034GD12005+9999999GD22005+9999999GD30015+9999999GD40005+9999999GF101015999999999999999999MA1999999089375EQDQ01    003SCCGA1Q02    003SCCGA2N01 00000JPWTH 1QNNE11 1 00200E11 1 00200E11 1 00001E11 1 00000G11U1 99999H11 1 11062H11 1 23110H11 1 23150H11C1 32999K11 1 00059L11 1 01500M11 1 26390N11 1 00000Q11 1 10132S11 1 00088V11 1 00101W11 1 66010
030799999924149195811221400E+46383-117017SAO  +043399999V02099999000050000049N000000599+00285+00285101945ADDAA101000095GA1999+000004104GD15085+9999999GD20995+9999999GD30995+9999999GD40995+9999999GF108085999999999999999999MA1999999096685EQDN01 00000JPWTH 1QNNE11 1 00710E11 1 00099E11 1 00099E11 1 00099G11 1 00000H11 1 45000K11 1 00037L11 1 00000M11 1 28550N11 1 00000Q11 1 10194S11 1 00037V11 1 01010W11 1 00000
0057470690999991958111109004+38033+125717FM-12+008199999V0209991C00001220001CN0200001N9+00721-00891102771ADDAY121999GF108991001001999999011021MD1410001+9999MW1021
0083718420999991958032206004+50117-091900FM-12+037499999V0200901N00361220001CN0240001N9-00671-01331102571ADDAY101999GF100991001001999999001001KA1999M+00281KA2999N-00671MD1510011+9999MW1021
0011477630999991958011409004+34050+131533FM-12+000499999V0200901N003119999999N9999999N9+01331+99999999999ADDAY101999
017699999913897195802241100E+36117-086683SAO  +0177BNA  V02009059002152200059N024000599+00065-00175101495ADDAA101000095GF100005999999999999999999MA1999999099295EQDN01 00000JPWTH 1QNNG11U1 99999K11 1 00029L11 1 01500M11 1 29320N11 1 00000Q11 1 10149S11 1 00033V11 1 00000W11 1 33004
0269999999242301958012123005+44267-121150SAO  +0934RDM  V02029359003152200059N072000599+00445-00725102345ADDGD12995+9999999GD22995+9999999GD34995+9999993GD40995+9999999GF108025999999999999999999MA1999999091305EQDN01 00000JPWTH 1QNNE11 1 00299E11 1 00299E11 1 00599E11 1 00099G11U1 99999K11 1 00019L11 1 04500M11 1 26960N11 1 00000Q11 1 10234S11 1 00040V11 1 01002W11 1 78006
031999999914740195811180000E+41933-072683SAO  +006599999V02099999000050012249N004000599+00725+00725102375ADDAA101000095GA1999+001224074GD14085+9999999GD20995+9999999GD30995+9999999GD40995+9999999GF108085999999999999999999MA1999999101695MW1455MW2515EQDN01 03370JPWTH 1QNNE11 1 00610E11 1 00099E11 1 00099E11 1 00099G11 1 00004H11 1 16004K11 1 00045L11 1 00250M11 1 30030N11 1 03370Q11 1 10237S11 1 00045V11 1 01010W11 1 00000
0076154200999991958072718004+44483+026133FM-12+009299999V0209991C00001220001CN0300001N9+02391+01111101371ADDAY101999GF101991999001999999041001MD1610051+9999MW1021EQDQ01+000002SCOTLC
0057939860999991958120618004-43967-176517FM-12+004899999V0209991C00001015001CN0200001N9+01001+99999102151ADDAY151999GF108991081051017501999999MD1210101+9999MW1021
0057601010999991958102412004+35717-005900FM-12+001599999V0201001N01491220001CN0250001N9+02221+00891102141ADDAY111999GF102991011011008001041021MD1210031+9999MW1011
0165999999231961958042409005+32583-116983SAO  +015999999V02013559003152200059N024000599+01065+00895101275ADDGF100005999999999999999999MA1999999099425EQDN01 00000JPWTH 1QNNG11U1 99999K11 1 00048L11 1 01500M11 1 29360N11 1 00000Q11 1 10127S11 1 00051V11 1 00000W11 1 44006
