0056432450999991959081612004+14450+079983FM-12+002099999V0201801N00261045001CN0200001N9+03001+02001100331ADDAY121999GF106991031041012501021011KA1999M+03781MW1021
038899999924023195911230300E+41133-100683SAO  +0846LBF  V02029359001052200059N024000599-00395-00895101525ADDAA101000095GA1999+999999004GA2999+999999999GA3999+999999999GA4999+999999999GD11015+9999993GD20005+9999999GD30005+9999999GD40005+9999999GF101005999999999999999999MA1999999091505EQDN01 00000JPWTH 1QNNE11 1 00101E11 1 00000E11 1 00000E11 1 00000G11U1 99999H11C1 32999H11 1 00999H11 1 00999H11 1 00999K11 1 00016L11 1 01500M11 1 27020N11 1 00000Q11 1 10152S11 1 00025V11 1 00100W11 1 78002
038899999924090195904280500E+44050-103067SAO  +0964RAP  V02031559004152200059N024000599+00725-00335101255ADDAA101000095GA1999+999999024GA2999+999999999GA3999+999999999GA4999+999999999GD11045+9999993GD20005+9999999GD30005+9999999GD40005+9999999GF104025999999999999999999MA1999999090155EQDN01 00000JPWTH 1QNNE11 1 00105E11 1 00000E11 1 00000E11 1 00000G11U1 99999H11C1 37999H11 1 00999H11 1 00999H11 1 00999K11 1 00026L11 1 01500M11 1 26620N11 1 00000Q11 1 10125S11 1 00045V11 1 00502W11 1 88008
0058683440999991959020412004+27833+025900FM-12+125099999V0203601N00151220001CN0200001N9+03061+01441999999ADDAY121999GF102991021021008001001001MA1999999087671MW1051
004672311913886195912241900A+34850-082350SAO  +0319GMU  V0200231N003610042019N0112001N1+00241-00151999999ADDAA101000095GF108991999999999999999999MW1001
0302999999137301959060112005+39417-077383SAO  +0094FDK  V02011359005250024449N002400599+01675+01505101805ADDGA1999+002444074GD14085+9999999GD20995+9999999GD30995+9999999GD40995+9999999GF108085999999999999999999MA1999999100645MW1455EQDN01 07000JPWTH 1QNNE11 1 00610E11 1 00099E11 1 00099E11 1 00099G11 1 00008H11 1 16008K11 1 00059L11 1 00150M11 1 29720N11 1 07000Q11 1 10180S11 1 00062V11 1 01010W11 1 34010
038899999914941195904231500E+41983-097433SAO  +0471OFK  V02018059006752200059N024000599+01285+00395100805ADDAA101000095GA1999+042674034GA2999+999999024GA3999+999999999GA4999+999999999GD12025+9999999GD23065+9999999GD30005+9999999GD40005+9999999GF107055999999999999999999MA1999999095295EQDN01 00000JPWTH 1QNNE11 1 00202E11 1 00407E11 1 00000E11 1 00000G11C1 99999H11 1 23140H11C1 37999H11 1 00999H11 1 00999K11 1 00039L11 1 01500M11 1 28140N11 1 00000Q11 1 10080S11 1 00055V11 1 00906W11 1 55013
0377999999130251959030921005+36650-006350SAO  +0027LERT V02027059008252200059N019200599+01395+01115101295ADDGA1999+024384034GA2999+999999004GA3999+999999999GA4999+999999999GD12015+9999999GD21025+9999993GD30005+9999999GD40005+9999999GF102015999999999999999999MA1999999100985EQDN01 00000JPWTH 1QNNE11 1 00201E11 1 00102E11 1 00000E11 1 00000G11U1 99999H11 1 23080H11C1 32999H11 1 00999H11 1 00999K11 1 00052L11 1 01200M11 1 29820N11 1 00000Q11 1 10129S11 1 00057V11 1 00301W11 1 77016
039472464093058195903081200C+38283-104500SAO  +1416PUB  V02031559006252200059N0240005N9+00005-01065101515ADDAA101000095GA1011+030484034GA2999+999999999GA3999+999999999GA4999+999999999GD12015+9999999GD20005+9999999GD30005+9999999GD40005+9999999GF101015999999999999999999MA1999999085475MW1001EQDN01 00000JPWTH 1QNNE11 1 00201E11 1 00000E11 1 00000E11 1 00000G11U1 99999H11 1 23100H11 1 00999H11 1 00999H11 1 00999K11 1 00013L11 1 01500M11 1 25240N11 1 00000Q11 1 10151S11 1 00032V11 1 00101W11 1 88012
0057509630999991959101621004+45967+128733FM-12+010999999V0202701N00101220001CN0250001N9+00111+00001102421ADDAY121999GF105991001001999999001021MD1210041+9999MW1011
038899999923043195906281400E+33400-104533SAO  +1106RNM  V02004559001552200059N040000599+02505+02005100955ADDAA101000095GA1999+999999004GA2999+999999999GA3999+999999999GA4999+999999999GD10005+9999999GD20005+9999999GD30005+9999999GD40005+9999999GF100005999999999999999999MA1999999089065EQDN01 00000JPWTH 1QNNE11 1 00000E11 1 00000E11 1 00000E11 1 00000G11U1 99999H11C1 32999H11 1 00999H11 1 00999H11 1 00999K11 1 00068L11 1 02500M11 1 26300N11 1 00000Q11 1 10095S11 1 00077V11 1 00000W11 1 22003
0057380190999991959090321004+44150+053350FM-12+999999999V0203201N00511220001CN0100001N9+01721+01111999999ADDAY101999GF100991001001999999001001MD1210051+9999MW1021
0081303200999991959072100004+56800+105800FM-12+999999999V0209991C000019999999N0200001N9+01221+00781100371ADDAA199000091AY141999GF107991071999999999999999KA1999N+00781MD1310131+9999MW1031
0302999999275121959022012005+70917-153250SAO  +0009LNI  V02027059006250000049N000800599-01895-02285100415ADDGA1999+000004104GD15085+9999999GD20995+9999999GD30995+9999999GD40995+9999999GF108085999999999999999999MA1999999100345MW1385EQDN01 08400JPWTH 1QNNE11 1 00710E11 1 00099E11 1 00099E11 1 00099G11 1 00000H11 1 98000K11 1-00009L11 1 00050M11 1 29630N11 1 08400Q11 1 10041S11 1-00002V11 1 01010W11 1 77012
0117304050999991959123106004+55383+100967FM-12+039499999V0202901N00821220001CN0040001N9-00721-01001101911ADDAA106012091AA299003091AY171999GF108991001001999999021999HL10009IA1319IA2999-01399KA1999N-01391MD1310191+9999MW1731
0269999999253331959013000005+57067-135350SAO  +000599999V02031559004650091449N024000599+00395+00115101865ADDGD13995+9999999GD24995+9999999GD30995+9999999GD40995+9999999GF108085999999999999999999MA1999999101595EQDN01 00000JPWTH 1QNNE11 1 00499E11 1 00699E11 1 00099E11 1 00099G11 1 00030K11 1 00034L11 1 01500M11 1 30000N11 1 00000Q11 1 10186S11 1 00039V11 1 01010W11 1 88009
009294999900095195905130230N-30150+131580AUST +0290     V0200235N006259999999N999999999+01995+00205999999ADDGA1005+999999999GA2025+999999045GA3065+999999999GF107995004999999999035065MA1999999098865
0232999999129311959030316005+29350-098450SAO  +0182BRX  V02002359010852200059N024000599+01395-00505999999ADDGD10995+9999999GD20995+9999999GD30995+9999999GD40995+9999999GF100995999999999999999999EQDN01 00000JPWTH 1QNNE11 1 00099E11 1 00099E11 1 00099E11 1 00099G11U1 99999K11 1 00023L11 1 01500N11 1 00000S11 1 00057V11 1 00099W11 1 12021
0377999999405051959102413005+07467+151850SAO  +000299999V02033859002150048849N024000599+02835+02505101125ADDGA1999+004884084GA2999+999999024GA3999+999999999GA4999+999999999GD13055+9999999GD24085+9999999GD30005+9999999GD40005+9999999GF108065999999999999999999MA1999999101085EQDN01 00000JPWTH 1QNNE11 1 00406E11 1 00610E11 1 00000E11 1 00000G11 1 00016H11 1 11016H11C1 37999H11 1 00999H11 1 00999K11 1 00077L11 1 01500M11 1 29850N11 1 00000Q11 1 10112S11 1 00083V11 1 01007W11 1 18004
0070541810999991959112918004+43717+127150FM-12+027599999V0202001N00411012301CN0210001N9+00391-00221102361ADDAY121061GF108991081051012501999999KA1999M+00611MD1210041+9999MW1031
0081320690999991959081012004+50050+142167FM-12+005599999V0209991C00001220001CN0500001N9+01611+01391101161ADDAA199000091AY101999GF103991021051017501001011KA1999M+02001MD1210181+9999MW1021
0165999999139571959032308005+32467-093817SAO  +0077SHV  V02013559003652200059N024000599+00785+00065102165ADDGF100005999999999999999999MA1999999101225EQDN01 00000JPWTH 1QNNG11U1 99999K11 1 00033L11 1 01500M11 1 29890N11 1 00000Q11 1 10216S11 1 00046V11 1 00000W11 1 44007
0377999999407101959111610005+07083+171383SAO  +000399999V02033859004152200059N024000599+02785+02395101125ADDGA1999+005494084GA2999+030484034GA3999+999999024GA4999+999999999GD12025+9999999GD22025+9999999GD34085+9999999GD40005+9999999GF108065999999999999999999MA1999999101085EQDN01 00000JPWTH 1QNNE11 1 00202E11 1 00202E11 1 00610E11 1 00000G11C1 99999H11 1 11018H11 1 23100H11C1 37999H11 1 00999K11 1 00075L11 1 01500M11 1 29850N11 1 00000Q11 1 10112S11 1 00082V11 1 01008W11 1 18008
039472785024157195906231300C+47617-117517SAO  +0721GEG  V02015859004150365849N0400005N1+01285+00395101155ADDAA101000095GA1071+036584034GA2011+220009004GA3999+999999999GA4999+999999999GD13075+9999999GD24015+9999999GD30005+9999999GD40005+9999999GF108075999999999999999999MA1999999092925MW1001EQDN01 00000JPWTH 1QNNE11 1 00409E11 1 00601E11 1 00000E11 1 00000G11 1 00120H11 1 23120H11C1 32999H11 1 00999H11 1 00999K11 1 00039L11 1 02500M11 1 27440N11 1 00000Q11 1 10115S11 1 00055V11 1 01009W11 1 54008
0275727935242341959030101003+47533-122300SAO  +0010BIF  V02020359008250121949N0240005N1+01285+00945102105ADDGD12995+9999999GD22995+9999999GD33995+9999999GD44995+9999999GF108085999999999999999999MA1999999102005MW1001EQDN01 00000JPWTH 1QNNE11 1 00299E11 1 00299E11 1 00499E11 1 00699G11 1 00040K11 1 00049L11 1 01500M11 1 30120N11 1 00000Q11 1 10210S11 1 00055V11 1 01010W11 1 56016
0081584720999991959052618004+30850+122667FM-12+006799999V0200401N00621000151CN0200001N9+01391+01281100871ADDAA106002091AY141999GF108991081071000251999999KA1999M+01781MD1710071+9999MW1611
0232723520139021959060711003+34650-099267SAO  +0414LTS  V02099999000052200059N0192005N9+02005+01835999999ADDGD10995+9999999GD20995+9999999GD30995+9999999GD40995+9999999GF100995999999999999999999EQDN01 00000JPWTH 1QNNE11 1 00099E11 1 00099E11 1 00099E11 1 00099G11U1 99999K11 1 00065L11 1 01200N11 1 00000S11 1 00068V11 1 00099W11 1 00000
0035702720999991959080514004+61250-149800SAO  +0065PAED V0203601N003610180019N0560001N9+01241+01071999999ADDGF108991999999999999999999MW1001
0081519310999991959100609004+36833+081483FM-12+999999999V0202901N00211220001CN0400001N9+02391-00221100101ADDAY121999GF107991001001999999071021MA1999999095001MD1510111+9999ME1314609MW1031
0057237010999991959121400004+62983+050900FM-12+009499999V0202701N00311007801CN0040001N9-01111-01221102321ADDAY171999GF108991081001008001021999MD1210241+9999MW1711
0082718560999991959112400004+50633-097050SAO  +0221CYGM V0200231N005710045019N0240001N1-00371-00591100781ADDGA1061+004509059GA2021+015009059GF108991999999999999999999MA1999999098041MW1001
007794541099999195906210500N-29780+151120AUST +0604     V0201805N001059999999N999999999+01945+00905999999ADDGA1045+013505095GA2005+999999999GA3045+999999999GF108995044035013505999015
0043489400999991959042018004+17950+102567FM-12+017099999V0200501N001019999999N0050001N9+02501+02331100771ADDAY141999GF107991999999999999999999MW1101
039499999914764195906300300E+43650-070317SAO  +002499999V02004559003152200059N002400599+01505+01505100785ADDAA101000095GA1999+999999004GA2999+999999999GA3999+999999999GA4999+999999999GD11025+9999993GD20005+9999999GD30005+9999999GD40005+9999999GF102015999999999999999999MA1999999100545MW1445EQDN01 07200JPWTH 1QNNE11 1 00103E11 1 00000E11 1 00000E11 1 00000G11U1 99999H11C1 32999H11 1 00999H11 1 00999H11 1 00999K11 1 00059L11 1 00150M11 1 29690N11 1 07200Q11 1 10078S11 1 00059V11 1 00301W11 1 22006
0057310830999991959050421004+59967+144800FM-12+999999999V0200201N00211004501CN0040001N9-00111-00281101111ADDAY171999GF108991081001004501021999MD1210061+9999MW1711
0383722210138581959111815003+30483-086517SAO  +0040VPS  V02002359005752200059N0160005N9+00505-01005102685ADDGA1011+012194064GA2999+999999999GA3999+999999999GA4999+999999999GD12015+9999999GD20005+9999999GD30005+9999999GD40005+9999999GF101015999999999999999999MA1999999102275MW1001EQDN01 00000JPWTH 1QNNE11 1 00201E11 1 00000E11 1 00000E11 1 00000G11U1 99999H11 1 15040H11 1 00999H11 1 00999H11 1 00999K11 1 00014L11 1 01000M11 1 30200N11 1 00000Q11 1 10268S11 1 00041V11 1 00101W11 1 12011
0043786630999991959110909004+13700-089117FM-12+0616MSSS V0203401N00511220001CN0200001N9+01891+01721999999ADDGF199999011051012501001001MD1710181+9999
0066719450999991959071006004+58833-122583SAO  +0375CYYE V0209991C000012200019N0800001N1+01911+01241101791ADDGA1021+027009039GF102991999999999999999999MA1999999097321MW1001
0082722675230211959081618004+33600-102033SAO  +1012REE  V0202001N006210450019N0240001N9+02831+01891100961ADDGA1051+045009039GA2031+220009029GF108991999999999999999999MA1999999089841MW1001
0125209670999991959043006004+70150+070750FM-12+999999999V0202001N00721004501CN0002001N9-01281-01391999999ADDAA199999999AY141999GF108991061071004501021999HL10009IA1319IA2999-02399KA1999N-02221MD1710391+9999MW1711EQDQ01  00002PRCP99
0043010230999991959020305004+69067+018517FM-12+007699999V0202801N00211012301CN0300001N9+99999+99999999999ADDAY121999GF108991081051012501999999MW1021
0035722406999991959030802004+31050-093200SAO  +0104POE  V0209991C000012200019N0160001N1+01351+00631999999ADDGF100991999999999999999999MW1001
0232999999432141959061906005+36450+127433SAO  +0040RKTD V02036059006250091449N019200599+02615+01445999999ADDGD13995+9999999GD20995+9999999GD30995+9999999GD40995+9999999GF107995999999999999999999EQDN01 00000JPWTH 1QNNE11 1 00499E11 1 00099E11 1 00099E11 1 00099G11 1 00030K11 1 00058L11 1 01200N11 1 00000S11 1 00079V11 1 00999W11 1 11012
0057276790999991959031906004+54850+044600FM-12+010799999V0202501N00311007801CN0200001N9+00111-00111101911ADDAY181999GF107991071051008001001001MD1310011+9999MW1021
033499999924243195901051000E+46567-120533SAO  +032499999V02031559002650024449N002400599-01175-01445101075ADDAA101001095GA1999+002444104GA2999+999999999GD15085+9999999GD20995+9999999GD30995+9999999GD40995+9999999GF108085999999999999999999MA1999999097025EQDN01 00000JPWTH 1QNNE11 1 00710E11 1 00099E11 1 00099E11 1 00099G11 1 00008H11 1 98008H11 1 99999K11 1 00006L11 1 00150M11 1 28650N11 1 00000Q11 1 10107S11 1 00011V11 1 01010W11 1 88005
0066745980137021959061421004+37083-076350SAO  +0003LFI  V0203201N007712200019N0160001N9+02391+00441101291ADDGA1001+999999999GF100991999999999999999999MA1999999101221MW1001
0232999999432631959110404005+33200+126267SAO  +0013RKPM V02013559002652200059N024000599+02175+01615999999ADDGD10995+9999999GD20995+9999999GD30995+9999999GD40995+9999999GF100995999999999999999999EQDN01 00000JPWTH 1QNNE11 1 00099E11 1 00099E11 1 00099E11 1 00099G11U1 99999K11 1 00061L11 1 01500N11 1 00000S11 1 00071V11 1 00099W11 1 44005
0050070881340641959090621001+49233+005683SAO  +0237LETI V0209991C000012200019N0176001N1+01571+00961101961ADDGF100991999999999999999999MA1999999099191MW1001
0165999999149471959051705005+44883-093217SAO  +0255MSP  V02018059001052200059N024000599+01445+00395101255ADDGF100005999999999999999999MA1999999098175EQDN01 00000JPWTH 1QNNG11U1 99999K11 1 00039L11 1 01500M11 1 28990N11 1 00000Q11 1 10125S11 1 00058V11 1 00000W11 1 55002
0057589110999991959111300004+25750+116333FM-12+031899999V0203201N00311007801CN0270001N9+00891+00281102361ADDAY121999GF108991081051008001999999MD1110111+9999MW1021
0067031350999991959011218004+55500-004583SAO  +0020EGPK V0203151N003112200019N0064001N1+00241-00091100501ADDGA1011+008409059GA2999+150009999GF102991999999999999999999MW1041
0171722970231291959121023003+33817-118150SAO  +0013LGB  V02020359005252200059N0240005N1+01725+01065101865ADDGF100005999999999999999999MA1999999101795MW1001EQDN01 00000JPWTH 1QNNG11U1 99999K11 1 00051L11 1 01500M11 1 30060N11 1 00000Q11 1 10186S11 1 00063V11 1 00000W11 1 56010
0121061490999991959080718004+54567+011967FM-12+000899999V0202701N00671013501CN0200001N9+02001+01611101751ADDAY121999GA1061+013509059GF106991061051012501001001KA1999M+02281MD1710041+9999MW1021EQDQ01+000042APCTENQ02+000062APC3  
039472353013967195907291400C+35400-097600SAO  +0390OKC  V02020359005752200059N0240005N1+02565+02285101665ADDAA101000095GA1021+012194084GA2021+030484034GA3999+999999999GA4999+999999999GD12025+9999999GD22025+9999999GD30005+9999999GD40005+9999999GF103035999999999999999999MA1999999097125MW1001EQDN01 00000JPWTH 1QNNE11 1 00202E11 1 00202E11 1 00000E11 1 00000G11U1 99999H11 1 11040H11 1 23100H11 1 00999H11 1 00999K11 1 00073L11 1 01500M11 1 28680N11 1 00000Q11 1 10166S11 1 00078V11 1 00404W11 1 56011
038899999913873195905232100E+33950-083317SAO  +024499999V02027059004652200059N024000599+03005+01785101865ADDAA101000095GA1999+010674084GA2999+999999004GA3999+999999999GA4999+999999999GD12025+9999999GD23055+9999993GD30005+9999999GD40005+9999999GF107025999999999999999999MA1999999098985EQDN01 00000JPWTH 1QNNE11 1 00203E11 1 00306E11 1 00000E11 1 00000G11U1 99999H11 1 11035H11C1 32999H11 1 00999H11 1 00999K11 1 00064L11 1 01500M11 1 29230N11 1 00000Q11 1 10186S11 1 00086V11 1 00903W11 1 77009
0057260380999991959121918004+59417+024800FM-12+004499999V0201801N00721002401CN0040001N9-00221-00391101481ADDAY121999GF108991081061002501999999MD1210051+9999MW1101
0051413160999991959102518004+17050+054100FM-12+0017OOSA V0209991C00001220001CN0600001N9+02611+02111101551ADDGA1011+007509089GF103991011011008001001011IA1009
0212999999340611959011701005+49017+001233SAO  +0141LFOE V02029359002152200059N001800599-00675-00895999999ADDGD10995+9999999GD20995+9999999GD30995+9999999GF101995999999999999999999MW1445EQDN01 07200JPWTH 1QNNE11 1 00099E11 1 00099E11 1 00099G11U1 99999K11 1 00016L11 1 00112N11 1 07200S11 1 00020V11 1 00199W11 1 78004
0011476900999991959091315004+36733+139500FM-12+129499999V0202701N001519999999N9999999N9+01501+99999999999ADDAY101999
006599999923154195901130400E+39283-114850SAO  +190699999V02020359006259999999N999999999+00565+99999999999ADDAA101000095MA1999999081075QNNM11 1 23940S11 1 00042W11 1 56012
0271999999253421959111007005+51933-131017SAO  +0089CYCJ V02006859001550670649N024000599+00615+00005103355ADDGA1999+036584034GA2999+067064014GD19015+9999999GD29065+9999999GF106055999999999999999999MA1999999102245EQDN01 00000JPWTH 1QNNE11 1 09901E11 1 09907G11 1 00220H11 1 23120H11 1 39220K11 1 00032L11 1 01500M11 1 30190N11 1 00000Q11 1 10335S11 1 00043V11 1 00806W11 1 32003
0232999999130231959123013005+32117-007883SAO  +0448GBGY V02027059003652200059N064000599+02505+01115999999ADDGD10995+9999999GD20995+9999999GD30995+9999999GD40995+9999999GF100995999999999999999999EQDN01 00000JPWTH 1QNNE11 1 00099E11 1 00099E11 1 00099E11 1 00099G11U1 99999K11 1 00052L11 1 04000N11 1 00000S11 1 00077V11 1 00099W11 1 77007
0383726815241061959071503003+43050-115867SAO  +0912MUO  V02029359003152200059N0960005N9+03225+00395100985ADDGA1021+027434034GA2011+220009004GA3999+999999999GA4999+999999999GD12025+9999999GD22015+9999999GD30005+9999999GD40005+9999999GF102025999999999999999999MA1999999090695MW1001EQDN01 00000JPWTH 1QNNE11 1 00202E11 1 00201E11 1 00000E11 1 00000G11U1 99999H11 1 23090H11C1 32999H11 1 00999H11 1 00999K11 1 00039L11 1 06000M11 1 26780N11 1 00000Q11 1 10098S11 1 00090V11 1 00303W11 1 78006
0057150900999991959081512004+47167+027600FM-12+010399999V0203201N00211007801CN0200001N9+02281+01391101701ADDAY121999GF106991051051008001071001MD1810031+9999MW1011
0377999999150421959032706005+52467-001117SAO  +015199999V02018059005250243849N012800599+00565+00335100445ADDGA1999+010974064GA2999+024384034GA3999+999999004GA4999+999999999GD12025+9999999GD23065+9999999GD33025+9999999GD40005+9999999GF107075999999999999999999MA1999999098755EQDN01 00000JPWTH 1QNNE11 1 00202E11 1 00407E11 1 00403E11 1 00000G11 1 00080H11 1 15036H11 1 23080H11C1 32999H11 1 00999K11 1 00038L11 1 00800M11 1 29160N11 1 00000Q11 1 10044S11 1 00042V11 1 00909W11 1 55010
0035107340999991959080220004+49400+008650SAO  +0109EDIE V0209991C000010144019N0080001N9+01631+01301999999ADDGF108991999999999999999999MW1051
0302722906931121959070408003+32700-117200SAO  +0015NZY  V02099999000050024449N0096005N9+02065+01945101625ADDGA1081+002444074GD14085+9999999GD20995+9999999GD30995+9999999GD40995+9999999GF108085999999999999999999MA1999999101465MW1055EQDN01 08100JPWTH 1QNNE11 1 00610E11 1 00099E11 1 00099E11 1 00099G11 1 00008H11 1 16008K11 1 00067L11 1 00600M11 1 29960N11 1 08100Q11 1 10162S11 1 00069V11 1 01010W11 1 00000
0111226410999991959062906004+63900+038117FM-12+000899999V0203601N00411004501CN0200001N9+00501+00281100491ADDAA106002091AA299000591AY161999GF107991061071004501071001KA1999N+99999MD1210341+9999MW1021EQDQ01 +01112ATMN  
0035471410432191959010822001+35900+126617SAO  +0013RKJK V0200901N003112200019N0112001N9-00531-01091999999ADDGF102991999999999999999999MW1001
0377999999225361959112414005+21983-159350SAO  +0031LIH  V02002359006750152449N024000599+02225+01285101805ADDGA1999+015244064GA2999+999999999GA3999+999999999GA4999+999999999GD13075+9999999GD20005+9999999GD30005+9999999GD40005+9999999GF107075999999999999999999MA1999999101295EQDN01 00000JPWTH 1QNNE11 1 00409E11 1 00000E11 1 00000E11 1 00000G11 1 00050H11 1 15050H11 1 00999H11 1 00999H11 1 00999K11 1 00055L11 1 01500M11 1 29910N11 1 00000Q11 1 10180S11 1 00072V11 1 00909W11 1 12013
0051477690999991959043018004+34833+134700FM-12+001899999V0200501N000519999999N9999999N9+01561+99999101841ADDAA106004091AY101999MA1999999101631MD1710181+9999
0076286620999991959012403004+55367+065850FM-12+999999999V0202001N00721220001CN0100001N9-00611-00721101131ADDAY121999GF108991999001999999031001MD1710021+9999MW1021EQDQ01+000002SCOTLC
0111476900999991959092000004+36733+139500FM-12+129499999V0202001N001519999999N0100001N9+01721+01061999999ADDAJ100009199999999AY101999GA1999+999999059GF108991061021999999021999IA1089MA1999999087131MD1210101+9999MW1021
0377999999931041959081923005+35683-117683SAO  +0682NID  V02018059011852200059N024000599+02944+00285100394ADDGA1999+024384084GA2999+999999999GA3999+999999999GA4999+999999999GD12015+9999999GD20005+9999999GD30005+9999999GD40005+9999999GF101015999999999999999999MA1999999092794EQDN01 00000JPWTH 1QNNE11 1 00201E11 1 00000E11 1 00000E11 1 00000G11U1 99999H11 1 11080H11 1 00999H11 1 00999H11 1 00999K11 1 00037L11 1 01500M11 1 27400N11 1 00000Q11 1 10039S11 1 00085V11 1 00101W11 1 55023
034099999993821195903130600E+38183-085733SAO  +0144SDF  V02031559006750067149N011200599+00174-00115101354ADDAA101000095GA1999+004884134GA2999+006714064GD12025+9999999GD24085+9999999GD30995+9999999GD40995+9999999GF108085999999999999999999MA1999999099564MW1855EQDN01 05000JPWTH 1QNNE11 1 00203E11 1 00610E11 1 00099E11 1 00099G11 1 00022H11 1 13016H11 1 15022K11 1 00030L11 1 00700M11 1 29400N11 1 05000Q11 1 10135S11 1 00035V11 1 01010W11 1 88013
0035745160232021959022513004+38267-121933SAO  +0019SUU  V0203601N002112200019N0400001N9+00831+00061999999ADDGF100991999999999999999999MW1001
031372528014733195908080100C+42933-078733SAO  +0217BUF  V02006859003650304849N0192005N1+02395+01445101215ADDAA101000095GA1081+030484034GD14085+9999999GD20995+9999999GD30995+9999999GD40995+9999999GF108085999999999999999999MA1999999098685MW1001EQDN01 00000JPWTH 1QNNE11 1 00610E11 1 00099E11 1 00099E11 1 00099G11 1 00100H11 1 23100K11 1 00058L11 1 01200M11 1 29140N11 1 00000Q11 1 10121S11 1 00075V11 1 01010W11 1 32007
0066489400999991959053009004+17950+102567SAO  +0171VLVT V0201801N002119999999N0320001N1+03181+02351100211ADDGA1041+004809009GF107991999999999999999999MA1999999098311MW1001
0081233830999991959090115004+66883+093467FM-12+026399999V0209991C00001220001CN0100001N9-00221-00281100901ADDAA199000091AY101999GF102991001001999999031011KA1999M+01391MD1310021+9999MW1021
0057621610999991959011709004+29033+021567FM-12+006299999V0203001N00621220001CN0240001N9+01611+00891102021ADDAY101999GF100991001001999999001001MD1310221+9999MW1011
006094492099999195902092300N-28000+143820AUST +0127     V0201355N007259999999N999999999+02725+00405999999ADDGA1005+999999999GF100995004999999999999999MA1999999099595
008283748099999195909031700N-22867-043367BRAZ +0034SBAF V02023019005719999999N012000199+02461+01801101901ADDGA1011+006001061GA2081+030001031GF108991999999999999999999MA1101901101461MW1041
0269999999242831959051604005+40983-124100SAO  +0062ACV  V02036059004152200059N011200599+01115+00725102305ADDGD10995+9999999GD20995+9999999GD30995+9999999GD40995+9999999GF100005999999999999999999MA1999999101465EQDN01 00000JPWTH 1QNNE11 1 00099E11 1 00099E11 1 00099E11 1 00099G11U1 99999K11 1 00045L11 1 00700M11 1 29960N11 1 00000Q11 1 10230S11 1 00052V11 1 00000W11 1 11008
0057281160999991959101300004+58983+054483FM-12+015099999V0209991C00001007801CN0040001N9-00281-00391101101ADDAY121999GF108991081051008001999999MD1710031+9999MW1101
028099999923063195901080300E+39650-106917SAO  +1980EGE  V02013559001052200059N024000599-01005-01115103895ADDAA101000095GD10995+9999999GD20995+9999999GD30995+9999999GD40995+9999999GF100005999999999999999999MA1999999080875EQDN01 00000JPWTH 1QNNE11 1 00099E11 1 00099E11 1 00099E11 1 00099G11U1 99999K11 1 00012L11 1 01500M11 1 23880N11 1 00000Q11 1 10389S11 1 00014V11 1 00000W11 1 44002
0083762550999991959111806004+27867-110900FM-12+000499999V0202901N00511220001CN0400001N9+02671+01111101371ADDAY101999GF101991001001999999001021KA1999M+03061KA2999N+02561MD1810021+9999MW1071
0269999999255151959092019005+53983-166850SAO  +038999999V02018059005250076249N024000599+00785+00675100205ADDGD12995+9999999GD22995+9999999GD33995+9999999GD40995+9999999GF107075999999999999999999MA1999999100105EQDN01 00000JPWTH 1QNNE11 1 00299E11 1 00299E11 1 00499E11 1 00099G11 1 00025K11 1 00044L11 1 01500M11 1 29560N11 1 00000Q11 1 10020S11 1 00046V11 1 00909W11 1 55010
0377999999225361959060118005+21983-159350SAO  +0031LIH  V02006859006250076249N024000599+02565+01895101805ADDGA1999+007624084GA2999+999999999GA3999+999999999GA4999+999999999GD13055+9999999GD20005+9999999GD30005+9999999GD40005+9999999GF105055999999999999999999MA1999999101295EQDN01 00000JPWTH 1QNNE11 1 00406E11 1 00000E11 1 00000E11 1 00000G11 1 00025H11 1 11025H11 1 00999H11 1 00999H11 1 00999K11 1 00066L11 1 01500M11 1 29910N11 1 00000Q11 1 10180S11 1 00078V11 1 00606W11 1 32012
0057029820999991959072912004+59767+022950FM-12+001199999V0202301N00621030001CN0180001N9+02001+01781100281ADDAY121999GF108991031061002501071999MD1710011+9999MW1031
0082479310999991959080712004+26350+127750SAO  +0046RODN V0202501N007710036019N0112001N9+02661+02551099481ADDGA1061+003609079GA2021+012009049GF108991999999999999999999MA1999999098981MW1801
0076576550999991959091909004+28450+110383FM-12+014499999V0200701N00311220001CN0220001N9+03281+01221100611ADDAY101999GF101991999001999999041001MD1710231+9999MW1021EQDQ01+000002SCOTLC
0099637050999991959111218004+00050+032450FM-12+114699999V0203401N00101045001CN0450001N9+02061+01831999999ADDGA1011+007509099GA2031+042009039GF107991011031008001041051MA1999999088351MD1999999+0021ME1314769
0057278230999991959012406004+53783+039250FM-12+021099999V0202001N00411004501CN0040001N9-00501-00611101121ADDAY111999GF108991081061004501999999MD1310091+9999MW1101
007772518014735195909100600D+42750-073800SAO  +0088ALB  V0201581N004112200019N0112001N1+02461+01961101961ADDAA101000095GA1041+009009059GF102991999999999999999999MA1999999100911MW1001
0076383670999991959042703004+41283+052650FM-12+999999999V0203201N00211220001CN0200001N9+01001+00721101951ADDAY121999GF105991999001999999031001MD1210021+9999MW1021EQDQ01+000002SCOTLC
0345727930242331959021704003+47450-122300SAO  +0122SEA  V02009059004150137249N0160005N1+00615+00175100245ADDGA1061+013724064GA2021+019814044GD13065+9999999GD24025+9999999GD30995+9999999GD40995+9999999GF108085999999999999999999MA1999999098615MW1615EQDQ01    003PRSWM1N01 02000JPWTH 1QNNE11 1 00408E11 1 00602E11 1 00099E11 1 00099G11 1 00045H11 1 15045H11 1 21065K11 1 00035L11 1 01000M11 1 29120N11 1 02000Q11 1 10024S11 1 00043V11 1 01010W11 1 33008
0050475800999991959080720004+40683+141367SAO  +0043RJSM V0200501N004110012019N0040001N9+01961+01911100031ADDGF108991999999999999999999MA1999999099551MW1611
0076234230999991959111421004+65717+064200FM-12+999999999V0202701N00411007801CN0040001N9-00721-00781104031ADDAY171999GF108991999071008001021999MD1710101+9999MW1731EQDQ01+000082SCOTLC
006094608099999195906062200N-31950+115850AUST +0020     V0200455N001059999999N999999999+00845+00705999999ADDGA1075+009005065GF107995074055009005999999MA1999999101265
0092476790999991959091400004+35450+139450SAO  +0065RJTA V0200201N002110060019N0128001N9+02351+02131100801ADDGA1011+003009079GA2041+006009079GA3031+015009059GF108991999999999999999999MA1999999100101
0238999999340621959031901005+48817+007200SAO  +0313LFQP V02013559005252200059N003600599+00395+00115999999ADDGD12995+9999999GD20995+9999999GD30995+9999999GD40995+9999999GF102995999999999999999999MW1445EQDN01 07200JPWTH 1QNNE11 1 00299E11 1 00099E11 1 00099E11 1 00099G11U1 99999K11 1 00034L11 1 00225N11 1 07200S11 1 00039V11 1 00299W11 1 44010
0057288250999991959120218004+53617+055817FM-12+013099999V0201801N00721012301CN0040001N9-00781-01001102611ADDAY121999GF108991081051012501999999MD1710171+9999MW1021
0269999999241721959121714005+40067-118550SAO  +1190LOL  V02099999000050457249N024000599-00725-01225102405ADDGD13995+9999999GD24995+9999999GD30995+9999999GD40995+9999999GF108065999999999999999999MA1999999088525EQDN01 00000JPWTH 1QNNE11 1 00499E11 1 00699E11 1 00099E11 1 00099G11 1 00150K11 1 00010L11 1 01500M11 1 26140N11 1 00000Q11 1 10240S11 1 00019V11 1 01008W11 1 00000
0163986300999991959102915004+10850+121033FM-12+000499999V0200501N00931220001CN0160001N9+02781+02611101161ADDGA1021+006009049GA2031+999999089GA3999+999999009GA4999+999999009GF104991021011008001001011MA1999999101121MD1110131+9999MW1001EQDQ01    003SCCGA3Q02    003SCCGA4
0072682260999991959050412004+24017+021883FM-12+110099999V0200901N00671220001CN0600001N9+01941+00611999999ADDAY121999GF100991001001999999001001MA1999999089141MD1710161+9999MW1021
0171722085938311959050109003+32467-080717SAO  +0014NBC  V02099999000052200059N0160005N1+01615+01445101345ADDGF100005999999999999999999MA1999999101085MW1001EQDN01 00000JPWTH 1QNNG11U1 99999K11 1 00058L11 1 01000M11 1 29850N11 1 00000Q11 1 10134S11 1 00061V11 1 00000W11 1 00000
0057152000999991959051712004+46167+021317FM-12+010999999V0202201N00211036001CN0150001N9+01781+01501100821ADDAY161999GF107991031051008001071001MD1810071+9999MW1211
0057293480999991959113000004+57067+086217FM-12+011699999V0202201N00871220001CN0040001N9-01001-01391101161ADDAY171999GF108991001001999999021999MD1710041+9999MW1711
0111477510999991959120306004+35417+136400FM-12+137699999V0203201N023719999999N0000001N9+00331+00281999999ADDAJ100009199999999AY101999GA1999+999999099GF108991999999999999999999IA1089MA1999999085241MD1110011+9999MW1601
0075749388999991959092305004+36083+129567SAO  +002199999V0200451N001510036019N0112001N1+02181+01801101491ADDGF108991999999999999999999MA1999999101051MW1051MW2631EQDQ01+999990APOSP 
0057326110999991959101203004+59000+163917FM-12+000699999V0203601N00311220001CN0500001N9+00611+00281102471ADDAY101999GF101991011021017501001001MD1710121+9999MW1021
0275999999939871959110308005+31233-094750SAO  +0089LFK  V02099999000050009149N001300599+01944+01945101634ADDGD14995+9999999GD20995+9999999GD30995+9999999GD40995+9999999GF108085999999999999999999MA1999999100514MW1455EQDN01 07000JPWTH 1QNNE11 1 00699E11 1 00099E11 1 00099E11 1 00099G11 1 00003K11 1 00067L11 1 00081M11 1 29680N11 1 07000Q11 1 10163S11 1 00067V11 1 01010W11 1 00000
0043249660999991959011300004+60383+134450FM-12+017599999V0203601N00101220001CN0005001N9-05281-05721102091ADDAY141999GF102991001001999999001011MW1441
0232999999147101959121719005+42933-071433SAO  +0071MHT  V02033859007252200059N040000599+00895-00565999999ADDGD12995+9999999GD22995+9999999GD30995+9999999GD40995+9999999GF103995999999999999999999EQDN01 00000JPWTH 1QNNE11 1 00299E11 1 00299E11 1 00099E11 1 00099G11U1 99999K11 1 00022L11 1 02500N11 1 00000S11 1 00048V11 1 00499W11 1 18014
0269999999137341959082806005+39400-077983SAO  +0164MRB  V02099999000052200059N011200599+02175+02005101525ADDGD12995+9999999GD20995+9999999GD30995+9999999GD40995+9999999GF103035999999999999999999MA1999999099635EQDN01 00000JPWTH 1QNNE11 1 00299E11 1 00099E11 1 00099E11 1 00099G11U1 99999K11 1 00068L11 1 00700M11 1 29420N11 1 00000Q11 1 10152S11 1 00071V11 1 00404W11 1 00000
0057338890999991959010321004+45367+028867FM-12+003099999V0209991C00001220001CN0005001N9+00391+00221999999ADDAY141999GF100991001001999999001001MD1710041+9999MW1421
038899999913985195909141200E+37767-099967SAO  +0791DDC  V02018059005252200059N032000599+01115+00335101805ADDAA101000095GA1999+999999004GA2999+999999999GA3999+999999999GA4999+999999999GD10005+9999999GD20005+9999999GD30005+9999999GD40005+9999999GF100005999999999999999999MA1999999092825EQDN01 00000JPWTH 1QNNE11 1 00000E11 1 00000E11 1 00000E11 1 00000G11U1 99999H11C1 32999H11 1 00999H11 1 00999H11 1 00999K11 1 00038L11 1 02000M11 1 27410N11 1 00000Q11 1 10180S11 1 00052V11 1 00000W11 1 55010
0066745160232021959070712004+38267-121933SAO  +0019SUU  V0202301N007212200019N0400001N9+01221+00671101521ADDGA1001+999999999GF100991999999999999999999MA1999999101251MW1001
0057028360999991959081321004+67367+026650FM-12+018099999V0201701N00361220001CN0250001N9+01501+00781102251ADDAY101999GF101991011001999999071001MD1210061+9999MW1051
038899999914933195902220500E+41533-093650SAO  +0286DSM  V02018059005752200059N024000599+00115-00335102445ADDAA101000095GA1999+999999024GA2999+999999999GA3999+999999999GA4999+999999999GD13055+9999993GD20005+9999999GD30005+9999999GD40005+9999999GF105025999999999999999999MA1999999098815EQDN01 00000JPWTH 1QNNE11 1 00306E11 1 00000E11 1 00000E11 1 00000G11U1 99999H11C1 37999H11 1 00999H11 1 00999H11 1 00999K11 1 00026L11 1 01500M11 1 29180N11 1 00000Q11 1 10244S11 1 00034V11 1 00602W11 1 55011
0275999999264141959022013005+63333-149133SAO  +0735UMM  V02099999000050121949N016000599-01335-01445100755ADDGD14995+9999999GD20995+9999999GD30995+9999999GD40995+9999999GF108065999999999999999999MA1999999091775MW1715EQDN01 04000JPWTH 1QNNE11 1 00699E11 1 00099E11 1 00099E11 1 00099G11 1 00040K11 1 00006L11 1 01000M11 1 27100N11 1 04000Q11 1 10075S11 1 00008V11 1 01008W11 1 00000
0035722167999991959072319004+30967-083200SAO  +0074VAD  V0201581N005112200019N0240001N1+03181+02021999999ADDGF102991999999999999999999MW1001
0366999999457151959093000005+99999+999999SAO  +999999999V02031559008259999999N024000599+00785+00565100585ADDGA1999+007624084GA2999+010674064GA3999+999999999GA4999+999999999GD12025+9999999GD22005+9999999GD30005+9999999GD40005+9999999GF102025999999999999999999MA1999999100205EQDN01 00000JPWTH 1QNNE11 1 00203E11 1 00200E11 1 00000E11 1 00000H11 1 11025H11 1 15035H11 1 00999H11 1 00999K11 1 00042L11 1 01500M11 1 29590N11 1 00000Q11 1 10058S11 1 00046V11 1 00303W11 1 88016
0066619020999991959121906004-07967-014400SAO  +0086FHAW V0201401N005712200019N0160001N9+02301+01691101321ADDGA1011+007809089GF102991999999999999999999MA1999999100341MW1001
0104300890999991959021000004+59250+121833FM-12+999999999V0209991C00001220001CN0200001N9-02001-03611102401ADDAA106075091AA224999999AY101999GF106991001001999999001011HL10009IA1319IA2999-03789MD1710101+9999MW1031
018272356013968195909010300C+36200-095900SAO  +0207TUL  V02018059002652200059N0240005N1+02505+02065100755ADDAA101000095GF100005999999999999999999MA1999999098375MW1001EQDN01 00000JPWTH 1QNNG11U1 99999K11 1 00069L11 1 01500M11 1 29050N11 1 00000Q11 1 10075S11 1 00077V11 1 00000W11 1 55005
0081286980999991959050718004+54933+073400FM-12+009499999V0202201N00411220001CN0100001N9+00721-00221102571ADDAA199000091AY111999GF100991001001999999001001KA1999M+01221MD1710081+9999MW1011
034672407093730195908010400C+39450-074583SAO  +0020ACY  V02018059004150304849N0024005N9+02445+02335101395ADDAA101000095GA1051+030484034GA2031+220009024GD13055+9999999GD24035+9999999GD30995+9999999GD40995+9999999GF108085999999999999999999MA1999999101155MW1111MW2445EQDN01 07200JPWTH 1QNNE11 1 00406E11 1 00604E11 1 00099E11 1 00099G11 1 00100H11 1 23100H11C1 37999K11 1 00074L11 1 00150M11 1 29870N11 1 07200Q11 1 10139S11 1 00076V11 1 01010W11 1 55008
0072518950999991959020621004+37850+091483FM-12+306199999V0209991C00001220001CN0200001N9-01611-01891999999ADDAY101999GF101991001001999999001021MA1999999100901MD1510011+9999MW1031
038899999924144195911302000E+46600-112000SAO  +1167HLN  V02022559004650304849N064000599+00565-00505102885ADDAA101000095GA1999+030484034GA2999+999999004GA3999+999999999GA4999+999999999GD13065+9999999GD23015+9999999GD30005+9999999GD40005+9999999GF106045999999999999999999MA1999999089065EQDN01 00000JPWTH 1QNNE11 1 00407E11 1 00401E11 1 00000E11 1 00000G11 1 00100H11 1 23100H11C1 32999H11 1 00999H11 1 00999K11 1 00023L11 1 04000M11 1 26300N11 1 00000Q11 1 10288S11 1 00042V11 1 00805W11 1 66009
0098293930999991959012506004+57650+099533FM-12+999999999V0209991C00001012301CN0100001N9-01611-01781101471ADDAA106004091AA299001091AY171999GF108991081001012501021999IA1319KA1999N-02111MD1010271+9999MW1711
024972458613922195908021600C+38800-097633SAO  +0390SLN  V02018059007752200059N0240005N1+03175+02175999999ADDAA101000095GD14995+9999993GD20995+9999999GD30995+9999999GD40995+9999999GF108995999999999999999999MW1001EQDN01 00000JPWTH 1QNNE11 1 00599E11 1 00099E11 1 00099E11 1 00099G11U1 99999K11 1 00071L11 1 01500N11 1 00000S11 1 00089V11 1 01099W11 1 55015
0238725510149391959050713003+40850-096750SAO  +0357LNK  V02099999000050304849N0240005N1+01065+00785999999ADDGD13995+9999999GD24995+9999999GD30995+9999999GD40995+9999999GF108995999999999999999999MW1001EQDN01 00000JPWTH 1QNNE11 1 00499E11 1 00699E11 1 00099E11 1 00099G11 1 00100K11 1 00046L11 1 01500N11 1 00000S11 1 00051V11 1 01099W11 1 00000
0269999999148581959052817005+47167-088500SAO  +033099999V02009059009350304849N024000599+01005+00565101995ADDGD12995+9999999GD23995+9999999GD34995+9999999GD40995+9999999GF108075999999999999999999MA1999999098005EQDN01 00000JPWTH 1QNNE11 1 00299E11 1 00499E11 1 00699E11 1 00099G11 1 00100K11 1 00042L11 1 01500M11 1 28940N11 1 00000Q11 1 10199S11 1 00050V11 1 01009W11 1 33018
0043610800999991959110112004+13467+007083FM-12+036999999V0209991C00001220001CN0300001N9+03722+00281100841ADDAY101999GF100991001001999999001001MW1021
0088466970999991959011911004+25067+121233SAO  +0045RCGM V0200451N003610021019N0048001N1+01021+01021102711ADDGA1061+002109089GA2081+007509009GF108991999999999999999999MA1999999102131MW1451MW2611
0269999999241351959050610005+45950-112500SAO  +169099999V02022559002652200059N024000599-00445-00895102825ADDGD10995+9999999GD20995+9999999GD30995+9999999GD40995+9999999GF100005999999999999999999MA1999999083545EQDN01 00000JPWTH 1QNNE11 1 00099E11 1 00099E11 1 00099E11 1 00099G11U1 99999K11 1 00016L11 1 01500M11 1 24670N11 1 00000Q11 1 10282S11 1 00024V11 1 00000W11 1 66005
0082711200999991959072016004+54417-110283SAO  +0541CYOD V0202301N002612200019N0240001N9+02131+01351101471ADDGA1011+030001031GA2021+075001001GF102991999999999999999999MA1999999095061MW1001
034099999924023195909250700E+41133-100683SAO  +0846LBF  V02015859006750027449N019200599+01565+01395100755ADDAA101001095GA1999+002744074GA2999+004574054GD13065+9999999GD24085+9999999GD30995+9999999GD40995+9999999GF108085999999999999999999MA1999999091135MW1615EQDN01 02000JPWTH 1QNNE11 1 00408E11 1 00610E11 1 00099E11 1 00099G11 1 00009H11 1 16009H11 1 22015K11 1 00057L11 1 01200M11 1 26910N11 1 02000Q11 1 10075S11 1 00060V11 1 01010W11 1 54013
0092360340999991959050400004+51500+081217FM-12+021599999V0202201N00411220001CN0500001N9+00111+00001102821ADDAY111999GF104991041051017501001001MD1710011+9999MW1101EQDQ01+000042APCTENQ02+000012APC3  
0043066200999991959101212004+46950+007433FM-12+057299999V0200501N00151090001CN0200001N9+01221+01001102141ADDAY121999GF106991031081002501001021MW1011
0076322170999991959031715004+50000+155383FM-12+001699999V0209991C00001220001CN0100001N9-00501-00721101811ADDAY111999GF102991999001999999031001MD1210031+9999MW1011EQDQ01+000002SCOTLC
0383723825231311959091106003+34583-117383SAO  +0877VCV  V02020359002152200059N0240005N9+02505+00615101495ADDGA1021+036584034GA2999+999999999GA3999+999999999GA4999+999999999GD12025+9999999GD20005+9999999GD30005+9999999GD40005+9999999GF102025999999999999999999MA1999999091705MW1001EQDN01 00000JPWTH 1QNNE11 1 00202E11 1 00000E11 1 00000E11 1 00000G11U1 99999H11 1 23120H11 1 00999H11 1 00999H11 1 00999K11 1 00043L11 1 01500M11 1 27080N11 1 00000Q11 1 10149S11 1 00077V11 1 00202W11 1 56004
0275999999232751959032410005+39133-123200SAO  +0192UKI  V02031559004650082349N019200599+00785+00505102345ADDGD14995+9999999GD20995+9999999GD30995+9999999GD40995+9999999GF108085999999999999999999MA1999999100075MW1615EQDN01 02000JPWTH 1QNNE11 1 00699E11 1 00099E11 1 00099E11 1 00099G11 1 00027K11 1 00041L11 1 01200M11 1 29550N11 1 02000Q11 1 10234S11 1 00046V11 1 01010W11 1 88009
019872389093193195908270800C+36783-119700SAO  +0103FAT  V02031559004652200059N0240005N9+01945+00945100855ADDAA101000095GA1001+999999999GF100005999999999999999999MA1100881099705MW1001EQDN01 00000JPWTH 1QNNG11U1 99999K11 1 00049L11 1 01500M11 1 29440N11 1 00000Q11 1 10085S11 1 00067V11 1 00000W11 1 88009
0072524460999991959102303004+40333+099750FM-12+124099999V0200701N00101220001CN0700001N9+00221-01001104111ADDAY121999GF107991001001999999001081MA1999999100001MD1110031+9999MW1021
0118638160999991959021106004-04083+037717FM-12+087299999V0200901N00261220001CN0400001N9+02611+02061999999ADDGA1011+009009089GA2999+090009009GF102991011021012501001011MA1999999091511MD1999999-0841ME1315149EQDQ01    003SCCGA2
0099636760999991959070306004+00667+030283FM-12+153399999V0209991C00001045001CN0160001N9+01721+01671999999ADDGA1021+010509059GA2031+045009039GF107991021051012501071001MA1999999085031MD1999999-0881ME1315389
0383999999176111959061311005+76417-068317SAO  +048899999V02013559003650243849N048000599-00115-00395101845ADDGA1999+004574064GA2999+024384044GA3999+999999999GA4999+999999999GD12035+9999999GD23045+9999999GD30005+9999999GD40005+9999999GF107075999999999999999999MA1999999095775MW1855EQDN01 05000JPWTH 1QNNE11 1 00204E11 1 00405E11 1 00000E11 1 00000G11 1 00080H11 1 15015H11 1 21080H11 1 00999H11 1 00999K11 1 00025L11 1 03000M11 1 28280N11 1 05000Q11 1 10184S11 1 00030V11 1 00909W11 1 44007
0035106140999991959010920004+49417+007583SAO  +0240EDAR V0202301N004110180019N0144001N9-00221-00281999999ADDGF107991999999999999999999MW1001
0377999999116301959061812005+18250-065633SAO  +001199999V02009059005252200059N024000599+02835+02225101685ADDGA1999+007624084GA2999+999999999GA3999+999999999GA4999+999999999GD12035+9999999GD20005+9999999GD30005+9999999GD40005+9999999GF103035999999999999999999MA1999999101595EQDN01 00000JPWTH 1QNNE11 1 00204E11 1 00000E11 1 00000E11 1 00000G11U1 99999H11 1 11025H11 1 00999H11 1 00999H11 1 00999K11 1 00072L11 1 01500M11 1 30000N11 1 00000Q11 1 10168S11 1 00083V11 1 00404W11 1 33010
0238747900138491959030814003+33967-080483SAO  +0077SSC  V02006859006752200059N0160005N9+00615-00225999999ADDGD10995+9999999GD20995+9999999GD30995+9999999GD40995+9999999GF100995999999999999999999MW1001EQDN01 00000JPWTH 1QNNE11 1 00099E11 1 00099E11 1 00099E11 1 00099G11U1 99999K11 1 00028L11 1 01000N11 1 00000S11 1 00043V11 1 00099W11 1 32013
0165999999150271959010915005+53383-002650SAO  +002799999V02033859004652200059N012800599+00175-00225101525ADDGF100005999999999999999999MA1999999101195EQDN01 00000JPWTH 1QNNG11U1 99999K11 1 00028L11 1 00800M11 1 29880N11 1 00000Q11 1 10152S11 1 00035V11 1 00000W11 1 18009
0057353610999991959010415004+50133+065233FM-12+014299999V0209991C00001220001CN0100001N9-02721-02891103281ADDAY101999GF100991001001999999001001MD1210031+9999MW1021
0057687120999991959110912004+32833+017850FM-12+006099999V0201801N00821220001CN0150001N9+01611+01171101631ADDAY121999GF103991011051004501001081MD1810021+9999MW1031
0066747770038521959122606004+30417-086683SAO  +0014HRT  V0200901N003110045019N0112001N9+01521+01241102341ADDGA1081+004509059GF108991999999999999999999MA1999999102171MW1001
031372458613922195912231800C+38800-097633SAO  +0390SLN  V02036059001550073249N0192005N1+00065-00285102355ADDAA101000095GA1081+007324074GD14085+9999999GD20995+9999999GD30995+9999999GD40995+9999999GF108085999999999999999999MA1999999097605MW1001EQDN01 00000JPWTH 1QNNE11 1 00610E11 1 00099E11 1 00099E11 1 00099G11 1 00024H11 1 16024K11 1 00027L11 1 01200M11 1 28820N11 1 00000Q11 1 10235S11 1 00033V11 1 01010W11 1 11003
0232999999231181959031304005+39667-119867SAO  +153199999V02031559001552200059N024000599+00945-00615999999ADDGD12995+9999999GD20995+9999999GD30995+9999999GD40995+9999999GF103995999999999999999999EQDN01 00000JPWTH 1QNNE11 1 00299E11 1 00099E11 1 00099E11 1 00099G11U1 99999K11 1 00021L11 1 01500N11 1 00000S11 1 00049V11 1 00499W11 1 88003
031999999914933195901210000E+41533-093650SAO  +0286DSM  V02002359008850024449N001300599-00945-01225101355ADDAA101000595GA1999+002444104GD15085+9999999GD20995+9999999GD30995+9999999GD40995+9999999GF108085999999999999999999MA1999999097705MW1385MW2715EQDN01 04084JPWTH 1QNNE11 1 00710E11 1 00099E11 1 00099E11 1 00099G11 1 00008H11 1 98008K11 1 00010L11 1 00081M11 1 28850N11 1 04084Q11 1 10135S11 1 00015V11 1 01010W11 1 12017
0111477510999991959110506004+35417+136400FM-12+137699999V0201601N002619999999N0700001N9+01171+00781999999ADDAJ100009199999999AY101999GA1999+999999019GF101991011011999999001001IA1009MA1999999086591MD1710081+9999MW1021
0057245890999991959030621004+64367+143083FM-12+999999999V0209991C00001220001CN0200001N9-04501-04781104871ADDAY171999GF108991001001999999001071MD1210021+9999MW1711
0050716010999991959101623004+44633-063500SAO  +0041CYAW V0200231N004612200019N0240001N1+00581+00191102101ADDGF100991999999999999999999MA1999999101591MW1001
019872446113988195908121800C+39117-094583SAO  +0241KC   V02022559005252200059N0160005N1+03115+01725101705ADDAA101000095GA1001+999999999GF100005999999999999999999MA1999999099055MW1001EQDN01 00000JPWTH 1QNNG11U1 99999K11 1 00063L11 1 01000M11 1 29250N11 1 00000Q11 1 10170S11 1 00088V11 1 00000W11 1 66010
0165999999137691959010620005+36817-076033SAO  +000899999V02029359008252200059N016000599-00115-00285102475ADDGF100005999999999999999999MA1999999102375EQDN01 00000JPWTH 1QNNG11U1 99999K11 1 00027L11 1 01000M11 1 30230N11 1 00000Q11 1 10247S11 1 00030V11 1 00000W11 1 78016
0383999999147801959090920005+40033-074350SAO  +0034NEL  V02004559003152200059N008000599+03175+02225101935ADDGA1999+015244084GA2999+999999999GA3999+999999999GA4999+999999999GD12025+9999999GD20005+9999999GD30005+9999999GD40005+9999999GF102025999999999999999999MA1999999101525MW1055EQDN01 08100JPWTH 1QNNE11 1 00202E11 1 00000E11 1 00000E11 1 00000G11U1 99999H11 1 11050H11 1 00999H11 1 00999H11 1 00999K11 1 00072L11 1 00500M11 1 29980N11 1 08100Q11 1 10193S11 1 00089V11 1 00202W11 1 22006
0070102790999991959050618004+53350+013083FM-12+006499999V0200201N00211220001CN0450001N9+01221+00001102511ADDAY121999GF102991021041008001001001KA1999M+01611MD1210031+9999MW1011
0329999999147901959112123005+42150-070933SAO  +005299999V02015859003650021349N006400599+00725+00505101315ADDGA1999+002134154GA2999+003054154GD13065+9999999GD24025+9999999GD30995+9999999GD40995+9999999GF108085999999999999999999MA1999999100685MW1055EQDN01 08100JPWTH 1QNNE11 1 00408E11 1 00602E11 1 00099E11 1 00099G11 1 00007H11 1 17007H11 1 17010K11 1 00041L11 1 00400M11 1 29730N11 1 08100Q11 1 10131S11 1 00045V11 1 01010W11 1 54007
0057352740999991959090315004+50550+067917FM-12+999999999V0200901N00411220001CN0200001N9+01721+00611999999ADDAY111999GF102991001001999999031011MD1310011+9999MW1011
0043249440999991959092718004+60400+120417FM-12+022699999V0200901N00211220001CN0040001N9-00221-00281999999ADDAY141999GF100991001001999999001001MW1401
0057029110999991959020812004+63050+121767FM-12+000899999V0202301N00211000601CN0050001N9-00391-00391102721ADDAY111999GF108991051071000751999999MD1210041+9999MW1021
0130478170999991959081106004+32733+129883FM-12+002799999V0202501N00461002701CN0250001N9+02941+02281100431ADDAJ100009199999999AY101999GA1999+005709029GF105991021021008001001091IA1009MA1999999100141MD1510031+9999MW1021EQDQ01    003SCCGA1
038899999924232195909020200E+44917-123017SAO  +006199999V02002359007252200059N032000599+02505+00895101595ADDAA101000095GA1999+999999004GA2999+999999999GA3999+999999999GA4999+999999999GD10005+9999999GD20005+9999999GD30005+9999999GD40005+9999999GF100005999999999999999999MA1999999100855EQDN01 00000JPWTH 1QNNE11 1 00000E11 1 00000E11 1 00000E11 1 00000G11U1 99999H11C1 32999H11 1 00999H11 1 00999H11 1 00999K11 1 00048L11 1 02000M11 1 29780N11 1 00000Q11 1 10159S11 1 00077V11 1 00000W11 1 12014
0011541570999991959051815004+43183+124333FM-12+016399999V0209991C000019999999N0250001N9+99999+99999999999ADDAY111031
033472734514847195905202200B+46467-084367SAO  +021999999V02011359004650274349N016000599+02065+01565101695ADDAA101000095GA1999+027434034GA2999+999999024GD13075+9999999GD24015+9999999GD30995+9999999GD40995+9999999GF108085999999999999999999MA1999999099055EQDN01 00000JPWTH 1QNNE11 1 00409E11 1 00601E11 1 00099E11 1 00099G11 1 00090H11 1 23090H11C1 37999K11 1 00060L11 1 01000M11 1 29250N11 1 00000Q11 1 10169S11 1 00069V11 1 01010W11 1 34009
031372745014913195909200700C+46833-092183SAO  +0434DLH  V02018059007750021349N0048005N9+01565+01445101225ADDAA101000095GA1081+002134074GD14085+9999999GD20995+9999999GD30995+9999999GD40995+9999999GF108085999999999999999999MA1999999096115MW1455EQDN01 07000JPWTH 1QNNE11 1 00610E11 1 00099E11 1 00099E11 1 00099G11 1 00007H11 1 16007K11 1 00058L11 1 00300M11 1 28380N11 1 07000Q11 1 10122S11 1 00060V11 1 01010W11 1 55015
0111476680999991959120900004+35050+139100FM-12+006799999V0200201N002619999999N0300001N9+01111+00391102151ADDAJ100009199999999AY101999GA1999+999999049GF104991041001999999001011IA1009MA1999999101351MD1010021+9999MW1021
0080986370999991959121312004+10700+122567SAO  +0008RPVI V0203601N003612200019N0480001N1+02571+02131101031ADDGA1011+007509089GF102991999999999999999999MA1999999100851MD1210241+9999MW1001
0057322170999991959072421004+50000+155383FM-12+001699999V0200401N00981000151CN0005001N9+01221+01221101981ADDAY141999GF109991091999000251999999MD1110011+9999MW1531
039472344013964195904241700C+35333-094367SAO  +0136FSM  V02022559005252200059N0320005N1+02565+01225101615ADDAA101000095GA1071+220009004GA2999+999999999GA3999+999999999GA4999+999999999GD13075+9999993GD20005+9999999GD30005+9999999GD40005+9999999GF107025999999999999999999MA1999999099975MW1001EQDN01 00000JPWTH 1QNNE11 1 00309E11 1 00000E11 1 00000E11 1 00000G11U1 99999H11C1 32999H11 1 00999H11 1 00999H11 1 00999K11 1 00054L11 1 02000M11 1 29520N11 1 00000Q11 1 10161S11 1 00078V11 1 00903W11 1 66010
0035745160232021959101805004+38267-121933SAO  +0019SUU  V0202301N007212200019N0096001N9+01671+01171999999ADDGF100991999999999999999999MW1051
0069471070999991959110604004+37750+128933SAO  +0027RKNN V0202701N002610135019N0112001N1+01351+01071101771ADDGF108991999999999999999999MA1999999101671MW1611EQDQ01+999990APOSP 
0043076500999991959090406004+43450+005217FM-12+000899999V0209991C000019999999N0070001N9+01501+99999101821ADDAY101999GF105991999999999999001021MW1031
0232999999340521959081312005+48100+005050SAO  +0313LFQU V02018059005250076249N017600599+02175+01505999999ADDGD13995+9999999GD23995+9999999GD30995+9999999GD40995+9999999GF107995999999999999999999EQDN01 00000JPWTH 1QNNE11 1 00499E11 1 00499E11 1 00099E11 1 00099G11 1 00025K11 1 00059L11 1 01100N11 1 00000S11 1 00071V11 1 00999W11 1 55010
0057284110999991959020203004+56817+053267FM-12+015899999V0202901N00511004501CN0040001N9-01001-01111101951ADDAY171999GF108991061051004501011999MD1810011+9999MW1101
0035471870999991959082301004+33200+126217SAO  +0013RKPM V0202251N002610135019N0192001N1+02961+02461999999ADDGF107991999999999999999999MW1001
0066746710138061959101809004+36667-087500SAO  +0170HOP  V0209991C000012200019N0112001N9+00521+00411101931ADDGA1001+999999999GF100991999999999999999999MA1999999099861MW1001
0232722050128151959050107003+28450-081300SAO  +0032MC0  V02099999000052200059N0160005N1+02005+01835999999ADDGD10995+9999999GD20995+9999999GD30995+9999999GD40995+9999999GF100995999999999999999999EQDN01 00000JPWTH 1QNNE11 1 00099E11 1 00099E11 1 00099E11 1 00099G11U1 99999K11 1 00065L11 1 01000N11 1 00000S11 1 00068V11 1 00099W11 1 00000
0043541720999991959010212004+43867+126583FM-12+999999999V0202501N00101220001CN0100001N9-02111+99999102761ADDAY111061GF105991001001999999001021MW1011
0057319870999991959032921004+43150+133017FM-12+020299999V0200401N00211090001CN0500001N9+00391+00111101751ADDAY121999GF108991021051008001001071MD1310101+9999MW1031
006094999900248195912162300N-34480+150920AUST +0011     V0200455N001559999999N999999999+02175+01805999999ADDGA1015+009005085GF101995014015009005999999MA1999999100645
0377999999128501959052701005+24583-081683SAO  +0007NQX  V02009059009850243849N016000599+02675+02175101625ADDGA1999+006104084GA2999+024384044GA3999+999999004GA4999+999999999GD12025+9999999GD23045+9999999GD34025+9999999GD40005+9999999GF108075999999999999999999MA1999999101565EQDN01 00000JPWTH 1QNNE11 1 00202E11 1 00405E11 1 00603E11 1 00000G11 1 00080H11 1 11020H11 1 21080H11C1 32999H11 1 00999K11 1 00071L11 1 01000M11 1 29990N11 1 00000Q11 1 10162S11 1 00080V11 1 01009W11 1 33019
0070580570999991959100906004+34067+120217FM-12+000399999V0209991C00001220001CN0400001N9+02611+01221101021ADDAY141999GF101991011011008001081021KA1999N+01281MD1710201+9999MW1021
038899999924155195910121900E+45683-118850SAO  +0452PDT  V02024859004152200059N096000599+01615+00725102745ADDAA101000095GA1999+012194084GA2999+999999004GA3999+999999999GA4999+999999999GD12015+9999999GD22005+9999999GD30005+9999999GD40005+9999999GF101015999999999999999999MA1999999097325EQDN01 00000JPWTH 1QNNE11 1 00201E11 1 00200E11 1 00000E11 1 00000G11U1 99999H11 1 11040H11C1 32999H11 1 00999H11 1 00999K11 1 00045L11 1 06000M11 1 28740N11 1 00000Q11 1 10274S11 1 00061V11 1 00101W11 1 76008
0066719460999991959091720004+61750-121233SAO  +0169CYFS V0203151N002610024019N0240001N1+01191+00961101671ADDGA1081+002409059GF108991999999999999999999MA1999999100071MW1001
0356999999137731959081008005+38500-077300SAO  +0004NYG  V02029359002150152449N004800599+02115+01945100875ADDGA1999+999999104GA2999+015244064GA3999+999999024GD16025+9999999GD23025+9999999GD34035+9999999GD40995+9999999GF108085999999999999999999MA1999999100815MW1445EQDN01 07200JPWTH 1QNNE11 1 00803E11 1 00403E11 1 00604E11 1 00099G11 1 00050H11 1 45999H11 1 15050H11C1 37999K11 1 00067L11 1 00300M11 1 29770N11 1 07200Q11 1 10087S11 1 00070V11 1 01010W11 1 78004
0171999999947021959112215005+41167-073133SAO  +000899999V02099999000052200059N004800599+00564+00065102034ADDGF100005999999999999999999MA1999999101964MW1045EQDN01 08200JPWTH 1QNNG11U1 99999K11 1 00033L11 1 00300M11 1 30110N11 1 08200Q11 1 10203S11 1 00042V11 1 00000W11 1 00000
006694999900108195906042330N-34930+138580AUST +0040     V0202035N006259999999N999999999+01285+01205999999ADDGA1085+007505085GF108995084085007505999999MA1999999101705MW1615
0238724037937281959061313003+38717-077183SAO  +0020DAA  V02024859003152200059N0160005N9+02505+01835999999ADDGD12995+9999999GD22995+9999999GD30995+9999999GD40995+9999999GF104995999999999999999999MW1001EQDN01 00000JPWTH 1QNNE11 1 00299E11 1 00299E11 1 00099E11 1 00099G11U1 99999K11 1 00065L11 1 01000N11 1 00000S11 1 00077V11 1 00599W11 1 76006
0275999999240371959122302005+46433-105867SAO  +0801MLS  V02002359003650003049N000400599-00725-00725102425ADDGD15995+9999999GD20995+9999999GD30995+9999999GD40995+9999999GF108085999999999999999999MA1999999092625MW1455EQDN01 07000JPWTH 1QNNE11 1 00799E11 1 00099E11 1 00099E11 1 00099G11 1 00001K11 1 00019L11 1 00025M11 1 27350N11 1 07000Q11 1 10242S11 1 00019V11 1 01010W11 1 12007
0269999999932091959012903005+35667-120633SAO  +0246PRB  V02099999000052200059N024000599+01064+00335102244ADDGD12995+9999999GD20995+9999999GD30995+9999999GD40995+9999999GF102025999999999999999999MA1999999099264EQDN01 00000JPWTH 1QNNE11 1 00299E11 1 00099E11 1 00099E11 1 00099G11U1 99999K11 1 00038L11 1 01500M11 1 29310N11 1 00000Q11 1 10224S11 1 00051V11 1 00202W11 1 00000
0383703500255011959070521003+57750-152500SAO  +0034ADQ  V02004559001052200059N0240005N1+01445+00945101125ADDGA1011+220009004GA2999+999999999GA3999+999999999GA4999+999999999GD11015+9999993GD20005+9999999GD30005+9999999GD40005+9999999GF101005999999999999999999MA1999999100715MW1001EQDN01 00000JPWTH 1QNNE11 1 00101E11 1 00000E11 1 00000E11 1 00000G11U1 99999H11C1 32999H11 1 00999H11 1 00999H11 1 00999K11 1 00049L11 1 01500M11 1 29740N11 1 00000Q11 1 10112S11 1 00058V11 1 00100W11 1 22002
0081319600999991959081312004+43117+131883FM-12+0138UHWW V0209991C00001012001CN0200001N9+01891+01721100931ADDAA199000091AY121999GF108991081051012501999999KA1999M+02281MD1210021+9999MW1021
0076267010999991959052003004+54733+020317FM-12+999999999V0200701N00721220001CN0200001N9+00781+00111101991ADDAY111999GF106991999001999999031001MD1210011+9999MW1031EQDQ01+000002SCOTLC
039472528014733195908061800C+42933-078733SAO  +0217BUF  V02006859006250106749N0240005N1+02335+01395101605ADDAA101000095GA1071+010674084GA2999+999999999GA3999+999999999GA4999+999999999GD13075+9999999GD20005+9999999GD30005+9999999GD40005+9999999GF107075999999999999999999MA1999999099055MW1001EQDN01 00000JPWTH 1QNNE11 1 00409E11 1 00000E11 1 00000E11 1 00000G11 1 00035H11 1 11035H11 1 00999H11 1 00999H11 1 00999K11 1 00057L11 1 01500M11 1 29250N11 1 00000Q11 1 10160S11 1 00074V11 1 00909W11 1 32012
0057029110999991959090121004+63050+121767FM-12+000899999V0202401N00261030001CN0300001N9+01111+00891101801ADDAY161999GF108991041051008001071999MD1310031+9999MW1021
0050471870999991959110721004+33200+126217SAO  +0013RKPM V0209991C000012200019N0160001N1+01241+00911101781ADDGF100991999999999999999999MA1999999101691MW1001
0057238490999991959121912004+61250+073500FM-12+004399999V0202201N00411012301CN0100001N9-01781-02001103871ADDAY111999GF108991081051012501999999MD1710151+9999MW1031
0035722055999991959010313004+28433-081300SAO  +0029MCO  V0202701N001512200019N0160001N1+01691+01521999999ADDGF102991999999999999999999MW1001
0129718571999991959052312004+54917-098633FM-12+023399999V0201801N00411220001CN0240001N9+00561-00171101091ADDAJ199999999999999AL10600091AY111999GF106991061051012501001001KA1999M+01561KA2999N+00331MD1710231+9999MW1021EQDQ01  04472SNDP  
006094594099999195902280500N-27030+153470AUST +0099     V0200905N004659999999N999999999+02505+02105999999ADDGA1045+006005085GF104995044085006005999999MA1999999100445
007482030099999195909242100N+02067-050850BRAZ +0010     V02006019999999999999N020000199+02801+02301101261ADDGA1041+007001231GF104991999999999999999999MA1101221101141MD1310021+9999
0058062300999991959031821004+52467+004750FM-12+000699999V0200501N01131007801CN0080001N9+00391+00221999999ADDAY121999GF108991081051008001999999MA1999999102231MW1021
036199999914936195908200900E+44383-098217SAO  +039599999V02018059007752200059N032000599+02565+02175100535ADDAA101000095GA1999+018294094GA2999+024384034GA3999+999999024GD12005+9999999GD24025+9999999GD30065+9999999GD40995+9999999GF108085999999999999999999MA1999999096045EQDN01 00000JPWTH 1QNNE11 1 00200E11 1 00602E11 1 00008E11 1 00099G11C1 99999H11 1 18060H11 1 23080H11C1 37999K11 1 00071L11 1 02000M11 1 28360N11 1 00000Q11 1 10053S11 1 00078V11 1 01010W11 1 55015
0302722210138581959101812003+30483-086517SAO  +0040VPS  V02002359003150036649N0112005N9+01895+01675101205ADDGA1081+003664064GD14085+9999999GD20995+9999999GD30995+9999999GD40995+9999999GF108085999999999999999999MA1999999100815MW1001EQDN01 00000JPWTH 1QNNE11 1 00610E11 1 00099E11 1 00099E11 1 00099G11 1 00012H11 1 15012K11 1 00062L11 1 00700M11 1 29770N11 1 00000Q11 1 10120S11 1 00066V11 1 01010W11 1 12006
0057115410999991959041212004+48950+014450FM-12+043299999V0202501N00871036001CN0300001N9+01111+00281101401ADDAY181999GF107991041051008001021001MD1010021+9999MW1601
0122478180999991959050706004+32733+130250FM-12+085299999V0201101N002619999999N0000001N9+01331+01331999999ADDAA106004091AJ100009199999999AY101999GA1999+999999099GF108991999999999999999999IA1109MA1999999091841MD1710111+9999MW1631
0058063750999991959022300004+51650+005700FM-12+999999999V0202301N00311007801CN0120001N9+00391+00221999999ADDAY121999GF108991081051008001999999MA1999999102931MW1021
0296999999149471959080913005+44883-093217SAO  +0255MSP  V02013559002650048849N024000599+01675+01285101635ADDGA1999+004884064GD14085+9999999GD20995+9999999GD30995+9999999GD40995+9999999GF108085999999999999999999MA1999999098615EQDN01 00000JPWTH 1QNNE11 1 00610E11 1 00099E11 1 00099E11 1 00099G11 1 00016H11 1 15016K11 1 00055L11 1 01500M11 1 29120N11 1 00000Q11 1 10163S11 1 00062V11 1 01010W11 1 44005
0043489070999991959040403004+10000+105083FM-12+000399999V0201801N002619999999N0250001N9+03001+02611101141ADDAY141999GF107991999999999999999999MW1021
0083637660999991959120606004-02283-037833FM-12+099899999V0201301N00101007501CN0400001N9+02171+01721999999ADDGA1071+006009059GF107991071051008001001001MA1999999090331MD1999999-0931ME1315239
0053630210999991959122406004+15283+038917FM-12+2356HAAY V0201001N00411220001CN0400001N9+01391+00391999999ADDAA124000091GF101991001001999999001011KA1999N+00501
038899999923066195907261500E+39117-108533SAO  +1476GJT  V02018059003650365849N144000599+02445+00785101525ADDAA101000095GA1999+024384064GA2999+036584034GA3999+999999004GA4999+999999999GD12025+9999999GD23035+9999999GD33025+9999999GD40005+9999999GF106065999999999999999999MA1999999085615EQDN01 00000JPWTH 1QNNE11 1 00202E11 1 00404E11 1 00402E11 1 00000G11 1 00120H11 1 15080H11 1 23120H11C1 32999H11 1 00999K11 1 00046L11 1 09000M11 1 25280N11 1 00000Q11 1 10152S11 1 00076V11 1 00807W11 1 55007
0057545340999991959032421004+39667+118117FM-12+005799999V0202901N00721015001CN0150001N9+01001-00391100871ADDAY121031GF107991071051017501999999MD1210071+9999MW1031
0035106140999991959020414004+49417+007583SAO  +0240EDAR V0200901N006212200019N0128001N9+00441-00891999999ADDGF102991999999999999999999MW1001
0275999999146101959052809005+45650-068683SAO  +0124MLT  V02099999000052200059N009600599+01675+01505101595ADDGD12995+9999999GD23995+9999999GD30995+9999999GD40995+9999999GF105045999999999999999999MA1999999100105MW1055EQDN01 08100JPWTH 1QNNE11 1 00299E11 1 00499E11 1 00099E11 1 00099G11C1 99999K11 1 00059L11 1 00600M11 1 29560N11 1 08100Q11 1 10159S11 1 00062V11 1 00605W11 1 00000
0043505640999991959111409004+49500+127250FM-12+999999999V0202701N00101220001CN0300001N9-01611+99999101711ADDAY101999GF101991001001999999999999MW1021
0238722745231091959053019003+32167-110883SAO  +0809DMA  V02022559002650487749N0960005N9+03065-01005999999ADDGD13995+9999999GD24995+9999999GD30995+9999999GD40995+9999999GF108995999999999999999999MW1001EQDN01 00000JPWTH 1QNNE11 1 00499E11 1 00699E11 1 00099E11 1 00099G11 1 00160K11 1 00014L11 1 06000N11 1 00000S11 1 00087V11 1 01099W11 1 66005
0099637410999991959100406004-01300+036750FM-12+179899999V0209991C00001045001CN0160001N9+01671+01281999999ADDGA1011+021009059GA2031+048009039GF107991011051022501071001MA1999999082251MD1999999-0901ME1315209
0092239330999991959022418004+60967+069067FM-12+004099999V0202201N00411007801CN0040001N9-00891-01111101671ADDAA106004091AA299001091AY171999GF108991081051008001999999KA1999M-00721MD1710051+9999MW1711
0076320880999991959090118004+49083+142067FM-12+005399999V0203601N00311007801CN0200001N9+01391+01221099951ADDAY161999GF108991999071008001021999MD1610031+9999MW1611EQDQ01+000082SCOTLC
0066717310999991959091821004+46367-079417SAO  +0369CYYB V0202701N004610120019N0240001N1+01071+00131103091ADDGA1051+012009089GF107991999999999999999999MA1999999098541MW1001
0051488630999991959042204004+15133+108783SAO  +0009VVQC V0201131N002612200019N0240001N1+99999+99999999999ADDGA1011+006909009GF102991999999999999999999MW1001
0057543770999991959100415004+41100+126167FM-12+030599999V0201801N00101220001CN0350001N9+00891+00721101361ADDAY101031GF100991001001999999001001MD1210121+9999MW1021
0043477720999991959020517004+34650+135533FM-12+000899999V0202901N00101220001CN0032001N9+00611+00281102521ADDAY101999GF100991001001999999001001MW1101
0057577990999991959123103004+27083+114917FM-12+007399999V0200401N00311007801CN0150001N9+00391+00221103471ADDAY161999GF108991081081008001999999MD1210111+9999MW1011
0024488750999991959061213004+12683+108083SAO  +0537VVSB V02099999999999999999N0000001N1+02461+99999999999ADDMA1999999094791MW1001
0035107280999991959090108004+49567-008467SAO  +0099EDOR V0203401N003112200019N0128001N9+01631+00851999999ADDGF100991999999999999999999MW1001
033499999924028195911112200E+41867-103600SAO  +1206BFF  V02013559004650243849N040000599+00395-00115101225ADDAA101000095GA1999+006104064GA2999+024384034GD14005+9999999GD20085+9999999GD30995+9999999GD40995+9999999GF108085999999999999999999MA1999999087405EQDN01 00000JPWTH 1QNNE11 1 00600E11 1 00010E11 1 00099E11 1 00099G11 1 00080H11 1 15020H11 1 23080K11 1 00030L11 1 02500M11 1 25810N11 1 00000Q11 1 10122S11 1 00039V11 1 01010W11 1 44009
038899999913963195907201600E+34733-092233SAO  +008499999V02009059002150051849N011200599+02835+02285101695ADDAA101000095GA1999+005184084GA2999+999999999GA3999+999999999GA4999+999999999GD13065+9999999GD20005+9999999GD30005+9999999GD40005+9999999GF106065999999999999999999MA1999999100755EQDN01 00000JPWTH 1QNNE11 1 00408E11 1 00000E11 1 00000E11 1 00000G11 1 00017H11 1 11017H11 1 00999H11 1 00999H11 1 00999K11 1 00073L11 1 00700M11 1 29750N11 1 00000Q11 1 10169S11 1 00083V11 1 00808W11 1 33004
0081527870999991959101221004+37183+103083FM-12+304099999V0201601N00721036001CN0300001N9+00281+00111999999ADDAY121999GF108991021061004501011011MA1999999100701MD1710091+9999ME1431209MW1031
0269999999139971959042608005+38133-091767SAO  +0350VIH  V02020359002650100649N024000599+01785+01395101325ADDGD13995+9999999GD20995+9999999GD30995+9999999GD40995+9999999GF106065999999999999999999MA1999999097325EQDN01 00000JPWTH 1QNNE11 1 00499E11 1 00099E11 1 00099E11 1 00099G11 1 00033K11 1 00057L11 1 01500M11 1 28740N11 1 00000Q11 1 10132S11 1 00064V11 1 00808W11 1 56005
0057252860999991959121518004+67467-174600FM-12+999999999V0202001N00311220001CN0100001N9-03281-03501102411ADDAY101999GF100991001001999999001001MD1310011+9999MW1021
0269999999266271959080201005+63883-160800SAO  +0006UNK  V02036059004150167649N032000599+01565+01285101905ADDGD13995+9999999GD24995+9999999GD30995+9999999GD40995+9999999GF108085999999999999999999MA1999999101835EQDN01 00000JPWTH 1QNNE11 1 00499E11 1 00699E11 1 00099E11 1 00099G11 1 00055K11 1 00055L11 1 02000M11 1 30070N11 1 00000Q11 1 10190S11 1 00060V11 1 01010W11 1 11008
0269999999231591959080923005+37700-112150SAO  +2317BCE  V02006859004650243849N040000599+02225+00945101635ADDGD14995+9999999GD20995+9999999GD30995+9999999GD40995+9999999GF108065999999999999999999MA1999999077585EQDN01 00000JPWTH 1QNNE11 1 00699E11 1 00099E11 1 00099E11 1 00099G11 1 00080K11 1 00049L11 1 02500M11 1 22910N11 1 00000Q11 1 10163S11 1 00072V11 1 01008W11 1 32009
0377999999931011959042618005+33683-117717SAO  +011699999V02027059003150076249N032000599+02064+01335101754ADDGA1999+003054084GA2999+007624064GA3999+999999999GA4999+999999999GD12015+9999999GD23055+9999999GD30005+9999999GD40005+9999999GF106065999999999999999999MA1999999100414EQDN01 00000JPWTH 1QNNE11 1 00201E11 1 00406E11 1 00000E11 1 00000G11 1 00025H11 1 11010H11 1 15025H11 1 00999H11 1 00999K11 1 00056L11 1 02000M11 1 29650N11 1 00000Q11 1 10175S11 1 00069V11 1 00707W11 1 77006
0100246290999991959022512004+63217+113633FM-12+016399999V0209991C00001220001CN0200001N9-02612-02891104121ADDAA199000091AY101999GF100991001001999999001001KA1999M-01281MD1810041+9999MW1021EQDQ01+024713ATOT  
017699999923155195906270900E+35417-119050SAO  +0151BFL  V02031559006252200059N024000599+02115+01445100815ADDAA101000095GF100005999999999999999999MA1999999099095EQDN01 00000JPWTH 1QNNG11U1 99999K11 1 00058L11 1 01500M11 1 29260N11 1 00000Q11 1 10081S11 1 00070V11 1 00000W11 1 88012
0073784390999991959111121004+18550-072350FM-12+001699999V0202501N00311220001CN0240001N9+03001+02281101321ADDAY121999GA1021+013509059GF107991021051004501021011MD1410001+9999MW1161
0094478980999991959092619004+32717+133017FM-12+003299999V0202901N00211220001CN0400001N9+02171+01721100221ADDAY101999GA1999+011709029GA2031+999999999GF199999001001999999031001MW1011EQDQ01+000022SCOTCV
0066722866231221959012603004+34100-117250SAO  +0352SBD  V0209991C000012200019N0024001N9+01301+00911101861ADDGA1091+999999999GF109991999999999999999999MA1999999097631MW1051
0318743920146111959012213003+43900-069933SAO  +0021NHZ  V02020359010350000049N0001005N1+00785+00785099355ADDGA1091+000004104GD15085+9999999GD20995+9999999GD30995+9999999GD40995+9999999GF108085999999999999999999MA1999999099095MW1455EQDQ01    003PRSWM1N01 07000JPWTH 1QNNE11 1 00710E11 1 00099E11 1 00099E11 1 00099G11 1 00000H11 1 45000K11 1 00046L11 1 00006M11 1 29260N11 1 07000Q11 1 09935S11 1 00046V11 1 01010W11 1 56020
0066601560999991959042103004+33367-007583SAO  +0200GMMN V0209991C000012200019N0064001N9+00911+99999101441ADDGA1001+999999999GF100991999999999999999999MA1999999099051MW1111
0269999999938181959100300005+38417-082500SAO  +017199999V02099999000052200059N011200599+02004+01675101634ADDGD11995+9999993GD20995+9999999GD30995+9999999GD40995+9999999GF102015999999999999999999MA1999999099594EQDN01 00000JPWTH 1QNNE11 1 00199E11 1 00099E11 1 00099E11 1 00099G11U1 99999K11 1 00062L11 1 00700M11 1 29410N11 1 00000Q11 1 10163S11 1 00068V11 1 00201W11 1 00000
0057574470999991959072321004+30267+109367FM-12+043799999V0209991C00001220001CN0180001N9+02221+02221100671ADDAY191999GF101991011091012501001001MD1810041+9999MW1131
0057126950999991959031203004+49800+022767FM-12+021999999V0200901N00721024001CN0150001N9-00221-00721102051ADDAY121999GF108991081001999999021999MD1710141+9999MW1031
0057132740999991959090315004+44817+020300FM-12+010199999V0200601N00311007801CN0400001N9+02001+00891101961ADDAY121999GF199999051051008001061001MD1710081+9999MW1011
0057253560999991959030721004+66383+173283FM-12+999999999V0209991C00001220001CN0200001N9-04111-04281102341ADDAY101999GF100991001001999999001001MD1210121+9999MW1021
035672353013967195907131000C+35400-097600SAO  +0390OKC  V02015859005750426749N0240005N1+02005+01785101695ADDAA101000095GA1999+012194094GA2081+042674034GD14005+9999999GD20085+9999999GD30995+9999999GD40995+9999999GF108085999999999999999999MA1999999097095MW1001EQDQ01    003SCCGA1N01 00000JPWTH 1QNNE11 1 00600E11 1 00010E11 1 00099E11 1 00099G11 1 00140H11 1 18040H11 1 23140K11 1 00064L11 1 01500M11 1 28670N11 1 00000Q11 1 10169S11 1 00068V11 1 01010W11 1 54011
0029742060242071959081907004+47150-122483SAO  +0098TCM  V0202701N001510180019N0241401N9+01391+01001999999ADDGF107991999999999999999999
0057938960999991959052006004-45783+170750FM-12+007699999V0203401N01031220001CN0500001N9+00721+00331101881ADDAY101999GF102991021081012501001001MD1710191+9999MW1021
0057348240999991959033106004+46033+038650FM-12+000599999V0202501N00311220001CN0200001N9+00781+00501999999ADDAY121999GF107991001001999999081021MD1210111+9999MW1021
0269999999240251959121022005+44383-100283SAO  +052599999V02022559001550457249N032000599+00505-00175101295ADDGD13995+9999999GD24995+9999999GD30995+9999999GD40995+9999999GF108075999999999999999999MA1999999094955EQDN01 00000JPWTH 1QNNE11 1 00499E11 1 00699E11 1 00099E11 1 00099G11 1 00150K11 1 00029L11 1 02000M11 1 28040N11 1 00000Q11 1 10129S11 1 00041V11 1 01009W11 1 66003
0238724296138411959022617003+39433-083800SAO  +0321ILN  V02027059006752200059N0112005N1+00895+00175999999ADDGD12995+9999999GD23995+9999999GD30995+9999999GD40995+9999999GF106995999999999999999999MW1001EQDN01 00000JPWTH 1QNNE11 1 00299E11 1 00499E11 1 00099E11 1 00099G11C1 99999K11 1 00035L11 1 00700N11 1 00000S11 1 00048V11 1 00899W11 1 77013
0377999999137691959032007005+36817-076033SAO  +000899999V02022559001052200059N016000599+00785+00335102685ADDGA1999+036584034GA2999+999999004GA3999+999999999GA4999+999999999GD12015+9999999GD23045+9999993GD30005+9999999GD40005+9999999GF105025999999999999999999MA1999999102575EQDN01 00000JPWTH 1QNNE11 1 00201E11 1 00305E11 1 00000E11 1 00000G11U1 99999H11 1 23120H11C1 32999H11 1 00999H11 1 00999K11 1 00038L11 1 01000M11 1 30290N11 1 00000Q11 1 10268S11 1 00046V11 1 00602W11 1 66002
0057029700999991959062215004+60117+019900FM-12+000399999V0203601N00621220001CN0500001N9+01501-00111103291ADDAY101999GF101991011001999999041001MD1810031+9999MW1021
006095866099999195904151400N-37730+144900AUST +0081YMEN V0202705N003159999999N999999999+00945+00705999999ADDGA1035+015005065GF103995034055015005999999MA1999999101245
0057368310999991959062921004+44683+077017FM-12+999999999V0202001N00211220001CN0100001N9+02281+00781100241ADDAY101999GF100991001001999999001001MD1410001+9999MW1021
0066471410432191959022409001+35900+126617SAO  +0013RKJK V0203201N008212200019N0128001N9+00461-00041102641ADDGA1021+220009009GF102991999999999999999999MA1999999102541MW1001
0193999999252371959081809005+50650-128000SAO  +0569CYHJ V02033859003150000049N000000599+00945+00945999999ADDGA1999+000004104GD19085+9999999GF108085999999999999999999MW1455MW2615EQDN01 02070JPWTH 1QNNE11 1 09910G11 1 00000H11 1 45000K11 1 00049L11 1 00000N11 1 02070S11 1 00049V11 1 01010W11 1 18006
006094660099999195901222330N-34730+135870AUST +0005     V0201805N001059999999N999999999+02335+01605999999ADDGA1005+999999999GF100995004999999999999999MA1999999100915
0275999999265161959110813005+61583-159533SAO  +002499999V02099999000050137249N016000599-00835-00945102375ADDGD14995+9999999GD20995+9999999GD30995+9999999GD40995+9999999GF108085999999999999999999MA1999999102035MW1715EQDN01 04000JPWTH 1QNNE11 1 00699E11 1 00099E11 1 00099E11 1 00099G11 1 00045K11 1 00015L11 1 01000M11 1 30130N11 1 04000Q11 1 10237S11 1 00017V11 1 01010W11 1 00000
0116084950999991959102806004+36150-005350FM-12+000299999V0202801N00871009001CN0400001N9+01561+01061100951ADDAY181999GA1021+004509059GA2051+009009089GA3999+999999049GF107991021051004501081999IA1109MW1011EQDQ01    003SCCGA3
038899999913893195901260400E+35050-089983SAO  +007999999V02018059003650213449N024000599+01175+00065101595ADDAA101000095GA1999+021344034GA2999+999999999GA3999+999999999GA4999+999999999GD13075+9999999GD20005+9999999GD30005+9999999GD40005+9999999GF107075999999999999999999MA1999999100545EQDN01 00000JPWTH 1QNNE11 1 00409E11 1 00000E11 1 00000E11 1 00000G11 1 00070H11 1 23070H11 1 00999H11 1 00999H11 1 00999K11 1 00033L11 1 01500M11 1 29690N11 1 00000Q11 1 10159S11 1 00053V11 1 00909W11 1 55007
0050701040999991959121013004+68867-166133SAO  +0006PALU V0200201N004610054019N0112001N9-02311-02701101021ADDGF108991999999999999999999MA1999999100951MW1711
0072627710999991959120718004+13167+030233FM-12+057499999V0200201N00411220001CN0200001N9+02721+00281100901ADDAY111999GA1051+090009009GF105991001001999999001061KA1999M+03391MW1031
038899999903813195906122200E+32700-083650SAO  +0108MCN  V02011359003652200059N016000599+03225+01615101195ADDAA101000095GA1999+016764084GA2999+999999024GA3999+999999999GA4999+999999999GD12015+9999999GD23045+9999993GD30005+9999999GD40005+9999999GF105025999999999999999999MA1999999099905EQDN01 00000JPWTH 1QNNE11 1 00201E11 1 00305E11 1 00000E11 1 00000G11U1 99999H11 1 11055H11C1 37999H11 1 00999H11 1 00999K11 1 00061L11 1 01000M11 1 29500N11 1 00000Q11 1 10119S11 1 00090V11 1 00602W11 1 34007
017699999913958195910200500E+30300-097700SAO  +018999999V02099999000052200059N024000599+01285+00895101495ADDAA101000095GF100005999999999999999999MA1999999099295EQDN01 00000JPWTH 1QNNG11U1 99999K11 1 00048L11 1 01500M11 1 29320N11 1 00000Q11 1 10149S11 1 00055V11 1 00000W11 1 00000
0057029350999991959082512004+62400+025667FM-12+014599999V0201801N00311001501CN0200001N9+01721+01501098481ADDAY161999GF106991051031001501021021MD1610201+9999MW1801
033499999913737195911022100E+36900-076200SAO  +0007ORF  V02004559008250137249N024000599+01335+00725100815ADDAA101000095GA1999+006104084GA2999+013724064GD12015+9999999GD24075+9999999GD30995+9999999GD40995+9999999GF108085999999999999999999MA1999999100715EQDN01 00000JPWTH 1QNNE11 1 00201E11 1 00609E11 1 00099E11 1 00099G11 1 00045H11 1 11020H11 1 15045K11 1 00045L11 1 01500M11 1 29740N11 1 00000Q11 1 10081S11 1 00056V11 1 01010W11 1 22016
0058062720999991959102909004+52617+005850FM-12+000599999V0203401N006219999999N0150001N9+00891+00721999999ADDAY181999GF105991041091004501031001MA1999999100151MW1011
0383724040137211959092013003+38300-076417SAO  +0014NHK  V02024859001552200059N0192005N1+01565+01115103205ADDGA1011+012194084GA2021+054864034GA3051+220009004GA4999+999999999GD12015+9999999GD22025+9999999GD34055+9999999GD40005+9999999GF108055999999999999999999MA1999999103055MW1001EQDN01 00000JPWTH 1QNNE11 1 00201E11 1 00203E11 1 00606E11 1 00000G11C1 99999H11 1 11040H11 1 23180H11C1 32999H11 1 00999K11 1 00052L11 1 01200M11 1 30430N11 1 00000Q11 1 10320S11 1 00060V11 1 01006W11 1 76003
041072446113988195908071700C+39117-094583SAO  +0241KC   V02036059005752200059N0240005N1+02335+01285101795ADDAA101000095GA1999+006104154GA2011+220009004GA3999+999999999GA4999+999999999GD11005+9999993GD20015+9999999GD30005+9999999GD40005+9999999GF101005999999999999999999MA1999999099125MW1001EQDQ01    003SCCGA1N01 00000JPWTH 1QNNE11 1 00100E11 1 00001E11 1 00000E11 1 00000G11U1 99999H11 1 17020H11C1 32999H11 1 00999H11 1 00999K11 1 00055L11 1 01500M11 1 29270N11 1 00000Q11 1 10179S11 1 00074V11 1 00100W11 1 11011
0035478080999991959011113004+33583+130450SAO  +0012RJFF V0201351N002110123019N0112001N1+00241+00081999999ADDGF108991999999999999999999MW1851
0095476260999991959102300004+36150+139383FM-12+003199999V0209991C00051220001CN0700001N9+01561+00831102841ADDAJ100009199999999AY101999GF100991001001999999001001IA1009MA1999999102471MD1210191+9999MW1021
0081020540999991959012618004+67200+023417FM-12+018099999V0201801N00261007801CN0650001N9-00891-01111099941ADDAA199000691AY121999GF108991071051008001999999KA1999M-00891MD1510151+9999MW1031
0377999999129581959051500005+29833-090017SAO  +000199999V02036059001050106749N019200599+02445+02065101515ADDGA1999+010674094GA2999+999999004GA3999+999999999GA4999+999999999GD13065+9999999GD23015+9999999GD30005+9999999GD40005+9999999GF106065999999999999999999MA1999999101525EQDN01 00000JPWTH 1QNNE11 1 00407E11 1 00401E11 1 00000E11 1 00000G11 1 00035H11 1 18035H11C1 32999H11 1 00999H11 1 00999K11 1 00069L11 1 01200M11 1 29980N11 1 00000Q11 1 10151S11 1 00076V11 1 00808W11 1 11002
0035724836232081959092401004+38667-121400SAO  +0022MCC  V0203201N004612200019N0640001N9+02911+00911999999ADDGF107991999999999999999999MW1001
0035476430999991959020401004+35833+139417SAO  +0090RJTJ V0203601N006212200019N0240001N1+01071-00261999999ADDGF102991999999999999999999MW1001
0057366390999991959020821004+47117+081617FM-12+050199999V0209991C00001220001CN0100001N9-01221-01391102051ADDAY101999GF100991001001999999001001MD1710101+9999MW1021
0035722055999991959012201004+28433-081300SAO  +0029MCO  V0201801N003112200019N0160001N1+02351+01961999999ADDGF107991999999999999999999MW1001
038899999923061195908141600E+37450-105867SAO  +229899999V02011359002150426749N064000599+01565+01225101595ADDAA101000095GA1999+018294084GA2999+042674034GA3999+999999999GA4999+999999999GD12015+9999999GD23065+9999999GD30005+9999999GD40005+9999999GF107075999999999999999999MA1999999077485EQDN01 00000JPWTH 1QNNE11 1 00201E11 1 00408E11 1 00000E11 1 00000G11 1 00140H11 1 11060H11 1 23140H11 1 00999H11 1 00999K11 1 00054L11 1 04000M11 1 22880N11 1 00000Q11 1 10159S11 1 00060V11 1 00909W11 1 34004
0066035623999991959090509004+52367-000250SAO  +0049EGWZ V0200501N006712200019N0200001N9+01741+01241102461ADDGA1041+006609089GF102991999999999999999999MA1999999101861MW1001
0269999999255151959111301005+53983-166850SAO  +038999999V02031559001050106749N024000599+00445+00445100545ADDGD13995+9999999GD20995+9999999GD30995+9999999GD40995+9999999GF106065999999999999999999MA1999999100445EQDN01 00000JPWTH 1QNNE11 1 00499E11 1 00099E11 1 00099E11 1 00099G11 1 00035K11 1 00040L11 1 01500M11 1 29660N11 1 00000Q11 1 10054S11 1 00040V11 1 00808W11 1 88002
0043298220999991959040915004+53800+081333FM-12+014699999V0203201N01391012301CN0040001N9-00111-00221101171ADDAY171999GF108991081001012501021999MW1371
031372533014827195912280000C+41000-085217SAO  +0249FWA  V02013559005250085349N0192005N9+01445+01005100515ADDAA101000095GA1081+008534064GD14085+9999999GD20995+9999999GD30995+9999999GD40995+9999999GF108085999999999999999999MA1999999097535MW1001EQDN01 00000JPWTH 1QNNE11 1 00610E11 1 00099E11 1 00099E11 1 00099G11 1 00028H11 1 15028K11 1 00050L11 1 01200M11 1 28800N11 1 00000Q11 1 10051S11 1 00058V11 1 01010W11 1 44010
039472208013880195906220500C+32900-080033SAO  +0012CHS  V02099999000052200059N0240005N1+02225+02225101525ADDAA101000095GA1011+220009014GA2011+999999999GA3999+999999999GA4999+999999999GD12015+9999999GD20015+9999999GD30005+9999999GD40005+9999999GF101015999999999999999999MA1101521101355MW1001EQDN01 00000JPWTH 1QNNE11 1 00201E11 1 00001E11 1 00000E11 1 00000G11U1 99999H11C1 39999H11 1 00999H11 1 00999H11 1 00999K11 1 00072L11 1 01500M11 1 29930N11 1 00000Q11 1 10152S11 1 00072V11 1 00101W11 1 00000
0035106160999991959072002004+49950+007250SAO  +0506EDAH V0203401N003612200019N0096001N9+01551+01221999999ADDGF100991999999999999999999MW1051
0043430130999991959051618004+19883+075333FM-12+058199999V0209991C00001045001CN0040001N9+03111+02111100381ADDAY121999GF107991071001999999071001MW1021
0082702615999991959062315004+64833-147600SAO  +0139PAFB V0200701N002110108019N0240001N9+01301+01021101391ADDGA1051+010809079GA2061+021009039GF108991999999999999999999MA1999999099631MW1001
0232999999264031959103011005+64850-147583SAO  +0148FBK  V02099999000050213449N048000599-00395-00675999999ADDGD12995+9999999GD23995+9999999GD33995+9999999GD40995+9999999GF106995999999999999999999EQDN01 00000JPWTH 1QNNE11 1 00299E11 1 00499E11 1 00499E11 1 00099G11 1 00070K11 1 00020L11 1 03000N11 1 00000S11 1 00025V11 1 00899W11 1 00000
0076229810999991959070715004+60767+046300FM-12+006399999V0200701N00211220001CN0200001N9+02111+01721101681ADDAY121999GF106991999001999999081001MD1710141+9999MW1011EQDQ01+000002SCOTLC
038899999913895195905221800E+32300-086400SAO  +0058MGM  V02018059003150091449N024000599+03005+02065102035ADDAA101000095GA1999+009144084GA2999+036584034GA3999+999999999GA4999+999999999GD13055+9999999GD23015+9999999GD30005+9999999GD40005+9999999GF106065999999999999999999MA1999999101325EQDN01 00000JPWTH 1QNNE11 1 00406E11 1 00401E11 1 00000E11 1 00000G11 1 00030H11 1 11030H11 1 23120H11 1 00999H11 1 00999K11 1 00069L11 1 01500M11 1 29920N11 1 00000Q11 1 10203S11 1 00086V11 1 00707W11 1 55006
038899999923065195905170400E+39367-101700SAO  +1111GLD  V02004559006752200059N024000599+01115+01005100935ADDAA101000095GA1999+015244064GA2999+036584034GA3999+999999004GA4999+999999999GD12005+9999999GD22025+9999999GD30025+9999999GD40005+9999999GF104025999999999999999999MA1999999088355EQDN01 00000JPWTH 1QNNE11 1 00200E11 1 00202E11 1 00003E11 1 00000G11U1 99999H11 1 15050H11 1 23120H11C1 32999H11 1 00999K11 1 00050L11 1 01500M11 1 26090N11 1 00000Q11 1 10093S11 1 00052V11 1 00503W11 1 22013
007694768099999195910280800N-33870+151200AUST +0069     V0200685N004659999999N999999999+01895+01705999999ADDGA1035+003605115GA2055+999999035GF108995034075003605075999MA1999999100765
017699999924028195902060300E+41867-103600SAO  +1206BFF  V02013559002652200059N040000599-00785-01175102275ADDAA101000095GF100005999999999999999999MA1999999087915EQDN01 00000JPWTH 1QNNG11U1 99999K11 1 00011L11 1 02500M11 1 25960N11 1 00000Q11 1 10227S11 1 00018V11 1 00000W11 1 44005
0009489000999991959100516004+10817+106667SAO  +0019VVTS V0200231N003119999999N0000001N1+99999+99999999999ADDMW1001
0383910660227011959090210003+28200-177383SAO  +0007PMDY V02009059004152200059N0192005N1+02565+02225101705ADDGA1021+006104084GA2999+999999999GA3999+999999999GA4999+999999999GD12025+9999999GD20005+9999999GD30005+9999999GD40005+9999999GF102025999999999999999999MA1999999101595MW1001EQDN01 00000JPWTH 1QNNE11 1 00202E11 1 00000E11 1 00000E11 1 00000G11U1 99999H11 1 11020H11 1 00999H11 1 00999H11 1 00999K11 1 00072L11 1 01200M11 1 30000N11 1 00000Q11 1 10170S11 1 00078V11 1 00202W11 1 33008
0329702610264111959070313003+64817-147867SAO  +0134FAI  V02018059002150274349N0112005N1+01225+01175100815ADDGA1999+004574134GA2081+027434034GD14005+9999999GD20085+9999999GD30995+9999999GD40995+9999999GF108085999999999999999999MA1999999099125MW1001EQDN01 00000JPWTH 1QNNE11 1 00600E11 1 00010E11 1 00099E11 1 00099G11 1 00090H11 1 13015H11 1 23090K11 1 00053L11 1 00700M11 1 29270N11 1 00000Q11 1 10081S11 1 00054V11 1 01010W11 1 55004
0078477780999991959061404004+33450+135767FM-12+007599999V0200901N00571002701CN0200001N9+02331+01781100661ADDAY101999GA1999+011709019GF107991011021012501051021MW1031EQDQ01    003SCCGA1
0040477540999991959101318004+34417+131400FM-12+000799999V0201601N005119999999N9999999N9+01001+99999101981ADDAY101999MA1999999101901MD1310021+9999
0067789250999991959071906004+14600-061000FM-12+000599999V0200501N008219999999N0120001N9+02391+99999101521ADDAA106003091AY161999GF108991061091002501021999KA1999M+02891MW1611
0057443410999991959102918004+45767+106283FM-12+139199999V0203601N00311220001CN0500001N9-00721+99999102301ADDAY101999GF102991001001999999001021MD1410001+9999MW1031
0081227780999991959013118004+62233+045033FM-12+005399999V0202801N00981007801CN0100001N9-00501-00721101271ADDAA199000091AY121999GF107991071051008001001001KA1999M-00221MD1210011+9999MW1021
0269999999265331959100707005+66917-151517SAO  +020599999V02099999000052200059N024000599-00395-00615103385ADDGD10995+9999999GD20995+9999999GD30995+9999999GD40995+9999999GF100005999999999999999999MA1999999100715EQDN01 00000JPWTH 1QNNE11 1 00099E11 1 00099E11 1 00099E11 1 00099G11U1 99999K11 1 00021L11 1 01500M11 1 29740N11 1 00000Q11 1 10338S11 1 00025V11 1 00000W11 1 00000
0043442140999991959033106004+48967+089967FM-12+172099999V0201701N00101220001CN0500001N9+00001-01281103211ADDAY111999GF106991001001999999001061MW1021
0082477650999991959112412004+34367+132433FM-12+003099999V02099999999999999999N9999999N9+99999+99999999999ADDAA106003091AA224005091AJ100009199999999AY101999IA1109KA1999M+01941KA2999N+00671
0043076450999991959070200004+43867+004400FM-12+006099999V0203601N00621220001CN0150001N9+01941+99999102601ADDAY101999GF101991999999999999001021MW1011
0056405870999991959091706004+14000+045700FM-12+204299999V0201601N00051220001CN0450001N9+01441+01171999999ADDAY101999GF104991001001999999081011KA1999N+01281MW1001
0057377350999991959112309004+40717+046417FM-12+030399999V0202701N00101036001CN0200001N9+00611+00391999999ADDAY121031GF108991021021022501051061MD1710101+9999MW1021
0059638440999991959090606004-05083+039067FM-12+004999999V0202101N00361220001CN0400001N9+02441+02061101611ADDGA1021+006009089GF102991021021008001041001MD1999999-0911
0057587150999991959091415004+27550+116600FM-12+007999999V0209991C00001220001CN0350001N9+02501+02111100851ADDAY101999GF100991001001999999001001MD1110121+9999MW1021
0051031350999991959082123004+55500-004583SAO  +0020EGPK V0202701N004612200019N0160001N1+01521+99999999999ADDGA1011+007509999GF102991999999999999999999MW1001
0098986450999991959082207004+10333+123900FM-12+004299999V0200501N00261015001CN0300001N9+02501+02281100911ADDGA1021+007509049GA2081+015009039GA3999+999999079GF108991061051017501031999MA1999999100381MW1611
0068202770999991959050206004+77083+088967FM-12+999999999V0200701N00621220001CN0100001N9-02001-02111101811ADDAA106000091AY111999GF100991001001999999001001MD1210151+9999MW1361
0029852230999991959011918004-17383-066167FM-12+257199999V02099999999999999999N9999999N9+99999+99999999999ADDKA1999M+02611KA2999N+01331
0081156130999991959091506004+42567+023283FM-12+229699999V0202701N01181000151CN0000001N9+00391+00391999999ADDAA199002091AY161999GF109991091999000251999999KA1999N+00281MD1310041+9999MW1451
0035722576039021959032820004+31067-097817SAO  +0309GRK  V0200901N004612200019N0192001N9+01631+00801999999ADDGF102991999999999999999999MW1001
007694129099999195904112330N-11320+131770AUST +0020     V0200685N001059999999N999999999+02675+02305999999ADDGA1035+006005085GA2055+999999045GF108995034025006005035999MA1999999100745
0281999999254031959032104005+59450-146317SAO  +0037MDO  V02031559010350030549N003200599-00565-00835098235ADDGD14995+9999999GD20995+9999999GD30995+9999999GD40995+9999999GF108995999999999999999999MA1999999098005MW1455MW2855EQDN01 05070JPWTH 1QNNE11 1 00699E11 1 00099E11 1 00099E11 1 00099G11 1 00010K11 1 00017L11 1 00200M11 1 28940N11 1 05070Q11 1 09823S11 1 00022V11 1 01099W11 1 88020
0057152800999991959032521004+45450+025450FM-12+251299999V0202801N007219999999N0200001N9-00391-00391100241ADDAY111999GF106991061061999999001001MD1410001+9999MW1011
0098719340999991959032715004+60017-111967SAO  +0203CYSM V0202931N004112200019N0240001N1-00311-00651100471ADDGA1021+002709079GA2011+027009039GA3021+060009009GF107991999999999999999999MA1999999097931MW1001
0035749105999991959030502004+40733-073600SAO  +003899999V0202931N006212200019N0240001N1+00411-00761999999ADDGF100991999999999999999999MW1001
0057150900999991959040900004+47167+027600FM-12+010399999V0209991C00001220001CN0200001N9+00611+00221101491ADDAY101999GF100991001001999999001001MD1210081+9999MW1021
0050725816999991959101903004+40183-112933SAO  +1326DPG  V0209991C000012200019N0240001N1+01411-00311101461ADDGF100991999999999999999999MA1999999086521MW1001
033499999914740195910281000E+41933-072683SAO  +0052BDL  V02031559007750112849N024000599+00445-00225101655ADDAA101000095GA1999+007624064GA2999+011284064GD12025+9999999GD24065+9999999GD30995+9999999GD40995+9999999GF108085999999999999999999MA1999999100985EQDN01 00000JPWTH 1QNNE11 1 00202E11 1 00608E11 1 00099E11 1 00099G11 1 00037H11 1 15025H11 1 15037K11 1 00028L11 1 01500M11 1 29820N11 1 00000Q11 1 10165S11 1 00040V11 1 01010W11 1 88015
038899999914840195906142100E+43167-086233SAO  +019699999V02029359005752200059N024000599+01675+00175102205ADDAA101000095GA1999+039624034GA2999+999999024GA3999+999999999GA4999+999999999GD12045+9999999GD24065+9999999GD30005+9999999GD40005+9999999GF108055999999999999999999MA1999999099865EQDN01 00000JPWTH 1QNNE11 1 00205E11 1 00608E11 1 00000E11 1 00000G11C1 99999H11 1 23130H11C1 37999H11 1 00999H11 1 00999K11 1 00035L11 1 01500M11 1 29490N11 1 00000Q11 1 10220S11 1 00062V11 1 01006W11 1 78011
0035691464999991959032908004+37000+035433SAO  +0073KQDG V0209991C000012200019N0320001N9+01911+01191999999ADDGF107991999999999999999999MW1001
0099637080999991959101413004-00100+034750FM-12+114699999V0202101N00721045001CN0400001N9+03111+01281999999ADDGA1031+009009099GA2031+030009039GF106991031091012501051011MA1999999088331MD1999999+0111ME1314879
0212999999150331959051601005+52367+000217SAO  +0049EGWZ V02002359002650009149N000800599+00785+00785999999ADDGD14995+9999999GD20995+9999999GD30995+9999999GF108995999999999999999999MW1455EQDN01 07000JPWTH 1QNNE11 1 00699E11 1 00099E11 1 00099G11 1 00003K11 1 00046L11 1 00050N11 1 07000S11 1 00046V11 1 01099W11 1 12005
0238724810232031959071805003+37367-120567SAO  +0054MER  V02033859005252200059N0096005N9+03065+00785999999ADDGD10995+9999999GD20995+9999999GD30995+9999999GD40995+9999999GF100995999999999999999999MW1055EQDN01 08100JPWTH 1QNNE11 1 00099E11 1 00099E11 1 00099E11 1 00099G11U1 99999K11 1 00046L11 1 00600N11 1 08100S11 1 00087V11 1 00099W11 1 18010
0269999999264141959061119005+63333-149133SAO  +0735UMM  V02002359003152200059N096000599+00895-00285102175ADDGD12995+9999999GD20995+9999999GD30995+9999999GD40995+9999999GF102025999999999999999999MA1999999093365EQDN01 00000JPWTH 1QNNE11 1 00299E11 1 00099E11 1 00099E11 1 00099G11U1 99999K11 1 00027L11 1 06000M11 1 27570N11 1 00000Q11 1 10217S11 1 00048V11 1 00202W11 1 12006
0165999999047691959102902005+42283-071367SAO  +005299999V02004559002152200059N016000599+00335-00395102565ADDGF100005999999999999999999MA1999999101935EQDN01 00000JPWTH 1QNNG11U1 99999K11 1 00025L11 1 01000M11 1 30100N11 1 00000Q11 1 10256S11 1 00038V11 1 00000W11 1 22004
0082489000999991959072322004+10817+106667SAO  +0019VVTS V0201801N002110420019N0096001N1+02521+02461100881ADDGA1061+042009059GA2031+014709049GF107991999999999999999999MA1999999100781MW1001
0099637400999991959071410004-01317+036917FM-12+162499999V0202301N00461220001CN0450001N9+02221+01111999999ADDGA1021+010509089GA2021+090009029GF103991021021012501001081MA1999999084071MD1999999+0021ME1315249
0073102020999991959103103004+53367+007217FM-12+999999999V0200601N00151003001CN0100001N9+00501+00391100141ADDAY121999GA1081+003009079GF108991081061004501999999MD1210101+9999MW1021
0035722576039021959011410004+31067-097817SAO  +0309GRK  V0202301N004610012019N0112001N9+01571+01571999999ADDGF108991999999999999999999MW1511
0269999999231841959073011005+34650-112433SAO  +153099999V02011359002152200059N024000599+01785+01225101425ADDGD12995+9999999GD21995+9999993GD30995+9999999GD40995+9999999GF103025999999999999999999MA1999999085005EQDN01 00000JPWTH 1QNNE11 1 00299E11 1 00199E11 1 00099E11 1 00099G11U1 99999K11 1 00054L11 1 01500M11 1 25100N11 1 00000Q11 1 10142S11 1 00064V11 1 00402W11 1 34004
031399999913744195901211100E+34183-079717SAO  +004599999V02015859002650000049N000400599+01395+01395101935ADDAA101000095GA1999+000004104GD15085+9999999GD20995+9999999GD30995+9999999GD40995+9999999GF108085999999999999999999MA1999999101395MW1455EQDN01 07000JPWTH 1QNNE11 1 00710E11 1 00099E11 1 00099E11 1 00099G11 1 00000H11 1 45000K11 1 00057L11 1 00025M11 1 29940N11 1 07000Q11 1 10193S11 1 00057V11 1 01010W11 1 54005
0057103800999991959042500004+52383+013050FM-12+007099999V0200901N00411220001CN0110001N9+00281+00111102381ADDAY101999GF100991001001999999001001MD1110031+9999MW1021
0269999999149311959061000005+40783-091117SAO  +0212BRL  V02015859005250121949N019200599+02565+01785101405ADDGD13995+9999999GD24995+9999999GD30995+9999999GD40995+9999999GF108085999999999999999999MA1999999098885EQDN01 00000JPWTH 1QNNE11 1 00499E11 1 00699E11 1 00099E11 1 00099G11 1 00040K11 1 00064L11 1 01200M11 1 29200N11 1 00000Q11 1 10140S11 1 00078V11 1 01010W11 1 54010
0232999999127121959073010005+26617-078367SAO  +0006MYGM V02002359001052200059N016000599+02395+02225999999ADDGD12995+9999999GD20995+9999999GD30995+9999999GD40995+9999999GF102995999999999999999999EQDN01 00000JPWTH 1QNNE11 1 00299E11 1 00099E11 1 00099E11 1 00099G11U1 99999K11 1 00072L11 1 01000N11 1 00000S11 1 00075V11 1 00299W11 1 12002
0058475820999991959100417004+39717+140100FM-12+001099999V0202701N00511007801CN0060001N9+01831+01671100771ADDAY101999GF108991071021008001999999MA1999999100641MW1021
0057314440999991959122703004+51567+126717FM-12+017999999V0209991C00001220001CN0500001N9-03111-03391102651ADDAY101999GF100991001001999999001001MD1210011+9999MW1021
0383999999931051959020913005+33433-112367SAO  +029799999V02027059006250137249N016000599+00784+00725100254ADDGA1999+007624064GA2999+013724064GA3999+999999999GA4999+999999999GD12015+9999999GD24075+9999999GD30005+9999999GD40005+9999999GF108075999999999999999999MA1999999096854MW1615EQDN01 02000JPWTH 1QNNE11 1 00201E11 1 00609E11 1 00000E11 1 00000G11 1 00045H11 1 15025H11 1 15045H11 1 00999H11 1 00999K11 1 00045L11 1 01000M11 1 28600N11 1 02000Q11 1 10025S11 1 00046V11 1 01009W11 1 77012
0057355220999991959072612004+48733+056033FM-12+018699999V0202201N00311036001CN0100001N9+02281+01221101131ADDAY121999GF108991021091012501021999MD1210061+9999MW1021
024972531014806195902042200C+40300-088150SAO  +0228RAN  V02015859005250182949N0096005N1+00005-00335999999ADDAA101000095GD12995+9999999GD24995+9999999GD30995+9999999GD40995+9999999GF108995999999999999999999MW1055EQDN01 08100JPWTH 1QNNE11 1 00299E11 1 00699E11 1 00099E11 1 00099G11 1 00060K11 1 00026L11 1 00600N11 1 08100S11 1 00032V11 1 01099W11 1 54010
006094543099999195906020500N-25630+151620AUST +0104     V0201355N004659999999N999999999+02125+00805999999ADDGA1035+012005085GF103995034025012005999999MA1999999100785
0057488870999991959041009004+10933+108100FM-12+001099999V0201301N004619999999N0200001N9+03001+02391100711ADDAY121999GF107991011011008001001021MD1999999+0081MW1021
0081623030999991959041018004+31633+025967FM-12+002399999V0201101N00461220001CN0120001N9+02111+00611100891ADDAA199000091AY101999GF100991001001999999001001KA1999M+03391MD1610061+9999MW1021
0076288540999991959050412004+53750+063167FM-12+018899999V0202501N00311220001CN0100001N9+01611+00281102451ADDAY121999GF108991999001999999011001MD1710011+9999MW1021EQDQ01+000002SCOTLC
0070085430999991959070218004+41683-008833FM-12+001099999V0203401N00361220001CN0500001N9+02501+99999101901ADDAY101999GF100991999999999999999999KA1999M+02781MD1810061+9999MW1001
0275999999253221959042504005+99999+999999SAO  +999999999V02099999000050057949N032000599+00505+00285101055ADDGD12995+9999999GD23995+9999999GD34995+9999999GD40995+9999999GF108085999999999999999999MA1999999100955MW1615EQDN01 02000JPWTH 1QNNE11 1 00299E11 1 00499E11 1 00699E11 1 00099G11 1 00019K11 1 00037L11 1 02000M11 1 29810N11 1 02000Q11 1 10105S11 1 00041V11 1 01010W11 1 00000
0057334870999991959060921004+49433+032083FM-12+999999999V0200401N00101220001CN0100001N9+02111+01111999999ADDAY111999GF103991031051012501001001MD1410001+9999MW1021
0269999999938181959102807005+38417-082500SAO  +017199999V02099999000052200059N011200599+00394+00225102444ADDGD10995+9999999GD20995+9999999GD30995+9999999GD40995+9999999GF100005999999999999999999MA1999999100344EQDN01 00000JPWTH 1QNNE11 1 00099E11 1 00099E11 1 00099E11 1 00099G11U1 99999K11 1 00036L11 1 00700M11 1 29630N11 1 00000Q11 1 10244S11 1 00039V11 1 00000W11 1 00000
0057341860999991959110618004+51333+048350FM-12+010799999V0201101N00511012301CN0100001N9+00111-00281103721ADDAY121999GF107991071051012501001001MD1210071+9999MW1021
0076348380999991959071209004+45850+040083FM-12+007999999V0203401N00211015001CN0200001N9+02781+01611999999ADDAY111999GF106991999021017501001001MD1810011+9999MW1031EQDQ01+000052SCOTLC
0050471200999991959091710004+37250+127000SAO  +0024RKSW V0203601N007212200019N0112001N9+02301+01961099651ADDGF102991999999999999999999MA1999999099321MW1001
0057583140999991959112409004+31317+116367FM-12+999999999V0203601N00311007801CN0130001N9+00391+00111103461ADDAY161999GF108991081051008001999999MD1210051+9999MW1011
0172476370999991959121712004+35517+137833FM-12+048399999V0203601N00571220001CN0200001N9-00061-00501102151ADDAJ100009199999999AY101999GA1999+011709059GA2021+999999999GF106991001001999999051001IA1009KA1999M+00941KA2999N+99999MA1999999096211MD1210211+9999MW1031EQDQ01 +00222ATMN  
039499999914758195905121100E+41267-072883SAO  +0002HVN  V02024859002152200059N003200599+01445+01445102005ADDAA101000095GA1999+036584034GA2999+999999004GA3999+999999999GA4999+999999999GD12015+9999999GD22015+9999999GD30005+9999999GD40005+9999999GF102025999999999999999999MA1999999101965MW1445EQDN01 07200JPWTH 1QNNE11 1 00201E11 1 00201E11 1 00000E11 1 00000G11U1 99999H11 1 23120H11C1 32999H11 1 00999H11 1 00999K11 1 00058L11 1 00200M11 1 30110N11 1 07200Q11 1 10200S11 1 00058V11 1 00202W11 1 76004
0035722485139441959010705004+32500-093667SAO  +0054BAD  V0201601N003110129019N0240001N9+00581-00701999999ADDGF108991999999999999999999MW1001
0066724835232061959061121004+38550-121300SAO  +0028MHR  V0202001N001512200019N0192001N9+03241+01021101061ADDGA1001+999999999GF100991999999999999999999MA1999999100681MW1001
038899999913895195906120700E+32300-086400SAO  +0058MGM  V02004559001052200059N019200599+02175+02115101325ADDAA101000095GA1999+999999004GA2999+999999999GA3999+999999999GA4999+999999999GD12015+9999999GD20005+9999999GD30005+9999999GD40005+9999999GF101015999999999999999999MA1999999100615EQDN01 00000JPWTH 1QNNE11 1 00201E11 1 00000E11 1 00000E11 1 00000G11U1 99999H11C1 32999H11 1 00999H11 1 00999H11 1 00999K11 1 00070L11 1 01200M11 1 29710N11 1 00000Q11 1 10132S11 1 00071V11 1 00101W11 1 22002
0269999999266271959012722005+63883-160800SAO  +0006UNK  V02006859009852200059N032000599-01395-01945100515ADDGD10995+9999999GD20995+9999999GD30995+9999999GD40995+9999999GF100005999999999999999999MA1999999100445EQDN01 00000JPWTH 1QNNE11 1 00099E11 1 00099E11 1 00099E11 1 00099G11U1 99999K11 1-00003L11 1 02000M11 1 29660N11 1 00000Q11 1 10051S11 1 00007V11 1 00000W11 1 32019
0302999999147561959110113005+41250-070067SAO  +0014ACK  V02024859006750021349N003200599+01445+01395100145ADDGA1999+002134074GD14085+9999999GD20995+9999999GD30995+9999999GD40995+9999999GF108085999999999999999999MA1999999100105MW1455EQDN01 07000JPWTH 1QNNE11 1 00610E11 1 00099E11 1 00099E11 1 00099G11 1 00007H11 1 16007K11 1 00057L11 1 00200M11 1 29560N11 1 07000Q11 1 10014S11 1 00058V11 1 01010W11 1 76013
0377999999253091959101502005+58367-134583SAO  +0006JNU  V02018059001550106749N048000599+00615+00285100935ADDGA1999+003054134GA2999+010674064GA3999+016764064GA4999+999999999GD13005+9999999GD23055+9999999GD30025+9999999GD40005+9999999GF106065999999999999999999MA1999999100855EQDN01 00000JPWTH 1QNNE11 1 00400E11 1 00406E11 1 00002E11 1 00000G11 1 00035H11 1 13010H11 1 15035H11 1 15055H11 1 00999K11 1 00037L11 1 03000M11 1 29780N11 1 00000Q11 1 10093S11 1 00043V11 1 00808W11 1 55003
0075476240999991959052920004+36400+139067FM-12+011399999V0201801N00151220001CN0050001N9+01561+01441101231ADDAY101999GA1999+087009049GA2061+220009049GF108991051061004501051021MW1021
0093104540999991959062306004+51850+010767FM-12+023499999V0200401N00411075001CN0250001N9+01391+00721102501ADDAJ100009199999999AY121061GF108991011001999999041071IA1009KA1999N+00891MD1210041+9999MW1031
