0043014880999991960030616004+59900+010633FM-12+001999999V0202301N002119999999N0200001N9+00331+99999104081ADDAY101999GF101991011051004501001001MW1021
0232999999340531960071912005+49633+003550SAO  +0083LLXO V02018059007250182949N024000599+02115+01175999999ADDGD12995+9999999GD23995+9999999GD30995+9999999GD40995+9999999GF106995999999999999999999EQDN01 00000JPWTH 1QNNE11 1 00299E11 1 00499E11 1 00099E11 1 00099G11 1 00060K11 1 00053L11 1 01500N11 1 00000S11 1 00070V11 1 00899W11 1 55014
0081401770999991960020318004+32100+034783FM-12+001199999V0202901N01031036001CN0100001N9+01281+00781101761ADDAA199999929AY121999GF107991041071008001071999KA1999M+01391MD1210161+9999MW1031
0269999999931291960121011005+37700-113100SAO  +171399999V02011359004152200059N024000599-01114-01505101864ADDGD10995+9999999GD20995+9999999GD30995+9999999GD40995+9999999GF100005999999999999999999MA1999999082594EQDN01 00000JPWTH 1QNNE11 1 00099E11 1 00099E11 1 00099E11 1 00099G11U1 99999K11 1 00005L11 1 01500M11 1 24390N11 1 00000Q11 1 10186S11 1 00012V11 1 00000W11 1 34008
0066726071146061960100906004+44800-068833SAO  +0059BGR  V0209991C000012200019N0160001N9+00411-00371101121ADDGA1001+999999999GF100991999999999999999999MA1999999100341MW1001
0070480960999991960082012004+16900+096183FM-12+002999999V0202701N00411002401CN0020001N9+02391+02391100281ADDAY181999GF108991071091002501021999KA1999M+02781MD1999999+0041MW1611
031999999914895196004160300E+40917-081433SAO  +037099999V02022559002150152449N012800599+01505+01395101595ADDAA101000395GA1999+015244064GD14085+9999999GD20995+9999999GD30995+9999999GD40995+9999999GF108085999999999999999999MA1999999097165MW1055MW2805EQDN01 02381JPWTH 1QNNE11 1 00610E11 1 00099E11 1 00099E11 1 00099G11 1 00050H11 1 15050K11 1 00057L11 1 00800M11 1 28690N11 1 02381Q11 1 10159S11 1 00059V11 1 01010W11 1 66004
0070847820999991960110200004-18050-070283FM-12+045899999V0201801N00261220001CN0400001N9+01501+01281101811ADDAY101999GF100991001001999999001001KA1999M+02221MD1210291+9999MW1021
0275702670264151960121816003+64000-145733SAO  +0389BIG  V02009059014452200059N0240005N1-01335-02115102845ADDGD10995+9999999GD20995+9999999GD30995+9999999GD40995+9999999GF100005999999999999999999MA1999999097805MW1001EQDN01 00000JPWTH 1QNNE11 1 00099E11 1 00099E11 1 00099E11 1 00099G11U1 99999K11 1-00006L11 1 01500M11 1 28880N11 1 00000Q11 1 10284S11 1 00008V11 1 00000W11 1 33028
0232999999340711960051010005+49117+005467SAO  +0372LFZU V02009059003652200059N012800599+02115+01005999999ADDGD12995+9999999GD20995+9999999GD30995+9999999GD40995+9999999GF103995999999999999999999EQDN01 00000JPWTH 1QNNE11 1 00299E11 1 00099E11 1 00099E11 1 00099G11U1 99999K11 1 00050L11 1 00800N11 1 00000S11 1 00070V11 1 00499W11 1 33007
007772433813802196008300900D+38550-089850SAO  +0138BLV  V0209991C000012200019N0112651N9+02161+02111101821ADDAA101000095GA1021+021009039GF102991999999999999999999MA1999999100141MW1001
0068223490999991960120615004+66167+039533FM-12+000899999V0202701N00511007801CN0200001N9-00111-00501098161ADDAA106000091AY121999GF107991071051008001001001MD1210231+9999MW1021
0078419150999991960052005004+23167+089217AERO +000799999V0201801N002619999999N0050001N9+99999+99999099771ADDAY121999GA1031+010509059GF105991999051012501001001MW1011EQDQ01+000032SCOTLC
0057226410999991960110821004+63900+038117FM-12+000899999V0209991C00001012301CN0100001N9+00221+00111102661ADDAY121999GF108991081051012501999999MD1210021+9999MW1021
0082722435999991960082319004+29650-095283SAO  +0019HOU  V0202481N003110075019N0240001N1+03071+02461101251ADDGA1011+024001031GA2061+007501081GF107991999999999999999999MA1999999101051MW1001
0098483270999991960032217004+18283+098983SAO  +0314VTCC V0200901N000512200019N0048001N1+02631+01741100851ADDGA1021+012009059GA2011+039009039GA3031+075009009GF107991999999999999999999MA1999999097321MW1001
0059967430999991960011718004-06150+106850FM-12+000599999V0201901N00261220001CN0150001N9+02391+02281100881ADDAY121999GA1041+030009039GF105991011001999999031081MW1011
036199999912839196007272300E+25800-080267SAO  +0004MIA  V02099999000052200059N016000599+02615+02395101325ADDAA101000095GA1999+007624094GA2999+036584044GA3999+999999024GD12025+9999999GD22015+9999999GD34065+9999999GD40995+9999999GF108085999999999999999999MA1999999101295EQDN01 00000JPWTH 1QNNE11 1 00202E11 1 00201E11 1 00607E11 1 00099G11C1 99999H11 1 18025H11 1 21120H11C1 37999K11 1 00075L11 1 01000M11 1 29910N11 1 00000Q11 1 10132S11 1 00079V11 1 01010W11 1 00000
0051477470999991960121718004+35533+134817FM-12+003399999V0202701N003619999999N9999999N9+00671+99999101671ADDAA106002091AY101999MA1999999101251MD1710091+9999
0057442900999991960101418004+47867+105250FM-12+130099999V0202701N00511220001CN0100001N9-01111-01281103961ADDAY101999GF103991031001999999051001MD1710031+9999MW1021
0100224380999991960030318004+65200+036650FM-12+001899999V0200901N00101220001CN0200001N9-01891-02891103151ADDAA106000091AY121999GF106991001001999999051021KA1999M-01721MD1210101+9999MW1021EQDQ01  00003PRCP99
0050471420999991960011806004+35900+128650SAO  +0037RKTN V0209991C000012200019N0064001N9+00351-00311102641ADDGF102991999999999999999999MA1999999102191MW1051
0059419500999991960030416004+21433+091967AERO +000499999V0200901N00151220001CN9999999N9+99999+99999101331ADDAY101999GA1011+030009039GF101991011001999999061001MW1021
0275999999947251960111713005+44933-074850SAO  +0067MSS  V02022559006250182949N019200599+00674+00175100544ADDGD12995+9999999GD24995+9999999GD30995+9999999GD40995+9999999GF108085999999999999999999MA1999999099764MW1805EQDN01 02300JPWTH 1QNNE11 1 00299E11 1 00699E11 1 00099E11 1 00099G11 1 00060K11 1 00035L11 1 01200M11 1 29460N11 1 02300Q11 1 10054S11 1 00044V11 1 01010W11 1 66012
0057847210999991960010306004-15367-075150FM-12+003199999V0201801N00721220001CN0250001N9+02001+01891101111ADDAY101999GF100991001001999999001001MD1710311+9999MW1021
0035743941999991960082417004+42933-071433SAO  +0076MHT  V0203381N005112200019N0400001N1+02071+00631999999ADDGF102991999999999999999999MW1001
038872469023062196012030900B+39767-104883SAO  +161599999V02020359002652200059N024000599+00005-00505100855ADDAA101000095GA1999+027434064GA2999+054864034GA3999+999999004GA4999+999999999GD10005+9999999GD20005+9999999GD30005+9999999GD40005+9999999GF100005999999999999999999MA1999999083075EQDN01 00000JPWTH 1QNNE11 1 00000E11 1 00000E11 1 00000E11 1 00000G11U1 99999H11 1 15090H11 1 23180H11C1 32999H11 1 00999K11 1 00023L11 1 01500M11 1 24530N11 1 00000Q11 1 10085S11 1 00032V11 1 00000W11 1 56005
0232999999038121960022823005+35433-082483SAO  +063899999V02099999000050152449N024000599+01005-00285999999ADDGD13995+9999999GD23995+9999999GD30995+9999999GD40995+9999999GF106065999999999999999999EQDN01 00000JPWTH 1QNNE11 1 00499E11 1 00499E11 1 00099E11 1 00099G11 1 00050K11 1 00027L11 1 01500N11 1 00000S11 1 00050V11 1 00707W11 1 00000
0035081605999991960042414004+41667-001017SAO  +0263LEZG V0203201N008712200019N0176001N9+01911+00691999999ADDGF100991999999999999999999MW1001
038899999913781196003121100E+39667-075600SAO  +0023ILG  V02036059003652200059N024000599-00895-01445101805ADDAA101000095GA1999+045724034GA2999+999999024GA3999+999999999GA4999+999999999GD12015+9999999GD23075+9999993GD30005+9999999GD40005+9999999GF107025999999999999999999MA1999999101495EQDN01 00000JPWTH 1QNNE11 1 00201E11 1 00309E11 1 00000E11 1 00000G11U1 99999H11 1 23150H11C1 37999H11 1 00999H11 1 00999K11 1 00006L11 1 01500M11 1 29970N11 1 00000Q11 1 10180S11 1 00016V11 1 00902W11 1 11007
0035107340999991960092211004+49400+008650SAO  +0109EDIE V0209991C000010450019N0080001N9+01571+00961999999ADDGF107991999999999999999999MW1051
0078478270999991960080304004+31567+130550FM-12+000599999V0201801N003119999999N0400001N9+03391+02331101181ADDAY101999GA1061+999999999GF199999011021012501001001MW1011EQDQ01+000012SCOTCV
0057132420999991960061800004+44783+017217FM-12+015699999V0209991C00001220001CN0200001N9+01281+01221102391ADDAY101999GF100991001001999999001001MD1810041+9999MW1021
0035035623999991960040614004+52367-000250SAO  +0049EGWZ V0201801N006210135019N0080001N9+01521+00851999999ADDGF108991999999999999999999MW1051
0043622710999991960081000004+24217+023300FM-12+038299999V0200601N00721220001CN0160001N9+02781+00891101691ADDAY101999GF100991001001999999001001MW1021
0068219080999991960021306004+70133+113967FM-12+006299999V0201601N00101220001CN0200001N9-03611-03891101131ADDAA106000091AY121999GF104991001001999999001011MD1310031+9999MW1021
0377999999405041960072020005+06967+158217SAO  +003699999V02009059001050054949N024000599+02675+02445100785ADDGA1999+005494084GA2999+036584034GA3999+999999004GA4999+999999999GD13055+9999999GD23025+9999999GD34035+9999999GD40005+9999999GF108075999999999999999999MA1999999100245EQDN01 00000JPWTH 1QNNE11 1 00406E11 1 00402E11 1 00604E11 1 00000G11 1 00018H11 1 11018H11 1 23120H11C1 32999H11 1 00999K11 1 00076L11 1 01500M11 1 29600N11 1 00000Q11 1 10078S11 1 00080V11 1 01009W11 1 33002
0057359250999991960082512004+45417+056200FM-12+008299999V0201101N00101220001CN0500001N9+03501+00611100561ADDAY121999GF105991001001999999001021MD1710191+9999MW1021
038899999914734196003231500E+40700-074167SAO  +0002EWR  V02031559008852200059N024000599-00065-00835101805ADDAA101000095GA1999+012194084GA2999+999999999GA3999+999999999GA4999+999999999GD12025+9999999GD20005+9999999GD30005+9999999GD40005+9999999GF102025999999999999999999MA1999999101695EQDN01 00000JPWTH 1QNNE11 1 00202E11 1 00000E11 1 00000E11 1 00000G11U1 99999H11 1 11040H11 1 00999H11 1 00999H11 1 00999K11 1 00017L11 1 01500M11 1 30030N11 1 00000Q11 1 10180S11 1 00031V11 1 00202W11 1 88017
038899999913865196004231500E+32333-088750SAO  +0088MEI  V02018059002152200059N011200599+02505+01835102135ADDAA101000095GA1999+999999004GA2999+999999999GA3999+999999999GA4999+999999999GD11025+9999993GD20005+9999999GD30005+9999999GD40005+9999999GF102005999999999999999999MA1999999100985EQDN01 00000JPWTH 1QNNE11 1 00102E11 1 00000E11 1 00000E11 1 00000G11U1 99999H11C1 32999H11 1 00999H11 1 00999H11 1 00999K11 1 00065L11 1 00700M11 1 29820N11 1 00000Q11 1 10213S11 1 00077V11 1 00200W11 1 55004
0057379850999991960031915004+38733+048833FM-12-001199999V0200401N00311007801CN0040001N9+00111-00111999999ADDAY121031GF108991081051008001999999MD1310011+9999MW1021
0057100350999991960031909004+54533+009550FM-12+004499999V0200501N00461220001CN0100001N9+00281+00001103411ADDAY101999GF100991001001999999001001MD1210131+9999MW1021
0104478070999991960053115004+33583+130383FM-12+000499999V0209991C00001220001CN0200001N9+01561+01331101101ADDAY101999GA1999+002709079GA2071+999999999GF107991001001999999001011MA1999999101051MD1010011+9999MW1021
0035746710138061960120102004+36667-087500SAO  +0174HOP  V0203401N001012200019N0112001N9-00261-00761999999ADDGF100991999999999999999999MW1001
0057529570999991960121621004+35150+100333FM-12+274499999V0200701N00311220001CN0200001N9-01781-01781999999ADDAY101999GF101991001001999999001021MD1610061+9999MW1011
0182722650230231960052005003+31933-102200SAO  +0871MAF  V02031559008852200059N0128005N1+01895-00445100965ADDAA101000095GF100005999999999999999999MA1999999091335MW1001EQDN01 00000JPWTH 1QNNG11U1 99999K11 1 00024L11 1 00800M11 1 26970N11 1 00000Q11 1 10096S11 1 00066V11 1 00000W11 1 88017
0057333250999991960080600004+50267+028633FM-12+022799999V0203301N00101220001CN0040001N9+01221+01221101461ADDAY101999GF101991001001999999001011MD1410001+9999MW1101
0132478870999991960110918004+33833+132783FM-12+003499999V0200901N00261024001CN0100001N9+01221+01171101641ADDAA106002091AJ100009199999999AY101999GA1999+011709049GA2021+999999999GF105991051001999999071001MA1999999101221MD1210071+9999MW1011
0035785140999991960102105004+18500-067133SAO  +0075TJBQ V0201131N003112200019N0240001N1+02461+02181999999ADDGF108991999999999999999999MW1001
038899999914764196012242200E+43650-070317SAO  +002499999V02015859001552200059N024000599-00895-01505103565ADDAA101000095GA1999+999999034GA2999+999999999GA3999+999999999GA4999+999999999GD10005+9999999GD20005+9999999GD30005+9999999GD40005+9999999GF100005999999999999999999MA1999999103325EQDN01 00000JPWTH 1QNNE11 1 00000E11 1 00000E11 1 00000E11 1 00000G11U1 99999H11 1 23999H11 1 00999H11 1 00999H11 1 00999K11 1 00005L11 1 01500M11 1 30510N11 1 00000Q11 1 10356S11 1 00016V11 1 00000W11 1 54003
0165999999939091960052202005+38833-094883SAO  +0328NUU  V02029359002152200059N032000599+02064+01175100924ADDGF100005999999999999999999MA1999999097054EQDN01 00000JPWTH 1QNNG11U1 99999K11 1 00053L11 1 02000M11 1 28660N11 1 00000Q11 1 10092S11 1 00069V11 1 00000W11 1 78004
0070561460999991960081418004+31633+099817FM-12+332199999V0209991C00001036001CN0200001N9+00721+00611999999ADDAY111999GF106991011041022501061999KA1999M+01501MD1810041+9999MW1031
0035036490999991960031020004+51750-001583SAO  +0087EGVN V0201601N003110141019N0144001N9+00911+00741999999ADDGF108991999999999999999999MW1611
0377999999130231960020823005+32117-007883SAO  +0448GBGY V02004559002152200059N024000599+00895+00725101545ADDGA1999+999999024GA2999+999999999GA3999+999999999GA4999+999999999GD13055+9999993GD20005+9999999GD30005+9999999GD40005+9999999GF105025999999999999999999MA1999999096345EQDN01 00000JPWTH 1QNNE11 1 00306E11 1 00000E11 1 00000E11 1 00000G11U1 99999H11C1 37999H11 1 00999H11 1 00999H11 1 00999K11 1 00045L11 1 01500M11 1 28450N11 1 00000Q11 1 10154S11 1 00048V11 1 00602W11 1 22004
0238724466039291960061104003+38833-094583SAO  +0323GVW  V02015859003150274349N0192005N9+02285+01895999999ADDGD14995+9999999GD20995+9999999GD30995+9999999GD40995+9999999GF108995999999999999999999MW1805EQDN01 02300JPWTH 1QNNE11 1 00699E11 1 00099E11 1 00099E11 1 00099G11 1 00090K11 1 00066L11 1 01200N11 1 02300S11 1 00073V11 1 01099W11 1 54006
009094767599999196007211700N-33930+151170AUST +0004YSSY V0203385N003659999999N999999999+01285-00105999999ADDAY114999GA1015+018005065GA2065+999999045GF107995014055018005025999MA1999999101265MW1015
0377999999931111960120402005+34117-119117SAO  +000499999V02099999000052200059N048000599+01334+00615101474ADDGA1999+014634064GA2999+999999999GA3999+999999999GA4999+999999999GD10005+9999999GD20005+9999999GD30005+9999999GD40005+9999999GF100005999999999999999999MA1999999101424EQDN01 00000JPWTH 1QNNE11 1 00000E11 1 00000E11 1 00000E11 1 00000G11U1 99999H11 1 15048H11 1 00999H11 1 00999H11 1 00999K11 1 00043L11 1 03000M11 1 29950N11 1 00000Q11 1 10147S11 1 00056V11 1 00000W11 1 00000
0035722167999991960040523004+30967-083200SAO  +0074VAD  V0203151N007212200019N0240001N1+01741+00241999999ADDGF100991999999999999999999MW1001
0068222590999991960042009004+67100+041500FM-12+999999999V0202201N00871075001CN0500001N9+00721+00001101881ADDAA106000091AY121999GF107991021091008001001061MD1710121+9999MW1021
0065414670999991960010821004+12833+045033FM-12+0003ODAA V0200901N00461220001CN0450001N9+02501+02171101631ADDAY101999GA1011+007509059GF101991011051008001001001IA1009MW1021
0066747750138461960042021004+30067-085583SAO  +0008KPAM V0202001N005112200019N0160001N9+02461+01911101901ADDGA1031+008409099GF102991999999999999999999MA1999999101861MW1001
0112984390999991960080821004+14117+122983SAO  +0010RPUD V0202031N003110270019N0240001N1+02631+02301100351ADDGA1021+004509099GA2011+005409089GA3081+027009049GF108991999999999999999999MA1999999100201MD1610161+9999MW1001
0238727755241121960111601003+47517-111167SAO  +1056GFA  V02027059002650274349N0400005N9+00175-00225999999ADDGD13995+9999999GD23995+9999999GD30995+9999999GD40995+9999999GF107995999999999999999999MW1001EQDN01 00000JPWTH 1QNNE11 1 00499E11 1 00499E11 1 00099E11 1 00099G11 1 00090K11 1 00028L11 1 02500N11 1 00000S11 1 00035V11 1 00999W11 1 77005
0269999999265331960012918005+66917-151517SAO  +020599999V02033859005252200059N048000599-03675-04445100545ADDGD10995+9999999GD20995+9999999GD30995+9999999GD40995+9999999GF100005999999999999999999MA1999999097775EQDN01 00000JPWTH 1QNNE11 1 00099E11 1 00099E11 1 00099E11 1 00099G11U1 99999K11 1-00048L11 1 03000M11 1 28870N11 1 00000Q11 1 10054S11 1-00034V11 1 00000W11 1 18010
0238724810232031960121701003+37367-120567SAO  +0054MER  V02018059001052200059N0112005N9+01445+00785999999ADDGD12995+9999999GD22995+9999999GD30995+9999999GD40995+9999999GF103995999999999999999999MW1001EQDN01 00000JPWTH 1QNNE11 1 00299E11 1 00299E11 1 00099E11 1 00099G11U1 99999K11 1 00046L11 1 00700N11 1 00000S11 1 00058V11 1 00499W11 1 55002
0275999999146221960022414005+44950-068667SAO  +0041OLD  V02027059003150045749N004800599-00335-00725101055ADDGD13995+9999999GD24995+9999999GD30995+9999999GD40995+9999999GF108085999999999999999999MA1999999100545MW1715EQDN01 04000JPWTH 1QNNE11 1 00499E11 1 00699E11 1 00099E11 1 00099G11 1 00015K11 1 00019L11 1 00300M11 1 29690N11 1 04000Q11 1 10105S11 1 00026V11 1 01010W11 1 77006
038899999993729196012142300E+35267-075550SAO  +0002HAT  V02022559008252200059N019200599+00504-00445101834ADDAA101000095GA1999+036584034GA2999+999999999GA3999+999999999GA4999+999999999GD10005+9999999GD20005+9999999GD30005+9999999GD40005+9999999GF100005999999999999999999MA1999999101794EQDN01 00000JPWTH 1QNNE11 1 00000E11 1 00000E11 1 00000E11 1 00000G11U1 99999H11 1 23120H11 1 00999H11 1 00999H11 1 00999K11 1 00024L11 1 01200M11 1 30060N11 1 00000Q11 1 10183S11 1 00041V11 1 00000W11 1 66016
0269999999116241960112102005+17700-064800SAO  +001799999V02004559001552200059N024000599+02445+02335101395ADDGD12995+9999999GD22995+9999999GD30995+9999999GD40995+9999999GF104035999999999999999999MA1999999101195EQDN01 00000JPWTH 1QNNE11 1 00299E11 1 00299E11 1 00099E11 1 00099G11U1 99999K11 1 00074L11 1 01500M11 1 29880N11 1 00000Q11 1 10139S11 1 00076V11 1 00504W11 1 22003
0128999999331261960083007005+37400+014917SAO  +0031LICZ V02029359001052200059N020800599+02505+01115999999ADDGF100005999999999999999999EQDN01 00000JPWTH 1QNNG11U1 99999K11 1 00052L11 1 01300N11 1 00000S11 1 00077V11 1 00000W11 1 78002
0269999999231791960122019005+34767-114617SAO  +0280EED  V02036059009352200059N072000599+01785-00505103155ADDGD11995+9999993GD20995+9999999GD30995+9999999GD40995+9999999GF104015999999999999999999MA1999999099935EQDN01 00000JPWTH 1QNNE11 1 00199E11 1 00099E11 1 00099E11 1 00099G11U1 99999K11 1 00023L11 1 04500M11 1 29510N11 1 00000Q11 1 10315S11 1 00064V11 1 00501W11 1 11018
0076726055999991960051521004+43083-070817SAO  +0031PSM  V0202301N001510075019N0048001N9+01331+01171100071ADDGA1051+007509079GA2081+009009049GF108991999999999999999999MA1999999099661
0269999999253331960041001005+57067-135350SAO  +000599999V02031559007250091449N024000599+00725+00445100515ADDGD12995+9999999GD23995+9999999GD34995+9999999GD40995+9999999GF108085999999999999999999MA1999999100275EQDN01 00000JPWTH 1QNNE11 1 00299E11 1 00499E11 1 00699E11 1 00099G11 1 00030K11 1 00040L11 1 01500M11 1 29610N11 1 00000Q11 1 10051S11 1 00045V11 1 01010W11 1 88014
0269999999265331960031302005+66917-151517SAO  +020599999V02002359005752200059N048000599-01225-01895101935ADDGD10995+9999999GD20995+9999999GD30995+9999999GD40995+9999999GF100005999999999999999999MA1999999099265EQDN01 00000JPWTH 1QNNE11 1 00099E11 1 00099E11 1 00099E11 1 00099G11U1 99999K11 1-00002L11 1 03000M11 1 29310N11 1 00000Q11 1 10193S11 1 00010V11 1 00000W11 1 12011
0057569850999991960092015004+23333+103383FM-12+129999999V0201401N00211036001CN0200001N9+02001+01721101121ADDAY121999GF105991021041012501061001MD1210101+9999MW1021
017699999914778196012221600E+41250-076917SAO  +0160IPT  V02029359008852200059N019200599-01115-01835102205ADDAA101000095GF100005999999999999999999MA1999999100175EQDN01 00000JPWTH 1QNNG11U1 99999K11 1-00001L11 1 01200M11 1 29580N11 1 00000Q11 1 10220S11 1 00012V11 1 00000W11 1 78017
0070542080999991960090806004+42250+116217FM-12+121199999V0203401N00821220001CN0400001N9+01611-00391101151ADDAY101061GF101991011011012501001001KA1999N+00001MD1710051+9999MW1021
007494494099999196001230500N-26620+144270AUST +0198     V0201585N004659999999N999999999+03615+01405999999ADDAY124999GA1015+999999085GF101995014015999999999999MA1999999098375MW1035
0043014150999991960120420004+58883+005633FM-12+000899999V0201301N004619999999N0400001N9+00171+99999999999ADDAY111999GF101991011021004501061031MW1011
0057335870999991960033103004+48767+030233FM-12+021699999V0203201N00411004501CN0040001N9+00001-00391999999ADDAY151999GF108991081061004501999999MD1210051+9999MW1101
0081249340999991960051612004+60533+116233FM-12+016899999V0202501N00721075001CN0500001N9+01001-00221101301ADDAA199000091AY121999GF107991031051012501001031KA1999M+01611MD1210281+9999MW1021
0082984290999991960030604004+14517+121000SAO  +0015RPMM V0201131N005119999999N0320001N1+03181+02241101441ADDGA1021+009009089GA2031+090009009GF107991999999999999999999MA1999999101251MW1001
0072722525129201960112009004+27600-099517SAO  +0161LOI  V0200231N002110030019N0032001N1+01741+01691101561ADDGA1081+003009079GF108991999999999999999999MA1999999099731MW1451MW2511
034072207003822196009291500C+32133-081200SAO  +0014SAV  V02031559003150030549N0240005N9+02335+02115101255ADDAA101000095GA1061+003054074GA2021+004274074GD13065+9999999GD24025+9999999GD30995+9999999GD40995+9999999GF108085999999999999999999MA1999999101085MW1001EQDN01 00000JPWTH 1QNNE11 1 00408E11 1 00602E11 1 00099E11 1 00099G11 1 00010H11 1 16010H11 1 16014K11 1 00070L11 1 01500M11 1 29850N11 1 00000Q11 1 10125S11 1 00074V11 1 01010W11 1 88006
0377999999931111960060708005+34117-119117SAO  +000499999V02002359003152200059N024000599+01334+01175101194ADDGA1999+006104074GA2999+999999999GA3999+999999999GA4999+999999999GD14085+9999993GD20005+9999999GD30005+9999999GD40005+9999999GF108025999999999999999999MA1999999101154EQDN01 00000JPWTH 1QNNE11 1 00510E11 1 00000E11 1 00000E11 1 00000G11U1 99999H11 1 16020H11 1 00999H11 1 00999H11 1 00999K11 1 00053L11 1 01500M11 1 29870N11 1 00000Q11 1 10119S11 1 00056V11 1 01002W11 1 12006
0098719320999991960060712004+56750-111150SAO  +0371CYMM V0201131N002610210019N0240001N1+00961+00801100041ADDGA1011+009009089GA2061+021009039GA3011+027009049GF108991999999999999999999MA1999999095601MW1001
0075934360999991960051008004-41333+174800FM-12+000799999V0203501N009319999999N0350001N9+01441+01061099341ADDAY111999GA1011+006009089GA2031+030009039GF105991011021008001061001MW1031
004483721099999196003250200N-23000-047133BRAZ +0661SBKP V02013019003619999999N020000199+01961+01801999999ADDGF100991999999999999999999MA1101801094221
0066704540257041960071601001+51883-176650SAO  +0005PADK V0200901N003610045019N0048001N9+01021+00741102121ADDGA1051+004509059GF107991999999999999999999MA1999999102101MW1451
0035722786231041960022814004+33317-111650SAO  +0418IWA  V0209991C000010180019N0800001N9+00691-01311999999ADDGF107991999999999999999999MW1001
0082062650999991960031215004+52133+005267SAO  +0013EHSB V0201801N003110135019N0240001N1+01411+00351100511ADDGA1031+010509009GA2031+013509049GF107991999999999999999999MA1999999100511MW1001
0165999999931041960071520005+35683-117683SAO  +0682NID  V02099999000052200059N024000599+03894+00175101194ADDGF100005999999999999999999MA1999999093604EQDN01 00000JPWTH 1QNNG11U1 99999K11 1 00035L11 1 01500M11 1 27640N11 1 00000Q11 1 10119S11 1 00102V11 1 00000W11 1 00000
0281999999265121960111812005+63883-152283SAO  +021499999V02099999000052200059N006400599-01615-01945098955ADDGD13995+9999993GD20995+9999999GD30995+9999999GD40995+9999999GF105025999999999999999999MA1999999096245MW1455MW2715EQDN01 04070JPWTH 1QNNE11 1 00399E11 1 00099E11 1 00099E11 1 00099G11U1 99999K11 1-00003L11 1 00400M11 1 28420N11 1 04070Q11 1 09895S11 1 00003V11 1 00602W11 1 00000
0087228920999991960032306004+60717+028800FM-12+001599999V0202001N00101220001CN0100001N9-00501-00611102951ADDAA199000091AY111999GF100991001001999999001001IA1209KA1999N-00501MD1210161+9999MW1011
0069471180999991960050620004+37433+127950SAO  +0101RKNH V0209991C000010180019N0112001N1+01021+00631101891ADDGF108991999999999999999999MA1999999100611MW1001EQDQ01+999990APOSP 
008294568099999196005252300N-27630+152720AUST +0031YBAM V0201355N005159999999N999999999+01795+01605999999ADDGA1035+018005065GA2045+999999045GF107995034055018005035999MA1999999101275MW1155
0383999999232441960100319005+37417-122050SAO  +0012NUQ  V02033859003152200059N008000599+01675+01285101775ADDGA1999+004884074GA2999+999999999GA3999+999999999GA4999+999999999GD13055+9999993GD20005+9999999GD30005+9999999GD40005+9999999GF105025999999999999999999MA1999999101665MW1055EQDN01 08100JPWTH 1QNNE11 1 00306E11 1 00000E11 1 00000E11 1 00000G11U1 99999H11 1 16016H11 1 00999H11 1 00999H11 1 00999K11 1 00055L11 1 00500M11 1 30020N11 1 08100Q11 1 10177S11 1 00062V11 1 00603W11 1 18006
0269999999937201960120515005+38333-075517SAO  +0021SBY  V02031559002650182949N016000599+01064+00065102864ADDGD13995+9999999GD23995+9999999GD30995+9999999GD40995+9999999GF106065999999999999999999MA1999999102644EQDN01 00000JPWTH 1QNNE11 1 00499E11 1 00499E11 1 00099E11 1 00099G11 1 00060K11 1 00033L11 1 01000M11 1 30310N11 1 00000Q11 1 10286S11 1 00051V11 1 00807W11 1 88005
0098106370999991960111116004+50033+008583SAO  +0110EDDF V0201801N001510750019N0320001N9+01001+00561100631ADDGA1011+009009059GA2011+013509059GA3061+075009009GF107991999999999999999999MA1999999099291MW1001
0094474200999991960070810004+43333+145583FM-12+002699999V0201401N00511220001CN0400001N9+01001+00891101011ADDAY101999GA1999+002709029GA2031+999999999GF199999001001999999001021MW1021EQDQ01+000022SCOTCV
0281746941137861960031618003+36267-076183SAO  +0004ECG  V02011359006250030549N0048005N9+00565+00505101635ADDGD13995+9999999GD24995+9999999GD30995+9999999GD40995+9999999GF108085999999999999999999MA1999999101595MW1455MW2615EQDN01 02070JPWTH 1QNNE11 1 00499E11 1 00699E11 1 00099E11 1 00099G11 1 00010K11 1 00041L11 1 00300M11 1 30000N11 1 02070Q11 1 10163S11 1 00042V11 1 01010W11 1 34012
0377999999176141960061306005+99999+999999SAO  +999999999V02004559000552200059N096000599+00065-00335101005ADDGA1999+999999024GA2999+999999999GA3999+999999999GA4999+999999999GD13055+9999993GD20005+9999999GD30005+9999999GD40005+9999999GF105015999999999999999999MA1999999092045EQDN01 00000JPWTH 1QNNE11 1 00306E11 1 00000E11 1 00000E11 1 00000G11U1 99999H11C1 37999H11 1 00999H11 1 00999H11 1 00999K11 1 00026L11 1 06000M11 1 27180N11 1 00000Q11 1 10100S11 1 00033V11 1 00601W11 1 22001
0130478170999991960080606004+32733+129883FM-12+002799999V0201101N001519999999N0450001N9+03561+02221101201ADDAJ100009199999999AY101999GA1999+011709029GF103991021021008001061001IA1009MA1999999100911MD1710131+9999MW1021EQDQ01    003SCCGA1
0057303280999991960111115004+56050+105833FM-12+033899999V0201801N00311220001CN0200001N9-00501-00721101961ADDAY171999GF102991021041012501001001MD1810061+9999MW1011
0232999999230191960030313005+31833-106400SAO  +1196BIF  V02009059002652200059N080000599+00335-00335999999ADDGD10995+9999999GD20995+9999999GD30995+9999999GD40995+9999999GF100995999999999999999999EQDN01 00000JPWTH 1QNNE11 1 00099E11 1 00099E11 1 00099E11 1 00099G11U1 99999K11 1 00026L11 1 05000N11 1 00000S11 1 00038V11 1 00099W11 1 33005
0081401840999991960122012004+31783+035217FM-12+080999999V0201601N00411090001CN0150001N9+01281-00111999999ADDAY121999GF107991021001999999071061MA1999999092301MD1710151+9999ME1314949MW1021
0082160365999991960060709004+46033+012600SAO  +0129LIPA V0209991C000010078019N0144001N9+02411+01691101891ADDGA1051+007809089GA2021+220009009GF107991999999999999999999MA1999999100371MW1001
0356726815241061960012212003+43050-115867SAO  +0912MUO  V02099999000050076249N0080005N9-00445-00565102585ADDGA1021+003054134GA2051+007624074GA3081+014334054GD12025+9999999GD23055+9999999GD34085+9999999GD40995+9999999GF108085999999999999999999MA1999999091605MW1715EQDN01 04000JPWTH 1QNNE11 1 00202E11 1 00406E11 1 00610E11 1 00099G11 1 00025H11 1 13010H11 1 16025H11 1 22047K11 1 00022L11 1 00500M11 1 27050N11 1 04000Q11 1 10258S11 1 00024V11 1 01010W11 1 00000
0057318730999991960042218004+45867+133733FM-12+010599999V0203201N00211220001CN0200001N9-00221-00281101861ADDAY101999GF100991001001999999001001MD1210111+9999MW1021
0383703980253081960042319003+55033-131567SAO  +0034ANN  V02031559004652200059N0240005N1+01175+00285101695ADDGA1061+220009004GA2999+999999999GA3999+999999999GA4999+999999999GD13065+9999993GD20005+9999999GD30005+9999999GD40005+9999999GF106005999999999999999999MA1999999101295MW1001EQDN01 00000JPWTH 1QNNE11 1 00307E11 1 00000E11 1 00000E11 1 00000G11U1 99999H11C1 32999H11 1 00999H11 1 00999H11 1 00999K11 1 00037L11 1 01500M11 1 29910N11 1 00000Q11 1 10169S11 1 00053V11 1 00700W11 1 88009
0269727846241601960101007005+46100-118283SAO  +036399999V02011359002152200059N024000599+00445+00285101835ADDGD10995+9999999GD20995+9999999GD30995+9999999GD40995+9999999GF100005999999999999999999MA1999999097435EQDN01 00000JPWTH 1QNNE11 1 00099E11 1 00099E11 1 00099E11 1 00099G11U1 99999K11 1 00037L11 1 01500M11 1 28770N11 1 00000Q11 1 10183S11 1 00040V11 1 00000W11 1 34004
0035035773999991960010714004+52367+000483SAO  +0013EGUN V0202701N002110015019N0003001N9+00221+00221999999ADDGF108991999999999999999999MW1451
0057154200999991960121703004+44483+026133FM-12+009299999V0202201N00211220001CN0002001N9+00221+00221102701ADDAY141999GF100991001001999999001001MD1810041+9999MW1441
0269999999116401960022801005+18333-064967SAO  +000299999V02009059002152200059N024000599+02565+02115101765ADDGD10995+9999999GD20995+9999999GD30995+9999999GD40995+9999999GF100005999999999999999999MA1999999101735EQDN01 00000JPWTH 1QNNE11 1 00099E11 1 00099E11 1 00099E11 1 00099G11U1 99999K11 1 00070L11 1 01500M11 1 30040N11 1 00000Q11 1 10176S11 1 00078V11 1 00000W11 1 33004
0082719460999991960091305004+61750-121233SAO  +0169CYFS V0201131N004612200019N0240001N1+01351+01131100471ADDGA1021+036009039GA2021+090009009GF102991999999999999999999MA1999999098921MW1001
034099999914732196010250400E+40767-073867SAO  +001699999V02024859011350115849N014400599+00445-00115100075ADDAA101000095GA1999+011584064GA2999+018294064GD13055+9999999GD24035+9999999GD30995+9999999GD40995+9999999GF108085999999999999999999MA1999999099865MW1805EQDN01 02300JPWTH 1QNNE11 1 00406E11 1 00604E11 1 00099E11 1 00099G11 1 00038H11 1 15038H11 1 15060K11 1 00030L11 1 00900M11 1 29490N11 1 02300Q11 1 10007S11 1 00040V11 1 01010W11 1 76022
0051489550999991960041705004+15133+105783SAO  +0102VLIP V0203601N001010030019N0080001N1+02681+99999999999ADDGA1051+003009009GF108991999999999999999999MW1001
0377999999231951960072200005+32667-114600SAO  +0059YUM  V02020359010852200059N064000599+04005+01945100755ADDGA1999+024384094GA2999+999999999GA3999+999999999GA4999+999999999GD10005+9999999GD20005+9999999GD30005+9999999GD40005+9999999GF100005999999999999999999MA1999999100035EQDN01 00000JPWTH 1QNNE11 1 00000E11 1 00000E11 1 00000E11 1 00000G11U1 99999H11 1 18080H11 1 00999H11 1 00999H11 1 00999K11 1 00067L11 1 04000M11 1 29540N11 1 00000Q11 1 10075S11 1 00104V11 1 00000W11 1 56021
0162477770999991960020300004+34233+135167FM-12+001599999V0200201N00151002701CN0045001N9+00671-00111101541ADDAJ100009199999999AY101999GA1999+008709059GA2051+002709029GF107991001999999999001061IA1009MA1999999101351MD1010141+9999MW1021EQDQ01+000042SCOLCGQ02+000992SCOLCB
0377999999340511960052520005+48767+005983SAO  +0288LFSL V02002359002152200059N016000599+01505+00445102875ADDGA1999+030484034GA2999+999999004GA3999+999999999GA4999+999999999GD12025+9999999GD22025+9999999GD30005+9999999GD40005+9999999GF102025999999999999999999MA1999999099395EQDN01 00000JPWTH 1QNNE11 1 00202E11 1 00202E11 1 00000E11 1 00000G11U1 99999H11 1 23100H11C1 32999H11 1 00999H11 1 00999K11 1 00040L11 1 01000M11 1 29350N11 1 00000Q11 1 10287S11 1 00059V11 1 00302W11 1 12004
0057401910999991960091615004+31233+034783FM-12+028099999V0203301N00621220001CN0300001N9+02501+01501101201ADDAY101999GF101991011041012501001001MD1310041+9999MW1011
0029620111999991960030602004+32900+013283SAO  +0013HTIP V0202301N002112200019N0176001N9+01191+00691999999ADDGF102991999999999999999999
0091628400999991960062412004+09550+031650FM-12+038899999V0201801N00311045001CN0200001N9+03611+01781100411ADDAY121999GA1021+012009099GA2031+015009089GA3031+045009039GF106991021031012501061001MW1171
0043978100999991960070912004-05683+132750FM-12+001299999V0209991C00001002401CN0100001N9+02391+99999100911ADDAY161999GF108991061071002501021999MW1211
0043612230999991960060718004+16717-003000FM-12+026399999V0209991C00001220001CN0300001N9+03891+01781100541ADDAY111999GF101991011001999999041001MW1011
0232999999038121960102510005+35433-082483SAO  +063899999V02036059002652200059N024000599+00175-00505999999ADDGD10995+9999999GD20995+9999999GD30995+9999999GD40995+9999999GF100005999999999999999999EQDN01 00000JPWTH 1QNNE11 1 00099E11 1 00099E11 1 00099E11 1 00099G11U1 99999K11 1 00023L11 1 01500N11 1 00000S11 1 00035V11 1 00000W11 1 11005
0067424350999991960100703004+25750+071383FM-12+019499999V0203201N00261220001CN0100001N9+02281+01891100751ADDAA124000091AY101999GF100991001001999999001001KA1999N+02111MW1021
028099999924057196010260600E+41800-107200SAO  +2056RWL  V02099999000052200059N024000599+00615-00785101775ADDAA101000095GD10995+9999999GD20995+9999999GD30995+9999999GD40995+9999999GF100005999999999999999999MA1999999079485EQDN01 00000JPWTH 1QNNE11 1 00099E11 1 00099E11 1 00099E11 1 00099G11U1 99999K11 1 00018L11 1 01500M11 1 23470N11 1 00000Q11 1 10177S11 1 00043V11 1 00000W11 1 00000
007772250012919196004201100D+25900-097433SAO  +0006BRO  V0201351N001010001519N0002001N1+01911+01911101561ADDAA101000095GA1091+000159999GF109991999999999999999999MA1999999101491MW1451
0057401540999991960022412004+32817+035000FM-12+000899999V0203401N00151220001CN0200001N9+02001+01391101761ADDAY101999GF101991011011008001001001MD1710171+9999MW1021
0377999999433231960100515005+35283+139667SAO  +0053RJTX V02002359004150304849N016000599+01835+01675102245ADDGA1999+024384034GA2999+030484044GA3999+999999999GA4999+999999999GD12045+9999999GD24045+9999999GD30005+9999999GD40005+9999999GF108075999999999999999999MA1999999101635EQDN01 00000JPWTH 1QNNE11 1 00205E11 1 00605E11 1 00000E11 1 00000G11 1 00100H11 1 23080H11 1 21100H11 1 00999H11 1 00999K11 1 00062L11 1 01000M11 1 30010N11 1 00000Q11 1 10224S11 1 00065V11 1 01009W11 1 12008
0269999999264351960122720005+64550-149083SAO  +011199999V02029359002152200059N080000599-02175-02565101235ADDGD12995+9999999GD20995+9999999GD30995+9999999GD40995+9999999GF102025999999999999999999MA1999999099765EQDN01 00000JPWTH 1QNNE11 1 00299E11 1 00099E11 1 00099E11 1 00099G11U1 99999K11 1-00014L11 1 05000M11 1 29460N11 1 00000Q11 1 10123S11 1-00007V11 1 00202W11 1 78004
0057442940999991960122218004+47300+107317FM-12+142799999V0209991C00001220001CN0100001N9-02501-02721103551ADDAY101999GF100991001001999999001001MD1210101+9999MW1021
0106300540999991960022900004+59450+112583FM-12+019399999V0209991C00001220001CN0010001N9-04501-04781103491ADDAA199000091AY101999GF100991001001999999001001HL10009IA1319IA2999-05009KA1999N-04501MD1210121+9999MW1101
0057589440999991960020621004+25500+119783FM-12+003199999V0203601N00511220001CN0250001N9+01221+00721102011ADDAY101999GF101991011051008001001001MD1610121+9999MW1011
0377999999137711960050419005+39883-075167SAO  +0006MUV  V02018059003150167649N011200599+02175+00835102565ADDGA1999+016764084GA2999+999999999GA3999+999999999GA4999+999999999GD13055+9999999GD20005+9999999GD30005+9999999GD40005+9999999GF105055999999999999999999MA1999999102515EQDN01 00000JPWTH 1QNNE11 1 00406E11 1 00000E11 1 00000E11 1 00000G11 1 00055H11 1 11055H11 1 00999H11 1 00999H11 1 00999K11 1 00047L11 1 00700M11 1 30270N11 1 00000Q11 1 10256S11 1 00071V11 1 00606W11 1 55006
0057577930999991960102121004+27800+114383FM-12+009399999V0201601N00211220001CN0110001N9+01001+00891102231ADDAY101999GF100991001001999999001001MD1210061+9999MW1021
017672256013959196004050700B+31617-097217SAO  +0157ACT  V02002359004152200059N024000599+01505+00335102135ADDAA101000095GF100005999999999999999999MA1999999100305EQDN01 00000JPWTH 1QNNG11U1 99999K11 1 00038L11 1 01500M11 1 29620N11 1 00000Q11 1 10213S11 1 00059V11 1 00000W11 1 12008
0131986450999991960021012004+10333+123900SAO  +0035RPMC V0200451N002110420019N0320001N1+02571+02301101111ADDGA1021+013509059GA2061+042009049GA3031+075009029GF108991999999999999999999MA1999999100681MD1210291+9999MW1001EQDQ01+000582APC3  
0089474210999991960100103004+42783+140233FM-12+001799999V0201801N011319999999N0100001N9+01561+01441099941ADDAY101999GA1999+087009049GA2031+014709089GF108991041071008001021999MD1710201+9999MW1611
0069471070999991960110623004+37750+128933SAO  +0027RKNN V0209991C000012200019N0112001N1+00521+00301102501ADDGF100991999999999999999999MA1999999102401MW1001EQDQ01+999990APOSP 
0070311990999991960082212004+55033+126800FM-12+045799999V0209991C00001030001CN0040001N9+01221+01221100581ADDAY191999GF108991031091008001041001KA1999M+02001MD1210071+9999MW1801
0093747950128671960050712004+28233-080600SAO  +0006COF  V0203401N002112200019N0240001N9+02181+01911101251ADDAA124999999GA1021+015009059GA2031+220009029GF107991999999999999999999MA1999999101191MW1001
0275999999139971960042021005+38133-091767SAO  +0350VIH  V02020359010350121949N024000599+02565+01225100715ADDGD13995+9999999GD23995+9999999GD30995+9999999GD40995+9999999GF107065999999999999999999MA1999999096755MW1955EQDN01 01000JPWTH 1QNNE11 1 00499E11 1 00499E11 1 00099E11 1 00099G11 1 00040K11 1 00054L11 1 01500M11 1 28570N11 1 01000Q11 1 10071S11 1 00078V11 1 00908W11 1 56020
0030167440999991960072918004+36417+025433FM-12+021399999V0202901N001019999999N0100001N9+02281+02221101101ADDAY101999KA1999M+02721MW1001
0140711051999991960042512004+50000-127417FM-12+001199999V0200901N00101220001CN0190001N9+00721+00671101241ADDAA124002091AJ199999999999999AL10600091AY161999GF106991061051008001001001KA1999M+01061KA2999N+00671MD1810071+9999MW1011EQDQ01  04472SNDP  
0377999999938411960060707005+99999+999999SAO  +999999999V02033859001052200059N016000599+02504+01945100934ADDGA1999+007624084GA2999+999999999GA3999+999999999GA4999+999999999GD12025+9999999GD20005+9999999GD30005+9999999GD40005+9999999GF102025999999999999999999MA1999999100344EQDN01 00000JPWTH 1QNNE11 1 00203E11 1 00000E11 1 00000E11 1 00000G11U1 99999H11 1 11025H11 1 00999H11 1 00999H11 1 00999K11 1 00067L11 1 01000M11 1 29630N11 1 00000Q11 1 10093S11 1 00077V11 1 00303W11 1 18002
0050471100999991960121902004+37550+126800SAO  +0020RKSS V0201131N002112200019N0096001N1-00591-01481102981ADDGF100991999999999999999999MA1999999102711MW1051
0043978100999991960082000004-05683+132750FM-12+001299999V0200901N00411220001CN0200001N9+02781+99999100731ADDAY101999GF102991021011008001001001MW1021
004672433813802196009070700D+38550-089850SAO  +0138BLV  V0209991C000012200019N0112651N9+02281+01941999999ADDAA101000095GF100991999999999999999999MW1001
0014999999276011960042704005+70367-161750SAO  +001599999V02099999999999999999N999999999-00785+99999999999QNNS11 1 00018
0329702190266151960080523003+60783-161800SAO  +0038BET  V02020359013950027449N0128005N1+01175+00945100515ADDGA1061+002744154GA2021+007624064GD13065+9999999GD24025+9999999GD30995+9999999GD40995+9999999GF108085999999999999999999MA1999999099975MW1805EQDN01 02300JPWTH 1QNNE11 1 00407E11 1 00603E11 1 00099E11 1 00099G11 1 00009H11 1 17009H11 1 15025K11 1 00049L11 1 00800M11 1 29520N11 1 02300Q11 1 10051S11 1 00053V11 1 01010W11 1 56027
0275999999265331960012122005+66917-151517SAO  +020599999V02031559005250030549N006400599-01785-02005102335ADDGD15995+9999999GD20995+9999999GD30995+9999999GD40995+9999999GF108085999999999999999999MA1999999099635MW1715EQDN01 04000JPWTH 1QNNE11 1 00799E11 1 00099E11 1 00099E11 1 00099G11 1 00010K11 1-00004L11 1 00400M11 1 29420N11 1 04000Q11 1 10233S11 1 00000V11 1 01010W11 1 88010
041072569024089196001190000C+42917-106467SAO  +1622CPR  V02022559004652200059N0960005N1-01225-01615103185ADDAA101000095GA1999+009144064GA2081+022864044GA3999+999999999GA4999+999999999GD14005+9999993GD20085+9999999GD30005+9999999GD40005+9999999GF108025999999999999999999MA1999999084255MW1001EQDQ01    003SCCGA1N01 00000JPWTH 1QNNE11 1 00500E11 1 00010E11 1 00000E11 1 00000G11U1 99999H11 1 15030H11 1 21075H11 1 00999H11 1 00999K11 1 00003L11 1 06000M11 1 24880N11 1 00000Q11 1 10318S11 1 00010V11 1 01003W11 1 66009
0350999999876011960121212005-77883+166733SAO  +0024NZCM V02009059012950243849N088000599-01065-01175098795ADDGA1999+006104064GA2999+024384034GA3999+030484034GD12025+9999999GD23065+9999999GD34015+9999999GD40995+9999999GF108085999999999999999999MA1999999098485EQDN01 00000JPWTH 1QNNE11 1 00202E11 1 00407E11 1 00601E11 1 00099G11 1 00080H11 1 15020H11 1 23080H11 1 23100K11 1 00011L11 1 05500M11 1 29080N11 1 00000Q11 1 09879S11 1 00013V11 1 01010W11 1 33025
0043663900999991960102209004-14933+013567FM-12+175899999V0201101N00261004201CN0150001N9+01781+01611095231ADDAY121999GF108991051031004501071999MW1101
0057534200999991960062109004+40967+107167FM-12+999999999V0200401N00621220001CN0450001N9+02501+00391100781ADDAY121999GF103991031011012501001001MD1210011+9999MW1021
0275702670264151960010103003+64000-145733SAO  +0389BIG  V02099999000050121949N0240005N1-01725-02005101665ADDGD13995+9999999GD24995+9999999GD30995+9999999GD40995+9999999GF108085999999999999999999MA1999999096585MW1001EQDN01 00000JPWTH 1QNNE11 1 00499E11 1 00699E11 1 00099E11 1 00099G11 1 00040K11 1-00004L11 1 01500M11 1 28520N11 1 00000Q11 1 10166S11 1 00001V11 1 01010W11 1 00000
0123373950999991960121706004+42267+042633FM-12+011699999V0200901N00311220001CN0500001N9+00781+00721999999ADDAA199000091AJ100009199999999AY121061GF107991001001999999001031HL10009IA1109IA2999+00509KA1999N+00611MD1210021+9999MW1021
0098471060999991960011609004+37733+127033SAO  +0056RKSB V0203201N001510240019N0096001N9-00151-00531101851ADDGA1021+015009059GA2031+024009039GA3081+220009029GF108991999999999999999999MA1999999101121MW1041
0121474300999991960013000004+41817+140750FM-12+003699999V0200201N00211007801CN0030001N9-00561-00831101771ADDAA106000391AY101999GA1999+999999089GA2061+999999099GF108991081031008001999999IA1319MA1999999101321MD1110061+9999MW1851
0043560330999991960090303004+34950+098133FM-12+351199999V0200701N99999220001CN0400001N9+00611-00221999999ADDAY111999GF102991021011008001041001MW1011
034099999993820196006112300E+38033-084600SAO  +029999999V02031559003152200059N009600599+02444+02115101424ADDAA101000095GA1999+036584034GA2999+999999024GD12025+9999999GD24065+9999999GD30995+9999999GD40995+9999999GF108085999999999999999999MA1999999097934MW1055EQDN01 08100JPWTH 1QNNE11 1 00203E11 1 00607E11 1 00099E11 1 00099G11C1 99999H11 1 23120H11C1 37999K11 1 00070L11 1 00600M11 1 28920N11 1 08100Q11 1 10142S11 1 00076V11 1 01010W11 1 88006
0057267630999991960082221004+54517+030383FM-12+019299999V0203201N00101220001CN0200001N9+01111+01001101661ADDAY191999GF100991001001999999001001MD1210071+9999MW1011
0092742060242071960062018004+47150-122483SAO  +0098TCM  V0202501N005110084019N0241401N9+01331+00671102941ADDGA1051+008409089GA2021+021009039GA3011+220009009GF108991999999999999999999MA1999999101691
0066741200999991960012110004+54417-110283SAO  +0544CYOD V0209991C000010018019N0240001N1-01811-02141104121ADDGA1081+001809079GF108991999999999999999999MA1999999097121MW1711
0106234450999991960032606004+65333+072700FM-12+999999999V0203201N00721220001CN0200001N9-02611-03221100431ADDAA199000091AY121999GF108991001001999999001071HL10009IA1319IA2999-02729KA1999N-02721MD1210041+9999MW1021
0089474180999991960093021004+42983+144400FM-12+003499999V0203601N00151004501CN0012001N9+00721+00721101281ADDAY101999GA1999+087009079GA2061+999999099GF107991071061004501999999MD1710321+9999MW1501
0029726055999991960042801004+43083-070817SAO  +0031PSM  V0200901N002110051019N0128001N9+00611+00441999999ADDGF108991999999999999999999
007494309099999196005120100N-20770+117130AUST +0013     V0201355N004659999999N999999999+02285+99999999999ADDAY124999GA1005+999999999GF100995004999999999999999MA1999999101545MW1025
0057246790999991960111203004+63133+139650FM-12+999999999V0209991C000019999999N0200001N9-01891-02001101291ADDAY171999GF107991031001999999041061MD1210031+9999MW1711
0057286420999991960111806004+55300+061533FM-12+999999999V0203201N00721220001CN0200001N9-02391-02781104271ADDAY101999GF100991001001999999001001MD1210141+9999MW1021
0377999999931161960050213005+33250-119467SAO  +015399999V02031559014452200059N012800599+01064+01005101114ADDGA1999+054864044GA2999+999999004GA3999+999999999GA4999+999999999GD12025+9999999GD23025+9999999GD30005+9999999GD40005+9999999GF105055999999999999999999MA1999999099324EQDN01 00000JPWTH 1QNNE11 1 00203E11 1 00403E11 1 00000E11 1 00000G11C1 99999H11 1 21180H11C1 32999H11 1 00999H11 1 00999K11 1 00050L11 1 00800M11 1 29330N11 1 00000Q11 1 10111S11 1 00051V11 1 00606W11 1 88028
0057354360999991960082800004+49233+057667FM-12+999999999V0201401N00211220001CN0200001N9+01391+00891100931ADDAY121999GF107991001001999999091021MD1210011+9999MW1011
0057372090999991960122521004+43133+043450FM-12+999999999V0209991C00001220001CN0200001N9-00501-01001101511ADDAY101031GF101991001001999999001041MD1110051+9999MW1021
0057013840999991960102900004+60200+011083FM-12+020299999V0209991C00001004501CN0010001N9+00111+99999101261ADDAY141999GF108991081061004501999999MD1210051+9999MW1101
0035747950128671960033022004+28233-080600SAO  +0006COF  V0201601N005712200019N0240001N9+02131+01851999999ADDGF108991999999999999999999MW1001
0100251510999991960031321004+68900+170783FM-12+999999999V0200901N00511220001CN0500001N9-02221-02281103301ADDAA199000091AY121999GF108991001001999999041071KA1999N+99999MD1710331+9999MW1021EQDQ01 -01612ATMN  
0383999999931011960092407005+33683-117717SAO  +011699999V02018059001552200059N002800599+01724+01565101194ADDGA1999+999999104GA2999+999999999GA3999+999999999GA4999+999999999GD16025+9999999GD20005+9999999GD30005+9999999GD40005+9999999GF102025999999999999999999MA1999999099864MW1445EQDN01 07200JPWTH 1QNNE11 1 00802E11 1 00000E11 1 00000E11 1 00000G11U1 99999H11 1 45999H11 1 00999H11 1 00999H11 1 00999K11 1 00060L11 1 00175M11 1 29490N11 1 07200Q11 1 10119S11 1 00063V11 1 00202W11 1 55003
0329722970231291960060507003+33817-118150SAO  +0008LGB  V02013559003150064049N0240005N1+01785+01445101255ADDGA1999+004574064GA2081+006404064GD14005+9999999GD20085+9999999GD30995+9999999GD40995+9999999GF108085999999999999999999MA1999999101155MW1001EQDN01 00000JPWTH 1QNNE11 1 00600E11 1 00010E11 1 00099E11 1 00099G11 1 00021H11 1 15015H11 1 15021K11 1 00058L11 1 01500M11 1 29870N11 1 00000Q11 1 10125S11 1 00064V11 1 01010W11 1 44006
0128999999331261960101910005+37400+014917SAO  +0031LICZ V02022559003152200059N024000599+02115+00785999999ADDGF100005999999999999999999EQDN01 00000JPWTH 1QNNG11U1 99999K11 1 00046L11 1 01500N11 1 00000S11 1 00070V11 1 00000W11 1 66006
005194739099999196001232300N-32500+150900AUST +0082     V0202705N008259999999N999999999+01895+01605999999ADDGA1005+999999999GF100995004999999999999999MW1285
0035725335999991960122305004+40650-086150SAO  +0247GUS  V0202701N003112200019N0192001N9-02001-02721999999ADDGF100991999999999999999999MW1001
0086961090999991960113000004+00467+101450FM-12+003199999V0209991C00001039001CN0080001N9+02221+02221101191ADDAA124034091AY161999GA1041+002709079GA2051+999999999GF108991041061002501011081MW1051
0050722350039401960061903004+32317-090083SAO  +0101JAN  V0209991C000012200019N0240001N1+02131+01411101681ADDGF100991999999999999999999MA1999999100511MW1001
0088717270999991960051511004+48333-071000SAO  +0163CYBG V0209991C000010009019N0008001N1+00741+00691100211ADDGA1051+000909079GA2031+001809079GF108991999999999999999999MA1999999098241MW1451MW2511
0096984440999991960091303004+13133+123733SAO  +0017RPMP V0200901N002110750019N0240001N1+03131+02521100851ADDGA1021+003009089GA2081+075009009GF108991999999999999999999MA1999999100611MD1710241+9999MW1001
031399999913881196006040600E+35217-080933SAO  +0225CLT  V02013559002650152449N011200599+01895+01835101225ADDAA101001395GA1999+015244054GD14085+9999999GD20995+9999999GD30995+9999999GD40995+9999999GF108085999999999999999999MA1999999098515MW1615EQDN01 02000JPWTH 1QNNE11 1 00610E11 1 00099E11 1 00099E11 1 00099G11 1 00050H11 1 22050K11 1 00065L11 1 00700M11 1 29090N11 1 02000Q11 1 10122S11 1 00066V11 1 01010W11 1 44005
0329722138138351960092818003+31133-083700SAO  +0089MUL  V02015859003650015249N0112005N1+02445+02225101085ADDGA1061+001524074GA2021+012194064GD13065+9999999GD24025+9999999GD30995+9999999GD40995+9999999GF108085999999999999999999MA1999999099975MW1001EQDN01 00000JPWTH 1QNNE11 1 00407E11 1 00603E11 1 00099E11 1 00099G11 1 00005H11 1 16005H11 1 15040K11 1 00072L11 1 00700M11 1 29520N11 1 00000Q11 1 10108S11 1 00076V11 1 01010W11 1 54007
0377999999138831960072616005+33983-081000SAO  +006999999V02011359002152200059N019200599+03065+02285101865ADDGA1999+007624084GA2999+999999004GA3999+999999999GA4999+999999999GD12025+9999999GD22015+9999999GD30005+9999999GD40005+9999999GF103025999999999999999999MA1999999101055EQDN01 00000JPWTH 1QNNE11 1 00203E11 1 00201E11 1 00000E11 1 00000G11U1 99999H11 1 11025H11C1 32999H11 1 00999H11 1 00999K11 1 00073L11 1 01200M11 1 29840N11 1 00000Q11 1 10186S11 1 00087V11 1 00403W11 1 34004
036799999993822196005061300E+39833-089667SAO  +0179SPI  V02013559013450021349N006400599+01674+01395099864ADDAA101001095GA1999+002134134GA2999+004574064GA3999+009144064GD13055+9999999GD23025+9999999GD34015+9999999GD40995+9999999GF108085999999999999999999MA1999999097704MW1805EQDN01 02300JPWTH 1QNNE11 1 00406E11 1 00403E11 1 00601E11 1 00099G11 1 00007H11 1 13007H11 1 15015H11 1 15030K11 1 00057L11 1 00400M11 1 28850N11 1 02300Q11 1 09986S11 1 00062V11 1 01010W11 1 44026
0035723408138141960091607004+35967-089950SAO  +0077BYH  V0200701N001012200019N0160001N9+02001+01721999999ADDGF100991999999999999999999MW1001
0035747770038521960092004004+30417-086683SAO  +0014HRT  V0209991C000012200019N0112001N9+02461+02411999999ADDGF100991999999999999999999MW1001
0043610900999991960020506004+13783+008983FM-12+045399999V0200901N00411105001CN0070001N9+02391+00111101691ADDAY111999GF107991011001999999051021MW1031
008374780499999196010280900D+32017-081133SAO  +0017SVN  V0200701N001510180019N0080001N9+01571+01521100911ADDAA101000095GA1081+018009049GF108991999999999999999999MA1999999100751MW1041MW2611
030799999914737196001071800E+40650-075433SAO  +0118ABE  V02024859002650243849N011200599+00225-00335101315ADDAA101000095GA1999+024384044GD14085+9999999GD20995+9999999GD30995+9999999GD40995+9999999GF108085999999999999999999MA1999999099865EQDN01 00000JPWTH 1QNNE11 1 00610E11 1 00099E11 1 00099E11 1 00099G11 1 00080H11 1 21080K11 1 00026L11 1 00700M11 1 29490N11 1 00000Q11 1 10131S11 1 00036V11 1 01010W11 1 76005
0091999999148451960081303005+43433-083867SAO  +018199999V02022559005259999999N999999999+02005+99999999999ADDGF100995999999999999999999MA1999999099025QNNM11 1 29240S11 1 00068V11 1 00099W11 1 66010
0076567510999991960091812004+25717+100183FM-12+196099999V0209991C00001220001CN0500001N9+01721+01281999999ADDAY101999GF101991999001999999041001MD1310011+9999MW1011EQDQ01+000002SCOTLC
0057488200999991960042106004+21050+105867FM-12+000699999V0201401N006219999999N0300001N9+02721+01721100741ADDAY111999GF102991021011008001001001MD1710301+9999MW1011
038899999903813196008070300E+32700-083650SAO  +0108MCN  V02018059006750152449N024000599+02675+02175102135ADDAA101000095GA1999+015244094GA2999+999999999GA3999+999999999GA4999+999999999GD13055+9999999GD20005+9999999GD30005+9999999GD40005+9999999GF105055999999999999999999MA1999999100855EQDN01 00000JPWTH 1QNNE11 1 00406E11 1 00000E11 1 00000E11 1 00000G11 1 00050H11 1 18050H11 1 00999H11 1 00999H11 1 00999K11 1 00071L11 1 01500M11 1 29780N11 1 00000Q11 1 10213S11 1 00080V11 1 00606W11 1 55013
0057506030999991960030512004+48750+117000FM-12+999999999V0209991C00001220001CN0250001N9-01781-02111102351ADDAY111999GF100991001001999999001001MD1210201+9999MW1011
036799999914942196007121100E+41300-095900SAO  +0304OMA  V02011359004650152449N012800599+02175+02005101545ADDAA101000895GA1999+007624064GA2999+015244094GA3999+999999004GD12025+9999999GD23035+9999999GD34035+9999999GD40995+9999999GF108085999999999999999999MA1999999098075MW1805EQDN01 02300JPWTH 1QNNE11 1 00202E11 1 00404E11 1 00604E11 1 00099G11 1 00050H11 1 15025H11 1 18050H11C1 32999K11 1 00068L11 1 00800M11 1 28960N11 1 02300Q11 1 10154S11 1 00071V11 1 01010W11 1 34009
0082717490999991960060216004+48367-089317SAO  +0196CYQT V0202931N008210054019N0112001N1+01131+00911099871ADDGA1011+003009079GA2071+005409059GF108991999999999999999999MA1999999097531MW1611
038899999914764196002172100E+43650-070317SAO  +002499999V02015859005252200059N016000599+00505-00225101595ADDAA101000095GA1999+016764084GA2999+999999004GA3999+999999999GA4999+999999999GD12025+9999999GD23035+9999993GD30005+9999999GD40005+9999999GF105025999999999999999999MA1999999101355EQDN01 00000JPWTH 1QNNE11 1 00202E11 1 00304E11 1 00000E11 1 00000G11U1 99999H11 1 11055H11C1 32999H11 1 00999H11 1 00999K11 1 00028L11 1 01000M11 1 29930N11 1 00000Q11 1 10159S11 1 00041V11 1 00602W11 1 54010
0123442900999991960103100004+47867+105250FM-12+130099999V0202701N00821220001CN0100001N9-01781-02611104221ADDAA199000091AJ100009199999999AY101999GF100991001001999999001001HL10009IA1139IA2999-02229KA1999N-01781MD1310141+9999MW1021
0081400250999991960012506004+35400+035950FM-12+003099999V0200401N00211036001CN0200001N9+00721-00281102391ADDAA124000091AY121999GF106991041081012501031011KA1999N+00611MD1310061+9999MW1021
0088106370999991960022315004+50033+008583SAO  +0110EDDF V0202001N003110015019N0016001N9+00501+00331100191ADDGA1051+001509079GA2081+003009059GF108991999999999999999999MA1999999098811MW1451MW2611
0377999999137301960040819005+39417-077383SAO  +0094FDK  V02027059007750121949N024000599+01445+00335100855ADDGA1999+012194064GA2999+999999999GA3999+999999999GA4999+999999999GD13075+9999999GD20005+9999999GD30005+9999999GD40005+9999999GF107075999999999999999999MA1999999099705EQDN01 00000JPWTH 1QNNE11 1 00409E11 1 00000E11 1 00000E11 1 00000G11 1 00040H11 1 15040H11 1 00999H11 1 00999H11 1 00999K11 1 00038L11 1 01500M11 1 29440N11 1 00000Q11 1 10085S11 1 00058V11 1 00909W11 1 77015
0057561370999991960070409004+31167+097267FM-12+320199999V0203401N00311021001CN0200001N9+02221+00721999999ADDAY111999GF107991071091022501061999MD1510041+9999MW1801
039499999913877196006302300E+36483-082400SAO  +047799999V02022559003652200059N056000599+02835+01725101765ADDAA101000095GA1999+048774034GA2999+999999999GA3999+999999999GA4999+999999999GD12025+9999999GD20005+9999999GD30005+9999999GD40005+9999999GF102025999999999999999999MA1999999096445MW1055EQDN01 08100JPWTH 1QNNE11 1 00202E11 1 00000E11 1 00000E11 1 00000G11U1 99999H11 1 23160H11 1 00999H11 1 00999H11 1 00999K11 1 00063L11 1 03500M11 1 28480N11 1 08100Q11 1 10176S11 1 00083V11 1 00202W11 1 66007
0057360210999991960092809004+52250+079133FM-12+014599999V0202701N00101220001CN0100001N9+01501+00391103101ADDAY101999GF104991041011008001001001MD1410001+9999MW1021
0068579570999991960070612004+25250+110167FM-12+015699999V0202201N00211036001CN0270001N9+03111+02221100341ADDAA106000691AY181999GF106991011041012501041021MD1610061+9999MW1011
0081621760999991960102018004+29750+024533FM-12-000199999V0209991C00001220001CN0160001N9+02221+00891102081ADDAA199000091AY101999GF100991001001999999001001KA1999M+02891MD1210201+9999MW1021
0057383410999991960090100004+42850+071383FM-12+064299999V0201401N00211220001CN0200001N9+01001+00501101241ADDAY101999GF100991001001999999001001MD1710071+9999MW1021
0113109340999991960060918004+47650+009483FM-12+040199999V0201501N00051015001CN0350001N9+01781+01391101101ADDAA199004091AY181061GA1011+009009089GA2051+015009059GF107991051081008001071999KA1999M+02281MD1610041+9999MW1251
0070592650999991960090218004+23500+111417FM-12+011999999V0200401N00211220001CN0150001N9+02501+02501100981ADDAY111999GF101991011011008001001021KA1999M+03221MD1810051+9999MW1031
0057112400999991960070615004+47000+015450FM-12+034299999V0201201N00511220001CN0180001N9+02611+01391100871ADDAY101031GF102991021021017501041011MD1710141+9999MW1021
0043614980999991960101218004+16633-011400FM-12+011599999V0200401N00211105001CN0150001N9+03281+01221100771ADDAY121999GF107991001001999999001021MW1021
0296999999129181960021115005+99999+999999SAO  +999999999V02004559008250274349N019200599+00785+00005101525ADDGA1999+027434034GD14085+9999999GD20995+9999999GD30995+9999999GD40995+9999999GF108085999999999999999999MA1999999101295EQDN01 00000JPWTH 1QNNE11 1 00610E11 1 00099E11 1 00099E11 1 00099G11 1 00090H11 1 23090K11 1 00032L11 1 01200M11 1 29910N11 1 00000Q11 1 10152S11 1 00046V11 1 01010W11 1 22016
0269999999240371960051515005+46433-105867SAO  +0801MLS  V02099999000052200059N024000599+01285-00065101325ADDGD13995+9999993GD20995+9999999GD30995+9999999GD40995+9999999GF107025999999999999999999MA1999999092045EQDN01 00000JPWTH 1QNNE11 1 00399E11 1 00099E11 1 00099E11 1 00099G11U1 99999K11 1 00031L11 1 01500M11 1 27180N11 1 00000Q11 1 10132S11 1 00055V11 1 00903W11 1 00000
0050912180999991960122020004+13567+144917SAO  +0185PGUA V0200901N003112200019N0240001N9+02501+02391101111ADDGF107991999999999999999999MA1999999098961MW1001
0366999999682011960012512005-80017-119533SAO  +154399999V02006859007752200059N024000599-01615-01895999999ADDGA1999+999999004GA2999+999999999GA3999+999999999GA4999+999999999GD11015+9999993GD20005+9999999GD30005+9999999GD40005+9999999GF101005999999999999999999MA1999999081655EQDN01 00000JPWTH 1QNNE11 1 00101E11 1 00000E11 1 00000E11 1 00000G11U1 99999H11C1 32999H11 1 00999H11 1 00999H11 1 00999K11 1-00002L11 1 01500M11 1 24110N11 1 00000S11 1 00003V11 1 00100W11 1 32015
038899999914944196011252000E+43567-096733SAO  +043499999V02020359002152200059N024000599+01615-00225100495ADDAA101000095GA1999+999999004GA2999+999999999GA3999+999999999GA4999+999999999GD13065+9999993GD20005+9999999GD30005+9999999GD40005+9999999GF106015999999999999999999MA1999999095365EQDN01 00000JPWTH 1QNNE11 1 00307E11 1 00000E11 1 00000E11 1 00000G11U1 99999H11C1 32999H11 1 00999H11 1 00999H11 1 00999K11 1 00028L11 1 01500M11 1 28160N11 1 00000Q11 1 10049S11 1 00061V11 1 00701W11 1 56004
0269999999139731960091721005+30500-099767SAO  +052199999V02009059002152200059N024000599+03395+01725101565ADDGD10995+9999999GD20995+9999999GD30995+9999999GD40995+9999999GF100005999999999999999999MA1999999095675EQDN01 00000JPWTH 1QNNE11 1 00099E11 1 00099E11 1 00099E11 1 00099G11U1 99999K11 1 00063L11 1 01500M11 1 28250N11 1 00000Q11 1 10156S11 1 00093V11 1 00000W11 1 33004
0057522030999991960050409004+42833+093450FM-12+073599999V0202701N00101220001CN0600001N9+01721-00781100921ADDAY121999GF107991001001999999031061MD1610171+9999MW1031
041072569024089196009061600C+42917-106467SAO  +1622CPR  V02033859004652200059N0960005N1+01725+00115100985ADDAA101000095GA1999+042674034GA2081+220009024GA3999+999999999GA4999+999999999GD14005+9999999GD20085+9999999GD30005+9999999GD40005+9999999GF108065999999999999999999MA1999999083685MW1001EQDQ01    003SCCGA1N01 00000JPWTH 1QNNE11 1 00600E11 1 00010E11 1 00000E11 1 00000G11C1 99999H11 1 23140H11C1 37999H11 1 00999H11 1 00999K11 1 00034L11 1 06000M11 1 24710N11 1 00000Q11 1 10098S11 1 00063V11 1 01007W11 1 18009
0131986420999991960090806004+09300+123300SAO  +0006RPVD V0200451N002612200019N0480001N1+03351+02741100871ADDGA1021+006009099GA2021+007509089GA3011+054009009GF102991999999999999999999MA1999999100811MD1710261+9999MW1001EQDQ01+000522APC3  
0383999999939011960020923005+32733-096967SAO  +0150NBE  V02022559012952200059N004800599+02944+00445098064ADDGA1999+999999104GA2999+999999999GA3999+999999999GA4999+999999999GD16035+9999999GD20005+9999999GD30005+9999999GD40005+9999999GF103035999999999999999999MA1999999096514MW1075EQDN01 07300JPWTH 1QNNE11 1 00804E11 1 00000E11 1 00000E11 1 00000G11U1 99999H11 1 98999H11 1 00999H11 1 00999H11 1 00999K11 1 00040L11 1 00300M11 1 28500N11 1 07300Q11 1 09806S11 1 00085V11 1 00404W11 1 66025
0057583210999991960061003004+31883+117250FM-12+002899999V0200401N00511004501CN0450001N9+02281+02111100361ADDAY121999GF108991081071004501999999MD1210081+9999MW1601
0151474170999991960112518004+42917+143217FM-12+004199999V0209991C00001004501CN0020001N9+00221+00171100301ADDAA106006091AJ100009199999999AY101999GA1999+087009089GA2999+999999099GF108991081071004501999999MA1999999099801MD1610041+9999MW1101EQDQ01    003SCCGA2
0224719480272021960052411005+70167-124683SAO  +0016CYUE V02009059005252200059N000400599-00785-00835101985ADDGA1999+999999104GD19035+9999999GF103035999999999999999999MA1999999101965MW1455EQDN01 07000JPWTH 1QNNE11 1 09904G11U1 99999H11 1 45999K11 1 00017L11 1 00025M11 1 30110N11 1 07000Q11 1 10198S11 1 00018V11 1 00404W11 1 33010
0081121000999991960060618004+54183+015583FM-12+000599999V0203001N00211220001CN0120001N9+02111+01501101551ADDAA199000691AY161999GF102991011001999999031081KA1999M+02111MD1510031+9999MW1011
0129711080999991960050112004+49017-122367FM-12+006099999V0209991C00001220001CN0160001N9+00391+00331101981ADDAJ199999999999999AL10600091AY111999GF105991051001999999051001KA1999M+01671KA2999N+00331MD1710021+9999MW1031EQDQ01  04472SNDP  
0065404490999991960122712004+25350+055383FM-12+000299999V0203301N00571220001CN0700001N9+02221+01671101611ADDAY101999GA1011+012009089GF101991011021012501031001IA1319MW1021
038372406093721196008220200C+39183-076667SAO  +0045BAL  V02024859002150243849N0160005N1+02285+02225101325ADDAA101004695GA1021+012194084GA2031+024384034GA3021+045724034GD12025+9999999GD23035+9999999GD34025+9999999GD40995+9999999GF108085999999999999999999MA1999999100785MW1805EQDQ01    003PRSWM1N01 02300JPWTH 1QNNE11 1 00203E11 1 00404E11 1 00603E11 1 00099G11 1 00080H11 1 11040H11 1 23080H11 1 23150K11 1 00072L11 1 01000M11 1 29760N11 1 02300Q11 1 10132S11 1 00073V11 1 01010W11 1 76004
0081134620999991960120918004+42367+019250FM-12+003199999V0209991C00001007801CN0150001N9+01281+01111100981ADDAA199000691AY161999GF108991081071008001999999KA1999M+01501MD1810081+9999MW1611
0269999999137341960081210005+39400-077983SAO  +0164MRB  V02099999000050243849N012800599+01675+01615101805ADDGD13995+9999999GD23995+9999999GD30995+9999999GD40995+9999999GF106065999999999999999999MA1999999099865EQDN01 00000JPWTH 1QNNE11 1 00499E11 1 00499E11 1 00099E11 1 00099G11 1 00080K11 1 00061L11 1 00800M11 1 29490N11 1 00000Q11 1 10180S11 1 00062V11 1 00808W11 1 00000
0035722545999991960051820004+30200-097667SAO  +0165BSM  V0202001N007710120019N0240001N9+02741+02131999999ADDGF108991999999999999999999MW1001
0383999999407101960050512005+07083+171383SAO  +000399999V02009059008250457249N024000599+02675+02395101025ADDGA1999+005494084GA2999+045724034GA3999+999999999GA4999+999999999GD12045+9999999GD24055+9999999GD30005+9999999GD40005+9999999GF108065999999999999999999MA1999999100985MW1805EQDN01 02300JPWTH 1QNNE11 1 00205E11 1 00606E11 1 00000E11 1 00000G11 1 00150H11 1 11018H11 1 23150H11 1 00999H11 1 00999K11 1 00075L11 1 01500M11 1 29820N11 1 02300Q11 1 10102S11 1 00080V11 1 01007W11 1 33016
0076258160999991960032306004+61567+156900FM-12+999999999V0202901N04012000151CN0000001N9-02111-02391100691ADDAY131999GF109991091999000251999999MD1210071+9999MW1391EQDQ01+004013WOSPD 
017699999913983196010040100E+38967-092367SAO  +0237COU  V02006859003152200059N019200599+01445+01225102015ADDAA101000095GF100005999999999999999999MA1999999099155EQDN01 00000JPWTH 1QNNG11U1 99999K11 1 00054L11 1 01200M11 1 29280N11 1 00000Q11 1 10201S11 1 00058V11 1 00000W11 1 32006
0238722165138151960032717003+31583-084117SAO  +0068TRF  V02099999000052200059N0112005N1+02285+01445999999ADDGD12995+9999999GD24995+9999999GD30995+9999999GD40995+9999999GF108995999999999999999999MW1001EQDN01 00000JPWTH 1QNNE11 1 00299E11 1 00699E11 1 00099E11 1 00099G11C1 99999K11 1 00058L11 1 00700N11 1 00000S11 1 00073V11 1 01099W11 1 00000
038899999914944196010131700E+43567-096733SAO  +043499999V02020359002652200059N024000599+01945+00895100905ADDAA101000095GA1999+030484034GA2999+999999004GA3999+999999999GA4999+999999999GD12025+9999999GD22005+9999999GD30005+9999999GD40005+9999999GF102025999999999999999999MA1999999095835EQDN01 00000JPWTH 1QNNE11 1 00203E11 1 00200E11 1 00000E11 1 00000G11U1 99999H11 1 23100H11C1 32999H11 1 00999H11 1 00999K11 1 00048L11 1 01500M11 1 28300N11 1 00000Q11 1 10090S11 1 00067V11 1 00303W11 1 56005
0323999999433091960101118005+35833+139417SAO  +0094RJTJ V02027059001050167649N011200599+01565+01445101375ADDGA1999+016764064GA2999+024384034GD13055+9999999GD24085+9999999GD30995+9999999GD40995+9999999GF108085999999999999999999MA1999999100275EQDN01 00000JPWTH 1QNNE11 1 00406E11 1 00610E11 1 00099E11 1 00099G11 1 00055H11 1 15055H11 1 23080K11 1 00058L11 1 00700M11 1 29610N11 1 00000Q11 1 10137S11 1 00060V11 1 01010W11 1 77002
0035727855241141960063005004+47617-117650SAO  +0750SKA  V0201601N001512200019N0400001N9+01891+00611999999ADDGF102991999999999999999999MW1001
0269999999265121960062822005+63883-152283SAO  +021499999V02006859002150182949N056000599+01835+00945100585ADDGD12995+9999999GD23995+9999999GD34995+9999999GD40995+9999999GF108075999999999999999999MA1999999098005EQDN01 00000JPWTH 1QNNE11 1 00299E11 1 00499E11 1 00699E11 1 00099G11 1 00060K11 1 00049L11 1 03500M11 1 28940N11 1 00000Q11 1 10058S11 1 00065V11 1 01009W11 1 32004
0096985430999991960112012004+12367+123617FM-12+001199999V0200901N00101004501CN0170001N9+02611+02391101221ADDGA1061+004509029GA2041+075009059GF108991051061004501011001MA1999999101081MD1310161+9999MW1001
024972458613922196010170400C+38800-097633SAO  +0390SLN  V02022559004152200059N0240005N1+01065+00785999999ADDAA101000095GD10995+9999999GD20995+9999999GD30995+9999999GD40995+9999999GF100995999999999999999999MW1001EQDN01 00000JPWTH 1QNNE11 1 00099E11 1 00099E11 1 00099E11 1 00099G11U1 99999K11 1 00046L11 1 01500N11 1 00000S11 1 00051V11 1 00099W11 1 66008
0066475800999991960092818004+40683+141367SAO  +0043RJSM V0202001N003112200019N0160001N9+00741+00521102371ADDGA1001+999999999GF100991999999999999999999MA1999999101901MW1001
0057125000999991960030209004+50900+015800FM-12+034499999V0209991C00001220001CN0040001N9+00611+00501101371ADDAY141999GF102991021021008001001001MD1210041+9999MW1101
0056419150999991960092212004+23217+089217SY-AE+001299999V0209991C00001036001CN0020001N9+02941+02611100201ADDAY121999GF106991041041008001061001KA1999M+03171MW1031
0232999999350341960051114005+52400+000567SAO  +0010EGUL V02009059006752200059N017600599+01835+00895999999ADDGD14995+9999993GD20995+9999999GD30995+9999999GD40995+9999999GF108995999999999999999999EQDN01 00000JPWTH 1QNNE11 1 00599E11 1 00099E11 1 00099E11 1 00099G11U1 99999K11 1 00048L11 1 01100N11 1 00000S11 1 00065V11 1 01099W11 1 33013
0057590070999991960090121004+24033+105033FM-12+139599999V0209991C00001012301CN0200001N9+02001+01891102311ADDAY181999GF107991051021012501001031MD1810131+9999MW1251
0076259410999991960052609004+60800+162750FM-12+999999999V0203601N00621002401CN0020001N9+00221+00111100821ADDAY161999GF108991999091002501021999MD1210111+9999MW1631EQDQ01+000082SCOTLC
038899999913893196004240800E+35050-089983SAO  +007999999V02020359002652200059N019200599+01945+01615101525ADDAA101000095GA1999+999999004GA2999+999999999GA3999+999999999GA4999+999999999GD14085+9999993GD20005+9999999GD30005+9999999GD40005+9999999GF108025999999999999999999MA1999999100515EQDN01 00000JPWTH 1QNNE11 1 00510E11 1 00000E11 1 00000E11 1 00000G11U1 99999H11C1 32999H11 1 00999H11 1 00999H11 1 00999K11 1 00061L11 1 01200M11 1 29680N11 1 00000Q11 1 10152S11 1 00067V11 1 01003W11 1 56005
039499999913740196009030300E+37500-077333SAO  +005599999V02036059001552200059N008000599+02005+01945101965ADDAA101000095GA1999+036584034GA2999+999999999GA3999+999999999GA4999+999999999GD10005+9999999GD20005+9999999GD30005+9999999GD40005+9999999GF100005999999999999999999MA1999999101395MW1445EQDN01 07200JPWTH 1QNNE11 1 00000E11 1 00000E11 1 00000E11 1 00000G11U1 99999H11 1 23120H11 1 00999H11 1 00999H11 1 00999K11 1 00067L11 1 00500M11 1 29940N11 1 07200Q11 1 10196S11 1 00068V11 1 00000W11 1 11003
0068576490999991960050412004+28250+109700FM-12+999999999V0209991C00001015001CN0120001N9+02391+02111100251ADDAA106000691AY191999GF107991071091017501999999MD1210361+9999MW1011
0057103590999991960031300004+52517+011400FM-12+004899999V0209991C00001015001CN0036001N9+00391+00281100821ADDAY121999GF107991071051017501999999MD1810071+9999MW1101
0269999999146221960062514005+44950-068667SAO  +0041OLD  V02024859003150024449N016000599+01835+01615099765ADDGD13995+9999999GD24995+9999999GD30995+9999999GD40995+9999999GF108085999999999999999999MA1999999099295EQDN01 00000JPWTH 1QNNE11 1 00499E11 1 00699E11 1 00099E11 1 00099G11 1 00008K11 1 00061L11 1 01000M11 1 29320N11 1 00000Q11 1 09976S11 1 00065V11 1 01010W11 1 76006
0057234050999991960121215004+65450+052167FM-12+002799999V0201601N00311002401CN0040001N9-01111-01221999999ADDAY151999GF108991081061002501999999MD1210021+9999MW1771
038899999924023196008172200E+41133-100683SAO  +0846LBF  V02031559007752200059N024000599+02445+00675101055ADDAA101000095GA1999+018294084GA2999+999999004GA3999+999999999GA4999+999999999GD12025+9999999GD21035+9999993GD30005+9999999GD40005+9999999GF104025999999999999999999MA1999999091475EQDN01 00000JPWTH 1QNNE11 1 00202E11 1 00104E11 1 00000E11 1 00000G11U1 99999H11 1 11060H11C1 32999H11 1 00999H11 1 00999K11 1 00044L11 1 01500M11 1 27010N11 1 00000Q11 1 10105S11 1 00076V11 1 00502W11 1 88015
0109384490999991960032003004+41217+068800FM-12+999999999V0202701N00101007801CN0100001N9-00281-00281102741ADDAA199000091AJ100009199999999AY101999GF199999081061008001999999HL10009IA1139IA2999-00399KA1999N-00391MW1011
0057151500999991960030821004+46583+026983FM-12+018399999V0200401N00211004501CN0040001N9-00611-00891102951ADDAY171999GF108991061071004501071999MD1810081+9999MW1101
0050478540999991960092422004+32083+131450SAO  +0078RJFN V0203151N001512200019N0240001N1+02241+02071101761ADDGF102991999999999999999999MA1999999100851MW1001
0057475870999991960092121004+38900+139833FM-12+000399999V0201401N00511220001CN0250001N9+01501+01171101921ADDAY101999GF100991001001999999001001MD1210121+9999MW1021
0057379890999991960032918004+38450+048883FM-12-002199999V0201801N00101000151CN0000501N9+00721+00721999999ADDAY141061GF109991091999000251999999MD1810011+9999MW1451
0035727937999991960071420004+47917-122283SAO  +0187PAE  V0202931N002612200019N0480001N1+02021+01021999999ADDGF102991999999999999999999MW1001
0101488550999991960091911004+16050+108200SAO  +0009VVSD V0203151N003110690019N0240001N1+02681+99999100381ADDGA1051+069009999GA2011+004809009GF107991999999999999999999MA1999999100301MW1001EQDQ01+999990APOSLP
0040416970999991960041104004+29550+067883FM-12+013499999V02099999999999999999N9999999N9+99999+99999999999ADDAA124000091KA1999M+03501KA2999N+01941
0269999999137321960031603005+38067-078150SAO  +013599999V02099999000052200059N011200599-00285-00505102645ADDGD10995+9999999GD20995+9999999GD30995+9999999GD40995+9999999GF100005999999999999999999MA1999999100955EQDN01 00000JPWTH 1QNNE11 1 00099E11 1 00099E11 1 00099E11 1 00099G11U1 99999K11 1 00023L11 1 00700M11 1 29810N11 1 00000Q11 1 10264S11 1 00027V11 1 00000W11 1 00000
036199999914607196009130500E+46867-068017SAO  +019199999V02013559013450051849N016000599+01785+01675098075ADDAA101000595GA1999+001524134GA2999+003054134GA3999+005184074GD12025+9999999GD22025+9999999GD34045+9999999GD40995+9999999GF108085999999999999999999MA1999999095835EQDN01 00000JPWTH 1QNNE11 1 00203E11 1 00202E11 1 00605E11 1 00099G11 1 00017H11 1 13005H11 1 13010H11 1 16017K11 1 00062L11 1 01000M11 1 28300N11 1 00000Q11 1 09807S11 1 00064V11 1 01010W11 1 44026
0296999999232451960112613005+99999+999999SAO  +999999999V02024859003150106749N016000599+01065+00945100765ADDGA1999+010674064GD14085+9999999GD20995+9999999GD30995+9999999GD40995+9999999GF108085999999999999999999MA1999999100205EQDN01 00000JPWTH 1QNNE11 1 00610E11 1 00099E11 1 00099E11 1 00099G11 1 00035H11 1 15035K11 1 00049L11 1 01000M11 1 29590N11 1 00000Q11 1 10076S11 1 00051V11 1 01010W11 1 76006
0057401540999991960052800004+32817+035000FM-12+000899999V0209991C00001220001CN0150001N9+02111+01391100731ADDAY101999GF100991001001999999001001MD1710101+9999MW1001
0129719310999991960041912004+54767-112017FM-12+055999999V0201801N00151220001CN0300001N9+00061-00501100391ADDAJ199999999999999AL10600091AY111999GF106991061051008001001001KA1999M+01281KA2999N-00061MD1810021+9999MW1031EQDQ01  04472SNDP  
0057336580999991960121900004+48267+025967FM-12+024099999V0201401N00821004501CN0100001N9+00281+00221999999ADDAY121999GF108991081061004501999999MD1710141+9999MW1021
0232999999150331960060714005+52367+000217SAO  +0049EGWZ V02024859005252200059N020800599+01785+00725999999ADDGD12995+9999999GD22995+9999999GD30995+9999999GD40995+9999999GF104995999999999999999999EQDN01 00000JPWTH 1QNNE11 1 00299E11 1 00299E11 1 00099E11 1 00099G11U1 99999K11 1 00045L11 1 01300N11 1 00000S11 1 00064V11 1 00599W11 1 76010
0296999999139411960121512005+30217-093150SAO  +000599999V02099999000050012249N016000599+00395+00395101595ADDGA1999+001224134GD14085+9999999GD20995+9999999GD30995+9999999GD40995+9999999GF108085999999999999999999MA1999999101495EQDN01 00000JPWTH 1QNNE11 1 00610E11 1 00099E11 1 00099E11 1 00099G11 1 00004H11 1 13004K11 1 00039L11 1 01000M11 1 29970N11 1 00000Q11 1 10159S11 1 00039V11 1 01010W11 1 00000
031372745014913196001011300C+46833-092183SAO  +0434DLH  V02013559003650039649N0160005N9-00725-00895102445ADDAA101000095GA1081+003964064GD14085+9999999GD20995+9999999GD30995+9999999GD40995+9999999GF108085999999999999999999MA1999999097025MW1001EQDN01 00000JPWTH 1QNNE11 1 00610E11 1 00099E11 1 00099E11 1 00099G11 1 00013H11 1 15013K11 1 00016L11 1 01000M11 1 28650N11 1 00000Q11 1 10244S11 1 00019V11 1 01010W11 1 44007
0057549160999991960020215004+35583+116850FM-12+005299999V0203601N00211220001CN0200001N9-00111-00611102741ADDAY101031GF100991001001999999001001MD1210041+9999MW1021
041072270023044196002170900C+31800-106400SAO  +1201ELP  V02002359011352200059N0160005N9+00395-00285101525ADDAA101000095GA1999+030484034GA2999+999999999GA3999+999999999GA4999+999999999GD10005+9999999GD20005+9999999GD30005+9999999GD40005+9999999GF100005999999999999999999MA1999999088185MW1001EQDQ01    003SCCGA1N01 00000JPWTH 1QNNE11 1 00000E11 1 00000E11 1 00000E11 1 00000G11U1 99999H11 1 23100H11 1 00999H11 1 00999H11 1 00999K11 1 00027L11 1 01000M11 1 26040N11 1 00000Q11 1 10152S11 1 00039V11 1 00000W11 1 12022
0082718640999991960031716004+50333-105550SAO  +0566CYMJ V0202931N010812200019N0400001N1+00081-00261101301ADDGA1011+015009059GA2061+075009009GF107991999999999999999999MA1999999094341MW1001
0035471220999991960030114004+37100-127033SAO  +0015RKSO V0209991C000012200019N0080001N9+00281+00281102301ADDGF100991999999999999999999MW1051
0238999999350461960120211005+52367+000483SAO  +0010EGUN V02024859005252200059N009600599+00785+00445999999ADDGD10995+9999999GD20995+9999999GD30995+9999999GD40995+9999999GF100995999999999999999999MW1055EQDN01 08100JPWTH 1QNNE11 1 00099E11 1 00099E11 1 00099E11 1 00099G11U1 99999K11 1 00040L11 1 00600N11 1 08100S11 1 00046V11 1 00099W11 1 76010
0238722785231111960021119003+33533-112383SAO  +0333LUF  V02099999000052200059N0480005N9+01395+00615999999ADDGD10995+9999999GD20995+9999999GD30995+9999999GD40995+9999999GF100995999999999999999999MW1001EQDN01 00000JPWTH 1QNNE11 1 00099E11 1 00099E11 1 00099E11 1 00099G11U1 99999K11 1 00043L11 1 03000N11 1 00000S11 1 00057V11 1 00099W11 1 00000
0056702120266331960112601004+61783-165867SAO  +0149PACZ V0201801N007710021019N0016001N9-00261-00311099601ADDGF108991999999999999999999MA1999999097801MW1451MW2851
038899999914836196007250300E+42783-084600SAO  +0260LAN  V02015859005252200059N024000599+02175+01335101905ADDAA101000095GA1999+999999004GA2999+999999999GA3999+999999999GA4999+999999999GD11025+9999993GD20005+9999999GD30005+9999999GD40005+9999999GF102015999999999999999999MA1999999098785EQDN01 00000JPWTH 1QNNE11 1 00102E11 1 00000E11 1 00000E11 1 00000G11U1 99999H11C1 32999H11 1 00999H11 1 00999H11 1 00999K11 1 00056L11 1 01500M11 1 29170N11 1 00000Q11 1 10190S11 1 00071V11 1 00201W11 1 54010
039499999924237196005110200E+47283-121333SAO  +1206SMP  V02024859003150243849N000400599+00785+00785102115ADDAA101000395GA1999+999999104GA2999+024384034GA3999+999999999GA4999+999999999GD16065+9999999GD24025+9999999GD30005+9999999GD40005+9999999GF108075999999999999999999MA1999999088225MW1455EQDN01 07000JPWTH 1QNNE11 1 00807E11 1 00603E11 1 00000E11 1 00000G11 1 00080H11 1 45999H11 1 23080H11 1 00999H11 1 00999K11 1 00046L11 1 00025M11 1 26050N11 1 07000Q11 1 10211S11 1 00046V11 1 01009W11 1 76006
0057544010999991960091615004+40833+115183FM-12+076099999V0200901N00411220001CN0250001N9+01891+00501101431ADDAY101031GF100991001001999999001001MD1210071+9999MW1021
0082476390999991960121106004+35350+138733FM-12+377499999V0203201N02931220001CN0700001N9-01111-02001999999ADDAY101999GF100991001001999999001001IA1209MD1310041+9999MW1021EQDQ01+215711APOSP 
0269999999230901960070216005+36750-108233SAO  +167799999V02013559001552200059N080000599+02565+00565101325ADDGD10995+9999999GD20995+9999999GD30995+9999999GD40995+9999999GF100005999999999999999999MA1999999083515EQDN01 00000JPWTH 1QNNE11 1 00099E11 1 00099E11 1 00099E11 1 00099G11U1 99999K11 1 00042L11 1 05000M11 1 24660N11 1 00000Q11 1 10132S11 1 00078V11 1 00000W11 1 44003
007774754013934196009270600D+31317-092550SAO  +0027KAEX V0200501N002610033019N0112001N9+02131+01911101461ADDAA101000095GA1081+003309079GF108991999999999999999999MA1999999101121MW1001
0057121050999991960110300004+54200+016183FM-12+003499999V0201801N00511220001CN0100001N9+00721+00391100911ADDAY111999GF101991001001999999001011MD1210181+9999MW1031
039472207003822196002141400C+32133-081200SAO  +0014SAV  V02027059010352200059N0240005N9+00175-00565101525ADDAA101000095GA1999+009144064GA2999+999999999GA3999+999999999GA4999+999999999GD10005+9999999GD20005+9999999GD30005+9999999GD40005+9999999GF100005999999999999999999MA1999999101325MW1001EQDN01 00000JPWTH 1QNNE11 1 00000E11 1 00000E11 1 00000E11 1 00000G11U1 99999H11 1 15030H11 1 00999H11 1 00999H11 1 00999K11 1 00022L11 1 01500M11 1 29920N11 1 00000Q11 1 10152S11 1 00035V11 1 00000W11 1 77020
028099999923063196011131900E+39650-106917SAO  +1980EGE  V02024859005252200059N040000599+01065-00785101965ADDAA101000095GD12995+9999999GD22995+9999999GD30995+9999999GD40995+9999999GF102025999999999999999999MA1999999079885EQDN01 00000JPWTH 1QNNE11 1 00299E11 1 00299E11 1 00099E11 1 00099G11U1 99999K11 1 00018L11 1 02500M11 1 23590N11 1 00000Q11 1 10196S11 1 00051V11 1 00303W11 1 76010
0053417800999991960122103004+24900+067133FM-12+0023OPKC V0203101N00101220001CN0040001N9+01111+00221101661ADDAA124000091GF103991001001999999001021KA1999N+01001
0043443540999991960121903004+44883+110167FM-12+091299999V0202701N00311220001CN0500001N9-01781-02891103831ADDAY111999GF101991001001999999001011MW1021
0146474210999991960060600004+42783+140233FM-12+001799999V0201401N004119999999N0300001N9+01721+01281100821ADDAJ100009199999999AY101999GA1999+011709039GA2021+002709019GF103991031011999999061021IA1089MA1999999100611MD1810021+9999MW1021EQDQ01+000992SCOLCB
0057620020999991960112703004+31867+010983FM-12+063699999V0203601N00101220001CN0160001N9+01001+00721095201ADDAY101999GF100991001001999999001001MD1810051+9999MW1021
039472698024229196011011300C+45600-122600SAO  +0006PDX  V02020359002652200059N0240005N9+00895+00835102075ADDAA101000095GA1021+012194064GA2021+016764064GA3999+999999999GA4999+999999999GD12025+9999999GD22025+9999999GD30005+9999999GD40005+9999999GF104045999999999999999999MA1999999101935MW1001EQDN01 00000JPWTH 1QNNE11 1 00202E11 1 00203E11 1 00000E11 1 00000G11U1 99999H11 1 15040H11 1 15055H11 1 00999H11 1 00999K11 1 00047L11 1 01500M11 1 30100N11 1 00000Q11 1 10207S11 1 00048V11 1 00505W11 1 56005
0057347590999991960040906004+46567+043667FM-12+010899999V0201101N01181220001CN0200001N9+00611-00501999999ADDAY121999GF108991001001999999021999MD1310021+9999MW1021
0066722615220011960122921004+29367-100783SAO  +032999999V0203401N006210075019N0480001N9+00961+00631102171ADDGA1081+007509059GF108991999999999999999999MA1999999098211MW1001
0377999999266161960041609005+66867-162633SAO  +0006OTZ  V02031559006752200059N024000599-01505-01785101665ADDGA1999+030484034GA2999+999999004GA3999+999999999GA4999+999999999GD12025+9999999GD21025+9999993GD30005+9999999GD40005+9999999GF103025999999999999999999MA1999999101595EQDN01 00000JPWTH 1QNNE11 1 00202E11 1 00102E11 1 00000E11 1 00000G11U1 99999H11 1 23100H11C1 32999H11 1 00999H11 1 00999K11 1 00000L11 1 01500M11 1 30000N11 1 00000Q11 1 10166S11 1 00005V11 1 00402W11 1 88013
0089474210999991960041615004+42783+140233FM-12+001799999V0201801N004119999999N0150001N9+00331+00171101041ADDAY101999GA1999+087009029GA2031+027009089GF108991021061004501021999MD1810041+9999MW1611
0057547650999991960072421004+37550+121367FM-12+001299999V0202701N00311036001CN0150001N9+02221+01891100751ADDAY121031GF107991031051017501041021MD1310051+9999MW1031
0035747810999991960052510004+30967-083200SAO  +0074VAD  V0209991C000012200019N0160001N9+02021+01961999999ADDGF100991999999999999999999MW1001
0068577660999991960012312004+27250+111383FM-12+024599999V0203601N00101004501CN0080001N9-00391-00501103941ADDAA106004091AY161999GF108991071071004501021999MD1110141+9999MW1791
0035745980137021960020404004+37083-076350SAO  +0003LFI  V0209991C000012200019N0160001N9+00061-00551999999ADDGF102991999999999999999999MW1001
0238727575949251960091605003+47933-097383SAO  +0276RDR  V02018059005252200059N0240005N9+01505+01285999999ADDGD10995+9999999GD20995+9999999GD30995+9999999GD40995+9999999GF100995999999999999999999MW1001EQDN01 00000JPWTH 1QNNE11 1 00099E11 1 00099E11 1 00099E11 1 00099G11U1 99999K11 1 00055L11 1 01500N11 1 00000S11 1 00059V11 1 00099W11 1 55010
0383702610264111960052107003+64817-147867SAO  +0134FAI  V02009059002652200059N1280005N1+01395-00065102355ADDGA1999+021344034GA2999+999999999GA3999+999999999GA4999+999999999GD10005+9999999GD20005+9999999GD30005+9999999GD40005+9999999GF100005999999999999999999MA1999999100645MW1001EQDN01 00000JPWTH 1QNNE11 1 00000E11 1 00000E11 1 00000E11 1 00000G11U1 99999H11 1 23070H11 1 00999H11 1 00999H11 1 00999K11 1 00031L11 1 08000M11 1 29720N11 1 00000Q11 1 10235S11 1 00057V11 1 00000W11 1 33005
0098726225047421960052309004+44650-073450SAO  +0075PBG  V0201401N006210240019N0320001N9+01001+00891101151ADDGA1021+012009059GA2051+024009039GA3011+220009009GF108991999999999999999999MA1999999100241MW1001
0114719130999991960090601004+58750-094067SAO  +0029CYYQ V0201351N004610090019N0240001N1+01461+01461098761ADDGA1021+001209079GA2021+005409059GA3021+009009099GA4011+024009039GF107991999999999999999999MA1999999098341MW1001
0377999999148561960042803005+42100-083167SAO  +018199999V02002359002652200059N024000599+00785+00175101905ADDGA1999+999999004GA2999+999999999GA3999+999999999GA4999+999999999GD14085+9999999GD20005+9999999GD30005+9999999GD40005+9999999GF108065999999999999999999MA1999999099735EQDN01 00000JPWTH 1QNNE11 1 00610E11 1 00000E11 1 00000E11 1 00000G11C1 99999H11C1 32999H11 1 00999H11 1 00999H11 1 00999K11 1 00035L11 1 01500M11 1 29450N11 1 00000Q11 1 10190S11 1 00046V11 1 01007W11 1 12005
039472270023044196007281600C+31800-106400SAO  +1201ELP  V02011359001552200059N0960005N9+02945+01005101315ADDAA101000095GA1999+054864034GA2999+999999999GA3999+999999999GD10005+9999999GD20005+9999999GD30005+9999999GD40005+9999999GF100005999999999999999999MA1999999088455MW1001EQDQ01    003SCCGA1N01 00000JPWTH 1QNNE11 1 00000E11 1 00000E11 1 00000E11 1 00000G11U1 99999H11 1 23180H11C1 32999H11 1 00999H11 1 00999K11 1 00050L11 1 06000M11 1 26120N11 1 00000Q11 1 10131S11 1 00085V11 1 00000W11 1 34003
0093475820999991960041505004+39717+140100FM-12+001099999V0202701N004619999999N0180001N9+00831+00171101481ADDAY101999GA1999+011709029GF107991041021012501031021MA1999999101351MW1021EQDQ01    003SCCGA1
0057320270999991960101606004+52217+141633FM-12+000799999V0202701N01591004501CN0200001N9+00111-00391100471ADDAY181999GF107991071091004501001001MD1210151+9999MW1831
0056844440999991960010212004-06200-077817FM-12+216699999V0203301N00101004501CN0300001N9+01281+01111999999ADDAY121999GF108991051051004501031999KA1999N+01111MW1021
0377999999129251960062820005+28367-097667SAO  +0060NIR  V02011359004152200059N016000599+03225+02115101585ADDGA1999+013724084GA2999+999999004GA3999+999999999GA4999+999999999GD12045+9999999GD23025+9999999GD30005+9999999GD40005+9999999GF106045999999999999999999MA1999999100955EQDN01 00000JPWTH 1QNNE11 1 00205E11 1 00402E11 1 00000E11 1 00000G11C1 99999H11 1 11045H11C1 32999H11 1 00999H11 1 00999K11 1 00070L11 1 01000M11 1 29810N11 1 00000Q11 1 10158S11 1 00090V11 1 00705W11 1 34008
0057568380999991960091003004+24083+098067FM-12+999999999V0202201N00101036001CN0450001N9+02391+02111100761ADDAY121999GF108991041011012501061021MD1110081+9999MW1021
0098749066999991960081221004+32267-064850SAO  +0013MYUN V0202031N005712200019N0160001N1+02851+02411101991ADDGA1021+004509089GA2021+030009039GA3031+220009009GF107991999999999999999999MA1999999101861MW1001
0126478980999991960052107004+32717+133017FM-12+003299999V0202701N00931002701CN0400001N9+02111+00891100911ADDAY101999GA1999+008709049GA2071+002709059GF107991999999999999001061MW1021EQDQ01+000002SCOTLCQ02+000002SCOLCGQ03+000992SCOLCB
0035722615220011960021923004+29367-100783SAO  +032999999V0201601N010310105019N0240001N9+01411+00351999999ADDGF107991999999999999999999MW1001
0066716000999991960022611004+43933-060017SAO  +0004CYSA V0200901N004610054019N0240001N1+00081-00201102831ADDGA1081+005409059GF108991999999999999999999MA1999999102841MW1001
0035722675230211960040322004+33600-102033SAO  +1016REE  V0203401N004612200019N0240001N9+01941-00831999999ADDGF102991999999999999999999MW1001
0232722269038501960042108003+31283-085717SAO  +0092OZR  V02011359002652200059N0160005N9+01945+01615999999ADDGD10995+9999999GD20995+9999999GD30995+9999999GD40995+9999999GF100995999999999999999999EQDN01 00000JPWTH 1QNNE11 1 00099E11 1 00099E11 1 00099E11 1 00099G11U1 99999K11 1 00061L11 1 01000N11 1 00000S11 1 00067V11 1 00099W11 1 34005
0035471220999991960122007004+37100-127033SAO  +0015RKSO V0209991C000010060019N0064001N9+00171-00111102441ADDGF107991999999999999999999MW1851
0296999999232391960012108005+37783-122317SAO  +000999999V02011359005750304849N016000599+01115+00565101465ADDGA1999+030484044GD14085+9999999GD20995+9999999GD30995+9999999GD40995+9999999GF108085999999999999999999MA1999999101355EQDN01 00000JPWTH 1QNNE11 1 00610E11 1 00099E11 1 00099E11 1 00099G11 1 00100H11 1 21100K11 1 00042L11 1 01000M11 1 29930N11 1 00000Q11 1 10146S11 1 00052V11 1 01010W11 1 34011
018299999913877196007122300E+36483-082400SAO  +047799999V02009059001552200059N009600599+02785+01675101355ADDAA101000095GF100005999999999999999999MA1999999096075MW1055EQDN01 08100JPWTH 1QNNG11U1 99999K11 1 00062L11 1 00600M11 1 28370N11 1 08100Q11 1 10135S11 1 00082V11 1 00000W11 1 33003
019872698024229196006270900C+45600-122600SAO  +0006PDX  V02031559003152200059N0240005N9+01395+00945101565ADDAA101000095GA1001+999999999GF100005999999999999999999MA1999999101425MW1001EQDN01 00000JPWTH 1QNNG11U1 99999K11 1 00049L11 1 01500M11 1 29950N11 1 00000Q11 1 10156S11 1 00057V11 1 00000W11 1 88006
0111335260999991960093018004+48900+024700FM-12+027699999V0202701N00511007801CN0040001N9+00611+00391999999ADDAA106035091AA299009091AY161999GF108991999071008001021999KA1999M+00721MD1210221+9999MW1101EQDQ01+000082SCOTLC
039472356013968196004091700C+36200-095900SAO  +0207TUL  V02006859005250457249N0240005N1+01445-00225102465ADDAA101000095GA1051+045724034GA2999+999999999GA3999+999999999GA4999+999999999GD13055+9999999GD20005+9999999GD30005+9999999GD40005+9999999GF105045999999999999999999MA1999999100005MW1001EQDN01 00000JPWTH 1QNNE11 1 00406E11 1 00000E11 1 00000E11 1 00000G11 1 00150H11 1 23150H11 1 00999H11 1 00999H11 1 00999K11 1 00028L11 1 01500M11 1 29530N11 1 00000Q11 1 10246S11 1 00058V11 1 00605W11 1 32010
0082718670999991960060405004+53967-101100SAO  +0271CYQD V0203151N006710090019N0240001N1+00461+00191100301ADDGA1021+004509089GA2061+009009059GF108991999999999999999999MA1999999097021MW1511
0000489170999991960042515004+10217+103967FM-12+000399999V02099999999999999999N9999999N9+03001+99999999999
030799999924028196005191500E+41867-103600SAO  +1206BFF  V02031559005250243849N040000599+00785+00175101355ADDAA101000095GA1999+024384034GD14085+9999999GD20995+9999999GD30995+9999999GD40995+9999999GF108085999999999999999999MA1999999087745EQDN01 00000JPWTH 1QNNE11 1 00610E11 1 00099E11 1 00099E11 1 00099G11 1 00080H11 1 23080K11 1 00035L11 1 02500M11 1 25910N11 1 00000Q11 1 10135S11 1 00046V11 1 01010W11 1 88010
0129718520999991960090112004+49900-097233FM-12+024099999V0200701N00461220001CN0240001N9+01441+00891101681ADDAJ199999999999999AL10600091AY111999GF103991031001999999031001KA1999M+02281KA2999N+01391MD1610101+9999MW1031EQDQ01  04472SNDP  
0057028360999991960081000004+67367+026650FM-12+018099999V0209991C00001021001CN0030001N9+00781+00781101411ADDAY121999GF106991061001022501051999MD1210051+9999MW1401
0057349760999991960080621004+45433+046550FM-12-001099999V0202001N00411012301CN0200001N9+02001+01721999999ADDAY121999GF107991071051012501001001MD1810011+9999MW1021
0076366650999991960013009004+47467+084917FM-12+060399999V0202901N00511220001CN0200001N9-01501-01611103421ADDAY111999GF107991999001999999031001MD1610131+9999MW1031EQDQ01+000002SCOTLC
0102637050999991960012223004+00050+032450FM-12+114699999V0203401N002619999999N0160001N9+01781+01721999999ADDGA1081+039009049GF108991999001999999071999MA1999999088731MD1999999+0211ME1315109EQDQ01+000002SCOTLC
0081526790999991960031321004+38083+102917FM-12+152599999V0209991C00001220001CN0220001N9-00501-01611102051ADDAY101999GF100991001001999999001001MA1999999094101MD1710161+9999ME1314409MW1021
0238780160136011960091814003+32367-064683SAO  +0006TXKF V02009059007252200059N0144005N9+02675+01725999999ADDGD11995+9999993GD20995+9999999GD30995+9999999GD40995+9999999GF103995999999999999999999MW1001EQDN01 00000JPWTH 1QNNE11 1 00199E11 1 00099E11 1 00099E11 1 00099G11U1 99999K11 1 00063L11 1 00900N11 1 00000S11 1 00080V11 1 00499W11 1 33014
0035106160999991960040802004+49950+007250SAO  +0506EDAH V0201401N002110270019N0128001N9+01001+00831999999ADDGF107991999999999999999999MW1001
038899999994847196012031300E+42233-083333SAO  +0193DTW  V02020359005252200059N024000599-00394-00725102794ADDAA101000095GA1999+999999004GA2999+999999999GA3999+999999999GA4999+999999999GD11015+9999993GD20005+9999999GD30005+9999999GD40005+9999999GF101005999999999999999999MA1999999100274EQDN01 00000JPWTH 1QNNE11 1 00101E11 1 00000E11 1 00000E11 1 00000G11U1 99999H11C1 32999H11 1 00999H11 1 00999H11 1 00999K11 1 00019L11 1 01500M11 1 29610N11 1 00000Q11 1 10279S11 1 00025V11 1 00100W11 1 56010
0082467690999991960040908004+24867+121233SAO  +0241RCDI V0202251N001510120019N0080001N1+02411+01851101131ADDGA1011+006909049GA2051+012009009GF107991999999999999999999MA1999999098341MW1051
0037476750999991960110514004+34767+139383FM-12+019399999V0200701N00261220001CN0300001N9+01281+00941101441ADDAY101999GF100991001001999999001001
0057344760999991960042315004+49133+046850FM-12+001199999V0202201N00311220001CN0500001N9+01611+00281100801ADDAY101999GF102991021051001501001001MD1310041+9999MW1021
0102637140999991960070403004-00267+036067FM-12+187299999V0209991C000019999999N0300001N9+01281+01171999999ADDGA1071+027009039GF107991999001999999071001MA1999999081201MD1999999-0971ME1314999EQDQ01+000002SCOTLC
034072520094823196005240400C+40500-080217SAO  +0373PIT  V02020359002150146349N0112005N1+01285+01115101005ADDAA101000095GA1051+014634064GA2031+025914034GD13055+9999999GD24035+9999999GD30995+9999999GD40995+9999999GF108085999999999999999999MA1999999096615MW1001EQDN01 00000JPWTH 1QNNE11 1 00406E11 1 00604E11 1 00099E11 1 00099G11 1 00048H11 1 15048H11 1 23085K11 1 00052L11 1 00700M11 1 28530N11 1 00000Q11 1 10100S11 1 00055V11 1 01010W11 1 56004
0098719450999991960072211004+58833-122583SAO  +0375CYYE V0209991C000010300019N0800001N1+01191+01021101331ADDGA1011+015009059GA2031+024009039GA3021+030009039GF107991999999999999999999MA1999999096881MW1001
0057623060999991960121421004+31333+027217FM-12+003099999V0201701N00361220001CN0100001N9+01111+00891102131ADDAY101999GF100991001001999999001001MD1210081+9999MW1021
034072698024229196003162100C+45600-122600SAO  +0006PDX  V02009059005250067149N0160005N9+00725+00565103525ADDAA101000095GA1021+004274084GA2061+006714064GD12025+9999999GD24065+9999999GD30995+9999999GD40995+9999999GF108085999999999999999999MA1999999103395MW1615EQDN01 02000JPWTH 1QNNE11 1 00202E11 1 00608E11 1 00099E11 1 00099G11 1 00022H11 1 11014H11 1 15022K11 1 00042L11 1 01000M11 1 30530N11 1 02000Q11 1 10352S11 1 00045V11 1 01010W11 1 33010
0057227210999991960091703004+62900+034400FM-12+008099999V0202901N00101004501CN0200001N9+00501+00391102801ADDAY121999GF108991081051004501999999MD1810061+9999MW1021
0287723527139751960072201003+36300-099767SAO  +0669GAG  V02018059006750091449N0096005N1+01785+01615101425ADDGD13995+9999999GD24995+9999999GD30995+9999999GD40995+9999999GF108075999999999999999999MA1999999093805MW1171MW2805MW3955EQDN01 01023JPWTH 1QNNE11 1 00499E11 1 00699E11 1 00099E11 1 00099G11 1 00030K11 1 00061L11 1 00600M11 1 27700N11 1 01023Q11 1 10142S11 1 00064V11 1 01009W11 1 55013
0059639800999991960090114004-04617+055450FM-12+000199999V0201401N008719999999N0350001N9+02671+02281101181ADDGA1011+007509089GF107991999999999999999999MD1999999+0061
0377999999931111960061102005+34117-119117SAO  +000499999V02027059005252200059N016000599+01724+01335101214ADDGA1999+004574064GA2999+999999999GA3999+999999999GA4999+999999999GD10005+9999999GD20005+9999999GD30005+9999999GD40005+9999999GF100005999999999999999999MA1999999101194EQDN01 00000JPWTH 1QNNE11 1 00000E11 1 00000E11 1 00000E11 1 00000G11U1 99999H11 1 15015H11 1 00999H11 1 00999H11 1 00999K11 1 00056L11 1 01000M11 1 29880N11 1 00000Q11 1 10121S11 1 00063V11 1 00000W11 1 77010
0035107270999991960090913004+49017+008367SAO  +0114EDIL V0200901N003112200019N0064001N1+02071+00741999999ADDGF108991999999999999999999MW1051
0043013840999991960070623004+60200+011083FM-12+020299999V0200901N001019999999N0400001N9+99999+99999999999ADDAY161999GF107991999999999999999999MW1601
0082716275999991960060917004+45517-073417SAO  +0031CYHU V0200231N002112200019N0880001N1+01911+00691102631ADDGA1031+013509089GA2011+024009039GF102991999999999999999999MA1999999102241MW1001
0100368700999991960030318004+43233+076933FM-12+084799999V0201801N00311220001CN0040001N9+00001-00221101371ADDAA199999999AY141999GF108991001001999999071999KA1999M+00611MD1210251+9999MW1241EQDQ01  00002PRCP99
0067916800999991960040920004-17750+177450SAO  +0018NFFN V0209991C000010900019N0560001N1+02521+02411101171ADDGA1011+007509029GA2071+090009999GF107991999999999999999999MW1001
0075478300999991960120222004+31917+131417FM-12+000899999V0203201N00311012301CN0350001N9+00441+00221102031ADDAY101999GA1999+057009049GA2031+999999999GF105991051051012501001001MW1031
0060911820225211960041108004+21333-157917SAO  +0003PHNL V0200901N003612200019N0240001N9+02241+01571102041ADDGA1011+008409089GF102991999999999999999999MA1999999102001
017699999913865196010221800E+32333-088750SAO  +0088MEI  V02004559002152200059N024000599+01835+00445102175ADDAA101000095GF100005999999999999999999MA1999999101055EQDN01 00000JPWTH 1QNNG11U1 99999K11 1 00040L11 1 01500M11 1 29840N11 1 00000Q11 1 10217S11 1 00065V11 1 00000W11 1 22004
0073402650999991960052509004+32333+036233FM-12+068799999V0202101N00821030001CN0050001N9+03221+00501103561ADDAY131999GA1071+030009039GF107991071001999999081001MD1210181+9999MW1601
0066107140999991960081101004+49217-007400SAO  +0345EDAM V0202001N002612200019N0160001N9+01391+01171101261ADDGA1001+999999999GF100991999999999999999999MA1999999097321MW1001
038899999913894196006021800E+30683-088250SAO  +0064MOB  V02020359008852200059N024000599+02945+01895101085ADDAA101000095GA1999+012194084GA2999+045724034GA3999+999999999GA4999+999999999GD12025+9999999GD22015+9999999GD30005+9999999GD40005+9999999GF102025999999999999999999MA1999999100305EQDN01 00000JPWTH 1QNNE11 1 00202E11 1 00201E11 1 00000E11 1 00000G11U1 99999H11 1 11040H11 1 23150H11 1 00999H11 1 00999K11 1 00066L11 1 01500M11 1 29620N11 1 00000Q11 1 10108S11 1 00085V11 1 00303W11 1 56017
038899999924029196002150300E+44767-106967SAO  +1202SHR  V02020359003652200059N048000599-00785-01225102235ADDAA101000095GA1999+036584034GA2999+999999004GA3999+999999999GA4999+999999999GD13005+9999993GD20065+9999999GD30005+9999999GD40005+9999999GF106025999999999999999999MA1999999087915EQDN01 00000JPWTH 1QNNE11 1 00300E11 1 00007E11 1 00000E11 1 00000G11U1 99999H11 1 23120H11C1 32999H11 1 00999H11 1 00999K11 1 00010L11 1 03000M11 1 25960N11 1 00000Q11 1 10223S11 1 00018V11 1 00702W11 1 56007
017699999913865196011300500E+32333-088750SAO  +0088MEI  V02036059003152200059N019200599+00225-00065102685ADDAA101000095GF100005999999999999999999MA1999999101565EQDN01 00000JPWTH 1QNNG11U1 99999K11 1 00031L11 1 01200M11 1 29990N11 1 00000Q11 1 10268S11 1 00036V11 1 00000W11 1 11006
0377999999231841960081318005+34650-112433SAO  +153099999V02099999000052200059N104000599+03335+00895100955ADDGA1999+022864084GA2999+999999999GA3999+999999999GA4999+999999999GD10005+9999999GD20005+9999999GD30005+9999999GD40005+9999999GF100005999999999999999999MA1999999084765EQDN01 00000JPWTH 1QNNE11 1 00000E11 1 00000E11 1 00000E11 1 00000G11U1 99999H11 1 11075H11 1 00999H11 1 00999H11 1 00999K11 1 00048L11 1 06500M11 1 25030N11 1 00000Q11 1 10095S11 1 00092V11 1 00000W11 1 00000
007494494099999196012160500N-26620+144270AUST +0198     V0201585N007259999999N999999999+02895-00405999999ADDAY124999GA1005+999999999GF100995004999999999999999MA1999999098585MW1025
0100283820999991960070918004+57717+071183FM-12+005099999V0202201N00211030001CN0200001N9+01611+01221100691ADDAA199999999AY121999GF106991041091008001061001KA1999M+02221MD1510051+9999MW1251EQDQ01  00002PRCP99
038899999993805196005181700E+30433-084333SAO  +002199999V02036059002652200059N024000599+02894+01615101494ADDAA101000095GA1999+999999004GA2999+999999999GA3999+999999999GA4999+999999999GD12025+9999999GD20005+9999999GD30005+9999999GD40005+9999999GF102025999999999999999999MA1999999101254EQDN01 00000JPWTH 1QNNE11 1 00203E11 1 00000E11 1 00000E11 1 00000G11U1 99999H11C1 32999H11 1 00999H11 1 00999H11 1 00999K11 1 00061L11 1 01500M11 1 29900N11 1 00000Q11 1 10149S11 1 00084V11 1 00302W11 1 11005
006694510099999196004201700N-26420+146270AUST +0304YBCV V0202705N003159999999N999999999+01835+01705999999ADDGA1075+018005095GF107995074095018005999999MA1999999097595MW1175
0249999999432631960012222005+33200+126267SAO  +0013RKPM V02036059011850091449N009600599+00005-00335103105ADDGD14995+9999999GD20995+9999999GD30995+9999999GD40995+9999999GF108995999999999999999999MW1875EQDN01 04300JPWTH 1QNNE11 1 00699E11 1 00099E11 1 00099E11 1 00099G11 1 00030K11 1 00026L11 1 00600N11 1 04300Q11 1 10310S11 1 00032V11 1 01099W11 1 11023
007494665099999196007292330N-34380+137680AUST +0186     V0203605N002659999999N999999999+00905+00805999999ADDAY124999GA1085+015005085GF108995084085015005999999MA1999999098855MW1025
0269999999254031960061807005+59450-146317SAO  +0037MDO  V02020359002650213449N024000599+00895+00835101395ADDGD12995+9999999GD23995+9999999GD34995+9999999GD40995+9999999GF108995999999999999999999MA1999999101055EQDN01 00000JPWTH 1QNNE11 1 00299E11 1 00499E11 1 00699E11 1 00099G11 1 00070K11 1 00047L11 1 01500M11 1 29840N11 1 00000Q11 1 10139S11 1 00048V11 1 01099W11 1 56005
0232999999139281960102119005+31633-097067SAO  +014599999V02015859004652200059N024000599+02005+00725999999ADDGD12995+9999999GD20995+9999999GD30995+9999999GD40995+9999999GF102995999999999999999999EQDN01 00000JPWTH 1QNNE11 1 00299E11 1 00099E11 1 00099E11 1 00099G11U1 99999K11 1 00045L11 1 01500N11 1 00000S11 1 00068V11 1 00399W11 1 54009
0057572370999991960062103004+32083+108083FM-12+076599999V0209991C00001220001CN0200001N9+02721+01891100331ADDAY121999GF107991001001999999041999MD1710061+9999MW1011
0082984290999991960021220004+14517+121000SAO  +0015RPMM V0203381N001510270019N0160001N1+02241+02021101341ADDGA1031+007509089GA2081+027009039GF108991999999999999999999MA1999999101151MW1001
0050747940128681960063004004+28483-080550SAO  +0003XMR  V0201801N002112200019N0160001N9+02551+02331999999ADDGF102991999999999999999999MA1999999101831MW1001
0122478270999991960081906004+31567+130550FM-12+000599999V0200701N01231002701CN0250001N9+02941+02281100211ADDAA106000691AJ100009199999999AY101999GA1061+002709039GF106991041021008001001011IA1009MA1999999100141MD1810121+9999MW1251
0082983270999991960032700004+15183+120550SAO  +0146RPMK V0209991C000012200019N0193121N9+02721+02221101171ADDGA1021+007509089GA2061+220009029GF107991999999999999999999MA1999999099491MW1001
