038899999913995196109020200E+37233-093383SAO  +0386SGF  V02018059008252200059N024000599+02675+02005100785ADDAA101000095GA1999+030484034GA2999+999999004GA3999+999999999GA4999+999999999GD12025+9999999GD23025+9999993GD30005+9999999GD40005+9999999GF105025999999999999999999MA1999999096345EQDN01 00000JPWTH 1QNNE11 1 00203E11 1 00303E11 1 00000E11 1 00000G11U1 99999H11 1 23100H11C1 32999H11 1 00999H11 1 00999K11 1 00068L11 1 01500M11 1 28450N11 1 00000Q11 1 10078S11 1 00080V11 1 00603W11 1 55016
0098467700999991961090705004+24267+120617SAO  +0005RCMQ V0203151N005110300019N0160001N1+03071+02461100521ADDGA1021+007509049GA2031+015009009GA3061+030009079GF107991999999999999999999MA1999999098171MW1001
0076323890999991961012609004+56317+160833FM-12+002599999V0200901N00511004501CN0040001N9-00781-00781100691ADDAY171999GF108991999071004501021999MD1210101+9999MW1731EQDQ01+000082SCOTLC
0121718130999991961031812004+50200-061817FM-12+000599999V0203201N00151220001CN0300001N9-01941-02331101951ADDAA124006091AJ101739199999999AL10600091AY121999GF100991001001999999001001KA1999M-00721KA2999N-02111MD1210421+9999MW1011
0238999999340611961041022005+49017+001233SAO  +0141LFOE V02029359001050027449N008000599+01005+00895999999ADDGD12995+9999999GD23995+9999999GD34995+9999999GD40995+9999999GF108995999999999999999999MW1455EQDN01 07000JPWTH 1QNNE11 1 00299E11 1 00499E11 1 00699E11 1 00099G11 1 00009K11 1 00048L11 1 00500N11 1 07000S11 1 00050V11 1 01099W11 1 78002
0057353580999991961020312004+49633+063500FM-12+012399999V0203201N00311090001CN0200001N9-01391-01721103321ADDAY121999GF107991041001999999041021MD1710021+9999MW1021
0062324110999991961040721004+55700+155633FM-12+000499999V0203401N008719999999N0020001N9-00391-00891100661ADDAY171999GF108991999071999999021999MW1731EQDQ01+000082SCOTLC
0043664100999991961052609004-14650+017683FM-12+134499999V0209991C00001220001CN0400001N9+02281+01281999999ADDAY141999GF100991001001999999001001MW1011
0035722615220011961050414004+29367-100783SAO  +032999999V0201401N006710090019N0240001N9+02351+02021999999ADDGF108991999999999999999999MW1001
0218719590263941961033107005+69450-133000SAO  +0006CYUB V02009059009352200059N024000599-02505-02725102015ADDGA1999+024384034GD19015+9999999GF101015999999999999999999MA1999999101765EQDN01 00000JPWTH 1QNNE11 1 09901G11U1 99999H11 1 23080K11 1-00017L11 1 01500M11 1 30050N11 1 00000Q11 1 10201S11 1-00013V11 1 00101W11 1 33018
009372518014735196107181500D+42750-073800SAO  +0084ALB  V0202701N002112200019N0112001N1+02411+01801101421ADDAA101000095GA1011+007509089GA2031+220009009GF102991999999999999999999MA1999999100371MW1001
0323999999137691961120914005+36817-076033SAO  +000899999V02033859003150243849N012800599+00175-00505103325ADDGA1999+024384034GA2999+036584034GD13065+9999999GD24025+9999999GD30995+9999999GD40995+9999999GF108085999999999999999999MA1999999103225EQDN01 00000JPWTH 1QNNE11 1 00407E11 1 00603E11 1 00099E11 1 00099G11 1 00080H11 1 23080H11 1 23120K11 1 00023L11 1 00800M11 1 30480N11 1 00000Q11 1 10332S11 1 00035V11 1 01010W11 1 18006
0011478180999991961081115004+32733+130250FM-12+085299999V0201401N017019999999N9999999N9+02061+99999999999ADDAY101999
0111206650999991961031218004+73533+075717FM-12+999999999V0201401N00721220001CN0200001N9-02281-02611101611ADDAA106999999AA299000391AY111999GF100991001001999999001001KA1999M-02221MD1710081+9999MW1761EQDQ01  00002PRCP06
0269999999266271961031912005+63883-160800SAO  +0006UNK  V02099999000052200059N016000599-02065-02285100315ADDGD10995+9999999GD20995+9999999GD30995+9999999GD40995+9999999GF100005999999999999999999MA1999999100245EQDN01 00000JPWTH 1QNNE11 1 00099E11 1 00099E11 1 00099E11 1 00099G11U1 99999K11 1-00009L11 1 01000M11 1 29600N11 1 00000Q11 1 10031S11 1-00005V11 1 00000W11 1 00000
038899999914732196101040500E+40767-073900SAO  +0003LGA  V02027059003152200059N014400599-00065-00785101635ADDAA101000095GA1999+030484034GA2999+999999999GA3999+999999999GA4999+999999999GD12025+9999999GD20005+9999999GD30005+9999999GD40005+9999999GF102025999999999999999999MA1999999101425EQDN01 00000JPWTH 1QNNE11 1 00202E11 1 00000E11 1 00000E11 1 00000G11U1 99999H11 1 23100H11 1 00999H11 1 00999H11 1 00999K11 1 00018L11 1 00900M11 1 29950N11 1 00000Q11 1 10163S11 1 00031V11 1 00202W11 1 77006
0057296050999991961041600004+55200+075967FM-12+011299999V0202301N00211220001CN0200001N9+00111-00111101071ADDAY101999GF103991001001999999001011MD1210141+9999MW1031
030799999993821196112161000E+38183-085733SAO  +0144SDF  V02004559004150097549N016000599+00064-00615102644ADDAA101000095GA1999+009754064GD14085+9999999GD20995+9999999GD30995+9999999GD40995+9999999GF108085999999999999999999MA1999999100814EQDN01 00000JPWTH 1QNNE11 1 00610E11 1 00099E11 1 00099E11 1 00099G11 1 00032H11 1 15032K11 1 00021L11 1 01000M11 1 29770N11 1 00000Q11 1 10264S11 1 00033V11 1 01010W11 1 22008
0076237740999991961052000004+62533+086167FM-12+999999999V0203401N00311004501CN0040001N9+00391+00391099911ADDAY161999GF108991999071004501021999MD1710031+9999MW1611EQDQ01+000082SCOTLC
009372469023062196104221500A+39750-104867SAO  +1625DEN  V0201801N008212200019N0960001N1+01241+00351101061ADDAA101000095GA1021+036009039GA2051+220009009GF107991999999999999999999MA1999999083031MW1001
0081357490999991961040218004+46717+062500FM-12+008099999V0202701N00211220001CN0200001N9+00781+00501101241ADDAA199000091AY111999GF101991001001999999001011KA1999M+01891MD1110151+9999MW1011
0035747770038521961081723004+30417-086683SAO  +0014HRT  V0201601N004112200019N0112001N9+02961+02071999999ADDGF102991999999999999999999MW1001
0238722210138581961012116003+30483-086517SAO  +0020VPS  V02029359006252200059N0160005N9+00285-01005999999ADDGD12995+9999999GD20995+9999999GD30995+9999999GD40995+9999999GF101995999999999999999999MW1001EQDN01 00000JPWTH 1QNNE11 1 00299E11 1 00099E11 1 00099E11 1 00099G11U1 99999K11 1 00014L11 1 01000N11 1 00000S11 1 00037V11 1 00199W11 1 78012
0000970280999991961020100004+01017+120800FM-12+000299999V02099999999999999999N9999999N9+99999+99999999999
0066722686230081961012400004+34383-103317SAO  +1309CVS  V0202001N003112200019N0240001N9+01351-01091101491ADDGA1081+081009029GF108991999999999999999999MA1999999086831MW1001
038899999914826196110022100E+42967-083733SAO  +023599999V02031559003650091449N024000599+01005+00225102535ADDAA101000095GA1999+009144064GA2999+999999024GA3999+999999999GA4999+999999999GD13065+9999999GD24025+9999999GD30005+9999999GD40005+9999999GF108065999999999999999999MA1999999099665EQDN01 00000JPWTH 1QNNE11 1 00408E11 1 00602E11 1 00000E11 1 00000G11 1 00030H11 1 15030H11C1 37999H11 1 00999H11 1 00999K11 1 00036L11 1 01500M11 1 29430N11 1 00000Q11 1 10253S11 1 00050V11 1 01008W11 1 88007
0054486940999991961090600004+01350+103900FM-12+001099999V0202801N00151004501CN0060001N9+02281+02281101271ADDAA124030091AY191999GF108991051091004501999999MW1951
0074478980999991961030113004+32717+133017FM-12+003299999V0201601N00211007801CN0350001N9+01391+00441102971ADDAY101999GA1061+999999999GF107991071011008001001001MA1999999102571MW1031
0238690190139101961032607003+32433-099850SAO  +0548DYS  V02018059009352200059N0240005N9+01785+01505999999ADDGD12995+9999999GD23995+9999999GD30995+9999999GD40995+9999999GF106995999999999999999999MW1001EQDN01 00000JPWTH 1QNNE11 1 00299E11 1 00499E11 1 00099E11 1 00099G11C1 99999K11 1 00059L11 1 01500N11 1 00000S11 1 00064V11 1 00899W11 1 55018
0057247130999991961020615004+62883+108733FM-12+999999999V0203601N00411220001CN0040001N9-01611-01891101031ADDAY171999GF108991001001999999001071MD1210401+9999MW1711
038899999913873196101270900E+33950-083317SAO  +0244AHN  V02027059006252200059N024000599-00225-00335101765ADDAA101000095GA1999+003054074GA2999+999999999GA3999+999999999GA4999+999999999GD12025+9999999GD20005+9999999GD30005+9999999GD40005+9999999GF102025999999999999999999MA1999999098755EQDN01 00000JPWTH 1QNNE11 1 00203E11 1 00000E11 1 00000E11 1 00000G11U1 99999H11 1 16010H11 1 00999H11 1 00999H11 1 00999K11 1 00026L11 1 01500M11 1 29160N11 1 00000Q11 1 10176S11 1 00028V11 1 00303W11 1 77012
039472525014852196107260300C+41250-080667SAO  +0359YNG  V02029359002152200059N0240005N9+01835+01505101695ADDAA101000095GA1011+030484034GA2999+999999999GA3999+999999999GA4999+999999999GD12015+9999999GD20005+9999999GD30005+9999999GD40005+9999999GF101015999999999999999999MA1999999097495MW1001EQDN01 00000JPWTH 1QNNE11 1 00201E11 1 00000E11 1 00000E11 1 00000G11U1 99999H11 1 23100H11 1 00999H11 1 00999H11 1 00999K11 1 00059L11 1 01500M11 1 28790N11 1 00000Q11 1 10169S11 1 00065V11 1 00101W11 1 78004
034699999923174196110051300E+33933-118383SAO  +003799999V02006859002650009149N001800599+01565+01445101375ADDAA101000095GA1999+999999104GA2999+000914074GD16025+9999999GD24085+9999999GD30995+9999999GD40995+9999999GF108085999999999999999999MA1999999101025MW1045MW2455EQDN01 07080JPWTH 1QNNE11 1 00802E11 1 00610E11 1 00099E11 1 00099G11 1 00003H11 1 45999H11 1 16003K11 1 00058L11 1 00112M11 1 29830N11 1 07080Q11 1 10137S11 1 00060V11 1 01010W11 1 32005
0035724835232061961121810004+38550-121300SAO  +0028MHR  V0201401N002112200019N0112001N9+00521+00411999999ADDGF102991999999999999999999MW1001
0187783670117061961022708003+19900-075150SAO  +0016MUGM V02031559001052200059N0192005N9+02225+02005101645ADDGA1001+999999999GF100005999999999999999999MA1999999101465MW1001EQDN01 00000JPWTH 1QNNG11U1 99999K11 1 00068L11 1 01200M11 1 29960N11 1 00000Q11 1 10164S11 1 00072V11 1 00000W11 1 88002
0073601500999991961052900004+33883-005533FM-12+054999999V0202001N00211220001CN0200001N9+01221+00891101501ADDAY111999GA1011+004809089GF101991011081004501061001MD1810021+9999MW1021
0083637400999991961061317004-01317+036917FM-12+162499999V0200901N00511220001CN0600001N9+01941+01221999999ADDGA1031+012009059GF104991031051012501061051MA1999999083921MD1999999-0951ME1315109
0057257440999991961033118004+62483+166217FM-12+999999999V0209991C00001220001CN0500001N9-03611-03891101301ADDAY101999GF100991001001999999001001MD1710021+9999MW1021
0057299990999991961012115004+52500+099650FM-12+140799999V0201801N00101220001CN0200001N9-02111-02391104481ADDAY101999GF102991011001999999041011MD1210181+9999MW1021
0057356330999991961050121004+47850+059617FM-12+017699999V0200201N00211024001CN0200001N9+00391-00221102331ADDAY121999GF107991051001999999011071MD1210121+9999MW1031
0187722535129091961040406003+29383-098567SAO  +0208SKF  V02004559002652200059N0160005N9+01505+00285101725ADDGA1001+999999999GF100005999999999999999999MA1999999099265MW1001EQDN01 00000JPWTH 1QNNG11U1 99999K11 1 00037L11 1 01000M11 1 29310N11 1 00000Q11 1 10172S11 1 00059V11 1 00000W11 1 22005
0011478180999991961091409004+32733+130250FM-12+085299999V0200901N008719999999N9999999N9+02391+99999999999ADDAY101999
0296999999266161961112609005+66867-162633SAO  +0006OTZ  V02011359010350152449N016000599-02335-02615102305ADDGA1999+015244064GD14085+9999999GD20995+9999999GD30995+9999999GD40995+9999999GF108085999999999999999999MA1999999102245EQDN01 00000JPWTH 1QNNE11 1 00610E11 1 00099E11 1 00099E11 1 00099G11 1 00050H11 1 15050K11 1-00015L11 1 01000M11 1 30190N11 1 00000Q11 1 10230S11 1-00010V11 1 01010W11 1 34020
028099999924057196112151800E+41800-107200SAO  +2056RWL  V02022559005752200059N064000599-00175-00835102055ADDAA101000095GD12995+9999999GD23995+9999993GD30995+9999999GD40995+9999999GF106025999999999999999999MA1999999079045EQDN01 00000JPWTH 1QNNE11 1 00299E11 1 00399E11 1 00099E11 1 00099G11U1 99999K11 1 00017L11 1 04000M11 1 23340N11 1 00000Q11 1 10205S11 1 00029V11 1 00803W11 1 66011
0098602051999991961111315004+32117-007883SAO  +0448GBGY V0202701N006210270019N0320001N9+01801+00301101111ADDGA1031+008109089GA2061+027009039GA3021+220009009GF107991999999999999999999MA1999999095971MW1001
0057342020999991961081100004+50800+035783FM-12+022299999V0203401N00101220001CN0100001N9+01611+01001102331ADDAY101999GF100991001001999999001001MD1210061+9999MW1021
038899999923065196108101100E+39367-101700SAO  +1111GLD  V02099999000052200059N024000599+01675+00895101505ADDAA101000095GA1999+999999024GA2999+999999999GA3999+999999999GA4999+999999999GD11025+9999993GD20005+9999999GD30005+9999999GD40005+9999999GF102015999999999999999999MA1999999089135EQDN01 00000JPWTH 1QNNE11 1 00103E11 1 00000E11 1 00000E11 1 00000G11U1 99999H11C1 37999H11 1 00999H11 1 00999H11 1 00999K11 1 00048L11 1 01500M11 1 26320N11 1 00000Q11 1 10150S11 1 00062V11 1 00301W11 1 00000
0269999999148971961101202005+44917-089617SAO  +0367AUW  V02024859005250076249N024000599+01505+01005101405ADDGD14995+9999999GD20995+9999999GD30995+9999999GD40995+9999999GF108085999999999999999999MA1999999097095EQDN01 00000JPWTH 1QNNE11 1 00699E11 1 00099E11 1 00099E11 1 00099G11 1 00025K11 1 00050L11 1 01500M11 1 28670N11 1 00000Q11 1 10140S11 1 00059V11 1 01010W11 1 76010
0057134620999991961071415004+42367+019250FM-12+003199999V0201801N00311220001CN0300001N9+03111+01391101081ADDAY101999GF102991021081017501001001MD1410001+9999MW1021
0011474040999991961101709004+44367+141700FM-12+000999999V0201101N002119999999N9999999N9+01001+99999999999ADDAY101999
0130476900999991961091206004+36733+139500FM-12+129499999V0200901N001019999999N0008001N9+01671+01561999999ADDAJ100009199999999AY101999GA1999+999999099GF108991999999999999999999IA1089MA1999999087881MD1710061+9999MW1441EQDQ01+000452PRSWM1
0009724467139301961101310004+38733-093567SAO  +0265SZL  V0202501N005710036019N0160001N9+01671+01671999999ADDMW1001
038899999913897196108200300E+36117-086683SAO  +0177BNA  V02036059002652200059N011200599+02505+01835101865ADDAA101000095GA1999+999999024GA2999+999999999GA3999+999999999GA4999+999999999GD13065+9999999GD20005+9999999GD30005+9999999GD40005+9999999GF106045999999999999999999MA1999999099705EQDN01 00000JPWTH 1QNNE11 1 00407E11 1 00000E11 1 00000E11 1 00000G11C1 99999H11C1 37999H11 1 00999H11 1 00999H11 1 00999K11 1 00065L11 1 00700M11 1 29440N11 1 00000Q11 1 10186S11 1 00077V11 1 00705W11 1 11005
038899999924029196106200000E+44767-106967SAO  +1202SHR  V02099999000052200059N048000599+02675+01065101625ADDAA101000095GA1999+012194084GA2999+999999004GA3999+999999999GA4999+999999999GD12015+9999999GD21025+9999993GD30005+9999999GD40005+9999999GF102015999999999999999999MA1999999088155EQDN01 00000JPWTH 1QNNE11 1 00201E11 1 00102E11 1 00000E11 1 00000G11U1 99999H11 1 11040H11C1 32999H11 1 00999H11 1 00999K11 1 00051L11 1 03000M11 1 26030N11 1 00000Q11 1 10162S11 1 00080V11 1 00301W11 1 00000
0123330880999991961021906004+51350+026617FM-12+015399999V0202701N00101220001CN0020001N9+00111+00111102711ADDAA199000091AJ100009199999999AY101999GF100991001001999999001001HL10009IA1159IA2999-00119KA1999N+00001MD1610031+9999MW1101
0059960010999991961082000004+05867+095317FM-12+012699999V0209991C00001075001CN0250001N9+02611+02111100841ADDAY121999GA1061+075009029GF107991001001999999001071MW1021
0057295570999991961090700004+55750+088150FM-12+018999999V0200901N00101220001CN0200001N9+00611+00611101101ADDAY111999GF106991021001999999041011MD1710071+9999MW1021
0035691464999991961111810004+37000+035433SAO  +0073KQDG V0200501N004112200019N0176001N9+02461+00851999999ADDGF108991999999999999999999MW1001
0269999999240271961080310005+41600-109067SAO  +205699999V02099999000052200059N024000599+01395+00895102135ADDGD10995+9999999GD20995+9999999GD30995+9999999GD40995+9999999GF100005999999999999999999MA1999999080335EQDN01 00000JPWTH 1QNNE11 1 00099E11 1 00099E11 1 00099E11 1 00099G11U1 99999K11 1 00048L11 1 01500M11 1 23720N11 1 00000Q11 1 10213S11 1 00057V11 1 00000W11 1 00000
0377999999931011961111303005+33683-117717SAO  +011699999V02004559008852200059N024000599+02114-01005101424ADDGA1999+999999004GA2999+999999999GA3999+999999999GA4999+999999999GD10005+9999999GD20005+9999999GD30005+9999999GD40005+9999999GF100005999999999999999999MA1999999100074EQDN01 00000JPWTH 1QNNE11 1 00000E11 1 00000E11 1 00000E11 1 00000G11U1 99999H11C1 32999H11 1 00999H11 1 00999H11 1 00999K11 1 00014L11 1 01500M11 1 29550N11 1 00000Q11 1 10142S11 1 00070V11 1 00000W11 1 22017
0383722505129041961120500003+26233-097667SAO  +0011HRL  V02015859006752200059N0240005N1+02445+01835101425ADDGA1011+007624154GA2021+220009004GA3999+999999999GA4999+999999999GD12015+9999999GD22025+9999999GD30005+9999999GD40005+9999999GF102025999999999999999999MA1999999101255MW1001EQDN01 00000JPWTH 1QNNE11 1 00201E11 1 00202E11 1 00000E11 1 00000G11U1 99999H11 1 17025H11C1 32999H11 1 00999H11 1 00999K11 1 00065L11 1 01500M11 1 29900N11 1 00000Q11 1 10142S11 1 00076V11 1 00303W11 1 54013
0035723550139451961010202004+34650-098400SAO  +0362FSI  V0200201N002612200019N0240001N9+00331-00111999999ADDGF100991999999999999999999MW1001
0041727855241141961020514004+47617-117650SAO  +0750SKA  V0200901N001510072019N0064001N9+00281+00221999999ADDGF108991999999999999999999MW1111MW2611
007772518014735196110020000D+42750-073800SAO  +0084ALB  V0201581N004112200019N0240001N1+01801+01241102471ADDAA101000095GA1021+220009009GF102991999999999999999999MA1999999101391MW1001
0383703260255031961091303003+58683-156650SAO  +0013AKN  V02018059005250152449N0640005N9+01005+00445100315ADDGA1021+006104064GA2041+015244084GA3021+220009004GA4999+999999999GD12025+9999999GD23045+9999999GD34025+9999999GD40005+9999999GF108075999999999999999999MA1999999100105MW1001EQDN01 00000JPWTH 1QNNE11 1 00202E11 1 00405E11 1 00603E11 1 00000G11 1 00050H11 1 15020H11 1 11050H11C1 32999H11 1 00999K11 1 00040L11 1 04000M11 1 29560N11 1 00000Q11 1 10031S11 1 00050V11 1 01009W11 1 55010
0057236310999991961070112004+63933+065050FM-12+002099999V0200501N00211021001CN0500001N9+02111+01611100541ADDAY111999GF106991061001022501031001MD1210031+9999MW1021
0057577660999991961072703004+27250+111383FM-12+024599999V0209991C00001015001CN0090001N9+02501+02391100271ADDAY161999GF108991081051017501999999MD1110011+9999MW1601
0029637380999991961050112004-01883+036283FM-12+061399999V0202701N00261220001CN0500001N9+03441+01561999999ADDGF103991031011017501001021
0238722535129091961021207003+29383-098567SAO  +0208SKF  V02099999000052200059N0160005N9+00945+00725999999ADDGD10995+9999999GD20995+9999999GD30995+9999999GD40995+9999999GF100995999999999999999999MW1001EQDN01 00000JPWTH 1QNNE11 1 00099E11 1 00099E11 1 00099E11 1 00099G11U1 99999K11 1 00045L11 1 01000N11 1 00000S11 1 00049V11 1 00099W11 1 00000
038899999923065196108210300E+39367-101700SAO  +1111GLD  V02020359006252200059N024000599+02335+01445101625ADDAA101000095GA1999+999999004GA2999+999999999GA3999+999999999GA4999+999999999GD13065+9999993GD20005+9999999GD30005+9999999GD40005+9999999GF106025999999999999999999MA1999999089205EQDN01 00000JPWTH 1QNNE11 1 00308E11 1 00000E11 1 00000E11 1 00000G11U1 99999H11C1 32999H11 1 00999H11 1 00999H11 1 00999K11 1 00058L11 1 01500M11 1 26340N11 1 00000Q11 1 10162S11 1 00074V11 1 00802W11 1 56012
0129717390999991961040712004+48567-081367FM-12+029499999V0203201N00361220001CN0160001N9-00941-01171101651ADDAJ199999999999999AL10600091AY171999GF108991081051008001999999KA1999M+00061KA2999N-00941MD1210111+9999MW1711EQDQ01  04472SNDP  
0057574470999991961092515004+30267+109367FM-12+043799999V0209991C00001220001CN0250001N9+02221+02111100871ADDAY101999GF101991011041017501041001MD1110151+9999MW1031
0043430410999991961121418004+19083+082033FM-12+055399999V0203201N00101220001CN0040001N9+01721+01501101431ADDAY101999GF101991001001999999001011MW1021
0086103130999991961042406004+51967+007600FM-12+006499999V0203101N00101012001CN0050001N9+00891+00781100551ADDAY121999GA1061+012009059GF107991061051012501041999KA1999N+00781MD1210161+9999MW1021
0101727675940111961012118004+48417-101333SAO  +0512MIB  V0203601N004112200019N0240001N9-01721-02051102551ADDGA1999+030009999GA2011+220009029GF102991999999999999999999MA1999999096001MW1001EQDQ01    003SCCGA1
0165999999432131961021720005+35167+129133SAO  +0005RKPP V02099999000052200059N011200599-00445-01065102275ADDGF100005999999999999999999MA1999999102245EQDN01 00000JPWTH 1QNNG11U1 99999K11 1 00013L11 1 00700M11 1 30190N11 1 00000Q11 1 10227S11 1 00024V11 1 00000W11 1 00000
0377999999147931961020218005+40200-075150SAO  +0102NXX  V02029359002652200059N024000599-01225-02225103415ADDGA1999+999999024GA2999+999999999GA3999+999999999GA4999+999999999GD12035+9999999GD20005+9999999GD30005+9999999GD40005+9999999GF103025999999999999999999MA1999999102075EQDN01 00000JPWTH 1QNNE11 1 00204E11 1 00000E11 1 00000E11 1 00000G11U1 99999H11C1 37999H11 1 00999H11 1 00999H11 1 00999K11 1-00008L11 1 01500M11 1 30140N11 1 00000Q11 1 10341S11 1 00010V11 1 00403W11 1 78005
0043363250999991961062212004+50333+098333FM-12+999999999V0209991C00001024001CN0200001N9+01221+99999101551ADDAY121999GF107991071001999999999001MW1021
0057543770999991961021312004+41100+126167FM-12+030599999V0203201N00411012301CN0350001N9-00891-02001101871ADDAY111061GF107991071051012501999999MD1210211+9999MW1031
0094531920999991961121818004+43683+114317FM-12+999999999V0209991C00001220001CN0110001N9-02391-02721104111ADDAY101999GF100991001001999999001001KA1999M-01721MA1999999098801MD1710141+9999ME1315109MW1021
038899999994224196110271400E+46150-123883SAO  +000399999V02020359004150213449N019200599+00724+00505100074ADDAA101001095GA1999+007624094GA2999+010674064GA3999+021344034GA4999+999999004GD12025+9999999GD22015+9999999GD33035+9999999GD43015+9999999GF107075999999999999999999MA1999999100004EQDN01 00000JPWTH 1QNNE11 1 00203E11 1 00201E11 1 00404E11 1 00401G11 1 00070H11 1 18025H11 1 15035H11 1 23070H11C1 32999K11 1 00041L11 1 01200M11 1 29530N11 1 00000Q11 1 10007S11 1 00045V11 1 00909W11 1 56008
0057320690999991961031803004+50050+142167FM-12+005599999V0203201N00411075001CN0500001N9-00221-00281100641ADDAY121999GF108991021061002501001071MD1710171+9999MW1031
0057689280999991961021418004+34183+022150FM-12+005999999V0200901N01231220001CN0200001N9+02001+01781101911ADDAY121999GF102991011051012501001081MD1310081+9999MW1011
0165999999939091961021909005+38833-094883SAO  +0328NUU  V02031559003652200059N016000599-00834-01175102724ADDGF100005999999999999999999MA1999999098444EQDN01 00000JPWTH 1QNNG11U1 99999K11 1 00011L11 1 01000M11 1 29070N11 1 00000Q11 1 10272S11 1 00017V11 1 00000W11 1 88007
0080637720999991961110303004-02267+040900FM-12+003099999V0209991C00001220001CN0400001N9+02331+02171999999ADDGA1021+006009089GA2061+007509059GF199999031081008001041001EQDQ01+000032SCOTCV
0082984290999991961040314004+14517+121000SAO  +0015RPMM V0200901N005119999999N0240001N1+02681+02241101441ADDGA1021+007509089GA2041+030009039GF107991999999999999999999MA1999999101251MW1001
038899999914923196101281500E+41450-090500SAO  +0177MLI  V02024859005250365849N016000599-01175-01785101365ADDAA101000095GA1999+036584034GA2999+999999999GA3999+999999999GA4999+999999999GD13065+9999999GD20005+9999999GD30005+9999999GD40005+9999999GF106055999999999999999999MA1999999099055EQDN01 00000JPWTH 1QNNE11 1 00408E11 1 00000E11 1 00000E11 1 00000G11 1 00120H11 1 23120H11 1 00999H11 1 00999H11 1 00999K11 1 00000L11 1 01000M11 1 29250N11 1 00000Q11 1 10136S11 1 00011V11 1 00806W11 1 76010
0108478150999991961120115004+33233+131617FM-12+000699999V0202301N002619999999N0250001N9+01001+00611101661ADDAY101999GA1999+011709029GA2031+999999999GF199999021001999999031001MD1210061+9999MW1021EQDQ01+000022SCOTCV
0057586060999991961040300004+28667+115967FM-12+004999999V0209991C00001220001CN0080001N9+01781+01391100891ADDAY111999GF107991001001999999001021MD1810011+9999MW1101
0275726227947901961041204003+44000-076017SAO  +0101ART  V02031559004150152449N0240005N9+00445-00175101425ADDGD13995+9999999GD20995+9999999GD30995+9999999GD40995+9999999GF107075999999999999999999MA1999999100175MW1001EQDN01 00000JPWTH 1QNNE11 1 00499E11 1 00099E11 1 00099E11 1 00099G11 1 00050K11 1 00029L11 1 01500M11 1 29580N11 1 00000Q11 1 10142S11 1 00040V11 1 00909W11 1 88008
017699999924090196104070800E+44050-103067SAO  +0964RAP  V02018059002652200059N024000599-00725-01225102715ADDAA101000095GF100005999999999999999999MA1999999091135EQDN01 00000JPWTH 1QNNG11U1 99999K11 1 00010L11 1 01500M11 1 26910N11 1 00000Q11 1 10271S11 1 00019V11 1 00000W11 1 55005
0302747020231101961081916003+36333-119950SAO  +0073NLC  V02027059002650365849N0240005N1+02565+00675101585ADDGA1081+036584034GD14085+9999999GD20995+9999999GD30995+9999999GD40995+9999999GF108085999999999999999999MA1999999100785MW1001EQDN01 00000JPWTH 1QNNE11 1 00610E11 1 00099E11 1 00099E11 1 00099G11 1 00120H11 1 23120K11 1 00044L11 1 01500M11 1 29760N11 1 00000Q11 1 10158S11 1 00078V11 1 01010W11 1 77005
0165999999939011961022807005+32733-096967SAO  +0150NBE  V02029359006252200059N024000599+00334+00005102294ADDGF100005999999999999999999MA1999999100584EQDN01 00000JPWTH 1QNNG11U1 99999K11 1 00032L11 1 01500M11 1 29700N11 1 00000Q11 1 10229S11 1 00038V11 1 00000W11 1 78012
0082718930999991961073011004+49717-124900SAO  +0023CYQQ V0202931N001512200019N0160001N1+01301+01191101371ADDGA1011+030009039GA2041+090009029GF107991999999999999999999MA1999999101081MW1001
0051488700999991961070410004+13767+109217SAO  +0006VVQN V0203381N002119999999N0320001N1+99999+99999999999ADDGA1021+006909009GF107991999999999999999999MW1001
0081249820999991961041221004+60717+142783FM-12+999999999V0200201N00211012301CN0010001N9-00721-00781101101ADDAA124999999AY171999GF108991081001012501011999KA1999N-00721MD1710031+9999MW1731
0068220280999991961050403004+69200+035100FM-12+004299999V0203401N00621007801CN0100001N9+00001-00221101671ADDAA106000091AY181999GF108991081091008001999999MD1210181+9999MW1151
038899999913739196105212200E+39883-075250SAO  +0003PHL  V02022559003652200059N016000599+01945+00565101025ADDAA101000095GA1999+015244084GA2999+024384034GA3999+999999024GA4999+999999999GD12025+9999999GD22015+9999999GD33045+9999999GD40005+9999999GF107065999999999999999999MA1999999100915EQDN01 00000JPWTH 1QNNE11 1 00203E11 1 00201E11 1 00405E11 1 00000G11C1 99999H11 1 11050H11 1 23080H11C1 37999H11 1 00999K11 1 00042L11 1 01000M11 1 29800N11 1 00000Q11 1 10102S11 1 00067V11 1 00908W11 1 66007
0043489550999991961110502004+15117+105783FM-12+009399999V0200401N00721220001CN0300001N9+02501+99999999999ADDAY111999GF103991999999999999999999MW1051
0383040180162011961110906003+63967-022600SAO  +0050BIKF V02036059005252200059N0320005N1+00225-00115098545ADDGA1021+009144064GA2011+019814044GA3999+999999999GA4999+999999999GD12025+9999999GD22015+9999999GD30005+9999999GD40005+9999999GF102025999999999999999999MA1999999097875MW1001EQDN01 00000JPWTH 1QNNE11 1 00202E11 1 00201E11 1 00000E11 1 00000G11U1 99999H11 1 15030H11 1 21065H11 1 00999H11 1 00999K11 1 00030L11 1 02000M11 1 28900N11 1 00000Q11 1 09854S11 1 00036V11 1 00302W11 1 11010
038899999923183196107200700E+33433-112017SAO  +033999999V02011359006752200059N019200599+03175+01505100515ADDAA101000095GA1999+999999004GA2999+999999999GA3999+999999999GA4999+999999999GD11025+9999993GD20005+9999999GD30005+9999999GD40005+9999999GF102015999999999999999999MA1999999096785EQDN01 00000JPWTH 1QNNE11 1 00103E11 1 00000E11 1 00000E11 1 00000G11U1 99999H11C1 32999H11 1 00999H11 1 00999H11 1 00999K11 1 00059L11 1 01200M11 1 28580N11 1 00000Q11 1 10051S11 1 00089V11 1 00301W11 1 34013
0069476600999991961020920004+35700+139400SAO  +0098RJTC V0209991C000012200019N0160001N1-00091-00651100571ADDGF100991999999999999999999MA1999999099371MW1001EQDQ01+999990APOSP 
0081320690999991961122912004+50050+142167FM-12+005599999V0201401N00211220001CN0500001N9-01221-01281102741ADDAA199000091AY101999GF100991001001999999001001KA1999M-00221MD1310051+9999MW1021
039499999912839196109261300E+25800-080267SAO  +0004MIA  V02002359002652200059N004800599+02725+02115101595ADDAA101000095GA1999+008234084GA2999+999999999GA3999+999999999GA4999+999999999GD12015+9999999GD20005+9999999GD30005+9999999GD40005+9999999GF101015999999999999999999MA1999999101565MW1045EQDN01 08200JPWTH 1QNNE11 1 00201E11 1 00000E11 1 00000E11 1 00000G11U1 99999H11 1 11027H11 1 00999H11 1 00999H11 1 00999K11 1 00070L11 1 00300M11 1 29990N11 1 08200Q11 1 10159S11 1 00081V11 1 00101W11 1 12005
0377999999225191961032308005+21450-157783SAO  +0003HNG  V02006859008250073249N024000599+02395+01835101845ADDGA1999+007324084GA2999+012194064GA3999+999999999GA4999+999999999GD13055+9999999GD23025+9999999GD30005+9999999GD40005+9999999GF106065999999999999999999MA1999999101835EQDN01 00000JPWTH 1QNNE11 1 00406E11 1 00402E11 1 00000E11 1 00000G11 1 00024H11 1 11024H11 1 15040H11 1 00999H11 1 00999K11 1 00065L11 1 01500M11 1 30070N11 1 00000Q11 1 10184S11 1 00075V11 1 00808W11 1 32016
0057310110999991961080606004+59683+127033FM-12+999999999V0203201N00211024001CN0100001N9+01781+01391100681ADDAY121999GF108991081001999999071999MD1710041+9999MW1021
0035747880128101961120707004+27850-082500SAO  +0004KMCF V0209991C000012200019N0128001N9+01831+01721999999ADDGF100991999999999999999999MW1001
0035745980137021961021923004+37083-076350SAO  +0003LFI  V0202301N002610540019N0160001N9+02001+01391999999ADDGF108991999999999999999999MW1001
007772253612911196107310900D+29533-098283SAO  +0232RND  V0201801N002110030019N0192001N9+02351+02181101741ADDAA101000095GA1081+003009079GF108991999999999999999999MA1999999099021MW1001
0082718930999991961111519004+49717-124900SAO  +0023CYQQ V0203151N002612200019N0320001N1+00581+00131103841ADDGA1021+003909059GA2051+069009009GF107991999999999999999999MA1999999103561MW1001
039499999914860196101211600E+42083-080183SAO  +0223ERI  V02015859005752200059N011200599-00945-01395101295ADDAA101000095GA1999+999999024GA2999+999999999GA3999+999999999GA4999+999999999GD13075+9999993GD20005+9999999GD30005+9999999GD40005+9999999GF107035999999999999999999MA1999999098485MW1785EQDN01 04600JPWTH 1QNNE11 1 00309E11 1 00000E11 1 00000E11 1 00000G11U1 99999H11C1 37999H11 1 00999H11 1 00999H11 1 00999K11 1 00007L11 1 00700M11 1 29080N11 1 04600Q11 1 10129S11 1 00015V11 1 00904W11 1 54011
0035747770038521961050210004+30417-086683SAO  +0014HRT  V0203201N002112200019N0112001N9+01691+01571999999ADDGF102991999999999999999999MW1001
0088107140999991961121210004+49217-007400SAO  +0345EDAM V0202301N011310012019N0032001N9+01111+01051101291ADDGA1071+001209079GA2011+002409079GF108991999999999999999999MA1999999097291MW1451MW2611
017699999924121196105241900E+40833-115783SAO  +154799999V02024859002152200059N048000599+02285-00225100955ADDAA101000095GF100005999999999999999999MA1999999084225EQDN01 00000JPWTH 1QNNG11U1 99999K11 1 00028L11 1 03000M11 1 24870N11 1 00000Q11 1 10095S11 1 00073V11 1 00000W11 1 76004
0308999999947021961062209005+41167-073133SAO  +0002BDR  V02020359007750012249N003200599+01784+01725101054ADDGA1999+001224134GD14085+9999999GD20995+9999999GD30995+9999999GD40995+9999999GF108085999999999999999999MA1999999100984MW1455MW2615EQDN01 02070JPWTH 1QNNE11 1 00610E11 1 00099E11 1 00099E11 1 00099G11 1 00004H11 1 13004K11 1 00063L11 1 00200M11 1 29820N11 1 02070Q11 1 10105S11 1 00064V11 1 01010W11 1 56015
0269999999137321961030303005+38067-078150SAO  +013599999V02022559001552200059N024000599+00445+00005101965ADDGD10995+9999999GD20995+9999999GD30995+9999999GD40995+9999999GF100005999999999999999999MA1999999100305EQDN01 00000JPWTH 1QNNE11 1 00099E11 1 00099E11 1 00099E11 1 00099G11U1 99999K11 1 00032L11 1 01500M11 1 29620N11 1 00000Q11 1 10196S11 1 00040V11 1 00000W11 1 66003
038899999923065196107170000E+39367-101700SAO  +1111GLD  V02004559002152200059N024000599+03335+00615101185ADDAA101000095GA1999+030484084GA2999+999999999GA3999+999999999GA4999+999999999GD10005+9999999GD20005+9999999GD30005+9999999GD40005+9999999GF100005999999999999999999MA1999999088865EQDN01 00000JPWTH 1QNNE11 1 00000E11 1 00000E11 1 00000E11 1 00000G11U1 99999H11 1 11100H11 1 00999H11 1 00999H11 1 00999K11 1 00043L11 1 01500M11 1 26240N11 1 00000Q11 1 10118S11 1 00092V11 1 00000W11 1 22004
038899999914820196106151900E+41400-081850SAO  +024899999V02036059009352200059N024000599+01335+00395102445ADDAA101000095GA1999+009144084GA2999+045724044GA3999+999999024GA4999+999999999GD12005+9999999GD23025+9999999GD30065+9999999GD40005+9999999GF107075999999999999999999MA1999999099495EQDN01 00000JPWTH 1QNNE11 1 00200E11 1 00402E11 1 00007E11 1 00000G11C1 99999H11 1 11030H11 1 21150H11C1 37999H11 1 00999K11 1 00039L11 1 01500M11 1 29380N11 1 00000Q11 1 10244S11 1 00056V11 1 00909W11 1 11018
0118637330999991961053109004-01500+033800FM-12+114799999V0200901N00511105001CN0450001N9+02611+01611999999ADDGA1011+006009099GA2999+054009009GF107991011031008001001061MA1999999088851MD1999999+0051ME1315389EQDQ01    003SCCGA2
0277719480272021961100303005+70167-124683SAO  +0016CYUE V02004559004650091449N016000599-00675-00945101295ADDGA1999+006104084GA2999+009144064GD19025+9999999GD29055+9999999GF107075999999999999999999MA1999999101085MW1715EQDN01 04000JPWTH 1QNNE11 1 09903E11 1 09906G11 1 00030H11 1 11020H11 1 15030K11 1 00015L11 1 01000M11 1 29850N11 1 04000Q11 1 10129S11 1 00020V11 1 00909W11 1 22009
009094999900052196111110100N-31630+117720AUST +0248     V0202705N002659999999N999999999+02385+00605999999ADDAY124999GA1005+999999999GA2055+999999035GF105995004999999999095999MA1999999098345MW1025
0094561460999991961113012004+31633+099817FM-12+332199999V0209991C00001220001CN0200001N9-00281-01611999999ADDAY101999GF101991011041022501001001KA1999M+00611MA1999999097401MD1210121+9999ME1430309MW1021
0383722906931121961081419003+32700-117200SAO  +0015NZY  V02027059005752200059N0160005N9+02115+01675101455ADDGA1041+004884074GA2999+999999999GA3999+999999999GA4999+999999999GD12045+9999999GD20005+9999999GD30005+9999999GD40005+9999999GF104045999999999999999999MA1999999101295MW1001EQDN01 00000JPWTH 1QNNE11 1 00205E11 1 00000E11 1 00000E11 1 00000G11U1 99999H11 1 16016H11 1 00999H11 1 00999H11 1 00999K11 1 00062L11 1 01000M11 1 29910N11 1 00000Q11 1 10145S11 1 00070V11 1 00505W11 1 77011
0035034873999991961031602004+52850+000767SAO  +0075EGUP V0202701N001512200019N0128001N9+00961+00351999999ADDGF100991999999999999999999MW1001
0057268980999991961061815004+53333+034233FM-12+016299999V0202701N00621075001CN0100001N9+02111+00891101531ADDAY121999GF105991041021012501001021MD1710081+9999MW1031
0238999999340611961083107005+49017+001233SAO  +0141LFOE V02004559003650006149N001600599+01445+01395999999ADDGD15995+9999999GD20995+9999999GD30995+9999999GD40995+9999999GF108995999999999999999999MW1455EQDN01 07000JPWTH 1QNNE11 1 00799E11 1 00099E11 1 00099E11 1 00099G11 1 00002K11 1 00057L11 1 00100N11 1 07000S11 1 00058V11 1 01099W11 1 22007
039499999913740196108301500E+37500-077333SAO  +005599999V02006859004152200059N008000599+02785+01785102035ADDAA101000095GA1999+042674034GA2999+999999999GA3999+999999999GA4999+999999999GD12015+9999999GD20005+9999999GD30005+9999999GD40005+9999999GF101015999999999999999999MA1999999101465MW1055EQDN01 08100JPWTH 1QNNE11 1 00201E11 1 00000E11 1 00000E11 1 00000G11U1 99999H11 1 23140H11 1 00999H11 1 00999H11 1 00999K11 1 00064L11 1 00500M11 1 29960N11 1 08100Q11 1 10203S11 1 00082V11 1 00101W11 1 32008
0238722266138501961110613003+32350-086983SAO  +0063SEM  V02036059002650024449N0112005N1+01505+01335999999ADDGD14995+9999999GD20995+9999999GD30995+9999999GD40995+9999999GF108995999999999999999999MW1001EQDN01 00000JPWTH 1QNNE11 1 00699E11 1 00099E11 1 00099E11 1 00099G11 1 00008K11 1 00056L11 1 00700N11 1 00000S11 1 00059V11 1 01099W11 1 11005
028099999924036196111031900E+47050-109450SAO  +1259LWT  V02031559004150152449N080000599+00225+00005100075ADDAA101000395GD14995+9999999GD20995+9999999GD30995+9999999GD40995+9999999GF108085999999999999999999MA1999999085515EQDN01 00000JPWTH 1QNNE11 1 00699E11 1 00099E11 1 00099E11 1 00099G11 1 00050K11 1 00032L11 1 05000M11 1 25250N11 1 00000Q11 1 10007S11 1 00036V11 1 01010W11 1 88008
0057581220999991961082221004+33650+116967FM-12+003199999V0202001N00101220001CN0160001N9+99999+99999100421ADDAY101999GF101991001001999999071999MD1210041+9999MW1031
0050722400039371961030919004+30117-093317SAO  +0010LCH  V0203601N006712200019N0160001N1+01571-00651102781ADDGF100991999999999999999999MA1999999102681MW1001
0377722050128151961051121003+28450-081300SAO  +0032MC0  V02022559006252200059N0160005N1+02565+00945101355ADDGA1021+009144084GA2081+220009024GA3999+999999999GA4999+999999999GD12025+9999999GD24085+9999999GD30005+9999999GD40005+9999999GF108075999999999999999999MA1999999100985EQDN01 00000JPWTH 1QNNE11 1 00203E11 1 00610E11 1 00000E11 1 00000G11C1 99999H11 1 11030H11C1 37999H11 1 00999H11 1 00999K11 1 00049L11 1 01000M11 1 29820N11 1 00000Q11 1 10135S11 1 00078V11 1 01009W11 1 66012
0081564440999991961050218004+28483+098650FM-12+999999999V0209991C00001007801CN0100001N9+00281+00221999999ADDAA106000691AY121999GF108991071021008001999999KA1999M+00891MD1110121+9999MW1801
0232999999038681961101103005+99999+999999SAO  +999999999V02018059002152200059N011200599+01895+01285999999ADDGD13995+9999999GD20995+9999999GD30995+9999999GD40995+9999999GF106995999999999999999999EQDN01 00000JPWTH 1QNNE11 1 00499E11 1 00099E11 1 00099E11 1 00099G11C1 99999K11 1 00055L11 1 00700N11 1 00000S11 1 00066V11 1 00899W11 1 55004
010694999900073196110082330N-16270+133380AUST +0214     V0203155N001559999999N999999999+02865+00405999999ADDAY154999GA1005+999999999GA2005+999999999GA3085+999999999GF108995004999999999999075MA1999999098925MW1055
0035743941999991961020123004+42933-071433SAO  +0076MHT  V0203601N006212200019N0400001N1-01761-02371999999ADDGF100991999999999999999999MW1001
0182722650230231961012912003+31933-102200SAO  +0871MAF  V02024859002652200059N0240005N1-00725-00785102505ADDAA101000095GF100005999999999999999999MA1999999092145MW1001EQDN01 00000JPWTH 1QNNG11U1 99999K11 1 00018L11 1 01500M11 1 27210N11 1 00000Q11 1 10250S11 1 00019V11 1 00000W11 1 76005
004674780499999196109140100D+32017-081133SAO  +0017SVN  V0203601N001012200019N0112001N9+02411+02301999999ADDAA101000095GF102991999999999999999999MW1001
0057442310999991961110409004+49633+100167FM-12+128899999V0202701N00981220001CN0500001N9+00501-01001102401ADDAY121999GF106991001001999999041021MD1710211+9999MW1021
0082722525129201961022013004+27600-099517SAO  +0161LOI  V0203381N004110024019N0160001N1+00851+00741101461ADDGA1041+000909079GA2041+002409059GF108991999999999999999999MA1999999099631MW1611
0050471100999991961102604004+37550+126800SAO  +0020RKSS V0200231N004110300019N0192001N1+01631+00961101801ADDGF107991999999999999999999MA1999999101521MW1001
0238722505129041961051508003+26233-097667SAO  +0011HRL  V02015859002652200059N0160005N1+02445+02335999999ADDGD12995+9999999GD20995+9999999GD30995+9999999GD40995+9999999GF102995999999999999999999MW1001EQDN01 00000JPWTH 1QNNE11 1 00299E11 1 00099E11 1 00099E11 1 00099G11U1 99999K11 1 00074L11 1 01000N11 1 00000S11 1 00076V11 1 00399W11 1 54005
0377999999137691961022719005+36817-076033SAO  +000899999V02020359004152200059N016000599+02115+00115101815ADDGA1999+999999004GA2999+999999999GA3999+999999999GA4999+999999999GD13055+9999993GD20005+9999999GD30005+9999999GD40005+9999999GF105025999999999999999999MA1999999101735EQDN01 00000JPWTH 1QNNE11 1 00306E11 1 00000E11 1 00000E11 1 00000G11U1 99999H11C1 32999H11 1 00999H11 1 00999H11 1 00999K11 1 00034L11 1 01000M11 1 30040N11 1 00000Q11 1 10181S11 1 00070V11 1 00602W11 1 56008
0244723520139021961020514003+34650-099267SAO  +0414LTS  V02036059007250015249N0024005N9-00285-00395999999ADDGD14995+9999999GD20995+9999999GD30995+9999999GD40995+9999999GF108995999999999999999999MW1455MW2565EQDN01 03670JPWTH 1QNNE11 1 00699E11 1 00099E11 1 00099E11 1 00099G11 1 00005K11 1 00025L11 1 00150N11 1 03670S11 1 00027V11 1 01099W11 1 11014
0011477700999991961031509004+34683+135183FM-12+005999999V0203401N004619999999N9999999N9+01171+99999999999ADDAY101999
0057373950999991961112212004+42267+042633FM-12+011699999V0202701N00511036001CN0200001N9+00501+00281999999ADDAY161061GF108991041071008001021999MD1710011+9999MW1611
0057930110999991961070900004-35067+173283FM-12+008099999V0203401N00871004501CN0280001N9+01611+01221100341ADDAY181999GF107991051021004501071999MD1710341+9999MW1151
038899999912836196110010300E+24550-081750SAO  +0001EYW  V02002359004152200059N019200599+02725+02285101665ADDAA101000095GA1999+006104094GA2999+999999999GA3999+999999999GA4999+999999999GD12015+9999999GD20005+9999999GD30005+9999999GD40005+9999999GF101015999999999999999999MA1999999101595EQDN01 00000JPWTH 1QNNE11 1 00201E11 1 00000E11 1 00000E11 1 00000G11U1 99999H11 1 18020H11 1 00999H11 1 00999H11 1 00999K11 1 00073L11 1 01200M11 1 30000N11 1 00000Q11 1 10166S11 1 00081V11 1 00101W11 1 12008
0275999999265291961092706005+65167-152100SAO  +0073TAL  V02024859002150091449N016000599+00565+00565102375ADDGD12995+9999999GD24995+9999999GD30995+9999999GD40995+9999999GF108085999999999999999999MA1999999101525MW1615EQDN01 02000JPWTH 1QNNE11 1 00299E11 1 00699E11 1 00099E11 1 00099G11 1 00030K11 1 00042L11 1 01000M11 1 29980N11 1 02000Q11 1 10237S11 1 00042V11 1 01010W11 1 76004
0035601560999991961091804004+33367-007583SAO  +0200GMMN V0202901N003610096019N0128001N9+02071+01741999999ADDGF108991999999999999999999MW1001
0081623000999991961112318004+31533+025183FM-12+000699999V0200201N00411220001CN0100001N9+01611+00721102531ADDAA199000091AY101999GF104991041011008001001001KA1999M+01891MD1210111+9999MW1021
0079586650999991961111600004+28667+121433FM-12+000599999V0203601N00211012301CN0180001N9+01781+01781101721ADDAA106009091AA224083091AY161999GF108991081091012501999999MD1710011+9999MW1911
0269999999148581961032115005+47167-088500SAO  +033099999V02011359010352200059N024000599+00115-00285101875ADDGD13995+9999993GD24995+9999993GD30995+9999999GD40995+9999999GF108045999999999999999999MA1999999097805EQDN01 00000JPWTH 1QNNE11 1 00399E11 1 00599E11 1 00099E11 1 00099G11U1 99999K11 1 00027L11 1 01500M11 1 28880N11 1 00000Q11 1 10187S11 1 00034V11 1 01005W11 1 34020
0083637900999991961012115004-03350+037333FM-12+083199999V0201001N00931220001CN0450001N9+03111+01611999999ADDGA1041+012009059GF105991041041012501001011MA1999999091481MD1999999+0021ME1314879
0050479310999991961112508004+26350+127750SAO  +0046RODN V0200501N006212200019N0240001N9+01941+01001102431ADDGF107991999999999999999999MA1999999101881MW1001
0057314740999991961110721004+51633+133300FM-12+038299999V0209991C00001220001CN0500001N9-01501-01611101931ADDAY101999GF100991001001999999001001MD1210041+9999MW1021
0092576220999991961080812004+28883+107450FM-12+204099999V0201401N00311002401CN0100001N9+01721+01721999999ADDAA106004091AY141999GF107991071091002501999999MA1999999100001MD1210081+9999ME1313909MW1951
0056416400999991961061412004+31550+074333FM-12+021499999V0202701N00101220001CN0020001N9+04331+01331099161ADDAY101999GF100991001001999999001001KA1999M+04331MW1051
0218711060942341961070417005+49083-125767SAO  +0024CYAZ V02013559002650061049N024000599+01505+01335101945ADDGA1999+006104064GD19085+9999999GF108085999999999999999999MA1999999101665EQDN01 00000JPWTH 1QNNE11 1 09910G11 1 00020H11 1 15020K11 1 00056L11 1 01500M11 1 30020N11 1 00000Q11 1 10194S11 1 00059V11 1 01010W11 1 44005
0057588470999991961041515004+26083+119300FM-12+000999999V0203601N00211012301CN0250001N9+01391+01111102111ADDAY111999GF107991071051012501999999MD1210201+9999MW1031
0057359690999991961072218004+45250+067067FM-12+013899999V0209991C00001220001CN9999999N9+02891+00781100601ADDAY101999GF100991001001999999001001MD1810011+9999MW1021
0066716000999991961101404004+43933-060017SAO  +0004CYSA V0200901N002612200019N0160001N1+01571+01521101681ADDGA1041+009009059GF102991999999999999999999MA1999999101691MW1001
009094999900270196104220500N-35370+145050AUST +0091     V0200235N002659999999N999999999+02065+01605999999ADDAY134999GA1005+999999999GA2075+999999999GF107995004999999999999999MA1999999100845MW1035
0057547250999991961110415004+37500+117317FM-12+001699999V0202201N00211220001CN0200001N9+00282+00001102771ADDAY101031GF100991001001999999001001MD1810041+9999MW1021
0057342400999991961071615004+50800+042000FM-12+009999999V0202701N00411220001CN0200001N9+02501+01221100861ADDAY101999GF102991021011017501001001MD1710041+9999MW1021
0043610800999991961041118004+13467+007083FM-12+036999999V0203601N00211045001CN0250001N9+03221+01501100711ADDAY161999GF108991081001999999071999MW1021
0035106330999991961062623004+50050+008333SAO  +0143EDOU V0201801N001510300019N0096001N9+01911+01741999999ADDGF108991999999999999999999MW1051
038899999914842196110100100E+40667-089683SAO  +020499999V02022559003152200059N024000599+01945+01725101955ADDAA101000095GA1999+036584034GA2999+999999004GA3999+999999999GA4999+999999999GD12035+9999999GD23035+9999993GD30005+9999999GD40005+9999999GF106035999999999999999999MA1999999099565EQDN01 00000JPWTH 1QNNE11 1 00204E11 1 00304E11 1 00000E11 1 00000G11U1 99999H11 1 23120H11C1 32999H11 1 00999H11 1 00999K11 1 00063L11 1 01500M11 1 29400N11 1 00000Q11 1 10195S11 1 00067V11 1 00804W11 1 66006
0057607150999991961042212004+36833+010233FM-12+000499999V0203001N00411036001CN0250001N9+02391+01281101011ADDAY111999GF107991011051008001071021MD1810111+9999MW1141
0094478160999991961070716004+32617+128767FM-12+002999999V0202001N003619999999N0130001N9+02611+02561100801ADDAY101999GA1999+087009019GA2031+057009049GF106991011041001501999021MW1031EQDQ01+000002SCOMCG
0117252060999991961031300004+67433+153717FM-12+999999999V0202301N00411220001CN0100001N9-02111-02391102311ADDAA106001091AA299000391AY171999GF108991001001999999001071HL10009IA1319IA2999-04399KA1999N-02501MD1710041+9999MW1711
038899999913748196107290900E+34267-077917SAO  +0009ILM  V02022559004152200059N011200599+02505+02335101695ADDAA101000095GA1999+999999004GA2999+999999999GA3999+999999999GA4999+999999999GD11035+9999993GD20005+9999999GD30005+9999999GD40005+9999999GF103015999999999999999999MA1999999101565EQDN01 00000JPWTH 1QNNE11 1 00104E11 1 00000E11 1 00000E11 1 00000G11U1 99999H11C1 32999H11 1 00999H11 1 00999H11 1 00999K11 1 00074L11 1 00700M11 1 29990N11 1 00000Q11 1 10169S11 1 00077V11 1 00401W11 1 66008
0089474300999991961073003004+41817+140750FM-12+003699999V0201401N00211014701CN0080001N9+02391+02171101501ADDAY101999GA1999+057009029GA2071+014709029GF107991021051022501071999MD1710071+9999MW1031
0232999999147071961060620005+41333-072050SAO  +0003GON  V02022559006252200059N016000599+02225+01615999999ADDGD13995+9999993GD20995+9999999GD30995+9999999GD40995+9999999GF106995999999999999999999EQDN01 00000JPWTH 1QNNE11 1 00399E11 1 00099E11 1 00099E11 1 00099G11U1 99999K11 1 00061L11 1 01000N11 1 00000S11 1 00072V11 1 00799W11 1 66012
0140718601999991961013112004+50017-100317FM-12+047399999V0200901N00261220001CN0080001N9-01671-01831102371ADDAA124001091AJ199999999999999AL10600091AY171999GF108991051051008001031011KA1999M-01501KA2999N-02001MD1310011+9999MW1711EQDQ01  04472SNDP  
0057535930999991961021221004+39933+114700FM-12+088099999V0203601N00311220001CN0180001N9-00721-01391102331ADDAY101999GF101991011051017501001001MD1210091+9999MW1031
0070133330999991961071806004+43517+016433FM-12+012999999V0200401N01031220001CN0500001N9+02221+01001100731ADDAY111999GF104991021051017501041011KA1999N+02111MD1310021+9999MW1031
0057119030999991961032221004+48633+019150FM-12+031999999V0203101N00101220001CN0200001N9-00281-00611101871ADDAY101999GF100991001001999999001001MD1210121+9999MW1021
009094983099999196111300500N-41000+148350AUST +0014     V0200455N009859999999N999999999+01675+01405999999ADDAY124999GA1005+999999999GA2085+999999035GF108995004999999999085999MA1999999100915MW1025
0377999999931111961052822005+34117-119117SAO  +000499999V02024859004152200059N024000599+01614+01065101674ADDGA1999+004574064GA2999+999999024GA3999+999999999GA4999+999999999GD12025+9999999GD23065+9999999GD30005+9999999GD40005+9999999GF107065999999999999999999MA1999999101634EQDN01 00000JPWTH 1QNNE11 1 00202E11 1 00407E11 1 00000E11 1 00000G11C1 99999H11 1 15015H11C1 37999H11 1 00999H11 1 00999K11 1 00051L11 1 01500M11 1 30010N11 1 00000Q11 1 10167S11 1 00061V11 1 00908W11 1 76008
0066711210999991961110309004+53667-113467SAO  +0699YED  V0203201N004612200019N0240001N9-01311-01531100821ADDGA1021+010509059GF102991999999999999999999MA1999999092311MW1001
038899999994224196108112300E+46150-123883SAO  +000399999V02024859004652200059N024000599+01894+01285101634ADDAA101000095GA1999+036584034GA2999+999999004GA3999+999999999GA4999+999999999GD13005+9999993GD20065+9999999GD30005+9999999GD40005+9999999GF106025999999999999999999MA1999999101564EQDN01 00000JPWTH 1QNNE11 1 00300E11 1 00007E11 1 00000E11 1 00000G11U1 99999H11 1 23120H11C1 32999H11 1 00999H11 1 00999K11 1 00055L11 1 01500M11 1 29990N11 1 00000Q11 1 10163S11 1 00066V11 1 00702W11 1 76009
0043430630999991961011200004+18533+073850FM-12+055999999V0209991C00001220001CN0040001N9+01281+01001101451ADDAY101999GF100991001001999999001001MW1021
0050710450999991961041011004+60167-132750SAO  +0705CYZW V0201131N004612200019N0160001N1-02531-02981102541ADDGF100991999999999999999999MA1999999102471MW1001
038899999924144196101242300E+46600-112000SAO  +1167HLN  V02031559002652200059N064000599+00115-00895102475ADDAA101000095GA1999+999999004GA2999+999999999GA3999+999999999GA4999+999999999GD14085+9999999GD20005+9999999GD30005+9999999GD40005+9999999GF108055999999999999999999MA1999999088425EQDN01 00000JPWTH 1QNNE11 1 00610E11 1 00000E11 1 00000E11 1 00000G11C1 99999H11C1 32999H11 1 00999H11 1 00999H11 1 00999K11 1 00016L11 1 04000M11 1 26110N11 1 00000Q11 1 10247S11 1 00034V11 1 01006W11 1 88005
0092262310999991961081518004+58383+024500FM-12+001499999V0202301N00821030001CN0200001N9+01501+01221100801ADDAA106075091AA224999999AY181999GF108991031091008001061071KA1999M+01891MD1610051+9999MW1151
0081373950999991961031206004+42267+042633FM-12+011699999V0200901N00211036001CN0500001N9+00721+00611999999ADDAA199000091AY121061GF106991021051017501031001KA1999N+00391MD1710131+9999MW1011
0082467700999991961061305004+24267+120617SAO  +0005RCMQ V0202481N010312200019N0240001N1+03181+02571100961ADDGA1021+009009049GA2061+220009079GF107991999999999999999999MA1999999098541MW1001
0081257670999991961070712004+62050+175267FM-12+999999999V0202001N00311002401CN0100001N9+00501+00391101441ADDAA199000091AY121999GF107991071061002501001001KA1999M+01001MD1310041+9999MW1021
0073477550999991961020809004+34900+132067FM-12+002099999V0202501N00671007801CN0400001N9+00561-00441101341ADDAY101999GA1001+999999999GF106991061021008001001001MD1310171+9999MW1021
0057360920999991961121512004+52133+093917FM-12+999999999V0209991C00001024001CN0200001N9-02111-02501101351ADDAY121999GF108991081001999999021999MD1710151+9999MW1011
036199999913970196107060000E+30533-091150SAO  +0020BTR  V02013559003152200059N011200599+02445+01835101935ADDAA101000095GA1999+009144094GA2999+036584034GA3999+999999004GD12015+9999999GD22025+9999999GD34055+9999999GD40995+9999999GF108085999999999999999999MA1999999101665EQDN01 00000JPWTH 1QNNE11 1 00201E11 1 00203E11 1 00606E11 1 00099G11C1 99999H11 1 18030H11 1 23120H11C1 32999K11 1 00065L11 1 00700M11 1 30020N11 1 00000Q11 1 10193S11 1 00076V11 1 01010W11 1 44006
017699999993063196105080300E+32633-108167SAO  +1639SVC  V02027059007252200059N024000599+01174-00725101324ADDAA101000095GF100005999999999999999999MA1999999083414EQDN01 00000JPWTH 1QNNG11U1 99999K11 1 00019L11 1 01500M11 1 24630N11 1 00000Q11 1 10132S11 1 00053V11 1 00000W11 1 77014
0094477500999991961090623004+35467+135383FM-12+003199999V0201401N000519999999N0015001N9+02111+02061101411ADDAY101999GA1999+087009019GA2031+999999049GF105991011031001501999001MW1801EQDQ01+000002SCOMCG
0035085090999991961080413004+38767-027100SAO  +0055LPLA V0203401N005710108019N0240001N9+02631+01961999999ADDGF107991999999999999999999MW1001
0082719640999991961051920004+60717-135067SAO  +0703CYXY V0201131N008710150019N0640001N1+01071-00481101091ADDGA1061+015009089GA2021+075009009GF107991999999999999999999MA1999999092751MW1001
039472617014742196110111600C+44467-073150SAO  +0106BTV  V02018059004150243849N0096005N9+02005+01675102715ADDAA101000095GA1031+012194064GA2041+024384034GA3999+999999999GA4999+999999999GD12035+9999999GD23045+9999999GD30005+9999999GD40005+9999999GF107075999999999999999999MA1999999101465MW1055EQDN01 08100JPWTH 1QNNE11 1 00204E11 1 00405E11 1 00000E11 1 00000G11 1 00080H11 1 15040H11 1 23080H11 1 00999H11 1 00999K11 1 00062L11 1 00600M11 1 29960N11 1 08100Q11 1 10271S11 1 00068V11 1 00909W11 1 55008
0057315380999991961111203004+50067+132133FM-12+031499999V0202301N00311220001CN0500001N9-01221-01781102591ADDAY111999GF102991001001999999001011MD1210231+9999MW1021
0057364430999991961071418004+49867+086933FM-12+999999999V0209991C000019999999N0500001N9+00721+00721101411ADDAY121999GF108991081071999999999999MD1210021+9999MW1011
0057571930999991961020109004+33750+114400FM-12+005199999V0202901N00511220001CN0260001N9+00721-01721102841ADDAY101999GF100991001001999999001001MD1610111+9999MW1021
0383999999432141961080520005+36450+127433SAO  +0040RKTD V02099999000052200059N009600599+02505+02115100315ADDGA1999+007624064GA2999+024384044GA3999+999999999GA4999+999999999GD12035+9999999GD22045+9999999GD30005+9999999GD40005+9999999GF104045999999999999999999MA1999999099835MW1045EQDN01 08200JPWTH 1QNNE11 1 00204E11 1 00205E11 1 00000E11 1 00000G11U1 99999H11 1 15025H11 1 21080H11 1 00999H11 1 00999K11 1 00070L11 1 00600M11 1 29480N11 1 08200Q11 1 10031S11 1 00077V11 1 00505W11 1 00000
0218719590263941961101113005+69450-133000SAO  +0006CYUB V02011359005250091449N024000599-01175-01445101665ADDGA1999+009144064GD19085+9999999GF108085999999999999999999MA1999999101425EQDN01 00000JPWTH 1QNNE11 1 09910G11 1 00030H11 1 15030K11 1 00006L11 1 01500M11 1 29950N11 1 00000Q11 1 10166S11 1 00011V11 1 01010W11 1 34010
0057375530999991961110915004+41933+045383FM-12+056299999V0209991C00001036001CN0200001N9+01001+00781999999ADDAY111031GF106991021041017501051011MD1510011+9999MW1031
017699999923194196102250900E+35017-110733SAO  +148899999V02011359003652200059N096000599-00395-01335102785ADDAA101000095GF100005999999999999999999MA1999999085955EQDN01 00000JPWTH 1QNNG11U1 99999K11 1 00008L11 1 06000M11 1 25380N11 1 00000Q11 1 10278S11 1 00025V11 1 00000W11 1 34007
0057370610999991961051715004+44800+044167FM-12+011899999V0202001N00311220001CN0500001N9+02281+01111101491ADDAY111031GF100991001001999999001001MD1710061+9999MW1011
0125260940999991961020706004+59650+033500FM-12+004599999V0201801N00511220001CN0500001N9-00611-00891101701ADDAA199000091AY111999GF103991999001999999031001HL10009IA1319IA2999-00899KA1999N-00721MD1710081+9999MW1021EQDQ01+000002SCOTLC
007494975099999196107202000N-42830+147520AUST +0003YMHB V0202705N001059999999N999999999+00205+00105999999ADDAY124999GA1005+999999999GF100995004999999999999999MA1999999102665MW1025
0035107120999991961122813004+49500-007867SAO  +0321EDAS V0209991C000010024019N0008001N9-00311-00371999999ADDGF108991999999999999999999MW1451
0035725335999991961032019004+40650-086150SAO  +0247GUS  V0201101N006212200019N0192001N9+00891+00221999999ADDGF108991999999999999999999MW1001
0057344220999991961070812004+49283+038917FM-12+006499999V0203201N00511090001CN0200001N9+02501+01221101241ADDAY121999GF108991041021012501001021MD1710061+9999MW1021
0057577760999991961032703004+27250+112750FM-12+130999999V0200401N00511220001CN0200001N9+01001-00221102611ADDAY121999GF105991001001999999001021MD1110021+9999MW1011
0057319940999991961042918004+43583+134167FM-12+050599999V0209991C00001024001CN0200001N9+00111-00391100911ADDAY121999GF108991071001999999011999MD1610071+9999MW1031
0087565860999991961010700004+27333+103750FM-12+196099999V0209991C00001004501CN0020001N9-00111-00111999999ADDAA106000691AY161999GF108991081071004501999999HL10009IA2999-00289MD1710221+9999MW1661
0057939970999991961101100004-29250+177917FM-12+004999999V0201001N006219999999N0500001N9+01721+99999102501ADDAY181999GF107991021081004501051999MD1810051+9999MW1021
0079583580999991961051200004+31067+120350FM-12+001999999V0202701N00511007801CN0350001N9+01721+01281101261ADDAA106000391AA224002091AY161999GF107991071041008001999999MD1210181+9999MW1011
0011476500999991961073009004+34850+136467FM-12+007199999V0201401N003119999999N9999999N9+02781+99999999999ADDAY101999
0296999999137511961021511005+38850-077033SAO  +0016NDV  V02031559002150426749N024000599+00785-00335102565ADDGA1999+042674034GD14085+9999999GD20995+9999999GD30995+9999999GD40995+9999999GF108085999999999999999999MA1999999102545EQDN01 00000JPWTH 1QNNE11 1 00610E11 1 00099E11 1 00099E11 1 00099G11 1 00140H11 1 23140K11 1 00026L11 1 01500M11 1 30280N11 1 00000Q11 1 10256S11 1 00046V11 1 01010W11 1 88004
0057387630999991961092412004+38983+056283FM-12+009799999V0200701N00511220001CN0500001N9+02781+00891101731ADDAY101999GF100991001001999999001001MD1710231+9999MW1021
018272344013964196106100800C+35333-094367SAO  +0136FSM  V02031559002152200059N0320005N1+02115+02065100905ADDAA101000095GF100005999999999999999999MA1999999099295MW1001EQDN01 00000JPWTH 1QNNG11U1 99999K11 1 00069L11 1 02000M11 1 29320N11 1 00000Q11 1 10090S11 1 00070V11 1 00000W11 1 88004
0057268940999991961100103004+53533+033717FM-12+017499999V0200501N003119999999N0040001N9+01111+01001102701ADDAY121999GF108991081051999999999999MD1210031+9999MW1101
007494999900006196105260700N-18180+125600AUST +0112     V0201355N004659999999N999999999+03365+01305999999ADDAY104999GA1045+013505085GF104995044025013505999999MA1999999099765MW1005
007494999900010196112210700N-19280+121500AUST +0021     V0202935N002659999999N999999999+03615+02205999999ADDAY134999GA1025+012005085GF102995024025012005999999MA1999999100145MW1025
0098479300999991961032506004+26200+127650SAO  +0004ROAH V0202481N005110210019N0192001N1+02071+01911100541ADDGA1021+001809079GA2061+021009039GA3081+027009049GF108991999999999999999999MA1999999100471MW1611
0269999999231531961011702005+38067-117083SAO  +1654TPH  V02099999000052200059N024000599-00115-00505102735ADDGD13995+9999993GD20995+9999999GD30995+9999999GD40995+9999999GF105015999999999999999999MA1999999084055EQDN01 00000JPWTH 1QNNE11 1 00399E11 1 00099E11 1 00099E11 1 00099G11U1 99999K11 1 00023L11 1 01500M11 1 24820N11 1 00000Q11 1 10273S11 1 00030V11 1 00601W11 1 00000
0066404770999991961062803004+21500+039200FM-12+001199999V0200301N00461220001CN0130001N9+02721+02111100611ADDGA1001+999999999GF100991001001999999001001MA1999999100511MW1001
008294659099999196104181730N-31150+136820AUST +0167YPWR V0200455N007759999999N999999999+01805+01205999999ADDGA1025+018005095GA2065+999999035GF108995024095018005075999MA1999999099185MW1295
0081577660999991961122306004+27250+111383FM-12+024599999V0209991C00001036001CN0080001N9+00891+00611102011ADDAA106000691AY121999GF108991031071008001071999KA1999N+00721MD1610321+9999MW1011
027099999994849196110181900E+45067-083567SAO  +0210APN  V02036059005750076249N024000599+01334+00675999999ADDAA101000095GA1999+007624064GD14085+9999999GD20995+9999999GD30995+9999999GD40995+9999999GF108085999999999999999999EQDN01 00000JPWTH 1QNNE11 1 00610E11 1 00099E11 1 00099E11 1 00099G11 1 00025H11 1 15025K11 1 00044L11 1 01500N11 1 00000S11 1 00056V11 1 01010W11 1 11011
0377999999403091961111717005+07333+134483SAO  +002799999V02004559002652200059N024000599+02505+02395100885ADDGA1999+005494084GA2999+030484034GA3999+999999024GA4999+999999999GD12015+9999999GD22025+9999999GD34085+9999993GD40005+9999999GF108025999999999999999999MA1999999100515EQDN01 00000JPWTH 1QNNE11 1 00201E11 1 00202E11 1 00510E11 1 00000G11U1 99999H11 1 11018H11 1 23100H11C1 37999H11 1 00999K11 1 00075L11 1 01500M11 1 29680N11 1 00000Q11 1 10088S11 1 00077V11 1 01003W11 1 22005
008594294599999196106302300N-19250+146770AUST +0006YBTL V0209999C000059999999N999999999+01695+99999999999ADDGA1085+000005075GF108995084065000005999999MA1999999101245MW1455EQDP01 +01702ATOD  
038899999913748196105081700E+34267-077917SAO  +0009ILM  V02022559007252200059N012800599+02675+01835102005ADDAA101000095GA1999+010674084GA2999+999999004GA3999+999999999GA4999+999999999GD12035+9999999GD23035+9999993GD30005+9999999GD40005+9999999GF106035999999999999999999MA1999999101865EQDN01 00000JPWTH 1QNNE11 1 00204E11 1 00304E11 1 00000E11 1 00000G11U1 99999H11 1 11035H11C1 32999H11 1 00999H11 1 00999K11 1 00065L11 1 00800M11 1 30080N11 1 00000Q11 1 10200S11 1 00080V11 1 00804W11 1 66014
0377999999242311961070616005+43233-123367SAO  +015599999V02022559002652200059N016000599+01445+00835102275ADDGA1999+005494154GA2999+045724034GA3999+999999024GA4999+999999999GD12015+9999999GD22015+9999999GD34065+9999993GD40005+9999999GF108025999999999999999999MA1999999100415EQDN01 00000JPWTH 1QNNE11 1 00201E11 1 00201E11 1 00508E11 1 00000G11U1 99999H11 1 17018H11 1 23150H11C1 37999H11 1 00999K11 1 00047L11 1 01000M11 1 29650N11 1 00000Q11 1 10227S11 1 00058V11 1 01003W11 1 66005
0269999999265281961010517005+62300-150100SAO  +010799999V02033859003150304849N024000599-00615-00895099425ADDGD14995+9999999GD20995+9999999GD30995+9999999GD40995+9999999GF108065999999999999999999MA1999999098075EQDN01 00000JPWTH 1QNNE11 1 00699E11 1 00099E11 1 00099E11 1 00099G11 1 00100K11 1 00016L11 1 01500M11 1 28960N11 1 00000Q11 1 09942S11 1 00021V11 1 01008W11 1 18006
0044999999274041961091105005+70167-146833SAO  +000799999V02099999999999999999N999999999+00115+99999999999EQDN01 00000JPWTH 1QNNN11 1 00000S11 1 00034
007772311913886196108021800A+34850-082350SAO  +0319GMU  V0209991C000012200019N0240001N1+03131+02131101851ADDAA101000095GA1021+009009089GF102991999999999999999999MA1999999098441MW1001
0275999999264451961051202005+60083-142500SAO  +0010CYT  V02020359004150054949N024000599+00785+00615101465ADDGD12995+9999999GD23995+9999999GD34995+9999999GD40995+9999999GF108085999999999999999999MA1999999101355MW1515EQDN01 03300JPWTH 1QNNE11 1 00299E11 1 00499E11 1 00699E11 1 00099G11 1 00018K11 1 00043L11 1 01500M11 1 29930N11 1 03300Q11 1 10146S11 1 00046V11 1 01010W11 1 56008
038899999923194196107230500E+35017-110733SAO  +148899999V02022559007752200059N056000599+02445+01005100715ADDAA101000095GA1999+027434064GA2999+999999004GA3999+999999999GA4999+999999999GD12045+9999999GD23025+9999999GD30005+9999999GD40005+9999999GF106055999999999999999999MA1999999085075EQDN01 00000JPWTH 1QNNE11 1 00205E11 1 00403E11 1 00000E11 1 00000G11C1 99999H11 1 15090H11C1 32999H11 1 00999H11 1 00999K11 1 00050L11 1 03500M11 1 25120N11 1 00000Q11 1 10071S11 1 00076V11 1 00706W11 1 66015
0275999999947251961083111005+44933-074850SAO  +0067MSS  V02022559003150106749N006400599+02004+01895101244ADDGD13995+9999999GD24995+9999999GD30995+9999999GD40995+9999999GF108075999999999999999999MA1999999100514MW1055EQDN01 08100JPWTH 1QNNE11 1 00499E11 1 00699E11 1 00099E11 1 00099G11 1 00035K11 1 00066L11 1 00400M11 1 29680N11 1 08100Q11 1 10124S11 1 00068V11 1 01009W11 1 66006
0377999999433241961042622005+34150+132233SAO  +0003RJOI V02029359001552200059N024000599+01175+00725100925ADDGA1999+013724064GA2999+999999999GA3999+999999999GA4999+999999999GD12015+9999999GD20005+9999999GD30005+9999999GD40005+9999999GF101015999999999999999999MA1999999100915EQDN01 00000JPWTH 1QNNE11 1 00201E11 1 00000E11 1 00000E11 1 00000G11U1 99999H11 1 15045H11 1 00999H11 1 00999H11 1 00999K11 1 00045L11 1 01500M11 1 29800N11 1 00000Q11 1 10092S11 1 00053V11 1 00101W11 1 78003
0377999999939091961041018005+38833-094883SAO  +0328NUU  V02013559001550076249N011200599+00894+00175101834ADDGA1999+007624084GA2999+999999004GA3999+999999999GA4999+999999999GD13065+9999999GD23005+9999999GD30005+9999999GD40005+9999999GF106065999999999999999999MA1999999097774EQDN01 00000JPWTH 1QNNE11 1 00408E11 1 00400E11 1 00000E11 1 00000G11 1 00025H11 1 11025H11C1 32999H11 1 00999H11 1 00999K11 1 00035L11 1 00700M11 1 28870N11 1 00000Q11 1 10183S11 1 00048V11 1 00808W11 1 44003
0269999999232751961011106005+39133-123200SAO  +0192UKI  V02099999000052200059N016000599+00615+00445102245ADDGD12995+9999999GD20995+9999999GD30995+9999999GD40995+9999999GF102025999999999999999999MA1999999099935EQDN01 00000JPWTH 1QNNE11 1 00299E11 1 00099E11 1 00099E11 1 00099G11U1 99999K11 1 00040L11 1 01000M11 1 29510N11 1 00000Q11 1 10224S11 1 00043V11 1 00303W11 1 00000
0057104990999991961082100004+51167+014950FM-12+023799999V0202501N00411007801CN0060001N9+01281+01221101531ADDAY181061GF108991061051008001021999MD1110031+9999MW1611
038872488023185196109232000B+39500-119783SAO  +134299999V02004559003652200059N056000599+02065-00175101705ADDAA101000095GA1999+024384084GA2999+999999999GA3999+999999999GA4999+999999999GD10005+9999999GD20005+9999999GD30005+9999999GD40005+9999999GF100005999999999999999999MA1999999086735EQDN01 00000JPWTH 1QNNE11 1 00000E11 1 00000E11 1 00000E11 1 00000G11U1 99999H11 1 11080H11 1 00999H11 1 00999H11 1 00999K11 1 00029L11 1 03500M11 1 25610N11 1 00000Q11 1 10170S11 1 00069V11 1 00000W11 1 22007
031399999923188196109071400E+32733-117167SAO  +0011MYF  V02029359001550039649N008000599+01895+01505100955ADDAA101000095GA1999+003964074GD14085+9999999GD20995+9999999GD30995+9999999GD40995+9999999GF108085999999999999999999MA1999999100855MW1055EQDN01 08100JPWTH 1QNNE11 1 00610E11 1 00099E11 1 00099E11 1 00099G11 1 00013H11 1 16013K11 1 00059L11 1 00500M11 1 29780N11 1 08100Q11 1 10095S11 1 00066V11 1 01010W11 1 78003
0035722545999991961060910004+30200-097667SAO  +0165BSM  V0201801N003110042019N0240001N9+02021+01911999999ADDGF108991999999999999999999MW1611
038899999924023196112222300E+41133-100683SAO  +0846LBF  V02033859012452200059N024000599-00115-01285102105ADDAA101000095GA1999+999999024GA2999+999999999GA3999+999999999GA4999+999999999GD10005+9999999GD20005+9999999GD30005+9999999GD40005+9999999GF100005999999999999999999MA1999999092015EQDN01 00000JPWTH 1QNNE11 1 00000E11 1 00000E11 1 00000E11 1 00000G11U1 99999H11 1 37999H11 1 00999H11 1 00999H11 1 00999K11 1 00009L11 1 01500M11 1 27170N11 1 00000Q11 1 10210S11 1 00030V11 1 00000W11 1 18024
0087223490999991961040903004+66167+039533FM-12+000899999V0200501N00511030001CN0100001N9-00611-00611099931ADDAA106999999AY181999GF106991031091008001031001MD1810031+9999MW1851EQDQ01  00002PRCP06
0377999999264511961021607005+61167-149983SAO  +0032ANC  V02002359004650182949N024000599-00615-01395100715ADDGA1999+018294064GA2999+999999999GA3999+999999999GA4999+999999999GD13075+9999999GD20005+9999999GD30005+9999999GD40005+9999999GF107075999999999999999999MA1999999100205EQDN01 00000JPWTH 1QNNE11 1 00409E11 1 00000E11 1 00000E11 1 00000G11 1 00060H11 1 15060H11 1 00999H11 1 00999H11 1 00999K11 1 00007L11 1 01500M11 1 29590N11 1 00000Q11 1 10071S11 1 00021V11 1 00909W11 1 12009
030799999914891196102261200E+40817-082517SAO  +039799999V02029359006250036649N012800599-00335-00395100715ADDAA101000095GA1999+003664064GD14085+9999999GD20995+9999999GD30995+9999999GD40995+9999999GF108085999999999999999999MA1999999095905EQDN01 00000JPWTH 1QNNE11 1 00610E11 1 00099E11 1 00099E11 1 00099G11 1 00012H11 1 15012K11 1 00025L11 1 00800M11 1 28320N11 1 00000Q11 1 10071S11 1 00026V11 1 01010W11 1 78012
0255999999255061961073118005+59750-154917SAO  +004699999V02022559007250012249N001600599+01225+01225101995ADDGD14995+9999999GD20995+9999999GD30995+9999999GF108085999999999999999999MA1999999101395MW1455MW2615EQDN01 02070JPWTH 1QNNE11 1 00699E11 1 00099E11 1 00099G11 1 00004K11 1 00054L11 1 00100M11 1 29940N11 1 02070Q11 1 10199S11 1 00054V11 1 01010W11 1 66014
0066719170999991961090219004+79983-085950SAO  +0010CYEU V0209991C000010001519N0008001N1-00421-00531101101ADDGA1091+000159999GF109991999999999999999999MA1999999101081MW1451
0082037871999991961013103004+51283+000417SAO  +0104EGKM V0202031N003110240019N0128001N1+00631+00631100111ADDGA1021+003609079GA2081+024009049GF108991999999999999999999MA1999999098851MW1001
0232999999150151961051020005+52300+000533SAO  +009299999V02006859002152200059N022400599+01005+00395999999ADDGD12995+9999999GD20995+9999999GD30995+9999999GD40995+9999999GF102995999999999999999999EQDN01 00000JPWTH 1QNNE11 1 00299E11 1 00099E11 1 00099E11 1 00099G11U1 99999K11 1 00039L11 1 01400N11 1 00000S11 1 00050V11 1 00399W11 1 32004
0114718560999991961092200004+50633-097050SAO  +0221CYGM V0203381N003610135019N0192001N1+01191+00461100461ADDGA1021+009009089GA2031+013509059GA3011+030009039GA4021+084009009GF107991999999999999999999MA1999999097801MW1001
0269999999139731961101806005+30500-099767SAO  +052199999V02027059003152200059N024000599+00785+00395101355ADDGD10995+9999999GD20995+9999999GD30995+9999999GD40995+9999999GF100005999999999999999999MA1999999095365EQDN01 00000JPWTH 1QNNE11 1 00099E11 1 00099E11 1 00099E11 1 00099G11U1 99999K11 1 00039L11 1 01500M11 1 28160N11 1 00000Q11 1 10135S11 1 00046V11 1 00000W11 1 77006
0302744865147191961091815003+40817-072633SAO  +0017FOK  V02004559004150054949N0192005N1+01675+01175103155ADDGA1081+005494064GD14085+9999999GD20995+9999999GD30995+9999999GD40995+9999999GF108085999999999999999999MA1999999102845MW1001EQDN01 00000JPWTH 1QNNE11 1 00610E11 1 00099E11 1 00099E11 1 00099G11 1 00018H11 1 15018K11 1 00053L11 1 01200M11 1 30370N11 1 00000Q11 1 10315S11 1 00062V11 1 01010W11 1 22008
034072533014827196103010500C+41000-085217SAO  +0249FWA  V02006859003650365849N0240005N9+00065-00285102205ADDAA101000095GA1021+016764064GA2061+036584034GD12025+9999999GD24065+9999999GD30995+9999999GD40995+9999999GF108085999999999999999999MA1999999099095MW1001EQDN01 00000JPWTH 1QNNE11 1 00203E11 1 00607E11 1 00099E11 1 00099G11 1 00120H11 1 15055H11 1 23120K11 1 00027L11 1 01500M11 1 29260N11 1 00000Q11 1 10220S11 1 00033V11 1 01010W11 1 32007
0057296120999991961103000004+55367+078400FM-12+012099999V0202901N00211002401CN0100001N9-00281-00391101961ADDAY181999GF108991081071002501999999MD1010001+9999MW1261
0057939970999991961031306004-29250+177917FM-12+004999999V0201301N00101220001CN0500001N9+02111+99999101461ADDAY101999GF102991021081008001001001MD1210081+9999MW1021
0066488700999991961032406004+13767+109217SAO  +0006VVQN V0201801N006712200019N0240001N1+02851+02461100661ADDGA1011+004809999GF102991999999999999999999MA1999999100581MW1001
0238724466039291961052717003+38833-094583SAO  +0336GVW  V02018059003652200059N0240005N9+01675+00225999999ADDGD10995+9999999GD20995+9999999GD30995+9999999GD40995+9999999GF100995999999999999999999MW1001EQDN01 00000JPWTH 1QNNE11 1 00099E11 1 00099E11 1 00099E11 1 00099G11U1 99999K11 1 00036L11 1 01500N11 1 00000S11 1 00062V11 1 00099W11 1 55007
0035701040999991961100302004+68883-166133SAO  +0006PALU V0200701N010310075019N0160001N9-00261-00651999999ADDGF108991999999999999999999MW1001
0069471180999991961101316004+37433+127950SAO  +0101RKNH V0209991C000012200019N0112001N1+01301+01071102541ADDGF100991999999999999999999MA1999999101281MW1001EQDQ01+999990APOSP 
0057367290999991961020818004+46167+080933FM-12+038899999V0209991C00001220001CN0500001N9-02501-02781103891ADDAY101999GF100991001001999999001001MD1110071+9999MW1021
0117243820999991961050800004+66450+143233FM-12+016099999V0209991C00001030001CN0020001N9-00111-00281101271ADDAA106001091AA299000391AY171999GF108991031071004501011999HL10009IA1319IA2999-00289KA1999N-00281MD1210071+9999MW1731
0057470410999991961091318004+39900+127517FM-12+003499999V0203401N00311024001CN0100001N9+01721+01721100891ADDAY121999GF108991081001999999021999MD1710091+9999MW1021
0082718070999991961122717004+47300-054000SAO  +0016CYAR V0202481N011310036019N0048001N1+00191+00131099701ADDGA1091+999999999GA2061+003609079GF108991999999999999999999MA1999999099531MW1851
0057322270999991961041121004+59100+159817FM-12+999999999V0201601N00621007801CN0040001N9-00111-00391101441ADDAY171999GF108991081051008001999999MD1710121+9999MW1711
0072471220999991961081818004+37100-127033SAO  +0015RKSO V0200701N001010102019N0080001N9+02551+02501101051ADDGA1051+010209059GF107991999999999999999999MA1999999100881MW1051MW2111
0377999999137691961110205005+36817-076033SAO  +000899999V02004559001552200059N016000599+01395+01335101185ADDGA1999+999999004GA2999+999999999GA3999+999999999GA4999+999999999GD11025+9999993GD20005+9999999GD30005+9999999GD40005+9999999GF102005999999999999999999MA1999999101085EQDN01 00000JPWTH 1QNNE11 1 00102E11 1 00000E11 1 00000E11 1 00000G11U1 99999H11C1 32999H11 1 00999H11 1 00999H11 1 00999K11 1 00056L11 1 01000M11 1 29850N11 1 00000Q11 1 10118S11 1 00057V11 1 00200W11 1 22003
038899999923061196112281800E+37450-105867SAO  +229899999V02020359004152200059N080000599-00785-01505103015ADDAA101000095GA1999+015244064GA2999+999999999GA3999+999999999GA4999+999999999GD10005+9999999GD20005+9999999GD30005+9999999GD40005+9999999GF100005999999999999999999MA1999999077215EQDN01 00000JPWTH 1QNNE11 1 00000E11 1 00000E11 1 00000E11 1 00000G11U1 99999H11 1 15050H11 1 00999H11 1 00999H11 1 00999K11 1 00005L11 1 05000M11 1 22800N11 1 00000Q11 1 10301S11 1 00018V11 1 00000W11 1 56008
0043476620999991961022805004+35683+139767FM-12+000699999V0201401N00311220001CN0040001N9+00941-00671102561ADDAY101999GF100991001001999999001001MW1051
0057400070999991961062512004+36183+037217FM-12+039299999V0202901N00571220001CN0200001N9+03281+01221100141ADDAY101999GF101991011011012501001001MD1710181+9999MW1021
0112987540999991961092121004+07067+125600SAO  +001999999V0203601N001010900019N0320001N1+02301+02241100811ADDGA1021+004509059GA2041+030009049GA3081+090009029GF108991999999999999999999MA1999999100581MD1610041+9999MW1001
0092377080999991961092418004+40550+044767FM-12+999999999V0203401N00311000151CN0000501N9+00501+00501999999ADDAA106001091AA299000391AY151061GF109991091999000251999999KA1999M+00721MD1210041+9999MW1531
0066747950128671961030900004+28233-080600SAO  +0006COF  V0202501N006712200019N0240001N9+02681+01691100981ADDGA1021+007509089GF102991999999999999999999MA1999999100911MW1001
0081167470999991961020718004+35500+024033FM-12+006399999V0209991C00001007801CN0150001N9+00891+00501101631ADDAA199000391AY121999GF108991081051008001999999KA1999M+01111MD1210131+9999MW1031
0057582080999991961061400004+32167+115667FM-12+004699999V0202701N00511036001CN0400001N9+02891+02501100311ADDAY111999GF105991021011008001041001MD1210191+9999MW1011
0101485680999991961061116004+07200+100600SAO  +0005VTSH V0202701N002110060019N0128001N1+02631+02411101111ADDGA1041+006009099GA2071+078009009GF107991999999999999999999MA1999999100971MW1001EQDQ01+999990APOSP 
0068577760999991961102500004+27250+112750FM-12+130999999V0203601N00511000151CN0000001N9+00721+00721102631ADDAA124005091AY141999GF109991091999000251999999MD1210111+9999MW1611
0043259560999991961051503004+60450-169583FM-12+0008APUK V0202701N00411075001CN0500001N9+00221-00221999999ADDAY121999GF107991001001999999001081MW1021
0101489000999991961012819004+10817+106667SAO  +0019VVTS V0200901N002110330019N0096001N1+02571+99999101221ADDGA1071+033009049GA2041+014709059GF107991999999999999999999MA1999999101121MW1001EQDQ01+999990APOSLP
0070594560999991961080718004+22367+110933FM-12+008499999V0209991C00001220001CN9999999N9+02611+02501100641ADDAY111999GF101991011091008001001001KA1999M+03281MD1710021+9999MW1131
0035727937999991961012317004+47917-122283SAO  +0187PAE  V0203151N001010300019N0112001N1+00081-00151999999ADDGF108991999999999999999999MW1001
036199999924144196109210200E+46600-112000SAO  +1167HLN  V02031559004150097549N032000599+00445+00065100585ADDAA101000095GA1999+004574064GA2999+009754064GA3999+027434044GD13005+9999999GD24075+9999999GD30015+9999999GD40995+9999999GF108085999999999999999999MA1999999087135EQDN01 00000JPWTH 1QNNE11 1 00400E11 1 00609E11 1 00001E11 1 00099G11 1 00032H11 1 15015H11 1 15032H11 1 21090K11 1 00033L11 1 02000M11 1 25730N11 1 00000Q11 1 10058S11 1 00040V11 1 01010W11 1 88008
033499999924131196111261600E+43567-116217SAO  +087199999V02018059003650121949N032000599+00395+00115102305ADDAA101000095GA1999+003054134GA2999+012194064GD14005+9999999GD20085+9999999GD30995+9999999GD40995+9999999GF108085999999999999999999MA1999999092085EQDN01 00000JPWTH 1QNNE11 1 00600E11 1 00010E11 1 00099E11 1 00099G11 1 00040H11 1 13010H11 1 15040K11 1 00034L11 1 02000M11 1 27190N11 1 00000Q11 1 10230S11 1 00039V11 1 01010W11 1 55007
0057230740999991961010418004+69400+086167FM-12+002899999V0203201N00621220001CN0020001N9-04001-04281102821ADDAY101999GF100991001001999999001001MD1210111+9999MW1101
039472326013891196103201900C+35817-083983SAO  +0276TYS  V02004559004652200059N0112005N9+01945+00895101775ADDAA101000095GA1011+036584034GA2081+220009024GA3999+999999999GA4999+999999999GD12015+9999999GD24085+9999993GD30005+9999999GD40005+9999999GF108035999999999999999999MA1999999098245MW1001EQDN01 00000JPWTH 1QNNE11 1 00201E11 1 00510E11 1 00000E11 1 00000G11U1 99999H11 1 23120H11C1 37999H11 1 00999H11 1 00999K11 1 00048L11 1 00700M11 1 29010N11 1 00000Q11 1 10177S11 1 00067V11 1 01004W11 1 22009
0035722270138641961110907004+33917-084517SAO  +0329MGE  V0203201N003112200019N0192001N9+00241-00591999999ADDGF100991999999999999999999MW1001
0098107140999991961040307004+49217-007400SAO  +0345EDAM V0202301N005110060019N0128001N9+00781+00671101031ADDGA1031+001509079GA2041+006009059GA3021+024009039GF108991999999999999999999MA1999999096991MW1001
038899999924029196111222300E+44767-106967SAO  +1202SHR  V02024859010852200059N048000599+00785-00335099865ADDAA101000095GA1999+018294064GA2999+036584034GA3999+999999024GA4999+999999999GD12025+9999999GD22025+9999999GD33035+9999999GD40005+9999999GF107065999999999999999999MA1999999086225EQDN01 00000JPWTH 1QNNE11 1 00202E11 1 00203E11 1 00404E11 1 00000G11C1 99999H11 1 15060H11 1 23120H11C1 37999H11 1 00999K11 1 00026L11 1 03000M11 1 25460N11 1 00000Q11 1 09986S11 1 00046V11 1 00907W11 1 76021
038899999903820196108171500E+33367-081967SAO  +0045AGS  V02006859001052200059N011200599+02725+01895102325ADDAA101000095GA1999+009144084GA2999+999999999GA3999+999999999GA4999+999999999GD12025+9999999GD20005+9999999GD30005+9999999GD40005+9999999GF102025999999999999999999MA1999999101835EQDN01 00000JPWTH 1QNNE11 1 00203E11 1 00000E11 1 00000E11 1 00000G11U1 99999H11 1 11030H11 1 00999H11 1 00999H11 1 00999K11 1 00066L11 1 00700M11 1 30070N11 1 00000Q11 1 10232S11 1 00081V11 1 00303W11 1 32002
0269999999231841961091523005+34650-112433SAO  +153099999V02022559007250182949N064000599+02445+01005101325ADDGD13995+9999999GD23995+9999999GD30995+9999999GD40995+9999999GF106065999999999999999999MA1999999084835EQDN01 00000JPWTH 1QNNE11 1 00499E11 1 00499E11 1 00099E11 1 00099G11 1 00060K11 1 00050L11 1 04000M11 1 25050N11 1 00000Q11 1 10132S11 1 00076V11 1 00707W11 1 66014
0050871780999991961071218004-27367-055967FM-12+013399999V0203601N003119999999N0200001N9+02441+01671999999ADDGF105991031021012501061001IA1009MA1999999099621
0050722435999991961040422004+29650-095283SAO  +0019HOU  V0201581N006212200019N0240001N1+02461+01131101291ADDGF100991999999999999999999MA1999999101051MW1001
0308999999039271961111506005+32833-097050SAO  +017599999V02036059005750003049N003200599+01065+01065101475ADDGA1999+000304104GD15085+9999999GD20995+9999999GD30995+9999999GD40995+9999999GF108085999999999999999999MA1999999099395MW1455MW2515EQDN01 03370JPWTH 1QNNE11 1 00710E11 1 00099E11 1 00099E11 1 00099G11 1 00001H11 1 45001K11 1 00051L11 1 00200M11 1 29350N11 1 03370Q11 1 10147S11 1 00051V11 1 01010W11 1 11011
038899999923188196107271800E+32733-117167SAO  +0011MYF  V02031559005752200059N012800599+02395+01725101635ADDAA101000095GA1999+004574074GA2999+999999004GA3999+999999999GA4999+999999999GD11005+9999993GD20015+9999999GD30005+9999999GD40005+9999999GF101005999999999999999999MA1999999101525EQDN01 00000JPWTH 1QNNE11 1 00100E11 1 00001E11 1 00000E11 1 00000G11U1 99999H11 1 16015H11C1 32999H11 1 00999H11 1 00999K11 1 00063L11 1 00800M11 1 29980N11 1 00000Q11 1 10163S11 1 00075V11 1 00100W11 1 88011
0029636610999991961022403004+01000+035000FM-12+189099999V0200901N00101220001CN0300001N9+01281+00671999999ADDGF100991001001999999001001
0057248560999991961041418004+61483+129650FM-12+011299999V0203601N00101220001CN0200001N9-01721-02111101231ADDAY101999GF100991001001999999001001MD1710141+9999MW1021
0377999999242551961071103005+99999+999999SAO  +999999999V02027059004152200059N024000599+02065+01335102035ADDGA1999+999999024GA2999+999999999GA3999+999999999GA4999+999999999GD12025+9999999GD20005+9999999GD30005+9999999GD40005+9999999GF102025999999999999999999MA1999999101835EQDN01 00000JPWTH 1QNNE11 1 00202E11 1 00000E11 1 00000E11 1 00000G11U1 99999H11C1 37999H11 1 00999H11 1 00999H11 1 00999K11 1 00056L11 1 01500M11 1 30070N11 1 00000Q11 1 10203S11 1 00069V11 1 00202W11 1 77008
0066722400039371961092723004+30117-093317SAO  +0010LCH  V0202031N003112200019N0160001N1+03071+01961101861ADDGA1011+012009089GF102991999999999999999999MA1999999101761MW1001
0269999999231821961030512005+34633-118083SAO  +0767PMD  V02099999000052200059N024000599-00175-00725101055ADDGD13995+9999993GD20995+9999999GD30995+9999999GD40995+9999999GF107025999999999999999999MA1999999092145EQDN01 00000JPWTH 1QNNE11 1 00399E11 1 00099E11 1 00099E11 1 00099G11U1 99999K11 1 00019L11 1 01500M11 1 27210N11 1 00000Q11 1 10105S11 1 00029V11 1 00902W11 1 00000
038899999914935196105252100E+40967-098317SAO  +056799999V02002359011852200059N024000599+01945+01005101815ADDAA101000095GA1999+012194084GA2999+999999999GA3999+999999999GA4999+999999999GD10005+9999999GD20005+9999999GD30005+9999999GD40005+9999999GF100005999999999999999999MA1999999095265EQDN01 00000JPWTH 1QNNE11 1 00000E11 1 00000E11 1 00000E11 1 00000G11U1 99999H11 1 11040H11 1 00999H11 1 00999H11 1 00999K11 1 00050L11 1 01500M11 1 28130N11 1 00000Q11 1 10181S11 1 00067V11 1 00000W11 1 12023
0057345190999991961103109004+48067+037767FM-12+025999999V0201601N00211000151CN0005001N9+01001+01001102291ADDAY141999GF109991091999000251999999MD1210041+9999MW1431
0057269410999991961012812004+53117+026000FM-12+019499999V0202301N00411220001CN0100001N9-00501-01611102631ADDAY111999GF103991001001999999001031MD1710201+9999MW1011
0072937800999991961042018004-43483+172533FM-12+003499999V0209991C00001220001CN0450001N9+00221+00221102461ADDAY101999GA1011+090009009GF101991001001999999001041KA1999N+00221MW1021
0029409300999991961090603004+35367+069050FM-12+335099999V0209991C00001220001CN0200001N9+99999+99999999999ADDGF100991999999999999999999
030799999924131196111200200E+43567-116217SAO  +087199999V02011359002650152449N048000599+00115-00945101425ADDAA101000095GA1999+015244044GD14085+9999999GD20995+9999999GD30995+9999999GD40995+9999999GF108085999999999999999999MA1999999091165EQDN01 00000JPWTH 1QNNE11 1 00610E11 1 00099E11 1 00099E11 1 00099G11 1 00050H11 1 21050K11 1 00015L11 1 03000M11 1 26920N11 1 00000Q11 1 10142S11 1 00034V11 1 01010W11 1 34005
0057161900999991961053112004+43617+013517FM-12+010599999V0201801N00461007801CN0100001N9+01781+01611100901ADDAY141999GF106991061021008001001001MD1110061+9999MW1601
0232999999340521961041609005+48100+005050SAO  +0313LFQU V02015859002652200059N017600599+01285+01005999999ADDGD12995+9999999GD23995+9999999GD30995+9999999GD40995+9999999GF105995999999999999999999EQDN01 00000JPWTH 1QNNE11 1 00299E11 1 00499E11 1 00099E11 1 00099G11C1 99999K11 1 00050L11 1 01100N11 1 00000S11 1 00055V11 1 00699W11 1 54005
0057124250999991961080115004+51133+016983FM-12+011999999V0202701N00721220001CN0200001N9+02111+00891101641ADDAY101999GF102991021021012501001001MD1710101+9999MW1011
0035727125146231961071404004+46933-067883SAO  +0227LIZ  V0200501N001012200019N0160001N9+01351+01191999999ADDGF100991999999999999999999MW1001
0057343360999991961061603004+49933+040567FM-12+008399999V0200501N00211012301CN0200001N9+02001+01221101141ADDAY121999GF108991081051012501999999MD1710011+9999MW1031
0111476780999991961043000004+33100+139783FM-12+008199999V0202901N007719999999N0500001N9+01891+01441101801ADDAJ100009199999999AY101999GA1031+999999999GF104991041021008001001001IA1009MA1999999100851MD1210011+9999MW1011
0072663180999991961112018004-12800+015750FM-12+170199999V0202501N00311220001CN0400001N9+01781+01611999999ADDAY121999GA1011+009009059GF101991011051008001001011KA1999M+02391MW1011
031972363023047196102050900C+35233-101700SAO  +1100AMA  V02036059008250018349N0032005N1-00945-01005102995ADDAA101000095GA1091+001834104GD15085+9999999GD20995+9999999GD30995+9999999GD40995+9999999GF108085999999999999999999MA1999999089945MW1455MW2715EQDN01 04070JPWTH 1QNNE11 1 00710E11 1 00099E11 1 00099E11 1 00099G11 1 00006H11 1 45006K11 1 00014L11 1 00200M11 1 26560N11 1 04070Q11 1 10299S11 1 00015V11 1 01010W11 1 11016
0057105460999991961112912004+50650+010150FM-12+048799999V0202401N00821220001CN0150001N9+00281-00111101761ADDAY111061GF104991041081004501001001MD1810051+9999MW1031
033499999913882196112110300E+35033-085200SAO  +021099999V02002359003650015249N016000599+01115+01065102305ADDAA101000095GA1999+001524154GA2999+006104064GD13075+9999999GD24015+9999999GD30995+9999999GD40995+9999999GF108085999999999999999999MA1999999099805EQDN01 00000JPWTH 1QNNE11 1 00409E11 1 00601E11 1 00099E11 1 00099G11 1 00005H11 1 17005H11 1 15020K11 1 00051L11 1 01000M11 1 29470N11 1 00000Q11 1 10230S11 1 00052V11 1 01010W11 1 12007
0081331350999991961031618004+51483+031283FM-12+013799999V0202701N00211220001CN0100001N9+00001-00501100911ADDAA199000091AY121999GF106991031051004501001011KA1999M+00221MD1310061+9999MW1021
0050479310999991961013108004+26350+127750SAO  +0046RODN V0203401N008210090019N0160001N9+01221+00671102101ADDGF108991999999999999999999MA1999999101541MW1801
0377999999422151961042317005+26267+127750SAO  +0084ROTM V02099999000052200059N024000599+01785+01615101315ADDGA1999+005494084GA2999+999999004GA3999+999999999GA4999+999999999GD12015+9999999GD23045+9999993GD30005+9999999GD40005+9999999GF105025999999999999999999MA1999999100415EQDN01 00000JPWTH 1QNNE11 1 00201E11 1 00305E11 1 00000E11 1 00000G11U1 99999H11 1 11018H11C1 32999H11 1 00999H11 1 00999K11 1 00061L11 1 01500M11 1 29650N11 1 00000Q11 1 10131S11 1 00064V11 1 00602W11 1 00000
038899999914820196109120300E+41400-081850SAO  +024899999V02020359003652200059N012800599+02225+01945101635ADDAA101000095GA1999+999999004GA2999+999999999GA3999+999999999GA4999+999999999GD11025+9999993GD20005+9999999GD30005+9999999GD40005+9999999GF102015999999999999999999MA1999999098755EQDN01 00000JPWTH 1QNNE11 1 00102E11 1 00000E11 1 00000E11 1 00000G11U1 99999H11C1 32999H11 1 00999H11 1 00999H11 1 00999K11 1 00067L11 1 00800M11 1 29160N11 1 00000Q11 1 10163S11 1 00072V11 1 00201W11 1 56007
031972641014837196111020600C+43133-089333SAO  +0266MSN  V02015859005750003049N0024005N9+01175+01115099865ADDAA101000395GA1081+000304134GD14085+9999999GD20995+9999999GD30995+9999999GD40995+9999999GF108085999999999999999999MA1999999096755MW1455MW2615EQDN01 02070JPWTH 1QNNE11 1 00610E11 1 00099E11 1 00099E11 1 00099G11 1 00001H11 1 13001K11 1 00052L11 1 00150M11 1 28570N11 1 02070Q11 1 09986S11 1 00053V11 1 01010W11 1 54011
0057562570999991961070109004+30000+100267FM-12+418899999V0209991C00001015001CN0600001N9+01611+00781999999ADDAY121999GF107991061091017501999031MD1810081+9999MW1171
0066466960999991961070512004+25067+121550SAO  +0006RC55 V0200901N000512200019N0064001N1+02911+02571100521ADDGA1011+009009049GF102991999999999999999999MA1999999100411MW1051
0035471066999991961112802004+37933+127050SAO  +0060RKST V0201801N003610075019N0112001N9+01171+00671999999ADDGF107991999999999999999999MW1001
0057357960999991961102221004+46900+075000FM-12+042399999V0202701N00211012301CN0100001N9+00221-00281102041ADDAY121999GF108991061051012501051999MD1710071+9999MW1031
0057295740999991961120209004+56000+092883FM-12+019499999V0202501N01181220001CN0100001N9-01501-02111104241ADDAY121999GF108991001001999999001071MD1210311+9999MW1021
0011474130999991961062509004+43217+141783FM-12+003399999V0201801N004619999999N9999999N9+01891+99999999999ADDAY101999
0043370000999991961072821004+44717+037783FM-12+003799999V0200501N00981220001CN0200001N9+02501+01501100941ADDAY101031GF103991021011012501001011MW1021
0092333930999991961031218004+49817+023950FM-12+032599999V0202501N00721012301CN0040001N9+00781+00281999999ADDAA106075091AA224999999AY161999GF108991061051012501021999KA1999M+01001MD1710251+9999MW1101
036799999912844196108172100E+26683-080100SAO  +000999999V02009059003650304849N024000599+02835+02395101635ADDAA101000095GA1999+007624084GA2999+030484044GA3999+999999004GD12015+9999999GD23065+9999999GD34015+9999999GD40995+9999999GF108085999999999999999999MA1999999101565MW1955EQDN01 01000JPWTH 1QNNE11 1 00201E11 1 00408E11 1 00601E11 1 00099G11 1 00100H11 1 11025H11 1 21100H11C1 32999K11 1 00075L11 1 01500M11 1 29990N11 1 01000Q11 1 10163S11 1 00083V11 1 01010W11 1 33007
0035036440999991961081710004+51683-001767SAO  +0087EGVA V0203401N004610069019N0176001N9+01741+01021999999ADDGF107991999999999999999999MW1001
0091685120999991961072018004+29600+017867FM-12+090099999V0203201N00261220001CN0350001N9+01671+00611999999ADDAY121999GF101991999001999999051001MA1999999091871MD1210081+9999MW1021EQDQ01+000002SCOTLC
0238722165138151961030608003+31583-084117SAO  +0068TRF  V02099999000050125049N0160005N1+01895+01675999999ADDGD13995+9999999GD23995+9999999GD33995+9999999GD40995+9999999GF107995999999999999999999MW1001EQDN01 00000JPWTH 1QNNE11 1 00499E11 1 00499E11 1 00499E11 1 00099G11 1 00041K11 1 00062L11 1 01000N11 1 00000S11 1 00066V11 1 00999W11 1 00000
0057277310999991961010521004+54617+039717FM-12+013599999V0201801N00621000151CN0005001N9-00111-00111102781ADDAY141999GF109991091999000251999999MD1410001+9999MW1451
0035727675940111961031117004+48417-101333SAO  +0512MIB  V0201601N001512200019N0240001N9-00551-00891999999ADDGF107991999999999999999999MW1001
0302725196147171961062215003+43233-075417SAO  +0145RME  V02031559003150042749N0096005N9+01445+01285101175ADDGA1081+004274074GD14085+9999999GD20995+9999999GD30995+9999999GD40995+9999999GF108085999999999999999999MA1999999099395MW1445EQDN01 07200JPWTH 1QNNE11 1 00610E11 1 00099E11 1 00099E11 1 00099G11 1 00014H11 1 16014K11 1 00055L11 1 00600M11 1 29350N11 1 07200Q11 1 10117S11 1 00058V11 1 01010W11 1 88006
0051934360999991961040209004-41333+174800SAO  +0007NZWN V0201601N005712200019N0320001N1+01191+99999101191ADDGA1011+009009009GF102991999999999999999999MW1001
0057601270999991961081212004+34217-004000FM-12+051099999V0200901N00621220001CN0250001N9+03111+01781101321ADDAY101999GF100991001001999999001001MD1810111+9999MW1021
0057578450999991961103009004+26417+109500FM-12+999999999V0200401N00211002401CN0060001N9+01221+01111102371ADDAY161999GF108991071071002501021999MD1710031+9999MW1601
0051488750999991961110308004+12683+108083SAO  +0537VVSB V0200681N003119999999N0192001N1+99999+99999999999ADDGA1031+003909029GF107991999999999999999999MW1001
038899999924029196106121800E+44767-106967SAO  +1202SHR  V02009059004152200059N048000599+02785+00945100555ADDAA101000095GA1999+021344084GA2999+999999004GA3999+999999999GA4999+999999999GD12035+9999999GD23045+9999993GD30005+9999999GD40005+9999999GF107035999999999999999999MA1999999087235EQDN01 00000JPWTH 1QNNE11 1 00204E11 1 00305E11 1 00000E11 1 00000G11U1 99999H11 1 11070H11C1 32999H11 1 00999H11 1 00999K11 1 00049L11 1 03000M11 1 25760N11 1 00000Q11 1 10055S11 1 00082V11 1 00904W11 1 33008
019872353013967196106231300C+35400-097600SAO  +0390OKC  V02006859006252200059N0240005N1+02115+01335101835ADDAA101000095GA1001+999999999GF100005999999999999999999MA1999999097295MW1001EQDN01 00000JPWTH 1QNNG11U1 99999K11 1 00056L11 1 01500M11 1 28730N11 1 00000Q11 1 10183S11 1 00070V11 1 00000W11 1 32012
0171700860274011961120817003+70133-143633SAO  +0015BTI  V02020359005252200059N0160005N1-02945-03505104175ADDGF100005999999999999999999MA1999999103965MW1001EQDN01 00000JPWTH 1QNNG11U1 99999K11 1-00031L11 1 01000M11 1 30700N11 1 00000Q11 1 10417S11 1-00021V11 1 00000W11 1 56010
0057593030999991961112900004+23950+115767FM-12+005799999V0209991C00001220001CN0100001N9+02111+02001101861ADDAY111999GF101991011081017501041001MD1210101+9999MW1011
0269999999230701961070317005+37250-104333SAO  +1749TAD  V02015859003152200059N096000599+02505+01395101825ADDGD10995+9999999GD20995+9999999GD30995+9999999GD40995+9999999GF100005999999999999999999MA1999999083035EQDN01 00000JPWTH 1QNNE11 1 00099E11 1 00099E11 1 00099E11 1 00099G11U1 99999K11 1 00057L11 1 06000M11 1 24520N11 1 00000Q11 1 10182S11 1 00077V11 1 00000W11 1 54006
0218725196147171961083114003+43233-075417SAO  +0145RME  V02099999000050045749N0032005N9+02115+01895999999ADDGD14995+9999999GD20995+9999999GD30995+9999999GF108995999999999999999999MW1055MW2455EQDN01 07081JPWTH 1QNNE11 1 00699E11 1 00099E11 1 00099G11 1 00015K11 1 00066L11 1 00200N11 1 07081S11 1 00070V11 1 01099W11 1 00000
0092282250999991961082418004+58017+056300FM-12+016199999V0201601N00411220001CN0040001N9+01781+01391101151ADDAA106016091AA299004091AY191999GF103991021091012501031001KA1999M+02221MD1210071+9999MW1131
009094999900346196107070500N-41000+145730AUST +0020     V0202255N007759999999N999999999+00865+00405999999ADDAY124999GA1045+009005085GA2085+999999045GF108995044085009005025999MA1999999100955MW1025
0377999999150401961062900005+51383-001283SAO  +0125EGVI V02022559001552200059N017600599+01285+00785102885ADDGA1999+999999004GA2999+999999999GA3999+999999999GA4999+999999999GD12015+9999999GD20005+9999999GD30005+9999999GD40005+9999999GF101015999999999999999999MA1999999101395EQDN01 00000JPWTH 1QNNE11 1 00201E11 1 00000E11 1 00000E11 1 00000G11U1 99999H11C1 32999H11 1 00999H11 1 00999H11 1 00999K11 1 00046L11 1 01100M11 1 29940N11 1 00000Q11 1 10288S11 1 00055V11 1 00101W11 1 66003
0057238670999991961091109004+61283+080417FM-12+999999999V0201801N00511030001CN0100001N9+01391+00781100991ADDAY121999GF107991021011012501071001MD1710041+9999MW1021
0377999999149041961032412005+40850-096767SAO  +0356LNK  V02099999000052200059N011200599-00335-00505102035ADDGA1999+999999004GA2999+999999999GA3999+999999999GA4999+999999999GD11025+9999993GD20005+9999999GD30005+9999999GD40005+9999999GF102015999999999999999999MA1999999097605EQDN01 00000JPWTH 1QNNE11 1 00103E11 1 00000E11 1 00000E11 1 00000G11U1 99999H11C1 32999H11 1 00999H11 1 00999H11 1 00999K11 1 00023L11 1 00700M11 1 28820N11 1 00000Q11 1 10203S11 1 00026V11 1 00301W11 1 00000
028099999924057196108180800E+41800-107200SAO  +2056RWL  V02099999000052200059N024000599+01115+00445101945ADDAA101000095GD10995+9999999GD20995+9999999GD30995+9999999GD40995+9999999GF100005999999999999999999MA1999999080025EQDN01 00000JPWTH 1QNNE11 1 00099E11 1 00099E11 1 00099E11 1 00099G11U1 99999K11 1 00040L11 1 01500M11 1 23630N11 1 00000Q11 1 10194S11 1 00052V11 1 00000W11 1 00000
0083477670999991961082412004+34450+133250FM-12+000399999V0202001N001019999999N9999999N9+02721+99999100911ADDAJ100009199999999AY101999KA1999M+03441KA2999N+02441MA1999999100881MD1210151+9999
0082722545999991961080721004+30200-097667SAO  +0165BSM  V0201601N003612200019N0240001N9+03461+01571101371ADDGA1021+013509089GA2041+220009009GF102991999999999999999999MA1999999099461MW1001
0068789880999991961032118004+12183-068983FM-12+999999999V0201101N009319999999N0600001N9+02891+02111101091ADDAA106000691AY181999GF102991021011004501001011MD1710261+9999MW1031
0296999999129571961042113005+26167-097333SAO  +0008PIL  V02013559009350030549N016000599+02445+02115101765ADDGA1999+003054064GD14085+9999999GD20995+9999999GD30995+9999999GD40995+9999999GF108085999999999999999999MA1999999101665EQDN01 00000JPWTH 1QNNE11 1 00610E11 1 00099E11 1 00099E11 1 00099G11 1 00010H11 1 15010K11 1 00070L11 1 01000M11 1 30020N11 1 00000Q11 1 10176S11 1 00076V11 1 01010W11 1 44018
0269999999242831961060900005+40983-124100SAO  +0062ACV  V02029359002650121949N019200599+01445+00895101935ADDGD12995+9999999GD24995+9999999GD30995+9999999GD40995+9999999GF108085999999999999999999MA1999999101085EQDN01 00000JPWTH 1QNNE11 1 00299E11 1 00699E11 1 00099E11 1 00099G11 1 00040K11 1 00048L11 1 01200M11 1 29850N11 1 00000Q11 1 10193S11 1 00058V11 1 01010W11 1 78005
0057125950999991961030209004+50717+023250FM-12+021399999V0202701N00411007801CN0100001N9+00221+00001102761ADDAY121999GF108991081051008001999999MD1210111+9999MW1021
0035471410432191961120902001+35900+126617SAO  +0013RKJK V0201101N004112200019N0160001N9+00461+00081102681ADDGF107991999999999999999999MW1001
0081400910999991961062918004+32767+035700FM-12+033999999V0202801N00151220001CN0300001N9+02391+01781100731ADDAA124000091AY101999GF100991001001999999001001KA1999M+03281MD1110061+9999MW1021
0057131560999991961052015004+45533+018733FM-12+009299999V0200501N00101007801CN0100001N9+01501+01221100621ADDAY161999GF108991081061008001999999MD1410001+9999MW1601
0057470030999991961021603004+42317+130400FM-12+008999999V0201401N00411220001CN0200001N9-00611-01001101331ADDAY101999GF102991021051008001001021MD1810321+9999MW1031
0078479090999991961081423004+28383+129500FM-12+000499999V0201401N00101002701CN0190001N9+02781+02561100911ADDAY101999GA1061+002709019GF199999031021008001001021MW1021EQDQ01+000042SCOTCV
0269999999116401961032404005+18333-064967SAO  +000299999V02009059002152200059N024000599+02335+02175101635ADDGD11995+9999993GD20995+9999999GD30995+9999999GD40995+9999999GF102005999999999999999999MA1999999101595EQDN01 00000JPWTH 1QNNE11 1 00199E11 1 00099E11 1 00099E11 1 00099G11U1 99999K11 1 00071L11 1 01500M11 1 30000N11 1 00000Q11 1 10163S11 1 00074V11 1 00300W11 1 33004
0275999999265121961091922005+63883-152283SAO  +021499999V02018059003150067149N024000599+00675+00395101055ADDGD12995+9999999GD23995+9999999GD34995+9999999GD40995+9999999GF108085999999999999999999MA1999999098375MW1615EQDN01 02000JPWTH 1QNNE11 1 00299E11 1 00499E11 1 00699E11 1 00099G11 1 00022K11 1 00039L11 1 01500M11 1 29050N11 1 02000Q11 1 10105S11 1 00044V11 1 01010W11 1 55006
0057247840999991961071509004+62600+140700FM-12+999999999V0202301N00311007801CN0200001N9+00721+00611098881ADDAY161999GF108991071071008001021999MD1710051+9999MW1211
0057271960999991961052400004+58650+049617FM-12+016499999V0202501N00621220001CN0100001N9+00611+00111100361ADDAY111999GF103991031041012501001001MD1210031+9999MW1021
038899999913874196111011200E+33650-084417SAO  +030399999V02024859003652200059N016000599+01835+01615101195ADDAA101000095GA1999+027434034GA2999+999999999GA3999+999999999GA4999+999999999GD12045+9999999GD20005+9999999GD30005+9999999GD40005+9999999GF104035999999999999999999MA1999999097835EQDN01 00000JPWTH 1QNNE11 1 00205E11 1 00000E11 1 00000E11 1 00000G11U1 99999H11 1 23090H11 1 00999H11 1 00999H11 1 00999K11 1 00061L11 1 01000M11 1 28890N11 1 00000Q11 1 10119S11 1 00065V11 1 00504W11 1 76007
0066744910147031961032503004+42200-072533SAO  +0075CEF  V0209991C000010138019N0112001N9+00301-00041100781ADDGA1071+013809059GF107991999999999999999999MA1999999099831MW1001
0070529960999991961072718004+35417+104833FM-12+240899999V0201401N00511220001CN0400001N9+01501+01281999999ADDAY111999GF101991001001999999001021KA1999M+02111MD1710011+9999MW1011
0057541810999991961070321004+43717+127150FM-12+027599999V0209991C00001007801CN0004001N9+01611+01611100291ADDAY141031GF108991081091008001999999MD1210151+9999MW1951
041072389093193196104091400C+36767-119717SAO  +0100FAT  V02013559002152200059N0240005N9+00895+00335101465ADDAA101000095GA1999+045724034GA2999+999999999GA3999+999999999GA4999+999999999GD10005+9999999GD20005+9999999GD30005+9999999GD40005+9999999GF100005999999999999999999MA1101461100275MW1001EQDQ01    003SCCGA1N01 00000JPWTH 1QNNE11 1 00000E11 1 00000E11 1 00000E11 1 00000G11U1 99999H11 1 23150H11 1 00999H11 1 00999H11 1 00999K11 1 00038L11 1 01500M11 1 29610N11 1 00000Q11 1 10146S11 1 00048V11 1 00000W11 1 44004
0377999999149311961060502005+40783-091117SAO  +0212BRL  V02099999000052200059N024000599+02115+00835101485ADDGA1999+999999004GA2999+999999999GA3999+999999999GA4999+999999999GD11045+9999993GD20005+9999999GD30005+9999999GD40005+9999999GF104025999999999999999999MA1999999098955EQDN01 00000JPWTH 1QNNE11 1 00105E11 1 00000E11 1 00000E11 1 00000G11U1 99999H11C1 32999H11 1 00999H11 1 00999H11 1 00999K11 1 00047L11 1 01500M11 1 29220N11 1 00000Q11 1 10148S11 1 00070V11 1 00502W11 1 00000
0057311120999991961071921004+57800+127883FM-12+999999999V0203601N00211002401CN0040001N9+01221+01111099471ADDAY121999GF108991081061002501999999MD1210021+9999MW1021
0067413160999991961060209004+17050+054100FM-12+0017OOSA V0202001N00621105001CN0080001N9+03171+02501100711ADDGA1021+006009059GA2071+105009009GF107991021051008001001021IA1009
0057325400999991961090509004+52967+158750FM-12+000799999V0200901N00101220001CN0200001N9+01221+01221100191ADDAY181999GF104991041041012501001001MD1310171+9999MW1021
0269999999230901961040420005+36750-108233SAO  +167799999V02024859006252200059N120000599+02505-00065100665ADDGD12995+9999999GD20995+9999999GD30995+9999999GD40995+9999999GF102025999999999999999999MA1999999082705EQDN01 00000JPWTH 1QNNE11 1 00299E11 1 00099E11 1 00099E11 1 00099G11U1 99999K11 1 00031L11 1 07500M11 1 24420N11 1 00000Q11 1 10066S11 1 00077V11 1 00202W11 1 76012
0275999999242301961112701005+44267-121150SAO  +0934RDM  V02033859001550213449N001600599-00175-00285102305ADDGD16995+9999999GD24995+9999999GD30995+9999999GD40995+9999999GF108085999999999999999999MA1999999091205MW1455EQDN01 07000JPWTH 1QNNE11 1 00899E11 1 00699E11 1 00099E11 1 00099G11 1 00070K11 1 00027L11 1 00100M11 1 26930N11 1 07000Q11 1 10230S11 1 00029V11 1 01010W11 1 18003
006172253612911196101151300D+29533-098283SAO  +0232RND  V0203201N002112200019N0320001N9+00631+00081101831ADDAA101000095GF100991999999999999999999MA1999999099021MW1001
