039472258013960196207171800C+32850-096850SAO  +0159DAL  V02027059004152200059N0240005N1+03335+02225101835ADDAA101000095GA1021+015244094GA2011+036584034GA3021+220009004GA4999+999999999GD12025+9999999GD22015+9999999GD32025+9999999GD40005+9999999GF104045999999999999999999MA1999999100145MW1001EQDN01 00000JPWTH 1QNNE11 1 00202E11 1 00201E11 1 00202E11 1 00000G11U1 99999H11 1 18050H11 1 23120H11C1 32999H11 1 00999K11 1 00072L11 1 01500M11 1 29570N11 1 00000Q11 1 10183S11 1 00092V11 1 00505W11 1 77008
0082749401999991962052818004-14367-170783SAO  +002199999V0209991C000012200019N0160001N1+02241+02181999999ADDGA1011+009009089GA2061+220009009GF107991999999999999999999MA1999999100881MW1001
0070542180999991962092412004+42267+118900FM-12+056599999V0203401N00211220001CN0200001N9+01221-00501102341ADDAY101061GF100991001001999999001001KA1999M+01611MD1110201+9999MW1021
0383999999412241962072412005+14500+120917SAO  +0002RPMS V02022559006250243849N011200599+02565+02445100725ADDGA1999+004574084GA2999+015244064GA3999+024384044GA4999+999999024GD12025+9999999GD22025+9999999GD33025+9999999GD44025+9999999GF108065999999999999999999MA1999999100715MW1615EQDN01 02000JPWTH 1QNNE11 1 00202E11 1 00203E11 1 00403E11 1 00602G11 1 00080H11 1 11015H11 1 15050H11 1 21080H11C1 37999K11 1 00076L11 1 00700M11 1 29740N11 1 02000Q11 1 10072S11 1 00078V11 1 01008W11 1 66012
0035724338138021962110507004+38550-089850SAO  +0138BLV  V0203201N005112200019N0193121N9+00111-00551999999ADDGF102991999999999999999999MW1001
0243999999254031962102019005+59450-146317SAO  +0037MDO  V02015859004150061049N024000599+00565+00175100885ADDGD13995+9999999GD23995+9999999GD30995+9999999GD40995+9999999GF106995999999999999999999EQDN01 00000JPWTH 1QNNE11 1 00499E11 1 00499E11 1 00099E11 1 00099G11 1 00020K11 1 00035L11 1 01500N11 1 00000Q11 1 10088S11 1 00042V11 1 00899W11 1 54008
0092206650999991962081806004+73533+075717FM-12+999999999V0203601N00621004501CN0100001N9+00611+00391100461ADDAA106000091AA224999999AY151999GF108991081051004501999999KA1999N+00611MD1710051+9999MW1021
0072626000999991962022018004+21833+031300FM-12+015599999V0203501N00671220001CN0160001N9+01501-00111102081ADDAY111999GA1021+075009009GF102991001001999999001051KA1999M+02111MW1061
0081567780999991962051121004+25033+102717FM-12+189499999V0209991C00001220001CN0150001N9+01391+01221999999ADDAY101999GF100991001001999999001001MA1999999091301MD1810011+9999ME1315109MW1021
0244999999150331962080701005+52367+000217SAO  +0049EGWZ V02004559007250009149N004800599+01225+01175999999ADDGD14995+9999999GD20995+9999999GD30995+9999999GD40995+9999999GF108995999999999999999999MW1455MW2615EQDN01 02070JPWTH 1QNNE11 1 00699E11 1 00099E11 1 00099E11 1 00099G11 1 00003K11 1 00053L11 1 00300N11 1 02070S11 1 00054V11 1 01099W11 1 22014
0100598550999991962031100004+19283+110467FM-12+003799999V0200401N00211012301CN0180001N9+02221+02111101501ADDAA106000691AY121999GF107991071041012501999999KA1999N+02221MD1110191+9999MW1251EQDQ01  00063PRCP99
0377999999861011962022720005-66267+110567SAO  +001299999V02009059002152200059N024000599-00505-00615097055ADDGA1999+012194064GA2999+999999999GA3999+999999999GA4999+999999999GD12035+9999999GD20005+9999999GD30005+9999999GD40005+9999999GF103035999999999999999999MA1999999096955EQDN01 00000JPWTH 1QNNE11 1 00204E11 1 00000E11 1 00000E11 1 00000G11U1 99999H11 1 15040H11 1 00999H11 1 00999H11 1 00999K11 1 00021L11 1 01500M11 1 28630N11 1 00000Q11 1 09705S11 1 00023V11 1 00404W11 1 33004
0081561930999991962090600004+32417+104583FM-12+087799999V0203201N00101036001CN0200001N9+01891+01501101651ADDAY121999GF107991011041017501041001MA1999999091901MD1110111+9999ME1315509MW1021
0057383920999991962050506004+41833+059817FM-12+008899999V0200501N00311220001CN0200001N9+02501+00781101461ADDAY101999GF102991011011012501081001MD1210101+9999MW1021
0082719450999991962072019004+58833-122583SAO  +0375CYYE V0203381N006210060019N0480001N1+02021+01571101061ADDGA1021+004509059GA2031+006009089GF107991999999999999999999MA1999999096611MW1001
0035724240138071962031205004+37900-085967SAO  +0233FTK  V0201601N003612200019N0112001N9+00631+00411999999ADDGF100991999999999999999999MW1001
0377999999433251962012903005+35517+139400SAO  +0107RJTW V02015859005752200059N016000599+00835-00445101095ADDGA1999+015244064GA2999+999999999GA3999+999999999GA4999+999999999GD12015+9999999GD20005+9999999GD30005+9999999GD40005+9999999GF101015999999999999999999MA1999999099705EQDN01 00000JPWTH 1QNNE11 1 00201E11 1 00000E11 1 00000E11 1 00000G11U1 99999H11 1 15050H11 1 00999H11 1 00999H11 1 00999K11 1 00024L11 1 01000M11 1 29440N11 1 00000Q11 1 10109S11 1 00047V11 1 00101W11 1 54011
0165999999242551962100507005+99999+999999SAO  +999999999V02011359001052200059N024000599+00835+00615101755ADDGF100005999999999999999999MA1999999101565EQDN01 00000JPWTH 1QNNG11U1 99999K11 1 00043L11 1 01500M11 1 29990N11 1 00000Q11 1 10175S11 1 00047V11 1 00000W11 1 34002
0070582410999991962081906004+32683+119000FM-12+999999999V0202901N00411015001CN0300001N9+02721+02391100831ADDAY121999GF107991071081017501999999KA1999N+02391MD1710131+9999MW1031
0035106160999991962081707004+49950+007267SAO  +0503EDAH V0202001N004610210019N0240001N9+01551+00941999999ADDGF108991999999999999999999MW1001
0040745160232021962101800004+38267-121933SAO  +0019SUU  V0203601N007212200019N0400001N9+02331+00391101321ADDGA1091+004509999MA1999999101051MW1001
0232999999138221962060120005+34767-082383SAO  +029899999V02027059003652200059N024000599+03005+01565999999ADDGD12995+9999999GD24995+9999993GD30995+9999999GD40995+9999999GF108995999999999999999999EQDN01 00000JPWTH 1QNNE11 1 00299E11 1 00599E11 1 00099E11 1 00099G11U1 99999K11 1 00060L11 1 01500N11 1 00000S11 1 00086V11 1 01099W11 1 77007
0057125750999991962102300004+50033+020983FM-12+020999999V0209991C00001220001CN0040001N9+00221+00111102891ADDAY101999GF100991001001999999001001MD1710031+9999MW1101
0057282750999991962010612004+58150+068183FM-12+004499999V0202001N011819999999N0100001N9-00891-01221098971ADDAY171999GF108991021999999999021999MD1310021+9999MW1711
0098988360999991962092208004+06900+122067SAO  +0006RPMZ V0209991C000010360019N0320001N1+02801+02301100941ADDGA1011+006009089GA2051+036009049GA3081+090009029GF108991999999999999999999MA1999999100851MW1001
0281999999265281962020108005+62300-150100SAO  +010799999V02018059002650045749N004800599-01005-01005100575ADDGD15995+9999999GD20995+9999999GD30995+9999999GD40995+9999999GF108085999999999999999999MA1999999099195MW1455MW2715EQDN01 04070JPWTH 1QNNE11 1 00799E11 1 00099E11 1 00099E11 1 00099G11 1 00015K11 1 00014L11 1 00300M11 1 29290N11 1 04070Q11 1 10057S11 1 00014V11 1 01010W11 1 55005
0070545180999991962120706004+39183+116367FM-12+999999999V0201801N00211220001CN0080001N9+00611-00221102301ADDAY101061GF100991001001999999001001KA1999N-01001MD1710291+9999MW1101
0114478270999991962083100004+31567+130550FM-12+000599999V0200701N00151220001CN0150001N9+02831+02331101641ADDAJ100009199999999AY101999GF100991001001999999001001IA1009MA1999999101591MD1210081+9999MW1021EQDQ01+000012SCOTCV
0050471200999991962041105004+37250+127000SAO  +0024RKSW V0202501N011312200019N0240001N9+01571+00631101801ADDGF100991999999999999999999MA1999999101501MW1001
0377999999938071962121706005+36133-080233SAO  +030399999V02009059002652200059N019200599-00064-00285101764ADDGA1999+999999004GA2999+999999999GA3999+999999999GA4999+999999999GD11035+9999993GD20005+9999999GD30005+9999999GD40005+9999999GF103015999999999999999999MA1999999098174EQDN01 00000JPWTH 1QNNE11 1 00104E11 1 00000E11 1 00000E11 1 00000G11U1 99999H11C1 32999H11 1 00999H11 1 00999H11 1 00999K11 1 00027L11 1 01200M11 1 28990N11 1 00000Q11 1 10176S11 1 00031V11 1 00401W11 1 33005
0281999999253331962052623005+57067-135350SAO  +000599999V02022559005250045749N004800599+00945+00835101295ADDGD12995+9999999GD25995+9999999GD30995+9999999GD40995+9999999GF108085999999999999999999MA1999999101055MW1455MW2615EQDN01 02070JPWTH 1QNNE11 1 00299E11 1 00799E11 1 00099E11 1 00099G11 1 00015K11 1 00047L11 1 00300M11 1 29840N11 1 02070Q11 1 10129S11 1 00049V11 1 01010W11 1 66010
0057300540999991962111606004+59450+112583FM-12+019399999V0202701N00101075001CN0100001N9-02281-02781102421ADDAY171999GF108991021071012501001071MD1210161+9999MW1711
0117200660999991962051006004+80800+079250FM-12+999999999V0202001N00211015001CN0040001N9-01221-01501101731ADDAA106999999AA224999999AY171999GF108991081001017501071999IA1209KA1999N-01781MD1710101+9999MW1711EQDQ01  00002PRCP06
0070579720999991962122218004+25750+112817FM-12+017199999V0209991C00001000151CN0002001N9+00111+00111102521ADDAY141999GF109991091999000251999999KA1999M+01281MD1810091+9999MW1461
0324999999876011962031218005-77883+166733SAO  +0024NZCM V02009059013950015249N000800599-01065+99999099245ADDGA1999+001524104GD15085+9999999GD20995+9999999GD30995+9999999GD40995+9999999GF108085999999999999999999MA1999999098925MW1385MW2715EQDN01 04084JPWTH 1P01 -00612ATOD  QNNE11 1 00710E11 1 00099E11 1 00099E11 1 00099G11 1 00005H11 1 98005K11 1 00021L11 1 00050M11 1 29210N11 1 04084Q11 1 09924S11 1 00013V11 1 01010W11 1 33027
0269999999241451962040902005+43517-112067SAO  +1448IDA  V02022559005250045749N040000599+00395+00225100755ADDGD12995+9999999GD23995+9999999GD33995+9999999GD44995+9999999GF108065999999999999999999MA1999999084495EQDN01 00000JPWTH 1QNNE11 1 00299E11 1 00499E11 1 00499E11 1 00699G11 1 00015K11 1 00036L11 1 02500M11 1 24950N11 1 00000Q11 1 10075S11 1 00039V11 1 01008W11 1 66010
0035747750138461962100510004+30067-085583SAO  +0004KPAM V0200201N002612200019N0160001N9+02021+01461999999ADDGF102991999999999999999999MW1001
0112984460999991962061015004+13583+124233SAO  +0006RPUV V0200901N001010075019N0112001N1+02631+02411101051ADDGA1051+007509059GA2031+021009049GA3031+060009029GF108991999999999999999999MA1999999100981MD1110121+9999MW1001
0043610750999991962021321004+13800+005250FM-12+027499999V0203601N00211220001CN0100001N9+02781+00221100931ADDAY101999GF100991001001999999001001MW1021
0035724285138121962121801004+39817-082933SAO  +0225LCK  V0209991C000012200019N0112001N9-00171-00281999999ADDGF107991999999999999999999MW1001
0171999999147801962051205005+40033-074350SAO  +0034NEL  V02099999000052200059N006400599+00615+00565101985ADDGF100005999999999999999999MA1999999101595MW1445EQDN01 07200JPWTH 1QNNG11U1 99999K11 1 00042L11 1 00400M11 1 30000N11 1 07200Q11 1 10198S11 1 00043V11 1 00000W11 1 00000
0377999999130251962032008005+36650-006350SAO  +0027LERT V02018059003150036649N016000599+01505+01115099885ADDGA1999+002444154GA2999+003664084GA3999+024384034GA4999+999999999GD12025+9999999GD23035+9999999GD33015+9999999GD40005+9999999GF106065999999999999999999MA1999999099595EQDN01 00000JPWTH 1QNNE11 1 00202E11 1 00404E11 1 00401E11 1 00000G11 1 00012H11 1 17008H11 1 11012H11 1 23080H11 1 00999K11 1 00052L11 1 01000M11 1 29410N11 1 00000Q11 1 09988S11 1 00059V11 1 00707W11 1 55006
0098717170999991962090623004+47017-065450SAO  +0034CYCH V0200901N001510150019N0240001N1+01351+01351101291ADDGA1021+002409079GA2041+015009059GA3021+024009039GF107991999999999999999999MA1999999100881MW1001
0079572450999991962082300004+32533+109350FM-12+026599999V0209991C00001015001CN0280001N9+02501+02391100801ADDAA106000691AA224003091AY161999GF108991081051017501999999MD1210131+9999MW1021
0057543370999991962062721004+41133+121117FM-12+006699999V0200901N00311220001CN0140001N9+02111+01221100371ADDAY101031GF103991001001999999031021MD1310051+9999MW1021
0269999999231591962110818005+37700-112150SAO  +2317BCE  V02013559005252200059N040000599+01115-01445103055ADDGD10995+9999999GD20995+9999999GD30995+9999999GD40995+9999999GF100005999999999999999999MA1999999077855EQDN01 00000JPWTH 1QNNE11 1 00099E11 1 00099E11 1 00099E11 1 00099G11U1 99999K11 1 00006L11 1 02500M11 1 22990N11 1 00000Q11 1 10305S11 1 00052V11 1 00000W11 1 44010
0054222710999991962022512004+67883+044133FM-12+001899999V0202301N01181220001CN0200001N9-00391-00781102721ADDAA106000091AY131999GF100991001001999999001001MW1361
018299999923152196207282300E+34200-118367SAO  +0221BUR  V02015859004652200059N009600599+02725+01285101405ADDAA101000095GF100005999999999999999999MA1999999098855MW1045EQDN01 08200JPWTH 1QNNG11U1 99999K11 1 00055L11 1 00600M11 1 29190N11 1 08200Q11 1 10140S11 1 00081V11 1 00000W11 1 54009
0057104700999991962010115004+51400+012417FM-12+013199999V0202401N00621075001CN0120001N9+00111-00221101261ADDAY111031GF107991021001999999041081MD1610011+9999MW1031
0377999999128501962010913005+24583-081683SAO  +0007NQX  V02002359005752200059N016000599+01615+01005102185ADDGA1999+019814034GA2999+999999999GA3999+999999999GA4999+999999999GD10005+9999999GD20005+9999999GD30005+9999999GD40005+9999999GF100005999999999999999999MA1999999102135EQDN01 00000JPWTH 1QNNE11 1 00000E11 1 00000E11 1 00000E11 1 00000G11U1 99999H11 1 23065H11 1 00999H11 1 00999H11 1 00999K11 1 00050L11 1 01000M11 1 30160N11 1 00000Q11 1 10218S11 1 00061V11 1 00000W11 1 12011
0043360780999991962042012004+51117+090050FM-12+999999999V0203201N00721220001CN0500001N9+00391+99999101111ADDAY111999GF101991011091012501001001MW1211
039472326013891196207160400C+35817-083983SAO  +0276TYS  V02022559003652200059N0192005N9+02785+02225101195ADDAA101000095GA1031+015244084GA2999+999999999GA3999+999999999GA4999+999999999GD12035+9999999GD20005+9999999GD30005+9999999GD40005+9999999GF103035999999999999999999MA1999999097775MW1001EQDN01 00000JPWTH 1QNNE11 1 00204E11 1 00000E11 1 00000E11 1 00000G11U1 99999H11 1 11050H11 1 00999H11 1 00999H11 1 00999K11 1 00072L11 1 01200M11 1 28870N11 1 00000Q11 1 10119S11 1 00082V11 1 00404W11 1 66007
0057379720999991962061309004+39450+048617FM-12+999999999V0200901N00211220001CN0500001N9+03281+01721999999ADDAY101031GF100991001001999999001001MD1710171+9999MW1021
0035745980137021962101808004+37083-076350SAO  +0003LFI  V0200501N005110270019N0160001N9+01721+00891999999ADDGF108991999999999999999999MW1001
0057483560999991962080206004+17167+104650FM-12+016099999V0201801N001019999999N0150001N9+02891+02501100361ADDAY151999GF106991041081008001041061MD1999999+0181MW1201
0057488960999991962042009004+10967+106650FM-12+001399999V0201801N00511007801CN0100001N9+03391+02281100881ADDAY121999GF106991051021008001001021MD1999999+0121MW1151
0051488730999991962070422004+13083+109283SAO  +0011VVTH V0209991C000012200019N0192001N1+99999+99999999999ADDGA1031+087009999GF102991999999999999999999MW1001
039472250012919196203111600C+25900-097433SAO  +0010BRO  V02036059009352200059N0192005N1+02395+01835100855ADDAA101000095GA1031+006104084GA2999+999999999GA3999+999999999GA4999+999999999GD12035+9999999GD20005+9999999GD30005+9999999GD40005+9999999GF103035999999999999999999MA1999999100785MW1001EQDN01 00000JPWTH 1QNNE11 1 00204E11 1 00000E11 1 00000E11 1 00000G11U1 99999H11 1 11020H11 1 00999H11 1 00999H11 1 00999K11 1 00065L11 1 01200M11 1 29760N11 1 00000Q11 1 10085S11 1 00075V11 1 00404W11 1 11018
0082722270138641962103012004+33917-084517SAO  +0329MGE  V0209991C000012200019N0160001N9+00521+00411101891ADDGA1021+036009039GA2021+220009009GF102991999999999999999999MA1999999097971MW1001
0269999999255071962110113005+59633-151500SAO  +002299999V02036059002650167649N024000599+00175+00175101215ADDGD14995+9999999GD20995+9999999GD30995+9999999GD40995+9999999GF108085999999999999999999MA1999999100955EQDN01 00000JPWTH 1QNNE11 1 00699E11 1 00099E11 1 00099E11 1 00099G11 1 00055K11 1 00035L11 1 01500M11 1 29810N11 1 00000Q11 1 10121S11 1 00035V11 1 01010W11 1 11005
007772469023062196210161200A+39750-104867SAO  +1625DEN  V0201351N003610360019N0240001N1+00301-00481102581ADDAA101000095GA1081+036009039GF108991999999999999999999MA1999999084151MW1001
0122474040999991962102400004+44367+141700FM-12+000999999V0200201N001019999999N0150001N9+00781+00331101681ADDAA106002091AJ100009199999999AY101999GA1999+999999079GF107991071031999999999999IA1109MA1999999101591MD1210041+9999MW1801
0114727125146231962081209004+46933-067883SAO  +0227LIZ  V0203201N001510060019N0128001N9+01071+00961101941ADDGA1041+002109079GA2021+006009079GA3011+010509059GA4011+027009039GF107991999999999999999999MA1999999099121MW1001
010694821099999196201280830N-37750+140780AUST +0069YMMG V0201585N008759999999N999999999+02615+01405999999ADDAY124999GA1045+012005085GA2005+999999999GA3035+999999999GF107995044025012005999015MA1999999099975MW1145
0066718640999991962040122004+50333-105550SAO  +0566CYMJ V0201351N003612200019N0400001N1-00041-00531102901ADDGA1021+012009059GF102991999999999999999999MA1999999095831MW1001
004674780499999196201191700D+32017-081133SAO  +0017SVN  V0200501N003110015019N0112001N9+00691+00521999999ADDAA101000595GF108991999999999999999999MW1001
0082716275999991962091112004+45517-073417SAO  +0031CYHU V0202251N005110300019N0320001N1+01741+01191100741ADDGA1011+012009059GA2061+030009039GF107991999999999999999999MA1999999100371MW1001
0043610900999991962070715004+13783+008983FM-12+045399999V0202001N00311045001CN0300001N9+03611+01891100801ADDAY121999GF106991011011012501041021MW1011
0165999999047691962060211005+42417-071483SAO  +006399999V02099999000052200059N011200599+01675+01225101105ADDGF100005999999999999999999MA1999999100345EQDN01 00000JPWTH 1QNNG11U1 99999K11 1 00054L11 1 00700M11 1 29630N11 1 00000Q11 1 10110S11 1 00062V11 1 00000W11 1 00000
0057476390999991962033021004+35350+138733FM-12+377499999V0203201N013419999999N0700001N9-01391-03111999999ADDAY101999GF101991999001999999001011MD1210311+9999MW1021
038899999914768196201190000E+43117-077667SAO  +0167ROC  V02024859007752200059N016000599-01065-01565103255ADDAA101000095GA1999+999999004GA2999+999999999GA3999+999999999GA4999+999999999GD11035+9999993GD20005+9999999GD30005+9999999GD40005+9999999GF103025999999999999999999MA1999999101055EQDN01 00000JPWTH 1QNNE11 1 00104E11 1 00000E11 1 00000E11 1 00000G11U1 99999H11C1 32999H11 1 00999H11 1 00999H11 1 00999K11 1 00004L11 1 01000M11 1 29840N11 1 00000Q11 1 10325S11 1 00013V11 1 00402W11 1 76015
0043423690999991962112300004+26750+080883FM-12+012899999V0203201N00211220001CN0040001N9+01281+01111101361ADDAY101999GF100991001001999999001001MW1021
0067488550999991962101804004+16050+108200SAO  +0009VVSD V0203601N004610078019N0056001N1+99999+99999999999ADDGA1071+007809049GA2031+003009039GF108991999999999999999999MW1611
0269999999930451962050509005+33233-107267SAO  +1471TCS  V02031559007252200059N024000599+01784-00445101324ADDGD10995+9999999GD20995+9999999GD30995+9999999GD40995+9999999GF100005999999999999999999MA1999999085444EQDN01 00000JPWTH 1QNNE11 1 00099E11 1 00099E11 1 00099E11 1 00099G11U1 99999K11 1 00024L11 1 01500M11 1 25230N11 1 00000Q11 1 10132S11 1 00064V11 1 00000W11 1 88014
038899999912836196204231000E+24550-081750SAO  +0001EYW  V02006859004152200059N019200599+02115+01505102005ADDAA101000095GA1999+012194084GA2999+999999999GA3999+999999999GA4999+999999999GD12025+9999999GD20005+9999999GD30005+9999999GD40005+9999999GF102025999999999999999999MA1999999101935EQDN01 00000JPWTH 1QNNE11 1 00203E11 1 00000E11 1 00000E11 1 00000G11U1 99999H11 1 11040H11 1 00999H11 1 00999H11 1 00999K11 1 00059L11 1 01200M11 1 30100N11 1 00000Q11 1 10200S11 1 00070V11 1 00303W11 1 32008
0057125700999991962090300004+50850+020617FM-12+027099999V0202201N00411220001CN0100001N9+01221+00721102231ADDAY111999GF100991001001999999001001MD1610101+9999MW1021
0269999999240271962102601005+41600-109067SAO  +205699999V02022559003652200059N024000599+00945-01225102485ADDGD10995+9999999GD20995+9999999GD30995+9999999GD40995+9999999GF100005999999999999999999MA1999999079925EQDN01 00000JPWTH 1QNNE11 1 00099E11 1 00099E11 1 00099E11 1 00099G11U1 99999K11 1 00010L11 1 01500M11 1 23600N11 1 00000Q11 1 10248S11 1 00049V11 1 00000W11 1 66007
0377999999136021962073113005+32267-064850SAO  +0013MYUN V02018059004152200059N016000599+02675+02285102085ADDGA1999+003664094GA2999+004574084GA3999+999999004GA4999+999999999GD12015+9999999GD22025+9999999GD33025+9999999GD40005+9999999GF106045999999999999999999MA1999999101935EQDN01 00000JPWTH 1QNNE11 1 00201E11 1 00203E11 1 00403E11 1 00000G11C1 99999H11 1 18012H11 1 11015H11C1 32999H11 1 00999K11 1 00073L11 1 01000M11 1 30100N11 1 00000Q11 1 10208S11 1 00080V11 1 00705W11 1 55008
038899999924149196208132000E+46383-117017SAO  +043399999V02029359003652200059N048000599+02565+00835101775ADDAA101000095GA1999+015244084GA2999+999999999GA3999+999999999GA4999+999999999GD12015+9999999GD20005+9999999GD30005+9999999GD40005+9999999GF101015999999999999999999MA1999999096685EQDN01 00000JPWTH 1QNNE11 1 00201E11 1 00000E11 1 00000E11 1 00000G11U1 99999H11 1 11050H11 1 00999H11 1 00999H11 1 00999K11 1 00047L11 1 03000M11 1 28550N11 1 00000Q11 1 10177S11 1 00078V11 1 00101W11 1 78007
0066723865231121962050121004+36250-115033SAO  +0569LSV  V0202501N001012200019N0560001N9+02571-00701101661ADDGA1021+220009009GF102991999999999999999999MA1999999095091MW1001
0035035833999991962061417004+52400+000550SAO  +0015EGUL V0202301N004612200019N0176001N9+02241+01021999999ADDGF107991999999999999999999MW1001
038899999914944196210240000E+43567-096733SAO  +043499999V02031559003652200059N024000599+00445-00565102915ADDAA101000095GA1999+036584034GA2999+999999004GA3999+999999999GA4999+999999999GD12015+9999999GD23065+9999993GD30005+9999999GD40005+9999999GF106015999999999999999999MA1999999097605EQDN01 00000JPWTH 1QNNE11 1 00201E11 1 00307E11 1 00000E11 1 00000G11U1 99999H11 1 23120H11C1 32999H11 1 00999H11 1 00999K11 1 00022L11 1 01500M11 1 28820N11 1 00000Q11 1 10291S11 1 00040V11 1 00801W11 1 88007
0121476540999991962122012004+34700+137717FM-12+003399999V0202701N003619999999N0150001N9+00781+00171101621ADDAJ100009199999999AY101999GF101991999001999999031001IA1009KA1999M+01391KA2999N+00721MA1999999101191MD1110091+9999MW1021
039472617014742196203032000C+44467-073150SAO  +0106BTV  V02036059006752200059N0800005N9-01115-02225102215ADDAA101000095GA1011+018294064GA2071+220009024GA3999+999999999GA4999+999999999GD12015+9999999GD23075+9999993GD30005+9999999GD40005+9999999GF107035999999999999999999MA1999999100885MW1001EQDN01 00000JPWTH 1QNNE11 1 00201E11 1 00309E11 1 00000E11 1 00000G11U1 99999H11 1 15060H11C1 37999H11 1 00999H11 1 00999K11 1-00008L11 1 05000M11 1 29790N11 1 00000Q11 1 10221S11 1 00012V11 1 00904W11 1 11013
0100257010999991962041200004+62800+150683FM-12+030499999V0203601N00211024001CN0100001N9-01221-01611101371ADDAA199999999AY171999GF108991081001999999021999KA1999N-01391MD1710221+9999MW1711EQDQ01  00002PRCP99
0302999999939091962092211005+38833-094883SAO  +0328NUU  V02011359002650045749N004800599+01174+00945102034ADDGA1999+004574134GD14085+9999999GD20995+9999999GD30995+9999999GD40995+9999999GF108085999999999999999999MA1999999098144MW1615EQDN01 02000JPWTH 1QNNE11 1 00610E11 1 00099E11 1 00099E11 1 00099G11 1 00015H11 1 13015K11 1 00049L11 1 00300M11 1 28980N11 1 02000Q11 1 10203S11 1 00053V11 1 01010W11 1 34005
023872643014920196201180700C+43867-091250SAO  +0198LSE  V02022559002652200049N0240005N9-02615-03115999999ADDAA101000095GD11995+9999993GD20995+9999999GD30995+9999999GD40995+9999999MA1999999101225MW1001EQDN01 00000JPWTH 1QNNE11 1 00199E11 1 00099E11 1 00099E11 1 00099G11U1 99999K11 1-00024L11 1 01500M11 1 29890N11 1 00000S11 1-00015W11 1 66005
0269999999255071962050716005+59633-151500SAO  +002299999V02002359002152200059N048000599+00225+00005102525ADDGD14995+9999999GD20995+9999999GD30995+9999999GD40995+9999999GF108065999999999999999999MA1999999102245EQDN01 00000JPWTH 1QNNE11 1 00699E11 1 00099E11 1 00099E11 1 00099G11C1 99999K11 1 00032L11 1 03000M11 1 30190N11 1 00000Q11 1 10252S11 1 00036V11 1 01008W11 1 12004
040699999993815196203091500E+39900-084217SAO  +031399999V02013559005250009149N001600599+00114+00065100544ADDAA101001595GA1999+999999104GA2999+000914134GA3999+001834134GD16035+9999999GD23035+9999999GD34025+9999999GD40995+9999999GF108085999999999999999999MA1999999096884MW1455MW2615MW3715EQDN01 02040JPWTH 1N02 07000JPWTH 1QNNE11 1 00804E11 1 00404E11 1 00602E11 1 00099G11 1 00003H11 1 98999H11 1 13003H11 1 13006K11 1 00033L11 1 00100M11 1 28610N11 1 02040N11 1 07000Q11 1 10054S11 1 00034V11 1 01010W11 1 44010
0068224520999991962021221004+65967+040717FM-12+001999999V0201601N00621220001CN0200001N9-00891-01111099301ADDAA106000091AY101999GF101991001001999999001011MD1210081+9999MW1031
0140804030999991962122018004+11417-069667FM-12+002199999V0200901N00571030001CN0200001N9+02781+02281101421ADDAY121999GA1999+007809049GA2091+030009029GF109991091091008001031999MD1810131+9999MW1201EQDQ01+000082SCOTCVQ02+000042SCOTLCQ03+000052SCOHCG
0129719460999991962122412004+61867-121350FM-12+012999999V0209991C00001220001CN0300001N9-02331-02671103021ADDAJ100389199999999AL10600091AY121999GF108991081001999999071999KA1999M+99999KA2999N-03391MD1010011+9999MW1021EQDQ01 -03062ATMX  
0081565860999991962050709004+27333+103750FM-12+196099999V0200201N00621220001CN0400001N9+02221+01001999999ADDAY111999GF104991011011012501001021MA1999999099801MD1710171+9999ME1313909MW1021
038899999914840196204210300E+43167-086233SAO  +019699999V02099999000052200059N012800599+00285-00115102405ADDAA101000095GA1999+999999004GA2999+999999999GA3999+999999999GA4999+999999999GD10005+9999999GD20005+9999999GD30005+9999999GD40005+9999999GF100005999999999999999999MA1999999100035EQDN01 00000JPWTH 1QNNE11 1 00000E11 1 00000E11 1 00000E11 1 00000G11U1 99999H11C1 32999H11 1 00999H11 1 00999H11 1 00999K11 1 00030L11 1 00800M11 1 29540N11 1 00000Q11 1 10240S11 1 00037V11 1 00000W11 1 00000
0383722085938311962012301003+32483-080717SAO  +0010NBC  V02020359001052200059N0112005N1+01615+01445102685ADDGA1041+220009004GA2999+999999999GA3999+999999999GA4999+999999999GD12045+9999999GD20005+9999999GD30005+9999999GD40005+9999999GF104035999999999999999999MA1999999102575MW1001EQDN01 00000JPWTH 1QNNE11 1 00205E11 1 00000E11 1 00000E11 1 00000G11U1 99999H11C1 32999H11 1 00999H11 1 00999H11 1 00999K11 1 00058L11 1 00700M11 1 30290N11 1 00000Q11 1 10268S11 1 00061V11 1 00504W11 1 56002
0066747940128681962121018004+28483-080550SAO  +0003XMR  V0203201N007712200019N0160001N9+00891-00831102301ADDGA1021+220009009GF102991999999999999999999MA1999999102241MW1001
0057348660999991962020203004+46183+045350FM-12-000799999V0200901N00311220001CN0200001N9-00781-01111999999ADDAY111999GF102991021061004501001001MD1210081+9999MW1011
0043421820999991962011200004+28583+077200FM-12+021699999V0200501N00101220001CN0020001N9+01111+00891101461ADDAY101999GF107991041001999999031011MW1051
0043486940999991962080205004+01350+103900FM-12+001099999V0201801N002619999999N0350001N9+02831+02391100881ADDAY101999GF107991041011008001061041MW1001
0057524180999991962113006004+40133+094783FM-12+113999999V0200201N00211220001CN0500001N9-00221-01281104521ADDAY101999GF100991001001999999001001MD1710061+9999MW1021
0094477780999991962081711004+33450+135767FM-12+007599999V0200701N00361220001CN0250001N9+02501+02281101271ADDAY101999GA1999+002709019GA2001+999999999GF101991001999999999001011MW1021EQDQ01+000022SCOLCG
009094276099999196206192300N-16000+144080AUST +0204     V0200905N001059999999N999999999+02115+01605999999ADDAY104999GA1005+999999999GA2015+999999035GF101995004999999999085999MA1999999099325MW1035
038899999923234196203310300E+37617-122383SAO  +0002SFO  V02029359006752200059N016000599+01065+00725102305ADDAA101000095GA1999+004574064GA2999+999999999GA3999+999999999GA4999+999999999GD10005+9999999GD20005+9999999GD30005+9999999GD40005+9999999GF100005999999999999999999MA1999999102245EQDN01 00000JPWTH 1QNNE11 1 00000E11 1 00000E11 1 00000E11 1 00000G11U1 99999H11 1 15015H11 1 00999H11 1 00999H11 1 00999K11 1 00045L11 1 01000M11 1 30190N11 1 00000Q11 1 10230S11 1 00051V11 1 00000W11 1 78013
0057512320999991962102103004+45667+082500FM-12+999999999V0202001N00101220001CN0200001N9+00891+00221102871ADDAY101999GF100991001001999999001001MD1110091+9999MW1021
0057369530999991962112612004+42800+079883FM-12+999999999V0209991C00001036001CN0020001N9-01781-01891101641ADDAY171999GF107991031061008001011999MD1110161+9999MW1711
0377999999253091962032919005+58367-134583SAO  +0006JNU  V02006859004650152449N024000599+00565+00175102845ADDGA1999+999999064GA2999+015244064GA3999+999999999GA4999+999999999GD13005+9999999GD20065+9999999GD30005+9999999GD40005+9999999GF106055999999999999999999MA1999999102785EQDN01 00000JPWTH 1QNNE11 1 00400E11 1 00007E11 1 00000E11 1 00000G11 1 00050H11 1 15999H11 1 15050H11 1 00999H11 1 00999K11 1 00035L11 1 01500M11 1 30350N11 1 00000Q11 1 10284S11 1 00042V11 1 00706W11 1 32009
0399747686138201962112215003+30400-088917SAO  +0008BIX  V02033859003652200059N0192005N9+01225+00945102075ADDGA1999+004574064GA2999+999999999GA3999+999999999GA4999+999999999GD10005+9999999GD20005+9999999GD30005+9999999GD40005+9999999GF100005999999999999999999MA1999999101935MW1001EQDQ01    003SCCGA1N01 00000JPWTH 1QNNE11 1 00000E11 1 00000E11 1 00000E11 1 00000G11U1 99999H11 1 15015H11 1 00999H11 1 00999H11 1 00999K11 1 00049L11 1 01200M11 1 30100N11 1 00000Q11 1 10207S11 1 00054V11 1 00000W11 1 18007
0057544010999991962030809004+40833+115183FM-12+076099999V0203401N00871220001CN0400001N9+00721-01721101461ADDAY111031GF102991001001999999001021MD1310111+9999MW1011
0377999999939011962060522005+32733-096967SAO  +0150NBE  V02015859005250121949N024000599+03224+02065101114ADDGA1999+012194084GA2999+999999999GA3999+999999999GA4999+999999999GD13055+9999999GD20005+9999999GD30005+9999999GD40005+9999999GF105055999999999999999999MA1999999099464EQDN01 00000JPWTH 1QNNE11 1 00406E11 1 00000E11 1 00000E11 1 00000G11 1 00040H11 1 11040H11 1 00999H11 1 00999H11 1 00999K11 1 00069L11 1 01500M11 1 29370N11 1 00000Q11 1 10111S11 1 00090V11 1 00606W11 1 54010
019872530094846196212240300C+41983-087900SAO  +0201ORD  V02027059003652200059N0240005N9-01445-01895103425ADDAA101000095GA1001+999999999GF100005999999999999999999MA1999999100785MW1001EQDN01 00000JPWTH 1QNNG11U1 99999K11 1-00002L11 1 01500M11 1 29760N11 1 00000Q11 1 10342S11 1 00006V11 1 00000W11 1 77007
0066718660999991962022723004+52167-106683SAO  +0501CYXE V0202701N006212200019N0240001N1-02981-03371103751ADDGA1011+060009009GF102991999999999999999999MA1999999097021MW1001
0056846300999991962110100004-12050-077033FM-12+013799999V0201601N00101004501CN0100001N9+01781+01721101601ADDAY121999GF108991081071004501999999KA1999M+02111MW1021
0275723677230541962062901003+35650-105150SAO  +2093LVS  V02004559007750182949N0480005N1+02395+00675101295ADDGD13995+9999999GD23995+9999999GD30995+9999999GD40995+9999999GF105055999999999999999999MA1999999079445MW1001EQDN01 00000JPWTH 1QNNE11 1 00499E11 1 00499E11 1 00099E11 1 00099G11 1 00060K11 1 00044L11 1 03000M11 1 23460N11 1 00000Q11 1 10129S11 1 00075V11 1 00606W11 1 22015
0076325940999991962012718004+51483+156317FM-12+000699999V0200901N00411220001CN0500001N9-00281-00891101081ADDAY101999GF102991999001999999011001MD1210041+9999MW1021EQDQ01+000002SCOTLC
0043421820999991962042600004+28583+077200FM-12+021699999V0201101N00211220001CN0040001N9+02721+01781100261ADDAY101999GF100991001001999999001001MW1021
0329702190266151962101319003+60783-161800SAO  +0038BET  V02004559003650487749N0320005N1-00175-00335099105ADDGA1021+024384034GA2061+048774044GD12025+9999999GD24065+9999999GD30995+9999999GD40995+9999999GF108085999999999999999999MA1999999098545MW1001EQDN01 00000JPWTH 1QNNE11 1 00202E11 1 00608E11 1 00099E11 1 00099G11 1 00160H11 1 23080H11 1 21160K11 1 00026L11 1 02000M11 1 29100N11 1 00000Q11 1 09910S11 1 00029V11 1 01010W11 1 22007
0112986420999991962111315004+09300+123300SAO  +0006RPVD V0209991C000010240019N0320001N1+02461+02301101021ADDGA1031+007509089GA2051+024009049GA3081+060009029GF108991999999999999999999MA1999999100951MD1110061+9999MW1001
0165999999432201962052903005+38017+128133SAO  +0181RKNK V02027059004152200059N016000599+02615+02005100475ADDGF100005999999999999999999MA1999999098315EQDN01 00000JPWTH 1QNNG11U1 99999K11 1 00068L11 1 01000M11 1 29030N11 1 00000Q11 1 10047S11 1 00079V11 1 00000W11 1 77008
0057226760999991962123121004+63583+045633FM-12+006699999V0202301N00101004501CN0100001N9-02001-02281101531ADDAY171999GF108991081051004501999999MD1710121+9999MW1711
0082717270999991962111711004+48333-071000SAO  +0163CYBG V0202931N006710054019N0240001N1-00531-00811101271ADDGA1071+005409059GA2011+012009059GF108991999999999999999999MA1999999099221MW1001
0066718770999991962022614004+51100-114017SAO  +1079CYYC V0202931N002112200019N0640001N1-02311-02591103101ADDGA1021+036009039GF102991999999999999999999MA1999999089601MW1001
0057252730999991962032618004+67867-178083FM-12+999999999V0209991C00001220001CN0500001N9-03501-03891101291ADDAY101999GF100991001001999999001001MD1310031+9999MW1021
0258999999232331962083017005+36667-121600SAO  +0027SNS  V02024859003150036649N012800599+01565+99999101715ADDGD12995+9999999GD24995+9999999GD30995+9999999GD40995+9999999GF108085999999999999999999MA1999999101425EQDN01 00000JPWTH 1QNNE11 1 00299E11 1 00699E11 1 00099E11 1 00099G11 1 00012L11 1 00800M11 1 29950N11 1 00000Q11 1 10171S11 1 00060V11 1 01010W11 1 76006
0066601560999991962070121004+33367-007583SAO  +0200GMMN V0203601N005110030019N0128001N9+02021+01801101611ADDGA1061+003009059GF107991999999999999999999MA1999999099261MW1001
0035746930937371962062414004+35133-078933SAO  +0074FBG  V0209991C000012200019N0096001N9+02441+02161999999ADDGF102991999999999999999999MW1051
0275999999242841962011121005+43417-124250SAO  +000999999V02013559003650091449N008000599+01175-00115102515ADDGD13995+9999999GD24995+9999999GD30995+9999999GD40995+9999999GF108085999999999999999999MA1999999102405MW1045EQDN01 08200JPWTH 1QNNE11 1 00499E11 1 00699E11 1 00099E11 1 00099G11 1 00030K11 1 00030L11 1 00500M11 1 30240N11 1 08200Q11 1 10251S11 1 00053V11 1 01010W11 1 44007
006172251012924196212190100D+27767-097500SAO  +0013CRP  V0200901N003612200019N0192001N1+01911+01741101611ADDAA101000095GF100991999999999999999999MA1999999101461MW1001
0070152300999991962051318004+45883+022900FM-12+019499999V0201901N00211036001CN0150001N9+02221+01391101411ADDAY111999GF108991041051012501021091KA1999M+02611MD1710041+9999MW1021
0081335060999991962040318004+49600+034550FM-12+016099999V0209991C00001220001CN0100001N9+00721+00111999999ADDAA199000091AY111999GF100991001001999999001001KA1999M+01281MD1610051+9999MW1021
0035727855241141962122210004+47617-117650SAO  +0750SKA  V0203201N002112200019N0400001N9-00111-00611999999ADDGF100991999999999999999999MW1001
0082741200999991962071414004+54417-110283SAO  +0544CYOD V0202701N001510045019N0192001N1+01521+01131101631ADDGA1061+004509079GA2021+036009049GF108991999999999999999999MA1999999095161MW1511
0106307390999991962112000004+52167+109767FM-12+067199999V0209991C00001220001CN0200001N9-03611-03891999999ADDAA199000091AY101999GF100991001001999999001001HL10009IA1209IA2999-04009KA1999N-03721MD1210021+9999MW1021
0066725335999991962103112004+40650-086150SAO  +0250GUS  V0203201N003610150019N0160001N9+00281+00171101351ADDGA1081+015009059GF108991999999999999999999MA1999999098311MW1001
0035070891999991962052901004+49033+005867SAO  +0266LCHM V0209991C000010210019N0176001N1+00741+00521999999ADDGF107991999999999999999999MW1001
0057347850999991962121021004+46917+047933FM-12-001799999V0201401N00511220001CN0200001N9-01001-01281999999ADDAY101999GF101991011051008001001001MD1710131+9999MW1021
0238724565139201962041204003+38950-095667SAO  +0324FOE  V02031559003150067149N0144005N9+00785+00675999999ADDGD14995+9999999GD20995+9999999GD30995+9999999GD40995+9999999GF108995999999999999999999MW1805EQDN01 02300JPWTH 1QNNE11 1 00699E11 1 00099E11 1 00099E11 1 00099G11 1 00022K11 1 00044L11 1 00900N11 1 02300S11 1 00046V11 1 01099W11 1 88006
0050471100999991962052701004+37550+126800SAO  +0020RKSS V0200231N001010180019N0112001N1+01801+01071100751ADDGF108991999999999999999999MA1999999100471MW1001
0043968810999991962083112004-07617+111517FM-12+011099999V0201901N00361220001CN0100001N9+02611+01721100901ADDAY101999GF101991001001999999001011MW1051
007494695099999196203030500N-31570+143380AUST +0081     V0201585N004659999999N999999999+02615+00605999999ADDAY124999GA1005+999999999GF100995004999999999999999MA1999999100405MW1025
0043259130999991962070615004+59583+150783FM-12+0118UHMM V0209991C00001000301CN0002001N9+01001+01001999999ADDAY141999GF109991091999000251999999MW1471
0070104700999991962110418004+51400+012417FM-12+013199999V0201901N00511220001CN0040001N9+00611+00221101031ADDAY111061GF103991001001999999001021KA1999M+01221MD1310011+9999MW1051
0123373950999991962040706004+42267+042633FM-12+011699999V0200901N00311024001CN0500001N9+02111+00221999999ADDAA199000091AJ100009199999999AY121061GF107991071001999999051021HL10009IA1089IA2999+01009KA1999N+01721MD1210131+9999MW1011
0057232050999991962102612004+67650+053017FM-12+000799999V0200901N00511220001CN0200001N9-01611-01891101361ADDAY101999GF100991001001999999001001MD1010021+9999MW1021
0076582080999991962101709004+32167+115667FM-12+004699999V0209991C00001220001CN0400001N9+02001+01111102311ADDAY101999GF103991999001999999031001MD1710041+9999MW1031EQDQ01+000002SCOTLC
038899999913957196208260300E+32467-093817SAO  +0077SHV  V02011359003150396249N024000599+02675+02225101735ADDAA101000095GA1999+039624034GA2999+999999999GA3999+999999999GA4999+999999999GD13065+9999999GD20005+9999999GD30005+9999999GD40005+9999999GF106065999999999999999999MA1999999100815EQDN01 00000JPWTH 1QNNE11 1 00408E11 1 00000E11 1 00000E11 1 00000G11 1 00130H11 1 23130H11 1 00999H11 1 00999H11 1 00999K11 1 00072L11 1 01500M11 1 29770N11 1 00000Q11 1 10173S11 1 00080V11 1 00808W11 1 34006
038899999914933196208040000E+41533-093650SAO  +0286DSM  V02018059003152200059N024000599+02615+02005100925ADDAA101000095GA1999+015244094GA2999+999999999GA3999+999999999GA4999+999999999GD12015+9999999GD20005+9999999GD30005+9999999GD40005+9999999GF101015999999999999999999MA1999999097535EQDN01 00000JPWTH 1QNNE11 1 00201E11 1 00000E11 1 00000E11 1 00000G11U1 99999H11 1 18050H11 1 00999H11 1 00999H11 1 00999K11 1 00068L11 1 01500M11 1 28800N11 1 00000Q11 1 10092S11 1 00079V11 1 00101W11 1 55006
0125286610999991962122706004+55467+065400FM-12+007999999V0202001N00721220001CN0050001N9-01281-01391102461ADDAA199000091AY111999GF100991001001999999001001HL10009IA1319IA2999-01399KA1999N+99999MD1210041+9999MW1101EQDQ01 -01222ATMN  
038872256013959196201311400B+31617-097217SAO  +0157ACT  V02029359002652200059N024000599+00395+00115102445ADDAA101000095GA1999+999999004GA2999+999999999GA3999+999999999GA4999+999999999GD10005+9999999GD20005+9999999GD30005+9999999GD40005+9999999GF100005999999999999999999MA1999999100585EQDN01 00000JPWTH 1QNNE11 1 00000E11 1 00000E11 1 00000E11 1 00000G11U1 99999H11 1 32999H11 1 00999H11 1 00999H11 1 00999K11 1 00034L11 1 01500M11 1 29700N11 1 00000Q11 1 10244S11 1 00039V11 1 00000W11 1 78005
038899999924090196205031700E+44050-103067SAO  +0964RAP  V02036059009852200059N056000599+01945+00005101445ADDAA101000095GA1999+018294084GA2999+030484034GA3999+999999024GA4999+999999999GD12005+9999999GD24015+9999993GD30085+9999999GD40005+9999999GF108045999999999999999999MA1999999090485EQDN01 00000JPWTH 1QNNE11 1 00200E11 1 00501E11 1 00010E11 1 00000G11U1 99999H11 1 11060H11 1 23100H11C1 37999H11 1 00999K11 1 00032L11 1 03500M11 1 26720N11 1 00000Q11 1 10144S11 1 00067V11 1 01005W11 1 11019
0101488550999991962112711004+16050+108200SAO  +0009VVSD V0200231N002610090019N0040001N1+02351+99999101301ADDGA1061+009009049GA2031+003009039GF108991999999999999999999MA1999999101221MW1611EQDQ01+999990APOSLP
0377999999407101962111908005+07083+171383SAO  +000399999V02009059007750365849N024000599+02615+02395100955ADDGA1999+005494084GA2999+036584034GA3999+999999024GA4999+999999999GD12045+9999999GD23025+9999999GD34085+9999999GD40005+9999999GF108065999999999999999999MA1999999100915EQDN01 00000JPWTH 1QNNE11 1 00205E11 1 00402E11 1 00610E11 1 00000G11 1 00120H11 1 11018H11 1 23120H11C1 37999H11 1 00999K11 1 00075L11 1 01500M11 1 29800N11 1 00000Q11 1 10095S11 1 00079V11 1 01008W11 1 33015
010694643099999196202030100N-31020+125320AUST +0183     V0200455N004659999999N999999999+02515+01105999999ADDAY114999GA1005+999999999GA2005+999999999GA3015+999999999GF101995004999999999999025MA1999999099085MW1015
0068220040999991962032412004+69650+031167FM-12+999999999V0202901N00411007801CN0200001N9-01001-01391100491ADDAA106000091AY181999GF107991071091008001001001MD1210141+9999MW1031
038899999924146196211291800E+48300-114267SAO  +0904FCA  V02020359001052200059N040000599-00335-00675102825ADDAA101000095GA1999+999999064GA2999+999999024GA3999+999999999GA4999+999999999GD12005+9999999GD20015+9999999GD30005+9999999GD40005+9999999GF101015999999999999999999MA1999999091945EQDN01 00000JPWTH 1QNNE11 1 00200E11 1 00001E11 1 00000E11 1 00000G11U1 99999H11 1 15999H11C1 37999H11 1 00999H11 1 00999K11 1 00020L11 1 02500M11 1 27150N11 1 00000Q11 1 10282S11 1 00026V11 1 00101W11 1 56002
0035035833999991962062405004+52400+000550SAO  +0015EGUL V0202301N007710135019N0200001N9+01461+00961999999ADDGF107991999999999999999999MW1001
0043586670999991962033000004+28083+121283FM-12+999999999V0200201N00821220001CN0250001N9+99999+99999102001ADDAY111999GF101991001001999999999999MW1011
010972253612911196209031200D+29533-098283SAO  +0232RND  V0209991C000010033019N0240001N9+02301+02071101531ADDAA101000095GA1051+003309089GA2011+024009039GA3021+220009009GF107991999999999999999999MA1999999098811MW1001
0232999999147101962040822005+42933-071433SAO  +0071MHT  V02036059004650243849N032000599+01445+00065999999ADDGD14995+9999999GD20995+9999999GD30995+9999999GD40995+9999999GF108995999999999999999999EQDN01 00000JPWTH 1QNNE11 1 00699E11 1 00099E11 1 00099E11 1 00099G11 1 00080K11 1 00033L11 1 02000N11 1 00000S11 1 00058V11 1 01099W11 1 11009
0057272170999991962051500004+57800+036700FM-12+014799999V0200901N00311220001CN0100001N9+00281+00111101761ADDAY101999GF101991001001999999001011MD1810101+9999MW1021
0076333250999991962021512004+50267+028633FM-12+022799999V0203401N01391000601CN0002001N9-00391-00391098171ADDAY171999GF108991999071000751021999MD1310161+9999MW1731EQDQ01+000082SCOTLC
0011478050999991962040409004+33367+129550FM-12+005899999V0202901N005119999999N9999999N9+00671+99999999999ADDAY101999
0075967430999991962061615004-06150+106850FM-12+000599999V0201101N00411030001CN0060001N9+02721+02391101091ADDAY161999GA1031+006009099GA2061+030009049GF108991051091008001021999MW1951
0035070881340641962012716001+49233+005683SAO  +0237LETI V0202931N003110141019N0176001N1+00631+00411999999ADDGF108991999999999999999999MW1001
038899999913781196203301500E+39667-075600SAO  +0023ILG  V02022559007252200059N019200599+01945+00945101965ADDAA101000095GA1999+999999024GA2999+999999999GA3999+999999999GA4999+999999999GD13065+9999993GD20005+9999999GD30005+9999999GD40005+9999999GF106015999999999999999999MA1999999101665EQDN01 00000JPWTH 1QNNE11 1 00308E11 1 00000E11 1 00000E11 1 00000G11U1 99999H11C1 37999H11 1 00999H11 1 00999H11 1 00999K11 1 00049L11 1 01200M11 1 30020N11 1 00000Q11 1 10196S11 1 00067V11 1 00801W11 1 66014
039472572024127196209281600C+40767-111967SAO  +1286SLC  V02099999000052200059N0320005N1+01115+00785101125ADDAA101000095GA1011+036009064GA2021+036584034GA3999+999999004GA4999+999999999GD12005+9999999GD21015+9999993GD30025+9999999GD40005+9999999GF102015999999999999999999MA1999999086835MW1001EQDN01 00000JPWTH 1QNNE11 1 00200E11 1 00101E11 1 00002E11 1 00000G11U1 99999H11 1 15999H11 1 23120H11C1 32999H11 1 00999K11 1 00046L11 1 02000M11 1 25640N11 1 00000Q11 1 10112S11 1 00052V11 1 00301W11 1 00000
0057579570999991962112103004+25250+110167FM-12+015699999V0203601N00821012301CN0350001N9+00781+00281102811ADDAY161999GF108991081051012501999999MD1110171+9999MW1601
0057488960999991962122300004+10967+106817FM-12+001399999V0203201N002619999999N0250001N9+02001+01831101381ADDAY121999GF106991999999999999999999MD1810071+9999MW1011
0187747020231101962063000003+36333-119950SAO  +0073NLC  V02036059003152200059N0160005N1+03395+00725101195ADDGA1001+999999999GF100005999999999999999999MA1999999100375MW1001EQDN01 00000JPWTH 1QNNG11U1 99999K11 1 00045L11 1 01000M11 1 29640N11 1 00000Q11 1 10119S11 1 00093V11 1 00000W11 1 11006
0117484310999991962042011004+14967+102083SAO  +0188VTUN V0202031N002110060019N0080001N1+02801+02411100912ADDGA1021+003009099GA2051+006009059GA3021+220009029GF108991999999999999999999MA1999999098481MW1001EQDQ01+100913APOSLP
031999999913737196206301100E+36900-076200SAO  +0007ORF  V02004559013950021349N003200599+01945+01895101055ADDAA101000895GA1999+002134134GD14085+9999999GD20995+9999999GD30995+9999999GD40995+9999999GF108085999999999999999999MA1999999100955MW1455MW2615EQDN01 02070JPWTH 1QNNE11 1 00610E11 1 00099E11 1 00099E11 1 00099G11 1 00007H11 1 13007K11 1 00066L11 1 00200M11 1 29810N11 1 02070Q11 1 10105S11 1 00067V11 1 01010W11 1 22027
0057357490999991962072709004+46717+062500FM-12+008099999V0202901N00981220001CN0200001N9+03001+00221100181ADDAY101999GF100991001001999999001001MD1710041+9999MW1021
010694679099999196207070530N-33030+138750AUST +0514     V0202705N001059999999N999999999+01575+00305999999ADDAY124999GA1005+999999999GA2005+999999999GA3085+999999999GF108995004999999999999075MA1999999096655MW1025
0129710921999991962070212004+68650-071167FM-12+014699999V0200901N00461220001CN0240001N9+00221-00281101911ADDAJ199999999999999AL10600091AY101999GF100991001001999999001001KA1999M+00441KA2999N+00061MD1210021+9999MW1021EQDQ01  04472SNDP  
0043489140999991962012407004+09167+105167FM-12+000399999V0203401N004619999999N0120001N9+02721+99999999999ADDAY121999GF107991999999999999999999MW1051
0081577130999991962120503004+27683+106917FM-12+084499999V0201801N00101220001CN0060001N9+00891+00111103541ADDAY101999GF100991001001999999001001MA1999999093501MD1110071+9999ME1316209MW1101
0057577660999991962050909004+27250+111383FM-12+024599999V0202201N00101220001CN0080001N9+01501+00891101611ADDAY161999GF108991001001999999071999MD1710181+9999MW1211
017672469023062196211080700B+39767-104883SAO  +161599999V02020359002152200059N024000599-00395-01445102885ADDAA101000095GF100005999999999999999999MA1999999084565EQDN01 00000JPWTH 1QNNG11U1 99999K11 1 00006L11 1 01500M11 1 24970N11 1 00000Q11 1 10288S11 1 00025V11 1 00000W11 1 56004
0383724065937331962051415003+39083-076767SAO  +0043FME  V02022559003652200059N0112005N9+01895+01005102585ADDGA1031+220009024GA2999+999999999GA3999+999999999GA4999+999999999GD11035+9999993GD20005+9999999GD30005+9999999GD40005+9999999GF103015999999999999999999MA1999999102005MW1001EQDN01 00000JPWTH 1QNNE11 1 00104E11 1 00000E11 1 00000E11 1 00000G11U1 99999H11C1 37999H11 1 00999H11 1 00999H11 1 00999K11 1 00050L11 1 00700M11 1 30120N11 1 00000Q11 1 10258S11 1 00066V11 1 00401W11 1 66007
0057242190999991962033003004+67117+109083FM-12+999999999V0203201N006219999999N0500001N9-01501-02001101431ADDAY121999GF106991041001999999011011MD1210061+9999MW1011
0068803420999991962010714004+01450-077233FM-12+180699999V0209991C00001021001CN0250001N9+01781+99999999999ADDAY121999GA1999+006009049GA2081+021009029MW1021EQDQ01+000072SCOTCV
0078476780999991962100620004+33100+139783FM-12+008199999V0200701N01081007801CN0200001N9+02061+01671101401ADDAY101999GA1999+011709079GF107991051021008001051999MW1801EQDQ01    003SCCGA1
0041471530999991962051108004+35183+128933SAO  +0004RKPK V0201801N002112200019N0064001N9+01851+01411101191ADDGF108991999999999999999999MW1051MW2071
039472564024018196210111600C+41150-104817SAO  +1867CYS  V02029359012952200059N1440005N9+01895-00445100965ADDAA101000095GA1011+045724034GA2051+220009004GA3999+999999999GA4999+999999999GD12015+9999999GD23055+9999993GD30005+9999999GD40005+9999999GF106025999999999999999999MA1999999081075MW1001EQDN01 00000JPWTH 1QNNE11 1 00201E11 1 00306E11 1 00000E11 1 00000G11U1 99999H11 1 23150H11C1 32999H11 1 00999H11 1 00999K11 1 00024L11 1 09000M11 1 23940N11 1 00000Q11 1 10096S11 1 00066V11 1 00703W11 1 78025
0066725068999991962072909004+41650-070517SAO  +0043FMH  V0202031N002612200019N0240001N1+01851+01741102271ADDGA1061+220009029GF107991999999999999999999MA1999999101761MW1001
0350999999147561962120800005+41250-070067SAO  +0014ACK  V02024859015550061049N016000599+00445+00115099905ADDGA1999+003664154GA2999+006104064GA3999+012194064GD12025+9999999GD23025+9999999GD34035+9999999GD40995+9999999GF108085999999999999999999MA1999999099865EQDN01 00000JPWTH 1QNNE11 1 00203E11 1 00403E11 1 00604E11 1 00099G11 1 00020H11 1 17012H11 1 15020H11 1 15040K11 1 00034L11 1 01000M11 1 29490N11 1 00000Q11 1 09990S11 1 00040V11 1 01010W11 1 76030
0073061490999991962101100004+54567+011967FM-12+000899999V0200701N00101000151CN0000001N9+01001+01001102211ADDAY141999GA1091+000159999GF109991091999000251999999MD1710131+9999MW1451
0057248560999991962060909004+61483+129650FM-12+011299999V0202701N00871220001CN0200001N9+01221+00111099771ADDAY111999GF102991021011012501001001MD1210181+9999MW1011
0124564440999991962102512004+28483+098650FM-12+999999999V0200901N00211220001CN0200001N9+00281-00391999999ADDAA106000691AY181999GF101991011041012501001001KA1999M+01111MA1999999096301MD1310111+9999ME1431309MW1011EQDQ01  00063PRCP99
0075486150999991962030206004+06167+102283FM-12+000999999V0200901N00671007501CN0240001N9+02611+02391101211ADDAY161999GA1061+007509059GA2081+045009049GF108991061051008001021999MW1611
038899999923065196210070500E+39367-101700SAO  +1111GLD  V02033859006252200059N024000599+01225+00615100715ADDAA101000095GA1999+021344034GA2999+999999999GA3999+999999999GA4999+999999999GD12025+9999999GD20005+9999999GD30005+9999999GD40005+9999999GF102025999999999999999999MA1999999088185EQDN01 00000JPWTH 1QNNE11 1 00202E11 1 00000E11 1 00000E11 1 00000G11U1 99999H11 1 23070H11 1 00999H11 1 00999H11 1 00999K11 1 00043L11 1 01500M11 1 26040N11 1 00000Q11 1 10071S11 1 00054V11 1 00202W11 1 18012
0269999999265331962082402005+66917-151517SAO  +020599999V02020359001050167649N048000599+01505+00785100235ADDGD13995+9999999GD20995+9999999GD30995+9999999GD40995+9999999GF107075999999999999999999MA1999999097775EQDN01 00000JPWTH 1QNNE11 1 00499E11 1 00099E11 1 00099E11 1 00099G11 1 00055K11 1 00046L11 1 03000M11 1 28870N11 1 00000Q11 1 10023S11 1 00059V11 1 00909W11 1 56002
042272208013880196206150900C+32900-080033SAO  +0012CHS  V02099999000050365849N0080005N1+02115+02065101195ADDAA101000095GA1091+002444104GA2051+036584034GA3999+999999999GA4999+999999999GD11015+9999993GD23055+9999999GD30005+9999999GD40005+9999999GF105055999999999999999999MA1101191101025MW1045MW2111MW3445EQDQ01    003PRSWM1N01 07280JPWTH 1QNNE11 1 00101E11 1 00406E11 1 00000E11 1 00000G11 1 00120H11 1 98008H11 1 23120H11 1 00999H11 1 00999K11 1 00069L11 1 00500M11 1 29830N11 1 07280Q11 1 10119S11 1 00070V11 1 00606W11 1 00000
0059478990999991962100205004+33250+134183FM-12+018699999V0200701N01341011701CN0100001N9+02171+02001101651ADDAY101999GA1061+011709049GF107991021021008001071999MW1021
0035724836232081962111402004+38667-121400SAO  +0022MCC  V0201401N001012200019N0080001N9+01461+01241999999ADDGF108991999999999999999999MW1051
0091662150999991962122306004-09550+016367FM-12+114299999V0202901N00311045001CN0250001N9+01891+01781999999ADDAY121999GA1041+003009079GA2031+045009039GA3081+054009049GF108991041061004501071999MW1031
034099999914942196208241300E+41300-095900SAO  +0304OMA  V02031559005250143349N016000599+01785+01675101605ADDAA101000095GA1999+001224134GA2999+014334064GD14005+9999999GD20085+9999999GD30995+9999999GD40995+9999999GF108085999999999999999999MA1999999098105MW1615EQDN01 02000JPWTH 1QNNE11 1 00600E11 1 00010E11 1 00099E11 1 00099G11 1 00047H11 1 13004H11 1 15047K11 1 00062L11 1 01000M11 1 28970N11 1 02000Q11 1 10160S11 1 00064V11 1 01010W11 1 88010
0232999999150401962052305005+51383-001283SAO  +0125EGVI V02027059005752200059N017600599+00675+00395999999ADDGD13995+9999993GD20995+9999999GD30995+9999999GD40995+9999999GF105995999999999999999999EQDN01 00000JPWTH 1QNNE11 1 00399E11 1 00099E11 1 00099E11 1 00099G11U1 99999K11 1 00039L11 1 01100N11 1 00000S11 1 00044V11 1 00699W11 1 77011
0035471025999991962030522004+38033+127150SAO  +0069RKSC V0209991C000010072019N0064001N1+00301+00191999999ADDGF108991999999999999999999MW1111
0011476270999991962112403004+36217+140100FM-12+087099999V0203201N005719999999N9999999N9+00281+99999999999ADDAY101999
039499999914819196206160200E+41783-087750SAO  +0187MDW  V02018059003652200059N009600599+02565+01065101365ADDAA101000095GA1999+999999004GA2999+999999999GA3999+999999999GA4999+999999999GD11015+9999993GD20005+9999999GD30005+9999999GD40005+9999999GF101005999999999999999999MA1999999099155MW1045EQDN01 08000JPWTH 1QNNE11 1 00101E11 1 00000E11 1 00000E11 1 00000G11U1 99999H11C1 32999H11 1 00999H11 1 00999H11 1 00999K11 1 00051L11 1 00600M11 1 29280N11 1 08000Q11 1 10136S11 1 00078V11 1 00100W11 1 55007
0232999999176051962010408005+76517-068833SAO  +0077BGTL V02009059003152200059N011200599-02175-02395999999ADDGD10995+9999999GD20995+9999999GD30995+9999999GD40995+9999999GF100995999999999999999999EQDN01 00000JPWTH 1QNNE11 1 00099E11 1 00099E11 1 00099E11 1 00099G11U1 99999K11 1-00011L11 1 00700N11 1 00000S11 1-00007V11 1 00099W11 1 33006
038899999923154196206021900E+39283-114850SAO  +1906ELY  V02022559002652200059N072000599+02115+00115101355ADDAA101000095GA1999+018294084GA2999+999999999GA3999+999999999GA4999+999999999GD12045+9999999GD20005+9999999GD30005+9999999GD40005+9999999GF104045999999999999999999MA1999999081105EQDN01 00000JPWTH 1QNNE11 1 00205E11 1 00000E11 1 00000E11 1 00000G11U1 99999H11 1 11060H11 1 00999H11 1 00999H11 1 00999K11 1 00034L11 1 04500M11 1 23950N11 1 00000Q11 1 10135S11 1 00070V11 1 00505W11 1 66005
0059419410999991962031019004+22267+091817AERO +000699999V0209991C00001220001CN0080001N9+99999+99999101241ADDAY101999GA1021+030009039GF102991021001999999061001MW1011
038899999914842196209232000E+40667-089683SAO  +020499999V02011359003652200059N024000599+02285+00505102395ADDAA101000095GA1999+999999034GA2999+999999004GA3999+999999999GA4999+999999999GD10005+9999999GD20005+9999999GD30005+9999999GD40005+9999999GF100005999999999999999999MA1999999099975EQDN01 00000JPWTH 1QNNE11 1 00000E11 1 00000E11 1 00000E11 1 00000G11U1 99999H11 1 23999H11 1 32999H11 1 00999H11 1 00999K11 1 00041L11 1 01500M11 1 29520N11 1 00000Q11 1 10239S11 1 00073V11 1 00000W11 1 34007
038899999913963196209021300E+34733-092233SAO  +008499999V02009059002650304849N012800599+02335+02225101685ADDAA101002595GA1999+013724084GA2999+030484034GA3999+999999999GA4999+999999999GD12025+9999999GD23045+9999999GD30005+9999999GD40005+9999999GF106065999999999999999999MA1999999100755EQDN01 00000JPWTH 1QNNE11 1 00202E11 1 00405E11 1 00000E11 1 00000G11 1 00100H11 1 11045H11 1 23100H11 1 00999H11 1 00999K11 1 00072L11 1 00800M11 1 29750N11 1 00000Q11 1 10168S11 1 00074V11 1 00707W11 1 33005
0057513790999991962100421004+44050+089450FM-12+077199999V0201801N00411220001CN0600001N9+00111-00221102661ADDAY101999GF100991001001999999001001MD1710041+9999MW1021
004672303013714196201060500D+35183-079017SAO  +0066POB  V0209991C000010096019N0112001N9+00961+00851999999ADDAA101000095GF108991999999999999999999MW1001
0082716280999991962042600004+45317-075667SAO  +0126CYOW V0200451N003612200019N0240001N1+00631-00091101611ADDGA1021+030009039GA2031+075009009GF107991999999999999999999MA1999999100031MW1001
004672469023062196209180700A+39750-104867SAO  +1625DEN  V0201801N002612200019N0240001N1+01301+00241999999ADDAA101000095GF100991999999999999999999MW1001
0091999999241281962021605005+40900-117800SAO  +1311WMC  V02013559004159999999N999999999+00335+99999999999ADDGF108995999999999999999999MA1999999086155QNNM11 1 25440S11 1 00038V11 1 01099W11 1 44008
0057524240999991962060118004+40500+095917FM-12+117799999V0209991C00001220001CN0500001N9+01001+00221101281ADDAY111999GF101991001001999999001021MD1710071+9999MW1021
0275727935242341962062506003+47533-122300SAO  +0010BIF  V02099999000052200059N0160005N1+02005+01395101495ADDGD11995+9999993GD20995+9999999GD30995+9999999GD40995+9999999GF102015999999999999999999MA1999999101395MW1001EQDN01 00000JPWTH 1QNNE11 1 00199E11 1 00099E11 1 00099E11 1 00099G11U1 99999K11 1 00057L11 1 01000M11 1 29940N11 1 00000Q11 1 10149S11 1 00068V11 1 00301W11 1 00000
0057267060999991962061712004+54367+021300FM-12+999999999V0202901N00511004501CN0100001N9+01781+01281101961ADDAY121999GF107991071091004501001001MD1210081+9999MW1021
007494568099999196207300500N-27630+152720AUST +0031YBAM V0203155N003659999999N999999999+02195+00605999999ADDAY144999GA1005+999999999GF100995004999999999999999MA1999999101715MW1045
0057066000999991962071912004+45850+006533FM-12+159999999V0202701N00361036001CN0150001N9+00891+00281999999ADDAY121999GF108991011051001501071999MD1210041+9999MW1611
0057289000999991962011415004+53250+050450FM-12+004499999V0201601N00211220001CN0100001N9-01281-01721103291ADDAY101999GF100991001001999999001001MD1610081+9999MW1021
0082749066999991962040616004+32267-064850SAO  +0013MYUN V0200451N005712200019N0160001N1+01691+00741102971ADDGA1031+007509089GA2031+220009009GF107991999999999999999999MA1999999102841MW1001
0109680120999991962041608004+19233+017717FM-12+125099999V0209991C000019999999N0600001N9+02111+01561999999ADDAA124002091AY121999GF108991999999999999999999KA1999M+03061KA2999N+02061MA1999999087811MD1310091+9999MW1021
0049489070999991962120721004+10000+105083FM-12+000399999V0203601N001019999999N0150001N9+02221+02111101041ADDGF107991999999999999999999MD1810121+9999MW1001
0132478270999991962090318004+31567+130550FM-12+000599999V0200501N00151007801CN0150001N9+02501+02391100821ADDAA106003091AJ100009199999999AY101999GA1999+999999079GA2061+999999099GF107991071091008001999999MA1999999100781MD1710101+9999MW1171
0011478290999991962121421004+31733+131083FM-12+015599999V0202701N001519999999N9999999N9+01391+99999999999ADDAY101999
0082718930999991962050600004+49717-124900SAO  +0023CYQQ V0200451N002612200019N0320001N1+01021+00351102471ADDGA1031+015009099GA2021+090009009GF107991999999999999999999MA1999999102201MW1001
010694999900256196201292300N-36220+149130AUST +0860     V0203605N002659999999N999999999+01895+01405999999ADDAY114999GA1015+004505085GA2015+999999035GA3015+999999999GF102995014025004505045055MA1999999091805MW1005
0308703080257131962081716003+57150-170217SAO  +0009SNP  V02009059005750012249N0024005N1+00725+00725100345ADDGA1081+001224074GD14085+9999999GD20995+9999999GD30995+9999999GD40995+9999999GF108085999999999999999999MA1999999100245MW1455MW2615EQDN01 02070JPWTH 1QNNE11 1 00610E11 1 00099E11 1 00099E11 1 00099G11 1 00004H11 1 16004K11 1 00045L11 1 00150M11 1 29600N11 1 02070Q11 1 10034S11 1 00045V11 1 01010W11 1 33011
0269999999265121962070618005+63883-152283SAO  +021499999V02099999000050182949N024000599+01565+01225102035ADDGD13995+9999999GD24995+9999999GD30995+9999999GD40995+9999999GF108085999999999999999999MA1999999099395EQDN01 00000JPWTH 1QNNE11 1 00499E11 1 00699E11 1 00099E11 1 00099G11 1 00060K11 1 00054L11 1 01500M11 1 29350N11 1 00000Q11 1 10203S11 1 00060V11 1 01010W11 1 00000
018272344013964196203121100C+35333-094367SAO  +0136FSM  V02027059006252200059N0240005N1+00285-00285100815ADDAA101000095GF100005999999999999999999MA1999999099155MW1001EQDN01 00000JPWTH 1QNNG11U1 99999K11 1 00027L11 1 01500M11 1 29280N11 1 00000Q11 1 10081S11 1 00037V11 1 00000W11 1 77012
0269999999264351962051003005+64550-149083SAO  +011199999V02022559004150076249N016000599+00395-00065101785ADDGD12995+9999999GD24995+9999999GD30995+9999999GD40995+9999999GF108085999999999999999999MA1999999100375EQDN01 00000JPWTH 1QNNE11 1 00299E11 1 00699E11 1 00099E11 1 00099G11 1 00025K11 1 00031L11 1 01000M11 1 29640N11 1 00000Q11 1 10178S11 1 00039V11 1 01010W11 1 66008
0269999999231791962011604005+34767-114617SAO  +0280EED  V02036059004152200059N024000599+00725-01225102475ADDGD13995+9999993GD20995+9999999GD30995+9999999GD40995+9999999GF107025999999999999999999MA1999999099225EQDN01 00000JPWTH 1QNNE11 1 00399E11 1 00099E11 1 00099E11 1 00099G11U1 99999K11 1 00010L11 1 01500M11 1 29300N11 1 00000Q11 1 10247S11 1 00045V11 1 00903W11 1 11008
0011478290999991962021521004+31733+131083FM-12+015599999V0201101N002619999999N9999999N9-00331+99999999999ADDAY101999
0066467690999991962031311004+24867+121233SAO  +0241RCDI V0209991C000010120019N0112001N1+02021+01851101471ADDGA1081+012009009GF108991999999999999999999MA1999999098651MW1001
0041107750999991962083005004+49217+011833SAO  +0445EDIH V0202701N002112200019N0048001N9+00911+00911999999ADDGF107991999999999999999999MW1051MW2111
0377999999225361962082919005+21983-159350SAO  +0031LIH  V02004559004150061049N024000599+02445+02065101805ADDGA1999+006104084GA2999+013724064GA3999+999999999GA4999+999999999GD13055+9999999GD23025+9999999GD30005+9999999GD40005+9999999GF107075999999999999999999MA1999999101295EQDN01 00000JPWTH 1QNNE11 1 00406E11 1 00403E11 1 00000E11 1 00000G11 1 00020H11 1 11020H11 1 15045H11 1 00999H11 1 00999K11 1 00069L11 1 01500M11 1 29910N11 1 00000Q11 1 10180S11 1 00076V11 1 00909W11 1 22008
0051488962999991962101104004+10967+106817SAO  +0011VVBH V0203151N002619999999N0320001N1+99999+99999999999ADDGA1031+006009009GF107991999999999999999999MW1001
0043421310999991962091906004+29167+075733FM-12+022199999V0201601N00311220001CN0200001N9+03221+02721100321ADDAY101999GF104991041011017501001001MW1031
008283721099999196210102000N-23000-047133BRAZ +0661SBKP V02014019999999999999N005000199+01851+01801999999ADDGA1041+003501061GA2081+020001041GF108991999999999999999999MA1101161093641MW1531
0079310540999991962012312004+59183+135650FM-12+021299999V0209991C000019999999N0040001N9-03111-03391103021ADDAA106001091AA299000391AY171999GF108991999081000251091031MD1210031+9999MW1711
0051489130999991962022422004+09600+105967SAO  +0005VVBX V0209991C000012200019N0080001N1+99999+99999999999ADDGA1031+069009999GF102991999999999999999999MW1001
0029723930999991962042423004+34717-120567SAO  +0112VBG  V0203201N005710036019N0240001N9+01391+00941999999ADDGF108991999999999999999999
0057488960999991962102215004+10967+106817FM-12+001399999V0209991C000019999999N0120001N9+02501+02501101031ADDAY161999GF108991999999999999999999MD1810071+9999MW1021
0377999999138221962062521005+34767-082383SAO  +029899999V02013559001552200059N024000599+03225+01505101295ADDGA1999+015244084GA2999+999999004GA3999+999999999GA4999+999999999GD12025+9999999GD22015+9999999GD30005+9999999GD40005+9999999GF102025999999999999999999MA1999999097935EQDN01 00000JPWTH 1QNNE11 1 00202E11 1 00201E11 1 00000E11 1 00000G11U1 99999H11 1 11050H11C1 32999H11 1 00999H11 1 00999K11 1 00059L11 1 01500M11 1 28920N11 1 00000Q11 1 10129S11 1 00090V11 1 00302W11 1 44003
0269999999231791962091007005+34767-114617SAO  +0280EED  V02020359002652200059N024000599+02895+00615101025ADDGD10995+9999999GD20995+9999999GD30995+9999999GD40995+9999999GF100005999999999999999999MA1999999097975EQDN01 00000JPWTH 1QNNE11 1 00099E11 1 00099E11 1 00099E11 1 00099G11U1 99999K11 1 00043L11 1 01500M11 1 28930N11 1 00000Q11 1 10102S11 1 00084V11 1 00000W11 1 56005
0043489480999991962072607004+16667+105000FM-12+018499999V0202201N003119999999N0350001N9+02671+99999999999ADDAY121999GF108991999999999999999999MW1021
0238724065937331962061613003+39083-076767SAO  +0043FME  V02036059002652200059N0112005N9+02285+01395999999ADDGD10995+9999999GD20995+9999999GD30995+9999999GD40995+9999999GF100995999999999999999999MW1001EQDN01 00000JPWTH 1QNNE11 1 00099E11 1 00099E11 1 00099E11 1 00099G11U1 99999K11 1 00057L11 1 00700N11 1 00000S11 1 00073V11 1 00099W11 1 11005
019872698024229196201221000C+45600-122600SAO  +0006PDX  V02013559002152200059N0240005N9-00565-01445103425ADDAA101000095GA1001+999999999GF100005999999999999999999MA1999999103285MW1001EQDN01 00000JPWTH 1QNNG11U1 99999K11 1 00006L11 1 01500M11 1 30500N11 1 00000Q11 1 10342S11 1 00022V11 1 00000W11 1 44004
0081334290999991962061406004+49400+026817FM-12+019599999V0203201N00311220001CN0200001N9+01391+00781999999ADDAA199000091AY101999GF100991001001999999001001KA1999N+00781MD1210101+9999MW1021
0051488600999991962102208004+16550+111617SAO  +000699999V0200231N007710048019N0240001N1+99999+99999999999ADDGA1051+004809009GF107991999999999999999999MW1001
0059934360999991962042104004-41333+174800FM-12+000799999V0201701N01031005101CN0280001N9+01331+99999101811ADDAY121999GA1051+005109059GF105991051051004501001001MW1011
038899999913865196208262000E+32333-088750SAO  +0088MEI  V02002359003650091449N024000599+03065+02065101495ADDAA101000095GA1999+009144084GA2999+036584034GA3999+999999999GA4999+999999999GD13055+9999999GD23015+9999999GD30005+9999999GD40005+9999999GF106065999999999999999999MA1999999100415EQDN01 00000JPWTH 1QNNE11 1 00406E11 1 00401E11 1 00000E11 1 00000G11 1 00030H11 1 11030H11 1 23120H11 1 00999H11 1 00999K11 1 00069L11 1 01500M11 1 29650N11 1 00000Q11 1 10149S11 1 00087V11 1 00707W11 1 12007
0043614500999991962111609004+18550-011433FM-12+009199999V0200601N00511045001CN0200001N9+02611+01111101171ADDAY121999GF106991061001999999021021MW1021
0377999999242551962020415005+99999+999999SAO  +999999999V02009059001050076249N016000599+00615+00565102595ADDGA1999+007624064GA2999+999999999GA3999+999999999GA4999+999999999GD13065+9999999GD20005+9999999GD30005+9999999GD40005+9999999GF106065999999999999999999MA1999999102375EQDN01 00000JPWTH 1QNNE11 1 00408E11 1 00000E11 1 00000E11 1 00000G11 1 00025H11 1 15025H11 1 00999H11 1 00999H11 1 00999K11 1 00042L11 1 01000M11 1 30230N11 1 00000Q11 1 10259S11 1 00043V11 1 00808W11 1 33002
0165999999938041962021003005+34917-081950SAO  +024899999V02031559009352200059N016000599+00834+00285100784ADDGF100005999999999999999999MA1999999097774EQDN01 00000JPWTH 1QNNG11U1 99999K11 1 00037L11 1 01000M11 1 28870N11 1 00000Q11 1 10078S11 1 00047V11 1 00000W11 1 88018
0057334290999991962081015004+49400+026817FM-12+019599999V0203601N00411220001CN0200001N9+02391+01781999999ADDAY121999GF103991031021012501001001MD1710141+9999MW1021
0066746710138061962010815004+36667-087500SAO  +0174HOP  V0202301N005710105019N0112001N9-00261-00761101461ADDGA1081+010509059GF108991999999999999999999MA1999999099321MW1851
0043431930999991962100506004+15867+073633FM-12+000999999V0202701N00151220001CN0200001N9+03111+02221100961ADDAY101999GF100991001001999999001001MW1021
0082704140999991962090323004+52717+174100SAO  +0031PASY V0201601N004112200019N0240001N9+01021+00691103011ADDGA1021+006009089GA2031+220009009GF107991999999999999999999MA1999999102641MW1001
0178477410999991962112712004+35450+133067FM-12+001999999V0200701N000519999999N0250001N9+00331+00221102141ADDAA106000691AA224002091AJ100009199999999AY101999GA1999+999999029GF102991021021999999001011IA1089KA1999M+00941KA2999N+99999MA1999999101931MD1710131+9999MW1021EQDQ01 +00612ATMN  
0383722235138381962052306003+30633-088067SAO  +0009BFM  V02018059001052200059N0112005N1+02115+01945101595ADDGA1021+220009024GA2999+999999999GA3999+999999999GA4999+999999999GD11025+9999993GD20005+9999999GD30005+9999999GD40005+9999999GF102005999999999999999999MA1999999101465MW1001EQDN01 00000JPWTH 1QNNE11 1 00103E11 1 00000E11 1 00000E11 1 00000G11U1 99999H11C1 37999H11 1 00999H11 1 00999H11 1 00999K11 1 00067L11 1 00700M11 1 29960N11 1 00000Q11 1 10159S11 1 00070V11 1 00300W11 1 55002
0082740430999991962100401004+65283-126800SAO  +0064CYVQ V0201351N006710105019N0128001N1+00521+00411100631ADDGA1021+007509079GA2061+010509059GF108991999999999999999999MA1999999099831MW1611
0035742070242011962102223004+47083-122583SAO  +0095GRF  V0203601N002110084019N0240001N9+01521+01191999999ADDGF108991999999999999999999MW1001
0035722860231191962013107004+33900-117250SAO  +0470RIV  V0203201N001012200019N0240001N9+00891+00171999999ADDGF100991999999999999999999MW1001
0081236060999991962062906004+63567+053717FM-12+014999999V0203201N00311220001CN0200001N9+01891+00891100871ADDAA199000091AY101999GF102991011011012501011021KA1999N+01111MD1210051+9999MW1021
0066467700999991962030706004+24267+120617SAO  +0005RCMQ V0200231N008210210019N0128001N1+02181+01691101571ADDGA1051+021009079GF107991999999999999999999MA1999999099151MW1001
0275999999253331962021016005+57067-135350SAO  +000599999V02013559007250091449N016000599+00725+00115099535ADDGD14995+9999999GD20995+9999999GD30995+9999999GD40995+9999999GF108085999999999999999999MA1999999099295MW1615EQDN01 02000JPWTH 1QNNE11 1 00699E11 1 00099E11 1 00099E11 1 00099G11 1 00030K11 1 00034L11 1 01000M11 1 29320N11 1 02000Q11 1 09953S11 1 00045V11 1 01010W11 1 44014
008295866099999196206090500N-37730+144900AUST +0081YMEN V0202485N006759999999N999999999+01385+00405999999ADDGA1035+012005085GA2025+015005065GF105995034025012005999999MA1999999100385MW1155
0275999999937361962100309005+38133-078450SAO  +019399999V02036059002152200059N004800599+01284+01175102424ADDGD10995+9999999GD20995+9999999GD30995+9999999GD40995+9999999GF100005999999999999999999MA1999999100104MW1445EQDN01 07200JPWTH 1QNNE11 1 00099E11 1 00099E11 1 00099E11 1 00099G11U1 99999K11 1 00053L11 1 00300M11 1 29560N11 1 07200Q11 1 10242S11 1 00055V11 1 00000W11 1 11004
0066747340999991962120806004+32367-106467SAO  +129299999V0202701N002112200019N0640001N9+00691-00151102431ADDGA1001+999999999GF100991999999999999999999MA1999999087741MW1001
0035035623999991962041317004+52367-000250SAO  +0049EGWZ V0200501N008210123019N0176001N9+00741+00021999999ADDGF107991999999999999999999MW1001
0081579570999991962070118004+25250+110167FM-12+015699999V0209991C00001007801CN0080001N9+02281+02281100321ADDAA106007091AY181999GF108991081091008001999999KA1999M+02611MD1810071+9999MW1801
0057442140999991962032018004+48967+089967FM-12+172099999V0200901N00211220001CN0200001N9-01281-02281999999ADDAY101999GF100991001001999999001001MD1110031+9999MW1021
0057366220999991962052612004+47933+080383FM-12+066099999V0203201N00511012301CN0500001N9+01391+00891101431ADDAY181999GF108991071091012501061999MD1210181+9999MW1801
0165999999931011962123109005+33683-117717SAO  +011699999V02006859002152200059N011200599+00674-00115101824ADDGF100005999999999999999999MA1999999100444EQDN01 00000JPWTH 1QNNG11U1 99999K11 1 00030L11 1 00700M11 1 29660N11 1 00000Q11 1 10182S11 1 00044V11 1 00000W11 1 32004
0269999999265331962110521005+66917-151517SAO  +020599999V02099999000050121949N024000599-00395-00615100145ADDGD13995+9999999GD23995+9999999GD30995+9999999GD40995+9999999GF106045999999999999999999MA1999999097605EQDN01 00000JPWTH 1QNNE11 1 00499E11 1 00499E11 1 00099E11 1 00099G11 1 00040K11 1 00021L11 1 01500M11 1 28820N11 1 00000Q11 1 10014S11 1 00025V11 1 00705W11 1 00000
0324743920146111962073008003+43900-069933SAO  +0021NHZ  V02022559002150076249N0080005N1+01785+01615101935ADDGA1081+007624064GD14085+9999999GD20995+9999999GD30995+9999999GD40995+9999999GF108085999999999999999999MA1999999101665MW1455MW2805EQDQ01    003PRSWM1N01 02370JPWTH 1QNNE11 1 00610E11 1 00099E11 1 00099E11 1 00099G11 1 00025H11 1 15025K11 1 00061L11 1 00500M11 1 30020N11 1 02370Q11 1 10193S11 1 00064V11 1 01010W11 1 66004
0066747340999991962011103004+32367-106467SAO  +129299999V0201601N004110150019N0064001N9-01421-01641105081ADDGA1051+015009059GF107991999999999999999999MA1999999088721MW1711
0063324770999991962040200004+54283+155650FM-12+999999999V0209991C00001220001CN0500001N9-00721-01611101511ADDAY101999GF100991001001999999001001IA1319MD1610011+9999MW1021
0057385110999991962042412004+40767+055383FM-12+999999999V0203201N00101012301CN0500001N9+01891+00501102181ADDAY121999GF107991071011012501001001MD1710111+9999MW1031
0070578450999991962021406004+26417+109500FM-12+999999999V0203601N00511007801CN0350001N9+00781+00221103211ADDAY121999GF107991071011008001001001KA1999N+00281MD1710291+9999MW1031
0098716240999991962102518004+43683-079633SAO  +0176CYYZ V0202031N004610036019N0112001N1+00351+00131101531ADDGA1051+003609079GA2021+010509059GA3021+024009049GF108991999999999999999999MA1999999099361MW1001
0057504340999991962111918004+50500+121467FM-12+999999999V0209991C00001220001CN0200001N9-03001-03221098061ADDAY101999GF100991001001999999001001MD1210041+9999MW1021
0043286370999991962040412004+55000+057817FM-12+040299999V0202301N00411220001CN0200001N9+01001+99999102211ADDAY121999GF107991001001999999001011MW1021
0057576620999991962012609004+28917+111550FM-12+003799999V0201801N00101220001CN0100001N9+01281-00281102721ADDAY101999GF100991001001999999001001MD1710141+9999MW1021
0377999999038681962041814005+99999+999999SAO  +999999999V02033859003652200059N011200599+01395+00285102105ADDGA1999+010674084GA2999+999999004GA3999+999999999GA4999+999999999GD12015+9999999GD22025+9999999GD30005+9999999GD40005+9999999GF102025999999999999999999MA1999999099865EQDN01 00000JPWTH 1QNNE11 1 00201E11 1 00202E11 1 00000E11 1 00000G11U1 99999H11 1 11035H11C1 32999H11 1 00999H11 1 00999K11 1 00037L11 1 00700M11 1 29490N11 1 00000Q11 1 10210S11 1 00057V11 1 00302W11 1 18007
0070484050999991962032300004+16050+103683FM-12+014099999V0201201N00151220001CN0080001N9+02721+02281100901ADDAY111999GF106991001001999999001061KA1999N+02611MD1999999+0291MW1101
0057537820999991962062409004+37833+113500FM-12+999999999V0200401N00211007801CN0200001N9+01891+01611100321ADDAY181999GF107991071091008001001001MD1210031+9999MW1171
0043322270999991962081718004+59100+159817FM-12+999999999V0209991C00001024001CN0500001N9+00281+00281101431ADDAY141999GF107991071001999999031021MW1281
0057506030999991962082209004+48750+117000FM-12+999999999V0200901N00411220001CN0300001N9+02501+01281101381ADDAY101999GF101991011011012501001011MD1710041+9999MW1011
0269999999265161962042321005+61583-159533SAO  +002499999V02036059002152200059N064000599+00115-00615101085ADDGD12995+9999999GD23995+9999999GD30995+9999999GD40995+9999999GF106035999999999999999999MA1999999100755EQDN01 00000JPWTH 1QNNE11 1 00299E11 1 00499E11 1 00099E11 1 00099G11C1 99999K11 1 00021L11 1 04000M11 1 29750N11 1 00000Q11 1 10108S11 1 00034V11 1 00704W11 1 11004
0096982320999991962042015004+18367+121633SAO  +0004RPUA V0200451N004610300019N0560001N1+02521+02131101581ADDGA1021+012009059GA2081+030009049GF108991999999999999999999MA1999999101521MD1210301+9999MW1001
0057233410999991962040909004+66700+070200FM-12+999999999V0202001N00511220001CN0200001N9+00281+00001102461ADDAY111999GF106991001001999999001021MD1710151+9999MW1021
0057100040999991962030403004+54267+007200FM-12+000399999V0202201N004119999999N0100001N9+00111-00111099981ADDAY121999GF108991999999999999999999MD1810041+9999MW1021
0187727930242331962090200003+47450-122300SAO  +0122SEA  V02027059004652200059N0112005N1+02115+01285101415ADDGA1001+999999999GF100005999999999999999999MA1999999099805MW1001EQDN01 00000JPWTH 1QNNG11U1 99999K11 1 00055L11 1 00700M11 1 29470N11 1 00000Q11 1 10141S11 1 00070V11 1 00000W11 1 77009
0050062650999991962120623004+52133+005267SAO  +0013EHSB V0209991C000012200019N0012001N1-00091-00481102911ADDGF100991999999999999999999MA1999999102911MW1451
0377999999241931962030801005+40717-114033SAO  +1293ENV  V02033859005252200059N096000599+00675-00445100915ADDGA1999+015244084GA2999+030484034GA3999+048774034GA4999+999999024GD12015+9999999GD22015+9999999GD32025+9999999GD44055+9999993GF108035999999999999999999MA1999999086455EQDN01 00000JPWTH 1QNNE11 1 00201E11 1 00201E11 1 00202E11 1 00506G11U1 99999H11 1 11050H11 1 23100H11 1 23160H11C1 37999K11 1 00024L11 1 06000M11 1 25530N11 1 00000Q11 1 10091S11 1 00044V11 1 01004W11 1 18010
039472533014827196204192000C+41000-085217SAO  +0249FWA  V02031559010350152449N0240005N9+01005-00285101665ADDAA101000095GA1051+015244084GA2999+999999999GA3999+999999999GA4999+999999999GD13055+9999999GD20005+9999999GD30005+9999999GD40005+9999999GF105055999999999999999999MA1999999098615MW1001EQDN01 00000JPWTH 1QNNE11 1 00406E11 1 00000E11 1 00000E11 1 00000G11 1 00050H11 1 11050H11 1 00999H11 1 00999H11 1 00999K11 1 00027L11 1 01500M11 1 29120N11 1 00000Q11 1 10166S11 1 00050V11 1 00606W11 1 88020
0082718670999991962031306004+53967-101100SAO  +0271CYQD V0203601N003610300019N0048001N1-00981-01151102531ADDGA1051+004509079GA2031+030009039GF108991999999999999999999MA1999999099051MW1711
0043967730999991962042506004-06550+107667FM-12+011099999V0200701N00211004501CN0150001N9+03111+02281100801ADDAY121999GF107991061021004501001021MW1051
0394722630230341962072620003+31367-100500SAO  +0582SJT  V02006859004152200059N0320005N1+03005+02005101725ADDAA101000095GA1021+012195095GA2021+036585035GA3051+220001005GA4999+999999999GD12025+9999999GD22025+9999999GD33055+9999999GD40005+9999999GF106045999999999999999999MA1999999095195MW1001EQDN01 00000JPWTH 1QNNE11 1 00202E11 1 00202E11 1 00406E11 1 00000G11C1 99999H11 1 18040H11 1 23120H11C1 32999H11 1 00999K11 1 00068L11 1 02000M11 1 28110N11 1 00000Q11 1 10172S11 1 00086V11 1 00705W11 1 32008
0111320980999991962060412004+49217+143100FM-12+000499999V0200701N01181007801CN0500001N9+00721+00281999999ADDAA106002091AA299000591AY181999GF108991081031008001999999KA1999M+01281MD1710011+9999MW1801EQDQ01+100613APOSLP
0076718160999991962072114004+53317-060433SY-SA+0044YYR  V0201401N003110300019N0320001N9+01741+01241100901ADDGA1041+006009089GA2031+030009039GF107991999999999999999999MA1999999100371
0377704540257041962110213002+51883-176650SAO  +0005ADK  V02022559002152200059N011200599+00065-00285099105ADDGA1999+007624064GA2999+999999999GA3999+999999999GA4999+999999999GD12025+9999999GD20005+9999999GD30005+9999999GD40005+9999999GF102025999999999999999999MA1999999099095EQDN01 00000JPWTH 1QNNE11 1 00202E11 1 00000E11 1 00000E11 1 00000G11U1 99999H11 1 15025H11 1 00999H11 1 00999H11 1 00999K11 1 00027L11 1 00700M11 1 29260N11 1 00000Q11 1 09910S11 1 00033V11 1 00202W11 1 66004
0072680320999991962071412004+19983+023417FM-12+090099999V0209991C00001220001CN0240001N9+02561+00391999999ADDAY121999GF100991001001999999001001MA1999999091661MD1710271+9999MW1021
0057122500999991962011809004+53050+018583FM-12+007099999V0201801N00311024001CN0040001N9+00111-00221101401ADDAY121999GF108991081001999999999999MD1610031+9999MW1101
0096986180999991962031512004+09750+118733FM-12+001699999V0200901N00211007501CN0400001N9+02721+02391101181ADDGA1071+007509049GA2031+000259079GF108991061011008001031001MA1999999100981MD1210261+9999MW1001
0068586330999991962083112004+28967+118883FM-12+008099999V0200701N00721220001CN0200001N9+03001+02221100961ADDAA106000691AY181999GF102991021041012501001001MD1210181+9999MW1011
017699999913894196207020600E+30683-088250SAO  +0064MOB  V02099999000052200059N012800599+02395+02285101735ADDAA101000095GF100005999999999999999999MA1999999100955EQDN01 00000JPWTH 1QNNG11U1 99999K11 1 00073L11 1 00800M11 1 29810N11 1 00000Q11 1 10173S11 1 00075V11 1 00000W11 1 00000
0100255510999991962102400004+64683+170417FM-12+003399999V0203601N00211220001CN0500001N9-01781-02111101811ADDAA199999999AY101999GF102991021001999999041001KA1999N-02281MD1710041+9999MW1761EQDQ01  00002PRCP99
007494586099999196209020500N-28820+153280AUST +0017     V0200455N007259999999N999999999+01945+00705999999ADDAY124999GA1085+009005065GF108995084055009005999999MA1999999102855MW1025
018272344013964196210220100C+35333-094367SAO  +0136FSM  V02024859002652200059N0320005N1+01725+01175101495ADDAA101000095GF100005999999999999999999MA1999999099835MW1001EQDN01 00000JPWTH 1QNNG11U1 99999K11 1 00053L11 1 02000M11 1 29480N11 1 00000Q11 1 10149S11 1 00063V11 1 00000W11 1 76005
0171999999340611962022323005+49017+001233SAO  +0141LFOE V02004559005252200059N006400599-00285-00725102875ADDGF100005999999999999999999MA1999999101055MW1055EQDN01 08100JPWTH 1QNNG11U1 99999K11 1 00019L11 1 00400M11 1 29840N11 1 08100Q11 1 10287S11 1 00027V11 1 00000W11 1 22010
0070483250999991962032412004+18167+097833FM-12+031499999V0201501N00101220001CN0020001N9+03111+01721100451ADDAY101999GF101991001001999999041011KA1999M+03781MD1999999+0061MW1041
006172250012919196207270400D+25900-097433SAO  +0006BRO  V0201351N005112200019N0240001N1+02801+02461101801ADDAA101000095GF100991999999999999999999MA1999999101731MW1001
0057332610999991962091400004+51233+033200FM-12+014999999V0202701N00411220001CN0100001N9+00781+00501101291ADDAY101999GF102991001001999999001021MD1210101+9999MW1021
028099999924012196205200500E+46800-102800SAO  +079399999V02011359005252200059N024000599+01115+00895101635ADDAA101000095GD11995+9999993GD20995+9999999GD30995+9999999GD40995+9999999GF102015999999999999999999MA1999999092525EQDN01 00000JPWTH 1QNNE11 1 00199E11 1 00099E11 1 00099E11 1 00099G11U1 99999K11 1 00048L11 1 01500M11 1 27320N11 1 00000Q11 1 10163S11 1 00052V11 1 00301W11 1 34010
0085489180999991962041823004+08800+106583SAO  +000599999V0209991C000012200019N0176001N1+02521+99999100971ADDGA1031+006909009GF102991999999999999999999MA1999999100911MW1001EQDQ01+999990APOSLP
004672303013714196204020200D+35183-079017SAO  +0066POB  V0203201N003612200019N0112001N9+01411+00301999999ADDAA101000095GF102991999999999999999999MW1001
0238722680230091962123116003+33300-104533SAO  +1111ROW  V02099999000050701049N0240005N1-00065-00725999999ADDGD13995+9999999GD20995+9999999GD30995+9999999GD40995+9999999GF106995999999999999999999MW1001EQDN01 00000JPWTH 1QNNE11 1 00499E11 1 00099E11 1 00099E11 1 00099G11 1 00230K11 1 00019L11 1 01500N11 1 00000S11 1 00031V11 1 00899W11 1 00000
0011476760999991962111021004+34367+139250FM-12+001099999V0200701N001519999999N9999999N9+01441+99999999999ADDAY101999
0377999999116471962041909005+99999+999999SAO  +999999999V02006859005252200059N016000599+02505+01945101565ADDGA1999+005494084GA2999+024384034GA3999+999999999GA4999+999999999GD12025+9999999GD22025+9999999GD30005+9999999GD40005+9999999GF104045999999999999999999MA1999999101425EQDN01 00000JPWTH 1QNNE11 1 00202E11 1 00203E11 1 00000E11 1 00000G11U1 99999H11 1 11018H11 1 23080H11 1 00999H11 1 00999K11 1 00067L11 1 01000M11 1 29950N11 1 00000Q11 1 10156S11 1 00077V11 1 00505W11 1 32010
0275723815231611962031023003+34867-116783SAO  +0588DAG  V02029359011352200059N0400005N1+01175-00835101295ADDGD12995+9999999GD20995+9999999GD30995+9999999GD40995+9999999GF103035999999999999999999MA1999999094455MW1001EQDN01 00000JPWTH 1QNNE11 1 00299E11 1 00099E11 1 00099E11 1 00099G11U1 99999K11 1 00017L11 1 02500M11 1 27890N11 1 00000Q11 1 10129S11 1 00053V11 1 00404W11 1 78022
0035106160999991962120416004+49950+007267SAO  +0503EDAH V0201601N001512200019N0128001N9+00001-00891999999ADDGF100991999999999999999999MW1001
004394999900342196202012300N-41220+146350AUST +0011     V0202255N012959999999N999999999+01445+01305999999ADDAY104999GF104995999999999999999999MW1025
0035070881340641962120316001+49233+005683SAO  +0237LETI V0203601N001512200019N0096001N1+00241-00921999999ADDGF102991999999999999999999MW1051
0079584720999991962022400004+30850+122667FM-12+006799999V0200701N011819999999N0160001N9+00611+00501101381ADDAA106011091AA224020091AY161999GF108991999999999999999999MD1010051+9999MW1611
0057288250999991962061012004+53617+055817FM-12+013099999V0202001N00311012301CN0200001N9+01611+01001100671ADDAY181999GF107991071091012501001001MD1810131+9999MW1021
0035106870999991962102020004+49700-011950SAO  +0418EDIC V0201801N001510045019N0099001N9+00741+00411999999ADDGF108991999999999999999999MW1051
0081563740999991962120500004+29433+102233FM-12+261099999V0209991C00001220001CN0300001N9-00721-01001999999ADDAY101999GF100991001001999999001001MA1999999095001MD1110121+9999ME1431609MW1021
0165999999931051962111912005+33433-112367SAO  +029299999V02036059004152200059N024000599+00614-00445101944ADDGF100005999999999999999999MA1999999098514EQDN01 00000JPWTH 1QNNG11U1 99999K11 1 00024L11 1 01500M11 1 29090N11 1 00000Q11 1 10194S11 1 00043V11 1 00000W11 1 11008
031399999903856196212280800E+34700-086583SAO  +018499999V02099999000050012249N006400599+00115+00065102745ADDAA101000095GA1999+001224074GD14085+9999999GD20995+9999999GD30995+9999999GD40995+9999999GF108085999999999999999999MA1999999100345MW1455EQDN01 07000JPWTH 1QNNE11 1 00610E11 1 00099E11 1 00099E11 1 00099G11 1 00004H11 1 16004K11 1 00033L11 1 00400M11 1 29630N11 1 07000Q11 1 10274S11 1 00034V11 1 01010W11 1 00000
0238724956232111962010804003+38067-122517SAO  +0004SRF  V02099999000052200059N0112005N1+00445+00395999999ADDGD10995+9999999GD20995+9999999GD30995+9999999GD40995+9999999GF100995999999999999999999MW1001EQDN01 00000JPWTH 1QNNE11 1 00099E11 1 00099E11 1 00099E11 1 00099G11U1 99999K11 1 00039L11 1 00700N11 1 00000S11 1 00040V11 1 00099W11 1 00000
0043478300999991962082720004+31917+131417FM-12+000899999V0201101N005119999999N0100001N9+02501+02441100791ADDAY101999GF108991021021004501999999MW1801
0377999999412241962111603005+14500+120917SAO  +0002RPMS V02029359002152200059N014400599+02725+02225101055ADDGA1999+006104084GA2999+030484034GA3999+999999024GA4999+999999999GD12015+9999999GD22015+9999999GD34065+9999993GD40005+9999999GF108045999999999999999999MA1999999101025EQDN01 00000JPWTH 1QNNE11 1 00201E11 1 00201E11 1 00508E11 1 00000G11U1 99999H11 1 11020H11 1 23100H11C1 37999H11 1 00999K11 1 00072L11 1 00900M11 1 29830N11 1 00000Q11 1 10105S11 1 00081V11 1 01005W11 1 78004
038899999993729196206221000E+35267-075550SAO  +0002HAT  V02036059003152200059N012800599+02004+01895101694ADDAA101000095GA1999+999999004GA2999+999999999GA3999+999999999GA4999+999999999GD11035+9999993GD20005+9999999GD30005+9999999GD40005+9999999GF103015999999999999999999MA1999999101664EQDN01 00000JPWTH 1QNNE11 1 00104E11 1 00000E11 1 00000E11 1 00000G11U1 99999H11C1 32999H11 1 00999H11 1 00999H11 1 00999K11 1 00066L11 1 00800M11 1 30020N11 1 00000Q11 1 10169S11 1 00068V11 1 00401W11 1 11006
0081536460999991962101609004+38250+109417FM-12+108499999V0201801N00411220001CN0300001N9+01611-00221102251ADDAY101999GF100991001001999999001001MA1999999100001MD1710011+9999ME1315309MW1021
019872525014852196209240400C+41250-080667SAO  +0359YNG  V02009059002152200059N0160005N9+00725+00505102545ADDAA101000095GA1001+999999999GF100005999999999999999999MA1999999098215MW1001EQDN01 00000JPWTH 1QNNG11U1 99999K11 1 00041L11 1 01000M11 1 29000N11 1 00000Q11 1 10254S11 1 00045V11 1 00000W11 1 33004
0057540630999991962091709004+44833+125833FM-12+999999999V0200901N00101012301CN0240001N9+01721+01391100761ADDAY161031GF107991061051012501021999MD1710171+9999MW1601
0011476510999991962010315004+34717+136517FM-12+000399999V0203201N002619999999N9999999N9+00061+99999999999ADDAY101999
010695866099999196207230200N-37730+144900AUST +0081YMEN V0203605N007759999999N999999999+01445+00605999999ADDAY134999GA1005+999999999GA2005+999999999GA3075+999999999GF107995004999999999999065MA1999999100335MW1035
0302703080257131962041420003+57150-170217SAO  +0009SNP  V02031559008850061049N0112005N1-00115-00175100645ADDGA1081+006104064GD14085+9999999GD20995+9999999GD30995+9999999GD40995+9999999GF108085999999999999999999MA1999999100545MW1715EQDN01 04000JPWTH 1QNNE11 1 00610E11 1 00099E11 1 00099E11 1 00099G11 1 00020H11 1 15020K11 1 00029L11 1 00700M11 1 29690N11 1 04000Q11 1 10064S11 1 00030V11 1 01010W11 1 88017
0377999999232441962083103005+37417-122050SAO  +0012NUQ  V02033859004150024449N011200599+01675+01395101305ADDGA1999+002444074GA2999+999999999GA3999+999999999GA4999+999999999GD13065+9999999GD20005+9999999GD30005+9999999GD40005+9999999GF106045999999999999999999MA1999999101195EQDN01 00000JPWTH 1QNNE11 1 00407E11 1 00000E11 1 00000E11 1 00000G11 1 00008H11 1 16008H11 1 00999H11 1 00999H11 1 00999K11 1 00057L11 1 00700M11 1 29880N11 1 00000Q11 1 10130S11 1 00062V11 1 00705W11 1 18008
0249999999432401962060822005+35083+128067SAO  +0008RKPS V02099999000050243849N004800599+01445+01285101295ADDGD13995+9999999GD24995+9999999GD30995+9999999GD40995+9999999GF108995999999999999999999MW1445EQDN01 07200JPWTH 1QNNE11 1 00499E11 1 00699E11 1 00099E11 1 00099G11 1 00080K11 1 00055L11 1 00300N11 1 07200Q11 1 10129S11 1 00058V11 1 01099W11 1 00000
0057386870999991962101515004+39083+063600FM-12+019399999V0200701N00211220001CN0100001N9+01721+00781101551ADDAY111999GF100991001001999999001001MD1610021+9999MW1011
0105475840999991962030100004+39700+141167FM-12+015699999V0201801N00101007801CN0015001N9-00441-00671102161ADDAA106000591AY101999GA1061+999999099GF108991081021008001999999IA1319MA1999999100171MD1210091+9999MW1851
0057246410999991962041306004+63767+121617FM-12+010799999V0201601N00311007801CN0200001N9+00281+00221099011ADDAY161999GF108991061071008001021999MD1710271+9999MW1611
0011478930999991962022609004+33567+133550FM-12+000299999V0203601N002619999999N9999999N9+00561+99999999999ADDAY101999
009372250012919196203310600D+25900-097433SAO  +0006BRO  V0200901N004110051019N0160001N1+02301+02131100851ADDAA101000095GA1021+002109079GA2081+005109059GF108991999999999999999999MA1999999100781MW1001
0057504680999991962010700004+50233+127467FM-12+015299999V0209991C00001220001CN0150001N9-02781-03001102541ADDAY121999GF106991001001999999031021MD1210151+9999MW1031
0078722730031241962062805004+31583-110333SAO  +1422FHU  V0202501N006210180019N0240001N9+01891+01501101171ADDGA1081+018009099GF108991999999999999999999MA1999999085951MW1171MW2801MW3951
0082070891999991962041212004+49033+005867SAO  +0266LCHM V0202481N003110048019N0144001N1+01021+00581102021ADDGA1061+004809059GA2021+007809059GF108991999999999999999999MA1999999098811MW1001
024399999904782196207021600E+99999+999999SAO  +999999999V02004559004152200059N064000599+02285+00505999999ADDAA101000095GD11995+9999993GD20995+9999999GD30995+9999999GD40995+9999999GF101995999999999999999999EQDN01 00000JPWTH 1QNNE11 1 00199E11 1 00099E11 1 00099E11 1 00099G11U1 99999K11 1 00041L11 1 04000N11 1 00000S11 1 00073V11 1 00199W11 1 22008
0070579570999991962060912004+25250+110167FM-12+015699999V0200201N00101220001CN0250001N9+02721+02111100491ADDAY121999GF108991001001999999071021KA1999M+03001MD1310071+9999MW1031
0082719460999991962020303004+61750-121233SAO  +0169CYFS V0203381N004610120019N0240001N1-01811-02201101681ADDGA1061+012009059GA2011+024009039GF107991999999999999999999MA1999999099971MW1001
0035725377148041962100402004+42617-082833SAO  +0177MTC  V0201601N003110060019N0080001N9+01691+01631999999ADDGF107991999999999999999999MW1451
038899999913866196208132000E+38367-081600SAO  +028699999V02031559005750091449N016000599+02835+02005101115ADDAA101000095GA1999+009144084GA2999+999999999GA3999+999999999GA4999+999999999GD13065+9999999GD20005+9999999GD30005+9999999GD40005+9999999GF106065999999999999999999MA1999999097665EQDN01 00000JPWTH 1QNNE11 1 00407E11 1 00000E11 1 00000E11 1 00000G11 1 00030H11 1 11030H11 1 00999H11 1 00999H11 1 00999K11 1 00068L11 1 01000M11 1 28840N11 1 00000Q11 1 10111S11 1 00083V11 1 00707W11 1 88011
038899999993817196201230300E+38050-087533SAO  +0116EVV  V02031559003650457249N016000599-00674-01225102914ADDAA101000095GA1999+015244064GA2999+045724034GA3999+999999999GA4999+999999999GD12025+9999999GD23045+9999999GD30005+9999999GD40005+9999999GF106065999999999999999999MA1999999101424EQDN01 00000JPWTH 1QNNE11 1 00203E11 1 00405E11 1 00000E11 1 00000G11 1 00150H11 1 15050H11 1 23150H11 1 00999H11 1 00999K11 1 00010L11 1 01000M11 1 29950N11 1 00000Q11 1 10291S11 1 00020V11 1 00808W11 1 88007
0050467430999991962011107004+23000+120217SAO  +0000RCNN V0203151N006712200019N0160001N1+02411+01521101801ADDGF100991999999999999999999MA1999999101591MW1001
0057319210999991962112406004+44717+132067FM-12+007599999V0200701N00411220001CN0200001N9-00781-01611103081ADDAY111999GF106991021011008001001011MD1710051+9999MW1021
0329700860274011962072817003+70133-143633SAO  +0015BTI  V02027059005750030549N0112005N1+00445+00395101675ADDGA1021+001524074GA2081+003054064GD12025+9999999GD24085+9999999GD30995+9999999GD40995+9999999GF108085999999999999999999MA1999999101495MW1001EQDN01 00000JPWTH 1QNNE11 1 00202E11 1 00610E11 1 00099E11 1 00099G11 1 00010H11 1 16005H11 1 15010K11 1 00039L11 1 00700M11 1 29970N11 1 00000Q11 1 10167S11 1 00040V11 1 01010W11 1 77011
0383702960264101962061908003+60500-145500SAO  +0013CDV  V02006859002150073249N0240005N1+01065+00835102715ADDGA1011+006104064GA2061+007324064GA3021+010674064GA4999+999999999GD12015+9999999GD23065+9999999GD34025+9999999GD40005+9999999GF108075999999999999999999MA1999999102545MW1001EQDN01 00000JPWTH 1QNNE11 1 00201E11 1 00407E11 1 00602E11 1 00000G11 1 00024H11 1 15020H11 1 15024H11 1 15035H11 1 00999K11 1 00047L11 1 01500M11 1 30280N11 1 00000Q11 1 10271S11 1 00051V11 1 01009W11 1 32004
033499999994012196204281300E+48550-109767SAO  +0788HVR  V02022559004150304849N128000599+00444+00175099464ADDAA101000095GA1999+019814064GA2999+030484034GD12035+9999999GD24055+9999999GD30995+9999999GD40995+9999999GF108085999999999999999999MA1999999090424EQDN01 00000JPWTH 1QNNE11 1 00204E11 1 00606E11 1 00099E11 1 00099G11 1 00100H11 1 15065H11 1 23100K11 1 00035L11 1 08000M11 1 26700N11 1 00000Q11 1 09946S11 1 00040V11 1 01010W11 1 66008
0269999999265291962060300005+65167-152100SAO  +0073TAL  V02020359004650091449N040000599+00945+00115100885ADDGD13995+9999999GD24995+9999999GD30995+9999999GD40995+9999999GF108065999999999999999999MA1999999100035EQDN01 00000JPWTH 1QNNE11 1 00499E11 1 00699E11 1 00099E11 1 00099G11 1 00030K11 1 00034L11 1 02500M11 1 29540N11 1 00000Q11 1 10088S11 1 00049V11 1 01007W11 1 56009
0070596640999991962062106004+21500+111300FM-12+000899999V0202001N00511090001CN0350001N9+03111+02391100651ADDAY121999GF107991011021004501001031KA1999N+02611MD1810161+9999MW1011
0029035963999991962011013004+52117+001433SAO  +0030EGVJ V0202701N005712200019N0128001N9+00781+00441999999ADDGF102991999999999999999999
0057600330999991962040718004+27167-013217FM-12+004299999V0200401N00621220001CN0060001N9+02281+01721101101ADDAY131999GF100991001001999999001001MD1710121+9999MW1071
0035036553999991962021216004+51933-001250SAO  +0133EGUA V0202701N017510054019N0200001N9+01191+00691999999ADDGF108991999999999999999999MW1611
0099486030999991962112300004+06200+100417FM-12+000599999V0200701N00151220001CN0350001N9+02391+02281100961ADDAA124999999AY101999GA1011+006009059GA2031+090009029GF103991011051008001001081KA1999N+02391MW1021
0043489140999991962062708004+09167+105167FM-12+000399999V0202701N004619999999N0250001N9+99999+99999999999ADDAY121999GF106991999999999999999999MW1021
033472511114751196205282200C+40217-076850SAO  +0107CXY  V02099999000050182949N0240005N9+01675+01225102495ADDAA101000095GA1051+018294064GA2031+030484034GD13055+9999999GD24035+9999999GD30995+9999999GD40995+9999999GF108085999999999999999999MA1999999101195EQDN01 00000JPWTH 1QNNE11 1 00406E11 1 00604E11 1 00099E11 1 00099G11 1 00060H11 1 15060H11 1 23100K11 1 00054L11 1 01500M11 1 29880N11 1 00000Q11 1 10249S11 1 00062V11 1 01010W11 1 00000
0057347270999991962111412004+46733+038267FM-12+000399999V0200901N00981090001CN0100001N9+00111-00221999999ADDAY121999GF107991031071004501001071MD1710141+9999MW1021
0057269610999991962080321004+53117+029250FM-12+016599999V0209991C00001220001CN0100001N9+01221+01111101521ADDAY101999GF100991001001999999001001MD1210051+9999MW1001
005994999900272196207252300N-35820+144900AUST +0076     V0202255N001559999999N999999999+00945+00905999999ADDAY124999GA1065+999999085GF106995064025999999999999MW1025
038899999993817196210111900E+38050-087533SAO  +0116EVV  V02018059005752200059N024000599+02944+01945101354ADDAA101000095GA1999+015244084GA2999+999999999GA3999+999999999GA4999+999999999GD12025+9999999GD20005+9999999GD30005+9999999GD40005+9999999GF102025999999999999999999MA1999999099974EQDN01 00000JPWTH 1QNNE11 1 00202E11 1 00000E11 1 00000E11 1 00000G11U1 99999H11 1 11050H11 1 00999H11 1 00999H11 1 00999K11 1 00067L11 1 01500M11 1 29520N11 1 00000Q11 1 10135S11 1 00085V11 1 00202W11 1 55011
038899999914944196212171600E+43567-096733SAO  +043499999V02009059002150365849N024000599+00065-00175101635ADDAA101000095GA1999+036584034GA2999+999999024GA3999+999999999GA4999+999999999GD13055+9999999GD24035+9999999GD30005+9999999GD40005+9999999GF108065999999999999999999MA1999999096345EQDN01 00000JPWTH 1QNNE11 1 00406E11 1 00604E11 1 00000E11 1 00000G11 1 00120H11 1 23120H11C1 37999H11 1 00999H11 1 00999K11 1 00029L11 1 01500M11 1 28450N11 1 00000Q11 1 10163S11 1 00033V11 1 01008W11 1 33004
0035746710138061962073007004+36667-087500SAO  +0174HOP  V0202001N002110300019N0112001N9+02181+02071999999ADDGF108991999999999999999999MW1001
0269999999232331962101919005+36667-121600SAO  +0027SNS  V02009059001550033549N011200599+01285+00895101875ADDGD14995+9999999GD20995+9999999GD30995+9999999GD40995+9999999GF108085999999999999999999MA1999999101595EQDN01 00000JPWTH 1QNNE11 1 00699E11 1 00099E11 1 00099E11 1 00099G11 1 00011K11 1 00048L11 1 00700M11 1 30000N11 1 00000Q11 1 10187S11 1 00055V11 1 01010W11 1 33003
038899999924155196205281800E+45683-118850SAO  +0452PDT  V02027059008852200059N096000599+01725+00675100895ADDAA101000095GA1999+013414084GA2999+999999999GA3999+999999999GA4999+999999999GD12015+9999999GD20005+9999999GD30005+9999999GD40005+9999999GF101015999999999999999999MA1999999095605EQDN01 00000JPWTH 1QNNE11 1 00201E11 1 00000E11 1 00000E11 1 00000G11U1 99999H11 1 11044H11 1 00999H11 1 00999H11 1 00999K11 1 00044L11 1 06000M11 1 28230N11 1 00000Q11 1 10089S11 1 00063V11 1 00101W11 1 77017
0091999999241281962040907005+40900-117800SAO  +1311WMC  V02036059002659999999N999999999+00725+99999999999ADDGF106995999999999999999999MA1999999086255QNNM11 1 25470S11 1 00045V11 1 00899W11 1 11005
0035690110999991962102711004+40183-117933SAO  +1329DPG  V0200901N001512200019N0240001N9+00301-00531999999ADDGF100991999999999999999999MW1001
0056964130999991962012000004+01483+110333FM-12+002799999V0209991C00001001501CN0048001N9+02501+02331100691ADDAY161999GF108991051061001501011999KA1999N+02391MW1631
017699999913958196203312300E+30300-097700SAO  +018399999V02036059008252200059N024000599+01835-00285101635ADDAA101000095GF100005999999999999999999MA1999999099395EQDN01 00000JPWTH 1QNNG11U1 99999K11 1 00027L11 1 01500M11 1 29350N11 1 00000Q11 1 10163S11 1 00065V11 1 00000W11 1 11016
007594999900124196207230530N-34180+140000AUST +0030     V0209999C000059999999N999999999+01065+00805999999ADDAY114999GA1005+999999999GA2085+999999045GF108995004999999999025999MW1025
0082619020999991962071515004-07967-014400SAO  +0086FHAW V0201101N010810150019N0160001N9+02631+01801101461ADDGA1031+007209089GA2071+015009059GF107991999999999999999999MA1999999100471MW1001
0113115410999991962052406004+48950+014450FM-12+043299999V0202501N00101036001CN0200001N9+01111+00501102101ADDAA199000691AY181999GF108991031051012501021999KA1999M+99999KA2999N+01001MD1010011+9999MW1611EQDQ01 +01002ATMX  
0383724040137211962052323003+38300-076417SAO  +0014NHK  V02013559005252200059N0160005N1+02225+01675101345ADDGA1021+030484034GA2041+220009004GA3999+999999999GA4999+999999999GD12025+9999999GD23045+9999999GD30005+9999999GD40005+9999999GF106065999999999999999999MA1999999101195MW1001EQDN01 00000JPWTH 1QNNE11 1 00203E11 1 00405E11 1 00000E11 1 00000G11C1 99999H11 1 23100H11C1 32999H11 1 00999H11 1 00999K11 1 00062L11 1 01000M11 1 29880N11 1 00000Q11 1 10134S11 1 00072V11 1 00807W11 1 44010
0082466960999991962051803004+25067+121550SAO  +0006RC55 V0202481N001010075019N0112001N1+02681+02301101191ADDGA1051+007509049GA2071+036009079GF107991999999999999999999MA1999999101081MW1001
0296999999938041962012617005+34917-081950SAO  +024899999V02024859008850033549N016000599+01724+01565102004ADDGA1999+003354064GD14085+9999999GD20995+9999999GD30995+9999999GD40995+9999999GF108085999999999999999999MA1999999099024EQDN01 00000JPWTH 1QNNE11 1 00610E11 1 00099E11 1 00099E11 1 00099G11 1 00011H11 1 15011K11 1 00060L11 1 01000M11 1 29240N11 1 00000Q11 1 10200S11 1 00063V11 1 01010W11 1 76017
0100592110999991962072312004+23917+106533FM-12+019899999V0200201N00101012301CN0250001N9+02891+02781099691ADDAA106000591AY121999GF108991071091012501061999KA1999M+03391MD1310191+9999MW1801EQDQ01  00053PRCP99
0069479300999991962020704004+26200+127650SAO  +0004ROAH V0201131N005112200019N0320001N1+02021+01131102401ADDGF102991999999999999999999MA1999999102331MW1001EQDQ01+999990APOSP 
0066106270999991962012606004+49867+007883SAO  +0108EDEH V0202501N005110090019N0064001N9+00911+00521999999ADDGA1081+009009059GF108991999999999999999999MA1999999101081MW1051
0057787200999991962052421004+14050-087217FM-12+1007MHTG V0203401N00671220001CN0240001N9+02891+01331999999ADDAY121999GF106991021011012501001061MD1710151+9999MW1021
0096561160999991962022618004+31483+095317FM-12+400199999V0203201N00101015001CN0200001N9-00611-00891999999ADDAA106000691AY181999GF107991071091017501999999KA1999M+00281MA1999999092801MD1410001+9999MW1851
0057115180999991962091503004+50100+014283FM-12+037499999V0201401N00211220001CN0070001N9+00721+00501102431ADDAY101999GF100991001001999999001001MD1810081+9999MW1051
0076726055999991962022218004+43083-070817SAO  +0031PSM  V0200201N005110018019N0024001N9-00551-00611101161ADDGA1021+999999999GA2061+001809079GF108991999999999999999999MA1999999100641
0081561370999991962092209004+31167+097267FM-12+320199999V0202201N00101220001CN0200001N9+02501+00501999999ADDAY101999GF101991011011022501041001MA1999999098501MD1710281+9999ME1429909MW1031
