0296999999129181963011701005+99999+999999SAO  +999999999V02011359004150198149N019200599+00895-00065102575ADDGA1999+019814034GD14085+9999999GD20995+9999999GD30995+9999999GD40995+9999999GF108085999999999999999999MA1999999102345EQDN01 00000JPWTH 1QNNE11 1 00610E11 1 00099E11 1 00099E11 1 00099G11 1 00065H11 1 23065K11 1 00031L11 1 01200M11 1 30220N11 1 00000Q11 1 10257S11 1 00048V11 1 01010W11 1 34008
0081442570999991963102000004+48533+110567FM-12+075299999V0202701N00101220001CN0500001N9-00891-01001103831ADDAA199000091AY101999GF101991001001999999001031KA1999N-00891MD1310031+9999MW1021
0057315100999991963012618004+50267+127500FM-12+013799999V0203201N00411220001CN0100001N9-01391-02001101051ADDAY101999GF100991001001999999001001MD1710041+9999MW1021
0057400070999991963101809004+36183+037217FM-12+039299999V0203301N00101090001CN0200001N9+02781+01001101741ADDAY121999GF107991031001999999031081MD1510001+9999MW1021
0057380990999991963121518004+44283+072967FM-12+999999999V0201401N00311220001CN0500001N9-00501-00781102051ADDAY101999GF100991001001999999001001MD1710231+9999MW1021
0057119030999991963120221004+48633+019150FM-12+031999999V0209991C00001220001CN0018001N9-00611-00611103341ADDAY101999GF100991001001999999001001MD1210071+9999MW1101
0057878600999991963032621004-45767-067483FM-12+006199999V0201801N007219999999N0300001N9+01221-00221102301ADDAY121999GF104991041081012501001001MD1210031+9999MW1031
0066722730031241963080922004+31583-110333SAO  +1422FHU  V0202701N005710180019N0800001N9+03161+01221100821ADDGA1061+018009099GF107991999999999999999999MA1999999085741MW1171
0085489180999991963110811004+08800+106583SAO  +000599999V0200451N002110060019N0240001N1+02741+99999100971ADDGA1051+006009009GF107991999999999999999999MA1999999100911MW1001EQDQ01+999990APOSLP
0238724565139201963111411003+38950-095667SAO  +0324FOE  V02099999000052200059N0144005N9-00395-00675999999ADDGD10995+9999999GD20995+9999999GD30995+9999999GD40995+9999999GF100995999999999999999999MW1001EQDN01 00000JPWTH 1QNNE11 1 00099E11 1 00099E11 1 00099E11 1 00099G11U1 99999K11 1 00020L11 1 00900N11 1 00000S11 1 00025V11 1 00099W11 1 00000
0057266290999991963042003004+54883+023883FM-12+007599999V0201401N00211220001CN0100001N9+00611+00501102081ADDAY101999GF100991001001999999001001MD1210141+9999MW1021
0323999999148531963080312005+42233-083533SAO  +0237YIP  V02022559007750426749N024000599+02115+01945101165ADDGA1999+042674034GA2999+999999024GD13055+9999999GD24085+9999999GD30995+9999999GD40995+9999999GF108085999999999999999999MA1999999098415EQDN01 00000JPWTH 1QNNE11 1 00406E11 1 00610E11 1 00099E11 1 00099G11 1 00140H11 1 23140H11C1 37999K11 1 00067L11 1 01500M11 1 29060N11 1 00000Q11 1 10116S11 1 00070V11 1 01010W11 1 66015
0029726055999991963122711004+43083-070817SAO  +0031PSM  V0200501N004110120019N0320001N9-01221-01891999999ADDGF108991999999999999999999
031370296026410196310201000C+60500-145500SAO  +0013CDV  V02009059005250100649N0240005N1+00785+00335098485ADDAA101000095GA1081+010064154GD14085+9999999GD20995+9999999GD30995+9999999GD40995+9999999GF108085999999999999999999MA1999999098315MW1615EQDN01 02000JPWTH 1QNNE11 1 00610E11 1 00099E11 1 00099E11 1 00099G11 1 00033H11 1 17033K11 1 00038L11 1 01500M11 1 29030N11 1 02000Q11 1 09848S11 1 00046V11 1 01010W11 1 33010
0057324090999991963082106004+56183+163150FM-12+999999999V0200201N00511012301CN0500001N9+01721+01001100931ADDAY111999GF105991051021012501001001MD1410001+9999MW1031
0103405970999991963111806004+12833+045033FM-12+000399999V0200701N00721220001CN0400001N9+02781+02221101561ADDAA199000091AY101999GA1011+005409059GF101991011081004501001001IA1009KA1999N+02391MD1210231+9999MW1021
007772351013966196307030800D+33983-098517SAO  +0309SPS  V0202301N004112200019N0240001N9+02461+01851101671ADDAA101000095GA1001+999999999GF100991999999999999999999MA1999999098101MW1001
0094535290999991963030206004+39100+107817FM-12+138099999V0202901N01391220001CN0070001N9+00781-02281101721ADDAY131999GF100991001001999999001001KA1999N-00221MA1999999096001MD1710041+9999ME1314809MW1021
0043612400999991963091112004+15333-001683FM-12+028899999V0201801N01131004201CN0250001N9+02891+02501101291ADDAY121999GF107991061091004501041021MW1171
0076870470999991963040200004-24850-065483FM-12+122699999V0203601N001519999999N0200001N9+01831+01611999999ADDGF101991001001999999001041IA1009KA1999M+02721KA2999N+01171MA1999999087651
0044871200999991963033009004-26833-065200FM-12+042099999V0209991C000019999999N0200001N9+01611+01391999999ADDGF108991081051008001999999MA1999999096451
0035723408138141963122219004+35967-089950SAO  +0077BYH  V0203601N006210006019N0012001N9-00831-01111999999ADDGF108991999999999999999999MW1711
0035724550139471963062717004+39050-096767SAO  +0324FRI  V0201801N006212200019N0160001N9+03051+02161999999ADDGF102991999999999999999999MW1001
0105540120999991963042218004+44667+118000FM-12+999999999V0209991C00001012301CN0150001N9+00281+00221101901ADDAA106000591AY161061GF107991071051012501999999KA1999M+01001MA1999999100201MD1710091+9999ME1314809MW1601
0057351210999991963081303004+51750+055100FM-12+010999999V0200901N00511220001CN0100001N9+01721+01501999999ADDAY111999GF105991001001999999001011MD1710071+9999MW1011
034070261026411196308310900C+64817-147867SAO  +0134FAI  V02009059001550426749N0240005N1+01115+00895101235ADDAA101000095GA1021+030484034GA2061+042674034GD12025+9999999GD24065+9999999GD30995+9999999GD40995+9999999GF108085999999999999999999MA1999999099535MW1001EQDN01 00000JPWTH 1QNNE11 1 00202E11 1 00608E11 1 00099E11 1 00099G11 1 00140H11 1 23100H11 1 23140K11 1 00048L11 1 01500M11 1 29390N11 1 00000Q11 1 10123S11 1 00052V11 1 01010W11 1 33003
009894175099999196302270500N-10580+142220AUST +0061     V0201355N003659999999N999999999+02675+02405999999ADDGA1035+006005085GA2015+015005065GA3085+999999035GF108995034025006005075999MA1999999100075MW1025
038899999923273196309230300E+99999+999999SAO  +999999999V02029359003652200059N032000599+01675+01395101305ADDAA101000095GA1999+003054074GA2999+999999999GA3999+999999999GA4999+999999999GD10005+9999999GD20005+9999999GD30005+9999999GD40005+9999999GF100005999999999999999999MA1999999100445EQDN01 00000JPWTH 1QNNE11 1 00000E11 1 00000E11 1 00000E11 1 00000G11U1 99999H11 1 16010H11 1 00999H11 1 00999H11 1 00999K11 1 00057L11 1 02000M11 1 29660N11 1 00000Q11 1 10130S11 1 00062V11 1 00000W11 1 78007
0125219310999991963010100004+70750+136217FM-12+002299999V0202001N00211220001CN0020001N9-04221-04501103191ADDAA106000091AY101999GF100991001001999999001001HL10009IA1319IA2999-04619KA1999N-04221MD1810031+9999MW1021EQDQ01  00003PRCP99
007495866099999196303130500N-37730+144900AUST +0081YMEN V0203155N006259999999N999999999+03035+00905999999ADDAY134999GA1015+018005085GF101995014015018005999999MA1999999100385MW1015
0068204760999991963112009004+75400+088667FM-12+999999999V0201601N00981024001CN0100001N9-02111-02281100281ADDAA106000091AY131999GF107991051001999999031011MD1210131+9999MW1371
0383040180162011963022208003+63967-022600SAO  +0050BIKF V02009059008850076249N0320005N1+00225-00115100915ADDGA1061+007624064GA2999+999999999GA3999+999999999GA4999+999999999GD13065+9999999GD20005+9999999GD30005+9999999GD40005+9999999GF106065999999999999999999MA1999999100245MW1001EQDN01 00000JPWTH 1QNNE11 1 00407E11 1 00000E11 1 00000E11 1 00000G11 1 00025H11 1 15025H11 1 00999H11 1 00999H11 1 00999K11 1 00030L11 1 02000M11 1 29600N11 1 00000Q11 1 10091S11 1 00036V11 1 00707W11 1 33017
0066722485139441963121915004+32500-093667SAO  +0054BAD  V0201601N002110180019N0240001N9-00151-00921103111ADDGA1081+018009059GF108991999999999999999999MA1999999102441MW1001
0066723087937351963012018004+37083-076567SAO  +0006FAF  V0202301N006210036019N0176001N9+01571+01411100341ADDGA1081+003609059GF108991999999999999999999MA1999999100271MW1001
0057582650999991963050909004+32067+121617FM-12+999999999V0200701N00211012301CN0170001N9+01781+01721100491ADDAY121999GF108991081051012501999999MD1610061+9999MW1021
007494551099999196307110500N-27580+151930AUST +0676     V0202705N007259999999N999999999+01325+00205999999ADDAY124999GA1005+999999999GF100995004999999999999999MA1999999094415MW1025
0035106870999991963010414004+49700-011950SAO  +0418EDIC V0209991C000010135019N0064001N9+00131-00041999999ADDGF108991999999999999999999MW1051
0057066700999991963022221004+47483+008533FM-12+043199999V0200301N00511004501CN0050001N9-00501-00781102091ADDAY171999GF108991081061004501999999MD1210101+9999MW1781
039499999913744196309102200E+34183-079717SAO  +0046FLO  V02002359003652200059N009600599+03115+01565101375ADDAA101000095GA1999+018294064GA2999+999999999GA3999+999999999GA4999+999999999GD12025+9999999GD20005+9999999GD30005+9999999GD40005+9999999GF102025999999999999999999MA1999999100855MW1055EQDN01 08100JPWTH 1QNNE11 1 00202E11 1 00000E11 1 00000E11 1 00000G11U1 99999H11 1 15060H11 1 00999H11 1 00999H11 1 00999K11 1 00060L11 1 00600M11 1 29780N11 1 08100Q11 1 10137S11 1 00088V11 1 00202W11 1 12007
0065786500999991963111214004+13600-089833FM-12+001099999V0200501N00311220001CN0700001N9+99999+99999999999ADDAY111999GA1041+105009009GF104991001001999999001011IA1089MW1011
0066488730999991963112009004+13083+109283SAO  +0011VVTH V0203601N004619999999N0144001N1+02801+02301101071ADDGA1031+006009009GF107991999999999999999999MA1999999100951MW1001
0057599480999991963042212004+18233+109533FM-12+001399999V0200901N00311220001CN0280001N9+02611+02221101241ADDAY111999GF101991011011004501001011MD1110131+9999MW1011
0377999999232441963050621005+37417-122050SAO  +0012NUQ  V02036059004152200059N011200599+02065+01225102045ADDGA1999+009144064GA2999+048774044GA3999+999999024GA4999+999999999GD12015+9999999GD22015+9999999GD33055+9999999GD40005+9999999GF106055999999999999999999MA1999999101905EQDN01 00000JPWTH 1QNNE11 1 00201E11 1 00201E11 1 00406E11 1 00000G11C1 99999H11 1 15030H11 1 21160H11C1 37999H11 1 00999K11 1 00054L11 1 00700M11 1 30090N11 1 00000Q11 1 10204S11 1 00069V11 1 00806W11 1 11008
0066747320999991963121815004+32850-106100SAO  +1248HMN  V0209991C000012200019N0960001N9-00531-01091102711ADDGA1001+999999999GF100991999999999999999999MA1999999088321MW1001
038899999913740196302280700E+37500-077333SAO  +005599999V02020359005752200059N016000599-00335-01065102085ADDAA101000095GA1999+018294064GA2999+999999999GA3999+999999999GA4999+999999999GD12025+9999999GD20005+9999999GD30005+9999999GD40005+9999999GF102025999999999999999999MA1999999101465EQDN01 00000JPWTH 1QNNE11 1 00203E11 1 00000E11 1 00000E11 1 00000G11U1 99999H11 1 15060H11 1 00999H11 1 00999H11 1 00999K11 1 00013L11 1 01000M11 1 29960N11 1 00000Q11 1 10208S11 1 00026V11 1 00303W11 1 56011
0011478140999991963120709004+33317+130933FM-12+008499999V0201601N001019999999N9999999N9+01281+99999999999ADDAY101999
034099999913781196303310500E+39667-075600SAO  +0023ILG  V02027059004150213449N009600599+01225+00895102375ADDAA101000095GA1999+021344034GA2999+036584034GD13065+9999999GD24085+9999999GD30995+9999999GD40995+9999999GF108085999999999999999999MA1999999102075MW1045EQDN01 08000JPWTH 1QNNE11 1 00407E11 1 00610E11 1 00099E11 1 00099G11 1 00070H11 1 23070H11 1 23120K11 1 00048L11 1 00600M11 1 30140N11 1 08000Q11 1 10237S11 1 00054V11 1 01010W11 1 77008
0377999999403091963120916005+07333+134483SAO  +002799999V02099999000052200059N024000599+02505+02395100945ADDGA1999+005494084GA2999+036584034GA3999+999999024GA4999+999999999GD12025+9999999GD22025+9999999GD34085+9999993GD40005+9999999GF108045999999999999999999MA1999999100585EQDN01 00000JPWTH 1QNNE11 1 00203E11 1 00202E11 1 00510E11 1 00000G11U1 99999H11 1 11018H11 1 23120H11C1 37999H11 1 00999K11 1 00075L11 1 01500M11 1 29700N11 1 00000Q11 1 10094S11 1 00077V11 1 01005W11 1 00000
0035702350999991963021701004+61100-155583SAO  +0487PASV V0202501N001512200019N0400001N9-00311-00701999999ADDGF108991999999999999999999MW1001
0112111200999991963071109004+47267+011350FM-12+058199999V0209991V00151010501CN0080001N9+01611+01391101541ADDAJ100009199999999AY161031GA1011+003609059GA2051+010509059GF107991011051004501071999IA1109MD1310061+9999MW1601
0269999999241301963101523005+44833-117817SAO  +1028BKE  V02031559001552200059N048000599+02335+00395101355ADDGD14995+9999999GD20995+9999999GD30995+9999999GD40995+9999999GF108065999999999999999999MA1999999089775EQDN01 00000JPWTH 1QNNE11 1 00699E11 1 00099E11 1 00099E11 1 00099G11C1 99999K11 1 00039L11 1 03000M11 1 26510N11 1 00000Q11 1 10135S11 1 00074V11 1 01008W11 1 88003
017699999913748196310172300E+34267-077900SAO  +0009ILM  V02099999000052200059N019200599+01725+01225102105ADDAA101000095GF100005999999999999999999MA1999999101965EQDN01 00000JPWTH 1QNNG11U1 99999K11 1 00054L11 1 01200M11 1 30110N11 1 00000Q11 1 10210S11 1 00063V11 1 00000W11 1 00000
0081570890999991963040306004+34017+113833FM-12+007399999V0200201N00411012301CN0150001N9+01111+00721100921ADDAA106000691AY161999GF108991081051012501999999KA1999N+00891MD1710241+9999MW1021
0269999999265191963091720005+62533-153900SAO  +045899999V02099999000052200059N024000599+00725+00505099865ADDGD13995+9999993GD20995+9999999GD30995+9999999GD40995+9999999GF106005999999999999999999MA1999999094415EQDN01 00000JPWTH 1QNNE11 1 00399E11 1 00099E11 1 00099E11 1 00099G11U1 99999K11 1 00041L11 1 01500M11 1 27880N11 1 00000Q11 1 09986S11 1 00045V11 1 00800W11 1 00000
0057311630999991963090215004+57850+140500FM-12+999999999V0203201N001019999999N0500001N9+00611+00391100671ADDAY121999GF106991041001999999031011MD1710201+9999MW1021
017699999914933196301260300E+41533-093650SAO  +0286DSM  V02099999000052200059N011200599-01835-02065102605ADDAA101000095GF100005999999999999999999MA1999999098855EQDN01 00000JPWTH 1QNNG11U1 99999K11 1-00005L11 1 00700M11 1 29190N11 1 00000Q11 1 10260S11 1-00001V11 1 00000W11 1 00000
0232999999350461963112323005+52367+000483SAO  +0010EGUN V02018059004150106749N017600599+01005+00505999999ADDGD14995+9999999GD20995+9999999GD30995+9999999GD40995+9999999GF108995999999999999999999EQDN01 00000JPWTH 1QNNE11 1 00699E11 1 00099E11 1 00099E11 1 00099G11 1 00035K11 1 00041L11 1 01100N11 1 00000S11 1 00050V11 1 01099W11 1 55008
0114478350999991963022500004+31583+131400FM-12+000499999V0203201N00151220001CN0300001N9+00561-00281102021ADDAJ100009199999999AY101999GF100991001001999999001001IA1009MA1999999101961MD1310011+9999MW1021EQDQ01+000012SCOTCV
0121476370999991963101618004+35517+137833FM-12+048399999V0202901N00211220001CN0100001N9+01781+01391101101ADDAJ100009199999999AY101999GA1999+011709089GA2021+999999099GF108991001001999999071999MA1999999095601MD1710111+9999MW1021
0057443410999991963040515004+45767+106283FM-12+139199999V0201401N00211220001CN0500001N9-01001-01391104431ADDAY121999GF105991001001999999001051MD1110061+9999MW1021
0269999999231951963082407005+32667-114600SAO  +0059YUM  V02013559004152200059N024000599+02945+01725100985ADDGD10995+9999999GD20995+9999999GD30995+9999999GD40995+9999999GF100005999999999999999999MA1999999100275EQDN01 00000JPWTH 1QNNE11 1 00099E11 1 00099E11 1 00099E11 1 00099G11U1 99999K11 1 00063L11 1 01500M11 1 29610N11 1 00000Q11 1 10098S11 1 00085V11 1 00000W11 1 44008
007494842099999196302102300N-38870+143520AUST +0083     V0200905N015959999999N999999999+01725+01605999999ADDAY124999GA1075+009005115GF107995074075009005999999MA1999999101015MW1185
0269999999148971963012510005+44917-089617SAO  +0367AUW  V02029359003652200059N024000599-02565-02945102385ADDGD10995+9999999GD20995+9999999GD30995+9999999GD40995+9999999GF100005999999999999999999MA1999999097665EQDN01 00000JPWTH 1QNNE11 1 00099E11 1 00099E11 1 00099E11 1 00099G11U1 99999K11 1-00021L11 1 01500M11 1 28840N11 1 00000Q11 1 10238S11 1-00014V11 1 00000W11 1 78007
0035036490999991963102614004+51750-001583SAO  +0087EGVN V0201401N002610054019N0032001N9+01301+00911999999ADDGF107991999999999999999999MW1051
0057442320999991963073018004+49467+102700FM-12+093399999V0203201N00101007801CN0500001N9+01611+01221101051ADDAY111999GF107991071091008001001001MD1110081+9999MW1031
0029726055999991963100608004+43083-070817SAO  +0031PSM  V0209991C000012200019N0320001N9+01001+00221999999ADDGF100991999999999999999999
0035082270999991963120805004+40483-003450SAO  +0610LETO V0209991C000010069019N0144001N9+00781+00721999999ADDGF108991999999999999999999MW1611
0082719260999991963102519004+64300-096000SAO  +0011CYBK V0201351N008210036019N0240001N1-00091-00261099831ADDGA1061+003609059GA2021+006009059GF108991999999999999999999MA1999999099831MW1001
0035702650999991963021814004+64683-147083SAO  +0167PAEI V0209991C000012200019N0402341N9-02051-02331999999ADDGF100991999999999999999999MW1001
038899999912834196304280700E+29183-081050SAO  +0009DAB  V02013559006252200059N019200599+02175+01445102175ADDAA101000095GA1999+009144064GA2999+999999999GA3999+999999999GA4999+999999999GD12015+9999999GD20005+9999999GD30005+9999999GD40005+9999999GF101015999999999999999999MA1999999102035EQDN01 00000JPWTH 1QNNE11 1 00201E11 1 00000E11 1 00000E11 1 00000G11U1 99999H11 1 15030H11 1 00999H11 1 00999H11 1 00999K11 1 00058L11 1 01200M11 1 30130N11 1 00000Q11 1 10217S11 1 00071V11 1 00101W11 1 44012
0076574470999991963010512004+30267+109367FM-12+043799999V0209991C00001220001CN0120001N9+00611+00221102501ADDAY101999GF103991999001999999041001MD1310131+9999MW1031EQDQ01+000002SCOTLC
038899999924028196305190300E+41867-103600SAO  +1206BFF  V02004559009352200059N040000599+01065+00615101935ADDAA101000095GA1999+015244084GA2999+999999999GA3999+999999999GA4999+999999999GD12025+9999999GD20005+9999999GD30005+9999999GD40005+9999999GF102025999999999999999999MA1999999088325EQDN01 00000JPWTH 1QNNE11 1 00203E11 1 00000E11 1 00000E11 1 00000G11U1 99999H11 1 11050H11 1 00999H11 1 00999H11 1 00999K11 1 00043L11 1 02500M11 1 26080N11 1 00000Q11 1 10193S11 1 00051V11 1 00303W11 1 22018
0070539590999991963062306004+35050+110917FM-12+037099999V0209991C00001036001CN0350001N9+03001+01781100421ADDAY121999GF108991011011008001031071KA1999N+01891MD1710191+9999MW1011
0057151500999991963101812004+46583+026983FM-12+018399999V0209991C00001220001CN0150001N9+01721+00221101761ADDAY111999GF104991021001999999071021MD1710161+9999MW1021
038899999924021196306182000E+42817-108733SAO  +1694LND  V02031559002152200059N096000599+02285+00115101615ADDAA101000095GA1999+018294084GA2999+999999999GA3999+999999999GA4999+999999999GD12015+9999999GD20005+9999999GD30005+9999999GD40005+9999999GF101015999999999999999999MA1999999083245EQDN01 00000JPWTH 1QNNE11 1 00201E11 1 00000E11 1 00000E11 1 00000G11U1 99999H11 1 11060H11 1 00999H11 1 00999H11 1 00999K11 1 00034L11 1 06000M11 1 24580N11 1 00000Q11 1 10161S11 1 00073V11 1 00101W11 1 88004
0043359250999991963051309004+45450+056100FM-12+008299999V0202001N00411220001CN0500001N9+01721-01281999999ADDGF100991001001999999001001MD1410001+9999
017699999923043196309241200E+33400-104533SAO  +1106RNM  V02033859001552200059N024000599+01065+00395101425ADDAA101000095GF100005999999999999999999MA1999999089305EQDN01 00000JPWTH 1QNNG11U1 99999K11 1 00039L11 1 01500M11 1 26370N11 1 00000Q11 1 10142S11 1 00051V11 1 00000W11 1 18003
0057247130999991963123103004+62883+108733FM-12+999999999V0209991C00001220001CN0020001N9-04721-04891103721ADDAY131999GF106991001001999999001021MD1710161+9999MW1101
0377999999147561963070713005+41250-070067SAO  +0014ACK  V02020359003652200059N024000599+01945+01615101425ADDGA1999+030484034GA2999+999999004GA3999+999999999GA4999+999999999GD12015+9999999GD24075+9999993GD30005+9999999GD40005+9999999GF108045999999999999999999MA1999999101395EQDN01 00000JPWTH 1QNNE11 1 00201E11 1 00509E11 1 00000E11 1 00000G11U1 99999H11 1 23100H11C1 32999H11 1 00999H11 1 00999K11 1 00061L11 1 01500M11 1 29940N11 1 00000Q11 1 10142S11 1 00067V11 1 01005W11 1 56007
0040477760999991963110618004+34333+134917FM-12+011399999V0201801N003619999999N9999999N9+01611+99999101901ADDAY101999MA1999999100581MD1810121+9999
0059479090999991963021301004+28383+129500FM-12+000499999V0200201N01031007801CN0250001N9+01001+00391102171ADDAY101999GA1061+999999099GF107991071021008001999999MW1271
0043661300999991963060521004-07250+012883FM-12+001999999V0201201N00151220001CN0300001N9+02391+02221101371ADDAY101999GF104991041011008001001001MW1031
0232999999038581963102317005+33917-080800SAO  +007599999V02036059005250033549N011200599+01895+01615999999ADDGD13995+9999999GD24995+9999999GD30995+9999999GD40995+9999999GF108995999999999999999999EQDN01 00000JPWTH 1QNNE11 1 00499E11 1 00699E11 1 00099E11 1 00099G11 1 00011K11 1 00061L11 1 00700N11 1 00000S11 1 00066V11 1 01099W11 1 11010
0269999999230901963021611005+36750-108233SAO  +167799999V02024859005252200059N024000599-00225-00565101885ADDGD10995+9999999GD20995+9999999GD30995+9999999GD40995+9999999GF100005999999999999999999MA1999999083175EQDN01 00000JPWTH 1QNNE11 1 00099E11 1 00099E11 1 00099E11 1 00099G11U1 99999K11 1 00022L11 1 01500M11 1 24560N11 1 00000Q11 1 10188S11 1 00028V11 1 00000W11 1 76010
0078931120999991963072702004-36800+174617FM-12+002799999V0202201N01031007501CN0350001N9+01331+00391101591ADDAY121999GA1051+007509089GF106991999021008001001001MW1161EQDQ01+000052SCOTLC
039491190322516196307090400C+20900-156433SAO  +0012OGG  V02004559013952200059N0240005N1+02565+02005101565ADDAA101000095GA1011+008534084GA2011+016764064GA3999+999999999GA4999+999999999GD12015+9999999GD22015+9999999GD30005+9999999GD40005+9999999GF102025999999999999999999MA1999999101325MW1001EQDN01 00000JPWTH 1QNNE11 1 00201E11 1 00201E11 1 00000E11 1 00000G11U1 99999H11 1 11028H11 1 15055H11 1 00999H11 1 00999K11 1 00068L11 1 01500M11 1 29920N11 1 00000Q11 1 10156S11 1 00078V11 1 00202W11 1 22027
0095677790999991963101615004+16783+031583FM-12+096399999V0201201N00361220001CN0200001N9+02781+01171999999ADDAA124000091AY101999GF101991011021017501001001KA1999M+03001KA2999N+01831MA1999999090781MW1051
0069471870999991963071507004+33200+126217SAO  +0013RKPM V0201131N005712200019N0240001N1+02801+02521100811ADDGF107991999999999999999999MA1999999100751MW1001EQDQ01+999990APOSP 
0232999999146011963022314005+44800-068817SAO  +004899999V02024859004152200059N024000599-01335-02445999999ADDGD10995+9999999GD20995+9999999GD30995+9999999GD40995+9999999GF100995999999999999999999EQDN01 00000JPWTH 1QNNE11 1 00099E11 1 00099E11 1 00099E11 1 00099G11U1 99999K11 1-00012L11 1 01500N11 1 00000S11 1 00008V11 1 00099W11 1 76008
038899999923194196305181600E+35017-110733SAO  +148899999V02009059002652200059N096000599+02115-00615101435ADDAA101000095GA1999+999999004GA2999+999999999GA3999+999999999GA4999+999999999GD11015+9999993GD20005+9999999GD30005+9999999GD40005+9999999GF101005999999999999999999MA1999999085345EQDN01 00000JPWTH 1QNNE11 1 00101E11 1 00000E11 1 00000E11 1 00000G11U1 99999H11C1 32999H11 1 00999H11 1 00999H11 1 00999K11 1 00021L11 1 06000M11 1 25200N11 1 00000Q11 1 10143S11 1 00070V11 1 00100W11 1 33005
038899999993822196303141700E+39833-089667SAO  +0179SPI  V02036059005752200059N019200599+00444-00115103124ADDAA101000095GA1999+007014084GA2999+999999999GA3999+999999999GA4999+999999999GD12025+9999999GD20005+9999999GD30005+9999999GD40005+9999999GF102025999999999999999999MA1999999100814EQDN01 00000JPWTH 1QNNE11 1 00202E11 1 00000E11 1 00000E11 1 00000G11U1 99999H11 1 11023H11 1 00999H11 1 00999H11 1 00999K11 1 00030L11 1 01200M11 1 29770N11 1 00000Q11 1 10312S11 1 00040V11 1 00202W11 1 11011
0057125950999991963110221004+50717+023250FM-12+021399999V0201901N00511024001CN0100001N9+00781+00391101001ADDAY121999GF108991081001999999071999MD1610031+9999MW1021
0043477720999991963102916004+34650+135533FM-12+000899999V0201601N00101220001CN0036001N9+01331+01111101171ADDAY101999GF100991001001999999001001MW1101
038872734514847196303281700B+46467-084367SAO  +021999999V02018059004152200059N024000599+00065-00725102385ADDAA101000095GA1999+027434034GA2999+999999004GA3999+999999999GA4999+999999999GD12035+9999999GD22015+9999999GD30005+9999999GD40005+9999999GF104035999999999999999999MA1999999099635EQDN01 00000JPWTH 1QNNE11 1 00204E11 1 00201E11 1 00000E11 1 00000G11U1 99999H11 1 23090H11C1 32999H11 1 00999H11 1 00999K11 1 00019L11 1 01500M11 1 29420N11 1 00000Q11 1 10238S11 1 00033V11 1 00504W11 1 55008
0057154800999991963070400004+44217+028633FM-12+003299999V0200501N00101004501CN0100001N9+02111+02111101241ADDAY161999GF108991081071004501999999MD1210011+9999MW1611
0081311370999991963072300004+56283+131133FM-12+085899999V0201101N00101220001CN0500001N9+02001+01221101741ADDAA199000091AY141999GF107991001001999999001011KA1999N+00281MD1110041+9999MW1021
004674780499999196311282000D+32017-081133SAO  +0017SVN  V0201401N003110024019N0112001N9+02071+01741999999ADDAA101000095GF108991999999999999999999MW1001
0029172180999991963041414004+38500+027017SAO  +0008LTBL V0203201N005712200019N0240001N9+02301+01021999999ADDGF100991999999999999999999
0218727827241101963111316003+47183-119333SAO  +0361MWH  V02036059001050213449N0064005N9+00505+00335999999ADDGD14995+9999999GD20995+9999999GD30995+9999999GF108995999999999999999999MW1111MW2445EQDN01 07200JPWTH 1QNNE11 1 00699E11 1 00099E11 1 00099G11 1 00070K11 1 00038L11 1 00400N11 1 07200S11 1 00041V11 1 01099W11 1 11002
0383040180162011963040221003+63967-022600SAO  +0050BIKF V02013559004152200059N0320005N1+00505+00005101725ADDGA1071+220009024GA2999+999999999GA3999+999999999GA4999+999999999GD13075+9999993GD20005+9999999GD30005+9999999GD40005+9999999GF107035999999999999999999MA1999999101055MW1001EQDN01 00000JPWTH 1QNNE11 1 00309E11 1 00000E11 1 00000E11 1 00000G11U1 99999H11C1 37999H11 1 00999H11 1 00999H11 1 00999K11 1 00032L11 1 02000M11 1 29840N11 1 00000Q11 1 10172S11 1 00041V11 1 00904W11 1 44008
0035489130999991963052804004+09600+105967SAO  +0005VVBX V0209991C000010390019N0112001N1+02911+02461100841ADDGF107991999999999999999999MW1001
0057360830999991963021512004+52150+092783FM-12+999999999V0209991C00001220001CN0500001N9-02001-02281103881ADDAY101999GF101991001001999999001021MD1310011+9999MW1031
038899999913781196308312100E+39667-075600SAO  +0023ILG  V02031559005752200059N024000599+02725+01175101325ADDAA101000095GA1999+015244084GA2999+024384034GA3999+999999999GA4999+999999999GD12025+9999999GD22015+9999999GD30005+9999999GD40005+9999999GF102025999999999999999999MA1999999101025EQDN01 00000JPWTH 1QNNE11 1 00202E11 1 00201E11 1 00000E11 1 00000G11U1 99999H11 1 11050H11 1 23080H11 1 00999H11 1 00999K11 1 00053L11 1 01500M11 1 29830N11 1 00000Q11 1 10132S11 1 00081V11 1 00303W11 1 88011
0035488660999991963091802004+13983+108000SAO  +0801VVPK V0202481N005110036019N0160001N1+02411+02181999999ADDGF107991999999999999999999MW1001
0377999999266171963033008005+64500-165433SAO  +0004OME  V02009059007752200059N024000599-01285-01835102445ADDGA1999+024384044GA2999+999999024GA3999+999999999GA4999+999999999GD12025+9999999GD24065+9999999GD30005+9999999GD40005+9999999GF108075999999999999999999MA1999999102375EQDN01 00000JPWTH 1QNNE11 1 00203E11 1 00607E11 1 00000E11 1 00000G11C1 99999H11 1 21080H11C1 37999H11 1 00999H11 1 00999K11 1-00001L11 1 01500M11 1 30230N11 1 00000Q11 1 10244S11 1 00009V11 1 01009W11 1 33015
0098988360999991963012922004+06900+122067SAO  +0006RPMZ V0209991C000010300019N0192001N1+02411+02241101091ADDGA1021+007509089GA2071+030009039GA3081+105009029GF108991999999999999999999MA1999999101021MW1001
007494476099999196303301130N-27570+135450AUST +0117     V0201805N007759999999N999999999+02375+00805999999ADDAY154999GA1005+999999999GF100995004999999999999999MA1999999100355MW1025
0081323630999991963083012004+56100+158883FM-12+999999999V0209991C00001220001CN0500001N9+00501+00391101891ADDAA199000091AY111999GF102991021001999999041011KA1999M+02001MD1210171+9999MW1011
0232999999139281963082205005+31633-097067SAO  +014599999V02015859003152200059N024000599+02505+01895999999ADDGD10995+9999999GD20995+9999999GD30995+9999999GD40995+9999999GF100995999999999999999999EQDN01 00000JPWTH 1QNNE11 1 00099E11 1 00099E11 1 00099E11 1 00099G11U1 99999K11 1 00066L11 1 01500N11 1 00000S11 1 00077V11 1 00099W11 1 54006
0238722235138381963021504003+30633-088067SAO  +0009BFM  V02033859002152200059N0160005N1+00565-00225999999ADDGD10995+9999999GD20995+9999999GD30995+9999999GD40995+9999999GF100995999999999999999999MW1001EQDN01 00000JPWTH 1QNNE11 1 00099E11 1 00099E11 1 00099E11 1 00099G11U1 99999K11 1 00028L11 1 01000N11 1 00000S11 1 00042V11 1 00099W11 1 18004
038899999913741196309122300E+37317-079967SAO  +0350ROA  V02022559004652200059N016000599+02835+01675101255ADDAA101000095GA1999+015244084GA2999+999999004GA3999+999999999GA4999+999999999GD12025+9999999GD23035+9999993GD30005+9999999GD40005+9999999GF106045999999999999999999MA1999999097125EQDN01 00000JPWTH 1QNNE11 1 00203E11 1 00304E11 1 00000E11 1 00000G11U1 99999H11 1 11050H11C1 32999H11 1 00999H11 1 00999K11 1 00062L11 1 01000M11 1 28680N11 1 00000Q11 1 10125S11 1 00083V11 1 00705W11 1 66009
0296999999275121963111006005+70917-153250SAO  +0009LNI  V02099999000050027449N016000599-01225-01445101595ADDGA1999+002744074GD14085+9999999GD20995+9999999GD30995+9999999GD40995+9999999GF108085999999999999999999MA1999999101495EQDN01 00000JPWTH 1QNNE11 1 00610E11 1 00099E11 1 00099E11 1 00099G11 1 00009H11 1 16009K11 1 00006L11 1 01000M11 1 29970N11 1 00000Q11 1 10159S11 1 00010V11 1 01010W11 1 00000
031999999913996196303050400E+39067-095633SAO  +0267TOP  V02036059007250012249N004000599+00175+00175101345ADDAA101000095GA1999+001224074GD14085+9999999GD20995+9999999GD30995+9999999GD40995+9999999GF108085999999999999999999MA1999999098005MW1455MW2515EQDN01 03370JPWTH 1QNNE11 1 00610E11 1 00099E11 1 00099E11 1 00099G11 1 00004H11 1 16004K11 1 00035L11 1 00250M11 1 28940N11 1 03370Q11 1 10134S11 1 00035V11 1 01010W11 1 11014
0057242660999991963092918004+67550+133383FM-12+013799999V0201801N00511220001CN0500001N9-00391-01391100621ADDAY101999GF100991001001999999001001MD1210271+9999MW1021
0138478990999991963042200004+33250+134183FM-12+018699999V0200501N01851014701CN0040001N9+01331+01281101971ADDAA106000591AJ100009199999999AY101999GA1999+087009029GA2031+220009059GF108991021071001501021999IA1089MA1999999099761MD1210131+9999MW1611
0043612970999991963042506004+11350-005683FM-12+037599999V0209991C00001045001CN0250001N9+02611+02001101001ADDAY111999GF105991051001999999041001MW1031
0043308230999991963062609004+51800+107433FM-12+051099999V0202701N00311030001CN0200001N9+02721+01001999999ADDAY121999GF108991011021012501071071MW1031
0057291220999991963061300004+59050+080950FM-12+006399999V0202701N00211220001CN0200001N9+00781+00281100611ADDAY101999GF102991021001999999031001MD1210011+9999MW1021
0082746710138061963040418004+36667-087500SAO  +0174HOP  V0203401N003612200019N0160001N9+01191+00021102701ADDGA1011+010509089GA2011+220009029GF102991999999999999999999MA1999999100581MW1001
033499999924144196301021200E+46600-112000SAO  +1167HLN  V02036059001050182949N064000599+00445-00445101755ADDAA101000095GA1999+018294064GA2999+036584034GD13065+9999999GD24025+9999999GD30995+9999999GD40995+9999999GF108085999999999999999999MA1999999088085EQDN01 00000JPWTH 1QNNE11 1 00407E11 1 00603E11 1 00099E11 1 00099G11 1 00060H11 1 15060H11 1 23120K11 1 00024L11 1 04000M11 1 26010N11 1 00000Q11 1 10175S11 1 00040V11 1 01010W11 1 11002
0377999999038551963051107005+30350-087317SAO  +0010NPA  V02027059005752200059N011200599+02395+02005101495ADDGA1999+004574064GA2999+999999999GA3999+999999999GA4999+999999999GD10005+9999999GD20005+9999999GD30005+9999999GD40005+9999999GF100005999999999999999999MA1999999101395EQDN01 00000JPWTH 1QNNE11 1 00000E11 1 00000E11 1 00000E11 1 00000G11U1 99999H11 1 15015H11 1 00999H11 1 00999H11 1 00999K11 1 00068L11 1 00700M11 1 29940N11 1 00000Q11 1 10149S11 1 00075V11 1 00000W11 1 77011
038899999914848196303090200E+41700-086317SAO  +0236SBN  V02033859003652200059N011200599+00065-00065101875ADDAA101000095GA1999+005494064GA2999+999999024GA3999+999999999GA4999+999999999GD12025+9999999GD24085+9999999GD30005+9999999GD40005+9999999GF108075999999999999999999MA1999999098985EQDN01 00000JPWTH 1QNNE11 1 00203E11 1 00610E11 1 00000E11 1 00000G11C1 99999H11 1 15018H11C1 37999H11 1 00999H11 1 00999K11 1 00031L11 1 00700M11 1 29230N11 1 00000Q11 1 10187S11 1 00033V11 1 01009W11 1 18007
0057343910999991963050615004+50150+048550FM-12+002599999V0200701N00311220001CN0200001N9+02391+00391101351ADDAY101999GF100991001001999999001001MD1710071+9999MW1021
0043679510999991963112109004+20500+027800FM-12+138799999V0200601N00411220001CN0500001N9+02721+01221999999ADDAY101999GF103991011011017501031001MW1031
038899999924033196309072200E+45800-108533SAO  +1087BIL  V02029359005252200059N080000599+03335+00895101405ADDAA101000095GA1999+024384084GA2999+999999014GA3999+999999999GA4999+999999999GD13005+9999993GD20065+9999999GD30005+9999999GD40005+9999999GF106025999999999999999999MA1999999089305EQDN01 00000JPWTH 1QNNE11 1 00300E11 1 00008E11 1 00000E11 1 00000G11U1 99999H11 1 11080H11C1 39999H11 1 00999H11 1 00999K11 1 00048L11 1 05000M11 1 26370N11 1 00000Q11 1 10140S11 1 00092V11 1 00802W11 1 78010
039491190322516196309090200C+20900-156433SAO  +0012OGG  V02004559011352200059N0240005N1+02725+02005101355ADDAA101000095GA1021+009144084GA2999+016764064GA3999+999999999GA4999+999999999GD12025+9999999GD22005+9999999GD30005+9999999GD40005+9999999GF102025999999999999999999MA1999999101125MW1001EQDN01 00000JPWTH 1QNNE11 1 00202E11 1 00200E11 1 00000E11 1 00000G11U1 99999H11 1 11030H11 1 15055H11 1 00999H11 1 00999K11 1 00068L11 1 01500M11 1 29860N11 1 00000Q11 1 10135S11 1 00081V11 1 00202W11 1 22022
031372617014742196309270200C+44467-073150SAO  +0106BTV  V02018059002650365849N0192005N9+01725+00945101215ADDAA101000095GA1081+036584034GD14085+9999999GD20995+9999999GD30995+9999999GD40995+9999999GF108085999999999999999999MA1999999100005MW1001EQDN01 00000JPWTH 1QNNE11 1 00610E11 1 00099E11 1 00099E11 1 00099G11 1 00120H11 1 23120K11 1 00049L11 1 01200M11 1 29530N11 1 00000Q11 1 10121S11 1 00063V11 1 01010W11 1 55005
0081561720999991963012609004+31850+102683FM-12+260199999V0202701N00211220001CN0500001N9+00391-03501999999ADDAY121999GF108991001001999999001071MA1999999093801MD1610221+9999ME1430809MW1021
003594999900361196310300500N-42720+146880AUST +0076     V0201355N002659999999N999999999+01155+00805999999ADDGF108995999999999999999999MW1025
0081388950999991963121518004+37600+062183FM-12+024199999V0201401N00311220001CN0100001N9+00501+00111101691ADDAA199000091AY101999GF100991001001999999001001KA1999M+01501MD1810011+9999MW1021
0112987460999991963120200004+07167+124217SAO  +0058RPWC V0201351N001512200019N0480001N1+02631+02411101071ADDGA1011+007509089GA2011+024009039GA3011+075009029GF102991999999999999999999MA1999999100851MD1210501+9999MW1001
0087220060999991963051700004+69533+031967FM-12+999999999V0203401N00101004501CN0200001N9+00501+00501101291ADDAA106999999AY181999GF108991081091004501999999MD1210091+9999MW1801EQDQ01  00002PRCP06
0093105460999991963090306004+50650+010150FM-12+048799999V0201101N00101220001CN0180001N9+00891+00781101891ADDAJ100009199999999AY101061GF101991011001999999041001IA1009KA1999N+00721MD1310051+9999MW1021
0377999999931141963100518005+33700-117833SAO  +001999999V02018059002650121949N024000599+02284+01565101814ADDGA1999+012194064GA2999+999999999GA3999+999999999GA4999+999999999GD13055+9999999GD20005+9999999GD30005+9999999GD40005+9999999GF105055999999999999999999MA1999999101634EQDN01 00000JPWTH 1QNNE11 1 00406E11 1 00000E11 1 00000E11 1 00000G11 1 00040H11 1 15040H11 1 00999H11 1 00999H11 1 00999K11 1 00060L11 1 01500M11 1 30010N11 1 00000Q11 1 10181S11 1 00073V11 1 00606W11 1 55005
0076232740999991963092403004+67467+086567FM-12+003099999V0202001N005119999999N0100001N9+00391+00221100601ADDAY161999GF108991999071999999021999MD1710141+9999MW1601EQDQ01+000082SCOTLC
0383999999340521963101505005+48100+005050SAO  +0313LFQU V02099999000050243849N000600599-00065-00115102695ADDGA1999+999999104GA2999+024384034GA3999+999999999GA4999+999999999GD16055+9999999GD23025+9999999GD30005+9999999GD40005+9999999GF106065999999999999999999MA1999999098815MW1455EQDN01 07000JPWTH 1QNNE11 1 00806E11 1 00402E11 1 00000E11 1 00000G11 1 00080H11 1 45999H11 1 23080H11 1 00999H11 1 00999K11 1 00030L11 1 00038M11 1 29180N11 1 07000Q11 1 10269S11 1 00031V11 1 00808W11 1 00000
0098489100999991963111300004+10250+105950SAO  +0005VVVL V0200681N002112200019N0112001N1+02681+02351101111ADDGA1011+006009089GA2021+015009059GA3011+027009039GF102991999999999999999999MA1999999101121MW1001
0066106320999991963080306004+49967+008150SAO  +0230EDOT V0200501N002612200019N0080001N9+02181+01741999999ADDGA1001+999999999GF100991999999999999999999MA1999999098711MW1051
0165999999230191963120303005+31833-106400SAO  +1196BIF  V02099999000052200059N032000599+00445-00945102765ADDGF100005999999999999999999MA1999999089035EQDN01 00000JPWTH 1QNNG11U1 99999K11 1 00015L11 1 02000M11 1 26290N11 1 00000Q11 1 10276S11 1 00040V11 1 00000W11 1 00000
0096988300999991963100812004+06050+121000SAO  +0013RPWJ V0201351N001010900019N0240001N1+02631+02521101091ADDGA1011+004509089GA2081+090009029GF108991999999999999999999MA1999999100911MD1210441+9999MW1001
010694633099999196312070100N-32330+117870AUST +0296     V0200685N002659999999N999999999+02295+00705999999ADDAY124999GA1005+999999999GA2005+999999999GA3015+999999999GF101995004999999999999085MA1999999098735MW1025
0098071653999991963120409004+48783+004183SAO  +0179LFQB V0202931N001010060019N0012001N1+00581+00581999999ADDGA1021+999999999GA2021+003009079GA3081+006009079GF108991999999999999999999MA1999999099421MW1451
007494578599999196302212000N-27430+153080AUST +0006YBBN V0209999C000059999999N999999999+01975+01805999999ADDAY144999GA1005+999999999GF100995004999999999999999MA1999999101635MW1045
0057352250999991963041009004+50750+056533FM-12+017899999V0202701N00211220001CN0200001N9+00391-00891999999ADDAY121999GF108991001001999999001071MD1210011+9999MW1021
0122107140999991963062808004+49217-007400SAO  +0345EDAM V0202501N004110075019N0048001N9+01611+01551101041ADDGA1021+002409079GA2031+007509099GA3021+021009039GF107991999999999999999999MA1999999097161MW1051MW2171MW3451MW4801MW5951
0066726071146061963101403004+44800-068833SAO  +0059BGR  V0209991C000012200019N0176001N9+00351-00091102391ADDGA1001+999999999GF100991999999999999999999MA1999999101631MW1001
0100560960999991963121900004+33383+104683FM-12+109099999V0209991C00001220001CN0300001N9-00111-00221103371ADDAY101999GF100991001001999999001001HL10009IA2999-00229MA1999999091401MD1210111+9999ME1315809MW1021
034072251012924196305050300C+27767-097500SAO  +0012CRP  V02013559007750045749N0160005N1+02505+02175101715ADDAA101000095GA1061+004574064GA2021+009144064GD13065+9999999GD24025+9999999GD30995+9999999GD40995+9999999GF108085999999999999999999MA1999999101565MW1001EQDN01 00000JPWTH 1QNNE11 1 00408E11 1 00602E11 1 00099E11 1 00099G11 1 00015H11 1 15015H11 1 15030K11 1 00071L11 1 01000M11 1 29990N11 1 00000Q11 1 10171S11 1 00077V11 1 01010W11 1 44015
0035725377148041963041507004+42617-082833SAO  +0177MTC  V0209991C000012200019N0240001N9-00091-00651999999ADDGF100991999999999999999999MW1001
0383999999038531963060903005+30400-081417SAO  +000699999V02018059004152200059N009600599+02565+02175101265ADDGA1999+999999004GA2999+999999999GA3999+999999999GA4999+999999999GD12025+9999999GD20005+9999999GD30005+9999999GD40005+9999999GF102025999999999999999999MA1999999101155MW1055EQDN01 08100JPWTH 1QNNE11 1 00203E11 1 00000E11 1 00000E11 1 00000G11U1 99999H11C1 32999H11 1 00999H11 1 00999H11 1 00999K11 1 00071L11 1 00600M11 1 29870N11 1 08100Q11 1 10126S11 1 00078V11 1 00303W11 1 55008
0329999999938321963092514005+99999+999999SAO  +999999999V02002359007750021349N001600599+01834+01835101504ADDGA1999+002134074GA2999+004574074GD13075+9999999GD24015+9999999GD30995+9999999GD40995+9999999GF108085999999999999999999MA1999999101224MW1635EQDN01 02100JPWTH 1QNNE11 1 00409E11 1 00601E11 1 00099E11 1 00099G11 1 00007H11 1 16007H11 1 16015K11 1 00065L11 1 00100M11 1 29890N11 1 02100Q11 1 10150S11 1 00065V11 1 01010W11 1 12015
038899999923154196309301000E+39283-114850SAO  +1906ELY  V02018059002152200059N024000599+01065-00335101635ADDAA101000095GA1999+042674034GA2999+999999999GA3999+999999999GA4999+999999999GD12015+9999999GD20005+9999999GD30005+9999999GD40005+9999999GF101015999999999999999999MA1999999081445EQDN01 00000JPWTH 1QNNE11 1 00201E11 1 00000E11 1 00000E11 1 00000G11U1 99999H11 1 23140H11 1 00999H11 1 00999H11 1 00999K11 1 00026L11 1 01500M11 1 24050N11 1 00000Q11 1 10163S11 1 00051V11 1 00101W11 1 55004
004672303013714196307172000D+35183-079017SAO  +0066POB  V0202301N004112200019N0112001N9+03071+02131999999ADDAA101000095GF107991999999999999999999MW1001
038899999994830196312170600E+41600-083800SAO  +0204TOL  V02024859003652200059N016000599-01444-01725103394ADDAA101000095GA1999+004884064GA2999+999999999GA3999+999999999GA4999+999999999GD13055+9999993GD20005+9999999GD30005+9999999GD40005+9999999GF105025999999999999999999MA1999999100684EQDN01 00000JPWTH 1QNNE11 1 00306E11 1 00000E11 1 00000E11 1 00000G11U1 99999H11 1 15016H11 1 00999H11 1 00999H11 1 00999K11 1 00001L11 1 01000M11 1 29730N11 1 00000Q11 1 10339S11 1 00006V11 1 00603W11 1 76007
038872256013959196306151100B+31617-097217SAO  +0157ACT  V02018059005252200059N024000599+02505+02005101295ADDAA101000095GA1999+999999004GA2999+999999999GA3999+999999999GA4999+999999999GD13065+9999993GD20005+9999999GD30005+9999999GD40005+9999999GF106025999999999999999999MA1999999099535EQDN01 00000JPWTH 1QNNE11 1 00308E11 1 00000E11 1 00000E11 1 00000G11U1 99999H11C1 32999H11 1 00999H11 1 00999H11 1 00999K11 1 00068L11 1 01500M11 1 29390N11 1 00000Q11 1 10129S11 1 00077V11 1 00802W11 1 55010
0329999999931151963091805005+32567-117117SAO  +000899999V02027059002150152449N008000599+02064+02005100424ADDGA1999+007624064GA2999+015244064GD12035+9999999GD24055+9999999GD30995+9999999GD40995+9999999GF108085999999999999999999MA1999999100344MW1455EQDN01 07000JPWTH 1QNNE11 1 00204E11 1 00606E11 1 00099E11 1 00099G11 1 00050H11 1 15025H11 1 15050K11 1 00068L11 1 00500M11 1 29630N11 1 07000Q11 1 10042S11 1 00069V11 1 01010W11 1 77004
0269999999930451963122711005+33233-107267SAO  +1471TCS  V02029359004152200059N048000599-00064-01675102034ADDGD10995+9999999GD20995+9999999GD30995+9999999GD40995+9999999GF100005999999999999999999MA1999999085574EQDN01 00000JPWTH 1QNNE11 1 00099E11 1 00099E11 1 00099E11 1 00099G11U1 99999K11 1 00002L11 1 03000M11 1 25270N11 1 00000Q11 1 10203S11 1 00031V11 1 00000W11 1 78008
0377999999047691963042820005+42417-071483SAO  +006399999V02009059002152200059N011200599+01335-00065102695ADDGA1999+010674084GA2999+999999999GA3999+999999999GA4999+999999999GD12035+9999999GD20005+9999999GD30005+9999999GD40005+9999999GF103035999999999999999999MA1999999101935EQDN01 00000JPWTH 1QNNE11 1 00204E11 1 00000E11 1 00000E11 1 00000G11U1 99999H11 1 11035H11 1 00999H11 1 00999H11 1 00999K11 1 00031L11 1 00700M11 1 30100N11 1 00000Q11 1 10269S11 1 00056V11 1 00404W11 1 33004
004674780499999196308070400D+32017-081133SAO  +0017SVN  V0209991C000012200019N0112001N9+02681+02301999999ADDAA101000095GF108991999999999999999999MW1001
0057598380999991963060421004+19133+108633FM-12+001699999V0202201N00821007801CN0300001N9+02781+02501100211ADDAY121999GF107991071041008001999999MD1610051+9999MW1021
0269999999932091963050602005+35667-120633SAO  +0246PRB  V02031559004152200059N080000599+02334+01005102094ADDGD13995+9999993GD20995+9999999GD30995+9999999GD40995+9999999GF106015999999999999999999MA1999999099154EQDN01 00000JPWTH 1QNNE11 1 00399E11 1 00099E11 1 00099E11 1 00099G11U1 99999K11 1 00050L11 1 05000M11 1 29280N11 1 00000Q11 1 10209S11 1 00074V11 1 00801W11 1 88008
0377999999422151963011006005+26267+127750SAO  +0084ROTM V02036059003150121949N040000599+01445+00835101965ADDGA1999+009144064GA2999+012194064GA3999+999999999GA4999+999999999GD12025+9999999GD23045+9999999GD30005+9999999GD40005+9999999GF106065999999999999999999MA1999999100955EQDN01 00000JPWTH 1QNNE11 1 00203E11 1 00405E11 1 00000E11 1 00000G11 1 00040H11 1 15030H11 1 15040H11 1 00999H11 1 00999K11 1 00047L11 1 02500M11 1 29810N11 1 00000Q11 1 10196S11 1 00058V11 1 00808W11 1 11006
0043961710999991963030306004-00433+102450FM-12+004699999V0203201N00151002401CN0050001N9+02501+02501101101ADDAY161999GF108991071051002501021999MW1211
0335999999242441963092223005+47683-122267SAO  +001599999V02018059003150243849N009600599+01675+01395100635ADDGA1999+018294064GA2999+024384034GD12025+9999999GD24065+9999999GD30995+9999999GD40995+9999999GF108085999999999999999999MA1999999100445MW1045MW2615EQDN01 02082JPWTH 1QNNE11 1 00202E11 1 00608E11 1 00099E11 1 00099G11 1 00080H11 1 15060H11 1 23080K11 1 00057L11 1 00600M11 1 29660N11 1 02082Q11 1 10063S11 1 00062V11 1 01010W11 1 55006
0057232050999991963101503004+67650+053017FM-12+000799999V0202301N00821000151CN0200001N9+00111-00111099241ADDAY121999GF107991071051000251041001MD1210121+9999MW1021
0232999999137101963040510005+38833-077017SAO  +001899999V02029359009352200059N024000599+00565-00725999999ADDGD10995+9999999GD20995+9999999GD30995+9999999GD40995+9999999GF100995999999999999999999EQDN01 00000JPWTH 1QNNE11 1 00099E11 1 00099E11 1 00099E11 1 00099G11U1 99999K11 1 00019L11 1 01500N11 1 00000S11 1 00042V11 1 00099W11 1 78018
007494975099999196301311400N-42830+147520AUST +0003YMHB V0203385N004659999999N999999999+01905+01105999999ADDAY124999GA1005+999999999GF100995004999999999999999MA1999999100675MW1025
0056433390999991963092312004+10233+077467FM-12+234399999V0209991C00001000301CN0040001N9+01391+01281999999ADDAY191999GF107991061071000251001011KA1999M+01781MW1021
0377999999938371963042902005+30233-081667SAO  +0009NIP  V02013559004652200059N016000599+02114+01395102374ADDGA1999+999999004GA2999+999999999GA3999+999999999GA4999+999999999GD11025+9999993GD20005+9999999GD30005+9999999GD40005+9999999GF102015999999999999999999MA1999999102274EQDN01 00000JPWTH 1QNNE11 1 00103E11 1 00000E11 1 00000E11 1 00000G11U1 99999H11C1 32999H11 1 00999H11 1 00999H11 1 00999K11 1 00057L11 1 01000M11 1 30200N11 1 00000Q11 1 10237S11 1 00070V11 1 00301W11 1 44009
0085510870999991963091712004+47333+089717FM-12+999999999V0202701N00311220001CN0200001N9+01501-00721101921ADDAY101999GF100991001001999999001001KA1999M+01891MA1999999092501MD1210021+9999MW1021
0111477760999991963102400004+34333+134917FM-12+011399999V0200501N003119999999N0080001N9+01611+01281102821ADDAJ100009199999999AY101999GA1999+999999079GF107991071051999999999999IA1009MA1999999101491MD1110111+9999MW1021
038899999914944196305131700E+43567-096733SAO  +043499999V02027059009852200059N024000599+01505+00675101685ADDAA101000095GA1999+011584064GA2999+999999999GA3999+999999999GA4999+999999999GD12025+9999999GD20005+9999999GD30005+9999999GD40005+9999999GF102025999999999999999999MA1999999096515EQDN01 00000JPWTH 1QNNE11 1 00203E11 1 00000E11 1 00000E11 1 00000G11U1 99999H11 1 15038H11 1 00999H11 1 00999H11 1 00999K11 1 00044L11 1 01500M11 1 28500N11 1 00000Q11 1 10168S11 1 00059V11 1 00303W11 1 77019
0057125700999991963123015004+50850+020617FM-12+027099999V0202701N00511000601CN0020001N9+00001-00111102591ADDAY151999GF108991051071000751021999MD1310141+9999MW1711
0087219650999991963050918004+70633+162400FM-12+000699999V0200201N00411024001CN0020001N9-01111-01221101351ADDAA106999999AY171999GF107991021051004501011011MD1510031+9999MW1731EQDQ01  00002PRCP06
036772698024229196302052100C+45600-122600SAO  +0006PDX  V02009059006250304849N0240005N9+01115+00505101255ADDAA101000095GA1011+021344044GA2051+030484044GA3021+045724044GD12015+9999999GD23055+9999999GD34025+9999999GD40995+9999999GF108085999999999999999999MA1999999101125MW1001EQDN01 00000JPWTH 1QNNE11 1 00201E11 1 00406E11 1 00603E11 1 00099G11 1 00100H11 1 21070H11 1 21100H11 1 21150K11 1 00041L11 1 01500M11 1 29860N11 1 00000Q11 1 10125S11 1 00052V11 1 01010W11 1 33012
0070548570999991963090500004+36067+120150FM-12+007899999V0203601N00311220001CN0080001N9+02281+02001101361ADDAY121061GF107991001001999999031021KA1999N+02111MD1210131+9999MW1101
0068207440999991963022009004+72383+052733FM-12+001699999V0201101N01391220001CN0040001N9-02781-03221099551ADDAA106000091AY131999GF100991001001999999001001MD1310061+9999MW1381
0070581440999991963032318004+33583+119033FM-12+001899999V0200901N00411220001CN0250001N9+00111-00391102711ADDAY101999GF100991001001999999001001KA1999M+01111MD1710011+9999MW1021
0106354060999991963011006004+49050+051867FM-12+000499999V0201601N00721021001CN0200001N9-00891-01221101521ADDAA199000091AY121999GF107991071001022501021001HL10009IA1209IA2999-00899KA1999N-00891MD1710241+9999MW1021
0108478270999991963031203004+31567+130550FM-12+000599999V0203601N004619999999N0400001N9+01221+00001101661ADDAY101999GA1999+011709039GA2001+999999999GF103991031011999999051001MD1810111+9999MW1011EQDQ01+000992SCOLCB
0011474050999991963071421004+44583+142967FM-12+001699999V0203601N002119999999N9999999N9+01331+99999999999ADDAY101999
038899999913881196312280400E+35217-080933SAO  +0225CLT  V02036059001552200059N024000599+00005-00615101785ADDAA101000095GA1999+036584034GA2999+999999999GA3999+999999999GA4999+999999999GD12025+9999999GD20005+9999999GD30005+9999999GD40005+9999999GF102025999999999999999999MA1999999098985EQDN01 00000JPWTH 1QNNE11 1 00202E11 1 00000E11 1 00000E11 1 00000G11U1 99999H11 1 23120H11 1 00999H11 1 00999H11 1 00999K11 1 00021L11 1 01500M11 1 29230N11 1 00000Q11 1 10178S11 1 00032V11 1 00202W11 1 11003
0056419000999991963020912004+24900+091883FM-12+003599999V0209991C00001220001CN9999999N9+02441+01501100701ADDAY101999GF100991001001999999001001KA1999M+02831MW1021
0057226020999991963042803004+63817+030650FM-12+018199999V0209991C00001030001CN0200001N9-00111-00221101691ADDAY121999GF107991011051008001051051MD1410001+9999MW1021
0073478300999991963061721004+31917+131417FM-12+000899999V0203601N00101004501CN0050001N9+02331+02281101291ADDAY101999GA1061+999999999GF107991071021004501001001MD1610041+9999MW1021
0377999999887021963022318005-83400+174750SAO  +005999999V02099999000050274349N024000599-01725-02005099415ADDGA1999+027434034GA2999+999999999GA3999+999999999GA4999+999999999GD13075+9999999GD20005+9999999GD30005+9999999GD40005+9999999GF107075999999999999999999MA1999999098755EQDN01 00000JPWTH 1QNNE11 1 00409E11 1 00000E11 1 00000E11 1 00000G11 1 00090H11 1 23090H11 1 00999H11 1 00999H11 1 00999K11 1-00004L11 1 01500M11 1 29160N11 1 00000Q11 1 09941S11 1 00001V11 1 00909W11 1 00000
0057121050999991963031409004+54200+016183FM-12+003499999V0203601N00721220001CN0200001N9-00611-01001102551ADDAY111999GF103991031021008001001001MD1210161+9999MW1261
038872469023062196309141500B+39767-104883SAO  +161599999V02020359003650396249N064000599+01675+00835101075ADDAA101000095GA1999+024384064GA2999+039624034GA3999+999999024GA4999+999999999GD13005+9999999GD23055+9999999GD30025+9999999GD40005+9999999GF107065999999999999999999MA1999999083615EQDN01 00000JPWTH 1QNNE11 1 00400E11 1 00406E11 1 00003E11 1 00000G11 1 00130H11 1 15080H11 1 23130H11C1 37999H11 1 00999K11 1 00047L11 1 04000M11 1 24690N11 1 00000Q11 1 10107S11 1 00062V11 1 00908W11 1 56007
0082788060999991963111609004+08917-079600SAO  +0017MPHO V0209991C000010840019N0160001N9+02461+02131101071ADDGA1011+005409079GA2051+084009009GF107991999999999999999999MA1999999100881MW1001
040072519014771196305121000C+43117-076117SAO  +0125SYR  V02018059003152200059N0064005N9-00065-00175102545ADDAA101000095GA1011+030484034GA2999+999999999GA3999+999999999GA4999+999999999GD12015+9999999GD20005+9999999GD30005+9999999GD40005+9999999GF101015999999999999999999MA1999999101025MW1111MW2445EQDN01 07200JPWTH 1QNNE11 1 00201E11 1 00000E11 1 00000E11 1 00000G11U1 99999H11 1 23100H11 1 00999H11 1 00999H11 1 00999K11 1 00029L11 1 00400M11 1 29830N11 1 07200Q11 1 10254S11 1 00031V11 1 00101W11 1 55006
0238726395148081963081011003+44467-083367SAO  +0188OSC  V02027059001552200059N0240005N9+01115+01065999999ADDGD12995+9999999GD20995+9999999GD30995+9999999GD40995+9999999GF102995999999999999999999MW1001EQDN01 00000JPWTH 1QNNE11 1 00299E11 1 00099E11 1 00099E11 1 00099G11U1 99999K11 1 00051L11 1 01500N11 1 00000S11 1 00052V11 1 00299W11 1 77003
0356999999433131963070603005+35750+139350SAO  +0139RJTY V02009059001550024449N006400599+02175+01945100515ADDGA1999+000914134GA2999+002444064GA3999+005494064GD12015+9999999GD23065+9999999GD34085+9999999GD40995+9999999GF108085999999999999999999MA1999999098885MW1455EQDN01 07000JPWTH 1QNNE11 1 00201E11 1 00408E11 1 00610E11 1 00099G11 1 00008H11 1 13003H11 1 15008H11 1 15018K11 1 00067L11 1 00400M11 1 29200N11 1 07000Q11 1 10051S11 1 00071V11 1 01010W11 1 33003
031399999993815196312061600E+39900-084217SAO  +031399999V02018059007250457249N008000599+00284-00175102054ADDAA101000095GA1999+045724034GD14085+9999999GD20995+9999999GD30995+9999999GD40995+9999999GF108085999999999999999999MA1999999098344MW1045EQDN01 08200JPWTH 1QNNE11 1 00610E11 1 00099E11 1 00099E11 1 00099G11 1 00150H11 1 23150K11 1 00029L11 1 00500M11 1 29040N11 1 08200Q11 1 10205S11 1 00037V11 1 01010W11 1 55014
0057300370999991963061306004+59133+108267FM-12+999999999V0201901N00411007801CN0100001N9+02221+00391100601ADDAY121999GF105991051091008001001001MD1810011+9999MW1041
0057249080999991963050118004+60333+102267FM-12+026099999V0202301N00101220001CN0200001N9-00781-01111102051ADDAY121999GF108991001001999999001071MD1410001+9999MW1021
0082471100999991963040415004+37550+126800SAO  +0020RKSS V0201351N004110135019N0112001N1+01461+01131101461ADDGA1061+013509059GA2021+030009049GF108991999999999999999999MA1999999101191MW1001
0081569640999991963022603004+22767+101083FM-12+131999999V0201401N00411036001CN0400001N9+02001+01001101871ADDAY111999GF107991031081012501041001MA1999999097501MD1110191+9999ME1315509MW1021
0070505640999991963041112004+49500+127250FM-12+999999999V0200401N00211220001CN0300001N9-00111-00391101671ADDAY111999GF108991001001999999001071KA1999M+01001MD1210251+9999MW1031
0057319090999991963081406004+45033+136667FM-12+001199999V0200501N00511002401CN0020001N9+01391+01281100931ADDAY151999GF108991081061002501999999MD1610031+9999MW1511
028099999924259196306040800E+41783-122467SAO  +0805SIY  V02031559004152200059N032000599+00835+00285101865ADDAA101000095GD10995+9999999GD20995+9999999GD30995+9999999GD40995+9999999GF100005999999999999999999MA1999999092485EQDN01 00000JPWTH 1QNNE11 1 00099E11 1 00099E11 1 00099E11 1 00099G11U1 99999K11 1 00037L11 1 02000M11 1 27310N11 1 00000Q11 1 10186S11 1 00047V11 1 00000W11 1 88008
0350999999128411963043020005+28550-081333SAO  +003799999V02022559004150365849N016000599+02895+01505101825ADDGA1999+009144084GA2999+036584034GA3999+999999024GD12025+9999999GD23035+9999999GD34035+9999999GD40995+9999999GF108085999999999999999999MA1999999101395EQDN01 00000JPWTH 1QNNE11 1 00202E11 1 00404E11 1 00604E11 1 00099G11 1 00120H11 1 11030H11 1 23120H11C1 37999K11 1 00059L11 1 01000M11 1 29940N11 1 00000Q11 1 10182S11 1 00084V11 1 01010W11 1 66008
0377999999422041963041003005+26350+127767SAO  +0043RODN V02006859005752200059N024000599+01895+00615102755ADDGA1999+013724064GA2999+999999999GA3999+999999999GA4999+999999999GD12045+9999999GD20005+9999999GD30005+9999999GD40005+9999999GF104045999999999999999999MA1999999102175EQDN01 00000JPWTH 1QNNE11 1 00205E11 1 00000E11 1 00000E11 1 00000G11U1 99999H11 1 15045H11 1 00999H11 1 00999H11 1 00999K11 1 00043L11 1 01500M11 1 30170N11 1 00000Q11 1 10275S11 1 00066V11 1 00505W11 1 32011
0383999999047831963080812005+99999+999999SAO  +999999999V02029359002152200059N001600599+01945+01785101305ADDGA1999+000304104GA2999+999999999GA3999+999999999GA4999+999999999GD16025+9999999GD20005+9999999GD30005+9999999GD40005+9999999GF102025999999999999999999MA1999999100715MW1445EQDN01 07200JPWTH 1QNNE11 1 00802E11 1 00000E11 1 00000E11 1 00000G11U1 99999H11 1 45001H11 1 00999H11 1 00999H11 1 00999K11 1 00064L11 1 00100M11 1 29740N11 1 07200Q11 1 10130S11 1 00067V11 1 00202W11 1 78004
031399999913882196306160400E+35033-085200SAO  +021099999V02004559003150365849N032000599+02395+01785101155ADDAA101000095GA1999+036584044GD14085+9999999GD20995+9999999GD30995+9999999GD40995+9999999GF108085999999999999999999MA1999999098755MW1615EQDN01 02000JPWTH 1QNNE11 1 00610E11 1 00099E11 1 00099E11 1 00099G11 1 00120H11 1 21120K11 1 00064L11 1 02000M11 1 29160N11 1 02000Q11 1 10115S11 1 00075V11 1 01010W11 1 22006
0152352130999991963103106004+50967+054467FM-12+009799999V0203201N00721007801CN0200001N9-00221-00391999999ADDAA106028091AA299007091AY171999GF108991999071008001021999HL10009IA1209IA2999-00119KA1999N+99999MD1310081+9999MW1711EQDQ01+000082SCOTLCQ02 -00112ATMN  
017699999914944196309080300E+43567-096733SAO  +043499999V02022559001552200059N024000599+01615+01285101865ADDAA101000095GF100005999999999999999999MA1999999096755EQDN01 00000JPWTH 1QNNG11U1 99999K11 1 00055L11 1 01500M11 1 28570N11 1 00000Q11 1 10186S11 1 00061V11 1 00000W11 1 66003
0057575040999991963101109004+29583+105050FM-12+034399999V0200401N00311015001CN0130001N9+02001+01721101511ADDAY161999GF108991081051017501999999MD1610091+9999MW1011
033472488023185196311080100B+39500-119783SAO  +1342RNO  V02006859002650137249N040000599+00675-00115101845ADDAA101000095GA1999+013724064GA2999+048774034GD13055+9999999GD24035+9999999GD30995+9999999GD40995+9999999GF108085999999999999999999MA1999999086625EQDN01 00000JPWTH 1QNNE11 1 00406E11 1 00604E11 1 00099E11 1 00099G11 1 00045H11 1 15045H11 1 23160K11 1 00030L11 1 02500M11 1 25580N11 1 00000Q11 1 10184S11 1 00044V11 1 01010W11 1 32005
039472564024018196308101300C+41150-104817SAO  +1867CYS  V02022559003152200059N1440005N9+01395+01065101715ADDAA101000095GA1021+220009004GA2999+999999999GA3999+999999999GA4999+999999999GD11025+9999993GD20005+9999999GD30005+9999999GD40005+9999999GF102005999999999999999999MA1999999081755MW1001EQDN01 00000JPWTH 1QNNE11 1 00103E11 1 00000E11 1 00000E11 1 00000G11U1 99999H11C1 32999H11 1 00999H11 1 00999H11 1 00999K11 1 00051L11 1 09000M11 1 24140N11 1 00000Q11 1 10171S11 1 00057V11 1 00300W11 1 66006
0075486010999991963102521004+05300+100267FM-12+000499999V0209991C00001045001CN0100001N9+02391+02281101111ADDAY161999GA1021+009009059GA2071+045009049GF107991021051008001071999MW1021
0307999999138551963081508005+35383-086233SAO  +032999999V02036059001559999999N999999999+01335+99999999999ADDGA1999+999999024GA2999+999999024GA3999+999999024GA4999+999999024GD14075+9999999GD24075+9999999GD34075+9999999GD44075+9999999GF107075999999999999999999EQDN01 99990FPRES 5QNNE11 1 00609E11 1 00609E11 1 00609E11 1 00609H11 1 37999H11 1 37999H11 1 37999H11 1 37999M11 5 99990S11 1 00056V11 1 00909W11 1 11003
0076388620999991963061809004+38667+071917FM-12+999999999V0202001N00101024001CN0500001N9+00501-00721101331ADDAY111999GF105991051051999999001001MD1710011+9999MW1031EQDQ01+000992SCOLCB
0081511560999991963102015004+46633+086183FM-12+080099999V0200401N00211220001CN0500001N9+00001-00501103341ADDAY101999GF101991001001999999001021MA1999999098201MD1510021+9999ME1315909MW1011
0095476480999991963121900004+35717+140850FM-12+002899999V0202901N004619999999N0600001N9+00561-00611101721ADDAJ100009199999999AY101999GF101991999011999999001001IA1009MA1999999101391MD1210211+9999MW1021
0269999999932091963073014005+35667-120633SAO  +0246PRB  V02099999000052200059N012800599+01004+00785101464ADDGD10995+9999999GD20995+9999999GD30995+9999999GD40995+9999999GF100005999999999999999999MA1999999098584EQDN01 00000JPWTH 1QNNE11 1 00099E11 1 00099E11 1 00099E11 1 00099G11U1 99999K11 1 00046L11 1 00800M11 1 29110N11 1 00000Q11 1 10146S11 1 00050V11 1 00000W11 1 00000
0057363250999991963042800004+50333+098333FM-12+999999999V0209991C000019999999N0200001N9-01221-01501101501ADDAY111999GF106991021001999999041011MD1210051+9999MW1031
0070505570999991963100600004+49167+125217FM-12+022299999V0202201N00721220001CN0200001N9-00611-00781101771ADDAY111999GF107991001001999999001021KA1999N-01111MD1210071+9999MW1021
0399723540139191963092518003+35417-097383SAO  +0384TIK  V02031559004152200059N0192005N9+02175+01565101965ADDGA1999+015244084GA2041+042674034GA3041+220009024GA4999+999999999GD12005+9999999GD24045+9999999GD30045+9999999GD40005+9999999GF108075999999999999999999MA1999999097365MW1001EQDQ01    003SCCGA1N01 00000JPWTH 1QNNE11 1 00200E11 1 00605E11 1 00005E11 1 00000G11C1 99999H11 1 11050H11 1 23140H11C1 37999H11 1 00999K11 1 00060L11 1 01200M11 1 28750N11 1 00000Q11 1 10196S11 1 00071V11 1 01009W11 1 88008
009372253612911196306261800D+29533-098283SAO  +0232RND  V0202301N002110300019N0240001N9+02681+02021101741ADDAA101000095GA1021+009009089GA2061+030009039GF107991999999999999999999MA1999999099051MW1001
030799999924131196311271600E+43567-116217SAO  +087199999V02022559002650228649N011200599+00115+00005102915ADDAA101000095GA1999+022864034GD14085+9999999GD20995+9999999GD30995+9999999GD40995+9999999GF108085999999999999999999MA1999999092625EQDN01 00000JPWTH 1QNNE11 1 00610E11 1 00099E11 1 00099E11 1 00099G11 1 00075H11 1 23075K11 1 00032L11 1 00700M11 1 27350N11 1 00000Q11 1 10291S11 1 00034V11 1 01010W11 1 66005
0081125950999991963032806004+50717+023250FM-12+021399999V0203201N00101004501CN0100001N9-00111-00111101401ADDAA199000391AY151999GF108991081061004501999999KA1999N-00111MD1210161+9999MW1021
0050718520999991963080307004+49900-097233SAO  +0240CYWG V0203151N005712200019N0240001N1+01631+01461101191ADDGF100991999999999999999999MA1999999098371MW1001
034099999914923196311180400E+41450-090500SAO  +0177MLI  V02031559006250033549N006400599+01065+00945101345ADDAA101000095GA1999+003354134GA2999+004884064GD13065+9999999GD24025+9999999GD30995+9999999GD40995+9999999GF108085999999999999999999MA1999999099195MW1455EQDN01 07000JPWTH 1QNNE11 1 00407E11 1 00603E11 1 00099E11 1 00099G11 1 00011H11 1 13011H11 1 15016K11 1 00049L11 1 00400M11 1 29290N11 1 07000Q11 1 10134S11 1 00051V11 1 01010W11 1 88012
0098743970999991963032319004+44983-064917SAO  +0025CYZX V0202701N002112200019N0240001N1+00461-00591101411ADDGA1011+010509089GA2011+024009039GA3011+075009009GF102991999999999999999999MA1999999101081MW1001
0057574110999991963061312004+30800+106067FM-12+029699999V0201801N00311220001CN0260001N9+02501+01781100651ADDAY121999GF107991001001999999041021MD1510021+9999MW1031
0057321490999991963090106004+46133+142217FM-12+999999999V0200701N00211036001CN0200001N9+01501+01391100081ADDAY161999GF106991031021004501041001MD1310061+9999MW1011
0086973950999991963120600004-08467+126450FM-12+052899999V0201301N00461220001CN0250001N9+02611+02221101131ADDAA124023091AY101999GA1011+012009089GA2041+084009029GF107991021041012501031051MW1011
0377999999931071963030609005+32867-117133SAO  +0140NKX  V02009059001052200059N024000599+00894+00065102044ADDGA1999+999999004GA2999+999999999GA3999+999999999GA4999+999999999GD10005+9999999GD20005+9999999GD30005+9999999GD40005+9999999GF100005999999999999999999MA1999999100374EQDN01 00000JPWTH 1QNNE11 1 00000E11 1 00000E11 1 00000E11 1 00000G11U1 99999H11C1 32999H11 1 00999H11 1 00999H11 1 00999K11 1 00033L11 1 01500M11 1 29640N11 1 00000Q11 1 10204S11 1 00048V11 1 00000W11 1 33002
0057322870999991963110418004+57100+156767FM-12+999999999V0202001N00821004501CN0010001N9-00221-00221100611ADDAY181999GF108991081031004501999999MD1710191+9999MW1861
0076572590999991963061009004+32050+110717FM-12+999999999V0202701N00311090001CN0350001N9+03111+00722100741ADDAY111999GF106991011011008001001081MD1610141+9999MW1031EQDQ01+028043ATOD  
0377999999038581963010721005+33917-080800SAO  +007599999V02031559002652200059N016000599+01395+00505100715ADDGA1999+999999024GA2999+999999999GA3999+999999999GA4999+999999999GD13065+9999993GD20005+9999999GD30005+9999999GD40005+9999999GF106025999999999999999999MA1999999099735EQDN01 00000JPWTH 1QNNE11 1 00307E11 1 00000E11 1 00000E11 1 00000G11U1 99999H11C1 37999H11 1 00999H11 1 00999H11 1 00999K11 1 00041L11 1 01000M11 1 29450N11 1 00000Q11 1 10071S11 1 00057V11 1 00703W11 1 88005
007494999900085196307202330N-19630+134180AUST +0277     V0200235N001059999999N999999999+02085+00105999999ADDAY124999GA1005+999999999GF100995004999999999999999MA1999999097445MW1025
0377999999129581963042500005+29833-090017SAO  +000299999V02011359002652200059N019200599+02335+01505101725ADDGA1999+010674064GA2999+999999004GA3999+999999999GA4999+999999999GD11005+9999993GD20035+9999999GD30005+9999999GD40005+9999999GF103005999999999999999999MA1999999101735EQDN01 00000JPWTH 1QNNE11 1 00100E11 1 00004E11 1 00000E11 1 00000G11U1 99999H11 1 15035H11C1 32999H11 1 00999H11 1 00999K11 1 00059L11 1 01200M11 1 30040N11 1 00000Q11 1 10172S11 1 00074V11 1 00400W11 1 34005
007494999900107196303300530N-35800+137330AUST +0156     V0201805N007759999999N999999999+01565+00305999999ADDAY124999GA1015+003005085GF101995014015003005999999MA1999999100235MW1025
004674754013934196310060800D+31317-092550SAO  +0027KAEX V0209991C000012200019N0112001N9+02021+01851999999ADDAA101000095GF108991999999999999999999MW1001
0057110360999991963052221004+48117+016567FM-12+019399999V0201801N00361220001CN0220001N9+01281+00611101331ADDAY101031GF100991001001999999001001MD1010011+9999MW1021
038899999913877196303141300E+36483-082400SAO  +047799999V02002359002152200059N011200599+00725+00395102135ADDAA101000095GA1999+007624064GA2999+999999999GA3999+999999999GA4999+999999999GD12025+9999999GD20005+9999999GD30005+9999999GD40005+9999999GF102025999999999999999999MA1999999096655EQDN01 00000JPWTH 1QNNE11 1 00202E11 1 00000E11 1 00000E11 1 00000G11U1 99999H11 1 15025H11 1 00999H11 1 00999H11 1 00999K11 1 00039L11 1 00700M11 1 28540N11 1 00000Q11 1 10213S11 1 00045V11 1 00202W11 1 12004
0057258160999991963061209004+61567+156900FM-12+999999999V0201101N00411002401CN0500001N9+00611+00501100471ADDAY151999GF108991081071002501999999MD1310031+9999MW1021
0087220180999991963020512004+69083+033283FM-12+999999999V0200901N00511004501CN0010001N9-00611-00721101001ADDAA106999999AY181999GF108991081091004501999999MD1710241+9999MW1861EQDQ01  00002PRCP06
0383999999137501963110513005+36950-076283SAO  +0010NGU  V02018059002150304849N004800599+00895+00615102055ADDGA1999+030484034GA2999+999999004GA3999+999999999GA4999+999999999GD13075+9999999GD24015+9999999GD30005+9999999GD40005+9999999GF108075999999999999999999MA1999999101935MW1045EQDN01 08200JPWTH 1QNNE11 1 00409E11 1 00601E11 1 00000E11 1 00000G11 1 00100H11 1 23100H11C1 32999H11 1 00999H11 1 00999K11 1 00043L11 1 00300M11 1 30100N11 1 08200Q11 1 10205S11 1 00048V11 1 01009W11 1 55004
008294999900109196307030530N-34730+138650AUST +0026     V02099999999999999999N999999999+01035+00605999999ADDGA1075+015005065GA2015+999999045GF108995074055015005025999MA1999999100445MW1025
0057541340999991963011709004+43583+121200FM-12+999999999V0202901N00821220001CN0170001N9-01111-02281101441ADDAY101031GF100991001001999999001001MD1210111+9999MW1021
0057124350999991963022500004+51733+018083FM-12+014499999V0209991C00001000151CN0001001N9-02001-02111103041ADDAY141999GF109991091999000251999999MD1610011+9999MW1491
0377999999416061963112419005+19283+166650SAO  +0004PWAK V02004559003650061049N024000599+02395+02065101525ADDGA1999+006104084GA2999+999999999GA3999+999999999GA4999+999999999GD13055+9999999GD20005+9999999GD30005+9999999GD40005+9999999GF105055999999999999999999MA1999999101495EQDN01 00000JPWTH 1QNNE11 1 00406E11 1 00000E11 1 00000E11 1 00000G11 1 00020H11 1 11020H11 1 00999H11 1 00999H11 1 00999K11 1 00069L11 1 01500M11 1 29970N11 1 00000Q11 1 10152S11 1 00075V11 1 00606W11 1 22007
0092470080999991963100312004+41783+129650FM-12+009099999V0202301N00211012301CN0005001N9+01281+01111101671ADDAA106001091AA299000391AY121999GF108991051051012501021999KA1999M+01781MD1710031+9999MW1041
0092255030999991963041512004+64750+153833FM-12+999999999V0202701N00211024001CN0100001N9-00281-00281101331ADDAA106075091AA224999999AY171999GF108991081001999999021999KA1999M+00281MD1310071+9999MW1711
0067844350999991963102612004-06017-076950FM-12+083499999V0209991C00001002401CN0050001N9+01891+01781999999ADDAA199000691AY141999GF108991061071002501031999KA1999N+01781MW1101
0269999999230901963051317005+36750-108233SAO  +167799999V02099999000052200059N120000599+01945-00835101605ADDGD13995+9999993GD20995+9999999GD30995+9999999GD40995+9999999GF106025999999999999999999MA1999999083415EQDN01 00000JPWTH 1QNNE11 1 00399E11 1 00099E11 1 00099E11 1 00099G11U1 99999K11 1 00017L11 1 07500M11 1 24630N11 1 00000Q11 1 10160S11 1 00067V11 1 00803W11 1 00000
0082717310999991963101511004+46367-079417SAO  +0369CYYB V0202251N002612200019N0096001N1+01021+00851102441ADDGA1021+999999999GA2021+010509059GF102991999999999999999999MA1999999098001MW1451
0081561440999991963121700004+31833+098633FM-12+320599999V0209991C00001220001CN0500001N9-00891-01611999999ADDAY111999GF106991001001999999001021MA1999999098801MD1110121+9999ME1430709MW1031
0341726395148081963090715003+44467-083367SAO  +0188OSC  V02022559002650070149N0064005N9+01505+01335101555ADDGA1051+007014064GA2081+021344034GD13055+9999999GD24085+9999999GD30995+9999999GD40995+9999999GF108085999999999999999999MA1999999099195MW1055MW2111MW3445EQDN01 07281JPWTH 1QNNE11 1 00406E11 1 00610E11 1 00099E11 1 00099G11 1 00023H11 1 15023H11 1 23070K11 1 00056L11 1 00400M11 1 29290N11 1 07281Q11 1 10155S11 1 00059V11 1 01010W11 1 66005
0078107630999991963091816004+49500+011083SY-SA+031899999V0203501N00211220001CN0150001N1+99999+99999999999ADDAY101011GA1011+012009089GF101991999999999999999999MW1021EQDQ01+000003PRSWM2
0291070881340641963100112003+49233+005683SAO  +0237LEQE V02024859004650051849N0128005N1+01225+00785101631ADDGA1051+004209059GA2081+018009059GD13995+9999999GD24995+9999999GD30995+9999999GD40995+9999999GF108995999999999999999999MA1999999098811MW1051MW2111EQDN01 00000JPWTH 1QNNE11 1 00499E11 1 00699E11 1 00099E11 1 00099G11 1 00017K11 1 00046L11 1 00800N11 1 00000S11 1 00054V11 1 01099W11 1 76009
005994999900247196312152300N-34550+150370AUST +9999     V0200455N001059999999N999999999+02225+01205999999ADDAY114999GA1035+015005095GF103995034035015005999999MW1025
0066476420999991963111706004+35733+139333SAO  +0142RJTY V0201601N001512200019N0192001N9+01441+00061102221ADDGA1001+999999999GF100991999999999999999999MA1999999100511MW1001
0057542920999991963082515004+42900+129517FM-12+017399999V0209991C00001220001CN0100001N9+01721+01611101001ADDAY101031GF101991011041012501001001MD1210081+9999MW1011
009194714099999196311220500N-34650+148030AUST +0330     V0202705N004659999999N999999999+03335-00105999999ADDAY114999GA1005+999999999GA2005+999999999GA3035+999999999GF103995004999999999999015MW1025
0269999999265231963062513005+60567-151250SAO  +002899999V02013559002652200059N112000599+00565+00395101055ADDGD10995+9999999GD20995+9999999GD30995+9999999GD40995+9999999GF100005999999999999999999MA1999999100685EQDN01 00000JPWTH 1QNNE11 1 00099E11 1 00099E11 1 00099E11 1 00099G11U1 99999K11 1 00039L11 1 07000M11 1 29730N11 1 00000Q11 1 10105S11 1 00042V11 1 00000W11 1 44005
005994999900031196312280100N-28530+115500AUST +0283     V0201585N001559999999N999999999+02145+00805999999ADDAY124999GA1005+999999999GF100995004999999999999999MW1025
0187724810232031963081015003+37367-120567SAO  +0060MER  V02029359002652200059N0240005N9+02225+00895101055ADDGA1001+999999999GF100005999999999999999999MA1999999100375MW1001EQDN01 00000JPWTH 1QNNG11U1 99999K11 1 00048L11 1 01500M11 1 29640N11 1 00000Q11 1 10105S11 1 00072V11 1 00000W11 1 78005
0070538980999991963081606004+36133+114350FM-12+999999999V0200401N00211007801CN0100001N9+02721+02391100421ADDAY121999GF108991071011008001071999KA1999N+02501MD1210031+9999MW1011
0377999999931161963031015005+33250-119467SAO  +015399999V02031559011352200059N011200599+01064+00895101684ADDGA1999+001834074GA2999+999999999GA3999+999999999GA4999+999999999GD12035+9999999GD20005+9999999GD30005+9999999GD40005+9999999GF103035999999999999999999MA1999999099864EQDN01 00000JPWTH 1QNNE11 1 00204E11 1 00000E11 1 00000E11 1 00000G11U1 99999H11 1 16006H11 1 00999H11 1 00999H11 1 00999K11 1 00048L11 1 00700M11 1 29490N11 1 00000Q11 1 10168S11 1 00051V11 1 00404W11 1 88022
0057470700999991963110921004+37967+126550FM-12+999999999V0209991C00001220001CN0200001N9-00391-00781102851ADDAY101999GF100991001001999999001001MD1810031+9999MW1021
031372250012919196311290300C+25900-097433SAO  +0010BRO  V02033859004150100649N0240005N1+01615+01225102435ADDAA101000095GA1081+010064064GD14085+9999999GD20995+9999999GD30995+9999999GD40995+9999999GF108085999999999999999999MA1999999102375MW1001EQDN01 00000JPWTH 1QNNE11 1 00610E11 1 00099E11 1 00099E11 1 00099G11 1 00033H11 1 15033K11 1 00054L11 1 01500M11 1 30230N11 1 00000Q11 1 10243S11 1 00061V11 1 01010W11 1 18008
009094999900347196304300500N-41180+146370AUST +0014     V0201355N007759999999N999999999+01845+00805999999ADDAY114999GA1025+012005085GA2035+999999035GF105995024085012005075999MA1999999101425MW1015
037870261026411196304290300C+64817-147867SAO  +0134FAI  V02099999000052200059N1280005N1+01175-00615100755ADDAA101000095GA1021+018294084GA2999+999999999GA3999+999999999GD12025+9999999GD22005+9999999GD30005+9999999GD40005+9999999GF102025999999999999999999MA1999999099055MW1001EQDN01 00000JPWTH 1QNNE11 1 00202E11 1 00200E11 1 00000E11 1 00000G11U1 99999H11 1 11060H11C1 37999H11 1 00999H11 1 00999K11 1 00021L11 1 08000M11 1 29250N11 1 00000Q11 1 10075S11 1 00053V11 1 00202W11 1 00000
0057592870999991963041421004+23167+113333FM-12+001899999V0209991C00001012301CN0200001N9+02111+02001100781ADDAY121999GF107991071051012501999999MD1610081+9999MW1031
0243471410432191963061421002+35900+126617SAO  +001099999V02011359002150243849N011200599+01835+01725100985ADDGD14995+9999999GD20995+9999999GD30995+9999999GD40995+9999999GF108995999999999999999999EQDN01 00000JPWTH 1QNNE11 1 00699E11 1 00099E11 1 00099E11 1 00099G11 1 00080K11 1 00063L11 1 00700N11 1 00000Q11 1 10098S11 1 00065V11 1 01099W11 1 34004
0082476600999991963071312004+35700+139400SAO  +0098RJTC V0201581N002112200019N0080001N1+02241+02021101041ADDGA1021+009009059GA2021+042009039GF102991999999999999999999MA1999999099901MW1051
0057330080999991963082312004+52117+023683FM-12+014499999V0202901N00621007801CN0200001N9+01781+00891100641ADDAY121999GF106991061031008001001001MD1410001+9999MW1011
038899999913733196308092200E+37333-079200SAO  +0281LYH  V02033859005752200059N020800599+03065+01335100975ADDAA101000095GA1999+999999084GA2999+999999004GA3999+999999999GA4999+999999999GD11005+9999993GD20025+9999999GD30005+9999999GD40005+9999999GF102015999999999999999999MA1999999097705EQDN01 00000JPWTH 1QNNE11 1 00100E11 1 00002E11 1 00000E11 1 00000G11U1 99999H11 1 11999H11C1 32999H11 1 00999H11 1 00999K11 1 00056L11 1 01300M11 1 28850N11 1 00000Q11 1 10097S11 1 00087V11 1 00201W11 1 18011
0269999999038491963071515005+37083-084083SAO  +036899999V02018059003652200059N019200599+02445+01945101415ADDGD12995+9999999GD21995+9999993GD30995+9999999GD40995+9999999GF104025999999999999999999MA1999999097165EQDN01 00000JPWTH 1QNNE11 1 00299E11 1 00199E11 1 00099E11 1 00099G11U1 99999K11 1 00067L11 1 01200M11 1 28690N11 1 00000Q11 1 10141S11 1 00076V11 1 00502W11 1 55007
0104740430999991963112405004+65283-126800SAO  +0064CYVQ V0202701N009312200019N0048001N1-03311-03531102871ADDGA1011+003309079GA2021+030009049GA3011+075009009GF102991999999999999999999MA1999999102001MW1451MW2761
0296999999931011963010912005+33683-117717SAO  +011699999V02004559001050030549N024000599+01004+00945101494ADDGA1999+003054154GD14085+9999999GD20995+9999999GD30995+9999999GD40995+9999999GF108085999999999999999999MA1999999100144EQDN01 00000JPWTH 1QNNE11 1 00610E11 1 00099E11 1 00099E11 1 00099G11 1 00010H11 1 17010K11 1 00049L11 1 01500M11 1 29570N11 1 00000Q11 1 10149S11 1 00050V11 1 01010W11 1 22002
0057370180999991963110909004+44100+039067FM-12+999999999V0201801N00311220001CN0500001N9+01891+00611101711ADDAY121031GF107991001001999999001021MD1210041+9999MW1021
0081574260999991963041018004+30683+107650FM-12+051699999V0201401N00101220001CN0150001N9+01281+01221101781ADDAA106001091AY161999GF108991001001999999071999KA1999M+01781MD1010001+9999MW1601
004672256013959196306150100A+31617-097217SAO  +0155ACT  V0201351N005112200019N0240001N1+03411+01571999999ADDAA101000095GF102991999999999999999999MW1001
0057505270999991963020621004+49150+119667FM-12+067799999V0201801N00311220001CN0270001N9-03111-03391103821ADDAY101999GF100991001001999999001001MD1710031+9999MW1021
0057228370999991963061103004+61017+036450FM-12+005999999V0201401N00101030001CN0200001N9+00721+00221100821ADDAY121999GF107991031031012501031001MD1710081+9999MW1031
0377999999416061963021802005+19283+166650SAO  +0004PWAK V02006859006752200059N024000599+02725+02005101715ADDGA1999+006104084GA2999+018294064GA3999+999999999GA4999+999999999GD12025+9999999GD22015+9999999GD30005+9999999GD40005+9999999GF102025999999999999999999MA1999999101695EQDN01 00000JPWTH 1QNNE11 1 00203E11 1 00201E11 1 00000E11 1 00000G11U1 99999H11 1 11020H11 1 15060H11 1 00999H11 1 00999K11 1 00068L11 1 01500M11 1 30030N11 1 00000Q11 1 10171S11 1 00081V11 1 00303W11 1 32013
0377999999931051963083018005+33433-112367SAO  +029299999V02036059003152200059N040000599+02784+02225101134ADDGA1999+018294094GA2999+030484034GA3999+999999024GA4999+999999999GD12015+9999999GD22025+9999999GD34065+9999999GD40005+9999999GF108075999999999999999999MA1999999097834EQDN01 00000JPWTH 1QNNE11 1 00201E11 1 00202E11 1 00607E11 1 00000G11C1 99999H11 1 18060H11 1 23100H11C1 37999H11 1 00999K11 1 00072L11 1 02500M11 1 28890N11 1 00000Q11 1 10113S11 1 00082V11 1 01009W11 1 11006
0100248070999991963012703004+61333+100317FM-12+999999999V0203201N00211220001CN0200001N9-02781-03001999999ADDAA199000091AY111999GF101991001001999999001011HL10009IA2999-03789KA1999N-02781MD1310171+9999MW1011
0291723815231611963031622003+34867-116783SAO  +0588DAG  V02009059002650152449N0400005N1+00895-00065100725ADDGD12995+9999999GD24995+9999999GD30995+9999999GD40995+9999999GF108085999999999999999999MA1999999093945MW1615EQDQ01    003PRSWM1N01 02000JPWTH 1QNNE11 1 00299E11 1 00699E11 1 00099E11 1 00099G11 1 00050K11 1 00031L11 1 02500M11 1 27740N11 1 02000Q11 1 10072S11 1 00048V11 1 01010W11 1 33005
009094637099999196312112200N-30780+121470AUST +0360YPKG V0201135N004659999999N999999999+01965+00805999999ADDAY124999GA1005+999999999GA2025+999999045GF102995004999999999035999MA1999999096945MW1025
0275999999242841963082016005+43417-124250SAO  +000999999V02013559002652200059N008000599+01505+01175102345ADDGD12995+9999999GD20995+9999999GD30995+9999999GD40995+9999999GF102025999999999999999999MA1999999102275MW1045EQDN01 08000JPWTH 1QNNE11 1 00299E11 1 00099E11 1 00099E11 1 00099G11U1 99999K11 1 00053L11 1 00500M11 1 30200N11 1 08000Q11 1 10234S11 1 00059V11 1 00303W11 1 44005
0082467690999991963061206004+24867+121233SAO  +0241RCDI V0203601N001510105019N0112001N1+02461+02131101101ADDGA1021+005409079GA2081+010509009GF108991999999999999999999MA1999999098311MW1001
039472528014733196308030200C+42933-078733SAO  +0215BUF  V02024859005250335349N0160005N1+02115+01945101605ADDAA101000095GA1071+033009064GA2999+033534034GA3999+999999999GA4999+999999999GD13005+9999999GD20075+9999999GD30005+9999999GD40005+9999999GF107075999999999999999999MA1999999099095MW1001EQDN01 00000JPWTH 1QNNE11 1 00400E11 1 00009E11 1 00000E11 1 00000G11 1 00110H11 1 15999H11 1 23110H11 1 00999H11 1 00999K11 1 00067L11 1 01000M11 1 29260N11 1 00000Q11 1 10160S11 1 00070V11 1 00909W11 1 76010
0035747750138461963060622004+30067-085583SAO  +0004KPAM V0202501N003612200019N0160001N9+02851+02131999999ADDGF107991999999999999999999MW1001
0187747020231101963070403003+36333-119950SAO  +0073NLC  V02002359006252200059N0240005N1+02785+00445101145ADDGA1001+999999999GF100005999999999999999999MA1999999100305MW1001EQDN01 00000JPWTH 1QNNG11U1 99999K11 1 00040L11 1 01500M11 1 29620N11 1 00000Q11 1 10114S11 1 00082V11 1 00000W11 1 12012
0011478180999991963021209004+32733+130250FM-12+085299999V0203201N005119999999N9999999N9-00441+99999999999ADDAY101999
0059968810999991963032306004-07617+111517FM-12+011099999V0203401N00571006001CN0200001N9+03111+02391100781ADDAY121999GA1051+006009089GF107991051021004501041011MW1051
0066488870999991963011003004+10900+108067SAO  +0065VVPT V0201581N002612200019N0320001N1+02631+01691101241ADDGA1031+078009999GF102991999999999999999999MA1999999101151MW1001
0029035963999991963121607004+52117+001433SAO  +0030EGVJ V0203601N001010001519N0001001N9+00111+00061999999ADDGF108991999999999999999999
031399999924227196312010600E+46967-122900SAO  +006699999V02099999000050003049N000200599+00445+00395102585ADDAA101000095GA1999+000304104GD15085+9999999GD20995+9999999GD30995+9999999GD40995+9999999GF108085999999999999999999MA1999999101835MW1455EQDN01 07000JPWTH 1QNNE11 1 00710E11 1 00099E11 1 00099E11 1 00099G11 1 00001H11 1 45001K11 1 00039L11 1 00012M11 1 30070N11 1 07000Q11 1 10258S11 1 00040V11 1 01010W11 1 00000
0377999999139351963032011005+31383-092300SAO  +0033ESF  V02002359003152200059N019200599+01285+00225101855ADDGA1999+999999004GA2999+999999999GA3999+999999999GA4999+999999999GD12025+9999999GD20005+9999999GD30005+9999999GD40005+9999999GF102025999999999999999999MA1999999101425EQDN01 00000JPWTH 1QNNE11 1 00203E11 1 00000E11 1 00000E11 1 00000G11U1 99999H11C1 32999H11 1 00999H11 1 00999H11 1 00999K11 1 00036L11 1 01200M11 1 29950N11 1 00000Q11 1 10185S11 1 00055V11 1 00302W11 1 12006
038899999914941196310052300E+41983-097433SAO  +0471OFK  V02020359009352200059N024000599+03115+00335101525ADDAA101000095GA1999+999999024GA2999+999999999GA3999+999999999GA4999+999999999GD13075+9999993GD20005+9999999GD30005+9999999GD40005+9999999GF107035999999999999999999MA1999999096075EQDN01 00000JPWTH 1QNNE11 1 00309E11 1 00000E11 1 00000E11 1 00000G11U1 99999H11C1 37999H11 1 00999H11 1 00999H11 1 00999K11 1 00038L11 1 01500M11 1 28370N11 1 00000Q11 1 10152S11 1 00088V11 1 00904W11 1 56018
038899999913876196305102200E+33567-086750SAO  +019299999V02022559008852200059N016000599+02895+01835101575ADDAA101000095GA1999+013724084GA2999+999999004GA3999+999999999GA4999+999999999GD12035+9999999GD22015+9999999GD30005+9999999GD40005+9999999GF104045999999999999999999MA1999999099365EQDN01 00000JPWTH 1QNNE11 1 00204E11 1 00201E11 1 00000E11 1 00000G11U1 99999H11 1 11045H11C1 32999H11 1 00999H11 1 00999K11 1 00065L11 1 01000M11 1 29340N11 1 00000Q11 1 10157S11 1 00084V11 1 00505W11 1 66017
0092374960999991963021418004+41650+041633FM-12+999999999V0201801N00311012301CN0100001N9+01221+01001999999ADDAA106031091AA299008091AY181061GF108991081031012501999999KA1999M+01221MD1110131+9999MW1811
017699999924023196304190600E+41133-100683SAO  +0846LBF  V02029359007752200059N024000599+00675-00945099855ADDAA101000095GF100005999999999999999999MA1999999090215EQDN01 00000JPWTH 1QNNG11U1 99999K11 1 00015L11 1 01500M11 1 26640N11 1 00000Q11 1 09985S11 1 00044V11 1 00000W11 1 78015
008294287599999196310081100N-16920+145770AUST +0007YBCS V0201805N003659999999N999999999+02105+01805999999ADDGA1015+004505085GA2055+006005065GF106995014025004505999999MA1999999101625MW1155
0057577310999991963021312004+27933+108217FM-12+999999999V0203201N00311015001CN0150001N9+00781-00111102171ADDAY191999GF108991081051017501999999MD1310161+9999MW1021
012294576099999196301282000N-27470+153030AUST +0074     V0202255N003159999999N999999999+02135+02005999999ADDAY144999GA1025+007505085GA2015+012005065GA3005+999999999GA4035+999999999GF106995024025007505999015MA1999999100765MW1045
034099999925624196305231100E+55200-162717SAO  +0030CDB  V02024859006750091449N016000599+00285+00115101405ADDAA101000095GA1999+003054134GA2999+009144064GD12025+9999999GD24065+9999999GD30995+9999999GD40995+9999999GF108085999999999999999999MA1999999101025MW1615EQDN01 02000JPWTH 1QNNE11 1 00203E11 1 00607E11 1 00099E11 1 00099G11 1 00030H11 1 13010H11 1 15030K11 1 00034L11 1 01000M11 1 29830N11 1 02000Q11 1 10140S11 1 00037V11 1 01010W11 1 76013
0296999999242401963030906005+48383-124733SAO  +0035TTI  V02022559004150015249N019200599+00565+00445102315ADDGA1999+001524074GD14085+9999999GD20995+9999999GD30995+9999999GD40995+9999999GF108085999999999999999999MA1999999102005EQDN01 00000JPWTH 1QNNE11 1 00610E11 1 00099E11 1 00099E11 1 00099G11 1 00005H11 1 16005K11 1 00040L11 1 01200M11 1 30120N11 1 00000Q11 1 10231S11 1 00042V11 1 01010W11 1 66008
0057301270999991963102821004+58317+105683FM-12+999999999V0202701N00211007801CN0200001N9-00221-00281101821ADDAY181999GF107991071091008001001001MD1210261+9999MW1851
0057484070999991963022506004+15233+104867FM-12+012599999V0209991C00001220001CN0040001N9+03111+01611101251ADDAY141999GF107991001001999999001071MD1999999-0131MW1051
039472745014913196308080000C+46833-092183SAO  +0434DLH  V02029359003652200059N0240005N9+02725+01395101825ADDAA101000095GA1011+018294084GA2999+999999999GA3999+999999999GA4999+999999999GD12015+9999999GD20005+9999999GD30005+9999999GD40005+9999999GF101015999999999999999999MA1999999096755MW1001EQDN01 00000JPWTH 1QNNE11 1 00201E11 1 00000E11 1 00000E11 1 00000G11U1 99999H11 1 11060H11 1 00999H11 1 00999H11 1 00999K11 1 00057L11 1 01500M11 1 28570N11 1 00000Q11 1 10182S11 1 00081V11 1 00101W11 1 78007
038899999913748196301101100E+34267-077917SAO  +0009ILM  V02020359002652200059N014400599+00565+00335101735ADDAA101000095GA1999+048774034GA2999+999999004GA3999+999999999GA4999+999999999GD12025+9999999GD22015+9999999GD30005+9999999GD40005+9999999GF103025999999999999999999MA1999999101595EQDN01 00000JPWTH 1QNNE11 1 00203E11 1 00201E11 1 00000E11 1 00000G11U1 99999H11 1 23160H11C1 32999H11 1 00999H11 1 00999K11 1 00038L11 1 00900M11 1 30000N11 1 00000Q11 1 10173S11 1 00042V11 1 00403W11 1 56005
0066719130999991963041021004+58750-094067SAO  +0029CYYQ V0200451N003110009019N0008001N1-00811-00921103161ADDGA1091+000909999GF109991999999999999999999MA1999999102711MW1451
0035726225047421963032602004+44650-073450SAO  +0075PBG  V0209991C000010300019N0240001N9+00501+00221999999ADDGF108991999999999999999999MW1001
0035081605999991963050208004+41667-001017SAO  +0263LEZG V0203201N006212200019N0560001N9+01301+00461999999ADDGF108991999999999999999999MW1001
028099999924259196302102100E+41783-122467SAO  +0805SIY  V02099999000050365849N072000599+01395+01005100455ADDAA101000095GD12995+9999999GD23995+9999999GD30995+9999999GD40995+9999999GF106045999999999999999999MA1999999094585EQDN01 00000JPWTH 1QNNE11 1 00299E11 1 00499E11 1 00099E11 1 00099G11 1 00120K11 1 00050L11 1 04500M11 1 27930N11 1 00000Q11 1 10045S11 1 00057V11 1 00705W11 1 00000
007494403099999196310070100N-28800+114700AUST +0034YPGN V0201585N006259999999N999999999+01835+01305999999ADDAY154999GA1005+999999999GF100995004999999999999999MA1999999101575MW1055
0230711060942341963102112005+49083-125767SAO  +0024CYAZ V02018059018050024449N003200599+01445+01395099495ADDGA1999+002444074GD19085+9999999GF108085999999999999999999MA1999999099195MW1455MW2615EQDN01 02070JPWTH 1QNNE11 1 09910G11 1 00008H11 1 16008K11 1 00057L11 1 00200M11 1 29290N11 1 02070Q11 1 09949S11 1 00058V11 1 01010W11 1 55035
0057518550999991963090318004+38133+085533FM-12+096699999V0200401N00211220001CN0040001N9+01781-00221100921ADDAY111999GF199999001001999999031021MD1210081+9999MW1061
0112987540999991963081618004+07067+125600SAO  +001999999V0203601N000510360019N0320001N1+02351+02301101231ADDGA1011+007509089GA2051+036009049GA3061+120009029GF107991999999999999999999MA1999999100981MD1710261+9999MW1001
0111207440999991963041506004+72383+052733FM-12+001699999V0201401N01801004501CN0005001N9-00781-01111100721ADDAA106999999AA299005091AY171999GF108991081001004501021999KA1999N-01221MD1710091+9999MW1731EQDQ01  00002PRCP06
0323725196147171963111418003+43233-075400SAO  +0157RME  V02029359003650036649N0112005N9+00565+00285100975ADDGA1061+003664074GA2031+021344064GD13065+9999999GD24035+9999999GD30995+9999999GD40995+9999999GF108085999999999999999999MA1999999099055EQDN01 00000JPWTH 1QNNE11 1 00408E11 1 00604E11 1 00099E11 1 00099G11 1 00012H11 1 16012H11 1 15070K11 1 00037L11 1 00700M11 1 29250N11 1 00000Q11 1 10097S11 1 00042V11 1 01010W11 1 78007
038899999913748196309061300E+34267-077900SAO  +0009ILM  V02004559003152200059N016000599+02065+01785101565ADDAA101000095GA1999+003054064GA2999+030484034GA3999+999999004GA4999+999999999GD12025+9999999GD22025+9999999GD33025+9999999GD40005+9999999GF106055999999999999999999MA1999999101425EQDN01 00000JPWTH 1QNNE11 1 00203E11 1 00202E11 1 00402E11 1 00000G11C1 99999H11 1 15010H11 1 23100H11C1 32999H11 1 00999K11 1 00064L11 1 01000M11 1 29950N11 1 00000Q11 1 10156S11 1 00069V11 1 00706W11 1 22006
033499999925624196305071200E+55200-162717SAO  +0030CDB  V02024859007750091449N016000599+00335+00175101915ADDAA101000095GA1999+004574134GA2999+009144064GD12045+9999999GD24045+9999999GD30995+9999999GD40995+9999999GF108085999999999999999999MA1999999101525EQDN01 00000JPWTH 1QNNE11 1 00205E11 1 00605E11 1 00099E11 1 00099G11 1 00030H11 1 13015H11 1 15030K11 1 00035L11 1 01000M11 1 29980N11 1 00000Q11 1 10191S11 1 00038V11 1 01010W11 1 76015
007772250012919196310261000D+25900-097433SAO  +0006BRO  V0201581N001512200019N0160001N1+02241+02071101491ADDAA101000095GA1999+006009999GF100991999999999999999999MA1999999101421MW1001
0232725196147171963040922003+43233-075400SAO  +0157RME  V02033859002652200059N0240005N9+00785-00445999999ADDGD12995+9999999GD24995+9999993GD30995+9999999GD40995+9999999GF108995999999999999999999EQDN01 00000JPWTH 1QNNE11 1 00299E11 1 00599E11 1 00099E11 1 00099G11U1 99999K11 1 00024L11 1 01500N11 1 00000S11 1 00046V11 1 01099W11 1 18005
033499999903820196311230500E+33367-081967SAO  +0045AGS  V02013559003150076249N012800599+01785+01725102065ADDAA101000095GA1999+002444074GA2999+007624064GD12025+9999999GD24085+9999999GD30995+9999999GD40995+9999999GF108085999999999999999999MA1999999101525EQDN01 00000JPWTH 1QNNE11 1 00203E11 1 00610E11 1 00099E11 1 00099G11 1 00025H11 1 16008H11 1 15025K11 1 00063L11 1 00800M11 1 29980N11 1 00000Q11 1 10206S11 1 00064V11 1 01010W11 1 44006
0269999999265231963120309005+60567-151250SAO  +002899999V02004559003652200059N024000599+00335+00005098685ADDGD12995+9999999GD23995+9999993GD30995+9999999GD40995+9999999GF106035999999999999999999MA1999999098315EQDN01 00000JPWTH 1QNNE11 1 00299E11 1 00399E11 1 00099E11 1 00099G11U1 99999K11 1 00032L11 1 01500M11 1 29030N11 1 00000Q11 1 09868S11 1 00038V11 1 00804W11 1 22007
0009167160999991963010806004+37900+023733SAO  +0033LGAT V0201301N005110270019N0128001N9+01631+01411101191ADDMW1001
0072719240999991963031502004+74717-094983SAO  +0064CYRB V0203151N006210018019N0016001N1-03091-03421101561ADDGA1081+001809079GF108991999999999999999999MA1999999100641MW1451MW2761
0011476770999991963091703004+34117+139517FM-12+003799999V0202701N003119999999N9999999N9+02331+99999999999ADDAY101999
0043592240999991963060606004+23600+107117FM-12+011299999V0200701N00411220001CN0280001N9+02501+02221100311ADDAY111999GF103991021021008001001021MW1031
0057306220999991963121321004+53967+105867FM-12+055499999V0209991C00001030001CN0040001N9-01001-01221102841ADDAY121999GF108991021051012501011999MD1810041+9999MW1011
0057470580999991963060421004+39017+125650FM-12+002999999V0209991C00001220001CN0100001N9+01391+01001100941ADDAY101999GF100991001001999999001001MD1210031+9999MW1021
0066723087937351963092906004+37133-076617SAO  +0004FAF  V0201401N003110090019N0112001N9+01571+01411100441ADDGA1081+009009059GF108991999999999999999999MA1999999100371MW1611
0057379890999991963101321004+38450+048883FM-12-002199999V0203201N00101004501CN0040001N9+01781+01781999999ADDAY161031GF108991071071004501021999MD1810031+9999MW1631
0377999999137101963092318005+38833-077017SAO  +001899999V02033859007252200059N024000599+01565-00115102845ADDGA1999+039624034GA2999+999999999GA3999+999999999GA4999+999999999GD10005+9999999GD20005+9999999GD30005+9999999GD40005+9999999GF100005999999999999999999MA1999999102745EQDN01 00000JPWTH 1QNNE11 1 00000E11 1 00000E11 1 00000E11 1 00000G11U1 99999H11 1 23130H11 1 00999H11 1 00999H11 1 00999K11 1 00030L11 1 01500M11 1 30340N11 1 00000Q11 1 10284S11 1 00060V11 1 00000W11 1 18014
0066741200999991963111802004+54417-110283SAO  +0544CYOD V0203601N006710039019N0080001N1-01421-01701101341ADDGA1081+003909079GF108991999999999999999999MA1999999094621MW1711
0377999999939011963040622005+32733-096967SAO  +0150NBE  V02036059003152200059N016000599+01894+00895101164ADDGA1999+010674064GA2999+999999999GA3999+999999999GA4999+999999999GD12045+9999999GD20005+9999999GD30005+9999999GD40005+9999999GF104045999999999999999999MA1999999099464EQDN01 00000JPWTH 1QNNE11 1 00205E11 1 00000E11 1 00000E11 1 00000G11U1 99999H11 1 15035H11 1 00999H11 1 00999H11 1 00999K11 1 00048L11 1 01000M11 1 29370N11 1 00000Q11 1 10116S11 1 00066V11 1 00505W11 1 11006
0238780160136011963121822003+32367-064683SAO  +0006TXKF V02013559007750152449N0144005N9+01395+01175999999ADDGD12995+9999999GD23995+9999999GD34995+9999999GD40995+9999999GF108995999999999999999999MW1001EQDN01 00000JPWTH 1QNNE11 1 00299E11 1 00499E11 1 00699E11 1 00099G11 1 00050K11 1 00053L11 1 00900N11 1 00000S11 1 00057V11 1 01099W11 1 44015
0057239040999991963121400004+60433+051000FM-12+999999999V0201601N00211024001CN0100001N9-02111-02391100591ADDAY171999GF108991081001999999011999MD1710171+9999MW1711
005994999900320196305170500N-37600+144200AUST +0442     V0201355N002659999999N999999999+00975+00705999999ADDAY104999GA1085+999999085GF108995084085999999999999MW1005
0057488200999991963051218004+21050+105867FM-12+000699999V0201101N00311002401CN0200001N9+02611+02501100611ADDAY191999GF106991061011002501999999MD1810021+9999MW1021
0101802590999991963060709004+03433-076383FM-12+096499999V0201401N00261060001CN0100001N9+01831+01721999999ADDGA1999+009009019GA2061+060009029GF199999011051008001001051MA1999999091021MW1101EQDQ01+000032SCOTCV
0082719240999991963082803004+74717-094983SAO  +0064CYRB V0202701N007210033019N0160001N1-00091-00311100991ADDGA1031+001209079GA2041+003309059GF107991999999999999999999MA1999999100171MW1001
0056846300999991963032612004-12050-077033FM-12+013799999V0201601N00101002401CN0120001N9+02001+01721101171ADDAY121999GF107991071051002501001001KA1999N+01721MW1021
0035703050999991963110520004+58650-162067SAO  +0168PAEH V0201401N004612200019N0320001N9-01031-01641999999ADDGF102991999999999999999999MW1001
0083486030999991963043000004+06200+100417FM-12+000599999V0200201N00051220001CN0200001N9+02501+02391100971ADDAA124004091AY111999GA1041+090009029GF104991001001999999001081KA1999N+02391MW1021
0043636860999991963042115004+00517+035283FM-12+208499999V0202301N00051007501CN0450001N9+01781+01501999999ADDAY121999GF107991051051008001071001MW1151
0171700260275021963052512003+71300-156783SAO  +0009BRW  V02027059006752200059N0240005N1+00005-00175102105ADDGF100005999999999999999999MA1999999102035MW1001EQDN01 00000JPWTH 1QNNG11U1 99999K11 1 00029L11 1 01500M11 1 30130N11 1 00000Q11 1 10210S11 1 00032V11 1 00000W11 1 77013
036799999912834196306262200E+29183-081050SAO  +0009DAB  V02018059001550457249N024000599+02445+02285101665ADDAA101000095GA1999+001834074GA2999+999999084GA3999+045724034GD12015+9999999GD22005+9999999GD34075+9999999GD40995+9999999GF108085999999999999999999MA1999999101525MW1615EQDN01 02000JPWTH 1QNNE11 1 00201E11 1 00200E11 1 00609E11 1 00099G11 1 00150H11 1 16006H11 1 11999H11 1 23150K11 1 00073L11 1 01500M11 1 29980N11 1 02000Q11 1 10166S11 1 00076V11 1 01010W11 1 55003
0075969330999991963021309004-07217+112717FM-12+000399999V0202901N01031030001CN0190001N9+02781+02281100441ADDAY121999GA1021+006009059GA2081+030009049GF108991021051008001021999MW1021
0232999999147071963073022005+41333-072050SAO  +0003GON  V02024859005252200059N024000599+02615+01895999999ADDGD12995+9999999GD20995+9999999GD30995+9999999GD40995+9999999GF103995999999999999999999EQDN01 00000JPWTH 1QNNE11 1 00299E11 1 00099E11 1 00099E11 1 00099G11U1 99999K11 1 00066L11 1 01500N11 1 00000S11 1 00079V11 1 00499W11 1 76010
0060718160999991963022704004+53317-060433SY-SA+0044YYR  V0202301N003112200019N0320001N9-02371-02871100651ADDGA1001+999999999GF100991999999999999999999MA1999999100071
009094620099999196301040100N-32720+116050AUST +0268     V0201355N002659999999N999999999+01895+01105999999ADDAY124999GA1005+999999999GA2065+999999035GF106995004999999999065999MA1999999098225MW1035
0050719240999991963121611004+74717-094983SAO  +0064CYRB V0203381N002112200019N0160001N1-03701-04251102411ADDGF100991999999999999999999MA1999999101391MW1001
0232999999340621963111721005+48817+007200SAO  +0313LFQP V02024859012950213449N012800599+01065+00225999999ADDGD13995+9999999GD20995+9999999GD30995+9999999GD40995+9999999GF106995999999999999999999EQDN01 00000JPWTH 1QNNE11 1 00499E11 1 00099E11 1 00099E11 1 00099G11 1 00070K11 1 00036L11 1 00800N11 1 00000S11 1 00051V11 1 00899W11 1 76025
0244999999047831963091204005+99999+999999SAO  +999999999V02020359003152200059N008000599+01945+01785999999ADDGD11995+9999993GD20995+9999999GD30995+9999999GD40995+9999999GF102995999999999999999999MW1055MW2445EQDN01 07281JPWTH 1QNNE11 1 00199E11 1 00099E11 1 00099E11 1 00099G11U1 99999K11 1 00064L11 1 00500N11 1 07281S11 1 00067V11 1 00299W11 1 56006
038899999924131196308152300E+43567-116217SAO  +087199999V02031559006752200059N048000599+03115+00565101455ADDAA101000095GA1999+999999034GA2999+999999004GA3999+999999999GA4999+999999999GD13005+9999993GD20065+9999999GD30005+9999999GD40005+9999999GF106025999999999999999999MA1999999091645EQDN01 00000JPWTH 1QNNE11 1 00300E11 1 00007E11 1 00000E11 1 00000G11U1 99999H11 1 23999H11C1 32999H11 1 00999H11 1 00999K11 1 00042L11 1 03000M11 1 27060N11 1 00000Q11 1 10145S11 1 00088V11 1 00703W11 1 88013
0081537640999991963061109004+37517+111167FM-12+999999999V0202901N00311220001CN0350001N9+03111-00221100651ADDAY101999GF101991011091008001001001MA1999999098801MD1710091+9999ME1314709MW1031
0056486020999991963060512004+05467+100383FM-12+000499999V0202001N002619999999N0400001N9+03001+02501100801ADDAY121999GF106991011051012501031081KA1999M+03221MW1021
0035723306138251963021419004+33633-088450SAO  +0062CBM  V0202701N005112200019N0160001N9+00961-00421999999ADDGF100991999999999999999999MW1001
0275702910264121963010419003+62950-141933SAO  +0524ORT  V02011359002150152449N0240005N1-02835-03175100395ADDGD14995+9999999GD20995+9999999GD30995+9999999GD40995+9999999GF108085999999999999999999MA1999999093435MW1715EQDN01 04000JPWTH 1QNNE11 1 00699E11 1 00099E11 1 00099E11 1 00099G11 1 00050K11 1-00025L11 1 01500M11 1 27590N11 1 04000Q11 1 10039S11 1-00019V11 1 01010W11 1 34004
0041747770038521963121414004+30417-086683SAO  +0014HRT  V0203601N007210009019N0024001N9+00461+00461999999ADDGF108991999999999999999999MW1451MW2511
0035744910147031963090908004+42200-072533SAO  +0075CEF  V0209991C000012200019N0006001N9+01241+01191999999ADDGF102991999999999999999999MW1111
0072620590999991963092415004+32733+022633FM-12+000999999V0203301N00721220001CN0200001N9+02391+01611999999ADDAY101999GF100991001001999999001001MA1999999101751MD1810031+9999MW1011
038899999913957196303131700E+32467-093817SAO  +0077SHV  V02022559002652200059N024000599+02565+01175101915ADDAA101000095GA1999+036584184GA2999+999999004GA3999+999999999GA4999+999999999GD10005+9999999GD20005+9999999GD30005+9999999GD40005+9999999GF100005999999999999999999MA1999999100985EQDN01 00000JPWTH 1QNNE11 1 00000E11 1 00000E11 1 00000E11 1 00000G11U1 99999H11 1 28120H11C1 32999H11 1 00999H11 1 00999K11 1 00053L11 1 01500M11 1 29820N11 1 00000Q11 1 10191S11 1 00078V11 1 00000W11 1 66005
0377999999414061963042400005+13483+144800SAO  +0076PGUM V02004559006250487749N019200599+02785+02445100995ADDGA1999+004274084GA2999+048774034GA3999+999999004GA4999+999999999GD12035+9999999GD23025+9999999GD34025+9999999GD40005+9999999GF108065999999999999999999MA1999999099935EQDN01 00000JPWTH 1QNNE11 1 00204E11 1 00403E11 1 00603E11 1 00000G11 1 00160H11 1 11014H11 1 23160H11C1 32999H11 1 00999K11 1 00076L11 1 01200M11 1 29510N11 1 00000Q11 1 10099S11 1 00082V11 1 01008W11 1 22012
034099999923152196305231700E+34200-118367SAO  +0221BUR  V02011359003650033549N006400599+01505+01115101665ADDAA101000095GA1999+003354074GA2999+010674074GD13055+9999999GD24085+9999999GD30995+9999999GD40995+9999999GF108085999999999999999999MA1999999099095MW1045EQDN01 08200JPWTH 1QNNE11 1 00406E11 1 00610E11 1 00099E11 1 00099G11 1 00011H11 1 16011H11 1 16035K11 1 00052L11 1 00400M11 1 29260N11 1 08200Q11 1 10166S11 1 00059V11 1 01010W11 1 34007
0103204760999991963022615004+75400+088667FM-12+999999999V0203401N00621220001CN0100001N9-03391-03611099721ADDAA106999999AY171999GF103991999001999999031001MD1210131+9999MW1711EQDQ01+000022SCOTLCQ02  00002PRCP06
0076343360999991963032915004+49933+040567FM-12+008399999V0200501N00411004501CN0040001N9+00221+00111101091ADDAY161999GF108991999071004501021999MD1710061+9999MW1611EQDQ01+000082SCOTLC
