0377999999416061964083016005+19283+166650SAO  +0004PWAK V0201405N003652200059N024000599+02675+02285101245ADDGA1999+006104084GA2999+045724034GA3999+999999024GA4999+999999999GD12025+9999999GD22015+9999999GD32025+9999999GD40005+9999999GF103025999999999999999999MA1999999101225EQDN01 00000JPWTH 1QNNE11 1 00202E11 1 00201E11 1 00202E11 1 00000G11U1 99999H11 1 11020H11 1 23150H11C1 37999H11 1 00999K11 1 00073L11 1 01500M11 1 29890N11 1 00000Q11 1 10124S11 1 00080V11 1 00403X11 1 14007
0269999999139731964100203005+30500-099767SAO  +052199999V02099959000050121949N024000599+02115+01835101145ADDGD13995+9999999GD20995+9999999GD30995+9999999GD40995+9999999GF107065999999999999999999MA1999999095235EQDN01 00000JPWTH 1QNNE11 1 00499E11 1 00099E11 1 00099E11 1 00099G11 1 00040K11 1 00065L11 1 01500M11 1 28120N11 1 00000Q11 1 10114S11 1 00070V11 1 00908X11 1 00000
007494446099999196405080700N-29680+121030AUST +0427     V0200905N001059999999N999999999+02505+00805999999ADDAY124999GA1005+999999999GF100995004999999999999999MA1999999096855MW1005
0269999999047511964041108005+41800-078633SAO  +0646BFD  V02099959000052200059N016000599-00445-00505102425ADDGD10995+9999999GD20995+9999999GD30995+9999999GD40995+9999999GF100005999999999999999999MA1999999094555EQDN01 00000JPWTH 1QNNE11 1 00099E11 1 00099E11 1 00099E11 1 00099G11U1 99999K11 1 00023L11 1 01000M11 1 27920N11 1 00000Q11 1 10242S11 1 00024V11 1 00000X11 1 00000
0043489300999991964092815004+19883+102133FM-12+030499999V0209991C000019999999N0050001N9+02391+02391100911ADDAY121999GF107991999999999999999999MW1021
0015106870999991964100709004+49700-011950SAO  +0418EDIC V0201101N002110012019N0012001N9+00911+00911101921ADDMW1041MW2451
031372745014913196411040600C+46833-092183SAO  +0434DLH  V0203105N005250100649N0240005N9+01115+00785101985ADDAA101000095GA1081+010064064GD14085+9999999GD20995+9999999GD30995+9999999GD40995+9999999GF108085999999999999999999MA1999999096785MW1001EQDN01 00000JPWTH 1QNNE11 1 00610E11 1 00099E11 1 00099E11 1 00099G11 1 00033H11 1 15033K11 1 00046L11 1 01500M11 1 28580N11 1 00000Q11 1 10198S11 1 00052V11 1 01010X11 1 31010
0011478180999991964060921004+32733+130250FM-12+085299999V0203401N001019999999N9999999N9+01331+99999999999ADDAY101999
0296911700225081964051715003+21483-158033SAO  +0252HHI  V02099959000050548649N0240005N9+01785+01675101575ADDGA1001+999999999GA2081+999999999GD14005+9999999GD20085+9999999GD30995+9999999GD40995+9999999GF108995999999999999999999MA1999999098651MW1001EQDN01 00000JPWTH 1QNNE11 1 00600E11 1 00010E11 1 00099E11 1 00099G11 1 00180K11 1 00062L11 1 01500N11 1 00000Q11 1 10157S11 1 00064V11 1 01099X11 1 00000
0067724457039381964052621004+37733-092150SAO  +0353TBN  V0202301N006712200019N0112001N9+03001+02161101371ADDGA1021+999999999GA2041+000159999GF107991999999999999999999MW1001
0068206650999991964022121004+73533+075717FM-12+999999999V0202301N01081220001CN0100001N9-01221-01391100661ADDAA106000091AY171999GF105991001001999999001021MD1310021+9999MW1361
0269999999146101964092714005+45650-068683SAO  +0124MLT  V0201505N003150243849N011200599+01335+00945102405ADDGD12995+9999999GD23995+9999999GD33995+9999999GD40995+9999999GF107075999999999999999999MA1999999100855EQDN01 00000JPWTH 1QNNE11 1 00299E11 1 00499E11 1 00499E11 1 00099G11 1 00080K11 1 00049L11 1 00700M11 1 29780N11 1 00000Q11 1 10240S11 1 00056V11 1 00909X11 1 15006
007494999900191196408020500N-31970+141450AUST +0305     V0202255N002659999999N999999999+01455+00305999999ADDAY104999GA1005+999999999GF100995004999999999999999MA1999999098625MW1005
0094518860999991964080806004+38283+090717FM-12+999999999V0202901N00721220001CN0200001N9+01891-00281999999ADDAY101999GF101991011011012501001001KA1999N+00721MA1999999100982MD1810121+9999ME1431309MW1021
017699999913881196402120500E+35217-080933SAO  +0225CLT  V0203305N003152200059N024000599-00115-01065102455ADDAA101000095GF100005999999999999999999MA1999999099595EQDN01 00000JPWTH 1QNNG11U1 99999K11 1 00013L11 1 01500M11 1 29410N11 1 00000Q11 1 10245S11 1 00030V11 1 00000X11 1 33006
0383703500255011964060414003+57750-152500SAO  +0035ADQ  V0202705N004650070149N0160005N1+00675+00445100525ADDGA1021+004574074GA2061+007014064GA3999+999999999GA4999+999999999GD12025+9999999GD23065+9999999GD30005+9999999GD40005+9999999GF107075999999999999999999MA1999999100105MW1001EQDN01 00000JPWTH 1QNNE11 1 00202E11 1 00407E11 1 00000E11 1 00000G11 1 00023H11 1 16015H11 1 15023H11 1 00999H11 1 00999K11 1 00040L11 1 01000M11 1 29560N11 1 00000Q11 1 10052S11 1 00044V11 1 00909X11 1 27009
0377999999137501964080915005+36950-076283SAO  +0010NGU  V0200205N005252200059N012800599+02445+01225101835ADDGA1999+012194064GA2999+999999999GA3999+999999999GA4999+999999999GD12015+9999999GD20005+9999999GD30005+9999999GD40005+9999999GF101015999999999999999999MA1999999101735EQDN01 00000JPWTH 1QNNE11 1 00201E11 1 00000E11 1 00000E11 1 00000G11U1 99999H11 1 15040H11 1 00999H11 1 00999H11 1 00999K11 1 00054L11 1 00800M11 1 30040N11 1 00000Q11 1 10183S11 1 00076V11 1 00101X11 1 02010
0117202740999991964032006004+77500+082233FM-12+000999999V0202501N00871220001CN0020001N9-02781-03111098411ADDAA106000091AA299001091AY131999GF108991001001999999001071HL10009IA1209IA2999-03229KA1999N-03001MD1210091+9999MW1381
038899999923194196407011200E+35017-110733SAO  +148899999V0201605N002652200059N096000599+01505+00065101595ADDAA101000095GA1999+030484034GA2999+999999999GA3999+999999999GA4999+999999999GD12015+9999999GD20005+9999999GD30005+9999999GD40005+9999999GF101015999999999999999999MA1999999085545EQDN01 00000JPWTH 1QNNE11 1 00201E11 1 00000E11 1 00000E11 1 00000G11U1 99999H11 1 23100H11 1 00999H11 1 00999H11 1 00999K11 1 00033L11 1 06000M11 1 25260N11 1 00000Q11 1 10159S11 1 00059V11 1 00101X11 1 16005
030799999913895196411251500E+32300-086400SAO  +0058MGM  V0203005N006250027449N016000599+00945+00725101415ADDAA101000095GA1999+002744074GD14085+9999999GD20995+9999999GD30995+9999999GD40995+9999999GF108085999999999999999999MA1999999100685EQDN01 00000JPWTH 1QNNE11 1 00610E11 1 00099E11 1 00099E11 1 00099G11 1 00009H11 1 16009K11 1 00045L11 1 01000M11 1 29730N11 1 00000Q11 1 10141S11 1 00049V11 1 01010X11 1 30012
0377999999265101964081323005+62967-155617SAO  +0104MCG  V0201205N002652200059N064000599+01945+00895100505ADDGA1999+012194084GA2999+030484034GA3999+999999024GA4999+999999999GD12025+9999999GD22005+9999999GD32015+9999999GD40005+9999999GF102025999999999999999999MA1999999099265EQDN01 00000JPWTH 1QNNE11 1 00202E11 1 00200E11 1 00201E11 1 00000G11U1 99999H11 1 11040H11 1 23100H11C1 37999H11 1 00999K11 1 00048L11 1 04000M11 1 29310N11 1 00000Q11 1 10050S11 1 00067V11 1 00303X11 1 12005
0082723927931101964031312001+34200-119200SAO  +0013OXR  V0203301N002112200019N0080001N1+00691+00631101581ADDGA1011+999999999GA2021+999999999GF102991999999999999999999MA1999999101251MW1111
0238724466039291964102317003+38833-094583SAO  +0336GVW  V0201205N005252200059N0240005N9+01175-00115999999ADDGD11995+9999993GD20995+9999999GD30995+9999999GD40995+9999999GF101995999999999999999999MW1001EQDN01 00000JPWTH 1QNNE11 1 00199E11 1 00099E11 1 00099E11 1 00099G11U1 99999K11 1 00030L11 1 01500N11 1 00000S11 1 00053V11 1 00199X11 1 12010
034072509014739196412220200C+42367-071033SAO  +0006BOS  V0200405N003150070149N0128005N9-00225-00725102965ADDAA101000095GA1031+005794064GA2081+007014064GD12035+9999999GD24085+9999999GD30995+9999999GD40995+9999999GF108085999999999999999999MA1999999102845MW1715EQDN01 04000JPWTH 1QNNE11 1 00204E11 1 00610E11 1 00099E11 1 00099G11 1 00023H11 1 15019H11 1 15023K11 1 00019L11 1 00800M11 1 30370N11 1 04000Q11 1 10296S11 1 00028V11 1 01010X11 1 04006
0057576790999991964111800004+28250+112333FM-12+004999999V0203201N00311220001CN0080001N9+01221+00891102631ADDAY111999GF106991001001999999031011MD1210191+9999MW1101
0035035773999991964063011004+52367+000483SAO  +0012EGUN V0202401N005110300019N0176001N9+01831+01171999999ADDGF107991999999999999999999MW1001
034072207003822196409100000C+32133-081200SAO  +0014SAV  V0200505N010350079249N0112005N9+02615+02225100655ADDAA101000395GA1061+007924064GA2021+220009024GD13065+9999999GD24025+9999999GD30995+9999999GD40995+9999999GF108085999999999999999999MA1999999100475MW1615EQDN01 02000JPWTH 1QNNE11 1 00407E11 1 00603E11 1 00099E11 1 00099G11 1 00026H11 1 15026H11C1 37999K11 1 00072L11 1 00700M11 1 29670N11 1 02000Q11 1 10065S11 1 00079V11 1 01010X11 1 05020
007494356099999196406222300N-20070+146270AUST +0311     V0202255N002659999999N999999999+01725+01005999999ADDAY124999GA1005+999999999GF100995004999999999999999MA1999999097975MW1025
009094868099999196409261400N-37820+144970AUST +0038     V0200235N004159999999N999999999+01725+00705999999ADDAY134999GA1005+999999999GA2075+999999035GF107995004999999999075999MA1999999100345MW1035
0070854690999991964120500004-27150-109417FM-12+004199999V0201401N00671004501CN0200001N9+02221+01891102251ADDAY121999GF108991081021004501001001KA1999M+02281MD1710141+9999MW1031
0269999999265191964012602005+62533-153900SAO  +045899999V0200605N007752200059N160000599+00005-00615099025ADDGD12995+9999999GD23995+9999993GD30995+9999999GD40995+9999999GF106025999999999999999999MA1999999093505EQDN01 00000JPWTH 1QNNE11 1 00299E11 1 00399E11 1 00099E11 1 00099G11U1 99999K11 1 00021L11G1 10000M11 1 27610N11 1 00000Q11 1 09902S11 1 00032V11 1 00703X11 1 06015
0302722085938311964112309003+32483-080717SAO  +0010NBC  V0200305N004150274349N0192005N1+00505-00065103495ADDGA1081+027434034GD14085+9999999GD20995+9999999GD30995+9999999GD40995+9999999GF108085999999999999999999MA1999999103395MW1001EQDN01 00000JPWTH 1QNNE11 1 00610E11 1 00099E11 1 00099E11 1 00099G11 1 00090H11 1 23090K11 1 00031L11 1 01200M11 1 30530N11 1 00000Q11 1 10349S11 1 00041V11 1 01010X11 1 03008
0079542180999991964070700004+42267+118900FM-12+056599999V0209991C00001036001CN0200001N9+02221+02001099891ADDAA106005091AA224006091AY161061GF108991011071012501011999MD1210071+9999MW1601
0057245610999991964060206004+65000+130683FM-12+073799999V0202301N00211220001CN0500001N9+00281-01001102841ADDAY101999GF103991031011012501001011MD1710031+9999MW1021
0355747020231101964010512003+36333-119950SAO  +0073NLC  V0201005N002650057949N0024005N1+00285+00115102995ADDAA124000091GA1081+005794064GD14085+9999999GD20995+9999999GD30995+9999999GD40995+9999999GF108085999999999999999999KA1999M+00801KA2999N-00311MA1999999102105MW1455EQDQ01    003PRSWM1N01 07000JPWTH 1QNNE11 1 00610E11 1 00099E11 1 00099E11 1 00099G11 1 00019H11 1 15019K11 1 00034L11 1 00150M11 1 30150N11 1 07000Q11 1 10299S11 1 00037V11 1 01010X11 1 10005
0035724096147061964030513004+40000-074583SAO  +0041WRI  V0201901N006210024019N0112651N9+01551+01171999999ADDGF108991999999999999999999MW1001
0296999999129281964050805005+27517-097800SAO  +001799999V0201505N004650045749N011200599+02505+02335101065ADDGA1999+004574074GD14085+9999999GD20995+9999999GD30995+9999999GD40995+9999999GF108085999999999999999999MA1999999100915EQDN01 00000JPWTH 1QNNE11 1 00610E11 1 00099E11 1 00099E11 1 00099G11 1 00015H11 1 16015K11 1 00074L11 1 00700M11 1 29800N11 1 00000Q11 1 10106S11 1 00077V11 1 01010X11 1 15009
0269999999127161964021016005+99999+999999SAO  +999999999V0200205N006750057949N016000599+02285+01895101935ADDGD13995+9999999GD24995+9999999GD30995+9999999GD40995+9999999GF108995999999999999999999MA1999999101835EQDN01 00000JPWTH 1QNNE11 1 00499E11 1 00699E11 1 00099E11 1 00099G11 1 00019K11 1 00066L11 1 01000M11 1 30070N11 1 00000Q11 1 10193S11 1 00073V11 1 01099X11 1 02013
0081167380999991964031706004+36717+024750FM-12+018399999V0202201N00261036001CN0100001N9+01221+01001100901ADDAA199002091AY161999GF108991011071008001021999KA1999N+01111MD1610051+9999MW1611
0141266590999991964031106004+54883+028700FM-12+017499999V0202301N00311001501CN0002001N9-00611-00721101071ADDAA199999999AY111999GF108991999071001501021999HL10009IA1319IA2999-01289KA1999N-00781MD1410001+9999MW1751EQDQ01+000082SCOTLCQ02  00002PRCP99
0035745980137021964121908004+37083-076350SAO  +0003LFI  V0203501N004612200019N0160001N9-00441-01051999999ADDGF100991999999999999999999MW1001
0057623870999991964071900004+28083+030733FM-12+004099999V0203201N00461220001CN0100001N9+02391+01501100701ADDAY101999GF100991001001999999001001MD1810021+9999MW1021
0073102240999991964052509004+53050+008783FM-12+000499999V0200901N00511220001CN0150001N9+02111+01001101421ADDAY101999GA1011+075009009GF101991001001999999001011MD1710081+9999MW1021
0057546620999991964022721004+38900+121633FM-12+009599999V0203401N00411220001CN0040001N9-00391-00611103231ADDAY101031GF100991001001999999001001MD1210021+9999MW1041
0377999999138831964090910005+33983-081000SAO  +006999999V0200205N004652200059N019200599+02115+01785101605ADDGA1999+004884074GA2999+999999024GA3999+999999999GA4999+999999999GD12025+9999999GD24065+9999999GD30005+9999999GD40005+9999999GF108065999999999999999999MA1999999100815EQDN01 00000JPWTH 1QNNE11 1 00202E11 1 00608E11 1 00000E11 1 00000G11C1 99999H11 1 16016H11C1 37999H11 1 00999H11 1 00999K11 1 00064L11 1 01200M11 1 29770N11 1 00000Q11 1 10160S11 1 00070V11 1 01008X11 1 02009
0057227980999991964010121004+62167+049083FM-12+006699999V0202001N00101007801CN9999999N9-00391-00501100811ADDAY171999GF108991081051008001999999MD1210051+9999MW1711
0057598550999991964102915004+19283+110467FM-12+003799999V0209991C00001220001CN0220001N9+02391+02221101461ADDAY111999GF103991021021008001001021MD1110081+9999MW1251
0068221270999991964070209004+68083+034800FM-12+016199999V0201401N00621220001CN0500001N9+01391+00001101551ADDAA106000091AY101999GF101991011021012501001001MD1710051+9999MW1021
0076261670999991964040815004+58567+029800FM-12+009399999V0203201N00311004501CN0100001N9+00111+00111100561ADDAY171999GF108991999071004501021999MD1210101+9999MW1611EQDQ01+000082SCOTLC
0383999999138831964032411005+33983-081000SAO  +006999999V02099959000052200059N004800599+00615+00565102495ADDGA1999+030484034GA2999+999999004GA3999+999999999GA4999+999999999GD12025+9999999GD22015+9999999GD30005+9999999GD40005+9999999GF102025999999999999999999MA1999999101665MW1445EQDN01 07200JPWTH 1QNNE11 1 00202E11 1 00201E11 1 00000E11 1 00000G11U1 99999H11 1 23100H11C1 32999H11 1 00999H11 1 00999K11 1 00042L11 1 00300M11 1 30020N11 1 07200Q11 1 10249S11 1 00043V11 1 00302X11 1 00000
0035722055999991964051914004+28433-081300SAO  +0029MCO  V0200201N002612200019N0080001N1+02411+01961999999ADDGF108991999999999999999999MW1051
0072742070242011964010809004+47083-122583SAO  +0095GRF  V0209991C000010180019N0096001N9+00241+00081102661ADDGA1081+999999999GF108991999999999999999999MA1999999101481MW1041MW2111
038899999914943196406060200E+42400-096383SAO  +0334SUX  V0201805N004152200059N024000599+02065+01175101305ADDAA101000095GA1999+013724084GA2999+999999024GA3999+999999999GA4999+999999999GD12025+9999999GD23025+9999993GD30005+9999999GD40005+9999999GF105025999999999999999999MA1999999097365EQDN01 00000JPWTH 1QNNE11 1 00203E11 1 00303E11 1 00000E11 1 00000G11U1 99999H11 1 11045H11C1 37999H11 1 00999H11 1 00999K11 1 00053L11 1 01500M11 1 28750N11 1 00000Q11 1 10130S11 1 00069V11 1 00603X11 1 18008
0035722576039021964100516004+31067-097833SAO  +0309GRK  V0200501N006212200019N0240001N9+01741+00081999999ADDGF100991999999999999999999MW1001
0057543370999991964050215004+41133+121117FM-12+006699999V0202001N00411012301CN0100001N9+01611+00721100861ADDAY111031GF107991071051012501999999MD1310081+9999MW1031
009094586099999196402272300N-28820+153280AUST +0017     V0202255N001059999999N999999999+02335+01805999999ADDAY114999GA1045+006005065GA2025+999999035GF106995044055006005045999MA1999999101605MW1035
0092560960999991964012312004+33383+104683FM-12+109099999V0201401N00211036001CN0200001N9+00001-00111103291ADDAA106000691AY171999GF106991011071012501041021MA1999999100131MD1210271+9999ME1315709MW1231
0051488870999991964091810004+10900+108067SAO  +0065VVPT V0202251N004612200019N0400001N1+99999+99999999999ADDGA1011+006009029GF102991999999999999999999MW1001
038899999994814196411150700E+44367-084683SAO  +035299999V0201805N004152200059N016000599+00724+00115102444ADDAA101000095GA1999+999999004GA2999+999999999GA3999+999999999GA4999+999999999GD11025+9999993GD20005+9999999GD30005+9999999GD40005+9999999GF102005999999999999999999MA1999999098174EQDN01 00000JPWTH 1QNNE11 1 00103E11 1 00000E11 1 00000E11 1 00000G11U1 99999H11C1 32999H11 1 00999H11 1 00999H11 1 00999K11 1 00034L11 1 01000M11 1 28990N11 1 00000Q11 1 10244S11 1 00045V11 1 00300X11 1 18008
0082062650999991964122018004+52133+005267SAO  +0013EHSB V0209991V000510120019N0096001N1+00131-00091102211ADDGA1021+005409049GA2031+012009049GF108991999999999999999999MA1999999102201MW1711
0043486940999991964110618004+01350+103900FM-12+001099999V0209991C000019999999N0180001N9+02721+02611100761ADDAY121999GF108991011051008001031081MW1021
0377999999931011964082403005+33683-117717SAO  +011699999V0202605N002652200059N012800599+02114+01615100904ADDGA1999+999999004GA2999+999999999GA3999+999999999GA4999+999999999GD12025+9999999GD20005+9999999GD30005+9999999GD40005+9999999GF102025999999999999999999MA1999999099564EQDN01 00000JPWTH 1QNNE11 1 00203E11 1 00000E11 1 00000E11 1 00000G11U1 99999H11C1 32999H11 1 00999H11 1 00999H11 1 00999K11 1 00061L11 1 00800M11 1 29400N11 1 00000Q11 1 10090S11 1 00070V11 1 00302X11 1 26005
0043661600999991964082703004-08850+013233FM-12+007099999V0201401N00361021001CN0120001N9+01781+01721101341ADDAY161999GF108991081041022501999999MW1101
0275999999240371964012519005+46433-105867SAO  +0801MLS  V02099959000050045749N002400599-00285-00505101185ADDGD15995+9999999GD20995+9999999GD30995+9999999GD40995+9999999GF108085999999999999999999MA1999999091535MW1715EQDN01 04000JPWTH 1QNNE11 1 00799E11 1 00099E11 1 00099E11 1 00099G11 1 00015K11 1 00023L11 1 00150M11 1 27030N11 1 04000Q11 1 10118S11 1 00027V11 1 01010X11 1 00000
0057160900999991964120212004+45383+010867FM-12+006899999V0209991C00001007801CN0040001N9+00501+00221100961ADDAY161999GF108991061071008001021999MD1110181+9999MW1611
0066741080999991964030709004+49017-122367SAO  +0060CYXX V0209991C000010210019N0320001N1+00021-00091102041ADDGA1071+021009039GF107991999999999999999999MA1999999101291MW1001
038899999922536196410041300E+21983-159350SAO  +0031LIH  V0203305N002152200059N024000599+02175+01835101445ADDAA101000095GA1999+006714084GA2999+999999064GA3999+999999999GA4999+999999999GD12015+9999999GD22005+9999999GD30005+9999999GD40005+9999999GF101015999999999999999999MA1999999100915EQDN01 00000JPWTH 1QNNE11 1 00201E11 1 00200E11 1 00000E11 1 00000G11U1 99999H11 1 11022H11 1 15999H11 1 00999H11 1 00999K11 1 00065L11 1 01500M11 1 29800N11 1 00000Q11 1 10144S11 1 00071V11 1 00101X11 1 33004
0079106590999991964032612004+49750+010200SAO  +0203EDIN V0203201N002610039019N0064001N9+00801+00521101511ADDGA1061+999999999GA2081+999999999GF108991999999999999999999MW1051MW2111MW3611
0269999999266271964122220005+63883-160800SAO  +0006UNK  V0201505N002152200059N032000599-01785-02175102615ADDGD10995+9999999GD20995+9999999GD30995+9999999GD40995+9999999GF100005999999999999999999MA1999999102545EQDN01 00000JPWTH 1QNNE11 1 00099E11 1 00099E11 1 00099E11 1 00099G11U1 99999K11 1-00007L11 1 02000M11 1 30280N11 1 00000Q11 1 10261S11 1 00000V11 1 00000X11 1 15004
0243999999137101964081315005+38833-077017SAO  +001899999V0203105N004652200059N024000599+02065+00785101435ADDGD10005+9999999GD20005+9999999GD30995+9999999GD40995+9999999GF100995999999999999999999EQDN01 00000JPWTH 1QNNE11 1 00000E11 1 00000E11 1 00099E11 1 00099G11U1 99999K11 1 00046L11 1 01500N11 1 00000Q11 1 10143S11 1 00069V11 1 00099X11 1 31009
0081537380999991964122100004+37000+108417FM-12+999999999V0203201N00211220001CN0250001N9-00611-01221102941ADDAY121999GF102991001001999999001021MA1999999100771MD1210191+9999ME1315209MW1011
0269999999264141964080518005+63333-149133SAO  +0735UMM  V0202305N003650030549N019200599+00945+00835101835ADDGD12995+9999999GD24995+9999999GD30995+9999999GD40995+9999999GF108085999999999999999999MA1999999093265EQDN01 00000JPWTH 1QNNE11 1 00299E11 1 00699E11 1 00099E11 1 00099G11 1 00010K11 1 00047L11 1 01200M11 1 27540N11 1 00000Q11 1 10183S11 1 00049V11 1 01010X11 1 23007
038899999914777196405251400E+41333-075733SAO  +0284AVP  V0203005N007750094549N024000599+01785+00895101285ADDAA101000095GA1999+009454064GA2999+999999999GA3999+999999999GA4999+999999999GD13075+9999999GD20005+9999999GD30005+9999999GD40005+9999999GF107075999999999999999999MA1999999097935EQDN01 00000JPWTH 1QNNE11 1 00409E11 1 00000E11 1 00000E11 1 00000G11 1 00031H11 1 15031H11 1 00999H11 1 00999H11 1 00999K11 1 00048L11 1 01500M11 1 28920N11 1 00000Q11 1 10128S11 1 00064V11 1 00909X11 1 30015
0098718640999991964042301004+50333-105550SAO  +0566CYMJ V0201351N010810240019N0240001N1+01021+00461100821ADDGA1021+006009059GA2041+024009039GA3021+036009049GF108991999999999999999999MA1999999094071MW1001
0238722785231111964032019003+33533-112383SAO  +0331LUF  V0201205N003152200059N0960005N9+01725-01005999999ADDGD10995+9999999GD20995+9999999GD30995+9999999GD40995+9999999GF100995999999999999999999MW1001EQDN01 00000JPWTH 1QNNE11 1 00099E11 1 00099E11 1 00099E11 1 00099G11U1 99999K11 1 00014L11 1 06000N11 1 00000S11 1 00063V11 1 00099X11 1 12006
0243999999107181964082109005+08917-079600SAO  +0016MBHO V0203105N001550304849N016000599+02675+02225100845ADDGD12015+9999999GD23055+9999999GD34995+9999999GD40995+9999999GF108995999999999999999999EQDN01 00000JPWTH 1QNNE11 1 00201E11 1 00406E11 1 00699E11 1 00099G11 1 00100K11 1 00072L11 1 01000N11 1 00000Q11 1 10084S11 1 00080V11 1 01099X11 1 31003
039470261026411196412020100C+64817-147867SAO  +0134FAI  V02099959000052200059N0240005N1-03335-03445100135ADDAA101000095GA1051+220009004GA2999+999999999GA3999+999999999GA4999+999999999GD13055+9999993GD20005+9999999GD30005+9999999GD40005+9999999GF105015999999999999999999MA1999999098275MW1001EQDN01 00000JPWTH 1QNNE11 1 00306E11 1 00000E11 1 00000E11 1 00000G11U1 99999H11C1 32999H11 1 00999H11 1 00999H11 1 00999K11 1-00030L11 1 01500M11 1 29020N11 1 00000Q11 1 10013S11 1-00028V11 1 00601X11 1 00000
0105556800999991964071206004+28950+098967FM-12+999999999V0201101N00101036001CN0650001N9+01391+00611999999ADDAA106002091AY181999GF106991031091022501061021KA1999N+00611MA1999999100261MD1810121+9999ME1559009MW1011
0050872570999991964102918004-29883-061950FM-12+008899999V0209991C000019999999N0100001N9+02391+01831999999ADDGF106991021011017501091001IA1109MA1999999099731
0269999999137341964032821005+39400-077983SAO  +0164MRB  V0201405N007252200059N024000599+01505-00115101535ADDGD13995+9999999GD20995+9999999GD30995+9999999GD40995+9999999GF107045999999999999999999MA1999999099565EQDN01 00000JPWTH 1QNNE11 1 00499E11 1 00099E11 1 00099E11 1 00099G11C1 99999K11 1 00030L11 1 01500M11 1 29400N11 1 00000Q11 1 10153S11 1 00059V11 1 00905X11 1 14014
0091787300999991964071218004+14033-083400FM-12+001499999V0200901N00621004501CN0160001N9+02721+02391101221ADDAY121999GF108991081051004501001001MA1999999101081MD1410001+9999MW1031EQDQ01+000062APCTEN
0062664100999991964070121004-14650+017683FM-12+134499999V0200901N00151220001CN0150001N9+00892+00001999999ADDAY101999GF100991001001999999001001MW1051EQDQ01+028213ATOT  
0043275770999991964110921004+55517+045500FM-12+009399999V0203401N00821021001CN0200001N9-00781-01001101281ADDAY131999GF105991051021022501001001MW1361
0123239210999991964080103004+60683+060433FM-12+010199999V0209991C00001030001CN0500001N9+02111+01611100901ADDAA199000091AJ100009199999999AY121999GF107991011051008001031001HL10009IA1009IA2999+01509KA1999N+01501MD1210081+9999MW1021
0051106370999991964041012004+50033+008567SAO  +0112EDDF V0202401N001510750019N0099001N9+01721+00391101881ADDGA1061+075009029GF107991999999999999999999MW1051
0059476480999991964032804004+35717+140850FM-12+002899999V0201401N00311014701CN0300001N9+01171+00061102101ADDAY101999GA1061+014709039GF108991011011008001071071MW1021
0281999999350341964012406005+52400+000567SAO  +0010EGUL V0202905N002650070149N002800599+00225+00115103155ADDGD12015+9999999GD24085+9999999GD30995+9999999GD40995+9999999GF108995999999999999999999MA1999999102985MW1055MW2445EQDN01 07281JPWTH 1QNNE11 1 00201E11 1 00610E11 1 00099E11 1 00099G11 1 00023K11 1 00034L11 1 00175M11 1 30410N11 1 07281Q11 1 10315S11 1 00036V11 1 01099X11 1 29005
0081470200999991964100900004+40800+126600FM-12+030599999V0209991C00001220001CN0100001N9+00391+00221102651ADDAA199000091AY101999GF100991001001999999001001KA1999N-00221MD1210081+9999MW1021
034672511114751196407081400C+40217-076850SAO  +0107CXY  V0201005N004650152449N0032005N9+01895+01785101205ADDAA101001895GA1021+002134134GA2081+015244054GD12025+9999999GD24085+9999999GD30995+9999999GD40995+9999999GF108085999999999999999999MA1999999099935MW1455MW2615EQDN01 02070JPWTH 1QNNE11 1 00203E11 1 00610E11 1 00099E11 1 00099G11 1 00050H11 1 13007H11 1 22050K11 1 00064L11 1 00200M11 1 29510N11 1 02070Q11 1 10120S11 1 00066V11 1 01010X11 1 10009
0112259540999991964080100004+60350+166000FM-12+999999999V0201801N00511004501CN0100001N9+01111+00891101961ADDAJ100009199999999AY161999GF108991081071004501999999HL10009IA1089IA2999+01009KA1999N+01001MD1210031+9999MW1611
0066489550999991964020300004+15133+105783SAO  +0102VLIP V0200451N002112200019N0192001N1+01801+01741101511ADDGA1011+004809009GF102991999999999999999999MA1999999100411MW1051
043172206013889196410071200C+30417-081650SAO  +0012JAX  V0203605N008852200059N0160005N9+01225+00615101805ADDAA101000095AA224000091GA1011+015244064GA2021+045724034GA3021+220009004GA4999+999999999GD12015+9999999GD22025+9999999GD32025+9999999GD40005+9999999GF104035999999999999999999KA1999M+02021KA2999N+01191MA1999999101695MW1001EQDN01 00000JPWTH 1QNNE11 1 00201E11 1 00202E11 1 00203E11 1 00000G11U1 99999H11 1 15050H11 1 23150H11C1 32999H11 1 00999K11 1 00043L11 1 01000M11 1 30030N11 1 00000Q11 1 10180S11 1 00054V11 1 00504X11 1 36017
0057255510999991964022018004+64683+170417FM-12+003399999V0209991C00001220001CN0500001N9-04391-04721102471ADDAY101999GF100991001001999999001001MD1310011+9999MW1021
039499999923273196408121400E+99999+999999SAO  +999999999V02099959000052200059N000100599+00945+00945101615ADDAA101000095GA1999+999999104GA2999+999999999GA3999+999999999GA4999+999999999GD16065+9999999GD20005+9999999GD30005+9999999GD40005+9999999GF106065999999999999999999MA1999999100755MW1455EQDN01 07000JPWTH 1QNNE11 1 00808E11 1 00000E11 1 00000E11 1 00000G11U1 99999H11 1 45999H11 1 00999H11 1 00999H11 1 00999K11 1 00049L11 1 00006M11 1 29750N11 1 07000Q11 1 10161S11 1 00049V11 1 00808X11 1 00000
0070596320999991964072800004+21950+108600FM-12+001199999V0202001N00211090001CN0550001N9+02781+02501100641ADDAY111999GF106991011091008001001021KA1999N+02721MD1110061+9999MW1031
038899999921504196409151000E+19717-155067SAO  +0008ITO  V0203105N001550054949N024000599+02225+02175101805ADDAA101000095GA1999+005494084GA2999+013724064GA3999+999999999GA4999+999999999GD13055+9999999GD23025+9999999GD30005+9999999GD40005+9999999GF106065999999999999999999MA1999999101695EQDN01 00000JPWTH 1QNNE11 1 00406E11 1 00403E11 1 00000E11 1 00000G11 1 00018H11 1 11018H11 1 15045H11 1 00999H11 1 00999K11 1 00071L11 1 01500M11 1 30030N11 1 00000Q11 1 10180S11 1 00072V11 1 00808X11 1 31003
038899999924143196412110600E+47483-111350SAO  +112499999V0202205N008852200059N024000599+00115-00285099665ADDAA101000095GA1999+045724034GA2999+999999004GA3999+999999999GA4999+999999999GD12025+9999999GD23035+9999993GD30005+9999999GD40005+9999999GF105025999999999999999999MA1999999086865EQDN01 00000JPWTH 1QNNE11 1 00202E11 1 00304E11 1 00000E11 1 00000G11U1 99999H11 1 23150H11C1 32999H11 1 00999H11 1 00999K11 1 00027L11 1 01500M11 1 25650N11 1 00000Q11 1 09966S11 1 00034V11 1 00602X11 1 22017
0197724660930371964102104003+38817-104700SAO  +1888COS  V0200101N003612200059N0240005N9+00675-00945102295ADDGA1001+999999999GF100005999999999999999999MA1999999081785EQDN01 00000JPWTH 1N02 01007HWD16 5QNNG11U1 99999K11 1 00015L11 1 01500M11 1 24150N11 1 00000Q11 1 10229S11 1 00044V11 1 00000W11 5 01007
0238999999341941964041405005+45467+010933SAO  +0093LIPN V0203405N001050213449N004800599+01065+00835999999ADDGD12995+9999999GD23995+9999999GD33995+9999999GD40995+9999999GF106995999999999999999999MW1445EQDN01 07200JPWTH 1QNNE11 1 00299E11 1 00499E11 1 00499E11 1 00099G11 1 00070K11 1 00047L11 1 00300N11 1 07200S11 1 00051V11 1 00799X11 1 34002
0081526810999991964122221004+38717+103100FM-12+136899999V0202201N00311220001CN0700001N9-01221-01501102831ADDAY101999GF104991001001999999041021MA1999999100661MD1210141+9999ME1315209MW1031
0011476680999991964081809004+35050+139100FM-12+006799999V0209991C000519999999N9999999N9+02721+99999999999ADDAY101999
039472270023044196405161400C+31800-106400SAO  +1194ELP  V02099959000050457249N0640005N9+02225+00785101125ADDAA101000095GA1061+045724034GA2999+999999999GA3999+999999999GA4999+999999999GD13065+9999999GD20005+9999999GD30005+9999999GD40005+9999999GF106045999999999999999999MA1999999088255MW1001EQDN01 00000JPWTH 1QNNE11 1 00408E11 1 00000E11 1 00000E11 1 00000G11 1 00150H11 1 23150H11 1 00999H11 1 00999H11 1 00999K11 1 00046L11 1 04000M11 1 26060N11 1 00000Q11 1 10112S11 1 00072V11 1 00805X11 1 00000
0035471060999991964122208004+37750+127050SAO  +0056RKSB V0201601N003610090019N0112001N9+00851+00351999999ADDGF107991999999999999999999MW1001
0269999999148501964032921005+44733-085583SAO  +0188TVC  V0203105N006252200059N024000599-00395-01445101635ADDGD12995+9999999GD22995+9999999GD30995+9999999GD40995+9999999GF103025999999999999999999MA1999999099265EQDN01 00000JPWTH 1QNNE11 1 00299E11 1 00299E11 1 00099E11 1 00099G11U1 99999K11 1 00006L11 1 01500M11 1 29310N11 1 00000Q11 1 10163S11 1 00025V11 1 00403X11 1 31012
038899999924155196408251600E+45683-118850SAO  +0452PDT  V0201505N003652200059N040000599+02065+00335101195ADDAA101000095GA1999+999999034GA2999+999999024GA3999+999999999GA4999+999999999GD14005+9999999GD20085+9999999GD30005+9999999GD40005+9999999GF108065999999999999999999MA1999999095905EQDN01 00000JPWTH 1QNNE11 1 00600E11 1 00010E11 1 00000E11 1 00000G11C1 99999H11 1 23999H11C1 37999H11 1 00999H11 1 00999K11 1 00038L11 1 02500M11 1 28320N11 1 00000Q11 1 10119S11 1 00069V11 1 01007X11 1 15007
017699999993819196404092300E+39733-086267SAO  +024799999V0202505N005252200059N024000599+01064-00285102194ADDAA101000095GF100005999999999999999999MA1999999099194EQDN01 00000JPWTH 1QNNG11U1 99999K11 1 00027L11 1 01500M11 1 29290N11 1 00000Q11 1 10219S11 1 00051V11 1 00000X11 1 25010
0077477780999991964102917004+33450+135767FM-12+007599999V0203601N00311220001CN0300001N9+01331+00671101831ADDAY101999GF100991001001999999001001MA1999999100911MW1021EQDQ01+000012SCOTCV
031999999913994196403251900E+38750-090383SAO  +017299999V0203105N005250006149N000800599+00445+00285100355ADDAA101000895GA1999+000614104GD15085+9999999GD20995+9999999GD30995+9999999GD40995+9999999GF108085999999999999999999MA1999999098315MW1455MW2615EQDN01 02070JPWTH 1QNNE11 1 00710E11 1 00099E11 1 00099E11 1 00099G11 1 00002H11 1 45002K11 1 00037L11 1 00050M11 1 29030N11 1 02070Q11 1 10035S11 1 00040V11 1 01010X11 1 31010
0057561960999991964091321004+31883+104783FM-12+999999999V0203201N00211015001CN0200001N9+02001+01781101561ADDAY121999GF108991081051017501999999MD1210091+9999MW1601
0041106140999991964111004004+49417+007583SAO  +0240EDAR V0209991C000012200019N0040001N9-00391-00611999999ADDGF100991999999999999999999MW1051MW2111
0232999999230121964121810005+39717-104900SAO  +1645LRY  V02099959000052200059N024000599-02175-02565999999ADDGD10995+9999999GD20995+9999999GD30995+9999999GD40995+9999999GF100995999999999999999999EQDN01 00000JPWTH 1QNNE11 1 00099E11 1 00099E11 1 00099E11 1 00099G11U1 99999K11 1-00014L11 1 01500N11 1 00000S11 1-00007V11 1 00099X11 1 00000
0082062650999991964042510004+52133+005267SAO  +0013EHSB V0209991V001510060019N0096001N1+00801+00461103021ADDGA1041+003009009GA2071+006009049GF107991999999999999999999MA1999999103011MW1051
0165999999047691964061223005+42417-071483SAO  +006399999V02099959000052200059N011200599+02675+01115101495ADDGF100005999999999999999999MA1999999100785EQDN01 00000JPWTH 1QNNG11U1 99999K11 1 00052L11 1 00700M11 1 29760N11 1 00000Q11 1 10149S11 1 00080V11 1 00000X11 1 00000
0057564920999991964061803004+28817+104533FM-12+028699999V0203401N00211004501CN0160001N9+02221+02111100441ADDAY161999GF108991081071004501999999MD1110191+9999MW1601
0057360610999991964122515004+52267+087167FM-12+032299999V0202301N00211024001CN9999999N9-00501-00721102071ADDAY121999GF107991071001999999031001MD1110021+9999MW1021
041072753014914196403172000C+46900-096800SAO  +0273FAR  V0203405N004152200059N0240005N9-00895-02005102775ADDAA101000095GA1999+999999024GA2999+999999999GA3999+999999999GA4999+999999999GD10005+9999999GD20005+9999999GD30005+9999999GD40005+9999999GF100005999999999999999999MA1999999099265MW1001EQDQ01    003SCCGA1N01 00000JPWTH 1QNNE11 1 00000E11 1 00000E11 1 00000E11 1 00000G11U1 99999H11 1 37999H11 1 00999H11 1 00999H11 1 00999K11 1-00004L11 1 01500M11 1 29310N11 1 00000Q11 1 10277S11 1 00016V11 1 00000X11 1 34008
038899999912844196412282100E+26683-080100SAO  +000999999V0200605N005752200059N024000599+02505+01895101865ADDAA101000095GA1999+009144084GA2999+999999999GA3999+999999999GA4999+999999999GD12025+9999999GD20005+9999999GD30005+9999999GD40005+9999999GF102025999999999999999999MA1999999101795EQDN01 00000JPWTH 1QNNE11 1 00202E11 1 00000E11 1 00000E11 1 00000G11U1 99999H11 1 11030H11 1 00999H11 1 00999H11 1 00999K11 1 00066L11 1 01500M11 1 30060N11 1 00000Q11 1 10186S11 1 00077V11 1 00202X11 1 06011
0307690190139101964110200003+32433-099850SAO  +0548DYS  V0201805N004152200059N0240005N9+02285+01335101455ADDGA1011+999999999GA2001+999999999GD12015+9999999GD22005+9999999GD30995+9999999GD40995+9999999GF101995999999999999999999MA1999999095235MW1001EQDN01 00000JPWTH 1QNNE11 1 00201E11 1 00200E11 1 00099E11 1 00099G11U1 99999K11 1 00056L11 1 01500M11 1 28120N11 1 00000Q11 1 10145S11 1 00073V11 1 00199X11 1 18008
0043476240999991964101520004+36400+139067FM-12+011399999V0203401N00261220001CN0450001N9+01111+00831101921ADDAY101999GF100991001001999999001001MW1021
0238727755241121964122708003+47517-111167SAO  +1056GFA  V02099959000052200059N0400005N9-00285-00835999999ADDGD12995+9999999GD22995+9999999GD30995+9999999GD40995+9999999GF102995999999999999999999MW1001EQDN01 00000JPWTH 1QNNE11 1 00299E11 1 00299E11 1 00099E11 1 00099G11U1 99999K11 1 00017L11 1 02500N11 1 00000S11 1 00027V11 1 00299X11 1 00000
038899999914944196403311900E+43567-096733SAO  +043499999V0201205N006252200059N024000599+00615-00225102055ADDAA101000095GA1999+999999004GA2999+999999999GA3999+999999999GA4999+999999999GD10005+9999999GD20005+9999999GD30005+9999999GD40005+9999999GF100005999999999999999999MA1999999096755EQDN01 00000JPWTH 1QNNE11 1 00000E11 1 00000E11 1 00000E11 1 00000G11U1 99999H11C1 32999H11 1 00999H11 1 00999H11 1 00999K11 1 00028L11 1 01500M11 1 28570N11 1 00000Q11 1 10205S11 1 00043V11 1 00000X11 1 12012
0059061800999991964082906004+55617+012650FM-12+000599999V0200501N005719999999N9999999N9+01611+01501101061ADDAA199008091GF106991999999999999999999KA1999N+01611MW1251
0035745940137051964090701004+38817-076850SAO  +0085ADW  V0201401N001012200019N0160001N9+01961+00961999999ADDGF100991999999999999999999MW1001
0070571060999991964121512004+33267+105950FM-12+066599999V0201101N00311220001CN0200001N9+00501-00501102641ADDAY111999GF107991001001999999001021KA1999M+01111MD1110141+9999MW1031
0035488870999991964020802004+10900+108067SAO  +0065VVPT V0200451N001012200019N0320001N1+99999+99999999999ADDGF100991999999999999999999MW1001
0212725038147141964111222003+41500-074100SAO  +0177SWF  V02099959000052200059N0032005N1+01725+00675999999ADDGD14995+9999999GD20995+9999999GD30995+9999999GF108995999999999999999999MW1055EQDN01 08100JPWTH 1QNNE11 1 00699E11 1 00099E11 1 00099G11C1 99999K11 1 00044L11 1 00200N11 1 08100S11 1 00063V11 1 01099X11 1 00000
017699999924121196404091600E+40833-115783SAO  +154799999V0203305N001552200059N048000599+00285-00175102535ADDAA101000095GF100005999999999999999999MA1999999085105EQDN01 00000JPWTH 1QNNG11U1 99999K11 1 00029L11 1 03000M11 1 25130N11 1 00000Q11 1 10253S11 1 00037V11 1 00000X11 1 33003
0043964410999991964083109004+03200+113033FM-12+000599999V0203601N004619999999N0100001N9+02941+02391100791ADDAY191999GF107991021091004501011041MW1161
0057150800999991964110712004+47050+021933FM-12+013799999V0200901N00211012301CN0100001N9+00611+00111102481ADDAY121999GF108991081051012501999999MD1410001+9999MW1101
0108804070999991964090421004+10650-071583FM-12+004899999V0200201N00311007801CN0300001N9+03281+02391100741ADDAY121999GA1999+006009029GA2081+007809019GF199999031091008001031081MD1610201+9999MW1031EQDQ01+000072SCOTCV
017699999924143196408250100E+47483-111350SAO  +112499999V0202205N003152200059N120000599+01675+00445102025ADDAA101000095GF100005999999999999999999MA1999999089235EQDN01 00000JPWTH 1QNNG11U1 99999K11 1 00040L11 1 07500M11 1 26350N11 1 00000Q11 1 10202S11 1 00062V11 1 00000X11 1 22006
0081517650999991964051500004+40650+087700FM-12+084599999V0201401N00211220001CN0040001N9+01611+00221099751ADDAY111999GF107991001001999999001061MA1999999100051MD1210131+9999ME1313909MW1061
0383783670117061964032922003+19900-075150SAO  +0016MUGM V0202005N004150091449N0240005N9+02835+02445101355ADDGA1011+004574084GA2021+007624094GA3031+009144084GA4999+999999999GD12015+9999999GD22025+9999999GD33035+9999999GD40005+9999999GF106065999999999999999999MA1999999101155MW1001EQDN01 00000JPWTH 1QNNE11 1 00201E11 1 00202E11 1 00404E11 1 00000G11 1 00030H11 1 11015H11 1 18025H11 1 11030H11 1 00999K11 1 00076L11 1 01500M11 1 29870N11 1 00000Q11 1 10135S11 1 00083V11 1 00707X11 1 20008
0335999999937271964030306005+34700-077417SAO  +000799999V02033859005250061049N006400599+01614+01615101334ADDGA1999+002744154GA2999+006104064GD12035+9999999GD24055+9999999GD30995+9999999GD40995+9999999GF108085999999999999999999MA1999999101254MW1445MW2615EQDN01 02072JPWTH 1QNNE11 1 00204E11 1 00606E11 1 00099E11 1 00099G11 1 00020H11 1 17009H11 1 15020K11 1 00061L11 1 00400M11 1 29900N11 1 02072Q11 1 10133S11 1 00061V11 1 01010W11 1 18010
0075845150999991964011112004-08400-074583FM-12+015099999V0209991C00001220001CN0300001N9+02501+02281100811ADDAY111999GF106991999001999999041001KA1999N+02111MW1021EQDQ01+000002SCOTLC
030799999914842196402140100E+40667-089683SAO  +020499999V0203105N004650079249N016000599+00005-00225101515ADDAA101000095GA1999+007924064GD14085+9999999GD20995+9999999GD30995+9999999GD40995+9999999GF108085999999999999999999MA1999999099055EQDN01 00000JPWTH 1QNNE11 1 00610E11 1 00099E11 1 00099E11 1 00099G11 1 00026H11 1 15026K11 1 00028L11 1 01000M11 1 29250N11 1 00000Q11 1 10151S11 1 00032V11 1 01010X11 1 31009
0098717270999991964121019004+48333-071000SAO  +0163CYBG V0209991C000012200019N0160001N1-00591-01091103021ADDGA1011+009009079GA2011+027009039GA3041+075009029GF107991999999999999999999MA1999999100881MW1001
0271999999253421964102108005+51933-131017SAO  +0089CYCJ V02004559005250243849N016000599+00835+00785102155ADDGA1999+004274064GA2999+024384034GD19035+9999999GD29045+9999999GF107065999999999999999999MA1999999101055EQDN01 00000JPWTH 1QNNE11 1 09904E11 1 09905G11 1 00080H11 1 15014H11 1 23080K11 1 00046L11 1 01000M11 1 29840N11 1 00000Q11 1 10215S11 1 00047V11 1 00907W11 1 22010
0377999999931021964070412005+39417-118717SAO  +1199NFL  V02099999000052200059N024000599+01444+00445100864ADDGA1999+030484034GA2999+999999999GA3999+999999999GA4999+999999999GD10005+9999999GD20005+9999999GD30005+9999999GD40005+9999999GF100005999999999999999999MA1999999087674EQDN01 00000JPWTH 1QNNE11 1 00000E11 1 00000E11 1 00000E11 1 00000G11U1 99999H11 1 23100H11 1 00999H11 1 00999H11 1 00999K11 1 00040L11 1 01500M11 1 25890N11 1 00000Q11 1 10086S11 1 00058V11 1 00000W11 1 00000
0092321330999991964052312004+47333+142800FM-12+004299999V0203601N00211002401CN0040001N9+00391+00391100521ADDAA106031091AA299008091AY161999GF108991081061002501999999KA1999M+00721MD1710051+9999MW1511
038899999924232196409212300E+44917-123017SAO  +006199999V0203605N003150426749N040000599+02005+00675102765ADDAA101000095GA1999+999999084GA2999+999999034GA3999+042674034GA4999+999999004GD13005+9999999GD23005+9999999GD30065+9999999GD40005+9999999GF106055999999999999999999MA1999999102035EQDN01 00000JPWTH 1QNNE11 1 00400E11 1 00400E11 1 00007E11 1 00000G11 1 00140H11 1 11999H11 1 23999H11 1 23140H11 1 32999K11 1 00044L11 1 02500M11 1 30130N11 1 00000Q11 1 10276S11 1 00068V11 1 00706X11 1 36006
038899999914777196409061300E+41333-075733SAO  +0284AVP  V0200705N002152200059N024000599+01505+00945102155ADDAA101000095GA1999+999999004GA2999+999999999GA3999+999999999GA4999+999999999GD10005+9999999GD20005+9999999GD30005+9999999GD40005+9999999GF100005999999999999999999MA1999999098715EQDN01 00000JPWTH 1QNNE11 1 00000E11 1 00000E11 1 00000E11 1 00000G11U1 99999H11 1 32999H11 1 00999H11 1 00999H11 1 00999K11 1 00049L11 1 01500M11 1 29150N11 1 00000Q11 1 10215S11 1 00059V11 1 00000X11 1 07004
0383722085938311964092506003+32483-080717SAO  +0010NBC  V0203305N003652200059N0112005N1+02115+01175101755ADDGA1011+220009004GA2999+999999999GA3999+999999999GA4999+999999999GD11015+9999993GD20005+9999999GD30005+9999999GD40005+9999999GF101005999999999999999999MA1999999101665MW1001EQDN01 00000JPWTH 1QNNE11 1 00101E11 1 00000E11 1 00000E11 1 00000G11U1 99999H11C1 32999H11 1 00999H11 1 00999H11 1 00999K11 1 00053L11 1 00700M11 1 30020N11 1 00000Q11 1 10175S11 1 00070V11 1 00100X11 1 33007
0057269510999991964050903004+53033+027550FM-12+015799999V0201801N00211220001CN0200001N9+01001+00501101911ADDAY101999GF108991001001999999001071MD1710081+9999MW1031
0057110350999991964092515004+48250+016367FM-12+020399999V0203601N00211220001CN0180001N9+02111+00611102271ADDAY101031GF100991001001999999001001MD1710121+9999MW1021
0070509680999991964011418004+45217+127967FM-12+014099999V0202001N00311220001CN0200001N9-02281-02391103201ADDAY101999GF100991001001999999001001KA1999M-01221MD1210181+9999MW1021
0377999999433241964010606005+34150+132233SAO  +0003RJOI V0201905N004652200059N024000599+01115+00395102285ADDGA1999+012194064GA2999+999999004GA3999+999999999GA4999+999999999GD12035+9999999GD22015+9999999GD30005+9999999GD40005+9999999GF104035999999999999999999MA1999999102275EQDN01 00000JPWTH 1QNNE11 1 00204E11 1 00201E11 1 00000E11 1 00000G11U1 99999H11 1 15040H11C1 32999H11 1 00999H11 1 00999K11 1 00039L11 1 01500M11 1 30200N11 1 00000Q11 1 10228S11 1 00052V11 1 00504X11 1 19009
039499999923232196408192200E+38517-121500SAO  +001399999V0203405N007252200059N008000599+03505+00615101085ADDAA101000095GA1999+999999004GA2999+999999999GA3999+999999999GA4999+999999999GD11025+9999993GD20005+9999999GD30005+9999999GD40005+9999999GF102005999999999999999999MA1999999100985MW1045EQDN01 08000JPWTH 1QNNE11 1 00102E11 1 00000E11 1 00000E11 1 00000G11U1 99999H11C1 32999H11 1 00999H11 1 00999H11 1 00999K11 1 00043L11 1 00500M11 1 29820N11 1 08000Q11 1 10108S11 1 00095V11 1 00200X11 1 34014
039499999914732196402261500E+40767-073900SAO  +0003LGA  V0202305N006752200059N004800599+00175-00505100785ADDAA101000095GA1999+021344034GA2999+999999999GA3999+999999999GA4999+999999999GD12025+9999999GD20005+9999999GD30005+9999999GD40005+9999999GF102025999999999999999999MA1999999100615MW1045EQDN01 08200JPWTH 1QNNE11 1 00202E11 1 00000E11 1 00000E11 1 00000G11U1 99999H11 1 23070H11 1 00999H11 1 00999H11 1 00999K11 1 00023L11 1 00300M11 1 29710N11 1 08200Q11 1 10078S11 1 00035V11 1 00202X11 1 23013
0054962370999991964071400004-02167+106133FM-12+003399999V0201801N001519999999N0190001N9+02501+02391101171ADDAA124010091AY121999GF107991031031004501071011MW1051
0067489111999991964081803004+10050+105767SAO  +0004VVCT V0202201N006710039019N0112001N1+02961+02571100941ADDGA1061+999999999GA2021+999999999GF107991999999999999999999MW1001
0009746710138061964011811004+36667-087500SAO  +0174HOP  V0201801N002612200019N0112001N9-00201-00811999999ADDMW1001
038899999993215196406171900E+34667-120583SAO  +011299999V0203205N007752200059N024000599+01564+01115101614ADDAA101000095GA1999+003054064GA2999+999999999GA3999+999999999GA4999+999999999GD10005+9999999GD20005+9999999GD30005+9999999GD40005+9999999GF100005999999999999999999MA1999999100274EQDN01 00000JPWTH 1QNNE11 1 00000E11 1 00000E11 1 00000E11 1 00000G11U1 99999H11 1 15010H11 1 00999H11 1 00999H11 1 00999K11 1 00052L11 1 01500M11 1 29610N11 1 00000Q11 1 10161S11 1 00060V11 1 00000X11 1 32015
0057244770999991964090115004+65250+135600FM-12+999999999V0209991C00001012301CN0500001N9+00001-00501103821ADDAY121999GF106991061051012501001001MD1410001+9999MW1021
0269999999148581964100602005+47167-088500SAO  +033099999V0203205N005250167649N024000599+00005-00835102105ADDGD14995+9999999GD20995+9999999GD30995+9999999GD40995+9999999GF108085999999999999999999MA1999999098075EQDN01 00000JPWTH 1QNNE11 1 00699E11 1 00099E11 1 00099E11 1 00099G11 1 00055K11 1 00017L11 1 01500M11 1 28960N11 1 00000Q11 1 10210S11 1 00032V11 1 01010X11 1 32010
0377999999136021964062302005+32267-064850SAO  +0013MYUN V0201405N001052200059N016000599+02505+02005102155ADDGA1999+004574084GA2999+999999004GA3999+999999999GA4999+999999999GD12035+9999999GD22005+9999999GD30005+9999999GD40005+9999999GF103035999999999999999999MA1999999102005EQDN01 00000JPWTH 1QNNE11 1 00204E11 1 00200E11 1 00000E11 1 00000G11U1 99999H11 1 11015H11C1 32999H11 1 00999H11 1 00999K11 1 00068L11 1 01000M11 1 30120N11 1 00000Q11 1 10215S11 1 00077V11 1 00404X11 1 14002
0082724240138071964101212004+37900-085967SAO  +0230FTK  V0209991C000012200019N0112001N9+00521+00191102431ADDGA1031+999999999GA2001+999999999GF102991999999999999999999MA1999999099631MW1001
0050983270999991964071810004+15183+120550SAO  +0146RPMK V0202201N002611050019N0321871N9+02661+02051100661ADDGF108991999999999999999999MA1100751098991MW1001
0113107760999991964031918004+49017+012067FM-12+037699999V0201401N00361009901CN0060001N9+00111-00281101111ADDAA199000691AY161061GA1061+009909079GA2081+030009049GF108991081061012501999999KA1999M+00111MD1710091+9999MW1601
0081543860999991964022612004+41433+127717FM-12+999999999V0202901N00211220001CN0200001N9-00781-02281103351ADDAY121061GF106991001001999999001021MA1999999100051MD1210041+9999ME1314909MW1021
0377999999403081964052517005+09517+138133SAO  +001899999V02099959000052200059N024000599+02505+02445100865ADDGA1999+003664084GA2999+036584034GA3999+999999004GA4999+999999999GD12025+9999999GD22005+9999999GD34065+9999993GD40005+9999999GF108025999999999999999999MA1999999100685EQDN01 00000JPWTH 1QNNE11 1 00202E11 1 00200E11 1 00508E11 1 00000G11U1 99999H11 1 11012H11 1 23120H11C1 32999H11 1 00999K11 1 00076L11 1 01500M11 1 29730N11 1 00000Q11 1 10086S11 1 00077V11 1 01002X11 1 00000
0238725115147111964080917003+40200-076767SAO  +0113MDT  V0203405N004150137249N0320005N1+01895+00565999999ADDGD13995+9999999GD23995+9999999GD30995+9999999GD40995+9999999GF106995999999999999999999MW1001EQDN01 00000JPWTH 1QNNE11 1 00499E11 1 00499E11 1 00099E11 1 00099G11 1 00045K11 1 00042L11 1 02000N11 1 00000S11 1 00066V11 1 00799X11 1 34008
0377999999116301964021820005+18250-065633SAO  +001199999V0201105N004152200059N024000599+02945+02175101275ADDGA1999+006104084GA2999+015244064GA3999+999999999GA4999+999999999GD12025+9999999GD22015+9999999GD30005+9999999GD40005+9999999GF103035999999999999999999MA1999999101155EQDN01 00000JPWTH 1QNNE11 1 00203E11 1 00201E11 1 00000E11 1 00000G11U1 99999H11 1 11020H11 1 15050H11 1 00999H11 1 00999K11 1 00071L11 1 01500M11 1 29870N11 1 00000Q11 1 10127S11 1 00085V11 1 00404X11 1 11008
0082704540257041964090501001+51883-176650SAO  +0005PADK V0200501N003612200019N0240001N9+01521+00801102701ADDGA1011+009009059GA2061+220009029GF107991999999999999999999MA1999999102641MW1001
0057265440999991964042612004+55867+026617FM-12+009399999V0202701N00621220001CN0100001N9+00721-01391103091ADDAY101999GF100991001001999999001001MD1810101+9999MW1021
0057317350999991964121806004+48517+135167FM-12+0072UHHH V0202701N00211220001CN0200001N9-01391-01721100871ADDAY141999GF102991001001999999001021MD1610061+9999MW1021
006694448099999196404110700N-28880+121320AUST +0380     V0201805N009859999999N999999999+02175+01805999999ADDGA1085+018005115GF108995084075018005999999MA1999999097126MW1215
038899999912836196406090900E+24550-081750SAO  +0001EYW  V0201205N004652200059N024000599+02725+02395101525ADDAA101000095GA1999+005494084GA2999+999999004GA3999+999999999GA4999+999999999GD12025+9999999GD22015+9999999GD30005+9999999GD40005+9999999GF102025999999999999999999MA1999999101465EQDN01 00000JPWTH 1QNNE11 1 00202E11 1 00201E11 1 00000E11 1 00000G11U1 99999H11 1 11018H11C1 32999H11 1 00999H11 1 00999K11 1 00075L11 1 01500M11 1 29960N11 1 00000Q11 1 10152S11 1 00081V11 1 00303X11 1 12009
038899999914826196405031400E+42967-083733SAO  +023599999V0201505N004652200059N019200599+01615+00785102185ADDAA101000095GA1999+999999004GA2999+999999999GA3999+999999999GA4999+999999999GD11025+9999993GD20005+9999999GD30005+9999999GD40005+9999999GF102005999999999999999999MA1999999099395EQDN01 00000JPWTH 1QNNE11 1 00102E11 1 00000E11 1 00000E11 1 00000G11U1 99999H11C1 32999H11 1 00999H11 1 00999H11 1 00999K11 1 00046L11 1 01200M11 1 29350N11 1 00000Q11 1 10218S11 1 00061V11 1 00200X11 1 15009
0057242660999991964042206004+67550+133383FM-12+013799999V0200501N00211220001CN0500001N9-00391-01501102061ADDAY111999GF108991001001999999001071MD1710291+9999MW1021
0057483830999991964060518004+16550+104733FM-12+013899999V0209991C00001004501CN0020001N9+02281+02281100541ADDAY191999GF108991051071004501021999MD1999999-0051MW1511
0043612140999991964112009004+18433+001350FM-12+045899999V0200801N00511220001CN0300001N9+02221+00001101731ADDAY101999GF100991001001999999001001MW1021
0066722545999991964100918004+30200-097667SAO  +0165BSM  V0200201N004612200019N0240001N9+02301+01071102341ADDGA1001+999999999GF100991999999999999999999MA1999999100371MW1001
0056661600999991964073006004-08850+013233FM-12+007099999V0201201N00361004201CN0080001N9+01891+01721101681ADDAY151999GF107991071051004501999999KA1999N+01721MW1101
0377999999938371964010107005+30233-081667SAO  +0009NIP  V0202405N005250121949N012800599+00784+00335101444ADDGA1999+012194064GA2999+999999999GA3999+999999999GA4999+999999999GD13065+9999999GD20005+9999999GD30005+9999999GD40005+9999999GF106065999999999999999999MA1999999101354EQDN01 00000JPWTH 1QNNE11 1 00408E11 1 00000E11 1 00000E11 1 00000G11 1 00040H11 1 15040H11 1 00999H11 1 00999H11 1 00999K11 1 00038L11 1 00800M11 1 29930N11 1 00000Q11 1 10144S11 1 00046V11 1 00808X11 1 24010
038899999913866196402172200E+38367-081600SAO  +028699999V0201805N001552200059N011200599+01065-00285101665ADDAA101000095GA1999+999999004GA2999+999999999GA3999+999999999GA4999+999999999GD12025+9999999GD20005+9999999GD30005+9999999GD40005+9999999GF102025999999999999999999MA1999999098045EQDN01 00000JPWTH 1QNNE11 1 00202E11 1 00000E11 1 00000E11 1 00000G11U1 99999H11C1 32999H11 1 00999H11 1 00999H11 1 00999K11 1 00027L11 1 00700M11 1 28950N11 1 00000Q11 1 10166S11 1 00051V11 1 00202X11 1 18003
0035160365999991964072223004+46033+012600SAO  +0129LIPA V0203601N002110270019N0128001N9+02181+01631999999ADDGF108991999999999999999999MW1001
0092263480999991964120418004+57133+026733FM-12+012899999V0200901N00311002401CN0040001N9-00221-00221099891ADDAA106024091AA299006091AY171999GF108991081001002501021999KA1999M-00111MD1710191+9999MW1711
0081111460999991964051918004+47050+012950FM-12+310799999V0203101N00461000151CN0009001N9-00111-00501999999ADDAA199003091AY141061GF109991091999000251999999KA1999M+00221MD1710161+9999MW1411
0377999999405041964083120005+06967+158217SAO  +003699999V0201405N002152200059N024000599+02285+02285101195ADDGA1999+007624084GA2999+999999004GA3999+999999999GA4999+999999999GD12025+9999999GD24065+9999993GD30005+9999999GD40005+9999999GF108035999999999999999999MA1999999100645EQDN01 00000JPWTH 1QNNE11 1 00203E11 1 00507E11 1 00000E11 1 00000G11U1 99999H11 1 11025H11C1 32999H11 1 00999H11 1 00999K11 1 00073L11 1 01500M11 1 29720N11 1 00000Q11 1 10119S11 1 00073V11 1 01004X11 1 14004
017699999923174196410162200E+33933-118383SAO  +003799999V0202305N004652200059N011200599+02175+01395101185ADDAA101000095GF100005999999999999999999MA1999999100815EQDN01 00000JPWTH 1QNNG11U1 99999K11 1 00057L11 1 00700M11 1 29770N11 1 00000Q11 1 10118S11 1 00071V11 1 00000X11 1 23009
0249999999231361964070715005+34217-119083SAO  +002099999V02099959000050006149N001300599+01175+01065101405ADDGD15085+9999999GD20995+9999999GD30995+9999999GD40995+9999999GF108995999999999999999999MW1455EQDN01 07000JPWTH 1QNNE11 1 00710E11 1 00099E11 1 00099E11 1 00099G11 1 00002K11 1 00051L11 1 00081N11 1 07000Q11 1 10140S11 1 00053V11 1 01099X11 1 00000
0082107120999991964091600004+49500-007867SAO  +0321EDAS V0202301N004610210019N0128001N9+02021+01461101231ADDGA1031+999999999GA2041+999999999GF108991999999999999999999MA1999999097561MW1801
033499999926451196404200700E+61167-150017SAO  +0045ANC  V0201405N005250274349N024000599+00445-00725101355ADDAA101000095GA1999+027434034GA2999+999999024GD13075+9999999GD24015+9999999GD30995+9999999GD40995+9999999GF108085999999999999999999MA1999999100855EQDN01 00000JPWTH 1QNNE11 1 00409E11 1 00601E11 1 00099E11 1 00099G11 1 00090H11 1 23090H11C1 37999K11 1 00019L11 1 01500M11 1 29780N11 1 00000Q11 1 10135S11 1 00040V11 1 01010X11 1 14010
0243999999432631964082018005+33200+126267SAO  +0013RKPM V0203305N005252200059N011200599+02675+02285099665ADDGD10995+9999999GD20995+9999999GD30995+9999999GD40995+9999999GF100995999999999999999999EQDN01 00000JPWTH 1QNNE11 1 00099E11 1 00099E11 1 00099E11 1 00099G11U1 99999K11 1 00073L11 1 00700N11 1 00000Q11 1 09966S11 1 00080V11 1 00099X11 1 33010
0035746930937371964021511004+35133-078933SAO  +0074FBG  V0200701N003112200019N0112001N9+00221-00171999999ADDGF107991999999999999999999MW1001
0232999999107181964052207005+08917-079600SAO  +0016MBHO V0203205N001050128049N016000599+02675+02225999999ADDGD13995+9999999GD23995+9999999GD34995+9999999GD40995+9999999GF108995999999999999999999EQDN01 00000JPWTH 1QNNE11 1 00499E11 1 00499E11 1 00699E11 1 00099G11 1 00042K11 1 00072L11 1 01000N11 1 00000S11 1 00080V11 1 01099X11 1 32002
0035725377148041964111605004+42617-082833SAO  +0177MTC  V0202301N002610001519N0004001N9+01241+01131999999ADDGF108991999999999999999999MW1451
0377999999116301964030600005+18250-065633SAO  +001199999V0200405N006752200059N024000599+02505+01895101765ADDGA1999+006104084GA2999+999999999GA3999+999999999GA4999+999999999GD12035+9999999GD20005+9999999GD30005+9999999GD40005+9999999GF103035999999999999999999MA1999999101665EQDN01 00000JPWTH 1QNNE11 1 00204E11 1 00000E11 1 00000E11 1 00000G11U1 99999H11 1 11020H11 1 00999H11 1 00999H11 1 00999K11 1 00066L11 1 01500M11 1 30020N11 1 00000Q11 1 10176S11 1 00077V11 1 00404X11 1 04013
0318722535129091964052112003+29383-098567SAO  +0208SKF  V0203605N001550304849N0112005N9+02115+01945101865ADDAA124999999GA1001+999999999GA2081+999999999GD14005+9999999GD20085+9999999GD30995+9999999GD40995+9999999GF108995999999999999999999MA1999999099395MW1001EQDN01 00000JPWTH 1QNNE11 1 00600E11 1 00010E11 1 00099E11 1 00099G11 1 00100K11 1 00067L11 1 00700M11 1 29350N11 1 00000Q11 1 10186S11 1 00070V11 1 01099X11 1 36003
0035035953999991964091602004+52083+001417SAO  +0030EGVG V0202101N002112200019N0080001N9+01191+01021999999ADDGF100991999999999999999999MW1051
0389999999931111964121209005+34117-119117SAO  +002399999V02099959000050085349N006400599+01394+01175101964ADDGA1999+008534064GA2999+999999999GA3999+999999999GA4999+999999999GD13065+9999999GD20005+9999999GD30005+9999999GD40005+9999999GF106065999999999999999999MA1999999101934MW1055MW2445EQDN01 07281JPWTH 1QNNE11 1 00408E11 1 00000E11 1 00000E11 1 00000G11 1 00028H11 1 15028H11 1 00999H11 1 00999H11 1 00999K11 1 00053L11 1 00400M11 1 30100N11 1 07281Q11 1 10196S11 1 00057V11 1 00808X11 1 00000
017699999913893196404091300E+35050-089983SAO  +007999999V02099959000052200059N024000599+00395+00175102995ADDAA101000095GF100005999999999999999999MA1999999101935EQDN01 00000JPWTH 1QNNG11U1 99999K11 1 00035L11 1 01500M11 1 30100N11 1 00000Q11 1 10299S11 1 00039V11 1 00000X11 1 00000
0092579020999991964030400004+25417+105250FM-12+141399999V0201101N00311007801CN0250001N9+01111+01001100961ADDAA124000691AY121999GF107991071041008001999999MA1999999100571MD1310141+9999ME1314509MW1031
0057508540999991964061215004+46400+125350FM-12+015199999V0201101N00101220001CN0200001N9+01281+01221100611ADDAY111999GF102991021041012501001001MD1210111+9999MW1011
0059486150999991964021415004+06167+102283FM-12+000999999V0200701N00571220001CN0160001N9+02721+02281101171ADDAY121999GA1021+006009089GF104991021011008001001011MW1011
0377999999231571964122420005+37367-118367SAO  +1253BIH  V0202805N007252200059N080000599+02065-00225100755ADDGA1999+024384064GA2999+067064034GA3999+999999004GA4999+999999999GD12035+9999999GD22005+9999999GD30005+9999999GD40005+9999999GF103035999999999999999999MA1999999086865EQDN01 00000JPWTH 1QNNE11 1 00204E11 1 00200E11 1 00000E11 1 00000G11U1 99999H11 1 15080H11 1 23220H11C1 32999H11 1 00999K11 1 00028L11 1 05000M11 1 25650N11 1 00000Q11 1 10075S11 1 00069V11 1 00404X11 1 28014
038899999923065196402192000E+39367-101700SAO  +1111GLD  V0203405N006250137249N024000599+00445-00505101325ADDAA101000095GA1999+013724064GA2999+999999004GA3999+999999999GA4999+999999999GD13065+9999999GD24025+9999999GD30005+9999999GD40005+9999999GF108075999999999999999999MA1999999088325EQDN01 00000JPWTH 1QNNE11 1 00407E11 1 00603E11 1 00000E11 1 00000G11 1 00045H11 1 15045H11C1 32999H11 1 00999H11 1 00999K11 1 00023L11 1 01500M11 1 26080N11 1 00000Q11 1 10132S11 1 00040V11 1 01009X11 1 34012
0238725287047241964062702003+43100-078950SAO  +0180IAG  V0202205N007252200059N0128005N9+02445+01675999999ADDGD13995+9999993GD20995+9999999GD30995+9999999GD40995+9999999GF106995999999999999999999MW1001EQDN01 00000JPWTH 1QNNE11 1 00399E11 1 00099E11 1 00099E11 1 00099G11U1 99999K11 1 00062L11 1 00800N11 1 00000S11 1 00076V11 1 00899X11 1 22014
0057172900999991964123112004+37033+027417FM-12+000399999V0203601N00151220001CN0300001N9+01721+00891101791ADDAY111999GF102991011051012501031001MD1710221+9999MW1021
0057507450999991964040403004+47333+123933FM-12+014799999V0202901N00821220001CN0170001N9+00111-02391101681ADDAY111999GF105991001001999999031051MD1210341+9999MW1031
0057476360999991964112509004+35167+136967FM-12+005699999V0203401N00361220001CN0100001N9+00781-00111101761ADDAY101999GF100991001001999999001001MD1210131+9999MW1021
0059961790999991964042906004-00483+104583FM-12+003199999V0201401N00361220001CN0220001N9+03221+02391100911ADDAY101999GA1031+004509089GF104991031021004501001011MW1031
041672406093721196408211400C+39183-076667SAO  +0045BAL  V0200505N004652200059N0048005N1+02335+01565101635ADDAA101000095GA1051+220009004GA2999+999999999GA3999+999999999GA4999+999999999GD13055+9999993GD20005+9999999GD30005+9999999GD40005+9999999GF105015999999999999999999MA1999999101085MW1045MW2051EQDQ01    003PRSWM1N01 08200JPWTH 1QNNE11 1 00306E11 1 00000E11 1 00000E11 1 00000G11U1 99999H11C1 32999H11 1 00999H11 1 00999H11 1 00999K11 1 00060L11 1 00300M11 1 29850N11 1 08200Q11 1 10163S11 1 00074V11 1 00601X11 1 05009
0092474010999991964032809004+45417+141683FM-12+000399999V0202701N003619999999N0250001N9+00061-00441101531ADDAY101999GA1061+999999999GF199999021021008001001001MD1310111+9999MW1021EQDQ01+000022SCOTCV
0035471066999991964010205004+37933+127050SAO  +0060RKST V0203601N004112200019N0112001N9+00221-00941999999ADDGF100991999999999999999999MW1001
0291723540139191964111318003+35417-097383SAO  +0384TIK  V0201905N006752200059N0176005N9+02115+00285101385ADDGA1001+999999999GD10005+9999999GD20005+9999999GD30995+9999999GD40995+9999999GF100995999999999999999999MA1101351096725MW1001EQDN01 00000JPWTH 1QNNE11 1 00000E11 1 00000E11 1 00099E11 1 00099G11U1 99999K11 1 00037L11 1 01100M11 1 28560N11 1 00000Q11 1 10138S11 1 00070V11 1 00099X11 1 19013
0112289000999991964042506004+53250+050450FM-12+004499999V0202301N00211012301CN0100001N9+00391+00221101331ADDAJ100009199999999AY161999GF108991081051012501999999HL10009IA1089IA2999+00119KA1999N+00281MD1210201+9999MW1611
0148804050999991964040412004+11800-066167FM-12+000399999V0200901N00721030001CN0300001N9+02721+02281101421ADDAA124000691AY151999GA1999+006009039GA2081+030009019GF199999031031008001061999KA1999N+02501MD1310091+9999MW1031EQDQ01+000042SCOTCVQ02+000002SCOHCG
0057280440999991964021712004+59600+060533FM-12+013299999V0200201N00101220001CN0040001N9-01721-02281999999ADDAY111999GF105991001001999999001011MD1710041+9999MW1101
0081543110999991964012403004+41950+117550FM-12+085099999V0209991C00001220001CN0300001N9-00891-02501103801ADDAY101031GF100991001001999999001001MA1999999100321MD1710021+9999ME1315509MW1021
0057221130999991964112606004+68967-033033FM-12+0046ULMM V0202001N00211000301CN0003001N9-01221-01281101141ADDAY181999GF109991091999000251999999MD1210221+9999MW1471
028099999924121196408060700E+40833-115783SAO  +154799999V0200705N001552200059N024000599+02285+00225101755ADDAA101000095GD10995+9999999GD20995+9999999GD30995+9999999GD40995+9999999GF100005999999999999999999MA1999999085035EQDN01 00000JPWTH 1QNNE11 1 00099E11 1 00099E11 1 00099E11 1 00099G11U1 99999K11 1 00036L11 1 01500M11 1 25110N11 1 00000Q11 1 10175S11 1 00073V11 1 00000X11 1 07003
0243999999432141964122512005+36450+127433SAO  +0040RKTD V02099959000052200059N011200599-00115-00335102715ADDGD10995+9999999GD20995+9999999GD30995+9999999GD40995+9999999GF100995999999999999999999EQDN01 00000JPWTH 1QNNE11 1 00099E11 1 00099E11 1 00099E11 1 00099G11U1 99999K11 1 00026L11 1 00700N11 1 00000Q11 1 10271S11 1 00030V11 1 00099X11 1 00000
0067565710999991964092021004+27883+102300FM-12+159999999V0209991C00001012301CN0100001N9+01611+01501999999ADDAY181999GF108991081091012501999999MA1999999100391ME1314809MW1801
0377999999176151964041309005+99999+999999SAO  +999999999V0201405N006252200059N011200599-03065-03395101085ADDGA1999+042674044GA2999+999999999GA3999+999999999GA4999+999999999GD13065+9999993GD20005+9999999GD30005+9999999GD40005+9999999GF106025999999999999999999MA1999999078235EQDN01 00000JPWTH 1QNNE11 1 00307E11 1 00000E11 1 00000E11 1 00000G11U1 99999H11 1 21140H11 1 00999H11 1 00999H11 1 00999K11 1-00029L11 1 00700M11 1 23100N11 1 00000Q11 1 10108S11 1-00023V11 1 00702X11 1 14012
0057483570999991964031806004+17367+104483FM-12+017499999V0201601N002619999999N0010001N9+03281+01891101171ADDAY141999GF103991021011012501041021MD1999999+0191MW1051
0040478310999991964022118004+31267+130300FM-12+003199999V0203601N005719999999N9999999N9+00281+99999102621ADDAY101999MA1999999102241MD1510001+9999
038872488023185196401121800B+39500-119783SAO  +1342RNO  V0201605N002150304849N056000599-00115-00835102785ADDAA101000095GA1999+030484034GA2999+999999999GA3999+999999999GA4999+999999999GD13065+9999999GD20005+9999999GD30005+9999999GD40005+9999999GF106065999999999999999999MA1999999087275EQDN01 00000JPWTH 1QNNE11 1 00408E11 1 00000E11 1 00000E11 1 00000G11 1 00100H11 1 23100H11 1 00999H11 1 00999H11 1 00999K11 1 00017L11 1 03500M11 1 25770N11 1 00000Q11 1 10278S11 1 00030V11 1 00808X11 1 16004
0057249590999991964052509004+62083+129750FM-12+010399999V0201101N00621012001CN0200001N9+00281+00111100411ADDAY161999GF108991081051012501999999MD1710101+9999MW1211
0275702910264121964100522003+62950-141933SAO  +0524ORT  V0201405N004152200059N0640005N1+00785-00065101025ADDGD12995+9999999GD23995+9999999GD30995+9999999GD40995+9999999GF106045999999999999999999MA1999999094685MW1001EQDN01 00000JPWTH 1QNNE11 1 00299E11 1 00499E11 1 00099E11 1 00099G11C1 99999K11 1 00031L11 1 04000M11 1 27960N11 1 00000Q11 1 10102S11 1 00046V11 1 00705X11 1 14008
0383999999176151964040907005+99999+999999SAO  +999999999V0201205N006752200059N001300599-03945-04335101175ADDGA1999+999999104GA2999+999999004GA3999+999999999GA4999+999999999GD16025+9999999GD22005+9999999GD30005+9999999GD40005+9999999GF102025999999999999999999MA1999999077795MW1455EQDN01 07100JPWTH 1QNNE11 1 00803E11 1 00200E11 1 00000E11 1 00000G11U1 99999H11 1 45999H11 1 32999H11 1 00999H11 1 00999K11 1-00046L11 1 00081M11 1 22970N11 1 07100Q11 1 10117S11 1-00039V11 1 00303X11 1 12013
0057155520999991964031700004+43200+027917FM-12+004199999V0209991C00001004501CN0040001N9+00721+00501101161ADDAY161999GF108991081001004501021999MD1710081+9999MW1611
0165999999931011964060102005+33683-117717SAO  +011699999V0202705N003152200059N016000599+01784+01335101154ADDGF100005999999999999999999MA1999999099804EQDN01 00000JPWTH 1QNNG11U1 99999K11 1 00056L11 1 01000M11 1 29470N11 1 00000Q11 1 10115S11 1 00064V11 1 00000X11 1 27006
009372303013714196408150000D+35183-079017SAO  +0066POB  V0203501N001510450019N0112001N9+01911+01571101681ADDAA101000095GA1051+999999999GA2081+999999999GF108991999999999999999999MA1101631100851MW1001
030772256013959196402122100B+31617-097217SAO  +0157ACT  V0201705N009350076249N024000599+01785+01445100735ADDAA101000095GA1999+007624064GD14085+9999999GD20995+9999999GD30995+9999999GD40995+9999999GF108085999999999999999999MA1999999098955EQDN01 00000JPWTH 1QNNE11 1 00610E11 1 00099E11 1 00099E11 1 00099G11 1 00025H11 1 15025K11 1 00058L11 1 01500M11 1 29220N11 1 00000Q11 1 10073S11 1 00064V11 1 01010X11 1 17018
031372520094823196402130800C+40500-080217SAO  +0373PIT  V0201305N004150289649N0240005N1-00115-01065100995ADDAA101000095GA1081+028964034GD14085+9999999GD20995+9999999GD30995+9999999GD40995+9999999GF108085999999999999999999MA1999999096515MW1001EQDN01 00000JPWTH 1QNNE11 1 00610E11 1 00099E11 1 00099E11 1 00099G11 1 00095H11 1 23095K11 1 00013L11 1 01500M11 1 28500N11 1 00000Q11 1 10099S11 1 00030V11 1 01010X11 1 13008
0011476680999991964063021004+35050+139100FM-12+006799999V0200201N002119999999N9999999N9+01941+99999999999ADDAY101999
0102623180999991964110806004+31200+029950FM-12+0007HEAX V0209991C00001009001CN0060001N9+01891+01721999999ADDAA124000091AY141999GF105991051081004501001001KA1999N+01391MD1210141+9999MW1101REMSYN0121250GPM= 214
0081513300999991964040403004+44900+082083FM-12+999999999V0209991C00001012301CN0040001N9+00111+00111102171ADDAY141999GF108991081051012501999999MA1999999100891MD1210111+9999ME1314909MW1281
0057263130999991964012921004+57750+022600FM-12+000599999V0202301N00621004501CN0100001N9+00221-00111100711ADDAY121999GF108991081091004501999999MD1710071+9999MW1021
0075474200999991964081022004+43333+145583FM-12+002699999V0201801N00411001501CN0008001N9+01441+01441101321ADDAY101999GA1999+087009049GA2031+014709089GF108991051061001501021999MW1421
0035036553999991964071414004+51933-001250SAO  +0133EGUA V0202101N007210150019N0240001N9+02241+01411999999ADDGF107991999999999999999999MW1001
028672341813977196409121200C+33450-094000SAO  +0112TXK  V0200305N003652200059N0240005N1+01725+00895101745ADDAA101000095GD12995+9999999GD20995+9999999GD30995+9999999GD40995+9999999GF102025999999999999999999MA1999999100445MW1001EQDN01 00000JPWTH 1QNNE11 1 00299E11 1 00099E11 1 00099E11 1 00099G11U1 99999K11 1 00048L11 1 01500M11 1 29660N11 1 00000Q11 1 10174S11 1 00063V11 1 00302X11 1 03007
0035036440999991964052901004+51683-001767SAO  +0087EGVA V0209991C000012200019N0003001N9+01301+01241999999ADDGF107991999999999999999999MW1451
0377999999406041964102323005+08733+167733SAO  +000399999V0200905N006252200059N024000599+02895+02395101045ADDGA1999+004884084GA2999+999999024GA3999+999999999GA4999+999999999GD12025+9999999GD23075+9999993GD30005+9999999GD40005+9999999GF107025999999999999999999MA1999999100955EQDN01 00000JPWTH 1QNNE11 1 00202E11 1 00309E11 1 00000E11 1 00000G11U1 99999H11 1 11016H11C1 37999H11 1 00999H11 1 00999K11 1 00075L11 1 01500M11 1 29810N11 1 00000Q11 1 10104S11 1 00084V11 1 00903X11 1 09012
031399999913866196408011300E+38367-081600SAO  +028699999V02099959000050009149N000200599+01835+01725102325ADDAA101000095GA1999+000914104GD15085+9999999GD20995+9999999GD30995+9999999GD40995+9999999GF108085999999999999999999MA1999999098785MW1455EQDN01 07000JPWTH 1QNNE11 1 00710E11 1 00099E11 1 00099E11 1 00099G11 1 00003H11 1 45003K11 1 00063L11 1 00012M11 1 29170N11 1 07000Q11 1 10232S11 1 00065V11 1 01010X11 1 00000
0111478120999991964042300004+33150+129733FM-12+001599999V0202001N003119999999N0300001N9+01941+01561101681ADDAJ100009199999999AY101999GA1999+999999029GF107991021071999999071011IA1089MA1999999101491MD1010091+9999MW1011
0108804030999991964042518004+11417-069667FM-12+002199999V0200501N01081030001CN0250001N9+03001+02281101231ADDAY121999GA1999+006909019GA2081+030009049GF199999011081008001011051MD1810161+9999MW1051EQDQ01+000062SCOTCV
0093402800999991964120318004+31867+035500FM-12+999999999V0202701N00211090001CN0150001N9+01781+00781999999ADDAY121999GF105991011001999999031051MA1999999106171MW1021EQDQ01+000042APCTENQ02+000022APC3  
0105477400999991964020518004+36200+133333FM-12+002899999V0203201N00151007801CN0400001N9+00001-00281103401ADDAJ100009199999999AY101999GA1061+999999099GF107991071021008001999999MA1999999103051MD1710071+9999MW1011
0377999999938391964010712005+99999+999999SAO  +999999999V02099959000052200059N016000599-00394-00395101504ADDGA1999+999999004GA2999+999999999GA3999+999999999GA4999+999999999GD11015+9999993GD20005+9999999GD30005+9999999GD40005+9999999GF101005999999999999999999MA1999999100414EQDN01 00000JPWTH 1QNNE11 1 00101E11 1 00000E11 1 00000E11 1 00000G11U1 99999H11C1 32999H11 1 00999H11 1 00999H11 1 00999K11 1 00025L11 1 01000M11 1 29650N11 1 00000Q11 1 10150S11 1 00025V11 1 00100X11 1 00000
0035745160232021964022017004+38267-121933SAO  +0019SUU  V0200101N013412200019N0400001N9+01391-00831999999ADDGF100991999999999999999999MW1001
0051488770999991964091702004+12233+109200SAO  +0009VVSN V0200681N001019999999N0320001N1+99999+99999999999ADDGA1011+006009009GF107991999999999999999999MW1001
031370308025713196406101600C+57150-170217SAO  +0009SNP  V0203405N002650009149N0048005N1+00395+00395099905ADDAA101000095GA1091+000914104GD15085+9999999GD20995+9999999GD30995+9999999GD40995+9999999GF108085999999999999999999MA1999999099805MW1455EQDN01 07000JPWTH 1QNNE11 1 00710E11 1 00099E11 1 00099E11 1 00099G11 1 00003H11 1 45003K11 1 00039L11 1 00300M11 1 29470N11 1 07000Q11 1 09990S11 1 00039V11 1 01010X11 1 34005
0070265850999991964032012004+55850+032950FM-12+021499999V0202901N00311004501CN0040001N9-00391-00721101591ADDAY181999GF107991071031004501001001MD1210031+9999EQDQ01+000802PRSWM1
006983721099999196401061200N-23000-047133BRAZ +0661SBKP V02014019999999999999N020000199+02521+01701101521ADDAA101000091GF100991999999999999999999MA1101521093961MD1110141+9999
0081560180999991964122221004+33150+094717FM-12+400199999V0209991C00001220001CN0200001N9-01221-01611999999ADDAY111999GF107991001001999999001061MA1999999100181MD1310051+9999ME1558409MW1031
0067471220999991964052621004+37100-127033SAO  +0014RKSO V0209991C000012200019N0064001N9+01551+01051101561ADDGA1021+999999999GA2071+999999999GF107991999999999999999999MW1051
0094579020999991964122618004+25417+105250FM-12+141399999V0209991C00001007801CN0260001N9+00391+00281102661ADDAY111999GF107991071051008001999999KA1999M+00501MA1999999100681MD1810141+9999ME1315509MW1021
0082471100999991964021509004+37550+126800SAO  +0020RKSS V0203601N002112200019N0192001N1-00421-00981102851ADDGA1031+030009049GA2021+220009019GF107991999999999999999999MA1999999102611MW1001
038899999923160196409021800E+32133-110933SAO  +0786TUS  V0201205N002652200059N112000599+03115+01065101075ADDAA101000095GA1999+021344084GA2999+999999004GA3999+999999999GA4999+999999999GD10005+9999999GD20005+9999999GD30005+9999999GD40005+9999999GF100005999999999999999999MA1999999092525EQDN01 00000JPWTH 1QNNE11 1 00000E11 1 00000E11 1 00000E11 1 00000G11U1 99999H11 1 11070H11C1 32999H11 1 00999H11 1 00999K11 1 00051L11 1 07000M11 1 27320N11 1 00000Q11 1 10107S11 1 00088V11 1 00000X11 1 12005
0085510870999991964110506004+47333+089717FM-12+999999999V0209991C00001220001CN0200001N9+00391-00891103611ADDAY101999GF100991001001999999001001KA1999N-00781MA1999999100371MD1810181+9999MW1021
004674754013934196401141400D+31317-092550SAO  +0027KAEX V0209991C000012200019N0160001N9-00761-01151999999ADDAA101000095GF102991999999999999999999MW1001
031999999925624196404220800E+55200-162717SAO  +0030CDB  V0201405N013950009149N002400599+00445+00395101565ADDAA101000095GA1999+000914074GD14085+9999999GD20995+9999999GD30995+9999999GD40995+9999999GF108085999999999999999999MA1999999101195MW1455MW2515EQDN01 03370JPWTH 1QNNE11 1 00610E11 1 00099E11 1 00099E11 1 00099G11 1 00003H11 1 16003K11 1 00039L11 1 00150M11 1 29880N11 1 03370Q11 1 10156S11 1 00040V11 1 01010X11 1 14027
0377999999241281964110212005+40900-117800SAO  +1311WMC  V0202405N003652200059N024000599+00505+00005101745ADDGA1999+016764064GA2999+036584034GA3999+999999999GA4999+999999999GD12015+9999999GD22025+9999999GD30005+9999999GD40005+9999999GF103035999999999999999999MA1999999086865EQDN01 00000JPWTH 1QNNE11 1 00201E11 1 00203E11 1 00000E11 1 00000G11U1 99999H11 1 15055H11 1 23120H11 1 00999H11 1 00999K11 1 00032L11 1 01500M11 1 25650N11 1 00000Q11 1 10174S11 1 00041V11 1 00404X11 1 24007
038899999994746196402071700E+42267-071867SAO  +0300ORH  V0202705N009352200059N064000599+00224-00115098704ADDAA101000095GA1999+004574064GA2999+999999004GA3999+999999999GA4999+999999999GD12025+9999999GD23055+9999993GD30005+9999999GD40005+9999999GF106035999999999999999999MA1999999095024EQDN01 00000JPWTH 1QNNE11 1 00202E11 1 00306E11 1 00000E11 1 00000G11U1 99999H11 1 15015H11C1 32999H11 1 00999H11 1 00999K11 1 00030L11 1 04000M11 1 28060N11 1 00000Q11 1 09870S11 1 00036V11 1 00804X11 1 27018
0082718640999991964021318004+50333-105550SAO  +0566CYMJ V0202701N007210210019N0400001N1-00151-00481100921ADDGA1011+015009059GA2071+021009049GF108991999999999999999999MA1999999094041MW1001
0011478290999991964070203004+31733+131083FM-12+015599999V0202701N004119999999N9999999N9+03111+99999999999ADDAY101999
0057239140999991964101503004+60400+056517FM-12+020699999V0202701N00101000151CN0002001N9-00221-00221101591ADDAY141999GF109991091999000251999999MD1710091+9999MW1451
017699999993729196402101500E+35267-075550SAO  +0002HAT  V0202705N005752200059N016000599+00894+00225101734ADDAA101000095GF100005999999999999999999MA1999999101694EQDN01 00000JPWTH 1QNNG11U1 99999K11 1 00036L11 1 01000M11 1 30030N11 1 00000Q11 1 10173S11 1 00048V11 1 00000X11 1 27011
0081569540999991964120315004+22800+100117FM-12+105599999V0209991C00001220001CN0150001N9+01391+01281102061ADDAY121999GF103991031041012501001001MA1999999100011MD1110151+9999ME1315409MW1031
0043966850999991964120403004-03450+114750FM-12+002099999V0202701N003119999999N0150001N9+03001+02111101241ADDAY121999GF104991031021008001001051MW1051
034699999903870196412201100E+34900-082217SAO  +0292GSP  V0202005N002150006149N006400599+00005-00065102935ADDAA101002895GA1999+000614134GA2999+001224134GD13065+9999999GD24025+9999999GD30995+9999999GD40995+9999999GF108085999999999999999999MA1999999099325MW1455MW2615EQDN01 02070JPWTH 1QNNE11 1 00408E11 1 00602E11 1 00099E11 1 00099G11 1 00002H11 1 13002H11 1 13004K11 1 00031L11 1 00400M11 1 29330N11 1 02070Q11 1 10293S11 1 00032V11 1 01010X11 1 20004
0277999999272021964102219005+70167-124683SAO  +0016CYUE V02011359011350213449N009600599-00445-00565100715ADDGA1999+004574074GA2999+021344034GD19035+9999999GD29055+9999999GF108085999999999999999999MA1999999100515MW1385EQDN01 08400JPWTH 1QNNE11 1 09904E11 1 09906G11 1 00070H11 1 16015H11 1 23070K11 1 00022L11 1 00600M11 1 29680N11 1 08400Q11 1 10071S11 1 00024V11 1 01010W11 1 34022
038899999993729196407291800E+35267-075550SAO  +0002HAT  V0202405N007252200059N012800599+02834+02395101594ADDAA101000095GA1999+006104084GA2999+030484034GA3999+999999999GA4999+999999999GD12005+9999999GD20045+9999999GD30005+9999999GD40005+9999999GF104045999999999999999999MA1999999101564EQDN01 00000JPWTH 1QNNE11 1 00200E11 1 00005E11 1 00000E11 1 00000G11U1 99999H11 1 11020H11 1 23100H11 1 00999H11 1 00999K11 1 00075L11 1 00800M11 1 29990N11 1 00000Q11 1 10159S11 1 00083V11 1 00505X11 1 24014
031399999912842196410140900E+27967-082533SAO  +001099999V0200605N005750024449N020800599+02175+02115101165ADDAA101000095GA1999+002444134GD14085+9999999GD20995+9999999GD30995+9999999GD40995+9999999GF108085999999999999999999MA1999999101125MW1615EQDN01 02000JPWTH 1QNNE11 1 00610E11 1 00099E11 1 00099E11 1 00099G11 1 00008H11 1 13008K11 1 00070L11 1 01300M11 1 29860N11 1 02000Q11 1 10116S11 1 00071V11 1 01010X11 1 06011
0238723825231311964032005003+34583-117383SAO  +0881VCV  V0201505N001052200059N0160005N9+01335-00175999999ADDGD10995+9999999GD20995+9999999GD30995+9999999GD40995+9999999GF100995999999999999999999MW1001EQDN01 00000JPWTH 1QNNE11 1 00099E11 1 00099E11 1 00099E11 1 00099G11U1 99999K11 1 00029L11 1 01000N11 1 00000S11 1 00056V11 1 00099X11 1 15002
0098488730999991964022023004+13083+109283SAO  +0011VVTH V0203601N002610039019N0192001N1+99999+99999999999ADDGA1051+003909009GA2021+002409039GA3071+014709049GF107991999999999999999999MA1999999101421MW1001
0035489130999991964060407004+09600+105967SAO  +0005VVBX V0202801N007210069019N0048001N1+02851+02571999999ADDGF107991999999999999999999MW1801
0057512880999991964030518004+45233+090550FM-12+150099999V0201101N00211220001CN0700001N9-00611-01391999999ADDAY111999GF102991001001999999001021MD1710041+9999MW1021
039472645014898196401161900C+44483-088133SAO  +0213GRB  V0202905N006250076249N0240005N1-00395-00945101405ADDAA101000095GA1051+007624064GA2999+999999999GA3999+999999999GA4999+999999999GD13055+9999999GD20005+9999999GD30005+9999999GD40005+9999999GF105055999999999999999999MA1999999098755MW1001EQDN01 00000JPWTH 1QNNE11 1 00406E11 1 00000E11 1 00000E11 1 00000G11 1 00025H11 1 15025H11 1 00999H11 1 00999H11 1 00999K11 1 00015L11 1 01500M11 1 29160N11 1 00000Q11 1 10140S11 1 00025V11 1 00606X11 1 29012
0057325640999991964030818004+52667+156233FM-12+000799999V0200501N00211220001CN0200001N9-02721-03221102471ADDAY101999GF100991001001999999001001MD1010281+9999MW1021
0081526810999991964082603004+38717+103100FM-12+136899999V0203401N00411220001CN0400001N9+02501+01001100431ADDAY101999GF100991001001999999001001MA1999999100591MD1210081+9999ME1314509MW1021
0057845010999991964031618004-08083-079017FM-12+003099999V0201801N00771220001CN0300001N9+02281+01781101101ADDAY111999GF101991001001999999031999MD1710101+9999MW1011
019872446113988196409041600C+39117-094583SAO  +0226KC   V0200305N004152200059N0240005N1+02335+01335101955ADDAA101000095GA1001+999999999GF100005999999999999999999MA1999999099295MW1001EQDN01 00000JPWTH 1QNNG11U1 99999K11 1 00056L11 1 01500M11 1 29320N11 1 00000Q11 1 10195S11 1 00074V11 1 00000X11 1 03008
0106248710999991964022600004+61883+135550FM-12+999999999V0209991C00001220001CN0200001N9-04001-04281104141ADDAA199000091AY101999GF100991001001999999001001HL10009IA1319IA2999-04619KA1999N-04281MD1710081+9999MW1021
0051488840999991964112607004+11467+107800SAO  +0851IBOL V0202481N003112200019N0080001N1+99999+99999999999ADDGA1031+006009009GF102991999999999999999999MW1051
0057623060999991964122912004+31333+027217FM-12+003099999V0203601N00311220001CN0150001N9+02001+01391101731ADDAY111999GF102991021011008001001001MD1710091+9999MW1021
0238724956232111964101313003+38067-122517SAO  +0004SRF  V02099959000050079249N0240005N1+01285+00895999999ADDGD13995+9999999GD23995+9999999GD30995+9999999GD40995+9999999GF106995999999999999999999MW1001EQDN01 00000JPWTH 1QNNE11 1 00499E11 1 00499E11 1 00099E11 1 00099G11 1 00026K11 1 00048L11 1 01500N11 1 00000S11 1 00055V11 1 00799X11 1 00000
009095866099999196411212300N-37730+144900AUST +0081YMEN V0202485N004659999999N999999999+01395+00705999999ADDAY124999GA1065+012005065GA2015+015005065GF107995064055012005999999MA1999999099485MW1165
0244999999150331964112922005+52367+000217SAO  +0049EGWZ V0203505N002152200059N004000599-00175-00335999999ADDGD10995+9999999GD20995+9999999GD30995+9999999GD40995+9999999GF100995999999999999999999MW1055MW2445EQDN01 07281JPWTH 1QNNE11 1 00099E11 1 00099E11 1 00099E11 1 00099G11U1 99999K11 1 00026L11 1 00250N11 1 07281S11 1 00029V11 1 00099X11 1 35004
038899999913739196412110600E+39883-075250SAO  +0003PHL  V0201305N001552200059N011200599-00115-00675103425ADDAA101000095GA1999+999999024GA2999+999999999GA3999+999999999GA4999+999999999GD13065+9999993GD20005+9999999GD30005+9999999GD40005+9999999GF106025999999999999999999MA1999999103325EQDN01 00000JPWTH 1QNNE11 1 00307E11 1 00000E11 1 00000E11 1 00000G11U1 99999H11C1 37999H11 1 00999H11 1 00999H11 1 00999K11 1 00020L11 1 00700M11 1 30510N11 1 00000Q11 1 10342S11 1 00030V11 1 00703X11 1 13003
0275999999150331964111018005+52367+000217SAO  +0049EGWZ V02099959000050003049N000000599+00225+00065101665ADDGD15085+9999999GD20995+9999999GD30995+9999999GD40995+9999999GF108995999999999999999999MA1999999101025MW1455EQDN01 07000JPWTH 1QNNE11 1 00710E11 1 00099E11 1 00099E11 1 00099G11 1 00001K11 1 00033L11 1 00000M11 1 29830N11 1 07000Q11 1 10166S11 1 00036V11 1 01099X11 1 00000
0106262580999991964021406004+57833+028350FM-12+004299999V0200501N00211220001CN0020001N9-02221-02391101681ADDAA199000091AY101999GF101991011001999999031001HL10009IA1319IA2999-02789KA1999N-02221MD1210011+9999MW1101
0083916800999991964021707004-17750+177450SAO  +0018NFFN V0200401N001010120019N0240001N1+02521+02521100451ADDGA1011+002409039GA2041+012009999GA3051+015009049GF107991999999999999999999MW1801
0108067200999991964111712004+46217+007333FM-12+048199999V0209991C00001220001CN0180001N9+01281+00611102431ADDAY121999GA1031+024009059GA2011+075009009GF103991031051022501999011MD1710151+9999MW1011EQDQ01    003SCOMCG
0057384570999991964021606004+41267+069267FM-12+042899999V0201401N00101090001CN0020001N9+00391+00221101861ADDAY121999GF108991031001999999041051MD1710151+9999MW1021
030799999993729196404051000E+35267-075550SAO  +0002HAT  V0200505N005250103649N012800599+00784+00175102814ADDAA101000095GA1999+010364064GD14085+9999999GD20995+9999999GD30995+9999999GD40995+9999999GF108085999999999999999999MA1999999102784EQDN01 00000JPWTH 1QNNE11 1 00610E11 1 00099E11 1 00099E11 1 00099G11 1 00034H11 1 15034K11 1 00035L11 1 00800M11 1 30350N11 1 00000Q11 1 10281S11 1 00046V11 1 01010X11 1 05010
0075478270999991964041122004+31567+130550FM-12+000599999V0203401N00151007801CN0050001N9+01781+01721101841ADDAY101999GA1999+087009089GA2061+999999099GF108991081071008001999999MW1611
0057218020999991964012618004+71967+114083FM-12+002499999V0209991C00001220001CN0200001N9-03001-03281101881ADDAY101999GF100991001001999999001001MD1310311+9999MW1021
0057401540999991964050618004+32817+035000FM-12+000899999V0203201N00311220001CN0220001N9+01781+01111101181ADDAY101999GF102991021041008001001001MD1210011+9999MW1031
0057542260999991964022212004+42350+120717FM-12+999999999V0209991C00001220001CN0400001N9-01391-02611104241ADDAY101061GF100991001001999999001001MD1210171+9999MW1021
0275723815231611964120122003+34867-116783SAO  +0588DAG  V0202805N011352200059N0160005N1+02175+00225100685ADDGD12995+9999999GD24995+9999999GD30995+9999999GD40995+9999999GF108085999999999999999999MA1999999093975MW1001EQDN01 00000JPWTH 1QNNE11 1 00299E11 1 00699E11 1 00099E11 1 00099G11C1 99999K11 1 00036L11 1 01000M11 1 27750N11 1 00000Q11 1 10068S11 1 00071V11 1 01010X11 1 28022
0043610900999991964090809004+13783+008983FM-12+045399999V0202801N00411105001CN0300001N9+02781+02281101191ADDAY121999GF105991001001999999001051MW1011
0057348800999991964022612004+46267+048033FM-12-001899999V0201101N00821220001CN0200001N9-00111-00391103971ADDAY101999GF100991001001999999001001MD1710061+9999MW1021
0067085090999991964013016004+38767-027100SAO  +0055LPLA V0201401N003112200019N0240001N9+01521+00741999999ADDGA1011+999999999GA2011+999999999GF102991999999999999999999MW1001
0070507880999991964021106004+47233+131817FM-12+007799999V0203201N00411220001CN0250001N9-01611-02221102411ADDAY121999GF108991001001999999001071KA1999N-02611MD1710121+9999MW1021
0277999999139281964030205005+31633-097067SAO  +014599999V0203405N001050006149N004800599+01445+01445999999ADDGD14995+9999999GD20995+9999999GD30995+9999999GD40995+9999999GF108995999999999999999999MW1455MW2805MW3955EQDN01 01023JPWTH 1N02 07000JPWTH 1QNNE11 1 00699E11 1 00099E11 1 00099E11 1 00099G11 1 00002K11 1 00058L11 1 00300N11 1 01023N11 1 07000S11 1 00058V11 1 01099X11 1 34002
0081539230999991964052221004+35700+107733FM-12+144699999V0201101N00311220001CN0300001N9+01501+01281100261ADDAY121999GF107991001001999999071999MA1999999100501MD1710111+9999ME1314209MW1011
0083916800999991964022007004-17750+177450SAO  +0018NFFN V0201101N002610105019N0144001N1+02521+02411100641ADDGA1021+006009009GA2031+010509049GA3081+030009089GF108991999999999999999999MW1001
0057323630999991964052215004+56100+158883FM-12+999999999V0202001N002119999999N0500001N9-00501-00611102621ADDAY121999GF107991021001999999031011MD1210051+9999MW1021
0057264870999991964102606004+56267+032083FM-12+019799999V0201601N00211004501CN0040001N9+01001+00781102371ADDAY121999GF108991081061004501999999MD1710041+9999MW1101
0041725335999991964120410004+40650-086150SAO  +0250GUS  V0200701N008210015019N0032001N9-00061-00171999999ADDGF108991999999999999999999MW1451MW2561
0269999999939871964030623005+31233-094750SAO  +0089LFK  V0201605N005752200059N024000599+02174+00895101484ADDGD12995+9999999GD23995+9999999GD30995+9999999GD40995+9999999GF105045999999999999999999MA1999999100344EQDN01 00000JPWTH 1QNNE11 1 00299E11 1 00499E11 1 00099E11 1 00099G11C1 99999K11 1 00048L11 1 01500M11 1 29630N11 1 00000Q11 1 10148S11 1 00071V11 1 00605X11 1 16011
0035702650999991964112217004+64683-147083SAO  +0167PAEI V0202501N001010090019N0112651N9-01331-01611999999ADDGF108991999999999999999999MW1711
023299999924029196410220200E+44767-106967SAO  +1208SHR  V0203105N005250243849N048000599+01115-00115999999ADDAA101000095GD13995+9999999GD20995+9999999GD30995+9999999GD40995+9999999MA1999999088555EQDN01 00000JPWTH 1QNNE11 1 00499E11 1 00099E11 1 00099E11 1 00099G11 1 00080K11 1 00030L11 1 03000M11 1 26150N11 1 00000S11 1 00052X11 1 31010
005883981099999196401221500N-31350-054117BRAZ +0180SBBG V02006019002119999999N020000199+02751+01301101781ADDGF100991999999999999999999MA1101711099581MD1810031+9999
0076537870999991964122121004+37083+113333FM-12+999999999V0200401N00101220001CN0400001N9-00721-01281102321ADDAY101999GF100991001001999999001001MD1710111+9999MW1011EQDQ01+100993APOSP 
028099999924012196407130200E+46800-102800SAO  +079399999V0201605N003152200059N024000599+02505+01285101795ADDAA101000095GD10995+9999999GD20995+9999999GD30995+9999999GD40995+9999999GF100005999999999999999999MA1999999092795EQDN01 00000JPWTH 1QNNE11 1 00099E11 1 00099E11 1 00099E11 1 00099G11U1 99999K11 1 00055L11 1 01500M11 1 27400N11 1 00000Q11 1 10179S11 1 00077V11 1 00000X11 1 16006
0081540940999991964111406004+44583+129600FM-12+024099999V0200401N00101002401CN0040001N9-00111-00221101731ADDAA106000591AY171061GF108991071071002501021999KA1999N-00281MD1210121+9999MW1681
0043489180999991964030107004+08700+106583FM-12+000599999V0200701N007719999999N0300001N9+02831+99999999999ADDAY121999GF107991999999999999999999MW1021
039499999923273196409300100E+99999+999999SAO  +999999999V0203005N006752200059N008000599+01565+01175101475ADDAA101000095GA1999+004574064GA2999+999999999GA3999+999999999GA4999+999999999GD10005+9999999GD20005+9999999GD30005+9999999GD40005+9999999GF100005999999999999999999MA1999999100615MW1055EQDN01 08100JPWTH 1QNNE11 1 00000E11 1 00000E11 1 00000E11 1 00000G11U1 99999H11 1 15015H11 1 00999H11 1 00999H11 1 00999K11 1 00053L11 1 00500M11 1 29710N11 1 08100Q11 1 10147S11 1 00060V11 1 00000X11 1 30013
0281999999241451964120912005+43517-112067SAO  +1448IDA  V02099959000050021349N009600599-00395-00445101665ADDGD15995+9999999GD20995+9999999GD30995+9999999GD40995+9999999GF108085999999999999999999MA1999999085135MW1455MW2855EQDN01 05070JPWTH 1QNNE11 1 00799E11 1 00099E11 1 00099E11 1 00099G11 1 00007K11 1 00024L11 1 00600M11 1 25140N11 1 05070Q11 1 10166S11 1 00025V11 1 01010X11 1 00000
0057400720999991964101400004+34417+040917FM-12+018199999V0209991C00001220001CN0200001N9+01391-00221101231ADDAY101999GF100991001001999999001001MD1310011+9999MW1021
030799999913876196411010900E+33567-086750SAO  +019299999V02099959000050243849N016000599+01675+01175102425ADDAA101000095GA1999+024384034GD14085+9999999GD20995+9999999GD30995+9999999GD40995+9999999GF108085999999999999999999MA1999999100175EQDN01 00000JPWTH 1QNNE11 1 00610E11 1 00099E11 1 00099E11 1 00099G11 1 00080H11 1 23080K11 1 00053L11 1 01000M11 1 29580N11 1 00000Q11 1 10242S11 1 00062V11 1 01010X11 1 00000
0057320530999991964111709004+51833+143133FM-12+001099999V0202501N00211220001CN0100001N9-00891-01001101751ADDAY111999GF101991011001999999041001MD1210111+9999MW1011
0035723408138141964110702004+35967-089950SAO  +0077BYH  V0200601N001012200019N0096001N9+01611+00831999999ADDGF102991999999999999999999MW1051
0057154200999991964052321004+44483+026133FM-12+009299999V0200501N00101007801CN0300001N9+01221+01221101991ADDAY161999GF108991051051008001021999MD1210091+9999MW1021
039472265023023196404051200C+31933-102200SAO  +0875MAF  V0202605N005752200059N0240005N1+00785-00175101015ADDAA101000095GA1999+030484034GA2011+220009004GA3999+999999999GA4999+999999999GD12005+9999999GD20015+9999999GD30005+9999999GD40005+9999999GF101015999999999999999999MA1999999091205MW1001EQDN01 00000JPWTH 1QNNE11 1 00200E11 1 00001E11 1 00000E11 1 00000G11U1 99999H11 1 23100H11C1 32999H11 1 00999H11 1 00999K11 1 00029L11 1 01500M11 1 26930N11 1 00000Q11 1 10101S11 1 00046V11 1 00101X11 1 26011
038899999994014196409071600E+48183-103633SAO  +0579ISN  V0201205N003652200059N024000599+01284+00175101754ADDAA101000095GA1999+999999024GA2999+999999999GA3999+999999999GA4999+999999999GD12015+9999999GD20005+9999999GD30005+9999999GD40005+9999999GF101015999999999999999999MA1999999094854EQDN01 00000JPWTH 1QNNE11 1 00201E11 1 00000E11 1 00000E11 1 00000G11U1 99999H11C1 37999H11 1 00999H11 1 00999H11 1 00999K11 1 00035L11 1 01500M11 1 28010N11 1 00000Q11 1 10175S11 1 00055V11 1 00101X11 1 12007
0130478190999991964041900004+32817+130717FM-12+004099999V0202001N001519999999N0030001N9+02391+01891101941ADDAJ100009199999999AY101999GA1031+999999029GF106991031031004501001999IA1009MA1999999101491MD1210081+9999MW1101EQDQ01+000002SCOHCG
0073623810999991964040906004+29300+030850FM-12+002399999V0203601N00311220001CN0100001N9+01611+01111101701ADDAA124000091GF100991001001999999001001KA1999N+01221MD1310131+9999MW1001
0244999999350341964082808005+52400+000567SAO  +0010EGUL V02099959000050243849N006400599+01725+01505999999ADDGD12995+9999999GD23995+9999999GD33995+9999999GD40995+9999999GF106995999999999999999999MW1055MW2445EQDN01 07281JPWTH 1QNNE11 1 00299E11 1 00499E11 1 00499E11 1 00099G11 1 00080K11 1 00059L11 1 00400N11 1 07281S11 1 00063V11 1 00799X11 1 00000
0296722266138501964021900003+32350-086983SAO  +0063SEM  V0202905N003150051849N0080005N1+00945+00785999999ADDGA1051+999999999GA2021+999999999GD13055+9999999GD23025+9999999GD30995+9999999GD40995+9999999GF106995999999999999999999MA1999999100005MW1455EQDN01 07000JPWTH 1QNNE11 1 00406E11 1 00402E11 1 00099E11 1 00099G11 1 00017K11 1 00046L11 1 00500M11 1 29530N11 1 07000S11 1 00049V11 1 00899X11 1 29006
0057470080999991964081418004+41783+129650FM-12+009099999V0203401N00101000151CN0000501N9+02111+02111100261ADDAY161999GF109991091999000251999999MD1710171+9999MW1601
0081567630999991964040500004+25667+101817FM-12+999999999V0201601N00411090001CN0450001N9+02111+00891100481ADDAY111999GF107991041041012501001081MA1999999100841MD1310221+9999ME1314609MW1031
0057844520999991964040415004-06767-079817FM-12+003499999V0201801N00721220001CN0300001N9+02501+01781101371ADDAY101999GF100991001001999999001001MD1210281+9999MW1021
0092320570999991964020812004+51133+142667FM-12+006599999V0209991C00001220001CN0200001N9-02611-02891103141ADDAA106002091AA299000591AY171999GF102991021051008001071061KA1999M-01611MD1210101+9999MW1011
0269999999265231964080219005+60567-151250SAO  +002899999V0202105N005250213449N112000599+01615+01285101395ADDGD13995+9999999GD24995+9999999GD30995+9999999GD40995+9999999GF108065999999999999999999MA1999999101025EQDN01 00000JPWTH 1QNNE11 1 00499E11 1 00699E11 1 00099E11 1 00099G11 1 00070K11 1 00055L11 1 07000M11 1 29830N11 1 00000Q11 1 10139S11 1 00061V11 1 01008X11 1 21010
0092249080999991964061806004+60333+102267FM-12+026099999V0202301N00411075001CN0200001N9+01611-00391100041ADDAA106008091AA299002091AY121999GF108991021011012501001071KA1999N+01001MD1410001+9999MW1021
0081358840999991964120215004+46017+070200FM-12+999999999V0209991C00001220001CN0100001N9-00391-00611104451ADDAA199000091AY101999GF100991001001999999001001KA1999M+00281MD1210091+9999MW1021
0059931120999991964022420004-36800+174617FM-12+002799999V0202901N00151220001CN0280001N9+01391+01281101681ADDAY141999GA1011+007509089GF101991011021008001001001MW1281
0082743941999991964101800004+42933-071433SAO  +0076MHT  V0200301N003610084019N0144001N1+01241+01131100781ADDGA1051+999999999GA2031+999999999GF108991999999999999999999MA1999999099861MW1001
0067107120999991964050809004+49500-007867SAO  +0321EDAS V0202701N003610240019N0176001N9+01351+00581101911ADDGA1021+999999999GA2081+999999999GF108991999999999999999999MW1001
0051960730999991964040103004+01550+098883FM-12+000399999V0209991C00001220001CN0350001N9+03001+02501999999ADDGA1011+007509089GF106991011011008001071021MW1011
0238724065937331964073010003+39083-076767SAO  +0043FME  V02099959000052200059N0112005N9+02115+01505999999ADDGD12995+9999999GD22995+9999999GD30995+9999999GD40995+9999999GF104995999999999999999999MW1001EQDN01 00000JPWTH 1QNNE11 1 00299E11 1 00299E11 1 00099E11 1 00099G11U1 99999K11 1 00059L11 1 00700N11 1 00000S11 1 00070V11 1 00599X11 1 00000
028099999924259196402292200E+41783-122467SAO  +0805SIY  V0202005N002650457249N056000599+00725-00395101945ADDAA101000095GD13995+9999999GD24995+9999999GD30995+9999999GD40995+9999999GF108065999999999999999999MA1999999092415EQDN01 00000JPWTH 1QNNE11 1 00499E11 1 00699E11 1 00099E11 1 00099G11 1 00150K11 1 00025L11 1 03500M11 1 27290N11 1 00000Q11 1 10194S11 1 00045V11 1 01007X11 1 20005
0275702910264121964122022003+62950-141933SAO  +0524ORT  V02099959000052200059N0640005N1-03945-04335104445ADDGD11995+9999993GD20995+9999999GD30995+9999999GD40995+9999999GF104025999999999999999999MA1999999096855MW1001EQDN01 00000JPWTH 1QNNE11 1 00199E11 1 00099E11 1 00099E11 1 00099G11U1 99999K11 1-00046L11 1 04000M11 1 28600N11 1 00000Q11 1 10444S11 1-00039V11 1 00502X11 1 00000
0269999999231791964060815005+34767-114617SAO  +0280EED  V02099959000052200059N016000599+02225+00445100335ADDGD10995+9999999GD20995+9999999GD30995+9999999GD40995+9999999GF100005999999999999999999MA1999999097265EQDN01 00000JPWTH 1QNNE11 1 00099E11 1 00099E11 1 00099E11 1 00099G11U1 99999K11 1 00040L11 1 01000M11 1 28720N11 1 00000Q11 1 10033S11 1 00072V11 1 00000X11 1 00000
0302999999931011964101312005+33683-117717SAO  +011699999V0200905N002150030549N004800599+01444+01335101374ADDGA1999+003054074GD14085+9999999GD20995+9999999GD30995+9999999GD40995+9999999GF108085999999999999999999MA1999999100034MW1455EQDN01 07000JPWTH 1QNNE11 1 00610E11 1 00099E11 1 00099E11 1 00099G11 1 00010H11 1 16010K11 1 00056L11 1 00300M11 1 29540N11 1 07000Q11 1 10137S11 1 00058V11 1 01010X11 1 09004
0035085090999991964090416004+38767-027100SAO  +0055LPLA V0200401N003610120019N0192001N9+02181+01801999999ADDGF107991999999999999999999MW1001
0057253990999991964010618004+66167-169833FM-12+000799999V0209991C00001024001CN0200001N9-02611-02891101411ADDAY171999GF107991071001999999031001MD1210061+9999MW1021
0059413160999991964110712004+17050+054100FM-12+0017OOSA V0201401N00511220001CN0240001N9+03111+02281101161ADDGA1011+090009009GF101991001001999999001011MD1610091+9999
0082691464999991964040615004+37000+035433SAO  +0073KQDG V0201301N002112200019N0240001N9+02021+01021100271ADDGA1051+999999999GA2081+999999999GF108991999999999999999999MA1999999099391MW1001
038899999912834196408252200E+29183-081050SAO  +0009DAB  V0200805N004652200059N024000599+02835+02335101735ADDAA101000095GA1999+007624094GA2999+999999004GA3999+999999999GA4999+999999999GD12015+9999999GD23045+9999999GD30005+9999999GD40005+9999999GF105035999999999999999999MA1999999101595EQDN01 00000JPWTH 1QNNE11 1 00201E11 1 00405E11 1 00000E11 1 00000G11C1 99999H11 1 18025H11C1 32999H11 1 00999H11 1 00999K11 1 00074L11 1 01500M11 1 30000N11 1 00000Q11 1 10173S11 1 00083V11 1 00604X11 1 08009
0067937800999991964120301004-43483+172550SAO  +0034NZCH V0200601N007210360019N0240001N1+01301+00961100051ADDGA1041+004509049GA2071+036009089GF107991999999999999999999MW1051
0269999999231531964061020005+38067-117083SAO  +1654TPH  V0203205N003652200059N064000599+01785-00115101145ADDGD12995+9999999GD23995+9999993GD30995+9999999GD40995+9999999GF106035999999999999999999MA1999999083105EQDN01 00000JPWTH 1QNNE11 1 00299E11 1 00399E11 1 00099E11 1 00099G11U1 99999K11 1 00030L11 1 04000M11 1 24540N11 1 00000Q11 1 10114S11 1 00064V11 1 00804X11 1 32007
0335999999038661964053112005+32550-088567SAO  +0083NMM  V0201605N001050304849N008000599+01615+01615101605ADDGA1999+015244064GA2999+030484044GD12035+9999999GD24055+9999999GD30995+9999999GD40995+9999999GF108085999999999999999999MA1999999100585MW1445MW2615EQDN01 02072JPWTH 1QNNE11 1 00204E11 1 00606E11 1 00099E11 1 00099G11 1 00100H11 1 15050H11 1 21100K11 1 00061L11 1 00500M11 1 29700N11 1 02072Q11 1 10160S11 1 00061V11 1 01010X11 1 16002
018272306013722196411010300C+35867-078783SAO  +0132RDU  V0200605N002652200059N0320005N1+01005+00335102735ADDAA101000095GF100005999999999999999999MA1999999101125MW1001EQDN01 00000JPWTH 1QNNG11U1 99999K11 1 00038L11 1 02000M11 1 29860N11 1 00000Q11 1 10273S11 1 00050V11 1 00000X11 1 06005
0068205940999991964020812004+74433+100383FM-12+999999999V0202501N00511220001CN0040001N9-01781-02111102101ADDAA106000091AY131999GF103991031001999999041001MD1310121+9999MW1021
0243999999432631964102201005+33200+126267SAO  +0013RKPM V0203505N006750182949N016000599+01835+01115102005ADDGD14995+9999999GD20995+9999999GD30995+9999999GD40995+9999999GF108995999999999999999999EQDN01 00000JPWTH 1QNNE11 1 00699E11 1 00099E11 1 00099E11 1 00099G11 1 00060K11 1 00052L11 1 01000N11 1 00000Q11 1 10200S11 1 00065V11 1 01099X11 1 35013
038572207003822196412040700C+32133-081200SAO  +0014SAV  V0200505N002150076249N0064005N9+01725+01565101705ADDAA101001595GA1051+007624094GA2031+024384054GD13055+9999999GD24035+9999999GD30995+9999999GD40995+9999999GF108085999999999999999999MA1999999101525MW1045MW2171MW3615MW4955EQDN01 01020JPWTH 1N02 08000JPWTH 1QNNE11 1 00406E11 1 00604E11 1 00099E11 1 00099G11 1 00025H11 1 18025H11 1 22080K11 1 00060L11 1 00400M11 1 29980N11 1 01020N11 1 08000Q11 1 10170S11 1 00063V11 1 01010X11 1 05004
0057167430999991964050621004+36133+023000FM-12+016799999V0200401N01341012301CN0120001N9+01391+01111101361ADDAY121999GF108991061051012501021999MD1710201+9999MW1201
0070564620999991964030712004+28983+101550FM-12+288199999V0202901N00211220001CN0500001N9+00891-02281999999ADDAY111999GF102991021041017501001001KA1999M+01391MD1110371+9999MW1011
0067937800999991964111908004-43483+172550SAO  +0034NZCH V0200801N004612200019N0320001N1+01741+01021100181ADDGA1011+013509009GA2031+042009059GF102991999999999999999999MW1051
0087513790999991964112900004+44050+089450FM-12+077199999V0201601N00311002401CN0150001N9-00501-00501102151ADDAA124000691AY121999GF108991081061002501999999HL10009IA2999-00399MD1710021+9999MW1021
0081268630999991964022518004+53567+030150FM-12+018099999V0209991C00001220001CN0040001N9-01501-02111103371ADDAA199000091AY101999GF102991021001999999031001KA1999M-00891MD1210051+9999MW1031
019872519014771196404261500C+43117-076117SAO  +0125SYR  V0201905N003152200059N0240005N9+01445+00395102405ADDAA101000095GA1001+999999999GF100005999999999999999999MA1999999100885MW1001EQDN01 00000JPWTH 1QNNG11U1 99999K11 1 00039L11 1 01500M11 1 29790N11 1 00000Q11 1 10240S11 1 00058V11 1 00000X11 1 19006
0106246410999991964041400004+63767+121617FM-12+010799999V0202301N00211220001CN0500001N9-01391-01721101311ADDAA199000091AY101999GF100991001001999999001001HL10009IA1319IA2999-02399KA1999N-01781MD1210091+9999MW1021
0035983270999991964122408004+15183+120550SAO  +0146RPMK V0201201N004610120019N0563271N9+02781+01941999999ADDGF107991999999999999999999MW1001
0057293130999991964071521004+57533+079367FM-12+011099999V0209991C00001220001CN0040001N9+01221+01111101061ADDAY121999GF108991001001999999031011MD1810121+9999MW1101
0057306360999991964082406004+53617+109633FM-12+048699999V0200901N00311220001CN0200001N9+02501+01111100711ADDAY101999GF101991011021012501001001MD1810111+9999MW1031
0035489041999991964111407004+10367+107100SAO  +0004VVVT V0202801N002612200019N0240001N1+02961+02181999999ADDGF108991999999999999999999MW1001
