0275999999137501965021013005+36950-076283SAO  +0010NGU  V02099959000050009149N001600599+00945+00725102435ADDGD14995+9999999GD20995+9999999GD30995+9999999GD40995+9999999GF108085999999999999999999MA1999999102305MW1455EQDN01 07000JPWTH 1QNNE11 1 00699E11 1 00099E11 1 00099E11 1 00099G11 1 00003K11 1 00045L11 1 00100M11 1 30210N11 1 07000Q11 1 10243S11 1 00049V11 1 01010X11 1 00000
0035725068999991965060520004+41650-070517SAO  +0043FMH  V0202501N010312200019N0240001N1+02181+00911999999ADDGF107991999999999999999999MW1001
0075612500999991965080815004+15867+002217FM-12+027899999V0201801N00411105001CN0300001N9+03111+02111100801ADDAY121999GA1031+012009089GA2031+069009009GF106991031021012501001021MW1031
0050722570039331965091818004+31150-097717SAO  +0283HLR  V0201701N004110090019N0240001N9+03181+02131101721ADDGF107991999999999999999999MA1999999098481MW1001
0104375490999991965063006004+41683+044950FM-12+049099999V0209991C00001220001CN0160001N9+02281+01781101301ADDAA199000091AJ100009199999999AY101061GF100991001001999999001001IA1009KA1999N+01501MD1010001+9999MW1021
0238911700225081965102405003+21483-158033SAO  +0252HHI  V0203305N001552200059N0240005N9+02115+01675999999ADDGD10995+9999999GD20995+9999999GD30995+9999999GD40995+9999999GF100995999999999999999999MW1001EQDN01 00000JPWTH 1QNNE11 1 00099E11 1 00099E11 1 00099E11 1 00099G11U1 99999K11 1 00062L11 1 01500N11 1 00000S11 1 00070V11 1 00099X11 1 33003
0057228310999991965012609004+61800+036550FM-12+006299999V0200701N00211024001CN0040001N9-01281-01611103431ADDAY171999GF108991081001999999021999MD1210141+9999MW1731
0232723520139021965022622003+34650-099267SAO  +0414LTS  V0201805N007752200059N0400005N9+02175-00675999999ADDGD10995+9999999GD20995+9999999GD30995+9999999GD40995+9999999GF100995999999999999999999EQDN01 00000JPWTH 1QNNE11 1 00099E11 1 00099E11 1 00099E11 1 00099G11U1 99999K11 1 00020L11 1 02500N11 1 00000S11 1 00071V11 1 00099X11 1 18015
028099999924121196510061200E+40833-115783SAO  +153999999V0203605N003152200059N024000599+00225-00395102295ADDAA101000095GD10995+9999999GD20995+9999999GD30995+9999999GD40995+9999999GF100005999999999999999999MA1999999085135EQDN01 00000JPWTH 1QNNE11 1 00099E11 1 00099E11 1 00099E11 1 00099G11U1 99999K11 1 00025L11 1 01500M11 1 25140N11 1 00000Q11 1 10229S11 1 00036V11 1 00000X11 1 36006
0096108520999991965071109004+48383+010850FM-12+047799999V0202701N00411220001CN0500001N9+01611+00891102141ADDAJ100009199999999AY111031GA1011+003009089GF101991011011004501041021IA1089MD1010011+9999MW1011
031999999914923196503290300E+41450-090500SAO  +0177MLI  V0200205N002650009149N001600599+00225+00175101455ADDAA101000095GA1999+000914134GD14085+9999999GD20995+9999999GD30995+9999999GD40995+9999999GF108085999999999999999999MA1999999099265MW1455MW2515EQDN01 03370JPWTH 1QNNE11 1 00610E11 1 00099E11 1 00099E11 1 00099G11 1 00003H11 1 13003K11 1 00035L11 1 00100M11 1 29310N11 1 03370Q11 1 10145S11 1 00036V11 1 01010X11 1 02005
0082691464999991965011712004+37000+035433SAO  +0073KQDG V0201801N001012200019N0480001N9+01461-00151102351ADDGA1081+999999999GA2001+999999999GF108991999999999999999999MA1999999101421MW1001
0269999999255071965120321005+59633-151500SAO  +002299999V0200405N001552200059N024000599-00505-00615098885ADDGD12995+9999999GD20995+9999999GD30995+9999999GD40995+9999999GF102025999999999999999999MA1999999098615EQDN01 00000JPWTH 1QNNE11 1 00299E11 1 00099E11 1 00099E11 1 00099G11U1 99999K11 1 00021L11 1 01500M11 1 29120N11 1 00000Q11 1 09888S11 1 00023V11 1 00202X11 1 04003
0072107140999991965121002004+49217-007400SAO  +0345EDAM V0202301N018010030019N0080001N9+00391+00331098841ADDGA1081+003009079GF108991999999999999999999MA1999999094791MW1451MW2611
0081485680999991965020800004+07183+100617FM-12+000499999V0201801N00411004501CN0130001N9+02501+02221100951ADDAA124010091AY121999GF108991051081004501051071KA1999N+02501MD1999999+0051MW1031
0051488730999991965061522004+13083+109283SAO  +0011VVTH V0202701N005110147019N0240001N1+99999+99999999999ADDGA1061+014709049GF107991999999999999999999MW1001
0000967970999991965112700004-06850+109150FM-12+001099999V02099999999999999999N9999999N9+99999+99999999999
0050704540257041965062502001+51883-176650SAO  +0005PADK V0200601N002110060019N0160001N9+01411+00961100001ADDGF107991999999999999999999MA1999999099971MW1001
0072684420999991965121512004+29100+026300FM-12+140099999V0203201N00621220001CN0650001N9+03111+00781999999ADDAY121999GF104991041031022501001001MA1999999085501MD1810261+9999MW1011
0269999999265281965061821005+62300-150100SAO  +010799999V0201905N003650076249N024000599+01225+00615101935ADDGD13995+9999999GD23995+9999999GD33995+9999999GD40995+9999999GF107065999999999999999999MA1999999100585EQDN01 00000JPWTH 1QNNE11 1 00499E11 1 00499E11 1 00499E11 1 00099G11 1 00025K11 1 00043L11 1 01500M11 1 29700N11 1 00000Q11 1 10193S11 1 00054V11 1 00908X11 1 19007
0035106100999991965061722004+49950+006567SAO  +0374EDAB V0202301N003612200019N0240001N9+01001+00561999999ADDGF102991999999999999999999MW1001
031399999913970196511201200E+30533-091150SAO  +0020BTR  V0202705N002650009149N000300599+01895+01895101635ADDAA101000095GA1999+000914104GD15085+9999999GD20995+9999999GD30995+9999999GD40995+9999999GF108085999999999999999999MA1999999101355MW1455EQDN01 07000JPWTH 1QNNE11 1 00710E11 1 00099E11 1 00099E11 1 00099G11 1 00003H11 1 45003K11 1 00066L11 1 00019M11 1 29930N11 1 07000Q11 1 10163S11 1 00066V11 1 01010X11 1 27005
007494430099999196510071600N-26620+118550AUST +0518YPMR V0201585N002659999999N999999999+01395+00805999999ADDAY124999GA1005+999999999GF100995004999999999999999MA1999999096375MW1025
0296999999275081965042418005+70617-159850SAO  +002799999V0203605N001550030549N019200599-01895-02115101995ADDGA1999+003054074GD14085+9999999GD20995+9999999GD30995+9999999GD40995+9999999GF108085999999999999999999MA1999999101695EQDN01 00000JPWTH 1QNNE11 1 00610E11 1 00099E11 1 00099E11 1 00099G11 1 00010H11 1 16010K11 1-00006L11 1 01200M11 1 30030N11 1 00000Q11 1 10199S11 1-00002V11 1 01010X11 1 36003
0035742070242011965081020004+47083-122583SAO  +0095GRF  V0203401N001012200019N0240001N9+02181+01021999999ADDGF102991999999999999999999MW1001
0035106405999991965060314004+50183+008650SAO  +0104EDEN V0200201N004612200019N0144001N9+02131+01021999999ADDGF108991999999999999999999MW1001
038899999913881196503151200E+35217-080933SAO  +0225CLT  V02099959000052200059N024000599+00005-00225101675ADDAA101000095GA1999+999999034GA2999+999999999GA3999+999999999GA4999+999999999GD10005+9999999GD20005+9999999GD30005+9999999GD40005+9999999GF100005999999999999999999MA1999999098885EQDN01 00000JPWTH 1QNNE11 1 00000E11 1 00000E11 1 00000E11 1 00000G11U1 99999H11 1 23999H11 1 00999H11 1 00999H11 1 00999K11 1 00028L11 1 01500M11 1 29200N11 1 00000Q11 1 10167S11 1 00032V11 1 00000X11 1 00000
0035747750138461965052319004+30067-085583SAO  +0004KPAM V0201801N006212200019N0160001N9+02911+02021999999ADDGF108991999999999999999999MW1001
0383999999129181965041315005+99999+999999SAO  +999999999V0201205N006250030549N009600599+02565+02175101695ADDGA1999+003054064GA2999+007624064GA3999+999999999GA4999+999999999GD13055+9999999GD23025+9999999GD30005+9999999GD40005+9999999GF107075999999999999999999MA1999999101495MW1045EQDN01 08000JPWTH 1QNNE11 1 00406E11 1 00403E11 1 00000E11 1 00000G11 1 00010H11 1 15010H11 1 15025H11 1 00999H11 1 00999K11 1 00071L11 1 00600M11 1 29970N11 1 08000Q11 1 10169S11 1 00078V11 1 00909X11 1 12012
0108873440999991965051118004-31300-064200FM-12+047499999V0200501N01031015001CN0150001N9+02221+01111101021ADDAY121999GA1999+012009019GA2081+015009019GF199999021081012501001061MD1710291+9999MW1071EQDQ01+000062SCOTCV
0275704896256251965081800003+56000-160517SAO  +0330PML  V02099959000052200059N0560005N1+01005+00675102345ADDGD12995+9999999GD20995+9999999GD30995+9999999GD40995+9999999GF104995999999999999999999MA1999999102205MW1001EQDN01 00000JPWTH 1QNNE11 1 00299E11 1 00099E11 1 00099E11 1 00099G11U1 99999K11 1 00044L11 1 03500M11 1 30180N11 1 00000Q11 1 10234S11 1 00050V11 1 00599X11 1 00000
0081489950999991965072512004+12000+105450FM-12+001699999V0209991C000019999999N0050001N9+02501+02391100541ADDAA124011091AY191999GF107991021071001501071999KA1999M+03111MD1999999-0131MW1211
039470326025503196504070300C+58683-156650SAO  +0017AKN  V0202605N004152200059N0320005N9+00175-00615101805ADDAA101000095GA1999+009754064GA2999+999999999GA3999+999999999GA4999+999999999GD12015+9999999GD20005+9999999GD30005+9999999GD40005+9999999GF101015999999999999999999MA1101731101595MW1001EQDN01 00000JPWTH 1QNNE11 1 00201E11 1 00000E11 1 00000E11 1 00000G11U1 99999H11 1 15032H11 1 00999H11 1 00999H11 1 00999K11 1 00021L11 1 02000M11 1 30000N11 1 00000Q11 1 10180S11 1 00035V11 1 00101X11 1 26008
0232999999137101965101802005+38833-077017SAO  +001899999V0201005N002652200059N016000599+01175+00615999999ADDGD10995+9999999GD20995+9999999GD30995+9999999GD40995+9999999GF100995999999999999999999EQDN01 00000JPWTH 1QNNE11 1 00099E11 1 00099E11 1 00099E11 1 00099G11U1 99999K11 1 00043L11 1 01000N11 1 00000S11 1 00053V11 1 00099X11 1 10005
0057278230999991965061812004+53783+039250FM-12+021099999V0202301N00311007801CN0500001N9+02281+00501101791ADDAY121999GF106991061011008001001001MD1710091+9999MW1021
0057151200999991965022712004+46783+023567FM-12+041599999V0200901N00411004501CN0040001N9-00611-01221100531ADDAY171999GF108991081001004501021999MD1710191+9999MW1701
031399999913874196509031800E+33650-084433SAO  +0308ATL  V0200705N006750024449N009600599+01945+01725102015ADDAA101000095GA1999+002444074GD14085+9999999GD20995+9999999GD30995+9999999GD40995+9999999GF108085999999999999999999MA1999999098345MW1055EQDN01 08100JPWTH 1QNNE11 1 00610E11 1 00099E11 1 00099E11 1 00099G11 1 00008H11 1 16008K11 1 00063L11 1 00600M11 1 29040N11 1 08100Q11 1 10201S11 1 00067V11 1 01010X11 1 07013
0074106070999991965090112004+49967+006700SAO  +0365EDAD V0200801N003110057019N0144001N9+01111+00781100971ADDAA124000391GF108991999999999999999999KA1999N+00781MA1999999096651MW1001
0073787170999991965032221004+14783-088800FM-12+108099999V0203201N00411007501CN0240001N9+02391+01501101311ADDAY111999GA1051+007509089GF105991051021008001001001MD1710261+9999MW1031
0092274790999991965091618004+56350+046567FM-12+011499999V0209991C00001024001CN0100001N9+01111+00891101581ADDAA106075091AA224999999AY121999GF105991051001999999031001KA1999M+01391MD1310061+9999MW1021
0092265440999991965071106004+55867+026617FM-12+009399999V0202301N00101007801CN0040001N9+01111+00891101761ADDAA106075091AA224999999AY121999GF107991061031008001041001KA1999N+00501MD1210091+9999MW1801
0068200660999991965081518004+80800+079250FM-12+999999999V0200701N00621004501CN0100001N9+00001+00001102271ADDAA106000091AY121999GF107991071051004501001001MD1310021+9999MW1021
0042749000999991965043019004+35367-086050SAO  +0331TUH  V0203001N002119999999N0000001N1+02301+00021999999ADDMD1111982+9999MW1001EQDQ01+001982APC3  
0108383410999991965020106004+42850+071383FM-12+064299999V0209991C00001002401CN0020001N9-00281-00611103321ADDAA106008091AA299002091AY171999GA1061+002409079GF107991061061002501051001KA1999N-00891MD1210031+9999MW1101
038899999912842196503181800E+27967-082533SAO  +001099999V0202005N007252200059N011200599+02675+02175101605ADDAA101000095GA1999+009144084GA2999+999999004GA3999+999999999GA4999+999999999GD12015+9999999GD23075+9999993GD30005+9999999GD40005+9999999GF107025999999999999999999MA1999999101595EQDN01 00000JPWTH 1QNNE11 1 00201E11 1 00309E11 1 00000E11 1 00000G11U1 99999H11 1 11030H11C1 32999H11 1 00999H11 1 00999K11 1 00071L11 1 00700M11 1 30000N11 1 00000Q11 1 10160S11 1 00080V11 1 00903X11 1 20014
0269999999931021965112513005+39417-118717SAO  +1199NFL  V0201805N001050365849N024000599+00064-00175100814ADDGD13995+9999999GD20995+9999999GD30995+9999999GD40995+9999999GF105035999999999999999999MA1999999087204EQDN01 00000JPWTH 1QNNE11 1 00499E11 1 00099E11 1 00099E11 1 00099G11 1 00120K11 1 00029L11 1 01500M11 1 25750N11 1 00000Q11 1 10081S11 1 00033V11 1 00604X11 1 18002
0035722786231041965072802004+33317-111650SAO  +0422IWA  V0203601N002112200019N0640001N9+03911+01071999999ADDGF102991999999999999999999MW1001
0035723405039301965070516004+34917-092150SAO  +0095LRF  V0203001N001512200019N0240001N9+03001+02221999999ADDGF100991999999999999999999MW1001
028099999913874196502080100E+33650-084433SAO  +0308ATL  V0202005N002650121949N024000599+01615+01565101925ADDAA101000095GD14995+9999999GD20995+9999999GD30995+9999999GD40995+9999999GF108085999999999999999999MA1999999098245EQDN01 00000JPWTH 1QNNE11 1 00699E11 1 00099E11 1 00099E11 1 00099G11 1 00040K11 1 00060L11 1 01500M11 1 29010N11 1 00000Q11 1 10192S11 1 00061V11 1 01010X11 1 20005
0057377890999991965040212004+40133+044467FM-12+090799999V0202701N00411012301CN0200001N9+01391-00391999999ADDAY121061GF107991071091012501001001MD1710151+9999MW1021
0057104990999991965080603004+51167+014950FM-12+023799999V0201801N00871220001CN0070001N9+01891+01221101531ADDAY101031GF103991021001999999041011MD1810121+9999MW1051
0035747880128101965081513004+27850-082500SAO  +0004KMCF V0201601N001512200019N0240001N9+02611+02281999999ADDGF107991999999999999999999MW1001
0051488730999991965042611004+13083+109283SAO  +0011VVTH V0201351N001019999999N0144001N1+99999+99999999999ADDGA1011+004809029GF107991999999999999999999MW1001
028072469023062196507092200B+39767-104883SAO  +161599999V0202205N001552200059N064000599+02895+00505101245ADDAA101000095GD12995+9999999GD22995+9999999GD33995+9999993GD40995+9999999GF106995999999999999999999MA1999999083855EQDN01 00000JPWTH 1QNNE11 1 00299E11 1 00299E11 1 00399E11 1 00099G11U1 99999K11 1 00041L11 1 04000M11 1 24760N11 1 00000Q11 1 10124S11 1 00084V11 1 00799X11 1 22003
0269999999147861965110704005+40583-073883SAO  +000899999V0202205N002650304849N012800599+01005+00675102645ADDGD13995+9999999GD20995+9999999GD30995+9999999GD40995+9999999GF106065999999999999999999MA1999999102545EQDN01 00000JPWTH 1QNNE11 1 00499E11 1 00099E11 1 00099E11 1 00099G11 1 00100K11 1 00044L11 1 00800M11 1 30280N11 1 00000Q11 1 10264S11 1 00050V11 1 00808X11 1 22005
039472306013722196510061500C+35867-078783SAO  +0132RDU  V0202205N002152200059N0240005N1+01615+00395102255ADDAA101000095GA1011+220009004GA2999+999999999GA3999+999999999GA4999+999999999GD11015+9999993GD20005+9999999GD30005+9999999GD40005+9999999GF101005999999999999999999MA1999999100645MW1001EQDN01 00000JPWTH 1QNNE11 1 00101E11 1 00000E11 1 00000E11 1 00000G11U1 99999H11C1 32999H11 1 00999H11 1 00999H11 1 00999K11 1 00039L11 1 01500M11 1 29720N11 1 00000Q11 1 10225S11 1 00061V11 1 00100X11 1 22004
0057275090999991965070803004+55517+036000FM-12+018299999V0202001N00311030001CN0500001N9+00891+00781101171ADDAY111999GF106991041051012501041001MD1210101+9999MW1031
0073623430999991965111006004+31050+031467FM-12+000799999V0209991C00001220001CN0050001N9+01611+01281102141ADDAA124000091GF100991001001999999001001KA1999N+01111MD1510001+9999MW1101
0097170820999991965091706004+40883+035483FM-12+056399999V0200401N00511012001CN0200001N9+01721+00891101931ADDAA199000091AY101999GA1051+009009059GF107991061081008001071001KA1999N+01501MD1310011+9999MW1031
028099999923174196505311900E+33933-118383SAO  +003799999V0201405N005750064049N032000599+01785+00785101325ADDAA101000095GD13995+9999999GD24995+9999999GD30995+9999999GD40995+9999999GF108085999999999999999999MA1999999100955EQDN01 00000JPWTH 1QNNE11 1 00499E11 1 00699E11 1 00099E11 1 00099G11 1 00021K11 1 00046L11 1 02000M11 1 29810N11 1 00000Q11 1 10132S11 1 00064V11 1 01010X11 1 14011
0069471320999991965102307004+36450+127433SAO  +0040RKTD V0209991C000010084019N0112001N1+01801+01241101661ADDGF108991999999999999999999MA1999999101161MW1001EQDQ01+999990APOSP 
0057303930999991965081609004+56833+124867FM-12+066499999V0200501N00311220001CN0100001N9+02111+00281104171ADDAY121999GF108991001001999999001071MD1710141+9999MW1021
0057319890999991965111815004+42900+133900FM-12+003499999V0202301N00211220001CN0200001N9+00391+00111101981ADDAY101999GF100991001001999999001001MD1810121+9999MW1021
0057259130999991965100706004+59583+150783FM-12+0118UHMM V0202701N00211220001CN0500001N9+00611+00001100741ADDAY101999GF100991001001999999001001MD1710041+9999MW1021
0066740740999991965120415004+78783-103533SAO  +0025CYIC V0209991C000012200019N0032001N1-03031-03421100961ADDGA1021+999999999GF102991999999999999999999MA1999999100611MW1451
018270326025503196502170300C+58683-156650SAO  +0017AKN  V0202405N001052200059N0960005N9-02285-02835101695ADDAA101000095GF100005999999999999999999MA1101631101495MW1001EQDN01 00000JPWTH 1QNNG11U1 99999K11 1-00019L11 1 06000M11 1 29970N11 1 00000Q11 1 10169S11 1-00009V11 1 00000X11 1 24002
0035107270999991965091810004+49017+008367SAO  +0114EDIL V0202401N005710150019N0080001N1+01911+01571999999ADDGF108991999999999999999999MW1801
0134600350999991965071418004+28517-013883FM-12+022899999V0203601N00871220001CN0150001N9+02281+01391102071ADDAA199000091AY101999GA1999+000159009GF100991001001999999001001KA1999M+02721MW1021EQDQ01+000032APCTENQ02+000002APC3  Q03    003SCCGA1
0238780160136011965011316003+32367-064683SAO  +0006TXKF V0201605N004152200059N0144005N9+02005+01445999999ADDGD12995+9999999GD20995+9999999GD30995+9999999GD40995+9999999GF101995999999999999999999MW1001EQDN01 00000JPWTH 1QNNE11 1 00299E11 1 00099E11 1 00099E11 1 00099G11U1 99999K11 1 00058L11 1 00900N11 1 00000S11 1 00068V11 1 00199X11 1 16008
0035036880999991965073104004+51967+000500SAO  +0101EGVT V0203301N002610210019N0128001N1+00911+00631999999ADDGF107991999999999999999999MW1001
0113787140999991965080500004+14900-085933FM-12+044299999V0209991C00001060001CN0280001N9+02391+02111101161ADDAA124001091AY191999GA1031+009609089GA2071+060009029GF107991031051008001001081KA1999M+03001MD1110031+9999MW1011
0057318230999991965041906004+47967+139533FM-12+003699999V0201801N00511220001CN0500001N9+00111-00221102721ADDAY101999GF100991001001999999001001MD1010151+9999MW1021
0043489480999991965071021004+16667+105000FM-12+018499999V0209991C000019999999N0050001N9+02391+02331100591ADDAY101999GF105991999999999999999999MW1001
008583612099999196503291800N-20467-054667BRAZ +0567SBCG V02036019999999999999N020000199+02621+00701101411ADDAA101000091GA1041+070001211GF104991999999999999999999MA1101381094691MD1710221+9999
0269999999930451965071221005+33233-107267SAO  +1471TCS  V0201805N007250213449N080000599+03394+00785100794ADDGD13995+9999999GD20995+9999999GD30995+9999999GD40995+9999999GF105045999999999999999999MA1999999085134EQDN01 00000JPWTH 1QNNE11 1 00499E11 1 00099E11 1 00099E11 1 00099G11 1 00070K11 1 00046L11 1 05000M11 1 25140N11 1 00000Q11 1 10079S11 1 00093V11 1 00605X11 1 18014
0043486020999991965080206004+05467+100383FM-12+000499999V0202201N005119999999N0240001N9+03001+02391101041ADDAY121999GF105991021021008001031021MW1051
0043964710999991965122403004+05950+116050FM-12+000799999V0202501N004119999999N0500001N9+02891+02281101111ADDAY111999GF105991011021004501001051MW1031
0238724837932161965090411003+39117-121433SAO  +0038BAB  V0201905N002152200059N0240005N9+01225+00895999999ADDGD10995+9999999GD20995+9999999GD30995+9999999GD40995+9999999GF100995999999999999999999MW1001EQDN01 00000JPWTH 1QNNE11 1 00099E11 1 00099E11 1 00099E11 1 00099G11U1 99999K11 1 00048L11 1 01500N11 1 00000S11 1 00054V11 1 00099X11 1 19004
0101725068999991965033009004+41650-070517SAO  +0043FMH  V0209991C000010009019N0016001N1-00041-00091101511ADDGA1021+999999999GA2081+999999999GF108991999999999999999999MA1999999100981MW1451EQDQ01+999990APOSP 
038899999993730196510142100E+39450-074583SAO  +002099999V0201705N004652200059N016000599+01784+01285102414ADDAA101000095GA1999+009144084GA2999+021344034GA3999+999999999GA4999+999999999GD12015+9999999GD22035+9999999GD30005+9999999GD40005+9999999GF104045999999999999999999MA1999999102174EQDN01 00000JPWTH 1QNNE11 1 00201E11 1 00204E11 1 00000E11 1 00000G11U1 99999H11 1 11030H11 1 23070H11 1 00999H11 1 00999K11 1 00055L11 1 01000M11 1 30170N11 1 00000Q11 1 10241S11 1 00064V11 1 00505X11 1 17009
0057354060999991965071415004+49050+051867FM-12+000499999V0202701N00721220001CN0200001N9+03281+01611101251ADDAY101999GF101991011011012501001001MD1110021+9999MW1021
038899999924090196505101500E+44050-103067SAO  +0964RAP  V0203305N006252200059N056000599+01065-00115102195ADDAA101000095GA1999+999999024GA2999+999999999GA3999+999999999GA4999+999999999GD14085+9999993GD20005+9999999GD30005+9999999GD40005+9999999GF108025999999999999999999MA1999999090965EQDN01 00000JPWTH 1QNNE11 1 00510E11 1 00000E11 1 00000E11 1 00000G11U1 99999H11C1 37999H11 1 00999H11 1 00999H11 1 00999K11 1 00030L11 1 03500M11 1 26860N11 1 00000Q11 1 10219S11 1 00051V11 1 01002X11 1 33012
0377999999241281965020509005+40900-117800SAO  +1311WMC  V0201805N003650243849N024000599+00785-00175100885ADDGA1999+024384034GA2999+999999024GA3999+999999999GA4999+999999999GD13065+9999999GD24025+9999999GD30005+9999999GD40005+9999999GF108065999999999999999999MA1999999086225EQDN01 00000JPWTH 1QNNE11 1 00407E11 1 00603E11 1 00000E11 1 00000G11 1 00080H11 1 23080H11C1 37999H11 1 00999H11 1 00999K11 1 00029L11 1 01500M11 1 25460N11 1 00000Q11 1 10088S11 1 00046V11 1 01008X11 1 18007
028099999926451196506230500E+61167-150017SAO  +0048ANC  V0202505N003150335349N096000599+01285+00505101405ADDAA101000095GD12995+9999999GD22995+9999999GD33995+9999999GD43995+9999999GF107065999999999999999999MA1999999100915EQDN01 00000JPWTH 1QNNE11 1 00299E11 1 00299E11 1 00499E11 1 00499G11 1 00110K11 1 00041L11 1 06000M11 1 29800N11 1 00000Q11 1 10140S11 1 00055V11 1 00907X11 1 25006
0066488750999991965060509004+12683+108083SAO  +0537VVSB V0202701N004112200019N0224001N1+02961+02181100701ADDGA1031+006909029GF102991999999999999999999MA1999999094791MW1001
006794999900273196508032300N-34750+146550AUST +0153     V0200455N004659999999N999999999+00895+00805999999ADDGA1005+999999999GA2085+999999045GF108995004999999999025999MW1605
0081351330999991965072806004+51517+059950FM-12+028599999V0201801N00411007801CN0200001N9+02281+00781101191ADDAA199000091AY111999GF108991081091008001999999KA1999N+01001MD1710111+9999MW1031
0035724550139471965060911004+39050-096767SAO  +0324FRI  V0200601N003110084019N0112001N9+01891+01611999999ADDGF108991999999999999999999MW1801
010694653099999196504272330N-32130+133720AUST +0017YPCD V0200455N003659999999N999999999+01415+00405999999ADDAY134999GA1005+999999999GA2005+999999999GA3075+999999999GF107995004999999999999085MA1999999102415MW1005
0057319890999991965022409004+42900+133900FM-12+003499999V0202901N00621220001CN0200001N9-00391-02001101421ADDAY101999GF100991001001999999001001MD1210201+9999MW1021
0280702060266321965013109003+63317-168967SAO  +0009OHC  V0201005N004652200059N0160005N1-02505-03065101275ADDGD10005+9999999GD20005+9999999GD30995+9999999GD40995+9999999GF100995999999999999999999MA1999999101101MW1001EQDQ01+999990APOSP N01 00000JPWTH 1QNNE11 1 00000E11 1 00000E11 1 00099E11 1 00099G11U1 99999K11 1-00023L11 1 01000N11 1 00000Q11 1 10127S11 1-00013V11 1 00099X11 1 10009
0073270830999991965031400004+59850+048283FM-12+018399999V0202901N00101001501CN0200001N9-00611-00611100651ADDAY121999GA1081+001509079GF108991081061001501999999MD1710071+9999MW1021
0275999999931061965083013005+33800-118050SAO  +000899999V0201805N001050027449N008000599+01724+01395101384ADDGD14995+9999999GD20995+9999999GD30995+9999999GD40995+9999999GF108085999999999999999999MA1999999101294MW1045EQDN01 08200JPWTH 1QNNE11 1 00699E11 1 00099E11 1 00099E11 1 00099G11 1 00009K11 1 00057L11 1 00500M11 1 29910N11 1 08200Q11 1 10138S11 1 00063V11 1 01010X11 1 18002
0035070891999991965122604004+49033+005867SAO  +0266LCHM V0202701N003110210019N0128001N1+00351+00191999999ADDGF108991999999999999999999MW1001
0057268320999991965092815004+53883+025150FM-12+014799999V0201401N00411024001CN0110001N9+02001+01391101141ADDAY121999GF107991061001999999071021MD1710051+9999MW1021
0029035963999991965090308004+52117+001433SAO  +0030EGVJ V0203201N001010006019N0006001N9+01501+01281999999ADDGF108991999999999999999999
0090871490999991965091200004-26817-060450FM-12+009299999V0209991C000019999999N0200001N9+01331+00441102291ADDAY101999GF100991001001999999001001IA1009KA1999M+02111KA2999N+01111MA1999999101211MW1021
0238780160136011965111817003+32367-064683SAO  +0006TXKF V0202905N012450152449N0144005N9+02065+01005999999ADDGD13995+9999999GD23995+9999999GD30995+9999999GD40995+9999999GF105995999999999999999999MW1001EQDN01 00000JPWTH 1QNNE11 1 00499E11 1 00499E11 1 00099E11 1 00099G11 1 00050K11 1 00050L11 1 00900N11 1 00000S11 1 00069V11 1 00699X11 1 29024
0057264220999991965021012004+56967+024067FM-12+000399999V0203201N00821000151CN0004001N9-00221-00221099401ADDAY181999GF109991091999000251999999MD1510011+9999MW1861
0249999999938411965072410005+30717-087017SAO  +0054NSE  V02099959000052200059N003200599+02284+02005101534ADDGD13995+9999999GD20995+9999999GD30995+9999999GF106065999999999999999999MA1999999100914MW1055EQDN01 08100JPWTH 1QNNE11 1 00499E11 1 00099E11 1 00099G11C1 99999K11 1 00068L11 1 00200M11 1 29800N11 1 08100Q11 1 10153S11 1 00073V11 1 00808X11 1 00000
0270999999266381965100118005+69733-163017SAO  +0006PIZ  V0202005N001550076249N024000599-00565-00615101765ADDGA1999+007624074GD14085+9999999GD20995+9999999GD30995+9999999GD40995+9999999GF108085999999999999999999EQDN01 00000JPWTH 1QNNE11 1 00610E11 1 00099E11 1 00099E11 1 00099G11 1 00025H11 1 16025K11 1 00021L11 1 01500N11 1 00000Q11 1 10176S11 1 00022V11 1 01010X11 1 20003
0056035623999991965070321004+52367-000250SAO  +0049EGWZ V0209991C000012200019N0080001N9+00961+00631101921ADDGF102991999999999999999999MA1101861101221MW1051MW2111
0047106330999991965090713004+50050+008333SAO  +0143EDOU V0209991C000010036019N0080001N9+01351+01071999999ADDGF108991999999999999999999MW1051MW2111MW3611
0050107120999991965081512004+49500-007867SAO  +0321EDAS V0200901N001012200019N0128001N9+02131+01071101921ADDGF108991999999999999999999MA1999999098101MW1001
0105787000999991965050815004+13283-087633FM-12+000599999V0209991C00001075001CN0080001N9+03111+02111100721ADDAY121999GA1011+010509099GA2021+010509089GA3071+075009029GF107991031091012501001061MD1110121+9999MW1041
0073171500999991965122309004+39650+027867FM-12+010199999V0209991C00001007501CN0100001N9+01001+00891101001ADDAY161999GA1051+009009059GF108991051051008001071999MD1210111+9999MW1151
0269999999129581965022607005+29817-090017SAO  +0002NBG  V02099959000052200059N024000599+00115-00675102895ADDGD10995+9999999GD20995+9999999GD30995+9999999GD40995+9999999GF100005999999999999999999MA1999999102885EQDN01 00000JPWTH 1QNNE11 1 00099E11 1 00099E11 1 00099E11 1 00099G11U1 99999K11 1 00020L11 1 01500M11 1 30380N11 1 00000Q11 1 10289S11 1 00034V11 1 00000X11 1 00000
034699999924153196502091500E+46917-114083SAO  +0972MSO  V0202205N001550054949N002400599-00335-00445101695ADDAA101000395GA1999+999999104GA2999+005494064GD16025+9999999GD24085+9999999GD30995+9999999GD40995+9999999GF108085999999999999999999MA1999999090185MW1045MW2715EQDN01 04080JPWTH 1QNNE11 1 00803E11 1 00610E11 1 00099E11 1 00099G11 1 00018H11 1 98999H11 1 15018K11 1 00024L11 1 00150M11 1 26630N11 1 04080Q11 1 10169S11 1 00026V11 1 01010X11 1 22003
0244702060266321965091317003+63317-168967SAO  +0009OHC  V0200205N007250054949N0080005N1+00565+00505999999ADDGD12995+9999999GD24995+9999999GD30995+9999999GD40995+9999999GF108995999999999999999999MW1455MW2615EQDN01 02070JPWTH 1QNNE11 1 00299E11 1 00699E11 1 00099E11 1 00099G11 1 00018K11 1 00041L11 1 00500N11 1 02070S11 1 00042V11 1 01099X11 1 02014
028099999923234196503241700E+37617-122383SAO  +0002SFO  V0202805N007752200059N016000599+01115+00445101465ADDAA101000095GD12995+9999999GD20995+9999999GD30995+9999999GD40995+9999999GF101015999999999999999999MA1999999101395EQDN01 00000JPWTH 1QNNE11 1 00299E11 1 00099E11 1 00099E11 1 00099G11U1 99999K11 1 00040L11 1 01000M11 1 29940N11 1 00000Q11 1 10146S11 1 00052V11 1 00101X11 1 28015
0087205940999991965040812004+74433+100383FM-12+999999999V0200701N00411024001CN0100001N9-01501-01721100371ADDAA106999999AY171999GF108991081001999999021999MD1810051+9999MW1711EQDQ01  00002PRCP06
031999999913866196512110900E+38367-081600SAO  +0286CRW  V0202205N003150213449N009600599+01065+00785102165ADDAA101000095GA1999+021344034GD14085+9999999GD20995+9999999GD30995+9999999GD40995+9999999GF108085999999999999999999MA1999999098715MW1045MW2445EQDN01 07280JPWTH 1QNNE11 1 00610E11 1 00099E11 1 00099E11 1 00099G11 1 00070H11 1 23070K11 1 00046L11 1 00600M11 1 29150N11 1 07280Q11 1 10216S11 1 00051V11 1 01010X11 1 22006
0057257440999991965102515004+62483+166217FM-12+999999999V0209991C00001220001CN0500001N9-02781-03001100961ADDAY101999GF100991001001999999001001MD1210161+9999MW1021
0238726815241061965061220003+43050-115867SAO  +0912MUO  V0202905N005252200059N0720005N9+02225+00395999999ADDGD12995+9999999GD22995+9999999GD30995+9999999GD40995+9999999GF104995999999999999999999MW1001EQDN01 00000JPWTH 1QNNE11 1 00299E11 1 00299E11 1 00099E11 1 00099G11U1 99999K11 1 00039L11 1 04500N11 1 00000S11 1 00072V11 1 00599X11 1 29010
0057257440999991965011915004+62483+166217FM-12+999999999V0209991C00001220001CN0040001N9-04781-05001100241ADDAY101999GF100991001001999999001001MD1510161+9999MW1101
0377999999407101965112606005+07083+171383SAO  +000399999V0200505N003652200059N024000599+02785+02565100855ADDGA1999+004574094GA2999+005494084GA3999+015244064GA4999+999999024GD12025+9999999GD22025+9999999GD32015+9999999GD44085+9999999GF108055999999999999999999MA1999999100815EQDN01 00000JPWTH 1QNNE11 1 00202E11 1 00202E11 1 00201E11 1 00610G11C1 99999H11 1 18015H11 1 11018H11 1 15050H11C1 37999K11 1 00078L11 1 01500M11 1 29770N11 1 00000Q11 1 10085S11 1 00082V11 1 01006X11 1 05007
0129601010999991965030118004+35717-005900FM-12+001599999V0202401N01851007501CN0100001N9+01501+00281100151ADDAA199008091AY191999GA1021+004809089GA2031+006009099GA3061+006909059GF108991081091008001999999KA1999M+01781MD1510011+9999MW1021
0070877840999991965121812004-40717-064933FM-12+000799999V0202001N007219999999N0400001N9+01611+00611100901ADDAY101999GF102991021001999999031001KA1999N+01501MD1210251+9999MW1011
0050703050999991965072100004+58650-162067SAO  +0168PAEH V0203301N004612200019N1200001N9+00961+00521101231ADDGF102991999999999999999999MA1999999099491MW1001
0057224990999991965051221004+65183+049583FM-12+014899999V0209991C00001220001CN0200001N9+00391-00391101341ADDAY121999GF107991001001999999001051MD1710131+9999MW1021
0043639320999991965033106004-08933+033467FM-12+170799999V0209991C00001220001CN0400001N9+01781+01391095201ADDAY111999GF102991021021012501001011MW1021
0057401760999991965042012004+32100+034783FM-12+0010LLSD V0202701N004119999999N0200001N9+01891+01111101521ADDAY111999GF102991021021008001001001MD1710031+9999MW1001
009372250012919196505160000D+25900-097433SAO  +0006BRO  V0201401N009810054019N0160001N1+02741+02411100791ADDAA101000095GA1061+005409059GA2011+220009009GF107991999999999999999999MA1999999100751MW1001
009094874099999196512022300N-36880+145180AUST +0142     V0203605N002659999999N999999999+02175+01505999999ADDAY114999GA1025+007505065GA2025+999999045GF104995024055007505025999MA1999999099325MW1025
0081170300999991965032618004+41283+036333FM-12+004499999V0203601N00151004201CN0120001N9+00891+00721101581ADDAA199999929AY161999GF108991071071004501021999KA1999M+02001MD1010091+9999MW1601
031399999925309196502250900E+58367-134583SAO  +0006JNU  V0203405N002650033549N001600599-00225-00225099875ADDAA101000095GA1999+003354074GD14085+9999999GD20995+9999999GD30995+9999999GD40995+9999999GF108085999999999999999999MA1999999099805MW1455EQDN01 07000JPWTH 1QNNE11 1 00610E11 1 00099E11 1 00099E11 1 00099G11 1 00011H11 1 16011K11 1 00028L11 1 00100M11 1 29470N11 1 07000Q11 1 09987S11 1 00028V11 1 01010X11 1 34005
0035106420999991965050323004+50167+008950SAO  +0115EDID V0209991C000012200019N0144001N9+01191+00961999999ADDGF108991999999999999999999MW1001
0057470350999991965081103004+40100+124383FM-12+000899999V0201601N00311007801CN0100001N9+02501+01891100281ADDAY121999GF108991081051008001999999MD1810021+9999MW1031
0057400660999991965081212004+34817+036133FM-12+035999999V0202701N00621007501CN0200001N9+02781+02001100841ADDAY111999GF105991051051008001001001MD1010001+9999MW1021
0269999999931021965031213005+39417-118717SAO  +1199NFL  V0203305N000550106749N024000599+00114+00065100624ADDGD12995+9999999GD24995+9999999GD30995+9999999GD40995+9999999GF108085999999999999999999MA1999999087134EQDN01 00000JPWTH 1QNNE11 1 00299E11 1 00699E11 1 00099E11 1 00099G11 1 00035K11 1 00033L11 1 01500M11 1 25730N11 1 00000Q11 1 10062S11 1 00034V11 1 01010X11 1 33001
0275999999038151965120401005+30483-087350SAO  +0028NUN  V0200205N002650152449N006400599+01565+01335101965ADDGD13995+9999999GD24995+9999999GD30995+9999999GD40995+9999999GF108085999999999999999999MA1999999101635MW1055EQDN01 08100JPWTH 1QNNE11 1 00499E11 1 00699E11 1 00099E11 1 00099G11 1 00050K11 1 00056L11 1 00400M11 1 30010N11 1 08100Q11 1 10196S11 1 00060V11 1 01010X11 1 02005
0238702060266321965051314003+63317-168967SAO  +0009OHC  V0202105N004150064049N0160005N1-00445-00725999999ADDGD14995+9999999GD20995+9999999GD30995+9999999GD40995+9999999GF108995999999999999999999MW1001EQDN01 00000JPWTH 1QNNE11 1 00699E11 1 00099E11 1 00099E11 1 00099G11 1 00021K11 1 00019L11 1 01000N11 1 00000S11 1 00024V11 1 01099X11 1 21008
027672793024233196509210700C+47450-122300SAO  +0122SEA  V0200505N002152200059N0048005N1+01395+01225101995ADDAA101000095GD14995+9999999GD20995+9999999GD30995+9999999GF108085999999999999999999MA1999999100345MW1045EQDQ01    003PRSWM1N01 08000JPWTH 1QNNE11 1 00699E11 1 00099E11 1 00099G11C1 99999K11 1 00054L11 1 00300M11 1 29630N11 1 08000Q11 1 10199S11 1 00057V11 1 01010X11 1 05004
036199999914929196507181800E+45450-098433SAO  +0395ABR  V0202405N003650304849N024000599+02395+01835101595ADDAA101000095GA1999+018294064GA2999+030484034GA3999+048774044GD12025+9999999GD23065+9999999GD34015+9999999GD40995+9999999GF108085999999999999999999MA1999999096995EQDN01 00000JPWTH 1QNNE11 1 00202E11 1 00407E11 1 00601E11 1 00099G11 1 00100H11 1 15060H11 1 23100H11 1 21160K11 1 00065L11 1 01500M11 1 28640N11 1 00000Q11 1 10159S11 1 00075V11 1 01010X11 1 24007
0081624320999991965040218004+25483+029000FM-12+011299999V0203301N00051220001CN0110001N9+01721+00001101721ADDAA199000091AY101999GF100991001001999999001001KA1999M+02391MD1310381+9999MW1021
0056722866231221965092709004+34100-117233SAO  +0352SBD  V0209991C000010042019N0064001N9+01691+01411101221ADDGF108991999999999999999999MA1999999097121MW1041MW2451
0056489000999991965060111004+10817+106650FM-12+001999999V0202001N002619999999N0080001N9+99999+99999999999ADDAY121999GF106991999999999999999999KA1999M+03221MW1011
0035723526999991965060413004+35333-099200SAO  +0589KCSM V0201401N007712200019N0112001N9+01851+01631999999ADDGF107991999999999999999999MW1001
0076726055999991965052521004+43083-070817SAO  +0031PSM  V0202701N005112200019N0320001N9+02781+00391100721ADDGA1081+999999999GA2001+999999999GF108991999999999999999999MA1999999100371
0171722906931121965042408003+32700-117200SAO  +0015NZY  V0203005N001052200059N0080005N9+01675+01285101425ADDGF100005999999999999999999MA1999999101255MW1055EQDN01 08100JPWTH 1QNNG11U1 99999K11 1 00055L11 1 00500M11 1 29900N11 1 08100Q11 1 10142S11 1 00062V11 1 00000X11 1 30002
028099999993721196505070800E+39183-076667SAO  +0045BAL  V0201205N004150112849N016000599+01394+01175102204ADDAA101000095GD13995+9999999GD24995+9999999GD30995+9999999GD40995+9999999GF108085999999999999999999MA1999999101634EQDN01 00000JPWTH 1QNNE11 1 00499E11 1 00699E11 1 00099E11 1 00099G11 1 00037K11 1 00053L11 1 01000M11 1 30010N11 1 00000Q11 1 10220S11 1 00057V11 1 01010X11 1 12008
0070155260999991965053006004+43417+024600FM-12+012399999V0202201N00311220001CN0150001N9+01721+01501100831ADDAY111999GF106991041001999999041041KA1999N+01281MD1310091+9999MW1031
007494387099999196502282300N-24870+152350AUST +0014     V0201355N002659999999N999999999+02335+02105999999ADDAY124999GA1055+012005085GF105995054085012005999999MA1999999101595MW1025
0073101290999991965122403004+53533+008583FM-12+000799999V0201501N00261001201CN0034001N9+00221+00221098721ADDAY171999GA1071+001209079GF108991081071001501999999MD1610151+9999MW1511
0057309650999991965081221004+50383+116517FM-12+068499999V0200701N00101220001CN0500001N9+00891+00891100971ADDAY101999GF100991001001999999001001MD1210041+9999MW1021
009094390099999196503130500N-24730+153220AUST +0101     V0203155N007259999999N999999999+02665+02305999999ADDAY154999GA1015+009005095GA2065+999999045GF107995014035009005025999MA1999999099355MW1055
0269999999931151965101108005+32567-117117SAO  +000899999V0200905N000552200059N016000599+01504+01225101724ADDGD10995+9999999GD20995+9999999GD30995+9999999GD40995+9999999GF100005999999999999999999MA1999999101634EQDN01 00000JPWTH 1QNNE11 1 00099E11 1 00099E11 1 00099E11 1 00099G11U1 99999K11 1 00054L11 1 01000M11 1 30010N11 1 00000Q11 1 10172S11 1 00059V11 1 00000X11 1 09001
028072306013722196509121900E+35867-078783SAO  +0132RDU  V0201305N003150457249N024000599+02675+02175102115ADDAA101000095GD12995+9999999GD23995+9999999GD34995+9999999GD40995+9999999GF108085999999999999999999MA1999999100545EQDN01 00000JPWTH 1QNNE11 1 00299E11 1 00499E11 1 00699E11 1 00099G11 1 00150K11 1 00071L11 1 01500M11 1 29690N11 1 00000Q11 1 10211S11 1 00080V11 1 01010X11 1 13006
0057489030999991965041303004+10333+107083FM-12+018399999V0200801N004619999999N0100001N9+02891+02281101201ADDAY111999GF102991011011012501001051MD1999999+0061MW1111
0048476360999991965071500004+35167+136967FM-15+005699999V0203401N003619999999N0048001N1+02801+02241101661ADDGF102991999999999999999999EQDQ01+000000PRSWM2
0238999999340511965052712005+48767+005983SAO  +0288LFSL V0201905N005250045749N017600599+01175+00895999999ADDGD13995+9999999GD24995+9999999GD30995+9999999GD40995+9999999GF108995999999999999999999MW1805EQDN01 02300JPWTH 1QNNE11 1 00499E11 1 00699E11 1 00099E11 1 00099G11 1 00015K11 1 00048L11 1 01100N11 1 02300S11 1 00053V11 1 01099X11 1 19010
0057389270999991965112121004+37233+067267FM-12+030299999V0209991C00001220001CN0200001N9+00611+00281102361ADDAY101999GF100991001001999999001001MD1710121+9999MW1021
0035746710138061965121201004+36667-087500SAO  +0174HOP  V0201801N005110300019N0144001N9+01571-00201999999ADDGF108991999999999999999999MW1001
0035724240138071965042408004+37900-085967SAO  +0230FTK  V0200501N005112200019N0176001N9+01741+01411999999ADDGF100991999999999999999999MW1001
0066719130999991965052706004+58750-094067SAO  +0029CYYQ V0200451N006210030019N0240001N1-00371-00591102101ADDGA1081+003009059GF108991999999999999999999MA1999999101631MW1001
006972564024018196508261700D+41150-104817SAO  +1876CYS  V0202801N009812200019N1440001N9+02391-00111101191ADDAA101000095GF100991999999999999999999MA1101961081341MW1001OC101591
0269999999231361965091803005+34217-119083SAO  +002099999V0202705N001052200059N032000599+01785+01335100805ADDGD12995+9999999GD22995+9999999GD30995+9999999GD40995+9999999GF103995999999999999999999MA1999999100475EQDN01 00000JPWTH 1QNNE11 1 00299E11 1 00299E11 1 00099E11 1 00099G11U1 99999K11 1 00056L11 1 02000M11 1 29670N11 1 00000Q11 1 10080S11 1 00064V11 1 00499X11 1 27002
028099999913739196509051600E+39883-075250SAO  +0003PHL  V0200705N004652200059N019200599+02115+01445102785ADDAA101000095GD12995+9999999GD23995+9999999GD30995+9999999GD40995+9999999GF106055999999999999999999MA1999999102685EQDN01 00000JPWTH 1QNNE11 1 00299E11 1 00499E11 1 00099E11 1 00099G11C1 99999K11 1 00058L11 1 01200M11 1 30320N11 1 00000Q11 1 10278S11 1 00070V11 1 00706X11 1 07009
0082471180999991965082015004+37433+127950SAO  +0101RKNH V0209991C000010090019N0112001N1+02241+02071101461ADDGA1051+009009059GA2081+036009049GF108991999999999999999999MA1999999100141MW1001
0092343910999991965081406004+50150+048550FM-12+002599999V0202501N00871220001CN0200001N9+02111+01221100781ADDAA106020091AA299005091AY101999GF101991011011012501001001KA1999N+01891MD1210061+9999MW1031
0043486920999991965022409004+01417+103867FM-12+001499999V0200701N001019999999N0080001N9+02501+02391100761ADDAY191999GF107991041091002501071999MW1951
033499999914942196505260000E+41300-095900SAO  +0304OMA  V0201005N002150106749N016000599+02065+01835100195ADDAA101008695GA1999+004574074GA2999+010674094GD12015+9999999GD24075+9999999GD30995+9999999GD40995+9999999GF108085999999999999999999MA1999999096755EQDN01 00000JPWTH 1QNNE11 1 00201E11 1 00609E11 1 00099E11 1 00099G11 1 00035H11 1 16015H11 1 18035K11 1 00065L11 1 01000M11 1 28570N11 1 00000Q11 1 10019S11 1 00069V11 1 01010X11 1 10004
0035722520129201965111223004+27533-099450SAO  +0158LRD  V0209991C000012200019N0240001N1+02801+01631999999ADDGF100991999999999999999999MW1001
0035070891999991965110104004+49033+005867SAO  +0266LCHM V0202201N005710060019N0240001N1+01071+00801999999ADDGF108991999999999999999999MW1001
0092375490999991965072406004+41683+044950FM-12+049099999V0203301N00101015001CN0100001N9+01891+01891101631ADDAA106075091AA224999999AY161061GF108991061051017501071999KA1999N+01611MD1510011+9999MW1021
0269999999930451965080618005+33233-107267SAO  +1471TCS  V0200205N004152200059N080000599+03064+00675100984ADDGD12995+9999999GD22995+9999999GD30995+9999999GD40995+9999999GF102025999999999999999999MA1999999085304EQDN01 00000JPWTH 1QNNE11 1 00299E11 1 00299E11 1 00099E11 1 00099G11U1 99999K11 1 00044L11 1 05000M11 1 25190N11 1 00000Q11 1 10098S11 1 00087V11 1 00202X11 1 02008
0082724836232081965041618004+38667-121400SAO  +0022MCC  V0202001N003110150019N0160001N9+01521+00911102171ADDGA1051+999999999GA2021+999999999GF108991999999999999999999MA1999999101861MW1001
039499999913729196507210900E+38883-079850SAO  +0594EKN  V02099959000052200059N000800599+00895+00895102455ADDAA101000095GA1999+999999104GA2999+999999999GA3999+999999999GA4999+999999999GD16065+9999999GD20005+9999999GD30005+9999999GD40005+9999999GF106065999999999999999999MA1999999095335MW1455EQDN01 07000JPWTH 1QNNE11 1 00808E11 1 00000E11 1 00000E11 1 00000G11U1 99999H11 1 45999H11 1 00999H11 1 00999H11 1 00999K11 1 00048L11 1 00050M11 1 28150N11 1 07000Q11 1 10245S11 1 00048V11 1 00808X11 1 00000
0165999999128501965111906005+24583-081683SAO  +0007NQX  V0203305N001552200059N016000599+02175+01725101635ADDGF100005999999999999999999MA1999999101565EQDN01 00000JPWTH 1QNNG11U1 99999K11 1 00063L11 1 01000M11 1 29990N11 1 00000Q11 1 10163S11 1 00071V11 1 00000X11 1 33003
0238722655230051965080205003+32233-101500SAO  +0784BGS  V02099959000052200059N0400005N1+02115+01065999999ADDGD10995+9999999GD20995+9999999GD30995+9999999GD40995+9999999GF100995999999999999999999MW1001EQDN01 00000JPWTH 1QNNE11 1 00099E11 1 00099E11 1 00099E11 1 00099G11U1 99999K11 1 00051L11 1 02500N11 1 00000S11 1 00070V11 1 00099X11 1 00000
0224999999272011965080418005+71950-124733SAO  +0084CYSY V02022559002652200059N000200599+00505+00445101105ADDGA1999+999999104GD19065+9999999GF106065999999999999999999MA1999999100035MW1455EQDN01 07000JPWTH 1QNNE11 1 09908G11U1 99999H11 1 45999K11 1 00040L11 1 00012M11 1 29540N11 1 07000Q11 1 10110S11 1 00041V11 1 00808W11 1 66005
0051488870999991965052010004+10900+108067SAO  +0065VVPT V0203601N001019999999N0320001N1+99999+99999999999ADDGA1011+009909049GF107991999999999999999999MW1001
038899999922536196509260300E+21983-159350SAO  +0031LIH  V0200105N002152200059N024000599+02565+02115101315ADDAA101000095GA1999+007624084GA2999+015244064GA3999+024384034GA4999+999999004GD12015+9999999GD22025+9999999GD32025+9999999GD43025+9999999GF106055999999999999999999MA1999999100815EQDN01 00000JPWTH 1QNNE11 1 00201E11 1 00202E11 1 00202E11 1 00402G11C1 99999H11 1 11025H11 1 15050H11 1 23080H11C1 32999K11 1 00070L11 1 01500M11 1 29770N11 1 00000Q11 1 10131S11 1 00078V11 1 00706X11 1 01004
0082471030999991965091600004+37967+124667SAO  +0193RKSP V0209991C000010180019N0128001N1+01851+01411101191ADDGA1041+006009059GA2061+018009059GF107991999999999999999999MA1999999098921MW1001
0057319890999991965103015004+42900+133900FM-12+003499999V0202701N00411220001CN0200001N9+00781+00391102041ADDAY101999GF100991001001999999001001MD1710101+9999MW1021
0232999999031471965110514005+35267-117433SAO  +08644CB  V0200905N002152200059N024000599+00895-00335999999ADDGD13995+9999993GD20995+9999999GD30995+9999999GD40995+9999999GF107995999999999999999999EQDN01 00000JPWTH 1QNNE11 1 00399E11 1 00099E11 1 00099E11 1 00099G11U1 99999K11 1 00026L11 1 01500N11 1 00000S11 1 00048V11 1 00999X11 1 09004
0085036880999991965020503004+51967+000500SAO  +0101EGVT V0203301N004610012019N0026001N1+00351+00191103751ADDGA1081+999999999GF108991999999999999999999MA1999999102461MW1111EQDQ01+999990APOSP 
0066722686230081965041700004+34383-103317SAO  +1309CVS  V0202201N009812200019N0240001N9+02461-00761100951ADDGA1001+999999999GF100991999999999999999999MA1101391086621MW1001
0035035623999991965090719004+52367-000250SAO  +0049EGWZ V0202001N002610135019N0064001N9+01521+01021999999ADDGF107991999999999999999999MW1051
0269999999116301965101608005+18250-065633SAO  +001199999V02099959000052200059N024000599+02335+02115101525ADDGD12995+9999999GD20995+9999999GD30995+9999999GD40995+9999999GF102025999999999999999999MA1999999101425EQDN01 00000JPWTH 1QNNE11 1 00299E11 1 00099E11 1 00099E11 1 00099G11U1 99999K11 1 00070L11 1 01500M11 1 29950N11 1 00000Q11 1 10152S11 1 00074V11 1 00202X11 1 00000
0029172180999991965051020004+38500+027017SAO  +0008LTBL V0201201N005112200019N0144001N9+01521+01021999999ADDGF107991999999999999999999
0269704540257041965022820002+51883-176650SAO  +0005ADK  V0201605N004150091449N011200599+00225+00005098485ADDGD13995+9999999GD23995+9999999GD30995+9999999GD40995+9999999GF106065999999999999999999MA1999999098445EQDN01 00000JPWTH 1QNNE11 1 00499E11 1 00499E11 1 00099E11 1 00099G11 1 00030K11 1 00032L11 1 00700M11 1 29070N11 1 00000Q11 1 09848S11 1 00036V11 1 00808X11 1 16008
0057303720999991965052221004+56917+118367FM-12+070399999V0209991C00001030001CN0500001N9-00111-00721101151ADDAY121999GF107991021091017501041001MD1710151+9999MW1031
0068489070999991965112700004+10000+105083FM-12+000399999V0200501N002619999999N0250001N9+02501+02281101181ADDAA124008091AY121999GF107991999999999999999999MD1310091+9999MW1011
0238722250138291965012720003+32350-085000SAO  +0073LSF  V0203305N006252200059N0160005N9+01175-00945999999ADDGD10995+9999999GD20995+9999999GD30995+9999999GD40995+9999999GF100995999999999999999999MW1001EQDN01 00000JPWTH 1QNNE11 1 00099E11 1 00099E11 1 00099E11 1 00099G11U1 99999K11 1 00015L11 1 01000N11 1 00000S11 1 00053V11 1 00099X11 1 33012
0106309350999991965022800004+50367+108750FM-12+077099999V0209991C00001030001CN0100001N9-01721-01891103801ADDAA199000091AY111999GF107991021051012501041021HL10009IA1319IA2999-02289KA1999N-01891MD1710031+9999MW1031
0238725115147111965110701003+40200-076767SAO  +0113MDT  V02099959000050243849N0112005N1+00945+00445999999ADDGD13995+9999999GD24995+9999999GD30995+9999999GD40995+9999999GF108995999999999999999999MW1001EQDN01 00000JPWTH 1QNNE11 1 00499E11 1 00699E11 1 00099E11 1 00099G11 1 00080K11 1 00040L11 1 00700N11 1 00000S11 1 00049V11 1 01099X11 1 00000
0057366220999991965112400004+47933+080383FM-12+066099999V0200501N00621220001CN0500001N9-01281-02001103561ADDAY101999GF100991001001999999001001MD1610071+9999MW1021
0081277190999991965092906004+54200+037483FM-12+016299999V0209991C00001220001CN0040001N9+00891+00611102521ADDAA199000091AY111999GF107991001001999999001011KA1999N+00391MD1610071+9999MW1101
0085478080999991965062909004+33583+130450SAO  +0012RJFF V0201701N004110054019N0028001N1+02801+02411100751ADDGA1081+999999999GF108991999999999999999999MA1999999100611MW1811EQDQ01+999990APOSP 
038899999914735196502271200E+42750-073800SAO  +0084ALB  V0202905N005250121949N064000599-01005-01565101495ADDAA101000095GA1999+012194064GA2999+999999024GA3999+999999999GA4999+999999999GD13075+9999999GD24015+9999999GD30005+9999999GD40005+9999999GF108075999999999999999999MA1999999100375EQDN01 00000JPWTH 1QNNE11 1 00409E11 1 00601E11 1 00000E11 1 00000G11 1 00040H11 1 15040H11C1 37999H11 1 00999H11 1 00999K11 1 00004L11 1 04000M11 1 29640N11 1 00000Q11 1 10149S11 1 00014V11 1 01009X11 1 29010
0035479350999991965100922004+26300+127767SAO  +0008ROHF V0200601N002612200019N0320001N1+02071+01301999999ADDGF100991999999999999999999MW1001
0244999999350461965110307005+52367+000483SAO  +0010EGUN V0202605N001552200059N004000599-00285-00505999999ADDGD10995+9999999GD20995+9999999GD30995+9999999GD40995+9999999GF100995999999999999999999MW1055MW2445EQDN01 07281JPWTH 1QNNE11 1 00099E11 1 00099E11 1 00099E11 1 00099G11U1 99999K11 1 00023L11 1 00250N11 1 07281S11 1 00027V11 1 00099X11 1 26003
0050711210999991965040406004+53667-113467SAO  +0699YED  V0202001N006212200019N0240001N9-00091-00481101821ADDGF100991999999999999999999MA1999999093401MW1001
0043434500999991965052709004+07167+079883FM-12+000899999V0202501N006219999999N0200001N9+02891+02501100611ADDAY121999GF108991031021004501001071MW1031
0269999999255071965061406005+59633-151500SAO  +002299999V0202205N003652200059N048000599+01115+00395101385ADDGD10995+9999999GD20995+9999999GD30995+9999999GD40995+9999999GF100005999999999999999999MA1999999101125EQDN01 00000JPWTH 1QNNE11 1 00099E11 1 00099E11 1 00099E11 1 00099G11U1 99999K11 1 00039L11 1 03000M11 1 29860N11 1 00000Q11 1 10138S11 1 00052V11 1 00000X11 1 22007
038899999913895196510302100E+32300-086400SAO  +0058MGM  V0200605N003650243849N024000599+01895+00615102665ADDAA101000095GA1999+013724084GA2999+024384034GA3999+999999004GA4999+999999999GD12035+9999999GD23025+9999999GD33035+9999999GD40005+9999999GF107055999999999999999999MA1999999101935EQDN01 00000JPWTH 1QNNE11 1 00204E11 1 00403E11 1 00404E11 1 00000G11 1 00080H11 1 11045H11 1 23080H11C1 32999H11 1 00999K11 1 00043L11 1 01500M11 1 30100N11 1 00000Q11 1 10266S11 1 00066V11 1 00906X11 1 06007
0035722595139111965011001004+32783-097433SAO  +0201FWH  V0203301N008710054019N0160001N9+00061-00441999999ADDGF108991999999999999999999MW1001
0269999999939011965030305005+32733-096967SAO  +0150NBE  V0203505N007250243849N024000599+00394-00725101974ADDGD14995+9999999GD20995+9999999GD30995+9999999GD40995+9999999GF108085999999999999999999MA1999999100244EQDN01 00000JPWTH 1QNNE11 1 00699E11 1 00099E11 1 00099E11 1 00099G11 1 00080K11 1 00019L11 1 01500M11 1 29600N11 1 00000Q11 1 10197S11 1 00039V11 1 01010X11 1 35014
0238690070932171965081223003+36683-121767SAO  +0044OAR  V0202705N006252200059N0192005N9+01835+01285999999ADDGD12995+9999999GD22995+9999999GD30995+9999999GD40995+9999999GF103995999999999999999999MW1001EQDN01 00000JPWTH 1QNNE11 1 00299E11 1 00299E11 1 00099E11 1 00099G11U1 99999K11 1 00055L11 1 01200N11 1 00000S11 1 00065V11 1 00499X11 1 27012
0057106550999991965042109004+49800+009900FM-12+025999999V0203101N00511004501CN0150001N9+00501+00391100411ADDAY161031GF108991061061004501021999MD1010041+9999MW1511
0275040180162011965112911003+63967-022600SAO  +0050BIKF V0200205N008850067149N0240005N1-00615-01225101355ADDGD13995+9999999GD20995+9999999GD30995+9999999GD40995+9999999GF106065999999999999999999MA1999999100645MW1001EQDN01 00000JPWTH 1QNNE11 1 00499E11 1 00099E11 1 00099E11 1 00099G11 1 00022K11 1 00010L11 1 01500M11 1 29720N11 1 00000Q11 1 10135S11 1 00021V11 1 00808X11 1 02017
0085479810999991965021621004+24783+141317SAO  +0114RJAW V0200401N003612200019N0112001N1+01741+01301101501ADDGA1021+999999999GF102991999999999999999999MA1999999100201MW1001EQDQ01+999990APOSP 
0092602200999991965072412004+31517-009783FM-12+000899999V0203401N00621220001CN0200001N9+01891+01611101731ADDAY101999GA1011+009009059GF103991999051004501001001MD1010001+9999MW1021EQDQ01+000012SCOTLC
0075614420999991965012206004+18117-015933FM-12+000299999V0209991C00001220001CN0016001N9+02001+01892101051ADDAY101999GF100991001001999999001001KA1999N+01111MW1101EQDQ01+029213ATOD  
0050727855241141965111609004+47617-117650SAO  +0750SKA  V0200201N003110045019N0320001N9+00441-00061101701ADDGF108991999999999999999999MA1999999092821MW1001
0081171240999991965052006004+39767+030517FM-12+078699999V0209991C00001220001CN0080001N9+01781+01001101951ADDAA199000091AY101999GF100991001001999999001001KA1999N+00781MD1210081+9999MW1051
0275722085938311965072511003+32483-080717SAO  +0010NBC  V0202205N003152200059N0064005N1+02445+02225101685ADDGD11995+9999993GD20995+9999999GD30995+9999999GD40995+9999999GF102005999999999999999999MA1999999101595MW1055EQDN01 08100JPWTH 1QNNE11 1 00199E11 1 00099E11 1 00099E11 1 00099G11U1 99999K11 1 00072L11 1 00400M11 1 30000N11 1 08100Q11 1 10168S11 1 00076V11 1 00200X11 1 22006
0082718670999991965082617004+53967-101100SAO  +0271CYQD V0200451N005110240019N0240001N1+01071+00631101591ADDGA1031+003009079GA2051+024009039GF108991999999999999999999MA1999999098311MW1001
0066723405039301965022012004+34917-092150SAO  +0095LRF  V0209991C000012200019N0160001N9+00221+00001101891ADDGA1001+999999999GF100991999999999999999999MA1999999100711MW1001
0050722595139111965092403004+32783-097433SAO  +0201FWH  V0200501N001012200019N0160001N9+02331+01611101771ADDGF100991999999999999999999MA1999999099421MW1001
0123259130999991965052600004+59583+150783FM-12+0118UHMM V0200701N00621220001CN0500001N9+00781-00281100891ADDAA199000091AJ199999900000099AY101999GF101991011011012501001001HL10009IA1199IA2999-00289KA1999N+00001MD1710071+9999MW1031
0238999999350481965051719005+52133+001433SAO  +0026EGVJ V0203605N001050070149N008000599+01115+00835999999ADDGD13995+9999999GD23995+9999999GD30995+9999999GD40995+9999999GF106995999999999999999999MW1055EQDN01 08100JPWTH 1QNNE11 1 00499E11 1 00499E11 1 00099E11 1 00099G11 1 00023K11 1 00047L11 1 00500N11 1 08100S11 1 00052V11 1 00899X11 1 36002
0043802220999991965032807004+04700-074133FM-12+260299999V0209991C000019999999N0100001N9+99999+99999999999ADDAY101999GF100991999999999999999999MW1051
0057103840999991965092303004+52467+013400FM-12+005099999V0201901N00101220001CN0046001N9+01001+00781101701ADDAY101999GF100991001001999999001001MD1710111+9999MW1101
029272530094846196511071600C+41983-087900SAO  +0201ORD  V0200305N004650015249N0032005N9+01175+01065102515ADDAA101000095GD16995+9999999GD23995+9999999GD34995+9999999GD40995+9999999GF108085999999999999999999MA1999999100035MW1045MW2455EQDN01 07080JPWTH 1QNNE11 1 00899E11 1 00499E11 1 00699E11 1 00099G11 1 00005K11 1 00051L11 1 00200M11 1 29540N11 1 07080Q11 1 10251S11 1 00053V11 1 01010X11 1 03009
0243999999231181965032403005+39667-119867SAO  +1532RAA  V0202805N007752200059N024000599+00615-00395100925ADDGD12025+9999999GD22025+9999999GD34995+9999999GD40995+9999999GF108995999999999999999999EQDN01 00000JPWTH 1QNNE11 1 00202E11 1 00202E11 1 00699E11 1 00099G11C1 99999K11 1 00025L11 1 01500N11 1 00000Q11 1 10092S11 1 00043V11 1 01099X11 1 28015
0082716000999991965122709004+43933-060017SAO  +0004CYSA V0202701N012310078019N0064001N1-00091-00261099711ADDGA1031+003609089GA2051+007809059GF108991999999999999999999MA1999999099701MW1711
0057277860999991965042812004+54283+048250FM-12+011799999V0200901N00621024001CN0100001N9+01221+00781100991ADDAY121999GF108991081001999999011999MD1710101+9999MW1021
0069471870999991965072716004+33200+126217SAO  +0013RKPM V0201201N006212200019N0112001N1+02681+02631101081ADDGF102991999999999999999999MA1999999101011MW1001EQDQ01+999990APOSP 
0302999999253391965091512005+59517-139667SAO  +0009YAK  V0200705N003650152449N024000599+00785+00675101935ADDGA1999+015244064GD14085+9999999GD20995+9999999GD30995+9999999GD40995+9999999GF108085999999999999999999MA1999999101835MW1615EQDN01 02000JPWTH 1QNNE11 1 00610E11 1 00099E11 1 00099E11 1 00099G11 1 00050H11 1 15050K11 1 00044L11 1 01500M11 1 30070N11 1 02000Q11 1 10193S11 1 00046V11 1 01010X11 1 07007
0035724835232061965082923004+38550-121300SAO  +0029MHR  V0203001N002612200019N0240001N9+03521+00741999999ADDGF102991999999999999999999MW1001
0051488730999991965091101004+13083+109283SAO  +0011VVTH V0202701N005112200019N0320001N1+99999+99999999999ADDGA1999+006909009GF102991999999999999999999MW1001
0057624650999991965101112004+26133+034300FM-12+001199999V0200301N00571220001CN0100001N9+02891+02111101191ADDAY101999GF100991001001999999001001MD1710121+9999MW1021
0232723810231141965020301003+34917-117900SAO  +0706EDW  V02099959000052200059N0240005N9+01945-00115999999ADDGD13995+9999993GD20995+9999999GD30995+9999999GD40995+9999999GF106995999999999999999999EQDN01 00000JPWTH 1QNNE11 1 00399E11 1 00099E11 1 00099E11 1 00099G11U1 99999K11 1 00030L11 1 01500N11 1 00000S11 1 00067V11 1 00899X11 1 00000
0048476360999991965071318004+35167+136967FM-15+005699999V0201401N000519999999N0128001N1+02411+02301101441ADDGF107991999999999999999999EQDQ01+000000PRSWM2
0057165970999991965062612004+35850+014483FM-12+008099999V0200301N00411220001CN0300001N9+03111+01281101741ADDAY101999GF100991001001999999001001MD1810011+9999MW1021
0269999999939971965120121005+38867-098817SAO  +0568RSL  V0202205N010352200059N019200599+01614-00065101364ADDGD12995+9999999GD23995+9999999GD30995+9999999GD40995+9999999GF106055999999999999999999MA1999999094684EQDN01 00000JPWTH 1QNNE11 1 00299E11 1 00499E11 1 00099E11 1 00099G11C1 99999K11 1 00031L11 1 01200M11 1 27960N11 1 00000Q11 1 10136S11 1 00061V11 1 00806X11 1 22020
0269999999412311965051619005+14800+120267SAO  +0014RPMB V02099959000052200059N016000599+02675+02285100855ADDGD12995+9999999GD22995+9999999GD33995+9999999GD40995+9999999GF106035999999999999999999MA1999999100685EQDN01 00000JPWTH 1QNNE11 1 00299E11 1 00299E11 1 00499E11 1 00099G11C1 99999K11 1 00073L11 1 01000M11 1 29730N11 1 00000Q11 1 10085S11 1 00080V11 1 00704X11 1 00000
0044172180999991965010106004+38500+027017SAO  +0008LTBL V0200201N006212200019N0128001N9+00521+00351101871ADDGF100991999999999999999999MA1999999101661
038899999993815196506082100E+39900-084217SAO  +031399999V0202205N005252200059N024000599+02674+01615101524ADDAA101000095GA1999+011894084GA2999+999999999GA3999+999999999GA4999+999999999GD12035+9999999GD20005+9999999GD30005+9999999GD40005+9999999GF103035999999999999999999MA1999999097974EQDN01 00000JPWTH 1QNNE11 1 00204E11 1 00000E11 1 00000E11 1 00000G11U1 99999H11 1 11039H11 1 00999H11 1 00999H11 1 00999K11 1 00061L11 1 01500M11 1 28930N11 1 00000Q11 1 10152S11 1 00080V11 1 00404X11 1 22010
0035722545999991965031313004+30200-097667SAO  +0165BSM  V0203601N005110057019N0080001N9+01021+00851999999ADDGF108991999999999999999999MW1451
0070303930999991965102212004+56833+124867FM-12+066499999V0209991C00001220001CN0100001N9-00221-00721104171ADDAY111999GF100991001001999999001001KA1999M+00111MD1710011+9999MW1021
0029723930999991965062911004+34717-120567SAO  +0112VBG  V0209991C000010006019N0008001N9+01171+00941999999ADDGF108991999999999999999999
0057269410999991965081009004+53117+026000FM-12+019499999V0203201N00511012301CN0130001N9+01611+01111101841ADDAY111999GF105991051011012501001001MD1210101+9999MW1021
0073606200999991965120615004+27883-000283FM-12+026499999V0200401N00511220001CN0450001N9+02501+00391101581ADDAY101999GA1041+075009009GF104991001001999999001021MD1610261+9999MW1021
0057303930999991965041209004+56833+124867FM-12+066499999V0202701N00311012301CN0100001N9+00391-00891104171ADDAY121999GF106991061011012501001001MD1710211+9999MW1021
002899999994144196509260600E+43833-112683SAO  +146199999V0200405N002159999999N999999999+99999+99999999999ADDAA101000095QNNX11 1 04004
0098718960999991965110920004+53833-122800SAO  +0678CYXS V0201131N000510012019N0112001N1+00081-00041102391ADDGA1021+000309079GA2051+001209079GA3021+003009079GF108991999999999999999999MA1999999094141MW1001
0035727855241141965103107004+47617-117650SAO  +0750SKA  V0200501N003612200019N0480001N9+00941-00221999999ADDGF107991999999999999999999MW1001
0165999999931141965021517005+33700-117833SAO  +001999999V0200405N009352200059N024000599+01614-00565101494ADDGF100005999999999999999999MA1999999101294EQDN01 00000JPWTH 1QNNG11U1 99999K11 1 00022L11 1 01500M11 1 29910N11 1 00000Q11 1 10149S11 1 00061V11 1 00000X11 1 04018
007494968099999196502171400N-41550+147220AUST +0178YMLT V0203155N003159999999N999999999+01125+00805999999ADDAY144999GA1005+999999999GF100995004999999999999999MA1999999099735MW1045
0035488660999991965120307004+13983+108000SAO  +0801VVPK V0200601N006712200019N0240001N1+02911+01741999999ADDGF102991999999999999999999MW1001
033499999914852196511020300E+41250-080667SAO  +0359YNG  V0203505N006750054949N024000599+00565+00175102905ADDAA101000095GA1999+005494064GA2999+008534064GD13065+9999999GD24025+9999999GD30995+9999999GD40995+9999999GF108085999999999999999999MA1999999098515EQDN01 00000JPWTH 1QNNE11 1 00407E11 1 00603E11 1 00099E11 1 00099G11 1 00018H11 1 15018H11 1 15028K11 1 00035L11 1 01500M11 1 29090N11 1 00000Q11 1 10290S11 1 00042V11 1 01010X11 1 35013
0057310880999991965011621004+59367+143200FM-12+000699999V0203601N00721220001CN0500001N9-02611-03001102571ADDAY121999GF106991001001999999001011MD1610091+9999MW1021
0057305370999991965120409004+54033+108267FM-12+046599999V0202701N01181030001CN0200001N9-02001-02781104191ADDAY131999GF107991041091008001031001MD1210181+9999MW1381
0082719640999991965062622004+60717-135067SAO  +0703CYXY V0200451N001510180019N0640001N1+01961-00091101461ADDGA1051+018009089GA2021+090009009GF107991999999999999999999MA1999999093131MW1001
0165999999232391965022818005+37733-122317SAO  +0005NGZ  V0203505N007252200059N024000599+01115+00335102115ADDGF100005999999999999999999MA1999999102005EQDN01 00000JPWTH 1QNNG11U1 99999K11 1 00038L11 1 01500M11 1 30120N11 1 00000Q11 1 10211S11 1 00052V11 1 00000X11 1 35014
0035743941999991965100102004+42933-071433SAO  +0076MHT  V0209991C000010150019N0240001N1+00741+00191999999ADDGF108991999999999999999999MW1001
0068223490999991965030721004+66167+039533FM-12+000899999V0203601N00211220001CN0200001N9-02001-02221102171ADDAA106000091AY101999GF100991001001999999001001MD1710021+9999MW1021
0078916800999991965061210004-17750+177450FM-12+001699999V0201401N00361220001CN0450001N9+02171+01831101461ADDAY111999GA1011+007509089GF102991999021008001001001MW1011EQDQ01+000012SCOTLC
0050479810999991965111412004+24783+141317SAO  +0114RJAW V0201801N004112200019N0112001N1+02351+02021101791ADDGF102991999999999999999999MA1999999100541MW1001
0035723087937351965070223004+37133-076617SAO  +0004FAF  V0201401N004112200019N0160001N9+02461+01461999999ADDGF102991999999999999999999MW1001
0232726436949301965091413003+43933-090267SAO  +0280VOK  V0200705N002150027449N0112005N9+01175+01065999999ADDGD12995+9999999GD23995+9999999GD34995+9999999GD40995+9999999GF108995999999999999999999EQDN01 00000JPWTH 1QNNE11 1 00299E11 1 00499E11 1 00699E11 1 00099G11 1 00009K11 1 00051L11 1 00700N11 1 00000S11 1 00053V11 1 01099X11 1 07004
0057323630999991965101715004+56100+158883FM-12+999999999V0209991C00001030001CN0200001N9-00391-00391101101ADDAY121999GF107991021051012501031001MD1210041+9999MW1021
0238999999231361965060619005+34217-119083SAO  +002099999V0202405N002150048849N006400599+01615+01175999999ADDGD12995+9999999GD24995+9999999GD30995+9999999GD40995+9999999GF108995999999999999999999MW1055EQDN01 08100JPWTH 1QNNE11 1 00299E11 1 00699E11 1 00099E11 1 00099G11 1 00016K11 1 00053L11 1 00400N11 1 08100S11 1 00061V11 1 01099X11 1 24004
0232999999107181965071101005+08917-079600SAO  +0016MBHO V0203305N003152200059N024000599+02785+02335999999ADDGD12995+9999999GD24995+9999993GD30995+9999999GD40995+9999999GF108995999999999999999999EQDN01 00000JPWTH 1QNNE11 1 00299E11 1 00599E11 1 00099E11 1 00099G11U1 99999K11 1 00074L11 1 01500N11 1 00000S11 1 00082V11 1 01099X11 1 33006
0127266590999991965031718004+54883+028700FM-12+017499999V0202001N00311003601CN0100001N9+00221+00221101551ADDAA106075091AA224999999AY161999GA1081+003609079GF108991999071004501021999KA1999M+00501MD1310041+9999MW1611EQDQ01+000082SCOTLC
0082719130999991965110902004+58750-094067SAO  +0029CYYQ V0202701N008710117019N0240001N1-01091-01311101411ADDGA1061+011709059GA2021+024009049GF108991999999999999999999MA1999999100951MW1761
017699999923154196503060600E+39283-114850SAO  +1906ELY  V02099959000052200059N024000599-00395-01175102245ADDAA101000095GF100005999999999999999999MA1999999081075EQDN01 00000JPWTH 1QNNG11U1 99999K11 1 00011L11 1 01500M11 1 23940N11 1 00000Q11 1 10224S11 1 00025V11 1 00000X11 1 00000
0238724837932161965060513003+39117-121433SAO  +0038BAB  V0201805N003652200059N0160005N9+01175+00945999999ADDGD11995+9999993GD20995+9999999GD30995+9999999GD40995+9999999GF103995999999999999999999MW1001EQDN01 00000JPWTH 1QNNE11 1 00199E11 1 00099E11 1 00099E11 1 00099G11U1 99999K11 1 00049L11 1 01000N11 1 00000S11 1 00053V11 1 00499X11 1 18007
0035160365999991965110514004+46033+012600SAO  +0129LIPA V0209991C000010180019N0176001N9+01191+00961999999ADDGF108991999999999999999999MW1001
0067103840999991965110116004+52467+013400SAO  +0049EDBB V0202201N009810060019N0144001N1+99999+99999999999ADDGA1021+004509059GA2051+006009089GF107991999999999999999999MW1001
0057470160999991965092318004+41400+128483FM-12+999999999V0209991C00001220001CN0040001N9+00391+00221100001ADDAY101999GF100991001001999999001001MD1210111+9999MW1101
0076035963999991965011300004+52117+001433SAO  +0030EGVJ V0202501N006712200019N0128001N9+00561+00061100371ADDGA1021+999999999GA2001+999999999GF102991999999999999999999MA1999999100031
0082725377148041965011306004+42617-082833SAO  +0177MTC  V0209991C000010300019N0096001N9-00481-00701101761ADDGA1061+999999999GA2081+999999999GF108991999999999999999999MA1999999099531MW1051
0035488660999991965010811004+13983+108000SAO  +0801VVPK V0200501N004612200019N0240001N1+01961+01411999999ADDGF102991999999999999999999MW1001
0275743920146111965082902003+43900-069933SAO  +0021NHZ  V0203305N004650243849N0112005N1+01675+01445100175ADDGD12995+9999999GD23995+9999999GD30995+9999999GD40995+9999999GF106065999999999999999999MA1999999099905MW1001EQDN01 00000JPWTH 1QNNE11 1 00299E11 1 00499E11 1 00099E11 1 00099G11 1 00080K11 1 00058L11 1 00700M11 1 29500N11 1 00000Q11 1 10017S11 1 00062V11 1 00707X11 1 33009
038899999913994196506020900E+38750-090383SAO  +017299999V0202405N006252200059N024000599+02395+01835100985ADDAA101000095GA1999+018294064GA2999+999999999GA3999+999999999GA4999+999999999GD12025+9999999GD20005+9999999GD30005+9999999GD40005+9999999GF102025999999999999999999MA1999999098985EQDN01 00000JPWTH 1QNNE11 1 00203E11 1 00000E11 1 00000E11 1 00000G11U1 99999H11 1 15060H11 1 00999H11 1 00999H11 1 00999K11 1 00065L11 1 01500M11 1 29230N11 1 00000Q11 1 10098S11 1 00075V11 1 00303X11 1 24012
0323999999938391965013015005+99999+999999SAO  +999999999V0203605N007250045749N011200599-00784-01115101664ADDGA1999+004574064GA2999+013724064GD13055+9999999GD24035+9999999GD30995+9999999GD40995+9999999GF108085999999999999999999MA1999999100544EQDN01 00000JPWTH 1QNNE11 1 00406E11 1 00604E11 1 00099E11 1 00099G11 1 00015H11 1 15015H11 1 15045K11 1 00012L11 1 00700M11 1 29690N11 1 00000Q11 1 10166S11 1 00018V11 1 01010X11 1 36014
0057259020999991965091706004+60750+151767FM-12+079799999V0203201N00101220001CN0500001N9+01501-00611101521ADDAY101999GF102991021001999999061001MD1710091+9999MW1021
0275723540139191965091312003+35417-097383SAO  +0384TIK  V0201905N004652200059N0176005N9+02335+01675101595ADDGD12995+9999999GD20995+9999999GD30995+9999999GD40995+9999999GF102995999999999999999999MA1999999097055MW1001EQDN01 00000JPWTH 1QNNE11 1 00299E11 1 00099E11 1 00099E11 1 00099G11U1 99999K11 1 00062L11 1 01100M11 1 28660N11 1 00000Q11 1 10159S11 1 00074V11 1 00399X11 1 19009
0057103130999991965102512004+51967+007600FM-12+006499999V0201001N00211220001CN0060001N9+01001+00391102421ADDAY101999GF100991001001999999001001MD1810121+9999MW1021
031399999914923196502010000E+41450-090500SAO  +0177MLI  V0201505N005250021349N000800599-01335-01505100345ADDAA101001595GA1999+002134104GD15085+9999999GD20995+9999999GD30995+9999999GD40995+9999999GF108085999999999999999999MA1999999098075MW1735EQDN01 04100JPWTH 1QNNE11 1 00710E11 1 00099E11 1 00099E11 1 00099G11 1 00007H11 1 98007K11 1 00005L11 1 00050M11 1 28960N11 1 04100Q11 1 10034S11 1 00008V11 1 01010X11 1 15010
0057326180999991965092718004+55200+165817FM-12+000699999V0201601N01181004501CN0200001N9+00721+00391101961ADDAY121999GF108991081061004501999999MD1610121+9999MW1021
0057347310999991965101412004+47250+039650FM-12+007799999V0202001N00311036001CN0200001N9+00781-00391102691ADDAY111999GF106991031081017501031001MD1710181+9999MW1011
0057400390999991965120600004+35950+039000FM-12+025099999V0209991C00001220001CN0300001N9+00501+00221102211ADDAY101999GF105991001001999999001061MD1310031+9999MW1031
0057241250999991965081606004+68500+112433FM-12+999999999V0200501N00621030001CN0200001N9+01391+00891100751ADDAY111999GF108991021011012501051999MD1210021+9999MW1031
0296999999129251965031309005+28367-097667SAO  +0060NIR  V0200305N004150039649N016000599+01615+01335101395ADDGA1999+003964064GD14085+9999999GD20995+9999999GD30995+9999999GD40995+9999999GF108085999999999999999999MA1999999100715EQDN01 00000JPWTH 1QNNE11 1 00610E11 1 00099E11 1 00099E11 1 00099G11 1 00013H11 1 15013K11 1 00056L11 1 01000M11 1 29740N11 1 00000Q11 1 10139S11 1 00061V11 1 01010X11 1 03008
007772251012924196512050900D+27767-097500SAO  +0013CRP  V0203601N001512200019N0160001N1+00911+00741102221ADDAA101000095GA1051+220009009GF107991999999999999999999MA1999999102071MW1001
0269999999230481965020903005+35183-103600SAO  +1237TCC  V0202105N002652200059N032000599-00225-00335101525ADDGD12995+9999999GD24995+9999993GD30995+9999999GD40995+9999999GF108035999999999999999999MA1999999087375EQDN01 00000JPWTH 1QNNE11 1 00299E11 1 00599E11 1 00099E11 1 00099G11U1 99999K11 1 00026L11 1 02000M11 1 25800N11 1 00000Q11 1 10152S11 1 00028V11 1 01004X11 1 21005
0232722050128151965010410003+28450-081300SAO  +0032MC0  V0209995C000050243849N0160005N1+01335+01115999999ADDGD12995+9999999GD24995+9999999GD30995+9999999GD40995+9999999GF108995999999999999999999EQDN01 00000JPWTH 1QNNE11 1 00299E11 1 00699E11 1 00099E11 1 00099G11 1 00080K11 1 00052L11 1 01000N11 1 00000S11 1 00056V11 1 01099X11 1 00000
0165999999039271965100921005+32833-097050SAO  +017599999V0202005N005252200059N024000599+03285+01505101115ADDGF100005999999999999999999MA1999999099125EQDN01 00000JPWTH 1QNNG11U1 99999K11 1 00059L11 1 01500M11 1 29270N11 1 00000Q11 1 10111S11 1 00091V11 1 00000X11 1 20010
0238722250138291965082322003+32350-085000SAO  +0073LSF  V0202105N002152200059N0160005N9+03115+02175999999ADDGD12995+9999999GD23995+9999999GD30995+9999999GD40995+9999999GF106995999999999999999999MW1001EQDN01 00000JPWTH 1QNNE11 1 00299E11 1 00499E11 1 00099E11 1 00099G11C1 99999K11 1 00071L11 1 01000N11 1 00000S11 1 00088V11 1 00799X11 1 21004
0057109610999991965021321004+47417+010983FM-12+296199999V0202601N01031000151CN0000001N9-01281-01281999999ADDAY171031GF109991091999000251999999MD1710131+9999MW1711
0050471420999991965043019004+35900+128650SAO  +0037RKTN V0209991C000012200019N0112001N9+00631+00241101961ADDGF100991999999999999999999MA1999999101551MW1001
0070870780999991965072512004-24683-060567FM-12+013099999V0200401N01031220001CN0100001N9+02611+01391101181ADDAY101999GF100991001001999999001001KA1999N+02391MD1310191+9999MW1071
0035690110999991965112613004+40183-117933SAO  +1329DPG  V0201301N000510150019N0112001N9-00091-00261999999ADDGF107991999999999999999999MW1001
0070873120999991965050700004-31583-068533FM-12+063099999V0209991C000019999999N0250001N9+01391+00281100371ADDAY101999GF103991011001999999061021KA1999M+02001MD1310111+9999MW1021
0082716010999991965101817004+44633-063500SAO  +0041CYAW V0202701N005110750019N0240001N1+01461+00351102451ADDGA1041+030009039GA2021+075009009GF107991999999999999999999MA1999999101931MW1001
0139999999266381965031106005+69733-163017SAO  +0006PIZ  V0202405N006252200059N016000599-02565-02835103325ADDGF100005999999999999999999EQDN01 00000JPWTH 1QNNG11U1 99999K11 1-00019L11 1 01000N11 1 00000Q11 1 10332S11 1-00014V11 1 00000X11 1 24012
0035702220999991965091717004+64733-156933SAO  +0046PAGA V0201101N002112200019N0240001N9+00521+00411999999ADDGF102991999999999999999999MW1001
0035725377148041965121908004+42617-082833SAO  +0177MTC  V0202801N002112200019N0320001N9-00701-01031999999ADDGF100991999999999999999999MW1001
0269727846241601965100919005+46100-118283SAO  +0362ALW  V0202405N007252200059N024000599+02175+00945101525ADDGD12995+9999999GD23995+9999999GD30995+9999999GD40995+9999999GF107055999999999999999999MA1999999097265EQDN01 00000JPWTH 1QNNE11 1 00299E11 1 00499E11 1 00099E11 1 00099G11C1 99999K11 1 00049L11 1 01500M11 1 28720N11 1 00000Q11 1 10152S11 1 00071V11 1 00906X11 1 24014
0050719320999991965013013004+56750-111150SAO  +0371CYMM V0209991C000012200019N0240001N1-03311-03531102561ADDGF100991999999999999999999MA1999999097631MW1001
0067411960999991965061706004+25350+055383FM-12+0002OMSJ V0202301N00721220001CN0023001N9+02891+02391100091ADDAA199000091GF100991001001999999001001KA1999N+02611MD1010011+9999
0082489300999991965121503004+19883+102133SAO  +0305VLLB V0209991C000010030019N0144001N1+02241+02181101481ADDGA1051+003009039GA2041+007809049GF107991999999999999999999MA1999999098001MW1001
0066718660999991965072615004+52167-106683SAO  +0501CYXE V0201351N003612200019N0240001N1+02181+01301101841ADDGA1041+030009039GF102991999999999999999999MA1999999095871MW1001
005591182022521196508141000D+21333-157917SAO  +0003PHNL V0200601N004112200019N0240001N9+02501+01941101531ADDAA101000095GF102991999999999999999999MA1101491101491
0050711210999991965042218004+53667-113467SAO  +0699YED  V0201801N007712200019N0160001N9+00411-00151102651ADDGF100991999999999999999999MA1999999094181MW1001
0244999999139041965080923005+30200-097667SAO  +0154BSM  V0201105N011850365849N009600599+02945+02065999999ADDGD12995+9999999GD23995+9999999GD33995+9999999GD40995+9999999GF107995999999999999999999MW1805MW2955EQDN01 01023JPWTH 1QNNE11 1 00299E11 1 00499E11 1 00499E11 1 00099G11 1 00120K11 1 00069L11 1 00600N11 1 01023S11 1 00085V11 1 00999X11 1 11023
0069471080999991965042908004+37567+126967SAO  +0087RKSL V0200701N003610180019N0112001N1+01241+00351100751ADDGF108991999999999999999999MA1999999100581MW1001EQDQ01+999990APOSP 
0070856040999991965082800004-34067-070367FM-12+215799999V0209991C00001015001CN0200001N9+00221-00501099211ADDAY121999GF107991051061017501041021KA1999M+01001MD1610031+9999MW1011
0269999999148561965040101005+42100-083167SAO  +018199999V0201205N003152200059N024000599-00115-00675103105ADDGD11995+9999993GD20995+9999999GD30995+9999999GD40995+9999999GF101005999999999999999999MA1999999100855EQDN01 00000JPWTH 1QNNE11 1 00199E11 1 00099E11 1 00099E11 1 00099G11U1 99999K11 1 00020L11 1 01500M11 1 29780N11 1 00000Q11 1 10310S11 1 00030V11 1 00100X11 1 12006
0043401000999991965080912004+33817+035483FM-12+0024OLBA V0202601N00511220001CN0300001N9+02891+02391101061ADDGF104991041021008001001001MD1610031+9999
0121107080999991965062018004+49217+007117FM-12+032299999V0202601N00151220001CN0120001N9+02221+01391101911ADDAY101061GA1021+015009059GA2011+069009009GF103991021041017501999011KA1999M+02281MD1710041+9999MW1011EQDQ01    003SCOMCG
0057103380999991965030615004+52450+009717FM-12+005599999V0200501N00461007801CN0100001N9+00111-00281102371ADDAY121999GF107991071051008001999999MD1210091+9999MW1031
0057306730999991965121518004+53733+119783FM-12+061999999V0209991C00001220001CN0100001N9-04221-04501999999ADDAY101999GF100991001001999999001001MD1810091+9999MW1021
0057311680999991965060909004+56450+138650FM-12+000999999V0202701N00211012301CN0200001N9+01111+00221100331ADDAY181999GF107991071081012501001001MD1810031+9999MW1021
038899999914935196507020900E+40967-098317SAO  +056799999V0203605N005752200059N032000599+02005+01565101025ADDAA101000095GA1999+999999094GA2999+999999999GA3999+999999999GA4999+999999999GD10005+9999999GD20005+9999999GD30005+9999999GD40005+9999999GF100005999999999999999999MA1999999094585EQDN01 00000JPWTH 1QNNE11 1 00000E11 1 00000E11 1 00000E11 1 00000G11U1 99999H11 1 18999H11 1 00999H11 1 00999H11 1 00999K11 1 00060L11 1 02000M11 1 27930N11 1 00000Q11 1 10102S11 1 00068V11 1 00000X11 1 36011
0051916800999991965100107004-17750+177450SAO  +0018NFFN V0202401N001012200019N0320001N1+02351+01741101281ADDGA1011+010509009GF102991999999999999999999MW1001
0057260380999991965051512004+59417+024800FM-12+004499999V0203601N00721220001CN0500001N9+00611-00501101631ADDAY111999GF104991041021012501001001MD1110021+9999MW1011
0269727846241601965042101005+46100-118283SAO  +0362ALW  V0202805N003152200059N064000599+01835+01065101185ADDGD12995+9999999GD24995+9999999GD30995+9999999GD40995+9999999GF108085999999999999999999MA1999999096885EQDN01 00000JPWTH 1QNNE11 1 00299E11 1 00699E11 1 00099E11 1 00099G11C1 99999K11 1 00051L11 1 04000M11 1 28610N11 1 00000Q11 1 10118S11 1 00065V11 1 01010X11 1 28006
0057624380999991965040800004+30567+032100FM-12+001699999V0201201N00211090001CN0100001N9+01501+00221101711ADDAY121999GF106991001001999999001021MD1610211+9999MW1021
004672256013959196506302200D+31617-097217SAO  +0155ACT  V0201801N004112200019N0240001N1+03351+01961999999ADDAA101000095GF102991999999999999999999MW1001
0092280440999991965040215004+59600+060533FM-12+013299999V0201601N00211007801CN0200001N9+00501-00221099661ADDAA106075091AA224999999AY151999GF108991081001008001021999KA1999M+00501MD1710051+9999MW1501
007494981099999196503290500N-42130+148080AUST +0008     V0200455N004659999999N999999999+01505+00605999999ADDAY124999GA1025+006005065GF102995024045006005999999MA1999999101665MW1025
009094821099999196510300230N-37750+140780AUST +0069YMMG V0202485N006259999999N999999999+02565+01305999999ADDAY154999GA1005+999999999GA2025+999999035GF102995004999999999085999MA1999999100185MW1055
0238747910137171965112411003+33683-078933SAO  +0008MYR  V0200105N001052200059N0112005N9+00395-00115999999ADDGD10995+9999999GD20995+9999999GD30995+9999999GD40995+9999999GF100995999999999999999999MW1001EQDN01 00000JPWTH 1QNNE11 1 00099E11 1 00099E11 1 00099E11 1 00099G11U1 99999K11 1 00030L11 1 00700N11 1 00000S11 1 00039V11 1 00099X11 1 01002
0057151500999991965120209004+46583+026983FM-12+018399999V0200501N00101007801CN0060001N9+00221+00111101491ADDAY121999GF108991051051008001071999MD1710011+9999MW1101
0269999999242831965110500005+40983-124100SAO  +0062ACV  V0202905N002152200059N024000599+01565+01395102375ADDGD12995+9999999GD20995+9999999GD30995+9999999GD40995+9999999GF101015999999999999999999MA1999999101525EQDN01 00000JPWTH 1QNNE11 1 00299E11 1 00099E11 1 00099E11 1 00099G11U1 99999K11 1 00057L11 1 01500M11 1 29980N11 1 00000Q11 1 10237S11 1 00060V11 1 00101X11 1 29004
0069749388999991965011120004+36083+129567SAO  +002199999V0203001N014412200019N0112001N1-00651-01201101931ADDGF100991999999999999999999MA1999999101681MW1001EQDQ01+999990APOSP 
0035723865231121965061610004+36250-115033SAO  +0570LSV  V0203201N003112200019N0240001N9+01851+00021999999ADDGF100991999999999999999999MW1001
010694999900178196505110200N-28170+153500AUST +0006     V0203155N002659999999N999999999+02295+01605999999ADDAY124999GA1015+012005085GA2005+999999999GA3015+999999999GF102995014015012005999065MA1999999102205MW1025
0377999999216031965052415005+16733-169517SAO  +0002PJON V0201005N006752200059N024000599+02505+02115101465ADDGA1999+004274084GA2999+999999024GA3999+999999999GA4999+999999999GD12045+9999999GD23035+9999999GD30005+9999999GD40005+9999999GF106055999999999999999999MA1999999101395EQDN01 00000JPWTH 1QNNE11 1 00205E11 1 00404E11 1 00000E11 1 00000G11C1 99999H11 1 11014H11C1 37999H11 1 00999H11 1 00999K11 1 00070L11 1 01500M11 1 29940N11 1 00000Q11 1 10146S11 1 00077V11 1 00806X11 1 10013
0043489480999991965110904004+16667+105000FM-12+018499999V0200401N003119999999N0350001N9+99999+99999999999ADDAY121999GF105991999999999999999999MW1021
0081307580999991965050500004+52017+113333FM-12+068599999V0209991C00001220001CN0100001N9-00221-01001101611ADDAA199000091AY101999GF100991001001999999001001KA1999N-01001MD1810021+9999MW1021
0082724285138121965010500004+39817-082933SAO  +0225LCK  V0201201N002112200019N0160001N9+00001-00551103021ADDGA1051+999999999GA2001+999999999GF107991999999999999999999MA1999999100141MW1001
0356040180162011965012021003+63967-022600SAO  +0050BIKF V0201605N005250091449N0320005N1+00065-00675098815ADDGA1031+003054154GA2021+009144064GA3021+024384034GD12035+9999999GD23025+9999999GD34025+9999999GD40995+9999999GF108085999999999999999999MA1999999098145MW1001EQDN01 00000JPWTH 1QNNE11 1 00204E11 1 00403E11 1 00603E11 1 00099G11 1 00030H11 1 17010H11 1 15030H11 1 23080K11 1 00020L11 1 02000M11 1 28980N11 1 00000Q11 1 09881S11 1 00033V11 1 01010X11 1 16010
0035724088137071965112810004+39133-075467SAO  +0009KDOV V0209991C000012200019N0160001N9+00461-00701999999ADDGF100991999999999999999999MW1001
0383999999232371965041921005+37900-121250SAO  +0007SCK  V0203605N002152200059N008000599+02505+01725101905ADDGA1999+999999084GA2999+999999024GA3999+999999999GA4999+999999999GD14005+9999999GD20085+9999999GD30005+9999999GD40005+9999999GF108065999999999999999999MA1999999101795MW1045EQDN01 08200JPWTH 1QNNE11 1 00600E11 1 00010E11 1 00000E11 1 00000G11C1 99999H11 1 11999H11C1 37999H11 1 00999H11 1 00999K11 1 00063L11 1 00500M11 1 30060N11 1 08200Q11 1 10190S11 1 00077V11 1 01008X11 1 36004
038899999913733196503221500E+37333-079200SAO  +0281LYH  V0202105N005252200059N048000599+00335-00895103185ADDAA101000095GA1999+036584034GA2999+999999004GA3999+999999999GA4999+999999999GD12025+9999999GD23075+9999993GD30005+9999999GD40005+9999999GF107025999999999999999999MA1999999099665EQDN01 00000JPWTH 1QNNE11 1 00202E11 1 00309E11 1 00000E11 1 00000G11U1 99999H11 1 23120H11C1 32999H11 1 00999H11 1 00999K11 1 00016L11 1 03000M11 1 29430N11 1 00000Q11 1 10318S11 1 00038V11 1 00903X11 1 21010
0269722265138211965121206003+32383-086350SAO  +0053MXF  V02099959000050304849N0160005N9+01395+00895101665ADDGD13995+9999999GD20995+9999999GD30995+9999999GD40995+9999999GF107995999999999999999999MA1999999101025EQDN01 00000JPWTH 1QNNE11 1 00499E11 1 00099E11 1 00099E11 1 00099G11 1 00100K11 1 00048L11 1 01000M11 1 29830N11 1 00000Q11 1 10166S11 1 00057V11 1 00999X11 1 00000
0377999999127141965120406005+21433-071133SAO  +0003MKJT V0201005N010852200059N016000599+02505+01945101425ADDGA1999+006104084GA2999+999999999GA3999+999999999GA4999+999999999GD12025+9999999GD20005+9999999GD30005+9999999GD40005+9999999GF102025999999999999999999MA1999999101355EQDN01 00000JPWTH 1QNNE11 1 00203E11 1 00000E11 1 00000E11 1 00000G11U1 99999H11 1 11020H11 1 00999H11 1 00999H11 1 00999K11 1 00067L11 1 01000M11 1 29930N11 1 00000Q11 1 10142S11 1 00077V11 1 00303X11 1 10021
0035747770038521965080617004+30417-086683SAO  +0014HRT  V0201601N003112200019N0112001N9+02961+02241999999ADDGF102991999999999999999999MW1001
0035723408138141965040623004+35967-089950SAO  +0077BYH  V0201701N006212200019N0160001N9+02391+01831999999ADDGF108991999999999999999999MW1001
0043637370999991965040503004-01133+035833FM-12+189099999V0203301N00211105001CN0240001N9+01001+00891999999ADDAY121999GF105991011051004501041081MW1031
0377999999116471965060112005+99999+999999SAO  +999999999V0203405N003652200059N016000599+02835+02175101635ADDGA1999+006714084GA2999+027434034GA3999+999999004GA4999+999999999GD12025+9999999GD22015+9999999GD32025+9999999GD40005+9999999GF103035999999999999999999MA1999999101395EQDN01 00000JPWTH 1QNNE11 1 00202E11 1 00201E11 1 00202E11 1 00000G11U1 99999H11 1 11022H11 1 23090H11C1 32999H11 1 00999K11 1 00071L11 1 01000M11 1 29940N11 1 00000Q11 1 10163S11 1 00083V11 1 00404X11 1 34007
0058941200999991965050718004-12467+130867FM-12+002799999V0201601N001519999999N0400001N9+02501+02331999999ADDAY121999GF100991001001999999001001MA1999999100951MW1021
0050724457039381965081003004+37733-092150SAO  +0353TBN  V0209991C000012200019N0112001N9+02051+01501101601ADDGF100991999999999999999999MA1999999097491MW1001
0043160800999991965032800004+45433+009283FM-12+010399999V0209991C00001220001CN0100001N9+01001+00501102811ADDAY101999GF100991001001999999001001MW1021
0249999999931011965012317005+33683-117717SAO  +011699999V02099959000052200059N002000599+01174+01005101954ADDGD10995+9999999GD20995+9999999GD30995+9999999GF104045999999999999999999MA1999999100584MW1445EQDN01 07200JPWTH 1QNNE11 1 00099E11 1 00099E11 1 00099G11U1 99999K11 1 00050L11 1 00125M11 1 29700N11 1 07200Q11 1 10195S11 1 00053V11 1 00505X11 1 00000
0249999999938411965110914005+30717-087017SAO  +0054NSE  V0200105N002652200059N002400599+01674+01445101834ADDGD12995+9999999GD23995+9999999GD30995+9999999GF106065999999999999999999MA1999999101224MW1445EQDN01 07200JPWTH 1QNNE11 1 00299E11 1 00499E11 1 00099G11C1 99999K11 1 00058L11 1 00150M11 1 29890N11 1 07200Q11 1 10183S11 1 00062V11 1 00707X11 1 01005
0275722210138581965100718003+30483-086517SAO  +0020VPS  V0203105N006252200059N0160005N9+02335+01565101095ADDGD12995+9999999GD20995+9999999GD30995+9999999GD40995+9999999GF103995999999999999999999MA1999999100785MW1001EQDN01 00000JPWTH 1QNNE11 1 00299E11 1 00099E11 1 00099E11 1 00099G11U1 99999K11 1 00060L11 1 01000M11 1 29760N11 1 00000Q11 1 10109S11 1 00074V11 1 00499X11 1 31012
0035479310999991965021710004+26350+127767SAO  +0046RODN V0202301N004112200019N0160001N9+02001+01721999999ADDGF102991999999999999999999MW1001
0057273330999991965031103004+57733+040950FM-12+013999999V0200801N00101024001CN0010001N9-01391-01391101631ADDAY171999GF108991081001999999011999MD1710061+9999MW1711
0377999999128541965020220005+99999+999999SAO  +999999999V0203505N004152200059N016000599+01785+01175101655ADDGA1999+010674064GA2999+999999004GA3999+999999999GA4999+999999999GD12025+9999999GD22015+9999999GD30005+9999999GD40005+9999999GF102025999999999999999999MA1999999101465EQDN01 00000JPWTH 1QNNE11 1 00202E11 1 00201E11 1 00000E11 1 00000G11U1 99999H11 1 15035H11C1 32999H11 1 00999H11 1 00999K11 1 00053L11 1 01000M11 1 29960N11 1 00000Q11 1 10165S11 1 00064V11 1 00302X11 1 35008
0057289000999991965040303004+53250+050450FM-12+004499999V0202301N00211220001CN0040001N9-00221-00281100691ADDAY111999GF103991031051008001001001MD1210161+9999MW1101
0057272520999991965082300004+58350+043383FM-12+014499999V0202901N00211024001CN0000001N9+01281+01221101441ADDAY161999GF108991081001999999021999MD1710041+9999MW1621
0057152920999991965101409004+45417+022250FM-12+024299999V0209991C00001220001CN0200001N9+01281+00111102931ADDAY101999GF100991001001999999001001MD1810041+9999MW1021
0057306640999991965061206004+53567+115567FM-12+081299999V0202701N00621075001CN0500001N9+01781-00221100861ADDAY121999GF107991011021017501001021MD1710031+9999MW1021
033499999924243196511261500E+46567-120533SAO  +032499999V02099959000050152449N016000599-00065-00285101365ADDAA101000095GA1999+007624154GA2999+015244064GD12025+9999999GD24065+9999999GD30995+9999999GD40995+9999999GF108085999999999999999999MA1999999097435EQDN01 00000JPWTH 1QNNE11 1 00203E11 1 00607E11 1 00099E11 1 00099G11 1 00050H11 1 17025H11 1 15050K11 1 00027L11 1 01000M11 1 28770N11 1 00000Q11 1 10136S11 1 00031V11 1 01010X11 1 00000
0043255630999991965111406004+64783+177567FM-12+006299999V0203401N00721220001CN0200001N9-01721-01891099451ADDGF100991001001999999001001MD1710131+9999
0043678890999991965060904004+18300+032750FM-12+182999999V0201101N00621000301CN0020001N9+00611+00561999999ADDAY151999GF108991081071000251999999MW1551
0057355290999991965090300004+48217+057117FM-12+999999999V0200701N00311220001CN0500001N9+01221+00391102731ADDAY101999GF100991001001999999001001MD1210011+9999MW1021
0035479300999991965122419004+26200+127650SAO  +0004ROAH V0203601N007710120019N0160001N1+01521+00741999999ADDGF108991999999999999999999MW1001
026699999914819196503242200E+41783-087750SAO  +0187MDW  V0200205N009350051849N002400599-00445-00895102605ADDAA101000395GD14995+9999999GD20995+9999999GD30995+9999999GF108085999999999999999999MA1999999100205MW1045MW2715EQDN01 04080JPWTH 1QNNE11 1 00699E11 1 00099E11 1 00099G11 1 00017K11 1 00016L11 1 00150M11 1 29590N11 1 04080Q11 1 10260S11 1 00024V11 1 01010X11 1 02018
0057277600999991965042021004+54183+045183FM-12+020199999V0200901N00101220001CN0100001N9+00281+00001102531ADDAY101999GF100991001001999999001001MD1210021+9999MW1021
017699999914821196506122100E+40000-082883SAO  +0248CMH  V0200105N003152200059N019200599+02835+01445100825ADDAA101000095GF100005999999999999999999MA1999999097905EQDN01 00000JPWTH 1QNNG11U1 99999K11 1 00058L11 1 01200M11 1 28910N11 1 00000Q11 1 10082S11 1 00083V11 1 00000X11 1 01006
0165999999937271965062400005+34700-077383SAO  +0005NCA  V0202005N005252200059N011200599+02504+01945101904ADDGF100005999999999999999999MA1999999101794EQDN01 00000JPWTH 1QNNG11U1 99999K11 1 00067L11 1 00700M11 1 30060N11 1 00000Q11 1 10190S11 1 00077V11 1 00000X11 1 20010
0047476420999991965062616004+35733+139333SAO  +0142RJTY V0202701N001010048019N0040001N9+01891+01781999999ADDGF108991999999999999999999MW1451MW2511MW3611
012294287599999196512030800N-16920+145770AUST +0007YBCS V0200235N001059999999N999999999+02845+02305999999ADDAY144999GA1035+006605085GA2025+018005095GA3025+999999045GA4075+999999999GF107995034025006605035065MA1999999100895MW1045
0043637890999991965010512004-03333+036617FM-12+137699999V0203601N00571220001CN0700001N9+02781+01281999999ADDAY111999GF105991031021012501001011MW1031
0066722730031241965042415004+31583-110333SAO  +1422FHU  V0209991C000012200019N0800001N9+01891-00331100981ADDGA1001+999999999GF100991999999999999999999MA1999999085741MW1001
0082489300999991965072606004+19883+102133SAO  +0305VLLB V0202701N002110270019N0096001N1+02851+02571100321ADDGA1071+027009059GA2031+003909009GF107991999999999999999999MA1999999096921MW1001
005994999900273196509070500N-34750+146550AUST +0153     V0200235N001059999999N999999999+02005+01105999999ADDAY134999GA1065+024005085GF106995064025024005999999MW1025
0041106100999991965093016004+49950+006567SAO  +0374EDAB V0201401N003110027019N0080001N9+01391+01281999999ADDGF108991999999999999999999MW1451MW2801
0044742060242071965082021004+47150-122483SAO  +0098TCM  V0202001N002110135019N0241401N9+02051+01111101781ADDGF108991999999999999999999MA1999999100581
0081336310999991965050818004+48633+022267FM-12+011899999V0209991C00001220001CN0150001N9+01501+00781101301ADDAA199000091AY101999GF102991021051017501001001KA1999M+01891MD1310011+9999MW1021
0082724285138121965032206004+39817-082933SAO  +0225LCK  V0201401N001512200019N0160001N9-00671-01111102951ADDGA1011+999999999GA2021+999999999GF102991999999999999999999MA1999999100101MW1001
017699999913958196512210900E+30300-097700SAO  +018399999V0202905N002152200059N024000599+00615+00225101765ADDAA101000095GF100005999999999999999999MA1999999099535EQDN01 00000JPWTH 1QNNG11U1 99999K11 1 00036L11 1 01500M11 1 29390N11 1 00000Q11 1 10176S11 1 00043V11 1 00000X11 1 29004
0043486570999991965122815004+03767+103200FM-12+002199999V0209991C000019999999N0080001N9+02281+02281101071ADDAY121999GF107991021051012501041081MW1031
0035702650999991965050911004+64683-147083SAO  +0167PAEI V0209991C000012200019N0241401N9-00281-00551999999ADDGF102991999999999999999999MW1001
0057279570999991965111415004+52650+042717FM-12+013099999V0200201N00411012301CN0100001N9-01001-01281101891ADDAY121999GF107991071051012501001001MD1210041+9999MW1021
0238726815241061965092120003+43050-115867SAO  +0912MUO  V0203305N004652200059N0720005N9+02175+00115999999ADDGD14995+9999993GD20995+9999999GD30995+9999999GD40995+9999999GF108995999999999999999999MW1001EQDN01 00000JPWTH 1QNNE11 1 00599E11 1 00099E11 1 00099E11 1 00099G11U1 99999K11 1 00034L11 1 04500N11 1 00000S11 1 00071V11 1 01099X11 1 33009
0275722165138151965080818003+31583-084117SAO  +0068TRF  V0201905N007252200059N0112005N1+02725+02225101695ADDGD12995+9999999GD22995+9999999GD34995+9999999GD40995+9999999GF108995999999999999999999MA1999999100885MW1001EQDN01 00000JPWTH 1QNNE11 1 00299E11 1 00299E11 1 00699E11 1 00099G11C1 99999K11 1 00072L11 1 00700M11 1 29790N11 1 00000Q11 1 10169S11 1 00081V11 1 01099X11 1 19014
0070167210999991965102906004+37733+027000FM-12+004999999V0209991C00001220001CN0220001N9+01281+01001102301ADDAY101999GF102991011011008001001021KA1999N+01221MD1310031+9999MW1011
0238725540149491965042605003+41117-095900SAO  +0314OFF  V0203305N002150167649N0160005N9+00615+00395999999ADDGD12995+9999999GD24995+9999999GD30995+9999999GD40995+9999999GF108995999999999999999999MW1001EQDN01 00000JPWTH 1QNNE11 1 00299E11 1 00699E11 1 00099E11 1 00099G11 1 00055K11 1 00039L11 1 01000N11 1 00000S11 1 00043V11 1 01099X11 1 33004
0057268980999991965051203004+53333+034233FM-12+016299999V0202301N00211012301CN0040001N9+01001+00891101301ADDAY121999GF107991071051012501001001MD1210081+9999MW1101
0035722175138601965070916004+32633-083600SAO  +0090WRB  V0202201N003110054019N0192001N9+02661+02221999999ADDGF107991999999999999999999MW1001
0057153100999991965010812004+45500+028017FM-12+007299999V0202301N00211220001CN0150001N9-00111-00891101951ADDAY111999GF106991001001999999001011MD1710241+9999MW1021
0035725335999991965010214004+40650-086150SAO  +0250GUS  V0203201N007710021019N0160001N9+00391+00281999999ADDGF108991999999999999999999MW1001
0057601500999991965090700004+33883-005533FM-12+054999999V0209991C00001220001CN0150001N9+02111+01001102021ADDAY101999GF100991001001999999001001MD1110021+9999MW1021
0073170820999991965112112004+40883+035483FM-12+056399999V0201601N00511012001CN0200001N9+01221+00781101561ADDAY121999GA1051+012009059GF106991051051012501071001MD1110011+9999MW1011
0035727937999991965040210004+47917-122283SAO  +0187PAE  V0209991C000010150019N0160001N1+00241-00041999999ADDGF107991999999999999999999MW1001
0232999999433131965030222005+35750+139350SAO  +0139RJTY V02099959000050396249N011200599+00065-00225999999ADDGD12995+9999999GD23995+9999999GD33995+9999999GD40995+9999999GF107995999999999999999999EQDN01 00000JPWTH 1QNNE11 1 00299E11 1 00499E11 1 00499E11 1 00099G11 1 00130K11 1 00028L11 1 00700N11 1 00000S11 1 00033V11 1 00999X11 1 00000
0066717490999991965072515004+48367-089317SAO  +0196CYQT V0202931N005112200019N0240001N1+01911+01241101281ADDGA1041+008109089GF102991999999999999999999MA1999999098921MW1001
0108800990999991965061718004+07067-070717FM-12+012299999V0200501N00511007801CN0250001N9+02781+02391101451ADDAY121999GA1999+006009049GA2081+999999999GF199999051021008001001001MD1710051+9999MW1151EQDQ01+000052SCOTCV
0081483530999991965092600004+17533+101500FM-12+024999999V0200901N001019999999N0005001N9+02281+02221101021ADDAA124005091AY141999GF104991011021008001001061KA1999N+02221MD1999999-0041MW1421
0066741040999991965100902004+52183-122050SAO  +0941CYWL V0209991C000010075019N0240001N1+00741+00351100911ADDGA1061+007509099GF107991999999999999999999MA1999999090041MW1001
0035106100999991965081914004+49950+006567SAO  +0374EDAB V0202201N002612200019N0160001N9+02331+01391999999ADDGF102991999999999999999999MW1001
0056480080999991965010700004+25367+097400FM-12+014799999V0200501N000519999999N0040001N9+01221+01111101551ADDAY101999GF102991011051008001031001KA1999N+01111MW1021
0057150800999991965103012004+47050+021933FM-12+013799999V0203601N00211012301CN0040001N9+01001+00891102121ADDAY161999GF105991051051012501001001MD1810031+9999MW1101
0243999999432631965080213005+33200+126267SAO  +0013RKPM V0201205N002152200059N012800599+02565+02445100715ADDGD12995+9999999GD22995+9999999GD30995+9999999GD40995+9999999GF102995999999999999999999EQDN01 00000JPWTH 1QNNE11 1 00299E11 1 00299E11 1 00099E11 1 00099G11U1 99999K11 1 00076L11 1 00800N11 1 00000Q11 1 10071S11 1 00078V11 1 00399X11 1 12004
0377999999266171965081615005+64500-165433SAO  +0004OME  V0203605N002152200059N056000599+00115-00065101025ADDGA1999+036584034GA2999+999999999GA3999+999999999GA4999+999999999GD12035+9999999GD20005+9999999GD30005+9999999GD40005+9999999GF103025999999999999999999MA1999999100955EQDN01 00000JPWTH 1QNNE11 1 00204E11 1 00000E11 1 00000E11 1 00000G11U1 99999H11 1 23120H11 1 00999H11 1 00999H11 1 00999K11 1 00031L11 1 03500M11 1 29810N11 1 00000Q11 1 10102S11 1 00034V11 1 00403X11 1 36004
0069471030999991965112801004+37967+124667SAO  +0193RKSP V0201801N007710060019N0112001N1+01021+00851101931ADDGF107991999999999999999999MA1999999099621MW1001EQDQ01+999990APOSP 
0057270370999991965051100004+59283+039867FM-12+011899999V0200501N00211220001CN0100001N9+00721+00501100521ADDAY121999GF107991001001999999001071MD1210011+9999MW1021
0275999999265121965121518005+63883-152283SAO  +021499999V0202105N005250061049N006400599-01785-02065100575ADDGD15995+9999999GD20995+9999999GD30995+9999999GD40995+9999999GF108085999999999999999999MA1999999097835MW1715EQDN01 04000JPWTH 1QNNE11 1 00799E11 1 00099E11 1 00099E11 1 00099G11 1 00020K11 1-00005L11 1 00400M11 1 28890N11 1 04000Q11 1 10057S11 1 00000V11 1 01010X11 1 21010
0269727846241601965032000005+46100-118283SAO  +0362ALW  V02099959000052200059N064000599+00835-01565102985ADDGD10995+9999999GD20995+9999999GD30995+9999999GD40995+9999999GF100005999999999999999999MA1999999098485EQDN01 00000JPWTH 1QNNE11 1 00099E11 1 00099E11 1 00099E11 1 00099G11U1 99999K11 1 00004L11 1 04000M11 1 29080N11 1 00000Q11 1 10298S11 1 00047V11 1 00000X11 1 00000
0050716240999991965120705004+43683-079633SAO  +0176CYYZ V0203151N003612200019N0240001N1-00761-01031102211ADDGF100991999999999999999999MA1999999100001MW1001
0073067500999991965122212004+46650+008617FM-12+228499999V0200601N00671220001CN0200001N9-01001-01611999999ADDAY131999GA1021+018009039GF103991021061999999031011MD1810091+9999MW1381
004674780499999196503252300D+32017-081133SAO  +0017SVN  V0201501N002112200019N0128001N9+02131+01631999999ADDAA101000095GF108991999999999999999999MW1001
006172208013880196503292200D+32900-080033SAO  +0014CHS  V0202001N004112200019N0240001N1+02611+01391101691ADDAA101000095GF102991999999999999999999MA1101661101521MW1001
0081170600999991965042118004+40967+028817FM-12+002799999V0202101N00771036001CN0150001N9+01611+00891100171ADDAA199999929AY121999GF106991021051012501031011KA1999M+02001MD1310041+9999MW1021
0377999999116471965040206005+99999+999999SAO  +999999999V0201005N004652200059N016000599+02445+01945101635ADDGA1999+005494084GA2999+999999999GA3999+999999999GA4999+999999999GD12025+9999999GD20005+9999999GD30005+9999999GD40005+9999999GF102025999999999999999999MA1999999101395EQDN01 00000JPWTH 1QNNE11 1 00203E11 1 00000E11 1 00000E11 1 00000G11U1 99999H11 1 11018H11 1 00999H11 1 00999H11 1 00999K11 1 00067L11 1 01000M11 1 29940N11 1 00000Q11 1 10163S11 1 00076V11 1 00303X11 1 10009
0269999999947251965051800005+44933-074850SAO  +0067MSS  V0202905N004150045749N024000599+01174+00895100844ADDGD13995+9999999GD24995+9999999GD30995+9999999GD40995+9999999GF108085999999999999999999MA1999999100074EQDN01 00000JPWTH 1QNNE11 1 00499E11 1 00699E11 1 00099E11 1 00099G11 1 00015K11 1 00048L11 1 01500M11 1 29550N11 1 00000Q11 1 10084S11 1 00053V11 1 01010X11 1 29008
0057401800999991965060300004+32000+034900FM-12+004999999V0209991C00001220001CN0120001N9+01781+01721101161ADDAY101999GF103991031061001501001001MD1710031+9999MW1101
0269999999931151965012101005+32567-117117SAO  +000899999V0202405N001552200059N019200599+01394+01115101204ADDGD12995+9999999GD20995+9999999GD30995+9999999GD40995+9999999GF102025999999999999999999MA1999999101124EQDN01 00000JPWTH 1QNNE11 1 00299E11 1 00099E11 1 00099E11 1 00099G11U1 99999K11 1 00052L11 1 01200M11 1 29860N11 1 00000Q11 1 10120S11 1 00057V11 1 00202X11 1 24003
0035035953999991965121402004+52083+001417SAO  +0030EGVG V0202501N001512200019N0064001N9+00581+00241999999ADDGF102991999999999999999999MW1051
0269999999931141965122122005+33700-117833SAO  +001999999V0201905N004150365849N016000599+01724+01065100864ADDGD12995+9999999GD23995+9999999GD33995+9999999GD40995+9999999GF106065999999999999999999MA1999999100644EQDN01 00000JPWTH 1QNNE11 1 00299E11 1 00499E11 1 00499E11 1 00099G11 1 00120K11 1 00051L11 1 01000M11 1 29720N11 1 00000Q11 1 10086S11 1 00063V11 1 00808X11 1 19008
0232999999231181965090316005+39667-119867SAO  +1532RAA  V0201105N001052200059N024000599+01675+00565999999ADDGD10995+9999999GD20995+9999999GD30995+9999999GD40995+9999999GF100995999999999999999999EQDN01 00000JPWTH 1QNNE11 1 00099E11 1 00099E11 1 00099E11 1 00099G11U1 99999K11 1 00042L11 1 01500N11 1 00000S11 1 00062V11 1 00099X11 1 11002
0035722786231041965052717004+33317-111650SAO  +0422IWA  V0209991C000012200019N0400001N9+02741+00191999999ADDGF100991999999999999999999MW1001
0105104380999991965080412004+51317+009483FM-12+015899999V0202401N00261009901CN0200001N9+02001+01221101751ADDAY161061GA1021+007809059GA2061+009909089GA3061+030009039GF107991061081008001061999MD1210071+9999MW1021
006083981099999196504291600N-31350-054117BRAZ +0180SBBG V02016019002619999999N020000199+01521+01001101951ADDGA1011+060001211GF101991999999999999999999MA1101821099691
0050479350999991965082109004+26300+127767SAO  +0008ROHF V0201701N003612200019N0320001N1+03071+02521100631ADDGF102991999999999999999999MA1999999100541MW1001
