039499999912917196611010600E+29950-094017SAO  +0009BPT  V0201505N001552200059N001300599+01285+01225101205ADDAA101000095GA1999+999999104GA2999+999999999GA3999+999999999GA4999+999999999GD16025+9999999GD20005+9999999GD30005+9999999GD40005+9999999GF102025999999999999999999MA1999999101125MW1445EQDN01 07200JPWTH 1QNNE11 1 00803E11 1 00000E11 1 00000E11 1 00000G11U1 99999H11 1 45999H11 1 00999H11 1 00999H11 1 00999K11 1 00054L11 1 00081M11 1 29860N11 1 07200Q11 1 10120S11 1 00055V11 1 00303X11 1 15003
0050986460999991966081112004+10300+123967SAO  +0009RPMT V0201901N001510150019N0240001N1+02801+02351100871ADDGF108991999999999999999999MA1999999100751MW1001
0081401770999991966011918004+32100+034783FM-12+001199999V0209991C00001220001CN0200001N9+01281+01111101641ADDAA199000091AY111999GF101991011061008001001001KA1999M+01781MD1210041+9999MW1011
0035722696999991966030211004+32850-106100SAO  +1251HMN  V0202401N007710360019N0016001N1+00911-00261999999ADDGF107991999999999999999999MW1071
0068105780999991966121012004+50433+012950FM-12+121399999V0202501N01701000151CN0000001N9-00281-00281999999ADDAA199002091AY171061GF109991091999000251999999MD1610171+9999MW1751
0050471204999991966111800004+37033+126750SAO  +0015RKSN V0200701N003110135019N0128001N1+00411-00041102271ADDGF107991999999999999999999MA1999999102131MW1001
0076267810999991966091203004+54750+032067FM-12+024199999V0202301N00511002401CN0040001N9+00891+00781101511ADDAY161999GF108991999071002501021999MD1710261+9999MW1611EQDQ01+000082SCOTLC
0089162800999991966110309004+40917+012950FM-12+018599999V0201201N01291027001CN0160001N9+01781+01501101361ADDAY121999GA1041+007509089GA2061+027009039GF107991041021008001051001MD1710071+9999MW1021
0067678810999991966092509004+18533+032133FM-12+143399999V0203601N00361220001CN0100001N9+02611+01001999999ADDAY101999GF101991011021017501031001MA1999999086121ME1315439MW1051
0134321210999991966042100004+47983+142200FM-12+001999999V0203201N00871090001CN0200001N9+00221-00221101521ADDAA106004091AA299001091AJ100009199999999AY171999GF107991011061004501001021HL10009IA1189IA2999+00009KA1999N+00001MD1210141+9999MW1021
0165999999938371966020403005+30233-081667SAO  +0009NIP  V0202905N004152200059N011200599+00674-00225102194ADDGF100005999999999999999999MA1999999102104EQDN01 00000JPWTH 1QNNG11U1 99999K11 1 00028L11 1 00700M11 1 30150N11 1 00000Q11 1 10219S11 1 00044V11 1 00000X11 1 29008
0076718160999991966011801004+53317-060433SY-SA+0044YYR  V0200501N011310045019N0240001N9+00241+00021099881ADDGA1061+004509059GA2021+006609059GF108991999999999999999999MA1999999099321
0258999999340621966022305005+48817+007200SAO  +0313LFQP V0202505N004650198149N012800599+00565+00395999999ADDGD12995+9999999GD23995+9999999GD34995+9999999GD40995+9999999GF108995999999999999999999MA1999999096825EQDN01 00000JPWTH 1QNNE11 1 00299E11 1 00499E11 1 00699E11 1 00099G11 1 00065K11 1 00039L11 1 00800M11 1 28590N11 1 00000S11 1 00042V11 1 01099X11 1 25009
0275722925931171966031322003+33017-118583SAO  +0051NUC  V0203005N005250021349N0160005N1+01445+01065101765ADDGD13995+9999999GD20995+9999999GD30995+9999999GD40995+9999999GF107075999999999999999999MA1999999101155MW1001EQDN01 00000JPWTH 1QNNE11 1 00499E11 1 00099E11 1 00099E11 1 00099G11 1 00007K11 1 00051L11 1 01000M11 1 29870N11 1 00000Q11 1 10176S11 1 00058V11 1 00909X11 1 30010
0051749477999991966092912004+33417-115833SAO  +000099999V0201001N004612200019N0560001N1+01071+00801102831ADDGA1011+024009059GF102991999999999999999999MW1001
012291182022521196604240300D+21333-157917SAO  +0003PHNL V0200401N007712200019N0240001N9+02681+01521101541ADDAA101000095GA1011+009009089GA2999+015009999GA3081+220009029GF108991999999999999999999MA1999999101491EQDQ01    003SCCGA2
0050702031266201966031606004+64200-162050SAO  +0005MOS  V0201001N002612200019N0240001N1-03481+99999102811ADDGF102991999999999999999999MA1999999102781MW1001
0275747020231101966112307003+36333-119950SAO  +0073NLC  V0203105N002652200059N0240005N1+00395+00285101865ADDGD12995+9999999GD20995+9999999GD30995+9999999GD40995+9999999GF104035999999999999999999MA1999999100985MW1001EQDN01 00000JPWTH 1QNNE11 1 00299E11 1 00099E11 1 00099E11 1 00099G11U1 99999K11 1 00037L11 1 01500M11 1 29820N11 1 00000Q11 1 10186S11 1 00039V11 1 00504X11 1 31005
0035724550139471966042814004+39050-096767SAO  +0324FRI  V0200301N002612200019N0200001N9+00781-00111999999ADDGF102991999999999999999999MW1001
0035702220999991966022702004+64733-156933SAO  +0046PAGA V0209991C000012200019N0240001N9-01371-01981999999ADDGF107991999999999999999999MW1001
0050082270999991966100900004+40483-003450SAO  +0610LETO V0200601N006210240019N0144001N9+01221+00671100831ADDGF108991999999999999999999MA1999999093871MW1801
0057277580999991966081021004+54083+043250FM-12+019899999V0200701N00101220001CN0090001N9+01781+01611101641ADDAY191999GF102991011091012501041001MD1810051+9999MW1131
0050722730031241966103010004+31583-110333SAO  +1422FHU  V0209991C000012200019N0240001N9+01391-00281101981ADDGF108991999999999999999999MA1999999086561MW1001
0057624050999991966120409004+25667+032700FM-12+008899999V0200501N00261220001CN0100001N9+02501+01221101451ADDAY101999GF103991001001999999001011MD1010011+9999MW1021
0212724296138411966020422003+39433-083800SAO  +0325ILN  V0202905N005252200059N0048005N1-00785-00945999999ADDGD13995+9999993GD20995+9999999GD30995+9999999GF106995999999999999999999MW1385EQDN01 08400JPWTH 1QNNE11 1 00399E11 1 00099E11 1 00099G11U1 99999K11 1 00015L11 1 00300N11 1 08400S11 1 00018V11 1 00799X11 1 29010
0057295740999991966033021004+56000+092883FM-12+019499999V0202701N00511220001CN0100001N9+00111-00611101481ADDAY111999GF106991021001999999031011MD1310021+9999MW1031
0133229120999991966101306004+60983+032950FM-12+001199999V0200201N00101004201CN0350001N9+00001+00001101481ADDAA106004091AA299001091AY171999GA1081+004209059GF108991081051004501999999HL10009IA1209IA2999-00119KA1999N+00001MD1210121+9999MW1681
0238722655230051966031517003+32233-101500SAO  +0784BGS  V0202605N003652200059N0400005N1+02065+00065999999ADDGD10995+9999999GD20995+9999999GD30995+9999999GD40995+9999999GF100995999999999999999999MW1001EQDN01 00000JPWTH 1QNNE11 1 00099E11 1 00099E11 1 00099E11 1 00099G11U1 99999K11 1 00033L11 1 02500N11 1 00000S11 1 00069V11 1 00099X11 1 26007
0275690190139101966021406003+32433-099850SAO  +0545DYS  V0203405N003652200059N0240005N9-00175-00565101755ADDGD11995+9999993GD20995+9999999GD30995+9999999GD40995+9999999GF101995999999999999999999MA1999999095335MW1001EQDN01 00000JPWTH 1QNNE11 1 00199E11 1 00099E11 1 00099E11 1 00099G11U1 99999K11 1 00022L11 1 01500M11 1 28150N11 1 00000Q11 1 10175S11 1 00029V11 1 00199X11 1 34007
0099612720999991966062606004+13400-006150FM-12+028999999V0209991C00001105001CN0250001N9+02781+02111101021ADDAA124000091AY121999GA1021+045009039GA2061+075009009GF107991021001999999041021KA1999N+02781MW1021
0042749000999991966080518004+35367-086050SAO  +0331TUH  V0202701N001519999999N0000001N1+02741+01851999999ADDMD1111982+9999MW1001EQDQ01+001982APC3  
007683378099999196605131300N-15867-047933BRAZ +1061SBBR V02005019003119999999N020000199+02281+01801101281ADDGA1011+003001061GA2041+040001031GF104991999999999999999999MA1101821089781
011283840099999196606292100N-25517-049167BRAZ +0908SBCT V02020019999999999999N010000199+01231+01101101761ADDGA1031+000901221GA2051+001801061GA3081+022001041GF108991999999999999999999MA1101911091421MD1310111+9999MW1531
0043610240999991966031509004+16983+007983FM-12+050099999V0201201N00821220001CN0250001N9+02781-00611101251ADDAY121999GF106991001001999999001061MW1021
007494510099999196606160200N-26420+146270AUST +0304YBCV V0203155N001059999999N999999999+01835+00105999999ADDAY124999GA1005+999999999GF100995004999999999999999MA1999999098805MW1025
0035747880128101966072220004+27850-082500SAO  +0004KMCF V0201501N001010270019N0160001N9+02721+02331999999ADDGF108991999999999999999999MW1001
0075486650999991966070300004+02267+102250FM-12+001099999V0209991C00001036001CN0180001N9+02391+02281100961ADDAY121999GA1011+002109079GA2051+036009039GF107991031061002501041011MW1021
0070167050999991966060406004+37783+020883FM-12+000899999V0203601N00931220001CN0200001N9+02001+01391101051ADDAY101999GF101991011021012501001031KA1999N+01781MD1410001+9999MW1021
009094999900073196601122030N-16270+133380AUST +0214     V0209999C000059999999N999999999+02675+02305999999ADDAY124999GA1005+999999999GA2035+999999035GF103995004999999999075999MA1999999098435MW1025
0050107520999991966071012004+49467+010383SAO  +0325EDIK V0203301N003110210019N0176001N9+02131+01351999999ADDGF107991999999999999999999MA1999999097831MW1001
0035106070999991966090602004+49967+006700SAO  +0365EDAD V0202401N002610240019N0176001N9+01171+00941999999ADDGF107991999999999999999999MW1801
039499999913866196604060000E+38367-081600SAO  +0286CRW  V0202605N003650061049N011200599+00395+00225100875ADDAA101000395GA1999+999999064GA2999+003054064GA3999+006104064GA4999+012194064GD12005+9999999GD23035+9999999GD34035+9999999GD40025+9999999GF108085999999999999999999MA1999999097395MW1805EQDN01 02300JPWTH 1QNNE11 1 00200E11 1 00404E11 1 00604E11 1 00002G11 1 00020H11 1 15999H11 1 15010H11 1 15020H11 1 15040K11 1 00036L11 1 00700M11 1 28760N11 1 02300Q11 1 10087S11 1 00039V11 1 01010X11 1 26007
0057166410999991966011509004+39617+019917FM-12+000299999V0201201N00261015001CN0180001N9+01001+00281101741ADDAY121999GF108991071081017501021999MD1210041+9999MW1021
0057314440999991966070915004+51567+126717FM-12+017999999V0201801N00621007801CN0500001N9+01891+01001100811ADDAY191999GF107991071051008001001001MD1210101+9999MW1951
0043401000999991966052900004+33817+035483FM-12+0024OLBA V0201001N00211220001CN0300001N9+01721+01001101521ADDGF100991001001999999001001MD1810091+9999
0056488640999991966120108004+15417+108700SAO  +0011VVCI V0200501N004110024019N0016001N1+02131+02131101791ADDGF108991999999999999999999MA1999999101661MW1451MW2801
0073268820999991966112421004+53967+032850FM-12+021799999V0201401N00621003001CN0100001N9+00281+00221102841ADDAY121999GA1081+003009079GF108991081061004501999999MD1710161+9999MW1021
0181999999252371966050518005+50650-128000SAO  +0569CYHJ V02015859004652200059N024000599+01335+00225999999ADDGA1999+999999999GD19005+9999999GF100005999999999999999999EQDN01 00000JPWTH 1QNNE11 1 09900G11U1 99999H11 1 99999K11 1 00036L11 1 01500N11 1 00000S11 1 00056V11 1 00000W11 1 54009
0057066700999991966090621004+47483+008533FM-12+043199999V0201401N00101220001CN0250001N9+01501+01111102401ADDAY101999GF100991001001999999001001MD1110111+9999MW1021
0323999999931141966050921005+33700-117833SAO  +001999999V0201905N002150061049N019200599+01614+01225101354ADDGA1999+006104064GA2999+012194064GD13065+9999999GD24025+9999999GD30995+9999999GD40995+9999999GF108085999999999999999999MA1999999101154EQDN01 00000JPWTH 1QNNE11 1 00407E11 1 00603E11 1 00099E11 1 00099G11 1 00020H11 1 15020H11 1 15040K11 1 00054L11 1 01200M11 1 29870N11 1 00000Q11 1 10135S11 1 00061V11 1 01010X11 1 19004
039499999914923196608301500E+41450-090500SAO  +0177MLI  V02099959000052200059N008000599+02565+01895101925ADDAA101000095GA1999+021344184GA2999+999999999GA3999+999999999GA4999+999999999GD12035+9999999GD20005+9999999GD30005+9999999GD40005+9999999GF103025999999999999999999MA1999999099805MW1055EQDN01 08100JPWTH 1QNNE11 1 00204E11 1 00000E11 1 00000E11 1 00000G11U1 99999H11 1 28070H11 1 00999H11 1 00999H11 1 00999K11 1 00066L11 1 00500M11 1 29470N11 1 08100Q11 1 10192S11 1 00078V11 1 00403X11 1 00000
0035724457039381966061219004+37733-092150SAO  +0353TBN  V0201801N004110042019N0112001N9+03051+02051999999ADDGF107991999999999999999999MW1001
0073165390999991966022415004+39750+008467FM-12+009299999V0203201N00771220001CN0120001N9+01391+01221102211ADDAY101999GA1021+006009089GF102991021011008001001001MD1610011+9999MW1101
0244725540149491966030420003+41117-095900SAO  +0314OFF  V0202905N011350021349N0008005N9-00835-01175999999ADDGD15995+9999999GD20995+9999999GD30995+9999999GD40995+9999999GF108995999999999999999999MW1385MW2855EQDN01 05084JPWTH 1QNNE11 1 00799E11 1 00099E11 1 00099E11 1 00099G11 1 00007K11 1 00011L11 1 00050N11 1 05084S11 1 00017V11 1 01099X11 1 29022
0084220370999991966031921004+69067+036383FM-12+999999999V0202001N01181015001CN0110001N9-01001-01281101061ADDAA106000091AY131999GA1081+015009059GF108991081051012501999999MD1710391+9999MW1381
0275690070932171966021918003+36683-121767SAO  +0044OAR  V0201305N006250106749N0112005N9+01005+00725102035ADDGD12995+9999999GD23995+9999999GD30995+9999999GD40995+9999999GF106995999999999999999999MA1999999101495MW1805EQDN01 02300JPWTH 1QNNE11 1 00299E11 1 00499E11 1 00099E11 1 00099G11 1 00035K11 1 00045L11 1 00700M11 1 29970N11 1 02300Q11 1 10203S11 1 00050V11 1 00899X11 1 13012
0066718660999991966010623004+52167-106683SAO  +0501CYXE V0200681N003112200019N0240001N1-03141-03371103381ADDGA1051+027009039GF107991999999999999999999MA1999999096681MW1001
0269999999242841966050115005+43417-124250SAO  +0005OTH  V0201305N002652200059N011200599+00725+00505102035ADDGD12995+9999999GD22995+9999999GD30995+9999999GD40995+9999999GF102025999999999999999999MA1999999101965EQDN01 00000JPWTH 1QNNE11 1 00299E11 1 00299E11 1 00099E11 1 00099G11U1 99999K11 1 00041L11 1 00700M11 1 30110N11 1 00000Q11 1 10203S11 1 00045V11 1 00302X11 1 13005
028099999914771196610062300E+43117-076117SAO  +0125SYR  V0202905N004652200059N024000599+00945+00175101725ADDAA101000095GD10995+9999999GD20995+9999999GD30995+9999999GD40995+9999999GF100005999999999999999999MA1999999100205EQDN01 00000JPWTH 1QNNE11 1 00099E11 1 00099E11 1 00099E11 1 00099G11U1 99999K11 1 00035L11 1 01500M11 1 29590N11 1 00000Q11 1 10172S11 1 00049V11 1 00000X11 1 29009
0238724837932161966111004003+39117-121433SAO  +0038BAB  V02099959000052200059N0112005N9+01115+00675999999ADDGD11995+9999993GD20995+9999999GD30995+9999999GD40995+9999999GF103995999999999999999999MW1001EQDN01 00000JPWTH 1QNNE11 1 00199E11 1 00099E11 1 00099E11 1 00099G11U1 99999K11 1 00044L11 1 00700N11 1 00000S11 1 00052V11 1 00499X11 1 00000
0035722586999991966101007004+33717-096667SAO  +0233PNX  V0200301N008212200019N0240001N1+02181+00911999999ADDGF100991999999999999999999MW1001
0043409480999991966120903004+34550+069217FM-12+1791OAKB V0202101N00101220001CN0200001N9-00501-01501999999ADDGF101991011001999999041001MD1110021+9999
006174754013934196606110600D+31317-092550SAO  +0027KAEX V0200801N001512200019N0240001N9+02571+02131101381ADDAA101000095GF100991999999999999999999MA1999999101051MW1001
0269999999128541966061610005+99999+999999SAO  +999999999V0201605N001052200059N016000599+02395+02115101705ADDGD13995+9999999GD20995+9999999GD30995+9999999GD40995+9999999GF106065999999999999999999MA1999999101525EQDN01 00000JPWTH 1QNNE11 1 00499E11 1 00099E11 1 00099E11 1 00099G11C1 99999K11 1 00070L11 1 01000M11 1 29980N11 1 00000Q11 1 10170S11 1 00075V11 1 00707X11 1 16002
0275722250138291966081218003+32350-085000SAO  +0073LSF  V0201605N003152200059N0160005N9+03115+02175101745ADDGD12995+9999999GD23995+9999993GD30995+9999999GD40995+9999999GF106995999999999999999999MA1999999100885MW1001EQDN01 00000JPWTH 1QNNE11 1 00299E11 1 00399E11 1 00099E11 1 00099G11U1 99999K11 1 00071L11 1 01000M11 1 29790N11 1 00000Q11 1 10174S11 1 00088V11 1 00799X11 1 16006
0041035953999991966022510004+52083+001417SAO  +0030EGVG V0201801N007710015019N0048001N9+00801+00691999999ADDGF108991999999999999999999MW1451MW2611
0057275020999991966121721004+56033+035967FM-12+018999999V0201401N00621030001CN0049001N9-01001-01281102741ADDAY171999GF108991041071004501011999MD1210171+9999MW1711
0243999999432401966112104005+35083+128067SAO  +0008RKPS V0203605N005252200059N016000599+00285-01115102515ADDGD12995+9999999GD20995+9999999GD30995+9999999GD40995+9999999GF101995999999999999999999EQDN01 00000JPWTH 1QNNE11 1 00299E11 1 00099E11 1 00099E11 1 00099G11U1 99999K11 1 00012L11 1 01000N11 1 00000Q11 1 10251S11 1 00037V11 1 00199X11 1 36010
0232999999176051966100823005+76517-068833SAO  +0077BGTL V0201005N004152200059N032000599-00895-01505999999ADDGD14995+9999993GD20995+9999999GD30995+9999999GD40995+9999999GF108995999999999999999999EQDN01 00000JPWTH 1QNNE11 1 00599E11 1 00099E11 1 00099E11 1 00099G11U1 99999K11 1 00005L11 1 02000N11 1 00000S11 1 00016V11 1 01099X11 1 10008
0377999999128541966020100005+99999+999999SAO  +999999999V0200205N001552200059N016000599+00675-00175102485ADDGA1999+999999004GA2999+999999999GA3999+999999999GA4999+999999999GD12015+9999999GD20005+9999999GD30005+9999999GD40005+9999999GF101015999999999999999999MA1999999102305EQDN01 00000JPWTH 1QNNE11 1 00201E11 1 00000E11 1 00000E11 1 00000G11U1 99999H11C1 32999H11 1 00999H11 1 00999H11 1 00999K11 1 00029L11 1 01000M11 1 30210N11 1 00000Q11 1 10248S11 1 00044V11 1 00101X11 1 02003
0238690070932171966032007003+36683-121767SAO  +0044OAR  V0202305N001552200059N0320005N9+00675+00395999999ADDGD10995+9999999GD20995+9999999GD30995+9999999GD40995+9999999GF100995999999999999999999MW1001EQDN01 00000JPWTH 1QNNE11 1 00099E11 1 00099E11 1 00099E11 1 00099G11U1 99999K11 1 00039L11 1 02000N11 1 00000S11 1 00044V11 1 00099X11 1 23003
0269999999139731966022803005+30500-099767SAO  +052199999V0202705N007252200059N019200599+01335+00115101065ADDGD10995+9999999GD20995+9999999GD30995+9999999GD40995+9999999GF100005999999999999999999MA1999999095065EQDN01 00000JPWTH 1QNNE11 1 00099E11 1 00099E11 1 00099E11 1 00099G11U1 99999K11 1 00034L11 1 01200M11 1 28070N11 1 00000Q11 1 10106S11 1 00056V11 1 00000X11 1 27014
0081261150999991966012118004+58917+022067FM-12+000999999V0201101N00821220001CN0100001N9-01001-02111102331ADDAA199000091AY131999GF102991001001999999001021KA1999M-01001MD1710131+9999MW1361
0057162000999991966012221004+42583+010100FM-12+002799999V0201901N02311220001CN0200001N9+01391+01221099571ADDAY111999GF103991031051008001001001MD1710361+9999MW1011
0050035623999991966020518004+52367-000250SAO  +0049EGWZ V0202201N008710048019N0160001N9+01301+01071100561ADDGF108991999999999999999999MA1999999099931MW1611
0035723865231121966021405004+36250-115033SAO  +0570LSV  V0209991C000012200019N0240001N9+00241-01031999999ADDGF100991999999999999999999MW1001
038899999903820196609192100E+33367-081967SAO  +0045AGS  V0202305N005250091449N032000599+02725+02115100865ADDAA101000095GA1999+009144084GA2999+030484034GA3999+999999024GA4999+999999999GD13055+9999999GD23025+9999999GD33025+9999999GD40005+9999999GF106065999999999999999999MA1999999100345EQDN01 00000JPWTH 1QNNE11 1 00406E11 1 00402E11 1 00402E11 1 00000G11 1 00030H11 1 11030H11 1 23100H11C1 37999H11 1 00999K11 1 00070L11 1 02000M11 1 29630N11 1 00000Q11 1 10086S11 1 00081V11 1 00808X11 1 23010
0035691464999991966110517004+37000+035433SAO  +0073KQDG V0200501N002112200019N0240001N9+01961+00631999999ADDGF100991999999999999999999MW1001
0057270660999991966012909004+59533+045450FM-12+013699999V0209991C00001220001CN0100001N9-01721-02001102311ADDAY111999GF100991001001999999001001MD1310031+9999MW1021
038899999914735196612201500E+42750-073800SAO  +0084ALB  V0200905N002152200059N032000599-00835-01225101515ADDAA101000095GA1999+030484034GA2999+999999004GA3999+999999999GA4999+999999999GD12025+9999999GD23055+9999999GD30005+9999999GD40005+9999999GF107055999999999999999999MA1999999100415EQDN01 00000JPWTH 1QNNE11 1 00203E11 1 00406E11 1 00000E11 1 00000G11C1 99999H11 1 23100H11C1 32999H11 1 00999H11 1 00999K11 1 00010L11 1 02000M11 1 29650N11 1 00000Q11 1 10151S11 1 00017V11 1 00906X11 1 09004
0057226570999991966111309004+63067+040350FM-12+010899999V0202301N00411220001CN0240001N9-00391-00721102871ADDAY101999GF101991011001017501041001MD1210081+9999MW1021
0100232190999991966122318004+67083+059383FM-12+008199999V0201301N00211024001CN0020001N9-01721-01891102891ADDAA199999999AY171999GF108991081001999999021999KA1999M-01721MD1710381+9999MW1731EQDQ01  00002PRCP99
0092360030999991966081518004+52283+076950FM-12+014699999V0203201N00311075001CN0500001N9+02001+01611100941ADDAA106020091AA299005091AY191999GF107991021091017501001021KA1999M+03391MD1210171+9999MW1011
0035723408138141966031617004+35967-089950SAO  +0077BYH  V0209991C000012200019N0096001N9+01941+01111999999ADDGF100991999999999999999999MW1051
0102161580999991966091406004+43667+010383FM-12+000199999V0209991C00001220001CN0020001N9+01781+01781101471ADDAY141999GA1011+012009059GA2041+024009039GF105991011051012501031001KA1999N+01721MD1310041+9999MW1281
0057260940999991966110903004+59650+033500FM-12+004599999V0209991C00001000151CN0003001N9+00001+00001102681ADDAY141999GF109991091999000251999999MD1410001+9999MW1451
0269999999340611966013120005+49017+001233SAO  +0141LFOE V0202405N002650167649N012800599+01005+00675101635ADDGD14995+9999999GD20995+9999999GD30995+9999999GD40995+9999999GF108995999999999999999999MA1999999099905EQDN01 00000JPWTH 1QNNE11 1 00699E11 1 00099E11 1 00099E11 1 00099G11 1 00055K11 1 00044L11 1 00800M11 1 29500N11 1 00000Q11 1 10163S11 1 00050V11 1 01099X11 1 24005
0057267040999991966102015004+54483+020000FM-12+999999999V0201401N00411030001CN0080001N9+01721+01281100641ADDAY121999GF107991011011008001031021MD1710091+9999MW1101
0050703050999991966121309004+58650-162067SAO  +0168PAEH V0203601N001010012019N0064001N9-01641-01811099451ADDGF108991999999999999999999MA1999999097321MW1711
0068206790999991966081318004+73033+088167FM-12+999999999V0200901N00511220001CN0200001N9+00891+00721100211ADDAA106000091AY101999GF102991021041012501001001MD1510081+9999MW1021
0269999999938391966113010005+99999+999999SAO  +999999999V02099959000050304849N016000599+00564-00675101964ADDGD13995+9999999GD20995+9999999GD30995+9999999GD40995+9999999GF106055999999999999999999MA1999999100884EQDN01 00000JPWTH 1QNNE11 1 00499E11 1 00099E11 1 00099E11 1 00099G11 1 00100K11 1 00020L11 1 01000M11 1 29790N11 1 00000Q11 1 10196S11 1 00042V11 1 00806X11 1 00000
0066716000999991966011723004+43933-060017SAO  +0004CYSA V0202931N013412200019N0080001N1-00201-00481098681ADDGA1051+007509059GF107991999999999999999999MA1999999098681MW1381
0082741080999991966020502004+49017-122367SAO  +0060CYXX V0200231N003610120019N0480001N1+00691+00581100951ADDGA1061+012009059GA2021+024009039GF107991999999999999999999MA1999999100201MW1001
0275723825231311966030721003+34583-117383SAO  +0869VCV  V0202205N003152200059N0480005N9+02005-00115101445ADDGD12995+9999999GD21995+9999993GD30995+9999999GD40995+9999999GF103995999999999999999999MA1999999091535MW1001EQDN01 00000JPWTH 1QNNE11 1 00299E11 1 00199E11 1 00099E11 1 00099G11U1 99999K11 1 00030L11 1 03000M11 1 27030N11 1 00000Q11 1 10144S11 1 00068V11 1 00499X11 1 22006
0081368700999991966102806004+43233+076933FM-12+084799999V0200201N00101220001CN0090001N9+01111-00111102031ADDAA199000091AY101999GF100991001001999999001001KA1999N+00001MD1210011+9999MW1051
0070855430999991966112212004-32767-071517FM-12+000799999V0209991C00001220001CN0100001N9+01001+00891101401ADDAY101999GF102991001001999999001021KA1999N+00781MD1210111+9999MW1051
0050035773999991966111503004+52367+000483SAO  +0012EGUN V0202201N005112200019N0128001N9+00611+00331102001ADDGF108991999999999999999999MA1999999101861MW1001
000094999900324196612281700N-38030+144470AUST +0011     V0202485N005159999999N999999999+99999+99999999999
0377999999275121966051500005+70917-153250SAO  +0009LNI  V0203305N004650106749N024000599-01225-01505101055ADDGA1999+010674084GA2999+999999999GA3999+999999999GA4999+999999999GD13065+9999999GD20005+9999999GD30005+9999999GD40005+9999999GF106065999999999999999999MA1999999100955EQDN01 00000JPWTH 1QNNE11 1 00407E11 1 00000E11 1 00000E11 1 00000G11 1 00035H11 1 11035H11 1 00999H11 1 00999H11 1 00999K11 1 00005L11 1 01500M11 1 29810N11 1 00000Q11 1 10105S11 1 00010V11 1 00707X11 1 33009
0050488896999991966111612004+11633+108950SAO  +0034VVPA V0200201N007210240019N0160001N1+02571+02351101031ADDGF108991999999999999999999MA1999999100641MW1001
0050082270999991966100215004+40483-003450SAO  +0610LETO V0202301N007210114019N0240001N9+01891+01001100681ADDGF108991999999999999999999MA1999999093771MW1001
0056726625240061966081918004+44150-103100SAO  +0999RCA  V0201101N003110009019N0028001N9+01551+01281101731ADDGF108991999999999999999999MA1999999090351MW1451MW2511
0050726225047421966042109004+44650-073450SAO  +0075PBG  V0201701N006210135019N0160001N9+00561+00221102461ADDGF107991999999999999999999MA1999999101561MW1001
0073171840999991966060421004+38917+027850FM-12+010199999V0203201N00051007501CN0200001N9+01611+01501101311ADDAY161999GA1051+009009059GF107991051051008001071001MD1110101+9999MW1211
0269999999232441966022801005+37417-122050SAO  +0012NUQ  V0203405N005252200059N024000599+01395+00835102285ADDGD11995+9999993GD20995+9999999GD30995+9999999GD40995+9999999GF102015999999999999999999MA1999999102175EQDN01 00000JPWTH 1QNNE11 1 00199E11 1 00099E11 1 00099E11 1 00099G11U1 99999K11 1 00047L11 1 01500M11 1 30170N11 1 00000Q11 1 10228S11 1 00057V11 1 00301X11 1 34010
0050744910147031966091009004+42200-072533SAO  +0075CEF  V0209991C000012200019N0080001N9+00851+00741101541ADDGF102991999999999999999999MA1999999100611MW1111
0057275530999991966110200004+56217+043817FM-12+008299999V0201801N00211030001CN0100001N9-00891-01281104061ADDAY121999GF108991081001999999021999MD1710071+9999MW1021
0050483570999991966090106004+17367+104650SAO  +0176VTUP V0203401N002110060019N0112001N1+03071+02571100781ADDGF108991999999999999999999MA1999999098811MW1001
0356999999039271966091003005+32833-097050SAO  +017599999V0200605N003150045749N011200599+02175+01895101825ADDGA1999+001834074GA2999+004574064GA3999+007324064GD12025+9999999GD23035+9999999GD34035+9999999GD40995+9999999GF108085999999999999999999MA1999999099805MW1615EQDN01 02000JPWTH 1QNNE11 1 00202E11 1 00404E11 1 00604E11 1 00099G11 1 00015H11 1 16006H11 1 15015H11 1 15024K11 1 00066L11 1 00700M11 1 29470N11 1 02000Q11 1 10182S11 1 00071V11 1 01010X11 1 06006
0377999999116411966120915005+18433-066000SAO  +002299999V0200705N007752200059N024000599+02565+01945101635ADDGA1999+006104084GA2999+999999004GA3999+999999999GA4999+999999999GD12035+9999999GD24055+9999999GD30005+9999999GD40005+9999999GF108075999999999999999999MA1999999101395EQDN01 00000JPWTH 1QNNE11 1 00204E11 1 00606E11 1 00000E11 1 00000G11C1 99999H11 1 11020H11C1 32999H11 1 00999H11 1 00999K11 1 00067L11 1 01500M11 1 29940N11 1 00000Q11 1 10163S11 1 00078V11 1 01009X11 1 07015
0051107380999991966051621004+48683+009217SAO  +0398EDDS V0203001N001012200019N0192001N9+02131+01021101891ADDGA1011+090009009GF102991999999999999999999MW1001
0377999999241931966071800005+40717-114033SAO  +1293ENV  V0201105N003652200059N096000599+03615+00285100855ADDGA1999+036584094GA2999+999999004GA3999+999999999GA4999+999999999GD12045+9999999GD22005+9999999GD30005+9999999GD40005+9999999GF104045999999999999999999MA1999999086935EQDN01 00000JPWTH 1QNNE11 1 00205E11 1 00200E11 1 00000E11 1 00000G11U1 99999H11 1 18120H11 1 32999H11 1 00999H11 1 00999K11 1 00037L11 1 06000M11 1 25670N11 1 00000Q11 1 10085S11 1 00097V11 1 00505X11 1 11007
0057164290999991966041900004+37917+012500FM-12+001499999V0201001N00511220001CN0160001N9+01111+00781101881ADDAY111999GF100991001001999999001001MD1810081+9999MW1021
0105103840999991966110509004+52467+013400FM-12+005099999V0202001N00261003601CN0050001N9+00391+00221099611ADDAY151999GA1031+002409079GA2061+003609079GA3081+006009059GF108991081061002501999999MD1010111+9999MW1601
0057268940999991966091100004+53533+033717FM-12+017499999V0209991C00001220001CN0500001N9+00111+00111102051ADDAY111999GF100991001001999999001001MD1210071+9999MW1021
0187747020231101966051409003+36333-119950SAO  +0073NLC  V0203605N003652200059N0240005N1+01395+00285100945ADDGA1001+999999999GF100005999999999999999999MA1999999100105MW1001EQDN01 00000JPWTH 1QNNG11U1 99999K11 1 00037L11 1 01500M11 1 29560N11 1 00000Q11 1 10094S11 1 00057V11 1 00000X11 1 36007
0057279280999991966022312004+52633+038517FM-12+013099999V0201801N00511000151CN0005001N9+00221+00111100211ADDAY161999GF109991091999000251999999MD1710141+9999MW1451
0043237340999991966040121004+62450+066050FM-12+003899999V0201601N00211024001CN0500001N9-00281-00721104201ADDAY121999GF107991071001999999031001MW1021
0035489130999991966012001004+09600+105967SAO  +0005VVBX V0200401N002610135019N0112001N1+02521+02181101281ADDGF108991999999999999999999MW1001
0108844550999991966032115004-06433-076367FM-12+031399999V0209991C00001042001CN0200001N9+02721+02281101651ADDAY121999GA1999+008109029GA2081+042009049GF199999021011008001031001MD1210131+9999MW1021EQDQ01+000062SCOTCV
0232999999341961966090216005+48450+010867SAO  +0466EDOX V0202105N001550213449N012800599+02005+01395999999ADDGD12995+9999999GD23995+9999999GD30995+9999999GD40995+9999999GF107995999999999999999999EQDN01 00000JPWTH 1QNNE11 1 00299E11 1 00499E11 1 00099E11 1 00099G11 1 00070K11 1 00057L11 1 00800N11 1 00000S11 1 00068V11 1 00999X11 1 21003
0035035833999991966081817004+52417+000550SAO  +0013EGUL V0200301N002612200019N0240001N9+02521+00801999999ADDGF100991999999999999999999MW1001
006172208013880196606271900D+32900-080033SAO  +0014CHS  V0200201N003112200019N0048001N1+03111+01891101901ADDAA101000095GF102991999999999999999999MA1101831101691MW1051
0050483540999991966040612004+17367+102800SAO  +0181VTUD V0201101N001512200019N0112001N1+03131+02411100681ADDGF107991999999999999999999MA1999999098541MW1001
0073333930999991966032912004+49817+023950FM-12+032599999V0202701N00621004801CN0100001N9+00611+00221100721ADDAY121999GA1081+004809099GF108991081031004501999999MD1210061+9999MW1801
0323999999232451966031006005+99999+999999SAO  +999999999V02099959000050152449N016000599+01175+01065102255ADDGA1999+015244064GA2999+030484034GD13065+9999999GD24025+9999999GD30995+9999999GD40995+9999999GF108085999999999999999999MA1999999101665EQDN01 00000JPWTH 1QNNE11 1 00408E11 1 00602E11 1 00099E11 1 00099G11 1 00050H11 1 15050H11 1 23100K11 1 00051L11 1 01000M11 1 30020N11 1 00000Q11 1 10225S11 1 00053V11 1 01010X11 1 00000
0116604900999991966010306004+35617-000600FM-12+009099999V0202001N00101220001CN0150001N9+00611+00611102751ADDAA199000091AY111999GA1031+004809059GF103991031051004501001001KA1999N+99999MD1410001+9999MW1011EQDQ01 +00722ATMN  
0269999999939011966052601005+32733-096967SAO  +0150NBE  V0200505N002152200059N024000599+02564+01565101434ADDGD10995+9999999GD20995+9999999GD30995+9999999GD40995+9999999GF100005999999999999999999MA1999999099764EQDN01 00000JPWTH 1QNNE11 1 00099E11 1 00099E11 1 00099E11 1 00099G11U1 99999K11 1 00060L11 1 01500M11 1 29460N11 1 00000Q11 1 10143S11 1 00078V11 1 00000X11 1 05004
038899999914898196604030300E+44483-088133SAO  +0208GRB  V0200205N002152200059N024000599+00115-00395100705ADDAA101000095GA1999+018294064GA2999+999999999GA3999+999999999GA4999+999999999GD12025+9999999GD20005+9999999GD30005+9999999GD40005+9999999GF102025999999999999999999MA1999999098105EQDN01 00000JPWTH 1QNNE11 1 00202E11 1 00000E11 1 00000E11 1 00000G11U1 99999H11 1 15060H11 1 00999H11 1 00999H11 1 00999K11 1 00025L11 1 01500M11 1 28970N11 1 00000Q11 1 10070S11 1 00034V11 1 00202X11 1 02004
0009702190266151966070511004+60783-161800SAO  +0046BET  V02099999999999999999N0000001N1+99999+99999999999ADDMW1001
0035106420999991966091516004+50167+008950SAO  +0115EDID V0202201N004110084019N0176001N9+01571+01351999999ADDGF108991999999999999999999MW1001
0056106320999991966082209004+49967+008150SAO  +0230EDOT V0202301N002610060019N0048001N9+01631+01521100911ADDGF108991999999999999999999MA1999999098211MW1111MW2611
0035742070242011966011820004+47083-122583SAO  +0095GRF  V0209991C000010030019N0080001N9+00301-00091999999ADDGF107991999999999999999999MW1041
0072684420999991966040618004+29100+026300FM-12+140099999V0209991C00001220001CN0300001N9+01831+00561999999ADDAY141999GF100991001001999999001001MA1999999086541MD1310051+9999MW1051
0238724296138411966081604003+39433-083800SAO  +0325ILN  V0202005N003652200059N0080005N1+02335+02175999999ADDGD12995+9999999GD20995+9999999GD30995+9999999GD40995+9999999GF104995999999999999999999MW1055EQDN01 08100JPWTH 1QNNE11 1 00299E11 1 00099E11 1 00099E11 1 00099G11U1 99999K11 1 00071L11 1 00500N11 1 08100S11 1 00074V11 1 00599X11 1 20007
0050749388999991966010912004+36083+129567SAO  +002199999V0209991C000012200019N0112001N1-00041-00811102401ADDGF100991999999999999999999MA1999999102101MW1001
0243999999432141966121822005+36450+127433SAO  +0040RKTD V02099959000052200059N011200599+00115-00175101865ADDGD12995+9999999GD24995+9999999GD30995+9999999GD40995+9999999GF108995999999999999999999EQDN01 00000JPWTH 1QNNE11 1 00299E11 1 00699E11 1 00099E11 1 00099G11C1 99999K11 1 00029L11 1 00700N11 1 00000Q11 1 10186S11 1 00034V11 1 01099X11 1 00000
028099999914942196606171000E+41300-095900SAO  +0304OMA  V02099959000052200059N016000599+01175+00945101795ADDAA101000095GD12995+9999999GD20995+9999999GD30995+9999999GD40995+9999999GF102025999999999999999999MA1999999098275EQDN01 00000JPWTH 1QNNE11 1 00299E11 1 00099E11 1 00099E11 1 00099G11U1 99999K11 1 00049L11 1 01000M11 1 29020N11 1 00000Q11 1 10179S11 1 00053V11 1 00202X11 1 00000
0041036880999991966041804004+51967+000500SAO  +0101EGVT V0200701N006210015019N0048001N1+00351+00191999999ADDGF108991999999999999999999MW1111MW2611
0070164200999991966041918004+38200+015550FM-12+005199999V0209991C00001220001CN0200001N9+01781+00281101511ADDAY111999GF100991001001999999001001KA1999M+02001MD1610041+9999MW1021
0255999999129261966012501005+27683-097283SAO  +0006NGP  V0203205N005250012249N004800599+00945+00895101495ADDGD14995+9999999GD20995+9999999GD30995+9999999GF108085999999999999999999MA1999999101425MW1455MW2615EQDN01 02070JPWTH 1QNNE11 1 00699E11 1 00099E11 1 00099G11 1 00004K11 1 00048L11 1 00300M11 1 29950N11 1 02070Q11 1 10149S11 1 00049V11 1 01010X11 1 32010
0029722026128261966100410004+25483-080383SAO  +0002HST  V0203301N014410300019N0112001N9+02521+02131999999ADDGF108991999999999999999999
0092603180999991966040800004+35583-005400FM-12+001099999V0202901N00511220001CN0200001N9+01611+01111101381ADDAY111999GA1031+030009039GF199999021001999999031001MD1810031+9999MW1011EQDQ01+000022SCOTCV
007494120099999196610130230N-12420+130870AUST +0030YPDN V0200455N003159999999N999999999+03135+02005999999ADDAY144999GA1065+010505085GF106995064015010505999999MA1999999100905MW1045
0057256210999991966040618004+64000+158917FM-12+068399999V0209991C00001024001CN0500001N9-01391-01781101451ADDAY121999GF108991081001999999011999MD1710051+9999MW1021
0035746930937371966121504004+35133-078933SAO  +0074FBG  V0203101N003612200019N0080001N9+00001-00221999999ADDGF100991999999999999999999MW1051
0269999999940101966051003005+48400-106517SAO  +0853GSG  V0201205N006252200059N048000599+00944-00225101214ADDGD11995+9999993GD20995+9999999GD30995+9999999GD40995+9999999GF102995999999999999999999MA1999999091404EQDN01 00000JPWTH 1QNNE11 1 00199E11 1 00099E11 1 00099E11 1 00099G11U1 99999K11 1 00028L11 1 03000M11 1 26990N11 1 00000Q11 1 10121S11 1 00049V11 1 00399X11 1 12012
0081172700999991966041318004+37133+038767FM-12+054799999V0202901N00511220001CN0300001N9+01281+00501101181ADDAA199001091AY121999GF100991001001999999001001KA1999M+02001MD1810221+9999MW1011
0080111500999991966092609004+47800+013000FM-12+045099999V0203301N00101220001CN0025001N9+01001+00891102131ADDAJ100009199999999AY141031GF104991041061001501001001IA1009MD1710011+9999MW1281
0238999999107181966090223005+08917-079600SAO  +0016MBHO V0203505N002150061049N024000599+02835+02335999999ADDGD13995+9999999GD23995+9999999GD30995+9999999GD40995+9999999GF106995999999999999999999MW1805EQDN01 02300JPWTH 1QNNE11 1 00499E11 1 00499E11 1 00099E11 1 00099G11 1 00020K11 1 00074L11 1 01500N11 1 02300S11 1 00083V11 1 00899X11 1 35004
0100229540999991966010718004+60467+040200FM-12+017899999V0200201N00311021001CN0040001N9-03111-03501104891ADDAA199999999AY171999GF108991081001022501011999KA1999M-03111MD1810031+9999MW1711EQDQ01  00002PRCP99
0073600600999991966120312004+29367-010183FM-12+006699999V0202101N00311220001CN0400001N9+01891+01611102221ADDAY101999GA1011+006009059GF101991011051008001001001MD1010021+9999MW1021
0269999999931161966041114005+33250-119450SAO  +0173NSI  V0203105N011352200059N016000599+01064+00895101544ADDGD10995+9999999GD20995+9999999GD30995+9999999GD40995+9999999GF100005999999999999999999MA1999999099704EQDN01 00000JPWTH 1QNNE11 1 00099E11 1 00099E11 1 00099E11 1 00099G11U1 99999K11 1 00048L11 1 01000M11 1 29440N11 1 00000Q11 1 10154S11 1 00051V11 1 00000X11 1 31022
010694910099999196611241100N-35170+147470AUST +0213YSWG V0202035N002159999999N999999999+01625+00705999999ADDAY124999GA1005+999999999GA2005+999999999GA3015+999999999GF101995004999999999999025MA1999999098575MW1025
0057270080999991966042721004+59400+035917FM-12+013699999V0209991C00001012301CN0500001N9+00221-00111102551ADDAY161999GF107991071051012501001001MD1310021+9999MW1611
0098718960999991966060318004+53833-122800SAO  +0678CYXS V0203601N005112200019N0720001N1+01851+00961101441ADDGA1011+018009089GA2011+030009039GA3011+078009009GF102991999999999999999999MA1999999093531MW1001
0281999999147931966050917005+40200-075150SAO  +0102NXX  V0203605N004650012249N009600599+00675+00505100905ADDGD13995+9999999GD24995+9999999GD30995+9999999GD40995+9999999GF108085999999999999999999MA1999999099705MW1455MW2515EQDN01 03370JPWTH 1QNNE11 1 00499E11 1 00699E11 1 00099E11 1 00099G11 1 00004K11 1 00041L11 1 00600M11 1 29440N11 1 03370Q11 1 10090S11 1 00044V11 1 01010X11 1 36009
0057266450999991966062003004+55050+026150FM-12+020999999V0200701N00101220001CN0250001N9+00891+00721101931ADDAY101999GF100991001001999999001001MD1410001+9999MW1021
0073606800999991966052521004+22783+005517FM-12+137899999V0200401N00261220001CN0100001N9+02281+01281095271ADDAY101999GA1011+030009089GF101991011021022501001001MD1210111+9999MW1021
0089164900999991966111209004+35500+012600FM-12+002399999V0203501N00721027001CN0100001N9+01721+01221101831ADDAY121999GA1041+009009059GA2071+027009039GF108991041051008001071999MD1210081+9999MW1021
0377999999128501966030621005+24583-081683SAO  +0007NQX  V0203405N006252200059N012800599+01945+01115102205ADDGA1999+007624084GA2999+999999999GA3999+999999999GA4999+999999999GD12045+9999999GD20005+9999999GD30005+9999999GD40005+9999999GF104045999999999999999999MA1999999102135EQDN01 00000JPWTH 1QNNE11 1 00205E11 1 00000E11 1 00000E11 1 00000G11U1 99999H11 1 11025H11 1 00999H11 1 00999H11 1 00999K11 1 00052L11 1 00800M11 1 30160N11 1 00000Q11 1 10220S11 1 00067V11 1 00505X11 1 34012
0035471060999991966120402004+37750+127050SAO  +0056RKSB V0200901N002610090019N0096001N9+00581+00131999999ADDGF107991999999999999999999MW1051
0050722270138641966102121004+33917-084517SAO  +0329MGE  V0201001N004112200019N0240001N9+01691+00351102241ADDGF107991999999999999999999MA1999999098341MW1001
0057370180999991966060600004+44100+039067FM-12+999999999V0203201N00101012301CN0200001N9+01891+01721101501ADDAY121061GF108991081051012501999999MD1010011+9999MW1021
038899999994008196610311800E+48217-106617SAO  +069699999V0203105N011850061049N032000599+00444-00395102784ADDAA101000095GA1999+006104064GA2999+024384034GA3999+999999999GA4999+999999999GD13055+9999999GD23025+9999999GD30005+9999999GD40005+9999999GF106065999999999999999999MA1999999094414EQDN01 00000JPWTH 1QNNE11 1 00406E11 1 00402E11 1 00000E11 1 00000G11 1 00020H11 1 15020H11 1 23080H11 1 00999H11 1 00999K11 1 00025L11 1 02000M11 1 27880N11 1 00000Q11 1 10278S11 1 00040V11 1 00808X11 1 31023
0057279570999991966101712004+52650+042717FM-12+013099999V0202501N00721007801CN0100001N9+00611+00221101831ADDAY121999GF108991081051008001999999MD1710061+9999MW1021
0072683380999991966070114004+26950+024633FM-12+125099999V0202701N00511220001CN0550001N9+02062-00441999999ADDAY121999GF101991999999999999999999MA1999999087821MD1810231+9999MW1021
009094653099999196606120530N-32130+133720AUST +0017YPCD V0202485N002159999999N999999999+01565+00805999999ADDAY134999GA1025+007505085GA2055+015005065GF107995024015007505999999MA1999999101935MW1155
0050476800999991966020303004+35500+139400SAO  +0107RJTR V0201801N006712200019N0096001N9+01741+00741100421ADDGF107991999999999999999999MA1999999099121MW1051
0238727755241121966121022003+47517-111167SAO  +1056GFA  V0202305N010350365849N0720005N9+00335-00395999999ADDGD12995+9999999GD23995+9999999GD34995+9999999GD40995+9999999GF108995999999999999999999MW1001EQDN01 00000JPWTH 1QNNE11 1 00299E11 1 00499E11 1 00699E11 1 00099G11 1 00120K11 1 00025L11 1 04500N11 1 00000S11 1 00038V11 1 01099X11 1 23020
0377999999129181966090312005+99999+999999SAO  +999999999V0201305N000552200059N011200599+02395+02225101625ADDGA1999+007624064GA2999+999999999GA3999+999999999GA4999+999999999GD12015+9999999GD20005+9999999GD30005+9999999GD40005+9999999GF101015999999999999999999MA1999999101425EQDN01 00000JPWTH 1QNNE11 1 00201E11 1 00000E11 1 00000E11 1 00000G11U1 99999H11 1 15025H11 1 00999H11 1 00999H11 1 00999K11 1 00072L11 1 00700M11 1 29950N11 1 00000Q11 1 10162S11 1 00075V11 1 00101X11 1 13001
0119170670999991966060609004+40717+029817FM-12+001999999V0200501N00151220001CN0200001N9+02391+01281101501ADDAY101999GF102991021021012501001001MD1710021+9999MW1021REMSYN018SPCL PHENOM=791808EQDQ01+000042APCTENQ02+000022APC3  
0238999999340521966011410005+48100+005050SAO  +0313LFQU V0200205N002152200059N002600599-01115-01395999999ADDGD10995+9999999GD20995+9999999GD30995+9999999GD40995+9999999GF100995999999999999999999MW1055EQDN01 08100JPWTH 1QNNE11 1 00099E11 1 00099E11 1 00099E11 1 00099G11U1 99999K11 1 00007L11 1 00162N11 1 08100S11 1 00012V11 1 00099X11 1 02004
0232723520139021966112820003+34650-099267SAO  +0414LTS  V02099959000052200059N0400005N9+01335-00725999999ADDGD12995+9999999GD23995+9999993GD30995+9999999GD40995+9999999GF106995999999999999999999EQDN01 00000JPWTH 1QNNE11 1 00299E11 1 00399E11 1 00099E11 1 00099G11U1 99999K11 1 00019L11 1 02500N11 1 00000S11 1 00056V11 1 00799X11 1 00000
0057104700999991966101015004+51400+012417FM-12+013199999V0200901N00211001501CN0006001N9+01501+01391101501ADDAY161031GF108991071071001501999999MD1510031+9999MW1611
033499999913897196605121500E+36117-086683SAO  +018399999V0202005N007750061049N011200599+02115+01785101835ADDAA101000095GA1999+006104064GA2999+030484034GD13065+9999999GD24025+9999999GD30995+9999999GD40995+9999999GF108085999999999999999999MA1999999099665EQDN01 00000JPWTH 1QNNE11 1 00407E11 1 00603E11 1 00099E11 1 00099G11 1 00020H11 1 15020H11 1 23100K11 1 00064L11 1 00700M11 1 29430N11 1 00000Q11 1 10183S11 1 00070V11 1 01010X11 1 20015
0201747960128041966112215003+27633-081333SAO  +0020AGR  V0203405N006250036649N0112005N9+01725+01225999999ADDGD14995+9999999GD20995+9999999GD30995+9999999GD40995+9999999MW1001EQDN01 00000JPWTH 1QNNE11 1 00699E11 1 00099E11 1 00099E11 1 00099G11 1 00012K11 1 00054L11 1 00700N11 1 00000S11 1 00063X11 1 34012
0050722520129201966071421004+27533-099450SAO  +0158LRD  V0201501N006712200019N0240001N1+03631+01801101021ADDGF102991999999999999999999MA1999999099261MW1001
034099999913882196602012100E+35033-085200SAO  +021099999V0200405N002650018349N001600599+00005+00005100715ADDAA101000095GA1999+001834074GA2999+003964064GD13065+9999999GD24025+9999999GD30995+9999999GD40995+9999999GF108085999999999999999999MA1999999098175MW1455EQDN01 07000JPWTH 1QNNE11 1 00407E11 1 00603E11 1 00099E11 1 00099G11 1 00006H11 1 16006H11 1 15013K11 1 00032L11 1 00100M11 1 28990N11 1 07000Q11 1 10071S11 1 00032V11 1 01010X11 1 04005
0250722266138501966043011003+32350-086983SAO  +0063SEM  V0201905N004150036649N0064005N1+02005+01895999999ADDGD12995+9999999GD24995+9999999GD30995+9999999GD40995+9999999GF108995999999999999999999MW1055MW2111MW3445EQDN01 07281JPWTH 1QNNE11 1 00299E11 1 00699E11 1 00099E11 1 00099G11 1 00012K11 1 00066L11 1 00400N11 1 07281S11 1 00068V11 1 01099X11 1 19008
0043800990999991966111512004+07067-070717FM-12+012299999V0200501N003119999999N0300001N9+02391+02281100781ADDAY101999GF104991011021008001031001MW1021
036199999914936196606050300E+44383-098217SAO  +039599999V0201105N004650426749N032000599+02115+01675100805ADDAA101000095GA1999+030484034GA2999+042674044GA3999+999999024GD12025+9999999GD23055+9999999GD34025+9999999GD40995+9999999GF108085999999999999999999MA1999999096215EQDN01 00000JPWTH 1QNNE11 1 00202E11 1 00406E11 1 00602E11 1 00099G11 1 00140H11 1 23100H11 1 21140H11C1 37999K11 1 00062L11 1 02000M11 1 28410N11 1 00000Q11 1 10080S11 1 00070V11 1 01010X11 1 11009
0082718520999991966062418004+49900-097233SAO  +0240CYWG V0201801N001512200019N0240001N1+02411+01021101081ADDGA1011+010509079GA2061+084009009GF107991999999999999999999MA1999999098241MW1001
0108277030999991966121118004+54567+036367FM-12+013599999V0200901N00621002101CN0040001N9-00781-01111101491ADDAA106004091AA299001091AY171999GA1081+002109079GF108991081061002501999999KA1999M-00721MD1710031+9999MW1101
0165999999130171966122821005+34300-006600SAO  +0012GMMP V02099959000052200059N011200599+00785+00615102595ADDGF100005999999999999999999MA1999999102475EQDN01 00000JPWTH 1QNNG11U1 99999K11 1 00043L11 1 00700M11 1 30260N11 1 00000Q11 1 10259S11 1 00046V11 1 00000X11 1 00000
0057333930999991966090500004+49817+023950FM-12+032599999V0209991C00001220001CN0040001N9+01001+00891101821ADDAY101999GF100991001001999999001001MD1810031+9999MW1101
0089606700999991966100515004+24550+009467FM-12+105499999V0209991C00001090001CN0400001N9+03111+00891999999ADDAY121999GA1021+018009089GA2031+039009039GF105991021021022501041021MD1710171+9999MW1011
0275722210138581966080703003+30483-086517SAO  +0020VPS  V02099959000050304849N0208005N9+02615+02395101145ADDGD12995+9999999GD24995+9999999GD30995+9999999GD40995+9999999GF108995999999999999999999MA1999999100815MW1001EQDN01 00000JPWTH 1QNNE11 1 00299E11 1 00699E11 1 00099E11 1 00099G11 1 00100K11 1 00075L11 1 01300M11 1 29770N11 1 00000Q11 1 10114S11 1 00079V11 1 01099X11 1 00000
0089108520999991966121215004+48383+010850FM-12+047799999V0201901N00261015001CN0090001N9+00501+00281099001ADDAY121031GA1051+015009059GA2081+024009049GF108991051051017501071999MD1510261+9999MW1021
031999999924235196601041800E+42617-123367SAO  +1169SXT  V0201805N012950000049N000000599-00065-00065100645ADDAA101000595GA1999+000004104GD15085+9999999GD20995+9999999GD30995+9999999GD40995+9999999GF108085999999999999999999MA1999999087235MW1455MW2715EQDN01 04070JPWTH 1QNNE11 1 00710E11 1 00099E11 1 00099E11 1 00099G11 1 00000H11 1 45000K11 1 00031L11 1 00000M11 1 25760N11 1 04070Q11 1 10064S11 1 00031V11 1 01010X11 1 18025
017699999913723196607240900E+36083-079950SAO  +027599999V0200405N002152200059N024000599+01615+01445102375ADDAA101000095GF100005999999999999999999MA1999999099265EQDN01 00000JPWTH 1QNNG11U1 99999K11 1 00058L11 1 01500M11 1 29310N11 1 00000Q11 1 10237S11 1 00061V11 1 00000X11 1 04004
0050912180999991966092200004+13583+144917SAO  +0185PGUA V0200601N009310036019N0160001N9+02831+02391100421ADDGF108991999999999999999999MA1999999098341MW1001
017699999913895196603280300E+32300-086400SAO  +0058MGM  V0203605N003152200059N016000599+01225+00065101665ADDAA101000095GF100005999999999999999999MA1999999100955EQDN01 00000JPWTH 1QNNG11U1 99999K11 1 00033L11 1 01000M11 1 29810N11 1 00000Q11 1 10166S11 1 00054V11 1 00000X11 1 36006
028099999914771196608272200E+43117-076117SAO  +0125SYR  V0203105N005750243849N019200599+02675+01505101385ADDAA101000095GD12995+9999999GD23995+9999999GD33995+9999999GD40995+9999999GF106065999999999999999999MA1999999099905EQDN01 00000JPWTH 1QNNE11 1 00299E11 1 00499E11 1 00499E11 1 00099G11 1 00080K11 1 00059L11 1 01200M11 1 29500N11 1 00000Q11 1 10138S11 1 00080V11 1 00807X11 1 31011
0057804120999991966072006004+10500-068650FM-12+000299999V0202401N00151220001CN0100001N9+02611+02111101351ADDAY101999GF100991001001999999001001MD1010001+9999MW1001
0275999999947251966013015005+44933-074850SAO  +0067MSS  V0200505N004150021349N001600599-01614-01895099834ADDGD15995+9999999GD20995+9999999GD30995+9999999GD40995+9999999GF108085999999999999999999MA1999999099024MW1715EQDN01 04000JPWTH 1QNNE11 1 00799E11 1 00099E11 1 00099E11 1 00099G11 1 00007K11 1-00002L11 1 00100M11 1 29240N11 1 04000Q11 1 09983S11 1 00003V11 1 01010X11 1 05008
034099999914852196612131800E+41250-080667SAO  +0359YNG  V0200805N003152200059N009600599-00225-00565102545ADDAA101000095GA1999+030484034GA2999+999999024GD12025+9999999GD24085+9999999GD30995+9999999GD40995+9999999GF108085999999999999999999MA1999999098075MW1045EQDN01 08200JPWTH 1QNNE11 1 00202E11 1 00610E11 1 00099E11 1 00099G11C1 99999H11 1 23100H11C1 37999K11 1 00022L11 1 00600M11 1 28960N11 1 08200Q11 1 10254S11 1 00028V11 1 01010X11 1 08006
0035478080999991966041307004+33583+130450SAO  +0012RJFF V0203301N002110150019N0048001N1+01911+00691999999ADDGF108991999999999999999999MW1041
0043489400999991966122105004+17950+102567FM-12+017099999V0201801N00311220001CN0350001N9+02831+99999999999ADDAY111999GF104991999999999999999999MW1021
0269999999038551966041219005+30350-087317SAO  +0010NPA  V0201405N006752200059N016000599+02335+01785101695ADDGD12995+9999999GD22995+9999999GD33995+9999999GD40995+9999999GF106055999999999999999999MA1999999101595EQDN01 00000JPWTH 1QNNE11 1 00299E11 1 00299E11 1 00499E11 1 00099G11C1 99999K11 1 00064L11 1 01000M11 1 30000N11 1 00000Q11 1 10169S11 1 00074V11 1 00706X11 1 14013
0249725895942361966011702003+42150-121733SAO  +1245LMT  V0203305N001552200059N0480005N9-00065-00725102725ADDGD10995+9999999GD20995+9999999GD30995+9999999GD40995+9999999GF100995999999999999999999MW1001EQDN01 00000JPWTH 1QNNE11 1 00099E11 1 00099E11 1 00099E11 1 00099G11U1 99999K11 1 00019L11 1 03000N11 1 00000Q11 1 10272S11 1 00031V11 1 00099X11 1 33003
0070161800999991966091106004+43117+012383FM-12+051199999V0209991C00001220001CN0200001N9+02001+01891999999ADDAY101999GF100991001001999999001001KA1999N+01891MD1210071+9999MW1021
0069484310999991966101307004+14967+102117SAO  +0188VTUN V0201101N001512200019N0320001N1+03351+02021100971ADDGF107991999999999999999999MA1999999098511MW1001EQDQ01+999990APOSP 
0099679650999991966122412004+20017+028617FM-12+132799999V0201701N00621220001CN0500001N9+02891+01391999999ADDAY111999GA1031+012009089GA2011+999999099GF103991031021012501001021MA1999999086321ME1314609MW1151
0269999999148561966051902005+42100-083167SAO  +018199999V0202605N002152200059N024000599+01395+01065100935ADDGD10995+9999999GD20995+9999999GD30995+9999999GD40995+9999999GF100005999999999999999999MA1999999098785EQDN01 00000JPWTH 1QNNE11 1 00099E11 1 00099E11 1 00099E11 1 00099G11U1 99999K11 1 00051L11 1 01500M11 1 29170N11 1 00000Q11 1 10093S11 1 00057V11 1 00000X11 1 26004
0097173300999991966020906004+36367+033933FM-12+001599999V0203201N00411036001CN0250001N9+01001+00501101701ADDAA199000091AY121999GA1041+030001031GF108991021051012501051001KA1999N+00781MD1210071+9999MW1011
0043486010999991966072215004+05300+100267FM-12+000499999V0209991C000019999999N0240001N9+02611+02391100811ADDAY121999GF105991011051008001001011MW1031
0100722435999991966061818004+29650-095283SAO  +0019HOU  V0200701N004110090019N0064001N1+02461+02181101561ADDGA1051+009001091GA2031+220001001GF108991999999999999999999MA1999999101351MW1041MW2171MW3801MW4951
033199999914734196612202200E+40700-074167SAO  +0002EWR  V0200605N005250021349N003200599+00225+00175100815ADDAA101002095GD13995+9999999GD24995+9999999GD30995+9999999GD40995+9999999GF108085999999999999999999MA1999999100715MW1045MW2455MW3615MW4715EQDN01 02040JPWTH 1N02 07080JPWTH 1QNNE11 1 00499E11 1 00699E11 1 00099E11 1 00099G11 1 00007K11 1 00035L11 1 00200M11 1 29740N11 1 02040N11 1 07080Q11 1 10081S11 1 00036V11 1 01010X11 1 06010
0035484005999991966100505004+15233+100283SAO  +0037VTPI V0200601N004112200019N0240001N1+03291+02301999999ADDGF108991999999999999999999MW1001
0050702720999991966121206004+61250-149800SAO  +0065PAED V0200801N002112200019N0192001N9-02141-02641099511ADDGF100991999999999999999999MA1999999098651MW1001
0081600960999991966011018004+23700-015867FM-12+001099999V0200401N00931220001CN0200001N9+01781+01001101881ADDAA199000091AY101999GF100991001001999999001001KA1999M+02281MD1210081+9999MW1001
0050722866231221966011118004+34100-117233SAO  +0352SBD  V0209991C000012200019N0144001N9+01191+00301101791ADDGF107991999999999999999999MA1999999097601MW1001
0076156400999991966080703004+42683+026267FM-12+022699999V0203201N00511220001CN0200001N9+02501+01611101031ADDAY121999GF106991999001999999071001MD1410001+9999MW1031EQDQ01+000002SCOTLC
0076874180999991966062018004-32817-068767FM-12+070399999V0200901N00361220001CN0200001N9+01391+00721999999ADDAY101999GF104991999001999999041001MD1710251+9999MW1031EQDQ01+000002SCOTLC
0057209730999991966020706004+70833+089867FM-12+999999999V0209991C00001220001CN0200001N9-04501-04781101471ADDAY171999GF102991001001999999001011MD1810221+9999MW1221
009094601099999196604300700N-34370+115130AUST +0014     V0203605N002659999999N999999999+02175+01705999999ADDAY124999GA1005+999999999GA2055+999999035GF105995004999999999075999MA1999999100285MW1025
0044722026128261966081206004+25483-080383SAO  +0002HST  V0200901N001012200019N0112001N9+02571+02241101831ADDGF102991999999999999999999MA1999999101761
0092224220999991966120118004+65900+034767FM-12+001099999V0201801N00721001501CN0040001N9-00221-00721100851ADDAA106000091AA299001091AY171999GF108991081061001501999999KA1999M-00221MD1610021+9999MW1021
0050723927931101966022015004+34200-119200SAO  +0013OXR  V0209991C000012200019N0480001N1+00351+00191102321ADDGF100991999999999999999999MA1999999101961MW1001
0269999999264451966052604005+60083-142500SAO  +0010CYT  V0201905N003650076249N048000599+00835+00335100585ADDGD13995+9999999GD20995+9999999GD30995+9999999GD40995+9999999GF106035999999999999999999MA1999999100475EQDN01 00000JPWTH 1QNNE11 1 00499E11 1 00099E11 1 00099E11 1 00099G11 1 00025K11 1 00038L11 1 03000M11 1 29670N11 1 00000Q11 1 10058S11 1 00047V11 1 00704X11 1 19007
028099999923063196607190000E+39650-106917SAO  +1980EGE  V0200105N005252200059N040000599+03115+01335101255ADDAA101000095GD12995+9999999GD20995+9999999GD30995+9999999GD40995+9999999GF104045999999999999999999MA1999999080435EQDN01 00000JPWTH 1QNNE11 1 00299E11 1 00099E11 1 00099E11 1 00099G11U1 99999K11 1 00056L11 1 02500M11 1 23750N11 1 00000Q11 1 10125S11 1 00088V11 1 00505X11 1 01010
007494865099999196612100500N-37870+144750AUST +0014YMLV V0201355N003659999999N999999999+02395+01205999999ADDAY154999GA1005+999999999GF100995004999999999999999MA1999999101815MW1055
0050484310999991966021412004+14967+102117SAO  +0188VTUN V0209991C000012200019N0112001N1+02801+01911100981ADDGF102991999999999999999999MA1999999098441MW1001
0073273160999991966050512004+57350+037583FM-12+013999999V0202301N00311220001CN0040001N9+01221+01001100171ADDAY161999GA1041+012009059GF107991051051012501021001MD1710071+9999MW1211
0067679890999991966060804004+20417+032317FM-12+044299999V0209991C00001004201CN0040001N9+01611+01501999999ADDAY121999GF105991051051004501031001MA1999999097031ME1315649MW1411
0050716280999991966012508004+45317-075667SAO  +0126CYOW V0203151N004612200019N0240001N1-01701-02031102751ADDGF100991999999999999999999MA1999999101121MW1001
0057339460999991966100615004+45017+033817FM-12+020599999V0200501N00411220001CN0100001N9+01721+01221101801ADDAY101999GF100991001001999999001001MD1210061+9999MW1021
0269999999038531966091617005+30400-081417SAO  +0005NRB  V0200105N003152200059N011200599+02565+02175101225ADDGD12995+9999999GD24995+9999999GD30995+9999999GD40995+9999999GF108065999999999999999999MA1999999101155EQDN01 00000JPWTH 1QNNE11 1 00299E11 1 00699E11 1 00099E11 1 00099G11C1 99999K11 1 00071L11 1 00700M11 1 29870N11 1 00000Q11 1 10122S11 1 00078V11 1 01008X11 1 01006
0104802100999991966112621004+04800-075733FM-12+135099999V0200901N00771027001CN0200001N9+02391+01781999999ADDAY121999GA1999+008109049GA2081+027009049GF108991051021008001021999MA1999999086111MD1710191+9999MW1151
0058946100999991966080507004-31933+115967FM-12+001599999V0200701N003619999999N0400001N9+01721+00561999999ADDAY121999GF101991011011012501001001MA1999999102791MW1021
0035106570999991966041114004+49767+009483SAO  +0341EDOF V0202701N001510150019N0176001N9+01631+00631999999ADDGF108991999999999999999999MW1001
0275727575949251966090221003+47967-097400SAO  +0276RDR  V02099959000052200059N0240005N9+02505+00835101595ADDGD12995+9999999GD24995+9999999GD30995+9999999GD40995+9999999GF108995999999999999999999MA1999999098245MW1001EQDN01 00000JPWTH 1QNNE11 1 00299E11 1 00699E11 1 00099E11 1 00099G11C1 99999K11 1 00047L11 1 01500M11 1 29010N11 1 00000Q11 1 10159S11 1 00077V11 1 01099X11 1 00000
0082719640999991966111508004+60717-135067SAO  +0703CYXY V0203381N003610069019N0480001N1-02031-02261102411ADDGA1061+006909059GA2021+021009039GF108991999999999999999999MA1999999093501MW1711
038899999993819196612222100E+39733-086283SAO  +0241IND  V0203505N005750121949N024000599+00224-00725102334ADDAA101000095GA1999+012194064GA2999+999999024GA3999+999999999GA4999+999999999GD13065+9999999GD23025+9999999GD30005+9999999GD40005+9999999GF107075999999999999999999MA1999999099324EQDN01 00000JPWTH 1QNNE11 1 00407E11 1 00402E11 1 00000E11 1 00000G11 1 00040H11 1 15040H11C1 37999H11 1 00999H11 1 00999K11 1 00019L11 1 01500M11 1 29330N11 1 00000Q11 1 10233S11 1 00036V11 1 00909X11 1 35011
0050035773999991966122215004+52367+000483SAO  +0012EGUN V0203001N005110180019N0096001N9+00941+00501101231ADDGF108991999999999999999999MA1999999101081MW1051
0035745940137051966031807004+38817-076850SAO  +0085ADW  V0201901N005112200019N0112001N9+00301-00311999999ADDGF100991999999999999999999MW1001
0050488815999991966122503004+11950+108417SAO  +1506VVCL V0200901N005112200019N0192001N1+02071+01411100011ADDGF108991999999999999999999MA1999999084831MW1001
0238724837932161966102020003+39117-121433SAO  +0038BAB  V0201705N004152200059N0112005N9+02335-00175999999ADDGD12995+9999999GD23995+9999993GD33995+9999999GD40995+9999999GF106995999999999999999999MW1001EQDN01 00000JPWTH 1QNNE11 1 00299E11 1 00399E11 1 00499E11 1 00099G11C1 99999K11 1 00029L11 1 00700N11 1 00000S11 1 00074V11 1 00899X11 1 17008
0069489000999991966081405004+10817+106667SAO  +0019VVTS V0202701N004110540019N0144001N1+03241+02521100661ADDGF107991999999999999999999MA1999999100461MW1001EQDQ01+999990APOSP 
0108261670999991966053018004+58567+029800FM-12+009399999V0200201N00621001501CN0110001N9+00721+00611100961ADDAA106031091AA299008091AY191999GA1999+001809099GF108991081091001501999999KA1999M+01111MD1810051+9999MW1951
0056042020999991966052006004+76533-068750SAO  +0077BGTL V0201701N001010006019N0004001N9-00761-00871101871ADDGF108991999999999999999999MA1999999100851MW1451MW2711
030799999913957196612170300E+32467-093817SAO  +0077SHV  V0201005N003650051849N012800599+01115+00945102055ADDAA101000095GA1999+005184064GD14085+9999999GD20995+9999999GD30995+9999999GD40995+9999999GF108085999999999999999999MA1999999101125EQDN01 00000JPWTH 1QNNE11 1 00610E11 1 00099E11 1 00099E11 1 00099G11 1 00017H11 1 15017K11 1 00049L11 1 00800M11 1 29860N11 1 00000Q11 1 10205S11 1 00052V11 1 01010X11 1 10007
0082719460999991966071312004+61750-121233SAO  +0169CYFS V0201131N003610270019N0240001N1+01571+01461101111ADDGA1031+015009059GA2031+027009039GF107991999999999999999999MA1999999098981MW1001
0275999999410031966112421005+16050+108200SAO  +0007VVSD V0202405N002150085349N008000599+02395+02115101255ADDGD13995+9999999GD24995+9999999GD30995+9999999GD40995+9999999GF108995999999999999999999MA1999999101125MW1515EQDN01 03300JPWTH 1QNNE11 1 00499E11 1 00699E11 1 00099E11 1 00099G11 1 00028K11 1 00070L11 1 00500M11 1 29860N11 1 03300Q11 1 10125S11 1 00075V11 1 01099X11 1 24004
006172405013743196602181200D+38850-077033SAO  +0020DCA  V0201601N001512200019N0112001N1+00081-00481102271ADDAA101000095GF108991999999999999999999MA1999999102171MW1001
0035722860231191966062017004+33900-117250SAO  +0470RIV  V0203401N003612200019N0048001N9+02551+01171999999ADDGF100991999999999999999999MW1051
0073171700999991966032709004+38500+043383FM-12+166199999V0201601N99999036001CN0150001N9+00721+00111999999ADDAY121999GA1041+009909059GF108991041051004501021999MD1710211+9999MW1151
0103353610999991966040318004+50133+065233FM-12+014299999V0200701N00721220001CN0100001N9-00111-00501104461ADDAA199000091AY101999GF100991001001999999001001MD1210201+9999MW1021EQDQ01+000072APCTENQ02+000002APC3  
0232999999340481966032703005+46850+001717SAO  +0164LFLX V0202505N005250106749N012800599+00835+00615999999ADDGD13995+9999999GD20995+9999999GD30995+9999999GD40995+9999999GF106995999999999999999999EQDN01 00000JPWTH 1QNNE11 1 00499E11 1 00099E11 1 00099E11 1 00099G11 1 00035K11 1 00043L11 1 00800N11 1 00000S11 1 00047V11 1 00899X11 1 25010
0073607350999991966010403004+35667+010100FM-12+006899999V0203001N00311220001CN0100001N9+01391+00391101981ADDAY101999GA1011+030009039GF101991011001999999031001MD1810161+9999MW1031
0093151970999991966111018004+46233+027667FM-12+017399999V0202001N00411004501CN0080001N9+00391+00391102291ADDAJ100009199999999AY121999GF108991081061004501999999IA1089KA1999M+00501MD1310011+9999MW1101
0269999999038531966042407005+30400-081417SAO  +0005NRB  V0201505N003652200059N016000599+02005+01445102705ADDGD10995+9999999GD20995+9999999GD30995+9999999GD40995+9999999GF100005999999999999999999MA1999999102645EQDN01 00000JPWTH 1QNNE11 1 00099E11 1 00099E11 1 00099E11 1 00099G11U1 99999K11 1 00058L11 1 01000M11 1 30310N11 1 00000Q11 1 10270S11 1 00068V11 1 00000X11 1 15007
0035070891999991966010207004+49033+005867SAO  +0266LCHM V0202201N005110060019N0176001N1+00631+00521999999ADDGF108991999999999999999999MW1801
0102278230999991966030518004+53783+039250FM-12+021099999V0202301N00211000151CN0002001N9+00001+00001102431ADDAY151999GA1061+999999029GA2021+001209009GF109991091999000251999999KA1999M+00111MD1710051+9999MW1451
0035724835232061966021416004+38550-121300SAO  +0029MHR  V0209991C000012200019N0112001N9+00241-00201999999ADDGF102991999999999999999999MW1001
0275725115147111966080721003+40200-076767SAO  +0113MDT  V0201305N005252200059N0144005N1+02785+01335101365ADDGD12995+9999999GD23995+9999999GD30995+9999999GD40995+9999999GF106995999999999999999999MA1999999100205MW1001EQDN01 00000JPWTH 1QNNE11 1 00299E11 1 00499E11 1 00099E11 1 00099G11C1 99999K11 1 00056L11 1 00900M11 1 29590N11 1 00000Q11 1 10136S11 1 00082V11 1 00799X11 1 13010
0269999999047691966071719005+42417-071483SAO  +006399999V0202005N001552200059N011200599+02895+01225102055ADDGD12995+9999999GD20995+9999999GD30995+9999999GD40995+9999999GF104045999999999999999999MA1999999101325EQDN01 00000JPWTH 1QNNE11 1 00299E11 1 00099E11 1 00099E11 1 00099G11U1 99999K11 1 00054L11 1 00700M11 1 29920N11 1 00000Q11 1 10205S11 1 00084V11 1 00505X11 1 20003
0096061800999991966081612004+55617+012650FM-12+000599999V0201901N00211220001CN0200001N9+01721+01111102771ADDAJ100009199999999AY101999GA1011+009009089GF101991011021008001001001IA1009MD1210111+9999MW1021
0050489005999991966112406004+10900+106733SAO  +0032IDAN V0202601N003110360019N0112001N1+02961+02461100891ADDGF108991999999999999999999MA1999999100541MW1001
0057172920999991966021800004+37200+028350FM-12+064699999V0200701N00051220001CN0250001N9+00281+00281102011ADDAY101999GF100991001001999999001001MD1210071+9999MW1021
0035727937999991966051401004+47917-122283SAO  +0187PAE  V0203301N005110084019N0160001N1+00691+00191999999ADDGF108991999999999999999999MW1001
0117222350999991966011706004+67367+037033FM-12+016099999V0202501N00311220001CN0500001N9-02281-02501100601ADDAA106000091AA299002091AY111999GF100991001001999999001001HL10009IA1319IA2999-03009KA1999N-02611MD1110011+9999MW1021
0081355420999991966040718004+48617+061267FM-12+011499999V0200701N00511024001CN0500001N9+00501+00001102821ADDAA199000091AY121999GF105991051001999999071001KA1999M+01391MD1210011+9999MW1011
017699999924021196603240900E+42817-108733SAO  +1694LND  V02099959000052200059N024000599-00565-01175102305ADDAA101000095GF100005999999999999999999MA1999999083105EQDN01 00000JPWTH 1QNNG11U1 99999K11 1 00011L11 1 01500M11 1 24540N11 1 00000Q11 1 10230S11 1 00022V11 1 00000X11 1 00000
0092251230999991966052412004+68800+161283FM-12+001899999V0209999900101001501CN0100001N9-00111-00111101371ADDAA106002091AA299000591AY151999GF199999081061001501999999KA1999M+00611MD1210101+9999MW1511
0238744865147191966031207003+40850-072633SAO  +0018FOK  V0201305N001050009149N0048005N1+00335+00005999999ADDGD14995+9999999GD20995+9999999GD30995+9999999GD40995+9999999GF108995999999999999999999MW1055EQDN01 08100JPWTH 1QNNE11 1 00699E11 1 00099E11 1 00099E11 1 00099G11 1 00003K11 1 00032L11 1 00300N11 1 08100S11 1 00038V11 1 01099X11 1 13002
0092289520999991966032206004+53217+063617FM-12+017199999V0203201N00411220001CN0040001N9-00611-00781100431ADDAA106075091AA224999999AY171999GF100991001001999999001001KA1999N-00611MD1210191+9999MW1101
0092277190999991966102912004+54200+037483FM-12+016299999V0203601N00211003001CN0040001N9+00001-00111100631ADDAY161999GA1081+003009079GF108991999071004501021999MD1210081+9999MW1101EQDQ01+000082SCOTLC
040572365023050196603171200C+35050-106617SAO  +1619ABQ  V0202105N004652200059N0960005N9+00505-00725101065ADDAA101000095AA224999999GA1011+220009004GA2999+999999999GA3999+999999999GA4999+999999999GD11015+9999993GD20005+9999999GD30005+9999999GD40005+9999999GF101005999999999999999999MA1999999083545MW1001EQDN01 00000JPWTH 1QNNE11 1 00101E11 1 00000E11 1 00000E11 1 00000G11U1 99999H11C1 32999H11 1 00999H11 1 00999H11 1 00999K11 1 00019L11 1 06000M11 1 24670N11 1 00000Q11 1 10106S11 1 00041V11 1 00100X11 1 21009
0057315380999991966032321004+50067+132133FM-12+031499999V0209991C00001024001CN0500001N9-01001-01391100751ADDAY121999GF108991081001999999021999MD1210071+9999MW1021
0131172800999991966011500004+37917+040200FM-12+067799999V0209999C00001012001CN0080001N9+00391+00221102501ADDAJ100009199999999AY121999GA1051+012001051GF108991051051012501071999IA1009MD1710011+9999MW1101EQDQ01+000042APCTENQ02+000012APC3  
0056722866231221966031312004+34100-117233SAO  +0352SBD  V0209991C000010006019N0010001N9+01131+01021101761ADDGF108991999999999999999999MA1999999097631MW1041MW2451
0057408540999991966121812004+29100+058400FM-12+106299999V0200901N00211220001CN0200001N9+02111+00501101201ADDAY101999GF100991001001999999001001MD1610141+9999MW1021
0057375750999991966092312004+41633+046483FM-12+051899999V0202001N00101090001CN0500001N9+02721+01001103011ADDAY111061GF105991011021017501001021MD1710191+9999MW1021
0081262310999991966101418004+58383+024500FM-12+001499999V0202501N00411007801CN0200001N9+00611+00221102881ADDAA199000091AY121999GF108991081051008001999999KA1999M+00721MD1310011+9999MW1021
0073343910999991966101512004+50150+048550FM-12+002599999V0203601N00821004501CN0200001N9+00501+00111101541ADDAY121999GA1081+004509059GF108991081081004501999999MD1110051+9999MW1021
0238747910137171966082823003+33683-078933SAO  +0008MYR  V0201405N001552200059N0112005N9+02835+01615999999ADDGD10995+9999999GD20995+9999999GD30995+9999999GD40995+9999999GF100995999999999999999999MW1001EQDN01 00000JPWTH 1QNNE11 1 00099E11 1 00099E11 1 00099E11 1 00099G11U1 99999K11 1 00061L11 1 00700N11 1 00000S11 1 00083V11 1 00099X11 1 14003
0057265090999991966052103004+55700+021650FM-12+001099999V0202901N00621220001CN0100001N9+00781+00611101511ADDAY111999GF102991011091012501051001MD1210071+9999MW1011
0050488970999991966032815004+11967+109233SAO  +0011VVCR V0200301N005112200019N0112001N1+02631+02461101211ADDGF102991999999999999999999MA1999999101151MW1001
0232999999432731966051209005+37033+126750SAO  +0012RKSN V0203105N005252200059N032000599+01725+01005999999ADDGD13995+9999993GD20995+9999999GD30995+9999999GD40995+9999999GF106995999999999999999999EQDN01 00000JPWTH 1QNNE11 1 00399E11 1 00099E11 1 00099E11 1 00099G11U1 99999K11 1 00050L11 1 02000N11 1 00000S11 1 00063V11 1 00799X11 1 31010
0377999999416061966012706005+19283+166650SAO  +0004PWAK V0201405N003650045749N016000599+02225+02005101645ADDGA1999+004574084GA2999+016764064GA3999+999999999GA4999+999999999GD13065+9999999GD23005+9999999GD30005+9999999GD40005+9999999GF106065999999999999999999MA1999999101635EQDN01 00000JPWTH 1QNNE11 1 00407E11 1 00400E11 1 00000E11 1 00000G11 1 00015H11 1 11015H11 1 15055H11 1 00999H11 1 00999K11 1 00068L11 1 01000M11 1 30010N11 1 00000Q11 1 10164S11 1 00072V11 1 00707X11 1 14007
0255999999433251966043000005+35517+139400SAO  +0107RJTW V0201105N004650076249N001600599+01835+01615100855ADDGD12995+9999999GD24995+9999999GD30995+9999999GF108995999999999999999999MA1999999099595MW1055MW2445EQDN01 07281JPWTH 1QNNE11 1 00299E11 1 00699E11 1 00099G11 1 00025K11 1 00061L11 1 00100M11 1 29410N11 1 07281Q11 1 10085S11 1 00065V11 1 01099X11 1 11009
0089601500999991966052615004+33883-005533FM-12+054999999V0200401N00821036001CN0200001N9+03281+01781100521ADDAY121999GA1021+012009099GA2041+030009039GF107991021031012501081031MD1710151+9999MW1031
038872270023044196612040900E+31800-106400SAO  +1194ELP  V0201505N002652200059N048000599+00675-00335101335ADDAA101000095GA1999+999999034GA2999+999999024GA3999+999999999GA4999+999999999GD13005+9999993GD20055+9999999GD30005+9999999GD40005+9999999GF105025999999999999999999MA1999999088115EQDN01 00000JPWTH 1QNNE11 1 00300E11 1 00006E11 1 00000E11 1 00000G11U1 99999H11 1 23999H11C1 37999H11 1 00999H11 1 00999K11 1 00026L11 1 03000M11 1 26020N11 1 00000Q11 1 10133S11 1 00044V11 1 00602X11 1 15005
0269999999938371966112801005+30233-081667SAO  +0009NIP  V0202105N005750243849N016000599+01944+01335101024ADDGD13995+9999999GD23995+9999999GD30995+9999999GD40995+9999999GF106065999999999999999999MA1999999100914EQDN01 00000JPWTH 1QNNE11 1 00499E11 1 00499E11 1 00099E11 1 00099G11 1 00080K11 1 00056L11 1 01000M11 1 29800N11 1 00000Q11 1 10102S11 1 00067V11 1 00808X11 1 21011
0092347310999991966112706004+47250+039650FM-12+007799999V0200501N00311000601CN0080001N9+00721+00611102281ADDAA106001091AA299000391AY151999GF108991081061000751999999KA1999N+00611MD1310021+9999MW1101
0068219460999991966041521004+70617+147883FM-12+004899999V0201101N00621220001CN0200001N9-01611-02111104041ADDAA106000091AY101999GF100991001001999999001001MD1110031+9999MW1021
0057226950999991966110400004+63450+048900FM-12+010899999V0202901N00311004501CN0100001N9-00501-00721101261ADDAY171999GF107991051051004501031001MD1210261+9999MW1021
0057150200999991966041709004+47750+026667FM-12+017299999V0209991C00001024001CN0120001N9+01111+01111099891ADDAY121999GF108991081001999999071999MD1710051+9999MW1021
0043486650999991966051206004+02267+102250FM-12+001099999V0202701N004119999999N0400001N9+02781+02391101031ADDAY121999GF106991011011004501041011MW1021
0066719640999991966010918004+60717-135067SAO  +0703CYXY V0209991C000012200019N0004001N1-04091+99999102791ADDGA1061+999999999GF107991999999999999999999MA1999999093431MW1451
0238702060266321966011916003+63317-168967SAO  +0009OHC  V0200705N005752200059N0112005N1-01675-02335999999ADDGD10995+9999999GD20995+9999999GD30995+9999999GD40995+9999999GF100995999999999999999999MW1001EQDN01 00000JPWTH 1QNNE11 1 00099E11 1 00099E11 1 00099E11 1 00099G11U1 99999K11 1-00010L11 1 00700N11 1 00000S11 1 00002V11 1 00099X11 1 07011
0269999999422151966030702005+26267+127750SAO  +0084ROTM V0202305N006750045749N024000599+02395+02065101095ADDGD12995+9999999GD23995+9999999GD33995+9999999GD40995+9999999GF106065999999999999999999MA1999999100145EQDN01 00000JPWTH 1QNNE11 1 00299E11 1 00499E11 1 00499E11 1 00099G11 1 00015K11 1 00069L11 1 01500M11 1 29570N11 1 00000Q11 1 10109S11 1 00075V11 1 00808X11 1 23013
0296999999265101966060315005+62967-155617SAO  +0104MCG  V0203105N002650146349N064000599+01005+00835102115ADDGA1999+014634064GD14085+9999999GD20995+9999999GD30995+9999999GD40995+9999999GF108085999999999999999999MA1999999100855EQDN01 00000JPWTH 1QNNE11 1 00610E11 1 00099E11 1 00099E11 1 00099G11 1 00048H11 1 15048K11 1 00047L11 1 04000M11 1 29780N11 1 00000Q11 1 10211S11 1 00050V11 1 01010X11 1 31005
0057226410999991966042812004+63900+038117FM-12+000899999V0203201N00511007801CN0200001N9+00221-00281102451ADDAY171999GF106991061011008001001001MD1310131+9999MW1011
0072684420999991966012718004+29100+026300FM-12+140099999V0200501N00151220001CN0600001N9+02561+01671999999ADDAY121999GF101991011091001501001001MA1999999086241MD1310091+9999MW1131
0057600150999991966091600004+28483-016333FM-12+064199999V0203301N00411002101CN0100001N9+01721+01611102011ADDAY121999GF105991051051002501001001MD1210021+9999MW1021
007494510099999196608272300N-26420+146270AUST +0304YBCV V0200455N004159999999N999999999+01515+00305999999ADDAY124999GA1005+999999999GF100995004999999999999999MA1999999098715MW1025
0097103130999991966120306004+51967+007600FM-12+006499999V0202401N00461003001CN0080001N9+00501+00391099161ADDAA199001091AY161999GA1061+003009079GF108991061061004501999999KA1999N+00501MD1210271+9999MW1211
0069488926999991966101023004+11300+106783SAO  +0055VVPV V0209991C000012200019N0160001N1+02461+02351100921ADDGF107991999999999999999999MA1999999100461MW1001EQDQ01+999990APOSP 
0133260380999991966032306004+59417+024800FM-12+004499999V0202001N00211010201CN0100001N9-00221-00281100051ADDAA106001091AA299000391AY121999GA1071+010209059GF107991071051012501001001HL10009IA1319IA2999-00509KA1999N-00281MD1210131+9999MW1011
006772303013714196606281200D+35183-079017SAO  +0066POB  V0202201N002112200019N0012001N9+02241+02181101941ADDAA101000095GF107991999999999999999999MA1999999101121MW1051MW2451
0089858310999991966060618004-43150-073700FM-12+000499999V0202701N00621007801CN0200001N9+01111+00501100961ADDAY121999GA1999+009009089GA2061+999999999GF108991081051008001999999MD1810171+9999MW1021
006391182022521196607280200D+21333-157917SAO  +0003PHNL V0200301N009812200019N0240001N9+02941+01891101391ADDAA101000095GF108991999999999999999999MA1101351101351OC101391
0035105360999991966071017004+50533+009633SAO  +0308EDEX V0202201N002112200019N0160001N9+02181+01571999999ADDGF107991999999999999999999MW1001
028699999913874196609022200E+33650-084433SAO  +0308ATL  V0202605N004652200059N006400599+03065+01725101565ADDAA101000095GD10995+9999999GD20995+9999999GD30995+9999999GD40995+9999999GF100005999999999999999999MA1999999097975MW1045EQDN01 08200JPWTH 1QNNE11 1 00099E11 1 00099E11 1 00099E11 1 00099G11U1 99999K11 1 00063L11 1 00400M11 1 28930N11 1 08200Q11 1 10156S11 1 00087V11 1 00000X11 1 26009
0066746300999991966111818004+33817-106667SAO  +150699999V0203601N001012200019N0640001N1+01741-00591999999ADDGA1021+220009009GF102991999999999999999999MA1999999085641MW1001
0035034700999991966041505004+52883+000183SAO  +0012EGYH V0201101N006710084019N0128001N1+00241-00091999999ADDGF108991999999999999999999MW1711
020699999993842196602210300E+32517-084933SAO  +012399999V0200205N003152200049N019200599+01064-00175999999ADDAA101000095GD10995+9999999GD20995+9999999GD30995+9999999GD40995+9999999EQDN01 00000JPWTH 1QNNE11 1 00099E11 1 00099E11 1 00099E11 1 00099G11U1 99999K11 1 00029L11 1 01200N11 1 00000S11 1 00051X11 1 02006
0117296120999991966021500004+55367+078400FM-12+012099999V0202301N00511220001CN0100001N9-03111-03501102731ADDAA106075091AA224999999AY131999GF100991001001999999001001HL10009IA1319IA2999-03399KA1999N-03111MD1210171+9999MW1021
0067408480999991966080103004+29600+052533FM-12+149199999V0209991C00001220001CN0150001N9+01781+00001099791ADDAA199000091AY101999GF100991001001999999001001KA1999N+01721MW1021
0057172400999991966032018004+37750+030550FM-12+104399999V0200201N002619999999N0300001N9+00001-00611999999ADDAY121999GF107991071999999999999999MD1310081+9999MW1011
0041723030137141966012302004+35183-079017SAO  +0066POB  V0202601N004610009019N0020001N9+00741+00691999999ADDGF108991999999999999999999MW1451MW2511
0050723865231121966072609004+36250-115033SAO  +0570LSV  V0201001N001512200019N0240001N9+03181+01461100861ADDGF102991999999999999999999MA1999999094511MW1001
0057330080999991966070721004+52117+023683FM-12+014499999V0202001N00101030001CN0130001N9+01721+01611100371ADDAY121999GF108991041091008001021999MD1710021+9999MW1021
000094999900324196606280200N-38030+144470AUST +0011     V0202485N006259999999N999999999+99999+99999999999
0073601950999991966011309004+32683-004733FM-12+151599999V0209991C00001090001CN0700001N9+00391-00221999999ADDAY121999GA1071+060009029GF107991001001999999001081MD1810011+9999MW1021
0073607250999991966042700004+36483+008800FM-12+014499999V0202801N00211220001CN0100001N9+00781+00721102261ADDAY111999GA1021+069009009GF102991001001999999001021MD1810011+9999MW1031
0238726395148081966011623003+44467-083367SAO  +0188OSC  V0203305N005250076249N0240005N9-00675-01285999999ADDGD14995+9999999GD20995+9999999GD30995+9999999GD40995+9999999GF108995999999999999999999MW1001EQDN01 00000JPWTH 1QNNE11 1 00699E11 1 00099E11 1 00099E11 1 00099G11 1 00025K11 1 00009L11 1 01500N11 1 00000S11 1 00020V11 1 01099X11 1 33010
0269999999331261966111402005+37400+014917SAO  +0031LICZ V0202505N004652200059N019200599+01115+00945101735ADDGD10995+9999999GD20995+9999999GD30995+9999999GD40995+9999999GF100005999999999999999999MA1999999101465EQDN01 00000JPWTH 1QNNE11 1 00099E11 1 00099E11 1 00099E11 1 00099G11U1 99999K11 1 00049L11 1 01200M11 1 29960N11 1 00000Q11 1 10173S11 1 00052V11 1 00000X11 1 25009
0068320530999991966100709004+51833+143133FM-12+001099999V0202301N00311220001CN0100001N9+01281-00221101441ADDAA199000091AY101999GF102991001001999999001021MD1510021+9999MW1021
0269999999149911966102515005+44867-091483SAO  +0272EAU  V02099959000052200059N019200599+00225-00285102585ADDGD11995+9999993GD20995+9999999GD30995+9999999GD40995+9999999GF101005999999999999999999MA1999999099225EQDN01 00000JPWTH 1QNNE11 1 00199E11 1 00099E11 1 00099E11 1 00099G11U1 99999K11 1 00027L11 1 01200M11 1 29300N11 1 00000Q11 1 10258S11 1 00036V11 1 00100X11 1 00000
0070111550999991966061118004+47817+013733FM-12+159199999V0201801N00101220001CN0200001N9+01781+01501999999ADDAY101061GF101991011091012501001001KA1999M+01891MD1710051+9999MW1011
0050488640999991966070211004+15417+108700SAO  +0011VVCI V0201101N001512200019N0160001N1+03131+02631100111ADDGF108991999999999999999999MA1999999100001MW1001
0383702190266151966121519003+60783-161800SAO  +0038BET  V0202905N002652200059N0160005N1-02115-02565099575ADDGA1021+018009064GA2061+018294064GA3999+999999024GA4999+999999999GD12005+9999999GD23025+9999999GD30065+9999999GD40005+9999999GF106035999999999999999999MA1999999098985MW1001EQDN01 00000JPWTH 1QNNE11 1 00200E11 1 00402E11 1 00007E11 1 00000G11C1 99999H11 1 15999H11 1 15060H11C1 37999H11 1 00999K11 1-00014L11 1 01000M11 1 29230N11 1 00000Q11 1 09957S11 1-00006V11 1 00704X11 1 29005
038899999923061196612090000E+37450-105867SAO  +229899999V02099959000052200059N064000599-00335-00675100855ADDAA101000095GA1999+006104064GA2999+999999999GA3999+999999999GA4999+999999999GD12025+9999999GD20005+9999999GD30005+9999999GD40005+9999999GF102025999999999999999999MA1999999076025EQDN01 00000JPWTH 1QNNE11 1 00203E11 1 00000E11 1 00000E11 1 00000G11U1 99999H11 1 15020H11 1 00999H11 1 00999H11 1 00999K11 1 00020L11 1 04000M11 1 22450N11 1 00000Q11 1 10085S11 1 00026V11 1 00303X11 1 00000
0057684060999991966082912004+28567+016533FM-12+002799999V0201801N00721220001CN0500001N9+01941+00781102331ADDAY121999GF101991001001999999001011MD1810291+9999MW1021
0069483570999991966100705004+17367+104650SAO  +0176VTUP V0200901N003112200019N0240001N1+03241+02241101251ADDGF102991999999999999999999MA1999999099301MW1001EQDQ01+999990APOSP 
0035106320999991966010407004+49967+008150SAO  +0230EDOT V0203001N004110051019N0176001N9+00191+00081999999ADDGF107991999999999999999999MW1001
0050488962999991966020703004+10967+106817SAO  +0011VVBH V0200801N003112200019N0240001N1+03071+02021101431ADDGF100991999999999999999999MA1999999101321MW1001
0269999999432631966040120005+33200+126267SAO  +0013RKPM V0201305N004152200059N011200599+01175+00565102105ADDGD10995+9999999GD20995+9999999GD30995+9999999GD40995+9999999GF100995999999999999999999MA1999999101905EQDN01 00000JPWTH 1QNNE11 1 00099E11 1 00099E11 1 00099E11 1 00099G11U1 99999K11 1 00042L11 1 00700M11 1 30090N11 1 00000Q11 1 10210S11 1 00053V11 1 00099X11 1 13008
0232999999107181966042305005+08917-079600SAO  +0016MBHO V0203305N004152200059N016000599+02675+02225999999ADDGD12995+9999999GD23995+9999999GD30995+9999999GD40995+9999999GF105995999999999999999999EQDN01 00000JPWTH 1QNNE11 1 00299E11 1 00499E11 1 00099E11 1 00099G11C1 99999K11 1 00072L11 1 01000N11 1 00000S11 1 00080V11 1 00699X11 1 33008
0035106330999991966093010004+50050+008333SAO  +0143EDOU V0201001N001512200019N0040001N9+01571+00911999999ADDGF108991999999999999999999MW1051
0129607150999991966112806004+36833+010233FM-12+000499999V0202601N00411007501CN0100001N9+00891+00721102361ADDAA199999929AY181999GA1011+006009089GA2021+007809099GA3031+009009059GF107991061091008001061999KA1999N+00721MD1310051+9999MW1251
0035042310999991966102610004+67017-050800SAO  +0050BGSF V0201101N006710210019N0240001N1+00741-00261999999ADDGF108991999999999999999999MW1001
0073165600999991966021115004+39250+009050FM-12+001899999V0202801N00461006901CN0080001N9+01111+00781099771ADDAY181999GA1081+006909059GF108991081051008001999999MD1510061+9999MW1631
0035478080999991966042804004+33583+130450SAO  +0012RJFF V0203401N002610060019N0160001N1+01741+01301999999ADDGF108991999999999999999999MW1001
033499999913984196608131500E+39550-097650SAO  +0448CNK  V0203405N006250024449N019200599+01835+01785101375ADDAA101000095GA1999+002444134GA2999+004574064GD13065+9999999GD24085+9999999GD30995+9999999GD40995+9999999GF108085999999999999999999MA1999999096175EQDN01 00000JPWTH 1QNNE11 1 00407E11 1 00610E11 1 00099E11 1 00099G11 1 00008H11 1 13008H11 1 15015K11 1 00064L11 1 01200M11 1 28400N11 1 00000Q11 1 10137S11 1 00065V11 1 01010X11 1 34012
0035723306138251966090323004+33633-088450SAO  +0062CBM  V0203101N002112200019N0160001N9+02631+02241999999ADDGF108991999999999999999999MW1001
0057299990999991966101209004+52500+099650FM-12+140799999V0209991C00001220001CN0500001N9+00001-00891103101ADDAY101999GF107991001001999999001021MD1710021+9999MW1021
0377910660227011966022418005+28200-177383SAO  +0007PMDY V0200705N006250076249N016000599+01565+01505103195ADDGA1999+007624084GA2999+011584064GA3999+999999999GA4999+999999999GD13055+9999999GD23025+9999999GD30005+9999999GD40005+9999999GF106065999999999999999999MA1999999103085EQDN01 00000JPWTH 1QNNE11 1 00406E11 1 00402E11 1 00000E11 1 00000G11 1 00025H11 1 11025H11 1 15038H11 1 00999H11 1 00999K11 1 00059L11 1 01000M11 1 30440N11 1 00000Q11 1 10319S11 1 00060V11 1 00808X11 1 07012
0000934360999991966050314004-41333+174800FM-12+000799999V0209991C000019999999N9999999N9+01001+99999102571
0009934360999991966120815004-41333+174800SAO  +0007NZWN V0200101N013419999999N0000001N1+01521+99999100121ADDMW1001
031372255012912196610180900C+28850-096917SAO  +0032VCT  V0200105N006250027449N0160005N1+01835+01565101335ADDAA101000095GA1081+002744074GD14085+9999999GD20995+9999999GD30995+9999999GD40995+9999999GF108085999999999999999999MA1999999100915MW1001EQDN01 00000JPWTH 1QNNE11 1 00610E11 1 00099E11 1 00099E11 1 00099G11 1 00009H11 1 16009K11 1 00060L11 1 01000M11 1 29800N11 1 00000Q11 1 10133S11 1 00065V11 1 01010X11 1 01012
0057272710999991966121600004+58367+045550FM-12+999999999V0200901N00871024001CN0040001N9-02001-02281103071ADDAY131999GF108991081001999999999999MD1710071+9999MW1731
0035070891999991966031822004+49033+005867SAO  +0266LCHM V0203401N004110240019N0176001N1+00461+00191999999ADDGF108991999999999999999999MW1001
0067489480999991966060601004+16667+105017SAO  +0185VLIS V0202201N001010048019N0128001N1+99999+99999999999ADDGA1051+004809009GA2061+027009059GF107991999999999999999999MW1001
0238999999341961966020205005+48450+010867SAO  +0466EDOX V0201505N002150106749N004800599+00285+00175999999ADDGD13995+9999999GD24995+9999999GD30995+9999999GD40995+9999999GF108995999999999999999999MW1045EQDN01 08200JPWTH 1QNNE11 1 00499E11 1 00699E11 1 00099E11 1 00099G11 1 00035K11 1 00035L11 1 00300N11 1 08200S11 1 00037V11 1 01099X11 1 15004
0232999999139281966071217005+31633-097067SAO  +015399999V0201805N002652200059N024000599+03115+02065999999ADDGD12995+9999999GD22995+9999999GD30995+9999999GD40995+9999999GF101995999999999999999999EQDN01 00000JPWTH 1QNNE11 1 00299E11 1 00299E11 1 00099E11 1 00099G11U1 99999K11 1 00069L11 1 01500N11 1 00000S11 1 00088V11 1 00199X11 1 18005
0075664220999991966071815004-15200+012150FM-12+004599999V0203601N00261004201CN0100001N9+01781+01391101401ADDAY121999GA1051+003009079GA2071+005409059GF107991071051004501999999MW1101
0057314390999991966061115004+52383+140467FM-12+003199999V0209991C00001220001CN0700001N9+01221+01111101061ADDAY111999GF103991031001999999031001MD1310031+9999MW1021
004672303013714196608202300D+35183-079017SAO  +0066POB  V0201901N001012200019N0112001N9+02961+02241999999ADDAA101000095GF107991999999999999999999MW1001
008583721099999196610300600N-23000-047133BRAZ +0661SBKP V02015019008219999999N020000199+01581+01401101481ADDAA101000091GA1081+030001031GF108991999999999999999999MA1101751094181MD1610131+9999
0050724457039381966071003004+37733-092150SAO  +0353TBN  V0209991C000012200019N0112001N9+02721+02111101481ADDGF102991999999999999999999MA1999999097391MW1001
027599999914819196601220700E+41783-087750SAO  +0187MDW  V0201805N001550061049N003200599-00335-00615999999ADDAA101000095GD14995+9999999GD20995+9999999GD30995+9999999GD40995+9999999GF108085999999999999999999MA1999999100145MW1045EQDN01 08200JPWTH 1QNNE11 1 00699E11 1 00099E11 1 00099E11 1 00099G11 1 00020K11 1 00021L11 1 00200M11 1 29570N11 1 08200S11 1 00026V11 1 01010X11 1 18003
0302722925931171966073009003+33017-118583SAO  +0051NUC  V0202405N001050021349N0080005N1+01565+01445101165ADDGA1081+002134074GD14085+9999999GD20995+9999999GD30995+9999999GD40995+9999999GF108085999999999999999999MA1999999100585MW1455EQDN01 07000JPWTH 1QNNE11 1 00610E11 1 00099E11 1 00099E11 1 00099G11 1 00007H11 1 16007K11 1 00058L11 1 00500M11 1 29700N11 1 07000Q11 1 10116S11 1 00060V11 1 01010X11 1 24002
0057235520999991966122412004+64917+077650FM-12+002799999V0202501N00871024001CN0200001N9-01891-02111104581ADDAY131999GF107991071001999999011001MD1710251+9999MW1361
0035722545999991966100516004+30200-097667SAO  +0165BSM  V0200101N005710051019N0240001N9+01801+01241999999ADDGF108991999999999999999999MW1801
0275999999147881966082001005+41583-071417SAO  +000999999V0202505N003652200059N008000599+02615+01725101305ADDGD13995+9999999GD20995+9999999GD30995+9999999GD40995+9999999GF106065999999999999999999MA1999999101225MW1055EQDN01 08100JPWTH 1QNNE11 1 00499E11 1 00099E11 1 00099E11 1 00099G11C1 99999K11 1 00063L11 1 00500M11 1 29890N11 1 08100Q11 1 10130S11 1 00079V11 1 00807X11 1 25007
017699999913893196611102100E+35050-089983SAO  +007999999V0203005N004652200059N024000599+01285+00505101585ADDAA101000095GF100005999999999999999999MA1999999100585EQDN01 00000JPWTH 1QNNG11U1 99999K11 1 00041L11 1 01500M11 1 29700N11 1 00000Q11 1 10158S11 1 00055V11 1 00000X11 1 30009
0377999999147931966051618005+40200-075150SAO  +0102NXX  V0201305N004652200059N016000599+01945+00565101675ADDGA1999+042674034GA2999+999999024GA3999+999999999GA4999+999999999GD12025+9999999GD23075+9999999GD30005+9999999GD40005+9999999GF107065999999999999999999MA1999999100475EQDN01 00000JPWTH 1QNNE11 1 00202E11 1 00409E11 1 00000E11 1 00000G11C1 99999H11 1 23140H11C1 37999H11 1 00999H11 1 00999K11 1 00042L11 1 01000M11 1 29670N11 1 00000Q11 1 10167S11 1 00067V11 1 00908X11 1 13009
017699999924131196604241800E+43567-116217SAO  +087199999V02099959000052200059N048000599+01675-00065102435ADDAA101000095GF100005999999999999999999MA1999999092385EQDN01 00000JPWTH 1QNNG11U1 99999K11 1 00031L11 1 03000M11 1 27280N11 1 00000Q11 1 10243S11 1 00062V11 1 00000X11 1 00000
0035042310999991966010920004+67017-050800SAO  +0050BGSF V0200701N002112200019N0240001N1-03641-04141999999ADDGF100991999999999999999999MW1001
0050723526999991966080409004+35333-099200SAO  +0589KCSM V0201801N001512200019N0192001N9+01911+01301101341ADDGF102991999999999999999999MA1999999094721MW1001
0043679710999991966030904004+20283+030083FM-12+097699999V0202901N00151090001CN0500001N9+01831+01781999999ADDAY121999GF105991011001999999031021MW1021
0057306360999991966051221004+53617+109633FM-12+048699999V0202501N00871012301CN0200001N9+00501+00001100941ADDAY121999GF108991081051012501999999MD1710041+9999MW1031
0035724088137071966080302004+39133-075467SAO  +0009KDOV V0202201N007210300019N0160001N9+02521+02021999999ADDGF108991999999999999999999MW1801
0109683380999991966011308004+26950+024633FM-12+125099999V0201401N00151220001CN0550001N9+02611+00061999999ADDAA124000091AY121999GF100991999999999999999999KA1999M+03781KA2999N+01781MA1999999087491MD1110111+9999MW1021
0057401910999991966080812004+31233+034783FM-12+028099999V0203001N00671220001CN0150001N9+03391+00891100661ADDAY101999GF100991001001999999001001MD1710091+9999MW1051
0057160800999991966092500004+45433+009283FM-12+010399999V0209991C00001220001CN0050001N9+01391+01281101951ADDAY101999GF100991001001999999001001MD1110031+9999MW1101
0057156140999991966063003004+42817+023383FM-12+058899999V0202901N00311012301CN0040001N9+01281+01001101131ADDAY111999GF107991071081012501001001MD1210141+9999MW1101
0050488700999991966052112004+13767+109217SAO  +0006VVQN V0203301N004110075019N0112001N1+02681+02411100551ADDGF108991999999999999999999MA1999999100541MW1801
0057253250999991966112818004+66550+159417FM-12+012599999V0209991C00001220001CN0100001N9-03111-03281100821ADDAY101999GF100991001001999999001001MD1210051+9999MW1021
0043854700999991966032818004-27333-070317FM-12+037099999V0202701N00261220001CN0500001N9+02001+01391999999ADDAY101999GF100991001001999999001001MW1021
0269999999947251966031406005+44933-074850SAO  +0067MSS  V0202105N001552200059N024000599-00674-00945102554ADDGD11995+9999993GD20995+9999999GD30995+9999999GD40995+9999999GF102015999999999999999999MA1999999101764EQDN01 00000JPWTH 1QNNE11 1 00199E11 1 00099E11 1 00099E11 1 00099G11U1 99999K11 1 00015L11 1 01500M11 1 30050N11 1 00000Q11 1 10255S11 1 00020V11 1 00201X11 1 21003
0269999999947251966032112005+44933-074850SAO  +0067MSS  V0202605N003150061049N024000599+00064-00225102284ADDGD13995+9999999GD24995+9999999GD30995+9999999GD40995+9999999GF108085999999999999999999MA1999999101494EQDN01 00000JPWTH 1QNNE11 1 00499E11 1 00699E11 1 00099E11 1 00099G11 1 00020K11 1 00028L11 1 01500M11 1 29970N11 1 00000Q11 1 10228S11 1 00033V11 1 01010X11 1 26006
0056107340999991966020221004+49400+008650SAO  +0109EDIE V0201701N001510003019N0000001N9+00411+00411101861ADDGF108991999999999999999999MA1999999100471MW1051MW2451
0082107140999991966021123004+49217-007400SAO  +0345EDAM V0200201N003610012019N0016001N9+00611+00561099601ADDGA1061+001209079GA2021+004509059GF108991999999999999999999MA1999999095531MW1451
0238911700225081966070201003+21483-158033SAO  +0252HHI  V0200705N005252200059N0240005N9+02675+01895999999ADDGD12995+9999999GD22995+9999999GD32995+9999999GD40995+9999999GF104995999999999999999999MW1001EQDN01 00000JPWTH 1QNNE11 1 00299E11 1 00299E11 1 00299E11 1 00099G11U1 99999K11 1 00066L11 1 01500N11 1 00000S11 1 00080V11 1 00599X11 1 07010
0066718560999991966061309004+50633-097050SAO  +0221CYGM V0203381N001510018019N0128001N1+01301+01191100561ADDGA1081+001809079GF108991999999999999999999MA1999999097901MW1511
0182722630230341966063006003+31367-100500SAO  +0582SJT  V0201805N003652200059N0240005N1+02565+01285101165ADDAA101000095GF100005999999999999999999MA1999999094685MW1001EQDN01 00000JPWTH 1QNNG11U1 99999K11 1 00055L11 1 01500M11 1 27960N11 1 00000Q11 1 10116S11 1 00078V11 1 00000X11 1 18007
0123317070999991966092900004+47733+130967FM-12+007499999V0209991C00001220001CN0700001N9+00611+00221100891ADDAA199000091AJ100009199999999AY101999GF100991001001999999001001HL10009IA1009IA2999-00119KA1999N+00111MD1710021+9999MW1021
0047722586999991966042805004+33717-096667SAO  +0233PNX  V0203601N003110066019N0192001N1+02021+01741999999ADDGF108991999999999999999999MW1171MW2801MW3951
0082711200999991966060517004+54417-110283SAO  +0541CYOD V0203201N006210072019N0240001N9+00851+00241101611ADDGA1061+007209089GA2021+075009009GF108991999999999999999999MA1999999095091MW1801
028099999914942196603310800E+41300-095900SAO  +0304OMA  V0201505N003652200059N016000599+00945+00285100315ADDAA101000095GD12995+9999999GD23995+9999993GD30995+9999999GD40995+9999999GF106025999999999999999999MA1999999096825EQDN01 00000JPWTH 1QNNE11 1 00299E11 1 00399E11 1 00099E11 1 00099G11U1 99999K11 1 00037L11 1 01000M11 1 28590N11 1 00000Q11 1 10031S11 1 00049V11 1 00703X11 1 15007
0067749477999991966071709004+33417-115833SAO  +000099999V0200301N005110045019N0112001N1+01411+01351101121ADDGA1021+002409039GA2071+004509049GF108991999999999999999999MW1001
010694576099999196603130200N-27470+153030AUST +0074     V0200685N002659999999N999999999+02675+01905999999ADDAY144999GA1055+007505085GA2005+999999999GA3035+999999999GF108995054085007505999075MA1999999101055MW1045
0377999999405041966052021005+06967+158217SAO  +003699999V0202105N002150457249N024000599+02445+02395100915ADDGA1999+006104084GA2999+045724034GA3999+999999024GA4999+999999999GD12015+9999999GD23065+9999999GD34085+9999999GD40005+9999999GF108075999999999999999999MA1999999100375EQDN01 00000JPWTH 1QNNE11 1 00201E11 1 00407E11 1 00610E11 1 00000G11 1 00150H11 1 11020H11 1 23150H11C1 37999H11 1 00999K11 1 00075L11 1 01500M11 1 29640N11 1 00000Q11 1 10091S11 1 00076V11 1 01009X11 1 21004
0043064510999991966100707004+50900+004500FM-12+003999999V0201801N00411220001CN0100001N9+01221+01001101651ADDAY101999GF104991021001999999031021MW1021
0238722210138581966030308003+30483-086517SAO  +0020VPS  V0201305N005250012249N0112005N9+01725+01565999999ADDGD14995+9999999GD20995+9999999GD30995+9999999GD40995+9999999GF108995999999999999999999MW1001EQDN01 00000JPWTH 1QNNE11 1 00699E11 1 00099E11 1 00099E11 1 00099G11 1 00004K11 1 00060L11 1 00700N11 1 00000S11 1 00063V11 1 01099X11 1 13010
0269999999128501966011717005+24583-081683SAO  +0007NQX  V0200205N007752200059N016000599+01615+01175102245ADDGD11995+9999993GD20995+9999999GD30995+9999999GD40995+9999999GF104025999999999999999999MA1999999102175EQDN01 00000JPWTH 1QNNE11 1 00199E11 1 00099E11 1 00099E11 1 00099G11U1 99999K11 1 00053L11 1 01000M11 1 30170N11 1 00000Q11 1 10224S11 1 00061V11 1 00502X11 1 02015
0050479350999991966070103004+26300+127767SAO  +0008ROHF V0202201N012310030019N0112001N1+02741+02521100361ADDGF108991999999999999999999MA1999999100271MW1801
0069483570999991966112411004+17367+104650SAO  +0176VTUP V0201101N001012200019N0240001N1+02681+01911101051ADDGF108991999999999999999999MA1999999099081MW1001EQDQ01+999990APOSP 
0056471320999991966090615004+36450+127433SAO  +0040RKTD V0209991C000010063019N0096001N1+02301+02181101021ADDGF108991999999999999999999MA1999999100241MW1451MW2611
0035724096147061966121602004+40000-074583SAO  +0041WRI  V0203301N003112200019N0160931N9-00111-00501999999ADDGF100991999999999999999999MW1001
0089102240999991966121515004+53050+008783FM-12+000499999V0209991V00101002101CN0035001N9+00111-00111102151ADDAY181999GA1021+001509079GA2081+002109079GF108991081071001501999999MD1210141+9999MW1771
0269999999240271966092821005+41600-109067SAO  +2057RKS  V0203105N009852200059N080000599+01895+00005101565ADDGD13995+9999993GD20995+9999999GD30995+9999999GD40995+9999999GF106025999999999999999999MA1999999079615EQDN01 00000JPWTH 1QNNE11 1 00399E11 1 00099E11 1 00099E11 1 00099G11U1 99999K11 1 00032L11 1 05000M11 1 23510N11 1 00000Q11 1 10156S11 1 00066V11 1 00702X11 1 31019
0057274280999991966101121004+56400+038750FM-12+018599999V0209991C00001220001CN0450001N9-00391-00611102901ADDAY101999GF100991001001999999001001MD1210121+9999MW1021
0275999999424021966081915005+99999+999999SAO  +999999999V0200905N007250061049N011200599+02675+02505101005ADDGD13995+9999999GD20995+9999999GD30995+9999999GD40995+9999999GF106065999999999999999999MA1999999101025MW1805EQDN01 02300JPWTH 1QNNE11 1 00499E11 1 00099E11 1 00099E11 1 00099G11 1 00020K11 1 00077L11 1 00700M11 1 29830N11 1 02300Q11 1 10100S11 1 00080V11 1 00808X11 1 09014
0269723810231141966021715003+34917-117900SAO  +0706EDW  V0203005N002152200059N1120005N9-00445-00895102055ADDGD10995+9999999GD20995+9999999GD30995+9999999GD40995+9999999GF100995999999999999999999MA1999999093775EQDN01 00000JPWTH 1QNNE11 1 00099E11 1 00099E11 1 00099E11 1 00099G11U1 99999K11 1 00016L11 1 07000M11 1 27690N11 1 00000Q11 1 10205S11 1 00024V11 1 00099X11 1 30004
0050489400999991966110803004+17950+102567SAO  +0171VLVT V0200451N001012200019N0096001N1+02411+01911101771ADDGF100991999999999999999999MA1999999099391MW1051
0269999999938371966120111005+30233-081667SAO  +0009NIP  V0203005N002152200059N012800599+00224-00565102244ADDGD10995+9999999GD20995+9999999GD30995+9999999GD40995+9999999GF100005999999999999999999MA1999999102134EQDN01 00000JPWTH 1QNNE11 1 00099E11 1 00099E11 1 00099E11 1 00099G11U1 99999K11 1 00022L11 1 00800M11 1 30160N11 1 00000Q11 1 10224S11 1 00036V11 1 00000X11 1 30004
0050740430999991966020204004+65283-126800SAO  +0064CYVQ V0202701N001512200019N0160001N1-03751+99999102791ADDGF100991999999999999999999MA1999999101901MW1761
0275690190139101966041306003+32433-099850SAO  +0545DYS  V0200605N004652200059N0240005N9+01335+00725101235ADDGD10995+9999999GD20995+9999999GD30995+9999999GD40995+9999999GF100995999999999999999999MA1999999095025MW1001EQDN01 00000JPWTH 1QNNE11 1 00099E11 1 00099E11 1 00099E11 1 00099G11U1 99999K11 1 00045L11 1 01500M11 1 28060N11 1 00000Q11 1 10123S11 1 00056V11 1 00099X11 1 06009
0318999999138551966050315005+35383-086233SAO  +032999999V0200205N003659999999N999999999+01675+00175999999ADDGA1999+999999024GA2999+999999024GA3999+999999024GA4999+999999024GD14075+9999999GD24075+9999999GD34075+9999999GD44075+9999999GF107075999999999999999999EQDN01 99990FPRES 5QNNE11 1 00609E11 1 00609E11 1 00609E11 1 00609H11 1 37999H11 1 37999H11 1 37999H11 1 37999K11 1 00035M11 5 99990S11 1 00062V11 1 00909X11 1 02007
0377999999938321966112200005+99999+999999SAO  +999999999V0200305N002150045749N011200599+01334+01115102424ADDGA1999+004574064GA2999+999999999GA3999+999999999GA4999+999999999GD13065+9999999GD20005+9999999GD30005+9999999GD40005+9999999GF106065999999999999999999MA1999999102134EQDN01 00000JPWTH 1QNNE11 1 00408E11 1 00000E11 1 00000E11 1 00000G11 1 00015H11 1 15015H11 1 00999H11 1 00999H11 1 00999K11 1 00052L11 1 00700M11 1 30160N11 1 00000Q11 1 10242S11 1 00056V11 1 00808X11 1 03004
0057248170999991966063003004+61267+108017FM-12+027899999V0200901N00411021001CN0200001N9+01611+01111100711ADDAY161999GF107991071051022501001001MD1710081+9999MW1211
0035036553999991966031817004+51933-001250SAO  +0133EGUA V0200101N006212200019N0176001N9+00911-00311999999ADDGF102991999999999999999999MW1001
0187743920146111966072418003+43900-069933SAO  +0021NHZ  V0201905N004152200059N0112005N1+02335+01445102475ADDGA1001+999999999GF100005999999999999999999MA1999999102205MW1001EQDN01 00000JPWTH 1QNNG11U1 99999K11 1 00058L11 1 00700M11 1 30180N11 1 00000Q11 1 10247S11 1 00074V11 1 00000X11 1 19008
0081239140999991966102218004+60400+056517FM-12+020699999V0202501N00721220001CN0500001N9-01001-01221103341ADDAA199000091AY101999GF103991031001999999031001KA1999M-00501MD1610151+9999MW1031
0035747320999991966040714004+32850-106100SAO  +1248HMN  V0200701N001012200019N1120001N9+00581-01421999999ADDGF107991999999999999999999MW1001
0050471870999991966092921004+33200+126217SAO  +0013RKPM V0209991C000012200019N0112001N1+01351+01071101961ADDGF100991999999999999999999MA1999999101761MW1001
0057066800999991966051621004+47250+009350FM-12+249799999V0200401N00211220001CN0250001N9+00391-00221999999ADDAY181999GF103991021041002501001021MD1610021+9999MW1011
028099999923174196609301400E+33933-118383SAO  +003799999V0201005N001550198149N012800599+01945+01615101255ADDAA101000095GD13995+9999999GD20995+9999999GD30995+9999999GD40995+9999999GF106055999999999999999999MA1999999100885EQDN01 00000JPWTH 1QNNE11 1 00499E11 1 00099E11 1 00099E11 1 00099G11 1 00065K11 1 00061L11 1 00800M11 1 29790N11 1 00000Q11 1 10125S11 1 00067V11 1 00706X11 1 10003
0009749475999991966083013004+32883-106350SAO  +120699999V0200701N003119999999N0000001N1+99999+99999999999ADDMW1001
0035489125999991966080405004+10083+105717SAO  +000299999V0202701N005112200019N0112001N1+02911+02411100801ADDGF107991999999999999999999MW1001
0057400610999991966110103004+34550+038300FM-12+040499999V0209991C00001220001CN0300001N9+01221+00221101891ADDAY101999GF100991001001999999001001MD1310081+9999MW1021
0238727755241121966122220003+47517-111167SAO  +1056GFA  V0201905N004652200059N0720005N9+00065-00675999999ADDGD10995+9999999GD20995+9999999GD30995+9999999GD40995+9999999GF100995999999999999999999MW1001EQDN01 00000JPWTH 1QNNE11 1 00099E11 1 00099E11 1 00099E11 1 00099G11U1 99999K11 1 00020L11 1 04500N11 1 00000S11 1 00033V11 1 00099X11 1 19009
0050489570999991966082609004+14800+106833SAO  +0105VLAP V0209991C000012200019N0240001N1+03131+02411100541ADDGF107991999999999999999999MA1999999099051MW1001
