0043678570999991967112704004+19767+027750FM-12+111099999V0201201N00151045001CN0500001N9+01781+01611999999ADDAY121999GF108991011021004501061011MW1021
038899999914778196704040000E+41250-076917SAO  +0160IPT  V0203105N008852200059N024000599+00785-00565101935ADDAA101000095GA1999+015244064GA2999+999999999GA3999+999999999GA4999+999999999GD12025+9999999GD20005+9999999GD30005+9999999GD40005+9999999GF102025999999999999999999MA1999999100005EQDN01 00000JPWTH 1QNNE11 1 00203E11 1 00000E11 1 00000E11 1 00000G11U1 99999H11 1 15050H11 1 00999H11 1 00999H11 1 00999K11 1 00022L11 1 01500M11 1 29530N11 1 00000Q11 1 10193S11 1 00046V11 1 00303X11 1 31017
0068221450999991967121803004+68367+038483FM-12+999999999V0202301N00981220001CN0500001N9-01391-01611100551ADDAA106000091AY101999GF100991001001999999001001MD1210031+9999MW1021
0074166650999991967122415004+39217+022800FM-12+001599999V0202701N00771220001CN0150001N9+01611+00721999999ADDAY101999GA1011+012009089GF101991999999999999999999MA1101491999999MW1021
0275722655230051967070518003+32217-101517SAO  +0784BGS  V0201905N005752200059N0400005N1+03175+01445101015ADDGD14995+9999993GD20995+9999999GD30995+9999999GD40995+9999999GF108995999999999999999999MA1999999092415MW1001EQDN01 00000JPWTH 1QNNE11 1 00599E11 1 00099E11 1 00099E11 1 00099G11U1 99999K11 1 00058L11 1 02500M11 1 27290N11 1 00000Q11 1 10101S11 1 00089V11 1 01099X11 1 19011
0269999999231361967030503005+34217-119083SAO  +002099999V0203505N001552200059N024000599+00945+00335101345ADDGD12995+9999999GD20995+9999999GD30995+9999999GD40995+9999999GF102995999999999999999999MA1999999101025EQDN01 00000JPWTH 1QNNE11 1 00299E11 1 00099E11 1 00099E11 1 00099G11U1 99999K11 1 00038L11 1 01500M11 1 29830N11 1 00000Q11 1 10134S11 1 00049V11 1 00399X11 1 35003
0232726436949301967021511003+43933-090267SAO  +0280VOK  V0200505N005250051849N0160005N9-00395-00785999999ADDGD14995+9999999GD20995+9999999GD30995+9999999GD40995+9999999GF108995999999999999999999EQDN01 00000JPWTH 1QNNE11 1 00699E11 1 00099E11 1 00099E11 1 00099G11 1 00017K11 1 00018L11 1 01000N11 1 00000S11 1 00025V11 1 01099X11 1 05010
0092107630999991967041703004+49500+011083SY-SA+031899999V0200801N00051220001CN0100001N1+00111-00111102031ADDAY101031GA1021+075009009GF102991001001999999001011MD1710131+9999MW1021EQDQ01+000003PRSWM2
0057218240999991967120706004+71583+128917FM-12+000899999V0202301N02421000151CN0000501N9-02391-02611102391ADDAY131999GF109991091999000251999999MD1710081+9999MW1391
0067677810999991967020104004+17417+032217FM-12+124599999V0200601N00361220001CN0200001N9+01891+01781999999ADDAY101999GF102991021051002501001001MA1999999087651ME1315079MW1021
0269999999147861967121417005+40583-073883SAO  +0010NSC  V0202705N004150304849N024000599+00895+00005102295ADDGD13995+9999999GD24995+9999999GD30995+9999999GD40995+9999999GF108085999999999999999999MA1999999102175EQDN01 00000JPWTH 1QNNE11 1 00499E11 1 00699E11 1 00099E11 1 00099G11 1 00100K11 1 00032L11 1 01500M11 1 30170N11 1 00000Q11 1 10229S11 1 00048V11 1 01010X11 1 27008
034099999925309196702180000E+58367-134583SAO  +0006JNU  V0202305N002150115849N008000599-00445-00565100185ADDAA101000395GA1999+003664134GA2999+011584054GD12025+9999999GD24085+9999999GD30995+9999999GD40995+9999999GF108085999999999999999999MA1999999100105MW1715EQDN01 04000JPWTH 1QNNE11 1 00203E11 1 00610E11 1 00099E11 1 00099G11 1 00038H11 1 13012H11 1 22038K11 1 00022L11 1 00500M11 1 29560N11 1 04000Q11 1 10018S11 1 00024V11 1 01010X11 1 23004
0057355290999991967071112004+48217+057117FM-12+999999999V0200201N00311220001CN0500001N9+03111+01001100061ADDAY111999GF103991031021012501001001MD1610011+9999MW1011
0069471030999991967041914004+37967+124667SAO  +0193RKSP V0202901N006210001519N0000001N1+00461+00461101761ADDGF108991999999999999999999MA1999999099411MW1451EQDQ01+999990APOSP 
038899999912836196702241800E+24550-081750SAO  +0001EYW  V0200105N007752200059N024000599+01895+01115102245ADDAA101000095GA1999+012194064GA2999+999999004GA3999+999999999GA4999+999999999GD12025+9999999GD23065+9999993GD30005+9999999GD40005+9999999GF106025999999999999999999MA1999999102175EQDN01 00000JPWTH 1QNNE11 1 00202E11 1 00307E11 1 00000E11 1 00000G11U1 99999H11 1 15040H11C1 32999H11 1 00999H11 1 00999K11 1 00052L11 1 01500M11 1 30170N11 1 00000Q11 1 10224S11 1 00066V11 1 00703X11 1 01015
0377999999931151967100915005+32567-117117SAO  +000899999V0200705N002652200059N012800599+01334+00285101444ADDGA1999+999999004GA2999+999999999GA3999+999999999GA4999+999999999GD12015+9999999GD20005+9999999GD30005+9999999GD40005+9999999GF101015999999999999999999MA1999999101354EQDN01 00000JPWTH 1QNNE11 1 00201E11 1 00000E11 1 00000E11 1 00000G11U1 99999H11C1 32999H11 1 00999H11 1 00999H11 1 00999K11 1 00037L11 1 00800M11 1 29930N11 1 00000Q11 1 10144S11 1 00056V11 1 00101X11 1 07005
0269999999412311967020207005+14800+120267SAO  +0014RPMB V0200905N002650121949N024000599+02945+01725100995ADDGD13995+9999999GD23995+9999999GD30995+9999999GD40995+9999999GF107065999999999999999999MA1999999100815EQDN01 00000JPWTH 1QNNE11 1 00499E11 1 00499E11 1 00099E11 1 00099G11 1 00040K11 1 00063L11 1 01500M11 1 29770N11 1 00000Q11 1 10099S11 1 00085V11 1 00908X11 1 09005
0035691464999991967121902004+37000+035433SAO  +0073KQDG V0201901N001012200019N0240001N9+00691+00351999999ADDGF100991999999999999999999MW1001
009082193099999196705052100N-01383-048483BRAZ +0016SBBE V02003019999999999999N020000199+02571+02401100961ADDGA1021+006001231GA2071+030001041GF107991999999999999999999MA1100921100781MD1310071+9999
0035488926999991967121002004+11300+106783SAO  +0055VVPV V0200601N001012200019N0160001N1+02741+02181999999ADDGF107991999999999999999999MW1001
0050471180999991967081909004+37433+127950SAO  +0101RKNH V0209991C000010360019N0112001N1+02851+02241101691ADDGF108991999999999999999999MA1999999100511MW1001
0057153600999991967111900004+45150+029667FM-12+000399999V0202301N01591220001CN0100001N9+00721+00391101331ADDAY101999GF100991001001999999001001MD1710441+9999MW1021
0073306220999991967061806004+53967+105867FM-12+055499999V0202301N00411012901CN0200001N9+01891+00891100881ADDAY121999GA1061+012909059GF107991071081012501001021MD1810021+9999MW1031
0269999999137501967051017005+36950-076283SAO  +0010NGU  V0202705N007252200059N016000599+01725+00175101385ADDGD12995+9999999GD22995+9999999GD30995+9999999GD40995+9999999GF102025999999999999999999MA1999999101255EQDN01 00000JPWTH 1QNNE11 1 00299E11 1 00299E11 1 00099E11 1 00099G11U1 99999K11 1 00035L11 1 01000M11 1 29900N11 1 00000Q11 1 10138S11 1 00063V11 1 00303X11 1 27014
0057389540999991967071312004+37500+071500FM-12+208099999V0203601N00411021001CN0200001N9+02501+00721099091ADDAY111999GF105991051011022501001001MD1610081+9999MW1021
0035746930937371967122101004+35133-078933SAO  +0074FBG  V0200501N002110072019N0112001N9+01551+01331999999ADDGF108991999999999999999999MW1001
0080172800999991967111512004+37917+040200FM-12+067799999V0200101N00151220001CN0150001N9+01501+01111102031ADDAJ100009199999999AY101999GF102991001001999999001011IA1089MD1710151+9999MW1011
0035702315999991967031313004+62883-155967SAO  +0297PATL V0209991C000012200019N0240001N9-01201-02141999999ADDGF100991999999999999999999MW1001
0073602650999991967122612004+30933-006900FM-12+113699999V0209991C00001220001CN0300001N9+01001+00111999999ADDAY101999GA1041+069009009GF104991001001999999001021MD1810111+9999MW1031
0069483540999991967091722004+17367+102800SAO  +0181VTUD V0209991C000012200019N0160001N1+02461+01801100521ADDGF108991999999999999999999MA1999999098491MW1001EQDQ01+999990APOSP 
0275040180162011967021709003+63967-022600SAO  +0050BIKF V0200505N007252200059N0320005N1+00505+00175097265ADDGD12995+9999999GD22995+9999999GD30995+9999999GD40995+9999999GF102025999999999999999999MA1999999096615MW1001EQDN01 00000JPWTH 1QNNE11 1 00299E11 1 00299E11 1 00099E11 1 00099G11U1 99999K11 1 00035L11 1 02000M11 1 28530N11 1 00000Q11 1 09726S11 1 00041V11 1 00202X11 1 05014
0269722050128151967112503003+28450-081300SAO  +0032MC0  V0201905N004152200059N0160005N1+02285+01895101335ADDGD10995+9999999GD20995+9999999GD30995+9999999GD40995+9999999GF100995999999999999999999MA1999999100985EQDN01 00000JPWTH 1QNNE11 1 00099E11 1 00099E11 1 00099E11 1 00099G11U1 99999K11 1 00066L11 1 01000M11 1 29820N11 1 00000Q11 1 10133S11 1 00073V11 1 00099X11 1 19008
0035722586999991967050604004+33717-096667SAO  +0233PNX  V0201701N006210024019N0064001N1+02241+01911999999ADDGF108991999999999999999999MW1111
0092277070999991967100621004+54117+035333FM-12+020399999V0201801N00721006301CN0150001N9+01001+00721101571ADDAY121999GA1081+006309059GF199999071051008001001001MD1810021+9999MW1021EQDQ01+000072SCOTCV
0035476600999991967121013004+35700+139400SAO  +0098RJTC V0209991C000012200019N0112001N1+00021-00261999999ADDGF100991999999999999999999MW1001
0108357460999991967122806004+46783+061667FM-12+005699999V0200901N00101004801CN0100001N9-00611-00781103091ADDAA106008091AA299002091AY171999GA1081+004809049GF108991081001004501021999KA1999N-01001MD1710011+9999MW1701
004674780499999196710181300D+32017-081133SAO  +0017SVN  V0202701N006712200019N0240001N9+01351+00911999999ADDAA101000095GF100991999999999999999999MW1001
0057172920999991967071915004+37200+028350FM-12+064699999V0203601N00261220001CN0250001N9+03221+01001100461ADDAY121999GF100991001001999999001001MD1610041+9999MW1011
0050727435999991967020121004+46350-087400SAO  +0375SAW  V0200101N004110090019N0192001N9-00721-01111102091ADDGF108991999999999999999999MA1999999097431MW1851
0076152920999991967121618004+45417+022250FM-12+024299999V0209991C000019999999N0040001N9-00721-00721102241ADDAY121999GF107991071999999999999999IA1209KA1999M-00611MD1710051+9999MW1101
0069488926999991967052602004+11300+106783SAO  +0055VVPV V0202601N003612200019N0160001N1+02961+02521100551ADDGF108991999999999999999999MA1999999099931MW1001EQDQ01+999990APOSP 
004674754013934196701021400D+31317-092550SAO  +0027KAEX V0209991C000010180019N0096001N9+00301+00081999999ADDAA101000095GF107991999999999999999999MW1051
0377999999127131967020221005+25267-076300SAO  +0010MYEM V0201005N005752200059N016000599+02445+01615101975ADDGA1999+006714084GA2999+999999004GA3999+999999999GA4999+999999999GD12015+9999999GD22015+9999999GD30005+9999999GD40005+9999999GF102025999999999999999999MA1999999101865EQDN01 00000JPWTH 1QNNE11 1 00201E11 1 00201E11 1 00000E11 1 00000G11U1 99999H11 1 11022H11C1 32999H11 1 00999H11 1 00999K11 1 00061L11 1 01000M11 1 30080N11 1 00000Q11 1 10197S11 1 00076V11 1 00202X11 1 10011
0269999999116301967102305005+18250-065633SAO  +001199999V0200805N001052200059N019200599+02725+02395101425ADDGD12995+9999999GD20995+9999999GD30995+9999999GD40995+9999999GF101015999999999999999999MA1999999101325EQDN01 00000JPWTH 1QNNE11 1 00299E11 1 00099E11 1 00099E11 1 00099G11U1 99999K11 1 00075L11 1 01200M11 1 29920N11 1 00000Q11 1 10142S11 1 00081V11 1 00101X11 1 08002
038899999922536196702231500E+21983-159350SAO  +0031LIH  V0200505N006250067149N024000599+02175+01725101785ADDAA101000095GA1999+006714084GA2999+015244064GA3999+999999004GA4999+999999999GD13065+9999999GD23015+9999999GD33005+9999999GD40005+9999999GF106065999999999999999999MA1999999101255EQDN01 00000JPWTH 1QNNE11 1 00407E11 1 00401E11 1 00400E11 1 00000G11 1 00022H11 1 11022H11 1 15050H11C1 32999H11 1 00999K11 1 00063L11 1 01500M11 1 29900N11 1 00000Q11 1 10178S11 1 00071V11 1 00808X11 1 05012
0035489300999991967102708004+19883+102133SAO  +0305VLLB V0200601N001510120019N0160001N1+02911+01911999999ADDGF108991999999999999999999MW1001
0057235780999991967072609004+64267+087617FM-12+999999999V0202501N00101075001CN0500001N9+02281+01391100161ADDAY121999GF106991041021008001001021MD1410001+9999MW1021
0275727575949251967082600003+47967-097400SAO  +0276RDR  V0203205N004152200059N0192005N9+02225+00505101855ADDGD12995+9999999GD22995+9999999GD34995+9999999GD40995+9999999GF108995999999999999999999MA1999999098515MW1001EQDN01 00000JPWTH 1QNNE11 1 00299E11 1 00299E11 1 00699E11 1 00099G11C1 99999K11 1 00041L11 1 01200M11 1 29090N11 1 00000Q11 1 10185S11 1 00072V11 1 01099X11 1 32008
0035691464999991967091523004+37000+035433SAO  +0073KQDG V0200401N001512200019N0176001N9+02071+01691999999ADDGF100991999999999999999999MW1001
031399999923188196710211200E+32733-117167SAO  +0011MYF  V0201405N001550048849N008000599+01895+01445101665ADDAA101000095GA1999+004884074GD14085+9999999GD20995+9999999GD30995+9999999GD40995+9999999GF108085999999999999999999MA1999999101565MW1055EQDN01 08100JPWTH 1QNNE11 1 00610E11 1 00099E11 1 00099E11 1 00099G11 1 00016H11 1 16016K11 1 00058L11 1 00500M11 1 29990N11 1 08100Q11 1 10166S11 1 00066V11 1 01010X11 1 14003
0082107140999991967041121004+49217-007400SAO  +0345EDAM V0201801N001510180019N0240001N9+00891+00331101781ADDGA1051+018009059GA2021+066009009GF107991999999999999999999MA1999999097661MW1001
0009749475999991967121611004+32883-106350SAO  +120699999V0209991C000019999999N0000001N1+99999+99999999999ADDMW1001
0377999999938361967092421005+31250-081467SAO  +0009NEA  V0201305N002652200059N011200599+02614+01115101364ADDGA1999+999999004GA2999+999999999GA3999+999999999GA4999+999999999GD12045+9999999GD20005+9999999GD30005+9999999GD40005+9999999GF104045999999999999999999MA1999999101254EQDN01 00000JPWTH 1QNNE11 1 00205E11 1 00000E11 1 00000E11 1 00000G11U1 99999H11C1 32999H11 1 00999H11 1 00999H11 1 00999K11 1 00052L11 1 00700M11 1 29900N11 1 00000Q11 1 10136S11 1 00079V11 1 00505X11 1 13005
0269999999937271967072804005+34700-077383SAO  +0005NCA  V0202405N001052200059N011200599+02504+02335101484ADDGD11995+9999993GD20995+9999999GD30995+9999999GD40995+9999999GF102015999999999999999999MA1999999101354EQDN01 00000JPWTH 1QNNE11 1 00199E11 1 00099E11 1 00099E11 1 00099G11U1 99999K11 1 00074L11 1 00700M11 1 29930N11 1 00000Q11 1 10148S11 1 00077V11 1 00301X11 1 24002
0232471410432191967121221002+35900+126617SAO  +001099999V0202805N003650152449N019200599+00395-00115999999ADDGD13995+9999999GD23995+9999999GD30995+9999999GD40995+9999999GF107995999999999999999999EQDN01 00000JPWTH 1QNNE11 1 00499E11 1 00499E11 1 00099E11 1 00099G11 1 00050K11 1 00030L11 1 01200N11 1 00000S11 1 00039V11 1 00999X11 1 28007
033499999914778196712232100E+41250-076917SAO  +0160IPT  V0202905N008250137249N024000599+00005-00895102255ADDAA101000095GA1999+006104064GA2999+013724064GD12025+9999999GD24065+9999999GD30995+9999999GD40995+9999999GF108085999999999999999999MA1999999100275EQDN01 00000JPWTH 1QNNE11 1 00202E11 1 00608E11 1 00099E11 1 00099G11 1 00045H11 1 15020H11 1 15045K11 1 00016L11 1 01500M11 1 29610N11 1 00000Q11 1 10225S11 1 00032V11 1 01010X11 1 29016
0057234720999991967032306004+65783+087950FM-12+003299999V0209991C00001220001CN0210001N9-01391-01781101781ADDAY101999GF100991001001999999001001MD1710161+9999MW1021
038899999924149196712111800E+46383-117017SAO  +043399999V0203005N008250274349N048000599+00335-00675102235ADDAA101000095GA1999+010674084GA2999+027434034GA3999+999999999GA4999+999999999GD12025+9999999GD23035+9999999GD30005+9999999GD40005+9999999GF105045999999999999999999MA1999999096955EQDN01 00000JPWTH 1QNNE11 1 00202E11 1 00404E11 1 00000E11 1 00000G11 1 00090H11 1 11035H11 1 23090H11 1 00999H11 1 00999K11 1 00020L11 1 03000M11 1 28630N11 1 00000Q11 1 10223S11 1 00038V11 1 00605X11 1 30016
0029744900147021967041316004+42467-071283SAO  +0045BED  V0202101N003612200019N0480001N9+00851-00921999999ADDGF100991999999999999999999
0050722730031241967041002004+31583-110333SAO  +1422FHU  V0202701N002112200019N1120001N9+01831-01001101141ADDGF100991999999999999999999MA1999999085681MW1001
0009718670999991967092122004+53967-101100SAO  +0271CYQD V0202701N004619999999N0000001N1+99999+99999999999ADDMW1001
0081259540999991967042712004+60350+166000FM-12+999999999V0202701N00871220001CN0500001N9-01001-01391099581ADDAA199000091AY131999GF101991011001017501041001KA1999M+00001MD1410001+9999MW1021
0377999999931011967090209005+33667-117733SAO  +0116NZJ  V02099959000050304849N016000599+02394+02005101024ADDGA1999+030484034GA2999+999999004GA3999+999999999GA4999+999999999GD13065+9999999GD23025+9999999GD30005+9999999GD40005+9999999GF107075999999999999999999MA1999999099704EQDN01 00000JPWTH 1QNNE11 1 00407E11 1 00402E11 1 00000E11 1 00000G11 1 00100H11 1 23100H11C1 32999H11 1 00999H11 1 00999K11 1 00068L11 1 01000M11 1 29440N11 1 00000Q11 1 10102S11 1 00075V11 1 00909X11 1 00000
0238722655230051967071810003+32217-101517SAO  +0784BGS  V0201505N003152200059N0320005N1+02175+01005999999ADDGD12995+9999999GD24995+9999999GD30995+9999999GD40995+9999999GF108995999999999999999999MW1001EQDN01 00000JPWTH 1QNNE11 1 00299E11 1 00699E11 1 00099E11 1 00099G11C1 99999K11 1 00050L11 1 02000N11 1 00000S11 1 00071V11 1 01099X11 1 15006
0057336310999991967040303004+48633+022267FM-12+011899999V0203401N00211220001CN0100001N9+01001-00221101821ADDAY101999GF100991001001999999001001MD1810021+9999MW1021
0082716280999991967082819004+45317-075667SAO  +0126CYOW V0202481N005110300019N0240001N1+02241+01411100861ADDGA1031+010809089GA2041+030009039GF107991999999999999999999MA1999999099361MW1001
0057151500999991967103112004+46583+026983FM-12+018399999V0201801N00411004501CN0040001N9+01501+01391101221ADDAY151999GF108991081061004501999999MD1710151+9999MW1101
0029742060242071967090323004+47150-122483SAO  +0098TCM  V0203101N004112200019N0321871N9+02611+01111999999ADDGF100991999999999999999999
0094685880999991967120506004+29967+030950FM-12+000899999V0202301N00151036001CN0300001N9+02281+01781101831ADDAA124000091AY121999GF107991011011008001071999KA1999M+02561KA2999N+01941MD1310071+9999MW1021
0035724088137071967031805004+39133-075467SAO  +0009KDOV V0203401N006212200019N0160001N9-00501-01501999999ADDGF102991999999999999999999MW1001
0238722210138581967093004003+30483-086517SAO  +0020VPS  V0203305N002152200059N0224005N9+01115+00445999999ADDGD10995+9999999GD20995+9999999GD30995+9999999GD40995+9999999GF100995999999999999999999MW1001EQDN01 00000JPWTH 1QNNE11 1 00099E11 1 00099E11 1 00099E11 1 00099G11U1 99999K11 1 00040L11 1 01400N11 1 00000S11 1 00052V11 1 00099X11 1 33004
0070167430999991967030718004+36133+023000FM-12+016799999V0200401N00511220001CN0150001N9+00891+00721102731ADDAY101999GF101991011011012501001001KA1999M+01111MD1210151+9999MW1011
0057315380999991967010203004+50067+132133FM-12+031499999V0209991C00001220001CN0500001N9-03281-03611102391ADDAY101999GF100991001001999999001001MD1810081+9999MW1021
0092229120999991967071118004+60983+032950FM-12+001199999V0202501N00511030001CN0350001N9+01891+01391100841ADDAA106075091AA224999999AY181999GF107991041031004501091001KA1999M+02391MD1510041+9999MW1031
0057162060999991967043000004+42750+011067FM-12+000799999V0209991C00001220001CN0120001N9+00891+00721101801ADDAY101999GF100991001001999999001001MD1210071+9999MW1021
0009718670999991967081214004+53967-101100SAO  +0271CYQD V0201801N004119999999N0000001N1+99999+99999999999ADDMW1001
0243999999432141967061913005+36450+127433SAO  +0040RKTD V02099959000050079249N011200599+02115+01895101085ADDGD13995+9999999GD20995+9999999GD30995+9999999GD40995+9999999GF106995999999999999999999EQDN01 00000JPWTH 1QNNE11 1 00499E11 1 00099E11 1 00099E11 1 00099G11 1 00026K11 1 00066L11 1 00700N11 1 00000Q11 1 10108S11 1 00070V11 1 00899X11 1 00000
0057470080999991967103121004+41783+129650FM-12+009099999V0209991C00001007801CN0100001N9+00721+00281102851ADDAY161999GF108991061051008001031999MD1210091+9999MW1021
0057323630999991967031606004+56100+158883FM-12+999999999V0200501N002119999999N0500001N9-01001-02001100011ADDAY121999GF108991031001999999041071MD1310081+9999MW1021
0035488750999991967022114004+12683+108083SAO  +0537VVSB V0200901N004612200019N0112001N1+02241+01911101011ADDGF102991999999999999999999MW1001
0057878030999991967071818004-42917-071133FM-12+078599999V0203201N004119999999N0500001N9+00391-00391999999ADDAY111999GF105991021081012501001041MD1410001+9999MW1021
0050724550139471967051900004+39050-096767SAO  +0324FRI  V0202201N005110180019N0200001N9+03161+00781100471ADDGF107991999999999999999999MA1999999096721MW1171
004394999900340196703252300N-41080+145770AUST +0152     V0201355N002659999999N999999999+01395+99999999999ADDAY154999GF104995999999999999999999MW1025
0057166670999991967010815004+39067+026550FM-12+000599999V0202501N00671090001CN0300001N9+01221-00111101331ADDAY111999GF105991031081002501001021MD1210151+9999MW1031
0238747910137171967032802003+33683-078933SAO  +0008MYR  V0200805N004650457249N0096005N9+01395+01225999999ADDGD14995+9999999GD20995+9999999GD30995+9999999GD40995+9999999GF108995999999999999999999MW1055EQDN01 08100JPWTH 1QNNE11 1 00699E11 1 00099E11 1 00099E11 1 00099G11 1 00150K11 1 00054L11 1 00600N11 1 08100S11 1 00057V11 1 01099X11 1 08009
0269999999414061967082719005+13483+144800SAO  +0076PGUM V0200505N001052200059N024000599+02445+02285100845ADDGD12995+9999999GD22995+9999999GD33995+9999993GD40995+9999999GF106025999999999999999999MA1999999099805EQDN01 00000JPWTH 1QNNE11 1 00299E11 1 00299E11 1 00399E11 1 00099G11U1 99999K11 1 00073L11 1 01500M11 1 29470N11 1 00000Q11 1 10084S11 1 00076V11 1 00703X11 1 05002
0275999999147861967012023005+40583-073883SAO  +0010NSC  V0202405N003152200059N008000599+00225-00335102835ADDGD11995+9999993GD20995+9999999GD30995+9999999GD40995+9999999GF102015999999999999999999MA1999999102715MW1045EQDN01 08200JPWTH 1QNNE11 1 00199E11 1 00099E11 1 00099E11 1 00099G11U1 99999K11 1 00026L11 1 00500M11 1 30330N11 1 08200Q11 1 10283S11 1 00036V11 1 00301X11 1 24006
009094980099999196709190200N-40100+148000AUST +0009     V0202255N010359999999N999999999+01145+00405999999ADDAY114999GA1045+007505065GA2045+999999045GF106995044045007505025999MA1999999100325MW1035
0073275390999991967041312004+55617+040483FM-12+013599999V0202701N00621004201CN0400001N9+00391+00001102181ADDAY121999GA1081+004209059GF108991081051004501999999MD1710011+9999MW1021
0057383410999991967010600004+42850+071383FM-12+064299999V0202301N00411220001CN0100001N9-01001-01501103541ADDAY101999GF102991001001999999001021MD1210111+9999MW1021
0070854170999991967121900004-20200-070133FM-12+000899999V0209991C00001220001CN0200001N9+02001+01281101341ADDAY111999GF102991001001999999001011KA1999M+02221MD1310021+9999MW1011
010694287599999196712180500N-16920+145770AUST +0007YBCS V0201355N001059999999N999999999+02925+02305999999ADDAY124999GA1025+007505085GA2015+015005065GA3045+999999045GF106995024025007505035999MA1999999100825MW1025
0207999999261141967050406005+68933-116917SAO  +001799999V02013559002650243849N024000599-00065+99999100255ADDGA1999+024384034GD19065+9999999GF106055999999999999999999MA1999999100245EQDN01 00000JPWTH 1QNNE11 1 09907G11 1 00080H11 1 23080L11 1 01500M11 1 29600N11 1 00000Q11 1 10025S11 1 00031V11 1 00706W11 1 44005
0057854880999991967080918004-29883-071233FM-12+003299999V0209991C00001001501CN0020001N9+01001+00891102101ADDAY151999GF108991081061001501001001MD1410001+9999MW1051
0035471204999991967072201004+37033+126750SAO  +0015RKSN V0201201N004610210019N0160001N1+02801+02521999999ADDGF108991999999999999999999MW1001
0073266290999991967082303004+54883+023883FM-12+007599999V0202901N00411003601CN0100001N9+01221+01111101311ADDAY121999GA1081+003609059GF108991081051004501999999MD1410001+9999MW1031
0057100040999991967060500004+54267+007200FM-12+000399999V0203101N00931220001CN0200001N9+01221+01001102121ADDAY111999GF101991999999999999999999MD1710031+9999MW1011
007494212099999196704070100N-18230+127670AUST +0424     V0200685N005159999999N999999999+02875+00705999999ADDAY124999GA1005+999999999GF100995004999999999999999MA1999999096895MW1025
031972256013959196701211500B+31617-097217SAO  +0157ACT  V0201705N005250009149N001600599+01175+00895101905ADDAA101000095GA1999+000914074GD14085+9999999GD20995+9999999GD30995+9999999GD40995+9999999GF108085999999999999999999MA1999999100075MW1455MW2515EQDN01 03370JPWTH 1QNNE11 1 00610E11 1 00099E11 1 00099E11 1 00099G11 1 00003H11 1 16003K11 1 00048L11 1 00100M11 1 29550N11 1 03370Q11 1 10190S11 1 00053V11 1 01010X11 1 17010
0050471060999991967020821004+37750+127050SAO  +0056RKSB V0203601N001012200019N0112001N9-00421-00651102801ADDGF102991999999999999999999MA1999999102071MW1001
0057854420999991967111209004-23450-070417FM-12+011199999V0209991C00001004501CN0200001N9+01391+01111101501ADDAY121999GF108991081051004501999999MD1310061+9999MW1021
0121804030999991967032112004+11417-069667FM-12+002199999V0209991C00001030001CN0200001N9+02391+02111101641ADDAY111999GA1999+006909049GA2081+030009019GF199999041081008001031999KA1999N+02281MD1310101+9999MW1031EQDQ01+000072SCOTCV
0092266290999991967040812004+54883+023883FM-12+007599999V0201801N00621004801CN0040001N9+00611+00391101781ADDAY161999GA1071+004809079GF108991999071004501021999MD1210061+9999MW1611EQDQ01+000082SCOTLC
0218999999261141967083018005+68933-116917SAO  +001799999V02009059001550061049N024000599+00565+00445100785ADDGA1999+006104064GD19065+9999999GF106065999999999999999999MA1999999100785EQDN01 00000JPWTH 1QNNE11 1 09908G11 1 00020H11 1 15020K11 1 00040L11 1 01500M11 1 29760N11 1 00000Q11 1 10078S11 1 00042V11 1 00808W11 1 33003
0057359690999991967072912004+45250+067067FM-12+013899999V0200701N00621220001CN0500001N9+03611+00721100881ADDAY101999GF100991001001999999001001MD1710121+9999MW1021
0069471030999991967100204004+37967+124667SAO  +0193RKSP V0209991C000012200019N0112001N1+01911+01021102371ADDGF100991999999999999999999MA1999999100111MW1001EQDQ01+999990APOSP 
0035042310999991967051204004+67017-050800SAO  +0050BGSF V0209991C000010135019N0240001N1+00521+00081999999ADDGF108991999999999999999999MW1001
017699999913897196712130600E+36117-086683SAO  +018399999V0201205N002652200059N024000599+00615+00175101785ADDAA101000095GF100005999999999999999999MA1999999099595EQDN01 00000JPWTH 1QNNG11U1 99999K11 1 00035L11 1 01500M11 1 29410N11 1 00000Q11 1 10178S11 1 00043V11 1 00000X11 1 12005
0059610360999991967123115004+14200+001617FM-12+021099999V0201601N00211220001CN0250001N9+03391+01221100701ADDAY111999GA1061+075009029GF106991001001999999001061MW1001
0035724550139471967072408004+39050-096767SAO  +0324FRI  V0202101N002112200019N0200001N9+02501+01221999999ADDGF108991999999999999999999MW1001
0035749477999991967052108004+33417-115833SAO  +000099999V0209991C000012200019N0240001N1+01131+01071103491ADDGF100991999999999999999999MW1111
0035471580999991967031605004+35117+126817SAO  +0013RKJJ V0202901N001510240019N0112001N9+01071+00241101691ADDGF108991999999999999999999MW1001
028099999994847196708220400E+42233-083333SAO  +0193DTW  V0202305N003652200059N012800599+01724+01225101344ADDAA101000095GD12995+9999999GD20995+9999999GD30995+9999999GD40995+9999999GF101015999999999999999999MA1999999098954EQDN01 00000JPWTH 1QNNE11 1 00299E11 1 00099E11 1 00099E11 1 00099G11U1 99999K11 1 00054L11 1 00800M11 1 29220N11 1 00000Q11 1 10134S11 1 00063V11 1 00101X11 1 23007
0269999999931071967080720005+32867-117133SAO  +0140NKX  V0202405N002150274349N016000599+02444+01615101474ADDGD12995+9999999GD23995+9999999GD33995+9999999GD40995+9999999GF106065999999999999999999MA1999999099864EQDN01 00000JPWTH 1QNNE11 1 00299E11 1 00499E11 1 00499E11 1 00099G11 1 00090K11 1 00061L11 1 01000M11 1 29490N11 1 00000Q11 1 10147S11 1 00076V11 1 00707X11 1 24004
0056106330999991967121003004+50050+008333SAO  +0143EDOU V0200301N001010030019N0048001N9-00481-00591101171ADDGF107991999999999999999999MA1999999099361MW1051MW2111
0068200970999991967083018004+79400+102433FM-12+999999999V0209999C00001000151CN0002001N9-00281-00281102301ADDAA106000091AY141999GF109991091999000251999999MD1210051+9999MW1431
0067409480999991967071203004+34550+069217FM-12+1791OAKB V0203001N00511220001CN0100001N9+01781+00721999999ADDAA199000091GF100991001001999999001001KA1999N+01281MD1110061+9999
0269999999410131967101514005+15467+108700SAO  +0018IKYU V0200405N005250061049N011200599+02675+02445101355ADDGD13995+9999999GD23995+9999999GD30995+9999999GD40995+9999999GF106065999999999999999999MA1999999100855EQDN01 00000JPWTH 1QNNE11 1 00499E11 1 00499E11 1 00099E11 1 00099G11 1 00020K11 1 00076L11 1 00700M11 1 29780N11 1 00000Q11 1 10135S11 1 00080V11 1 00707X11 1 04010
0035722090999991967082813004+31883-081583SAO  +0014LHW  V0203401N002612200019N0112001N9+02551+02111999999ADDGF107991999999999999999999MW1001
0073607500999991967060609004+34717+010683FM-12+002399999V0201201N00311007501CN0060001N9+02221+01281101761ADDAY121999GA1071+009009059GF107991071051008001999999MD1110091+9999MW1011
008283583099999196711111700N-19850-043950BRAZ +0785SBBH V02036019999999999999N005000199+02031+01801101311ADDGA1061+003001061GA2081+021001041GF108991999999999999999999MA1101701092591MW1631
031399999913984196701181800E+39550-097650SAO  +0448CNK  V0201505N005250076249N012800599-01225-01615103685ADDAA101000095GA1999+007624064GD14085+9999999GD20995+9999999GD30995+9999999GD40995+9999999GF108085999999999999999999MA1999999097975MW1715EQDN01 04000JPWTH 1QNNE11 1 00610E11 1 00099E11 1 00099E11 1 00099G11 1 00025H11 1 15025K11 1 00003L11 1 00800M11 1 28930N11 1 04000Q11 1 10368S11 1 00010V11 1 01010X11 1 15010
0269999999116471967031517005+99999+999999SAO  +999999999V0200505N003152200059N016000599+02675+01835101635ADDGD12995+9999999GD20995+9999999GD30995+9999999GD40995+9999999GF101995999999999999999999MA1999999101395EQDN01 00000JPWTH 1QNNE11 1 00299E11 1 00099E11 1 00099E11 1 00099G11U1 99999K11 1 00065L11 1 01000M11 1 29940N11 1 00000Q11 1 10163S11 1 00080V11 1 00199X11 1 05006
039499999923155196702040300E+35417-119050SAO  +0151BFL  V0203605N004152200059N004800599+00835+00675102455ADDAA101000095GA1999+999999004GA2999+999999999GA3999+999999999GA4999+999999999GD13055+9999993GD20005+9999999GD30005+9999999GD40005+9999999GF105015999999999999999999MA1999999100645MW1045EQDN01 08200JPWTH 1QNNE11 1 00306E11 1 00000E11 1 00000E11 1 00000G11U1 99999H11C1 32999H11 1 00999H11 1 00999H11 1 00999K11 1 00044L11 1 00300M11 1 29720N11 1 08200Q11 1 10245S11 1 00047V11 1 00601X11 1 36008
0035702350999991967062222004+61100-155583SAO  +0487PASV V0200701N001012200019N0400001N9+01911+00961999999ADDGF102991999999999999999999MW1001
0117232190999991967031506004+67083+059383FM-12+008199999V0200901N00411024001CN0070001N9-01611-01891101221ADDAA106075091AA224999999AY171999GF108991081001999999011999HL10009IA1319IA2999-02119KA1999N-02221MD1710071+9999MW1711
0081377890999991967071018004+40133+044467FM-12+090799999V0202701N00211220001CN0100001N9+02111+01111999999ADDAA199000091AY181061GF103991021051017501031001KA1999M+03001MD1210181+9999MW1011
0269999999931011967021822005+33667-117733SAO  +0116NZJ  V0202405N003652200059N011200599+02064+00615101324ADDGD10995+9999999GD20995+9999999GD30995+9999999GD40995+9999999GF100005999999999999999999MA1999999099974EQDN01 00000JPWTH 1QNNE11 1 00099E11 1 00099E11 1 00099E11 1 00099G11U1 99999K11 1 00043L11 1 00700M11 1 29520N11 1 00000Q11 1 10132S11 1 00069V11 1 00000X11 1 24007
0050489300999991967021316004+19883+102133SAO  +0305VLLB V0209991C000012200019N0080001N1+01911+01631101771ADDGF100991999999999999999999MA1999999098271MW1051
0050035833999991967110118004+52417+000550SAO  +0013EGUL V0202101N010310090019N0160001N9+01021+00911098301ADDGF108991999999999999999999MA1999999098141MW1611
033499999924243196703151500E+46567-120533SAO  +032499999V0202005N002150198149N032000599+00005-00175101475ADDAA101000095GA1999+015244064GA2999+019814064GD12035+9999999GD24055+9999999GD30995+9999999GD40995+9999999GF108085999999999999999999MA1999999097565EQDN01 00000JPWTH 1QNNE11 1 00204E11 1 00606E11 1 00099E11 1 00099G11 1 00065H11 1 15050H11 1 15065K11 1 00029L11 1 02000M11 1 28810N11 1 00000Q11 1 10147S11 1 00032V11 1 01010X11 1 20004
0232723520139021967120216003+34650-099267SAO  +0414LTS  V0203405N009352200059N0400005N9+00675-00335999999ADDGD10995+9999999GD20995+9999999GD30995+9999999GD40995+9999999GF100995999999999999999999EQDN01 00000JPWTH 1QNNE11 1 00099E11 1 00099E11 1 00099E11 1 00099G11U1 99999K11 1 00026L11 1 02500N11 1 00000S11 1 00044V11 1 00099X11 1 34018
0070858300999991967062700004-42900-072700FM-12+000399999V0209991C000019999999N0100001N9+00391+00391102151ADDAY121999GF104991041051008001001001KA1999M+01001MD1710051+9999MW1021
0232722265138211967100704003+32383-086350SAO  +0053MXF  V02099959000052200059N0160005N9+01675+01335999999ADDGD10995+9999999GD20995+9999999GD30995+9999999GD40995+9999999GF100995999999999999999999EQDN01 00000JPWTH 1QNNE11 1 00099E11 1 00099E11 1 00099E11 1 00099G11U1 99999K11 1 00056L11 1 01000N11 1 00000S11 1 00062V11 1 00099X11 1 00000
0057155010999991967011515004+44150+022783FM-12+003899999V0202901N00871220001CN0200001N9+00001-00611102191ADDAY101999GF100991001001999999001001MD1110031+9999MW1021
0275722085938311967032822003+32483-080717SAO  +0010NBC  V0201105N004152200059N0112005N1+02225+01335101995ADDGD12995+9999999GD22995+9999999GD33995+9999999GD40995+9999999GF106065999999999999999999MA1999999101905MW1001EQDN01 00000JPWTH 1QNNE11 1 00299E11 1 00299E11 1 00499E11 1 00099G11C1 99999K11 1 00056L11 1 00700M11 1 30090N11 1 00000Q11 1 10199S11 1 00072V11 1 00807X11 1 11008
0050107635999991967071903004+49500+010950SAO  +0305EDEW V0201101N001012200019N0096001N1+01801+01241101851ADDGF100991999999999999999999MA1999999098371MW1051
0050726225047421967060606004+44650-073450SAO  +0075PBG  V0209991C000010210019N0240001N9+01721+01221102001ADDGF108991999999999999999999MA1999999101121MW1001
0035701170999991967081222004+65567-167917SAO  +0085PATC V0203601N009810060019N0240001N9+00801+00301999999ADDGF107991999999999999999999MW1001
0165999999129181967102600005+99999+999999SAO  +999999999V0201505N003152200059N024000599+01945+00445101945ADDGF100005999999999999999999MA1999999101735EQDN01 00000JPWTH 1QNNG11U1 99999K11 1 00040L11 1 01500M11 1 30040N11 1 00000Q11 1 10194S11 1 00067V11 1 00000X11 1 15006
030799999923043196709051200E+33400-104533SAO  +1106RNM  V0203205N003650085349N024000599+01505+01115101985ADDAA101000095GA1999+008534064GD14085+9999999GD20995+9999999GD30995+9999999GD40995+9999999GF108085999999999999999999MA1999999089815EQDN01 00000JPWTH 1QNNE11 1 00610E11 1 00099E11 1 00099E11 1 00099G11 1 00028H11 1 15028K11 1 00052L11 1 01500M11 1 26520N11 1 00000Q11 1 10198S11 1 00059V11 1 01010X11 1 32007
0243999999422041967050819005+26350+127767SAO  +0043RODN V0201405N002652200059N020800599+02335+02175101435ADDGD12995+9999999GD22995+9999999GD30995+9999999GD40995+9999999GF102995999999999999999999EQDN01 00000JPWTH 1QNNE11 1 00299E11 1 00299E11 1 00099E11 1 00099G11U1 99999K11 1 00071L11 1 01300N11 1 00000Q11 1 10143S11 1 00074V11 1 00399X11 1 14005
0035702120266331967010801004+61783-166033SAO  +0142PACZ V0200201N006212200019N0240001N9-00651-01031999999ADDGF107991999999999999999999MW1001
0069471870999991967112108004+33200+126217SAO  +0013RKPM V0203601N007712200019N0160001N1+01021+00521102811ADDGF102991999999999999999999MA1999999102601MW1001EQDQ01+999990APOSP 
0061471530999991967080312004+35183+128933SAO  +0004RKPK V0201801N002112200019N0112001N9+02961+02411100271ADDAA124999999GF102991999999999999999999MA1999999100201MW1001
033499999913983196702161800E+38967-092367SAO  +0237COU  V0200205N003150396249N024000599-00835-01445102745ADDAA101000095GA1999+039624044GA2999+999999024GD13065+9999999GD24025+9999999GD30995+9999999GD40995+9999999GF108085999999999999999999MA1999999099735EQDN01 00000JPWTH 1QNNE11 1 00408E11 1 00602E11 1 00099E11 1 00099G11 1 00130H11 1 21130H11C1 37999K11 1 00006L11 1 01500M11 1 29450N11 1 00000Q11 1 10274S11 1 00017V11 1 01010X11 1 02006
0057066100999991967100512004+46817+006950FM-12+049199999V0202301N00511220001CN0300001N9+01281+00611101401ADDAY111999GF103991031051012501001001MD1210131+9999MW1011
0094937800999991967020315004-43483+172533FM-12+003499999V0202601N00361009001CN0350001N9+00721+00331101401ADDAY111999GA1021+005409089GA2051+009009059GF105991999021004501001001MW1051EQDQ01+000022SCOTLC
0069488926999991967051805004+11300+106783SAO  +0055VVPV V0201801N002612200019N0160001N1+03241+02461100791ADDGF102991999999999999999999MA1999999100171MW1001EQDQ01+999990APOSP 
0057228920999991967070200004+60717+028800FM-12+001599999V0203201N00411220001CN0200001N9+01001+00501101131ADDAY101999GF100991001001999999001001MD1210111+9999MW1021
0043064510999991967101105004+50900+004500FM-12+003999999V0202301N00361001501CN0027001N9+01501+01391101671ADDAY121999GF108991071061001501999999MW1101
0057163000999991967041703004+40633+015800FM-12+084399999V0209991C00001220001CN0100001N9+00781+00391999999ADDAY101999GF100991001001999999001001MD1110041+9999MW1011
0269999999947891967112517005+40650-073783SAO  +0010JFK  V0203205N007750042749N024000599+00674+00005100144ADDGD13995+9999999GD23995+9999999GD30995+9999999GD40995+9999999GF107075999999999999999999MA1999999100074EQDN01 00000JPWTH 1QNNE11 1 00499E11 1 00499E11 1 00099E11 1 00099G11 1 00014K11 1 00032L11 1 01500M11 1 29550N11 1 00000Q11 1 10014S11 1 00044V11 1 00909X11 1 32015
0035724835232061967091505004+38550-121300SAO  +0029MHR  V0209991C000012200019N0240001N9+02301+01191999999ADDGF100991999999999999999999MW1001
0035702315999991967072420004+62883-155967SAO  +0297PATL V0202101N007710027019N0128001N9+01351+01351999999ADDGF108991999999999999999999MW1511
0086161300999991967040718004+44817+010283FM-12+005599999V0209991C00001220001CN0070001N9+01281+00721100221ADDAY121999GA1021+060009019GF102991001001999999001091KA1999M+01391MD1210051+9999MW1101
0035723405039301967122205004+34917-092150SAO  +0095LRF  V0203401N006210075019N0320001N9+00391-00331999999ADDGF107991999999999999999999MW1001
0057324110999991967100918004+55700+155633FM-12+000499999V0201801N00101024001CN0020001N9+00111-00281101741ADDAY111999GF105991051001999999041001MD1410001+9999MW1011
0275999999350481967010721005+52133+001433SAO  +0026EGVJ V0200905N004150213449N008000599-00115-00675102045ADDGD12995+9999999GD23995+9999999GD30995+9999999GD40995+9999999GF106995999999999999999999MA1999999101695MW1055EQDN01 08100JPWTH 1QNNE11 1 00299E11 1 00499E11 1 00099E11 1 00099G11 1 00070K11 1 00020L11 1 00500M11 1 30030N11 1 08100Q11 1 10204S11 1 00030V11 1 00899X11 1 09008
0050722270138641967111512004+33917-084517SAO  +0329MGE  V0203201N004112200019N0400001N9+00241-00201101721ADDGF108991999999999999999999MA1999999097801MW1001
0238724037937281967100607003+38717-077183SAO  +0024DAA  V0203305N001550182949N0112005N9+02285+01565999999ADDGD13995+9999999GD20995+9999999GD30995+9999999GD40995+9999999GF105995999999999999999999MW1001EQDN01 00000JPWTH 1QNNE11 1 00499E11 1 00099E11 1 00099E11 1 00099G11 1 00060K11 1 00060L11 1 00700N11 1 00000S11 1 00073V11 1 00699X11 1 33003
038899999923062196703242100E+39767-104883SAO  +161599999V0200905N002652200059N080000599+02175-01675100055ADDAA101000095GA1999+042674034GA2999+999999004GA3999+999999999GA4999+999999999GD12025+9999999GD23035+9999999GD30005+9999999GD40005+9999999GF106055999999999999999999MA1999999082705EQDN01 00000JPWTH 1QNNE11 1 00203E11 1 00404E11 1 00000E11 1 00000G11C1 99999H11 1 23140H11C1 32999H11 1 00999H11 1 00999K11 1 00002L11 1 05000M11 1 24420N11 1 00000Q11 1 10005S11 1 00071V11 1 00706X11 1 09005
0269999999149401967090409005+43150-093333SAO  +0367MCW  V02099959000052200059N019200599+00565+00445102295ADDGD10995+9999999GD20995+9999999GD30995+9999999GD40995+9999999GF100005999999999999999999MA1999999097835EQDN01 00000JPWTH 1QNNE11 1 00099E11 1 00099E11 1 00099E11 1 00099G11U1 99999K11 1 00040L11 1 01200M11 1 28890N11 1 00000Q11 1 10229S11 1 00042V11 1 00000X11 1 00000
0035723273999991967050514004+36000-086500SAO  +0166MQY  V0201801N001012200019N0112001N1+01411+01191999999ADDGF100991999999999999999999MW1001
0009483270999991967122717004+18283+098983SAO  +0314VTCC V0209991C000019999999N0000001N1+99999+99999999999ADDMW1001
0050471530999991967021921004+35183+128933SAO  +0004RKPK V0209991C000012200019N0112001N9-00371-00811102401ADDGF107991999999999999999999MA1999999102341MW1001
0275724567139211967011209003+39367-094917SAO  +0239FLV  V02099959000052200059N0144005N1+00005-00565101595ADDGD12995+9999999GD23995+9999993GD30995+9999999GD40995+9999999GF106995999999999999999999MA1999999098715MW1001EQDN01 00000JPWTH 1QNNE11 1 00299E11 1 00399E11 1 00099E11 1 00099G11U1 99999K11 1 00022L11 1 00900M11 1 29150N11 1 00000Q11 1 10159S11 1 00032V11 1 00899X11 1 00000
0238722235138381967051013003+30633-088067SAO  +0009BFM  V0200805N003652200059N0160005N1+02115+01115999999ADDGD12995+9999999GD22995+9999999GD30995+9999999GD40995+9999999GF102995999999999999999999MW1001EQDN01 00000JPWTH 1QNNE11 1 00299E11 1 00299E11 1 00099E11 1 00099G11U1 99999K11 1 00052L11 1 01000N11 1 00000S11 1 00070V11 1 00399X11 1 08007
0057315380999991967011921004+50067+132133FM-12+031499999V0209991C00001220001CN0500001N9-03001-03281102051ADDAY101999GF100991001001999999001001MD1710051+9999MW1021
0232999999948661967080418005+41867-087617SAO  +0180CGX  V0200405N005752200059N024000599+02334+01335999999ADDGD12995+9999999GD20995+9999999GD30995+9999999GD40995+9999999GF104995999999999999999999EQDN01 00000JPWTH 1QNNE11 1 00299E11 1 00099E11 1 00099E11 1 00099G11U1 99999K11 1 00056L11 1 01500N11 1 00000S11 1 00074V11 1 00599X11 1 04011
0275702960264101967121706003+60500-145500SAO  +0014CDV  V02099959000052200059N0240005N1-00895-01005101875ADDGD10995+9999999GD20995+9999999GD30995+9999999GD40995+9999999GF100005999999999999999999MA1999999101695MW1001EQDN01 00000JPWTH 1QNNE11 1 00099E11 1 00099E11 1 00099E11 1 00099G11U1 99999K11 1 00014L11 1 01500M11 1 30030N11 1 00000Q11 1 10187S11 1 00016V11 1 00000X11 1 00000
0035724285138121967020307004+39817-082933SAO  +0227LCK  V0200501N002110060019N0160001N9-00441-00891999999ADDGF108991999999999999999999MW1001
0097603550999991967112518004+36867+006950FM-12+000999999V0209991C00001012001CN0250001N9+01781+01221101761ADDAA199000091AY121999GA1071+012009059GF107991071051012501999999KA1999M+02221MD1310061+9999MW1001
0069471180999991967091508004+37433+127950SAO  +0101RKNH V0200201N004110240019N0112001N1+02131+01071101151ADDGF107991999999999999999999MA1999999099971MW1001EQDQ01+999990APOSP 
0069484775999991967071111004+12683+101000SAO  +0018VTBU V0202001N005112200019N0400001N1+02911+02351100271ADDGF107991999999999999999999MA1999999100071MW1001EQDQ01+999990APOSP 
0057227620999991967011403004+62867+042717FM-12+002499999V0201101N00101220001CN0100001N9-03221-03391100381ADDAY101999GF100991001001999999001001MD1210021+9999MW1021
0296999999931071967070612005+32867-117133SAO  +0140NKX  V02099959000050030549N011200599+01614+01395101464ADDGA1999+003054074GD14085+9999999GD20995+9999999GD30995+9999999GD40995+9999999GF108085999999999999999999MA1999999099834EQDN01 00000JPWTH 1QNNE11 1 00610E11 1 00099E11 1 00099E11 1 00099G11 1 00010H11 1 16010K11 1 00057L11 1 00700M11 1 29480N11 1 00000Q11 1 10146S11 1 00061V11 1 01010X11 1 00000
0070317350999991967112100004+48517+135167FM-12+0072UHHH V0202501N00721090001CN0200001N9-01501-01891101831ADDAY171999GF106991001001999999001021KA1999N-01781MD1710121+9999MW1021
0056107750999991967021205004+49217+011833SAO  +0445EDIH V0202701N001512200019N0048001N9-01061-01111999999ADDGF100991999999999999999999MA1102571999999MW1051MW2111
008294970099999196704182300N-42880+147330AUST +0057     V0203155N003659999999N999999999+01995+01105999999ADDGA1005+999999999GA2085+999999035GF108995004999999999075999MA1999999100605MW1215
0009471410432191967070223384+35900+126617SAOSP+0013RKJK V0202801N004610018019N0112001N9+99999+99999999999ADDMW1001
0123243290999991967070400004+66250+114283FM-12+023599999V0209991C00001220001CN0500001N9+02221+01391101091ADDAA199000091AJ100009199999999AY101999GF101991011021012501001001HL10009IA1009IA2999+01289KA1999N+01281MD1310051+9999MW1021
0035479300999991967121304004+26200+127650SAO  +0004ROAH V0200401N004112200019N0560001N1+01741+00691999999ADDGF102991999999999999999999MW1001
038899999924149196712130300E+46383-117017SAO  +043399999V0202605N003152200059N048000599-00505-01005103165ADDAA101000095GA1999+999999064GA2999+999999999GA3999+999999999GA4999+999999999GD10005+9999999GD20005+9999999GD30005+9999999GD40005+9999999GF100005999999999999999999MA1999999097735EQDN01 00000JPWTH 1QNNE11 1 00000E11 1 00000E11 1 00000E11 1 00000G11U1 99999H11 1 15999H11 1 00999H11 1 00999H11 1 00999K11 1 00014L11 1 03000M11 1 28860N11 1 00000Q11 1 10316S11 1 00023V11 1 00000X11 1 26006
0057470550999991967020303004+39183+127433FM-12+003699999V0209991C00001220001CN0200001N9+00001-01221101841ADDAY101999GF100991001001999999001001MD1810061+9999MW1021
031399999994814196701090900E+44367-084683SAO  +0353HTL  V0202205N003650042749N019200599-00784-01065102114ADDAA101000095GA1999+004274064GD14085+9999999GD20995+9999999GD30995+9999999GD40995+9999999GF108085999999999999999999MA1999999097704MW1855EQDN01 05000JPWTH 1QNNE11 1 00610E11 1 00099E11 1 00099E11 1 00099G11 1 00014H11 1 15014K11 1 00013L11 1 01200M11 1 28850N11 1 05000Q11 1 10211S11 1 00018V11 1 01010X11 1 22007
043172548094910196711061200C+42550-092400SAO  +0265ALO  V0201905N001550143349N0240005N1-00675-00895102315ADDAA101000095AA224000091GA1051+014334064GA2999+999999999GA3999+999999999GA4999+999999999GD13055+9999999GD20005+9999999GD30005+9999999GD40005+9999999GF105055999999999999999999KA1999M+00351KA2999N-00761MA1999999098985MW1001EQDN01 00000JPWTH 1QNNE11 1 00406E11 1 00000E11 1 00000E11 1 00000G11 1 00047H11 1 15047H11 1 00999H11 1 00999H11 1 00999K11 1 00016L11 1 01500M11 1 29230N11 1 00000Q11 1 10231S11 1 00020V11 1 00606X11 1 19003
0068224460999991967041303004+65467+039733FM-12+008199999V0202001N00211004501CN0100001N9-00281-00281102631ADDAA106000091AY111999GF108991081061004501999999MD1710061+9999MW1031
0051103840999991967060318004+52467+013400SAO  +0049EDBB V0200301N003112200019N0320001N1+02241+00741102601ADDGA1011+015009089GF102991999999999999999999MW1001
0035727855241141967011622004+47617-117650SAO  +0750SKA  V0202201N003612200019N0480001N9+00331-00281999999ADDGF102991999999999999999999MW1001
0124845340999991967081815004-09117-077867FM-12+067099999V0209991C00001030001CN0130001N9+02391+02001102131ADDAY141999GA1999+009009049GA2081+030009039GF199999041011008001031001MD1410001+9999MW1011EQDQ01+000072SCOTCVQ02+000022APCTEN
017699999993815196710200000E+39900-084217SAO  +031399999V0202705N002152200059N024000599+00564+00065102044ADDAA101000095GF100005999999999999999999MA1999999098344EQDN01 00000JPWTH 1QNNG11U1 99999K11 1 00033L11 1 01500M11 1 29040N11 1 00000Q11 1 10204S11 1 00042V11 1 00000X11 1 27004
0057408560999991967051109004+29467+060883FM-12+106299999V0200101N00411220001CN0150001N9+02611+00001101151ADDAY111999GF103991011011017501001021MD1710131+9999MW1021
0308999999147901967081400005+42150-070933SAO  +005299999V0200605N003650006149N001600599+01835+01615101675ADDGA1999+000614074GD14085+9999999GD20995+9999999GD30995+9999999GD40995+9999999GF108085999999999999999999MA1999999101085MW1455MW2615EQDN01 02070JPWTH 1QNNE11 1 00610E11 1 00099E11 1 00099E11 1 00099G11 1 00002H11 1 16002K11 1 00061L11 1 00100M11 1 29850N11 1 02070Q11 1 10167S11 1 00065V11 1 01010X11 1 06007
0057607450999991967031700004+34417+008817FM-12+031499999V0200401N00311220001CN0120001N9+00781+00281102591ADDAY101999GF100991001001999999001001MD1110031+9999MW1021
0009171280999991967020120004+40117+032983SAO  +0949LTAC V0201801N001519999999N0000001N1+99999+99999999999ADDMW1001
0097601550999991967042406004+33567-007667FM-12+005899999V0209991C00001004201CN0080001N9+01501+01281101981ADDAA199000091AY121999GA1061+004809059GF106991061051004501001001KA1999N+01391MD1510001+9999MW1011
0127292630999991967012512004+58450+092650FM-12+007899999V0201101N00101220001CN0040001N9-02501-02781102631ADDAA106002091AA299000591AY171999GF108991001001999999001071KA1999M-02221MD1210021+9999MW1711EQDQ01+000042APCTENQ02+000012APC3  
0078937800999991967092717004-43483+172533FM-12+003499999V0200201N00101220001CN0280001N9+00781+00671101141ADDAY101999GA1011+030009039GF101991999001999999061001MW1051EQDQ01+000002SCOTLC
0255999999432141967082504005+36450+127433SAO  +0040RKTD V0203005N003150067149N011200599+03005+02565101085ADDGD13995+9999999GD24995+9999999GD30995+9999999GD40995+9999999GF108995999999999999999999MW1805MW2955EQDN01 01023JPWTH 1QNNE11 1 00499E11 1 00699E11 1 00099E11 1 00099G11 1 00022K11 1 00078L11 1 00700N11 1 01023Q11 1 10108S11 1 00086V11 1 01099X11 1 30006
0015724467139301967103120004+38733-093567SAO  +0265SZL  V0200501N004610006019N0020001N9+00941+00781999999ADDMW1451MW2511
0057157300999991967020409004+41633+025400FM-12+024199999V0209991C00001012301CN0005001N9+00501+00391102701ADDAY141999GF108991081051012501999999MD1210011+9999MW1421
0057163200999991967080400004+40650+017950FM-12+001099999V0202701N00211220001CN0070001N9+02111+01391101421ADDAY101999GF100991001001999999001001MD1410001+9999MW1101
0069488970999991967073120004+11967+109233SAO  +0011VVCR V0202001N004110390019N0240001N1+02741+02301100211ADDGF108991999999999999999999MA1999999100111MW1001EQDQ01+999990APOSP 
0249999999148561967092014005+42100-083167SAO  +0180NFB  V0201705N002652200059N003200599+02175+01835101645ADDGD13995+9999993GD20995+9999999GD30995+9999999GF106025999999999999999999MA1999999099495MW1045EQDN01 08200JPWTH 1QNNE11 1 00399E11 1 00099E11 1 00099G11U1 99999K11 1 00065L11 1 00200M11 1 29380N11 1 08200Q11 1 10164S11 1 00071V11 1 00703X11 1 17005
0057277580999991967012615004+54083+043250FM-12+019899999V0201801N00721030001CN0060001N9-01501-01781102251ADDAY181999GF108991041091008001011999MD1710181+9999MW1851
0092264980999991967120800004+56267+034150FM-12+019699999V0201801N00101004501CN0040001N9-00281-00281098711ADDAY171999GA1081+004509079GF108991999071004501021999MD1810011+9999MW1711EQDQ01+000082SCOTLC
0035723306138251967090210004+33633-088450SAO  +0062CBM  V0209991C000012200019N0112001N9+01571+01411999999ADDGF102991999999999999999999MW1001
0041747810999991967112211004+30967-083200SAO  +0074VAD  V0209991C000012200019N0032001N9+01021+00851999999ADDGF100991999999999999999999MW1041MW2111
0073306220999991967102715004+53967+105867FM-12+055499999V0202701N00511007801CN0100001N9-00221-00721102601ADDAY171999GA1061+999999059GF108991061051008001021999MD1710061+9999MW1711
0057434180999991967050100004+08583+081250FM-12+000799999V0202301N00101220001CN0100001N9+02891+02221100741ADDAY111999GF103991001001999999001011MD1999999-0081MW1011
0269999999947891967102200005+40650-073783SAO  +0010JFK  V0202705N003652200059N022400599+01224+00115102004ADDGD10995+9999999GD20995+9999999GD30995+9999999GD40995+9999999GF100005999999999999999999MA1999999101934EQDN01 00000JPWTH 1QNNE11 1 00099E11 1 00099E11 1 00099E11 1 00099G11U1 99999K11 1 00034L11 1 01400M11 1 30100N11 1 00000Q11 1 10200S11 1 00054V11 1 00000X11 1 27007
0102165200999991967011606004+40633+008283FM-12+004099999V0209991C00001009001CN0100001N9+00611+00501102681ADDAY141999GA1031+006909089GA2051+009009089GF108991081021008001999999KA1999N+00391MD1710091+9999MW1121
0035724505039231967032408004+37617-097267SAO  +0418IAB  V0201801N007212200019N0240001N9+01741+00411999999ADDGF100991999999999999999999MW1001
0269471410432191967102905002+35900+126617SAO  +001099999V0202105N003152200059N024000599+02005+01615101915ADDGD12995+9999999GD23995+9999993GD30995+9999999GD40995+9999999GF105995999999999999999999MA1999999101765EQDN01 00000JPWTH 1QNNE11 1 00299E11 1 00399E11 1 00099E11 1 00099G11U1 99999K11 1 00061L11 1 01500M11 1 30050N11 1 00000Q11 1 10191S11 1 00068V11 1 00699X11 1 21006
0050489550999991967112110004+15133+105783SAO  +0102VLIP V0200301N003110090019N0192001N1+02911+01801101251ADDGF107991999999999999999999MA1999999100141MW1001
0249999999432141967122812005+36450+127433SAO  +0040RKTD V02099959000050085349N011200599-01005-01225102075ADDGD14995+9999999GD20995+9999999GD30995+9999999GD40995+9999999GF108995999999999999999999MW1715EQDN01 04000JPWTH 1QNNE11 1 00699E11 1 00099E11 1 00099E11 1 00099G11 1 00028K11 1 00010L11 1 00700N11 1 04000Q11 1 10207S11 1 00014V11 1 01099X11 1 00000
0041722545999991967123023004+30200-097667SAO  +0165BSM  V0200101N004110015019N0032001N9+00741+00691999999ADDGF108991999999999999999999MW1451MW2611
0089161200999991967031815004+44417+008850FM-12+000399999V0201401N00671220001CN0100001N9+01221+00781100691ADDAY111999GA1021+006009089GA2031+999999059GF106991051081008001061001MD1610331+9999MW1011
0050471200999991967110816004+37250+127000SAO  +0024RKSW V0203601N003112200019N0112001N9+00521+00021102471ADDGF100991999999999999999999MA1999999102131MW1001
039472548094910196710051500C+42550-092400SAO  +0265ALO  V0200305N003152200059N0240005N1+01175+00565102335ADDAA101000095GA1021+036584034GA2021+220009004GA3999+999999999GA4999+999999999GD12025+9999999GD22025+9999999GD30005+9999999GD40005+9999999GF103025999999999999999999MA1999999099125MW1001EQDN01 00000JPWTH 1QNNE11 1 00202E11 1 00202E11 1 00000E11 1 00000G11U1 99999H11 1 23120H11C1 32999H11 1 00999H11 1 00999K11 1 00042L11 1 01500M11 1 29270N11 1 00000Q11 1 10233S11 1 00053V11 1 00403X11 1 03006
0269999999232441967050407005+37417-122050SAO  +0012NUQ  V0203105N001550243849N024000599+01175+00675101675ADDGD12995+9999999GD23995+9999999GD34995+9999999GD40995+9999999GF108085999999999999999999MA1999999101565EQDN01 00000JPWTH 1QNNE11 1 00299E11 1 00499E11 1 00699E11 1 00099G11 1 00080K11 1 00044L11 1 01500M11 1 29990N11 1 00000Q11 1 10167S11 1 00053V11 1 01010X11 1 31003
0269999999242551967011616005+99999+999999SAO  +999999999V02099959000052200059N016000599+00395-00065103085ADDGD12995+9999999GD22995+9999999GD30995+9999999GD40995+9999999GF103035999999999999999999MA1999999102985EQDN01 00000JPWTH 1QNNE11 1 00299E11 1 00299E11 1 00099E11 1 00099G11U1 99999K11 1 00031L11 1 01000M11 1 30410N11 1 00000Q11 1 10308S11 1 00039V11 1 00404X11 1 00000
0035726225047421967072914004+44650-073450SAO  +0075PBG  V0201501N004112200019N0064001N9+02111+01671999999ADDGF102991999999999999999999MW1051
0057310880999991967111706004+59367+143200FM-12+000699999V0203601N00511220001CN0500001N9-01611-02501101811ADDAY111999GF103991021001999999041011MD1210091+9999MW1021
0238999999341961967012710005+48450+010867SAO  +0466EDOX V0202405N003650076249N012800599+00395+00285999999ADDGD12995+9999999GD23995+9999999GD34995+9999999GD40995+9999999GF108995999999999999999999MW1615EQDN01 02000JPWTH 1QNNE11 1 00299E11 1 00499E11 1 00699E11 1 00099G11 1 00025K11 1 00037L11 1 00800N11 1 02000S11 1 00039V11 1 01099X11 1 24007
0035747950128671967111422004+28233-080600SAO  +0006COF  V0201601N003112200019N0240001N9+02351+01351999999ADDGF102991999999999999999999MW1001
0057278230999991967112500004+53783+039250FM-12+021099999V0203601N00101024001CN0100001N9-00721-00891102821ADDAY171999GF108991081001999999021999MD1210091+9999MW1021
0035785140999991967110501004+18500-067133SAO  +0075TJBQ V0200901N002112200019N0240001N1+02571+02241999999ADDGF102991999999999999999999MW1001
0057274020999991967050600004+56833+035900FM-12+0137UUEM V0201401N00211220001CN0100001N9+01391+00611101921ADDAY121999GF100991001001999999001001MD1710121+9999MW1021
0057152800999991967061303004+45450+025450FM-12+251299999V0202901N00211000151CN0000001N9-00111-00111100501ADDAY141999GF109991091999000251999999MD1710081+9999MW1451
0073160900999991967012915004+45383+010867FM-12+006899999V0202501N00311005101CN0011001N9+00611+00391102721ADDAY141999GA1081+005109079GF108991081061004501999999MD1610071+9999MW1281
038899999923062196708220000E+39767-104883SAO  +161599999V0203005N004152200059N064000599+02835-00285100915ADDAA101000095GA1999+999999094GA2999+042674034GA3999+999999004GA4999+999999999GD12005+9999999GD23025+9999999GD30045+9999999GD40005+9999999GF106065999999999999999999MA1999999083515EQDN01 00000JPWTH 1QNNE11 1 00200E11 1 00403E11 1 00005E11 1 00000G11C1 99999H11 1 18999H11 1 23140H11C1 32999H11 1 00999K11 1 00027L11 1 04000M11 1 24660N11 1 00000Q11 1 10091S11 1 00083V11 1 00807X11 1 30008
0057301170999991967032206004+58033+102733FM-12+023199999V0202001N00211024001CN0200001N9+00281-01001101731ADDAY121999GF108991081001999999071061MD1710111+9999MW1031
0269999999138991967022412005+30467-087200SAO  +0034PNS  V0203505N005252200059N019200599+00445-00395102525ADDGD10995+9999999GD20995+9999999GD30995+9999999GD40995+9999999GF100005999999999999999999MA1999999102105EQDN01 00000JPWTH 1QNNE11 1 00099E11 1 00099E11 1 00099E11 1 00099G11U1 99999K11 1 00025L11 1 01200M11 1 30150N11 1 00000Q11 1 10252S11 1 00040V11 1 00000X11 1 35010
0238726815241061967041720003+43050-115867SAO  +0912MUO  V0201305N005252200059N0560005N9+01115-00175999999ADDGD12995+9999999GD23995+9999999GD30995+9999999GD40995+9999999GF107995999999999999999999MW1001EQDN01 00000JPWTH 1QNNE11 1 00299E11 1 00499E11 1 00099E11 1 00099G11C1 99999K11 1 00029L11 1 03500N11 1 00000S11 1 00052V11 1 00999X11 1 13010
0057249510999991967070706004+60817+125150FM-12+011899999V0200901N00511220001CN0500001N9+02611+00221100691ADDAY111999GF101991011011017501001001MD1710101+9999MW1031
0068320980999991967020221004+49217+143100FM-12+000499999V0200901N00211220001CN0045001N9-02721-02891100511ADDAA199000091AY101999GF100991001001999999001001MD1710051+9999MW1021
0051106370999991967010914004+50033+008567SAO  +0112EDDF V0203501N000510120019N0024001N9+99999+99999999999ADDGA1051+012009059GF107991999999999999999999MW1051
006683612099999196709131000N-20467-054667BRAZ +0567SBCG V02018019009319999999N014000199+01431+01301101611ADDGA1081+009001061GF108991999999999999999999MA1101891095231MW1451
0050471530999991967060308004+35183+128933SAO  +0004RKPK V0201901N003110360019N0096001N9+02521+02071100611ADDGF108991999999999999999999MA1100581999999MW1051
0057621030999991967101303004+30133+009500FM-12+033899999V0200901N00101220001CN0250001N9+01721+00281101821ADDAY101999GF100991001001999999001001MD1710021+9999MW1021
0050036880999991967092015004+51967+000500SAO  +0101EGVT V0202301N005112200019N0128001N1+01631+00741100231ADDGF102991999999999999999999MA1999999099021MW1001
008791182022521196707200900D+21333-157917SAO  +0003PHNL V0203301N002610180019N0240001N9+02571+02071101631ADDAA101000095GA1021+007509089GA2061+999999059GF107991999999999999999999MA1999999101591
0255999999341961967082906005+48450+010867SAO  +0466EDOX V02099959000052200059N002200599+01115+01065101985ADDGD10995+9999999GD20995+9999999GD30995+9999999GF101995999999999999999999MA1999999096485MW1055MW2445EQDN01 07281JPWTH 1QNNE11 1 00099E11 1 00099E11 1 00099G11U1 99999K11 1 00051L11 1 00138M11 1 28490N11 1 07281Q11 1 10198S11 1 00052V11 1 00199X11 1 00000
0383700860274011967080406003+70133-143633SAO  +0015BTI  V0201205N005250243849N1040005N1+01285+00725101845ADDGA1021+015244064GA2021+024384034GA3021+036584034GA4011+220009024GD12025+9999999GD23025+9999999GD33025+9999999GD43015+9999999GF107065999999999999999999MA1999999101665MW1001EQDN01 00000JPWTH 1QNNE11 1 00203E11 1 00403E11 1 00402E11 1 00401G11 1 00080H11 1 15050H11 1 23080H11 1 23120H11C1 37999K11 1 00045L11 1 06500M11 1 30020N11 1 00000Q11 1 10184S11 1 00055V11 1 00907X11 1 12010
0070858300999991967032412004-42900-072700FM-12+000399999V0209991C000019999999N0200001N9+00501+00501102201ADDAY111999GF103991031051012501001001KA1999N+00501MD1410001+9999MW1011
0057241430999991967062315004+68733+124000FM-12+004799999V0200901N00721007801CN0500001N9+01221+00891100571ADDAY181999GF107991071091008001091001MD1210081+9999MW1801
0035474120999991967101103004+43050+141333FM-15+001999999V0200901N002619999999N0048001N1+02131+00411102111ADDGF100991999999999999999999MW1041
0035488665999991967051204004+13833+108050SAO  +0765IDMT V0209991C000010300019N0240001N1+02851+01911999999ADDGF107991999999999999999999MW1001
0009718670999991967061806004+53967-101100SAO  +0271CYQD V0201581N005719999999N0000001N1+99999+99999999999ADDMW1001
0035722696999991967031311004+32850-106100SAO  +1251HMN  V0200601N002112200019N0640001N1+00801-00811999999ADDGF102991999999999999999999MW1001
0123325400999991967061200004+52967+158750FM-12+000799999V0202301N00101002401CN0040001N9+01001+00781100301ADDAA199000091AJ100009199999999AY121999GF108991081061002501999999HL10009IA1009IA2999+00729KA1999N+00501MD1710111+9999MW1101
0296999999147861967022803005+40583-073883SAO  +0010NSC  V0202005N010350152449N024000599+00335-00175101395ADDGA1999+015244064GD14085+9999999GD20995+9999999GD30995+9999999GD40995+9999999GF108085999999999999999999MA1999999101295EQDN01 00000JPWTH 1QNNE11 1 00610E11 1 00099E11 1 00099E11 1 00099G11 1 00050H11 1 15050K11 1 00029L11 1 01500M11 1 29910N11 1 00000Q11 1 10139S11 1 00038V11 1 01010X11 1 20020
0288702060266321967032621003+63317-168967SAO  +0009OHC  V0200905N012450021349N0016005N1-00395-00445098395ADDGD14995+9999999GD20995+9999999GD30995+9999999GF108995999999999999999999MA1999999098245MW1385MW2455MW3855EQDN01 05070JPWTH 1N02 08400JPWTH 1QNNE11 1 00699E11 1 00099E11 1 00099G11 1 00007K11 1 00024L11 1 00100M11 1 29010N11 1 05070N11 1 08400Q11 1 09839S11 1 00025V11 1 01099X11 1 09024
0050488660999991967110603004+13983+108000SAO  +0801VVPK V0203001N003612200019N0240001N1+02411+01461101261ADDGF108991999999999999999999MA1999999092961MW1001
0238723540139191967110101003+35417-097383SAO  +0384TIK  V0200705N005750012249N0128005N9+00565+00445999999ADDGD13995+9999999GD23995+9999999GD34995+9999999GD40995+9999999GF108995999999999999999999MW1515EQDN01 03300JPWTH 1QNNE11 1 00499E11 1 00499E11 1 00699E11 1 00099G11 1 00004K11 1 00040L11 1 00800N11 1 03300S11 1 00042V11 1 01099X11 1 07011
0092360870999991967080300004+51267+091167FM-12+999999999V0201401N00311220001CN0500001N9+01391+01111100841ADDAA106020091AA299005091AY181999GF102991021051012501001001KA1999N+01281MD1210061+9999MW1021
0067610520999991967120118004+13483+002167FM-12+023499999V0209991C00001220001CN0150001N9+02891+00891100951ADDAA199000091AY121999GF106991001001999999001061KA1999M+03611MW1021
0070664470999991967080112004-15833+020350FM-12+108899999V0201101N00261220001CN0100001N9+02721+00391999999ADDAY101999GF100991001001999999001001MW1051REMSYN018SPCL PHENOM=195729
0238726815241061967072916003+43050-115867SAO  +0912MUO  V0202905N002652200059N0720005N9+02835+00615999999ADDGD12995+9999999GD20995+9999999GD30995+9999999GD40995+9999999GF102995999999999999999999MW1001EQDN01 00000JPWTH 1QNNE11 1 00299E11 1 00099E11 1 00099E11 1 00099G11U1 99999K11 1 00043L11 1 04500N11 1 00000S11 1 00083V11 1 00299X11 1 29005
0009082210999991967071914004+40450-003550SAO  +0582LEMD V0202481N005119999999N0000001N1+99999+99999999999ADDMW1001
0047106160999991967100823004+49950+007267SAO  +0503EDAH V0202501N003610009019N0036001N9+01331+01221999999ADDGF108991999999999999999999MW1451MW2511MW3611
0057155500999991967072012004+44117+027267FM-12+001699999V0202001N00871090001CN0200001N9+02391+01001102261ADDAY101999GF107991011011017501001021MD1810031+9999MW1031
0057607150999991967120709004+36833+010233FM-12+000499999V0202401N00721220001CN0200001N9+01281+00611101451ADDAY101999GF100991001001999999001001MD1110141+9999MW1021
039499999993815196706201500E+39900-084217SAO  +031399999V0202305N003652200059N008000599+02724+01895101554ADDAA101000095GA1999+999999024GA2999+999999999GA3999+999999999GA4999+999999999GD14085+9999993GD20005+9999999GD30005+9999999GD40005+9999999GF108025999999999999999999MA1999999098004MW1055EQDN01 08100JPWTH 1QNNE11 1 00510E11 1 00000E11 1 00000E11 1 00000G11U1 99999H11C1 37999H11 1 00999H11 1 00999H11 1 00999K11 1 00066L11 1 00500M11 1 28940N11 1 08100Q11 1 10155S11 1 00081V11 1 01003X11 1 23007
0050722485139441967031903004+32500-093667SAO  +0054BAD  V0201001N003612200019N0240001N9+00961-00531102881ADDGF107991999999999999999999MA1999999102241MW1001
0287723825231311967081700003+34583-117383SAO  +0869VCV  V0201105N005750167649N0160005N9+03395+01505101135ADDGD13995+9999999GD23995+9999999GD34995+9999999GD40995+9999999GF108995999999999999999999MA1999999091475MW1171MW2805MW3955EQDN01 01023JPWTH 1QNNE11 1 00499E11 1 00499E11 1 00699E11 1 00099G11 1 00055K11 1 00059L11 1 01000M11 1 27010N11 1 01023Q11 1 10113S11 1 00093V11 1 01099X11 1 11011
0057874800999991967072406004-32900-060767FM-12+002799999V0200201N00211220001CN0180001N9+00501+00391100961ADDAY101999GF100991001001999999001001MD1710091+9999MW1021
0057470690999991967021509004+38033+125700FM-12+008199999V0203201N00621220001CN0200001N9-00501-01611102311ADDAY111999GF100991001001999999001001MD1310061+9999MW1021
0035722055999991967022414004+28433-081300SAO  +0029MCO  V0203201N001012200019N0160001N1+00911+00631999999ADDGF107991999999999999999999MW1001
0069471100999991967042811004+37550+126800SAO  +0020RKSS V0203301N002110003019N0001001N1+01521+01461100981ADDGF108991999999999999999999MA1999999100741MW1451EQDQ01+999990APOSP 
0073605450999991967102812004+33767+002933FM-12+076799999V0209991C00001220001CN0400001N9+02111+01001999999ADDAY121999GA1031+015009089GF103991031021017501001001MD1810201+9999MW1021
0050722597939851967072106004+32833-098050SAO  +0275MWL  V0202401N001010300019N0160001N1+02521+02131101921ADDGF107991999999999999999999MA1999999098781MW1001
0057874800999991967100815004-32900-060767FM-12+002799999V0200201N006219999999N0120001N9+02721+02111100781ADDAY101999GF102991021001999999081001MD1710121+9999MW1101
0078166870999991967013121004+38167+021417FM-12+002399999V0209991C00001220001CN0100001N9+00891+00501103021ADDAY101999GF100991001001999999001001MW1021EQDQ01+000042APCTENQ02+000022APC3  
0057170560999991967032415004+40983+027483FM-12+005599999V0200201N00571007501CN0150001N9+01001+00721101031ADDAY161999GF108991061091008001021999MD1310021+9999MW1601
0068224380999991967112803004+65200+036650FM-12+001899999V0202301N00511220001CN0450001N9+00001+00001102431ADDAA106000091AY111999GF102991021041008001001001MD1210021+9999MW1031
0232999999433131967081119005+35750+139350SAO  +0139RJTY V0203405N001552200059N011200599+02505+02065999999ADDGD12995+9999999GD20995+9999999GD30995+9999999GD40995+9999999GF102995999999999999999999EQDN01 00000JPWTH 1QNNE11 1 00299E11 1 00099E11 1 00099E11 1 00099G11U1 99999K11 1 00069L11 1 00700N11 1 00000S11 1 00077V11 1 00299X11 1 34003
0050488896999991967020815004+11633+108950SAO  +0034VVPA V0203101N002112200019N0160001N1+02411+02021101201ADDGF102991999999999999999999MA1999999100811MW1001
0117242190999991967033000004+67117+109083FM-12+999999999V0209991C000019999999N0200001N9-03391-03611101541ADDAA106001091AA299000391AY171999GF108991021001999999041071HL10009IA1319IA2999-03729KA1999N-03611MD1210071+9999MW1701
0082713953999991967110702004+44883-063517SAO  +0145CYHZ V0202481N002612200019N0320001N1+00131-00421102341ADDGA1011+030009039GA2021+075009009GF102991999999999999999999MA1999999100611MW1001
010783497099999196707131800N-17633-039250BRAZ +0004SBCV V02010019002119999999N010000199+02231+02101101671ADDAA101000091GA1051+006001061GA2081+021001041GF108991999999999999999999MA1101601101621MD1610181+9999MW1531
0050747940128681967071402004+28483-080550SAO  +0003XMR  V0202001N005712200019N0160001N9+02611+02331101561ADDGF107991999999999999999999MA1999999101491MW1171
0050107340999991967031921004+49400+008650SAO  +0109EDIE V0203201N003110210019N0128001N9+00631+00131102341ADDGF108991999999999999999999MA1999999100951MW1001
0043600150999991967022318004+28483-016333FM-12+064199999V0201901N00211220001CN0040001N9+02221-00611101221ADDAY111999GF104991001001999999001091MW1051
0269999999931141967111119005+33700-117833SAO  +001999999V0202705N002652200059N016000599+02614+00945101504ADDGD13995+9999993GD20995+9999999GD30995+9999999GD40995+9999999GF106025999999999999999999MA1999999101294EQDN01 00000JPWTH 1QNNE11 1 00399E11 1 00099E11 1 00099E11 1 00099G11U1 99999K11 1 00049L11 1 01000M11 1 29910N11 1 00000Q11 1 10150S11 1 00079V11 1 00703X11 1 27005
0089103840999991967091921004+52467+013400FM-12+005099999V0201501N00261024001CN0150001N9+01501+01001100791ADDAY121999GA1041+015009059GA2071+024009039GF107991041051017501031999MD1810101+9999MW1031
007772250012919196706160300D+25900-097433SAO  +0006BRO  V0201201N005112200019N0240001N1+02681+02301100901ADDAA101000095GA1011+220009009GF102991999999999999999999MA1999999100851MW1001
0072684240999991967100312004+28400+021267FM-12+080099999V0203201N00411220001CN0500001N9+02941-00941999999ADDAY121999GF101991001001999999001021MA1999999092131MD1710311+9999MW1031
0057162190999991967090109004+42467+012983FM-12+187699999V0200601N00311220001CN0180001N9+01221+00721999999ADDAY101999GF100991001001999999001001MD1110111+9999MW1021
0281704540257041967030120002+51883-176650SAO  +0005ADK  V0202405N012950039649N006400599+00175+00175097695ADDGD12995+9999999GD23995+9999999GD34995+9999999GD40995+9999999GF108085999999999999999999MA1999999097635MW1615MW2715EQDN01 02040JPWTH 1QNNE11 1 00299E11 1 00499E11 1 00699E11 1 00099G11 1 00013K11 1 00035L11 1 00400M11 1 28830N11 1 02040Q11 1 09769S11 1 00035V11 1 01010X11 1 24025
0269999999410131967072608005+15467+108700SAO  +0018IKYU V0200905N002650243849N048000599+03065+02335100475ADDGD12995+9999999GD23995+9999999GD34995+9999999GD40995+9999999GF108055999999999999999999MA1999999099975EQDN01 00000JPWTH 1QNNE11 1 00299E11 1 00499E11 1 00699E11 1 00099G11 1 00080K11 1 00074L11 1 03000M11 1 29520N11 1 00000Q11 1 10047S11 1 00087V11 1 01006X11 1 09005
0035723865231121967033116004+36250-115033SAO  +0570LSV  V0201601N002110300019N0560001N9+01071-00651999999ADDGF108991999999999999999999MW1001
0050723526999991967112921004+35333-099200SAO  +0589KCSM V0201801N005110001519N0006001N9+00351+00351100641ADDGF108991999999999999999999MA1999999093771MW1451
0056488910999991967070200004+11267+106317SAO  +001699999V0201801N002110024019N0080001N1+02521+02411100971ADDGF107991999999999999999999MA1999999100511MW1051MW2451
0324999999272021967070600005+70167-124683SAO  +0016CYUE V02033859003650670649N016000599-00065-00175100685ADDGA1999+001224134GA2999+001834064GA3999+067064024GD19025+9999999GD29035+9999999GD39045+9999999GF108065999999999999999999MA1999999100475EQDN01 00000JPWTH 1QNNE11 1 09902E11 1 09904E11 1 09905G11 1 00220H11 1 13004H11 1 15006H11 1 37220K11 1 00029L11 1 01000M11 1 29670N11 1 00000Q11 1 10068S11 1 00031V11 1 01007W11 1 18007
0269999999230481967050112005+35183-103600SAO  +1237TCC  V0202605N005252200059N048000599+00445-01285100985ADDGD10995+9999999GD20995+9999999GD30995+9999999GD40995+9999999GF100005999999999999999999MA1999999087275EQDN01 00000JPWTH 1QNNE11 1 00099E11 1 00099E11 1 00099E11 1 00099G11U1 99999K11 1 00009L11 1 03000M11 1 25770N11 1 00000Q11 1 10098S11 1 00040V11 1 00000X11 1 26010
0377999999617051967092212005-14333-170717SAO  +000399999V0200905N006252200059N024000599+02675+02335101275ADDGA1999+006104084GA2999+039624034GA3999+999999999GA4999+999999999GD12025+9999999GD22025+9999999GD30005+9999999GD40005+9999999GF104035999999999999999999MA1999999101255EQDN01 00000JPWTH 1QNNE11 1 00203E11 1 00203E11 1 00000E11 1 00000G11U1 99999H11 1 11020H11 1 23130H11 1 00999H11 1 00999K11 1 00074L11 1 01500M11 1 29900N11 1 00000Q11 1 10127S11 1 00080V11 1 00504X11 1 09012
018272785024157196702201500C+47633-117533SAO  +0718GEG  V0200805N000552200059N0320005N1-00615-00725103345ADDAA101000095GF100005999999999999999999MA1999999094555MW1001EQDN01 00000JPWTH 1QNNG11U1 99999K11 1 00019L11 1 02000M11 1 27920N11 1 00000Q11 1 10334S11 1 00021V11 1 00000X11 1 08001
038899999914732196702160000E+40767-073900SAO  +0003LGA  V0202405N006752200059N012800599+01225-00065100915ADDAA101000095GA1999+030484044GA2999+999999024GA3999+999999999GA4999+999999999GD12025+9999999GD24085+9999999GD30005+9999999GD40005+9999999GF108075999999999999999999MA1999999100715EQDN01 00000JPWTH 1QNNE11 1 00203E11 1 00610E11 1 00000E11 1 00000G11C1 99999H11 1 21100H11C1 37999H11 1 00999H11 1 00999K11 1 00031L11 1 00800M11 1 29740N11 1 00000Q11 1 10091S11 1 00054V11 1 01009X11 1 24013
0035042020999991967052902004+76533-068750SAO  +0077BGTL V0200801N007210360019N0400001N9+00461-00531999999ADDGF108991999999999999999999MW1001
0281999999148551967120713005+42083-087833SAO  +0197NBU  V0202105N004150070149N004800599+01005+00945100325ADDGD13995+9999999GD24995+9999999GD30995+9999999GD40995+9999999GF108085999999999999999999MA1999999097975MW1045MW2455EQDN01 07080JPWTH 1QNNE11 1 00499E11 1 00699E11 1 00099E11 1 00099G11 1 00023K11 1 00049L11 1 00300M11 1 28930N11 1 07080Q11 1 10032S11 1 00050V11 1 01010X11 1 21008
0057153500999991967033115004+45150+026817FM-12+010399999V0200501N00871024001CN0150001N9+01391+00781101311ADDAY121999GF106991061001999999071001MD1710151+9999MW1021
031999999914848196709270800E+41700-086317SAO  +0236SBN  V0203605N005250030549N008000599+01115+01065101135ADDAA101001395GA1999+003054134GD14085+9999999GD20995+9999999GD30995+9999999GD40995+9999999GF108085999999999999999999MA1999999098375MW1455MW2615EQDN01 02070JPWTH 1QNNE11 1 00610E11 1 00099E11 1 00099E11 1 00099G11 1 00010H11 1 13010K11 1 00051L11 1 00500M11 1 29050N11 1 02070Q11 1 10113S11 1 00052V11 1 01010X11 1 36010
0269999999230901967012421005+36750-108233SAO  +167799999V0201205N007250365849N080000599+00565-01065101765ADDGD12995+9999999GD23995+9999999GD33995+9999999GD40995+9999999GF107055999999999999999999MA1999999083145EQDN01 00000JPWTH 1QNNE11 1 00299E11 1 00499E11 1 00499E11 1 00099G11 1 00120K11 1 00013L11 1 05000M11 1 24550N11 1 00000Q11 1 10176S11 1 00042V11 1 00906X11 1 12014
0073162800999991967071200004+40917+012950FM-12+018599999V0209991C00001220001CN0250001N9+02111+01501101571ADDAY111999GA1011+027009039GF101991011001999999031001MD1010011+9999MW1011
0087471060999991967112212004+37750+127050SAO  +0056RKSB V0209991C000012200019N0048001N9+00081-00371103101ADDAA124000091GF102991999999999999999999KA1999M+00801KA2999N-00541MA1999999102401MW1051
005883583099999196710282100N-19850-043950BRAZ +0785SBBH V02036019999999999999N020000199+02301+01801100921ADDGF100991999999999999999999MA1101391092311MD1610071+9999
0232999999948241967031916005+46250-084467SAO  +0262INR  V0202805N005252200059N032000599-00224-01225999999ADDGD12995+9999999GD20995+9999999GD30995+9999999GD40995+9999999GF103995999999999999999999EQDN01 00000JPWTH 1QNNE11 1 00299E11 1 00099E11 1 00099E11 1 00099G11U1 99999K11 1 00010L11 1 02000N11 1 00000S11 1 00028V11 1 00499X11 1 28010
010694821099999196704032030N-37750+140780AUST +0069YMMG V0203605N006259999999N999999999+02115+00605999999ADDAY134999GA1005+999999999GA2005+999999999GA3075+999999999GF107995004999999999999085MA1999999100245MW1035
0067107380999991967111003004+48683+009217SAO  +0398EDDS V0202801N003110105019N0064001N9+00631+00301102131ADDGA1051+010509059GA2071+027009049GF107991999999999999999999MW1611
0057256770999991967101215004+63050+179150FM-12+000199999V0203201N00721012301CN0500001N9-00501-00891101281ADDAY121999GF108991081051012501999999MD1210021+9999MW1021
0073601070999991967122409004+35183-003850FM-12+001499999V0201401N00151220001CN0120001N9+01111+00891102541ADDAY101999GA1011+001809089GF102991011051004501001011MD1310041+9999MW1011
0035722270138641967081023004+33917-084517SAO  +0329MGE  V0202901N003110300019N0064001N9+02461+02181999999ADDGF108991999999999999999999MW1051
0050722576039021967031621004+31067-097833SAO  +0309GRK  V0200501N002612200019N0240001N9+02021+00081102691ADDGF102991999999999999999999MA1999999098981MW1001
0075606300999991967022506004+27200+002467FM-12+024399999V0209999999999220001CN0100001N9+02281+00391101531ADDAA199000091GA1011+075009009GF101991001001999999001021KA1999N+02281MW1001
0150268940999991967041606004+53533+033717FM-12+017499999V0201801N00311002701CN0030001N9+00781+00721101351ADDAA106016091AA299004091AJ100009199999999AY161999GA1081+002709079GF108991081061002501999999HL10009IA1089IA2999+00619KA1999N+00721MD1710111+9999MW1101
0057155140999991967070400004+43733+023967FM-12+003199999V0209991C00001220001CN0100001N9+01891+01721101391ADDAY101999GF100991001001999999001001MD1810031+9999MW1021
005994999900339196705030500N-41720+147080AUST +0150     V0203385N002659999999N999999999+01925+00805999999ADDAY154999GA1005+999999999GF100995004999999999999999MW1045
0057315040999991967081606004+51350+139100FM-12+002099999V0201101N00211030001CN0200001N9+01611+01001100871ADDAY121999GF107991031051008001081001MD1710031+9999MW1021
0275722925931171967100222003+33017-118583SAO  +0051NUC  V0202405N002650045749N0128005N1+02225+01615101165ADDGD13995+9999999GD20995+9999999GD30995+9999999GD40995+9999999GF105055999999999999999999MA1999999100585MW1001EQDN01 00000JPWTH 1QNNE11 1 00499E11 1 00099E11 1 00099E11 1 00099G11 1 00015K11 1 00061L11 1 00800M11 1 29700N11 1 00000Q11 1 10116S11 1 00072V11 1 00606X11 1 24005
0281999999253221967030804005+58417-135700SAO  +000699999V0201205N005250036649N008000599+00225+00115099395ADDGD15995+9999999GD20995+9999999GD30995+9999999GD40995+9999999GF108085999999999999999999MA1999999099295MW1455MW2615EQDN01 02070JPWTH 1QNNE11 1 00799E11 1 00099E11 1 00099E11 1 00099G11 1 00012K11 1 00034L11 1 00500M11 1 29320N11 1 02070Q11 1 09939S11 1 00036V11 1 01010X11 1 12010
0035106140999991967053004004+49417+007583SAO  +0240EDAR V0200601N001010210019N0006001N9+00831+00781999999ADDGF108991999999999999999999MW1451
0249725895942361967050211003+42150-121733SAO  +1245LMT  V02099959000052200059N0240005N9-00175-00725102245ADDGD10995+9999999GD20995+9999999GD30995+9999999GD40995+9999999GF100995999999999999999999MW1001EQDN01 00000JPWTH 1QNNE11 1 00099E11 1 00099E11 1 00099E11 1 00099G11U1 99999K11 1 00019L11 1 01500N11 1 00000Q11 1 10224S11 1 00029V11 1 00099X11 1 00000
0232999999139041967102019005+30200-097667SAO  +0154BSM  V0201605N004152200059N024000599+02445+00835999999ADDGD12995+9999999GD20995+9999999GD30995+9999999GD40995+9999999GF101995999999999999999999EQDN01 00000JPWTH 1QNNE11 1 00299E11 1 00099E11 1 00099E11 1 00099G11U1 99999K11 1 00047L11 1 01500N11 1 00000S11 1 00076V11 1 00199X11 1 16008
0281722165138151967121516003+31583-084117SAO  +0068TRF  V0202705N001550036649N0080005N1+02115+01895102245ADDGD14995+9999999GD20995+9999999GD30995+9999999GD40995+9999999GF108085999999999999999999MA1999999101465MW1111MW2445EQDN01 07200JPWTH 1QNNE11 1 00699E11 1 00099E11 1 00099E11 1 00099G11 1 00012K11 1 00066L11 1 00500M11 1 29960N11 1 07200Q11 1 10224S11 1 00070V11 1 01010X11 1 27003
0066713953999991967061001004+44883-063517SAO  +0145CYHZ V0201581N003110003019N0004001N1+00911+00911101371ADDGA1091+000309999GF109991999999999999999999MA1999999099661MW1451
0073345600999991967031215004+48683+044350FM-12+014599999V0201901N00511001801CN0040001N9-00391-00611102621ADDAY121999GA1081+001809079GF108991081061001501999999MD1710101+9999MW1101
0079237740999991967020312004+62533+086167FM-12+999999999V0201801N00411220001CN0200001N9-03501-03891102041ADDAA106002091AA299000591AY171999GF102991001001999999001021MD1210041+9999MW1011
0057470350999991967062403004+40100+124383FM-12+000899999V0201801N00211007801CN0100001N9+02501+02001100731ADDAY121999GF106991061051008001001011MD1810071+9999MW1011
0050484005999991967080906004+15233+100283SAO  +0037VTPI V0209991C000010360019N0240001N1+03181+02411100811ADDGF108991999999999999999999MA1999999100341MW1001
0050726071146061967092103004+44800-068833SAO  +0059BGR  V0201801N002610021019N0128001N9+01351+01131102151ADDGF108991999999999999999999MA1999999101391MW1001
0057154050999991967122800004+44750+027300FM-12+005199999V0203601N00721007801CN0100001N9+00281+00281101461ADDAY111999GF108991081051008001999999MD1210161+9999MW1031
038899999923225196707282100E+39283-120700SAO  +1609BLU  V0202205N004150365849N040000599+02445+01115101595ADDAA101000095GA1999+036584034GA2999+999999004GA3999+999999999GA4999+999999999GD13055+9999999GD23015+9999999GD30005+9999999GD40005+9999999GF106055999999999999999999MA1999999084525EQDN01 00000JPWTH 1QNNE11 1 00406E11 1 00401E11 1 00000E11 1 00000G11 1 00120H11 1 23120H11C1 32999H11 1 00999H11 1 00999K11 1 00052L11 1 02500M11 1 24960N11 1 00000Q11 1 10159S11 1 00076V11 1 00706X11 1 22008
0091800910999991967031000004+07000-073783FM-12+013499999V0209991C000019999999N0050001N9+03001+02281100571ADDAY141999GF102991021021008001001001MA1999999100571MD1210011+9999MW1051EQDQ01+000002APC3  
0072151700999991967041012004+46367+025733FM-12+068999999V0201601N00211220001CN0100001N9+01501+00721999999ADDAY121999GF104991021021017501041011MA1999999103731MD1710151+9999MW1031
0082740740999991967080406004+78783-103533SAO  +0025CYIC V0202481N003110210019N0160001N1+00081-00041101591ADDGA1021+001209079GA2061+021009039GF108991999999999999999999MA1999999101251MW1001
0067677810999991967012006004+17417+032217FM-12+124599999V0201101N00211045001CN0040001N9+01941+01891999999ADDAY191999GF105991031061001501071021MA1999999087641ME1315089MW1411
0057228200999991967122715004+61817+034267FM-12+004099999V0202701N00511024001CN0044001N9-01501-01721099971ADDAY171999GF108991081001999999021999MD1210081+9999MW1731
0383999999938411967092106005+30717-087017SAO  +0054NSE  V02099959000052200059N009600599+02334+01785101744ADDGA1999+999999024GA2999+999999999GA3999+999999999GA4999+999999999GD13065+9999993GD20005+9999999GD30005+9999999GD40005+9999999GF106025999999999999999999MA1999999101124MW1055EQDN01 08100JPWTH 1QNNE11 1 00308E11 1 00000E11 1 00000E11 1 00000G11U1 99999H11C1 37999H11 1 00999H11 1 00999H11 1 00999K11 1 00064L11 1 00600M11 1 29860N11 1 08100Q11 1 10174S11 1 00074V11 1 00803X11 1 00000
0275724567139211967052421003+39367-094917SAO  +0239FLV  V0202105N004652200059N0160005N1+03335+01285100915ADDGD13995+9999993GD20995+9999999GD30995+9999999GD40995+9999999GF106995999999999999999999MA1999999098175MW1001EQDN01 00000JPWTH 1QNNE11 1 00399E11 1 00099E11 1 00099E11 1 00099G11U1 99999K11 1 00055L11 1 01000M11 1 28990N11 1 00000Q11 1 10091S11 1 00092V11 1 00799X11 1 21009
0035036553999991967011601004+51933-001250SAO  +0133EGUA V0202001N001510024019N0064001N9+00171-00111999999ADDGF108991999999999999999999MW1051
0092209430999991967071618004+70700+057617FM-12+999999999V0203201N00411004501CN0200001N9+00391+00221101491ADDAA106000091AA299000391AY161999GF108991081051004501999999KA1999M+00611MD1210031+9999MW1021
0057225630999991967050812004+64700+043400FM-12+002899999V0201801N00511075001CN0500001N9+01221-00281102331ADDAY111999GF107991021001022501031081MD1710251+9999MW1031
0050471270432161967070309004+36967-127067SAO  +0019RKSG V0202801N009312200019N0160001N9+02441+01781099561ADDGF100991999999999999999999MA1999999099391MW1001
0092279730999991967072818004+53100+046600FM-12+025599999V0200201N00411220001CN0100001N9+01721+01611101041ADDAA106008091AA299002091AY191999GF104991021041012501001011KA1999M+02611MD1210071+9999MW1011
0057153100999991967010412004+45500+028017FM-12+007299999V0202301N00721220001CN0060001N9+00001-00221101621ADDAY111999GF102991021001999999041001MD1810011+9999MW1101
0029726055999991967040604004+43083-070817SAO  +0031PSM  V0200401N002612200019N0320001N9+00831-00111999999ADDGF100991999999999999999999
0238725038147141967112913003+41500-074100SAO  +0177SWF  V0202405N003652200059N0320005N1-00565-01285999999ADDGD10995+9999999GD20995+9999999GD30995+9999999GD40995+9999999GF100995999999999999999999MW1001EQDN01 00000JPWTH 1QNNE11 1 00099E11 1 00099E11 1 00099E11 1 00099G11U1 99999K11 1 00009L11 1 02000N11 1 00000S11 1 00022V11 1 00099X11 1 24007
0068221650999991967082721004+68650+043300FM-12+000599999V0201601N00411220001CN0350001N9+00891+00611102391ADDAA106000091AY101999GF100991001001999999001001MD1810041+9999MW1011
0035107120999991967040811004+49500-007867SAO  +0321EDAS V0201501N003110120019N0128001N9+00741-00151999999ADDGF107991999999999999999999MW1001
0057167300999991967091618004+37450+024950FM-12+003599999V0203001N00261220001CN0500001N9+02501+01611100711ADDAY101999GF101991001001999999001011MD1310081+9999MW1021
0420783670117061967052012003+19900-075150SAO  +0016MUGM V0203505N003150243849N0192005N9+02445+02115101675ADDAA124001091GA1021+006104084GA2021+024384034GA3021+220009004GA4999+999999999GD12025+9999999GD23025+9999999GD33025+9999999GD40005+9999999GF106055999999999999999999KA1999M+03131KA2999N+02301MA1999999101425MW1001EQDN01 00000JPWTH 1QNNE11 1 00203E11 1 00403E11 1 00402E11 1 00000G11 1 00080H11 1 11020H11 1 23080H11C1 32999H11 1 00999K11 1 00070L11 1 01200M11 1 29950N11 1 00000Q11 1 10167S11 1 00076V11 1 00806X11 1 35006
0269999999107191967010416005+99999+999999SAO  +999999999V0200305N005252200059N011200599+02785+02445101305ADDGD12995+9999999GD22995+9999999GD30995+9999999GD40995+9999999GF103035999999999999999999MA1999999101295EQDN01 00000JPWTH 1QNNE11 1 00299E11 1 00299E11 1 00099E11 1 00099G11U1 99999K11 1 00076L11 1 00700M11 1 29910N11 1 00000Q11 1 10130S11 1 00082V11 1 00404X11 1 03010
0057279470999991967032609004+52733+041467FM-12+013999999V0203401N00101220001CN0040001N9-00111-00281101981ADDAY121999GF107991001001999999001021MD1210121+9999MW1101
0041722436129061967082714004+29617-095167SAO  +0012EFD  V0209991C000010240019N0064001N9+02521+02351999999ADDGF107991999999999999999999MW1041MW2111
038899999923160196706230000E+32133-110933SAO  +0786TUS  V0202905N006252200059N112000599+03945+00445100305ADDAA101000095GA1999+999999084GA2999+999999004GA3999+999999999GA4999+999999999GD10005+9999999GD20005+9999999GD30005+9999999GD40005+9999999GF100005999999999999999999MA1999999091845EQDN01 00000JPWTH 1QNNE11 1 00000E11 1 00000E11 1 00000E11 1 00000G11U1 99999H11 1 11999H11 1 32999H11 1 00999H11 1 00999K11 1 00040L11 1 07000M11 1 27120N11 1 00000Q11 1 10030S11 1 00103V11 1 00000X11 1 29012
0044476790999991967022422004+35450+139450SAO  +0065RJTA V0203601N004610051019N0048001N9+00351+00241101101ADDGF108991999999999999999999MA1999999100301
010695866099999196710121100N-37730+144900AUST +0081YMEN V0203385N004159999999N999999999+01285+00805999999ADDAY114999GA1005+999999999GA2005+999999999GA3065+999999999GF106995004999999999999085MA1999999100585MW1025
008294999900005196701250100N-16400+122930AUST +0026     V0202255N015959999999N999999999+02735+02305999999ADDGA1045+003005115GA2045+999999035GF108995044075003005075999MA1999999099735MW1185
0043317350999991967070815004+48517+135167FM-12+0072UHHH V0203401N00101220001CN0100001N9+01781+01611100501ADDAY101999GF100991001001999999001001MW1021
0057104100999991967011221004+51400+006967FM-12+015499999V0202901N00571001501CN0030001N9+00221+00111102291ADDAY151031GF108991081071001501999999MD1110051+9999MW1591
034099999994830196709200300E+41600-083800SAO  +0204TOL  V0201505N001050121949N006400599+01834+01675101754ADDAA101000095GA1999+012194064GA2999+024384034GD13065+9999999GD24025+9999999GD30995+9999999GD40995+9999999GF108085999999999999999999MA1999999099264MW1455EQDN01 07000JPWTH 1QNNE11 1 00407E11 1 00603E11 1 00099E11 1 00099G11 1 00040H11 1 15040H11 1 23080K11 1 00062L11 1 00400M11 1 29310N11 1 07000Q11 1 10175S11 1 00065V11 1 01010X11 1 15002
0377999999930371967010915005+38817-104717SAO  +1873COS  V0200205N004152200059N160000599-00674-02115103424ADDGA1999+036584034GA2999+999999024GA3999+999999999GA4999+999999999GD11005+9999993GD20025+9999999GD30005+9999999GD40005+9999999GF102005999999999999999999MA1999999081884EQDN01 00000JPWTH 1QNNE11 1 00100E11 1 00002E11 1 00000E11 1 00000G11U1 99999H11 1 23120H11C1 37999H11 1 00999H11 1 00999K11 1-00006L11G1 10000M11 1 24180N11 1 00000Q11 1 10342S11 1 00020V11 1 00200X11 1 02008
0238727755241121967011904003+47517-111167SAO  +1056GFA  V0202205N005250274349N0144005N9-00115-00945999999ADDGD13995+9999999GD24995+9999999GD30995+9999999GD40995+9999999GF108995999999999999999999MW1001EQDN01 00000JPWTH 1QNNE11 1 00499E11 1 00699E11 1 00099E11 1 00099G11 1 00090K11 1 00015L11 1 00900N11 1 00000S11 1 00030V11 1 01099X11 1 22010
0069484310999991967031910004+14967+102117SAO  +0188VTUN V0201601N002612200019N0128001N1+03681+01241100341ADDGF107991999999999999999999MA1999999097921MW1001EQDQ01+999990APOSP 
0067354060999991967083103004+49050+051867FM-12+000499999V0200901N00101220001CN0500001N9+01281+00001101501ADDAA199000091AY111999GF107991001001999999001011KA1999N+01281MW1031
0050479310999991967031615004+26350+127767SAO  +0046RODN V0201701N002612200019N0200001N9+01721+01331101731ADDGF100991999999999999999999MA1999999101191MW1001
0050724088137071967081009004+39133-075467SAO  +0009KDOV V0202101N002610180019N0112001N9+02391+02161100881ADDGF107991999999999999999999MA1999999100751MW1001
0125219310999991967121600004+70750+136217FM-12+002299999V0202701N00101220001CN0200001N9-03781-04111101491ADDAA106000091AY101999GF100991001001999999001001HL10009IA1319IA2999-04009KA1999N-03781MD1810031+9999MW1021EQDQ01  00003PRCP99
0035489130999991967080720004+09600+105967SAO  +0005VVBX V0202401N002112200019N0112001N1+02631+02571100821ADDGF108991999999999999999999MW1001
0095170980999991967111712004+40600+043083FM-12+175099999V0201501N00101220001CN0300001N9+00891-00781999999ADDAJ100009199999999AY101999GF100991001001999999001001IA1089MA1999999082111MD1710121+9999MW1011
0074160880999991967101721004+45417+010283FM-12+012199999V0209991C00001220001CN0020001N9+01781+01611999999ADDAY121999GA1041+010509089GF106991999999999999999999MA1101591999999MW1101
0050085090999991967100500004+38767-027100SAO  +0055LPLA V0202201N007212200019N0192001N9+02411+02021101731ADDGF102991999999999999999999MA1999999101021MW1001
0035746710138061967012001004+36667-087500SAO  +0174HOP  V0202001N002110048019N0112001N9-00041-00481999999ADDGF108991999999999999999999MW1001
0057249510999991967083115004+60817+125150FM-12+011899999V0202701N00511002401CN0500001N9+00391+00221100691ADDAY161999GF108991051071002501021999MD1710031+9999MW1011
007191182022521196712171500D+21333-157917SAO  +0003PHNL V0201401N008710075019N0240001N9+02521+02021101021ADDAA101000095GA1061+007509089GF107991999999999999999999MA1999999100981
0057226570999991967032015004+63067+040350FM-12+010899999V0202001N00211220001CN0210001N9+00001-01111101741ADDAY121999GF107991001001999999001071MD1410001+9999MW1021
0073226210999991967081203004+63733+034300FM-12+010299999V0209991C00001012001CN0200001N9+01281+01111101451ADDAY111999GA1071+012009059GF107991071051012501001001MD1210021+9999MW1031
0081286610999991967092218004+55467+065400FM-12+007999999V0202901N00311030001CN0100001N9+00391+00001102311ADDAA199000091AY121999GF107991031051012501031001KA1999M+00721MD1210091+9999MW1021
0081277190999991967041406004+54200+037483FM-12+016299999V0202901N00311007801CN0100001N9+00391+00111102621ADDAA199000091AY121999GF107991071051008001001001KA1999N+00111MD1010041+9999MW1021
006982930099999196707092300N-09367-054900BRAZ +0432SBXI V02036019000019999999N020000199+01901+01701100921ADDAA101000091GF100991999999999999999999MA1101001096041MD1310131+9999
0048476350999991967053101004+35250+136933FM-15+0017RJNN V0202501N002619999999N0160001N1+03021+01131100591ADDGF100991999999999999999999EQDQ01+000000PRSWM2
0057279570999991967061221004+52650+042717FM-12+013099999V0201401N00101220001CN0100001N9+01781+01221101981ADDAY111999GF102991001001999999001021MD1310141+9999MW1011
0068222920999991967013012004+67700+048767FM-12+999999999V0201101N00411220001CN0200001N9-03611-03891102761ADDAA106000091AY101999GF100991001001999999001001MD1210161+9999MW1021
0377999999225141967080109005+21317-158067SAO  +0015HNA  V0200705N000552200059N024000599+02505+02115101775ADDGA1999+008534084GA2999+999999004GA3999+999999999GA4999+999999999GD12025+9999999GD22015+9999999GD30005+9999999GD40005+9999999GF102025999999999999999999MA1999999101595EQDN01 00000JPWTH 1QNNE11 1 00202E11 1 00201E11 1 00000E11 1 00000G11U1 99999H11 1 11028H11C1 32999H11 1 00999H11 1 00999K11 1 00070L11 1 01500M11 1 30000N11 1 00000Q11 1 10177S11 1 00077V11 1 00303X11 1 07001
0275999999176051967071415005+76517-068833SAO  +0077BGTL V0201005N013450121949N040000599+00505-00505100875ADDGD12995+9999999GD23995+9999999GD34995+9999999GD40995+9999999GF108995999999999999999999MA1999999099905MW1615EQDN01 02000JPWTH 1QNNE11 1 00299E11 1 00499E11 1 00699E11 1 00099G11 1 00040K11 1 00023L11 1 02500M11 1 29500N11 1 02000Q11 1 10087S11 1 00041V11 1 01099X11 1 10026
0035745160232021967091519004+38267-121933SAO  +0019SUU  V0202301N005112200019N0160001N9+02441+01221999999ADDGF100991999999999999999999MW1001
010694430099999196702201900N-26620+118550AUST +0518YPMR V0200905N002159999999N999999999+02165+01905999999ADDAY134999GA1005+999999999GA2005+999999999GA3015+999999999GF101995004999999999999025MA1999999094695MW1035
0057166850999991967092412004+38200+020500FM-12+000899999V0200401N00821220001CN0150001N9+02721+02001101731ADDAY111999GF101991011021012501001011MD1710041+9999MW1021
0269999999350461967122215005+52367+000483SAO  +0010EGUN V0202205N007250182949N012800599+01285+00835101215ADDGD12995+9999999GD23995+9999999GD34995+9999999GD40995+9999999GF108995999999999999999999MA1999999101085EQDN01 00000JPWTH 1QNNE11 1 00299E11 1 00499E11 1 00699E11 1 00099G11 1 00060K11 1 00047L11 1 00800M11 1 29850N11 1 00000Q11 1 10121S11 1 00055V11 1 01099X11 1 22014
0035701730999991967011414004+66000-153700SAO  +0392PAIM V0202901N003112200019N0160001N9-03031-04251999999ADDGF102991999999999999999999MW1001
0057260940999991967081921004+59650+033500FM-12+004599999V0209991C00001220001CN0130001N9+01001+00891101681ADDAY101999GF106991001001999999001011MD1210031+9999MW1021
0058160840999991967112100004+44917+009733FM-12+014099999V0209991C00001220001CN0120001N9+00391+00221999999ADDAY101999GF100991001001999999001001MA1102911999999MW1021
0087219460999991967012215004+70617+147883FM-12+004899999V0202301N00211220001CN0040001N9-04281-04501101061ADDAA106999999AY171999GF108991001001999999001071MD1210101+9999MW1711EQDQ01  00002PRCP06
0383724040137211967110321003+38300-076417SAO  +0014NHK  V0201405N003152200059N0160005N1+01565+01115101065ADDGA1021+013724084GA2011+036584034GA3011+220009004GA4999+999999999GD12025+9999999GD22015+9999999GD32015+9999999GD40005+9999999GF103025999999999999999999MA1999999100915MW1001EQDN01 00000JPWTH 1QNNE11 1 00202E11 1 00201E11 1 00201E11 1 00000G11U1 99999H11 1 11045H11 1 23120H11C1 32999H11 1 00999K11 1 00052L11 1 01000M11 1 29800N11 1 00000Q11 1 10106S11 1 00060V11 1 00403X11 1 14006
039472363023047196703200900C+35233-101700SAO  +1100AMA  V0203305N007252200059N0240005N1+00725+00505101155ADDAA101000095GA1021+220009004GA2999+999999999GA3999+999999999GA4999+999999999GD11025+9999993GD20005+9999999GD30005+9999999GD40005+9999999GF102005999999999999999999MA1999999088895MW1001EQDN01 00000JPWTH 1QNNE11 1 00102E11 1 00000E11 1 00000E11 1 00000G11U1 99999H11C1 32999H11 1 00999H11 1 00999H11 1 00999K11 1 00041L11 1 01500M11 1 26250N11 1 00000Q11 1 10115S11 1 00045V11 1 00200X11 1 33014
0383724040137211967020106003+38300-076417SAO  +0014NHK  V0202105N005252200059N0128005N1+00725-00175101665ADDGA1011+220009004GA2999+999999999GA3999+999999999GA4999+999999999GD12015+9999999GD20005+9999999GD30005+9999999GD40005+9999999GF101015999999999999999999MA1999999101495MW1001EQDN01 00000JPWTH 1QNNE11 1 00201E11 1 00000E11 1 00000E11 1 00000G11U1 99999H11C1 32999H11 1 00999H11 1 00999H11 1 00999K11 1 00029L11 1 00800M11 1 29970N11 1 00000Q11 1 10166S11 1 00045V11 1 00101X11 1 21010
0377999999931141967121021005+33700-117833SAO  +001999999V02099959000052200059N024000599+01784+00565102004ADDGA1999+999999004GA2999+999999999GA3999+999999999GA4999+999999999GD11025+9999993GD20005+9999999GD30005+9999999GD40005+9999999GF102005999999999999999999MA1999999101794EQDN01 00000JPWTH 1QNNE11 1 00102E11 1 00000E11 1 00000E11 1 00000G11U1 99999H11C1 32999H11 1 00999H11 1 00999H11 1 00999K11 1 00042L11 1 01500M11 1 30060N11 1 00000Q11 1 10200S11 1 00064V11 1 00200X11 1 00000
0092325640999991967033100004+52667+156233FM-12+000799999V0202501N00311007801CN0200001N9-00721-01001100071ADDAA106001091AA299000391AY181999GF106991061091008001001001KA1999N-01281MD1210171+9999MW1261
0059165460999991967051418004+39350+008967FM-12+003399999V0201301N00461220001CN0080001N9+02221+01891999999ADDAY111999GA1021+027009039GF104991999999999999999999MW1101
0069488490999991967041922004+16817+107100SAO  +002599999V0203401N001010051019N0112001N1+02301+02181101211ADDGF108991999999999999999999MA1999999101191MW1001EQDQ01+999990APOSP 
0269999999176051967031403005+76517-068833SAO  +0077BGTL V0200705N002152200059N014400599-01945-03175100375ADDGD11995+9999993GD20995+9999999GD30995+9999999GD40995+9999999GF101995999999999999999999MA1999999099325EQDN01 00000JPWTH 1QNNE11 1 00199E11 1 00099E11 1 00099E11 1 00099G11U1 99999K11 1-00025L11 1 00900M11 1 29330N11 1 00000Q11 1 10037S11 1-00003V11 1 00199X11 1 07004
0073110180999991967052709004+48117+014867FM-12+033799999V0201401N00101220001CN0400001N9+01611+00721102211ADDAY111031GA1021+039009039GF102991021001999999041001MD1410001+9999MW1011
0269999999038551967122619005+30350-087317SAO  +0010NPA  V0203205N004152200059N012800599+01505+00335102075ADDGD10995+9999999GD20995+9999999GD30995+9999999GD40995+9999999GF100005999999999999999999MA1999999101965EQDN01 00000JPWTH 1QNNE11 1 00099E11 1 00099E11 1 00099E11 1 00099G11U1 99999K11 1 00038L11 1 00800M11 1 30110N11 1 00000Q11 1 10207S11 1 00059V11 1 00000X11 1 32008
0081260380999991967072206004+59417+024800FM-12+004499999V0201801N00511220001CN0200001N9+01611+01391101681ADDAA199000091AY111999GF102991011011008001031011KA1999N+01281MD1010091+9999MW1011
0050702220999991967102413004+64733-156933SAO  +0046PAGA V0209991C000012200019N0128001N9-01671-01781101121ADDGF107991999999999999999999MA1101021100471MW1001
0035471580999991967013017004+35117+126817SAO  +0013RKJJ V0203301N003112200019N0112001N9-00531-00811102911ADDGF100991999999999999999999MW1001
039470261026411196704061800C+64817-147867SAO  +0134FAI  V02099959000052200059N0160005N1-00065-00115100945ADDAA101000095GA1011+009144064GA2021+033534034GA3011+220009024GA4999+999999999GD12015+9999999GD22025+9999999GD32015+9999999GD40005+9999999GF104035999999999999999999MA1999999099225MW1001EQDN01 00000JPWTH 1QNNE11 1 00201E11 1 00203E11 1 00201E11 1 00000G11U1 99999H11 1 15030H11 1 23110H11C1 37999H11 1 00999K11 1 00030L11 1 01000M11 1 29300N11 1 00000Q11 1 10094S11 1 00031V11 1 00504X11 1 00000
0296999999275081967031712005+70617-159850SAO  +002799999V0202205N006250061049N016000599-00175-00505101725ADDGA1999+006104064GD14085+9999999GD20995+9999999GD30995+9999999GD40995+9999999GF108085999999999999999999MA1999999101425EQDN01 00000JPWTH 1QNNE11 1 00610E11 1 00099E11 1 00099E11 1 00099G11 1 00020H11 1 15020K11 1 00023L11 1 01000M11 1 29950N11 1 00000Q11 1 10172S11 1 00029V11 1 01010X11 1 22012
0275690070932171967100309003+36683-121767SAO  +0044OAR  V02099959000052200059N0160005N9+01225+01065101495ADDGD12995+9999999GD20995+9999999GD30995+9999999GD40995+9999999GF103995999999999999999999MA1999999100955MW1001EQDN01 00000JPWTH 1QNNE11 1 00299E11 1 00099E11 1 00099E11 1 00099G11U1 99999K11 1 00051L11 1 01000M11 1 29810N11 1 00000Q11 1 10149S11 1 00054V11 1 00499X11 1 00000
0050747770038521967030403004+30417-086683SAO  +0014HRT  V0201001N002112200019N0064001N9+01691+01461101861ADDGF102991999999999999999999MA1999999101731MW1111
0057276120999991967051409004+55750+037550FM-12+0156UUDD V0202301N00721220001CN0100001N9+02111+00721101791ADDAY111999GF106991041011012501001011MD1710231+9999MW1031
0057874360999991967092018004-33250-066333FM-12+071399999V0201101N004119999999N0400001N9+02001-00611999999ADDAY101999GF101991011011017501001001MD1710161+9999MW1031
0057256210999991967082203004+64000+158917FM-12+068399999V0209991C00001007801CN0500001N9+00781+00611101341ADDAY121999GF108991081091008001999999MD1310031+9999MW1801
0090802110999991967032912004+04517-075650FM-12+121799999V0203601N00311024001CN0150001N9+01721+01611999999ADDAY151999GA1999+007509039GA2061+024009089GF108991031061008001021999MA1999999087891MW1151
038899999913988196709241200E+39117-094600SAO  +0226MKC  V0200305N002152200059N019200599+00945+00615102185ADDAA101000095GA1999+999999004GA2999+999999999GA3999+999999999GA4999+999999999GD10005+9999999GD20005+9999999GD30005+9999999GD40005+9999999GF100005999999999999999999MA1999999099465EQDN01 00000JPWTH 1QNNE11 1 00000E11 1 00000E11 1 00000E11 1 00000G11U1 99999H11 1 32999H11 1 00999H11 1 00999H11 1 00999K11 1 00043L11 1 01200M11 1 29370N11 1 00000Q11 1 10218S11 1 00049V11 1 00000X11 1 03004
0113101470999991967101206004+53633+010000FM-12+001699999V0201801N00261027001CN0030001N9+01281+01221101431ADDAA199000691AY111999GA1041+003009079GA2061+027009049GF107991041061004501071999KA1999N+01111MD1010031+9999MW1611
0291743920146111967072305003+43900-069933SAO  +0021NHZ  V0201905N001050006149N0004005N1+01785+01675101635ADDGD15995+9999999GD20995+9999999GD30995+9999999GD40995+9999999GF108085999999999999999999MA1999999101355MW1455EQDQ01    003PRSWM1N01 07000JPWTH 1QNNE11 1 00799E11 1 00099E11 1 00099E11 1 00099G11 1 00002K11 1 00062L11 1 00025M11 1 29930N11 1 07000Q11 1 10163S11 1 00064V11 1 01010X11 1 19002
0238724037937281967010708003+38717-077183SAO  +0024DAA  V0201705N002652200059N0112005N9+00005-00395999999ADDGD11995+9999993GD20995+9999999GD30995+9999999GD40995+9999999GF102995999999999999999999MW1001EQDN01 00000JPWTH 1QNNE11 1 00199E11 1 00099E11 1 00099E11 1 00099G11U1 99999K11 1 00025L11 1 00700N11 1 00000S11 1 00032V11 1 00299X11 1 17005
0105605810999991967031006004+31667+006150FM-12+014399999V0202201N00411036001CN0150001N9+02001-00221100471ADDAA199000091GA1021+018009059GA2031+033009039GF108991021051012501071999KA1999N+02001MD1110061+9999MW1011
0050489000999991967042918004+10817+106667SAO  +0019VVTS V0201301N003110150019N0112001N1+02741+02411100901ADDGF107991999999999999999999MA1999999100681MW1001
