008283583099999196802280200N-19850-043950BRAZ +0785SBBH V02036019999999999999N006000199+01951+01901101361ADDGA1051+005001061GA2081+027001041GF108991999999999999999999MA1101811092691MW1631
0073266290999991968120203004+54883+023883FM-12+007599999V0202701N00211004201CN0220001N9+00001-00111102891ADDAY121999GA1089+004209059GF108991081051008001999999MD1410001+9999MW1021
0168800010999991968052700004+12583-081650FM-12+000299999V0200901N002119999999N0090001N9+02781+02611100781ADDAY121999GA1999+006009039GA2089+999999999GF199999031011008001001041KA1999M+03111MA1999999100781MD1710071+9999MW1011EQDQ01+000042SCOTCVQ02+000092APCTENQ03+000672APC3  
0057248710999991968060709004+61883+135550FM-12+999999999V0201801N00511220001CN0500001N9+01891+00111100401ADDAY111999GF104991031021012501001021MD1310111+9999MW1021
0057272810999991968053009004+58300+047117FM-12+015699999V0202501N00311030001CN0250001N9+01501+00111102021ADDAY121999GF107991031021008001031001MD1710141+9999MW1021
0318999999138551968030223005+35383-086233SAO  +032999999V0203005N002659999999N999999999+01395+00115999999ADDGA1999+999999024GA2999+999999024GA3999+999999024GA4999+999999024GD14074+9999999GD24074+9999999GD34074+9999999GD44074+9999999GF107075999999999999999999EQDN01 99990FPRES 5QNNE11 1 00609E11 1 00609E11 1 00609E11 1 00609H11 1 37999H11 1 37999H11 1 37999H11 1 37999K11 1 00034M11 5 99990S11 1 00057V11 1 00909X11 1 30005
0070167340999991968042118004+36833+021717FM-12+003799999V0200901N00311012301CN0200001N9+01611+00501101511ADDAY121999GF107991061051012501041011KA1999M+02001MD1310071+9999MW1021
0068223490999991968110315004+66167+039533FM-12+000899999V0200201N00411220001CN0500001N9-01001-01391102181ADDAA106000091AY111999GF102991021021008001031001MD1410001+9999MW1021
017699999912842196812050900E+27967-082533SAO  +001099999V0200505N001552200059N024000599+00505+00175101925ADDAA101000095GF100005999999999999999999MA1999999101905EQDN01 00000JPWTH 1QNNG11U1 99999K11 1 00035L11 1 01500M11 1 30090N11 1 00000Q11 1 10192S11 1 00041V11 1 00000X11 1 05003
0104844720999991968091215004-07117-078450FM-12+262299999V0201501N00411220001CN0300001N9+01781+00721999999ADDAY121999GA1999+030009079GA2039+999999999GF107991001001999999071999MA1999999078001MD1410001+9999MW1031
007372365023050196808120200D+35050-106617SAO  +1631ABQ  V0202501N003610180019N0960001N9+02331+01611101261ADDAA101000095GF108991999999999999999999MA1102001083951MW1171MW2801MW3951
0383999999266161968021106005+66867-162633SAO  +0006OTZ  V02099959000050076249N011200599-02615-03005101935ADDGA1999+007624064GA2999+021344044GA3999+999999999GA4999+999999999GD13064+9999999GD24024+9999999GD30004+9999999GD40004+9999999GF108075999999999999999999MA1999999101865MW1715EQDN01 04000JPWTH 1QNNE11 1 00407E11 1 00603E11 1 00000E11 1 00000G11 1 00025H11 1 15025H11 1 21070H11 1 00999H11 1 00999K11 1-00022L11 1 00700M11 1 30080N11 1 04000Q11 1 10193S11 1-00015V11 1 01009X11 1 00000
0057322070999991968092118004+48050+153250FM-12+006899999V0202001N01801220001CN0100001N9+00891+00611101221ADDAY101999GF100991001001999999001001MD1210251+9999MW1021
0072662400999991968061009004-10700+013750FM-12+000599999V0209991C00001009001CN0300001N9+02221+01891101751ADDAY121999GA1089+009009059GF108991081081004501999999KA1999N+01611MW1021
0073319890999991968090206004+42900+133900FM-12+003499999V0201101N00101220001CN0500001N9+01721+01501101681ADDAY181999GA1049+007809099GF106991051091004501001031MD1210061+9999MW1011
0073277190999991968010609004+54200+037483FM-12+016299999V0200201N00621004801CN0040001N9-01501-01781100141ADDAY171999GA1089+004809059GF108991081051004501999999MD1510071+9999MW1711
038899999923232196802260000E+38517-121500SAO  +001399999V0203405N003652200059N096000599+02115+01335102065ADDAA101000095GA1999+999999084GA2999+999999024GA3999+999999999GA4999+999999999GD13004+9999993GD20074+9999999GD30004+9999999GD40004+9999999GF107015999999999999999999MA1999999101965EQDN01 00000JPWTH 1QNNE11 1 00300E11 1 00009E11 1 00000E11 1 00000G11U1 99999H11 1 11999H11C1 37999H11 1 00999H11 1 00999K11 1 00056L11 1 06000M11 1 30110N11 1 00000Q11 1 10206S11 1 00070V11 1 00901X11 1 34007
0269999999937271968040311005+34700-077383SAO  +0005NCA  V02099959000050213449N016000599+00785+00565102715ADDGD13994+9999999GD23994+9999999GD34994+9999999GD40994+9999999GF108075999999999999999999MA1999999102615EQDN01 00000JPWTH 1QNNE11 1 00499E11 1 00499E11 1 00699E11 1 00099G11 1 00070K11 1 00042L11 1 01000M11 1 30300N11 1 00000Q11 1 10271S11 1 00046V11 1 01009X11 1 00000
0269999999931291968091109005+37700-113100SAO  +171399999V0202205N003152200059N024000599+01945+00115101195ADDGD12994+9999999GD22994+9999999GD30994+9999999GD40994+9999999GF102025999999999999999999MA1999999083005EQDN01 00000JPWTH 1QNNE11 1 00299E11 1 00299E11 1 00099E11 1 00099G11U1 99999K11 1 00034L11 1 01500M11 1 24510N11 1 00000Q11 1 10119S11 1 00067V11 1 00303X11 1 22006
0081353610999991968050115004+50133+065233FM-12+014299999V0200201N00311024001CN0500001N9+01221-00721102751ADDAA199000091AY121999GF107991051001999999071011KA1999M+01391MD1510001+9999MW1021
0070844520999991968020100004-06767-079817FM-12+003499999V0202101N00511004501CN0180001N9+02501+01781100871ADDAY121999GF108991051051004501071999KA1999M+03221MD1210051+9999MW1021
0057298380999991968080406004+53333+083700FM-12+019699999V0200301N00721220001CN0100001N9+02221+01221101551ADDAY121999GF106991001001999999001051MD1810031+9999MW1021
0073108660999991968112303004+48133+011700FM-12+052899999V0201901N00151000301CN0012001N9-00111-00221102581ADDAY121031GA1089+000309079GF108991081061000251999999MD1710071+9999MW1401
007494403099999196805261000N-28800+114700AUST +0034YPGN V0201355N002659999999N999999999+01415+01005999999ADDAY124999GA1005+999999999GF100995004999999999999999MA1999999101955MW1025
0080479300999991968052317004+26200+127650FM-15+0004ROAH V0201501N005110036019N0112001N1+02461+02241999999ADDGA1039+002409079GA2079+003609079GF108991999999999999999999EQDQ01+000000PRSWM2
0050747770038521968072621004+30417-086683SAO  +0014HRT  V0202001N003112200019N0160001N9+03411+01961102061ADDGF102991999999999999999999MA1999999101931MW1001
0057326180999991968031706004+55200+165817FM-12+000699999V0202501N00411220001CN0200001N9+00001-00281102121ADDAY111999GF104991011021008001001021MD1210141+9999MW1021
038899999913893196808171800E+35050-089983SAO  +007999999V0202505N005252200059N024000599+03285+02285101785ADDAA101000095GA1999+010674084GA2999+999999999GA3999+999999999GA4999+999999999GD12024+9999999GD20004+9999999GD30004+9999999GD40004+9999999GF102025999999999999999999MA1999999100785EQDN01 00000JPWTH 1QNNE11 1 00203E11 1 00000E11 1 00000E11 1 00000G11U1 99999H11 1 11035H11 1 00999H11 1 00999H11 1 00999K11 1 00073L11 1 01500M11 1 29760N11 1 00000Q11 1 10178S11 1 00091V11 1 00303X11 1 25010
0070857430999991968102100004-38750-072633FM-12+011499999V0203001N00621004501CN0100001N9+01391+01281101731ADDAY121999GF108991081071004501999999KA1999M+01721MD1410001+9999MW1801
031372266013962196805261500C+32433-099683SAO  +0537ABI  V0200505N005250024449N0160005N1+01895+01725101345ADDAA101000095GA1089+002444074GD14084+9999999GD20994+9999999GD30994+9999999GD40994+9999999GF108085999999999999999999MA1999999095265MW1001EQDN01 00000JPWTH 1QNNE11 1 00610E11 1 00099E11 1 00099E11 1 00099G11 1 00008H11 1 16008K11 1 00063L11 1 01000M11 1 28130N11 1 00000Q11 1 10134S11 1 00066V11 1 01010X11 1 05010
0050722055999991968071206004+28433-081300SAO  +0029MCO  V0202601N001012200019N0160001N1+02411+02181102061ADDGF100991999999999999999999MA1999999101731MW1001
0040106590999991968031500004+49750+010200FM-15+0213EDIN V0201901N00261015001CN0112001N9+00191-00091999999ADDGA1089+015009059MA1999999099051MW1001
0269999999240271968070921005+41600-109067SAO  +2057RKS  V0202805N003650152449N032000599+02675+00065101445ADDGD13994+9999999GD23994+9999999GD34994+9999999GD40994+9999999GF108065999999999999999999MA1999999079755EQDN01 00000JPWTH 1QNNE11 1 00499E11 1 00499E11 1 00699E11 1 00099G11 1 00050K11 1 00033L11 1 02000M11 1 23550N11 1 00000Q11 1 10144S11 1 00080V11 1 01008X11 1 28007
0377999999931021968012812005+39417-118717SAO  +1199NFL  V0201005N002152200059N024000599-00895-01445101245ADDGA1999+012194064GA2999+999999999GA3999+999999999GA4999+999999999GD12014+9999999GD20004+9999999GD30004+9999999GD40004+9999999GF101015999999999999999999MA1999999087405EQDN01 00000JPWTH 1QNNE11 1 00201E11 1 00000E11 1 00000E11 1 00000G11U1 99999H11 1 15040H11 1 00999H11 1 00999H11 1 00999K11 1 00006L11 1 01500M11 1 25810N11 1 00000Q11 1 10124S11 1 00016V11 1 00101X11 1 10004
024399999924029196803130300E+44767-106967SAO  +1208SHR  V0201605N002652200049N048000599+00285-00675101525ADDAA101000095GD12994+9999999GD24994+9999993GD30994+9999999GD40994+9999999MA1999999087545EQDN01 00000JPWTH 1QNNE11 1 00299E11 1 00599E11 1 00099E11 1 00099G11U1 99999K11 1 00020L11 1 03000M11 1 25850N11 1 00000Q11 1 10152S11 1 00037X11 1 16005
0275999999242831968072415005+40983-124100SAO  +0062ACV  V0203305N003650018349N006400599+01285+01115101765ADDGD14994+9999999GD20994+9999999GD30994+9999999GD40994+9999999GF108085999999999999999999MA1999999100955MW1455EQDN01 07000JPWTH 1QNNE11 1 00699E11 1 00099E11 1 00099E11 1 00099G11 1 00006K11 1 00052L11 1 00400M11 1 29810N11 1 07000Q11 1 10176S11 1 00055V11 1 01010X11 1 33007
0057166610999991968033006004+39367+022950FM-12+000799999V0203601N00211220001CN0120001N9+01001+00281102561ADDAY101999GF100991001001999999001001MD1010181+9999MW1021
0089164800999991968082309004+36683+015133FM-12+005199999V0202101N00311220001CN0160001N9+02391+02001101651ADDAY121999GA1029+009009059GA2039+027009049GF108991021051008001021011MD1210051+9999MW1031
0115678670999991968041618004+19450+029850FM-12+143099999V0201201N00361220001CN0600001N9+01611+01001999999ADDAY111999GA1019+015009059GA2019+027009039GA3019+999999009GF101991011051017501061021MA1999999086041ME1315309MW1021
0073262420999991968122815004+58300+026733FM-12+005999999V0201801N00411001501CN0090001N9-00281-00501100541ADDAY121999GA1089+001509079GF108991081061001501999999MD1210181+9999MW1101
0072844720999991968123115004-07117-078450FM-12+262299999V0209991C00001220001CN0300001N9+01891+01001999999ADDAY101999GF100991001001999999001001MA1999999077611MD1710101+9999MW1011
0080488815999991968071801004+11950+108417FM-15+1506VVCL V0209991C000012200019N0112001N1+01961+01741999999ADDGA1019+006009059GA2029+075009029GF102991999999999999999999EQDQ01+000000PRSWM2
0057218020999991968090906004+71967+114083FM-12+002499999V0200701N00981007801CN0500001N9+00501-00781102251ADDAY121999GF106991061051008001001001MD1710021+9999MW1021
0377999999147931968093018005+40200-075150SAO  +0102NXX  V0202905N007252200059N012800599+02225+01005101765ADDGA1999+012194084GA2999+999999004GA3999+999999999GA4999+999999999GD12024+9999999GD22024+9999999GD30004+9999999GD40004+9999999GF104025999999999999999999MA1999999100545EQDN01 00000JPWTH 1QNNE11 1 00202E11 1 00203E11 1 00000E11 1 00000G11U1 99999H11 1 11040H11C1 32999H11 1 00999H11 1 00999K11 1 00050L11 1 00800M11 1 29690N11 1 00000Q11 1 10176S11 1 00072V11 1 00503X11 1 29014
029299999914771196804270800E+43117-076117SAO  +0125SYR  V0201405N002150140249N009600599+00615+00505101305ADDAA101000395GD13994+9999993GD24994+9999999GD30994+9999999GD40994+9999999GF108085999999999999999999MA1999999099805MW1445MW2615EQDN01 02072JPWTH 1QNNE11 1 00399E11 1 00699E11 1 00099E11 1 00099G11 1 00046K11 1 00041L11 1 00600M11 1 29470N11 1 02072Q11 1 10130S11 1 00043V11 1 01010X11 1 14004
0057267020999991968082603004+54700+020617FM-12+002799999V0203601N00311220001CN0040001N9+01501+01391102141ADDAY101999GF101991001001999999001011MD1210041+9999MW1101
0057854600999991968020418004-26317-070600FM-12+000999999V0202701N00621220001CN0200001N9+02281+01391101221ADDAY101999GF100991001001999999001001MD1610211+9999MW1021
0057111500999991968082603004+47800+013000FM-12+045099999V0201401N00361220001CN0120001N9+01281+01221101901ADDAY111031GF102991021001999999041011MD1710051+9999MW1011
038899999926451196806062100E+61167-150017SAO  +0048ANC  V0203605N002650274349N056000599+01285+00445101625ADDAA101000095GA1999+012194084GA2999+027434034GA3999+999999024GA4999+999999999GD12024+9999999GD23034+9999999GD34084+9999999GD40004+9999999GF108055999999999999999999MA1999999101125EQDN01 00000JPWTH 1QNNE11 1 00203E11 1 00404E11 1 00610E11 1 00000G11 1 00090H11 1 11040H11 1 23090H11C1 37999H11 1 00999K11 1 00040L11 1 03500M11 1 29860N11 1 00000Q11 1 10162S11 1 00055V11 1 01006X11 1 36005
0050912500999991968032103004+11350+162350SAO  +0005PKMA V0200701N007712200019N0240001N1+02961+02351100751ADDGF108991999999999999999999MA1999999100681MW1001
0035747810999991968061817004+30967-083200SAO  +0074VAD  V0200601N003612200019N0160001N9+03241+01961999999ADDGF102991999999999999999999MW1001
0134230220999991968070206004+69767+061683FM-12+005399999V0200501N00211075001CN0200001N9+00281+00111101501ADDAA106001091AA299000391AJ100009199999999AY141999GF106991011001999999041021HL10009IA1109IA2999+00119KA1999N-00221MD1810011+9999MW1401
0096255630999991968032000004+64783+177567FM-12+006299999V0201601N00821220001CN0500001N9-00221-00281100961ADDAA199000391AJ199999900000099GF107991021001999999041011HL10009IA1209IA2999-00509MD1810031+9999
0111277030999991968011506004+54567+036367FM-12+013599999V0203201N00511004501CN0040001N9-01891-02221100261ADDAA106004091AA299001091AY171999GF108991999071004501021999KA1999N-01891MD1210261+9999MW1711EQDQ01+000082SCOTLC
0050745980137021968080400004+37083-076350SAO  +0003LFI  V0201301N002110240019N0144001N9+02781+02221102171ADDGF108991999999999999999999MA1999999102101MW1001
0079488526999991968050906004+16417+107633FM-15+0030ICEA V0200601N004112200019N0112001N1+03291+02571999999ADDGA1029+008409089GF102991999999999999999999MA1999999100201EQDQ01+000000PRSWM2
0035726071146061968020523004+44800-068833SAO  +0059BGR  V0203401N006710150019N0192001N9-00591-01311999999ADDGF107991999999999999999999MW1001
0044723930999991968100509004+34717-120567SAO  +0112VBG  V0201501N001012200019N0064001N9+01281+01111101721ADDGF102991999999999999999999MA1999999100341
0218999999253421968031805005+51933-131017SAO  +0089CYCJ V02027059011850030549N024000599+00445+00065101615ADDGA1999+003054084GD19064+9999999GF106065999999999999999999MA1999999100515EQDN01 00000JPWTH 1QNNE11 1 09908G11 1 00010H11 1 11010K11 1 00033L11 1 01500M11 1 29680N11 1 00000Q11 1 10161S11 1 00040V11 1 00807W11 1 77023
007494476099999196804282030N-27570+135450AUST +0117     V0203155N007259999999N999999999+01225+00805999999ADDAY124999GA1005+999999999GF100995004999999999999999MA1999999098945MW1025
0066475800999991968070809004+40683+141367FM-15+0037RJSM V0200901N00151042001CN0112001N9+01741+01631100431ADDGA1029+006009079GA2039+030009049GA3089+042009049MA1999999099971
0057171880999991968100700004+38667+029417FM-12+092199999V0200601N00211220001CN0200001N9+01221+00391101481ADDAY111999GF102991021001999999031001MD1710101+9999MW1011
0057854880999991968120609004-29883-071233FM-12+003299999V0209991C00001000151CN0010001N9+01111+01001101511ADDAY111999GF108991081061000251999999MD1810301+9999MW1101
0066716280999991968041714004+45317-075667SAO  +0126CYOW V0200901N005712200019N0400001N1+01071-00261102601ADDGA1049+084009009GF102991999999999999999999MA1999999101051MW1001
0080749309999991968060922004+10817+107217FM-15+025099999V0200401N001512200019N0112001N1+02301+02071999999ADDGA1029+003009099GA2089+090009009GF108991999999999999999999EQDQ01+000000PRSWM2
0035701040999991968050502004+68883-166133SAO  +0007PALU V0201401N002610054019N0160001N9+00301-00091999999ADDGF108991999999999999999999MW1001
0111489041999991968010815004+10367+107100FM-15+0004VVVT V0200801N004112200019N0112001N1+02631+02021101131ADDGA1039+024009039GA2039+090009009GF107991999999999999999999MA1999999101081EQDQ01+999990APOSLPQ02+000000PRSWM2
0041106570999991968040808004+49767+009483FM-15+0341EDOF V0200501N00771012001CN0112001N9+00081-00421999999ADDGA1059+012009089GA2039+060009009MW1001
0095488561410241968021002001+16033+108250FM-15+000999999V0203601N001010210019N0096001N1+02071+01691999999ADDGA1029+007509059GA2089+021009039GF108991999999999999999999MA1999999102101EQDQ01+000000PRSWM2
010694907099999196806102300N-38100+147150AUST +0008YMES V0209999C000059999999N999999999+00785+00705999999ADDAY144999GA1015+015005065GA2045+999999035GA3025+999999999GF107995014055015005075085MA1999999102405MW1045
0057167180999991968101509004+38067+023550FM-12+003199999V0203401N00931220001CN0100001N9+02281+01221101741ADDAY101999GF100991001001999999001001MD1410001+9999MW1001
0232999999176051968020213005+76517-068833SAO  +0077BGTL V0201005N003152200059N014400599-02945-03895999999ADDGD10994+9999999GD20994+9999999GD30994+9999999GD40994+9999999GF100995999999999999999999EQDN01 00000JPWTH 1QNNE11 1 00099E11 1 00099E11 1 00099E11 1 00099G11U1 99999K11 1-00038L11 1 00900N11 1 00000S11 1-00021V11 1 00099X11 1 10006
0050740030999991968010212004+40200-112933SAO  +1326DPG  V0200101N002610072019N0192001N9-00201-00371101201ADDGF107991999999999999999999MA1999999086181MW1851
0073112040999991968061409004+46833+012783FM-12+067699999V0209991C00001001201CN0020001N9+01111+01111102201ADDAY161031GA1089+001209079GF108991081071001501999999MD1110081+9999MW1611
0044723930999991968050718004+34717-120567SAO  +0112VBG  V0202801N001510420019N0160001N9+01331+00781101651ADDGF108991999999999999999999MA1999999100271
0057345790999991968090521004+48217+046733FM-12+003599999V0201401N00311036001CN0200001N9+01891+00111102201ADDAY121999GF107991031051012501031021MD1810021+9999MW1021
0080112400999991968090609004+47000+015450FM-12+034299999V0203201N00571036001CN0400001N9+01781+00891102061ADDAJ100009199999999AY121031GF106991021081012501031001IA1089MD1310011+9999MW1011
0056722436129061968100706004+29617-095167SAO  +0012EFD  V0201901N001012200019N0016001N9+02131+02131101191ADDGF102991999999999999999999MA1999999101021MW1041MW2451
0043858860999991968030415004-46583-071700FM-12+038299999V0209991C00001220001CN0500001N9+01611+00781999999ADDAY101999GF100991001001999999001001MW1021
0050704896256251968121703004+56000-160517SAO  +0011PML  V0202601N008210120019N0016001N1-00531-00811100881ADDGF107991999999999999999999MA1999999100751MW1851
0079471080999991968111507004+37567+126967FM-15+0087RKSL V0202101N003612200019N0112001N1+00911-00201999999ADDGA1019+012009059GF102991999999999999999999MA1999999102611EQDQ01+000000PRSWM2
0377999999416061968051800005+19283+166650SAO  +0004PWAK V0201405N006252200059N024000599+02945+02335101295ADDGA1999+005494084GA2999+999999024GA3999+999999999GA4999+999999999GD12024+9999999GD22004+9999999GD30004+9999999GD40004+9999999GF102025999999999999999999MA1999999101255EQDN01 00000JPWTH 1QNNE11 1 00203E11 1 00200E11 1 00000E11 1 00000G11U1 99999H11 1 11018H11 1 37999H11 1 00999H11 1 00999K11 1 00074L11 1 01500M11 1 29900N11 1 00000Q11 1 10129S11 1 00085V11 1 00303X11 1 14012
0057876920999991968091918004-37917-057567FM-12+002499999V0202001N01031004501CN0150001N9+01111+00781101181ADDAY121999GF108991081081004501999999MD1510081+9999MW1031
006083583099999196803312300N-19850-043950BRAZ +0785SBBH V02036019999999999999N020000199+02231+01901101081ADDGA1031+060001211GF103991999999999999999999MA1101591092501
0068343910999991968070700004+50150+048550FM-12+002599999V0209991C00001220001CN0200001N9+01721+01111100821ADDAA199000091AY101999GF100991001001999999001001MD1810011+9999MW1021
0057306360999991968022115004+53617+109633FM-12+048699999V0202701N00101220001CN0260001N9-03221-03501999999ADDAY101999GF100991001001999999001001MD1210161+9999MW1021
0111488730999991968091500004+13083+109283FM-15+0011VVTH V0202301N005112200019N0112001N1+02801+02411999999ADDGA1019+009009099GA2019+009009089GA3089+090009029GF108991999999999999999999MA1999999101081EQDQ01+000000PRSWM2
0079471180999991968090716004+37433+127950FM-15+0101RKNH V0209991C000012200019N0096001N1+01691+01571999999ADDGA1029+075009029GF102991999999999999999999MA1999999100031EQDQ01+000000PRSWM2
0035702350999991968052008004+61100-155583SAO  +0487PASV V0200101N001512200019N0320001N9+01241+00581999999ADDGF102991999999999999999999MW1001
0066741040999991968080907004+52183-122050SAO  +0941CYWL V0203601N003612200019N0240001N1+01191+00351102481ADDGA1019+027009039GF102991999999999999999999MA1999999091501MW1001
0097100350999991968122606004+54533+009550FM-12+004499999V0203101N00721012001CN0200001N9+00001-00221100691ADDAA199000691AY111999GA1079+012009059GF107991071051012501999999KA1999N-00111MD1810051+9999MW1701
0068357960999991968081400004+46900+075000FM-12+042399999V0200501N00721220001CN0200001N9+01501+00501101111ADDAA199000091AY101999GF100991001001999999001001MD1710051+9999MW1021
0057306220999991968031818004+53967+105867FM-12+055499999V0203201N00311220001CN0100001N9-00611-01001102321ADDAY101999GF101991011051012501001001MD1110011+9999MW1021
031399999914826196811201200E+42967-083733SAO  +023599999V0202705N008850167649N024000599-00065-00445101485ADDAA101000095GA1999+016764064GD14084+9999999GD20994+9999999GD30994+9999999GD40994+9999999GF108085999999999999999999MA1999999098615MW1855EQDN01 05000JPWTH 1QNNE11 1 00610E11 1 00099E11 1 00099E11 1 00099G11 1 00055H11 1 15055K11 1 00024L11 1 01500M11 1 29120N11 1 05000Q11 1 10148S11 1 00031V11 1 01010X11 1 27017
0057434360999991968071012004+07717+081700FM-12+001299999V0201801N003119999999N0200001N9+03111+02281100641ADDAY121999GF107991011011008001001081MD1999999+0011MW1011
0050476710999991968111313004+35550+139783FM-15+0008RJTT V0203201N003119999999N0048001N1+01301+00631999999ADDGF102991999999999999999999MA1999999102101MW1041
0377999999242551968080100005+99999+999999SAO  +999999999V0202705N002652200059N024000599+02565+01175101465ADDGA1999+999999004GA2999+999999999GA3999+999999999GA4999+999999999GD12044+9999999GD20004+9999999GD30004+9999999GD40004+9999999GF104035999999999999999999MA1999999101355EQDN01 00000JPWTH 1QNNE11 1 00205E11 1 00000E11 1 00000E11 1 00000G11U1 99999H11C1 32999H11 1 00999H11 1 00999H11 1 00999K11 1 00053L11 1 01500M11 1 29930N11 1 00000Q11 1 10146S11 1 00078V11 1 00504X11 1 27005
0377999999939091968121421005+38833-094883SAO  +0328NUU  V0203305N004152200059N019200599-00565-01945103485ADDGA1999+999999004GA2999+999999999GA3999+999999999GA4999+999999999GD12044+9999999GD20004+9999999GD30004+9999999GD40004+9999999GF104025999999999999999999MA1999999099365EQDN01 00000JPWTH 1QNNE11 1 00205E11 1 00000E11 1 00000E11 1 00000G11U1 99999H11C1 32999H11 1 00999H11 1 00999H11 1 00999K11 1-00003L11 1 01200M11 1 29340N11 1 00000Q11 1 10348S11 1 00022V11 1 00503X11 1 33008
0095277580999991968092600004+54083+043250FM-12+019899999V0201601N00311003001CN0038001N9+01501+01391101171ADDAA106016091AA299004091AY181999GA1089+003009099GF108991081091004501999999MD1710041+9999MW1101
0269999999412311968082617005+14800+120267SAO  +0014RPMB V0202305N006250024449N012800599+02725+02565100905ADDGD13994+9999999GD23994+9999999GD34994+9999999GD40994+9999999GF108085999999999999999999MA1999999100715EQDN01 00000JPWTH 1QNNE11 1 00499E11 1 00499E11 1 00699E11 1 00099G11 1 00008K11 1 00078L11 1 00800M11 1 29740N11 1 00000Q11 1 10090S11 1 00081V11 1 01010X11 1 23012
0035747320999991968032505004+32850-106100SAO  +1248HMN  V0201001N003112200019N0640001N9+01071-00761999999ADDGF102991999999999999999999MW1001
0232999999039431968041711005+32833-098050SAO  +027099999V02099959000052200059N012800599+02115+01895999999ADDGD13994+9999999GD20994+9999999GD30994+9999999GD40994+9999999GF106995999999999999999999EQDN01 00000JPWTH 1QNNE11 1 00499E11 1 00099E11 1 00099E11 1 00099G11C1 99999K11 1 00066L11 1 00800N11 1 00000S11 1 00070V11 1 00899X11 1 00000
038899999913889196809200600E+30417-081650SAO  +001299999V0200605N002652200059N011200599+02505+02335101695ADDAA101000095GA1999+999999004GA2999+999999999GA3999+999999999GA4999+999999999GD11024+9999993GD20004+9999999GD30004+9999999GD40004+9999999GF102015999999999999999999MA1999999101595EQDN01 00000JPWTH 1QNNE11 1 00103E11 1 00000E11 1 00000E11 1 00000G11U1 99999H11C1 32999H11 1 00999H11 1 00999H11 1 00999K11 1 00074L11 1 00700M11 1 30000N11 1 00000Q11 1 10169S11 1 00077V11 1 00301X11 1 06005
0269999999939871968021015005+31233-094750SAO  +0089LFK  V0202205N002152200059N024000599+00725+00335101835ADDGD12994+9999999GD23994+9999999GD30994+9999999GD40994+9999999GF107065999999999999999999MA1999999100685EQDN01 00000JPWTH 1QNNE11 1 00299E11 1 00499E11 1 00099E11 1 00099G11C1 99999K11 1 00038L11 1 01500M11 1 29730N11 1 00000Q11 1 10183S11 1 00045V11 1 00907X11 1 22004
039472258013960196811070000C+32850-096850SAO  +0159DAL  V0200105N005750426749N0240005N1+01225+00445101655ADDAA101000095GA1049+012194064GA2029+042674034GA3999+999999999GA4999+999999999GD12044+9999999GD23024+9999999GD30004+9999999GD40004+9999999GF106055999999999999999999MA1999999099905MW1001EQDN01 00000JPWTH 1QNNE11 1 00205E11 1 00402E11 1 00000E11 1 00000G11 1 00140H11 1 15040H11 1 23140H11 1 00999H11 1 00999K11 1 00040L11 1 01500M11 1 29500N11 1 00000Q11 1 10165S11 1 00054V11 1 00706X11 1 01011
0035723087937351968081717004+37133-076617SAO  +0004FAF  V0202701N002112200019N0096001N9+03291+02301999999ADDGF107991999999999999999999MW1051
0048488660999991968020401004+13983+108000FM-15+0801VVPK V0209991C00001220001CN0112001N1+02131+01631999999ADDGF100991999999999999999999EQDQ01+000000PRSWM2
0383724040137211968091221003+38300-076417SAO  +0014NHK  V0203305N005252200059N0160005N1+02285+00835101365ADDGA1029+013724064GA2999+999999999GA3999+999999999GA4999+999999999GD12024+9999999GD20004+9999999GD30004+9999999GD40004+9999999GF102025999999999999999999MA1999999101225MW1001EQDN01 00000JPWTH 1QNNE11 1 00203E11 1 00000E11 1 00000E11 1 00000G11U1 99999H11 1 15045H11 1 00999H11 1 00999H11 1 00999K11 1 00047L11 1 01000M11 1 29890N11 1 00000Q11 1 10136S11 1 00073V11 1 00303X11 1 33010
0067106070999991968090619004+49967+006700FM-15+0365EDAD V0200301N00211060001CN0112001N9+01501+00891999999ADDGA1059+036009039GA2079+060009009GF107991999999999999999999MW1001
009094285099999196809282300N-16380+145570AUST +0004     V0200685N006259999999N999999999+02565+01805999999ADDAY124999GA1045+006005065GA2015+999999045GF105995044045006005035999MA1999999101685MW1025
0050724088137071968071821004+39133-075467SAO  +0009KDOV V0201301N003112200019N0064001N9+03051+02221101551ADDGF102991999999999999999999MA1999999101421MW1051
0050489400999991968110912004+17950+102567SAO  +0171VLVT V0209991C000010240019N0048001N1+02521+02301101661ADDGF107991999999999999999999MA1999999099531MW1051
0081266590999991968062506004+54883+028700FM-12+017499999V0202001N00101220001CN0130001N9+01501+01281100791ADDAA199000091AY111999GF105991031051004501001011KA1999N+01221MD1210111+9999MW1031
0068200340999991968033100004+80667+043967FM-12+999999999V0201101N00211220001CN0100001N9-03111-03501102431ADDAA106000091AY111999GF102991021001999999031001MD1210061+9999MW1021
0275999999138991968021509005+30467-087200SAO  +0034PNS  V02099959000050213449N016000599+00785-00225102145ADDGD14994+9999999GD20994+9999999GD30994+9999999GD40994+9999999GF108085999999999999999999MA1999999101735MW1615EQDN01 02000JPWTH 1QNNE11 1 00699E11 1 00099E11 1 00099E11 1 00099G11 1 00070K11 1 00028L11 1 01000M11 1 30040N11 1 02000Q11 1 10214S11 1 00046V11 1 01010X11 1 00000
038899999924221196801170900E+44117-123217SAO  +0109EUG  V0201705N003150426749N016000599+00335+00225102565ADDAA101000095GA1999+009144064GA2999+042674034GA3999+999999999GA4999+999999999GD12024+9999999GD23024+9999999GD30004+9999999GD40004+9999999GF105035999999999999999999MA1999999101195EQDN01 00000JPWTH 1QNNE11 1 00203E11 1 00403E11 1 00000E11 1 00000G11 1 00140H11 1 15030H11 1 23140H11 1 00999H11 1 00999K11 1 00036L11 1 01000M11 1 29880N11 1 00000Q11 1 10256S11 1 00038V11 1 00604X11 1 17006
0275722210138581968050421003+30483-086517SAO  +0020VPS  V02099959000050182949N0208005N9+02285+00835100705ADDGD12994+9999999GD24994+9999999GD30994+9999999GD40994+9999999GF108995999999999999999999MA1999999100375MW1001EQDN01 00000JPWTH 1QNNE11 1 00299E11 1 00699E11 1 00099E11 1 00099G11 1 00060K11 1 00047L11 1 01300M11 1 29640N11 1 00000Q11 1 10070S11 1 00073V11 1 01099X11 1 00000
009194999900004196812050100N-15650+128700AUST +0046     V0201355N004159999999N999999999+03285+00605999999ADDAY124999GA1005+999999999GA2015+999999035GA3035+999999999GF104995004999999999045065MW1025
0063488962999991968052418004+10967+106817FM-15+0011VVBH V0201501N00211220001CN0112001N1+02521+02301999999ADDGF100991999999999999999999MA1999999100581EQDQ01+000000PRSWM2
0087207440999991968051803004+72383+052733FM-12+001699999V0201201N00511007801CN0280001N9-00721-01001101351ADDAA106999999AY181999GF107991071091008001001001MD1710181+9999MW1851EQDQ01  00002PRCP06
007494791099999196807190800N-30320+153120AUST +0005YSCH V0209999C000059999999N999999999+01285+00305999999ADDAY124999GA1015+010505065GF101995014055010505999999MA1999999101635MW1025
0275744865147191968112218003+40850-072633SAO  +0018FOK  V0202605N006752200059N0128005N1+01065-00065101035ADDGD12994+9999999GD23994+9999999GD30994+9999999GD40994+9999999GF106995999999999999999999MA1999999100755MW1001EQDN01 00000JPWTH 1QNNE11 1 00299E11 1 00499E11 1 00099E11 1 00099G11C1 99999K11 1 00031L11 1 00800M11 1 29750N11 1 00000Q11 1 10103S11 1 00051V11 1 00899X11 1 26013
0092261670999991968011318004+58567+029800FM-12+009399999V0209991C00001220001CN0110001N9-02891-03111101121ADDAA106075091AA224999999AY111999GF100991001001999999001001KA1999M-02111MD1210041+9999MW1021
0057167100999991968052315004+37517+022350FM-12+066299999V0209999900311090001CN9999999N9+02781+00611101971ADDAY191999GF106991041031012501001021MD1510001+9999MW1171
0035727937999991968022102004+47917-122283SAO  +0187PAE  V0201201N003610060019N0160001N1+01071+00741999999ADDGF108991999999999999999999MW1001
0095749388999991968010309004+36083+129567FM-15+002199999V0202701N004110090019N0112001N1+00241-00371102121ADDGA1079+009009059GF107991999999999999999999MA1999999101831EQDQ01+999990APOSLPQ02+000000PRSWM2
0165999999232371968063006005+37900-121250SAO  +0007SCK  V0202705N004152200059N024000599+01945+00115101195ADDGF100005999999999999999999MA1999999101085EQDN01 00000JPWTH 1QNNG11U1 99999K11 1 00034L11 1 01500M11 1 29850N11 1 00000Q11 1 10119S11 1 00067V11 1 00000X11 1 27008
024972531014806196811081600C+40300-088150SAO  +0230RAN  V0203105N003150027449N0160005N1+00175-00065999999ADDAA101000095GD14994+9999999GD20994+9999999GD30994+9999999GD40994+9999999GF108995999999999999999999MW1001EQDN01 00000JPWTH 1QNNE11 1 00699E11 1 00099E11 1 00099E11 1 00099G11 1 00009K11 1 00031L11 1 01000N11 1 00000S11 1 00035V11 1 01099X11 1 31006
0269999999137501968082708005+36950-076283SAO  +0010NGU  V0200205N005250121949N011200599+02285+01445101695ADDGD13994+9999999GD23994+9999999GD30994+9999999GD40994+9999999GF107075999999999999999999MA1999999101595EQDN01 00000JPWTH 1QNNE11 1 00499E11 1 00499E11 1 00099E11 1 00099G11 1 00040K11 1 00058L11 1 00700M11 1 30000N11 1 00000Q11 1 10169S11 1 00073V11 1 00909X11 1 02010
0181999999252371968053109005+50650-128000SAO  +0569CYHJ V02015859005252200059N024000599+00615+00225999999ADDGA1999+999999999GD19004+9999999GF100005999999999999999999EQDN01 00000JPWTH 1QNNE11 1 09900G11U1 99999H11 1 99999K11 1 00036L11 1 01500N11 1 00000S11 1 00043V11 1 00000W11 1 54010
0035726625240061968111602004+44150-103100SAO  +0999RCA  V0201701N007212200019N0240001N9+00061-00111999999ADDGF108991999999999999999999MW1001
006194999900223196810172300N-32070+150930AUST +0216     V0200455N000559999999N999999999+02715+99999999999ADDGA1005+999999999GA2025+999999045GF102995004999999999015999
0050785140999991968112115004+18500-067133SAO  +0075TJBQ V0200801N001512200019N0240001N1+02911+02181101631ADDGF102991999999999999999999MA1999999100781MW1001
0081385070999991968092718004+40033+052817FM-12+008999999V0201101N00721220001CN0040001N9+03001+01221100781ADDAA199000091AY101999GF100991001001999999001001KA1999M+03391MD1410001+9999MW1021
0269999999265331968031812005+66917-151517SAO  +019999999V0200405N002152200059N024000599-02785-03335102965ADDGD10994+9999999GD20994+9999999GD30994+9999999GD40994+9999999GF100005999999999999999999MA1999999100205EQDN01 00000JPWTH 1QNNE11 1 00099E11 1 00099E11 1 00099E11 1 00099G11U1 99999K11 1-00028L11 1 01500M11 1 29590N11 1 00000Q11 1 10296S11 1-00018V11 1 00000X11 1 04004
0123225500999991968032303004+64583+040500FM-12+0013ULAA V0201101N00871030001CN0190001N9-00281-00391100391ADDAA199000091AJ199999900000099AY121999GF108991081001999999071999HL10009IA1319IA2999-01619KA1999N-00891MD1710441+9999MW1031
0269999999947451968091312005+41067-073717SAO  +0122HPN  V0202705N006252200059N024000599+01335+00895101255ADDGD10994+9999999GD20994+9999999GD30994+9999999GD40994+9999999GF100005999999999999999999MA1999999099665EQDN01 00000JPWTH 1QNNE11 1 00099E11 1 00099E11 1 00099E11 1 00099G11U1 99999K11 1 00048L11 1 01500M11 1 29430N11 1 00000Q11 1 10125S11 1 00056V11 1 00000X11 1 27012
0269999999148561968011602005+42100-083167SAO  +0180NFB  V0203405N008252200059N024000599-00785-01505101965ADDGD10994+9999999GD20994+9999999GD30994+9999999GD40994+9999999GF100005999999999999999999MA1999999099705EQDN01 00000JPWTH 1QNNE11 1 00099E11 1 00099E11 1 00099E11 1 00099G11U1 99999K11 1 00005L11 1 01500M11 1 29440N11 1 00000Q11 1 10196S11 1 00018V11 1 00000X11 1 34016
0073788060999991968071622004+08917-079600FM-15+0016MPHO V0209991V00261007501CN0112001N9+02681+02301999999ADDGA1019+004809079GA2039+006009099GA3039+007509089GA4089+075009029MW1171
0067476420999991968082008004+35733+139333FM-15+0142RJTY V0202601N00261090001CN0048001N9+03001+02051999999ADDGA1039+018009059GA2089+090009009GF108991999999999999999999MW1051
0043167170999991968041018004+37933+023633FM-12+000299999V0200501N00671220001CN0050001N9+01501+00891101681ADDAY101999GF101991011021012501001001MW1051
0044722026128261968101103004+25483-080383SAO  +0002HST  V0200801N004112200019N0112001N9+02741+02181101401ADDGF108991999999999999999999MA1999999101351
0123800700999991968020521004+08650-075150FM-12+004199999V0203601N003119999999N0250001N9+03391+02001101631ADDAY101999GA1999+009009029GA2089+999999999GF199999021011008001001001MA1999999101631MD1710031+9999MW1021EQDQ01+000022SCOTCV
0089804130999991968082303004+10250-067633FM-12+044399999V0209991C00001220001CN0100001N9+02281+02281101451ADDAY181999GA1999+069009049GA2009+999999999GF105991001001999999001021MD1210181+9999MW1011
0070166690999991968112218004+38833+020717FM-12+000799999V0209991C00001220001CN0150001N9+01221+01001101171ADDAY111999GF102991021051012501001001KA1999M+01501MD1410001+9999MW1011
0238722535129091968040622003+29383-098583SAO  +0208SKF  V0201805N005752200059N0240005N9+02225+01115999999ADDGD12994+9999999GD20994+9999999GD30994+9999999GD40994+9999999GF103995999999999999999999MW1001EQDN01 00000JPWTH 1QNNE11 1 00299E11 1 00099E11 1 00099E11 1 00099G11U1 99999K11 1 00052L11 1 01500N11 1 00000S11 1 00072V11 1 00499X11 1 18011
0092232740999991968080112004+67467+086567FM-12+003099999V0203601N00411220001CN0200001N9+01391+00391102241ADDAA106031091AA299008091AY111999GF106991001001999999001011KA1999M+01391MD1710031+9999MW1031
0050471530999991968032401004+35183+128933FM-15+0004RKPK V0209991C00001045001CN0112001N9+01131+00741999999ADDGA1059+045009049GA2079+999999029MA1999999101731
0269999999931111968061204005+34117-119117SAO  +0003NTD  V0203105N002652200059N024000599+01335+01175101425ADDGD10994+9999999GD20994+9999999GD30994+9999999GD40994+9999999GF100005999999999999999999MA1999999101395EQDN01 00000JPWTH 1QNNE11 1 00099E11 1 00099E11 1 00099E11 1 00099G11U1 99999K11 1 00053L11 1 01500M11 1 29940N11 1 00000Q11 1 10142S11 1 00056V11 1 00000X11 1 31005
0269999999147801968101017005+40033-074350SAO  +0034NEL  V0201105N003152200059N016000599+01565+00675102605ADDGD12994+9999999GD23994+9999999GD30994+9999999GD40994+9999999GF107075999999999999999999MA1999999102205EQDN01 00000JPWTH 1QNNE11 1 00299E11 1 00499E11 1 00099E11 1 00099G11C1 99999K11 1 00044L11 1 01000M11 1 30180N11 1 00000Q11 1 10260S11 1 00060V11 1 00909X11 1 11006
0112484070999991968060404004+15250+104867FM-15+0126VTUU V0209991V002110240019N0112001N1+02801+02181999999ADDGA1029+006009089GA2019+018009059GA3079+024009039GA4049+090009009GF108991999999999999999999EQDQ01+000000PRSWM2
0035727125146231968090702004+46933-067883SAO  +0227LIZ  V0202001N006210120019N0240001N9+01571+01071999999ADDGF108991999999999999999999MW1001
0092261670999991968063009004+58567+029800FM-12+009399999V0203201N00311004501CN0048001N9+01281+01221099791ADDAY161999GA1089+004509049GF108991999071004501021999MD1210131+9999MW1611EQDQ01+000082SCOTLC
0064488700999991968111420004+13767+109217FM-15+0006VVQN V0200101N002610090019N0112001N1+02411+02071999999ADDGA1059+009009059GF107991999999999999999999EQDQ01+000000PRSWM2
038899999923234196812252100E+37617-122383SAO  +0002SFO  V0202505N009852200059N024000599+01115+00675100585ADDAA101003095GA1999+999999154GA2999+008534094GA3999+018294064GA4999+999999004GD12004+9999999GD22014+9999999GD32014+9999999GD40014+9999999GF102025999999999999999999MA1999999100515EQDN01 00000JPWTH 1QNNE11 1 00200E11 1 00201E11 1 00201E11 1 00001G11U1 99999H11 1 17999H11 1 18028H11 1 15060H11C1 32999K11 1 00044L11 1 01500M11 1 29680N11 1 00000Q11 1 10058S11 1 00052V11 1 00302X11 1 25019
031972528014733196804150600C+42933-078733SAO  +0215BUF  V0202305N008850006149N0048005N1+00786+00615100885ADDAA101000395GA1089+000614134GD14084+9999999GD20994+9999999GD30994+9999999GD40994+9999999GF108085999999999999999999MA1999999098345MW1455MW2805EQDN01 02370JPWTH 1QNNE11 1 00610E11 1 00099E11 1 00099E11 1 00099G11 1 00002H11 1 13002K11 1 00043L11 1 00300M11 1 29040N11 1 02370Q11 1 10088S11 1 00046V11 1 01010X11 1 23017
0269999999147801968022720005+40033-074350SAO  +0034NEL  V0203005N005252200059N016000599+00835-00945101395ADDGD13994+9999993GD20994+9999999GD30994+9999999GD40994+9999999GF107035999999999999999999MA1999999100985EQDN01 00000JPWTH 1QNNE11 1 00399E11 1 00099E11 1 00099E11 1 00099G11U1 99999K11 1 00015L11 1 01000M11 1 29820N11 1 00000Q11 1 10139S11 1 00047V11 1 00904X11 1 30010
0057272710999991968042309004+58367+045550FM-12+999999999V0200201N00621220001CN0500001N9+00281-00891101721ADDAY111999GF100991001001999999001001MD1110041+9999MW1011
0269999999231611968063006005+34867-116783SAO  +0588DAG  V0202905N005252200059N024000599+02505+00565100875ADDGD10994+9999999GD20994+9999999GD30994+9999999GD40994+9999999GF100005999999999999999999MA1999999094285EQDN01 00000JPWTH 1QNNE11 1 00099E11 1 00099E11 1 00099E11 1 00099G11U1 99999K11 1 00042L11 1 01500M11 1 27840N11 1 00000Q11 1 10087S11 1 00077V11 1 00000X11 1 29010
0050722545999991968072510004+30200-097667SAO  +0165BSM  V0209991C000012200019N0192001N9+02241+02131999999ADDGF102991999999999999999999MA1999999099801MW1001
0035725060999991968041923004+41650-070517SAO  +0040FMH  V0201701N003112200019N0224001N9+01071+00521999999ADDGF102991999999999999999999MW1001
005994999900146196811142300N-17150+145250AUST +0485     V0209999C000059999999N999999999+02675+99999999999ADDAY124999GA1005+999999999GF100995004999999999999999MW1025
0057215040999991968080406004+74667+112933FM-12+000699999V0209991C00001007801CN0500001N9+00611+00391100841ADDAY151999GF108991081051008001999999MD1710071+9999MW1021
0077802220999991968111903004+04700-074133FM-12+260299999V0202701N002119999999N0200001N9+01111+01111999999ADDAY121999GF104991041041012501001001MA1999999075361MW1011EQDQ01+000002APC3  
0057362310999991968062315004+50733+086650FM-12+999999999V0202701N00101030001CN0500001N9+01721+00281104211ADDAY121999GF108991021051012501021999MD1310121+9999MW1021
006174780499999196812090600D+32017-081133SAO  +0017SVN  V0200501N001512200019N0160001N9+00081-01031103131ADDAA101000095GF100991999999999999999999MA1999999102951MW1001
0067916800999991968050320004-17750+177450SAO  +0018NFFN V0201501N001510900019N0560001N1+02301+01961101241ADDGA1019+010509009GA2089+090009079GF108991999999999999999999MW1001
0050724467139301968090109004+38733-093567SAO  +0265SZL  V0202401N002112200019N0160001N9+01551+01501101361ADDGF100991999999999999999999MA1999999098241MW1001
0057408480999991968091921004+29600+052533FM-12+149199999V0200601N00211015001CN0150001N9+02001+00721101011ADDAY101999GF105991051041017501001001MD1810021+9999MW1031
0080488935999991968090413004+10967+106483FM-15+0014VVCC V0202201N002110240019N0112001N1+02851+02461999999ADDGA1019+007509059GA2089+024009039GF108991999999999999999999EQDQ01+000000PRSWM2
0044035963999991968040600004+52133+001433FM-15+0028EGVJ V0203201N00311220001CN0112001N9+00221-00061999999ADDGF100991999999999999999999MA1999999100611
0050489526999991968011519004+15683+106417SAO  +0168VLDN V0209991C000012200019N0112001N1+01631+01301101561ADDGF102991999999999999999999MA1999999099591MW1001
0073104380999991968091112004+51317+009483FM-12+015899999V0201401N00211220001CN0160001N9+02281+01221101101ADDAY101061GA1029+021009089GF102991021011022501001001MD1610151+9999MW1031
0302704540257041968101616002+51883-176650SAO  +0005ADK  V0201505N007250061049N011200599+00725+00565100535ADDGA1999+006104064GD14084+9999999GD20994+9999999GD30994+9999999GD40994+9999999GF108085999999999999999999MA1999999100475MW1615EQDN01 02000JPWTH 1QNNE11 1 00610E11 1 00099E11 1 00099E11 1 00099G11 1 00020H11 1 15020K11 1 00042L11 1 00700M11 1 29670N11 1 02000Q11 1 10053S11 1 00045V11 1 01010X11 1 15014
0082471410432191968091103004+35900+126617FM-15+0013RKJK V0209991V00051220001CN0112001N9+02391+01891999999ADDGA1029+006009089GA2039+045009039GF104991999999999999999999MA1999999101521MW1001
0050478030999991968010103004+33883+130650FM-15+0033RJFA V0202801N010319999999N0160001N1+00411+00021102191ADDGF107991999999999999999999MA1999999101831MW1851
009094907099999196811090200N-38100+147150AUST +0008YMES V0201585N002159999999N999999999+01835+00805999999ADDAY154999GA1025+009005065GA2015+015005065GF103995024055009005999999MA1999999101375MW1055
0092230740999991968040112004+69400+086167FM-12+002899999V0201401N00821021001CN0040001N9-00221-00391099541ADDAA106001091AA299000391AY171999GF108991081001022501021999KA1999M-00221MD1210131+9999MW1711
0106270830999991968011306004+59850+048283FM-12+018399999V0201401N00101220001CN0040001N9-02781-03001102751ADDAA199000091AY111999GF108991001001999999001071HL10009IA1319IA2999-04009KA1999N-03221MD1210041+9999MW1101
0238724837932161968033005003+39133-121433SAO  +0038BAB  V0201005N003152200059N0160005N9+02005+01225999999ADDGD10994+9999999GD20994+9999999GD30994+9999999GD40994+9999999GF100995999999999999999999MW1001EQDN01 00000JPWTH 1QNNE11 1 00099E11 1 00099E11 1 00099E11 1 00099G11U1 99999K11 1 00054L11 1 01000N11 1 00000S11 1 00068V11 1 00099X11 1 10006
036799999914737196805281200E+40650-075433SAO  +0118ABE  V0200605N005250152449N019200599+00895+00615101925ADDAA101000395GA1999+006404064GA2999+015244064GA3999+030484034GD12034+9999999GD23024+9999999GD34024+9999999GD40994+9999999GF108085999999999999999999MA1999999100515MW1615EQDN01 02000JPWTH 1QNNE11 1 00204E11 1 00403E11 1 00603E11 1 00099G11 1 00050H11 1 15021H11 1 15050H11 1 23100K11 1 00043L11 1 01200M11 1 29680N11 1 02000Q11 1 10192S11 1 00048V11 1 01010X11 1 06010
036199999924146196808181500E+48300-114267SAO  +0904FCA  V0201505N002650167649N032000599+01225+01065100875ADDAA101000095GA1999+006104134GA2999+010674134GA3999+016764064GD12014+9999999GD22024+9999999GD34064+9999999GD40994+9999999GF108085999999999999999999MA1999999090525EQDN01 00000JPWTH 1QNNE11 1 00201E11 1 00202E11 1 00607E11 1 00099G11 1 00055H11 1 13020H11 1 13035H11 1 15055K11 1 00051L11 1 02000M11 1 26730N11 1 00000Q11 1 10087S11 1 00054V11 1 01010X11 1 15005
0243722050128151968052206003+28450-081300SAO  +0032MC0  V02099959000052200059N0160005N1+01615+01395101675ADDGD10994+9999999GD20994+9999999GD30994+9999999GF100995999999999999999999MA1999999101325EQDN01 00000JPWTH 1QNNE12 1 00099E12 1 00099E12 1 00099G12U1 99999K12 1 00057L12 1 01000M12 1 29920N12 1 00000Q12 1 10167S12 1 00061V12 1 00099X12 1 00000
0108804120999991968102206004+10500-068650FM-12+000299999V0201601N001519999999N0100001N9+02501+02281101241ADDAY121999GA1999+007809039GA2069+999999999GF199999031051008001001071MD1810031+9999MW1011EQDQ01+000032SCOTCV
0383722085938311968030506003+32483-080717SAO  +0010NBC  V0202505N002152200059N0096005N1+00395-00225101855ADDGA1029+220009004GA2999+999999999GA3999+999999999GA4999+999999999GD11024+9999993GD20004+9999999GD30004+9999999GD40004+9999999GF102005999999999999999999MA1999999101765MW1055EQDN01 08100JPWTH 1QNNE11 1 00102E11 1 00000E11 1 00000E11 1 00000G11U1 99999H11C1 32999H11 1 00999H11 1 00999H11 1 00999K11 1 00028L11 1 00600M11 1 30050N11 1 08100Q11 1 10185S11 1 00039V11 1 00200X11 1 25004
0285999999687011968020903005-80017-178417SAO  +010199999V0202305N006750213449N016000599-01615+99999099355ADDGA1999+021344034GD14084+9999999GD20994+9999999GD30994+9999999GD40994+9999999GF108085999999999999999999MA1999999098045EQDN01 00000JPWTH 1QNNE11 1 00610E11 1 00099E11 1 00099E11 1 00099G11 1 00070H11 1 23070L11 1 01000M11 1 28950N11 1 00000Q11 1 09935S11 1 00003V11 1 01010X11 1 23013
0269999999264351968080215005+64550-149083SAO  +011199999V0202205N003650091449N024000599+01175+00945102035ADDGD13994+9999999GD24994+9999999GD30994+9999999GD40994+9999999GF108085999999999999999999MA1999999100645EQDN01 00000JPWTH 1QNNE11 1 00499E11 1 00699E11 1 00099E11 1 00099G11 1 00030K11 1 00049L11 1 01500M11 1 29720N11 1 00000Q11 1 10203S11 1 00053V11 1 01010X11 1 22007
0098713953999991968042517004+44883-063517SAO  +0145CYHZ V0201801N011310480019N0240001N1+01191+00911101441ADDGA1019+008409079GA2039+018009059GA3049+048009039GF108991999999999999999999MA1999999099731MW1001
0269999999947451968042815005+41067-073717SAO  +0122HPN  V0203505N004152200059N024000599+01285-00395102175ADDGD11994+9999993GD20994+9999999GD30994+9999999GD40994+9999999GF102015999999999999999999MA1999999100515EQDN01 00000JPWTH 1QNNE11 1 00199E11 1 00099E11 1 00099E11 1 00099G11U1 99999K11 1 00025L11 1 01500M11 1 29680N11 1 00000Q11 1 10217S11 1 00055V11 1 00301X11 1 35008
0058704140999991968012316004+52717+174100SAO  +0031PASY V0201101N007210033019N0112001N9+00221+00111099861ADDGF108991999999999999999999MA1099831099491MW1001OC101031
0073164000999991968051221004+38700+013183FM-12+025199999V0202401N01131002701CN0040001N9+01721+01611101451ADDAY111999GA1069+002709059GF108991061051002501021999MD1310161+9999MW1101
0096986460999991968122016004+10300+123967FM-15+0009RPMT V0200301N002610300019N0112001N1+02521+02241999999ADDGA1019+007509089GA2039+015009059GA3089+030009039GF108991999999999999999999EQDQ01+000000PRSWM2
0275999999947891968051304005+40650-073783SAO  +0010JFK  V0200605N005250091449N012800599+01115+01115101765ADDGD12994+9999999GD24994+9999999GD30994+9999999GD40994+9999999GF108085999999999999999999MA1999999101695MW1805EQDN01 02300JPWTH 1QNNE11 1 00299E11 1 00699E11 1 00099E11 1 00099G11 1 00030K11 1 00052L11 1 00800M11 1 30030N11 1 02300Q11 1 10176S11 1 00052V11 1 01010X11 1 06010
0009702190266151968020718004+60783-161800SAO  +0046BET  V02099999999999999999N0000001N1+99999+99999999999ADDMW1001
0057104990999991968062003004+51167+014950FM-12+023799999V0200901N00101220001CN0060001N9+01611+01501100801ADDAY111031GF103991021001999999041021MD1810091+9999MW1111
0050722485139441968012515004+32500-093667SAO  +0054BAD  V0201601N004112200019N0240001N9+00461-00091101391ADDGF100991999999999999999999MA1999999100751MW1001
0127235520999991968102218004+64917+077650FM-12+002799999V0202001N00721001501CN0040001N9-00611-00721099331ADDAA106004091AA299001091AY171999GA1089+001509079GF108991999071001501021999KA1999M-00611MD1710211+9999MW1731EQDQ01+000082SCOTLC
0057160590999991968070300004+45217+007650FM-12+028799999V0209991C00001220001CN0040001N9+02391+02111101331ADDAY111999GF100991001001999999001001MD1110021+9999MW1101
0092261150999991968031518004+58917+022067FM-12+000999999V0202501N00871220001CN0100001N9-00221-01001099451ADDAA106075091AA224999999AY121999GF106991001001999999001051KA1999M-00221MD1710071+9999MW1021
0073266290999991968101903004+54883+023883FM-12+007599999V0203401N00411001801CN0047001N9+00501+00391101581ADDAY121999GA1089+001809079GF108991081061001501999999MD1210151+9999MW1101
028699999923174196805231400E+33933-118383SAO  +003799999V0200705N003652200059N009600599+01445+01115101315ADDAA101000095GD12994+9999999GD20994+9999999GD30994+9999999GD40994+9999999GF101015999999999999999999MA1999999100955MW1055EQDN01 08100JPWTH 1QNNE11 1 00299E11 1 00099E11 1 00099E11 1 00099G11U1 99999K11 1 00052L11 1 00600M11 1 29810N11 1 08100Q11 1 10131S11 1 00058V11 1 00101X11 1 07007
0058945780999991968101002004-27417+153083FM-12+000499999V0200901N005119999999N0220001N9+02561+01111999999ADDAY141999GF103991031021012501001001MA1999999101341MW1041
0073067500999991968012312004+46650+008617FM-12+228499999V0200301N00461220001CN0700001N9-00221-01391999999ADDAY111999GA1039+069009009GF103991001001999999001011MD1810011+9999MW1031
0081293130999991968092312004+57533+079367FM-12+011099999V0203201N00311220001CN0500001N9+00501-00111102491ADDAA199000091AY121999GF102991021051012501001001KA1999M+00721MD1210141+9999MW1011
0050746061999991968071206004+34550-120617SAO  +002699999V0203501N011312200019N0176001N1+02461+00191101471ADDGF102991999999999999999999MA1999999101151MW1001
0050488520999991968092905004+16400+107683SAO  +0017VVPD V0203601N003110300019N0112001N1+03181+02411101121ADDGF107991999999999999999999MA1999999100851MW1001
006694695099999196807200500N-31570+143380AUST +0081     V0209999C000059999999N999999999+01615+99999999999ADDGA1065+015005085GF106995064015015005999999MA1999999101565MW1035
0318999999138551968031508005+35383-086233SAO  +032999999V0201705N002659999999N999999999+00785-00445999999ADDGA1999+999999024GA2999+999999024GA3999+999999024GA4999+999999024GD14074+9999999GD24074+9999999GD34074+9999999GD44074+9999999GF107075999999999999999999EQDN01 99990FPRES 5QNNE11 1 00609E11 1 00609E11 1 00609E11 1 00609H11 1 37999H11 1 37999H11 1 37999H11 1 37999K11 1 00024M11 5 99990S11 1 00046V11 1 00909X11 1 17005
0057264590999991968111015004+59317+028900FM-12+014099999V0201101N00311004501CN0190001N9+00111-00221102621ADDAY121999GF108991081051004501999999MD1710081+9999MW1021
0238722210138581968062817003+30483-086517SAO  +0020VPS  V0202405N002152200059N0208005N9+03005+01225999999ADDGD10994+9999999GD20994+9999999GD30994+9999999GD40994+9999999GF100995999999999999999999MW1001EQDN01 00000JPWTH 1QNNE11 1 00099E11 1 00099E11 1 00099E11 1 00099G11U1 99999K11 1 00054L11 1 01300N11 1 00000S11 1 00086V11 1 00099X11 1 24004
0067388750999991968033118004+38467+073833FM-12+999999999V0202301N00821220001CN9999999N9-01111-01611103921ADDAA199000091AY101999GF103991031091008001001001KA1999M-00281MW1031
0269999999265291968070909005+65167-152100SAO  +0073TAL  V0200905N007750152449N048000599+02285+00835100065ADDGD12994+9999999GD23994+9999999GD33994+9999999GD40994+9999999GF106035999999999999999999MA1999999099295EQDN01 00000JPWTH 1QNNE11 1 00299E11 1 00499E11 1 00499E11 1 00099G11 1 00050K11 1 00047L11 1 03000M11 1 29320N11 1 00000Q11 1 10006S11 1 00073V11 1 00704X11 1 09015
0064489006999991968032804004+11667+106650FM-15+0151VVQL V0209991V002112200019N0112001N1+03071+02071999999ADDGA1029+007509089GF102991999999999999999999EQDQ01+000000PRSWM2
0057277860999991968120215004+54283+048250FM-12+011799999V0203301N00211220001CN0040001N9-02721-02891101381ADDAY171999GF103991031001999999051001MD1110191+9999MW1101
0081356630999991968040418004+47833+066750FM-12+048899999V0200501N00511220001CN0200001N9-00391-00891103731ADDAA199000091AY101999GF101991001001999999001011KA1999M+00221MD1210291+9999MW1011
0089109340999991968091012004+47650+009483FM-12+040199999V0202501N00311004201CN0060001N9+01611+01281101771ADDAY121061GA1059+004209079GA2079+004809079GF107991071061004501999999MD1810051+9999MW1021
0057434130999991968051206004+08983+079917FM-12+000399999V0202001N004119999999N0200001N9+02721+02391101091ADDAY121999GF105991041001012501999999MD1999999+0211MW1021
028672341813977196807160900C+33450-094000SAO  +0112TXK  V0201505N003652200059N0160005N1+02505+02335101915ADDAA101000095GD11994+9999993GD20994+9999999GD30994+9999999GD40994+9999999GF102015999999999999999999MA1999999100615MW1001EQDN01 00000JPWTH 1QNNE11 1 00199E11 1 00099E11 1 00099E11 1 00099G11U1 99999K11 1 00074L11 1 01000M11 1 29710N11 1 00000Q11 1 10191S11 1 00077V11 1 00301X11 1 15007
0070275390999991968082018004+55617+040483FM-12+013599999V0200901N00311024001CN0120001N9+01781+01721101991ADDAY181999GF106991061001999999031001KA1999M+02501MD1210151+9999MW1011
0067488526999991968112714004+16417+107633FM-15+0030ICEA V0201001N003110090019N0080001N1+02411+02021999999ADDGA1079+009009089GA2039+021009039GF108991999999999999999999MW1801
0255999999047511968031315005+41800-078633SAO  +0646BFD  V0203305N006252200059N008000599-00945-01115100805ADDGD13994+9999999GD20994+9999999GD30994+9999999GF106055999999999999999999MA1999999092965MW1385MW2855EQDN01 05084JPWTH 1QNNE11 1 00499E11 1 00099E11 1 00099G11C1 99999K11 1 00012L11 1 00500M11 1 27450N11 1 05084Q11 1 10080S11 1 00015V11 1 00806X11 1 33012
0269999999931021968041323005+39417-118717SAO  +1199NFL  V0200305N002152200059N024000599+01395-00225102385ADDGD10994+9999999GD20994+9999999GD30994+9999999GD40994+9999999GF100005999999999999999999MA1999999088695EQDN01 00000JPWTH 1QNNE11 1 00099E11 1 00099E11 1 00099E11 1 00099G11U1 99999K11 1 00028L11 1 01500M11 1 26190N11 1 00000Q11 1 10238S11 1 00057V11 1 00000X11 1 03004
0050702350999991968052412004+61100-155583SAO  +0487PASV V0209991C000012200019N0320001N9+00631+00351100751ADDGF108991999999999999999999MA1999999094951MW1001
006772208013880196803112000D+32900-080033SAO  +0014CHS  V0201601N005110180019N0064001N1+01501+01111101661ADDAA101000095GF108991999999999999999999MA1101631101491MW1041MW2611
0232999999948661968021023005+41867-087617SAO  +0180CGX  V0203105N006252200059N019200599-01115-02225999999ADDGD12994+9999999GD20994+9999999GD30994+9999999GD40994+9999999GF104995999999999999999999EQDN01 00000JPWTH 1QNNE11 1 00299E11 1 00099E11 1 00099E11 1 00099G11U1 99999K11 1-00008L11 1 01200N11 1 00000S11 1 00012V11 1 00599X11 1 31012
0035702120266331968070322004+61783-166033SAO  +0142PACZ V0200901N003110105019N0240001N9+01521+00911999999ADDGF108991999999999999999999MW1001
0045035773999991968010323004+52367+000483FM-15+0012EGUN V0203201N01081220001CN0112001N9+00171-00441999999ADDGA1019+018009039GF101991999999999999999999
0089846280999991968091115004-12650-077100FM-12+001199999V0203501N00211007801CN0160001N9+01721+01221101721ADDAY121999GA1999+006009089GA2069+999999999GF108991081051008001999999MD1210081+9999MW1031
0062678570999991968040312004+19767+027750FM-12+111099999V0203601N00261220001CN0500001N9+03221+00941999999ADDAY101999GF103991031021999999061001MW1151EQDQ01+000992SCOLCB
0043803540999991968041415004+01683-075483FM-12+024499999V0200901N002119999999N0200001N9+99999+99999999999ADDAY121999GF105991011011004501041001MW1011
0035722270138641968050123004+33917-084533SAO  +0329MGE  V0202901N005112200019N0240001N9+02461+00581999999ADDGF100991999999999999999999MW1001
0035722615220011968010216004+29367-100783SAO  +032999999V0201201N002610033019N0112001N9+00911+00581999999ADDGF108991999999999999999999MW1001
0329999999406041968071518005+08733+167733SAO  +000399999V0201705N006750036649N008000599+02565+02445100975ADDGA1999+003664084GA2999+030484044GD13064+9999999GD24084+9999999GD30994+9999999GD40994+9999999GF108085999999999999999999MA1999999100885MW1805EQDN01 02300JPWTH 1QNNE11 1 00408E11 1 00610E11 1 00099E11 1 00099G11 1 00012H11 1 11012H11 1 21100K11 1 00076L11 1 00500M11 1 29790N11 1 02300Q11 1 10097S11 1 00078V11 1 01010X11 1 17013
0275727755241121968102321003+47517-111167SAO  +1056GFA  V0202305N006252200059N0720005N9+01565+00065102165ADDGD12994+9999999GD24994+9999993GD30994+9999999GD40994+9999999GF108995999999999999999999MA1999999089775MW1001EQDN01 00000JPWTH 1QNNE11 1 00299E11 1 00599E11 1 00099E11 1 00099G11U1 99999K11 1 00033L11 1 04500M11 1 26510N11 1 00000Q11 1 10216S11 1 00060V11 1 01099X11 1 23012
0077035773999991968031917004+52367+000483FM-15+0012EGUN V0202201N00721015001CN0112001N9+01051+00281999999ADDGA1039+009009059GA2079+015009059GA3089+045009049GF108991999999999999999999
0083035773999991968031116004+52367+000483FM-15+0012EGUN V0200101N00311009901CN0096001N9+01001+00331999999ADDGA1029+007209079GA2059+009909059GA3089+018009039GF108991999999999999999999MW1611
034099999914895196801070300E+40917-081433SAO  +0368CAK  V0203505N004650076249N004000599-00505-00835102045ADDAA101000095GA1999+004574064GA2999+007624064GD12034+9999999GD24054+9999999GD30994+9999999GD40994+9999999GF108085999999999999999999MA1999999097395MW1715EQDN01 04000JPWTH 1QNNE11 1 00204E11 1 00606E11 1 00099E11 1 00099G11 1 00025H11 1 15015H11 1 15025K11 1 00017L11 1 00250M11 1 28760N11 1 04000Q11 1 10204S11 1 00023V11 1 01010X11 1 35009
0095272710999991968121900004+58367+045550FM-12+999999999V0201601N00311003901CN0100001N9-00721-00781102291ADDAA106075091AA224999999AY171999GA1089+003909079GF108991081061004501999999MD1810061+9999MW1021
0060161490999991968102606004+44017+012633FM-12+001299999V0203001N00361003601CN0011001N9+01221+01111999999ADDGA1089+003609079GF108991999999999999999999MA1101021999999
0057166690999991968081312004+38833+020717FM-12+000799999V0203201N00931090001CN0300001N9+02611+01891100931ADDAY111999GF105991011021008001001021MD1210091+9999MW1031
0073172400999991968121603004+37750+030550FM-12+104399999V0202701N00101004201CN0008001N9+00391+00281101001ADDAY141999GA1069+008109059GF108991061021004501071999MD1710031+9999MW1421
028672572024127196804220500C+40767-111967SAO  +1286SLC  V0200405N002150085349N0240005N1+00115-00225101845ADDAA101000095GD12994+9999999GD23994+9999999GD33994+9999999GD40994+9999999GF105055999999999999999999MA1999999087135MW1855EQDN01 05000JPWTH 1QNNE12 1 00299E12 1 00499E12 1 00499E12 1 00099G12 1 00028K12 1 00028L12 1 01500M12 1 25730N12 1 05000Q12 1 10184S12 1 00034V12 1 00606X12 1 04004
009094285099999196801080500N-16380+145570AUST +0004     V0201355N009359999999N999999999+03175+02605999999ADDAY124999GA1025+006005095GA2015+999999035GF103995024035006005045999MA1999999099985MW1025
0079489015999991968052421004+10800+106967FM-15+0044VVLT V0200701N001012200019N0112001N1+02461+02351999999ADDGA1039+090009029GF102991999999999999999999MA1999999100271EQDQ01+000000PRSWM2
028099999924121196805160000E+40833-115783SAO  +1539EKO  V0203205N005752200059N048000599+01395-00225101685ADDAA101000095GD12994+9999999GD20994+9999999GD30994+9999999GD40994+9999999GF104035999999999999999999MA1999999084565EQDN01 00000JPWTH 1QNNE11 1 00299E11 1 00099E11 1 00099E11 1 00099G11U1 99999K11 1 00028L11 1 03000M11 1 24970N11 1 00000Q11 1 10168S11 1 00057V11 1 00504X11 1 32011
0035722520129201968101805004+27533-099450SAO  +0158LRD  V0200601N004110075019N0240001N1+02181+01021999999ADDGF108991999999999999999999MW1001
0096488935999991968081317004+10967+106483FM-15+0014VVCC V0201101N001010240019N0112001N1+02521+02461999999ADDGA1029+006009059GA2069+024009049GA3089+090009029GF108991999999999999999999EQDQ01+000000PRSWM2
0043406500999991968030121004+33333+044400FM-12+0034ORBB V0201201N01131002401CN0100001N9+01611+00721100941ADDGF109991091999000251999999MD1710031+9999
0073061990999991968080721004+55000+015083FM-12+000699999V0200201N00261220001CN0250001N9+01721+01501101381ADDAY111999GA1049+045009039GF104991041001999999051001MD1410001+9999MW1031
0035702120266331968100523004+61783-166033SAO  +0142PACZ V0201901N005710015019N0160001N9+00461+00301999999ADDGF108991999999999999999999MW1001
0066704140999991968061806004+52717+174100SAO  +0031PASY V0202801N007710048019N0160001N9+00671+00331101961ADDGA1089+004809059GF108991999999999999999999MA1101931101591MW1001
0035722786231041968063020004+33317-111650SAO  +0422IWA  V0201401N002612200019N0720001N9+03461+00411999999ADDGF100991999999999999999999MW1001
0067106070999991968052507004+49967+006700FM-15+0365EDAD V0200801N00411220001CN0080001N9+01051+00671999999ADDGA1049+021009039GA2019+066009009GF104991999999999999999999MW1051
0064788071999991968020814004+08967-079550FM-15+0012MBLB V0203601N001012200019N0112001N1+02521+02071999999ADDGA1039+006009059GF102991999999999999999999EQDQ01+000000PRSWM2
0068224380999991968092303004+65200+036650FM-12+001899999V0201601N00821024001CN0150001N9+00721+00501100391ADDAA106000091AY121999GF107991071001999999011001MD1710161+9999MW1021
0035724240138071968121120004+37900-085967SAO  +0230FTK  V0202101N003112200019N0176001N9+01021-00261999999ADDGF107991999999999999999999MW1001
031399999914918196804040600E+48567-093383SAO  +0359INL  V0200105N007250015249N001300599-00725-00895101235ADDAA101000395GA1999+001524104GD15084+9999999GD20994+9999999GD30994+9999999GD40994+9999999GF108085999999999999999999MA1999999096755MW1715EQDN01 04000JPWTH 1QNNE11 1 00710E11 1 00099E11 1 00099E11 1 00099G11 1 00005H11 1 98005K11 1 00016L11 1 00081M11 1 28570N11 1 04000Q11 1 10123S11 1 00019V11 1 01010X11 1 01014
0127483540999991968061803004+17367+102800FM-15+0181VTUD V0209991V001010450019N0112001N1+03021+02351999999ADDGA1039+006009089GA2019+024009039GA3039+045009049GA4089+090009029GF108991999999999999999999MA1999999098781EQDQ01+000000PRSWM2
0073161530999991968101300004+43950+008167FM-12+022199999V0209991C00001220001CN0090001N9+01781+01611102321ADDAY121999GA1069+999999019GF108991081051004501999999MD1110011+9999MW1101
0041160365999991968112113004+46033+012600FM-15+0129LIPA V0209991V00101220001CN0112001N9+01241+00351999999ADDGA1019+015009089GA2019+036009039MW1001
0238725540149491968061005003+41117-095900SAO  +0314OFF  V0201705N003150914449N0160005N9+02675+02065999999ADDGD12994+9999999GD22994+9999999GD34994+9999999GD40994+9999999GF108995999999999999999999MW1001EQDN01 00000JPWTH 1QNNE11 1 00299E11 1 00299E11 1 00699E11 1 00099G11 1 00300K11 1 00069L11 1 01000N11 1 00000S11 1 00080V11 1 01099X11 1 17006
0238723825231311968040711003+34583-117383SAO  +0869VCV  V0201705N003652200059N0480005N9+00725-00285999999ADDGD10994+9999999GD20994+9999999GD30994+9999999GD40994+9999999GF100995999999999999999999MW1001EQDN01 00000JPWTH 1QNNE11 1 00099E11 1 00099E11 1 00099E11 1 00099G11U1 99999K11 1 00027L11 1 03000N11 1 00000S11 1 00045V11 1 00099X11 1 17007
0275724361138031968091818003+39267-085900SAO  +0200BAK  V0201805N004150121949N0240005N1+01615+01445101415ADDGD12994+9999999GD23994+9999999GD34994+9999999GD40994+9999999GF108995999999999999999999MA1999999099025MW1001EQDN01 00000JPWTH 1QNNE11 1 00299E11 1 00499E11 1 00699E11 1 00099G11 1 00040K11 1 00058L11 1 01500M11 1 29240N11 1 00000Q11 1 10141S11 1 00061V11 1 01099X11 1 18008
0057353940999991968032521004+49800+073133FM-12+055599999V0201601N00211220001CN0210001N9-00281-00391102421ADDAY171999GF104991041001999999031001MD1810091+9999MW1031
008294776099999196801121700N-32800+151830AUST +0011YSWM V0201355N008759999999N999999999+02125+02005999999ADDGA1065+002105115GA2025+004505085GF108995064075002105999999MA1999999101495MW1605
0269999999038531968111720005+30400-081417SAO  +0005NRB  V0201605N003152200059N012800599+02565+01675101475ADDGD12994+9999999GD23994+9999993GD30994+9999999GD40994+9999999GF106025999999999999999999MA1999999101425EQDN01 00000JPWTH 1QNNE11 1 00299E11 1 00399E11 1 00099E11 1 00099G11U1 99999K11 1 00062L11 1 00800M11 1 29950N11 1 00000Q11 1 10147S11 1 00078V11 1 00803X11 1 16006
009094594099999196811270500N-27030+153470AUST +0099     V0201135N003659999999N999999999+02445+02105999999ADDAY114999GA1045+002405095GA2025+999999035GF106995044095002405075999MA1999999099685MW1175
0269999999232391968090205005+37733-122317SAO  +0005NGZ  V0202405N003150015249N011200599+01785+01225101325ADDGD14994+9999999GD20994+9999999GD30994+9999999GD40994+9999999GF108085999999999999999999MA1999999101225EQDN01 00000JPWTH 1QNNE11 1 00699E11 1 00099E11 1 00099E11 1 00099G11 1 00005K11 1 00054L11 1 00700M11 1 29890N11 1 00000Q11 1 10132S11 1 00064V11 1 01010X11 1 24006
0070847210999991968072012004-15367-075150FM-12+003199999V0201401N00671002401CN0140001N9+01281+01001101521ADDAY121999GF107991071061002501001001KA1999N+01281MD1210041+9999MW1011
028099999914771196805052200E+43117-076117SAO  +0125SYR  V0203005N007252200059N024000599+01005-00225101555ADDAA101000095GD12994+9999999GD20994+9999999GD30994+9999999GD40994+9999999GF103035999999999999999999MA1999999100075EQDN01 00000JPWTH 1QNNE11 1 00299E11 1 00099E11 1 00099E11 1 00099G11U1 99999K11 1 00028L11 1 01500M11 1 29550N11 1 00000Q11 1 10155S11 1 00050V11 1 00404X11 1 30014
0103844720999991968120612004-07117-078450FM-12+262299999V0209991C00001220001CN0300001N9+00281+00221999999ADDAY121999GA1999+030009059GA2039+999999999GF106991001001999999031999KA1999N+00111MA1999999078091MW1031
0035702220999991968081811004+64733-156933SAO  +0046PAGA V0202301N001010060019N0112001N9+01461+01351999999ADDGF108991999999999999999999MW1001
0057167340999991968050821004+36833+021717FM-12+003799999V0200401N00151024001CN0200001N9+02111+01781101191ADDAY111999GF108991081001999999011999MD1810031+9999MW1031
0269999999231591968122409005+37700-112150SAO  +2317BCE  V02099959000052200059N024000599-01785-02285102785ADDGD10994+9999999GD20994+9999999GD30994+9999999GD40994+9999999GF100005999999999999999999MA1999999077315EQDN01 00000JPWTH 1QNNE11 1 00099E11 1 00099E11 1 00099E11 1 00099G11U1 99999K11 1-00009L11 1 01500M11 1 22830N11 1 00000Q11 1 10278S11 1 00000V11 1 00000X11 1 00000
007494804099999196811200530N-35330+136120AUST +0037     V0202485N012959999999N999999999+01365+00905999999ADDAY124999GA1045+006005085GF104995044025006005999999MA1999999101085MW1015
0073321650999991968121515004+44017+145650FM-12+004099999V0203201N00511003601CN0040001N9+00221+00221099241ADDAY161999GA1089+003609079GF108991081071004501999999MD1710221+9999MW1531
0139802110999991968080418004+04517-075650FM-12+121799999V0209991C00001033001CN0300001N9+02721+01721999999ADDAY121999GA1999+009009039GA2089+033009049GF108991031011008001031999MA1999999087911MD1710161+9999MW1031EQDQ01+000092APCTENQ02+000612APC3  
0025106190999991968123116004+49650+007300FM-15+0429EDEK V0202301N00931000601CN0022001N1-00531-00651999999ADDGA1089+000609079MW1731
0091937800999991968082904004-43483+172533FM-12+003499999V0200301N01031090001CN0550001N9+01391+00281099521ADDAY111999GA1029+012009089GA2039+045009049GA3069+090009009GF106991021021012501011041MW1031
0079484560999991968082121004+13917+100600FM-15+0004VTBD V0209991C000010105019N0096001N1+02631+02461999999ADDGA1079+010509059GF107991999999999999999999MA1999999100471EQDQ01+000000PRSWM2
010694787099999196812162300N-31430+152920AUST +0020     V0201585N004159999999N999999999+02335+01805999999ADDAY114999GA1025+006605085GA2005+999999999GA3015+999999999GF103995024025006605999025MA1999999100935MW1015
0275911700225081968012121003+21483-158033SAO  +0252HHI  V0202105N006250036649N0240005N9+02225+02065101405ADDGD12994+9999999GD24994+9999999GD30994+9999999GD40994+9999999GF108995999999999999999999MA1999999098515MW1805EQDN01 02300JPWTH 1QNNE11 1 00299E11 1 00699E11 1 00099E11 1 00099G11 1 00012K11 1 00069L11 1 01500M11 1 29090N11 1 02300Q11 1 10140S11 1 00072V11 1 01099X11 1 21012
0043302530999991968032321004+57850-114183FM-12+027899999V0209991C00001220001CN0500001N9-01611-01891101901ADDAY111999GF106991001001999999001011MW1021
039472306013722196810030000C+35867-078783SAO  +0132RDU  V0201605N002152200059N0240005N1+02115+01175101685ADDAA101000095GA1039+220009004GA2999+999999999GA3999+999999999GA4999+999999999GD11034+9999993GD20004+9999999GD30004+9999999GD40004+9999999GF103015999999999999999999MA1999999100105MW1001EQDN01 00000JPWTH 1QNNE11 1 00104E11 1 00000E11 1 00000E11 1 00000G11U1 99999H11C1 32999H11 1 00999H11 1 00999H11 1 00999K11 1 00053L11 1 01500M11 1 29560N11 1 00000Q11 1 10168S11 1 00070V11 1 00401X11 1 16004
0089162610999991968122300004+41533+015717FM-12+005499999V0209991C00001220001CN0120001N9+00501+00281102241ADDAY101999GA1019+009009059GA2039+024009049GF104991011051008001011001MD1610051+9999MW1031
0050724835232061968110821004+38550-121300SAO  +0029MHR  V0201601N002112200019N0160001N9+01851+01131102551ADDGF107991999999999999999999MA1999999102171MW1001
0068200340999991968050500004+80667+043967FM-12+999999999V0201101N01081004501CN0020001N9-00891-01111101611ADDAA106000091AY131999GF108991081051004501999999MD1710151+9999MW1381
0232999999176051968031607005+76517-068833SAO  +0077BGTL V0201005N002152200059N011200599-02285-03285999999ADDGD12994+9999999GD20994+9999999GD30994+9999999GD40994+9999999GF102995999999999999999999EQDN01 00000JPWTH 1QNNE11 1 00299E11 1 00099E11 1 00099E11 1 00099G11U1 99999K11 1-00027L11 1 00700N11 1 00000S11 1-00009V11 1 00299X11 1 10004
0057314210999991968072318004+52700+137533FM-12+005099999V0209991C00001000151CN0002001N9+00391+00391100861ADDAY101999GF109991091999000251999999MD1210061+9999MW1471
0132804120999991968100212004+10500-068650FM-12+000299999V0202201N00211081001CN0300001N9+02781+02281101571ADDAA124000391AY121999GA1999+006009029GA2069+081009059GF107991021051008001999081KA1999N+02391MD1210161+9999MW1021EQDQ01    003SCOMCG
0057274020999991968080915004+56833+035900FM-12+0137UUEM V0200201N00211220001CN0500001N9+01781+00281101561ADDAY101999GF101991011021012501001001MD1710041+9999MW1021
0061479310999991968111317004+26350+127767FM-15+0046RODN V0200101N00151220001CN0112001N9+01721+01111999999ADDGA1039+015009059GA2029+021009039GF104991999999999999999999
0096488915999991968120701004+11317+106067FM-15+0008VVTN V0200101N001510900019N0112001N1+02461+02241999999ADDGA1019+006009079GA2019+030009049GA3089+090009029GF108991999999999999999999EQDQ01+000000PRSWM2
0067677650999991968051218004+16833+029617FM-12+134499999V0200501N00211220001CN0500001N9+01941+01171999999ADDAY101999GF101991011041022501001011MA1999999086801ME1315249MW1021
0081207440999991968120718004+72383+052733FM-12+001699999V0202001N00871220001CN0500001N9-01391-02501101331ADDAA106000091AY171999GF104991011051008001031001KA1999M-01221MD1210061+9999MW1361
0044744900147021968050415004+42467-071283SAO  +0045BED  V0203201N006710600019N0240001N9+01851+01131100271ADDGF108991999999999999999999MA1999999099761
038899999993729196809131500E+35267-075550SAO  +0002HAT  V0200205N004152200059N016000599+02445+01395101895ADDAA101000095GA1999+999999024GA2999+999999999GA3999+999999999GA4999+999999999GD14084+9999999GD20004+9999999GD30004+9999999GD40004+9999999GF108065999999999999999999MA1999999101865EQDN01 00000JPWTH 1QNNE11 1 00610E11 1 00000E11 1 00000E11 1 00000G11C1 99999H11C1 37999H11 1 00999H11 1 00999H11 1 00999K11 1 00057L11 1 01000M11 1 30080N11 1 00000Q11 1 10189S11 1 00076V11 1 01008X11 1 02008
0165999999231571968062203005+37367-118367SAO  +1253BIH  V0202705N002152200059N112000599+03335-00336100765ADDGF100005999999999999999999MA1999999087065EQDN01 00000JPWTH 1QNNG11U1 99999K11 1 00026L11 1 07000M11 1 25710N11 1 00000Q11 1 10076S11 1 00092V11 1 00000X11 1 27004
0269999999107191968051517005+99999+999999SAO  +999999999V0202405N003650243849N011200599+02725+02505101245ADDGD12994+9999999GD23994+9999999GD33994+9999999GD40994+9999999GF107065999999999999999999MA1999999101155EQDN01 00000JPWTH 1QNNE11 1 00299E11 1 00499E11 1 00499E11 1 00099G11 1 00080K11 1 00077L11 1 00700M11 1 29870N11 1 00000Q11 1 10124S11 1 00081V11 1 00907X11 1 24007
004483721099999196807050100N-23000-047133BRAZ +0661SBKP V02036019999999999999N020000199+01511+01001101551ADDGF100991999999999999999999MA1101771094201
0269999999232391968031922005+37733-122317SAO  +0005NGZ  V0203605N005752200059N024000599+02175+00285102485ADDGD11994+9999993GD20994+9999999GD30994+9999999GD40994+9999999GF102015999999999999999999MA1999999102375EQDN01 00000JPWTH 1QNNE11 1 00199E11 1 00099E11 1 00099E11 1 00099G11U1 99999K11 1 00037L11 1 01500M11 1 30230N11 1 00000Q11 1 10248S11 1 00071V11 1 00201X11 1 36011
0098036880999991968080215004+51967+000500FM-15+0101EGVT V0203601N008210030019N0096001N1+01191+01021999999ADDGA1039+002409079GA2069+003009079GA3089+004809059GF108991999999999999999999MA1999999100681MW1511
0095471320999991968072205004+36450+127433FM-15+0040RKTD V0200401N002610069019N0096001N1+03071+02411999999ADDGA1059+006909059GA2049+013509059GF108991999999999999999999MA1999999100611EQDQ01+000000PRSWM2
0057787200999991968012218004+14050-087217FM-12+1007MHTG V0203601N00461015001CN0240001N9+02391+01281999999ADDAY141999GF106991061081012501001001MD1810181+9999MW1011
0195999999232931968031418005+37367-121917SAO  +0016SJC  V0201205N004650091449N032000599+01445+01065999999ADDGD13994+9999999GD23994+9999999GD30994+9999999GD40994+9999999EQDN01 00000JPWTH 1QNNE11 1 00499E11 1 00499E11 1 00099E11 1 00099G11 1 00030K11 1 00051L11 1 02000N11 1 00000S11 1 00058X11 1 12009
0171999999232391968100815005+37733-122317SAO  +0005NGZ  V02099959000052200059N008000599+01225+00835101245ADDGF100005999999999999999999MA1999999101155MW1055EQDN01 08100JPWTH 1QNNG11U1 99999K11 1 00047L11 1 00500M11 1 29870N11 1 08100Q11 1 10124S11 1 00054V11 1 00000X11 1 00000
0238999999948691968100916005+43117-088050SAO  +0224MWC  V0201505N005252200059N004800599+01505+01065999999ADDGD12994+9999999GD24994+9999999GD30994+9999999GD40994+9999999GF108995999999999999999999MW1045EQDN01 08200JPWTH 1QNNE11 1 00299E11 1 00699E11 1 00099E11 1 00099G11C1 99999K11 1 00051L11 1 00300N11 1 08200S11 1 00059V11 1 01099X11 1 15010
0084172900999991968121815004+37033+027417FM-12+000399999V0201801N00671220001CN0300001N9+01501+01111102061ADDAY111999GF104991031051012501001011MD1110021+9999MW1021REMSYN018SPCL PHENOM=791828
0238725540149491968122313003+41117-095900SAO  +0314OFF  V0203005N009352200059N0160005N9-01175-01565999999ADDGD10994+9999999GD20994+9999999GD30994+9999999GD40994+9999999GF100995999999999999999999MW1001EQDN01 00000JPWTH 1QNNE11 1 00099E11 1 00099E11 1 00099E11 1 00099G11U1 99999K11 1 00004L11 1 01000N11 1 00000S11 1 00011V11 1 00099X11 1 30018
0377999999231691968111921005+36083-115167SAO  +065999999V0200205N006252200059N104000599+02115+00175102125ADDGA1999+999999084GA2999+999999034GA3999+999999999GA4999+999999999GD10004+9999999GD20004+9999999GD30004+9999999GD40004+9999999GF100005999999999999999999MA1999999094415EQDN01 00000JPWTH 1QNNE11 1 00000E11 1 00000E11 1 00000E11 1 00000G11U1 99999H11 1 11999H11 1 23999H11 1 00999H11 1 00999K11 1 00035L11 1 06500M11 1 27880N11 1 00000Q11 1 10212S11 1 00070V11 1 00000X11 1 02012
0057225730999991968110803004+64900+045767FM-12+006699999V0202301N00721030001CN0400001N9-00221-00281101811ADDAY171999GF107991041071004501011001MD1710381+9999MW1361
0096172400999991968041812004+37750+030550FM-12+104399999V0200301N00211012001CN0250001N9+01501+00221101041ADDAJ100009199999999AY111999GA1059+012009059GF106991051021012501061001IA1009MD1810101+9999MW1031
0095488635999991968070903004+14817+108950FM-15+0012IDPO V0200401N005112200019N0112001N1+03461+02351999999ADDGA1019+006009089GA2069+090009029GF107991999999999999999999MA1999999100241EQDQ01+000000PRSWM2
0044704140999991968121420004+52717+174100SAO  +0031PASY V0203301N006110120019N0110001N9-00201-01001099861ADDGF107991999999999999999999MA1099831099491
0286780160136011968110514003+32367-064683SAO  +0006TXKF V0201705N008250823049N1600005N9+02335+01945999999ADDGA1039+006104084GA2089+082304024GD14034+9999999GD24084+9999999GD30994+9999999GD40994+9999999GF108995999999999999999999EQDN01 00000JPWTH 1QNNE11 1 00604E11 1 00610E11 1 00099E11 1 00099G11 1 00270H11 1 11020H11 1 37270K11 1 00067L11G1 10000N11 1 00000S11 1 00074V11 1 01099X11 1 17016
0057267590999991968040515004+54217+028517FM-12+018499999V0202301N00981007801CN0500001N9+01111-00111101181ADDAY121999GF107991071031008001001001MD1710291+9999MW1021
0269999999231591968052500005+37700-112150SAO  +2317BCE  V0203205N008252200059N032000599+01065-00505101345ADDGD12994+9999999GD22994+9999999GD30994+9999999GD40994+9999999GF103035999999999999999999MA1999999076905EQDN01 00000JPWTH 1QNNE11 1 00299E11 1 00299E11 1 00099E11 1 00099G11U1 99999K11 1 00023L11 1 02000M11 1 22710N11 1 00000Q11 1 10134S11 1 00051V11 1 00404X11 1 32016
0181999999232931968021117005+37367-121917SAO  +0016SJC  V0200905N001550365849N002000599+00785+00725999999ADDGD12994+9999999GD23994+9999999GD30994+9999999MW1045MW2455EQDN01 07082JPWTH 1QNNE11 1 00299E11 1 00499E11 1 00099G11 1 00120K11 1 00045L11 1 00125N11 1 07082S11 1 00046X11 1 09003
0057262890999991968031021004+57967+033233FM-12+021999999V0202501N00621004501CN0040001N9-00781-01111999999ADDAY171999GF108991061071004501011999MD1210091+9999MW1711
0057877500999991968080400004-38717-062167FM-12+007299999V0209991C00001220001CN0200001N9+00891+00721102031ADDAY101999GF100991001001999999001001MD1110091+9999MW1021
0084163500999991968041512004+39000+017067FM-12+0161LIBC V0200301N00101220001CN0120001N9+01721+00781101201ADDAA199000591AY161999GA1039+006009089GF103991021021008001001001MD1810011+9999MW1011
0057259130999991968091406004+59583+150783FM-12+0118UHMM V0200501N00101004201CN0500001N9+00891+00781101511ADDAY161999GF108991051071004501021999MD1710051+9999MW1611
039472255012912196803071500C+28850-096917SAO  +0032VCT  V0202705N002652200059N0128005N1+01395+01175102125ADDAA101000095GA1999+999999064GA2999+999999999GA3999+999999999GA4999+999999999GD10004+9999999GD20004+9999999GD30004+9999999GD40004+9999999GF100005999999999999999999MA1999999101695MW1001EQDN01 00000JPWTH 1QNNE11 1 00000E11 1 00000E11 1 00000E11 1 00000G11U1 99999H11 1 15999H11 1 00999H11 1 00999H11 1 00999K11 1 00053L11 1 00800M11 1 30030N11 1 00000Q11 1 10212S11 1 00057V11 1 00000X11 1 27005
0269999999412311968071508005+14800+120267SAO  +0014RPMB V0202205N002152200059N024000599+03285+02505100845ADDGD12994+9999999GD23994+9999999GD30994+9999999GD40994+9999999GF106045999999999999999999MA1999999100645EQDN01 00000JPWTH 1QNNE11 1 00299E11 1 00499E11 1 00099E11 1 00099G11C1 99999K11 1 00077L11 1 01500M11 1 29720N11 1 00000Q11 1 10084S11 1 00091V11 1 00805X11 1 22004
0057317350999991968021606004+48517+135167FM-12+0072UHHH V0200901N00211220001CN0100001N9-01891-02111102791ADDAY101999GF100991001001999999001001MD1610081+9999MW1021
0081470140999991968051500004+41783+126883FM-12+031399999V0209991C00001220001CN0100001N9+01281+00611101051ADDAA199000091AY121999GF108991001001999999001021KA1999N+00501MD1210081+9999MW1031
0238724837932161968032410003+39133-121433SAO  +0038BAB  V02099959000052200059N0240005N9+01065+00505999999ADDGD10994+9999999GD20994+9999999GD30994+9999999GD40994+9999999GF100995999999999999999999MW1001EQDN01 00000JPWTH 1QNNE11 1 00099E11 1 00099E11 1 00099E11 1 00099G11U1 99999K11 1 00041L11 1 01500N11 1 00000S11 1 00051V11 1 00099X11 1 00000
0377999999931011968122100005+33667-117733SAO  +0116NZJ  V0200605N007252200059N040000599+00445-00565100905ADDGA1999+009144084GA2999+021344034GA3999+999999999GA4999+999999999GD12024+9999999GD22024+9999999GD30004+9999999GD40004+9999999GF104045999999999999999999MA1999999099535EQDN01 00000JPWTH 1QNNE11 1 00202E11 1 00203E11 1 00000E11 1 00000G11U1 99999H11 1 11030H11 1 23070H11 1 00999H11 1 00999K11 1 00022L11 1 02500M11 1 29390N11 1 00000Q11 1 10090S11 1 00040V11 1 00505X11 1 06014
0269999999265161968061720005+61583-159533SAO  +002499999V0200505N002652200059N064000599+01895+00785101105ADDGD12994+9999999GD23994+9999993GD30994+9999999GD40994+9999999GF106025999999999999999999MA1999999100785EQDN01 00000JPWTH 1QNNE11 1 00299E11 1 00399E11 1 00099E11 1 00099G11U1 99999K11 1 00046L11 1 04000M11 1 29760N11 1 00000Q11 1 10110S11 1 00066V11 1 00803X11 1 05005
0035724680940151968122114004+38683-104767SAO  +1789FCS  V0201401N002110024019N0016001N9-01031-01421999999ADDGF108991999999999999999999MW1711
0083107450999991968042316004+49117-009783FM-15+0401EDOP V0202801N00571024001CN0112001N9+02391+00781999999ADDGA1019+012009089GA2059+024009039GA3079+060009009GF107991999999999999999999MW1001
0035722270138641968100601004+33917-084533SAO  +0329MGE  V0209991C000012200019N0240001N9+01301+00461999999ADDGF108991999999999999999999MW1001
0187747020231101968081715003+36333-119950SAO  +0073NLC  V0203205N000552200059N0240005N1+01565+01115101325ADDGA1009+999999999GF100005999999999999999999MA1999999100475MW1001EQDN01 00000JPWTH 1QNNG11U1 99999K11 1 00052L11 1 01500M11 1 29670N11 1 00000Q11 1 10132S11 1 00060V11 1 00000X11 1 32001
0056471204999991968072300004+37033+126750FM-15+0015RKSN V0209991C00001007501CN0112001N1+02631+02521999999ADDGA1019+004509059GA2059+007509059MA1999999101051MW1001
0058941200999991968040909004-12467+130867FM-12+002799999V0203201N004119999999N0300001N9+03111+02441999999ADDAY121999GF101991011041017501001001MA1999999100631MW1021
038899999993842196808022100E+32517-084933SAO  +012399999V0201405N005252200059N016000599+03225+02285101805ADDAA101000095GA1999+015244094GA2999+036584034GA3999+999999004GA4999+999999999GD12034+9999999GD22014+9999999GD33034+9999999GD40004+9999999GF107065999999999999999999MA1999999100415EQDN01 00000JPWTH 1QNNE11 1 00204E11 1 00201E11 1 00404E11 1 00000G11C1 99999H11 1 18050H11 1 23120H11C1 32999H11 1 00999K11 1 00073L11 1 01000M11 1 29650N11 1 00000Q11 1 10180S11 1 00090V11 1 00908X11 1 14010
007494999900005196807070100N-16400+122930AUST +0026     V0200685N001059999999N999999999+02675+02005999999ADDAY124999GA1025+004505065GF102995024045004505999999MA1999999101055MW1025
0096479300999991968071122004+26200+127650FM-15+0004ROAH V0201801N003610900019N0112001N1+02801+02571999999ADDGA1019+004509089GA2039+045009039GA3059+090009029GF108991999999999999999999EQDQ01+000000PRSWM2
0073377890999991968121009004+40133+044467FM-12+090799999V0209991C00001010501CN0100001N9+00281-00391999999ADDAY141031GA1089+010509059GF108991081051012501999999MD1810061+9999MW1021
0035725335999991968020916004+40650-086150SAO  +0248GUS  V0203301N007712200019N0200001N9-00331-01111999999ADDGF102991999999999999999999MW1001
0050476710999991968082804004+35550+139783FM-15+0008RJTT V0203501N004610030019N0028001N1+02131+02021999999ADDGF108991999999999999999999MA1999999100681MW1801
0057854860999991968052415004-28567-070750FM-12+046999999V0209991C00001220001CN0200001N9+01781+00111101931ADDAY101999GF100991001001999999001001MD1710181+9999MW1021
0095471080999991968021817004+37567+126967FM-15+0087RKSL V0202901N005712200019N0096001N1-00591-01201102371ADDGA1029+007509059GF102991999999999999999999MA1999999102201EQDQ01+999990APOSLPQ02+000000PRSWM2
0097107630999991968080423004+49500+011083SY-SA+031899999V0209991C00001030001CN0030001N1+99999+99999999999ADDAY121021GA1029+009009059GA2089+030009049GA3089+030009049GF108991999999999999999999MW1101MW2451
0113107760999991968032218004+49017+012067FM-12+037699999V0202601N00721009001CN0500001N9+00781-00111100991ADDAA199000691AY181061GA1019+006009089GA2079+009009059GF107991071081008001999999KA1999M+01221MD1110191+9999MW1211
034099999925309196810311200E+58367-134583SAO  +0006JNU  V0201005N003150045749N012800599+00175+00175100815ADDAA101000595GA1999+003054134GA2999+004574064GD12024+9999999GD24084+9999999GD30994+9999999GD40994+9999999GF108085999999999999999999MA1999999100755MW1805EQDN01 02300JPWTH 1QNNE11 1 00203E11 1 00610E11 1 00099E11 1 00099G11 1 00015H11 1 13010H11 1 15015K11 1 00035L11 1 00800M11 1 29750N11 1 02300Q11 1 10081S11 1 00035V11 1 01010X11 1 10006
0073166610999991968092212004+39367+022950FM-12+000799999V0202101N00871220001CN0650001N9+02781+01721101361ADDAY151999GA1019+009009089GF101991011021012501001001MD1710111+9999MW1021
0057166270999991968081115004+40850+025383FM-12+000499999V0202401N00411220001CN0250001N9+02721+01891100861ADDAY101999GF101991011021012501001001MD1710061+9999MW1021
0025471065999991968042123004+37783+126850FM-15+0024RKSR V0209991C00001220001CN0112001N9+00801+00191999999ADDGA1069+060009029MW1001
007595936099999196811100500N-37270+150050AUST +0018     V0203605N004659999999N999999999+01615+01605999999ADDAY114999GA1025+007505065GA2015+999999035GF103995024055007505045999MW1035
0035744910147031968020720004+42200-072533SAO  +0075CEF  V0200101N004112200019N0240001N9+00131-00921999999ADDGF107991999999999999999999MW1001
005883981099999196807121500N-31350-054117BRAZ +0180SBBG V02001019003119999999N020000199+01671+00901102291ADDGF100991999999999999999999MA1102271100111MD1810061+9999
0048488910999991968021023004+11267+106317FM-15+001699999V0200201N001012200019N0112001N1+01961+01631999999ADDGF102991999999999999999999EQDQ01+000000PRSWM2
005499999913729196812050900E+38883-079850SAO  +0594EKN  V02099999999999999999N999999999-00175+99999999999ADDAA101000095MA1999999092995QNNM11 1 27460S11 1 00029
0057875480999991968112315004-34533-060933FM-12+008199999V0202701N00151220001CN0150001N9+03281+02221101031ADDAY121999GF104991001001999999001011MD1110071+9999MW1021
0057309650999991968030521004+50383+116517FM-12+068499999V0209991C00001220001CN0500001N9-02391-02501101891ADDAY101999GF100991001001999999001001MD1210121+9999MW1021
007494312099999196801030700N-20380+118620AUST +0011YPPD V0203385N005159999999N999999999+03185+02405999999ADDAY124999GA1015+018005085GF101995014025018005999999MA1999999100275MW1025
0195999999232931968013121005+37367-121917SAO  +0016SJC  V0201805N001550106749N032000599+01225+00225999999ADDGD13994+9999999GD20994+9999999GD30994+9999999GD40994+9999999EQDN01 00000JPWTH 1QNNE11 1 00499E11 1 00099E11 1 00099E11 1 00099G11 1 00035K11 1 00036L11 1 02000N11 1 00000S11 1 00054X11 1 18003
0057167460999991968121812004+35550+024117FM-12+015199999V0200901N00261036001CN0200001N9+01781+00891101951ADDAY101999GF106991011021008001091021MD1810151+9999MW1021
0057408540999991968102406004+29100+058400FM-12+106299999V0203001N00211220001CN0200001N9+02781+01001101401ADDAY101999GF100991001001999999001001MD1210101+9999MW1021
0269999999038551968061101005+30350-087317SAO  +0010NPA  V0202605N003150304849N011200599+02675+02445101265ADDGD12994+9999999GD23994+9999999GD33994+9999999GD40994+9999999GF106065999999999999999999MA1999999101155EQDN01 00000JPWTH 1QNNE11 1 00299E11 1 00499E11 1 00499E11 1 00099G11 1 00100K11 1 00076L11 1 00700M11 1 29870N11 1 00000Q11 1 10126S11 1 00080V11 1 00707X11 1 26006
0063483570999991968120818004+17367+104650FM-15+0176VTUP V0209991C00001220001CN0112001N1+02021+01801999999ADDGF100991999999999999999999MA1999999099051EQDQ01+000000PRSWM2
0269999999128501968111811005+24583-081683SAO  +0007NQX  V0201805N002152200059N016000599+02395+02285101465ADDGD10994+9999999GD20994+9999999GD30994+9999999GD40994+9999999GF100005999999999999999999MA1999999101395EQDN01 00000JPWTH 1QNNE11 1 00099E11 1 00099E11 1 00099E11 1 00099G11U1 99999K11 1 00073L11 1 01000M11 1 29940N11 1 00000Q11 1 10146S11 1 00075V11 1 00000X11 1 18004
0070166480999991968062418004+39633+022417FM-12+007299999V0200301N00511036001CN0100001N9+02221+01391100511ADDAY121999GF106991011091002501031001KA1999M+03001MD1410001+9999MW1021
0035725068999991968012110004+41650-070517SAO  +0043FMH  V0209991C000012200019N0144001N1-00151-00421999999ADDGF107991999999999999999999MW1001
005570326025503196809231900D+58683-156650SAO  +0017AKN  V0203301N001512200019N0500001N9+00101-00301101801ADDAA101000095GF102991999999999999999999MA1101691101551
0035723087937351968012816004+37133-076617SAO  +0004FAF  V0201701N003112200019N0112001N9+00801-00481999999ADDGF108991999999999999999999MW1001
0057264980999991968021903004+56267+034150FM-12+019699999V0200201N00211012301CN0040001N9-01221-01611100461ADDAY121999GF108991081051012501999999MD1710201+9999MW1101
0035724505039231968122516004+37617-097267SAO  +0418IAB  V0200901N004112200019N0240001N9-00041-00761999999ADDGF102991999999999999999999MW1001
038899999904725196804211200E+42217-075983SAO  +0485BGM  V0201305N004152200059N032000599+01005+00505101515ADDAA101000095GA1999+030484034GA2999+999999004GA3999+999999999GA4999+999999999GD12024+9999999GD23054+9999999GD30004+9999999GD40004+9999999GF106055999999999999999999MA1999999095635EQDN01 00000JPWTH 1QNNE11 1 00202E11 1 00406E11 1 00000E11 1 00000G11C1 99999H11 1 23100H11C1 32999H11 1 00999H11 1 00999K11 1 00041L11 1 02000M11 1 28240N11 1 00000Q11 1 10151S11 1 00050V11 1 00806X11 1 13008
0057357560999991968071421004+46783+064667FM-12+999999999V0209991C00001220001CN0500001N9+01501+01501100691ADDAY101999GF101991011051008001001001MD1010301+9999MW1021
017699999914842196805180300E+40667-089683SAO  +020499999V0201505N002152200059N024000599+01175+00175100985ADDAA101000095GF100005999999999999999999MA1999999098585EQDN01 00000JPWTH 1QNNG11U1 99999K11 1 00035L11 1 01500M11 1 29110N11 1 00000Q11 1 10098S11 1 00053V11 1 00000X11 1 15004
030799999914935196802190300E+40967-098317SAO  +056799999V0201805N006250304849N032000599-00115-00945101815ADDAA101000095GA1999+030484034GD14084+9999999GD20994+9999999GD30994+9999999GD40994+9999999GF108085999999999999999999MA1999999094955EQDN01 00000JPWTH 1QNNE11 1 00610E11 1 00099E11 1 00099E11 1 00099G11 1 00100H11 1 23100K11 1 00015L11 1 02000M11 1 28040N11 1 00000Q11 1 10181S11 1 00030V11 1 01010X11 1 18012
0056471060999991968021703004+37750+127050FM-15+0056RKSB V0209991C00001220001CN0080001N9+00411-00701999999ADDGA1019+010509089GA2049+060009029MA1999999101931MW1051
0281999999038551968081916005+30350-087317SAO  +0010NPA  V0202305N007250045749N009600599+02725+02395101975ADDGD13994+9999999GD23994+9999999GD30994+9999999GD40994+9999999GF107075999999999999999999MA1999999101865MW1055MW2955EQDN01 01081JPWTH 1QNNE11 1 00499E11 1 00499E11 1 00099E11 1 00099G11 1 00015K11 1 00075L11 1 00600M11 1 30080N11 1 01081Q11 1 10197S11 1 00081V11 1 00909X11 1 23014
0035722270138641968012411004+33917-084517SAO  +0329MGE  V0203101N007210018019N0112001N9+00131+00081999999ADDGF108991999999999999999999MW1611
0057218240999991968051015004+71583+128917FM-12+000899999V0203201N01081007801CN0040001N9-01111-01221100311ADDAY131999GF108991081051008001999999MD1210151+9999MW1381
0035701730999991968052711004+66000-153700SAO  +0375PAIM V0209991C000012200019N0240001N9+00191+00081999999ADDGF102991999999999999999999MW1001
0095265090999991968100100004+55700+021650FM-12+001099999V0201601N00721003001CN0100001N9+00781+00721101491ADDAA106004091AA299001091AY181999GA1089+003009079GF108991081091004501999999MD1710201+9999MW1021
0057229120999991968080603004+60983+032950FM-12+001199999V0203401N00511220001CN0350001N9+00721+00501101351ADDAY111999GF102991001001999999001021MD1510001+9999MW1021
0064489100999991968012302004+10250+105950FM-15+0005VVVL V0200901N005112200019N0112001N1+02571+02021999999ADDGA1069+090009009GF107991999999999999999999EQDQ01+000000PRSWM2
0057243290999991968081818004+66250+114283FM-12+023599999V0209991C00001220001CN0500001N9+00001+00001102291ADDAY101999GF100991001001999999001001MD1110101+9999MW1021
0035722436129061968062716004+29617-095167SAO  +0012EFD  V0200901N004112200019N0320001N9+02631+01741999999ADDGF102991999999999999999999MW1001
0232722269038501968052523003+31267-085717SAO  +0091OZR  V0200605N001550365849N0192005N9+02285+01945999999ADDGD13994+9999999GD24994+9999999GD30994+9999999GD40994+9999999GF108995999999999999999999EQDN01 00000JPWTH 1QNNE11 1 00499E11 1 00699E11 1 00099E11 1 00099G11 1 00120K11 1 00067L11 1 01200N11 1 00000S11 1 00073V11 1 01099X11 1 06003
0079489100999991968120212004+10250+105950FM-15+0005VVVL V0201101N002612200019N0112001N1+02681+02301999999ADDGA1069+090009029GF107991999999999999999999MA1999999101021EQDQ01+000000PRSWM2
0096488671999991968080705004+13967+108667FM-15+0420VVAK V0202401N007710075019N0096001N1+02851+02241999999ADDGA1029+003909059GA2059+007509089GA3079+075009029GF107991999999999999999999EQDQ01+000000PRSWM2
0383700860274011968071500003+70133-143633SAO  +0015BTI  V0200805N007752200059N0800005N1+00565+00285100615ADDGA1999+018294084GA2029+045724034GA3049+220009024GA4999+999999999GD12004+9999999GD23024+9999999GD30044+9999999GD40004+9999999GF106065999999999999999999MA1999999100445MW1001EQDN01 00000JPWTH 1QNNE11 1 00200E11 1 00403E11 1 00005E11 1 00000G11C1 99999H11 1 11060H11 1 23150H11C1 37999H11 1 00999K11 1 00037L11 1 05000M11 1 29660N11 1 00000Q11 1 10061S11 1 00042V11 1 00807X11 1 08015
007494403099999196807200700N-28800+114700AUST +0034YPGN V0201135N005759999999N999999999+01945+00405999999ADDAY124999GA1005+999999999GF100995004999999999999999MA1999999101645MW1025
038899999923066196808231200E+39117-108533SAO  +1476GJT  V0200605N003152200059N032000599+00675+00395102095ADDAA101000095GA1999+999999064GA2999+999999999GA3999+999999999GA4999+999999999GD10004+9999999GD20004+9999999GD30004+9999999GD40004+9999999GF100005999999999999999999MA1999999085815EQDN01 00000JPWTH 1QNNE11 1 00000E11 1 00000E11 1 00000E11 1 00000G11U1 99999H11 1 15999H11 1 00999H11 1 00999H11 1 00999K11 1 00039L11 1 02000M11 1 25340N11 1 00000Q11 1 10209S11 1 00044V11 1 00000X11 1 06006
0073170960999991968050215004+39917+041267FM-12+189399999V0203401N00151036001CN0250001N9+01391+00781999999ADDAY161999GA1069+027009049GF106991041051012501021001MD1110011+9999MW1021
0269999999937201968081305005+38333-075517SAO  +0021SBY  V02099959000052200059N024000599+01565+01335101915ADDGD10994+9999999GD20994+9999999GD30994+9999999GD40994+9999999GF100005999999999999999999MA1999999101695EQDN01 00000JPWTH 1QNNE11 1 00099E11 1 00099E11 1 00099E11 1 00099G11U1 99999K11 1 00056L11 1 01500M11 1 30030N11 1 00000Q11 1 10191S11 1 00060V11 1 00000X11 1 00000
0081263480999991968061918004+57133+026733FM-12+012899999V0201801N00411220001CN0500001N9+02391+01611101231ADDAA199000091AY111999GF105991001001999999001011KA1999M+02891MD1710051+9999MW1021
0318999999138551968040601005+35383-086233SAO  +032999999V0203605N002659999999N999999999+00505+00005999999ADDGA1999+999999024GA2999+999999024GA3999+999999024GA4999+999999024GD14074+9999999GD24074+9999999GD34074+9999999GD44074+9999999GF107075999999999999999999EQDN01 99990FPRES 5QNNE11 1 00609E11 1 00609E11 1 00609E11 1 00609H11 1 37999H11 1 37999H11 1 37999H11 1 37999K11 1 00032M11 5 99990S11 1 00041V11 1 00909X11 1 36005
0057100040999991968120906004+54267+007200FM-12+000399999V0201201N012919999999N0200001N9+00281-00111101591ADDAY121999GF106991999999999999999999MD1710111+9999MW1031
0238725895942361968120808003+42150-121733SAO  +1245LMT  V0201405N002650091449N0240005N9+00335-00175101405ADDGD13994+9999999GD24994+9999999GD30994+9999999GD40994+9999999GF108991999999999999999999MW1001EQDN01 00000JPWTH 1QNNE11 1 00499E11 1 00699E11 1 00099E11 1 00099G11 1 00030K11 1 00029L11 1 01500N11 1 00000Q11 1 10140S11 1 00038X11 1 14005
0095228450999991968122300004+61500+038933FM-12+012199999V0201801N01181003001CN0080001N9-00501-00611102321ADDAA106008091AA299002091AY171999GA1089+003009099GF108991081091004501999999MD1310041+9999MW1711
0058803420999991968082712004+01450-077233FM-12+180699999V0209991C00001004501CN0100001N9+01501+01391999999ADDAY141999GF108991081051004501999999MA1999999081931MW1111
038899999924144196803130300E+46600-112000SAO  +1167HLN  V0201805N007752200059N024000599+01175-00615100675ADDAA101000095GA1999+036584034GA2999+999999024GA3999+999999999GA4999+999999999GD12034+9999999GD24054+9999999GD30004+9999999GD40004+9999999GF108075999999999999999999MA1999999087135EQDN01 00000JPWTH 1QNNE11 1 00204E11 1 00606E11 1 00000E11 1 00000G11C1 99999H11 1 23120H11C1 37999H11 1 00999H11 1 00999K11 1 00021L11 1 01500M11 1 25730N11 1 00000Q11 1 10067S11 1 00053V11 1 01009X11 1 18015
0079488925999991968060821004+11000+106700FM-15+0033VVPI V0201701N000512200019N0096001N1+02741+02461999999ADDGA1049+105009029GF102991999999999999999999MA1999999100141EQDQ01+000000PRSWM2
0057265850999991968030609004+55850+032950FM-12+021499999V0201401N00721024001CN0160001N9-00501-00781101011ADDAY121999GF108991081001999999021999MD1710081+9999MW1021
0066471200999991968081607004+37250+127000FM-15+0024RKSW V0202701N00261006001CN0099991N9+02681+02301999999ADDGA1019+003009079GA2059+006009059GA3089+012009059MA1999999099701
0108871550999991968051400004-27433-059033FM-12+005299999V0202001N00981003001CN0020001N9+01891+01891101301ADDAY121999GA1999+000909049GA2079+003009049GF108991999091000751021999MD1310451+9999MW1971EQDQ01+000082SCOTLC
006083840099999196811121600N-25517-049167BRAZ +0908SBCT V02004019999999999999N020000199+02051+01201101491ADDGA1061+004501061GF106991999999999999999999MA1101951091451
007683612099999196806061100N-20467-054667BRAZ +0567SBCG V02010019999999999999N020000199+01781+01601101641ADDGA1021+027001031GA2031+060001211GF104991999999999999999999MA1101901095241
024999999914822196809031500E+42417-083017SAO  +0189DET  V0201605N002150182949N003200599+02065+01175999999ADDAA101000095GD13994+9999999GD23994+9999999GD30994+9999999GD40994+9999999GF107075999999999999999999MW1045EQDN01 08200JPWTH 1QNNE11 1 00499E11 1 00499E11 1 00099E11 1 00099G11 1 00060K11 1 00053L11 1 00200N11 1 08200S11 1 00069V11 1 00909X11 1 16004
0269999999225191968073104005+21450-157783SAO  +0003HNG  V0200305N005250061049N024000599+02675+02285101555ADDGD13994+9999999GD23994+9999999GD33994+9999999GD40994+9999999GF107075999999999999999999MA1999999101525EQDN01 00000JPWTH 1QNNE11 1 00499E11 1 00499E11 1 00499E11 1 00099G11 1 00020K11 1 00073L11 1 01500M11 1 29980N11 1 00000Q11 1 10155S11 1 00080V11 1 00909X11 1 03010
0058802030999991968011112004+04100-076200FM-12+096399999V0209991C000019999999N0400001N9+01891+01721999999ADDAY121999GF105991011051008001031011MA1999999090631MW1011
0035724088137071968100613004+39133-075467SAO  +0009KDOV V0209991C000012200019N0112001N9+00941+00391999999ADDGF102991999999999999999999MW1001
031999999913889196802010900E+30417-081650SAO  +001299999V0200305N005250009149N001300599+01395+01335102445ADDAA101000095GA1999+000914074GD14084+9999999GD20994+9999999GD30994+9999999GD40994+9999999GF108085999999999999999999MA1999999102345MW1045MW2455EQDN01 07080JPWTH 1QNNE11 1 00610E11 1 00099E11 1 00099E11 1 00099G11 1 00003H11 1 16003K11 1 00056L11 1 00081M11 1 30220N11 1 07080Q11 1 10244S11 1 00057V11 1 01010X11 1 03010
0089164530999991968031912004+37083-014217FM-12+0033LICL V0202401N00721220001CN0150001N9+01501+01221102091ADDAY111999GA1019+009009089GA2039+027009039GF105991011021008001031011MD1810121+9999MW1011
038899999912842196810280900E+27967-082533SAO  +001099999V0200305N003652200059N016000599+01395+01065101535ADDAA101000095GA1999+010674064GA2999+999999004GA3999+999999999GA4999+999999999GD12024+9999999GD23024+9999999GD30004+9999999GD40004+9999999GF105045999999999999999999MA1999999101495EQDN01 00000JPWTH 1QNNE11 1 00203E11 1 00403E11 1 00000E11 1 00000G11C1 99999H11 1 15035H11C1 32999H11 1 00999H11 1 00999K11 1 00051L11 1 01000M11 1 29970N11 1 00000Q11 1 10153S11 1 00057V11 1 00605X11 1 03007
0057363580999991968040709004+49183+077417FM-12+999999999V0200501N00411002401CN0200001N9-00221-01281103781ADDAY111999GF105991051061002501001001MD1410001+9999MW1021
028672253012921196812110400C+29533-098467SAO  +0240SAT  V0201205N004150021349N0128005N1+01395+01225102665ADDAA101000095GD14994+9999999GD20994+9999999GD30994+9999999GD40994+9999999GF108085999999999999999999MA1999999099805MW1001EQDN01 00000JPWTH 1QNNE11 1 00699E11 1 00099E11 1 00099E11 1 00099G11 1 00007K11 1 00054L11 1 00800M11 1 29470N11 1 00000Q11 1 10266S11 1 00057V11 1 01010X11 1 12008
038899999914895196808311800E+40917-081433SAO  +0368CAK  V0201905N004152200059N011200599+02565+01225101925ADDAA101000095GA1999+013724084GA2999+999999999GA3999+999999999GA4999+999999999GD12024+9999999GD20004+9999999GD30004+9999999GD40004+9999999GF102025999999999999999999MA1999999097495EQDN01 00000JPWTH 1QNNE11 1 00203E11 1 00000E11 1 00000E11 1 00000G11U1 99999H11 1 11045H11 1 00999H11 1 00999H11 1 00999K11 1 00054L11 1 00700M11 1 28790N11 1 00000Q11 1 10192S11 1 00078V11 1 00303X11 1 19008
0050912180999991968102006004+13583+144917SAO  +0193PGUA V0200201N003112200019N0112001N9+02891+02391100761ADDGF102991999999999999999999MA1999999098611MW1001
0035702720999991968071910004+61250-149800SAO  +0065PAED V0209991C000010180019N0160001N9+01391+01111999999ADDGF107991999999999999999999MW1001
0050489300999991968020105004+19883+102133SAO  +0305VLLB V0209991C000012200019N0112001N1+02521+01631101121ADDGF102991999999999999999999MA1999999097631MW1001
0056106320999991968081806004+49967+008150FM-15+0234EDOT V0202301N00511220001CN0112001N9+01021+00911999999ADDGA1039+010509059GA2029+060009009MA1999999098411MW1001
0009724467139301968011405004+38733-093567SAO  +0265SZL  V0203101N006210114019N0160001N9-00671-01001999999ADDMW1711
0057345790999991968091621004+48217+046733FM-12+003599999V0202001N00411090001CN0200001N9+01781+00781101611ADDAY121999GF107991021001999999031021MD1810061+9999MW1021
0057279470999991968013021004+52733+041467FM-12+013999999V0202001N00311001501CN0020001N9-01391-01611102151ADDAY141999GF108991081061001501999999MD1210121+9999MW1101
006172365023050196808191400D+35050-106617SAO  +1631ABQ  V0201601N002112200019N0960001N9+01611+00281101241ADDAA101000095GF100991999999999999999999MA1102001083911MW1001
