0057244770999991969072221004+65250+135600FM-12+999999999V0203401N00101007801CN0500001N9+00721+00611103611ADDAY121999GF108991081051008001999999MD1210061+9999MW1021
0035727755241121969081402004+47517-111183SAO  +1075GFA  V0202201N001512200019N0720001N9+02551+00391999999ADDGF100991999999999999999999MW1001
031399999914826196911100300E+42967-083750SAO  +0235FNT  V02099959000050012249N006400599+00785+00725101675ADDAA101000095GA1999+001224074GD14084+9999999GD20994+9999999GD30994+9999999GD40994+9999999GF108085999999999999999999MA1999999098855MW1455EQDN01 07000JPWTH 1QNNE11 1 00610E11 1 00099E11 1 00099E11 1 00099G11 1 00004H11 1 16004K11 1 00045L11 1 00400M11 1 29190N11 1 07000Q11 1 10167S11 1 00046V11 1 01010X11 1 00000
0111238380999991969101418004+61050+068633FM-12+999999999V0200501N00981002401CN0010001N9+00001+00001098471ADDAA106024091AA299006091AY171999GF108991999071002501021999KA1999M+00221MD1710021+9999MW1731EQDQ01+000082SCOTLC
031372520094823196912100900C+40500-080217SAO  +0347PIT  V0200805N003650518249N0128005N1+00115-00395101775ADDAA101000095GA1089+051824044GD14084+9999999GD20994+9999999GD30994+9999999GD40994+9999999GF108085999999999999999999MA1999999097295MW1001EQDN01 00000JPWTH 1QNNE11 1 00610E11 1 00099E11 1 00099E11 1 00099G11 1 00170H11 1 21170K11 1 00025L11 1 00800M11 1 28730N11 1 00000Q11 1 10177S11 1 00034V11 1 01010X11 1 08007
0165999999130171969082618005+34300-006600SAO  +0012GMMP V0203305N005252200059N011200599+02615+01895101185ADDGF100005999999999999999999MA1999999101055EQDN01 00000JPWTH 1QNNG11U1 99999K11 1 00066L11 1 00700M11 1 29840N11 1 00000Q11 1 10118S11 1 00079V11 1 00000X11 1 33010
0081352860999991969122015004+50617+072433FM-12+043799999V0201101N00821024001CN0200001N9-01221-01501102691ADDAA199000091AY121999GF108991081001999999011999KA1999M-01221MD1710071+9999MW1021
0009749475999991969042110004+32883-106350SAO  +120699999V0209991C000019999999N0000001N1+99999+99999999999ADDMW1001
0080488910999991969052623004+11267+106317FM-15+001699999V0209991C000010900019N0112001N1+02741+02461999999ADDGA1029+027009039GA2079+090009029GF108991999999999999999999EQDQ01+000000PRSWM2
038899999912884196906171200E+29333-089400SAO  +0004BVE  V0200105N003152200059N011200599+02445+02005101315ADDAA101000095GA1999+999999134GA2999+999999999GA3999+999999999GA4999+999999999GD10004+9999999GD20004+9999999GD30004+9999999GD40004+9999999GF100005999999999999999999MA1999999101325EQDN01 00000JPWTH 1QNNE11 1 00000E11 1 00000E11 1 00000E11 1 00000G11U1 99999H11 1 13999H11 1 00999H11 1 00999H11 1 00999K11 1 00068L11 1 00700M11 1 29920N11 1 00000Q11 1 10131S11 1 00076V11 1 00000X11 1 01006
0050724457039381969100418004+37733-092150SAO  +0356TBN  V0201801N004112200019N0112001N9+03001+01281101531ADDGF102991999999999999999999MA1999999097431MW1001
005194297999999196903232300N-19180+147020AUST +0058     V0201355N008259999999N999999999+02565+02205999999ADDGA1085+003005085GF108995084085003005999999MW1155
0383910660227011969111106003+28200-177383SAO  +0007PMDY V0200305N004150213449N0160005N1+01945+01335101545ADDGA1999+006104064GA2999+021344034GA3999+999999999GA4999+999999999GD12034+9999999GD23024+9999999GD30004+9999999GD40004+9999999GF106065999999999999999999MA1999999101425MW1001EQDN01 00000JPWTH 1QNNE11 1 00204E11 1 00403E11 1 00000E11 1 00000G11 1 00070H11 1 15020H11 1 23070H11 1 00999H11 1 00999K11 1 00056L11 1 01000M11 1 29950N11 1 00000Q11 1 10154S11 1 00067V11 1 00707X11 1 03008
0057255610999991969081318004+64767+176267FM-12+999999999V0209991C00001220001CN0500001N9+01501+01001101001ADDAY121999GF107991001001999999001011MD1710171+9999MW1021
0057350370999991969120818004+51867+058183FM-12+031599999V0203601N00621220001CN0100001N9-01391-01721103451ADDAY101999GF100991001001999999001001MD1210041+9999MW1021
0269999999129261969062607005+27683-097283SAO  +0006NGP  V0201505N007752200059N016000599+02835+02615100795ADDGD12994+9999999GD23994+9999993GD30994+9999999GD40994+9999999GF106035999999999999999999MA1999999100755EQDN01 00000JPWTH 1QNNE11 1 00299E11 1 00399E11 1 00099E11 1 00099G11U1 99999K11 1 00079L11 1 01000M11 1 29750N11 1 00000Q11 1 10079S11 1 00083V11 1 00804X11 1 15015
0269999999149401969050800005+43150-093333SAO  +0367MCW  V0202205N002150213449N024000599+01835+00945101335ADDGD13994+9999999GD24994+9999999GD30994+9999999GD40994+9999999GF108085999999999999999999MA1999999096925EQDN01 00000JPWTH 1QNNE11 1 00499E11 1 00699E11 1 00099E11 1 00099G11 1 00070K11 1 00049L11 1 01500M11 1 28620N11 1 00000Q11 1 10133S11 1 00065V11 1 01010X11 1 22004
0093107750999991969060112004+49217+011833FM-15+0445EDIH V0209991V00261220001CN0112001N9+01521+00801999999ADDAA124999999GA1019+007509089GA2029+010509089GA3019+018009059GA4059+075009009MA1999999096681
0079254930999991969020400004+65783+169083FM-12+003999999V0203201N00511021001CN0020001N9-02221-02721101671ADDAA199000091AY121999GF107991071001022501031011HL10009IA1209IA2999-02399MW1101
0043800620999991969052315004+08117-076700FM-12+000599999V0209991C000019999999N0250001N9+02721+02501999999ADDAY121999GF108991041051004501071999MW1021
0057375490999991969121712004+41683+044950FM-12+049099999V0200201N00101024001CN0040001N9+00721+00111101541ADDAY111061GF107991071001999999071001MD1710121+9999MW1101
0057325480999991969021406004+53167+158400FM-12+999999999V0202701N00821002401CN0002001N9-01391-01501098981ADDAY171999GF108991081001002501021999MD1710081+9999MW1731
0014471065999991969092212004+37783+126850FM-15+0024RKSR V02099999999999999999N9999999N9+99999+99999999999ADDAA124000091
0025107280999991969072814004+49567-008467FM-15+0102EDOR V0209991V00101002401CN0028001N9+03071+02071999999ADDGA1099+999999999MW1041
028699999924137196912311800E+48600-112367SAO  +1174CTB  V0203205N010350039649N011200599-00335-00725102595ADDAA101000095GD14994+9999999GD20994+9999999GD30994+9999999GD40994+9999999GF108085999999999999999999MA1999999088825MW1715EQDN01 04000JPWTH 1QNNE11 1 00699E11 1 00099E11 1 00099E11 1 00099G11 1 00013K11 1 00019L11 1 00700M11 1 26230N11 1 04000Q11 1 10259S11 1 00026V11 1 01010X11 1 32020
004674754013934196906302300D+31317-092550SAO  +0027KAEX V0201301N002612200019N0112001N9+03521+02351999999ADDAA101000095GF102991999999999999999999MW1001
0081239390999991969030215004+60217+069767FM-12+999999999V0202701N00101220001CN0200001N9-01281-01611102751ADDAA199000091AY101999GF100991001001999999001001KA1999M-00721MD1410001+9999MW1021
0269999999242841969022615005+43417-124250SAO  +0005OTH  V0201505N003150085349N024000599+00395+00285101025ADDGD13994+9999999GD20994+9999999GD30994+9999999GD40994+9999999GF106065999999999999999999MA1999999100955EQDN01 00000JPWTH 1QNNE11 1 00499E11 1 00099E11 1 00099E11 1 00099G11 1 00028K11 1 00037L11 1 01500M11 1 29810N11 1 00000Q11 1 10102S11 1 00039V11 1 00807X11 1 15006
0080489100999991969122022004+10250+105950FM-15+0005VVVL V0203601N003110900019N0112001N1+02181+02071999999ADDGA1029+003009079GA2089+090009029GF108991999999999999999999EQDQ01+000000PRSWM2
0269999999414061969032522005+13483+144800SAO  +0076PGUM V0200505N003150036649N024000599+02725+02395101295ADDGD13994+9999999GD23994+9999999GD33994+9999999GD40994+9999999GF107065999999999999999999MA1999999100245EQDN01 00000JPWTH 1QNNE11 1 00499E11 1 00499E11 1 00499E11 1 00099G11 1 00012K11 1 00075L11 1 01500M11 1 29600N11 1 00000Q11 1 10129S11 1 00081V11 1 00908X11 1 05006
0377999999129261969062718005+27683-097283SAO  +0006NGP  V0201105N005752200059N019200599+03285+02285101415ADDGA1999+004574084GA2999+999999999GA3999+999999999GA4999+999999999GD12044+9999999GD20004+9999999GD30004+9999999GD40004+9999999GF104045999999999999999999MA1999999101355EQDN01 00000JPWTH 1QNNE11 1 00205E11 1 00000E11 1 00000E11 1 00000G11U1 99999H11 1 11015H11 1 00999H11 1 00999H11 1 00999K11 1 00073L11 1 01200M11 1 29930N11 1 00000Q11 1 10141S11 1 00091V11 1 00505X11 1 11011
0292780160136011969031917003+32367-064683SAO  +0006TXKF V0202005N013450030549N0028005N9+01675+01565999999ADDGA1039+002444074GA2089+003054074GD14034+9999999GD24084+9999999GD30994+9999999GD40994+9999999GF108995999999999999999999MW1635EQDN01 02100JPWTH 1QNNE11 1 00604E11 1 00610E11 1 00099E11 1 00099G11 1 00010H11 1 16008H11 1 16010K11 1 00060L11 1 00175N11 1 02100S11 1 00062V11 1 01099X11 1 20026
0057273690999991969022715004+57100+045183FM-12+012999999V0200501N00101220001CN0200001N9-00781-01501104371ADDAY101999GF100991001001999999001001MD1310021+9999MW1021
028099999914819196901102000E+41783-087750SAO  +0187MDW  V0202705N006752200059N024000599-00895-01895102345ADDAA101000095GD10994+9999999GD20994+9999999GD30994+9999999GD40994+9999999GF100005999999999999999999MA1999999099935EQDN01 00000JPWTH 1QNNE11 1 00099E11 1 00099E11 1 00099E11 1 00099G11U1 99999K11 1-00002L11 1 01500M11 1 29510N11 1 00000Q11 1 10234S11 1 00016V11 1 00000X11 1 27013
0111306860999991969090300004+53467+122400FM-12+999999999V0202701N00311007801CN0400001N9+01221+01111100121ADDAA106004091AA299001091AY181999GF108991999091008001011011KA1999N+01221MD1210101+9999MW1251EQDQ01+000082SCOTLC
0286723810231141969022512003+34917-117900SAO  +0706EDW  V0202405N009350121949N0096005N9+00945+00945100485ADDAA124999999GD12994+9999999GD24994+9999999GD30994+9999999GD40994+9999999GF108995999999999999999999MA1999999092485MW1635EQDN01 02100JPWTH 1QNNE11 1 00299E11 1 00699E11 1 00099E11 1 00099G11 1 00040K11 1 00049L11 1 00600M11 1 27310N11 1 02100Q11 1 10048S11 1 00049V11 1 01099X11 1 24018
0057232050999991969031121004+67650+053017FM-12+000799999V0202701N00411024001CN0180001N9-02221-02391099601ADDAY171999GF107991071001999999011001MD1210081+9999MW1711
0165999999038401969011012005+30533-087200SAO  +0040NDP  V0203605N005252200059N016000599+00285-00725101925ADDGF100005999999999999999999MA1999999101465EQDN01 00000JPWTH 1QNNG11U1 99999K11 1 00019L11 1 01000M11 1 29960N11 1 00000Q11 1 10192S11 1 00037V11 1 00000X11 1 36010
0069489300999991969112222004+19883+102133SAO  +0305VLLB V0209991C000010060019N0064001N1+01911+01801101601ADDGF108991999999999999999999MA1999999098101MW1451EQDQ01+999990APOSLP
0035912180999991969031110004+13583+144917SAO  +0193PGUA V0200701N008212200019N0112001N9+02501+02221999999ADDGF102991999999999999999999MW1001
0057250620999991969073006004+69883+176050FM-12+999999999V0202901N00511000151CN0005001N9+00281+00281100671ADDAY141999GF109991091999000251999999MD1210281+9999MW1451
0057306750999991969041815004+53533+118717FM-12+060399999V0202001N00211024001CN0500001N9+00111-00721100821ADDAY121999GF108991081001999999011999MD1810051+9999MW1021
0067259560999991969040400004+60450-169583FM-12+0008APUK V0200501N01591030001CN0005001N9-01501-01721100241ADDAA199000091AY131999GF108991081001999999071999KA1999N-01891MW1391
0041475800999991969042502004+40683+141367FM-15+0037RJSM V0200501N00261001501CN0064001N9+00581+00411999999ADDGA1039+000909079GA2089+001509079MW1511
0073104380999991969013103004+51317+009483FM-12+015899999V0202101N00311008101CN0180001N9+00611+00281101101ADDAY161031GA1079+008109059GF107991071051008001999999MD1810161+9999MW1211
0081361030999991969121512004+52233+096417FM-12+999999999V0209991C00001220001CN0200001N9-03722-04001999999ADDAA199000091AY101999GF100991001001999999001001KA1999M-02391MD1310021+9999MW1021
0057311580999991969090718004+56600+136333FM-12+999999999V0203201N00311007801CN0080001N9-00111-00281101161ADDAY171999GF108991081051008001999999MD1810071+9999MW1711
0064488925999991969042720004+11000+106700FM-15+0033VVPI V0201601N002610240019N0112001N1+02801+02411999999ADDGA1069+024009039GF107991999999999999999999EQDQ01+000000PRSWM2
0232999999038581969101105005+33917-080800SAO  +0090MMT  V02099959000052200059N019200599+01565+01115999999ADDGD10994+9999999GD20994+9999999GD30994+9999999GD40994+9999999GF100995999999999999999999EQDN01 00000JPWTH 1QNNE11 1 00099E11 1 00099E11 1 00099E11 1 00099G11U1 99999K11 1 00052L11 1 01200N11 1 00000S11 1 00060V11 1 00099X11 1 00000
0044744900147021969090918004+42467-071283SAO  +0045BED  V0200201N006210015019N0080001N9+01521+01461100081ADDGF108991999999999999999999MA1999999099591
028672793024233196910281000C+47450-122300SAO  +0122SEA  V0200605N002650131149N0240005N1+01005+00565101545ADDAA101000095GD12994+9999999GD24994+9999999GD30994+9999999GD40994+9999999GF108085999999999999999999MA1999999099905MW1001EQDN01 00000JPWTH 1QNNE11 1 00299E11 1 00699E11 1 00099E11 1 00099G11 1 00043K11 1 00042L11 1 01500M11 1 29500N11 1 00000Q11 1 10154S11 1 00050V11 1 01010X11 1 06005
0057361520999991969011818004+50867+078350FM-12+014899999V0200501N00101220001CN0040001N9-03891-04001104271ADDAY101999GF100991001001999999001001MD1810061+9999MW1021
0057351080999991969030609004+51250+051400FM-12+003699999V0201801N00511220001CN0040001N9-01001-01391101421ADDAY101999GF100991001001999999001001MD1810031+9999MW1101
005995989099999196901090500N-41880+148300AUST +0020     V0201355N003159999999N999999999+01565+00705999999ADDAY124999GA1025+013505085GF102995024025013505999999MW1025
0064471100999991969070123004+37550+126800FM-15+0020RKSS V0202201N002612200019N0080001N1+01911+01691999999ADDGA1019+003909059GF102991999999999999999999EQDQ01+000000PRSWM2
0079749388999991969031003004+36083+129567FM-15+002199999V0200401N005110120019N0112001N1+00851-00041999999ADDGA1059+012009059GF107991999999999999999999MA1999999102441EQDQ01+000000PRSWM2
0275725755241011969020200003+41117-111967SAO  +1459HIF  V0202005N005250274349N0800005N9-00615-01065101455ADDGD12994+9999999GD23994+9999999GD30994+9999999GD40994+9999999GF107995999999999999999999MA1999999084835MW1001EQDN01 00000JPWTH 1QNNE11 1 00299E11 1 00499E11 1 00099E11 1 00099G11 1 00090K11 1 00013L11 1 05000M11 1 25050N11 1 00000Q11 1 10145S11 1 00021V11 1 00999X11 1 20010
0035740030999991969020220004+40200-112933SAO  +1326DPG  V0201901N004110270019N0960001N9-00091-00651999999ADDGF107991999999999999999999MW1001
031372356013968196901201200C+36200-095900SAO  +0207TUL  V0201605N006250021349N0112005N1+00785+00725101165ADDAA101000095GA1089+002134074GD14084+9999999GD20994+9999999GD30994+9999999GD40994+9999999GF108085999999999999999999MA1999999098715MW1001EQDN01 00000JPWTH 1QNNE11 1 00610E11 1 00099E11 1 00099E11 1 00099G11 1 00007H11 1 16007K11 1 00045L11 1 00700M11 1 29150N11 1 00000Q11 1 10116S11 1 00046V11 1 01010X11 1 16012
0096488700999991969092510004+13767+109217FM-15+0006VVQN V0200401N001512200019N0112001N1+02911+02301999999ADDGA1029+007509089GA2019+009009099GA3059+090009009GF107991999999999999999999EQDQ01+000000PRSWM2
0081317020999991969120512004+49000+131083FM-12+025799999V0203601N00101220001CN0500001N9-01721-02001102341ADDAA199000091AY121999GF108991001001999999001071KA1999M-01001MD1610051+9999MW1021
0057322930999991969021003004+57783+158700FM-12+999999999V0209991C00001004501CN0020001N9-01111-01221100291ADDAY181999GF108991081091004501999999MD1810011+9999MW1861
0377999999232371969041300005+37900-121250SAO  +0007SCK  V0203105N005252200059N048000599+01725+00945102245ADDGA1999+009144084GA2999+016764064GA3999+999999004GA4999+999999999GD12014+9999999GD22024+9999999GD32014+9999999GD40004+9999999GF104035999999999999999999MA1999999102135EQDN01 00000JPWTH 1QNNE11 1 00201E11 1 00203E11 1 00201E11 1 00000G11U1 99999H11 1 11030H11 1 15055H11C1 32999H11 1 00999K11 1 00049L11 1 03000M11 1 30160N11 1 00000Q11 1 10224S11 1 00063V11 1 00504X11 1 31010
005591182022521196912190100D+21333-157917SAO  +0003PHNL V0202401N006712200019N0240001N9+02671+01891101261ADDAA101000095GF102991999999999999999999MA1101221101221
0099222820999991969100106004+67800+046667FM-12+999999999V0201401N00821000151CN0300001N9+99999+99999100771ADDAJ100009199999999AY111999GF107991071051000251999999HL10009IA1089IA2999+00009MD1710061+9999MW1021
0070488490999991969031923004+16817+107100FM-15+002599999V0209991V001512200019N0048001N1+01851+01741999999ADDGA1029+075009009GF102991999999999999999999MW1441EQDQ01+000452PRSWM2
038899999912844196908170300E+26683-080100SAO  +000999999V0201405N002152200059N019200599+02565+02285101425ADDAA101000095GA1999+999999004GA2999+999999999GA3999+999999999GA4999+999999999GD11044+9999993GD20004+9999999GD30004+9999999GD40004+9999999GF104025999999999999999999MA1999999101355EQDN01 00000JPWTH 1QNNE11 1 00105E11 1 00000E11 1 00000E11 1 00000G11U1 99999H11C1 32999H11 1 00999H11 1 00999H11 1 00999K11 1 00073L11 1 01200M11 1 29930N11 1 00000Q11 1 10142S11 1 00078V11 1 00502X11 1 14004
0041702650999991969111710004+64683-147083SAO  +0167PAEI V0209991C000012200019N0012071N9-03771+99999999999ADDGF102991999999999999999999MW1451MW2761
0073103130999991969030100004+51967+007600FM-12+006499999V0201001N00361004201CN0050001N9+00111-00221102421ADDAY111999GA1079+004209079GF107991071061004501999999MD1710041+9999MW1101
005195930099999196909282000N-36920+149900AUST +0002     V0209999C000059999999N999999999+01035+01005999999ADDGA1085+006005085GF108995084085006005999999MW1615
0057337110999991969111215004+48483+032250FM-12+014899999V0201701N00511220001CN0020001N9+01221+00781101481ADDAY111999GF103991001001999999001011MD1710071+9999MW1051
0377999999947021969051815005+41167-073133SAO  +0002BDR  V0202105N005752200059N012800599+02065+01445102345ADDGA1999+012194064GA2999+030484034GA3999+999999004GA4999+999999999GD12024+9999999GD22024+9999999GD33074+9999999GD40004+9999999GF107055999999999999999999MA1999999102275EQDN01 00000JPWTH 1QNNE11 1 00202E11 1 00203E11 1 00409E11 1 00000G11C1 99999H11 1 15040H11 1 23100H11C1 32999H11 1 00999K11 1 00058L11 1 00800M11 1 30200N11 1 00000Q11 1 10234S11 1 00069V11 1 00906X11 1 21011
0269722269038501969052021003+31267-085717SAO  +0091OZR  V0201005N001050121949N0240005N9+03065+02065101355ADDGD13994+9999999GD23994+9999999GD30994+9999999GD40994+9999999GF105995999999999999999999MA1999999100245EQDN01 00000JPWTH 1QNNE11 1 00499E11 1 00499E11 1 00099E11 1 00099G11 1 00040K11 1 00069L11 1 01500M11 1 29600N11 1 00000Q11 1 10135S11 1 00087V11 1 00699X11 1 10002
0238999999146011969062319005+44800-068817SAO  +0052BGR  V0202005N002650304849N032000599+01835+01065999999ADDGD12994+9999999GD24994+9999999GD30994+9999999GD40994+9999999GF108995999999999999999999MW1805EQDN01 02300JPWTH 1QNNE11 1 00299E11 1 00699E11 1 00099E11 1 00099G11 1 00100K11 1 00051L11 1 02000N11 1 02300S11 1 00065V11 1 01099X11 1 20005
0057325960999991969072206004+51500+156750FM-12+999999999V0201801N00411002401CN0100001N9+00891+00781101571ADDAY181999GF108991081091002501999999MD1710081+9999MW1801
0275999999137541969081107005+34900-076883SAO  +0011NKT  V02099959000050274349N008000599+02175+02065101155ADDGD12994+9999999GD24994+9999999GD30994+9999999GD40994+9999999GF108085999999999999999999MA1999999101025MW1055EQDN01 08100JPWTH 1QNNE11 1 00299E11 1 00699E11 1 00099E11 1 00099G11 1 00090K11 1 00069L11 1 00500M11 1 29830N11 1 08100Q11 1 10115S11 1 00071V11 1 01010X11 1 00000
0057166200999991969041915004+40550+023017FM-12+006199999V0202701N00261220001CN0150001N9+01281+00111101001ADDAY101999GF104991041021008001001001MD1210041+9999MW1031
0275702710264251969051106003+62150-145450SAO  +0481GKN  V0201605N001552200059N1120005N1+00565+00005100865ADDGD12994+9999999GD22994+9999999GD33994+9999993GD40994+9999999GF106035999999999999999999MA1999999095095MW1001EQDN01 00000JPWTH 1QNNE11 1 00299E11 1 00299E11 1 00399E11 1 00099G11U1 99999K11 1 00032L11 1 07000M11 1 28080N11 1 00000Q11 1 10086S11 1 00042V11 1 00804X11 1 16003
005994999900146196909172300N-17150+145250AUST +0485     V0201355N004659999999N999999999+02225+01505999999ADDAY124999GA1005+999999999GF100995004999999999999999MW1025
028099999914820196901232000E+41400-081850SAO  +024899999V0201705N004650365849N016000599+01505+00675101025ADDAA101000095GD13994+9999999GD23994+9999999GD30994+9999999GD40994+9999999GF106055999999999999999999MA1999999098105EQDN01 00000JPWTH 1QNNE11 1 00499E11 1 00499E11 1 00099E11 1 00099G11 1 00120K11 1 00044L11 1 01000M11 1 28970N11 1 00000Q11 1 10102S11 1 00059V11 1 00806X11 1 17009
041072208013880196910242100C+32900-080033SAO  +0012CHS  V0200505N006252200059N0240005N1+01725+00785103085ADDAA101000095GA1999+009009084GA2009+999999999GA3009+999999999GA4009+999999999GD10004+9999999GD20004+9999999GD30004+9999999GD40004+9999999GF100005999999999999999999MA1103051102885MW1001EQDQ01    003SCCGA1N01 00000JPWTH 1QNNE11 1 00000E11 1 00000E11 1 00000E11 1 00000G11U1 99999H11 1 11999H11 1 00999H11 1 00999H11 1 00999K11 1 00046L11 1 01500M11 1 30380N11 1 00000Q11 1 10308S11 1 00063V11 1 00000X11 1 05012
0064488925999991969120801004+11000+106700FM-15+0033VVPI V0200301N002612200019N0112001N1+02741+02351999999ADDGA1029+009009059GF102991999999999999999999EQDQ01+000000PRSWM2
0057276650999991969112809004+55033+044500FM-12+020699999V0201801N00511030001CN0060001N9+00781+00721100881ADDAY181999GF108991031091004501061999MD1210011+9999MW1251
0035722055999991969071922004+28433-081300SAO  +0029MCO  V0200801N001510330019N0160001N1+02681+02071999999ADDGF108991999999999999999999MW1001
0081309480999991969092112004+50300+111250FM-12+999999999V0209991C00001220001CN0500001N9-00281-00781102131ADDAA199000091AY111999GF101991011001999999041001KA1999M+00781MD1210211+9999MW1021
0063484560999991969020917004+13917+100600FM-15+0004VTBD V0201601N00151220001CN0112001N1+02241+01521999999ADDGF100991999999999999999999MA1999999101291EQDQ01+000000PRSWM2
0081319600999991969060509004+43117+131883FM-12+0138UHWW V0201601N00821220001CN0500001N9+00611+00391101281ADDAA199000091AY101999GF102991021011008001001001KA1999M+01391MD1310101+9999MW1021
0056107120999991969092206004+49500-007867FM-15+0321EDAS V0202201N00511004201CN0064001N9+01301+01191999999ADDGA1039+002709079GA2089+004209079MA1999999098411MW1051
0035106370999991969040617004+50033+008567SAO  +0112EDDF V0201101N003612200019N0320001N9+99999+99999999999ADDGF100991999999999999999999MW1001
0076260590999991969112703004+59367+028600FM-12+001999999V0203401N00211004501CN0047001N9-00221-00281099511ADDAY171999GF108991999071004501021999MD1710151+9999MW1731EQDQ01+000082SCOTLC
0057247960999991969080103004+62550+149667FM-12+999999999V0201801N00411220001CN0500001N9+02721+01281100351ADDAY121999GF107991041021012501001011MD1710151+9999MW1031
039470261026411196903272100C+64817-147867SAO  +0134FAI  V0200505N002152200059N0240005N1-00835-01835102265ADDAA101000095GA1029+010674064GA2029+220009024GA3999+999999999GA4999+999999999GD12024+9999999GD22024+9999999GD30004+9999999GD40004+9999999GF104035999999999999999999MA1999999100445MW1001EQDN01 00000JPWTH 1QNNE11 1 00202E11 1 00203E11 1 00000E11 1 00000G11U1 99999H11 1 15035H11C1 37999H11 1 00999H11 1 00999K11 1-00001L11 1 01500M11 1 29660N11 1 00000Q11 1 10226S11 1 00017V11 1 00504X11 1 05004
007494967099999196904020500N-43500+147150AUST +0053     V0202485N014459999999N999999999+01395+01105999999ADDAY124999GA1065+007505085GF106995064085007505999999MA1999999100375MW1015
0269999999939011969031205005+32733-096967SAO  +0150NBE  V0202605N002150140249N024000599+00335-00225102095ADDGD14994+9999999GD20994+9999999GD30994+9999999GD40994+9999999GF108085999999999999999999MA1999999100345EQDN01 00000JPWTH 1QNNE11 1 00699E11 1 00099E11 1 00099E11 1 00099G11 1 00046K11 1 00028L11 1 01500M11 1 29630N11 1 00000Q11 1 10209S11 1 00038V11 1 01010X11 1 26004
0050724695230361969082021004+39617-104750SAO  +1729BKF  V0200901N003110120019N0640001N9+03131+00631101041ADDGF107991999999999999999999MA1999999082761MW1001
0092383530999991969022406004+42833+074583FM-12+082899999V0201501N00101024001CN0040001N9-00891-01221103691ADDAA106012091AA299003091AY171999GF108991081001999999011999KA1999N-01391MD1210111+9999MW1101
0076306730999991969032506004+53733+119783FM-12+061999999V0202301N00411012301CN9999999N9+00001+00001098461ADDAY171999GF108991081001012501021999MD1610111+9999MW1751EQDQ01+100002VODIS 
0275999999937381969061823005+38950-077450SAO  +008899999V0201705N002150057949N006400599+02285+01895100665ADDGD14994+9999999GD20994+9999999GD30994+9999999GD40994+9999999GF108085999999999999999999MA1999999099535MW1055EQDN01 08100JPWTH 1QNNE11 1 00699E11 1 00099E11 1 00099E11 1 00099G11 1 00019K11 1 00066L11 1 00400M11 1 29390N11 1 08100Q11 1 10066S11 1 00073V11 1 01010X11 1 17004
0057315210999991969022121004+50783+129333FM-12+023199999V0209991C00001220001CN0300001N9-03501-03891102741ADDAY101999GF100991001001999999001001MD1310011+9999MW1021
0050722175138601969082921004+32633-083600SAO  +0090WRB  V0200301N004612200019N0160001N9+02941+01721101971ADDGF102991999999999999999999MA1999999100881MW1001
0089110350999991969062515004+48250+016367FM-12+020399999V0202901N00511220001CN0250001N9+01891+01111101191ADDAY121031GA1019+010509089GA2039+012009059GF106991041081012501071999MD1810111+9999MW1021
0095484775999991969080318004+12683+101000FM-15+0018VTBU V0202401N004110360019N0112001N1+02801+02181999999ADDGA1069+036009039GA2089+090009009GF108991999999999999999999MA1999999100441EQDQ01+000000PRSWM2
0057315380999991969013103004+50067+132133FM-12+031499999V0209991C00001220001CN0500001N9-03001-03391104201ADDAY101999GF100991001001999999001001MD1810071+9999MW1021
0057299730999991969050321004+53150+094500FM-12+999999999V0209991C00001220001CN0200001N9-01501-01501103181ADDAY101999GF100991001001999999001001MD1110011+9999MW1021
009094430099999196905181600N-26620+118550AUST +0518YPMR V0203385N004159999999N999999999+01665+01605999999ADDAY124999GA1015+003005075GA2055+007505065GF106995014065003005999999MA1999999095055MW1025
0383703500255011969030615003+57750-152500SAO  +0004ADQ  V0203605N001050121949N0240005N1+00115-00065099765ADDGA1029+007624064GA2069+012194064GA3999+999999999GA4999+999999999GD12024+9999999GD23064+9999999GD30004+9999999GD40004+9999999GF107075999999999999999999MA1999999099325MW1001EQDN01 00000JPWTH 1QNNE11 1 00202E11 1 00407E11 1 00000E11 1 00000G11 1 00040H11 1 15025H11 1 15040H11 1 00999H11 1 00999K11 1 00031L11 1 01500M11 1 29330N11 1 00000Q11 1 09976S11 1 00034V11 1 00909X11 1 36002
0081359410999991969101518004+45717+060000FM-12+999999999V0203401N00411220001CN0100001N9+00611-00501102421ADDAA199000091AY101999GF100991001001999999001001KA1999M+01001MD1210101+9999MW1021
0271999999253431969052000005+54250-133050SAO  +0041CYLA V02018059008850304849N024000599+01065+00785101755ADDGA1999+030484034GA2999+091444024GD19054+9999999GD29034+9999999GF108085999999999999999999MA1999999101255EQDN01 00000JPWTH 1QNNE11 1 09906E11 1 09904G11 1 00100H11 1 23100H11 1 37300K11 1 00046L11 1 01500M11 1 29900N11 1 00000Q11 1 10175S11 1 00051V11 1 01010W11 1 55017
0238724956232111969081605003+38067-122517SAO  +0004SRF  V0201905N002652200059N0560005N1+01565+01065999999ADDGD10994+9999999GD20994+9999999GD30994+9999999GD40994+9999999GF100995999999999999999999MW1001EQDN01 00000JPWTH 1QNNE11 1 00099E11 1 00099E11 1 00099E11 1 00099G11U1 99999K11 1 00051L11 1 03500N11 1 00000S11 1 00060V11 1 00099X11 1 19005
0269999999240371969122909005+46433-105867SAO  +0801MLS  V0201405N003152200059N016000599-01285-01615102515ADDGD10994+9999999GD20994+9999999GD30994+9999999GD40994+9999999GF100005999999999999999999MA1999999092695EQDN01 00000JPWTH 1QNNE11 1 00099E11 1 00099E11 1 00099E11 1 00099G11U1 99999K11 1 00003L11 1 01000M11 1 27370N11 1 00000Q11 1 10251S11 1 00009V11 1 00000X11 1 14006
0043255630999991969121403004+64783+177567FM-12+006299999V0203201N00101220001CN0500001N9-02501-02781101961ADDGF100991001001999999001001MD1210031+9999
0269999999242551969102710005+99999+999999SAO  +999999999V0201405N005250152449N011200599+01065+00445101105ADDGD13994+9999999GD23994+9999999GD30994+9999999GD40994+9999999GF107065999999999999999999MA1999999100985EQDN01 00000JPWTH 1QNNE11 1 00499E11 1 00499E11 1 00099E11 1 00099G11 1 00050K11 1 00040L11 1 00700M11 1 29820N11 1 00000Q11 1 10110S11 1 00051V11 1 00908X11 1 14010
0377999999931061969030918005+33800-118050SAO  +000899999V02099959000052200059N011200599+01615+00335101325ADDGA1999+006104084GA2999+999999004GA3999+999999999GA4999+999999999GD12044+9999999GD23024+9999999GD30004+9999999GD40004+9999999GF106065999999999999999999MA1999999101225EQDN01 00000JPWTH 1QNNE11 1 00205E11 1 00402E11 1 00000E11 1 00000G11C1 99999H11 1 11020H11C1 32999H11 1 00999H11 1 00999K11 1 00038L11 1 00700M11 1 29890N11 1 00000Q11 1 10132S11 1 00061V11 1 00707X11 1 00000
0074247630999991969120900004+62833+134633FM-12+020099999V0209991C00001220001CN0020001N9-05221-05611101801ADDAA199000091AY101999GF100991001001999999001001IA1159MD1510041+9999MW1101
0258999999410681969050409005+16683+106833SAO  +0037ILZV V0200705N003652200059N016000599+03505+02445999999ADDGD12994+9999999GD23994+9999999GD30994+9999999GD40994+9999999GF106065999999999999999999MA1999999099705EQDN01 00000JPWTH 1QNNE11 1 00299E11 1 00499E11 1 00099E11 1 00099G11C1 99999K11 1 00076L11 1 01000M11 1 29440N11 1 00000S11 1 00095V11 1 00707X11 1 07007
0086111570999991969021406004+47533+014133FM-12+063399999V0209991C00001013501CN0070001N9-01221-01281100951ADDAY121061GA1059+013509059GF105991051051012501001001KA1999N-01611MD1310091+9999MW1101
0095488700999991969041118004+13767+109217FM-15+0006VVQN V0209991C000012200019N0112001N1+02571+02301999999ADDGA1019+005409059GA2019+090009029GF102991999999999999999999MA1999999101221EQDQ01+000000PRSWM2
0249999999947251969080718005+44933-074850SAO  +0067MSS  V0202205N005252200059N006400599+02785+02115101095ADDGD12994+9999999GD23994+9999999GD30994+9999999GF107075999999999999999999MA1999999100345MW1055EQDN01 08100JPWTH 1QNNE11 1 00299E11 1 00499E11 1 00099G11C1 99999K11 1 00070L11 1 00400M11 1 29630N11 1 08100Q11 1 10109S11 1 00082V11 1 00909X11 1 22010
0082107750999991969110815004+49217+011833FM-15+0445EDIH V0202101N00721060001CN0112001N9+01021+00461999999ADDGA1019+004509059GA2019+012009059GA3029+030009039GA4079+060009029MA1999999094381
0079221140999991969111312004+68400+032167FM-12+999999999V0201501N00411220001CN0200001N9+00221+00001999999ADDAA106008091AA299002091AY171999GF103991031091008001001001MD1210111+9999MW1011
0081227980999991969022618004+62167+049083FM-12+006699999V0209991C00001220001CN0090001N9-02221-02391104321ADDAA199000091AY101999GF100991001001999999001001KA1999M-01281MD1410001+9999MW1101
0073162000999991969061312004+42583+010100FM-12+002799999V0200501N00101220001CN0160001N9+02001+01611101271ADDAY111999GA1039+999999089GF104991031011008001001011MD1010011+9999MW1011
0081370850999991969111806004+44400+046550FM-12-002099999V0200901N01181007801CN0200001N9+00781+00281102561ADDAA199000091AY111061GF107991071051008001001001KA1999N+00221MD1710061+9999MW1021
0056085090999991969012909004+38767-027100FM-15+0055LPLA V0200901N00671006901CN0112001N9+01131+00961999999ADDGA1059+006909059GA2089+024009049MA1999999100951MW1611
0043273310999991969031103004+57583+039917FM-12+999999999V0202601N00821007801CN0100001N9-01221-01391099981ADDAY171999GF108991051051008001001071MW1711
0073323890999991969121806004+56317+160833FM-12+002599999V0200901N00211005401CN0200001N9-01111-01221100231ADDAY181999GA1069+005409099GF107991061091004501031001MD1210081+9999MW1851
031399999913740196910090900E+37500-077333SAO  +005599999V0200105N002650006149N003200599+01565+01565102085ADDAA101000095GA1999+000614074GD14084+9999999GD20994+9999999GD30994+9999999GD40994+9999999GF108085999999999999999999MA1999999101495MW1455EQDN01 07000JPWTH 1QNNE11 1 00610E11 1 00099E11 1 00099E11 1 00099G11 1 00002H11 1 16002K11 1 00060L11 1 00200M11 1 29970N11 1 07000Q11 1 10208S11 1 00060V11 1 01010X11 1 01005
0218999999942341969010720005+49083-125767SAO  +0024CYAZ V02036059003150061049N024000599+00175-00285101155ADDGA1999+006104094GD19054+9999999GF105055999999999999999999MA1999999100855EQDN01 00000JPWTH 1QNNE11 1 09906G11 1 00020H11 1 18020K11 1 00027L11 1 01500M11 1 29780N11 1 00000Q11 1 10115S11 1 00035V11 1 00606W11 1 11006
0035106270999991969062207004+49867+007883FM-15+0108EDEH V0202401N00311220001CN0112001N9+01631+01131999999ADDGA1039+009009059GA2019+030009039
0057313620999991969021115004+53750+139450FM-12+999999999V0203201N00411220001CN0500001N9-02111-02391101261ADDAY101999GF100991001001999999001001MD1210151+9999MW1021
010694612099999196910270700N-31680+116020AUST +0046YPEA V0201805N003159999999N999999999+02895+00205999999ADDAY134999GA1005+999999999GA2015+999999045GA3075+999999999GF107995004999999999035065MA1999999100665MW1035
038899999914839196902250000E+42950-087900SAO  +0205MKE  V0202805N003652200059N012800599+00225-00285102235ADDAA101000095GA1999+013724064GA2999+999999999GA3999+999999999GA4999+999999999GD12024+9999999GD20004+9999999GD30004+9999999GD40004+9999999GF102025999999999999999999MA1999999099635EQDN01 00000JPWTH 1QNNE11 1 00202E11 1 00000E11 1 00000E11 1 00000G11U1 99999H11 1 15045H11 1 00999H11 1 00999H11 1 00999K11 1 00027L11 1 00800M11 1 29420N11 1 00000Q11 1 10223S11 1 00036V11 1 00202X11 1 28007
004674754013934196912051600D+31317-092550SAO  +0027KAEX V0201001N003610270019N0112001N9+00741+00241999999ADDAA101000095GF108991999999999999999999MW1611
0057312850999991969031603004+54633+135700FM-12+999999999V0202001N00311075001CN0200001N9-00611-01221101701ADDAY171999GF108991011011008001001071MD1710081+9999MW1021
0095231210999991969121412004+68767+061417FM-12+999999999V0202001N00311002701CN0210001N9-01001-01111103861ADDAA106002091AA299000591AY121999GA1089+002709079GF108991081061001501999999MD1210051+9999MW1021
017699999914914196908030900E+46900-096800SAO  +0273FAR  V0201605N005252200059N024000599+01835+01445101505ADDAA101000095GF100005999999999999999999MA1999999098275EQDN01 00000JPWTH 1QNNG11U1 99999K11 1 00058L11 1 01500M11 1 29020N11 1 00000Q11 1 10150S11 1 00065V11 1 00000X11 1 16010
0123238620999991969071106004+61533+082417FM-12+999999999V0200501N00311220001CN0200001N9+02721+01501101131ADDAA199000091AJ100009199999999AY111999GF102991001001999999001011HL10009IA1009IA2999+01509KA1999N+01781MD1210021+9999MW1021
0057261280999991969061521004+58567+023517FM-12+999999999V0203601N00311220001CN0500001N9+01611+01391101251ADDAY101999GF100991001001999999001001MD1210041+9999MW1021
0081339830999991969032418004+45367+036433FM-12+999999999V0200701N00411024001CN0100001N9+00111-00611102041ADDAA199000091AY111999GF108991081001999999011001KA1999M+00611MD1710171+9999MW1021
0025106320999991969111304004+49967+008150FM-15+0234EDOT V0201701N00361220001CN0112001N9+00691+00581999999ADDGA1049+007509059MW1001
0057388950999991969031800004+37600+062183FM-12+024199999V0203401N00511220001CN0100001N9+00611+00391101941ADDAY101999GF100991001001999999001001MD1710081+9999MW1021
0050722786231041969043021004+33317-111650SAO  +0422IWA  V0202501N002112200019N0960001N9+03071-00311100571ADDGF100991999999999999999999MA1999999095771MW1001
004674754013934196912041100D+31317-092550SAO  +0027KAEX V0203401N001012200019N0240001N9+00131+00021999999ADDAA101000095GF100991999999999999999999MW1001
0275783670117061969070101003+19900-075150SAO  +0016MUGM V0203305N003152200059N0160005N9+02835+02395101575ADDGD12994+9999999GD22994+9999999GD33994+9999999GD40994+9999999GF105055999999999999999999MA1999999101325MW1001EQDN01 00000JPWTH 1QNNE11 1 00299E11 1 00299E11 1 00499E11 1 00099G11C1 99999K11 1 00075L11 1 01000M11 1 29920N11 1 00000Q11 1 10157S11 1 00083V11 1 00606X11 1 33006
0095370540999991969031000004+44217+043100FM-12+031499999V0209991C00001002401CN0020001N9+00001+00001102001ADDAA106016091AA299004091AY171061GA1089+999999079GF108991999071002501021999MD1810051+9999MW1701
0057290230999991969122203004+59933+081817FM-12+009099999V0202701N00411024001CN0200001N9-01721-01781102491ADDAY121999GF107991071001999999031001MD1210091+9999MW1021
006694821099999196906041130N-37750+140780AUST +0069YMMG V0209999C000059999999N999999999+00525+00505999999ADDGA1015+007505065GF101995014055007505999999MA1999999101565MW1465
0024478030999991969090315004+33883+130650FM-15+0033RJFA V0201401N002619999999N0048001N1+02571+02411999999ADDMA1999999101461MW1451
0029359250999991969051418004+45450+056100FM-12+008299999V0201601N00721220001CN0200001N9+02281-00891100151ADDGF103991031001999999041021
006694962099999196909080500N-43670+146270AUST +0118     V0203385N009859999999N999999999+01005+00805999999ADDGA1085+007505115GF108995084075007505999999MA1999999099515MW1505
0269999999225141969011204005+21317-158067SAO  +0015HNA  V0202805N003652200059N024000599+02445+01725100845ADDGD12994+9999999GD20994+9999999GD30994+9999999GD40994+9999999GF102025999999999999999999MA1999999100685EQDN01 00000JPWTH 1QNNE11 1 00299E11 1 00099E11 1 00099E11 1 00099G11U1 99999K11 1 00063L11 1 01500M11 1 29730N11 1 00000Q11 1 10084S11 1 00076V11 1 00202X11 1 28007
005994999900200196907062300N-31720+148670AUST +0028     V0201355N001059999999N999999999+00475+00305999999ADDAY104999GA1005+999999999GF100995004999999999999999MW1025
0044722026128261969040909004+25483-080383SAO  +0002HST  V0200801N005712200019N0112001N9+02241+01691101881ADDGF102991999999999999999999MA1999999101831
006682193099999196907302300N-01383-048483BRAZ +0016SBBE V02004019999999999999N020000199+02751+02401101061ADDGA1041+030001041GF104991999999999999999999MA1101021100881MW1951
0092315790999991969070512004+50100+140683FM-12+999999999V0209991C00001220001CN0200001N9+01281+00611101401ADDAA106075091AA224999999AY181999GF100991001001999999001001KA1999M+01281MD1310091+9999MW1011
0050745940137051969091121004+38817-076850SAO  +0085ADW  V0202901N003112200019N0112001N9+02301+00801102101ADDGF108991999999999999999999MA1999999101081MW1001
0114342470999991969112600004+50417+041050FM-12+009399999V0201801N00721003601CN0070001N9+00721+00611101181ADDAA106039091AA299010091AY161999GA1079+003609079GF108991999071004501021999MD1710061+9999MW1611EQDQ01+000082SCOTLC
0057208640999991969122209004+71483+071800FM-12+999999999V0202301N00871004501CN0100001N9-01281-01611102471ADDAY131999GF107991071051004501001001MD1710041+9999MW1371
0057338930999991969040715004+46417+029667FM-12+999999999V0202901N00101220001CN0200001N9+01221+00111102171ADDAY111999GF101991011051012501001001MD1710181+9999MW1011
0114273310999991969060200004+57583+039917FM-12+999999999V0203601N00411001201CN0100001N9+00781+00781099491ADDAA106024091AA299006091AY161999GA1089+001209079GF108991999071001501021999MD1210051+9999MW1021EQDQ01+000082SCOTLC
009895907099999196910052300N-36230+148150AUST +0345     V0209999C000059999999N999999999+01015+01005999999ADDGA1005+999999999GA2025+999999045GA3025+999999999GF104995004999999999025025MA1999999098285MW1015
039472253012921196903040900C+29533-098467SAO  +0240SAT  V0203405N003152200059N0240005N1+00005-00225102115ADDAA101000095GA1059+220009024GA2999+999999999GA3999+999999999GA4999+999999999GD13054+9999993GD20004+9999999GD30004+9999999GD40004+9999999GF105015999999999999999999MA1999999099265MW1001EQDN01 00000JPWTH 1QNNE11 1 00306E11 1 00000E11 1 00000E11 1 00000G11U1 99999H11C1 37999H11 1 00999H11 1 00999H11 1 00999K11 1 00028L11 1 01500M11 1 29310N11 1 00000Q11 1 10211S11 1 00032V11 1 00601X11 1 34006
0092255380999991969050121004+64133+164583FM-12+032699999V0202701N00511024001CN0200001N9-00501-00721100831ADDAA106001091AA299000391AY171999GF108991081001999999021999KA1999N-00891MD1610021+9999MW1711
038899999913873196901132100E+33950-083317SAO  +0244AHN  V0202805N003152200059N024000599+00895-01175102595ADDAA101000095GA1999+030484034GA2999+999999004GA3999+999999999GA4999+999999999GD12024+9999999GD22024+9999999GD30004+9999999GD40004+9999999GF104025999999999999999999MA1999999099595EQDN01 00000JPWTH 1QNNE11 1 00202E11 1 00203E11 1 00000E11 1 00000G11U1 99999H11 1 23100H11C1 32999H11 1 00999H11 1 00999K11 1 00011L11 1 01500M11 1 29410N11 1 00000Q11 1 10259S11 1 00048V11 1 00503X11 1 28006
0377488561410241969080710002+16033+108250SAO  +0009VVDN V0201105N006250243849N011200599+03225+02615100165ADDGA1999+010674084GA2999+024384034GA3999+999999004GA4999+999999999GD12024+9999999GD23024+9999999GD33014+9999999GD40004+9999999GF106065999999999999999999MA1999999100075EQDN01 00000JPWTH 1QNNE11 1 00203E11 1 00403E11 1 00401E11 1 00000G11 1 00080H11 1 11035H11 1 23080H11C1 32999H11 1 00999K11 1 00079L11 1 00700M11 1 29550N11 1 00000Q11 1 10016S11 1 00090V11 1 00707X11 1 11012
0095488935999991969051206004+10967+106483FM-15+0014VVCC V0200301N001010900019N0112001N1+03791+02411999999ADDGA1039+010509089GA2039+090009009GF107991999999999999999999MA1999999100341EQDQ01+000000PRSWM2
0057363580999991969122206004+49183+077417FM-12+999999999V0209991C00001220001CN0500001N9-01001-01281102681ADDAY111999GF101991001001999999001021MD1210011+9999MW1021
004672253612911196909241000D+29533-098283SAO  +0232RND  V0203501N002112200019N0240001N9+01851+01691999999ADDAA101000095GF102991999999999999999999MW1001
0080483540999991969101907004+17367+102800FM-15+0181VTUD V0203001N001010900019N0112001N1+03131+02521999999ADDGA1049+009009089GA2049+090009009GF107991999999999999999999EQDQ01+000000PRSWM2
0041727125146231969011413004+46933-067883SAO  +0227LIZ  V0203401N005710045019N0096001N9-00421-00701999999ADDGF108991999999999999999999MW1381MW2711
0057229390999991969050103004+60033+037783FM-12+012099999V0200901N00411002401CN9999999N9+00001+99999102081ADDAY171999GF108991051011002501001021MD1710051+9999MW1561
0081237110999991969060418004+62700+056200FM-12+010799999V0200501N00101220001CN0500001N9+00781+00001102041ADDAA199000091AY121999GF102991001001999999001011KA1999M+01221MD1310071+9999MW1011
010694610599999196911180700N-31930+115970AUST +0012YPPH V0209999C000059999999N999999999+03615+00605999999ADDAY124999GA1005+999999999GA2005+999999999GA3015+999999999GF101995004999999999999055MA1999999101215MW1025
0057322270999991969110418004+59100+159817FM-12+999999999V0201801N00411220001CN0500001N9-00611-00721099821ADDAY111999GF100991001001999999001001MD1710201+9999MW1021
0057358490999991969120309004+45767+062117FM-12+006899999V0200201N00411220001CN0200001N9+00391-00721102441ADDAY101999GF102991001001999999001021MD1810121+9999MW1021
0057266570999991969111215004+54867+027600FM-12+999999999V0201601N00511024001CN0150001N9+00781+00501100341ADDAY121999GF107991071001999999031001MD1710121+9999MW1021
0050702220999991969042718004+64733-156933SAO  +0046PAGA V0209991C000010270019N0480001N9+00461-00091099951ADDGF108991999999999999999999MA1999999099321MW1001
0106249330999991969101400004+60783+119417FM-12+999999999V0209991C00001007801CN0400001N9-00501-00721101071ADDAA199000091AY121999GF107991071051008001001001HL10009IA1319IA2999-00729KA1999N-00611MD1710451+9999MW1021
006094999900346196911110200N-41000+145730AUST +0020     V0200455N005159999999N999999999+01615+01105999999ADDGA1035+006005085GF103995034015006005999999MA1999999102805
0050488640999991969102800004+15417+108700SAO  +0011VVCI V0203001N001510060019N0016001N1+02521+02411101001ADDGF108991999999999999999999MA1999999100951MW1811
0057442980999991969101606004+46450+108217FM-12+128599999V0201801N00721220001CN0500001N9+01391-00611100932ADDAY111999GF103991021001999999041011MD1810321+9999MW1011
036199999912844196910221800E+26683-080100SAO  +000999999V0202505N003150106749N019200599+03005+02395100915ADDAA101000095GA1999+010674094GA2999+045724034GA3999+999999024GD13064+9999999GD23024+9999999GD34014+9999999GD40994+9999999GF108085999999999999999999MA1999999100855EQDN01 00000JPWTH 1QNNE11 1 00407E11 1 00402E11 1 00601E11 1 00099G11 1 00035H11 1 18035H11 1 23150H11C1 37999K11 1 00075L11 1 01200M11 1 29780N11 1 00000Q11 1 10091S11 1 00086V11 1 01010X11 1 25006
0269999999231841969093009005+34650-112433SAO  +153099999V0201905N005252200059N024000599+01675-00065101155ADDGD10994+9999999GD20994+9999999GD30994+9999999GD40994+9999999GF100005999999999999999999MA1999999084805EQDN01 00000JPWTH 1QNNE11 1 00099E11 1 00099E11 1 00099E11 1 00099G11U1 99999K11 1 00031L11 1 01500M11 1 25040N11 1 00000Q11 1 10115S11 1 00062V11 1 00000X11 1 19010
0035727855241141969061116004+47633-117650SAO  +0750SKA  V0200801N001012200019N0480001N9+01941+00561999999ADDGF100991999999999999999999MW1001
0057166690999991969102412004+38833+020717FM-12+000799999V0203101N00411220001CN0400001N9+02221+01221101741ADDAY111999GF106991011011012501001011MD1810101+9999MW1031
0086162420999991969081818004+41800+012233FM-12+000399999V0202001N00261220001CN0200001N9+02501+01781101271ADDAY111999GA1019+008109089GF101991011011008001001001KA1999M+03001MD1310101+9999MW1011
0057349170999991969010421004+45233+036750FM-12+000599999V0200501N02011220001CN0040001N9-00281-00781101901ADDAY101999GF100991001001999999001001MD1710041+9999MW1061
0079238430999991969022500004+61750+074500FM-12+999999999V0201401N00311220001CN0040001N9-01891-02501102761ADDAA106002091AA299000591AY171999GF108991001001999999001071MD1710021+9999MW1711
0082471066999991969092900004+37917+127050FM-15+0060RKST V0200501N00211030001CN0112001N9+01721+01221999999ADDGA1049+021009039GA2039+030009039GF107991999999999999999999MA1999999101291MW1001
0057314740999991969093003004+51633+133300FM-12+038299999V0202301N00511220001CN0500001N9+00611-00611101601ADDAY111999GF102991021091008001001001MD1810101+9999MW1021
0068234750999991969042100004+65167+087917FM-12+999999999V0209991C00001220001CN0040001N9-02001-02281102761ADDAA199000091AY121999GF107991001001999999001061MD1210041+9999MW1021
0064484005999991969020611004+15233+100283FM-15+0037VTPI V0200901N001512200019N0112001N1+02851+01241999999ADDGA1069+090009029GF107991999999999999999999EQDQ01+000000PRSWM2
0092281720999991969022118004+59133+068900FM-12+999999999V0209991C00001220001CN0100001N9-02281-02721104991ADDAA106075091AA224999999AY101999GF100991001001999999001001KA1999M-01781MD1110051+9999MW1021
010694646099999196903180100N-30830+128100AUST +0160YPFT V0203605N003659999999N999999999+02295+01205999999ADDAY124999GA1005+999999999GA2005+999999999GA3025+999999999GF102995004999999999999015MA1999999099815MW1025
0057320530999991969031903004+51833+143133FM-12+001099999V0202901N00511030001CN0040001N9-00391-00891101041ADDAY181999GF108991021091008001071999MD1710011+9999MW1851
0035745160232021969051420004+38267-121933SAO  +0019SUU  V0202401N005112200019N0400001N9+02051+01001999999ADDGF102991999999999999999999MW1001
0057357150999991969092421004+46800+053917FM-12+001899999V0201101N00511004501CN9999999N9+01281+00721102011ADDAY161999GF108991081051004501999999MD1710051+9999MW1021
0130275320999991969060412004+56133+040383FM-12+017099999V0202301N00101002701CN0040001N9+01221+01221100591ADDAA106008091AA299002091AY161999GA1069+002709079GA2029+004209049GF108991999071001501021999MD1310081+9999MW1101EQDQ01+000082SCOTLC
0150348580999991969032606004+45917+043350FM-12+007799999V0201101N00511003001CN0200001N9+00001-00221102211ADDAA106075091AA224999999AJ100009199999999AY171999GA1089+003009079GF108991081081002501999999HL10009IA1139IA2999+00009KA1999N+00001MD1210151+9999MW1021
0041724096147061969011914004+40000-074583SAO  +0041WRI  V0203401N004110138019N0096561N9+00611+00441999999ADDGF108991999999999999999999MW1451MW2611
0081314740999991969061009004+51633+133300FM-12+038299999V0202301N00411012301CN0500001N9+01281+00221100221ADDAA199000091AY121999GF106991061051012501001001KA1999M+01611MD1210071+9999MW1021
0057310110999991969090618004+59683+127033FM-12+999999999V0209991C00001007801CN0500001N9-00501-00501101901ADDAY111999GF108991081091008001999999MD1210181+9999MW1031
0057335870999991969051221004+48767+030233FM-12+021699999V0209991C00001220001CN0100001N9+01281+01111101811ADDAY101999GF100991001001999999001001MD1210021+9999MW1021
0057307510999991969040621004+52733+113300FM-12+999999999V0203401N00311220001CN0200001N9-00721-01391101341ADDAY101999GF101991011001999999041001MD1210091+9999MW1021
0035722167999991969020716004+30967-083200SAO  +0074VAD  V0203601N002112200019N0112001N1+02021+01241999999ADDGF107991999999999999999999MW1001
0269999999146011969031606005+44800-068817SAO  +0052BGR  V0200205N001050152449N019200599-00225-00565101355ADDGD14994+9999999GD20994+9999999GD30994+9999999GD40994+9999999GF108995999999999999999999MA1999999100585EQDN01 00000JPWTH 1QNNE11 1 00699E11 1 00099E11 1 00099E11 1 00099G11 1 00050K11 1 00022L11 1 01200M11 1 29700N11 1 00000Q11 1 10135S11 1 00028V11 1 01099X11 1 02002
0377999999416061969080809005+19283+166650SAO  +0004PWAK V0201605N003652200059N024000599+02785+02395101305ADDGA1999+005494084GA2999+999999024GA3999+999999999GA4999+999999999GD12024+9999999GD23064+9999993GD30004+9999999GD40004+9999999GF106025999999999999999999MA1999999101295EQDN01 00000JPWTH 1QNNE11 1 00202E11 1 00308E11 1 00000E11 1 00000G11U1 99999H11 1 11018H11C1 37999H11 1 00999H11 1 00999K11 1 00075L11 1 01500M11 1 29910N11 1 00000Q11 1 10130S11 1 00082V11 1 00803X11 1 16007
0068350370999991969111300004+51867+058183FM-12+031599999V0201101N00411220001CN0100001N9-00891-01221103141ADDAA199000091AY101999GF100991001001999999001001MD1210011+9999MW1021
029299999914820196904181300E+41400-081850SAO  +024899999V0200905N006750167649N002400599+01395+01175100195ADDAA101000895GD12994+9999999GD24994+9999999GD30994+9999999GD40994+9999999GF108085999999999999999999MA1999999097325MW1455MW2615EQDN01 02070JPWTH 1QNNE11 1 00299E11 1 00699E11 1 00099E11 1 00099G11 1 00055K11 1 00053L11 1 00150M11 1 28740N11 1 02070Q11 1 10019S11 1 00057V11 1 01010X11 1 09013
0096488700999991969101607004+13767+109217FM-15+0006VVQN V0201501N004112200019N0112001N1+02961+02351999999ADDGA1029+009009089GA2019+030009039GA3019+090009009GF102991999999999999999999EQDQ01+000000PRSWM2
028099999903872196905291300E+37783-081117SAO  +0763BKW  V0203205N003652200059N032000599+02005+01225101855ADDAA101000095GD13994+9999993GD20994+9999999GD30994+9999999GD40994+9999999GF106015999999999999999999MA1999999093195EQDN01 00000JPWTH 1QNNE11 1 00399E11 1 00099E11 1 00099E11 1 00099G11U1 99999K11 1 00054L11 1 02000M11 1 27520N11 1 00000Q11 1 10185S11 1 00068V11 1 00701X11 1 32007
0057367610999991969010418004+45950+077233FM-12+999999999V0209991C00001220001CN0500001N9-03501-03891999999ADDAY111999GF100991001001999999001001MD1710111+9999MW1021
0095488676999991969070115004+13950+109050FM-15+0034VVPU V0202501N004110300019N0112001N1+02741+02351999999ADDGA1029+018009059GA2069+030009039GF107991999999999999999999MA1999999100371EQDQ01+000000PRSWM2
0051476420999991969031911004+35733+139333FM-15+0142RJTY V0209991V00151220001CN0080001N9+01001+00331999999ADDGA1039+024009039GF103991999999999999999999MW1051
0067471410432191969072802004+35900+126617FM-15+0013RKJK V0202601N002612200019N0112001N9+03111+02611999999ADDGA1029+010509089GA2049+066009009GF105991999999999999999999MW1001
0096488700999991969092001004+13767+109217FM-15+0006VVQN V0201701N002610750019N0112001N1+02851+02241999999ADDGA1019+009009089GA2049+024009039GA3089+075009029GF108991999999999999999999EQDQ01+000000PRSWM2
0044744900147021969121621004+42467-071283SAO  +0045BED  V0202901N003112200019N0480001N9-00261-00921101671ADDGF107991999999999999999999MA1999999101151
0269999999047691969031013005+42417-071483SAO  +006399999V0203305N001052200059N011200599-00445-01115099125ADDGD12994+9999999GD20994+9999999GD30994+9999999GD40994+9999999GF102025999999999999999999MA1999999098345EQDN01 00000JPWTH 1QNNE11 1 00299E11 1 00099E11 1 00099E11 1 00099G11U1 99999K11 1 00012L11 1 00700M11 1 29040N11 1 00000Q11 1 09912S11 1 00024V11 1 00303X11 1 33002
0092479310999991969012403004+26350+127767FM-15+0046RODN V0201101N00671220001CN0112001N9+02501+02001999999ADDGA1039+007509059GA2019+010509059GA3019+027009039GF104991999999999999999999MA1999999101191
0076267450999991969020221004+54483+026900FM-12+016999999V0201801N00411004501CN0031001N9+00001+00001100431ADDAY171999GF108991999071004501021999MD1710161+9999MW1711EQDQ01+000082SCOTLC
0009749475999991969031307004+32883-106350SAO  +120699999V0203201N001519999999N0000001N1+99999+99999999999ADDMW1001
0057313250999991969092015004+53350+131800FM-12+999999999V0209991C00001007801CN0040001N9+00221+00221100551ADDAY161999GF108991081091008001999999MD1810111+9999MW1611
0383724040137211969080918003+38300-076417SAO  +0014NHK  V0202505N004650076249N0112005N1+03115+02005101015ADDGA1059+007624084GA2029+220009004GA3999+999999999GA4999+999999999GD13054+9999999GD23024+9999999GD30004+9999999GD40004+9999999GF107065999999999999999999MA1999999100855MW1001EQDN01 00000JPWTH 1QNNE11 1 00406E11 1 00403E11 1 00000E11 1 00000G11 1 00025H11 1 11025H11C1 32999H11 1 00999H11 1 00999K11 1 00068L11 1 00700M11 1 29780N11 1 00000Q11 1 10101S11 1 00088V11 1 00907X11 1 25009
0041722860231191969092313004+33900-117250SAO  +0470RIV  V0209991C000012200019N0020001N9+01111+01001999999ADDGF102991999999999999999999MW1051MW2111
0057166200999991969070909004+40550+023017FM-12+006199999V0202701N00261220001CN0150001N9+03001+01721101041ADDAY101999GF101991011021012501001001MD1010061+9999MW1031
0106306500999991969012400004+53217+112767FM-12+089199999V0209991C00001220001CN0006001N9-04781-05001104151ADDAA199000091AY141999GF100991001001999999001001HL10009IA1319IA2999-05289KA1999N-04891MD1410001+9999MW1461
0051749477999991969102107004+33417-115833SAO  +000099999V0202101N005710090019N0240001N1+01301+00741102261ADDGA1079+009009049GF107991999999999999999999MW1051
0136315020999991969031521004+51700+140217FM-12+999999999V0200901N00101002401CN0050001N9-00891-01001101001ADDAA106020091AA299005091AY171999GF108991999071002501021999HL10009IA1319IA2999-01119KA1999N-00891MD1210101+9999MW1711EQDQ01+000082SCOTLC
0275999999129261969021410005+27683-097283SAO  +0006NGP  V0203305N007250018349N006400599+01615+01615100425ADDGD13994+9999999GD23994+9999999GD34994+9999999GD40994+9999999GF108085999999999999999999MA1999999100375MW1815EQDN01 02500JPWTH 1QNNE11 1 00499E11 1 00499E11 1 00699E11 1 00099G11 1 00006K11 1 00061L11 1 00400M11 1 29640N11 1 02500Q11 1 10042S11 1 00061V11 1 01010X11 1 33014
0057297020999991969081306004+54700+076583FM-12+999999999V0202501N00721004501CN0200001N9+01111+00721100261ADDAY161999GF106991061091004501031021MD1310041+9999MW1021
0269999999116301969090910005+18250-065633SAO  +001199999V0200905N001052200059N019200599+02725+02065101415ADDGD12994+9999999GD20994+9999999GD30994+9999999GD40994+9999999GF104045999999999999999999MA1999999101295EQDN01 00000JPWTH 1QNNE11 1 00299E11 1 00099E11 1 00099E11 1 00099G11U1 99999K11 1 00069L11 1 01200M11 1 29910N11 1 00000Q11 1 10141S11 1 00081V11 1 00505X11 1 09002
0057315340999991969080406004+50433+131017FM-12+020499999V0202701N00211007801CN9999999N9+02221+01721100601ADDAY191999GF105991051091008001001001MD1710101+9999MW1171
038899999913881196907062100E+35217-080933SAO  +0225CLT  V0202205N005250365849N016000599+03445+02115101565ADDAA101000095GA1999+013724084GA2999+036584034GA3999+999999004GA4999+999999999GD12034+9999999GD23024+9999999GD33014+9999999GD40004+9999999GF106055999999999999999999MA1999999098885EQDN01 00000JPWTH 1QNNE11 1 00204E11 1 00402E11 1 00401E11 1 00000G11 1 00120H11 1 11045H11 1 23120H11C1 32999H11 1 00999K11 1 00070L11 1 01000M11 1 29200N11 1 00000Q11 1 10156S11 1 00094V11 1 00706X11 1 22010
0043167400999991969120509004+36917+027417FM-12+001099999V0209991C00001036001CN0200001N9+01781+01111999999ADDAY121999GF105991031021008001081021MW1021
038899999914839196905120600E+42950-087900SAO  +0205MKE  V0200205N002652200059N024000599+00395+00115101185ADDAA101000095GA1999+030484034GA2999+999999999GA3999+999999999GA4999+999999999GD12034+9999999GD20004+9999999GD30004+9999999GD40004+9999999GF103035999999999999999999MA1999999098655EQDN01 00000JPWTH 1QNNE11 1 00204E11 1 00000E11 1 00000E11 1 00000G11U1 99999H11 1 23100H11 1 00999H11 1 00999H11 1 00999K11 1 00034L11 1 01500M11 1 29130N11 1 00000Q11 1 10118S11 1 00039V11 1 00404X11 1 02005
0063471070999991969010121004+37750+128933FM-15+0027RKNN V0203001N00311220001CN0112001N1-00871-01031999999ADDGF100991999999999999999999MA1999999101151EQDQ01+000000PRSWM2
0073339020999991969120509004+46667+032617FM-12+004899999V0209991C00001008401CN0040001N9+00501+00281101341ADDAY111999GA1059+008409059GF106991041051008001001051MD1110181+9999MW1101
0057246610999991969112809004+63783+131200FM-12+999999999V0200201N00311021001CN0500001N9-03001-03281102361ADDAY121999GF108991051001022501031071MD1710141+9999MW1011
0061035963999991969033123004+52133+001433FM-15+0028EGVJ V0200301N00511003001CN0080001N9+00501+00281999999ADDGA1049+002109079GA2089+003009059GF108991999999999999999999
0079488525999991969011100004+16517+107467FM-15+0019ILZS V0202201N002612200019N0112001N1+02021+01911999999ADDGA1019+030009039GF102991999999999999999999MA1999999100911EQDQ01+000000PRSWM2
0076237760999991969101009004+62467+089000FM-12+999999999V0200501N00311007801CN0020001N9-00111-00221099311ADDAY171999GF108991999071008001021999MD1710161+9999MW1731EQDQ01+000082SCOTLC
0165999999947021969091009005+41167-073133SAO  +0002BDR  V0202805N006252200059N024000599+01225+01005101325ADDGF100005999999999999999999MA1999999101255EQDN01 00000JPWTH 1QNNG11U1 99999K11 1 00050L11 1 01500M11 1 29900N11 1 00000Q11 1 10132S11 1 00054V11 1 00000X11 1 28012
0048484775999991969120317004+12683+101000FM-15+0018VTBU V0203101N00101220001CN0112001N1+02241+01351999999ADDGF100991999999999999999999EQDQ01+000000PRSWM2
0106273730999991969012306004+57667+046633FM-12+015899999V0201401N00411220001CN0170001N9-03221-03501104051ADDAA199000091AY101999GF103991031001999999041011HL10009IA1209IA2999-03619KA1999N-03221MD1310031+9999MW1021
0057310160999991969041403004+58467+128500FM-12+999999999V0202701N00211075001CN0200001N9+00001-01281102031ADDAY121999GF108991041021008001001071MD1010051+9999MW1021
0043167440999991969010906004+36417+025433FM-12+021399999V0203601N00261036001CN0200001N9+00721+00391999999ADDAY111999GF106991011021002501061001MW1031
0068257670999991969071112004+62050+175267FM-12+999999999V0209991C00001000151CN0005001N9+00721+00721100521ADDAA199000091AY141999GF109991091999000251999999MD1810011+9999MW1451
0035701040999991969011711004+68883-166133SAO  +0007PALU V0201501N003612200019N0112001N9-01261-01641999999ADDGF100991999999999999999999MW1001
0068230290999991969121412004+69250+064950FM-12+999999999V0202001N00721220001CN0500001N9-01391-01501103601ADDAA199000091AY131999GF102991021001999999041001MD1210021+9999MW1361
0078202920999991969050706004+77717+104283FM-12+001399999V0201101N00411220001CN0220001N9-01891-02111101451ADDAY101999GF101991001001999999001011MW1021EQDQ01+000042APCTENQ02+000052APC3  
0081296640999991969081200004+55233+090517FM-12+999999999V0201801N00721007801CN0500001N9+01111+00501101221ADDAA199000091AY121999GF107991071091008001001001KA1999N+00891MD1710031+9999MW1021
0275040180162011969060119003+63967-022600SAO  +0050BIKF V0201405N005250213449N0240005N1+01225+00335102015ADDGD12994+9999999GD23994+9999999GD30994+9999999GD40994+9999999GF106065999999999999999999MA1999999101355MW1001EQDN01 00000JPWTH 1QNNE10 1 00299E10 1 00499E10 1 00099E10 1 00099G10 1 00070K10 1 00038L10 1 01500M10 1 29930N10 1 00000Q10 1 10201S10 1 00054V10 1 00808X10 1 14010
0050723408138141969061300004+35967-089950SAO  +0077BYH  V0201801N006712200019N0112001N9+03161+02051101101ADDGF102991999999999999999999MA1999999100171MW1001
0057167460999991969010921004+35550+024117FM-12+015199999V0209991C00001220001CN0100001N9+00781+00501102101ADDAY111999GF101991011051012501001001MD1810011+9999MW1011
039472231012916196903240000C+29983-090250SAO  +0001MSY  V0202005N007250213449N0160005N1+02005+01675099765ADDAA101000595GA1079+021344034GA2999+999999999GA3999+999999999GA4999+999999999GD13074+9999999GD20004+9999999GD30004+9999999GD40004+9999999GF107075999999999999999999MA1999999099665MW1001EQDN01 00000JPWTH 1QNNE11 1 00409E11 1 00000E11 1 00000E11 1 00000G11 1 00070H11 1 23070H11 1 00999H11 1 00999H11 1 00999K11 1 00062L11 1 01000M11 1 29430N11 1 00000Q11 1 09976S11 1 00068V11 1 00909X11 1 20014
0075931190999991969100521004-37017+174800FM-12+000499999V0203401N00211075001CN0450001N9+01331+01111102411ADDAY111999GA1029+006009089GA2069+075009009GF106991021021008001001041MW1031
0057295410999991969062606004+56067+085617FM-12+025099999V0200701N00511220001CN0200001N9+02781+01221100901ADDAY111999GF107991001001999999001061MD1710091+9999MW1031
033499999924011196906210000E+46767-100750SAO  +050299999V0201105N002650243849N024000599+01445+00065101545ADDAA101000095GA1999+024384044GA2999+999999024GD13064+9999999GD24024+9999999GD30994+9999999GD40994+9999999GF108085999999999999999999MA1999999095505EQDN01 00000JPWTH 1QNNE11 1 00408E11 1 00602E11 1 00099E11 1 00099G11 1 00080H11 1 21080H11C1 37999K11 1 00033L11 1 01500M11 1 28200N11 1 00000Q11 1 10154S11 1 00058V11 1 01010X11 1 11005
0081315860999991969030115004+49733+128083FM-12+999999999V0209991C00001220001CN0400001N9-02611-03001102571ADDAA199000091AY101999GF100991001001999999001001KA1999M-01391MD1210021+9999MW1021
0057313880999991969101718004+52333+129917FM-12+020799999V0209991C00001220001CN0500001N9-00501-00781100891ADDAY101999GF100991001001999999001001MD1310041+9999MW1021
0106246710999991969122000004+63950+135867FM-12+040099999V0203601N00621220001CN0500001N9-04721-05001103001ADDAA199000091AY101999GF100991001001999999001001HL10009IA1319IA2999-04619KA1999N-04721MD1710031+9999MW1021
0098910660227011969061122001+28200-177383SAO  +0007PMDY V0200201N002112200019N0160001N1+02461+01631102231ADDGA1019+007509089GA2019+021009039GA3019+220009009GF102991999999999999999999MA1999999102131MW1001
0123368590999991969052106004+44167+080067FM-12+064099999V0201801N00511220001CN0500001N9+02501+01001100751ADDAA199000091AJ100009199999999AY101999GF107991001001999999001021HL10009IA1009IA2999+00899KA1999N+01111MD1710121+9999MW1021
004674754013934196901021900D+31317-092550SAO  +0027KAEX V0209991C000010240019N0160001N9+00691+00241999999ADDAA101000095GF108991999999999999999999MW1001
0081309690999991969112612004+49683+117300FM-12+073399999V0209991C00001220001CN0500001N9-02111-02281103781ADDAA199000091AY111999GF101991001001999999001021KA1999M-00781MD1210231+9999MW1021
0080488915999991969011502004+11317+106067FM-15+0008VVTN V0200201N002110120019N0112001N1+02521+02301999999ADDGA1019+003009079GA2089+012009059GF108991999999999999999999EQDQ01+000000PRSWM2
0057311730999991969081215004+55167+137967FM-12+999999999V0203601N00311007801CN0200001N9+01391+01221101611ADDAY121999GF108991081051008001999999MD1210021+9999MW1021
0073267020999991969010121004+54700+020617FM-12+002799999V0202701N00311003601CN0040001N9-00501-00721102021ADDAY181999GA1069+003609099GF106991061091004501001001MD1210041+9999MW1851
0035724836232081969051713004+38667-121400SAO  +0023MCC  V0201701N000512200019N0320001N9+01571+00911999999ADDGF100991999999999999999999MW1001
0057287040999991969080915004+54500+050417FM-12+008099999V0203601N00411220001CN0500001N9+01611+00391102121ADDAY101999GF102991021011008001001001MD1210051+9999MW1021
0019085090999991969072723004+38767-027100FM-15+0055LPLA V0202801N00151220001CN0112001N9+02461+01961999999ADDGA1019+009009089
0377999999225141969070915005+21317-158067SAO  +0015HNA  V0200505N001552200059N024000599+02335+02115101745ADDGA1999+007624084GA2999+999999999GA3999+999999999GA4999+999999999GD12014+9999999GD20004+9999999GD30004+9999999GD40004+9999999GF101015999999999999999999MA1999999101595EQDN01 00000JPWTH 1QNNE11 1 00201E11 1 00000E11 1 00000E11 1 00000G11U1 99999H11 1 11025H11 1 00999H11 1 00999H11 1 00999K11 1 00070L11 1 01500M11 1 30000N11 1 00000Q11 1 10174S11 1 00074V11 1 00101X11 1 05003
0057260590999991969052721004+59367+028600FM-12+001999999V0200501N00211220001CN0500001N9+01001+00721101301ADDAY111999GF103991021041012501031001MD1310091+9999MW1021
0123330410999991969091006004+52450+031000FM-12+013999999V0201101N00211220001CN0100001N9+00891+00721102731ADDAA199000091AJ100009199999999AY141999GF102991011051012501001011HL10009IA1009IA2999+00509KA1999N+00501MD1210071+9999MW1021
0073317860999991969080806004+47550+134650FM-12+008499999V0202301N00211008101CN0500001N9+01891+01721100581ADDAY181999GA1089+008109099GF108991081091008001999999MD1610021+9999MW1251
028099999913739196904200800E+39883-075250SAO  +0003PHL  V0200205N008250076249N024000599+00725+00065101295ADDAA101000095GD14994+9999999GD20994+9999999GD30994+9999999GD40994+9999999GF108085999999999999999999MA1999999101195EQDN01 00000JPWTH 1QNNE11 1 00699E11 1 00099E11 1 00099E11 1 00099G11 1 00025K11 1 00033L11 1 01500M11 1 29880N11 1 00000Q11 1 10129S11 1 00045V11 1 01010X11 1 02016
0081231210999991969122718004+68767+061417FM-12+999999999V0201101N00721220001CN0500001N9-02001-02281101571ADDAA199000091AY111999GF102991001001999999001021KA1999M-01501MD1210101+9999MW1011
0035723306138251969060201004+33633-088450SAO  +0062CBM  V0209991C000010450019N0128001N9+02741+01851999999ADDGF108991999999999999999999MW1001
0056035833999991969081903004+52417+000550FM-15+0013EGUL V0202201N00311220001CN0096001N9+01571+01411999999ADDGA1019+010509059GA2039+015009059MA1999999101931MW1051
0068335360999991969071700004+49017+025783FM-12+027999999V0209991C00001220001CN0500001N9+01391+01111102451ADDAA199000091AY101999GF101991011051008001001001MD1810021+9999MW1031
0057247130999991969082518004+62883+108733FM-12+999999999V0209991C00001007801CN0100001N9+01111+00781102021ADDAY111999GF107991071051008001001001MD1410001+9999MW1021
0025109711999991969020719004+47767+011600FM-15+0719EDOV V0202301N00101013501CN0112001N9-00371-00981999999ADDGA1069+013509059MW1001
0057239250999991969012603004+60400+063133FM-12+006899999V0202301N00411220001CN0500001N9-03221-03501104531ADDAY101999GF100991001001999999001001MD1710031+9999MW1021
0050702060266321969070106004+63317-168967SAO  +0012OHC  V0202401N007212200019N0640001N1+01071+00461102331ADDGF107991999999999999999999MA1999999102171MW1001
0057249510999991969022118004+60817+125150FM-12+011899999V0202701N00311220001CN0500001N9-03221-03501103941ADDAY171999GF108991001001999999001071MD1310041+9999MW1021
007494604099999196911100700N-33320+115630AUST +0005     V0202485N005159999999N999999999+02625+99999999999ADDAY124999GA1005+999999999GF100995004999999999999999MA1999999101665MW1025
0377999999412311969071918005+14800+120267SAO  +0014RPMB V0200105N003150091449N016000599+02505+02285100855ADDGA1999+009144084GA2999+999999004GA3999+999999999GA4999+999999999GD13064+9999999GD24024+9999999GD30004+9999999GD40004+9999999GF108075999999999999999999MA1999999100685EQDN01 00000JPWTH 1QNNE11 1 00407E11 1 00603E11 1 00000E11 1 00000G11 1 00030H11 1 11030H11C1 32999H11 1 00999H11 1 00999K11 1 00073L11 1 01000M11 1 29730N11 1 00000Q11 1 10085S11 1 00077V11 1 01009X11 1 01006
0079488700999991969122309004+13767+109217FM-15+0006VVQN V0203401N005110300019N0112001N1+02461+01851999999ADDGA1089+030009039GF108991999999999999999999MA1999999101321EQDQ01+000000PRSWM2
0081312860999991969121821004+54417+136700FM-12+999999999V0202501N01181220001CN0500001N9-02501-03001102051ADDAA199000091AY101999GF101991001001999999001011KA1999N-02501MD1110011+9999MW1021
0068342620999991969101800004+50833+044567FM-12+012299999V0202701N00511007801CN0100001N9+00611-00501101771ADDAA199000091AY121999GF108991081051008001999999MD1710291+9999MW1021
0377999999939091969062006005+38833-094883SAO  +0328NUU  V0201905N003152200059N024000599+02285+02005100595ADDGA1999+999999024GA2999+999999999GA3999+999999999GA4999+999999999GD11034+9999993GD20004+9999999GD30004+9999999GD40004+9999999GF103025999999999999999999MA1999999096855EQDN01 00000JPWTH 1QNNE11 1 00104E11 1 00000E11 1 00000E11 1 00000G11U1 99999H11C1 37999H11 1 00999H11 1 00999H11 1 00999K11 1 00068L11 1 01500M11 1 28600N11 1 00000Q11 1 10059S11 1 00073V11 1 00402X11 1 19006
038899999914826196905300000E+42967-083750SAO  +0235FNT  V0203105N004652200059N016000599+02335+01395101095ADDAA101000095GA1999+012194084GA2999+999999004GA3999+999999999GA4999+999999999GD12014+9999999GD22024+9999999GD30004+9999999GD40004+9999999GF102025999999999999999999MA1999999098375EQDN01 00000JPWTH 1QNNE11 1 00201E11 1 00202E11 1 00000E11 1 00000G11U1 99999H11 1 11040H11C1 32999H11 1 00999H11 1 00999K11 1 00057L11 1 01000M11 1 29050N11 1 00000Q11 1 10109S11 1 00074V11 1 00302X11 1 31009
0082471320999991969040612004+36450+127433FM-15+0040RKTD V0203001N003110090019N0096001N1+00521-00151999999ADDGA1059+009009059GA2089+030009049GF108991999999999999999999MA1999999100301MW1071
007494999900209196908050200N-31080+150850AUST +0411YSTW V0209999C000059999999N999999999+01565+00505999999ADDAY124999GA1015+015005085GF101995014015015005999999MA1999999097415MW1025
0081250620999991969062600004+69883+176050FM-12+999999999V0200701N00981002401CN0010001N9+00111+00001101691ADDAA199000091AY121999GF108991081061002501999999KA1999N+00001MD1210031+9999MW1101
007494768099999196909300800N-33870+151200AUST +0069     V0201585N003159999999N999999999+01455+01105999999ADDAY124999GA1045+009005085GF104995044025009005999999MA1999999101245MW1025
0081234750999991969072703004+65167+087917FM-12+999999999V0209991C00001024001CN0040001N9+01781+01391100731ADDAA199000091AY121999GF107991071001999999061001KA1999N+01611MD1710011+9999MW1021
0035723105938331969091519004+33917-080800SAO  +0077MMT  V0200501N004110210019N0128001N9+02801+01851999999ADDGF107991999999999999999999MW1001
007494576099999196903231700N-27470+153030AUST +0074     V0202255N002159999999N999999999+01895+01605999999ADDAY124999GA1035+009005085GF103995034085009005999999MA1999999101635MW1025
0117222170999991969121906004+67133+032433FM-12+002699999V0201801N00211030001CN0260001N9-01221-01281103641ADDAA106001091AA299000391AY171999GF108991021071004501021999HL10009IA1319IA2999-02509KA1999N-02391MD1610051+9999MW1711
0057312630999991969100803004+54733+130450FM-12+008499999V0203601N00101220001CN0500001N9+00001-01281102341ADDAY101999GF103991031021012501001001MD1810061+9999MW1021
0057342470999991969062021004+50417+041050FM-12+009399999V0209991C00001220001CN0200001N9+02001+01221101041ADDAY111999GF103991001001999999001021MD1810031+9999MW1131
0050724065937331969122118004+39083-076767SAO  +0049FME  V0201401N003612200019N0112001N1+00411-00311101661ADDGF107991999999999999999999MA1999999101051MW1001
0057316510999991969112503004+49867+136133FM-12+999999999V0201801N00211220001CN0100001N9-01781-02281102201ADDAY171999GF103991021011008001041001MD1110041+9999MW1021
0045983270999991969021813004+15183+120550FM-15+0146RPMK V0201901N00151220001CN0112651N9+02391+01551999999ADDGA1039+012009059GF103991999999999999999999
0073308440999991969070203004+51350+110500FM-12+080199999V0202501N00101014101CN0500001N9+01721+00891100991ADDAY121999GA1079+014109059GF107991071051012501001001MD1210011+9999MW1021
0269999999412311969013008005+14800+120267SAO  +0014RPMB V0201005N003152200059N024000599+03005+02115100745ADDGD12994+9999999GD22994+9999999GD30994+9999999GD40994+9999999GF103035999999999999999999MA1999999100545EQDN01 00000JPWTH 1QNNE11 1 00299E11 1 00299E11 1 00099E11 1 00099G11U1 99999K11 1 00070L11 1 01500M11 1 29690N11 1 00000Q11 1 10074S11 1 00086V11 1 00404X11 1 10006
0095263480999991969122900004+57133+026733FM-12+012899999V0200201N00511006301CN0500001N9-00281-00391101181ADDAA106024091AA299006091AY171999GA1089+006309059GF108991081051008001999999MD1210071+9999MW1021
0064476600999991969042105004+35700+139400FM-15+0098RJTC V0201701N007712200019N0112001N1+01961+01021999999ADDGA1039+021009039GF102991999999999999999999EQDQ01+000000PRSWM2
0377999999225191969111106005+21450-157783SAO  +0003HNG  V0200605N003152200059N024000599+02395+02005101445ADDGA1999+007624084GA2999+010674064GA3999+999999004GA4999+999999999GD12024+9999999GD22024+9999999GD33024+9999999GD40004+9999999GF106055999999999999999999MA1999999101425EQDN01 00000JPWTH 1QNNE11 1 00203E11 1 00202E11 1 00403E11 1 00000G11C1 99999H11 1 11025H11 1 15035H11C1 32999H11 1 00999K11 1 00068L11 1 01500M11 1 29950N11 1 00000Q11 1 10144S11 1 00075V11 1 00806X11 1 06006
0089161340999991969010903004+44200+010700FM-12+217399999V0200201N01031000151CN0000001N9-00611-00611999999ADDAY141999GA1099+999999999GA2099+000159999GF109991091999000251999999MD1310061+9999MW1491
0081230770999991969071400004+69333+087950FM-12+999999999V0209991C00001220001CN0500001N9+01391+00721101931ADDAA199000091AY101999GF100991001001999999001001KA1999N+01221MD1210051+9999MW1021
0035702220999991969050908004+64733-156933SAO  +0046PAGA V0202001N001010099019N0240001N9+00581+00301999999ADDGF108991999999999999999999MW1001
0035745980137021969042117004+37083-076350SAO  +0003LFI  V0202101N001012200019N0144001N9+01501+00721999999ADDGF100991999999999999999999MW1001
0356999999939091969091421005+38833-094883SAO  +0328NUU  V0202205N007250304849N016000599+02565+01785101335ADDGA1999+018294084GA2999+030484034GA3999+999999024GD12044+9999999GD23024+9999999GD34024+9999999GD40994+9999999GF108085999999999999999999MA1999999097535MW1805EQDN01 02300JPWTH 1QNNE11 1 00205E11 1 00403E11 1 00602E11 1 00099G11 1 00100H11 1 11060H11 1 23100H11C1 37999K11 1 00064L11 1 01000M11 1 28800N11 1 02300Q11 1 10133S11 1 00078V11 1 01010X11 1 22014
0123214050999991969082700004+75667+113183FM-12+999999999V0203601N00621007801CN0200001N9+00001-00221102171ADDAA199000091AJ100009199999999AY141999GF107991071051008001001001HL10009IA1089IA2999+00009KA1999N+00001MD1210131+9999MW1021
0009702190266151969061217004+60783-161800SAO  +0046BET  V02099999999999999999N0000001N1+99999+99999999999ADDMW1001
0068345600999991969111512004+48683+044350FM-12+014599999V0201201N00721220001CN0200001N9+00221-00391103721ADDAA199000091AY111999GF103991001001999999001011MD1710071+9999MW1011
0056106590999991969062406004+49750+010200FM-15+0213EDIN V0202301N00261007501CN0112001N9+01571+01301999999ADDGA1059+007509059GA2039+060009009MA1999999098211MW1001
0057442590999991969032403004+48067+114500FM-12+075699999V0203201N00211220001CN0500001N9+00281-00611101091ADDAY111999GF102991001001999999001021MD1210171+9999MW1011
038899999924157196904201500E+47633-117533SAO  +0718GEG  V0202305N007752200059N032000599+00225-00115102255ADDAA101000095GA1999+999999064GA2999+030484034GA3999+999999024GA4999+999999999GD12004+9999999GD23024+9999993GD30074+9999999GD40004+9999999GF107035999999999999999999MA1999999093705EQDN01 00000JPWTH 1QNNE11 1 00200E11 1 00302E11 1 00009E11 1 00000G11U1 99999H11 1 15999H11 1 23100H11C1 37999H11 1 00999K11 1 00030L11 1 02000M11 1 27670N11 1 00000Q11 1 10225S11 1 00036V11 1 00904X11 1 23015
0057301510999991969092503004+58850+112900FM-12+020199999V0200201N00311220001CN0500001N9-00111-00391103251ADDAY121999GF107991001001999999001011MD1210171+9999MW1021
0177722085938311969101509003+32483-080717SAO  +0010NBC  V0200505N003152200059N0064005N1+02065+02065101065ADDGF100005999999999999999999MA1999999100955MW1111MW2445EQDN01 07200JPWTH 1QNNG11U1 99999K11 1 00069L11 1 00400M11 1 29810N11 1 07200Q11 1 10106S11 1 00069V11 1 00000X11 1 05006
006694594099999196903140500N-27030+153470AUST +0099     V0200685N007259999999N999999999+02285+02205999999ADDGA1075+001505085GF107995074085001505999999MA1999999100265MW1165
0057336150999991969091221004+49033+033433FM-12+006999999V0200701N00311220001CN0100001N9+01111+00611102641ADDAY101999GF100991001001999999001001MD1010011+9999MW1021
0153309250999991969031500004+50367+106450FM-12+078999999V0209991C00001075001CN0200001N9-01281-01721104031ADDAA106999999AA299300092AJ100009199999999AY121999GF105991031001022501041021HL10009IA1139IA2999-01899KA1999N-01391MD1210011+9999MW1021EQDQ01  99982PRCP06
0084165200999991969090112004+40633+008283FM-12+004099999V0200501N00311036001CN0300001N9+02721+01891101781ADDAA199000391AY161999GA1059+036009039GF106991051001999999031021MD1510061+9999MW1011
0041726071146061969021313004+44800-068833SAO  +0059BGR  V0209991C000012200019N0064001N9-01151-01371999999ADDGF108991999999999999999999MW1041MW2111
031399999993820196910260000E+38033-084600SAO  +029999999V0201305N003650036649N006400599+01175+00895102595ADDAA101000095GA1999+003664064GD14084+9999999GD20994+9999999GD30994+9999999GD40994+9999999GF108085999999999999999999MA1999999098985MW1055EQDN01 08100JPWTH 1QNNE11 1 00610E11 1 00099E11 1 00099E11 1 00099G11 1 00012H11 1 15012K11 1 00048L11 1 00400M11 1 29230N11 1 08100Q11 1 10259S11 1 00053V11 1 01010X11 1 13007
0184999999931841969052105005+33667-117883SAO  +0016SNA  V0201705N003152200049N012800599+01615+99999999999ADDGD10994+9999999GD20994+9999999GD30994+9999999GD40994+9999999EQDN01 00000JPWTH 1QNNE11 1 00099E11 1 00099E11 1 00099E11 1 00099G11U1 99999L11 1 00800N11 1 00000S11 1 00061X11 1 17006
0269999999148551969121523005+42083-087833SAO  +0197NBU  V0203305N003652200059N019200599-00285-00895102645ADDGD12994+9999999GD21994+9999993GD30994+9999999GD40994+9999999GF103025999999999999999999MA1999999100175EQDN01 00000JPWTH 1QNNE11 1 00299E11 1 00199E11 1 00099E11 1 00099G11U1 99999K11 1 00016L11 1 01200M11 1 29580N11 1 00000Q11 1 10264S11 1 00027V11 1 00402X11 1 33007
0050723306138251969012318004+33633-088450SAO  +0062CBM  V0201901N007210045019N0160001N9+01911+01461100761ADDGF108991999999999999999999MA1999999099971MW1001
0057247630999991969102103004+62833+134633FM-12+020099999V0209991C00001220001CN0500001N9-01001-01501102431ADDAY111999GF103991031001999999031001MD1310031+9999MW1011
0009702190266151969100100004+60783-161800SAO  +0046BET  V02099999999999999999N0000001N1+99999+99999999999ADDMW1001
0092295530999991969111012004+56233+089583FM-12+029199999V0202501N00511007801CN0060001N9+00221+00111100551ADDAA106016091AA299004091AY181999GF108991081091008001999999KA1999M+00391MD1210081+9999MW1801
0057202890999991969112621004+77183+096450FM-12+999999999V0201801N00511004501CN0500001N9-01781-01891100471ADDAY121999GF107991071051004501001001MD1310141+9999MW1021
0057470080999991969113006004+41783+129650FM-12+009099999V0209999999999220001CN0100001N9+00501-00111101841ADDAY101999GF100991001001999999001001MD1710071+9999MW1021
0112489000999991969102113004+10817+106667FM-15+0019VVTS V0201701N004110360019N0112001N1+02961+02461999999ADDGA1019+004509099GA2039+010509059GA3029+036009039GA4059+075009029GF107991999999999999999999EQDQ01+000000PRSWM2
0057320980999991969061003004+49217+143100FM-12+000499999V0201801N00411002401CN0040001N9+00501+00391100561ADDAY181999GF108991081091002501999999MD1810021+9999MW1021
0057203530999991969052521004+76950+068583FM-12+000899999V0200901N00411002401CN0500001N9-00611-00611101421ADDAY171999GF108991081061002501999999MD1710021+9999MW1021
0275999999147881969032004005+41583-071417SAO  +000999999V0203605N003150033549N004800599+00445+00335101685ADDGD13994+9999999GD24994+9999999GD30994+9999999GD40994+9999999GF108085999999999999999999MA1999999101595MW1455EQDN01 07000JPWTH 1QNNE11 1 00499E11 1 00699E11 1 00099E11 1 00099G11 1 00011K11 1 00038L11 1 00300M11 1 30000N11 1 07000Q11 1 10168S11 1 00040V11 1 01010X11 1 36006
0043242750999991969102706004+67383+137217FM-12+999999999V0200901N00101015001CN0500001N9-01501-01721101641ADDAY121999GF107991051999017501999021MW1031
028699999913740196903182200E+37500-077333SAO  +005599999V0201705N003150365849N008000599+01395+00285101425ADDAA101000095GD14994+9999999GD20994+9999999GD30994+9999999GD40994+9999999GF108085999999999999999999MA1999999100815MW1045EQDN01 08200JPWTH 1QNNE11 1 00699E11 1 00099E11 1 00099E11 1 00099G11 1 00120K11 1 00037L11 1 00500M11 1 29770N11 1 08200Q11 1 10142S11 1 00057V11 1 01010X11 1 17006
0073264350999991969020221004+56617+025417FM-12+999999999V0209999900411003001CN0060001N9+00001-00111100121ADDAY121999GA1089+003009079GF108991081061004501999999MD1710161+9999MW1101
0029742060242071969092516004+47150-122483SAO  +0098TCM  V0202201N003110180019N0321871N9+01281+01051999999ADDGF108991999999999999999999
0097104380999991969070718004+51317+009483FM-12+015899999V0202301N00571012001CN0300001N9+01281+00781101011ADDAA199000391AY121061GA1079+012009059GF108991071051012501999999KA1999M+01891MD1110141+9999MW1021
028099999913877196904182000E+36483-082400SAO  +0459TRI  V0202705N005252200059N024000599+02065+01725099785ADDAA101003095GD12994+9999999GD22994+9999999GD32994+9999999GD40994+9999999GF104035999999999999999999MA1999999094515EQDN01 00000JPWTH 1QNNE11 1 00299E11 1 00299E11 1 00299E11 1 00099G11U1 99999K11 1 00063L11 1 01500M11 1 27910N11 1 00000Q11 1 09978S11 1 00069V11 1 00504X11 1 27010
0057299250999991969061315004+52833+080950FM-12+016899999V0201801N00621024001CN0500001N9+02001+00611101111ADDAY121999GF106991061001999999031021MD1710151+9999MW1021
0329999999617051969071609005-14333-170717SAO  +000399999V0201305N007750182949N011200599+02505+02445101025ADDGA1999+003354084GA2999+018294044GD12034+9999999GD24084+9999999GD30994+9999999GD40994+9999999GF108085999999999999999999MA1999999101025MW1635EQDN01 02100JPWTH 1QNNE11 1 00204E11 1 00610E11 1 00099E11 1 00099G11 1 00060H11 1 11011H11 1 21060K11 1 00076L11 1 00700M11 1 29830N11 1 02100Q11 1 10102S11 1 00077V11 1 01010X11 1 13015
0081217330999991969080712004+72833+141167FM-12+999999999V0202001N00211007801CN0500001N9+00781+00501101101ADDAA199000091AY121999GF108991081051008001999999KA1999M+01281MD1210151+9999MW1021
0057296050999991969111906004+55200+075967FM-12+011299999V0202701N00411220001CN0090001N9-00391-00781103111ADDAY111999GF100991001001999999001001MD1210151+9999MW1101
0009107280999991969071419004+49567-008467FM-15+0102EDOR V0200501N002119999999N0112001N9+02351+01351999999ADDMW1001
0072471530999991969101523004+35183+128933FM-15+0004RKPK V0209991C00001220001CN0064001N9+01521+01521999999ADDGA1029+009009999GA2019+009009059GA3049+030009049MA1999999101461MW1441
0081309350999991969100812004+50367+108750FM-12+077099999V0209991C00001220001CN0500001N9+00111-00391102791ADDAA199000091AY101999GF100991001001999999001001KA1999M+01001MD1710061+9999MW1021
0057314180999991969120618004+52283+135800FM-12+020199999V0209991C00001220001CN0700001N9-02001-02281101961ADDAY171999GF100991001001999999001001MD1310011+9999MW1011
038899999993729196906020900E+35267-075550SAO  +0002HAT  V0201805N003152200059N011200599+02065+02005101305ADDAA101000095GA1999+036584034GA2999+999999999GA3999+999999999GA4999+999999999GD12024+9999999GD20004+9999999GD30004+9999999GD40004+9999999GF102025999999999999999999MA1999999101255EQDN01 00000JPWTH 1QNNE11 1 00202E11 1 00000E11 1 00000E11 1 00000G11U1 99999H11 1 23120H11 1 00999H11 1 00999H11 1 00999K11 1 00068L11 1 00700M11 1 29900N11 1 00000Q11 1 10130S11 1 00069V11 1 00202X11 1 18006
0025035953999991969021807004+52083+001400FM-15+0030EGVG V0203301N00211018001CN0099001N9-00091-00311999999ADDGA1089+018009059MW1051
0085471571999991969041722004+35133+128700FM-15+0001RKPE V0209991C000012200019N0080001N1+00801+00581999999ADDGA1029+060009029GF102991999999999999999999MA1999999101861MW1441EQDQ01+000452PRSWM2
0106260780999991969021706004+59350+031267FM-12+004099999V0201401N00211220001CN0200001N9-01001-02221103281ADDAA199000091AY101999GF100991001001999999001001HL10009IA1319IA2999-01509KA1999N-01001MD1310201+9999MW1021
0083107120999991969052812004+49500-007867FM-15+0321EDAS V0202701N00151030001CN0112001N9+01801+00911999999ADDAA124999929GA1029+009009089GA2019+015009059GA3059+030009039MA1999999097561MW1001
0291743920146111969081722003+43900-069933SAO  +0021NHZ  V0202505N005252200059N0096005N1+02945+01725100505ADDGD12994+9999999GD24994+9999993GD30994+9999999GD40994+9999999GF108035999999999999999999MA1999999100245MW1055EQDQ01    003PRSWM1N01 08100JPWTH 1QNNE11 1 00299E11 1 00599E11 1 00099E11 1 00099G11U1 99999K11 1 00063L11 1 00600M11 1 29600N11 1 08100Q11 1 10050S11 1 00085V11 1 01004X11 1 25010
0092369820999991969060118004+41917+078233FM-12+361599999V0209991C00001002401CN9999999N9-00111-00111999999ADDAA106031091AA299008091AY181999GF108991081091002501999999KA1999M+00611MD1210021+9999MW1851
0057353450999991969022618004+49767+061050FM-12+999999999V0200501N00511220001CN0500001N9-01891-02111104041ADDAY111999GF107991001001999999001061MD1210151+9999MW1021
0079256560999991969010600004+63417+173000FM-12+999999999V0201601N00311030001CN0110001N9-01391-01501101471ADDAA106001091AA299000391AY171999GF108991041051008001011999MD1710251+9999MW1711
0009749475999991969032611004+32883-106350SAO  +120699999V0209991C000019999999N0000001N1+99999+99999999999ADDMW1001
0269999999947451969070604005+41067-073717SAO  +0122HPN  V0203305N001550228649N014400599+02505+02005101195ADDGD13994+9999999GD20994+9999999GD30994+9999999GD40994+9999999GF107075999999999999999999MA1999999099595EQDN01 00000JPWTH 1QNNE11 1 00499E11 1 00099E11 1 00099E11 1 00099G11 1 00075K11 1 00068L11 1 00900M11 1 29410N11 1 00000Q11 1 10119S11 1 00077V11 1 00909X11 1 33003
038899999914860196904241800E+42083-080183SAO  +0223ERI  V0202905N004652200059N024000599+00835+00065101555ADDAA101000095GA1999+999999084GA2999+012194064GA3999+999999999GA4999+999999999GD12004+9999999GD20014+9999999GD30004+9999999GD40004+9999999GF101015999999999999999999MA1999999098855EQDN01 00000JPWTH 1QNNE11 1 00200E11 1 00001E11 1 00000E11 1 00000G11U1 99999H11 1 11999H11 1 15040H11 1 00999H11 1 00999K11 1 00033L11 1 01500M11 1 29190N11 1 00000Q11 1 10155S11 1 00047V11 1 00101X11 1 29009
0050747910137171969041521004+33683-078933SAO  +0008MYR  V0201101N002110450019N0112001N9+02181+01691102141ADDGF108991999999999999999999MA1999999102031MW1001
0269999999231531969061815005+38067-117083SAO  +1654TPH  V0203505N002652200059N064000599+01335+00895101575ADDGD11994+9999993GD20994+9999999GD30994+9999999GD40994+9999999GF101005999999999999999999MA1999999083585EQDN01 00000JPWTH 1QNNE11 1 00199E11 1 00099E11 1 00099E11 1 00099G11U1 99999K11 1 00048L11 1 04000M11 1 24680N11 1 00000Q11 1 10157S11 1 00056V11 1 00100X11 1 35005
0057316240999991969030303004+49400+133233FM-12+019899999V0200901N00101220001CN0700001N9-01282-02221102321ADDAY121999GF107991001001999999001081MD1810161+9999MW1021
039472306013722196904220300C+35867-078783SAO  +0132RDU  V0201805N004152200059N0240005N1+01175+00505101305ADDAA101000095GA1049+220009004GA2999+999999999GA3999+999999999GA4999+999999999GD12044+9999999GD20004+9999999GD30004+9999999GD40004+9999999GF104025999999999999999999MA1999999099705MW1001EQDN01 00000JPWTH 1QNNE11 1 00205E11 1 00000E11 1 00000E11 1 00000G11U1 99999H11C1 32999H11 1 00999H11 1 00999H11 1 00999K11 1 00041L11 1 01500M11 1 29440N11 1 00000Q11 1 10130S11 1 00053V11 1 00503X11 1 18008
0057442770999991969101900004+46400+096250FM-12+214899999V0202701N00981012301CN0500001N9-00111-00721101281ADDAY121999GF106991061041012501001001MD1410001+9999MW1031
0035726225047421969112708004+44650-073450SAO  +0075PBG  V0209991C000012200019N0240001N9-00331-00611999999ADDGF102991999999999999999999MW1001
0123246560999991969090900004+63517+129433FM-12+007999999V0200501N00211220001CN0200001N9+00891-00391101201ADDAA199000091AJ100009199999999AY111999GF101991001001999999001011HL10009IA1009IA2999+00119KA1999N+00391MD1710021+9999MW1011
0057360450999991969010209004+51950+083783FM-12+999999999V0209991C00001220001CN0200001N9-03501-03781999999ADDAY121999GF108991001001999999001011MD1210081+9999MW1021
0081313710999991969032612004+52783+126000FM-12+021299999V0203401N00821220001CN0500001N9-00891-02001101931ADDAA199000091AY101999GF102991001001999999001011KA1999M-00611MD1210451+9999MW1021
0057360960999991969082709004+51667+094383FM-12+999999999V0202301N00101220001CN0100001N9+01781+00391101541ADDAY101999GF102991021001999999031011MD1710121+9999MW1021
0092311680999991969062809004+56450+138650FM-12+000999999V0200501N01591002401CN0040001N9+00391+00281101161ADDAA106055091AA299014091AY161999GF108991071071002501021999KA1999M+00391MD1210191+9999MW1651
0035702120266331969062517004+61783-166033SAO  +0142PACZ V0202901N002110033019N0112001N9+00631+00351999999ADDGF108991999999999999999999MW1001
028099999914745196912260300E+43200-071500SAO  +0104CON  V0203505N002150243849N016000599-01065-01175102875ADDAA101000095GD14994+9999999GD20994+9999999GD30994+9999999GD40994+9999999GF108085999999999999999999MA1999999101495EQDN01 00000JPWTH 1QNNE11 1 00699E11 1 00099E11 1 00099E11 1 00099G11 1 00080K11 1 00011L11 1 01000M11 1 29970N11 1 00000Q11 1 10287S11 1 00013V11 1 01010X11 1 35004
0269999999242301969090321005+44267-121150SAO  +0934RDM  V0202705N003152200059N072000599+01725-00285101785ADDGD10994+9999999GD20994+9999999GD30994+9999999GD40994+9999999GF100005999999999999999999MA1999999090995EQDN01 00000JPWTH 1QNNE11 1 00099E11 1 00099E11 1 00099E11 1 00099G11U1 99999K11 1 00027L11 1 04500M11 1 26870N11 1 00000Q11 1 10178S11 1 00063V11 1 00000X11 1 27006
0124309440999991969041112004+50567+110417FM-12+999999999V0201101N00211003001CN0100001N9+00111+00111100801ADDAY161999GA1099+003009039GF109991091001999999071999MD1210121+9999MW1401EQDQ01+000082SCOTCVQ02+000082SCOTLCQ03+000992SCOLCB
0057310160999991969121318004+58467+128500FM-12+999999999V0202701N00101220001CN0060001N9-04001-04281103131ADDAY171999GF107991001001999999001021MD1210041+9999MW1711
0114270370999991969052212004+59283+039867FM-12+011899999V0203401N00821004201CN0020001N9+00111-00111099851ADDAA106012091AA299003091AY171999GA1089+004209079GF108991999071004501021999MD1210281+9999MW1681EQDQ01+000082SCOTLC
0064488910999991969030110004+11267+106317FM-15+001699999V0201901N006212200019N0112001N1+03181+01911999999ADDGA1039+090009009GF102991999999999999999999EQDQ01+000000PRSWM2
0081319210999991969072309004+44717+132067FM-12+007599999V0209991C00001090001CN0200001N9+03001+02501100311ADDAA199000091AY191999GF107991031021012501001021KA1999M+03221MD1710011+9999MW1021
0269999999130251969042608005+36650-006350SAO  +0027LERT V0202105N001550045749N011200599+01675+01335101655ADDGD13994+9999999GD24994+9999999GD30994+9999999GD40994+9999999GF108085999999999999999999MA1999999101295EQDN01 00000JPWTH 1QNNE11 1 00499E11 1 00699E11 1 00099E11 1 00099G11 1 00015K11 1 00056L11 1 00700M11 1 29910N11 1 00000Q11 1 10165S11 1 00062V11 1 01010X11 1 21003
0269999999038531969123122005+30400-081417SAO  +0005NRB  V0200505N002650061049N011200599+01615+01115101575ADDGD13994+9999999GD24994+9999999GD30994+9999999GD40994+9999999GF108085999999999999999999MA1999999101525EQDN01 00000JPWTH 1QNNE11 1 00499E11 1 00699E11 1 00099E11 1 00099G11 1 00020K11 1 00052L11 1 00700M11 1 29980N11 1 00000Q11 1 10157S11 1 00061V11 1 01010X11 1 05005
0040471580999991969040319004+35117+126817FM-15+0013RKJJ V0203301N00721007501CN0024001N9+01021+01021999999ADDGA1089+007509059MA1999999101081MW1631
0383999999937271969062412005+34700-077383SAO  +0005NCA  V0202405N004152200059N008000599+02615+02445101355ADDGA1999+009144084GA2999+999999999GA3999+999999999GA4999+999999999GD12024+9999999GD20004+9999999GD30004+9999999GD40004+9999999GF102025999999999999999999MA1999999101225MW1055EQDN01 08100JPWTH 1QNNE11 1 00202E11 1 00000E11 1 00000E11 1 00000G11U1 99999H11 1 11030H11 1 00999H11 1 00999H11 1 00999K11 1 00076L11 1 00500M11 1 29890N11 1 08100Q11 1 10135S11 1 00079V11 1 00202X11 1 24008
0057293760999991969073109004+57417+094833FM-12+999999999V0203201N00101075001CN0500001N9+03001+02001100061ADDAY121999GF108991021031008001001071MD1710031+9999MW1021
0050718070999991969031609004+47300-054000SAO  +0016CYAR V0200401N005110075019N0160001N1-00041-00651101151ADDGF108991999999999999999999MA1999999100951MW1001
0057219210999991969101106004+70683+127400FM-12+003099999V0201801N00211220001CN0500001N9-01501-01891101531ADDAY171999GF102991001001999999001011MD1810101+9999MW1011
0195999999232931969090507005+37367-121917SAO  +0016SJC  V0203405N001552200049N016000599+01565+01225999999ADDGD10994+9999999GD20994+9999999GD30994+9999999GD40994+9999999EQDN01 00000JPWTH 1QNNE11 1 00099E11 1 00099E11 1 00099E11 1 00099G11U1 99999K11 1 00054L11 1 01000N11 1 00000S11 1 00060X11 1 34003
0057239250999991969042606004+60400+063133FM-12+006899999V0202501N00511075001CN0200001N9+01501+01221101341ADDAY121999GF108991021001999999031071MD1710081+9999MW1021
0057270660999991969061409004+59533+045450FM-12+013699999V0203601N00311012301CN0500001N9+01221-00111101001ADDAY111999GF106991061021012501001001MD1210131+9999MW1021
0073355760999991969040509004+48300+069483FM-12+036199999V0200501N00721003901CN0200001N9+00391+00001103331ADDAY121999GA1089+003909059GF108991081051004501999999MD1810021+9999MW1021
0044723930999991969082112004+34717-120567SAO  +0112VBG  V0203401N001510003019N0001001N9+01171+01051101251ADDGF108991999999999999999999MA1999999099901
0275702670264151969123015003+64000-145733SAO  +0389BIG  V0201105N004152200059N0240005N1-00285-00725099305ADDGD12994+9999999GD24994+9999999GD30994+9999999GD40994+9999999GF108055999999999999999999MA1999999094585MW1001EQDN01 00000JPWTH 1QNNE11 1 00299E11 1 00699E11 1 00099E11 1 00099G11C1 99999K11 1 00019L11 1 01500M11 1 27930N11 1 00000Q11 1 09930S11 1 00027V11 1 01006X11 1 11008
0108259540999991969061812004+60350+166000FM-12+999999999V0203201N00721017501CN0500001N9+00781+00501100511ADDAA106075091AA224999999AY161999GA1089+017509059GF108991081051017501999999KA1999M+01501MD1110051+9999MW1601
0057295830999991969032415004+56100+097150FM-12+033899999V0202701N01591024001CN0040001N9-00891-01391101241ADDAY131999GF105991051001999999041001MD1210551+9999MW1391
0092249880999991969071009004+60083+142333FM-12+019899999V0209991C00001002401CN0100001N9+01111+01001100231ADDAA106024091AA299006091AY151999GF108991081061002501999999KA1999M+01111MD1310021+9999MW1021
036799999925309196912301200E+58367-134583SAO  +0006JNU  V0201205N007250076249N012800599+00395+00335100985ADDAA101000395GA1999+003054134GA2999+007624064GA3999+010674064GD12024+9999999GD23064+9999999GD34054+9999999GD40994+9999999GF108085999999999999999999MA1999999100915MW1805EQDN01 02300JPWTH 1QNNE11 1 00202E11 1 00408E11 1 00606E11 1 00099G11 1 00025H11 1 13010H11 1 15025H11 1 15035K11 1 00038L11 1 00800M11 1 29800N11 1 02300Q11 1 10098S11 1 00039V11 1 01010X11 1 12014
0077035963999991969110214004+52133+001433FM-15+0028EGVJ V0202501N00621084001CN0112001N9+01831+01111999999ADDGA1019+003909059GA2029+024009039GA3079+084009009GF107991999999999999999999
0050745980137021969072503004+37083-076350SAO  +0003LFI  V0201101N004610048019N0144001N9+02281+02111101321ADDGF108991999999999999999999MA1999999101251MW1001
0377999999047691969111919005+42417-071483SAO  +006399999V0201305N001550152449N011200599+01005+00445102185ADDGA1999+015244064GA2999+030484044GA3999+999999024GA4999+999999999GD13054+9999999GD23024+9999999GD34014+9999999GD40004+9999999GF108075999999999999999999MA1999999101425EQDN01 00000JPWTH 1QNNE11 1 00406E11 1 00403E11 1 00601E11 1 00000G11 1 00050H11 1 15050H11 1 21100H11C1 37999H11 1 00999K11 1 00040L11 1 00700M11 1 29950N11 1 00000Q11 1 10218S11 1 00050V11 1 01009X11 1 13003
0079388800999991969100900004+37967+058333FM-12+023099999V0203201N00511004501CN0040001N9+01281+01221102951ADDAA106075091AA224999999AY181999GF108991081091004501999999MD1210231+9999MW1801
0323999999266271969120415005+63883-160800SAO  +0006UNK  V0200905N007250243849N016000599-00835-01285100345ADDGA1999+009144064GA2999+024384034GD12024+9999999GD24064+9999999GD30994+9999999GD40994+9999999GF108085999999999999999999MA1999999100275EQDN01 00000JPWTH 1QNNE11 1 00203E11 1 00607E11 1 00099E11 1 00099G11 1 00080H11 1 15030H11 1 23080K11 1 00009L11 1 01000M11 1 29610N11 1 00000Q11 1 10034S11 1 00017V11 1 01010X11 1 09014
0041107120999991969072605004+49500-007867FM-15+0321EDAS V0202701N00261060001CN0064001N9+01851+01631999999ADDGA1049+009009059GA2089+060009029MW1451
0073249230999991969092909004+60717+114883FM-12+016899999V0202701N00311009001CN0500001N9+00281+00001103111ADDAY121999GA1079+009009089GF107991071051008001001001MD1710101+9999MW1021
0035702650999991969110705004+64683-147083SAO  +0167PAEI V0209991C000010114019N0112651N9-00941-01171999999ADDGF108991999999999999999999MW1711
0057108520999991969110203004+48383+010850FM-12+047799999V0201901N00101220001CN0080001N9+00501+00281102321ADDAY101031GF100991001001999999001001MD1810051+9999MW1101
0057236250999991969082406004+63650+061817FM-12+004599999V0201101N00311000151CN0011001N9+01281+01001101531ADDAY161999GF109991091999000251999999MD1210101+9999MW1451
0377999999416061969102706005+19283+166650SAO  +0004PWAK V0201105N005752200059N024000599+02835+02335101175ADDGA1999+005494084GA2999+999999024GA3999+999999999GA4999+999999999GD12034+9999999GD22014+9999999GD30004+9999999GD40004+9999999GF103035999999999999999999MA1999999101155EQDN01 00000JPWTH 1QNNE11 1 00204E11 1 00201E11 1 00000E11 1 00000G11U1 99999H11 1 11018H11C1 37999H11 1 00999H11 1 00999K11 1 00074L11 1 01500M11 1 29870N11 1 00000Q11 1 10117S11 1 00083V11 1 00404X11 1 11011
0057313880999991969073121004+52333+129917FM-12+020799999V0209991C00001075001CN0500001N9+01501+01391100231ADDAY121999GF107991031001999999041021MD1810111+9999MW1021
0111489130999991969061003004+09600+105967FM-15+0005VVBX V0202101N002610240019N0112001N1+03131+02521999999ADDGA1019+007509089GA2069+024009039GA3089+090009029GF108991999999999999999999MA1999999101051EQDQ01+000000PRSWM2
005394999900158196911292300N-24830+149800AUST +0155     V0200905N002659999999N999999999+02835+99999999999ADDAY144999GA1005+999999999GF100995004999999999999999
006172734514847196910020900A+46250-084467SAO  +0247INR  V0201401N004612200019N0032001N1+01351+01241100501ADDAA101000095GF102991999999999999999999MA1999999097561MW1111
0134360030999991969102503004+52283+076950FM-12+014699999V0201601N00101024001CN0400001N9+00501+00281101251ADDAA106075091AA224999999AJ100009199999999AY121999GF107991061001999999031011HL10009IA1089IA2999+00229KA1999N+00281MD1710101+9999MW1011
0025106420999991969051902004+50167+008950FM-15+0115EDID V0202501N00211009001CN0112001N9+00691+00581999999ADDGA1069+009009059MW1001
0041725335999991969110101004+40650-086150SAO  +0248GUS  V0201601N005110060019N0048001N9+01051+00831999999ADDGF108991999999999999999999MW1111MW2611
0051471220999991969011922004+37100-127033FM-15+0014RKSO V0209991C00001000301CN0001001N9-00171-00281999999ADDGA1099+000309999GF109991999999999999999999MW1451
0269999999149401969011403005+43150-093333SAO  +0367MCW  V0201105N006250243849N016000599-00675-01285103035ADDGD14994+9999999GD20994+9999999GD30994+9999999GD40994+9999999GF108085999999999999999999MA1999999098345EQDN01 00000JPWTH 1QNNE11 1 00699E11 1 00099E11 1 00099E11 1 00099G11 1 00080K11 1 00009L11 1 01000M11 1 29040N11 1 00000Q11 1 10303S11 1 00020V11 1 01010X11 1 11012
0275999999937201969030923005+38333-075517SAO  +0021SBY  V0203505N003150061049N004800599-00065-00225099735ADDGD13994+9999999GD24994+9999999GD30994+9999999GD40994+9999999GF108085999999999999999999MA1999999099495MW1055EQDN01 08100JPWTH 1QNNE11 1 00499E11 1 00699E11 1 00099E11 1 00099G11 1 00020K11 1 00028L11 1 00300M11 1 29380N11 1 08100Q11 1 09973S11 1 00031V11 1 01010X11 1 35006
0019620111999991969042216004+32900+013283FM-15+0013HTIP V0203101N00361220001CN0112001N9+01801+01301999999ADDGA1029+004209059
0050722436129061969073121004+29617-095167SAO  +0012EFD  V0201201N001010420019N0240001N9+03241+02241101341ADDGF108991999999999999999999MA1999999101191MW1001
0108236060999991969091718004+63567+053717FM-12+014999999V0200701N00311030001CN0100001N9+00221-00221102211ADDAA106075091AA224999999AY121999GA1049+999999059GF107991041051017501031001KA1999M+00501MD1810011+9999MW1031
0058704140999991969101105004+52717+174100SAO  +0031PASY V0203401N008210099019N0240001N9+00391+00061100001ADDGF107991999999999999999999MA1099971099631MW1001OC101131
0057312570999991969071706004+54333+127633FM-12+027299999V0209991C00001030001CN0500001N9+02611+01721100341ADDAY121999GF106991031091012501061001MD1710101+9999MW1031
0111488970999991969110718004+11967+109233FM-15+0011VVCR V0203401N005110105019N0112001N1+02411+02021999999ADDGA1019+004509079GA2059+010509059GA3059+021009049GF107991999999999999999999MA1999999101081EQDQ01+000000PRSWM2
0057295810999991969040421004+56200+095683FM-12+020499999V0201401N00511024001CN0200001N9-00111-00281101671ADDAY121999GF108991081001999999021999MD1710611+9999MW1021
0171690020932181969103021003+36000-121233SAO  +0317HGT  V0201005N002152200059N0240005N1+02505+00505101745ADDGF100005999999999999999999MA1999999098045MW1001EQDN01 00000JPWTH 1QNNG11U1 99999K11 1 00041L11 1 01500M11 1 28950N11 1 00000Q11 1 10174S11 1 00077V11 1 00000X11 1 10004
0102804030999991969040300004+11417-069667FM-12+002199999V0200901N00571078001CN0200001N9+02781+02281100881ADDAY121999GA1999+006909019GA2069+078009089GF108991011051008001001071KA1999M+03391MD1310101+9999MW1021
0081442310999991969021312004+49633+100167FM-12+128899999V0203201N00101220001CN0500001N9-02221-03001104131ADDAA199000091AY101999GF100991001001999999001001KA1999M-01781MD1710051+9999MW1021
0029747240231681969072217004+32933-112700SAO  +0261GBN  V0202301N004112200019N0480001N9+03741+01741999999ADDGF108991999999999999999999
0184999999274051969121422005+70250-148333SAO  +001499999V0203405N001052200049N016000599-02335+99999999999ADDGD12994+9999999GD22994+9999999GD30994+9999999GD40994+9999999EQDN01 00000JPWTH 1QNNE11 1 00299E11 1 00299E11 1 00099E11 1 00099G11U1 99999L11 1 01000N11 1 00000S11 1-00010X11 1 34002
0082716280999991969060405004+45317-075667SAO  +0126CYOW V0202251N003110144019N0240001N1+01071+00741100961ADDGA1039+008409059GA2059+014409059GF108991999999999999999999MA1999999099461MW1001
0057361040999991969060718004+51500+095517FM-12+999999999V0209991C00001220001CN0500001N9+00611+00221101751ADDAY111999GF102991021051008001001001MD1210161+9999MW1021
0068387630999991969110100004+38983+056283FM-12+009799999V0200901N00101220001CN0500001N9+00391+00221101641ADDAA199000091AY101999GF100991001001999999001001MD1710051+9999MW1021
0057290750999991969062715004+59667+093433FM-12+999999999V0209991C000019999999N0500001N9+01611+00501101111ADDAY121999GF105991021001999999031011MD1210071+9999MW1021
