010694999900191197002100200N-31970+141450AUST +0305     V0202705N004659999999N999999999+03185+00905999999ADDAY104999GA1005+999999999GA2005+999999999GA3015+999999999GF101995004999999999999015MA1999999098035MW1035
0269999999947451970100223005+41067-073717SAO  +0122HPN  V0201605N002152200059N016000599+01674+01115101124ADDGD12995+9999999GD22995+9999999GD30995+9999999GD40995+9999999GF102025999999999999999999MA1999999099534EQDN01 00000JPWTH 1QNNE11 1 00299E11 1 00299E11 1 00099E11 1 00099G11U1 99999K11 1 00052L11 1 01000M11 1 29390N11 1 00000Q11 1 10112S11 1 00062V11 1 00303X11 1 16004
0057166650999991970060312004+39217+022800FM-12+001599999V0201201N00361036001CN0080001N9+02001+01111101421ADDAY121999GF107991031021008001021001MD1810041+9999MW1021
0080488896999991970021907004+11633+108950FM-15+0034VVPA V0201301N006712200019N0112001N1+02961+02131999999ADDGA1011+015009059GA2011+030009039GF102991999999999999999999EQDQ01+000000PRSWM2
0035724810232031970083122004+37367-120567SAO  +0060MER  V0203201N003112200019N0640001N9+03241+01131999999ADDGF100991999999999999999999MW1001
0102106550999991970022106004+49800+009900FM-12+025999999V0202201N00821075001CN0220001N9+00221-00111101191ADDAY111061GA1031+006909059GA2051+075009009GF106991031051008001001011KA1999N+00221MD1710131+9999MW1031
0035724505039231970082410004+37617-097267SAO  +0418IAB  V0200701N001012200019N0240001N9+01691+01191999999ADDGF100991999999999999999999MW1001
0296999999138831970032818005+33983-081000SAO  +006999999V0200905N003650085349N024000599+01675+00335102015ADDGA1999+008534064GD14085+9999999GD20995+9999999GD30995+9999999GD40995+9999999GF108085999999999999999999MA1999999101195EQDN01 00000JPWTH 1QNNE11 1 00610E11 1 00099E11 1 00099E11 1 00099G11 1 00028H11 1 15028K11 1 00038L11 1 01500M11 1 29880N11 1 00000Q11 1 10201S11 1 00062V11 1 01010X11 1 09007
0057250440999991970100215004+69517+166667FM-12+999999999V0201601N00411024001CN0500001N9-00391-00501100991ADDAY121999GF105991051001999999031001MD1710021+9999MW1021
0035726071146061970122913004+44800-068833SAO  +0059BGR  V0203301N004110120019N0320001N9-01031-01481999999ADDGF108991999999999999999999MW1001
0059263890999991970010900004+57133+033117FM-12+021799999V0200501N00821004501CN0017001N9-00781-01111101401ADDAY171999GA1081+004509049GF108991081001004501999999MW1731
0123258160999991970061000004+61567+156900FM-12+999999999V0209991C00001004501CN0500001N9+00781+00501101341ADDAA199000091AJ100009199999999AY121999GF108991081061004501999999HL10009IA1009IA2999+00619KA1999N+00391MD1710081+9999MW1021
0083488676999991970090914004+13950+109050FM-15+0034VVPU V0200701N001510300019N0112001N1+02521+02181999999ADDGA1011+009009059GA2061+030009049GA3021+090009029GF108991999999999999999999MW1611
0098268530999991970071506004+53833+028817FM-12+016999999V0202001N00311220001CN0080001N9+02001+01611099941ADDAA106031091AA299008091AY191999GF102991001999999999001021MD1710832+9999MW1101EQDQ01+000832APC3  
0102999999241931970070600005+40717-114033SAO  +1293ENV  V02099999999999999999N999999999+03225+00285101275ADDGF108995999999999999999999MA1999999087105QNNK11 1 00037M11 1 25720Q11 1 10127S11 1 00090V11 1 01099
0043293760999991970091315004+57417+094833FM-12+999999999V0209991C00001220001CN0200001N9+00781+00611102031ADDAY121999GF108991001001999999001071MW1021
0081322930999991970122712004+57783+158700FM-12+999999999V0209991C00001220001CN0200001N9-03281-03501101401ADDAA199000091AY101999GF100991001001999999001001KA1999M-02611MD1710021+9999MW1021
0057308490999991970113021004+51033+111650FM-12+999999999V0209991C00001220001CN0500001N9-03111-03501103251ADDAY101999GF100991001001999999001001MD1210131+9999MW1021
0068386870999991970032700004+39083+063600FM-12+019399999V0200501N00311220001CN0100001N9+00501+00111102711ADDAA199000091AY101999GF100991001001999999001001MD1710051+9999MW1021
0057321450999991970062018004+46667+141867FM-12+000699999V0201801N00411007801CN0200001N9+01221+01001100581ADDAY181999GF106991061051008001001001MD1710031+9999MW1011
010694203099999197006160700N-17950+122230AUST +0009YBRM V0201135N004659999999N999999999+03275+00905999999ADDAY124999GA1005+999999999GA2005+999999999GA3035+999999999GF103995004999999999999015MA1999999101215MW1025
0081343730999991970060406004+50050+046883FM-12+003699999V0203401N99999007801CN0200001N9+99999+99999101841ADDAA199000091AY121999GF108991081031008001999999KA1999N+01611MD1410001+9999MW1021
0108228920999991970012718004+60717+028800FM-12+001599999V0200201N00211003001CN0048001N9-00781-01001101501ADDAA106004091AA299001091AY171999GA1081+003009079GF108991081061004501999999KA1999M-00611MD1710031+9999MW1101
0035724505039231970052905004+37617-097267SAO  +0418IAB  V0201101N002112200019N0160001N9+01741+01461999999ADDGF102991999999999999999999MW1001
0076271130999991970032403004+59117+037933FM-12+013199999V0202301N00101001501CN0080001N9-00391+99999101581ADDAY141999GF108991051051001501001021MD1610161+9999MW1481EQDQ01+023543ATOD  
0232999999146011970091114005+44800-068817SAO  +0052BGR  V0203305N007752200059N032000599+01785+00835999999ADDGD12995+9999999GD22995+9999999GD33995+9999993GD40995+9999999GF105995999999999999999999EQDN01 00000JPWTH 1QNNE11 1 00299E11 1 00299E11 1 00399E11 1 00099G11U1 99999K11 1 00047L11 1 02000N11 1 00000S11 1 00064V11 1 00699X11 1 33015
0057368700999991970090309004+43233+076933FM-12+084799999V0202701N00211090001CN0090001N9+02891+00281100411ADDAY111999GF105991031021017501001021MD1410001+9999MW1051
0095282250999991970120212004+58017+056300FM-12+016199999V0202701N00621003601CN0150001N9-01221-01501101321ADDAA106001091AA299000391AY181999GA1051+003609099GF107991051091004501031001MD1210211+9999MW1851
0041747950128671970032617004+28233-080600SAO  +0003COF  V0202601N002610048019N0080001N9+02021+02021999999ADDGF108991999999999999999999MW1451MW2611
0057306030999991970112115004+53933+102050FM-12+045899999V0209991C00001220001CN0100001N9-01111-01721103251ADDAY111999GF100991001001999999001001MD1410001+9999MW1011
0057298360999991970091403004+53567+084367FM-12+999999999V0200501N00311220001CN0200001N9+01391+00611101761ADDAY101999GF100991001001999999001001MD1210031+9999MW1021
0073162890999991970083015004+40850+014300FM-12+007299999V0201801N00671220001CN0080001N9+02611+02111101401ADDAY111999GA1041+006009089GF105991041021008001001031MD1710131+9999MW1101
0057295810999991970020321004+56200+095683FM-12+020499999V0202701N00411012301CN0100001N9-00781-01001102571ADDAY171999GF108991081051012501999999MD1210121+9999MW1221
037399999914840197007290600E+43167-086233SAO  +0190MKG  V0202705N003650182949N011200599+02225+02005101785ADDAA101000095GA1999+009144094GA2999+018294064GA3999+030484034GD12025+9999999GD23045+9999999GD34025+9999999GD40995+9999999GF108085999999999999999999MA1999999099535MW1805MW2955EQDN01 01023JPWTH 1QNNE11 1 00202E11 1 00405E11 1 00603E11 1 00099G11 1 00060H11 1 18030H11 1 15060H11 1 23100K11 1 00068L11 1 00700M11 1 29390N11 1 01023Q11 1 10178S11 1 00072V11 1 01010X11 1 27007
0057257440999991970011406004+62483+166217FM-12+999999999V0200501N00981220001CN0500001N9-01501-02001104001ADDAY101999GF100991001001999999001001MD1310081+9999MW1021
0035723865231121970050516004+36250-115033SAO  +0570LSV  V0209991C000012200019N0560001N9+02301-00531999999ADDGF108991999999999999999999MW1001
028099999924011197002050700E+46767-100750SAO  +050299999V0202905N004152200059N024000599-00565-00945101355ADDAA101000095GD11995+9999993GD20995+9999999GD30995+9999999GD40995+9999999GF102005999999999999999999MA1999999095195EQDN01 00000JPWTH 1QNNE11 1 00199E11 1 00099E11 1 00099E11 1 00099G11U1 99999K11 1 00015L11 1 01500M11 1 28110N11 1 00000Q11 1 10135S11 1 00022V11 1 00200X11 1 29008
0057308440999991970051209004+51350+110500FM-12+080199999V0202901N01181075001CN0500001N9+02111-00221100271ADDAY121999GF108991031031012501001071MD1310031+9999MW1021
0073236060999991970112503004+63567+053717FM-12+014999999V0202301N00311001501CN0100001N9-00721-00781103161ADDAY121999GA1081+001509079GF108991081061001501999999MD1710061+9999MW1021
0238722265138211970031513003+32383-086350SAO  +0053MXF  V0202905N001552200059N0096005N9+00335-00225999999ADDGD10995+9999999GD20995+9999999GD30995+9999999GD40995+9999999GF100995999999999999999999MW1045EQDN01 08200JPWTH 1QNNE11 1 00099E11 1 00099E11 1 00099E11 1 00099G11U1 99999K11 1 00028L11 1 00600N11 1 08200S11 1 00038V11 1 00099X11 1 29003
0083106070999991970042416004+49967+006700FM-15+0365EDAD V0202601N00721024001CN0112001N9+01221+00831999999ADDGA1011+007509059GA2031+012009059GA3081+024009039GF108991999999999999999999MW1001
0050727435999991970110115004+46350-087400SAO  +0375SAW  V0201801N005110120019N0160001N9+00171-00111101891ADDGF108991999999999999999999MA1999999097291MW1001
0057309250999991970021818004+50367+106450FM-12+078999999V0209991C00001220001CN0450001N9-02281-02721104661ADDAY121999GF107991001001999999001071MD1210021+9999MW1021
0057296050999991970100721004+55200+075967FM-12+011299999V0203201N00311007801CN0200001N9+00111+00001101691ADDAY161999GF108991081051008001999999MD1210071+9999MW1211
0009471204999991970050713004+37033+126750FM-15+0015RKSN V0202801N00151220001CN0112001N1+01411+01071999999ADDMW1001
0324746941137861970020712003+36267-076183SAO  +0004ECG  V0203505N004152200059N0064005N9+00065+00065103085ADDAA124000091GD13995+9999993GD23995+9999999GD30995+9999999GD40995+9999999GF107055999999999999999999KA1999M+00801KA2999N+00081MA1999999103055MW1055MW2111MW3445EQDN01 07281JPWTH 1QNNE11 1 00399E11 1 00499E11 1 00099E11 1 00099G11C1 99999K11 1 00033L11 1 00400M11 1 30430N11 1 07281Q11 1 10308S11 1 00033V11 1 00906X11 1 35008
0057293630999991970060218004+57633+092267FM-12+018499999V0203601N00311220001CN0500001N9+00721-00111101391ADDAY121999GF101991011041008001001001MD1010031+9999MW1011
0249999999938361970121905005+31250-081467SAO  +0009NEA  V02099959000052200059N000000599+00504+00505102314ADDGD10995+9999999GD20995+9999999GD30995+9999999GF106065999999999999999999MA1999999102204MW1455EQDN01 07000JPWTH 1QNNE11 1 00099E11 1 00099E11 1 00099G11U1 99999K11 1 00041L11 1 00000M11 1 30180N11 1 07000Q11 1 10231S11 1 00041V11 1 00808X11 1 00000
0067106370999991970061621004+50033+008567SAO  +0112EDDF V0201601N001010048019N0048001N9+01721+01611101361ADDGA1051+004809089GA2071+027009049GF108991999999999999999999MW1451
0057219210999991970122212004+70683+127400FM-12+003099999V0202301N00101220001CN0270001N9-03721-04001102081ADDAY171999GF106991001001999999081999MD1710041+9999MW1711
0275910660227011970080402003+28200-177383SAO  +0007PMDY V0200505N003652200059N0160005N1+02785+02175101985ADDGD12995+9999999GD22995+9999999GD30995+9999999GD40995+9999999GF104045999999999999999999MA1999999101865MW1001EQDN01 00000JPWTH 1QNNE11 1 00299E11 1 00299E11 1 00099E11 1 00099G11U1 99999K11 1 00071L11 1 01000M11 1 30080N11 1 00000Q11 1 10198S11 1 00082V11 1 00505X11 1 05007
008583583099999197011080000N-19850-043950BRAZ +0785SBBH V02009019999999999999N020000199+02211+01801100811ADDAA101000091GA1051+030001031GF105991999999999999999999MA1101351092271MD1310101+9999
0057356710999991970060809004+47800+067717FM-12+034599999V0202501N00871036001CN0200001N9+03001-00501099951ADDAY121999GF107991031021017501031011MD1710171+9999MW1021
0232723520139021970080516003+34650-099267SAO  +0414LTS  V0202305N005752200059N0400005N9+03065+02115999999ADDGD10995+9999999GD20995+9999999GD30995+9999999GD40995+9999999GF100995999999999999999999EQDN01 00000JPWTH 1QNNE11 1 00099E11 1 00099E11 1 00099E11 1 00099G11U1 99999K11 1 00070L11 1 02500N11 1 00000S11 1 00087V11 1 00099X11 1 23011
0269999999147931970011514005+40200-075150SAO  +0102NXX  V0203405N002152200059N016000599-01065-01615102685ADDGD13995+9999993GD20995+9999999GD30995+9999999GD40995+9999999GF106025999999999999999999MA1999999101225EQDN01 00000JPWTH 1QNNE11 1 00399E11 1 00099E11 1 00099E11 1 00099G11U1 99999K11 1 00003L11 1 01000M11 1 29890N11 1 00000Q11 1 10268S11 1 00013V11 1 00702X11 1 34004
028699999993815197010271600E+39900-084217SAO  +031399999V0201505N004152200059N004800599+01784+00895101934ADDAA101000095GD12995+9999999GD22995+9999999GD30995+9999999GD40995+9999999GF102025999999999999999999MA1999999098344MW1055EQDN01 08100JPWTH 1QNNE11 1 00299E11 1 00299E11 1 00099E11 1 00099G11U1 99999K11 1 00048L11 1 00300M11 1 29040N11 1 08100Q11 1 10193S11 1 00064V11 1 00302X11 1 15008
0269999999038531970091713005+30400-081417SAO  +0005NRB  V0201305N003152200059N011200599+02835+02395102255ADDGD12995+9999999GD20995+9999999GD30995+9999999GD40995+9999999GF103035999999999999999999MA1999999102205EQDN01 00000JPWTH 1QNNE11 1 00299E11 1 00099E11 1 00099E11 1 00099G11U1 99999K11 1 00075L11 1 00700M11 1 30180N11 1 00000Q11 1 10225S11 1 00083V11 1 00404X11 1 13006
0307910660227011970111713003+28200-177383SAO  +0007PMDY V0201205N012950045749N0112005N1+02395+02115101545ADDGA1061+004509059GA2021+012009049GD13995+9999999GD24995+9999999GD30995+9999999GD40995+9999999GF108085999999999999999999MA1999999101395MW1001EQDN01 00000JPWTH 1QNNE11 1 00499E11 1 00699E11 1 00099E11 1 00099G11 1 00015K11 1 00070L11 1 00700M11 1 29940N11 1 00000Q11 1 10154S11 1 00075V11 1 01010X11 1 12025
0117256110999991970010200004+63950+154217FM-12+999999999V0209991C00001220001CN0100001N9-04281-04501104211ADDAA106004091AA299001091AY171999GF100991001001999999001001HL10009IA1319IA2999-04729KA1999N-04281MD1210121+9999MW1101
0009471204999991970100605004+37033+126750FM-15+0015RKSN V0201501N00211220001CN0112001N1+02301+01301999999ADDMW1001
0243999999242551970101513005+99999+999999SAO  +999999999V02099959000052200059N011200599+00225+00115102125ADDGD10995+9999999GD20995+9999999GD30995+9999999GF100005999999999999999999MA1999999102005EQDN01 00000JPWTH 1QNNE11 1 00099E11 1 00099E11 1 00099G11U1 99999K11 1 00034L11 1 00700M11 1 30120N11 1 00000Q11 1 10212S11 1 00036V11 1 00000X11 1 00000
0041724088137071970041416004+39133-075467SAO  +0009KDOV V0200601N006210018019N0036001N9+00831+00831999999ADDGF108991999999999999999999MW1451MW2611
0057243430999991970071418004+66767+123400FM-12+005899999V0203601N00101220001CN0500001N9+01111+01001101221ADDAY111999GF105991001001999999001041MD1110011+9999MW1001
0035723408138141970082804004+35967-089950SAO  +0077BYH  V0209991C000012200019N0096001N9+02441+02111999999ADDGF100991999999999999999999MW1051
0057253720999991970022621004+66667+178500FM-12+999999999V0200501N02011024001CN0000501N9-02001-02221101741ADDAY171999GF108991081001999999021999MD1710471+9999MW1731
0035722485139441970040108004+32500-093667SAO  +0054BAD  V0201201N004610054019N0112001N9+01851+01411999999ADDGF108991999999999999999999MW1001
0269999999116301970101116005+18250-065633SAO  +001199999V0201905N005252200059N016000599+02945+02395101175ADDGD12995+9999999GD22995+9999999GD32995+9999999GD40995+9999999GF104025999999999999999999MA1999999101055EQDN01 00000JPWTH 1QNNE11 1 00299E11 1 00299E11 1 00299E11 1 00099G11U1 99999K11 1 00075L11 1 01000M11 1 29840N11 1 00000Q11 1 10117S11 1 00085V11 1 00503X11 1 19010
008394376099999197012282000N-24480+150580AUST +0199     V0200685N001059999999N999999999+02115+01905999999ADDGA1005+999999999GA2005+999999999GA3045+999999999GF104995004999999999999095MW1025
0041107280999991970040611004+49567-008467FM-15+0102EDOR V0202201N00621009001CN0112001N9+00741-00151999999ADDGA1051+009009059GA2081+060009009MW1001
007493346999999197008252000N-23430+144280AUST +0193     V0202485N001059999999N999999999+00675-00705999999ADDAY124999GA1005+999999999GF100995004999999999999999MA1999999099305MW1025
0057258160999991970071606004+61567+156900FM-12+999999999V0201401N00101220001CN0500001N9+02001+01281100831ADDAY111999GF101991001001999999001011MD1710181+9999MW1021
0232722265138211970110320003+32383-086350SAO  +0053MXF  V0203405N002652200059N0320005N9+01565+00225999999ADDGD12995+9999999GD20995+9999999GD30995+9999999GD40995+9999999GF101995999999999999999999EQDN01 00000JPWTH 1QNNE11 1 00299E11 1 00099E11 1 00099E11 1 00099G11U1 99999K11 1 00036L11 1 02000N11 1 00000S11 1 00060V11 1 00199X11 1 34005
0057259540999991970092315004+60350+166000FM-12+999999999V0203601N00211030001CN0500001N9+00781+00611101541ADDAY121999GF107991031051012501031001MD1410001+9999MW1021
017699999914734197009070300E+40700-074167SAO  +0002EWR  V0203505N003152200059N024000599+02065+00895101695ADDAA101000095GF100005999999999999999999MA1999999101595EQDN01 00000JPWTH 1QNNG11U1 99999K11 1 00048L11 1 01500M11 1 30000N11 1 00000Q11 1 10169S11 1 00069V11 1 00000X11 1 35006
0051106370999991970072802004+50033+008567SAO  +0112EDDF V0202001N001512200019N0112001N9+99999+99999999999ADDGA1021+105009009GF102991999999999999999999MW1001
0057167040999991970072721004+38367+026150FM-12+006199999V0203601N00411220001CN0150001N9+02781+01891101191ADDAY101999GF100991001001999999001001MD1210101+9999MW1021
0269999999938391970071719005+99999+999999SAO  +999999999V0201505N003150762049N016000599+02834+01895101644ADDGD13995+9999999GD20995+9999999GD30995+9999999GD40995+9999999GF106045999999999999999999MA1999999100614EQDN01 00000JPWTH 1QNNE11 1 00499E11 1 00099E11 1 00099E11 1 00099G11 1 00250K11 1 00066L11 1 01000M11 1 29710N11 1 00000Q11 1 10164S11 1 00083V11 1 00805X11 1 15006
0035722485139441970031220004+32500-093667SAO  +0054BAD  V0203201N004110045019N0080001N9+00351+00081999999ADDGF108991999999999999999999MW1051
0057224220999991970101721004+65900+034767FM-12+001099999V0203401N00411220001CN0100001N9+00221+00111101191ADDAY101999GF100991001001999999001001MD1210021+9999MW1021
0057202890999991970020903004+77183+096450FM-12+999999999V0201101N00511220001CN0500001N9-03001-03221101061ADDAY101999GF100991001001999999001001MD1710081+9999MW1021
0057310860999991970011606004+59317+144800FM-12+999999999V0209991C00001220001CN0500001N9-01111-01891103021ADDAY111999GF102991001001999999001011MD1310011+9999MW1011
0081296120999991970031812004+55367+078400FM-12+012099999V0201401N00411220001CN0100001N9-00721-01281103481ADDAA199000091AY101999GF100991001001999999001001KA1999M-00391MD1210031+9999MW1021
0269999999939011970042404005+32733-096967SAO  +0150NBE  V0201905N002650121949N019200599+02394+01945101314ADDGD13995+9999999GD24995+9999999GD30995+9999999GD40995+9999999GF108085999999999999999999MA1999999099664EQDN01 00000JPWTH 1QNNE11 1 00499E11 1 00699E11 1 00099E11 1 00099G11 1 00040K11 1 00067L11 1 01200M11 1 29430N11 1 00000Q11 1 10131S11 1 00075V11 1 01010X11 1 19005
0134231460999991970091606004+68467+073600FM-12+999999999V0203601N00821002401CN0090001N9+00281+00221102301ADDAA106122091AA299031091AJ100009199999999AY151999GF108991081061002501999999HL10009IA1089IA2999+00399KA1999N+00281MD1210021+9999MW1511
0068332130999991970092112004+51317+028783FM-12+017199999V0202501N00211220001CN0140001N9+02221+01281101371ADDAA199000091AY111999GF102991021021008001001001MD1710191+9999MW1011
0043911620225011970091113004+22050-159783SAO  +0005PHBK V02099999999999999999N0000001N1+02241+99999101461ADDMA1999999101391MW1001EQDQ01+999990APOSLP
0238722269038501970080617003+31267-085717SAO  +0091OZR  V0203605N001052200059N0096005N9+03285+02335999999ADDGD12995+9999999GD20995+9999999GD30995+9999999GD40995+9999999GF103995999999999999999999MW1055EQDN01 08100JPWTH 1QNNE11 1 00299E11 1 00099E11 1 00099E11 1 00099G11U1 99999K11 1 00074L11 1 00600N11 1 08100S11 1 00091V11 1 00499X11 1 36002
0044726055999991970020606004+43083-070817SAO  +0031PSM  V0209991C000010111019N0064001N9-00501-00671103991ADDGF108991999999999999999999MA1999999103591
0098489100999991970112715004+10250+105950FM-15+0005VVVL V0200201N002110060019N0096001N1+02461+02461999999ADDGA1021+001509079GA2041+006009059GA3081+024009049GF108991999999999999999999MA1999999100781MW1611
0377999999031331970100302005+36950-116050SAO  +1197UCC  V0201305N001052200059N032000599+02335+00445101155ADDGA1999+024384084GA2999+042674034GA3999+999999999GA4999+999999999GD12025+9999999GD22025+9999999GD30005+9999999GD40005+9999999GF103035999999999999999999MA1999999087945EQDN01 00000JPWTH 1QNNE11 1 00202E11 1 00202E11 1 00000E11 1 00000G11U1 99999H11 1 11080H11 1 23140H11 1 00999H11 1 00999K11 1 00040L11 1 02000M11 1 25970N11 1 00000Q11 1 10115S11 1 00074V11 1 00404X11 1 13002
038899999993193197010121500E+36767-119717SAO  +0100FAT  V02099959000052200059N016000599+01224+00835101304ADDAA101000095GA1999+054864034GA2999+076204004GA3999+999999999GA4999+999999999GD12015+9999999GD23055+9999993GD30005+9999999GD40005+9999999GF106025999999999999999999MA1999999100144EQDN01 00000JPWTH 1QNNE11 1 00201E11 1 00306E11 1 00000E11 1 00000G11U1 99999H11 1 23180H11 1 32250H11 1 00999H11 1 00999K11 1 00047L11 1 01000M11 1 29570N11 1 00000Q11 1 10130S11 1 00054V11 1 00702X11 1 00000
0073160520999991970090400004+45933+007700FM-12+348999999V0200601N00981220001CN0150001N9-00221+99999999999ADDAY111999GA1041+006009039GF104991041001004501041001MD1410001+9999MW1021
0081317040999991970053012004+48350+130800FM-12+009199999V0209999900311007801CN0200001N9+02391+01001099981ADDAA199000091AY121999GF108991051091008001021999KA1999M+02721MD1310101+9999MW1031
008283583099999197001261900N-19850-043950BRAZ +0785SBBH V02030019999999999999N020000199+02281+02001100601ADDGA1061+008001231GA2041+030001041GF108991999999999999999999MA1101191092111MW1901
0073265440999991970071409004+55867+026617FM-12+009399999V0201801N00511006301CN0040001N9+01611+01391100601ADDAY191999GA1051+006309099GF108991081031008001999999MD1710191+9999MW1101
0377999999617051970081512005-14333-170717SAO  +000399999V02099959000050335349N019200599+02335+02225101135ADDGA1999+006104084GA2999+033534034GA3999+999999999GA4999+999999999GD12035+9999999GD23035+9999999GD30005+9999999GD40005+9999999GF106065999999999999999999MA1999999101125EQDN01 00000JPWTH 1QNNE11 1 00204E11 1 00404E11 1 00000E11 1 00000G11 1 00110H11 1 11020H11 1 23110H11 1 00999H11 1 00999K11 1 00072L11 1 01200M11 1 29860N11 1 00000Q11 1 10113S11 1 00074V11 1 00808X11 1 00000
0057268940999991970071521004+53533+033717FM-12+017499999V0201801N00721220001CN0500001N9+02221+01391100441ADDAY101999GF100991001001999999001001MD1210051+9999MW1021
007583840099999197006020000N-25517-049167BRAZ +0908SBCT V02036019999999999999N008000199+01441+01101102101ADDAA101000091GF100991999999999999999999MA1102301091771MD1310161+9999MW1451
0081233650999991970030206004+66600+082333FM-12+999999999V0201101N00311220001CN0200001N9-02391-02721103621ADDAA199000091AY101999GF100991001001999999001001KA1999N-02781MD1210081+9999MW1021
0108294300999991970060112004+56433+084967FM-12+012199999V0200201N00511006601CN0100001N9+00611+00001101401ADDAA106075091AA224999999AY181999GA1071+006609099GF108991071031008001021999KA1999M+01001MD1210071+9999MW1801
0081206670999991970031618004+73333+070033FM-12+000699999V0201601N00511220001CN0450001N9-03501-03721103171ADDAA199000091AY101999GF100991001001999999001001KA1999M-02781MD1410001+9999MW1021
0084276650999991970082712004+55033+044500FM-12+020699999V0203401N00511003901CN0500001N9+01221+00221100511ADDAA199000091AY121999GA1061+003909099GF107991071051008001001001MD1810011+9999MW1031
0269999999876011970011804005-77883+166733SAO  +0024NZCM V0201205N004150091449N048000599+00115-00285099225ADDGD12995+9999999GD23995+9999999GD34995+9999999GD40995+9999999GF108075999999999999999999MA1999999098925EQDN01 00000JPWTH 1QNNE11 1 00299E11 1 00499E11 1 00699E11 1 00099G11 1 00030K11 1 00027L11 1 03000M11 1 29210N11 1 00000Q11 1 09922S11 1 00034V11 1 01009X11 1 12008
0043353860999991970010809004+49800+072200FM-12+045799999V0209991C00001220001CN0200001N9-01501-01721104531ADDAY101999GF100991001001999999001001MW1021
038899999903940197010020000E+32317-090083SAO  +0089JAN  V02099959000052200059N024000599+02445+01725101265ADDAA101000095GA1999+999999034GA2999+076204004GA3999+999999999GA4999+999999999GD11005+9999993GD20015+9999999GD30005+9999999GD40005+9999999GF101005999999999999999999MA1999999100105EQDN01 00000JPWTH 1QNNE11 1 00100E11 1 00001E11 1 00000E11 1 00000G11U1 99999H11 1 23999H11 1 32250H11 1 00999H11 1 00999K11 1 00063L11 1 01500M11 1 29560N11 1 00000Q11 1 10126S11 1 00076V11 1 00100X11 1 00000
0050702350999991970092209004+61100-155583SAO  +0487PASV V0209991C000010150019N0112001N9-00091-00651102071ADDGF108991999999999999999999MA1999999096111MW1001
0081332130999991970071418004+51317+028783FM-12+017199999V0201801N00311220001CN0120001N9+02281+01611100751ADDAA199000091AY101999GF102991001001999999001021KA1999M+02721MD1710161+9999MW1021
0238724037937281970121116003+38717-077183SAO  +0024DAA  V0201005N001050243849N0112005N9+00725+00115999999ADDGD12995+9999999GD23995+9999999GD34995+9999999GD40995+9999999GF108995999999999999999999MW1001EQDN01 00000JPWTH 1QNNE11 1 00299E11 1 00499E11 1 00699E11 1 00099G11 1 00080K11 1 00034L11 1 00700N11 1 00000S11 1 00045V11 1 01099X11 1 10002
0057249080999991970062818004+60333+102267FM-12+026099999V0202301N00311220001CN0200001N9+01001+00281100681ADDAY121999GF107991041001999999031011MD1210201+9999MW1021
0073344150999991970052503004+49183+037300FM-12+007999999V0209991C00001002101CN0080001N9+01281+01221100411ADDAY161999GA1051+002109079GF107991051071002501041001MD1610031+9999MW1101
0068258580999991970062300004+61233+172300FM-12+999999999V0202701N00211220001CN0200001N9+99999+99999100971ADDAA199000091AY101999GF102991021001999999041001MD1410001+9999MW1011
009094294599999197009281100N-19250+146770AUST +0006YBTL V0203605N003659999999N999999999+02445+01905999999ADDAY124999GA1035+006005065GA2045+007205065GF107995034055006005999999MA1999999100995MW1025
0057298920999991970032218004+53950+098650FM-12+070099999V0201801N00101220001CN0100001N9-01391-01721103681ADDAY101999GF101991001001999999001011MD1810091+9999MW1021
0238727575949251970081405003+47967-097400SAO  +0276RDR  V0201705N002650518249N0208005N9+02445+01945999999ADDGD12995+9999999GD22995+9999999GD33995+9999999GD40995+9999999GF106995999999999999999999MW1001EQDN01 00000JPWTH 1QNNE11 1 00299E11 1 00299E11 1 00499E11 1 00099G11 1 00170K11 1 00067L11 1 01300N11 1 00000S11 1 00076V11 1 00799X11 1 17005
031999999913781197004211800E+39667-075600SAO  +0023ILG  V0203205N004150015249N002000599+01065+00895101055ADDAA101000095GA1999+001524074GD14085+9999999GD20995+9999999GD30995+9999999GD40995+9999999GF108085999999999999999999MA1999999100755MW1045MW2455EQDN01 07080JPWTH 1QNNE11 1 00610E11 1 00099E11 1 00099E11 1 00099G11 1 00005H11 1 16005K11 1 00048L11 1 00125M11 1 29750N11 1 07080Q11 1 10105S11 1 00051V11 1 01010X11 1 32008
0051107635999991970052107004+49500+010950FM-15+0305EDEW V0202401N005110210019N0048001N1+01131+00961999999ADDGA1081+021009039GF108991999999999999999999MW1441
0057291110999991970051618004+59217+078233FM-12+008599999V0200501N00101220001CN0500001N9+00501+00111101801ADDAY111999GF102991011031004501031001MD1110061+9999MW1011
0057297120999991970081509004+54700+078667FM-12+011299999V0203601N00981007801CN0500001N9+01611+00611101441ADDAY111999GF106991061011008001001001MD1210151+9999MW1021
0377999999129281970020421005+27500-097817SAO  +0017NQI  V0201505N010852200059N016000599+02065+00725101875ADDGA1999+999999084GA2999+999999004GA3999+999999999GA4999+999999999GD13005+9999993GD20065+9999999GD30005+9999999GD40005+9999999GF106025999999999999999999MA1999999101695EQDN01 00000JPWTH 1QNNE11 1 00300E11 1 00007E11 1 00000E11 1 00000G11U1 99999H11 1 11999H11C1 32999H11 1 00999H11 1 00999K11 1 00045L11 1 01000M11 1 30030N11 1 00000Q11 1 10187S11 1 00069V11 1 00703X11 1 15021
0057233750999991970102009004+66533+087500FM-12+999999999V0202901N00211220001CN0500001N9-01221-01611101381ADDAY111999GF101991001001999999001011MD1210151+9999MW1031
0269999999148501970031300005+44733-085583SAO  +0188TVC  V0203605N003152200059N024000599-00285-01115101875ADDGD10995+9999999GD20995+9999999GD30995+9999999GD40995+9999999GF100005999999999999999999MA1999999099465EQDN01 00000JPWTH 1QNNE11 1 00099E11 1 00099E11 1 00099E11 1 00099G11U1 99999K11 1 00012L11 1 01500M11 1 29370N11 1 00000Q11 1 10187S11 1 00027V11 1 00000X11 1 36006
0238722745231091970101822003+32167-110883SAO  +0809DMA  V0203205N000552200059N0800005N9+02675+00175999999ADDGD11995+9999993GD20995+9999999GD30995+9999999GD40995+9999999GF102995999999999999999999MW1001EQDN01 00000JPWTH 1QNNE11 1 00199E11 1 00099E11 1 00099E11 1 00099G11U1 99999K11 1 00035L11 1 05000N11 1 00000S11 1 00080V11 1 00299X11 1 32001
0092318450999991970060909004+46533+135150FM-12+013599999V0209991C00001007801CN0500001N9+01221+01111100091ADDAA106063091AA299016091AY191999GF106991061091008001001001KA1999M+02001MD1210321+9999MW1291
0050746930937371970072303004+35133-078933SAO  +0074FBG  V0200801N002110015019N0112001N9+02161+02161102141ADDGF108991999999999999999999MA1999999101251MW1001
0057162800999991970121015004+40917+012950FM-12+018599999V0203001N00571220001CN0250001N9+01221+01111102861ADDAY101999GF100991001001999999001001MD1610081+9999MW1021
0383999999147861970100318005+40583-073883SAO  +0005NSC  V0201805N004652200059N008000599+02065+01675100585ADDGA1999+018294064GA2999+999999999GA3999+999999999GA4999+999999999GD12045+9999999GD20005+9999999GD30005+9999999GD40005+9999999GF104045999999999999999999MA1999999100475MW1045EQDN01 08200JPWTH 1QNNE11 1 00205E11 1 00000E11 1 00000E11 1 00000G11U1 99999H11 1 15060H11 1 00999H11 1 00999H11 1 00999K11 1 00062L11 1 00500M11 1 29670N11 1 08200Q11 1 10058S11 1 00069V11 1 00505X11 1 18009
038899999903937197010202100E+30117-093217SAO  +0003LCH  V0203605N006250914449N016000599+02395+01175102015ADDAA101000095GA1999+009144064GA2999+091444004GA3999+999999999GA4999+999999999GD12015+9999999GD24085+9999999GD30005+9999999GD40005+9999999GF108065999999999999999999MA1999999101905EQDN01 00000JPWTH 1QNNE11 1 00201E11 1 00610E11 1 00000E11 1 00000G11 1 00300H11 1 15030H11 1 32300H11 1 00999H11 1 00999K11 1 00053L11 1 01000M11 1 30090N11 1 00000Q11 1 10201S11 1 00075V11 1 01008X11 1 36012
0092283660999991970082215004+57433+067233FM-12+999999999V0201401N00211220001CN0700001N9+01221+00781101631ADDAA106075091AA224999999AY111999GF103991021041008001081001KA1999M+01721MD1710121+9999MW1011
0050745980137021970090915004+37083-076350SAO  +0003LFI  V0201901N006210750019N0112001N9+02331+01671101961ADDGF108991999999999999999999MA1999999101901MW1001
0029082270999991970072114004+40483-003450FM-15+0610LETO V0209991V00361220001CN0112001N9+03331+00501999999ADDGF100991999999999999999999
0035723550139451970021616004+34650-098400SAO  +0362FSI  V0201701N002112200019N0240001N9+00441-00281999999ADDGF102991999999999999999999MW1001
0057294050999991970080818004+56567+076633FM-12+009099999V0203201N00211004501CN0040001N9+01001+00891100871ADDAY161999GF108991081001004501021999MD1710341+9999MW1631
0094160080999991970020506004+46833+010517FM-12+152199999V0209991C00001009901CN0120001N9-00221-00391999999ADDGA1041+004809079GA2081+009909059GF108991081061004501999999KA1999N-00391MD1710081+9999MW1001
0057260940999991970042309004+59650+033500FM-12+004599999V0202901N00411007801CN0200001N9+00501-00781100771ADDAY121999GF106991061021008001001001MD1210141+9999MW1021
0057166100999991970092721004+41117+025400FM-12+003199999V0200201N00771220001CN0100001N9+01611+00501102481ADDAY111999GF102991011001012501041021MD1210081+9999MW1011
0035723865231121970122304004+36250-115033SAO  +0570LSV  V0201401N003112200019N0240001N9+00691-00201999999ADDGF100991999999999999999999MW1001
039472363023047197009021800C+35233-101700SAO  +1100AMA  V0202005N005750121949N0240005N1+02565+01675100885ADDAA101000095GA1061+012194084GA2999+999999999GA3999+999999999GA4999+999999999GD13065+9999999GD20005+9999999GD30005+9999999GD40005+9999999GF106065999999999999999999MA1999999088865MW1001EQDN01 00000JPWTH 1QNNE11 1 00408E11 1 00000E11 1 00000E11 1 00000G11 1 00040H11 1 11040H11 1 00999H11 1 00999H11 1 00999K11 1 00062L11 1 01500M11 1 26240N11 1 00000Q11 1 10088S11 1 00078V11 1 00808X11 1 20011
0064489006999991970021202004+11667+106650FM-15+0151VVQL V0200501N002612200019N0112001N1+02571+01801999999ADDGA1041+090009009GF102991999999999999999999EQDQ01+000000PRSWM2
0089162890999991970110112004+40850+014300FM-12+007299999V0202901N00311220001CN0080001N9+01781+00781102641ADDAY111999GA1021+006909089GA2031+009009059GF106991051081008001031001MD1810061+9999MW1101
0035475800999991970102808004+40683+141367FM-15+0037RJSM V0201401N003110420019N0112001N9+01071+00411999999ADDGA1041+010509059GA2081+042009049
0238747960128041970031219003+27633-081333SAO  +0023AGR  V0202005N002650036649N0112005N9+02335+02115999999ADDGD13995+9999999GD24995+9999999GD30995+9999999GD40995+9999999GF108995999999999999999999MW1001EQDN01 00000JPWTH 1QNNE11 1 00499E11 1 00699E11 1 00099E11 1 00099G11 1 00012K11 1 00070L11 1 00700N11 1 00000S11 1 00074V11 1 01099X11 1 20005
0057313620999991970022318004+53750+139450FM-12+999999999V0203201N00411220001CN0700001N9-02001-02781102311ADDAY101999GF102991001001999999001011MD1710011+9999MW1021
0079264190999991970030712004+56467+022833FM-12+999999999V0202001N00511220001CN0190001N9+00221-00391102191ADDAA106001091AA299000391AY181999GF103991021091004501001021MD1210231+9999MW1011
0043167170999991970022600004+37933+023633FM-12+000299999V0200701N00261220001CN0060001N9+00781+00391100701ADDAY101999GF101991001001999999001061MW1051
0092315320999991970110421004+50817+132167FM-12+023499999V0209991C00001220001CN0500001N9-01721-01721102061ADDAA106999999AA224999999AY101999GF102991001001999999001021KA1999N-01781MD1810041+9999MW1021
0035702220999991970073104004+64733-156933SAO  +0046PAGA V0202301N007710075019N0320001N9+01351+00801999999ADDGF108991999999999999999999MW1001
0081316610999991970042509004+49750+137050FM-12+999999999V0203401N00101220001CN0200001N9+02281+00111101121ADDAA199000091AY111999GF104991001001999999001071KA1999M+02611MD1710141+9999MW1021
0081286420999991970062118004+55300+061533FM-12+999999999V0209991C00001220001CN0100001N9+01611+01501100101ADDAA199000091AY191999GF102991021021012501001001KA1999M+02501MD1510021+9999MW1131
0377999999129581970050915005+29817-090017SAO  +0002NBG  V0201605N006252200059N011200599+02785+02005101705ADDGA1999+007624084GA2999+091444004GA3999+999999999GA4999+999999999GD12025+9999999GD23025+9999993GD30005+9999999GD40005+9999999GF105025999999999999999999MA1999999101695EQDN01 00000JPWTH 1QNNE11 1 00203E11 1 00303E11 1 00000E11 1 00000G11U1 99999H11 1 11025H11 1 32300H11 1 00999H11 1 00999K11 1 00068L11 1 00700M11 1 30030N11 1 00000Q11 1 10170S11 1 00082V11 1 00603X11 1 16012
0057246790999991970010503004+63133+139650FM-12+999999999V0200901N00211220001CN0500001N9-03501-03721104771ADDAY121999GF108991001001999999001071MD1010011+9999MW1021
0068358840999991970010600004+46017+070200FM-12+999999999V0200701N00101220001CN0500001N9-01611-02281103881ADDAA199000091AY101999GF100991001001999999001001MD1210081+9999MW1021
0057249280999991970040818004+60067+112383FM-12+999999999V0203201N001019999999N0190001N9-02281-02391099201ADDAY171999GF108991021001022501031071MD1110081+9999MW1711
0073224080999991970092821004+65200+031167FM-12+011299999V0202701N00311005701CN0500001N9+00501+00221102311ADDAY121999GA1081+005709059GF108991081051004501999999MD1710071+9999MW1021
0056471200999991970031509004+37250+127000FM-15+0024RKSW V0203401N00261003601CN0064001N9+00301+00081999999ADDGA1071+003609079GA2081+009009059MA1999999100751MW1611
0057318780999991970040718004+45100+133500FM-12+009599999V0202701N00511220001CN0500001N9+00001-00281101111ADDAY101999GF100991001001999999001001MD1210151+9999MW1021
0092264140999991970030121004+56733+021733FM-12+999999999V0202001N00821004501CN0017001N9-00221-00221099491ADDAY171999GA1999+003609079GF108991999071004501021999MD1710331+9999MW1731EQDQ01+000082SCOTLC
0106264770999991970020606004+56383+030600FM-12+009899999V0201801N00101220001CN0080001N9-01721-01891100401ADDAA199000091AY101999GF100991001001999999001001HL10009IA1319IA2999-02399KA1999N-01781MD1210101+9999MW1101
0057221650999991970022609004+68650+043300FM-12+000599999V0201601N01181024001CN0029001N9-00781-01221102941ADDAY131999GF108991081001999999051999MD1710071+9999MW1361
0269999999147861970062508005+40583-073883SAO  +0010NSC  V0202205N003150152449N024000599+01675+01335101195ADDGD13995+9999999GD20995+9999999GD30995+9999999GD40995+9999999GF105045999999999999999999MA1999999101085EQDN01 00000JPWTH 1QNNE11 1 00499E11 1 00099E11 1 00099E11 1 00099G11 1 00050K11 1 00056L11 1 01500M11 1 29850N11 1 00000Q11 1 10119S11 1 00062V11 1 00605X11 1 22006
0059036440999991970121801004+51683-001767FM-12+0087EGVA V0209991C000019999999N0003001N9+00501+00501999999ADDAY141999GA1091+999999999GF109991999999999999999999MW1451
0057272170999991970022721004+57800+036700FM-12+014799999V0200901N00211220001CN0230001N9-01221-01891103261ADDAY101999GF100991001001999999001001MD1510051+9999MW1021
006172564024018197001190700D+41150-104817SAO  +1876CYS  V0202301N008712200019N0240001N9-00601-00801101281ADDAA101000095GF107991999999999999999999MA1101081999999MW1021
0275040180162011970071422003+63967-022600SAO  +0050BIKF V0203005N006752200059N0720005N1+01065+00505101835ADDGD11995+9999993GD20995+9999999GD30995+9999999GD40995+9999999GF101005999999999999999999MA1999999101155MW1001EQDN01 00000JPWTH 1QNNE11 1 00199E11 1 00099E11 1 00099E11 1 00099G11U1 99999K11 1 00041L11 1 04500M11 1 29870N11 1 00000Q11 1 10183S11 1 00051V11 1 00100X11 1 30013
0057167100999991970112100004+37517+022350FM-12+066299999V0209991C00001220001CN0120001N9+00611+00501102571ADDAY101999GF103991001001999999001031MD1110011+9999MW1031
0057475800999991970073120004+40683+141367FM-15+0037RJSM V0209991C000010084019N0080001N9+02411+02071999999ADDGA1021+008409099GA2031+008409089GA3061+021009039MW1171
0009702190266151970110417004+60783-161800SAO  +0046BET  V02099999999999999999N0000001N1+99999+99999999999ADDMW1001
0035727675940111970041410004+48417-101350SAO  +0512MIB  V0200201N005110015019N0112001N9-00111-00281999999ADDGF108991999999999999999999MW1711
030799999994847197010282100E+42233-083333SAO  +0193DTW  V0201205N007750243849N011200599+01564+00785101954ADDAA101000095GA1999+024384034GD14085+9999999GD20995+9999999GD30995+9999999GD40995+9999999GF108085999999999999999999MA1999999099194EQDN01 00000JPWTH 1QNNE11 1 00610E11 1 00099E11 1 00099E11 1 00099G11 1 00080H11 1 23080K11 1 00046L11 1 00700M11 1 29290N11 1 00000Q11 1 10195S11 1 00060V11 1 01010X11 1 12015
0081351080999991970071906004+51250+051400FM-12+003699999V0200901N00721220001CN0100001N9+02781+01721101301ADDAA199000091AY101999GF100991001001999999001001KA1999N+01781MD1410001+9999MW1021
0117299620999991970031500004+53050+090917FM-12+044899999V0209991C00001024001CN0040001N9-01111-01221103101ADDAA106002091AA299000591AY171999GF108991081001999999011999HL10009IA1319IA2999-01289KA1999N-01111MD1310041+9999MW1711
0083103840999991970042607004+52467+013400SAO  +0049EDBB V0201901N004110120019N0144001N1+99999+99999999999ADDGA1011+006009089GA2041+012009059GA3061+018009059GF107991999999999999999999MW1001
0073266660999991970081221004+55167+030133FM-12+015199999V0203201N00311220001CN0040001N9+01501+01391100511ADDAY121999GA1021+002109079GF107991021061002501031001MD1710011+9999MW1101
010694970099999197001062000N-42880+147330AUST +0057     V0209999C000059999999N999999999+01115+01105999999ADDAY124999GA1015+004505075GA2045+013505065GA3065+999999045GF107995014065004505015999MA1999999101735MW1035
0057252820999991970091315004+67833+175833FM-12+999999999V0203601N00821021001CN0500001N9-00111-00391102951ADDAY121999GF108991081001022501071999MD1110011+9999MW1021
0035042310999991970070322004+67017-050800SAO  +0050BGSF V0202301N007710120019N0240001N1+00911+00241999999ADDGF108991999999999999999999MW1001
0096488695999991970012922004+14350+108017FM-15+0553VVKT V0200801N002112200019N0112001N1+01911+01691999999ADDGA1011+009009059GA2011+030009039GA3011+090009029GF102991999999999999999999EQDQ01+000000PRSWM2
0081293760999991970010212004+57417+094833FM-12+999999999V0209991C00001220001CN0200001N9-03781-04111999999ADDAA199000091AY101999GF100991001001999999001001KA1999M-03001MD1710041+9999MW1021
0057312630999991970111303004+54733+130450FM-12+008499999V0200501N00101220001CN0500001N9-02501-02721101991ADDAY101999GF100991001001999999001001MD1810041+9999MW1021
026099999993815197005211400E+39900-084217SAO  +031399999V0202405N002152200059N006400599+02444+01505102414ADDAA101000095GD10995+9999999GD20995+9999999GD30995+9999999GF100005999999999999999999MA1999999098854MW1055EQDN01 08100JPWTH 1QNNE11 1 00099E11 1 00099E11 1 00099G11U1 99999K11 1 00059L11 1 00400M11 1 29190N11 1 08100Q11 1 10241S11 1 00076V11 1 00000X11 1 24004
024972531014806197006191400C+40300-088150SAO  +0230RAN  V0200205N002150762049N0192005N1+01565+01115999999ADDAA101000095GD12995+9999999GD24995+9999999GD30995+9999999GD40995+9999999GF108995999999999999999999MW1001EQDN01 00000JPWTH 1QNNE11 1 00299E11 1 00699E11 1 00099E11 1 00099G11 1 00250K11 1 00052L11 1 01200N11 1 00000S11 1 00060V11 1 01099X11 1 02004
0057218130999991970062903004+71717+124417FM-12+999999999V0200701N00721024001CN0200001N9+01111+00111100741ADDAY121999GF107991021051008001091001MD1710111+9999MW1021
0165999999031331970121415005+36950-116050SAO  +1197UCC  V0203305N001052200059N032000599-00505-00675101575ADDGF100005999999999999999999MA1999999087915EQDN01 00000JPWTH 1QNNG11U1 99999K11 1 00020L11 1 02000M11 1 25960N11 1 00000Q11 1 10157S11 1 00023V11 1 00000X11 1 33002
038899999913741197007160600E+37317-079967SAO  +0350ROA  V0202405N002652200059N019200599+02565+02005101265ADDAA101000095GA1999+036584034GA2999+999999999GA3999+999999999GA4999+999999999GD12025+9999999GD20005+9999999GD30005+9999999GD40005+9999999GF102025999999999999999999MA1999999097195EQDN01 00000JPWTH 1QNNE11 1 00203E11 1 00000E11 1 00000E11 1 00000G11U1 99999H11 1 23120H11 1 00999H11 1 00999H11 1 00999K11 1 00068L11 1 01200M11 1 28700N11 1 00000Q11 1 10126S11 1 00078V11 1 00303X11 1 24005
0043368190999991970021409004+44133+075850FM-12+999999999V0201801N00821220001CN0500001N9+01001+00001101511ADDAY111999GF103991011041999999999999MW1011
0377999999406041970112521005+08733+167733SAO  +000399999V0200705N006752200059N024000599+02895+02395101035ADDGA1999+004274084GA2999+091444004GA3999+999999999GA4999+999999999GD12025+9999999GD21025+9999993GD30005+9999999GD40005+9999999GF103025999999999999999999MA1999999100955EQDN01 00000JPWTH 1QNNE11 1 00202E11 1 00103E11 1 00000E11 1 00000G11U1 99999H11 1 11014H11 1 32300H11 1 00999H11 1 00999K11 1 00075L11 1 01500M11 1 29810N11 1 00000Q11 1 10103S11 1 00084V11 1 00402X11 1 07013
0070315040999991970081418004+51350+139100FM-12+002099999V0203601N00211000151CN0007001N9+01391+01391101301ADDAY121999GF109991091999000251999999MD1710031+9999EQDQ01+000742PRSWM1
0117222350999991970121106004+67367+037033FM-12+016099999V0202701N00411220001CN0700001N9-00391-00721099211ADDAA106075091AA224999999AY171999GF105991041051008001001011HL10009IA1319IA2999-01119KA1999N-00721MD1710141+9999MW1021
0081246880999991970092109004+63267+143650FM-12+072699999V0209991C00001012301CN0500001N9+00611+00221102181ADDAA199000091AY121999GF108991081051012501999999KA1999M+00891MD1310051+9999MW1021
0035723105938331970082216004+33917-080800SAO  +0077MMT  V0201501N002612200019N0160001N9+02961+02411999999ADDGF102991999999999999999999MW1001
0377999999031331970012711005+36950-116050SAO  +1197UCC  V0201405N001552200059N024000599-00285-00675101565ADDGA1999+999999004GA2999+999999999GA3999+999999999GA4999+999999999GD13065+9999993GD20005+9999999GD30005+9999999GD40005+9999999GF106025999999999999999999MA1999999088085EQDN01 00000JPWTH 1QNNE11 1 00307E11 1 00000E11 1 00000E11 1 00000G11U1 99999H11C1 32999H11 1 00999H11 1 00999H11 1 00999K11 1 00020L11 1 01500M11 1 26010N11 1 00000Q11 1 10156S11 1 00027V11 1 00703X11 1 14003
0057303720999991970120803004+56917+118367FM-12+070399999V0209991C00001075001CN0500001N9-02781-03001103381ADDAY121999GF107991021001999999041031MD1710081+9999MW1021
0068336860999991970072600004+48333+029850FM-12+999999999V0209991C00001220001CN0060001N9+01721+01391100941ADDAA199000091AY101999GF100991001001999999001001MD1810111+9999MW1101
0051471220999991970112610004+37083-127033FM-15+0014RKSO V0202301N00101024001CN0064001N9+00941+00441999999ADDGA1081+024009039GF108991999999999999999999MW1051
0377999999939011970030221005+32733-096967SAO  +0150NBE  V0201805N007750061049N016000599+02174+01785100844ADDGA1999+002134134GA2999+006104064GA3999+999999999GA4999+999999999GD12045+9999999GD23035+9999999GD30005+9999999GD40005+9999999GF107075999999999999999999MA1999999099154EQDN01 00000JPWTH 1QNNE11 1 00205E11 1 00404E11 1 00000E11 1 00000G11 1 00020H11 1 13007H11 1 15020H11 1 00999H11 1 00999K11 1 00064L11 1 01000M11 1 29280N11 1 00000Q11 1 10084S11 1 00071V11 1 00909X11 1 18015
0081315090999991970021109004+51483+140783FM-12+003599999V0209991C00001220001CN0200001N9-02001-02281101541ADDAA199000091AY101999GF101991011011012501001001KA1999M-01611MD1710021+9999MW1021
0035107640999991970072311004+49383-011183FM-15+0378EDIG V0209991C00001220001CN0112001N9+02521+01241999999ADDGA1021+010509089GA2061+060009009
0108283830999991970101815004+57517+072400FM-12+006699999V0202001N00511012001CN0550001N9+00001-00221100951ADDAA106075091AA224999999AY121999GA1071+012009059GF107991071051012501001001KA1999M+00111MD1210121+9999MW1021
0057166420999991970012612004+39667+020767FM-12+048499999V0209991C00001220001CN0150001N9+00721+00501102621ADDAY141999GF101991011021012501001001MD1810071+9999MW1011
0057308530999991970103109004+51617+114333FM-12+059699999V0202301N00101220001CN0500001N9+00391-00721103011ADDAY101999GF100991001001999999001001MD1710121+9999MW1021
0057316240999991970110418004+49400+133233FM-12+019899999V0209991C00001220001CN0500001N9-01391-01391101771ADDAY101999GF100991001001999999001001MD1210011+9999MW1021
0057303740999991970121821004+56533+118267FM-12+999999999V0202501N00871024001CN0500001N9-02111-02721102011ADDAY121999GF106991061001999999041011MD1110101+9999MW1021
0035724088137071970051401004+39133-075467SAO  +0009KDOV V0202101N002112200019N0112001N9+02391+01891999999ADDGF102991999999999999999999MW1001
0073101470999991970080512004+53633+010000FM-12+001699999V0203101N00211220001CN0300001N9+02281+01611101731ADDAY111999GA1031+008409089GF103991031021008001001001MD1410001+9999MW1011
0269999999231951970091509005+32667-114600SAO  +0059YUM  V02099959000052200059N024000599+02065+00395100865ADDGD10995+9999999GD20995+9999999GD30995+9999999GD40995+9999999GF100005999999999999999999MA1999999100145EQDN01 00000JPWTH 1QNNE11 1 00099E11 1 00099E11 1 00099E11 1 00099G11U1 99999K11 1 00039L11 1 01500M11 1 29570N11 1 00000Q11 1 10086S11 1 00069V11 1 00000X11 1 00000
0057319610999991970092803004+43833+131000FM-12+999999999V0201801N00721220001CN0230001N9+02001+01221101671ADDAY101999GF103991031021008001001001MD1810181+9999MW1031
0323999999232441970041912005+37417-122050SAO  +0012NUQ  V0202805N002150045749N016000599+01225+01005102115ADDGA1999+004574064GA2999+009144084GD13055+9999999GD24035+9999999GD30995+9999999GD40995+9999999GF108085999999999999999999MA1999999102005EQDN01 00000JPWTH 1QNNE11 1 00406E11 1 00604E11 1 00099E11 1 00099G11 1 00015H11 1 15015H11 1 11030K11 1 00050L11 1 01000M11 1 30120N11 1 00000Q11 1 10211S11 1 00054V11 1 01010X11 1 28004
0057061990999991970030700004+55000+015083FM-12+000699999V0200701N00101220001CN0150001N9+00221-00221100311ADDAY101999GF100991001001999999001001MD1810111+9999MW1021
038899999912842197011221800E+27967-082533SAO  +001099999V0202405N004152200059N016000599+02675+01675101715ADDAA101000095GA1999+010674084GA2999+999999999GA3999+999999999GA4999+999999999GD12025+9999999GD20005+9999999GD30005+9999999GD40005+9999999GF102025999999999999999999MA1999999101695EQDN01 00000JPWTH 1QNNE11 1 00202E11 1 00000E11 1 00000E11 1 00000G11U1 99999H11 1 11035H11 1 00999H11 1 00999H11 1 00999K11 1 00062L11 1 01000M11 1 30030N11 1 00000Q11 1 10171S11 1 00080V11 1 00202X11 1 24008
0035723087937351970091311004+37133-076617SAO  +0004FAF  V0209991C000012200019N0176001N9+01461+01461999999ADDGF100991999999999999999999MW1001
0057035833999991970112514004+52417+000550FM-15+0013EGUL V0201801N00411060001CN0080001N9+01351+00851999999ADDGA1011+013509059GA2021+030009039GA3041+060009009MW1051
030799999913739197002160900E+39883-075250SAO  +0003PHL  V0202705N002650061049N011200599+00005-00285101965ADDAA101000095GA1999+006104064GD14085+9999999GD20995+9999999GD30995+9999999GD40995+9999999GF108085999999999999999999MA1999999101865EQDN01 00000JPWTH 1QNNE11 1 00610E11 1 00099E11 1 00099E11 1 00099G11 1 00020H11 1 15020K11 1 00027L11 1 00700M11 1 30080N11 1 00000Q11 1 10196S11 1 00032V11 1 01010X11 1 27005
0329999999266271970040918005+63883-160800SAO  +0006UNK  V0202505N004650152449N008000599-01895-02335100615ADDGA1999+004574074GA2999+015244064GD12035+9999999GD24055+9999999GD30995+9999999GD40995+9999999GF108085999999999999999999MA1999999100545MW1715EQDN01 04000JPWTH 1QNNE11 1 00204E11 1 00606E11 1 00099E11 1 00099G11 1 00050H11 1 16015H11 1 15050K11 1-00010L11 1 00500M11 1 29690N11 1 04000Q11 1 10061S11 1-00002V11 1 01010X11 1 25009
0269999999129581970022117005+29817-090017SAO  +0002NBG  V0200705N005752200059N016000599+01225-00565103965ADDGD10995+9999999GD20995+9999999GD30995+9999999GD40995+9999999GF100005999999999999999999MA1999999103965EQDN01 00000JPWTH 1QNNE11 1 00099E11 1 00099E11 1 00099E11 1 00099G11U1 99999K11 1 00022L11 1 01000M11 1 30700N11 1 00000Q11 1 10396S11 1 00054V11 1 00000X11 1 07011
0098476420999991970071800004+35733+139333FM-15+0142RJTY V0209991V00151220001CN0024001N9+02661+02281999999ADDGA1091+999999999GA2011+012009059GA3031+072009029GF105991999999999999999999MA1999999098651MW1051
0081314390999991970020312004+52383+140467FM-12+003199999V0203601N00311220001CN0700001N9-01501-01781102651ADDAA199000091AY111999GF103991001001999999001021KA1999M-01111MD1210081+9999MW1021
017699999903872197007070300E+37783-081117SAO  +0763BKW  V0200805N002652200059N024000599+01335+01065102055ADDAA101000095GF100005999999999999999999MA1999999093265EQDN01 00000JPWTH 1QNNG11U1 99999K11 1 00051L11 1 01500M11 1 27540N11 1 00000Q11 1 10205S11 1 00056V11 1 00000X11 1 08005
0092222270999991970092603004+67067+034167FM-12+999999999V0203401N00311006301CN0500001N9+00721-00111101151ADDAY121999GA1071+006309059GF107991051999000251999999MD1810021+9999MW1021EQDQ01+000002SCOLCG
0106289520999991970031803004+53217+063617FM-12+017199999V0201801N00411220001CN0100001N9-01001-01781102831ADDAA199000091AY101999GF100991001001999999001001HL10009IA1209IA2999-01619KA1999N-01391MD1710071+9999MW1021
0054284340999991970021600004+56617+057750FM-12+022099999V0209991C00001024001CN0260001N9-02001-02221103581ADDAA199000091AY121999GF108991081001999999011999MW1031
0070103610999991970090218004+52100+011583FM-12+007999999V0201601N00311220001CN0130001N9+01611+01111101441ADDAY111999GF104991001001999999001081KA1999M+02001MD1610161+9999MW1051
0060890090900011970120918004-90000+000000SY-SA+283099999V0203601N003612200019N0240001N9-02921+99999999999ADDGA1021+027009009GF102991999999999999999999MA1999999069731
0092269410999991970121218004+53117+026000FM-12+019499999V0202501N00211001501CN0090001N9+00111+00111102711ADDAA106001091AA299000391AY151999GF108991081061001501999999KA1999M+00281MD1710031+9999MW1511
0275724040137211970030602003+38300-076417SAO  +0014NHK  V0200105N005750051849N0112005N1+00675+00225101245ADDGD14995+9999999GD20995+9999999GD30995+9999999GD40995+9999999GF108085999999999999999999MA1999999101085MW1001EQDN01 00000JPWTH 1QNNE11 1 00699E11 1 00099E11 1 00099E11 1 00099G11 1 00017K11 1 00036L11 1 00700M11 1 29850N11 1 00000Q11 1 10124S11 1 00044V11 1 01010X11 1 01011
0080489125999991970010719004+10083+105717FM-15+000299999V0209991C000012200019N0112001N1+02521+02351999999ADDGA1011+009009059GA2041+090009009GF102991999999999999999999EQDQ01+000000PRSWM2
0025035623999991970061511004+52367-000217FM-15+0049EGWZ V0209991V00261008401CN0112001N9+01301+00521999999ADDGA1071+008409059MW1001
0044476790999991970121401004+35450+139450SAO  +0065RJTA V0209991C000012200019N0240001N9+00851-00651101381ADDGF100991999999999999999999MA1999999100611
0073165310999991970102412004+40867+009500FM-12+002299999V0200101N00571220001CN0250001N9+01501+00501102461ADDAY111999GA1021+007509089GF102991021011008001001001MD1210101+9999MW1011
0068353630999991970081912004+50250+066883FM-12+999999999V0202901N00311220001CN0500001N9+03281+00001100261ADDAA199000091AY111999GF107991001001999999001011MD1710091+9999MW1031
0057247370999991970111209004+62267+116083FM-12+999999999V0202901N00411220001CN0040001N9-01721-02221101451ADDAY171999GF108991001001999999001071MD1010291+9999MW1711
0238724466039291970100808003+38833-094583SAO  +0336GVW  V0201405N004150054949N0240005N9+01835+01565999999ADDGD14995+9999999GD20995+9999999GD30995+9999999GD40995+9999999GF108995999999999999999999MW1001EQDN01 00000JPWTH 1QNNE11 1 00699E11 1 00099E11 1 00099E11 1 00099G11 1 00018K11 1 00060L11 1 01500N11 1 00000S11 1 00065V11 1 01099X11 1 14008
0057308440999991970031218004+51350+110500FM-12+080199999V0209991C00001220001CN0200001N9-03391-03611104001ADDAY101999GF100991001001999999001001MD1710061+9999MW1021
017699999924131197008270600E+43567-116217SAO  +0865BOI  V0201405N003652200059N048000599+01895+00005101005ADDAA101000095GF100005999999999999999999MA1999999091205EQDN01 00000JPWTH 1QNNG11U1 99999K11 1 00032L11 1 03000M11 1 26930N11 1 00000Q11 1 10100S11 1 00066V11 1 00000X11 1 14007
030799999923042197004251200E+33650-101817SAO  +0992LBB  V0201605N002150009149N019200599+01115+01065100765ADDAA101000095GA1999+000914074GD14085+9999999GD20995+9999999GD30995+9999999GD40995+9999999GF108085999999999999999999MA1999999089775EQDN01 00000JPWTH 1QNNE11 1 00610E11 1 00099E11 1 00099E11 1 00099G11 1 00003H11 1 16003K11 1 00051L11 1 01200M11 1 26510N11 1 00000Q11 1 10076S11 1 00052V11 1 01010X11 1 16004
0073296260999991970040503004+55033+082183FM-12+016299999V0202501N00311006901CN0080001N9+00221+00111103101ADDAY181999GA1071+006909099GF107991071031008001001001MD1810011+9999MW1101
0057380370999991970020300004+44233+056700FM-12+999999999V0209991C00001220001CN0200001N9-02001-02281103091ADDAY101999GF100991001001999999001001MD1310011+9999MW1021
0056726226999991970090912004+44050-075717SAO  +0210GTB  V0201401N004110060019N0048001N1+01741+01461101431ADDGF108991999999999999999999MA1999999098881MW1051MW2451
0089101470999991970030915004+53633+010000FM-12+001699999V0202101N00571004501CN0080001N9+00111-00281101351ADDAY121999GA1051+004509089GA2051+010509059GF107991071081004501999999MD1210121+9999MW1851
0041471204999991970111223004+37033+126750FM-15+0015RKSN V0209991V00211030001CN0112001N1+01071+00691999999ADDGA1041+009009059GA2071+030009039MW1001
0095471320999991970012911004+36450+127433FM-15+0040RKTD V0200301N001510600019N0112001N1+00301-00311999999ADDGA1031+030009049GA2071+060009029GF107991999999999999999999MA1999999101051EQDQ01+000000PRSWM2
0057166480999991970121003004+39633+022417FM-12+007299999V0209991C00001220001CN0100001N9-00281-00281102661ADDAY101999GF100991001001999999001001MD1710081+9999MW1021
0269999999130251970050410005+36650-006350SAO  +0027LERT V0202405N004650045749N016000599+01675+01395101855ADDGD14995+9999999GD20995+9999999GD30995+9999999GD40995+9999999GF108085999999999999999999MA1999999101495EQDN01 00000JPWTH 1QNNE11 1 00699E11 1 00099E11 1 00099E11 1 00099G11 1 00015K11 1 00057L11 1 01000M11 1 29970N11 1 00000Q11 1 10185S11 1 00062V11 1 01010X11 1 24009
0269999999107191970102716005+99999+999999SAO  +999999999V0203005N002652200059N011200599+03115+02725101275ADDGD12995+9999999GD23995+9999993GD30995+9999999GD40995+9999999GF107035999999999999999999MA1999999101195EQDN01 00000JPWTH 1QNNE11 1 00299E11 1 00399E11 1 00099E11 1 00099G11U1 99999K11 1 00081L11 1 00700M11 1 29880N11 1 00000Q11 1 10127S11 1 00088V11 1 00904X11 1 30005
0269999999130251970051616005+36650-006350SAO  +0027LERT V0202605N007752200059N011200599+02005+01285102015ADDGD12995+9999999GD20995+9999999GD30995+9999999GD40995+9999999GF101015999999999999999999MA1999999101665EQDN01 00000JPWTH 1QNNE11 1 00299E11 1 00099E11 1 00099E11 1 00099G11U1 99999K11 1 00055L11 1 00700M11 1 30020N11 1 00000Q11 1 10201S11 1 00068V11 1 00101X11 1 26015
0092315610999991970031809004+50667+137367FM-12+999999999V0203601N01491030001CN0200001N9-01001-01501101831ADDAA106002091AA299000591AY131999GF107991021051008001031081KA1999M-00891MD1510001+9999MW1381
017699999913748197011170000E+34267-077900SAO  +0009ILM  V02099959000052200059N024000599+00725+00445101965ADDAA101000095GF100005999999999999999999MA1999999101835EQDN01 00000JPWTH 1QNNG11U1 99999K11 1 00040L11 1 01500M11 1 30070N11 1 00000Q11 1 10196S11 1 00045V11 1 00000X11 1 00000
0057298370999991970102109004+53317+082967FM-12+999999999V0202901N00721007801CN0500001N9-00221-00781102581ADDAY121999GF108991081051008001999999MD1210121+9999MW1031
0134362460999991970090600004+50617+087917FM-12+999999999V0201801N00101015001CN0200001N9+00391+00281101551ADDAA106001091AA299000391AJ100009199999999AY181999GF107991071091017501001001HL10009IA1089IA2999+00289KA1999N+00391MD1410001+9999MW1151
0092232740999991970071012004+67467+086567FM-12+003099999V0200501N00311012301CN0200001N9+02001+01501100081ADDAA106008091AA299002091AY181999GF108991061031012501031011KA1999M+02391MD1710101+9999MW1031
0035727675940111970060605004+48417-101350SAO  +0512MIB  V0202201N003112200019N0400001N9+02001+01051999999ADDGF100991999999999999999999MW1001
0104704540257041970101200001+51883-176650SAO  +0005PADK V0202301N012310075019N0080001N9+01191+00961100681ADDGA1011+001809079GA2021+005409079GA3051+007509059GF108991999999999999999999MA1999999100641MW1451MW2611
0035722090999991970053023004+31883-081567SAO  +0014LHW  V0201001N005110750019N0160001N9+02391+01831999999ADDGF108991999999999999999999MW1001
0269999999232441970013104005+37417-122050SAO  +0012NUQ  V0203005N001052200059N024000599+01115+00785102635ADDGD10995+9999999GD20995+9999999GD30995+9999999GD40995+9999999GF100005999999999999999999MA1999999102515EQDN01 00000JPWTH 1QNNE11 1 00099E11 1 00099E11 1 00099E11 1 00099G11U1 99999K11 1 00046L11 1 01500M11 1 30270N11 1 00000Q11 1 10263S11 1 00052V11 1 00000X11 1 30002
0076299460999991970071809004+52817+087133FM-12+999999999V0202701N00821012301CN0500001N9+02001+01281100721ADDAY121999GF108991999021012501031001MD1410001+9999MW1021EQDQ01+000082SCOTLC
0081225830999991970060506004+64750+047483FM-12+006299999V0202701N00621220001CN0500001N9+01781+00281102541ADDAA199000091AY111999GF102991001001999999001011KA1999N+00611MD1710091+9999MW1011
0076315280999991970122803004+50183+130650FM-12+999999999V0209991C00001220001CN0100001N9-02781-03281102982ADDAY101999GF100991001001999999001001MD1210021+9999MW1021EQDQ01+102983APOSLP
0057319690999991970061406004+42650+130800FM-12+001699999V0201101N00211220001CN0200001N9+02501+01281101131ADDAY101999GF100991001001999999001001MD1110021+9999MW1011
0057249670999991970032306004+60200+130117FM-12+999999999V0202301N00511220001CN0200001N9-01001-02001101291ADDAY101999GF100991001001999999001001MD1710151+9999MW1021
0057262310999991970122021004+58383+024500FM-12+001499999V0201801N00981004501CN0010001N9-00281-00391100031ADDAY171999GF108991061071004501021999MD1710291+9999MW1731
0073372350999991970123109004+43350+045683FM-12+012499999V0203201N00101002401CN0010001N9+00221+00111101691ADDAY141031GA1081+002409079GF108991081061002501999999MD1610071+9999MW1101
0238999999176051970021001005+76517-068833SAO  +0077BGTL V0201105N000550243849N014400599-02445-03285999999ADDGD12995+9999999GD23995+9999999GD30995+9999999GD40995+9999999GF106995999999999999999999MW1715EQDN01 04000JPWTH 1QNNE11 1 00299E11 1 00499E11 1 00099E11 1 00099G11 1 00080K11 1-00027L11 1 00900N11 1 04000S11 1-00012V11 1 00799X11 1 11001
0377999999149261970120912005+45583-094183SAO  +0316YTC  V0203105N007752200059N024000599-00835-01395102065ADDGA1999+004884064GA2999+999999999GA3999+999999999GA4999+999999999GD12015+9999999GD20005+9999999GD30005+9999999GD40005+9999999GF101015999999999999999999MA1999999098105EQDN01 00000JPWTH 1QNNE11 1 00201E11 1 00000E11 1 00000E11 1 00000G11U1 99999H11 1 15016H11 1 00999H11 1 00999H11 1 00999K11 1 00007L11 1 01500M11 1 28970N11 1 00000Q11 1 10206S11 1 00017V11 1 00101X11 1 31015
0081298370999991970051912004+53317+082967FM-12+999999999V0202901N00721220001CN0240001N9+02501+00611100421ADDAA199000091AY111999GF102991021021008001001001KA1999M+02721MD1610061+9999MW1021
0035722866231221970101116004+34100-117233SAO  +0352SBD  V0209991C000012200019N0096001N9+01571+00801999999ADDGF100991999999999999999999MW1051
0068306030999991970061106004+53933+102050FM-12+045899999V0202301N00311075001CN0500001N9+02781+01001100141ADDAA199000091AY111999GF105991011021012501001031MD1710121+9999MW1031
0067106160999991970042819004+49950+007267FM-15+0503EDAH V0203201N001512200019N0112001N9+00391-00111999999ADDGA1011+006009059GA2031+018009039GF104991999999999999999999MW1001
0057360450999991970053009004+51950+083783FM-12+999999999V0203601N00211220001CN0200001N9+02611+01221101221ADDAY101999GF100991001001999999001001MD1710111+9999MW1021
0043323890999991970051021004+56317+160833FM-12+002599999V0203401N00871007801CN0200001N9+00001-00391101071ADDAY121999GF107991051091008001081081MW1021
0073249660999991970092009004+60383+134450FM-12+017599999V0209991C00001220001CN0500001N9+01111+00501100891ADDAY121999GA1041+011109059GF108991081031004501999999MD1310021+9999MW1021
0068278230999991970081100004+53783+039250FM-12+021099999V0209991C00001220001CN0150001N9+01391+01221101621ADDAA199000091AY101999GF100991001001999999001001MD1210031+9999MW1021
007494608099999197011191900N-31950+115850AUST +0020     V0201805N004659999999N999999999+01495+01005999999ADDAY144999GA1005+999999999GF100995004999999999999999MA1999999101155MW1025
038899999914819197006271800E+41783-087750SAO  +0187MDW  V0200505N003152200059N016000599+02335+00785101885ADDAA101000095GA1999+999999084GA2999+999999999GA3999+999999999GA4999+999999999GD10005+9999999GD20005+9999999GD30005+9999999GD40005+9999999GF100005999999999999999999MA1999999099635EQDN01 00000JPWTH 1QNNE11 1 00000E11 1 00000E11 1 00000E11 1 00000G11U1 99999H11 1 11999H11 1 00999H11 1 00999H11 1 00999K11 1 00046L11 1 01000M11 1 29420N11 1 00000Q11 1 10188S11 1 00074V11 1 00000X11 1 05006
0057304050999991970041018004+55383+100967FM-12+039499999V0202301N00311220001CN0500001N9+00001-00721103201ADDAY111999GF100991001001999999001001MD1810051+9999MW1021
0092260940999991970011603004+59650+033500FM-12+004599999V0203601N00511003301CN0043001N9-01391-01721101471ADDAY171999GA1081+003309079GF108991999071004501021999MD1210201+9999MW1711EQDQ01+000082SCOTLC
0064788071999991970022311004+08967-079550FM-15+0012MBLB V0203001N003112200019N0112001N1+02461+02131999999ADDGA1011+007509059GF102991999999999999999999EQDQ01+000000PRSWM2
0232999999146011970090314005+44800-068817SAO  +0052BGR  V02099959000052200059N032000599+01505+00675999999ADDGD14995+9999993GD20995+9999999GD30995+9999999GD40995+9999999GF108995999999999999999999EQDN01 00000JPWTH 1QNNE11 1 00599E11 1 00099E11 1 00099E11 1 00099G11U1 99999K11 1 00044L11 1 02000N11 1 00000S11 1 00059V11 1 01099X11 1 00000
0057313970999991970021803004+52350+131283FM-12+029699999V0209991C00001220001CN0500001N9-02111-02391102421ADDAY101999GF100991001001999999001001MD1810021+9999MW1021
0073299150999991970101609004+53967+078483FM-12+012599999V0203201N00511003301CN0110001N9+00781+00721101021ADDAY151999GA1081+003309079GF108991081061004501999999MD1210281+9999MW1021
031999999924149197001201800E+46383-117017SAO  +043399999V0203205N002150003049N000200599+00175+00175102175ADDAA101000095GA1999+000304104GD15085+9999999GD20995+9999999GD30995+9999999GD40995+9999999GF108085999999999999999999MA1999999096885MW1455MW2805EQDN01 02370JPWTH 1QNNE11 1 00710E11 1 00099E11 1 00099E11 1 00099G11 1 00001H11 1 45001K11 1 00035L11 1 00012M11 1 28610N11 1 02370Q11 1 10217S11 1 00035V11 1 01010X11 1 32004
028099999912839197009252300E+25800-080267SAO  +0004MIA  V0200805N005750914449N016000599+02895+02565101545ADDAA101000095GD12995+9999999GD24995+9999999GD30995+9999999GD40995+9999999GF108065999999999999999999MA1999999101525EQDN01 00000JPWTH 1QNNE11 1 00299E11 1 00699E11 1 00099E11 1 00099G11 1 00300K11 1 00078L11 1 01000M11 1 29980N11 1 00000Q11 1 10154S11 1 00084V11 1 01008X11 1 08011
0377999999433241970121003005+34150+132233SAO  +0003RJOI V0201605N001050243849N016000599+00895-00065102255ADDGA1999+009144084GA2999+024384034GA3999+999999999GA4999+999999999GD12025+9999999GD24065+9999999GD30005+9999999GD40005+9999999GF108065999999999999999999MA1999999102245EQDN01 00000JPWTH 1QNNE11 1 00203E11 1 00607E11 1 00000E11 1 00000G11 1 00080H11 1 11030H11 1 23080H11 1 00999H11 1 00999K11 1 00031L11 1 01000M11 1 30190N11 1 00000Q11 1 10225S11 1 00048V11 1 01008X11 1 16002
0271999999272021970022322005+70167-124683SAO  +0016CYUE V02009059005252200059N024000599-02945-03225103055ADDGA1999+009144064GA2999+054864004GD19025+9999999GD29045+9999999GF106035999999999999999999MA1999999102815EQDN01 00000JPWTH 1QNNE11 1 09903E11 1 09905G11U1 99999H11 1 15030H11 1 32180K11 1-00026L11 1 01500M11 1 30360N11 1 00000Q11 1 10305S11 1-00021V11 1 00804W11 1 33010
0377999999107191970101306005+99999+999999SAO  +999999999V02099959000050914449N011200599+02505+02505100925ADDGA1999+005184084GA2999+022864044GA3999+091444024GA4999+999999999GD12025+9999999GD22025+9999999GD33025+9999999GD40005+9999999GF106045999999999999999999MA1999999100855EQDN01 00000JPWTH 1QNNE11 1 00203E11 1 00202E11 1 00402E11 1 00000G11 1 00300H11 1 11017H11 1 21075H11 1 37300H11 1 00999K11 1 00077L11 1 00700M11 1 29780N11 1 00000Q11 1 10092S11 1 00077V11 1 00705X11 1 00000
0095285880999991970112312004+55567+071367FM-12+012999999V0202701N00311003901CN0500001N9-00501-00721103151ADDAA106004091AA299001091AY171999GA1081+003909049GF108991081001004501021999MD1710081+9999MW1021
0232999999176051970052522005+76517-068833SAO  +0077BGTL V0202705N002152200059N040000599-00445-01285999999ADDGD10995+9999999GD20995+9999999GD30995+9999999GD40995+9999999GF100995999999999999999999EQDN01 00000JPWTH 1QNNE11 1 00099E11 1 00099E11 1 00099E11 1 00099G11U1 99999K11 1 00009L11 1 02500N11 1 00000S11 1 00024V11 1 00099X11 1 27004
0070108030999991970101606004+48000+007850FM-12+026999999V0202401N00151220001CN0120001N9+00281+00111102621ADDAY101061GF100991001001999999001001KA1999N+00221MD1310071+9999MW1021
0269999999232391970030523005+37733-122317SAO  +0005NGZ  V0202905N006252200059N019200599+01565+00505101785ADDGD11995+9999993GD20995+9999999GD30995+9999999GD40995+9999999GF101005999999999999999999MA1999999101695EQDN01 00000JPWTH 1QNNE11 1 00199E11 1 00099E11 1 00099E11 1 00099G11U1 99999K11 1 00041L11 1 01200M11 1 30030N11 1 00000Q11 1 10178S11 1 00060V11 1 00100X11 1 29012
0057337110999991970091403004+48483+032250FM-12+014899999V0209991C00001220001CN0100001N9+01501+01221101441ADDAY111999GF102991021001999999031001MD1210071+9999MW1021
0057292740999991970121721004+58083+093000FM-12+008999999V0202301N00101024001CN0100001N9-02281-02611102611ADDAY171999GF108991081001999999011999MD1710091+9999MW1711
0092266660999991970061509004+55167+030133FM-12+015199999V0203601N00721003901CN0080001N9+01001+00611100611ADDAY161999GA1071+003909079GF108991999071004501021999MD1210161+9999MW1611EQDQ01+000082SCOTLC
0057247610999991970120209004+62933+130467FM-12+999999999V0202901N00511024001CN0170001N9-03281-03781101881ADDAY171999GF108991081001999999021999MD1310051+9999MW1721
0329999999147801970060515005+40033-074350SAO  +0034NEL  V0202205N002150121949N006400599+02005+01835101395ADDGA1999+002444154GA2999+012194084GD12025+9999999GD24065+9999999GD30995+9999999GD40995+9999999GF108085999999999999999999MA1999999101025MW1455EQDN01 07000JPWTH 1QNNE11 1 00202E11 1 00608E11 1 00099E11 1 00099G11 1 00040H11 1 17008H11 1 11040K11 1 00065L11 1 00400M11 1 29830N11 1 07000Q11 1 10139S11 1 00068V11 1 01010X11 1 22004
0043442920999991970102409004+47850+106750FM-12+126799999V0203201N00411024001CN0500001N9-00721-01391103431ADDAY131999GF105991051001999999041001MW1361
0057296760999991970051515004+55250+094883FM-12+039699999V0202501N00311007801CN0100001N9+00891+00721101171ADDAY181999GF108991081091008001999999MD1210401+9999MW1801
0073346150999991970110515004+47617+037317FM-12+026699999V0202301N00211007201CN0500001N9+00001-00221101981ADDAY121999GA1081+007209059GF108991081051008001999999MD1710061+9999MW1021
0057226760999991970082621004+63583+045633FM-12+006699999V0200501N00311007801CN0200001N9+00501+00221100961ADDAY181999GF108991081091008001999999MD1210091+9999MW1801
0035724457039381970051701004+37733-092150SAO  +0356TBN  V0209991C000012200019N0112001N9+01671+00561999999ADDGF100991999999999999999999MW1001
0057297590999991970120503004+54333+089283FM-12+084699999V0209991C00001220001CN0500001N9-02001-02281999999ADDAY101999GF100991001001999999001001MD1210051+9999MW1021
0057314430999991970090621004+51633+128650FM-12+016399999V0200701N00101220001CN0200001N9+00281+00281101701ADDAY101999GF102991001001999999001021MD1310051+9999MW1021
0057258210999991970021518004+61917+158817FM-12+002399999V0203401N01391012301CN0090001N9-00721-01111099111ADDAY171999GF108991081051012501999999MD1710041+9999MW1221
0057166890999991970010718004+38250+021733FM-12+000399999V0202201N00461036001CN0100001N9+01391+01001101241ADDAY161999GF108991031081008001021999MD1210141+9999MW1631
0081242430999991970120112004+67983+123500FM-12+999999999V0201601N00411220001CN0500001N9-03281-03781102491ADDAA199000091AY111999GF103991031001999999041001KA1999M-03111MD1710061+9999MW1011
0057319150999991970022115004+44400+131383FM-12+021199999V0202701N00721220001CN0250001N9-01611-02501102631ADDAY101999GF100991001001999999001001MD1210151+9999MW1021
0269722265138211970101218003+32383-086350SAO  +0053MXF  V0201405N005250076249N0240005N9+02785+02065101655ADDGD13995+9999999GD23995+9999999GD30995+9999999GD40995+9999999GF106995999999999999999999MA1999999101025EQDN01 00000JPWTH 1QNNE11 1 00499E11 1 00499E11 1 00099E11 1 00099G11 1 00025K11 1 00069L11 1 01500M11 1 29830N11 1 00000Q11 1 10165S11 1 00082V11 1 00799X11 1 14010
0054347590999991970082812004+46567+043667FM-12+010899999V0203201N00871012301CN0200001N9+01611+00281101221ADDAA199000091AY121999GF106991061021012501001001MW1021
0035725060999991970042322004+41650-070517SAO  +0040FMH  V0201201N004110180019N0144001N9+00521+00131999999ADDGF108991999999999999999999MW1001
008799999914839197011261700E+42950-087900SAO  +0205MKE  V0201705N004650067149N999999999+00445+99999999999ADDAA101000095GF108085999999999999999999QNNG11 1 00022S11 1 00040V11 1 01010X11 1 17009
038899999924156197008072100E+42917-112600SAO  +135699999V0201505N003652200059N064000599+03615+00725101035ADDAA101000095GA1999+018294084GA2999+999999999GA3999+999999999GA4999+999999999GD12035+9999999GD20005+9999999GD30005+9999999GD40005+9999999GF103035999999999999999999MA1999999086225EQDN01 00000JPWTH 1QNNE11 1 00204E11 1 00000E11 1 00000E11 1 00000G11U1 99999H11 1 11060H11 1 00999H11 1 00999H11 1 00999K11 1 00045L11 1 04000M11 1 25460N11 1 00000Q11 1 10103S11 1 00097V11 1 00404X11 1 15007
0106231740999991970040100004+68433+086383FM-12+999999999V0201401N00871021001CN0500001N9-00111-00891101381ADDAA199000091AY131999GF108991081001022501021999HL10009IA1319IA2999-00509KA1999N-00391MD1710271+9999MW1361
0057292090999991970072718004+57783+077283FM-12+011599999V0209991C00001220001CN0500001N9+01611+01391100671ADDAY121999GF102991001001999999001021MD1110031+9999MW1021
038872734514847197005291200B+46467-084367SAO  +021999999V0201105N006250609649N024000599+01175+00505102945ADDAA101000095GA1999+042674034GA2999+060964024GA3999+999999999GA4999+999999999GD12015+9999999GD23045+9999999GD30005+9999999GD40005+9999999GF105035999999999999999999MA1999999100245EQDN01 00000JPWTH 1QNNE11 1 00201E11 1 00405E11 1 00000E11 1 00000G11 1 00200H11 1 23140H11 1 37200H11 1 00999H11 1 00999K11 1 00041L11 1 01500M11 1 29600N11 1 00000Q11 1 10294S11 1 00053V11 1 00604X11 1 11012
010182193099999197003011800N-01383-048483BRAZ +0016SBBE V02001019008219999999N020000199+03021+02401100501ADDAA101000091GA1051+006001231GA2051+060001211GF107991999999999999999999MA1100461100321MD1710301+9999
0081104990999991970072618004+51167+014950FM-12+023799999V0202401N00621004501CN0160001N9+01281+01111101241ADDAA199001091AY121061GF108991071071004501999999KA1999M+01391MD1210161+9999MW1601
026099999914735197005221700E+42750-073800SAO  +0084ALB  V0201705N003650640149N004800599+02615+01785101525ADDAA101000095GD12995+9999999GD23995+9999999GD30995+9999999GF106065999999999999999999MA1999999100475MW1055EQDN01 08100JPWTH 1QNNE11 1 00299E11 1 00499E11 1 00099G11 1 00210K11 1 00064L11 1 00300M11 1 29670N11 1 08100Q11 1 10152S11 1 00079V11 1 00807X11 1 17007
0097246680999991970090412004+63300+133267FM-12+999999999V0200701N00211024001CN0080001N9+01221+00281100051ADDAA106020091AA299005091AY161999GF108991081001999999021999KA1999M+99999MW1611EQDQ01 +01002ATMX  
031372258013960197011190600C+32850-096850SAO  +0159DAL  V0201605N008250914449N0240005N1+01565+00285100565ADDAA101000095GA1081+091444024GD14085+9999999GD20995+9999999GD30995+9999999GD40995+9999999GF108085999999999999999999MA1999999098855MW1001EQDN01 00000JPWTH 1QNNE11 1 00610E11 1 00099E11 1 00099E11 1 00099G11 1 00300H11 1 37300K11 1 00037L11 1 01500M11 1 29190N11 1 00000Q11 1 10056S11 1 00060V11 1 01010X11 1 16016
0050723066137131970042212004+35333-077967SAO  +0033GSB  V0203601N001012200019N0112001N9+01501+00561102451ADDGF100991999999999999999999MA1999999102001MW1001
0035702350999991970111020004+61100-155583SAO  +0487PASV V0202001N002610600019N0112001N9+00411-00421999999ADDGF108991999999999999999999MW1001
0057208640999991970022021004+71483+071800FM-12+999999999V0201601N01391004501CN0005001N9-02391-02721103481ADDAY131999GF108991081051004501999999MD1710161+9999MW1391
0106259320999991970040321004+60817+160167FM-12+999999999V0209991C00001220001CN0200001N9-00391-00721102641ADDAA199000091AY101999GF103991001001999999001011HL10009IA1309IA2999-01289KA1999N-00611MD1310011+9999MW1021
0096488966999991970100110004+10967+107400FM-15+0162IGIR V0201801N003610360019N0112001N1+02801+02411999999ADDGA1011+007509089GA2051+036009039GA3071+090009009GF107991999999999999999999EQDQ01+000000PRSWM2
0057360910999991970120715004+52350+093217FM-12+999999999V0209991C00001220001CN0500001N9-03391-03611999999ADDAY101999GF100991001001999999001001MD1710011+9999MW1021
0029747240231681970120419004+32933-112700SAO  +0261GBN  V0203501N002110750019N0400001N9+01631+01131999999ADDGF107991999999999999999999
0035722520129201970120919004+27533-099450SAO  +0158LRD  V0201601N003112200019N0240001N1+02631+01571999999ADDGF102991999999999999999999MW1001
009094980099999197007160200N-40100+148000AUST +0009     V0203155N012959999999N999999999+01185+00605999999ADDAY124999GA1035+004505115GA2085+007505065GF108995034075004505999999MA1999999100845MW1255
0070313180999991970040112004+53067+130017FM-12+025499999V0209991C00001220001CN0500001N9-00891-01891102041ADDAY101999GF100991001001999999001001KA1999M+00111MD1310141+9999MW1021
029872509014739197002061700C+42367-071033SAO  +0006BOS  V0201405N001550061049N0064005N9-00065-00445103685ADDAA101000095GD13995+9999999GD24995+9999999GD30995+9999999GD40995+9999999GF108085999999999999999999MA1999999103595MW1045MW2051MW3715EQDN01 04082JPWTH 1QNNE11 1 00499E11 1 00699E11 1 00099E11 1 00099G11 1 00020K11 1 00024L11 1 00400M11 1 30590N11 1 04082Q11 1 10368S11 1 00031V11 1 01010X11 1 14003
038899999923160197006070300E+32133-110933SAO  +0786TUS  V0203205N006752200059N048000599+02785+00675100715ADDAA101000095GA1999+024384064GA2999+036584034GA3999+076204004GA4999+999999999GD12015+9999999GD22025+9999999GD33065+9999993GD40005+9999999GF106035999999999999999999MA1999999092145EQDN01 00000JPWTH 1QNNE11 1 00201E11 1 00202E11 1 00307E11 1 00000G11U1 99999H11 1 15080H11 1 23120H11 1 32250H11 1 00999K11 1 00044L11 1 03000M11 1 27210N11 1 00000Q11 1 10071S11 1 00082V11 1 00804X11 1 32013
034099999913970197001242100E+30533-091150SAO  +0020BTR  V0201405N005750182949N009600599+01835+00505101965ADDAA101000095GA1999+009754064GA2999+018294034GD12025+9999999GD24065+9999999GD30995+9999999GD40995+9999999GF108085999999999999999999MA1999999101695MW1045EQDN01 08200JPWTH 1QNNE11 1 00202E11 1 00608E11 1 00099E11 1 00099G11 1 00060H11 1 15032H11 1 23060K11 1 00041L11 1 00600M11 1 30030N11 1 08200Q11 1 10196S11 1 00065V11 1 01010X11 1 14011
0275999999937271970110207005+34700-077383SAO  +0005NCA  V0203205N003650030549N008000599+01784+01505101254ADDGD13995+9999999GD23995+9999999GD30995+9999999GD40995+9999999GF106065999999999999999999MA1999999101194MW1055EQDN01 08100JPWTH 1QNNE11 1 00499E11 1 00499E11 1 00099E11 1 00099G11 1 00010K11 1 00059L11 1 00500M11 1 29880N11 1 08100Q11 1 10125S11 1 00064V11 1 00707X11 1 32007
0092310970999991970120812004+59250+145967FM-12+999999999V0200501N00821007801CN0020001N9-00391-00501100821ADDAA106008091AA299002091AY181999GF107991051091008001061001KA1999M-00281MD1210081+9999MW1851
0057304610999991970011309004+55800+115800FM-12+999999999V0209991C00001220001CN0500001N9-02501-03111104511ADDAY111999GF101991001001999999001011MD1210181+9999MW1011
017699999913967197004110300E+35400-097600SAO  +0392OKC  V0201705N002152200059N024000599+01445+01065101215ADDAA101000095GF100005999999999999999999MA1999999096615EQDN01 00000JPWTH 1QNNG11U1 99999K11 1 00051L11 1 01500M11 1 28530N11 1 00000Q11 1 10121S11 1 00058V11 1 00000X11 1 17004
0057248430999991970020615004+61950+124850FM-12+999999999V0203201N00101024001CN0100001N9-02721-02891102351ADDAY171999GF108991081001999999021999MD1210051+9999MW1711
038899999926451197010212100E+61167-150017SAO  +0048ANC  V0200205N003150243849N096000599-00725-01445099965ADDAA101000095GA1999+015244064GA2999+024384034GA3999+999999999GA4999+999999999GD12025+9999999GD23055+9999999GD30005+9999999GD40005+9999999GF106065999999999999999999MA1999999099465EQDN01 00000JPWTH 1QNNE11 1 00202E11 1 00406E11 1 00000E11 1 00000G11 1 00080H11 1 15050H11 1 23080H11 1 00999H11 1 00999K11 1 00006L11 1 06000M11 1 29370N11 1 00000Q11 1 09996S11 1 00019V11 1 00807X11 1 02006
0114264870999991970041412004+56267+032083FM-12+019799999V0203401N00871003901CN0120001N9+00111-00221100191ADDAA106012091AA299003091AY171999GA1081+003909059GF108991999051004501011011MD1210171+9999MW1711EQDQ01+000082SCOTLC
0095467700999991970110506004+24267+120617FM-15+0005RCMQ V0200101N005710750019N0112001N1+02351+01351999999ADDGA1011+007509089GA2071+075009029GF107991999999999999999999MA1999999098981EQDQ01+000000PRSWM2
0092227780999991970111903004+62233+045033FM-12+005399999V0201601N00621000901CN0070001N9-00221-00281102851ADDAY151999GA1081+000909079GF108991081061001501999999MD1410001+9999MW1571EQDQ01+000062APCTEN
0066106160999991970012209004+49950+007267FM-15+0503EDAH V0201501N00461000301CN0006001N9-00721-00831999999ADDGA1091+000309999GF109991999999999999999999MA1999999095731MW1451
033499999924156197001141200E+42917-112600SAO  +135699999V0201805N009350121949N024000599+00445-00175101495ADDAA101000095GA1999+012194064GA2999+024384034GD13065+9999999GD24025+9999999GD30995+9999999GD40995+9999999GF108085999999999999999999MA1999999086085EQDN01 00000JPWTH 1QNNE11 1 00408E11 1 00602E11 1 00099E11 1 00099G11 1 00040H11 1 15040H11 1 23080K11 1 00029L11 1 01500M11 1 25420N11 1 00000Q11 1 10149S11 1 00040V11 1 01010X11 1 18018
0057227210999991970062209004+62900+034400FM-12+008099999V0203401N00721220001CN0700001N9+00891-00111101871ADDAY181999GF104991041081012501001001MD1210101+9999MW1011
0057352290999991970082021004+50283+057650FM-12+022799999V0200501N00211220001CN0200001N9+01391+00891101431ADDAY101999GF102991001001999999001021MD1310051+9999MW1021
0057100040999991970062718004+54267+007200FM-12+000399999V0201201N00981024001CN0100001N9+02001+01721101301ADDAY111999GF108991081001999999071999MD1710201+9999MW1031
0057106870999991970083105004+49700-011950FM-15+0418EDIC V0209991C000012200019N0016001N9+01351+01241999999ADDGA1011+999999999GA2031+024009039GA3031+060009009MW1441
0098704140999991970022806004+52717+174100SAO  +0031PASY V0200601N015410054019N0112001N9+00171-00221099901ADDGA1051+005409059GA2021+012009059GA3021+030009049GF108991999999999999999999MA1099861099531MW1001
0238725755241011970030305003+41117-111967SAO  +1459HIF  V0201105N001552200059N0480005N9-00115-00835999999ADDGD12995+9999999GD20995+9999999GD30995+9999999GD40995+9999999GF101995999999999999999999MW1001EQDN01 00000JPWTH 1QNNE11 1 00299E11 1 00099E11 1 00099E11 1 00099G11U1 99999K11 1 00017L11 1 03000N11 1 00000S11 1 00030V11 1 00199X11 1 11003
0069489470999991970040304004+16550+104767SAO  +0155VLSK V0200401N001010660019N0192001N1+02911+02021101401ADDGF108991999999999999999999MA1999999099661MW1001EQDQ01+999990APOSLP
0095488896999991970092003004+11633+108950FM-15+0034VVPA V0209991V001512200019N0112001N1+03351+02461999999ADDGA1021+012009089GA2031+075009029GF107991999999999999999999MA1999999100511EQDQ01+000000PRSWM2
034099999924146197001021800E+48300-114267SAO  +0904FCA  V02099959000050152449N006400599-00835-01065103055ADDAA101000095GA1999+004574074GA2999+015244064GD12025+9999999GD24065+9999999GD30995+9999999GD40995+9999999GF108085999999999999999999MA1999999092045MW1715EQDN01 04000JPWTH 1QNNE11 1 00202E11 1 00608E11 1 00099E11 1 00099G11 1 00050H11 1 16015H11 1 15050K11 1 00013L11 1 00400M11 1 27180N11 1 04000Q11 1 10305S11 1 00017V11 1 01010X11 1 00000
0057279830999991970040521004+53167+048467FM-12+005899999V0201101N00311220001CN0290001N9+00281+00221102951ADDAY101999GF100991001001999999001001MD1210031+9999MW1021
0068339460999991970060900004+45017+033817FM-12+020599999V0201601N00211220001CN0050001N9+01281+01111101881ADDAA199000091AY111999GF100991001001999999001001MD1210011+9999MW1101
0111488970999991970080815004+11967+109233FM-15+0011VVCR V0202001N001510600019N0112001N1+02851+01961999999ADDGA1011+009009059GA2031+015009059GA3051+060009009GF107991999999999999999999MA1999999100811EQDQ01+000000PRSWM2
0051471410432191970030813004+35900+126617FM-15+0013RKJK V0201601N00261030001CN0112001N9+00281-00111999999ADDGA1071+030009049GF107991999999999999999999MW1001
0377999999225191970092200005+21450-157783SAO  +0003HNG  V0200405N004152200059N024000599+02675+02005101535ADDGA1999+009144084GA2999+999999999GA3999+999999999GA4999+999999999GD12035+9999999GD20005+9999999GD30005+9999999GD40005+9999999GF103035999999999999999999MA1999999101495EQDN01 00000JPWTH 1QNNE11 1 00204E11 1 00000E11 1 00000E11 1 00000G11U1 99999H11 1 11030H11 1 00999H11 1 00999H11 1 00999K11 1 00068L11 1 01500M11 1 29970N11 1 00000Q11 1 10153S11 1 00080V11 1 00404X11 1 04008
0057291280999991970071718004+58700+081500FM-12+007599999V0209991C00001220001CN0500001N9+01611+01501100801ADDAY101999GF100991001001999999001001MD1310041+9999MW1021
0057316510999991970090503004+49867+136133FM-12+999999999V0202301N00621036001CN0500001N9+02001+01221100621ADDAY121999GF105991021021008001031001MD1810051+9999MW1021
031399999913959197004281200E+31617-097217SAO  +0157ACT  V0201805N007750042749N008000599+02395+02115100585ADDAA101000095GA1999+004274074GD14085+9999999GD20995+9999999GD30995+9999999GD40995+9999999GF108085999999999999999999MA1999999098815MW1455EQDN01 07000JPWTH 1QNNE11 1 00610E11 1 00099E11 1 00099E11 1 00099G11 1 00014H11 1 16014K11 1 00070L11 1 00500M11 1 29180N11 1 07000Q11 1 10058S11 1 00075V11 1 01010X11 1 18015
0057296260999991970032209004+55033+082183FM-12+016299999V0201401N00511220001CN0240001N9+00221-00611102731ADDAY101999GF100991001001999999001001MD1710081+9999MW1021
0057314160999991970032406004+52417+136500FM-12+006599999V0203601N00211220001CN0500001N9-00721-02111100951ADDAY111999GF102991021011008001001001MD1710081+9999MW1021
0066475800999991970061512004+40683+141367FM-15+0037RJSM V0200301N003110600019N0112001N9+01301+00911999999ADDGA1011+006009059GA2011+012009059GA3071+060009029MA1999999101561
0275746941137861970080415003+36267-076183SAO  +0004ECG  V0200305N006252200059N0112005N9+02785+01895101525ADDGD12995+9999999GD22995+9999999GD30995+9999999GD40995+9999999GF102025999999999999999999MA1999999101495MW1001EQDN01 00000JPWTH 1QNNE11 1 00299E11 1 00299E11 1 00099E11 1 00099G11U1 99999K11 1 00066L11 1 00700M11 1 29970N11 1 00000Q11 1 10152S11 1 00082V11 1 00302X11 1 03012
0097294300999991970032312004+56433+084967FM-12+012199999V0201801N00411005401CN0100001N9+00111+00001102681ADDAA199000091AY121999GA1081+005409059GF108991081051004501999999KA1999M+00221MD1110021+9999MW1021
0068357390999991970062000004+46517+059500FM-12+999999999V0209991C00001220001CN0500001N9+01391+00781101041ADDAA199000091AY101999GF102991001001999999001021MD1310031+9999MW1021
0092335060999991970090406004+49600+034550FM-12+016099999V0201501N00621024001CN0100001N9+01721+01111101401ADDAA106004091AA299001091AY121999GF107991051001999999031011KA1999N+01501MD1810021+9999MW1021
0057162420999991970061300004+41800+012233FM-12+000399999V0200901N00101220001CN0140001N9+01721+01391101421ADDAY111999GF100991001001999999001001MD1110071+9999MW1021
0238690190139101970011714003+32433-099850SAO  +0545DYS  V0201805N007250365849N0040005N9+00445+00225999999ADDGD12995+9999999GD23995+9999993GD33995+9999999GD43995+9999999GF106995999999999999999999MW1455EQDN01 07000JPWTH 1QNNE11 1 00299E11 1 00399E11 1 00499E11 1 00499G11 1 00120K11 1 00036L11 1 00250N11 1 07000S11 1 00040V11 1 00899X11 1 18014
0057306320999991970091403004+53767+109017FM-12+999999999V0209991C00001007801CN0100001N9+00611+00611101481ADDAY181999GF108991081051008001999999MD1210061+9999MW1611
0057256770999991970031803004+63050+179150FM-12+000199999V0203501N03401024001CN0008001N9-00781-01781102031ADDAY131999GF108991081001999999021999MD1710201+9999MW1391
0195999999232931970083002005+37367-121917SAO  +0016SJC  V0203305N008252200049N032000599+01835+01445999999ADDGD12995+9999999GD20995+9999999GD30995+9999999GD40995+9999999EQDN01 00000JPWTH 1QNNE11 1 00299E11 1 00099E11 1 00099E11 1 00099G11U1 99999K11 1 00058L11 1 02000N11 1 00000S11 1 00065X11 1 33016
0269999999242551970083105005+99999+999999SAO  +999999999V02099959000052200059N011200599+01505+01005101035ADDGD12995+9999999GD22995+9999999GD30995+9999999GD40995+9999999GF104035999999999999999999MA1999999100915EQDN01 00000JPWTH 1QNNE11 1 00299E11 1 00299E11 1 00099E11 1 00099G11U1 99999K11 1 00050L11 1 00700M11 1 29800N11 1 00000Q11 1 10103S11 1 00059V11 1 00504X11 1 00000
010694999900065197003112030N-12470+130830AUST +0040     V0200905N001059999999N999999999+02565+02405999999ADDAY114999GA1015+009005065GA2005+999999999GA3025+999999999GF102995014055009005999025MA1999999100215MW1015
0083106070999991970061004004+49967+006700FM-15+0365EDAD V0202701N00151001201CN0006001N9+01501+01501999999ADDGA1031+999999999GA2041+001209079GA3051+010509059GF108991999999999999999999MW1451
028099999903872197012072000E+37783-081117SAO  +0763BKW  V0203305N004152200059N032000599-00395-01005103095ADDAA101000095GD12995+9999999GD20995+9999999GD30995+9999999GD40995+9999999GF101015999999999999999999MA1999999093635EQDN01 00000JPWTH 1QNNE11 1 00299E11 1 00099E11 1 00099E11 1 00099G11U1 99999K11 1 00014L11 1 02000M11 1 27650N11 1 00000Q11 1 10309S11 1 00025V11 1 00101X11 1 33008
0275999999038671970101415005+39850-083833SAO  +0323SGH  V0202005N004150036649N011200599+01725+01395101485ADDGD13995+9999999GD24995+9999999GD30995+9999999GD40995+9999999GF108995999999999999999999MA1999999097705MW1615EQDN01 02000JPWTH 1QNNE11 1 00499E11 1 00699E11 1 00099E11 1 00099G11 1 00012K11 1 00057L11 1 00700M11 1 28850N11 1 02000Q11 1 10148S11 1 00063V11 1 01099X11 1 20008
0081255680999991970022121004+64167+176183FM-12+999999999V0209991C00001024001CN0500001N9-02721-03001102301ADDAA199000091AY121999GF107991051001999999031011KA1999N-02781MD1210041+9999MW1021
0073273690999991970101821004+57100+045183FM-12+012999999V0203401N00311007801CN0500001N9+00281+00221101321ADDAY121999GA1081+007809059GF108991081051008001999999MD1210061+9999MW1021
0092284340999991970100218004+56617+057750FM-12+022099999V0209991C00001011101CN0500001N9+00111+00111101511ADDAY161999GA1081+011109999GF199999071051012501001001MD1210101+9999MW1021EQDQ01+000072SCOTCV
005994999900315197004080500N-38170+145400AUST +0003     V0201355N002659999999N999999999+01895+01105999999ADDAY104999GA1045+015005085GF104995044015015005999999MW1035
0057307030999991970041203004+52967+101817FM-12+060799999V0209991C00001220001CN0200001N9+00501-00721101641ADDAY121999GF108991001001999999001071MD1710141+9999MW1031
0057246880999991970042018004+63267+143650FM-12+072699999V0202701N00621015001CN0500001N9-01281-01611101441ADDAY121999GF108991061001017501031071MD1210161+9999MW1021
0057160440999991970010215004+46033+013183FM-12+009299999V0209991C00001220001CN0070001N9+00611-00221100431ADDAY101999GF100991001001999999001001MD1310021+9999MW1101
0080483570999991970072708004+17367+104650FM-15+0176VTUP V0209991V002110090019N0112001N1+03071+02411999999ADDGA1051+009009089GA2051+075009029GF107991999999999999999999EQDQ01+000000PRSWM2
0041035623999991970013002004+52367-000217FM-15+0049EGWZ V0200701N00671002401CN0028001N9+00461+00351999999ADDGA1041+002109079GA2081+002409079MW1611
0057166220999991970061800004+40517+022967FM-12+000499999V0201201N00211220001CN0200001N9+01891+01501101381ADDAY101999GF100991001001999999001001MD1710041+9999MW1021
0123320980999991970121400004+49217+143100FM-12+000499999V0203201N00621220001CN0200001N9-01501-02001100251ADDAA199000091AJ100009199999999AY101999GF100991001001999999001001HL10009IA1199IA2999-02119KA1999N-01781MD1510081+9999MW1021
0057442180999991970120909004+48017+091483FM-12+140699999V0209991C000019999999N0200001N9-01281-01391102191ADDAY121999GF106991021041012501999001MD1710161+9999MW1021
038899999923061197002162100E+37450-105867SAO  +229899999V0201105N002652200059N080000599+00725-00785102505ADDAA101000095GA1999+999999034GA2999+999999004GA3999+999999999GA4999+999999999GD12005+9999999GD20015+9999999GD30005+9999999GD40005+9999999GF101015999999999999999999MA1999999077455EQDN01 00000JPWTH 1QNNE11 1 00200E11 1 00001E11 1 00000E11 1 00000G11U1 99999H11 1 23999H11C1 32999H11 1 00999H11 1 00999K11 1 00018L11 1 05000M11 1 22870N11 1 00000Q11 1 10250S11 1 00045V11 1 00101X11 1 11005
0079230290999991970092812004+69250+064950FM-12+999999999V0202901N00311220001CN0300001N9+00111-00501101341ADDAA106008091AA299002091AY181999GF101991011031008001001001MD1710021+9999MW1021
0195999999264171970092900005+99999+999999SAO  +999999999V0201205N002650106749N019200599+00835+00675999999ADDGD14995+9999999GD20995+9999999GD30995+9999999GD40995+9999999EQDN01 00000JPWTH 1QNNE11 1 00699E11 1 00099E11 1 00099E11 1 00099G11 1 00035K11 1 00044L11 1 01200N11 1 00000S11 1 00047X11 1 12005
0123385650999991970103006004+40550+065683FM-12+050199999V0209991C00001220001CN0200001N9+01281+00281102481ADDAA199000091AJ100009199999999AY101999GF100991001001999999001001HL10009IA1009IA2999+00229KA1999N+00221MD1810051+9999MW1011
0302724040137211970041503003+38300-076417SAO  +0014NHK  V0203005N005250024449N0112005N1+00895+00725100615ADDGA1081+002444074GD14085+9999999GD20995+9999999GD30995+9999999GD40995+9999999GF108085999999999999999999MA1999999100475MW1001EQDN01 00000JPWTH 1QNNE11 1 00610E11 1 00099E11 1 00099E11 1 00099G11 1 00008H11 1 16008K11 1 00045L11 1 00700M11 1 29670N11 1 00000Q11 1 10061S11 1 00048V11 1 01010X11 1 30010
0269999999939011970120811005+32733-096967SAO  +0150NBE  V0201605N005750106749N024000599+01114+00895101974ADDGD12995+9999999GD24995+9999999GD30995+9999999GD40995+9999999GF108085999999999999999999MA1999999100274EQDN01 00000JPWTH 1QNNE11 1 00299E11 1 00699E11 1 00099E11 1 00099G11 1 00035K11 1 00048L11 1 01500M11 1 29610N11 1 00000Q11 1 10197S11 1 00052V11 1 01010X11 1 16011
0275722266138501970041512003+32350-086983SAO  +0050SEM  V0200605N002152200059N0112005N1+01005+00675101755ADDGD12995+9999999GD20995+9999999GD30995+9999999GD40995+9999999GF101995999999999999999999MA1999999101125MW1001EQDN01 00000JPWTH 1QNNE11 1 00299E11 1 00099E11 1 00099E11 1 00099G11U1 99999K11 1 00044L11 1 00700M11 1 29860N11 1 00000Q11 1 10175S11 1 00050V11 1 00199X11 1 06004
040099999924221197008261500E+44117-123217SAO  +0109EUG  V02099959000052200059N004800599+01175+00945101655ADDAA101000095GA1999+010674104GA2999+999999999GA3999+999999999GA4999+999999999GD11025+9999993GD20005+9999999GD30005+9999999GD40005+9999999GF102015999999999999999999MA1999999100305MW1045MW2445EQDN01 07280JPWTH 1QNNE11 1 00103E11 1 00000E11 1 00000E11 1 00000G11U1 99999H11 1 98035H11 1 00999H11 1 00999H11 1 00999K11 1 00049L11 1 00300M11 1 29620N11 1 07280Q11 1 10165S11 1 00053V11 1 00301X11 1 00000
0057442120999991970040409004+49850+092067FM-12+093699999V0203601N00411220001CN0500001N9+00111-01281102741ADDAY101999GF102991021021017501001001MD1110021+9999MW1021
0057314390999991970020506004+52383+140467FM-12+003199999V0209991C00001220001CN0500001N9-01721-02001102411ADDAY101999GF106991001001999999001021MD1710021+9999MW1021
0079471030999991970032218004+37967+124667FM-15+0193RKSP V0202701N002112200019N0112001N1-00151-00531999999ADDGA1041+006009059GF102991999999999999999999MA1999999100241EQDQ01+000000PRSWM2
0057315450999991970120315004+50600+133800FM-12+999999999V0209991C00001220001CN0500001N9-03001-03221101221ADDAY101999GF100991001001999999001001MD1210151+9999MW1021
0081283660999991970031415004+57433+067233FM-12+999999999V0203201N00411012301CN0700001N9-00391-01001103551ADDAA199000091AY121999GF107991071051012501001001KA1999M-00111MD1210131+9999MW1021
0057293630999991970123009004+57633+092267FM-12+018499999V0202301N00511075001CN0100001N9-01501-01781102791ADDAY131999GF108991021001999999071071MD1210171+9999MW1361
002074754013934197005250700D+31317-092550SAO  +0027KAEX V0203601N002110750019N0160001N9+02131+01911999999ADDAA101000095MW1001
0081360960999991970082012004+51667+094383FM-12+999999999V0201101N00411075001CN0500001N9+02281+00781100221ADDAA199000091AY121999GF107991021031012501001021KA1999M+02611MD1710121+9999MW1021
0097267300999991970081706004+54633+025283FM-12+018999999V0203601N00101000901CN9999999N9+01501+01501101251ADDAA199000091AY121999GA1081+000909079GF108991081061000751999999KA1999N+01281MD1710071+9999MW1101
0073105130999991970103000004+50867+007150FM-12+009199999V0202101N00361220001CN0150001N9+00891+00611102481ADDAY101061GA1011+030009039GF101991011001999999041001MD1810031+9999MW1031
0092272810999991970012718004+58300+047117FM-12+015699999V0202701N00511030001CN0110001N9-00781-01111100961ADDAA106075091AA224999999AY171999GF107991021071004501011001KA1999M-00611MD1710041+9999MW1711
0057360870999991970022418004+51267+091167FM-12+999999999V0209991C00001024001CN0100001N9-02391-02781104341ADDAY121999GF108991081001999999021999MD1010081+9999MW1021
0097330360999991970011118004+52033+029183FM-12+017399999V0201401N00721004801CN0100001N9-00721-01281102401ADDAA199000091AY121999GA1081+004809059GF108991081051004501999999KA1999M-00721MD1710191+9999MW1031
0377999999405041970100406005+06967+158217SAO  +003699999V0202505N002150487749N011200599+02835+02395100785ADDGA1999+006714084GA2999+048774034GA3999+088394004GA4999+999999999GD12025+9999999GD23045+9999999GD34025+9999999GD40005+9999999GF108075999999999999999999MA1999999100245EQDN01 00000JPWTH 1QNNE11 1 00203E11 1 00405E11 1 00602E11 1 00000G11 1 00160H11 1 11022H11 1 23160H11 1 32290H11 1 00999K11 1 00075L11 1 00700M11 1 29600N11 1 00000Q11 1 10078S11 1 00083V11 1 01009X11 1 25004
0057313880999991970090618004+52333+129917FM-12+020799999V0209991C00001220001CN0500001N9+00281+00221101691ADDAY101999GF100991001001999999001001MD1810071+9999MW1021
0057317130999991970072315004+48700+132883FM-12+007699999V0202901N00311220001CN0450001N9+02221+02221100541ADDAY111999GF102991021001999999031001MD1710011+9999MW1021
0134346910999991970110106004+47900+048800FM-12+999999999V0202401N00981220001CN0500001N9+00721+00221100001ADDAA106024091AA299006091AJ100009199999999AY161999GF102991021021012501001001HL10009IA1109IA2999+00289KA1999N+00281MD1310141+9999MW1021
0238722210138581970042204003+30483-086517SAO  +0020VPS  V0201505N002652200059N0128005N9+02285+02225999999ADDGD10995+9999999GD20995+9999999GD30995+9999999GD40995+9999999GF100995999999999999999999MW1001EQDN01 00000JPWTH 1QNNE11 1 00099E11 1 00099E11 1 00099E11 1 00099G11U1 99999K11 1 00072L11 1 00800N11 1 00000S11 1 00073V11 1 00099X11 1 15005
0068380010999991970062612004+44550+050250FM-12-002099999V0203201N00211220001CN0200001N9+02501+01111101721ADDAA199000091AY101999GF101991011001999999031001MD1810041+9999MW1031
0073228450999991970100715004+61500+038933FM-12+012199999V0203601N00101004201CN0080001N9+00391+00391102151ADDAY181999GA1081+004209099GF108991081081004501999999MD1210161+9999MW1801
0377999999412311970010603005+14800+120267SAO  +0014RPMB V0200405N006252200059N024000599+03005+01945101535ADDGA1999+015244064GA2999+999999004GA3999+999999999GA4999+999999999GD12015+9999999GD21025+9999993GD30005+9999999GD40005+9999999GF102015999999999999999999MA1999999101355EQDN01 00000JPWTH 1QNNE11 1 00201E11 1 00102E11 1 00000E11 1 00000G11U1 99999H11 1 15050H11C1 32999H11 1 00999H11 1 00999K11 1 00067L11 1 01500M11 1 29930N11 1 00000Q11 1 10153S11 1 00086V11 1 00301X11 1 04012
008799999914839197011051700E+42950-087900SAO  +0205MKE  V0202905N004652200059N999999999+00835+99999999999ADDAA101000095GF100005999999999999999999QNNG11U1 99999S11 1 00047V11 1 00000X11 1 29009
0009702190266151970032509004+60783-161800SAO  +0046BET  V02099999999999999999N0000001N1+99999+99999999999ADDMW1001
0057266450999991970030209004+55050+026150FM-12+020999999V0201801N00621024001CN0190001N9-00501-00891100351ADDAY121999GF107991061001999999031081MD1810021+9999MW1021
0067471100999991970090319004+37550+126800FM-15+0020RKSS V0201701N001012200019N0016001N1+02301+02301999999ADDGA1041+002109079GA2081+006009059GF108991999999999999999999MW1611
0057305420999991970070121004+54850+111650FM-12+056399999V0209991C99999220001CN0500001N9+99999+99999101321ADDAY101999GF102991011001999999041011MD1210091+9999MW1021
007494646099999197007170700N-30830+128100AUST +0160YPFT V0202255N010359999999N999999999+01775+00405999999ADDAY124999GA1055+012005085GF105995054015012005999999MA1999999100275MW1025
038899999923194197004201200E+35017-110733SAO  +148899999V0202805N002652200059N011200599+00175-00285101125ADDAA101000095GA1999+076204024GA2999+999999999GA3999+999999999GA4999+999999999GD14085+9999993GD20005+9999999GD30005+9999999GD40005+9999999GF108035999999999999999999MA1999999084695EQDN01 00000JPWTH 1QNNE11 1 00510E11 1 00000E11 1 00000E11 1 00000G11U1 99999H11 1 37250H11 1 00999H11 1 00999H11 1 00999K11 1 00027L11 1 00700M11 1 25010N11 1 00000Q11 1 10112S11 1 00035V11 1 01004X11 1 28005
0057160660999991970062903004+45617+008733FM-12+021199999V0209991C00001220001CN0100001N9+01221+01001101671ADDAY101999GF100991001001999999001001MD1810081+9999MW1021
0057160900999991970112012004+45383+010867FM-12+006899999V0203001N00261220001CN0015001N9+01281+01001101101ADDAY141999GF102991001001999999001011MD1110111+9999MW1101
0073162610999991970050112004+41533+015717FM-12+005499999V0203001N00411220001CN0200001N9+01501+00281101811ADDAY101999GA1011+012009059GF103991011051012501001011MD1810051+9999MW1021
0072041650999991970080800004+66483-046283SAO  +2330DYE2 V0202401N006210006019N0002001N1-00481-00531999999ADDGA1081+000609079GF108991999999999999999999MA1999999077621MW1451MW2711
0057254560999991970082318004+65500+173283FM-12+999999999V0200501N00411004501CN0100001N9+00611+00611100431ADDAY161999GF108991081061004501999999MD1310251+9999MW1511
0068387500999991970122812004+37467+053967FM-12-002399999V0203601N00101220001CN0500001N9+01111+00391102661ADDAA199000091AY101999GF100991001001999999001001MD1710101+9999MW1021
0080484775999991970042817004+12683+101000FM-15+0018VTBU V0202001N002610900019N0112001N1+02851+02351999999ADDGA1011+006009089GA2061+090009009GF107991999999999999999999EQDQ01+000000PRSWM2
0232999999038581970081020005+33917-080800SAO  +0090MMT  V0200805N002650182949N011200599+02615+02285999999ADDGD12995+9999999GD23995+9999999GD34995+9999999GD40995+9999999GF108995999999999999999999EQDN01 00000JPWTH 1QNNE11 1 00299E11 1 00499E11 1 00699E11 1 00099G11 1 00060K11 1 00073L11 1 00700N11 1 00000S11 1 00079V11 1 01099X11 1 08005
0057218130999991970040921004+71717+124417FM-12+999999999V0209991C00001220001CN0200001N9-02111-03391101981ADDAY121999GF107991001001999999001021MD1710041+9999MW1021
0035745700138401970042805004+39817-084050SAO  +0254FFO  V0209991C000012200019N0200001N9+01331+01171999999ADDGF102991999999999999999999MW1001
0057299550999991970021815004+52817+088450FM-12+999999999V0209991C00001220001CN0500001N9-02611-02721104901ADDAY111999GF102991001001999999001021MD1410001+9999MW1021
038899999923066197004210900E+39117-108533SAO  +1476GJT  V0201405N003652200059N024000599+00175-00945100855ADDAA101000095GA1999+076204004GA2999+999999999GA3999+999999999GA4999+999999999GD14085+9999993GD20005+9999999GD30005+9999999GD40005+9999999GF108015999999999999999999MA1999999084495EQDN01 00000JPWTH 1QNNE11 1 00510E11 1 00000E11 1 00000E11 1 00000G11U1 99999H11 1 32250H11 1 00999H11 1 00999H11 1 00999K11 1 00015L11 1 01500M11 1 24950N11 1 00000Q11 1 10085S11 1 00035V11 1 01001X11 1 14007
