0057256270999991971030206004+63233+158350FM-12+999999999V0209991C00001220001CN0500001N9-03001-03501104061ADDAY101999GF100991001001999999001001MD1710161+9999MW1021
0081225500999991971011115004+64583+040500FM-12+0013ULAA V0203001N00871030001CN0190001N9+00111-00111099781ADDAA199005091AY171999GF107991031051008001051001KA1999M+00391MD1210261+9999MW1011
0113999999241931971061521005+40717-114033SAO  +1293ENV  V0201205N004159999999N999999999+02675+00175101335ADDGF100995999999999999999999MA1999999087105QNNK11 1 00035M11 1 25720Q11 1 10133S11 1 00080V11 1 00099X11 1 12008
0057107080999991971041215004+49217+007117FM-12+032299999V0200301N00411220001CN0180001N9+01501+00111101781ADDAY101031GF100991001001999999001001MD1710151+9999MW1021
0081443730999991971041312004+43583+104400FM-12+147099999V0202501N00411220001CN0500001N9+00781-00391999999ADDAA199000091AY101999GF100991001001999999001001KA1999M+01111MD1810081+9999MW1021
0269999999137541971081414005+34900-076883SAO  +0011NKT  V0203505N003650121949N011200599+02335+02115101405ADDGD12995+9999999GD22995+9999999GD33995+9999999GD40995+9999999GF107075999999999999999999MA1999999101255EQDN01 00000JPWTH 1QNNE11 1 00299E11 1 00299E11 1 00499E11 1 00099G11 1 00040K11 1 00070L11 1 00700M11 1 29900N11 1 00000Q11 1 10140S11 1 00074V11 1 00909X11 1 35007
028099999923230197103200900E+37733-122200SAO  +0002OAK  V0202205N001552200059N024000599+01395+00835101895ADDAA101000095GD10995+9999999GD20995+9999999GD30995+9999999GD40995+9999999GF100005999999999999999999MA1999999101865EQDN01 00000JPWTH 1QNNE11 1 00099E11 1 00099E11 1 00099E11 1 00099G11U1 99999K11 1 00047L11 1 01500M11 1 30080N11 1 00000Q11 1 10189S11 1 00057V11 1 00000X11 1 22003
0377999999406041971111712005+08733+167733SAO  +000399999V0200805N006252200059N032000599+02725+02335101105ADDGA1999+004274084GA2999+999999999GA3999+999999999GA4999+999999999GD12025+9999999GD20005+9999999GD30005+9999999GD40005+9999999GF102025999999999999999999MA1999999101025EQDN01 00000JPWTH 1QNNE11 1 00202E11 1 00000E11 1 00000E11 1 00000G11U1 99999H11 1 11014H11 1 00999H11 1 00999H11 1 00999K11 1 00074L11 1 02000M11 1 29830N11 1 00000Q11 1 10110S11 1 00081V11 1 00202X11 1 08012
0125311580999991971041600004+56600+136333FM-12+999999999V0209991C00001220001CN0500001N9-00392-01221101961ADDAA199000091AY101999GF100991001001999999001001HL10009IA1319IA2999-02899KA1999N-02501MD1710051+9999MW1021EQDQ01+026933ATOT  
0377999999403091971052321005+07333+134483SAO  +002799999V0202705N002650121949N022400599+02615+02445100735ADDGA1999+004574094GA2999+005494084GA3999+012194064GA4999+036584034GD12015+9999999GD22015+9999999GD33045+9999999GD44015+9999999GF108065999999999999999999MA1999999100375EQDN01 00000JPWTH 1QNNE11 1 00201E11 1 00201E11 1 00405E11 1 00601G11 1 00040H11 1 18015H11 1 11018H11 1 15040H11 1 23120K11 1 00076L11 1 01400M11 1 29640N11 1 00000Q11 1 10073S11 1 00079V11 1 01008X11 1 27005
0093257670999991971022100004+62050+175267FM-12+999999999V0203401N01181220001CN0500001N9-02111-02611101611ADDAA199000091AY101999GF100991001001999999001001HL10009IA1319IA2999-02399MD1810031+9999MW1021
0057239330999991971021909004+60967+069067FM-12+004099999V0202501N00411220001CN0500001N9-03391-03721102901ADDAY101999GF100991001001999999001001MD1310111+9999MW1021
0275999999031021971021017005+34050-117617SAO  +028999999V02099959000052200059N009600599+01615-00285102345ADDGD10995+9999999GD20995+9999999GD30995+9999999GD40995+9999999GF100005999999999999999999MA1999999098815MW1045EQDN01 08000JPWTH 1QNNE11 1 00099E11 1 00099E11 1 00099E11 1 00099G11U1 99999K11 1 00027L11 1 00600M11 1 29180N11 1 08000Q11 1 10234S11 1 00061V11 1 00000X11 1 00000
006083289099999197103122000N-13267-043417BRAZ +0440     V02036019000019999999N020000199+03421+01601100501ADDGA1011+008001231GF101991999999999999999999MA1100791095641
0122272170999991971011106004+57800+036700FM-12+014799999V0202901N00721003001CN0500001N9+00391+00111101391ADDAA199000091AY121999GA1081+003009059GF108991081051004501999999HL10009IA1199IA2999+00009KA1999N+00221MD1310041+9999MW1021
0111488550999991971071000004+16050+108200FM-15+0009VVDN V0209991C000012200019N0112001N1+02801+02411999999ADDGA1011+013509059GA2011+030009039GA3061+075009029GF107991999999999999999999MA1999999100541EQDQ01+000000PRSWM2
0095224080999991971051712004+65200+031167FM-12+011299999V0203601N00411006301CN0500001N9+00391+00001101151ADDAA106016091AA299004091AY161999GA1081+006309059GF108991081051008001999999MD1210231+9999MW1021
0081236290999991971052306004+63183+064417FM-12+999999999V0203601N00621220001CN0500001N9+00001-00611102741ADDAA199000091AY111999GF102991011011008001001011KA1999N-00281MD1210071+9999MW1021
0106299730999991971011700004+53150+094500FM-12+999999999V0209991C00001024001CN0200001N9-02221-02501103311ADDAA199000091AY121999GF108991081001999999011999HL10009IA1319IA2999-03509KA1999N-02891MD1310011+9999MW1021
0171722925931171971040409003+33017-118583SAO  +0052NUC  V0202605N001052200059N0160005N1+01335+01115101565ADDGF100005999999999999999999MA1999999100955MW1001EQDN01 00000JPWTH 1QNNG11U1 99999K11 1 00052L11 1 01000M11 1 29810N11 1 00000Q11 1 10156S11 1 00056V11 1 00000X11 1 26002
0383999999931141971020803005+33700-117833SAO  +001999999V02099959000052200059N006400599+01224+00675101854ADDGA1999+076204004GA2999+999999999GA3999+999999999GA4999+999999999GD14085+9999993GD20005+9999999GD30005+9999999GD40005+9999999GF108025999999999999999999MA1999999101664MW1055EQDN01 08100JPWTH 1QNNE11 1 00510E11 1 00000E11 1 00000E11 1 00000G11U1 99999H11 1 32250H11 1 00999H11 1 00999H11 1 00999K11 1 00044L11 1 00400M11 1 30020N11 1 08100Q11 1 10185S11 1 00054V11 1 01003X11 1 00000
0057286610999991971010821004+55467+065400FM-12+007999999V0201801N00411024001CN0020001N9-00502-01781101471ADDAY171999GF108991081001999999071999MD1710431+9999MW1731
0269999999231611971070100005+34867-116783SAO  +0588DAG  V0200505N002652200059N048000599+03675+00225100805ADDGD10995+9999999GD20995+9999999GD30995+9999999GD40995+9999999GF100005999999999999999999MA1999999094245EQDN01 00000JPWTH 1QNNE11 1 00099E11 1 00099E11 1 00099E11 1 00099G11U1 99999K11 1 00036L11 1 03000M11 1 27830N11 1 00000Q11 1 10080S11 1 00098V11 1 00000X11 1 05005
0269999999947021971020820005+41167-073133SAO  +0002BDR  V0200505N005750048849N016000599+00284+00005100684ADDGD14995+9999999GD20995+9999999GD30995+9999999GD40995+9999999GF108085999999999999999999MA1999999100614EQDN01 00000JPWTH 1QNNE11 1 00699E11 1 00099E11 1 00099E11 1 00099G11 1 00016K11 1 00032L11 1 01000M11 1 29710N11 1 00000Q11 1 10068S11 1 00037V11 1 01010X11 1 05011
0269999999422151971011607005+26267+127750SAO  +0084ROTM V0200105N004150243849N024000599+01565+01115101745ADDGD12995+9999999GD24995+9999999GD30995+9999999GD40995+9999999GF108085999999999999999999MA1999999100755EQDN01 00000JPWTH 1QNNE11 1 00299E11 1 00699E11 1 00099E11 1 00099G11 1 00080K11 1 00052L11 1 01500M11 1 29750N11 1 00000Q11 1 10174S11 1 00060V11 1 01010X11 1 01008
0117237340999991971012706004+62450+066050FM-12+003899999V0202701N00411220001CN0500001N9-00221-00281101361ADDAA106008091AA299002091AY111999GF102991001001999999001011HL10009IA1319IA2999-00509KA1999N-00281MD1210131+9999MW1011
0057234990999991971031318004+65050+098583FM-12+999999999V0209991C00001220001CN9999999N9-02391-02611103511ADDAY101999GF100991001001999999001001MD1210071+9999MW1021
0269999999412311971082723005+14800+120267SAO  +0014RPMB V0200805N002152200059N024000599+02395+02175100915ADDGD12995+9999999GD22995+9999999GD33995+9999993GD40995+9999999GF105025999999999999999999MA1999999100755EQDN01 00000JPWTH 1QNNE11 1 00299E11 1 00299E11 1 00399E11 1 00099G11U1 99999K11 1 00071L11 1 01500M11 1 29750N11 1 00000Q11 1 10091S11 1 00075V11 1 00603X11 1 08004
0068252730999991971012312004+67867+178083FM-12+999999999V0209991C00001220001CN0500001N9-02721+99999103421ADDAA199000091AY101999GF100991001001999999001001MD1210101+9999MW1021
0050701040999991971090602004+68883-166133SAO  +0004PALU V0200601N005710048019N0160001N9+00061-00111999999ADDGF108991999999999999999999MA1100311999999MW1001
0073722090999991971073016004+31883-081567SAO  +0014LHW  V0201501N003612200019N0240001N9+03061+02281999999ADDGF102991999999999999999999MA1101831999999MW1001REMAWY014TCU DSNT NE-SE
0050722597939851971111401004+32833-098050SAO  +0275MWL  V0201601N003112200019N0240001N1+02181+01191100991ADDGF100991999999999999999999MA1999999097601MW1001
0269999999137501971042622005+36950-076283SAO  +0010NGU  V0200405N005250106749N011200599+01785+00785100495ADDGD13995+9999999GD20995+9999999GD30995+9999999GD40995+9999999GF106065999999999999999999MA1999999100375EQDN01 00000JPWTH 1QNNE11 1 00499E11 1 00099E11 1 00099E11 1 00099G11 1 00035K11 1 00046L11 1 00700M11 1 29640N11 1 00000Q11 1 10049S11 1 00064V11 1 00808X11 1 04010
0269999999937381971041301005+38950-077450SAO  +008899999V0201405N003652200059N032000599+01564-00115101924ADDGD10995+9999999GD20995+9999999GD30995+9999999GD40995+9999999GF100005999999999999999999MA1999999100754EQDN01 00000JPWTH 1QNNE11 1 00099E11 1 00099E11 1 00099E11 1 00099G11U1 99999K11 1 00030L11 1 02000M11 1 29750N11 1 00000Q11 1 10192S11 1 00060V11 1 00000X11 1 14007
0037488962999991971062406004+10967+106817FM-15+0011VVBH V0202701N00461030001CN0112001N1+03461+02461999999ADDMA1999999100581EQDQ01+000000PRSWM2
0377999999617051971121203005-14333-170717SAO  +000399999V0203005N005250274349N024000599+02895+02335100635ADDGA1999+006404084GA2999+027434034GA3999+076204004GA4999+999999999GD12045+9999999GD23025+9999999GD34075+9999999GD40005+9999999GF108065999999999999999999MA1999999100615EQDN01 00000JPWTH 1QNNE11 1 00205E11 1 00402E11 1 00609E11 1 00000G11 1 00090H11 1 11021H11 1 23090H11 1 32250H11 1 00999K11 1 00074L11 1 01500M11 1 29710N11 1 00000Q11 1 10063S11 1 00084V11 1 01007X11 1 30010
0057315130999991971022706004+50917+128467FM-12+017899999V0203401N00311220001CN0500001N9-01891-02721103001ADDAY101999GF100991001001999999001001MD1210051+9999MW1021
0053035623999991971042815004+52367-000217FM-15+0049EGWZ V0209991V00101220001CN0100001N9+01201+00101999999ADDGA1041+009009059MA1102101999999MW1001REMMET004R///
0081347120999991971012218004+47067+037500FM-12+000899999V0200501N00721220001CN0180001N9+00111-00111102291ADDAA199000091AY101999GF100991001001999999001001KA1999M+00221MD1210041+9999MW1021
0269999999931141971081704005+33700-117833SAO  +001999999V0202305N003152200059N016000599+02224+01785101304ADDGD10995+9999999GD20995+9999999GD30995+9999999GD40995+9999999GF100005999999999999999999MA1999999101084EQDN01 00000JPWTH 1QNNE11 1 00099E11 1 00099E11 1 00099E11 1 00099G11U1 99999K11 1 00064L11 1 01000M11 1 29850N11 1 00000Q11 1 10130S11 1 00072V11 1 00000X11 1 23006
030799999924157197101180600E+47633-117533SAO  +0718GEG  V0201605N004650274349N040000599+00335+00175102245ADDAA101000095GA1999+027434034GD14085+9999999GD20995+9999999GD30995+9999999GD40995+9999999GF108085999999999999999999MA1999999093705EQDN01 00000JPWTH 1QNNE11 1 00610E11 1 00099E11 1 00099E11 1 00099G11 1 00090H11 1 23090K11 1 00035L11 1 02500M11 1 27670N11 1 00000Q11 1 10224S11 1 00038V11 1 01010X11 1 16009
0068386130999991971050512004+40917+072950FM-12+077199999V0202301N00211090001CN0500001N9+02611+00501102571ADDAA199000091AY111999GF107991011021012501001021MD1710091+9999MW1021
0275999999137501971052602005+36950-076283SAO  +0010NGU  V0201905N006750762049N008000599+02285+01445101375ADDGD12995+9999999GD23995+9999999GD30995+9999999GD40995+9999999GF106055999999999999999999MA1999999101255MW1055EQDN01 08100JPWTH 1QNNE11 1 00299E11 1 00499E11 1 00099E11 1 00099G11 1 00250K11 1 00058L11 1 00500M11 1 29900N11 1 08100Q11 1 10137S11 1 00073V11 1 00706X11 1 19013
0081275090999991971052018004+55517+036000FM-12+018299999V0202001N00211220001CN0210001N9+01781+00611101011ADDAA199000091AY101999GF102991001001999999001021KA1999M+02501MD1610051+9999MW1031
0057166990999991971031715004+38317+023533FM-12+014099999V0202301N00721220001CN0150001N9+01611+00501100571ADDAY111999GF102991021011012501001001MD1210021+9999MW1011
006694653099999197107021130N-32130+133720AUST +0017YPCD V0201355N001559999999N999999999+00945+00705999999ADDGA1005+999999999GF100995004999999999999999MA1999999102125MW1415
0393999999931021971042500005+39417-118717SAO  +1199NFL  V0200305N006750091449N024000599+00834-00065100654ADDGA1999+004574154GA2999+009144064GA3999+036584044GA4999+999999999GD12035+9999999GD23035+9999999GD34025+9999999GD40005+9999999GF108075999999999999999999MA1999999087134EQDN01 05000JPWTH 1P01    852PRSWM1QNNE11 1 00204E11 1 00404E11 1 00602E11 1 00000G11 1 00030H11 1 17015H11 1 15030H11 1 21120H11 1 00999K11 1 00031L11 1 01500M11 1 25730N11 1 05000Q11 1 10065S11 1 00047V11 1 01009X11 1 03013
0037488962999991971062105004+10967+106817FM-15+0011VVBH V0203001N00101030001CN0112001N1+03131+02461999999ADDMA1999999100511EQDQ01+000000PRSWM2
039499999913893197106060000E+35050-089983SAO  +007999999V0202205N004152200059N008000599+03005+02065101755ADDAA101000095GA1999+999999094GA2999+015244084GA3999+076204004GA4999+999999999GD12005+9999999GD22015+9999999GD30025+9999999GD40005+9999999GF102025999999999999999999MA1999999100755MW1045EQDN01 08200JPWTH 1QNNE11 1 00200E11 1 00201E11 1 00002E11 1 00000G11U1 99999H11 1 18999H11 1 11050H11 1 32250H11 1 00999K11 1 00069L11 1 00500M11 1 29750N11 1 08200Q11 1 10175S11 1 00086V11 1 00302X11 1 22008
0050725068999991971013009004+41650-070517SAO  +0043FMH  V0201701N008210075019N0112001N1+00411+00081099141ADDGF108991999999999999999999MA1999999098651MW1611
006391182022521197110230100D+21333-157917SAO  +0003PHNL V0200701N010310840019N0480001N9+02831+01721101821ADDAA101000095GF107991999999999999999999MA1101831999999OC101441
0057268980999991971040815004+53333+034233FM-12+016299999V0201601N00411220001CN0500001N9+00501-00721103081ADDAY111999GF107991001001999999001021MD1710131+9999MW1021
0081249880999991971040512004+60083+142333FM-12+019899999V0209991C00001220001CN0500001N9-00611-01111101001ADDAA199000091AY111999GF103991031001999999041001KA1999M+00111MD1210191+9999MW1011
0068338390999991971051300004+46350+030700FM-12+999999999V0202501N00311220001CN0100001N9+01611+00891101771ADDAA199000091AY101999GF101991011001999999041001MD1810111+9999MW1021
0281703500255011971021123005+57750-152500SAO  +0004ADQ  V0200205N009350024449N003200599+00225+00115098755ADDGD14995+9999999GD20995+9999999GD30995+9999999GD40995+9999999GF108085999999999999999999MA1999999098315MW1615MW2715EQDN01 02040JPWTH 1QNNE11 1 00699E11 1 00099E11 1 00099E11 1 00099G11 1 00008K11 1 00034L11 1 00200M11 1 29030N11 1 02040Q11 1 09875S11 1 00036V11 1 01010X11 1 02018
0057357460999991971043018004+46783+061667FM-12+005699999V0200701N00411220001CN0350001N9+01501+00001102391ADDAY101999GF100991001001999999001001MD1310061+9999MW1021
0057314820999991971022615004+52717+135900FM-12+013199999V0209991C00001220001CN0200001N9-02221-02721102371ADDAY121999GF108991001001999999001071MD1310011+9999MW1021
009094999900013197101200100N-21670+115120AUST +0005     V0200905N004159999999N999999999+03765+01505999999ADDAY124999GA1005+999999999GA2015+999999045GF101995004999999999035999MA1999999100405MW1015
0232999999139931971011918005+39767-094917SAO  +024799999V0203005N002152200059N024000599-01005-01945999999ADDGD10995+9999999GD20995+9999999GD30995+9999999GD40995+9999999GF100005999999999999999999EQDN01 00000JPWTH 1QNNE11 1 00099E11 1 00099E11 1 00099E11 1 00099G11U1 99999K11 1-00003L11 1 01500N11 1 00000S11 1 00014V11 1 00000X11 1 30004
0009700260275021971120402004+71300-156783SAO  +0004BRW  V02099999999999999999N0000001N1+99999+99999999999ADDMW1001
0070276790999991971031218004+54850+046600FM-12+010799999V0201801N00211220001CN0150001N9-00781-01221101321ADDAY101999GF103991031001999999051001KA1999M-00221MD1210191+9999MW1021
0069785140999991971052213004+18500-067133SAO  +0075TJBQ V0201101N000512200019N0240001N1+02961+02131101431ADDGF102991999999999999999999MA1999999100611MW1001EQDQ01+999990APOSLP
0165999999031241971010512005+31567-110333SAO  +1422FHU  V02099959000052200059N024000599-00895-01565101605ADDGF100005999999999999999999MA1999999085515EQDN01 00000JPWTH 1QNNG11U1 99999K11 1 00004L11 1 01500M11 1 25250N11 1 00000Q11 1 10160S11 1 00016V11 1 00000X11 1 00000
0053489000999991971022010004+10817+106667FM-15+0019VVTS V0201601N004619999999N0112001N1+03071+02071100731ADDMA1999999100641EQDQ01+999990APOSLPQ02+000000PRSWM2
0057292240999991971010903004+58067+080583FM-12+999999999V0202001N00101220001CN0400001N9-03221-03391101511ADDAY101999GF101991001001999999001021MD1310131+9999MW1031
0057363250999991971031306004+50333+098333FM-12+999999999V0209991C00001220001CN0500001N9-00781-01891103591ADDAY101999GF100991001001999999001001MD1710211+9999MW1021
0053484560999991971121310004+13917+100600FM-15+0004VTBD V0203601N002119999999N0112001N1+02741+02131101201ADDMA1999999101151EQDQ01+999990APOSLPQ02+000000PRSWM2
0269999999147931971052708005+40200-075150SAO  +0102NXX  V02099959000052200059N016000599+01175+00505101815ADDGD12995+9999999GD20995+9999999GD30995+9999999GD40995+9999999GF102025999999999999999999MA1999999100445EQDN01 00000JPWTH 1QNNE11 1 00299E11 1 00099E11 1 00099E11 1 00099G11U1 99999K11 1 00041L11 1 01000M11 1 29660N11 1 00000Q11 1 10181S11 1 00053V11 1 00202X11 1 00000
0108339830999991971020918004+45367+036433FM-12+999999999V0202901N01491005101CN0100001N9-00611-00891100991ADDAA106002091AA299000591AY181999GA1051+005109099GF106991061091004501001001KA1999M+00221MD1210351+9999MW1021
0057297720999991971010806004+54650+093383FM-12+999999999V0202501N00821012301CN0020001N9-00781-01221101361ADDAY171999GF108991081091012501999999MD1210151+9999MW1861
0081298480999991971041512004+53467+085917FM-12+027099999V0202701N00101220001CN0240001N9+00891-00111102351ADDAA199000091AY101999GF100991001001999999001001KA1999M+01001MD1310021+9999MW1021
0057280440999991971051621004+59600+060533FM-12+013299999V0203601N00621007801CN0040001N9+00781+00391099731ADDAY121999GF107991071051008001001001MD1210051+9999MW1021
009094975099999197104090800N-42830+147520AUST +0003YMHB V0200685N002659999999N999999999+01615+01105999999ADDAY124999GA1015+003605075GA2025+012005065GF102995014065003605999999MA1999999102035MW1025
0057470350999991971082703004+40100+124383FM-12+000899999V0209999999999012301CN0200001N9+02501+01891101341ADDAY121999GF107991071081012501001091MD1210101+9999MW1031
0057248260999991971012803004+61550+114500FM-12+999999999V0209991C00001220001CN0500001N9+99999+99999103971ADDAY171999GF106991001001999999001011MD1810091+9999MW1021
0037488896999991971042916004+11633+108950FM-15+0034VVPA V0209991C00001220001CN0112001N1+02741+02631999999ADDMA1999999100411EQDQ01+000000PRSWM2
0092250620999991971050400004+69883+176050FM-12+999999999V0202901N00981002401CN0090001N9-01111-01221101841ADDAA106002091AA299000591AY171999GF108991081051002501999999KA1999N-01891MD1710141+9999MW1711
0081324770999991971020309004+54283+155650FM-12+999999999V0200701N00211220001CN0500001N9-01281-01781102291ADDAA199000091AY121999GF106991001001999999001061KA1999M-00281MD1410001+9999MW1021
0165999999938321971062909005+99999+999999SAO  +999999999V02099959000052200059N011200599+02224+02065101674ADDGF100005999999999999999999MA1999999101394EQDN01 00000JPWTH 1QNNG11U1 99999K11 1 00069L11 1 00700M11 1 29940N11 1 00000Q11 1 10167S11 1 00072V11 1 00000X11 1 00000
0086434500999991971040103004+07167+079883FM-12+000899999V0209991C00001220001CN0160001N9+02721+02281101081ADDAY101999GA1011+005409089GF102991011021004501041001KA1999N+02391MD1999999-0121MW1031
017699999924233197111170900E+47450-122300SAO  +0122SEA  V0201405N001552200059N011200599+00395+00285103215ADDAA101000095GF100005999999999999999999MA1999999101525EQDN01 00000JPWTH 1QNNG11U1 99999K11 1 00037L11 1 00700M11 1 29980N11 1 00000Q11 1 10321S11 1 00039V11 1 00000X11 1 14003
0057200870999991971011009004+79550+090617FM-12+000399999V0209999C00001220001CN0400001N9-03501-03781100981ADDAY111999GF107991001001999999001011MD1810021+9999MW1031
0057259040999991971030603004+60550+150467FM-12+999999999V0200201N006219999999N0200001N9-01501-02221999999ADDAY131999GF107991021001999999041011MD1610231+9999MW1381
0073232260999991971031909004+67483+064017FM-12+018099999V0200901N00411004801CN0070001N9-01391-01611101321ADDAY171999GA1061+004809059GF108991061051004501011999MD1210041+9999MW1711
0073269290999991971052200004+52550+024467FM-12+999999999V0209991C00001004501CN0150001N9+01281+00781100531ADDAY191999GA1999+003609999GF107991071031004501001001MD1710011+9999MW1021
0057442980999991971010503004+46450+108217FM-12+128599999V0203601N00411220001CN0500001N9-02001-02391102841ADDAY121999GF106991001001999999001021MD1210161+9999MW1031
017699999903103197107012100E+35133-111667SAO  +2135FLG  V0202205N004152200059N024000599+02615-00505101455ADDAA101000095GF100005999999999999999999MA1999999079045EQDN01 00000JPWTH 1QNNG11U1 99999K11 1 00023L11 1 01500M11 1 23340N11 1 00000Q11 1 10145S11 1 00079V11 1 00000X11 1 22008
038899999924134197101270000E+43583-119050SAO  +12624BW  V02099959000052200059N096000599+01065+00115102865ADDAA101000095GA1999+076204004GA2999+999999999GA3999+999999999GA4999+999999999GD11025+9999993GD20005+9999999GD30005+9999999GD40005+9999999GF102005999999999999999999MA1999999088285EQDN01 00000JPWTH 1QNNE11 1 00103E11 1 00000E11 1 00000E11 1 00000G11U1 99999H11 1 32250H11 1 00999H11 1 00999H11 1 00999K11 1 00034L11 1 06000M11 1 26070N11 1 00000Q11 1 10286S11 1 00051V11 1 00300X11 1 00000
0068371450999991971013000004+43733+044667FM-12+013299999V0200701N00101220001CN0040001N9-00391-00611102471ADDAA199000091AY101061GF100991001001999999001001MD1210101+9999MW1101
0043332030999991971011721004+51117+027667FM-12+999999999V0202301N002119999999N0060001N9+00111-00111101691ADDAY121999GF108991081051999999999999MW1101
0394722630230341971101809003+31367-100500SAO  +0582SJT  V0202105N007250073259N0192005N1+02335+01945100505ADDAA101000095GA1021+004575065GA2061+007325065GA3999+999999999GA4999+999999999GD12025+9999999GD23065+9999999GD30005+9999999GD40005+9999999GF106065999999999999999999MA1999999094045MW1001EQDN01 00000JPWTH 1QNNE11 1 00202E11 1 00407E11 1 00000E11 1 00000G11 1 00024H11 1 15015H11 1 15024H11 1 00999H11 1 00999K11 1 00067L11 1 01200M11 1 27770N11 1 00000Q11 1 10050S11 1 00074V11 1 00707X11 1 21014
0024484775999991971102921004+12683+101000FM-15+0018VTBU V0209991V003119999999N0112001N1+02461+02131101041ADDMA1999999100851MW1801
028099999924011197101162300E+46767-100750SAO  +050299999V0200905N003150243849N016000599-01225-01505102175ADDAA101000095GD12995+9999999GD23995+9999999GD34995+9999999GD40995+9999999GF108075999999999999999999MA1999999095805EQDN01 00000JPWTH 1QNNE11 1 00299E11 1 00499E11 1 00699E11 1 00099G11 1 00080K11 1 00005L11 1 01000M11 1 28290N11 1 00000Q11 1 10217S11 1 00010V11 1 01009X11 1 09006
0269999999240251971013106005+44383-100283SAO  +0528PIR  V0203205N007250274349N024000599-01615-02335102405ADDGD14995+9999999GD20995+9999999GD30995+9999999GD40995+9999999GF108085999999999999999999MA1999999095805EQDN01 00000JPWTH 1QNNE11 1 00699E11 1 00099E11 1 00099E11 1 00099G11 1 00090K11 1-00010L11 1 01500M11 1 28290N11 1 00000Q11 1 10240S11 1 00003V11 1 01010X11 1 32014
0383999999232391971112321005+37733-122317SAO  +0005NGZ  V0203405N003152200059N004800599+01335+00565102245ADDGA1999+004574074GA2999+036584034GA3999+076204004GA4999+999999999GD12015+9999999GD22025+9999999GD32015+9999999GD40005+9999999GF103025999999999999999999MA1999999102205MW1045EQDN01 08200JPWTH 1QNNE11 1 00201E11 1 00202E11 1 00201E11 1 00000G11U1 99999H11 1 16015H11 1 23120H11 1 32250H11 1 00999K11 1 00042L11 1 00300M11 1 30180N11 1 08200Q11 1 10224S11 1 00056V11 1 00403X11 1 34006
0057356710999991971022209004+47800+067717FM-12+034599999V0200901N01181220001CN0200001N9-01221-01781102321ADDAY121999GF108991001001999999001071MD1710181+9999MW1031
0057302300999991971031103004+57767+108117FM-12+026199999V0209991C00001024001CN0500001N9-02221-02281999999ADDAY121999GF107991051001999999041021MD1210031+9999MW1021
0271999999263941971060402005+69450-133000SAO  +0006CYUB V02031559004652200059N024000599+00335+00225101675ADDGA1999+004574084GA2999+015244034GD19015+9999999GD29015+9999999GF102025999999999999999999MA1999999101465EQDN01 00000JPWTH 1QNNE11 1 09901E11 1 09901G11U1 99999H11 1 11015H11 1 23050K11 1 00036L11 1 01500M11 1 29960N11 1 00000Q11 1 10167S11 1 00038V11 1 00202W11 1 88009
0383999999138801971090121005+32900-080033SAO  +0012CHS  V0200905N006752200059N004800599+02835+02065101905ADDGA1999+009144084GA2999+076204024GA3999+999999999GA4999+999999999GD12015+9999999GD24085+9999993GD30005+9999999GD40005+9999999GF108035999999999999999999MA1999999101735MW1055EQDN01 08100JPWTH 1QNNE11 1 00201E11 1 00510E11 1 00000E11 1 00000G11U1 99999H11 1 11030H11 1 37250H11 1 00999H11 1 00999K11 1 00069L11 1 00300M11 1 30040N11 1 08100Q11 1 10190S11 1 00083V11 1 01004X11 1 09013
005083981099999197107201100N-31350-054117BRAZ +0180SBBG V02035019003119999999N008000199+01721+01101101381ADDGF100991999999999999999999MA1101451099301MW1041
005994999900138197111042300N-21030+141800AUST +0144     V0200685N003159999999N999999999+02945+01205999999ADDAY104999GA1005+999999999GF100995004999999999999999MW1005
0070161100999991971020506004+45650+013750FM-12+002099999V0200601N00361220001CN0250001N9+00391-00891102971ADDAY101999GF100991001001999999001001KA1999N+00391MD1310101+9999MW1021
0103356710999991971032618004+47800+067717FM-12+034599999V0200701N00981220001CN0500001N9-00111-00611103011ADDAA199000091AY111999GA1041+006309009GF199999021051004501001001MD1210051+9999MW1011EQDQ01+000022SCOTCV
0037488676999991971060414004+13950+109050FM-15+0034VVPU V0202401N00361220001CN0112001N1+02961+02461999999ADDMA1999999100411EQDQ01+000000PRSWM2
038899999924131197103090000E+43567-116217SAO  +0865BOI  V0203305N004152200059N048000599+01005-00785101885ADDAA101000095GA1999+076204004GA2999+999999999GA3999+999999999GA4999+999999999GD11025+9999993GD20005+9999999GD30005+9999999GD40005+9999999GF102005999999999999999999MA1999999091675EQDN01 00000JPWTH 1QNNE11 1 00103E11 1 00000E11 1 00000E11 1 00000G11U1 99999H11 1 32250H11 1 00999H11 1 00999H11 1 00999K11 1 00018L11 1 03000M11 1 27070N11 1 00000Q11 1 10188S11 1 00050V11 1 00300X11 1 33008
0081723810231141971081000004+34900-117867SAO  +0702EDW  V0200301N002112200019N0480001N9+04061+00831100751ADDGF102991999999999999999999MA1101121092991MD1710221+9999REMAWY014TCU N/722 1242
0117292740999991971010100004+58083+093000FM-12+008999999V0209991C00001220001CN0200001N9-03001-03221103961ADDAA106001091AA299000391AY101999GF100991001001999999001001HL10009IA1319IA2999-03399KA1999N-03001MD1210041+9999MW1021
0085722210138581971103021004+30483-086517SAO  +0026VPS  V0200501N005710090019N0208001N9+02721+02001101451ADDGF107991999999999999999999MA1101461101121MD1810081+9999MW1001REMAWY012?V%/808 1500
0092256770999991971010606004+63050+179150FM-12+000199999V0202301N01591024001CN0160001N9-00281-00391102221ADDAA106001091AA299000391AY171999GF106991061001999999071001KA1999M-00221MD1710011+9999MW1371
0079107520999991971070806004+49467+010383FM-15+0325EDIK V0209991C00001220001CN0090001N9+01701+01201999999ADDGF100991999999999999999999MA1102781098881MW1441REMMET020NS/HZ PRSNT/90500 24
006694967099999197111130500N-43500+147150AUST +0053     V0201355N005159999999N999999999+01115+99999999999ADDGA1085+003005065GF108995084055003005999999MA1999999100295MW1025
0079355820999991971042900004+48667+071633FM-12+999999999V0209991C00001220001CN0100001N9+00281+00221102151ADDAA106002091AA299000591AY111999GF103991001001999999001021MD1810021+9999MW1021
0269999999148501971062821005+44733-085583SAO  +0188TVC  V0202205N005252200059N016000599+03725+01785101255ADDGD10995+9999999GD20995+9999999GD30995+9999999GD40995+9999999GF100005999999999999999999MA1999999099025EQDN01 00000JPWTH 1QNNE11 1 00099E11 1 00099E11 1 00099E11 1 00099G11U1 99999K11 1 00064L11 1 01000M11 1 29240N11 1 00000Q11 1 10125S11 1 00099V11 1 00000X11 1 22010
0123379850999991971011006004+38733+048833FM-12-001199999V0202701N00101012301CN0200001N9+00111-00111102711ADDAA199000091AJ100009199999999AY111061GF107991071051012501001001HL10009IA1139IA2999-00399KA1999N-00221MD1710021+9999MW1031
0019477710999991971040223004+34783+135433FM-15+0015RJOO V0200701N001019999999N0096001N1+01021+00191999999EQDQ01+000000PRSWM2
0124722265138211971020605004+32383-086367SAO  +0055MXF  V0203301N001012200019N0240001N9+00441+00221999999ADDGF100991999999999999999999MA1101391999999REMAWY071CLR                                                             K ALQDS
028099999912839197108281100E+25800-080267SAO  +0004MIA  V0202305N002152200059N016000599+02505+02395101455ADDAA101000095GD11995+9999993GD20995+9999999GD30995+9999999GD40995+9999999GF102015999999999999999999MA1999999101425EQDN01 00000JPWTH 1QNNE11 1 00199E11 1 00099E11 1 00099E11 1 00099G11U1 99999K11 1 00075L11 1 01000M11 1 29950N11 1 00000Q11 1 10145S11 1 00077V11 1 00201X11 1 23004
0081351080999991971052103004+51250+051400FM-12+003699999V0201801N00411220001CN0100001N9+01501+01001101771ADDAA199000091AY101999GF102991001001999999001011KA1999N+01221MD1510001+9999MW1021
0165999999931071971110209005+32867-117133SAO  +0140NKX  V0200905N002152200059N016000599+00784-00335101834ADDGF100005999999999999999999MA1999999100144EQDN01 00000JPWTH 1QNNG11U1 99999K11 1 00026L11 1 01000M11 1 29570N11 1 00000Q11 1 10183S11 1 00046V11 1 00000X11 1 09004
038899999924156197108060600E+42917-112600SAO  +135699999V0201805N002650762049N024000599+02285+01115101105ADDAA101000095GA1999+999999094GA2999+030484034GA3999+076204004GA4999+999999999GD12005+9999999GD23025+9999999GD30055+9999999GD40005+9999999GF106055999999999999999999MA1999999086325EQDN01 00000JPWTH 1QNNE11 1 00200E11 1 00402E11 1 00006E11 1 00000G11 1 00250H11 1 18999H11 1 23100H11 1 32250H11 1 00999K11 1 00052L11 1 01500M11 1 25490N11 1 00000Q11 1 10110S11 1 00073V11 1 00806X11 1 18005
038899999913988197103030000E+39117-094600SAO  +0226MKC  V0200105N007750762049N016000599-00175-00945102705ADDAA101000095GA1999+076204024GA2999+999999999GA3999+999999999GA4999+999999999GD14085+9999999GD20005+9999999GD30005+9999999GD40005+9999999GF108065999999999999999999MA1999999099865EQDN01 00000JPWTH 1QNNE11 1 00610E11 1 00000E11 1 00000E11 1 00000G11 1 00250H11 1 37250H11 1 00999H11 1 00999H11 1 00999K11 1 00015L11 1 01000M11 1 29490N11 1 00000Q11 1 10270S11 1 00029V11 1 01008X11 1 01015
007494693099999197101101100N-34230+142080AUST +0053YMMI V0209999C000059999999N999999999+02445+00605999999ADDAY124999GA1005+999999999GF100995004999999999999999MA1999999100515MW1025
0070319810999991971011909004+43967+133067FM-12+019099999V0209991C00001220001CN0200001N9-01281-01611103251ADDAY101999GF100991001001999999001001KA1999M-00781MD1710041+9999MW1021
0048474300999991971090718004+41817+140750FM-15+003699999V0200701N002619999999N0096001N1+01741+01411101301ADDGF108991999999999999999999EQDQ01+000000PRSWM2
0269999999149201971020312005+43867-091250SAO  +0198LSE  V0200905N002650131149N016000599-00895-01285102615ADDGD14995+9999999GD20995+9999999GD30995+9999999GD40995+9999999GF108085999999999999999999MA1999999100005EQDN01 00000JPWTH 1QNNE11 1 00699E11 1 00099E11 1 00099E11 1 00099G11 1 00043K11 1 00009L11 1 01000M11 1 29530N11 1 00000Q11 1 10261S11 1 00016V11 1 01010X11 1 09005
0018107340999991971100603004+49400+008650FM-15+0110EDIE V0201001N00361220001CN0112001N1+00741+00131103531ADDMA1999999102201
0128239920999991971061100004+60717+097500FM-12+999999999V0209991C00001012301CN0500001N9+01001+00781101021ADDAA106002091AA299000591AJ100009199999999AY121999GF107991061051012501041001HL10009IA2999+00729KA1999N+00721MD1210081+9999MW1021
017699999924233197109191200E+47450-122300SAO  +0122SEA  V0200905N002652200059N024000599+01065+00895101885ADDAA101000095GF100005999999999999999999MA1999999100245EQDN01 00000JPWTH 1QNNG11U1 99999K11 1 00048L11 1 01500M11 1 29600N11 1 00000Q11 1 10188S11 1 00051V11 1 00000X11 1 09005
0165999999231571971091803005+37367-118367SAO  +1253BIH  V02099959000052200059N032000599+02065-01115101325ADDGF100005999999999999999999MA1999999087405EQDN01 00000JPWTH 1QNNG11U1 99999K11 1 00012L11 1 02000M11 1 25810N11 1 00000Q11 1 10132S11 1 00069V11 1 00000X11 1 00000
0050710450999991971102522004+60167-132750SAO  +0705CYZW V0201801N010312200019N0320001N1-00591-00921100831ADDGF102991999999999999999999MA1999999100751MW1001
0057305670999991971032018004+54267+115333FM-12+999999999V0209991C00001220001CN0500001N9-01781-01891102121ADDAY121999GF108991001001999999001071MD1210171+9999MW1021
010694326599999197112271130N-23820+133900AUST +0545YBAS V0201355N002659999999N999999999+02895+00405999999ADDAY154999GA1005+999999999GA2015+999999045GA3055+999999999GF105995004999999999035085MA1999999094725MW1055
017699999913958197112211200E+30300-097700SAO  +018399999V0202905N003152200059N022400599+00785+00335101755ADDAA101000095GF100005999999999999999999MA1999999099535EQDN01 00000JPWTH 1QNNG11U1 99999K11 1 00038L11 1 01400M11 1 29390N11 1 00000Q11 1 10175S11 1 00046V11 1 00000X11 1 29006
039491190322516197109120000C+20900-156433SAO  +0015OGG  V0200405N010350182949N0560005N1+03005+01895101445ADDAA101000095GA1999+007509084GA2051+018294064GA3021+085344004GA4999+999999999GD13005+9999999GD23055+9999999GD30025+9999999GD40005+9999999GF106055999999999999999999MA1999999101225MW1001EQDN01 00000JPWTH 1QNNE11 1 00400E11 1 00406E11 1 00002E11 1 00000G11 1 00060H11 1 11999H11 1 15060H11 1 32280H11 1 00999K11 1 00066L11 1 03500M11 1 29890N11 1 00000Q11 1 10144S11 1 00086V11 1 00706X11 1 04020
0070722686230081971030819004+34383-103317SAO  +1309CVS  V0202301N006212200019N0480001N9+01611-01281999999ADDGF100991999999999999999999MA1101391999999MW1001REMAWY011WND 210V260
0050489550999991971031002004+15133+105783SAO  +0102VLIP V0201101N001512200019N0240001N1+02631+01801999999ADDGF100991999999999999999999MA1999999100441MW1001
0165999999128501971031112005+24583-081683SAO  +0007NQX  V02099959000052200059N011200599+02005+01945101665ADDGF100005999999999999999999MA1999999101635EQDN01 00000JPWTH 1QNNG11U1 99999K11 1 00067L11 1 00700M11 1 30010N11 1 00000Q11 1 10166S11 1 00068V11 1 00000X11 1 00000
0057313000999991971052215004+53750+127233FM-12+0232ZEYA V0200501N00411220001CN0500001N9+01281+00281100651ADDAY111999GF100991001001999999001001MD1210091+9999MW1011
0069724567139211971021019004+39367-094917SAO  +0238FLV  V0201601N004610750019N0112001N1+00191-00481101391ADDGF108991999999999999999999MA1999999098541MW1001EQDQ01+999990APOSLP
0117250420999991971021021004+69750+167667FM-12+001099999V0200701N00411024001CN0200001N9-02721-02721103231ADDAA106004091AA299001091AY121999GF108991061001999999031999HL10009IA1209IA2999-02789KA1999N-02721MD1310101+9999MW1021
0127467700999991971060518004+24267+120617FM-15+0005RCMQ V0201901N005110036019N0112001N1+02521+02241100491ADDGA1061+003609059GA2021+030009039GA3031+060009029GF107991999999999999999999MA1999999098171EQDQ01+999990APOSLPQ02+000000PRSWM2
0068353610999991971031800004+50133+065233FM-12+014299999V0202901N00511220001CN0250001N9-01111-01221102851ADDAA199000091AY101999GF103991001001999999001051MD1210241+9999MW1021
0127263260999991971012918004+57317+024417FM-12+001099999V0203201N00311001501CN0080001N9+00001+00001101251ADDAA106004091AA299001091AY171999GA1071+001509079GF108991999071001501021999KA1999M+00221MD1210071+9999MW1711EQDQ01+000082SCOTLC
009094999900091197112290830N-30470+138420AUST +0193     V0202255N005159999999N999999999+03215-00805999999ADDAY154999GA1005+999999999GA2075+999999035GF107995004999999999075999MA1999999098285MW1055
0037368190999991971031203004+44133+075850FM-12+999999999V0203201N99999220001CN0500001N9+99999+99999101081ADDAY101999GF199999001001999999001051
035272528014733197108270600C+42933-078733SAO  +0215BUF  V0201005N004150213449N0096005N1+01895+01785101545ADDAA101000395GA1051+021344034GA2031+033534034GD13055+9999999GD24035+9999999GD30995+9999999GD40995+9999999GF108085999999999999999999MA1999999099025MW1111MW2445MW3615EQDN01 02072JPWTH 1QNNE11 1 00406E11 1 00604E11 1 00099E11 1 00099G11 1 00070H11 1 23070H11 1 23110K11 1 00064L11 1 00600M11 1 29240N11 1 02072Q11 1 10154S11 1 00066V11 1 01010X11 1 10008
0057364420999991971040606004+49800+086500FM-12+999999999V0202301N00311220001CN0500001N9-01391-01391103031ADDAY111999GF104991031051999999001021MD1210111+9999MW1011
0057295570999991971012606004+55750+088150FM-12+018999999V0202301N00511220001CN0200001N9-00721-01391103431ADDAY111999GF108991001001999999001071MD1810071+9999MW1021
0057296980999991971050103004+54883+099033FM-12+041099999V0203201N00211220001CN0500001N9+00611-01221102601ADDAY101999GF100991001001999999001001MD1810021+9999MW1021
0377999999116301971080300005+18250-065633SAO  +001199999V0200405N002152200059N012800599+02725+02335101675ADDGA1999+006104084GA2999+999999999GA3999+999999999GA4999+999999999GD12015+9999999GD20005+9999999GD30005+9999999GD40005+9999999GF101015999999999999999999MA1999999101565EQDN01 00000JPWTH 1QNNE11 1 00201E11 1 00000E11 1 00000E11 1 00000G11U1 99999H11 1 11020H11 1 00999H11 1 00999H11 1 00999K11 1 00074L11 1 00800M11 1 29990N11 1 00000Q11 1 10167S11 1 00081V11 1 00101X11 1 04004
005194999900133197105112330N-36950+139580AUST +0014     V0202485N011359999999N999999999+01505+01405999999ADDGA1075+006005065GF107995074055006005999999MW1165
030799999993805197105121800E+30383-084367SAO  +0017TLH  V0201605N008250057949N011200599+02674+01945101044ADDAA101000095GA1999+005794064GD14085+9999999GD20995+9999999GD30995+9999999GD40995+9999999GF108085999999999999999999MA1999999100814EQDN01 00000JPWTH 1QNNE11 1 00610E11 1 00099E11 1 00099E11 1 00099G11 1 00019H11 1 15019K11 1 00067L11 1 00700M11 1 29770N11 1 00000Q11 1 10104S11 1 00080V11 1 01010X11 1 16016
0081314430999991971010215004+51633+128650FM-12+016399999V0200201N00101220001CN0500001N9-03611-03781103191ADDAA199000091AY101999GF100991001001999999001001KA1999M-02501MD1210041+9999MW1021
0057308120999991971022706004+51650+103733FM-12+046499999V0200201N00311220001CN0200001N9-02221-02611103581ADDAY111999GF106991001001999999001011MD1810031+9999MW1021
0081277600999991971021718004+54183+045183FM-12+020199999V0209991C00001220001CN0070001N9-02111-02391103341ADDAA199000091AY101999GF100991001001999999001001KA1999M-01721MD1210021+9999MW1101
0068343570999991971040512004+49567+042750FM-12+012999999V0201101N01181090001CN0200001N9+01001+00221102411ADDAA199000091AY121999GF107991021011012501001051MD1710131+9999MW1031
0269999999242831971090606005+40983-124100SAO  +0062ACV  V0203405N004150048849N011200599+01505+01335101325ADDGD13995+9999999GD23995+9999999GD30995+9999999GD40995+9999999GF106045999999999999999999MA1999999100515EQDN01 00000JPWTH 1QNNE11 1 00499E11 1 00499E11 1 00099E11 1 00099G11 1 00016K11 1 00056L11 1 00700M11 1 29680N11 1 00000Q11 1 10132S11 1 00059V11 1 00805X11 1 34008
007494367099999197112210500N-21120+149220AUST +0031YBMK V0201355N007259999999N999999999+02895+02205999999ADDAY154999GA1025+009005085GF102995024025009005999999MA1999999100315MW1055
007494332099999197101172000N-20670+139480AUST +0342YBMA V0201585N002159999999N999999999+02805+00305999999ADDAY154999GA1005+999999999GF100995004999999999999999MA1999999096985MW1055
007494999900072197107272030N-16270+133380AUST +0214     V0209999C000059999999N999999999+00725-00405999999ADDAY124999GA1005+999999999GF100995004999999999999999MA1999999099155MW1025
0077726055999991971033006004+43083-070817SAO  +0031PSM  V0202501N002112200019N0176001N9+00111-00221100191ADDGF100991999999999999999999MA1100171099821MD1110071+9999EQDQ01+999990APOSP 
0069726436949301971021602004+43933-090267SAO  +0282VOK  V0201401N003110750019N0144001N1-00371-00701101641ADDGF107991999999999999999999MA1999999098211MW1001EQDQ01+999990APOSLP
0087109711999991971022617004+47767+011600FM-15+0719EDOV V0209991V002110045019N0037001N9-00401-00501999999ADDGA1041+001509079GA2081+004509059MA1101251999999MW1411REMMET022CIG15/VRY LGT SN PRSNT
0296999999931151971033103005+32567-117117SAO  +0006NRS  V0201905N003150027449N011200599+01284+00945101354ADDGA1999+002744074GD14085+9999999GD20995+9999999GD30995+9999999GD40995+9999999GF108085999999999999999999MA1999999101254EQDN01 00000JPWTH 1QNNE11 1 00610E11 1 00099E11 1 00099E11 1 00099G11 1 00009H11 1 16009K11 1 00049L11 1 00700M11 1 29900N11 1 00000Q11 1 10135S11 1 00055V11 1 01010X11 1 19006
0053488510999991971072818004+16733+107183FM-15+0007VVQT V0202701N00101220001CN0112001N1+02631+02461100731ADDMA1999999100641EQDQ01+999990APOSLPQ02+000000PRSWM2
0068386960999991971050612004+39567+066950FM-12+067599999V0202701N00511220001CN0500001N9+02781+00111100991ADDAA199000091AY111999GF106991011031022501001011MD1710061+9999MW1021
0057354970999991971031506004+48950+072850FM-12+065699999V0202501N00211012301CN0100001N9-00221-00281103201ADDAY141999GF108991061051012501999999MD1310181+9999MW1021
0057248910999991971041618004+61717+146083FM-12+999999999V0209991C00001220001CN0500001N9-02221-02391101301ADDAY101999GF100991001001999999001001MD1710061+9999MW1021
028099999924011197102171900E+46767-100750SAO  +050299999V0202505N006252200059N056000599+00395-00285101575ADDAA101000095GD10995+9999999GD20995+9999999GD30995+9999999GD40995+9999999GF100005999999999999999999MA1999999095465EQDN01 00000JPWTH 1QNNE11 1 00099E11 1 00099E11 1 00099E11 1 00099G11U1 99999K11 1 00027L11 1 03500M11 1 28190N11 1 00000Q11 1 10157S11 1 00039V11 1 00000X11 1 25012
0071722860231191971042819004+33883-117250SAO  +0470RIV  V0200801N001010084019N0240001N9+01331+00561999999ADDGF108991999999999999999999MA1101561999999MW1001REMAWY012BINOVC ALQDS
028099999914936197112090900E+44383-098217SAO  +0390HON  V0201505N005252200059N019200599-01785-02065101475ADDAA101000095GD10995+9999999GD20995+9999999GD30995+9999999GD40995+9999999GF100005999999999999999999MA1999999096555EQDN01 00000JPWTH 1QNNE11 1 00099E11 1 00099E11 1 00099E11 1 00099G11U1 99999K11 1-00005L11 1 01200M11 1 28510N11 1 00000Q11 1 10147S11 1 00000V11 1 00000X11 1 15010
0083035623999991971050609004+52367-000217FM-15+0049EGWZ V0201101N004610690019N0070001N9+01801+01001999999ADDGA1011+030009039GA2051+069009009MA1101351999999MW1051REMMET018CIG230/RCD BKN 300
012399999994728197104281500E+40783-073967SAO  +0040NYC  V0201805N004659999999N999999999+01114+00445100984ADDAA101000395MA1999999100644MW1635EQDN01 02100JPWTH 1QNNK11 1 00040M11 1 29720N11 1 02100Q11 1 10098S11 1 00052X11 1 18009
0377690020932181971020206005+36000-121233SAO  +0317HGT  V0201205N000552200059N016000599+00445+00395101665ADDGA1999+060964004GA2999+999999999GA3999+999999999GA4999+999999999GD11025+9999993GD20005+9999999GD30005+9999999GD40005+9999999GF102015999999999999999999MA1999999097905EQDN01 00000JPWTH 1QNNE11 1 00102E11 1 00000E11 1 00000E11 1 00000G11U1 99999H11 1 32200H11 1 00999H11 1 00999H11 1 00999K11 1 00039L11 1 01000M11 1 28910N11 1 00000Q11 1 10166S11 1 00040V11 1 00201X11 1 12001
0069702220999991971081308004+64733-156933SAO  +0049GAL  V0203501N002112200019N0560001N1+01411+00741101321ADDGF107991999999999999999999MA1999999100711MW1001EQDQ01+999990APOSLP
0057338690999991971061409004+46800+033517FM-12+999999999V0209991C00001220001CN0100001N9+02221+00891101291ADDAY101999GF102991021011012501001021MD1710021+9999MW1031
0117285730999991971031303004+56100+069433FM-12+008399999V0200501N00101220001CN0041001N9-01611-01721102781ADDAA106075091AA224999999AY111999GF100991001001999999001001HL10009IA1319IA2999-02229KA1999N-01721MD1310031+9999MW1101
028699999914820197101290400E+41400-081850SAO  +024899999V0202305N007250082349N011200599-01445-01835101655ADDAA101000095GD14995+9999999GD20995+9999999GD30995+9999999GD40995+9999999GF108085999999999999999999MA1999999098585MW1855EQDN01 05000JPWTH 1QNNE11 1 00699E11 1 00099E11 1 00099E11 1 00099G11 1 00027K11 1-00001L11 1 00700M11 1 29110N11 1 05000Q11 1 10165S11 1 00006V11 1 01010X11 1 23014
007772250012919197109261200D+25900-097433SAO  +0006BRO  V0200901N002112200019N0080001N1+02351+02241101281ADDAA101000095GA1011+075009009GF102991999999999999999999MA1999999101221MW1111
010183981099999197108221900N-31350-054117BRAZ +0180SBBG V02024019004619999999N004000199+00981+99999101171ADDGA1071+001201221GA2081+021001041GF108991999999999999999999MA1101171099031MW1631EQDQ01 +01002ATOD  
009094765099999197106140200N-36920+150980AUST +0014YSBK V0201585N006759999999N999999999+01685+00705999999ADDAY134999GA1025+007505085GA2065+013505065GF107995024025007505999999MA1999999101585MW1035
0068306050999991971020612004+53450+101333FM-12+999999999V0201401N00101220001CN0500001N9-02281-02721999999ADDAA199000091AY101999GF100991001001999999001001MD1810021+9999MW1021
0133701730999991971071300004+66000-153700SAO  +0375PAIM V0202801N006210090019N0240001N9+01891+00941101211ADDAA106000391GF108991999999999999999999MA1101051999999MD1310141+9999MW1001OC100931REMAWY041MAG25/31401 157/ 20075 RADOME WND 3010G14
038899999994746197106150000E+42267-071867SAO  +0300ORH  V0201005N003152200059N024000599+01174+00565101394ADDAA101000095GA1999+030484034GA2999+076204004GA3999+999999999GA4999+999999999GD12025+9999999GD23055+9999993GD30005+9999999GD40005+9999999GF107035999999999999999999MA1999999097704EQDN01 00000JPWTH 1QNNE11 1 00203E11 1 00306E11 1 00000E11 1 00000G11U1 99999H11 1 23100H11 1 32250H11 1 00999H11 1 00999K11 1 00042L11 1 01500M11 1 28850N11 1 00000Q11 1 10139S11 1 00053V11 1 00904X11 1 10006
0057297360999991971011718004+54333+084217FM-12+019899999V0202301N00101220001CN0100001N9-03111-03501103901ADDAY121999GF100991001001999999001001MD1210101+9999MW1021
0067488510999991971021217004+16733+107183FM-15+0007VVQT V0200701N001510210019N0096001N1+02131+02021999999ADDGA1041+007509059GA2031+021009039GF107991999999999999999999MW1051
0106320710999991971042421004+50733+142717FM-12+012599999V0209991C00001220001CN0500001N9-00781-01221100371ADDAA199000091AY101999GF100991001001999999001001HL10009IA1209IA2999-01119KA1999N-01001MD1410001+9999MW1021
0057258580999991971043006004+61233+172300FM-12+999999999V0209991C00001007801CN0200001N9-00391-00611103341ADDAY181999GF105991051051008001001001MD1710101+9999MW1021
0104702350999991971122712004+61100-155583SAO  +0487PASV V0201501N005710135019N0112001N9+00391-00331099321ADDAA106000091GF108991999999999999999999MA1099151999999MD1610291+9999MW1001REMAWY020MAG13/629 157/ 90427
0065106330999991971050806004+50050+008333FM-15+0143EDOU V0200701N004110600019N0100001N9+01401+00501999999ADDGA1051+036009039GA2061+060009029MA1101691999999REMMET006CIG200
0201999999931841971040219005+33667-117883SAO  +0016SNA  V0202305N005252200049N009600599+02284+01395999999ADDGD10995+9999999GD20995+9999999GD30995+9999999GD40995+9999999MW1045EQDN01 08200JPWTH 1QNNE11 1 00099E11 1 00099E11 1 00099E11 1 00099G11U1 99999K11 1 00057L11 1 00600N11 1 08200S11 1 00073X11 1 23010
0111488515999991971080506004+16550+107383FM-15+0021ICES V0202401N004110300019N0112001N1+03571+02071999999ADDGA1021+013509059GA2041+030009039GA3071+090009009GF107991999999999999999999MA1999999099761EQDQ01+000000PRSWM2
0269999999149911971073112005+44867-091483SAO  +0272EAU  V0202205N002152200059N011200599+01065+01005101635ADDGD11995+9999993GD20995+9999999GD30995+9999999GD40995+9999999GF103005999999999999999999MA1999999098375EQDN01 00000JPWTH 1QNNE11 1 00199E11 1 00099E11 1 00099E11 1 00099G11U1 99999K11 1 00050L11 1 00700M11 1 29050N11 1 00000Q11 1 10163S11 1 00051V11 1 00400X11 1 22004
0092702120266331971072712004+61783-166033SAO  +0139PACZ V0200301N003110240019N0240001N9+00721+00611101291ADDAA106000091GF107991999999999999999999MA1101191999999MD1210051+9999MW1001REMAWY008205 1578
031399999913881197105121200E+35217-080933SAO  +0225CLT  V0201805N004150243849N006400599+01725+01615101615ADDAA101000095GA1999+024384034GD14085+9999999GD20995+9999999GD30995+9999999GD40995+9999999GF108085999999999999999999MA1999999098885MW1045EQDN01 08000JPWTH 1QNNE11 1 00610E11 1 00099E11 1 00099E11 1 00099G11 1 00080H11 1 23080K11 1 00061L11 1 00400M11 1 29200N11 1 08000Q11 1 10161S11 1 00063V11 1 01010X11 1 18008
0037488896999991971081411004+11633+108950FM-15+0034VVPA V0209991V00261220001CN0112001N1+02851+02351999999ADDMA1999999100411EQDQ01+000000PRSWM2
0057316770999991971061018004+49100+138283FM-12+999999999V0200901N00511007801CN0500001N9+01281+00721101351ADDAY161999GF108991071051008001021999MD1710301+9999MW1021
0057230240999991971051203004+69650+060367FM-12+999999999V0201801N008219999999N0200001N9-00721-00891100511ADDAY111999GF107991031001999999031011MD1610081+9999MW1021
0057470410999991971072903004+39900+127517FM-12+003499999V0209999999999007801CN0100001N9+02891+02501100411ADDAY121999GF107991071051008001001001MD1710061+9999MW1011
0079370310999991971033112004+44983+041117FM-12+020899999V0200501N00981220001CN0100001N9+01281+00391100951ADDAA106004091AA299001091AY121061GF107991021001999999031011MD1810051+9999MW1031
017699999913959197101280300E+31617-097217SAO  +0157ACT  V0201205N004652200059N024000599+00785-00225102375ADDAA101000095GF100005999999999999999999MA1999999100515EQDN01 00000JPWTH 1QNNG11U1 99999K11 1 00028L11 1 01500M11 1 29680N11 1 00000Q11 1 10237S11 1 00046V11 1 00000X11 1 12009
0281999999137731971011411005+38500-077300SAO  +0004NYG  V02099959000050030549N009600599+00065-00115101715ADDGD14995+9999999GD20995+9999999GD30995+9999999GD40995+9999999GF108085999999999999999999MA1999999101665MW1445MW2615EQDN01 02072JPWTH 1QNNE11 1 00699E11 1 00099E11 1 00099E11 1 00099G11 1 00010K11 1 00030L11 1 00600M11 1 30020N11 1 02072Q11 1 10171S11 1 00033V11 1 01010X11 1 00000
0269999999433241971012507005+34150+132233SAO  +0003RJOI V0202505N004150121949N024000599+00675+00175101325ADDGD12995+9999999GD23995+9999999GD30995+9999999GD40995+9999999GF106065999999999999999999MA1999999101295EQDN01 00000JPWTH 1QNNE11 1 00299E11 1 00499E11 1 00099E11 1 00099G11 1 00040K11 1 00035L11 1 01500M11 1 29910N11 1 00000Q11 1 10132S11 1 00044V11 1 00808X11 1 25008
0037489100999991971081020004+10250+105950FM-15+0005VVVL V0202401N00151090001CN0112001N1+02631+02461999999ADDMA1999999100611EQDQ01+000000PRSWM2
0073102030999991971091709004+53333+007200FM-12+000699999V0202301N00411220001CN0100001N9+01281+01001102881ADDAY111999GA1021+009009089GF102991021021008001001001MD1710021+9999MW1011
0067353860999991971063015004+49800+072200FM-12+045799999V0203201N00411220001CN0200001N9+02221+00391103001ADDAA199000091AY111999GF101991011001999999041001KA1999M+02501MW1011
008799999924215197107210600E+41317-122317SAO  +1078MHS  V0201105N000559999999N999999999+02005+01285101645ADDAA101000095MA1999999089505QNNK11 1 00055M11 1 26430Q11 1 10164S11 1 00068X11 1 11001
0269999999129281971031611005+27500-097817SAO  +0017NQI  V0203205N001552200059N024000599+00785+00725101805ADDGD10995+9999999GD20995+9999999GD30995+9999999GD40995+9999999GF100005999999999999999999MA1999999101635EQDN01 00000JPWTH 1QNNE11 1 00099E11 1 00099E11 1 00099E11 1 00099G11U1 99999K11 1 00045L11 1 01500M11 1 30010N11 1 00000Q11 1 10180S11 1 00046V11 1 00000X11 1 32003
0057274120999991971011903004+56867+037383FM-12+999999999V0202501N00511004501CN0150001N9-00281-00611101601ADDAY131999GF108991081051004501999999MD1210051+9999MW1361
0050726071146061971052609004+44800-068817SAO  +0059BGR  V0202101N001010003019N0002001N1+01131+00911100771ADDGF108991999999999999999999MA1999999100031MW1451
0377999999266381971101600005+69733-163017SAO  +0006PIZ  V0201205N001550061049N024000599-00065-00115099405ADDGA1999+006104064GA2999+999999999GA3999+999999999GA4999+999999999GD13065+9999999GD20005+9999999GD30005+9999999GD40005+9999999GF106065999999999999999999MA1999999099295EQDN01 00000JPWTH 1QNNE11 1 00408E11 1 00000E11 1 00000E11 1 00000G11 1 00020H11 1 15020H11 1 00999H11 1 00999H11 1 00999K11 1 00030L11 1 01500M11 1 29320N11 1 00000Q11 1 09940S11 1 00031V11 1 00808X11 1 12003
017699999993817197101230900E+38050-087533SAO  +0116EVV  V0203405N005252200059N016000599-00224-00835101834ADDAA101000095GF100005999999999999999999MA1999999100374EQDN01 00000JPWTH 1QNNG11U1 99999K11 1 00017L11 1 01000M11 1 29640N11 1 00000Q11 1 10183S11 1 00028V11 1 00000X11 1 34010
0095282250999991971012600004+58017+056300FM-12+016199999V0202701N00311001801CN0040001N9-00221-00221101931ADDAA106002091AA299000591AY171999GA1061+001809079GF108991081061001501999999MD1810051+9999MW1221
0269999999938371971060804005+30233-081667SAO  +0009NIP  V0202105N001050243849N011200599+02444+01895101884ADDGD13995+9999999GD24995+9999999GD30995+9999999GD40995+9999999GF108075999999999999999999MA1999999101794EQDN01 00000JPWTH 1QNNE11 1 00499E11 1 00699E11 1 00099E11 1 00099G11 1 00080K11 1 00066L11 1 00700M11 1 30060N11 1 00000Q11 1 10188S11 1 00076V11 1 01009X11 1 21002
017699999923061197111240600E+37450-105867SAO  +229899999V0202605N002152200059N024000599-01005-01225101856ADDAA101000095GF100005999999999999999999MA1999999077485EQDN01 00000JPWTH 1QNNG11U1 99999K11 1 00010L11 1 01500M11 1 22880N11 1 00000Q11 1 10185S11 1 00014V11 1 00000X11 1 26004
0057314390999991971050803004+52383+140467FM-12+003199999V0202301N00411220001CN0500001N9+00891-00281101081ADDAY101999GF102991021041017501031001MD1710151+9999MW1021
036799999913894197108112100E+30683-088250SAO  +0064MOB  V0202405N004150914449N012800599+02565+02445101455ADDAA101000095GA1999+007624094GA2999+030484034GA3999+091444004GD12015+9999999GD22025+9999999GD34065+9999999GD40995+9999999GF108085999999999999999999MA1999999100685MW1805EQDN01 02300JPWTH 1QNNE11 1 00201E11 1 00202E11 1 00607E11 1 00099G11 1 00300H11 1 18025H11 1 23100H11 1 32300K11 1 00076L11 1 00800M11 1 29730N11 1 02300Q11 1 10145S11 1 00078V11 1 01010X11 1 24008
0057341860999991971061203004+51333+048350FM-12+010799999V0201401N00411024001CN0500001N9+02281+01001100951ADDAY121999GF107991061001999999031011MD1710011+9999MW1021
0275722165138151971070613003+31583-084117SAO  +0066NAB  V0201805N002150213449N0112005N1+02505+02285101725ADDGD12995+9999999GD23995+9999999GD30995+9999999GD40995+9999999GF106065999999999999999999MA1999999100915MW1001EQDN01 00000JPWTH 1QNNE11 1 00299E11 1 00499E11 1 00099E11 1 00099G11 1 00070K11 1 00073L11 1 00700M11 1 29800N11 1 00000Q11 1 10172S11 1 00077V11 1 00707X11 1 18004
0068237010999991971033100004+62983+050900FM-12+009499999V0209991C00001220001CN0500001N9-02281-02501102781ADDAA199000091AY101999GF100991001001999999001001MD1210041+9999MW1021
0057318660999991971052306004+46533+138333FM-12+005099999V0202301N00981002401CN0040001N9+00501+00221101841ADDAY141999GF108991081061002501999999MD1710051+9999MW1021
038899999903937197107051500E+30117-093217SAO  +0003LCH  V0202905N004150042749N012800599+03005+02565101355ADDAA101000095GA1999+004274084GA2999+999999999GA3999+999999999GA4999+999999999GD13055+9999999GD20005+9999999GD30005+9999999GD40005+9999999GF105055999999999999999999MA1999999101255EQDN01 00000JPWTH 1QNNE11 1 00406E11 1 00000E11 1 00000E11 1 00000G11 1 00014H11 1 11014H11 1 00999H11 1 00999H11 1 00999K11 1 00078L11 1 00800M11 1 29900N11 1 00000Q11 1 10135S11 1 00086V11 1 00606X11 1 29008
0057298480999991971021015004+53467+085917FM-12+027099999V0202301N00311220001CN0080001N9-00781-01221103401ADDAY121999GF108991001001999999001061MD1110041+9999MW1021
0050725540149491971091010004+41117-095900SAO  +0319OFF  V0209991C000012200019N0320001N9+01561+01061999999ADDGF100991999999999999999999MA1101191999999MW1001
0377911620225011971041221002+22033-159783SAO  +0004HBK  V0202305N002652200059N024000599+02565+01785102035ADDGA1999+999999084GA2999+999999064GA3999+999999004GA4999+999999999GD10005+9999999GD20005+9999999GD30005+9999999GD40005+9999999GF100005999999999999999999MA1999999101965EQDN01 00000JPWTH 1QNNE11 1 00000E11 1 00000E11 1 00000E11 1 00000G11U1 99999H11 1 11999H11 1 15999H11 1 32999H11 1 00999K11 1 00064L11 1 01500M11 1 30110N11 1 00000Q11 1 10203S11 1 00078V11 1 00000X11 1 23005
0057310160999991971012006004+58467+128500FM-12+999999999V0202701N00211220001CN0500001N9-03611-03891104481ADDAY121999GF100991001001999999001001MD1710231+9999MW1021
0057288730999991971013109004+53833+069783FM-12+015399999V0202701N00511220001CN0200001N9-01391-01721103721ADDAY101999GF100991001001999999001001MD1210071+9999MW1021
0024478080999991971042407004+33583+130450FM-15+0012RJFF V0200101N00311220001CN0080001N1+02131+01571999999ADDMA1999999100911MW1051
006172433813802197108190600D+38550-089850SAO  +0138BLV  V0209991C000012200019N0048001N9+02071+01691101691ADDAA101000095GF102991999999999999999999MA1999999100031MW1051
0048488700999991971080306004+13767+109217FM-15+0006VVQN V0201601N003119999999N0320001N1+03411+02741100501ADDGF102991999999999999999999EQDQ01+000000PRSWM2
0068236620999991971031012004+63800+082800FM-12+999999999V0201801N00721220001CN0200001N9-00781-01611103791ADDAA199000091AY111999GF102991001001999999001061MD1710031+9999MW1021
0057222040999991971011721004+67500+030167FM-12+999999999V0209991C00001220001CN0500001N9-03221-03391100261ADDAY101999GF100991001001999999001001MD1210021+9999MW1021
0302702190266151971022616003+60783-161800SAO  +0038BET  V0201805N006750076249N0112005N1-01225-01395101325ADDGA1081+007624134GD14085+9999999GD20995+9999999GD30995+9999999GD40995+9999999GF108085999999999999999999MA1999999100715MW1001EQDN01 00000JPWTH 1QNNE11 1 00610E11 1 00099E11 1 00099E11 1 00099G11 1 00025H11 1 13025K11 1 00007L11 1 00700M11 1 29740N11 1 00000Q11 1 10132S11 1 00010V11 1 01010X11 1 18013
0057315340999991971041103004+50433+131017FM-12+020499999V0209991C00001220001CN0500001N9+00501-00891101201ADDAY111999GF107991001001999999001011MD1810161+9999MW1021
0269999999129581971091613005+29817-090017SAO  +0002NBG  V0201305N006250243849N011200599+02615+02445100865ADDGD12995+9999999GD23995+9999999GD34995+9999999GD40995+9999999GF108085999999999999999999MA1999999100855EQDN01 00000JPWTH 1QNNE11 1 00299E11 1 00499E11 1 00699E11 1 00099G11 1 00080K11 1 00076L11 1 00700M11 1 29780N11 1 00000Q11 1 10086S11 1 00079V11 1 01010X11 1 13012
0165999999947021971082406005+41167-073133SAO  +0002BDR  V0203205N004652200059N024000599+01444+00675101494ADDGF100005999999999999999999MA1999999101424EQDN01 00000JPWTH 1QNNG11U1 99999K11 1 00044L11 1 01500M11 1 29950N11 1 00000Q11 1 10149S11 1 00058V11 1 00000X11 1 32009
0283999999942341971043019005+49083-125767SAO  +0024CYAZ V02004559001550076249N009600599+00894+00835101474ADDGA1999+004574134GA2999+007624064GD19035+9999999GD29055+9999999GF108085999999999999999999MA1999999101194MW1455MW2615EQDN01 02070JPWTH 1QNNE11 1 09904E11 1 09906G11 1 00025H11 1 13015H11 1 15025K11 1 00047L11 1 00600M11 1 29880N11 1 02070Q11 1 10147S11 1 00048V11 1 01010W11 1 22003
008294865099999197105280500N-37870+144750AUST +0014YMLV V0202935N006259999999N999999999+01185+00605999999ADDGA1035+015005065GA2085+999999035GF108995034055015005075999MA1999999100175MW1605
033499999924033197102100900E+45800-108533SAO  +1087BIL  V0202505N009850762049N032000599+00175-00565101415ADDAA101000095GA1999+030484034GA2999+076204024GD12015+9999999GD24075+9999999GD30995+9999999GD40995+9999999GF108085999999999999999999MA1999999088795EQDN01 00000JPWTH 1QNNE11 1 00201E11 1 00609E11 1 00099E11 1 00099G11 1 00250H11 1 23100H11 1 37250K11 1 00022L11 1 02000M11 1 26220N11 1 00000Q11 1 10141S11 1 00035V11 1 01010X11 1 25019
0269999999231611971091700005+34867-116783SAO  +0588DAG  V0202605N009352200059N040000599+04005+00065100385ADDGD10995+9999999GD20995+9999999GD30995+9999999GD40995+9999999GF100005999999999999999999MA1999999093905EQDN01 00000JPWTH 1QNNE11 1 00099E11 1 00099E11 1 00099E11 1 00099G11U1 99999K11 1 00033L11 1 02500M11 1 27730N11 1 00000Q11 1 10038S11 1 00104V11 1 00000X11 1 26018
038899999923194197105060600E+35017-110733SAO  +148899999V02099959000052200059N011200599+01065-00335100385ADDAA101000095GA1999+030484034GA2999+060964024GA3999+999999999GA4999+999999999GD12025+9999999GD24065+9999993GD30005+9999999GD40005+9999999GF108035999999999999999999MA1999999084255EQDN01 00000JPWTH 1QNNE11 1 00203E11 1 00507E11 1 00000E11 1 00000G11U1 99999H11 1 23100H11 1 37200H11 1 00999H11 1 00999K11 1 00026L11 1 00700M11 1 24880N11 1 00000Q11 1 10038S11 1 00051V11 1 01004X11 1 00000
0092314740999991971022312004+51633+133300FM-12+038299999V0202001N00101220001CN0500001N9-02221-02721101741ADDAA106075091AA224999999AY121999GF105991001001999999001061KA1999M-01501MD1210131+9999MW1021
0269999999240371971060809005+46433-105867SAO  +0801MLS  V0201505N004152200059N016000599+01115+00945101795ADDGD12995+9999999GD20995+9999999GD30995+9999999GD40995+9999999GF102025999999999999999999MA1999999092485EQDN01 00000JPWTH 1QNNE11 1 00299E11 1 00099E11 1 00099E11 1 00099G11U1 99999K11 1 00049L11 1 01000M11 1 27310N11 1 00000Q11 1 10179S11 1 00052V11 1 00202X11 1 15008
0053488520999991971020910004+16400+107683FM-15+0017VVPD V0203001N00411003301CN0112001N1+01741+01631101501ADDMA1999999101421EQDQ01+999990APOSLPQ02+000000PRSWM2
0117323630999991971032221004+56100+158883FM-12+999999999V0201801N00101030001CN0200001N9-01611-01721100941ADDAA106001091AA299000391AY111999GF107991031091012501031001HL10009IA1319IA2999-02399KA1999N-01891MD1710091+9999MW1151
0062365460999991971021215004+48583+083767FM-12+999999999V0209991C99999220001CN0041001N9+99999+99999103541ADDAA199000091AY101999GF100991001001999999001001MD1210101+9999
0092318690999991971031221004+46250+138083FM-12+999999999V0200501N00411004501CN0100001N9-00501-00501101821ADDAA106028091AA299007091AY181999GF108991081091004501999999KA1999N-00501MD1610131+9999MW1851
0389999999938411971100412005+30717-087017SAO  +0054NSE  V0200405N001552200059N004800599+02004+01835101694ADDGA1999+076204004GA2999+999999999GA3999+999999999GA4999+999999999GD12015+9999999GD20005+9999999GD30005+9999999GD40005+9999999GF101015999999999999999999MA1999999101054MW1055MW2445EQDN01 07281JPWTH 1QNNE11 1 00201E11 1 00000E11 1 00000E11 1 00000G11U1 99999H11 1 32250H11 1 00999H11 1 00999H11 1 00999K11 1 00065L11 1 00300M11 1 29840N11 1 07281Q11 1 10169S11 1 00068V11 1 00101X11 1 04003
038899999914941197104030000E+41983-097433SAO  +0471OFK  V0203205N009352200059N022400599+00565-01175102025ADDAA101000095GA1999+076204004GA2999+999999999GA3999+999999999GA4999+999999999GD11025+9999993GD20005+9999999GD30005+9999999GD40005+9999999GF102015999999999999999999MA1999999096315EQDN01 00000JPWTH 1QNNE11 1 00102E11 1 00000E11 1 00000E11 1 00000G11U1 99999H11 1 32250H11 1 00999H11 1 00999H11 1 00999K11 1 00011L11 1 01400M11 1 28440N11 1 00000Q11 1 10202S11 1 00042V11 1 00201X11 1 32018
0057325960999991971022518004+51500+156750FM-12+999999999V0202701N00211220001CN9999999N9-00721-00891099811ADDAY181999GF103991031041008001001001MD1810021+9999MW1261
0269999999240121971070910005+46800-102800SAO  +078899999V0201305N003650304849N048000599+01285+00785101705ADDGD13995+9999999GD23995+9999999GD30995+9999999GD40995+9999999GF107055999999999999999999MA1999999092695EQDN01 00000JPWTH 1QNNE11 1 00499E11 1 00499E11 1 00099E11 1 00099G11 1 00100K11 1 00046L11 1 03000M11 1 27370N11 1 00000Q11 1 10170S11 1 00055V11 1 00906X11 1 13007
0024471130999991971051104004+37500+126700FM-15+0021RKSA V0202301N00261220001CN0096001N1+02241+01071999999ADDMA1999999101791MW1051
0165999999938011971090912005+34350-085167SAO  +0195RMG  V0203505N001052200059N012800599+01944+01675101634ADDGF100005999999999999999999MA1999999099324EQDN01 00000JPWTH 1QNNG11U1 99999K11 1 00062L11 1 00800M11 1 29330N11 1 00000Q11 1 10163S11 1 00067V11 1 00000X11 1 35002
033499999913741197112191800E+37317-079967SAO  +0350ROA  V0201105N002650304849N056000599+00445-01175102285ADDAA101000095GA1999+030484034GA2999+076204004GD13055+9999999GD24035+9999999GD30995+9999999GD40995+9999999GF108085999999999999999999MA1999999097935EQDN01 00000JPWTH 1QNNE11 1 00406E11 1 00604E11 1 00099E11 1 00099G11 1 00100H11 1 23100H11 1 32250K11 1 00011L11 1 03500M11 1 28920N11 1 00000Q11 1 10228S11 1 00040V11 1 01010X11 1 11005
038899999924149197103182100E+46383-117017SAO  +043399999V0200705N002652200059N048000599+00895-00505103755ADDAA101000095GA1999+999999084GA2999+999999004GA3999+999999999GA4999+999999999GD10005+9999999GD20005+9999999GD30005+9999999GD40005+9999999GF100005999999999999999999MA1999999098375EQDN01 00000JPWTH 1QNNE11 1 00000E11 1 00000E11 1 00000E11 1 00000G11U1 99999H11 1 11999H11 1 32999H11 1 00999H11 1 00999K11 1 00023L11 1 03000M11 1 29050N11 1 00000Q11 1 10375S11 1 00048V11 1 00000X11 1 07005
0050703050999991971090601004+58650-162067SAO  +0165PAEH V0202401N004112200019N0320001N9+00671+00441999999ADDGF102991999999999999999999MA1100001999999MW1001
0068343190999991971051300004+49650+037483FM-12+008399999V0209991C00001220001CN0300001N9+01281+00721101581ADDAA199000091AY101999GF100991001001999999001001MD1210071+9999MW1021
0050722595139111971111123004+02767-097433SAO  +0198FWH  V0202001N004112200019N0160001N9+02281+01111999999ADDGF100991999999999999999999MA1101961999999MW1001
004394999900292197111092300N-36380+145400AUST +0113     V0201805N001059999999N999999999+01615+01105999999ADDAY134999GF107995999999999999999999MW1025
0064722210138581971113015004+30483-086517SAO  +0026VPS  V0200101N004112200019N0208001N9+01221+00391101791ADDGF100991999999999999999999MA1101801101461MD1210241+9999MW1001
009094461099999197112290030N-25030+128300AUST +0599     V0203605N008259999999N999999999+03175+01105999999ADDAY134999GA1015+021005085GA2055+999999035GF106995014025021005075999MA1999999093925MW1035
0057470690999991971031609004+38033+125700FM-12+008199999V0209999999999220001CN0100001N9+00281-00391101691ADDAY111999GF101991011051008001001001MD1310221+9999MW1011
0087726225047421971011020004+44650-073467SAO  +0072PBG  V0201701N003110180019N0240001N9-00441-01061999999ADDGF108991999999999999999999MA1101251999999MW1001REMAWY028RCD ?75/OCNL SW-- LSR22 1740
038899999913966197112120000E+33967-098483SAO  +030399999V0201105N004152200059N032000599+00945+00785101315ADDAA101000095GA1999+076204004GA2999+999999999GA3999+999999999GA4999+999999999GD12015+9999999GD20005+9999999GD30005+9999999GD40005+9999999GF101015999999999999999999MA1999999097565EQDN01 00000JPWTH 1QNNE11 1 00201E11 1 00000E11 1 00000E11 1 00000G11U1 99999H11 1 32250H11 1 00999H11 1 00999H11 1 00999K11 1 00046L11 1 02000M11 1 28810N11 1 00000Q11 1 10131S11 1 00049V11 1 00101X11 1 11008
0081363350999991971052406004+49417+075467FM-12+999999999V0200201N00211220001CN0500001N9+01891+00891101861ADDAA199000091AY101999GF101991011021012501001001KA1999N+00781MD1410001+9999MW1021
0275999999240361971032512005+47050-109450SAO  +1263LWT  V0202805N003650000049N000000599-00335-00335101185ADDGD15995+9999999GD20995+9999999GD30995+9999999GD40995+9999999GF108085999999999999999999MA1999999086735MW1455EQDN01 07000JPWTH 1QNNE11 1 00799E11 1 00099E11 1 00099E11 1 00099G11 1 00000K11 1 00026L11 1 00000M11 1 25610N11 1 07000Q11 1 10118S11 1 00026V11 1 01010X11 1 28007
039472509014739197106042100C+42367-071033SAO  +0006BOS  V0202605N004152200059N0192005N9+02895+01175101295ADDAA101000095GA1011+012194084GA2011+024384034GA3999+999999999GA4999+999999999GD12015+9999999GD22015+9999999GD30005+9999999GD40005+9999999GF102025999999999999999999MA1999999101195MW1001EQDN01 00000JPWTH 1QNNE11 1 00201E11 1 00201E11 1 00000E11 1 00000G11U1 99999H11 1 11040H11 1 23080H11 1 00999H11 1 00999K11 1 00053L11 1 01200M11 1 29880N11 1 00000Q11 1 10129S11 1 00084V11 1 00202X11 1 26008
0092259120999991971042109004+59783+153400FM-12+999999999V0202001N00211220001CN0500001N9-00501-00781100751ADDAA106001091AA299000391AY171999GF102991001001999999001011KA1999M-00391MD1710061+9999MW1011
0165999999947021971122203005+41167-073133SAO  +0002BDR  V0203005N007252200059N019200599+00504-00115102274ADDGF100005999999999999999999MA1999999102204EQDN01 00000JPWTH 1QNNG11U1 99999K11 1 00030L11 1 01200M11 1 30180N11 1 00000Q11 1 10227S11 1 00041V11 1 00000X11 1 30014
0057273550999991971021815004+57333+043117FM-12+013299999V0202001N00211220001CN0120001N9-01391-01721103281ADDAY101999GF102991001001999999001021MD1710041+9999MW1021
038899999914737197105120600E+40650-075433SAO  +0118ABE  V0200105N002152200059N024000599+01175+00785101635ADDAA101000095GA1999+076204004GA2999+999999999GA3999+999999999GA4999+999999999GD11025+9999993GD20005+9999999GD30005+9999999GD40005+9999999GF102005999999999999999999MA1999999100245EQDN01 00000JPWTH 1QNNE11 1 00102E11 1 00000E11 1 00000E11 1 00000G11U1 99999H11 1 32250H11 1 00999H11 1 00999H11 1 00999K11 1 00046L11 1 01500M11 1 29600N11 1 00000Q11 1 10163S11 1 00053V11 1 00200X11 1 01004
0377999999147881971022603005+41583-071417SAO  +000999999V0202905N003152200059N016000599+00065-00565101625ADDGA1999+076204004GA2999+999999999GA3999+999999999GA4999+999999999GD13055+9999993GD20005+9999999GD30005+9999999GD40005+9999999GF105025999999999999999999MA1999999101525EQDN01 00000JPWTH 1QNNE11 1 00306E11 1 00000E11 1 00000E11 1 00000G11U1 99999H11 1 32250H11 1 00999H11 1 00999H11 1 00999K11 1 00022L11 1 01000M11 1 29980N11 1 00000Q11 1 10162S11 1 00033V11 1 00602X11 1 29006
0043360640999991971062021004+51867+087100FM-12+999999999V0203201N00101220001CN0500001N9+01111+01111999999ADDAY101999GF100991001001999999001001MW1021
0057218250999991971032409004+71483+130050FM-12+999999999V0200901N00821220001CN0500001N9-02111-02281101351ADDAY131999GF102991001001999999001011MD1710031+9999MW1361
0057314370999991971020518004+52167+139083FM-12+999999999V0202901N00101030001CN0450001N9-01281-01721102801ADDAY181999GF107991041091008001031001MD1710071+9999MW1851
0269703500255011971031822005+57750-152500SAO  +0004ADQ  V0201205N001052200059N024000599+00445-00445102935ADDGD12995+9999999GD21995+9999993GD30995+9999999GD40995+9999999GF103025999999999999999999MA1999999102475EQDN01 00000JPWTH 1QNNE11 1 00299E11 1 00199E11 1 00099E11 1 00099G11U1 99999K11 1 00024L11 1 01500M11 1 30260N11 1 00000Q11 1 10293S11 1 00040V11 1 00402X11 1 12002
0269999999240271971112709005+41600-109067SAO  +2057RKS  V0202505N004652200059N048000599+00115+00005100965ADDGD12995+9999999GD23995+9999993GD30995+9999999GD40995+9999999GF105025999999999999999999MA1999999078635EQDN01 00000JPWTH 1QNNE11 1 00299E11 1 00399E11 1 00099E11 1 00099G11U1 99999K11 1 00032L11 1 03000M11 1 23220N11 1 00000Q11 1 10096S11 1 00034V11 1 00603X11 1 25009
0057304930999991971062515004+55967+124883FM-12+085099999V0200701N00311007801CN0500001N9+01111+00611101181ADDAY161999GF107991071051008001001001MD1210111+9999MW1611
0057264290999991971042003004+56400+024183FM-12+999999999V0202301N00211220001CN0290001N9+00611+00281102081ADDAY101999GF102991021001999999011001MD1310021+9999MW1021
0057279620999991971060509004+53133+045017FM-12+017499999V0202501N00871015001CN0100001N9+02611+00391100491ADDAY111999GF105991051021017501001001MD1710111+9999MW1021
0057218130999991971020715004+71717+124417FM-12+999999999V0209991C00001220001CN0200001N9-04001-04281104841ADDAY101999GF103991001001999999001021MD1710161+9999MW1021
0269999999129261971082307005+27683-097283SAO  +0006NGP  V0201505N005752200059N019200599+02835+02445101155ADDGD12995+9999999GD20995+9999999GD30995+9999999GD40995+9999999GF101015999999999999999999MA1999999101085EQDN01 00000JPWTH 1QNNE11 1 00299E11 1 00099E11 1 00099E11 1 00099G11U1 99999K11 1 00076L11 1 01200M11 1 29850N11 1 00000Q11 1 10115S11 1 00083V11 1 00101X11 1 15011
009094527099999197103292300N-29470+149850AUST +0212     V0200455N004159999999N999999999+02235+01405999999ADDAY124999GA1005+999999999GA2015+999999045GF101995004999999999035999MA1999999099885MW1025
0112380010999991971040206004+44550+050250FM-12-002099999V0200201N00511002401CN0040001N9+00001-00391102561ADDAJ100009199999999AY121999GF108991081061002501999999HL10009IA1009IA2999+00119KA1999N+00001MD1210081+9999MW1771
0084703050999991971060223004+58650-162067SAO  +0165PAEH V0201401N008210009019N0080001N9+00221+00061999999ADDGF110991999999999999999999MA1100311999999MW1451MW2511OC101131REMAWY011F4 VSBY SE1
0275999999231101971120611005+36333-119950SAO  +0073NLC  V0201605N002150067149N008000599+00895+00615102255ADDGD14995+9999999GD20995+9999999GD30995+9999999GD40995+9999999GF108065999999999999999999MA1999999101395MW1055EQDN01 08100JPWTH 1QNNE11 1 00699E11 1 00099E11 1 00099E11 1 00099G11 1 00022K11 1 00043L11 1 00500M11 1 29940N11 1 08100Q11 1 10225S11 1 00048V11 1 01008X11 1 16004
0165999999938371971111100005+30233-081667SAO  +0009NIP  V0203105N003152200059N011200599+01444+00445102144ADDGF100005999999999999999999MA1999999102034EQDN01 00000JPWTH 1QNNG11U1 99999K11 1 00040L11 1 00700M11 1 30130N11 1 00000Q11 1 10214S11 1 00058V11 1 00000X11 1 31006
010294999900341197108252300N-41080+145550AUST +0251     V0209999C000059999999N999999999+00575+99999999999ADDGA1005+999999999GA2005+999999999GA3045+999999999GF104995004999999999999025MW1015EQDP01 +00602ATOD  
0249702710264251971111409005+62150-145450SAO  +0481GKN  V02099959000050009149N004800599-01285-01285100965ADDGD14995+9999999GD20995+9999999GD30995+9999999GF108085999999999999999999MA1999999094895MW1455EQDN01 07000JPWTH 1QNNE11 1 00699E11 1 00099E11 1 00099G11 1 00003K11 1 00009L11 1 00300M11 1 28020N11 1 07000Q11 1 10096S11 1 00009V11 1 01010X11 1 00000
0057470580999991971032915004+39017+125650FM-12+002999999V0209999999999220001CN0040001N9+00221-00222101861ADDAY111999GF103991001001999999001021MD1210071+9999MW1101
0085723930999991971031121004+34717-120567SAO  +0112VBG  V0203301N006212200019N0192001N9+01501+00781101921ADDGF108991999999999999999999MA1101901100541MD1810051+9999REMAWY018H ALQDS / 805 1001
029299999913743197102221900E+38850-077033SAO  +0003DCA  V0200405N004650027449N004800599+00565+00445101325ADDAA101002395GD14995+9999999GD20995+9999999GD30995+9999999GD40995+9999999GF108085999999999999999999MA1999999101085MW1455MW2615EQDN01 02070JPWTH 1QNNE11 1 00699E11 1 00099E11 1 00099E11 1 00099G11 1 00009K11 1 00040L11 1 00300M11 1 29850N11 1 02070Q11 1 10132S11 1 00042V11 1 01010X11 1 04009
0057308660999991971052503004+51567+116667FM-12+999999999V0202701N00871220001CN0500001N9+01281+00111099431ADDAY101999GF102991021011017501001999MD1810021+9999MW1031
010694594099999197112260500N-27030+153470AUST +0099     V0200455N007759999999N999999999+02455+02105999999ADDAY154999GA1025+003005085GA2045+999999035GA3035+999999999GF106995024025003005075065MA1999999099785MW1055
0100319600999991971062012004+43117+131883FM-12+0138UHWW V0201601N00871000301CN0002001N9+01221+01111100771ADDAA199000091AY121999GF109991091999000251999999KA1999M+01501MD1410001+9999MW1471EQDQ01+000202APC3  
0079372600999991971013012004+42867+041133FM-12+001399999V0201401N00211012301CN0100001N9+00891+00611102551ADDAA106075091AA224999999AY121061GF108991061091012501071999MD1710071+9999MW1021
0057273930999991971043015004+57550+049900FM-12+013699999V0202901N00311220001CN0500001N9+00281-00721101931ADDAY171999GF102991021051008001001001MD1210281+9999MW1011
0269999999255071971042412005+59633-151500SAO  +0021HOM  V0203505N002150152449N024000599-00175-00445102405ADDGD13995+9999999GD23995+9999999GD30995+9999999GD40995+9999999GF107075999999999999999999MA1999999102135EQDN01 00000JPWTH 1QNNE11 1 00499E11 1 00499E11 1 00099E11 1 00099G11 1 00050K11 1 00024L11 1 01500M11 1 30160N11 1 00000Q11 1 10240S11 1 00029V11 1 00909X11 1 35004
0037484070999991971111120004+15250+104867FM-15+0126VTUU V0200301N00511220001CN0112001N1+02131+01851101241ADDMA1999999099801EQDQ01+000000PRSWM2
0050726815241061971051120004+43050-115883SAO  +0913MUO  V0201301N009312200019N0720001N1+02411+00021999999ADDGF107991999999999999999999MA1999999091471MW1001
0269999999031241971062522005+31567-110333SAO  +1422FHU  V0203105N006752200059N048000599+03175+01005100965ADDGD12995+9999999GD20995+9999999GD30995+9999999GD40995+9999999GF101015999999999999999999MA1999999085845EQDN01 00000JPWTH 1QNNE11 1 00299E11 1 00099E11 1 00099E11 1 00099G11U1 99999K11 1 00050L11 1 03000M11 1 25350N11 1 00000Q11 1 10096S11 1 00089V11 1 00101X11 1 31013
0269999999240131971082202005+48267-101283SAO  +0527MOT  V0202905N004152200059N056000599+02785+00835100345ADDGD12995+9999999GD20995+9999999GD30995+9999999GD40995+9999999GF104035999999999999999999MA1999999094385EQDN01 00000JPWTH 1QNNE11 1 00299E11 1 00099E11 1 00099E11 1 00099G11U1 99999K11 1 00047L11 1 03500M11 1 27870N11 1 00000Q11 1 10034S11 1 00082V11 1 00504X11 1 29008
0057301170999991971031003004+58033+102733FM-12+023199999V0209991C00001220001CN0200001N9-02391-02611999999ADDAY101999GF102991001001999999001011MD1010011+9999MW1021
0057350670999991971050118004+51883+066333FM-12+022299999V0202001N00311220001CN0100001N9+01221+00501102541ADDAY101999GF102991001001999999001021MD1310021+9999MW1021
038899999913743197102092100E+38850-077033SAO  +0003DCA  V0203205N007752200059N032000599-00065-01335101525ADDAA101000095GA1999+015244064GA2999+999999999GA3999+999999999GA4999+999999999GD12025+9999999GD20005+9999999GD30005+9999999GD40005+9999999GF102025999999999999999999MA1999999101295EQDN01 00000JPWTH 1QNNE11 1 00202E11 1 00000E11 1 00000E11 1 00000G11U1 99999H11 1 15050H11 1 00999H11 1 00999H11 1 00999K11 1 00008L11 1 02000M11 1 29910N11 1 00000Q11 1 10152S11 1 00031V11 1 00202X11 1 32015
0057249620999991971020409004+60900+131817FM-12+014899999V0209991C00001220001CN0450001N9-03281-03611104921ADDAY101999GF101991001001999999001011MD1410001+9999MW1021
0050723865231121971122011004+36250-115033SAO  +0569LSV  V0202001N001012200019N0240001N1-00391-01281999999ADDGF100991999999999999999999MA1101901999999MW1001
007494312099999197102221600N-20380+118620AUST +0011YPPD V0209999C000059999999N999999999+02835+99999999999ADDAY124999GA1005+999999999GF100995004999999999999999MA1999999100455MW1025
0249999999232391971082013005+37733-122317SAO  +0005NGZ  V0203105N002650021349N008000599+01445+01175101405ADDGD14995+9999999GD20995+9999999GD30995+9999999GF108085999999999999999999MA1999999101295MW1455EQDN01 07000JPWTH 1QNNE11 1 00699E11 1 00099E11 1 00099G11 1 00007K11 1 00053L11 1 00500M11 1 29910N11 1 07000Q11 1 10140S11 1 00058V11 1 01010X11 1 31005
0057256210999991971061703004+64000+158917FM-12+068399999V0203201N00211007801CN0500001N9+01611+00721102511ADDAY181999GF107991071091008001001001MD1710041+9999MW1021
034099999994908197110211800E+42400-090700SAO  +032299999V0201805N005250167649N009600599+02174+01565102244ADDAA101000095GA1999+005184064GA2999+016764064GD12025+9999999GD24085+9999999GD30995+9999999GD40995+9999999GF108085999999999999999999MA1999999098344MW1055EQDN01 08100JPWTH 1QNNE11 1 00203E11 1 00610E11 1 00099E11 1 00099G11 1 00055H11 1 15017H11 1 15055K11 1 00060L11 1 00600M11 1 29040N11 1 08100Q11 1 10224S11 1 00071V11 1 01010X11 1 18010
039472253012921197106290000C+29533-098467SAO  +0240SAT  V0200905N004650070149N0192005N1+02785+02175101045ADDAA101000095GA1051+007014094GA2011+030484034GA3051+076204024GA4999+999999999GD13055+9999999GD23015+9999999GD34055+9999999GD40005+9999999GF108075999999999999999999MA1999999098315MW1001EQDN01 00000JPWTH 1QNNE11 1 00406E11 1 00401E11 1 00606E11 1 00000G11 1 00023H11 1 18023H11 1 23100H11 1 37250H11 1 00999K11 1 00071L11 1 01200M11 1 29030N11 1 00000Q11 1 10104S11 1 00082V11 1 01009X11 1 09009
0085467700999991971011321004+24267+120617FM-15+0005RCMQ V0200301N003612200019N0048001N1+01191+01071999999ADDGA1011+045009039GF102991999999999999999999MA1999999099091MW1441EQDQ01+000452PRSWM2
038899999914941197107190300E+41983-097433SAO  +0471OFK  V0203505N006252200059N022400599+01945+01175101705ADDAA101000095GA1999+999999004GA2999+999999999GA3999+999999999GA4999+999999999GD10005+9999999GD20005+9999999GD30005+9999999GD40005+9999999GF100005999999999999999999MA1999999096215EQDN01 00000JPWTH 1QNNE11 1 00000E11 1 00000E11 1 00000E11 1 00000G11U1 99999H11 1 32999H11 1 00999H11 1 00999H11 1 00999K11 1 00053L11 1 01400M11 1 28410N11 1 00000Q11 1 10170S11 1 00067V11 1 00000X11 1 35012
038899999923044197101030900E+31800-106400SAO  +1194ELP  V0202905N010352200059N014400599+00945-00065099585ADDAA101000095GA1999+018294064GA2999+999999999GA3999+999999999GA4999+999999999GD12035+9999999GD20005+9999999GD30005+9999999GD40005+9999999GF103035999999999999999999MA1999999086665EQDN01 00000JPWTH 1QNNE11 1 00204E11 1 00000E11 1 00000E11 1 00000G11U1 99999H11 1 15060H11 1 00999H11 1 00999H11 1 00999K11 1 00031L11 1 00900M11 1 25590N11 1 00000Q11 1 09958S11 1 00049V11 1 00404X11 1 29020
0050722595139111971071402004+02767-097433SAO  +0198FWH  V0201501N003610660019N0160001N9+03331+01501999999ADDGF107991999999999999999999MA1101491999999MW1001
0383999999038401971061321005+30533-087200SAO  +0040NDP  V0202005N006250091449N008000599+03225+02285101075ADDGA1999+009144084GA2999+999999999GA3999+999999999GA4999+999999999GD13065+9999999GD20005+9999999GD30005+9999999GD40005+9999999GF106065999999999999999999MA1999999100615MW1055EQDN01 08100JPWTH 1QNNE11 1 00408E11 1 00000E11 1 00000E11 1 00000G11 1 00030H11 1 11030H11 1 00999H11 1 00999H11 1 00999K11 1 00073L11 1 00500M11 1 29710N11 1 08100Q11 1 10107S11 1 00090V11 1 00808X11 1 20012
017699999914914197105281500E+46900-096800SAO  +0273FAR  V0201905N008252200059N019200599+01895+00615102095ADDAA101000095GF100005999999999999999999MA1999999098815EQDN01 00000JPWTH 1QNNG11U1 99999K11 1 00043L11 1 01200M11 1 29180N11 1 00000Q11 1 10209S11 1 00066V11 1 00000X11 1 19016
0165999999931041971041118005+35683-117683SAO  +0682NID  V02099959000052200059N080000599+01784+00225101564ADDGF100005999999999999999999MA1999999093774EQDN01 00000JPWTH 1QNNG11U1 99999K11 1 00036L11 1 05000M11 1 27690N11 1 00000Q11 1 10156S11 1 00064V11 1 00000X11 1 00000
0269999999231841971081312005+34650-112433SAO  +1531PRC  V0201405N003652200059N024000599+01615+01505101345ADDGD11995+9999993GD20995+9999999GD30995+9999999GD40995+9999999GF104015999999999999999999MA1999999084665EQDN01 00000JPWTH 1QNNE11 1 00199E11 1 00099E11 1 00099E11 1 00099G11U1 99999K11 1 00059L11 1 01500M11 1 25000N11 1 00000Q11 1 10134S11 1 00061V11 1 00501X11 1 14007
0377999999147881971081800005+41583-071417SAO  +000999999V0202405N002652200059N019200599+02335+01445101795ADDGA1999+076204004GA2999+999999999GA3999+999999999GA4999+999999999GD11015+9999993GD20005+9999999GD30005+9999999GD40005+9999999GF101005999999999999999999MA1999999101695EQDN01 00000JPWTH 1QNNE11 1 00101E11 1 00000E11 1 00000E11 1 00000G11U1 99999H11 1 32250H11 1 00999H11 1 00999H11 1 00999K11 1 00058L11 1 01200M11 1 30030N11 1 00000Q11 1 10179S11 1 00074V11 1 00100X11 1 24005
0050745940137051971011100004+38817-076850SAO  +0085ADW  V0201701N001010300019N0096001N9-00091-00371101881ADDGF108991999999999999999999MA1101801100781MW1051
0053484070999991971082602004+15250+104867FM-15+0126VTUU V0209991C000019999999N0112001N1+02851+02461101071ADDMA1999999099631EQDQ01+999990APOSLPQ02+000000PRSWM2
0073272960999991971050515004+58117+049883FM-12+999999999V0202701N00101004801CN0450001N9+00501+00281101281ADDAY121999GA1081+004809099GF108991081091004501999999MD1310041+9999MW1021
006694390099999197102240500N-24730+153220AUST +0101     V0201585N010359999999N999999999+02515+02205999999ADDGA1065+003605085GF106995064085003605999999MA1999999099515MW1155
0134291280999991971050600004+58700+081500FM-12+007599999V0202701N00211220001CN0500001N9+00111+00001101541ADDAA106075091AA224999999AJ100009199999999AY111999GF102991001001999999001051HL10009IA1109IA2999-00229KA1999N+00111MD1210021+9999MW1021
0057443250999991971022718004+45150+097767FM-12+999999999V0209991C00001024001CN0500001N9-00501-01221101681ADDAY121999GF107991071001999999011001MD1110011+9999MW1021
0218999999253431971052400005+54250-133050SAO  +0041CYLA V02018059013450121949N024000599+00725+00565100765ADDGA1999+012194064GD19085+9999999GF108085999999999999999999MA1999999100275EQDN01 00000JPWTH 1QNNE11 1 09910G11 1 00040H11 1 15040K11 1 00042L11 1 01500M11 1 29610N11 1 00000Q11 1 10076S11 1 00045V11 1 01010W11 1 55026
0269999999231841971031421005+34650-112433SAO  +1531PRC  V0203605N004152200059N104000599+01005-01225102075ADDGD13995+9999993GD20995+9999999GD30995+9999999GD40995+9999999GF106025999999999999999999MA1999999084835EQDN01 00000JPWTH 1QNNE11 1 00399E11 1 00099E11 1 00099E11 1 00099G11U1 99999K11 1 00010L11 1 06500M11 1 25050N11 1 00000Q11 1 10207S11 1 00050V11 1 00702X11 1 36008
0057266660999991971042303004+55167+030133FM-12+015199999V0203201N00311024001CN0100001N9-00221-00391102281ADDAY111999GF107991071001999999031001MD1710051+9999MW1031
0050722696999991971032513004+32850-106100SAO  +1251HMN  V0201101N001512200019N0640001N1+00581-01591999999ADDGF102991999999999999999999MA1999999087201MW1001
0123227210999991971052606004+62900+034400FM-12+008099999V0201101N00411220001CN0600001N9+00221-00281103121ADDAA199000091AJ100009199999999AY101999GF101991011001999999081011HL10009IA1089IA2999-00509KA1999N-00221MD1210011+9999MW1021
0057313880999991971011806004+52333+129917FM-12+020799999V0200201N00101220001CN0500001N9-01391-02111103951ADDAY111999GF100991001001999999001001MD1810081+9999MW1021
0106314180999991971040500004+52283+135800FM-12+020199999V0202301N00101220001CN0500001N9-00391-01111101171ADDAA199000091AY101999GF102991001001999999001011HL10009IA1319IA2999-01899KA1999N-01111MD1210051+9999MW1021
0063489000999991971112621004+10817+106667FM-15+0019VVTS V0203401N002112200019N0112001N1+02241+02241100801ADDGF107991999999999999999999MA1999999100681EQDQ01+000000PRSWM2
0269999999038531971030623005+30400-081417SAO  +0005NRB  V0202205N004150152449N011200599+02115+01005101465ADDGD13995+9999999GD20995+9999999GD30995+9999999GD40995+9999999GF107075999999999999999999MA1999999101425EQDN01 00000JPWTH 1QNNE11 1 00499E11 1 00099E11 1 00099E11 1 00099G11 1 00050K11 1 00050L11 1 00700M11 1 29950N11 1 00000Q11 1 10146S11 1 00070V11 1 00909X11 1 22008
0269999999931161971110823005+33250-119450SAO  +0173NSI  V0203305N003152200059N016000599+01504+00895101764ADDGD12995+9999999GD24995+9999993GD30995+9999999GD40995+9999999GF108035999999999999999999MA1999999099704EQDN01 00000JPWTH 1QNNE11 1 00299E11 1 00599E11 1 00099E11 1 00099G11U1 99999K11 1 00048L11 1 01000M11 1 29440N11 1 00000Q11 1 10176S11 1 00059V11 1 01004X11 1 33006
031399999924237197111161500E+47283-121333SAO  +1206SMP  V0202405N009350003049N000200599-00065-00065102895ADDAA101000095GA1999+000304104GD15085+9999999GD20995+9999999GD30995+9999999GD40995+9999999GF108085999999999999999999MA1999999088765MW1455EQDN01 07000JPWTH 1QNNE11 1 00710E11 1 00099E11 1 00099E11 1 00099G11 1 00001H11 1 45001K11 1 00031L11 1 00012M11 1 26210N11 1 07000Q11 1 10289S11 1 00031V11 1 01010X11 1 24018
0069724956232111971101516004+38067-122517SAO  +0003SRF  V0203201N004112200019N0320001N1+01351+00461100921ADDGF102991999999999999999999MA1999999100911MW1001EQDQ01+999990APOSLP
0057248070999991971061606004+61333+100317FM-12+999999999V0202501N00821220001CN0500001N9+02111-00281101241ADDAY121999GF106991031021012501001011MD1810051+9999MW1021
0269999999939011971022101005+32733-096967SAO  +0150NBE  V0201105N005752200059N024000599+01944+01005100504ADDGD12995+9999999GD22995+9999999GD30995+9999999GD40995+9999999GF102025999999999999999999MA1999999098814EQDN01 00000JPWTH 1QNNE11 1 00299E11 1 00299E11 1 00099E11 1 00099G11U1 99999K11 1 00050L11 1 01500M11 1 29180N11 1 00000Q11 1 10050S11 1 00067V11 1 00303X11 1 11011
0057232050999991971013009004+67650+053017FM-12+000799999V0200501N00721024001CN0100001N9-01221-01281101431ADDAY171999GF108991081001999999071999MD1210021+9999MW1711
0269999999938371971120408005+30233-081667SAO  +0009NIP  V0202905N002150024449N011200599+00784+00445101434ADDGD14995+9999999GD20995+9999999GD30995+9999999GD40995+9999999GF108085999999999999999999MA1999999101324EQDN01 00000JPWTH 1QNNE11 1 00699E11 1 00099E11 1 00099E11 1 00099G11 1 00008K11 1 00040L11 1 00700M11 1 29920N11 1 00000Q11 1 10143S11 1 00046V11 1 01010X11 1 29004
0377999999266171971111712005+64500-165433SAO  +0004OME  V0200105N003152200059N012800599-00615-00895100365ADDGA1999+006714064GA2999+060964004GA3999+999999999GA4999+999999999GD12025+9999999GD22025+9999999GD30005+9999999GD40005+9999999GF104035999999999999999999MA1999999100275EQDN01 00000JPWTH 1QNNE11 1 00203E11 1 00202E11 1 00000E11 1 00000G11U1 99999H11 1 15022H11 1 32200H11 1 00999H11 1 00999K11 1 00016L11 1 00800M11 1 29610N11 1 00000Q11 1 10036S11 1 00021V11 1 00504X11 1 01006
038899999924225197110061200E+42367-122867SAO  +0396MFR  V02099959000052200059N024000599+01065+00785102165ADDAA101000095GA1999+091444024GA2999+999999999GA3999+999999999GA4999+999999999GD14085+9999993GD20005+9999999GD30005+9999999GD40005+9999999GF108035999999999999999999MA1999999097435EQDN01 00000JPWTH 1QNNE11 1 00510E11 1 00000E11 1 00000E11 1 00000G11U1 99999H11 1 37300H11 1 00999H11 1 00999H11 1 00999K11 1 00046L11 1 01500M11 1 28770N11 1 00000Q11 1 10216S11 1 00051V11 1 01004X11 1 00000
0092325590999991971020900004+53083+160017FM-12+999999999V0200501N01801004501CN0005001N9-00391-00501099921ADDAA106002091AA299000591AY181999GF108991081091004501999999KA1999N-00721MD1210121+9999MW1851
0081319600999991971061109004+43117+131883FM-12+0138UHWW V0201801N00981000151CN0001001N9+00891+00891099751ADDAA124999999AY181999GF109991091999000251999999KA1999M+01111MD1210031+9999MW1451
034699999913882197101101200E+35033-085200SAO  +021099999V0201805N002150045749N004000599+00225+00115101765ADDAA101000095GA1999+002134074GA2999+004574074GD12045+9999999GD24085+9999999GD30995+9999999GD40995+9999999GF108085999999999999999999MA1999999099225MW1045MW2455EQDN01 07080JPWTH 1QNNE11 1 00205E11 1 00610E11 1 00099E11 1 00099G11 1 00015H11 1 16007H11 1 16015K11 1 00034L11 1 00250M11 1 29300N11 1 07080Q11 1 10176S11 1 00036V11 1 01010X11 1 18004
0037478030999991971071519004+33883+130650FM-15+0033RJFA V0202101N004119999999N0096001N1+02571+02301999999ADDMA1999999100681EQDQ01+000000PRSWM2
0329704540257041971081418003+51883-176650SAO  +0005ADK  V0202505N006250030549N0080005N9+01005+01005100345ADDGA1011+001809079GA2061+003009079GA3021+003609079GD12995+9999999GD24995+9999999GD30995+9999999GD40995+9999999GF108085999999999999999999MA1100341100305MW1455MW2515EQDN01 03370JPWTH 1QNNE11 1 00299E11 1 00699E11 1 00099E11 1 00099G11 1 00010K11 1 00050L11 1 00500M11 1 29620N11 1 03370Q11 1 10034S11 1 00050V11 1 01010X11 1 25012
0057278150999991971040115004+53450+036883FM-12+022999999V0202501N00101220001CN0280001N9+00721-00111102631ADDAY101999GF100991001001999999001001MD1710091+9999MW1021
0269999999129261971013120005+27683-097283SAO  +0006NGP  V0200405N006752200059N019200599+02225+01565100845ADDGD11995+9999993GD20995+9999999GD30995+9999999GD40995+9999999GF101005999999999999999999MA1999999100785EQDN01 00000JPWTH 1QNNE11 1 00199E11 1 00099E11 1 00099E11 1 00099G11U1 99999K11 1 00060L11 1 01200M11 1 29760N11 1 00000Q11 1 10084S11 1 00072V11 1 00100X11 1 04013
028099999914826197105290500E+42967-083750SAO  +0235FNT  V02099959000052200059N022400599+00895+00505102075ADDAA101000095GD10995+9999999GD20995+9999999GD30995+9999999GD40995+9999999GF100005999999999999999999MA1999999099265EQDN01 00000JPWTH 1QNNE11 1 00099E11 1 00099E11 1 00099E11 1 00099G11U1 99999K11 1 00041L11 1 01400M11 1 29310N11 1 00000Q11 1 10207S11 1 00048V11 1 00000X11 1 00000
029872520094823197106051100C+40500-080217SAO  +0347PIT  V02099959000050670649N0024005N1+01505+01285102055ADDAA101000095GD12995+9999999GD23995+9999999GD30995+9999999GD40995+9999999GF106045999999999999999999MA1999999097705MW1045MW2111MW3445EQDN01 07280JPWTH 1QNNE11 1 00299E11 1 00499E11 1 00099E11 1 00099G11 1 00220K11 1 00055L11 1 00150M11 1 28850N11 1 07280Q11 1 10205S11 1 00059V11 1 00805X11 1 00000
0050724096147061971121223004+40000-074583SAO  +0041WRI  V0201801N000512200019N0240001N9+00721+00501999999ADDGF102991999999999999999999MA1101351999999MW1001
028099999993815197106290500E+39900-084217SAO  +031399999V0201505N006750762049N024000599+02444+01615102104ADDAA101000095GD13995+9999999GD20995+9999999GD30995+9999999GD40995+9999999GF106065999999999999999999MA1999999098584EQDN01 00000JPWTH 1QNNE11 1 00499E11 1 00099E11 1 00099E11 1 00099G11 1 00250K11 1 00061L11 1 01500M11 1 29110N11 1 00000Q11 1 10210S11 1 00076V11 1 00808X11 1 15013
0057335620999991971031803004+49233+028467FM-12+028799999V0201601N00101000151CN0005001N9+00001+00001101341ADDAY141999GF109991091999000251999999MD1810021+9999MW1431
034099999913866197110171200E+38367-081600SAO  +0286CRW  V02099959000050021349N001600599+01785+01615102325ADDAA101000095GA1999+000304074GA2999+002134074GD12015+9999999GD24075+9999999GD30995+9999999GD40995+9999999GF108085999999999999999999MA1999999098925MW1455EQDN01 07000JPWTH 1QNNE11 1 00201E11 1 00609E11 1 00099E11 1 00099G11 1 00007H11 1 16001H11 1 16007K11 1 00061L11 1 00100M11 1 29210N11 1 07000Q11 1 10232S11 1 00064V11 1 01010X11 1 00000
0081286880999991971041618004+54900+071267FM-12+012899999V0209991C00001220001CN0240001N9+00611+00611100791ADDAA199000091AY101999GF100991001001999999001001KA1999M+01501MD1310081+9999MW1011
0057261960999991971041615004+58900+034533FM-12+016599999V0203201N00311220001CN0200001N9+00111-01281101801ADDAY101999GF102991021041008001001001MD1710061+9999MW1011
0068332710999991971051400004+51150+034333FM-12+015699999V0201801N00311220001CN0110001N9+01391+00891101101ADDAA199000091AY101999GF102991001001999999031021MD1710161+9999MW1031
028099999912842197103100100E+27967-082533SAO  +001099999V0203405N003652200059N016000599+01065+00285102225ADDAA101000095GD10995+9999999GD20995+9999999GD30995+9999999GD40995+9999999GF100005999999999999999999MA1999999102205EQDN01 00000JPWTH 1QNNE11 1 00099E11 1 00099E11 1 00099E11 1 00099G11U1 99999K11 1 00037L11 1 01000M11 1 30180N11 1 00000Q11 1 10222S11 1 00051V11 1 00000X11 1 34007
0081231030999991971020518004+68933+053767FM-12+999999999V0201801N99999220001CN0027001N9-01111-01501101771ADDAA199000091AY131999GF107991001001999999001011KA1999M-00781MD1310011+9999MW1381
0057291280999991971042621004+58700+081500FM-12+007599999V0202901N01391004501CN0500001N9-00281-00611100961ADDAY171999GF107991071051004501001001MD1210441+9999MW1021
0269999999147801971012910005+40033-074350SAO  +0034NEL  V0202005N001052200059N016000599-01285-01835101745ADDGD10995+9999999GD20995+9999999GD30995+9999999GD40995+9999999GF100005999999999999999999MA1999999101325EQDN01 00000JPWTH 1QNNE11 1 00099E11 1 00099E11 1 00099E11 1 00099G11U1 99999K11 1-00001L11 1 01000M11 1 29920N11 1 00000Q11 1 10174S11 1 00009V11 1 00000X11 1 20002
0195999999232931971012507005+37367-121917SAO  +0016SJC  V0202205N002652200049N024000599+00675+00395999999ADDGD10995+9999999GD20995+9999999GD30995+9999999GD40995+9999999EQDN01 00000JPWTH 1QNNE11 1 00099E11 1 00099E11 1 00099E11 1 00099G11U1 99999K11 1 00039L11 1 01500N11 1 00000S11 1 00044X11 1 22005
0044744900147021971051204004+42467-071283SAO  +0045BED  V0202201N001512200019N0192001N9+01561+00611999999ADDGF102991999999999999999999MA1101631999999
0287722085938311971072107003+32483-080717SAO  +0010NBC  V02099959000050304849N0080005N1+02225+02065101465ADDGD13995+9999999GD24995+9999993GD30995+9999999GD40995+9999999GF108045999999999999999999MA1999999101355MW1055MW2111MW3445EQDN01 07281JPWTH 1QNNE11 1 00499E11 1 00599E11 1 00099E11 1 00099G11 1 00100K11 1 00069L11 1 00500M11 1 29930N11 1 07281Q11 1 10146S11 1 00072V11 1 01005X11 1 00000
028099999914778197105120900E+41250-076917SAO  +0160IPT  V0200605N005250304849N011200599+01835+00835101225ADDAA101000095GD14995+9999999GD20995+9999999GD30995+9999999GD40995+9999999GF108085999999999999999999MA1999999099365EQDN01 00000JPWTH 1QNNE11 1 00699E11 1 00099E11 1 00099E11 1 00099G11 1 00100K11 1 00047L11 1 00700M11 1 29340N11 1 00000Q11 1 10122S11 1 00065V11 1 01010X11 1 06010
0082701730999991971102602004+66000-153700SAO  +0375PAIM V0201001N001010030019N0024001N9-01501-01721999999ADDGF108991999999999999999999MA1101291999999MW1451MW2851REMAWY017VSBY N-NE 1 MAG07
0269999999137501971010407005+36950-076283SAO  +0010NGU  V0201205N002650152449N011200599+00725+00505102195ADDGD13995+9999999GD20995+9999999GD30995+9999999GD40995+9999999GF107075999999999999999999MA1999999102075EQDN01 00000JPWTH 1QNNE11 1 00499E11 1 00099E11 1 00099E11 1 00099G11 1 00050K11 1 00041L11 1 00700M11 1 30140N11 1 00000Q11 1 10219S11 1 00045V11 1 00909X11 1 12005
0080488660999991971012607004+13983+108000FM-15+0801VVPK V0200701N003110105019N0112001N1+02571+01411999999ADDGA1051+010509059GA2031+090009009GF107991999999999999999999EQDQ01+000000PRSWM2
0081319090999991971042521004+45033+136667FM-12+001199999V0203401N00411090001CN0200001N9+00281-00111100661ADDAA199000091AY121999GF108991011001999999041021KA1999N+00221MD1010101+9999MW1021
0057166650999991971020921004+39217+022800FM-12+001599999V0209991C00001220001CN0120001N9+00391+00111102331ADDAY101999GF100991001001999999001001MD1210161+9999MW1001
0377999999038661971021318005+32550-088567SAO  +0083NMM  V0203005N006250106749N011200599-00065-00895101875ADDGA1999+010674084GA2999+999999999GA3999+999999999GA4999+999999999GD13065+9999999GD20005+9999999GD30005+9999999GD40005+9999999GF106065999999999999999999MA1999999100815EQDN01 00000JPWTH 1QNNE11 1 00407E11 1 00000E11 1 00000E11 1 00000G11 1 00035H11 1 11035H11 1 00999H11 1 00999H11 1 00999K11 1 00016L11 1 00700M11 1 29770N11 1 00000Q11 1 10187S11 1 00031V11 1 00707X11 1 30012
0057353450999991971060206004+49767+061050FM-12+999999999V0200201N99999024001CN0500001N9+99999+99999100901ADDAY161999GF107991071001999999091001MD1410001+9999MW1011
0050724567139211971032008004+39367-094917SAO  +0238FLV  V0202901N003612200019N0112001N1-00091-00761999999ADDGF100991999999999999999999MA1999999099561MW1001
028099999994014197103030400E+48183-103633SAO  +0579ISN  V0202105N005252200059N024000599-00784-01285102104ADDAA101000095GD12995+9999999GD20995+9999999GD30995+9999999GD40995+9999999GF102025999999999999999999MA1999999094894EQDN01 00000JPWTH 1QNNE11 1 00299E11 1 00099E11 1 00099E11 1 00099G11U1 99999K11 1 00009L11 1 01500M11 1 28020N11 1 00000Q11 1 10210S11 1 00018V11 1 00202X11 1 21010
0269999999240361971051015005+47050-109450SAO  +1263LWT  V0200905N006252200059N080000599+01005-00395102675ADDGD11995+9999993GD20995+9999999GD30995+9999999GD40995+9999999GF102005999999999999999999MA1999999088255EQDN01 00000JPWTH 1QNNE11 1 00199E11 1 00099E11 1 00099E11 1 00099G11U1 99999K11 1 00025L11 1 05000M11 1 26060N11 1 00000Q11 1 10267S11 1 00050V11 1 00200X11 1 09012
0269999999129281971121620005+27500-097817SAO  +0017NQI  V02099959000050045749N011200599+02505+02115101485ADDGD13995+9999999GD20995+9999999GD30995+9999999GD40995+9999999GF107075999999999999999999MA1999999101295EQDN01 00000JPWTH 1QNNE11 1 00499E11 1 00099E11 1 00099E11 1 00099G11 1 00015K11 1 00070L11 1 00700M11 1 29910N11 1 00000Q11 1 10148S11 1 00077V11 1 00909X11 1 00000
038899999914848197103251800E+41700-086317SAO  +0236SBN  V0201105N002652200059N019200599+00285-00895102605ADDAA101000095GA1999+999999084GA2999+091444004GA3999+999999999GA4999+999999999GD13005+9999993GD20065+9999999GD30005+9999999GD40005+9999999GF106025999999999999999999MA1999999099705EQDN01 00000JPWTH 1QNNE11 1 00300E11 1 00008E11 1 00000E11 1 00000G11U1 99999H11 1 11999H11 1 32300H11 1 00999H11 1 00999K11 1 00016L11 1 01200M11 1 29440N11 1 00000Q11 1 10260S11 1 00037V11 1 00802X11 1 11005
0057346060999991971062603004+47650+036250FM-12+999999999V0209991C00001220001CN0040001N9+01281+01221101481ADDAY101999GF100991001001999999001001MD1210031+9999MW1101
0073745700138401971030301004+39817-084050SAO  +0254FFO  V0200201N006210300019N0208001N9+00171-00611999999ADDGF108991999999999999999999MA1101691999999MW1001REMAWY014THN SPOTS IOVC
0081237760999991971041612004+62467+089000FM-12+999999999V0203201N001019999999N0500001N9+00781+00001101231ADDAA199000091AY121999GF108991031001999999041071KA1999M+01001MD1210021+9999MW1021
0037476710999991971112300004+35550+139783FM-15+0008RJTT V0203401N003119999999N0080001N1+01131+00021999999ADDMA1999999101591EQDQ01+000000PRSWM2
0113724037937281971052119004+38717-077183SAO  +0024DAA  V0209991C00001075001EN0112001N9+01781+01391101431ADDGA1021+030009999GA2081+075009999GF108991999999999999999999MA1101391999999MD1110051+9999MW1001REMAWY008105 1077
0377999999241281971061521005+40900-117800SAO  +1311WMC  V0202205N007252200059N064000599+02895+00115101355ADDGA1999+076204004GA2999+999999999GA3999+999999999GA4999+999999999GD11025+9999993GD20005+9999999GD30005+9999999GD40005+9999999GF102015999999999999999999MA1999999086865EQDN01 00000JPWTH 1QNNE11 1 00103E11 1 00000E11 1 00000E11 1 00000G11U1 99999H11 1 32250H11 1 00999H11 1 00999H11 1 00999K11 1 00034L11 1 04000M11 1 25650N11 1 00000Q11 1 10135S11 1 00084V11 1 00301X11 1 22014
0127261670999991971022518004+58567+029800FM-12+009399999V0201601N00311001801CN0028001N9+00001-00111099791ADDAA106012091AA299003091AY171999GA1081+001809049GF108991999071001501021999KA1999M+00001MD1310061+9999MW1731EQDQ01+000082SCOTLC
0275999999148501971122809005+44733-085583SAO  +0188TVC  V0202905N005750039649N011200599-00285-00725101455ADDGD13995+9999999GD24995+9999999GD30995+9999999GD40995+9999999GF108085999999999999999999MA1999999099095MW1715EQDN01 04000JPWTH 1QNNE11 1 00499E11 1 00699E11 1 00099E11 1 00099G11 1 00013K11 1 00019L11 1 00700M11 1 29260N11 1 04000Q11 1 10145S11 1 00027V11 1 01010X11 1 29011
