0074724240138071972041620004+37900-085967SAO  +0230FTK  V0202601N011312200019N0320001N9+01891+01561999999ADDGA1021+012009999GF102991999999999999999999MA1100441999999MW1001OC101591
0275999999149401972091306005+43150-093333SAO  +0367MCW  V0201505N002652200059N008000599+01895+01835100945ADDGD12995+9999999GD20995+9999999GD30995+9999999GD40995+9999999GF103025999999999999999999MA1999999096615MW1455EQDN01 07000JPWTH 1QNNE11 1 00299E11 1 00099E11 1 00099E11 1 00099G11U1 99999K11 1 00065L11 1 00500M11 1 28530N11 1 07000Q11 1 10094S11 1 00066V11 1 00403X11 1 15005
0079727755241121972071019004+47517-111183SAO  +1075GFA  V0202101N007712200019N1360001N9+02171-00391999999ADDGF102991999999999999999999MA1101421999999MW1001OC101341REMAWY012FEW CU ALQDS
038899999903103197205220000E+35133-111667SAO  +2135FLG  V0202105N006252200059N024000599+01285-00835101515ADDAA101000095GA1999+018294084GA2999+999999004GA3999+999999999GA4999+999999999GD12015+9999999GD22005+9999999GD30005+9999999GD40005+9999999GF101015999999999999999999MA1999999078605EQDN01 00000JPWTH 1QNNE11 1 00201E11 1 00200E11 1 00000E11 1 00000G11U1 99999H11 1 11060H11 1 32999H11 1 00999H11 1 00999K11 1 00017L11 1 01500M11 1 23210N11 1 00000Q11 1 10151S11 1 00055V11 1 00101X11 1 21012
0050704540257041972123005004+51883-176650SAO  +0005PADK V0209991C000010075019N0112001N9-00281-00671102481ADDGF107991999999999999999999MA1102471999999MW1001
0070744900147021972052800004+42467-071283SAO  +0045BED  V0201901N003612200019N0480001N9+01831+00061102621ADDGF100991999999999999999999MA1102641102131MD1610031+9999REMAWY003603
007699999903856197210060800E+34650-086767SAO  +0190HSV  V0203005N002159999999N999999999+01225+99999999999ADDAA101000095GF108005999999999999999999QNNS11 1 00054V11 1 01000X11 1 30004
0044725196147171972062907004+43233-075417SAO  +0154RME  V0201101N001012200019N0096001N9+01721+01561999999ADDGF100991999999999999999999MA1101421999999
0050725287047241972032011004+43100-078950SAO  +0180IAG  V0209991C000010096019N0160001N9-00561-00941999999ADDGF107991999999999999999999MA1102681999999MW1001
0058725287047241972042316004+43100-078950SAO  +0180IAG  V0202301N008210084019N0160001N9+00671+00171999999ADDGF107991999999999999999999MA1101051999999MW1001OC101081
006172433813802197210230200D+38550-089850SAO  +0138BLV  V0201701N003110024019N0064001N9+01741+01571100801ADDAA101000095GF108991999999999999999999MA1999999099151MW1451
006391182022521197205240100D+21333-157917SAO  +0003PHNL V0200601N008212200019N0560001N9+02781+01561101721ADDAA101000095GF102991999999999999999999MA1101731999999OC101081
031372785024157197211300600E+47633-117533SAO  +0718GEG  V0201805N001550009149N004800599+00175+00005102755ADDAA101000095GA1999+000914074GD14085+9999999GD20995+9999999GD30995+9999999GD40995+9999999GF108085999999999999999999MA1999999094115MW1445EQDN01 07200JPWTH 1QNNE11 1 00610E11 1 00099E11 1 00099E11 1 00099G11 1 00003H11 1 16003K11 1 00032L11 1 00300M11 1 27790N11 1 07200Q11 1 10275S11 1 00035V11 1 01010X11 1 18003
007494975099999197211110100N-42830+147520AUST +0003YMHB V0202935N009359999999N999999999+01705+00405999999ADDAY124999GA1035+010505085GF103995034015010505999999MA1999999100465MW1035
028099999913743197207171100E+38850-077033SAO  +0003DCA  V0202105N001552200059N012800599+02285+02065102005ADDAA101000095GD13995+9999993GD20995+9999999GD30995+9999999GD40995+9999999GF106035999999999999999999MA1999999101765EQDN01 00000JPWTH 1QNNE11 1 00399E11 1 00099E11 1 00099E11 1 00099G11U1 99999K11 1 00069L11 1 00800M11 1 30050N11 1 00000Q11 1 10200S11 1 00073V11 1 00804X11 1 21003
038899999912839197207131500E+25800-080267SAO  +0004MIA  V0202805N004150061049N011200599+02725+02225101895ADDAA101000095GA1999+006104094GA2999+085344004GA3999+999999999GA4999+999999999GD13065+9999999GD23025+9999999GD30005+9999999GD40005+9999999GF107075999999999999999999MA1999999101865EQDN01 00000JPWTH 1QNNE11 1 00407E11 1 00402E11 1 00000E11 1 00000G11 1 00020H11 1 18020H11 1 32280H11 1 00999H11 1 00999K11 1 00072L11 1 00700M11 1 30080N11 1 00000Q11 1 10189S11 1 00081V11 1 00909X11 1 28008
030799999914735197201220900E+42750-073800SAO  +0084ALB  V02099959000050070149N032000599-01285-01505102595ADDAA101000095GA1999+007014064GD14085+9999999GD20995+9999999GD30995+9999999GD40995+9999999GF108085999999999999999999MA1999999101465EQDN01 00000JPWTH 1QNNE11 1 00610E11 1 00099E11 1 00099E11 1 00099G11 1 00023H11 1 15023K11 1 00005L11 1 02000M11 1 29960N11 1 00000Q11 1 10259S11 1 00009V11 1 01010X11 1 00000
005591182022521197205111600D+21333-157917SAO  +0003PHNL V0203001N003110810019N0400001N9+02111+01831101461ADDAA101000095GF107991999999999999999999MA1101461999999
035299999914913197207171500E+46833-092183SAO  +043499999V0202305N003150021349N001300599+01675+01565101215ADDAA101006195GA1999+002134094GD14085+9999999GD20995+9999999GD30995+9999999GD40995+9999999GF108085999999999999999999MA1999999096145MW1455MW2815MW3955EQDN01 01024JPWTH 1N02 07000JPWTH 1QNNE11 1 00610E11 1 00099E11 1 00099E11 1 00099G11 1 00007H11 1 18007K11 1 00060L11 1 00081M11 1 28390N11 1 01024N11 1 07000Q11 1 10121S11 1 00062V11 1 01010X11 1 23006
006172389093193197210140800D+36767-119717SAO  +0101FAT  V0201001N002512200019N0240001N9+01221+00831101501ADDAA101000095GF100991999999999999999999MA1101521100311MW1001
005994999900256197206150500N-36220+149130AUST +0860     V0209999C000059999999N999999999+00835+00205999999ADDAY114999GA1005+999999999GF100995004999999999999999MW1025
0009476350999991972020919004+35250+136933FM-15+0017RJNN V0200301N003119999999N0096001N1+00301-00091999999ADDMW1611
038872266013962197204241200E+32417-099683SAO  +0544ABI  V0200105N003652200059N024000599+00835+00615102005ADDAA101000095GA1999+999999004GA2999+999999999GA3999+999999999GA4999+999999999GD10005+9999999GD20005+9999999GD30005+9999999GD40005+9999999GF100005999999999999999999MA1999999095735EQDN01 00000JPWTH 1QNNE11 1 00000E11 1 00000E11 1 00000E11 1 00000G11U1 99999H11 1 32999H11 1 00999H11 1 00999H11 1 00999K11 1 00043L11 1 01500M11 1 28270N11 1 00000Q11 1 10200S11 1 00047V11 1 00000X11 1 01007
0335703500255011972070221005+57750-152500SAO  +0004ADQ  V0200305N005250018349N001600599+00835+00725102855ADDGA1999+999999104GA2999+001834134GD16045+9999999GD24045+9999999GD30995+9999999GD40995+9999999GF108085999999999999999999MA1999999102405MW1455MW2615EQDN01 02070JPWTH 1QNNE11 1 00805E11 1 00605E11 1 00099E11 1 00099G11 1 00006H11 1 45999H11 1 13006K11 1 00045L11 1 00100M11 1 30240N11 1 02070Q11 1 10285S11 1 00047V11 1 01010X11 1 03010
0058726225047421972051208004+44650-073467SAO  +0072PBG  V0203001N005710210019N0240001N9+00891-00111999999ADDGF107991999999999999999999MA1102201999999MW1001OC100871
033499999914925197210231800E+43917-092500SAO  +0395RST  V0203505N008850045749N024000599+00225+00005101995ADDAA101000095GA1999+003054134GA2999+004574134GD12025+9999999GD24075+9999999GD30995+9999999GD40995+9999999GF108085999999999999999999MA1999999097095EQDN01 00000JPWTH 1QNNE11 1 00203E11 1 00609E11 1 00099E11 1 00099G11 1 00015H11 1 13010H11 1 13015K11 1 00032L11 1 01500M11 1 28670N11 1 00000Q11 1 10199S11 1 00036V11 1 01010X11 1 35017
0037484775999991972073002004+12683+101000FM-15+0018VTBU V0209991V00461030001CN0112001N1+02961+02351999999ADDMA1999999100471EQDQ01+000000PRSWM2
0111722785231111972052919004+33533-112383SAO  +0339LUF  V0203501N00261075001EN0240001N1+02391+01501101171ADDGA1081+075009999GF108991999999999999999999MA1101321999999MD1810021+9999MW1001REMAWY022THN SPTS IOVC/802 1007
008394999900252197201180500N-35300+149100AUST +0581     V0209999C000059999999N999999999+01845+01705999999ADDGA1015+009005115GA2025+012005999GA3035+999999035GF106995014075009005065999MW1295
008294999900346197210110500N-41000+145730AUST +0020     V0202255N012959999999N999999999+99999+99999999999ADDGA1035+002405075GA2055+007505065GF106995034065002405999999MA1999999099845MW1255
033499999994014197211260600E+48183-103633SAO  +0579ISN  V0202105N002150304849N040000599-00394-00565100504ADDAA101000095GA1999+030484034GA2999+060964024GD13065+9999999GD24025+9999999GD30995+9999999GD40995+9999999GF108085999999999999999999MA1999999093534EQDN01 00000JPWTH 1QNNE11 1 00408E11 1 00602E11 1 00099E11 1 00099G11 1 00100H11 1 23100H11 1 37200K11 1 00022L11 1 02500M11 1 27620N11 1 00000Q11 1 10050S11 1 00025V11 1 01010X11 1 21004
0207999999272011972121608005+71950-124733SAO  +0084CYSY V02002359003152200059N016000599-03895+99999103445ADDGA1999+999999104GD19005+9999999GF100005999999999999999999MA1999999102245EQDN01 00000JPWTH 1QNNE11 1 09900G11U1 99999H11 1 45999L11 1 01000M11 1 30190N11 1 00000Q11 1 10344S11 1-00038V11 1 00000W11 1 12006
0302999999253391972012806005+59517-139667SAO  +0009YAK  V0200605N002650057949N011200599-00565-00725102405ADDGA1999+005794064GD14085+9999999GD20995+9999999GD30995+9999999GD40995+9999999GF108085999999999999999999MA1999999102305MW1565EQDN01 03600JPWTH 1QNNE11 1 00610E11 1 00099E11 1 00099E11 1 00099G11 1 00019H11 1 15019K11 1 00019L11 1 00700M11 1 30210N11 1 03600Q11 1 10240S11 1 00022V11 1 01010X11 1 06005
038899999923234197207262100E+37617-122383SAO  +0002SFO  V0203105N007252200059N032000599+02115+01175101665ADDAA101000095GA1999+999999074GA2999+999999999GA3999+999999999GA4999+999999999GD10005+9999999GD20005+9999999GD30005+9999999GD40005+9999999GF100005999999999999999999MA1999999101595EQDN01 00000JPWTH 1QNNE11 1 00000E11 1 00000E11 1 00000E11 1 00000G11U1 99999H11 1 16999H11 1 00999H11 1 00999H11 1 00999K11 1 00053L11 1 02000M11 1 30000N11 1 00000Q11 1 10166S11 1 00070V11 1 00000X11 1 31014
038899999913881197204031500E+35217-080933SAO  +0225CLT  V0201605N003652200059N016000599+01115+00065102135ADDAA101000095GA1999+036584034GA2999+999999999GA3999+999999999GA4999+999999999GD12035+9999999GD20005+9999999GD30005+9999999GD40005+9999999GF103025999999999999999999MA1999999099325EQDN01 00000JPWTH 1QNNE11 1 00204E11 1 00000E11 1 00000E11 1 00000G11U1 99999H11 1 23120H11 1 00999H11 1 00999H11 1 00999K11 1 00033L11 1 01000M11 1 29330N11 1 00000Q11 1 10213S11 1 00052V11 1 00403X11 1 16007
010694999900003197201121000N-18230+127670AUST +0410     V0201805N002659999999N999999999+03675+00905999999ADDAY124999GA1025+009005095GA2005+999999999GA3025+999999999GF104995024035009005999085MA1999999095565MW1025
0133722265138211972060217004+32383-086367SAO  +0055MXF  V0200401N001012200019N0320001N9+02611+00781999999ADDGF100991999999999999999999MA1101691999999REMAWY080CLR                                                             WND LGT AND VRBL
006694826099999197211060400N-38430+141550AUST +0047     V0202255N009859999999N999999999+01435+99999999999ADDGA1065+004505065GF106995064055004505999999MA1999999101115MW1025
008294390099999197202022300N-24730+153220AUST +0101     V0201585N009359999999N999999999+02045+01905999999ADDGA1055+001205115GA2085+999999045GF108995054075001205025999MA1999999100115MW1635
0269999999240131972011622005+48267-101283SAO  +0527MOT  V0202505N009352200059N056000599+00565-00335100005ADDGD12995+9999999GD24995+9999993GD30995+9999999GD40995+9999999GF108035999999999999999999MA1999999093805EQDN01 00000JPWTH 1QNNE11 1 00299E11 1 00599E11 1 00099E11 1 00099G11U1 99999K11 1 00026L11 1 03500M11 1 27700N11 1 00000Q11 1 10000S11 1 00042V11 1 01004X11 1 25018
036199999922536197205120900E+21983-159350SAO  +0031LIH  V0200405N003150152449N024000599+02395+02065101745ADDAA101000095GA1999+006104084GA2999+015244064GA3999+076204024GD12035+9999999GD23025+9999999GD34085+9999999GD40995+9999999GF108085999999999999999999MA1999999101225EQDN01 00000JPWTH 1QNNE11 1 00204E11 1 00403E11 1 00610E11 1 00099G11 1 00050H11 1 11020H11 1 15050H11 1 37250K11 1 00069L11 1 01500M11 1 29890N11 1 00000Q11 1 10174S11 1 00075V11 1 01010X11 1 04006
008799999924215197202140600E+41317-122317SAO  +1078MHS  V0203305N001559999999N999999999+00285-00505102105ADDAA101000095MA1999999089505QNNK11 1 00023M11 1 26430Q11 1 10210S11 1 00037X11 1 33003
0072476420999991972122312004+35750+139350FM-15+0139RJTY V0203401N003610066019N0100001N9+00301+00201999999ADDGA1011+003009079GA2081+006609049MA1102441100751MW1611REMMET007CIGM022
0083724096147061972062617004+40000-074583SAO  +0041WRI  V0202601N001510210019N0144001N9+02391+01671999999ADDGF108991999999999999999999MA1100781999999MW1001REMAWY024BINOVC OVHD WND LGT VRBL
0050722545999991972040213004+30200-097667SAO  +0165BSM  V0202101N004112200019N0400001N9+01281+01061999999ADDGF107991999999999999999999MA1101631999999MW1001
028099999994789197209020300E+40650-073783SAO  +0010JFK  V0200705N005250076249N016000599+02224+01675102034ADDAA101000095GD14995+9999999GD20995+9999999GD30995+9999999GD40995+9999999GF108085999999999999999999MA1999999101964EQDN01 00000JPWTH 1QNNE11 1 00699E11 1 00099E11 1 00099E11 1 00099G11 1 00025K11 1 00062L11 1 01000M11 1 30110N11 1 00000Q11 1 10203S11 1 00072V11 1 01010X11 1 07010
008799999903856197211111400E+34650-086767SAO  +0190HSV  V0203405N005750085349N999999999+00835+99999999999ADDAA101000095GF108085999999999999999999QNNG11 1 00028S11 1 00047V11 1 01010X11 1 34011
028672572024127197204061800C+40767-111967SAO  +1286SLC  V0202105N004150228649N0320005N1+00895+00505101225ADDAA101000095GD12995+9999999GD23995+9999999GD33995+9999999GD40995+9999999GF106045999999999999999999MA1999999086935MW1001EQDN01 00000JPWTH 1QNNE11 1 00299E11 1 00499E11 1 00499E11 1 00099G11 1 00075K11 1 00041L11 1 02000M11 1 25670N11 1 00000Q11 1 10122S11 1 00048V11 1 00705X11 1 21008
007494999900099197209302330N-32530+137780AUST +0008     V0209999C000059999999N999999999+02025+00805999999ADDAY124999GA1005+999999999GF100995004999999999999999MA1999999101885MW1025
038870261026411197208031200E+64817-147867SAO  +013999999V0203405N004652200059N064000599+01395+00445101285ADDAA101000095GA1999+036584034GA2999+076204024GA3999+999999999GA4999+999999999GD12015+9999999GD22015+9999999GD30005+9999999GD40005+9999999GF102025999999999999999999MA1999999099595EQDN01 00000JPWTH 1QNNE11 1 00201E11 1 00201E11 1 00000E11 1 00000G11U1 99999H11 1 23120H11 1 37250H11 1 00999H11 1 00999K11 1 00040L11 1 04000M11 1 29410N11 1 00000Q11 1 10128S11 1 00057V11 1 00202X11 1 34009
0009722925931171972121111004+33017-118583SAO  +0055NUC  V02099999999999999999N0000001N1+99999+99999999999ADDMW1001
0050723030137141972071013004+35167-079017SAO  +0066POB  V0200701N002112200019N0112001N9+01941+01501999999ADDGF102991999999999999999999MA1102441999999MW1001
0064747810999991972031000004+30967-083200SAO  +0074VAD  V0200701N001012200019N0160001N9+01061-00501103051ADDGF100991999999999999999999MA1102951999999MD1310021+9999MW1001
0243999999947251972020318005+44933-074850SAO  +0067MSS  V0200905N004150106749N011200599-00224-00445101164ADDGD14995+9999999GD20995+9999999GD30995+9999999GF108085999999999999999999MA1999999100374EQDN01 00000JPWTH 1QNNE11 1 00699E11 1 00099E11 1 00099G11 1 00035K11 1 00024L11 1 00700M11 1 29640N11 1 00000Q11 1 10116S11 1 00028V11 1 01010X11 1 09008
0201999999264171972061721005+99999+999999SAO  +999999999V0200605N010350061049N014400599+00895+00675999999ADDGD14995+9999999GD20995+9999999GD30995+9999999GD40995+9999999MW1635EQDN01 02100JPWTH 1QNNE11 1 00699E11 1 00099E11 1 00099E11 1 00099G11 1 00020K11 1 00044L11 1 00900N11 1 02100S11 1 00048X11 1 06020
008799999913891197205071600E+35817-083983SAO  +0276TYS  V0200705N002152200059N999999999+02115+99999999999ADDAA101000095GF106025999999999999999999QNNG11U1 99999S11 1 00070V11 1 00703X11 1 07004
034699999913740197205220600E+37500-077333SAO  +0050RIC  V0200305N005250112849N004800599+01675+01615100675ADDAA101010295GA1999+001524134GA2999+011284064GD12045+9999999GD24045+9999999GD30995+9999999GD40995+9999999GF108085999999999999999999MA1999999100035MW1455MW2615EQDN01 02070JPWTH 1QNNE11 1 00205E11 1 00605E11 1 00099E11 1 00099G11 1 00037H11 1 13005H11 1 15037K11 1 00061L11 1 00300M11 1 29540N11 1 02070Q11 1 10067S11 1 00062V11 1 01010X11 1 03010
0107745700138401972071312004+39817-084050SAO  +0254FFO  V0202201N002112200019N0028001N9+02281+02111101551ADDGF102991999999999999999999MA1101631999999MD1510021+9999MW1051MW2111REMAWY028FH3 VSBY N-NE 1 1/2/502 1008
017699999913995197202050300E+37233-093383SAO  +0386SGF  V0201205N003152200059N024000599-00675-01175103345ADDAA101000095GF100005999999999999999999MA1999999098515EQDN01 00000JPWTH 1QNNG11U1 99999K11 1 00011L11 1 01500M11 1 29090N11 1 00000Q11 1 10334S11 1 00020V11 1 00000X11 1 12006
0088725196147171972051809004+43233-075417SAO  +0154RME  V0209991C000010030019N0012001N9+00891+00891101461ADDGF108991999999999999999999MA1101461999999MD1210031+9999REMAWY0211MR33VR60/R33VR50/203
0350999999138831972041115005+33983-081000SAO  +006999999V0202305N004650304849N016000599+01675+01225102175ADDGA1999+024384034GA2999+030484034GA3999+060964024GD12025+9999999GD23035+9999999GD34035+9999999GD40995+9999999GF108085999999999999999999MA1999999101355EQDN01 00000JPWTH 1QNNE11 1 00202E11 1 00404E11 1 00604E11 1 00099G11 1 00100H11 1 23080H11 1 23100H11 1 37200K11 1 00054L11 1 01000M11 1 29930N11 1 00000Q11 1 10217S11 1 00062V11 1 01010X11 1 23009
038899999993817197204270300E+38050-087533SAO  +0116EVV  V0203205N002652200059N016000599+01004+00335102524ADDAA101000095GA1999+076204024GA2999+999999999GA3999+999999999GA4999+999999999GD13065+9999993GD20005+9999999GD30005+9999999GD40005+9999999GF106025999999999999999999MA1999999101084EQDN01 00000JPWTH 1QNNE11 1 00307E11 1 00000E11 1 00000E11 1 00000G11U1 99999H11 1 37250H11 1 00999H11 1 00999H11 1 00999K11 1 00038L11 1 01000M11 1 29850N11 1 00000Q11 1 10252S11 1 00050V11 1 00702X11 1 32005
0377999999405041972052609005+06967+158217SAO  +003699999V0202505N002650070149N011200599+02675+02335100825ADDGA1999+007014084GA2999+999999999GA3999+999999999GA4999+999999999GD13055+9999999GD20005+9999999GD30005+9999999GD40005+9999999GF105055999999999999999999MA1999999100305EQDN01 00000JPWTH 1QNNE11 1 00406E11 1 00000E11 1 00000E11 1 00000G11 1 00023H11 1 11023H11 1 00999H11 1 00999H11 1 00999K11 1 00074L11 1 00700M11 1 29620N11 1 00000Q11 1 10082S11 1 00080V11 1 00606X11 1 25005
0092085090999991972051214004+38767-027100FM-15+0055LPLA V0201301N005110120019N0100001N9+01901+01201999999ADDGA1011+008109089GA2061+012009059GA3011+030009039GF107991999999999999999999MA1103051102331
028099999913877197202071600E+36483-082400SAO  +0459TRI  V0203405N007250121949N011200599+00065-00395101705ADDAA101000095GD12995+9999999GD24995+9999999GD30995+9999999GD40995+9999999GF108085999999999999999999MA1999999096145EQDN01 00000JPWTH 1QNNE11 1 00299E11 1 00699E11 1 00099E11 1 00099G11 1 00040K11 1 00025L11 1 00700M11 1 28390N11 1 00000Q11 1 10170S11 1 00033V11 1 01010X11 1 34014
0377999999225141972082518005+21317-158067SAO  +0015HNA  V0200505N004152200059N024000599+02675+02115101475ADDGA1999+007624084GA2999+013724064GA3999+999999999GA4999+999999999GD12025+9999999GD22015+9999999GD30005+9999999GD40005+9999999GF102025999999999999999999MA1999999101325EQDN01 00000JPWTH 1QNNE11 1 00202E11 1 00201E11 1 00000E11 1 00000G11U1 99999H11 1 11025H11 1 15045H11 1 00999H11 1 00999K11 1 00070L11 1 01500M11 1 29920N11 1 00000Q11 1 10147S11 1 00080V11 1 00303X11 1 05008
028099999914922197210021300E+44883-093217SAO  +0254MSP  V0201405N003150487749N032000599+01065+00785101355ADDAA101000095GD12995+9999999GD23995+9999999GD33995+9999999GD40995+9999999GF106045999999999999999999MA1999999098315EQDN01 00000JPWTH 1QNNE11 1 00299E11 1 00499E11 1 00499E11 1 00099G11 1 00160K11 1 00046L11 1 02000M11 1 29030N11 1 00000Q11 1 10135S11 1 00051V11 1 00705X11 1 14006
0335999999253391972102321005+59517-139667SAO  +0009YAK  V0201005N006750012249N001600599+00615+00505099675ADDGA1999+001224134GA2999+003054054GD13055+9999999GD24085+9999999GD30995+9999999GD40995+9999999GF108085999999999999999999MA1999999099565MW1455MW2655EQDN01 02270JPWTH 1QNNE11 1 00406E11 1 00610E11 1 00099E11 1 00099G11 1 00004H11 1 13004H11 1 22010K11 1 00041L11 1 00100M11 1 29400N11 1 02270Q11 1 09967S11 1 00043V11 1 01010X11 1 10013
0053471100999991972021413004+37550+126800FM-15+0020RKSS V0201301N001019999999N0096001N1-00151-00761101991ADDMA1999999101761EQDQ01+999990APOSLPQ02+000000PRSWM2
008799999913889197206060700E+30417-081650SAO  +001299999V02099959000052200059N999999999+01835+99999999999ADDAA101000095GF100995999999999999999999QNNG11U1 99999S11 1 00065V11 1 00099X11 1 00000
031999999923042197205071500E+33650-101817SAO  +0992LBB  V0200305N005250021349N004800599+00945+00945101685ADDAA101000095GA1999+002134074GD14085+9999999GD20995+9999999GD30995+9999999GD40995+9999999GF108085999999999999999999MA1999999090525MW1455MW2515EQDN01 03370JPWTH 1QNNE11 1 00610E11 1 00099E11 1 00099E11 1 00099G11 1 00007H11 1 16007K11 1 00049L11 1 00300M11 1 26730N11 1 03370Q11 1 10168S11 1 00049V11 1 01010X11 1 03010
038899999912836197206070000E+24550-081750SAO  +0001EYW  V0201105N003152200059N032000599+02675+02285101225ADDAA101000095GA1999+004574084GA2999+085344004GA3999+999999999GA4999+999999999GD12025+9999999GD22015+9999999GD30005+9999999GD40005+9999999GF103035999999999999999999MA1999999101155EQDN01 00000JPWTH 1QNNE11 1 00203E11 1 00201E11 1 00000E11 1 00000G11U1 99999H11 1 11015H11 1 32280H11 1 00999H11 1 00999K11 1 00073L11 1 02000M11 1 29870N11 1 00000Q11 1 10122S11 1 00080V11 1 00404X11 1 11006
0232999999242341972072711005+47533-122300SAO  +0006BFI  V0200305N001550152449N024000599+01505+01065999999ADDGD13995+9999999GD20995+9999999GD30995+9999999GD40995+9999999GF106065999999999999999999EQDN01 00000JPWTH 1QNNE11 1 00499E11 1 00099E11 1 00099E11 1 00099G11 1 00050K11 1 00051L11 1 01500N11 1 00000S11 1 00059V11 1 00807X11 1 03003
041072464093058197204230900C+38283-104500SAO  +1428PUB  V0200305N005252200059N0480005N9+00675+00115101665ADDAA101000095GA1999+999999064GA2041+076204024GA3999+999999999GA4999+999999999GD11005+9999993GD20045+9999999GD30005+9999999GD40005+9999999GF104025999999999999999999MA1999999085815MW1001EQDQ01    003SCCGA1N01 00000JPWTH 1QNNE11 1 00100E11 1 00005E11 1 00000E11 1 00000G11U1 99999H11 1 15999H11 1 37250H11 1 00999H11 1 00999K11 1 00034L11 1 03000M11 1 25340N11 1 00000Q11 1 10166S11 1 00044V11 1 00502X11 1 03010
038899999913723197206052100E+36083-079950SAO  +027599999V0200805N001552200059N011200599+02895+01725101485ADDAA101000095GA1999+013724084GA2999+076204004GA3999+999999999GA4999+999999999GD12025+9999999GD22015+9999999GD30005+9999999GD40005+9999999GF102025999999999999999999MA1999999098375EQDN01 00000JPWTH 1QNNE11 1 00202E11 1 00201E11 1 00000E11 1 00000G11U1 99999H11 1 11045H11 1 32250H11 1 00999H11 1 00999K11 1 00063L11 1 00700M11 1 29050N11 1 00000Q11 1 10148S11 1 00084V11 1 00302X11 1 08003
040099999923185197201090900E+39500-119783SAO  +1342RNO  V0201805N002152200059N001600599-01505-01895102815ADDAA101000095GA1999+999999104GA2999+999999999GA3999+999999999GA4999+999999999GD16045+9999999GD20005+9999999GD30005+9999999GD40005+9999999GF104045999999999999999999MA1999999087065MW1045MW2445EQDN01 07282JPWTH 1QNNE11 1 00805E11 1 00000E11 1 00000E11 1 00000G11U1 99999H11 1 45999H11 1 00999H11 1 00999H11 1 00999K11 1-00002L11 1 00100M11 1 25710N11 1 07282Q11 1 10281S11 1 00005V11 1 00505X11 1 18004
0132725540149491972050509004+41117-095900SAO  +0319OFF  V0201501N002110090019N0320001N9+01221+01061101801ADDGF107991999999999999999999MA1101801999999MD1510101+9999MW1001REMAWY059RCD 200U240/OCNL LTGICCCSSW/510 1970/WET RWY CB SSW MOVG NE
0269999999231581972073109005+33617-114717SAO  +0119BLH  V0202605N002152200059N022400599+03675+01505100815ADDGD10995+9999999GD20995+9999999GD30995+9999999GD40995+9999999GF100005999999999999999999MA1999999099465EQDN01 00000JPWTH 1QNNE11 1 00099E11 1 00099E11 1 00099E11 1 00099G11U1 99999K11 1 00059L11 1 01400M11 1 29370N11 1 00000Q11 1 10081S11 1 00098V11 1 00000X11 1 26004
0037471100999991972040105004+37550+126800FM-15+0020RKSS V0203301N006219999999N0096001N1+00461-01031999999ADDMA1999999102471EQDQ01+000000PRSWM2
017699999913895197210212100E+32300-086400SAO  +0058MGM  V0201005N003652200059N016000599+02005+00835102445ADDAA101000095GF100005999999999999999999MA1999999101695EQDN01 00000JPWTH 1QNNG11U1 99999K11 1 00047L11 1 01000M11 1 30030N11 1 00000Q11 1 10244S11 1 00068V11 1 00000X11 1 10007
0096723408138141972091012004+35967-089950SAO  +0077BYH  V0200301N002010750019N0096001N9+01381+01221102101ADDGD14991+0750099GF108991999001999999001071MA1102101999999MD1310051+9999MW1051REMAWY008305 1007
007494868099999197212131300N-37820+144970AUST +0038     V0209999C000059999999N999999999+02025+01105999999ADDAY124999GA1005+999999999GF100995004999999999999999MA1999999101365MW1025
0095726055999991972061121004+43083-070817SAO  +0031PSM  V0203101N006212200019N0320001N9+01781+00111101541ADDGF102991999999999999999999MA1101561999999MD1810031+9999OC100981REMAWY020WND 280V340/803 1100
0275702670264151972060306003+64000-145733SAO  +0389BIG  V0201905N009350304849N0640005N1+00945-00225099485ADDGD12995+9999999GD23995+9999999GD34995+9999999GD40995+9999999GF108065999999999999999999MA1999999094925MW1001EQDN01 00000JPWTH 1QNNE11 1 00299E11 1 00499E11 1 00699E11 1 00099G11 1 00100K11 1 00028L11 1 04000M11 1 28030N11 1 00000Q11 1 09948S11 1 00049V11 1 01008X11 1 19018
008799999903856197206252200E+34650-086767SAO  +0190HSV  V0202505N005750274349N999999999+02565+99999999999ADDAA101000095GF108085999999999999999999QNNG11 1 00090S11 1 00078V11 1 01010X11 1 25011
009094999900016197212020100N-20720+116750AUST +0012     V0202485N007259999999N999999999+02725+01705999999ADDAY134999GA1005+999999999GA2015+999999045GF101995004999999999025999MA1999999100975MW1035
0285999999687011972012700005-80017-178417SAO  +010199999V0201205N002650045749N016000599-00945+99999101355ADDGA1999+004574074GD14085+9999999GD20995+9999999GD30995+9999999GD40995+9999999GF108085999999999999999999MA1999999101355EQDN01 00000JPWTH 1QNNE11 1 00610E11 1 00099E11 1 00099E11 1 00099G11 1 00015H11 1 16015L11 1 01000M11 1 29930N11 1 00000Q11 1 10135S11 1 00015V11 1 01010X11 1 12005
0314999999947021972111123005+41167-073133SAO  +0002BDR  V0200505N005750015249N004000599+00724+00725101734ADDGD14995+9999999GD20995+9999999GD30995+9999999GD40995+9999999GF108085999999999999999999MA1999999101694MW1455MW2515MW3615EQDN01 02033JPWTH 1N02 07000JPWTH 1QNNE11 1 00699E11 1 00099E11 1 00099E11 1 00099G11 1 00005K11 1 00045L11 1 00250M11 1 30030N11 1 02033N11 1 07000Q11 1 10173S11 1 00045V11 1 01010X11 1 05011
008799999913894197208180700E+30683-088250SAO  +0064MOB  V02099959000052200059N999999999+02335+99999999999ADDAA101000095GF102995999999999999999999QNNG11U1 99999S11 1 00074V11 1 00299X11 1 00000
0269999999938321972020222005+99999+999999SAO  +999999999V0200805N002650243849N011200599+01784+01225101304ADDGD12995+9999999GD23995+9999999GD33995+9999999GD40995+9999999GF107075999999999999999999MA1999999101024EQDN01 00000JPWTH 1QNNE11 1 00299E11 1 00499E11 1 00499E11 1 00099G11 1 00080K11 1 00054L11 1 00700M11 1 29830N11 1 00000Q11 1 10130S11 1 00064V11 1 00909X11 1 08005
028099999923063197212071200E+39650-106917SAO  +1980EGE  V0201005N002150167649N024000599-00895-01175100855ADDAA101000095GD14995+9999999GD20995+9999999GD30995+9999999GD40995+9999999GF108085999999999999999999MA1999999078945EQDN01 00000JPWTH 1QNNE11 1 00699E11 1 00099E11 1 00099E11 1 00099G11 1 00055K11 1 00011L11 1 01500M11 1 23310N11 1 00000Q11 1 10085S11 1 00016V11 1 01010X11 1 10004
0377999999031331972110801005+36950-116050SAO  +1197UCC  V0201605N005752200059N032000599+01065-00565101175ADDGA1999+999999034GA2999+042674034GA3999+060964004GA4999+999999999GD12005+9999999GD24025+9999993GD30085+9999999GD40005+9999999GF108035999999999999999999MA1999999087785EQDN01 00000JPWTH 1QNNE11 1 00200E11 1 00503E11 1 00010E11 1 00000G11U1 99999H11 1 23999H11 1 23140H11 1 32200H11 1 00999K11 1 00022L11 1 02000M11 1 25920N11 1 00000Q11 1 10117S11 1 00051V11 1 01004X11 1 16011
010694637099999197211171000N-30780+121470AUST +0360YPKG V0201585N004159999999N999999999+03175+00705999999ADDAY124999GA1025+021005085GA2035+999999045GA3055+999999999GF107995024025021005035025MA1999999097195MW1025
010694637099999197211130400N-30780+121470AUST +0360YPKG V0200685N007259999999N999999999+02325+00505999999ADDAY174999GA1005+999999999GA2005+999999999GA3015+999999999GF101995004999999999999015MA1999999098095MW1075
0050701040999991972112516004+68883-166133SAO  +0004PALU V0200801N003610027019N0112001N9-01331-01561999999ADDGF108991999999999999999999MA1100371999999MW1001
028099999923174197204010500E+33933-118400SAO  +0030LAX  V0202405N004150426749N022400599+01615+01115101775ADDAA101000095GD13995+9999999GD20995+9999999GD30995+9999999GD40995+9999999GF107065999999999999999999MA1999999101425EQDN01 00000JPWTH 1QNNE11 1 00499E11 1 00099E11 1 00099E11 1 00099G11 1 00140K11 1 00052L11 1 01400M11 1 29950N11 1 00000Q11 1 10177S11 1 00061V11 1 00908X11 1 24008
0179999999931841972070213005+33667-117883SAO  +0016SNA  V0202405N003150033549N006400599+99999+99999999999ADDGD14995+9999999GD20995+9999999GD30995+9999999GD40995+9999999MW1054EQDN01 08100JPWTH 1QNNE11 1 00699E11 1 00099E11 1 00099E11 1 00099G11 1 00011L11 1 00400N11 1 08100X11 1 24006
0050722906931121972102101004+32700-117200SAO  +0015NZY  V0202801N003610135019N0240001N9+01891+01221101221ADDGF107991999999999999999999MA1101221999999MW1001
0302700860274011972041718003+70133-143633SAO  +0015BTI  V0202705N002150045749N0112005N1-01945-02225101415ADDGA1081+004574074GD14085+9999999GD20995+9999999GD30995+9999999GD40995+9999999GF108085999999999999999999MA1999999101225MW1001EQDN01 00000JPWTH 1QNNE11 1 00610E11 1 00099E11 1 00099E11 1 00099G11 1 00015H11 1 16015K11 1-00008L11 1 00700M11 1 29890N11 1 00000Q11 1 10141S11 1-00003V11 1 01010X11 1 27004
038899999914839197209301200E+42950-087900SAO  +0205MKE  V0202905N005752200059N019200599+00335+00115101375ADDAA101000095GA1999+999999064GA2999+999999999GA3999+999999999GA4999+999999999GD10005+9999999GD20005+9999999GD30005+9999999GD40005+9999999GF100005999999999999999999MA1999999098815EQDN01 00000JPWTH 1QNNE11 1 00000E11 1 00000E11 1 00000E11 1 00000G11U1 99999H11 1 15999H11 1 00999H11 1 00999H11 1 00999K11 1 00034L11 1 01200M11 1 29180N11 1 00000Q11 1 10137S11 1 00038V11 1 00000X11 1 29011
029299999914734197212101000E+40700-074167SAO  +0002EWR  V0200105N002150021349N006400599+00725+00615101735ADDAA101000395GD13995+9999999GD24995+9999999GD30995+9999999GD40995+9999999GF108085999999999999999999MA1999999101635MW1455MW2615EQDN01 02070JPWTH 1QNNE11 1 00499E11 1 00699E11 1 00099E11 1 00099G11 1 00007K11 1 00043L11 1 00400M11 1 30010N11 1 02070Q11 1 10173S11 1 00045V11 1 01010X11 1 01004
0249999999129281972011317005+27500-097817SAO  +0017NQI  V0202005N004150762049N009600599+02335+02115100955ADDGD14995+9999999GD20995+9999999GD30995+9999999GF108065999999999999999999MA1999999100785MW1055EQDN01 08100JPWTH 1QNNE11 1 00699E11 1 00099E11 1 00099G11 1 00250K11 1 00070L11 1 00600M11 1 29760N11 1 08100Q11 1 10095S11 1 00074V11 1 01007X11 1 20008
028099999913874197204031600E+33650-084433SAO  +0308ATL  V0201805N002650914449N019200599+01505+00895102035ADDAA101000095GD12995+9999999GD23995+9999999GD30995+9999999GD40995+9999999GF107055999999999999999999MA1999999098315EQDN01 00000JPWTH 1QNNE11 1 00299E11 1 00499E11 1 00099E11 1 00099G11 1 00300K11 1 00048L11 1 01200M11 1 29030N11 1 00000Q11 1 10203S11 1 00059V11 1 00906X11 1 18005
0162724240138071972040400004+37900-085967SAO  +0230FTK  V0201401N00151011401MN0036001N9+01281+01281101061ADDGA1021+003009999GA2071+011409999GA3081+015009999GF108991999999999999999999MA1101051999999MD1810081+9999MW1041MW2111REMAWY035PK WND 01/06 34/50 854 18// WET RWY
0165999999038661972120703005+32550-088567SAO  +0083NMM  V0203505N001052200059N011200599+00285-00285102835ADDGF100005999999999999999999MA1999999101795EQDN01 00000JPWTH 1QNNG11U1 99999K11 1 00027L11 1 00700M11 1 30060N11 1 00000Q11 1 10283S11 1 00037V11 1 00000X11 1 35002
0130744910147031972021917004+42200-072533SAO  +0077CEF  V0203501N00931003001EN0064001N9-00331-00671098211ADDGA1101+000159999GA2081+003009999GF108991999999999999999999MA1098171097301MW1451MW2711MW3771OC101231REMAWY019F3 DRFTG SNW PSIR06
006170326025503197211090200D+58683-156650SAO  +0017AKN  V0203501N002610180019N0480001N9-00281-00781100001ADDAA101000095GF107991999999999999999999MA1099971999999MW1001
031999999914860197211201200E+42083-080183SAO  +0223ERI  V0200105N009850048849N011200599+00115-00115101525ADDAA101000095GA1999+004884074GD14085+9999999GD20995+9999999GD30995+9999999GD40995+9999999GF108085999999999999999999MA1999999098785MW1515MW2715EQDN01 03340JPWTH 1QNNE11 1 00610E11 1 00099E11 1 00099E11 1 00099G11 1 00016H11 1 16016K11 1 00030L11 1 00700M11 1 29170N11 1 03340Q11 1 10152S11 1 00034V11 1 01010X11 1 01019
030799999914745197201230000E+43200-071500SAO  +0104CON  V0201505N001550091449N011200599+00335-00445101945ADDAA101000095GA1999+009144064GD14085+9999999GD20995+9999999GD30995+9999999GD40995+9999999GF108085999999999999999999MA1999999100645EQDN01 00000JPWTH 1QNNE11 1 00610E11 1 00099E11 1 00099E11 1 00099G11 1 00030H11 1 15030K11 1 00024L11 1 00700M11 1 29720N11 1 00000Q11 1 10194S11 1 00038V11 1 01010X11 1 15003
009094703099999197208182300N-30080+145950AUST +0107     V0200905N001059999999N999999999+01365+99999999999ADDAY124999GA1005+999999999GA2065+999999035GF106995004999999999065999MA1999999100205MW1025
038899999993815197207072100E+39900-084217SAO  +031399999V0201605N003150228649N016000599+02284+00725102254ADDAA101000095GA1999+016764084GA2999+022864034GA3999+076204024GA4999+999999999GD12035+9999999GD23035+9999999GD34025+9999999GD40005+9999999GF108075999999999999999999MA1999999098654EQDN01 00000JPWTH 1QNNE11 1 00204E11 1 00404E11 1 00602E11 1 00000G11 1 00075H11 1 11055H11 1 23075H11 1 37250H11 1 00999K11 1 00045L11 1 01000M11 1 29130N11 1 00000Q11 1 10225S11 1 00073V11 1 01009X11 1 16006
0383999999129581972050815005+29817-090017SAO  +0002NBG  V0202505N003650213449N008000599+02675+02225101315ADDGA1999+003054074GA2999+009144084GA3999+021344034GA4999+076204004GD12015+9999999GD22025+9999999GD33025+9999999GD43025+9999999GF106055999999999999999999MA1999999101295MW1055EQDN01 08100JPWTH 1QNNE11 1 00201E11 1 00203E11 1 00402E11 1 00402G11 1 00070H11 1 16010H11 1 11030H11 1 23070H11 1 32250K11 1 00072L11 1 00500M11 1 29910N11 1 08100Q11 1 10131S11 1 00080V11 1 00806X11 1 25007
038899999994814197210111500E+44367-084683SAO  +0353HTL  V0201805N005750030549N011200599+01224+00895102314ADDAA101000095GA1999+003054074GA2999+012194064GA3999+999999999GA4999+999999999GD13065+9999999GD24025+9999999GD30005+9999999GD40005+9999999GF108075999999999999999999MA1999999098074EQDN01 00000JPWTH 1QNNE11 1 00408E11 1 00602E11 1 00000E11 1 00000G11 1 00010H11 1 16010H11 1 15040H11 1 00999H11 1 00999K11 1 00048L11 1 00700M11 1 28960N11 1 00000Q11 1 10231S11 1 00054V11 1 01009X11 1 18011
038899999914826197203080900E+42967-083750SAO  +0235FNT  V0202905N008252200059N022400599-00725-01175101225ADDAA101000095GA1999+006104064GA2999+999999999GA3999+999999999GA4999+999999999GD12015+9999999GD20005+9999999GD30005+9999999GD40005+9999999GF101015999999999999999999MA1999999098375EQDN01 00000JPWTH 1QNNE11 1 00201E11 1 00000E11 1 00000E11 1 00000G11U1 99999H11 1 15020H11 1 00999H11 1 00999H11 1 00999K11 1 00011L11 1 01400M11 1 29050N11 1 00000Q11 1 10122S11 1 00019V11 1 00101X11 1 29016
0087723810231141972082109004+34900-117867SAO  +0702EDW  V0202401N002612200019N0320001N9+01721+00941101471ADDGF100991999999999999999999MA1101761093571MD1310051+9999REMAWY020305 1070 RADAT 15140
028099999913893197209071900E+35050-089983SAO  +007999999V0201705N003652200059N012800599+03285+02225101515ADDAA101000095GD12995+9999999GD22995+9999999GD30995+9999999GD40995+9999999GF104045999999999999999999MA1999999100515EQDN01 00000JPWTH 1QNNE11 1 00299E11 1 00299E11 1 00099E11 1 00099G11U1 99999K11 1 00072L11 1 00800M11 1 29680N11 1 00000Q11 1 10151S11 1 00091V11 1 00505X11 1 17007
0217999999232441972100823005+37417-122050SAO  +0012NUQ  V0202105N002650182959N011200599+02285+01065101105ADDGD12995+9999999GD23995+9999999GF106065999999999999999999MA1999999100975EQDN01 00000JPWTH 0QNNE41 0 00299E41 0 00499G41 0 00060K41 0 00051L41 0 00700M41 0 29815N41 0 00000Q41 0 10110S41 0 00073V41 0 00808X41 0 21005
0035080870999991972121908004+42200-001450FM-15+0295LEBR V0209991C000010001519N0001001N1+00461+00461999999ADDGF108991999999999999999999MW1451
0009476710999991972041207004+35550+139783FM-15+0008RJTT V0203501N012319999999N0048001N1+00691+00691999999ADDMW1611
0082035963999991972062721004+52133+001433FM-15+0028EGVJ V0202101N003110180019N0060001N9+01401+01301999999ADDGA1051+018009049GA2081+060009009MA1101081999999REMMET023CIG060 HZ PRSNT WET RWY
0075724067999991972120902004+39333-076417SAO  +0007MTN  V0201901N001010009019N0008001N1+00411+00301102341ADDGF108991999999999999999999MA1999999102301MW1451MW2611EQDQ01+999990APOSLP
0103109711999991972091808004+47767+011600FM-15+0719EDOV V0209991C000010120019N0100001N9+00701+00401999999ADDGA1011+002109079GA2041+006009059GA3051+012009059MA1102031999999MW1211REMMET022CIG040 BINOVC RERA LGT
0052723810231141972041313004+34900-117867SAO  +0702EDW  V0202401N012310138019N0320001N9+00781+00441999999ADDGF107991999999999999999999MA1100811092651OC101651
007595717099999197208271800N-33130+148230AUST +0352     V0203605N009859999999N999999999+01615+00805999999ADDAY124999GA1005+999999999GA2085+999999035GF108995004999999999075999MW1035
0134727675940111972102900004+48417-101350SAO  +0508MIB  V0201001N005712200019N0400001N9-00441-00671101971ADDGD12991+0240099GD22991+0480099GD33991+0750093GF107991999001999999071081MA1101631999999MD1610031+9999MW1001REMAWY016RCD%110/603 1078
0109723865231121972110318004+36250-115033SAO  +0569LSV  V0209991C000012200019N0560001N1+01441-00111101991ADDGA1021+060009999GF102991999999999999999999MA1102001999999MD1110051+9999MW1001REMAWY020CI PTLY THN/105 1002
028699999924011197204111300E+46767-100750SAO  +050299999V0201005N004150009149N004800599+00285+00005101635ADDAA101000595GD14995+9999999GD20995+9999999GD30995+9999999GD40995+9999999GF108085999999999999999999MA1999999095565MW1615EQDN01 02000JPWTH 1QNNE11 1 00699E11 1 00099E11 1 00099E11 1 00099G11 1 00003K11 1 00032L11 1 00300M11 1 28220N11 1 02000Q11 1 10163S11 1 00037V11 1 01010X11 1 10008
031399999912842197204300600E+27967-082533SAO  +001099999V0200805N003650304849N016000599+01945+01725101965ADDAA101000095GA1999+030484034GD14085+9999999GD20995+9999999GD30995+9999999GD40995+9999999GF108085999999999999999999MA1999999101935MW1615EQDN01 02000JPWTH 1QNNE11 1 00610E11 1 00099E11 1 00099E11 1 00099G11 1 00100H11 1 23100K11 1 00063L11 1 01000M11 1 30100N11 1 02000Q11 1 10196S11 1 00067V11 1 01010X11 1 08007
0050745700138401972082020004+39817-084050SAO  +0254FFO  V0200501N003110750019N0192001N9+03001+01501999999ADDGF107991999999999999999999MA1101901999999MW1001
0148727855241141972030100004+47633-117650SAO  +0750SKA  V0202401N007210120019N0480001N9+00441-00671100951ADDAA106000591GF107991999999999999999999MA1100811092111MD1310291+9999MW1001OC101231REMAWY037BD ENE-SSE PK WND 23/36 03/32902 1570EQDQ01  00053PRCP99
0302999999232371972040612005+37900-121250SAO  +0007SCK  V0202205N002150115849N016000599+01175+01065101695ADDGA1999+011584064GD14085+9999999GD20995+9999999GD30995+9999999GD40995+9999999GF108085999999999999999999MA1999999101595MW1805EQDN01 02300JPWTH 1QNNE11 1 00610E11 1 00099E11 1 00099E11 1 00099G11 1 00038H11 1 15038K11 1 00051L11 1 01000M11 1 30000N11 1 02300Q11 1 10169S11 1 00053V11 1 01010X11 1 22004
028099999914765197211090400E+41733-071433SAO  +0016PVD  V0201205N004150033549N011200599+01175+01065099155ADDAA101001095GD12995+9999999GD23995+9999999GD34995+9999999GD40995+9999999GF108085999999999999999999MA1999999098925EQDN01 00000JPWTH 1QNNE11 1 00299E11 1 00499E11 1 00699E11 1 00099G11 1 00011K11 1 00051L11 1 00700M11 1 29210N11 1 00000Q11 1 09915S11 1 00053V11 1 01010X11 1 12008
033499999994014197202170000E+48183-103633SAO  +0579ISN  V0202705N007750076249N024000599+00284+00115098654ADDAA101000595GA1999+007624064GA2999+024384034GD13075+9999999GD24015+9999999GD30995+9999999GD40995+9999999GF108085999999999999999999MA1999999091844EQDN01 00000JPWTH 1QNNE11 1 00409E11 1 00601E11 1 00099E11 1 00099G11 1 00025H11 1 15025H11 1 23080K11 1 00034L11 1 01500M11 1 27120N11 1 00000Q11 1 09865S11 1 00037V11 1 01010X11 1 27015
0050747900138491972010611004+33967-080483SAO  +0077SSC  V0200201N003110360019N0176001N9+00221-00441999999ADDGF108991999999999999999999MA1102031999999MW1001
017699999994224197203291200E+46150-123883SAO  +000399999V0201205N002652200059N016000599+00064+00005102514ADDAA101000095GF100005999999999999999999MA1999999102444EQDN01 00000JPWTH 1QNNG11U1 99999K11 1 00032L11 1 01000M11 1 30250N11 1 00000Q11 1 10251S11 1 00033V11 1 00000X11 1 12005
0053484775999991972010210004+12683+101000FM-15+0018VTBU V0209991V00461030001CN0112001N1+02631+01631100831ADDMA1999999100641EQDQ01+999990APOSLPQ02+000000PRSWM2
028672572024127197212211400C+40767-111967SAO  +1286SLC  V0201405N006750213449N0320005N1+00395-00175102535ADDAA101000095GD12995+9999999GD23995+9999999GD34995+9999999GD40995+9999999GF108085999999999999999999MA1999999087815MW1001EQDN01 00000JPWTH 1QNNE11 1 00299E11 1 00499E11 1 00699E11 1 00099G11 1 00070K11 1 00029L11 1 02000M11 1 25930N11 1 00000Q11 1 10253S11 1 00039V11 1 01010X11 1 14013
0269999999116301972011710005+18250-065633SAO  +001199999V02099959000052200059N016000599+02005+02005101425ADDGD12995+9999999GD20995+9999999GD30995+9999999GD40995+9999999GF103035999999999999999999MA1999999101325EQDN01 00000JPWTH 1QNNE11 1 00299E11 1 00099E11 1 00099E11 1 00099G11U1 99999K11 1 00068L11 1 01000M11 1 29920N11 1 00000Q11 1 10142S11 1 00068V11 1 00404X11 1 00000
0377999999414061972091509005+13483+144800SAO  +0076PGUM V0200205N001052200059N011200599+02615+02395100725ADDGA1999+003664084GA2999+012194064GA3999+076204024GA4999+999999999GD12025+9999999GD22015+9999999GD34055+9999993GD40005+9999999GF108045999999999999999999MA1999999099705EQDN01 00000JPWTH 1QNNE11 1 00203E11 1 00201E11 1 00506E11 1 00000G11U1 99999H11 1 11012H11 1 15040H11 1 37250H11 1 00999K11 1 00075L11 1 00700M11 1 29440N11 1 00000Q11 1 10072S11 1 00079V11 1 01005X11 1 02002
008799999924235197209200600E+42617-123367SAO  +1169SXT  V0203105N002659999999N999999999+00615+00175102565ADDAA101000095MA1999999089135QNNK11 1 00035M11 1 26320Q11 1 10256S11 1 00043X11 1 31005
0329999999937271972071200005+34700-077383SAO  +0005NCA  V0201205N005250018349N003200599+02394+02395102184ADDGA1999+001834134GA2999+003664064GD13055+9999999GD24035+9999999GD30995+9999999GD40995+9999999GF108085999999999999999999MA1999999102134MW1615EQDN01 02000JPWTH 1QNNE11 1 00406E11 1 00604E11 1 00099E11 1 00099G11 1 00006H11 1 13006H11 1 15012K11 1 00075L11 1 00200M11 1 30160N11 1 02000Q11 1 10218S11 1 00075V11 1 01010X11 1 12010
0081727755241121972051306004+47517-111183SAO  +1075GFA  V0202601N001012200019N0240001N9+00891-00221102061ADDGF102991999999999999999999MA1102201999999MD1110051+9999MW1001REMAWY008105 1400
038899999994008197207310300E+48217-106617SAO  +0696GGW  V0200705N004152200059N032000599+01944+00675101864ADDAA101000095GA1999+036584034GA2999+067064004GA3999+999999999GA4999+999999999GD12015+9999999GD22015+9999999GD30005+9999999GD40005+9999999GF102025999999999999999999MA1999999093774EQDN01 00000JPWTH 1QNNE11 1 00201E11 1 00201E11 1 00000E11 1 00000G11U1 99999H11 1 23120H11 1 32220H11 1 00999H11 1 00999K11 1 00044L11 1 02000M11 1 27690N11 1 00000Q11 1 10186S11 1 00067V11 1 00202X11 1 07008
038899999924227197206060000E+46967-122900SAO  +006699999V0203605N002150762049N056000599+02615+01115101555ADDAA101000095GA1999+999999084GA2999+060964004GA3999+076204004GA4999+999999999GD12005+9999999GD23025+9999999GD30035+9999999GD40005+9999999GF106045999999999999999999MA1999999100855EQDN01 00000JPWTH 1QNNE11 1 00200E11 1 00403E11 1 00004E11 1 00000G11 1 00250H11 1 11999H11 1 32200H11 1 32250H11 1 00999K11 1 00052L11 1 03500M11 1 29780N11 1 00000Q11 1 10155S11 1 00079V11 1 00705X11 1 36004
0165702710264251972121606005+62150-145450SAO  +0481GKN  V0203405N001552200059N012800599-03565-03895100965ADDGF100005999999999999999999MA1999999094385EQDN01 00000JPWTH 1QNNG11U1 99999K11 1-00038L11 1 00800M11 1 27870N11 1 00000Q11 1 10096S11 1-00032V11 1 00000X11 1 34003
038899999923155197204040300E+35417-119050SAO  +0151BFL  V0203505N003650762049N024000599+02335+00945101245ADDAA101000095GA1999+054864044GA2999+076204004GA3999+999999999GA4999+999999999GD12015+9999999GD23065+9999999GD30005+9999999GD40005+9999999GF107045999999999999999999MA1999999099495EQDN01 00000JPWTH 1QNNE11 1 00201E11 1 00408E11 1 00000E11 1 00000G11 1 00250H11 1 21180H11 1 32250H11 1 00999H11 1 00999K11 1 00049L11 1 01500M11 1 29380N11 1 00000Q11 1 10124S11 1 00074V11 1 00905X11 1 35007
008799999913891197210130700E+35817-083983SAO  +0276TYS  V0202305N003650213449N999999999+01675+99999999999ADDAA101000095GF108085999999999999999999QNNG11 1 00070S11 1 00062V11 1 01010X11 1 23007
009094326599999197203071730N-23820+133900AUST +0545YBAS V0201355N002659999999N999999999+02065+01505999999ADDAY124999GA1035+018005085GA2035+999999045GF105995034025018005035999MA1999999094555MW1025
0050704540257041972042211004+51883-176650SAO  +0005PADK V0201901N007210036019N0080001N9+00561+00441100931ADDGF108991999999999999999999MA1100911999999MW1611
0078722595139111972081223004+32767-097433SAO  +0198FWH  V0201801N004110750019N0160001N9+03171+01391999999ADDGF107991999999999999999999MA1101661999999MW1001REMAWY019CB N-E-S-SW MOVG NE
0077701170999991972072714004+65567-167917SAO  +0082PATC V0201901N002610006019N0012001N9+00671+00671999999ADDGF108991999999999999999999MA1100751999999MW1451MW2511REMAWY012L-- OCNLY L-
0289704540257041972022310003+51883-176650SAO  +0005ADK  V0201305N009350024449N0064005N9+00445+00285101415ADDGD13995+9999999GD24995+9999999GD30995+9999999GD40995+9999999GF108085999999999999999999MA1101391101355MW1455MW2515OC101491EQDN01 03370JPWTH 1QNNE11 1 00499E11 1 00699E11 1 00099E11 1 00099G11 1 00008K11 1 00037L11 1 00400M11 1 29930N11 1 03370Q11 1 10141S11 1 00040V11 1 01010X11 1 13018
009899999913882197203211900E+35033-085200SAO  +021099999V0201705N008850109749N999999999+02065+01225999999ADDAA101000095GF108085999999999999999999QNNG11 1 00036K11 1 00054S11 1 00069V11 1 01010X11 1 17017
0269999999939971972041803005+38867-098817SAO  +0568RSL  V0201705N008252200059N024000599+02174+00725100494ADDGD12995+9999999GD24995+9999993GD30995+9999999GD40995+9999999GF108045999999999999999999MA1999999094014EQDN01 00000JPWTH 1QNNE11 1 00299E11 1 00599E11 1 00099E11 1 00099G11U1 99999K11 1 00045L11 1 01500M11 1 27760N11 1 00000Q11 1 10049S11 1 00071V11 1 01005X11 1 17016
028672572024127197210040500C+40767-111967SAO  +1286SLC  V0201505N002650762049N0320005N1+01565+00675101475ADDAA101000095GD12995+9999999GD24995+9999999GD30995+9999999GD40995+9999999GF108065999999999999999999MA1999999087205MW1001EQDN01 00000JPWTH 1QNNE11 1 00299E11 1 00699E11 1 00099E11 1 00099G11 1 00250K11 1 00044L11 1 02000M11 1 25750N11 1 00000Q11 1 10147S11 1 00060V11 1 01008X11 1 15005
0275999999130171972021011005+34300-006600SAO  +0012GMMP V0202805N003150045749N009600599+01505+01115103045ADDGD13995+9999999GD20995+9999999GD30995+9999999GD40995+9999999GF106065999999999999999999MA1999999102915MW1055EQDN01 08100JPWTH 1QNNE11 1 00499E11 1 00099E11 1 00099E11 1 00099G11 1 00015K11 1 00052L11 1 00600M11 1 30390N11 1 08100Q11 1 10304S11 1 00059V11 1 00707X11 1 28006
0076702350999991972070420004+61100-155583SAO  +0487PASV V0200501N002112200019N0112001N9+01671+00891999999ADDGF107991999999999999999999MA1102681999999MW1001REMAWY017BLDG CU SE MAG 03
0089747900138491972041721004+33967-080483SAO  +0077SSC  V0200401N005112200019N0192001N9+02671+00941101471ADDGF102991999999999999999999MA1101461999999MD1410001+9999MW1001OC100871REMAWY008400 1101
002072258013960197211230100D+32850-096850SAO  +0149DAL  V02099999999999999999N0000001N1+99999+99999999999ADDAA101000095MW1001
038899999914826197210040300E+42967-083750SAO  +0235FNT  V0201605N003652200059N016000599+01505+01065102255ADDAA101000095GA1999+076204004GA2999+999999999GA3999+999999999GA4999+999999999GD14085+9999993GD20005+9999999GD30005+9999999GD40005+9999999GF108045999999999999999999MA1999999099465EQDN01 00000JPWTH 1QNNE11 1 00510E11 1 00000E11 1 00000E11 1 00000G11U1 99999H11 1 32250H11 1 00999H11 1 00999H11 1 00999K11 1 00051L11 1 01000M11 1 29370N11 1 00000Q11 1 10225S11 1 00059V11 1 01005X11 1 16007
038899999923154197201081500E+39283-114850SAO  +1906ELY  V0201805N007252200059N072000599-01225-01565101815ADDAA101000095GA1999+033534034GA2999+067064004GA3999+999999999GA4999+999999999GD12015+9999999GD23075+9999993GD30005+9999999GD40005+9999999GF107035999999999999999999MA1999999080565EQDN01 00000JPWTH 1QNNE11 1 00201E11 1 00309E11 1 00000E11 1 00000G11U1 99999H11 1 23110H11 1 32220H11 1 00999H11 1 00999K11 1 00004L11 1 04500M11 1 23790N11 1 00000Q11 1 10181S11 1 00010V11 1 00904X11 1 18014
0409722906931121972120306003+32700-117200SAO  +0015NZY  V0202105N001050045749N0112005N9+01445+01065101765ADDGA1999+004574064GA2999+076204004GA3999+999999999GA4999+999999999GD13055+9999999GD23015+9999999GD30005+9999999GD40005+9999999GF106065999999999999999999MA1101761101595MD1110071+9999MW1001REMAWY003107EQDN01 00000JPWTH 1QNNE11 1 00406E11 1 00401E11 1 00000E11 1 00000G11 1 00015H11 1 15015H11 1 32250H11 1 00999H11 1 00999K11 1 00051L11 1 00700M11 1 30000N11 1 00000Q11 1 10176S11 1 00058V11 1 00707X11 1 21002
0097726055999991972072405004+43083-070817SAO  +0031PSM  V0203101N004110075019N0064001N9+02171+02061999999ADDGF108991999999999999999999MA1100311999999OC100721REMAWY036WSHFT 0450/RCD?90/CB MOVD SE VSBY E3
0277999999272011972022900005+71950-124733SAO  +0084CYSY V02036059009852200059N000800599-03225-03565102655ADDGA1999+999999104GA2999+021344034GD19025+9999999GD29025+9999999GF104025999999999999999999MA1999999101495MW1385EQDN01 08400JPWTH 1QNNE11 1 09902E11 1 09903G11U1 99999H11 1 98999H11 1 23070K11 1-00032L11 1 00050M11 1 29970N11 1 08400Q11 1 10265S11 1-00026V11 1 00503W11 1 11019
041072464093058197201210600C+38283-104500SAO  +1428PUB  V02099959000052200059N0480005N9+00005-00285101655ADDAA101000095GA1999+999999024GA2999+999999999GA3999+999999999GA4999+999999999GD10005+9999999GD20005+9999999GD30005+9999999GD40005+9999999GF100005999999999999999999MA1999999085545MW1001EQDQ01    003SCCGA1N01 00000JPWTH 1QNNE11 1 00000E11 1 00000E11 1 00000E11 1 00000G11U1 99999H11 1 37999H11 1 00999H11 1 00999H11 1 00999K11 1 00027L11 1 03000M11 1 25260N11 1 00000Q11 1 10165S11 1 00032V11 1 00000X11 1 00000
0081742070242011972100706004+47083-122583SAO  +0095GRF  V0209991C000010600019N0112001N9+00831+00561102161ADDGF107991999999999999999999MA1102131999999MD1710141+9999MW1001REMAWY008714 1008
038899999913994197202292100E+38750-090383SAO  +017299999V0201805N009352200059N024000599+02895+00565100265ADDAA101000095GA1999+009144084GA2999+999999999GA3999+999999999GA4999+999999999GD12015+9999999GD20005+9999999GD30005+9999999GD40005+9999999GF101015999999999999999999MA1999999098275EQDN01 00000JPWTH 1QNNE11 1 00201E11 1 00000E11 1 00000E11 1 00000G11U1 99999H11 1 11030H11 1 00999H11 1 00999H11 1 00999K11 1 00042L11 1 01500M11 1 29020N11 1 00000Q11 1 10026S11 1 00084V11 1 00101X11 1 18018
031399999913781197203170600E+39667-075600SAO  +0023ILG  V0201805N002650000049N000200599+01175+01115099565ADDAA101000095GA1999+000004104GD15085+9999999GD20995+9999999GD30995+9999999GD40995+9999999GF108085999999999999999999MA1999999099265MW1455EQDN01 07000JPWTH 1QNNE11 1 00710E11 1 00099E11 1 00099E11 1 00099G11 1 00000H11 1 45000K11 1 00052L11 1 00012M11 1 29310N11 1 07000Q11 1 09956S11 1 00053V11 1 01010X11 1 18005
0060744900147021972041114004+42467-071283SAO  +0045BED  V0202501N002610105019N0080001N9+00331-00221999999ADDGF108991999999999999999999MA1101461999999REMAWY007WET RWY
028072306013722197206041400E+35867-078783SAO  +0132RDU  V0202305N003652200059N012800599+02285+01565101915ADDAA101000095GD12995+9999999GD20995+9999999GD30995+9999999GD40995+9999999GF102025999999999999999999MA1999999100345EQDN01 00000JPWTH 1QNNE11 1 00299E11 1 00099E11 1 00099E11 1 00099G11U1 99999K11 1 00060L11 1 00800M11 1 29630N11 1 00000Q11 1 10191S11 1 00073V11 1 00202X11 1 23007
0076999999038551972111914005+30350-087317SAO  +0010NPA  V0202405N007250027449N999999999+02225+99999999999ADDGF108085999999999999999999QNNG11 1 00009S11 1 00072V11 1 01010X11 1 24014
002072255012912197208201400D+28850-096917SAO  +0036VCT  V02099999999999999999N0000001N1+99999+99999999999ADDAA101000095MW1001
006194999900184197211192300N-27830+153000AUST +0020     V0202705N001559999999N999999999+02545+01905999999ADDGA1015+004505085GA2075+999999045GF107995014015004505025999
0377999999266161972021921005+66867-162633SAO  +0006OTZ  V0201105N010352200059N016000599-03115-03445103235ADDGA1999+030484034GA2999+060964024GA3999+999999999GA4999+999999999GD12025+9999999GD22015+9999999GD30005+9999999GD40005+9999999GF102025999999999999999999MA1999999103185EQDN01 00000JPWTH 1QNNE11 1 00202E11 1 00201E11 1 00000E11 1 00000G11U1 99999H11 1 23100H11 1 37200H11 1 00999H11 1 00999K11 1-00030L11 1 01000M11 1 30470N11 1 00000Q11 1 10323S11 1-00024V11 1 00302X11 1 11020
0050724096147061972043020004+40000-074583SAO  +0041WRI  V0202601N006710600019N0192001N9+02221+00441999999ADDGF108991999999999999999999MA1102711999999MW1001
007494335099999197206210200N-20670+140500AUST +0190     V0201585N007259999999N999999999+02455+00605999999ADDAY124999GA1005+999999999GF100995004999999999999999MA1999999099525MW1025
031999999993815197201201500E+39900-084217SAO  +031399999V0201905N006250003049N000100599+00614+00445101454ADDAA101000095GA1999+000304104GD15085+9999999GD20995+9999999GD30995+9999999GD40995+9999999GF108085999999999999999999MA1999999097774MW1455MW2515EQDN01 03370JPWTH 1QNNE11 1 00710E11 1 00099E11 1 00099E11 1 00099G11 1 00001H11 1 45001K11 1 00040L11 1 00006M11 1 28870N11 1 03370Q11 1 10145S11 1 00043V11 1 01010X11 1 19012
038899999913891197206021800E+35817-083983SAO  +0276TYS  V0202705N004152200059N032000599+02395+00895101665ADDAA101000095GA1999+999999084GA2999+999999004GA3999+999999999GA4999+999999999GD10005+9999999GD20005+9999999GD30005+9999999GD40005+9999999GF100005999999999999999999MA1999999098175EQDN01 00000JPWTH 1QNNE11 1 00000E11 1 00000E11 1 00000E11 1 00000G11U1 99999H11 1 11999H11 1 32999H11 1 00999H11 1 00999K11 1 00048L11 1 02000M11 1 28990N11 1 00000Q11 1 10166S11 1 00075V11 1 00000X11 1 27008
0076999999938451972101702005+30783-083283SAO  +0061VLD  V0202405N004152200059N999999999+02284+99999999999ADDGF100005999999999999999999QNNG11U1 99999S11 1 00073V11 1 00000X11 1 24008
0050702120266331972032213004+61783-166033SAO  +0139PACZ V0200501N007212200019N0112001N9-02061-02441999999ADDGF100991999999999999999999MA1102371999999MW1001
009194889099999197201252300N-36370+146300AUST +0150     V0201805N002659999999N999999999+02445+99999999999ADDAY134999GA1005+999999999GA2025+999999035GA3065+999999999GF108995004999999999065025MW1025
0060725196147171972070702004+43233-075417SAO  +0154RME  V0209991C000012200019N0240001N9+01061+01061999999ADDGF100991999999999999999999MA1102271999999REMAWY007AC NE-E
005499999924237197205110600E+47283-121333SAO  +1206SMP  V02099999999999999999N999999999+00395+99999999999ADDAA101000095MA1999999088425QNNM11 1 26110S11 1 00039
0269999999240131972062000005+48267-101283SAO  +0527MOT  V0203605N005250106749N048000599+01445+00445102005ADDGD13995+9999999GD23995+9999999GD30995+9999999GD40995+9999999GF106055999999999999999999MA1999999095775EQDN01 00000JPWTH 1QNNE11 1 00499E11 1 00499E11 1 00099E11 1 00099G11 1 00035K11 1 00040L11 1 03000M11 1 28280N11 1 00000Q11 1 10200S11 1 00058V11 1 00706X11 1 36010
038899999914819197210040900E+41783-087750SAO  +0187MDW  V0201705N003150304849N012800599+01565+01225101885ADDAA101000095GA1999+018294064GA2999+030484034GA3999+060964024GA4999+999999999GD12025+9999999GD23035+9999999GD34085+9999999GD40005+9999999GF108075999999999999999999MA1999999099635EQDN01 00000JPWTH 1QNNE11 1 00202E11 1 00404E11 1 00610E11 1 00000G11 1 00100H11 1 15060H11 1 23100H11 1 37200H11 1 00999K11 1 00054L11 1 00800M11 1 29420N11 1 00000Q11 1 10188S11 1 00060V11 1 01009X11 1 17006
002072255012912197204221400D+28850-096917SAO  +0036VCT  V02099999999999999999N0000001N1+99999+99999999999ADDAA101000095MW1001
031399999993817197204010600E+38050-087533SAO  +0116EVV  V0202905N007750051849N011200599+00564+00225101164ADDAA101000095GA1999+005184064GD14085+9999999GD20995+9999999GD30995+9999999GD40995+9999999GF108085999999999999999999MA1999999099764MW1805EQDN01 02300JPWTH 1QNNE11 1 00610E11 1 00099E11 1 00099E11 1 00099G11 1 00017H11 1 15017K11 1 00036L11 1 00700M11 1 29460N11 1 02300Q11 1 10116S11 1 00042V11 1 01010X11 1 29015
0269999999136011972022222005+32367-064683SAO  +0006TXKF V0202305N006250091449N014400599+01675+00835102405ADDGD13995+9999999GD20995+9999999GD30995+9999999GD40995+9999999GF105055999999999999999999MA1999999102375EQDN01 00000JPWTH 1QNNE11 1 00499E11 1 00099E11 1 00099E11 1 00099G11 1 00030K11 1 00047L11 1 00900M11 1 30230N11 1 00000Q11 1 10240S11 1 00062V11 1 00606X11 1 23012
038899999914826197208181800E+42967-083750SAO  +0235FNT  V0200405N002152200059N012800599+02835+02115101485ADDAA101000095GA1999+009144084GA2999+030484034GA3999+999999999GA4999+999999999GD12025+9999999GD22025+9999999GD30005+9999999GD40005+9999999GF104045999999999999999999MA1999999098755EQDN01 00000JPWTH 1QNNE11 1 00203E11 1 00202E11 1 00000E11 1 00000G11U1 99999H11 1 11030H11 1 23100H11 1 00999H11 1 00999K11 1 00070L11 1 00800M11 1 29160N11 1 00000Q11 1 10148S11 1 00083V11 1 00505X11 1 04004
0122727575949251972082518004+47950-097400SAO  +0278RDR  V0200401N004110690019N0320001N9+02721+01111101831ADDGD13991+0690099GF107991999011999999001081MA1101831098501MD1010021+9999MW1001REMAWY034CU FRMG OVHD WND 270V080/ 002 1108
034099999994014197205071200E+48183-103633SAO  +0579ISN  V0201205N004650304849N040000599+00284+00005102714ADDAA101000095GA1999+009144064GA2999+030484044GD12035+9999999GD24055+9999999GD30995+9999999GD40995+9999999GF108085999999999999999999MA1999999095704MW1805EQDN01 02300JPWTH 1QNNE11 1 00204E11 1 00606E11 1 00099E11 1 00099G11 1 00100H11 1 15030H11 1 21100K11 1 00032L11 1 02500M11 1 28260N11 1 02300Q11 1 10271S11 1 00037V11 1 01010X11 1 12009
0050783670117061972052616004+19900-075150SAO  +0020MUGM V0201601N002610750019N0160001N9+02831+02331101351ADDGF107991999999999999999999MA1101291999999MW1001
038899999913895197205260300E+32300-086400SAO  +0058MGM  V0203405N001552200059N016000599+02225+01725101375ADDAA101000095GA1999+015244064GA2999+999999999GA3999+999999999GA4999+999999999GD12025+9999999GD20005+9999999GD30005+9999999GD40005+9999999GF102025999999999999999999MA1999999100645EQDN01 00000JPWTH 1QNNE11 1 00203E11 1 00000E11 1 00000E11 1 00000G11U1 99999H11 1 15050H11 1 00999H11 1 00999H11 1 00999K11 1 00063L11 1 01000M11 1 29720N11 1 00000Q11 1 10137S11 1 00072V11 1 00303X11 1 34003
038872270023044197204111500E+31800-106400SAO  +1194ELP  V0202005N005252200059N096000599+02005-00785101455ADDAA101000095GA1999+999999034GA2999+076204004GA3999+999999999GA4999+999999999GD12005+9999999GD20025+9999999GD30005+9999999GD40005+9999999GF102025999999999999999999MA1999999088455EQDN01 00000JPWTH 1QNNE11 1 00200E11 1 00003E11 1 00000E11 1 00000G11U1 99999H11 1 23999H11 1 32250H11 1 00999H11 1 00999K11 1 00018L11 1 06000M11 1 26120N11 1 00000Q11 1 10145S11 1 00068V11 1 00302X11 1 20010
0269999999937201972120322005+38333-075517SAO  +0021SBY  V0202105N002152200059N016000599+01174+00225101904ADDGD10995+9999999GD20995+9999999GD30995+9999999GD40995+9999999GF100005999999999999999999MA1999999101694EQDN01 00000JPWTH 1QNNE11 1 00099E11 1 00099E11 1 00099E11 1 00099G11U1 99999K11 1 00036L11 1 01000M11 1 30030N11 1 00000Q11 1 10190S11 1 00053V11 1 00000X11 1 21004
0053483570999991972072501004+17367+104650FM-15+0176VTUP V0202101N002119999999N0112001N1+02681+02411100211ADDMA1999999098371EQDQ01+999990APOSLPQ02+000000PRSWM2
009899999913957197210222000E+32467-093817SAO  +0077SHV  V0202305N002650085349N999999999+02115+01895999999ADDAA101000895GF108085999999999999999999QNNG11 1 00028K11 1 00066S11 1 00070V11 1 01010X11 1 23005
028099999913893197206151000E+35050-089983SAO  +007999999V0201905N004650094549N016000599+02285+01945101275ADDAA101000095GD12995+9999999GD23995+9999999GD34995+9999999GD40995+9999999GF108085999999999999999999MA1999999100275EQDN01 00000JPWTH 1QNNE11 1 00299E11 1 00499E11 1 00699E11 1 00099G11 1 00031K11 1 00067L11 1 01000M11 1 29610N11 1 00000Q11 1 10127S11 1 00073V11 1 01010X11 1 19009
038899999914771197206202100E+43117-076117SAO  +0125SYR  V0201705N004150121949N024000599+02785+01725100885ADDAA101000095GA1999+012194084GA2999+076204004GA3999+999999999GA4999+999999999GD13055+9999999GD24085+9999999GD30005+9999999GD40005+9999999GF108065999999999999999999MA1999999099425EQDN01 00000JPWTH 1QNNE11 1 00406E11 1 00610E11 1 00000E11 1 00000G11 1 00040H11 1 11040H11 1 32250H11 1 00999H11 1 00999K11 1 00063L11 1 01500M11 1 29360N11 1 00000Q11 1 10088S11 1 00082V11 1 01007X11 1 17008
0043064510999991972030903004+50900+004500FM-12+003999999V0209991C00001220001CN0060001N9+00111+00001101151ADDAY101999GF101991001001999999001021MW1021
0088476420999991972040421004+35750+139350FM-15+0139RJTY V0209991C000010024019N0013001N9+01101+01001999999ADDGA1011+001809079GA2051+002409079GA3031+009009059MA1102681100951MW1441REMMET007CIGM008
031399999914840197201152100E+43167-086233SAO  +0190MKG  V0203405N004150054949N001600599-02065-02505104175ADDAA101000395GA1999+005494104GD15085+9999999GD20995+9999999GD30995+9999999GD40995+9999999GF108085999999999999999999MA1999999101635MW1855EQDN01 05000JPWTH 1QNNE11 1 00710E11 1 00099E11 1 00099E11 1 00099G11 1 00018H11 1 98018K11 1-00013L11 1 00100M11 1 30010N11 1 05000Q11 1 10417S11 1-00005V11 1 01010X11 1 34008
017699999913957197206051500E+32467-093817SAO  +0077SHV  V0203405N003152200059N011200599+02785+01785101905ADDAA101000095GF100005999999999999999999MA1999999100985EQDN01 00000JPWTH 1QNNG11U1 99999K11 1 00064L11 1 00700M11 1 29820N11 1 00000Q11 1 10190S11 1 00082V11 1 00000X11 1 34006
0269999999138801972062807005+32900-080033SAO  +0012CHS  V0202105N002652200059N016000599+02005+01895101385ADDGD12995+9999999GD22995+9999999GD30995+9999999GD40995+9999999GF102025999999999999999999MA1999999101195EQDN01 00000JPWTH 1QNNE11 1 00299E11 1 00299E11 1 00099E11 1 00099G11U1 99999K11 1 00066L11 1 01000M11 1 29880N11 1 00000Q11 1 10138S11 1 00068V11 1 00202X11 1 21005
034099999921504197212240600E+19717-155067SAO  +0008ITO  V0202405N003150061049N016000599+02175+02005102045ADDAA101000595GA1999+006104084GA2999+013724064GD13065+9999999GD24035+9999999GD30995+9999999GD40995+9999999GF108085999999999999999999MA1999999101935MW1805EQDN01 02300JPWTH 1QNNE11 1 00407E11 1 00604E11 1 00099E11 1 00099G11 1 00020H11 1 11020H11 1 15045K11 1 00068L11 1 01000M11 1 30100N11 1 02300Q11 1 10204S11 1 00071V11 1 01010X11 1 24006
039499999914944197202121800E+43567-096733SAO  +043699999V0202405N003650762049N009600599-00565-00945101545ADDAA101000095GA1999+076204024GA2999+999999999GA3999+999999999GA4999+999999999GD13075+9999999GD20005+9999999GD30005+9999999GD40005+9999999GF107075999999999999999999MA1999999096175MW1445EQDN01 07200JPWTH 1QNNE11 1 00409E11 1 00000E11 1 00000E11 1 00000G11 1 00250H11 1 37250H11 1 00999H11 1 00999H11 1 00999K11 1 00015L11 1 00600M11 1 28400N11 1 07200Q11 1 10154S11 1 00022V11 1 00909X11 1 24007
0061723930999991972122417004+34717-120567SAO  +0112VBG  V0203601N006212200019N0160001N9+01221+00721102421ADDGF100991999999999999999999MA1102441101051REMAWY008SC OFSHR
028099999924121197205041200E+40833-115783SAO  +1539EKO  V02099959000052200059N040000599+00285-00785100965ADDAA101000095GD12995+9999999GD20995+9999999GD30995+9999999GD40995+9999999GF101015999999999999999999MA1999999084085EQDN01 00000JPWTH 1QNNE11 1 00299E11 1 00099E11 1 00099E11 1 00099G11U1 99999K11 1 00018L11 1 02500M11 1 24830N11 1 00000Q11 1 10096S11 1 00037V11 1 00101X11 1 00000
0050722175138601972070604004+32633-083600SAO  +0090WRB  V0202901N002612200019N0192001N9+02111+01831999999ADDGF102991999999999999999999MA1101861999999MW1001
028099999914922197205202200E+44883-093217SAO  +0254MSP  V0201505N004152200059N024000599+03225+00895101315ADDAA101000095GD13995+9999993GD20995+9999999GD30995+9999999GD40995+9999999GF107025999999999999999999MA1999999098375EQDN01 00000JPWTH 1QNNE11 1 00399E11 1 00099E11 1 00099E11 1 00099G11U1 99999K11 1 00048L11 1 01500M11 1 29050N11 1 00000Q11 1 10131S11 1 00090V11 1 00903X11 1 15008
007699999903856197207032300E+34650-086767SAO  +0190HSV  V0202205N002159999999N999999999+02785+99999999999ADDAA101000095GF108025999999999999999999QNNS11 1 00082V11 1 01003X11 1 22004
002072255012912197211052000D+28850-096917SAO  +0036VCT  V02099999999999999999N0000001N1+99999+99999999999ADDAA101000095MW1001
038899999923273197211220300E+99999+999999SAO  +999999999V0201705N002152200059N024000599+01005+00675102145ADDAA101000095GA1999+048774034GA2999+999999999GA3999+999999999GA4999+999999999GD12025+9999999GD20005+9999999GD30005+9999999GD40005+9999999GF102025999999999999999999MA1999999101255EQDN01 00000JPWTH 1QNNE11 1 00202E11 1 00000E11 1 00000E11 1 00000G11U1 99999H11 1 23160H11 1 00999H11 1 00999H11 1 00999K11 1 00044L11 1 01500M11 1 29900N11 1 00000Q11 1 10214S11 1 00050V11 1 00202X11 1 17004
028099999914735197209290200E+42750-073800SAO  +0084ALB  V0201805N003152200059N032000599+01225+00675102495ADDAA101000095GD13995+9999993GD20995+9999999GD30995+9999999GD40995+9999999GF106035999999999999999999MA1999999101425EQDN01 00000JPWTH 1QNNE11 1 00399E11 1 00099E11 1 00099E11 1 00099G11U1 99999K11 1 00044L11 1 02000M11 1 29950N11 1 00000Q11 1 10249S11 1 00054V11 1 00804X11 1 18006
0068703050999991972052202004+58650-162067SAO  +0165PAEH V0201201N012912200019N0560001N9+00001-00331999999ADDGF108991999999999999999999MA1101251999999MW1001REMAWY009DRFTG SNW
005499999914607197209080600E+46867-068017SAO  +0190CAR  V02099999999999999999N999999999+01445+99999999999ADDAA101000095MA1999999099295QNNM11 1 29320S11 1 00058
0082035833999991972081404004+52350+000567FM-15+0010EGUL V0209991C00001000301CN0000001N9+01101+00801999999ADDGA1091+000309999GF109991999999999999999999MA1101761999999MW1451REMMET007CIGW001
0069724567139211972072102004+39367-094917SAO  +0238FLV  V0209991C000012200019N0112001N1+02571+02351101751ADDGF100991999999999999999999MA1999999099051MW1001EQDQ01+999990APOSLP
0076999999938451972020502005+30783-083283SAO  +0061VLD  V0203105N002652200059N999999999+00394+99999999999ADDGF100005999999999999999999QNNG11U1 99999S11 1 00039V11 1 00000X11 1 31005
0050747686138201972122019004+30400-088917SAO  +0011BIX  V0201701N003110300019N0192001N9+01781+01501999999ADDGF108991999999999999999999MA1101291999999MW1001
0356999999128411972071400005+28550-081333SAO  +003799999V0201905N005250335349N016000599+02395+02115101745ADDGA1999+999999084GA2999+033534034GA3999+091444004GD13005+9999999GD24065+9999999GD30025+9999999GD40995+9999999GF108085999999999999999999MA1999999101325MW1615EQDN01 02000JPWTH 1QNNE11 1 00400E11 1 00607E11 1 00003E11 1 00099G11 1 00110H11 1 11999H11 1 23110H11 1 32300K11 1 00070L11 1 01000M11 1 29920N11 1 02000Q11 1 10174S11 1 00075V11 1 01010X11 1 19010
007494287599999197202111100N-16920+145770AUST +0007YBCS V0209999C000059999999N999999999+02725+02305999999ADDAY114999GA1015+009005065GF101995014055009005999999MA1999999101015MW1015
0368999999038551972050803005+30350-087317SAO  +0010NPA  V0201605N007250012249N003200599+02175+01895101425ADDGA1999+000614074GA2999+001224094GD12035+9999999GD24055+9999999GD30995+9999999GD40995+9999999GF108085999999999999999999MA1999999101325MW1455MW2805MW3955EQDN01 01023JPWTH 1N02 07000JPWTH 1QNNE11 1 00204E11 1 00606E11 1 00099E11 1 00099G11 1 00004H11 1 16002H11 1 18004K11 1 00066L11 1 00200M11 1 29920N11 1 01023N11 1 07000Q11 1 10142S11 1 00071V11 1 01010X11 1 16014
0275999999149201972100518005+43867-091250SAO  +0198LSE  V02099959000050021349N003200599+01445+01445102235ADDGD15995+9999999GD20995+9999999GD30995+9999999GD40995+9999999GF108085999999999999999999MA1999999099765MW1455EQDN01 07000JPWTH 1QNNE11 1 00799E11 1 00099E11 1 00099E11 1 00099G11 1 00007K11 1 00058L11 1 00200M11 1 29460N11 1 07000Q11 1 10223S11 1 00058V11 1 01010X11 1 00000
038899999912834197211111500E+29183-081050SAO  +0009DAB  V0202105N003652200059N011200599+02505+01895101695ADDAA101000095GA1999+999999034GA2999+076204004GA3999+999999999GA4999+999999999GD12005+9999999GD20015+9999999GD30005+9999999GD40005+9999999GF101015999999999999999999MA1999999101525EQDN01 00000JPWTH 1QNNE11 1 00200E11 1 00001E11 1 00000E11 1 00000G11U1 99999H11 1 23999H11 1 32250H11 1 00999H11 1 00999K11 1 00066L11 1 00700M11 1 29980N11 1 00000Q11 1 10169S11 1 00077V11 1 00101X11 1 21007
007494403099999197207171600N-28800+114700AUST +0034YPGN V0200455N003659999999N999999999+00825+00805999999ADDAY124999GA1005+999999999GF100995004999999999999999MA1999999101645MW1025
0069107520999991972112905004+49467+010383FM-15+0325EDIK V0202301N00771024001CN0100001N9+00301+00101999999ADDGA1021+009009059GA2061+024009039MA1101901999999MW1001REMMET004IRST
0269999999938311972011801005+32483-080717SAO  +0010NBC  V02099959000052200059N011200599+00284-00175103114ADDGD10995+9999999GD20995+9999999GD30995+9999999GD40995+9999999GF100005999999999999999999MA1999999103014EQDN01 00000JPWTH 1QNNE11 1 00099E11 1 00099E11 1 00099E11 1 00099G11U1 99999K11 1 00029L11 1 00700M11 1 30420N11 1 00000Q11 1 10311S11 1 00037V11 1 00000X11 1 00000
028099999912842197207311300E+27967-082533SAO  +001099999V0201305N005752200059N019200599+02615+02115102075ADDAA101000095GD11995+9999993GD20995+9999999GD30995+9999999GD40995+9999999GF101005999999999999999999MA1999999102035EQDN01 00000JPWTH 1QNNE11 1 00199E11 1 00099E11 1 00099E11 1 00099G11U1 99999K11 1 00070L11 1 01200M11 1 30130N11 1 00000Q11 1 10207S11 1 00079V11 1 00100X11 1 13011
0066722535129091972062516004+29383-098583SAO  +0210SKF  V0202401N004112200019N0400001N9+02941+02391999999ADDGA1021+005109999GF102991999999999999999999MA1101121999999MW1001
0058723810231141972112321004+34900-117867SAO  +0702EDW  V0209991C000012200019N1360001N9+01221-00611101561ADDGF100991999999999999999999MA1101631093431MD1710251+9999
028699999924011197211270400E+46767-100750SAO  +050299999V0203305N007750036649N009600599+00005-00175100275ADDAA101000095GD14995+9999999GD20995+9999999GD30995+9999999GD40995+9999999GF108085999999999999999999MA1999999094215MW1715EQDN01 04000JPWTH 1QNNE11 1 00699E11 1 00099E11 1 00099E11 1 00099G11 1 00012K11 1 00029L11 1 00600M11 1 27820N11 1 04000Q11 1 10027S11 1 00032V11 1 01010X11 1 33015
0050722860231191972071307004+33883-117250SAO  +0470RIV  V0209991C000012200019N0112001N9+02171+01171999999ADDGF100991999999999999999999MA1101521999999MW1001
028099999993815197204012300E+39900-084217SAO  +031399999V0202505N005750213449N016000599+00224-00115101224ADDAA101000095GD12995+9999999GD22995+9999999GD34995+9999999GD40995+9999999GF108075999999999999999999MA1999999097534EQDN01 00000JPWTH 1QNNE11 1 00299E11 1 00299E11 1 00699E11 1 00099G11 1 00070K11 1 00030L11 1 01000M11 1 28800N11 1 00000Q11 1 10122S11 1 00036V11 1 01009X11 1 25011
0050035963999991972082916004+52133+001433FM-15+0026EGVJ V0200301N004612200019N0100001N9+01801+00901999999ADDGA1011+030009039GA2011+060009009MA1102071999999
0019476350999991972031101004+35250+136933FM-15+0017RJNN V0203201N004619999999N0096001N1+00801-00701999999EQDQ01+000000PRSWM2
0323999999253091972041418005+58367-134583SAO  +0006JNU  V0203305N003650076249N024000599+00115-00335100805ADDGA1999+007624064GA2999+010674064GD13065+9999999GD24025+9999999GD30995+9999999GD40995+9999999GF108085999999999999999999MA1999999100715EQDN01 00000JPWTH 1QNNE11 1 00408E11 1 00602E11 1 00099E11 1 00099G11 1 00025H11 1 15025H11 1 15035K11 1 00026L11 1 01500M11 1 29740N11 1 00000Q11 1 10080S11 1 00034V11 1 01010X11 1 33007
0275999999138991972011818005+30467-087200SAO  +0034PNS  V0201105N006250914449N009600599+01615+01175102505ADDGD12995+9999999GD23995+9999999GD30995+9999999GD40995+9999999GF107055999999999999999999MA1999999102075MW1045EQDN01 08000JPWTH 1QNNE11 1 00299E11 1 00499E11 1 00099E11 1 00099G11 1 00300K11 1 00053L11 1 00600M11 1 30140N11 1 08000Q11 1 10250S11 1 00061V11 1 00906X11 1 11012
031399999914848197209161200E+41700-086317SAO  +0236SBN  V0202305N003150003049N000200599+01505+01505101015ADDAA101000095GA1999+000304104GD15085+9999999GD20995+9999999GD30995+9999999GD40995+9999999GF108085999999999999999999MA1999999098245MW1455EQDN01 07000JPWTH 1QNNE11 1 00710E11 1 00099E11 1 00099E11 1 00099G11 1 00001H11 1 45001K11 1 00059L11 1 00012M11 1 29010N11 1 07000Q11 1 10101S11 1 00059V11 1 01010X11 1 23006
0377999999038401972020512005+30533-087200SAO  +0040NDP  V0200605N005252200059N011200599+00065-00675103475ADDGA1999+076204004GA2999+999999999GA3999+999999999GA4999+999999999GD12035+9999999GD20005+9999999GD30005+9999999GD40005+9999999GF103025999999999999999999MA1999999102985EQDN01 00000JPWTH 1QNNE11 1 00204E11 1 00000E11 1 00000E11 1 00000G11U1 99999H11 1 32250H11 1 00999H11 1 00999H11 1 00999K11 1 00020L11 1 00700M11 1 30410N11 1 00000Q11 1 10347S11 1 00033V11 1 00403X11 1 06010
038872261022010197207282100E+99999+999999SAO  +999999999V0201405N005252200059N080000599+03505+01895101305ADDAA101000095GA1999+010675085GA2999+999999005GA3999+999999999GA4999+999999999GD12025+9999999GD22005+9999999GD30005+9999999GD40005+9999999GF102025999999999999999999MA1999999097805EQDN01 00000JPWTH 1QNNE11 1 00202E11 1 00200E11 1 00000E11 1 00000G11U1 99999H11 1 11035H11 1 32999H11 1 00999H11 1 00999K11 1 00066L11 1 05000M11 1 28880N11 1 00000Q11 1 10130S11 1 00095V11 1 00202X11 1 14010
0269999999433231972012208005+35283+139667SAO  +0053RJTX V0200405N002652200059N012800599+00835+00065101855ADDGD10995+9999999GD20995+9999999GD30995+9999999GD40995+9999999GF100005999999999999999999MA1999999101225EQDN01 00000JPWTH 1QNNE11 1 00099E11 1 00099E11 1 00099E11 1 00099G11U1 99999K11 1 00033L11 1 00800M11 1 29890N11 1 00000Q11 1 10185S11 1 00047V11 1 00000X11 1 04005
0019476710999991972031020004+35550+139783FM-15+0008RJTT V0203501N010319999999N0096001N1+00521-00981999999EQDQ01+000000PRSWM2
0050722535129091972033107004+29383-098583SAO  +0210SKF  V0200201N003112200019N1600001N9+00941-00061999999ADDGF100991999999999999999999MA1101591999999MW1001
007494818099999197203062330N-38070+140670AUST +0006     V0200235N010359999999N999999999+01945+99999999999ADDAY104999GA1005+999999999GF100995004999999999999999MA1999999101935MW1025
010694403099999197205170700N-28800+114700AUST +0034YPGN V0201355N005159999999N999999999+02445+00605999999ADDAY134999GA1005+999999999GA2005+999999999GA3085+999999999GF108995004999999999999075MA1999999101955MW1035
0129726625240061972052021004+44150-103100SAO  +0999RCA  V0201401N004110300019N0640001N9+02391+01501101261ADDGF107991999999999999999999MA1101461089981MD1710171+9999MW1001REMAWY056?360/CB 15WNW-N MOVG SE/VIRGA WNW-N/WND 350V170/717 1963
0269999999949311972060506005+47383-092850SAO  +0411HIB  V0201805N002150365849N011200599+01394+00785101684ADDGD13995+9999999GD23995+9999999GD30995+9999999GD40995+9999999GF105045999999999999999999MA1999999096824EQDN01 00000JPWTH 1QNNE11 1 00499E11 1 00499E11 1 00099E11 1 00099G11 1 00120K11 1 00046L11 1 00700M11 1 28590N11 1 00000Q11 1 10168S11 1 00057V11 1 00605X11 1 18004
005194999900266197207130500N-35070+148100AUST +0290     V0202255N001059999999N999999999+01435+99999999999ADDGA1075+004505065GF107995074055004505999999MW1025
0269999999433231972010417005+35283+139667SAO  +0053RJTX V0202005N005250243849N019200599+01285+01115102065ADDGD12995+9999999GD23995+9999999GD33995+9999999GD40995+9999999GF106065999999999999999999MA1999999101425EQDN01 00000JPWTH 1QNNE11 1 00299E11 1 00499E11 1 00499E11 1 00099G11 1 00080K11 1 00052L11 1 01200M11 1 29950N11 1 00000Q11 1 10206S11 1 00055V11 1 00807X11 1 20010
031999999913882197210280000E+35033-085200SAO  +021099999V0203405N002150057949N002400599+01225+01115101185ADDAA101000095GA1999+005794074GD14085+9999999GD20995+9999999GD30995+9999999GD40995+9999999GF108085999999999999999999MA1999999098715MW1045MW2455EQDN01 07080JPWTH 1QNNE11 1 00610E11 1 00099E11 1 00099E11 1 00099G11 1 00019H11 1 16019K11 1 00052L11 1 00150M11 1 29150N11 1 07080Q11 1 10118S11 1 00054V11 1 01010X11 1 34004
007494790099999197203240500N-30920+153080AUST +0130     V0201805N009359999999N999999999+02115+01305999999ADDAY124999GA1045+004505065GF104995044055004505999999MA1999999100175MW1015
0269999999939871972092203005+31233-094750SAO  +0089LFK  V02099959000052200059N011200599+02224+02005101774ADDGD12995+9999999GD24995+9999993GD30995+9999999GD40995+9999999GF108035999999999999999999MA1999999100684EQDN01 00000JPWTH 1QNNE11 1 00299E11 1 00599E11 1 00099E11 1 00099G11U1 99999K11 1 00068L11 1 00700M11 1 29730N11 1 00000Q11 1 10177S11 1 00072V11 1 01004X11 1 00000
0050745700138401972120107004+39817-084050SAO  +0254FFO  V0202401N004110096019N0160001N9+00001-00171999999ADDGF108991999999999999999999MA1100881999999MW1001
031999999914735197202131800E+42750-073800SAO  +0084ALB  V0203605N002150051849N004000599+00005-00175100485ADDAA101001895GA1999+005184134GD14085+9999999GD20995+9999999GD30995+9999999GD40995+9999999GF108085999999999999999999MA1999999099395MW1455MW2665EQDN01 02670JPWTH 1QNNE11 1 00610E11 1 00099E11 1 00099E11 1 00099G11 1 00017H11 1 13017K11 1 00029L11 1 00250M11 1 29350N11 1 02670Q11 1 10048S11 1 00032V11 1 01010X11 1 36004
0165999999931021972011318005+39417-118717SAO  +1199NFL  V0203205N001052200059N048000599+00564+00225102294ADDGF100005999999999999999999MA1999999088554EQDN01 00000JPWTH 1QNNG11U1 99999K11 1 00036L11 1 03000M11 1 26150N11 1 00000Q11 1 10229S11 1 00042V11 1 00000X11 1 32002
0050747940128681972111717004+28467-080550SAO  +0003XMR  V0203001N005712200019N0160001N9+01781+00941101561ADDGF102991999999999999999999MA1101561999999MW1001
028099999914751197204011800E+40217-076850SAO  +0103HAR  V0201905N005252200059N024000599+01445-00175101085ADDAA101000095GD12995+9999999GD20995+9999999GD30995+9999999GD40995+9999999GF103035999999999999999999MA1999999099805EQDN01 00000JPWTH 1QNNE11 1 00299E11 1 00099E11 1 00099E11 1 00099G11U1 99999K11 1 00029L11 1 01500M11 1 29470N11 1 00000Q11 1 10108S11 1 00058V11 1 00404X11 1 19010
007494999900346197201280200N-41000+145730AUST +0020     V0203385N004159999999N999999999+02065+01205999999ADDAY124999GA1015+009005085GF101995014015009005999999MA1999999101795MW1025
017699999994746197212071500E+42267-071867SAO  +0300ORH  V0203105N006752200059N064000599-00174-01115103114ADDAA101000095GF100005999999999999999999MA1999999099294EQDN01 00000JPWTH 1QNNG11U1 99999K11 1 00012L11 1 04000M11 1 29320N11 1 00000Q11 1 10311S11 1 00029V11 1 00000X11 1 31013
008294589099999197201140500N-29430+153370AUST +0030     V0201585N002659999999N999999999+02105+02005999999ADDGA1065+009005065GA2025+999999045GF108995064055009005025999MA1999999100125MW1605
0035476360999991972011003004+35167+136967FM-15+005699999V0200601N000519999999N0048001N1+00801+00131102631ADDGF108991999999999999999999MW1051
007574754013934197201121200D+31317-092550SAO  +0027KAEX V0209991C000012200019N0240001N9+00611+00501101421ADDAA101000095GF100991999999999999999999MA1101461999999MD1610121+9999MW1001
038899999993822197208130600E+39833-089667SAO  +0179SPI  V0203505N002650304849N032000599+02004+01895101864ADDAA101000095GA1999+030484094GA2999+999999999GA3999+999999999GA4999+999999999GD13065+9999999GD20005+9999999GD30005+9999999GD40005+9999999GF106065999999999999999999MA1999999099664EQDN01 00000JPWTH 1QNNE11 1 00408E11 1 00000E11 1 00000E11 1 00000G11 1 00100H11 1 18100H11 1 00999H11 1 00999H11 1 00999K11 1 00066L11 1 02000M11 1 29430N11 1 00000Q11 1 10186S11 1 00068V11 1 00808X11 1 35005
0377999999136011972022821005+32367-064683SAO  +0006TXKF V0202005N005750243849N014400599+02005+01615101565ADDGA1999+009144084GA2999+024384034GA3999+060964004GA4999+999999999GD12025+9999999GD23055+9999999GD34015+9999999GD40005+9999999GF108075999999999999999999MA1999999101525EQDN01 00000JPWTH 1QNNE11 1 00203E11 1 00406E11 1 00601E11 1 00000G11 1 00080H11 1 11030H11 1 23080H11 1 32200H11 1 00999K11 1 00061L11 1 00900M11 1 29980N11 1 00000Q11 1 10156S11 1 00068V11 1 01009X11 1 20011
0269999999931291972100915005+37700-113100SAO  +171399999V0201505N003150914449N048000599+00894+00725101654ADDGD12995+9999999GD22995+9999999GD34995+9999999GD40995+9999999GF108055999999999999999999MA1999999082974EQDN01 00000JPWTH 1QNNE11 1 00299E11 1 00299E11 1 00699E11 1 00099G11 1 00300K11 1 00045L11 1 03000M11 1 24500N11 1 00000Q11 1 10165S11 1 00048V11 1 01006X11 1 15006
028699999913994197210300100E+38750-090383SAO  +017299999V0200905N002150076249N004000599+01065+01005102105ADDAA101000095GD14995+9999999GD20995+9999999GD30995+9999999GD40995+9999999GF108085999999999999999999MA1999999100035MW1455EQDN01 07000JPWTH 1QNNE11 1 00699E11 1 00099E11 1 00099E11 1 00099G11 1 00025K11 1 00050L11 1 00250M11 1 29540N11 1 07000Q11 1 10210S11 1 00051V11 1 01010X11 1 09004
0165999999031331972081519005+36950-116050SAO  +1197UCC  V0202205N004152200059N032000599+02615-00725101275ADDGF100005999999999999999999MA1999999088155EQDN01 00000JPWTH 1QNNG11U1 99999K11 1 00019L11 1 02000M11 1 26030N11 1 00000Q11 1 10127S11 1 00079V11 1 00000X11 1 22008
009899999913882197202011300E+35033-085200SAO  +021099999V0200205N002150487749N999999999-00175-00445999999ADDAA101000095GF108085999999999999999999QNNG11 1 00160K11 1 00024S11 1 00029V11 1 01010X11 1 02004
028099999913743197208310500E+38850-077033SAO  +0003DCA  V0200605N002152200059N011200599+02285+01725102245ADDAA101000095GD10995+9999999GD20995+9999999GD30995+9999999GD40995+9999999GF100005999999999999999999MA1999999102005EQDN01 00000JPWTH 1QNNE11 1 00099E11 1 00099E11 1 00099E11 1 00099G11U1 99999K11 1 00063L11 1 00700M11 1 30120N11 1 00000Q11 1 10224S11 1 00073V11 1 00000X11 1 06004
0050722906931121972122013004+32700-117200SAO  +0015NZY  V0209991C000012200019N0004001N9+01221+01111101971ADDGF110991999999999999999999MA1101961999999MW1451
038899999913995197212062100E+37233-093383SAO  +0386SGF  V0200205N004650036649N019200599-01005-01335103385ADDAA101000095GA1999+003664064GA2999+999999999GA3999+999999999GA4999+999999999GD13055+9999999GD20005+9999999GD30005+9999999GD40005+9999999GF105055999999999999999999MA1999999098515EQDN01 00000JPWTH 1QNNE11 1 00406E11 1 00000E11 1 00000E11 1 00000G11 1 00012H11 1 15012H11 1 00999H11 1 00999H11 1 00999K11 1 00008L11 1 01200M11 1 29090N11 1 00000Q11 1 10338S11 1 00014V11 1 00606X11 1 02009
038899999914941197207191800E+41983-097433SAO  +0471OFK  V0201705N009350042749N019200599+02615+02065101015ADDAA101000095GA1999+004274064GA2999+076204024GA3999+999999999GA4999+999999999GD13055+9999999GD24035+9999999GD30005+9999999GD40005+9999999GF108065999999999999999999MA1999999095605EQDN01 00000JPWTH 1QNNE11 1 00406E11 1 00604E11 1 00000E11 1 00000G11 1 00014H11 1 15014H11 1 37250H11 1 00999H11 1 00999K11 1 00069L11 1 01200M11 1 28230N11 1 00000Q11 1 10101S11 1 00079V11 1 01007X11 1 17018
0191999999232441972030800005+37417-122050SAO  +0012NUQ  V0203305N005252200059N011200599+02005+01065101495ADDGD10995+9999999GF100005999999999999999999MA1999999101355EQDN01 00000JPWTH 0QNNE41 0 00099G41U0 99999K41 0 00051L41 0 00700M41 0 29930N41 0 00000Q41 0 10149S41 0 00068V41 0 00000X41 0 33010
0081722860231191972100921004+33883-117250SAO  +0470RIV  V0209991C000010084019N0112001N9+01611+01061101531ADDGF108991999999999999999999MA1101631999999MD1810051+9999MW1001REMAWY008805 15//
0050745700138401972122013004+39817-084050SAO  +0254FFO  V0202501N001510009019N0064001N9+00441+00331999999ADDGF108991999999999999999999MA1101191999999MW1451
028099999914734197208160200E+40700-074167SAO  +0002EWR  V0201405N002650198149N032000599+02065+01445102545ADDAA101000095GD13995+9999999GD20995+9999999GD30995+9999999GD40995+9999999GF105055999999999999999999MA1999999102445EQDN01 00000JPWTH 1QNNE11 1 00499E11 1 00099E11 1 00099E11 1 00099G11 1 00065K11 1 00058L11 1 02000M11 1 30250N11 1 00000Q11 1 10254S11 1 00069V11 1 00606X11 1 14005
007494975099999197205290200N-42830+147520AUST +0003YMHB V0203155N001559999999N999999999+01225+00505999999ADDAY124999GA1005+999999999GF100995004999999999999999MA1999999103225MW1025
0377999999147901972040915005+42150-070933SAO  +0048NZW  V0203405N006252200059N016000599+00565-00505101555ADDGA1999+009144064GA2999+060964024GA3999+999999999GA4999+999999999GD12025+9999999GD22025+9999999GD30005+9999999GD40005+9999999GF104035999999999999999999MA1999999100985EQDN01 00000JPWTH 1QNNE11 1 00203E11 1 00202E11 1 00000E11 1 00000G11U1 99999H11 1 15030H11 1 37200H11 1 00999H11 1 00999K11 1 00023L11 1 01000M11 1 29820N11 1 00000Q11 1 10155S11 1 00042V11 1 00504X11 1 34012
008799999924152197212011200E+45500-118400SAO  +1234MEH  V0202605N001559999999N999999999+00785-00615101845ADDAA101000095MA1999999087815QNNK11 1 00021M11 1 25930Q11 1 10184S11 1 00046X11 1 26003
0056704540257041972042716004+51883-176650SAO  +0005PADK V0202501N005110045019N0048001N9+00391+00391099601ADDGF108991999999999999999999MA1099591999999MW1451MW2511
005194999900266197208102300N-35070+148100AUST +0290     V0202255N005159999999N999999999+00675+99999999999ADDGA1085+003005115GF108995084075003005999999MW1025
0243999999331261972031412005+99999+999999SAO  +999999999V0201305N003150091449N016000599+01335+00945102475ADDGD12995+9999999GD23995+9999999GD34995+9999999GD40995+9999999GF108995999999999999999999EQDN01 00000JPWTH 1QNNE11 1 00299E11 1 00499E11 1 00699E11 1 00099G11 1 00030K11 1 00049L11 1 01000N11 1 00000Q11 1 10247S11 1 00056V11 1 01099X11 1 13006
034099999924232197208201800E+44917-123017SAO  +006199999V0202105N003650167649N009600599+01785+01005101785ADDAA101000095GA1999+016764064GA2999+030484034GD13065+9999999GD24025+9999999GD30995+9999999GD40995+9999999GF108085999999999999999999MA1999999101055MW1045EQDN01 08000JPWTH 1QNNE11 1 00407E11 1 00603E11 1 00099E11 1 00099G11 1 00055H11 1 15055H11 1 23100K11 1 00050L11 1 00600M11 1 29840N11 1 08000Q11 1 10178S11 1 00064V11 1 01010X11 1 21007
006694999900065197206242330N-12470+130830AUST +0040     V0201355N001059999999N999999999+02325+02205999999ADDGA1025+000605075GF102995024065000605999999MA1999999100965MW1405
0253999999682011972020407005-80017-119533SAO  +154399999V0203005N004650091449N008000599-01175+99999999999ADDGD14995+9999999GD20995+9999999GD30995+9999999GD40995+9999999GF108075999999999999999999MA1999999081445MW1715EQDN01 04000JPWTH 1QNNE11 1 00699E11 1 00099E11 1 00099E11 1 00099G11 1 00030L11 1 00500M11 1 24050N11 1 04000S11 1 00011V11 1 01009X11 1 30009
0096703050999991972011121004+58650-162067SAO  +0165PAEH V0200101N000512200019N0320001N9-02281-02781103301ADDGF107991999999999999999999MA1103081999999MW1001REMAWY037WND LGT VRBL/102 1501 RADOME WND 1520
009094750099999197210272000N-34950+150530AUST +0110YSNW V0209999C000059999999N999999999+01245+01105999999ADDAY114999GA1065+012005065GA2075+999999045GF107995064055012005025999MA1999999101695MW1015
033499999914732197203070600E+40767-073900SAO  +0003LGA  V0200805N003150167649N024000599-00285-01445102515ADDAA101000095GA1999+016764064GA2999+036584044GD13065+9999999GD24085+9999999GD30995+9999999GD40995+9999999GF108085999999999999999999MA1999999102405EQDN01 00000JPWTH 1QNNE11 1 00408E11 1 00610E11 1 00099E11 1 00099G11 1 00055H11 1 15055H11 1 21120K11 1 00006L11 1 01500M11 1 30240N11 1 00000Q11 1 10251S11 1 00027V11 1 01010X11 1 08006
006694999900072197211221730N-16270+133380AUST +0214     V0209999C000059999999N999999999+02505+99999999999ADDGA1085+015005115GF108995084075015005999999MA1999999098785MW1215
028099999914735197204070700E+42750-073800SAO  +0084ALB  V0203605N003650048849N016000599-00505-00785100785ADDAA101000095GD12995+9999999GD24995+9999999GD30995+9999999GD40995+9999999GF108085999999999999999999MA1999999099705EQDN01 00000JPWTH 1QNNE11 1 00299E11 1 00699E11 1 00099E11 1 00099G11 1 00016K11 1 00018L11 1 01000M11 1 29440N11 1 00000Q11 1 10078S11 1 00023V11 1 01010X11 1 36007
0195999999232931972102503005+37367-121917SAO  +0016SJC  V0200405N003152200049N080000599+02225-00065999999ADDGD10995+9999999GD20995+9999999GD30995+9999999GD40995+9999999EQDN01 00000JPWTH 1QNNE11 1 00099E11 1 00099E11 1 00099E11 1 00099G11U1 99999K11 1 00031L11 1 05000N11 1 00000S11 1 00072X11 1 04006
009899999913882197209072300E+35033-085200SAO  +021099999V0201005N003150167649N999999999+02675+01565999999ADDAA101000095GF108005999999999999999999QNNG11 1 00055K11 1 00060S11 1 00080V11 1 01000X11 1 10006
038899999923194197211030000E+35017-110733SAO  +148899999V02099959000052200059N096000599+01335+00335101855ADDAA101000095GA1999+999999084GA2999+999999999GA3999+999999999GA4999+999999999GD10005+9999999GD20005+9999999GD30005+9999999GD40005+9999999GF100005999999999999999999MA1999999085275EQDN01 00000JPWTH 1QNNE11 1 00000E11 1 00000E11 1 00000E11 1 00000G11U1 99999H11 1 11999H11 1 00999H11 1 00999H11 1 00999K11 1 00038L11 1 06000M11 1 25180N11 1 00000Q11 1 10185S11 1 00056V11 1 00000X11 1 00000
0165999999130251972071100005+36650-006350SAO  +0027LERT V0201305N003152200059N011200599+02445+01445101795ADDGF100005999999999999999999MA1999999101465EQDN01 00000JPWTH 1QNNG11U1 99999K11 1 00058L11 1 00700M11 1 29960N11 1 00000Q11 1 10179S11 1 00076V11 1 00000X11 1 13006
0269999999240121972091513005+46800-102800SAO  +078899999V0202705N002650762049N024000599+00725+00175101595ADDGD12995+9999999GD24995+9999999GD30995+9999999GD40995+9999999GF108065999999999999999999MA1999999092485EQDN01 00000JPWTH 1QNNE11 1 00299E11 1 00699E11 1 00099E11 1 00099G11 1 00250K11 1 00035L11 1 01500M11 1 27310N11 1 00000Q11 1 10159S11 1 00045V11 1 01008X11 1 27005
009094753099999197210101400N-33600+150780AUST +0021YSRI V02099999999999999999N999999999+01705+00405999999ADDAY124999GA1005+999999999GA2025+999999045GF102995004999999999015999MA1999999099735MW1055
0177722970231291972050121003+33817-118150SAO  +0008LGB  V0201905N004152200059N0064005N1+02065+01335101595ADDGF100005999999999999999999MA1999999101465MW1045MW2051EQDN01 08200JPWTH 1QNNG11U1 99999K11 1 00056L11 1 00400M11 1 29960N11 1 08200Q11 1 10159S11 1 00069V11 1 00000X11 1 19008
0050783670117061972112211004+19900-075150SAO  +0020MUGM V0200301N002112200019N0112001N9+02281+02061101441ADDGF102991999999999999999999MA1101351999999MW1001
0165999999031331972071911005+36950-116050SAO  +1197UCC  V0202205N004152200059N032000599+02675+00725100375ADDGF100005999999999999999999MA1999999087545EQDN01 00000JPWTH 1QNNG11U1 99999K11 1 00045L11 1 02000M11 1 25850N11 1 00000Q11 1 10037S11 1 00080V11 1 00000X11 1 22008
005994999900064197210130530N-13220+131000AUST +0152     V0201135N003659999999N999999999+03705+00506999999ADDAY114999GA1025+007505085GF102995024025007505999999MW1025
0171999999938411972051912005+30717-087017SAO  +0054NSE  V0203605N002152200059N008000599+01944+01675101104ADDGF100005999999999999999999MA1999999100474MW1055EQDN01 08100JPWTH 1QNNG11U1 99999K11 1 00062L11 1 00500M11 1 29670N11 1 08100Q11 1 10110S11 1 00067V11 1 00000X11 1 36004
038872734514847197209262100E+99999+999999SAO  +999999999V0202705N008252200059N032000599+01225+00945101465ADDAA101000095GA1999+007624064GA2999+999999004GA3999+999999999GA4999+999999999GD12025+9999999GD22005+9999999GD30005+9999999GD40005+9999999GF102025999999999999999999MA1999999098815EQDN01 00000JPWTH 1QNNE11 1 00203E11 1 00200E11 1 00000E11 1 00000G11U1 99999H11 1 15025H11 1 32999H11 1 00999H11 1 00999K11 1 00049L11 1 02000M11 1 29180N11 1 00000Q11 1 10146S11 1 00054V11 1 00303X11 1 27016
039472225593842197201052100C+32517-084933SAO  +0123CSG  V0203105N005252200059N0240005N1+00785-00065101875ADDAA101000095GA1051+091444004GA2999+999999999GA3999+999999999GA4999+999999999GD13055+9999993GD20005+9999999GD30005+9999999GD40005+9999999GF105005999999999999999999MA1999999100445MW1001EQDN01 00000JPWTH 1QNNE11 1 00306E11 1 00000E11 1 00000E11 1 00000G11U1 99999H11 1 32300H11 1 00999H11 1 00999H11 1 00999K11 1 00031L11 1 01500M11 1 29660N11 1 00000Q11 1 10187S11 1 00046V11 1 00600X11 1 31010
007794999900230197204150500N-33430+149570AUST +0713     V0201135N002159999999N999999999+01745+99999999999ADDGA1025+999999085GA2005+999999999GA3015+999999999GF102995024015999999999015
0269999999232391972013111005+37733-122317SAO  +0005NGZ  V02099959000052200059N032000599+00225+00005101885ADDGD10995+9999999GD20995+9999999GD30995+9999999GD40995+9999999GF100005999999999999999999MA1999999101835EQDN01 00000JPWTH 1QNNE11 1 00099E11 1 00099E11 1 00099E11 1 00099G11U1 99999K11 1 00032L11 1 02000M11 1 30070N11 1 00000Q11 1 10188S11 1 00036V11 1 00000X11 1 00000
0009700260275021972111904004+71300-156783SAO  +0004BRW  V02099999999999999999N0000001N1+99999+99999999999ADDMW1001
017672266013962197211221200E+32417-099683SAO  +0544ABI  V0203405N002652200059N024000599-00395-00565103165ADDAA101000095GF100005999999999999999999MA1999999096585EQDN01 00000JPWTH 1QNNG11U1 99999K11 1 00022L11 1 01500M11 1 28520N11 1 00000Q11 1 10316S11 1 00025V11 1 00000X11 1 34005
0097724037937281972081414004+38717-077183SAO  +0024DAA  V0203001N004112200019N0096001N9+03281+01891999999ADDGA1021+010509999GA2081+075009999GD19999+9999993GF108991999999999999999999MA1101861999999MW1051
007494999900346197204150500N-41000+145730AUST +0020     V0201805N005159999999N999999999+01815+00805999999ADDAY104999GA1035+007505065GF103995034045007505999999MA1999999102425MW1035
0009749475999991972020808004+32883-106350SAO  +120699999V0203501N002619999999N0000001N1+99999+99999999999ADDMW1001
0383999999938311972061809005+32483-080717SAO  +0010NBC  V0201005N002652200059N009600599+02224+02225101554ADDGA1999+076204004GA2999+999999999GA3999+999999999GA4999+999999999GD12025+9999999GD20005+9999999GD30005+9999999GD40005+9999999GF102025999999999999999999MA1999999101464MW1445EQDN01 07200JPWTH 1QNNE11 1 00203E11 1 00000E11 1 00000E11 1 00000G11U1 99999H11 1 32250H11 1 00999H11 1 00999H11 1 00999K11 1 00072L11 1 00600M11 1 29960N11 1 07200Q11 1 10155S11 1 00072V11 1 00302X11 1 10005
038899999923050197202210300E+35050-106617SAO  +1619ABQ  V0201705N003150243849N048000599+01175-01005101855ADDAA101000095GA1999+024384064GA2999+999999999GA3999+999999999GA4999+999999999GD13075+9999999GD20005+9999999GD30005+9999999GD40005+9999999GF107075999999999999999999MA1999999084025EQDN01 00000JPWTH 1QNNE11 1 00409E11 1 00000E11 1 00000E11 1 00000G11 1 00080H11 1 15080H11 1 00999H11 1 00999H11 1 00999K11 1 00014L11 1 03000M11 1 24810N11 1 00000Q11 1 10185S11 1 00053V11 1 00909X11 1 17006
028099999913737197202231400E+36900-076200SAO  +0007ORF  V0200105N004152200059N024000599+00175-00445103665ADDAA101000095GD12995+9999999GD20995+9999999GD30995+9999999GD40995+9999999GF102025999999999999999999MA1999999103565EQDN01 00000JPWTH 1QNNE11 1 00299E11 1 00099E11 1 00099E11 1 00099G11U1 99999K11 1 00024L11 1 01500M11 1 30580N11 1 00000Q11 1 10366S11 1 00035V11 1 00303X11 1 01008
0269999999931291972090200005+37700-113100SAO  +171399999V02099959000052200059N048000599+02394+00675101424ADDGD12995+9999999GD22995+9999999GD30995+9999999GD40995+9999999GF104035999999999999999999MA1999999082974EQDN01 00000JPWTH 1QNNE11 1 00299E11 1 00299E11 1 00099E11 1 00099G11U1 99999K11 1 00044L11 1 03000M11 1 24500N11 1 00000Q11 1 10142S11 1 00075V11 1 00504X11 1 00000
006174754013934197205101900D+31317-092550SAO  +0027KAEX V0200601N002112200019N0160001N9+02331+01501999999ADDAA101000095GF107991999999999999999999MA1101831999999MW1001
0064722436129061972082105004+29617-095167SAO  +0012EFD  V0202401N001512200019N0320001N9+02501+02171999999ADDGF102991999999999999999999MA1101801999999MW1001REMAWY005K15-%
0409722906931121972110700003+32700-117200SAO  +0015NZY  V0203305N002650670649N0064005N9+01945+01225101425ADDGA1999+060964014GA2999+067064004GA3999+999999999GA4999+999999999GD12025+9999999GD23055+9999999GD30005+9999999GD40005+9999999GF107055999999999999999999MA1101421101255MD1610031+9999MW1055REMAWY003603EQDN01 08100JPWTH 1QNNE11 1 00203E11 1 00406E11 1 00000E11 1 00000G11 1 00220H11 1 39200H11 1 32220H11 1 00999H11 1 00999K11 1 00054L11 1 00400M11 1 29900N11 1 08100Q11 1 10142S11 1 00067V11 1 00906X11 1 33005
0044723810231141972073016004+34900-117867SAO  +0702EDW  V0201901N001512200019N0720001N9+03111+01391999999ADDGF102991999999999999999999MA1101631999999
038899999913985197201222100E+37767-099967SAO  +0787DDC  V0201905N007750762049N064000599+01445-00225100455ADDAA101000095GA1999+076204004GA2999+999999999GA3999+999999999GA4999+999999999GD14085+9999999GD20005+9999999GD30005+9999999GD40005+9999999GF108055999999999999999999MA1999999091365EQDN01 00000JPWTH 1QNNE11 1 00610E11 1 00000E11 1 00000E11 1 00000G11 1 00250H11 1 32250H11 1 00999H11 1 00999H11 1 00999K11 1 00028L11 1 04000M11 1 26980N11 1 00000Q11 1 10045S11 1 00058V11 1 01006X11 1 19015
0269999999146111972111601005+43900-069933SAO  +0021NHZ  V0203605N001552200059N011200599-00335-00675101175ADDGD12995+9999999GD20995+9999999GD30995+9999999GD40995+9999999GF103035999999999999999999MA1999999100915EQDN01 00000JPWTH 1QNNE11 1 00299E11 1 00099E11 1 00099E11 1 00099G11U1 99999K11 1 00020L11 1 00700M11 1 29800N11 1 00000Q11 1 10117S11 1 00026V11 1 00404X11 1 36003
039472253012921197212152100C+29533-098467SAO  +0240SAT  V0203505N007750609649N0400005N1+01065-00445103475ADDAA101000095GA1081+060964024GA2999+999999999GA3999+999999999GA4999+999999999GD14085+9999999GD20005+9999999GD30005+9999999GD40005+9999999GF108055999999999999999999MA1999999100545MW1001EQDN01 00000JPWTH 1QNNE11 1 00610E11 1 00000E11 1 00000E11 1 00000G11 1 00200H11 1 37200H11 1 00999H11 1 00999H11 1 00999K11 1 00024L11 1 02500M11 1 29690N11 1 00000Q11 1 10347S11 1 00051V11 1 01006X11 1 35015
011799999913882197211200200E+35033-085200SAO  +021099999V0202805N006750076249N999999999+00835+99999999999ADDAA101000095GF108085999999999999999999EQDP01 +00892ATOD  QNNG11 1 00025K11 1 00048S11 1 00047V11 1 01010X11 1 28013
0259999999331261972053100005+99999+999999SAO  +999999999V0202705N002652200059N032000599+01335+00835101785ADDGD12995+9999999GD20995+9999999GD30995+9999999GD40995+9999999GF199999999999999999999999EQDN01 00000JPWTH 1P01    003SCOTCVQNNE11 1 00299E11 1 00099E11 1 00099E11 1 00099G11U1 99999K11 1 00047L11 1 02000N11 1 00000Q11 1 10178S11 1 00056V11 1 00099X11 1 27005
018299999903812197206061200E+35433-082550SAO  +065299999V02099959000052200059N003200599+01615+01565101685ADDAA101000095GF100005999999999999999999MA1999999094185MW1445EQDN01 07200JPWTH 1QNNG11U1 99999K11 1 00060L11 1 00200M11 1 27810N11 1 07200Q11 1 10168S11 1 00061V11 1 00000X11 1 00000
0269999999240271972041115005+41600-109067SAO  +2057RKS  V0202805N002650152449N048000599+00565+00335101305ADDGD14995+9999999GD20995+9999999GD30995+9999999GD40995+9999999GF108065999999999999999999MA1999999079115EQDN01 00000JPWTH 1QNNE11 1 00699E11 1 00099E11 1 00099E11 1 00099G11 1 00050K11 1 00038L11 1 03000M11 1 23360N11 1 00000Q11 1 10130S11 1 00042V11 1 01008X11 1 28005
030799999924134197210101800E+43583-119050SAO  +12624BW  V0201705N004650085349N072000599+01005+00615101245ADDAA101000095GA1999+008534064GD14085+9999999GD20995+9999999GD30995+9999999GD40995+9999999GF108085999999999999999999MA1999999087005EQDN01 00000JPWTH 1QNNE11 1 00610E11 1 00099E11 1 00099E11 1 00099G11 1 00028H11 1 15028K11 1 00043L11 1 04500M11 1 25690N11 1 00000Q11 1 10124S11 1 00050V11 1 01010X11 1 17009
0053489000999991972032314004+10817+106667FM-15+0019VVTS V0201301N00461220001CN0112001N1+02741+02351101151ADDMA1999999101051EQDQ01+999990APOSLPQ02+000000PRSWM2
0075723930999991972062509004+34717-120567SAO  +0112VBG  V0203501N003610033019N0160001N9+01331+00941101621ADDGF108991999999999999999999MA1101631100241MD1710101+9999REMAWY008710 16//
009194932099999197203020500N-37800+149270AUST +0024     V0200455N004659999999N999999999+02745+99999999999ADDAY104999GA1005+999999999GA2005+999999999GA3045+999999999GF104995004999999999999065MW1035
038899999924155197202290900E+45683-118850SAO  +0452PDT  V0202505N009352200059N024000599+01115+00005100245ADDAA101000095GA1999+018294064GA2999+999999999GA3999+999999999GA4999+999999999GD12025+9999999GD20005+9999999GD30005+9999999GD40005+9999999GF102025999999999999999999MA1999999094955EQDN01 00000JPWTH 1QNNE11 1 00203E11 1 00000E11 1 00000E11 1 00000G11U1 99999H11 1 15060H11 1 00999H11 1 00999H11 1 00999K11 1 00032L11 1 01500M11 1 28040N11 1 00000Q11 1 10024S11 1 00052V11 1 00303X11 1 25018
0009749475999991972041705004+32883-106350SAO  +120699999V0209991C000019999999N0000001N1+99999+99999999999ADDMW1001
0083035623999991972120611004+52367-000217FM-15+0049EGWZ V0202101N007710390019N0100001N9+01201+00701999999ADDGA1031+012009059GA2081+039009039MA1100001999999MW1001REMMET018CIG130/RCD OVC 270
