0057348800999991973090209004+46350+047967FM-12-002299999V0201801N00301220001CN0100001N9+02501+01101101431ADDAY101999GF102991021011017501001001MD1510121+9999MW1031
0050725816999991973070914004+40183-112933SAO  +1326DPG  V0201601N002512200019N0320001N1+02611+00721999999ADDGF100991999999999999999999MA1102271999999MW1001
0087164050999991973022121004+38183+013100FM-12+0017LICJ V0200101N00201220001CN0130001N9+01101+00701101811ADDAY111999GA1031+006009089GF103991031021008001001001MD1110061+9999MW1011REMSYN00595300
0057257150999991973022306004+62500+155783FM-12+054299999V0203601N00301220001CN0500001N9-03101-03501999999ADDAY171999GF102991021001999999031001MD1210131+9999MW1021
0100483310999991973081808004+18800+100783FM-15+0200VTCN V0209991C000010360019N0112001N1+03101+02501999999ADDGA1011+006009059GA2021+030009039GA3071+036009049MA1100141999999REMMET006CIG120EQDQ01+000000PRSWM2
0118133880999991973052606004+43333+021900FM-12+020299999V0203201N00251012001CN0200001N9+01501+00901101851ADDAA199000091AJ100009199999999AY111999GF106991061051012501001001IA1009KA1999N+01101MD1310041+9999MW1031REMSYN00520700
0076723965932091973081512004+35667-120633SAO  +0255PRB  V0209991C000012200019N0240001N1+01661+00941101301ADDGF100991999999999999999999MA1101391999999MD1610031+9999MW1001REMAWY003603
0069123300999991973012204004+52433+016833FM-15+0092EPPO V0201401N00301000901CN0025001N9+00101+00001999999ADDGA1071+000909079MA1101801999999REMMET007QBB110?EQDQ01+000000PRSWM2
0057594560999991973012703004+22367+110933FM-12+011299999V0200201N00301007501CN0250001N9+01701+01401102231ADDAY171999GF108991081041008001999999MD1310171+9999MW1031
0057124150999991973050709004+51217+016167FM-12+012299999V0209991C00001030001CN0100001N9+01501+00901101631ADDAY121999GF107991021081004501031999MD1710021+9999MW1031
0052071490999991973081407004+48733+002350FM-15+0089LFPO V0200601N00201220001CN0050001N1+02001+01301999999ADDMA1101901999999REMMET006NOSIG%EQDQ01+000000PRSWM2
028672698024229197306070700C+45600-122600SAO  +0006PDX  V0202605N00155021344MN0160005N1+01565+01395102185ADDAA101000095GD14995+0210099GD20995+9999999GD30995+9999999GD40995+9999999GF108085999999999999999999MA1102201102075MW1001EQDN01 00000JPWTH 1QNNE11 1 00699E11 1 00099E11 1 00099E11 1 00099G11 1 00070K11 1 00057L11 1 01000M11 1 30140N11 1 00000Q11 1 10218S11 1 00060V11 1 01010X11 1 26003
0037419170999991973120103004+23783+090383FM-15+0007VGDC V0209991C00001220001CN0090001N1+02101+01401999999ADDMA1101591999999EQDQ01+000000PRSWM2
0081308020999991973040800004+51667+100983FM-12+130399999V0209991C00001030001CN0500001N9-00701-01301101861ADDAA199000091AY111999GF108991061001999999031021KA1999N-01001MD1310011+9999MW1031
0095234310999991973061418004+65850+065967FM-12+001699999V0201601N00201220001CN0500001N9+01401+00501100901ADDAA199000091AY101999GF102991011041008001001021KA1999M+01701MD1210051+9999MW1021REMSYN00570017
0086565710999991973010812004+27933+102200FM-12+152499999V0209991C00001220001CN0450001N9+01101+00301999999ADDAY111999GF102991011051022501041001MA1999999083761MD1310131+9999MW1011REMSYN00500051
039472566024028197303191200C+41867-103600SAO  +1206BFF  V0203505N00215003054MN0160005N1+00065-00225101765ADDAA101000095AA206999999GA1999+003054074GD14085+0030099GD20995+9999999GD30995+9999999GD40995+9999999GF108085999061999999999999MA1101691087985MD1310071+9999MW1805REMAWY015/ 30700 16// 33EQDQ01  00003PRCP99Q02  00002PRCP06N01 02300JPWTH 1QNNE11 1 00610E11 1 00099E11 1 00099E11 1 00099G11 1 00010H11 1 16010K11 1 00028L11 1 01000M11 1 25980N11 1 02300Q11 1 10176S11 1 00033V11 1 01010X11 1 35004
0089062100999991973050109004+52167+004433FM-12+0000EHVB V0202501N00611014401CN0120001N9+00901+00501100661ADDAY161999GA1071+014409059GA2081+033009049GF108991071051012501071999MD1210231+9999MW1601
0097999999999991973111906004+43600+135600FM-13+0000UVXE V0203301N01501007501CN0200001N9-00201+99999099741ADDAY111999GF105991051061008001001001MD1310111+9999MW1021SA1+0609REMSYN02305225 12802 GIAH  99123
0050722041999991973052408004+28100-080633SAO  +0010MLB  V0202301N003612200019N0112001N1+02111+01771999999ADDGF100991999999999999999999MA1101221999999MW1001
0114917880999991973020700004-21133-175183FM-12+000299999V0202701N00151036001CN0350001N9+02601+02401100841ADDAA199007091AY161999GA1041+004509089GA2081+999999049GF108991041021004501071999MD1810071+9999MW1601REMSYN00570769
0095122350999991973102318004+53700+017550FM-12+017299999V0200201N00101220001CN0100001N9+00101-00201102391ADDAA199000091AY111999GF100991001001999999001001KA1999M+00501MD1210251+9999MW1021REMSYN00570005
0057318950999991973121515004+45267+135500FM-12+033599999V0209991C00001220001CN0500001N9-02701-03001101851ADDAY101999GF100991001001999999001001MD1810061+9999MW1021
0069014940999991973121118504+59383+010783FM-15+0055ENRY V0202101N00561220001CN0112001N1+00301-00101999999ADDGA1011+013509059GA2031+024009039MA1099191999999EQDQ01+000000PRSWM2
0073614150999991973083009004+20933-017033FM-12+0005GQPP V0200201N00721003001CN0080001N9+02001+01901101291ADDAY121999GA1071+003009079GF107991071061002501001999MW1011REMSYN00587710
0077728710999991973032913004+53350-110833SAO  +0619YVG  V0201401N004612200019N0240001N1-00661-00881101651ADDGD12991+0270099GF102991999999999999999999MA1101351999999MW1001REMAWY003AC1
010472512504787197303082100D+41183-078900SAO  +0554DUJ  V0202401N00301013501EN0480001N1+01551+00271102271ADDAA101000095GD13991+0135099GF107991999999999999999999MA1102241999999MD1610071+9999MW1001REMAWY005/ 607
0059033790999991973061402004+53033-000483AERO +0067EGYD V0202701N00511220001CN0160001N9+00501+00301999999ADDAY101999GA1011+075009009GF101991999999999999999999MW1021
0086726480999991973123103004+45750-087050FM-12+018199999V0203001N00361220001CN0160001N9-01601-01701101981ADDAY101999GF100991001001999999001001MA1999999099571MD1110051+9999MW1021REMSYN00569957
0147644590999991973102915004+01617+018067FM-12+0335FZBN V0209991C00001220001CN9999999N9+03801+02901100561ADDAA106039091GA1021+007809089GA2031+090009009GF103991999051012501031021MD1510031+9999REMSYN01723967 82826 83080EQDQ01+000002SCOTLCQ02  03903PRCP99
0034417800999991973062120004+24900+067150FM-15+0030OPKC V0202401N00721007501CN0050001N1+02901+02401999999ADDGA1051+007509059MA1100101999999
0118722901999991973080506004+32817-117133FM-12+0129MYF  V0202201N00211002101CN0110001N9+01801+01501101581ADDAY111999GF108991081061002501999999KA1999M+02301KA2999N+01701MA1999999100091MD1110091+9999MW1021REMSYN011  009 47362
0057946530999991973052812004-32133+133700FM-12+0024AACD V0209999C00001036001CN0400001N9+01701+01101101541ADDAY121999GF107991071001999999031999MD1210051+9999MW1021
0114724088137071973082418004+39133-075467SAO  +0009KDOV V0200601N002512200019N0112001N1+02551+01331102131ADDGD12991+0360099GD22991+0750099GF102991999999999999999999MA1102131999999MD1610071+9999MW1001REMAWY011/ 607 1071%
0110725895942361973052416004+42150-121733SAO  +1247LMT  V0202001N005110600019N0400001N1+01221+00771100971ADDGD12991+0039099GD22991+0057099GD32991+0300099GD44991+0600099GF108991999999999999999999MA1101121999999MW1001
0080722676999991973112323004+34167-101717SAO  +1028PVW  V0202901N00411036001EN0240001N1+99999+99999999999ADDGD13991+0360099GD23991+0750099GF107991999999999999999999MA1101221999999MW1001
0067108640999991973070107524+48067+011633FM-15+0551EDSN V0200901N00361090001CN0112001N1+02001+00901999999ADDGA1051+999999009MA1102401999999REMMET005BLU&%EQDQ01+000000PRSWM2
0043999999999991973101818004+13600-017600FM-13+0000GNGA V0203201N00511220001CN0100001N9+02801+99999100841ADDAY101999GF102991001001999999001011MW1021
0106063100999991973081620004+51450+003600FM-12+0005EHFS V0200301N00211220001CN0040001N9+02201+99999101581ADDAY101999GA1011+060009009GF101991001001999999001011MD1310061+9999MW1051REMSYN00581070EQDQ01+027923ATOD  
0052071490999991973081519004+48733+002350FM-15+0089LFPO V0200601N00201999991CY0099001N1+02701+01401999999ADDMA1101491999999REMMET006NOSIG%EQDQ01+000000PRSWM2
0075104060999991973082110004+51833+006600AERO +002599999V0200401N00301018001CN0350001N9+01701+01001999999ADDAY121999GA1021+015009059GA2061+018009059GF107991999999999999999999MW1011
0075030520999991973042021004+57950-004417AERO +000799999V0203601N00151999999CN0100001N9+00401+00201999999ADDAY121999GA1021+008009059GA2061+999999029GF108991999999999999999999MW1011
0017071860340621973062621004+48767+007300FM-12+0377LFQP V0200701N002119999999N9999999N9+02101+01601101791ADDMD1210041+9999
0304726686240251973051418003+44383-100283SAO  +0528PIR  V0203205N005752200059N0640005N1+01505-00615103245ADDGD10995+9999999GD20995+9999999GD30995+9999999GF100005999999999999999999KA1999N-00121MA1103181096955MD1710121+9999MW1001REMAWY008/ 712 30EQDN01 00000JPWTH 1QNNE11 1 00099E11 1 00099E11 1 00099E11 1 00099G11U1 99999K11 1 00021L11 1 04000M11 1 28630N11 1 00000Q11 1 10324S11 1 00059V11 1 00000X11 1 32011
0095330360999991973091018004+52050+029250FM-12+018599999V0203001N00301220001CN0060001N9+01301+00801100651ADDAA199003091AY111999GF103991031001999999031001KA1999M+02101MD1210161+9999MW1011REMSYN00570321
0097729300999991973112208004+54133-115667SAO  +0741YZU  V0202901N00361006001MN0240001N1-01331-01661101411ADDGD14991+0060099GF108991999999999999999999MA1100851092291MW1001REMAWY004SC10EQDQ01+999990APOSP 
0057355760999991973120321004+48300+069650FM-12+036299999V0202001N00501007501CN0100001N9+00001+00001102181ADDAY151999GF108991081061008001999999MD1310051+9999MW1201
0083486940999991973010522004+01367+103917FM-15+0018WSSS V0203601N00251045001CN0100001N9+02501+02401999999ADDGA1011+003009089GA2061+045009039MA1100911999999REMMET005NOSIGEQDQ01+000000PRSWM2
0019072920999991973090417004+47783+006367FM-15+0278LFSX V0201601N00201999991CY0099001N1+99999+99999999999EQDQ01+000000PRSWM2
0057292090999991973052918004+57817+077217FM-12+010199999V0209991C00001220001CN0200001N9+00201-00101101491ADDAY101999GF104991021001999999031041MD1310081+9999MW1021
0019162390999991973050604504+41800+012600FM-15+0129LIRA V0209991C000019999999N0100001N9+01601+01001999999EQDQ01+000000PRSWM2
009972563024030197301110000D+41100-102983SAO  +1314SNY  V0202701N005612200019N0240001N9-01101-01701102571ADDAA101000095AA206000091GF102991999999999999999999MA1101801999999MD1210101+9999EQDQ01+000020PRSWM2
0052071900999991973112112304+48533+007633FM-15+0153LFST V0200201N00201220001CN0060001N1+00701+00201999999ADDMA1103391999999REMMET006NOSIG%EQDQ01+000000PRSWM2
009572546514950197310021600D+41100-092450SAO  +0258OTM  V0202601N00361000601WN0004001N1+01501+01501101751ADDAA101000095GD15991+0006099GF109991999999999999999999MA1101761999999MW1451REMAWY010VSBY S 1/2
0134724836232081973082423004+38667-121400SAO  +0023MCC  V0202101N004610750019N0240001N1+02771+01001999999ADDGD12991+0450099GD23991+0750099GF107991999999999999999999MA1101191999999MW1001REMAWY045MHR WK BEHGLWT XRTMTH        ?     OLAOVVVVMV
0194855580999991973072900004-33017-071650FM-12+0041SCVA V0200901N00211220001CN0200001N9+01301+01101101941ADDAA199000091AY111999GA1041+150009019GF104991001001999999001999KA1999M+01501MA1999999101341MD1310011+9999MW1011UA1M070059999UG1070050909REMSYN029  134 70015 84184 30701 09701EQDQ01+000002SCOHCG
0126981320999991973022300004+20800+121850FM-12+012399999V0209991C00001066001CN0200001N9+02401+02201101521ADDAA199000091AY141999GA1011+005409089GA2051+066009009GF199999011091008001071051MD1310151+9999MW1051REMSYN01770099 25005 50000
0043967450999991973060803004-06183+106833FM-12+000899999V0201201N00211045001CN0120001N9+02801+02401100871ADDAY121999GF107991011011008001071001MW1011
0088723106137441973062706004+34183-079717SAO  +0045FLO  V0200101N001512200019N0112001N1+02111+01941101351ADDGF100991999999999999999999MA1101321999999MD1810031+9999MW1001REMAWY015803 82?FLO?6/20
0076483030999991973042615004+19883+099833FM-12+0366VTCR V0209991C00001220001CN0010001N9+02601+02001100832ADDAY111999GF103991021091008001041031MW1131REMSYN005407**EQDQ01+100833APOSLP
0095476180999991973040500004+36250+137967FM-12+061099999V0202901N00151220001CN0120001N9+00401-00501101761ADDAA199999929AY111999GF102991021011999999001001KA1999N-00101MD1110081+9999MW1011REMSYN00511007
0113723105938331973060816004+33917-080800SAO  +0077MMT  V0200801N00251006601AN0160001N1+02831+02111999999ADDGD13991+0066099GD23991+0750099GF107991999999999999999999MA1102201999999MW1001REMAWY024CB W MOVG NE WND 060V160
0067160660999991973031409504+45617+008733FM-15+0234LIMC V0209991C00001007501CN0050001N9+00601-00101999999ADDGA1071+007509059MA1101081999999REMMET005NOSIGEQDQ01+000000PRSWM2
0377783840118131973120215005+99999+999999SAO  +999999999V0200605N006750061049N016000599+02615+02175102075ADDGA1999+006104094GA2999+082304004GA3999+999999999GA4999+999999999GD13065+9999999GD24025+9999999GD30005+9999999GD40005+9999999GF108075999999999999999999MA1999999102005EQDN01 00000JPWTH 1QNNE11 1 00408E11 1 00602E11 1 00000E11 1 00000G11 1 00020H11 1 18020H11 1 32270H11 1 00999H11 1 00999K11 1 00071L11 1 01000M11 1 30120N11 1 00000Q11 1 10207S11 1 00079V11 1 01009X11 1 06013
0050727855241141973040208004+47633-117650SAO  +0750SKA  V0202601N001012200019N0480001N1-00051-00271999999ADDGF100991999999999999999999MA1102681999999MW1001
0057242570999991973101415004+67117+126117FM-12+018499999V0200901N00701021001CN0080001N9-01001-01301099591ADDAY171999GF108991081001022501021999MD1710291+9999MW1711
0057293550999991973010621004+57450+088467FM-12+014099999V0202301N00301220001CN0240001N9-01801-02101102531ADDAY101999GF100991001001999999001001MD1210131+9999MW1021
0053166410999991973060304154+39600+019917FM-15+0002LGKR V0209991C00001060001CN0112001N1+01501+01401999999ADDGA1061+060009009MA1102001999999EQDQ01+000000PRSWM2
0043375660999991973100206004+41733+045817FM-12+041099999V0209991C00001007501CN9999999N9+01601+01301102381ADDGF108991081051008001999999MD1210141+9999
0361722225038551973030512003+30350-087317SAO  +0010NPA  V0201305N00315000304WN0002005N1+01785+01785101425ADDAA124035091GA1999+000304104GD15085+0003099GD20995+9999999GD30995+9999999GD40995+9999999GF108085999999999999999999MA1101391101325MD1010051+9999MW1455REMAWY025R06RVV3/8 005 20136 47061EQDN01 07000JPWTH 1QNNE11 1 00710E11 1 00099E11 1 00099E11 1 00099G11 1 00001H11 1 45001K11 1 00064L11 1 00012M11 1 29920N11 1 07000Q11 1 10142S11 1 00064V11 1 01010X11 1 13006
0043833190999991973060519004-14667-052333FM-12+0300SBXV V0201601N00511220001CN0200001N9+99999+99999999999ADDAY121999GF102991021011008001001001MW1021
0077077610999991973052608004+41917+008800FM-15+0005LFKJ V0202401N00201220001CN0040001N9+01801+99999999999ADDGA1011+000309079MA1101901999999REMMET015VISI  AUGMENTE?EQDQ01+000000PRSWM2
0043999999999991973061200004+36900-009100FM-13+0000PDTN V0203401N00361220001CN0100001N9+01701+99999101851ADDAY111999GF102991011021999999999999MW1011
0057407180999991973022809004+37467+049467FM-12-001599999V0209991C00001220001CN0005001N9+99999+99999101601ADDAY141999GF103991001001999999001081MD1810111+9999MW1461
0090152600999991973101807454+45800+024150FM-15+0445LRSB V0201601N00101012001CN0112001N1+01401+01401999999ADDGA1071+012009059REMMET043NOSIG      ?     QFE 964 6 MB QFE 723 5 MM%EQDQ01+000000PRSWM2
0131741870999991973081303004+49133-068200SAOSP+0022YBC  V0201001N003610024019N0048001N1+01551+01551100591ADDGD16991+0001599GD24991+0024099GF108991999999999999999999MA1100581100301MD1110091+9999MW1451REMAWY009F3SF7 109EQDQ01+999990APOSP 
0146220190999991973081406004+69067+033467FM-12+002099999V0202001N00601030001CN0400001N9+01001+00601101741ADDAA199000091AJ100009199999999AL10699999AY111999GF107991031091008001041001IA1089IA2999+00409KA1999N+00801MD1810141+9999MW1021REMSYN01170008 20410
012372488023185197306282000D+39500-119767SAO  +1344RNO  V0201501N002512200019N0640001N1+03331+00721100811ADDAA101000095GF100991999999999999999999MA1101461086331MW1001REMAWY034CU ALQDS PEAVINE 65/M/2727?RNO?6/1EQDQ01+999990APOSP 
0383999999931141973120518005+33700-117833SAO  +001999999V02099959000052200059N004800599+01334+00675101884ADDGA1999+999999104GA2999+030484044GA3999+999999999GA4999+999999999GD16025+9999999GD22015+9999999GD30005+9999999GD40005+9999999GF103035999999999999999999MA1999999101664MW1055EQDN01 08100JPWTH 1QNNE11 1 00803E11 1 00201E11 1 00000E11 1 00000G11U1 99999H11 1 98999H11 1 21100H11 1 00999H11 1 00999K11 1 00044L11 1 00300M11 1 30020N11 1 08100Q11 1 10188S11 1 00056V11 1 00404X11 1 00000
0082345190999991973110900004+48067+037767FM-12+024499999V0202701N00401220001CN0100001N9-00201-00301102481ADDAA199000091AY101999GF100991001001999999001001MD1210101+9999MW1021REMSYN005700//
005894387099999197301100200N-24870+152350AUST +0014     V0203605N002659999999N999999999+02985+99999999999ADDAY124999GF108995999999999999999999MA1999999100915MW1035
0106725060999991973090508004+41650-070517SAO  +0040FMH  V0200401N00201000301WN0002001N1+02001+01941999999ADDGD15991+0003019GF109991999999999999999999MA1101801999999MW1451REMAWY0321MR05VRNO/R05VRNO/INTMT L-/MAG06
0076306200999991973112415004+53100+106817FM-12+046499999V0203601N005019999999N0200001N9-00901-01501102541ADDAY101999GF100991001001999999001001MD1810241+9999MW1021EQDQ01+000082SCOTCV
0037101260999991973091520444+53550+007667FM-15+0008EDNT V0200701N00201220001CN0040001N1+01101+01001999999ADDMA1101901999999EQDQ01+000000PRSWM2
0120374830999991973090803004+41900+041983FM-12+015899999V0200901N00101012001CN0200001N9+01701+01601101621ADDAA199000091AY121999GF108991999051012501011011KA1999M+01701MD1710061+9999MW1021REMSYN01170017 95380EQDQ01+000082SCOTLC
0110999999999991973092112004+13500-081600FM-13+0000JNOQ V0200501N00411220001CN0200001N9+02881+02401101381ADDAY101999GF103991021011004501001081MD1210161+9999MW1021SA1+2899UA1M020059999REMSYN0230//24 12898 30201 /////
0057309690999991973050906004+49733+117433FM-12+073699999V0203601N00501007501CN0500001N9+01101-00501101051ADDAY121999GF106991061021008001001001MD1810091+9999MW1021
0067722146128161973101002004+29683-082267SAO  +0047GNV  V0200501N004112200019N0112001N1+02271+02051101691ADDGF100991999999999999999999MA1101691999999MW1001REMAWY008?GNV?9/5
0098724286938241973102112004+39950-081900SAO  +0274ZZV  V0203301N001512200019N0001001N1+00111+00051102481ADDGD16991+0001599GF110991999999999999999999MA1102441999999MD1310141+9999MW1451REMAWY010F7/ 314 34
0253722435129181973062310003+29650-095283SAO  +0016HOU  V02099959000050762049N0224005N1+02395+02065999999ADDGD12995+0240099GD24995+0750099GD30995+9999999GD40995+9999999GF108075999999999999999999MA1101901999999MW1001EQDN01 00000JPWTH 1QNNE11 1 00299E11 1 00699E11 1 00099E11 1 00099G11 1 00250K11 1 00069L11 1 01400N11 1 00000S11 1 00075V11 1 01009X11 1 00000
0065727415999991973041323004+45633-089467SAO  +0490RHI  V0202201N005112200019N0112001N1+00721-00831999999ADDGD12991+0750093GF102991999999999999999999MA1102271999999MW1001
0070623180999991973020822004+31167+029950FM-15+0003HEAX V0203601N00251007501CN0100001N9+01401+00901999999ADDGA1041+006009089GA2031+007509059MA1102201999999MW1001REMMET005NOSIG
0057321560999991973121606004+46633+142783FM-12+003499999V0202301N00701220001CN0500001N9-00201-00701099961ADDAY181999GF103991031011008001001001MD1710081+9999MW1021
0086402300999991973053115004+32550+035850FM-12+061899999V0203201N01031220001CN0200001N9+02101+00801101231ADDAY101999GF101991011011008001001001MA1999999094211MD1310111+9999MW1011REMSYN00569421
0092171840999991973112716004+38917+027850AERO +0093LTBB V0201801N00661012001CN0300001N9+01801+00901999999ADDAY121999GA1051+012009059GA2071+030009039GF107991999999999999999999MW1031REMSYN0081014% 48
0309727455949311973051003003+47383-092850SAO  +0411HIB  V0201305N00315000914MN0032005N1+00725+00675100045ADDGD13995+0009099GD24995+0015099GD30995+9999999GD40995+9999999GF108085999999999999999999MA1100001095195MD1210071+9999MW1455MW2615REMAWY005/ 207EQDN01 02070JPWTH 1QNNE11 1 00499E11 1 00699E11 1 00099E11 1 00099G11 1 00003K11 1 00044L11 1 00200M11 1 28110N11 1 02070Q11 1 10004S11 1 00045V11 1 01010X11 1 13006
0057085450999991973031815004+41233-008667SY-MT+0076LPPR V0202501N00511220001CN0150001N9+01601+00201101871ADDAY101999GF100991001001999999001001MD1710161+9999MW1021
0222729130999991973070412004+58750-094067SY-SA+0029YYQ  V0203401N00511000901BN0096001N1+00161+00161100941ADDAA106001091AJ100009199999999AL10699999AY151999GD14991+0009099GF108991081071000751999999KA1999M+00201KA2999N+00101MA1100911100501MD1210131+9999MW1451MW2611REMSYN023  050 70480 20011 43  4AWY008SF10 213EQDQ01  00103PRCP99
0056478530999991973031309004+33833+130950FM-15+0003RJFR V0200401N00301220001CN0100001N9+01001+00001999999ADDGA1031+012009089REMMET0091018/3007EQDQ01+000000PRSWM2
0043653440999991973012100004+06350+002383FM-12+0005DDDD V0202801N00101105001CN0100001N9+02501+02401101061ADDAY121999GF107991001001999999001081MW1021
0043836120999991973012506004-20467-054667FM-12+0559SBCG V0203601N00411007501CN0200001N9+02101+02001101211ADDAY121999GF106991061051008001031001MW1021
0100320760999991973052221004+50383+143750FM-12+000699999V0209991C00001220001CN0200001N9+00001-00201101911ADDAA199000091AY101999GF100991001001999999001001KA1999M+99999MD1310051+9999MW1021EQDQ01 -00402ATMX  
0054160700999991973091605004+45950+009383FM-15+2403LIMD V0209991C00001220001CN0112001N1+99999+99999999999ADDGA1011+015009039GA2031+054009009EQDQ01+000000PRSWM2
0109724386148351973060517004+40417-086933SAO  +0184LAF  V0202301N00611006301EN0240001N1+99999+99999101431ADDGD13991+0063099GD24991+0360099GF108991999999999999999999MA1101461999999MW1001REMAWY020OCNL BINOVC?LAF?5/11
0118726130999991973060400004+44267-071300FM-12+1909MWN  V0202801N01701220001CN0750001N9+00401-00101999999ADDAY101999GF102991001001999999001081KA1999M+00501KA2999N-00401MA1999999080981MD1710011+9999MW1021REMSYN01168098 44123
0088742060242071973102512524+47150-122483SAOSP+0098TCM  V0201901N001510150019N0240001N1+99999+99999999999ADDGD12991+0099099GD24991+0150099GF108991999999999999999999MA1102171999999REMAWY005MAG17
0065727937999991973101116104+47917-122350SAOSP+0184PAE  V0201601N00251000901WN0016001N1+99999+99999999999ADDGD15991+0009099GF109991999999999999999999MA1101521999999MW1451
0076724916932171973121501164+36683-121767SAOSP+0041OAR  V0202701N00201000301WN0004001N1+99999+99999999999ADDED129U03049GD15991+0003099GF109991999999999999999999MA1102101999999MW1451
0019063440999991973052602254+51967+004450FM-15+0005EHRD V0200801N001519999999N0080001N9+00901+00801999999EQDQ01+000000PRSWM2
007172408594732197301210400D+40083-075017SAO  +0037PNE  V0203301N005112200019N0240001N1-00161-00941999999ADDAA101000095GF100991999999999999999999MW1001OC101021REMAWY008?PNE?1/6
0047483575999991973030622004+17383+104650FM-15+0176VTUW V0201701N002019999999N0100001N9+02101+01801999999ADDMA1101191999999REMMET001SEQDQ01+000000PRSWM2
0076375630999991973031606004+41950+045800FM-12+044999999V0203201N00301012001CN0500001N9+01001+00501096742ADDAY111999GF108991081051012501999999MD1210021+9999MW1031EQDQ01+096743APOSLP
0505724920232371973100718003+37900-121250SY-SA+0007SCK  V0201505N006250024449N0064005N1+01225+01225101355ADDAA106014091AA224027091AJ100009199999999AY161999GA1999+999999104GA2999+002444074GA3999+012194064GD16025+0001599GD23055+0024099GD34025+0120099GD40995+9999999GF108085081071002501999999KA1999M+01601KA2999N+01201MA1101351101255MD1110071+9999MW1455MW2615REMSYN023  125 75670 20106 46153AWY002F2EQDQ01  01403PRCP99N01 02070JPWTH 1QNNE11 1 00802E11 1 00406E11 1 00602E11 1 00099G11 1 00008H11 1 45999H11 1 16008H11 1 15040K11 1 00054L11 1 00400M11 1 29900N11 1 02070Q11 1 10135S11 1 00054V11 1 01010X11 1 15012
0115727110999991973081216004+48000-066333SAO  +0038YCL  V0202801N00151007501EN0096001N1+02501+01831100291ADDGD13991+0075099GD23991+0270099GF107991999999999999999999MA1100311099841MW1051REMAWY007TCU6AC1EQDQ01+999990APOSP 
0156859310999991973042300004+99999+000000FM-12+999999999V0209991C00001220001CN0200001N9+00501+00301102201ADDAA106000091AY111999GA1031+006009049GF103991031051008001001001KA1999M+00801MA1999999102141MD1310151+9999MW1031UA1M050059999UG1050053209EQDQ01  00003PRCP99
0080724956232111973111216314+38067-122500SAOSP+0001SRF  V0202201N003012200019N0240001N1+99999+99999999999ADDGD12991+0057099GD22991+0300099GF102991999999999999999999MA1101761999999MW1001
031772265023023197306220100C+31950-102183SAO  +0872MAF  V0200905N009352200059N0320005N1+02835+00065101995ADDAA101000095GD14995+0900093GD20995+9999999GD30995+9999999GD40995+9999999GF108005999999999999999999MA1102401092255MW1001REMAWY006FEW CUEQDQ01+999990APOSP N01 00000JPWTH 1QNNE11 1 00599E11 1 00099E11 1 00099E11 1 00099G11U1 99999K11 1 00033L11 1 02000M11 1 27240N11 1 00000Q11 1 10199S11 1 00083V11 1 01000X11 1 09018
0108999999999991973060212004-24500+132800FM-13+0000ZMRA V0200701N00461009001CN0500001N9+02401+02301101801ADDAY101999GF107991071081004501999999MD1210121+9999MW1031UA1M100109999UG1100201209REMSYN01705323 31002 12004
013672351013966197308090300D+33983-098517SAO  +0309SPS  V0201401N004112200019N0160001N1+02661+02051101221ADDAA101000095GF100991999999999999001001MA1101351097691MD1310121+9999MW1001REMAWY033CB FQT LTNG 125N-118NNE/ 312 1300EQDQ01    033SCOLCG
0103162400999991973052612004+41483+012467FM-12+003899999V0201901N00361220001CN0120001N9+02701+01001101791ADDAA106000091AY101999GA1011+008109089GF102991011011008001001011MD1210011+9999MW1021EQDQ01  00003PRCP99
0128999999999991973052800004+41000-066500FM-13+0000NRXD V0200101N00211036001CN0200001N9+01201+01001101921ADDAY121999GF107991071001999999031001MD1210051+9999MW1011SA1+0849UA1M030059999UG1060050709REMSYN02907310 0//10 10840 30301 07601
0056478550999991973012021004+32917+129933FM-15+0005RJFU V0201601N00101220001CN0100001N9+00001-00201999999ADDGA1021+075009009REMMET0091022/3018EQDQ01+000000PRSWM2
0043421890999991973092300004+28367+079400FM-12+017299999V0209991C00001220001CN0040001N9+02501+02401100471ADDAY101999GF103991021011012501031001MW1021
0043946890999991973072620004-31967+141450FM-12+030499999V0201801N00261220001CN0500001N9+00601+00501102651ADDAY101999GF100991001001999999001001MW1021
0065075580999991973032908004+44117+003017FM-15+071599999V0200201N00921015001CN0070001N9+99999+99999999999ADDGA1051+015009059REMMET0184     AC073?STALIBEQDQ01+000000PRSWM2
0082620550999991973120212004+30750+020217FM-12+000599999V0202001N00261220001CN0080001N9+02001+00501101921ADDAA199000091AY101999GF100991001001999999001001MD1810181+9999MW1021REMSYN005700//
0095479180999991973062012004+24333+124167FM-12+000699999V0201601N004119999999N0100001N9+02801+02601100441ADDAA199000091AY121999GF106991061021999999001001KA1999M+03101MD1110121+9999MW1021REMSYN00570031
031972422093820197306261000C+38033-084600SAO  +0299LEX  V0201605N002652200059N0128005N1+01945+01615101365ADDAA101000095GD12995+0360099GD22995+0750099GD30995+9999999GD40995+9999999GF103025999999999999999999MA1101461097905MW1001REMAWY008?LEX?6/8EQDQ01+999990APOSP N01 00000JPWTH 1QNNE11 1 00299E11 1 00299E11 1 00099E11 1 00099G11U1 99999K11 1 00061L11 1 00800M11 1 28910N11 1 00000Q11 1 10136S11 1 00067V11 1 00403X11 1 16005
0429914080403091973090300003+07333+134483SY-SA+0027PTRO V0201205N00465091444CN0224005N9+03065+02445101295ADDGA1021+005494084GA2999+091444004GA3999+999999999GA4999+999999999GD12025+9999999GD23025+9999999GD30005+9999999GD40005+9999999GF105035021021004501001991MA1999999100915MD1210151+9999MW1021REMSYN023  091 7//20 82818 20061EQDN01 00000JPWTH 1QNNE11 1 00203E11 1 00403E11 1 00000E11 1 00000G11 1 00300H11 1 11018H11 1 32300H11 1 00999H11 1 00999K11 1 00076L11 1 01400M11 1 29800N11 1 00000Q11 1 10129S11 1 00087V11 1 00604X11 1 12009
0131063750999991973102008004+51667+005717FM-12+0022EHVK V0209991V00101003601CN0012001N9+00801+00801101521ADDAY161999GA1021+002709079GA2051+003609059GA3081+012009059GF108991081051002501999999MD1310121+9999MW1611REMSYN01782709 85  2 88640
0068161290999991973063006504+44033+009833FM-15+0190LIQP V0209991C00001220001CN0070001N1+99999+99999999999ADDGA1041+069009009REMMET021QUK 1 QUL 0 VIS MAR -EQDQ01+000000PRSWM2
0057307770999991973090606004+52250+117700FM-12+046599999V0203601N00501220001CN0500001N9+01701+00601101981ADDAY101999GF102991021011012501001001MD1210021+9999MW1021
0137729240999991973011703004+74717-094967SAO  +0067YRB  V0203001N008710210019N0048001N1-03881-04331099871ADDGD16991+0001599GD23991+0210099GF107991999999999999999999MA1099701098981MD1010021+9999MW1451MW2761REMAWY009F1AC5 002EQDQ01+999990APOSP 
0108517090999991973101206004+39550+076017FM-12+129799999V0200401N00201220001CN0030001N9+01401-00101103011ADDAA199000091AY101999GF100991001001999999001001KA1999N+00701MA1999999088381MW1061REMSYN01768838 /0007 00051
040272323003856197305030900C+34650-086767SAO  +0190HSV  V0202405N003150121949N0160005N1+01835+01675101755ADDAA101000095AA206000291GA1999+006714064GA2999+012194064GD12025+0066099GD24065+0120099GD30995+9999999GD40995+9999999GF108085999051999999999999MA1101801099465MD1610101+9999MW1001REMAWY012/   001 15//EQDQ01  00023PRCP99N01 00000JPWTH 1QNNE11 1 00203E11 1 00607E11 1 00099E11 1 00099G11 1 00040H11 1 15022H11 1 15040K11 1 00062L11 1 01000M11 1 29370N11 1 00000Q11 1 10175S11 1 00065V11 1 01010X11 1 24006
0057369380999991973120706004+42183+077583FM-12+169099999V0201401N00101220001CN0200001N9+00501-00301999999ADDAY101999GF101991999999999999999999MD1310021+9999MW1021
0096723408138141973092801004+35967-089867SAO  +0077BYH  V0200601N001010240019N0320001N1+02221+02051999999ADDGD12991+0105099GD23991+0240099GF107991999999999999999999MA1101901999999MW1001REMAWY007WET RWY
0110109080999991973090412004+47867+008000FM-12+148699999V0202301N00311220001CN0750001N9+02001+00701999999ADDAA199000091AY101999GA1011+003009089GF101991011011004501001001MD1210021+9999MW1031REMSYN017700// 81810 96410
0057101620999991973011608004+53633+011417FM-12+005999999V0201301N00201001201CN0011001N9+00101+00001100741ADDAY121999GF108991071071001501999999MD1310041+9999MW1611
0114728500999991973120521004+49800-094367SAO  +0411YQK  V0203501N004112200019N0240001N1-01501-02221102151ADDGD13991+0660093GF107991999999999999999999MA1101691096851MD1610021+9999MW1001REMAWY007CI1 602EQDQ01+999990APOSP 
0095380810999991973062903004+44783+069167FM-12+019099999V0201101N00501220001CN0500001N9+02601+00801100851ADDAA199000091AY101999GF100991001001999999001001KA1999N+01901MD1710031+9999MW1021REMSYN00570019
0059033150999991973110312004+53550-003100AERO +001299999V0201301N00661006001CN0050001N9+99999+99999999999ADDAY111999GA1051+006009089GF105991999999999999999999MW1101
0077270370999991973120203004+59283+039867FM-12+011699999V0203601N00201030001CN0090001N9-02301-02501101941ADDAY121999GF108991081001999999031001MD1710101+9999MW1101REMSYN01192400 90206
0089038170999991973092205004+50450-005000FM-12+0119EGDG V0203201N00771008401CN0300001N9+01101+00701100961ADDAY121999GA1021+005409089GA2041+008409059GF105991051081004501001001MD1710111+9999MW1251
0077722517129321973022507004+27733-098033SAO  -0054ALI  V0209991C000012200019N0016001N1+00941+00941102091ADDGF100991999999999999999999MA1102101999999MW1111REMAWY018VSBY NW1/2?ALI?2/2
0084600150999991973072101004+28467-016333FM-15+0630GCXO V0203401N00921002701CN0112001N1+01501+01301999999ADDGA1031+001509059GA2041+002709089MA1101801999999REMMET006NOSIG%EQDQ01+000000PRSWM2
0065165640999991973022620004+39100+009517FM-15+0116LIEC V0200401N00871027001CN0100001N9+99999+99999999999ADDGA1041+006009089GA2041+027009039MW1601REMMET015QUK   /     QUL
009174754013934197306060100D+31317-092550SAO  +0027KAEX V0202101N00101018001EN0112001N1+02111+01941999999ADDAA101000095GD13991+0180099GD24991+0300099GF108991999999999999999999MA1101831999999MW1001
0100478720999991973061001004+28417+129700FM-15+0023RJKA V0200801N00721220001CN0112001N1+02501+01901999999ADDGA1021+006009089GA2031+039009039MA1101191999999REMMET0222989WIND DIRECTION VRBEQDQ01+000000PRSWM2
0037375660999991973080221004+41733+045817FM-12+041099999V0200901N00101220001CN0200001N9+02401+99999100821ADDAY111999GF100991999001999999001999
0084408480999991973033003004+29533+052583FM-12+1497OIAS V0209991C00001220001CN0100001N9+00301-00501999999ADDAY101999GF100991001001999999001001KA1999N+00201MD1310111+9999MW1021REMSYN00578802
0043032700999991973112603004+54600-001167AERO +000599999V0202701N00771220001CN0220001N9+00101-00301999999ADDAY101999GF100991999999999999999999MW1021
0057083140999991973071821004+39867+004217FM-12+0091LEMH V0200901N00411220001CN0200001N9+02301+02001101811ADDAY101999GF104991041081008001001001MD1210111+9999MW1031
0091722436129061973042508004+29617-095167SAO  +0012EFD  V0209991C000012200019N0004001N1+02221+02051999999ADDGD16991+0001599GD22991+0096099GF102991999999999999999999MA1100371999999MW1451REMAWY002F3
0132766011999991973121309004+20683-105250SAO  +0002PVR  V0209991C000012200019N0192001N1+01601+01401101441ADDAA106023091GD12991+0420099GF102991999999999999999999MA1106401999999MD1010301+9999MW1001REMAWY014BMSO/978/03090EQDQ01  02303PRCP99
0095727435999991973050119004+46350-087400SAO  +0375SAW  V0200201N00561000901MN0024001N1+00381+00221999999ADDGD14991+0009099GF108991999999999999999999MA1100371999999MW1451MW2611REMAWY015F BNK N WET RWY
0073727435999991973101622004+46350-087400SAO  +0375SAW  V0203201N00661012001EN0320001N1+00441-00381999999ADDGD13991+0120099GF107991999999999999999999MA1101491999999MW1001OC100921
0077476290999991973010806004+36383+140467FM-12+002999999V0203601N000519999999N0400001N9+01001+00701100331ADDAY161999GF107991071081999999999999MD1510021+9999MW1021REMSYN01113001 49569
0043160760999991973123014004+45667+009700FM-15+0241LIME V0209991C000019999999N0000001N1-00101-00101999999ADDMA1102811999999MW1441EQDQ01+000452PRSWM2
0057238060999991973071621004+61633+054883FM-12+013899999V0203601N00601004201CN0500001N9+01201+00901100581ADDAY181999GF108991081091004501999999MD1110021+9999MW1801
0057318780999991973031303004+45083+133500FM-12+009799999V0202701N00301090001CN0200001N9-00801-01501101861ADDAY171999GF108991001001999999001071MD1110041+9999MW1221
0122999999999991973100512004+14600+133100FM-13+0000JNRI V0201301N01291002101CN0020001N9+02551+02501100451ADDAY161999GF108991081071002501999999MD1210201+9999MW1251SA1+2909UA1M030309999UG1060401509REMSYN0230//25 12905 30306 15608
0090063700999991973013008294+51450+005383FM-15+0022EHEH V0202401N00561002101CN0025001N9+00701+00601999999ADDGA1031+001509079GA2061+002109079GA3081+004509059MA1101491999999MW1201REMMET009YLO   YLO
0067433690999991973050512004+08300+073000FM-12+000199999V0203201N00251045001CN0100001N9+03101+02501100741ADDAA199000091AY111999GF107991021041008001081061KA1999M+03301MW1021
0087724456139971973082114004+38133-091767SAO  +0350VIH  V0201201N004112200019N0112001N1+02001+01551101931ADDGD12991+0750093GF102991999999999999999999MA1102341999999MW1001REMAWY013?VIIH?7/8 8/4
0052071500999991973051005004+48967+002450FM-15+0066LFPB V0202601N00301009001CN0100001N9+01001+00801999999ADDGA1071+009009059REMMET005NOSIGEQDQ01+000000PRSWM2
0095114480999991973060518004+49667+013283FM-12+036499999V0200501N00501220001CN0048001N9+02001+01201102501ADDAA199000091AY111999GF105991001001999999001081KA1999M+02601MD1210071+9999MW1101REMSYN00570026
0080722786231041973041312004+33317-111650SAO  +0422IWA  V0201001N003012200019N0640001N1+01161+00161101091ADDGF100991999999999999999999MA1101251999999MD1410001+9999MW1001REMAWY007/ 400//
0098106420999991973090311004+50167+008967FM-15+0113EDID V0209991V005112200019N0112001N1+02501+01301999999ADDGA1011+009009089GA2011+036009039GA3041+066009009MA1102071999999MW1001REMMET017CIGNO WND 190V300
0050722665139101973012705004+32433-099850SAO  +0546DYS  V0201601N006112200019N0240001N1+00721+00111999999ADDGF100991999999999999999999MA1100711999999MW1001
0080722687930331973082019004+32333-104267SAO  +1029CNM  V0201301N00511018001EN0560001N1+03221+01501101771ADDGD13991+0180099GD24991+0750099GF108991999999999999999999MA1102371999999MW1001
0117101470999991973112506004+53633+010000FM-12+0016EDDH V0202801N00771220001CN0200001N9+00101-00101100851ADDAA199003091AY181999GA1041+007509059GF104991041051008001001011KA1999N+00001MD1210241+9999MW1011REMSYN01170300 84  5
0063034990999991973050618004+52717+002300AERO +000599999V0202001N011319999999N0100001N9+99999+99999999999ADDAY121999GF107991999999999999999999MW1021REMSYN01140908 12054
0073700637274061973063004004+70200-148467SAO  +0015SCC  V0200801N01021001201WN0012001N1+99999+99999999999ADDGD15991+0012099GF109991999999999999999999MA1101351999999MW1451OC101281
0137101310999991973121212004+53867+008717FM-12+000599999V0202401N00361009601CN0060001N9+00301+00101101681ADDAA106000091AA299000291AY181999GA1031+001809079GA2051+009609059GF107991051081001501041011MD1810041+9999MW1101REMSYN017792// 83706 85  2
0126999999999991973051921004+44200-041700FM-13+0000SHIP V0200601N01291004501CN0100001N9+01121+00901101621ADDAY161999GA1071+004509059GF107991071051004501999999MD1210061+9999MW1211SA1+1489UA1M050209999REMSYN02387615 0//09 11482 30504
0098723066137131973080613004+35333-077967SAO  +0033GSB  V0201001N002010300019N0032001N1+02501+02271999999ADDGD16991+0001599GD23991+0300099GF107991999999999999999999MA1102031999999MW1051MW2451REMAWY003FH2
0065724490139931973092207004+39767-094917SAO  +0252STJ  V0209991C00001018001EN0160001N1+01881+01551999999ADDGD14991+0180099GF108991999999999999999999MA1101521999999MW1001
0113727145999991973112721004+46350-072683SAO  +0067YRQ  V0200801N004610045019N0064001N1-00161-00271101521ADDGD12991+0036099GD24991+0045099GF108991999999999999999999MA1101461999999MD1610161+9999MW1561REMAWY010SF3SC7 616
0059033550999991973120702004+53833-001200AERO +0008EGXG V0202401N00301009001CN0300001N9+00201-00101999999ADDAY121999GA1071+009009059GF107991999999999999999999MW1031
012772223013894197302050800C+30683-088250SAO  +0064MOB  V0202405N002652200059N0240001N1+00945+00881102341ADDAA101000095GF100995999999999999999999MA1102341101531MW1001EQDQ01+999990APOSP QNNG11U1 99999S11 1 00049V11 1 00099X11 1 24005
0292727676240131973071713003+48267-101283SAO  +0527MOT  V0202805N00415027434EN0320005N1+01505+00675101305ADDGD13995+0270099GD24995+0750099GD30995+9999999GD40995+9999999GF108075999999999999999999MA1101351095235MW1001REMAWY008?MOT?7/5EQDN01 00000JPWTH 1QNNE11 1 00499E11 1 00699E11 1 00099E11 1 00099G11 1 00090K11 1 00044L11 1 02000M11 1 28120N11 1 00000Q11 1 10130S11 1 00059V11 1 01009X11 1 28008
0135031710999991973021312004+56367-002867FM-12+0012EGQL V0202701N00821060001CN0400001N9+00101-00301097491ADDAA106000091AY121999GA1011+004509089GA2041+030009039GA3061+060009009GF107991011081008001071021MD1110121+9999MW1021EQDQ01  00003PRCP99
0057383670999991973050521004+41050+052933FM-12+002399999V0203401N00101220001CN0200001N9+01301+01101101921ADDAY101999GF100991001001999999001001MD1210021+9999MW1021
0043109210999991973011916524+47983+008900FM-15+0807EDPH V0200901N002019999999N0005001N1+00101-00301999999ADDMA1101021999999MW1461EQDQ01+000472PRSWM2
0117227980999991973080118004+62167+049083FM-12+007099999V0203601N00201014401CN0500001N9+01201+00701101221ADDAA199000091AY121999GA1081+014409059GF108991081051012501999999KA1999M+01501MD1210111+9999MW1021REMSYN01170015 88648
0084226560999991973020500004+63467+041767FM-12+002699999V0202301N00301003901CN0050001N9-00801-00901100711ADDAA199001091AY181999GA1081+003909099GF108991081091004501999999MD1110021+9999MW1851
0097726275999991973031922244+45517-073417SAOSP+0027YHU  V0203301N005610075019N0032001N1+99999+99999999999ADDGD16991+0001599GD23991+0075099GD33991+0240099GF107991999999999999999999MW1851REMAWY008S1SC5AC3
0033076600999991973100219004+43100+005933FM-15+002899999V0201001N01541004501CN0050001N1+99999+99999999999ADDGA1081+004509099MW1951OC102211
0071517010999991973011221004+40450+075383FM-12+365199999V0203601N00101220001CN0600001N9-02001-02401999999ADDAY101999GF100991001001999999001001MD1710021+9999MW1021REMSYN00505251
0070476710999991973082420004+35550+139767FM-15+0002RJTT V0201801N00511002101CN0070001N1+02501+02301999999ADDGA1061+002109089GA2081+015009059MA1101291999999MW1801REMMET0052992%
0050724585939971973041902004+38867-098817SAO  +0568RSL  V0201501N009212200019N0240001N1+01661+01221099841ADDGF100991999999999999999999MA1099901999999MW1001
0132415320999991973030503004+34650+072033FM-12+066799999V0203601N00261036001CN0100001N9+01201+00702104482ADDAA124000091AY121999GF108991081001999999071001KA1999N-00601MW1031REMSYN00570011EQDQ01+028023ATOD  Q02+104483APOSLPQ03  00003PRCP99
0122999999999991973092200004+03800+150900FM-13+0000VJJY V0200601N00261045001CN0500001N9+02911+02401101111ADDAY111999GF106991031021004501021031MD1010031+9999MW1031SA1+2909UA1M010009999UG1050101209REMSYN0230//24 12901 30100 12502
0116725540149491973021419004+41117-095900SAO  +0319OFF  V0203301N007710120019N0096001N1-01051-01551999999ADDGD12991+0090099GD24991+0120099GF108991999999999999999999MA1102171999999MW1381MW2711OC101081REMAWY013RCDU110/IR24P
0065723155999991973041920004+35900-082817SAO  +0451HSS  V02099999999990150019N0224001N1+02001+01501999999ADDGD12991+0045099GD24991+0150099GF108991999999999999999999MW1001
0119081600999991973050200004+41667-001017SY-MT+0260LEZG V0201301N00101021001CN0250001N9+01401+01201101091ADDAA106003091AY121999GA1011+012009059GA2051+021009039GF107991021051012501041001MD1710011+9999MW1031EQDQ01  00303PRCP99
0165727310999991973092406004+46367-079417SY-SA+0371YYB  V0200401N003012200019N0240001N1+00501+00381102571ADDAY111999GD12991+0075099GF101991011051008001001001KA1999M+00801KA2999N+00301MA1102441098061MD1310011+9999MW1011REMSYN01169806 44738AWY007SC1 301EQDQ01+000003PRSWM2
0117999999999991973060312004+26800-089100FM-13+0000KKJA V0201401N00621220001CN0200001N9+02601+02301101401ADDAY101999GF103991031031000251001001MD1410001+9999MW1021UA1M050059999UG1100252209WA1977039REMSYN0170//23 26773 30501
0080724096147061973060222004+40017-074600SAO  +0041WRI  V0201801N004112200019N0144001N1+02161+01381999999ADDGD12991+0120099GD22991+0300099GF102991999999999999999999MA1101801999999MW1001
0077830960999991973120403004-10917-037050FM-12+0006SBAR V0201201N00261220001CN0200001N9+02601+02301101161ADDAY111999GF102991021011008001001001MA1999999101091MW1011EQDQ01+999990APOSP 
0118233050999991973070718004+66200+052617FM-12+002299999V0200201N00901007801CN0500001N9+00601+00001102481ADDAA199999929AY121999GA1071+007809099GF107991071031008001001001KA1999M+01101MD1110051+9999MW1021REMSYN01279711 87926^
0103871550999991973031321004-27450-059050SY-MT+0053SARE V0200501N00101220001CN0250001N9+03201+02001100801ADDAY101999GA1011+007509059GA2021+060009009GF103991011041008001001021MD1610071+9999MW1021REMSYN00510084
0057588200999991973060309004+26250+117600FM-12+019899999V0200201N00301004201CN0080001N9+02001+01901099861ADDAY161999GF108991081071004501999999MD1610081+9999MW1601
0043476240999991973083110004+36400+139067FM-12+011299999V0201101N003619999999N0100001N9+02601+02101101571ADDAY121999GF108991081021999999999999MW1021
0068917760999991973050706004-15950-173767FM-12+000299999V0200901N00361007501CN0200001N9+02701+02401101141ADDAA199000091AY121999GF105991051021008001999999MW1021REMSYN0057002*
0050727825999991973022114004+47400-120200SAO  +0379EAT  V0209991C000012200019N0240001N1-00221-00381103411ADDGF100991999999999999999999MA1103291999999MW1001
0141728020999991973123121004+46883-055417SAO  +0034WDS  V0202701N01541004501EN0192001N1-00051-00271101621ADDGD13991+0045099GD23991+0900099GF107991999999999999999999MA1101591101181MD1110251+9999MW1001REMAWY019SC7CI2 CU ASCTD 125EQDQ01+999990APOSP 
0081653190999991973080618004+10317+001383FM-12+046199999V0202801N00101004201CN0150001N9+02501+02201101031ADDAA199002091AY161999GF107991061051004501041999KA1999M+02801MW1031REMSYN00570228
0109718160999991973072020004+53317-060417SAO  +0047YYR  V0200601N00461012001MN0320001N1+01881+01161100831ADDGD13991+0120099GD23991+0450099GF107991999999999999999999MA1100811999999MW1001REMAWY020SC7AS2 SHWRS NW QUAD
0082100150999991973102812004+54183+007900FM-12+000499999V0201801N00461220001CN0030001N9+00801+00501102131ADDAA199000091AY111999GF100991001001999999001001MD1810121+9999MW1101REMSYN005700//
0084741030999991973041611004+53033-122517SAO  +0545YQZ  V0201201N00201002701MN0096001N1+00161+00111100281ADDGD14991+0027099GF108991999999999999999999MA1100101999999MW1451MW2611REMAWY004SC10
0095152300999991973121418004+45883+022900FM-12+0192LRDV V0202901N00201036001CN0080001N9+00201-00301100261ADDAA199000391AY171999GF107991071001999999051001KA1999M+00601MD1210051+9999MW1101REMSYN00579306
0079470660999991973070901004+37950+128317FM-15+9999RKNK V0209991C00001009001CN0112001N1+02601+02201999999ADDGA1071+009009059MA1101021999999REMMET017CIG030/QFF1008PT8EQDQ01+000000PRSWM2
0134724230938211973071910214+38183-085733SAOSP+0152SDF  V0209991C000010750019N0048001N1+99999+99999999999ADDGD12991+0045099GD24991+0750099GF108991999999999999999999MA1101861100091MW1041MW2051MW3111REMAWY014TWRVSBY UNAVBLEQDQ01+999990APOSP 
0040042020999991973081522004+76533-068750FM-15+0077BGTL V0202701N00251009001CN0112001N1+00401-00201999999ADDGA1071+009009059MW1001REMMET006MAG350
0057335620999991973092109004+49233+028467FM-12+028799999V0201601N00601220001CN0100001N9+01601+00701101611ADDAY101999GF100991001001999999001001MD1710041+9999MW1021
0057275950999991973041021004+55783+049183FM-12+011399999V0201801N00401030001CN0100001N9+00501+00401102201ADDAY161999GF108991081001999999071999MD1710071+9999MW1611
0140787620999991973100722004+10000-084200FM-15+0918MROC V0202201N00411000301CN0010001N1+02101+02101999999ADDGA1071+000309079MA1101391090651REMMET062FG BNKS MVNG W TO E VISBY ALNG SW 0500 DUE LOW ST VISBY NE 7K%EQDQ01+999990APOSP Q02+000000PRSWM2
0081315040999991973031112004+51350+139100FM-12+001899999V0201801N00101220001CN0500001N9-01901-02201102171ADDAA199000091AY101999GF103991031001999999081001KA1999M-01001MD1210121+9999MW1021
0067020870999991973121915004+57767+014017FM-12+0226ESSJ V0202101N009319999999N0090001N9+99999+99999999999ADDAY111999GF108991999999999999999999MW1031REMSYN0158.0..7KCBUFQYBF
0081747185999991973072012004+32833-115567SAO  -0017IPL  V0202701N003612200019N0800001N1+02661+00221100851ADDGF100991999999999999999999MA1100851999999MD1510001+9999MW1001REMAWY008/ 500 80
031972306013722197304071300C+35867-078783SAO  +0132RDU  V0201805N00215021344EN0112005N1+01115+00565101445ADDAA101000095GD14995+0210099GD20995+9999999GD30995+9999999GD40995+9999999GF108085999999999999999999MA1101461099865MW1001REMAWY008?RDU?4/3EQDQ01+999990APOSP N01 00000JPWTH 1QNNE11 1 00699E11 1 00099E11 1 00099E11 1 00099G11 1 00070K11 1 00042L11 1 00700M11 1 29490N11 1 00000Q11 1 10144S11 1 00052V11 1 01010X11 1 18004
0065725395148331973030714134+42267-084467SAOSP+0305JXN  V0201701N00871003301MN0192001N1+99999+99999999999ADDGD14991+0033099GF108991999999999999999999MA1100681999999MW1001
0095722785231111973051914004+33533-112383SAO  +0339LUF  V0203601N001012200019N0720001N1+02441+00831999999ADDGD12991+0180099GD22991+0360099GD32991+0750099GF102991999999999999999999MA1101251999999MW1001
0057443520999991973011809004+45800+112700FM-12+089599999V0202301N00201220001CN0500001N9-01401+99999101961ADDAY101999GF100991001001999999001001MD1510001+9999MW1021
0068011600999991973110600004+68150+014650FM-12+001199999V0203601N00261220001CN0650001N9+00401+00101999999ADDAA199000091AY121999GF104991031051008001041001MW1021REMSYN005700//
0057103980999991973121317004+52367+014533FM-12+004899999V0202301N00501030001CN0170001N9+00301+00101099571ADDAY111999GF105991031061004501071001MD1810141+9999MW1011
0054977240999991973121700004-03700+128083FM-12+0012WRMA V0203601N00211220001CN0200001N9+03001+02401100641ADDAA124000091AY121999GF104991021011004501031011MW1051
0087284650999991973073018004+56667+066317FM-12+006199999V0202701N00401010201CN0300001N9+01501-02002099621ADDAY121999GA1081+010209059GF108991011021001501001031MD1310171+9999MW1021REMSYN00588  4
0057102620999991973011919004+53033+011800FM-12+002499999V0200901N00201015001CN0020001N9-00201-00301101871ADDAY121999GF108991081051017501999999MD1610061+9999MW1051
0072873740999991973101414004-31783-060483FM-12+006999999V0203601N00211220001CN0200001N9+02001+00701102201ADDAY101999GF100991001001999999001001MD1110011+9999MW1021REMSYN0061022.3
0057160920999991973041006004+45867+011800FM-15+1754LIVG V0202101N00771000151CN0000001N9+99999+99999999999ADDGA1091+000159999MW1731OC101281REMMET015VAL   INVIS NC?
0297724270038041973032620003+39350-081433SAO  +0256PKB  V0203505N002650121949N0112005N1+01335+00895099805ADDGD12995+0033099GD23995+0120099GD33995+0300099GD40995+9999999GF106055999999999999999999MA1099801096725MW1001REMAWY013BLDG CU ALQDSEQDN01 00000JPWTH 1QNNE11 1 00299E11 1 00499E11 1 00499E11 1 00099G11 1 00040K11 1 00048L11 1 00700M11 1 28560N11 1 00000Q11 1 09980S11 1 00056V11 1 00706X11 1 35005
0024471066999991973041707004+37917+127050FM-15+0060RKST V0202601N00511220001CN0100001N9+01301-00401999999ADDMA1101151999999MW1001
0038161340999991973120916504+44200+010700FM-15+2165LIVC V0200601N00101220001CN0112001N1+99999+99999999999ADDGA1031+001209039EQDQ01+000000PRSWM2
0057305490999991973032418004+54200+111917FM-12+130299999V0209991C00001220001CN0200001N9-02301-02701999999ADDAY101999GF100991001001999999001001MD1810091+9999MW1021
028772635094860197302271400C+42883-085517SAO  +0239GRR  V0200805N004652200059N0240005N1-01285-01785103125ADDAA101000095GD10995+9999999GD20995+9999999GD30995+9999999GF100005999999999999999999MA1102951100005MW1001EQDQ01+999990APOSP N01 00000JPWTH 1QNNE11 1 00099E11 1 00099E11 1 00099E11 1 00099G11U1 99999K11 1 00000L11 1 01500M11 1 29530N11 1 00000Q11 1 10312S11 1 00009V11 1 00000X11 1 08009
0110874180999991973062812004-32833-068783FM-12+0705SAPL V0209991C00001220001CN0150001N9+00001-00401999999ADDAA124002091AY101999GF100991001001999999001001MA1999999093911MD1710301+9999MW1021REMSYN01869391 70214 1021.4
0043476480999991973052207004+35717+140850FM-12+002799999V0200801N004619999999N0400001N9+01601+00901101531ADDAY111999GF106991041031999999031001MW1031
0057324090999991973090803004+56167+163317FM-12+001499999V0202301N00701030001CN0500001N9+01001+00901101271ADDAY121999GF107991031051008001051001MD1710211+9999MW1021
006172408594732197304191000D+40083-075017SAO  +0037PNE  V0209991C00001045001EN0128001N1+01441+01161999999ADDAA101000095GD14991+0450099GF108991999999999999999999MW1001
0043104740999991973062915004+51883+012650FM-12+010499999V0202901N00701007501CN0120001N9+01701+99999101941ADDAY121999GF108991061051008001021999MW1051
0037064320999991973032622254+50583+003833FM-15+0058EBCV V0203601N001019999999N0100001N9+00401+00201999999ADDMA1102511999999EQDQ01+000000PRSWM2
0097601010999991973032720004+35717-005917FM-15+0015GMTT V0202001N00511003901CN0070001N9+01301+01301999999ADDGA1031+002109079GA2031+003909089GA3061+005109059MA1102301999999REMMET003NG?EQDQ01+000000PRSWM2
0110999999999991973090706004+60100+161000FM-13+0000UJAD V0202701N00801220001CN0500001N9+00881+99999101621ADDAY101999GF101991011051008001001001MD1410001+9999MW1021SA1+0779UA1M050059999UG1130053009REMSYN01110778 30501
0096107295999991973042815004+49567+008467FM-15+0108EDOR V0202101N00511024001CN0100001N9+01601+00801999999ADDGA1011+010509059GA2031+018009059GA3081+024009049MA1100411999999REMMET00280EQDQ01+000000PRSWM2
0116727436999991973030412004+46533-087567SAO  +0432MQT  V0202901N003612200019N0112001N1-00611-00831102361ADDAJ100419199999999GF100991999999999999999999MA1102131999999MD1210221+9999MW1001REMAWY026/ 222 90416 20?MQT?2/5 2/6
0052152000999991973120802454+46183+021267FM-15+0110LRAR V0202101N00201220001CN0045001N1-00301-00301999999ADDMA1101081999999REMMET006NOSIG%EQDQ01+000000PRSWM2
0109030910999991973110713004+57200-002200FM-12+0072EGPD V0202301N00721045001CN0450001N9+01001+00501101291ADDAY121999GA1011+004209079GA2041+045009039GF105991021051004501031011MD1710371+9999MW1011REMSYN01181714 84365
0115729580999991973072919004+58417-130000SAO  +0816YDL  V0202001N002510240019N0240001N1+01611+01001101731ADDGD12991+0150099GD23991+0240099GF107991999999999999999999MA1101731092261MW1001REMAWY007TCU4AC5EQDQ01+999990APOSP 
020872543094822197310190300C+42200-089100SAO  +0221RFD  V0201405N003152200059N0160005N1+00675+00285102215ADDAA101000095GF100005999999999999999999MA1102171099465MD1810071+9999MW1001REMAWY003807EQDN01 00000JPWTH 1QNNG11U1 99999K11 1 00037L11 1 01000M11 1 29370N11 1 00000Q11 1 10221S11 1 00044V11 1 00000X11 1 14006
0123314920999991973062809004+51967+138183FM-12+043099999V0201401N00201002401CN0500001N9+01401+01401100891ADDAA199000591AY181999GA1081+002409079GF108991081071002501999999KA1999M+01601MD1310041+9999MW1021REMSYN01779516 88708 95950
0103030260999991973100520004+58217-006333FM-12+0009EGPO V0200801N00101012001CN0050001N9+01201+01101102031ADDAY121999GA1031+009009059GA2081+012009059GF108991081051012501999999MD1610011+9999MW1051REMSYN00583  0
0088102530999991973021408004+52967+011183AERO +003599999V0202001N00461009001CN0200001N9+00101-00201999999ADDAY111999GA1031+006009089GA2071+009009059GF107991999999999999999999EQDQ01+000782PRSWM1
0057262140999991973092609004+58367+021833FM-12+000699999V0200701N006019999999N0100001N9+00401+00301101991ADDAY161999GF108991999999999999999999MD1710011+9999MW1611
0075725895942361973082411004+42150-121733SAO  +1247LMT  V0202101N001012200019N0160001N1+00831+00441101741ADDGD12991+0600093GF102991999999999999999999MA1101901999999MW1001REMAWY001%
009772205612834197303190200D+29183-081050SAO  +0010DAB  V0202601N005112200019N0112001N1+01551+00271101631ADDAA101000095GD13991+0900093GF107991999999999999999999MA1101631999999MW1001REMAWY012?DAB?2/4 2/5
0122999999999991973051800004+27200-015500FM-13+0000GNQA V0203401N00361220001CN0200001N9+01981+01801101811ADDAY121999GF104991041011004501001001MD1510101+9999MW1021SA1+1899UA1M050109999UG1080153409REMSYN0230//18 11898 30502 34803
0132727815242371973012522104+47283-121333SAOSP+1209SMP  V0202501N006110012019N0008001N1+99999+99999999999ADDGD16991+0001599GD23991+0012099GD34991+0054099GF108991999999999999999999MA1101691999999MW1861REMAWY028/ S4       ?AEX 2222 WET RWY
0095582650999991973092206004+32233+121167FM-12+000499999V0200401N00301220001CN0210001N9+02701+02001101481ADDAA199000091AY101999GF102991021021008001001001KA1999N+01601MD1710131+9999MW1031REMSYN005/0016
0050722907999991973022520004+32833-116967SAO  +0117SEE  V0202801N003612200019N0400001N1+02111+01051999999ADDGD12991+0105099GF102991999999999999999999MW1001
046772270023044197312261500C+31800-106400SAO  +1194ELP  V0202905N008852200059N1200005N1+00615-01225101415ADDAA101000095GA1999+999999034GA2999+076204004GA3999+999999999GA4999+999999999GD13999+0750093GD20055+9999999GD30005+9999999GD40005+9999999GF105025999001999999041991MA1101661088085MD1210241+9999MW1001REMAWY034VIRGA AND FEW SML ACSL S/ 224 1041EQDN01 00000JPWTH 1P01    003SCCGD1QNNE11 1 00300E11 1 00006E11 1 00000E11 1 00000G11U1 99999H11 1 23999H11 1 32250H11 1 00999H11 1 00999K11 1 00010L11 1 07500M11 1 26010N11 1 00000Q11 1 10141S11 1 00043V11 1 00602X11 1 29017
0083999999999991973042115004+50500+000900FM-13+0000SHIP V0209991C00001007501CN0100001N9+00571+00401100711ADDAY121999GF108991081051008001999999MD1710091+9999MW1611REMSYN01705404 10757 30000
0095876480999991973010612004-36350-057733FM-12+0010SADO V0202701N00101220001CN0200001N9+01601+00601101251ADDAA199000091AY101999GF100991001001999999001001KA1999N+00601MD1110011+9999MW1021REMSYN00510126
0093723419939921973032609004+33217-092817SAO  +0084ELD  V0202701N00721009301MN0112001N1+01051+00501100391ADDGD14991+0093099GF108991999999999999999999MA1100411999999MD1110031+9999MW1001REMAWY005/ 103
0096741090999991973102413004+50683-127367SAO  +0024YZT  V0201201N01231021001MN0240001N1+00661+00441100111ADDGD13991+0210099GF107991999999999999999999MA1100101099831MW1001REMAWY003AC6EQDQ01+999990APOSP 
0069607690999991973051818504+33583+010783FM-15+0006DTTJ V0202601N00301009901CN0050001N9+02401+01501999999ADDGA1041+006009089GA2011+009909099MA1100311999999EQDQ01+000000PRSWM2
0109034620999991973100913004+52617-000467FM-12+0084EGXT V0203201N00411004801CN0090001N9+01101+01001101641ADDAY161999GA1021+002409079GA2081+004809059GF108991081051002501999999MD1210161+9999MW1611REMSYN01182708 88  6
0133988510999991973012703004+06117+125183FM-12+001499999V0200401N00251090001CN0200001N9+03101+01801101091ADDAA199000091AY141999GA1021+006009089GA2041+090009029GF106991011021008001031081MD1810201+9999MW1051REMSYN00570019EQDQ01+000002APC3  
0019103820999991973070116204+52567+013300FM-15+0037EDBT V0209991V00151999991CY0099001N1+02601+01301999999EQDQ01+000000PRSWM2
0087064700999991973060319004+50800+005200FM-12+0074EBST V0202401N00211013501CN0200001N9+01401+01001102161ADDAY121999GA1061+013509059GF106991061051012501999999MD1310101+9999MW1021REMSYN00586645
0057215040999991973010115004+74667+112983FM-12+000599999V0202001N00501024001CN0170001N9-02101-02201098931ADDAY171999GF107991031051008001031001MD1710181+9999MW1711
0297723721231841973072015003+34650-112433SAO  +1531PRC  V0201505N002152200059N1040005N1+02285+00395101295ADDGD10995+9999999GD20995+9999999GD30995+9999999GF100005999999999999999999MA1102131084835MW1001REMAWY028/ 102?PRC?7/7 7/14 7/15 7/16EQDN01 00000JPWTH 1QNNE11 1 00099E11 1 00099E11 1 00099E11 1 00099G11U1 99999K11 1 00039L11 1 06500M11 1 25050N11 1 00000Q11 1 10129S11 1 00073V11 1 00000X11 1 15004
0095301270999991973071412004+58267+105917FM-12+043599999V0209991C00001220001CN0500001N9+02401+01201100541ADDAA199000091AY111999GF102991021011012501001001KA1999M+02601MD1610031+9999MW1021REMSYN00570026
0065723415999991973100916004+34483-093100SAO  +0163HOT  V0201701N00511002101MN0032001N1+02381+02111999999ADDGD14991+0021099GF108991999999999999999999MA1101631999999MW1451
0059037780999991973020518004+51517-000117AERO +0023EGRB V0202401N00511220001CN0060001N9+00801+00501999999ADDAY111999GA1031+036009039GF104991999999999999999999MW1051
0075037610999991973082310004+51233-000950AERO +0019EGVO V0200601N00461030001CN0110001N9+01901+01101999999ADDAY121999GA1021+018009059GA2081+030009039GF108991999999999999999999MW1031
0097620590999991973041806004+32767+022633FM-12+000899999V0200301N00301006001CN0100001N9+01501+01101101591ADDAA199000091AY121999GA1081+006009079GF108991081051008001999999KA1999N+01201MD1310051+9999MW1031
0065725336999991973060823004+40233-085400SAO  +0286MIE  V0202101N00771010501EN0112001N1+02831+01881999999ADDGD13991+0105099GF107991999999999999999999MA1101901999999MW1001
0178104020999991973083013004+51117+006217SY-MT+0089EDUW V0202401N00411006601CN0070001N1+01801+01201101461ADDAY121999GA1011+004509079GA2061+006609089GA3071+018009059GF107991041081008001999021MA1101391999999MD1710071+9999MW1041MW2801REMSYN01184820 87080MET007WHT WHTEQDQ01    003SCOMCG
0088109000999991973071308524+47900+007617FM-15+0213EDSG V0200401N00301220001CN0112001N1+02201+01301999999ADDGA1021+009009089MA1101491999999REMMET026PIC49      ?     BLU&BLU&%EQDQ01+000000PRSWM2
031872521014895197309061000C+40917-081433SAO  +0368CAK  V0202705N00415002134MN0032005N1+02115+01945101355ADDAA101000095GD14995+0021091GD20995+9999999GD30995+9999999GD40995+9999999GF108085999999999999999999MA1101461097025MW1455REMAWY007CIG 5V9EQDQ01+999990APOSP N01 07000JPWTH 1QNNE11 1 00699E11 1 00099E11 1 00099E11 1 00099G11 1 00007K11 1 00067L11 1 00200M11 1 28650N11 1 07000Q11 1 10135S11 1 00070V11 1 01010X11 1 27008
0057230770999991973112309004+69350+088250FM-12+006699999V0200901N00801220001CN0500001N9-02001-02301102011ADDAY171999GF107991001001999999001011MD1610071+9999MW1781
0082478930999991973110218004+33567+133550FM-12+000199999V0202601N00211220001CN0300001N9+01201+00901101561ADDAA199000091AY101999GF100991001001999999001001MD1810021+9999MW1021REMSYN00540000
0072874160999991973042117004-33083-068417FM-12+065899999V0209991C000019999999N0200001N9+01601+01201999999ADDAY121999GF107991999999999999999999MA1999999093931MD1610051+9999MW1021
0149875480999991973061612004-34550-060950FM-12+0082SANI V0202301N01291036001CN0150001N9+01201+00501100781ADDAA124004091AY151999GF108991081001999999071999KA1999N+01201MD1510431+9999MW1021REMSYN05970412 1007.191203 51102   022 08528 33431 24115   080 70029
0076724096147061973112000004+40017-074600SAO  +0041WRI  V0203101N003012200019N0240001N1+00501+00221102021ADDGF100991999999999999999999MA1102001999999MD1210271+9999MW1001REMAWY003227
0122999999999991973110400004+47900-151400FM-13+0000ZCDB V0201601N00621000601CN0010001N9+00891+99999101571ADDAY141999GF109991091999999999999999MD1710201+9999MW1441SA1+0899UA1M030109999UG1090301109REMSYN0230//09 10899 30302 11906
0071507880999991973021412004+47233+132017FM-12+007099999V0201801N00301220001CN0300001N9-01901-02101999999ADDAY101999GF100991001001999999001001MD1010001+9999MW1021REMSYN0054****
0057080270999991973071615004+43317-002050FM-12+025999999V0200201N00211220001CN0200001N9+01901+01201101021ADDAY121999GF103991031051008001999999MD1210051+9999MW1011
0121106880999991973113012004+49667+012183FM-12+043899999V0202601N00211004801CN0080001N9-00501-00701101511ADDAA106000291AA299000391AY171999GA1071+004809059GF107991071051004501999999MD1810071+9999MW1031REMSYN017793// 87  6 PIC20
0069741050999991973121707004+50000-127417SAO  +0011YSQ  V0200701N004112200019N0240001N1+00331-00111101081ADDGF100991999999999999999999MA1101081101081MW1001EQDQ01+999990APOSP 
0076583140999991973101812004+31400+116317FM-12+005099999V0200901N00101220001CN0200001N9+01401+01301102351ADDAY101999GF101991999001999999041001MD1210121+9999MW1021EQDQ01+000002SCOTLC
0078563570999991973101621004+29350+100383FM-12+999999999V0203201N00201220001CN0600001N9+00101-00301999999ADDAY101999GF101991011011017501001001MA1999999065021MW1031REMSYN01166502 00052
0082346090999991973062000004+47333+036333FM-12+022299999V0201601N00301220001CN0140001N9+01301+01101101531ADDAA199000091AY111999GF101991001001999999001011MD1810081+9999MW1011REMSYN005700//
0067722135138701973082210004+31533-082517SAO  +0063AMG  V0203501N002012200019N0112001N1+01771+01661101001ADDGF100991999999999999999999MA1101051999999MW1001REMAWY008?AMG?8/4
0134085090999991973032412004+38767-027100SY-MT+0055LPLA V0201201N00411013501CN0110001N9+01401+01201102671ADDAA106000091AY121999GA1011+004209089GA2051+013509059GF107991051081004501011061MA1102711102031MD1110171+9999MW1011EQDQ01  00003PRCP99
0126729300999991973032220004+54133-115667SAO  +0741YZU  V0203101N004610840019N0240001N1+00661-00771102091ADDGD12991+0150099GD23991+0300093GD33991+0840099GF107991999999999999999999MA1101831999999MW1001REMAWY022CU3AC2CI1 VIRGA SE-WSW
0065727935242341973071008004+47533-122300SAO  +0005BFI  V0203301N002012200019N0160001N1+01771+00941999999ADDGD12991+0750093GF102991999999999999999999MA1101631999999MW1001
0106703620253351973022122004+59467-135283SAO  +0013SGY  V0202501N002510045019N0112001N1+00221+00111101761ADDGD16991+0001599GD22991+0021099GD34991+0045099GF108991999999999999999999MW1451MW2611REMAWY011PASS N CLSD
0096729060999991973012905004+58100-068433SAO  +0037YVP  V0202101N004612200019N0160001N1-02661-03161101741ADDGD12991+0300093GF102991999999999999999999MA1101661101251MW1761REMAWY003AC1EQDQ01+999990APOSP 
0087201860999991973060603004+78617+098700FM-12+000899999V0202301N00801005701CN0040001N9-00401-00501100331ADDAY131999GA1081+005709059GF108991081051004501999999MD1710091+9999MW1711REMSYN00588  9
0060106100999991973081214004+49950+006567FM-15+0374EDAB V0209991V00361220001CN0112001N1+02701+01301999999ADDGA1011+013509089MA1102511999999MW1001REMMET011WND 050V150
032072438093819197302081600C+39733-086283SAO  +0241IND  V0203405N006750213449N0240005N1-00725-01115102325ADDAA101000095GD12995+0060099GD23995+0210099GD30995+9999999GD40995+9999999GF106055999999999999999999MA1102241099295MW1001REMAWY009?IND?1/28EQDQ01+999990APOSP N01 00000JPWTH 1QNNE11 1 00299E11 1 00499E11 1 00099E11 1 00099G11 1 00070K11 1 00012L11 1 01500M11 1 29320N11 1 00000Q11 1 10232S11 1 00019V11 1 00806X11 1 34013
0112315040999991973112600004+51350+139100FM-12+001899999V0202301N00801220001CN0500001N9-01901-02301100281ADDAA199000091AY131999GF102991001001999999001021IA1319IA2999-02209MD1810041+9999MW1361REMSYN01770068 27296 91112
0086728740999991973012906004+49633-112800FM-12+0929YQL  V0202301N00721036001CN0700001N9+00201-00601101631ADDAY121999GF106991061001999999071001MA1999999090741MD1710221+9999MW1021REMSYN00544120
031772219013874197311141000C+33650-084433SAO  +0308ATL  V0202505N003652200059N0160005N1+00895+00785102305ADDAA101000095GD10995+9999999GD20995+9999999GD30995+9999999GF100005999999999999999999MA1102341098585MW1001REMAWY021FEW AC?ATL?11/7 11/15EQDQ01+999990APOSP N01 00000JPWTH 1QNNE11 1 00099E11 1 00099E11 1 00099E11 1 00099G11U1 99999K11 1 00046L11 1 01000M11 1 29110N11 1 00000Q11 1 10230S11 1 00048V11 1 00000X11 1 25007
0043474200999991973010501004+43333+145583FM-12+002699999V0202501N00411220001CN0600001N9-00301-01001102431ADDAY101999GF101991011011999999001001MW1021
0068489170999991973090406004+10217+103967FM-12+000299999V0202701N00311007501CN0200001N9+03001+02501100881ADDAA124000091AY121999GF106991051021008001001021MW1021REMSYN005400//
0043434970999991973101606004+06117+081133FM-12+001899999V0209999999999220001CN0220001N9+03001+02401100901ADDAY181999GF104991021021008001001011MW1021
0114537980999991973060218004+37067+114500FM-12+007699999V0209991C00001007501CN0090001N9+01501+01501101451ADDAA106004091AY161999GF108991081051008001999999KA1999M+02101MD1710161+9999MW1101REMSYN005/0421EQDQ01  00403PRCP99
0161164600999991973082603004+37467+015067SY-MT+0013LICC V0202701N00251030001CN0112001N1+02501+01501101381ADDAY111999GA1021+012009059GA2031+030009039GF105991021051012501041001MA1101391999999MD1310021+9999MW1031REMSYN01782640 83360 95890MET006NOSIG%EQDQ01+000000PRSWM2
010172256013959197304211000D+31617-097233SAO  +0155ACT  V0201501N00821002401MN0080001N1+02161+02001100951ADDAA101000095GD14991+0024099GF108991999999999999999999MA1101021099191MW1451MW2501EQDQ01+999990APOSP 
0082272520999991973061612004+58333+043417FM-12+014299999V0201601N00601007501CN0500001N9+02601+00901100601ADDAA199000091AY121999GF108991081051008001999999MD1710021+9999MW1031REMSYN005700//
0071407850999991973050512004+33983+051450FM-12+095499999V0209991C00001015001CN0200001N9+02701+00601999999ADDAY101999GF106991061031017501001001MD1610161+9999MW1021REMSYN005  446
0050723190938071973021208004+36133-080217SAO  +0295INT  V0209991C000012200019N0240001N1+99999+99999999999ADDGF100991999999999999999999MA1102881999999MW1001
0082389150999991973081412004+37517+066017FM-12+026599999V0202501N00101220001CN0100001N9+03701+01901100091ADDAA199000091AY101999GF100991001001999999001001MD1710161+9999MW1021REMSYN005700//
0057572970999991973060109004+32133+114067FM-12+007999999V0200401N005019999999N0200001N9+02601+01701101061ADDAY121999GF107991001001999999031021MD1010011+9999MW1021
0057570460999991973081409004+34667+109500FM-12+030599999V0201101N00701009001CN0170001N9+01701+01601999999ADDAY181999GF107991071081004501041021MW1951REMSYN00505154
0104999999999991973011118004-08900-002100FM-13+0000SHIP V0201401N01401220001CN0200001N9+02561+02201101051ADDAY101999GF103991031021008001001001MD1210071+9999MW1021SA1+2759UA1M030159999REMSYN01705622 12756 30303
0101378660999991973110412004+40333+050583FM-12-001799999V0203601N01301004201CN0300001N9+01001+00601101991ADDAA106002091AY181999GF108991081091004501999999MD1410001+9999MW1021REMSYN005702//EQDQ01  00203PRCP99
0050722506129591973072204004+26183-098233SAO  +0033MFE  V0201301N004112200019N0112001N1+02661+02331101081ADDGF100991999999999999999999MA1101081999999MW1001
0035036731999991973010705004+51867-000350FM-15+0160EGGW V0200801N00411001201CN0090001N9+00501+00401999999ADDGA1031+000609079GA2081+001209079
009572779024146197312181000D+48317-114250SAO  +0906FCA  V0200301N00611015001MN0320001N1+00161-00611102621ADDAA101000095GD14991+0150099GF108991999999999999999999MA1102441091921MW1001EQDQ01+999990APOSP 
0097727000999991973031717004+45867-066533SAO  +0020YFC  V0200801N00411004801MN0192001N1+00331-00051100761ADDGD14991+0048099GF108991999999999999999999MA1100781100491MW1801REMAWY004SC10EQDQ01+999990APOSP 
0082357490999991973090112004+46717+062217FM-12+007199999V0202901N00301012001CN0200001N9+02301+00201101511ADDAA199000091AY121999GF106991061051012501001001MD1710151+9999MW1021REMSYN005700//
0132729240999991973072504004+74717-094967SAO  +0067YRB  V0203001N007710030019N0240001N1+00051+00001101811ADDGD12991+0009099GD23991+0030099GD34991+0090099GF108991999999999999999999MA1101761100991MW1001REMAWY009ST3SC6SC1EQDQ01+999990APOSP 
0117100450999991973082018004+54350+010133FM-12+000799999V0203201N00461220001CN0400001N9+01501+00801101791ADDAA199000091AY121999GA1021+008109089GF104991021021008001001041KA1999M+01901MD1110041+9999MW1011REMSYN01170019 82827
0104949100999991973052811003-35167+147467FM-12+0222ASWG V0209999C00001007501CN0300001N9+01001+00801102101ADDAY121999GA1065+006005065GA2015+999999045GF107991061051008001031999MA1999999099535MD1110071+9999MW1025
012472524614891197303110700C+40817-082517SAO  +0395MFD  V0201801N009210360019N0160001N1+01725+01111999999ADDAA101000095GD12991+0150099GD24991+0360099GF108995999999999999999999MA1101391999999MW1001OC101231QNNS11 1 00063V11 1 01099
0079403560999991973121512004+31683+038667FM-12+0830OETR V0201801N00511220001CN0120001N9+02001+00101102741ADDAY101999GA1021+060009009GF102991001001999999001021MW1031REMSYN01182070 90766
0081171900999991973010518004+38733+030600FM-12+1010LTAH V0202001N00201220001CN0300001N9+99999+99999102551ADDAA199000091AY111999GF100991001001999999001001KA1999M+00001MD1110101+9999MW1021
0051260635999991973020904304+59817+030283FM-15+0018ULLL V0202701N00101004801CN0100001N9-00501-00601999999ADDGA1081+004809059REMMET004990?EQDQ01+000000PRSWM2
0095999999999991973022612004+42900-018800FM-13+0000PGEU V0202901N00661004201CN0200001N9+01401+01001102291ADDAY121999GF107991061051004501001011MD1210101+9999MW1011REMSYN0290//10      ?11190 30202 30604
0071876450999991973042215004-37233-059250FM-12+0175SADI V0203601N00411001201CN0100001N9+01801+01501101561ADDAY141999GF108991081061001501999999MD1810051+9999MW1101REMSYN00510161
032172295023174197311030200C+33933-118400SAO  +0030LAX  V0202605N00365008234MN0192005N1+01565+01225101535ADDAA101000095GD13995+0081099GD20995+9999999GD30995+9999999GD40995+9999999GF107065999999999999999999MA1101521101155MW1001REMAWY010?LAX?10/30EQDQ01+999990APOSP N01 00000JPWTH 1QNNE11 1 00499E11 1 00099E11 1 00099E11 1 00099G11 1 00027K11 1 00054L11 1 01200M11 1 29870N11 1 00000Q11 1 10153S11 1 00060V11 1 00908X11 1 26007
0070478500999991973042803004+31367+130833FM-15+0062RJFY V0209999999999220001CN0100001N9+02301+01201999999ADDGA1011+009009089REMMET0231016/3000/FCST    26010EQDQ01+000000PRSWM2
0057570360999991973041121004+34233+108883FM-12+040699999V0209991C00001220001CN0100001N9+00701+00601101401ADDAY101999GF100991001001999999001001MD1210111+9999MW1021
0122999999999991973090800004-23600+111700FM-13+00009VRX V0201501N00821007501CN0500001N9+01951+01301101871ADDAY121999GF106991061021008001071001MD1210171+9999MW1031SA1+2199UA1M020109999UG1060251709REMSYN0230//13 12195 30202 17605
0057171620999991973082916004+39183+036050AERO +117399999V0202701N00361220001CN0250001N9+02501+00001999999ADDAY101999GF100991999999999999999999MW1021REMSYN0051013%
0232722050128151973110202003+28450-081300SAO  +0032MCO  V0209995C000052200059N0160005N1+01725+01445999999ADDGD10995+9999999GD20995+9999999GD30995+9999999GF100995999999999999999999MA1101731999999EQDN01 00000JPWTH 1QNNE11 1 00099E11 1 00099E11 1 00099E11 1 00099G11U1 99999K11 1 00058L11 1 01000N11 1 00000S11 1 00063V11 1 00099X11 1 00000
0065722907999991973041403004+32833-116967SAO  +0117SEE  V0202501N00511010501EN0160001N1+01381+00881999999ADDGD14991+0105099GF108991999999999999999999MW1001REMAWY006BINOVC
0068420550999991973112212004+32683+074833FM-12+0314VIJU V0209991C00001220001CN0040001N9+02001+01201101341ADDAA199000091AY101999GF100991001001999999001001MW1041REMSYN00570017
0069085150999991973031817004+36967-025167FM-15+0093LPAZ V0202601N00721220001CN0100001N9+01601+00901999999ADDGA1011+005409089GA2031+012009059MA1099591999999EQDQ01+000000PRSWM2
0053103370999991973040705444+52183+009950FM-15+0089EDCD V0202501N00611220001CN0100001N9+00301+00101999999ADDGA1011+004509089REMMET006PIC50?EQDQ01+000000PRSWM2
0057347980999991973091406004+46600+049267FM-12-002399999V0201101N00401220001CN0220001N9+01801+00801101351ADDAY101999GF102991021001022501031001MD1710051+9999MW1031
0040060300999991973051003204+57100+009850FM-15+0003EKYT V0201801N00771001801CN0040001N1+99999+99999999999ADDGA1071+001809079MA1100711999999MW1631
0096479350999991973051707004+26300+127767FM-15+0005ROHF V0202501N006110300019N0100001N9+02701+02401999999ADDGA1011+004509089GA2031+015009059GA3081+030009049MA1100511999999REMMET00200EQDQ01+000000PRSWM2
0090478810999991973062623004+34133+134600FM-15+0002RJOS V0200301N00251012001CN0035001N1+02201+02201999999ADDGA1031+003009079GA2041+012009059GA3081+021009049MA1100311999999MW1611REMMET00929   MIST
0091062700999991973092013004+53233+005767FM-12+0001EHLW V0202701N00511030001CN0300001N9+01701+00901100861ADDAY121999GA1031+008409089GF105991031021008001031011MD1810021+9999MW1011REMSYN00983828 55E
0103999999999991973012600004+20500-147900FM-13+0000JNBM V0200601N00971220001CN0200001N9+02451+01901101771ADDAY111999GF103991021011004501071001MD1710281+9999MW1011SA1+2409REMSYN0290//19 12405      ?30302 10704
0095277070999991973113018004+54100+035333FM-12+023799999V0202001N00401021001CN0120001N9-00901-01001101561ADDAA199000091AY121999GF108991081001022501021999KA1999M-00801MD1210051+9999MW1021REMSYN00570058
0091723625930571973012017004+35167-107900SAO  +1987GNT  V0201501N002512200019N0192001N1-00381-00771999999ADDGD12991+0075099GF102991999999999999999999MA1100471999999MW1001REMAWY017MTNS SW OBSCD SWU
0067102150999991973080903444+53183+008167FM-15+0012EDNO V0202001N00151220001CN0112001N1+00901+00701999999ADDGA1011+012009059MA1102511999999REMMET005BLU&%EQDQ01+000000PRSWM2
0057872570999991973052414004-29883-061950FM-12+008799999V0201401N00151220001CN0250001N9+01401+01201101861ADDAY121999GF104991011001999999051041MD1010001+9999MW1051
0056722085938311973112808004+32483-080717SAO  +0012NBC  V0201901N005112200019N0064001N1+02051+01941101281ADDGF100991999999999999999999MA1101251999999MW1051MW2111
0050747810999991973030111004+30967-083200SAO  +0074VAD  V0200601N002512200019N0112001N1+00611+00501999999ADDGF100991999999999999999999MA1102811999999MW1001
0087125200999991973032400004+50433+016650FM-12+031699999V0209991C00001220001CN0040001N9+00001-00201102321ADDAA106000091AY101999GF100991001001999999001001MD1110021+9999MW1101EQDQ01  00003PRCP99
0043638200999991973092809004-04033+039600FM-12+0056HKMO V0201101N00151220001CN0500001N9+02901+02101101431ADDAY121999GF104991031021008001031001MW1011
0163845640999991973031512004-09900-075417SY-MT+1858SPNC V0209991C00001030001CN0170001N9+01701+01501100041ADDAA124002091AY121999GA1011+003909089GA2021+012009059GA3051+030009049GF108991031081012501011999KA1999N+01501MA1999999081381MW1021REMSYN0059900*EQDQ01  00203PRCP99
0097741380999991973032304004+51267-102467SAO  +0498YQV  V0203401N00301024001MN0096001N1+00221+00051101791ADDGD14991+0240099GF108991999999999999999999MA1101521095661MW1451REMAWY004AC10EQDQ01+999990APOSP 
0043476780999991973042917004+33100+139783FM-12+008099999V0202901N00461220001CN0500001N9+01801+01601101371ADDAY111999GF102991021011999999001001MW1011
0079919450999991973111118004-19867-145000FM-12+000299999V0203601N00621012001CN0100001N9+02501+02301101651ADDAA106000291AA299000391AY111999GF106991061081008001001001MW1151REMSYN00579389
0069083300999991973122407004+38900-006817FM-15+0185LEBZ V0202801N00301220001CN0080001N1+00201+00101999999ADDGA1021+006009059GA2021+021009039MA1099901999999EQDQ01+000000PRSWM2
0057350530999991973090709004+52450+064617FM-12+011099999V0202701N00701015001CN0200001N9+01201+00801100821ADDAY161999GF108991081081012501999999MD1210271+9999MW1021
0149728910999991973100516004+50233-121583SAO  +0258YLY  V0202101N005612200019N0240001N1+01001+00551100921ADDGD12991+0030099GD22991+0090099GD32991+0210099GD43991+0750093GF107991999999999999999999MA1100911097861MW1001REMAWY011SF1SC1AC4CIEQDQ01+999990APOSP 
009094403099999197302281900N-28800+114700AUST +0034YPGN V0201585N010359999999N999999999+02105+01705999999ADDAY134999GA1025+004505075GA2075+999999035GF108995024065004505075999MA1999999101055MW1035
0083100070999991973061003004+54083+007567FM-12+000399999V0202501N009819999999N0040001N9+01301+01201100681ADDAY141999GF108991999999999999999999MD1710131+9999MW1611UG1060103609REMSYN0053////
0074722696999991973010713004+32850-106100SAO  +1248HMN  V0201301N003019999999N0160001N9+00301+00301999999ADDAA106000091GF108991999999999999999999MA1101591999999EQDQ01+000020PRSWM2
0076484250999991973111809004+14483+100133FM-12+000699999V0200401N00411045001CN0150001N9+02701+02101101041ADDAY121999GF108991041051008001071999MW1031UA1M990009999REMSYN01139700 450//
0104070610999991973121312004+49817+003200FM-12+0101LFOW V0202601N00931036001CN0170001N9+00901+00601101371ADDAA199000091AY121999GA1031+004809089GF105991031021004501031011MD1810021+9999MW1031REMSYN011700// 83816
0050726835242301973042807004+44250-121150SAO  +0938RDM  V0209991C000012200019N0240001N1+00161-00501101611ADDGF100991999999999999999999MA1101591999999MW1001
0057205940999991973050621004+74600+101983FM-12+001199999V0209991C00001007501CN0070001N9-00901-01101100411ADDAY171999GF107991051051008001031011MD1710031+9999MW1711
0118278570999991973040106004+53500+042617FM-12+013199999V0203301N00201000301CN0002001N9+00101+00101101361ADDAA199999999AJ100019199999999AY141999GF109991091999999999999999IA1199KA1999N+00001MD1310011+9999MW1471REMSYN00520061
0052075100999991973110820004+44833-000717FM-15+0048LFBB V0203401N00101999991CY0099001N1+00401+00201999999ADDMA1103391999999REMMET006NOSIG%EQDQ01+000000PRSWM2
0065722315539171973111809004+30033-090033SAO  +0003NEW  V0200901N004112200019N0240001N1+99999+99999999999ADDGD12991+0900093GF102991999999999999999999MA1101961999999MW1001
0057325860999991973102403004+52367+158567FM-12+001899999V0202901N00501007501CN0500001N9+00201-00601099801ADDAY121999GF106991061051008001001001MD1210021+9999MW1021
0109032570999991973091515004+54300-001533FM-12+0040EGXE V0201101N00511030001CN0160001N9+01801+01201101721ADDAY111999GA1061+030009039GA2071+075009009GF107991061001999999081011MD1710211+9999MW1031REMSYN01186360 87075
0087103380999991973123115004+52467+009683FM-12+0056EDVV V0202701N00311220001CN0080001N9+00201+00101103001ADDAY111999GA1011+007509089GF101991011011008001001001MD1510031+9999MW1101REMSYN00581825
0066724456139971973101719004+38133-091767SAO  +0350VIH  V0201401N002012200019N0112001N1+01721-00051102501ADDGF100991999999999999999999MA1102511999999MW1001REMAWY007?VIH7/8
0057875980999991973021520004-35167-056317FM-12+000899999V0200901N00151220001CN0200001N9+02201+01301102131ADDAY101999GF103991031021008001001001MD1710231+9999MW1021
0096729385999991973120812004+66083-118033SAO  +0191YIX  V0202901N00611004201EN0032001N1-02381-02771102691ADDGD14991+0042099GF108991999999999999999999MA1102401999999MD1210121+9999MW1381REMAWY008SC10 212
043172223013894197302251200C+30683-088250SY-SA+0064MOB  V0200705N00315011584CN0112005N9+01115+01065101955ADDAA101000095AA206002091AA324011091AJ100009199999999AY161999GA1999+007014064GA2999+011584064GD12025+9999999GD24065+9999999GD30995+9999999GD40995+9999999GF108085081051008001999999MA1999999101155MD1310101+9999MW1021REMSYN00571040EQDQ01  01103PRCP99N01 00000JPWTH 1QNNE11 1 00202E11 1 00608E11 1 00099E11 1 00099G11 1 00038H11 1 15023H11 1 15038K11 1 00051L11 1 00700M11 1 29870N11 1 00000Q11 1 10195S11 1 00052V11 1 01010X11 1 07006
0094763991999991973050921004+24767-097533SAOSP+0007MAM  V0200901N007712200019N0240001N1+03001+01901999999ADDGD12991+2100099GD22991+2100099GF102991999999999999999999MA1105791999999MW1001REMAWY00500190
0277999999272011973080411005+71950-124733SAO  +0084CYSY V02004559004650274349N016000599+00945+00895101485ADDGA1999+018294064GA2999+027434034GD19055+9999999GD29045+9999999GF108085999999999999999999MA1999999100415MW1615EQDN01 02000JPWTH 1QNNE11 1 09906E11 1 09905G11 1 00090H11 1 15060H11 1 23090K11 1 00048L11 1 01000M11 1 29650N11 1 02000Q11 1 10148S11 1 00049V11 1 01010W11 1 22009
0072724756231591973102117004+37700-112167SAO  +2312BCE  V0201201N005112200019N0640001N1+01331-00271101821ADDGF100991999999999999999999MA1102401999999MW1001REMAWY013000/RNOVV0.1/
0185725905232751973111301004+39133-123200SAO  +0187UKI  V0202301N003010180019N0320001N1+01111+00831101741ADDGD12991+0105099GD23991+0180099GD34991+0540099GF108991999999999999999999MA1101761999999MD1710041+9999MW1001REMAWY032UA 20 SW FOT OI 100 LGT RIME ICEEQDQ01+000012APCTENQ02+000002APC3  
0114851410999991973091222004-14467-067567FM-12+0274SLRQ V0209991C00001220001CN0030001N9+03101+02801098821ADDAA199000091AY121999GA1031+060009009GF103991001001999999001011MD1610041+9999MW1041REMSYN02170036 83070 1020  POK
0119039760999991973052100004+54233-010000FM-12+000999999V0200601N00301010501CN0200001N9+01001+00901100051ADDAA106000591AY151999GA1021+004509079GA2051+010509059GF106991061051004501999999MD1110081+9999MW1211EQDQ01  00053PRCP99
0091723346038111973071811004+35600-088917SAO  +0132MKL  V0209991C000012200019N0012001N1+02161+02001101901ADDGD16991+0001599GD22991+0750099GF102991999999999999999999MA1101961999999MW1111REMAWY002F1
0065723445939931973091514004+36000-094167SAO  +0381FYV  V0209991C00001000151WN0000001N1+01271+01271101981ADDGD15991+0001599GF109991999999999999999999MA1102031999999MW1451
0064844550999991973062722004-06483-076367FM-15+0283SPST V0203601N00301220001CN0112001N1+03001+02201999999ADDGA1021+009009089MA1101391999999REMMET002CYEQDQ01+000000PRSWM2
0057316550999991973111918004+49450+136567FM-12+003399999V0209991C00001220001CN0500001N9-01601-01701101031ADDAY111999GF100991001001999999001001MD1210161+9999MW1021
0112725946242861973030215004+41783-124233SAO  +0017CEC  V0200801N002512200019N0560001N1+00271+00001999999ADDGD13991+1050093GF107991999999999999999999MA1102441999999MD1510031+9999MW1001REMAWY005/ 503EQDQ01+101443APOSLP
0117469020999991973021100004+10717+115833FM-12+000599999V0200601N00771220001CN0200001N9+02601+99999101501ADDAA199000091AJ100009199999999AY101999GF102991021011008001001001IA1009KA1999N+02601MW1021UA1M080159999REMSYN00524000
0067600350999991973011718004+28450-013867FM-15+0022GCFV V0203401N00821220001CN0100001N9+01701+00501999999ADDGA1041+005709089MA1102401999999REMMET005NOSIGEQDQ01+000000PRSWM2
0087033910999991973090417004+53100-000167FM-12+0008EGXC V0202001N00461075001CN0090001N9+02401+01501101311ADDAY111999GA1051+075009009GF105991001001999999001011MD1610161+9999MW1041REMSYN00585075
0073109290999991973032703004+47667+009183FM-12+039999999V0200801N00051012901CN0017001N9+00601+00401102061ADDAY121999GA1071+012909059GF107991071051012501999999MD1810081+9999MW1101
0100915550999991973072000004-16417+167800FM-12+002199999V0202201N00361009001CN0150001N9+02701+02401101281ADDAA124000091AY181999GF106991061081004501001001MW1151UA1M990339999REMSYN00570050EQDQ01  00003PRCP99
0069844520999991973012111004-06783-079833FM-15+0028SPHI V0201801N00611045001CN0100001N9+02301+02101999999ADDGA1021+012009059GA2061+045009039MA1101191999999EQDQ01+000000PRSWM2
0097021480999991973032218004+58617+016117FM-12+0027ESCK V0202901N00511220001CN0080001N9+00601+00301100901ADDAA199000091AY101999GA1031+010509059GF103991031051012501001001KA1999M+00901MD1510021+9999MW1101
0109726557149101973040712004+45867-095400SAO  +0434AXN  V0203301N00661009001EN0224001N1-00051-00441101951ADDGD14991+0090099GF108991999999999999999999KA1999N-00231MA1101801999999MD1210151+9999MW1001REMAWY008/ 215 28
0103727575949251973040409004+47950-097400SAO  +0278RDR  V0203501N003012200019N0400001N1-00161-00721102511ADDGD12991+0600013GF102991999001999999001081MA1102401999999MD1210071+9999MW1001REMAWY015AURBO/ 207 1008
0107600200999991973080306004+28450-016250FM-12+004699999V0209991C00001220001CN0300001N9+02101+01501102031ADDAA124000091AY101999GF100991001001999999001001KA1999N+02101MD1610011+9999MW1001REMSYN01770021 94095 91818
0065726416149211973090620004+43217-090183SAO  +0219LNR  V0203101N005112200019N0240001N1+02271+00881999999ADDGD12991+0150099GF102991999999999999999999MA1101901999999MW1001
0063034990999991973052512004+52717+002300AERO +000599999V0209991C000019999999N0000501N9+99999+99999999999ADDAY141999GF109991999999999999999999MW1431REMSYN01141110 11461
055772635094860197308010000C+42883-085517SY-SA+0239GRR  V0202405N002150182949N0096005N1+02115+01945101215ADDAA101000095AA206017091AA324017091AJ100009199999999AL10699999AY191999GA1999+001834134GA2999+004574134GA3999+018294034GA4999+999999999GD12025+0018099GD22025+0045099GD33025+0180099GD40005+9999999GF106065041071002501071991KA1999M+02701KA2999N+02001MA1101251098345MD1710051+9999MW1055MW2291REMSYN02369835 76710 20067 48168AWY006/ RE20EQDQ01  01703PRCP99N01 08100JPWTH 1QNNE11 1 00202E11 1 00203E11 1 00403E11 1 00000G11 1 00060H11 1 13006H11 1 13015H11 1 23060H11 1 00999K11 1 00067L11 1 00600M11 1 29040N11 1 08100Q11 1 10121S11 1 00070V11 1 00808X11 1 24004
0028160700999991973091414504+45950+009383FM-15+2403LIMD V0203501N002519999999N0000001N1+99999+99999999999ADDMW1441EQDQ01+000452PRSWM2
0087269870999991973120209004+52750+032250FM-12+017099999V0203601N01001000901CN0010001N9-01201-01301100541ADDAY171999GA1061+000909079GF108991061071001501011999MD1210341+9999MW1731REMSYN00586703
0084107655999991973072100004+49383+011183FM-15+0381EDIG V0209991C000010240019N0112001N1+01601+01301999999ADDGA1051+024009039GA2021+060009009MA1100951999999REMMET006CIG080EQDQ01+000000PRSWM2
0037856570999991973112722004-35867-071550FM-15+0158SCLN V0202201N00301999991CY0099001N1+02801+01201999999ADDMA1100911999999EQDQ01+000000PRSWM2
0150338690999991973010506004+46800+033500FM-12+004399999V0209991C00001002101CN0020001N9+00001-00101102621ADDAA199000091AJ100009199999999AY121999GA1051+002109079GA2031+004809059GF108991081051004501999999IA1009KA1999N+00001MD1110031+9999MW1101REMSYN00525300
0078527130999991973111721004+37833+095300FM-12+300099999V0209991C00001220001CN0500001N9-01401-02601999999ADDAY101999GF100991001001999999001001MA1999999069751MW1021REMSYN01166975 00000
0037406890999991973090713004+30567+047783FM-15+0002ORMM V0203101N00461999991CY0099001N1+04201+02102999999ADDMA1100201999999EQDQ01+000000PRSWM2
0057075350999991973120209004+44750+001400FM-12+025999999V0203601N00361220001CN0200001N9+00501-00901102411ADDAY101999GF100991001001999999001001MD1210371+9999MW1021
0084722286938061973121815004+33217-087617SAO  +0051TCL  V0201201N003612200019N0128001N1+00271-00881102641ADDGF100991999999999999999999MA1102641999999MD1210171+9999MW1001REMAWY011FEW AC/ 217
0082401040999991973122612004+33367+035583FM-12+077399999V0202601N00981220001CN0100001N9+01201+00701999999ADDAA199000091AY101999GF103991031021008001001001MD1710151+9999MW1031REMSYN005700//
0118361040999991973040500004+51483+095533FM-12+070699999V0201101N00301220001CN0500001N9-00401-00601999999ADDAA199000091AJ100009199999999AY101999GF100991001001999999001001IA1189KA1999N-00401MD1210141+9999MW1021REMSYN00525750
0073343630999991973053103004+50100+045400FM-12+012299999V0203601N00501015001CN0240001N9+01401+01001100741ADDAY121999GA1081+015009059GF108991081051017501999999MD1710021+9999MW1021
0114999999999991973041600004+36000+170000FM-13+0000JQAS V0201801N01031002101CN0200001N9+01351+00801101501ADDAY121999GF107991051051002501091999MD1710101+9999MW1021UA1M050209999UG1130402709REMSYN0230//08 11555 30504 27308
0065722656230401973021408004+31783-103200SAO  +0859INK  V0200301N00251060001EN0400001N1+00331-00051101891ADDGD13991+0600099GF107991999999999999999999MA1102001999999MW1001
0076839710999991973092206004-30000-051183FM-12+0003SBPA V0201201N00411220001CN0200001N9+01201+00801102382ADDAY101999GF100991001001999999001001MD1710121+9999MW1001EQDQ01+102383APOSLP
0095112120999991973100718004+46600+013667FM-12+214099999V0200901N00721000151CN0000001N9+00301+00301999999ADDAA199000091AY141999GF109991091999999999999999KA1999M+00901MD1710071+9999MW1471REMSYN00570009
0079747960128041973041115004+27633-081333SAO  +0023AGR  V0203301N004612200019N0160001N1+01611+00661102411ADDGF100991999999999999999999MA1102401999999MW1001REMAWY020/ /// PA B-169 C-229
0057318950999991973060215004+45267+135500FM-12+033599999V0200701N00201036001CN0500001N9+00901+00701101691ADDAY111999GF108991081001999999031999MD1210151+9999MW1021
0079762252999991973032017004+28700-105967SAO  +1354CUU  V0202901N004110066019N0400001N1+01301+00901999999ADDGD12991+0045099GD23991+0066099GF107991999999999999999999MW1001REMAWY00580007
0043630130999991973050812004+15550+037883FM-12+0626HAAG V0202501N00101220001CN0400001N9+03901+00501100041ADDAY101999GF103991031021008001001001MW1031
0037081830999991973073017004+41917+002767FM-15+0143LEGE V0201601N00511999991CY0099001N1+02601+01601999999ADDMA1101591999999EQDQ01+000000PRSWM2
0095307640999991973080200004+52650+115267FM-12+064499999V0209991C00001000301CN0002001N9+01601+01601099991ADDAA199000091AY141999GF109991091999999999999999KA1999N+01501MD1210051+9999MW1451REMSYN00570015
0119724457039381973092320004+37733-092150SAO  +0356TBN  V0201201N001012200019N0096001N1+02661+02001999999ADDGD12991+0084099GD24991+0750093GF108991999999999999999999MA1101801999999MW1051REMAWY030MKJT AMOS MMM/ MM/ MM/MMMM/MMM
0068154800999991973080211304+44350+028483FM-15+0101LRCK V0200601N00461220001CN0112001N1+02601+01201999999ADDGA1021+012009089MA1101901999999REMMET006NOSIG%EQDQ01+000000PRSWM2
0073104380999991973031921004+51317+009483FM-12+015899999V0203101N00151012001CN0250001N9+00501-00101102631ADDAY121999GA1071+012009059GF107991071051012501999999MD1210151+9999MW1021
0086727390999991973030618004+48567-081367FM-12+0296YTS  V0201501N00511004201CN0110001N9+00201+00001102321ADDAY121999GF108991081051004501999999MA1999999098601MD1810051+9999MW1021REMSYN00543  5
0043823320999991973020705004-03150-059983FM-12+0084SBMN V0209991C00001045001CN0200001N9+02501+02301101201ADDAY121999GF105991051001999999031001MW1021
0071364430999991973072006004+49967+086700FM-12+205099999V0201701N00401012001CN0500001N9+01201+00201999999ADDAY121999GF107991071091012501001001MD1210071+9999MW1021REMSYN00591111
0108999999999991973050300004+29500+140500FM-13+00006LJA V0202301N01651012001CN0100001N9+02401+99999101101ADDAY111999GF106991061081008001999999MD1410001+9999MW1031UA1M040309999UG1079992309REMSYN01712300 30406 23716
0056480530999991973101003004+20883+095900FM-12+021399999V0201801N00101036001CN0100001N9+02601+02401100911ADDAY121999GF107991041051004501071001MW1011REMSYN004.944
0115702315999991973033122004+63033-155967SAO  +0294PATL V0200401N001510090019N0160001N1+00161-00271999999ADDGD12991+0021099GD22991+0045099GD34991+0090099GF108991999999999999999999MA1100781999999MW1001REMAWY011MAG82 PSR05
011872414013866197306290800D+38367-081600SAO  +0298CRW  V0201901N00201009901MN0064001N1+01611+01551100751ADDAA101000095GD13991+0099099GF107991999999999999999999MA1100811097391MW1111REMAWY014PTCHY GF ALQDSEQDQ01+999990APOSP 
0081724631999991973033115004+38117-102600SAO  +11034LJ  V0203301N00511015001EN0240001N1+00161+00001100911ADDGD13991+0150099GF107991999051999999001001MD1210121+9999MW1001REMAWY008212 1500
0077605250999991973062300004+34800+005733FM-12+0056DAUB V0203601N00571220001CN0100001N9+03001+01501101221ADDAY101999GF100991001001999999001001MD1110091+9999MW1021REMSYN01195990 10113
0041728050999991973120216004+46783-056183FM-15+0005FSP  V0203401N00411010801CN0112001N1+99999+99999999999ADDGA1031+006909089GA2081+010809059MW1851
030872308013737197310270200C+36900-076200SAO  +0007ORF  V0202905N001552200059N0080005N1+01445+01285101255ADDAA101000095GD10995+9999999GD20995+9999999GD30995+9999999GF100005999999999999999999MA1101251101155MW1055REMAWY012?ORF?7/6 9/3EQDQ01+999990APOSP N01 08100JPWTH 1QNNE11 1 00099E11 1 00099E11 1 00099E11 1 00099G11U1 99999K11 1 00055L11 1 00500M11 1 29870N11 1 08100Q11 1 10125S11 1 00058V11 1 00000X11 1 29003
0079787920999991973022611004+09083-079383FM-15+0045MPTO V0202701N00151220001CN0100001N9+02301+02101999999ADDGA1011+007509089GA2031+090009029MA1101021999999REMMET001SEQDQ01+000000PRSWM2
0068387910999991973091000004+38683+061167FM-12+014799999V0202901N00501220001CN9999999N9+02001-00101101091ADDAA199000091GF102991021091012501001001MD1210301+9999REMSYN005700//
0057216360999991973122118004+73383+139767FM-12+002699999V0200901N00101220001CN0100001N9-03001-03201102951ADDAY101999GF100991001001999999001001MD1710061+9999MW1021
0092655780999991973031103004+05250-003933FM-12+0006GIII V0202201N00101015001CN0020001N9+02901+02901100951ADDAY111999GA1081+015009059GF108991999051012501999999MD1010001+9999MW1051EQDQ01+000002SCOTLC
0122999999999991973083106004+19400+143900FM-13+0000JRYT V0200701N00311220001CN0200001N9+02901+02401101231ADDAY101999GF102991021091004501061999MD1710151+9999MW1021SA1+3009UA1M050109999UG1050101109REMSYN0230//24 13000 30502 11502
0104724810232031973121401004+37367-120567SAO  +0057MER  V0203401N00151001501EN0048001N1+01051+01001999999ADDGD13991+0015099GD24991+0024099GF108991999999999999999999MA1101691999999MW1451REMAWY015CIG RDG WET RWY
0059107290999991973082713004+49533+008500AERO +009799999V0201301N00151220001CN0140001N9+02701+01201999999ADDAY101999GA1011+018009089GF101991999999999999999999MW1021
0097071470999991973053106004+48767+002200FM-12+0177LFPV V0202201N00611002401CN0110001N9+01501+01401100791ADDAA199003091AY151999GA1081+002409059GF108991081051002501999999KA1999N+01401MD1310031+9999MW1031
042672326013891197312250300C+35817-083983SAO  +0276TYS  V0201405N00625076204EN0192005N1+01285+00115102155ADDAA101000095GA1999+076204024GA2999+999999999GA3999+999999999GA4999+999999999GD14085+0750099GD20005+9999999GD30005+9999999GD40005+9999999GF108075999999999999999999MA1102131098585MD1810071+9999MW1001REMAWY009807 1007QEQDN01 00000JPWTH 1QNNE11 1 00610E11 1 00000E11 1 00000E11 1 00000G11 1 00250H11 1 37250H11 1 00999H11 1 00999H11 1 00999K11 1 00034L11 1 01200M11 1 29110N11 1 00000Q11 1 10215S11 1 00055V11 1 01009X11 1 14012
028772456013996197310180800C+39067-095633SAO  +0267TOP  V02099959000052200059N0160005N1+00835+00725102305ADDAA101000095GD10995+9999999GD20995+9999999GD30995+9999999GF100005999999999999999999MA1102341099125MW1001EQDQ01+999990APOSP N01 00000JPWTH 1QNNE11 1 00099E11 1 00099E11 1 00099E11 1 00099G11U1 99999K11 1 00045L11 1 01000M11 1 29270N11 1 00000Q11 1 10230S11 1 00047V11 1 00000X11 1 00000
0024160990999991973112518004+45650+012183FM-15+0018LIPH V0209991C00001220001CN0009001N1+00601+00401999999ADDMA1101491999999MW1441
0078527870999991973112700004+37183+103083FM-12+303999999V0201601N00501220001CN0500001N9-00801-02401999999ADDAY101999GF100991001001999999001001MA1999999070621MW1021REMSYN01167062 00202
0091034180999991973021315004+52867-002533AERO +0082EGOE V0203101N00611066001CN0080001N9+99999+99999999999ADDAY181999GA1011+004509099GA2031+006009089GA3051+066009009GF106991999999999999999999MW1261
0136334290999991973101818004+49400+026983FM-12+019599999V0202901N00601003601CN0100001N9+00701+00701100941ADDAA199003091AY161999GA1081+003609079GF108991999071004501021999KA1999M+01001MD1710061+9999MW1601REMSYN01170310 88712EQDQ01+000082SCOTLC
0050722286938061973101008004+33217-087617SAO  +0051TCL  V0200901N003012200019N0128001N1+02001+01771101751ADDGF100991999999999999999999MA1101761999999MW1001
0065727856999991973121810004+47683-117317SAO  +0595SFF  V0202001N00251000301WN0004001N1+00271+00221999999ADDGD15991+0003099GF109991999999999999999999MA1102541999999MW1451
0057272170999991973051203004+57783+036700FM-12+014099999V0200901N00401220001CN0500001N9+00401+00201102071ADDAY101999GF100991001001999999001001MD1710131+9999MW1021
0067467460999991973102523354+23467+120383FM-16+0025RCKU V0209991C00001220001CN0040001N1+99999+99999999999ADDGA1021+003609079GA2031+036009039MW1111REMMET017VSBY S 2400M N00M
0083080420999991973011512004+42900-008417FM-15+0370LEST V0202701N00921007501CN0100001N9+00701+00501999999ADDGA1041+004509089GA2051+007509059MA1101391999999REMMET005NOSIGEQDQ01+000000PRSWM2
0113727390999991973080502004+48567-081367SAO  +0296YTS  V0202201N001512200019N0240001N1+01881+01221101711ADDGD12991+0150099GD22991+0660093GF102991999999999999999999MA1101691098191MW1001REMAWY005SC1CIEQDQ01+999990APOSP 
0080014940999991973081408504+59383+010783FM-15+0054ENRY V0200901N00151003001CN0070001N1+01701+01601999999ADDGA1071+003009079MA1102711999999REMMET018GRADU 9999 4SC015%EQDQ01+000000PRSWM2
0087125950999991973040712004+50717+023250FM-12+021299999V0202301N00601007501CN0200001N9+01601+00401100591ADDAA106000091AY121999GF107991071051008001999999MD1710061+9999MW1031EQDQ01  00003PRCP99
0050745060232391973060514004+37783-122317SAO  +0005NGZ  V0202401N00101001201MN0096001N1+01221+00881101811ADDGD14991+0012099GF108991999999999999999999MW1451
0065655070999991973061700004+12050+000350FM-12+030899999V0202001N00311220001CN0200001N9+02801+02101100871ADDGA1041+069009009GF104991001001999999001021MW1001REMSYN00584073
0145034820999991973072200004+52650+000567FM-12+0024EGYM V0202501N00261015001CN0060001N9+01301+01301100661ADDAA106003091AY191999GA1011+000309079GA2051+015009059GF106991061051000251999999MD1310041+9999MW1101REMSYN017703// 81701 85650EQDQ01  00303PRCP99
0086595680999991973122103004+22033+121550FM-12+999999999V0200201N01001220001CN0300001N9+02201+01801999999ADDAY121999GF104991999021008001001001MD1810091+9999EQDQ01+000032SCOTLCQ02+000222PRSWM1
0095623330999991973071706004+31283+032233FM-12+0002HEPS V0203201N00151220001CN0140001N9+02701+02101100731ADDAA124000091AY101999GF100991001001999999001001KA1999N+02401MD1310041+9999MW1021REMSYN00570024
0082873110999991973080906004-31567-068417FM-12+0597SASJ V0202301N00211220001CN0200001N9+00301-00701999999ADDAA199000091AY101999GF100991001001999999001001MD1110071+9999MW1021REMSYN005700//
0181726145947051973083100004+44200-072567SAO  +0353MPV  V0202501N00411009001EN0160001N1+02551+01831101671ADDAA106999999GD14991+0090099GF108991999999999999999999KA1999M+03221MA1101761999999MD1310031+9999MW1951REMAWY034TB55 T OVHD MOVG E LTGCC/ 30300 90EQDQ01  00003PRCP99Q02  00002PRCP06
0117319150999991973110921004+44400+131383FM-12+028199999V0202501N00801008101CN0300001N9-00201-01501100261ADDAA199004091AY111999GA1061+008109099GF106991061091008001001001KA1999N-00201MD1210261+9999MW1031REMSYN01170452 86927
0411913480405041973120921003+06967+158217SY-SA+0036PTPN V0201005N00265091444CN0112005N9+02675+02445100815ADDGA1999+006104084GA2999+036584034GA3999+091444004GA4999+999999999GD12025+9999999GD22025+9999999GD34065+9999999GD40005+9999999GF108065021021008001031991MA1999999100305MD1310191+9999MW1021REMSYN005  029EQDN01 00000JPWTH 1QNNE11 1 00202E11 1 00203E11 1 00607E11 1 00000G11 1 00300H11 1 11020H11 1 23120H11 1 32300H11 1 00999K11 1 00076L11 1 00700M11 1 29620N11 1 00000Q11 1 10081S11 1 00080V11 1 01007X11 1 10005
044372688024155197308200300C+45683-118850SAO  +0452PDT  V0203405N002152200059N0400005N1+02445-00225101345ADDAA101000095GA1999+045724034GA2999+999999999GA3999+999999999GA4999+999999999GD12025+0450099GD20005+9999999GD30005+9999999GD40005+9999999GF102025999001999999071991MA1101391096045MD1610031+9999MW1001REMAWY010/ 603 1070EQDQ01+999990APOSP N01 00000JPWTH 1QNNE11 1 00203E11 1 00000E11 1 00000E11 1 00000G11U1 99999H11 1 23150H11 1 00999H11 1 00999H11 1 00999K11 1 00028L11 1 02500M11 1 28360N11 1 00000Q11 1 10134S11 1 00076V11 1 00303X11 1 34004
011072775024143197312151100D+47483-111367SAO  +1119GTF  V0202401N005112200019N0240001N1-00271-00771102261ADDAA101000095GD12991+0360099GD23991+0750093GF107991999999999999999999MA1101901089131MW1001EQDQ01+999990APOSP 
0095259560999991973062409004+60450-169583FM-12+0008APUK V0202501N00501220001CN0500001N9+00701+00501102081ADDAA199000091AY101999GF101991011051008001001001KA1999M+01201MD1210081+9999MW1021REMSYN00570012
0083725450149901973083010004+41883-091700SAO  +0263CID  V0201701N003012200019N0096001N1+02051+01831101631ADDGD12991+0750099GF102991999999999999999999MA1101691999999MW1051REMAWY009?CID?8/17
0094722908999991973032306004+32867-117150SAO  +0147NKX  V0201301N002512200019N0160001N1+00881+00331101471ADDGF100991999999999999999999KA1999M+01381MA1101521999999MD1110081+9999MW1001REMAWY008/ 108 57
0025063440999991973010522554+51967+004450FM-15+0005EHRD V0200301N00201000601CN0020001N9+00301+00201999999ADDGA1081+000609079MW1501
007672654614946197302010800D+44917-097150SAO  +0533ATY  V0209991C00001000151WN0002001N1-00441-00501101111ADDAA101000095GD15991+0001599GF109991999999999999999999MA1100981999999MW1451
0043999999999991973122806004-09200-002900FM-13+0000GCXH V0201601N003619999999N0200001N9+02201+99999101351ADDAY101999GF105991041031999999999999MW1031
0054036731999991973092512204+51867-000350FM-15+0160EGGW V0201601N00301024001CN0090001N1+01601+00801999999ADDGA1041+007809089GA2031+024009039EQDQ01+000000PRSWM2
