0169722026128261974081920004+25483-080383SAO  +0002HST  V0202301N003010300019N0096001N1+02441+02331999999ADDGD12991+0090099GD22991+0150099GD33991+0300099GD43991+0900099GF107991999999999999999999MA1101591999999REMAWY056CB SE-S MOVG E OCNL LTGIC          ?     DSIPTG CB ALQDS
0070722025128491974101308004+26067-080150SAO  +0003FLL  V0200701N007712200019N0160001N1+02561+01941999999ADDGD12991+0075099GF102991999999999999999999MW1001REMAWY011010?FLL?8/9
013072595524259197404180200D+41783-122467SAO  +0807SIY  V0202001N008710750019N0480001N1+01611+00171100791ADDAA101000095GD12991+0300099GD24991+0750099GF108991999999999999999999MA1100781999999MW1001REMAWY030SKW /4-/404/9-8/001/----------
0142336790999991974112606004+48017+028700FM-12+012299999V0201401N00901036001CN0200001N9+00201-00201101921ADDAA199000091AJ100009199999999AY121999GF107991021051012501041021IA1139IA2999-00209KA1999N-00301MD1710121+9999MW1021REMSYN01770053 91116 25230
0150085450999991974030600004+41233-008667SY-MT+0076LPPR V0200601N00301220001CN0099001N1+00401+00201102021ADDAA199000091AY101999GA1031+999999009GF103991001001999999001021MA1102001999999MD1810041+9999MW1031REMSYN011700// 830//MET006CAVOK^EQDQ01+000000PRSWM2
044172552014935197401232100C+40967-098317SAO  +0561GRI  V0202605N00575076204EN0240005N1-00065-00785102325ADDAA101000095GA1999+076204024GA2999+999999999GA3999+999999999GA4999+999999999GD13075+0750099GD20005+9999999GD30005+9999999GD40005+9999999GF107045999001999999001991MA1102031095395MD1510051+9999MW1001REMAWY008505 1008EQDQ01+999990APOSP N01 00000JPWTH 1QNNE11 1 00409E11 1 00000E11 1 00000E11 1 00000G11 1 00250H11 1 37250H11 1 00999H11 1 00999H11 1 00999K11 1 00018L11 1 01500M11 1 28170N11 1 00000Q11 1 10232S11 1 00031V11 1 00905X11 1 26011
0080724395999991974092713004+38883-090050SAO  +0166ALN  V0209991C000010600019N0004001N1+99999+99999999999ADDGD16991+0001599GD23991+0600099GF107991999999999999999999MA1104131999999MW1111
0095727145999991974070715004+46350-072683SAO  +0060YRQ  V0203101N00201005401EN0192001N1+02221+01781101621ADDGD13991+0054099GF107991999999999999999999MA1101591999999MD1010011+9999MW1001REMAWY007CU8 001
0095671370999991974102206004-21433+047117FM-12+1115FMSF V0202601N00511220001CN0400001N9+02201+01101999999ADDAA124000091AY111999GF102991011011008001001021KA1999N+01401MD1210111+9999MW1021REMSYN00570014
0059036930999991974091616004+51533+000817AERO +000299999V0200801N00361012001CN0020001N9+01801+01601999999ADDAY121999GA1071+012009089GF107991999999999999999999MW1051
0086587260999991974010121004+27350+117500FM-12+061599999V0203201N00501220001CN0250001N9+01001-02201102421ADDAY101999GF100991001001999999001001MA1999999086051MD1710011+9999MW1021REMSYN00568605
0053789880999991974041807004+12200-068967FM-15+0008MACC V0200901N00771220001CN0112001N1+02501+02101999999ADDGA1031+004809089MA1101291999999EQDQ01+000000PRSWM2
0275700636274051974071822003+70250-148350SAO  +0014PUO  V0200705N00315021344EN0240005N9+01065+00725999999ADDGD13995+0210099GD23995+0360099GD34995+0600099GD40995+9999999GF108085999999999999999999MA1100341999999MW1001REMAWY013BINOVCV??&/5.EQDN01 00000JPWTH 1QNNE11 1 00499E11 1 00499E11 1 00699E11 1 00099G11 1 00070K11 1 00045L11 1 01500N11 1 00000S11 1 00051V11 1 01010X11 1 07006
0057333120999991974011403004+50600+027617FM-12+021899999V0200901N00101220001CN0230001N9-01501-01801103921ADDAY101999GF100991001001999999001001MD1710071+9999MW1021
0074915680999991974041721004-20233+169767FM-12+000699999V0200901N00361012001CN0280001N9+02601+02101101211ADDAA199000091AY121999GF105991051081008001001001MW1021REMSYN0117//20 52019
0100722269038501974081723004+31267-085717SAO  +0093OZR  V0203201N002012200019N0240001N1+03171+02171999999ADDGD12991+0105019GD22991+0750019GF102991999999999999999999MA1101521999999REMAWY017CB 22SSE MOVG ESE
0079788010999991974050110004+09367-079950SAO  +0003MBFS V0200501N001012200019N0064001N1+02611+02391101401ADDGD12991+0030099GF102991999999999999999999MA1101351999999MW1051REMAWY005TCU S
0057105460999991974010905004+50633+010150FM-12+048799999V0201801N00401000601CN0019001N9+00001+00001101401ADDAY121999GF108991081071000751999999MD1210021+9999MW1711
0058080750999991974120113004+42367-003633FM-15+0890LEBG V0200701N00301999991CY0099001N1+01201+00601999999ADDMA1102811999999REMMET012CAVOK NOSIG%EQDQ01+000000PRSWM2
0078162140999991974041219004+42033+011833FM-15+0003LIQJ V0201401N00611006001CN0112001N1+99999+99999999999ADDGA1061+006009059REMMET031QUK / QUL / VIS MAR 10 KM 1002%EQDQ01+000000PRSWM2
0122999999999991974120812004+29700-014300FM-13+0000PFRG V0200501N00311220001CN0200001N9+02221+01001102291ADDAY101999GF101991011021002501001001MD1210041+9999MW1021SA1+1809UA1M020059999UG1120103609REMSYN0230//10 11802 30201 36202
0053010250999991974030412504+69683+018917FM-15+0010ENTC V0201901N00461220001CN0112001N1+00201-00601999999ADDGA1011+030009039MA1103691999999EQDQ01+000000PRSWM2
0095306860999991974083012004+53467+122400FM-12+061099999V0209991C00001075001CN0450001N9+01601+01201101601ADDAA199000091AY121999GF108991001001999999001071KA1999M+02401MD1310021+9999MW1021REMSYN00570024
0136273730999991974081106004+57667+046633FM-12+015899999V0200501N00201010201CN0220001N9+01801+01601101721ADDAA199000391AY181999GA1081+010209059GF108991081051012501999999KA1999N+01401MD1810021+9999MW1021UA1M141009999REMSYN01779314 88  4 31420
0043941320999991974062611004-14450+132267FM-12+0108ADKN V0209991C00001220001CN0300001N9+02201+01801101391ADDAY101999GF100991001001999999001001MW1021
0122999999999991974011400004+09200+102400FM-13+0000GJKE V0201201N00721002101CN0200001N9+02461+02101101171ADDAY101999GF107991061021002501011001MD1510021+9999MW1031SA1+2609UA1M030159999UG1140200909REMSYN0230//21 12606 30303 09404
0057344760999991974101909004+49133+046850FM-12+001199999V0202901N00401220001CN0040001N9+01501+01001102071ADDAY111999GF102991001001999999001011MD1210041+9999MW1101
0068433110999991974021512004+11117+072733FM-12+000399999V0209991C00001220001CN0100001N9+02901+02301100821ADDAA199000091AY111999GF103991031051008001001001MW1011REMSYN005700//
0106723495139871974081503004+37150-094500SAO  +0299JLN  V0209991C00001024001EN0240001N1+02501+02061101661ADDGD13991+0240099GD24991+0750099GF108991999999999999999999MA1101761999999MD1210171+9999MW1001REMAWY003217
0117722031999991974011214004+26683-080100SAO  +0006PBI  V0202901N002512200019N0112001N1+02111+01771102341ADDGD12991+0090099GD22991+0240099GD32991+0840099GF102991999999999999999999MA1102341999999MW1001REMAWY013VSBY LWR SE-S
0057119300999991974040309004+49200+020217FM-12+263399999V0201301N00201220001CN0500001N9-00301-01801999999ADDAY101999GF102991001001999999001021MD1210051+9999MW1021
011072411013741197409172300D+37317-079983SAO  +0358ROA  V0201701N002510240019N0080001N1+01891+01721101381ADDAA101000095GD12991+0105099GD23991+0240099GF107991999999999999999999MA1101461097241MW1051EQDQ01+999990APOSP 
0131032220999991974051017004+54933-002800FM-12+0059EGNC V0201401N00881007801CN0300001N9+01501+00601099301ADDAY111999GA1011+005109079GA2011+006609099GA3031+007809089GF107991071091004501999021MD1810061+9999MW1151REMSYN01781717 81922 83826
0095284280999991974080515004+56500+056133FM-12+014299999V0200201N00201220001CN0250001N9+01801+01101100501ADDAA199000091AY111999GF102991001001999999001021KA1999M+02201MD1210091+9999MW1011REMSYN00570022
0065723601230071974030101004+34433-100300SAO  +0595CDS  V0201301N003012200019N0240001N1+01781+00561101721ADDGD14991+0750093GF108991999999999999999999MA1101731999999MW1001
0136071490999991974100909004+48733+002400SY-MT+0089LFPO V0203201N00561004501CN0080001N1+01001+00801101491ADDAY161999GA1051+004509079GA2071+013809059GF108991071071004501999999MA1101491999999MD1210191+9999MW1211REMSYN01185715 87646MET006NOSIG%
0057267130999991974112403004+54650+022767FM-12+005799999V0201401N00201007501CN0170001N9+00001-00201102821ADDAY121999GF108991081051008001999999MD1010001+9999MW1021
0281725945242831974032300003+40983-124100SAO  +0062ACV  V0203305N004652200059N0240005N1+01115+00675102075ADDGD10995+9999999GD20995+9999999GD30995+9999999GF100005999999999999999999MA1102031101225MW1001REMAWY012FEW SC ALQDSEQDN01 00000JPWTH 1QNNE11 1 00099E11 1 00099E11 1 00099E11 1 00099G11U1 99999K11 1 00044L11 1 01500M11 1 29890N11 1 00000Q11 1 10207S11 1 00052V11 1 00000X11 1 33009
0152728610999991974120400004+50383-102583SY-SA+0599YDR  V0201801N002512200019N0240001N1-00661-00771101611ADDAY111999GD12991+0750093GF102991001001999999001011KA1999M-00171MA1101221094211MD1510021+9999MW1031REMSYN01169421 42920AWY007CI1 502EQDQ01+000003PRSWM2
0089032110999991974032209004+54517-003633AERO +009499999V0201701N00971060001CN0100001N9+00701+00501999999ADDAY121999GA1031+030009039GA2051+060009009GF106991999999999999999999MW1051REMSYN005954.%
0110466970999991974102020004+25067+121233FM-15+0050RCGM V0200301N00821002101CN0060001N1+02301+02201999999ADDGA1051+002109999GA2081+009009999MA1101191999999MW1611REMMET0452989INS          ?     CIG007 RAIN AMT 0.4MM%
0091786390999991974072719004+14517-091700FM-15+0200MGRT V0202401N00411060001CN0112001N1+03101+02201999999ADDGA1011+007509999GA2081+060009999MA1101391999999REMMET013TCU N/SSE/SW%EQDQ01+000000PRSWM2
0040132090999991974041400304+44900+013917FM-15+0067LYPL V0200701N00611012001CN0112001N1+01001+00801999999ADDGA1081+012009059MA1100511999999MW1211
0083108050999991974102800004+48367+007833FM-15+0154EDAN V0202701N005610075019N0112001N1+00601+00401999999ADDGA1031+000909999GA2081+007509999MA1100711999999MW1611OC101131REMMET010CIG025 SF%
0093723525939861974052601004+34983-099050SAO  +0477HBR  V0202801N004112200019N0320001N1+02561+01721101021ADDGD12991+0105099GF102991999999999999999999MA1101191999999MW1001REMAWY019?HBR C5/28?2/9 5/25
0122999999999991974121812004-13600+092700FM-13+0000PDIR V0201401N00771002101CN0200001N9+02611+02001101061ADDAY121999GF105991051011002501001001MD1310031+9999MW1011SA1+2599UA1M050209999UG1080251409REMSYN0230//20 12591 30504 14805
0146154800999991974060909004+44350+028483SY-MT+0101LRCK V0201401N00701220001CN0100001N1+02101+01501101831ADDAY101999GA1011+009009999GF103991031021012501001001MA1101801999999MD1510051+9999MW1031UA1M990039999REMSYN00591828MET006NOSIG%EQDQ01+000000PRSWM2
0079747187031041974032903004+33633-116167SAO  -0036TRM  V0202901N008212200019N0160001N1+02061+00891101801ADDGF100991999999999999999999MA1101801999999MW1001REMAWY020DH ALQDS 400?TRM?3/5
0383999999938361974051409005+31250-081467SAO  +0009NEA  V02099959000052200059N004000599+01394+01285101514ADDGA1999+076204004GA2999+999999999GA3999+999999999GA4999+999999999GD11035+9999993GD20005+9999999GD30005+9999999GD40005+9999999GF103005999999999999999999MA1999999101424MW1445EQDN01 07200JPWTH 1QNNE11 1 00104E11 1 00000E11 1 00000E11 1 00000G11U1 99999H11 1 32250H11 1 00999H11 1 00999H11 1 00999K11 1 00055L11 1 00250M11 1 29950N11 1 07200Q11 1 10151S11 1 00057V11 1 00400X11 1 00000
0115702735264091974112116004+61217-149833SAO  +0041MRI  V0203601N006110150019N0112001N1+99999+99999999999ADDGD12991+0039099GD23991+0150099GD34991+0270099GF108991999999999999999999MA1098371999999MW1701REMAWY011-?MRI?11/22
019872228013876197408291900D+33567-086750SAO  +0196BHM  V0200901N001010900019N0112001N1+02671+02441101611ADDAA101000095GD12991+0075099GD22991+0300099GD34991+0900099GF108991999999999999999999MA1101691099401MW1001REMAWY064TE02 MOVD NE RB01/PK WND 33/11 M54       ?/CB  ALQDS RADAT 00139EQDQ01+999990APOSP 
0063162160999991974082710004+42433+012067FM-15+0295LIRV V0202701N00051220001CN0112001N1+99999+99999999999ADDGA1021+009009999REMMET016MON E SE LIB NC%EQDQ01+000000PRSWM2
0063727300999991974120622204+46617-080800SAOSP+0341YSB  V0201801N00611004501EN0128001N1+99999+99999999999ADDGD14991+0045099GF108991999999999999999999MW1001REMAWY004SF10
010694300099999197411090000N-24880+113670AUST +0007     V0201805N010359999999N999999999+02105+01505999999ADDAY134999GA1005+999999999GA2005+999999999GA3015+999999999GF101995004999999999999055MA1999999101015MW1015
004672583524119197404041700D+40600-116883SAO  +1381BAM  V0200501N003012200019N0640001N1+00391-00431999999ADDAA101000095GF100991999999999999999999MW1001
0057916990999991974080900004-20667-178717FM-12+002799999V0201801N00361009001CN0100001N9+02301+02101101371ADDAY161999GF108991051081004501071999MW1051REMSYN00579.49
0080723125938461974072001004+34500-082717SAO  +0238AND  V0202801N003010750019N0048001N1+02561+02221101711ADDGD12991+0150099GD24991+0750099GF108991999999999999999999MA1101761999999MW1051
0057102910999991974050520004+53017+014000FM-12+004899999V0200101N00601002101CN0040001N9+00501+00401100801ADDAY121999GF108991071071002501999999MD1210111+9999MW1601
0057241050999991974102815004+68467+102367FM-12+020099999V0203201N00101075001CN0200001N9-02201-02601102991ADDAY171999GF108991031001022501041071MD1210021+9999MW1021
009194999900296197402102200N-36870+145730AUST +0506     V02099999999999999999N999999999+01755+01105999999ADDAY124999GA1005+999999999GA2005+999999999GA3045+999999999GF104995004999999999999045MW1025
034772438093819197402110500C+39733-086283SAO  +0241IND  V0203005N007250103649N0128005N1-00505-00895101935ADDAA101000095GD12995+0057099GD24995+0105099GD30995+9999999GD40995+9999999GF108085999999999999999999MA1101831098925MW1855OC101081REMAWY028CIG RGD %V? WND 270V340 SB47EQDQ01+999990APOSP N01 05000JPWTH 1QNNE11 1 00299E11 1 00699E11 1 00099E11 1 00099G11 1 00034K11 1 00016L11 1 00800M11 1 29210N11 1 05000Q11 1 10193S11 1 00023V11 1 01010X11 1 30014
0065722266138501974062810004+32333-086983SAO  +0050SEM  V0209991C000012200019N0112001N1+01441+01171999999ADDGD12991+0360099GF102991999999999999999999MA1101521999999MW1001
0129875710999991974101917004-34600-058600FM-12+0018SADB V0202701N004119999999N0070001N9+01601+01401101521ADDAY161999GA1011+012009099GF108991999081999999021999MD1510031+9999MW1631REMSYN01281940 1014.0EQDQ01+000082SCOTLCQ02+000992SCOLCB
0117333560999991974082618004+50217+031800FM-12+012899999V0203501N00101006901CN0070001N9+01601+01401101931ADDAA199000091AY121999GA1071+006909099GF107991071051008001001001KA1999M+02001MD1210021+9999MW1101REMSYN01170020 87923
0114729160999991974110921004+63333-090717SAO  +0006YCS  V0200201N005112200019N0240001N1-01661-01821101531ADDGD12991+0015093GF102991999999999999999999MA1101521101521MD1110031+9999MW1001REMAWY007SF1 103EQDQ01+999990APOSP 
0080725625999991974091316004+40200-100583SAO  +0786MCK  V0201801N005112200019N0240001N1+01001+00331999999ADDGD12991+0150099GD22991+0300099GF102991999999999999999999MA1102841999999MW1001
0152232190999991974082018004+67083+059383FM-12+008199999V0200201N00201001501CN0190001N9+00701+00601099811ADDAA199999999AY161999GA1081+001509049GF108991999071001501021999KA1999M+01101MD1710011+9999MW1601REMSYN01170011 88505EQDQ01+000082SCOTLCQ02  00002PRCP99
0094727995999991974082716004+48367-123750SAO  +0031WIR  V0209991C000012200019N0160001N1+01721+01281101651ADDGD12991+0750093GF102991999999999999999999MA1101661999999MW1001REMAWY020CI1 SHER PT WND 0906
0107727825999991974011814004+47400-120200SAO  +0379EAT  V0209991C00001002401WN0012001N1+00001-00111100811ADDGD15991+0024099GF109991999999999999999999MA1100711999999MW1451MW2711REMAWY027?EAT 1/8 11-29 CLSD?1/2 1/4
0106032440999991974092702004+55300-001633FM-12+004299999V0202601N00101220001CN0250001N9+00101+00001100321ADDAY101999GA1011+018009059GF101991011051017501999001MD1710141+9999MW1021REMSYN00581656EQDQ01    003SCOMCG
0082478000999991974050518004+34200+129300FM-12+002199999V0203601N00461090001CN0300001N9+01301+00501101611ADDAA199000091AY111999GF107991001001999999001071MD1010001+9999MW1021REMSYN00540000
0065722577999991974033116004+31150-097400SAO  +0208TPL  V0201701N009212200019N0240001N1+02441+01781999999ADDGD12991+0750093GF102991999999999999999999MA1100371999999MW1001
0122724177137341974090815004+39400-077983SAO  +0169MRB  V0202001N002510036019N0112001N1+02171+01721102251ADDGD12991+0021099GD24991+0036099GF108991999999999999999999MA1102301999999MD1210101+9999MW1001REMAWY019HIER CLDS VSBL/ 210
0057309110999991974071609004+50733+102833FM-12+117099999V0209991C00001015001CN0500001N9+01801+01601999999ADDAY181999GF107991071091017501001001MD1710101+9999MW1191
0078560340999991974100621004+33800+097133FM-12+441999999V0202901N005019999999N0200001N9+00001-00501999999ADDAY121999GF108991001001999999071999MA1999999059791MW1031REMSYN01165979 00201
0076724075137351974022809004+39367-075067SAO  +0027MIV  V0201901N004112200019N0112001N1+00061-00161102681ADDGF100991999999999999999999MA1102611999999MD1710171+9999MW1001REMAWY003717
0077467580999991974081708004+22700+120483FM-15+0029RCSQ V0202801N00201007501CN0112001N1+03301+02601999999ADDGA1061+007509999MA1100001999999REMMET0152952INS CIG025%EQDQ01+000000PRSWM2
024372253612911197404150300D+29533-098283SAO  +0232RND  V0209991C000010480019N0176001N1+01671+00501102001ADDAA101000095GD12991+0135099GD22991+0240099GD34991+0480099GF108991999091999999071999MA1102031999999MD1310121+9999MW1001REMAWY114RCD%98/?338/CB 15N AND 20E         ?-          ?     20S MOVG E MAX TOP 330 OCNL LTGICCG PK WND 02/06 22/ 312 197/
0057252820999991974052103004+67850-175633FM-12+001299999V0201801N00501220001CN0500001N9+00301+00001102011ADDAY111999GF100991001001999999001001MD1210051+9999MW1021
0078517110999991974121709004+40850+077933FM-12+198699999V0200701N00201220001CN0010001N9-01401-02301999999ADDAY101999GF100991001001999999001001MA1999999081111MW1021REMSYN01168111 00251
0054477150999991974060802104+36183+140417FM-16+0032RJAH V0200701N00511220001CN0112001N1+99999+99999999999ADDGA1011+009009999GA2031+015009999EQDQ01+000000PRSWM2
039272446003947197402190600C+39300-094717SY-SA+0315MCI  V0203605N00775033534EN0192005N1+00225-00175099935ADDAA101000095AA224007091GA1999+033534034GD14085+0330099GD20995+9999999GD30995+9999999GD40995+9999999GF108085081001999999051999KA1999M+01201KA2999N+00201MA1099861096215MD1810031+9999OC101081REMSYN01769  1 20029 45336EQDN01 00000JPWTH 1QNNE11 1 00610E11 1 00099E11 1 00099E11 1 00099G11 1 00110H11 1 23110K11 1 00029L11 1 01200M11 1 28410N11 1 00000Q11 1 09993S11 1 00036V11 1 01010X11 1 36015
0084061070999991974022003004+55400+007567FM-12+000099999V0203201N00511220001CN0260001N9+00401+00101102101ADDAY101999GF102991021021008001001001MD1810061+9999MW1031UA1M010059999REMSYN00530101
0091725395148331974073009004+42267-084467SAO  +0305JXN  V0202501N002512200019N0224001N1+01561+01391101001ADDGD12991+0300099GF102991999999999999999999MA1101051999999MD1410001+9999MW1001REMAWY003400
0110973900999991974051400004-08550+125550FM-12+0005WPDL V0209991C00001220001CN0250001N9+02801+02101100951ADDAA124000091AY101999GA1011+009009089GF101991011021008001041011MW1011REMSYN01270069 81830^EQDQ01  00003PRCP99
0099722340138651974112012284+32333-088750SAOSP+0091MEI  V0203001N00151002101MN0112001N1+99999+99999999999ADDGD13991+0021099GD24991+0240099GF108991999999999999999999MA1101421100301MW1001EQDQ01+999990APOSP 
0117346460999991974121018004+47733+042250FM-12+010499999V0200901N01001003001CN0400001N9-00101-00301103081ADDAA199999929AY171999GA1081+003009079GF108991081061004501999999KA1999M+00001MD1210091+9999MW1021REMSYN01179700 88710
0109038880999991974061806004+50917+000967FM-12+000399999V0202701N00621220001CN0300001N9+01201+00901101551ADDAY111999GA1011+006009089GA2031+012009059GF103991031081008001001021MD1210141+9999MW1011REMSYN01181820 83640
0057872570999991974030714004-29883-061950FM-12+008799999V0203601N00311220001CN0250001N9+03001+02501100861ADDAY111999GF104991021011012501001041MD1010041+9999MW1051
0108516420999991974122406004+41783+084250FM-12+088399999V0209991C00001220001CN0300001N9-00901-01601104061ADDAA199000091AY101999GF100991001001999999001001KA1999N-02001MA1999999091641MW1021REMSYN01769164 /0070 05600
0071164500999991974101722004+37567+014283FM-15+0940LICE V0201501N00301001501CN0060001N1+99999+99999999999ADDGA1061+001509999REMMET024MON INVIS NC VAL NIL NC%EQDQ01+000000PRSWM2
0129311990999991974031600004+55033+126800FM-12+045799999V0203201N00101220001CN0200001N9-01801-02101102741ADDAA199000091AL10699999AY101999GF100991001001999999001001IA1319IA2999-03009KA1999N-02701MD1810051+9999MW1021REMSYN01170077 28096
0082983290999991974112109004+15483+120967FM-12+0031RPUC V0200401N00101220001CN0300001N9+02901+02401101041ADDAA199000091AY101999GF103991031021008001001001MD1310011+9999MW1021REMSYN00570089
0065722977931841974061105004+33683-117867SAO  +0016SNA  V0202301N00251004201MN0096001N1+01501+99999999999ADDGD14991+0042099GF108991999999999999999999MA1101491999999MW1051
0057160200999991974122805504+46467+011333FM-15+0241LIPB V0209991C00001220001CN0070001N1-00101-00501999999ADDGA1011+030009039REMMET010MON INVIS%EQDQ01+000000PRSWM2
0109031770999991974101111004+56433-002400FM-12+002199999V0203301N00981004201CN0400001N9+00801+00401102151ADDAY121999GA1011+004509099GA2031+008009059GF107991061031004501071999MD1210081+9999MW1031REMSYN01181994 83695
0057289090999991974121321004+52750+052283FM-12+999999999V0201401N00201220001CN0100001N9-00701-01401104161ADDAY101999GF100991001001999999001001MD1210071+9999MW1021
0081433210999991974111703004+11033+077050FM-12+0396VOCB V0200501N00261105001CN0100001N9+02401+01201101351ADDAA124000091AY111999GF105991001001999999001021KA1999N+01701MW1031REMSYN00570017
0033162040999991974111009004+42900+011767FM-15+0896LIQR V0200301N00151999991CY0099001N1+99999+99999999999REMMET005CAVOKEQDQ01+000000PRSWM2
0059036720999991974110510004+51550-000417AERO +0040EGWU V0203601N00251012001CN0150001N9+00701+00401999999ADDAY121999GA1071+012009059GF107991999999999999999999MW1021
0085722287138711974012709004+33583-085850SAO  +0185ANB  V0202501N005112200019N0112001N1+01551+01381101711ADDGD12991+0075099GF102991999999999999999999MA1101761999999MW1001REMAWY011303?ANB?1/6
0097747950128671974051014004+28233-080600SAO  +0003COF  V0202301N002012200019N0240001N1+02611+02001999999ADDGD12991+0840093GF102991999999999999999999MA1101491999999MW1001REMAWY023CU W-N WND LGT AND VRBL
0102674130999991974102606004-08850+031333FM-12+1672FLBA V0200901N00151220001CN0240001N9+02201+01101999999ADDAA124000091AY101999GF101991001001999999001041KA1999N+01501MA1999999083461MW1051REMSYN01168346 70015
0132741090999991974021303004+50683-127367SAO  +0024YZT  V0201301N002010360019N0320001N1+00331+00001100471ADDGD12991+0105099GD24991+0360099GF108991999999999999999999MA1100471100201MD1610031+9999MW1001REMAWY010SC2AS8 603EQDQ01+999990APOSP 
0122999999999991974072812004+29000-020000FM-13+0000LQGA V0200101N00981004201CN0100001N9+02381+02101101611ADDAY121999GF107991051011004501061011MD1210011+9999MW1011SA1+2309UA1M040209999UG1050200109REMSYN02300221 12308 30404 01504
0068725101147121974122005004+40383-075967SAO  +0105RDG  V0209991C000012200019N0096001N1-00211-00321999999ADDGF100991999999999999999999MA1101391999999MW1451REMAWY009?RDG?12/1
0117032440999991974103018004+55300-001633FM-12+004299999V0203201N00151036001CN0200001N9+00401+00301101421ADDAA199000691AY161999GA1071+036009039GF107991071001999999071999KA1999M+00501MD1610061+9999MW1021REMSYN01179605 87362
0113703950253251974021402004+55350-131700SAO  +0029KTN  V0201501N004610045019N0240001N1+99999+99999999999ADDGD12991+0030099GD23991+0045099GD34991+0090099GF108991999999999999999999MA1099091999999MW1001REMAWY009?KTN?2/10
0082336380999991974021612004+48183+023317FM-12+018299999V0209991C00001220001CN0100001N9+01001+00801101411ADDAA199000091AY111999GF100991001001999999001001MD1810101+9999MW1021REMSYN005700//
0107474790999991974120901004+43117+141383FM-15+0008RJCO V0201201N00101024001CN0070001N1-00301-00901999999ADDGA1011+004509079GA2041+009009099GA3071+024009039MA1102201999999REMMET0133019 CB W-NE%EQDQ01+000000PRSWM2
0057594170999991974113009004+22367+106750FM-12+012999999V0209991C00001220001CN0270001N9+03001+01601100691ADDAY111999GF104991001001999999001021MD1610181+9999MW1031
014872304093729197407271300D+35267-075550SAO  +0003HAT  V0209999999999007501EN0112001N1+02501+02391101831ADDAA101002895GD13991+0075099GD24991+0750099GF108991999999999999999999MA1101831101801MW1801REMAWY013240 PPUX RB28EQDQ01+999990APOSP Q02+999990APOA  
051172386023169197410121800C+36083-115167SY-SA+0659LAS  V0200405N006252200059N1040005N1+02335+00335102095ADDAA101000095AY101999GA1999+999999084GA2999+999999034GA3999+999999999GA4999+999999999GD10005+9999999GD20005+9999999GD30005+9999999GF199009011011999999041991KA1999M+02391KA2999N+01441MA1102271094485MD1110021+9999MW1021REMSYN01169446 47558EQDQ01+000002SCOTCVQ02+000992SCOLCBQ03+000003PRSWM2N01 00000JPWTH 1P01    003SCOTCVQNNE11 1 00000E11 1 00000E11 1 00000E11 1 00000G11U1 99999H11 1 11999H11 1 23999H11 1 00999H11 1 00999K11 1 00038L11 1 06500M11 1 27900N11 1 00000Q11 1 10209S11 1 00074V11 1 00000X11 1 04012
0105703431254021974101910004+59450-146300SAO  +0024MDO  V0201801N004619999999N9999999N9+99999+99999999999ADDAA106000091MA1100851999999REMAWY032-- VV-.------          ?     VWSEQDQ01+000002VOVAR Q02  00003PRCP99
0095543370999991974121718004+41133+121117FM-12+007099999V0200401N00301220001CN0120001N9-00801-02101103331ADDAA199000091AY101999GF100991001001999999001001KA1999M-00101MD1710061+9999MW1021REMSYN005/0051
0457724230938211974022715003+38183-085733SAO  +0144SDF  V0201905N006252200059N0160005N1+00565-00725102515ADDGA1999+076204004GA2999+999999999GA3999+999999999GA4999+999999999GD13075+0750093GD20005+9999999GD30005+9999999GD40005+9999999GF107025999999999999999999MA1102471100685MD1810031+9999MW1001OC100971REMAWY027803 1001?SDF?11/28 1/7 2/29EQDQ01+999990APOSP N01 00000JPWTH 1QNNE11 1 00309E11 1 00000E11 1 00000E11 1 00000G11U1 99999H11 1 32250H11 1 00999H11 1 00999H11 1 00999K11 1 00019L11 1 01000M11 1 29730N11 1 00000Q11 1 10251S11 1 00042V11 1 00902X11 1 19012
0059031290999991974062609004+55650-004817AERO +000999999V0200801N00611009001CN0180001N9+99999+99999999999ADDAY121999GA1081+009009089GF108991999999999999999999MW1021
010172467523063197406091600D+39650-106917SAO  +1993EGE  V0200401N00201013501EN0400001N1+00831+00331101911ADDAA101000095GD13991+0135099GF107991999999999999999999MA1102271999999MW1001REMAWY016CU ALQDS?EGE?6/4
0082479710424021974022703004+27083+142183FM-12+0004RJAO V0203401N002119999999N0300001N9+01801+01001101701ADDAA199000091AY121999GF106991051021999999071001MD1810081+9999MW1021REMSYN00540089
005994627099999197405150100N-32930+117170AUST +0340     V0203605N002659999999N999999999+01235+00805999999ADDAY124999GA1015+009005065GF101995014045009005999999MW1025
0165729060999991974073018004+58100-068417SY-SA+0037YVP  V0200901N007212200019N0240001N1+02101+01101101471ADDAY111999GD12991+0090093GF102991021011008001001001KA1999M+02111KA2999N+00891MA1101461101021MD1610151+9999MW1031REMSYN011  102 47048AWY007CF2   5EQDQ01+000003PRSWM2
0114728130999991974051519004+50183-061817SAO  +0011YNA  V0201701N004110270019N0240001N1+00781-00161101171ADDGD12991+0060099GD24991+0270099GF108991999999999999999999MA1101191101191MW1001REMAWY006SC3AC6EQDQ01+999990APOSP 
010770361025339197405291100D+59500-139650SAO  +0010YAK  V0202901N00461001201MN0112001N1+00721+00671102221ADDAA101000095GD13991+0012099GF107991999999999999999999MA1102201102091MW1001REMAWY0036STEQDQ01+999990APOSP 
0080722595139111974101219004+32783-097433SAO  +0201FWH  V0201701N004112200019N0112001N1+02611+01501999999ADDGD12991+0240099GD22991+0750099GF102991999999999999999999MA1102341999999MW1001
006694430099999197405250700N-26620+118550AUST +0518YPMR V0203605N008259999999N999999999+01445+01205999999ADDGA1085+004505065GF108995084055004505999999MA1999999095155MW1025
0191729260999991974090912004+64300-096000SY-SA+0016YBK  V0203301N005110180019N0320001N1+00111-00051101261ADDAY121999GD12991+0090099GD23991+0180099GD33991+0270099GF107991021051008001071001MA1101251101251MD1110041+9999MW1021REMSYN011  126 64433AWY013SC2AC6AC1 104EQDQ01+999990APOSP Q02+000003PRSWM2
0082477590999991974021906004+35017+135733FM-12+004199999V0201801N00311090001CN0060001N9+01601+00101101661ADDAA199000091AY101999GF108991001001999999001061MD1710471+9999MW1051REMSYN00540000
0065727857999991974010422004+46750-117100SAO  +0778PUW  V0209991C000012200019N0192001N1-01271-01441999999ADDGD12991+0240093GF102991999999999999999999MA1101521999999MW1001
0128478400999991974022308004+33683+131033FM-15+0016RJFZ V0209991C00001007501CN0112001N1+00901+00501999999ADDGA1021+003009089GA2041+007509089GA3081+012009059MA1101421999999REMMET034147/ FCST 0814         ?     NOSIGEQDQ01+000000PRSWM2
007494461099999197408101230N-25030+128300AUST +0599     V0201135N001559999999N999999999+01655+00305999999ADDAY124999GA1005+999999999GF100995004999999999999999MA1999999095195MW1025
0295726221947251974051109003+44933-074850SAO  +0067MSS  V0209995900005007624MN0112005N1+00445+00395101865ADDGD14995+0075099GD20995+9999999GD30995+9999999GD40995+9999999GF108085999999999999999999MA1101861101085MW1001REMAWY011107?MSS?2/8EQDN01 00000JPWTH 1QNNE11 1 00699E11 1 00099E11 1 00099E11 1 00099G11 1 00025K11 1 00039L11 1 00700M11 1 29850N11 1 00000Q11 1 10186S11 1 00040V11 1 01010X11 1 00000
0121678610999991974072406004-18233+028917FM-12+1250FRGO V0200901N00511220001CN0500001N9+01201+99999999999ADDAA124000091AY101999GF101991999999999999999999KA1999M+02501KA2999N+01001MA1999999088261MW1021REMSYN01768826 70010 225//
0102727350999991974011014004+47700-079850SAO  +0243YXR  V0200101N001512200019N0192001N1-02611-02721102701ADDGD12991+0300099GF102991999999999999999999MA1102441099491MW1001REMAWY009AC2 FROINEQDQ01+999990APOSP 
0341722220138991974011806003+30467-087200SAO  +0034PNS  V0201205N002152200059N0002005N1+01725+01615102115ADDED116U03049GD16995+0001599GD20995+9999999GD30995+9999999GD40995+9999999GF106065999999999999999999KA1999M+02381MA1102101101695MD1810051+9999MW1455REMAWY019R16VR10- F8/ 805 75EQDN01 07000JPWTH 1QNNE11 1 00899E11 1 00099E11 1 00099E11 1 00099G11U1 99999K11 1 00061L11 1 00012M11 1 30030N11 1 07000Q11 1 10211S11 1 00063V11 1 00808X11 1 12004
0058112310999991974061213204+46650+014350FM-15+0448LOWK V0203301N00611999991CY0099001N1+01701-00101999999ADDMA1101081999999REMMET012CAVOK NOSIG%EQDQ01+000000PRSWM2
008072266013962197411251900D+32417-099683SAO  +0542ABI  V0202101N006612200019N0800001N1+01391-00161102881ADDAA101000095GF100991999999999999999999MA1102881096411MW1001EQDQ01+999990APOSP 
0103723417939881974070422004+34183-091933SAO  +0063PBF  V0202301N006610750019N0112001N1+03111+02281101501ADDGD12991+0120099GD23991+0750099GF107991999999999999999999MA1101521999999MW1001REMAWY014TCU W DRK W-NW
0069105020999991974100114444+50833+006667FM-15+0117EDNN V0202901N00411007501CN0112001N1+01101+00401999999ADDGA1011+006009999GA2051+007509999MA1102101999999EQDQ01+000000PRSWM2
0104726270947921974073005434+45467-073750SAOSP+0036YUL  V0201801N001510147019N0096001N1+99999+99999999999ADDGD12991+0018099GD23991+0147099GD34991+0210099GF108991999999999999999999MW1451MW2601REMAWY009SF1SC7AC2
009470326025503197410101000D+58683-156650SAO  +0017AKN  V0201701N005112200019N0208001N1-00051-00161100691ADDAA101000095GD12991+0048099GF102991999999999999999999MA1100681100491MW1001REMAWY009MAG15 5SC
0109030680999991974061310004+57717-003333FM-12+0012EGQS V0201201N00361090001CN0450001N9+01901+01101102621ADDAY121999GA1011+010509089GA2071+090009009GF107991011011012501001011MD1810091+9999MW1031REMSYN01181835 87080
0136101700999991974041706004+54183+012083FM-12+000499999V0203601N00301012001CN0180001N9+00601+00401102301ADDAA199000091AJ100009199999999AY111999GF107991071051012501999999IA1009IA2999-00309KA1999N+00301MD1410001+9999MW1021REMSYN01125300 70003
0103821130999991974081118004-00967-062933FM-12+0041SNLU V0200901N00101001201CN0010001N9+02601+02301101181ADDAA199000091AY121999GF108991051051001501021999MA1999999100121MD1810071+9999MW1031REMSYN011  012 700//
0057122350999991974090815004+53700+017550FM-12+017299999V0202201N00701220001CN0100001N9+01901+00901100951ADDAY111999GF103991031021012501001001MD1210091+9999MW1011
0117727436999991974060806004+46533-087567SAO  +0432MQT  V0202501N00771003601MN0112001N1+01441+01281100151ADDGD13991+0036099GD23991+0072099GF107991999999999999999999MA1100141999999MD1210221+9999MW1001REMAWY014222 66?MQT?6/9
0057932910999991974110923004-38667+177983FM-12+0005NZGS V0202601N00931036001CN0500001N9+02201+01001100981ADDAY111999GF107991011081012501071011MD1710121+9999MW1031
0080722160138691974091801004+31533-084200SAO  +0059ABY  V0203101N002512200019N0112001N1+02671+02111999999ADDGD12991+0360099GD23991+0750093GF107991999999999999999999MA1101391999999MW1001
0095135830999991974030506004+41050+021367FM-12+058799999V0202001N01031036001CN0200001N9+00301+00101102341ADDAA199004091AY161999GF108991031071004501021999KA1999N+00301MD1610041+9999MW1601REMSYN00570403
0104999999999991974101918004+58700-004900FM-13+0000GOWS V0202501N00511004201CN0200001N9+00921+00601099451ADDAY101999GF105991051031004501001001MD1410001+9999MW1151SA1+0929UA1M030159999REMSYN0170//06 10922 30303
0069112400999991974072119204+47000+015433FM-15+0340LOWG V0203101N00301220001CN0112001N1+01501+00901999999ADDGA1011+012009999GA2041+018009999MA1101491999999EQDQ01+000000PRSWM2
0080724507139811974032514004+37667-095483SAO  +0304CNU  V0201501N005112200019N0240001N1+00001-00431102481ADDGD12991+0300099GD23991+0900093GF107991999999999999999999MA1102371999999MW1001
0074832420999991974040518004-12567-041383FM-12+005299999V0201401N00051220001CN0020001N9+03001+02301999999ADDAA199000091AY111999GF104991021011004501001011MW1021REMSYN0116//// 700//
0054964710999991974071421004+05933+116050FM-12+0003WBKK V0201101N00461105001CN0200001N9+02301+02101101031ADDAA199000091AY121999GF105991021081004501041021MW1011
0159601190999991974051306004+34300-006600SY-MT+0005GMMP V0209991C00001220001CN0040001N1+01201+01201101941ADDAA124000091GA1051+060009009GF199999001001999999001011KA1999N+01001MA1101961999999MD1310031+9999MW1111REMSYN01170010 83073EQDQ01+000032SCOTCVQ02+000003PRSWM1
0070724177137341974021303004+39400-077983SAO  +0169MRB  V0209991C000012200019N0240001N1-00111-00381101411ADDGF100991999999999999999999MA1101391999999MW1001REMAWY011710?MRB?2/6
008072304093729197404181400D+35267-075550SAO  +0003HAT  V0203601N005612200019N0112001N1+01831+00831101881ADDAA101000095GF100991999999999999999999MA1101861101831MW1001EQDQ01+999990APOSP 
0124035961999991974012815004+52133+001433FM-15+0026EGVJ V0202101N006610105019N0112001N1+00901+00201999999ADDGA1061+010509089GA2041+018009059GA3081+069009029MA1100031999999MW1801OC100971REMMET035CIG035     ?     RCD BKN085%085N%UU
0132728880999991974082615004+52883-118067SAO  +1061YJA  V0202001N003610135019N0400001N1+00891+00671102201ADDGD12991+0036099GD23991+0135099GF107991999999999999999999MA1102241090031MD1110131+9999MW1001REMAWY010SF1CU6 113EQDQ01+999990APOSP 
0138984440999991974091212004+13150+123733FM-12+0020RPMP V0209991C00001220001CN0200001N9+02801+02501101031ADDAA199000091AY111999GA1021+006009089GA2031+060009009GF104991021021008001001011MD1210261+9999MW1021REMSYN02970099 82820 83070 21004 6/355
0076485640999991974080906004+07883+098400FM-12+000299999V0202701N00511004201CN0060001N9+02701+02401100871ADDAY121999GF108991051071004501021999MW1601UA1M043459999REMSYN01130469 403//
0077838440999991974110321004-25517-048517FM-12+0010SBPG V0200901N00261220001CN0180001N9+02401+99999101851ADDAY141999GF103991031011008001001001MA1999999101781MW1051EQDQ01+999990APOSP 
0134722420999991974100200004+29300-094800FM-12+001699999V0201301N00261220001CN0160001N9+02501+01101102091ADDAY101999GF103991001001999999001081KA1999M+02671KA2999N+01941MA1999999101891MD1610081+9999MW1021REMSYN027  189 48067 TIDE  PLUS  007
0025060300999991974020322204+57100+009867FM-15+0003EKYT V0202201N00821004201CN0090001N1+01001+00701999999ADDGA1051+004209059MW1601
034472658014922197402132100C+44883-093217SAO  +0254MSP  V0200205N00675011584MN0320005N1-00725-01285101875ADDAA101000095GA1999+011584064GD14085+0114099GD20995+9999999GD30995+9999999GD40995+9999999GF108085999051999999999999MA1101731098715MD1210101+9999MW1001REMAWY008210 15//EQDN01 00000JPWTH 1QNNE11 1 00610E11 1 00099E11 1 00099E11 1 00099G11 1 00038H11 1 15038K11 1 00009L11 1 02000M11 1 29150N11 1 00000Q11 1 10187S11 1 00019V11 1 01010X11 1 02013
0109039740999991974011315004+54183-007233FM-12+008799999V0202201N00511006901CN0400001N9+00501+00301099091ADDAY181999GA1071+006909059GA2021+006909099GF107991071031008001999999MD1310071+9999MW1801REMSYN01187  3 82923
0040080800999991974020311004+42850-002650FM-15+0516LEVT V0202701N00101006601CN0112001N1+00301+00101999999ADDGA1071+006609089MA1101901999999MW1501
0073973720999991974021500004-10167+123667FM-12+0102WRMK V0209991C00001004201CN0060001N9+02601+02501100781ADDAA124999999AY161999GF108991061091004501071999MW1211EQDQ01  00002PRCP24
0082349170999991974081600004+45233+036750FM-12+000599999V0200501N00801012001CN0200001N9+02201+01901100611ADDAA199000091AY111999GF105991051091012501041031MD1410001+9999MW1171REMSYN005700//
0193467640999991974090212004+24733+121750FM-12+0009RCMS V0200201N00261015001CN0080001N9+02601+02501100411ADDAA199000091AY121999GA1041+006009059GA2081+015009059GF108991081051008001999999KA1999M+03001MD1210161+9999MW1101REMSYN07170030 84  0 88650 90460 QNH29 64INS 48601 82802 60919 07  7 5947/ 24997
0080722115999991974010716004+27400-082550SAO  +0007SRQ  V0201901N002512200019N0112001N1+99999+99999999999ADDGD12991+0135099GD22991+0450099GF102991999999999999999999MA1101931999999MW1001
0083478400999991974102222004+33667+131033FM-15+0016RJFZ V0202601N00251220001CN0112001N1+00901+00501999999ADDGA1011+009009999MA1101661999999REMMET021172/ FCST 2207 NOSIG%EQDQ01+000000PRSWM2
0132729530999991974100719004+60117-128817SAO  +0689YQH  V0201301N002010210019N0480001N1+00611+00331100991ADDGD12991+0135099GD23991+0210099GD33991+0300099GF107991999999999999999999MA1100711092781MW1001REMAWY009SC4AC4AC1EQDQ01+999990APOSP 
006172406093721197407080200D+39183-076667SAO  +0045BWI  V0202501N003012200019N0192001N1+02441+01831101941ADDAA101000095GF100991999999999999999999MA1101961999999MW1001
011872411013741197405220400D+37317-079983SAO  +0358ROA  V0209991C00001012001MN0192001N1+01831+01611102111ADDAA101000095GD13991+0120099GF107991999999999999999999MA1102171097911MW1001REMAWY014?ROA C5/32?3/8EQDQ01+999990APOSP 
0087161300999991974020503004+44817+010283FM-12+0050LIMP V0209991C00001030001CN0070001N9+00701+00501100981ADDAY111999GA1071+030009039GF107991071001999999071001MD1710051+9999MW1101REMSYN00587360
0057874670999991974100406004-32683-062150FM-12+0110SAMJ V0200701N00361220001CN0200001N9+01001+99999101481ADDAY101999GF100991999999999999999999MW1021REMSYN005700/-
0085478720999991974021623004+28417+129700FM-15+0023RJKA V0202201N00411004501CN0112001N1+01901+01801999999ADDGA1021+003009079GA2041+004509089GA3071+018009059MA1101591999999MW1211REMMET0043001
0057281650999991974081409004+58850+065967FM-12+999999999V0201801N00101220001CN0200001N9+02301+00601102211ADDAY101999GF101991011011008001001001MD1810031+9999MW1021
007494514099999197401240500N-26480+147980AUST +0337     V0200455N002659999999N999999999+02775+99999999999ADDAY124999GA1085+001805075GF108995084065001805999999MA1999999096825MW1025
025072389093193197407180600C+36767-119717SY-SA+0100FAT  V0203005N003652200059N0240005N1+02615+01285101345ADDAA101000095AY101999GF100005001001999999001991KA1999M+03501KA2999N+01501MA1101391100175MD1210121+9999MW1021REMSYN01163017 49559EQDN01 00000JPWTH 1QNNG11U1 99999K11 1 00055L11 1 01500M11 1 29580N11 1 00000Q11 1 10134S11 1 00079V11 1 00000X11 1 30007
0128070240999991974062609004+49650-001467FM-12+0139LFRC V0202001N00411030001CN0050001N9+01501+01401100131ADDAY141999GA1041+001509079GA2081+030009039GF108991041071001501071999MD1710031+9999MW1011UA1M990039999REMSYN01784705 88360 91825
0068722358939191974101809004+31183-090467SAO  +0126MCB  V0209991C000012200019N0112001N1+01001+00891101941ADDGF100991999999999999999999MA1101931999999MW1001REMAWY009?MCB?10/9
0088724090147801974111717004+40033-074317SAO  +0024NEL  V0202201N00511024001EN0112001N1+00941+00061102251ADDGD13991+0240099GD24991+0600099GF108991999999999999999999MA1102271999999MW1001OC100871
0244741220999991974011612004+51183-115567SY-SA+1397YBA  V0209991C00001005401EN0160001N1+00221+00161099401ADDAA106004091AA224007091AJ100259199999999AL10699999GD13991+0054099GD24991+0120099GF108991081051004501999999KA1999M+00501KA2999N+00101MA1099151083731MD1110261+9999MW1611REMSYN02968373 71598 90425 20028 44134AWY012SC9SC1 F 126EQDQ01  00403PRCP99
0050476960433231974080910004+35283+139667SAO  +0049RJTX V0200901N005112200019N0240001N1+99999+99999100901ADDGD12991+0600099GF102991999999999999999999MW1001
0072100220999991974070718444+54800+008950FM-15+0008EDNL V0203301N00871220001CN0112001N1+01401+00701999999ADDGA1021+009009999MA1101901999999REMMET010BLACKBLU&%EQDQ01+000000PRSWM2
0149729090999991974083016004+63750-068550SAO  +0034YFB  V0201401N004612200019N0240001N1+00721+00111100841ADDGD12991+0120099GD22991+0240099GD32991+0660093GF102991999999999999999999MA1100811100561MW1001REMAWY026CU2AC1CI  TCU EMBDD  TR ACEQDQ01+999990APOSP 
0069062100999991974071417294+52167+004433FM-15+0000EHVB V0202601N00611220001CN0112001N1+01601+01101999999ADDGA1021+005409999GA2031+024009999MA1101081999999EQDQ01+000000PRSWM2
0082238590999991974033012004+60950+078617FM-12+004999999V0200901N00101030001CN0200001N9+00001-01501101561ADDAA199000091AY121999GF108991081001999999011999MD1710171+9999MW1021REMSYN005700//
0101336340999991974060218004+48400+022700FM-12+011999999V0203601N00701007501CN0080001N9+01501+01001999999ADDAA199000391AY121999GF107991071051008001001001KA1999M+01801MD1210121+9999MW1021REMSYN01110213 79318
009572508714752197404151100D+41733-072650SAO  +0006HFD  V0202201N004112200019N9999999N9-01211+99999999999ADDAA101000095GD16991+0001599GF110991999999999999999999MA1099831999999MW1001EQDQ01+000002VOVAR 
0070467360999991974080220004+24433+118433FM-15+0012RCBS V0209991C00001220001CN0112001N1+02601+02501999999ADDGA1041+075009999MA1101021999999REMMET0082983INS%EQDQ01+000000PRSWM2
0043823980999991974080309004-03783-038533FM-12+0025SBFZ V0201401N00311220001CN0200001N9+02101+02001101331ADDAY111999GF103991031051008001001001MW1011
0095466940999991974103100004+25133+121750FM-12+000399999V0203601N00671007501CN0040001N9+02001+01901101461ADDAA199048091AY161999GF108991071071008001021999KA1999N+02001MD1210221+9999MW1631REMSYN00574820
0057934340999991974040121004-41283+174667FM-12+012899999V0203101N00511001201CN0200001N9+01601+01501102641ADDAY161999GF108991051051001501071999MD1310101+9999MW1141
0058167490999991974041820204+36383+028117FM-15+0062LGRD V0203001N00511999991CY0099001N1+01301+01001999999ADDMA1101191999999REMMET012CAVOK NOSIG%EQDQ01+000000PRSWM2
0095591020999991974051218004+24950+115633FM-12+029099999V0209991C00001015001CN0130001N9+02101+02001101611ADDAA199000091AY111999GF107991061051017501041999KA1999M+03001MD1710071+9999MW1031REMSYN005/0030
007672563624017197410160200D+42833-103100SAO  +1004CDR  V0201701N003612200019N0240001N1+01171-00381102101ADDAA101000095GD12991+0750093GF102991999999999999999999MA1102071999999MW1001
0116082210999991974051210304+40467-003567FM-15+0609LEMD V0202301N00511060001CN0112001N1+01901+01101999999ADDGA1021+009009059GA2031+027009039GA3061+060009009MA1101591094811REMMET006NOSIG%EQDQ01+999990APOSP Q02+000000PRSWM2
0101131681999991974010412004+45250+019867FM-12+013299999V0201401N00931012001CN0200001N9+00701+00101102571ADDAA199000091AY111999GF108991999051012501001001MD1710081+9999MW1031REMSYN005700//EQDQ01+000072SCOTLC
0183728630999991974041006004+50433-104667SY-SA+0577YQR  V0200901N007212200019N0240001N1+00111-00491101501ADDAY111999GD12991+0360099GD23991+0750093GF106991011001999999071041KA1999M+00561KA2999N-01111MA1101251094531MD1110051+9999MW1031REMSYN01169453 44212AWY010AC1CI3 105EQDQ01+000003PRSWM2
0080723417939881974052218004+34183-091933SAO  +0063PBF  V0200601N00461003601EN0112001N1+02331+01891101401ADDGD13991+0036099GD23991+0180099GF107991999999999999999999MA1101421999999MW1001
0080724016937361974010117004+38133-078450SAO  +0195CHO  V0200401N002010090019N0128001N1+00831+00611101961ADDGD12991+0015099GD23991+0090099GF107991999999999999999999MA1101931999999MW1001
0095285860999991974052815004+55867+072200FM-12+012099999V0209991C00001075001CN0260001N9+01601+00701101231ADDAA199000091AY111999GF105991001001999999001021KA1999M+02001MD1210061+9999MW1021REMSYN00570020
0107471610432401974122400004+35083+128083FM-15+0008RKPS V0209991C000010240019N0090001N1+00101+00001999999ADDGA1011+009009059GA2051+024009049GA3071+054009029MA1102471999999MW1461REMMET026CIG080/QFF1025PT       ?1%
0120084520999991974102706004+36533-006283FM-12+002399999V0209991C00001220001CN0200001N9+01101+00801102251ADDAA199000091AY101999GF100991001001999999001001KA1999N+01101MD1710031+9999MW1001UA1M990009999REMSYN01770011 94090 91807
0057153350999991974010209004+45183+028817FM-12+0006LRTC V0200101N00601090001CN0080001N9+99999+99999999999ADDAY121999GF106991001001999999001051MD1310131+9999MW1101
0057471310999991974102209004+36633+127433FM-12+005999999V0202701N00311012001CN0200001N9+01001+00201101761ADDAY121999GF108991051051012501021999MD1210071+9999MW1021
0079727990999991974081616004+48650-123417SAO  +0019YYJ  V0209991C000012200019N0160001N1+01671+01391102091ADDGF100991999999999999999999MA1102101101851MW1001REMAWY001KEQDQ01+999990APOSP 
0071722315539171974010414064+30033-090033SAOSP+0003NEW  V0203401N00771000601WN0016001N1+99999+99999999999ADDGD15991+0006099GF109991999999999999999999MA1102301999999MW1451MW2611
0070789700999991974102905004+10617-061350FM-15+0012MKPP V0209991C00001075001CN0112001N1+02301+02301999999ADDGA1011+006009999GA2081+075009999REMMET0071011.6%EQDQ01+000000PRSWM2
0043643870999991974073112004-01967+030133FM-12+1491FEYR V0202001N00101012001CN0150001N9+02601+01201999999ADDAY111999GF105991051021012501001001MW1031
0084722160138691974102323004+31533-084200SAO  +0059ABY  V0203601N002512200019N0112001N1+01891+00721999999ADDGD12991+0750093GF102991999999999999999999MA1102611999999MW1001REMAWY010KALF ALQDS
0065724935999991974102402004+37667-122117SAO  +0015HWD  V0202501N00511013501MN0240001N1+99999+99999999999ADDGD14991+0135099GF108991999999999999999999MA1102131999999MW1001
0119241430999991974051200004+68733+124000FM-12+005099999V0203601N00501220001CN0500001N9-00801-01301102421ADDAA199000091AY111999GF102991001001999999001011IA1199IA2999-01209KA1999N-01201MD1710081+9999MW1011REMSYN01170062 26263
0058103860999991974051003204+52483+013433FM-15+0050EDBB V0201001N00151999991CY0099001N1+00501+00001999999ADDMA1101591999999REMMET012CAVOK NOSIG%EQDQ01+000000PRSWM2
0148740790999991974032121004+55800-097867SAO  +0222YTH  V0202701N004110660019N0240001N1-01381-02431100851ADDGD12991+0120099GD24991+0660099GF108991999999999999999999MA1100581098071MD1610151+9999MW1001REMAWY026SC4CS3 CU ASCTD  HALO  615EQDQ01+999990APOSP 
0065723526999991974051517004+35333-099200SAO  +0586CSM  V0201201N004112200019N0208001N1+99999+99999999999ADDGD12991+0210099GF102991999999999999999999MA1100541999999MW1001
0057260630999991974092115004+59967+030300FM-12+000499999V0202801N00401220001CN0150001N9+01201+00501100931ADDAY111999GF103991021011012501001011MD1210111+9999MW1031
0087984290999991974112823004+14517+121000FM-15+0014RPMM V0201401N00411030001CN0112001N1+02401+02201999999ADDGA1041+007209999GA2081+030009999MA1100511999999REMMET009NEG RMKS%EQDQ01+000000PRSWM2
0122999999999991974100418004+27400-138700FM-13+0000WZJE V0200701N01081004201CN0200001N9+02331+01901102551ADDAY121999GF107991071051004501999999MD1110111+9999MW1021SA1+2229UA1M060209999UG1080250709REMSYN0230//19 12223 30604 07805
0130325860999991974020521004+52367+158567FM-12+001899999V0203201N00901030001CN0500001N9-01201-01601100781ADDAA199000091GF107991071001999999031001IA1209IA2999-01409KA1999N-01301MD1210081+9999MW1011REMSYN01170063 26478EQDQ01+000872APC3  
0069727250999991974111905004+48050-077783SAO  +0337YVO  V0202301N003012200019N0240001N1-00101-00601101041ADDGF100991999999999999999999MA1100851096871MW1001EQDQ01+999990APOSP 
0087033230999991974080612204+53333-002850FM-15+0026EGGP V0201901N00361036001CN0112001N1+02101+99999999999ADDGA1021+009609999GA2071+036009999REMMET0082 NOSIG%EQDQ01+027423ATOD  Q02+000000PRSWM2
031872439093822197403290100C+39833-089667SAO  +0179SPI  V0202105N00155010674MN0112005N1+01615+01285100625ADDAA101000095GD13995+0105099GD24995+0270099GD30995+9999999GD40995+9999999GF108085999999999999999999MA1100611098415MW1001REMAWY007RB15E20EQDQ01+999990APOSP N01 00000JPWTH 1QNNE11 1 00499E11 1 00699E11 1 00099E11 1 00099G11 1 00035K11 1 00055L11 1 00700M11 1 29060N11 1 00000Q11 1 10062S11 1 00061V11 1 01010X11 1 21003
0095173300999991974010206004+36367+033933FM-12+001599999V0202601N00211220001CN0250001N9+00901-00201102681ADDAA199000091AY101999GF100991001001999999001001KA1999N+00801MD1310061+9999MW1011REMSYN00570008
0214729570999991974041418004+68300-133483SY-SA+0068YEV  V0200501N003010036019N0024001V1-01271-01431100851ADDAA106000591AJ100019199999999AY171999GD15991+0036099GF109991091999999999999999KA1999M-01111KA2999N-01501MA1100811100071MD1610091+9999MW1711REMSYN023  007 70278 90410 41205AWY016S10 VSBY 1-2 609EQDQ01  00053PRCP99
0097130140999991974010900004+46217+014467SY-MT+0388LYLJ V0202801N00211000301CN0002001N1+00001+00001102481ADDAA199000091AY141999GF109991091999999999999999MA1102201999999MD1010011+9999MW1471REMSYN005700//
0043836490999991974082916004-20267-040283FM-12+0004SBVT V0200601N00261220001CN0150001N9+03301+02001101231ADDAY141999GF100991001001999999001001MW1051
034170261026411197406270800C+64817-147867SAO  +0139FAI  V02099959000052200059N1280005N1+01785+01395100525ADDAA101000095GD12995+0150099GD22995+0210099GD32995+0750099GD40995+9999999GF104035999999999999999999MA1100471098855MW1001REMAWY0301CB4SC1CI LINE CB S-SW MOVG NEEQDQ01+999990APOSP N01 00000JPWTH 1QNNE11 1 00299E11 1 00299E11 1 00299E11 1 00099G11U1 99999K11 1 00057L11 1 08000M11 1 29190N11 1 00000Q11 1 10052S11 1 00064V11 1 00504X11 1 00000
0051845310999991974031720004-09150-078517FM-15+0021SPEO V0201801N00821999991CY0099001N1+02501+01801999999ADDMA1101021999999REMMET005CAVOKEQDQ01+000000PRSWM2
0117064790999991974041318004+51167+005467FM-12+0060EBBL V0200601N00361220001CN0120001N9+01101-00501101291ADDAA199000091AY101999GA1011+030009039GF101991011001999999081011KA1999M+01401MD1310071+9999MW1031REMSYN01170014 81360
0057286420999991974121921004+55300+061533FM-12+999999999V0209991C00001220001CN0040001N9-01501-01601103691ADDAY101999GF100991001001999999001001MD1810021+9999MW1101
009572250012919197406070700D+25900-097433SAO  +0006BRO  V0201601N008212200019N0112001N1+02721+02391100231ADDAA101000095GD12991+0048099GF102991999999999999999999MA1100241100151MW1001EQDQ01+999990APOSP 
0057167100999991974021200004+37517+022400FM-12+066199999V0209991C00001220001CN0140001N9+00101+00001102161ADDAY101999GF100991001001999999001001MD1810051+9999MW1001
0057170740999991974111715004+41367+033767FM-12+0799LTAL V0201801N00051007501CN0040001N9+00401+00101102461ADDAY161999GF107991051051008001051001MD1510001+9999MW1401
0054076310999991974121114004+43533+001367FM-15+0164LFBF V0202601N01021013501CN0112001N1+99999+99999999999ADDGA1041+009909059GA2061+013509059EQDQ01+000000PRSWM2
0069035340999991974093004204+52450-001750FM-15+0099EGBB V0203001N00361009001CN0070001N1+00601+00401999999ADDGA1021+006009999GA2071+009009999REMMET006NOSIG%EQDQ01+000000PRSWM2
0087214050999991974030803004+75533+113517FM-12+001599999V0209991C00001003301CN0060001N9+99999+99999100361ADDAY171999GA1081+003309049GF108991999999999999999999MD1710201+9999MW1711REMSYN00588511
0069064510999991974072508504+50900+004500FM-15+0055EBBR V0202301N00411220001CN0090001N1+01501+01101999999ADDGA1031+007509999MA1101691999999REMMET007NOSIG %EQDQ01+000000PRSWM2
0068104000999991974092610504+51283+006767FM-15+0045EDDL V0203001N00661007201CN0112001N1+01301+00701999999ADDGA1051+007209999MA1100411999999REMMET006NOSIG%EQDQ01+000000PRSWM2
0072724567139211974090804004+39367-094917SAO  +0235FLV  V0209991C000012200019N0112001N1+01611+01501999999ADDGF100991999999999999999999MA1101761999999MW1001REMAWY013SHLW GF ALQDS
0050725396148151974102610004+42317-085250SAO  +0287BTL  V0209991C000012200019N0480001N1+00001+00001999999ADDGF100991999999999999999999MA1102611999999MW1001
0062471030999991974091704004+37967+124667FM-15+0177RKSP V0200901N00511220001CN0112001N1+02001+01201101691ADDGA1031+060009999MA1101691999999OC100921REMMET011QFF1016PT9%
0130039800999991974112715004+55367-007333FM-12+002099999V0202701N01751005401CN0300001N9+00501+00001099041ADDAY181999GA1051+005409099GF106991051091004501999031MD1610191+9999MW1271UA1M990339999REMSYN03585918 99720 91244 91158 90014 91858
0103724917232331974031318004+36667-121600SAO  +0026SNS  V0209991C000012200019N0112001N1+01171+00891102221ADDGF100991999999999999999999MA1102201999999MD1110031+9999MW1001REMAWY030GF E-S FEW CI / 103 47?SNS?3/4
0082287660999991974021800004+54367+066983FM-12+015599999V0200901N00501030001CN0040001N9-02201-02501103121ADDAA199000491AY171999GF108991081001999999021999MD1710161+9999MW1711REMSYN005794//
0095021250999991974070118004+60317+012700FM-12+017899999V0203601N00101030001CN0300001N9+01501+01301100321ADDAA199002091AY181999GF108991031051012501021999KA1999M+02201MD1710091+9999MW1021REMSYN00570222
0213724920232371974082109003+37900-121250SAO  +0007SCK  V02099959000052200059N0240005N1+01725+01005101225ADDGF100005999999999999999999MA1101221101125MD1110071+9999MW1001REMAWY003107EQDQ01+999990APOSP N01 00000JPWTH 1QNNG11U1 99999K11 1 00050L11 1 01500M11 1 29860N11 1 00000Q11 1 10122S11 1 00063V11 1 00000X11 1 00000
0140726315999991974123117004+43767-081717SAO  +0213YGD  V0202101N003610240019N0064001N1+99999+99999102151ADDGD12991+0090099GD24991+0240099GF108991999999999999999999MA1102031999999MW1451REMAWY016AC8  PRES UNSTDYEQDQ01+025663ATOT  Q02+025503ATOD  
0059035660999991974101503004+52350-000117AERO +0041EGUY V0202301N00251220001CN0025001N9+00301+00301999999ADDAY121999GA1041+075009009GF104991999999999999999999MW1041
0053852450999991974071017004-17800-063183FM-15+0437SLCZ V0203301N00921220001CN0112001N1+02601+01901999999ADDGA1041+005109999MA1101801999999EQDQ01+000000PRSWM2
0053160990999991974021111004+45650+012200FM-15+0018LIPH V0209991C00001024001CN0038001N1+00801+00401999999ADDGA1051+024009039MA1101901999999EQDQ01+000000PRSWM2
0050725755241011974062208004+41117-111967SAO  +1459HIF  V0201101N007212200019N0240001N1+02061+00281999999ADDGF100991999999999999999999MA1101521999999MW1001
0152388950999991974011106004+37600+062183FM-12+024099999V0200501N00301220001CN0100001N9-00901-02001103871ADDAA199000091AY101999GA1061+009009019GF199999001001999999031001KA1999N-01201MD1210051+9999MW1011REMSYN01170062 86130EQDQ01+000012SCOTCVQ02+000992SCOLCB
0057937800999991974081812004-43483+172533FM-12+0037NZCH V0202301N00411012001CN0200001N9+00501+00401101901ADDAY181999GF105991051081008001031999MD1210321+9999MW1251
0057306790999991974121321004+53100+119217FM-12+038899999V0209991C00001021001CN0500001N9-03001-03201102721ADDAY121999GF108991081001022501021999MD1710111+9999MW1031
0050722665139101974062305004+32433-099850SAO  +0546DYS  V0202001N002012200019N0240001N1+02891+01221999999ADDGF100991999999999999999999MA1101221999999MW1001
0039031400999991974040402204+55867-004433FM-15+0007EGPF V0200401N00301220001CN0025001N1+00501+00401999999REMMET011GRADU 1500%EQDQ01+000000PRSWM2
0250729000999991974092100004+55450-060233SY-SA+0001YHO  V0202301N00511014401MN0240001N1+00801+00801100701ADDAA106001091AA224002091AJ100009199999999AY161999GD13991+0144099GD24991+0300099GF108991071051012501021999KA1999M+00891KA2999N+00441MA1100711100701MD1510011+9999MW1021REMSYN023  070 70410 20008 44840AWY010SC9AS1 501EQDQ01+000003PRSWM2Q02  00103PRCP99
0109607500999991974091109004+34717+010683FM-12+0024DTTX V0201401N00311007801CN0100001N9+02801+02101101851ADDAY111999GA1021+006009089GA2051+007809059GF106991051081008001081001MD1210121+9999MW1031REMSYN01182820 85  6
0133030220999991974112219004+57467-007367FM-12+0006EGPL V0201401N00571011101CN0350001N9+00701+00601100401ADDAA199000291AY181999GA1021+005409089GA2071+011109059GF107991071081004501999999KA1999M+01001MD1110021+9999MW1251REMSYN01182818 87  7
0139722195999991974123113004+33783-084517SAO  +0256FTY  V0209991C00001000601WN0002001N1+01501+01501999999ADDAA106002091GD15991+0006099GF109991999999999999999999MA1102341999999MD1210101+9999MW1451REMAWY00520009EQDQ01+000002APC3  Q02  00203PRCP99
0158400220999991974051912004+35500+035783FM-12+0007OSLK V0203101N004119999999N0150001N9+99999+99999999999ADDAA199000091AJ100009199999999AY101999GF100991001001999999001001IA1009IA2999+00009MD1810051+9999MW1021REMSYN011700// 20000EQDQ01+000082SCOTCVQ02+098923APOSLP
031672231713970197410231400C+30533-091150SAO  +0020BTR  V0201105N004152200059N0080005N1+01565+01335103125ADDAA101000095GD11995+0900093GD20995+9999999GD30995+9999999GD40995+9999999GF103015999999999999999999MA1103121102845MW1045MW2111MW3445REMAWY009?BTR?9/22EQDN01 07280JPWTH 1QNNE11 1 00199E11 1 00099E11 1 00099E11 1 00099G11U1 99999K11 1 00056L11 1 00500M11 1 30370N11 1 07280Q11 1 10312S11 1 00060V11 1 00401X11 1 11008
036072658014922197412280900C+44883-093217SAO  +0254MSP  V0201805N00775003354MN0096005N1+00005-00175101405ADDAA101000095GA1999+003354074GD14085+0033099GD20995+9999999GD30995+9999999GD40995+9999999GF108085999999999999999999MA1101291098275MD1610121+9999MW1455REMAWY024  2 16//?MSP?12/40 12/44EQDN01 07000JPWTH 1QNNE11 1 00610E11 1 00099E11 1 00099E11 1 00099G11 1 00011H11 1 16011K11 1 00029L11 1 00600M11 1 29020N11 1 07000Q11 1 10140S11 1 00032V11 1 01010X11 1 18015
0079727000999991974101610254+45867-066533SAOSP+0020YFC  V0209991C000010120019N0016001N1+99999+99999999999ADDGD16991+0001599GD24991+0120099GF108991999999999999999999MW1451REMAWY005F4SC6
0073467560999991974101803354+24817+120933FM-16+0008RCPO V0202601N004110360019N0080001N1+99999+99999999999ADDGA1011+006009999GA2051+036009999GA3071+075009999MW1111REMMET007CIG120%
0063511560999991974050503004+46533+086017FM-12+081899999V0202501N004019999999N0550001N9+01001-00601101641ADDAY121999GF107991001001999999031021MW1021REMSYN01198707 052//
0050724037937281974070320004+38717-077183SAO  +0021DAA  V0202701N002012200019N0112001N1+03391+02171999999ADDGF100991999999999999999999MA1101831999999MW1001
0036042020999991974121522004+76533-068750FM-15+0077BGTL V0201001N00301999991CY0099001N1-03101-04001999999ADDMW1001REMMET018CAVOK MAG180 LS05%
0069786630999991974050303004+13700-089117FM-12+0616MSSS V0201701N00151220001CN0080001N9+02301+02101101341ADDGA1031+012009059GF103991031051012501001001REMSYN01583640 NO    SIG
0052020840999991974040421504+57700+011783FM-15+0006ESGB V0203601N00101220001CN0070001N1+00401+00201999999ADDMA1102711999999REMMET006NOSIG%EQDQ01+000000PRSWM2
0070064580999991974091011254+50750+004767FM-15+0105EBBE V0202301N00611005101CN0112001N1+01601+01201999999ADDGA1061+005109999MA1102911999999REMMET008WHT WHT%EQDQ01+000000PRSWM2
0151786500999991974101409004+13567-089833FM-12+0015MSAC V0200801N00151030001CN0200001N9+02401+02201101091ADDAY121999GA1021+008109089GA2011+012009099GA3031+030009039GF106991031091012501051021MA1999999100851MW1131REMSYN01782827 81940 83360EQDQ01+999990APOSP 
0109061200999991974122115004+55467+010333FM-12+0017EKOD V0202301N00931002401CN0050001N9+00801+00701101201ADDAY161999GA1021+001809079GA2071+002409079GF108991081061001501999999MD1210091+9999MW1211REMSYN01182706 87708
0097729350999991974022202004+60833-115783SAO  +0165YHY  V0201401N00361027001EN0240001N1-00711-01161101401ADDGD14991+0270099GF108991999999999999999999MA1101251099321MW1001REMAWY004AS10EQDQ01+999990APOSP 
0101476480999991974101312004+35717+140850FM-12+002799999V0200301N008219999999N0150001N9+01801+01501101621ADDAA199000091AY161999GF108991061011999999021999KA1999M+01801MD1810041+9999MW1031REMSYN01171518 13000
0096745160232021974022400004+38267-121933SAO  +0019SUU  V0200201N005112200019N0400001N1+01721+00171102411ADDGD12991+0750093GF102991999001999999001011MA1102401999999MD1610221+9999MW1001REMAWY008 >2 1001
019291182022521197410291200D+21333-157933SY-SA+0004PHNL V0200501N003012200019N0400001N1+02501+02111101571ADDAA101000095GD12991+0069099GD22991+0150099GD32991+0750099GF103991021081008001001011MA1101591101521MD1810101+9999REMSYN03063152 70020 81823 48776 800130AWY014RWU NW RB14E25EQDQ01  00003PRCP99
0056106570999991974020814004+49767+009483FM-15+0338EDOF V0202601N00771007501CN0100001N9+00201+00001999999ADDGA1061+007509059MA1101321999999MW1001REMMET007CIGE025
0078334290999991974121818004+49400+026983FM-12+019599999V0201801N00201000301CN0002001N9-00401+99999100891ADDAY141999GA1091+999999999GF109991091999000251999999MW1451REMSYN010781/8722-?
0084162890999991974121408004+40850+014300FM-15+0088LIRN V0203601N00511220001CN0112001N1+00501-00201999999ADDGA1011+006009089GA2031+060009009MA1101081999999REMMET006NOSIG%EQDQ01+000000PRSWM2
0135999999999991974032606004+40900+133900FM-13+0000UVZR V0203001N00201220001CN0100001N9+00301+99999102261ADDAY101999GF102991001001999999001071MW1011SA1+0409UA1M030109999REMSYN01110400 30302EQDQ01+000912SCOLCBQ02+000022APCTENQ03+000002APC3  
0102722310129161974122418034+29983-090250SAOSP+0009MSY  V0202101N005112200019N0096001N1+99999+99999999999ADDGD12991+0012099GF102991999999999999999999MA1101901101791MW1041MW2111REMAWY003%V?EQDQ01+999990APOSP 
0109033340999991974082804004+53350-002267FM-12+0078EGCC V0201601N00361220001CN0300001N9+00901+00601102321ADDAY101999GA1011+010509059GA2031+075009009GF103991011051012501001021MD1710161+9999MW1031REMSYN01181  5 83075
0018619020999991974081422004-07967-014400SAO  +0086FHAW V0201101N005619999999N9999999N9+99999+99999101921ADDMA1101931100911
0072032431999991974060511504+55033-001683FM-15+0080EGNT V0202101N00411009001CN0112001N1+01001+00701999999ADDGA1011+006009999GA2051+009009999GA3071+024009999MA1101191999999MW1801
0086105020999991974030419444+50833+006667FM-15+0117EDNN V0202701N00151006001CN0028001N1+00301+00001999999ADDGA1051+006009059GA2071+012009059MA1101081999999REMMET008YLO YLO%EQDQ01+000000PRSWM2
0159484560999991974022503004+13917+100617SY-MT+0004VTBD V0201201N00151220001CN0080001N1+02801+02501101121ADDAY141999GA1011+003009079GA2021+006009059GA3011+090009009GF105991021011008001001061MA1101191999999MW1061MW2101UA1M009999999REMSYN01130049 489//MET008QFF 1012
0043476000999991974083101004+37383+136900FM-12+000599999V0200301N00461220001CN0300001N9+02901+02201100101ADDAY101999GF101991011001999999081001MW1021
0081421400999991974110503004+29850+077883FM-12+027399999V0209991C00001220001CN0200001N9+01401+00801101491ADDAA124000091AY101999GF100991001001999999001001KA1999N+01001MW1001REMSYN00570010
0073486200999991974040909004+04217+100700FM-12+000899999V0202901N00411045001CN0200001N9+02901+02601100571ADDAA199999999AY121999GF107991031091004501061031MW1251EQDQ01  00002PRCP99
0099999999999991974022218004+55800+175000FM-13+0000UYEO V0201301N01801007501CN0200001N9+00001+99999103241ADDAY121999GF108991081051008001999999MD1410001+9999MW1021SA1+0099UA1M090459999REMSYN01210095 30909
0117729450999991974071414154+58833-122600SAOSP+0382YYE  V0201801N001010075019N0112001N1+99999+99999999999ADDGD12991+0009099GD23991+0075099GD33991+0270099GF107991999999999999999999MW1001REMAWY028SF1SC6AC1 SF IN RVR VLY E-SE
0087085240999991974110615004+33067-016350FM-12+0093LPPS V0200301N00511220001CN0200001N9+02001+01201102091ADDAY111999GA1031+006009089GF103991031021008001999001MD1710231+9999MW1021REMSYN00583820
007494818099999197402182230N-38070+140670AUST +0006     V0201355N006259999999N999999999+01605+99999999999ADDAY124999GA1085+006005085GF108995084085006005999999MA1999999101595MW1035
0057103590999991974102202004+52517+011400FM-12+004799999V0203001N00601004201CN0030001N9+00501+00501099301ADDAY121999GF108991081031004501999999MD1810241+9999MW1811
0104274790999991974031503004+56350+046567FM-12+011199999V0201801N00301003601CN0300001N9-00201-00501102221ADDAA199999929AY121999GA1081+003609059GF108991081051004501999999MD1710021+9999MW1021REMSYN011797// 88  2
0136343910999991974100706004+50150+048550FM-12+002599999V0200901N00301220001CN0100001N9+01301+00001103321ADDAA199000091AJ100009199999999AY101999GF100991001001999999001001IA1009IA2999+00209KA1999N+00501MD1210081+9999MW1021REMSYN01170005 20200
0069601350999991974061620004+34050-006750FM-15+0084GMME V0200201N00301220001CN0112001N1+02001+01601999999ADDGA1011+004509999GA2031+069009999MA1101691999999EQDQ01+000000PRSWM2
0166722268938431974050611304+31317-085450SAOSP+0122DHN  V0203601N00461000901WN0012001N1+99999+99999999999ADDGD15991+0009099GF109991999999999999999999MA1100951999999MW1451REMAWY092FDY 1100 COR ALSTG 978       ?     FDY UA      ?     FDY UA 1130 20N TOL LGT-MDT ICG 40 C182
0057250340999991974022515004+69617+162300FM-12+002699999V0202301N01601030001CN0016001N9-02001-02101099661ADDAY171999GF106991061001999999031001MD1210101+9999MW1391
007494999900072197408152030N-16270+133380AUST +0214     V0201355N002659999999N999999999+01505+00405999999ADDAY104999GA1005+999999999GF100995004999999999999999MA1999999099125MW1025
0109035590999991974090302004+52100-000417FM-12+002999999V0202201N01341010801CN0280001N9+01401+01001098981ADDAY181999GA1041+007209089GA2061+010809059GF107991071081008001999999MD1310141+9999MW1021REMSYN01184824 86  6
0135784670999991974081800004+19050-069383FM-12+001199999V0200901N00511220001CN0240001N9+02701+02401101621ADDAY101999GA1031+006009059GF103991031081008001001001IA1009KA1999M+03001KA2999N+02301MW1031REMSYN03583  0 90500 91904 992// 112// 43023
010872659014929197405301100D+45450-098417SAO  +0396ABR  V0200101N00361024001EN0112001N1+01221+00891100731ADDAA101000095GD14991+0240099GF108991999999999999999999MA1100751096101MW1801REMAWY004RB09EQDQ01+999990APOSP 
0043999999999991974050106004+49600+164900FM-13+00005MIH V0202901N012919999999N0200001N9+00401+99999999999ADDAY121999GF108991999999999999999999MW1021
0057297450999991974071903004+54283+085917FM-12+022599999V0202901N00101030001CN0200001N9+01801+01101100311ADDAY111999GF108991061001999999031021MD1810011+9999MW1031
0069062900999991974102402294+52267+006900FM-15+0035EHTW V0203201N00201003601CN0080001N1+00801+00801999999ADDGA1051+003609999GA2081+005409999MA1101191999999EQDQ01+000000PRSWM2
0159764050999991974052915003+24067-110350SAO  +0014LAP  V0203501N00511021001EN0192001N1+02201+01901999999ADDAA106000091GD13991+0210019GD23991+2100019GF107991999999999999999999MA1106401999999MD1010441+0444MW1001REMAWY010BMSO 07800EQDQ01+000782APC3  Q02  00003PRCP99
0055075100999991974112617004+44833-000700FM-15+0049LFBB V0203001N00921001501CN0020001N1+01401+01301999999ADDGA1071+001509999MA1101801999999MW1611REMMET006NOSIG%
011072576024021197405080100D+42817-108733SAO  +1703LND  V0203401N00921018001EN1120001N1+02001+00001100731ADDAA101000095GD13991+0180099GD23991+0750099GF107991999999999999999999MA1101151082431MW1001EQDQ01+999990APOSP 
0104983330999991974041209004+15767+121567FM-12+000499999V0200901N00211220001CN0300001N9+02901+02301101151ADDAA199000091AY101999GA1031+006009089GF104991031021008001061001MD1610031+9999MW1021REMSYN01170022 83820
0053789700999991974121802004+10617-061350FM-15+0012MKPP V0209991C00001220001CN0112001N1+02301+02001999999ADDGA1011+007509089MA1101391999999EQDQ01+000000PRSWM2
0080722886231301974120422004+34217-018483SAO  +0244VNY  V0202501N002510075019N0112001N1+01721+99999999999ADDGD12991+0039099GD24991+0075099GF108991999999999999999999MA1101151999999MW1001
0091033910999991974050304004+53100-000167AERO +0008EGXC V0200801N00611012001CN0120001N9+00701+00501999999ADDAY161999GA1021+009009059GA2051+012009059GA3081+027009049GF108991999999999999999999MW1611
0101983330999991974122221004+15767+121567FM-12+0004RPUR V0201401N00101045001CN0150001N9+02201+02101101351ADDAA106001091AY161999GF108991021071004501021999MD1610021+9999MW1611REMSYN00570129EQDQ01  00103PRCP99
0089038390999991974061521004+50733-003417FM-12+0030EGTE V0202001N00101075001CN0060001N9+01601+01401101621ADDAY111999GA1011+015009089GA2071+075009009GF107991011011017501001011MD1510021+9999MW1051
007494120099999197407131130N-12420+130870AUST +0030YPDN V0200235N001559999999N999999999+02005+01505999999ADDAY144999GA1005+999999999GF100995004999999999999999MA1999999101285MW1045
0057587640999991974041100004+27633+121050FM-12+001899999V0203601N00701220001CN0450001N9+01301+01001102061ADDAY101999GF100991001001999999001001MD1210161+9999MW1021
0053033230999991974103111504+53333-002850FM-15+0026EGGP V0201701N00101018001CN0018001N1+00601+00401999999ADDGA1071+018009999REMMET006NOSIG%EQDQ01+000000PRSWM2
0076471350999991974040103004+36217+128000FM-12+024699999V0202701N00931007501CN0300001N9+00501-00501999999ADDAY121999GF107991071051008001001001MD1010011+9999MW1021EQDQ01+101993APOSLP
0158070610999991974052706004+49817+003200FM-12+0098LFOW V0200201N00101220001CN0050001N9+01101+00801101741ADDAA199000091AJ100009199999999AY111999GA1011+009009059GF101991011051008001001001IA1009IA2999+00509KA1999N+00801MD1610041+9999MW1011REMSYN01720500 70008 81  0
0117728680999991974030222004+52867-102400SAO  +0372YHB  V0200401N006610030019N0008001N1-01771-02051099991ADDGD15991+0030099GF109991999999999999999999MA1099631095301MW1731OC100871REMAWY016S10 HVY DRFT SNWEQDQ01+999990APOSP 
0057043400999991974071509004+70417-021967FM-12+0042BGKT V0209991C00001021001CN0750001N9+00501+00001100541ADDAY121999GF106991061001022501031001MD1310021+9999MW1021
0113747770038521974080223004+30433-086683SAO  +0012HRT  V0201201N002010090019N0016001N1+02391+02171999999ADDGD12991+0030099GD24991+0090099GF108991999999999999999999MA1101491999999MW1811REMAWY024CB ALQDS MOVG NE WET RWY
0081722597939851974050201004+32783-098067SAO  +0294MWL  V0201801N002512200019N0480001N1+02061+01781101041ADDGF100991999999999999999999MA1101151999999MW1001REMAWY022FEW CU W-N LINE CU E-S
0053083730999991974092722304+38867+001383FM-15+0007LEIB V0209999999999220001CN0112001N1+02201+02001999999ADDGA1021+005109999MA1101391999999EQDQ01+000000PRSWM2
0057336780999991974082403004+48150+028300FM-12+017399999V0209999999999036001CN0100001N9+01601+01401101951ADDAY121999GF107991071001999999031001MD1210091+9999MW1021
0057309690999991974110915004+49917+111817FM-12+061099999V0203201N00301220001CN0500001N9-02201-02701103891ADDAY101999GF100991001001999999001001MD1710051+9999MW1021
0144764590999991974081206004+23200-106417SAO  +0006MZT  V0209991C000012200019N0160001N1+02601+02401999999ADDAA106023091GD12991+2100099GF102991999999999999999999MA1106271999999MD1010021+9999MW1001REMAWY026RLPGS NE Y E ALGS CU/00290EQDQ01  02303PRCP99
0043038340999991974091306004+50200-003717AERO +005999999V0202701N012819999999N0004001N9+01501+01401999999ADDAY141999GF109991999999999999999999MW1451
0422722909931151974072303003+32567-117117SAO  +0006NRS  V0202505N00155004574EN0160005N1+02395+01725101225ADDGA1999+004574064GA2999+076204004GA3999+999999999GA4999+999999999GD13065+0045099GD23015+0750099GD30005+9999999GD40005+9999999GF107065999999999999999999MA1101191101125MD1610071+9999MW1001REMAWY016RB25E40 607 1504EQDN01 00000JPWTH 1QNNE11 1 00408E11 1 00401E11 1 00000E11 1 00000G11 1 00015H11 1 15015H11 1 32250H11 1 00999H11 1 00999K11 1 00063L11 1 01000M11 1 29860N11 1 00000Q11 1 10122S11 1 00075V11 1 00908X11 1 25003
0100424070999991974080712004+26183+090633FM-12+003699999V0203201N003619999999N0040001N9+03001+02601099831ADDAA199000091AY111999GF106991999021012501001001KA1999M+03101MW1021REMSYN00570031EQDQ01+000042SCOTLC
0058162420999991974090817004+41800+012233FM-15+0002LIRF V0202901N00461999991CY0099001N1+02401+01801999999ADDMA1101491999999REMMET012CAVOK NOSIG%EQDQ01+000000PRSWM2
0087484050999991974111012004+16050+103683FM-12+0140VTUR V0209991C00001220001CN0100001N9+02701+02401100821ADDAA199019091AY111999GF102991001001999999001051KA1999M+03101MW1101REMSYN01171931 4198/
0123287220999991974013106004+54750+056000FM-12+019799999V0209991C00001220001CN0045001N9+99999+99999999999ADDAA199000091AL10699999AY101999GF100991001001999999001001IA1319MD1510001+9999MW1101REMSYN01170086 2//96EQDQ01+103383APOSLP
0146740940999991974020600004+66600-061583SY-SA+0393YVN  V0202401N000512200019N0240001N1-02001-02301102171ADDAY101999GF100991001001999999001001KA1999M-01301KA2999N-02201MA1101691097231MD1110111+9999MW1021REMSYN01169723 40691AWY003111EQDQ01+000003PRSWM2
0086478570999991974100906004+31867+131450FM-15+0006RJFM V0202501N00411018001CN0112001N1+02001+01401999999ADDGA1011+010509999GA2061+018009999GA3071+027009999MA1101491999999MW1611REMMET0052998%
028772217003813197405131900C+32700-083650SAO  +0108MCN  V0203205N004652200059N0192005N1+02785+00785101575ADDAA101000095GD10995+9999999GD20995+9999999GD30995+9999999GF100005999999999999999999MA1101591100275MW1001EQDQ01+999990APOSP N01 00000JPWTH 1QNNE11 1 00099E11 1 00099E11 1 00099E11 1 00099G11U1 99999K11 1 00046L11 1 01200M11 1 29610N11 1 00000Q11 1 10157S11 1 00082V11 1 00000X11 1 32009
0057171880999991974111514004+38667+029417AERO +0919LTBO V0200401N00361220001CN0300001N9+01201+00401999999ADDAY101999GF100991999999999999999999MW1021REMSYN0051022%
0080727125146231974072311004+46933-067883SAO  +0227LIZ  V0201801N003012200019N0240001N1+01611+01391999999ADDGD12991+0240099GD23991+0600093GF107991999999999999999999MA1102001999999MW1001
0101722115999991974112720004+27400-082550SAO  +0007SRQ  V0202901N009212200019N0048001N1+02391+01561999999ADDGD12991+0060099GD22991+0600099GF102991999999999999999999MA1101591999999MW1041MW2051REMAWY006TCU SE
0115033790999991974111416004+53033-000500AERO +0067EGYD V0202101N01381010501CN0300001N9+01001+00601999999ADDAY121999GA1011+006609099GA2031+007209089GA3051+010509059GF106991999999999999999999MW1251OC102001REMSYN007QNT 39%
051872235003940197412151800C+32317-090083SY-SA+0089JAN  V0203505N00575076204EN0320005N1+01225+00395101265ADDAA101000095AA224006091AJ100009199999999AY151999GA1999+076204004GA2999+999999999GA3999+999999999GA4999+999999999GD13065+0750099GD20005+9999999GD30005+9999999GD40005+9999999GF106055001001999999001991KA1999M+01391KA2999N+01111MA1101291100075MD1010001+9999MW1011REMSYN023  007 70060 20025 45752EQDQ01+000003PRSWM2N01 00000JPWTH 1QNNE11 1 00408E11 1 00000E11 1 00000E11 1 00000G11 1 00250H11 1 32250H11 1 00999H11 1 00999H11 1 00999K11 1 00039L11 1 02000M11 1 29550N11 1 00000Q11 1 10126S11 1 00054V11 1 00806X11 1 35011
0068154210999991974021408004+44567+026100FM-15+0095LROP V0200501N00391003901CN0060001N1+00401+00401999999ADDGA1081+003909079MA1101491999999REMMET006NOSIG%EQDQ01+000000PRSWM2
0096729330999991974013010004+58767-111117SAO  +0232YPY  V0202401N00151030001EN0192001N1-03331-03661101471ADDGD14991+0300099GF108991999999999999999999MA1101151098431MW1711REMAWY003AS9EQDQ01+999990APOSP 
0104106590999991974090616004+49750+010200FM-15+0210EDIN V0202201N003610210019N0112001N1+01301+01101999999ADDGA1011+004809999GA2011+009009999GA3041+021009999GA4081+027009999MA1101021999999MW1211REMMET007CIG070%
0096722245999991974083012004+30217-085683SAO  +0006PFN  V0201101N002512200019N0112001N1+99999+99999999999ADDGD12991+0090099GD22991+0600099GF102991999999999999999999MA1101961999999MW1001REMAWY007TCU E-W
0084072220999991974042519004+47167-001617FM-15+0027LFRS V0203201N00411018001CN0112001N1+01001+00401999999ADDGA1031+012009099GA2071+018009059MA1101291999999REMMET006NOSIG%EQDQ01+000000PRSWM2
0170287860999991974122803004+54367+071750FM-12+012499999V0203001N00201003601CN0500001N9-01101-01201102851ADDAA199000091AJ100039199999999AY121999GA1081+003609079GF108991081061004501999999IA1319IA2999-01509KA1999N-01401MD1210091+9999MW1021REMSYN02970064 88712 26593 92233 99605
0120701170999991974060420004+65567-167917SAO  +0082PATC V0203501N004110210019N0080001N1-00271-00551999999ADDGD12991+0045099GD23991+0210099GD34991+0540099GF108991999999999999999999MA1100611999999MW1451MW2711REMAWY010LSR CLDS E
0043383830999991974040918004+41833+058717FM-12+006299999V0200901N003019999999N0200001N9+01801+99999100621ADDAY111999GF108991071001999999999999MW1031
0112703050999991974122420004+58650-162067SAO  +0165PAEH V0201701N00561004201EN0160001N1-00161-00381999999ADDGD13991+0042099GD23991+0090099GF107991999999999999999999MA1098921999999MW1711OC101181REMAWY0156ST4SC RCR MISG
0043108605999991974062106484+48750+011800FM-16+0404EDAV V0209991C00001220001CN0037001N1+99999+99999999999ADDGA1011+066009999MW1421REMMET009HZ PRSNT%
0105722970231291974101719004+33817-118150SAO  +0018LGB  V0202101N003012200019N0128001N1+03111+01001101761ADDGD12991+0480099GD22991+0600099GF102991999999999999999999MA1101761999999MW1001REMAWY016?LGB?10/12 10/18
012972518014735197401112000D+42750-073800SAO  +0088ALB  V0203601N003610024019N0048001N1-00831-00941101041ADDAA101000095GD12991+0015099GD24991+0024099GF108991999999999999999999MA1100981999999MW1451REMAWY029?ALB?1/32 1/45 1/54 1/68 1/70
0043614150999991974122312004+20933-017033FM-12+0005GQPP V0200401N00721220001CN0100001N9+02001+00901102091ADDAY101999GF100991001001999999001001MW1021
0058162420999991974031522504+41800+012233FM-15+0002LIRF V0209991C00001999991CY0099001N1+01101+00201999999ADDMA1100611999999REMMET012CAVOK NOSIG%EQDQ01+000000PRSWM2
0095283210999991974092215004+57717+055383FM-12+012199999V0202701N00101030001CN0450001N9+01001+00601101401ADDAA199000091AY121999GF105991051001999999031001KA1999M+01401MD1210011+9999MW1021REMSYN00570014
0101319890999991974063021004+42900+133900FM-12+003499999V0209991C00001000301CN0002001N9+01201+01201101031ADDAA199000091AY141999GF109991091999999999999999KA1999N+01101MD1210031+9999MW1451REMSYN01170011 97092
0093874360999991974020213004-33267-066350FM-12+0702SAUI V0201401N00411015001CN0300001N9+02001+01701999999ADDAY121999GF108991081051017501999999MA1999999092661MD1110111+9999MW1021REMSYN01269266 1007.7
0136127720999991974111206004+48133+020800FM-12+011999999V0201601N00101002101CN0012001N9+00101+00101102231ADDAA199000091AJ100009199999999AY121999GF108991081061002501999999IA1089IA2999-00209KA1999N-00101MD1610011+9999MW1101REMSYN01125210 70051
0043423480999991974031718004+26817+075800FM-12+0389VIJP V0209991C00001220001CN0040001N9+02001+00101101171ADDAY101999GF100991001001999999001001MW1021
0082474300999991974012821004+41817+140750FM-12+003399999V0202901N00261220001CN0100001N9-00701-01101101681ADDAA199000091AY101999GF101991011011999999001001MD1110011+9999MW1021REMSYN00540090
0095548630999991974101106004+36767+121200FM-12+002499999V0201801N00301220001CN0500001N9+01901+00901101921ADDAA199000091AY101999GF101991011011008001001001KA1999N+00901MD1710151+9999MW1011REMSYN005/0009
0158333930999991974010306004+49817+023950FM-12+0334UKLL V0201601N00501000901CN0040001N9-00501-00701102621ADDAA199999929AJ100009199999999AY111999GA1081+000909079GF108991081061001501999999IA1139IA2999-00809KA1999N-00601MD1710101+9999MW1101REMSYN01779756 88703 25830
0080725197947941974072219004+43150-075383SAO  +0226UCA  V0209991C000012200019N0320001N1+02611+01061101801ADDGD12991+0120099GD23991+0750093GF107991999999999999999999MA1101831999999MW1001
046372226013895197406042100C+32300-086400SAO  +0058MGM  V0201005N004152200059N0128005N1+02785+02175101745ADDAA101000095GA1999+009144084GA2999+018294084GA3999+999999999GA4999+999999999GD12025+0090099GD22025+0180099GD30005+9999999GD40005+9999999GF103035999999999999999999MA1101761101025MD1810221+9999MW1001REMAWY030FEW TCU ALQDS 822 1200?MGM?4/7EQDQ01+999990APOSP N01 00000JPWTH 1QNNE11 1 00202E11 1 00202E11 1 00000E11 1 00000G11U1 99999H11 1 11030H11 1 11060H11 1 00999H11 1 00999K11 1 00071L11 1 00800M11 1 29830N11 1 00000Q11 1 10174S11 1 00082V11 1 00404X11 1 10008
0057156140999991974062803004+42817+023383FM-12+059599999V0201801N00101090001CN0100001N9+01601+01301100881ADDAY111999GF105991021041012501051011MD1710071+9999MW1031
0088478270999991974061303004+31567+130550FM-12+000499999V0200501N004619999999N0080001N9+01901+01701101111ADDAA199007091AY161999GF108991071071999999021999MD1810031+9999MW1611REMSYN01113007 40719
0069039170999991974103002504+54650-006217FM-15+0081EGAA V0200101N00151220001CN0112001N1+00301+00001999999ADDGA1021+010809999GA2031+024009999REMMET006NOSIG%EQDQ01+000000PRSWM2
0057150630999991974050215004+47200+023050FM-12+029599999V0203201N00501007501CN0100001N9+01201+01101099711ADDAY121999GF108991081091008001999999MD1210091+9999MW1021
0076229540999991974021703004+60467+040233FM-12+018199999V0200201N00401004201CN0400001N9-00401-00401102401ADDAY171999GF108991999071004501021999MD1210161+9999MW1711EQDQ01+000082SCOTLC
0119313690999991974040900004+53150+140700FM-12+0047AMUR V0200901N00201220001CN0200001N9-00601-01201102061ADDAA199000091AY101999GF103991001001999999001011IA1319IA2999-01409KA1999N-01101MD1710141+9999MW1021REMSYN01170061 26497
0068173500333081974020405004+37000+035433FM-15+0073LTAG V0203601N00101220001CN0112001N1+00401-00101999999ADDGA1031+012009059MA1102911999999REMMET006NOSIG%EQDQ01+000000PRSWM2
0087262380999991974020221004+57917+025333FM-12+007099999V0201601N00101002401CN0050001N9-00101-00201101881ADDAY121999GA1081+002409079GF108991081061002501999999MD1710051+9999MW1101REMSYN00588708
0082345550999991974082612004+48367+043100FM-12+007799999V0200201N00301220001CN0200001N9+02401+00601101971ADDAA199000091AY101999GF100991001001999999001001MD1710161+9999MW1021REMSYN005700//
0136281160999991974100503004+58983+054650FM-12+015099999V0202701N00201220001CN0150001N9+00401+00401102591ADDAA199000091AJ100009199999999AY101999GF103991031051012501001001IA1009IA2999+00109KA1999N+00401MD1210011+9999MW1031REMSYN01170004 20100
0095357390999991974103018004+46517+059917FM-12+007699999V0209991C00001220001CN0500001N9+00601+00301101471ADDAA199000091AY101999GF100991001001999999001001KA1999M+02201MD1310051+9999MW1021REMSYN00570022
0053115180999991974100104304+50100+014283FM-15+0376LKPR V0202801N00391220001CN0035001N1+00301+00201999999ADDGA1011+030009999MA1101801999999EQDQ01+000000PRSWM2
0081426670999991974033012004+23283+077333FM-12+0523VABP V0203601N00411220001CN0200001N9+03601+00801100151ADDAA199000091AY101999GF100991001001999999001001KA1999M+03801MW1021REMSYN00570038
0109036830999991974061205004+51883+000233FM-12+0105EGSS V0203401N00461006001CN0080001N9+01401+01101102311ADDAY121999GA1041+003609079GA2081+006009059GF108991081051004501999999MD1210091+9999MW1501REMSYN01184712 88  0
0095166840999991974052318004+38900+024550FM-12+000499999V0202201N00461220001CN0150001N9+02101+01301100171ADDAA199000091AY111999GF101991001001999999001031KA1999M+02901MD1310011+9999MW1011REMSYN00570029
0138560210999991974050206004+34350+095683FM-12+460099999V0209991C00001012001CN0350001N9+00901-00301999999ADDAA106999999AA299999929AY121999GF107991051021012501031999KA1999N-00101MA1999999060861MW1261REMSYN01766086 /9751 00251EQDQ01  00002PRCP06
0097728660999991974012611004+52167-106700SAO  +0504YXE  V0200101N00201000901MN0096001N1-01881-02111101681ADDGD14991+0009099GF108991999999999999999999MA1101191095301MW1711REMAWY004SC10EQDQ01+999990APOSP 
0062467580999991974030402004+22700+120483FM-15+0029RCSQ V0200301N00411030001CN0060001N1+02401+01601999999ADDGA1061+030009039MA1101801999999MW1061REMMET013306INS CIG100
0423703410255071974052509003+59633-151500SAO  +0021HOM  V02099959000052200059N0320005N1+00615+00445101085ADDGA1999+021344034GA2999+999999999GA3999+999999999GA4999+999999999GD12025+0210099GD20005+9999999GD30005+9999999GD40005+9999999GF102025999999999999999999MA1101081100815MW1001REMAWY0152AC 103?HOM?5/1EQDQ01+999990APOSP N01 00000JPWTH 1QNNE11 1 00202E11 1 00000E11 1 00000E11 1 00000G11U1 99999H11 1 23070H11 1 00999H11 1 00999H11 1 00999K11 1 00040L11 1 02000M11 1 29770N11 1 00000Q11 1 10108S11 1 00043V11 1 00202X11 1 00000
0057043400999991974052921004+70417-021967FM-12+0042BGKT V0202301N00361220001CN0750001N9-00401-00401101711ADDAY101999GF101991001001999999001011MD1710061+9999MW1021
0297722700230441974111814003+31800-106400SAO  +1194ELP  V0203205N001050365849N0480005N1+00785+00505101485ADDGD12995+0240099GD23995+0360099GD34995+0840099GD40995+9999999GF108075999999999999999999MA1101761088185MW1001REMAWY013KOCTY VIRGA EEQDN01 00000JPWTH 1QNNE11 1 00299E11 1 00499E11 1 00699E11 1 00099G11 1 00120K11 1 00041L11 1 03000M11 1 26040N11 1 00000Q11 1 10148S11 1 00046V11 1 01009X11 1 32002
0057297560999991974110703004+54500+089933FM-12+046899999V0200501N00101220001CN0200001N9-01901-02201103871ADDAY171999GF106991031001999999041011MD1210061+9999MW1221
0069075770999991974100216004+44583+004733FM-15+0073LFLQ V0200201N00361220001CN0112001N1+99999+99999999999ADDGA1011+010809999GA2031+015009999MA1101801999999EQDQ01+000000PRSWM2
0079916010999991974070712004+03083+172800FM-12+0001NGTU V0209991C00001045001CN0200001N9+02501+02401999999ADDAA106000091AA299999929AY191999GF108991031021004501071999MW1021REMSYN00579729
0057470160999991974122118004+41400+128650FM-12+099899999V0209991C00001220001CN0200001N9-02001-02101103461ADDAY101999GF100991001001999999001001MD1210011+9999MW1021
0082122950999991974121700004+53100+023167FM-12+014899999V0201801N00401001201CN0060001N9+00001-00101101301ADDAA199000091AY121999GF108991081061001501999999MD1710161+9999MW1101REMSYN005700//
0116067020999991974121618004+46433+006100FM-12+167599999V0202501N00881036001CN0650001N9-00601-00601104941ADDAA199000091AY121999GF105991041011004501051011KA1999M-00401MA1999999083091MD1410001+9999MW1021REMSYN01168309 70054
0119243820999991974110500004+66450+143233FM-12+016099999V0209991C00001075001CN0500001N9-03301-03601103461ADDAA199999929AY171999GF108991001001999999001071IA1319IA2999-04209KA1999N-03901MD1710111+9999MW1711REMSYN01179789 29293
0095317130999991974111409004+48700+132883FM-12+007699999V0202701N00301090001CN0500001N9-00801-01601102791ADDAA199000091AY121999GF106991021001999999041021KA1999M-00501MD1310041+9999MW1021REMSYN00570055
0079766400999991974010219003+20950-097383SAO  +0003TUX  V0209999C00001005401EN0160001N1+02201+01701999999ADDGD13991+0054019GD24991+0105019GF108991999999999999999999MW1001REMAWY0055XXX9
015372386023169197407230200D+36083-115150SAO  +0662LAS  V0201401N00771030001EN0560001N1+03721+01281100861ADDAA101000095GD13991+0300099GD23991+0750099GF107991999999999999999999MA1101191093461MW1001REMAWY034CB ALQDS MVMY VRBL RW N NW RWU W EEQDQ01+999990APOSP 
0065726482999991974032715004+45717-087100SAO  +0185ESC  V0202801N00101012001EN0112001N1-00101-00711999999ADDGD14991+0120099GF108991999999999999999999MA1102741999999MW1001
0087919540999991974122521004-23350-149483FM-12+0002NTTS V0202801N00101009001CN0200001N9+02301+02301100781ADDAA199999999AY181999GF107991061081004501071999MW1611REMSYN0057//77EQDQ01  00002PRCP99
0051166410999991974062105154+39600+019917FM-15+0002LGKR V0209991C00001999991CY0099001N1+01801+01701999999ADDMA1101191999999REMMET005CAVOKEQDQ01+000000PRSWM2
0125610360999991974051006004+14200+001467FM-12+0209DRRL V0202001N00101075001CN0250001N9+02701+01901100881ADDAA124000091AY121999GA1021+045009039GA2051+075009029GF107991021001999999041081KA1999N+02701MW1001REMSYN01770027 82365 85275
0057624650999991974042421004+26100+034283FM-12+001199999V0203201N00261220001CN0100001N9+02301+01001101231ADDAY101999GF100991001001999999001001MD1110061+9999MW1021
0043823320999991974062304004-03150-059983FM-12+0084SBMN V0209991C00001220001CN0200001N9+02501+02401101331ADDAY121999GF103991031001999999031001MW1021
0051600400999991974082216004+28950-013600FM-15+0014GCRR V0200501N00301999991CY0099001N1+02901+01901999999ADDMA1101591999999REMMET005CAVOKEQDQ01+000000PRSWM2
0084025180999991974091809004+57300+011900FM-12+000399999V02099999999999999999N0300001N9+01401+01001101611ADDAY111999GF199999031081008001001061MD1210171+9999MW1021UA1M990099999REMSYN00543524
0092747020231101974122007004+36333-119950SAO  +0072NLC  V0209991C00001000151WN0000001N1+00281+00061102651ADDGD15991+0001599GF109991999999999999999999MA1102571999999MW1451REMAWY018R32LVVLESSTHAN3/16
0080725197947941974120922004+43150-075383SAO  +0226UCA  V0202601N00411006001MN0080001N1-00211-00551100731ADDGD13991+0060099GD24991+0180099GF108991999999999999999999MA1100641999999MW1851
0057202910999991974092106004+77950+099833FM-12+003099999V0200201N00301015001CN0170001N9-00701-01001101821ADDAY171999GF108991081001017501071999MD1210041+9999MW1781
0112724230938211974060818024+38183-085733SAOSP+0152SDF  V0201801N004610060019N0112001N1+99999+99999999999ADDGD12991+0027099GD24991+0060099GF108991999999999999999999MA1101461099701MW1801REMAWY004RB01EQDQ01+999990APOSP 
0093316770999991974031012004+49017+138750FM-12+089499999V0202901N00701036001CN0040001N9-01801+99999999999ADDAA199003091AY171999GF108991081001999999021999KA1999M-01001MW1711REMSYN01704    70360 95990
0095741870999991974060908004+49133-068200SAO  +0022YBC  V0202501N004112200019N0240001N1+01171+00891100491ADDGD12991+0750093GF102991999999999999999999MA1100471100201MW1001REMAWY002CIEQDQ01+999990APOSP 
0078726387148501974062505004+44750-085583SAO  +0190TVC  V0209991C000012200019N0160001N1+00941+00721102091ADDGF100991999999999999999999MA1102101999999MW1001REMAWY019FEW SC?TVC?6/7 6/11
0084033340999991974082020504+53350-002267FM-15+0078EGCC V0200201N00101021001CN0090001N1+01601+01001999999ADDGA1051+021009999GA2071+060009999MA1102611999999REMMET006NOSIG%EQDQ01+000000PRSWM2
0057946100999991974032516004-31933+115967FM-12+0021APPH V0200901N00821220001CN0400001N9+02501+01001101281ADDAY101999GF100991001001999999001001MD1810241+9999MW1021
0057572590999991974090612004+32033+110767FM-12+043599999V0209991C000019999999N0750001N9+02201+01801101201ADDAY121999GF107991001001999999071999MD1510001+9999MW1011
0136110360999991974112906004+48117+016567FM-12+0183LOWW V0202701N00771220001CN0400001N9+00501+00001099741ADDAA199999929AJ100009199999999AY161999GF104991011011012501031021IA1089IA2999+00209KA1999N+00401MD1310131+9999MW1031REMSYN01120210 79704
0082725706999991974021502004+39617-110750SAO  +1796PUC  V0200901N000519999999N9999999N9-00441-00771999999ADDAA106000091MA1102001999999REMAWY009RNOVV9.-/EQDQ01+000002VOVAR Q02  00003PRCP99
0058029740999991974111818504+60317+024967FM-15+0051EFHK V0202201N00511999991CY0099001N1+00501+00401999999ADDMA1101021999999REMMET012CAVOK NOSIG%EQDQ01+000000PRSWM2
0057591590999991974052921004+24200+120650FM-12+011399999V0201801N00201004201CN0110001N9+01501+01201100271ADDAY121999GF108991081051004501001001MD1610071+9999MW1021
011772512014761197410132100D+40883-078083SAO  +0589PSB  V0201601N003612200019N0160001N1+01501+00891102411ADDAA101000095GD12991+0045099GD23991+0750093GF107991999999999999999999MA1102441999999MD1710141+9999MW1001REMAWY003714
0075034010999991974102515004+52950-004567AERO +003799999V0203201N01281009001CN0140001N9+99999+99999999999ADDAY121999GA1031+006009089GA2081+009009059GF108991999999999999999999MW1021
029272231713970197405130400C+30533-091150SAO  +0020BTR  V02099959000052200059N0320005N1+02065+01505101565ADDAA101000095GD10995+9999999GD20995+9999999GD30995+9999999GF100005999999999999999999MA1101561101295MW1001REMAWY012?BTR?3/6 4/7EQDN01 00000JPWTH 1QNNE11 1 00099E11 1 00099E11 1 00099E11 1 00099G11U1 99999K11 1 00059L11 1 02000M11 1 29910N11 1 00000Q11 1 10156S11 1 00069V11 1 00000X11 1 00000
0112115200999991974022600004+50000+014450FM-12+030599999V0203601N00301021001CN0080001N9-00101-00301102941ADDAA106999999AA299999929AY121999GF108991081001022501021999MD1410001+9999MW1701REMSYN005797//EQDQ01  00002PRCP06
032672578024156197404261400C+42917-112600SAO  +1358PIH  V0202205N005252200059N0480005N1+00335-00505101355ADDAA101000095GD12995+0300099GD20995+9999999GD30995+9999999GD40995+9999999GF103025999999999999999999MA1101561086155MW1001REMAWY015ST LYR DSNT W-NEQDQ01+999990APOSP N01 00000JPWTH 1QNNE11 1 00299E11 1 00099E11 1 00099E11 1 00099G11U1 99999K11 1 00023L11 1 03000M11 1 25440N11 1 00000Q11 1 10135S11 1 00038V11 1 00403X11 1 22010
0043478000999991974031822004+34200+129300FM-12+002199999V0200401N00151220001CN0300001N9+00301-00701102131ADDAY101999GF100991001001999999001001MW1021
0072103340999991974061205444+52450+009433FM-15+0057EDNW V0203001N00611006001CN0112001N1+00901+00501999999ADDGA1021+004509999GA2051+006009999GA3071+009009999MA1101491999999MW1251
0131783390999991974050612004+22433-079900FM-12+009099999V0209991C00001220001CN0090001N9+02101+02001101151ADDAY101999GA1011+006009089GF102991999041008001001001MD1310031+9999MW1101UA1M021009999REMSYN01781820 30220 43420EQDQ01+000012SCOTLC
0057104790999991974040113004+51300+013017FM-12+031499999V0200701N00901220001CN0050001N9+01301+00301101591ADDAY101999GF100991001001999999001001MD1710111+9999MW1051
005194720099999197406040200N-33850+148650AUST +0300     V0201355N001059999999N999999999+01605+01205999999ADDGA1085+009005095GF108995084035009005999999MW1155
0059037920999991974100712004+51283+000783AERO +009199999V0202701N00511001801CN0040001N9+00501+00501999999ADDAY161999GA1071+001809089GF108991999999999999999999MW1211
0082982220999991974110509004+17567+120383FM-12+0031RPUQ V0203601N01341220001CN0250001N9+02801+02501100581ADDAA199000091AY101999GF103991021091008001001011MD1610041+9999MW1021REMSYN00570089
0068600300999991974020507004+27933-015383FM-15+0025GCLP V0200201N00771007501CN0112001N1+01501+01101999999ADDGA1061+007509059MA1102511999999REMMET006NOSIG%EQDQ01+000000PRSWM2
0131031350999991974111404004+55500-004583FM-12+0020EGPK V0201501N00771007801CN0090001N9+00701+00501096921ADDAY181999GA1021+005409089GA2011+006009099GA3051+007809089GF108991081091004501999999MD1710321+9999MW1811REMSYN01782818 81920 85826
0132723655999991974100813004+34983-106050SAO  +18964MY  V0209991C00001001501EN0080001N1+01001+01001999999ADDAA106004091GD14991+0015099GF108991999999999999999999MW1451REMAWY01120014 46146EQDQ01+000022APCTENQ02+000002APC3  Q03  00403PRCP99
0094723066137131974011205004+35333-077967SAO  +0033GSB  V0202701N004112200019N0112001N1+01881+01501999999ADDGD12991+0120099GD22991+0210099GF102991999999999999999999MA1101631999999MW1001REMAWY00570%V?
0082336050999991974021812004+49067+032667FM-12+007699999V0202301N00501220001CN0120001N9+00201-00201102701ADDAA199000091AY111999GF102991021061004501001001MD1810141+9999MW1011REMSYN005700//
0040167180999991974022223204+38067+023550FM-15+0043LGEL V0209991C00001999991CY0099001N1+00701+00601999999REMMET012CAVOK NOSIG%EQDQ01+000000PRSWM2
0058601010999991974100422004+35717-005917FM-15+0015GMTT V0209999999999999991CY0099001N1+01801+01001999999ADDMA1101691999999REMMET012CAVOK NOSIG%EQDQ01+000000PRSWM2
0276727530149141974040617003+46900-096800SAO  +0273FAR  V0200305N005750012249N0032005N1-00065-00065101285ADDGD14995+0001599GD29999+0012099GD30995+9999999GF108085999999999999999999MA1101151097935MW1455REMAWY002F3EQDN01 07000JPWTH 1P01     03SCCGD2QNNE11 1 00699E11 1 00099E11 1 00099G11 1 00004K11 1 00031L11 1 00200M11 1 28920N11 1 07000Q11 1 10128S11 1 00031V11 1 01010X11 1 03011
0065725540149491974082620004+41117-095900SAO  +0319OFF  V0202201N006612200019N0192001N1+03331+01891999999ADDGD14991+0750093GF108991999999999999999999MA1101251999999MW1001
0043837210999991974091505004-23000-047133FM-12+0660SBKP V0201101N00671220001CN0140001N9+01901+01001101611ADDAY141999GF100991001001999999001001MW1051
0116604190999991974080703004+36283+006633SY-MT+0702DABC V0209991C00001220001CN0099001N1+01601+00401101771ADDAY101999GF100991001001999999001001MA1102201999999MD1610121+9999MW1021REMSYN00595990MET005CAVOKEQDQ01+000000PRSWM2
0043834240999991974031011004-16633-049217FM-12+0747SBGO V0209991C00001045001CN0200001N9+02101+02001101211ADDAY121999GF107991071001999999031001MW1011
0057119300999991974032915004+49200+020217FM-12+263399999V0201801N00201000601CN0060001N9-00201-00601999999ADDAY121999GF107991061061000751001071MD1210041+9999MW1101
0096728610999991974071314004+50383-102583SAO  +0601YDR  V0203001N003612200019N0240001N1+01671+00671101771ADDGD12991+0150099GF102991999999999999999999MA1101731094681MW1001REMAWY003CB1EQDQ01+999990APOSP 
0057316770999991974090118004+49167+138167FM-12+061099999V0202301N00301036001CN0500001N9+01401+01301101441ADDAY121999GF106991021041008001041001MD1710061+9999MW1021
0087722359139781974012712004+33500-090083SAO  +0047GWO  V0202001N002012200019N0160001N1+01001+00831101731ADDGF100991999999999999999999MA1101731999999MD1310071+9999MW1001REMAWY014307 50?GWO?1/1
041672597524235197404060000C+42617-123367SAO  +1169SXT  V0202105N004650003049N0112005N9+00225+00175101655ADDAA101000395GA1999+000304084GD14085+9999999GD20995+9999999GD30995+9999999GD40995+9999999GF108085999999999999999999MA1101761088255MW1805MW2875REMAWY072O          ?     E1?7RW-SP- CIG RGD SML BINOVC SP31/ 165MB 22206 12// 40EQDQ01+000002VOVAR N01 02343JPWTH 1QNNE11 1 00610E11 1 00099E11 1 00099E11 1 00099G11 1 00001H11 1 11001K11 1 00035L11 1 00700M11 1 26060N11 1 02343Q11 1 10165S11 1 00036V11 1 01010X11 1 21009
007494700099999197412120400N-33500+145530AUST +0124     V0202255N002659999999N999999999+02455+00905999999ADDAY134999GA1035+024005085GF103995034015024005999999MA1999999099725MW1035
0111726625240061974090106004+44150-103100SAO  +0999RCA  V0209991C00001030001EN0240001N1+01221+00221101811ADDGD13991+0300099GD24991+0750099GF108991999999999999999999MA1101861999999MD1110101+9999MW1001REMAWY008110 1078
0072679910999991974061612004-22167+030050FM-12+0488FRBB V0201801N00211220001CN0500001N9+02201+00701999999ADDAY101999GF100991001001999999001001MA1999999096471MW1021REMSYN00569647
0112313290999991974051503004+53067+132933FM-12+054399999V0202001N00201005101CN0100001N9+00401+00301999999ADDAY161999GA1061+005109049GF108991999071004501021999MD1710091+9999MW1611REMSYN01186517 95960EQDQ01+000082SCOTLC
046972241012917197407271800C+29950-094017SAO  +0009BPT  V0202705N006252200059N0160005N1+03175+02395101595ADDAA101000095GA1999+999999084GA2999+999999034GA3999+076204004GA4999+999999999GD12999+0750099GD20005+9999999GD30025+9999999GD40005+9999999GF102025999999999999999999MA1101591101525MD1810071+9999MW1001REMAWY036FEW CU AC/ 807 1171 75 TIDE PLUS 005EQDN01 00000JPWTH 1P01    003SCCGD1QNNE11 1 00200E11 1 00000E11 1 00003E11 1 00000G11U1 99999H11 1 11999H11 1 23999H11 1 32250H11 1 00999K11 1 00075L11 1 01000M11 1 29980N11 1 00000Q11 1 10159S11 1 00089V11 1 00302X11 1 27012
0132039690999991974060221004+53433-006250SY-MT+0067EIDW V0202801N00461012001CN0112001N1+01201+00601102211ADDGA1011+007509089GA2061+012009059GF106991051081008001999021MD1310171+9999REMSYN01781825 86640 94068MET006NOSIG%EQDQ01+000000PRSWM2
0096729330999991974032219004+58767-111117SAO  +0232YPY  V0203101N004112200019N0192001N1-02381-03051102901ADDGD12991+0045093GF102991999999999999999999MA1102611099861MW1001REMAWY003CF1EQDQ01+999990APOSP 
0070022470999991974102315004+63183+019017FM-12+001399999V0203601N00621030001CN0120001N9+00101-00201999999ADDAY121999GF108991041051004501021999MW1021UA1M990099999REMSYN00543  6
0122999999999991974021306004+46600+156600FM-13+0000JDZW V0203001N00881001201CN0040001N9+00001-00101098751ADDAY171999GF108991081071001501999999MD1210401+9999MW1711SA1+0079UA1M040209999UG1090402709REMSYN0230//51 10075 30404 27908
043672556014941197402102100C+41983-097433SAO  +0471OFK  V0203305N006252200059N0224005N1-00065-00675102405ADDAA101000095GA1999+999999034GA2999+999999999GA3999+999999999GA4999+999999999GD10005+9999999GD20005+9999999GD30005+9999999GF100005999001999999071991MA1102241096655MD1610031+9999MW1001REMAWY018FEW AC NW/603 1070EQDQ01+999990APOSP N01 00000JPWTH 1QNNE11 1 00000E11 1 00000E11 1 00000E11 1 00000G11U1 99999H11 1 23999H11 1 00999H11 1 00999H11 1 00999K11 1 00020L11 1 01400M11 1 28540N11 1 00000Q11 1 10240S11 1 00031V11 1 00000X11 1 33012
042172248713935197402070000C+31383-092300SAO  +0033ESF  V0201805N00465018294MN0080005N1+01895+01675101115ADDAA101007695AA206008091GD13995+0180099GD24995+0300099GD30995+9999999GD40995+9999999GF108085999999999999999999MA1101121100715MD1310021+9999MW1111MW2445MW3615REMAWY073TE51 MOVD NE PK WND 21/17          ?30         ?     30230 75?ESF?2/1 2/2EQDQ01  00803PRCP99N01 02072JPWTH 1QNNE11 1 00499E11 1 00699E11 1 00099E11 1 00099G11 1 00060K11 1 00062L11 1 00500M11 1 29740N11 1 02072Q11 1 10111S11 1 00066V11 1 01010X11 1 18009
0239723546139691974062919005+36733-097100SAO  +0309PNC  V0201805N008852200059N019200599+03565+01565101005ADDGD12995+9999999GD22995+9999999GD30995+9999999GD40995+9999999GF103035999999999999999999MA1999999097565QNNE11 1 00299E11 1 00299E11 1 00099E11 1 00099G11U1 99999K11 1 00060L11 1 01200M11 1 28810Q11 1 10100S11 1 00096V11 1 00404X11 1 18017
0087064900999991974102219004+50483+005917FM-12+0485EBSP V0202901N00621000151CN0002001N9+00501+00501099751ADDAY161999GA1081+000159079GF108991081071000251999999MD1710101+9999MW1611REMSYN00588700
0169889670999991974102812004-77967-038800FM-12+003299999V0201801N00721220001CN0040001N9-02301-02501098551ADDAY131999GF102991001001999999001061KA1999M-02301KA2999N-02701MD1710091+9999MW1361REMSYN07790400 92204 92302 17377 SURFACE     72.88968    81830 70362 89650 863// 51218
