0070387670999991975041218004+38217+055650FM-12+010799999V0209991C00001220001CN0500001N9+01801-00201101201ADDAY101999GF102991021001999999031001MD1210031+9999MW1031REMSYN0045500
0043961470999991975071703004+03950+108383FM-12+000299999V0200301N00311045001CN0180001N9+02901+02401101061ADDAY121999GF107991021011008001031011MW1051
0071354970999991975021612004+48950+072850FM-12+065699999V0201401N00101220001CN0500001N9-00801-01201104131ADDAY101999GF101991001001999999001021MD1410001+9999MW1021REMSYN005710/.
0105729260999991975060617004+64300-096000SAO  +0011YBK  V0200601N003610021019N0192001N1+00301+00101101501ADDGD14991+0021099GF108991999999999999999999MA1101491101491MW1001REMAWY012ST10 CIG RGDEQDQ01+999990APOSP 
0113741040999991975110810004+52183-122067SAO  +0940YWL  V0201601N004112200019N0240001N1-00101-00901100761ADDGD12991+0330099GD22991+0630099GF102991999999999999999999MA1100471089731MW1001REMAWY005AC1CIEQDQ01+999990APOSP 
0050745700138401975101317004+39817-084050SAO  +0254FFO  V0202301N005612200019N0144001N1+02441+01501999999ADDGF100991999999999999999999MA1101961999999MW1001
0069063440999991975062216554+51950+004433FM-15-0004EHRD V0200201N00611006001CN0070001N1+02001+01801999999ADDGA1031+003609079GA2041+006009059REMMET006NOSIG%EQDQ01+000000PRSWM2
0106722526129471975040815004+28450-099217SAO  +0144COT  V0200101N004610090019N0096001N1+01781+01111100911ADDGD13991+0090099GD24991+0120099GF108991999999999999999999MA1100951999999MD1210301+9999MW1051REMAWY003230
0100727090999991975051903004+47383-061867SAO  +0057YGR  V0202501N015412200019N0160001N1+00901-00101100751ADDGD12991+0600099GF102991999999999999999999MA1100751100031MW1001REMAWY007CI3 827EQDQ01+999990APOSP 
0114257000999991975030309004+62983+150333FM-12+033599999V0209991C00001075001CN0500001N9-03601-03901999999ADDAA199999999AY121999GF107991021001999999041081KA1999M-02401MD1610011+9999MW1761REMSYN00570074EQDQ01  00002PRCP99
0072111500999991975041100204+47800+013000FM-15+0430LOWS V0202801N00361004201CN0040001N1+00101+00001999999ADDGA1021+002409079GA2031+004209079GA3061+007209079MA1101491999999MW1691
0054161700999991975052510504+43800+011200FM-15+0040LIRQ V0209991C00001060001CN0090001N1+02101+00701999999ADDGA1031+007509089GA2031+060009009EQDQ01+000000PRSWM2
0053106260999991975123020524+49850+007600FM-15+0396EDSP V0202501N00611001201CN0046001N1+00001+00001999999ADDGA1081+001209079MA1102301999999EQDQ01+000000PRSWM2
0122999999999991975052806004+29300+122900FM-13+0000WUBV V0201501N00621001201CN0100001N9+02501+02101100851ADDAY121999GF108991081091001501999999MD1510061+9999MW1021SA1+2399UA1M010059999UG1110051509REMSYN0230//21 12390 30101 15101
0109031350999991975100714004+55500-004583FM-12+0020EGPK V0203001N00261075001CN0400001N9+01201+00701103421ADDAY111999GA1011+009009089GA2051+075009009GF105991011011012501031021MD1410001+9999MW1041REMSYN01181830 85075
0057107610999991975052403004+49033+010967FM-12+042299999V0209991C00001220001CN0070001N9+00201+00001101521ADDAY101999GF100991001001999999001001MD1810041+9999MW1101
0035722907999991975111914004+32817-116967SAO  +0117SEE  V0202701N002012200019N0400001N1+00171-00101999999ADDGF100991999999999999999999MW1001
004394999900244197503310500N-33820+150920AUST +0061     V0202255N003159999999N999999999+02455+00905999999ADDAY124999GF103995999999999999999999MW1025
0119844250999991975080812004-05900-076117SY-MT+0179SPMS V0209991C00001220001CN0010001N1+02101+02001101651ADDAY141999GF100991001001999999001001KA1999N+02001MA1101591099461MW1101MW2111REMSYN01169946 70020MET016CIELO DESPEJADO%
0104999999999991975020812004+22700-167200FM-13+0000BLHC V0200701N00621220001CN0200001N9+02271+01901101801ADDAY111999GF101991011011004501999999MD1810101+9999MW1011SA1+2309UA1M030159999REMSYN0170//19 12307 30303
0194859720999991975080412004-56533-068717FM-12+004299999V0202701N01291006001CN0040001N9+00201+00101100981ADDAY121999GA1081+006009059GF108991081051008001999999KA1999N+00001MA1999999100461MD1310551+9999MW1021UA1M070309999UG1070302709REMSYN059  046 70500 88  0 30706 27706 93    MAREJADA    GRUESAGUSTY
0105479300999991975012915004+26200+127650FM-15+0004ROAH V0201201N00301999991CY0099001N1+01501+00701999999ADDMA1102401999999REMMET059CAVOK 3023 WIND ESTIMATED FCST 1521      ?     11006 CAVOK%EQDQ01+000000PRSWM2
0038105020999991975090216564+50833+006667FM-16+0117EDNN V0200101N00361220001CN0045001N1+99999+99999999999ADDGA1041+060009009EQDQ01+000000PRSWM2
0080726988242191975051201004+45617-121150SAO  +0064DLS  V0203101N007712200019N0480001N1+01721+00781102501ADDGD12991+0180099GD22991+0750093GF102991999999999999999999MA1102471999999MW1001
0106028360999991975060909004+67367+026650FM-12+017899999V0202301N00621012001CN0400001N9+01401+00501100821ADDAJ100009199999999AY121999GF107991071011012501071021IA1009IA2999+00909MD1710191+9999MW1021REMSYN00520900
0101476360999991975121815004+35167+136967FM-12+005199999V0203501N00101220001CN0150001N9+00301+00001999999ADDAA199000091AY111999GF101991011021008001031001MD1810071+9999MW1011REMSYN00540099EQDQ01+101323APOSLP
0068722786231041975110620004+33317-111650SAO  +0422IAW  V0203101N002012200019N0400001N1+02721+00001999999ADDGF100991999999999999999999MA1101461999999MW1001REMAWY009DHK ALQDS
0139033960999991975091518004+53617+000150FM-12+001299999V0203501N00511007501CN0200001N9+01201+00501102241ADDAA199000091AY111999GA1051+007509059GA2071+030009039GF107991051051008001071999KA1999M+01301MD1210081+9999MW1021REMSYN01770013 85  5 87360
0083999999999991975083006004-20300+004700FM-13+0000GNIM V0201401N01031004201CN0200001N9+01631+01201101981ADDAY101999GF108991081051004501999999MW1021SA1+1729REMSYN0230//12 11723 30304?15708
0072062100999991975082112294+52183+004417FM-15+0001EHVB V0200601N00411027001CN0112001N1+01901+01601999999ADDGA1011+004509089GA2031+011409059GA3061+027009039MA1101021999999MW1251
0057231460999991975072903004+68467+073600FM-12+000599999V0203601N00801007501CN0200001N9+01001+00801101501ADDAY121999GF108991081051008001999999MD1310041+9999MW1021
0131944300999991975070901003-26583+118500FM-12+0518APMR V0200201N00261220001CN0400001N9+01301+00601101721ADDAA199000091AY101999GA1005+999999999GA2015+999999045GA3015+999999999GF101991011001999999031011MA1999999095695MW1025REMSYN00567000
0065725635999991975051101004+42050-102800SAO  +1198AIA  V0203501N007712200019N0320001N1+01671+00171999999ADDGD12991+0750099GF102991999999999999999999MA1102171999999MW1001
0057301570999991975101403004+58317+112867FM-12+022499999V0201801N00601220001CN0500001N9+00001-00801102481ADDAY101999GF102991001001999999001021MD1710201+9999MW1021
032172557014943197509042000C+42400-096383SAO  +0334SUX  V0201505N004650015249N0160005N1+01725+01615102095ADDAA101000095GD14995+0015099GD20995+9999999GD30995+9999999GD40995+9999999GF108085999999999999999999MA1102101098105MW1001REMAWY010RE20B32E45EQDQ01+999990APOSP N01 00000JPWTH 1QNNE11 1 00699E11 1 00099E11 1 00099E11 1 00099G11 1 00005K11 1 00061L11 1 01000M11 1 28970N11 1 00000Q11 1 10209S11 1 00063V11 1 01010X11 1 15009
0087728340999991975122711004+49700-086950SAO  +0331YGQ  V0209991C000012200019N0240001N1-03101-03201101891ADDGF100991999999999999999999MA1101491097571MW1001REMAWY009LGT FROINEQDQ01+999990APOSP 
0070164500999991975051111504+37567+014283FM-15+0940LICE V0201401N00511999991CY0099001N1+99999+99999999999REMMET042CAVOK 3AC080 4CS190 MON LIB NC VAL NIL NC%EQDQ01+000000PRSWM2
0084134620999991975050709304+42367+019250FM-15+0033LYTI V0209991C00001009901CN0112001N1+01701+01501999999ADDGA1031+006009079GA2081+009909059MA1101691999999REMMET006NOSIG%EQDQ01+000000PRSWM2
014872507014765197502111300D+41733-071433SAO  +0017PVD  V0200401N003010135019N0160001N1-00661-01211101841ADDAA101000095GD13991+0135099GD24991+0210099GF108991999999999999999999MA1101831101601MW1001REMAWY029?PVD?2/16 2/22 2/23 2/24 2/27EQDQ01+999990APOSP 
0095028450999991975042618004+66567+025833FM-12+0195EFRO V0203201N00101012001CN0500001N9+00501-00401100851ADDAA199000091AY121999GF107991071051012501999999KA1999M+00601MD1710051+9999MW1141REMSYN00570006
0095040180162011975012112514+63967-022600SAOSP+0052BIKF V0201201N004610060019N0064001N1+99999+99999999999ADDGD12991+0024099GD23991+0060099GD34991+0210099GF108991999999999999999999MA1099561999999MW1851
0057272810999991975040815004+58300+047117FM-12+015699999V0201801N00401021001CN0240001N9+01801+01001100661ADDAY121999GF106991051001022501031011MD1710111+9999MW1031
0104724236038891975122022004+37900-085967SAO  +0230FTK  V0202801N00301002101MN0080001N1+00221+00061999999ADDGD13991+0021099GD24991+0030099GF108991999999999999999999MA1101801999999MW1611MW2711REMAWY009BKN V OVC
0097039690999991975111701004+53433-006250SY-MT+0068EIDW V0203201N00721220001CN0300001N1+00001+00001101031ADDAY101999GF100991001001999999001001MD1210081+9999MW1011REMMET012CAVOK NOSIG?EQDQ01+000000PRSWM2
0058060300999991975120807504+57100+009867FM-15+0003EKYT V0203201N00921999991CY0099001N1+99999+99999999999ADDMA1100811999999REMMET012CAVOK NOSIG?EQDQ01+000000PRSWM2
0087919520999991975041600004-21817-138817FM-12+000299999V0200801N00881009001CN0100001N9+02401+02201101431ADDAA106012091AY191999GF108991051081004501071999MW1601REMSYN00571222EQDQ01  01203PRCP99
0068014880999991975050720204+59900+010617FM-15+0017ENFB V0200201N00251220001CN0112001N1+01401+00501999999ADDGA1011+013509089MA1102511999999REMMET006NOSIG%EQDQ01+000000PRSWM2
011072693024221197504241900D+44117-123217SAO  +0111EUG  V0201801N005110114019N0320001N1+00781+00721100331ADDAA101000395GD12991+0042099GD24991+0114099GF108991999999999999999999MA1100341099001MW1601EQDQ01+999990APOSP 
006694999900204197502222200N-30020+148120AUST +0133     V0200905N002659999999N999999999+01865+01805999999ADDGA1085+013505115GF108995084075013505999999MA1999999099005MW1615
0096703210999991975081419004+59050-158517SAO  +0026DLG  V0201301N004110060019N0320001N1+01171+00941999999ADDGD13991+0060099GD24991+0240099GF108991999999999999999999MA1101151999999MW1001REMAWY007CIG RGD
0108999999999991975060912004+37300-026000FM-13+0000DGCQ V0209991V00101220001CN0200001N9+01801+01101102881ADDAY101999GF103991031011004501001001MW1021SA1+1929UA1M000009999UG1990209999REMSYN02305211 11920 30000 99/04
0057129420999991975121621004+46000+018233FM-12+020199999V0200901N00301001201CN0015001N9+00201+00101101361ADDAY121999GF108991061071001501021999MD1710231+9999MW1101
0080727975242551975080804004+48350-122650SAO  +0014NUW  V0202401N002010078019N0112001N1+01281+01061101911ADDGD12991+0030099GD24991+0078099GF108991999999999999999999MA1101901999999MW1001
0095488100999991975010812004+22150+105850FM-12+012999999V0202701N00051009001CN0100001N9+01801+01601101611ADDAA199999929AY121999GF108991081081004501999999KA1999M+02001MD1210131+9999MW1021REMSYN00579720
0057265310999991975070721004+56217+024750FM-12+006199999V0202901N00101220001CN0300001N9+01801+00901101701ADDAY101999GF101991001001999999001011MD1310081+9999MW1031
0303724270038041975102617003+39350-081433SAO  +0256PKB  V0203405N002150121949N0160005N1+01335+00335102275ADDGD13995+0120099GD24995+0240099GD30995+9999999GD40995+9999999GF108085999999999999999999MA1102271099125MW1001REMAWY019;PKB?9/21 10/1 10/4EQDN01 00000JPWTH 1QNNE11 1 00499E11 1 00699E11 1 00099E11 1 00099G11 1 00040K11 1 00038L11 1 01000M11 1 29270N11 1 00000Q11 1 10227S11 1 00056V11 1 01010X11 1 34004
0057362310999991975050606004+50733+086150FM-12+083299999V0200901N00101220001CN0500001N9+01501-00601999999ADDAY101999GF100991001001999999001001MD1710351+9999MW1021
0082348800999991975123100004+46350+047967FM-12-001599999V0202901N00701220001CN0040001N9+00001-00101102431ADDAA199000091AY111999GF100991001001999999001001MD1210261+9999MW1101REMSYN005700//
0043999999999991975092300004+30500-179500FM-13+0000SFZT V0202601N010319999999N0200001N9+02701+99999101101ADDAY121999GF106991051091999999999999MW1021
0120729380999991975072710004+67833-115117SAO  +0007YCO  V0201401N002012200019N0240001N1+00101-00101100941ADDGD12991+0090099GD22991+0600099GF102991999999999999999999MA1100951100951MW1001REMAWY012SC1CI1/SC TREQDQ01+999990APOSP 
0057231790999991975083003004+68200+090033FM-12+009199999V0201601N00701030001CN0200001N9+00501+00301101151ADDAY121999GF108991031051008001031071MD1710121+9999MW1021
0087073740999991975072815004+46167+003400FM-12+0249LFLV V0200401N00211220001CN0200001N9+02801+01201101671ADDAY101999GA1011+018009089GF101991011021017501001021MD1710061+9999MW1021REMSYN00581856
0100740620999991975062015004+65483-110367SAO  +0451YWO  V0201901N001512200019N0240001N1+01001+00801101101ADDGD12991+0120099GF102991999999999999999999MA1100881095591MW1001REMAWY007SC1 711EQDQ01+999990APOSP 
0057042500999991975092603004+64167-051750FM-12+0025BGGH V0202201N01031004201CN0040001N9+00101+00101099671ADDAY171999GF108991081071004501999999MD1710251+9999MW1681
0049360970999991975033018004+51167+093400FM-12+999999999V0202701N00401220001CN0500001N9-00801-01001999999ADDGF103991001001999999001021MD1810051+9999MW1011
0086999999999991975022803004+36900-001900FM-13+9999NAHM V0200101N01701036001CN0100001N9+01271+00701102391ADDAY121999GF107991011071008001021001GJ100009MD1710191+9999MW1031SA1+1449UA1M050259999
0043832080999991975080919004-12733-060133FM-12+0652SBVH V0202901N00211220001CN0200001N9+03201+01501101071ADDAY121999GF104991041011008001001001MW1021
0067724698240151975072410004+40167-103217SAO  +1431AKO  V0202601N002512200019N0240001N1+01561+01111101911ADDGF100991999999999999999999MA1102471999999MW1001REMAWY008?AKO?7/2
0123039800999991975021200004+55367-007333FM-12+002099999V0200801N00411003001CN0200001N9+00601+00401100441ADDAA199000091AY121999GA1081+003009079GF108991081061004501999999MD1710041+9999MW1021UA1M990039999REMSYN017700// 88710 91827
0043478980999991975110822004+32717+133017FM-12+003099999V0203601N00361220001CN0500001N9+01501+00401102061ADDAY121999GF106991001001999999001011MW1011
0059727075999991975011811004+46233-061300SAO  +0041WVE  V0203101N009719999999N9999999N9-01211-01661999999ADDAA106999929AA299000091MA1103011999999EQDQ01+000002VOVAR 
0087036960999991975040621004+51850+001283FM-12+000699999V0202701N00211007501CN0100001N9+99999+99999101431ADDAY121999GA1061+007509059GF106991061051008001999999MD1210061+9999MW1021REMSYN00586  5
0065722175138601975121813004+32633-083600SAO  +0090WRB  V0203101N004112200019N0208001N1+00061-00431999999ADDGD12991+0750099GF102991999999999999999999MA1102371999999MW1001
0057305210999991975021903004+54800+105167FM-12+041599999V0200901N00301075001CN0040001N9-02701-02901105101ADDAY181999GF108991031091008001001021MD1110021+9999MW1851
0057344150999991975030815004+49183+037300FM-12+007999999V0209991C00001036001CN0140001N9+00501+00301101871ADDAY121999GF108991081001999999071999MD1610031+9999MW1021
0086475530999991975011000004+38400+140367FM-15+0104RJSC V0201901N00301003001CN0010001N1-00201-00301999999ADDGA1041+001809079GA2071+003009089GA3081+006009099MA1100101999999MW1851REMMET0052957%
0084061500999991975120812004+55083+011783FM-15+0004EKAV V0203101N01231060001CN0112001N1+00501-00201999999ADDGA1021+030009039GA2051+060009009MA1101191999999REMMET0062 989?EQDQ01+000000PRSWM2
0133729120999991975061016004+56350-094700SAO  +0144YGX  V0200601N005610180019N0240001N1+01501+01101101681ADDGD13991+0180099GD24991+0300099GF108991999999999999999999MA1101631099901MW1601REMAWY025SC7AS3  QURAP UNTIL 0000ZEQDQ01+999990APOSP 
011272775024143197506021000D+47483-111367SAO  +1118GTF  V0201701N001012200019N0240001N1+01221+00391101181ADDAA101000095GD12991+0750099GF102991999999999999999999MA1101391088681MW1001REMAWY008?GTF?6/2EQDQ01+999990APOSP 
0094722860231191975121303004+33883-117267SAO  +0469RIV  V0209991C000010063019N0112001N1+00721+00671100881ADDGD12991+0018099GD24991+0063099GF108991999999999999999999MA1100881095391MD1310031+9999MW1511
030372546514950197508252200C+41100-092450SAO  +0257OTM  V0203205N005250243849N0192005N1+01835+01565101335ADDAA101000095GD13995+0240099GD24995+0360099GD30995+9999999GD40995+9999999GF108085999999999999999999MA1101391098315MW1001REMAWY008?OTM?8/4EQDN01 00000JPWTH 1QNNE11 1 00499E11 1 00699E11 1 00099E11 1 00099G11 1 00080K11 1 00060L11 1 01200M11 1 29030N11 1 00000Q11 1 10133S11 1 00065V11 1 01010X11 1 32010
0057335870999991975042909004+48767+030233FM-12+021699999V0200201N007019999999N0100001N9+01401+00401101331ADDAY121999GF106991061001002501091011MD1210021+9999MW1011
0096728010999991975080302004+47617-052750SAO  +0147YYT  V0200401N004110001519N0002001N1+01301+01301101581ADDGD15991+0001599GF109991999999999999999999MA1101591099911MW1451REMAWY003F10EQDQ01+999990APOSP 
0114741380999991975122821004+51267-102467SAO  +0498YQV  V0202601N00771012001EN0240001N1-00101-00601101631ADDGD13991+0120099GF107991999999999999999999MA1101391095481MD1510001+9999MW1001REMAWY007SC6 500EQDQ01+999990APOSP 
0080722908999991975091522004+32867-117150SAO  +0147NKX  V0203101N003612200019N0080001N1+02441+01441101411ADDGD12991+0120099GD22991+0300099GF102991999999999999999999MA1101521999999MW1051
0043421890999991975082000004+28367+079400FM-12+0172VIBY V0200901N00211007501CN0040001N9+02401+02201100181ADDAY151999GF108991051031008001021999MW1021
0101544360999991975021812004+40400+118883FM-12+022899999V0209991C00001220001CN0250001N9-00701-01301102851ADDAA106999929AY171999GF100991001001999999001001MD1210171+9999MW1021REMSYN005/97//EQDQ01  99993PRCP99
0084701740265331975073002004+66917-151517SAO  +0205BTT  V0201601N002512200019N0720001N1+01941+00561100951ADDGD12991+0900099GF102991999999999999999999MA1100851098531MW1001EQDQ01+999990APOSP 
0057167100999991975051415004+37517+022400FM-12+066199999V0202501N00621007501CN0140001N9+01401+00801100751ADDAY121999GF107991051021008001021001MD1310051+9999MW1031
0084600050999991975122714004+28617-017750FM-15+0029GCLA V0201801N01231060001CN0112001N1+02001+01201999999ADDGA1031+007209089GA2051+060009029MA1101801999999REMMET006NOSIG?EQDQ01+000000PRSWM2
0174467300999991975061306004+23267+119667SY-MT+0045RCNO V0203401N002510069019N0112001N1+02601+02401100441ADDAA199000091AY121999GA1021+004509079GA2061+006909059GA3081+021009049GF108991081051012501999999MD1710041+9999MW1021REMSYN0174009/ 88640 00000MET007CIG023%EQDQ01+000000PRSWM2
0146703400255061975120422004+59750-154917SAO  +0046ILI  V02099999999992200019N0480001N1-02161-03211100951ADDGD12991+0180099GD22991+0270099GD33991+0600093GF107991999999999999999999MW1001REMAWY038979/SCSL ACSL ALQDS          ?     FWLEQDQ01+029083APOA  
0091471540432131975050301004+35167+129133FM-15+0002RKPP V0209991C00001003601CN0080001N1+01501+01301999999ADDGA1021+003009079GA2041+003609079GA3081+006009059REMMET0121009-880INS%EQDQ01+000000PRSWM2
0093235780999991975060209004+64250+087600FM-12+003599999V0203401N00801003301CN0500001N9+00201-00401101381ADDAY121999GA1081+003309059GF108991081051004501999999MD1210121+9999MW1021REMSYN01188  1 91114
0171743970999991975061718004+44983-064917SY-SA+0028YZX  V0202501N008710045019N0160001N1+02101+01701101951ADDAY121999GD14991+0045099GF108991081051004501999999KA1999M+02301KA2999N+01001MA1101931101641MD1610131+9999MW1051REMSYN011  164 42310AWY013SC10 HALF   3EQDQ01+000003PRSWM2
042772223013894197505260300C+30683-088250SAO  +0064MOB  V0201905N002652200059N0160005N1+02505+01945101665ADDAA101000095GA1999+039624034GA2999+091444024GA3999+999999999GA4999+999999999GD12015+0390099GD22025+0900099GD30005+9999999GD40005+9999999GF102025999999999999999999MA1101691100885MW1001REMAWY008210 1038EQDQ01+999990APOSP N01 00000JPWTH 1QNNE11 1 00201E11 1 00202E11 1 00000E11 1 00000G11U1 99999H11 1 23130H11 1 37300H11 1 00999H11 1 00999K11 1 00067L11 1 01000M11 1 29790N11 1 00000Q11 1 10166S11 1 00077V11 1 00303X11 1 19005
050372334013893197503230000C+35050-090000SY-SA+0079MEM  V0201705N003152200059N0160005N1+02115+01005100645ADDAA101000095AY101999GA1999+091444004GA2999+999999999GA3999+999999999GA4999+999999999GD10005+9999999GD20005+9999999GD30005+9999999GF100005001001999999001999KA1999M+02281KA2999N+01561MA1100681099635MD1510081+9999MW1021REMSYN01769963 20017 47360AWY012CI S?MEM?3/8EQDQ01+000022SCOHCGQ02+000003PRSWM2N01 00000JPWTH 1QNNE11 1 00000E11 1 00000E11 1 00000E11 1 00000G11U1 99999H11 1 32300H11 1 00999H11 1 00999H11 1 00999K11 1 00050L11 1 01000M11 1 29420N11 1 00000Q11 1 10064S11 1 00070V11 1 00000X11 1 17006
0056029720999991975081708204+60517+022267FM-15+0049EFTU V0200801N00201024001CN0112001N1+01001+00901999999ADDGA1031+004509079GA2081+024009049MA1099901999999MW1611
0105080110999991975011015004+43550-006033SY-MT+0126LEAS V0209991C00001220001CN0099001N1+01301+00401101791ADDAY101999GF100991001001999999001001MA1101801999999MD1610111+9999MW1001REMMET005CAVOKEQDQ01+000000PRSWM2
0043825910999991975082102004-05200-037367FM-12+0030SBMS V0200401N00211220001CN0200001N9+02501+99999101441ADDAY101999GF100991001001999999001001MW1001
0117467520999991975122602004+22033+120717FM-15+0013RCKW V0200501N008210210019N0112001N1+02001+01501999999ADDGA1031+005409079GA2041+015009059GA3081+021009049MA1101901999999OC101331REMMET0153009INSCIG 070?EQDQ01+000000PRSWM2
0075164290999991975051417504+37917+012500FM-15+0007LICT V0203001N00661220001CN0070001N1+01801+01701999999ADDGA1041+003009059MA1101021999999REMMET013VIS MWR 7 KM%EQDQ01+000000PRSWM2
0058404770999991975073009004+21500+039200FM-15+0017OEJD V0202901N00411999991CY0099001N1+03701+02301999999ADDMA1100311999999REMMET012CAVOK NOSIG%EQDQ01+000000PRSWM2
0082984300999991975112415004+14633+121017FM-12+007099999V0209991C00001220001CN0200001N9+02201+01801101541ADDAA199000091AY101999GF104991031021008001001011MD1110031+9999MW1021REMSYN00570099
0041471410432191975072218154+35900+126617FM-16+0015RKJK V0201901N003612200019N0112001N1+99999+99999999999ADDGA1021+006009059GA2011+036009039MW1001
0062944280999991975031522004-28067+117850FM-12+042699999V0209991C00001220001CN0500001N9+01701+01101100681ADDAY101999GF101991001001999999001021MW1021EQDQ01+000012SCOTLC
0076339020999991975092509004+46667+032617FM-12+004899999V0209991C000019999999N0200001N9+02301+00601102111ADDAY121999GF107991999001000251011999MD1110051+9999MW1021EQDQ01+000002SCOTLC
0071999999999991975062606004-40600+173400FM-13+0000ZMFB V0201301N00671220001CN0500001N9+01101+00801100951ADDAY101999GF102991021041012501001001MD1210231+9999MW1021REMSYN00505408
0095467590999991975051400004+22000+120750FM-12+002499999V0203201N00211220001CN0300001N9+02701+02501101011ADDAA199000091AY101999GF106991041041008001001041KA1999N+02601MD1210181+9999MW1031REMSYN00570026
0065722175138601975092007004+32633-083600SAO  +0090WRB  V0209991C000012200019N0128001N1+02111+02061999999ADDGD12991+0360099GF102991999999999999999999MA1101631999999MW1001
0156832890999991975103118003-13267-043383FM-12+044099999V0201801N00151220001CN0200001N9+03001+02201100941ADDAA101000091AY141999GA1041+006001231GA2011+030001031GA3031+060001211GF106991031011008001999011MA1100941095781MD1710191+9999MW1141MW2151EQDQ01    003SCOMCG
0043672430999991975081403004-15617+030433FM-12+033999999V0209991C000019999999N0150001N9+01901+99999102061ADDAY121999GF107991999999999999999999MW1021
0072877150999991975092017004-38950-068133FM-12+0270SAZN V0202201N01031220001CN0300001N9+01801-00101101471ADDAY111999GF105991011001999999041061MD1810231+9999MW1021REMSYN0061015.5
0136121950999991975043006004+54133+022950FM-12+018399999V0201001N00201220001CN0200001N9+00901+00301102241ADDAA199000091AJ100009199999999AY101999GF100991001001999999001001IA1009IA2999-00209KA1999N+00101MD1210081+9999MW1021REMSYN01125200 70001
0057514630999991975032315004+43900+087467FM-12+065499999V0201101N00401090001CN0400001N9+00701-00201102301ADDAY111999GF106991001001999999001021MW1031REMSYN00500002
0097042020999991975122100004+76533-068750FM-15+0077BGTL V0200801N00311220001CN0300001N1-02801-03601097851ADDAY101999GF100991001001999999001001MA1098071999999MD1510041+9999MW1021REMSYN00569705MET005CAVOK
007872363023047197511282200D+35233-101700SAO  +1099AMA  V0202001N010210450019N0320001N1+01671-00491100201ADDAA101000095GD14991+0450099GF108991999999999999999999REMAWY014PK WND 2032/04
0093561960999991975052412004+31467+104667FM-12+047299999V0200701N00701015001CN0250001N9+02001+01301100901ADDAA106999929AY161999GF108991081051017501999999MW1021REMSYN011/97// 00453EQDQ01  99993PRCP99
0120488896999991975032812004+11633+108950FM-15+0031VVPA V0201301N001510750019N0112001N1+02601+02301101101ADDGA1011+007509059GA2021+015009059GA3071+075009009MA1101121999999REMMET026CIG250     ?     QFF 1011%EQDQ01+000000PRSWM2
0094740435999991975032600004+66267-128633SAO  +0053YGH  V0202301N003612200019N0240001N1-01711-02161102841ADDGD12991+0750099GF102991999999999999999999MA1102781999999MD1210131+9999MW1001REMAWY006CI 213
0081162160999991975040906504+42433+012067FM-15+0295LIRV V0201801N00301021001CN0112001N1+00901+00601999999ADDGA1031+004809089GA2041+021009039REMMET018MON E SE CLD CIME%EQDQ01+000000PRSWM2
0058171240999991975091517004+39783+030567FM-15+0783LTBI V0203001N00511999991CY0099001N1+01901+01001999999ADDMA1101801999999REMMET012CAVOK NOSIG%EQDQ01+000000PRSWM2
0080725120147611975010417004+40883-078083SAO  +0589PSB  V0202801N00821003601EN0112001N1-00051-00381101601ADDGD13991+0036099GD24991+0075099GF108991999999999999999999MA1101421999999MW1851
0132913480405041975063002304+06967+158217SAOSP+0046PTPN V0202101N003010045019N0048001N1+99999+99999999999ADDGD13991+0045099GD24991+0810099GF108991999999999999999999MA1101121100601MW1801REMAWY024CB ALQDS MOVG W VSBY SE1EQDQ01+999990APOSP 
0078510870999991975041712004+46983+089500FM-12+080499999V0209991C00001090001CN0200001N9+00701-00901102671ADDAY121999GF107991011011012501001021MA1999999093021MW1021REMSYN01169302 00201
0124723865231121975032421004+36233-115033SAO  +0570LSV  V0202701N001010750019N0560001N1+01941-00551101561ADDGD14991+0750099GF108991999999999999999999MA1101631999999MD1710251+9999MW1001REMAWY017H SE-SW/ 725 1001EQDQ01 220003SCOCIG
0174066700999991975092121004+47483+008533FM-12+0432LSZH V0202901N00311220001CN0060001N9+01501+01401102901ADDAY121999GA1011+009009099GA2021+010509059GA3011+039009039GA4021+075009009GF103991021031008001081021MA1999999097741MD1110131+9999MW1131REMSYN02969774 81930 82  5 81363 82075
0111111570999991975041918004+47533+014133FM-12+0638LOXA V0200301N00411220001CN0400001N9+01801-00401101591ADDAA199000091AY101999GA1021+078009009GF102991001001999999001011KA1999M+01901MD1710121+9999MW1031REMSYN00582076
0095380810999991975011318004+44800+069117FM-12+020099999V0201401N00101220001CN0350001N9-00401-00601102131ADDAA199000091AY111999GF100991001001999999001001KA1999M+00001MD1710121+9999MW1021REMSYN00570000
0088804470999991975033123004+07850-072450FM-15+0404MVSA V0203201N00251006001CN0112001N1+02901+02301999999ADDGA1021+005109079GA2031+006009059GA3031+024009049GA4061+090009029MA1101391999999MW1061
0087034820999991975020817004+52650+000550FM-12+0024EGYM V0200801N00411001801CN0023001N9+00301+00201102381ADDAY121999GA1081+001809079GF108991081061002501999999MD1610081+9999MW1101REMSYN00588706
009372551014939197504130400D+40850-096750SAO  +0362LNK  V0201401N003610210019N0320001N1+01001+00111101861ADDAA101000095GD14991+0210099GF108991999999999999999999MA1101831999999MW1001REMAWY008?LNK?4/2
0041161480999991975112914004+44217+012300FM-15+0005LIPC V0203101N00151999991CY0099001N1+01101+99999999999REMMET013CAVOK 050711?EQDQ01+000000PRSWM2
0223729530999991975010312004+60117-128817SY-SA+0689YQH  V0202601N01231012001MN0160001N1-00551-01211099801ADDAA106011091AJ100109199999999AY111999GD14991+0120099GF108991081051012501999999KA1999M-00171KA2999N-00561MA1099391091561MD1010431+9999MW1711OC101591REMSYN02369156 70018 90410 42922AWY017SC10 04344 ?4?5??EQDQ01  01103PRCP99
0068128390999991975090115004+47433+019233FM-15+0135LHBP V0209991C00001220001CN0112001N1+02301+02001999999ADDGA1011+009009089MA1101691999999REMMET006NOSIG%EQDQ01+000000PRSWM2
0065722446939871975102714004+31233-094750SAO  +0088LFK  V0200901N003010009019N0032001N1+01561+01501101571ADDGD14991+0009099GF108991999999999999999999MA1101591999999MW1451
0069160360999991975100116004+46033+012600FM-15+0128LIPA V0200701N00201220001CN0112001N1+02201+01701999999ADDGA1011+012009059GA2041+027009039MA1101801999999EQDQ01+000000PRSWM2
0095725116999991975110721004+40133-076300SAO  +0123LNS  V0201601N006610360019N0128001N1+02111+01391999999ADDGD13991+0360099GD24991+0750099GF108991999999999999999999MA1101731999999MW1001REMAWY006BINOVC
0057353150999991975111121004+49517+053517FM-12+008099999V0202901N00101007501CN0200001N9+00001-03102102441ADDAY121999GF108991081051008001999999MD1210171+9999MW1021
0414911780225141975101221003+21317-158067SAO  +0015HNA  V0200505N005250243849N0240005N1+02835+01835101835ADDGA1999+008534084GA2999+024384034GA3999+999999999GA4999+999999999GD12035+0084099GD23025+0240099GD30005+9999999GD40005+9999999GF106065999999999999999999MA1101831101665MD1110051+9999MW1001REMAWY008105 1140EQDN01 00000JPWTH 1QNNE11 1 00204E11 1 00403E11 1 00000E11 1 00000G11 1 00080H11 1 11028H11 1 23080H11 1 00999H11 1 00999K11 1 00065L11 1 01500M11 1 30020N11 1 00000Q11 1 10183S11 1 00083V11 1 00707X11 1 05010
0109111570999991975082821004+47533+014133FM-12+0638LOXA V0200301N00571014401CN0200001N9+01601+01001101811ADDAY121999GA1051+014409059GA2071+030009039GF107991051051012501071999MD1110031+9999MW1021REMSYN01185648 87360
0114913760407101975082305004+07083+171383SAO  +0003PKMJ V0201101N002010390019N0240001N1+99999+99999101161ADDGD12991+0048099GD23991+0390099GD34991+0900099GF108991999999999999999999MA1101151101131MW1001EQDQ01+999990APOSP 
0076020920999991975022709004+56683+012833FM-12+0030ESDE V0202501N00211220001CN0350001N9+00101-00201103191ADDAY101999GF100991001001999999001001MD1610081+9999MW1021REMSYN0101..   1031
0076616980999991975013006004+12883-014967FM-12+0010GOGK V0209991C00001220001CN0080001N9+01601+01601101301ADDAY101999GF100991001001999999001001MW1021REMSYN0057001&EQDQ01+000082SCOMCG
0059032910999991975052623004+54117-000083AERO +004699999V0203601N01231002401CN0260001N9+99999+99999999999ADDAY121999GA1081+002409079GF108991999999999999999999MW1021
0092610800999991975040206004+13467+007083FM-12+0368DRRM V0209991C00001090001CN0080001N9+02001-00301100801ADDAY121999GA1071+090009029GF107991001001999999001061KA1999N+02001MW1051REMSYN01170020 87280
0057295410999991975083106004+56067+085617FM-12+025099999V0202001N00601007501CN0200001N9+01201+01001100831ADDAY181999GF107991061031008001001021MD1210311+9999MW1021
0087262330999991975112409004+58367+025583FM-12+008699999V0201801N00101002101CN0100001N9-00701-00801103101ADDAY121999GA1081+002109079GF108991081061002501999999MD1310031+9999MW1021REMSYN00588707
0122999999999991975090703004+15600+131200FM-13+0000JBJH V0202601N00511105001CN0200001N9+02801+02401101001ADDAY111999GF106991021031004501061031MD1410001+9999MW1631SA1+2859UA1M010059999UG1080250409REMSYN0230//24 12850 30101 04805
031872535014848197508071000C+41700-086317SAO  +0236SBN  V0200605N002152200059N0160005N1+01065+01065102235ADDAA101000095GD10995+9999999GD20995+9999999GD30995+9999999GF100005999999999999999999MA1102271099425MW1001REMAWY022?SBN?6/23 7/30 8/2 8/3EQDQ01+999990APOSP N01 00000JPWTH 1QNNE11 1 00099E11 1 00099E11 1 00099E11 1 00099G11U1 99999K11 1 00051L11 1 01000M11 1 29360N11 1 00000Q11 1 10223S11 1 00051V11 1 00000X11 1 06004
0098999999999991975052618004+39500+019300FM-13+0000UKSV V0202601N00401220001CN0200001N9+02081+99999101341ADDAY101999GF100991001001999999001001MD1010011+9999MW1021SA1+2109UA1M990059999REMSYN01112108 3//01
008294672399999197506271430N-34950+138530AUST +0004APAD V0203385N005159999999N999999999+01205+01105999999ADDGA1025+004505115GA2065+006005085GF107995024075004505999999MA1999999101045MW1255
0057606110999991975020812004+28050+009633FM-12+0564DAUZ V0201801N00311220001CN0150001N9+01901+00901101951ADDAY101999GF100991001001999999001001MD1810151+9999MW1021
0057471520999991975091003004+35550+129317FM-12+003299999V0201401N00151220001CN0400001N9+02801+01901100961ADDAY101999GF102991021051012501001001MD1710081+9999MW1031
0063474250999991975121910294+42800+141650FM-16+0025RJCC V0203301N00301220001CN0010001N1+99999+99999999999ADDED199U19209GA1021+012009059REMMET005MIST?EQDQ01+000000PRSWM2
0057443540999991975052915004+44900+110117FM-12+093699999V0209991C00001220001CN0500001N9+02101+01001100221ADDAY111999GF103991001001999999001021MD1410001+9999MW1021
0080725197947941975020607004+43150-075383SAO  +0226UCA  V0201201N005610006019N0016001N1-00271-00491100291ADDGD15991+0006099GF109991999999999999999999MA1100201999999MW1711REMAWY006R33VV1
0071999999999991975092206004+30200+156000FM-13+0000JQHF V0209999999999220001CN0200001N9+02901+02201101801ADDAY101999GF104991021011008001041011MD1410001+9999MW1011REMSYN0050//22
0057241430999991975012206004+68733+124000FM-12+004799999V0202301N00101075001CN0230001N9-02601-03001101071ADDAY171999GF108991001001999999001071MD1210011+9999MW1711
028072340113963197503052200E+34733-092233SAO  +008499999V0202105N005252200059N019200599+01565+00395101605ADDAA101000095GD11995+9999993GD20995+9999999GD30995+9999999GD40995+9999999GF102015999999999999999999MA1999999100645EQDN01 00000JPWTH 1QNNE11 1 00199E11 1 00099E11 1 00099E11 1 00099G11U1 99999K11 1 00039L11 1 01200M11 1 29720N11 1 00000Q11 1 10160S11 1 00060V11 1 00301X11 1 21010
0092560930999991975121809004+34617+104850FM-12+167699999V0209991C00001090001CN0150001N9-00201-01701999999ADDAY111999GF107991001001999999001021MA1999999077611MD1999999+0041MW1031REMSYN01167761 00400
016772267023042197505281400D+33650-101817SAO  +0992LBB  V0201601N004610240019N0240001N1+01831+01561100591ADDAA101000095GD12991+0015099GD22991+0045099GD33991+0240099GD44991+0750099GF108991999999999999999999MA1101021999999MW1001REMAWY037TCU SW     ?     VIRGA E-S-SW?LBB?5/8
0087297240999991975103009004+54300+080500FM-12+015399999V0202001N00701004201CN0200001N9+00701+00601099081ADDAY181999GA1041+004809079GF108991081031004501999999MD1710141+9999MW1801REMSYN00584716
0057579650999991975090109004+25533+111583FM-12+015299999V0201801N00501220001CN0350001N9+03201+02101101021ADDAY111999GF102991021021008001001021MD1710141+9999MW1011
0176765411999991975091123004+22050-098800SAO  +0050TMN  V0203301N002510075019N0352001N1+02801+99999999999ADDAA106025091GD13991+0075099GD24991+0270099GF108991999999999999999999MA1106301999999MD1710241+9999MW1001REMAWY011BMSO /27099EQDQ01+000022APCTENQ02+000702APC3  Q03  02503PRCP99
0051112400999991975040504204+47000+015450FM-15+0340LOWG V0200401N00251999991CY0099001N1+00501+00301999999ADDMA1100911999999REMMET005CAVOKEQDQ01+000000PRSWM2
0172728160999991975020200004+53317-060417SY-SA+0046YYR  V0202701N005612200019N0320001N1-02601-03601101341ADDAY111999GD12991+0690093GF102991001001999999001011KA1999M-02221KA2999N-03281MA1101291100751MD1110231+9999MW1021OC100871REMSYN01163075 49273AWY006CI 123EQDQ01+000003PRSWM2
0103071030999991975081200004+48033-004733FM-12+007299999V0201801N00101036001CN0300001N9+01601+01401102311ADDAA199000091AJ100009199999999GF108991081001999999071999IA1009MD1310021+9999MW1001REMSYN01170000 91828
0132743980999991975112821004+45367-063267SAO  +0039WTQ  V0202701N006610042019N0240001N1+00301+00001101011ADDGD13991+0042099GD24991+0051099GF108991999999999999999999MA1100981100501MD1210241+9999MW1801REMAWY010SC6SC4 224EQDQ01+999990APOSP 
0057291030999991975051321004+59067+076733FM-12+009099999V0209991C00001220001CN0500001N9-00601-00901102001ADDAY101999GF100991001001999999001001MD1710011+9999MW1021
0047728916999991975031317004+51150-121500SAO  +1056WCL  V0201701N002019999999N9999999N9-00381-00881999999ADDMA1101151999999REMAWY001MEQDQ01+000002VOVAR 
0080724275148941975091512004+40183-080650SAO  +0364HLG  V0201501N002010420019N0112001N1+00891+00391999999ADDGD13991+0420099GD23991+0750099GF107991999999999999999999MA1102911999999MW1001
0095331770999991975060506004+50833+024317FM-12+019399999V0203201N00601021001CN0200001N9+01001+00801101441ADDAA199005091AY161999GF108991081001022501011999KA1999N+00901MD1210051+9999MW1611REMSYN00570509
0297723100138831975011914003+33983-081000SAO  +0069CAE  V0200505N002150097549N0040005N1+00785+00785101785ADDGD13995+0096099GD20995+9999999GD30995+9999999GD40995+9999999GF106065999999999999999999MA1101761100985MW1111MW2445EQDQ01+999990APOSP N01 07200JPWTH 1QNNE11 1 00499E11 1 00099E11 1 00099E11 1 00099G11 1 00032K11 1 00046L11 1 00250M11 1 29820N11 1 07200Q11 1 10178S11 1 00046V11 1 00808X11 1 05004
0073010250999991975040415004+69683+018917FM-12+0010ENTC V0201801N00411001201CN0020001N9+00001-00201100871ADDAY171999GA1091+999999999GF109991091999999999999999MD1110061+9999MW1701
0080467640999991975070608004+24733+121750FM-15+0009RCMS V0200901N00201024001CN0080001N1+03101+02601999999ADDGA1041+005409089GA2061+024009039MA1100411999999MW1061REMMET01529  INS CIG080%
0057579470999991975021609004+25067+109250FM-12+018399999V0200201N00401021001CN0180001N9+01201+00601101991ADDAY121999GF108991081051022501999999MD1610181+9999MW1021
055872476023066197506220000C+39117-108533SY-SA+1478GJT  V0203005N007752200059N1280005N1+02115+00225101245ADDAA101000095AA206000491AA399000591AJ100009199999999AY181999GA1999+019814094GA2999+030484034GA3999+076204004GA4999+999999999GD12025+0180099GD22015+0300099GD32025+0750099GD40005+9999999GF104035021091022501061991KA1999M+02331KA2999N+00671MA1101661085105MD1510031+9999MW1151REMSYN02368509 70230 20002 47444AWY023CB TCU ALQDS RWU E-SE WEQDQ01+000003PRSWM2N01 00000JPWTH 1QNNE11 1 00202E11 1 00201E11 1 00202E11 1 00000G11U1 99999H11 1 18065H11 1 23100H11 1 32250H11 1 00999K11 1 00036L11 1 08000M11 1 25130N11 1 00000Q11 1 10124S11 1 00070V11 1 00504X11 1 30015
013170316025624197511281100D+55200-162717SAO  +0030CDB  V0201601N012810036019N0112001N1+00501+00331101651ADDAA101000095GD14991+0036099GF108991999999999999999999MA1101661101291MW1511OC101591REMAWY01910ST PK WND 1632/23EQDQ01+999990APOSP 
0083744915147751975112101004+42167-072717SAO  +0082BAF  V0201701N002012200019N0080001N1+00891+00721999999ADDGD16991+0001599GF110991999999999999999999MA1101491999999MW1051REMAWY009;BAF?11/4
0057161120999991975101904504+44983+006850FM-15+2680LIMX V0209991C00001999991CY0099001N1+99999+99999999999REMMET029CAVOK 1CI150 MON LIB VAL NIL?EQDQ01+000000PRSWM2
029872502014734197502060200C+40700-074167SAO  +0002EWR  V0200205N004150018349N0032005N1+00065+00005100755ADDAA101000095GD13995+0018099GD24995+0036099GD30995+9999999GD40995+9999999GF108085999999999999999999MA1100751100645MW1455MW2501MW3515EQDN01 03370JPWTH 1QNNE11 1 00499E11 1 00699E11 1 00099E11 1 00099G11 1 00006K11 1 00032L11 1 00200M11 1 29720N11 1 03370Q11 1 10075S11 1 00033V11 1 01010X11 1 02008
0073038140999991975081918004+49950-005200FM-12+007399999V0202301N01081006001CN0090001N9+01801+01701101861ADDAY121999GA1071+006009059GF107991071051008001999999MD1410001+9999MW1021
0057103610999991975011220004+52100+011567FM-12+0079ETMG V0201801N00501030001CN0050001N9+00601+00401101701ADDAY111999GF107991071001999999041999MD1110011+9999MW1051
0092612700999991975031306004+13067-009467FM-12+0333GAKT V0203601N00511090001CN0200001N9+02401+00101100961ADDAY111999GA1051+090009009GF105991001001999999001021KA1999N+02301MW1031REMSYN01170023 85080
0097035953999991975092004004+52083-001400FM-15+0029EGVG V0202001N004610240019N0090001N1+01701+01301999999ADDGA1031+003009079GA2051+024009049GA3081+060009029MA1102071999999MW1051REMMET016CIG080%NS/CIGUU%
0132741410999991975022220004+53967-097833SAO  +0224YNE  V0203001N006112200019N0240001N1-00991-01431101641ADDGD12991+0045099GD22991+0099099GD32991+0240099GF102991999999999999999999MA1101421098761MW1001REMAWY009SF1SC1AC1EQDQ01+999990APOSP 
0076723816031591975070609004+34733-118217SAO  +0728WJF  V0202701N005112200019N0320001N1+02331+00281101181ADDGF100991999999999999999999MA1101491999999MD1410001+9999MW1001REMAWY003400
0076315130999991975100121004+50917+128467FM-12+017899999V0209991C00001004201CN0300001N9+00901+00901101291ADDAY161999GF108991999071004501021999MD1710081+9999MW1611EQDQ01+000082SCOTLC
0094787080999991975070805004+15450-087933FM-15+0031MHLM V0201801N00251027001CN0112001N1+02501+02301999999ADDGA1021+006009089GA2011+009009099GA3031+027009039MW1061REMMET028CB RELPGS        ?     AL N%
009172207003822197508120800D+32133-081200SAO  +0015SAV  V0202701N003010009019N0080001N1+02281+02221101811ADDAA101000095GD14991+0009099GF108991999999999999999999MA1101801101631MW1451REMAWY006BINOVC
0082800010999991975030223004+12583-081700FM-15+0004MCSP V0209991C00001220001CN0112001N1+02701+02001999999ADDGA1021+006909089GA2021+060009009MA1101081999999REMMET004END%EQDQ01+000000PRSWM2
0161726227947901975022406004+44000-076033SAO  +0099ART  V0200701N004610036019N0048001N1+00221+00001100961ADDAA106999929AA299999999GD14991+0036099GF108991999999999999999999MA1100911999999MD1810121+9999MW1451MW2611REMAWY026RB35/ 81200 43?ART?1/5 2/6EQDQ01  00002PRCP99
0104728020999991975092023004+46883-055417SAO  +0033WDS  V0202601N006110240019N0160001N1+01301+01201101761ADDGD14991+0240099GF108991999999999999999999MA1101761101351MW1001REMAWY011AC10 -138XXEQDQ01+999990APOSP 
0082335980999991975111412004+48783+031650FM-12+014699999V0200901N00401220001CN0200001N9+00201-00801103691ADDAA199000091AY101999GF100991001001999999001001MD1810221+9999MW1021REMSYN005700//
0083846280999991975101220004-12017-077117FM-15+0013SPIM V0201801N00461999991CY0099001N1+01901+01301101441ADDMA1101391101271REMMET005CAVOKEQDQ01+999990APOSP Q02+999990APOSLPQ03+000000PRSWM2
0147912170999991975031412004+13550+144833FM-12+0111PGAC V0201101N00361220001CN0110001N9+02401+02001101131ADDAA199000091AY111999GA1021+004509089GA2031+090009009GF106991021011004501001011MA1999999099861MD1110171+9999MW1021REMSYN02369986 70020 82815 83080
0101038950999991975032205204+49200-002200FM-15+0084EGJJ V0203001N00821000601CN0040001N1+00701+00701999999ADDGA1021+000309079GA2061+000609079MA1101591999999MW1611REMMET036GRADU WXNIL 9999       ?     7SC018%
0095356710999991975022715004+47800+067717FM-12+034599999V0209991C00001220001CN0200001N9-01401-01801102061ADDAA199000091AY101999GF100991001001999999001001KA1999M-00501MD1210111+9999MW1011REMSYN00570055
0076020920999991975101921004+56683+012833FM-12+0030ESDE V0200401N00311220001CN0500001N9+00301+00201103311ADDAY101999GF100991001001999999001001MD1310091+9999MW1011REMSYN0101..   1032
0087330670999991975032703004+51433+023833FM-12+017199999V0202701N00801005401CN0130001N9+00101-00101099501ADDAY161999GA1081+005409079GF108991081061004501999999MD1310151+9999MW1211REMSYN00588718
0057364570999991975011318004+49283+087917FM-12+228099999V0209999999999220001CN0500001N9-02901-03001999999ADDAY101999GF103991001001999999001011MD1710021+9999MW1021
034272423093821197506011000C+38183-085733SAO  +0144SDF  V0202605N002650085349N0080005N1+01675+01445101105ADDAA101000095GD13995+0084099GD24995+0135099GD30995+9999999GD40995+9999999GF108085999999999999999999MA1101121099365MW1055MW2111MW3445REMAWY019?SDF?5/40 5/42 5/55EQDQ01+999990APOSP N01 07281JPWTH 1QNNE11 1 00499E11 1 00699E11 1 00099E11 1 00099G11 1 00028K11 1 00058L11 1 00500M11 1 29340N11 1 07281Q11 1 10110S11 1 00062V11 1 01010X11 1 26005
012672414013866197506171000D+38367-081600SAO  +0299CRW  V0209991C000012200019N0008001N1+01391+01281101701ADDAA101000095GD16991+0001599GF110991999999999999999999MA1101761098331MW1451REMAWY022R23VV LESS THAN 1/4 F6EQDQ01+999990APOSP 
0057334460999991975062609004+49833+028883FM-12+023899999V0203601N01501090001CN0100001N9+01901+01601101241ADDAY121999GF106991021021008001011041MD1210071+9999MW1021
0043303090999991975082903004+56067+101833FM-12+032699999V0202901N00201030001CN0200001N9+00801+00401101701ADDGF107991021051004501031001MD1210111+9999
0073610240999991975010600004+16967+007983FM-12+0505DRZA V0201401N00511220001CN0200001N9+01401-00401101691ADDAY101999GA1021+090009009GF102991001001999999001021MW1021REMSYN00582080
0070999999999991975101501004+42500-130000FM-13+0000SHIP V0202501N008019999999N9999999N9+01481+99999102441ADDMD1710011+9999SA1+1609UA1M990359999REMSYN023799// 052// 11608 3//07
0057029450999991975100209004+61850+024800FM-12+0143EFHA V0202201N00411030001CN0200001N9+01201+00801101511ADDAY121999GF108991021051004501071999MD1210051+9999MW1011
0501913340405051975082512003+07467+151850SY-SA+0002PTKK V0201105N001550914449N0240005N1+02675+02335100985ADDAA106999929AA299000091AY181999GA1999+005494084GA2999+091444004GA3999+999999999GA4999+999999999GD12035+0054099GD23025+0900099GD30005+9999999GD40005+9999999GF105035031021004501001991MA1100981100955MD1110081+9999MW1021REMSYN017  095 70020 83818AWY01010800 1201EQDQ01+000052SCOTCVQ02+000003PRSWM2N01 00000JPWTH 1QNNE11 1 00204E11 1 00402E11 1 00000E11 1 00000G11 1 00300H11 1 11018H11 1 32300H11 1 00999H11 1 00999K11 1 00074L11 1 01500M11 1 29810N11 1 00000Q11 1 10098S11 1 00080V11 1 00604X11 1 11003
0069103820999991975100416504+52567+013317FM-15+0037EDBT V0202801N00611010501CN0112001N1+01401+00701999999ADDGA1051+010509059GA2071+015009059REMMET006NOSIG?EQDQ01+000000PRSWM2
0165764050999991975102100004+24167-110350FM-12+001899999V0200401N00311220001CN0400001N9+03101+02101101071ADDAA199000091AY111999GA1021+060009009GF102991001001999999001011MA1999999100791MW1031REMSYN071  079 70000 82070 9//// 91912 10000 20000 3//// 43318 53  2 MAR   LLANA
0058080250999991975102707004+43300-002933FM-15+0040LEBB V0201101N00721999991CY0099001N1+01501+00601999999ADDMA1102401999999REMMET012CAVOK NOSIG?EQDQ01+000000PRSWM2
0155236440999991975051506004+63500+071333FM-12+010999999V0201801N00401030001CN0100001N9+00201+00001101311ADDAA199999999AJ100009199999999AY161999GF108991081001999999021999IA1199IA2999-00109KA1999N+00001MD1710101+9999MW1611REMSYN01170050 25160EQDQ01  00002PRCP99
0141162520999991975030306004+41567+014650SY-MT+0793LIBS V0202301N00261220001CN0200001N1+00601-00601999999ADDAA199000091AY101999GF102991001001999999001081KA1999N+00601MD1710111+9999MW1021REMSYN00570006MET021CAVOK 2CS210 MON LIB%EQDQ01+000000PRSWM2
0109064510999991975071921004+50900+004467FM-12+0055EBBR V0202201N00261007501CN0130001N9+01601+01401101861ADDAY111999GA1051+007509059GA2071+027009039GF108991051051008001071999MD1110111+9999MW1601REMSYN01185  5 87359
0083100370999991975012503444+54467+009517FM-15+0022EDCS V0202301N00511220001CN0090001N1+00401+00301999999ADDGA1011+010509059GA2041+999999009MA1100811999999REMMET005BLU&%EQDQ01+000000PRSWM2
007672268023009197502041300D+33300-104533SAO  +1104ROW  V0202801N002010003019N0002001N1+00221+00221101291ADDAA101000095GD15991+0003099GF109991999999999999999999MA1101421999999MW1451
0103742060242071975081608004+47150-122483SAO  +0098TCM  V0202101N001010450019N0160001N1+01441+01221999999ADDGD12991+0045099GD23991+0450099GD34991+0750099GF108991999999999999999999MA1101631999999REMAWY005MAG19
0297726460148971975031621003+44917-089617SAO  +0367AUW  V02099959000052200059N0320005N1+00785-00335102345ADDGD10995+9999999GD20995+9999999GD30995+9999999GF100005999999999999999999MA1102201097875MW1001REMAWY028FEW AC SW/ 717?AUW?2/25 3/28EQDN01 00000JPWTH 1QNNE11 1 00099E11 1 00099E11 1 00099E11 1 00099G11U1 99999K11 1 00026L11 1 02000M11 1 28900N11 1 00000Q11 1 10234S11 1 00046V11 1 00000X11 1 00000
0080844250999991975121211004-05900-076117FM-15+0179SPMS V0209991C00001036001CN0112001N1+02301+02201999999ADDGA1021+006009059GA2061+036009039REMMET01710?2 CAMPO SECO ?EQDQ01+000000PRSWM2
0057028440999991975081715004+66800+024000FM-12+008499999V0200201N00211007501CN0400001N9+01201+00501100241ADDAY181999GF107991051091008001071999MD1410001+9999MW1021
012972405013743197512041700D+38850-077033SAO  +0020DCA  V0201801N004112200019N0320001N1+00671-00491102951ADDAA101000095GF100991999999999999999999MA1102951102701MW1001REMAWY040FEW AC CI;DCA?11/5 12/4 12/7 12/14 12/16EQDQ01+999990APOSP 
0063162190999991975081723504+42783+013633FM-15+1874LIRK V0202401N00201999991CY0099001N1+99999+99999999999REMMET035CAVOK MON NE LIB NC VAL FOSCHIA NC%EQDQ01+000000PRSWM2
0131063750999991975011614004+51650+005700FM-12+0022EHVK V0202001N00771030001CN0150001N9+01201+00701100291ADDAY121999GA1011+015009059GA2031+008409039GA3081+030009049GF108991011051017501071999MD1710121+9999MW1601REMSYN01781650 83328 88460
0056152000999991975081204304+46167+021317FM-15+0108LRAR V0201401N00101999991CY0099001N1+01701+01701999999REMMET012CAVOK NOSIG%EQDQ01+030063APOA  Q02+000000PRSWM2
0057216270999991975101703004+73167+128833FM-12+000599999V0201401N00101220001CN0280001N9-01401-01601100451ADDAY101999GF102991001001999999001091MD1710191+9999MW1021
0057335060999991975061421004+49600+034550FM-12+015999999V0203601N00201220001CN0100001N9+01801+01201100931ADDAY111999GF100991001001999999001001MD1210061+9999MW1011
0154722950231741975121101204+33933-118400SAOSP+0038LAX  V0202801N00301012001EN0128001N1+01221+99999101251ADDGD13991+0120099GD23991+0360099GF107991999999999999999999MA1101251100881MW1001REMAWY030TCU NW-NE 40BKN V SCT BASE W 9EQDQ01+999990APOSP Q02+999990APOSLP
0057072490999991975070703004+47983+001750FM-12+0126LFOJ V0200801N00311220001CN0020001N9+01701+01601101281ADDAY111999GF100991001001999999001001MD1710081+9999MW1101
0114728810999991975040911004+53583-116450SAO  +0921YET  V0200601N001010300019N0160001N1-00301-00401102201ADDGD12991+0075099GD24991+0300099GF108991999999999999999999MA1101801091121MW1701REMAWY006SC5AC5EQDQ01+999990APOSP 
0114544930999991975030906004+40717+124783FM-12+026199999V0201101N00201036001CN0140001N9+00501-00301101631ADDAA106999929AY161999GF108991041071008001021999KA1999N-00201MD1710201+9999MW1601REMSYN005/9752EQDQ01  99993PRCP99
0044912750216031975091902004+16733-169517SAO  +0002PJON V0200901N006712200019N0112001N1+02831+02171101271ADDGF107991999999999999999999MA1101291999999
0057091930999991975123016004+53750+014067FM-12+000199999V0202001N00801007501CN0060001N9+00501+00101101811ADDAY121999GF106991061051008001001001MD1710161+9999MW1051
0111401990999991975042400004+29550+034950FM-12+0012LLET V0203601N00361220001CN0150001N9+02001+00601101111ADDAA199000091AJ100009199999999AY101999GF100991001001999999001001IA1009MD1710021+9999MW1021REMSYN01170000 91208
0103839480999991975070918004-29350-049733FM-12+000699999V0200501N00311220001CN0020001N9+02001+01501101581ADDAA199000091AY101999GF100991001001999999001001MA1999999102241MD1710251+9999MW1051REMSYN011  224 700//
0131034820999991975051309004+52650+000550FM-12+0024EGYM V0202101N00671003301CN0150001N9+01301+01001100531ADDAY161999GA1021+002709079GA2051+003309089GA3071+008409059GF107991071081002501999999MD1310041+9999MW1031REMSYN01782709 85811 87  8
0109723721231841975041016004+34650-112433SAO  +1540PRC  V0201301N002510027019N0112001N1+00331+00171101651ADDGD12991+0015099GD24991+0027099GF108991999999999999999999MA1101631999999MW1001REMAWY020MTN TOPS OBSCD ALQDS
0065785430116401975071018004+18333-064967SAO  +0002MIST V0201201N007712200019N0192001N1+03001+02331999999ADDGD12991+0090099GF102991999999999999999999MA1101931999999MW1001
0074060700999991975100208554+56300+010617FM-15+0025EKAH V0202201N00611220001CN0112001N1+01501+01201999999ADDGA1011+007509089MA1101801999999REMMET0123 006 NOSIG?EQDQ01+000000PRSWM2
0087033540999991975081502004+53000-001250FM-12+0117EGXX V0203601N00051018001CN0035001N9+01601+01501100941ADDAY161999GA1081+018009049GF108991081001017501021999MD1810131+9999MW1631REMSYN00588556
0095135920999991975062506004+41417+022250FM-12+012599999V0209991C00001015001CN0200001N9+01901+01701100951ADDAA199000091AY111999GF106991051081012501031001KA1999N+01601MD1410001+9999MW1031REMSYN00570016
0041071390999991975120208004+48450+000100FM-15+0144LFOF V0202401N00411024001CN0112001N1+99999+99999999999ADDGA1021+003009059GA2081+024009049MW1611
0222479180999991975071300004+24333+124167SY-MT+0006ROIG V0202001N00361220001CN0112001N1+03001+02501101301ADDAA199000091AY101999GA1021+007509089GF102991021031999999001011KA1999N+02801MA1101191999999MD1210141+9999MW1021REMSYN01170028 11000MET0652991 WIND DIRECTION VRB      ?     TCU 15KM E-S AND W TCU 10KM N%EQDQ01+000000PRSWM2
0033160080999991975072614004+46833+010517FM-15+1512LIVE V0203201N00411999991CY0099001N1+99999+99999999999REMMET005CAVOKEQDQ01+000000PRSWM2
0095723408138141975050702004+35967-089867SAO  +0077BYH  V0201801N001010240019N0192001N1+02391+01831999999ADDGD12991+0105099GD23991+0240099GD34991+0750099GF108991999999999999999999MA1100851999999MW1001
0095471620999991975032412004+34833+128433FM-12+003299999V0203401N00411220001CN0350001N9+00701-00901101421ADDAA199000091AY101999GF100991001001999999001001KA1999M+01301MD1210281+9999MW1021REMSYN00570013
0082357000999991975101312004+47117+051900FM-12-001599999V0202701N00801220001CN0200001N9+00701-00301102181ADDAA199000091AY101999GF103991001001999999001021MD1810151+9999MW1021REMSYN005700//
0059728665999991975083004004+51133-106583SAO  +0594WOK  V0202001N004619999999N9999999N9+99999+99999999999ADDAA106999929AA299000091MA1101021999999EQDQ01+000002VOVAR 
0068010100999991975103114504+69300+016117FM-15+0014ENAN V0202101N00301220001CN0112001N1-00801-01001999999ADDGA1011+012009059MA1101291999999REMMET006NOSIG?EQDQ01+000000PRSWM2
0130727090999991975121016004+47383-061867SAO  +0057YGR  V0201601N01441021001EN0160001N1+00201-00201102391ADDGD13991+0210099GD24991+0270099GF108991999999999999999999MA1102371101651MW1001REMAWY006AS8AC2EQDQ01+999990APOSP Q02+999990APOA  
0095239750999991975070600004+60350+088367FM-12+008599999V0202501N00201220001CN0500001N9+01901+01201101611ADDAA199000091AY121999GF105991031001999999041011KA1999N+01801MD1810011+9999MW1011REMSYN00570018
0037084950999991975081205304+36150-005350FM-15+0005LXGB V0202401N00101220001CN0070001N1+99999+99999999999ADDMA1101491999999EQDQ01+000000PRSWM2
006172563624017197508310500D+42833-103083SAO  +1004CDR  V0202301N002512200019N0240001N1+01721+00171100951ADDAA101000095GF100991999999999999999999MA1101251999999MW1001
0057093930999991975081810004+52217+014117FM-12+009899999V0200601N00101075001CN0180001N9+02101+01201101101ADDAY101999GF108991041021008001001071MD1210101+9999MW1031
0229729100999991975082712004+64217-076533SY-SA+0009YTE  V0203601N007710105019N0240001N1+00301+00001099481ADDGD12991+0036099GD23991+0105099GD33991+0750099GF107991061051004501001041KA1999M+01501KA2999N+00301MA1099491099481MD1210331+9999MW1021OC101021REMSYN01769948 20003 41503AWY019938/SC2SC5CI2   233EQDQ01+999990APOA  Q02+000003PRSWM2
0124889710999991975022109004-64883-062883FM-12+000199999V0201801N00151007501CN0250001N9+00101-00201099731ADDAY121999GA1021+003009079GF108991051051008001071999MD1810051+9999MW1021UA1M990039999REMSYN02982710 91827 92214 95740 996.5
0097729460999991975063013004+61750-121233SAO  +0177YFS  V0209991C000012200019N0240001N1+01501+01101100991ADDGD12991+0750099GF102991999999999999999999MA1100981098891MW1001REMAWY004CI KEQDQ01+999990APOSP 
0102728680999991975050511004+52867-102400SAO  +0372YHB  V0200201N001512200019N0240001N1-00101-00101101761ADDGD12991+0750099GF102991999999999999999999MA1101591097191MW1001REMAWY009CI1 FROINEQDQ01+999990APOSP 
0087063100999991975082223004+51450+003600FM-12+0005EHFS V0202301N00511220001CN0300001N9+01601+01201101561ADDAY101999GA1011+006009089GF102991011081008001001021MD1010041+9999MW1021REMSYN00581820
0088239290999991975031512004+60317+064217FM-12+005099999V0203201N00901007501CN0070001N9-00301-01001100221ADDAA199000291AY181999GF105991051051008001001001MD1310231+9999MW1381REMSYN011792// 97?12
0043150040999991975120303004+47967+023917FM-12+027599999V0201801N00101220001CN0150001N9-00401+99999102071ADDAY101999GF100991001001999999001001MW1021
0095103840999991975110412504+52467+013400FM-15+0050EDBB V0202601N00251000901CN0013001N1+00801+00801999999ADDED199U12809GA1041+000609079GA2081+000909079MA1103121999999REMMET006NOSIG?EQDQ01+000000PRSWM2
0057152800999991975021003004+45450+025450FM-12+250499999V0203201N01201220001CN0200001N9-02001-02101999999ADDAY101999GF100991001001999999001001MD1810011+9999MW1361
0122999999999991975062112004+58600-177100FM-13+0000JGYV V0200801N006219999999N0000501N9+00551+99999099801ADDAY141999GF108991081999999999999999MD1710401+9999MW1441SA1+0619UA1M030059999UG1130101509REMSYN0230//06 10  5 30301 15302
0065722115999991975022420004+27400-082550SAO  +0007SRQ  V0203001N007710024019N0032001N1+01501+01281999999ADDGD14991+0024099GF108991999999999999999999MA1101521999999MW1631
0095648700999991975091209004+07350+013567FM-12+1114FKKN V0209991C00001004801CN0300001N9+02301+01901999999ADDAY141999GA1061+004809089GA2041+039009039GF107991061021004501041001MW1031REMSYN01186816 84363
0123106710999991975082206004+50267+010950FM-12+0337EDQC V0202701N00051220001CN0018001N9+01701+01701100931ADDAA199010091AY191999GA1011+001209079GF103991021051001501031011KA1999N+01701MD1510061+9999MW1101REMSYN01771017 81704 99841
0131289780999991975011503004+52533+068750FM-12+036799999V0209991C00001220001CN0040001N9-02701-02901103501ADDAA199000091AY111999GF103991999001001501001021IA1209IA2999-03409KA1999N-02801MD1210231+9999MW1101REMSYN02370078 92243 99656 28477
0339722585939011975042815003+32733-096967SAO  +0150NBE  V02099959000050304849N0080005N1+01785+01725101015ADDGA1999+030484034GD14085+0300099GD20995+9999999GD30995+9999999GD40995+9999999GF108085999999999999999999MA1101051099365MD1110201+9999MW1111MW2445REMAWY008120 107/EQDN01 07200JPWTH 1QNNE11 1 00610E11 1 00099E11 1 00099E11 1 00099G11 1 00100H11 1 23100K11 1 00063L11 1 00500M11 1 29340N11 1 07200Q11 1 10101S11 1 00064V11 1 01010X11 1 00000
0078560670999991975100312004+33450+101450FM-12+335099999V0209991C00001220001CN0200001N9+00101-01401999999ADDAY101999GF101991011011008001001001MA1999999065941MW1011REMSYN01166594 00200
0156722268938431975032500004+31317-085450SAO  +0122DHN  V0202001N002012200019N0112001N1+01891+01561100831ADDAA106016091GD12991+0060099GD22991+0120099GD32991+0750099GF102991999999999999999999MA1100881999999MD1210141+9999MW1001REMAWY00821463 78EQDQ01  01603PRCP99
0189741950999991975092200004+47867-055850SY-SA+0001WLG  V0202001N005110048019N0128001N1+01501+01401101551ADDAY121999GD13991+0048099GD24991+0210099GF108991061051004501021999KA1999M+01801KA2999N+01401MA1101561101551MD1310051+9999MW1021REMSYN017  155 20001 41814AWY010ST8AS2 305EQDQ01+000003PRSWM2
0095727755241121975040214004+47517-111183SAO  +1075KGFA V0202301N005112200019N0720001N1-00661-01161999999ADDGD12991+0300019GD22991+0750019GF102991999999999999999999MA1101191999999MW1001REMAWY006ACSL E
0057255950999991975011221004+64417-172250FM-12+000599999V0200201N00401220001CN0500001N9-02601-03101102451ADDAY111999GF102991021001999999031001MD1310241+9999MW1021
0140726210999991975110416004+44117-077533SAO  +0086YTR  V0202901N005612200019N0240001N1+01501+00301101781ADDGD12991+0750099GF102991999999999999999999MA1101801100811MW1001REMAWY031GWQXPPTXCI1 COTRA QEEOM 041700ZEQDQ01+999990APOSP Q02+999990APOA  
0068428090999991975042519004+22650+088450FM-15+0004VECC V0201401N00251220001CN0060001N1+02501+02401999999ADDGA1011+003009079MA1100311999999REMMET006NOSIG%EQDQ01+000000PRSWM2
0065700867999991975032516004+69717-148683SAO  +0108FKF  V0201501N002512200019N0112001N1-03551+99999999999ADDGD12991+0150099GF102991999999999999999999MA1102471999999MW1001
0068726986999991975072100004+45533-122950SAO  +0062HIO  V0201001N003612200019N0240001N1+99999+99999999999ADDGF100991999999999999999999MA1101691999999MW1001REMAWY009FEW CU CI
0112303640999991975011000004+56500+115667FM-12+047499999V0209991C00001220001CN0500001N9-04701-04901104581ADDAA199000091AY101999GF100991001001999999001001IA1319IA2999-04609MD1110021+9999MW1401REMSYN01770097 29695 70082
0057578530999991975030221004+26733+110617FM-12+034099999V0200201N00101004201CN0045001N9+00801+00801101651ADDAY161999GF108991081071004501999999MD1710051+9999MW1601
030372526014860197504131700C+42083-080183SAO  +0223ERI  V0203305N003652200059N0240005N1+00285-00615102715ADDAA101000095GD10995+9999999GD20995+9999999GD30995+9999999GF100005999999999999999999MA1102611099935MW1001REMAWY023FEW CU E-S AC N?ERI?4/4EQDN01 00000JPWTH 1QNNE11 1 00099E11 1 00099E11 1 00099E11 1 00099G11U1 99999K11 1 00021L11 1 01500M11 1 29510N11 1 00000Q11 1 10271S11 1 00037V11 1 00000X11 1 33007
0057313480999991975083015004+53050+136033FM-12+014199999V0203601N00301075001CN0500001N9+01301+00601999999ADDAY111999GF108991021091008001001071MD1710021+9999MW1031
0090471425999991975041803004+35833+128583FM-15+0070RKTG V0201101N007212200019N0100001N9+01501+00801999999ADDGA1011+007509059GA2061+060009029GF106991999999999999999999MA1102201101321REMMET005CIGNO
0092516440999991975121500004+41717+082950FM-12+109999999V0209991C00001220001CN0300001N9-02001-02201105101ADDAY101999GF100991001001999999001001MA1999999090841MD1999999-0061MW1021REMSYN01169084 05652
0082722137138781975081505004+31150-081383SAO  +0006SSI  V0201701N004112200019N0112001N1+02721+02391102001ADDGD12991+0051099GF102991999999999999999999MA1102001999999MW1001REMAWY008?SSI?6/2
0070023430999991975102715004+55333+013350FM-12+000599999V0202701N00821002101CN0048001N9+00801+00601999999ADDAY121999GF108991081061002501999999MW1101UA1M990039999REMSYN00542  8
0163385990999991975040703004+40217+069733FM-12+041499999V0202301N99999033001CN0003001N9+01301+00601101871ADDAA199000091AJ100009199999999GA1071+033009039GF108991071001999999051021IA1009IA2999+01009KA1999N+01101MD1310161+9999REMSYN01770011 87361 21000EQDQ01+003803WOSPD 
0073616000999991975082612004+16050-016450FM-12+0004GOSS V0203201N00821220001CN0200001N9+03101+02401101281ADDAY111999GA1021+004509059GF104991021051004501031001MW1011REMSYN00582  5
0078560790999991975050903004+33333+102717FM-12+344899999V0201801N00301090001CN0500001N9+00801+00001999999ADDAY111999GF107991031011012501001021MA1999999066741MW1031REMSYN01166674 00451
0149762250999991975031118004+28633-106067FM-12+1428MMCU V0202001N01031220001CN0500001N9+02001-00401099871ADDAA199000091AY101999GF101991011001017501041001MA1999999084801MW1031UG1990609999REMSYN05968480 70000 80000 90000 91951 1//// 20000 3//// 4//12 5////
009172408913781197503111300D+39667-075600SAO  +0024ILG  V0203501N002010087019N0112001N1+00171-00161102271ADDAA101000095GD14991+0087099GF108991999999999999999999MA1102271999999MW1001REMAWY006BINOVC
0105728010999991975042016004+47617-052750SAO  +0147YYT  V0202401N01281001501MN0096001N1+00901+00701099511ADDGD14991+0015099GF108991999999999999999999MA1099491097831MW1451OC102311REMAWY004SF10EQDQ01+999990APOSP 
0267727200999991975022612004+46050-074283SY-SA+0395WOH  V0202501N006610030019N0016001N1-00161-00271099011ADDAA106003091AJ100309199999999AY171999GD16991+0001599GD23991+0030099GD34991+0054099GF108991081071004501999999KA1999M+00001KA2999N-00221MA1098851094281MD1110131+9999MW1381MW2711OC101181REMSYN02969428 71088 90430 20052 43228AWY019S4SF4SC2  /01/  113EQDQ01  00303PRCP99
030272421093814197509272000C+39050-084667SAO  +0270CVG  V0202405N001552200059N0240005N1+01725+00725102195ADDAA101000095GD12995+0150099GD20995+9999999GD30995+9999999GD40995+9999999GF101015999999999999999999MA1102201099025MW1001EQDQ01+999990APOSP N01 00000JPWTH 1QNNE11 1 00299E11 1 00099E11 1 00099E11 1 00099G11U1 99999K11 1 00045L11 1 01500M11 1 29240N11 1 00000Q11 1 10219S11 1 00063V11 1 00101X11 1 24003
0054162340999991975040803504+42000+012733FM-15+0088LIRG V0209991C00001036001CN0112001N1+00601+00301999999ADDGA1011+010509089GA2051+036009049EQDQ01+000000PRSWM2
0095029430999991975091318004+61450+023750FM-12+0082EFTA V0201201N00361004201CN0070001N9+01501+01201100741ADDAA199000391AY161999GF108991061051004501071999KA1999M+01601MD1710061+9999MW1211REMSYN00579316
0057297020999991975012009004+54650+076583FM-12+999999999V0202501N00401007501CN0040001N9-00501-00601101681ADDAY171999GF108991081001008001021999MD1210021+9999MW1711
0095471520999991975010912004+35550+129317FM-12+003299999V0209991C00001220001CN0300001N9-00101-00801101811ADDAA199000091AY101999GF100991001001999999001001KA1999M+00401MD1210061+9999MW1021REMSYN00570004
0065646600999991975112200004+05850+020650FM-12+0472FFFM V0209991C00001090001CN0080001N9+01901+01801100631ADDGA1051+090009029GF105991001001999999001081MW1001REMSYN00585280
0246729240999991975072318004+74717-094983SY-SA+0067YRB  V0201301N006110105019N0192001N1+00501+00301100491ADDAA106000191AA299000291AJ100009199999999AY181999GD12991+0018099GD22991+0036099GD34991+0105099GF108991081051001501999999KA1999M+00501KA2999N+00101MA1100441099681MD1610011+9999MW1021REMSYN01769968 70120 40501AWY013CF1SC2SC7 601EQDQ01+000003PRSWM2
0075037520999991975050616004+51200-001533AERO +0087EGWA V0200501N00971036001CN0400001N9+01401+00501999999ADDAY121999GA1011+010509089GA2051+036009039GF106991999999999999999999MW1031
0084725150047251975010510354+42217-075983SAOSP+0497BGM  V0202701N003610027019N0032001N1+99999+99999999999ADDGD15991+0027099GF109991999999999999999999MA1101961096071MW1851EQDQ01+999990APOSP 
008072261022010197501250100D+29367-100917SAO  +0313DRT  V0201401N001512200019N0320001N1+01391+00941101201ADDAA101000095GF100991999999999999999999MA1101291097581MW1001EQDQ01+999990APOSP 
0091802220999991975022412004+04700-074133FM-12+2547MCBO V0209991C00001045001CN0150001N9+01101+01001999999ADDAY121999GF108991031041008001071999KA1999N+01101MA1999999075151MW1051REMSYN01167515 70011
0100071900999991975032810304+48550+007633FM-15+0153LFST V0202601N00611030001CN0112001N1+00601-00101999999ADDGA1041+009909089GA2031+030009039GA3051+060009009MA1099591999999REMMET006NOSIG%EQDQ01+000000PRSWM2
0087348800999991975012615004+46267+048033FM-12+001899999V0200901N00401006901CN0100001N9-00301-00701102491ADDAY111999GA1081+006909059GF108991081051008001999999MD1710051+9999MW1021REMSYN00588  3
0069845340999991975092222004-09300-076017FM-15+0613SPGM V0203401N00301220001CN0112001N1+02801+02001999999ADDGA1021+009609089GA2031+045009039MA1101191999999EQDQ01+000000PRSWM2
0136765752999991975062100004+21067-101550SAO  +1829LEO  V0203001N005110120019N0240001N1+02601+99999100881ADDGD13991+0120099GD23991+2100099GF107991999999999999999999MD1210031+9999MW1001REMAWY029203 TRUENOS SBR STN 900/20899EQDQ01+029723ATOD  
0071161150999991975032815004+44250+007800FM-12+1441LIMY V0202801N00621220001CN0400001N9+00401-00301999999ADDAY101999GF100991001001999999001001MD1610131+9999MW1011REMSYN00599681
0121702120266331975081421004+61783-166033SAO  +0139PACZ V0209991C000010120019N0112001N1+01221+00891100921ADDGD14991+0120099GF108991999999999999999999MA1100881099191MD1210051+9999MW1801REMAWY033RADOME WND CALM/ 205 15//  BY TNC
0104999999999991975111812004+38200-012000FM-13+0000FNPS V0203501N00821007501CN0200001N9+01681+01001101951ADDAY121999GF106991061041008001001001MD1210091+9999MW1021SA1+1709UA1M050359999REMSYN01705210 11708 30507
0095355290999991975100518004+48217+057117FM-12+015199999V0202001N00201220001CN0500001N9+01001-00101100971ADDAA199000091AY111999GF100991001001999999001001KA1999M+02101MD1210071+9999MW1021REMSYN00570021
0110475730433181975011207004+37950+139117FM-15+0001RJSN V0202901N00771010501CN0112001N1+00201-00501999999ADDGA1011+003009089GA2041+007509089GA3071+010509089MA1100001999999MW1271REMMET0292952       ?     TCU NENW-NE%
0152787060999991975091400004+15717-087483FM-12+0003MHTE V0201501N00101045001CN0200001N9+02501+02401100911ADDAA106003091AY191999GA1011+005409059GA2021+006009099GF108991031091004501071071MA1999999100911MW1951REMSYN023  091 70342 81  8 82920EQDQ01  00303PRCP99
0067173000999991975071700004+36900+030783FM-15+0050LTAI V0203201N00201999991CY0099001N1+99999+99999999999ADDMA1100201999999REMMET005CAVOKEQDQ01+027523ATOT  Q02+000000PRSWM2
0085843700999991975021916004-03567-080467FM-15+0033SPME V0209991C00001024001CN0112001N1+02501+02201999999ADDGA1011+003009089GA2051+024009049GA3021+030009039MA1101291999999EQDQ01+000000PRSWM2
0043822810999991975122921004-02600-044233FM-12+0053SBSL V0209991C00001105001CN0200001N9+02501+02301100951ADDAY121999GF107991011011004501001021MW1021
0088374170999991975110900004+42000+043617FM-12+069099999V0209991C00001220001CN0080001N9-00301-00301999999ADDAA199000091AY101999GF100991001001999999001001MD1710081+9999MW1021REMSYN011700// 95790
0057477880999991975092820164+34033+131533FM-16+0002RJOF V0200401N00251007501CN0112001N1+99999+99999999999ADDGA1011+004509089GA2061+007509089GA3081+010509059MW1251
0050723815231611975061117004+34867-116783SAO  +0588DAG  V0200901N007212200019N0560001N1+03171+00001101191ADDGF100991999999999999999999MA1101461999999MW1001
0095271960999991975051306004+58650+049617FM-12+016499999V0202301N00401220001CN0200001N9+02001+01201102081ADDAA199999929AY111999GF102991001001999999001011KA1999N+01301MD1110041+9999MW1011REMSYN00579713
0076011760999991975111412004+68567+016267FM-12+002599999V0200901N00461030001CN0600001N9+99999+99999999999ADDAY121999GF108991021021008001071999MD1310602+9999MW1021EQDQ01+000602APC3  
0233844720999991975122700004-07133-078517SY-MT+2620SPJR V0209991C00001013501CN0112001N1+01201+00701999999ADDAA199000091AY121999GA1031+009009079GA2031+013509059GA3021+024009049GF108991061041012501021999KA1999M+02001MA1101691073821MD1999999+0041MW1021REMSYN03567382 70020 83830 83645 82458 9921/MET020BNC NIEBLA SE/E NTM?EQDQ01+000000PRSWM2
0043949530999991975102517004-42150+145333FM-12+001099999V0201401N00101007501CN0400001N9+00801+00701100171ADDAY121999GF108991081051008001999999MW1021
0058062400999991975050509554+52300+004767FM-15-0004EHAM V0200501N01021999991CY0099001N1+01201+00701999999ADDMA1102711999999REMMET012CAVOK NOSIG%EQDQ01+000000PRSWM2
009094999900030197503190700N-30650+116000AUST +0204     V0200235N002659999999N999999999+02905+01605999999ADDAY124999GA1045+009005115GA2045+999999045GF108995044075009005025999MA1999999098945MW1025
0059031190999991975020106004+54850-005133AERO +003099999V0201801N00361008001CN0280001N9+99999+99999999999ADDAY131999GA1071+008009059GF107991999999999999999999MW1021
0057034820999991975112302004+52650+000550FM-12+0024EGYM V0201501N00461220001CN0025001N9+00001+00001102301ADDAY101999GF100991001001999999001001MD1710161+9999MW1101
0147724270038041975101719274+39350-081433SAOSP+0262PKB  V0200801N005110024019N0112001N1+99999+99999999999ADDGD13991+0024099GD24991+0030099GF108991999999999999999999MA1100411999999MW1611OC100921REMAWY050UA 1932 20NW PKB SE BND      ?     MDT TURBC 90 U8
0069741230999991975020807004+53317-113583SAO  +0723YEG  V0202501N002512200019N0240001N1-02931-03381103341ADDGF100991999999999999999999MA1102611094181MW1001EQDQ01+999990APOSP 
0269999999241721975062600005+40067-118550SAO  +1190LOL  V0201905N003152200059N056000599+02175-00395101955ADDGD10995+9999999GD20995+9999999GD30995+9999999GD40995+9999999GF100005999999999999999999MA1999999088525EQDN01 00000JPWTH 1QNNE11 1 00099E11 1 00099E11 1 00099E11 1 00099G11U1 99999K11 1 00025L11 1 03500M11 1 26140N11 1 00000Q11 1 10195S11 1 00071V11 1 00000X11 1 19006
0095248260999991975122312004+61433+114350FM-12+032099999V0202301N00601220001CN0500001N9-02501-02801102791ADDAA199000491AY171999GF100991001001999999001001KA1999M-01901MD1110021+9999MW1361REMSYN00579469
0338725450149901975110417003+41883-091700SAO  +0275CID  V0200605N002150039649N0096005N1+01675+01395102365ADDGD13995+0039099GD23995+0750099GD30995+9999999GD40995+9999999GF106065999999999999999999MA1102371099195MW1455REMAWY05411V15 VIS E-S 4 UA 1655      ?     O/CID 20BKN;CID?8/7EQDN01 07000JPWTH 1QNNE11 1 00499E11 1 00499E11 1 00099E11 1 00099G11 1 00013K11 1 00057L11 1 00600M11 1 29290N11 1 07000Q11 1 10236S11 1 00062V11 1 00807X11 1 06004
0057317050999991975060406004+48517+130733FM-12+011699999V0200901N00401007501CN0180001N9+01501+01401100841ADDAY191999GF107991071091008001001001MD1710051+9999MW1291
0068020980999991975122708504+55550+013367FM-15+0072ESMS V0203101N01181005101CN0112001N1+00701+00601999999ADDGA1071+005109059OC101901REMMET013GRADU 7SC015?EQDQ01+000000PRSWM2
0107321860999991975030109004+46200+150500FM-12+007099999V0203201N01001007501CN0500001N9-00301-00301100431ADDAA199001091AY181999GF106991061091008001001001KA1999M-00301MD1310061+9999MW1261REMSYN01770153 90135 90211
0033038620999991975060712204+50783-001833FM-15+0011EGHH V0201401N00511999991CY0099001N1+02401+00901999999REMMET005CAVOKEQDQ01+000000PRSWM2
0084999999999991975051518004-27600+153700FM-13+0000UNXE V0201801N00501220001CN0200001N9+02001+99999101471ADDAY101999GF100991001001999999001001MW1061SA1+2409UA1M030109999REMSYN01112400 30302
0122999999999991975041012004+39400-177800FM-13+0000WVHS V0200601N00771004201CN0200001N9+01001+00301102571ADDAY111999GF106991061051004501999999MD1410001+9999MW1031SA1+1069UA1M050159999UG1070300409REMSYN0230//03 11060 30503 04706
0066722325999991975102503004+28900-089433SMARS+00018R3  V0201401N00201220001CN0185001N9+02381+99999101651ADDGF101991999999999999999999MW1001UG1050039999REMSYN010SW    PASS
0058064510999991975030403204+50900+004467FM-15+0055EBBR V0201601N00361999991CY0099001N1+00801+00601999999ADDMA1099901999999REMMET012CAVOK NOSIG%EQDQ01+000000PRSWM2
0101344610999991975122012004+49317+043983FM-12+004399999V0200701N007019999999N0200001N9-00601-01401102051ADDAA199000091AY121999GF108991999001999999071001MD1710131+9999MW1031REMSYN005700//EQDQ01+000002SCOTLC
0057239860999991975062006004+60383+093017FM-12+045799999V0202701N00401220001CN0500001N9+02301+00301101061ADDAY101999GF102991021021012501001001MD1710061+9999MW1021
0068762055999991975121313004+27300-112283SAO  +0103SRL  V0202501N010219999999N0240001N1+99999+99999999999ADDAA106026091MW1001OC101281REMAWY012BMSO ALGS CIEQDQ01  02603PRCP99
0101347330999991975073000004+47083+040750FM-12+000999999V0202001N00201220001CN0200001N9+01601+01401100571ADDAA106000491AY101999GF100991001001999999001001MD1710051+9999MW1021REMSYN005794//EQDQ01  00043PRCP99
0080722090999991975110822004+31883-081567SAO  +0014LHW  V0201301N003610750019N0160001N1+02441+02061999999ADDGD12991+0075099GD23991+0750099GF107991999999999999999999MA1101691999999MW1001
0057247960999991975102912004+62533+149633FM-12+050499999V0209991C00001030001CN0230001N9-01301+99999101931ADDAY171999GF108991051001999999031071MW1711REMSYN005.1.18
0083475150999991975072410004+40550+141467FM-15+0046RJSH V0200201N00201015001CN0112001N1+02501+02001999999ADDGA1021+007509089GA2031+015009059MA1100711999999REMMET0052975%EQDQ01+000000PRSWM2
0057151500999991975010721004+46583+026983FM-12+0182LRBC V0202301N00301220001CN0015001N9+00801+00201100071ADDAY111999GF104991041051012501001001MD1710091+9999MW1021
0088478370999991975060409004+30733+131000FM-12+001799999V0201501N008219999999N0070001N9+02401+02301100531ADDAA199015091AY181999GF108991081021999999999999MD1710271+9999MW1801REMSYN01113015 41849
0080726228999991975031817004+44383-074200SAO  +0506SLK  V0202501N003612200019N0480001N1+00831-00601999999ADDGD12991+0450099GF102991999999999999999999MA1102571999999MW1001REMAWY006PRESFR
0144846910999991975091115004-13750-076217SY-MT+0006SPSO V0209991C00001003601CN0112001N1+01601+01301101611ADDAY101999GA1081+003609059GF108991081051004501999999MA1101591101541MW1021REMSYN017  154 88  2 990//MET019BCO NIEB CDTE S/E %EQDQ01+000000PRSWM2
0071858360999991975102011004-43617-071817FM-15+0280SCAP V0202001N005119999999N0112001N1+99999+99999999999ADDAA124787092REMMET02926030 23100 32200 0807 1024O?EQDQ01+000000PRSWM2
0305477640433241975100518003+34150+132233SAO  +0003RJOI V0202805N001052200059N0112005N9+01835+01445101605ADDGD10995+9999999GD20995+9999999GD30995+9999999GF100005999999999999999999MA1101561101595MD1110101+9999MW1001REMAWY006110 64EQDQ01+000002VOVAR N01 00000JPWTH 1QNNE11 1 00099E11 1 00099E11 1 00099E11 1 00099G11U1 99999K11 1 00058L11 1 00700M11 1 30000N11 1 00000Q11 1 10160S11 1 00065V11 1 00000X11 1 28002
0057166220999991975092315004+40517+022967FM-12+0003LGTS V0202901N00211036001CN0150001N9+03001+01101102021ADDAY121999GF106991031091008001061021MD1710141+9999MW1031
0100725525999991975071918004+40600-098433SAO  +0596HSI  V0201301N005110150019N0320001N1+02331+01831999999ADDGD13991+0150099GD23991+0300099GF107991999999999999999999MA1101421999999MW1001REMAWY011TE15 MOVD E
0065106870999991975031103004+49700-011950FM-15+0414EDIC V0209991C00001001501CN0037001N1+00401+00401999999ADDGA1081+001509079MA1100851095961MW1441REMMET016CIGM005 WET RWY%
0189844550999991975022600004-06450-076383SY-MT+0281SPST V0209991C00001006001CN0120001N1+02201+02201101741ADDAA106012091AY161999GA1051+006009079GA2031+030009049GF108991051071004501021999MA1101491098221MW1031REMSYN02969822 712// 85720 83460 9900/MET009NTM 329 %EQDQ01+000000PRSWM2Q02  01203PRCP99
0119202920999991975021300004+77717+104283FM-12+001399999V0202001N00401024001CN0090001N9-03201-03401101411ADDAA199000391AY171999GF108991081001999999021999IA1209IA2999-03309KA1999N-03201MD1310041+9999MW1711REMSYN01179382 2837/
0178768480999991975012300004+16250-092133FM-12+1635COM  V0209999999999045001CN0300001N9+01701+01401999999ADDAA124000091AY101999GA1021+009001041GF106991031021004501021081IA1009MA1999999083831MW1031REMSYN05968383 70000 82430 90500 91901 12119 20000 3//// 423// 5////EQDQ01  00003PRCP99
0109042700999991975072915004+61183-045417FM-12+0024BGBW V0202301N00361060001CN0600001N9+01001+00501101901ADDAY121999GA1011+003009059GA2071+060009029GF107991021051004501001061MD1710131+9999MW1031REMSYN01181  0 87270
0144083060999991975010100004+39550+002733SY-MT+0004LEPA V0203101N00311220001CN0180001N1+00801+00601102981ADDAA199000091AY101999GA1011+006609059GF101991011051008001001001MA1103011999999MD1610011+9999MW1021REMSYN005700//MET006NOSIG%EQDQ01+000000PRSWM2
0057114640999991975071503004+50550+013933FM-12+083399999V0202701N02601001201CN0030001N9+01601+01501999999ADDAY191999GF107991061091001501071031MD1710011+9999MW1951
0057318830999991975040918004+45883+134967FM-12+015099999V0202301N00501007501CN0190001N9+00201+00101999999ADDAY181999GF108991081091008001999999MD1210131+9999MW1801
0019162300999991975091117004+42433+014200FM-15+0010LIBP V0209991C000019999999N0070001N1+02301+02001999999EQDQ01+000000PRSWM2
030272217003813197509012000C+32700-083650SAO  +0108MCN  V0202905N004152200059N0112005N1+03225+01835101245ADDAA101000095GD12995+0105099GD20995+9999999GD30995+9999999GD40995+9999999GF103035999999999999999999MA1101291099975MW1001EQDQ01+999990APOSP N01 00000JPWTH 1QNNE11 1 00299E11 1 00099E11 1 00099E11 1 00099G11U1 99999K11 1 00065L11 1 00700M11 1 29520N11 1 00000Q11 1 10124S11 1 00090V11 1 00404X11 1 29008
048972423093821197511250600C+38183-085733SY-SA+0144SDF  V0201705N003650167649N0112005N1+00285+00005101655ADDAA101000095AA206999929AJ100009199999999AY121999GA1999+016764064GD14085+0150099GD20995+9999999GD30995+9999999GD40995+9999999GF108085081051017501999999KA1999M+00441KA2999N-00171MA1101631099865MD1610101+9999MW1855REMSYN01769986 70010 44029AWY052SB35 61000 1500 46;SDF?11/35 11/42       ?     11/44EQDQ01  00003PRCP99N01 05000JPWTH 1QNNE11 1 00610E11 1 00099E11 1 00099E11 1 00099G11 1 00055H11 1 15055K11 1 00032L11 1 00700M11 1 29490N11 1 05000Q11 1 10165S11 1 00037V11 1 01010X11 1 17007
0051064560999991975072420254+50233+004650FM-15+0284EBFS V0202701N00301999991CY0099001N1+01201+00601999999ADDMA1101291999999REMMET005CAVOKEQDQ01+000000PRSWM2
0065701170999991975041119004+65567-167917SAO  +0082PATC V0209991C000012200019N0192001N1-01551-01711999999ADDGF100991999999999999999999MA1102271999999MW1001REMAWY006PSR10P
0057361040999991975031718004+51483+095533FM-12+070199999V0209991C00001220001CN0500001N9-02601-02801999999ADDAY101999GF100991001001999999001001MD1210121+9999MW1021
0058131310999991975120622304+45733+016067FM-15+0106LYZA V0202501N00101999991CY0099001N1+00201+00001999999ADDMA1101801999999REMMET012CAVOK NOSIG?EQDQ01+000000PRSWM2
0057321740999991975032018004+44917+147667FM-12+001599999V0200901N00301220001CN0150001N9-00401-00901102731ADDAY101999GF100991001001999999001001MD1710121+9999MW1021
0065724945232931975051113014+37367-121917SAOSP+0017SJC  V0203201N004112200019N0240001N1+99999+99999999999ADDGD12991+0060099GF102991999999999999999999MA1102201999999MW1001
0232999999265391975072420005+66083-150000SAO  +013499999V0200605N004150182949N011200599+01785+01615999999ADDGD13995+9999999GD24995+9999999GD30995+9999999GD40995+9999999GF108055999999999999999999EQDN01 00000JPWTH 1QNNE11 1 00499E11 1 00699E11 1 00099E11 1 00099G11 1 00060K11 1 00061L11 1 00700N11 1 00000S11 1 00064V11 1 01006X11 1 06008
0063038850999991975100815004+50717+000450AERO +002399999V0200901N003019999999N0200001N9+01301+99999999999ADDAY121999GF107991999999999999999999MW1021SA1+1709UG1050109999
0054162300999991975110920004+42433+014200FM-15+0010LIBP V0209991C00001027001CN0070001N1+01101+01101999999ADDGA1041+009009059GA2041+027009039EQDQ01+000000PRSWM2
0058154210999991975092717004+44550+026100FM-15+0095LROP V0209991C00001999991CY0099001N1+02201+01301999999ADDMA1102001999999REMMET012CAVOK NOSIG%EQDQ01+000000PRSWM2
0100747686138201975100119254+30417-088917SAOSP+0008BIX  V0203401N005112200019N0112001N1+99999+99999999999ADDGD12991+0075099GD22991+0300099GF102991999999999999999999MA1101391999999MW1001REMAWY01125SCT V BKN
0071371750999991975091206004+43383+040283FM-12+164499999V0201801N00201007501CN0500001N9+00401+00201999999ADDAY121999GF106991061051008001001001MD1210071+9999MW1011REMSYN00595912
0057249230999991975031603004+60717+114883FM-12+016899999V0209991C00001220001CN0500001N9-00901-01001100461ADDAY111999GF100991001001999999001001MD1710191+9999MW1021
0071623930999991975062806004+27183+031100FM-12+0071HEAT V0202201N00261220001CN0100001N9+99999+99999999999ADDAY101999GF100991001001999999001001MD1110141+9999MW1021REMSYN00570023
028772520094823197507020700C+40500-080217SAO  +0347PIT  V02099959000052200059N0128005N1+01895+01175102315ADDAA101000095GD10995+9999999GD20995+9999999GD30995+9999999GF100005999999999999999999MA1102401097975MW1001EQDQ01+999990APOSP N01 00000JPWTH 1QNNE11 1 00099E11 1 00099E11 1 00099E11 1 00099G11U1 99999K11 1 00053L11 1 00800M11 1 28930N11 1 00000Q11 1 10231S11 1 00066V11 1 00000X11 1 00000
0139403720999991975022612004+29217+047983SY-MT+0055OKBK V0203301N00611030001CN0099001N1+02001+01101101321ADDAY121999GA1071+030009039GF107991071001999999031001MA1101291999999MD1710121+9999MW1021REMSYN00587360MET012CAVOK NOSIG%EQDQ01+000000PRSWM2
0082060710999991975102512004+56450+010967FM-12+000899999V0202301N00211004201CN0040001N9+01101+01001103151ADDAA199000091AY121999GF108991081061004501999999MD1210041+9999MW1101REMSYN005700//
0040070310999991975060610004+49367+000167FM-15+0146LFRG V0201201N00821999991CY0099001N1+02001+00901999999REMMET012CAVOK NOSIG%EQDQ01+000000PRSWM2
0165729220999991975071300004+55100-105300SY-SA+0372YVC  V0202601N005112200019N0240001N1+03301+01701100551ADDAY101999GD12991+0390099GF103991031001999999031001KA1999M+03501KA2999N+01901MA1100581096241MD1810171+9999MW1021REMSYN01169  4 43519AWY007AC2 817EQDQ01+000003PRSWM2
0095325090999991975090121004+54083+159950FM-12+002699999V0209991C00001220001CN0500001N9+01201+01101102231ADDAA199000091AY111999GF108991031001999999051011KA1999N+01001MD1310151+9999MW1021REMSYN00570010
0132728160999991975040809004+53317-060417SAO  +0046YYR  V0209991C000010030019N0192001N1+00001+00001100181ADDGD12991+0018099GD24991+0030099GF108991999999999999999999MA1100171099651MD1110091+9999MW1511REMAWY010SF2ST8 109EQDQ01+999990APOSP 
031172546514950197508051700C+41100-092450SAO  +0257OTM  V0200105N003150182949N0128005N1+02675+01945101695ADDAA101000095GD13995+0180099GD23995+0360099GD30995+9999999GD40995+9999999GF107065999999999999999999MA1101761098685MW1001REMAWY016?OTM?7/9 8/1 8/2EQDN01 00000JPWTH 1QNNE11 1 00499E11 1 00499E11 1 00099E11 1 00099G11 1 00060K11 1 00067L11 1 00800M11 1 29140N11 1 00000Q11 1 10169S11 1 00080V11 1 00908X11 1 01006
0080785145999991975022412004+18250-067150SAO  +0009MJMZ V0201001N002010300019N0160001N1+99999+99999999999ADDGD12991+0090099GD24991+0300099GF108991999999999999999999MA1101761999999MW1001
0082348450999991975081300004+46067+041967FM-12+006599999V0209991C00001220001CN0200001N9+01401+00801100851ADDAA199000091AY101999GF100991001001999999001001MD1810091+9999MW1021REMSYN005700//
0102725316999991975061121004+39833-088867SAO  +0207DEC  V0202601N00921009001MN0160001N1+02441+01611100911ADDGD14991+0090099GF108991999999999999999999MA1100951999999MW1001OC101231REMAWY020BINOVC?DEC?5/26 5/27
0092804150999991975081317004+10600-066983FM-15+0043MVMI V0200601N00661081001CN0112001N1+02901+02401999999ADDGA1021+006009059GA2051+081009009MA1101191999999REMMET0141003.9 1008.9%EQDQ01+000000PRSWM2
0080745940137051975031622004+38817-076850SAO  +0085ADW  V0201201N002010150019N0112001N1+00831-00161999999ADDGD13991+0150099GD24991+0300099GF108991999999999999999999MA1102571999999MW1001
0049999999999991975012404004+25100+153900FM-13+0000SHIP V0200101N009319999999N0040001N9+02101+99999999999ADDGF108991011021002501001999REMSYN0111230/ 01/04
0116080940999991975032518004+42083-000333FM-12+0554LEHC V0202701N01031220001CN0300001N9+01301+00401101461ADDAA199000091AY111999GF103991001001999999001011KA1999M+01701MA1999999095061MD1610051+9999MW1021REMSYN01169506 70017
0054163240999991975083016004+40517+017400FM-15+0064LIBG V0209991C00001027001CN0112001N1+02901+01301999999ADDGA1021+009009089GA2041+027009039EQDQ01+000000PRSWM2
0043836810999991975062921004-21833-046567FM-12+1252SBPC V0209991C00001007501CN0200001N9+01701+01201101991ADDAY121999GF107991051011008001001061MW1021
0072879250999991975080416004-51617-069283FM-12+0020SAWG V0202301N00821220001CN0300001N9+00301+00101101091ADDAY121999GF103991011051002501061001MD1210271+9999MW1011REMSYN0061010?5
0180846860999991975101918004-13550-071983SY-MT+3248SPZO V0209991C00001015001CN0112001N1+01301+00501999999ADDAA199000091AY121999GA1021+012009049GA2041+015009059GA3021+018009059GF108991081051012501999999MA1102511068801MW1031REMSYN03566880 700// 82540 84650 82656 990//EQDQ01+000000PRSWM2
0101982330999991975102903004+17617+121733FM-12+0022RPUT V0203601N00101007501CN0100001N9+02801+02501100781ADDAA106999929AY161999GF108991081051008001999999MD1810041+9999MW1601REMSYN00579789EQDQ01  99993PRCP99
009094315099999197503040100N-21170+119750AUST +0181     V0201355N004659999999N999999999+03205+01405999999ADDAY124999GA1035+012005085GA2035+015005065GF104995034015012005999999MA1999999099125MW1025
0122726515999991975020600004+44300-096800SAO  +0499BKX  V0203301N007710750019N0112001N1-01711-02101999999ADDGD12991+0450099GD24991+0750099GF108991999999999999999999MA1102241999999MW1001REMAWY014SW315/DFTG SNWEQDQ01+000892SCOCIG
0077729090999991975100500144+63750-068550SAOSP+0034YFB  V0203201N009710072019N0128001N1+99999+99999999999ADDGD14991+0072099GF108991999999999999999999MW1711REMAWY018SC10 LGT DRFTG SNW
0122562470999991975121206004+30083+098917FM-12+258999999V0202501N00601090001CN0500001N9+01101-01801999999ADDAA199000091AY111999GF108991031041022501001071KA1999N+00201MA1999999073671MD1999999+0001MW1031REMSYN01767367 /0002 00052
0095161400999991975072818004+44533+011300FM-12+0036LIPE V0201401N00411220001CN0300001N9+02801+01801101661ADDAA199000091AY101999GF100991001001999999001001KA1999M+03001MD1610041+9999MW1021REMSYN00570030
0076724455149381975100809004+40100-092550SAO  +0294IRK  V0201301N002012200019N0024001N1+01281+01171101501ADDGF100991999999999999999999MA1101521999999MD1410001+9999MW1111REMAWY003400
0137762252999991975071812004+28700-105967SAO  +1354CUU  V0201801N003012200019N0320001N1+01701+01401999999ADDAA106023091GD12991+0300099GF102991999999999999999999MD1010301+9999MW1001REMAWY034200/SC CI        ?     AISLD 03090EQDQ01  02303PRCP99
0106723106137441975021309004+34183-079717SAO  +0045FLO  V0203501N003010300019N0112001N1+00781+00061101491ADDGD12991+0150099GD24991+0300099GF108991999999999999999999MA1101491999999MD1110031+9999MW1001REMAWY003103
0057348770999991975102703004+45800+045633FM-12-001199999V0209991C000019999999N0005001N9+00701+00701101471ADDAY141999GF108991999999999999999999MD1710071+9999MW1471
0043835520999991975092921004-19017-057667FM-12+014099999V0203401N00311105001CN0200001N9+99999+99999999999ADDAY111999GF105991031011008001001021MW1011
0136308240999991975092000004+51567+105117FM-12+047099999V0201801N00101075001CN0500001N9+00401+00101101711ADDAA199000091AJ100009199999999AY111999GF108991021001999999031091IA1089IA2999+00009KA1999N+00301MD1310051+9999MW1031REMSYN01170003 20010
0050722286938061975022523004+33233-087617SAO  +0051TCL  V0202701N004112200019N0128001N1+01831+00331101961ADDGF100991999999999999999999MA1101961999999MW1001
0057935450999991975032715004-41300+173217FM-12+0005NZNS V0202001N00211220001CN0500001N9+00901+00701101671ADDAY101999GF101991011011017501001001MD1310101+9999MW1021
0056076020999991975041520004+43467-001533FM-15+0075LFBZ V0202601N00611006001CN0112001N1+01301+01201999999ADDGA1021+004509059GA2071+006009059MW1211REMMET006NOSIG%
0095313710999991975030612004+52783+126000FM-12+021299999V0202701N00201220001CN0500001N9-00501-01401101661ADDAA199000091AY101999GF102991001001999999001011KA1999M-00101MD1210061+9999MW1021REMSYN00570051
0052471580999991975112701004+35117+126817FM-15+0013RKJJ V0200701N001519999999N0060001N1+00501+00401999999REMMET043  = 300 6 INS/CIG050/QFF1018PT0/NC?       =
0090918260999991975050618004-18067-163183FM-12+000399999V0201301N00461220001CN0500001N9+02601+02201101181ADDAA199000091AY101999GA1031+006309089GF103991031011008001001001MW1031REMSYN0117003/ 83821
0057123000999991975041121004+52733+015250FM-12+006599999V0203101N00301220001CN0120001N9+00201-00101101541ADDAY101999GF102991021001999999061001MD1010021+9999MW1021
0117766790999991975042904004+19433-099067SAO  +2234MEX  V0200601N005110240019N0096001N1+01801+00801999999ADDGD16991+0001519GD22991+0105019GD33991+0240019GF107991999999999999999999MD1210271+9999MW1001REMAWY014227 HKD1/43099
0009074420999991975020317004+45767+002967FM-15+146199999V0200601N015919999999N0000001N1+99999+99999999999ADDMW1491
0057257070999991975072218004+62100+150600FM-12+034899999V0209991C00001220001CN0500001N9+01001+00901100601ADDAY191999GF107991041091008001001011MD1210031+9999MW1021
0069727347148411975120705004+45567-084800SAO  +0220PLN  V0209991C000012200019N0240001N1-01321-01551103721ADDGF100991999999999999999999MA1103561999999MW1001REMAWY010;PLN?12/25
0170766130999991975112812004+20600-103383FM-12+152699999V0209991C00001220001CN0200001N9+00601+00401999999ADDAA199000091AY101999GF100991001001999999001001MA1999999082851MW1001REMSYN09268285 70000 80000 9//// 919// 10000 20000 3//// 41605 50000 ROCIO LL    24    HRS   ANTMP MP
0095783670117061975081817004+19900-075150SAO  +0020MUGM V0201501N006710750019N0160001N1+03221+02331101651ADDGD12991+0075099GD23991+0240099GD33991+0750099GF107991999999999999999999MA1101591999999MW1171
0094871620999991975040213004-26200-058233FM-12+0059SARF V0201801N00981036001CN0200001N9+02201+01601101541ADDAY121999GA1021+036009039GF107991011011004501031061MD1210211+9999MW1021REMSYN01282362 1016.2
0043022550999991975100115004+62500+016183FM-12+007599999V0201301N00261000601CN0005001N9+01101+01001999999ADDAY121999GF108991081061000751999999MW1511
0057297890999991975121815004+54217+096967FM-12+098499999V0209991C00001220001CN0500001N9-02601-02801104821ADDAY101999GF101991001001999999001021MD1610011+9999MW1021
0092614210999991975062606004+20517-013067FM-12+0226GQPA V0200201N01341220001CN0060001N9+03001-00801100931ADDAY101999GA1031+039009039GF103991031001999999071001KA1999N+03001MW1071REMSYN01170030 83363
0050723910931111975083004004+34117-119117SAO  +0004NTD  V0202901N001512200019N0112001N1+01891+01611101351ADDGF100991999999999999999999MA1101321999999MW1001
0110103250999991975022112004+52100+008733FM-12+009899999V0201501N00571220001CN0150001N9+00501-00301103481ADDAA199000091AY101999GA1031+069009009GF103991001001999999001011MD1810041+9999MW1011REMSYN017700// 83073 COTRA
0218999999271021975021713005+99999+999999SAO  +999999999V02099999000050152449N024000599-03225-03675101045ADDGA1999+015244074GD19065+9999999GF106065999999999999999999MA1999999099665EQDN01 00000JPWTH 1QNNE11 1 09908G11 1 00050H11 1 16050K11 1-00034L11 1 01500M11 1 29430N11 1 00000Q11 1 10104S11 1-00026V11 1 00808W11 1 00000
0077702756999991975123018004+61133-146250SAO  +0034VDZ  V0201201N00151060001EN0240001N1+99999+99999999999ADDGD13991+0600099GF107991999999999999999999MA1103151999999MW1001REMAWY003WRG
0122999999999991975041701004+58800+001300FM-13+0000GUKS V0201401N01801004201CN0200001N9+00641+00601101531ADDAY121999GF108991081061004501001001MD1710081+9999MW1021SA1+0659UA1M030159999UG1060301609REMSYN0230//06 10654 30303 16606
0050724297938121975040510004+39100-084433SAO  +0149LUK  V0200601N002512200019N0128001N1-00211-00931102791ADDGF100991999999999999999999MA1102741999999MW1001
0089722555129351975022804004+28717-096250SAO  +0005PSX  V0201301N003610750019N0320001N1+01671+01501101731ADDGD14991+0750099GF108991999999999999999999MA1101731999999MW1001REMAWY015THN SPTS IN OVC
0057249550999991975111309004+60517+127917FM-12+046899999V0201801N00301220001CN0200001N9-01401-01601101401ADDAY101999GF102991011051008001001021MD1710011+9999MW1021
0095711230999991975042907004+53317-113583SAO  +0723YEG  V0200101N003012200019N0240001N1+00201-00601102451ADDGD12991+0210099GD22991+0900099GF102991999999999999999999MA1102241999999MW1001REMAWY006AC1CI1
009172654614946197506231400D+44917-097150SAO  +0533ATY  V0201801N005110750019N0208001N1+01941+01561101831ADDAA101000095GD12991+0240099GD23991+0750099GF107991999999999999999999MA1101901999999MW1001
0068021350999991975111610504+59650+017950FM-15+0038ESSA V0201701N00251006001CN0112001N1+00401+00001999999ADDGA1071+006009059MA1100411999999REMMET006NOSIG?EQDQ01+000000PRSWM2
0043837410999991975120820004-22933-043717FM-12+0003SBSC V0201801N00261220001CN0200001N9+03501+02301100381ADDAY111999GF103991011011008001001011MW1011
0057313880999991975031818004+52350+129917FM-12+020799999V0200901N00201030001CN0500001N9-00301-01101101491ADDAY121999GF108991081001999999021999MD1710131+9999MW1021
0121702640264141975020108004+63333-149133SAO  +0735UMM  V0200301N005612200019N0240001N1-02211-02711103481ADDGD12991+0660099GF102991999999999999999999MA1102171093601MW1001REMAWY0283CS DRFTG SNW NOTAMS FLW MRIEQDQ01+999990APOSP 
0121467360999991975112108004+24433+118433FM-15+0012RCBS V0200501N004110075019N0112001N1+01901+01301999999ADDGA1031+005409089GA2051+007509059GA3071+024009039MA1101961999999REMMET027CIG025     ?     -11- SLGT?EQDQ01+000000PRSWM2
0146726310999991975060912004+43983-080750SY-SA+0412WMN  V0203401N002012200019N0240001N1+01101+00801101951ADDAY111999GF100991001001999999001001KA1999M+01801KA2999N+00601MA1101961097061MD1310111+9999MW1021REMSYN01169706 41806AWY003311EQDQ01+000003PRSWM2
0063637930999991975063012004-03400+038567FM-12+0560HKVO V0202701N00101045001CN0500001N9+02801+01301999999ADDAY121999GF107991041021012501011071MW1021REMSYN01170//  2//00
0095316770999991975050912004+49017+138750FM-12+089499999V0209991C00001220001CN0500001N9+00201+00101999999ADDAA199002091AY111999GF100991001001999999001001KA1999M+00501MD1310061+9999MW1021REMSYN00570205
0154478540999991975062610004+32083+131450FM-15+0078RJFN V0202401N00201018001CN0112001N1+02201+02001999999ADDGA1011+001509079GA2031+013509059GA3051+018009059MA1100471999999REMMET060050. 8AS100/     ?     FCST 1016 98096 2CU015 6SC040 8SC060%EQDQ01+000000PRSWM2
0065700639999991975051122004+69150-148817SAO  +0286HVY  V0202901N004110024019N0112001N1-00271+99999999999ADDGD14991+0024099GF108991999999999999999999MA1101831999999MW1001
010770316025624197511241300D+55200-162717SAO  +0030CDB  V0201501N010210075019N0112001N1+00281+00171101581ADDAA101000095GD13991+0075099GF107991999999999999999999MA1101591101221MW1001REMAWY0037SCEQDQ01+999990APOSP 
0056722927999991975030218004+33133-117283SAO  +0100CRQ  V0203501N002010024019N0032001N1+01171+00831999999ADDGD13991+0024099GF107991999999999999999999MW1051MW2451
0058060300999991975062114204+57100+009867FM-15+0003EKYT V0203501N00511999991CY0099001N1+99999+99999999999ADDMA1102711999999REMMET012CAVOK NOSIG%EQDQ01+000000PRSWM2
0090408000999991975040712004+32617+051667FM-12+1598OIFF V0200901N00261220001CN0120001N9+02101+99999999999ADDAY101999GF101991999081008001051051MD1710171+9999MW1031REMSYN005  549EQDQ01+000002SCOTLC
0071542920999991975033003004+42883+129467FM-12+017899999V0203201N00501012001CN0350001N9+00401-00701100761ADDAY181999GF107991071051012501999999MD1210051+9999MW1261REMSYN00599718
0071722051128411975040614004+28550-081333SAO  +0034ORL  V0203501N005112200019N0112001N1+01891+00721999999ADDGF100991999999999999999999MA1101831999999MW1001REMAWY012?ORL?3/5 4/1
0109467560999991975091220004+24817+120933FM-15+0008RCPO V0201501N001010750019N0112001N1+02601+02301999999ADDGA1011+006009089GA2031+018009059GA3061+075009009MA1101291999999REMMET0152991INS CIG250%EQDQ01+000000PRSWM2
0058170600999991975040719004+40967+028817FM-15+0028LTBA V0203601N00101999991CY0099001N1+01701+01001999999ADDMA1101591999999REMMET012CAVOK NOSIG%EQDQ01+000000PRSWM2
0080726145947051975052007004+44200-072567SAO  +0353MPV  V0209991C000010150019N0064001N1+01831+01391100171ADDGD16991+0001599GD23991+0150099GF107991999999999999999999MA1101121999999MW1051
0053115180999991975031202304+50100+014283FM-15+0376LKPR V0203101N00101009001CN0080001N1+00401+00201999999ADDGA1061+009009059MA1101291999999EQDQ01+000000PRSWM2
0073645560999991975051615004+00567+012867FM-12+0509FOOK V0209991C00001007801CN0300001N9+03001+02301999999ADDAY121999GA1071+007809089GF107991071021008001001001MW1031REMSYN00587826
0132729670999991975061617004+61367-139050SAO  +0786YDB  V0203001N002510090019N0640001N1+01001+00601102491ADDGD12991+0033099GD23991+0090099GD34991+0240099GF108991999999999999999999MA1102201092861MW1001REMAWY009SF1SC7AC2EQDQ01+999990APOSP 
0087109080999991975082909004+47867+008000FM-12+148699999V0202301N009319999999N0010001N9+01001+00901999999ADDAY141999GA1041+999999089GF105991041021999999001011MD1310011+9999MW1401REMSYN005848//
0043443021999991975031709004+47800+112133FM-12+999999999V0202701N01001220001CN0500001N9+01101+99999999999ADDAY101999GF101991999999999999999999MW1021
0121085450999991975032703004+41233-008683SY-MT+0076LPPR V0201101N00251005101CN0112001N1+00901+00701101031ADDAY121999GA1081+005109059GF108991081051004501999999MA1101021999999MD1710181+9999MW1021REMSYN00588  7EQDQ01+000000PRSWM2
0088108180999991975092814004+48100+008767AERO +097399999V0202201N00251027001CN0300001N9+01801+01001999999ADDAY121999GA1041+007509059GA2071+027009039GF107991999999999999999999MW1031REMSYN004129%
0082378440999991975120412004+40333+048150FM-12+000299999V0209991C00001220001CN0200001N9+00701-00101103321ADDAA199000091AY101999GF101991011021008001001001MD1710151+9999MW1011REMSYN005700//
0101341860999991975031412004+51333+048350FM-12+999999999V0200201N01201220001CN0500001N9+00101-00301102031ADDAA106999929AY111999GF102991011011012501001011MD1210181+9999MW1011REMSYN005797//EQDQ01  99993PRCP99
0106729310999991975012717004+54800-112000SAO  +0559YLB  V0201001N001019999999N9999999N9-01381-01601999999ADDAA106999929AA299000091MA1100711999999REMAWY038E70?12 28/24/0000/032/CIG LWR S% STLIBEQDQ01+000002VOVAR 
0057574110999991975092709004+30800+106083FM-12+029999999V0203601N00101012001CN0080001N9+02201+02001100821ADDAY161999GF108991081051012501999999MD1610041+9999MW1211
0096727250999991975082010004+48050-077783SAO  +0337YVO  V0202901N002012200019N0240001N1+00801+00501102081ADDGD12991+0150099GF102991999999999999999999MA1102001097981MW1001REMAWY003SC2EQDQ01+999990APOSP 
0103740700999991975011208004+72767-118500SAO  +0009YUN  V0203301N013310001519N0000001N1+99999+99999102291ADDGD15991+0001599GF109991999999999999999999MA1102301102301MW1381MW2451REMAWY004BSQPEQDQ01+999990APOSP 
0057256560999991975072921004+63417+172717FM-12+020099999V0209991C00001004201CN0500001N9+01001+00601101531ADDAY121999GF108991081051004501999999MD1410001+9999MW1021
0082350070999991975052612004+51867+050333FM-12+007099999V0202501N00301220001CN0200001N9+03001+00701101201ADDAA199000091AY121999GF107991021011012501001011MD1710141+9999MW1021REMSYN005700//
0109039760999991975111821004+54233-010000FM-12+000999999V0202501N00621004801CN0140001N9+01101+01001101701ADDAY161999GA1051+004809079GA2061+011409059GF108991081061004501999999MD1810071+9999MW1501REMSYN01185716 86  8
049472521014895197507191200C+40917-081433SY-SA+0368CAK  V0202305N005252200059N0080005N1+02285+02065101495ADDAA101000095AY111999GA1999+021344034GA2999+999999999GA3999+999999999GA4999+999999999GD12045+0210099GD20005+9999999GD30005+9999999GD40005+9999999GF104045041001022501031991KA1999M+03001KA2999N+01281MA1101561097095MD1410001+9999MW1055REMSYN01769709 20013 48655AWY020400 1070 66/?CAK?6/2EQDN01 08100JPWTH 1QNNE11 1 00205E11 1 00000E11 1 00000E11 1 00000G11U1 99999H11 1 23070H11 1 00999H11 1 00999H11 1 00999K11 1 00069L11 1 00500M11 1 28670N11 1 08100Q11 1 10149S11 1 00073V11 1 00505X11 1 23010
0053804030999991975081113004+11417-069683FM-15+0020MVCR V0200901N00611220001CN0112001N1+03001+02301999999ADDGA1011+004809089MA1101391999999EQDQ01+000000PRSWM2
0058082840999991975021302004+39500-000467FM-15+0065LEVC V0202401N00301999991CY0099001N1+01101+00501999999ADDMA1101691999999REMMET012CAVOK NOSIG%EQDQ01+000000PRSWM2
0058108530999991975110618404+48717+011217FM-16+0380EDSU V0202201N00101003901CN0030001N1+99999+99999999999ADDGA1051+003909059GA2081+010509059MW1501REMMET008YLO YLO?
