0123265440999991976020700004+55867+026617FM-12+009399999V0209991C00001003901CN0015001N9-02001-02201103591ADDAA106999929AY181999GA1051+003909099GF108991081031004501999999MD1210111+9999MW1851REMSYN011797// 85913EQDQ01  99993PRCP99
0094032370999991976070313004+54650-002200AERO +038199999V0201401N00461060001CN0180001N9+99999+99999999999ADDAY111999GA1021+010509059GA2051+060009009GF105991999999999999999999MW1021EQDQ01+000003PRSWM2
0069740730999991976031202004+62717-109167SAO  +0160YFL  V0202901N001012200019N0240001N1-03101-03401102531ADDGF100991999999999999999999MA1102271100291MW1001EQDQ01+999990APOSP 
0057272250999991976072509004+58000+038833FM-12+011499999V0202901N00201007501CN0250001N9+02201+01801101621ADDAY121999GF107991071051008001001001MD1710021+9999MW1021
0109031620999991976073019004+55317-003200FM-12+024299999V0203601N00211010501CN0100001N9+00901+00801101201ADDAY161999GA1041+003009079GA2081+010509059GF108991081051004501999999MD1210101+9999MW1631REMSYN01184710 88635
0082985430999991976110709004+12367+123617FM-12+001099999V0200601N00461045001CN0300001N9+02901+02501100891ADDAA199000091AY141999GF108991031021008001031071MD1510051+9999MW1051REMSYN00570022
0082724506139861976020506004+38067-097867SAO  +0470HUT  V0200201N00511003901MN0240001N1-00771-01161999999ADDGD14991+0039099GF108991999999999999999999MA1102511999999MW1711REMAWY008SB40/ 30
0087200490999991976101518004+80367+052917FM-12+001699999V0202101N00501005401CN0220001N9-00501-00501101151ADDAY171999GA1081+005409059GF108991081051004501999999MD1710161+9999MW1021REMSYN00588618
0057939440999991976011823004-52550+169150FM-12+001599999V0203001N01031004201CN0200001N9+01001+00801101391ADDAY181999GF108991081051004501999999MD1310071+9999MW1051
030572465023065197610200400C+39367-101700SAO  +1111GLD  V0202105N002652200059N0320005N1-00285-00945102715ADDAA101000095GD10995+9999999GD20995+9999999GD30995+9999999GF100005999999999999999999MA1102441089545MW1001REMAWY009;GLD?6/2?EQDQ01+999990APOSP N01 00000JPWTH 1QNNE11 1 00099E11 1 00099E11 1 00099E11 1 00099G11U1 99999K11 1 00015L11 1 02000M11 1 26440N11 1 00000Q11 1 10271S11 1 00027V11 1 00000X11 1 21005
0057219310999991976050518004+70750+136217FM-12+002299999V0200701N00301220001CN0300001N9-01201-01301101611ADDAY121999GF106991001001999999001011MD1710031+9999MW1021
0084070100999991976090509004+51050+002333FM-12+000699999V0200801N00211220001CN0170001N9+01601+01101102441ADDAY111999GF104991031031004501061001MD1210111+9999MW1011UA1M990039999REMSYN00591827
0058074340999991976082704004+45867+001183FM-16+0396LFBL V0200201N00201999991CY0099001N1+99999+99999999999ADDMA1101801999999REMMET012CAVOK NOSIG?EQDQ01+000000PRSWM2
0150999999999991976072518004-10500+008300FM-13+0000SHIP V0201801N006019999999N0200001N9+01981+99999101601ADDAY121999GF107991999051008001999999MD1310071+9999MW1021SA1+2099UA1M030059999UG1060151909WA1900009REMSYN02312098 20000 30301 19603EQDQ01+000082SCOTLC
0100107080999991976090209204+49217+007117FM-15+0322EDRS V0202201N00661030001CN0090001N1+01401+01101999999ADDGA1011+004509089GA2041+007509059GA3081+030009049MA1100611999999REMMET006NOSIG?EQDQ01+000000PRSWM2
0102702000266171976010402004+64500-165433SAO  +0011OME  V0209991C000012200019N0064001N1-01601-01711101841ADDGD13991+0600093GF107991999999999999999999MA1101831101741MW1451REMAWY009VSBY W1/4EQDQ01+999990APOSP 
028672617014742197605020200C+44467-073150SAO  +0101BTV  V0201105N005250167649N0112005N1+01175+00785100805ADDAA101001095GD12995+0108099GD24995+0150099GD30995+9999999GD40995+9999999GF108085999999999999999999MA1100781099565MW1615EQDN01 02000JPWTH 1QNNE11 1 00299E11 1 00699E11 1 00099E11 1 00099G11 1 00055K11 1 00046L11 1 00700M11 1 29400N11 1 02000Q11 1 10080S11 1 00053V11 1 01010X11 1 11010
0076029470999991976031703004+61733+027300FM-12+013799999V0201301N00151015001CN0050001N9-01601-01701101291ADDAY171999GF108991999011017501011999MD1710051+9999MW1711EQDQ01+000082SCOTLC
0123081600999991976092615004+41650-001000SY-MT+0257LEZG V0209991V00201027001CN0112001N1+02501+01501100821ADDAY121999GA1041+012009089GA2031+027009039GF106991051081008001061001MA1101021999999MD1710171+9999MW1021EQDQ01+000000PRSWM2
0057348580999991976050321004+45917+043350FM-12+007799999V0201601N00301220001CN0200001N9+01101+00501102361ADDAY101999GF100991001001999999001001MD1410001+9999MW1021
0050722886231301976122815004+34217-018483SAO  +0244VNY  V0209991C000012200019N0400001N1+00611+99999999999ADDGF100991999999999999999999MA1101691999999MW1001
0116532760999991976091906004+42400+112900FM-12+115299999V0203201N00901012001CN0450001N9+01301+00101101881ADDAA199000091AY111999GF106991061011012501001021KA1999N+00301MA1999999088751MD1710091+9999MW1021REMSYN01168875 /0003
0058084820999991976012702004+36667-004483FM-15+0011LEMG V0203201N00511999991CY0099001N1+00401-00701999999ADDMA1102001999999REMMET012CAVOK NOSIG?EQDQ01+000000PRSWM2
0145607150999991976050806004+36833+010233FM-12+0005DTTA V0202001N00311220001CN0070001N9+01701+01501101221ADDAA199000091AY101999GA1011+006009089GA2031+060009009GF104991011021008001041021KA1999N+01501MD1310011+9999MW1011REMSYN02370015 81820 83070 95900
0087064790999991976040721004+51167+005467FM-12+0060EBBL V0203401N00311220001CN0070001N9+00301+00201101831ADDAY181999GA1011+006909059GF101991011051008001001001MD1710251+9999MW1251REMSYN00581623
0129702730264511976121619004+61167-150017SAOSP+0040ANC  V0201001N002010150019N0320001N1-00321-00491099981ADDGD12991+0060099GD24991+0150099GF108991999999999999999999MA1099971099491MW1001REMAWY0213SC RWY 06R WND 0903?EQDQ01+999990APOSP 
0095577660999991976041818004+27250+111483FM-12+025099999V0200901N001019999999N0100001N9+01401+01101101761ADDAA199000091AY121999GF107991001001999999031999KA1999M+01901MD1710171+9999MW1031REMSYN005/0019
0057538630999991976030300004+37033+111900FM-12+075099999V0202001N00101220001CN0200001N9-00301-00901103331ADDAY101999GF100991001001999999001001MD1210021+9999MW1021
0131038940999991976100313004+49433-002600FM-12+0102EGJB V0201801N00981007501CN0060001N9+01601+01301100421ADDAY161999GA1021+001209079GA2061+007509059GA3071+027009049GF108991061051001501021999MD1710161+9999MW1581REMSYN01782704 86625 87459
0057431490999991976050715004+17717+083217FM-12+0004VOVZ V0201701N00511007501CN0040001N9+03101+02801100551ADDAY101999GF107991051051008001011001MD1999999+0111MW1021
0053020870999991976021802504+57767+014083FM-15+0226ESSJ V0201301N00611001201CN0050001N1-00401-00501999999ADDGA1071+001209079MA1102811999999EQDQ01+000000PRSWM2
0087637930999991976031418004-03400+038567FM-12+056099999V0201301N00511220001CN0400001N9+02701+01901999999ADDAA199000091AY111999GF101991011011008001051001KA1999M+03401MW1011REMSYN01170034 20000
0132607200999991976052912004+37067+011033FM-12+000499999V0200201N00411007801CN0100001N9+01901+01601101541ADDAA199000091AY121999GA1021+006009089GA2041+007809059GF107991051081008001081999MD1010011+9999MW1031REMSYN023700// 82820 84626 95900
0096728340999991976080722004+49700-086950SAO  +0331YGQ  V0202401N005612200019N0240001N1+02501+01001101691ADDGD12991+0150099GF102991999999999999999999MA1101631097701MW1001REMAWY003CF1EQDQ01+999990APOSP 
0057153460999991976100715004+45100+024367FM-12+024399999V0202301N00101220001CN0100001N9+02201+01401102261ADDAY101999GF101991011001999999041001MD1710091+9999MW1021
0053105140999991976121312524+50367+007317FM-15+0182EDPN V0202801N00301006301CN0112001N1+00201-00201999999ADDGA1051+006309089MA1102401999999EQDQ01+000000PRSWM2
0082239120999991976020512004+60733+056733FM-12+017399999V0201801N00301075001CN0100001N9-03301-03601101391ADDAA199000591AY171999GF107991011001999999041051MD1310051+9999MW1711REMSYN005795//
0057020530999991976051809004+67133+020667FM-12+036599999V0209991C00001220001CN0500001N9+01701+00601102631ADDAY101999GF103991011011012501001011MD1410001+9999MW1031
0057060410999991976021615004+57767+010650FM-12+000399999V0202301N00821004201CN0120001N9+00401+00201103541ADDAY111999GF106991051051004501001011MD1810071+9999MW1021
016372248013957197601151700D+32467-093817SAO  +0079SHV  V0201701N005112200019N0240001N1+01111-00381102771ADDAA101000095GD12991+0900093GF102991999999999999999999MA1102781101821MD1710091+9999MW1001REMAWY013FEW AC 100 NWEQDQ01+999990APOSP Q02+000012APCTENQ03+000002APC3  
0088725801999991976091513004+40067-118550SAO  +1190LOL  V0200101N00871018001EN0320001N1+01221+00891100791ADDGD13991+0180099GD23991+0300099GF107991999999999999999999MA1101081999999MW1001OC101081
0177722358939191976070400004+31183-090467SAO  +0126MCB  V0202401N002010750019N0192001N1+02561+02221101921ADDAA106004091GD12991+0090099GD22991+0240099GD33991+0750099GF107991999999999999999999KA1999M+03111MA1101961999999MD1610101+9999MW1001REMAWY01661016 88;MCB?7/1EQDQ01  00403PRCP99
0131722166938451976011615003+30783-083283SAO  +0061VLD  V0203005N013452200059N0560001N1+01005+99999999999ADDGF100005999999999999999999MA1101801999999MD1110101+9999MW1001REMAWY011110 VLD?1/4QNNG11U1 99999S11 1 00050V11 1 00000X11 1 30026
0057230240999991976101615004+69483+060333FM-12+001999999V0203201N00901012001CN0210001N9+00101+00001102081ADDAY121999GF108991081051012501999999MD1710031+9999MW1021
0050722286938061976060604004+33233-087617SAO  +0051TCL  V0209991C000012200019N0128001N1+02001+01281102161ADDGF100991999999999999999999MA1102171999999MW1001
0183340090999991976071506004+51650+036183FM-12+016799999V0200201N00701002101CN0040001N9+01401+01301100551ADDAA199004091AJ100009199999999AY161999GA1071+002109079GF108991999071002501021999IA1109IA2999+01409KA1999N+01301MD1210071+9999MW1611REMSYN02370413 87707 21420 /1611EQDQ01+000082SCOTLC
0073471320999991976031508004+36333+127383FM-15+0064RKTD V0209991C00001220001CN0112001N1+01701+00601999999ADDGA1011+009009059MA1101691999999REMMET011QFF1017PT3?EQDQ01+000000PRSWM2
0095728895999991976072109004+49950-119383SAO  +0429YLW  V0209991C00001024001MN0240001N1+01101+01001101501ADDGD13991+0240099GF107991999999999999999999MA1101561999999MD1110141+9999MW1001REMAWY007AC6 114
0081353860999991976032615004+49950+071583FM-12+042299999V0209991C00001220001CN0200001N9-02101-02301999999ADDAA199000091AY101999GF100991001001999999001001KA1999M-01101MW1021REMSYN00570061
0095727555999991976060800554+48067-096183SAOSP+0340TVF  V0200501N002510300019N0112001N1+02171+01721999999ADDGD12991+0150099GD23991+0300099GD34991+0600099GF108991999999999999999999MA1101191999999MW1001
0082862330999991976071123004-25750-056433FM-12+016199999V0203601N00261220001CN0200001N9+01601+01201101801ADDAA199000091AY111999GF100991001001999999001001MD1510041+9999MW1011REMSYN00570020
0122999999999991976010912004+23500-150400FM-13+0000WXBR V0200701N01291220001CN0500001N9+02181+01601101951ADDAY111999GF101991011011004501001001MD1610101+9999MW1011SA1+2179UA1M040209999UG1060300909REMSYN0230//16 12178 30404 09606
0073164220999991976082512504+38083+015650FM-15+0026LICR V0202201N00611060001CN0112001N1+02601+01701999999ADDGA1021+009609089GA2051+060009009REMMET010QUK0 QUL0?EQDQ01+000000PRSWM2
0053037720999991976102200204+51483-000450FM-15+0024EGLL V0202001N00201220001CN0080001N1+00901+00901999999ADDGA1021+075009009MA1101291999999EQDQ01+000000PRSWM2
0040036830999991976111505504+51883+000233FM-15+0106EGSS V0209991C00001000151CN0001001N1+99999+99999999999ADDGA1091+999999999MW1451REMMET006NOSIG?
0137373930999991976012118004+42333+042983FM-12+059399999V0209991C00001036001CN0010001N9+00301-00201104401ADDAA199000091AJ199999999999999AY121999GF107991071001999999051001KA1999M+00401MD1310051+9999MW1021REMSYN01170004 99690EQDQ01  03992SNDP  
0057934010999991976050118004-40200+175383FM-12+0053NZOH V0209991C00001220001CN0500001N9+00601+00401100491ADDAY181999GF100991001001999999001001MD1310061+9999MW1011
0120100050999991976010400004+54000+008117FM-12+000599999V0203401N01701220001CN0200001N9+00401+00201100781ADDAA106004091AY101999GF103991999999999999999999MD1210561+9999MW1021UA1M040409999REMSYN011704// 30408EQDQ01  00403PRCP99
014272677024033197611301600D+45800-108533SAO  +1099BIL  V0202701N00411036001EN0960001N1+00061-00551102121ADDAA101000095GD14991+0360099GF108991999999999999999999MA1101861089391MW1001REMAWY038;BIL 11/33 BIL PTCH SIR C11/29 C11/32?EQDQ01+999990APOSP 
0094875930999991976122111004-34967-057900FM-12+0021SADL V0202901N00151036001CN0150001N9+01901+01601100951ADDAY121999GA1021+999999029GF108991011041012501071061MD1310041+9999MW1011REMSYN01282299 1009.4
0100060700999991976112511554+56300+010617FM-15+0025EKAH V0202101N00511220001CN0045001N1+00201+00201999999ADDGA1031+001509079GA2071+001509079MA1101491999999MW1511REMMET0353 000      ?     TEMPO 1500 7ST003?
0134727200999991976120416004+46050-074283SAO  +0395WOH  V0209991C000012200019N0240001N1-01701-02201102861ADDGD12991+0300099GD22991+0600093GD33991+0750093GF107991999999999999999999MA1102441097741MW1001REMAWY011AC1CS3CI2 ?EQDQ01+999990APOSP 
0083726776240361976091914004+47050-109450SAO  +1279LWT  V0201501N002512200019N0800001N1+00111+00001103261ADDGD12991+0600093GF102991999999999999999999MA1103081999999MW1001REMAWY009;LWT?8/3?
0109039760999991976031020004+54233-010000FM-12+000999999V0201801N01031002701CN0080001N9+01001+00801100851ADDAY161999GA1051+002709079GA2081+004809079GF108991081061002501999999MD1710161+9999MW1611REMSYN01185709 88716
0107726886241301976111103004+44833-117817SAO  +1027BKE  V0209991C000012200019N0240001N1+00441+00111102111ADDGD12991+0240099GD23991+0600093GF107991999999999999999999MA1101931999999MD1110121+9999MW1001REMAWY004112?
0073038040999991976041416004+49933-006300FM-12+0048EGHE V0203401N01031006901CN0280001N9+01001+00201102101ADDAY161999GA1051+006909059GF106991051051008001041001MD1210041+9999MW1211
0073037460999991976062217004+51167-010750FM-12+0124EGDM V0201801N00461220001CN0350001N9+02501+01401102081ADDAY101999GA1011+013509089GF101991011011012501081001MW1011REMSYN00581845
0051162390999991976051205204+41800+012583FM-15+0129LIRA V0209991C00001220001CN0002001N1+01101+01001999999ADDED199U03969GA1031+002109079MA1101021999999MW1421
0035130140999991976121120004+46217+014483FM-15+0362LYLJ V0202701N00101220001CN0007001N1-00501-00601999999ADDED199U14939MA1101291999999MW1411
0145272710999991976092306004+58367+045550FM-12+012099999V0202901N00401003601CN0100001N9+00401+00401101151ADDAA199000391AJ100009199999999AY151999GA1081+003609059GF108991081051004501999999IA1089IA2999+00409MD1710171+9999MW1021REMSYN01779305 88612 20410
0227729330999991976011300004+58767-111117SY-SA+0232YPY  V0202901N003612200019N0240001N1-02501-02701102101ADDAA106000291AJ100439199999999AY171999GD12991+0750099GF101991001001999999001011KA1999M-01901KA2999N-02801MA1101831099121MD1210421+9999MW1021REMSYN02969912 70158 90417 20004 46978AWY007CI1 242EQDQ01+000003PRSWM2Q02  00023PRCP99
0054076470999991976020216004+43517+004933FM-15+0023LFMI V0200601N00301024001CN0080001N1+99999+99999999999ADDGA1031+012009059GA2051+024009039EQDQ01+000000PRSWM2
0115728690999991976062720004+53217-105683SAO  +0428YPA  V0202401N00251009001EN0240001N1+01701+01001101081ADDGD13991+0090099GD23991+0330099GF107991999999999999999999MA1100981095911MW1001REMAWY007TCU7AC1EQDQ01+999990APOSP 
0151723087937351976091612004+37133-076617SAO  +0004FAF  V0201501N002510045019N0112001N1+02281+02061101511ADDAA124081091GD12991+0015099GD23991+0045099GD34991+0090099GF108991999081999999999999MA1101521999999MD1110081+9999MW1001REMAWY022108// 18// 20318 WR//?
0087021660999991976022521004+56267+015283FM-12+0058ESDF V0202601N00511001501CN0100001N9+00501+00501101641ADDAY121999GA1071+001509079GF108991081061001501999999MD1710101+9999MW1021REMSYN00587705
0123604570999991976081418004+00000+999999FM-12+999999999V0209991C00001220001CN0130001N9+02901+02601999999ADDAA199000091AY111999GA1021+075009009GF102991001001999999001011KA1999M+03701MD1710111+9999MW1011REMSYN01770037 82075 95900
0082348580999991976121900004+45917+043350FM-12+007799999V0201401N005019999999N0200001N9-00401+99999103831ADDAY121999GF108991081999999999081071MW1021REMSYN011700.. IIUQWEQDQ01+025323ATOD  
0095589440999991976121106004+25517+119783FM-12+002599999V0200201N00701220001CN0300001N9+01701+01001102391ADDAA199000091AY101999GF101991011051008001001001KA1999N+01101MD1610211+9999MW1021REMSYN005/0011
0195729320999991976050818004+56650-111217SY-SA+0369YMM  V0203101N00201027001EN0240001N1+01301-00201100671ADDAY121999GD13991+0270099GD24991+0420099GF108991081001999999071999KA1999M+01301KA2999N+00401MA1100581096211MD1610201+9999MW1031REMSYN01169621 41304AWY022AC8AC2 VIRGA S-W-N 620EQDQ01+000003PRSWM2
0095471010999991976011200004+37867+127733FM-12+007599999V0201101N00151220001CN0180001N9-01301-01401102911ADDAA199000091AY111999GF101991011051008001001001KA1999N-01401MD1210101+9999MW1101REMSYN00570064
0157729010999991976062612004+55333-063217SY-SA+0486YEC  V0202301N001512200019N0640001N1+00901-00101101781ADDGD12991+0750093GF103991001001999999001011KA1999M+00901KA2999N-00101MA1101631095901MD1810011+9999MW1021REMSYN01169590 40951AWY007CI1 801EQDQ01+000003PRSWM2
0114589210999991976032406004+25967+117350FM-12+020799999V0209991C00001004201CN0050001N9+00901+00701102121ADDAA106008091AY161999GF108991071071004501021999KA1999N+00701MD1710131+9999MW1631REMSYN005/0807EQDQ01  00803PRCP99
0073163200999991976080107204+40650+017950FM-15+0015LIBR V0201501N00511220001CN0032001N1+02501+02101999999ADDGA1021+002409079MA1101391999999REMMET011GRADU 5000?EQDQ01+000000PRSWM2
0065477640433241976110920004+34150+132233SAO  +0003RJOI V0203101N00151066001EN0064001N1+01111+00941102351ADDGD14991+0660099GF108991999999999999999999MA1102301999999MW1111
0043851040999991976061521004-13067-064800FM-12+0200SLJO V0203201N00511220001CN0500001N9+03001+02401999999ADDAY101999GF101991011041008001001001MW1021
0040118160999991976021601004+48167+017200FM-15+0132LKIB V0200201N00201004501CN0050001N1+00201+00001999999ADDGA1081+004509079MA1102301999999MW1611
0138600400999991976121109004+28950-013600SY-MT+0020GCRR V0209991C00001007501CN0100001N1+01701+99999101591ADDAY121999GA1011+001809079GA2081+007509089GF108991081081004501999999MA1101591999999MD1310031+9999MW1021REMMET006NOSIG?EQDQ01+000000PRSWM2
0076999999999991976070506004+60700+001700FM-13+0000LFAE V0200301N00931220001CN0200001N9+01301+01101999999ADDAY101999GF102991021999012501999999MW1021UA1M990109999REMSYN0110//11 3//02
0078101130999991976071210004+53717+007150AERO +001399999V0200601N00511220001CN0180001N9+02001+01601999999ADDAY101999GA1011+006009089GF101991999999999999999999MW1021EQDQ01+000003PRSWM2
0078038660999991976080308004+50583-001300AERO +001699999V0203201N00301007501CN0350001N9+99999+99999999999ADDAY121999GA1071+007509089GF107991999999999999999999MW1021EQDQ01+000003PRSWM2
0136371890999991976033003004+43017+041017FM-12+003799999V0202701N00301004201CN0040001N9+00701+00701101901ADDAA199003091AJ100009199999999AY181999GF108991081091004501999999IA1089IA2999+00609KA1999M+00701MD1710121+9999MW1811REMSYN01170307 20610
0132804100999991976112306004+10050-069367FM-12+0622MVBM V0200501N00101090001CN0100001N9+02201+02001101141ADDAA199000091AY121999GA1021+004809059GA2041+090009029GF106991021051004501001051MD1999999+0021MW1021REMSYN023700// 82616 84280 99909
0080172800999991976040114004+37900+040200FM-15+0686LTCC V0203601N00301009901CN0112001N1+01701+01001999999ADDGA1051+009909089GA2051+060009009MA1101491999999REMMET002N?EQDQ01+000000PRSWM2
0102471820999991976101901004+33500+126500FM-15+0038RKPC V0200901N00511060001CN0112001N1+02201+01501999999ADDGA1011+018009059GA2031+030009039GA3061+060009009MA1101291999999REMMET0082993INS?EQDQ01+000000PRSWM2
0114509530999991976070806004+45683+126617FM-12+017399999V0202501N008019999999N0250001N9+03101+01501099751ADDAA199000091AY121999GF107991999021012501001001KA1999N+02301MD1710041+9999MW1021REMSYN005/0023EQDQ01+000032SCOTLC
0065723627230811976051713004+35517-108783SAO  +1972GUP  V0209991C000012200019N0400001N1+00941+00171101531ADDGD12991+0240099GF102991999999999999999999MA1102371999999MW1001
0207729360999991976081921004+62467-114450SAO  +0205YZF  V0209991C000010270019N0240001N1+02001+01201099511ADDGD12991+0045099GD22991+0081099GD33991+0270099GF107991999999999999999999MA1099461097041MD1610011+9999MW1001REMAWY070951/20/12/0000/937/CF1TCU4AC3 SUSPECT CB       ?     S NR SHR LN 601 ?EQDQ01+999990APOSP 
0082367730999991976080712004+45900+078717FM-12+041299999V0203201N00101220001CN0200001N9+03101+00201100891ADDAA199000091AY111999GF100991001001999999001001MD1710091+9999MW1021REMSYN005700//
0068333460999991976012520004+50350+030917FM-15+0125UKBB V0209991C00001006001CN0040001N1-00701-00801999999ADDGA1071+006009059MA1100811999999REMMET006NOSIG?EQDQ01+000000PRSWM2
0128654420999991976072406004+06717-001600FM-12+0287DGSI V0201801N00211002401CN0060001N9+02101+02001101661ADDAY121999GA1051+002409059GA2071+006009059GF107991071051002501999999KA1999N+02101MD1999999+0001MW1101REMSYN01770021 85608 87620
0082128820999991976062212004+47483+021633FM-12+011199999V0203401N00401220001CN0300001N9+02801+01301101901ADDAA199000091AY101999GF102991021021012501001001MD1810091+9999MW1031REMSYN005700//
0090725126147361976061816004+40300-078317SAO  +0458AOO  V0202201N00301005401EN0080001N1+02501+02111102131ADDGD13991+0054099GF107991999999999999999999MA1102131999999MW1051REMAWY016;AOO?5/7 6/2 6/3
0087103480999991976091503004+52300+010450FM-12+008199999V0201701N00261220001CN0100001N9+00901+00701100881ADDAY101999GA1021+075009009GF102991001001999999001011MD1810021+9999MW1021REMSYN00582075
0057346550999991976092909004+47633+043150FM-12+004999999V0202301N00501012001CN0200001N9+01301+00801101781ADDAY121999GF108991081051012501999999MD1810111+9999MW1021
0057129200999991976021521004+46750+017250FM-12+011799999V0209999999999036001CN0050001N9+00201+00201102131ADDAY161999GF108991021071004501021999MD1110131+9999MW1611
0150728575999991976050712004+54683-101683SAO  +0304YFO  V0201701N003610750019N0240001N1+00101-00501101961ADDGD12991+0450099GD22991+0600099GD33991+0750099GF107991999999999999999999MA1101831999999MD1610231+9999MW1001REMAWY032AC1 CS3 CI3 HALO       ?     623
0056061040999991976122217504+55733+009150FM-15+0070EKBI V0200201N00251000901CN0030001N1+00001-00101999999ADDGA1021+000309079GA2071+000909079MA1102101999999MW1201
0115020620999991976070300004+63183+014500FM-12+0376ESPC V0203001N00411060001CN0750001N9+00801+00601102271ADDAY121999GA1011+024009039GA2051+060009009GF105991011001999999041041MD1210051+9999MW1021REMSYN01781358 85070 00687
0043820980999991976042215004+00050-051050FM-12+0015SBMQ V0209991C00001007501CN0200001N9+02901+02501101021ADDAY121999GF107991061011008001031001MW1021
0100166410999991976070811204+39617+019917FM-15+0002LGKR V0200601N00201027001CN0112001N1+02701+01601999999ADDGA1031+009009089GA2031+027009039GA3051+048009009MA1100511999999REMMET006NOSIG?EQDQ01+000000PRSWM2
0065725466999991976042016004+40617-093933SAO  +03423OI  V0200501N00721003601EN0064001N1+01001+00891999999ADDGD14991+0036099GF108991999999999999999999MA1100951999999MW1801
0109039650999991976081311004+53083-007883FM-12+007099999V0200501N00361012001CN0300001N9+01801+01001102261ADDAY121999GA1021+006609089GA2071+012009059GF107991071081008001999999MD1310041+9999MW1021REMSYN01182822 87640
0160039760999991976022012004+54233-010000FM-12+000999999V0201401N01341060001CN0080001N9+00901+00501100661ADDAA199000091AY121999GA1011+005409079GA2031+012009059GA3071+060009029GF108991031051004501031081MD1810081+9999MW1101REMSYN035700// 81718 83640 87270 91139 90086
0094038650999991976010808004+50900-001400AERO +000999999V0202501N00201004501CN0240001N9+00901+00701999999ADDAY121999GA1021+003009079GA2081+004509059GF108991999999999999999999MW1021EQDQ01+000003PRSWM2
0117274120999991976051318004+56867+037383FM-12+012399999V0201101N00201004801CN0080001N9+01001+00801101131ADDAA199005091AY181999GA1081+004809099GF108991081091004501999999KA1999M+01301MD1710101+9999MW1811REMSYN01170513 88916
0073275390999991976101012004+55617+040650FM-12+013599999V0202501N00401012001CN0290001N9+00401-00301101181ADDAY121999GF106991061081008001001001MD1310041+9999MW1011REMSYN007700./ /
0101306640999991976010803004+53533+115617FM-12+081099999V0209991C00001075001CN0500001N9-02601+99999103941ADDAA199320092AY121999GF107991031001999999071061MD1999999+0421MW1031REMSYN00578205EQDQ01+019323ATOD  
0086725101147121976021703004+40383-075967SAO  +0105RDG  V0200101N002510210019N0064001N1+00941+00941999999ADDGD12991+0090099GD24991+0210099GF108991999999999999999999MA1100951999999MW1451MW2611
0111723408138141976041703004+35967-089867SAO  +0077BYH  V0201301N005610750019N0112001N1+02281+01391101611ADDGD12991+0300099GD23991+0750099GF107991999001999999071051MA1101631999999MD1210071+9999MW1001REMAWY008207 1075
0053162700999991976081607504+41133+016783FM-15+0052LIBD V0202201N00361027001CN0050001N1+02401+02001999999ADDGA1071+027009039MA1101491999999EQDQ01+000000PRSWM2
0057289270999991976021606004+52700+055800FM-12+024799999V0209991C00001220001CN0019001N9-02101-02301103821ADDAY111999GF100991001001999999001001MD1210031+9999MW1041
0114728040999991976042411004+49217-057400SAO  +0022YDF  V0200401N00771002701EN0240001N1+00101-00101101041ADDGD13991+0027099GD24991+0075099GF108991999999999999999999MA1101021100801MW1001REMAWY006SC7SC3EQDQ01+999990APOSP 
0139999999999991976080100004+30000-154900FM-13+0000UMAY V0201601N00701007501CN0100001N9+02361+02001101741ADDAA199999929AY181999GF107991061031008001001011MD1810221+9999MW1151SA1+2519UA1M010059999UG1070151009REMSYN02979722 05320 12516 30101 10703
049572217003813197605251800C+32700-083650SY-SA+0108MCN  V0203505N00265010674EN0128005N1+02505+01445100915ADDAA101000095AY111999GA1999+010674084GA2999+999999999GA3999+999999999GA4999+999999999GD13065+0105099GD20005+9999999GD30005+9999999GD40005+9999999GF106065061021012501001991KA1999M+02611KA2999N+01441MA1100981099635MD1010001+9999MW1021REMSYN01169963 47958AWY011000 1200 58EQDQ01+000003PRSWM2N01 00000JPWTH 1QNNE11 1 00407E11 1 00000E11 1 00000E11 1 00000G11 1 00035H11 1 11035H11 1 00999H11 1 00999H11 1 00999K11 1 00058L11 1 00800M11 1 29420N11 1 00000Q11 1 10091S11 1 00077V11 1 00707X11 1 35005
009972483023232197611141000D+38517-121500SAO  +0006SAC  V0201501N00561005401EN0080001N1+01331+00891101681ADDAA101000895GD14991+0054099GF108991999999999999999999MA1101691999999MW1451REMAWY014RE18;SAC?11/5?
0154085150999991976030306004+36967-025167SY-MT+0093LPAZ V0203501N00821004201CN0060001N1+01201+01101102011ADDAA199000391AY181999GA1051+004209089GA2031+009009059GF107991071081004501999999KA1999N+01201MA1102001999999MD1610081+9999MW1801REMSYN01779312 85814 83630
006172318113877197609121400D+36483-082400SAO  +0463TRI  V0200801N002012200019N0240001N1+01501+01001102561ADDAA101000095GF100991999999999999999999MA1102611999999MW1001
0065744915147751976062102004+42167-072717SAO  +0082BAF  V0201801N00151005701MN0112001N1+02281+02061999999ADDGD14991+0057099GF108991999999999999999999MA1101761999999MW1001
0050725066999991976070301004+41400-070617SAO  +0021MVY  V0202701N003612200019N0080001N1+99999+99999999999ADDGF100991999999999999999999MA1101491999999MW1051
0057296540999991976061209004+55217+087650FM-12+049499999V0200201N00501220001CN0500001N9+01501+00001101901ADDAY101999GF101991001001999999001011MD1810031+9999MW1021
0121132440999991976091506004+44067+017467FM-12+056299999V0209991C00001036001CN0002001N9+01001+00901101191ADDAA199000091AY141999GF107991041081012501071001KA1999N+00901MA1999999094541MW1441REMSYN01170009 95990EQDQ01+999990APOSP 
0095504680999991976011018004+50250+127450FM-12+016699999V0203201N00401220001CN0250001N9-02801-03001102561ADDAA199000091AY101999GF100991001001999999001001KA1999M-02101MD1210071+9999MW1021REMSYN005/0071
0127726240999991976101019004+43683-079633SAO  +0173YYZ  V0203301N007712200019N0400001N1+01001-00101101501ADDGD12991+0135099GF102991999999999999999999MA1101491099381MW1001OC101181REMAWY0109916/CF1 ?EQDQ01+999990APOSP Q02+999990APOA  
0051161470999991976100622004+44200+012067FM-15+0028LIPK V0209991C00001999991CY0099001N1+01301+01101999999ADDMA1102301999999REMMET005CAVOKEQDQ01+000000PRSWM2
0131031110999991976111719004+55433-005700FM-12+0013EGQJ V0201801N01081006601CN0080001N9+00901+00901102111ADDAY161999GA1011+002709079GA2041+004509079GA3061+006609059GF108991071051002501021999MD1610181+9999MW1631REMSYN01781709 84715 86622
0059725771999991976082504004+42533-110117SAO  +2079BPI  V0200401N004119999999N9999999N9+01611+00331999999ADDAA106000691AA299000091MA1102371999999EQDQ01+000002VOVAR 
0057588460999991976052709004+26483+119533FM-12+008599999V0201101N00101018001CN0450001N9+02501+02201100061ADDAY121999GF108991051081017501071999MD1610041+9999MW1031
0056160760999991976042319004+45667+009700FM-15+0241LIME V0200601N00411004501CN0050001N1+01001+00801999999ADDGA1021+002409099GA2071+004509089MA1099901999999MW1211
0095103850999991976062718004+00000+999999FM-12+999999999V0201001N00051220001CN0200001N9+03101+01301102351ADDAA199000091AY101999GF103991031021022501001001KA1999M+03301MD1710071+9999MW1031REMSYN00570033
0038601560999991976022215004+33367-007583FM-15+0200GMMN V0203601N00201999991CY0099001N1+01801+01001999999ADDMA1102301999999MW1001REMMET005CAVOK
0078104100999991976050719004+51400+006967AERO +015499999V0200801N00251220001CN0200001N9+02201+00901999999ADDAY101999GA1021+075009009GF102991999999999999999999MW1031EQDQ01+000003PRSWM2
0065723418139771976121808004+33450-094000SAO  +0122TXK  V0202101N003612200019N0320001N1+00831+00281999999ADDGD12991+0750099GF102991999999999999999999MA1102101999999MW1001
0083724915232451976071608004+36583-121850SAO  +0067MRY  V0209991C00001002401EN0160001N1+01391+01111999999ADDGD14991+0024099GF108991999999999999999999MA1101521999999MW1001REMAWY009;MRY C7/3
017272402093739197610151200A+37850-075483SY-SA+0010WAL  V0202201N003012200019N0320001N1+01111+00721101551ADDAA101000095GF100991001001999999001999KA1999M+01781KA2999N+00671MA1101521101481MD1310081+9999MW1021REMSYN01163148 46444AWY010308 46440?EQDQ01+000012SCOHCGQ02+000003PRSWM2
0096723540139191976031915004+35417-097383SAO  +0393TIK  V0201901N00921003001MN0112001N1+01441+01281100321ADDGD14991+0030099GF108991999999999999999999MA1100411999999MD1810101+9999MW1001REMAWY008810 16//
0056787410999991976061520004+12117-086183FM-15+0053MNMG V0200901N00411220001CN0112001N1+03301+02001999999ADDGA1041+009009089GA2041+009009089MA1100811999999MW1061
0082236280999991976050912004+63367+063067FM-12+005099999V0203601N00101075001CN0500001N9+01801+00901100471ADDAA199000091AY121999GF108991001001999999001021MD1710131+9999MW1021REMSYN005700//
0196726300999991976032200004+44967-079300SY-SA+0282YQA  V0203301N00921005401EN0080001N1-01201-01601101101ADDAJ100259199999999AY151999GD13991+0054099GF106991061051004501001001KA1999M+00701KA2999N-01201MA1100911097581MD1210781+9999MW1851OC101441REMSYN02969758 70048 90410 20024 40762AWY014SC8 PRESRR 278
0122999999999991976052002004-04800-143400FM-13+0000A8XK V0201401N00211220001CN0200001N9+02901+02201101121ADDAY121999GF104991041031002501001001MD1310801+9999MW1021SA1+0289UA1M040209999UG1140201409REMSYN0230//22 10280 30404 14404
0086803420999991976060221004+01400-077300FM-12+1814MCPS V0203601N00411045001CN0200001N9+02001+01701999999ADDAY121999GF106991041021008001071001MA1999999081781MD1999999-0051MW1011REMSYN00568178
0087612260999991976121600004+16267-000050FM-12+026599999V0209991C00001220001CN0150001N9+02001-00601101191ADDAY101999GA1021+075009009GF102991001001999999001021MD1999999-0141MW1021REMSYN00582075
032072429093815197606220400C+39900-084200SAO  +0303DAY  V0201305N002650487749N0096005N1+01725+01565101625ADDAA101000095GD12995+0135099GD23995+0480099GD30995+9999999GD40995+9999999GF107075999999999999999999MA1101691098045MW1455REMAWY009;DAY?5/44EQDQ01+999990APOSP N01 07000JPWTH 1QNNE11 1 00299E11 1 00499E11 1 00099E11 1 00099G11 1 00160K11 1 00060L11 1 00600M11 1 28950N11 1 07000Q11 1 10162S11 1 00063V11 1 00909X11 1 13005
011072517014737197607031900D+40650-075433SAO  +0118ABE  V0202401N007212200019N0192001N1+02721+01501101581ADDAA101000095GD12991+0135099GF102991999999999999999999MA1101591100191MW1001REMAWY006TCU NWEQDQ01+999990APOSP 
0057653610999991976120212004+08983+001133FM-12+040299999V0201401N00411220001CN0060001N9+03001+00601101141ADDAY101999GF100991001001999999001001MD1999999-0071MW1051
0085011520999991976080703504+67283+014417FM-15+0013ENBO V0201201N00201060001CN0112001N1+01001+00801999999ADDGA1011+003009079GA2031+009009059GA3061+060009009MA1101801999999EQDQ01+000000PRSWM2
0043837410999991976022213004-22933-043717FM-12+0003SBSC V0203601N00511090001CN0200001N9+03101+02101100871ADDAY121999GF107991041001999999031021MW1021
0081082820999991976052018004+00000+999999FM-12+999999999V0209991C00001220001CN0500001N9+02501+01601999999ADDAA199000091AY111999GF101991011011012501001001KA1999M+02601MW1011REMSYN00570026
0073072990999991976022510204+47600+007517FM-15+0270LFSB V0201801N00151220001CN0022001N1+01001+00201999999ADDGA1011+075009009MA1103791999999REMMET011GRADU 3000?EQDQ01+000000PRSWM2
0115107420999991976091509004+49200+009517FM-12+027699999V0200901N00151030001CN0220001N9+01401+00901100751ADDAY181999GA1031+012009059GA2041+030009039GF107991031051012501031011MD1710041+9999MW1011REMSYN01783640 84360 COTRA
0099725366148251976012114064+41017-083667SAOSP+0244FDY  V0202401N00411002401WN0016001V1+99999+99999999999ADDGD15991+0024099GF109991999999999999999999MA1100851999999MW1451MW2711REMAWY019VSBY 3/4V11/2/OVC67
045472248013957197602281500C+32467-093817SAO  +0077SHV  V0202105N003152200059N0112005N1+01505+01115101905ADDAA101000095GA1999+076204024GA2999+999999999GA3999+999999999GA4999+999999999GD14085+0750093GD20005+9999999GD30005+9999999GD40005+9999999GF108025999999999999999999MA1101931100985MD1110051+9999MW1001REMAWY021105 1007 ;SHV?2/8 2/9EQDQ01+999990APOSP N01 00000JPWTH 1QNNE11 1 00510E11 1 00000E11 1 00000E11 1 00000G11U1 99999H11 1 37250H11 1 00999H11 1 00999H11 1 00999K11 1 00052L11 1 00700M11 1 29820N11 1 00000Q11 1 10190S11 1 00059V11 1 01003X11 1 21006
0025165380999991976100508504+40117+009250FM-15+1022LIEN V0202701N00561002401CN0080001N1+99999+99999999999ADDGA1081+002409059MW1101
0068074810999991976101508304+45733+005083FM-15+0248LFLL V0202401N00361220001CN0112001N1+01001+00301999999ADDGA1021+015009059MA1101021999999REMMET006NOSIG?EQDQ01+000000PRSWM2
0055165420999991976040604504+39500+009617FM-15+0021LIEL V0209991C00001220001CN0112001N1+99999+99999999999ADDGA1021+006009059REMMET008MON LIB?EQDQ01+000000PRSWM2
0093722135138701976123000004+31533-082517SAO  +0063AMG  V0202901N004112200019N0160001N1+01111-00551101291ADDGF100991999999999999999999KA1999M+01441MA1101321999999MD1210251+9999MW1001REMAWY007225 58?
0057129700999991976041021004+46900+019750FM-12+011699999V0200401N00801036001CN0100001N9+00601-00201101471ADDAY121999GF106991051001999999071021MD1710111+9999MW1021
0121728660999991976090212154+52167-106683SAOSP+0500YXE  V0202001N008210300019N0240001N1+99999+99999999999ADDGD12991+0120099GD23991+0300099GF107991999999999999999999MW1951REMAWY047CB4AC5 LTNG ALL TYPES ALL          ?     QUADS?
0116741210999991976102911004+53667-113467SAO  +0688YED  V0203001N004110240019N0240001N1+00201-00601101731ADDGD12991+0135099GD23991+0240099GF107991999999999999999999MA1101521093381MW1001REMAWY008SC5AC3 ?EQDQ01+999990APOSP 
0095382620999991976072315004+42950+059783FM-12+006699999V0203601N00401220001CN0200001N9+02901+01001101111ADDAA199000091AY111999GF100991001001999999001001KA1999M+03201MD1710021+9999MW1011REMSYN00570032
0319726185146051976051721003+44317-069800SAO  +0108AUG  V0201705N00415001524MN0048005N1+01445+01335100965ADDGD14995+0015099GD20995+9999999GD30995+9999999GD40995+9999999GF108085999999999999999999MA1100951099665MD1710191+9999MW1455REMAWY021UA OVC 23 719;AUG?4/6EQDN01 07000JPWTH 1QNNE11 1 00699E11 1 00099E11 1 00099E11 1 00099G11 1 00005K11 1 00056L11 1 00300M11 1 29430N11 1 07000Q11 1 10096S11 1 00058V11 1 01010X11 1 17008
0085477710999991976060609304+34783+135450FM-15+0015RJOO V0203501N00301090001CN0112001N1+02001+01101999999ADDGA1011+009009089GA2061+999999009MA1101021999999REMMET0072985?5?EQDQ01+000000PRSWM2
0064724035137731976092302004+38500-077300SAO  +0004NYG  V0202801N001012200019N0112001N1+01171-00101101691ADDGF100991999999999999999999MA1101631999999MW1001REMAWY005LAST?
0137471070999991976092706004+37750+128950FM-15+0006RKNN V0200501N003010540019N0112001N1+02101+01601999999ADDGA1011+004509079GA2041+007509089GA3051+054009029MA1101831999999REMMET043CIG180/6RA31/          ?     QFF1018PT6/NC?EQDQ01+000000PRSWM2
0229727480999991976031800004+48750-091617SY-SA+0391YIB  V0201801N002010240019N0112001N1-00501-00801100811ADDAA106000291AJ100769199999999AY121999GD13991+0075093GD24991+0240099GF108991051051008001021999KA1999M-00401KA2999N-03201MA1100411095821MD1610121+9999MW1711REMSYN02969582 70158 90430 20001 45482AWY010SC3AS7 612EQDQ01  00023PRCP99
0080726200999991976062012364+44217-076600SAOSP+0093YGK  V0203501N005110270019N0192001N1+99999+99999999999ADDGD12991+0060099GD24991+0270099GF108991999999999999999999MW1611REMAWY006SC2AS8
029872417013729197609082100C+38883-079850SAO  +0594EKN  V0203405N002652200059N0192005N1+02785+01615102385ADDAA101000095GD10995+9999999GD20995+9999999GD30995+9999999GF100005999999999999999999MA1102401095235MD1710171+9999MW1001REMAWY004717?EQDN01 00000JPWTH 1QNNE11 1 00099E11 1 00099E11 1 00099E11 1 00099G11U1 99999K11 1 00061L11 1 01200M11 1 28120N11 1 00000Q11 1 10238S11 1 00082V11 1 00000X11 1 34005
0095306270999991976021712004+53100+105533FM-12+076199999V0209991C00001220001CN0200001N9-02201-02401104101ADDAA199000091AY111999GF100991001001999999001001KA1999M-01701MD1710091+9999MW1011REMSYN00570067
0108723290038491976081618004+37083-084083SAO  +0366LOZ  V0203601N00301007501EN0112001N1+02671+02001102101ADDGD13991+0075099GF107991999999999999999999KA1999N+01881MA1102201999999MD1010001+9999MW1001REMAWY007000 66?
0093032080999991976112209004+54417-004367FM-12+000999999V0203401N00671220001CN0400001N9+00701+00101103021ADDAY111999GA1031+008409059GF103991031051008001001001MD1210051+9999MW1011REMSYN01183628 94000
0065724837932161976082122004+39117-121433SAO  +0034BAB  V0201901N003012200019N0160001N1+02941+01671999999ADDGD12991+0750099GF102991999999999999999999MA1101051999999MW1001
0065727435999991976031519004+46350-087400SAO  +0375SAW  V0202001N006612200019N0320001N1-00431-01491999999ADDGD14991+0750093GF108991999999999999999999MA1101631999999MW1001
0069080250999991976011414004+43300-002933FM-15+0040LEBB V0209991C00001010501CN0040001N1+00901+00501999999ADDGA1071+010509059MA1103011999999MW1041REMMET020VIS TO E 5 KM NOSIG?
0057597580999991976071400004+20033+110350FM-12+001899999V0201801N00501220001CN0200001N9+02701+02501101101ADDAY101999GF101991011021008001001021MD1310151+9999MW1011
0065700637274061976011908004+70200-148467SAO  +0015SCC  V0200401N00511007501EN0112001N1+99999+99999999999ADDGD13991+0075099GF107991999999999999999999MA1102241999999MW1711
0051804100999991976010714004+10050-069367FM-15+0622MVBM V0200701N00511999991CY0099001N1+02201+01601999999ADDMA1101691999999REMMET005CAVOKEQDQ01+000000PRSWM2
0116541020999991976082418004+43950+116067FM-12+099199999V0209991C00001220001CN0400001N9+01101+00601101721ADDAA199000091AY101999GF100991001001999999001001KA1999M+02501MA1999999090641MD1210061+9999MW1021REMSYN01169064 /0025
0043825620999991976111714004-05350-049150FM-12+0090SBMA V0209991C00001004201CN0080001N9+02301+99999101321ADDAY151999GF108991081061004501999999MW1511
0071165600999991976081506504+39250+009050FM-15+0004LIEE V0202001N00201024001CN0060001N1+02401+02001999999ADDGA1021+009009059GA2041+024009039MA1101491999999MW1101REMMET006NOSIG?
0117726395148081976012009004+44450-083400SAO  +0193OSC  V0202501N00301004501MN0112001N1-00211-00431101451ADDGD13991+0045099GD24991+0060099GF108991999999999999999999MA1101321999999MD1110071+9999MW1711REMAWY014107 172/ LSR12
0043827980999991976082121004-07150-034967FM-12+0028SBJP V0201501N00311220001CN0200001N9+02501+02001101511ADDAY121999GF101991011011008001001001MW1021
0095386870999991976041618004+39083+063600FM-12+019399999V0201801N00401036001CN0100001N9+01701+00901101511ADDAA199000091AY111999GF107991071001999999081001KA1999M+02301MD1710141+9999MW1031REMSYN00570023
028672637014826197607301900C+42967-083750SAO  +0235FNT  V0202605N004652200059N0112005N1+02785+01675101265ADDAA101000095GD12995+0120099GD24995+0750093GD30995+9999999GD40995+9999999GF108035999999999999999999MA1101291098515MW1001EQDN01 00000JPWTH 1QNNE11 1 00299E11 1 00599E11 1 00099E11 1 00099G11U1 99999K11 1 00062L11 1 00700M11 1 29090N11 1 00000Q11 1 10126S11 1 00082V11 1 01004X11 1 26009
010672679724132197601261400D+45783-111150SAO  +1360BZN  V0209991C000012200019N0240001N1-01381-01771102861ADDAA101000095GD12991+0150099GD23991+0300093GD33991+0750093GF107991999999999999999999MA1101961999999MW1001
0053074800999991976102210004+45733+004950FM-15+0200LFLY V0200201N00101220001CN0060001N1+01001+00701999999ADDGA1021+069009009MA1102101999999EQDQ01+000000PRSWM2
0158235030999991976051806004+65017+053917FM-12+003899999V0200201N00501007201CN0500001N9+00001-00301102911ADDAA199000091AJ100009199999999AY121999GA1051+007209059GF107991071091008001001001IA1189IA2999-00109KA1999N-00101MD1210111+9999MW1021REMSYN01770051 85624 25150
0072802190999991976062209004+04283-074800FM-12+0286MCGI V0209991C00001045001CN0200001N9+02301+02201101061ADDAY121999GF106991011021012501051001MA1999999097801MW1021REMSYN00569780
0113999999999991976090512004+70300-098200FM-13+0000CGBN V0201101N01131024001CN0500001N9+00111-00101101251ADDAY121999GF106991061001999999071001MD1510011+9999MW1011REMSYN0470//51 1///1 ICE   26000 15408 00070 42007 901//
0076308660999991976103003004+51567+116667FM-12+067199999V0209991C00001220001CN0200001N9-02301-02701103231ADDAY101999GF104991001001999999001021MD1810311+9999MW1021EQDQ01+000822APC3  
0091722506129591976031503004+26183-098233SAO  +0033MFE  V0200901N00251005401EN0064001N1+01391+01061101751ADDGD14991+0054099GF108991999999999999999999MA1101761999999MD1110101+9999MW1451REMAWY003110
0057107640999991976042707004+49383-011183FM-15+0386EDIG V0202101N00101000901CN0001001N1+00101-00101999999ADDGA1091+000909999MA1101521999999MW1431REMMET008CIGW003?
029472270023044197609252000C+31800-106400SAO  +1194ELP  V0202405N00625010064MN0640005N1+02565+01445100955ADDAA101000095GD13995+0099099GD23995+0750099GD30995+9999999GD40995+9999999GF106055999999999999999999MA1101561088015MW1001OC101021EQDN01 00000JPWTH 1QNNE11 1 00499E11 1 00499E11 1 00099E11 1 00099G11 1 00033K11 1 00058L11 1 04000M11 1 25990N11 1 00000Q11 1 10095S11 1 00078V11 1 00706X11 1 24012
0156804380999991976073000004+08600-071183FM-12+1479MVMD V0200401N00151030001CN0100001N9+02001+01701999999ADDAA106999929AA299000291AY151999GA1031+004809059GA2081+030009049GF108991031051004501011999KA1999M+02401MD1999999+0041MW1021REMSYN02379224 83616 88460 9999/
0179846280999991976072600004-12017-077117FM-12+0013SPIM V0201501N00511009001CN0120001N9+01801+01501101121ADDAA199000091AY121999GA1081+009009059GF108991081051008001999999KA1999M+02101MA1101081100961MD1999999-0041MW1021REMSYN03963096 70021 88630 990// NIEB  SOB   MAREQDQ01+999990APOA  
0106039530999991976101601004+51933-010250FM-12+000999999V0203401N00211220001CN0400001N9+01001+00501100661ADDAY101999GA1031+006909099GF103991031081008001001001MD1810041+9999MW1021UA1M990099999REMSYN01183923 91838
0057308490999991976041003004+51050+111767FM-12+084199999V0202301N00201220001CN0500001N9+00701-01101102231ADDAY101999GF102991001001999999001011MD1810081+9999MW1031
0098728710999991976112620004+53350-110833SAO  +0034YVG  V0203401N007212200019N0240001N1-01601-02001103581ADDGD12991+0090099GF102991999999999999999999MA1102951095601MW1001REMAWY005SC1 ?EQDQ01+999990APOSP 
0058110360999991976052005504+48117+016567FM-15+0183LOWW V0200501N00101999991CY0099001N1+01401+01201999999ADDMA1101021999999REMMET012CAVOK NOSIG?EQDQ01+000000PRSWM2
0078871200999991976061901004-26833-065200FM-12+0422SANT V0200501N00051220001CN0050001N9+01101+00801101141ADDAY101999GF100991001001999999001001MD1210131+9999MW1041REMSYN012962.2 1011.8
0123109480999991976100406004+47400+010283FM-12+081099999V0209991C00001012001CN0600001N9+00801+00701999999ADDAA199000391AY121999GA1051+012009059GF105991051051012501001001KA1999N+00601MD1710071+9999MW1401REMSYN01779306 85640 99846
0095315270999991976112412004+50117+129467FM-12+024299999V0209991C00001220001CN0500001N9-02001-02201102361ADDAA199000091AY111999GF100991001001999999001001KA1999M-01301MD1210131+9999MW1021REMSYN00570063
0065726587999991976110215554+43650-095583SAOSP+0480OTG  V0203101N011312200019N0112001N1+00781-00661999999ADDGD12991+0750093GF102991999999999999999999MA1102571999999MW1001
0057471680999991976020809004+34733+127733FM-12+006799999V0202701N00261220001CN0350001N9+00701-00401102631ADDAY101999GF100991001001999999001001MD1310131+9999MW1021
0057238670999991976112021004+61100+080267FM-12+005599999V0202301N00501004201CN0027001N9-00801-00901101331ADDAY171999GF108991081061004501999999MD1710131+9999MW1711
0087032040999991976102023004+54083-004633FM-12+0017EGNS V0202001N00981220001CN0250001N9+01101+00701100431ADDAY101999GA1011+005409089GF103991021081004501001021MD1610141+9999MW1031REMSYN00581818
0139603900999991976082609004+36717+003250SY-MT+0023DAAG V0203601N00201220001CN0112001N1+02701+01901101611ADDAY101999GA1021+009909089GF103991021021012501081021MA1101591999999MD1110061+9999MW1031REMSYN01182833 95400MET006NOSIG?EQDQ01+000000PRSWM2
0109653440999991976053009004+06350+002383FM-12+0005DDDD V0200401N00101039001CN0200001N9+02701+02201101261ADDAY121999GA1011+003909059GA2041+039009039GF107991011081004501071021MD1999999-0131MW1031REMSYN01181613 84363
0129084950999991976122115004+36150-005350SY-MT+0005LXGB V0202601N00921220001CN0112001N1+01501+00901101491ADDAY101999GA1011+007509089GA2031+069009009GF103991011011008001041021MA1101391999999MW1031REMSYN01181825 83073EQDQ01+000000PRSWM2
0058110360999991976062520204+48117+016567FM-15+0183LOWW V0200101N00101999991CY0099001N1+02201+01101999999ADDMA1102401999999REMMET012CAVOK NOSIG?EQDQ01+000000PRSWM2
0071076500999991976013023004+43450+005217FM-15+0020LFML V0200801N01441024001CN0112001N1+00601+00401999999ADDGA1041+006009059GA2081+024009039MA1099491999999MW1291REMMET006NOSIG?
0049728916999991976033011004+51150-121500SAO  +1055WCL  V0201501N002519999999N9999999N9+03501+02401999999ADDMA1101051999999REMAWY003MMMEQDQ01+000002VOVAR 
0098722866231221976092210004+34100-117233SAO  +0352KSBD V0209991C000012200019N0024001N1+01501+01171999999ADDGD16991+0001599GF110991999999999999999999MA1101321999999MW1051MW2111REMAWY018RVR50 FH3 VSBY E1?
0079035623999991976052121004+52367-000217FM-15+0049EGWZ V0202301N004110300019N0112001N1+01301+00601999999ADDGA1041+015009059GA2071+030009039MA1101831999999MW1001REMMET014CIG100?INS/UU?
028770261026411197602120400C+64817-147867SAO  +0139FAI  V02099959000052200059N0112005N1-03505-03565101715ADDAA101000095GD10995+9999999GD20995+9999999GD30995+9999999GF100005999999999999999999MA1101491099835MW1001EQDQ01+999990APOSP N01 00000JPWTH 1QNNE11 1 00099E11 1 00099E11 1 00099E11 1 00099G11U1 99999K11 1-00032L11 1 00700M11 1 29480N11 1 00000Q11 1 10171S11 1-00031V11 1 00000X11 1 00000
0082154900999991976042112004+43767+024867FM-12+003199999V0200901N00101220001CN0100001N9+02101+00601100931ADDAA199000091AY111999GF102991011011012501071001MD1710171+9999MW1031REMSYN005700//
0078038370999991976050917004+50400-003483AERO +006099999V0200101N00721015001CN0240001N9+99999+99999999999ADDAY111999GA1051+015009049GF105991999999999999999999MW1021EQDQ01+000003PRSWM2
0053020870999991976022819204+57767+014083FM-15+0226ESSJ V0202401N00721015001CN0080001N1+00401+00301999999ADDGA1051+015009059MA1102201999999EQDQ01+000000PRSWM2
0123466920999991976111909004+25033+121517FM-12+000899999V0200701N00311009001CN0040001N9+02101+01801101641ADDAA199003091AY121999GA1061+009009059GF107991061051008001031001KA1999M+02201MD1510031+9999MW1101REMSYN01770322 86630 00003
0057354970999991976022009004+48867+072833FM-12+065699999V0202301N00701036001CN0040001N9-01401-01701103911ADDAY171999GF108991081001999999011999MD1710011+9999MW1711
0068131310999991976100423004+45733+016067FM-15+0106LYZA V0209991C00001012901CN0112001N1+01301+01201999999ADDGA1071+012909059MA1101191999999REMMET006NOSIG?EQDQ01+000000PRSWM2
009572412003872197609010400D+37783-081117SAO  +0766BKW  V0201501N004112200019N0192001N1+01611+00891102141ADDAA101000095GD12991+0750093GF102991999999999999999999MA1102341093391MW1001EQDQ01+999990APOSP 
0067474250999991976050420004+42800+141650FM-15+0025RJCC V0201801N00461001201CN0050001N1+00501+00501999999ADDGA1081+001209079MA1100411999999MW1201REMMET0182966 CLD BASE VRB?
0073259120999991976062803004+59917+150717FM-12+025499999V0202001N00301000301CN0005001N9+00801+00701102741ADDAY141999GA1091+999999999GF109991091999999999999999MD1710091+9999MW1471
010372360123007197610020900D+34433-100283SAO  +0595CDS  V0202601N003012200019N0160001N1+01831+01111101301ADDAA101000095GD12991+0750093GF102991999999999999999999MA1101521999999MD1610031+9999MW1001REMAWY004603?
0117915740999991976091121004-19967+158517FM-12+000399999V0209999999999220001CN0001001N9+00001+00001102021ADDAA199999999AY101999GF103991031091999999999999MD1110502+9999MW1611REMSYN0057000/EQDQ01+000502APC3  Q02  00002PRCP99
0084851410999991976082712004-14467-067583FM-12+0274SLRQ V0209991C00001220001CN0050001N9+02001+01601098781ADDAY121999GF100991001001999999001001KA1999N+01401MD1210121+9999MW1041REMSYN00570014
0057299460999991976012521004+52867+087283FM-12+035499999V0209991C00001220001CN0500001N9-01101-01101103381ADDAY101999GF102991021051008001001021MD1210031+9999MW1021
0114888900999991976110518004-51700-057867FM-12+005199999V0200901N01181002101CN0100001N9+00501+00401101141ADDAA106001091AY121999GF108991081061002501999999KA1999N-02001MD1710031+9999MW1051REMSYN00570170EQDQ01  00103PRCP99
0102477370999991976112103004+34067+139567FM-15+0020RJTQ V0203101N00461030001CN0112001N1+01501+00701999999ADDGA1031+010509089GA2081+030009049MA1101291999999REMMET0242991 WIND DIRECTION VRB?EQDQ01+000000PRSWM2
0050722345038661976022804004+32550-088567SAO  +0097NMM  V0209991C000012200019N0112001N1+00671+00221102171ADDGF100991999999999999999999MA1102131999999MW1001
0126702980264451976010903004+60083-142500SAO  +0004CYT  V0200301N00151015001EN0128001N1-00431-01271999999ADDGD14991+0150099GF108991999999999999999999MA1099931999999MD1710171+9999MW1711REMAWY038717        ?     MXY         ?     SSR
0057040050999991976020715004+66167-023567FM-12+002099999V0201401N01241030001CN0200001N9+00601+00101098231ADDAY121999GF107991041031008001041999MD1310041+9999MW1601
008072250012919197604091000D+25900-097433SAO  +0006BRO  V0202801N002012200019N0096001N1+01611+01501101621ADDAA101000095GF100991999999999999999999MA1101631101541MW1451EQDQ01+999990APOSP 
0113161190999991976032103004+44633+008933SY-MT+0468LIMV V0203301N00301000151CN0002001N1+00401+00201101541ADDAY141999GA1091+000159999GF109991091999999999999999MD1110011+9999MW1451REMSYN00589/00MET020MON INVIS VAL INVIS?
0147563740999991976040206004+30083+102033FM-12+261799999V0200901N01201021001CN0450001N9+00501-00101999999ADDAA106999929AY181999GF107991061091022501041999KA1999N-00101MA1999999074081MD1710311+0041MW1251REMSYN02367408 /9751 99718 00402EQDQ01  99993PRCP99
0062345100999991976080521004+48600+037983FM-12+013799999V0209991C00001220001CN0170001N9+01801+99999101741ADDAY101999GF100991001001999999001001MW1021EQDQ01+000082SCOHCG
0130330080999991976080306004+52117+023683FM-12+014499999V0202301N00101007501CN0039001N9+01001+00901101811ADDAA199001091AJ100009199999999AY181999GF108991081051008001999999IA1089KA1999N+00801MD1710021+9999MW1101REMSYN01770108 99600 2//10
032572640014839197607151100C+42950-087900SAO  +0205MKE  V0202805N001552200059N0240005N1+02115+01895101185ADDAA101000095GD10995+9999999GD20995+9999999GD30995+9999999GF100005999999999999999999MA1101221098715REMAWY051FEW AC AND CI;MKE?6/22 6/62 7/5 7/6      ?     7/18EQDN01 00000JPWTH 1QNNE11 1 00099E11 1 00099E11 1 00099E11 1 00099G11U1 99999K11 1 00066L11 1 01500M11 1 29150N11 1 00000Q11 1 10118S11 1 00070V11 1 00000X11 1 28003
0072722275999991976022301004+34350-085167SAO  +0196RMG  V0203001N002519999999N0640001N1-00382+99999999999ADDAA106008091MA1102271999999MW1001REMAWY009RNOVV9.0/EQDQ01  00803PRCP99
0037163120999991976080919004+40767+016933FM-15+0345LIBV V0201801N00301220001CN0070001N1+02101+01501999999ADDMA1102001999999EQDQ01+000000PRSWM2
0115225730999991976112312004+64900+045767FM-12+006699999V0202301N00201004201CN0450001N9-00401-00601099681ADDAA106000691AA299999929AY181999GA1081+004209099GF108991081091004501999999MD1210111+9999MW1261REMSYN011797// 88914
0043834370999991976111310004-16733-043867FM-12+064799999V0209991C00001007501CN0080001N9+02101+02001101611ADDAY141999GF108991061051008001021999MW1101
0114728670999991976080908004+53967-101100SAO  +0270YQD  V0209991C000010750019N0240001N1+01601+01501100831ADDGD12991+0360093GD24991+0750099GF108991999999999999999999MA1100811097591MW1001REMAWY006AC3CI3EQDQ01+999990APOSP 
0075478530999991976052902004+33833+130950FM-15+0003RJFR V0201001N00771001501CN0050001N1+02001+02001999999ADDGA1061+001509079GA2081+009009049MA1100201999999MW1631REMMET0102962 MIST?
0069488660999991976122512004+13983+108000FM-12+080099999V0202301N00051220001CN0200001N9+02301+02001999999ADDAY121999GF101991011051012501001001MD1210191+9999MW1031REMSYN003701
0145076070999991976012912004+43917-000500FM-12+0062LFBM V0202001N00511033001CN0200001N9+00801+00301100301ADDAA106999929AY161999GA1011+006009089GA2071+033009049GF107991021081008001021999MD1810061+9999MW1601REMSYN017797// 81820 87461EQDQ01  99993PRCP99
0092442770999991976052203004+46400+096250FM-12+214799999V0203201N00701036001CN0500001N9+01301-00601099501ADDAY121999GF106991051001999999041021MD1710251+9999MW1021EQDQ01+000012APCTENQ02+000002APC3  
009894175099999197612070500N-10580+142220AUST +0061     V0209999C000059999999N999999999+03005+02505999999ADDGA1025+003905085GA2015+999999045GA3065+999999999GF106995024025003905035085MA1999999099955MW1025
0050722448139721976122101004+32367-095400SAO  +0166TYR  V0203401N005112200019N0192001N1+00281-01051999999ADDGF100991999999999999999999MA1102811999999MW1001
0153787110999991976041712004+15217-083783FM-12+0013MHPL V0209991C00001007501CN0200001N9+02201+02201100851ADDAA199000091AY141999GA1021+006009089GA2041+007509059GF107991061021008001061001MA1999999100541MD1999999-0141MW1111REMSYN02963054 70000 82820 84625 91904
0060467500999991976030520004+22667+120450FM-15+0024RCDC V0209991C00001999991CY0099001N1+01601+01501999999ADDMA1101801999999REMMET014CAVOK 3007INS?EQDQ01+000000PRSWM2
0052160660999991976050507004+45617+008733FM-15+0234LIMC V0209991C00001220001CN0050001N1+01501+00901999999ADDMA1101801999999REMMET006NOSIG?EQDQ01+000000PRSWM2
0060727570999991976120912004+48117-098867SAO  +0450P11  V0201901N006619999999N9999999N9-01881-02431999999ADDMA1100031999999REMAWY014PK WND 21 001?EQDQ01+000002VOVAR 
0053845010999991976052101004-08083-079117FM-15+0026SPRU V0201501N00511006001CN0112001N1+02101+01801999999ADDGA1081+006009059MA1101291999999EQDQ01+000000PRSWM2
028272258013960197602080800C+32850-096850SAO  +0159DAL  V0201405N003652200059N0320005N1+00225-00615999999ADDAA101000095GD10995+9999999GD20995+9999999GD30995+9999999GF100005999999999999999999MA1102171999999MW1001REMAWY024;DAL?12/28 1/20 1/21 2/7EQDN01 00000JPWTH 1QNNE11 1 00099E11 1 00099E11 1 00099E11 1 00099G11U1 99999K11 1 00021L11 1 02000N11 1 00000S11 1 00036V11 1 00000X11 1 14007
0025160700999991976101504004+45950+009383FM-16+2403LIMD V0201901N00201000151CN0000001N1+99999+99999999999ADDGA1091+000159999MW1451
0124729430999991976101314004+56233-120733SAO  +0695YXJ  V0202501N008210750019N0640001N1+00801+00301100541ADDGD12991+0300099GD23991+0750099GF107991999999999999999999MA1100371092371MW1001OC101231REMAWY008AC4CS3 ?EQDQ01+999990APOSP 
0109032040999991976072208004+54083-004633FM-12+0017EGNS V0202801N00311013501CN0600001N9+01401+01001102631ADDAY121999GA1021+005409089GA2071+013509059GF107991071081004501999999MD1310051+9999MW1011REMSYN01182818 87645
0094477390999991976010106004+36183+133317FM-15+0091RJNO V0202301N00771009001CN0112001N1+01201+00501999999ADDGA1061+009009089MA1101391999999OC101331REMMET0242997 WIND DIRECTION VRB?EQDQ01+000000PRSWM2
0174740710999991976042206004+68650-101733SY-SA+0018YUQ  V0203201N00621009001EN0160001N1-00901-01101101751ADDAY121999GD14991+0090099GF108991081061008001999999KA1999M-00601KA2999N-01401MA1101691101261MD1210121+9999MW1021REMSYN01163126 45664AWY016ST10 212 -472//-EQDQ01+000003PRSWM2
0084612500999991976040806004+15900+002433FM-12+0278GAMK V0209991C00001220001CN0200001N9+02601-00101100991ADDAY101999GF100991001001999999001001KA1999N+02501MD1999999-0061MW1021REMSYN00570025
0084111200999991976031611504+47267+011350FM-15+0581LOWI V0209991C00001220001CN0060001N1+01001+00201999999ADDGA1011+008409089GA2031+015009089MA1100711999999REMMET006NOSIG?EQDQ01+000000PRSWM2
0076166220999991976081109004+40517+022967FM-12+0008LGTS V0202901N005119999999N0100001N9+02401+01601101661ADDAY101999GF100991001001999999001001MD1710141+9999MW1021EQDQ01+000062SCOTCV
0081801100999991976012910004+06217-075600FM-15+1498MCMD V0209991C00001007501CN0112001N1+01701+99999999999ADDGA1061+007509079GA2061+021009049MA1101801999999REMMET003HZ?EQDQ01+000000PRSWM2
0301727676240131976011703003+48267-101283SAO  +0527MOT  V0202005N003650762049N0480005N1-00785-01065102485ADDGD12995+0300099GD23995+0750099GD30995+9999999GD40995+9999999GF107045999999999999999999MA1102101095945MD1610101+9999MW1001REMAWY003610EQDN01 00000JPWTH 1QNNE11 1 00299E11 1 00499E11 1 00099E11 1 00099G11 1 00250K11 1 00013L11 1 03000M11 1 28330N11 1 00000Q11 1 10248S11 1 00018V11 1 00905X11 1 20007
0113703950253251976090614004+55350-131700SAOSP+0028KTN  V0201801N002510075019N0160001N1+00941+00891999999ADDGD12991+0018099GD23991+0075099GD34991+0120099GF108991999999999999999999MA1101691999999MW1801REMAWY009;KTN?8/7?
0043837750999991976082710004-24083-054250FM-12+0231SBGR V0209991C00001220001CN0050001N9+99999+99999101621ADDAY141999GF101991001001999999001011MW1101
0159702070266271976102815004+63883-160800SAOSP+0006UNK  V0201601N00151007501EN0160001N1-01211-01551100271ADDAA106000291GD14991+0075099GF108991999051999999999999MA1100271100201MD1610031+9999MW1001REMAWY02510SC INTMT S- 60301 15//?EQDQ01+999990APOSP Q02  00023PRCP99
0043999999999991976100718004+31000-067100FM-13+0000GSHF V0201301N00931220001CN0200001N9+03301+99999999999ADDAY101999GF102991999999999999999999MW1011
0025161300999991976111016004+44817+010283FM-15+0051LIMP V0201001N00771003001CN0007001N1+01201+01101999999ADDGA1081+003009079MW1601
0087031770999991976042004004+56433-002400FM-12+002199999V0201401N00511220001CN0200001N9+00601+00401103001ADDAY101999GA1021+004509059GF102991021051004501001001MD1010001+9999MW1021REMSYN00582694
0101865000999991976061909004-33183-054350FM-12+0056SUTR V0209991C00001220001CN0100001N9+00901+00901101471ADDAA199000091AY101999GF102991999001999999071001MD1310131+9999MW1021REMSYN005700//EQDQ01+000002SCOTLC
0050035953999991976062222004+52083-001400FM-15+0029EGVG V0201501N00101220001CN0112001N1+01601+01301999999ADDGA1011+060009009MA1102201999999REMMET007WPP UU?
0117728360999991976091221004+51267-080650SAO  +0009YMO  V0200701N00361060001EN0240001N1+01201+00801101461ADDGD14991+0600099GF108991999999999999999999MA1101461101461MW1001REMAWY024CI7 CC ASOCTD  PRESFR  ?EQDQ01+999990APOSP 
0086507270999991976061003004+47167+119950FM-12+102899999V0203401N00501007501CN0300001N9+01301+00801100291ADDAY161999GF107991071021008001001001MA1999999088701MD1210031+9999MW1031REMSYN00568870
0097703500255011976052210004+57750-152517SAO  +0034ADQ  V0203101N00251006301MN0112001N1+00441+00111101451ADDGD14991+0063099GF108991999999999999999999MA1101421101001MW1001REMAWY00410SCEQDQ01+999990APOSP 
0071165420999991976010807504+39500+009617FM-15+0021LIEL V0209991C00001220001CN0112001N1+99999+99999999999ADDGA1011+003009089GA2031+007509059REMMET008MON LIB?EQDQ01+000000PRSWM2
0126765905999991976053021004+21033-086883SAO  +0005CUN  V0201801N005112200019N0240001N1+03001+02601999999ADDAA106001091GD12991+0045099GF102991999999999999999999MW1001REMAWY00520004EQDQ01+000022APCTENQ02+000002APC3  Q03  00103PRCP99
0159030660999991976051212004+57650-003567FM-12+0008EGQK V0203101N00571007201CN0300001N9+00801+00601099601ADDAA106999929AA299000291AY121999GA1021+006009099GA2041+007209089GA3061+012009059GF107991071031008001999061MD1310081+9999MW1801REMSYN023792// 82920 84824 86640
0108999999999991976040118004-45300+161400FM-13+0000GHRH V0203201N00511007501CN0200001N9+01561+00001102201ADDAY111999GF108991081011008001001001MW1031SA1+1509UA1M050059999UG1140152309REMSYN0230//50 11506 30501 23403
0068161490999991976070809504+44017+012633FM-15+0012LIPR V0200101N00511220001CN0060001N1+02401+01701999999ADDGA1031+007509089MA1101021999999REMMET006NOSIG?EQDQ01+000000PRSWM2
0095544710999991976101806004+40667+122200FM-12+000499999V0202201N00701220001CN0150001N9+02201+01301101151ADDAA199000091AY111999GF102991011021008001001021KA1999N+01201MD1710151+9999MW1031REMSYN005/0012
0095317070999991976051509004+47733+130967FM-12+007499999V0203401N00601036001CN0750001N9+00601+00101100161ADDAA199000091AY121999GF108991081001999999071999KA1999M+01301MD1310041+9999MW1021REMSYN00570013
0109033600999991976070916004+53483-001000FM-12+0017EGXI V0202001N00621018001CN0300001N9+02501+01501100781ADDAY121999GA1031+012009089GA2061+018009059GF106991061081012501999999MD1210011+9999MW1031REMSYN01183840 86656
0056483315999991976030201004+18767+100767FM-15+0200VTNN V0209991C00001220001CN0080001N1+01801+01801999999ADDGA1011+000159999GA2021+090009009MA1101251999999MW1051
0079036490999991976091511004+51750-001583FM-12+0087EGVN V0200101N00821005401CN0140001N9+01101+00701101031ADDAY121999GA1051+005409059GF108991081051004501999999MW1021REMSYN01185618 99650
0057599970999991976082421004+10717+115817FM-12+000599999V0209991C00001220001CN0050001N9+02501+02501100801ADDAY101999GF100991001001999999001001MD1710081+9999MW1021
0122999999999991976020312004+36200+141000FM-13+0000GTXL V0202101N00361220001CN0200001N9+01161+00701101331ADDAY101999GF100991001001999999001001MD1110021+9999MW1001SA1+1269UA1M010059999UG1060059999REMSYN0230//07 11266 30101 99601
0095700635999991976051722004+68483-149483SAO  +0811GBH  V0203301N004110084019N0160001N1+00221-00051999999ADDGD12991+0060099GD23991+0084099GF107991999999999999999999MA1100851999999MW1001REMAWY006BINOVC
0117071190999991976111806004+48233-003333FM-12+026899999V0202401N00211000601CN0006001N9+00801+00801102741ADDAA199000291AY151999GA1081+000609079GF108991081061000751999999KA1999N+00801MD1610051+9999MW1421REMSYN01179208 88702
0057582030999991976090815004+32900+115800FM-12+003299999V0200401N001019999999N0200001N9+01701+01701101321ADDAY121999GF107991001001999999041999MD1210061+9999MW1031
0115729570999991976122023004+68300-133483SAO  +0068YEV  V0209991C000012200019N0480001N1-03101-03701102061ADDGD12991+0210099GD22991+0600093GF102991999999999999999999MA1101961101231MW1001REMAWY007AC2CI ?EQDQ01+999990APOSP 
0119314890999991976022300004+51200+136683FM-12+007999999V0203201N00101075001CN0500001N9-01901-02201102011ADDAA199000091AY111999GF108991001001999999001071IA1319IA2999-02909KA1999N-02601MD1210061+9999MW1021REMSYN01170076 27996
0148916800999991976011218004-17750+177450FM-12+0019NFFN V0200801N00511015001CN0200001N9+02601+02201100561ADDAA199000091AY121999GA1021+008409089GA2031+015009059GA3071+036009049GF107991041081008001071999MD1310081+9999MW1021REMSYN02370019 82828 83650 87462
0145400870999991976081706004+33483+038667FM-12+070799999V0203201N00621220001CN0200001N9+02301+00301100601ADDAA199000091AJ100009199999999AY101999GF100991001001999999001001IA1009KA1999N+01701MA1999999092951MD1310111+9999MW1021REMSYN01769295 2//00 70017
0080723676230481976090802004+35183-103600SAO  +1238TCC  V0201801N003612200019N0320001N1+02331+01501101061ADDGD12991+0210099GD22991+0750093GF102991999999999999999999MA1101591999999MW1001
0180762550999991976013112004+27917-110883FM-12+000499999V0209991C00001220001CN0200001N9+01801+99999101671ADDAA199000091AY101999GF100991001001999999001001MA1999999101671MD1999999-0181MW1061UA1M990019999REMSYN07563167 70000 90801 91900 2///0 3///0 42618 5//// LLUVIA24    HRS   ANT   0.0
0087033180999991976011103004+53767-003033FM-12+0010EGNH V0202701N01031002101CN0070001N9+00901+00901102051ADDAY151999GA1081+002109079GF108991081071002501999999MD1110191+9999MW1511REMSYN00588707
0097332970999991976050709004+50100+025150FM-12+022799999V0203601N00201012001CN0250001N9+01601+00101101891ADDAY111999GF106991061091012501001001MD1710251+9999MW1031REMSYN031322.8 IEWLT SHPL  QUIQQ TETPU H
0060064510999991976010512204+50900+004467FM-15+0055EBBR V0202401N00821001501CN0023001N1+00901+00901999999ADDGA1061+001509079MA1101591999999MW1611REMMET011TEMPO 2000?
0110889680999991976051923004-60733-044733FM-12+000499999V0209991C00001004201CN0100001N9-00201-00401097911ADDAY171999GF108991081001004501021999KA1999M-00201KA2999N-00501MD1110031+9999MW1711UA1M990039999REMSYN00579731
0073467700999991976100917004+24267+120617FM-15+0203RCMQ V0200101N00411220001CN0060001N1+02201+01901999999ADDGA1011+004509079GA2031+090009009MA1101291999999MW1441REMMET0082992INS?
0082346550999991976040512004+47633+043150FM-12+004999999V0200501N00201220001CN0200001N9+01701+00301101521ADDAA199000091AY141999GF100991001001999999001001MD1710071+9999MW1021REMSYN005700//
0114740510999991976070705004+71983-125283SAOSP+0083YSY  V0200201N003010036019N0128001N1+00501+00401100981ADDGD12991+0018099GD24991+0036099GF108991999999999999999999MA1100911099901MW1001REMAWY006ST5SC4EQDQ01+999990APOSP 
0145039530999991976111812004+51933-010250FM-12+000999999V0203001N00151220001CN0500001N9+01201+00901103181ADDAA199000091AY101999GA1011+004809079GA2031+060009009GF103991011061004501001021MD1110241+9999MW1011UA1M990039999REMSYN023700// 81716 83070 91829
0084725560149411976011022094+41983-097433SAOSP+0479OFK  V0203201N00871004501EN0112001N1+99999+99999999999ADDGD14991+0045099GF108991999999999999999999MA1101251095691MW1001EQDQ01+999990APOSP 
0076064510999991976083010504+50900+004467FM-15+0055EBBR V0202201N00461003901CN0050001N1+01701+01601999999ADDGA1021+001809079GA2061+003909059MA1101021999999MW1611REMMET011TEMPO 4000?
030472218003820197601181400C+33367-081967SAO  +0045AGS  V0203305N003152200059N0240005N1-00505-00895103035ADDAA101000095GD10995+9999999GD20995+9999999GD30995+9999999GF100005999999999999999999MA1102981102475MW1001REMAWY008;AGS?1/3EQDQ01+999990APOSP N01 00000JPWTH 1QNNE11 1 00099E11 1 00099E11 1 00099E11 1 00099G11U1 99999K11 1 00016L11 1 01500M11 1 30260N11 1 00000Q11 1 10303S11 1 00023V11 1 00000X11 1 33006
0071572450999991976072403004+32717+109033FM-12+032799999V0203601N00101220001CN0230001N9+03101+02301099761ADDAY101999GF100991001001999999001001MD1999999-0021MW1021REMSYN00505201
0150728630999991976021709004+50433-104667SAO  +0577YQR  V0209991C000010018019N0240001N1-00501-00701099931ADDGD12991+0012099GD23991+0018099GD34991+0102099GF108991999999999999999999MA1099631093001MD1310151+9999MW1001REMAWY013SF1SF7SC2 315EQDQ01+999990APOSP 
014472464093058197608022000D+38283-104517SAO  +1439PUB  V0201201N00921002101MN0112001N1+01891+01831102001ADDAA101000095GD13991+0021099GD24991+0057099GF108991999999999999999999MA1102471086171MW1001REMAWY044CIG RGD          ?     4HV         ?     U28
0057488460999991976082115004+18333+105900FM-12+000599999V0202301N00201105001CN0200001N9+02701+02501100721ADDAY111999GF107991011091012501001081MD1210101+9999MW1131
0087032570999991976062110004+54300-001533FM-12+0040EGXE V0201801N00361220001CN0750001N9+01801+00901101841ADDAY101999GA1031+010509089GF103991031081012501001001MD1210071+9999MW1011REMSYN00583835
0071483030999991976012703004+19900+099833FM-12+0416VTCR V0200901N00101220001CN0100001N9+01901+01501101701ADDAY101999GF101991001001999999001051MD1999999-0021MW1101REMSYN005407//
0057582380999991976101103004+32000+118800FM-12+001399999V0200701N00301036001CN0100001N9+02101+01401102411ADDAY121999GF107991011011008001041999MD1810091+9999MW1031
011972569024089197604251300D+42917-106467SAO  +1630CPR  V0201001N004110690019N0112001N1+00061-00101101091ADDAA101000095GD12991+0060099GD23991+0690099GF107991999999999999999999MA1101321999999MW1451REMAWY019GF E-NW;CPR?4/5 4/6
0050763991999991976030614004+25767-097533SAO  +0007MAM  V0203501N00511002401EN0112001N1+99999+99999999999ADDGD13991+0024099GF107991999999999999999999MW1001
0082354970999991976042600004+48867+072833FM-12+065699999V0209991C00001220001CN0100001N9+00001-00201103361ADDAA199000091AY101999GF100991001001999999001001MD1810081+9999MW1101REMSYN005700//
0126160400999991976052100004+46500+013583FM-12+0777LIVO V0202701N00151009001CN0040001N9+01101+01001999999ADDAA199000091AY121999GA1041+007509059GA2051+009009089GF108991081041008001999999MD1410001+9999MW1101REMSYN017700// 84625 85830
0057253990999991976011921004+66167-169833FM-12+000799999V0203601N01201220001CN0060001N9-03101-03601103431ADDAY131999GF103991001001999999001011MD1210151+9999MW1361
0127476810999991976032522004+34733+137667FM-15+0044RJNH V0200501N00251012001CN0112001N1+00801+00201999999ADDGA1011+009009089GA2051+012009059MA1102911999999REMMET049296/ FCST 2207 96002         ?     3SC040 3AC130?EQDQ01+000000PRSWM2
0140039690999991976030708004+53433-006250SY-MT+0068EIDW V0201201N00661060001CN0112001N1+00201-00401101911ADDAY121999GA1031+005709079GA2031+060009009GF105991031031004501001021MD1210091+9999MW1101REMSYN01183719 83070MET006NOSIG?EQDQ01+000000PRSWM2
0057999999999991976031118004+45000-061500FM-13+0000VGFP V0201601N014919999999N0200001N9-00101+99999999999ADDAY121999GF108991999999999999999999MW1021REMSYN005/////
0082744910147031976052812004+42200-072533SAO  +0075CEF  V0209991C000012200019N0192001N1+01391+01061102301ADDGD12991+0750093GF102991999001999999001011MA1102301999999MW1001REMAWY0082// 1001
0051070240999991976012902004+49650-001467FM-15+0139LFRC V0201601N00661999991CY0099001N1+00001-00401999999ADDMA1100201999999REMMET005CAVOKEQDQ01+000000PRSWM2
0106343040999991976121803004+49850+035233FM-12+017899999V0201501N00601002101CN0041001N9-00201-00201103161ADDAY171999GA1081+002109079GF108991999071002501021999MD1710091+9999MW1711REMSYN00588707EQDQ01+000082SCOTLC
0095729650999991976040901004+63617-135867SAO  +0504YMA  V0200801N003012200019N0320001N1+00501-00201101261ADDGD12991+0720093GF102991999999999999999999MA1100951095151MW1001REMAWY002CIEQDQ01+999990APOSP 
0077830960999991976111815004-10917-037050FM-12+000699999V0200701N00361220001CN0200001N9+02901+02201101561ADDAY121999GF108991031011008001001011MA1999999101481MW1021EQDQ01+999990APOSP 
0132109800999991976042412004+47700+012017FM-12+183299999V0201501N00311060001CN0750001N9+00401-00101999999ADDAA199000091AY121999GA1011+003009089GA2051+060009009GF107991011021004501041021MD1310121+9999MW1031REMSYN023700// 81810 85070 91134
0038071570999991976041721304+49033+002533FM-15+0118LFPG V0200201N00461220001CN0040001N1+01101+00701999999REMMET010TEND 1500?EQDQ01+000000PRSWM2
0072871660999991976092811004-27450-058767FM-12+0061SARC V0200501N00461220001CN0200001N9+02201+01801100641ADDAY101999GF100991001001999999001001MD1210111+9999MW1001REMSYN0061006.5
0057313000999991976020509004+53750+127233FM-12+0232ZEYA V0202301N00101220001CN0500001N9-02101-02801102981ADDAY101999GF100991001001999999001001MD1210081+9999MW1021
0050747020231101976080716004+36333-119950SAO  +0072NLC  V0203401N004612200019N0240001N1+01941+01001101781ADDGF100991999999999999999999MA1101761999999MW1001
0097726986999991976042512004+45533-122950SAO  +0062HIO  V0209991C000010600019N0160001N1+99999+99999999999ADDGD12991+0105099GD23991+0600099GF107991999999999999999999MA1102881999999MW1001REMAWY008OCNL RW-
0095246390999991976040112004+63283+118333FM-12+012999999V0209991C00001075001CN0210001N9-00701-01801103151ADDAA199000091AY111999GF108991001001999999001071KA1999M-00101MD1410001+9999MW1021REMSYN00570051
0057305260999991976061109004+54500+107133FM-12+065099999V0209991C00001012001CN0500001N9+03001+00701099731ADDAY121999GF105991051021012501001001MD1710221+9999MW1031
0057332970999991976092809004+50100+025150FM-12+022799999V0202301N00201075001CN0350001N9+01701+00901101511ADDAY121999GF105991031001999999031021MD1710051+9999MW1011
0102915270999991976030412004-10417+161917FM-12+000599999V0209991C00001220001CN0300001N9+02301+02301100871ADDAY111999GF102991021021004501001001MD1210181+9999MW1051UA1M109999999REMSYN02396093 29/// 3100/ 44777
0095230240999991976090818004+69483+060333FM-12+001999999V0201801N00601007501CN0260001N9+00801+00701100211ADDAA199000091AY121999GF106991061051008001001001KA1999M+01101MD1710021+9999MW1021REMSYN00570011
0191741020999991976050718004+53050-129683SY-SA+0006YTC  V0201801N00251002101MN0096001N1+00801+00801102471ADDAA199002091AJ100009199999999AY151999GD13991+0021099GD24991+0054099GF108991071061002501021999KA1999N+00701MA1102471102471MD1710161+9999MW1101MW2451REMSYN01763247 706/0 4//07AWY010SF9NS1 716
0129475530999991976011600004+38400+140367FM-15+0104RJSC V0202101N00411015001CN0112001N1-00201-00501999999ADDGA1011+004509089GA2021+007509099GA3031+015009059GA4061+021009039MA1102511999999MW1261REMMET0323028       ?     CB NW MOV UNKN?
0105727170999991976021102004+47017-065450SAO  +0033YCH  V0202101N00511015001MN0240001N1-00101-00601100181ADDGD14991+0150099GF108991999999999999999999MA1100171099751MW1001OC100871REMAWY004SC10EQDQ01+999990APOSP 
0120702510265281976121611004+62300-150100SAO  +0109TKA  V0200501N002010105019N0080001N1-00381-00431099651ADDGD16991+0001599GD24991+0105099GF108991999999999999999999MA1099591098331MW1711REMAWY012S7;TKA?12/2?EQDQ01+999990APOSP 
0107588460999991976040100004+26483+119533FM-12+008599999V0209991C000019999999N0170001N9+01001+00601102551ADDAA106003091AY161999GF107991001001999999071999MD1310021+9999MW1211REMSYN011/03// 22004EQDQ01  00303PRCP99
0087064280999991976062310004+50933+003733FM-12+005599999V0201301N00051220001CN0100001N9+02701+01601102181ADDAY101999GA1021+036009039GF102991021001999999031001MD1510011+9999MW1021REMSYN00582362
0057095780999991976091115004+50433+012950FM-12+121399999V0201501N00801220001CN0240001N9+00601+00101999999ADDAY121999GF106991041031001501001041MD1810071+9999MW1031
0127745940137051976080104004+38817-076850SAO  +0085ADW  V0209991C000010300019N0064001N1+02441+01891999999ADDGD12991+0135099GD23991+0300099GD34991+0750099GF108991999999999999999999MA1100681999999MW1051REMAWY023OCNL DSNT LTGIC S AND W
0060723786999991976111004004+35250-113933SAO  +1033IGM  V0201901N000519999999N9999999N9+01111-00381999999ADDMA1101901999999REMAWY014PK WND 06 000?EQDQ01+000002VOVAR 
0057042100999991976110803004+72783-056167FM-12+006299999V0201001N00311024001CN0250001N9-00201-00301101191ADDAY171999GF106991031051002501071001MD1710011+9999MW1011
0110702650999991976112721004+64650-147100SAO  +0166PAEI V0201901N00151018001EN0320001N1-00211-00551100821ADDGD14991+0180099GF108991999999999999021999MA1100711999999MD1310141+9999MW1661REMAWY022MAG16/ 314 102/ IR12P?
0096728280999991976080501004+54800-066817SAO  +0522YKL  V0202501N002512200019N0240001N1+00601+00201100781ADDGD12991+0075099GF102991999999999999999999MA1100611094631MW1001REMAWY003SC4EQDQ01+999990APOSP 
0537700860274011976011318003+70133-143633SY-SA+0015BTI  V0202205N004152200059N0112005N1-02895-03175101705ADDAA106999929AA299000091AJ199999900015099AY171999GA1999+051824024GA2999+999999999GA3999+999999999GA4999+999999999GD12015+0510099GD20005+9999999GD30005+9999999GD40005+9999999GF101015999001999999001991KA1999M-02061KA2999N-02941MA1101661101495MD1310071+9999MW1021REMSYN02363149 70036 90206 49579AWY0291CS 30700 1008 90206 79 49579EQDN01 00000JPWTH 1QNNE11 1 00201E11 1 00000E11 1 00000E11 1 00000G11U1 99999H11 1 37170H11 1 00999H11 1 00999H11 1 00999K11 1-00025L11 1 00700M11 1 29970N11 1 00000Q11 1 10170S11 1-00020V11 1 00101X11 1 22008
0172765250999991976011900004+22783-102583FM-12+261299999V0200901N00311090001CN0100001N9+00901-00901999999ADDAA199000091AY111999GA1051+999999029GF105991001001999999001081MA1999999074931MW1051REMSYN05967493 70000 852// 91768 91960 1//// 20000 3//// 414// 5////EQDQ01+000052SCOTLC
0079726266999991976042219004+43950-078167SAO  +0078WNC  V02099999999999999999N9999999N9+99999+99999999999ADDAA106019091REMAWY02107/ 03/2709/975// 210EQDQ01+000002VOVAR Q02  01903PRCP99
013870381025309197608200800D+58367-134583SAO  +0007JNU  V0201101N002510120019N0160001N1+01111+01001100351ADDAA101000095GD12991+0015099GD23991+0120099GD34991+0180099GF108991999999999999999999MA1100371100281MW1801REMAWY0041SF?EQDQ01+999990APOSP 
0043579930999991976052321004+25850+114933FM-12+012599999V0200401N00101220001CN0120001N9+99999+99999999999ADDAY101999GF100991999999999999999999MW1011
0083745980137021976072516004+37083-076367SAO  +0003LFI  V0200101N006112200019N0160001N1+02671+01611999999ADDGD12991+0090099GF102991999999999999999999MA1101691999999MW1001REMAWY009WND 35V05
0057266450999991976060209004+55050+026317FM-12+020999999V0209991C00001004201CN0035001N9+00901+00801100701ADDAY181999GF108991081091004501999999MD1210021+9999MW1811
0138247390999991976040800004+62033+118633FM-12+031499999V0209991C00001220001CN0500001N9-00302-01301102141ADDAA199000091AY101999GF100991001001999999001001IA1319IA2999-02709KA1999N-02101MD1810011+9999MW1021REMSYN01170071 27796EQDQ01+027023ATOT  
0123342470999991976032312004+50417+041050FM-12+009399999V0209999999999001801CN0047001N9+00001-00101102201ADDAA106999929AY121999GA1081+001809079GF108991081061002501999999MD1710021+9999MW1101REMSYN011797// 88706EQDQ01  99993PRCP99
0057481030999991976082703004+16450+097667FM-12+004699999V0201801N00261004201CN0100001N9+02601+02601100861ADDAY121999GF108991051091004501071001MD1999999-0041MW1031
0070074120999991976052513304+45667-000317FM-15+0030LFBG V0202601N00511012901CN0112001N1+99999+99999999999ADDGA1031+012009089GA2031+012909059GA3071+027009039EQDQ01+000000PRSWM2
0072725945242831976102605004+40983-124100SAO  +0066ACV  V0209991C000012200019N0112001N1+00941+00671102741ADDGF100991999999999999999999MW1001REMAWY009;ACV?9/1?EQDQ01+030033APOA  
032172745014913197612121700C+46833-092183SAO  +0435DLH  V0203105N007752200059N0240005N1-01835-02445102455ADDAA101000095GD10995+9999999GD20995+9999999GD30995+9999999GF100005999999999999999999MA1102071096955MW1001REMAWY025FEW SC E ;DLH? 9/17 10/1?EQDQ01+999990APOSP N01 00000JPWTH 1QNNE11 1 00099E11 1 00099E11 1 00099E11 1 00099G11U1 99999K11 1-00012L11 1 01500M11 1 28630N11 1 00000Q11 1 10245S11 1-00001V11 1 00000X11 1 31015
0093724467139301976052404004+38717-093550SAO  +0265SZL  V0200601N00511015001EN0160001N1+01501+01001999999ADDGD13991+0150099GD24991+0240099GF108991999999999999999999MA1101221999999MW1001REMAWY004WR//
0057306350999991976103003004+53433+108983FM-12+045799999V0201401N00401030001CN0500001N9-01301-01901102271ADDAY121999GF108991021091008001031021MD1710141+9999MW1031
0057060890999991976012421004+55500+008400FM-12+001199999V0200901N00101220001CN0150001N9-00401-00501100501ADDAY141999GF100991001001999999001001MD1210101+9999MW1281
0062104380999991976082322004+51317+009483AERO +015899999V0203001N00101220001CN0250001N9+01501+00401999999ADDAY101999GF100991999999999999999999MW1021EQDQ01+000003PRSWM2
0057302630999991976091006004+57833+117667FM-12+056299999V0209991C00001220001CN0500001N9+01401+00301102231ADDAY101999GF102991021021012501001001MD1210011+9999MW1021
0142232420999991976010815004+67683+072917FM-12+001299999V0200501N01201030001CN0020001N9-01901-02201999999ADDAA199002091AY171999GF108991081001999999011999KA1999M-01901MD1710662+9999MW1381REMSYN01770269 91113 92406EQDQ01+098393APOSLPQ02+000662APC3  
0094106850999991976011207004+50317+011883AERO +056799999V0202501N00821006001CN0200001N9+99999+99999999999ADDAY161999GA1021+003909089GA2071+006009059GF107991999999999999999999MW1601EQDQ01+000003PRSWM2
0069804440999991976041219004+08117-063533FM-15+0060MVCB V0200401N00511000601CN0112001N1+03401+01901999999ADDGA1061+000609089GA2041+090009999MA1101021999999EQDQ01+000000PRSWM2
0058401990999991976052323504+29550+034950FM-15+0012LLET V0200201N00151999991CY0099001N1+02201+01001999999ADDMA1100911999999REMMET012CAVOK NOSIG?EQDQ01+000000PRSWM2
0125878600999991976062816004-45783-067450SY-MT+0058SAVC V0209991C00001220001CN0300001N1+00401-01001102691ADDAY101999GF100991001001999999001001MA1102611999999MD1010131+9999MW1021REMSYN0061026%5MET013CAVOK 04/ 10?EQDQ01+000000PRSWM2
0078032910999991976062006004+54117-000083AERO +004699999V0202201N00721220001CN0100001N9+99999+99999999999ADDAY101999GA1031+010509059GF103991999999999999999999MW1011EQDQ01+000003PRSWM2
0079161160999991976021603004+44800+008100FM-12+0300LIMQ V0202401N00261009001CN0030001N9+00201+00201101591ADDGA1081+009009059GF108991081051008001999999MD1110041+9999MW1611REMSYN00588630
0050726545999991976030603004+43767-098033SAO  +0397MHE  V0209991C000012200019N0112001N1-01271-01601999999ADDGF100991999999999999999999MA1102271999999MW1001
0078031520999991976101309004+55867-003867AERO +027599999V0201801N00301021001CN0160001N9+00601+00301999999ADDAY121999GA1061+021009039GF106991999999999999999999MW1021EQDQ01+000003PRSWM2
0057471010999991976070318004+37867+127733FM-12+007599999V0203401N00261036001CN0080001N9+01401+01301101011ADDAY161999GF108991081001999999021999MD1410001+9999MW1601
0110033340999991976090400004+53350-002267FM-12+0078EGCC V0203101N00511007501CN0300001N9+01401+00901102251ADDAA199000091AY121999GA1061+007509059GF106991061051008001999999MD1610021+9999MW1021REMSYN017700// 86625 94040
0119315040999991976011100004+51350+139100FM-12+002099999V0202501N00701030001CN0017001N9-02001-02301101141ADDAA199002091AY171999GF108991081001999999021999IA1319IA2999-02109KA1999N-02001MD1310021+9999MW1751REMSYN01170270 27192
0062915900999991976080709004-22017+166217FM-12+0016NWWW V0201201N00211036001CN0060001N9+01801+01701101251ADDAA199000091AY161999GF108991041081001501071999REMSYN00570499
0078032810999991976092412004+54367-000667AERO +023299999V0200601N00771004501CN0019001N9+01201+01201999999ADDAY121999GA1081+004509059GF108991999999999999999999MW1021EQDQ01+000003PRSWM2
0053039690999991976083108304+53433-006250FM-15+0068EIDW V0203301N00411220001CN0112001N1+01301+01001999999ADDGA1011+006009089REMMET006NOSIG?EQDQ01+000000PRSWM2
0067167180999991976120222504+38067+023550FM-15+0044LGEL V0201801N00511027001CN0090001N1+01601+01001999999ADDGA1031+009009059GA2081+027009049MW1601REMMET017MOD TURB IN APCH?
0057407390999991976020909004+36417+055033FM-12+136699999V0203301N00211090001CN0150001N9+01201+00101101311ADDAY121999GF108991001001999999001071MD1810171+9999MW1031
0076471400999991976113003004+35983+126700FM-12+002699999V0201101N00151007501CN0050001N9+00501-00201103031ADDAY121999GF107991071051008001001001MD1710081+9999MW1101EQDQ01+000002APC3  
0076723290038491976050909004+37083-084083SAO  +0366LOZ  V0209991C000012200019N0160001N1+00221+00221102381ADDGF100991999999999999999999MA1102371999999MD1010001+9999MW1001REMAWY003000
0276727470149181976070807003+48567-093383SAO  +0359INL  V02099959000052200059N0240005N1+01395+01395101485ADDGD10995+9999999GD20995+9999999GD30995+9999999GF100005999999999999999999MA1101491097225MW1001EQDQ01+999990APOSP N01 00000JPWTH 1QNNE11 1 00099E11 1 00099E11 1 00099E11 1 00099G11U1 99999K11 1 00057L11 1 01500M11 1 28710N11 1 00000Q11 1 10148S11 1 00057V11 1 00000X11 1 00000
0105766131999991976071114004+20517-103317SAO  +1526GDL  V0209999999999024001EN0160001N1+01801+01601999999ADDGD13991+0240099GD24991+0300099GF108991999999999999999999MD1210131+9999MW1001REMAWY017213 ALGS SC 07X90
0064722139999991976101812004+31167-081417SMARS+00011J1  V0203601N00611220001CN0092001N9+01491+99999102001ADDGF101991999999999999999999MW1001REMSYN020ST    SIMONSISLANDGA
0082369630999991976122200004+41833+075767FM-12+304099999V0201801N00801220001CN9999999N9-02001-02201999999ADDAA199000091AY131999GF100991001001999999001001MD1310041+9999MW1361REMSYN005700//
0048471410432191976112900004+35900+126617FM-15+0015RKJK V0203601N00511220001CN0112001N1+00201-00701999999ADDGA1011+007509059MA1102811999999MW1001OC100971
0079035623999991976040916004+52367-000217FM-15+0049EGWZ V0202701N001010270019N0090001N1+01301+00701999999ADDGA1021+009009059GA2071+027009039MA1102571999999MW1051REMMET014CIG090?XCIGUU?
0024170965999991976032909004+39950+041167FM-15+1756LTCE V0209991C00001220001CN0050001N1-00201-00701999999ADDMA1102101999999MW1401
0109032570999991976090219004+54300-001533FM-12+0040EGXE V0203501N00671012001CN0600001N9+01201+00601101961ADDAY121999GA1011+007509089GA2031+010509059GF105991051081008001001021MD1310211+9999MW1021REMSYN01181825 83635
0053788067999991976012617004+08983-079517FM-15+0013MPMG V0203301N00411220001CN0112001N1+99999+99999999999ADDGA1021+009009089MA1101121999999EQDQ01+000000PRSWM2
0058128390999991976122108004+47433+019233FM-15+0135LHBP V0201001N00201999991CY0099001N1+00001-00201999999ADDMA1102611999999REMMET012CAVOK NOSIG?EQDQ01+000000PRSWM2
0058404770999991976102519004+21500+039200FM-15+0017OEJD V0209991C00001999991CY0099001N1+02801+02501999999ADDMA1101021999999REMMET012CAVOK NOSIG?EQDQ01+000000PRSWM2
0083478820999991976112005004+33833+132700FM-15+0004RJOM V0202801N00771030001CN0112001N1+01401+00601999999ADDGA1021+007509089GA2081+030009049MA1101591999999REMMET0053002?EQDQ01+000000PRSWM2
0057234630999991976053018004+65967+084350FM-12+004199999V0209991C00001075001CN0200001N9+00601+00301101421ADDAY111999GF107991041001022501081021MD1310011+9999MW1031
0065911975999991976090419154+19750-156050SAOSP+0013KOA  V0202101N006112200019N0240001N1+99999+99999999999ADDGD12991+0120099GF102991999999999999999999MA1101591999999MW1001
0069726030999991976042511004+43833-066083SAO  +0048YQI  V0203201N002512200019N0240001N1+00301-00201101441ADDGF100991999999999999999999MA1101421100921MW1001EQDQ01+999990APOSP 
0043838440999991976050521004-25517-048517FM-12+0010SBPG V0209991C00001220001CN0180001N9+99999+99999101701ADDAY141999GF103991031051008001001001MW1101
0117035900999991976010718004+52117+000967FM-12+0087EGUW V0202301N00671004201CN0180001N9+00701+00501102291ADDAA199999929AY161999GA1071+004209059GF107991071051004501999999KA1999M+00901MD1810021+9999MW1011REMSYN01179709 87614
0128134730999991976041106004+42667+020300FM-12+049899999V0209991C00001004201CN0100001N9+00401+00201999999ADDAA199000191AJ100009199999999GF108991081071004501999999IA1089IA2999+00209KA1999N+00301MD1710111+9999MW1021REMSYN01179103 20210
0100478420999991976010200004+31983+128350FM-12+010999999V0203201N00461220001CN0150001N9+01301+00701101911ADDAA199000091AY101999GF102991021011999999001001KA1999N+01201MD1210171+9999MW1021REMSYN01070012 :317
0093467630999991976121012004+24017+121617FM-15+0015RCYU V0209991C00001024001CN0112001N1+01601+01301999999ADDGA1021+007509059GA2081+024009049MA1102201999999REMMET0153019INS CIG080?EQDQ01+000000PRSWM2
0057314970999991976112603004+51133+137417FM-12+003599999V0209991C00001220001CN0500001N9-02001-02401102231ADDAY101999GF100991001001999999001001MD1810121+9999MW1021
0110156150999991976010706004+42167+023583FM-12+292799999V0203601N01201000151CN0000001N9-01301-01401999999ADDAA199006091AY171999GA1091+999999999GF109991091999999999999999IA1319MD1210021+9999MW1491REMSYN0112//9/ 70662
0057277520999991976090115004+54633+043183FM-12+012599999V0202301N00301220001CN0200001N9+01801+00601102001ADDAY101999GF100991001001999999001001MD1710121+9999MW1021
0095331350999991976060118004+51483+031283FM-12+013799999V0203201N00301030001CN0100001N9+01301+01101100771ADDAA199003091AY181999GF108991021031008001021999KA1999M+01601MD1310031+9999MW1251REMSYN00570316
0084764125999991976032118004+24783-107433SAO  +0033CUL  V0202201N003612200019N0176001N1+02501+99999101451ADDGD12991+2100099GF102991999999999999999999MA1105991999999MW1001REMAWY010K/00290/12
0084076300999991976122609304+43633+001367FM-15+0152LFBO V0203001N00411009901CN0060001N1+00201-00101999999ADDGA1031+003909079GA2061+009909059MA1102001999999REMMET006NOSIG?EQDQ01+000000PRSWM2
0050724836232081976021013004+38667-121400SAO  +0023MCC  V0201901N001012200019N0240001N1+00331+00171999999ADDGF100991999999999999999999MA1101861999999MW1001
0080724556139891976082322004+38333-096200SAO  +0367EMP  V0201801N002010750019N0112001N1+03281+01391101561ADDGD12991+0210099GD23991+0750099GF107991999999999999999999MA1101691999999MW1001
0073037760999991976011822004+51150-000183FM-12+0062EGKK V0203101N00461007201CN0120001N9+00601+00401102231ADDAY161999GA1081+007209059GF108991081051008001999999MD1310081+9999MW1211
0096728420999991976072704004+50117-091900SAO  +0390YXL  V0203401N002012200019N0240001N1+01801+01101101281ADDGD12991+0810093GF102991999999999999999999MA1101291096681MW1001REMAWY003CI1EQDQ01+999990APOSP 
0170740660999991976011922004+58617-117167SAO  +0338YOJ  V0202201N002010420019N0240001N1+00301-00201101261ADDGD12991+0150099GD24991+0420099GF108991999999999999999999MA1101021097041MW1001REMAWY062SC1AC9     ?YPE E120BKN 250OVC QTZ QYTXRXAWXWUQYG23/995/AS9CI1EQDQ01+999990APOSP 
0076370310999991976012412004+44983+041117FM-12+020899999V0201601N00601220001CN0200001N9+00401-00401101371ADDAA199000091AY101999GF100991001001999999001001MD1710031+9999REMSYN005700//
046772261022010197606172100C+29367-100917SAO  +0313DRT  V0203605N002150304849N0240005N1+03005+02285100705ADDAA101000095GA1999+009144094GA2999+030484034GA3999+076204004GD12035+0090099GD23025+0300099GD34025+0750099GD40995+9999999GF108085999091999999071991MA1100881097195MD1610141+9999MW1171MW2955REMAWY055TB15 SW          ?     MOVG E RWU S-W CB SE-W/ 614 1973EQDQ01+999990APOSP N01 01000JPWTH 1QNNE11 1 00204E11 1 00403E11 1 00603E11 1 00099G11 1 00100H11 1 18030H11 1 23100H11 1 32250K11 1 00073L11 1 01500M11 1 28700N11 1 01000Q11 1 10070S11 1 00086V11 1 01010X11 1 36004
0054966850999991976112300004-03450+114750FM-12+0020WRBB V0200301N00211001201CN0060001N9+02501+02401101071ADDAA124000091AY121999GF108991051061001501071011MW1051
0084110100999991976020516204+48233+014183FM-15+0297LOWL V0201101N00361004201CN0045001N1+00101-00101999999ADDGA1021+003309079GA2071+004209079MA1101191999999REMMET006NOSIG?EQDQ01+000000PRSWM2
0109063750999991976020722004+51650+005700FM-12+0022EHVK V0202001N00151005401CN0030001N9+00101+00001102241ADDAY121999GA1021+003609059GA2081+005409059GF108991081051004501999999MD1110031+9999MW1101REMSYN01182612 88618
0050723405039301976022010004+34917-092150SAO  +0095LRF  V0201001N002012200019N0112001N1+00941+00391999999ADDGF100991999999999999999999MA1101251999999MW1001
0058083300999991976052210004+38883-006817FM-15+0185LEBZ V0200601N00201999991CY0099001N1+02601+01401999999ADDMA1101901999999REMMET012CAVOK NOSIG?EQDQ01+000000PRSWM2
0057271960999991976031215004+58650+049617FM-12+016499999V0201601N00301075001CN0100001N9-00301-00901102991ADDAY121999GF108991001001999999001061MD1810051+9999MW1021
0095314890999991976053109004+51200+136683FM-12+007999999V0203201N00301030001CN0500001N9+01701-00101099891ADDAA199000091AY121999GF105991021091012501031001KA1999M+01801MD1710081+9999MW1021REMSYN00570018
0149085450999991976122612004+41233-008683SY-MT+0076LPPR V0201001N00411036001CN0099001N1+01001+00601101791ADDAA199000091AY111999GA1061+999999039GF106991061001999999051001MA1101691999999MD1010071+9999MW1021REMSYN011700// 863//MET005CAVOKEQDQ01+000000PRSWM2
0101476380999991976031506004+35667+138550FM-12+027299999V0201301N00051220001CN0300001N9+01901+00201100962ADDAA199000091AY111999GF102991021021999999041001MD1710311+9999MW1021REMSYN00540099EQDQ01+100963APOSLP
0057330270999991976013103004+52217+027883FM-12+013899999V0203601N00501220001CN0060001N9-01701-02001102361ADDAY101999GF100991001001999999001001MD1210141+9999MW1021
0077727436999991976082421004+46533-087567SAO  +0432MQT  V0201701N004112200019N0320001N1+03001+01281102211ADDGF100991999999999999999999MA1102241999999MD1810151+9999MW1001REMAWY004815?
0117272420999991976120118004+58483+041533FM-12+009799999V0202001N00301002401CN0034001N9+00101+00001100491ADDAA199002091AY121999GA1081+002409079GF108991081061002501999999KA1999M+00201MD1810081+9999MW1101REMSYN01170202 88708
0083477710999991976050422004+34783+135450FM-15+0015RJOO V0203301N00101009001CN0112001N1+01301+00901999999ADDGA1061+009009089GA2071+030009039MA1100611999999REMMET0052973?EQDQ01+000000PRSWM2
0136153770999991976022506004+44950+026000FM-12+017799999V0202701N00201220001CN0150001N9-01001-01201104231ADDAA199000091AJ100009199999999AY101999GF101991011001999999041001IA1189IA2999-01209KA1999N-01001MD1210081+9999MW1031REMSYN01126250 70060
0135728160999991976082123004+53317-060417SAO  +0046YYR  V0202701N003612200019N0320001N1+02601+01101100161ADDGD12991+0540099GD22991+0750093GF102991999999999999999999MA1100171099651MW1001REMAWY027016/26/11/2707/958/AC1CI2-?EQDQ01+999990APOSP 
0057471890999991976013021004+33233+126567FM-12+005299999V0203601N00361220001CN0400001N9+00101-00401102551ADDAY101999GF100991001001999999001001MD1710111+9999MW1021
0091552790999991976062221004+31367+090017FM-12+470199999V0201601N00701220001CN0200001N9+99999+99999999999ADDAY101999GF102991021041022501001001MA1999999057181MD1610011+9999MW1021REMSYN01065718 PTQP
0108722447039011976091613004+32383-094717SAO  +0111GGG  V0200201N001512200019N0008001N1+02171+01941999999ADDGD16991+0001599GD22991+0750093GF102991999999999999999999MA1101931999999MW1051MW2111REMAWY013;GGG?9/8 9/9?
0057319810999991976040615004+43967+133067FM-12+019099999V0202001N00101220001CN0500001N9-00201-00801101631ADDAY101999GF100991001001999999001001MD1110031+9999MW1021
0095080750999991976011203004+42367-003633FM-12+0890LEBG V0200901N00621004201CN0100001N9+00401+00301999999ADDAY121999GF108991081051004501999999MA1999999093291MD1710021+9999ME1316409MW1021REMSYN00569329
0104999999999991976021200004+33700-036300FM-13+0000FNDU V0201501N00721220001CN0500001N9+00901+99999103501ADDAY111999GF101991011011999999001001MD1810051+9999MW1011SA1+1739UA1M030109999REMSYN01700114 11730 30302
0127856290999991976122518004-34967-071217FM-12+0225SCIC V0201501N00261220001CN0300001N9+02801+01301101211ADDAA199000091AY111999GF102991011011008001041001MA1999999098631MW1011REMSYN01469963 700// 38EQDQ01+099633APOSP Q02+999990APOSP 
0095252860999991976071318004+67467-174617FM-12+003199999V0200201N00201220001CN0500001N9+00101+00001101621ADDAA199003091AY181999GF102991021001999999031001KA1999N+00001MD1110011+9999MW1011REMSYN00570300
0057301650999991976123003004+58433+115983FM-12+042299999V0209991C00001220001CN0100001N9-04601-04801105261ADDAY101999GF103991001001999999001011MD1210101+9999MW1401
0093722517129321976071010004+27733-098033SAO  +0054ALI  V0200801N001510090019N0112001N1+02281+02221101471ADDGD12991+0030099GD24991+0090099GF108991999999999999999999MA1101491999999MW1001REMAWY004RE21
0040102150999991976092720444+53183+008167FM-15+0012EDNO V0202301N00201220001CN0050001N1+01701+01701999999ADDGA1031+009009059MA1100911999999MW1101
0057336780999991976040121004+48150+028300FM-12+017399999V0201801N00401220001CN0100001N9+00801+00001102151ADDAY101999GF100991001001999999001001MD1410001+9999MW1021
0087877150999991976010617004-38950-068133FM-12+0270SAZN V0202901N00511220001CN0400001N9+03201-00301100951ADDAY101999GF100991001001999999001001MD1710111+9999MW1021REMSYN0211010.6532   OBS   NIL
011872509594746197601172000D+42267-071867SAO  +0308ORH  V0203401N006612200019N0480001N1-00821-01881100801ADDAA101000095GD13991+0840093GF107991999999999999999999MA1100641999999MD1010001+9999MW1001REMAWY019PK WND 21 000 AC SE
0065723816031591976081804004+34733-118217SAOSP+0728WJF  V0202401N00721030001EN0240001N1+01721+01001101471ADDGD13991+0300099GF107991999999999999999999MA1101631999999MW1001
0124106160999991976100112004+49950+007267FM-15+0503EDAH V0201501N003610003019N0004001N1+01301+01201999999ADDAA124000591ED199U02749GA1091+000309999MA1101221999999MW1451OC100611REMMET045CIGW001 VIS0.2         ?     V0.3 RESH 20002?
0138999999999991976030900004+41800-054800FM-13+0000WEIL V0203201N006219999999N0100001N9+00331+00201101051ADDAY151999GA1091+999999999GF109991999999999999999999MD1210171+9999MW1201SA1+1679UA1M020109999UG1080353209REMSYN0230//02 11673 30202 32807
0087038950999991976041109004+49200-002200FM-12+0084EGJJ V0202001N00261220001CN0150001N9+01101+00301101591ADDAY101999GA1021+060009029GF103991001001999999001051MD1710151+9999MW1031REMSYN00582270
0092060300999991976012106204+57100+009867FM-15+0003EKYT V0203001N01641060001CN0112001N1+99999+99999999999ADDGA1031+009009089GA2071+060009009MA1097901999999OC102361REMMET006NOSIG?EQDQ01+000000PRSWM2
0050722250138291976031705004+32350-085000SAO  +0071LSF  V0202901N001512200019N0112001N1+00501-00101999999ADDGF100991999999999999999999MA1101901999999MW1001
0069167180999991976031301504+38067+023550FM-15+0044LGEL V0203401N00511024001CN0090001N1+00701+00201999999ADDGA1041+009009059GA2081+024009049REMMET006NOSIG?EQDQ01+000000PRSWM2
0054076030999991976062608004+43683-001067FM-15+0032LFBY V0202601N00411009901CN0040001N1+99999+99999999999ADDGA1041+004209079GA2071+009909059EQDQ01+000000PRSWM2
0131030220999991976091222004+57467-007367FM-12+0006EGPL V0202301N00571002701CN0150001N9+01101+01101101411ADDAY121999GA1011+001809079GA2061+002709079GA3081+005409059GF108991081051002501999999MD1810191+9999MW1581REMSYN01781706 86709 88618
0074171160999991976011814004+40233+029017FM-15+0101LTBE V0203401N00411006001CN0001001N1+00001-00201999999ADDGA1061+006009059GA2081+024009049MA1101191999999MW1741REMMET009LTAD NIL?
0082476620999991976021518004+35683+139767FM-12+0005RJTD V0200501N00101220001CN0035001N9+01101+00401101521ADDAA199000091AY111999GF104991041001999999031001MD1710041+9999MW1051REMSYN00540009
0062722139999991976042809004+31167-081417SMARS+00011J1  V0203201N00151220001CN0092001N9+01551+99999101601ADDGF101991999999999999999999MW1001REMSYN018ST    SIMONSISLAND
0071171290999991976032716004+39950+032683FM-15+0799LTAD V0203001N00511010501CN0112001N1+00801+00401999999ADDGA1051+010509059GA2071+024009049MA1101691999999MW1601REMMET006NOSIG?
0054161420999991976120317004+44050+011383FM-16+0882LIQM V0202001N00611004801CN0020001N1+99999+99999999999ADDGA1081+004809079MW1101REMMET020VAL NEBBIA AUM ELEV?
0057606110999991976032500004+28050+009633FM-12+0564DAUZ V0200401N00311220001CN0200001N9+01501+00401100821ADDAY101999GF100991001001999999001001MD1810011+9999MW1021
0060020840999991976021107504+57717+011783FM-15+0008ESGB V0202201N00461000601CN0008001N1+00001+00001999999ADDGA1091+000609999MA1100411999999MW1471REMMET011TEMPO 0500?
0072873110999991976082009004-31567-068417FM-12+0597SANU V0209991C00001220001CN0200001N9+00401-00401102461ADDAY101999GF100991001001999999001001MD1710051+9999MW1021REMSYN0061024.6
0089724030937381976101422004+38950-077450SAO  +0095IAD  V0202801N006112200019N0480001N1+01611-00431101171ADDGF100991999999999999999999MA1101191100011MW1001REMAWY011;IAD?10/21?EQDQ01+999990APOSP 
0043949530999991976112811004-42150+145333FM-12+001099999V0200501N00101220001CN0400001N9+01301+01001101091ADDAY101999GF101991011011008001001001MW1021
0101845010999991976062517004-08083-079117FM-15+0026SPRU V0201501N00921030001CN0112001N1+02101+01801101201ADDGA1031+008109059GA2051+030009039MA1101291100901EQDQ01+999990APOSP Q02+999990APOSLPQ03+000000PRSWM2
0128655620999991976090312004+06650-004700FM-12+009199999V0201801N00211015001CN0200001N9+02701+02101101411ADDAY121999GA1031+004509089GA2071+015009059GF107991071081004501999001MD1999999-0181MW1011REMSYN01183815 87650EQDQ01    003SCOMCG
0104990080999991976020910004+52750-035500FM-13+0000C7C  V0202601N01601220001CN0200001N9+00061-00101101421ADDAY111999GF103991031031004501001001MD1210601+9999MW1011SA1+0629UA1M080359999REMSYN01706251 10626 30807
0147782290999991976073118004+23133-081283FM-12+0003MUVR V0200201N00461220001CN0160001N9+03201+02301101671ADDAY101999GA1021+007509089GA2011+007509099GF103991031091008001001031KA1999M+03301KA2999N+02401MD1710141+9999MW1031REMSYN02382825 81925 43324 10159
0087062400999991976072121254+52300+004767FM-15-0004EHAM V0203601N00661024001CN0112001N1+01401+01101999999ADDGA1011+004509089GA2011+007509099GA3051+024009039MA1101801999999MW1251REMMET006NOSIG?
0038164100999991976042711504+38117+013317FM-15+0105LICP V0202801N00411220001CN0112001N1+01801+00801999999ADDGA1041+007509059EQDQ01+000000PRSWM2
0055108690999991976030409524+48317+011950FM-15+0460EDSE V0200801N00511220001CN0112001N1+00201-00801999999ADDMA1102911999999REMMET009BLU+BLU+?EQDQ01+000000PRSWM2
0122999999999991976082000004+12700+112700FM-13+0000PHUV V0202501N00511045001CN0200001N9+02781+02401100801ADDAY121999GF107991031091004501071021MD1210171+9999MW1151SA1+2829UA1M030059999UG1070102309REMSYN0230//24 12828 30301 23702
007672779624137197610261100D+48600-112367SAO  +1174CTB  V0202401N00611024001MN0320001N1+00441-00211102091ADDAA101000095GD13991+0240099GF107991999999999999999999MA1102001999999MW1001
