0095726387148501977112701004+44733-085583SAO  +0190TVC  V0202601N003010060019N0112001N1-00491-01321101251ADDGD16991+0001599GD23991+0060099GD34991+0120099GF108991999999999999999999MA1101151999999MW1851
0091427540999991977102521004+22717+075800FM-12+0564VAID V0201801N00261220001CN0100001N9+01901+01201101031ADDAY101999GF100991001001999999001001MA1999999094631MD1999999-0161MW1021EQDQ01+999990APOSP 
0109066700999991977061318204+47483+008533FM-15+0432LSZH V0202701N01021030001CN0112001N1+01901+01301999999ADDGA1011+015009089GA2041+021009059GA3071+030009039MA1101021999999OC101541REMMET007NOSIG ?EQDQ01+000000PRSWM2
0073064790999991977032208254+51167+005467FM-15+0060EBBL V0200901N00151060001CN0025001N1+00501+00401999999ADDGA1031+021009059GA2061+060009009MA1101291999999MW1101REMMET008YLO YLO?
0082339900999991977022212004+44500+034167FM-12+001499999V0201801N00501036001CN0450001N9+01401+00401101661ADDAA199000091AY121999GF108991061001999999031021MD1710101+9999MW1021REMSYN005700//
0061024640999991977100610504+59350+017950FM-15+0015ESSB V0202701N00611220001CN0112001N1+01001+00301999999ADDGA1031+007509089OC101131REMMET006NOSIG?EQDQ01+000000PRSWM2
0167106850999991977071318004+50317+011883FM-12+056799999V0201901N00311075001CN0080001N9+02001+01601101011ADDAA199005091AY191999GA1011+012009089GA2011+018009099GA3071+075009009GF107991021091012501031081KA1999M+02701MD1710151+9999MW1021REMSYN02970527 81840 81956 87075 90865
0160780730999991977112006004+25050-077467SY-MT+0003MYNN V0200601N00511220001CN0112001N1+02301+01701101801ADDAA124000091AY111999GA1041+007509059GF104991041041008001031001MA1101801999999MD1999999+0111MW1021REMSYN01770009 91965 20000EQDQ01+000000PRSWM2Q02  00003PRCP99
011272326013891197710250400D+35817-084000SAO  +0299TYS  V0200101N00251075001EN0160001N1+01391+01111102381ADDAA101000095AJ199999900000099GD13991+0750099GF107991999999999999999999MA1102441098871MW1001REMAWY010;TYS?10/7?
0095350850999991977052818004+52000+070950FM-12+038499999V0201401N00301220001CN0200001N9+01901-00101101351ADDAA199000091AY121999GF107991001001999999001011KA1999M+02901MD1310011+9999MW1021REMSYN00570029
030272517014737197702282300C+40650-075433SAO  +0118ABE  V0202705N004152200059N0240005N1+00225-00565101565ADDAA101000095GD12995+0090099GD20995+9999999GD30995+9999999GD40995+9999999GF102025999999999999999999MA1101521100145MW1001EQDQ01+999990APOSP N01 00000JPWTH 1QNNE11 1 00299E11 1 00099E11 1 00099E11 1 00099G11U1 99999K11 1 00022L11 1 01500M11 1 29570N11 1 00000Q11 1 10156S11 1 00036V11 1 00303X11 1 27008
0148601350999991977091300004+34050-006767SY-MT+0084GMME V0202201N00201220001CN0080001N1+02101+02001101961ADDAA199000091AY101999GA1021+006009059GF103991021051008001031001MA1101901999999MD1110041+9999MW1011REMSYN011700// 82620MET004NSG?EQDQ01+000000PRSWM2
0057093790999991977080710004+52383+013067FM-12+008199999V0203401N00301012001CN0100001N9+01701+01601101671ADDAY191999GF107991071091012501999999MD1210011+9999MW1171
0079477430999991977020306184+35500+133233FM-16+0005RJOH V0203301N00101003001CN0050001N1+99999+99999999999ADDGA1021+002109089GA2051+003009089GA3071+007509089MW1851REMMET013VIS S-NW 8KM?
0025108270999991977011804524+48133+008983FM-15+0920EDJM V0201201N00301000901CN0005001N1-00601-00601999999ADDGA1091+000909999MW1491
0073201990999991977080909004+78133+106667FM-12+001299999V0200201N00901000601CN0008001N9+00101+00001102951ADDAY141999GA1091+999999999GF109991091999999999999999MD1310031+9999MW1451
0153062650999991977020603004+52133+005267FM-12+0017EHSB V0202201N00511005401CN0100001N9+00701+00501100621ADDAY121999GA1011+003009079GA2011+003909099GA3041+005409059GA4081+030009049GF108991051091004501071999MD1610321+9999MW1801REMSYN02381710 81913 84618 88460
0058108660999991977030604504+48133+011717FM-15+0529EDDM V0202801N00361999991CY0099001N1+00601+00001999999ADDMA1102401999999REMMET012CAVOK NOSIG?EQDQ01+000000PRSWM2
0099728020999991977021823004+46883-055417SAO  +0033WDS  V0203101N00511006601MN0240001N1-00401-00601101091ADDGD14991+0066099GF108991999999999999999999MA1101081100691MW1001REMAWY006SC10 ?EQDQ01+999990APOSP 
0249723658230901977051709003+36750-108233SAO  +1675FMN  V0202205N002152200059N0400005N1+00945-00895100865ADDGD10995+9999999GD20995+9999999GD30995+9999999GF100991999999999999999999MA1101421082835MW1001EQDN01 00000JPWTH 1QNNE11 1 00099E11 1 00099E11 1 00099E11 1 00099G11U1 99999K11 1 00016L11 1 02500M11 1 24460N11 1 00000Q11 1 10086S11 1 00049X11 1 22004
0139655550999991977121418004+07733-005067FM-12+0376DIBK V0202601N00211078001CN0100001N9+02701+02201100811ADDAA199000091AY111999GA1041+004809059GA2031+078009009GF106991051041000251021999KA1999M+03101MD1999999-0081MW1031REMSYN01770031 84616 83076
0044476710999991977102619304+35550+139767FM-15+0003RJTT V0203101N00201220001CN0080001N1+01401+00801999999ADDMA1102711999999MW1051REMMET0113035 NOSIG?
028672526014860197711081900C+42083-080183SAO  +0223ERI  V0202005N00315010064MN0240005N1+01505+01065101275ADDAA101000095GD13995+0099099GD23995+0240099GD30995+9999999GD40995+9999999GF107075999999999999999999MA1101251098615MW1001EQDN01 00000JPWTH 1QNNE11 1 00499E11 1 00499E11 1 00099E11 1 00099G11 1 00033K11 1 00051L11 1 01500M11 1 29120N11 1 00000Q11 1 10127S11 1 00059V11 1 00909X11 1 20006
0089999999999991977010706004-10800+138900FM-13+0000GOQH V0200801N00461002101CN0200001N9+02701+99999100491ADDAY181999GF108991081051002501001001MD1810051+9999MW1251REMSYN0230//2  12988 30201 08604
0136076070999991977100418004+43917-000500SY-MT+0062LFBM V0203001N00301009901CN0112001N1+01901+01601101741ADDAA199000091AY111999GA1051+009909059GF105991051051012501001001KA1999M+02201MD1610021+9999MW1011REMSYN01170022 85633EQDQ01+000000PRSWM2
0087023290999991977062106004+57967+019350FM-12+001099999V0202301N00261220001CN0500001N9+01401+00601999999ADDAA199000091AY101999GF102991011001999999041021KA1999N+00601MW1031REMSYN01170006 00661
0084642100999991977072811004-04383+015433FM-15+0309FZAA V0202201N00361005401CN0070001N1+02401+01801999999ADDGA1081+005409059MA1101491097841REMMET006NOSIG?EQDQ01+999990APOSP Q02+000000PRSWM2
0064216470999991977121115004+73200+143533FM-12+002399999V0200901N00301001201CN0080001N9-02401-02501102291ADDAG12000AY121999GF108991081061001501999999MD1710131+9999MW1101
0081380010999991977042103004+44500+050283FM-12-002099999V0209991C00001220001CN0200001N9+01001+00801102251ADDAA199000091AY101999GF100991001001999999001001KA1999N+00901MW1021REMSYN00570009
0087423690999991977041806004+26750+080883FM-12+0122VILK V0200901N00621220001CN0040001N9+03201+01601101111ADDAY101999GA1011+012009089GF102991011011012501001011MD1999999+0091MW1031REMSYN00581840
0080726986999991977053011054+45533-122950SAOSP+0062HIO  V0203301N002510750019N0160001N1+99999+99999999999ADDGD12991+0450099GD24991+0750099GF108991999999999999999999MA1101631999999MW1001
0109161380999991977051915004+44817+011617FM-12+0008LIPF V0201101N00151024001CN0090001N9+01901+01601101381ADDAY121999GA1031+012009059GA2051+024009039GF108991031051012501051999MD1510011+9999MW1101REMSYN01183640 85358
0098478400999991977010416004+33667+131033FM-15+0016RJFZ V0202501N00201012001CN0112001N1+00101-00201999999ADDGA1011+007509089GA2051+012009059GA3081+999999029MA1102541999999REMMET004259?EQDQ01+000000PRSWM2
0064292740999991977101915004+58083+093000FM-12+008999999V0201101N00301030001CN0500001N9-00201-01101101151ADDAG12999AY121999GF108991081001999999021999MD1710161+9999MW1021
0095477550999991977101712004+34900+132067FM-12+002099999V0200601N00211220001CN0200001N9+01401+01101102201ADDAA199000091AY101999GF100991001001999999001001KA1999M+02301MD1110091+9999MW1021REMSYN00570023
0102306510999991977110612004+53917+113417FM-12+086599999V0209991C00001220001CN0500001N9-01901-02401103441ADDAA199000091AG14000AY101999GF100991001001999999001001KA1999M-00701MD1210151+9999MW1021REMSYN00570057
0098999999999991977083006004+55400-034100FM-13+0000USVT V0202101N00601007501CN0200001N9+01101+99999100631ADDAY121999GF108991081051008001999999MD1710051+9999MW1021SA1+1989UA1M020159999REMSYN01111980 30203
0068476400999991977032006004+35500+138767FM-12+086099999V0201101N003119999999N0100001N9+00801+00301999999ADDAA199000091AY121999GF108991021021999999001071MW1021REMSYN00540090
0057837210999991977081612004-23000-047133FM-12+0661SBKP V0209991C00001220001CN0120001N9+02101+01501102131ADDAY141999GF102991001001999999001011MD1210191+9999MW1101
0099476430999991977010200004+35850+139417FM-15+0090RJTJ V0203601N00051220001CN0112001N1+00001-00801999999ADDGA1011+009009059GA2031+069009009MA1102001999999REMMET021209/ FCST 0006 NOSIG?EQDQ01+000000PRSWM2
0094034010999991977013113004+52950-004567AERO +003799999V0203501N00511002401CN0300001N9+99999+99999999999ADDAY121999GA1051+002409079GA2071+007509059GF107991999999999999999999MW1601EQDQ01+000003PRSWM2
0087039700999991977031915004+53717-008983FM-12+006999999V0203501N01031220001CN0300001N9+01001+00501100741ADDAY181999GA1041+007509099GF104991041031008001999999MD1310091+9999MW1251REMSYN00584925
0202729650999991977060212004+63617-135867SY-SA+0504YMA  V0209991C000012200019N0320001N1+00501+00401100801ADDAY121999GD12991+0150099GD22991+0420093GD33991+0600093GF106991021051017501031011KA1999M+02101KA2999N+00501MA1100641094761MD1510031+9999MW1021REMSYN01169476 42105AWY014SC2ACCI3 503 ?EQDQ01+000003PRSWM2
0122999999999991977122018004+32600-062700FM-13+0000ZSWS V0203201N01541220001CN0100001N9+02071+01601099431ADDAY181999GF103991021021008001061001MD1510501+9999MW1011SA1+2309UA1M040509999UG1090803009REMSYN0230//16 12307 30410 30916
0122999999999991977080900004-34600+023500FM-13+0000GTAP V0209999999999220001CN0200001N9+02011+01501101851ADDAY101999GF102991001001999999999999MD1710201+9999MW1021SA1+1809UA1M000009999UG1080252309REMSYN0230//15 11801 30000 23805
0070070310999991977030513004+49367+000167FM-16+0146LFRG V0202601N00301075001CN0112001N1+99999+99999999999ADDGA1011+004809089GA2061+075009009REMMET007NOSIG ?EQDQ01+000000PRSWM2
0115109080999991977082400004+47867+008000FM-12+148699999V0202301N00571000301CN0000001N9+00601+00601999999ADDAA106000591AA299000491AY161999GA1091+000309999GF109991091999999999999999MD1110041+9999MW1451REMSYN011794// 89/01
009172204012838197706060100D+28100-080633SAO  +0010MLB  V0202601N002010600019N0112001N1+02671+02391999999ADDAA101000095GD12991+0060099GD24991+0600099GF108991999999999999999999MA1101591999999MW1001
0108870460999991977090500004-24383-065083FM-12+0905SASJ V0203401N00261036001CN0300001N9+01801+01201999999ADDAY121999GF106991041081012501031001MA1999999091901MD1210241+9999ME1315679MW1021REMSYN01869190 916.5 1023.1
0041033230999991977122409004+53333-002850FM-16+0026EGGP V0202601N00771060001CN0112001N1+99999+99999999999ADDGA1031+006009089GA2041+060009009MW1251
0086722255938421977032122004+32517-084933SAOSP+0121CSG  V0200901N00561001201MN0028001N1+01281+01221101151ADDGD13991+0012099GD24991+0063099GF108991999999999999999999MA1101151999999MW1451MW2611
007672203012844197710031300D+26683-080100SAO  +0006PBI  V0201801N003012200019N0064001N1+02501+02171101521ADDAA101000095GD13991+0900093GF107991999999999999999999MA1101521999999MW1051
0122999999999991977021700004+45600-012000FM-13+0000GYPH V0202401N01241004201CN0100001N9+01231+01101100751ADDAY161999GF108991081071004501999999MD1610081+9999MW1181SA1+1079UA1M050409999UG1070452709REMSYN0230//11 11073 30508 27709
0072060100999991977060413504+62067-007267FM-15+0085EKVG V0203001N00661003601CN0112001N1+00701+00601999999ADDGA1021+002409079GA2031+003609059GA3071+005409089MA1100811999999MW1801
0139999999999991977102918004+55900+001300FM-13+0000GHLE V0201701N01031220001CN0100001N9+01221+01001101871ADDAJ100039199999999AY111999GF103991031001999999071999MD1710151+9999MW1011SA1+1189UA1M040109999UG1060159999REMSYN0230//10 11182 30402 99603
0058167540999991977061017504+35333+025183FM-15+0038LGIR V0203201N00411999991CY0099001N1+02201+01401999999ADDMA1101021999999REMMET012CAVOK NOSIG?EQDQ01+000000PRSWM2
0040038620999991977062314204+50783-001833FM-15+0011EGHH V0201601N00461220001CN0080001N1+01701+01101999999ADDGA1021+008409059MW1051REMMET006NOSIG?
0082062750999991977071818294+52067+005883FM-15+0048EHDL V0202601N00561220001CN0112001N1+01701+01101999999ADDGA1011+008409089GA2031+036009039MA1100201999999REMMET004BLU?EQDQ01+000000PRSWM2
0033165200999991977052321504+40633+008283FM-15+0023LIEA V0209991C00001999991CY0099001N1+02201+01601999999REMMET005CAVOKEQDQ01+000000PRSWM2
0064306690999991977102615004+53067+117483FM-12+070799999V0202501N00201220001CN0500001N9-00701-01501103201ADDAG12999AY101999GF100991001001999999001001MD1210071+9999MW1021
0080701795999991977030903004+65933-149833SAO  +0155FVM  V0201401N002512200019N0480001N1-01711-02051999999ADDGD12991+0180093GD23991+0300093GF107991999999999999999999MA1099731999999MW1001
0069024640999991977090313204+59350+017950FM-15+0015ESSB V0202701N00361009001CN0112001N1+01801+01501999999ADDGA1021+005109059GA2071+009009059REMMET006NOSIG?EQDQ01+000000PRSWM2
0107478300999991977022618004+31917+131417FM-12+000799999V0202701N002119999999N0250001N9+01101-00101101451ADDAA199999999AY161999GF108991031071999999021999MD1710131+9999MW1601REMSYN01113000 49799EQDQ01  00002PRCP99
0241727150999991977061918004+47800-069550SY-SA+0149YRI  V0200801N001510036019N0048001N1+01201+01101100411ADDAA106001091AA224006091AJ100009199999999AY161999GD16991+0001599GD24991+0036099GF108991081071004501999999KA1999M+01201KA2999N+00701MA1100371098621MD1510101+9999MW1451MW2511REMSYN02369862 70110 20055 41207AWY011F3SF7 510:?EQDQ01  00103PRCP99
0064307100999991977111109004+52267+104350FM-12+0485UIII V0201001N00101220001CN0100001N9-00101-00701102721ADDAG12000AY101999GF100991001001999999001001MD1710101+9999MW1021
0072877500999991977080413004-38733-062183FM-12+0074SAZB V0200201N00211220001CN0200001N9+00301-00101101741ADDAY121999GF106991021001999999051061MD1210161+9999MW1021REMSYN0061015.9
0075743926999991977120515004+43767-069333SMARS+000118B  V0203401N00561220001CN0185001N9-00111+99999102091ADDGF104991999999999999999999MW1001UG1050069999REMSYN019M     MANANAISLAND?
0109036580999991977072617004+51617-001083FM-12+0070EGUB V0202701N00311009601CN0400001N9+01801+01401100891ADDAY121999GA1051+009609089GA2041+015009059GF107991071081012501999999MD1710021+9999MW1021REMSYN01185832 84650
0050722907999991977111300084+32817-116967SAOSP+0117SEE  V0202701N005112200019N0320001N1+99999+99999999999ADDGF100991999999999999999999MA1101831999999MW1001
0057037780999991977082904004+51517-000117FM-12+0023EGRB V0202301N00311220001CN0100001N9+01201+00801102251ADDAY101999GF100991001001999999001001MD1810091+9999MW1021
0454722015128501977071812003+24583-081683SAO  +0007NQX  V0201305N002650914449N0112005N1+02895+02395101865ADDGA1999+005494094GA2999+060964999GA3999+091444024GA4999+999999999GD12025+0054099GD22015+0600099GD33035+0900099GD40005+9999999GF106055999091999999001991MA1101831101865MD1310081+9999MW1001REMAWY048CBS DSNT N-E     ?    TCU ALQDS/ 308 1906 48882?EQDN01 00000JPWTH 1QNNE11 1 00203E11 1 00201E11 1 00404E11 1 00000G11 1 00300H11 1 18018H11 1 99200H11 1 37300H11 1 00999K11 1 00075L11 1 00700M11 1 30080N11 1 00000Q11 1 10186S11 1 00084V11 1 00806X11 1 13005
0067723815231611977102023004+34867-116783SAO  +0588DAG  V0202901N003012200019N0480001N1+02611+00891101071ADDAJ199999900000099GF100991999999999999999999MA1101221999999MW1001
011172688024155197708180400D+45683-118850SAO  +0455PDT  V0200701N004612200019N0240001N1+03001+00001100921ADDAA101000095GD12991+0600099GF102991999999999999999999MA1101081095731MW1001REMAWY007FEW CU?EQDQ01+999990APOSP 
0071085090999991977012512334+38767-027100FM-16+0055LPLA V0203001N005110690019N0100001N9+99999+99999999999ADDGA1021+007509089GA2071+069009029MA1101151999999MW1251REMMET006CIG230
0095239660999991977080712004+60350+084083FM-12+009999999V0202701N00301220001CN0100001N9+02101+00701101301ADDAA199000091AY121999GF105991021011004501001011KA1999M+02301MD1710071+9999MW1021REMSYN00570023
0056101420999991977100403444+54000+009583FM-15+0025EDCI V0201901N00411024001CN0050001N1+00801+00601999999ADDGA1031+012009059GA2081+024009049MA1101021999999MW1611
0135357560999991977040718004+46883+064667FM-12+007999999V0200501N00601220001CN0500001N9+01401+00201100971ADDAA199000091AY101999GF100991001001999999001001KA1999M+03101MD1310031+9999MW1021REMSYN04570031 57    00902 //020 15608 0090003303/ 276
0057307580999991977012918004+52017+113333FM-12+068599999V0209991C00001220001CN0020001N9-03901-04201104161ADDAY101999GF100991001001999999001001MD1710091+9999MW1101
0119255510999991977051600004+64683+170417FM-12+002399999V0202501N00501030001CN0500001N9+00401-00401100091ADDAA199000091AY111999GF105991051001999999031001IA1199IA2999-00309KA1999N-00301MD1210101+9999MW1021REMSYN01170053 25361
0081983270999991977090206004+15183+120550FM-15+0146RPMK V0201001N003110210019N0100001N9+02981+02281999999ADDGA1031+009009089GA2041+021009039GA3081+075009029MA1100441999999REMMET006CIG070
0037012410999991977031423504+63700+009617FM-15+0007ENOL V0201301N00921220001CN0112001N1+00501-00101999999ADDMA1101081999999EQDQ01+000000PRSWM2
0071067000999991977041323504+46250+006133FM-15+0416LSGG V0202501N00511010501CN0112001N1+00901+00701999999ADDGA1021+006009089GA2061+010509059MA1101901999999MW1211REMMET006NOSIG?
0112717300999991977071009004+46617-080800SAO  +0341YSB  V0200101N002012200019N0240001N1+01101+00801102661ADDGF100991999999999999999999MA1102611098451MD1310081+9999MW1001REMAWY020FOG IN VALLEYS 308 ?EQDQ01+999990APOSP 
054170381025309197703280600C+58367-134583SY-SA+0006JNU  V0202305N00315009144EN0160005N1+00395+00115101675ADDAA101000095AA224001091AJ100009199999999AY181999GA1999+009144064GA2999+012194064GA3999+999999999GA4999+999999999GD13065+0090099GD23025+0120099GD30005+9999999GD40005+9999999GF107065071051008001001991KA1999M+00781KA2999N+00111MA1101661101595MD1210241+9999MW1011REMSYN02363158 70030 20004 44634AWY0177SC CTY WND 0000?EQDQ01+000003PRSWM2N01 00000JPWTH 1QNNE11 1 00407E11 1 00402E11 1 00000E11 1 00000G11 1 00030H11 1 15030H11 1 15040H11 1 00999H11 1 00999K11 1 00034L11 1 01000M11 1 30000N11 1 00000Q11 1 10167S11 1 00039V11 1 00908X11 1 23006
0050722907999991977101223074+32817-116967SAOSP+0117SEE  V0202701N005112200019N0160001N1+99999+99999999999ADDGF100991999999999999999999MA1101321999999MW1001
007494868099999197702150700N-37820+144970AUST +0038     V0202035N004159999999N999999999+02255+01505999999ADDAY114999GA1005+999999999GF100995004999999999999999MA1999999101285MW1025
0039080020999991977042208004+43300-008383FM-15+0097LECO V0209991C00001220001CN0080001N1+01101+00801999999ADDMA1102811999999MW1061REMMET006NOSIG?
0117066800999991977030803004+47250+009350FM-12+250099999V0202201N01341000151CN0000001N9-00201-00201999999ADDAY141999GA1091+999999999GF109991091999999999999999MA1999999076001MD1110061+9999ME1431479MW1471REMSYN01167600 91140
0057596580999991977043003004+21217+110400FM-12+002999999V0201401N00601007501CN0300001N9+02801+02401101481ADDAY121999GF107991051021008001999021MD1210131+9999MW1031
0058724090147801977020701004+40033-074317SAO  +0024NEL  V0202801N007212200019N0160001N1-00881-01661101941ADDGF100991999999999999999999MA1101931999999MW1001OC100971
0113912450416061977101405004+19283+166650SAO  +0003PWAK V0200501N010810210019N0240001N1+02721+02331101241ADDGD12991+0054099GD23991+0210099GF107991999999999999999999MA1101251101221MW1001REMAWY005RE05?EQDQ01+999990APOSP 
0071334660999991977033121004+49667+031000FM-12+015599999V0201801N003019999999N0009001N9+00601+00601101531ADDAY161999GF108991999999999999999999MD1710071+9999MW1611REMSYN00599744
0118786470999991977080717004+13917-090817FM-15+0002MGSJ V0202101N00201036001CN0112001N1+02901+02301101321ADDGA1051+036009039MA1101291101251REMMET024CB SW/N TCU NE/E/2CI200?EQDQ01+999990APOSP Q02+999990APOSLPQ03+000000PRSWM2
032772356013968197707131500C+36200-095900SAO  +0198TUL  V0202005N003152200059N0240005N1+03065+02065101905ADDAA101000095GD10995+9999999GD20995+9999999GD30995+9999999GF100005999999999999999999MA1102001099535MD1010101+9999MW1001REMAWY017010;TUL?7/9 7/11?EQDQ01+999990APOSP N01 00000JPWTH 1QNNE11 1 00099E11 1 00099E11 1 00099E11 1 00099G11U1 99999K11 1 00069L11 1 01500M11 1 29390N11 1 00000Q11 1 10190S11 1 00087V11 1 00000X11 1 20006
0054466960999991977041105004+25067+121550FM-15+0006RCTP V0203101N00361220001CN0060001N1+02901+02101999999ADDGA1031+006009089MA1101391999999MW1061REMMET0052995?
0117722445039041977062915004+30583-096367SAOSP+0097CLL  V0202201N003010300019N0112001N1+02891+02331101771ADDGD12991+0039099GD23991+0300099GF107991999999999999999999MA1101831999999MD1210101+9999MW1001REMAWY014BKN V SCT 210?
0080726385999991977092214454+44267-086250SAOSP+0189MBL  V0201201N00361012001EN0192001N1+01281+01171999999ADDGD13991+0120099GD24991+0240099GF108991999999999999999999MA1102131999999MW1001
0019726547999991977123012004+43800-099317SAO  +0530CHB  V0200501N002019999999N9999999N9+99999+99999999999EQDQ01+000002VOVAR 
0107082840999991977082112304+39500-000467FM-15+0065LEVC V0200601N00201009001CN0112001N1+02301+01501999999ADDGA1021+007509099GA2031+009009089GA3051+027009039MA1100611999999MW1251REMMET026NOSIG? 1         ?     13?
0077724088137071977010506004+39133-075467SAO  +0009KDOV V0203501N003612200019N0096001N1-00161-00711101841ADDGF100991999999999999999999MA1101801999999MD1110051+9999MW1051REMAWY004105?
0082477460999991977102009004+35517+134183FM-12+001799999V0200301N00211220001CN0200001N9+01601+00801102101ADDAA199000091AY101999GF104991041011999999001001MD1310051+9999MW1021REMSYN00540090
028772451013985197710091400C+37767-099967SAO  +0787DDC  V0201905N004152200059N0320005N1+00895+00335101485ADDAA101000095GD10995+9999999GD20995+9999999GD30995+9999999GF100005999999999999999999MA1101561092385MW1001EQDQ01+999990APOSP N01 00000JPWTH 1QNNE11 1 00099E11 1 00099E11 1 00099E11 1 00099G11U1 99999K11 1 00038L11 1 02000M11 1 27280N11 1 00000Q11 1 10148S11 1 00048V11 1 00000X11 1 19008
0123026070999991977101518004+56300+012850FM-12+0020ESDB V0200901N00311010801CN0300001N9+00901+00701102871ADDAA199000091AY121999GA1081+010809059GF108991081051012501999999KA1999M+01001MD1410001+9999MW1021REMSYN01770010 88636 00488
0142310880999991977090518004+59367+143200FM-12+000699999V0201001N00601030001CN0200001N9+01301+01001101461ADDAA199999929AJ100009199999999AY161999GF108991021061004501011999IA1009IA2999+01009MD1810011+9999MW1021UA1M990039999REMSYN01779711 91827 21000
0064507580999991977102409004+47183+125917FM-12+025999999V0201401N00501090001CN0200001N9+00201-01001101911ADDAG11999AY121999GF107991001001999999001021MD1710351+9999MW1011
0090724320938171977112716004+38050-087533SAOSP+0119EVV  V0201801N00771003301MN0064001N1-00051-00211100961ADDGD14991+0033099GF108991999999999999999999MA1100911099511MW1451MW2711EQDQ01+999990APOSP 
0071483540999991977120303004+17383+102800FM-12+0177VTUD V0200201N00211220001CN0100001N9+02101+00901102151ADDAY101999GF103991001001999999001051MD1999999-0191MW1011REMSYN005442//
0170729460999991977061715004+61750-121233SAO  +0177YFS  V0201701N001512200019N0240001N1+01501+01101101941ADDGD12991+0090099GD22991+0210093GD34991+0660093GF108991999999999999999999MA1101901099871MD1110071+9999MW1001REMAWY033CU1AC2CI1 COTRA        ?    107 ?EQDQ01+999990APOSP 
0107568380999991977071200004+24017+097833FM-12+077699999V0209991C00001012001CN0200001N9+02301+02201100531ADDAA106999929AY121999GF108991061091012501061999MD1310041+9999MW1801REMSYN011/97// 00000EQDQ01  99993PRCP99
0087266490999991977051121004+54783+027450FM-12+017799999V0209991C00001220001CN0060001N9+01001+00601101121ADDAY101999GA1021+007809089GF102991021011008001001001MD1210051+9999MW1021REMSYN00582826
0041075790999991977092804004+44133+004833FM-16+0060LFMO V0203401N00201030001CN0015001N1+99999+99999999999ADDGA1051+030009039GA2061+075009009MW1101
0065725555999991977022822004+41433-099650SAO  +0771BBW  V0203501N00721003001EN0112001N1-00051-00321999999ADDGD14991+0030099GF108991999999999999999999MA1102201999999MW1711
0080702710264251977091523004+62150-145450SAO  +0481GKN  V0209991C000012200019N0800001N1+00941+00611101181ADDGD12991+0270099GD24991+0540093GF108991999999999999999999MA1100981999999MW1001
0058172440999991977092223004+37967+032550FM-15+1032LTAN V0200901N00101999991CY0099001N1+01701+00401999999ADDMA1101591999999REMMET012CAVOK NOSIG?EQDQ01+000000PRSWM2
0069164360999991977072508004+37517+013083FM-16+0113LICS V0201301N00361999991CY0099001N1+99999+99999999999REMMET041CAVOK 1AC090 SCT QUK1 QUL0 VIS MAR 20 KM?EQDQ01+000000PRSWM2
0084716300999991977122723004+44967-079300SAO  +0282YQA  V0203401N002512200019N0240001N1-01401-01501101831ADDGD12991+0105099GF102991999999999999999999MA1101631098261MW1001EQDQ01+999990APOSP 
0119312350999991977021100004+55483+134333FM-12+031899999V0203201N00501220001CN0500001N9-03501-03901102871ADDAA199000091AY101999GF100991001001999999001001IA1319IA2999-04509KA1999N-04001MD1210041+9999MW1021REMSYN01170090 29597
0057352170999991977033121004+50250+052567FM-12+003499999V0200201N00901220001CN0100001N9-00201-00601103201ADDAY111999GF101991001001999999001011MD1210121+9999MW1021
0057042100999991977092903004+72783-056167FM-12+006299999V0200701N00411021001CN0300001N9-00401-00601100601ADDAY121999GF108991081001022501071999MD1410001+9999MW1031
0033036731999991977100719504+51883-000367FM-15+0160EGGW V0201501N00411999991CY0099001N1+00901+00801999999REMMET005CAVOKEQDQ01+000000PRSWM2
0095380620999991977012915004+44767+065533FM-12+012999999V0200501N00701220001CN0100001N9-02001-02301103101ADDAA199000091AY101999GF100991001001999999001001KA1999M-01401MD1210131+9999MW1021REMSYN00570064
0079029740999991977071809504+60317+024967FM-15+0051EFHK V0201601N00971003901CN0112001N1+01301+01101999999ADDGA1061+003909059GA2081+060009029MA1100001999999MW1801OC101491REMMET006NOSIG?
0057028050999991977020721004+69750+027033FM-12+010299999V0203101N00051007501CN0060001N9-01501-01601099971ADDAY171999GF107991051051008001001081MD1610061+9999MW1711
0057423690999991977072721004+26750+080883FM-12+0122VILK V0209991C00001007501CN0020001N9+02701+02701099331ADDAY161999GF108991061031008001021001MD1999999-0281MW1601
0077722866231221977071114004+34100-117233SAO  +0352KSBD V0209991C000012200019N0080001N1+01281+01001999999ADDGF100991999999999999999999MA1101591999999MW1041MW2051REMAWY012VSBY LWR NE?
0077722526129471977102909004+28450-099217SAO  +0144COT  V0209991C000012200019N0112001N1+02001+01941101521ADDGF100991999999999999999999MA1101591999999MD1710031+9999MW1001REMAWY004703?
0057010890999991977031721004+69717+029883FM-12+0094ENKR V0201201N00931012001CN0200001N9-00301-00501101641ADDAY121999GF108991061051012501999999MD1710291+9999MW1021
0039107640999991977112905004+49383-011183FM-15+0386EDIG V0209991C00001220001CN0060001N1-00601-00901999999ADDMA1102271999999MW1101REMMET006FIRST?
0057091770999991977110622004+53767+012617FM-12+004699999V0202201N00601220001CN0130001N9+00801+00701101451ADDAY101999GF100991001001999999001001MD1210181+9999MW1051
0044471315999991977102103004+37433+127633FM-15+0043RKSU V0209991C00001220001CN0060001N1+01601+01101999999ADDMA1102271999999MW1051REMMET011QFF1023PT0?
008072253012921197711112300D+29533-098467SAO  +0246SAT  V0201801N003612200019N0400001N1+01831-00321103021ADDAA101000095GF100991999999999999999999MA1103051100131MW1001EQDQ01+999990APOSP 
0134727270999991977020209004+48333-071000SAO  +0159YBG  V0202701N005610240019N0096001N1-02101-02501100981ADDGD12991+0090099GD23991+0240099GF107991999999999999999999MA1100811098921MD1210171+9999MW1711REMAWY012SC2AS7 217 ?EQDQ01+999990APOSP 
0045107380999991977042613004+48683+009217FM-15+0396EDDS V0202601N00361999991CY0099001N1+02101+00701999999ADDMA1101391999999MW1001REMMET012CAVOK NOSIG?
045072688024155197709201500C+45683-118850SAO  +0452PDT  V0201905N003652200059N0480005N1+01065+00895101485ADDAA101000095GA1999+021344034GA2999+999999999GA3999+999999999GA4999+999999999GD12035+0210099GD20005+9999999GD30005+9999999GD40005+9999999GF103035999001999999031991MA1101491096145MD1210191+9999MW1001REMAWY017219 1030;PDT?8/2?EQDQ01+999990APOSP N01 00000JPWTH 1QNNE11 1 00204E11 1 00000E11 1 00000E11 1 00000G11U1 99999H11 1 23070H11 1 00999H11 1 00999H11 1 00999K11 1 00048L11 1 03000M11 1 28390N11 1 00000Q11 1 10148S11 1 00051V11 1 00404X11 1 19007
0099525760999991977111900004+39383+102833FM-12+138399999V0200701N00101220001CN0500001N9-00601-00901999999ADDAG11000AY101999GF101991001001999999001021MA1999999085751MD1710081+9999MW1031REMSYN01168575 00354
0057154100999991977021515004+44633+022633FM-12+007799999V0202301N00401012001CN0100001N9+00801+00301100981ADDAY121999GF106991051081008001001031MD1210121+9999MW1021
0033163240999991977061522004+40517+017400FM-15+0064LIBG V0209991C00001999991CY0099001N1+02301+01801999999REMMET005CAVOKEQDQ01+000000PRSWM2
009572507014765197711280800D+41733-071433SAO  +0017PVD  V0201701N00151003301MN0080001N1-00211-00491102291ADDAA101000095GD14991+0033099GF108991999999999999999999MA1102301102061MW1711EQDQ01+999990APOSP 
0070165310999991977061209004+40900+009517FM-15+0011LIEO V0200901N00561007501CN0060001N1+02301+01801999999ADDGA1031+003009079GA2031+007509059GA3041+027009039MW1101REMMET004BKN?
0124283960999991977101018004+57367+074750FM-12+010199999V0202501N00401105001CN0500001N9+00101+00001100981ADDAA199999929AG10999AY121999GA1081+105009099GF108991081001008001021999KA1999M+00301MD1110031+9999MW1021REMSYN01179703 88981
0167718220999991977070115004+49817-074417SAO  +0402YMT  V0201501N002510300019N0160001N1+01601+01501099411ADDGD12991+0039099GD23991+0300099GF107991999999999999999999MA1099361094691MD1610131+9999MW1001REMAWY045CF1AC9 ACC W HRZN VIRGA NW         ?    613 ?EQDQ01+999990APOSP 
0167746930937371977030712004+35133-078933SAO  +0074FBG  V0200101N00361002401MN0064001N1+00891+00831101461ADDAA106010091AA224030091GD13991+0024099GD24991+0060099GF108991999071999999999999MA1101461999999MD1310051+9999MW1451MW2511REMAWY01730541 17// 20118?EQDQ01  01003PRCP99
0053101420999991977121907444+54000+009583FM-15+0025EDCI V0203001N00361004501CN0112001N1+00601+00401999999ADDGA1071+004509059MA1101901999999EQDQ01+000000PRSWM2
009872605014745197702021400D+43200-071500SAO  +0103CON  V0203101N008712200019N0320001N1-01431-02211101881ADDAA101000095GF100991999999999999999999MA1101801100521MW1001REMAWY009;CON?2/3?EQDQ01+999990APOSP 
0098710780999991977101022004+56867-101067SAO  +0357YYL  V0202801N00511003601AN0080001N1+00101-00101101951ADDGD14991+0036099GF108991999999999999999999MA1101731097501MW1851REMAWY005SF9 ?EQDQ01+999990APOSP 
009894984099999197707230800N-40120+148020AUST +0006     V0203155N006759999999N999999999+00895+00605999999ADDGA1015+004505085GA2005+999999999GA3025+999999999GF103995014025004505999035MA1999999100045MW1015
0078107290999991977030910004+49533+008500AERO +009799999V0202701N00101220001CN0070001N9+01101+00501999999ADDAY121999GA1031+075009009GF103991999999999999999999MW1051EQDQ01+000003PRSWM2
0087033600999991977072705004+53483-001000FM-12+0017EGXI V0202801N00361010501CN0200001N9+01101+01001100771ADDAY121999GA1061+010509059GF106991061051012501999999MD1310021+9999MW1021REMSYN00586635
0118012410999991977042518004+63700+009617FM-12+0007ENOL V0200801N00211220001CN0500001N9+00401-00501100681ADDAA199000091AY121999GF101991011011008001001001KA1999M+00601MD1710071+9999MW1011OA199900611REMSYN01770006 91112 914/3
0119202920999991977040500004+77717+104283FM-12+001399999V0200901N00401220001CN0350001N9-03401-03601101451ADDAA199000091AY101999GF103991001001999999001011IA1209IA2999-04009KA1999N-03701MD1410001+9999MW1021REMSYN01170087 2907/
0150725540149491977022615004+41117-095900SAO  +0319OFF  V0200601N00251009601MN0320001N1+00001-00431101851ADDGD13991+0096099GD24991+0390099GF108991999051999999071999MA1101761999999MD1310081+9999MW1001REMAWY047RCD BKN90/U160         ?    /170U190/ 308 157/?
0101724096147061977120913004+40017-074600SAO  +0041WRI  V0201701N003610090019N0080001N1+00331+00171999999ADDGD12991+0045099GD23991+0090099GD34991+0150099GF108991999999999999999999MA1101151999999MW1451MW2611
0089726686240251977040516004+44383-100283SAO  +0531PIR  V0203301N008712200019N0560001N1+00281-00661101731ADDGD13991+0750093GF107991999999999999999999MA1101561999999MW1001OC101231REMAWY007SCUD W?
036872694024232197707240600C+44917-123017SY-SA+0061SLE  V0203105N001552200059N0240005N1+01895+01225101465ADDAA101000095AY111999GD10995+9999999GD20995+9999999GD30995+9999999GF100005001001999999001991KA1999M+03051KA2999N+01221MA1101491100755MD1110051+9999MW1021REMSYN01163075 48754AWY007105 87?EQDQ01+000003PRSWM2N01 00000JPWTH 1QNNE11 1 00099E11 1 00099E11 1 00099E11 1 00099G11U1 99999K11 1 00054L11 1 01500M11 1 29750N11 1 00000Q11 1 10146S11 1 00066V11 1 00000X11 1 31003
0073037780999991977090802004+51517-000117FM-12+0023EGRB V0200301N00311030001CN0100001N9+01301+00701102381ADDAY121999GA1081+030009039GF108991081001999999031999MD1710051+9999MW1021
0122999999999991977052018004+26300-120500FM-13+0000JFIR V0200201N00771220001CN0500001N9+01951+01501102001ADDAY111999GF104991041011004501001001MD1210151+9999MW1021SA1+1659UA1M040209999UG1060253409REMSYN0230//15 11655 30404 34605
0144164900999991977081421004+35500+012600SY-MT+0020LICD V0200501N00251220001CN0099001N1+02701+02201101571ADDAY111999GF100991001001999999001001MD1210151+9999MW1021UA1M990039999REMSYN010QUK2  QUL0MET030CAVOK QUK2 QUL0 VIS MAR 12 KM?EQDQ01+000000PRSWM2
0055154200999991977070205004+44500+026133FM-15+0094LRBS V0200201N00511220001CN0090001N1+01901+01601999999ADDGA1021+060009009MA1101391999999MW1101REMMET006NOSIG?
0088943320999991977123002003-20667+139483FM-12+0339YBMA V0200801N00051220001CN0150001N9+03401+01301101161ADDAY101999GA1005+999999999GF100991001001999999001001MA1999999097395MD1010021+9999MW1045
0057581380999991977060309004+33283+118833FM-12+000299999V0202201N00401220001CN0300001N9+03101+01001100481ADDAY111999GF102991001001999999041021MD1710071+9999MW1031
0043422730999991977011812004+27567+081600FM-12+012299999V0209991C00001220001CN0100001N9+02001+01301101441ADDGF106991001001999999001011MD1999999+0101
0122999999999991977071018004+58600-015800FM-13+0000ZCEJ V0200801N00511007501CN0200001N9+01431+01001103141ADDAY121999GF106991061051008001001001MD1410001+9999MW1011SA1+1339UA1M020059999UG1060102209REMSYN0230//10 11333 30201 22602
0127911700225081977012003004+21483-158033SAO  +0259PHHI V0203601N003010138019N0320001N1+02281+01671101291ADDGD12991+0054099GD22991+0081099GD33991+0138099GF107991999081999999001001MA1101391999999MD1610031+9999MW1001REMAWY009603 1800?
0104726200999991977061816164+44217-076600SAOSP+0093YGK  V0201601N002510048019N0032001N1+99999+99999999999ADDGD16991+0001599GD22991+0012099GD34991+0048099GF108991999999999999999999MW1451MW2611REMAWY009F3SF1SC6?
0084064070999991977050815504+51200+002867FM-15+0004EBOS V0203201N00411024001CN0112001N1+01001+00701999999ADDGA1011+012009089GA2071+024009039MA1101081999999REMMET006NOSIG?EQDQ01+000000PRSWM2
009094476099999197712151630N-27570+135450AUST +0117     V0201805N002159999999N999999999+02245+01805999999ADDAY124999GA1005+999999999GA2085+999999035GF108995004999999999075999MA1999999100035MW1025
0109107760999991977062009004+49017+012067FM-12+037699999V0202901N00261003001CN0100001N9+01401+01301101411ADDAY161999GA1051+003009079GA2071+006009059GF108991071051004501999999MD1210131+9999MW1021REMSYN01185710 87620
0078060740999991977040810004+56200+010167AERO +005799999V0200401N00251006001CN0100001N9+00001-00501999999ADDAY181999GA1051+006009099GF105991999999999999999999MW1151EQDQ01+000003PRSWM2
0068155561999991977031309304+43233+027833FM-15+0083LBWN V0201301N00821003301CN0112001N1+00801+00401999999ADDGA1061+003309079MA1102401999999REMMET006NOSIG?EQDQ01+000000PRSWM2
0097722730031241977020403004+31583-110333SAO  +1422FHU  V0209991C000012200019N0240001N1+00671-00101102001ADDGD12991+0750093GF102991999001999999001081MA1102101999999MD1310101+9999MW1001REMAWY009310 1008?
0122999999999991977022800004+72100+147000FM-13+0000JFMF V0200701N01031220001CN0200001N9+99999+99999101121ADDAY111999GF103991021011004501011051MD1210101+9999MW1011SA1+3009UA1M060209999UG1070250909REMSYN0230//24 13000 30604 09705
0158132890999991977012406004+44167+021967FM-12+083499999V0201101N00621000151CN0000501N9-00201-00201999999ADDAA199003091AJ100439199999999AY161999GA1091+999999999GF109991091999999999999999IA1209IA2999-00609KA1999N-00501MD1710121+9999MW1671REMSYN01770355 25677 99644
0101918260999991977120521004-18067-163183FM-12+000399999V0201301N01341033001CN0500001N9+02801+02201100861ADDAY121999GA1031+005409089GA2061+033009039GF106991031021004501071999MW1021REMSYN0177//39 83818 86361
0138681040999991977011306004-22883+014433FM-12+000799999V0209991C00001000601CN0048001N9+01501+01501101411ADDAA124000091AY121999GF108991081061000751999999KA1999M+02001MD1310141+9999MW1021UA1M000009999UG1130152709REMSYN02370015 220// 30000 27303
0057234840999991977030106004+65633+090017FM-12+006599999V0201401N00301220001CN0200001N9-03801-04301104591ADDAY101999GF100991001001999999001001MD1810031+9999MW1021
0057121200999991977092103004+54750+017533FM-12+000299999V0200901N00101220001CN0008001N9+00501+00501101941ADDAY101999GF100991001001999999001001MD1710141+9999MW1441
0083107640999991977102114004+49383-011183FM-15+0386EDIG V0201401N001010240019N0112001N1+01501+00701999999ADDAJ199999900000099GA1051+024009039GA2031+060009009MA1102341999999REMMET007CIG080?
0087919250999991977061218004-09800-139033FM-12+005199999V0203601N00411220001CN9999999N9+02901+02601101171ADDAA199000091AY161999GF103991031021999999001001MW1011REMSYN00579129EQDQ01+000992SCOLCB
0087038950999991977042314004+49200-002200FM-12+0084EGJJ V0202601N00981220001CN0250001N9+01201+00801101171ADDAY101999GA1011+005409089GF101991011081004501001001MD1810051+9999MW1011REMSYN00581818
0106071970999991977041221004+47917+007400SY-MT+0211LFSC V0202001N00611012901CN0112001N1+00401+00201102231ADDAY121999GA1081+012909059GF108991081051012501999999MD1110031+9999MW1011REMSYN00588643EQDQ01+000000PRSWM2
043572425003860197712251200C+38367-082550SAO  +0252HTS  V0203205N005250609649N0160005N1-00065-00675101065ADDAA101000095AA224004091GA1999+010364064GA2999+024384034GA3999+060964024GA4999+999999999GD12025+0102099GD22025+0240099GD33025+0600099GD40005+9999999GF106045999051999999071991MA1101021098005MD1210371+9999MW1001EQDQ01+999990APOSP N01 00000JPWTH 1QNNE11 1 00202E11 1 00202E11 1 00403E11 1 00000G11 1 00200H11 1 15034H11 1 23080H11 1 37200H11 1 00999K11 1 00020L11 1 01000M11 1 28940N11 1 00000Q11 1 10106S11 1 00031V11 1 00705X11 1 32010
013672654014936197708071300D+44383-098217SAO  +0392HON  V0203401N003612200019N0112001N1+01611+01501101171ADDAA101000095GD12991+0360099GD22991+0750093GF102991999999999999999999MA1101221096601MW1001REMAWY017STFRA 5 HND W-NW?EQDQ01+999990APOSP 
0083160990999991977011217204+45650+012183FM-15+0018LIPH V0209991C00001009001CN0099001N1+00701+00401999999ADDGA1051+009009089GA2031+010509059MA1099801999999REMMET005CAVOKEQDQ01+000000PRSWM2
0082592930999991977071521004+23733+114683FM-12+004599999V0209991C00001036001CN0240001N9+02501+02401101131ADDAA124009091AY121999GF106991041091012501061001MD1610011+9999MW1021REMSYN00522009
0057280870999991977011921004+59533+070417FM-12+005099999V0200501N00101220001CN0500001N9-02601-02901103201ADDAY101999GF103991001001999999001011MD1710061+9999MW1021
0080747915937181977010917004+33817-078717SAO  +0010CRE  V0200701N00201012001EN0160001N1+00831+00171999999ADDGD13991+0120099GD24991+0180099GF108991999999999999999999MA1101591999999MW1001
0087403560999991977032600004+31683+038667FM-12+082799999V0209991C00001220001CN0120001N9+01101+00701101051ADDAY101999GA1041+030009049GF104991041001999999021001MD1999999-0191MW1021REMSYN00584460
0116740820999991977010614004+82500-062333SAO  +0067YLT  V0201801N000512200019N0160001N1-02601-03101102541ADDGD12991+0120093GD24991+0510093GF108991999999999999999999MA1102401101671MW1001REMAWY008SC2CI2 ?EQDQ01+999990APOSP 
0094725125047871977080322004+41183-078900SAO  +0554DUJ  V0202401N002512200019N0240001N1+02561+01331101781ADDGD12991+0090099GD23991+0750093GF107991999999999999999999MA1101861999999MW1001REMAWY005HAZY?
0057038840999991977070722004+50867+000333FM-12+001899999V0200301N00151220001CN0200001N9+01501+01301101581ADDAY101999GF100991001001999999001001MD1010051+9999MW1021
0083724288999991977040213074+40083-083067SAOSP+0276OSU  V0201701N00721002701EN0032001N1+99999+99999999999ADDGD14991+0027099GF108991999999999999999999MA1100681999999MW1801REMAWY009;OSU?1/2?
0082379850999991977091600004+38733+048833FM-12-001199999V0200701N00201021001CN0040001N9+01901+01801101141ADDAA199000091AY111999GF107991071001022501041001MD1210011+9999MW1031REMSYN005700//
0057311730999991977021715004+55650+136750FM-12+002999999V0203401N00101220001CN0500001N9-00601-01501100731ADDAY101999GF103991021041008001001011MD1710011+9999MW1021
0076313460999991977012718004+53783+136833FM-12+005299999V0201801N00101220001CN0500001N9-02701-03001103191ADDAY111999GF100991001001999999001001MD1410001+9999MW1011EQDQ01+000072SCOHCG
0092022060999991977070503004+63300+012133FM-12+064499999V0201201N00101220001CN0700001N9+01201+00701102321ADDAY101999GF104991011001022501031011MA1999999094821MD1210061+9999MW1031REMSYN01169482 00971
0057035951999991977113009304+52083+001400FM-15+0029EGVG V0203501N002010150019N0080001N1+99999+99999999999ADDGA1051+015009059GA2081+027009039MW1051REMMET007CIG050?
0070725526999991977101114004+40733-099000SAO  +0649EAR  V0203001N006112200019N0160001N1+00221-00161999999ADDGF100991999999999999999999MA1102471999999MW1001REMAWY011CLD BNK NE?
0033036911999991977051906504+51567+000700FM-15+0015EGMC V0200101N00611999991CY0099001N1+00801+00701999999REMMET005CAVOKEQDQ01+000000PRSWM2
0084161490999991977120221504+44017+012633FM-15+0012LIPR V0202901N00561010501CN0112001N1+00301+00001999999ADDGA1021+009009089GA2031+010509059MA1102001999999REMMET006NOSIG?EQDQ01+000000PRSWM2
0041062800999991977030517554+53133+006583FM-15+0005EHGG V0202501N00921006601CN0080001N1+00801+00501999999ADDGA1031+004509059GA2071+006609059MW1051
0064255950999991977092209004+64417-172250FM-12+000599999V0202701N00101220001CN0500001N9+00201+00001101471ADDAG12999AY121999GF106991021001999999031011MD1210051+9999MW1021
0051847820999991977032102004-18067-070267FM-15+0452SPTN V0209991C00001999991CY0099001N1+02001+01501999999ADDMA1101591999999REMMET005CAVOKEQDQ01+000000PRSWM2
0100576060999991977051221004+28850+105383FM-12+027499999V0209991C000019999999N0150001N9+01901+01701100351ADDAA124017091AY191999GF108991999999999999999999MD1310021+9999MW1801REMSYN0236//// 912// 99389 22017
0051160740999991977062614004+45783+009517FM-16+1262LIML V0209991C00001220001CN0112001N1+99999+99999999999ADDGA1031+009909089REMMET004BKN?EQDQ01+000000PRSWM2
0094038630999991977102802004+50667-001583AERO +008699999V0203501N00921030001CN0180001N9+99999+99999999999ADDAY121999GA1011+009009059GA2071+030009039GF107991999999999999999999MW1021EQDQ01+000003PRSWM2
0275727470149181977052901005+48567-093383SAO  +0359INL  V02099959000050274349N019200599+01725+01505100815ADDGD12995+9999999GD24995+9999999GD30995+9999999GD40995+9999999GF108085999999999999999999MA1999999096555MW1805EQDN01 02300JPWTH 1QNNE11 1 00299E11 1 00699E11 1 00099E11 1 00099G11 1 00090K11 1 00059L11 1 01200M11 1 28510N11 1 02300Q11 1 10081S11 1 00063V11 1 01010X11 1 00000
005194999900138197701242300N-21030+141800AUST +0144     V0200685N004659999999N999999999+02405+02205999999ADDGA1085+999999065GF108995084055999999999999MW1505
0072870160999991977062310004-23150-064317FM-12+0357SASO V0209991C00001002101CN0080001N9+00801+00701101691ADDAY151999GF108991081061002501999999MD1810251+9999MW1501REMSYN0061016.5
0097999999999991977111712004+15600+116900FM-13+0000SHIP V0200401N00511002101CN0100001N9+02651+01001100851ADDAY121999GF199999081041002501031001MD1210151+9999MW1021SA1+2759REMSYN0230//25 12755 0704  02810
0057424520999991977060606004+25150+075850FM-12+0273VIKO V0202701N00671220001CN0040001N9+04001+00401099971ADDAY101999GF100991001001999999001001MD1999999+0041MW1021
0084071490999991977012601304+48733+002400FM-15+0089LFPO V0202401N00721090001CN0112001N1+01001+00801999999ADDGA1021+006009059GA2061+090009039MA1099801999999REMMET006NOSIG?EQDQ01+000000PRSWM2
0095028970999991977042506004+64283+027683FM-12+0142EFKI V0201701N00721002101CN0200001N9+00501+00401099961ADDAA199999929AY161999GF106991061091002501001001KA1999N+00301MD1310161+9999MW1211REMSYN00579703
0069085150999991977100608004+36967-025167FM-15+0093LPAZ V0200301N00971004501CN0080001N1+01901+01501999999ADDGA1021+002109079GA2041+004509089MA1102101999999EQDQ01+000000PRSWM2
0069062900999991977061206294+52267+006900FM-15+0035EHTW V0201301N00101060001CN0080001N1+01701+01401999999ADDGA1011+009009089GA2061+060009009MA1101691999999MW1101REMMET004BLU?
0072876230999991977050814004-36567-064267FM-12+0190SAZR V0203201N00101036001CN0100001N9+01301+01301101331ADDAY121999GF108991081001999999071999MD1210331+9999MW1101REMSYN0061013%4
0114747320999991977101921004+32850-106100SAO  +1248HMN  V0202201N002012200019N0640001N1+02831+00171101191ADDAJ199999900000099GD12991+0180099GF102991999011999999001001MA1101661999999MD1610271+9999MW1001REMAWY009627 1100?
0076726357999991977091210004+42233-085550SAO  +0266AZO  V0201801N003612200019N0240001N1+01331+00721999999ADDGF100991999999999999999999MA1101931999999MW1001REMAWY017;AZO?9/2 9/3 9/4?
0117075020999991977121106004+44533-001133FM-12+0025LFBC V0201401N00211030001CN0120001N9+01201+01201101001ADDAA199000091AY111999GA1071+030009039GF107991071001999999071999KA1999N+01201MD1210121+9999MW1021REMSYN01170012 87360
0076162800999991977012419004+40917+012950FM-16+0184LIQZ V0203101N00301220001CN0112001N1+99999+99999999999ADDGA1021+004509089GA2031+024009039MW1101REMMET026QUK / QUL / VIS MAR 10 KM?
0076070200999991977022803004+49717-001933FM-12+000999999V0201201N00411036001CN0180001N9+00301-00201102781ADDGF108991081001999999071999MD1210201+9999MW1001UA1M990099999REMSYN00591837
028472640014839197701180500C+42950-087900SAO  +0205MKE  V0203005N007252200059N0240005N1-01835-02395101625ADDAA101000095GD10995+9999999GD20995+9999999GD30995+9999999GF100005999999999999999999MA1101421098925REMAWY010;MKE?1/76?EQDN01 00000JPWTH 1QNNE11 1 00099E11 1 00099E11 1 00099E11 1 00099G11U1 99999K11 1-00011L11 1 01500M11 1 29210N11 1 00000Q11 1 10162S11 1-00001V11 1 00000X11 1 30014
0095549360999991977012106004+35583+118833FM-12+010999999V0200701N00201090001CN0170001N9+00001-01501103521ADDAA199000091AY111999GF107991001001999999001021KA1999N-00801MD1710171+9999MW1031REMSYN005/0058
0088062500999991977123009004+53367+005217FM-12+002699999V0203201N01601220001CN0200001N9+00401+00201099611ADDAY181999GF104991041091002501001001MD1310111+9999MW1271OA199902201REMSYN01191143 91237
0057999999999991977010306004+57700+019900FM-13+0000SHIP V0202201N007719999999N0040001N9+00301+99999102611ADDAY121999GF108991081999999999999999MD1210101+9999MW1021
0079718750999991977122415004+49500-113950SAO  +1154WPC  V0203201N001512200019N0096001N1-02101-02401102771ADDGD16991+0001599GF110991999999999999999999MA1101661999999MD1310131+9999MW1451
0099711030999991977110716004+53033-122517SAO  +0545YQZ  V0203001N001512200019N0240001N1-00501-00601101681ADDGD12991+0150099GD22991+0660099GF102991999999999999999999MA1101391095001MW1001EQDQ01+999990APOSP 
0122999999999991977012906004+46400-028900FM-13+0000GOOB V0200401N00671220001CN0200001N9+00921+00701101511ADDAY111999GF101991011011004501001001MD1210301+9999MW1011SA1+1209UA1M040159999UG1070403009REMSYN0230//07 11202 30403 30708
0065722545999991977112111004+30200-097667SAO  +0165BSM  V0203501N00661007501MN0208001N1+01281+01111999999ADDGD14991+0075099GF108991999999999999999999MA1101901999999MW1171
0120999999999991977040118004-48200+071000FM-13+0000EWVW V0203001N01101002401CN0100001N9+00641+99999100831ADDAY121999GA1091+999999999GF109991091999999999999999MD1410001+9999MW1601SA1+0549UA1M040159999REMSYN01710544 30403 /////
0040404490999991977070311004+25350+055383FM-15+0002OMSJ V0202401N00561045001CN0080001N1+02701+01501999999ADDGA1081+045009039MA1099491999999MW1061
0119722175138601977091809004+32633-083600SAO  +0090WRB  V0201701N00151000601MN0032001N1+02171+02061101701ADDAJ199999900000099GD14991+0006099GF108991999061999999999999MA1101731999999MD1610081+9999MW1451REMAWY014608 16// WR//?
0057287220999991977052315004+54750+056000FM-12+019799999V0203601N00401075001CN0200001N9+01501+00901999999ADDAY121999GF108991031001999999031071MD1310041+9999MW1021
0149346550999991977101306004+47633+043150FM-12+004999999V0201401N00101220001CN0200001N9+00501+00001102641ADDAA199000091AG10999AJ100009199999999AY101999GF101991011001999999041001IA1139IA2999-00209KA1999N-00201MD1210021+9999MW1031REMSYN01770052 25230 06544
0082286370999991977013012004+55000+057983FM-12+040299999V0209991C00001220001CN0200001N9-01501-02201104041ADDAA199000091AY121999GF104991001001999999001021MD1310061+9999MW1031REMSYN005700//
0102299060999991977122815004+52917+077417FM-12+011299999V0202501N00201220001CN0500001N9-03101-03301103421ADDAA199000091AG14000AY101999GF100991001001999999001001KA1999M-02601MD1210081+9999MW1021REMSYN00570076
0040103820999991977081822504+52567+013317FM-15+0037EDBT V0201101N00101220001CN0070001N1+01501+01301999999ADDGA1021+018009059MW1101REMMET006NOSIG?
0043872170999991977100715004-29383-066817FM-12+0431SANL V0209991C00001220001CN0130001N9+02901+01301099861ADDAY101999GF100991001001999999001001MW1061
0126484800999991977091806004+12600+102117FM-12+000399999V0201801N00101007501CN0100001N9+02901+02501100711ADDAA106999929AY191999GF107991051091008001001061MD1999999+0041MW1021UA1M992509999REMSYN01739750 400// 92997EQDQ01  99993PRCP99
0092528760999991977031921004+36333+102800FM-12+182899999V0202901N00101090001CN0120001N9+00101-01101999999ADDAY121999GF108991001001999999001071MA1999999082041MD1999999-0011MW1021REMSYN01168204 05102
0057107630999991977100300204+49500+011083FM-15+0319EDDN V0202801N00771009001CN0112001N1+00701+00501999999ADDGA1021+006009089GA2031+009009059GA3071+013509059MW1251
007494377099999197706230500N-24870+151130AUST +0251     V0200905N002659999999N999999999+02155+01605999999ADDAY154999GA1065+007505065GF106995064055007505999999MA1999999098735MW1015
0061725076999991977050700004+42817-070867SMARS+000135B  V0200501N001519999999N0055001N9+01551+99999099721ADDGF107991999999999999999999MW1051REMSYN017MERRIMAC    RIVER
0130261670999991977111609004+58567+029800FM-12+009399999V0201801N00701002401CN0140001N9+00401+00201097901ADDAG12004AY161999GA1081+002409049GF108991999071002501021999MD1310171+9999MW1611OA199901601REMSYN01188508 91116EQDQ01+000082SCOTLC
0131999999999991977010400004+40100+166000FM-13+0000UYJE V0203401N00501004201CN0040001N9+00251+99999098541ADDAY171999GF107991071051004501051001MD1410001+9999MW1221SA1+0309UA1M060359999UG1060053609WA1900009REMSYN02310305 20000 30607 36601
0041476580999991977062813254+34800+138300FM-15+0007RJNY V0200601N00151009001CN0070001N1+99999+99999999999ADDGA1011+003009089GA2081+009009059MW1611
0059333460999991977022222304+50350+030917FM-15+0125UKBB V0202701N00101030001CN9999999N9+00201+00201999999ADDGA1051+030009039MA1101291999999MW1101EQDQ01+000002VOVAR 
0121039690999991977122604004+53433-006250SY-MT+0068EIDW V0202301N00611220001CN0112001N1+00701+00601102021ADDAY151999GA1021+004809079GA2031+010509059GF104991041051004501001001MD1710091+9999MW1201REMSYN01182716 83635MET006NPSIG?
043872797094240197702100300C+47950-124550SAO  +0055UIL  V0201605N00265002744MN0048005N1+00945+00785101655ADDAA101000095AA206001091GA1999+002744134GD14085+0027099GD20995+9999999GD30995+9999999GD40995+9999999GF108085999071999999999999MA1101631100885MD1710341+9999MW1455MW2615OC100771REMAWY045RB50 CIG RGD G20 PAST HR     ?    73403 17//?EQDQ01+999990APOSP Q02  00103PRCP99N01 02070JPWTH 1QNNE11 1 00610E11 1 00099E11 1 00099E11 1 00099G11 1 00009H11 1 13009K11 1 00046L11 1 00300M11 1 29790N11 1 02070Q11 1 10165S11 1 00049V11 1 01010X11 1 16005
0269747188231581977050619005+33617-114717SAO  +0119BLH  V0202005N005252200059N064000599+02175+00175100775ADDGD12995+9999999GD22995+9999999GD30995+9999999GD40995+9999999GF104035999999999999999999MA1999999099395EQDN01 00000JPWTH 1QNNE11 1 00299E11 1 00299E11 1 00099E11 1 00099G11U1 99999K11 1 00035L11 1 04000M11 1 29350N11 1 00000Q11 1 10077S11 1 00071V11 1 00504X11 1 20010
0094031450999991977081411004+55867-004267AERO +001799999V0200801N00361008401CN0070001N9+01701+01401999999ADDAY161999GA1031+003309079GA2081+008409059GF108991999999999999999999MW1611EQDQ01+000003PRSWM2
0057936140999991977022117004-42717+170983FM-12+0045NZHK V0209991C00001015001CN0500001N9+01401+01001101051ADDAY121999GF107991071051017501999999MD1210141+9999MW1021
0139423980999991977071203004+26683+088333FM-12+0126VEBD V0200701N00211027001CN0040001N9+02901+02501100461ADDAA124000091AY121999GA1011+004509059GA2051+027009039GF107991031081004501031011KA1999N+02501MD1999999+0001MW1021REMSYN01770025 81615 85359
0075386110999991977051603004+40983+071583FM-12+046599999V0201101N00301036001CN0100001N9+02101+00601100961ADDAY111999GF106991061001999999031001MD1610021+9999MW1031REMSYN009700+5 :--
0131038940999991977031008004+49433-002600FM-12+0102EGJB V0201801N01081036001CN0220001N9+00801+00701101451ADDAY121999GA1011+009009059GA2061+036009039GA3071+066009029GF107991011051012501071081MD1710291+9999MW1021REMSYN01781630 86362 87272
0106317070999991977011700004+47733+130967FM-12+007499999V0209991C00001220001CN0500001N9-02901-03101102551ADDAA199000091AY101999GF100991001001999999001001IA1319IA2999-03209MD1410001+9999MW1021REMSYN01170077 28291
0094104380999991977080307004+51317+009483AERO +015899999V0201801N00101003601CN0022001N9+01301+01201999999ADDAY121999GA1061+003609079GA2071+012009059GF108991999999999999999999MW1101EQDQ01+000003PRSWM2
0086409740999991977060306004+32367+062183FM-12+070099999V0203201N00311220001CN0200001N9+03501+01101100151ADDAY101999GF100991001001999999001001MA1999999093081MD1110071+9999MW1021REMSYN00569308
0055161490999991977111106204+44017+012633FM-15+0012LIPR V0209991C00001000601CN0001001N1+00901+00901999999ADDGA1091+000609999MA1102711999999MW1451REMMET006NOSIG?
0078105260999991977122610004+50667+007967AERO +054799999V0202401N00361001501CN0150001N9+00201+00201999999ADDAY161999GA1071+001509089GF108991999999999999999999MW1611EQDQ01+000003PRSWM2
0127094880999991977080106004+51133+013767SY-MT+0230ETDN V0203301N00601001501CN0030001N1+01301+01201101001ADDAJ100009199999999AY121999GA1071+001509079GF108991071071001501999999MD1310111+9999MW1611REMSYN01121220 70612MET011TEMPO 2000?
010172779024146197712300200D+48300-114267SAO  +0905FCA  V0200401N00361003001WN0024001N1-00601-01051101601ADDAA101000595GD15991+0030099GF109991999999999999999999MA1101151090731MW1451MW2711EQDQ01+999990APOSP 
0099060600999991977031504504+56283+009133FM-15+0052EKKA V0202101N00661021001CN0112001N1+00501+00501999999ADDGA1011+002409079GA2031+003009059GA3071+021009039MA1101291999999REMMET0052994?EQDQ01+000000PRSWM2
0043037910999991977112200004+51450+000750FM-12+000499999V0203301N015419999999N0260001N9+99999+99999098581ADDAY161999GF105991999999008001999999MW1011
0152878960999991977072818004-47733-065917FM-12+0081SAWD V0201801N00261000601CN0050001N9+00301+00201100531ADDAA106001091AY171999GA1061+000609079GA2081+005409049GF108991051071001501021999MD1710261+9999MW1611REMSYN024701// 86702 88518 1005%0EQDQ01  00103PRCP99
0080722286938061977110214004+33233-087617SAOSP+0051TCL  V0200901N00721009001EN0112001N1+01671+01111101271ADDGD13991+0090099GD24991+0300099GF108991999999999999999999MA1101291999999MW1001
0080764055999991977030916004+24067-110333SAO  +0014LAP  V0209991C000012100019N0240001N1+02201+01201999999ADDGD12991+0300099GD23991+2100099GF107991999999999999999999MW1001REMAWY00602800?
005994999900096197703022230N-33500+135330AUST +0037     V0200455N003159999999N999999999+02205+01405999999ADDAY124999GA1005+999999999GF100995004999999999999999MW1025
0050722085938311977110807004+32483-080717SAO  +0012NBC  V0209991C000012200019N0080001N1+01441+01171101201ADDGF100991999999999999999999MA1097771999999MW1051
0071134520999991977112316004+42567+018267FM-15+0161LYDU V0200301N00771012901CN0112001N1+01001+00301999999ADDGA1051+012909059GA2071+024009049MA1101191999999MW1601REMMET006NOSIG?
0050722085938311977091401004+32483-080717SAO  +0012NBC  V0201201N002012200019N0096001N1+02561+02221101631ADDGF100991999999999999999999MA1101631999999MW1051
0287725036147571977051703003+41633-073883SAO  +0048POU  V0202205N002652200059N0320005N1+01395+00835102005ADDGD10995+9999999GD20995+9999999GD30995+9999999GF100005999999999999999999MA1102001101395MD1510031+9999MW1001REMAWY004503?EQDN01 00000JPWTH 1QNNE11 1 00099E11 1 00099E11 1 00099E11 1 00099G11U1 99999K11 1 00047L11 1 02000M11 1 29940N11 1 00000Q11 1 10200S11 1 00057V11 1 00000X11 1 22005
0057443730999991977031615004+43583+104417FM-12+146999999V0203201N00701007501CN0005001N9-00501-00501102811ADDAY171999GF108991081051008001999999MD1210221+9999MW1331
007494822099999197708122330N-35850+138130AUST +0057     V0202705N002659999999N999999999+01005+00905999999ADDAY114999GA1035+006005085GF103995034025006005999999MA1999999101615MW1025
0093020840999991977062121004+57717+011783FM-12+0008ESGB V0203101N00101220001CN0600001N9+01601+00801101651ADDAY111999GA1021+075009009GF102991001001999999001021MD1610021+9999MW1011REMSYN01182075 00959
0057228370999991977082709004+61017+036450FM-12+005999999V0201601N00101220001CN0500001N9+01701+00601102121ADDAY101999GF104991001001999999001021MD1810051+9999MW1021
0086727550999991977052315004+47500-094933FM-12+0425BJI  V0202501N00771001201CN0060001N9+01401+01301101251ADDAY151999GF108991081071001501999999MA1999999096301MD1210361+9999MW1511REMSYN00569630
0083723816031591977051907004+34733-118217SAO  +0728WJF  V0202601N00561048001EN0240001N1+01281-00161101591ADDGD13991+0480099GF107991999999999999999999MA1101691999999MW1001REMAWY009;WJF?5/1?
0064317660999991977121818004+48650+138983FM-12+038299999V0209991C00001036001CN0034001N9-01701-01801101291ADDAG12004AY171999GF108991081001999999011999MD1310021+9999MW1731
0050722786231041977040817004+33317-111650SAO  +0422IAW  V0201401N002012200019N1280001N1+02611-00381999999ADDGF100991999999999999999999MA1102101999999MW1001
0071108530999991977070419524+48717+011217FM-15+0380EDSU V0200401N00101220001CN0112001N1+02101+01301999999ADDGA1041+075009009MA1101291999999REMMET009BLU+BLU+?EQDQ01+000000PRSWM2
030272217003813197703192200C+32700-083650SAO  +0108MCN  V0200205N005250243849N0128005N1+02335+01615100995ADDAA101000095GD12995+0120099GD23995+0240099GD30995+9999999GD40995+9999999GF106065999999999999999999MA1101051099735MW1001EQDQ01+999990APOSP N01 00000JPWTH 1QNNE11 1 00299E11 1 00499E11 1 00099E11 1 00099G11 1 00080K11 1 00061L11 1 00800M11 1 29450N11 1 00000Q11 1 10099S11 1 00074V11 1 00808X11 1 02010
032572214093805197703242200C+30383-084367SAO  +0017TLH  V0202505N002650762049N0160005N1+02225+00005101825ADDAA101000095GD12995+0360099GD24995+0750099GD30995+9999999GD40995+9999999GF108085999999999999999999MA1101831101595MW1001REMAWY014;TLH?1/9 3/15?EQDQ01+999990APOSP N01 00000JPWTH 1QNNE11 1 00299E11 1 00699E11 1 00099E11 1 00099G11 1 00250K11 1 00032L11 1 01000M11 1 30000N11 1 00000Q11 1 10182S11 1 00072V11 1 01010X11 1 25005
049572539014836197704061800C+42783-084600SAO  +0256LAN  V0203105N00885012194EN0192005N1+00065-01065101835ADDAA101000095AA206999929GA1999+012194064GA2999+999999999GA3999+999999999GA4999+999999999GD13065+0120099GD20005+9999999GD30005+9999999GD40005+9999999GF106065999041999999001991KA1999N-00391MA1101731098585MD1210241+9999MW1001OC101281REMAWY030PK WND 3127/30 /22400 1400 25?EQDQ01  99993PRCP99N01 00000JPWTH 1QNNE11 1 00408E11 1 00000E11 1 00000E11 1 00000G11 1 00040H11 1 15040H11 1 00999H11 1 00999H11 1 00999K11 1 00013L11 1 01200M11 1 29110N11 1 00000Q11 1 10183S11 1 00033V11 1 00808X11 1 31017
0050726487999991977070211474+45117-087633SAOSP+0189MNM  V0209991C000012200019N0240001N1+01391+01171999999ADDGF100991999999999999999999MA1101901999999MW1001
0081723816031591977042205004+34733-118217SAO  +0728WJF  V02099999999992200019N0240001N1+01781+99999101741ADDGD13991+0750093GF107991999999999999999999MW1001REMAWY022320/2909/009;WJF?3/12?
0118943130999991977102101003-22233+118333FM-12+046099999V0201401N00101220001CN0500001N9+03201+00401101211ADDAA124000091AY101999GA1005+999999999GF100991001001999999001001MA1999999096105MW1025REMSYN00567000EQDQ01  00003PRCP99
0134729280999991977010315004+52383-114917SAO  +1001YRM  V0209991C000010240019N0320001N1-01101-01201101211ADDGD12991+0090099GD24991+0240099GF108991999999999999999999MA1100581089021MD1310041+9999MW1701REMAWY012SC5AC5 304 ?EQDQ01+999990APOSP 
0105717995999991977100701004+48367-123750SAO  +0031WIR  V0209991C00001004501EN0128001N1+01001+00801101341ADDGD13991+0045099GD24991+0240099GF108991999999999999999999MA1101351999999MW1611REMAWY016SC9AC1 WSP0000 ?
0092166410999991977120107504+39617+019917FM-15+0002LGKR V0203601N00251006001CN0112001N1+01801+01401999999ADDGA1021+002409079GA2051+006009089MA1100911999999OC100771REMMET006NOSIG?EQDQ01+000000PRSWM2
0140512410999991977121406004+45917+083600FM-12+091499999V0200401N00401220001CN0200001N9-01501-01801105031ADDAA106999929AA299000191AG10002AY171999GF104991001001999999001021KA1999N-01701MA1999999090751MD1210081+9999MW1761REMSYN01769075 /9167 01659
0080725038147141977031903004+41500-074100SAO  +0143SWF  V0200301N003010045019N0112001N1-00211-00431999999ADDGD12991+0027099GD24991+0045099GF108991999999999999999999MA1099221999999MW1001
0170718920999991977082815004+49183-123167SAO  +0003YVR  V0200601N003010045019N0020001N1+01401+01301101211ADDGD12991+0009099GD22991+0021099GD34991+0045099GF108991999999999999999999MA1101221101181MD1610021+9999MW1041MW2451MW3511MW4611REMAWY015SF3SF2SC5 602 ?EQDQ01+999990APOSP 
0064573780999991977121321004+31167+112567FM-12+006699999V0203401N005019999999N0050001N9+00501+00401102311ADDAG12000AY121999GF108991001001999999071999MD1710131+9999MW1101
0095850330999991977061412004-10800-065400FM-12+0170SLGY V0209991C00001021001CN0500001N9+02201+02101101361ADDAA124000091AY111999GF106991061001022501031001KA1999N+02101MD1310081+9999MW1021REMSYN00570021
011072654014936197701260100D+44383-098217SAO  +0392HON  V0202301N00411013501EN0160001N1-00211-00601100651ADDAA101000095GD13991+0135099GD24991+0360099GF108991999999999999999999MA1100471095881MW1001EQDQ01+999990APOSP 
0039163200999991977062503504+40650+017950FM-15+0015LIBR V0209991C00001220001CN0080001N1+01701+01601999999ADDMA1101691999999MW1101REMMET006NOSIG?
0116408000999991977051000004+32617+051667SY-MT+1598OIFF V0209991C00001220001CN0099001N1+01601+00101999999ADDAY101999GF100991001001999999001001MA1101901999999MD1710061+9999MW1021REMSYN00561507MET005CAVOKEQDQ01+000000PRSWM2
0041033230999991977071109504+53333-002850FM-15+0026EGGP V0201601N00251075001CN0030001N1+01701+01201999999ADDGA1031+003609059GA2041+075009009MW1041
0084071490999991977121122304+48733+002400FM-15+0089LFPO V0202001N00411015001CN0112001N1+01001+00901999999ADDGA1021+003909059GA2071+015009059MA1101801999999REMMET006NOSIG?EQDQ01+000000PRSWM2
0067102150999991977091810444+53183+008167FM-15+0012EDNO V0200601N00251220001CN0112001N1+01301+00401999999ADDGA1031+010509089MA1102711999999REMMET005BLU+?EQDQ01+000000PRSWM2
0071483540999991977010509004+17383+102800FM-12+0177VTUD V0200401N00261220001CN0090001N9+02401+01401101481ADDAY111999GF102991011011012501041051MD1999999-0141MW1051REMSYN005446//
0102336630999991977111318004+48450+027783FM-12+007999999V0209991C00001036001CN0100001N9+00901+00501100741ADDAA199000391AG13000AY121999GF108991081001999999071999KA1999M+01401MD1210151+9999MW1021REMSYN00579314
0057215410999991977091415004+74883+142200FM-12+001099999V0200401N00401007501CN0230001N9-00401-00401099881ADDAY121999GF107991071051008001001001MD1310021+9999MW1021
048570326025503197705240300C+58683-156650SAO  +0017AKN  V0202105N00725005184MN0320005N1+00565+00175099595ADDAA101000095AA299999929GA1999+005184064GA2999+006104094GA3999+060964004GD13065+0051099GD23025+0060099GD34015+0600099GD40995+9999999GF108085999091999999001991MA1099561099395MD1510101+9999MW1001REMAWY084CB N MOVG        ?     N TCU W-NW AND E-SE RWU N-NW AND SE MAG19 7SC2CB/ 51000 1903?EQDN01 00000JPWTH 1QNNE11 1 00407E11 1 00402E11 1 00601E11 1 00099G11 1 00017H11 1 15017H11 1 18020H11 1 32200K11 1 00035L11 1 02000M11 1 29350N11 1 00000Q11 1 09959S11 1 00042V11 1 01010X11 1 21014
0127107750999991977081710004+49217+011833FM-15+0442EDIH V0201201N003610360019N0090001N1+02101+01501999999ADDAJ199999900000099GA1021+024009039GA2041+036009999GA3051+060009029MA1101391999999MW1051REMMET029CIG120     ?     RERA PRESFR?
0058165600999991977032523504+39250+009050FM-15+0004LIEE V0209991C00001999991CY0099001N1+01001+00901999999ADDMA1102101999999REMMET012CAVOK NOSIG?EQDQ01+000000PRSWM2
0050724935999991977091321054+37650-122117SAOSP+0015HWD  V0202901N007712200019N0240001N1+99999+99999999999ADDGF100991999999999999999999MA1101561999999MW1001
0066161050999991977032507204+45500+012333FM-15+0002LIPZ V0209991C00001060001CN0011001N1+01001+00801999999ADDED199U01219GA1061+060009029MA1101801999999MW1101REMMET006NOSIG?
0177161900999991977041209004+43617+013517SY-MT+0103LIVA V0203601N00621069001CN0160001N1+00901+00001101491ADDAY111999GA1011+007509089GA2071+069009009GF108991011021008001001021MD1310151+9999MW1031REMSYN02581825 97066 QUK3  QUL3  NMET029OVC QUK3 QUL3 N VIS MAR 16KM?EQDQ01+000000PRSWM2
0128039530999991977032705004+51933-010250FM-12+000999999V0200501N00771004201CN0050001N9+00901+00701100821ADDAY161999GA1061+004209079GA2081+009009059GF108991081061004501999999MD1310091+9999MW1601UA1M990039999REMSYN01786714 88630 91826
0072877500999991977051419004-38733-062183FM-12+0074SAZB V0201801N00621220001CN0200001N9+01401+00201101471ADDAY101999GF103991021081008001041001MD1710131+9999MW1031REMSYN0061013.7
0122999999999991977070300004+05100+094600FM-13+0000GYKA V0203301N00621007501CN0500001N9+02881+02401100801ADDAY121999GF107991061021008001021001MD1410001+9999MW1021SA1+2879UA1M020059999UG1050052409REMSYN0230//24 12878 30201 24501
0124741380999991977031513004+51267-102467SAO  +0498YQV  V0203001N008210057019N0024001N1-00501-01001101371ADDGD16991+0001599GD24991+0057099GF108991999999999999999999MA1101081095241MW1711REMAWY016S4SC6 DRFTG SNW?EQDQ01+999990APOSP 
0269725450149901977121301005+41883-091700SAO  +0256CID  V0201805N004650076249N016000599+00285-00395100965ADDGD14995+9999999GD20995+9999999GD30995+9999999GD40995+9999999GF108085999999999999999999MA1999999097735EQDN01 00000JPWTH 1QNNE11 1 00699E11 1 00099E11 1 00099E11 1 00099G11 1 00025K11 1 00025L11 1 01000M11 1 28860N11 1 00000Q11 1 10096S11 1 00037V11 1 01010X11 1 18009
0051607400999991977082620504+35750+010750FM-15+0002DTTM V0201601N00611999991CY0099001N1+02601+01901999999ADDMA1101391999999REMMET005CAVOKEQDQ01+000000PRSWM2
0017716268999991977102201004+43833-077150SAO  +0081WQP  V02099999999999999999N0064001N9+99999+99999101921ADDMD1210051+9999
031370273026451197705131100C+61167-150017SAO  +0048ANC  V02099959000052200059N0320005N1+00175-00115100855ADDAA101000095GD10995+9999999GD20995+9999999GD30995+9999999GF100005999999999999999999MA1100811100375MW1001REMAWY017RWY 06R WND 3205?EQDQ01+999990APOSP N01 00000JPWTH 1QNNE11 1 00099E11 1 00099E11 1 00099E11 1 00099G11U1 99999K11 1 00030L11 1 02000M11 1 29640N11 1 00000Q11 1 10085S11 1 00035V11 1 00000X11 1 00000
0094104300999991977032510004+51783+008833AERO +015199999V0202901N00361005401CN0040001N9+00901+00601999999ADDAY121999GA1031+003009089GA2061+005409059GF107991999999999999999999MW1101EQDQ01+000003PRSWM2
034172544014923197704011900C+41450-090500SAO  +0177MLI  V0201505N009350609649N0112005N1+01395+00395101175ADDAA101000095GD12995+0300099GD23995+0600099GD30995+9999999GD40995+9999999GF106045999999999999999999MA1101151098985MW1001OC101281REMAWY022PK WND 1527/40 PRESFR?EQDQ01+999990APOSP N01 00000JPWTH 1QNNE11 1 00299E11 1 00499E11 1 00099E11 1 00099G11 1 00200K11 1 00039L11 1 00700M11 1 29230N11 1 00000Q11 1 10117S11 1 00057V11 1 00705X11 1 15018
0441745060232391977061600003+37733-122317SAO  +0005NGZ  V0202805N006252200059N0400005N1+01565+01175101645ADDGA1999+076204004GA2999+999999999GA3999+999999999GA4999+999999999GD11025+0750093GD20005+9999999GD30005+9999999GD40005+9999999GF102015999061999999001991KA1999M+01721MA1101631101525MD1710101+9999MW1001REMAWY022ST SW-NE/ 710 1601 63?EQDN01 00000JPWTH 1QNNE11 1 00102E11 1 00000E11 1 00000E11 1 00000G11U1 99999H11 1 32250H11 1 00999H11 1 00999H11 1 00999K11 1 00053L11 1 02500M11 1 29980N11 1 00000Q11 1 10164S11 1 00060V11 1 00201X11 1 28012
0038036731999991977102702204+51883-000367FM-15+0160EGGW V0202001N00301006001CN0112001N1+01001+00901999999ADDGA1071+006009059EQDQ01+000000PRSWM2
0095661600999991977031806004-08850+013233FM-12+0074FNLU V0209991C000019999999N0200001N9+02501+02401100821ADDAA124000591AY121999GF106991011021999999071999KA1999N+02401MD1999999-0191MW1011REMSYN00579424
0082126250999991977072000004+49300+019950FM-12+086099999V0209991C00001012001CN0200001N9+00801+00701999999ADDAA199000091AY111999GF106991061051012501999999MD1110061+9999MW1031REMSYN005700//
0058171290999991977083122004+39950+032683FM-15+0799LTAD V0200501N00611999991CY0099001N1+01601+00801999999ADDMA1101591999999REMMET012CAVOK NOSIG?EQDQ01+000000PRSWM2
0114570670999991977071806004+34050+111033FM-12+057099999V0200401N00301012001CN0210001N9+02501+02101100761ADDAA106999929AY161999GF108991051091012501021999KA1999N+02201MD1710051+9999MW1171REMSYN005/9722EQDQ01  99993PRCP99
0057246390999991977010709004+63283+118333FM-12+012999999V0209991C00001220001CN0002001N9-04701-05001102981ADDAY141999GF100991001001999999001001MD1210091+9999MW1441
0065722868999991977030623004+33833-116500SAO  +0146PSP  V0200901N003012200019N0480001N1+99999+99999999999ADDGD12991+0900093GF102991999999999999999999MA1102371999999MW1001
006572475723176197712120900E+38433-113017SAO  +1532MLF  V02099999999999999999N999999999+00615+99999101275ADDAA101000095MA1999999084395QNNM11 1 24920Q11 1 10127S11 1 00043
0374700260275021977083103003+71300-156783SAO  +0012BRW  V0202305N00675003054MN0048005N1+01005+00895101175ADDAA106001091GA1999+003054074GD14085+0030099GD20995+9999999GD30995+9999999GD40995+9999999GF108085999999999999999999MA1101151101125MD1710121+9999MW1455MW2615REMAWY01610ST 71204 16//?EQDQ01  00103PRCP99N01 02070JPWTH 1QNNE11 1 00610E11 1 00099E11 1 00099E11 1 00099G11 1 00010H11 1 16010K11 1 00048L11 1 00300M11 1 29860N11 1 02070Q11 1 10117S11 1 00050V11 1 01010X11 1 23013
0122999999999991977020112004+41300-126700FM-13+0000NNHB V0200101N00411220001CN0200001N9+01331+00201102541ADDAY111999GF103991011051004501031999MD1610141+9999MW1011SA1+1229UA1M000009999UG1070203009REMSYN0230//02 11223 30000 30704
0177600350999991977032418004+28450-013867SY-MT+0023GCFV V0201301N00311220001CN0250001N1+01901+01201101621ADDAA199000091AY121999GA1011+007509089GA2021+075009029GF103991011081008001001021KA1999M+02001MA1101592999999MD1810071+9999MW1011REMSYN00570020EQDQ01+030003APOA  Q02+000000PRSWM2
0095722886231301977022315004+34217-018483SAO  +0244VNY  V0203001N002510180019N0160001N1+01111+99999999999ADDGD12991+0051099GD23991+0180099GD34991+0300099GF108991999999999999999999MA1101931999999MW1801
0064309570999991977121806004+50283+113283FM-12+073499999V0202001N00201220001CN0500001N9-01601-02201102331ADDAG11000AY101999GF103991001001999999001021MD1810141+9999MW1021
0102290230999991977121112004+59933+081983FM-12+007699999V0209991C00001220001CN0080001N9-03901-04101103381ADDAA199000091AG14000AY101999GF100991001001999999001001KA1999M-03601MD1710071+9999MW1041REMSYN00570086
034572422093820197707081100C+38033-084600SAO  +0302LEX  V0201905N002652200059N0016005N1+02395+02335101465ADDAA101000095GD12995+0750099GD20995+9999999GD30995+9999999GD40995+9999999GF101015999999999999999999MA1101561098005MW1055MW2111MW3445REMAWY022R04VRNO;LEX?7/12 7/13?EQDQ01+999990APOSP N01 07281JPWTH 1QNNE11 1 00299E11 1 00099E11 1 00099E11 1 00099G11U1 99999K11 1 00074L11 1 00100M11 1 28940N11 1 07281Q11 1 10146S11 1 00075V11 1 00101X11 1 19005
0367702000266171977052812003+64500-165433SAO  +0004OME  V0201905N00265004574MN0320005N1-00225-00615101635ADDGA1999+004574064GD14085+0045099GD20995+9999999GD30995+9999999GD40995+9999999GF108085999051999999999999MA1101631101565MD1210081+9999MW1001REMAWY026208 15// 43128 RADAT ZERO?EQDQ01+999990APOSP N01 00000JPWTH 1QNNE11 1 00610E11 1 00099E11 1 00099E11 1 00099G11 1 00015H11 1 15015K11 1 00021L11 1 02000M11 1 29990N11 1 00000Q11 1 10163S11 1 00028V11 1 01010X11 1 19005
0086727550999991977103100404+47500-094933SAOSP+0425BJI  V0201301N00771002401MN0064001N1+00831+00721999999ADDGD13991+0024099GD24991+0045099GF108991999999999999999999MA1100811999999MW1451MW2611
0069844720999991977062523004-07133-078517FM-15+2620SPJR V0200601N00771015001CN0112001N1+01501+00901999999ADDGA1031+012009089GA2031+015009059MA1101801999999EQDQ01+000000PRSWM2
0053784850999991977010507004+18433-069667FM-15+0014MDSD V0200601N00301220001CN0112001N1+02201+02101999999ADDGA1011+006009089MA1101491999999EQDQ01+000000PRSWM2
0095355420999991977042615004+48617+061267FM-12+011499999V0200701N00201090001CN9999999N9+02201-00601102071ADDAA199000091AY121999GF107991001001999999001051KA1999M+02601MD1610041+9999MW1021REMSYN00570026
0186130080999991977060106004+46383+013850FM-12+251999999V0203601N00511000151CN0000001N9-00501-00601999999ADDAA199007091AJ103309199999999AL10600891AY171999GA1091+999999999GF109991091999999999999999KA1999N-00501MA1999999074931MD1210021+9999ME1430519MW1771REMSYN02967493 70755 99507 99683 92218
0106724565139201977061420004+38950-095667SAO  +0324FOE  V0200801N002012200019N0080001N1+02831+02001999999ADDGD12991+0075099GD22991+0750099GF102991999999999999999999MA1101931999999MW1051REMAWY017WND LGT AND VRBL?
0113999999999991977081612004+35400-019300FM-13+0000UYOM V0200701N00701220001CN0200001N9+02541+99999102641ADDAY101999GF102991011011008001001091MD1310091+9999MW1021SA1+2509UA1M990059999WA1900009REMSYN01712504 20000 3//01
0053035340999991977081211204+52450-001733FM-15+0099EGBB V0202701N00201220001CN0112001N1+01801+01101999999ADDGA1041+007509089REMMET006NOSIG?EQDQ01+000000PRSWM2
0111747320999991977092305004+32850-106100SAO  +1248HMN  V0201601N00511015001EN0640001N1+02391+01671999999ADDAJ199999900000099GD13991+0150099GD24991+0360099GF108991999999999999999999MA1101461999999MW1001REMAWY005WR//?
0088041650999991977091400004+66483-046283FM-12+213499999V0201201N00821220001CN0240001N9-01601-02701999999ADDAY101999GF100991001001999999001001MA1103761078261MW1021REMSYN02167826 46066 QNH   064
0118725957242151977092518003+41317-122317SAO  +1078MHS  V0201605N002659999999N9999999N9+01675+00505101305ADDMA1101421088965REMAWY014PK WND 11 000?EQDQ01+000002VOVAR QNNK11 1 00041M11 1 26270Q11 1 10130S11 1 00062X11 1 16005
0064062900999991977101607294+52267+006900FM-15+0035EHTW V0201101N00201066001CN0003001N1+00601+00501999999ADDED199U07929GA1051+066009009MA1102001999999MW1421REMMET004RED?
0065727926999991977061217004+46483-122800SAO  +0113TDO  V0203201N00201006601EN0400001N1+01281+00831101911ADDGD14991+0066099GF108991999999999999999999MA1101901999999MW1001
0177729290999991977032612004+68750-109067SY-SA+0109YUK  V0201201N009812200019N0032001N1-02201-02401101971ADDAJ100239199999999AY111999GD12991+0060099GF103991031051008001001001KA1999M-02201KA2999N-02501MA1101801100441MD1810111+9999MW1381REMSYN01763044 90422 47275AWY015SC4 811 -6944-?
028672536094830197711210500E+41600-083800SAO  +0204TOL  V0202205N007250024449N001600599+01335+01115101455ADDAA101000895GD14995+9999999GD20995+9999999GD30995+9999999GD40995+9999999GF108085999999999999999999MA1999999098925MW1805EQDN01 02300JPWTH 1QNNE11 1 00699E11 1 00099E11 1 00099E11 1 00099G11 1 00008K11 1 00052L11 1 00100M11 1 29210N11 1 02300Q11 1 10145S11 1 00056V11 1 01010X11 1 22014
0068033340999991977082420504+53350-002267FM-15+0078EGCC V0201701N00561220001CN0112001N1+01501+01301999999ADDGA1011+006009059MA1099591999999REMMET006NOSIG?EQDQ01+000000PRSWM2
0139072600999991977040806004+47000+003100FM-12+0180LFQG V0200201N00511001801CN9999999N9+00201+00101101001ADDAA199000491AY161999GA1071+001809079GA2081+006909059GF108991081051001501999999KA1999N+00201MD1310071+9999MW1681REMSYN01779402 87706 88623
0134710790999991977092720004+55800-097867SAO  +0222YTH  V0200701N004110270019N0240001N1+00901+00501101581ADDGD12991+0045099GD23991+0270099GD34991+0750099GF108991999999999999999999MA1101491098931MW1001REMAWY011SF1AC5CI4 ?EQDQ01+999990APOSP 
0050727928999991977091003354+47483-122767SAOSP+0147PWT  V0202101N002012200019N0240001N1+01391+01001999999ADDGF100991999999999999999999MA1101831999999MW1001
0131476350999991977103003004+35250+136933FM-15+0016RJNN V0209991V00201090001CN0070001N1+02401+01501999999ADDGA1011+010509089GA2061+999999009MA1102511999999MW1051REMMET0663028 FCST 0309         ?     VRB03 7000 05HZ 1CU035 2AC120 6CI270?
0117072490999991977042715004+47983+001750SY-MT+0126LFOJ V0203301N00301220001CN0099001N1+01401+00201101951ADDAY101999GA1031+015009089GF103991031081017501001001MD1610111+9999MW1011REMSYN00583850MET005CAVOKEQDQ01+000000PRSWM2
0080722067938321977011402004+30217-081883SAO  +0024NZC  V0200101N003610750019N0096001N1+01061+00721102451ADDGD12991+0300099GD24991+0750099GF108991999999999999999999MA1102471999999MW1051
0087105445999991977121312454+50550+009650FM-15+0305EDEX V0202201N002010048019N0060001N1+99999+99999999999ADDGA1031+002709079GA2051+004809079GA3041+013509059MW1601REMMET021CIGM016 VIS N-SE2700?
0137655220999991977053115004+10333-003183FM-12+033399999V0209991C00001009001CN0200001N9+03301+02201100821ADDAY121999GA1031+007809059GA2031+009009089GA3011+012009099GF107991051091008001001031MD1999999+0011MW1011REMSYN02383626 83830 81940 95335
0104999999999991977102306004+11600-065500FM-13+0000UHQS V0200801N00701220001CN0200001N9+02721+02501101171ADDAY101999GF103991021021008001031001MD1810221+9999MW1021SA1+2809UA1M990159999REMSYN017008@-225    12802
0087919540999991977063000004-23350-149483FM-12+000299999V0200601N00361220001CN0400001N9+02201+01401101931ADDAA124000091AY111999GF101991011011008001001001MW1021REMSYN00570029EQDQ01  00003PRCP99
0109035280999991977030704004+52133-002033FM-12+0040EGDO V0201001N00361060001CN0050001N9+00401+00401101641ADDAY121999GA1011+036009039GA2061+060009009GF106991011001999999031081MD1810171+9999MW1101REMSYN01181362 86070
0072875340999991977090819004-34133-063400FM-12+0137SAOL V0201601N00621220001CN0200001N9+02201+01001100121ADDAY111999GF102991001001999999001021MD1710171+9999MW1051REMSYN00682099.
0065725101147121977102719004+40383-075967SAO  +0105RDG  V0200201N00411009601MN0240001N1+02171+01671999999ADDGD14991+0096099GF108991999999999999999999MA1101491999999MW1001
0109034970999991977102014004+52583+001717FM-12+000399999V0201501N00621024001CN0016001N9+01401+01301101651ADDAY121999GA1061+024009039GA2041+075009009GF107991061001999999031011MD1710111+9999MW1051REMSYN01186358 84075
0095010620999991977051818004+76500+025067FM-12+000699999V0202101N00821004201CN0750001N9+00101-00201102681ADDAA199000091AY121999GF105991051051004501001001KA1999M+00201MD1710111+9999MW1011REMSYN00570002
0101982320999991977121500004+18367+121633FM-12+000299999V0201101N00261045001CN0250001N9+02301+02201101862ADDAA199000091AY101999GF107991021051008001071001MD1210321+9999MW1031REMSYN00570095EQDQ01+101863APOSLP
028772265023023197706161600C+31950-102183SAO  +0872MAF  V0201705N007252200059N0320005N1+02945+01675101055ADDAA101000095GD10995+9999999GD20995+9999999GD30995+9999999GF100005999999999999999999MA1101591091505MW1001EQDQ01+999990APOSP N01 00000JPWTH 1QNNE11 1 00099E11 1 00099E11 1 00099E11 1 00099G11U1 99999K11 1 00062L11 1 02000M11 1 27020N11 1 00000Q11 1 10105S11 1 00085V11 1 00000X11 1 17014
0095406230999991977063018004+35550+045450FM-12+085399999V0209991C00001220001CN0100001N9+02801+00801099951ADDAA199000091AY101999GF100991001001999999001001KA1999M+03301MD1210111+9999MW1021REMSYN00570033
0057540270999991977071521004+43983+119400FM-12+048599999V0202501N00201220001CN0400001N9+01701+01501101031ADDAY101999GF101991001001999999031021MD1210071+9999MW1031
0131030680999991977092116004+57717-003333FM-12+0012EGQS V0200201N00261006001CN0130001N9+01101+00701102561ADDAY121999GA1021+004209079GA2061+006009059GA3081+007509059GF108991081051004501999999MD1710091+9999MW1051REMSYN01782714 86620 88625
0057064580999991977101822004+50750+004767FM-12+0105EBBE V0201701N00511220001CN0090001N9+01201+00901101851ADDAY101999GF100991001001999999001001MD1110031+9999MW1021
0184766790999991977041506004+19433-099067FM-12+2234MEX  V0209999C00001220001CN0040001N9+01401+00501100751ADDAA124000291AA299000091AY111999GA1021+007501051GF102991021051008001001001IA1089MA1999999077921MD1999999-0131MW1061REMSYN05967792 70000 82625 90501 91906 10700 20003 3//// 423// 50000
0073724345039661977031307074+38650-090633SAOSP+0141SUS  V0202101N00511015001EN0112001N1+99999+99999999999ADDGD14991+0150099GF108991999999999999999999MA1100141999999MW1001OC100921
0049999999999991977060601004+25700+173600FM-13+0000JRZV V0201101N00411220001CN0200001N9+02601+99999999999ADDGF102991999999999999999999REMSYN0111252/ 11/01
0109727436999991977060418004+46533-087567SAO  +0432MQT  V0200701N004612200019N0160001N1+02221+01611101551ADDGD12991+0060099GD23991+0750093GF107991999999999999999999MA1101521999999MW1001REMAWY020303/57;MQT?3/14 6/5?
0098704140999991977020808004+52717+174117SAO  +0030PASY V0200301N00721003301MN0112001N1-00101-00601999999ADDGD13991+0033099GD23991+0120099GF107991999999999999999999MA1098341999999MW1711REMAWY0096SC IR13?
0057470900999991977010509004+38200+128600FM-12+000799999V0202901N00721220001CN0400001N9-00401-02301102131ADDAY101999GF100991001001999999001001MD1210041+9999MW1021
0057284110999991977061615004+56817+053267FM-12+015899999V0200501N00401220001CN0100001N9+02501+01201100831ADDAY121999GF107991021001999999051011MD1710021+9999MW1011
0102104050999991977062407004+51600+006133SY-MT+0032EDUL V0203101N00101000301CN0003001N1+01201+01201101921ADDAY141999GA1081+000309079GF108991081061000251999999MA1101901999999MD1410001+9999MW1421REMSYN00588701
0158999999999991977092518004+48300-010200FM-13+0000FNTH V0202501N00511220001CN0200001N9+01821+00901101411ADDAY101999GA1011+006009089GF101991011021008001001001MD1410001+9999MW1021SA1+1679UA1M050109999UG1104302709WG199060999999REMSYN02981820 00309 11672 30502 27086
0088374840999991977051200004+41650+041633FM-12+000699999V0209991C00001220001CN0100001N9+01101+01001101001ADDAA199000091AY101999GF102991021001999999031001MD1710171+9999MW1021REMSYN011700// 91100
0064246410999991977102509004+63767+121617FM-12+010799999V0209991C00001004201CN0100001N9-01301-01501100751ADDAG12999AY171999GF108991061051004501031071MD1310081+9999MW1711
0088476380999991977042809004+35667+138550FM-12+027299999V0200101N005719999999N0300001N9+02401+00601099351ADDAA199000091AY181999GF105991011011999999051021MD1210231+9999MW1011REMSYN01113000 40395
0062108520999991977100402004+48383+010850AERO +047799999V0201901N00101220001CN0150001N9+00301+00201999999ADDAY101999GF100991999999999999999999MW1021EQDQ01+000003PRSWM2
0067029720999991977031608504+60517+022267FM-15+0049EFTU V0201801N00461000601CN0005001N1+00101+00101999999ADDED199U11889GA1091+000609999MA1102401999999MW1451REMMET007880005?
0064506560999991977120209004+48650+126667FM-12+030599999V0201801N00201220001CN0070001N9-01801-02101102291ADDAG11000AY111999GF100991001001999999001001MD1710081+9999MW1041
0065722085938311977031808004+32483-080717SAO  +0012NBC  V0209991C000012200019N0112001N1+01281+01111100811ADDGD13991+0750093GF107991999999999999999999MA1100811999999MW1001
0069726188999991977011621004+44283-068267SMARS+00129B5  V0209991C000019999999N0148001N9-00551+99999100301ADDGF107991999999999999999999MW1051REMSYN025M     M     BEAR  ISLAND?
0082477590999991977021618004+35017+135733FM-12+004199999V0202101N00261220001CN0300001N9-00501-01201101991ADDAA199999929AY101999GF102991021021999999001001MD1210081+9999MW1021REMSYN00549760
014172773024153197706101700D+46917-114083SAO  +0976MSO  V0200701N005110360019N0480001N1+01891+00061101231ADDAA101000095GD12991+0240099GD23991+0360099GD34991+0600099GF108991999999999999999999MA1101351090201MW1001REMAWY007FEW CU?EQDQ01+999990APOSP 
0141999999999991977011703004+10100+075500FM-13+0000GXRD V0200901N00461220001CN0200001N9+02831+02201101331ADDAY111999GF101991999001999999081001MD1410001+9999MW1011SA1+2849UA1M020059999UG1140101009REMSYN0230//22 12843 30201 10402EQDQ01+000002SCOTLC
0082065900999991977092521504+49617+006217FM-15+0491ELLX V0201401N00101030001CN0016001N1+01101+01001999999ADDED199U19209GA1031+000609079GA2071+030009039MA1102001999999MW1101REMMET006NSOIG?
0089388860999991977101212004+37383+060517FM-12+018899999V0203401N00501015001CN0200001N9+01901+00401102001ADDAA199000091AG14999AY121999GF108991061091017501071999MD1710121+9999MW1021REMSYN005700//
0067476880999991977110420004+34983+139833FM-15+0002RJTE V0200301N00201220001CN0112001N1+01401+01001999999ADDGA1011+013509059MA1102711999999REMMET0053032?EQDQ01+000000PRSWM2
0064389540999991977100621004+37500+071517FM-12+212099999V0209991C00001220001CN0200001N9+00801-00101999999ADDAG11999AY101999GF100991001001999999001001MD1110011+9999MW1021
009172462023061197711212300D+37450-105867SAO  +2297ALS  V0209991C000010600019N0640001N1+00441-00431101981ADDAA101000095GD12991+0240099GD24991+0600099GF108991999999999999999999MA1101761999999MW1001
0078033910999991977071923004+53083-000167AERO +0008EGXC V0202301N00511220001CN0250001N9+01201+01001999999ADDAY101999GA1011+013509059GF101991999999999999999999MW1011EQDQ01+000003PRSWM2
0057579570999991977022109004+25333+110300FM-12+016799999V0200201N00301015001CN0070001N9+01001-00701103331ADDAY121999GF108991081051017501999999MD1810181+9999MW1061
0228466970999991977041800004+25067+121233SY-MT+0050RCGM V0200701N00621006001CN0060001N1+01501+01201102091ADDAA199007091AY161999GA1021+003609079GA2051+006009059GA3081+015009059GF108991081051004501999999KA1999N+01401MA1102071999999MD1310031+9999MW1101MW2441REMSYN04970714 82712 85620 88650 90247 90422 QNH   3014INSMET0143014INS CIG020
0106689060999991977040606004-40350-009883FM-12+005499999V0209991C00001220001CN0200001N9+01601+01201101561ADDAA124000091AY111999GF103991031051004501001001MD1310031+9999MW1011REMSYN02970015 217// 3//// ///// 44139
0087889700999991977021123004-64967-060050FM-12+003299999V0202301N02161000151CN0000001N9+99999+99999096991ADDAY131999GA1091+999999999GF109991091999999999999999MD1510001+9999MW1391REMSYN005918/0
0119783670117061977090221001+19900-075150SAO  +0020MUGM V0201401N0051107500199999999991+99999+99999999999ADDGD14991+0750099GF108991999999999999999999MA1101351999999MW1001REMAWY045CB NW-N DSIPTD DSNT CB       ?     SW AND NW?
0144873930999991977101420004-30267-057650FM-12+0053SARM V0200201N00511220001CN0120001N9+03101+02201100281ADDAY111999GF104991041021012501001001MD1710251+9999MW1051REMSYN0781002.7SGAS  360/2515    KM    BRM   NBL   2     CU    1200  6     CICS  1006.4
0100038270999991977020812004+50350-004117FM-12+002799999V0202201N00511000601CN0022001N9+01001+00901100911ADDAA199999929AY151999GA1071+000609079GA2081+003609079GF108991081071000751999999MD1310081+9999MW1601
0057345240999991977031003004+48350+038433FM-12+033499999V0202501N00401220001CN0011001N9-00101-00201102841ADDAY101999GF100991001001999999001001MD1710041+9999MW1021
032172793024233197708032300C+47450-122300SAO  +0122SEA  V0202705N004652200059N0400005N1+03005+01505101215ADDAA101000095GD11995+0750093GD20995+9999999GD30995+9999999GD40995+9999999GF101005999999999999999999MA1101221099595MW1001REMAWY010;SEA C8/1?EQDQ01+999990APOSP N01 00000JPWTH 1QNNE11 1 00199E11 1 00099E11 1 00099E11 1 00099G11U1 99999K11 1 00059L11 1 02500M11 1 29410N11 1 00000Q11 1 10121S11 1 00086V11 1 00100X11 1 27009
0084162420999991977080717504+41800+012233FM-15+0002LIRF V0209991C00001069001CN0112001N1+02401+02101999999ADDGA1011+006009089GA2051+069009009MA1101021999999REMMET006NOSIG?EQDQ01+000000PRSWM2
0122999999999991977121018004+24400-081600FM-13+0000KPEA V0203601N00981220001CN0500001N9+02151+01901102341ADDAY151999GF102991021031002501001001MD1210141+9999MW1011SA1+2279UA1M030309999UG1130203609REMSYN0230//19 12275 30306 36304
0043011030999991977020712004+65100+011700FM-12+005099999V0209991C00001220001CN0750001N9-00201-00301999999ADDAY111999GF107991021001022501041011MW1031
0088477650999991977041606004+34367+132433FM-12+002999999V0203401N00411220001CN0500001N9+01801+00801100811ADDAA199000091AY181999GF104991011021999999031001MD1310121+9999MW1021REMSYN01113000 49799
0302727576149161977070821003+47950-097183SAO  +0256GFK  V0203505N00625014634EN0320005N1+02065+00835102335ADDGD13995+0144099GD20995+9999999GD30995+9999999GD40995+9999999GF106065999999999999999999MA1102341099295MD1110031+9999MW1001REMAWY004103?EQDN01 00000JPWTH 1QNNE11 1 00499E11 1 00099E11 1 00099E11 1 00099G11 1 00048K11 1 00047L11 1 02000M11 1 29320N11 1 00000Q11 1 10233S11 1 00069V11 1 00707X11 1 35012
0040061040999991977050814504+55733+009150FM-15+0070EKBI V0201601N00361010501CN0090001N1+01301+00501999999ADDGA1051+010509099MA1101081999999MW1051
0072106590999991977061215004+49750+010200FM-15+0210EDIN V0200401N003610600019N0112001N1+02601+01401999999ADDGA1041+015009059GA2061+060009029MA1101521999999MW1001REMMET007CIG200?
0080911780225141977120316004+21317-158067SAO  +0015PHNA V0201901N01131007501EN0240001N1+02561+02111100931ADDGD13991+0075099GD24991+0135099GF108991999999999999999999MA1100951999999MW1001
0057946010999991977071110004-34367+115133FM-12+002299999V0202201N00511220001CN0200001N9+01601+01001102031ADDAY181999GF103991031051004501001001MD1210061+9999MW1161
0088717375999991977121708004+46483-084500SAO  +0188YAM  V0201101N008210039019N0192001N1+00201-00101101751ADDGD12991+0024099GD24991+0039099GF108991999999999999999999MA1101661999999MW1001OC101281
0128560410999991977022806004+34500+098883FM-12+417599999V0202501N01501012001CN0200001N9+00101-01301999999ADDAA199000091AY121999GF106991061091012501001001KA1999N-01001MA1999999060341MD1999999+0011MW1031REMSYN02366034 /0060 91220 00101
0065724066999991977012621004+39700-077717SAO  +0214HGR  V0202701N00251015001EN0240001N1+99999+99999999999ADDGD13991+0150099GF107991999999999999999999MA1100141999999MW1001
0095029210999991977123118004+62883+021100FM-12+000299999V0200201N00511004201CN0050001N9-00601-00701099831ADDAA199001091AY171999GF108991081071004501999999KA1999M-00601MD1210141+9999MW1711REMSYN00570156
0099719280999991977092411004+52383-114917SAO  +1001YRM  V0201601N00101030001EN0640001N1+00401+00201100391ADDGD14991+0300099GF108991999999999999999999MA1100341088811MW1001REMAWY006AC10 ?EQDQ01+999990APOSP 
0106578660999991977091406004+26233+111600FM-12+017499999V0200701N00401018001CN0130001N9+02201+01801101411ADDAA106999929AA299000191AY161999GF108991071081017501071999KA1999N+01901MD1710201+9999MW1011REMSYN005/9119
012972597524235197709140900C+42617-123367SAO  +1169SXT  V0203505N002159999999N9999999N9+01675-00675101055ADDAA101000095MA1999999088255REMAWY014PK WND 10 000?EQDQ01+000002VOVAR QNNK11 1 00020M11 1 26060Q11 1 10105S11 1 00062X11 1 35004
0095686380999991977081312004-31483+025033FM-12+127099999V0203401N00621220001CN0240001N9+01601+00301999999ADDAY101999GF101991011011008001001001MA1999999088041MD1810321+9999ME1315999MW1021REMSYN00568804
0033163320999991977030301004+40233+018150FM-15+0048LIBN V0209991C00001999991CY0099001N1+00201-00301999999REMMET005CAVOKEQDQ01+000000PRSWM2
0074600150999991977071522004+28483-016333FM-15+0632GCXO V0203201N00821999991CY0099001N1+01601+01201999999ADDMA1102101094921REMMET012CAVOK NOSIG?EQDQ01+999990APOSP Q02+000000PRSWM2
0053847820999991977091107004-18067-070267FM-15+0452SPTN V0209991C00001007201CN0112001N1+01401+01201999999ADDGA1081+007209059MA1101801999999EQDQ01+000000PRSWM2
0477040180162011977090900003+63967-022600SY-SA+0050BIKF V0209995C00005220005CN0480005N1+00285-00225101845ADDAY111999GA1999+054864024GA2999+999999999GA3999+999999999GA4999+999999999GD12015+9999999GD20005+9999999GD30005+9999999GD40005+9999999GF101015001001999999001991MA1999999101155MD1710201+9999MW1021REMMET031CAVOK 1CS180 03/M02 1017 NOSIG?EQDQ01+000902SCOLCBQ02+000000PRSWM2N01 00000JPWTH 1QNNE11 1 00201E11 1 00000E11 1 00000E11 1 00000G11U1 99999H11 1 37180H11 1 00999H11 1 00999H11 1 00999K11 1 00028L11 1 03000M11 1 29870N11 1 00000Q11 1 10184S11 1 00037V11 1 00101X11 1 00000
0050766342999991977092614004+20083-098367SAO  +2181TCG  V0209991C000012200019N0160001N1+01401+01101999999ADDGF100991999999999999999999MA1102571999999MW1001
0089317130999991977103103004+48783+132917FM-12+007699999V0202701N00501036001CN0500001N9+00101-00401102141ADDAG11999AY121999GF108991081001999999031011MD1110211+9999MW1021OA199901101REMSYN00591111
0078107760999991977092319004+49017+012067AERO +037699999V0209991C00001009001CN0060001N9+01001+00901999999ADDAY121999GA1071+009009059GF107991999999999999999999MW1101EQDQ01+000003PRSWM2
0055106070999991977070420004+49983+006700FM-15+0365EDAD V0200601N00201220001CN0112001N1+02101+01301999999ADDGA1061+066009009MA1101421999999MW1001REMMET006CIGNO?
0087101260999991977121503004+53550+007667FM-12+0008EDNT V0202701N00511000601CN0015001N9+00701+00601103041ADDAY121999GA1081+000609079GF108991081061000751999999MD1510011+9999MW1101REMSYN00588702
0183716280999991977102806004+45317-075667SY-SA+0114YOW  V0200101N004612200019N0240001N1+01001+00601101301ADDAY111999GD13991+0300093GF199999051001999999031001KA1999M+01801KA2999N+00601MA1101291099921MD1310081+9999MW1031REMSYN01169992 41806AWY009AC4 308 ?EQDQ01+000052SCOTCVQ02+000003PRSWM2
0433724086147931977031112003+40200-075150SAO  +0102NXX  V02099959000052200059N0080005N1+00615+00445102815ADDGA1999+060964024GA2999+999999999GA3999+999999999GA4999+999999999GD11045+0600093GD20005+9999999GD30005+9999999GD40005+9999999GF104025999001999999001991MA1102681101395MD1210141+9999MW1055MW2111MW3445REMAWY015214 1008 46643?EQDN01 07281JPWTH 1QNNE11 1 00105E11 1 00000E11 1 00000E11 1 00000G11U1 99999H11 1 37200H11 1 00999H11 1 00999H11 1 00999K11 1 00040L11 1 00500M11 1 29940N11 1 07281Q11 1 10281S11 1 00043V11 1 00502X11 1 00000
015672568524019197708040000D+42750-105383SAO  +14774DG  V0202001N00361018001EN0560001N1+02281+00891101121ADDAA101000095AA206999929GD13991+0180099GF107991999999999999999999KA1999M+02831MA1101591999999MD1010051+9999MW1801REMAWY014RB10 00500 83?EQDQ01  99993PRCP99
0125030590999991977020718004+57533-004050AERO +0012EGPE V0200301N00151001201CN0060001N9+00301+00301999999ADDAY121999GA1021+000609079GA2041+001209079GA3071+002409079GF108991999999999999999999MW1021REMSYN006MAX04?EQDQ01+000003PRSWM2
0098082270999991977121815004+40483-003450FM-15+0607LETO V0201601N003010105019N0112001N1+01201+00601999999ADDGA1031+009009059GA2021+010509089GA3011+024009049GA4041+060009009MA1102131999999REMMET007CIG035?
0065725740240271977101801004+41600-109067SAO  +2058RKS  V0202701N004612200019N0960001N1+01561-01211101801ADDGD12991+0750093GF102991999999999999999999MA1102271999999MW1001
0127475910999991977042607004+38400+141217FM-15+0002RJST V0203301N00771075001CN0112001N1+01701+00201999999ADDGA1011+009009089GA2061+075009009MA1101081999999OC101021REMMET041112/ FCST 0713         ?     96071 33010?EQDQ01+000000PRSWM2
0050722447039011977042820004+32383-094717SAO  +0111GGG  V0201701N006112200019N0560001N1+02671+01331999999ADDGF100991999999999999999999MA1101961999999MW1001
0300724270038041977060520003+39350-081433SAO  +0256PKB  V0201505N002150304849N0128005N1+02505+01285101195ADDGD13995+0750099GD24995+9999999GD30995+9999999GD40995+9999999GF108085999999999999999999MA1101221098105MW1001REMAWY016RB23E30;PKB?6/3?EQDN01 00000JPWTH 1QNNE11 1 00499E11 1 00699E11 1 00099E11 1 00099G11 1 00100K11 1 00055L11 1 00800M11 1 28970N11 1 00000Q11 1 10119S11 1 00077V11 1 01010X11 1 15004
0111702640264141977090808004+63333-149133SAO  +0735UMM  V0200601N00251001801EN0624001N1+00391+99999999999ADDGD14991+0018099GF108991999999999999999999MA1100311999999MW1001REMAWY037000        ?    BV681  SKY 0900 0900?
0108724345039661977040317074+38650-090633SAOSP+0141SUS  V0200701N00511006601EN0160001N1+99999+99999999999ADDGD14991+0066099GF108991999999999999999999MA1101761999999MW1001REMAWY034NMRS BINOVC/UA /OV SUS /SK OVC 27?
0093062400999991977061010004+52300+004767FM-12-0004EHAM V0200701N00411220001CN0130001N9+01901+01201100751ADDAY101999GA1011+009009089GF103991011011008001081011MD1810071+9999MW1051REMSYN01181830 COTRA
0043384130999991977010321004+41733+064617FM-12+024899999V0209991C000019999999N0040001N9-01701-01901103241ADDAY121999GF108991001001999999051011MW1101
0122999999999991977011506004+22100+169800FM-13+00006ZBX V0202701N00511220001CN0500001N9+02501+02101100901ADDAY101999GF101991011011008001001001MD1610051+9999MW1001SA1+2509UA1M000009999UG1090102709REMSYN0230//21 12500 30000 27902
0099710430999991977122522004+65283-126800SAO  +0073YVQ  V0201201N002012200019N0480001N1-01801-02201102241ADDGD12991+0120099GD22991+0210093GF102991999999999999999999MA1102131101241MW1001EQDQ01+999990APOSP 
0054036911999991977022421204+51567+000700FM-15+0015EGMC V0202401N00251007501CN0070001N1+00701+00701999999ADDGA1041+003009079GA2081+007509059EQDQ01+000000PRSWM2
0115565860999991977111521004+27333+103750FM-12+195099999V0209991C00001000301CN0003001N9-00101-00101999999ADDAG11000AY141999GA1091+999999999GF109991091999000251999999MA1999999081041MD1710111+9999MW1451REMSYN01168104 05452
0092914130403081977082610004+09483+138083SAO  +0017PTYA V0203001N002010870019N0240001N1+99999+99999100961ADDGD12991+0060099GD22991+0330099GD34991+0870099GF108991999999999999999999MW1001REMAWY00381?
0135161120999991977121815004+44983+006850SY-MT+2680LIMX V0209991C00001220001CN0099001N1+00301+99999999999ADDAJ100709199999999AY101999GF100991001001999999001001MD1610071+9999MW1021REMSYN00599657MET022CAVOK MON LIB VAL NIL?EQDQ01+000000PRSWM2
0057014940999991977021809004+59383+010783FM-12+0054ENRY V0200301N00361012001CN0120001N9-01001-01101101501ADDAY121999GF107991051051012501031999MD1710081+9999MW1011
048772312003870197708061500C+34900-082217SAO  +0292GSP  V0202605N004652200059N0480005N1+03005+02225102415ADDAA101000095GA1999+009144084GA2999+091444004GA3999+999999999GA4999+999999999GD10005+9999999GD20005+9999999GD30005+9999999GF100005999999999999001991MA1102541099025MD1110031+9999MW1001REMAWY037FEW CU CI 103 1101;GSP?6/29 7/19 8/9?EQDQ01+000002SCOTCVQ02+999990APOSP Q03    013SCOLCGN01 00000JPWTH 1QNNE11 1 00000E11 1 00000E11 1 00000E11 1 00000G11U1 99999H11 1 11030H11 1 32300H11 1 00999H11 1 00999K11 1 00072L11 1 03000M11 1 29240N11 1 00000Q11 1 10241S11 1 00086V11 1 00000X11 1 26009
0087264220999991977070815004+56967+024067FM-12+000399999V0201001N00601004201CN0080001N9+01801+01601101331ADDAY181999GA1041+004209099GF108991081091004501999999MD1210091+9999MW1101REMSYN00584914
0057253780999991977070403004+66350-179117FM-12+001599999V0200201N00701030001CN0200001N9+01801+00301101721ADDAY121999GF106991011011017501031011MD1010001+9999MW1021
0057298460999991977053003004+53733+087183FM-12+023699999V0209991C00001220001CN0020001N9+01901+00701101791ADDAY121999GF108991001001999999001011MD1410001+9999MW1041
0083725915242571977021000004+40500-122300SAO  +0152RDD  V0203501N00511075001EN0960001N1+01671+00891999999ADDGD13991+0750099GF107991999999999999999999MA1102241999999MW1001REMAWY009;RDD?2/1?
0069107080999991977012122204+49217+007117FM-15+0322EDRS V0201101N00301027001CN0080001N1+00401+00101999999ADDGA1051+027009039GA2061+075009009MA1101081999999EQDQ01+000000PRSWM2
0095672830999991977081306004-17883+036883FM-12+001199999V0202501N00211004201CN0150001N9+01801+01801102431ADDAA124009091AY181999GF108991071071004501071999KA1999N+01701MD1999999-0011MW1801REMSYN00570917
0087702670264151977102517134+64000-145733SAOSP+0386BIG  V0209991C00001002401WN0016001N1+99999+99999999999ADDGD15991+0024099GF109991999999999999999999MA1098711999999MW1451REMAWY013VSBY HIR N-E?
0143335770999991977100906004+48800+029400FM-12+021199999V0209991C00001220001CN0060001N9+00701+00601101711ADDAA199000091AG10999AJ100009199999999AY101999GF100991001001999999001001IA1009IA2999+00309KA1999N+00501MD1210051+9999MW1101REMSYN01170005 20300
0064574110999991977102003004+30800+106083FM-12+029999999V0201801N00301036001CN0110001N9+02101+01801102391ADDAG11999AY121999GF107991011011017501031999MD1110061+9999MW1031
0124576020999991977110200004+28867+105417FM-12+033699999V0202001N00201004201CN0030001N9+01401+01401102831ADDAA106012091AA224013091AG12003AY161999GF108991081071004501999999MD1310071+9999MW1601REMSYN010/12.. CCQQEQDQ01  01203PRCP99
0090574110999991977071900004+30800+106083FM-12+029999999V0203601N00101220001CN0240001N9+02601+02101100521ADDAY101999GF104991999001999999041001MD1310101+9999MW1011REMSYN0052013/EQDQ01+000002SCOTLC
0094033910999991977042012004+53083-000167AERO +0008EGXC V0202201N00661003001CN0045001N9+00901+00801999999ADDAY161999GA1021+002409079GA2081+003009079GF108991999999999999999999MW1511EQDQ01+000003PRSWM2
