0078569450999991978092809004+23567+099083FM-12+051299999V0202201N00101220001CN0300001N9+02101+01901100481ADDAG11000AY111999GF104991011021012501041021MD1810271+9999MW1021REMSYN00505204
0126301360999991978102800004+58550+109767FM-12+023499999V0201601N00301030001CN0500001N9-00201-00801101841ADDAA199000091AG10000AY121999GF108991081001999999071999IA1319IA2999-00909KA1999N-00401MD1710081+9999MW1021REMSYN01170054 25994
0030745055999991978020606004+36633-121933SMARS+000695Q  V0201401N002019999999N1473561N9+99999+99999999999ADDMW1001REMSYN012POINT PINOS?
0089338330999991978031400004+47017+030750FM-12+007399999V0201601N00101004201CN0050001N9+00201+00001102071ADDAA199000091AG10000AY121999GF108991081061004501999999MD1410001+9999MW1101REMSYN005700//
0131036030999991978081116004+51867-005133FM-12+0111EGDA V0201901N00821030001CN0120001N9+01701+01201102101ADDAY121999GA1021+005409089GA2051+030009039GA3071+036009049GF107991031081004501071999MD1810111+9999MW1031REMSYN01782818 85360 87462
0088634531999991978010912004+08933+040083FM-12+1052HAAW V0200501N00311220001CN0400001N9+03201+02101999999ADDAY101999GF101991011011017501001001MA1999999104111MW1031REMSYN02163411 10606 80050/!KC
0043837390999991978122821004-22483-044083FM-12+0374SSVR V0209991C00001036001CN9999999N9+02201+02101101351ADDAY161999GF108991021011004501021999MW1611
006172574524057197809012000D+41800-107200SAO  +2068RWL  V0202501N008212200019N0960001N1+02561+00501101121ADDAA101000095GF100991999999999999999999MA1102101999999MW1001
0101012100999991978090218004+62567+006117FM-12+0022ENAL V0200501N00571012001CN0550001N9+01101+00601100401ADDAA199000291AY121999GF107991051081008001071021KA1999M+01301MD1210041+9999MW1251REMSYN01179213 914/4
0196161100999991978121106004+45650+013750SY-MT+0020LIVT V0203501N00101009001CN0030001N1+00401-00101102001ADDAA199000091AY121999GA1081+009009059GF108991081051008001999999KA1999N+00401MD1810081+9999MW1101UA1M990009999REMSYN03370004 88630 52100 QUK   NIL   QULMET038OVC QUK QUL NIL VISMAR 3     ?     KM?
0115026720999991978091403004+56683+016300FM-12+0006ESDC V0202101N00411009001CN0300001N9+01201+01201100951ADDAY121999GA1041+002409079GA2071+009009059GF108991081051002501999999MD1710191+9999MW1611REMSYN01784708 87630 00400
0108262420999991978021900004+58300+026733FM-12+005999999V0202701N00501004201CN0020001N9-01001-01001100581ADDAA106002091AG10004AY181999GF106991061091004501001001MD1210121+9999MW1851REMSYN005702//EQDQ01  00203PRCP99
0103368290999991978021412004+44300+076767FM-12+043299999V0203201N00501036001CN0200001N9-01001-01401102791ADDAA199000091AG10000AY111999GF107991071001999999011021MD1310121+9999MW1021WG199010299999REMSYN005700//
0080722597939851978092522004+32783-098067SAO  +0294MWL  V0200701N00361030001EN0192001N1+02671+01331101821ADDGD13991+0300099GD24991+0750099GF108991999999999999999999MA1101931999999MW1001
0065701040999991978020223004+68883-166133SAO  +0003PALU V0209991C000012200019N0480001N1-01991-02491999999ADDGD12991+0540099GF102991999999999999999999MA1102241999999MW1001
0078562870999991978083000004+30000+103050FM-12+062999999V0203201N00201036001CN0250001N9+02401+02101100621ADDAG11000AY111999GF107991011011012501041021MD1310091+9999MW1031REMSYN00505500
0104035951999991978111801004+52083+001400FM-15+0029EGVG V0209991V00611006001CN0112001N1+01101+00801999999ADDGA1081+006009059MA1102101999999OC101081REMMET034CIGM020 WND 180V26     ?     0?UU?EQDQ01+000000PRSWM2
0088101260999991978021816444+53550+007667FM-15+0008EDNT V0202801N00251220001CN0112001N1-00301-00501999999ADDGA1011+003009089GA2031+015009059MA1101801999999REMMET010BLACKBLU+?EQDQ01+000000PRSWM2
0095984260412311978080407134+14800+120267SAOSP+0018RPMB V0203401N001510045019N0032001N1+99999+99999999999ADDGD12991+0024099GD23991+0045099GD34991+0117099GF108991999999999999999999MA1100951999999MW1811
0146062800999991978031106004+53133+006583FM-12+0005EHGG V0203301N00151000301CN0002001N9+00601+00501102531ADDAA124000291AA299001091AY141999GA1091+000309999GF109991091999999999999999KA1999N+00601MD1810011+9999MW1611REMSYN02970106 89/01 99744 550/8 55201
028772308013737197802130800C+36900-076200SAO  +0007ORF  V02099959000052200059N0160005N1-00285-00835101695ADDAA101000095GD10995+9999999GD20995+9999999GD30995+9999999GF100005999999999999999999MA1101691101595MW1001EQDQ01+999990APOSP N01 00000JPWTH 1QNNE11 1 00099E11 1 00099E11 1 00099E11 1 00099G11U1 99999K11 1 00017L11 1 01000M11 1 30000N11 1 00000Q11 1 10169S11 1 00027V11 1 00000X11 1 00000
0116875710999991978091400004-34600-058600FM-12+0018SADP V0203601N00511005101CN0100001N9+01401+01201100881ADDAY121999GA1061+005109079GA2081+008109049GF108991061061004501021999MD1210191+9999MW1021REMSYN01886717 88527 1008.4
0128603400999991978061506004+35150-002917FM-12+0006GMFN V0202401N00311220001CN0300001N9+01801+01501101821ADDAA124000091GA1021+006009089GF103991031081008001001001KA1999N+01701MD1310021+9999MW1001REMSYN01170017 82820EQDQ01  00003PRCP99
0054161080999991978012203204+45817+013483FM-15+0012LIPQ V0200601N00511024001CN0112001N1+00501-00201999999ADDGA1041+009009059GA2051+024009039EQDQ01+000000PRSWM2
0071595010999991978020315004+22783+115367FM-12+000799999V0200701N002019999999N0120001N9+01501+01001102301ADDAY121999GF106991001001999999041021MD1110031+9999MW1011WG199060599999
030972206013889197806280200C+30500-081700SAO  +0008JAX  V0201705N002652200059N0112005N1+02725+02335101935ADDAA101000095GD13995+0750093GD20995+9999999GD30995+9999999GD40995+9999999GF106025999999999999999999MA1101961101835MW1001REMAWY014;JAX?6/7 6/18?EQDN01 00000JPWTH 1QNNE11 1 00399E11 1 00099E11 1 00099E11 1 00099G11U1 99999K11 1 00074L11 1 00700M11 1 30070N11 1 00000Q11 1 10193S11 1 00081V11 1 00703X11 1 17005
0080722865931801978092712004+34050-117617SAO  +0293ONT  V0200101N004612200019N0160001N1+02111+01171101141ADDGF100991999999999999999999MA1101291999999MD1010001+9999MW1001REMAWY007000 70?
0064586470999991978081609004+28083+119117FM-12+018099999V0200201N00201090001CN0300001N9+03601+02101100011ADDAG11000AY121999GF107991011041012501001021MD1710101+9999MW1011
0057484000999991978031421004+15667+100133FM-12+0028VTPN V0201701N00411220001CN0060001N9+02701+02401100771ADDAY111999GF103991021051008001001051MW1101REMSYN005458//
0108427010999991978053000004+23317+085317FM-12+0654VERC V0209991C00001220001CN0010001N9+02801+02501099681ADDAY101999GA1021+030009039GF102991021001999999041001MA1999999092671MD1999999-0021MW1011REMSYN01169267 82360
0102337170999991978111318004+48050+032167FM-12+014699999V0202301N00101220001CN0500001N9-00101-00301103341ADDAA199000091AG10000AY111999GF100991001001999999001001KA1999M+00601MD1710021+9999MW1021REMSYN00570006
0057637660999991978111203004-02283+037833FM-12+100099999V0202701N00101220001CN0400001N9+01701+01701999999ADDAY121999GF103991031051004501001001MD1999999-0101MW1011
0087610240999991978111315004+16967+007983FM-12+0505DRZA V0201001N00821090001CN0040001N9+03001+00601101181ADDAY121999GA1071+090009029GF107991001001999999001081MD1999999+0011MW1071REMSYN00587280
0063107080999991978032110204+49217+007117FM-15+0322EDRS V0202501N00971007501CN0112001N1+00301-00201999999ADDGA1071+007509089MA1100201999999MW1231OC101691REMMET006NOSIG?
0073133670999991978100909004+43733+019717FM-12+102999999V0203601N00151000301CN0002001N9+00901+00801999999ADDAY141999GA1091+999999999GF109991091999999999999999MD1210041+9999MW1451
0128518110999991978092700004+38433+077267FM-12+123299999V0202201N00101220001CN0250001N9+00701+00501100911ADDAA199000091AG10000AY101999GF100991001001999999001001IA2999+00209MA1999999087401MD1510021+9999MW1021REMSYN01768740 /0002 05553
0125106880999991978083107004+49667+012183AERO +043899999V0202801N00251003001CN0130001N9+00801+00601999999ADDAY121999GA1021+002109079GA2061+003009079GA3081+005409059GF108991999999999999999999MW1031REMSYN006PIC21?EQDQ01+000003PRSWM2
0051804030999991978022216004+11417-069683FM-15+0016MVCR V0200201N00611999991CY0099001N1+03401+02101999999ADDMA1101291999999REMMET005CAVOKEQDQ01+000000PRSWM2
0082100220999991978112212444+54800+008950FM-15+0007EDNL V0202601N01021002701CN0080001N1+01201+00901999999ADDGA1051+002709079GA2061+027009039MA1102201999999REMMET004GRN?EQDQ01+000000PRSWM2
0071154210999991978021108004+44550+026100FM-15+0095LROP V0200201N00611000601CN0002001N1-00401-00401999999ADDED199U03969GA1091+000609999MA1101491999999MW1491REMMET011GRADU 0600?
0071722506129591978051811004+26183-098233SAOSP+0033MFE  V0201001N00511003301MN0064001N1+02561+02331100701ADDGD13991+0033099GF107991999999999999999999MA1100711999999MW1051MW2451
0371726430149201978091812003+43867-091250SAO  +0198LSE  V0209995900005002444MN0112005N1+01615+01445100905ADDAA106006091AA224009091AG13000GD13995+0024099GD24995+0036099GD30995+9999999GD40995+9999999GF108085999999999999999999KA1999N+01441MA1100881098485MD1310031+9999MW1001REMAWY01530323 58 20035?EQDQ01  00603PRCP99N01 00000JPWTH 1QNNE11 1 00499E11 1 00699E11 1 00099E11 1 00099G11 1 00008K11 1 00058L11 1 00700M11 1 29080N11 1 00000Q11 1 10090S11 1 00061V11 1 01010X11 1 00000
0063066600999991978011012004+47383+008567FM-12+056999999V0202101N000519999999N9999999N9+00101-00101999999ADDAA199000091MA1999999095611MD1810041+9999REMSYN01169561 700//
0093541020999991978101121004+43950+116067FM-12+099199999V0201801N00201220001CN0300001N9-00601-01101102851ADDAG11000AY101999GF100991001001999999001001MA1999999090961MD1210061+9999MW1021REMSYN00569096
010694659099999197812090130N-31150+136820AUST +0167YPWR V0203605N004159999999N999999999+03165+00305999999ADDAY134999GA1005+999999999GA2005+999999999GA3015+999999999GF101995004999999999999015MA1999999099505MW1025
0057150800999991978121709004+47050+021933FM-12+0136LROD V0202701N00701001201CN0040001N9+00501+00501100291ADDAY161999GF108991061071001501021999MD1210401+9999MW1101
0084162890999991978091007204+40883+014300FM-15+0088LIRN V0209991C00001220001CN0112001N1+01901+01401999999ADDGA1011+012609059GA2041+054009009MA1102001999999REMMET006NOSIG?EQDQ01+000000PRSWM2
0069719430999991978020202004+56233-120733SAO  +0695YXJ  V0201101N002012200019N0640001N1-02601-03001102301ADDGF100991999999999999999999MA1101461093361MW1001EQDQ01+999990APOSP 
0099726116999991978080623004+43633-072317SAO  +0177LEB  V0201901N003612200019N0096001N1+02441+02001102231ADDGD12991+0036099GD23991+0300093GF107991999999999999999999MA1102241999999MW1051REMAWY010;LEB?5/35?
0095727976242171978050920004+48800-122533SAO  +0048BLI  V0202801N002510300019N0240001N1+01561+00781101301ADDGD12991+0090099GD23991+0300099GD33991+0750099GF107991999999999999999999MA1101291999999MW1001
0038788079999991978092916004+07517-078150FM-16+0009MPJE V0209991C00001220001CN0112001N1+99999+99999999999ADDGA1011+009009089EQDQ01+000000PRSWM2
0124130260999991978092606004+46533+015650FM-12+027599999V0209991C00001220001CN0030001N9+01101+01101102341ADDAA199000091AJ100009199999999AY141999GF100991001001999999001001IA1009KA1999N+00901MD1310071+9999MW1281REMSYN0112//00 70009
0145427370999991978082212004+22300+070783FM-12+0134VARK V0202301N00261024001CN0100001N9+03001+02401100101ADDAA199000091AY121999GA1031+007509089GA2071+024009039GF107991061081008001031001KA1999M+03101MD1999999-0061MW1021REMSYN02370031 83620 83825 87358
0076442180999991978110721004+48017+091650FM-12+140599999V0209991C000019999999N9999999N9-00901-01001103721ADDAY121999GF106991001001999999001021MD1310071+9999MW1021EQDQ01+000062SCOTLC
0087070610999991978052603004+49817+003200FM-12+0101LFOW V0200201N00311000901CN0012001N9+00801+00801102481ADDAY121999GA1081+000909079GF108991081061001501999999MD1710071+9999MW1101REMSYN00588703
0172718800999991978051102004+49600-115783SAO  +0939YXC  V0202101N008210210019N0400001N1+01101+00201100541ADDGD12991+0120099GD23991+0210099GD33991+0750099GF107991999999999999999999MA1100471089741MW1001OC101281REMAWY041TCU4AC3CI1 SHWRS       ?    MTNS W ? SE ?EQDQ01+999990APOSP 
0065727976242171978071423004+48800-122533SAO  +0048BLI  V0202101N005112200019N0240001N1+02281+99999101741ADDGD13991+0600093GF107991999999999999999999MA1101731999999MW1001
0081719090999991978072923224+63750-068550SAOSP+0034YFB  V0203301N00821013501EN0192001N1+99999+99999999999ADDGD13991+0135099GD24991+0210099GF108991999999999999999999MW1611REMAWY007SC6AC4?
0080722485139441978012722004+32500-093667SAO  +0051BAD  V0203301N00251012001EN0240001N1+00111-00601999999ADDGD13991+0120099GD24991+0300099GF108991999999999999999999MA1102911999999MW1001
0103080530999991978120112004+42533-006583FM-12+054499999V0209991C00001007501CN0035001N9+00601+00401101651ADDAA199000091AY121999GF108991061071008001071999MA1999999095061MD1810031+9999MW1101REMSYN01169506 700//
0073966850999991978081500004-03450+114750FM-12+0020WRBB V0201701N00261045001CN0100001N9+02401+02201101121ADDAA124000091AY121999GF107991011051004501071011MW1051EQDQ01  00003PRCP99
0065723035999991978121715004+35000-078883SAO  +0057FAY  V0203001N005112200019N0160001N1+00831-00601999999ADDAG10000GF100991999999999999999999MA1102641999999MW1001OC101231
0053063700999991978091615294+51450+005417FM-15+0022EHEH V0202301N00661220001CN0050001N1+01901+01301999999ADDGA1021+006009089MA1102201999999MW1051REMMET004WHT?
0065999999999991978010700004+49500-127100FM-13+9999SHIP V0201001N009319999999N0100001N9+00431+99999101501ADDAY171999GF108991081999999999999999GJ100009MD1410001+9999MW1021
0125420270999991978101412004+34083+074833FM-12+158599999V0209991C00001220001CN0100001N9+02001+01101999999ADDAA199000091AY101999GF100991001001999999001001KA1999M+02601MA1999999084041MD1999999-0141ME1314879MW1021REMSYN01168404 70026
0085879340999991978071819004-53800-067750FM-12+001099999V0201101N00361000601CN0005001N9+00301+00301098891ADDAY141999GF108991081061000751999999MD1710161+9999MW1441WG199990099999REMSYN005987.6
0119305370999991978051912004+54033+108267FM-12+046599999V0202901N01001007501CN0200001N9+00301-00601100641ADDAA199999929AG13000AY121999GF107991051091008001091001KA1999M+00801MD1210121+9999MW1021OA199902201REMSYN01179708 91122
0099724456139971978083013004+38133-091767SAO  +0350VIH  V0200301N005612200019N0112001N1+01781+01501101661ADDGD12991+0090099GD22991+0300099GF102991999999999999999999MA1101731999999MW1001REMAWY010!VIH&6/10?
0090025920999991978012421004+57367+017100FM-12+000499999V0201001N01341001201CN0060001N9+00101-00201099171ADDAY121999GF108991081061001501999999MD1710121+9999MW1101UA1M990099999REMSYN01143128 00280
0064589680999991978083018004+25033+121517FM-12+000999999V0201601N00201220001CN0100001N9+02401+02301100581ADDAG11000AY101999GF101991011041012501001001MD1710041+9999MW1021
0040105445999991978110906004+50550+009650FM-15+0305EDEX V0202101N00101003001CN0004001N1-00101-00101999999ADDGA1091+003009999MA1103221999999MW1431
0064387130999991978100821004+39900+068983FM-12+104399999V0201401N00201220001CN0500001N9+01201-00301999999ADDAG11000AY101999GF100991001001999999001001MD1810041+9999MW1021
0131406890999991978022209004+30567+047783SY-MT+0002ORMM V0201801N00721002401CN0030001N1+01701+01401101411ADDGA1061+002409079GA2011+030009039GF106991061021008001999001MA1101491999999MD1810081+9999MW1101MW2611REMSYN001TEQDQ01+000002SCOMCG
0071026390999991978110903004+55433+013833FM-12+003499999V0202301N00411000301CN0018001N9+00701+00601102781ADDAY121999GF108991081061000251999999MD1410001+9999MW1101REMSYN00500192
007494369099999197803170500N-22350+149530AUST +0014     V0201135N002659999999N999999999+03255+01605999999ADDAY134999GA1025+009005085GF102995024025009005999999MA1999999100305MW1025
0080477640433241978030222004+34150+132233SAO  +0003RJOI V0203001N001012200019N0080001N1+00171+00061102061ADDGD12991+0300099GD22991+0690099GF102991999999999999999999MA1102031999999MW1451
0078576330999991978061315004+28850+108767FM-12+066599999V0201801N00201012001CN0250001N9+02301+02101100471ADDAG12000AY111999GF108991081041012501999999MD1110131+9999MW1031REMSYN00500100
0078337770999991978030709004+47567+031333FM-12+003399999V0201401N00301004201CN0040001N9+00201+00001101801ADDAG12000AY151999GF108991081061004501999999MD1710061+9999MW1281REMSYN00590586
0101080270999991978031712004+43317-002050FM-12+025999999V0202701N00721004201CN0100001N9+00501+00301101421ADDAA106002091AY161999GF108991081071004501999999MD1210161+9999MW1631REMSYN005702//EQDQ01  00203PRCP99
0153316610999991978030609004+49867+136767FM-12+006499999V0202501N00201220001CN0200001N9-00702-01802102072ADDAA199000091AG10000AY111999GF100991001001999999001001KA1999M+00001MD1310051+9999MW1011REMSYN00570050EQDQ01+026623ATOT  Q02+025523ATOD  Q03+102073APOSLP
0099719050999991978022220004+55283-077767SAO  +0018YGW  V0209991C000012200019N0240001N1-01901-02201100751ADDGD12991+0360099GD22991+0690093GF102991999999999999999999MA1100751100521MW1001EQDQ01+999990APOSP 
0058072990999991978091017204+47600+007517FM-15+0270LFSB V0202401N00201999991CY0099001N1+02101+01201999999ADDMA1102401999999REMMET012CAVOK NOSIG?EQDQ01+000000PRSWM2
0068173000999991978062810004+36900+030783FM-15+0050LTAI V0201401N00461009001CN0112001N1+02801+02201999999ADDGA1061+009009089MA1100811999999REMMET006NOSIG?EQDQ01+000000PRSWM2
0117944880999991978042005003-25433+142650FM-12+012999999V0203401N00261220001CN0500001N9+03401+00101101211ADDAA199000091AY101999GA1005+999999999GA2005+999999999GA3015+999999999GF101991001001999999001021MA1999999099725MW1035
0039156091999991978060805304+42700+023400FM-15+0530LBSF V0209991C00001220001CN0070001N1+01401+01101999999ADDMA1102101999999MW1101REMMET006NOSIG?
0078105445999991978031705004+50550+009650FM-15+0305EDEX V0209991C000010117019N0080001N1+00101-00101999999ADDGA1021+003909079GA2081+011409059MA1099531999999MW1051REMMET013CIG039 FIRST?
0122999999999991978042900004+16400+129600FM-13+0000JBMH V0201501N00211220001CN0200001N9+02801+02501101051ADDAY101999GF102991021021004501001001MD1110051+9999MW1021SA1+2859UA1M010059999UG1060300109REMSYN0230//25 12850 30101 01606
0134080420999991978042418004+42900-008433SY-MT+0370LEST V0202401N00611006001CN0112001N1+00901+00701100871ADDAA199004091AY181999GA1041+004509089GA2051+006009089GF105991051081004501001001KA1999M+01301MA1100811999999MW1251MW2801REMSYN00570413
0094039150999991978041009004+55217-006267AERO +006899999V0203501N00771010501CN0100001N9+99999+99999999999ADDAY171999GA1031+004509089GA2051+010509059GF106991999999999999999999MW1221EQDQ01+000003PRSWM2
0065722436129061978061211004+29617-095167SAO  +0012EFD  V0200901N001012200019N0160001N1+02391+02171999999ADDGD12991+0060099GF102991999999999999999999MA1101731999999MW1001
0050722115999991978040314004+27400-082550SAO  +0007SRQ  V0201001N004112200019N0112001N1+02221+01611999999ADDGF100991999999999999999999MA1102611999999MW1001
0058103840999991978050307204+52467+013400FM-15+0050EDBB V0200201N00251999991CY0099001N1+00801+00201999999ADDMA1101291999999REMMET012CAVOK NOSIG?EQDQ01+000000PRSWM2
0057124000999991978111303004+51933+015500FM-12+018099999V0201701N00301220001CN0030001N9-00201-00401102581ADDAY101999GF100991001001999999001001MD1410001+9999MW1101
0125268780999991978072609004+53450+031017FM-12+017099999V0203201N00501003001CN0060001N9+01401+01201101461ADDAG12002AY161999GA1081+003009099GF108991081031002501999999MD1210121+9999MW1251OA199901101WG199060499999REMSYN01188910 91111
0071070150999991978070307004+50567+003100FM-15+0048LFQQ V0202401N00721003601CN0080001N1+01401+01401999999ADDGA1031+001509079GA2071+003609059MA1100711999999MW1601REMMET006NOSIG?
0062999999999991978081006004+11100+082800FM-13+0000ATML V0202501N009319999999N0200001N9+03301+99999100051ADDAY121999GF107991999011001501021001MW1021EQDQ01+000082SCOTLC
0116999999999991978091618004+38000-009400FM-13+0000UKDO V0202501N00701220001CN0200001N9+02101+99999102161ADDAY101999GF101991001999999999001071MD1310251+9999MW1101SA1+2239UA1M020159999UG1090303109REMSYN01712230 30203 31906
038872251012924197806051500E+27767-097500SAO  +0012CRP  V0202005N002652200059N024000599+02945+02395101375ADDAA101000095GA1999+005494084GA2999+024384034GA3999+076204004GA4999+999999999GD12025+9999999GD22005+9999999GD32005+9999999GD40005+9999999GF102025999999999999999999MA1999999101225EQDN01 00000JPWTH 1QNNE11 1 00203E11 1 00200E11 1 00200E11 1 00000G11U1 99999H11 1 11018H11 1 23080H11 1 32250H11 1 00999K11 1 00075L11 1 01500M11 1 29890N11 1 00000Q11 1 10137S11 1 00085V11 1 00303X11 1 20005
0043071430999991978103003004+48467+001517FM-12+015599999V0200501N002119999999N0020001N9+00201+00101102871ADDGF199999999999017501999999MD1710061+9999
0108999999999991978111700004-29200+161100FM-13+0000GOUR V0201201N00571220001CN0200001N9+02101+01201102271ADDAY101999GF102991021011004501001001MD1210031+9999MW1021UA1M020109999UG1070201709REMSYN01705112 30202 17704
0148564440999991978080818004+28500+098917FM-12+359199999V0201801N00501007501CN0100001N9+01101+01001999999ADDAA106999929AG10002AY181999GF108991081061008001999999KA1999M+01901MA1999999066031MD1610061+9999MW1031REMSYN01766603 /9719 00000EQDQ01  99993PRCP99
0024161400999991978101316204+44533+011300FM-15+0036LIPE V0209991C00001220001CN0030001N1+01901+01301999999ADDMA1102511999999MW1101
0132032220999991978050412004+54933-002800FM-12+0055EGNC V0203001N00461075001CN0110001N9+01301+00901101211ADDAA199000091AY121999GA1011+008409089GA2071+075009009GF107991011021008001031021MD1310031+9999MW1021REMSYN023700// 81828 87075 COTRA
054472206013889197808140000C+30500-081700SY-SA+0008JAX  V0201405N001550762049N0096005N1+02835+02335101765ADDAA101000095AY191999GA1999+009144094GA2999+042674034GA3999+076204004GA4999+999999999GD12999+0420099GD24025+0750099GD30085+9999999GD40005+9999999GF108065021091999999061991KA1999M+03331KA2999N+02391MA1101761101665MD1310031+9999MW1011MW2055REMSYN02763166 49375 TIDE  PLUS  005AWY038303 1962 92      ?    AYS RADAT 89149?EQDN01 08100JPWTH 1P01    003SCCGD1QNNE11 1 00200E11 1 00602E11 1 00010E11 1 00000G11 1 00250H11 1 18030H11 1 23140H11 1 32250H11 1 00999K11 1 00074L11 1 00600M11 1 30020N11 1 08100Q11 1 10176S11 1 00083V11 1 01007X11 1 14003
0083320040999991978031303004+53283+141833FM-12+000499999V0200501N00801004201CN0040001N9-00201-00201101141ADDAG12002AY171999GF108991999071004501021999MD1110031+9999MW1361EQDQ01+000082SCOTLC
0132726500999991978112715004+43167-095150SAO  +04043SE  V0202701N00251018001EN0032001N1-00661-00821101561ADDAG10000GD13991+0180099GF107991999051999999001001MA1101351096551MD1610101+9999MW1451REMAWY018610 1500 20 NOSPL?EQDQ01+999990APOSP 
0074619670707011978020211004-07350+072483FM-15+0001FJDG V0203101N00561220001CN0112001N1+02901+02401999999ADDGA1021+003609089MA1100751999999REMMET012CIGNO TCU S?EQDQ01+000000PRSWM2
0422722516129281978110121003+27500-097817SAO  +0017NQI  V0200505N005252200059N0112005N1+03005+01835102275ADDAG10000GA1999+009144084GA2999+030484034GA3999+076204004GA4999+999999999GD12025+0090099GD22025+0300099GD33025+0750093GD40005+9999999GF106025999011999999071991MA1102241102105MD1610171+9999MW1001REMAWY009617 1171?EQDN01 00000JPWTH 1QNNE11 1 00202E11 1 00202E11 1 00303E11 1 00000G11U1 99999H11 1 11030H11 1 23100H11 1 32250H11 1 00999K11 1 00065L11 1 00700M11 1 30150N11 1 00000Q11 1 10227S11 1 00086V11 1 00703X11 1 05010
0065478540999991978080214104+32083+131450FM-16+0078RJFN V0202201N00771007501CN0112001N1+99999+99999999999ADDGA1011+002109089GA2031+003009089GA3071+007509089MW1801OC101131
0057042500999991978042921004+64167-051750FM-12+002599999V0200401N00511030001CN0300001N9+00301+00201102201ADDAY121999GF108991021071008001021999MD1710091+9999MW1021
0084278570999991978012403004+53500+042617FM-12+013399999V0201801N00601007501CN0080001N9-01501-01601102141ADDAG11000AY121999GF108991081061008001999999MD1710161+9999MW1101REMSYN01192403 90104
0113570060999991978091421004+34583+105750FM-12+113299999V0209991C00001220001CN0090001N9+01201+01101101201ADDAG12000AY111999GF100991001001999999001001MA1999999088641MD1710091+9999MW1101WG199010999999REMSYN01168864 00151
0109999999999991978090218004+42300-050000FM-13+0000GVHC V0200201N00311004201CN0200001N9+01551+01401101591ADDAY121999GF108991081051004501999999MD1110081+9999MW1031SA1+1509UG1050102009REMSYN0230//14 11505 3//// 20502
0097724297938121978052700004+39100-084433SAO  +0149LUK  V0200601N003612200019N0080001N1+02671+01721101861ADDGF100991999999999999999999KA1999M+02941MA1101901999999MW1051REMAWY025/// 85;LUK?4/10 5/3 5/23?
0073106160999991978110620004+49950+007267FM-15+0503EDAH V0201501N005110018019N0040001N1+00501+00201999999ADDGA1021+000909079GA2061+001809079MA1102951999999MW1101REMMET008CIGE006?
0120321740999991978020615004+45233+147883FM-12+003899999V0202701N012019999999N0005001N9-00401-00501100231ADDAG12006AY181999GF106991061081999999001001MD1210121+9999MW1861OA199901701REMSYN01791117 91212 92374EQDQ01+000992SCOLCB
0089226410999991978122900004+63900+038117FM-12+000899999V0201401N00201220001CN0110001N9-03901-04201101891ADDAA199000091AG14000AY101999GF100991001001999999001001MD1810061+9999MW1021REMSYN005700//
0082865950999991978061506004-34967-054950FM-12+001599999V0200401N00821220001CN0100001N9+01401+01301101661ADDAA199000091AY111999GF104991021051008001011001MD1810231+9999MW1031REMSYN005700//
0058076300999991978101105004+43633+001367FM-15+0152LFBO V0201601N00561999991CY0099001N1+01501+01201999999ADDMA1102001999999REMMET012CAVOK NOSIG?EQDQ01+000000PRSWM2
0057725905232751978101310004+39133-123200SAO  +0189UKI  V0209991C000012200019N0240001N1+01281+00831101371ADDAG10999GF100991999999999999999999MA1101421999999MW1001
0093039740999991978121915004+54183-007233FM-12+008799999V0201801N00311075001CN0300001N9+00601+00301101381ADDAY111999GA1031+060009009GF105991031051012501001021MD1610091+9999MW1031REMSYN01183635 83070
031472261022010197807021500C+29367-100917SAO  +0313DRT  V0201305N006252200059N0160005N1+02895+02115101155ADDAA101000095GD10995+9999999GD20995+9999999GD30995+9999999GF100005999999999999999999MA1101321097635MD1310121+9999MW1001REMAWY004312?EQDQ01+999990APOSP N01 00000JPWTH 1QNNE11 1 00099E11 1 00099E11 1 00099E11 1 00099G11U1 99999K11 1 00070L11 1 01000M11 1 28830N11 1 00000Q11 1 10115S11 1 00084V11 1 00000X11 1 13012
0059722026128261978012117004+25483-080383SAO  +0002HST  V0203501N005112200019N0096001N1+01781+01001999999ADDGD12991+0090099GF102991999999999999999999MA1102271999999
0091879120999991978052814004-50017-068567FM-12+0113SAWU V0202301N002619999999N0030001N9+00201+00101102041ADDAY141999GF107991999051004501999999MD1210191+9999MW1411REMSYN0061020,1EQDQ01+000082SCOTLC
0078516560999991978011109004+41750+086133FM-12+093399999V0200901N00401090001CN0150001N9-01301-01901103371ADDAG12000AY121999GF107991001001999999001071MD1710131+9999MW1011REMSYN00505302
0077724386148351978030506004+40417-086933SAO  +0184LAF  V0202401N002512200019N0160001N1-01381-01771102561ADDGF100991999999999999999999KA1999M-00561MA1102441999999MD1510031+9999MW1001
0038165200999991978070710204+40633+008283FM-15+0023LIEA V0203001N00771220001CN0112001N1+01901+01401999999ADDGA1041+004809089EQDQ01+000000PRSWM2
0117032080999991978012718004+54417-004367FM-12+000999999V0201401N01241002101CN0024001N9+00601+00501098121ADDAA199014091AY161999GA1081+002109079GF108991081071002501999999KA1999M+00601MD1710591+9999MW1611REMSYN01171406 88707
0073102150999991978060806444+53183+008167FM-15+0012EDNO V0202301N00511003001CN0030001N1+01401+01101999999ADDGA1041+001509079GA2081+003009049MA1101081999999MW1611REMMET008YLO YLO?
0064235180999991978072809004+64267+057617FM-12+007599999V0203601N00601030001CN0650001N9+01401+00301101391ADDAG12000AY111999GF107991041031008001031011MD1710051+9999MW1031
0082042400999991978110712004+65400-052867FM-12+002599999V0200701N00411012001CN0400001N9-00501-00601098711ADDAA199000091AY121999GF108991081051012501999999MD1710401+9999MW1031REMSYN005700//
0064319130999991978021915004+45233+131983FM-12+008299999V0209991C00001220001CN0200001N9-01701-01901101721ADDAG12000AY121999GF106991001001999999001061MD1210011+9999MW1021
0075164700999991978031611004+36817+011967FM-15+0187LICG V0203201N00301220001CN0112001N1+01401+00801999999ADDGA1031+004809089REMMET028SCT QUK2 QUL0 VIS MAR 20 KM?EQDQ01+000000PRSWM2
0090483000999991978081109004+19300+097833FM-12+0270VTCH V0209991C00001045001CN0120001N9+03001+02201099941ADDAY161999GF106991041081008001071061MD1999999-0121MW1211UA1M999999999REMSYN01139799 408//
0057999999999991978071712004+74600-145300FM-13+0000SHIP V0200701N00501220001CN0300001N9+00101+99999102621ADDAY111999GF101991011001022501031001MD1210031+9999MW1011
0145307810999991978121200004+52750+120033FM-12+037099999V0209991C00001030001CN0500001N9-02901-03001102192ADDAA199000091AG10000AY111999GF108991081001999999021999IA1319IA2999-02709KA1999N-02901MD1310861+9999MW1021REMSYN01170079 27792EQDQ01+102193APOSLP
0094289660999991978060103004+52817+066967FM-12+022799999V0201601N005019999999N0200001N9+01801+00901099451ADDAA199000091AG10000AY121999GF108991081091999999999999KA1999N+01301MW1021REMSYN01107701 70013
0093507270999991978021000004+47167+119950FM-12+102899999V0201601N00201220001CN0300001N9-03601-03901104221ADDAG11000AY111999GF101991001001999999001021MA1999999090021MD1710041+9999MW1011REMSYN00569002
0102724386148351978082921004+40417-086933SAO  +0184LAF  V0203101N003012200019N0160001N1+02501+01561101691ADDGD12991+0075099GD24991+0750093GF108991999999999999999999MA1101731999999MW1001REMAWY013803!LAF&8/12?
033172219013874197806211400C+33650-084433SAO  +0308ATL  V0203105N001552200059N0112005N1+02565+01895101915ADDAA101000095GD12995+0360099GD23995+0750093GD30995+9999999GD40995+9999999GF106035999999999999999999MA1102031098275MW1001REMAWY020;ATL?4/24 5/13 6/16?EQDQ01+999990APOSP N01 00000JPWTH 1QNNE11 1 00299E11 1 00399E11 1 00099E11 1 00099G11U1 99999K11 1 00066L11 1 00700M11 1 29020N11 1 00000Q11 1 10191S11 1 00078V11 1 00804X11 1 31003
006772519014771197804071400D+43117-076117SAO  +0128SYR  V0203101N006210009019N0012001N1+00541+00481101251ADDAA101000595GF108991999999999999999999MA1101221099731MW1451MW2511
0037744600999991978050415004+41367-088683SAO  +0223MMO  V0200601N009219999999N9999999N9+00941-00321999999ADDMA1100171999999EQDQ01+000002VOVAR 
0080724971999991978042122044+39783-121850SAOSP+0072CIC  V0209991C000012200019N1280001N1+99999+99999999999ADDGD12991+0105099GD23991+0600093GF107991999999999999999999MA1102101999999MW1001
0133719060999991978083109004+58100-068417SAO  +0031YVP  V0202501N00361003601EN0240001N1+00501+00401100531ADDGD13991+0036099GD24991+0096099GF108991999999999999999999MA1100511100061MD1110041+9999MW1001REMAWY011?6SC4 104 ?EQDQ01+999990APOSP 
0082673410999991978122712004-25917+032567FM-12+0039FQMA V0200801N00821220001CN0250001N9+02901+01901101131ADDAA199000091AY101999GF101991001001999999001011MD1610131+9999MW1021REMSYN005700//
0051134520999991978062703304+42567+018267FM-15+0161LYDU V0200901N00251999991CY0099001N1+01601+00901999999ADDMA1100911999999REMMET005CAVOKEQDQ01+000000PRSWM2
0077467360999991978100404004+24433+118433FM-15+0012RCBS V0200501N00511007501CN0112001N1+02901+02101999999ADDGA1051+007509089MA1101291999999REMMET0152992INS CIG025?EQDQ01+000000PRSWM2
0017092490999991978121122004+53383+010717FM-12+004599999V0201201N007019999999N9999999N9+00401+00401100231ADDMD1710191+9999
032172438093819197807120500C+39733-086283SAO  +0241IND  V0200805N003152200059N0320005N1+01835+00945102095ADDAA101000095GD10995+9999999GD20995+9999999GD30995+9999999GF100005999999999999999999MA1102131099195MW1001REMAWY025;IND?7/14 7/17 6/19 7/25?EQDQ01+999990APOSP N01 00000JPWTH 1QNNE11 1 00099E11 1 00099E11 1 00099E11 1 00099G11U1 99999K11 1 00049L11 1 02000M11 1 29290N11 1 00000Q11 1 10209S11 1 00065V11 1 00000X11 1 08006
0087064580999991978061223004+50750+004767FM-12+0105EBBE V0203201N00261015001CN0300001N9+00901+00601102101ADDAY121999GA1071+015009059GF107991071051017501999999MD1110041+9999MW1021REMSYN00587650
0009943940999991978060703004-23250+155533FM-12+000699999V0202201N005119999999N9999999N9+02301+99999101051ADDMW1001
0144702720999991978081612004+61250-149800SAO  +0064PAED V0201601N000510450019N0240001N1+01331+00891101801ADDGD12991+0240099GD23991+0450099GD34991+0600099GF108991999001999999071071MA1101761999999MD1810021+9999MW1001REMAWY026MAG13/     ?     802 1077?
0088106570999991978091205004+49767+009483FM-15+0338EDOF V0202801N00511001801EN0100001N9+01001+00901999999ADDGA1051+001809079GA2021+004509059GA3011+009009059MA1101461999999MW1001REMMET007CIGE006
0068915920999991978040521004-22267+166450FM-12+006999999V0200801N00621220001CN0200001N9+02401+01901101161ADDAA199000091AY111999GF106991011081008001001061MW1031REMSYN00570020
0114594560999991978110618004+22350+110933FM-12+008499999V0209991C00001015001CN0180001N9+02101+01801101921ADDAA106999929AY161999GF108991081051017501999999KA1999M+02801MD1710071+9999MW1011REMSYN005/9728EQDQ01  99993PRCP99
0025163640999991978021801004+38883+016483FM-16+0362LIBK V0203001N00611000151CN0000001N1+99999+99999999999ADDGA1091+000159999MW1451
0137484030999991978081200004+15800+102033FM-12+018299999V0202701N00311004201CN0020001N9+02301+02201100101ADDAA106008091AA224009091AY161999GF108991071071004501021999KA1999N+02301MD1999999-0171MW1611REMSYN01770923 419/0 92908EQDQ01  00803PRCP99
0150999999999991978120418004+48900-145600FM-13+0000UIWK V0203101N00401220001CN0200001N9+00831+99999104101ADDAY101999GF102991001001999999001041MD1210381+9999MW1011SA1+0629UA1M030159999UG1080203009WA1900009REMSYN02310623 20000 30303 30804EQDQ01+000022SCOTLC
0190843700999991978050715004-03550-080400SY-MT+0025SPME V0209991C00001006601CN0112001N1+02401+02301101291ADDAY121999GA1051+006609079GA2031+009009059GF108991081051008001999999MA1101391101001MD1999999+0001MW1021REMSYN02363100 84722 84630 990//MET029NIEBLA LIG EN TODS LOS CUAD.?EQDQ01+000000PRSWM2
0082477880999991978091811004+34033+131533FM-15+0002RJOF V0200501N00251220001CN0112001N1+02501+02201999999ADDGA1011+006009089GA2031+024009039MA1101121999999REMMET004115?EQDQ01+000000PRSWM2
0158517010999991978060100004+40450+075383FM-12+365199999V0209991C00001090001CN0300001N9+00001-00101999999ADDAA106999929AA224001091AG10002AY181999GF107991001001999999001021MA1999999066561MD1210021+9999MW1031REMSYN02966656 /97// 99718 22001 00100EQDQ01  99993PRCP99
0109102350999991978043006004+53000+009833FM-12+007799999V0200901N00411220001CN0080001N9+00701+00301101561ADDAA199000091GA1011+036009039GF102991011001999999031011KA1999N+00601MD1710101+9999MW1031REMSYN01170006 81362
0164067000999991978062206004+46250+006133FM-12+0416LSGG V0202301N00151220001CN0100001N9+01301+01101101471ADDAA199000091AY111999GA1011+024009039GF101991011011017501041001KA1999N+01201MA1999999096601MD1110021+9999MW1011WG199030299999REMSYN02969660 70012 81850 81358 94097
0067165310999991978032319004+40900+009517FM-15+0011LIEO V0202701N00511009001CN0112001N1+01301+00701999999ADDGA1031+007509089GA2051+009009059REMMET004BKN?EQDQ01+000000PRSWM2
0102574760999991978060706004+30350+112183FM-12+003599999V0200201N00201012001CN0250001N9+02701+02101100591ADDAA199000091AG10000AY111999GF106991061041012501001001KA1999N+02101MD1710161+9999MW1011REMSYN005/0021
0138119160999991978082112004+48933+019583FM-12+200899999V0209991C00001018001CN0250001N9+00401+00301999999ADDAA199000091AY121999GA1021+999999089GA2081+018009039GF108991021021999999071999MD1110091+9999MW1281REMSYN029700// 828// 88356 MONT  28//9
0189713980999991978112212004+45367-063267SY-SA+0040WTQ  V0200901N001012200019N0240001N1-01501-01801103421ADDAG12000GD12991+0300099GD22991+0750099GF102991011001999999031011KA1999M-00401KA2999N-01501MA1103391102901MD1510001+9999MW1021REMSYN01163290 45465AWY017AC1CI2 98058 500?EQDQ01+000003PRSWM2
0078353020999991978072006004+50200+051167FM-12+001699999V0202301N00101220001CN0200001N9+02301+00201101341ADDAG11000AY111999GF105991001001999999001011MD1410001+9999MW1021WG199060899999
028772544014923197810020500C+41450-090500SAO  +0177MLI  V0201605N002652200059N0192005N1+01115+00725101815ADDAA101000095GD10995+9999999GD20995+9999999GD30995+9999999GF100005999999999999999999MA1101831099665MW1001EQDQ01+999990APOSP N01 00000JPWTH 1QNNE11 1 00099E11 1 00099E11 1 00099E11 1 00099G11U1 99999K11 1 00045L11 1 01200M11 1 29430N11 1 00000Q11 1 10181S11 1 00052V11 1 00000X11 1 16005
0064549520999991978041400004+35967+120483FM-12+002599999V0201801N01101012001CN0110001N9+01001+00901100521ADDAG11000AY111999GF106991061041012501999999MD1710061+9999MW1031
0198476340999991978120123004+35383+136883FM-15+0045RJNG V0200101N00101009001CN0090001N1+00701+00501999999ADDGA1011+006009089GA2061+009009059GA3071+027009039MA1102711999999MW1801REMMET117274. BR/         ?     FCST 2305 98232 4000 5ST015 8SC030 8AC080 96011 WXNIL 4SC030      ?     5AC090 96021 33015/23?
0057834970999991978060406004-17633-039250FM-12+0004SBCV V0209991C00001220001CN0200001N9+02201+02201101751ADDAY101999GF100991001001999999001001MD1210101+9999MW1021
0080727976242171978031922004+48800-122533SAO  +0048BLI  V0203501N002512200019N0640001N1+01441+00611102061ADDGD12991+0075099GD22991+0750093GF102991999999999999999999MA1102031999999MW1001
0100167540999991978052610504+35333+025183FM-15+0038LGIR V0200201N00361060001CN0112001N1+02501+01801999999ADDGA1011+009009089GA2031+030009039GA3051+060009009MA1101081999999REMMET006NOSIG?EQDQ01+000000PRSWM2
0121877150999991978110712004-38950-068133FM-12+0270SAZN V0209991C00001090001CN0400001N9+01801+00501101071ADDAA124000091AY121999GF107991021001999999071061KA1999N+01301MD1810131+9999MW1021REMSYN01270013 1011,7EQDQ01  00003PRCP99
0136071470999991978020500004+48767+002200FM-12+0177LFPV V0201601N00671000601CN0020001N9+00101+00001101951ADDAA106005091AY171999GA1081+000609079GF108991081071000751999999KA1999M+02001MD1810061+9999MW1581REMSYN01170520 88702EQDQ01  00503PRCP99
0065726375999991978050516004+42667-083417SAO  +0299PTK  V0200801N00511001501EN0032001N1+00721+00441999999ADDGD14991+0015099GF108991999999999999999999MA1100541999999MW1451
0051064500999991978010905504+51183+004450FM-15+0012EBAW V0202001N00301000601CN0008001N1+00201+00201999999ADDED111U10979GA1081+000609079MA1102511999999MW1501
0038161340999991978011520004+44200+010700FM-16+2165LIVC V0202301N00101220001CN0112001N1+99999+99999999999ADDGA1021+001209039EQDQ01+000000PRSWM2
0106742060242071978062421004+47150-122483SAO  +0098TCM  V0201801N003010300019N0320001N1+01941+00941101861ADDGD12991+0090099GD23991+0300099GF107991999051999999071001MA1101861999999MD1410001+9999REMAWY009400 1570?
0080315340999991978062815004+50433+131017FM-12+020499999V0209991C00001000301CN0003001N9+01501+01501100351ADDAG12000AY141999GA1091+999999999GF109991091999999999999999MD1210091+9999MW1471
0050722725999991978020805004+32250-107700SAO  +1315DMN  V0209991C000012200019N0400001N1+00501+00111101071ADDGF100991999999999999999999MA1101321999999MW1001
0141722420999991978111012004+29300-094800FM-12+001699999V0201901N00361220001CN0160001N9+02101+01401101351ADDAG12000AY101999GF101991011051008001001001KA1999M+02111KA2999N+01891MA1999999101151MD1310051+9999MW1021REMSYN02763115 47066 TIDE  PLUS  011
0078034000999991978092007004+52750-004800AERO +001699999V0209991C00001220001CN0300001N9+99999+99999999999ADDAY101999GA1031+004509089GF103991999999999999999999MW1031EQDQ01+000003PRSWM2
0083307260999991978112506004+52567+107133FM-12+046099999V0202501N00301012001CN0500001N9-00601+99999104091ADDAG11000AY121999GF105991051051012501001001MD1810031+9999MW1021EQDQ01+024023ATOD  
0105787300999991978081523004+14033-083400FM-16+0015MNPC V0200401N00511030001CN0112001N1+02801+02401999999ADDGA1021+007509059GA2041+030009049GA3021+090009009MA1101191101011MW1061REMMET005CB N?EQDQ01+999990APOSP 
0123841010999991978081515004-00583-080400SY-MT+0003SEBC V0203001N00411007201CN0200001N1+02301+02001101301ADDAY141999GA1081+007209059GF108991081051008001999999MA1101291101261MD1999999-0051MW1051REMSYN00563126MET015BRULIG ALL QDS?
0098722045128431978092119004+27650-080417SAO  +0007VRB  V0200701N006112200019N0240001N1+03061+02171101661ADDGD12991+0090099GF102991999999999999999999MA1101661999999MW1001REMAWY024CB DSNT SW K LYR E-OVHD?
0071484500999991978030603004+14017+099533FM-12+002699999V0209991C00001220001CN0050001N9+03201+01901101171ADDAY101999GF101991011011008001001001MD1999999-0111MW1051REMSYN005407//
0057930110999991978020611004-35067+173283FM-12+0082NZKT V0201301N00211220001CN0200001N9+01801+01501101931ADDAY121999GF106991041011008001001011MD1110141+9999MW1021
044072386023169197801030900C+36083-115167SAO  +0659LAS  V0202405N003652200059N0240005N1+00395-00065102075ADDAA101000095GA1999+033534034GA2999+070104024GA3999+999999999GA4999+999999999GD11999+0690093GD20025+9999999GD30005+9999999GD40005+9999999GF102015999001999999061991MA1102031094285MD1810101+9999MW1001EQDQ01+999990APOSP N01 00000JPWTH 1P01    003SCCGD1QNNE11 1 00100E11 1 00002E11 1 00000E11 1 00000G11U1 99999H11 1 23110H11 1 37230H11 1 00999H11 1 00999K11 1 00031L11 1 01500M11 1 27840N11 1 00000Q11 1 10207S11 1 00039V11 1 00201X11 1 24007
0117280640999991978090712004+59617+065783FM-12+007299999V0200201N00601003301CN0033001N9+00901+00901100551ADDAA199010091AG10003AY191999GA1081+003309099GF108991081091004501999999MD1710161+9999MW1811REMSYN017710// 88911 90813
0106039800999991978121402004+55367-007333FM-12+002099999V0201301N00881220001CN0500001N9+00401+00201096991ADDAY101999GA1031+013509059GF104991031051012501031021MD1110191+9999MW1031UA1M990099999REMSYN01183645 91839
0095160080999991978071606004+46833+010517FM-12+1512LIVE V0203201N00211220001CN0250001N9+00701+00401999999ADDAA199000091AY101999GF100991001001999999001001KA1999N+00601MD1710021+9999MW1021REMSYN00570006
0057443410999991978061709004+45767+106283FM-12+139799999V0203601N01401220001CN0500001N9+01701+00201100811ADDAY121999GF104991021001999999041021MD1110111+9999MW1021
0108248590999991978101215004+61283+128933FM-12+011899999V0209991C00001007501CN0500001N9-00801-00901102751ADDAG12000AY121999GA1081+007509059GF108991081091008001999999MD1210031+9999MW1021WG199260399999REMSYN00588625
0164076100999991978072306004+43383-000417FM-12+0188LFBP V0209991C00001220001CN0080001N9+01401+01301102231ADDAA199000091AJ100009199999999AY101999GA1011+004809059GF101991011051004501001001IA1009IA2999+00909KA1999N+01201MD1610061+9999MW1021REMSYN02320900 70012 81616 95490
0087915920999991978030706004-22267+166450FM-12+006999999V0201401N00881012001CN0150001N9+02401+02001101641ADDAA199999999AY121999GF106991061081008001001001MW1251REMSYN00579730EQDQ01  00002PRCP99
0158610800999991978021306004+13467+007083FM-12+036899999V0209991C00001090001CN0150001N9+01801+00101100901ADDAA124000091AY121999GA1031+045009039GA2061+090009029GF107991031001999999041061KA1999N+01801MD1999999-0041MW1021REMSYN01770018 83365 86280EQDQ01  00003PRCP99
0064350210999991978060918004+52350+055467FM-12+013599999V0209991C00001220001CN0120001N9+01701+01101101571ADDAG12000AY101999GF100991001001999999001001MD1310141+9999MW1021
0087111010999991978032012004+47500+009750FM-12+043699999V0202701N00461012001CN0250001N9+00601+00201101161ADDAY171999GA1081+012009059GF108991081081012501999999MD1710141+9999MW1021REMSYN00588640
0083722526129471978061503004+28450-099217SAO  +0144COT  V0201101N002512200019N0240001N1+02891+02061101651ADDGF100991999999999999999999MA1101731999999MD1210101+9999MW1001REMAWY010210 NOSPL?
0068162890999991978010613004+40883+014300FM-15+0088LIRN V0200401N00771220001CN0112001N1+00501+99999999999ADDGA1021+004809089MA1102611999999REMMET006NOSIG?EQDQ01+000000PRSWM2
0096106130999991978081013524+50167+007067FM-15+0477EDSB V0203101N00301024001CN0112001N1+01401+01001999999ADDGA1011+006009089GA2071+024009039MA1102001999999REMMET018BLU BLU TEMPO WHT?EQDQ01+000000PRSWM2
0175747320999991978071403004+32850-106100SAO  +1248HMN  V0200601N001512200019N0640001N1+02941+00891101011ADDGD12991+0180099GD22991+0360099GD33991+0750093GF107991999091999999061031MA1101691999999MD1310081+9999MW1001REMAWY057CBS        ?    42SW-50W STNRY OCNL LTGICCG SW/ 308 1963?
0082724457039381978071703004+37750-092150SAO  +0353TBN  V0201501N001012200019N0112001N1+02441+02221101261ADDGF100991999999999999999999MA1101391999999MD1310101+9999MW1001REMAWY009310 LAST?
0087039600999991978012221004+52667-007267FM-12+006399999V0201301N00051012001CN0250001N9+00201+00101100481ADDAY111999GA1081+012009059GF108991081051012501999999MD1810021+9999MW1031REMSYN00588640
0063725995999991978032721004+42833-124567SMARS+005792S  V0203601N00511220001CN0185001N9+01221+99999102101ADDGF104991999999999999999999MW1001REMSYN019OBS   CAPE  BLANCO?
0123717000999991978112520004+45867-066533SAO  +0020YFC  V0203001N00361006601MN0160001N1+00001-00401099761ADDAG10999GD13991+0066099GD23991+0120099GF107991999999999999999999MA1099761099511MW1851REMAWY008SC7SC2 ?EQDQ01+999990APOSP 
0089474880999991978061308004+41767+140817FM-15+0031RJCH V0201001N00361004201CN0090001N1+01101+01001999999ADDGA1021+001809079GA2061+004209079GA3081+007509049MA1101021999999MW1611REMMET0082984 BR?
0101076070999991978090115004+43917-000500FM-12+0062LFBM V0203601N00211220001CN0300001N9+02601+00801101241ADDAY101999GA1011+078009009GF101991001001999999001011MD1610211+9999MW1021WG199010199999REMSYN00581076
0057151200999991978122121004+46783+023567FM-12+041099999V0202701N00101004201CN0026001N9+00001+00001102551ADDAY121999GF108991081061004501999999MD1210061+9999MW1101
0114724585939971978122323004+38867-098817SAO  +0568RSL  V0203301N00771004501EN0096001N1+00111+00001101221ADDAG10999GD13991+0045099GD24991+0150099GF108991999999999999999999MA1101051999999MW1851OC101281REMAWY010RE15 SB15?
0274722405139761978020522003+30200-091983SAO  +0013LFT  V0203405N006752200059N0080005N1+01285+00005102745ADDGD10995+9999999GD20995+9999999GD30995+9999999GF100005999999999999999999MA1102741102615MW1045MW2051OC100921EQDN01 08200JPWTH 1QNNE11 1 00099E11 1 00099E11 1 00099E11 1 00099G11U1 99999K11 1 00032L11 1 00500M11 1 30300N11 1 08200Q11 1 10274S11 1 00055V11 1 00000X11 1 34013
0071162800999991978030216004+40917+012950FM-16+0184LIQZ V0203001N00361999991CY0099001N1+99999+99999999999REMMET043CAVOK 2CI200 SCT QUK 1 QUL 0 VIS MAR 10 KM?EQDQ01+000000PRSWM2
0049723155999991978060421004+35900-082817SAO  +0451HSS  V02099999999992200019N0240001N1+02561+01001999999ADDGF100991999999999999999999MW1001REMAWY005LAST?
0055080420999991978011005004+42900-008433FM-15+0370LEST V0200301N00251220001CN0080001N1+00601+00501999999ADDGA1031+004509059MA1102911999999MW1111REMMET006NOSIG?
0074130330999991978012512004+46300+016383FM-12+016799999V0209991C00001036001CN0200001N9+00401+00201100581ADDAA199000091GF108991081001999999071999MD1210091+9999MW1021REMSYN005700//
0167071100999991978032100004+48450-004417FM-12+0099LFRB V0203001N00571015001CN0250001N9+00701+00201101671ADDAA106000591AA299000691AY181999GA1021+006009089GA2071+015009059GF107991071081008001999999KA1999M+02001MD1110181+9999MW1031OA199901741REMSYN02379620 82820 87650 91134
0102256210999991978102409004+64117+159233FM-12+068399999V0209991C00001075001CN0200001N9-02801-03101999999ADDAA199000091AG14000AY121999GF107991001001999999001021KA1999M-02401MD1210061+9999MW1021REMSYN00570074
0072061040999991978122719504+55733+009150FM-15+0070EKBI V0200801N00461000901CN0025001N1-00101-00201999999ADDGA1031+000609079GA2071+000909079MA1100511999999MW1561REMMET007096015?
0089160940999991978032809004+45567+011533SY-MT+0039LIPT V0209991C00001220001CN0099001N1+01001+00401102401ADDAY111999GF105991001001999999001011MD1210041+9999MW1031REMMET023CAVOK 5CI200 10/04 BKN?
0064295870999991978090121004+55633+095467FM-12+025199999V0209991C00001220001CN0200001N9+00001+00001101701ADDAG11000AY121999GF107991021001022501041011MD1710041+9999MW1021
0064360520999991978040406004+52017+085900FM-12+033199999V0209991C00001220001CN0500001N9+00901+00001101551ADDAG11000AY111999GF100991001001999999001001MD1710191+9999MW1021
0109085050999991978070515004+38517-028717FM-12+004199999V0201401N00311012001CN0150001N9+02001+01801102691ADDAY181999GA1041+004509089GA2051+012009059GF107991071081004501001021MD1310021+9999MW1151REMSYN01184815 85640
009572556014941197808032000D+41983-097433SAO  +0479OFK  V0203401N005612200019N0240001N1+02171+00441102521ADDAA101000095GD12991+0120099GF102991999999999999999999MA1102571096961MW1001EQDQ01+999990APOSP 
0052403720999991978041802004+29217+047983FM-15+0055OKBK V0209991C000019999999N0090001N1+02301+00301999999ADDMA1100611999999REMMET006NOSIG?EQDQ01+000000PRSWM2
0037711310999991978043014004+49433-108983SAO  +1079WEH  V0201201N004619999999N9999999N9+00701+00701101331ADDMA1101251999999EQDQ01+000002VOVAR 
0054160330999991978122314004+46733+012217FM-15+1222LIVD V0209991C00001024001CN0090001N1+00001-00201999999ADDGA1021+010509089GA2061+024009039MW1101REMMET004OVC?
0089874670999991978050818004-32700-062150FM-12+0110SAOM V0203601N00881220001CN0100001N9+03001+01701999999ADDAA199000091AY101999GF100991001001999999001001MD1710131+9999MW1051REMSYN012700// XXXX.X
0128477430999991978011612004+35500+133233FM-15+0005RJOH V0200401N00511012001CN0112001N1+00301-00101999999ADDGA1011+004509089GA2041+009009089GA3051+012009059MA1102271999999REMMET034230/ FCST        ?     1218 NOSIG?EQDQ01+000000PRSWM2
0109039600999991978081116004+52667-007267FM-12+006399999V0201601N00511003601CN0080001N9+01401+01301101851ADDAY161999GA1071+003609079GA2081+013509049GF108991071061004501021999MD1710051+9999MW1631REMSYN01187712 88545
0136442940999991978110300004+47300+107483FM-12+142899999V0209991C00001220001CN0200001N9-01601-01801103191ADDAA199000091AJ100009199999999AY101999GF100991001001999999001001IA1009IA2999-01809KA1999N-01701MD1710041+9999MW1021REMSYN01170067 26800
0058076900999991978111102304+43650+007200FM-15+0004LFMN V0203401N00411999991CY0099001N1+01001+00501999999ADDMA1102611999999REMMET012CAVOK NOSIG?EQDQ01+000000PRSWM2
0132333620999991978122306004+50583+032383FM-12+013299999V0201401N00301030001CN0130001N9-01701-02001103411ADDAA199000091AG10000AY111999GF105991051001999999031001IA1319IA2999-02309KA1999N-02001MD1710231+9999MW1031REMSYN01770070 9960. 27393
0122999999999991978101300004-30600+030700FM-13+0000ZSUW V0202201N002619999999N0200001N9+01831+01501102201ADDAY121999GF108991999999999999999999MD1710031+9999MW1021SA1+2409UA1M020059999UG1070151809REMSYN0230//15 12403 30201 18703
0056162390999991978040507504+41800+012583FM-15+0129LIRA V0201701N00461021001CN0040001N1+01101+00801999999ADDGA1041+005409059GA2031+021009039MA1100911999999MW1101
0121542730999991978072618004+42967+126717FM-12+026799999V0209991C00001012001CN0300001N9+02401+02301100731ADDAA106005091AG10005AY191999GF107991071051012501999999KA1999M+03101MD1710011+9999MW1011REMSYN005/0531EQDQ01  00503PRCP99
0083476880999991978051420004+34983+139833FM-15+0002RJTE V0200301N00611012001CN0112001N1+01601+01101999999ADDGA1021+007509089GA2071+012009059MA1102001999999REMMET0053011?EQDQ01+000000PRSWM2
0148427370999991978073109004+22300+070783FM-12+0134VARK V0202701N01181024001CN0100001N9+03101+02201100111ADDAA199000091AY121999GA1011+006009059GA2031+007509089GA3071+024009039GF107991031081008001031001MD1999999+0151MW1021REMSYN02381620 83825 87358 40069
0077467500999991978010507004+22667+120450FM-15+0024RCDC V0200101N00361024001CN0112001N1+02001+01001999999ADDGA1071+024009039MA1102401999999REMMET0153024INS CIG080?EQDQ01+000000PRSWM2
028672514014778197801042000C+41250-076917SAO  +0160IPT  V0201705N00265076204EN0240005N1-00285-01285102825ADDAA101000095GD13995+0750099GD20995+9999999GD30995+9999999GD40995+9999999GF107065999999999999999999MA1102741100815MW1001EQDN01 00000JPWTH 1QNNE11 1 00499E11 1 00099E11 1 00099E11 1 00099G11 1 00250K11 1 00009L11 1 01500M11 1 29770N11 1 00000Q11 1 10282S11 1 00027V11 1 00907X11 1 17005
0091035623999991978110113004+52367-000217FM-15+0049EGWZ V0202001N005610099019N0112001N1+01601+01101999999ADDGA1021+004809059GA2051+009909059GA3011+021009039MA1102781999999MW1001REMMET010CIG033?UU?
0093023760999991978031909004+61267+017100FM-12+0026ESCL V0203601N00411220001CN0750001N9-00801-01501102061ADDAY101999GA1011+030009039GF101991011001999999041011MD1210211+9999MW1021REMSYN01181360 00655
0275723445939931978031401005+36000-094167SAO  +0381FYV  V0201805N003150036649N008000599+00945+00895099985ADDGD14995+9999999GD20995+9999999GD30995+9999999GD40995+9999999GF108085999999999999999999MA1999999095535MW1455EQDN01 07000JPWTH 1QNNE11 1 00699E11 1 00099E11 1 00099E11 1 00099G11 1 00012K11 1 00048L11 1 00500M11 1 28210N11 1 07000Q11 1 09998S11 1 00049V11 1 01010X11 1 18006
0215786150999991978073118004+16917-089883SY-MT+0115MGFL V0200901N00311220001CN0400001N1+03201+02301101501ADDAA199000091AY121999GA1041+007509089GF106991041021008001001011KA1999M+03201KA2999N+02001MA1101391100091MD1999999+0001MW1011WG199990099999REMSYN03563009 70000 84825 91957 992?/ 43220MET0072CI200?EQDQ01+000000PRSWM2
0095036490999991978042713004+51750-001583FM-12+0087EGVN V0202901N00511006001CN0150001N9+00701+00101100361ADDAY121999GA1061+006009059GA2081+012009059GF108991081051008001999999MW1021REMSYN01186620 88640
031872544014923197810051100C+41450-090500SAO  +0177MLI  V0202605N006252200059N0240005N1+01115+00725100855ADDAA101000095GD12995+0180099GD20995+9999999GD30995+9999999GD40995+9999999GF102025999999999999999999MA1100851098715MW1001EQDQ01+026943ATOD  Q02+999990APOSP N01 00000JPWTH 1QNNE11 1 00299E11 1 00099E11 1 00099E11 1 00099G11U1 99999K11 1 00045L11 1 01500M11 1 29150N11 1 00000Q11 1 10085S11 1 00052V11 1 00303X11 1 26012
0068450070999991978022810004+22317+114200FM-15+0005VHHH V0203201N00251220001CN0112001N1+02201+01401999999ADDGA1011+012009059MA1101691999999REMMET006NOSIG?EQDQ01+000000PRSWM2
0053404800999991978040223004+21483+040533FM-15+1471OETF V0209991C00001220001CN0112001N1+01701+01301999999ADDGA1011+010509059MA1102101999999EQDQ01+000000PRSWM2
0109034140999991978061223004+52800-002667FM-12+0076EGOS V0200701N00261075001CN0180001N9+00901+00501102621ADDAY121999GA1031+010509059GA2051+075009009GF105991031051012501001021MD1110081+9999MW1021REMSYN01183635 85075
0245723546139691978060817003+36733-097100SAO  +0309PNC  V0203505N006252200059N0240005N1+02115+01005101705ADDGD12995+0240099GD22995+0300099GD33995+0750093GD40995+9999999GF105025999999999999999999MA1101761098175MW1001QNNE11 1 00299E11 1 00299E11 1 00399E11 1 00099G11U1 99999K11 1 00050L11 1 01500M11 1 28990Q11 1 10170S11 1 00070V11 1 00602X11 1 35012
0126766011999991978061622004+20683-105250SAO  +0006PVR  V0202201N007210210019N0224001N1+03301+02101999999ADDGD12991+0090099GD23991+0210099GD33991+2100093GF107991999999999999999999MA1100951999999MW1001REMAWY022ALGS SC 1Y2CDTE 36199?
0583913660406041978100918003+08733+167733SY-SA+0003PKWA V0203405N004150304849N0160005N1+02565+02395101005ADDAA106020091AG13000GA1999+003664094GA2999+030484034GA3999+042674044GA4999+106684004GD12025+0036099GD23035+0300099GD33035+0420099GD44055+1050099GF108085021091004501071991KA1999N+02271MA1101021100915MD1510001+9999MW1131REMSYN02963091 77959 82912 83360 85081AWY079CB NW THRU NE DSNT MOVG NE OCNL DSNT LTGIC NW AND NE/ 50079      ?     1972 73?EQDQ01+000003PRSWM2Q02  02003PRCP99N01 00000JPWTH 1QNNE11 1 00203E11 1 00404E11 1 00404E11 1 00606G11 1 00100H11 1 18012H11 1 23100H11 1 21140H11 1 32350K11 1 00075L11 1 01000M11 1 29800N11 1 00000Q11 1 10100S11 1 00078V11 1 01010X11 1 34008
0136999999999991978012712004+22200+142000FM-13+0000JBSP V0200201N00721220001CN0500001N9+02001+01401101551ADDAY101999GF102991011011008001001051MD1210101+9999MW1021SA1+2409UA1M010009999UG1050050209WG199190699999REMSYN0230//14 12400 30100 02501
0094726958242851978040521004+44633-124050SAO  +0048JNW  V0201701N00511006001EN0240001N1+01001+00781101351ADDAA106000391GD14991+0060099GF108991999051999999999999MD1810051+9999MW1001EQDQ01  00033PRCP99
0057094690999991978032920004+51417+012233FM-12+0142ETLS V0202601N00301030001CN0100001N9+01301+00901101201ADDAY121999GF105991051001999999031001MD1010111+9999MW1051
0150999999999991978031812004-32500-026700FM-13+0000ENHJ V0202801N00801004201CN0100001N9+01321+99999101991ADDAY151999GF108991999091004501021001MD1310101+9999MW1021SA1+2619UA1M060209999UG1100009999WA1900009REMSYN02312612 20000 30604 00000EQDQ01+000082SCOTLC
0090725810241931978072419004+40733-114033SAO  +1291ENV  V0200701N002519999999N9999999N9+03061-00101999999ADDMA1101801999999REMAWY044PK WND 11 000          ?    BV888  SKY M TL?EQDQ01+000002VOVAR 
0064295570999991978012803004+55750+088317FM-12+020199999V0201201N00101075001CN0090001N9-02801-03001104051ADDAG11000AY121999GF108991031001999999041071MD1210081+9999MW1101
0072035340999991978103114204+52450-001733FM-15+0099EGBB V0202101N00561048001CN0090001N1+01501+00901999999ADDGA1011+005409059GA2051+048009039GA3081+060009029MW1041REMMET006NOSIG?
0094107420999991978062317004+49200+009517AERO +027699999V0202101N00301009001CN0400001N9+01301+01101999999ADDAY161999GA1051+009009059GA2081+030009049GF108991999999999999999999MW1211EQDQ01+000003PRSWM2
0057040040999991978062906004+64900-023933FM-12+000799999V0203601N00311030001CN0500001N9+00901+00401100921ADDAY161999GF107991041071004501071001MD1210021+9999MW1021
0275725485149401978092922003+43150-093333SAO  +0367MCW  V0202205N006250762049N0240005N1+01895+01225101195ADDGD12995+0180099GD22995+0300099GD33995+0750099GD40995+9999999GF106055999999999999999999MA1101191096825MW1001EQDN01 00000JPWTH 1QNNE11 1 00299E11 1 00299E11 1 00499E11 1 00099G11 1 00250K11 1 00054L11 1 01500M11 1 28590N11 1 00000Q11 1 10119S11 1 00066V11 1 00806X11 1 22012
0033071690999991978050322004+48633+004900FM-16+0139LFSI V0201001N00251999991CY0099001N1+99999+99999999999REMMET005CAVOKEQDQ01+000000PRSWM2
0070723627230811978060511004+35517-108783SAO  +1972GUP  V0209991C000012200019N0240001N1+00561-00321101231ADDGF100991999999999999999999MA1101961999999MW1001REMAWY011;GUP? 5/10?
0294722516129281978110815003+27500-097817SAO  +0017NQI  V0203505N002652200059N0112005N1+01175+00785102365ADDAG10000GD10995+9999999GD20995+9999999GD30995+9999999GF100005999999999999999999MA1102341102175MD1310101+9999MW1001REMAWY004310?EQDN01 00000JPWTH 1QNNE11 1 00099E11 1 00099E11 1 00099E11 1 00099G11U1 99999K11 1 00046L11 1 00700M11 1 30170N11 1 00000Q11 1 10236S11 1 00053V11 1 00000X11 1 35005
029472529014768197810220100C+43117-077667SAO  +0167ROC  V02099959000052200059N0192005N1+01445+00835101605ADDAA101000095AG10999GD10995+9999999GD20995+9999999GD30995+9999999GF100005999999999999999999MA1101591099595MW1001EQDQ01+999990APOSP N01 00000JPWTH 1QNNE11 1 00099E11 1 00099E11 1 00099E11 1 00099G11U1 99999K11 1 00047L11 1 01200M11 1 29410N11 1 00000Q11 1 10160S11 1 00058V11 1 00000X11 1 00000
0058404280999991978060513004+25267+051550FM-15+0011OTBD V0203501N01231999991CY0099001N1+03601+01401999999ADDMA1100201999999REMMET012CAVOK NOSIG?EQDQ01+000000PRSWM2
0057093930999991978021117004+52217+014117FM-12+009899999V0200801N00301030001CN0040001N9+00101-00301099461ADDAY121999GF108991081001999999071999MD1610111+9999MW1051
0101077560999991978052812004+42517+008683FM-12+030299999V0200401N01241220001CN0180001N9+01801+01401101611ADDAA199000091AY101999GF102991021021012501001001MD1310031+9999MW1021UA1M990199999REMSYN011700// 91848
0107722045128431978032806004+27650-080417SAO  +0007VRB  V0203201N004110750019N0112001N1+01501+00891101801ADDGD12991+0360099GD24991+0750099GF108991999999999999999999KA1999M+02331MA1101801999999MD1210141+9999MW1001
0071486940999991978120809304+01367+103917FM-15+0018WSSS V0200501N00411090001CN0112001N1+02901+02501999999ADDGA1011+006009089GA2051+090009009MA1100611999999MW1051REMMET006NOSIG?
010872351013966197809240900D+33967-098483SAO  +0309SPS  V0201501N00151075001EN0160001N1+02111+01671102301ADDAA101000095GD14991+0750099GF108991999001999999001071MA1102441098751MD1410001+9999MW1001REMAWY009400 1007?
0087064560999991978080801004+50233+004650FM-12+0284EBFS V0202901N00361000901CN0026001N9+01201+01101100731ADDAY121999GA1071+000909079GF108991071061001501999999MD1610041+9999MW1101REMSYN00587703
0068722447039011978033104004+32383-094717SAO  +0111GGG  V0209991C000012200019N0160001N1+01391+01111999999ADDGF100991999999999999999999MA1102241999999MW1001REMAWY009;GGG?2/3?
009172537514822197807232300D+42417-083017SAO  +0190DET  V0203601N00611007501EN0160001N1+02331+01441999999ADDAA101000095GD13991+0075099GD23991+0300099GF107991999999999999999999MA1101901999999MW1001
0060725957242151978092804004+41317-122317SAO  +1080MHS  V0200401N001519999999N9999999N9+01061+00441999999ADDMA1102171999999REMAWY014PK WND 07 000?EQDQ01+000002VOVAR 
0064303720999991978052618004+56917+118250FM-12+071199999V0209991C00001220001CN0500001N9-00101-00701102561ADDAG11000AY101999GF103991021091017501041011MD1210151+9999MW1021
0072702740999991978121421354+61600-149083SAOSP+0073PAQ  V0202301N00301003001WN0044001N1+99999+99999999999ADDAG10999GD15991+0030099GF109991999999999999999999MA1099901999999MW1711
0050703855999991978021406004+56967-133950SAO  +0009KAE  V0201201N00251009001EN0160001N1+00171+00171999999ADDGD14991+0090099GF108991999999999999999999MW1001
0067788970999991978071303004+16267-061533FM-16+0007MFFR V0201001N00201090001CN0112001N1+99999+99999999999ADDGA1011+004809089GA2071+090009029REMMET00426-?EQDQ01+000000PRSWM2
0146071500999991978090815004+48967+002450SY-MT+0066LFPB V0202401N00511030001CN0099001N1+02101+01301101921ADDAY121999GA1031+015009059GA2061+030009039GF107991031051017501031999MD1610061+9999MW1031REMSYN01183650 86360MET012CAVOK NOSIG?EQDQ01+000000PRSWM2
0253724461139881978031106003+39117-094600SAO  +0226MKC  V0200505N00215027434EN0112005N1+00565-00065999999ADDGD13995+0270099GD24995+0450099GD30995+9999999GD40995+9999999GF108085999999999999999999MA1100511999999MW1001EQDN01 00000JPWTH 1QNNE11 1 00499E11 1 00699E11 1 00099E11 1 00099G11 1 00090K11 1 00031L11 1 00700N11 1 00000S11 1 00042V11 1 01010X11 1 05004
0105123300999991978060221004+52417+016833SY-MT+0092EPPO V0200701N00601220001CN0150001N1+02001+01001102061ADDAY101999GF101991011001999999031001MA1102101999999MD1310161+9999MW1031REMMET005CAVOKEQDQ01+000000PRSWM2
0043820170999991978041521004+03833-051833FM-12+0039SBOI V0209991C00001012001CN0150001N9+99999+99999100651ADDAY141999GF108991081071012501001001MW1051
007672543094822197809291000D+42200-089100SAO  +0224RFD  V0201801N00361075001EN0240001N1+00831+00561101781ADDAA101000095GD13991+0750099GF107991999999999999999999MA1101801999999MW1001
0113561820999991978022521004+32650+103600FM-12+283099999V0209991C00001220001CN0450001N9-00801-01801999999ADDAG12000AY101999GF100991001001999999001001MA1999999073031MD1310091+9999MW1021WG199010399999REMSYN01167303 00203
008091190022516197804041100D+20900-156433SAO  +0020OGG  V0200601N005112200019N0320001N1+02221+01441102171ADDAA101000095GF100991999999999999999999MA1102171101931MW1001EQDQ01+999990APOSP 
0109112400999991978050715004+47000+015450FM-12+0340LOWG V0209991V00151220001CN0400001N9+01801+00901100251ADDAY191999GA1021+012009089GA2011+013509099GF103991031031012501061011MD1810011+9999MW1021REMSYN01182840 81945
0058082840999991978011701304+39500-000467FM-15+0065LEVC V0209991C00001999991CY0099001N1+00301+00001999999ADDMA1100511999999REMMET012CAVOK NOSIG?EQDQ01+000000PRSWM2
0104746710138061978111806004+36667-087500SAO  +0174HOP  V0202801N00301006601EN0112001N1+00831+00281102271ADDAG10000GD14991+0066099GF108991999051999999999999MA1102241999999MD1310101+9999MW1001REMAWY009310 15//?
0099718930999991978040207004+49717-124900SAO  +0024YQQ  V0203001N002010210019N0320001N1+00601+00401100411ADDGD12991+0090099GD24991+0210099GF108991999999999999999999MA1100411100111MW1001EQDQ01+999990APOSP 
0057725867241331978101305004+42533-113767SAO  +1265BYI  V0202101N002512200019N0240001N1+00441-00661102671ADDAG10999GF100991999999999999999999MA1102781999999MW1001
0064545180999991978123000004+39117+116383FM-12+000899999V0203201N001019999999N0060001N9-00901-01201103891ADDAG11000AY121999GF107991001001999999031021MD1410001+9999MW1101
0070725215999991978091500004+41467-082183SMARS+017627G  V0202001N006119999999N0129001N9+02221+99999101521ADDAG10999GF107991999999999999999999MW1001REMSYN01903    M     LORAIN?
0080726625240061978050302004+44150-103100SAO  +0999RCA  V0201701N005112200019N0640001N1+01111+00441999999ADDGD12991+0360099GD22991+0600099GF102991999999999999999999MA1101121999999MW1001
0064239090999991978011406004+60283+054300FM-12+014599999V0202701N00401220001CN0200001N9-01401-01701101441ADDAG12004AY181999GF103991031071002501001001MD1210271+9999MW1711
0138718280999991978102021004+54800-066817SAO  +0522YKL  V0201601N009210012019N0006001N1-00501-00701099481ADDAG10002GD15991+0012099GF109991999999999999999999MA1099151093141MD1710521+9999MW1731REMAWY024S10 752 DRFTG SNW /01/ ?EQDQ01+999990APOSP 
0073111850999991978012009004+47500+016050FM-12+098099999V0201801N00101000301CN0002001N9-00501-00701999999ADDAY141999GA1091+999999999GF109991091999999999999999MD1210081+9999MW1451
0428745090232441978120912003+37417-122050SAO  +0012NUQ  V0201105N001050762049N0112005N1+00225-00565103725ADDAG10000GA1999+042674034GA2999+076204024GA3999+999999999GA4999+999999999GD12025+0420099GD23055+0750099GD30005+9999999GD40005+9999999GF107065999001999999071991MA1103731103595MD1610071+9999MW1001REMAWY015607 1076 45035?EQDN01 00000JPWTH 1QNNE11 1 00203E11 1 00406E11 1 00000E11 1 00000G11 1 00250H11 1 23140H11 1 37250H11 1 00999H11 1 00999K11 1 00022L11 1 00700M11 1 30590N11 1 00000Q11 1 10372S11 1 00036V11 1 00907X11 1 11002
0080726917242841978040701004+43417-124250SAO  +0004OTH  V0203301N010212200019N0192001N1+01171+00391101021ADDGD12991+0069099GD22991+0240099GF102991999999999999999999MA1101021999999MW1001
0087039640999991978082401004+53283-009017FM-12+001899999V0209991C00001008401CN0450001N9+01301+01001103071ADDAY121999GA1081+008409059GF108991081051008001999999MD1810011+9999MW1021REMSYN00588628
0113723910931111978082814004+34117-119117SAO  +0004NTD  V0209991C000012200019N0112001N1+01441+01221101171ADDAA106000391GF100991999999999999999999MA1101191999999MD1310141+9999MW1001REMAWY010SEA 31401?EQDQ01  00033PRCP99
0141854600999991978101200004-26350-070633FM-12+0029SCRA V0202201N00511003901CN0100001N9+01501+01201101671ADDAA199000091AY121999GA1081+003909059GF108991081051004501999999KA1999M+01801MA1999999101271MD1210151+9999MW1031REMSYN02063127 70018 88613 74
0094296020999991978051915004+55283+076767FM-12+011399999V0203201N00501005401CN0450001N9+00801-00301101501ADDAG12002AY181999GA1061+005409099GF106991061091004501001001MD1710121+9999MW1251REMSYN00586918
0053160760999991978051805004+45667+009700FM-15+0241LIME V0209991C00001000901CN0010001N1+01201+01101999999ADDGA1081+000909079MA1101801999999MW1101REMMET004OVC?
0053844010999991978112401004-05200-080617FM-15+0055SPUR V0201801N00821009001CN0112001N1+02301+01701999999ADDGA1081+009009059MA1101591999999EQDQ01+000000PRSWM2
0080723677230541978012101004+35650-105150SAO  +2093LVS  V0201401N00301003601EN0096001N1-00431-00601101401ADDGD13991+0036099GD23991+0540099GF107991999999999999999999MA1101151999999MW1451
0064546560999991978030409004+38167+120767FM-12+055499999V0201401N00401220001CN0200001N9+00201-00101102191ADDAG11000AY101999GF103991001001999999001011MD1710051+9999MW1021
0159723825231311978121815004+34583-117383SAO  +0876VCV  V0201901N006110240019N0480001N1+00671+00111100781ADDAG10000GD12991+0045099GD22991+0105099GD33991+0240099GF107991999051999999071001MA1100881999999MD1810021+9999MW1001OC100971REMAWY026802        ?    1570 WR//?
0064313840999991978110106004+52567+129150FM-12+024599999V0203201N00101075001CN0200001N9-00201-01501102501ADDAG11000AY111999GF106991001001999999001021MD1810031+9999MW1021
0039171500999991978112522004+39617+027917FM-15+0106LTBF V0209991C00001220001CN0020001N1+00101+00001999999ADDMA1102401999999MW1401REMMET006NOSIG?
030472458603919197805141300C+38800-097650SAO  +0384SLN  V0201205N002652200059N0240005N1+01115+00785101885ADDAA101000095GD11995+0750093GD20995+9999999GD30995+9999999GD40995+9999999GF102015999999999999999999MA1101931097295MW1001REMAWY009;SLN?5/3?EQDN01 00000JPWTH 1QNNE11 1 00199E11 1 00099E11 1 00099E11 1 00099G11U1 99999K11 1 00046L11 1 01500M11 1 28730N11 1 00000Q11 1 10188S11 1 00052V11 1 00301X11 1 12005
0048107220999991978022021004+48783+008083FM-15+0123EDAL V0200201N00201006601CN0041001N1-00501-00701999999ADDGA1081+006609059MW1051REMMET0144 3014 CIG022?
028772486023154197805040400C+39283-114850SAO  +1906ELY  V0200505N004652200059N0240005N1+01005-00895100785ADDAA101000095GD10995+9999999GD20995+9999999GD30995+9999999GF100005999999999999999999MA1101391080465MW1001EQDQ01+999990APOSP N01 00000JPWTH 1QNNE11 1 00099E11 1 00099E11 1 00099E11 1 00099G11U1 99999K11 1 00016L11 1 01500M11 1 23760N11 1 00000Q11 1 10078S11 1 00050V11 1 00000X11 1 05009
047172677024033197802120000C+45800-108533SY-SA+1087BIL  V0200105N00365001524WN0008005V1-01285-01445101605ADDAA101001395AA206006091AJ100439199999999AL10600891AY171999ED109U07319GA1999+001524104GD15085+0015099GD20995+9999999GD30995+9999999GD40995+9999999GF108085091999999999999999KA1999M-01231MA1100951088625MD1210121+9999MW1735WG199090699999REMSYN03568860 72478 90103 90417D20049 41009EQDQ01  00603PRCP99N01 04100JPWTH 1QNNE11 1 00710E11 1 00099E11 1 00099E11 1 00099G11 1 00005H11 1 98005K11 1 00006L11 1 00050M11 1 26170N11 1 04100Q11 1 10160S11 1 00009V11 1 01010X11 1 01007
0058074600999991978071005004+45783+003167FM-15+0332LFLC V0201601N00101999991CY0099001N1+01101+01101999999ADDMA1101291999999REMMET012CAVOK NOSIG?EQDQ01+000000PRSWM2
010694767599999197801012200N-33930+151170AUST +0004YSSY V0200235N003159999999N999999999+02485+01505999999ADDAY124999GA1005+999999999GA2025+999999035GA3075+999999999GF107995004999999999075085MA1999999101315MW1025
0079722210138581978011000004+30483-086517SAO  +0026VPS  V0203301N002512200019N0128001N1+00171-00991102581ADDGD12991+0030099GF102991999999999999999999MA1102571999999MD1210071+9999MW1001
0145603600999991978040318004+36833+007817FM-12+0003DABB V0203001N00721009901CN0070001N9+01301+00701100711ADDAA199008091AY161999GA1031+007809089GA2071+009909089GF108991081081008001999999KA1999M+01501MD1210191+9999MW1801REMSYN02370815 83826 87833 95990
011799999994728197805202100E+40783-073967SAO  +0040NYC  V0201505N006259999999N999999999+03114+01565101194ADDAA101000095MA1999999100884EQDN01 00000JPWTH 1QNNK11 1 00060M11 1 29790N11 1 00000Q11 1 10119S11 1 00088X11 1 15012
0057106100999991978012106004+49950+006567FM-15+0374EDAB V0209991C00001004201CN0112001N1+00101-00201999999ADDGA1081+004209059MA1101421999999MW1001REMMET008CIGM014?
0128786150999991978032315004+16917-089883SY-MT+0115MGFL V0209991C00001220001CN0400001N1+02501+02001101411ADDAY101999GF100991001001999999001001MA1101391100031MD1999999-0311MW1021REMSYN01763003 91921 99000MET005CAVOKEQDQ01+000000PRSWM2
036170273026451197811112300C+61167-150017SAO  +0048ANC  V0200505N00215000614MN0112005N1+00005-00285102715ADDAA101000095AG10999GD14995+0006099GD20995+9999999GD30995+9999999GD40995+9999999GF108085999999999999999999MA1102681102205MW1001REMAWY04310ST TWR VSBY 2 RWY06R       ?    WND 0208?EQDQ01+999990APOSP N01 00000JPWTH 1QNNE11 1 00699E11 1 00099E11 1 00099E11 1 00099G11 1 00002K11 1 00027L11 1 00700M11 1 30180N11 1 00000Q11 1 10271S11 1 00032V11 1 01010X11 1 05004
0204400800999991978051106004+33417+036517SY-MT+0610OSDI V0202001N00461220001CN0099001N1+02101+00501101361ADDAA199000091AJ100009199999999AY101999GA1021+060009009GF102991001001999999001021IA1009KA1999N+00801MA1101591094541MD1010081+9999MW1021REMSYN02369454 2//00 70008 82070MET012CAVOK NOSIG?EQDQ01+000000PRSWM2
032372438093819197812080500C+39733-086267SAO  +0241IND  V0203205N006250030549N0128005N1+00565+00565101635ADDAA101000095AG10999GD12995+0018099GD24995+0030099GD30995+9999999GD40995+9999999GF108085999999999999999999MA1101591098685MW1001REMAWY005LE19?EQDQ01+999990APOSP N01 00000JPWTH 1QNNE11 1 00299E11 1 00699E11 1 00099E11 1 00099G11 1 00010K11 1 00042L11 1 00800M11 1 29140N11 1 00000Q11 1 10163S11 1 00042V11 1 01010X11 1 32012
0058171290999991978021721004+39950+032683FM-15+0799LTAD V0209991C00001999991CY0099001N1+00001-00201999999ADDMA1101191999999REMMET012CAVOK NOSIG?EQDQ01+000000PRSWM2
0033076310999991978081423004+43533+001367FM-16+0164LFBF V0201401N00611999991CY0099001N1+99999+99999999999REMMET005CAVOKEQDQ01+000000PRSWM2
0109101470999991978051315004+53633+009983FM-12+0016EDDH V0200501N00461030001CN0120001N9+01001+00101100851ADDAY121999GA1041+013509089GA2061+030009039GF107991041021012501031999MD1210101+9999MW1021REMSYN01184845 86360
0058156550999991978072402304+42483+027483FM-15+0024LBBG V0202401N00511999991CY0099001N1+01501+01001999999ADDMA1101291999999REMMET012CAVOK NOSIG?EQDQ01+000000PRSWM2
0064225500999991978090609004+64583+040500FM-12+0003ULAA V0200601N00201012001CN0220001N9+01101+01001101181ADDAG12000AY121999GF108991081081008001999999MD1310041+9999MW1021
0193717350999991978061118004+47700-079850SY-SA+0245YXR  V0202101N01021027001EN0240001N1+02401+01601100471ADDAY121999GD13991+0270099GD24991+0750099GF108991051001999999051041KA1999M+02501KA2999N+01401MA1100471097601MD1810021+9999MW1031OC101541REMSYN01169760 42514AWY012AC6CI3 802 ?EQDQ01+000003PRSWM2
0076489003999991978062400304+10817+106650FM-15+0010VVTS V0209991C00001220001CN0040001N1+99999+99999999999REMMET048L/MIST 4CU006 7AC150 26/25 757.3 29.82 2000 W/N?EQDQ01+000000PRSWM2
0053160980999991978082517004+45683+012100FM-15+0045LIPS V0209991C00001220001CN0045001N1+02701+01901999999ADDGA1021+060009009MA1101691999999MW1101REMMET004SCT?
0099718610999991978050713004+50383-102583SAO  +0599YDR  V0200101N004110270019N0240001N1+00701+00701101791ADDGD12991+0120099GD24991+0270099GF108991999999999999999999MA1101631094581MW1001EQDQ01+999990APOSP 
0099062650999991978102205004+52133+005267FM-12+0017EHSB V0202301N00511001201CN0020001N9+01001+00901101641ADDAY121999GA1081+001209079GF108991081071001501999999MD1710211+9999MW1511REMSYN01788704 550/8 55132
0050722244999991978032213004+30650-086233SAO  +00612EG  V0203401N00201006001EN0032001N1+01441+01281999999ADDGD14991+0060099GF108991999999999999999999MW1451
0064337770999991978021615004+47567+031333FM-12+003399999V0202301N00201090001CN0100001N9+00001-00501100811ADDAG11000AY121999GF106991001001999999001021MD1310101+9999MW1021
0084066700999991978092909204+47483+008533FM-15+0432LSZH V0202401N00721015001CN0112001N1+01301+00801999999ADDGA1011+006609089GA2071+015009059MA1101391999999REMMET006NOSIG?EQDQ01+000000PRSWM2
0160722400039371978073123554+30117-093217SAOSP+0010LCH  V0201201N004110750019N0160001N1+03001+02281101661ADDGD12991+0069099GD23991+0750099GF107991999999999999999999MA1101661101541MW1001REMAWY052CB SE/ 503 1902 89     ?    RADAT 48141;LCH?7/6 7/9?EQDQ01+999990APOSP 
0102247530999991978102400004+62117+129583FM-12+020099999V0202701N00401030001CN0500001N9-01801-02101101811ADDAG11000AY121999GF108991081001999999041999IA1319IA2999-01909MD1210071+9999MW1021REMSYN011797.8 26994
0122999999999991978120400004+42100-015100FM-13+0000GPEQ V0203501N01651220001CN0100001N9+01351+00701101321ADDAY181999GF104991041021004501999999MD1211131+9999MW1251SA1+1609UA1M060359999UG1100703509REMSYN0230//07 11605 30607 35014
0114408090999991978110815004+32867+059200FM-12+145699999V0209999999999220001CN0200001N9+01301+01002101691ADDAA199000091AY101999GF100991001001999999001001KA1999M+02401MD1310061+9999MW1021REMSYN00570024EQDQ01+028323ATOD  
0057470220999991978072803004+40817+128150FM-12+120699999V0201801N00401220001CN0250001N9+02701+02001999999ADDAY101999GF102991021021008001001001MD1710161+9999MW1031
0131999999999991978101212004+43800+146700FM-13+0000UTIX V0202501N00901220001CN0200001N9+01301+99999101091ADDAY111999GF100991001001999999001001MD1410001+9999MW1011SA1+1409UA1M060209999UG1080202409WA1900009REMSYN02311400 20000 30604 24804
0105743945147101978072303004+42933-071433SAO  +0071MHT  V0209991C000012200019N0064001N1+02671+99999999999ADDGD16991+0001599GD22991+0300099GF102991999999999999999999MA1101491999999MW1051REMAWY016H4 LAST;MHT?7/7?
0123101130999991978050714004+53717+007150AERO +001399999V0200701N00921006901CN0090001N9+01001+00801999999ADDAY121999GA1041+003909079GA2071+006909059GF108991999999999999999999MW1211WG199010699999REMSYN00691126?EQDQ01+000003PRSWM2
0053165460999991978101612004+39350+008967FM-15+0029LIED V0203401N00461220001CN0080001N1+02301+01301999999ADDGA1021+007509089MA1101591999999MW1101REMMET004SCT?
0080319090999991978071318004+45050+136617FM-12+002099999V0201601N00901000301CN0002001N9+01701+01701101181ADDAG12000AY141999GA1091+999999999GF109991091999999999999999MD1710101+9999MW1451
0057153460999991978100703004+45100+024367FM-12+024399999V0209991C00001220001CN0100001N9+00801+00701102231ADDAY101999GF102991021051008001001001MD1310031+9999MW1031
0107689260999991978082806004-34100+021267FM-12+011799999V0209991C00001004201CN0400001N9+01001+01001101621ADDAA124001091AY121999GF106991061051004501001001MD1610021+9999MW1031REMSYN01170109 219//EQDQ01  00103PRCP99
0463723870031601978080406003+36617-116017SAO  +1007DRA  V0200905N013450609649N0320005N1+03065+00785101165ADDGA1999+015244094GA2999+060964004GA3999+999999999GA4999+999999999GD12045+0150099GD23025+0600099GD30005+9999999GD40005+9999999GF106065999091999999001991MA1101691090155MD1310241+9999MW1001OC101851REMAWY049DSNT LTGE/PK WND       ?    0936/44/ 324 1903 05?EQDN01 00000JPWTH 1QNNE11 1 00205E11 1 00403E11 1 00000E11 1 00000G11 1 00200H11 1 18050H11 1 32200H11 1 00999H11 1 00999K11 1 00046L11 1 02000M11 1 26620N11 1 00000Q11 1 10116S11 1 00087V11 1 00808X11 1 09026
0069603900999991978082422004+36717+003250FM-15+0023DAAG V0209991C00001220001CN0060001N1+02201+02101999999ADDGA1011+009009089GA2041+030009039MA1101691999999EQDQ01+000000PRSWM2
0068401650999991978111220504+32667+035183FM-15+0049LLRD V0209991C00001007501CN0112001N1+01101+00801999999ADDGA1071+007509089MA1101691999999REMMET006NOSIG?EQDQ01+000000PRSWM2
0139590070999991978122900004+24033+105033FM-12+125299999V0202001N00201004201CN0030001N9+00901+00901102171ADDAA106000391AA224001091AY151999GF108991081061004501999999MA1999999087961MD1310131+9999MW1501REMSYN01768796 /93// 22001EQDQ01  00033PRCP99
0095010010999991978011718004+70933-008667FM-12+0009ENJA V0202701N00411001201CN0015001N9-00701-01101101051ADDAA199004091AY181999GF108991081091001501999999KA1999M-00701MD1710061+9999MW1861REMSYN00570457
050372509014739197805160000C+42367-071033SY-SA+0006BOS  V0200405N00775000914MN0020005N1+01005+00835101805ADDAA101000395AA206002091AJ100009199999999AY161999GA1999+000914134GD14085+0009099GD20995+9999999GD30995+9999999GD40995+9999999GF108085081071001501999999KA1999M+01051KA2999N+00941MA1101801101695MD1310071+9999MW1455MW2515OC101081REMSYN03963169 70880 20181 45149 TIDE  PLUS  003AWY03030708 17// 51 CHH RADAT 56093?EQDQ01  00203PRCP99N01 03370JPWTH 1QNNE11 1 00610E11 1 00099E11 1 00099E11 1 00099G11 1 00003H11 1 13003K11 1 00047L11 1 00125M11 1 30030N11 1 03370Q11 1 10180S11 1 00050V11 1 01010X11 1 04015
0068940870999991978050723004-10700+152833FM-12+000699999V0200901N00931009001CN0400001N9+02801+02501101081ADDAA124000091AY121999GF107991061081004501001011MW1031REMSYN00567000
0087035900999991978041712004+52117+000967FM-12+0087EGUW V0201401N00361009001CN0150001N9+00901+00101102221ADDAY111999GA1051+009009089GF105991051011012501001001MD1710121+9999MW1031REMSYN00585830
0102246560999991978071812004+63517+129433FM-12+007999999V0200701N00401030001CN0500001N9+01401+00501100161ADDAA199000391AG10002AY181999GF107991021051008001041011KA1999M+02101MD1310081+9999MW1021REMSYN00579321
0128718620999991978052304004+49067-103000SAO  +0571YEN  V0201701N003010390019N0320001N1+01701+01201100501ADDGD12991+0210099GD23991+0390099GF107991999999999999999999MA1100511093871MW1001REMAWY020CB2AC7 LTGIC S-W-N ?EQDQ01+999990APOSP 
0122999999999991978101818004+45800-129500FM-13+0000JDZW V0200501N00771002101CN0040001N9+01451+01301102151ADDAY121999GF108991081061002501999999MD1310051+9999MW1161SA1+1859UA1M040109999UG1060200709REMSYN0230//13 11855 30402 07604
0033076570999991978121908004+44050+005483FM-16+0837LFXI V0209991C00001999991CY0099001N1+99999+99999999999REMMET005CAVOKEQDQ01+000000PRSWM2
0101468100999991978091722004+20700+116717FM-15+0005RCLM V0200501N00511007501CN0030001N1+02801+02801999999ADDGA1081+007509089MA1100411999999REMMET0392976INS CIG025         ?     3000 SLGT?EQDQ01+000000PRSWM2
0099479180999991978080201004+24333+124167FM-15+0024ROIG V0202201N00611090001CN0112001N1+03001+02701999999ADDGA1011+006009089GA2041+039009039GA3051+999999009MA1100001999999REMMET0052956?EQDQ01+000000PRSWM2
0105718310999991978123110004+49417-082467SAO  +0229YYU  V0203201N005112200019N0240001N1-01801-02101103231ADDAG10999GD12991+0135099GF102991999999999999999999MA1103011100281MW1001REMAWY005SC1 ?EQDQ01+999990APOSP 
0114070270999991978091500004+49183-000450FM-12+0078LFRK V0202801N00411220001CN0180001N9+01201+01101102491ADDAA199000091AY101999GF100991001001999999001001KA1999M+99999MD1210051+9999MW1021REMSYN00570000EQDQ01 +00002ATMX  
011494925099999197803210200N-35270+149120AUST +0579     V0200685N003159999999N999999999+02305+01705999999ADDGA1025+006005085GA2015+010505065GA3035+999999035GA4045+999999999GF107995024025006005075085MA1999999094545MW1025
0094264980999991978010115004+56267+034317FM-12+019699999V0202501N00201003601CN0080001N9-00201-00401100301ADDAG12000AY121999GA1081+003609079GF108991081071004501999999MD1210251+9999MW1101REMSYN00588712
0089037780999991978012908004+51517-000117FM-12+0023EGRB V0202501N00671007501CN0180001N9+00401+00201097911ADDAY161999GA1041+004509059GA2081+007509059GF108991081051004501999999MD1310181+9999MW1611
0109176010999991978052621004+34583+032983FM-12+0023LCRA V0202801N00571066001CN0450001N9+02301+01901101131ADDAY111999GA1041+048009039GA2071+066009029GF107991041001999999081061MD1510011+9999MW1031REMSYN01184366 87272
0071021240999991978052421004+66033+017867FM-12+043099999V0201401N00101220001CN0500001N9+01001-00301101911ADDAY101999GF101991001001999999001041MD1710021+9999MW1021REMSYN00500038
0064203880999991978041621004+76283+094733FM-12+001099999V0201101N00601021001CN0300001N9-02201-02301103151ADDAG12000AY121999GF108991071001022501031011MD1310031+9999MW1011
0071484620999991978100403004+13700+102517FM-12+004799999V0203001N00511105001CN0150001N9+03001+02401101011ADDAY111999GF105991031011008001001051MD1999999-0021MW1031REMSYN005403//
0043031670999991978050403004+56083-002633FM-12+003899999V0200901N004619999999N0150001N9+99999+99999098861ADDAY121999GF108991999031999999999999MW1021
0093891250682011978121021004-80017-119533FM-12+151599999V0203301N00411007501CN0080001N9-01901+99999999999ADDAY121999GF108991081061008001999999MA1999999080981MD1710051+9999MW1021REMSYN01268098 88725!
0071022620999991978041121004+64583+018650FM-12+023599999V0209991C00001220001CN0200001N9-00101-00201099791ADDAY171999GF103991031061004501001001MD1210051+9999MW1011REMSYN00500695
0080717334999991978042320004+46350-082583SAO  +0329YEL  V0201401N004112200019N0240001N1+01101-00801999999ADDGD12991+0600099GD22991+0750093GF102991999999999999999999MA1101801999999MW1001
0128999999999991978091712004+32100-043700FM-13+0000SHIP V0201701N004619999999N0200001N9+02541+02401102241ADDAY141999GF107991001001999999071999MD1210201+9999MW1011SA1+2549UA1M020059999UG1080402809REMSYN0290//24 12544 30201 28808 33008
0155718840999991978100600004+49300-117633SY-SA+0495YCG  V0203501N004112200019N0240001N1+01301+00501102391ADDAG11000AY101999GF100991001001999999001001KA1999M+01501KA2999N+00101MA1102271096421MD1610161+9999MW1021REMSYN01169642 41501AWY005616 ?EQDQ01+000003PRSWM2
0087655360999991978101509004+09417-005617FM-12+038199999V0202401N00511220001CN0150001N9+02601+02201101121ADDAY111999GA1041+004809089GF104991041021004501031001MD1999999+0071MW1031REMSYN00584816
0057095520999991978080603004+50650+010767FM-12+093599999V0202501N00101075001CN0050001N9+01101+01001999999ADDAY111999GF106991041051004501001021MD1610111+9999MW1051
0149268640999991978020806004+53500+029333FM-12+015899999V0209991C00001030001CN0040001N9-00801-01101101391ADDAA199000091AG14000AJ100129199999999AY121999GF108991081001999999021999IA1319IA2999-01109KA1999N-01001MD1710071+9999MW1101REMSYN01770060 99612 2619/
030272793024233197809081600C+47450-122300SAO  +0122SEA  V0201205N003652200059N0800005N1+01505+00785101065ADDAA101000095GD12995+0420099GD23995+0750093GD30995+9999999GD40995+9999999GF106035999999999999999999MA1101051099425MW1001EQDQ01+999990APOSP N01 00000JPWTH 1QNNE11 1 00299E11 1 00399E11 1 00099E11 1 00099G11U1 99999K11 1 00046L11 1 05000M11 1 29360N11 1 00000Q11 1 10106S11 1 00059V11 1 00804X11 1 12007
0091082240999991978032909004+40300-003717FM-12+0620LEGT V0202201N00621036001CN0150001N9+00901+00501101401ADDAY111999GF107991011051012501031001MA1101321094161MW1021REMSYN00569416EQDQ01+999990APOA  
0123725170147371978051417004+40650-075433SAOSP+0118ABE  V0201101N007710036019N0040001N1+01501+01221100641ADDGD12991+0018099GD24991+0036099GF108991999999999999999999MA1100641099251MW1451MW2611REMAWY009;ABE?5/2?EQDQ01+999990APOSP 
0050722516129281978071410004+27500-097817SAO  +0015NQI  V0201301N001512200019N0240001N1+02561+02391101451ADDGF100991999999999999999999MA1101421999999MW1001
0050722868999991978021903004+33833-116500SAO  +0146PSP  V0202101N002512200019N0240001N1+01441+99999999999ADDGF100991999999999999999999MA1102171999999MW1001
0069802220999991978032608004+04700-074133FM-15+2547MCBO V0209991C00001220001CN0002001N1+00901+00901999999ADDMA1102301999999MW1441REMMET036SKC APTO CONT CLSD     ?     AP0800?
0389724885931021978030918003+39417-118717SAO  +1199NFL  V0202705N001050061049N0096005N1+00675+00445101655ADDAA106005091GA1999+001834999GA2999+006104134GD12025+0018099GD24065+0060099GD30995+9999999GD40995+9999999GF108085999071999999999999KA1999N+00611MA1101691088085MD1510021+9999MW1455MW2635EQDQ01  00503PRCP99N01 02170JPWTH 1QNNE11 1 00203E11 1 00607E11 1 00099E11 1 00099G11 1 00020H11 1 99006H11 1 13020K11 1 00040L11 1 00600M11 1 26010N11 1 02170Q11 1 10165S11 1 00044V11 1 01010X11 1 27002
0064572590999991978021209004+32033+110767FM-12+043599999V0200901N00401036001CN0300001N9+00501-00501102701ADDAG11000AY111999GF107991021041017501041021MD1510111+9999MW1021
0009942960999991978022506004-17117+152017FM-12+000499999V0201001N012919999999N9999999N9+02801+99999100901ADDMW1001
0112637720999991978081412004-02267+040900FM-12+0030HKLU V0201801N00571220001CN0600001N9+02701+02001999999ADDAA199000091AY121999GF104991041021008001001001KA1999M+99999MW1011REMSYN017700// 74825 2//00EQDQ01 +02502ATMX  
0064293550999991978122418004+57450+088467FM-12+014099999V0202301N00401220001CN0220001N9-02801-03101103181ADDAG11000AY101999GF100991001001999999001001MD1210111+9999MW1011
0101111850999991978122806004+47500+016050FM-12+098099999V0209991C00001220001CN0250001N9+00601-00501999999ADDAA199000091AY121999GF104991041061004501001001KA1999N+00201MD1710041+9999MW1021REMSYN01170002 50300
0065724027999991978021612004+37533-075617SMARS+000164W  V0209991C00001220001CN0129001N9+00001+99999102601ADDGF104991999999999999999999MW1001REMSYN021PARRAMORE   BEACH VA?
0087118580999991978101709004+47867+018200FM-12+011999999V0201301N00101009901CN0015001N9+00801+00801101421ADDAY141999GA1071+009909059GF107991071051012501001001MD1810051+9999MW1281REMSYN00587633
0094283210999991978110221004+57717+055383FM-12+012199999V0201601N00401004501CN0500001N9-00501-00601101581ADDAG12002AY181999GA1081+004509099GF108991081031004501999999MD1210051+9999MW1021REMSYN00588915
0104479310999991978031805004+26350+127767FM-15+0045RODN V0209991C000010090019N0112001N1+01901+01601999999ADDGA1021+002109089GA2021+003609089GA3041+009009059GA4071+021009039MA1101461999999MW1801REMMET007CIG030?
0089262980999991978123012004+57900+034050FM-12+017899999V0203201N00101220001CN0110001N9-03501-03801102411ADDAA199000091AG10000AY101999GF100991001001999999001001MD1210031+9999MW1021REMSYN005700//
0069080840999991978062213004+42450-002333FM-15+0353LELO V0203601N00411220001CN0112001N1+02301+00901999999ADDGA1031+009009089GA2021+057009009MA1101391999999EQDQ01+000000PRSWM2
0064374700999991978022615004+42067+048300FM-12-001999999V0209991C00001007501CN0040001N9-00101-00401103111ADDAG11000AY121999GF108991081051008001999999MD1310101+9999MW1031
0108999999999991978030612004+31300-060500FM-13+0000ONRF V0203001N01031220001CN0200001N9+01701+01001101791ADDAY101999GF102991021011008001001001MD1210201+9999MW1021UA1M050109999UG1110302909REMSYN01705910 30502 29106
0065723816031591978091520004+34733-118217SAO  +0728WJF  V0200701N006612200019N0640001N1+02391+00561101581ADDGD12991+0360099GF102991999999999999999999MA1101731999999MW1001
0137710690999991978072600004+55300-114783FM-12+0581YZH  V0203301N00361220001CN0400001N9+02201+01201101651ADDAY101999GF101991011021012501001011KA1999M+02301KA2999N+01301MA1101631094811MD1210011+9999MW1021REMSYN01169481 42313EQDQ01+999990APOA  
0098746715038161978121816004+37067-088767SAO  +0125PAH  V0201901N006110240019N0160001N1+00501-00381102231ADDAG10999GD12991+0120099GD24991+0240099GF108991999999999999999999MA1102201999999MW1001REMAWY002E?
0087114570999991978080521004+49067+013617FM-12+112299999V0202701N00201220001CN0150001N9+01001+00801999999ADDAY101999GA1011+060009009GF101991001001999999001021MD1310071+9999MW1011REMSYN00581070
0065722517129321978050201004+27733-098033SAO  +0054ALI  V0201001N00721075001EN0112001N1+02611+02111100041ADDGD14991+0750099GF108991999999999999999999MA1100071999999MW1001
0057591020999991978011621004+24950+115633FM-12+029999999V0200201N00301012001CN0150001N9+00101-00201102651ADDAY121999GF108991081051012501999999MD1610061+9999MW1021
0123036030999991978092906004+51867-005133FM-12+0111EGDA V0202701N01031009001CN0150001N9+01201+00901100421ADDAA199006091AY181999GA1051+009009059GF107991071081004501999999KA1999N+01101MD1010021+9999MW1031REMSYN01770611 85815 85630
0109663100999991978091918004-12583+013417FM-12+003399999V0202601N00511220001CN0150001N9+02101+01801101231ADDAA199000091AY101999GF103991031051004501001001KA1999M+02801MD1999999+0021MW1101WG199010799999REMSYN00570028
0317724930232301978052422003+37733-122200SAO  +0002OAK  V0202705N008252200059N0480005N1+01615+00895101905ADDGD12995+0084099GD22995+0180099GF102025999999999999999999MA1101901101865MW1001OC101021REMAWY077; UA /OV MRY-SJC 2137 FL75         ?    /TP BE35 /SK SCT 70 /TB LGT;OAK?5/14?EQDN01 00000JPWTH 0QNNE11 0 00299E11 0 00299G11U0 99999K11 0 00048L11 0 03000M11 0 30080N11 0 00000Q11 0 10190S11 0 00061V11 0 00202X11 0 27016
0068166820999991978121402204+37917+021300FM-15+0011LGAD V0201701N00411009001CN0112001N1+01301+01201999999ADDGA1051+009009089MA1101021999999REMMET006NOSIG?EQDQ01+000000PRSWM2
0095488700999991978041512004+13767+109217FM-12+000599999V0201401N00261220001CN0200001N9+02701+02401100761ADDAA199999929AY111999GF102991021091008001001001KA1999M+03001MD1210051+9999MW1251REMSYN00579730
0112103200999991978122622004+51933+008317SY-MT+0070EDUO V0202401N00411001801CN0050001N1+00801+00701100761ADDAY121999GA1081+001809079GF108991081061002501999999MA1100711999999MD1310041+9999MW1101REMSYN00588706MET004YLO?
0145243380999991978041600004+66033+117400FM-12+030499999V0201601N00201030001CN0500001N9-00901-01001101821ADDAA199000391AG10002AY171999GF108991031051012501031021IA1319IA2999-01109KA1999N-01101MD1810902+9999MW1021REMSYN01179361 26195EQDQ01+000902APC3  
0057095520999991978111308004+50650+010767FM-12+093599999V0202601N00601220001CN0500001N9+00101-00301999999ADDAY101999GF101991001001999999001021MD1210111+9999MW1401
0132999999999991978072612004+53400-160000FM-13+0000UJPA V0202901N00401001201CN0020001N9+00901+99999102061ADDAY121999GA1091+999999999GF109991091999999999999999MD1410001+9999MW1031SA1+0889UA1M040159999UG1060152809REMSYN01710880 30403 28603
0082064785999991978022000254+50633+005467FM-15+0198EBLG V0200601N00511066001CN0060001N1-00601-01001999999ADDGA1041+030009049GA2061+066009009MA1101391999999REMMET004WHT?EQDQ01+000000PRSWM2
005994999900286197801132200N-36670+142300AUST +0091     V0209999C000059999999N999999999+02405+00305999999ADDAY114999GA1005+999999999GF100995004999999999999999MW1025
0054075350999991978012107004+44750+001400FM-16+025999999V0203001N00301003001CN0060001N1+99999+99999999999ADDGA1051+003009079GA2081+012009059EQDQ01+000000PRSWM2
0102546160999991978120518004+38333+116917FM-12+001399999V0203601N00301220001CN0110001N9-00301-00401102531ADDAA199000091AG10000AY101999GF100991001001999999001001KA1999M+00901MD1710031+9999MW1021REMSYN005/0009
0122999999999991978042318004+31400-014800FM-13+0000GXZH V0203601N00821220001CN0200001N9+01801+00901101981ADDAY101999GF104991041021004501001001MD1810041+9999MW1031SA1+1709UA1M030159999UG1050203409REMSYN0230//09 11700 30303 34504
036772792024227197809241200C+46967-122900SAO  +0059OLM  V0200505N00155000004WN0006005N1+01335+01285102025ADDAA101000095AA224018091AG11000GA1999+000004104GD15085+0001599GD20995+9999999GD30995+9999999GD40995+9999999GF108085999999999999999999MA1102031101295MD1510021+9999MW1455REMAWY013502 56 20072?EQDN01 07000JPWTH 1QNNE11 1 00710E11 1 00099E11 1 00099E11 1 00099G11 1 00000H11 1 45000K11 1 00055L11 1 00038M11 1 29910N11 1 07000Q11 1 10202S11 1 00056V11 1 01010X11 1 05003
0064540270999991978022309004+43983+119400FM-12+048599999V0200901N00101220001CN0300001N9-00301-01001102551ADDAG11000AY101999GF101991001001999999001021MD1710141+9999MW1021
0080723965932091978030622004+35667-120633SAOSP+0249PRB  V0209991C000012200019N0400001N1+01721+01111102151ADDGD12991+0030099GD23991+0600093GF107991999999999999999999MA1102171999999MW1001
0122999999999991978122221004+27300+168000FM-13+0000JLIW V0203101N00211220001CN0200001N9+02301+02201102101ADDAY111999GF104991041041002501001001MD1310151+9999MW1011SA1+2359UA1M010059999UG1080101009REMSYN0230//22 12350 30101 10802
0080726587999991978031700404+43650-095583SAOSP+0480OTG  V0203101N006112200019N0112001N1-00431-00551999999ADDGD12991+0075099GD22991+0120099GF102991999999999999999999MA1102341999999MW1001
0084726377999991978012610004+43633-083850SMARS+017730G  V0200201N020519999999N0000001N9+00381+99999999999ADDGF107991999999999999999999MW1731WG199010999999REMSYN026ICE   M     M     SAGINAW?
0178104050999991978093013004+51600+006133SY-MT+0032EDUL V0202101N00721005401CN0112001N1+00901+00701100181ADDAY181999GA1031+004209089GA2061+005409059GA3081+015009059GF108991081081004501999999MA1100101999999MD1710071+9999MW1601OC101381WG199010899999REMSYN01783814 86618 88650MET004GRN?
0078108570999991978081118524+48067+010900FM-15+0623EDSA V0200801N00101012001CN0080001N1+01201+00901999999ADDGA1061+012009059MA1102201999999REMMET016BLU FCST CANCEL?EQDQ01+000000PRSWM2
0098724067999991978062215004+39333-076417SAO  +0007MTN  V0203401N002512200019N0112001N1+02501+01831999999ADDGD12991+0150099GD22991+0600093GF102991999999999999999999MA1101801999999MW1001REMAWY009;MTN?4/4?
0065726395148081978051607004+44450-083400SAO  +0193OSC  V0200301N00301009601MN0112001N1+01171+00891999999ADDGD14991+0096099GF108991999999999999999999MA1101321999999MW1001
0088718730999991978112715304+52100-111450SAOSP+0791YCT  V0201901N006610036019N0012001N1+99999+99999999999ADDAG10001GD15991+0036099GF109991999999999999999999MW1711OC100921REMAWY014S10 DRFTG SNW?
0073125100999991978100521004+50733+015733FM-12+160399999V0203201N01701000151CN0000001N9+00001+00001999999ADDAY171999GA1091+999999999GF109991091999999999999999MD1810051+9999MW1491
0068064070999991978051517504+51200+002867FM-15+0004EBOS V0203501N00201220001CN0112001N1+01101+00501999999ADDGA1011+009909089MA1101291999999REMMET006NOSIG?EQDQ01+000000PRSWM2
0105717000999991978110517004+45867-066533SAO  +0020YFC  V0200801N003012200019N0240001N1+01101-00201102021ADDAG10999GD12991+0750093GF102991999999999999999999MA1102031101781MW1001REMAWY005CI1 ?EQDQ01+999990APOSP 
0095029100999991978040918004+63433+021067FM-12+000499999V0202001N00771030001CN0180001N9+00001-00101099941ADDAA199999929AY121999GF107991021071008001041081KA1999M+00201MD1710101+9999MW1011REMSYN00579702
0053060600999991978061106504+56283+009133FM-15+0052EKKA V0203101N01281006001CN0112001N1+01101+00801999999ADDGA1071+006009059MA1101191999999EQDQ01+000000PRSWM2
0109038620999991978112915004+50783-001833FM-12+0011EGHH V0200801N00211220001CN0050001N9+00401-00201102101ADDAY111999GA1011+006009089GA2041+036009039GF104991011011008001031001MD1810021+9999MW1051REMSYN01181820 84362
0122080800999991978061612004+42850-002650FM-12+0516LEVT V0203401N00511009001CN0080001N9+01201+00901100761ADDAA106001091AY181999GF108991081081004501999999MA1999999094731MD1510041+9999MW1801REMSYN01169473 701//EQDQ01  00103PRCP99
044672248013957197803081200C+32467-093817SY-SA+0077SHV  V0203105N00575002444MN0096005N1+00335+00285101685ADDAA101000095AA206999929AJ100009199999999AY121999GA1999+002444074GD14085+0024099GD20995+9999999GD30995+9999999GD40995+9999999GF108085081061002501001991KA1999M+02221MA1101691100755MD1310071+9999MW1455MW2501MW3515REMSYN01763075 70010 47238EQDQ01+000003PRSWM2Q02  00003PRCP99N01 03370JPWTH 1QNNE11 1 00610E11 1 00099E11 1 00099E11 1 00099G11 1 00008H11 1 16008K11 1 00037L11 1 00600M11 1 29750N11 1 03370Q11 1 10168S11 1 00038V11 1 01010X11 1 31011
0080725088999991978032322044+42583-070917SAOSP+0033BVY  V0203101N006112200019N0240001N1+99999+99999999999ADDGD12991+0120099GD22991+0750099GF102991999999999999999999MA1101631999999MW1001
0079747900138491978090417004+33967-080467SAO  +0074SSC  V0200401N003012200019N0160001N1+02941+01831999999ADDGD12991+0750099GF102991999999999999999999MA1101461999999MW1001REMAWY005HALF?
0099537050999991978010712004+37483+105667FM-12+118699999V0202901N00401220001CN0150001N9-00301-02401103761ADDAG11000AY101999GF100991001001999999001001MA1999999089191MD1210281+9999MW1021REMSYN01168919 00605
0087100340999991978071113444+54633+009350FM-15+0020EDCG V0202901N00511084001CN0112001N1+01601+01001999999ADDGA1031+006009089GA2031+084009009MA1101291999999REMMET009BLU+BLU+?EQDQ01+000000PRSWM2
0087109470999991978123000004+47983+010233FM-12+0634EDSM V0202601N00821012001CN0200001N9+00601+00201099791ADDAY121999GA1081+012009059GF108991081051012501999999MD1410001+9999MW1021REMSYN00588640
0110475870999991978031921004+38900+139833FM-12+000299999V0203101N00621220001CN0180001N9+00501-00301101651ADDAA199001091AY181999GA1011+999999089GF101991011021999999001001MD1110311+9999MW1011REMSYN017818// 13001 40590
0078375750999991978061415004+41633+046650FM-12+051899999V0201801N00201220001CN0200001N9+02701+01501100651ADDAG12000AY101999GF101991011021017501001001MD1710131+9999MW1011REMSYN00595900
0069012230999991978082208504+63117+007833FM-15+0062ENKB V0202501N00721005401CN0112001N1+01101+00801999999ADDGA1021+003009079GA2051+005409089MA1100511999999EQDQ01+000000PRSWM2
0109064760999991978101010004+50033+005400FM-12+0563EBSH V0201501N00621030001CN0090001N9+01601+00801101861ADDAY121999GA1051+030009039GA2031+060009009GF106991051001999999031021MD1110071+9999MW1021REMSYN01185360 83070
0121585620999991978032006004+29917+121567FM-12+000699999V0201401N00201004201CN0150001N9+01001+00901101411ADDAA106007091AG10004AY181999GF108991081071004501999999KA1999N+00901MD1710391+9999MW1601REMSYN005/0709EQDQ01  00703PRCP99
0095429090999991978053112004+20900+070367FM-12+000699999V0202701N00411220001CN0040001N9+03101+02701100381ADDAA199000091AY121999GF104991041011008001001001KA1999M+03201MD1999999+0111MW1021REMSYN00570032
0094306500999991978082709004+53217+112767FM-12+089199999V0202701N00401007501CN0500001N9+01301+00601101581ADDAG12002AY161999GA1041+008109099GF106991051091008001001011MD1210091+9999MW1251REMSYN00584927
0057091840999991978120103004+54100+013383FM-12+000299999V0200301N00501004201CN0050001N9+00401+00301101791ADDAY151999GF108991071071004501999999MD1210091+9999MW1511
0105710790999991978122719004+55800-097867SAO  +0222YTH  V0202901N00201060001EN0160001N1-02101-02501102331ADDAG10999GD14991+0600099GF108991999999999999999999MA1102031099461MW1761REMAWY005CI7 ?EQDQ01+999990APOSP 
0025074120999991978021522004+45667-000317FM-16+0030LFBG V0202001N00461001501CN0050001N1+99999+99999999999ADDGA1071+001509079MW1581
0159744910147031978112212004+42200-072533SAO  +0075CEF  V0203601N00251006901MN0160001N1-00211-00551103201ADDAA106001091AA224002091AG10000GD14991+0069099GF108991999051999999999999MA1103151999999MD1310071+9999MW1001REMAWY02330703 15// 20009 FIRST?EQDQ01  00103PRCP99
0033103820999991978093021504+52567+013317FM-15+0037EDBT V0201601N00101999991CY0099001N1+00701+00601999999REMMET005CAVOKEQDQ01+000000PRSWM2
0017717190999991978071420004+48017-064500SAO  +0004WMI  V02099999999999999999N0144001N9+99999+99999101231ADDMD1210051+9999
0064347350999991978060303004+46833+040300FM-12+008599999V0203401N00301220001CN0040001N9+00701+00501100991ADDAG12000AY111999GF100991001001999999001001MD1210051+9999MW1101
0055165600999991978101511504+39250+009050FM-15+0004LIEE V0201701N00151220001CN0112001N1+02301+01501999999ADDGA1011+006909089MA1102001999999MW1101REMMET006NOSIG?
0111268320999991978040315004+53883+025317FM-12+014799999V0200701N00601006001CN0060001N9+00601+00201102121ADDAG12000AY121999GA1051+006009059GF108991051051008001071999MD1410001+9999MW1021OA199901101REMSYN01185620 91111
0054477150999991978062115384+36183+140417FM-16+0032RJAH V0209991C00001030001CN0112001N1+99999+99999999999ADDGA1011+009009089GA2051+030009039EQDQ01+000000PRSWM2
