0305724030937381979070716003+38950-077450SAO  +0088IAD  V0200605N004152200059N0240005N1+02505+01335102745ADDAG10999GD10995+9999999GD20995+9999999GD30995+9999999GF100005999999999999999999MA1102741101565MW1001REMAWY013CU FRMG CI S?EQDQ01+999990APOSP N01 00000JPWTH 1QNNE11 1 00099E11 1 00099E11 1 00099E11 1 00099G11U1 99999K11 1 00056L11 1 01500M11 1 29990N11 1 00000Q11 1 10274S11 1 00077V11 1 00000X11 1 06008
0110725946242861979020119004+41783-124233SAO  +0017CEC  V0203101N003010750019N0400001N1+00611-00381101631ADDAG10999GD12991+0450099GD23991+0750099GF107991999999999999999999MA1101631999999MW1001REMAWY014SC O/CSTL RNG?
0112478360999991979122901004+30383+130667FM-15+0035RJFC V0203501N00511010501CN0112001N1+01401+00501999999ADDGA1021+007509089GA2071+010509059MA1102201999999REMMET0343019 WIND DIRECTION          ?VRB?EQDQ01+000000PRSWM2
0119467600999991979050401004+22800+121183FM-15+0037RCQS V0201001N001510120019N0112001N1+02701+02201999999ADDGA1021+004809089GA2051+012009059GA3071+024009039MA1100911999999REMMET0252980INS CIG040         ??EQDQ01+000000PRSWM2
0129787080999991979052618004+15450-087933FM-12+0031MHLM V0200201N00211220001CN0150001N9+03301+99999101351ADDAA199390091AY141999GA1041+009009089GF104991041021008001001001MA1999999101001MW1051REMSYN03578912 63100 7000  84830 91900 12000
0158080750999991979120212004+42367-003633SY-MT+0890LEBG V0209991C00001220001CN0099001N1+01301+00401999999ADDAA106000091AY101999GF101991001001999999001021MA1103011092761MD1810011+9999ME1316179MW1041REMSYN01169276 700//MET005CAVOKEQDQ01+000000PRSWM2Q02  00003PRCP99
0064722422129231979102622004+29267-094867SAO  +0002GLS  V0201301N004112200019N0192001N1+02391+01391999999ADDAG10999GF100991999999999999999999MA1101801999999REMAWY004000?
0058101470999991979042618204+53633+009983FM-15+0016EDDH V0203101N00251999991CY0099001N1+00801+00501999999ADDMA1101691999999REMMET012CAVOK NOSIG?EQDQ01+000000PRSWM2
037972407093730197906290300C+39450-074567SAO  +0020ACY  V0201705N00315027434EN0160005N1+01835+01285101885ADDAA101000095AG10000GA1999+027434034GA2999+076204024GD13065+0270099GD24025+0750099GD30995+9999999GD40995+9999999GF108085999001999999071991MA1101901101635MD1110021+9999MW1001REMAWY009102 1077?EQDN01 00000JPWTH 1QNNE11 1 00407E11 1 00603E11 1 00099E11 1 00099G11 1 00090H11 1 23090H11 1 37250K11 1 00055L11 1 01000M11 1 30010N11 1 00000Q11 1 10188S11 1 00065V11 1 01010X11 1 17006
0207764230999991979112406004+24033-104667FM-12+189899999V0203201N00361220001CN0200001N9+00601-00401999999ADDAA106000091AA224000091AY101999GF100991001001999999001001KA1999M+02301KA2999N-00601MA1999999081201MD1999999-0171MW1001REMSYN05968120 70000 800// 90000 91903 1//// 20000 3//// 42356 53208EQDQ01  00003PRCP99
0228719660999991979052818004+64050-139133SY-SA+0369YDA  V0202801N004110660019N0320001N1+01701+00201101791ADDAA106000091AG10000AY121999GD12991+0150099GD23991+0660099GF107991031021017501001081KA1999M+01701KA2999N+00901MA1101731097331MD1010001+9999MW1031REMSYN01169733 41709AWY021CU4CS3 TCU ASCTD 000?EQDQ01+000003PRSWM2Q02  00003PRCP99
0163783150999991979011118004+22417-083683FM-12+005199999V0200901N01441030001CN0170001N9+02601+02101101491ADDAY121999GA1021+004209079GA2041+006009089GA3071+030009039GF107991041061004501051999KA1999M+02601KA2999N+01901MD1710191+9999MW1051REMSYN02382714 84820 87360 42619
0064092610999991979112217004+52900+011733FM-12+002399999V0202401N00101007501CN0060001N9+00301+00101102911ADDAG11999AY121999GF108991081051008001999999MD1310011+9999MW1051
0031077200999991979092200004+42933+000150FM-12+288399999V0203601N001019999999N9999999N9-00801-00901999999ADDMD1710061+9999REMSYN0057////
044972412003872197908250300C+37783-081117SAO  +0763BKW  V02099959000050152449N0048005N1+02065+02005101575ADDAA101000095AG10000GA1999+009144084GA2999+015244064GA3999+999999999GA4999+999999999GD12025+0090099GD23055+0150099GD30005+9999999GD40005+9999999GF106065999081999999001991MA1101861092965MD1110171+9999MW1455REMAWY009117 1800?EQDQ01+999990APOSP N01 07000JPWTH 1QNNE11 1 00202E11 1 00406E11 1 00000E11 1 00000G11 1 00050H11 1 11030H11 1 15050H11 1 00999H11 1 00999K11 1 00068L11 1 00300M11 1 27450N11 1 07000Q11 1 10157S11 1 00069V11 1 00808X11 1 00000
0064388910999991979080109004+37800+061550FM-12+020099999V0203201N01201220001CN0010001N9+03701+01601100141ADDAG11000AY131999GF100991001001999999001001MD1810061+9999MW1341
0057485670999991979102703004+07517+099633FM-12+0016VTST V0209991C00001045001CN0080001N9+02901+02401101221ADDAY121999GF107991031031008001041061MD1999999-0031MW1101
0214085360999991979031718004+38767-009133SY-MT+0114LPPT V0202401N00661004201CN0070001N1+01001+00701100201ADDAA199004091AY181999GA1021+003609089GA2031+004209099GF107991051091004501061011KA1999M+01201MA1100201999999MD1210151+9999MW1811UA1M000009999UG1130302709REMSYN03570412 30000 27306 41108 82812 83914MET011GRADU 9999?
008372326013891197911182200D+35817-084000SAO  +0299TYS  V0203401N001512200019N0320001N1+01831+00441102001ADDAA101000095AG10999GD12991+0750099GF102991999999999999999999MA1102031098471MW1001
0109064510999991979101205004+50900+004467FM-12+0055EBBR V0203201N00051000901CN0018001N9+01401+01401100051ADDAY161999GA1031+000309079GA2061+000909079GF108991071071000751999999MD1710131+9999MW1611REMSYN01183701 86703
0064222820999991979050403004+67800+046667FM-12+000699999V0201801N00201075001CN0500001N9+00101-00201102611ADDAG11000AY111999GF107991001001999999001021MD1710071+9999MW1031
0108726396999991979051900004+42467-082883SMARS+017541Y  V0201801N00411220001CN0111001N9+02441+99999999999ADDAG10999GF101991999999999999999999MW1001SA1+1559UG1050009999REMSYN037M     PLUS  32    ST    CLAIRSHORES ?
0056084950999991979082820304+36150-005350FM-15+0005LXGB V0200801N00201220001CN0112001N1+02301+02101999999ADDGA1011+004209059GA2031+066009009MA1101491999999MW1051
0084722710930451979121606004+33233-107267SAO  +1481TCS  V0202701N002519999999N9999999N9+00061-00931999999ADDAA106000091AG10000MA1102401999999REMAWY004000?EQDQ01+000002VOVAR Q02  00003PRCP99
055572764024011197911290600C+46767-100750SY-SA+0502BIS  V0203205N009352200059N0192005N1-01005-01175103915ADDAA101000095AA206000091AA324000291AG14000AY111999GA1999+003664134GA2999+999999999GA3999+999999999GA4999+999999999GD12025+0036099GD20005+9999999GD30005+9999999GD40005+9999999GF102025021061004501001991KA1999M-00671KA2999N-01001MA1103561097535MD1110151+9999MW1021OC101331REMSYN01769751 20001 42014AWY012115 1600 20?EQDQ01+000003PRSWM2Q02  00003PRCP99N01 00000JPWTH 1QNNE11 1 00202E11 1 00000E11 1 00000E11 1 00000G11U1 99999H11 1 13012H11 1 00999H11 1 00999H11 1 00999K11 1 00011L11 1 01200M11 1 28800N11 1 00000Q11 1 10391S11 1 00014V11 1 00202X11 1 32018
0090764125999991979030122004+24783-107433SAO  +0033CUL  V0201901N003012100019N0160001N1+02701+01201999999ADDAG10999GD14991+2100099GF108991999999999999999999MA1101151999999MW1001REMAWY009HK 00890?
0051165200999991979072323504+40633+008283FM-15+0023LIEA V0209991C00001999991CY0099001N1+01901+01701999999ADDMA1101801999999REMMET005CAVOKEQDQ01+000000PRSWM2
0062105440999991979041004004+50500+009950AERO +092199999V0201501N00721220001CN0040001N9-00101-00301999999ADDAY101999GF100991999999999999999999MW1101EQDQ01+000003PRSWM2
0101122150999991979050112004+53717+016683FM-12+014499999V0202401N00601030001CN0150001N9+00701-00101100631ADDAA106999929AY181999GF105991031031008001061001MD1010041+9999MW1011REMSYN005797//EQDQ01  99993PRCP99
0069844520999991979121108004-06783-079833FM-15+0031SPHI V0201701N00201030001CN9999999N9+02001+01701999999ADDGA1081+030009049MA1100911999999EQDQ01+000002VOVAR Q02+000000PRSWM2
006872524614891197911190100D+40817-082517SAO  +0395MFD  V0201801N004112200019N0192001N1+00941+00441999999ADDAA101000095AG10999GF100991999999999999999999MA1101861999999MW1001
0024992200999991979110208004+40700-137700FM-18+000099999V0203001N014019999999N9999999N9+01331+99999101191ADDSA1+1549UA1M110579999
0068486650999991979061906004+02267+102250FM-12+0011WMKM V0201401N00211045001CN0280001N9+03001+02401100901ADDAA199000091AY121999GF107991031031004501071081MW1031REMSYN005700//
0058154810999991979052400004+44367+028483FM-15+0097LRCK V0200501N00411999991CY0099001N1+01501+01501999999ADDMA1101801999999REMMET012CAVOK NOSIG?EQDQ01+000000PRSWM2
0106717140999991979101208004+46800-071383SAO  +0075YQB  V0200501N00101009301MN0240001N1+00201-00101101181ADDAG10999GD14991+0093099GF108991999999999999999999MA1101151100281MW1001REMAWY006SC10 ?EQDQ01+999990APOSP 
0069165460999991979052014004+39350+008967FM-15+0029LIED V0202601N00721220001CN0090001N1+02201+01001999999ADDGA1021+006009089GA2031+027009039MA1101901999999MW1101REMMET004BKN?
0055132720999991979042601004+44817+020283FM-15+0099LYBE V0203101N00301018001CN0112001N1+01101+00901999999ADDGA1081+018009049MA1101191999999MW1611REMMET006NOSIG?
0128526520999991979090300004+38933+100583FM-12+148399999V0201401N00201220001CN0300001N9+01301+00701101051ADDAA199370091AG13000AY111999GF102991999001999999041001MA1999999085021MD1210051+9999MW1011REMSYN010/8770 1111EQDQ01+000002SCOTLC
032172583024128197911101500C+40900-117800SAO  +1311WMC  V0201905N002652200059N0800005N1-00835-01115102325ADDAA101000095AG10000GD10995+9999999GD20995+9999999GD30995+9999999GF100005999999999999999999MA1102101087205MD1210071+9999MW1001REMAWY004207?EQDQ01+999990APOSP N01 00000JPWTH 1QNNE11 1 00099E11 1 00099E11 1 00099E11 1 00099G11U1 99999K11 1 00012L11 1 05000M11 1 25750N11 1 00000Q11 1 10232S11 1 00017V11 1 00000X11 1 19005
0104999999999991979041006004+05500+097600FM-13+0000FNHJ V0203101N00311045001CN0500001N9+02991+99999100921ADDAY121999GF107991011031004501071041MD1810081+9999MW1021SA1+3059UA1M030059999REMSYN017/5125 13059 30301
0145033180999991979050512004+53767-003033FM-12+0010EGNH V0203301N00571004201CN0150001N9+00701+00201102061ADDAA106003091AY181999GA1011+004509099GA2031+007509089GF106991051091004501001011MD1210071+9999MW1011REMSYN017703// 81915 83825EQDQ01  00303PRCP99
0057095540999991979032920004+50983+010967FM-12+0315ETEF V0203301N00701007501CN0100001N9+00301-00101099711ADDAY121999GF108991081051008001999999MD1110071+9999MW1051
0149604900999991979101809004+35617-000600SY-MT+0090DAOO V0200601N00611012001CN0112001N1+02201+01901101941ADDAY121999GA1051+012009059GA2041+075009009GF107991051051012501031021MA1101901999999MD1210131+9999MW1011REMSYN01785640 84075 95900EQDQ01+000000PRSWM2
0115999999999991979071418004+41900+145000FM-13+0000UKNH V0200501N004019999999N0200001N9+01351+99999101041ADDAY121999GA1091+999999999GF109991091999999999999999MW1021SA1+1609UA1M050109999WA1900009REMSYN01711605 20000 30502
0057725067999991979021801004+41667-070283SAO  +0016HYA  V0203301N006112200019N0320001N1-01161-02661999999ADDAG10999GF100991999999999999999999MA1103691999999MW1001
0135556960999991979082021004+28417+092467FM-12+390099999V0209991C00001036001CN0200001N9+01001+00801999999ADDAA124008091AG13000AY121999GF107991041041017501031999MA1999999063531MD1710021+9999MW1021REMSYN01766353 22008 00800EQDQ01  00803PRCP99
0146717140999991979122515004+46800-071383SAO  +0075YQB  V0200601N00871000601MN0064001N1+00001+00001100931ADDAG10001GD13991+0006099GD24991+0030099GF108991999999999999999999MA1100881100011MD1510041+9999MW1701MW2791REMAWY011SF8SC2 504?EQDQ01+999990APOSP 
0145163620999991979092118004+38900+016250FM-12+001599999V0209991C00001036001CN0080001N9+02201+01701099981ADDAA199000091AY111999GA1011+007809059GA2031+027009039GF107991011051008001051011KA1999M+02501MD1410001+9999MW1101REMSYN02370025 81626 83359 56620
0116999999999991979092318004+43700-068100FM-13+0000DECC V0203501N00771220001CN0200001N9+01101+99999102121ADDAY101999GF101991011041008001001001MD1210101+9999MW1031SA1+1409UA1M030109999UG1070250709REMSYN01711400 30302 07705
033772509594746197910301200C+42267-071867SAO  +0300ORH  V0203305N002152200059N0160005N1+00225-00065102485ADDAA101000095AA206000091AG10000GD10995+9999999GD20995+9999999GD30995+9999999GF100005999999999999999999MA1102371098715MD1210221+9999REMAWY015000/ 222 45135?EQDQ01  00003PRCP99N01 00000JPWTH 1QNNE11 1 00099E11 1 00099E11 1 00099E11 1 00099G11U1 99999K11 1 00031L11 1 01000M11 1 29150N11 1 00000Q11 1 10248S11 1 00036V11 1 00000X11 1 33004
0072722015128501979032201004+24567-081683SAO  +0002NQX  V0201001N002512200019N0112001N1+02171+01501101721ADDAG10999GD12991+0540099GF102991999999999999999999MA1101691999999MW1001
0094063700999991979010913294+51450+005417FM-15+0022EHEH V0202601N00361000901CN0008001N1+00101+00101999999ADDED199U08839GA1031+000309079GA2081+000909079MA1100811999999MW1461REMMET018RED RED TEMPO AMB?
007494999900063197908262330N-11420+130670AUST +0015     V02099999001059999999N999999999+02555+02205999999ADDAY124999GA1005+999999999GF100995004999999999999999MA1999999101235MW1025
008772304093729197904210500D+35267-075550SAO  +0003HAT  V0200701N004612200019N0160001N1+01001+00391102561ADDAA101000095AG10999GF100991999999999999999999MA1102541102501MW1001EQDQ01+999990APOSP 
0072723526999991979052321004+35350-099200SAO  +0586CSM  V0200401N005612200019N0320001N1+02221+99999999999ADDAG10000GD12991+0600099GF102991999999999999999999MA1102201999999MW1001
0064361770999991979091109004+50350+080250FM-12+020699999V0201801N00301220001CN0100001N9+01601-00101102521ADDAG12000AY111999GF101991011011012501001001MD1710161+9999MW1021
0102155440999991979120718004+43267+026933FM-12+022099999V0209991C00001220001CN0200001N9+00801+00501102111ADDAA199000091AG10000AY111999GF100991001001999999001001KA1999M+01301MD1610011+9999MW1011REMSYN00570013
0120722025128491979110412004+26067-080150SAO  +0003FLL  V0200301N00301007501MN0096001N1+02331+01941999999ADDAA106000091AG10000GD14991+0075099GF108991999999999999999999MA1101391999999MW1051REMAWY009RWU NE S?EQDQ01  00003PRCP99
0082475670999991979052501004+38233+140917FM-15+0005RJSU V0209991C00001006001CN0112001N1+01701+01301999999ADDGA1051+006009059GA2081+009009059MA1101591999999REMMET004162?EQDQ01+000000PRSWM2
0071035340999991979070708504+52450-001733FM-15+0099EGBB V0202601N00561013501CN0112001N1+01701+01101999999ADDGA1011+006009059GA2071+013509059MA1102001999999MW1041REMMET006NOSIG?
0087404270999991979051103004+26267+050617FM-12+0002OBBI V0202901N00101220001CN0080001N9+02701+02401101221ADDAY111999GA1011+036009039GF101991011001999999031001MD1999999+0111MW1021REMSYN00581362
0086471100999991979031409004+37550+126800FM-15+0018RKSS V0202701N00511220001CN0112001N1+00801-00101999999ADDGA1011+030009039MA1101491999999REMMET0242998INS? FCST0912 NOSIG?EQDQ01+000000PRSWM2
0095321950999991979112218004+46850+151867FM-12+002699999V0201301N01401007501CN0190001N9+00401+00301102421ADDAG12000AY121999GF108991081051008001999999MD1710301+9999MW1021OA199901901REMSYN01191119 91214
0071717334999991979021111004+46350-082583SAO  +0329YEL  V0200701N002512200019N0240001N1-02801-02801999999ADDAG10999GF100991999999999999999999MA1103051999999MW1001REMAWY005SAWR?
0139264220999991979031100004+56967+024067FM-12+000399999V0201401N00601006301CN0060001N9+00001-00201100481ADDAA106000591AA299000491AG10001AY181999GA1061+006309099GF108991081091008001999999MD1410001+9999MW1831OA199901001REMSYN017794// 86921 91110
0102727755241121979081402004+47517-111183SAO  +1075KGFA V0201101N007210210019N0400001N1+01671+00781999999ADDAG10999GD12991+0120099GD23991+0210099GD34991+0360099GF108991999999999999999999MA1102031999999MW1611
0072723850031331979050910004+36950-116050SAO  +1195UCC  V0203501N003012200019N0320001N1+00331-00381100591ADDAG10999GD12991+0750093GF102991999999999999999999MA1100751999999MW1001
0095167430999991979102506004+36150+023000FM-12+016799999V0200501N00411012001CN0120001N9+01601+01301101731ADDAA199000091AY121999GF108991081081008001999999KA1999N+01601MD1410001+9999MW1031REMSYN00570016
0131999999999991979072006004+15000-133900FM-13+0000UVGB V0200301N002019999999N0100001N9+02441+99999101381ADDAY121999GF107991071999999999999999MD1210271+9999MW1031SA1+2709UA1M000009999UG1070103509WA1999999REMSYN02312704 20/0/ 30000 35702
0082985430999991979091903004+12367+123617FM-12+001099999V0202601N00211045001CN0350001N9+02901+02601101061ADDAA199000091AY101999GF108991041021004501031071MD1810041+9999MW1021REMSYN005700//
0057724926232581979052015004+37633-120950SAO  +0032MOD  V0203401N004612200019N0160001N1+01611+01221999999ADDAG10000GF100991999999999999999999MA1101081999999MW1001
0127590070999991979053106004+24033+105033FM-12+125299999V0200401N00401007501CN0200001N9+02501+02001100521ADDAA106000091AA299000291AY181999GF106991061011008001001011KA1999N+02001MA1999999087101MD1810151+9999MW1021REMSYN01168710 /9220
0084012050999991979072503004+62333+005267FM-12+003999999V0200501N00671030001CN0550001N9+01201+01001101171ADDAY121999GF107991071001999999071999MD1310031+9999MW1021UA1M990099999REMSYN00591434
0134719380999991979022514004+67833-115117SAO  +0024YCO  V0203101N00611006001EN0080001N1-02701-03001102301ADDAG10999GD13991+0060099GD24991+0600099GF108991999999999999999999MA1102271101991MW1451MW2761REMAWY013SC7CI1 -288X?EQDQ01+999990APOSP 
041572655014926197901222100C+45550-094067SAO  +0313STC  V0200505N00415002444WN0013005N1-00835-01005100995ADDAA101000895AA206002091AG10001AJ100389199999999GA1999+002444104GD15085+0024099GD20995+9999999GD30995+9999999GD40995+9999999GF108085999999999999999999MA1100751097095MD1610121+9999MW1715REMAWY01261206 90415?EQDQ01+999990APOSP Q02  00203PRCP99N01 04000JPWTH 1QNNE11 1 00710E11 1 00099E11 1 00099E11 1 00099G11 1 00008H11 1 98008K11 1 00014L11 1 00081M11 1 28670N11 1 04000Q11 1 10099S11 1 00017V11 1 01010X11 1 05008
0109476720999991979081712004+34983+139867FM-12+000699999V0201601N00051220001CN0120001N9+02601+02401100511ADDAA199000091AY101999GF102991021011999999001001KA1999M+03301MD1210081+9999MW1021WG199030099999REMSYN00570033
0106722269038501979072619004+31267-085717SAO  +0093OZR  V0203201N00151006001MN0048001N1+02281+02061999999ADDAG10999GD13991+0060099GD23991+0240099GF107991999999999999999999MA1101861999999MW1801REMAWY010CB MOVD N?
0051119340999991979050502004+49067+020250FM-15+0703LKTT V0203401N00201999991CY0099001N1+00001-00201999999ADDMA1101591999999REMMET005CAVOKEQDQ01+000000PRSWM2
0078255630999991979041921004+64783+177567FM-12+006299999V0200501N01201007501CN0007001N9-01401-01601100921ADDAG12001AY171999GF108991081051008001999999MD1310121+9999MW1391REMSYN00591117
0072726379148451979051002004+43533-084083SAO  +0204MBS  V0202001N002512200019N0160001N1+02221+01781101261ADDAG10999GD12991+0090099GF102991999999999999999999MA1101291999999MW1001
0110638160999991979020506004-04083+037717FM-12+0872HTSE V0200901N00721220001CN0250001N9+02401+00701999999ADDAA106000091AA224000091AA399000291AY101999GF101991011051002501031001MD1710081+0001MW1011REMSYN011792// 20019
0087702550265141979042919004+61967-151200SAO  +0048SKW  V0201301N002510210019N0960001N1+00831+00281999999ADDAG10999GD12991+0120099GD23991+0210099GF107991999999999999999999MA1101691999999MW1001
0114012280999991979122118004+63850+008467FM-12+002899999V0202301N01901004201CN0400001N9+00601+00401101701ADDAA199000091AY121999GF107991071051004501999999KA1999M+00601MD1810071+9999MW1021UA1M990099999REMSYN01170006 91438
0057083140999991979100103004+39867+004233FM-12+0088LEMH V0209991C00001220001CN0150001N9+01701+01501101971ADDAY101999GF100991001001999999001001MD1410001+9999MW1021
0057134810999991979041815004+42650+021150FM-12+057399999V0202101N00361012001CN0200001N9+01101+00701100611ADDAY161999GF108991081081008001999999MD1510001+9999MW1031
0087062400999991979083105004+52300+004767FM-12-0004EHAM V0201501N00151220001CN0024001N9+01101+01101101961ADDAY101999GA1021+066009009GF102991001001999999001011MD1310011+9999MW1101REMSYN00582072
0087911760225191979051605004+21450-157767SAO  +0003PHNG V0200901N004610150019N0240001N1+02561+01721101911ADDAG10999GD12991+0090099GD23991+0150099GF107991999999999999999999MA1101901999999MW1001
0131725776999991979051400004+43600-110733SAO  +1964JAC  V0202501N006110450019N0320001N1+01611-00101999999ADDAA106000091AG10000GD12991+0210099GD23991+0450099GF107991999999999999999999MA1102301999999MW1001REMAWY005CU E?EQDQ01  00003PRCP99
0050725335999991979062008004+40650-086150SAO  +0247GUS  V0201501N005710240019N0064001N1+02091+01651999999ADDGF107991999999999999999999MA1101861999999MW1051
0072724695230361979082711004+39617-104750SAO  +1726BKF  V0202101N002012200019N0400001N1+01171+00721999999ADDAG10999GD12991+0750093GF102991999999999999999999MA1102001999999MW1001
0072877910999991979103120004-40850-063017FM-12+0006SAVV V0202301N00981220001CN0300001N9+01901-00901100061ADDAY101999GF102991001001999999001021MD1810061+9999MW1021REMSYN0061000,5
0064320570999991979071415004+51133+142667FM-12+006599999V0202701N00101220001CN0200001N9+00801+00801101331ADDAG12000AY111999GF102991001001999999001021MD1810011+9999MW1011
0072725038147141979072505004+41500-074100SAO  +0143SWF  V0202501N002512200019N0096001N1+99999+99999999999ADDAG10999GD12991+0300099GF102991999999999999999999MA1102031999999MW1051
0095170920999991979082718004+39733+039500FM-12+1156LTCD V0209991C00001220001CN0250001N9+02201+01001101121ADDAA199000091AY101999GF100991001001999999001001KA1999M+03401MD1310041+9999MW1021REMSYN00570034
0068074810999991979110411304+45733+005083FM-15+0248LFLL V0203201N00201075001CN0070001N1+00801+00501999999ADDGA1061+075009009MA1102511999999REMMET006NOSIG?EQDQ01+000000PRSWM2
0053800010999991979050502004+12583-081700FM-15+0004MCSP V0209991C00001220001CN0112001N1+02801+02501999999ADDGA1021+007509089MA1100911999999EQDQ01+000000PRSWM2
0064307510999991979010709004+52733+113267FM-12+092999999V0202701N00701220001CN0200001N9-02101-02901100761ADDAG12000AY131999GF103991021001999999041021MD1210441+9999MW1361
0064587370999991979100100004+27050+118300FM-12+011299999V0209991C00001220001CN0180001N9+01701+01601101331ADDAG11000AY101999GF101991011061004501041001MD1210151+9999MW1011
0064293560999991979041521004+57367+089317FM-12+015099999V0209991C00001004201CN0200001N9-00501-00801102101ADDAG12000AY121999GF105991051091004501001001MD1210211+9999MW1021
0117085150999991979011709004+36967-025167FM-12+0093LPAZ V0200401N01391003901CN0090001N9+01501+01301099981ADDAY121999GA1061+003909089GF107991071081004501999999MD1810021+9999MW1101REMSYN03582705BGAI   UG5   TRA   GI    86813
0095683380999991979020118004-26950+024633FM-12+123499999V0203101N00151220001CN0300001N9+02301+01801999999ADDAY111999GF102991021091017501071001MA1999999088381MD1310151+9999ME1315419MW1131REMSYN00568838
0237718260999991979090418004+53200-070900SY-SA+0537WNI  V0202601N00301009001EN0240001N1+01101+00101101591ADDAA106000091AG10000AY111999GD13991+0090099GD23991+0360099GF107991051051008001071001KA1999M+01101KA2999N+00501MA1101421095141MD1810081+9999MW1031WG199990299999REMSYN01169514 41105AWY016995/SC6AC3 808 ?EQDQ01+000003PRSWM2Q02  00003PRCP99
0154477150999991979112104004+36183+140417FM-15+0032RJAH V0200501N00661220001CN0112001N1+01401+00601999999ADDGA1021+007509089GA2031+027009039MA1103181999999OC101081REMMET068320/ FCST 0410         ?     98042 5CU025 96061 05010 5CU025 6AC080?EQDQ01+000000PRSWM2
0151404390999991979102918004+24117+038050SY-MT+0006OEYN V0202901N00301220001CN0112001N1+02701+02101101121ADDAA199000091AY101999GA1011+012009099GF101991011031012501001001KA1999M+03201MA1101081999999MD1999999+0141MW1021REMSYN01170032 81940EQDQ01+000000PRSWM2
0057405820999991979080115004+29217+047983FM-12+0055OKBK V0201001N00411220001CN0060001N9+03901+00401099631ADDAY101999GF100991001001999999001001MD1510041+9999MW1051
0069011520999991979070901504+67283+014417FM-15+0013ENBO V0201201N00251220001CN0112001N1+01801+01201999999ADDGA1011+013509059GA2041+018009059MA1100911999999EQDQ01+000000PRSWM2
0038161700999991979073107004+43800+011200FM-15+0040LIRQ V0209991C00001220001CN0040001N1+02401+01901999999ADDGA1021+060009029MW1101REMMET004SCT?
0165321650999991979051400004+44033+145850FM-12+004899999V0201101N00201007201CN0300001N9+00201-00301102641ADDAA199999929AG13000AJ100009199999999AY121999GA1081+007209059GF108991081051008001999999IA1089IA2999+00009KA1999N+00101MD1210101+9999MW1021REMSYN01779701 88624 20010
0040161200999991979082304204+44417+008850FM-15+0002LIMJ V0209991C00001220001CN0050001N1+01801+01301999999ADDGA1011+006009089MA1101391999999MW1101
053272464093058197903040000C+38283-104500SY-SA+1428PUB  V0200405N006250365849N0480005N1+00285-01005101815ADDAA101000095AA206000091AG14000AY121999GA1999+015244064GA2999+036584034GA3999+076204024GA4999+999999999GD12025+0150099GD23035+0360099GD33015+0750099GD40005+9999999GF106045021051017501071991KA1999M+00501KA2999N-00441MA1101631085475MD1310031+9999MW1031REMSYN01768546 20003 44124AWY024303        ?    1578 41?EQDQ01  00003PRCP99N01 00000JPWTH 1QNNE11 1 00202E11 1 00404E11 1 00401E11 1 00000G11 1 00120H11 1 15050H11 1 23120H11 1 37250H11 1 00999K11 1 00014L11 1 03000M11 1 25240N11 1 00000Q11 1 10181S11 1 00037V11 1 00705X11 1 04012
0087039620999991979012923004+52683-008917FM-12+0014EINN V0203401N00361220001CN0300001N9+00401+00101099911ADDAY111999GA1021+010509059GF102991021051012501001001MD1210411+9999MW1011REMSYN00582635
044972261022010197903150600C+29367-100917SY-SA+0313DRT  V0201305N00465010674MN0240005N1+01785+00335102355ADDAA101000095AA206000091AG10000AY121999GA1999+010674064GD14085+0105099GD20995+9999999GD30995+9999999GD40995+9999999GF108085081051012501999999KA1999M+02221KA2999N+01441MA1102441098715MD1010031+9999MW1021REMSYN01169871 47258AWY012003 15// 72?EQDQ01+000003PRSWM2Q02  00003PRCP99N01 00000JPWTH 1QNNE11 1 00610E11 1 00099E11 1 00099E11 1 00099G11 1 00035H11 1 15035K11 1 00038L11 1 01500M11 1 29150N11 1 00000Q11 1 10235S11 1 00064V11 1 01010X11 1 13009
0072722115999991979010716004+27400-082550SAO  +0007SRQ  V0201701N00921075001EN0160001N1+02331+01391999999ADDAG10999GD13991+0750099GF107991999999999999999999MA1102031999999MW1001
0046404300999991979030520004+24550+039717FM-15+0646OEMA V0200501N00511999991CY0099001N1+02401-01001999999REMMET018CAVOK //// AS REC?EQDQ01+000000PRSWM2
0099725785241451979022003004+43517-112067SAO  +1445IDA  V0202201N008212200019N0320001N1-00161-00551101371ADDAG10000GD12991+0600099GF102991999999999999999999MA1101121999999MD1210071+9999MW1001REMAWY004207?
0087723540139191979053013004+35417-097383SAO  +0393TIK  V0209991C00001000151WN0002001N1+01891+01891999999ADDAG10999GD15991+0001599GF109991999999999999999999MA1100911999999MW1451REMAWY006RVR12?
0080716278999991979120410304+45683-074033SAOSP+0082YMX  V0202401N00561007201MN0240001N1+99999+99999999999ADDAG10999GD14991+0072099GF108991999999999999999999MW1701REMAWY014SC10 INTMT S-?
0148517050999991979020518004+39717+076167FM-12+149499999V0209991C00001220001CN0300001N9-00901-01801999999ADDAA199000091AG10000AY111999GF101991999001999999031001KA1999M+00201MA1999999078861MD1410001+9999MW1011REMSYN01767886 /0002 05200EQDQ01+000002SCOTLC
0076999999999991979070915004+51900+003300FM-13+0000GUKB V0203601N003619999999N0200001N9+01601+99999101711ADDAY121999GF106991999001008001071999MD1510051+9999MW1031EQDQ01+000002SCOTLC
0142711090999991979120823004+50683-127367SAO  +0022YZT  V0201401N002010015019N0048001N1+00801+00801101811ADDAG10999GD12991+0003099GD24991+0015099GF108991999999999999999999MA1101801101531MW1451MW2611REMAWY021SF2SF8 VSBY S-W 11/2?EQDQ01+999990APOSP 
0126133970999991979100206004+43017+022750FM-12+044699999V0202901N00211004201CN0020001N9+01101+01001101971ADDAA199000091AG10000AY121999GF108991081061004501999999IA1009IA2999+01109KA1999N+01101MD1310031+9999MW1101REMSYN01170011 21100
054272520094823197903070000C+40500-080217SY-SA+0347PIT  V0202605N002152200059N0160005N1+00445-00395101615ADDAA101000095AA206000091AG10000AY111999GA1999+076204004GA2999+999999999GA3999+999999999GA4999+999999999GD12015+0750099GD20005+9999999GD30005+9999999GD40005+9999999GF101015001001999999001991KA1999M+00611KA2999N+00001MA1101521097125MD1310031+9999MW1021REMSYN01169712 44332AWY024303 1002 43 RADAT 65034?EQDQ01+000003PRSWM2Q02  00003PRCP99N01 00000JPWTH 1QNNE11 1 00201E11 1 00000E11 1 00000E11 1 00000G11U1 99999H11 1 32250H11 1 00999H11 1 00999H11 1 00999K11 1 00025L11 1 01000M11 1 28680N11 1 00000Q11 1 10161S11 1 00040V11 1 00101X11 1 26004
0078703330999991979100219004+56950-158617SAO  +0029PTH  V0200501N00561010501EN0320001N1+00941+00501999999ADDGD13991+0105099GF107991999999999999999999MA1098041999999MW1001REMAWY004000?
0072724810232031979062816004+37367-120567SAO  +0057MER  V0203001N002512200019N0320001N1+02111+01061999999ADDAG10999GD12991+0750093GF102991999999999999999999MA1101761999999MW1001
0133416750999991979073112004+30200+071433FM-12+0122OPMT V0209991C00001220001CN0040001N9+99999+99999999999ADDAA199000091AY101999GF102991021011999999061091MD1710942+9999MW1021REMSYN00570043EQDQ01+000992SCOLCBQ02+102263APOSLPQ03+000942APC3  
0078999999999991979100900004+17600-065400FM-13+9999X546 V0200901N00821220001CN0100001N9+02811+02201101451ADDAY111999GF104991041021008001001001GJ100009MD1310151+9999MW1021UA1M050059999
0123030100999991979102100004+59083-004400FM-12+001399999V0203201N00881004501CN0160001N9+01101+00801102451ADDAA106001091AY181999GA1051+004509099GF105991051031004501001001MD1210161+9999MW1021REMSYN011701// 85915EQDQ01  00103PRCP99
029372411013741197910121400C+37317-079967SAO  +0350ROA  V0202405N004152200059N0400005N1+01335+00945100865ADDAA101000095AG10999GD12995+0360099GD20995+9999999GD30995+9999999GD40995+9999999GF102025999999999999999999MA1100881096685MW1001EQDN01 00000JPWTH 1QNNE11 1 00299E11 1 00099E11 1 00099E11 1 00099G11U1 99999K11 1 00049L11 1 02500M11 1 28550N11 1 00000Q11 1 10086S11 1 00056V11 1 00303X11 1 24008
0087655550999991979100809004+07733-005067FM-12+0376DIBK V0203601N00211039001CN0080001N9+02101+02101101411ADDAY191999GA1081+039009019GF108991001001999999021999MD1999999+0051MW1611REMSYN00588163
0025992450999991979050115004+60200-146800FM-18+000399999V02099999999999999999N9999999N9+00531+99999101251ADDMD1710111+9999SA1+0489
008372551014939197909062300D+40850-096750SAO  +0362LNK  V0200401N005112200019N0320001N1+02781+01441101741ADDAA101000095AG10999GD12991+0750099GF102991999999999999999999MA1101831999999MW1001
0080723805231791979071102004+34767-114617SAO  +0302EED  V0202301N004112200019N0720001N1+04221-00601100451ADDAG10999GF100991999999999999999999MW1001REMAWY010612 NOSPL?EQDQ01+029123APOA  
0080702590265231979111216004+60567-151250SAO  +0027ENA  V0201501N002012200019N0192001N1+00331+00221100981ADDGD12991+0300093GD22991+0750093GF102991999999999999999999MA1100981999999MW1001
0057962950999991979062315004-05267+105183FM-12+0061WIIT V0209991C00001220001CN0200001N9+02501+02301101041ADDAY111999GF103991011011008001031021MW1021REMSYN0057////
0057722907999991979101222004+32817-116967SAO  +0117SEE  V0202801N004612200019N0144001N1+02391+99999999999ADDAG10999GF100991999999999999999999MA1101221999999MW1001
0090999999999991979031006004+58600-007700FM-13+0000DBFP V0202801N015419999999N0100001N9+00521+00101099381ADDAY181999GF106991061999999999999999MW1271SA1+0839UA1M070509999REMSYN01705601 10832 30710
0071025720999991979060521004+58783+016917FM-12+0042ESCJ V0201301N00211220001CN0500001N9+01001+00601102101ADDAY101999GF100991001001999999001001MD1410001+9999MW1021REMSYN00500076
0251711030999991979061400004+53033-122517SY-SA+0545YQZ  V0202401N00611012001EN0240001N1+01201+00201101561ADDAA106000091AG14002AY181999GD13991+0120099GD23991+0270099GF106991051041012501031001KA1999M+01201KA2999N+00201MA1101421095011MD1710021+9999MW1021REMSYN01169501 41202AWY012SC6AC2 100 ?EQDQ01+000012APCTENQ02+000002APC3  Q03+000003PRSWM2Q04  00003PRCP99
0072746715038161979081513004+37067-088767SAO  +0125PAH  V0200501N00361002401EN0064001N1+01611+01501102431ADDAG10999GD14991+0024099GF108991999999999999999999MA1102471999999MW1451
0099726377999991979042022004+43633-083850SMARS+017730G  V0201601N00101220001CN0129001N9+01271+99999999999ADDAG10999GF101991999999999999999999MW1001REMSYN048M     M     M     PLUS  26    SAGINAW     RIVER?
0069081840999991979101500004+41900+002767FM-15+0143LEGE V0209991C00001220001CN0112001N1+01301+01201999999ADDGA1021+007509089GA2031+024009039MA1099591999999EQDQ01+000000PRSWM2
0058071800999991979111717004+48683+006217FM-15+0225LFSN V0201001N00101999991CY0099001N1+99999+99999999999ADDMA1101691999999REMMET012CAVOK NOSIG?EQDQ01+000000PRSWM2
0094349580999991979111921004+45100+043433FM-12+015899999V0200901N01001003301CN0040001N9+00801+00701102371ADDAG12000AY151999GA1081+003309079GF108991081071004501999999MD1710011+9999MW1511REMSYN00588711
0067726610999991979091314004+45267-103533SAO  +0925REJ  V0202901N001519999999N9999999N9+00721+00331999999ADDAG10999MA1102471999999REMAWY014PK WND 05 000?EQDQ01+000002VOVAR 
0093874360999991979092315004-33267-066350FM-12+0714SAOU V0209991C00001220001CN0250001N9+02501+00401100351ADDAY101999GF101991011001999999071001MA1999999092551MD1010011+9999MW1031REMSYN01269255 1006,6
0144724088137071979051819004+39133-075467SAO  +0009KDOV V0200201N004610048019N0080001N1+01501+01391999999ADDAG10999GD12991+0030099GD23991+0048099GD34991+0120099GF108991999999999999999999MA1102031999999MW1451MW2611REMAWY027CIG RGD          ?    WR//?
044972304093729197908310900C+35267-075550SAO  +0002HAT  V0202405N003152200059N0080005N1+02445+02395101565ADDAA101000095AG10000GA1999+006104084GA2999+076204004GA3999+999999999GA4999+999999999GD12015+0060099GD23045+0750093GD30005+9999999GD40005+9999999GF105025999011999999001991MA1101561101525MD1810071+9999MW1455REMAWY009807 1101?EQDQ01+999990APOSP N01 07000JPWTH 1QNNE11 1 00201E11 1 00305E11 1 00000E11 1 00000G11U1 99999H11 1 11020H11 1 32250H11 1 00999H11 1 00999K11 1 00075L11 1 00500M11 1 29980N11 1 07000Q11 1 10156S11 1 00076V11 1 00603X11 1 24006
0323722220138991979110109003+30467-087200SAO  +0034PNS  V0201005N007250039649N0112005N1+02225+02115101345ADDAG10003GD12995+0027099GD23995+0039099GD34995+0051099GD40995+9999999GF108085999999999999999999MA1101351100915MD1410001+9999MW1815OC101081REMAWY010RB44/ 400?EQDN01 02400JPWTH 1QNNE11 1 00299E11 1 00499E11 1 00699E11 1 00099G11 1 00013K11 1 00070L11 1 00700M11 1 29800N11 1 02400Q11 1 10134S11 1 00072V11 1 01010X11 1 10014
012772467523063197902030200D+39650-106917SAO  +1985EGE  V0202101N005110600019N0240001N1-00821-01101101761ADDAA101000095AG10999GD12991+0135099GD23991+0600099GF107991999999999999999999MA1101221999999MW1001REMAWY020SWU OBSCG MTNS E-SW?
0123719380999991979080321004+67833-115117SAO  +0024YCO  V0202801N004112200019N0240001N1+02001+00201101531ADDAG10000GD13991+0750093GF107991999999999999999999MA1101521101251MD1710111+9999MW1001REMAWY009CI3 711 ?EQDQ01+999990APOSP 
0072722435129181979012415004+29650-095283SAO  +0015HOU  V0202901N007212200019N0240001N1+00171-00881999999ADDAG10000GD12991+0750093GF102991999999999999999999MA1102301999999MW1001
0123036930999991979091818004+51533+000817FM-12+000299999V0202201N00511030001CN0120001N9+01701+01501101341ADDAY161999GA1031+006009059GA2081+030009039GF108991041051008001071999MD1310061+9999MW1211WG199990099999REMSYN01183620 88360
0102747320999991979092114004+32850-106100SAO  +1248HMN  V0209991C000010750019N0640001N1+01671+01221999999ADDAG10999GD12991+0180099GD22991+0300099GD33991+0750099GF107991999999999999999999MA1101831999999MW1001
0117722515129261979102117004+27700-097283SAO  +0006NGP  V0201601N00771006001EN0176001N1+03001+02441101141ADDAG10999GD13991+0060099GD23991+0750099GF107991999999999999999999MA1101081999999MW1001OC101021REMAWY01320 BKN V SCT?
030972546014933197912261900C+41533-093650SAO  +0286DSM  V0203505N00365001834MN0048005N1+00005-00335102245ADDAA101000095AG10999GD14995+0018099GD20995+9999999GD30995+9999999GD40995+9999999GF108085999999999999999999MA1102101098655MW1455EQDQ01+999990APOSP N01 07000JPWTH 1QNNE11 1 00699E11 1 00099E11 1 00099E11 1 00099G11 1 00006K11 1 00026L11 1 00300M11 1 29130N11 1 07000Q11 1 10224S11 1 00032V11 1 01010X11 1 35007
0057094880999991979041005004+51133+013767SY-MT+0230ETDN V0201301N00301220001CN0050001N1+00101+00001101671ADDAY101999GF100991001001999999001001MD1510011+9999MW1051
0119123600999991979031006004+52533+019667FM-12+006399999V0201501N00701002101CN0020001N9+00001+00001099681ADDAA199001091AY111999GF108991081001002501021999IA1209IA2999-00209KA1999N-00101MD1610201+9999MW1731REMSYN01125273 70151
0087727827241101979110516004+47200-119317SAO  +0361MWH  V0200101N00201015001EN0240001N1+00831+00561999999ADDAG10999GD13991+0150099GD24991+0300099GF108991999999999999999999MA1102131999999MW1001
0078388160999991979102012004+38367+066500FM-12+084099999V0202001N00501220001CN0200001N9+01301+00001999999ADDAG11000AY111999GF103991021021008001001011MD1310011+9999MW1011REMSYN005700./
0062035340999991979061308504+52450-001733FM-15+0099EGBB V0203201N00361004201CN0050001N1+01501+01201999999ADDGA1071+004209059MA1101021999999MW1041REMMET013GRADU 5SC017?
029572314013881197909080300C+35217-080933SAO  +0225CLT  V0203305N002652200059N0112005N1+02225+02065101165ADDAA101000095AG10000GD10995+9999999GD20995+9999999GF100005999999999999999999MA1101251098485MD1210141+9999MW1001REMAWY004214?EQDQ01+999990APOSP N01 00000JPWTH 1QNNE11 1 00099E11 1 00099E11 1 00099G11U1 99999K11 1 00069L11 1 00700M11 1 29080N11 1 00000Q11 1 10116S11 1 00072V11 1 00000X11 1 33005
0071107750999991979072507004+49217+011833FM-15+0442EDIH V0202501N001512200019N0080001N1+01601+00801999999ADDGA1041+030009039GA2041+060009029MA1102071999999MW1051REMMET006CIGNO?
0122999999999991979100500004+53600+177500FM-13+0000JIOW V0202201N01491002101CN0040001N9+00701+00501099851ADDAY121999GF108991081071002501999999MD1310401+9999MW1021SA1+0909UA1M050259999UG1080453209REMSYN0230//05 10900 30505 32809
0102235270999991979071715004+64283+060883FM-12+002999999V0200901N00201075001CN0200001N9+01701+01501100331ADDAA199006091AG10000AY121999GF108991031021008001001061KA1999M+01901MD1710011+9999MW1021REMSYN00570619
0069789820999991979060220004+12500-070017FM-15+0018MACA V0200901N00821090001CN0112001N1+03201+02501999999ADDGA1011+006009089GA2061+090009009MA1100911999999EQDQ01+000000PRSWM2
0141164200999991979020203004+38200+015550FM-12+0059LICF V0201801N00411012001CN0100001N9+01101+00501101921ADDAY111999GA1051+012009089GF105991051021012501001001MD1810121+9999MW1031UA1M990039999UG1990509999REMSYN03485840 95290 95690 524/0 QUK2  QUL9
0011992210999991979081123004+46000-131000FM-18+000099999V02099999999999999999N9999999N9+01711+99999102061ADDSA1+1809
0153036030999991979071718004+51867-005133FM-12+0111EGDA V0202301N00771001201CN0120001N9+01701+01501101971ADDAA199000091AY121999GA1051+001209079GA2061+008109059GF107991071051001501041999KA1999M+01801MD1710131+9999MW1051WG199010799999REMSYN01770018 85704 86627
0071107380999991979072210004+48683+009217FM-15+0396EDDS V0202701N00611021001CN0112001N1+01601+00501999999ADDGA1021+012009089GA2061+021009059MA1102001999999MW1001REMMET006NOSIG?
0064308620999991979101609004+51850+116017FM-12+059799999V0202701N00401220001CN0500001N9+00001-01201102441ADDAG12000AY101999GF102991021001999999081011MD1710011+9999MW1021
0057722486139421979061205004+32517-092050SAO  +0024MLU  V0203401N002012200019N0112001N1+01891+01331102041ADDAG10999GF100991999999999999999999MA1102071999999MW1001
0068112310999991979051609504+46650+014350FM-15+0448LOWK V0209991C00001220001CN0112001N1+01701+00701999999ADDGA1011+015009089MA1101801999999REMMET006NOSIG?EQDQ01+000000PRSWM2
0148852230999991979102318004-17383-066167SY-MT+2570SLCB V0202701N00311220001CN0500001N1+02501+00801999999ADDAA106000091AY101999GA1011+012909089GF101991011011012501001001MA1102401999999MD1710291+9999MW1021REMSYN005700//EQDQ01+000000PRSWM2Q02  00003PRCP99
0082474180999991979111609004+42983+144400FM-12+003299999V0203001N003119999999N0400001N9+00701-00101102041ADDAA199000091AY121999GF107991071001999999071999MD1210051+9999MW1031REMSYN00540005
0084062400999991979053000004+52300+004767FM-15-0004EHAM V0202301N00201005401CN0112001N1+01401+01401999999ADDGA1061+005409059GA2051+030009039MA1101691999999REMMET006NOSIG?EQDQ01+000000PRSWM2
0056032635999991979052315504+54517-001417FM-15+0037EGNV V0202301N00771009001CN0112001N1+00901+00701999999ADDGA1021+004509059GA2051+009009059MA1099701999999MW1291
0072724935999991979031118454+37650-122117SAOSP+0015HWD  V0203001N00411006601MN0112001N1+99999+99999999999ADDAG10000GD14991+0066099GF108991999999999999999999MA1102401999999MW1001
0080766961999991979121918004+19833-090517SAO  +0009CPE  V0200601N005110360019N0128001N1+02401+01401999999ADDGD12991+0105099GD23991+0360099GF107991999051999999031001MA1102471999999MW1051
0139030260999991979030918004+58217-006317FM-12+0009EGPO V0203101N01441004201CN0120001N9+00001+00001098861ADDAA199003091AY181999GA1021+002409079GA2061+004209099GF106991061091002501001001KA1999M+00301MD1210691+9999MW1031REMSYN01770303 82708 86914
0122155440999991979100212004+43267+026933FM-12+022099999V0209991C00001004201CN0040001N9+01401+01201101981ADDAA106001091AG10001AY161999GF108991081001004501021999MD1810101+9999MW1601WG199130199999REMSYN005701//EQDQ01  00103PRCP99
0050162580999991979110705004+41700+015950FM-15+0838LIBE V0202901N00511999991CY0099001N1+99999+99999999999REMMET022CAVOK MON LIB VAL NIL?EQDQ01+000000PRSWM2
0038366430999991979110609004+47767+082800FM-12+054899999V0209991C000019999999N0200001N9+00101-00501102301ADDAG12000AY121999MD1610051+9999MW1021
0065700637274061979102107004+70200-148467SAO  +0015SCC  V0209991C00001001801EN0112001N1-00661-00821999999ADDGD13991+0018099GF107991999999999999999999MA1100751999999MW1001
0102286150999991979111815004+55183+053800FM-12+010699999V0209991C00001220001CN0020001N9+00001-00101105221ADDAA199000091AG10000AY111999GF100991001001999999001001KA1999M+00301MD1210101+9999MW1011REMSYN00570003
009872779624137197911040100D+48600-112367SAO  +1174CTB  V0201001N003010042019N0040001N1-00051-00771101741ADDAA101000095AG10999GD12991+0018099GD24991+0042099GF108991999999999999999999MA1101421999999MW1451
0108370470999991979101712004+44217+042067FM-12+052599999V0203601N00901220001CN0100001N9+01601+00701103241ADDAA106000091AG10000AY111999GF103991031091008001001001MD1810061+9999MW1021REMSYN005700//EQDQ01  00003PRCP99
0064338810999991979022515004+46467+028250FM-12+003499999V0203601N00201220001CN0250001N9-00201-00901102891ADDAG11000AY101999GF100991001001999999001001MD1710031+9999MW1021
0123075790999991979091112004+44133+004833FM-12+0060LFMO V0200201N00511220001CN0250001N9+02501+01701102011ADDAA106000091AY101999GA1011+015009089GF101991011011017501001001MD1810071+9999MW1031REMSYN011700// 81850EQDQ01  00003PRCP99
0057071190999991979070403004+48233-003333FM-12+026899999V0200201N00311220001CN0080001N9+01201+01101102541ADDAY101999GF100991001001999999001001MD1410001+9999MW1021
0058013840999991979060619504+60200+011083FM-15+0204ENGM V0202101N00301999991CY0099001N1+02001+00701999999ADDMA1101591999999REMMET012CAVOK NOSIG?EQDQ01+000000PRSWM2
0043999999999991979061012004+05500+081400FM-13+0000ATJY V0202501N01031220001CN0200001N9+02901+99999100601ADDAY101999GF103991021011004501041011MW1011
0080726557149101979062511004+45867-095383SAO  +0434AXN  V0201901N004112200019N0112001N1+01611+01331102191ADDAG10999GF100991999999999999999999MA1102201999999MW1001REMAWY014FEW ACCAS ESE?
0127717000999991979073114004+45867-066533SAO  +0020YFC  V0202001N003012200019N0112001N1+02501+01901101891ADDAG10999GD12991+0450093GD22991+0900093GF102991999999999999999999MA1101901101641MW1001REMAWY012ACCI1 HAZY ?EQDQ01+999990APOSP 
0138083910999991979040521004+37417-005900SY-MT+0034LEZL V0200401N00301024001CN0112001N1+01301+00601101621ADDAY121999GA1021+009009089GA2031+024009039GF105991021081008001031001MA1101691999999MD1310121+9999MW1021REMMET006NOSIG?EQDQ01+000000PRSWM2
0057726545999991979021913004+43767-098033SAO  +0397MHE  V0201301N003612200019N0240001N1-01211-01431999999ADDAG10999GF100991999999999999999999MA1101351999999MW1001
0106747040999991979062615004+34083-118033SAO  +0091EMT  V0209991C000012200019N0080001N1+99999+99999999999ADDAG10000GD16991+0001599GD23991+0450093GF107991999999999999999999MA1101661999999MW1051MW2451REMAWY004FH2?
0100619670707011979060822004-07300+072400FM-15+0003FJDG V0201201N00461220001CN0112001N1+02701+02101100851ADDGA1021+006009089MA1100811100801REMMET006CIGNO?EQDQ01+999990APOSP Q02+999990APOSLPQ03+000000PRSWM2
0118555780999991979072500004+29217+088917FM-12+383799999V0209991C000019999999N0300001N9+01001+00801999999ADDAG12000AY121999GF107991001999999999999021MA1999999063941MD1310051+9999MW1031REMSYN01166394 05102EQDQ01+000042SCOLCG
0059476790999991979102418004+35450+139450FM-15+0062RJTA V0209991C00001000601CN0000001N1+01201+01201999999ADDED199U00009GA1091+000609999MA1102101999999REMMET0053015?
0100619670707011979052916004-07300+072400FM-15+0003FJDG V0201301N00561220001CN0112001N1+02701+02201101221ADDGA1041+004509089MA1101191101171REMMET006CIGNO?EQDQ01+999990APOSP Q02+999990APOSLPQ03+000000PRSWM2
0122985360999991979110106004+12583+122267FM-12+004699999V0200401N00461220001CN0400001N9+03101+02501100711ADDAA106000091AY121999GF103991031021008001001001MA1999999100171MD1710261+9999MW1011REMSYN01163017 700//EQDQ01  00003PRCP99
0102231460999991979030418004+68467+073600FM-12+000599999V0201401N00601220001CN0050001N9-03601-03901101621ADDAA199000091AG14000AY131999GF100991001001999999001001KA1999M-03301MD1710311+9999MW1361REMSYN00570083
0100273550999991979120212004+57333+043117FM-12+013299999V0202301N00201075001CN0190001N9-01101-01301100811ADDAA106000591AA299000491AG10001AY171999GF107991021051012501001021MD1210031+9999MW1021REMSYN005794//
0111725750241261979010522454+41183-112017SAOSP+1358OGD  V0202301N00561015001EN0160001N1+99999+99999999999ADDAG10999GD13991+0150099GD24991+0450099GF108991999999999999999999MA1102001999999MW1001REMAWY015MTNS OBSC N-SE?
0059620100999991979080410304+32683+013167FM-15+0080HLLT V0200601N00411999991CY0099001N1+03701+02001999999ADDMA1101591999999REMMET013CAVOK NO SIG?EQDQ01+000000PRSWM2
0057029030999991979092403004+63717+023150FM-12+0025EFKK V0201701N00411021001CN0400001N9+00301+00101101441ADDAY111999GF106991061001022501071001MD1710081+9999MW1021
0064249230999991979070806004+60717+114883FM-12+016899999V0200901N00101220001CN0500001N9+02501+00301100411ADDAG11000AY101999GF101991001001999999001011MD1710121+9999MW1021
0129022540999991979030112004+64167+017367FM-12+032999999V0201801N00461220001CN0300001N9+00301-00801100571ADDAA106000091AY111999GA1021+060009009GF102991001001999999001021MD1410001+9999MW1021REMSYN017700// 82070 00746EQDQ01  00003PRCP99
0109036070999991979102313004+51750-004517FM-12+000599999V0201101N00411009001CN0045001N9+00801+00601101611ADDAY161999GA1031+003009079GA2081+009009049GF108991031071004501021999MD1810051+9999MW1631REMSYN01183710 88530
0102333560999991979042718004+50250+031800FM-12+012899999V0201401N00601075001CN0300001N9+01601+00401101871ADDAA199999929AG13000AY121999GF105991021001999999041021KA1999M+01901MD1710031+9999MW1021REMSYN00579719
0165238490999991979102403004+61250+073500FM-12+004399999V0202601N00301002701CN0100001N9+00201+99999100531ADDAA199002091AG10000AJ100009199999999AY121999GA1061+002709079GF108991061071002501021999IA1189IA2999+00009KA1999N+00101MD1210131+9999MW1021REMSYN01770201 86709 20050
0122160400999991979030615004+46500+013583FM-12+0777LIVO V0201001N00101009901CN0040001N9+00601+00201999999ADDAJ100149199999999AY121999GA1071+009909089GF107991071021012501001001MD1710211+9999MW1101REMSYN02387833 92252 99614 524/7
0122999999999991979072700004+49800-031100FM-13+0000GUJV V0203101N00311220001CN0200001N9+01711+01601100351ADDAY181999GF103991021051002501081001MD1210201+9999MW1151SA1+1769UA1M020059999UG1060152109REMSYN0230//16 11761 30201 21603
0057722665139101979041404004+32433-099850SAO  +0546DYS  V0201701N002012200019N0240001N1+01331+00441999999ADDAG10999GF100991999999999999999999MA1101491999999MW1001
0084061800999991979051112504+55633+012667FM-15+0005EKCH V0201601N00611060001CN0112001N1+00901+00201999999ADDGA1011+007509059GA2051+060009009MA1102401999999REMMET006NOSIG?EQDQ01+000000PRSWM2
0123717350999991979012401004+47700-079850SAO  +0245YXR  V0201101N004610600019N0240001N1-01101-01201101471ADDAG10999GD13991+0270093GD23991+0600099GF107991999999999999999999MA1101221098321MW1001REMAWY008AS4CS2 ?EQDQ01+999990APOSP 
0294723090137541979111509003+34900-076883SAO  +0011NKT  V0203105N001052200059N0112005N1+00395-00115102495ADDAG10000GD10995+9999999GD20995+9999999GD30995+9999999GF100005999999999999999999MA1102401102375MD1410001+9999MW1001REMAWY004400?EQDN01 00000JPWTH 1QNNE11 1 00099E11 1 00099E11 1 00099E11 1 00099G11U1 99999K11 1 00030L11 1 00700M11 1 30230N11 1 00000Q11 1 10249S11 1 00039V11 1 00000X11 1 31002
043472389093193197904020300C+36767-119717SAO  +0100FAT  V0203605N003152200059N0240005N1+01565+00445101795ADDAA101000095AG10000GA1999+027434064GA2999+999999999GA3999+999999999GA4999+999999999GD10005+9999999GD20005+9999999GD30005+9999999GF100005999999999999001991MA1101801100615MD1110031+9999MW1001REMAWY009103 1400?EQDQ01    043SCOLCGN01 00000JPWTH 1QNNE11 1 00000E11 1 00000E11 1 00000E11 1 00000G11U1 99999H11 1 15090H11 1 00999H11 1 00999H11 1 00999K11 1 00040L11 1 01500M11 1 29710N11 1 00000Q11 1 10179S11 1 00060V11 1 00000X11 1 36006
0178014150999991979080718004+58883+005633FM-12+0009ENZV V0201601N00621011401CN0150001N9+01701+01101100531ADDAA199000491AY161999GA1021+005409059GA2071+011409059GA3011+999999049GF108991071051004501999999KA1999M+02101MD1710051+9999MW1601OA199901741REMSYN02979421 82618 87638 91134 814/5
0072745090232441979012302004+37417-122050SAO  +0012NUQ  V0202701N002012200019N0112001N1+01281+00561101621ADDAG10999GD13991+0750093GF107991999999999999999999MA1101631999999MW1001
016172791094224197909191100D+46150-123883SAO  +0007AST  V0209991C00001003601EN0080001N1+01441+01391101881ADDAA101000095AG10999GD13991+0036099GD24991+0090099GF108991999999999999999999MA1101901101811MW1451REMAWY035CLATSOP SPIT     ?    WND 1106PK09?EQDQ01+999990APOSP 
0071108600999991979051812524+48717+011533FM-15+0365EDSI V0200901N00251220001CN0112001N1+02401+00801999999ADDGA1011+075009009MA1101291999999REMMET009BLU+BLU+?EQDQ01+000000PRSWM2
0080164290999991979012614004+37917+012500FM-15+0007LICT V0202901N00301220001CN0112001N1+01501+01301999999ADDGA1041+004809089MA1101021999999REMMET018SCT VIS MAR 16 KM?EQDQ01+000000PRSWM2
0064588490999991979031921004+26167+119933FM-12+009199999V0200301N00701000601CN0002001N9+00801+00801101621ADDAG12002AY161999GF108991081061000751999999MD1510001+9999MW1611
0087727415999991979093001004+45633-089450SAO  +0490RHI  V0202801N003610240019N0112001N1+01441+01221999999ADDAG10999GD12991+0018099GD23991+0240099GF107991999999999999999999MA1101491999999MW1001
0065746180031471979072720004+35267-117433SAO  +08644CB  V0202201N005112200019N0240001N1+03611+00171999999ADDAG10999GF100991999999999999999999MA1101221999999MW1001OC100771
0105038390999991979111914004+50733-003417FM-12+0030EGTE V0201601N00151015001CN0160001N9+01001+00601101811ADDAY121999GA1011+005409089GA2031+007209059GA3071+015009059GF107991071081004501999999MD1810011+9999MW1211
0045161640999991979120414004+43400+010867FM-15+0555LIQV V0200501N00301999991CY0099001N1+99999+99999999999REMMET017CAVOK 1CI200 SCT?EQDQ01+000000PRSWM2
0085108660999991979111712204+48133+011717FM-15+0529EDDM V0203501N00151002701CN0060001N1+00101+00001999999ADDAG12000GA1051+002709089GA2081+007509059MA1101081999999MW1101REMMET013GRADU 5SC012?
0087723095937191979043019004+35083-077050SAO  +0006EWN  V0200901N002012200019N0112001N1+02221+00941101901ADDAG10999GD12991+0135099GD23991+0540093GF107991999999999999999999MA1101901999999MW1001
0064285880999991979122009004+55567+071367FM-12+012999999V0201801N00101220001CN0500001N9-01801-02201103691ADDAG12000AY101999GF100991001001999999001001MD1710101+9999MW1021
0064315040999991979100318004+51350+139100FM-12+002099999V0209991C00001030001CN0500001N9+00301+00201100671ADDAG11000AY111999GF108991081001999999071999MD1610021+9999MW1021
0057029490999991979020903004+61800+029317FM-12+008899999V0201501N00211012001CN0025001N9-01401-01501098841ADDAY171999GF108991081001012501021999MD1710371+9999MW1711
0064234630999991979011206004+65967+084350FM-12+004199999V0201601N00101021001CN0040001N9-02701-03101103461ADDAG12002AY171999GF108991081001022501021999MD1710041+9999MW1731
0122999999999991979100606004+39500+007900FM-13+0000FNEM V0201301N00051090001CN0500001N9+01961+01701101311ADDAY111999GF106991021011002501001091MD1310061+9999MW1031SA1+2059UA1M990009999UG1050102609REMSYN02305217 12056 3//00 26502
0051130140999991979071901304+46217+014483FM-15+0362LYLJ V0209991C00001999991CY0099001N1+01401+01201999999ADDMA1101591999999REMMET005CAVOKEQDQ01+000000PRSWM2
0145722556129251979070521154+28367-097667SAOSP+0058NIR  V0201501N004110045019N0024001N1+99999+99999999999ADDAG10007GD12991+0012099GD23991+0045099GD34991+0150099GF108991999999999999999999MA1101761999999MW1951REMAWY034T OVHD MOVG N OCNL     ?    LTGIC?
0072804130999991979112613004+10250-067650FM-15+0408MVBS V0209991C00001090001CN0112001N1+02701+01901999999ADDGA1011+006909089GA2031+030009039GA3051+090009029MA1101491999999MW1051
0058787240999991979100617004+13300-087183FM-15+0048MHCH V0200301N00511220001CN0112001N1+03201+02101999999ADDGA1011+006609089MW1061REMMET0242AC080 2CI250 BRUMA LIG?
0090999999999991979042800004+41300+009000FM-13+9999X688 V0202401N00571007501CN0100001N9+01051+00501101261ADDAY111999GF105991051031008001001001GJ100009MD1110071+9999MW1031UA1M050059999UG1050202909
0100039170999991979111103204+54650-006217FM-15+0081EGAA V0202201N00511006601CN0112001N1+00401+00301999999ADDGA1011+003009079GA2061+006609059GA3081+012009059MA1101491999999REMMET006NOSIG?EQDQ01+000000PRSWM2
0078311520999991979122506004+57667+136150FM-12+030599999V0201101N00201075001CN0200001N9-03501-03901101671ADDAG11000AY121999GF105991021001999999041021MD1410001+9999MW1021REMSYN00595900
0150039520999991979012119004+51800-008250FM-12+004099999V0200801N00721006301CN0150001N9+00701+00601101731ADDAY121999GA1031+003609079GA2041+006309089GA3051+075009009GF107991061081004501999011MD1010021+9999MW1021UA1M990099999REMSYN02383712 84821 85075 91837
0072718571999991979030515004+51667-098733SAO  +0265WGU  V0202401N002012200019N0240001N1-00901-01101999999ADDAA106000091AG10000GF100991999999999999999999MW1001EQDQ01  00003PRCP99
0072722265138211979061914004+32383-086367SAO  +0052MXF  V0209991C00001018001EN0112001N1+02671+01721999999ADDAG10999GD13991+0180099GF107991999999999999999999MA1102131999999MW1001
017691285021504197911172300D+19717-155067SAO  +0011ITO  V0202501N002010051019N0032001V1+02111+02001101811ADDAA101007995GD16991+0001599GD22991+0030099GD33991+0051099GD44991+0114099GF108991999999999999999999MA1101801101671MW1811REMAWY027R3         ?    VSBY 1 V 3?EQDQ01+999990APOSP 
0087039740999991979062502004+54183-007233FM-12+008799999V0202401N00311220001CN0350001N9+00701+00601100851ADDAY111999GA1041+009609059GF104991041051012501001001MD1110011+9999MW1011REMSYN00584632
0124072950999991979051206004+47633+006867FM-12+042299999V0202801N00411069001CN0070001N9+01201+01201102651ADDAA199005091GA1031+003009079GA2051+069009009GF106991031061004501031011MD1310061+9999MW1011REMSYN02370511 83710 85073 95790
0102386130999991979051206004+40917+072950FM-12+077199999V0203001N00201090001CN0200001N9+02001+00901999999ADDAA199000091AG10000AY121999GF107991021021012501001061KA1999N+01301MD1710101+9999MW1031REMSYN00570013
0068101470999991979072619504+53633+009983FM-15+0016EDDH V0203201N00361220001CN0112001N1+01501+01201999999ADDGA1021+006009089MA1101901999999REMMET006NOSIG?EQDQ01+000000PRSWM2
0087722435129181979041616004+29650-095283SAO  +0015HOU  V0201001N00511003601MN0080001N1+02391+02061999999ADDAG10999GD13991+0036099GD23991+0150099GF107991999999999999999999MA1101901999999MW1051
0138999999999991979061806004+44200+157100FM-13+0000JBMS V0202201N008219999999N0000501N9+01051+00901101171ADDAY141999GA1091+999999999GF109991999999999999999999MD1710061+9999MW1451SA1+0759UA1M030109999UG1060151909REMSYN0230//09 10755 30302 19603
0132717170999991979072819004+47017-065450SAO  +0034YCH  V0200801N005610048019N0240001N1+02001+01601101441ADDAG10999GD12991+0030099GD24991+0048099GF108991999999999999999999MA1101461101051MW1001REMAWY017SC4SC5 CU ASOCTD?EQDQ01+999990APOSP 
0057406310999991979032212004+34933+043483FM-12+999999999V0203201N00311220001CN0100001N9+02801+00801101271ADDAY101999GF102991021021008001001001MD1710211+9999MW1011
0068077470999991979052110004+42733+002867FM-16+0043LFMP V0200401N00511005401CN0112001N1+99999+99999999999ADDGA1061+005409059MA1101801999999REMMET006NOSIG?EQDQ01+000000PRSWM2
029472486023154197909221700C+39283-114850SAO  +1906ELY  V0202105N003152200059N0720005N1+02225-00225101375ADDAA101000095AG10999GD10995+9999999GD20995+9999999GD30995+9999999GF100005999999999999999999MA1102301081215MW1001EQDQ01+999990APOSP N01 00000JPWTH 1QNNE11 1 00099E11 1 00099E11 1 00099E11 1 00099G11U1 99999K11 1 00028L11 1 04500M11 1 23980N11 1 00000Q11 1 10137S11 1 00072V11 1 00000X11 1 21006
0104999999999991979022509004+40600+174100FM-13+0000JPZD V0202701N00721012001CN0200001N9+01001+00601101201ADDAY121999GF108991081051012501999999MD1410001+9999MW1021SA1+1309UA1M030159999REMSYN0170//06 11300 30303
0071171500999991979121520004+39617+027917FM-15+0106LTBF V0209991C00001030001CN0040001N1+00301+00101999999ADDGA1031+012009059GA2071+030009049MA1101191999999MW1401REMMET006NOSIG?
052472421093814197907041200C+39050-084667SY-SA+0265CVG  V0202305N004150274349N0160005N1+02065+01945101015ADDAA101000395AA206041091AA324041091AG10002AY191999GA1999+010674064GA2999+027434034GD12025+0105099GD24085+0270099GD30995+9999999GD40995+9999999GF108085021051012501071999KA1999M+02891KA2999N+02001MA1101081097935MD1810101+9999MW1805REMSYN02969792 76020 ONE   20160 48468AWY047RB26E37B44       ?    /81060 ONE 157/ 68 20160?EQDQ01  04103PRCP99N01 02300JPWTH 1QNNE11 1 00203E11 1 00610E11 1 00099E11 1 00099G11 1 00090H11 1 15035H11 1 23090K11 1 00067L11 1 01000M11 1 28920N11 1 02300Q11 1 10101S11 1 00069V11 1 01010X11 1 23008
0094289660999991979032009004+52817+066967FM-12+022799999V0201801N00301005701CN0200001N9+00001-00501101921ADDAG12002AY181999GA1081+005709099GF108991081091004501999999MD1710121+9999MW1021REMSYN00588919
0121714100999991979102300004+45850-064267SY-SA+0023WAH  V0202501N001019999999N0080001N9+01201+01101101741ADDAA106000091AG14000KA1999M+01801KA2999N+01201MA1101831101451MD1010071+9999MW1001REMSYN01163145 41812EQDQ01  00003PRCP99
0072723927931101979012222534+34200-119200SAOSP+0013OXR  V0202301N005112200019N0160001N1+99999+99999999999ADDAG10999GD12991+0060099GF102991999999999999999999MA1101591999999MW1001
0101122050999991979040712004+53400+014617FM-12+000199999V0200401N00601007501CN0120001N9+00801+00101101281ADDAA106000091AY111999GF107991071051008001999999MD1710081+9999MW1021REMSYN005700//EQDQ01  00003PRCP99
0127724037937281979041515004+38717-077183SAO  +0021DAA  V0203201N009210120019N0112001N1+01501+00281100671ADDAG10000GD12991+0045099GD23991+0120099GF107991999051999999001001MA1100641999999MD1510121+9999MW1001OC101381REMAWY009512 1500?
0095028740999991979071406004+65033+024800FM-12+000699999V0200801N00571004201CN0300001N9+01601+01401101561ADDAA199000091AY101999GF108991081051004501999999KA1999N+01501MD1210021+9999MW1031REMSYN00570015
0064268980999991979091415004+53233+034383FM-12+016299999V0202501N00401220001CN0040001N9+01701+01101101071ADDAG12000AY111999GF100991001001999999001001MD1310031+9999MW1101
0094100200999991979091017004+55017+008417AERO +002699999V0202701N00771060001CN0180001N9+01601+01101999999ADDAY121999GA1031+004809089GA2061+060009009GF106991999999999999999999MW1011EQDQ01+000003PRSWM2
0064542590999991979121803004+42100+124950FM-12+023799999V0202201N00401015001CN0180001N9+00501+00001102381ADDAG11000AY121999GF107991071051017501999999MD1710031+9999MW1021
0215717070999991979030312004+46167-060050SY-SA+0062YQY  V0201101N001012200019N0240001N1-00501-00701103851ADDAA106000091AG10000AY101999GD12991+0750093GF101991001001999999001011KA1999M-00101KA2999N-00901MA1103791103041MD1210081+9999MW1021WG199990099999REMSYN01163304 45159AWY009CI1 208 ?EQDQ01+000003PRSWM2Q02  00003PRCP99
0255719200999991979090612004+57350-107133SY-SA+0499WFN  V0200101N001010045019N0240001N1+00301+00301102661ADDAA106000091AG14000AY111999GD12991+0012099GD23991+0045099GD33991+0300099GD43991+0780099GF106991061051001501071011KA1999M+01301KA2999N+00201MA1102471096551MD1110051+9999MW1031REMSYN01169655 41302AWY018SF1SC6AC1CI1 105 ?EQDQ01+000003PRSWM2Q02  00003PRCP99
009574780499999197902090300D+32017-081133SAO  +0013SVN  V0209991C000012200019N0208001N1+00281-00101101981ADDAA101000095AG10000GF100991999999999999999999MA1102001999999MD1010031+9999MW1001REMAWY004003?
0071711290999991979102009354+51467-109167SAOSP+0687WKY  V0203601N00821003001MN0016001N1+99999+99999999999ADDAG10001GD14991+0030099GF108991999999999999999999MW1711REMAWY005SC10?
0057442980999991979062721004+46450+108217FM-12+128499999V0209991C00001007501CN0500001N9+01501+01501100181ADDAY121999GF108991081051008001999999MD1510041+9999MW1021
054672231012916197904290000C+29983-090250SY-SA+0001MSY  V02099959000052200059N0160005N1+02285+01175101515ADDAA101000095AA206000091AG10000AY101999GA1999+006104084GA2999+091444004GA3999+999999999GA4999+999999999GD12015+0060099GD23055+0900093GD30005+9999999GD40005+9999999GF105025011011008001001991KA1999M+02441KA2999N+01221MA1101521101425MD1510071+9999MW1031REMSYN01163141 47654AWY012507 1101 76?EQDQ01+000052SCOTCVQ02+000003PRSWM2Q03  00003PRCP99N01 00000JPWTH 1QNNE11 1 00201E11 1 00306E11 1 00000E11 1 00000G11U1 99999H11 1 11020H11 1 32300H11 1 00999H11 1 00999K11 1 00053L11 1 01000M11 1 29950N11 1 00000Q11 1 10151S11 1 00073V11 1 00602X11 1 00000
0148703050999991979010704004+58650-162067SAO  +0165PAEH V0201001N005112200019N0320001N1+00221-00211999999ADDAG10999GD12991+0210099GD22991+0300099GD33991+0600093GF107991999999999999999999MA1101901999999MW1001REMAWY037WND 06V13 0( 2,$       ?     1128/26?
0054474250999991979042319004+42800+141650FM-15+0025RJCC V0201601N00361000301CN0007001N1+00601+00501999999ADDGA1091+000309999MA1100811999999MW1471REMMET0052978?
0057406310999991979032209004+34933+043483FM-12+999999999V0203201N00621220001CN0100001N9+02701+01001101491ADDAY111999GF104991021011008001031031MD1810111+9999MW1011
0123999999999991979052512004+43200-143900FM-13+0000KSLJ V0202401N00821220001CN0200001N9+01101+00701101301ADDAY101999GF103991031011002501001001MD1410001+9999MW1021SA1+1109UA1M040159999UG1140102509REMSYN0240//07 11100 30403 25402/
0051333460999991979082410304+50350+030917FM-15+0125UKBB V0209991C00001999991CY0099001N1+02401+01301999999ADDMA1101801999999REMMET005CAVOKEQDQ01+000000PRSWM2
0145318690999991979091821004+46067+137883FM-12+001099999V0201401N00201007501CN0500001N9+01401+01101100831ADDAA199002091AG13000AY121999GF106991061091008001001001IA1089IA2999+01309KA1999M+99999MD1310021+9999MW1021REMSYN01170213 21310EQDQ01 +01302ATMX  
0095726387148501979110101004+44733-085583SAO  +0190TVC  V0201501N007710750019N0096001N1+01831+01111100581ADDAG10999GD12991+0180099GD24991+0750099GF108991999999999999999999MA1100751999999MW1051OC101231
0084723550139451979092403004+34650-098400SAO  +0362FSI  V0201301N005112200019N0240001N1+02391+01561101701ADDAG10000GF100991999999999999999999MA1101831999999MD1210201+9999MW1001REMAWY004220?
0058029740999991979062715204+60317+024967FM-15+0051EFHK V0202201N00661999991CY0099001N1+01801+00501999999ADDMA1101081999999REMMET012CAVOK NOSIG?EQDQ01+000000PRSWM2
0057596730999991979070509004+21683+112750FM-12+001899999V0201101N00401036001CN0280001N9+03101+02701099581ADDAY121999GF107991031091012501041021MD1710111+9999MW1031
0087967530999991979102306004-06500+106750FM-12+025099999V0203501N00771004201CN0080001N9+02901+02401999999ADDAA106999929AY191999GF107991051091004501071031MW1171REMSYN005797//EQDQ01  99993PRCP99
0067723830231871979032504004+34750-118733SAO  +1377SDB  V0203401N004619999999N9999999N9+00721+00061999999ADDAG10999MA1102101999999REMAWY014PK WND 16 000?EQDQ01+000002VOVAR 
0083338330999991979092409004+47017+030750FM-12+007399999V0201601N00401220001CN0190001N9+02501+01701999999ADDAG11000AY111999GF100991001001999999001001MD1110011+9999MW1021EQDQ01 105683APOSLP
0064285060999991979021621004+55767+052067FM-12+009099999V0209991C00001220001CN0200001N9-02501-02801103591ADDAG11000AY101999GF100991001001999999001001MD1110101+9999MW1021
0125330270999991979121112004+52217+027883FM-12+013899999V0202301N00501012001CN0060001N9+00701+00301098841ADDAA106004091AG10002AY181999GF108991081051012501999999MD1210061+9999MW1021OA199901201REMSYN011704// 91112EQDQ01  00403PRCP99
0076110360999991979070218204+48117+016567FM-15+0183LOWW V0202601N00201018001CN0070001N1+01201+00901999999ADDGA1051+018009059GA2081+030009049MA1102001999999MW1611REMMET011TEMPO 8000?
009872569024089197911232300D+42917-106467SAO  +1630CPR  V0202401N006112200019N0960001N1-00321-01161101351ADDAA101000095AG10999GD12991+0450099GD23991+0750093GF107991999999999999999999MA1100981999999MW1001
028672301113748197907310200E+34267-077900SAO  +0009ILM  V0203605N002650243849N009600599+02675+02445101635ADDAA101000095GD12995+9999999GD23995+9999999GD34995+9999999GD40995+9999999GF108075999999999999999999MA1999999101495MW1055EQDN01 08100JPWTH 1QNNE11 1 00299E11 1 00499E11 1 00699E11 1 00099G11 1 00080K11 1 00076L11 1 00600M11 1 29970N11 1 08100Q11 1 10163S11 1 00080V11 1 01009X11 1 36005
0101672830999991979072612004-17883+036883FM-12+001199999V0201401N00621220001CN0400001N9+02301+01101102321ADDAA106000091AY111999GF103991031081008001001001MD1999999+0121MW1011REMSYN005700//EQDQ01  00003PRCP99
0025992710999991979061500004+26000-093500FM-18+000099999V02099999999999999999N9999999N9+02661+99999101761ADDMD1710051+9999SA1+2679
0073477160999991979122201004+36033+140200FM-15+0024RJAK V0200301N00151030001CN0020001N1+01401+01301999999ADDGA1021+006009059GA2061+030009039MA1101021999999MW1101REMMET008106 BR3?
0093064900999991979112011004+50483+005917FM-12+048599999V0203501N00261000151CN0000001N9+00301+00301102491ADDAY141999GA1081+000159079GF108991081061000251999999MD1110101+9999MW1441REMSYN01188700 99754
0161035590999991979122718004+52100-000417FM-12+002999999V0202101N01241006001CN0080001N9+01101+01001099221ADDAA199006091AY161999GA1031+004809059GA2051+006009059GA3081+008109049GF108991061051004501021999KA1999M+01201MD1610201+9999MW1631REMSYN02370612 83616 85620 88527
0072722057128541979121020004+28783-081250SAO  +0002SFB  V0200601N007712200019N0240001N1+02391+01721999999ADDAG10999GD12991+0075099GF102991999999999999999999MA1102341999999MW1001
0140345600999991979012106004+48683+044350FM-12+014599999V0203101N00401004201CN0100001N9-00801-00901101721ADDAA199000591AG10002GA1081+004209059GF108991081051004501999999IA1209IA2999-01009KA1999N-00801MD1510081+9999MW1271REMSYN01779558 88614 26074
0051165380999991979100507004+40117+009250FM-15+1022LIEN V0201801N00361004501CN0112001N1+99999+99999999999ADDGA1071+004509059REMMET004BKN?EQDQ01+000000PRSWM2
0151724838999991979032209004+39100-121567SAO  +0019MYV  V0201401N00411012001EN0240001N1+01111+00941101631ADDAG10000GD14991+0120099GF108991999999999999999999MA1101631999999MD1210141+9999MW1001REMAWY056214        ?    NEW SA 0850 E100 BKN 200 OVC 8 1305/986?
0051408000999991979090307004+32617+051667FM-15+1598OIFF V0209991C00001999991CY0099001N1+02601+00001999999ADDMA1102001999999REMMET005CAVOKEQDQ01+000000PRSWM2
0193727755241121979061712004+47517-111183SAO  +1075KGFA V0200501N003610270019N0720001N1+01171+00501100881ADDAA106008091AA224010091AG10000GD12991+0120099GD23991+0270099GD34991+0750099GF108991999041999999071081MA1100981999999MD1810071+9999MW1001REMAWY02780730      ?    1478 20041?EQDQ01  00803PRCP99
0095483760999991979121812004+16883+099150FM-12+0122VTPT V0209991C00001220001CN0050001N9+02401+01601101251ADDAA199000091AY121999GF105991031001999999031061KA1999M+03201MD1999999-0101MW1051REMSYN00570032
0123812510999991979050518004+02033-056117FM-12+024399999V0200901N00411006001CN0180001N9+02801+02201101351ADDAA106999929AY181999GA1051+006009089GF106991061081008001031021MD1999999-0051MW1801REMSYN011797// 85820EQDQ01  99993PRCP99
0123649120999991979010409004+04083+009367FM-12+0046FKKC V0209991C00001090001CN0060001N9+02801+02301101091ADDAY121999GA1011+004809089GA2071+090009009GF107991011051004501001021MD1999999-0021MW1051WG199010999999REMSYN01181816 87080
0102332870999991979051418004+50250+023633FM-12+024999999V0203601N00301220001CN0280001N9+01401+00601102761ADDAA199000091AG10000AY111999GF101991001001999999001011KA1999M+01901MD1610011+9999MW1021REMSYN00570019
0265711870999991979092612004+49133-068200SY-SA+0022YBC  V0202301N00971009001EN0048001N1+00901+00701100501ADDAA106999999AA224004091AG14002AJ100009199999999AY161999GD13991+0090099GD24991+0240099GF108991061051008001071999KA1999M+01401KA2999N+00801MA1100511100241MD1810161+9999MW1451MW2801REMSYN02363024 70410 20044 41408AWY012SC8AC2 816 ?EQDQ01  00003PRCP99Q02  00002PRCP06
0064239330999991979080409004+60967+069067FM-12+004099999V0201001N00401030001CN0500001N9+01901+01401100421ADDAG12000AY111999GF106991061001999999031001MD1710121+9999MW1031
0058160800999991979081207504+45433+009283FM-15+0107LIMM V0201401N00201999991CY0099001N1+02001+01201999999ADDMA1101691999999REMMET012CAVOK NOSIG?EQDQ01+000000PRSWM2
0038787410999991979012216004+12117-086183FM-15+0053MNMG V0200601N00201999991CY0099001N1+02901+02201999999ADDMA1101491999999MW1001REMMET005CAVOK
0064295940999991979092521004+55950+098000FM-12+030299999V0202301N00101030001CN0500001N9+00401+00201101821ADDAG11000AY121999GF107991071001999999031001MD1610011+9999MW1031
0089723415999991979040113004+34483-093100SAO  +0169HOT  V0201801N00251003001MN0064001N1+01891+01781999999ADDAG10999GD14991+0030099GF108991999999999999999999MA1101081999999MW1451REMAWY008CIG RGD?
0204479710424021979050406004+27083+142183SY-MT+0004RJAO V0200601N00771001801CN0050001N1+01901+01801101451ADDAA106005091AY181999GA1051+001809079GA2081+009009059GF108991081021999999999999MA1101391999999MD1710141+9999MW1611MW2801REMSYN01210201 40519,MET0372995 BR          ?     SEA3 SWELL S3?EQDQ01  00503PRCP99
0089478520999991979041905004+33483+131733FM-15+0005RJFO V0200501N00511002401CN0080001N1+01101+01001999999ADDGA1041+001209079GA2061+002409079GA3081+006009089MA1101291999999MW1611REMMET0082993 BR?
0056336860999991979062709004+48350+029867FM-12+017599999V0201401N01201220001CN0100001N9+01801+00801999999ADDAG11000GF100991001001999999001001MD1810011+9999MW1021
0064545270999991979100512004+39100+117167FM-12+000599999V0209991C00001220001CN0150001N9+01401+00701101991ADDAG11000AY101999GF100991001001999999001001MD1210061+9999MW1021
0112427010999991979032006004+23317+085317FM-12+0654VERC V0209991C00001220001CN0040001N9+02801+00801101031ADDAY101999GA1021+075009009GF102991001001999999001011MA1999999093941MD1999999+0191MW1051REMSYN01569394 82075 COR
0058104000999991979021105204+51283+006767FM-15+0045EDDL V0200501N00301999991CY0099001N1-00101-00601999999ADDMA1099901999999REMMET012CAVOK NOSIG?EQDQ01+000000PRSWM2
0093062700999991979012419004+53217+005767FM-12+0001EHLW V0202201N00511220001CN0120001N9-00101-00201100351ADDAY111999GA1011+012009059GF101991011051012501001001MD1810071+9999MW1011REMSYN01181640 55699
0024085450999991979082923304+41233-008683FM-15+0076LPPR V0203301N00151220001CN0035001N1+99999+99999999999ADDMA1102001999999MW1101
0109548260999991979072712004+36250+117100FM-12+153699999V0202001N01001000151CN0000001N9+02001+02001999999ADDAG11000AY141999GA1091+999999999GF109991091999000251999999MA1999999084661MD1310011+9999MW1461REMSYN00568466
0163718800999991979040514004+49600-115783SAO  +0939YXC  V0203301N003012200019N0400001N1+00201-00401101271ADDAG10999GD12991+0150099GD22991+0210099GD33991+0900093GF107991999999999999999999MA1101151090361MW1001REMAWY033CU2AC1CI         ?    CC ASOCTD ?EQDQ01+999990APOSP 
0097702735264091979103105004+61217-149833SAO  +0041MRI  V0200901N003610150019N0240001N1+00391+00281999999ADDGD12991+0090099GD23991+0150099GF107991999999999999999999MA1100141999999MW1001REMAWY008OCNL R-?
0087064070999991979122215004+51200+002867FM-12+0004EBOS V0200701N00621001501CN0020001N9+00001-00101100191ADDAY121999GA1071+001509079GF108991071071001501999999MD1810281+9999MW1501REMSYN00587705
031772552014935197911091700C+40967-098317SAO  +0561GRI  V0203405N011852200059N0400005N1-00175-01065101465ADDAA101000095AG10999GD11995+0360093GD20995+9999999GD30995+9999999GD40995+9999999GF101005999999999999999999MA1101291094685MW1001OC101491EQDQ01+999990APOSP N01 00000JPWTH 1QNNE11 1 00199E11 1 00099E11 1 00099E11 1 00099G11U1 99999K11 1 00013L11 1 02500M11 1 27960N11 1 00000Q11 1 10146S11 1 00029V11 1 00100X11 1 34023
0072724835232061979020822004+38550-121300SAO  +0029MHR  V0201901N003612200019N0048001N1+01441+00611999999ADDAG10999GD12991+0750093GF102991999999999999999999MA1102401999999MW1051
0114379590999991979022512004+39200+046433FM-12+070499999V0200901N00301004201CN0040001N9+00201-00401999999ADDAA106999929AG10001AY171999GF108991081051004501999999MD1410001+9999MW1021REMSYN011797// 95980EQDQ01  99993PRCP99
032072467523063197909082100C+39650-106917SAO  +1980EGE  V0202505N005250365849N0480005N1+03225+00225101455ADDAA101000095AG10000GD12995+0240099GD23995+0360099GD30995+9999999GD40995+9999999GF105035999999999999999999MA1102371080495MD1710271+9999MW1001REMAWY004727?EQDN01 00000JPWTH 1QNNE11 1 00299E11 1 00499E11 1 00099E11 1 00099G11 1 00120K11 1 00036L11 1 03000M11 1 23770N11 1 00000Q11 1 10145S11 1 00090V11 1 00604X11 1 25010
0099560330999991979111312004+34950+098133FM-12+422199999V0203401N00401220001CN0200001N9-00701-02001999999ADDAG12000AY111999GF102991001001999999001021MA1999999060501MD1210081+9999MW1011REMSYN01166050 05302
0157719640999991979040105004+60717-135067SAO  +0702YXY  V0202401N002512200019N0640001N1-00701-01501102711ADDAG10999GD12991+0150099GD22991+0330099GD32991+0690093GF102991999999999999999999MA1102071093851MW1001REMAWY027SC1 AC1          ?    CI2 ?EQDQ01+999990APOSP 
0149038270999991979080100004+50350-004117FM-12+002799999V0202301N00771018001CN0120001N9+01601+01401100281ADDAA106999929AY121999GA1011+002709079GA2031+004509059GA3081+018009059GF108991081081002501999999MD1710131+9999MW1601WG199990099999EQDQ01  99993PRCP99
0069162060999991979122117004+42750+011067FM-15+0005LIRS V0200801N00251027001CN0090001N1+01501+01201999999ADDGA1031+008109059GA2081+027009049MA1100411999999MW1101REMMET004OVC?
0071100060999991979052309004+54600+011150FM-12+000499999V0201801N00621030001CN0100001N9+01201+01101101411ADDAY101999GF106991041061004501061001MD1210031+9999MW1031REMSYN00530201
0137685280999991979020406004-29667+022750FM-12+090099999V0209991C00001220001CN0400001N9+02701+01201999999ADDAA124000091AY101999GF102991001001999999001041MA1999999091081MD1310101+9999ME1315119MW1011REMSYN01769108 70026 238//EQDQ01  00003PRCP99
0093026070999991979012821004+56300+012850FM-12+0020ESDB V0200501N00051006901CN0080001N9-00501-00501100601ADDAY121999GA1071+006909059GF107991071051008001999999MD1210091+9999MW1101REMSYN01187623 00897
0143349240999991979120706004+45283+038117FM-12+000999999V0202301N00301220001CN0200001N9+00401+00301101511ADDAA199004091AG10000AJ100009199999999AY111999GF102991021001999999031001IA1109IA2999+00209KA1999N+00401MD1310091+9999MW1011REMSYN01170404 20220
0145724550139471979030406004+39050-096767SAO  +0324FRI  V0203501N00511006901MN0112001N1-00051-00661101251ADDAA106000091AG10000GD14991+0069099GF108991999051999999999999MA1101151999999MD1010031+9999MW1001REMAWY020WND 27V36/ 003 15//?EQDQ01  00003PRCP99
032572509014739197904141900C+42367-071033SAO  +0006BOS  V0201005N007250027449N0064005N1+00505+00285101465ADDAA101001395GD13995+9999999GD24995+9999999GD30995+9999999GD40995+9999999GF108085999999999999999999MA1101461101355MW1455MW2615MW3795EQDN01 02060JPWTH 1N02 07000JPWTH 1QNNE11 1 00499E11 1 00699E11 1 00099E11 1 00099G11 1 00009K11 1 00037L11 1 00400M11 1 29930N11 1 02060N11 1 07000Q11 1 10146S11 1 00041V11 1 01010X11 1 10014
0099344190999991979121609004+48967+037833FM-12+010799999V0201701N01701021001CN0016001N9+99999+99999999999ADDAG12001AY111999GA1091+999999999GF109991051061022501001061MD1510131+9999MW1851EQDQ01 098043APOSLP
0144717090999991979040318004+47383-061867FM-12+0060WGR  V0201301N00621007501CN0160001N9-00101-00301102301ADDAG12000AY121999GF108991061051008001021999KA1999M+00001KA2999N-00301MA1102271101531MD1710311+9999MW1031REMSYN01163153 40053EQDQ01+999990APOA  
0089223240999991979092709004+66667+034333FM-12+002899999V0202501N00501012001CN0400001N9+00801+00501099721ADDAG12000AY111999GF107991071051012501001001MD1210161+9999MW1021OA199901201REMSYN00591112
0099875850999991979032910004-34583-058483FM-12+002499999V0203401N00051220001CN0120001N9+01601+01501101261ADDAY101999GF100991001001999999001001MD1710031+9999MW1031REMSYN014757.3 17.2  91EQDQ01+000012SCOTCV
0087108580999991979031919524+48200+011267FM-15+0518EDSF V0200801N00251220001CN0112001N1+00401-00201999999ADDGA1011+030009039GA2031+060009009MA1100411999999REMMET009BLU+BLU+?EQDQ01+000000PRSWM2
008294901099999197908052300N-36100+147030AUST +0182     V0209999C000059999999N999999999+00915+00605999999ADDGA1005+999999999GA2085+999999045GF108995004999999999025999MA1999999099495MW1165
030972422093820197902201700C+38033-084600SAO  +0302LEX  V0201805N003152200059N0112005N1+00065-00505102885ADDAA101000095AG10999GD13995+0750093GD20995+9999999GD30995+9999999GD40995+9999999GF106025999999999999999999MA1102741099155MW1001EQDQ01+999990APOSP N01 00000JPWTH 1QNNE11 1 00399E11 1 00099E11 1 00099E11 1 00099G11U1 99999K11 1 00023L11 1 00700M11 1 29280N11 1 00000Q11 1 10288S11 1 00033V11 1 00703X11 1 18006
0109605900999991979020309004+30567+002867FM-12+0400DAUE V0203401N00101030001CN0150001N9+01401-00201101671ADDAY111999GA1021+015009089GA2061+030009039GF107991021021017501081999MD1310061+9999MW1031REMSYN01182850 86360
0090999999999991979042800004+37700-073900FM-13+9999D615 V0202101N00721012001CN0100001N9+01501+99999100641ADDAY121999GF108991081041012501999999GJ100009MD1210201+9999MW1021UA1M050059999UG1070201109
0101727535149191979082901004+46917-098683SAO  +0457JMS  V0202601N002012200019N0240001N1+02391+01561100031ADDAG10999GD12991+0150099GD22991+0750099GF102991999999999999999999MA1100101999999MW1001REMAWY005CB N?
0071765800999991979010400004+22133-091400FM-12+000399999V0200401N01291036001CN0019001N9+02001-02001102681ADDAY121999GF108991041011000751021021MD1010001+9999MW1031REMSYN005////5
0124710690999991979062120004+55300-114783SAO  +0581YZH  V0202901N001510111019N0400001N1+01501+01001101901ADDAG10999GD12991+0060099GD24991+0111099GF108991999999999999999999MA1101831095011MW1801REMAWY009SC1TCU8 ?EQDQ01+999990APOSP 
0267747188231581979042117003+33617-114717SAO  +0119BLH  V02099959000052200059N0640005N1+02285-00285101385ADDAG10999GD10995+9999999GD20995+9999999GD30995+9999999GF100005999999999999999999MA1101421100005MW1001EQDN01 00000JPWTH 1QNNE11 1 00099E11 1 00099E11 1 00099E11 1 00099G11U1 99999K11 1 00027L11 1 04000M11 1 29530N11 1 00000Q11 1 10138S11 1 00073V11 1 00000X11 1 00000
0093478320999991979021906004+30983+130667FM-12+005699999V0202501N00821090001CN0150001N9+01501+00701101631ADDAA199000091AY111999GF105991001001999999001021MD1710191+9999MW1021REMSYN01610151 40000 ?316
0109083060999991979060321004+39550+002733SY-MT+0004LEPA V0209991C00001220001CN0060001N1+01801+01801101831ADDAY111999GA1031+003609079GF103991031061004501001011MA1101801999999MD1210111+9999MW1051MW2061REMMET006NOSIG?
0078033120999991979080909004+53333-003500AERO +000899999V0200301N01691002401CN0070001N9+99999+99999999999ADDAY161999GA1061+002409079GF107991999999999999999999MW1631EQDQ01+000003PRSWM2
0095683500999991979060318004-26733+027083FM-12+130099999V0200501N00151220001CN0090001N9+01201+00801999999ADDAY101999GF100991001001999999001001MA1999999087971MD1310051+9999ME1315899MW1051REMSYN00568797
0054466970999991979011705004+25067+121233FM-15+0050RCGM V0201201N003019999999N0112001N1+02401+01701999999ADDMA1101901999999REMMET0083010INS?EQDQ01+000000PRSWM2
0072874970999991979032610004-33000-058617FM-12+0023SAAG V0200901N00211220001CN0120001N9+01401+01201102121ADDAY101999GF100991001001999999001001MD1310031+9999MW1101REMSYN0061021.0
0102802220999991979062403004+04700-074133FM-12+2547MCBO V0203301N00101220001CN0150001N9+01001+01001999999ADDAY151999GA1021+008109059GF102991021051008001001001MA1999999075061MD1999999-0011MW1051REMSYN00567506
0141999999999991979041400004+45200+154500FM-13+0000JCZF V0202001N00931004201CN0100001N9+00651+00301100801ADDAY121999GF108991999071004501001001MD1210201+9999MW1021SA1+0159UA1M020109999UG1080400509REMSYN0230//03 10155 30202 05808EQDQ01+000072SCOTLC
0024160990999991979091103204+45650+012183FM-15+0018LIPH V0209991C00001220001CN0015001N1+01601+01501999999ADDMA1102001999999MW1101
0136763940999991979072616004+25783-100100SAO  +0387MTY  V0203601N004110120019N0128001N1+02801+02301999999ADDAG10999GD16991+0001519GD22991+0045019GD33991+0120019GD43991+0240019GF107991999999999999999999MA1101291999999MW1631REMAWY010R-1/87X99?
0129020200999991979082221004+68417+018167FM-12+051799999V0203201N00211009001CN0100001N9+01201+01001099681ADDAY121999GA1021+004209079GA2051+009009059GF108991081051004501999999MD1610021+9999MW1211WG199990099999REMSYN01782714 85630 00891
0068603900999991979052010004+36717+003250FM-15+0023DAAG V0202801N01021220001CN0112001N1+02101+00601999999ADDGA1031+009909089MA1102201999999REMMET006NOSIG?EQDQ01+000000PRSWM2
011872384023155197912251600D+35417-119050SAO  +0149BFL  V0200201N002512200019N0160001N1+01001+00891102331ADDAA101000095AG10999GD12991+0750093GF102991999999999999999999MA1102341100551MW1001REMAWY007FEW SC?EQDQ01+999990APOSP 
0126257440999991979050300004+62483+166217FM-12+003499999V0209991C00001220001CN0500001N9-00201-00501101891ADDAA199000091AG10000AY111999GF103991021051008001041001IA1319IA2999-01109KA1999N-01101MD1810031+9999MW1021REMSYN01170061 26196
010672781524237197907091600D+47283-121333SAO  +1209SMP  V0201101N006610600019N0640001N1+01671+00441101071ADDAA101000095AG10999GD12991+0240099GD24991+0600099GF108991999999999999999999MA1101321999999MW1001OC101021
0159238910999991979081600004+61667+096367FM-12+017999999V0209991C00001000151CN0000501N9+00201+00101101811ADDAA199000091AG10000AJ100009199999999AY141999GA1091+999999999GF109991091999999999999999IA1009IA2999+00309KA1999N+00201MD1410001+9999MW1451REMSYN01170002 20300
0192783130999991979020900004+22167-084100FM-12+001399999V0201001N00051033001CN0050001N9+02101+01501101821ADDAA106001091AY121999GA1021+005709089GA2061+033009049GA3011+999999099GF108991031091004501071999MD1310131+9999MW1611UA1M001759999REMSYN03570112 82819 86461 819// 30035 42620EQDQ01  00103PRCP99
0043944800999991979120217004-29650+138067FM-12+005099999V0201801N00261220001CN0500001N9+02401-00201101041ADDAY101999GF100991001001999999001001MW1021
0126268870999991979090506004+53350+032067FM-12+016499999V0202001N00401220001CN0060001N9+01701+01201101741ADDAA199000091AG10000AY101999GF103991031001022501031001IA1009IA2999+01009KA1999N+01101MD1210011+9999MW1021REMSYN01170011 2100/
0118555780999991979041721004+29217+088917FM-12+383799999V0209991C00001220001CN0300001N9-00101-00401999999ADDAG12000AY101999GF101991999041999999001001MA1999999063761MD1410001+9999MW1021REMSYN01166376 00152EQDQ01+000002SCOTLC
0098108640999991979081711004+48067+011633FM-15+0551EDSN V0202101N00101012001CN0112001N1+01701+01101999999ADDGA1031+007509089GA2041+012009059GA3071+024009039MA1101491999999REMMET004BLU?EQDQ01+000000PRSWM2
0087917200999991979071700004-08533-172517FM-12+000299999V0203001N00211045001CN0200001N9+02701+02501101261ADDAA124000091AY121999GF105991031031004501021999MW1151REMSYN00570079EQDQ01  00003PRCP99
0108245850999991979062109004+64567+143267FM-12+052399999V0200501N00701030001CN0500001N9+01401+00401100471ADDAA199999929AG10002AY181999GF108991031091017501031011KA1999M+01501MD1410001+9999MW1021REMSYN01179715 95900
0119745160232021979042121004+38267-121933SAO  +0019SUU  V0202601N00101045001EN0640001N1+02111+00831101601ADDAG10000GD13991+0450099GD23991+0750099GF107991999001999999071081MA1101591999999MD1710141+9999MW1001REMAWY009714 1078?
0082476430999991979071913004+35850+139417FM-15+0090RJTJ V0203601N00201220001CN0112001N1+02001+01601999999ADDGA1011+012009059GA2041+024009039MA1101191999999REMMET004120?EQDQ01+000000PRSWM2
0175063500999991979100407004+51567+004933SY-MT+0013EHGR V0201701N00361075001CN0031001N1+01401+01301100881ADDAY121999ED199U19209GA1021+015009059GA2031+036009039GA3051+075009009GF106991031051017501031011MA1100811999999MD1610051+9999MW1101REMSYN01183650 85362MET018YLO YLO GRADU GRN?
0067084190999991979081208004+37183-003783FM-15+0570LEGR V0209991C00001999991CY0099001N1+02201+01401999999ADDMA1102201095531REMMET005CAVOKEQDQ01+999990APOSP Q02+000000PRSWM2
010272266013962197904170200D+32417-099683SAO  +0542ABI  V0201401N004612200019N0240001N1+02221+01561101361ADDAA101000095AG10999GD13991+0750093GF107991999999999999999999MA1101521095141MW1001EQDQ01+999990APOSP 
0089357960999991979122000004+46900+075000FM-12+042399999V0200801N00801036001CN0100001N9-01101-02301103351ADDAA199000091AG10000AY111999GF108991081001999999071999MD1610031+9999MW1021REMSYN005700//
0087104020999991979072722004+51117+006217FM-12+0089EDUW V0201801N00101075001CN0050001N9+01801+01501102091ADDAY121999GA1051+075009009GF105991001001999999001021MD1110011+9999MW1051REMSYN00585075
029472445003945197906212300C+38817-092217SAO  +0270COU  V0202305N003152200059N0320005N1+03285+01395101675ADDAA101000095AG10999GD10995+9999999GD20995+9999999GD30995+9999999GF100005999999999999999999MA1101761098515MW1001REMAWY007FEW CU?EQDN01 00000JPWTH 1QNNE11 1 00099E11 1 00099E11 1 00099E11 1 00099G11U1 99999K11 1 00057L11 1 02000M11 1 29090N11 1 00000Q11 1 10167S11 1 00091V11 1 00000X11 1 23006
0294710660999991979040812004+58617-117167SY-SA+0338YOJ  V0209991C000012200019N0004001N1-00701-00901100601ADDAA106000091AG14001AJ100439199999999AY161999GD16991+0001599GD22991+0660093GF102991999999999999001011KA1999M+00501KA2999N-00701MA1100411096411MD1310021+9999MW1451MW2461WG199990099999REMSYN02969641 79768 90443 20005 40557AWY016F4CI 98038 302 ?EQDQ01+000022SCOTLCQ02    003SCOLCGQ03  00003PRCP99
0113724295038671979042014004+39833-083833SAO  +0321SGH  V0201301N002512200019N0112001N1+01331+00441999999ADDAG10999GD12991+0360099GD22991+0750099GF102991999999999999999999MA1102441999999MW1001REMAWY017WND LGT AND VRBL?
032672514014778197903300300C+41250-076917SAO  +0160IPT  V0209995900005013724EN0008005N1+01115+00895102405ADDAA101000095AG10002GD14995+0135099GD20995+9999999GD30995+9999999GD40995+9999999GF108085999999999999999999MA1102371100475MD1010191+9999MW1055MW2805REMAWY004019?EQDN01 02381JPWTH 1QNNE11 1 00699E11 1 00099E11 1 00099E11 1 00099G11 1 00045K11 1 00048L11 1 00050M11 1 29670N11 1 02381Q11 1 10240S11 1 00052V11 1 01010X11 1 00000
0124035953999991979070713004+52083-001400FM-15+0029EGVG V0209991V007210105019N0070001N1+02101+01201999999ADDGA1051+010509059GA2041+030009039GA3031+060009009MA1101731999999MW1051OC101021REMMET035CIG0       ?     35 WND 240V300?UU?
0053847820999991979100718004-18067-070267FM-15+0452SPTN V0209991C00001015001CN0112001N1+02001+01301999999ADDGA1051+015009049MA1101691999999EQDQ01+000000PRSWM2
0033165380999991979120607004+40117+009250FM-15+1022LIEN V0209991C00001999991CY0099001N1+99999+99999999999REMMET005CAVOKEQDQ01+000000PRSWM2
0087031000999991979032021004+56500-006883FM-12+0012EGPU V0203601N00881220001CN0400001N9+00101-00501098981ADDAY181999GA1011+005409099GF103991031091004501001001MD1210051+9999MW1011REMSYN00581918
0158812510999991979070400004+02033-056117FM-12+024399999V0209991C00001220001CN0200001N9+02301+02201101481ADDAA106000091AY111999GA1011+006009059GA2031+030009039GF104991011051008001031021KA1999M+03101MD1999999+0031MW1011REMSYN01770031 81620 83360EQDQ01  00003PRCP99
0093467340999991979071901004+23567+119617FM-15+0031RCQC V0202101N00611007501CN0112001N1+02901+02601999999ADDGA1061+007509089GA2071+045009039MA1101021999999REMMET0152981INS CIG025?EQDQ01+000000PRSWM2
0089285980999991979112200004+55600+073483FM-12+008799999V0202401N00201220001CN0750001N9-00801-01601103001ADDAA199000091AG10000AY101999GF100991001001999999001001MD1710101+9999MW1021REMSYN005700//
0045012710999991979070622504+63467+010933FM-15+0017ENVA V0201301N00301999991CY0099001N1+99999+99999999999REMMET017CAVOK 11PO QPQRV?EQDQ01+000000PRSWM2
007494589099999197907200500N-29430+153370AUST +0030     V0201355N001559999999N999999999+01835+01305999999ADDAY124999GA1015+006005085GF101995014015006005999999MA1999999101805MW1025
0360724040137211979052306003+38300-076417SAO  +0014NHK  V0201405N00315002444MN0080005N1+01835+01565101765ADDAA106999929AG10000GD13995+0024099GD23995+0036099GD34995+0270099GD44991+0600099GF108075999011999999051991KA1999M+02221MA1101761101595MD1810151+9999MW1055REMAWY042RE52       ?/          ?    81500 1158 72?EQDN01 08100JPWTH 1QNNE11 1 00499E11 1 00499E11 1 00699G11 1 00008K11 1 00060L11 1 00500M11 1 30000N11 1 08100Q11 1 10176S11 1 00065V11 1 01009X11 1 14006
0093878280999991979103111004-43233-065317FM-12+0039SAVT V0202701N01441220001CN0300001N9+00901-00401099561ADDAY101999GA1011+018009089GF102991011021017501041021MD1210201+9999MW1031REMSYN01181856 995.4
0136600010999991979062215004+27817-017883SY-MT+0032GCHI V0200201N00931220001CN0100001N1+02201+01601101971ADDAY111999GF100991001001999999001001MA1102001999999MD1710151+9999MW1041UA1M990019999REMSYN00591818MET012CAVOK NOSIG?EQDQ01+000000PRSWM2
0102314210999991979091021004+52700+137533FM-12+006199999V0209991C00001030001CN0500001N9+00801+00801101541ADDAA199016091AG10002AY181999GF106991061001999999071001KA1999M+00801MD1210051+9999MW1021REMSYN00571608
0104999999999991979092900004+58800-002400FM-13+0000OZJP V0202701N00511220001CN0500001N9+01201+01001102901ADDAY121999GF102991021011008001001001MD1410001+9999MW1021UA1M040209999WG199350199999REMSYN01100010 30404
0069160640999991979012812004+45517+008667FM-15+0178LIMN V0209991C00001004501CN0010001N1+00301+00301999999ADDGA1041+002409079GA2061+004509059MA1099391999999MW1611REMMET004OVC?
0057723446139711979022602004+36267-093150SAO  +0422HRO  V0203001N006112200019N0128001N1-00051-00431102541ADDAG10999GF100991999999999999999999MA1102401999999MW1001
0057470600999991979050109004+38733+125400FM-12+004799999V0202701N00601220001CN0220001N9+01401+00401101131ADDAY111999GF101991001001999999001011MD1410001+9999MW1011
0095029170999991979070418004+63017+027800FM-12+0095EFKU V0202501N00261220001CN0400001N9+01701+01201101161ADDAA199012091AY101999GF103991021041012501071999KA1999M+01801MD1710061+9999MW1011REMSYN00571218
0159565710999991979062218004+27883+102300FM-12+159299999V0203401N00301015001CN0250001N9+02201+01901999999ADDAA106999999AA299000291AG10002AY181999GF108991081091017501999999KA1999M+02901MA1999999083111MD1710031+9999MW1801REMSYN01768311 /9229 05351EQDQ01  00002PRCP06
0103406500999991979082012004+33233+044233SY-MT+0034ORBB V0203201N00311220001CN0080001N1+04301+01601099851ADDAY111999GA1031+030009039GF105991031001999999031011MA1099801999999MD1710111+9999MW1061REMMET006NOSIG?
0083478800999991979083001004+34283+134067FM-15+0020RJOT V0200301N00151048001CN0112001N1+02701+01901999999ADDGA1011+009009089GA2061+048009039MA1101491999999REMMET0052997?EQDQ01+000000PRSWM2
0103670010999991979033103004-11700+043233FM-12+0006FMCN V0209991C00001220001CN0350001N9+02501+02201101091ADDAY111999GF104991999021008001001021MD1999999+0051MW1021UA1M990009999REMSYN0059118.EQDQ01+000002SCOTLC
0074821080999991979011418004-00417-065033FM-12+004599999V0200901N00311002101CN0040001N9+03301+02701999999ADDAA199000091AY101999GF105991051021002501001001MW1031REMSYN0116//// 700//
0069103060999991979091705444+52300+007383FM-15+0040EDCE V0202201N00361075001CN0112001N1+00901+00501999999ADDGA1041+036009039GA2061+075009009MA1101591999999EQDQ01+000000PRSWM2
0040110100999991979011821204+48233+014183FM-15+0297LOWL V0200801N00721220001CN0033001N1-00901-01001999999ADDMA1102201999999MW1101REMMET007092025?
0267724386148351979122801003+40417-086933SAO  +0186LAF  V0203205N001552200059N0160005N1-00115-00445103195ADDAG10999GD10995+9999999GD20995+9999999GD30995+9999999GF100005999999999999999999MA1103121100785MW1001EQDN01 00000JPWTH 1QNNE11 1 00099E11 1 00099E11 1 00099E11 1 00099G11U1 99999K11 1 00024L11 1 01000M11 1 29760N11 1 00000Q11 1 10319S11 1 00030V11 1 00000X11 1 32003
0102268630999991979020618004+53900+030317FM-12+018099999V0203501N00301030001CN0050001N9-00601-00701100911ADDAA199002091AG10001AY171999GF108991081001999999021999KA1999M-00401MD1210161+9999MW1711REMSYN00570254
0107288670999991979101403004+53317+065550FM-12+021099999V0209991C00001220001CN0200001N9+00702-01001103261ADDAA199000091AG10000AY101999GF102991021051008001001001KA1999N-01001MW1031REMSYN00570060EQDQ01+028023ATOT  
0063106140999991979100215004+49433+007600FM-15+0238EDAR V0200601N003610600019N0112001N1+01701+00701999999ADDAG12000GA1081+060009009MA1102001999999MW1001REMMET007CIG200?
0269999999931071979080818005+32867-117133SAO  +0140NKX  V0202905N002152200059N011200599+02834+01785101544ADDGD12995+9999999GD20995+9999999GD30995+9999999GD40995+9999999GF101015999999999999999999MA1999999099904EQDN01 00000JPWTH 1QNNE11 1 00299E11 1 00099E11 1 00099E11 1 00099G11U1 99999K11 1 00064L11 1 00700M11 1 29500N11 1 00000Q11 1 10154S11 1 00083V11 1 00101X11 1 29004
005994999900220197902070400N-33230+151200AUST +0312     V0201355N003659999999N999999999+02455+01405999999ADDAY134999GA1015+006005085GF101995014015006005999999MW1015
0085843770999991979111114004-03750-073200FM-15+0117SPQT V0209991C00001001201CN0112001N1+02401+02301999999ADDGA1061+001209079GA2021+024009049MA1101691100091EQDQ01+999990APOSP Q02+000000PRSWM2
0057170220999991979021912004+41450+031800FM-12+013699999V0203401N00051004201CN0060001N9+00801+00601100701ADDAY181999GF106991061071004501001001MD1210071+9999MW1801
0082477620999991979101921004+33950+130933FM-12+004899999V0200901N001519999999N0150001N9+01701+01601101521ADDAA199003091AY111999GF105991051081999999001001MD1210141+9999MW1021REMSYN00540390
0072723870031601979120120001+36617-116017SAO  +1006DRA  V0203501N001012200019N0320001N1+99999+99999102401ADDAG10999GD12991+0750093GF102991999999999999999999MA1102511999999MW1001
0071039620999991979051602304+52683-008917FM-15+0014EINN V0201701N00301012001CN0112001N1+00901+00601999999ADDGA1051+012009059GA2081+024009049MA1100611999999MW1601REMMET006NOSIG?
030772511014751197901081300C+40217-076850SAO  +0103CXY  V0203205N00525004574MN0064005N1+00225-00115101145ADDAA101000395AG10999GD14995+0045099GD20995+9999999GD30995+9999999GD40995+9999999GF108085999999999999999999MA1101081099835MW1455MW2615OC100821EQDN01 02070JPWTH 1QNNE11 1 00699E11 1 00099E11 1 00099E11 1 00099G11 1 00015K11 1 00030L11 1 00400M11 1 29480N11 1 02070Q11 1 10114S11 1 00036V11 1 01010X11 1 32010
0058167540999991979071213504+35333+025183FM-15+0038LGIR V0203201N00721999991CY0099001N1+02601+01701999999ADDMA1102001999999REMMET012CAVOK NOSIG?EQDQ01+000000PRSWM2
0064577660999991979081909004+27250+111483FM-12+025099999V0201101N00301007501CN0150001N9+02701+02501100161ADDAG12002AY181999GF107991061021008001041021MD1710121+9999MW1011
0056782640999991979050222004+19967-075850FM-15+0055MUCU V0202701N00511021001CN0090001N1+02801+02501999999ADDGA1031+007509089GA2031+021009039MA1101391999999MW1061
0080164290999991979031302004+37917+012500FM-15+0007LICT V0202801N00301220001CN0112001N1+01401+01201999999ADDGA1021+005409059MA1101691999999REMMET018SCT VIS MAR 10 KM?EQDQ01+000000PRSWM2
007494999900008197910021900N-17370+123670AUST +0012     V0201805N001059999999N999999999+02105+01705999999ADDAY124999GA1005+999999999GF100995004999999999999999MA1999999101065MW1025
032572793024233197907121600C+47450-122300SAO  +0122SEA  V0202205N003650064049N0320005N1+01505+01005102305ADDAA101000095AG10999GD12995+0045099GD23995+0063099GD33995+0240099GD44995+0600099GF108075999999999999999999MA1102301100645MW1001REMAWY007BINOVC?EQDQ01+999990APOSP N01 00000JPWTH 1QNNE11 1 00299E11 1 00499E11 1 00499E11 1 00699G11 1 00021K11 1 00050L11 1 02000M11 1 29720N11 1 00000Q11 1 10230S11 1 00059V11 1 01009X11 1 22007
0051843700999991979061902004-03550-080400FM-15+0025SPME V0209991C00001999991CY0099001N1+02301+02001999999ADDMA1101081999999REMMET005CAVOKEQDQ01+000000PRSWM2
0109039170999991979041121004+54650-006217FM-12+0081EGAA V0200801N00361015001CN0030001N9+00801+00701099421ADDAY121999GA1041+010809059GA2071+015009059GF107991071051012501999999MD1510001+9999MW1601REMSYN01184636 87650
0040037720999991979012710204+51483-000450FM-15+0024EGLL V0209991C00001060001CN0026001N1-00301-00401999999ADDGA1061+060009009MA1099801999999MW1051
0072747880128101979122802004+27850-082517SAO  +0004KMCF V0209991C000012200019N0112001N1+01111+00781999999ADDAG10999GD12991+0750099GF102991999999999999999999MA1102131999999MW1001
0064094600999991979102417004+51367+011300FM-12+016499999V0200601N00501220001CN0045001N9+00501-00201102731ADDAG11999AY101999GF100991001001999999001001MD1510041+9999MW1051
0086476710999991979041323004+35550+139767FM-15+0003RJTT V0203301N00561007501CN0050001N1+01101+00601999999ADDGA1021+003009089GA2041+007509059GA3081+018009059MA1101591999999MW1051REMMET0053001?
0104348240999991979120318004+46033+038150FM-12+000599999V0202501N00101000301CN0002001N9+00601+00601102851ADDAA199000091AG10000AY141999GA1091+999999999GF109991091999999999999999KA1999M+00801MW1451REMSYN00570008
030972520094823197901152000C+40500-080217SAO  +0347PIT  V0202305N00625045724EN0192005N1-01175-01895103275ADDAA101000095AG10999GD13995+0450099GD24995+0750099GD30995+9999999GD40995+9999999GF108085999999999999999999MA1103011098545MW1001EQDQ01+999990APOSP N01 00000JPWTH 1QNNE11 1 00499E11 1 00699E11 1 00099E11 1 00099G11 1 00150K11 1-00002L11 1 01200M11 1 29100N11 1 00000Q11 1 10327S11 1 00011V11 1 01010X11 1 23012
0070108600999991979112916004+48717+011533FM-15+0365EDSI V0202401N00101220001CN0020001N1+00301+00101999999ADDAG11999GA1031+084009009MA1102611999999MW1101REMMET014YLO FCST: CAN?
0057592110999991979050209004+23917+106617FM-12+017599999V0201401N00101021001CN0250001N9+02501+01601100781ADDAY121999GF107991071081022501999999MD1610311+9999MW1031
0072726405948691979011213004+43117-088050SAO  +0227MWC  V0209991C00001003001WN0040001N1-01101-01431999999ADDAG10999GD15991+0030099GF109991999999999999999999MA1102271999999MW1711
0090999999999991979120900004+31200+029900FM-13+9999E021 V0203201N00311220001CN0200001N9+01831+01601102231ADDAY101999GF103991031011008001001001GJ100009MD1010061+9999MW1021UA1M050059999UG1050103209
0075064700999991979010117254+50800+005200FM-15+0074EBST V0202101N00101220001CN0045001N1-01401-01501999999ADDGA1021+030009039GA2031+060009009MA1102101999999MW1101REMMET010BLACK GRN?
0060024640999991979020317504+59350+017950FM-15+0015ESSB V0201701N00301002101CN0112001N1-00101-00101999999ADDGA1061+002109079MA1097391999999MW1221REMMET011TEMPO 3000?
0131039760999991979021223004+54233-010000FM-12+000999999V0200701N01131011101CN0200001N9+00301-00101098521ADDAY121999GA1041+005109079GA2051+011109059GA3071+027009049GF107991061061004501071999MD1810081+9999MW1011REMSYN01784717 85637 87459
0143357000999991979120803004+47117+051900FM-12-001599999V0202301N00801012001CN0200001N9+00301+00201100681ADDAA199000391AG12000AJ100009199999999AY151999GF107991071081008001051001IA1109IA2999+00109KA1999N+00301MD1710121+9999MW1021REMSYN01179/03 2082,
044972315003812197908140300C+35433-082550SAO  +0652AVL  V02099959000052200059N0160005N1+02005+01785102255ADDAA101000095AG10000GA1999+011284064GA2999+024384034GA3999+999999999GA4999+999999999GD12025+0111099GD22025+0240099GD30005+9999999GD40005+9999999GF104045999051999999031991MA1102441094685MD1110171+9999MW1001REMAWY009117 1530?EQDQ01+999990APOSP N01 00000JPWTH 1QNNE11 1 00202E11 1 00203E11 1 00000E11 1 00000G11U1 99999H11 1 15037H11 1 23080H11 1 00999H11 1 00999K11 1 00064L11 1 01000M11 1 27960N11 1 00000Q11 1 10225S11 1 00068V11 1 00505X11 1 00000
0192870470999991979090400004-24850-065483SY-MT+1221SASA V0203601N00101220001CN0180001N1+01301-00201999999ADDAA106000091AY101999GF100991001001999999001001KA1999M+02201MA1102201088321MD1210391+9999ME1315379MW1021WG199010199999REMSYN01868832 70022 1011.0MET005CAVOKEQDQ01+000000PRSWM2Q02  00003PRCP99
0051107630999991979081501504+49500+011083FM-15+0319EDDN V0200901N00251999991CY0099001N1+01701+01201999999ADDMA1101081999999REMMET005CAVOKEQDQ01+000000PRSWM2
0149236350999991979102706004+63717+066533FM-12+006499999V0209991C00001030001CN0100001N9-01501-01701102351ADDAA199000091AG10000AJ100079199999999AY111999GF106991061001999999031001IA1209IA2999-02109KA1999N-02001MD1210101+9999MW1031REMSYN01770070 99607 27173
0087655940999991979052015004+04750-006817FM-12+000899999V0201801N00211220001CN0300001N9+03001+02401100881ADDAY101999GA1031+004809089GF103991031081004501031001MD1999999-0071MW1031REMSYN00583816
0087037030999991979040620004+51017-004533FM-12+009199999V0209991C00001220001CN0100001N9+00501+00101101341ADDAY101999GA1031+006009089GF103991031011008001001001MD1610031+9999MW1051REMSYN00583820
