0049333460999991980092123004+50350+030917FM-15+0125UKBB V0201801N00411220001CN0022001N1+00901+00901999999ADDMA1102001999999MW1101REMMET016GRADU 1500 10BR?
0182710680999991980111706004+56233-117433SY-SA+0571YPE  V0202301N003012200019N0240001N1-00501-00901100941ADDAA106000091AG14000AY111999GF100991001001999999001001KA1999M+00301KA2999N-00801MA1100611093981MD1110041+9999MW1021REMSYN01169398 40358AWY005104 ?EQDQ01+000003PRSWM2Q02  00003PRCP99
0072727576149161980012321354+47950-097183SAOSP+0257GFK  V0201601N00821002401WN0012001N1+99999+99999999999ADDAG10001GD15991+0024099GF109991999999999999999999MA1100441999999MW1711
030972535014848198008121000C+41700-086317SAO  +0236SBN  V0202205N00215000004WN0001005N1+01835+01785101495ADDAA101000095AG10999GD15995+0001599GD20995+9999999GD30995+9999999GD40995+9999999GF108085999999999999999999MA1101521098715MW1455EQDQ01+999990APOSP N01 07000JPWTH 1QNNE11 1 00799E11 1 00099E11 1 00099E11 1 00099G11 1 00000K11 1 00064L11 1 00006M11 1 29150N11 1 07000Q11 1 10149S11 1 00065V11 1 01010X11 1 22004
0218784820999991980051600004+18200-071067FM-12+001999999V0201301N00621105001CN0240001N9+02501+02201101541ADDAA124999999AY121999GA1011+005409099GA2031+006009059GF105991011091004501061011KA1999M+03001KA2999N+02401MA1999999101381MD1999999+0161MW1031REMSYN04963138 81918 83620 91911 99300 29999 43024 CB    NEQDQ01  99993PRCP99
0130233160999991980092712004+66600+059283FM-12+006799999V0200101N01001001801CN0013001N9-00201-00301101171ADDAA199001091AG10003AY171999GA1071+001809079GF108991999071002501021999MD1210351+9999MW1751REMSYN011701// 87706EQDQ01+000082SCOTLC
0169600350999991980092712004+28450-013867SY-MT+0023GCFV V0200601N00821220001CN0099001N1+02501+01801102121ADDAA106000091AY101999GF100991001001999999001001MA1102101999999MD1210041+9999MW1041UA1M990039999REMSYN011700// 91827MET012CAVOK NOSIG?EQDQ01+000000PRSWM2Q02  00003PRCP99
0067467430999991980120217004+22950+120200FM-15+0016RCNN V0203601N00301220001CN0112001N1+01801+01601999999ADDGA1021+006009059MA1101591999999REMMET0053003?EQDQ01+000000PRSWM2
0315911760225191980042403003+21450-157783SAO  +0003HNG  V0200905N007750137249N0240005N1+02785+02065101735ADDGD12995+0063099GD23995+0135099GD30995+9999999GD40995+9999999GF106995999081999999001991MA1101731101665MD1610101+9999MW1001REMAWY017TCU NW/ 610 1800?EQDN01 00000JPWTH 1QNNE11 1 00299E11 1 00499E11 1 00099E11 1 00099G11 1 00045K11 1 00069L11 1 01500M11 1 30020N11 1 00000Q11 1 10173S11 1 00082V11 1 00899X11 1 09015
0106946530999991980100623004-32133+133700FM-12+002299999V0200701N00151012001CN0500001N9+01401+00501102871ADDAA124000091AA299000291AY121999GF107991071081008001999999KA1999N+00901MD1210151+9999MW1021REMSYN00579209
0057718814999991980100319004+53083-116800SAO  +1393ZDY  V0203001N003612200019N0240001N1-00431-01931999999ADDAG10999GF100991999999999999999999MA1101251999999MW1001
0130726886241301980030906004+44833-117817SAO  +1027BKE  V0203001N002012200019N0240001N1-00101-00271102241ADDAA106000091AG10000GF100991999999999999999999KA1999M+00881MA1102031999999MD1310071+9999MW1001REMAWY007307 48?EQDQ01  00003PRCP99
0114480780999991980011800004+18917+096467FM-12+004799999V0209991C00001220001CN0100001N9+01801+01401101531ADDAA199000091AY101999GF100991001001999999001001KA1999N+99999MD1999999+0111MW1011REMSYN00570022EQDQ01 +02202ATMN  
0109878600999991980022311004-45783-067450SY-MT+0058SAVC V0209991C00001030001CN0250001N1+02002+00101101481ADDAY101999GA1051+030009039GF106991051001999999051061MA1101491999999MD1810011+9999MW1041REMSYN01285360 1014,6
0064374390999991980010209004+42117+044967FM-12+109199999V0201401N00101036001CN0200001N9+00401-00101999999ADDAG11000AY121999GF106991041051017501031001MD1810021+9999MW1011
0043021560999991980052609004+65300+020217FM-12+025099999V0200501N00671004201CN0200001N9+00801+00301999999ADDAY121999GF108991051051004501081071MW1031
048572635094860198009301800C+42883-085517SY-SA+0239GRR  V0202305N00625220005CN0240005N9+02505+01285101365ADDAA101000095AG12000AY101999GA1999+076204004GA2999+999999999GA3999+999999999GA4999+999999999GD11025+9999993GD20005+9999999GD30005+9999999GD40005+9999999GF102005001001999999001991KA1999M+02501KA2999N+01001MA1101391098485MD1710101+9999MW1021REMSYN01169848 47750EQDQ01+999990APOA  N01 00000JPWTH 1QNNE11 1 00102E11 1 00000E11 1 00000E11 1 00000G11U1 99999H11 1 32250H11 1 00999H11 1 00999H11 1 00999K11 1 00055L11 1 01500M11 1 29080N11 1 00000Q11 1 10136S11 1 00077V11 1 00200X11 1 23012
0064160990999991980031420504+45650+012183FM-15+0018LIPH V0200401N00871006001CN0032001N1+00701+00501999999ADDGA1041+002109079GA2051+006009059MA1100811999999MW1631OC102001
0071402700999991980031609004+31983+035983FM-12+0767OJAM V0201701N00511220001CN0100001N9+01401+00501101611ADDGF100991001001999999001001MD1810121+9999WG199990599999REMSYN00519261
0109032450999991980031522004+54967-001617FM-12+004799999V0201901N00101006001CN0060001N9+00301+00101102571ADDAY161999GA1031+002409079GA2081+006009059GF108991081051002501999999MD1110011+9999MW1211REMSYN01183708 88620
0235719640999991980041406004+60717-135067SY-SA+0702YXY  V0201501N005112200019N0640001N1+00101-00601101131ADDAA106000091AG14000AY101999GD12991+0150099GD22991+0420099GD32991+0750093GF102991011041017501041011KA1999M+00601KA2999N-00101MA1100811092701MD1710071+9999MW1011REMSYN01169270 40651AWY013SC1AC1CI 707?EQDQ01+000003PRSWM2Q02  00003PRCP99
0111725905232751980051415004+39133-123200SAO  +0189UKI  V0200201N003012200019N0320001N1+01111+00561101481ADDAG10000GD12991+0087099GF102991999999999999999999MA1101491999999MD1310071+9999MW1001REMAWY016307 E RDG OBSCD?
0109616950999991980112403004+12550-016267FM-12+0023GOGG V0203201N00211039001CN0100001N9+02401+02201101231ADDAY121999GA1061+039009039GA2051+069009009GF108991061001999999071021MD1999999+0111MW1021REMSYN01186363 85073
005372360023051198001242300D+36450-103150SAO  +1515CAO  V0200701N003619999999N9999999N9+01561-00711999999ADDAA101000095AG10999REMAWY004000?EQDQ01+000002VOVAR 
0057722405139761980053005004+30200-092000SAO  +0013LFT  V0201501N002012200019N0096001N1+02331+02281101591ADDAG10999GF100991999999999999999999MA1101591999999MW1051
0141999999999991980051006004+37700+134300FM-13+0000JPVB V0202201N009819999999N0200001N9+01341+01301100881ADDAY111999GF108991001001999999001021MD1710111+9999MW1031SA1+1269UA1M030109999UG1990009999REMSYN0230//13 11264 30302 00/00EQDQ01+000082SCOTLC
0024471270432161980021115004+36950+127033FM-15+0014RKSG V0209991C00001220001CN0112001N1-00601-01001999999ADDMA1102841999999MW1001
0057590230999991980040203004+24700+108050FM-12+021499999V0200701N00101036001CN0110001N9+01601+01001102141ADDAY121999GF108991081001999999071999MD1810081+9999MW1031
044972655014926198008182100C+45550-094067SAO  +0313STC  V0201805N00575009144EN0320005N1+02785+02225100815ADDAA101000095AG10000GA1999+009144064GA2999+999999999GA3999+999999999GA4999+999999999GD13065+0090099GD20005+9999999GD30005+9999999GD40005+9999999GF106065999051999999001991MA1100811097165MD1710191+9999MW1001REMAWY009719 1500?EQDQ01+999990APOSP N01 00000JPWTH 1QNNE11 1 00407E11 1 00000E11 1 00000E11 1 00000G11 1 00030H11 1 15030H11 1 00999H11 1 00999H11 1 00999K11 1 00072L11 1 02000M11 1 28690N11 1 00000Q11 1 10081S11 1 00082V11 1 00707X11 1 18011
0036167464332091980071212004+35533+024150FM-15+0146KQNC V0200801N00411220001CN0100001N9+03701+01301999999ADDMA1100681999999MW1001REMMET003400
0051162040999991980032006004+42900+011767FM-15+0896LIQR V0201801N00661000151CN0000001N1+99999+99999999999ADDGA1091+000159999MW1451REMMET017MON VAL INVIS NC?
0121572900999991980011018004+32967+114050FM-12+008599999V0200701N00301036001CN0100001N9-00101-00501103091ADDAA106000091AG14000AY121999GF108991081001999999021999KA1999M+00101MD1710081+9999MW1031REMSYN005/0001EQDQ01  00003PRCP99
0091108660999991980050805004+48133+011717FM-15+0529EDDM V0201301N00151075001CN0080001N1+00801+00701999999ADDAG11999GA1031+036009039GA2031+075009009MA1100511999999REMMET006NOSIG?EQDQ01+000000PRSWM2
0087722570039331980010723004+31150-097717SAO  +0283HLR  V0200201N002510750019N0240001N1+00671-00601999999ADDAG10999GD12991+0450099GD23991+0750099GF107991999999999999999999MA1101731999999MW1001
0057450110999991980033003004+22200+113533FM-12+0057VMMC V0201301N00311002101CN0100001N9+02201+02101101601ADDAY121999GF108991081051002501999999MD1999999-0021MW1101
0120173000999991980082021004+36900+030783SY-MT+0050LTAI V0203001N00101220001CN0200001N1+02401+01801100911ADDGF101991011001999999031001MA1100911999999MD1210111+9999MW1011REMMET012CAVOK NOSIG?EQDQ01+000000PRSWM2Q02+000072PSTWM1
0119786270999991980050621004+15317-091467SY-MT+1901MGHT V0209991C00001105001CN0400001N1+02601+01201999999ADDAY121999GA1031+007509089GF108991031021008001001071MW1031REMSYN01783825 88270 9910/MET009TCU N/SE?EQDQ01+000000PRSWM2
0087033430999991980120614004+53650-001833FM-12+023299999V0203201N00721220001CN0300001N9+00301+00101101171ADDAY101999GA1021+012009059GF102991021051012501001011MD1210121+9999MW1031REMSYN00582640
0080723085137501980021714004+36933-076283SAO  +0005NGU  V0203601N007712200019N0112001N1-00211-01161101551ADDAG10999GD12991+0060099GF102991999999999999999999MA1101561999999MW1001OC100971
0113264060999991980082509004+56517+021017FM-12+000899999V0202601N00301075001CN0170001N9+01501+01201100911ADDAG12000AY121999GA1041+007509099GF107991041091008001001021MD1210081+9999MW1021UA1M990199999REMSYN01184925 91847
0095680320999991980010315004-19983+023417FM-12+090099999V0200201N00211220001CN0700001N9+03501+01201999999ADDAY121999GF106991031021012501001041MA1999999090691MD1610231+9999ME1315789MW1051REMSYN00569069
0072722686230081980071901004+34383-103317SAO  +1309CVS  V0201701N004612200019N0480001N1+03391+00721100831ADDAG10999GD12991+0750099GF102991999999999999999999MA1101591999999MW1001
0047103350999991980090417004+52283+009083FM-15+0070EDCB V0209991C00001220001CN0045001N1+01901+01301999999ADDAG12999GA1021+105009009MA1101591999999MW1051
0087077470999991980122609004+42733+002867FM-12+0043LFMP V0203201N00821010501CN0500001N9+00901+00101102921ADDAY181999GA1061+010509089GF106991061021012501041021MD1310031+9999MW1251REMSYN00586835
008772583024128198008200700D+40900-117800SAO  +1312WMC  V0201601N003012200019N0480001N1+01281+00061101711ADDAA101000095AG10999GF100991999999999999999999MA1102031087121MW1001EQDQ01+999990APOSP 
0101781030999991980041612004+22600-074350FM-12+000499999V0200201N00511004201CN0090001N9+02301+02201101751ADDAA199038091AY161999GF108991061091004501001031MD1999999+0081MW1951UA1M990039999REMSYN01173818 90802
053072434013994198011131200C+38750-090367SY-SA+0163STL  V0201605N00315030484EN0160005N1+00895-00285102105ADDAA101000095AA206000091AG14000AY101999GA1999+030484034GA2999+999999999GA3999+999999999GA4999+999999999GD13065+0300099GD20005+9999999GD30005+9999999GD40005+9999999GF106055061001999999071991KA1999M+01611KA2999N+00501MA1102101100035MD1110031+9999MW1031REMSYN01163003 46141AWY012103 1070 41?EQDQ01+000003PRSWM2Q02  00003PRCP99N01 00000JPWTH 1QNNE11 1 00407E11 1 00000E11 1 00000E11 1 00000G11 1 00100H11 1 23100H11 1 00999H11 1 00999H11 1 00999K11 1 00027L11 1 01000M11 1 29540N11 1 00000Q11 1 10210S11 1 00048V11 1 00706X11 1 16006
0072724115999991980031616004+37950-079817SAO  +1155HSP  V0202201N002512200019N0480001N1+00781-00211999999ADDAG10999GD12991+0750099GF102991999999999999999999MA1102881999999MW1001
0050760051999991980050217004+32617-115267SAO  +0022MXL  V0203001N005112200019N0240001N1+02401+01601999999ADDGF100991999999999999999999MA1101521999999MW1001
027872301113748198011012000C+34267-077900SAO  +0009ILM  V0202905N004652200059N0160005N1+02175+00225101565ADDAA101000095AG10999GD10995+9999999GD20995+9999999GD30995+9999999GF100005999999999999999999MA1101561101425MW1001EQDN01 00000JPWTH 1QNNE11 1 00099E11 1 00099E11 1 00099E11 1 00099G11U1 99999K11 1 00036L11 1 01000M11 1 29950N11 1 00000Q11 1 10156S11 1 00071V11 1 00000X11 1 29009
0135467570999991980012106004+24800+120967FM-12+003399999V0200401N00511012001CN0140001N9+01601+00601101951ADDAA106000091AY121999GA1081+012009059GF108991081051012501999999MD1710241+9999MW1021REMSYN02340099 88640 9//24 00000EQDQ01  00003PRCP99
0118555780999991980092809004+29217+088917FM-12+383799999V0202201N00101220001CN0300001N9+01901+00101999999ADDAG12000AY101999GF102991021011999999001001MA1999999063751MD1710281+9999MW1021REMSYN01166375 00000EQDQ01+000992SCOLCB
0064239870999991980120606004+60250+090233FM-12+005899999V0201101N00201030001CN0040001N9-01201-01401101941ADDAG12001AY171999GF108991021071004501021999MD1310061+9999MW1711
046672535014848198007200600C+41700-086317SY-SA+0236SBN  V0202005N00625027434EN0112005N1+02945+02065101455ADDAA101000095AA206000091AA324012091AG10000AY121999GA1999+027434034GD14085+0270099GD20995+9999999GD30995+9999999GD40995+9999999GF108085081001999999071999KA1999M+03171KA2999N+02441MA1101521098715MD1310031+9999MW1021REMSYN01769871 20048 48976AWY012303 107/ 89?EQDQ01+000003PRSWM2Q02  01203PRCP99N01 00000JPWTH 1QNNE11 1 00610E11 1 00099E11 1 00099E11 1 00099G11 1 00090H11 1 23090K11 1 00069L11 1 00700M11 1 29150N11 1 00000Q11 1 10145S11 1 00085V11 1 01010X11 1 20012
0057477350999991980112606004+34783+139367FM-15+0039RJTO V0200901N00251999991CY0099001N1+02001+00601999999ADDMA1100911999999REMMET011CAVOK 2982?EQDQ01+000000PRSWM2
0056025500999991980110920504+57767+014083FM-15+0226ESSJ V0203401N00611009001CN0112001N1-00101-00401999999ADDGA1031+004509059GA2061+009009059MA1100611999999MW1701
0106723346038111980012922004+35600-088917SAO  +0132MKL  V0203601N00301024001EN0144001N1-00101-00931102931ADDAG10999GD13991+0240099GD24991+0750099GF108991999999999999999999MA1102881999999MW1001REMAWY010BINOVC SE?
0084070100999991980021915004+51050+002333FM-12+000699999V0201201N00621220001CN0060001N9+00801+00101101691ADDAY121999GF106991001001999999001061MD1610141+9999MW1021UA1M990039999REMSYN00591826
0117718915999991980121215004+49267-121217SAO  +0678WKV  V0201401N001512200019N0064001N1+00101+00101999999ADDAG10000GD12991+0045099GD22991+0090099GD32991+0240099GF102991999999999999999999MW1451REMAWY021SF1SF1AC2 VSBY E 10 ?
0120718171999991980060219004+52250-055600SAO  +0005WBF  V0203401N01281003001EN0064001N1+00201+00101101361ADDAG10999GD14991+0030099GF108991999999999999999999MA1101351101231MW1451MW2611OC101801REMAWY006ST10 ?EQDQ01+999990APOSP 
0064151890999991980122109004+46233+024600FM-12+031899999V0209991C00001220001CN0007001N9+00101+00101100141ADDAG11000AY111999GF106991021001999999041081MD1210061+9999MW1021
0057724475939091980111601004+38817-094883SAO  +0331IXD  V0203501N002512200019N0160001N1+00111+99999999999ADDAG10999GF100991999999999999999999MA1102911999999MW1001
0051845150999991980062607004-08367-074583FM-15+0148SPCL V0209991C00001999991CY0099001N1+02201+02201999999ADDMA1101391999999REMMET005CAVOKEQDQ01+000000PRSWM2
009872566024028198008251300D+41867-103600SAO  +1209BFF  V0201101N00151030001EN0400001N1+01891+01441101151ADDAA101000095AG10999GD13991+0300099GD24991+0750099GF108991999999999999999999MA1101661999999MW1001
0063722345038661980060111004+32550-088567SAO  +0097NMM  V0209991C000012200019N0040001N1+01671+01611101701ADDAG10999GF100991999999999999999999MA1101861999999MW1051MW2111
0135578160999991980111912004+26583+106717FM-12+107499999V0201601N00201004201CN0160001N9+01201+01101101871ADDAA106010091AG10002AY191999GF108991081091004501999999MA1999999089681MD1210241+9999MW1801REMSYN01768968 /10// 00055EQDQ01  01003PRCP99
0122717990999991980012917004+48650-123433SAO  +0019YYJ  V0203001N002512200019N0640001N1-00601-01901102231ADDAG10999GD12991+0510099GD22991+0840093GF102991999999999999999999MA1102201101961MW1001REMAWY007AC1CI ?EQDQ01+999990APOSP 
0057483790999991980012309004+16433+101150FM-12+011699999V0209991C00001220001CN0060001N9+03201+01201100821ADDAY101999GF103991031041012501001051MD1999999-0131MW1051
032872243012960198006181300C+29967-095350SAO  +0029IAH  V0201905N002152200059N0160005N1+02785+02395101605ADDAA101000095AG10999GD11995+0750093GD20995+9999999GD30995+9999999GD40995+9999999GF101005999999999999999999MA1101631101255MW1001REMAWY010FEW CU SC?EQDQ01+999990APOSP N01 00000JPWTH 1QNNE11 1 00199E11 1 00099E11 1 00099E11 1 00099G11U1 99999K11 1 00075L11 1 01000M11 1 29900N11 1 00000Q11 1 10160S11 1 00082V11 1 00100X11 1 19004
0075106070999991980081003004+49983+006700FM-15+0365EDAD V0209991C000010003019N0004001N1+01201+01201999999ADDAG12000ED199U02749GA1091+000309999MA1102001999999MW1451REMMET008CIGW001?
0102726228999991980091316004+44383-074200SAO  +0506SLK  V0209991C000010120019N0240001N1+01111+00891999999ADDAG10999GD12991+0045099GD23991+0120099GD34991+0240099GF108991999999999999999999MA1102401999999MW1001
0071408480999991980021812004+29533+052583FM-12+1497OIAS V0209999999999012001CN0060001N9+00302+00201101481ADDAY181999GF108991061031012501021001MD1510101+9999MW1831REMSYN00561455
0055682620999991980051200004-25733+028183FM-12+130099999V0209991C000019999999N9999999N9+00901+00301999999ADDMA1999999087631MD1710071+9999ME1315489REMSYN00568763
0057961790999991980032815004-00483+104583FM-12+0031WIPS V0200501N00311045001CN0120001N9+02701+02501101221ADDAY121999GF107991031021004501051061MW1021REMSYN0057////
0102360610999991980100512004+52250+087100FM-12+032299999V0200601N00101220001CN0500001N9+00401-00101102371ADDAA199000091AG10000AY111999GF104991041041012501001001KA1999M+00701MD1610021+9999MW1021REMSYN00570007
0085070900999991980101816004+49083+006133FM-15+0190LFSF V0203001N00511009901CN0112001N1+00901+00501999999ADDGA1021+006009089GA2041+009909059GA3061+030009039MA1100711999999EQDQ01+000000PRSWM2
0104999999999991980111606004-16800+152000FM-13+0000ZCSL V0201201N00821220001CN0200001N9+02901+02201100971ADDAY101999GF103991031021008001001001MD1610191+9999MW1031SA1+2609UA1M040159999REMSYN0170//22 12600 30403
0123718310999991980110917004+49417-082467SAO  +0229YYU  V0203601N005110021019N0012001N1-00501-00601099671ADDAG10999GD15991+0021099GF109991999999999999999999MA1099531096871MW1711REMAWY023S10 LGT DRFTG SNW/SO3/?EQDQ01+999990APOSP 
0145724125999991980020818004+37300-081217SAO  +0871BLF  V0200601N00201075001EN0112001N1-00211-00821102981ADDAA106000091AG10000GD14991+0750099GF108991999999999999999999KA1999N-01001MA1102611999999MD1810141+9999MW1001REMAWY007814 14?EQDQ01  00003PRCP99
0057724040137211980021101004+38283-076417SAO  +0014NHK  V0202601N002012200019N0112001N1-00381-00931101531ADDAG10999GF100991999999999999999999MA1101521999999MW1001
0072727576149161980121505004+47950-097183SAO  +0257GFK  V0201801N00411036001EN0240001N1-00991-01211101771ADDAG10999GD14991+0360099GF108991999999999999999999MA1101591999999MW1001
0211719270999991980050312004+68667-097800SY-SA+0023YUR  V0201001N009212200019N0240001N1-01701-01901102461ADDAA106000091AG14000AJ100269199999999AY101999GF100991001001999999001001KA1999M-00801KA2999N-01801MA1102441102271MD1810071+9999MW1021REMSYN01763227 90426 45868AWY011807 -9000-?EQDQ01+000003PRSWM2Q02  00003PRCP99
0170076350999991980052318004+43217+002317FM-12+0130LFMK V0202801N00721015001CN0050001N9+01401+01101101511ADDAA199002091AY181999GA1011+001509079GA2041+007809089GA3071+015009059GA4021+006009099GF108991071091001501999999MD1310101+9999MW1251REMSYN02970218 81705 84826 87650 82920
0072722725999991980051210004+32250-107700SAO  +1315DMN  V0202401N005112200019N0400001N1+01061-00161101121ADDAG10999GD12991+0150093GF102991999999999999999999MA1101631999999MW1001
0089471820999991980090408004+33500+126500FM-15+0038RKPC V0200501N00251060001CN0070001N1+02801+02401999999ADDGA1011+007509089GA2011+045009039GA3061+060009029MA1100911999999MW1061REMMET0082979INS?
008372574024027198003270700D+41600-109067SAO  +2058RKS  V0201701N003612200019N0240001N1-00491-01051101461ADDAA101000095AG10999GD12991+0600099GF102991999999999999999999MA1101121999999MW1001
0134432950999991980062518004+12967+077583FM-12+092199999V0202301N00151220001CN0040001N9+02201+01901999999ADDAA199000091AY121999GA1041+005409059GF104991041051004501001001MA1999999090831MD1999999-0141ME1314939MW1021REMSYN01769083 84618 40050
0010719495999991980051207004+62217-133367SAO  +0717WST  V02099999999999999999N9999999N9+99999+99999999999ADDAG10999
0067727580999991980021623004+48100-098867SAO  +0443P11  V0203001N007719999999N9999999N9-01161-01601999999ADDAG10999MA1102001999999REMAWY014PK WND 20 000?EQDQ01+000002VOVAR 
044972528014733198006051500C+42933-078733SAO  +0215BUF  V0202705N001552200059N0240005N1+01615+00445102295ADDAA101000095AG10000GA1999+073154024GA2999+999999999GA3999+999999999GA4999+999999999GD13055+0720093GD20005+9999999GD30005+9999999GD40005+9999999GF105025999001999999001991MA1102301099735MD1610081+9999MW1001REMAWY009608 1008?EQDQ01+999990APOSP N01 00000JPWTH 1QNNE11 1 00306E11 1 00000E11 1 00000E11 1 00000G11U1 99999H11 1 37240H11 1 00999H11 1 00999H11 1 00999K11 1 00040L11 1 01500M11 1 29450N11 1 00000Q11 1 10229S11 1 00061V11 1 00603X11 1 27003
0087063800999991980111401004+50917+005767FM-12+0114EHBK V0202201N00621015001CN0110001N9+00501+00201102081ADDAY121999GA1081+015009059GF108991081051017501999999MD1010021+9999MW1051REMSYN00588650
0057010530999991980122809004+70683+023683FM-12+0070ENHF V0202001N01441004201CN0020001N9-00901-01001098021ADDAY131999GF105991051011004501071001MD1510531+9999MW1371
0076064580999991980022005004+50750+004767FM-12+0105EBBE V0201001N99999220001CN0100001N9-00101-00301101941ADDAY101999GF100991001001999999001001MD1510001+9999MW1021EQDQ01+004533WOSPD 
054572532014842198011061800C+40667-089683SY-SA+0199PIA  V0202105N007252200059N0240005N1+01675+00445100995ADDAA101000095AA206000091AG14000AY101999GA1999+076204004GA2999+999999999GA3999+999999999GA4999+999999999GD10005+9999999GD20005+9999999GD30005+9999999GF100005001001999999001999KA1999M+01671KA2999N-00171MA1100951098585MD1710271+9999MW1021OC101021REMSYN01169856 46229AWY018CI N/ 727 1005 29?EQDQ01+000052SCOHCGQ02+000003PRSWM2Q03  00003PRCP99N01 00000JPWTH 1QNNE11 1 00000E11 1 00000E11 1 00000E11 1 00000G11U1 99999H11 1 32250H11 1 00999H11 1 00999H11 1 00999K11 1 00040L11 1 01500M11 1 29110N11 1 00000Q11 1 10099S11 1 00062V11 1 00000X11 1 21014
0123718610999991980041121004+50383-102583SAO  +0599WIK  V0203501N006612200019N0240001N1+00901-00501102801ADDAG10000GD12991+0135099GF102991999999999999999999MA1102541095451MD1810051+9999MW1001REMAWY009CU3 805 ?EQDQ01+999990APOSP 
0166478550999991980070503004+32917+129917FM-15+0006RJFU V0201401N00721010501CN0112001N1+02801+02201999999ADDGA1061+010509089GA2081+039009049MA1100201999999REMMET0882960 FCST 0309 TEMPO 0306          ?     6000 60RA GRADU 0609 23015/25 5000 61RA 5CU025?EQDQ01+000000PRSWM2
006872344013964198006240800D+35333-094367SAO  +0142FSM  V0201101N001012200019N0160001N1+02331+02171100911ADDAA101000095AG10999GF100991999999999999999999MA1100981999999MW1001
0083310160999991980112503004+58667+128500FM-12+013099999V0209991C00001220001CN0500001N9-02601-03701101181ADDAG11000AY121999GF106991001001999999001011MD1810541+9999MW1021EQDQ01+000742APC3  
0076716300999991980020310004+44967-079300SAO  +0282YQA  V0203201N005112200019N0240001N1-02001-02501102491ADDAG10999GF100991999999999999999999MA1102241098871MW1001EQDQ01+999990APOSP 
0050111190999991980091318004+47333+011200FM-12+120499999V0209991C00001220001CN0030001N9+00001+99999999999ADDAG12000AY151999GF102991999999999999999999MW1701
009872467523063198002042000D+39650-106917SAO  +1985EGE  V0202501N00201015001EN0480001N1+00611-00271102251ADDAA101000095AG10999GD13991+0150099GD23991+0240099GF107991999999999999999999MA1102371999999MW1001
0085105420999991980050805004+50867+009700AERO +021299999V0202201N00051012001CN0045001N9+00501+00301999999ADDAG10999AY121999GA1061+012009059GF106991999999999999999999MW1101EQDQ01+000003PRSWM2
0072875440999991980091413004-35850-061867FM-12+0086SAZP V0201801N01541090001CN0080001N9+00901+00401102001ADDAY121999GF105991011051004501071061MD1210351+9999MW1071REMSYN0061019.7
0091106100999991980112504004+49950+006567FM-15+0374EDAB V0202301N005110006019N0018001N1+00701+00601999999ADDAG11999ED199U16459GA1051+000159999GA2081+000609079MA1101631999999MW1511REMMET008CIGM002?
0111400660999991980042418004+34817+036133FM-12+035399999V0202501N00621007801CN0200001N9+01201+01101101361ADDAA199000091AY121999GA1071+007809059GF107991071051008001001001KA1999M+01901MD1310151+9999MW1021REMSYN00570019
0074108450999991980031911004+48433+010233FM-15+0477EDSD V0200301N00251066001CN0035001N1+01101+00101999999ADDAG11999GA1051+066009009MA1100811999999MW1051REMMET018YLO YLO GRADU GRN?
0069823320999991980021319004-03150-059983FM-15+0084SBMN V0200401N00101090001CN0112001N1+03101+02301999999ADDGA1031+006009089GA2061+090009009MA1100811999999EQDQ01+000000PRSWM2
0058073350999991980092304004+46583+000317FM-15+0129LFBI V0201601N00251999991CY0099001N1+01001+00801999999ADDMA1102201999999REMMET012CAVOK NOSIG?EQDQ01+000000PRSWM2
0072724398999991980042317004+40200-087600SAO  +0212DNV  V0200101N010212200019N0240001N1+99999+99999999999ADDAG10999GD12991+0600093GF102991999999999999999999MA1101391999999MW1001
0113856820999991980051020004-36767-073067FM-15+0009SCIE V0203201N00511021001CN0112001N1+01401+01101101241ADDGA1021+009009059GA2081+021009039MA1101191101071REMMET00385?EQDQ01+999990APOSP Q02+999990APOSLPQ03+000000PRSWM2
0057029010999991980102103004+63733+022583FM-12+001099999V0202701N00821220001CN0250001N9+00501+00101100331ADDAY111999GF101991011001022501041001MD1710071+9999MW1011
0102726225047421980013117004+44650-073467SAO  +0072PBG  V0203501N00411010501EN0400001N1-01271-02431999999ADDAG10999GD13991+0105099GD23991+0540099GF107991999999999999999999MA1101861999999MW1001REMAWY006SWU W?
0123711880999991980090811004+48767-064483SAO  +0033YGP  V0209991C000010330019N0240001N1+00601+00501100771ADDAG10999GD12991+0150099GD23991+0330099GF107991999999999999999999MA1100781100381MW1001REMAWY008SC2AC4 ?EQDQ01+999990APOSP 
0127062900999991980041801004+52267+006900SY-MT+0035EHTW V0202901N00151220001CN0150001N1+00501+00301101841ADDAY111999GF103991011051004501031001MA1101801999999MD1810071+9999MW1011REMSYN01181612 83359MET010CAVOK BLU?EQDQ01+000000PRSWM2
0038072880999991980052814004+47250+005983FM-15+030799999V0203401N00101007501CN0112001N1+99999+99999999999ADDGA1061+007509089EQDQ01+000000PRSWM2
0085702120266331980091422004+61783-166033SAO  +0139PACZ V0202001N00251000301WN0002001N1+00891+00891101221ADDGD15991+0003099GF109991999999999999999999MA1101151999999MW1451MW2611REMAWY005WR//?
0148535290999991980012306004+39100+107983FM-12+138199999V0202901N00501220001CN0300001N9+00101-02001102441ADDAA106000091AG10000AY111999GF101991001001999999001021KA1999N-01801MA1999999086071MD1710211+9999MW1011REMSYN01768607 /0068 05200EQDQ01  00003PRCP99
0057722785231111980111405004+33550-112367SAO  +0336LUF  V0209991C000012200019N0320001N1+01561+00111101571ADDAG10999GF100991999999999999999999MA1101661999999MW1001
0302702710264251980052921003+62150-145450SAO  +0481GKN  V0202205N003652200059N0640005N1+01505-00175101935ADDGD12995+0210099GD21995+0450093GD30995+9999999GD40995+9999999GF103025999999999999999999MA1101831096175MD1710101+9999MW1001REMAWY004710?EQDN01 00000JPWTH 1QNNE11 1 00299E11 1 00199E11 1 00099E11 1 00099G11U1 99999K11 1 00029L11 1 04000M11 1 28400N11 1 00000Q11 1 10193S11 1 00059V11 1 00402X11 1 22007
0102319700999991980032221004+42833+131917FM-12+012199999V0200701N00101220001CN0500001N9-00701-01001101751ADDAA199000091AG14000AY101999GF100991001001999999001001KA1999M-00701MD1210051+9999MW1021REMSYN00570057
0114999999999991980122100004+51100-003900FM-13+0000SHIP V0202801N019019999999N0200001N9+01001+99999099131ADDAY121999GA1091+999999999GF109991091999999999999999MD1210501+9999MW1021SA1+1009UA1M050259999REMSYN01111000 30505
0081919380999991980072909004-17550-149617FM-12+0002NTAA V0200401N00461220001CN0200001N9+02501+02001101271ADDAA199000091AY181999GF104991031081008001031001KA1999M+02801MW1031REMSYN00579128
0069025500999991980062407504+57767+014083FM-15+0226ESSJ V0202101N00301006001CN0112001N1+01201+00901999999ADDGA1021+003609089GA2031+006009089MA1100511999999EQDQ01+000000PRSWM2
0078155260999991980031215004+43417+024600FM-12+007199999V0209991C00001220001CN0060001N9+01001-00101101931ADDAG11000AY111999GF102991021011008001001001MD1710081+9999MW1051WG199060099999
0095684610999991980122112004-28250+028333FM-12+168199999V0202701N00311012001CN0300001N9+02301+01501999999ADDAY121999GF106991051021012501001041MA1999999083091MD1810031+9999ME1315059MW1011REMSYN00568309
0099570060999991980040409004+34583+105750FM-12+113299999V0202901N00701036001CN0100001N9+02101-00601100291ADDAG12000AY121999GF107991071001999999031999MA1999999087811MD1710131+9999MW1031REMSYN01168781 00200
012572679724132198005290900D+45783-111150SAO  +1360BZN  V0201201N002512200019N0240001N1+00391+00111101451ADDAA101000095AG10000GD12991+0300099GD23991+0600093GF107991999999999999999999MA1101491999999MD1410001+9999MW1001REMAWY004400?
0122999999999991980092706004-06000+077600FM-13+0000GOQX V0209991C00001220001CN0500001N9+02901+02201101391ADDAY101999GF101991011011004501001051MD1810041+9999MW1011SA1+2799UA1M000009999UG1070051609REMSYN0230//22 12790 30000 16701
0230108660999991980111806004+48133+011717SY-MT+0529EDDM V0202501N00411075001CN0750001N1+00401+00001101321ADDAA199000091AG10000AY121999GA1011+015009059GA2041+024009039GA3051+075009009GF106991021999022501031021KA1999N+00301MA1101191999999MD1310161+9999MW1011REMSYN01770003 82358 85075MET012CAVOK NOSIG?EQDQ01+000002SCOLCGQ02+000000PRSWM2
0119067000999991980120503504+46250+006133FM-15+0416LSGG V0200901N00201030001CN0112001N1+00101-00601101371ADDGA1031+010509059GA2041+030009039MA1101191096291MW1261REMMET019NOSIG233021      ??EQDQ01+999990APOSP Q02+999990APOSLP
0102346220999991980072318004+47800+038500FM-12+017299999V0209991C00001220001CN0200001N9+02701+01001100621ADDAA199000091AG10000AY101999GF100991001001999999001001KA1999M+03201MD1610041+9999MW1021REMSYN00570032
0083475730433181980081906004+37950+139117FM-15+0001RJSN V0202801N00561030001CN0112001N1+02601+02101999999ADDGA1021+007509089GA2061+030009039MA1101021999999REMMET0052983?EQDQ01+000000PRSWM2
0057724936232541980052302004+37983-122050SAO  +0018CCR  V0202601N009212200019N0320001N1+99999+99999999999ADDAG10999GF100991999999999999999999MA1101491999999MW1001
0086479300999991980052610004+26200+127650FM-15+0004ROAH V0203501N01181003001CN0112001N1+02301+02001999999ADDGA1051+003009089GA2061+007509059GA3081+024009049MA1100911999999MW1801REMMET0052980?
0145404280999991980021900004+25267+051550SY-MT+0011OTBD V0203301N00561220001CN0099001N1+01501+00901101721ADDAY101999GA1021+066009009GF102991001001999999001011MA1101691999999MD1999999+0681MW1021REMSYN01182072 90668MET012CAVOK NOSIG?EQDQ01+000000PRSWM2
0142719360999991980080310004+62467-114450SAO  +0205YZF  V0201701N002010660019N0240001N1+01601+01201100381ADDAG10999GD12991+0105099GD22991+0360099GD33991+0660099GF107991999999999999999999MA1100341097911MW1001REMAWY012SC2 AC2 CI2?EQDQ01+999990APOSP 
0130722636930421980020612004+36017-102550SAO  +1216DHT  V0209991C000012200019N0240001N1-00271-00491102011ADDAA106000091AG10000GF100991999999999999999999KA1999N-00281MA1102031999999MD1610191+9999MW1001REMAWY007619 27?EQDQ01  00003PRCP99
0140162160999991980022112004+42433+012067FM-15+0303LIRV V0200501N00561999991CY0099001N1+99999+99999999999REMMET112CAVOK 3AC070 4AS100 08/M00 BKN MON E SE LIB          ?LIRZ 1200 04012 CAVOK 1AC090 4CS200 09/M01 BKN MON LIB NC?EQDQ01+000000PRSWM2
0095684420999991980032818004-29100+026300FM-12+1400FABL V0209991C00001220001CN0500001N9+02201+01001999999ADDAY101999GF102991011001999999061011MA1999999086391MD1510021+9999ME1315399MW1041REMSYN00568639
0064247680999991980020521004+62033+132600FM-12+017999999V0209991C00001030001CN0200001N9-03701-04001104191ADDAG11000AY121999GF108991051001999999051051MD1710071+9999MW1031
0131031350999991980081803004+55500-004583FM-12+0020EGPK V0202401N00821007801CN0150001N9+01401+01301101131ADDAY161999GA1011+003309079GA2041+004809089GA3061+007809059GF108991081081004501999999MD1310041+9999MW1601REMSYN01781711 84816 86626
0179718960999991980101722004+53883-122667SAO  +0691YXS  V0201701N002512200019N0320001N1+01201+00401101751ADDAG10999GD12991+0150099GD22991+0300099GD32991+0480093GD43991+0660093GF107991999999999999999999MA1101521093471MW1001REMAWY034CU1        ?AC1AC      ?    2CC2 ?EQDQ01+999990APOSP 
0112012050999991980101012004+62333+005267FM-12+003999999V0202301N00411030001CN0750001N9+01001+00601098891ADDAA106000091AA299000291AY181999GF107991031091008001071999MD1210231+9999MW1151UA1M990199999REMSYN011792// 91443
0064508340999991980100121004+46600+121233FM-12+050199999V0202701N00201220001CN0300001N9+00201-00301101571ADDAG12000AY101999GF100991001001999999001001MD1210081+9999MW1021
0123064070999991980013013004+51200+002867FM-12+0004EBOS V0202401N00931060001CN0080001N9+00901+00701100531ADDAY121999GA1021+004509059GA2051+060009019GF107991021051004501001091MD1810091+9999MW1021WG199260099999REMSYN01182615 85170
0094342620999991980100415004+50800+044550FM-12+011699999V0200201N00101014101CN0100001N9+99999+99999101951ADDAG11000AY121999GA1081+014109059GF108991081051012501999999MD1410001+9999MW1021REMSYN00588647
0082442720999991980042106004+47750+096850FM-12+175399999V0203601N00801007501CN0200001N9+00201+99999102121ADDAY131999GF106991051021008001041001MD1110021+9999MW1311OA199901201REMSYN00591112
0130862480999991980090123004-25533-054600FM-12+0196SGPS V0209991C000019999999N0050001N9+02701+02101100961ADDAA106000091AY141999GF107991001001999999011999KA1999N+99999MD1310121+9999MW1051REMSYN00570032EQDQ01  00003PRCP99Q02 +03202ATMN  
0085999999999991980041312004-03600-025500FM-13+0000SQES V0201001N00311220001CN0500001N9+02901+02301101251ADDAY101999GF103991011011004501031001MD1210281+9999MW1011SA1+2809REMSYN01100223 12800
0082786410999991980080123154+14583-090517FM-16+1489MGGT V0209991C00001004501CN0112001N1+99999+99999999999ADDGA1031+001809079GA2041+004509059GA3011+006009099MW1951REMMET016CB/TS ESE/NOSIG?
0093095820999991980031417004+50733+013750FM-12+088799999V0201201N01001004201CN0080001N9+00201-00201999999ADDAG11999AY121999GF108991051051004501071999MA1999999090871MD1210131+9999MW1051REMSYN00569087
0298724030937381980082319003+38950-077450SAO  +0088IAD  V0203605N002150243849N0240005N1+02675+01835101975ADDAG10999GD12995+0105099GD23995+0240099GD30995+9999999GD40995+9999999GF106065999999999999999999MA1102001100815MW1001EQDQ01+999990APOSP N01 00000JPWTH 1QNNE11 1 00299E11 1 00499E11 1 00099E11 1 00099G11 1 00080K11 1 00065L11 1 01500M11 1 29770N11 1 00000Q11 1 10197S11 1 00080V11 1 00808X11 1 36004
0072723535999991980031110004+36333-097900SAO  +0398END  V0200801N00511075001EN0112001N1+00221-00101999999ADDAG10999GD13991+0750099GF107991999999999999999999MA1101521999999MW1001
0091875740999991980091211004-34667-058633FM-12+0030SADM V0209991C00001220001CN0060001N9+01101+00701102081ADDAY101999GF100991001001999999001001MD1210652+9999MW1101REMSYN0061021.4EQDQ01+000652APC3  
0043021120999991980082003004+66567+016350FM-12+050099999V0201801N00261004201CN0100001N9+00901+00701999999ADDAY121999GF107991071091004501999999MW1011
0105766131999991980030113004+20517-103317SAO  +1526GDL  V0209991C000012200019N0080001N1+00401+00101999999ADDGD16991+0001599GD22991+2100099GF102991999999999999001011MA1102101999999MW1051MW2451EQDQ01    003SCOLCG
0105718250999991980020522004+52933-066867SAO  +0548YWK  V0209991C000012200019N0240001N1-01801-02201102301ADDAG10999GD12991+0750093GF102991999999999999999999MA1101801095321MW1001REMAWY005CI1 ?EQDQ01+999990APOSP 
0102317540999991980062109004+48600+137050FM-12+040399999V0202701N00301012001CN0500001N9+02601+01201100651ADDAA199000091AG14005AY191999GF106991061091012501001021KA1999M+02801MD1310041+9999MW1171REMSYN00570028
0163063700999991980091614004+51450+005417SY-MT+0022EHEH V0201601N00211075001CN0200001N1+02101+01201102101ADDAY121999GA1011+012609089GA2071+075009009GF107991011021012501001021MA1102001999999MD1610141+9999MW1021REMSYN01781842 87075 55002MET008BLU BLU?EQDQ01+000000PRSWM2
0078107080999991980072112204+49217+007117FM-15+0322EDRS V0202701N00661004801CN0112001N1+01201+00801999999ADDAG11000GA1011+003009079GA2071+004809059MA1101491999999MW1201REMMET006NOSIG?
0102303790999991980012912004+56000+119450FM-12+099099999V0209991C00001220001CN0500001N9-03101-03701104651ADDAA199000091AG14000AY101999GF103991031001999999041001KA1999M-01901MD1310091+9999MW1021REMSYN00570069
0108063000999991980111318004+51650+002567FM-12+000399999V0202801N011819999999N0100001N9+01001+00501101871ADDAA199005091AY181999GF108991999999999999999999MD1310051+9999MW1031SA1+1079REMSYN023705// 30403 ///// 4107/
0149724285138121980101506004+39817-082933SAO  +0227LCK  V0209991C000010270019N0240001N1+01001+00611101791ADDAA106000091AG10000GD12991+0150099GD24991+0270099GF108991999051999999071999MA1101731999999MD1110051+9999MW1001REMAWY009105 157/?EQDQ01  00003PRCP99
0121589110999991980092006004+25850+116367FM-12+031899999V0209991C00001004201CN0050001N9+02201+02101101291ADDAA106005091AG10002AY161999GF108991081051004501999999KA1999N+02001MD1610111+9999MW1611REMSYN005/0520EQDQ01  00503PRCP99
0094227980999991980071909004+62167+049083FM-12+006699999V0201301N00201002101CN0350001N9+01301+01101099831ADDAG12002AY161999GA1081+002109079GF108991081051002501999999MD1310011+9999MW1611REMSYN00588707
0033074420999991980122916004+45767+002967FM-15+146199999V0201001N01381999991CY0099001N1+99999+99999999999REMMET005CAVOKEQDQ01+000000PRSWM2
0282726460148971980012711003+44917-089617SAO  +0367AUW  V0203105N002652200059N0320005N1-02445-03005102435ADDAG10999GD14995+0750093GD20995+9999999GD30995+9999999GD40995+9999999GF108035999999999999999999MA1102031097705MW1001EQDN01 00000JPWTH 1QNNE11 1 00599E11 1 00099E11 1 00099E11 1 00099G11U1 99999K11 1-00022L11 1 02000M11 1 28850N11 1 00000Q11 1 10243S11 1-00012V11 1 01004X11 1 31005
0051162390999991980090220204+41800+012583FM-15+0129LIRA V0202901N00151999991CY0099001N1+01901+01701999999ADDMA1102101999999REMMET005CAVOKEQDQ01+000000PRSWM2
0090727735241391980032915004+46667-113150SAO  +12023DU  V0209991C00001015001EN0320001N1+00171+00001999999ADDAG10000GD13991+0150099GF107991999999999999999999MD1710071+9999MW1001REMAWY010707 NOSPL?
0094266680999991980071309004+54817+029683FM-12+017399999V0201001N00201008101CN0060001N9+01601+01101101291ADDAG12000AY121999GA1081+008109059GF108991081051008001999999MD1710131+9999MW1021REMSYN00588627
0092601270999991980071021004+34217-004000FM-12+051099999V0202701N00211220001CN0150001N9+02201+01301101821ADDAY101999GF100991001001999999001001MA1999999096031MD1110331+9999MW1021REMSYN01169603 95400
0188160720999991980010618004+45867+009067SY-MT+1319LIMO V0200601N00101220001CN0099001N1-00101-00901999999ADDAA199000091AJ100809199999999AY101999GF100991001001999999001001KA1999M+00301MD1310031+9999MW1021REMSYN01870003 99658 5809/7MET038CAVOK MON LIB VAL FOSCHIA SKC SUP DIM?EQDQ01+000000PRSWM2
0076070100999991980032403004+51050+002333FM-12+000699999V0201201N00511220001CN0050001N9+00301+00201100821ADDGF100991001001999999001001MD1810061+9999MW1001UA1M990039999REMSYN00591826
0069107290999991980092914004+49533+008500AERO +009799999V0209991C00001220001CN0040001N9+01501+01001999999ADDAG10999AY111999GF100991999999999999999999MW1051EQDQ01+000003PRSWM2
0050702740999991980110919004+61600-149083SAO  +0073PAQ  V0209991C000012200019N0640001N1-01161-01381999999ADDGF100991999999999999999999MA1101221999999MW1001
0064578450999991980092900004+26167+109767FM-12+039199999V0209991C00001036001CN0110001N9+01701+01601101791ADDAG11000AY121999GF107991071001999999071999MD1210121+9999MW1031
0145724125999991980050200004+37300-081217SAO  +0871BLF  V0202701N00201012001MN0096001N1+01331+00501101431ADDAA106000091AG10000GD13991+0120099GF107991999999999999999999KA1999M+01381MA1101461999999MD1210031+9999MW1051REMAWY007203 57?EQDQ01  00003PRCP99
0087486010999991980012006004+05300+100267FM-12+0003WMKP V0202001N00461045001CN0220001N9+03001+02201101261ADDAA106000091AY121999GF107991021051008001031021MW1051REMSYN005700//EQDQ01  00003PRCP99
0010711310999991980120717004+49433-108983SAO  +1079WEH  V02099999999999999999N9999999N9+99999+99999999999ADDAG10999
0071719310999991980081215004+54767-112017SAO  +0568WLB  V0209991C000019999999N0144001N9+01271+01111999999ADDAA106000091AG10999MA1101961999999EQDQ01+009902WODIR Q02  00003PRCP99
0171878030999991980100612004-42900-071133FM-12+0787SAVE V0203601N00981036001CN0400001N9+00701+00101101601ADDAA124000091AY121999GA1011+009009089GA2021+030009049GF108991031081008001021061KA1999N+00401MD1610091+9999MW1021REMSYN03070004 81830 82635 82460 1017,1EQDQ01  00003PRCP99
008772521014895198006070700D+40917-081433SAO  +0374CAK  V0209991C000012200019N0112001N1+01781+01501101361ADDAA101000095AG10999GF100991999999999999999999MA1101421096961MW1001EQDQ01+999990APOSP 
0087724810232031980022423004+37367-120567SAO  +0057MER  V0201801N00151042001EN0160001N1+01781+01171999999ADDAG10999GD13991+0420099GD24991+0540099GF108991999999999999999999MA1102171999999MW1001
0132870470999991980031909004-24850-065483SY-MT+1221SASA V0209991C00001220001CN0250001N1+01601+01501999999ADDAY101999GF100991001001999999001001MA1101591087841MD1310091+9999ME1315049MW1021REMSYN01268784 1016.5MET005CAVOKEQDQ01+000000PRSWM2
0080769040999991980100816004+14883-092300SAO  +0110TAP  V0209999999999004501EN0160001N1+02901+02401999999ADDGD13991+0045099GD23991+0240099GF107991999021999999031001MA1101051999999MW1001
0063106100999991980072622004+49950+006567FM-15+0374EDAB V0202801N001510090019N0112001N1+01901+01601999999ADDAG11999GA1061+009009059MA1101251999999MW1001REMMET007CIG030?
0073010280999991980090915004+74517+019017FM-12+001699999V0200401N00671000151CN0001001N9+00401+00401099361ADDAY161999GA1091+999999999GF109991091999999999999999MD1710081+9999MW1581
030972434013994198005261900C+38750-090367SAO  +0163STL  V0200905N004652200059N0080005N1+02835+01675101585ADDAA101000095AG10999GD11995+0750093GD20995+9999999GD30995+9999999GD40995+9999999GF102005999999999999999999MA1101631099595MW1055EQDQ01+999990APOSP N01 08100JPWTH 1QNNE11 1 00199E11 1 00099E11 1 00099E11 1 00099G11U1 99999K11 1 00062L11 1 00500M11 1 29410N11 1 08100Q11 1 10158S11 1 00083V11 1 00200X11 1 09009
0069846580999991980040107004-12583-069200FM-15+0265SPTU V0209991C00001030001CN0112001N1+02301+02301999999ADDGA1021+009009059GA2041+030009049MA1101801999999EQDQ01+000000PRSWM2
0064201860999991980031415004+78617+098700FM-12+000899999V0201601N00201060001CN0250001N9-02701+99999999999ADDAG11000AY111999GF105991001001999999001021MD1210171+9999MW1021
0057723965932091980060319004+35667-120633SAO  +0249PRB  V0200501N002512200019N0800001N1+01831+00501101541ADDAG10999GF100991999999999999999999MA1101591999999MW1001
0126245380999991980012700004+64033+116900FM-12+014299999V0209991C00001220001CN0500001N9-05201-05501103711ADDAA199000091AG10000AY101999GF100991001001999999001001IA1319IA2999-05509KA1999N-05201MD1810031+9999MW1021REMSYN01170002 20596
0075842480999991980091920004-03250-079967FM-15+0004SEMH V0203301N00201220001CN0112001N1+02601+02001100981ADDGA1031+009009089MA1101021100881MW1051EQDQ01+999990APOSP Q02+999990APOSLP
0076718770999991980112004004+51100-114017SAO  +1084YYC  V0202501N004112200019N0640001N1-00301-00701102551ADDAG10999GF100991999999999999999999MA1102131089681MW1001EQDQ01+999990APOSP 
0122999999999991980092300004+08400-084000FM-13+0000GURR V0202301N00571009001CN0100001N9+02631+02501101181ADDAY161999GF108991081081004501999999MD1210181+9999MW1211SA1+2819UA1M020109999UG1990159999REMSYN0230//25 12813 30202 99/03
0057022760999991980090400004+63567+019500FM-12+000699999V0200501N00101220001CN0600001N9+00501+00401100971ADDAY101999GF100991001001999999001001MD1010011+9999MW1021
0302711070253421980091715003+51933-131017SAO  +0089CYCJ V0209999900005000004MN0040005N1+01115+01065101765ADDAG10000GA1999+000004074GD14085+0001599GF108085999999999999999999MA1101761100685MD1310031+9999MW1455MW2501MW3515REMAWY020ST10 L-- INTMT 303 ?EQDQ01+999990APOSP N01 03370JPWTH 1QNNE11 1 09910G11 1 00000H11 1 16000K11 1 00051L11 1 00250M11 1 29730N11 1 03370Q11 1 10176S11 1 00052V11 1 01010W11 1 00000
0185783830999991980120417004+19283-081383SAO  +0006MKCG V0200601N007210660019N0160001N1+02781+02221101561ADDGD12991+0054099GD23991+0660099GF107991999999999999999999MA1101521999999MW1001OC101021REMAWY088CB         ?     E THRU SW MOVG SW OBS 1659          ?     SE/018/0          ?     1659?
0057726904242311980090401004+43233-123367SAO  +0160RBG  V0203401N004612200019N0480001N1+02501+00611999999ADDAG10999GF100991999999999999999999MA1101591999999MW1001
0110477710999991980022818004+34783+135450FM-15+0015RJOO V0203201N00101220001CN0112001N1+00201-00101999999ADDGA1011+010509089MA1101591999999REMMET0483003 FCST 1824 VRB04 9999          ?     1CU035?EQDQ01+000000PRSWM2
0109653380999991980061315004+07167+002067FM-12+016699999V0202201N00411220001CN0150001N9+03101+02201101041ADDAY111999GA1011+003909059GA2031+007809089GF104991031081004501001021MD1999999+0051MW1011REMSYN01181613 83826
0064589680999991980051706004+25033+121517FM-12+000999999V0200901N00601007501CN0120001N9+02201+01601101231ADDAG12000AY151999GF107991071051008001999999MD1610041+9999MW1021
008772694024232198009171700D+44917-123017SAO  +0061SLE  V0209991C000012200019N0240001N1+01671+01001101471ADDAA101000095AG10999GF100991999999999999999999MA1101491100751MW1001EQDQ01+999990APOSP 
0102258160999991980050812004+61533+156700FM-12+000799999V0209991C00001220001CN0500001N9+00001-00501101211ADDAA199000091AG10000AY111999GF102991021001999999031001KA1999M+00801MD1210011+9999MW1011REMSYN00570008
0069014520999991980100516204+58200+008083FM-15+0016ENCN V0202201N00301030001CN0112001N1+01001+00501999999ADDGA1021+007509089GA2071+030009049MA1100811999999EQDQ01+000000PRSWM2
0051604190999991980073105004+36283+006617FM-15+0697DABC V0209991C00001999991CY0099001N1+01901+01201999999ADDMA1101801999999REMMET005CAVOKEQDQ01+000000PRSWM2
0045725845232251980112613004+39283-120700SAO  +1611BLU  V0200501N002019999999N9999999N9+01001-00991999999ADDAG10999REMAWY00741 000?EQDQ01+000002VOVAR 
0074106130999991980100518004+50167+007067FM-15+0477EDSB V0202401N00151220001CN0112001N1+00801+00101999999ADDAG11000GA1031+999999009MA1101691999999REMMET005BLU+?EQDQ01+000000PRSWM2
0088704140999991980091002004+52717+174117SAO  +0030PASY V0202401N010212200019N0160001N1+01221+00781100171ADDGD12991+0096099GD22991+0210099GF102991999999999999999999MA1100141999999MW1001OC101331
0128627710999991980020206004+13167+030233FM-12+0574HSOB V0203401N00051220001CN0180001N9+01901+00101100811ADDAA124000091AY101999GF100991001001999999001001KA1999N+01601MD1999999-0091MW1061WG199030499999REMSYN00570016EQDQ01  00003PRCP99
0132107610999991980062204004+49033+010967AERO +042299999V0202601N00101012001CN0120001N9+01101+01001999999ADDAG10999AY121999GA1011+003909089GA2051+012009059GA3071+015009059GF108991999999999999999999MW1611REMSYN006PIC20?EQDQ01+000003PRSWM2
0086080940999991980101709004+42083-000333FM-12+055499999V0202901N00721004201CN0100001N9+00601+00501099961ADDAY161999GF108991051051004501021999MA1999999093511MD1210151+9999MW1611REMSYN00569351
0071726406999991980030922004+42583-087750SMARS+022316C  V0202501N010219999999N0092001N9+00111+99999100981ADDAG10999GF107991999999999999999999MW1451REMSYN020M     M     KENOSHA?
0064579720999991980051715004+25817+113017FM-12+018599999V0209991C00001036001CN0100001N9+01901+01801101381ADDAG12000AY111999GF106991061001999999041001MD1210151+9999MW1011
0137135860999991980030709004+41950+021633SY-MT+0232LYSK V0201401N00511012001CN0060001N1+00001-00201101291ADDAG12000AY171999GA1021+006009079GA2081+012009059GF108991081061008001999999MA1101081999999MD1710091+9999MW1701REMSYN00595990MET006NOSIG?
0072871780999991980021301004-27367-055967FM-12+0129SARP V0201101N00511220001CN0400001N9+02601+02401100761ADDAY101999GF100991001001999999001001MD1110071+9999MW1021REMSYN0061008,5
0403747020231101980122918003+36333-119950SAO  +0073NLC  V0201005N00055000304WN0013005N1+00785+00565102675ADDAA106000091AG10000ED132U14639GD15995+0003099GD20995+9999999GD30995+9999999GD40995+9999999GF108995999999999999999999KA1999N+00771MA1102641101795MD1210101+9999MW1051MW2455REMAWY041R32LVR48 TWR VSBY 1/2/       ?    210 46?EQDQ01  00003PRCP99N01 07000JPWTH 1QNNE11 1 00799E11 1 00099E11 1 00099E11 1 00099G11 1 00001K11 1 00042L11 1 00081M11 1 30060N11 1 07000Q11 1 10267S11 1 00046V11 1 01099X11 1 10001
0138710730999991980121123004+62717-109167SAO  +0160WFL  V0200401N002012200019N0240001N1-03301-03601101561ADDAG10999GD12991+0042099GD23991+0690093GF107991999999999999999999MA1101251099291MW1761REMAWY007AC1CI ?EQDQ01+999990APOSP Q02+999990APOSLP
0072725755241011980041701004+41117-111967SAO  +1459HIF  V0200201N001012200019N0560001N1+01501-01101102511ADDAG10999GD12991+0750093GF102991999999999999999999MA1102641999999MW1001
0057013660999991980071915004+61567+008000FM-12+141399999V0201101N00461006001CN0049001N9+00801+00301099641ADDAY161999GF108991081081001501999999MD1810121+9999MW1021
0072724556139891980092517004+38333-096200SAO  +0367EMP  V0200501N00871045001EN0240001N1+02001+00781102371ADDAG10999GD13991+0450099GF107991999999999999999999MA1102441999999MW1001
0057606300999991980121903004+27200+002467FM-12+024399999V0209991C00001220001CN0080001N9+00801+00201102011ADDAY101999GF100991001001999999001001MD1510021+9999MW1061
0145724270038041980121012004+39350-081433SAO  +0262PKB  V0209991C00001009601EN0112001N1+00281+00001101761ADDAA106000091AG10000GD14991+0096099GF108991999999999999999999KA1999N+00271MA1101731999999MD1110071+9999MW1001REMAWY007107 37?EQDQ01  00003PRCP99
0057424520999991980110809004+25150+075850FM-12+0273VIKO V0200201N00151220001CN0040001N9+02901+01001101361ADDAY101999GF104991021001999999031011MD1999999-0021MW1031
0079477710999991980112015004+34783+135450FM-15+0015RJOO V0203501N00101999991CY0099001N1+01301+00901999999ADDMA1102401999999REMMET033CAVOK 3025 FCST 1521 34003 CAVOK?EQDQ01+000000PRSWM2
0098476420999991980062304004+35750+139350FM-15+0139RJTY V0201101N001510210019N0048001N9+02401+01901999999ADDGA1031+010509089GA2031+021009039GA3041+075009009GF107991999999999999999999MA1101561099901MW1051
013172231012916198001161700D+29983-090250SAO  +0009MSY  V0201601N00301001801MN0064001N1+02001+01831101731ADDAA101000095AG10999GD13991+0018099GD24991+0030099GF108991999999999999999999MA1101731101621MW1451REMAWY005RE05?EQDQ01+999990APOSP 
0104999999999991980021606004+21400-145800FM-13+0000PHUG V0202401N00511220001CN0200001N9+02301+02001100911ADDAY111999GF102991021021004501999999MD1110211+9999MW1021SA1+2409UA1M020109999REMSYN0170//20 12400 30202
0189810020105021980042700004+06500-058250SY-MT+0028MLTM V0209991C00001090001CN0140001N1+02501+02401101261ADDAA106000091AY121999GA1011+005409089GA2061+090009009GF106991011021004501001081KA1999M+02901MA1101191999999MD1999999+0071MW1031REMSYN01770029 81818 86280EQDQ01+000000PRSWM2Q02  00003PRCP99
0137321740999991980061600004+45233+147883FM-12+003899999V0202901N00401000301CN0005001N9+00601+00601100361ADDAA199009091AG10002AY181999GA1091+999999999GF109991091999999999999999KA1999N+99999MD1210091+9999MW1431REMSYN00570907EQDQ01 +00702ATMN  
0043999999999991980071218004+27800+176600FM-13+0000JXBC V0202001N00511220001CN0200001N9+02601+99999999999ADDAY101999GF103991999999999999999999MW1011
0102315450999991980022412004+50683+133950FM-12+056799999V0209991C00001220001CN9999999N9-02101-02801999999ADDAA199000091AG10000AY101999GF100991001001999999001001KA1999M-01401MD1310061+9999MW1021REMSYN00570064
0064312850999991980070106004+54533+134417FM-12+005799999V0202201N00201012001CN0500001N9+02001+01801100261ADDAG12000AY121999GF107991071011012501999001MD1710081+9999MW1021
0024036731999991980110108204+51883-000367FM-15+0160EGGW V0201401N00511220001CN0060001N1+00301+00001999999ADDMA1102511999999MW1051
0131917840999991980022300004-19800-174350FM-12+000299999V0202601N00621005401CN0100001N9+02601+02501101211ADDAA124003091AY191999GA1071+005409089GA2051+005709059GF108991081071004501999999MW1021REMSYN0177036/ 87818 85619EQDQ01  00303PRCP99
0071161490999991980100506504+44017+012633FM-15+0012LIPR V0209991C00001220001CN0060001N1+01601+01301999999ADDGA1021+030009039GA2031+066009009MA1101691999999MW1101REMMET006NOSIG?
0173783670117061980102212004+19900-075150SY-MT+0020MUGM V0203601N002112200019N0110001N1+02401+02101101591ADDAY111999GA1011+006009099GA2011+007509059GA3061+075009009GF107991021091008001001031MA1101521101361MD1999999-0081MW1031REMSYN00563136MET033CIGNO      ?     CB NE AND S/ 74?
0084725395148331980030109004+42267-084467SAO  +0305JXN  V0203501N003012200019N0160001N1-01771-02431103881ADDAG10000GF100991999999999999999999MA1103561999999MD1410001+9999MW1001REMAWY004400?
0120228200999991980030912004+61817+034267FM-12+004099999V0201101N00501220001CN0130001N9-01101-01301103281ADDAA106000091AG10000AY101999GF100991001001999999001001MD1310051+9999MW1021REMSYN017700// 92400 90213EQDQ01  00003PRCP99
0090106590999991980081906004+49750+010200FM-15+0210EDIN V0209991C000010600019N0028001N1+01501+01401999999ADDAG11000GA1021+000159999GA2051+060009029MA1102031999999MW1101REMMET018CIG200 VIS W 0900?
0044727770940121980090922004+48550-109767SAO  +0789HVR  V0203501N001019999999N9999999N9+02561+00281999999ADDAG10999MA1101591999999EQDQ01+000002VOVAR 
0090702915999991980092123004+62733-143917SAO  +07385SZ  V0201801N00301012001EN0240001N1+00561+00061999999ADDGD14991+0120099GF108991999999999999999999MA1100471999999MW1001REMAWY016SWU ALQDS NOSPL?
037972208013880198012310900C+32900-080033SAO  +0012CHS  V0203405N00315002134MN0128005N1+00725+00615101395ADDAA101000095AG10000GA1999+002134074GA2999+013724064GD13065+0021099GD24025+0135099GD30995+9999999GD40995+9999999GF108085999061999999999999MA1101351101195MD1010001+9999MW1001REMAWY009000 16//?EQDN01 00000JPWTH 1QNNE11 1 00407E11 1 00603E11 1 00099E11 1 00099G11 1 00007H11 1 16007H11 1 15045K11 1 00043L11 1 00800M11 1 29880N11 1 00000Q11 1 10139S11 1 00045V11 1 01010X11 1 34006
0057722115999991980080502004+27400-082550SAO  +0007SRQ  V0200101N002012200019N0112001N1+02671+02441999999ADDAG10999GF100991999999999999999999MA1101561999999MW1001
0107477800999991980062306004+34683+135833FM-12+010599999V0202501N001519999999N0070001N9+02601+01901101531ADDAA106000091AY121999GF108991011011999999071999MD1810161+9999MW1101REMSYN01110268 40096EQDQ01  00003PRCP99
0219719500999991980101518004+54817-127183SY-SA+0523YYD  V0201401N003010036019N0160001N1+00201-00101102631ADDAA106000091AG10000AY121999GD12991+0027099GD24991+0036099GF108991081051002501999999KA1999M+00201KA2999N-00201MA1102441096241MD1110061+9999MW1021REMSYN01169624 40252AWY012CF3SC7 106 ?EQDQ01+000003PRSWM2Q02  00003PRCP99
0089038170999991980031621004+50433-005000FM-12+0119EGDG V0201801N00261027001CN0060001N9+00501+00301102261ADDAY121999GA1011+007509059GA2081+027009049GF108991011051008001071999MD1410001+9999MW1051
0081037960999991980032902004+51133+001350FM-12+011799999V0202201N02061004501CN0130001N9+00701+00601099331ADDAY161999GA1081+004509079GF108991081071004501999999MD1710351+9999MW1621OC102781
0117723095937191980082212354+35083-077050SAOSP+0006EWN  V0203601N00411007501MN0080001N1+99999+99999999999ADDAA106000091AG10000GD13991+0075099GD23991+0135099GF107991999999999999999999MA1101351999999MW1051EQDQ01  00003PRCP99
0088227270999991980031506004+62200+034300FM-12+004099999V0209991C00001220001CN0090001N9-01301-02001103871ADDAG12000AY141999GF103991999001999999001071MW1281REMSYN029MPRPI 90558 92233 9#56  )8497
0095766534999991980120701004+19150-104567SAO  +0005ZLO  V0209991C000012200019N0208001N1+02601+02201999999ADDGD12991+0090099GD22991+0270099GD32991+2100099GF102991999021999999071051MA1101221999999MW1001
0102298140999991980100312004+53700+078067FM-12+011399999V0200901N00301030001CN0500001N9+00401-00401102731ADDAA199000091AG14000AY121999GF108991011051012501011999KA1999M+00601MD1710061+9999MW1011REMSYN00570006
0104725111999991980012421004+40217-076850SAO  +0106CXY  V0203101N00411006001MN0048001N1-00491-01431100291ADDAG10001GD14991+0060099GF108991999999999999999999MA1100241999999MD1510101+9999MW1711REMAWY009510 SB40?
0053841010999991980041814004-00583-080400FM-15+0003SEBC V0201001N00201007501CN0112001N1+02501+02301999999ADDGA1081+007509059MA1101291999999EQDQ01+000000PRSWM2
0079103350999991980082005454+52283+009083FM-15+0070EDCB V0202301N00461015001CN0080001N1+01401+01101999999ADDAG11002GA1031+009009059GA2031+015009059GA3081+030009049MA1101901999999MW1611
0072725037947451980091414004+41067-073717SAO  +0134HPN  V0202201N00411060001EN0064001N1+02281+01781101691ADDAG10999GD13991+0600099GF107991999999999999999999MA1101691999999MW1051
0102725377148041980100119004+42617-082833SAO  +0177MTC  V0202301N007710750019N0112001N1+02671+01611100431ADDAG10999GD12991+0075099GD22991+0360099GD33991+0750099GF107991999999999999999999MA1100441999999MW1001
0132131160999991980121409004+45217+014583SY-MT+0085LYRI V0201101N00101010201CN0060001N1+00601+00501102561ADDAG12000AJ100009199999999AY121999GA1081+010209079GF108991081071012501999999IA1009MA1102511999999MD1210061+9999MW1101REMSYN0052//00
0125711410999991980061914004+53967-097833SAO  +0224YNE  V0202501N002512200019N0240001N1+01501+00801101791ADDAG10999GD12991+0210099GD23991+0750093GF107991999999999999999999MA1101731099071MW1001REMAWY010AC3CI2 K ?EQDQ01+999990APOSP 
0135825780999991980112112004-05083-042800FM-12+006999999V0203601N00211220001CN0040001N9+02701+02001101041ADDAA124000091AY101999GF101991001001999999001011KA1999N+02001MA1999999100191MD1999999-0121MW1021REMSYN01163019 70020EQDQ01  00003PRCP99
0090416400999991980030706004+31550+074333FM-12+021399999V0209991C00001220001CN0040001N9+01802+00701101461ADDAY111999GF102991021001999999021001MD1999999-0051MW1051WG199350099999EQDQ01+029123ATOT  
0102240710999991980041709004+69767+135067FM-12+004999999V0200201N00301220001CN0500001N9-00601-01601101401ADDAA199000091AG10000AY101999GF100991001001999999001001KA1999M-00401MD1310021+9999MW1021REMSYN00570054
0087039740999991980061403004+54183-007233FM-12+008799999V0201101N00211220001CN0100001N9+01001+00901101301ADDAY111999GA1031+009609059GF103991031051012501001001MD1610071+9999MW1101REMSYN00583632
0120718560999991980022102004+50617-096983SAO  +0230WGM  V0200201N005112200019N0240001N1-01501-01801102031ADDAG10999GD13991+0270093GF107991999999999999999999MA1101831099171MW1001REMAWY020AC4 OCNL DRFTG SNW ?EQDQ01+999990APOSP 
0069064790999991980091805254+51167+005467FM-15+0060EBBL V0201601N00101220001CN0060001N1+01001+00901999999ADDGA1011+030009039GA2031+060009009MA1101901999999EQDQ01+000000PRSWM2
0123718720999991980072021004+50017-110717SAO  +0717YXH  V0202101N001012200019N0480001N1+02201+01001102291ADDAG10000GD12991+0120099GF102991999999999999999999MA1102241093851MD1610101+9999MW1001REMAWY009CU2 610 ?EQDQ01+999990APOSP 
0095042200999991980110618004+68700-052750FM-12+004799999V0200601N00511220001CN0750001N9-00401-00601101161ADDAA199000091AY101999GF103991031001022501071001KA1999M+00001MD1810071+9999MW1031REMSYN00570000
0122999999999991980051603004+27000+139100FM-13+0000JCNP V0201801N00721220001CN0200001N9+02601+02301101461ADDAY101999GF103991031021008001001001MD1710081+9999MW1021SA1+2409UA1M030109999UG1090151109REMSYN0230//23 12400 30302 11903
0102347310999991980042518004+47250+039817FM-12+0077URRR V0209991C00001220001CN0100001N9+01301+01001101191ADDAA199006091AG10000AY111999GF103991031999999999031001KA1999M+01601MD1210141+9999MW1011REMSYN00570616
0159103840999991980122118004+52467+013400SY-MT+0050EDBB V0202201N00151006001CN0060001N1+00401+00101100101ADDAA199000091AG10000AY121999GA1081+006009059GF108991081051012501999999KA1999M+00501MA1100101999999MD1210271+9999MW1101REMSYN01170005 88645MET014590005 091015?
0078722880231521980090815004+34200-118367SAO  +0236BUR  V0209991C00001004501MN0064001N1+01721+01441999999ADDAG10000GD14991+0045099GF108991999999999999999999MA1101561999999MW1051MW2451
0111404770999991980092515004+21500+039200SY-MT+0017OEJD V0202801N00511220001CN0099001N1+03201+02301100921ADDAY101999GF100991001001999999001001MA1100911999999MD1999999+0161MW1021REMMET011CAVOK NOSL?EQDQ01+000000PRSWM2
0051085450999991980120103304+41233-008683FM-15+0076LPPR V0200901N00201999991CY0099001N1+99999+99999999999ADDMA1102811999999REMMET005CAVOKEQDQ01+000000PRSWM2
0043999999999991980070403004+52900+003100FM-13+0000PHNU V0202201N003619999999N0100001N9+01301+99999101721ADDAY111999GF105991999999999999999999MW1021
0085106390999991980121610004+49850+008583AERO +0110EDES V0202201N00301220001CN0200001N9+00501+00201999999ADDAG10999AY101999GA1011+006909089GF103991999999999999999999MW1031EQDQ01+000003PRSWM2
0089385070999991980040400004+40033+052983FM-12+008999999V0201001N00401036001CN0040001N9+01101+00801100111ADDAA199000391AG10002AY181999GF108991021091022501071999MD1310011+9999MW1801REMSYN005793//
0102787140999991980011822004+14900-085933FM-15+0442MHCA V0209991C00001024001CN0112001N1+02701+02001999999ADDGA1021+009009089GA2011+009609099GA3031+024009039MW1061REMMET036CTU TDS 3CI250         ?     CB TDS?
0108370180999991980123012004+44100+039067FM-12+009699999V0202101N00301036001CN0100001N9+00501-00201102661ADDAA106000091AG14000AY121999GF106991031021012501031001MD1810051+9999MW1011REMSYN005700//EQDQ01  00003PRCP99
0131080760999991980010612004+42333-003700FM-12+085499999V0203201N00101220001CN0250001N9+00301+00001999999ADDAA106000091AY111999GF106991001001999999001081MA1999999092221MD1310111+9999ME1315159MW1021REMSYN01169222 700//EQDQ01  00003PRCP99
0142888900999991980041612004-51700-057867FM-12+005199999V0202501N00511004201CN0250001N9+00201+00101100261ADDAA124003091AY181999GF107991071021004501999021KA1999N+99999MD1210151+9999MW1801REMSYN01770310 10400 94053EQDQ01  00303PRCP99Q02 +01002ATMN  
0130852680999991980071212004-18333-059750FM-12+0300SLRB V0209991C00001000301CN0004001N9+01501+01501101861ADDAA124000091AY141999GA1091+999999999GF109991091999000251999999KA1999N+01301MD1210101+9999MW1451REMSYN00570013EQDQ01  00003PRCP99
0098477300999991980112201004+34533+136683FM-15+0005RJOE V0202501N00411006001CN0112001N1+01701+01601999999ADDGA1011+004509089GA2061+006009059GA3071+012009059MA1101051999999REMMET004108?EQDQ01+000000PRSWM2
0109064560999991980091008004+50233+004650FM-12+0284EBFS V0201901N00511009901CN0120001N9+01101+01001101851ADDAY121999GA1041+003009079GA2071+009909059GF107991071051004501999999MD1710071+9999MW1021REMSYN01184710 87633
0092471105999991980071510004+37517+127000FM-15+0015RKSY V0202601N003612200019N0112001N1+02601+01901999999ADDGA1011+006009059GA2031+021009039GA3011+075009009MA1101081999999MW1001REMMET011CIGNO LAST?
0075123750999991980070106304+52183+020983FM-15+0110EPWA V0202301N00411003301CN0112001N1+01201+01101999999ADDAG12999GA1071+003309089MA1100711999999REMMET006NOSIG?EQDQ01+000000PRSWM2
0268711870999991980112618004+49133-068200SY-SA+0022YBC  V0203301N006610045019N0240001N1-00201-00701100931ADDAA106000091AG14001AY171999GD12991+0030099GD23991+0045099GD33991+0210099GF107991051051004501031001KA1999M+00101KA2999N-00301MA1100911100661MD1810011+9999MW1021OC101441REMSYN02363066 79743 20114 40153AWY026SF1SC5     ?    AC2 801  ?EQDQ01+000003PRSWM2Q02  00003PRCP99
0031165390999991980081305004+39750+008467FM-15+0091LIEF V0203301N008219999999N0080001N1+99999+99999999999ADDMW1101REMMET013VIS MAR 8 KM?
030972226013895198004080700C+32300-086400SAO  +0058MGM  V0201705N003150076249N0112005N1+01895+01615101555ADDAA101000095AG10999GD12995+0030099GD24995+0075099GD30995+9999999GD40995+9999999GF108085999999999999999999MA1101561100815MW1001EQDQ01+999990APOSP N01 00000JPWTH 1QNNE11 1 00299E11 1 00699E11 1 00099E11 1 00099G11 1 00025K11 1 00061L11 1 00700M11 1 29770N11 1 00000Q11 1 10155S11 1 00066V11 1 01010X11 1 17006
0273783880999991980111421004+18500-077917FM-15+0001MKJS V0201201N00301008101CN0112001N1+02801+02401999999ADDAA124999999GA1041+007509089GA2011+008109099GA3051+060009029MA1101191999999REMMET152CB N NE NW       ?     SIVCA1 MKJS 142100      ?     MMXX 1421         ?     78388 71206 78022 12028 59508 24958 84825 85270 81927 91964 162/        ?9?EQDQ01+000000PRSWM2Q02  99982PRCP24
0108875480999991980101106004-34550-060950FM-12+0082SAAJ V0209991C00001220001CN0100001N9+01201+01001101951ADDAA106000091AY111999GF100991001001999999001001MD1410001+9999MW1011REMSYN012700// 1019,6EQDQ01  00003PRCP99
0064389540999991980022106004+37500+071517FM-12+212099999V0209991C00001012001CN0100001N9+00101+00001999999ADDAG12001AY171999GF108991081001012501021999MD1810041+9999MW1711
0072874800999991980031503004-32917-060783FM-12+0025SAAR V0200201N00511220001CN0150001N9+02201+01901101061ADDAY101999GF100991001001999999001001MD1110031+9999MW1021REMSYN0061010,6
016272263023034198002081100D+31367-100500SAO  +0582SJT  V0203501N00721002401MN0112001N1+00391+00221101571ADDAA101001595AG10999GD14991+0024091GF108991999999999999999999MA1101631094821MW1611REMAWY051TE15 MOVD S CIG 7V9 PRESRR         ?    R- OCNLY R?EQDQ01+999990APOSP 
0087969730999991980120218004-07050+113967FM-12+000399999V0209991C00001045001CN0100001N9+02601+02401100841ADDAA106000091AY121999GF107991041091004501031081MW1021REMSYN005700//EQDQ01  00003PRCP99
0095471280999991980093021004+36700+127500FM-15+0058RKTU V0209991C00001220001CN0008001N1+00601+00601999999ADDED199U07629GA1031+000159999GA2011+003609079MA1101661999999MW1441REMMET019QFF1017PT7       ??
0102726585999991980111712004+44217-093917SAO  +0311MKT  V0203401N00511004501EN0240001N1-00051-00431999999ADDAA106000091AG10000GD14991+0045099GF108991999999999999999999MA1102711999999MW1001EQDQ01  00003PRCP99
0083508770999991980030209004+46283+129600FM-12+009999999V0203601N00201220001CN0200001N9-00201-01402101581ADDAG11000AY101999GF103991031001999999031001MD1210101+9999MW1031EQDQ01+025923ATOD  
032172266013962198006291500C+32417-099683SAO  +0544ABI  V0202205N007252200059N0320005N1+03115+01615101345ADDAA101000095AG10000GD10995+9999999GD20995+9999999GD30995+9999999GF100005999999999999999999MA1101631095265MD1110141+9999MW1001REMAWY004114?EQDQ01+999990APOSP N01 00000JPWTH 1QNNE11 1 00099E11 1 00099E11 1 00099E11 1 00099G11U1 99999K11 1 00061L11 1 02000M11 1 28130N11 1 00000Q11 1 10134S11 1 00088V11 1 00000X11 1 22014
0063103350999991980040115004+52283+009083FM-15+0070EDCB V0202401N00301012001CN0112001N1+01201+00901999999ADDAG11002GA1041+005409059GA2061+012009059MA1100511999999MW1251
0132476490999991980040100004+34767+136150FM-12+015999999V0202501N004119999999N0150001N9+01101+01001101061ADDAA124015091AY161999GF108991071071999999021999KA1999N+00701MD1010151+9999MW1611REMSYN02371507 10104 11015 13002EQDQ01  01503PRCP99
0053800010999991980060716004+12583-081700FM-15+0004MCSP V0200701N01131220001CN0112001N1+02901+02501999999ADDGA1021+008109089MA1101021999999EQDQ01+000000PRSWM2
0094109470999991980102706504+47983+010233FM-15+0634EDSM V0202001N00411220001CN0112001N1+00201-00201999999ADDAG12999GA1011+030009039GA2041+075009009MA1102611999999REMMET009BLU+BLU+?EQDQ01+000000PRSWM2
0087723415999991980092114004+34483-093100SAO  +0169HOT  V0201901N00511004501EN0112001N1+02671+02281999999ADDAG10999GD13991+0045099GD23991+0105099GF107991999999999999999999MA1101661999999MW1001
0031108370999991980111320004+48217+009917FM-15+0538EDPM V0202201N00151220001CN0004001N1-00501-00601999999ADDAG11999MA1102201999999MW1461
0200719660999991980061006004+64050-139133SY-SA+0369YDA  V0203401N002512200019N0320001N1+01301+00601101701ADDAA106000091AG10000AY111999GD12991+0660093GF102991001001999999001011KA1999M+02001KA2999N+00401MA1101591097241MD1310041+9999MW1021REMSYN01169724 42004AWY008CI 304 ?EQDQ01+000003PRSWM2Q02  00003PRCP99
017772536094830198005060500D+41600-083800SAO  +0208TOL  V0203301N006112200019N0192001N1+01891+00781100311ADDAA101000095AG10999GD12991+0300099GF102991999999999999999999MA1100341097861MW1001REMAWY066WSHFT 30/ FROPA        ?    TOP SA 0450 CLR 15 114/58/54/1 07/988?EQDQ01+999990APOSP 
002872375503103198008060900E+35133-111667SAO  +2135FLG  V02099999999999999999N999999999+01395+99999999999ADDAA101000095QNNS11 1 00057
047172688024155198012010900C+45683-118850SAO  +0452PDT  V0201905N00215015244EN0240005N1+00005-00395101625ADDAA101000095AG10000GA1999+015244064GA2999+999999999GA3999+999999999GA4999+999999999GD13065+0150099GD20005+9999999GD30005+9999999GD40005+9999999GF106055999051999999001991MA1101521096175MD1110141+9999REMAWY037PK WND 06 000/         ?    114 1500?EQDQ01+999990APOSP N01 00000JPWTH 1QNNE11 1 00407E11 1 00000E11 1 00000E11 1 00000G11 1 00050H11 1 15050H11 1 00999H11 1 00999H11 1 00999K11 1 00025L11 1 01500M11 1 28400N11 1 00000Q11 1 10162S11 1 00032V11 1 00706X11 1 19004
0055076300999991980100308004+43633+001367FM-15+0152LFBO V0201201N00201220001CN0030001N1+01301+01101999999ADDGA1031+078009009MA1101901999999MW1101REMMET006NOSIG?
0114863500999991980051612004-30900-055550FM-12+025999999V0201601N00411001201CN0020001N9+01601+01601101891ADDAA124002091AY151999GF108991081061001501999999KA1999N+01601MD1210201+9999MW1601REMSYN00570216EQDQ01  00203PRCP99
0102359250999991980061306004+45450+056100FM-12+008299999V0209991C00001220001CN0200001N9+02701+01201101311ADDAA199000091AG10000AY101999GF100991001001999999001001KA1999N+01801MD1810041+9999MW1021REMSYN00570018
0040061200999991980072000204+55467+010333FM-15+0017EKOD V0209991C00001001501CN0030001N1+01401+01401999999ADDGA1051+001509079MA1099591999999MW1611
0108724565139201980040218004+38950-095667SAO  +0324FOE  V0200801N00411002101MN0064001N1+00721+00331999999ADDAA106000091AG10000GD14991+0021099GF108991999999999999999999MA1101661999999MW1051MW2451EQDQ01  00003PRCP99
0040014035999991980121219504+59350+005217FM-15+0023ENHD V0202101N01021000901CN0020001N1+00801+00801999999ADDGA1091+000909999MA1099701999999MW1631
0074108560999991980021904004+48183+010867FM-15+0555EDSL V0201001N00561002101CN0050001N1-00201-00401999999ADDAG11999GA1081+002109079MA1102201999999MW1101REMMET018GRN GRN TEMPO YLO?
0117428860999991980012212004+21917+084050FM-12+0229VEJH V0209991C00001220001CN0040001N9+02801+01501101111ADDAA199000091AY111999GA1011+007509059GF101991011051008001001001KA1999M+03101MD1999999-0231MW1011REMSYN01170031 81625
0101865600999991980032518004-34467-057850FM-12+001499999V0200901N00211036001CN0100001N9+02301+01901101141ADDAA106000091AY121999GF107991031021008001071001MD1810011+9999MW1021REMSYN005700//EQDQ01  00003PRCP99
0149999999999991980070912004+07400+091600FM-13+0000ALJJ V0201901N00411008001CN0100001N9+02701+02401100801ADDAY121999GA1081+008009019GF108991999031008001061011MD1610121+9999MW1031UA1M040109999UG1050151909REMSYN02388195 05424 30402 19503EQDQ01+000082SCOTLC
0101567510999991980030309004+25717+100183FM-12+199299999V0201401N00701012001CN0300001N9+00801+00201999999ADDAG12002AY181999GF107991071041012501999999MD1610011+9999MW1801OA199901901REMSYN01791119 99718 00252
0087722576039021980010722004+31067-097833SAO  +0309GRK  V0200101N004110750019N0240001N1+00561-01051999999ADDAG10999GD12991+0600099GD23991+0750099GF107991999999999999999999MA1101691999999MW1001
0076716250999991980020901004+45950-077317SAO  +0130YWA  V0203001N003012200019N0400001N1-01001-01501102871ADDAG10999GF100991999999999999999999MA1102781101211MW1001EQDQ01+999990APOSP 
0083103840999991980111903204+52467+013400FM-15+0050EDBB V0202701N00821220001CN0112001N1+00501+00101999999ADDAG12000GA1011+009009089MA1100911999999OC101491REMMET006NOSIG?EQDQ01+000000PRSWM2
0076717200999991980020820004+46050-074283SAO  +0395WOH  V0202701N004612200019N0240001N1-00501-01501102481ADDAG10999GF100991999999999999999999MA1102241097541MW1001EQDQ01+999990APOSP 
0110467660999991980082215004+22750+121150FM-12+001099999V0203201N00101220001CN0150001N9+02901+02501100991ADDAA199000091AY101999GA1011+008109089GF101991011011008001001001MD1010081+9999MW1021REMSYN01740000 81827 00000
0119360870999991980042400004+51283+091583FM-12+072499999V0209991C00001030001CN0500001N9-00201-00601101821ADDAG11000AJ100009199999999AY111999GF105991051001999999051001IA1009IA2999-00409MD1310031+9999MW1021REMSYN0115990  25400
0108370090999991980020200004+44333+038717FM-12+002599999V0200901N00301220001CN0500001N9+00201-00101102511ADDAA106000091AG10000AY101999GF100991001001999999001001MD1810031+9999MW1021REMSYN005700//EQDQ01  00003PRCP99
0064389570999991980061409004+36717+071600FM-12+252499999V0202901N00301220001CN0500001N9+02401+00201999999ADDAG12000AY101999GF103991031021012501001001MD1710041+9999MW1021
032472219013874198010230800C+33650-084433SAO  +0308ATL  V0200705N00415076204EN0192005N1+01335+01115102225ADDAA101000095AG10999GD14995+0750099GD20995+9999999GD30995+9999999GD40995+9999999GF108055999999999999999999MA1102301098545MW1001REMAWY00698596?EQDQ01+999990APOSP N01 00000JPWTH 1QNNE11 1 00699E11 1 00099E11 1 00099E11 1 00099G11 1 00250K11 1 00052L11 1 01200M11 1 29100N11 1 00000Q11 1 10222S11 1 00056V11 1 01006X11 1 07008
0064252480999991980012206004+67200+167983FM-12+042699999V0201401N00101220001CN0500001N9-04401-04801101781ADDAG12000AY101999GF100991001001999999001001MD1210121+9999MW1021
0137072920999991980010221004+47783+006350SY-MT+0278LFSX V0203001N00151000601CN0040001N1-00101-00101102401ADDAL10600091AY171999GF108991081061000751999999MD1210101+9999MW1221REMSYN01787702 95990 99594MET0194000 22RESN 7ST002?EQDQ01+000000PRSWM2
0043947000999991980082811004-33483+145533FM-12+012299999V0209991C00001220001CN0500001N9+01201+00401102191ADDAY101999GF102991001001999999001011MW1031
0123719350999991980111503004+60850-115767SAO  +0166YHY  V0202401N003012200019N0240001N1-01001-01101102171ADDAG10000GD13991+0600093GF107991999999999999999999MA1102001100011MD1310121+9999MW1001REMAWY009CI3 312 ?EQDQ01+999990APOSP 
0114012280999991980080318004+63850+008467FM-12+002899999V0200401N00621220001CN0250001N9+01501+01201101411ADDAA199000091AY121999GF105991031001017501031011KA1999M+01601MD1710131+9999MW1071UA1M990039999REMSYN01170016 91424
0059484560999991980050319304+13917+100600FM-15+0012VTBD V0201601N00151999991CY0099001N1+02801+02801999999ADDMA1100711999999REMMET013CAVOK NOSIGO?EQDQ01+000000PRSWM2
0059969730999991980011806004-07050+113967FM-12+000399999V0203201N00621045001CN0120001N9+03101+02701101011ADDAY121999GF106991041091004501011011MW1151REMSYN00770////,
0064246560999991980073109004+63517+129433FM-12+007999999V0201101N00401220001CN0500001N9+03201+01301099671ADDAG12000AY101999GF101991011011004501001001MD1710131+9999MW1021
0051408310999991980051720004+30367+048250FM-15+0003OIAA V0209991C00001999991CY0099001N1+02601+01101999999ADDMA1100201999999REMMET005CAVOKEQDQ01+000000PRSWM2
0122999999999991980020606004-13400+122200FM-13+0000D5BC V0202601N00771220001CN0200001N9+02851+02401100531ADDAY101999GF103991021011008001021001MD1210151+9999MW1011SA1+2789UA1M020059999UG1090153109REMSYN0230//24 12785 30201 31903
0108277310999991980033100004+54617+039717FM-12+016099999V0209991C00001220001CN0150001N9-00301-00401101871ADDAA106000091AG14000AY121999GF108991031001999999031011MD1210091+9999MW1021REMSYN005700//EQDQ01  00003PRCP99
0119103200999991980112800004+51933+008317SY-MT+0070EDUO V0202401N00511001801CN0040001N1+00301+00201100441ADDAG12001AY171999GA1081+001809079GF108991081071002501999999MA1100411999999MD1710161+9999MW1101REMSYN00588706MET004YLO?
0064286980999991980102809004+54933+073400FM-12+009499999V0202001N00501220001CN0060001N9+01301+00001101941ADDAG12000AY101999GF101991001001999999001011MD1710141+9999MW1021
0069789900999991980112317004+12150-068283FM-15+0002MACB V0200601N00871021001CN0112001N1+02801+02301999999ADDGA1031+004809089GA2071+021009039MA1101191999999EQDQ01+000000PRSWM2
0131475800999991980082104004+40683+141383FM-15+0037RJSM V0200601N00251012001CN0112001N1+02201+01701999999ADDGA1021+007509089GA2051+012009059GA3061+075009009MA1101251999999REMMET056131/ FCST 0410         ?     98064 5CU025 5SC040 6CI250?
0127719380999991980061213004+67833-115117SAO  +0024YCO  V0200901N001012200019N0240001N1+00301+00101101971ADDAG10999GD12991+0360099GD22991+0630093GF102991999999999999999999MA1101961101691MW1001REMAWY012AC1CI 2702-?EQDQ01+999990APOSP 
056472407093730198007211200C+39450-074567SY-SA+0020ACY  V0202405N005252200059N0128005N1+02615+02285101875ADDAA101000095AA206000091AG10000AY111999GA1999+076204004GA2999+999999999GA3999+999999999GA4999+999999999GD13055+0750093GD20005+9999999GD30005+9999999GD40005+9999999GF105005001001999999001991KA1999M+03441KA2999N+02271MA1101861101635MD1210151+9999MW1031REMSYN06163161 90966 49473 CITY  86    71    79    760014TIDE  MISSINGAWY012215 1001 73?EQDQ01  00003PRCP99N01 00000JPWTH 1QNNE11 1 00306E11 1 00000E11 1 00000E11 1 00000G11U1 99999H11 1 32250H11 1 00999H11 1 00999H11 1 00999K11 1 00073L11 1 00800M11 1 30010N11 1 00000Q11 1 10187S11 1 00079V11 1 00600X11 1 24010
0183727440148581980033012004+47167-088500SAO  +0333CMX  V0209991C000012200019N0320001N1-00381-00601102151ADDAA106000091AG10000AJ100339199999999GD12991+0060099GD22991+0750093GF102991999999999999999999KA1999N-00451MA1101961999999MD1510001+9999MW1001REMAWY013500 90413 24?EQDQ01  00003PRCP99
0167030910999991980012312004+57200-002200FM-12+0072EGPD V0203001N00211024001CN0060001N9+00401+00301098411ADDAA106999929AY161999GA1011+001209079GA2031+006609059GA3071+024009039GF107991051051001501031999MD1210061+9999MW1101REMSYN023797// 81704 83622 87358EQDQ01  99993PRCP99
0082984460999991980103109004+13583+124233FM-12+0005RPUV V0200701N00211220001CN0200001N9+02901+02401100761ADDAA199000091AY111999GF104991021021004501001011MD1510001+9999MW1021REMSYN005700//
0106718930999991980060503504+49717-124900SAOSP+0024YQQ  V0201501N002510030019N0160001N1+99999+99999999999ADDAG10000GD12991+0015099GD23991+0030099GD34991+0048099GF108991999999999999999999MW1001REMAWY010SF2SF4SC4?
0125726180999991980112400004+44533-070533FM-12+0207RUM  V0201401N00101220001CN0016001N9+00101-00301102631ADDAG11000AY101999GF100991001001999999001001KA1999M+00501KA2999N-00671MA1999999100031MD1410001+9999MW1101REMSYN01163003 44120
0064202910999991980010909004+78233+103117FM-12+003099999V0200501N00401220001CN0300001N9-03101-03301102101ADDAG12000AY101999GF100991001001999999001001MD1210121+9999MW1021
0102129200999991980061918004+46750+017250FM-12+011799999V0203401N00101220001CN0200001N9+02001+01001101221ADDAA199000091AG14000AY111999GF101991001001999999001021KA1999M+02301MD1510001+9999MW1021REMSYN00570023
0064303560999991980082715004+56367+114633FM-12+054999999V0203601N00101030001CN0500001N9+01101+01001101081ADDAG11000AY121999GF108991021091008001071999MD1810131+9999MW1021
0109032570999991980032004004+54300-001533FM-12+0040EGXE V0200501N00621012001CN0100001N9+00001-00501102051ADDAY121999GA1021+007809089GA2071+012009059GF107991071081008001999999MD1810271+9999MW1261REMSYN01182826 87640
0170789620999991980061818004+11150-060833FM-12+0003MKPT V0201201N00931002401CN0008001N9+02401+02401101411ADDAA199013091AY181999GA1021+002409099GA2061+002409089GF108991081091002501999999KA1999M+02901KA2999N+02201MD1999999-0031MW1811REMSYN035713/6 82908 86808 91962 16399 42922
0142156270999991980051521004+42717+024917FM-12+237899999V0201401N01601000151CN0000501N9-00401-00401999999ADDAG12001AY171999GA1091+999999999GF109991091999999999999999MD1010091+9999MW1711OA199901801REMSYN02391118 92352 96990 99744EQDQ01+000440PRSWM3
0038075580999991980112916004+44117+003017FM-15+071599999V0203401N01541003901CN0112001N1+99999+99999999999ADDGA1061+003909089EQDQ01+000000PRSWM2
0123717150999991980022901004+47800-069550SAO  +0149WRD  V0200701N003012200019N0160001N1-01401-01701100861ADDAG10999GD12991+0036099GD23991+0660093GF107991999999999999999999MA1100751098981MW1001REMAWY008SC2CI2 ?EQDQ01+999990APOSP 
0122999999999991980020212004+56400+002100FM-13+0000GRHJ V0200901N010319999999N0200001N9+00451+00301099871ADDAY121999GF108991081081999999001001MD1710201+9999MW1021SA1+0659UA1M030109999UG1060259999REMSYN0230//03 10655 30302 00605
0087060530999991980020913004+56950+009250FM-12+000699999V0201101N01031003001CN0020001N9+99999+99999999999ADDAY121999GA1081+003009079GF108991081071004501999999MW1771WG199190399999REMSYN00588710
0050762252999991980120300004+28700-105967SAO  +1354CUU  V0201001N006112200019N0320001N1+99999+99999999999ADDGF100991999999999999999999MA1102341999999MW1001
0107478000999991980062406004+34200+129300FM-12+002199999V0202201N004619999999N0300001N9+02501+02001101281ADDAA106999929AY181999GF107991031021999999031021MD1810071+9999MW1021REMSYN01110252 49759EQDQ01  99993PRCP99
0152474260999991980021606004+42167+142783FM-12+003499999V0202901N00721220001CN0300001N9-00501-01301101501ADDAA106002091AJ100079199999999AY181999GA1031+999999089GF103991031021999999001001MD1310051+9999MW1021REMSYN023838// 10554 19007 40290EQDQ01  00203PRCP99
0104713950999991980050802004+44883-063517SAO  +0145YHZ  V0201601N004110240019N0160001N1+00401+00201101401ADDAG10999GD12991+0015099GD24991+0240099GF108991999999999999999999MA1101351999999MW1001REMAWY008SF2AC8 ?
0057480530999991980052803004+20883+095900FM-12+021499999V0203501N00511004201CN0200001N9+02701+02401100821ADDAY121999GF107991061091004501061011MD1999999-0181MW1031
0113014150999991980102008004+58883+005633FM-15+0009ENZV V0203601N00251220001CN0112001N1+00401+00401999999ADDGA1011+002109079GA2021+003009099MA1101691999999MW1251REMMET048PAST MAX 29      ?     TEMPO 3000 83RASN 9//008?
0073919580999991980091915004-27617-144333FM-12+000199999V0200401N00151009001CN0100001N9+01601+01401101861ADDAA199999999AY161999GF108991061081004501071999MW1611EQDQ01  00002PRCP99
0072084330999991980041408004+37783-000800FM-15+0005LELC V0203601N00611005401CN0060001N1+01501+01201999999ADDGA1031+002709079GA2061+005409089GA3051+024009039MA1101191999999MW1101
0040160990999991980070611004+45650+012183FM-15+0018LIPH V0209991C00001220001CN0080001N1+02501+01601999999ADDGA1041+007509089MA1101391999999MW1101
0148518860999991980020906004+38367+090150FM-12+313999999V0202901N00501090001CN0300001N9-01101-02101999999ADDAA106000091AG14000AY111999GF107991001001999999001021KA1999N-01901MA1999999069191MD1710071+9999MW1011REMSYN01766919 /0069 00200EQDQ01  00003PRCP99
029472681024131198008071900C+43567-116217SAO  +0865BOI  V0203205N005752200059N0480005N1+02395+00335101565ADDAA101000095AG10999GD10995+9999999GD20995+9999999GD30995+9999999GF100005999999999999999999MA1101761091675MW1001EQDQ01+999990APOSP N01 00000JPWTH 1QNNE11 1 00099E11 1 00099E11 1 00099E11 1 00099G11U1 99999K11 1 00038L11 1 03000M11 1 27070N11 1 00000Q11 1 10156S11 1 00075V11 1 00000X11 1 32011
0087724045937201980121117004+38333-075500SAO  +0016SBY  V0200401N00511009001EN0112001N1+00391-00161102301ADDAG10999GD13991+0090099GD23991+0300099GF107991999999999999999999MA1102301999999MW1001
034172278023183198004271600C+33433-112017SAO  +0337PHX  V0200905N00415067064EN0640005N1+02615+00395101125ADDAA101000095AG10999GD13995+0660099GD20995+9999999GD30995+9999999GD40995+9999999GF106065999999999999999999MA1101251097325MW1001EQDQ01+031763ATOT  Q02+029933ATOD  Q03+999990APOSP N01 00000JPWTH 1QNNE11 1 00499E11 1 00099E11 1 00099E11 1 00099G11 1 00220K11 1 00039L11 1 04000M11 1 28740N11 1 00000Q11 1 10112S11 1 00079V11 1 00807X11 1 09008
0108155260999991980032300004+43417+024600FM-12+007199999V0200901N00301007501CN0050001N9+00801+00601101281ADDAA106002091AG10002AY161999GF108991081001008001021999MD1810071+9999MW1611REMSYN005702//EQDQ01  00203PRCP99
0109814150999991980040315004+03633-054033FM-12+010499999V0209999999999090001CN0200001N9+02601+02101101371ADDAY111999GA1041+009009089GA2031+090009009GF105991041021008001001021MD1999999+0001MW1031REMSYN01184830 83080
0025071390999991980032104004+48450+000100FM-15+0144LFOF V0200201N00251001801CN0010001N1+99999+99999999999ADDGA1081+001809079MW1711
0133719670999991980052102004+61367-139050SAO  +0786YDB  V0201201N010212200019N0640001N1+01001-00901099791ADDAG10999GD12991+0150099GD22991+0840093GF102991999999999999999999MA1099461090351MW1001REMAWY018TCU2CI SHWRS NW 3?EQDQ01+999990APOSP 
0054163440999991980111219004+39333+016400FM-15+1710LIBQ V0202701N00251000151CN0000001N1+99999+99999999999ADDGA1091+000159999MW1451REMMET020MON INVIS VAL INVIS?
0090711940999991980090607004+47617-057617SAO  +0011WBD  V0200701N003612200019N0192001N1+00801+00701102261ADDAG10999GF100991999999999999999999MA1102271102121MW1001REMAWY0055700?EQDQ01+999990APOSP 
0192484775999991980092023004+12683+101000FM-15+0018VTBU V0209991C00001090001CN0112001N1+02401+02301999999ADDGA1011+006009099GA2031+036009039GA3051+090009009MA1101021999999REMMET098CB NW? 4040      ?     RJCCJ 2300 02001 9999 1CU030 6CI250 14/12 1018/3006/ FCST 2305 NOSI     ?G?EQDQ01+000000PRSWM2
0068080110999991980083005004+43550-006033FM-15+0126LEAS V0202701N00201007501CN0112001N1+01801+01601999999ADDGA1081+007509059MA1101901999999REMMET006NOSIG?EQDQ01+000000PRSWM2
0134727755241121980013106004+47517-111183SAO  +1075KGFA V0202301N005112200019N0240001N1-00771-01931102771ADDAA106000091AG10000GD12991+0690099GF102991999001999999001081MA1102241999999MD1010071+9999MW1001REMAWY009007 1008?EQDQ01  00003PRCP99
0100851960999991980021912004-16250-062050FM-12+0490SLCP V0203601N00211002101CN0500001N9+02201+02201095601ADDAA124000091AY121999GF108991081061002501999999KA1999N+02101MW1021REMSYN00570021EQDQ01  00003PRCP99
043372304093729198008102100C+35267-075550SAO  +0002HAT  V0202205N006250762049N0112005N1+02945+02505101505ADDAA101000095AG10000GA1999+030484034GA2999+076204004GA3999+999999999GA4999+999999999GD12025+0300099GD23045+0750099GD30005+9999999GD40005+9999999GF106035999999999999999999MA1101491101465MW1001EQDQ01+999990APOSP Q02+999990APOA  N01 00000JPWTH 1QNNE11 1 00202E11 1 00405E11 1 00000E11 1 00000G11 1 00250H11 1 23100H11 1 32250H11 1 00999H11 1 00999K11 1 00077L11 1 00700M11 1 29960N11 1 00000Q11 1 10150S11 1 00085V11 1 00704X11 1 22012
0086478800999991980061600004+34283+134067FM-15+0020RJOT V0203401N00051010501CN0050001N1+02601+02101999999ADDGA1011+009009089GA2061+010509089GA3071+999999009MA1101021999999MW1101REMMET0052984?
0064230320999991980070115004+69717+066817FM-12+001199999V0201201N00401030001CN0200001N9+01101+00001101461ADDAG12000AY121999GF106991061001999999031001MD1410001+9999MW1021
044972421093814198005251500C+39050-084667SAO  +0265CVG  V0200105N004150365849N0032005N1+02285+01895100875ADDAA101000095AG10000GA1999+027434034GA2999+036584034GA3999+999999999GA4999+999999999GD12015+0270099GD23055+0360099GD30005+9999999GD40005+9999999GF106065999001999999071991MA1100911097775MD1010031+9999MW1055REMAWY009003 1070?EQDQ01+999990APOSP N01 08100JPWTH 1QNNE11 1 00201E11 1 00406E11 1 00000E11 1 00000G11 1 00120H11 1 23090H11 1 23120H11 1 00999H11 1 00999K11 1 00066L11 1 00200M11 1 28870N11 1 08100Q11 1 10087S11 1 00073V11 1 00707X11 1 01008
0207719360999991980082912004+62467-114450SY-SA+0205YZF  V0202901N002012200019N0240001N1+00801+00601100631ADDAA106000091AG10000AY111999GD12991+0240099GF102991021001022501031001KA1999M+01901KA2999N+00701MA1100581098131MD1210091+9999MW1011REMSYN01169813 41907AWY015AC2 98117 209 ?EQDQ01+000003PRSWM2Q02  00003PRCP99
0057838990999991980062918004-27667-048550FM-12+0005SBFL V0200201N00621220001CN0150001N9+02201+01501101751ADDAY121999GF100991001001999999001001MD1710301+9999MW1021
0088474060999991980120809004+43950+141633FM-12+002299999V0202901N005119999999N0150001N9-00201-00501101331ADDAA199003091AY181999GF108991081091999999999999MD1110061+9999MW1851REMSYN01113003 41099
010272492023237198008171300D+37900-121250SAO  +0008SCK  V0200101N002512200019N0160001N1+01611+01391101021ADDAA101000095AG10999GD12991+0750093GF102991999999999999999999MA1101021100921MW1001EQDQ01+999990APOSP 
0056071720999991980093006004+48750+005233FM-12+031699999V0209991C000019999999N0010001N9+01001+01001102531ADDAA199000491MD1210051+9999REMSYN01979406 PRECIPPASSEES
0158716310999991980071318004+43983-080750FM-12+0415WMN  V0200101N001019999999N0240001N9+02301+01301101731ADDAA124000291AA299000391AG10000GF199999999999000251999999KA1999M+02301KA2999N+00701MA1101761096851MD1810011+9999REMSYN01769685 20002 42307EQDQ01+999990APOA  
0095703810253091980081902004+58367-134583SAO  +0007JNU  V0200801N002510090019N0112001N1+01221+01111101421ADDGD12991+0009099GD22991+0051099GD34991+0090099GF108991999999999999999999MA1101421999999MW1801
0072722025128491980101813004+26067-080150SAO  +0003FLL  V0200801N004612200019N0128001N1+02721+02221999999ADDAG10999GD12991+0075099GF102991999999999999999999MA1101561999999MW1001
0123108580999991980061121004+48200+011267SY-MT+0518EDSF V0202801N00051220001CN0300001N1+01501+00701101461ADDAG11000AY101999GF101991011051017501001011MA1101591999999MD1110121+9999MW1021REMSYN00581656MET005BLU+?EQDQ01+000000PRSWM2
0094320610999991980050318004+50900+142167FM-12+003099999V0201601N00201010801CN0200001N9+00101-00201101591ADDAG11000AY121999GA1051+010809059GF107991051051012501031001MD1410001+9999MW1021REMSYN00585636
0122999999999991980120900004+12000+074500FM-13+0000GBQP V0203301N00511220001CN0200001N9+02811+02301101031ADDAY101999GF101991011011004501001001MD1610041+9999MW1021SA1+2809UA1M010059999UG1060103309REMSYN0230//23 12801 30101 33602
0101846910999991980030205004-13750-076217FM-15+0006SPSO V0209991C00001220001CN9999999N9+02201+01801101001ADDGA1031+069009009MA1101021100931EQDQ01+999990APOSP Q02+999990APOSLPQ03+000002VOVAR Q04+000000PRSWM2
0131999999999991980061506004+34200-009500FM-13+0000UYWH V0200101N00401220001CN0200001N9+01881+99999102671ADDAY111999GF104991041011008001001001MD1410001+9999MW1021SA1+1989UA1M020059999UG1990009999WA1900009REMSYN02311988 20000 30201 00/00
0103432330999991980082121004+14233+076433FM-12+073399999V0202701N00511004201CN0040001N9+02101+02001100591ADDAA199000291AY121999GF108991081061004501999999MA1999999092531MD1999999+0021MW1021REMSYN0116925/ 4929/
0134722535129091980062312004+29383-098583SAO  +0210SKF  V0201601N001012200019N0128001N1+02501+02061101291ADDAA106000091AG10000GD12991+0045099GF102991999051999999001001MA1101391999999MD1610021+9999MW1001REMAWY009602 1500?EQDQ01  00003PRCP99
0302726071146061980111615003+44800-068817SAO  +0059BGR  V0203305N008852200059N0240005N1-00225-00615101755ADDAG10000GD10995+9999999GD20995+9999999GD30995+9999999GF100005999999999999999999MA1101731101025MD1610031+9999MW1001OC101131REMAWY004603?EQDN01 00000JPWTH 1QNNE11 1 00099E11 1 00099E11 1 00099E11 1 00099G11U1 99999K11 1 00021L11 1 01500M11 1 29830N11 1 00000Q11 1 10175S11 1 00028V11 1 00000X11 1 33017
0058162890999991980080514504+40883+014300FM-15+0088LIRN V0202001N00251999991CY0099001N1+03201+01401999999ADDMA1101691999999REMMET012CAVOK NOSIG?EQDQ01+000000PRSWM2
0123711380999991980093014004+51267-102467SAO  +0498YQV  V0202601N005112200019N0240001N1+01401+00701099981ADDAG10999GD12991+0300093GD23991+0750093GF107991999999999999999999MA1099931094151MW1001REMAWY008AC4CI1 ?EQDQ01+999990APOSP 
0102238840999991980041312004+61600+090000FM-12+006399999V0202501N00101030001CN0500001N9+00301+00201102271ADDAA199003091AG10002AY181999GF105991031051008001031001KA1999M+00301MD1210051+9999MW1011REMSYN00570303
0120983270999991980111004004+15183+120550FM-15+0146RPMK V0209991V006110450019N0112001N1+02901+02001999999ADDGA1011+009009059GA2031+030009039GA3041+045009039GA4041+075009009MA1101521999999REMMET029CIG150     ?     WND 360V080?
0051040300999991980032804004+64133-021933FM-15+0014BIRK V0201001N00411999991CY0099001N1-00201+99999999999ADDMA1099391999999REMMET005CAVOKEQDQ01+000000PRSWM2
0089387050999991980010112004+39483+067600FM-12+101599999V0202701N00301220001CN0200001N9+00301+00001999999ADDAA199000091AG14000AY111999GF106991011021008001001011MD1310021+9999MW1031REMSYN005700//
030972779024146198009222200C+48300-114267SAO  +0904FCA  V0201605N005750167649N0320005N1+00945+00615102155ADDAA101000395AG10999GD12995+0105099GD23995+0150099GD34995+0210099GD40995+9999999GF108085999999999999999999MA1102071091605MW1805EQDQ01+999990APOSP N01 02300JPWTH 1QNNE11 1 00299E11 1 00499E11 1 00699E11 1 00099G11 1 00055K11 1 00043L11 1 02000M11 1 27050N11 1 02300Q11 1 10215S11 1 00049V11 1 01010X11 1 16011
0058118160999991980070219004+48167+017200FM-15+0132LKIB V0202601N00611999991CY0099001N1+01501+00801999999ADDAG11999MA1100811999999REMMET005CAVOKEQDQ01+000000PRSWM2
0084076900999991980081213304+43650+007200FM-15+0004LFMN V0201001N00411030001CN0080001N1+02601+02201999999ADDGA1011+006909059GA2051+030009039MA1100711999999REMMET006NOSIG?EQDQ01+000000PRSWM2
0093471870999991980050905004+33200+126267FM-15+0013RKPM V0203501N00301220001CN9999999N9+01601+01001999999ADDGA1011+009009059MA1101391999999OC100661REMMET007014PT2?EQDQ01+000002VOVAR Q02+000000PRSWM2
0070106420999991980122906004+50167+008967FM-15+0113EDID V0201501N001010066019N0080001N1-00101-00201999999ADDAG12000GA1071+006609059MA1103861999999MW1101REMMET014CIGM022 FIRST?
0112110360999991980092519504+48117+016567FM-15+0183LOWW V0201801N00101039001CN0045001N1+01501+01001999999ADDAG12999GA1031+021009059GA2041+039009039MA1102301999999MW1051REMMET040VIS 8KM TO SE GRADU          ?     3000?
0132702735264091980061118004+61217-149833SAO  +0041MRI  V0201801N001510030019N0048001N1+00831+00721999999ADDAA106999999GD12991+0024099GD24991+0030099GF108991999999999999999999MA1101351999999MW1451MW2801EQDQ01  00003PRCP99Q02  00002PRCP06
0088475840999991980061903004+39700+141167FM-12+015599999V0201701N00151004201CN0200001N9+01701+01201101111ADDAA199000091AY121999GF107991071021004501999999MD1110131+9999MW1021REMSYN01140069 50001
0093035621999991980031413404+52367-000217FM-16+0049EGWZ V0200201N005110018019N0017001N1+99999+99999999999ADDED199U18289GA1011+000159999GA2051+001809079GA3021+002709049MW1611OC100821REMMET008CIGM006?
0040081750999991980091511004+41150+001167FM-15+0076LERS V0202301N00201220001CN0080001N1+02601+02001999999ADDGA1021+006009089MA1102001999999MW1061
0074725249999991980022216004+41550-082733SMARS+019621G  V0202301N006119999999N0074001N9+00661+99999100031ADDAG10999GF107991999999999999999999MW1451REMSYN023M     M     MARBLEHEAD?
0140162430999991980120209004+41550+012900SY-MT+0026LIRL V0209991C00001007501CN0112001N1+00301+00001101371ADDAY111999GA1061+007509059GF106991061051008001001001MD1310101+9999MW1021REMSYN01186625 564/1MET0220!/M00 BKN MON LIB NC?EQDQ01+000000PRSWM2
0072723405039301980011216004+34917-092150SAO  +0095LRF  V0200601N00411030001EN0112001N1+00331-01161999999ADDAG10999GD14991+0300099GF108991999999999999999999MA1103321999999MW1001
0087030610999991980062012004+57867-003767FM-12+001899999V0203201N00671006001CN0300001N9+01401+00801099241ADDAY181999GA1061+006009089GF107991061021008001071031MD1210071+9999MW1021REMSYN00586820
0079726686240251980071408004+44383-100283SAO  +0531PIR  V0201201N001512200019N0128001N1+02331+01561100231ADDAG10999GF100991999999999999999999MA1100441999999MW1001REMAWY013WND LGT VRBL?
0057029720999991980070403004+60517+022267FM-12+0049EFTU V0203501N00051220001CN0300001N9+01301+00901101261ADDAY121999GF104991041001999999041001MD1010001+9999MW1021
0043964410999991980021503004+03200+113033FM-12+0003WBGB V0209991C00001045001CN0450001N9+03001+02401101091ADDAY121999GF107991041021004501071021MW1011
0074101360999991980050415004+53767+008667FM-15+0023EDCN V0200601N00721220001CN0112001N1+00901+00001999999ADDAG11000GA1031+007509089MA1101491999999REMMET005BLU+?EQDQ01+000000PRSWM2
0043481120999991980092909004+09967+098583FM-12+004699999V0202701N00101012001CN0100001N9+02701+02401100841ADDAY151999GF108991051081008001071061MW1011
0108999999999991980041212004-16500+085000FM-13+0000ONIL V0201201N00931002101CN0200001N9+02601+02401100821ADDAY121999GF107991071071002501001011MD1410001+9999MW1011UA1M030159999UG1070301109REMSYN01705224 30303 11706
0122999999999991980041512004+46700-048800FM-13+0000KBCG V0203001N00671220001CN0200001N9+00031-00301101921ADDAY101999GF101991011001022501051001MD1210111+9999MW1031SA1+0039UA1M060159999UG1090250209REMSYN0230//53 10033 30603 02905
0101864600999991980122918004-32817-056517FM-12+007799999V0200801N00211220001CN0200001N9+03201+01901100901ADDAA106000091AY111999GF103991031021012501001051MD1710121+9999MW1011REMSYN005700//EQDQ01  00003PRCP99
0137074800999991980112106004+45733+004950FM-12+0200LFLY V0209991C00001075001CN0150001N9+00701+00501102641ADDAA199000091AJ100009199999999GA1061+075009009GF106991001001999999001011IA1089IA2999+00009MD1310111+9999MW1021REMSYN01720010 70006 86075
0057742070242011980090510004+47083-122583SAO  +0092GRF  V0209991C000012200019N0240001N1+01281+01221101711ADDAG10999GF100991999999999999999999MA1101691999999MW1001
0064257030999991980012315004+62917+152417FM-12+020799999V0209991C00001030001CN0100001N9-03601-03901101481ADDAG12001AY171999GF108991081001999999021999MD1810021+9999MW1711
0109483830999991980031412004+16533+104717FM-12+013999999V0209991C00001220001CN0040001N9+03001+02201100891ADDAA199000091AY101999GF101991001001999999001021KA1999M+03401MD1999999-0101MW1051WG199990299999REMSYN00570034
0095028480999991980060706004+66817+028633FM-12+022199999V0202301N00261030001CN0200001N9+01501+00301101681ADDAA199000091AY121999GF106991031021012501081001KA1999N+00101MD1610121+9999MW1011REMSYN00570001
0225711940999991980042400004+47617-057617SY-SA+0011WBD  V0200901N01291003901MN0060001N1+00801+00601101641ADDAA106999999AG10002AY121999GD13991+0039099GD24991+0075099GF108991081071004501999999KA1999M+01001KA2999N+00401MA1101661101491MD1710081+9999MW1451MW2611REMSYN01163149 41004AWY012SF9SC1 708 ?EQDQ01  00003PRCP99Q02  00002PRCP06
0054063700999991980042323094+51450+005417FM-16+0022EHEH V0203301N00611003301CN0112001N1+99999+99999999999ADDGA1021+002409079GA2071+003309059MW1581REMMET004GRN?
0072726585999991980061420004+44217-093917SAO  +0311MKT  V0200101N004112200019N0240001N1+02831+01671999999ADDAG10999GD13991+0750093GF107991999999999999999999MA1101021999999MW1001
0088717170999991980081313514+47017-065450SAOSP+0034YCH  V0200301N004610102019N0128001N1+99999+99999999999ADDAG10999GD12991+0018099GD24991+0102099GF108991999999999999999999MW1511REMAWY007SF2SC8?
032870273026451198003272200C+61167-150017SAO  +0048ANC  V02099959000050274349N0960005N1+00175-00285099715ADDAA101000095GD12995+0150099GD24995+0270099GD30995+9999999GD40995+9999999GF108085999999999999999999MA1099701099225MW1001REMAWY017RWY 06R WND 3003?EQDQ01+999990APOSP N01 00000JPWTH 1QNNE11 1 00299E11 1 00699E11 1 00099E11 1 00099G11 1 00090K11 1 00027L11 1 06000M11 1 29300N11 1 00000Q11 1 09971S11 1 00035V11 1 01010X11 1 00000
0114686480999991980072412004-31900+026867FM-12+110099999V0209991C00001220001CN0300001N9+02002+00201999999ADDAY101999GF100991001001999999001001MA1999999090262MD1710201+9999ME1316149MW1021REMSYN00569026EQDQ01+090263APOSP 
0057940350999991980101317004-09433+147217FM-12+0028AYPY V0201501N00051045001CN0300001N9+02501+02301101041ADDAY121999GF107991021051012501071021MD1810131+9999MW1031
0089381110999991980031012004+43633+051183FM-12-001599999V0201101N00901220001CN0100001N9+00301-00601102911ADDAA199000091AG10000AY111999GF102991001001999999999051MD1710091+9999MW1011REMSYN005700//
0024333460999991980040219304+50350+030917FM-15+0125UKBB V0201301N00301220001CN0025001N1+00201+00001999999ADDMA1100911999999MW1101
0057029170999991980112615004+63017+027800FM-12+0095EFKU V0202701N00671220001CN0250001N9-00801-01001099321ADDAY181999GF104991041061004501001001MD1810051+9999MW1221
0204039800999991980081406004+55367-007333FM-12+002099999V0201801N00211027001CN0500001N9+01501+01501100101ADDAA199004091AY161999GA1011+003009079GA2041+010509059GA3071+027009049GF107991041051004501071999IA1089IA2999+01309KA1999N+01501MD1310031+9999MW1021UA1M990039999REMSYN03521310 70415 81710 84635 87459 91829
0106256770999991980011312004+63050+179317FM-12+008599999V0203201N01201220001CN0060001N9-01801-01901101681ADDAA199999929AG10001AY171999GF100991001001999999001001MD1310021+9999MW1381OA199901601REMSYN011797// 91116
0064239860999991980030606004+60383+093067FM-12+051399999V0203601N00301220001CN0500001N9-02401-02901103811ADDAG12000AY101999GF100991001001999999001001MD1210041+9999MW1021
0057476350999991980091311304+35250+136933FM-15+0016RJNN V0202901N00301999991CY0099001N1+02301+01401999999ADDMA1100811999999REMMET011CAVOK 2977?EQDQ01+000000PRSWM2
0053074280999991980061804004+45200+000817FM-15+0100LFBX V0201801N00201002101CN0080001N1+99999+99999999999ADDGA1071+002109059MA1101901999999EQDQ01+000000PRSWM2
0064315860999991980070509004+49483+129483FM-12+012699999V0201101N00301007501CN0300001N9+02101+01801099511ADDAG12002AY181999GF108991061031008001001021MD1410001+9999MW1021
014172458603919198004151200D+38800-097650SAO  +0391SLN  V0202101N002512200019N0240001N1-00051-00321101201ADDAA101000095AA206000091AG10000GF100991999999999999999999KA1999N-00061MA1101151999999MD1110071+9999MW1001REMAWY007107 31?EQDQ01  00003PRCP99
0078031180999991980051418004+55000-005150AERO +001599999V0201601N00821220001CN0200001N9+01901+01301999999ADDAY101999GA1011+999999039GF101991999999999999999999MW1021EQDQ01+000003PRSWM2
0087021860999991980122421004+65550+022133FM-12+0017ESPA V0209991C00001000601CN0100001N9-02701-03001098931ADDAY101999GA1071+000609079GF107991071061000751999999MD1310011+9999MW1031REMSYN00587702
