0093430140999991981111421004+19867+075400FM-12+0579VAAU V0209991C00001220001CN0040001N9+01901+00801101551ADDAG12000AY101999GF100991001001999999001001MA1999999095001MD1999999+0011MW1021REMSYN00569500
0064588470999991981070815004+26083+119283FM-12+008599999V0201401N00301220001CN0300001N9+02801+02501100811ADDAG12000AY111999GF104991041001999999041001MD1010031+9999MW1021
0066150235999991981111204454+47683+026350FM-15+0399LRSV V0203101N00611999991CY0099001N1-00301-00301999999ADDAG12999MA1101081999999REMMET013CAVOK 993952?EQDQ01+000000PRSWM2
0130725450149901981040700004+41883-091700SAO  +0263CID  V0201601N008212200019N0240001N1+01391-00101101841ADDAA106000091AG10000GF100991999999999999999999KA1999M+01551MA1101801999999MD1710271+9999MW1001REMAWY007727 60?EQDQ01  00003PRCP99
0094361260999991981100409004+50800+075700FM-12+049499999V0200901N00301006301CN0200001N9-00101-00601103321ADDAG12004AY121999GA1081+006309059GF108991081051008001999999MD1210061+9999MW1821REMSYN00588621
0113262420999991981122000004+58300+026733FM-12+005999999V0201001N00601000601CN0010001N9-00901-01001100821ADDAG12002AY171999GA1071+000609079GF108991999071000751021999MD1710181+9999MW1731REMSYN00587702EQDQ01+000082SCOTLC
0108095670999991981111012004+50883+012133FM-12+031299999V0202901N00301009001CN0050001N9+00201-00101103361ADDAA106000091AG14000AY111999GF107991071081004501999999MD1010001+9999MW1051REMSYN005700//EQDQ01  00003PRCP99
0091724280148211981062402004+40000-082883SAO  +0249CMH  V0200501N002012200019N0240001N1+01831+01281101891ADDAG10999GD12991+0750099GF102991999999999999999999MA1101961098931MW1001EQDQ01+999990APOSP 
0094725120147611981011013004+40883-078083SAO  +0589PSB  V0203101N006112200019N0112001N1-01271-01321102391ADDAG10999GD12991+0030099GF102991999999999999999999MA1102031999999MW1001OC100921REMAWY005SE25?
0064339150999991981022621004+46450+033883FM-12+002899999V0200501N00701220001CN0140001N9-00601-00801102961ADDAG11000AY101999GF100991001001999999001001MD1210041+9999MW1021
0094062350999991981061020004+52917+004783FM-12+0001EHKD V0202401N00721030001CN0250001N9+01401+01101102011ADDAG12999AY111999GA1061+030009039GF106991061001999999071011MD1210071+9999MW1031REMSYN00586360
0117620560999991981011518004+32817+021850FM-12+062599999V0202701N01031003601CN0060001N9+00601+00301999999ADDAA199002091AY161999GA1081+003609079GF108991081071002501999999KA1999M+01301MD1710091+9999MW1601REMSYN011UPCQ  80712
0134100200999991981100522004+55017+008417FM-12+002699999V0209991C00001008101CN0450001N9+01201+00901100991ADDAG12999AY121999GA1061+008109059GF106991061051008001001001MA1999999100641MD1210131+9999MW1011REMSYN01160064 86627EQDQ01+999990APOSP 
0094215040999991981050806004+74667+112933FM-12+000699999V0202301N00201006601CN0170001N9-01701-01801100821ADDAG11000AY121999GA1081+006609059GF108991081051008001999999MD1210061+9999MW1021REMSYN00588622
0065154810999991981061101004+44367+028483FM-15+0097LRCK V0202801N00511999991CY0099001N1+02001+01601999999ADDAG11999MA1101591999999REMMET012CAVOK NOSIG?EQDQ01+000000PRSWM2
0111118160999991981122121004+48167+017200SY-MT+0132LKIB V0201001N00501008101CN0060001N1-00601-00801101001ADDAG11000AY121999GA1081+008109059GF108991081051008001999999MA1100711999999MD1410001+9999MW1101REMMET007046103?
0099578160999991981032712004+26583+106717FM-12+107499999V0201801N00701220001CN0250001N9+02101+01301100561ADDAG12000AY111999GF103991011011012501041021MA1999999088761MD1310101+9999MW1031REMSYN01168876 05405
0047072570999991981022616004+47050+002650FM-15+0175LFOA V0201001N00411220001CN0015001N1+00201+00001999999ADDAG12999GA1021+001809079MA1101901999999MW1101
0108379850999991981050512004+38733+048833FM-12-001199999V0201101N00301220001CN0200001N9+02101+01601100881ADDAA106000091AG14000AY101999GF103991031001022501041001MD1810121+9999MW1021REMSYN005700//EQDQ01  00003PRCP99
0064218020999991981091906004+71967+114083FM-12+002499999V0201801N00401024001CN0500001N9+00101-00501101261ADDAG11000AY121999GF106991021051008001031001MD1710141+9999MW1021
0122710950999991981040223004+72667-078000SAO  +0057YIO  V0201801N001010600019N0160001N1-02701-03101101081ADDAG10999GD12991+0360099GD23991+0600099GF107991999999999999999999MA1100981100291MW1761REMAWY007AC3CI3?EQDQ01+999990APOSP 
0129722886231301981072612004+34217-018483SAO  +0244VNY  V0201301N002010024019N0064001N1+01721+99999999999ADDAA106000091AG10000GD16991+0001599GD24991+0024099GF108991999999999999999999MA1101391999999MW1451REMAWY003F2?EQDQ01  00003PRCP99
0083284910999991981101909004+56933+072667FM-12+008799999V0201301N00401220001CN0200001N9+00601-01101104081ADDAG11000AY101999GF100991001001999999001001MD1810021+9999MW1021REMSYN0107     014)
0124208640999991981101709004+71483+071817FM-12+000899999V0201601N00801000301CN0002001N9+00001+00001101122ADDAG12001AY161999GA1091+999999999GF109991091999999999999999MD1710151+9999MW1451OA199901101REMSYN00591111EQDQ01+101123APOSLP
0141067300999991981122818004+46550+007983FM-12+357699999V0201401N01641000151CN0000001N9-01301-01901999999ADDAG12001AY171999GA1091+999999999GF109991091999999999999999MA1999999063911MD1810041+9999ME1427949MW1711OA199901691REMSYN01766391 7//16 91133
0065275155999991981050808004+55967+037417FM-15+0190UUEE V0209991C00001999991CY0099001N1+02101+01001999999ADDAG11999MA1102101999999REMMET012CAVOK NOSIG?EQDQ01+000000PRSWM2
0064380230999991981072821004+44783+056850FM-12+012499999V0203101N00401220001CN0200001N9+02301+01001101061ADDAG11000AY101999GF100991001001999999001001MD1210031+9999MW1021
0051094900999991981011618004+51650+013583FM-12+009799999V0202601N009019999999N9999999N9-00101-00501100601ADDAG12000KA1999M+00001MD1210171+9999REMSYN0057//00
0153076460999991981082103004+43750+004417SY-MT+0094LFTW V0203201N00611030001CN0099001N1+02001+01201101011ADDAG11000GA1041+015009059GA2051+030009039GF107991041051017501031999MA1101021999999MD1810011+9999MW1001REMSYN01184650 85360MET005CAVOKEQDQ01+000000PRSWM2
0102683700999991981091018004-26450+029483FM-12+170099999V0200901N00511004201CN0200001N9+00101+00001999999ADDAG10999AY171999GF108991081051004501999999MA1999999083821MD1210201+9999ME1315689MW1261REMSYN00568382
0096474880999991981050908004+41767+140817FM-15+0031RJCH V0201001N00251001201CN0022001N1+00901+00801999999ADDAG11999GA1021+000609079GA2051+001209079GA3081+002109079MA1100511999999MW1801REMMET0082968 BR?
0094644010999991981051521004-04200+012667FM-12+033099999V0201801N00201220001CN0150001N9+02201+02001101401ADDAG10999AY111999GA1011+004809059GF101991011051004501001001MD1999999-0011MW1011REMSYN00581616
0102722270138641981051114364+33917-084517SAOSP+0326MGE  V0202801N004110042019N0112001N1+99999+99999999999ADDAG10999GD12991+0021099GD23991+0042099GD34991+0084099GF108991999999999999999999MA1101081999999MW1001
0126253780999991981020118004+66350-179117FM-12+001599999V0201001N00201220001CN0100001N9-02601-02901101311ADDAA199999929AG13000AY101999GF100991001001999999001001IA1319IA2999-03409KA1999N-02801MD1210111+9999MW1021REMSYN01179778 2849/
0106711870999991981122311364+49133-068200SAOSP+0022YBC  V0200801N008710051019N0240001N1+99999+99999999999ADDAG10999GD12991+0027099GD23991+0051099GD34991+0078099GF108991999999999999999999MW1701REMAWY010SF1SF7SC3?
0077786270999991981031019004+15317-091467FM-15+1901MGHT V0209991C00001220001CN0112001N1+02301+01101999999ADDAG12999GA1011+009009059GA2041+010509089REMMET0071AC090?EQDQ01+000000PRSWM2
0072722051128411981061619004+28550-081333SAO  +0034ORL  V0200401N003012200019N0112001N1+99999+99999999999ADDAG10999GD12991+0105099GF102991999999999999999999MA1101521999999MW1001
0094231210999991981092015004+68850+061183FM-12+001099999V0209991C00001005101CN0500001N9+00301+00101102111ADDAG11000AY121999GA1061+005109059GF108991061051004501031999MD1710071+9999MW1021REMSYN00586617
0134066120999991981091912004+47083+006800FM-12+102099999V0201901N00051000601CN0049001N9+01101+01001999999ADDAA106003091AG10002AY161999GA1081+000609079MA1999999089931MD1410001+9999ME1904889MW1611REMSYN01768993 703// 88702EQDQ01  00303PRCP99
0116061800999991981071421004+55633+012667FM-12+0005EKCH V0202601N00411010501CN0400001N9+01401+00601101311ADDAG12000AY121999GA1011+006009089GA2071+010509059GF107991071081008001001011MD1310041+9999MW1021REMSYN01181820 87635
0078166820999991981031707204+37917+021300FM-15+0011LGAD V0209991C00001051001CN0080001N1+01301+01101999999ADDAG11999GA1021+027009039GA2071+051009029MA1101191999999MW1101REMMET006NOSIG?
0085031470999991981062218004+55100-004183AERO +005599999V0203401N00361008001CN0200001N9+99999+99999999999ADDAG10999AY121999GA1071+008009089GF107991999999999999999999MW1021EQDQ01+000003PRSWM2
0039162420999991981010218504+41800+012233FM-15+0002LIRF V0209991C00001220001CN0080001N1+00501+00401999999ADDMA1102001999999MW1101REMMET006NOSIG?
0148555850999991981050306004+00000+999999FM-12+999999999V0203401N00801015001CN0300001N9+01401-01101999999ADDAA106000091AG14003AY121999GF106991061091017501001021KA1999N-00101MA1999999064371MD1810211+9999MW1141REMSYN01766437 /0051 00004EQDQ01  00003PRCP99
0070476860999991981051703304+35767+140383FM-15+0044RJAA V0200401N00771001201CN0047001N1+01101+01001999999ADDAG12999GA1081+001209079MA1100911999999MW1611REMMET0142982 BR NOSIG?
0116702700999991981080202004+61267-149650SAO  +0115PAFR V0201601N003610135019N0096001N1+01501+01171100531ADDAG10999GD12991+0099099GD23991+0135099GD34991+0240099GF108991999999999999999999MA1100541999999MW1451MW2611OC100611
044572535014848198108141200C+41700-086317SY-SA+0236SBN  V0202205N00415036584EN0032005N1+02115+02005101925ADDAA101000095AA206000091AG14000AY121999GA1999+036584034GD14085+0360099GD20995+9999999GD30995+9999999GD40995+9999999GF108085081001999999071999KA1999M+02941KA2999N+02001MA1101961099155MD1310031+9999MW1055MW2101MW3455REMSYN01169915 48568AWY012303 107/ 68?EQDQ01  00003PRCP99N01 07081JPWTH 1QNNE11 1 00610E11 1 00099E11 1 00099E11 1 00099G11 1 00120H11 1 23120K11 1 00068L11 1 00200M11 1 29280N11 1 07081Q11 1 10192S11 1 00070V11 1 01010X11 1 22008
0064310870999991981072906004+58850+141833FM-12+000499999V0202001N00601012001CN0500001N9+01201+01001100351ADDAG11000AY121999GF108991081041012501999999MD1410001+9999MW1021
0102319930999991981120412004+43983+134683FM-12+023499999V0209991C00001220001CN0500001N9-01501-01701102241ADDAA199000091AG14000AY101999GF100991001001999999001001KA1999M-00201MD1210071+9999MW1021REMSYN00570052
0080727575949251981101807004+47967-097400SAO  +0278RDR  V0203401N01231010801MN0160001N1+00441-00161101481ADDAG10999GD13991+0108099GF107991999999999999999999MA1101391999999MW1001OC101541
0152076470999991981112412004+43517+004933SY-MT+0023LFMI V0203001N00411075001CN0040001N1+01201+01201102431ADDAA106000091AG14000AY141999GA1011+033009039GA2071+075009029GF107991011001999999031081MD1510041+9999MW1101REMSYN017700// 81361 87275EQDQ01  00003PRCP99
0064248590999991981082421004+61283+128933FM-12+011899999V0200101N00101030001CN0500001N9+00701+00601099741ADDAG12000AY121999GF108991081001999999071999MD1710081+9999MW1021
039572655014926198107231500C+45550-094067SAO  +0313STC  V0201805N00365006104EN0160005N1+02005+01675101625ADDAA101000095AG10000GA1999+006104064GA2999+015244064GD13065+0060099GD24025+0150099GD30995+9999999GD40995+9999999GF108085999051999999999999MA1101631097935MD1110051+9999MW1001REMAWY009105 15//?EQDQ01+999990APOSP N01 00000JPWTH 1QNNE11 1 00407E11 1 00603E11 1 00099E11 1 00099G11 1 00020H11 1 15020H11 1 15050K11 1 00062L11 1 01000M11 1 28920N11 1 00000Q11 1 10162S11 1 00068V11 1 01010X11 1 18007
0064488480999991981021312004+17517+106600FM-12+000899999V0200901N00101220001CN0200001N9+02401+02301100751ADDAG12000AY101999GF100991001001999999001001MD1310201+9999MW1021
0090103280999991981031107554+51950+008900FM-15+0189EDUD V0202101N00511007201CN0048001N1+01301+01201999999ADDAG12999GA1021+002409079GA2081+007209059MA1099901999999MW1611REMMET018GRN WHT TEMPO GRN?
0064960010999991981071209004+05867+095317FM-12+0126WIAA V0202701N00461045001CN0180001N9+02901+02201101081ADDAG11000AY121999GF107991021011008001031021MW1021REMSYN0057////
0080094530999991981121221004+51800+010617FM-12+115399999V0203201N01101000151CN0000001N9-00901-00901999999ADDAG12000AY131999GA1091+999999999GF109991091999999999999999MD1310071+9999MW1491
0148990080999991981061516004+52750-035500FM-13+0000C7C  V0201401N00601030001CN0200001N9+99999+99999102881ADDAG12999AY121999GF108991081001999999051999MD1810041+9999MW1031SA1+0849UA1M020059999UG1110253409REMSYN02300006 10845 30201 34105EQDQ01+022373ATOT  
0105105020999991981012513504+50833+006667FM-15+0117EDNN V0202701N00821024001CN0090001N1+00701+00301999999ADDAG12999GA1031+004509089GA2061+024009039GA3071+069009009MA1102101999999REMMET004BLU?EQDQ01+000000PRSWM2
0142724697999991981011716004+40583-105083SAO  +1525FCL  V0200101N000510420019N0128001N1-01161-01381999999ADDAG10999GD12991+0030099GD22991+0240099GD34991+0420099GF108991999999999999999999MW1001REMAWY046NOSPL/BINOVC SW-NE     ?    F ALG FTHLS SW-NW?
0090476710999991981090512304+35550+139767FM-15+0006RJTT V0200301N00411018001CN0112001N1+02101+01701999999ADDAG12999GA1031+005409089GA2081+018009059MA1101191999999REMMET0052990?EQDQ01+000000PRSWM2
0064239750999991981010403004+60350+088367FM-12+008599999V0202301N00401007501CN0100001N9-00601-00601102481ADDAG12001AY171999GF108991081001008001021999MD1110051+9999MW1711
0064471430999991981121409004+35883+128617FM-12+0061RKTT V0203201N00511220001CN0300001N9+00001-01201102611ADDAG12000AY101999GF100991001001999999001001MD1210091+9999MW1021
0086024640999991981092013504+59350+017950FM-15+0015ESSB V0201301N00871004501CN0112001N1+01001+00701999999ADDAG11999GA1051+004509089GA2071+015009059MA1101021999999MW1211OC101381REMMET006NOSIG?
0081100380999991981042809504+54317+009533FM-15+0010EDNQ V0202901N00511004501CN0112001N1+00801+00101999999ADDAG12999GA1021+002709099GA2031+004509089MA1101291999999MW1801REMMET009BLU+BLU+?
032472781524237198109022000C+47283-121333SAO  +1206SMP  V0202405N00265009144EN0480005N1+01225+00725101835ADDAA101000095AG10999GD13995+0090099GD23995+0750099GD30995+9999999GD40995+9999999GF107065999999999999999999MA1101861088115REMAWY028PK WND 11 000 /WND LGT VRBL?EQDN01 00000JPWTH 1QNNE11 1 00499E11 1 00499E11 1 00099E11 1 00099G11 1 00030K11 1 00045L11 1 03000M11 1 26020N11 1 00000Q11 1 10183S11 1 00054V11 1 00907X11 1 24005
0108573480999991981112212004+31067+109483FM-12+060799999V0200701N00201015001CN0150001N9+00901+00701101971ADDAA106999929AG10002AY161999GF108991081051017501999999MD1110191+9999MW1021REMSYN005/97//EQDQ01  99993PRCP99
0094431100999991981111309004+16983+073333FM-12+003499999V0203201N00201220001CN0200001N9+03101+02101101091ADDAG12000AY101999GA1021+007509089GF102991021021008001001001MD1999999+0001MW1021REMSYN00582825
0152718284999991981120918004+54833-069867SAO  +0509YAI  V0200301N004110033019N0032001N1+00101+00101999999ADDAA106999999AG10000GD16991+0001599GD24991+0033099GF108991999999999999999999MA1099861999999MW1451MW2561REMAWY004SAWREQDQ01  00003PRCP99Q02  00002PRCP06
0070702320265161981102921004+61583-159533SAO  +0026ANI  V0203101N00151015001EN0640001N1-00881-01101999999ADDAG10000GD13991+0150099GF107991999999999999999999EQDQ01+029323APOA  
0076012891999991981041010304+62583+011383FM-15+0626ENRO V0202001N00511013501CN0112001N1+00801-00101999999ADDAG12999GA1011+010509089GA2061+013509059MA1101081999999EQDQ01+000000PRSWM2
0060080870999991981073011004+42200-001450FM-15+0303LEBR V0201601N00301220001CN0112001N1+03201+01201999999ADDAG12999GA1021+060009009MA1101831999999EQDQ01+000000PRSWM2
0260725500149421981042714003+41300-095900SAO  +0304OMA  V0201805N006252200059N0160005N1+02115+01395999999ADDAG10999GD12995+0450099GD21995+0750093GD30995+9999999GD40995+9999999GF104025999999999999999999MA1100981999999MW1001EQDN01 00000JPWTH 1QNNE11 1 00299E11 1 00199E11 1 00099E11 1 00099G11U1 99999K11 1 00057L11 1 01000N11 1 00000S11 1 00070V11 1 00502X11 1 18012
0085038630999991981090422004+50667-001583AERO +008699999V0200901N00411220001CN0100001N9+99999+99999999999ADDAG10999AY101999GA1021+030009039GF103991999999999999999999MW1021EQDQ01+000003PRSWM2
0064336780999991981070200004+48150+028300FM-12+017399999V0203101N00401220001CN0170001N9+01601+01001101421ADDAG11000AY121999GF106991021001999999031011MD1210121+9999MW1021
0123878600999991981031214004-45783-067450FM-12+0046SAVC V0202001N01021009001CN0300001N9+00901+00201100861ADDAG10999AY121999GA1031+007509089GA2051+009009059GF108991081081008001999999MD1210291+9999MW1021REMSYN01883825 85630 1008,5
0141718810999991981092003004+53583-116450SAO  +0921YET  V0202801N003610120019N0480001N1+01001+00401101081ADDAG10000GD12991+0060099GD24991+0120099GF108991999999999999999999MA1101021090401MD1110071+9999MW1001REMAWY012SC1SC9 107 ?EQDQ01+999990APOSP 
0078161580999991981102710204+43667+010383FM-15+0002LIRP V0202201N00611006001CN0050001N1+00901+00701999999ADDAG12999GA1041+002409089GA2041+006009059MA1099901999999MW1601REMMET006NOSIG?
0075067000999991981081111504+46250+006133FM-15+0416LSGG V0201101N00361220001CN0112001N1+02001+01001999999ADDAG12000GA1021+013509089MA1101591999999REMMET006NOSIG?EQDQ01+000000PRSWM2
0060162390999991981080716504+41800+012583FM-15+0101LIRA V0202201N00251220001CN0112001N1+03301+01901999999ADDAG12999GA1011+006009089MA1101491999999EQDQ01+000000PRSWM2
0036030710999991981072309004+57333-003633FM-12+033599999V02099999999999999999N9999999N9+00901+00701101031ADDAG12000MD1310191+9999REMSYN003AWS
0057724237999991981022503004+37750-087167SAO  +0124OWB  V0209991C000012200019N0400001N1+99999+99999999999ADDAG10000GF100991999999999999999999MA1101691999999MW1001
0050011450999991981030112004+68350+013967FM-12+001599999V0201501N00461007501CN0500001N9+00201-00101999999ADDAG12000AY121999GF106991051091008001041001MW1101
0076711380999991981011710004+51267-102467SAO  +0498YQV  V0202501N001012200019N0240001N1-01001-01201102761ADDAG10999GF100991999999999999999999MA1102371096471MW1001EQDQ01+999990APOSP 
043272564024018198105011500C+41150-104817SAO  +1867CYS  V0202205N002652200059N1440005N1+01445+00445101785ADDAA101000095AG10000GA1999+076204004GA2999+999999999GA3999+999999999GA4999+999999999GD10005+9999999GD20005+9999999GD30005+9999999GF100005999001999999001991MA1102341081615MD1810031+9999MW1001REMAWY023FEW CI ALQDS/ 803 1001?EQDN01 00000JPWTH 1QNNE11 1 00000E11 1 00000E11 1 00000E11 1 00000G11U1 99999H11 1 32250H11 1 00999H11 1 00999H11 1 00999K11 1 00040L11 1 09000M11 1 24100N11 1 00000Q11 1 10178S11 1 00058V11 1 00000X11 1 22005
0102725046147071981090100004+41333-072050SAO  +0006GON  V0200801N00251012001EN0096001N1+01891+99999999999ADDAA106000091AG10000GD13991+0120099GF107991999999999999999999MA1101961999999MW1451EQDQ01  00003PRCP99
0166471070999991981071110304+37750+128950FM-15+0006RKNN V0209991C000010060019N0048001N1+02001+01901999999ADDAG12999GA1031+004509079GA2061+006009059GA3081+021009049MA1101081999999REMMET065CIG020/          ?     1RA         ?     02 S S  WR17/QFF1012PT2?EQDQ01+000000PRSWM2
0089353580999991981091212004+49633+063500FM-12+012399999V0202301N00701036001CN0500001N9+02701+00701101481ADDAA199000091AG10000AY121999GF108991011011017501031091MD1710171+9999MW1021REMSYN005700//
0064318320999991981070815004+46800+134267FM-12+006299999V0209991C00001220001CN0070001N9+01301+01201100421ADDAG12000AY111999GF100991001001999999001001MD1710081+9999MW1101
0087911975999991981101502004+19750-156050SAO  +0013KOA  V0202301N005110240019N0240001N1+99999+99999999999ADDAG10999GD12991+0105099GD23991+0240099GF107991999999999999999999MA1101221999999MW1001
0058338980999991981012903004+45850+029617FM-12+004099999V0200201N01601004201CN0100001N9-00101-00301102901ADDAG12002AY181999GF108991081091004501999999MD1310061+9999
0143306170999991981092200004+53167+103083FM-12+059899999V0201201N00401075001CN0100001N9+00201-00201101191ADDAA199000091AG10000AJ100009199999999AY111999GF106991001001999999001021IA1089IA2999-00109KA1999N+00101MD1710131+9999MW1121REMSYN01170001 25110
0064122720999991981021303004+53767+020417FM-12+013399999V0203601N00101004201CN0030001N9-00301-00301101721ADDAG12001AY181999GF108991081091004501999999MD1210121+9999MW1851
0117724917232331981122100384+36667-121600SAOSP+0023SNS  V0202801N00511003901EN0160001N1+99999+99999999999ADDAA106000091AG10000GD13991+0039099GD23991+0180099GF107991999999999999999999MA1101901999999MW1001EQDQ01  00003PRCP99
010172595524259198103241700D+41783-122467SAO  +0809SIY  V0209991C00001060001EN0720001N1+00561+00171102251ADDAA101000095AG10999GD14991+0600099GF108991999999999999999999MA1102201999999MW1001REMAWY009FEW CU W?
0102345350999991981052506004+48333+040283FM-12+005799999V0203201N00201090001CN0100001N9+01801+01001102051ADDAA199000091AG10000AY121999GF107991031001999999031021KA1999N+01301MD1210041+9999MW1031REMSYN00570013
0116036030999991981061610004+51867-005133FM-12+0111EGDA V0203201N00821013501CN0300001N9+01201+00601102621ADDAG12999AY121999GA1011+005109089GA2061+013509059GF107991061081004501041011MD1010051+9999MW1021REMSYN01181817 86645
0047112310999991981090321504+46650+014350FM-15+0448LOWK V0209991C00001018001CN0112001N1+01201+00801999999ADDAG12999GA1071+018009059MA1102611999999MW1211
0121590720999991981072606004+24783+112383FM-12+009899999V0203401N00101007501CN0300001N9+03101+02501100471ADDAA106002091AG10002AY181999GF107991061031008001061999KA1999N+02501MD1710191+9999MW1151REMSYN005/0225EQDQ01  00203PRCP99
0099560290999991981021121004+33000+097017FM-12+370499999V0209991C00001220001CN0300001N9-01401-02201999999ADDAG11000AY101999GF100991001001999999001001MA1999999064291MD1710101+9999MW1021REMSYN01166429 05357
0064235890999991981020906004+64217+093800FM-12+010299999V0209991C00001075001CN0100001N9-03001-03301101951ADDAG12001AY171999GF108991031001999999031071MD1710121+9999MW1711
0143258210999991981102200004+61950+158967FM-12+002399999V0203401N00901220001CN0200001N9-00801-01501100821ADDAA199000091AG14002AY181999GF103991011011008001031021IA1189IA2999-01009KA1999N-01001MD1610011+9999MW1011OA199901401REMSYN01770060 91114 26051
0058073740999991981112106004+46167+003400FM-15+0249LFLV V0202001N00201999991CY0099001N1+00301+00101999999ADDAG12000MA1102911999999REMMET005CAVOKEQDQ01+000000PRSWM2
0062162890999991981101920004+40883+014300FM-15+0072LIRN V0209991C00001220001CN0090001N1+01901+01901999999ADDAG11999GA1011+005109089MA1101801999999MW1101REMMET006NOSIG?
0079037760999991981051012204+51150-000183FM-15+0062EGKK V0203001N00201002701CN0112001N1+01201+01001999999ADDAG12001GA1021+001809079GA2051+002709089GA3051+024009039MA1100511999999MW1211
030972636014840198110161600C+43167-086233SAO  +0190MKG  V0203305N00265006714MN0160005N1+01115+00725102505ADDAA101000095AG10999GD13995+0066099GD20995+9999999GD30995+9999999GD40995+9999999GF106065999999999999999999MA1102471100145MW1001EQDQ01+999990APOSP N01 00000JPWTH 1QNNE11 1 00499E11 1 00099E11 1 00099E11 1 00099G11 1 00022K11 1 00045L11 1 01000M11 1 29570N11 1 00000Q11 1 10250S11 1 00052V11 1 00707X11 1 33005
0102476750999991981090903004+34767+139383FM-12+019199999V0200401N008219999999N0200001N9+01901+01701100871ADDAA199033091AG10003AY181999GF108991041999999999999999KA1999N+01701MD1010061+9999MW1021REMSYN00573317
043372543094822198111250300C+42200-089100SAO  +0221RFD  V0209995900005045724MN0128005N1-00285-00445102085ADDAA101000095AG10000GA1999+045724034GA2999+076204024GA3999+999999999GA4999+999999999GD13055+0450099GD23025+0750099GD30005+9999999GD40005+9999999GF107065999001999999051991MA1102001099295MD1110021+9999MW1001REMAWY009102 1058?EQDN01 00000JPWTH 1QNNE11 1 00406E11 1 00403E11 1 00000E11 1 00000G11 1 00150H11 1 23150H11 1 37250H11 1 00999H11 1 00999K11 1 00024L11 1 00800M11 1 29320N11 1 00000Q11 1 10208S11 1 00027V11 1 00908X11 1 00000
0139710730999991981072404004+62717-109167SAO  +0160WFL  V0203601N003612200019N0240001N1+01401+00301102281ADDAG10999GD12991+0150099GD22991+0270093GD32991+0720093GF102991999999999999999999MA1102201100221MW1001REMAWY009SC2ACCI1?EQDQ01+999990APOSP 
0100467630999991981110217004+24017+121617FM-15+0015RCYU V0202601N002010120019N0112001N1+02101+01901999999ADDAG12999GA1021+003609079GA2081+012009059MA1101691999999REMMET0153002INS CIG040?EQDQ01+000000PRSWM2
0116031620999991981122308004+55317-003200FM-12+024299999V0203101N00101009001CN0100001N9-00701-00901100121ADDAG12999AY111999GA1021+003009079GA2051+009009059GF107991061051004501071999MD1510071+9999MW1031REMSYN01182710 85630
0047100220999991981030701004+54800+008950FM-15+0007EDNL V0202201N00561000151CN0002001N1+00301+00301999999ADDAG11999GA1091+000159999MA1100611999999MW1471
0087725185147501981030810004+43350-073617SAO  +0100GFL  V0203601N002010105019N0240001N1+00111-00101101961ADDAG10999GD12991+0060099GD24991+0105099GF108991999999999999999999MA1101931999999MW1001
0144719200999991981080923004+57350-107133SAO  +0499WFN  V0202701N006612200019N0224001N1+03201+00601101401ADDAG10999GD16991+0001599GD22991+0240099GD33991+0780093GF107991999999999999999999MA1101391095531MW1001REMAWY014K1CU1CI1 SMK ?EQDQ01+999990APOSP 
0058115180999991981082304004+50100+014250FM-15+0369LKPR V0202501N00611999991CY0099001N1+01101+01001999999ADDAG12999MA1101191999999REMMET005CAVOKEQDQ01+000000PRSWM2
0047471220999991981022721004+37083-127033FM-15+0012RKSO V0209991C00001220001CN0080001N1-00801-01201999999ADDAG12000GA1011+075009009MA1103181999999MW1051
0099524240999991981072100004+40550+095800FM-12+117799999V0209991C00001220001CN0300001N9+01801+00901100831ADDAG11000AY101999GF100991001001999999001001MA1999999088231MD1210161+9999MW1021REMSYN01168823 00201
041172407093730198111071500C+39450-074567SAO  +0020ACY  V0203005N009850121949N0192005N1+00675+00065100355ADDAA101000095AG10003GA1999+006104154GA2999+012194064GD12035+0060099GD24055+0120099GD30995+9999999GD40995+9999999GF108085999081999999999999MA1100341100105MD1210151+9999MW1805OC101231REMAWY033PCPN VRY LGT     ?    21500 18//?EQDN01 02300JPWTH 1QNNE11 1 00204E11 1 00606E11 1 00099E11 1 00099G11 1 00040H11 1 17020H11 1 15040K11 1 00033L11 1 01200M11 1 29560N11 1 02300Q11 1 10035S11 1 00044V11 1 01010X11 1 30019
0094486470999991981022505304+03117+101550FM-15+0027WMKK V0203401N00411042001CN0112001N1+02501+02301999999ADDAG12003GA1011+002409079GA2031+009009059GA3071+042009039MA1101291999999MW1211REMMET006NOSIG?
0195946380999991981082501003-33817+121883FM-12+002499999V0202801N00201012001CN0150001N9+01301+01201101461ADDAA124999999AA299000291AG10999AY181999GA1055+006005085GA2035+015005065GF107991071081008001999999KA1999M+99999MA1999999101155MD1210201+9999MW1805REMSYN00579212EQDQ01  00002PRCP24Q02 +01202ATMX  
0082726358999991981051920004+41717-086900SMARS+017718C  V0203601N00771220001CN0129001N9+01051+99999102061ADDAG10999GF104991999999999999999999MW1001SA1+0999REMSYN02302    MICHIGAN    CITY?
0064300740999991981111006004+59900+117583FM-12+016299999V0209991C00001030001CN0100001N9-00202-01301101131ADDAG12001AY171999GF108991081001999999011999MD1710151+9999MW1711
0079875440999991981031621004-35850-061867FM-12+0086SAZP V0209991C00001036001CN0150001N9+02101+01001101561ADDAG10999AY111999GF105991051001999999051001MD1710291+9999MW1031REMSYN0061015.6
0125911890999991981081320004+20933-156700SAO  +0003HKP  V0201901N002512200019N0320001N1+02781+02171101771ADDAG10999GD12991+0750093GF102991999999999999999999MA1101761101721MW1001REMAWY009FEW CU20?EQDQ01+999990APOSP Q02+032002VODIS 
0160477430999991981062903004+35500+133233FM-15+0008RJOH V0202801N00361004501CN0112001N1+02201+02001999999ADDAG11003GA1031+002409089GA2061+004509089GA3071+009009089MA1100851999999MW1801REMMET072088/ FCS         ?     T     ?     0309 98036 3000 5CU008 6CU015 7CU030?
027872297023129198110180700C+33817-118150SAO  +0008LGB  V0201405N002152200059N0320005N1+01565+00785101805ADDAA101000095AG10999GD10995+9999999GD20995+9999999GD30995+9999999GF100005999999999999999999MA1101801101665MW1001EQDN01 00000JPWTH 1QNNE11 1 00099E11 1 00099E11 1 00099E11 1 00099G11U1 99999K11 1 00046L11 1 02000M11 1 30020N11 1 00000Q11 1 10180S11 1 00060V11 1 00000X11 1 14004
0078376610999991981053015004+41217+047167FM-12+063699999V0203601N00101220001CN0100001N9+02301+01101999999ADDAG11000AY111999GF103991999091012501001001MD1710261+9999MW1031REMSYN00595870
0064335360999991981073012004+49017+025783FM-12+027999999V0202701N00401220001CN0180001N9+02001+01301101641ADDAG11000AY121999GF105991031031008001001011MD1210031+9999MW1031
0102315130999991981081200004+50917+128467FM-12+017899999V0201101N00201007501CN0500001N9+01801+01401100631ADDAA199000091AG10000AY121999GF108991081051008001999999KA1999N+01601MD1210021+9999MW1021REMSYN00570016
0094253780999991981060921004+66350-179117FM-12+001599999V0201501N00301004801CN0100001N9+00301+00201100711ADDAG11000AY121999GA1061+004809079GF108991061061004501071999MD1310041+9999MW1021REMSYN00586716
0390725097147901981072205003+42150-070933SAO  +0048NZW  V0202205N00155009144EN0016005N1+02175+01945100465ADDAG10999GA1999+009144999GA2999+999999999GA3999+999999999GA4999+999999999GD13075+0090099GD20005+9999999GD30005+9999999GD40005+9999999GF107995999999999999999999MA1100441099865MW1455EQDN01 07000JPWTH 1QNNE11 1 00409E11 1 00000E11 1 00000E11 1 00000G11 1 00030H11 1 99030H11 1 00999H11 1 00999H11 1 00999K11 1 00067L11 1 00100M11 1 29490N11 1 07000Q11 1 10046S11 1 00071V11 1 00999X11 1 22003
010694326599999198112262030N-23820+133900AUST +0545YBAS V0209999C000059999999N999999999+01855+00305999999ADDAY134999GA1005+999999999GA2015+999999045GA3055+999999999GF105995004999999999035025MA1999999094765MW1035
0072727676240131981073101004+48267-101283SAO  +0523MOT  V0203501N005112200019N0320001N1+02441+01721100681ADDAG10999GD12991+0210099GF102991999999999999999999MA1100781999999MW1001
0129710680999991981060322004+56233-117433SAO  +0571YPE  V0202701N007712200019N0240001N1+02201+00301100201ADDAG10999GD12991+0180099GD23991+0750093GF107991999999999999999999MA1100141093531MW1001REMAWY014CU3CI2 CB NE ?EQDQ01+999990APOSP 
0159209670999991981101706004+70150+072517FM-12+001699999V0201601N01001000301CN0005001N9+00001+00001101901ADDAA199000091AG14000AY151999GA1091+999999999GF109991091999999999999999IA1189IA2999-00209KA1999N-00201MD1710081+9999MW1451OA199901501REMSYN01770052 91115 25252
0099534630999991981122221004+40817+111683FM-12+106599999V0209991C00001220001CN0080001N9-01901-02101103691ADDAG11000AY101999GF100991001001999999001001MA1999999090201MD1710021+9999MW1041REMSYN01169020 00100
0129999999999991981100112004+28000-088300FM-13+0000GWHQ V0201301N00511220001CN0200001N9+02721+02301101731ADDAG11000AY101999GF101991011011004501001001MD1210091+9999MW1021SA1+2809UA1M030109999UG1060201009REMSYN0230//23 12802 30302 10604
0064297360999991981092521004+54333+084217FM-12+019899999V0201801N00301030001CN0180001N9+00501+00001102451ADDAG11000AY121999GF108991081001999999071999MD1710181+9999MW1021
0058062400999991981080604254+52300+004767FM-15-0004EHAM V0200101N00301220001CN0015001N1+01801+01601999999ADDAG11999ED119U14939GA1011+075009009MA1101691999999MW1271
0064094740999991981032711004+51883+012650FM-12+010499999V0202801N00701220001CN0250001N9+01001+00301101731ADDAG12999AY121999GF106991031021008001001011MD1210041+9999MW1031
0092725287047241981011805004+43100-078950SAO  +0180IAG  V0202001N00411005101MN0112001N1-01161-01491101911ADDAG10999GD13991+0051099GF107991999999999999999999MA1101801999999MW1711REMAWY011LSR18P DRY?
0126164200999991981072014004+38200+015550FM-15+0051LICF V0200101N00361012001CN0112001N1+99999+99999999999ADDAG12999GA1021+009009089GA2031+012009059REMMET056BKN QUK2 QUL1 NE MON CLD CIME VIS        ?     MAR 16KM?EQDQ01+000000PRSWM2
0250466860999991981012500004+25083+121233SY-MT+0023RCTP V0200401N01081002101CN0070001N1+01501+01201102641ADDAA199999929AY161999GA1021+001509079GA2061+002109079GA3081+006009059GF108991081061001501999999KA1999N+01401MA1102611999999MD1210201+9999MW1601REMSYN04379714 82705 86707 88620 QNH   3030I N     SMET0483030       ?     VIS SW 9KM AND MAX WND 29KT NOS
0138033220999991981061121004+53550-002917FM-12+005699999V0203001N00301012001CN0100001N9+01101+01101101521ADDAG12001AY161999GA1021+003009079GA2051+012009059GA3081+030009049GF108991051051004501071999MD1210231+9999MW1211REMSYN01782710 85640 88460
0064353450999991981041409004+49983+061483FM-12+023599999V0203401N01001007501CN0200001N9+00401-00301100931ADDAG11000AY121999GF108991081091008001999999MD1210311+9999MW1021
0064931190999991981050615004-37017+174800FM-12+0007NZAA V0200601N00921090001CN0500001N9+01701+01201102051ADDAG10999AY121999GF107991011051012501001021MD1810051+9999MW1031
0047123750999991981102300004+52183+020983FM-15+0110EPWA V0201501N00411015001CN0050001N1+01501+01201999999ADDAG12002GA1071+015009059MA1100101999999MW1611
0056274790999991981121209004+56350+046567FM-12+011499999V0202001N00201030001CN0110001N9-00301-00401102231ADDAG12005GF108991081001999999021999MD1210371+9999MW1181
0070999999999991981092912004+33400+122500FM-13+0000BPKO V0200201N00601220001CN0200001N9+01901+99999101491ADDAG12000GF100991001001999999001001MD1310171+9999MW1001REMSYN00540206
0084766790999991981012220003+19433-099067SAO  +2234MEX  V0202001N010212200019N0240001N1+01801+00001999999ADDGD12991+0075019GF102991999999999999999999MA1102201077941MW1001EQDQ01+999990APOSP 
0126999999999991981051206004-23000-171000FM-13+0000WPGK V0201101N00151036001CN0200001N9+02301+02101101521ADDAG10999AY121999GF108991031081004501021999MD1210151+9999MW1031SA1+2449UA1M010059999UG1080201309REMSYN0200//21 12449/40    48
0079025500999991981031307204+57767+014083FM-15+0226ESSJ V0202001N00461009001CN0112001N1-00401-00701999999ADDAG12999GA1021+003609059GA2031+009009059GA3071+021009059MA1099801999999MW1221
0089983240999991981082721004+15333+119967FM-12+000399999V0202201N00301045001CN0250001N9+02501+02501100691ADDAA199002091AG10000AY121999GF107991031081004501071011MD1410001+9999MW1021REMSYN005702//
0089357210999991981090600004+47033+055133FM-12+004599999V0209991C00001220001CN0200001N9+01801+00701101911ADDAA199000091AG10000AY101999GF100991001001999999001001MD1710031+9999MW1021REMSYN005700//
0106478500999991981061619004+31350+130833FM-15+0068RJFY V0201201N00201012001CN0112001N1+02301+02201999999ADDAG12999GA1021+007509089GA2041+012009059GA3071+036009039MA1100911999999REMMET0052980?EQDQ01+000000PRSWM2
0222711230999991981100318004+53317-113583SY-SA+0723YEG  V0201701N002512200019N0240001N1+00901-00301100981ADDAA106000091AG14000AY101999GD12991+0270099GD22991+0330093GD32991+0750093GF103991021001999999081021KA1999M+00901KA2999N-00501MA1100751092381MD1110051+9999MW1031REMSYN01169238 40955AWY016ACC1AC1CI1 105 ?EQDQ01  00003PRCP99
0129233300999991981010203004+66533+066533FM-12+002499999V0202501N01501006601CN0100001N9+99999+99999099811ADDAG12001AY171999GA1051+006609059GF108991051051008001021999MD1710121+9999MW1021REMSYN00585622EQDQ01+027323ATOT  Q02+027023ATOD  
0166726626999991981042900004+44050-101600SAO  +0674PHP  V0203201N00921018001EN0320001N1+02061+00391101051ADDAA106000091AG10000GD13991+0180099GD24991+0300099GF108991999999999999999999KA1999M+02111MA1101081999999MD1710121+9999MW1001REMAWY013712 70 NOSPL?EQDQ01  00003PRCP99
0130082100999991981080412004+40650-004700FM-12+114399999V0201401N00511036001CN0500001N9+02101+01001999999ADDAA106000091AA299000291AG10000AY111999GF105991031021012501051001MA1999999089551MD1310051+9999ME1315969MW1021REMSYN01168955 792//
0064289780999991981112221004+52533+068750FM-12+039999999V0209991C00001220001CN9999999N9-02001+99999103511ADDAG11000AY101999GF100991999999999999001001MD1710161+9999MW1021
0098847820999991981050214004-18067-070267FM-15+0458SPTN V0203501N00251008101CN0112001N1+01601+01201999999ADDAG10999GA1041+005409059GA2041+008109059MA1102001999999REMMET013HZTE BRUMOSO?EQDQ01+000000PRSWM2
0064108030999991981030602004+48000+007850FM-12+026999999V0201301N00361220001CN0060001N9+00201+00001101611ADDAG11999AY101999GF100991001001999999001001MD1710071+9999MW1101
0123072490999991981092621004+47983+001750SY-MT+0126LFOJ V0202001N00771220001CN0200001N1+01301+00901100201ADDAG12000AY111999GF103991031001999999031001MA1100201999999MD1210301+9999MW1031REMSYN00583360MET005CAVOKEQDQ01+000000PRSWM2
030972557014943198109191300C+42400-096383SAO  +0334SUX  V0201105N003152200059N0240005N1+00785+00675101515ADDAA101000095AG10999GD11995+0750093GD20995+9999999GD30995+9999999GD40995+9999999GF101005999999999999999999MA1101491097535MW1001EQDQ01+999990APOSP N01 00000JPWTH 1QNNE11 1 00199E11 1 00099E11 1 00099E11 1 00099G11U1 99999K11 1 00044L11 1 01500M11 1 28800N11 1 00000Q11 1 10151S11 1 00046V11 1 00100X11 1 11006
0167036830999991981030606004+51883+000233SY-MT+0106EGSS V0201701N00361000601CN0030001N1+00401+00401100271ADDAA199003091AG10003AY161999GA1051+000609079GA2081+001809079GF108991081071000251999999KA1999N+00301MA1100201999999MD1610201+9999MW1631REMSYN02370303 82701 85702 88707
0065083600999991981120502304+38383-000517FM-15+0060LEAL V0202801N00921999991CY0099001N1+01301-00401999999ADDAG11000MA1101901999999REMMET012CAVOK NOSIG?EQDQ01+000000PRSWM2
0104722535129091981032022004+29383-098583SAO  +0210SKF  V0201601N00611075001EN0320001N1+02171+00891100751ADDAG10999GD13991+0750099GF107991999999999999999999MA1100811999999MW1001OC101021REMAWY015PK WND 1627/35?
0158388380999991981103003004+37967+068650FM-12+064099999V0200601N00101220001CN0500001N9+00401-00201999999ADDAA199000091AG10000AJ100009199999999AY101999GF103991021001999999031021IA1009IA2999+00009KA1999N+00201MA1999999093051MD1310111+9999MW1021REMSYN01170002 25000
0095725565999991981052423004+41450-097350SAO  +0440OLU  V0202801N005112200019N0112001N1+02561+00061999999ADDAG10999GD12991+0090099GD22991+0300099GF102991999999999999999999MA1100981999999MW1001OC100771
0122717094999991981040413004+47417-061783SAO  +0057YGR  V0201801N013812200019N0128001N1+00401+00101101211ADDAG10999GD12991+0120099GD22991+0450099GD34991+0690093GF108991999999999999999999MA1101221999999MW1001REMAWY011SC1AC2CI2 ?
0107934340999991981122711004-41283+174767FM-12+012799999V0201801N00361000301CN0100001N9+01601+01501102471ADDAA106999929AG10999AY111999GF108991081051000251999999KA1999M+02201MD1110151+9999MW1501EQDQ01  99993PRCP99
0064254000999991981042503004+65733+150900FM-12+004399999V0201601N00301220001CN0500001N9+00001-00801101301ADDAG11000AY111999GF102991001001999999001011MD1710061+9999MW1021
0064350850999991981061121004+52000+070950FM-12+038499999V0209991C00001220001CN0200001N9+01201+01101101211ADDAG12000AY101999GF103991031001999999031001MD1810011+9999MW1021
033872243012960198104141400C+29967-095350SAO  +0029IAH  V0200705N003650762049N0013005N1+02065+01895102405ADDAA101000095AG10999ED108U18289GD16995+0001599GD24995+0750099GD30995+9999999GD40995+9999999GF108085999999999999999999MA1102401102035MW1455REMAWY009R08VR60+?EQDQ01+999990APOSP N01 07000JPWTH 1QNNE11 1 00899E11 1 00699E11 1 00099E11 1 00099G11 1 00250K11 1 00066L11 1 00081M11 1 30130N11 1 07000Q11 1 10240S11 1 00069V11 1 01010X11 1 07007
0100800770999991981121112004+08317-073317FM-12+117399999V0209991C00001045001CN0200001N9+99999+99999999999ADDAA124000091AG14000AY121999GF108991031061008001011999MW1021REMSYN0116//// 700//EQDQ01  00003PRCP99
0058160590999991981102303504+45217+007650FM-15+0287LIMF V0209991C00001999991CY0099001N1+00101-00201999999ADDAG12999MA1101081999999REMMET005CAVOKEQDQ01+000000PRSWM2
0064308110999991981120403004+51733+102533FM-12+072299999V0209991C00001220001CN0200001N9-02401-02501103281ADDAG12000AY111999GF102991001001999999001021MD1710081+9999MW1401
0117377530999991981080106004+41067+048617FM-12+106799999V0202301N00401220001CN0500001N9+02401+00701999999ADDAA199000091AG10000AY101999GF100991001001999999001001KA1999N+01501MA1999999091521MD1210021+9999MW1021REMSYN00570015
0298723100138831981053104003+33983-081000SAO  +0069CAE  V0200205N00365011894MN0112005N1+02565+01945101265ADDAG10999GD13995+0117099GD24995+0750099GD30995+9999999GD40995+9999999GF108075999999999999999999MA1101291100475MW1001EQDQ01+999990APOSP N01 00000JPWTH 1QNNE11 1 00499E11 1 00699E11 1 00099E11 1 00099G11 1 00039K11 1 00067L11 1 00700M11 1 29670N11 1 00000Q11 1 10126S11 1 00078V11 1 01009X11 1 02007
0107230580999991981011503004+69100+076833FM-12+001599999V0201801N00801220001CN0100001N9-02401-02601102001ADDAG11000AY131999GF100991001001999999001001MD1210021+9999MW1371REMSYN034YZ2060818-&QGQ    IATYO ITTX  693/
0065724028999991981020418004+37267-076017SMARS+0002W51  V0202701N00511220001CN0148001N9-00551+99999101891ADDAG10999GF101991999999999999999999MW1001REMSYN014CAPE  CHARLES?
0090106260999991981053108504+49850+007600FM-15+0396EDSP V0201701N00201220001CN0112001N1+02201+01401999999ADDAG12000GA1011+007509089GA2031+999999009MA1101691999999REMMET005BLU+?EQDQ01+000000PRSWM2
0118151080999991981121321004+46933+025917FM-12+189799999V0200501N02001000151CN0000001N9-01501-01501999999ADDAG12001AY171999GA1091+999999999GF109991091999999999999999MA1999999078551MD1710091+9999ME1313059MW1711REMSYN00567855
0158161400999991981062212004+44533+011300FM-12+0049LIPE V0203501N00251006001CN0060001N9+01301+01101101331ADDAA106999929AG10000AY121999GA1041+002109089GA2031+006009059GF108991071071002501021999MD1710031+9999MW1501REMSYN023797// 84807 83620 506/2EQDQ01  99993PRCP99
0091081810999991981050205004+41283+002067FM-15+0004LEBL V0203301N00611220001CN0112001N1+01101+00801999999ADDAG12999GA1021+006009059GA2031+021009039MA1100911999999REMMET006NOSIG?EQDQ01+000000PRSWM2
0101478700999991981032902074+30533+130967FM-16+0096RJFG V0200801N00771001801CN0112001N1+99999+99999999999ADDAG11999GA1021+001209079GA2051+001809079GA3071+004509089REMMET015(WIND 030V120)?EQDQ01+000000PRSWM2
0114377890999991981010512004+40133+044467FM-12+090799999V0209991C00001220001CN0040001N9+00301-00101999999ADDAA106000091AG10000AY141999GF104991041001999999051001MD1710031+9999MW1101REMSYN011700// 95990EQDQ01  00003PRCP99
0063032635999991981033118504+54517-001417FM-15+0037EGNV V0200401N00511003601CN0020001N1+00501+00301999999ADDAG12999GA1051+003609079GA2061+004509059MA1101801999999MW1101
0219717310999991981061212004+46367-079417SY-SA+0370YYB  V0202201N00101030001AN0240001N1+01301+01001101481ADDAA106000091AG10000AY111999GD13991+0300099GD24991+0750099GF108991051001999999051071KA1999M+02001KA2999N+01001MA1101461097081MD1310011+9999MW1031REMSYN01169708 42010AWY012AC6CS2 301 ?EQDQ01+000003PRSWM2Q02  00003PRCP99
0108110210999991981120906004+48967+015033FM-12+057099999V0202301N00251220001CN0100001N9+00101-00501999999ADDAA199003091AG10001AY161999GF104991041081008001001001KA1999N+00101MD1310281+9999MW1011REMSYN01170301 51500
0064014700999991981051109004+59383+009183FM-12+002499999V0203501N00251075001CN0600001N9+02001+00901101891ADDAG12000AY111999GF107991011021017501001071MD1410001+9999MW1101
0078167180999991981031713204+38067+023550FM-15+0031LGEL V0202001N00411060001CN0090001N1+02101+01501999999ADDAG11999GA1031+030009039GA2061+060009009MA1101081999999MW1051REMMET006NOSIG?
0091083600999991981042616304+38283-000550FM-15+0031LEAL V0203101N00921060001CN0112001N1+01701+00001999999ADDAG12999GA1011+012009089GA2071+060009009MA1101491999999REMMET006NOSIG?EQDQ01+000000PRSWM2
0046082840999991981061622304+39500-000467FM-15+0065LEVC V0209991C00001220001CN0090001N1+02401+01801999999ADDAG11999MA1101391999999MW1061REMMET006NOSIG?
0095788078999991981072223004+08383-080117FM-15+0030MPRH V0201001N00301090001CN0112001N1+99999+99999999999ADDAG12999GA1011+007509089GA2051+090009009MA1101051999999REMMET010DSNT CB N?EQDQ01+000000PRSWM2
0138999999999991981093000004-16900-080400FM-13+0000UKGJ V0201301N00501007501CN0200001N9+01831+99999101871ADDAG10999AY121999GF108991081051008001001001MD1410001+9999MW1021SA1+1789UA1M030159999UG1990009999WA1900009REMSYN02311783 20000 30303 00/00
0155726055999991981020319004+43083-070817SAO  +0031PSM  V0202701N006110210019N0480001N1-00211-01381101171ADDAG10999GD12991+0120099GD23991+0210099GD33991+0540099GF107991999999999999999999MA1101151999999MW1001OC101021REMAWY036VIRGA ALQDS AND SWU NW-NE WND 24V31?
0045072650999991981082114004+47800+003550FM-15+020799999V0200401N00201006901CN0112001N1+99999+99999999999ADDAG12999GA1051+006909089EQDQ01+000000PRSWM2
0122713990999991981082917004+43717-065250SAO  +0028WOS  V0202601N005612200019N0160001N1+02301+01301102611ADDAG10999GD12991+0120099GD22991+0840093GF102991999999999999999999MA1102611102241MW1001REMAWY007CU1CI ?EQDQ01+999990APOSP 
0064572970999991981102115004+32117+114083FM-12+007799999V0203401N01001002101CN0080001N9+01301+01301102301ADDAG12002AY161999GF108991081071002501999999MD1210371+9999MW1601
0125477380999991981073004004+33117+139783FM-15+0091RJTH V0201201N00561003601CN0112001N1+02701+02401999999ADDAG12999GA1051+003609089GA2071+005109089MA1101021999999OC101331REMMET0322985 (WIND 080V19      ?     0)?EQDQ01+000000PRSWM2
0064245850999991981050715004+64567+143267FM-12+052399999V0202401N00401220001CN0400001N9-00501-01301100831ADDAG11000AY111999GF103991011041017501001011MD1210201+9999MW1021
0097373950999991981021209004+42267+042633FM-12+011699999V0200901N00401036001CN0200001N9+00701+99999102291ADDAG12000AY121999GF108991041051001501071999MD1210091+9999MW1021REMSYN00595980EQDQ01+024123ATOD  
0072744900147021981042722004+42467-071283SAO  +0045BED  V0203301N005112200019N0480001N1+99999+99999999999ADDAG10999GD12991+0180099GF102991999999999999999999MA1101051999999MW1001
0085030290999991981062903004+56733-006217AERO +001299999V0209991C00001024001CN0500001N9+99999+99999999999ADDAG10999AY121999GA1081+024009049GF108991999999999999999999MW1031EQDQ01+000003PRSWM2
0064476350999991981122119304+35250+136933FM-15+0016RJNN V0201101N00051999991CY0099001N1+00001-00301999999ADDAG12999MA1102301999999REMMET011CAVOK 3022?EQDQ01+000000PRSWM2
0064475420999991981040906004+40750+140717FM-15+0201RJSA V0209991V00151999991CY0099001N1+01301-00301999999ADDAG11000MA1102001999999REMMET011CAVOK 3013?EQDQ01+000000PRSWM2
0113722908999991981091712004+32867-117150SAO  +0147NKX  V0201001N000512200019N0064001N1+01781+01611101371ADDAA106000091AG10000GF100991999999999999999999MA1101491999999MW1451REMAWY017F BNK SE-W 50 63?EQDQ01  00003PRCP99
0065173500333081981102602004+36983+035300FM-15+0066LTAG V0209991C00001999991CY0099001N1+01601+01601999999ADDAG11999MA1102001999999REMMET012CAVOK NOSIG?EQDQ01+000000PRSWM2
0064315610999991981113006004+50600+137083FM-12+001999999V0202001N00301075001CN0100001N9-02301-02701103251ADDAG12001AY171999GF108991001001999999001071MD1410001+9999MW1711
0072722908999991981021219004+32867-117150SAO  +0147NKX  V0203101N000512200019N0064001N1+02061+01331102171ADDAG10999GD12991+0600099GF102991999999999999999999MA1102271999999MW1051
0079034185999991981122622504+52833-001317FM-15+0095EGNX V0201201N00821001201CN0035001N1+00101+99999999999ADDAG12999GA1051+001209079GA2081+001809079MA1100611999999MW1051REMMET007276015?
0269999999876011981022812005-77883+166733SAO  +0024NZCM V0200905N005250121949N072000599-00675-01785099575ADDGD14995+9999999GD20995+9999999GD30995+9999999GD40995+9999999GF108085999999999999999999MA1999999099155EQDN01 00000JPWTH 1QNNE11 1 00699E11 1 00099E11 1 00099E11 1 00099G11 1 00040K11 1 00000L11 1 04500M11 1 29280N11 1 00000Q11 1 09957S11 1 00020V11 1 01010X11 1 09010
0363722067938321981083104003+30217-081883SAO  +0027NZC  V0203405N001050024449N0048005N1+02445+02335101375ADDAG10999GA1999+001224999GA2999+002444999GA3999+009144999GD12025+0012099GD23075+0024099GD34085+0090099GD40995+9999999GF108995999999999999999999MA1101391101125MW1455EQDN01 07000JPWTH 1QNNE11 1 00203E11 1 00409E11 1 00610E11 1 00099G11 1 00008H11 1 99004H11 1 99008H11 1 99030K11 1 00074L11 1 00300M11 1 29860N11 1 07000Q11 1 10137S11 1 00076V11 1 01099X11 1 34002
0116475690999991981020700004+38133+140933FM-15+0005RJSS V0202301N00101220001CN0112001N1+00201-00301999999ADDAG11000GA1011+015009089MA1101391999999REMMET0472994 FCST 0006 GRADU 0304          ?     33010?EQDQ01+000000PRSWM2
0108107715999991981110217004+49217+011833FM-15+0442EDIH V0202801N003010027019N0037001N1+01101+00901999999ADDAG12999GA1041+002109059GA2081+002709059MA1102541999999MW1611OC101081REMMET028CIGE009          ?     LAST?
0072476710999991981082710304+35550+139767FM-15+0006RJTT V0202201N00971999991CY0099001N1+02801+02201999999ADDAG12999MA1100311999999OC101491REMMET011CAVOK 2964?EQDQ01+000000PRSWM2
0122999999999991981011618004-18600+154500FM-13+0000PGCY V0201501N00411220001CN0200001N9+02561+01801100811ADDAY121999GF104991031011002501061051MD1410001+9999MW1011SA1+2589UA1M030059999UG1050151309REMSYN0230//18 12586 30301 13503
0080038090999991981021415004+50083-005250FM-12+0082EGDR V0201001N00411220001CN0150001N9+00501+00101102361ADDAG11000AY101999GA1021+005409089GF102991021081004501001001MD1810151+9999MW1051
0116032220999991981022414004+54933-002950FM-12+0026EGNC V0201001N00151075001CN0042001N9+00501-00301102801ADDAG12999AY121999GA1011+009009059GA2061+075009009GF106991011051012501031021MD1810051+9999MW1041REMSYN01181630 86075
0064295570999991981112406004+55750+088317FM-12+018999999V0200701N00101220001CN0200001N9-02101-02401103731ADDAG11000AY111999GF106991001001999999001011MD1410001+9999MW1021
029472469023062198109011000C+39750-104867SAO  +1610DEN  V0203205N002152200059N0240005N1+01285+01065101395ADDAA101000095AG10999GD10995+9999999GD20995+9999999GD30995+9999999GF100005999999999999999999MA1101961083815MW1001EQDQ01+999990APOSP N01 00000JPWTH 1QNNE11 1 00099E11 1 00099E11 1 00099E11 1 00099G11U1 99999K11 1 00051L11 1 01500M11 1 24750N11 1 00000Q11 1 10139S11 1 00055V11 1 00000X11 1 32004
0064474770999991981082406204+43800+142367FM-15+0118RJCA V0202201N00301012001CN0112001N1+99999+99999999999ADDAG12003GA1011+007509089GA2031+009009059GA3071+012009059MW1251
0161722735930261981021018004+31450-109600SAO  +1267DUG  V0203001N00561010501EN0560001N1+01111+00441101511ADDAA106000091AG10000GD13991+0105099GF107991999999999999999999KA1999N+00551MA1101831999999MD1310191+9999MW1001REMAWY023CLDS TPG MTNS W 319 42?EQDQ01  00003PRCP99
0267725266047511981091313003+41800-078633SAO  +0646BFD  V02099959000052200059N0160005N1+00945+00835101815ADDAG10999GD10995+9999999GD20995+9999999GD30995+9999999GF100005999999999999999999MA1101801094145MW1001EQDN01 00000JPWTH 1QNNE11 1 00099E11 1 00099E11 1 00099E11 1 00099G11U1 99999K11 1 00047L11 1 01000M11 1 27800N11 1 00000Q11 1 10181S11 1 00049V11 1 00000X11 1 00000
0064548520999991981110821004+36983+120583FM-12+007299999V0209991C00001220001CN0120001N9-00501-00601102971ADDAG12000AY101999GF100991001001999999001001MD1710161+9999MW1021
0139478150999991981041900004+33233+131617FM-12+001399999V0209991C000019999999N0020001N9+01201+01201101091ADDAA124008091AG10004AY121999GF108991081001999999021999KA1999N+01101MD1710251+9999MW1611REMSYN02370811 10111 11008 13002EQDQ01  00803PRCP99
0125574610999991981040500004+30700+111283FM-12+013199999V0201601N00301036001CN0090001N9+01001+00901101271ADDAA106999929AA224004091AG10002AY121999GF108991081001999999071999MD1310201+9999MW1601REMSYN011/97// 22004EQDQ01  99993PRCP99
0079172005999991981021710004+40733+030083FM-15+0049LTBQ V0202201N00201008101CN0020001N1+00001-00101999999ADDAG12999GA1041+002109079GA2061+008109059GA3081+024009049MA1101801999999MW1701
0064325400999991981031118004+53017+158717FM-12+007899999V0203601N00601220001CN0500001N9-00801-01601100531ADDAG12000AY101999GF100991001001999999001001MD1210051+9999MW1021
0091166220999991981093004204+40517+022967FM-15+0008LGTS V0200901N00201220001CN0112001N1+01501+01201999999ADDAG12999GA1011+010509059GA2031+024009039MA1101021999999REMMET006NOSIG?EQDQ01+000000PRSWM2
0080038530999991981120108004+51000-002633FM-12+0023EGDY V0209991C00001027001CN0090001N9+00101+00001102611ADDAG12999AY121999GA1061+027009039GF106991061001999999031999MD1210261+9999MW1051
0184859340999991981031021004-53033-070850SY-MT+0033SCCI V0202401N01541030001CN0112001N1+00901+00401100241ADDAG10999AY121999GA1021+009009089GA2051+030009039GF107991021011008001031001MA1100201999999MD1710211+9999MW1011REMSYN02082830 85360 99559 74MET01974         ?     W?EQDQ01+000000PRSWM2
0151999999999991981072618004-18800+057400FM-13+0000FMEE V0201701N01331220001CN0100001N9+02341+99999101731ADDAG10999AY111999GA1031+006009089GF104991041081008001001001MD1210191+9999MW1011SA1+2489UA1M010059999UG1050101409REMSYN02983820 0/?18 12484 30101 14502
0117999999999991981052003004+27200+138800FM-13+0000JRIN V0200601N002519999999N0500001N9+02751+01801101541ADDAG12000AY111999GF105991041001008001011011MD1810011+9999MW1021SA1+2509UA1M020059999REMSYN0230//18 12505 30201 /////
0136804230999991981110618004+10583-062300FM-12+0008MVGI V0201401N00251002101CN0200001N9+03001+02501100921ADDAA106000091AG10000AY111999GA1021+002109089GF106991061021002501999999MD1999999-0181MW1031REMSYN017700// 82807 999//EQDQ01  00003PRCP99
0099711000999991981020406004+54300-130883FM-12+0021WTI  V0203601N00411220001CN0450001N9+00701+00101102671ADDAG12000AY101999GF100991001001999999001001MA1999999102411MD1110011+9999MW1021REMSYN01163241 4////
0181874800999991981121100004-32917-060783SY-MT+0027SAAR V0202701N00251220001CN0112001N1+02201+01701101211ADDAA106000091AG10999AY111999GA1011+006009089GF102991011021004501001011KA1999M+02801MA1101191999999MD1310041+9999MW1021REMSYN01870028 81820 1012.1EQDQ01+000000PRSWM2Q02  00003PRCP99
007672475723176198106140900E+38433-113017SAO  +1532MLF  V02099999999999999999N999999999+00445-00285101495ADDAA101000095MA1999999084665QNNK11 1 00027M11 1 25000Q11 1 10149S11 1 00040
0162075770999991981060600004+44583+004733SY-MT+0073LFLQ V0200201N00301220001CN0300001N1+01601+01201101751ADDAA106000091AG14000AY101999GF101991001001999999001011IA1009MA1101691999999MD1510031+9999MW1021REMSYN01170000 81076MET005CAVOKEQDQ01+000000PRSWM2Q02  00003PRCP99
0064245850999991981073115004+64567+143267FM-12+052399999V0200301N00201220001CN0200001N9+00701+00601100521ADDAG11000AY111999GF106991021051017501001011MD1210031+9999MW1021
0114999999999991981040100004+44400-008400FM-13+0000USJM V0201901N008019999999N0200001N9+01231+99999101581ADDAG12000AY121999GA1091+999999999GF109991091999999999999999MD1710201+9999MW1021SA1+1509REMSYN01711503 3//// /////
0097475490999991981121001004+39433+141133FM-15+0094RJSI V0203501N00051012001CN0112001N1+00401-00301999999ADDAG11999GA1071+012009089GA2011+012009099MA1102001999999MW1261REMMET0253014 CB          ?     W?
0124101360999991981071512504+53767+008667FM-15+0023EDCN V0202701N00821010501CN0112001N1+01801+01001999999ADDAG12999GA1031+006009089GA2031+010509059GA3061+030009039MA1101801999999REMMET023BLU BLU TEMPO WHTV INC?EQDQ01+000000PRSWM2
0111999999999991981112418004+16600-100500FM-13+0000GNOY V0209991V00101220001CN0200001N9+03031+02301101261ADDAG11000AY101999GF103991031021002501001001MD1710081+9999MW1031SA1+2949UA1M000009999REMSYN0170//23 12943 30000
0074102150999991981101600504+53183+008167FM-15+0012EDNO V0202201N00201220001CN0112001N1+00301+00101999999ADDAG11999GA1031+015009059MA1101391999999REMMET005BLU+?EQDQ01+000000PRSWM2
0032071860340621981101416004+48767+007300FM-15+037799999V0201601N00101006001CN0112001N1+99999+99999999999ADDAG11999GA1081+006009059MW1611
0045703330999991981070914004+56950-158617SAO  +0029PTH  V0201501N013819999999N9999999N9+01001+00671999999ADDAG10999REMAWY00735 006?EQDQ01+000002VOVAR 
0128871620999991981091700004-26200-058233FM-12+0059SARF V0209991C00001220001CN0150001N9+01501+00901101541ADDAA106000091AG10999AY101999GF100991001001999999001001KA1999M+02201MD1310031+9999MW1041REMSYN01270022 1015.9EQDQ01  00003PRCP99
0118119300999991981081003004+49200+020217FM-12+263399999V0200501N00301048001CN0200001N9+00501+00401999999ADDAG11000AY121999GA1051+048009009GF105991001001999999001021MD1710051+9999MW1011REMSYN02985066 MONT  27070 NARAZ 01301
0092725385999991981030516004+42333-082967SMARS+017731G  V0203601N007719999999N0092001N9+00221+99999999999ADDAG10999GF107991999999999999999999MW1001REMSYN041M     M     M     PLUS  35    BELLE ISLE?
0105999999999991981031600004+16600-059700FM-13+0000ENVK V0201101N00301220001CN0200001N9+02651+99999103801ADDAG11000AY101999GF101991011001017501051001MD1510001+9999MW1021SA1+2809UA1M020059999REMSYN01112805 30201
0099569640999991981020603004+22950+101817FM-12+130399999V0209991C00001220001CN0200001N9+01601+00801102101ADDAG12000AY101999GF101991011011012501001001MA1999999087601MD1210121+9999MW1021REMSYN01168760 00200
0063061100999991981100205254+55233+009267FM-15+0040EKSP V0201401N00611002401CN0035001N1+99999+99999999999ADDAG12999GA1051+002409079GA2071+003009079MA1100101999999MW1101
0130618780999991981043012004+08100-012100FM-12+005699999V0202501N00251105001CN0250001N9+03201+02401100661ADDAA106000091AG10000AY141999GA1041+005409089GF105991041021004501001021MD1999999-0011MW1031REMSYN011700// 84818EQDQ01  00003PRCP99
0327619670707011981101102003-07300+072400SAO  +0002FJDG V0201805N001550304849N0080005N9+02395+02395101195ADDAG10999GA1021+004574084GA2081+030484044GD19025+9999999GD29085+9999999MA1101151101125MW1615REMMET007CIG100?EQDQ01+999990APOSP Q02+999990APOSLPQ03+000002VOVAR Q04+000000PRSWM2N01 02000JPWTH 1QNNE11 1 09903E11 1 09910G11 1 00100H11 1 11015H11 1 21100K11 1 00075L11 1 00500M11 1 29860N11 1 02000Q11 1 10119S11 1 00075X11 1 18003
0146105260999991981080718004+50667+007967FM-12+055599999V0202901N00301090001CN0040001N9+02101+01801101341ADDAA199000091AG10000AY111999GA1011+003909089GA2051+090009009GF106991011011004501001011KA1999M+02601MD1310041+9999MW1101REMSYN01770026 81813 85080
0065404280999991981102305004+25267+051550FM-15+0010OTBD V0203101N00101999991CY0099001N1+02801+01801999999ADDAG12999MA1101591999999REMMET012CAVOK NOSIG?EQDQ01+000000PRSWM2
0091024600999991981071922504+59650+017950FM-15+0061ESSA V0202301N00101013501CN0112001N1+01401+01301999999ADDAG12999GA1031+007509059GA2051+013509059MA1101021999999REMMET006NOSIG?EQDQ01+000000PRSWM2
0024092640999991981011803004+53317+011933FM-12+008199999V0200801N003019999999N9999999N9-00201-00301100611ADDAG12000MD1210271+9999
0097726360148401981090722054+43167-086233SAOSP+0191MKG  V0202101N00411009001EN0032001N1+99999+99999999999ADDAG10999GD14991+0090099GF108991999999999999999999MA1100951098661MW1451MW2611EQDQ01+999990APOSP 
0064095770999991981112713004+50817+012900FM-12+042099999V0202601N01501030001CN0120001N9+00401+00101101161ADDAG12999AY161999GF108991031071004501071999MD1810421+9999MW1611
0075151205999991981100808454+46783+023700FM-15+0314LRCL V0202601N00201220001CN0112001N1+01901+01501999999ADDAG12000GA1011+012009089MA1102401999999REMMET006NOSIG?EQDQ01+000000PRSWM2
0079389540999991981040321004+37500+071517FM-12+212099999V0202901N00301090001CN9999999N9+00401-00901999999ADDAG12000AY121999GF108991001001999999001071MA1999999081511MD1110021+9999MW1021
0132718640999991981020509004+50333-105550SAO  +0577YMJ  V0203301N00411004501MN0240001N1-00501-00601102061ADDAG10001GD14991+0045099GF108991999999999999999999MA1101731094961MD1310091+9999MW1711REMAWY018SC10 CIG RGD 309 ?EQDQ01+999990APOSP 
0089345040999991981061703004+48367+035083FM-12+014299999V0202101N00401015001CN0100001N9+01601+01101101181ADDAA199000091AG10000AY121999GF108991061061017501071999MD1810021+9999MW1031REMSYN005700//
0089722735930261981121615004+31450-109600SAO  +1267DUG  V0201001N002512200019N0480001N1-00051-00491101861ADDAG10000GD13991+0750093GF107991999999999999999999MA1102031999999MW1001REMAWY008K ALQDS?
0099564620999991981111421004+29033+101500FM-12+299499999V0203201N00201220001CN0300001N9-00201-00801999999ADDAG12000AY101999GF101991011011017501001021MA1999999071711MD1210061+9999MW1031REMSYN01167171 05100
0065024640999991981042103504+59350+017950FM-15+0015ESSB V0203101N00611999991CY0099001N1+00101-01001999999ADDAG12999MA1100911999999REMMET012CAVOK NOSIG?EQDQ01+000000PRSWM2
0102701745999991981050600004+67500-148500SAO  +0556WCR  V0202801N001012200019N0240001N1+01001-00101999999ADDAA106000091AG10000GD14991+0450093GF108991999999999999999999MA1102611999999MW1001EQDQ01  00003PRCP99
0124474880999991981030302004+41767+140817FM-15+0031RJCH V0203301N00611009001CN0050001N1+00201-00201999999ADDAG11999GA1021+007509099GA2041+009009089MA1102001999999MW1851REMMET0523012(WIND 300V3        ?6          ?     0) CB W-N??
0064541720999991981122521004+43900+126583FM-12+018899999V0202001N00301220001CN0150001N9-01401-01901101931ADDAG12000AY101999GF100991001001999999001001MD1210051+9999MW1021
0149235890999991981110800004+64217+093800FM-12+010299999V0202701N00201007501CN0040001N9-00301-00601102481ADDAA199000391AG10001AJ100089199999999AY181999GF108991081091008001999999IA1319IA2999-00709KA1999N-00601MD1210031+9999MW1851REMSYN01779356 99608 25793
0076726454999991981041910004+44133-087550SMARS+0176C58  V0200201N004619999999N0129001N9+00551+99999102161ADDAG10999GF107991999999999999999999MW1001REMSYN02501    M     TWO   RIVERS?
0065061800999991981042618504+55633+012667FM-15+0005EKCH V0200801N00461999991CY0099001N1+00601-00101999999ADDAG11999MA1101491999999REMMET012CAVOK NOSIG?EQDQ01+000000PRSWM2
0060788620999991981112920004+17133-061783FM-15+0010MKPA V0200901N00611220001CN0112001N1+02801+02201999999ADDAG12999GA1031+007809089MA1101191999999EQDQ01+000000PRSWM2
0084106130999991981010312004+50167+007067FM-15+0477EDSB V0202401N00921002101CN0090001N1+00601+00501999999ADDAG12002GA1061+002109079GA2081+003009059MA1099701999999MW1611OC101641REMMET004GRN?
0106719400999991981012607004+55183-118883SAO  +0669YQU  V0209991C00001009001MN0400001N1-00401-00601101541ADDAG10999GD14991+0090099GF108991999999999999999999MA1101191093411MW1001REMAWY006SC10 ?EQDQ01+999990APOSP 
0108367290999991981083103004+46167+080933FM-12+039799999V0202601N00801220001CN0500001N9+01401+00201102061ADDAA199000091AG10000AY121999GF108991021001022501031011KA1999N+01101MD1210231+9999MW1011REMSYN01170011 95900
0079071790340511981071105004+48783+005983FM-15+0298LFSL V0203201N00201015001CN0020001N1+99999+99999999999ADDAG12999GA1031+003009079GA2041+015009059GA3051+030009039MA1101691999999MW1101
0124616790999991981121518004+14133-016067FM-12+0007GOOK V0209991C00001069001CN0200001N9+03301+01101101091ADDAA199000091AG14000AY111999GA1061+069009009GF106991001001999999001021KA1999M+03601MD1999999-0031MW1021REMSYN01170036 86073
0079873710999991981052804004-31700-060817FM-12+0017SAAV V0209991C00001220001CN0100001N9+01401+01401101851ADDAG10999AY121999GF104991041051004501999999MD1810051+9999MW1011REMSYN0061018.5
0108111630999991981081206004+47117+014200FM-12+130599999V0202701N00101015001CN0200001N9+01201+01201999999ADDAA199001091AG13000AY121999GF108991081051017501999999KA1999N+01101MD1410001+9999MW1021REMSYN01170111 99846
0050638160999991981061509004-04083+037717FM-12+0872HTSE V0201801N00721045001CN0300001N9+02301+01701999999ADDAG10999AY121999GF106991031021008001051011MW1011
0139999999999991981072500004+08500-013600FM-13+0000EWXZ V0202001N002019999999N0200001N9+02721+99999101191ADDAG11000AY121999GA1091+999999999GF109991091999999999999999MD1410001+9999MW1021SA1+2709UA1M030059999UG1130503009REMSYN01712702 30301 30310
0116838310999991981092518004-24833-050833FM-12+092699999V0203601N00101220001CN0040001N9+02801+99999999999ADDAA106000091AG10999AY101999GF102991021011999999001001MW1001REMSYN0116//// 700//EQDQ01+000992SCOLCBQ02  00003PRCP99
0094033380999991981111212004+53033-002083FM-12+022899999V0202801N00511003001CN0060001N9+00701+00501102431ADDAG12001AY161999GA1081+003009059GF108991081061004501999999MD1110111+9999MW1101REMSYN00588610
0111999999999991981040512004+36400-000200FM-13+0000GSED V0200801N00561220001CN0500001N9+01751+01301101841ADDAG12000AY101999GF102991011001008001011011MD1710021+9999MW1021SA1+1609UA1M010059999REMSYN0170//13 11605 30101
0282724756231591981111619003+37700-112150SAO  +2317BCE  V0201105N004152200059N0640005N1+01285-00565102425ADDAG10999GD11995+0600093GD20995+9999999GD30995+9999999GD40995+9999999GF102015999999999999999999MA1999999077515MW1001EQDN01 00000JPWTH 1QNNE11 1 00199E11 1 00099E11 1 00099E11 1 00099G11U1 99999K11 1 00022L11 1 04000M11 1 22890N11 1 00000Q11 1 10242S11 1 00055V11 1 00301X11 1 11008
0075155561999991981092911304+43233+027833FM-15+0083LBWN V0201001N00611006001CN0112001N1+02001+01501999999ADDAG12000GA1071+006009059MA1101691999999REMMET006NOSIG?EQDQ01+000000PRSWM2
0084726761999991981060305004+44650-111100SAO  +2031WEY  V0202301N00201015001EN0240001N1+00891+00611100951ADDAG10999GD14991+0150099GF108991999999999999999999MW1001REMAWY018208 15// 67/NOSPL?
0136727125146231981020310004+46933-067883SAO  +0227LIZ  V0202301N003610120019N0144001N1-00381-00661099901ADDAG10999GD12991+0045099GD23991+0120099GF107991999999999999999999MA1099761999999MW1711OC100661REMAWY032PCPN VRY LGT     ?    IR06P DRY?
0102725335999991981061219004+40650-086150SAO  +0247GUS  V0202701N004110300019N0112001N1+02501+02111101441ADDAG10999GD12991+0120099GD23991+0300099GD34991+0600099GF108991999999999999999999MA1101491999999MW1001
0064300740999991981071503004+59900+117583FM-12+016299999V0209991C00001030001CN0500001N9+01301+01101099771ADDAG12001AY161999GF108991021051012501031011MD1710011+9999MW1211
0141402700999991981053018004+31983+035983SY-MT+0767OJAM V0203201N00721220001CN0099001N1+02601+00401100661ADDAA199000091AG14000AY101999GF100991001001999999001001KA1999M+03501MA1101081092101MD1210091+9999MW1021REMSYN01169210 70035MET012CAVOK NOSIG?
0064971460999991981052221004-04100+122433FM-12+0050WIAU V0209991C00001004201CN0080001N9+02401+02301101261ADDAG10999AY121999GF108991061051004501011999MW1051REMSYN0057////
0072766491999991981021800004+20517-086933SAO  +0005CZM  V0209991C00001021001EN0128001N1+02401+02201999999ADDAG10000GD13991+0210099GF107991999001999999071001MA1101491999999MW1001
0129999999999991981060606004+57500-168700FM-13+0000JPQQ V0209991C00001007501CN0100001N9+00751+00601100301ADDAG11000AY121999GF108991081071008001999999MD1210051+9999MW1021SA1+0709UA1M000009999UG1070153409REMSYN0230//06 10705 30000 34703
0047080850999991981041312004+42767-001633FM-15+0454LEPP V0201501N00921009001CN0080001N1+01801+00801999999ADDAG12000GA1051+009009089MA1101591999999MW1061
0113476010999991981090806004+37850+136917FM-12+001499999V0200701N00461036001CN0300001N9+02201+01401101201ADDAA106000091AG14000AY121999GF108991031041004501051999MD1710181+9999MW1021REMSYN01040010 3231EQDQ01  00003PRCP99
046772223013894198108022100C+30683-088250SAO  +0064MOB  V0202705N003152200059N0112005N1+02945+02175101525ADDAA101000095AG10000GA1999+012194094GA2999+033534034GA3999+091444004GA4999+999999999GD12015+0120099GD22025+0330099GD33045+0900093GD40005+9999999GF106035999031999999061991MA1101561100755MD1710141+9999MW1001REMAWY027CB NW/ 714       ?    1362?EQDQ01+999990APOSP N01 00000JPWTH 1QNNE11 1 00201E11 1 00202E11 1 00305E11 1 00000G11U1 99999H11 1 18040H11 1 23110H11 1 32300H11 1 00999K11 1 00071L11 1 00700M11 1 29750N11 1 00000Q11 1 10152S11 1 00085V11 1 00804X11 1 27006
0105467580999991981042422004+22700+120483FM-15+0029RCSQ V0209991C00001220001CN0048001N1+02201+02101999999ADDAG12999GA1021+003609079GA2031+024009039MA1101391999999MW1101REMMET0332996INS          ?     VIS E3 W3?
0071162320999991981020406004+42000+015000FM-15+0016LIBT V0202701N00361999991CY0099001N1+99999+99999999999ADDAG11000REMMET033CAVOK QUK1 QUL1 SW VIS MAR 20 KM?EQDQ01+000000PRSWM2
0102301510999991981090212004+58850+112900FM-12+020199999V0209991C00001007501CN0100001N9+01001+00901101751ADDAA199008091AG10001AY161999GF108991081061008001999999KA1999M+01101MD1310011+9999MW1211REMSYN00570811
0094228200999991981120909004+61817+034267FM-12+004099999V0200501N00401003001CN0080001N9-00601-00701098021ADDAG12002AY171999GA1051+003009079GF108991051071004501021999MD1710021+9999MW1731REMSYN00585710
0116999999999991981090800004+10000-017200FM-13+0000GBST V0202301N00511045001CN0200001N9+02561+02401101461ADDAG12003AY161999GF107991041011001501031011MD1210101+9999MW1601SA1+2709UG1140201809REMSYN0230//24 12706 3//// 18404
0210162610999991981111218004+41533+015717SY-MT+0057LIBA V0209991C00001220001CN0150001N1+00601+00301102001ADDAA199000091AG14000AY111999GF104991021001999999031011KA1999M+01201MA1101931101251MD1310081+9999MW1021REMSYN02963125 70012 82359 95890 54420MET028CAVOK 2AC090 06/03 1019 SCT?EQDQ01+999990APOA  Q02+000000PRSWM2
0202719270999991981031000004+68667-097800SY-SA+0014YUR  V0203601N00411004501EN0160001N1-01901-02101101371ADDAA106000091AG10000AY111999GD14991+0045099GF108991081061004501999999KA1999M-01701KA2999N-03101MA1101351101181MD1710101+9999MW1021REMSYN01163118 46781AWY010ST10 710 ?EQDQ01+000003PRSWM2Q02  00003PRCP99
0111999999999991981082618004+71100+020800FM-13+0000RIGG V0201001N00301012001CN0200001N9+00861+00701100731ADDAG12000AY111999GF106991051011012501011011MD1210211+9999MW1021SA1+0809UA1M050109999REMSYN0170//07 10806 30502
0257040180162011981052703003+63967-022600SY-SA+0050BIKF V0201405N00365003664CN0112005N1+00895+00725101455ADDAG11000AY121999GA1081+003664064GD19085+9999999GF108991081071004501999999MA1101391100685MD1110051+9999MW1101REMMET006NOSIG?EQDN01 00000JPWTH 1QNNE11 1 09910G11 1 00012H11 1 15012K11 1 00045L11 1 00700M11 1 29730N11 1 00000Q11 1 10145S11 1 00048X11 1 14007
0079476420999991981081307004+35750+139350FM-15+0139RJTY V0209991C000010150019N0080001N1+02601+01801999999ADDAG11999GA1021+007509089GA2081+015009059MA1100811999999MW1051REMMET007CIG050?
0072766342999991981090709004+20083-098367SAO  +2181TCG  V0209991C00001000151WN0000001N1+01101+01101101701ADDAG10000GD15991+0001599GF109991999999999999999999MA1102781999999MW1451
0072061800999991981012108204+55633+012667FM-15+0005EKCH V0201901N00151999991CY0099001N1-00601-00701999999ADDMA1102811999999REMMET026CAVOK NOSIG 041015 541015?EQDQ01+000000PRSWM2
0159718870999991981022020004+50700-120450SAO  +0346YKA  V0209991C000010390019N0480001N1+00701-00101102361ADDAG10999GD12991+0150099GD23991+0390099GD34991+0660099GF108991999999999999999999MA1102271098151MW1001REMAWY029CU1AC7CS1        ?    VIRGA ?EQDQ01+999990APOSP 
0091434500999991981113009004+07167+079883FM-12+0008VCBI V0209991C00001004201CN0220001N9+02701+02401100971ADDAG12000AY151999GF107991051091004501071999MD1999999+0281MW1501UA1M999999999REMSYN00539699
0186604900999991981031606004+35617-000600SY-MT+0090DAOO V0200601N00101030001CN0112001N1+01201+01101101431ADDAA199000091AG14000AY121999GA1031+009009059GA2051+030009039GF107991071051008001041021KA1999N+00901MA1101391999999MD1310011+9999MW1011REMSYN023700// 83630 85360 95990EQDQ01+000000PRSWM2
0100160080999991981083109004+46833+010517FM-12+1521LIVE V0209991C00001220001CN0250001N9+01801+01101999999ADDAG11000AY101999GA1021+024009039GF102991021001022501041001MD1310011+9999MW1021REMSYN01182358 509/0
0064574780999991981061300004+30033+112417FM-12+999999999V0209991C00001220001CN0020001N9+02401+02201999999ADDAG11000AY101999GF100991001001999999001001MD1110131+9999MW1101
0060081840999991981061816004+41900+002767FM-15+0129LEGE V0201601N00611220001CN0112001N1+02401+01401999999ADDAG12999GA1021+009009089MA1101591999999EQDQ01+000000PRSWM2
0094960010999991981032406004+05867+095317FM-12+0126WIAA V0201201N00411045001CN0100001N9+02901+02501101141ADDAA106000091AG14016AY121999GF107991011031004501031021MW1171REMSYN005700//EQDQ01  00003PRCP99
0108582080999991981071321004+32167+115667FM-12+005899999V0209991C00001090001CN0050001N9+02901+02601100391ADDAA124005091AG10000AY111999GF107991001001999999001021MD1210031+9999MW1101REMSYN00522005EQDQ01  00503PRCP99
0065171280999991981062704004+40117+032983FM-15+0953LTAC V0209991C00001999991CY0099001N1+01301+00901999999ADDAG11999MA1101901999999REMMET012CAVOK NOSIG?EQDQ01+000000PRSWM2
0065152600999991981021021454+45800+024100FM-15+0445LRSB V0202301N00301999991CY0099001N1-00101-00101999999ADDAG12999MA1101691999999REMMET012CAVOK NOSIG?EQDQ01+000000PRSWM2
0163712010999991981061203004+49300-123117SAO  +0005WHC  V0202701N001512200019N0240001N1+01501+00701101251ADDAG10000GD12991+0300093GD22991+0510099GD33991+0660093GD44991+0810093GF108991999999999999999999MA1101251999999MD1610101+9999MW1001REMAWY023AC1AC2CS1CI COTRA 610 ?
0060846865999991981111616004-13717-073350FM-15+3444SPHY V0203301N00511009001CN0112001N1+01301+00801999999ADDAG10999GA1051+009009089MA1101901999999EQDQ01+000000PRSWM2
0060333460999991981041904304+50350+030917FM-15+0125UKBB V0200801N00511030001CN0060001N1+00101-00201999999ADDAG12999GA1071+030009039MA1101801999999EQDQ01+000000PRSWM2
0050941320999991981082317004-14467+132267FM-12+010799999V0209991C00001220001CN0500001N9+02401+01401101401ADDAG10999AY101999GF100991001001999999001001MW1001
0057723346038111981101919004+35600-088917SAO  +0132MKL  V0203401N003012200019N0320001N1+01671+00061102681ADDAG10999GF100991999999999999999999MA1102681999999MW1001
0092852010999991981072907004-16500-068183FM-15+4050SLLP V0203601N00201069001CN0112001N1+00201-00401999999ADDAG10999GA1011+006009059GA2011+021009049GA3041+069009009MA1103691999999EQDQ01+000000PRSWM2
0047100460999991981033103504+54383+010150FM-15+0031EDCK V0200401N00411220001CN0070001N1+00401+00101999999ADDAG11999GA1011+030009039MA1101801999999MW1101
0102872110999991981100515004-28067-067567FM-12+1200SANI V0209999999999220001CN0200001N9+01301+00201999999ADDAG10999AY101999GF100991001001999999001001MA1999999087621MD1610211+9999ME1314549MW1021REMSYN00568762
0139722890931361981103106004+34233-118067SAO  +1739MWS  V0200201N007712200019N0560001N1+00831+00112999999ADDAA106000091AG10000GF100991999999999999999999MD1210141+9999MW1001REMAWY028SC ALNG CST LA BSN VSB/ 214?EQDQ01+027433ATOD  Q02  00003PRCP99
0062101470999991981091222504+53633+009983FM-15+0016EDDH V0201401N00361006001CN0025001N1+01601+01601999999ADDAG12999GA1081+006009059MA1101191999999MW1291REMMET006NOSIG?
0065156550999991981111211004+42483+027483FM-15+0024LBBG V0202501N00721999991CY0099001N1+00501+00201999999ADDAG12999MA1101491999999REMMET012CAVOK NOSIG?EQDQ01+000000PRSWM2
0122607350999991981111115004+35667+010100FM-12+006899999V0200401N00411009901CN0350001N9+01601+00501102611ADDAG12000AY121999GA1041+007809089GA2031+009909059GF106991061081008001001001MD1510051+9999MW1021REMSYN01784826 83633 95900
0190134520999991981072415004+42567+018267SY-MT+0161LYDU V0202001N00201220001CN0099001N1+02801+01601101541ADDAG11000AY101999GF100991001001999999001001IA1209IA2999+03409MA1101591999999MD1710121+9999MW1021REMSYN0479590MM23473 10302 98020 14030 QQ    YPPH  11713MET012CAVOK NOSIG?EQDQ01+000000PRSWM2
0087717010999991981102210004+45833-066433SAO  +0051YCX  V0200501N00361003601EN0240001N1+00701+00101102771ADDAG10999GD14991+0036099GF108991999999999999999999MA1102781999999MW1001REMAWY006SC10 ?
0134724457039381981120518004+37750-092150SAO  +0353TBN  V0201801N00361075001EN0112001N1+00831-00381102841ADDAA106000091AG10000GD13991+0750099GF107991999001999999001081MA1102711999999MD1810201+9999MW1001REMAWY009820 1008?EQDQ01  00003PRCP99
0106722800231951981022601004+32667-114600SAO  +0063YUM  V0202801N00201018001EN0320001N1+02061+00221100911ADDAG10999GD13991+0180099GD23991+0750099GF107991999999999999999999MA1100911100151MW1001EQDQ01+999990APOSP 
0108654530999991981061812004+06600+000467FM-12+015899999V0202301N00051220001CN0400001N9+03001+02401101301ADDAA106000091AG14000AY111999GF103991031021004501031001MD1999999+0021MW1011REMSYN005700//EQDQ01  00003PRCP99
0105999999999991981111600004+19900-018900FM-13+0000UTJY V0200101N00801220001CN0100001N9+02351+99999101351ADDAG11000AY101999GF102991021051008001001001MD1310021+9999MW1011SA1+1809UA1M050209999REMSYN01111805 30504
0112999999999991981050312004+12500+084300FM-13+0000ATPT V0209991C00001220001CN0500001N9+03001+02601100961ADDAG11000AY101999GA1021+008009089GF102991021021008001001001MD1110021+9999MW1031REMSYN02382895 02026 3//// /////
0138918080999991981031706004-10400-161050FM-12+000499999V0202901N00511024001CN0100001N9+99999+99999999999ADDAA106048091AG10999AY161999GA1041+003609089GA2081+024009049GF108991041021004501021999MW1251REMSYN01774817 84812 88458EQDQ01  04803PRCP99
0064619900999991981122203004-20433+057667FM-12+0057FIMP V0200901N00511009001CN0180001N9+02401+02201101801ADDAG10999AY121999GF107991061081004501041021MD1999999+0041MW1151
0105717330999991981063005004+45883-082567SAO  +0193YZE  V0202801N003012200019N0096001N1+01801+01701101611ADDAG10999GD12991+0045099GF102991999999999999999999MA1101591099281MW1451REMAWY005SC3 ?EQDQ01+999990APOSP 
0230766440999991981122012004+20950-089667FM-12+0009MID  V0200501N00101007201CN0050001N9+01801+01301101981ADDAA124000091AG14000AY121999GA1061+007209039GF106991061001008001031999IA1009KA1999M+02301KA2999N+01601MA1999999101881MD1999999-0091MW1021REMSYN06463188 70000 86324 90500 91959 20000 3//// 42316 50502 LL    CERPEQDQ01  00003PRCP99
0086787880999991981041116004+09567-078950FM-15+0002MPVR V0200101N00721220001CN0112001N1+99999+99999999999ADDAG10999GA1021+006009089MA1100951999999OC101231REMMET009HZ ALQDS?EQDQ01+000000PRSWM2
0064093610999991981092221004+52100+011583FM-12+008599999V0209991C00001007501CN0035001N9+01601+01401101001ADDAG12000AY111999GF107991051051008001031999MD1510011+9999MW1051
0118718140999991981122216004+50467-059633SAO  +0009WDM  V02099999999992200019N0144001N1+00001+99999100351ADDAG10999GD12991+0078099GF102991999999999999999999MA1999999100241MW1001REMAWY0182416+24/MMM/ M04 ?EQDQ01+999990APOSP 
030972775024143198103072200C+47483-111367SAO  +1116GTF  V0201105N002152200059N0720005N1+00615-00115102245ADDAA101000095AG10999GD12995+0021099GD22995+0180099GD30995+9999999GD40995+9999999GF102025999999999999999999MA1101901089135MW1001EQDQ01+999990APOSP N01 00000JPWTH 1QNNE11 1 00299E11 1 00299E11 1 00099E11 1 00099G11U1 99999K11 1 00030L11 1 04500M11 1 26320N11 1 00000Q11 1 10224S11 1 00043V11 1 00202X11 1 11004
0092474900999991981020122004+42883+143167FM-15+0087RJCB V0209991C00001021001CN0050001N1-01001-01101999999ADDAG12999GA1041+006009059GA2051+021009039GA3061+036009039MA1101151999999MW1101REMMET004131?
0406783670117061981090415003+19900-075150SY-SA+0016MUGM V0201805N00215220005CN0112005N1+03005+02285101235ADDAG12002AY101999GA1011+006104094GA2021+009144084GA3011+076204004GD19015+9999999GD29025+9999999GD39015+9999999GF104991031091008001001031MA1101151100985MD1999999+0041MW1151REMSYN00563100MET038RASHU SE         ?     CB SE WSHFT 07?EQDN01 00000JPWTH 1QNNE11 1 09901E11 1 09903E11 1 09901G11U1 99999H11 1 18020H11 1 11030H11 1 32250K11 1 00073L11 1 00700M11 1 29820N11 1 00000Q11 1 10123S11 1 00086X11 1 18004
0064286550999991981051721004+55233+063317FM-12+017699999V0202701N00501075001CN0220001N9-00301-00601100841ADDAG12001AY171999GF107991021051008001001021MD1210351+9999MW1011
0091071500999991981061204304+48967+002450FM-15+0066LFPB V0202801N00461015001CN0112001N1+01801+01501999999ADDAG12999GA1041+004209059GA2071+015009059MA1102001999999REMMET006NOSIG?EQDQ01+000000PRSWM2
0087011060999991981011512004+67517+012067FM-12+001999999V0200501N00361006001CN0150001N9-00201-00201096621ADDAY171999GA1081+006009059GF108991081051008001999999MD1210081+9999MW1221REMSYN00588620
0192655220999991981061818004+10333-003183FM-12+033599999V0200401N00101069001CN0200001N9+03001+02301100981ADDAA199000091AG14015AY191999GA1021+007809059GA2051+069009009GA3021+009909099GF107991041091008001031021KA1999M+03201MD1999999+0051MW1171REMSYN04770032 82626 85073 82933 95331 95332 95337 95338
0056296360999991981040709004+55233+084400FM-12+014899999V0202301N00301220001CN0300001N9+00101-00701102121ADDAG12001GF104991041021008001001001MD1210031+9999MW1211
0066763991999991981013113004+25767-097533SAO  +0007MAM  V0200601N002512200019N0128001N1+99999+99999999999ADDAG10999GD16991+0001599GF110991999051999999999999MA1101391999999
0064309110999991981122303004+50733+102833FM-12+117099999V0209991C00001075001CN0500001N9-02701-03001999999ADDAG11000AY111999GF108991021001999999041071MD1710061+9999MW1021
0064470700999991981112515004+37967+126550FM-12+007099999V0209991C00001036001CN0230001N9+00101-00601102491ADDAG12000AY111999GF107991071001999999051001MD1210011+9999MW1031
0155062350999991981072215004+52917+004783FM-12+0001EHKD V0202201N00871024001CN0120001N9+01701+01301100501ADDAG12000AY121999GA1011+003609079GA2031+006009089GA3051+024009039GF106991031021004501051021MD1710041+9999MW1011OA199901281REMSYN02381712 83820 85358 91125
0064591020999991981032621004+24950+115633FM-12+029999999V0209991C00001012001CN0090001N9+01701+01601101581ADDAG12002AY161999GF108991081051012501999999MD1710061+9999MW1601
0058084510999991981030208004+36750-006067FM-15+0026LEJR V0209991C00001999991CY0099001N1+00701+00501999999ADDAG12999MA1101691999999REMMET005CAVOKEQDQ01+000000PRSWM2
0122878030999991981051104004-42900-071133FM-12+0785SAVE V0209991C00001002701CN0200001N9+00201+00101101491ADDAG10999AY151999GA1081+002709079GF108991081071002501999999MA1999999092131MD1810071+9999MW1511REMSYN01869213 88709 1013.1
0058333460999991981123108304+50350+030917FM-15+0125UKBB V0201301N00511000601CN0002001N1+00101+00101999999ADDAG12001ED199U03659GA1091+000609999MA1100911999999MW1211
0102172020999991981080706004+38600+039283FM-12+0882LTCA V0203201N00201220001CN0200001N9+02301+00801100681ADDAA199000091AG14000AY101999GF100991001001999999001001KA1999N+01501MD1210111+9999MW1021REMSYN00570015
0077070220999991981062603004+49650-001500FM-12+999999999V0203601N008219999999N0140001N9+01301+99999999999ADDAG12002AY181999GF108991999999999999999999MW1021UA1M990039999REMSYN00591827
0140717250999991981120515004+48050-077783SAO  +0337YVO  V0203401N001512200019N0240001N1-00901-01101102271ADDAG10000GD12991+0075093GD23991+0750093GF107991999999999999999999MA1102001097991MD1010021+9999MW1701REMAWY011SC2CI3 002?EQDQ01+999990APOSP 
0078702590265231981110405004+60567-151250SAO  +0027ENA  V0200201N00821002101WN0024001N1-00431-00771099531ADDAG10999GD15991+0021099GF109991999999999999999999MA1099531999999MW1451MW2711
0075726376999991981052210004+43000-082417SMARS+017733G  V0203201N00461220001CN0111001N9+01491+99999101621ADDAG10999GF101991999999999999999999MW1051REMSYN024M     M     PORT  HURON?
0060405720999991981123011004+16867+042583FM-15+0003OEGN V0202301N00511220001CN0112001N1+03001+02101999999ADDAG12999GA1021+007509089MA1101081999999EQDQ01+000000PRSWM2
0089060300999991981030813004+57100+009867FM-15+0003EKYT V0202101N00301000301CN0015001N1+00701+00701999999ADDAG11999ED127U18899GA1081+000309079MA1099591999999MW1101REMMET022TEMPO 0800 BASE 150FT?
0084722576039021981082014004+31067-097833SAO  +0309GRK  V0203501N002012200019N0048001N1+02221+02001101671ADDAG10999GD16991+0001599GF110991999999999999999999MA1101831999999MW1451REMAWY003F3?
0100591340999991981020600004+24450+118067FM-12+006399999V0209991C00001021001CN0170001N9+01201+01101102521ADDAA106000091AA299000191AG10002AY161999GF107991071051022501041999MD1110071+9999MW1011REMSYN005/91//
0127942030999991981120910003-17950+122217FM-12+0012AHBR V0202901N00611045001CN0400001N9+02901+02501100631ADDAG10999AY121999GA1035+007505065GA2015+999999035GA3075+999999999GF107991031051008001071021MA1999999100535MD1310121+9999MW1025
0145999999999991981042812004-38300-054700FM-13+0000GYIF V0202101N006119999999N0020001N9+00821+00801101881ADDAG10999AY141999GA1091+999999999GF109991999999999999999999MD1310101+9999MW1431SA1+0889UA1M030059999UG1060152109REMSYN0230//08 10882 30301 21603
0058804070999991981060901004+10567-071733FM-15+0066MVMC V0209991C00001999991CY0099001N1+02601+02501999999ADDAG11999MA1101081999999REMMET005CAVOKEQDQ01+000000PRSWM2
0164999999999991981021212004+42200-050200FM-13+0000KFGJ V0201001N00261000301CN0002001N9+00861+99999104371ADDAG12000AY141999GA1091+999999999GF109991091999000251011999MD1410001+9999MW1451SA1+0789UA1M000009999UG1060201609REMSYN0230//09 10786 30000 16604EQDQ01+000012SCOHCG
0060014830999991981111409504+59183+010267FM-15+0088ENTO V0203601N00461220001CN0112001N1+00301-00901999999ADDAG12999GA1011+009009089MA1102301999999EQDQ01+000000PRSWM2
0135092490999991981080306004+53383+010717FM-12+004599999V0200701N00101220001CN0120001N9+01301+00801102901ADDAA199000091AG14000AJ100009199999999GF101991011051012501001001IA1089IA2999+00509KA1999N+00801MD1210151+9999MW1051REMSYN01120510 70008
0080037960999991981020909004+51133+001350FM-12+011799999V0202501N00621000301CN0015001N9+00601+00601101471ADDAG12000AY121999GA1081+000309079GF108991081061000251999999MD1710131+9999MW1281
0064299560999991981021215004+52800+089883FM-12+045599999V0203601N00101075001CN0160001N9-01901-02101102201ADDAG12001AY171999GF108991001001999999001071MD1410001+9999MW1711
0219718870999991981110300004+50700-120450SY-SA+0346YKA  V0200901N003612200019N0450001N1+01701+00601101451ADDAA106000091AG10000AY111999GD12991+0420093GD23991+0750093GF106991041001999999031011KA1999M+01801KA2999N+00901MA1101421097311MD1710221+9999MW1031REMSYN01169731 41809AWY012AC1CI1 722 ?EQDQ01+000003PRSWM2Q02  00003PRCP99
0065072010999991981120117004+47967-004167FM-15+0092LFRQ V0200801N00201999991CY0099001N1+00601+00001999999ADDAG12999MA1102811999999REMMET012CAVOK NOSIG?EQDQ01+000000PRSWM2
0119209460999991981120918004+70450+059067FM-12+001399999V0200501N00601220001CN0180001N9-01401-01401100581ADDAA199000591AG10000AY111999GF103991031051008001001001KA1999M-01301MD1210111+9999MW1021OA199900801REMSYN01179563 91108
0111942030999991981082710003-17950+122217FM-12+0012AHBR V0202701N00251220001CN0400001N9+02401+02101101251ADDAG10999AY101999GA1005+999999999GA2015+999999035GF101991011001999999061001MA1999999101155MD1310111+9999MW1025
0112724466039291981021721004+38850-094550SAO  +0333GVW  V0202001N005112200019N0112001N1+01891+00671101491ADDAG10000GD13991+0750093GF107991999001999999001081MA1101491999999MD1610321+9999MW1001OC100771REMAWY009632 1008?
0108918220999991981041118004-19067-169917FM-12+0055NIUE V0200901N00101220001CN0200001N9+02301+02201101191ADDAA106004091AG10999AY121999GF102991021021008001999999MD1510101+9999MW1801REMSYN0057042/EQDQ01  00403PRCP99
0043071690999991981080513304+48633+004900FM-15+0139LFSI V0203401N00251999991CY0099001N1+99999+99999999999ADDAG12999REMMET005CAVOKEQDQ01+000000PRSWM2
0094237040999991981060715004+62600+050900FM-12+008799999V0202001N00301010801CN0280001N9+01401+01201100661ADDAG11000AY121999GA1071+010809099GF107991071091012501001001MD1210161+9999MW1021REMSYN00587936
0135031600999991981061710004+55950-003350FM-12+0041EGPH V0203201N00461015001CN0200001N9+01301+00701102291ADDAG12999AY121999GA1021+007509089GA2041+015009059GF106991061041008001999001MD1210141+9999MW1251REMSYN01182825 84650EQDQ01    003SCOMCG
0090725466999991981122315004+40617-093933SAO  +03423OI  V0202301N003612200019N0160001N1-00771-01051102131ADDAG10000GF100991999999999999999999MA1102001999999MD1210221+9999MW1001REMAWY010222 NOSPL?
007494594099999198107102300N-27030+153470AUST +0099     V0202035N003659999999N999999999+01495+00405999999ADDAY124999GA1015+004505085GF101995014025004505999999MA1999999101015MW1025
0248717490999991981011300004+48367-089317SY-SA+0199YQT  V0202401N001010270019N0240001N1-00801-01101101151ADDAA106000091AG10000AJ100309199999999AY121999GD12991+0036093GD24991+0270099GF108991031051004501071001KA1999M-00601KA2999N-01601MA1100981098621MD1010021+9999MW1021REMSYN02369862 79768 90430 45666AWY012SC3AC6 002 ?EQDQ01+000003PRSWM2Q02  00003PRCP99
0086999999999991981102803004+51900+003100FM-13+0000PGVW V0202801N00871220001CN0100001N9+01101+99999101201ADDAG11000AY101999GF102991999999999999999999MD1710011+9999MW1021SA1+1309REMSYN00511300
0186080750999991981101812004+42350-003617SY-MT+0887LEBG V0209991C00001021001CN0112001N1+01601+01101999999ADDAA106000091AG10000AY121999GA1031+005709089GA2081+021009039GF108991031021004501071999MA1102401092161MD1210061+9999ME1315709MW1021REMSYN01169216 700//EQDQ01+000000PRSWM2Q02  00003PRCP99
0050999999999991981051812004+26300+056200FM-13+0000SHIP V0202401N00721220001CN0200001N9+03301+99999100751ADDAG12000AY101999GF100991999999999999999999MW1021
029372566024028198110131100C+41867-103600SAO  +1206BFF  V0203505N00315003664MN0400005N1+00565+00175101315ADDAA101000095AG10999GD13995+0036099GD24995+0099099GD30995+9999999GD40995+9999999GF108085999999999999999999MA1101491087815MW1001EQDN01 00000JPWTH 1QNNE11 1 00499E11 1 00699E11 1 00099E11 1 00099G11 1 00012K11 1 00035L11 1 02500M11 1 25930N11 1 00000Q11 1 10131S11 1 00042V11 1 01010X11 1 35006
0087762555999991981013021004+27983-110933SAO  +0027GYM  V0209991C000012100019N0320001N1+02401+00601999999ADDAG10000GD12991+0270099GD23991+2100099GF107991999001999999071031MA1102001999999MW1001
0106475450999991981030622004+39700+140067FM-15+0018RJSK V0201001N00561021001CN0112001N1-00301-00701999999ADDAG12999GA1011+009009089GA2031+018009059GA3071+021009039MA1101901999999REMMET0053010?EQDQ01+000000PRSWM2
0129534800999991981102012004+40967+113050FM-12+141699999V0209991C00001036001CN0080001N9+00801+00501101971ADDAA106999929AG10001AY161999GF108991081001999999021999MA1999999085911MD1210051+9999MW1601REMSYN01168591 /97//EQDQ01  99993PRCP99
0080335620999991981100303004+49233+028467FM-12+028799999V0201101N00401000301CN0002001N9+01001+01001100961ADDAG11000AY111999GA1091+999999999GF109991091999999999999999MD1710021+9999MW1471
0267722585939011981122119003+32733-096967SAO  +0150NBE  V0202005N006752200059N0240005N1+02445+01005100175ADDAG10999GD10995+9999999GD20995+9999999GD30995+9999999GF100995999999999999999999MA1100201098445MW1001EQDN01 00000JPWTH 1QNNE11 1 00099E11 1 00099E11 1 00099E11 1 00099G11U1 99999K11 1 00050L11 1 01500M11 1 29070N11 1 00000Q11 1 10017S11 1 00076V11 1 00099X11 1 20013
0073167540999991981021410504+35333+025183FM-15+0038LGIR V0201701N00871999991CY0099001N1+02101+00701999999ADDAG11999MA1100711999999OC101381REMMET012CAVOK NOSIG?EQDQ01+000000PRSWM2
0061471420999991981101400004+35900+128650FM-15+0037RKTN V0202801N00201220001CN0112001N1+01201+00701102351ADDAG12000GA1021+060009029MA1102271999999REMMET011QFF1023PT5?
0100606800999991981021121004+22783+005517FM-12+137899999V0209991C00001220001CN0300001N9+01501-00701999999ADDAG11000AY111999GA1031+036009039GF104991031001999999031021MD1010061+9999MW1021REMSYN01183362 95990
0072726556999991981050619004+44550-095083SAO  +0311RWF  V0201301N006112200019N0240001N1+01671+00171102651ADDAG10999GD13991+0750093GF107991999999999999999999MA1102611999999MW1001
0102029440999991981100806004+61417+023583FM-12+0112EFTP V0201801N00361220001CN0300001N9+00701+00601099631ADDAA199001091AG10000AY111999GF104991021051004501031011KA1999N+00601MD1710061+9999MW1031REMSYN00570106
0064095540999991981073105004+50983+010967FM-12+0323ETEF V0209991C00001220001CN0060001N9+00801+00601102151ADDAG11999AY101999GF100991001001999999001001MD1510041+9999MW1051
0102680140999991981080218004-19600+018117FM-12+1400FAGF V0203401N00201220001CN0400001N9+01801+00101999999ADDAG10999AY101999GF100991001001999999001001MA1999999085871MD1310101+9999ME1314869MW1021REMSYN00568587
0089355420999991981112512004+48617+061267FM-12+011499999V0202901N00301220001CN0200001N9-00301-00801102211ADDAA199999929AG10000AY101999GF101991011051017501001001MD1210201+9999MW1011REMSYN005797//
0060602500999991981073104004+30383-009567FM-15+0019GMAA V0202201N00151003001CN0080001N1+02001+01901999999ADDAG12999GA1061+003009079MA1101591999999EQDQ01+000000PRSWM2
0031404800999991981020405004+21483+040533FM-15+1457OETF V0209991C00001220001CN0080001N1+00801+00301999999ADDAG12999MA1102001999999MW1061
0113718610999991981010216004+50383-102583SAO  +0599WIK  V0200501N00771003901EN0040001N1-01701-01901102341ADDAG10999GD14991+0039099GF108991999999999999999999MA1101861094811MW1711REMAWY013SC10 PRESRR ?EQDQ01+999990APOSP 
009872258013960198109210000D+32850-096850SAO  +0148DAL  V0201601N007212200019N0320001N1+02831+00941999999ADDAA101000095AA206000091AG10000GF100991999999999999999999MA1101221999999MW1001EQDQ01  00003PRCP99
0097711054999991981011212004+50000-127417FM-12+0009WSQ  V0201401N009319999999N9999999N9+01201+99999101521ADDAG12000KA1999M+01401KA2999N+00901MA1999999101481MD1710111+9999REMSYN02363148 7999/ 2//// 41409
0061162340999991981021907004+42000+012733FM-15+0088LIRG V0209991C00001005401CN0040001N1+00401+00401999999ADDAG12999GA1061+005409089GA2031+024009039MW1211REMMET004OVC?
0064999999999991981112612004+47500-054000FM-13+0000CGDR V0200401N021619999999N0040001N9+00401+99999999999ADDAG12002AY161999GF108991999999999999999999MW1641REMSYN005/////
0090725205147621981032014154+40350-079933SAOSP+0382AGC  V0202601N00721006001EN0064001V1-00321-00991999999ADDAG10999GD13991+0060099GF107991999999999999999999MA1099931999999MW1851REMAWY009VSBY 3V5?
0064025240999991981110309004+57933+013067FM-12+019099999V0201401N00101220001CN0350001N9+00101+00101999999ADDAG12000AY101999GF101991011001999999071081MD1210221+9999MW1021
030972537094847198109041400C+42233-083333SAO  +0193DTW  V0202805N00775002744MN0144005N1+01785+01565101215ADDAA101000395AG10999GD13995+0027099GD24995+0051099GD30995+9999999GD40995+9999999GF108085999999999999999999MA1101221098815MW1615EQDQ01+999990APOSP N01 02000JPWTH 1QNNE11 1 00499E11 1 00699E11 1 00099E11 1 00099G11 1 00009K11 1 00060L11 1 00900M11 1 29180N11 1 02000Q11 1 10121S11 1 00064V11 1 01010X11 1 28015
0053919430999991981030515004-14483-145033FM-12+000299999V0200201N00411220001CN0200001N9+02701+02401101141ADDAA199000091AG10999GF103991021081004501001021MW1001
0172405720999991981072703004+16867+042583SY-MT+0003OEGN V0201001N00301030001CN0099001N1+02401+99999100181ADDAG12000AY111999GA1051+030009039GF105991051011999999031001MD1999999-0041MW1011REMSYN00585360MET005CAVOKEQDQ01+000992SCOLCBQ02+027123ATOD  Q03+029973APOA  Q04+000000PRSWM2
0064470900999991981071006004+38200+128600FM-12+000799999V0201601N00251220001CN0250001N9+02801+02301100181ADDAG12000AY121999GF106991001001999999001011MD1710131+9999MW1021
0036035290999991981121523004+52133-002033FM-12+0040EGDO V0200601N006619999999N9999999N9+00001-00301099481ADDAG12999MD1210141+9999REMSYN003AWS
0131718080999991981121309004+51433-057217SAO  +0019WBX  V0203301N01281009001EN0240001N1-00101-00501100061ADDAG10000GD13991+0090099GF107991999999999999999999MA1100031099811MD1010001+9999MW1001OC101751REMAWY009SC8 000 ?EQDQ01+999990APOSP 
0146871660999991981021706004-27450-058767SY-MT+0061SARC V0209991C00001220001CN0200001N1+02201+02201101151ADDAA106000091AG10999AY101999GF100991001001999999001001MA1101191999999MD1610081+9999MW1021REMSYN012700// 1011.7EQDQ01+000000PRSWM2Q02  00003PRCP99
0061109000999991981060318254+47900+007617FM-15+0213EDSG V0203601N00611018001CN0080001N1+99999+99999999999ADDAG12008GA1021+012009099GA2081+018009059MW1951REMMET004BLU?
0079875320999991981091513004-35700-063750FM-12+0141SAZG V0203201N00251220001CN0200001N9+01001+00001102341ADDAG10999AY101999GF103991001001999999001021MD1710131+9999MW1021REMSYN0061022,0
0086723417939881981051503004+34167-091933SAO  +0065PBF  V0202701N002012200019N0160001N1+99999+99999999999ADDAG10000GD13991+0750093GF107991999999999999999999MA1101561999999MW1001REMAWY005LAST?
0089384130999991981082400004+41733+064617FM-12+024899999V0201601N00201220001CN0200001N9+01901+00601101001ADDAA199000091AG10000AY101999GF100991001001999999001001MD1210031+9999MW1021REMSYN005700//
0064308560999991981032421004+51483+114550FM-12+085699999V0209991C00001220001CN0500001N9-01201-02001999999ADDAG11000AY111999GF102991001001999999001021MD1310011+9999MW1011
0089478830999991981120104004+33550+133683FM-15+0009RJOK V0202601N00771220001CN0112001N1+01701+00201999999ADDAG12999GA1021+012009089MA1101591999999REMMET0203000 (WIND 240V300)?EQDQ01+000000PRSWM2
0064471050999991981072921004+37750+128900FM-12+002799999V0202501N00251220001CN0300001N9+02501+02201100941ADDAG11000AY111999GF102991001001999999001011MD1610011+9999MW1021
0085039240999991981110515004+54600-005883AERO +0005EGAC V0209991C00001220001CN0100001N9+99999+99999999999ADDAG10999AY101999GA1021+009009059GF103991999999999999999999MW1041EQDQ01+000003PRSWM2
0117466990999991981102321004+23967+121617FM-12+001999999V0202701N00101015001CN0200001N9+01801+01301102231ADDAA199000091AG14000AY121999GA1081+015009059GF108991081051012501999999MD1510021+9999MW1021REMSYN0174009/ 88650 00000
0093535640999991981100612004+39283+111267FM-12+086199999V0209991C00001220001CN0300001N9+01201+00501101591ADDAG12000AY111999GF102991001001999999001021MA1999999091591MD1210131+9999MW1011REMSYN00500053
0064360210999991981042603004+52250+079167FM-12+014399999V0201901N00701220001CN0500001N9+01301+00101102231ADDAG11000AY101999GF100991001001999999001001MD1710121+9999MW1021
0094109480999991981061404004+47400+010283FM-12+081099999V0209991C00001220001CN0300001N9+00801+00601999999ADDAG11999AY101999GA1021+069009009GF102991001001999999001011MD1610051+9999MW1031REMSYN00582073
0105716000999991981032502004+43933-060017SAO  +0004WSA  V0200301N00611033001MN0160001N1+00001-00401101131ADDAG10999GD13991+0330099GF107991999999999999999999MA1101121101071MW1001REMAWY005AC9 ?EQDQ01+999990APOSP 
029472502014734198106282300C+40700-074167SAO  +0002EWR  V0201705N005252200059N0480005N1+02785+00565102405ADDAA101000095AG10999GD10995+9999999GD20995+9999999GD30995+9999999GF100005999999999999999999MA1102401102305MW1001REMAWY007FEW CU?EQDN01 00000JPWTH 1QNNE11 1 00099E11 1 00099E11 1 00099E11 1 00099G11U1 99999K11 1 00042L11 1 03000M11 1 30210N11 1 00000Q11 1 10240S11 1 00082V11 1 00000X11 1 17010
0064505480999991981120821004+49200+123717FM-12+028999999V0209991C00001220001CN0300001N9-01801-01901102501ADDAG11000AY101999GF100991001001999999001001MD1210051+9999MW1021
0075077470999991981070714004+42733+002867FM-15+0043LFMP V0201001N00301220001CN0112001N1+02701+01701999999ADDAG12999GA1031+000159099MA1101901999999REMMET006NOSIG?EQDQ01+000000PRSWM2
0337723815231611981051406003+34867-116783SAO  +0588DAG  V0202605N005252200059N0240005N1+02175+00175100915ADDAA106000091AG10000GD10995+9999999GD20995+9999999GD30995+9999999GF100005999999999999999999KA1999M+03501MA1101121094285MD1110191+9999MW1001REMAWY007119 95?EQDQ01  00003PRCP99N01 00000JPWTH 1QNNE11 1 00099E11 1 00099E11 1 00099E11 1 00099G11U1 99999K11 1 00035L11 1 01500M11 1 27840N11 1 00000Q11 1 10091S11 1 00071V11 1 00000X11 1 26010
0122718711999991981052515004+53350-110833SAO  +0619YVG  V0201101N003012200019N0240001N1+01701+00201101421ADDAG10000GD12991+0900093GF102991999999999999999999MA1101351094151MD1710031+9999MW1001REMAWY008CI 703 ?EQDQ01+999990APOSP 
0065103820999991981100314204+52567+013317FM-15+0037EDBT V0202301N00561999991CY0099001N1+01701+00501999999ADDAG12999MA1099701999999REMMET012CAVOK NOSIG?EQDQ01+000000PRSWM2
0189063700999991981010614004+51450+005417SY-MT+0022EHEH V0203301N00511220001CN0100001N1+00201-00201101801ADDAY101999GA1011+003909089GA2051+009009059GA3061+030009039GF199999011081004501051011MA1101691999999MD1110411+9999MW1011MW2101REMSYN01181814 55002MET018BLU BLU TEMPO GRN?EQDQ01+000022SCOTCV
0180405760999991981011915004+15517+044183SY-MT+2190OYSN V0200601N00301220001CN0090001N1+02101-00401999999ADDAY101999GA1021+009009059GF102991021081008001001001IA1009IA2999+01909MA1102101999999MD1999999-0071MW1051MW2061REMSYN05982830/9!.(!-78    01214 60020 1102  8     /     0900  21901
0076475910999991981042917004+38400+141217FM-15+0005RJST V0201901N00361000601CN0035001N1+01301+01201999999ADDAG12999GA1061+000609079GA2081+001209079MA1101661999999MW1101REMMET004169?
0084072170999991981010910004+47317-002167FM-15+0003LFRZ V0203201N00101036001CN0060001N1+00801+00601999999ADDGA1011+004509059GA2051+036009039MA1103391999999REMMET006NOSIG?EQDQ01+000000PRSWM2
0102298360999991981030312004+53750+084950FM-12+022199999V0202301N002019999999N0200001N9-00801-01201103411ADDAA199000091AG14000AY121999GF108991001001999999011011KA1999M-00601MD1210031+9999MW1021REMSYN00570056
0072727926999991981062501004+46483-122800SAO  +0113TDO  V0203401N005612200019N0560001N1+02391+00671101801ADDAG10999GF100991999999999999999999MA1101801999999MW1001REMAWY006NOSPL?
0093404380999991981121400004+24700+046733SY-MT+0624OERY V0201801N00101220001CN0100001N1+01301+00301101931ADDAG11000AY101999GF100991001001999999001001MA1102001999999MD1999999-0131MW1021REMMET005CAVOK
0102308230999991981052612004+51800+107433FM-12+051099999V0203401N00301220001CN0200001N9+01501-00201101291ADDAA199000091AG10000AY111999GF103991021051012501001031KA1999M+01801MD1510001+9999MW1021REMSYN00570018
0064725056999991981093012004+41367-071483SMARS+0002PJI  V0202701N00771220001CN0185001N9+00441+99999101591ADDAG10999GF101991999999999999999999MW1001REMSYN013POINT JUDITH?
0045073540340481981021215004+46850+001717FM-15+0160LFLX V0201201N00611220001CN0112001N1+99999+99999999999ADDAG12000GA1011+007509089EQDQ01+000000PRSWM2
044972250012919198107081500C+25900-097433SAO  +0006BRO  V0201505N006250548649N0112005N1+03065+02445101785ADDAA101000095AG10000GA1999+006104084GA2999+054864034GA3999+999999999GA4999+999999999GD12015+0060099GD23065+0540099GD30005+9999999GD40005+9999999GF107075999011999999031991MA1101801101735MD1110151+9999MW1001REMAWY009115 1130?EQDQ01+999990APOSP N01 00000JPWTH 1QNNE11 1 00201E11 1 00408E11 1 00000E11 1 00000G11 1 00180H11 1 11020H11 1 23180H11 1 00999H11 1 00999K11 1 00076L11 1 00700M11 1 30040N11 1 00000Q11 1 10178S11 1 00087V11 1 00909X11 1 15012
0143091700999991981011206004+54183+012083FM-12+000499999V0202101N00801007501CN0100001N9-00101-00401101481ADDAA199000091AG10000AJ100009199999999AY111999GF108991081051008001999999IA1139IA2999-00209KA1999N-00201MD1710361+9999MW1051REMSYN01125230 70052
