0099727645240121982010809004+46783-102800SAO  +0789DIK  V0200101N00511002401WN0040001N1-01771-02051102601ADDAG10001GD15991+0024099GF109991999999999999999999MA1102101999999MD1110191+9999MW1711REMAWY004119?
0126727856999991982012621004+47667-117333SAO  +0595SFF  V0202301N010812200019N0240001N1+00611-00051999999ADDAG10000GD12991+0300099GD22991+0600099GD33991+0750093GF107991999999999999999999MA1099801999999MW1001OC101541REMAWY007CU N-S?
0122031350999991982122923004+55500-004583FM-12+0020EGPK V0201701N00621012001CN0400001N9+00781+00511102911ADDAG11999AY101021GA1011+006009089GA2061+012009059GF107991061081008001031999MD1510071+9999MW1021REMSYN017333   81820 86640
0119683700999991982022806004-26450+029483FM-12+170099999V0203101N00301220001CN0200001N9+01711+01271999999ADDAA106000091AG10999GF100991001001999999001001KA1240M+02451KA2120N+01271MD1210101+9999REMSYN023333   20127 555   10245
0058404000999991982031607004+26233+036433FM-15+0019OEWJ V0203001N00511999991CY0099001N1+02201+01401999999ADDAG12999MA1101291999999REMMET005CAVOKEQDQ01+000000PRSWM2
0075165970999991982080710304+35850+014483FM-15+0091LMML V0200901N00511220001CN0070001N1+02801+02301999999ADDAG12999GA1041+003609059MA1101081999999REMMET006NOSIG?EQDQ01+000000PRSWM2
0360726227947901982052300003+44000-076017SAO  +0097ART  V0200305N002150070149N0064005N1+01445+01175102265ADDAA106001091AG10003GD12995+0018099GD24995+0069099GD30995+9999999GD40995+9999999GF108085999999999999999999KA1999M+02051MA1102241101025MD1410001+9999MW1455MW2615REMAWY00940005 69?EQDQ01  00103PRCP99N01 02070JPWTH 1QNNE11 1 00299E11 1 00699E11 1 00099E11 1 00099G11 1 00023K11 1 00053L11 1 00400M11 1 29830N11 1 02070Q11 1 10226S11 1 00058V11 1 01010X11 1 03004
0141722268938431982061818004+31317-085450SAO  +0122DHN  V0203201N002510750019N0112001N1+02941+02061100991ADDAA106000091AG10000GD12991+0090099GD23991+0750099GF107991999999999999999999KA1999N+02221MA1101021999999MD1010001+9999MW1001REMAWY007000 72?
0065160800999991982050121504+45433+009283FM-15+0107LIMM V0209991C00001999991CY0099001N1+01001+00701999999ADDAG12999MA1101591999999REMMET012CAVOK NOSIG?EQDQ01+000000PRSWM2
0106655070999991982071909004+12067+000350FM-12+030999999V0202401N00101039001CN0250001N9+02571+01831101231ADDAG11000AY101031GA1051+039009039GF106991051001999999031021MD1999999-0051MW1021REMSYN017333   59005 85363
010672561024030198211151900D+41100-102983SAO  +1314SNY  V0203001N004612200019N0240001N1+00561-00661101481ADDAA101000095AG10999GD12991+0300099GD23991+0750093GF107991999999999999999999MA1101251999999MW1001OC101021
0058029720999991982042621504+60517+022267FM-15+0049EFTU V0203201N00511999991CY0099001N1+00201-00301999999ADDAG12999MA1101191999999REMMET005CAVOKEQDQ01+000000PRSWM2
0100033180999991982122119004+53767-003033FM-12+0010EGNH V0203401N00721220001CN0350001N9+00441-00111099461ADDAG11999AY101011GA1021+009009089GF103991031081012501001001MD1210401+9999MW1021REMSYN011333   82830
0106026220999991982071106004+56833+013917FM-12+015599999V0201801N00101220001CN0300001N9+01501+00941999999ADDAA106000091AG14000AY101061GF101991011001999999071001IA1019KA1120N+00661MW1021REMSYN017333   20066 30///
0100484260999991982093003004+14800+100617FM-12+001199999V0201801N001019999999N0100001N9+02481+02361101381ADDAA106000091AG14000GF108991999051008001021999MD1999999-0041REMSYN011333   59004EQDQ01+000002SCOTLC
0134128430999991982012606004+47433+019183FM-12+014099999V0202001N00101004801CN0060001N9-00421-00611102421ADDAG11000AY101061GA1081+004809079GF108991081061004501999999KA1120N-00491MA1999999100611MD1610111+9999MW1021REMSYN017333   21049 88716
0096478400999991982070911004+33667+131033FM-15+0019RJFZ V0201501N00251220001CN0070001N1+02601+02201999999ADDAG12999GA1011+012009059MA1100851999999MW1051REMMET040089/ FCST 1117 96141         ?     4000?
0057725116999991982110303004+40133-076300SAO  +0123LNS  V0201301N002512200019N0128001N1+01671+01561999999ADDAG10000GF100991999999999999999999MA1101421999999MW1001
0065107630999991982032416504+49500+011083FM-15+0312EDDN V0200201N00411999991CY0099001N1+01101-00701999999ADDAG12999MA1103291999999REMMET012CAVOK NOSIG?EQDQ01+000000PRSWM2
0133131570999991982072700004+45533+018733FM-12+0089LYOS V0203501N00101001201CN0020001N9+01801+01721100671ADDAA106005091AG10001AY161061GA1061+001209079GA2081+024009049GF108991061071001501021999MD1010001+9999MW1101REMSYN017333   86704 88458
0047103820999991982012021204+52567+013317FM-15+0037EDBT V0201101N00201220001CN0030001N1-00501-00801999999ADDAG12000GA1021+060009009MA1102611999999MW1101
0064540270999991982110709004+43983+119400FM-12+048599999V0201401N00301220001CN0300001N9+00591-00581102651ADDAG11000AY101031GF102991001001999999001021MD1710021+9999MW1021
034072267023042198211242300C+33650-101817SAO  +0992LBB  V0203405N00415009754MN0112005N1-00395-00725103295ADDAA101000395AG10999GD14995+0096099GD20995+9999999GD30995+9999999GD40995+9999999GF108085999999999999999999MA1103121091605MW1795REMAWY022VSBY LWR S IPB28 SE28?EQDQ01+999990APOSP N01 06000JPWTH 1QNNE11 1 00699E11 1 00099E11 1 00099E11 1 00099G11 1 00032K11 1 00019L11 1 00700M11 1 27050N11 1 06000Q11 1 10329S11 1 00025V11 1 01010X11 1 34008
0057723235138961982050916004+34750-087617SAO  +0168MSL  V0200501N003612200019N0320001N1+02221+01221102271ADDAG10999GF100991999999999999999999MA1102301999999MW1001
0032071530999991982050809004+48617+002683FM-15+0095LFPM V0202201N00301005401CN0070001N1+99999+99999999999ADDAG12001GA1071+005409059MW1601
0115722956999991982112623004+33917-118333SAO  +0019HHR  V0202701N003610300019N9999999N9+99999+99999999999ADDAG10999GD12991+0150099GD23991+0300099GD34991+0660099GF108991999999999999999999MA1101421999999EQDQ01+000002VOVAR 
0065131310999991982080307004+45733+016067FM-15+0106LYZA V0201201N00101999991CY0099001N1+02001+01501999999ADDAG11999MA1101801999999REMMET012CAVOK NOSIG?EQDQ01+000000PRSWM2
0087722356139391982081201004+33483-090983SAO  +0040GLH  V0209991C00001012001EN0112001N1+02941+02501999999ADDAG10999GD13991+0120099GD24991+0750099GF108991999999999999999999MA1101831999999MW1001
0075131420999991982122800004+45600+017233FM-12+016199999V0202001N00101012001CN0200001N9+00151-00091102541ADDAA106000091AG10000AY101061GF107991071051012501001001MD1710141+9999MW1021
028072451013985198210160300E+37767-099967SAO  +0787DDC  V0200205N003152200059N032000599+01115+00335102415ADDAA101000095GD10995+9999999GD20995+9999999GD30995+9999999GD40995+9999999GF100005999999999999999999MA1999999093305EQDN01 00000JPWTH 1QNNE11 1 00099E11 1 00099E11 1 00099E11 1 00099G11U1 99999K11 1 00038L11 1 02000M11 1 27550N11 1 00000Q11 1 10241S11 1 00052V11 1 00000X11 1 02006
0039605900999991982010913004+30567+002867FM-15+0398DAUE V0209991C00001999991CY0099001N1+02101-00301999999ADDAG11999MA1102101999999REMMET005CAVOK
0131718360999991982020618004+51267-080650FM-12+0010WZC  V0202401N00801220001CN0240001N9-02101-02501101061ADDAG12000AY101061GF100991001001999999001001KA1120M-02091KA2240N-03771MA1999999100921MD1710281+9999MW1021REMSYN017333   11209 21377
033672662024090198205102000C+44050-103067SAO  +0964RAP  V0203405N01245007324MN0480005N1+00835+00175100895ADDAA101000095AG10999GD14995+0072099GD20995+9999999GD30995+9999999GD40995+9999999GF108075999999999999999999MA1100881089845MW1001OC101691REMAWY010BINOVC NW?EQDQ01+999990APOSP N01 00000JPWTH 1QNNE11 1 00699E11 1 00099E11 1 00099E11 1 00099G11 1 00024K11 1 00035L11 1 03000M11 1 26530N11 1 00000Q11 1 10089S11 1 00047V11 1 01009X11 1 34024
0075084170999991982081712004+37767-003783FM-12+057899999V0202801N00211220001CN0300001N9+03181+01521101901ADDAA106000091AG14000AY101061GF100991001001999999001001MD1110051+9999MW1021
0094282550999991982040406004+58050+063683FM-12+007199999V0202601N00461220001CN0500001N9-00211-00461101291ADDAA106000091AG12000GF102991021051012501001001KA1120N-00841MD1210121+9999REMSYN011333   21084
0099872220999991982112302004-28600-065767FM-12+0464SANC V0200501N00931015001CN0300001N9+02221+01791100821ADDAG10999AY101021GF107991051051017501071001MA1101081999999MD1210281+9999MW1021REMSYN011555   10108
0086119680999991982030303004+48700+021267FM-12+0230LKKZ V0200101N00501220001CN0100001N9+00241-00121101761ADDAG12000GA1021+012009059GF102991021051012501001001MD1210241+9999REMSYN011333   82640
0135999999999991982112300004+30200+161700FM-13+99993EKN V0200701N01131036001CN0100001N9+02051+01901102451ADDAG11000AY111061GF105991041021004501061011MD1410001+9999MW1021SA1+1909UA1M050159999UG1070200309REMSYN02922273 00190 20503 303// 40704
0055726530999991982021406004+43800-099317SAO  +0530CHB  V0201301N005119999999N9999999N9-00661-01051999999ADDAA106000091AG10000MA1101591999999EQDQ01+000002VOVAR 
0130062800999991982033002004+53133+006583FM-12+0005EHGG V0200101N00501010501CN0150001N9+00391+00301100871ADDAG12999GA1011+002709079GA2031+003009079GA3061+010509059GF108991081051002501999999MD1210141+9999REMSYN023333   81709 83710 86635
0092711820999991982111901004+53550-064100SAO  +0435ZUM  V0203201N001012200019N0240001N1-01701-01901103931ADDAG10999GF100991999999999999999999MA1103561098291MW1001REMAWY007FROIN ?EQDQ01+999990APOSP 
0091039690999991982091420304+53433-006250FM-15+0085EIDW V0202201N00411220001CN0112001N1+01501+01101999999ADDAG12000GA1011+009609059GA2031+036009039MA1101691999999REMMET006NOSIG?EQDQ01+000000PRSWM2
0097854170999991982041906004-20217-070150FM-12+0005SCIQ V0209991C00001009001CN0100001N9+01801+01441101561ADDAA106000091AG10999GA1081+009009059GF108991081051008001999999MD1710061+9999REMSYN011333   56299
0089724024937391982071912001+37933-075467SAO  +0015WAL  V0202401N002012200019N0128001N1+02671+02111101501ADDAA106000091AG10000GF100991999999999999999999MA1101461999999MW1001REMAWY012RADAT 38146?
0185479450999991982010800004+25833+131233SY-MT+0015ROMD V0200201N00301021001CN0250001N1+01621+00811102101ADDAA199000591AG10000AY101061GA1031+009009089GA2061+021009039GF107991021021999999031999KA1120N+01061MA1102001999999MD1310151+9999MW1021REMSYN011333   20106MET0053013?EQDQ01+000000PRSWM2
0077062700999991982020813294+53217+005767FM-15+0001EHLW V0202701N00661220001CN0112001N1+00601+00201999999ADDAG11999GA1011+006009089MA1101591999999REMMET008BLU BLU?EQDQ01+000000PRSWM2
0072726988242191982052702004+45617-121150SAO  +0064DLS  V0203001N009212200019N0480001N1+01441+00441101211ADDAG10999GD12991+0180099GF102991999999999999999999MA1101191999999MW1001
0061711405999991982111212004+50067-096517SAO  +0274WBS  V0203501N005112200019N0240001N1-01401-01601999999ADDAA106000091AG10000GF100991999999999999999999MW1001OC101021
0075874050999991982092912004-32600-069333FM-12+189099999V0203201N00261007501CN0200001N9+00121+00001999999ADDAA106000091AG10999AY101061GF108991081071008001999999MD1310071+9999MW1021
0100039740999991982101021004+54183-007233FM-12+008799999V0209991C00001009601CN0190001N9+00741+00561100931ADDAG12000AY101031GA1071+009609059GF107991071051012501999999MD1810031+9999MW1021REMSYN011333   87632
0044701940264131982061815004+66567-145267SAO  +0127FYU  V0200401N004119999999N9999999N9+99999+99999999999ADDAG10000MA1101591999999EQDQ01+000002VOVAR 
0045071970999991982111009304+47917+007400FM-15+0217LFSC V0202001N00611220001CN0112001N1+01201+00801999999ADDAG12999GA1011+009009089EQDQ01+000000PRSWM2
0076233220999991982072009004+66667+062550FM-12+009699999V0200501N00301004201CN0500001N9+02221+01611101171ADDAG11000AY101031GF107991061031004501001021MD1710141+9999MW1021REMSYN003333
0072725115147111982122423004+40200-076767SAO  +0094MDT  V0209991C000012200019N0064001N1+01001+00561999999ADDAG10999GD12991+0360099GF102991999999999999999999MA1102711999999MW1051
0139040560999991982121112004+64867-019567FM-12+064299999V0202201N00151220001CN0750001N9-01051-01601100891ADDAG12000AJ100459199999999AY101061GF101991011001017501031091IA1289MA1999999092861MD1710031+9999MW1021OA130300311REMSYN017555   3//06 44045
0079042310999991982020710004+67017-050717FM-15+0050BGSF V0209991C00001021001CN0112001N1-02701-02801999999ADDAG12999GA1021+009009059GA2051+021009039GA3071+054009029MA1099491999999MW1711
0072765491999991982092618004+22283-097850SAO  +0024TAM  V0202601N003012200019N0112001N1+03001+02301999999ADDAG10000GD12991+0045099GF102991999011999999001001MA1101461999999MW1001
009194999900342198202050400N-41220+146350AUST +0011     V0203155N004159999999N999999999+02055+01105999999ADDAY124999GA1035+006005085GA2005+999999999GA3035+999999999GF106995034025006005999085MW1025
0064478190999991982031418004+32817+130717FM-12+003899999V0203101N001019999999N0150001N9+01301+01161101111ADDAG12004AY161061GF108991081001999999021999MD1710371+9999MW1611
034672524614891198201220100C+40817-082517SAO  +0395MFD  V0200305N00525001524EN0112005N1-01005-01175999999ADDAA101000095AG10999GD14995+0015099GD20995+9999999GD30995+9999999GD40995+9999999GF108085999999999999999999MA1102881999999MW1001REMAWY066UA OV MFD 0055 FLDURGC/TP UKN/SK         ?    TOPS 031/RM CLR ABV?EQDN01 00000JPWTH 1QNNE11 1 00699E11 1 00099E11 1 00099E11 1 00099G11 1 00005K11 1 00011L11 1 00700N11 1 00000S11 1 00014V11 1 01010X11 1 03010
0050029700999991982061115004+60117+019917FM-12+0002EFMA V0200701N00211030001CN0500001N9+01021-00011100991ADDAG12000GF108991021051017501071999MD1710141+9999
0061476830999991982102706004+35667+139533FM-15+0044RJTF V0201501N00411220001CN0070001N1+02001+00901999999ADDAG12000GA1011+007509089MA1102201999999MW1051REMMET0053020?
0075224080999991982072303004+65200+031167FM-12+011299999V0209991C00001220001CN0500001N9+00661+00591100601ADDAA106000091AG10000AY101031GF103991011051008001001011MD1710071+9999MW1021
0074119160999991982032503004+48933+019583FM-12+200899999V0200101N01001015001CN0300001N9-00771-02451999999ADDAG12000GF105991051031017501051001MA1999999080301MD1810121+9999ME1315679
0075150200999991982091900004+47683+026667FM-12+017099999V0209991C00001220001CN0070001N9+01131+01131102311ADDAA106000091AG10000AY111061GF100991001001999999001001MD1410001+9999MW1101
0126025760999991982020406004+57783+016600FM-12+000999999V0209991C00001220001CN0200001N9-01921-02051103801ADDAG11000AJ100389199999999AY101061GF100991001001999999001001IA1289KA1120N-01921MD1210031+9999MW1021REMSYN017333   21192 44038
031072410013733198205261300C+37333-079200SAO  +0281LYH  V0200705N00315002134MN0064005N1+02005+01835101495ADDAA101000095AG10999GD13995+0021099GD24995+0054099GD30995+9999999GD40995+9999999GF108085999999999999999999MA1101561098175MW1455REMAWY008BINOVC ?EQDN01 07000JPWTH 1QNNE11 1 00499E11 1 00699E11 1 00099E11 1 00099G11 1 00007K11 1 00065L11 1 00400M11 1 28990N11 1 07000Q11 1 10149S11 1 00068V11 1 01010X11 1 07006
0154912030999991982082206004+10033+139800FM-12+0002ULI  V0202101N01291090001CN0110001N9+02671+02441100651ADDAA106000391AG10006AY181061GA1031+004809089GA2061+090009009GF108991031021004501001021MA1999999100601MD1710101+9999MW1031REMSYN023333   564/9 83816 86080
0110528360999991982070412004+36333+098033FM-12+319299999V0209991C00001220001CN0300001N9+02201-00451999999ADDAA106000091AG14000AY101061GF101991011041012501001021MA1999999068761MD1710061+0101MW1021REMSYN011333   00151
0091167180999991982022822504+38067+023550FM-15+0031LGEL V0209991C00001027001CN0112001N1+00601+00401999999ADDAG12999GA1031+009009059GA2051+027009039MA1101291999999REMMET006NOSIG?EQDQ01+000000PRSWM2
0058025500999991982070803504+57767+014083FM-15+0232ESSJ V0202201N00101999991CY0099001N1+01001+00901999999ADDAG12999MA1102101999999REMMET005CAVOKEQDQ01+000000PRSWM2
050572503014732198205131200C+40767-073900SY-SA+0003LGA  V0202005N005750140249N0064005N1+01445+01225101905ADDAA101000095AA206001091AA324006991AC12I9AG10003AY181061GA1999+006404064GA2999+014024064GD12025+0063099GD24085+0138099GD30995+9999999GD40995+9999999GF108085081051008001999999KA1240M+01671KA2120N+01221MA1101901101795MD1310071+9999MW1055MW2251REMSYN041333   10167 20122 70069 90526 555   02000AWY020RE30/ 30704 15// 54?EQDN01 08100JPWTH 1QNNE11 1 00203E11 1 00610E11 1 00099E11 1 00099G11 1 00046H11 1 15021H11 1 15046K11 1 00054L11 1 00400M11 1 30060N11 1 08100Q11 1 10190S11 1 00058V11 1 01010X11 1 20011
0063102340999991982062816454+53133+009350FM-15+0034EDCR V0202401N00301015001CN0112001N1+01501+01201999999ADDAG12999GA1021+004509089GA2041+015009059MA1100811999999MW1251
0064040230999991982112703004+66417-022383FM-12+002699999V0201801N00261012001CN0750001N9-00201-01001100791ADDAG11000AY101031GF108991081051012501999999MD1610181+9999MW1021
0064249590999991982121309004+62083+129750FM-12+010399999V0203001N00201220001CN0100001N9-03661-03941102821ADDAG12000AY101999GF105991021001999999051011MD1010031+9999MW1021
0130072570999991982082509004+47050+002650SY-MT+0175LFOA V0202201N00511005401CN0180001N1+01721+01261101771ADDAG12000AY101031GA1011+004809089GA2061+005409059GF107991071081004501999999MA1101801999999MD1610031+9999MW1021EQDQ01+000000PRSWM2
0089999999999991982031306004+35100-013500FM-13+9999SHIP V0200501N00901012001CN0200001N9+01801+99999999999ADDAG12000GF105991051031012501001001MW1021SA1+1609UA1M999999999REMSYN01722212 00160 299//
0269723870031601982010922002+36617-116017SAO  +1007DRA  V0201305N005252200059N032000599+01445-00615102285ADDGD10995+9999999GD20995+9999999GD30995+9999999GD40995+9999999GF100005999999999999999999MA1999999090725EQDN01 00000JPWTH 1QNNE11 1 00099E11 1 00099E11 1 00099E11 1 00099G11U1 99999K11 1 00021L11 1 02000M11 1 26790N11 1 00000Q11 1 10228S11 1 00058V11 1 00000X11 1 13010
0064221930999991982100912004+68783+049350FM-12+001199999V0202201N00401030001CN0200001N9-00291-00751102691ADDAG12000AY101061GF107991041051012501031001MD1810011+9999MW1021
0076014520999991982072413504+58200+008083FM-15+0016ENCN V0201201N00361066001CN0112001N1+02001+01201999999ADDAG12999GA1011+008409089GA2071+066009029MA1101691999999EQDQ01+000000PRSWM2
0050092800999991982050415004+53550+013200FM-12+007999999V0202701N00901075001CN0300001N9+01341+00471100951ADDAG12000GF106991011021008001071061MD1210071+9999
0084064080999991982082915004+51233+002917FM-12+001299999V0202401N01031220001CN0100001N9+01901+01361102031ADDAG12000AY101031GF103991031031008001001001MD1710441+9999MW1021REMSYN011333   91827
0095983240999991982060618004+15333+119967FM-12+000399999V0200901N001019999999N0250001N9+02551+02381100901ADDAA106000091AG14000AY141061GF106991031001004501071081MD1810051+9999MW1051REMSYN011333   56529
0044722120128331982091823004+29617-083100SAO  +0013CTY  V0202501N001519999999N9999999N9+02831+02331999999ADDAG10999MA1101591999999EQDQ01+000002VOVAR 
0309724585939971982062915003+38867-098817SAO  +0568RSL  V0202005N00525076204EN0192005N1+02785+01835101005ADDAG10000GD13995+0750099GD20995+9999999GD30995+9999999GD40995+9999999GF107055999999999999999999MA1101221094555MD1110051+9999MW1001REMAWY004105?EQDN01 00000JPWTH 1QNNE11 1 00499E11 1 00099E11 1 00099E11 1 00099G11 1 00250K11 1 00065L11 1 01200M11 1 27920N11 1 00000Q11 1 10100S11 1 00082V11 1 00906X11 1 20010
0059064790999991982022306034+51167+005467FM-16+0060EBBL V0200301N00101220001CN0040001N1+99999+99999999999ADDAG12000GA1031+060009009MW1101REMMET018GRN YLO TEMPO AMB?
0390722015128501982093005003+24583-081683SAO  +0007NQX  V0200405N001552200059N0112005N1+02565+02225101225ADDAG10999GA1999+004574999GA2999+024384999GA3999+076204999GA4999+999999999GD12025+0045099GD22025+0240099GD32025+0750099GD40005+9999999GF102995999999999999999999MA1101191101195MW1001EQDN01 00000JPWTH 1QNNE11 1 00203E11 1 00203E11 1 00203E11 1 00000G11U1 99999H11 1 99015H11 1 99080H11 1 99250H11 1 00999K11 1 00072L11 1 00700M11 1 29880N11 1 00000Q11 1 10122S11 1 00078V11 1 00399X11 1 04003
0093722286938061982092614004+33233-087617SAO  +0051TCL  V0203601N002512200019N0048001N1+01671+01391101211ADDAG10999GD12991+0012099GD22991+0240099GF102991999999999999999999MA1101251999999MW1051MW2451
030972259003927198202112300C+32900-097033SAO  +0168DFW  V0201105N00525036584EN0192005N1+01065+00005102065ADDAA101000095AG10999GD13995+0360099GD20995+9999999GD30995+9999999GD40995+9999999GF106065999999999999999999MA1102031099865MW1001EQDQ01+999990APOSP N01 00000JPWTH 1QNNE11 1 00499E11 1 00099E11 1 00099E11 1 00099G11 1 00120K11 1 00032L11 1 01200M11 1 29490N11 1 00000Q11 1 10206S11 1 00051V11 1 00808X11 1 11010
0123710940999991982042103004+66583-061617SAO  +0376YVN  V0200701N000512200019N0064001N1-02301-02901101251ADDAG10000GD12991+0042093GF102991999999999999999999MA1100751096131MD1010041+9999MW1761REMAWY009SC3 004 ?EQDQ01+999990APOSP 
028072268023009198211290200E+33300-104533SAO  +1112ROW  V0203505N002152200059N016000599+00335-00115101095ADDAA101000095GD12995+9999999GD20995+9999999GD30995+9999999GD40995+9999999GF101015999999999999999999MA1999999088385EQDN01 00000JPWTH 1QNNE11 1 00299E11 1 00099E11 1 00099E11 1 00099G11U1 99999K11 1 00030L11 1 01000M11 1 26100N11 1 00000Q11 1 10109S11 1 00038V11 1 00101X11 1 35004
0075607250999991982063012004+36483+008800FM-12+014499999V0203301N00211220001CN0250001N9+03521+01161101941ADDAA106000091AG14000AY101061GF100991001001999999001001MD1810041+9999MW1021
0087722250138291982042601004+32333-085000SAO  +0071LSF  V0201801N00201003601EN0112001N1+02061+01891101041ADDAG10999GD13991+0036099GD24991+0750099GF108991999999999999999999MA1101051999999MW1001
0075587360999991982122912004+27383+118850FM-12+999999999V0201601N00311220001CN0300001N9+00071-02001101901ADDAA106000091AG10000AY101061GF100991001001999999001001MD1410001+9999MW1021
0127470580999991982092700004+39033+125783FM-12+003899999V0209991C00001036001CN0160001N9+01021+00401101651ADDAA106000091AG14000AY101061GF107991071001999999031001KA1120N+00401MD1210061+9999MW1021REMSYN011333   20040EQDQ01+001652APC3  
0064512430999991982122921004+45600+084850FM-12+042699999V0203401N00201220001CN0300001N9-01771-02201103161ADDAG12000AY101031GF104991001001999999001021MD1210071+9999MW1021
0137404390999991982032221004+24117+038050SY-MT+0006OEYN V0209991C00001030001CN0099001N1+02601+01601999999ADDAG12000GA1061+030009029GF106991061001999999041999MA1100811999999MD1999999-0131REMSYN017333   59013 86260MET005CAVOKEQDQ01+000000PRSWM2
0114722860231191982051823004+33883-117267SAO  +0469RIV  V0201701N005610600019N0048001N1+02331+01221100761ADDAG10999GD16991+0001599GD22991+0090099GD33991+0600099GF107991999999999999999999MA1100881999999MW1051REMAWY003H3?
0164614500999991982080618004+18567-011433FM-12+0402GQND V0202801N00411069001CN9999999N9+03581+01931100741ADDAA106000091AG14013GA1041+009009099GA2031+069009009GA3051+069009009GF106991041031008001001021KA1120M+03701MW1171REMSYN041333   10370 5021/ 84930 83073 85073 95438
0109836920999991982022112004-21767-043350FM-12+068399999V0203601N00601220001CN0200001N9+02081+01681101441ADDAA106000091AG10999GF102991021041008001001001KA1240N+01771MA1999999091181MD1210211+9999REMSYN011333   20177
0104716278999991982071502004+45683-074033SAO  +0082YMX  V0209991C000012200019N0400001N1+01801+01501102021ADDAG10999GD12991+0270099GD23991+0840093GF107991999999999999999999MA1102031999999MW1001REMAWY008AC1CI1 ?
0086234160999991982060200004+65633+059150FM-12+008999999V0209991C00001012601CN0500001N9+00031-00171100671ADDAG12000GA1071+012609059GF107991071051012501001001MD1310201+9999REMSYN011333   87642
034874486094789198211280600C+40650-073783SAO  +0005JFK  V0200305N004152200059N0240005N1-00175-00895103225ADDAA101000095AA206000091AG10000GD10995+9999999GD20995+9999999GD30995+9999999GF100005999999999999999999KA1999M+00881MA1103221103155MD1810101+9999MW1001REMAWY007810 48?EQDQ01+999990APOSP N01 00000JPWTH 1QNNE11 1 00099E11 1 00099E11 1 00099E11 1 00099G11U1 99999K11 1 00016L11 1 01500M11 1 30460N11 1 00000Q11 1 10322S11 1 00029V11 1 00000X11 1 03008
0259719520999991982030212004+54233-125767SY-SA+0704WPZ  V0201001N00101007801MN0240001N1-01201-01501101681ADDAA106000091AA224007791AG14000AJ100929199999999AL12401591GD14991+0078099GF108991081051008001999999GJ100009IA1249KA1240M-00591KA2120N-01281MA1101221093031MD1210081+9999MW1001REMSYN059333   11059 21128 48092 70077 90599 555   01000 10149 20111AWY010SC10 208 ?
0087725316999991982121616004+39833-088867SAO  +0207DEC  V0203201N00661002401MN0048001N1+00001-00161102711ADDAG10999GD13991+0024099GD24991+0060099GF108991999999999999999999MA1102641999999MW1451
0072722405139761982062807004+30200-092000SAO  +0013LFT  V0209991C000012200019N0112001N1+02441+02391101521ADDAG10999GD12991+0360099GF102991999999999999999999MA1101521999999MW1001
0100030080999991982072410004+59533-001633FM-12+005799999V0202601N00461000901CN0180001N9+01201+01201102251ADDAG12999AY151011GA1071+000909079GF107991071061001501999999MD1510001+9999MW1201REMSYN011333   87703
0089161190999991982042018154+44633+008933FM-16+0475LIMV V0203201N00411007501CN0040001N1+99999+99999999999ADDAG12000GA1021+006009089GA2041+007509059MW1101REMMET032BKN MON SUD INVIS VAL SUD INVIS?
0072723346038111982030310004+35600-088917SAO  +0132MKL  V0201801N00201075001EN0192001N1+01171+00611101131ADDAG10999GD14991+0750099GF108991999999999999999999MA1101151999999MW1001
0138804150999991982091706004+10600-066983SY-MT+0072MVMI V0209991C00001220001CN0100001N1+02611+02391100891ADDAA106000091AG14000AY101061GF100991001001999999001001MA1100911999999MD1999999+0001MW1021REMMET020CAVOK 1000.3 1005.3?EQDQ01+000000PRSWM2
0086037260999991982032021004+51450-002600FM-12+004399999V0201801N00101220001CN0110001N9+00591+00301101981ADDAG12000GA1011+075009009GF101991001001999999001011MD1110171+9999REMSYN011333   81075
0284726387148501982012805003+44733-085583SAO  +0188TVC  V0202005N003150061049N0080005N1+00005-00395100445ADDAG10999GD14995+0001599GD29999+0060099GD30995+9999999GF108085999999999999999999MA1100341098075MW1855REMAWY003S1?EQDN01 05000JPWTH 1P01     03SCCGD2QNNE11 1 00699E11 1 00099E11 1 00099G11 1 00020K11 1 00025L11 1 00500M11 1 28960N11 1 05000Q11 1 10044S11 1 00032V11 1 01010X11 1 20006
0146722735930261982111001004+31450-109600SAO  +1267DUG  V0201601N004610150019N0480001N1+01611+00781101321ADDAG10999GD12991+0060099GD23991+0150099GD33991+0300099GD43991+0600099GF107991999999999999999999MA1101761999999MW1001REMAWY020MDT CU     ?    N E?
0072727937999991982061522004+47917-122283SAO  +0184PAE  V0203101N003012200019N0400001N1+02221+00561999999ADDAG10999GD13991+0750093GF107991999999999999999999MA1101831999999MW1001
0047486470999991982032418004+03117+101550FM-12+0017WMKK V0209991C00001045001CN0130001N9+02481+02421101001ADDAA106000091AG10000GF107991011051008001041021
0429724925232401982051717003+37400-121133SAO  +0050NRC  V0201205N004152200059N0320005N9+02175+01065101265ADDAG10999GA1999+036584999GA2999+076204999GA3999+999999999GA4999+999999999GD12025+0360099GD23075+0750093GD30005+9999999GD40005+9999999GF107995999999999999999999MA1101251100585MW1001REMAWY014ACSL W ACSS W?EQDQ01+000002VOVAR N01 00000JPWTH 1QNNE11 1 00203E11 1 00309E11 1 00000E11 1 00000G11U1 99999H11 1 99120H11 1 99250H11 1 00999H11 1 00999K11 1 00051L11 1 02000M11 1 29700N11 1 00000Q11 1 10126S11 1 00071V11 1 00999X11 1 12008
0091725061147561982061118004+41250-070067SAO  +0004ACK  V0200701N010212200019N0240001N1+01171+00721999999ADDAA106000091AG10000GF100991999999999999999999MA1102001999999MW1001REMAWY01449 FG BNK N-S?
0064590230999991982051215004+24700+108050FM-12+021499999V0200901N00201007501CN0090001N9+02761+02531100621ADDAG12016AY181031GF107991071091008001999999MD1210141+9999MW1951
0422722515129261982052109003+27683-097283SAO  +0006NGP  V0201605N004652200059N0176005N1+02505+02065101145ADDAG10000GA1999+003964999GA2999+076204999GA3999+999999999GA4999+999999999GD12025+0039099GD22025+0750099GD30005+9999999GD40005+9999999GF102995999041999999001991MA1101081101055MD1610081+9999MW1001REMAWY009608 1401?EQDN01 00000JPWTH 1QNNE11 1 00203E11 1 00203E11 1 00000E11 1 00000G11U1 99999H11 1 99013H11 1 99250H11 1 00999H11 1 00999K11 1 00069L11 1 01100M11 1 29840N11 1 00000Q11 1 10114S11 1 00077V11 1 00399X11 1 16009
0086062750999991982020815004+52067+005883FM-12+0048EHDL V0203101N00601220001CN0250001N9+00611+00341101981ADDAG12000GA1031+007509089GF103991031021008001001011MD1310161+9999REMSYN011333   83825
0050095580999991982091600004+50383+011183FM-12+063099999V0209991C000019999999N9999999N9+01731+00811999999ADDAA106000091AG14000MA1999999095021MD1210031+9999
0168718740999991982071620004+49633-112800SAO  +0920YQL  V0203201N009210090019N0480001N1+01301+00701101271ADDAG10999GD12991+0060099GD23991+0090099GD34991+0240099GF108991999999999999999999MA1101191090511MW1001OC101441REMAWY030SC3SC3AC4        ?    PCPN E ?EQDQ01+999990APOSP 
0061476350999991982050422004+35250+136933FM-15+0016RJNN V0202301N00051220001CN0070001N1+01201+00901999999ADDAG12999GA1011+009009089MA1101691999999MW1101REMMET0053003?
0193766120999991982022506004+20683-103383FM-12+155199999V0209991C00001220001CN0180001N9+01751+01331101091ADDAA106000091AG12000GA1031+021009039GF103991031001999999031001IA1019KA1240M+02701KA2240N+00831MA1999999084741MD1210061-0121REMSYN041333   10270 20083 30/// 56050 59012 83357EQDQ01+000992SCOLCB
0080725526999991982032914004+40733-099000SAO  +0649EAR  V0201901N01021002101EN0096001N1+00671+00441999999ADDAG10999GD14991+0021099GF108991999999999999999999MA1100511999999MW1451OC101541
0102725156147481982040511004+42167-076900SAO  +0290ELM  V0203001N00511010501MN0112001N1-00661-01381101841ADDAG10999GD13991+0105099GF107991999999999999999999MA1101731999999MW1851OC100921REMAWY013PCPN VRY LGT?
0076844520999991982022710004-06783-079833FM-15+0031SPHI V0209991C00001220001CN9999999N9+01901+01801999999ADDAG10999GA1041+039009049MA1101081999999EQDQ01+000002VOVAR Q02+000000PRSWM2
0124710790999991982100809004+55800-097867SAO  +0212YTH  V0201101N00101001201WN0032001N1+00201+00101101441ADDAG10000GD15991+0012099GF109991999999999999999999MA1101321098721MD1310051+9999MW1451REMAWY010F10 3005 ?EQDQ01+999990APOSP 
0086723417939881982042304004+34167-091933SAO  +0065PBF  V0209991C000012200019N0112001N1+01171+00441103151ADDAG10999GD13991+0750093GF107991999999999999999999MA1103151999999MW1001REMAWY005LAST?
0050248020999991982020906004+61733+102800FM-12+035799999V0200701N00101030001CN0500001N9+99999+99999103651ADDAG12000GF108991081001999999031999MD1710071+9999
0064152800999991982081709004+45450+025450FM-12+251199999V0202701N004019999999N0040001N9+00981+00791999999ADDAG11000AY121031GF107991071031999999001001MD1610031+9999MW1401
0065151205999991982070923454+46783+023700FM-15+0314LRCL V0202501N00201999991CY0099001N1+01601+00901999999ADDAG11000MA1101591999999REMMET012CAVOK NOSIG?EQDQ01+000000PRSWM2
0141675410999991982041706004-13450+025833FM-12+123499999V0209991C00001220001CN0500001N9+01851+01711999999ADDAA106000091AG10999GA1021+033009039GF102991999001999999031001KA1120N+01561MD1999999-0191REMSYN023333   20156 59019 82361EQDQ01+000012SCOTLC
0080725957242151982111413003+41317-122317SAO  +1079MHS  V0200205N000559999999N9999999N9-00565-01005999999ADDAG10999MA1101591999999EQDQ01+000002VOVAR QNNK11 1 00014S11 1 00022X11 1 02001
0074162190999991982051404154+42467+012983FM-16+1874LIRK V0200701N02161999991CY0099001N1+99999+99999999999ADDAG12999REMMET036CAVOK MON NE LIB NC VAL NIL NC 1019?EQDQ01+000000PRSWM2
0087103060999991982010412454+52300+007383FM-15+0040EDCE V0202401N00871006001CN0112001N1+01101+00701999999ADDAG12999GA1011+003009089GA2051+006009059GA3071+012009059MA1100201999999MW1211OC101381
033072202012839198207261400C+25800-080300SAO  +0004MIA  V0203605N003150762049N0096005N1+02835+02395102015ADDAA101000395AG10999GD12995+0075099GD23995+0750099GD30995+9999999GD40995+9999999GF105045999999999999999999MA1102001101965MW1805REMAWY012TCU SE RB43?EQDQ01+999990APOSP N01 02300JPWTH 1QNNE11 1 00299E11 1 00499E11 1 00099E11 1 00099G11 1 00250K11 1 00075L11 1 00600M11 1 30110N11 1 02300Q11 1 10201S11 1 00083V11 1 00605X11 1 36006
0057711310999991982010703004+49433-108983SAO  +1079WEH  V0203001N00411012901EN0144001N1-02501-03101999999ADDAG10000GD13991+0129099GF107991999999999999999999MW1001
0083724397999991982101712004+40483-088933SAO  +0267BMI  V0201601N005112200019N0160001N1+99999+99999999999ADDAA106000091AG10000GD12991+0180099GF102991999999999999999999MA1102371999999MW1001
0122038840999991982062613004+50867+000333FM-12+001799999V0202301N00771018001CN0350001N9+01571+01431100471ADDAG12999AY181041GA1031+007509089GA2041+018009059GF105991051081008001031021MD1610051+9999MW1251REMSYN017333   83825 84656
0161118410999991982121600004+49233+018617FM-12+031199999V0202501N00401006901CN0060001N9+00071+00011100201ADDAA106005091AG10002AY171061GA1031+003609079GA2061+006909059GA3081+024009049GF108991061071004501021999MD1710211+9999MW1611REMSYN029333   60051 83712 86623 88458
0108479710424021982120512004+27083+142183FM-12+0004RJAO V0201801N002619999999N0400001N9+02431+02241101611ADDAA199999929AG10000AY101061GF107991071021999999999999KA1120M+02431MD1810031+9999MW1021REMSYN011333   10243
0094272710999991982052903004+58367+045550FM-12+012099999V0209991C00001220001CN0100001N9+00551+00181102171ADDAA106000091AG14000GF100991001001999999001001KA1120N+00151MD1310021+9999REMSYN011333   20015
0115514670999991982021606004+42667+086333FM-12+175299999V0209991C00001090001CN0300001N9+00081-01751999999ADDAA106000091AG12000GF108991001001999999001071KA1240N-00901MA1999999082171MD1210071-0501REMSYN017333   05504 21090
0077035833999991982061407004+52400+000567FM-15+0010EGUL V0202901N001010135019N0112001N1+01001+00201999999ADDAG12999GA1011+004509089GA2071+013509059MA1101461999999REMMET011CIG045 BLU?
0158742060242071982070421004+47150-122483SAO  +0098TCM  V0202201N00411009001EN0160001N1+01831+00611101451ADDAG10000GD13991+0090099GD23991+0150099GD33991+0660099GF107991999081999999001081MA1101461999999MD1710121+9999MW1001REMAWY033WND 12V29        ?    / 712 1808?
0133080210999991982101412004+43433-003817SY-MT+0005LEXJ V0202601N01231008401CN0112001N1+01701+00901101141ADDAA106000391AG10003AY181061GA1061+008409089GF106991061081008001001001MA1101081999999MD1210261+9999MW1021OC101751EQDQ01+000000PRSWM2
0102085830999991982040818004+16883-025000FM-12+006399999V0200601N01201220001CN0200001N9+02181+01681999999ADDAA106000091AG10000GA1011+006009059GF101991011051008001001001KA1120M+02221REMSYN017333   10222 81620
0115066160999991982010615004+47417+006950FM-12+060099999V0202901N00301009001CN0040001N9+00451+00421101211ADDAG12002AY161031GA1081+009009079GF108991999999008001999999MA1999999094111MD1310121+9999MW1611REMSYN011333   88730
0061965090999991982032112004+03333+117567FM-12+0006WRBR V0209991C00001220001CN0150001N9+02881+02511100931ADDAA106000091AG10010AY191061GF104991021091004501001011MW1131
0115655780999991982050515004+05250-003933FM-12+0011DIAP V0202201N004112200019N0120001N9+03021+02541100971ADDGA1021+003909089GF102991021021004501001001MD1999999-0091REMSYN04722208 10302 20254 40097 82200 333   59009 82813
0065101470999991982060310004+53633+009983FM-12+0016EDDH V0201001N00511220001CN0200001N9+02871+01641102081ADDAG12999GF100991001001999999001001MA1999999101891MD1610021+9999
0064026160999991982041215004+55383+012817FM-12+000599999V0202001N00201012001CN0300001N9+00521+00131100051ADDAG12002AY121031GF107991071091012501999999MD1310051+9999MW1801
031672509014739198201010800C+42367-071033SAO  +0006BOS  V0201205N00675007924MN0160005N1+00225-00225102275ADDAA101000095AG10999GD13995+0078099GD24995+0150099GD30995+9999999GD40995+9999999GF108085999999999999999999GJ104729MA1102271102175MW1001REMAWY00698472?EQDN01 00000JPWTH 1QNNE11 1 00499E11 1 00699E11 1 00099E11 1 00099G11 1 00026K11 1 00028L11 1 01000M11 1 30170N11 1 00000Q11 1 10227S11 1 00036V11 1 01010X11 1 12013
0134103250999991982110217004+52100+008733FM-12+009899999V0202501N00151003001CN0030001N9+01381+01201102551ADDAG11999AY121021GA1081+003009079GF108991081061004501999999MA1999999101341MD1310031+9999MW1101REMSYN011333   88710EQDQ01+999990APOSP 
0065108660999991982111505504+48133+011717FM-15+0529EDDM V0202601N00201999991CY0099001N1-00101-00201999999ADDAG12000MA1100311999999REMMET012CAVOK NOSIG?EQDQ01+000000PRSWM2
0095576060999991982011200004+28850+105383FM-12+027499999V0209991C00001004201CN0060001N9+00701+00561102231ADDAA106999929AG12002AY161061GF108991081071004501999999MD1210131+0301MW1601REMSYN011333   00301
0091165970999991982102309304+35850+014483FM-15+0091LMML V0202101N00461075001CN0112001N1+02401+02201999999ADDAG12999GA1011+005409089GA2071+075009009MA1101391999999REMMET006NOSIG?EQDQ01+000000PRSWM2
0044109540999991982020213454+47833+010867FM-15+0740EDZT V0200901N00511220001CN0112001N1-00201-00701999999ADDAG11999MA1102511999999EQDQ01+000000PRSWM2
0095417180999991982072600004+28650+070683FM-12+008799999V0209991C00001220001CN9999999N9+02941+02281099481ADDAA106000091AG10000AY101061GF100991001001999999001001MD1999999-0301MW1021REMSYN011333   59030
0080725845232251982042919003+39283-120700SAO  +1609BLU  V0200805N003659999999N9999999N9+01335-00835999999ADDAG10999MA1101591999999EQDQ01+000002VOVAR QNNK11 1 00017S11 1 00056X11 1 08007
0102074340999991982110814004+45867+001183FM-15+0402LFBL V0202201N00921010501CN0112001N1+01101+00801999999ADDAG12999GA1011+004509099GA2021+006009089GA3061+010509059MA1100001999999MW1801OC101541REMMET006NOSIG?
0062131310999991982011818304+45733+016067FM-15+0106LYZA V0200501N00101000601CN0020001N1-00701-00801999999ADDAG11999GA1081+000609079MA1103291999999MW1101REMMET006NOSIG?
0091085360999991982122319304+38767-009133FM-15+0105LPPT V0203501N00411036001CN0112001N1+01001+00701999999ADDAG12999GA1041+005109089GA2051+999999039MA1102811999999REMMET006NOSIG?EQDQ01+000000PRSWM2
054372308013737198207080000C+36900-076200SY-SA+0007ORF  V0201605N005252200059N0192005N1+02615+02065101905ADDAA101000095AA206002091AA324002091AC10C9AG10003AY181061GA1999+015244064GA2999+030484034GA3999+999999999GA4999+999999999GD12025+0150099GD22015+0300099GD30005+9999999GD40005+9999999GF103035021041017501071991KA1120M+02961KA2180N+01871MA1101901101795MD1810101+9999MW1021REMSYN041333   10296 20187 70020 90541 555   06003EQDQ01+000003PRSWM2N01 00000JPWTH 1QNNE11 1 00203E11 1 00201E11 1 00000E11 1 00000G11U1 99999H11 1 15050H11 1 23100H11 1 00999H11 1 00999K11 1 00069L11 1 01200M11 1 30060N11 1 00000Q11 1 10190S11 1 00079V11 1 00404X11 1 16010
0080474250999991982071710304+42800+141650FM-15+0028RJCC V0201401N00821003901CN0070001N1+01701+01501999999ADDAG12999GA1061+003909079GA2081+007509089MA1101021999999MW1801REMMET0082983 BR?
0050161240999991982033005154+44467+009933FM-16+1039LIMT V0200101N00251000151CN0000001N1+99999+99999999999ADDAG12999GA1091+000159999MW1611REMMET009(300500)?
0098999999999991982022812004+57400-141200FM-13+9999KSBG V0200101N012319999999N0200001N9-00161+99999100111ADDAG12001AY131061GF108991071999999999999999MD1210361+9999MW1851SA1+0119REMSYN0170//// 10116 3////
0196780730999991982101118004+25050-077467SY-MT+0003MYNN V0200601N00461220001CN0150001N1+02901+02471101151ADDAA106000091AG14000AY101061GA1021+006009089GA2041+009009059GF104991041081008001001001MA1101081999999MD1710131-0051MW1021REMSYN029333   59005 82820 84630 91963MET011TCU/ALQDS$?EQDQ01+000000PRSWM2
0045160940999991982110714004+45567+011517FM-15+0053LIPT V0209991C00001220001CN0112001N1+00801-00501999999ADDAG11999GA1041+060009009MW1001REMMET004SCT?
0192039700999991982092318004+53717-008983FM-12+006999999V0201901N00311007501CN0240001N9+01011+00781099851ADDAA199000591AG10002AY181061GA1031+007509099GA2021+007509089GA3051+066009009GF107991061031008001031021KA1120M+01591MD1810111+9999MW1021REMSYN047333   10159 83925 82825 85072 97187 97387 97487
0075110360999991982082612504+48117+016567FM-15+0190LOWW V0201401N00411220001CN0112001N1+02501+01501999999ADDAG12999GA1011+012009089MA1101291999999REMMET006NOSIG?EQDQ01+000000PRSWM2
0148526740999991982041806004+38467+102183FM-12+167699999V0202901N00701036001CN0110001N9+01271-00201999999ADDAA106999999AG10019AY181061GF107991011041008001021021KA1240N+00201MA1999999079901MD1710061-0101MW1991REMSYN017333   05152 20020EQDQ01  00002PRCP06
0061107715999991982111713124+49217+011833FM-16+0442EDIH V0202801N004110027019N0112001N1+99999+99999999999ADDAG12999GA1051+002709059GA2081+003609059EQDQ01+000000PRSWM2
0064297240999991982082409004+54300+080500FM-12+015399999V0202801N00501220001CN0500001N9+02421+01241101431ADDAG12000AY101031GF101991011011012501001001MD1710121+9999MW1021
0119271130999991982122003004+59117+037933FM-12+013199999V0202701N00301003001CN0080001N9-00181-00291100751ADDAG11000AY121031GA1081+003009079GF108991081061004501999999KA1120N-00271MD1310301+9999MW1101REMSYN017333   21027 88710
0123710430999991982032201004+65283-126800SAO  +0073YVQ  V0209991C000012200019N0480001N1+00301-00701100801ADDAG10999GD12991+0150099GD23991+0300093GF107991999999999999999999MA1100751099861MW1001REMAWY008SC2AC3 ?EQDQ01+999990APOSP 
0025476420999991982030311004+35750+139350FM-15+0139RJTY V0202901N00101220001CN0112001N1+00401-00701999999ADDAG12999MA1102071999999
0117475150999991982121500004+40550+141467FM-15+0049RJSH V0202401N00101220001CN0112001N1-00101-00301999999ADDAG11000GA1011+009009089MA1102371999999REMMET048244/ FCST        ?     0009 98024 1CU020 6CU030?EQDQ01+000000PRSWM2
0167601010999991982011418004+35717-005900SY-MT+0015GMTT V0201001N00301030001CN0080001N1+01201+01101100861ADDAA199004091AG12002AY161061GA1041+004809089GA2071+030009039GF108991041021004501071999KA1120M+01531MA1100811999999MD1310141+9999MW1601REMSYN011333   10153MET006NOSIG?
0100064070999991982080311004+51200+002867FM-12+0004EBOS V0203401N00411030001CN0040001N9+02201+01901101171ADDAG12999AY121021GA1051+030009039GF105991051001999999031001MD1110041+9999MW1101REMSYN011333   85360
0125083140999991982120612004+39883+004250SY-MT+0055LEMH V0202301N00361220001CN0112001N1+01501+01001103351ADDAA106000091AG14000AY101061GA1041+006009089GF104991041081008001001011MA1103291999999MD1810081+9999MW1021EQDQ01+000000PRSWM2
0070918400999991982011621004-20133-157350FM-12+000999999V0203601N00401004201CN0040001N9+02601+02501101271ADDAG10999AY121031GF108991061021004501071999MW1811REMSYN011333   5689/
0046170600999991982093006204+40967+028817FM-15+0037LTBA V0200701N00411220001CN0070001N1+99999+99999999999ADDAG12000MA1101801999999MW1101REMMET006NOSIG?
0085077900999991982102610254+42550+009483FM-15+0008LFKB V0200401N00411220001CN0112001N1+02001+99999999999ADDAG12999GA1011+009009089MA1102001999999REMMET016NOSIG? (261000)?EQDQ01+000000PRSWM2
0106028740999991982060106004+65033+024800FM-12+000699999V0203201N00211220001CN0400001N9+01091+00401102411ADDAA106000091AG14000GF106991001001999999001061IA1019KA1120N+00651MD1210131+9999REMSYN017333   20065 30///
0115106090999991982090303004+49750+006667FM-12+027399999V0200401N00151220001CN0120001N9+00781+00581103051ADDAG12000AY101031GA1011+075009009GF101991001001999999001011MA1999999099701MD1310041+9999MW1021REMSYN011333   81075
0074477710999991982010819004+34783+135450FM-15+0015RJOO V0209991C00001220001CN0112001N1-00201-00401999999ADDAG11999GA1011+010509089MA1101591999999REMMET0053003?EQDQ01+000000PRSWM2
0064572650999991982062003004+32417+111667FM-12+009299999V0209991C00001004201CN0100001N9+02461+02241100311ADDAG12002AY161031GF108991071071004501021999MD1410001+9999MW1211
0068717155999991982083118004+47800-069550SAO  +0148WNH  V0203101N003612200019N0144001N1+01301+01001101741ADDAA106000091AG10000GD12991+0066099GF102991999999999999999999MW1001
0115108750999991982032015004+48250+012533FM-12+040199999V0200901N00301030001CN0100001N9+00521+00301100751ADDAG12001AY171031GA1071+030009039GF107991071001999999031999MA1999999095931MD1510021+9999MW1021REMSYN011333   87360
0060832480999991982080604004-12933-038350FM-15+0013SBSV V0201101N00511220001CN0112001N1+02401+02001999999ADDAG10999GA1031+006009089MA1101901999999EQDQ01+000000PRSWM2
0150067340999991982121103004+46683+007867FM-12+058099999V0202701N00311220001CN0200001N9+00241-00291100411ADDAG12001AY171031GA1021+015009079GF102991999999017501001001MA1999999093531MD1810121+9999MW1011REMSYN011333   82750EQDQ01+000002SCOTLCQ02+000002SCOLCG
0089478580999991982120105004+33750+129783FM-15+0016RJDB V0202801N00611010501CN0112001N1+01501+00601999999ADDAG12999GA1061+010509089MA1101591999999REMMET0203003 (WIND 240V310)?EQDQ01+000000PRSWM2
0073722577999991982040303004+31150-097417SAO  +0208TPL  V0209991C000012200019N0160001N1+02111+00561999999ADDAG10000GF100991999999999999999999MA1100811999999MW1001REMAWY007PRESRR?
0091161240999991982040120154+44467+009933FM-16+1039LIMT V0200301N00411003001CN0020001N1+99999+99999999999ADDAG12999GA1071+003009089MW1101REMMET050BKN MON INVIS VAL INVIS? (01180          ?     0)?
0114311680999991982081812004+56450+138150FM-12+000999999V0200401N00301012001CN0100001N9+01111+00901101121ADDAA112000391AG10002AY161061GF108991081051012501999999KA1120M+01401MD1210011+9999MW1611REMSYN017333   10140 69932
0077035833999991982052715004+52400+000567FM-15+0010EGUL V0203601N003610090019N0112001N1+01301+00701999999ADDAG12000GA1041+006609059GA2081+009009059MA1101901999999REMMET011CIG030 WHT?
0336724755931291982123000003+37700-113100SAO  +1713CDC  V0203505N00265045724EN0480005N1-00505-01335102185ADDAA106000091AG10000GD13995+0450099GD20995+9999999GD30995+9999999GD40995+9999999GF106055999999999999999999KA1999M-00281MA1101631082635MD1510071+9999MW1001REMAWY007507 27?EQDN01 00000JPWTH 1QNNE11 1 00499E11 1 00099E11 1 00099E11 1 00099G11 1 00150K11 1 00008L11 1 03000M11 1 24400N11 1 00000Q11 1 10218S11 1 00023V11 1 00706X11 1 35005
0075161050999991982072816504+45500+012333FM-15+0002LIPZ V0201301N00101009001CN0112001N1+02401+01601999999ADDAG12999GA1051+009009089MA1101291999999REMMET006NOSIG?EQDQ01+000000PRSWM2
0086064560999991982062223004+50233+004650FM-12+0299EBFS V0202501N00151220001CN0300001N9+01421+01331100751ADDAG12999GA1031+010509059GF103991031051012501001001MD1110131+9999REMSYN011333   83635
0081544710999991982052900004+40667+122200FM-12+000499999V0200201N00301090001CN0120001N9+01741+01121101181ADDAA106000091AG14000GF107991041051017501001021MD1210021-0201REMSYN011333   05206
003972410013733198211140500E+37333-079200SAO  +0281LYH  V02099999999999999999N999999999-00065-00615999999ADDAA101000095QNNK11 1 00021S11 1 00031
0114918300999991982061612004-18833-159767FM-12+0004NCAI V0201301N01081009001CN0200001N9+02441+02101101451ADDAA106000391AG10999AY181061GF108991071081004501999999KA1240M+02701MD1810071+9999MW1801REMSYN017333   10270 563//
0064389740999991982120112004+36533+061217FM-12+027999999V0200701N00301220001CN0200001N9+00541-00311102571ADDAG12000AY101061GF102991021001999999041001MD1710121+9999MW1021
0173161810999991982031812004+43083+012500FM-12+0208LIRZ V0209991C00001024001CN0040001N9+00501+00481100921ADDAA106026091AG10003AY161061GA1041+006009059GA2061+024009039GF108991041051008001071999MA1999999098321MD1210111+9999MW1611REMSYN023333   84620 86358 95990EQDQ01+999990APOSP 
0068724170137291982010818514+38883-079850SAOSP+0606EKN  V0202901N002512200019N0240001N1-00431-01321102381ADDAA106000091AG10000GF100991999999999999999999MA1102101999999MW1001
0089478080999991982070308304+33583+130450FM-15+0012RJFF V0200501N00511220001CN0112001N1+02901+01501999999ADDAG12000GA1011+013509089MA1100611999999REMMET0202971 (WIND 010V090)?EQDQ01+000000PRSWM2
0080992170999991982081903004+51900-155700FM-18+00034600 V0200901N002019999999N9999999N9+01091+99999102791ADDAG12000OA139900301SA1+1309UA1I100059999REMSYN02922200 00130 11001 333   92103
0076105140999991982040519454+50367+007317FM-15+0182EDPN V0209991C00001072001CN0090001N1+01201+00301999999ADDAG12999GA1011+036009039GA2061+072009009MA1101391999999EQDQ01+000000PRSWM2
0122064490999991982070411004+50467+004450FM-12+0187EBCI V0202501N00671060001CN0250001N9+01671+00851102121ADDAG11999AY101021GA1031+010509089GA2081+060009029GF108991031021012501001071MD1210091+9999MW1021REMSYN017333   83835 88270
0161416850999991982090712004+29900+069517FM-12+109799999V0203101N00461220001CN0100001N9+03211+01381999999ADDAA106000091AG10000AY101061GA1041+012009059GF104991041051012501001001KA1120N+99999MD1999999+0021MW1021REMSYN029333   20355 56900 58002 84640EQDQ01 +03552ATMN  
031872421093814198201231700C+39050-084667SAO  +0265CVG  V0202605N010352200059N0192005N1+00175-00445100755ADDAA101000095AG10999GD10995+9999999GD20995+9999999GD30995+9999999GF100005999999999999999999MA1100711097565MW1001OC101541REMAWY007FEW SC?EQDQ01+999990APOSP N01 00000JPWTH 1QNNE11 1 00099E11 1 00099E11 1 00099E11 1 00099G11U1 99999K11 1 00024L11 1 01200M11 1 28810N11 1 00000Q11 1 10075S11 1 00035V11 1 00000X11 1 26020
0123710561999991982050415004+55733-120183SAO  +0655YDQ  V0203001N00661006001EN0112001N1+00101-00201101641ADDAG10001GD13991+0060099GD24991+0210099GF108991999999999999999999MA1101351999999MD1210091+9999MW1711REMAWY013SC7AC3 2009 ?
0108547050999991982112506004+37367+115367FM-12+004299999V0202001N00601220001CN0120001N9+00831-00261103021ADDAA106000091AG14000AY101061GF101991001001999999001021KA1240N-00251MD1710181+9999MW1021REMSYN011333   21025
0075442820999991982081406004+47450+101467FM-12+169799999V0202701N00401007501CN0500001N9+01351+00851101611ADDAA106000091AG14000AY101061GF108991081051008001999999MD1810051+9999MW1021
0095593170999991982120700004+23067+116300FM-12+003099999V0200201N00501036001CN0180001N9+01251+00751102641ADDAA106000091AG14000AY101061GF107991011041008001041999MD1210171+0201MW1021REMSYN011333   00252
0064266290999991982070621004+54883+023883FM-12+007599999V0202801N00201220001CN0120001N9+01241+01121101301ADDAG12002AY181031GF102991011051008001031011MD1810021+9999MW1011
0075723410999991982121114004+34683-094617SAO  +0883PGO  V0200101N008219999999N9999999N9+00111+00001999999ADDAG10999MD1010572+9999REMAWY00730 057?EQDQ01+000572APC3  Q02+000002VOVAR 
0065112310999991982101203164+46650+014350FM-15+0448LOWK V0209991C00001015001CN0050001N1+00801+00701999999ADDAG12003GA1081+015009059MA1100911999999MW1631REMMET009(120250)?
0081485510999991982022703004+09117+099350FM-12+001199999V0200701N00401220001CN0100001N9+03081+02211101251ADDAA106000091AG10000GF106991031051008001001061MD1999999+0031REMSYN011333   58003
0309725110147511982030121003+40217-076850SAO  +0103CXY  V0202205N00415018294EN0240005N1+00675-00615101995ADDAG10000GD13995+0180099GD23995+0600099GD30995+9999999GD40995+9999999GF106065999999999999999999MA1101931100685MD1610511+9999MW1001REMAWY004651?EQDN01 00000JPWTH 1QNNE11 1 00499E11 1 00499E11 1 00099E11 1 00099G11 1 00060K11 1 00021L11 1 01500M11 1 29730N11 1 00000Q11 1 10199S11 1 00044V11 1 00807X11 1 22008
0080992040999991982102722004+25900-089700FM-18+00034200 V0200801N007019999999N9999999N9+02501+99999101951ADDAG12999OA139900901SA1+2569UA1I060109999REMSYN02922200 00256 10602 333   92109
0065025260999991982052912204+57667+012300FM-15+0169ESGG V0202601N00611999991CY0099001N1+01501+00401999999ADDAG12000MA1102611999999REMMET012CAVOK NOSIG?EQDQ01+000000PRSWM2
0122607600999991982021012004+33917+008167FM-12+0051DTTZ V0201201N00601220001CN0100001N9+01781+01001102271ADDAA106000091AG12000GA1031+060009009GF103991011011999999001021MD1110041+9999REMSYN017333   83070 95762EQDQ01+000992SCOLCB
0069038660999991982110205004+50583-001300FM-12+001699999V0202501N004619999999N0200001N9+99999+99999999999ADDAG11999AY101021GF108991999001004501001001MW1021EQDQ01+000002SCOTLC
007494695099999198211092200N-31570+143380AUST +0081     V0202255N004659999999N999999999+02125+00905999999ADDAY124999GA1005+999999999GF100995004999999999999999MA1999999101295MW1025
0078031350999991982030209204+55500-004583FM-15+0020EGPK V0202301N00921007501CN0112001N1+00701+00301999999ADDAG12002GA1021+005409089GA2031+007509059MA1100201999999MW1251REMMET006NOSIG?
0087716275999991982010322004+45517-073417SAO  +0027YHU  V0200101N00511011401MN0240001N1-01201-01701102681ADDAG10999GD14991+0114099GF108991999999999999999999MA1102641999999MW1001REMAWY006SC10 ?
0058085540999991982113001004+37017-007967FM-15+0007LPFR V0209991V00201999991CY0099001N1+00901+00601999999ADDAG11999MA1102001999999REMMET005CAVOKEQDQ01+000000PRSWM2
0044035961999991982032322004+52133+001433FM-15+0026EGVJ V0209991C00001220001CN0090001N1+00201+00001999999ADDAG12999MA1103891999999MW1101REMMET004BLU?
006872374593139198204082100D+34233-111333SAO  +14980E4  V0202201N00411036001EN0480001N1+01501-00661999999ADDAA101000095AG10000GD13991+0360099GF107991999999999999999999MW1001
0092783880999991982040817004+18500-077917FM-15+0008MKJS V0200601N01021220001CN0112001N1+03101+02101101341ADDAG12999GA1011+007509089MA1101291101241EQDQ01+999990APOSP Q02+999990APOSLPQ03+000000PRSWM2
0166118410999991982011906004+49233+018617FM-12+031199999V0200901N00201001501CN0006001N9-01601-01631103501ADDAG11000AJ100129199999999AY141061GA1051+001509079GF105991051061001501001001IA1239IA2999-02009KA1120N-01801MD1610041+9999MW1441REMSYN029333   21180 3/120 47012 85705
0075155561999991982033116304+43233+027833FM-15+0083LBWN V0202301N00511009901CN0112001N1+01501+01001999999ADDAG12999GA1061+009909089MA1100811999999REMMET006NOSIG?EQDQ01+000000PRSWM2
0102726625240061982082619004+44150-103100SAO  +0999RCA  V0203501N006112200019N0640001N1+02061+01221101231ADDAG10999GD12991+0150099GD22991+0300099GD32991+0750099GF102991999999999999999999MA1101391999999MW1001
0060131160999991982042709004+45217+014583FM-15+0085LYRI V0200901N00301220001CN0112001N1+01501+00201999999ADDAG11000GA1021+013209059MA1101291999999EQDQ01+000000PRSWM2
0114526810999991982071418004+38617+103100FM-12+136799999V0200901N00201220001CN0300001N9+01741-00061100581ADDAA106000091AG14000AY101061GF100991001001999999001001KA1240M+03171MD1210131+0701MW1021REMSYN017333   00756 10317
0108012880999991982010818004+62567+011383FM-12+062899999V0200601N00101004201CN0100001N9-02001-02151102192ADDAA199001091AG10001AY181061GF108991081091004501999999KA1120M-01861MD1710121+9999MW1851REMSYN011333   11186
0072724094999991982062521004+40867-074283SAO  +0053CDW  V0202401N00511018001EN0160001N1+99999+99999999999ADDAG10000GD13991+0180099GF107991999999999999999999MA1101731999999MW1001
0064118260999991982020221004+48617+017833FM-12+016599999V0203601N00701220001CN0100001N9-00321-00721103271ADDAG11000AY101031GF100991001001999999001001MD1310031+9999MW1021
030991165022536198209291300C+21983-159350SAO  +0031LIH  V0200805N005252200059N0240005N1+02505+02115101585ADDAA101000095AG10999GD12995+0063099GD22995+0135099GD30995+9999999GD40995+9999999GF104045999999999999999999MA1101591101055MW1001EQDQ01+999990APOSP N01 00000JPWTH 1QNNE11 1 00299E11 1 00299E11 1 00099E11 1 00099G11U1 99999K11 1 00070L11 1 01500M11 1 29840N11 1 00000Q11 1 10158S11 1 00077V11 1 00505X11 1 08010
0155031350999991982052812004+55500-004583FM-12+0020EGPK V0202401N00621012001CN0350001N9+01201+00901102151ADDAA106001091AG10001AY161061GA1011+003609079GA2031+007809059GA3071+012009059GF107991071081004501021999MD1110111+9999MW1151REMSYN023333   81712 83626 87640
0121999999999991982110200004+50600+156200FM-13+9999UMSU V0201501N00201000601CN0040001N9+00661+99999999999ADDAG12000AY161061GF108991081061000751999999MW1501SA1+0489UA1M010059999UG1120201509REMSYN02922243 00048 20101 31500 41204
0060107340999991982053014004+49400+008650FM-15+0109EDIE V0209991V00511220001CN0112001N1+02601+00901999999ADDAG11999MA1102401999999MW1001OC101021REMMET012WND 040V160?
030972764024011198206201000C+46767-100750SAO  +0502BIS  V0200905N001552200059N0192005N1+00835+00615101375ADDAA101000095AG10999GD12995+0240099GD20995+9999999GD30995+9999999GD40995+9999999GF103035999999999999999999MA1101351095435MW1001EQDQ01+999990APOSP N01 00000JPWTH 1QNNE11 1 00299E11 1 00099E11 1 00099E11 1 00099G11U1 99999K11 1 00043L11 1 01200M11 1 28180N11 1 00000Q11 1 10137S11 1 00047V11 1 00404X11 1 09003
0055702640264141982071412004+63333-149133SAO  +0735UMM  V0202501N002019999999N9999999N9+99999+99999999999ADDAA106000091AG10000MA1101591999999EQDQ01+000002VOVAR 
0064576620999991982041915004+28917+111650FM-12+003799999V0203201N00301015001CN0080001N9+01521+01471101371ADDAG12002AY101031GF108991081051017501999999MD1710011+9999MW1601
0068093980999991982090218004+52367+014533FM-12+004899999V0202401N004019999999N9999999N9+01671+00871102251ADDAA106000091AG14000KA1120M+01911MD1210111+9999REMSYN011333   10191
0275724024937391982051419002+37850-075483SAO  +0003WAL  V0200805N007752200059N009600599+01835+01285101805ADDGD10995+9999999GD20995+9999999GD30995+9999999GD40995+9999999GF100005999999999999999999MA1999999101765MW1055EQDN01 08100JPWTH 1QNNE11 1 00099E11 1 00099E11 1 00099E11 1 00099G11U1 99999K11 1 00055L11 1 00600M11 1 30050N11 1 08100Q11 1 10180S11 1 00065V11 1 00000X11 1 08015
0080992480999991982102917004+37400-122700FM-18+00034601 V0201501N004019999999N9999999N9+01401+99999101611ADDAG12999OA139900501SA1+1519UA1I080109999REMSYN02922200 00151 10802 333   92105
0144103200999991982122705004+51933+008317FM-12+0070EDUO V0202201N00571001501CN0050001N9+00731+00691102091ADDAG12999AY161021GA1011+000909079GA2051+001509079GA3081+002409079GF108991081071001501999999MD1810251+9999MW1501REMSYN023333   81703 85705 88708
0344724086147931982110423003+40200-075150SAO  +0102NXX  V0201905N00525002444MN0112005N1+02115+01895100585ADDAG10999GA1999+002444999GA2999+003054999GD13075+0024099GD24085+0030099GD30995+9999999GD40995+9999999GF108995999999999999999999MA1100511099195MW1001OC100921EQDN01 00000JPWTH 1QNNE11 1 00409E11 1 00610E11 1 00099E11 1 00099G11 1 00008H11 1 99008H11 1 99010K11 1 00066L11 1 00700M11 1 29290N11 1 00000Q11 1 10058S11 1 00070V11 1 01099X11 1 19010
0065061800999991982083001504+55633+012667FM-15+0005EKCH V0201701N00611999991CY0099001N1+01401+01101999999ADDAG11999MA1101801999999REMMET012CAVOK NOSIG?EQDQ01+000000PRSWM2
0050999999999991982032106004+13500+068500FM-13+9999SHIP V0200201N00401220001CN0200001N9+02801+99999101401ADDAG12000GF102991999999999999999999REMSYN00522232
0107039280999991982052103004+54850-005800FM-12+000399999V0209991C00001009001CN0300001N9+00871+00781999999ADDAG12000GA1071+009009059GF107991999999012501001001REMSYN011333   87630EQDQ01+000002SCOTLCQ02+000002SCOLCG
0057476420999991982100513004+35750+139350FM-15+0139RJTY V0209991C000010450019N0112001N1+01701+01301999999ADDAG12999GA1081+045009039MA1101831999999REMMET007CIG150?
0141075870999991982112609004+44683+005700SY-MT+103799999V0201601N00931009001CN0100001N1+00761+00341999999ADDAG11000AY101031GA1061+009009059GA2081+018009049GF108991061051008001021999MD1710041+9999MW1021REMSYN017333   86630 88456EQDQ01+000000PRSWM2
0058160590999991982020422504+45217+007650FM-15+0287LIMF V0209991C00001220001CN0011001N1-00101-00201999999ADDAG12999ED199U19209GA1031+002409079MA1103391999999MW1101
0114579020999991982082406004+25433+105183FM-12+137999999V0201801N00301007501CN0300001N9+02491+01761100411ADDAA106000091AG14000AY101061GF107991071011008001041999KA1240N+01941MD1710111+0001MW1021REMSYN017333   00002 20194
0137106580999991982090110004+50200+010083FM-12+022499999V0202501N00211012001CN0220001N9+01661+01031102061ADDAG11999AY101011GA1011+009009089GA2071+012009059GF107991071081008001999999MA1999999098921MD1110071+9999MW1021REMSYN017333   81830 87640
0115105260999991982011914004+50667+007967FM-12+055599999V0201401N00101084001CN0100001N9+00371+00111102531ADDAG11999AY101021GA1071+084009009GF107991001001999999001011MA1999999095791MD1710111+9999MW1021REMSYN011333   87078
0144036070999991982110308004+51750-004517FM-12+000599999V0209991C00001027001CN0030001N9+01211+01121102261ADDAG12999AY161999GA1021+001209079GA2041+010509059GA3061+027009039GF107991041051001501071999MD1310021+9999MW1621REMSYN023333   82704 84635 86359
0091600214999991982021709004+28417-016750FM-15+0050GCTS V0200201N00301006001CN0112001N1+01701+01401999999ADDAG12000GA1061+006009089GA2021+024009039MA1101691999999REMMET006NOSIG?EQDQ01+000000PRSWM2
0050387450999991982010406004+39733+073250FM-12+315599999V0209991C00001220001CN0500001N9-01031-01871999999ADDAG12000GF100991001001999999001001MD1210081+9999
0113164800999991982022009004+36683+015133FM-12+0046LICO V0209991C00001220001CN0120001N9+01401+01201101821ADDAG12000GA1011+060009009GF101991001001999999001011MA1999999101201MD1310101+9999REMSYN023333   81070 555   0200/
0050032810999991982081121004+54367-000667FM-12+023299999V0202101N00511220001CN0170001N9+01651+01181999999ADDAG11000AY101031GF100991001001999999001001MW1021
0087471870999991982112314004+33200+126267FM-15+0013RKPM V0203301N003610090019N0112001N1+01001+00301999999ADDAG12999GA1071+009009059MA1101691999999REMMET018CIG030/QFF1017PT2?EQDQ01+000000PRSWM2
0087163240999991982040106104+40517+017400FM-15+0064LIBG V0203601N00461027001CN0080001N1+01201+00901999999ADDAG12000GA1031+006609059GA2031+027009039GA3061+030009049MW1101REMMET014OVC? (010600)?
0106858620999991982070521004-45400-072700FM-12+0010SCAS V0200101N00311220001CN0200001N9+00071-00401101661ADDAG10999AY101031GA1011+010509059GF101991011051012501001001MD1610061+9999MW1021REMSYN017333   56600 81635
0143747810999991982081903004+30967-083200SAO  +0071VAD  V0200901N001010750019N0112001N1+02221+02061101701ADDAG10000GD12991+0075099GD23991+0750099GF107991999041999999001031MA1101731999999MD1210221+9999MW1001REMAWY033CB DSIPTD/ 222         ?    1403?
0064571340999991982082509004+33450+108250FM-12+054899999V0202001N00501036001CN0300001N9+02471+01801100361ADDAG12000AY101031GF106991021011008001031001MD1710111+9999MW1021
0084745940137051982111521004+38817-076867SAO  +0086ADW  V0203201N006612200019N0112001N1+00611-00821102641ADDAG10000GF100991999999999999999999MA1102611999999MD1210101+9999MW1001REMAWY004210?
0108852010999991982011619004-16500-068183FM-15+4050SLLP V0201501N00511021001CN0112001N1+01501+00601999999ADDAG10999GA1041+006009089GA2011+021009049GA3011+069009009MA1103291062501EQDQ01+999990APOSP Q02+000000PRSWM2
0147619740999991982061203004-10433+056750FM-12+000399999V0201401N00571015001CN0150001N9+02501+02301101281ADDAG10999AY181031GA1041+005409089GA2041+015009059GF107991071081004501999001MD1999999+0061MW1251REMSYN023333   58006 84818 84650EQDQ01    003SCOMCG
0060814050999991982062617004+04833-052367FM-15+0008MOCA V0201001N00511220001CN0112001N1+03101+02101999999ADDAG12999GA1021+007209089MA1101391999999EQDQ01+000000PRSWM2
0106614210999991982082112004+20517-013067FM-12+0224GQPA V0202401N00511220001CN0100001N9+03401+02001101231ADDAG12000AY101061GA1011+039009039GF101991011001999999031001MD1999999+0181MW1021REMSYN017333   58018 81363
0078726460148971982032113004+44917-089617SAO  +0367AUW  V0209991C00001001501WN0024001N1-00101-00211100631ADDAG10999GD15991+0015099GF109991999999999999999999MA1100471999999MW1451MW2711
005872524614891198211240900E+40817-082517SAO  +0395MFD  V02099999999999999999N999999999+00285+99999999999ADDAA101001095EQDP01 +00332ATOD  QNNK11 1 00038S11 1 00037
0172070150999991982112700004+50567+003100SY-MT+0048LFQQ V0202001N00361220001CN0099001N1+00401+00301100491ADDAA106000091AG11000AY101061GA1041+015009059GF104991041051012501999001MA1100411999999MD1110021+9999MW1021REMSYN011333   84650MET005CAVOKEQDQ01+000000PRSWM2Q02    003SCOMCG
0075070150999991982090213304+50567+003100FM-15+0048LFQQ V0203401N00511220001CN0112001N1+01901+01001999999ADDAG12999GA1031+009909089MA1102711999999REMMET006NOSIG?EQDQ01+000000PRSWM2
039572234013865198201020000C+32333-088750SAO  +0088MEI  V0200505N00365002134MN0112005N1+01065+01005101865ADDAA101000095AA206000091AG10000GA1999+002134064GD14085+0021099GD20995+9999999GD30995+9999999GD40995+9999999GF108085999051999999999999KA1999M+01161MA1101901100755MD1110141+9999MW1001REMAWY012114 15// 53?EQDQ01+999990APOSP N01 00000JPWTH 1QNNE11 1 00610E11 1 00099E11 1 00099E11 1 00099G11 1 00007H11 1 15007K11 1 00050L11 1 00700M11 1 29750N11 1 00000Q11 1 10186S11 1 00051V11 1 01010X11 1 05007
0050688160999991982052503004-33967+018600FM-12+0000FACT V0201801N00461220001CN0260001N9+01191+00691102311ADDAG10999GF103991031051008001001001MD1610021+9999
0148075020999991982032100004+44533-001133SY-MT+0033LFBC V0203201N00601015001CN0080001N1+00981+00841102291ADDAA106003091AG10002AY181061GA1031+002409079GA2071+015009059GF108991071051002501999999MA1999999101881MD1110041+9999MW1611REMSYN017333   83708 87650
0058082230999991982080817004+40367-003783FM-15+0690LEVS V0200601N00301999991CY0099001N1+02801+00801999999ADDAG11999MA1102001999999REMMET005CAVOKEQDQ01+000000PRSWM2
0057722570039331982092114004+31150-097717SAO  +0283HLR  V0200301N003612200019N0240001N1+01671+00831102311ADDAG10999GF100991999999999999999999MA1102471999999MW1001
0074477270999991982090413004+35783+140017FM-15+0033RJTL V0203401N00611220001CN0112001N1+01801+01401999999ADDAG12999GA1031+004509089MA1100711999999REMMET0052976?EQDQ01+000000PRSWM2
0032103084999991982042010004+52433+007200FM-15+9999EDUN V0209991C00001001801CN0040001N1+00601+99999999999ADDAG12999GA1071+001809079MW1051
0076722800231951982052111004+32667-114600SAO  +0063YUM  V0201301N001512200019N0240001N1+02221-00381100881ADDAG10999GF100991999999999999999999MA1100881100101MW1001EQDQ01+999990APOSP 
028672207003822198212272300C+32133-081200SAO  +0014SAV  V0201405N002650762049N0160005N1+02005+01675102415ADDAA101000095GD12995+9999999GD22995+9999999GD34995+9999999GD40995+9999999GF108055999999999999999999MA1999999102245MW1001EQDN01 00000JPWTH 1QNNE11 1 00299E11 1 00299E11 1 00699E11 1 00099G11 1 00250K11 1 00062L11 1 01000M11 1 30190N11 1 00000Q11 1 10241S11 1 00068V11 1 01006X11 1 14005
0058107080999991982082601204+49217+007117FM-15+0334EDRS V0201301N00251999991CY0099001N1+01401+01301999999ADDAG11999MA1101191999999REMMET005CAVOKEQDQ01+000000PRSWM2
0064299550999991982071515004+52817+088450FM-12+041199999V0209991C00001220001CN0500001N9+01961+01581100481ADDAG11000AY101031GF102991001001999999001011MD1310081+9999MW1021
0050245610999991982021409004+65000+130683FM-12+073799999V0209991C00001220001CN0500001N9-02861-03331105071ADDAG12000GF100991001001999999001001MD1310051+9999
0127874480999991982121705004-33733-065383FM-12+0485SAOR V0202001N00311220001CN0200001N9+01781+01651100511ADDAG10999AY121021GA1011+012009089GF104991031091012501071001MA1100581999999MD1110121+9999MW1131REMSYN023333   81840 555   10056
0050507580999991982052809004+47183+125917FM-12+025999999V0203201N00501220001CN0200001N9+01891+00081100921ADDAG12000GF102991021011008001001001MD1210021+9999
0134220190999991982051006004+69067+033467FM-12+002099999V0202201N01001220001CN0290001N9+00741+00151101761ADDAA112000891AA299001091AG10000GF100991001001999999001001KA1120N+00431MD1210071+9999OA159901301REMSYN029333   20043 69982 555   91213
029372666024029198205201600C+44767-106967SAO  +1208SHR  V0202905N006250061049N0080005N1+00785+00445102265ADDAA101001595AG10999GD12995+0024099GD24995+0060099GD30995+9999999GD40995+9999999GF108085999999999999999999MA1102201088385MW1615EQDN01 02000JPWTH 1QNNE11 1 00299E11 1 00699E11 1 00099E11 1 00099G11 1 00020K11 1 00040L11 1 00500M11 1 26100N11 1 02000Q11 1 10226S11 1 00046V11 1 01010X11 1 29012
0157478400999991982032313324+33667+131033FM-16+0019RJFZ V0209991C00001006001CN0028001N1+99999+99999999999ADDAG12999GA1011+003009089GA2021+006009099GA3061+006009089GA4081+009009089MW1801REMMET068BR/        ?     AMD FCST 1318 98132 2000 95TS 3CU010 6CB020 8CU030?
0114484310999991982081909004+14967+102083FM-12+018899999V0202501N00261045001CN0090001N9+03001+02181100451ADDAA106999999AG14003AY121031GF108991031091008001071999MD1999999-0221MW1211REMSYN011333   59022EQDQ01  00002PRCP06
0110999999999991982112012004+36200-143700FM-13+9999GOVM V0201801N01131220001CN0200001N9+01771+01601100421ADDAG12002AY161061GF104991021999001501999999MD1410001+9999MW1151SA1+2109REMSYN02922214 00210 2//// 3//// 4////
0091031350999991982032209204+55500-004583FM-15+0020EGPK V0202401N00511018001CN0112001N1+00701+00501999999ADDAG12000GA1011+007509089GA2061+018009059MA1102611999999REMMET006NOSIG?EQDQ01+000000PRSWM2
0048467460999991982030610104+23467+120383FM-16+0025RCKU V0203301N00251220001CN0060001N1+99999+99999999999ADDAG12999GA1021+003609079GA2011+024009039MW1051
0065110100999991982071013204+48233+014183FM-15+0304LOWL V0202801N00201999991CY0099001N1+02601+01001999999ADDAG12999MA1101901999999REMMET012CAVOK NOSIG?EQDQ01+000000PRSWM2
0044725610240301982100509004+41100-102983SAO  +1314SNY  V0201301N002019999999N9999999N9+00891+00611999999ADDAG10000MA1101591999999EQDQ01+000002VOVAR 
0114350780999991982120606004+51817+068367FM-12+030899999V0202501N00601220001CN0100001N9-01221-01421101631ADDAA112002091AG12000AY171061GF100991001001999999001001KA1120N-01301MD1210101+9999MW1761REMSYN017333   21130 60020
0087725126147361982121013004+40300-078317SAO  +0458AOO  V0202001N004112200019N0320001N1-00771-01491103001ADDAG10999GD12991+0240099GD22991+0750093GF102991999999999999999999MA1102711999999MW1001
0064471150999991982102418004+37483+130900FM-12+022399999V0200501N00151007501CN0100001N9+00341+00061101771ADDAG12002AY171061GF108991081071008001999999MD1410001+9999MW1681
0193710800999991982081506004+68300-085683SY-SA+0399WUU  V0201301N00611060001EN0240001N1+00701+00201101371ADDAA106000091AG10000AY101061GD14991+0600099GF108991001001999999001071KA1240M+00841KA2240N+00181MA1101121096411MD1010001+9999MW1021REMSYN017333   10084 20018AWY011CS10 0000 ?EQDQ01+000003PRSWM2
0094234050999991982031118004+65450+052167FM-12+007099999V0200801N00401220001CN0500001N9-01841-02171103601ADDAA106000091AG10000GF100991001001999999001001KA1120M-01321MD1310021+9999REMSYN011333   11132
0055131160999991982090606164+45217+014583FM-16+0085LYRI V0209991C00001220001CN0080001N1+99999+99999999999ADDAG12000MW1101REMMET0301CIWFWCB WQMQ  QPQUV (060600)?
0075726376999991982113008004+43000-082417SMARS+017733G  V0202501N002519999999N0111001N9+00381+99999101521ADDAG10999GF107991999999999999999999MW1051REMSYN024M     M     PORT  HURON?
029472223013894198210271100C+30683-088250SAO  +0064MOB  V0200405N002652200059N0160005N1+00615+00395102425ADDAA101000095AG10999GD10995+9999999GD20995+9999999GD30995+9999999GF100005999999999999999999MA1102441101635MW1001EQDQ01+999990APOSP N01 00000JPWTH 1QNNE11 1 00099E11 1 00099E11 1 00099E11 1 00099G11U1 99999K11 1 00039L11 1 01000M11 1 30010N11 1 00000Q11 1 10242S11 1 00043V11 1 00000X11 1 04005
0092719644999991982042402004+62217-133367SAO  +0717ZFA  V0200301N00251021001EN0240001N1+00401-00901101271ADDAG10999GD13991+0210099GF107991999999999999999999MA1100981999999MW1001REMAWY011SAWR  AC8 ?
0095579720999991982092306004+25817+113017FM-12+018599999V0200701N00301220001CN0140001N9+02771+01631101201ADDAA106000091AG14000AY101061GF102991021011012501001001MD1710131+9999MW1021REMSYN011333   217//
0076112400999991982111502164+47000+015450FM-15+0347LOWG V0209991C00001000301CN0001001N1+00301+00301999999ADDAG11999ED135U03359GA1091+000309999MA1100711999999MW1471REMMET009(150150)?
030972226013895198204021600C+32300-086400SAO  +0067MGM  V0201105N00365007014MN0112005N1+02395+01675101685ADDAA101000095AG10999GD13995+0069099GD23995+0240099GD30995+9999999GD40995+9999999GF107075999999999999999999MA1101691100955MW1001EQDQ01+999990APOSP N01 00000JPWTH 1QNNE11 1 00499E11 1 00499E11 1 00099E11 1 00099G11 1 00023K11 1 00062L11 1 00700M11 1 29810N11 1 00000Q11 1 10168S11 1 00075V11 1 00909X11 1 11007
0083284650999991982052615004+56683+066350FM-12+006099999V0201801N00301220001CN0350001N9+01811-00381102081ADDAG12000GF100991001001999999001001KA1120M+02131MD1710121+9999REMSYN011333   10213
031172268023009198209180100C+33300-104533SAO  +1112ROW  V0202405N00625024384EN0480005N1+02565+01395101265ADDAA101000095AG10999GD13995+0240099GD24995+0750099GD30995+9999999GD40995+9999999GF108065999999999999999999MA1101801089035MW1001REMAWY009BINOVC E?EQDN01 00000JPWTH 1QNNE11 1 00499E11 1 00699E11 1 00099E11 1 00099G11 1 00080K11 1 00057L11 1 03000M11 1 26290N11 1 00000Q11 1 10126S11 1 00078V11 1 01007X11 1 24012
0078766910999991982122507004+19200-096133SAO  +0014VER  V0209991C000012200019N0096001N1+02001+01801999999ADDAG10999GD16991+0001599GF110991999999999999999999MA1100951999999MW1041MW2051
0107162890999991982041118504+40883+014300FM-15+0072LIRN V0202101N00201220001CN0112001N1+01401+01201100961ADDAG12999GA1021+003609089MA1100911100101REMMET006NOSIG?EQDQ01+999990APOSP Q02+999990APOSLPQ03+000000PRSWM2
0057722025128491982111315004+26067-080150SAO  +0003FLL  V0209991C000012200019N0160001N1+02611+99999999999ADDAG10000GF100991999999999999999999MA1102001999999MW1001
0128722887999991982042919004+34100-117783SAO  +0305POC  V0202601N003610030019N0040001N1+99999+99999999999ADDAG10999GD16991+0001599GD22991+0024099GD34991+0030099GF108991999999999999999999MA1101321999999MW1051MW2451REMAWY011FH2 BINOVC?
0100161910999991982042005104+43617+013367FM-15+0012LIPY V0201801N00201999991CY0099001N1+00201+00101101431ADDAG12999MA1101391101301REMMET015CAVOK (200400)?EQDQ01+999990APOSP Q02+999990APOSLPQ03+000000PRSWM2
0127284510999991982070818004+56850+062717FM-12+011399999V0209991C00001220001CN0200001N9+02021+01681102041ADDAA106000091AG10000AY101061GF102991021041999999001001KA1120M+02711MD1310031+9999MW1021REMSYN011333   10271EQDQ01+000992SCOLCB
0108038320999991982030909004+50717-004000FM-12+037299999V0202301N00901030001CN0160001N9+00471+00321999999ADDAG12000AY121031GA1031+003009089GA2081+030009039GF108991999999004501999999MW1051REMSYN017333   83810 88360
0119746710138061982070109004+36667-087500SAO  +0174HOP  V0209991C000012200019N0112001N1+01831+01331101761ADDAG10000GD12991+0240099GD23991+0750093GF107991999001999999071081MA1101801999999MD1810021+9999MW1001REMAWY009802 1078?
0095542590999991982091600004+42100+124950FM-12+023799999V0209991C00001220001CN0040001N9+01491+01241102331ADDAA106000091AG10000AY101061GF100991001001999999001001MD1210061+0301MW1101REMSYN011333   00303
0093725386999991982073003004+43833-082533SAO  +0183P58  V0201401N001519999999N9999999N9+02061+01501999999ADDAG10000REMAWY055RAMOS /69/59/1403/M PK WND 07 ///000 RNO       ?    BT?EQDQ01+000002VOVAR 
0057724456139971982040104004+38133-091767SAO  +0350VIH  V0209991C000012200019N0240001N1+01171-00711102131ADDAG10999GF100991999999999999999999MA1102171999999MW1001
0050091770999991982051011004+53767+012617FM-12+004699999V0202801N00301220001CN0160001N9+01221+00211102081ADDAG12999GF103991031021008001001001MD1810011+9999
0108092610999991982111018004+52900+011733FM-12+002399999V0202101N00401030001CN0120001N9+01151+00581101691ADDAA106000091AG14000AY101061GF105991051001999999071001KA1120M+01501MD1110101+9999MW1021REMSYN011333   10150
0062165600999991982110905504+39250+009050FM-15+0018LIEE V0201001N00411220001CN0070001N1+01901+01701999999ADDAG12000GA1041+027009039MA1101391999999MW1101REMMET006NOSIG?
0217479450999991982121206004+25833+131233SY-MT+0015ROMD V0203501N00771012001CN0112001N1+01901+01501101631ADDAG12004AY181061GA1041+006009089GA2051+012009059GA3081+024009039GF108991071081999999071999KA1150M+02341MA1101591999999MD1310021+9999MW1021REMSYN011555   00234MET0323000 (WIND       ?     320V020)?EQDQ01+000000PRSWM2
0060103430999991982072620454+52600+010033FM-15+0039EDCL V0202901N00101220001CN0112001N1+01501+00901999999ADDAG12000GA1031+012009059MA1101801999999EQDQ01+000000PRSWM2
0100037150999991982090419004+51400-003350FM-12+0067EGFF V0202501N00101220001CN0250001N9+01721+01371101861ADDAG11999AY101011GA1011+010509059GF101991011051012501001021MD1710161+9999MW1021REMSYN011333   81635
0032107880999991982112205224+48817+012583FM-16+0352EDPS V0201501N00151220001CN0060001N1+99999+99999999999ADDAG12999GA1021+090009009MW1101
0135999999999991982112900004-50800+167000FM-13+9999USGN V0203201N01001007501CN0200001N9+99999+99999103011ADDAG10999AY101061GF106991061051008001001001MD1210121+9999MW1021SA1+1149UA1M050209999UG1060202209REMSYN02922231 00114 20504 32200 40604
0050569450999991982040203004+23567+099083FM-12+051299999V0209991C00001007501CN0120001N9+02081+01831101161ADDAG12000GF106991061041008001061001MD1210101+9999
0064596730999991982092003004+21683+112750FM-12+001899999V0202701N00501220001CN0290001N9+03171+02631100991ADDAG12000AY101031GF101991011011004501001021MD1210011+9999MW1021
0114351080999991982050918004+51250+051400FM-12+003699999V0209991C00001030001CN0100001N9+01411+01171103471ADDAA112002091AG10005AY191061GF105991051001999999031001KA1120M+02201MD1210161+9999MW1011REMSYN017333   10220 60022
0193990180999991982100314004+66000+002000FM-13+0000C7M  V0201901N00771006001CN0100001N9+00931+00891101581ADDAG12999GA1021+002409079GA2061+006009059GA3081+015009059GF108991081051001501999999MD1710121+9999SA1+0949UA1M030159999UG1080302309REMSYN05322272 00094 20303 323// 40806 333   82708 86620 88650
0081573780999991982030300004+31167+112567FM-12+006699999V0201601N00501036001CN0100001N9+00821+00371101841ADDAA106000091AG12000GF107991071001999999031999MD1710101-0701REMSYN011333   05702
0086034820999991982041417004+52650+000550FM-12+0024EGYM V0201101N00101220001CN0300001N9+01421+00161102251ADDAG12999GA1011+013509089GF102991011011012501001011MD1610081+9999REMSYN011333   81845
0123719400999991982071017004+55183-118883SAO  +0669YQU  V0202501N001012200019N0400001N1+01901+01201101581ADDAG10999GD12991+0084099GD22991+0330093GF102991999999999999999999MA1101521093731MW1001REMAWY008CU1AC1 ?EQDQ01+999990APOSP 
0059726610999991982110209004+45267-103533SAO  +0925REJ  V0203001N008219999999N9999999N9+00171-00211999999ADDAG10000MD1010001+9999REMAWY00724 000?EQDQ01+000002VOVAR 
0130037660999991982042907004+51283-000750FM-12+0072EGUF V0203001N00461066001CN0180001N9+00871+00551102051ADDAG12999GA1011+006009089GA2041+036009039GA3081+066009029GF108991011011008001031071MD1010001+9999REMSYN023333   81820 84362 88272
0111999999999991982122700004+27300-015900FM-13+9999ESIW V0200501N01001220001CN0200001N9+01951+99999102721ADDAG12000AY101061GF100991001001999999001001MD1210101+9999MW1021SA1+2009UA1M070259999REMSYN01722213 00200 20705
0116719060999991982041116004+58100-068417SAO  +0037YVP  V0202901N00971004201EN0160001N1-00101-00401099471ADDAG10999GD14991+0042099GF108991999999999999999999MA1099421098981MW1711REMAWY016SC10 DRFTG SNW ?EQDQ01+999990APOSP 
0063061180999991982092111504+54967+009800FM-15+0023EKSB V0201801N00611006001CN0080001N1+99999+99999999999ADDAG12001GA1031+003609059GA2051+006009059MA1099901999999MW1601
0083467400999991982112622004+22567+120350FM-15+0008RCKH V0200101N00201018001CN0050001N1+02001+01901999999ADDAG12999GA1021+009009059GA2071+018009059MA1101491999999MW1101REMMET0113000 NOSIG?
030972486023154198210051300C+39283-114850SAO  +1906ELY  V0203305N002652200059N0240005N1+00225-00115101345ADDAA101000095AG10999GD12995+0120099GD20995+9999999GD30995+9999999GD40995+9999999GF104045999999999999999999MA1101801080805MW1001EQDQ01+999990APOSP N01 00000JPWTH 1QNNE11 1 00299E11 1 00099E11 1 00099E11 1 00099G11U1 99999K11 1 00030L11 1 01500M11 1 23860N11 1 00000Q11 1 10134S11 1 00036V11 1 00505X11 1 33005
0105037780999991982062006004+51517-000117FM-12+0023EGRB V0202701N00101220001CN0250001N9+01231+01041101641ADDAG12000GA1041+075009009GF104991001001999999001011KA1120N+01191MD1310041+9999REMSYN017333   20119 84075
0057785145999991982031010004+18250-067150SAO  +0009MJMZ V0200901N002512200019N0160001N1+02001+01831999999ADDAG10999GF100991999999999999999999MA1101831999999MW1001
0057722485139441982012616004+32500-093667SAO  +0051BAD  V0200501N004112200019N0240001N1+00611-00551103211ADDAG10999GF100991999999999999999999MA1103221999999MW1001
0148308180999991982041200004+51167+103667FM-12+999999999V0202801N00201030001CN0200001N9+00682-00831103061ADDAA106000091AG10000AJ199992999999999GF106991021051008001051001IA1259KA1120N+00141MD1210141+9999REMSYN023333   20014 555   41998EQDQ01+028003ATOT  
0141711010999991982111511004+53250-131817SAO  +0006YZP  V0201501N002510135019N0240001N1+00401+00301101131ADDAG10999GD12991+0045099GD23991+0135099GD33991+0330099GF107991999999999999999999MA1101121101051MW1801REMAWY011CB2SC4AC1 ?EQDQ01+999990APOSP 
0069979800999991982100909004-08467+140383FM-12+000399999V0201201N00621220001CN0120001N9+02641+02131100971ADDAG10999AY141031GF102991001001999999001021MW1051EQDQ01+000942SCOLCB
0057723865231121982100410004+36233-115033SAO  +0570LSV  V0200101N001012200019N0320001N1+01281-00101100861ADDAG10999GF100991999999999999999999MA1101021999999MW1001
0075471290999991982120909004+36783+126450FM-12+002199999V0200201N00101220001CN0250001N9+00161-00381102731ADDAA106000091AG14000AY101031GF101991011001999999031001MD1210061+9999MW1021
0064333760999991982062500004+50367+033983FM-12+015699999V0203001N00301004201CN0018001N9+01461+01371100251ADDAG12001AY161061GF108991081061004501999999MD1410001+9999MW1101
0065083910999991982113010004+37417-005883FM-15+0020LEZL V0200601N00921999991CY0099001N1+00901+00101999999ADDAG12999MA1102101999999REMMET012CAVOK NOSIG?EQDQ01+000000PRSWM2
0047071090999991982030310004+48283-004433FM-15+0087LFRL V0209999999999001201CN0015001N1+01001+01001999999ADDAG12999GA1081+001209079MA1100911999999MW1581
0111014820999991982042906004+59033+010533FM-12+000699999V0202901N00621220001CN0500001N9+00531-00051099421ADDAA106000091AG14000GF104991011021008001071081KA1120N+00531MD1710091+9999OA149901031REMSYN017333   20053 91120
0080366190999991982030406004+47083+079717FM-12+042299999V0200201N00601220001CN0500001N9-00981-01511999999ADDAA106000091AG10000GF100991001001999999001001KA1120N-01571REMSYN011333   21157
0084299740999991982082815004+52883+093017FM-12+140499999V0200401N00201220001CN0500001N9+00221+00081999999ADDAG11000AY101031GF103991031041008001001001MD1210061+9999MW1021REMSYN011555   95990
0065404770999991982102501004+21500+039200FM-15+0011OEJD V0200501N00201999991CY0099001N1+02701+02101999999ADDAG11999MA1101081999999REMMET012CAVOK NOSIG?EQDQ01+000000PRSWM2
0106653380999991982012715004+07167+002067FM-12+016799999V0209991C00001078001CN0200001N9+03651+00981100821ADDAG11000AY101031GA1051+078009009GF105991001001999999001021MD1999999+0091MW1021REMSYN017333   58009 85076
0100104240999991982102507004+51567+007917FM-12+0079EDCW V0202001N00101220001CN0070001N9+00501+00361102321ADDAG11999AY101011GA1021+030009039GF103991021001999999031011MD1210011+9999MW1021REMSYN011333   82360
0115101470999991982092404004+53633+009983FM-12+0016EDDH V0201401N00311220001CN0200001N9+00891+00591100971ADDAG12999AY101011GA1021+039009039GF102991021001999999031011MA1999999100771MD1110011+9999MW1021REMSYN011333   82363
0108788079999991982072620004+07517-078150FM-15+0009MPJE V0209991C000010075019N0112001N1+99999+99999999999ADDAG12999GA1021+000909079GA2041+007509059GA3061+021009049MA1100911999999MW1211REMMET020CIG025 RA        ?E?
0063036731999991982110203504+51883-000367FM-15+0160EGGW V0203201N00251000601CN0025001N1+01201+01201999999ADDAG12999GA1061+000609079GA2081+000909079MA1102201999999MW1601
0124161240999991982092109004+44467+009933FM-12+1039LIMT V0201801N01081000151CN0000001N9+01541+01541999999ADDAG12009AY191031GA1091+000159999GF109991091999999999999999MA1999999090071MD1310061+9999ME1315259MW1951REMSYN011333   89/00
0083601910999991982013109004+32333-006383FM-12+046899999V0209991C00001220001CN0200001N9+00551+00311103061ADDAG12000AY101031GF100991999999999999999999MD1310091+9999MW1021EQDQ01+000952SCOLCB
0125471390999991982062522004+35983+129417FM-15+0020RKTH V0200301N004110075019N0112001N1+01901+01401999999ADDAG12999GA1021+006009059GA2051+007509059MA1101631999999OC100721REMMET032CIGE025/QFF1016P       ?     T6?EQDQ01+000000PRSWM2
0128037030999991982071407004+51017-004533FM-12+009199999V0200501N00931007501CN0100001N9+01551+01451100901ADDAG11999AY101011GA1051+007509059GA2081+030009039GF108991051051008001071999MD1610031+9999MW1021REMSYN023333   85625 88360 91827
0108029760999991982020518004+60367+026967FM-12+001199999V0200801N00801002101CN0080001N9-00641-00781102341ADDAA199000091AG14001AY171061GF108991081061002501999999KA1120M-00251MD1710031+9999MW1101REMSYN011333   11025
0113718030999991982112610004+48950-054567SAO  +0147YQX  V0202401N008212200019N0320001N1-00501-00901101601ADDAG10999GD12991+0090099GF102991999999999999999999MA1101491099691MW1001OC101131REMAWY005SC2 ?EQDQ01+999990APOSP 
0094293130999991982061812004+57567+079450FM-12+009399999V0202401N00301220001CN0200001N9+02461+01021102181ADDAA106000091AG14000GF102991001001999999001011KA1120M+02501MD1710191+9999REMSYN011333   10250
0016717075999991982070917004+46233-061300SAO  +0041WVE  V0201901N007719999999N0144001N1+02901+01801100681ADDAG10999MW1001
0082160840999991982010501004+44917+009733FM-15+0140LIMS V0209991C00001010501CN0030001N1+00301+00301101921ADDAG11999GA1081+010509059MA1101801100181MW1101EQDQ01+999990APOSP Q02+999990APOSLP
0084063700999991982102910004+51450+005417FM-12+0022EHEH V0201201N00411220001CN0025001N9+01171+00851103201ADDAG11999AY101011GF100991001001999999001001MD1210021+9999MW1101REMSYN011555   516//
0050023260999991982031712004+61667+014983FM-12+044099999V0201801N00301001201CN0025001N9+00021-00151999999ADDAG12001AY141061GF108991081061001501999999MW1831
0190847820999991982101815004-18067-070267SY-MT+0458SPTN V0209991C00001009001CN0150001N1+01901+01341101211ADDAG10999AY121031GA1051+009009059GA2031+012009059GF108991051051008001999999MA1101691999999MD1999999-0251MW1021REMSYN029333   564// 59025 85630 83640MET016PLAF CON CLAROS?EQDQ01+000000PRSWM2
0123718080999991982041116004+51433-057217SAO  +0019WBX  V0202601N00661009001EN0240001N1-00101-00401099521ADDAG10999GD13991+0090099GD23991+0300099GF107991999999999999999999MA1099491099271MW1001REMAWY008SC6AC3 ?EQDQ01+999990APOSP 
0064282550999991982022712004+58050+063683FM-12+007199999V0200101N00201030001CN0010001N9-00701-00751099881ADDAG12003AY171061GF108991081001999999071999MD1710131+9999MW1751
0080725775041111982060601004+41333-111000SAO  +2012EVW  V0202401N01021000151WN0016001N1+00171+00171999999ADDAG10999GD15991+0001599GF109991999999999999999999MA1101191999999MW1731OC101281
0086400390999991982032709004+35933+039017FM-12+024599999V0203201N00201220001CN0200001N9+01211-00811101321ADDAG12000GA1011+009009089GF101991011011008001001001MD1810021+9999REMSYN011333   81830
0183781010999991982091212004+22200-075733FM-12+001199999V0200901N00721072001CN0220001N9+02881+02301101651ADDAA106000091AG14000AY101061GA1031+005409089GA2071+072009009GF107991031021004501001041KA1240M+03261KA2120N+02671MD1999999+0131MW1021REMSYN041333   10326 20267 58013 83818 87074 90803
0100025120999991982100109004+57783+011883FM-12+005399999V0201101N00311220001CN0050001N9+01411+01071102051ADDAG12000AY121031GA1011+030009039GF101991011001999999031001MD1310081+9999MW1101REMSYN011333   81360
0076085150999991982042223004+36967-025167FM-15+0102LPAZ V0200301N00301009001CN0112001N1+01201+00801999999ADDAG12999GA1021+005409089GA2031+009009059MA1102101999999EQDQ01+000000PRSWM2
0016714360999991982060301004+44383-079783SAO  +0295WCU  V0202901N004119999999N0144001N1+00801+00101101561ADDAG10999MW1001
0083409860999991982021803004+31100+061933FM-12+047899999V0203401N00201220001CN0200001N9+01151+00641100981ADDAG12000GF105991011001999999031081KA1120N+01051MD1210061+9999REMSYN011333   20105
0170717375999991982111306004+46483-084500SAO  +0188YAM  V0203401N00511006301MN0192001N1-00401-00801101361ADDAA106999999AG10001GD13991+0063099GD24991+0300099GF108991999999999999999999MA1101251999999MD1110571+9999MW1851OC101021REMAWY022SC8AC2     ?    1057 ?EQDQ01  00002PRCP06
0158082240999991982120418004+40300-003717SY-MT+0623LEGT V0209991C00001036001CN0112001N1+00601+00201103561ADDAA106000091AG14000AY101061GA1041+021009039GF108991041051008001031999KA1120M+00941MA1103391999999MD1310051+9999MW1021REMSYN011333   10094EQDQ01+000000PRSWM2
0046156091999991982081507004+42700+023400FM-15+0530LBSF V0200501N00101220001CN0070001N1+01901+01301999999ADDAG11999MA1102201999999MW1101REMMET006NOSIG?
0078104000999991982080518204+51283+006767FM-15+0045EDDL V0201301N00151027001CN0035001N1+01901+01701999999ADDAG12000GA1021+009009059GA2051+027009039MA1101191999999MW1101REMMET006NOSIG?
0070164590999991982091702104+37400+014917FM-15+0022LICZ V0209991C00001220001CN0050001N1+01901+01801999999ADDAG11999GA1031+009009059MA1101901999999MW1101REMMET014SCT? (170200)?
0076112310999991982081013204+46650+014350FM-15+0448LOWK V0201201N00201220001CN0112001N1+02401+01201999999ADDAG12999GA1011+012009089GA2031+033009039MA1102001999999EQDQ01+000000PRSWM2
0068161470999991982082618164+44200+012067FM-15+0028LIPK V0209991C00001999991CY0099001N1+02601+01701999999ADDAG12000MA1101391999999REMMET015CAVOK (261800)?EQDQ01+000000PRSWM2
0112725280147331982120903334+42933-078733SAOSP+0217BUF  V0200101N00511001201MN0024001N1+99999+99999999999ADDAG10001GD13991+0012099GD24991+0036099GF108991999999999999999999MA1102781100191MW1451MW2851EQDQ01+999990APOSP 
0109433690999991982070115004+08300+073000FM-12+000299999V0203201N00151220001CN0020001N9+02841+02441100941ADDAA112000291AG10000GA1021+006009059GF104991031081008001001011MD1999999-0151REMSYN023333   59015 6992/ 82620
0065404760999991982073110004+21667+039150FM-15+0008OEJN V0202301N00411999991CY0099001N1+03501+02301999999ADDAG12999MA1100411999999REMMET012CAVOK NOSIG?EQDQ01+000000PRSWM2
0106637170999991982010209004-00500+036967FM-12+179899999V0200501N00201007501CN0450001N9+02221+01311999999ADDAG10999AY101031GA1061+007509089GF106991061021008001999999MD1999999-0011MW1031REMSYN017333   59001 86825
0063014520999991982020419204+58200+008083FM-15+0016ENCN V0200501N00361002701CN0090001N1-00301-00501999999ADDAG12999GA1071+002709079MA1103491999999MW1101REMMET007047014?
0087678530999991982041906004-18633+026850FM-12+107799999V0209991C00001220001CN0500001N9+01671+00361999999ADDAA106000091AG10999GF100991001001999999001001MD1999999+0021REMSYN017333   2007/ 58002
0039083970999991982051217004+37150-005600FM-15+0088LEMO V0202001N00411999991CY0099001N1+02601+00401999999ADDAG12999MA1102001999999REMMET005CAVOK
0050230740999991982022618004+69400+086167FM-12+002899999V0200901N00401220001CN0100001N9-03271-03661100121ADDAG12000GF102991001001999999001011MD1710021+9999
0065112400999991982032614504+47000+015450FM-15+0347LOWG V0209991V00101999991CY0099001N1+01501-00101999999ADDAG12000MA1102511999999REMMET012CAVOK NOSIG?EQDQ01+000000PRSWM2
0050541020999991982032309004+43950+116067FM-12+099199999V0203201N00501220001CN0300001N9-00681-02581104041ADDAG12000GF100991001001999999001001MD1410001+9999
0076109470999991982052819504+47983+010233FM-15+0634EDSM V0209991C00001006601CN0040001N1+01201+01001999999ADDAG12999GA1051+006609089GA2081+015009059MA1102511999999MW1101REMMET004GRN?
0095219650999991982121203004+70633+162400FM-12+000699999V0200101N01101024001CN0020001N9-01621-01821101241ADDAG12001AY171031GF108991081001999999071999MD1710161+9999MW1711OA149901501REMSYN011555   91115
006570398025308198203140500E+55033-131567SAO  +0033ANN  V02099999999999999999N999999999+99999+00175999999ADDAA101000395GF108995999999999999999999QNNK11 1 00035V11 1 01099
0050999999999991982021800004+17600+086600FM-13+9999SHIP V0202001N00301220001CN0100001N9+02501+99999101201ADDAG11000AY101061GF102991021011004501001001MW1011
050272693024221198208010600C+44117-123217SY-SA+0109EUG  V0202505N00155013414CN0192005N9+01565+01005101945ADDAA101000095AA206000091AG14000AY101061GA1999+013414064GA2999+999999999GA3999+999999999GA4999+999999999GD13065+9999999GD20005+9999999GD30005+9999999GD40005+9999999GF106065061051012501001991KA1240M+02391KA2240N+01331MA1101931100585MD1310071+9999MW1021REMSYN017333   10239 20133EQDQ01+999990APOA  N01 00000JPWTH 1QNNE11 1 00407E11 1 00000E11 1 00000E11 1 00000G11 1 00044H11 1 15044H11 1 00999H11 1 00999H11 1 00999K11 1 00050L11 1 01200M11 1 29700N11 1 00000Q11 1 10194S11 1 00060V11 1 00707X11 1 25003
0050579960999991982021809004+25400+114933FM-12+019599999V0202501N00101036001CN0130001N9+01691+01121101511ADDAG12000GF108991081001999999071999MD1710081+9999
0094722422129231982050509004+29267-094867SAO  +0002GLS  V0201801N003619999999N9999999N9+02221+01891999999ADDAG10000MA1101591999999REMAWY041AMOS 71/66/1608/001 000      ?    146000?EQDQ01+000002VOVAR 
0098104000999991982100201004+51283+006767FM-12+0045EDDL V0201101N00151220001CN0060001N9+01031+00921102051ADDAG11999AY101011GF100991001001999999001001MA1999999101511MD1810041+9999MW1021EQDQ01+999990APOSP 
0089035961999991982082704004+52133+001433FM-15+0026EGVJ V0202401N00101220001CN0112001N1+00901+00701999999ADDAG11999GA1011+012009059GA2011+060009009MA1100581999999REMMET004BLU?EQDQ01+000000PRSWM2
0064306860999991982010903004+53467+122400FM-12+029399999V0209991C00001075001CN0200001N9-03861-04131101931ADDAG11000AY101031GF108991001001999999001071MD1710281+9999MW1021
0108478170999991982082900004+32733+129867FM-12+003599999V0202201N000519999999N0200001N9+02561+02221100681ADDAA106000091AG14000AY101061GF107991021021999999071021KA1120N+02281MD1210111+9999MW1021REMSYN011333   20228
0079838270999991982081021004-25517-054583FM-12+0180SBFI V0201901N00151220001CN0150001N9+01941+01641999999ADDAG10999AY101031GF103991031051008001001001MA1999999102141MD1410001+9999MW1021
0072723925231901982081001004+34433-119833SAO  +0006SBA  V0201601N004612200019N0240001N1+02171+01721101081ADDAG10999GD12991+0750093GF102991999999999999999999MA1101081999999MW1001
0050094530999991982030902004+51800+010617FM-12+115399999V0202601N00501220001CN0040001N9-00151-00221999999ADDAG12999GF100991001001999999001001MD1810021+9999
0121999999999991982040418004+39500-146000FM-13+9999SHIP V0202801N00821012001CN0200001N9+01151+00871102751ADDAG12000GF106991061081008001001001MD1410001+9999SA1+1109UA1M030059999UG1080353209REMSYN02922223 00110 20301 332// 40807
0113335620999991982041006004+49233+028467FM-12+028799999V0202501N004019999999N0100001N9+00211-00191101381ADDAA106000091AG10000GF106991001001999999001011KA1120N+00011MD1310041+9999REMSYN011333   20001EQDQ01+000062SCOTLC
0057725038147141982101017004+41500-074100SAO  +0143SWF  V0200501N006112200019N0640001N1+01111+00281999999ADDAG10999GF100991999999999999999999MA1102341999999MW1001
0096700637274061982042701004+70200-148467SAO  +0015SCC  V0202601N005612200019N0160001N1+99999+99999999999ADDAG10999GD12991+0060093GF102991999999999999999999MA1100781999999MW1001REMAWY015UNOFFL TEMP +8?
0267723090137541982102904003+34900-076883SAO  +0011NKT  V02099959000052200059N0080005N1+00835+00675102555ADDAG10999GD10995+9999999GD20995+9999999GD30995+9999999GF100995999999999999999999MA1102471102375MW1455EQDN01 07000JPWTH 1QNNE11 1 00099E11 1 00099E11 1 00099E11 1 00099G11U1 99999K11 1 00044L11 1 00500M11 1 30230N11 1 07000Q11 1 10255S11 1 00047V11 1 00099X11 1 00000
0151719510999991982041019004+54467-128583SAO  +0219YXT  V0201801N006610105019N0240001N1+00401-00101100221ADDAG10999GD12991+0054099GD23991+0105099GF107991999999999999999999MA1100141097571MW1001REMAWY036CF1CB7     ?    SHWRS OBSCRG VLY S ?EQDQ01+999990APOSP 
0064106750999991982120305004+49883+010917FM-12+023999999V0200801N00051220001CN0012001N9-00321-00361102901ADDAG11999AY101999GF100991001001999999001001MD1210071+9999MW1101
0091010980999991982092400004+70367+031100FM-12+001499999V0203001N008219999999N0550001N9+00241-00121099601ADDAA106000091AG14000AY101061GA1091+999999999GF109991091999999999999999MD1210391+9999MW1021
0321726185146051982120506003+44317-069800SAO  +0108AUG  V0201705N002652200059N0240005N1+00445+00005101745ADDAA106000091AG10000GD10995+9999999GD20995+9999999GD30995+9999999GF100005999999999999999999KA1999M+01831MA1101731100415MD1310141+9999MW1001REMAWY007314 65?EQDN01 00000JPWTH 1QNNE11 1 00099E11 1 00099E11 1 00099E11 1 00099G11U1 99999K11 1 00032L11 1 01500M11 1 29650N11 1 00000Q11 1 10174S11 1 00040V11 1 00000X11 1 17005
0065131310999991982062401004+45733+016067FM-15+0106LYZA V0200501N00511999991CY0099001N1+02001+01601999999ADDAG11999MA1101291999999REMMET012CAVOK NOSIG?EQDQ01+000000PRSWM2
0062131310999991982012922004+45733+016067FM-15+0106LYZA V0209991C00001220001CN0030001N1-00301-00401999999ADDAG11999GA1031+018009059MA1101591999999MW1101REMMET006NOSIG?
0120467450999991982021303004+22783+120250FM-12+0010RCAY V0203201N00301220001CN0020001N9+01941+01901101741ADDAA106000091AG12000AY111031GA1999+024009039GF103991021061002501031001MD1110021+9999MW1101REMSYN020555   8/358 QNH30 04
0090747780999991982122215004+30517-086300SAO  +00272EG  V0201101N002512200019N0112001N1+01391+01001999999ADDAG10000GD12991+0300099GD22991+0750099GF102991999001999999071081MW1001REMAWY009/// 1078?
0336726435149911982051206003+44867-091483SAO  +0272EAU  V0200505N004152200059N0320005N1+01335+01115101565ADDAA106000091AG10000GD11995+0750093GD20995+9999999GD30995+9999999GD40995+9999999GF102005999999999999999999KA1999M+02271MA1101561098345MD1110031+9999MW1001REMAWY007103 73?EQDN01 00000JPWTH 1QNNE11 1 00199E11 1 00099E11 1 00099E11 1 00099G11U1 99999K11 1 00052L11 1 02000M11 1 29040N11 1 00000Q11 1 10156S11 1 00056V11 1 00300X11 1 05008
0103404450999991982080918004+24433+054467FM-12+0003OMAD V0203001N00311220001CN0100001N9+03161+02811099821ADDAG12000AY101061GF100991001001999999001001KA1120M+03511MD1999999+0031MW1021REMSYN017333   10351 58003
0152075860999991982111618004+44083+005050FM-12+010599999V0203401N00821033001CN0400001N9+00801-00471101461ADDAA106000091AG14000AY101061GA1061+033009039GA2061+075009009GF106991061001999999071021KA1999M+01101MD1210051+9999MW1021REMSYN023333   10110 86361 86075
0057722687930331982101023004+32333-104267SAO  +1004CNM  V0200901N003612200019N0800001N1+01781+00061999999ADDAG10999GF100991999999999999999999MA1101961999999MW1001
0100347310999991982010412004+47250+039817FM-12+0077URRR V0202401N00601004201CN0040001N9+00231-00101101711ADDAG12000AY121061GA1071+004209059GF107991071051004501999999MD1710071+9999MW1101REMSYN011333   87614
0144035860999991982111713004+52333+000767FM-12+0053EGXH V0202501N00981045001CN0400001N9+00821+00361100961ADDAG12999AY101011GA1011+010509059GA2031+036009039GA3071+045009049GF107991011051012501071999MD1710161+9999MW1021REMSYN023333   81635 83362 87465
0117723346038111982071817004+35600-088917SAO  +0132MKL  V0202801N003610750019N0160001N1+03221+02331101711ADDAG10999GD12991+0075099GD23991+0750099GF107991999999999999999999MA1101761999999MW1001REMAWY021TCU ALQDS  SCT V BKN?
0081917760999991982110912004-15950-173767FM-12+000299999V0200901N00621220001CN0200001N9+02551+01981101201ADDAA106000091AG10999AY101061GF101991011011008001001001MW1011REMSYN011333   562//
0050389740999991982052400004+36533+061217FM-12+027999999V0209991C00001220001CN0260001N9+01871+01691100721ADDAG12000GF103991001001999999001021MD1810221+9999
0108286550999991982070415004+55233+063317FM-12+017699999V0200501N00201220001CN0300001N9+02111+00861102361ADDAA106000091AG10000AY101031GF104991041011012501001001KA1120M+02281MD1310021+9999MW1021REMSYN011333   10228
0064547760999991982092321004+37400+122683FM-12+004799999V0200201N00301220001CN0300001N9+01971+01441101851ADDAG12000AY101031GF100991001001999999001001MD1210061+9999MW1021
0044727580999991982090610004+48100-098867SAO  +0443P11  V0200901N002519999999N9999999N9+01441+00441999999ADDAG10999MA1101591999999EQDQ01+000002VOVAR 
030972304093729198207211000C+35267-075550SAO  +0002HAT  V0203605N005252200059N0112005N1+02445+02285101275ADDAA101000095AG10999GD12995+0075099GD20995+9999999GD30995+9999999GD40995+9999999GF103025999999999999999999MA1101251101225MW1001EQDQ01+999990APOSP N01 00000JPWTH 1QNNE11 1 00299E11 1 00099E11 1 00099E11 1 00099G11U1 99999K11 1 00073L11 1 00700M11 1 29890N11 1 00000Q11 1 10127S11 1 00076V11 1 00403X11 1 36010
044972414013866198205132100C+38367-081600SAO  +0286CRW  V0203305N003152200059N0112005N1+03115+00945101805ADDAA101000095AG10000GA1999+013724084GA2999+076204004GA3999+999999999GA4999+999999999GD12025+0135099GD23035+0750093GD30005+9999999GD40005+9999999GF105025999011999999001991MA1101901098345MD1710141+9999MW1001REMAWY009714 1101?EQDQ01+999990APOSP N01 00000JPWTH 1QNNE11 1 00202E11 1 00304E11 1 00000E11 1 00000G11U1 99999H11 1 11045H11 1 32250H11 1 00999H11 1 00999K11 1 00049L11 1 00700M11 1 29040N11 1 00000Q11 1 10180S11 1 00088V11 1 00602X11 1 33006
029372225593842198204220400C+32517-084950SAO  +0137CSG  V0202805N001552200059N0192005N1+01445+01335102365ADDAA101000095AG10999GD12995+0750099GD20995+9999999GD30995+9999999GD40995+9999999GF101015999999999999999999MA1102371100955MW1001EQDN01 00000JPWTH 1QNNE11 1 00299E11 1 00099E11 1 00099E11 1 00099G11U1 99999K11 1 00056L11 1 01200M11 1 29810N11 1 00000Q11 1 10236S11 1 00058V11 1 00101X11 1 28003
0176102350999991982041113004+53000+009833FM-12+007799999V0203001N00601006001CN0020001N9+00501+00001100491ADDAG12999AY111011GA1011+003609089GA2031+005409089GA3021+006009099GF107991071091004501999999MA1999999099541MD1010031+9999MW1881OA149901751REMSYN029333   81812 83818 82920 91134
0064596470999991982072609004+21033+109117FM-12+004199999V0201601N00301090001CN0300001N9+03181+02661100211ADDAG12000AY101031GF107991011091008001001021MD1710171+9999MW1021
057472773024153198209300000C+46933-114100SY-SA+0974MSO  V0200205N008850152449N0480005N1+00835+00285102105ADDAA101000095AA206999929AA324003091AC11I9AG10001AY181061GA1999+009144084GA2999+015244064GA3999+033534034GA4999+060964024GD12025+0090099GD23035+0150099GD33015+0330099GD44025+0600099GF108065051081008001071991KA1120M+01001KA2180N+00611MA1101961090795MD1310151+9999MW1161REMSYN029333   10100 20061 70030 90555AWY037SHWRS      ?    NW-NE/ 31500 1878 50?EQDQ01+000003PRSWM2N01 00000JPWTH 1QNNE11 1 00202E11 1 00404E11 1 00401E11 1 00603G11 1 00050H11 1 11030H11 1 15050H11 1 23110H11 1 37200K11 1 00037L11 1 03000M11 1 26810N11 1 00000Q11 1 10210S11 1 00047V11 1 01008X11 1 02017
