0044725788999991983120309004+44883-116100SAO  +9999MYL  V0202701N000519999999N9999999N9-00431-00601999999ADDAG10000MA1101591999999EQDQ01+000002VOVAR 
032572651014944198304300800C+43567-096733SAO  +0432FSD  V0200505N004150061049N0160005N1+00445+00445101595ADDAA101000095AG10999GD12995+0018099GD23995+0060099GD34995+0090099GD40995+9999999GF108085999999999999999999MA1101521096415MW1515REMAWY007RELB10?EQDQ01+999990APOSP N01 03300JPWTH 1QNNE11 1 00299E11 1 00499E11 1 00699E11 1 00099G11 1 00020K11 1 00040L11 1 01000M11 1 28470N11 1 03300Q11 1 10159S11 1 00040V11 1 01010X11 1 05008
0116171700999991983072821004+38467+043350FM-12+1725LTCI V0209991C00001220001CN0250001N9+01721+00481999999ADDAG12000AY101031GF101991011041012501001001KA1120M+99999MD1110101+9999MW1021REMSYN011333   10015EQDQ01 +00152ATMX  
0157618560999991983103000004+08617-013200FM-12+0027GFLL V0202401N00211045001CN0160001N9+02701+02491101201ADDAA106000091AG14009AY191061GA1031+004509059GA2011+008409099GF105991041091004501041001MD1999999-0151MW1131REMSYN041333   59015 83615 81928 94646 95705 94682
0059071300999991983093011004+48067-001733FM-15+0037LFRN V0201201N00201220001CN0090001N1+02201+01601999999ADDAG12999MA1101591999999REMMET006NOSIG?EQDQ01+000000PRSWM2
0111603180999991983090409004+35583-005317FM-12+0010GMTN V0200401N00511003001CN0080001N9+02151+01981102201ADDAA106000091AG14000AY101031GA1071+003009079GF107991071061004501999999MD1210111+9999MW1021REMSYN011333   87710
0062166990999991983110819004+38317+023533FM-15+0139LGTG V0203401N00511009001CN0080001N1+01301+00401999999ADDAG12999GA1081+009009059MA1102301999999MW1201REMMET006NOSIG?
0100265540999991983040915004+55817+027950FM-12+012299999V0202201N00401220001CN0060001N9+00791+00341099921ADDAG12002AY181031GA1041+006009099GF106991041091001501001011MD1710081+9999MW1251REMSYN011333   84920
0042160900999991983030606204+45383+010867FM-15+0067LIPX V0209991C00001220001CN0005001N1+00001+00001999999ADDAG12000ED199U11889MA1102711999999MW1461
0080476860999991983030502004+35767+140383FM-15+0044RJAA V0200301N00361220001CN0112001N1+00701-00601999999ADDAG11999GA1011+012009089MA1100811999999REMMET0112978 NOSIG?EQDQ01+000000PRSWM2
0097684780999991983010918004-29017+029867FM-12+125099999V0203601N00361004201CN0040001N9+02171+01671999999ADDAG10999AY191061GF108991081091004501999999KA1120M+03391MD1210451+9999MW1951REMSYN011333   10339
0065154210999991983031408454+44550+026100FM-15+0095LROP V0200401N003019999999N0099001N1+00501-00601999999ADDAG12000MA1103491999999REMMET012CAVOK NOSIG?EQDQ01+000000PRSWM2
0065130140999991983101409304+46217+014483FM-15+0362LYLJ V0200501N00101999991CY0099001N1+01301+00801999999ADDAG12999MA1102511999999REMMET012CAVOK NOSIG?EQDQ01+000000PRSWM2
0117722269038501983121120004+31283-085717SAO  +0091OZR  V0201101N005110075019N0112001N1+01611+01391101241ADDAG10999GD12991+0012099GD23991+0075099GD33991+0210099GD43991+0750099GF107991999999999999999999MA1101221999999MW1801
040672543094822198309150600C+42200-089100SAO  +0221RFD  V0201105N00155033534MN0192005N1+01285+00945102405ADDAA101000095AA206000091AG10000GA1999+033534044GA2999+076204024GD13065+0330099GD24025+0750099GD30995+9999999GD40995+9999999GF108085999001999999021991KA1999M+02161MA1102401099705MD1010031+9999MW1001REMAWY012003 1028 71?EQDN01 00000JPWTH 1QNNE11 1 00408E11 1 00602E11 1 00099E11 1 00099G11 1 00110H11 1 21110H11 1 37250K11 1 00049L11 1 01200M11 1 29440N11 1 00000Q11 1 10240S11 1 00055V11 1 01010X11 1 11003
0076072300999991983050411004+47500-000567FM-15+0057LFRA V0202201N00411015001CN0112001N1+01601+01001999999ADDAG12999GA1041+007809089GA2061+015009059REMMET006NOSIG?EQDQ01+000000PRSWM2
0084160220999991983070905164+46150+011033FM-16+2125LIVP V0203601N00361220001CN0112001N1+99999+99999999999ADDAG12999GA1011+048009009REMMET030SIT MO  LIB VAL NIL? (090500)?EQDQ01+000000PRSWM2
0142702700999991983110822004+61267-149650SAO  +0115PAFR V0209991C000010270019N0112001N1-00211-00491100691ADDAG10999GD12991+0075099GD22991+0150099GD33991+0270099GD44991+0450099GF108991999999999999999999MA1100611999999MW1001REMAWY016SCSL ASSL NE-SE?
0127560750999991983070400004+34100+102617FM-12+356599999V0203401N00201036001CN0300001N9+00701+00511999999ADDAA106002091AA224006091AG10002AY161061GF108991031051004501021999MA1999999067471MD1210081-0101MW1211REMSYN017333   05102 60064
0111244770999991983051612004+65250+135900FM-12+067699999V0209999999999075001CN0500001N9+00591-00401999999ADDAA112000291AA299000391AG10000AY101061GF108991001001999999001071KA1120M+00901MW1021REMSYN017333   10090 69920
0087744905047791983080920004+42567-071600SAO  +0082AYE  V0203501N001512200019N0208001N1+02941+01001100971ADDAG10999GD12991+0105099GD22991+0660099GF102991999999999999999999MA1100981999999MW1001
0161085210999991983033021004+32683-016767SY-MT+0050LPFU V0203601N00611004801CN0112001N1+01501+01101102261ADDAG12000AY101031GA1051+004809089GF106991061081008001001001MA1102201999999MD1210051+9999MW1021REMSYN011333   85816MET021RS0413 060107 243610?EQDQ01+000000PRSWM2
0064588530999991983051409004+27000+120700FM-12+010699999V0200401N00501220001CN0150001N9+01971+01781100921ADDAG12000AY101031GF102991011001999999031021MD1710141+9999MW1021
0075931190999991983072518004-37017+174800FM-12+0007NZAA V0201801N00411220001CN0500001N9+00391+00191102151ADDAA106000091AG10999AY101061GF100991001001999999001001MD1210051+9999MW1011
0072060990999991983111110004+55083+008567FM-12+0005EKRM V0200601N00671220001CN0150001N9+99999+99999999999ADDAG12999GA1011+006009089GF101991011021008001031011REMSYN011333   81820
0064896110999991983100106004-66250+110533FM-12+001599999V0201901N00721075001CN0400001N9-01691+99999097021ADDAG10999AY121061GF106991011001999999031081MD1710341+9999MW1021
0044012410999991983032902504+63700+009617FM-15+0007ENOL V0201301N00561220001CN0112001N1-00101-00701999999ADDAG11000MA1100411999999EQDQ01+000000PRSWM2
0072724839932251983072602004+38700-121600SAO  +0010SMF  V0202001N002512200019N0320001N1+02831+01001999999ADDAG10999GD12991+0750093GF102991999999999999999999MA1101251999999MW1001
0095321740999991983101606004+45233+147883FM-12+003899999V0202401N00601036001CN0100001N9+01421+01121101901ADDAG11000AY101061GF107991021021008001061001MD1710101+9999MW1021OA149901601REMSYN011555   91116
0058080450999991983101817004+42217-008633FM-15+0250LEVX V0203201N00101999991CY0099001N1+01801+01201999999ADDAG11999MA1102711999999REMMET005CAVOKEQDQ01+000000PRSWM2
0075949960999991983091721004-29050+167933FM-12+0109ASNF V0200901N00461220001CN0400001N9+01511+00901102211ADDAA124002091AG10999AY111031GF103991031021008001001001MD1210151+9999MW1021
0057702460265121983031920004+63883-152283SAO  +0214MHM  V0209991C000012200019N0480001N1-01491-02051999999ADDAG10999GF100991999999999999999999MA1101691999999MW1001
0299722050128151983090916003+28433-081317SAO  +0029MCO  V0201205N003650762049N0320005N1+03175+02175102075ADDAG10999GD12995+0105099GD22995+0300099GD33995+0750099GD40995+9999999GF106045999999999999999999MA1102071101695MW1001REMAWY008FEW TCU?EQDN01 00000JPWTH 1QNNE11 1 00299E11 1 00299E11 1 00499E11 1 00099G11 1 00250K11 1 00071L11 1 02000M11 1 30030N11 1 00000Q11 1 10207S11 1 00089V11 1 00705X11 1 12007
0135999999999991983012918004+27700-115500FM-13+9999VRLJ V0202901N00671001201CN0040001N9+01681+99999101621ADDAG12004AY121061GF108991081061001501999999MD1210241+9999MW1611SA1+1929UA1M040159999UG1100252309REMSYN02922233 00192 20403 323// 41005
0111476430999991983010906004+35850+139417FM-15+0093RJTJ V0203601N00511069001CN0112001N1+00901-00701999999ADDAG12000GA1011+009009089GA2031+012009059GA3051+069009009MA1101221999999REMMET010126/ FCST?EQDQ01+000000PRSWM2
0049061040999991983112422504+55733+009150FM-15+0070EKBI V0201601N00251220001CN0045001N1-00101-00201999999ADDAG12999MA1101391999999MW1101REMMET00909350159?
0127471330999991983062100004+36300+127400FM-12+007899999V0200701N00261220001CN0250001N9+02241+01641100911ADDAA199001091AG10000AY101061GF102991011051999999001011KA1120N+01631MD1210091+9999MW1021REMSYN011333   20163EQDQ01+000992SCOLCB
0135999999999991983021400004+53200+172600FM-13+9999JEMM V0203201N00261220001CN0200001N9+00001-00271099701ADDAG12001AY171061GF104991031021002501001081MD1410001+9999MW1021SA1+0309UA1M040159999UG1100253009REMSYN02922264 00030 20403 330// 41005
0099871490999991983122110004-26817-060450FM-12+0091SARS V0202301N00261036001CN0200001N9+02061+02011097051ADDAG10999AY101999GF108991031051008001071001MA1101081999999MD1310241+9999MW1021REMSYN011555   10110
0111726116999991983010912004+43633-072317SAO  +0177LEB  V0200101N002512200019N0160001N1-01321-01991103501ADDAA106000091AG10000GF100991999999999999999999KA1999N-01341MA1103391999999MD1210191+9999MW1001REMAWY007219 08?
0173710910999991983021106004+68950-075300SY-SA+0159WUV  V0203301N004112200019N0160001N1-03601-03901101711ADDAA106000091AG14000AY101061GF100991001001999999001001KA1240M-02951KA2240N-03581MA1101391099451MD1710111+9999MW1021REMSYN017333   11295 21358AWY0067011 ?EQDQ01+000003PRSWM2
0069060450999991983091515004+57267+010317FM-12+001699999V0201801N004119999999N0030001N9+01441+01391999999ADDAG12000AY101031GF100991001001999999001001MW1021EQDQ01+000082SCOTCV
0090478840999991983081207004+34000+134633FM-15+0006RJOP V0201801N00721069001CN0112001N1+03301+02201999999ADDAG12999GA1011+007509089GA2061+069009009MA1100811999999REMMET0052978?EQDQ01+000000PRSWM2
0106108930999991983092304004+48583+013483FM-12+040999999V0200401N00101220001CN0150001N9+00551+00471102921ADDAG11999AY101011GA1041+039009039GF104991041001999999031001MD1510021+9999MW1021REMSYN017333   84363 96927
0227711090999991983102800004+50683-127367SY-SA+0022YZT  V0200901N001512200019N0320001N1+00801+00601101901ADDAA106000091AA224005091AG14000AY101061GD12991+0360093GD22991+0750093GF103991011001999999031011KA1120M+00901KA2180N+00211MA1101861101631MD1710131+9999MW1021REMSYN023333   10090 20021 70050AWY013AC1CI1 7013 ?EQDQ01+000003PRSWM2
0169702350999991983082923004+61100-155567SAO  +0479PASV V0201901N005110042019N0160001N1+01171+01061100671ADDAG10999GD12991+0021099GD24991+0042099GF108991999999999999999999MA1100441999999MW1611OC100921REMAWY065WND 11V23        ?     MAG17 3SC7SC PK WND 1822/39 RDWND 1715G44?
0130107290999991983070618004+49533+008500FM-12+009799999V0203401N00211075001CN0120001N9+02771+01501101391ADDAA106000091AG10000AY101061GA1051+075009009GF105991001001999999001031KA1120M+02911MD1710071+9999MW1021REMSYN017333   10291 85075
0125718650999991983030909004+51767-104200SAO  +0560WYO  V0201401N00461015001MN0240001N1-01001-01201103081ADDAG10000GD14991+0150099GF108991999999999999999999MA1102641096011MD1610021+9999MW1001REMAWY011SC10 6002 ?EQDQ01+999990APOSP 
0069030290999991983091715004+56733-006217FM-12+001299999V0202301N004619999999N0550001N9+99999+99999999999ADDAG12000AY101031GF107991999001008001001001MW1021EQDQ01+000002SCOTLC
0108348800999991983090106004+46350+047967FM-12-001899999V0209991C00001220001CN0040001N9+02001+00661102421ADDAA106000091AG10000AY101061GF100991001001999999001001KA1120N+01001MD1210071+9999MW1101REMSYN011333   20100
0124702720999991983022402004+61250-149800SAO  +0065PAED V0200801N00151030001EN0800001N1-00211-00821097971ADDAG10999GD13991+0300099GD23991+0450099GF107991999999999999999999MA1097901999999MW1001REMAWY028ACSL OMTNS       ?     SE-S?
0066151070999991983122702004+46917+025367FM-12+067899999V0209991C00001000151CN0001001N9-00231+99999999999ADDAG11999AY141999GA1091+999999999GF109991091999999999999999MW1451
0062471540432131983080804384+35167+129133FM-16+0010RKPP V0201501N002510075019N0112001N1+99999+99999999999ADDAG12999GA1051+007509089REMMET008CIGE025?EQDQ01+000000PRSWM2
0135999999999991983071812004+50400-033500FM-13+9999ONEL V0202101N00461002101CN0200001N9+01851+01691102461ADDAG12000AY121061GF107991071071002501999999MD1610101+9999MW1021SA1+1699UA1M060109999UG1080052509REMSYN02922263 00169 20602 325// 40801
053472476023066198308150600C+39117-108533SY-SA+1478GJT  V0203105N00465024384EN0480005N1+02225+01335101635ADDAA101000095AA206999929AA324999929AC10I9AG10003AY181061GA1999+024384034GA2999+036584034GA3999+076204024GD13055+0240099GD23025+0360099GD34025+0750099GD40995+9999999GF108085051001999999071991KA1240M+03561KA2240N+02111MA1102401085745MD1210121+9999MW1021REMSYN029333   10356 20211 79999 90504AWY02421200      ?    1077 96?EQDQ01+000003PRSWM2N01 00000JPWTH 1QNNE11 1 00406E11 1 00402E11 1 00602E11 1 00099G11 1 00080H11 1 23080H11 1 23120H11 1 37250K11 1 00056L11 1 03000M11 1 25320N11 1 00000Q11 1 10163S11 1 00072V11 1 01010X11 1 31009
0085062700999991983061315294+53217+005767FM-15+0001EHLW V0203101N00511220001CN0112001N1+01801+00801999999ADDAG12000GA1011+012009089MA1102101999999REMMET016BLU FCST CANCEL?EQDQ01+000000PRSWM2
0083722885999991983050600004+34017-118450SAO  +0053SMO  V0202401N010212200019N0640001N1+01671+01111999999ADDAA106000091AG10000GD12991+0135099GF102991999999999999999999MA1101631999999MW1001
0064524950999991983092303004+40750+104500FM-12+132999999V0202901N00701220001CN0300001N9+01571-01241101791ADDAG11000AY101031GF100991001001999999001001MD1210051+9999MW1021
0122037400999991983011715004+51500-001983FM-12+0156EGDL V0202401N00931003601CN0350001N9+00761+00511102181ADDAG12000AY151031GA1021+002709079GA2071+003609059GF107991071051002501999999MD1710101+9999MW1201REMSYN017333   82709 87612
0078067000999991983121005204+46250+006133FM-15+0416LSGG V0202401N00461012001CN0112001N1+00501+00201999999ADDAG12999GA1031+009009059GA2081+012009089MA1100001999999MW1801REMMET006NOSIG?
0064684420999991983061515004-29100+026300FM-12+1400FABL V0209991C00001220001CN0500001N9+01511+00531999999ADDAG10999AY101031GF100991001001999999001001MD1510011+9999MW1021
0064343360999991983082515004+49933+040567FM-12+008399999V0202701N00201012001CN0200001N9+02421+00781101241ADDAG12000AY101031GF107991071051012501001001MD1610051+9999MW1021
0108865850999991983010600004-34850-056200FM-12+001699999V0200501N00361220001CN0100001N9+02361+01581101331ADDAA106000091AG10999AY101061GF100991001001999999001001KA1240M+02891MD1310081+9999MW1021REMSYN011333   10289
0070163440999991983010801164+39333+016400FM-16+1720LIBQ V0209991C00001999991CY0099001N1+99999+99999999999ADDAG11999REMMET032CAVOK MON LIB VAL NIL? (080000)?EQDQ01+000000PRSWM2
030172544014923198312062200C+41450-090500SAO  +0177MLI  V0203005N008252200059N0320005N1-00395-00945101655ADDAA101000095AG10999GD11995+0750093GD20995+9999999GD30995+9999999GD40995+9999999GF102005999999999999999999MA1101591099425MW1001OC101131EQDN01 00000JPWTH 1QNNE11 1 00199E11 1 00099E11 1 00099E11 1 00099G11U1 99999K11 1 00015L11 1 02000M11 1 29360N11 1 00000Q11 1 10165S11 1 00025V11 1 00200X11 1 30016
048472494023234198307172100C+37617-122383SAO  +0002SFO  V0202805N007752200059N0400005N1+01945+00945101295ADDAA101000095AG10000GA1999+005494064GA2999+999999999GA3999+999999999GA4999+999999999GD12015+0054099GD20005+9999999GD30005+9999999GD40005+9999999GF101015999999999999999999MA1101291101225MD1610021+9999MW1001REMAWY044602 1500/CITY 63/      ?    SOSF 56/2522G29?EQDQ01+999990APOSP N01 00000JPWTH 1QNNE11 1 00201E11 1 00000E11 1 00000E11 1 00000G11U1 99999H11 1 15018H11 1 00999H11 1 00999H11 1 00999K11 1 00049L11 1 02500M11 1 29890N11 1 00000Q11 1 10129S11 1 00067V11 1 00101X11 1 28015
0088067000999991983081108164+46250+006133FM-15+0416LSGG V0200601N00201220001CN0090001N1+02001+01501999999ADDAG12999GA1011+003009059GA2041+005409089MA1101391999999MW1101REMMET016NOSIG? (110750)?
0064310410999991983082206004+59667+133083FM-12+017999999V0202101N00201220001CN0500001N9+02001+01131101131ADDAG11000AY101061GF103991021021012501031011MD1710181+9999MW1021
0111999999999991983080118004+03900+106000FM-13+9999PDZW V0209991V00101220001CN0200001N9+02871+02441100511ADDAG12000AY101061GF101991011021004501061001MD1810071+9999MW1021SA1+2979UA1M010059999REMSYN01722253 00297 20101
0094104000999991983051612504+51283+006767FM-15+0045EDDL V0203601N00151003001CN0028001N1+01201+01101999999ADDAG12999GA1041+001809079GA2061+003009079GA3081+004509059MA1100411999999MW1631REMMET006NOSIG?
0122718280999991983011017004+54800-066817SAO  +0512YKL  V0202101N003610075019N0016001N1-01201-01501101541ADDAG10999GD16991+0001599GD24991+0075099GF108991999999999999999999MA1100951094861MW1851REMAWY007S4SC6 ?EQDQ01+999990APOSP 
006972781524237198303140700C+47283-121333SAO  +1206SMP  V0202701N000519999999N9999999N9+00005-00321999999ADDAA101000095AG10999MA1101591999999EQDQ01+000002VOVAR QNNS11 1 00032
0097315110999991983051615004+50783+127300FM-12+014599999V0202901N00201220001CN0500001N9+00661-00041101481ADDAG11000AY101031GF103991001001999999001021KA1120M+02001MD1210071+9999MW1021REMSYN011333   10200
0100344150999991983122121004+49183+037300FM-12+007999999V0201201N00101001201CN0041001N9-00371-00421102391ADDAG11000AY121031GA1081+001209079GF108991081061001501999999MD1310051+9999MW1101REMSYN011333   88704
0089036551999991983121023004+51933-001250FM-15+0133EGUA V0203101N00151220001CN0112001N1+00001-00701999999ADDAG11999GA1011+013509059GA2021+060009009MA1101931999999REMMET004BLU?EQDQ01+000000PRSWM2
0181804150999991983101715004+10600-066983SY-MT+0072MVMI V0200501N00101021001CN0080001N1+02841+02351101281ADDAG12000AY121031GA1031+003909079GA2051+021009049GF108991031071004501071999IA1099MA1101291999999MD1999999+0031MW1051REMSYN035333   31/// 5699/ 58003 83713 85457MET0141004.6 1009.6?
0063064580999991983050601254+50750+004767FM-15+0127EBBE V0201001N00411999991CY0099001N1+00901+00701999999ADDAG11999MA1101591999999REMMET010CAVOK BLU?EQDQ01+000000PRSWM2
0145828990999991983121406004-08133-034917SY-MT+0011SBRF V0200901N00301006001CN0112001N1+02701+02201101251ADDAA106000091AG10999AY101061GA1061+006009089GF106991061011008001001001MA1101081999999MD1999999-0051MW1021REMSYN011333   59005EQDQ01+000000PRSWM2
0082764591999991983031000004+23150-106250SAO  +0005MZT  V0202401N005112200019N0240001N1+02601+01701101101ADDAA106000091AG10000GF100991999999999999999999MA1101051999999MD1990101+9999MW1001
0309722446939871983072715003+31233-094750SAO  +0086LFK  V0202305N00315003664EN0112005N1+02785+02285101775ADDAG10000GD13995+0036099GD20995+9999999GD30995+9999999GD40995+9999999GF105045999999999999999999MA1101801100645MD1210101+9999MW1001REMAWY004210?EQDN01 00000JPWTH 1QNNE11 1 00499E11 1 00099E11 1 00099E11 1 00099G11 1 00012K11 1 00073L11 1 00700M11 1 29720N11 1 00000Q11 1 10177S11 1 00082V11 1 00605X11 1 23006
0075858340999991983031712004-43567-074750FM-12+014099999V0201801N00411220001CN0100001N9+99999+99999999999ADDAA106000091AG10999AY101061GF104991041051008001001001MW1021REMSYN005222//
0166913660406041983062200154+08733+167733SAOSP+0008PKWA V0200701N007210036019N0160001N1+99999+99999999999ADDAA106999999AG10009GD12991+0018099GD23991+0036099GD34991+0120099GF108991999999999999999999MA1101121101021MW1811REMAWY009TCU OVHD?EQDQ01+999990APOSP Q02  00002PRCP06
0091484775999991983100701304+12683+101000FM-15+0018VTBU V0203201N00101220001CN0112001N1+03101+02501999999ADDAG11999GA1011+006009099GA2031+036009039MA1101021999999REMMET006CB SE?EQDQ01+000000PRSWM2
0122037260999991983050112004+51450-002600FM-12+004399999V0200501N00511003001CN0042001N9+01161+00921099171ADDAG12001AY161061GA1051+003009079GA2081+012009059GF108991081081004501999999MD1810091+9999MW1601REMSYN017333   85710 88640
0024095690999991983111916004+50500+012150FM-12+040899999V0201901N005019999999N9999999N9+00151-00111102391ADDAG12999MD1410001+9999
0064242660999991983071809004+67550+133383FM-12+013799999V0200301N00401220001CN0500001N9+03231+00411100341ADDAG12000AY101031GF102991001001999999001011MD1710191+9999MW1021
0086031400999991983110104504+55867-004433FM-15+0008EGPF V0202001N00821002401CN0060001N1+01301+01201999999ADDAG12999GA1061+002409079GA2081+003009079MA1101491999999MW1511OC101331REMMET006NOSIG?
0068725170147371983030912324+40650-075433SAOSP+0118ABE  V0200601N00461001801MN0024001N1+99999+99999999999ADDAA106000091AG10000GD14991+0018099GF108991999999999999999999MW1451
0076064500999991983080613204+51183+004450FM-15+0012EBAW V0203501N00411018001CN0112001N1+01701+01201999999ADDAG12999GA1041+006009089GA2061+018009039MA1102201999999EQDQ01+000000PRSWM2
0064313690999991983081506004+53150+140700FM-12+0047AMUR V0201001N00401220001CN0020001N9+02741+01961100921ADDAG11000AY101999GF100991001001999999001001MD1710091+9999MW1051
029372779624137198305122300C+48600-112367SAO  +1170CTB  V0203605N00775030484EN0960005N1+00895-01115102265ADDAA101000095AG10999GD13995+0300099GD24995+0750099GD30995+9999999GD40995+9999999GF108065999999999999999999MA1102001088665MW1001EQDN01 00000JPWTH 1QNNE11 1 00499E11 1 00699E11 1 00099E11 1 00099G11 1 00100K11 1 00012L11 1 06000M11 1 26180N11 1 00000Q11 1 10226S11 1 00048V11 1 01008X11 1 36015
0198842030999991983062212004-02150-079883SY-MT+0009SEGU V0209991C00001007501CN0112001N1+02501+02401100941ADDAA124037091AG10999AY101061GA1081+007509079GF108991081051008001999999KA1240N+02441MA1100911999999MD1999999+0271MW1021REMSYN029333   20244 58027 60374 88625MET016VIS 30 KM NOSIG?EQDQ01+000000PRSWM2
0036726650999991983042600004+44350-105533FM-12+1330GCC  V0200201N005119999999N0300001N9+01281-00161999999ADDAG12000GF106991061999017501999999
0063035077999991983053013504+52683+001283FM-15+0037EGSH V0201301N00511003601CN0080001N1+01201+99999999999ADDAG12999GA1051+003609089GA2071+009009059MA1101081999999MW1811
0095483540999991983080721004+17383+102800FM-12+0182VTUD V0209991C00001007501CN0100001N9+02501+02381100821ADDAA106000091AG14000AY101031GF108991051051008001061071MD1999999+0051MW1021REMSYN011333   58005
0088718220999991983080801034+49767-074533SAOSP+0387YMT  V0201901N003610240019N0240001N1+99999+99999999999ADDAG10999GD12991+0105099GD24991+0240099GF108991999999999999999999MW1801REMAWY007SC1AC9?
0111173500333081983103112004+36983+035300FM-12+0066LTAG V0202001N00211220001CN0200001N9+02451+01061101981ADDAA106000091AG14000AY101061GA1041+012009089GF104991041021012501001001MD1710081+9999MW1021REMSYN011333   84840
0064478070999991983111015004+33583+130383FM-12+001499999V0201301N00151036001CN0050001N9+01231+01081101161ADDAG12002AY161031GF108991081001999999021999MD1610061+9999MW1601
0091076500999991983031612304+43450+005217FM-15+0008LFML V0203401N01081069001CN0112001N1+01201+00501999999ADDAG12999GA1011+009009089GA2061+069009009MA1101081999999REMMET006NOSIG?EQDQ01+000000PRSWM2
0064530680999991983052415004+43650+112000FM-12+096699999V0201401N00701220001CN0300001N9+01841-00651101291ADDAG12000AY101031GF101991001001999999001021MD1710061+9999MW1021
0144076020999991983071212004+43467-001533SY-MT+0075LFBZ V0202801N00411001801CN0030001N1+02201+02001102011ADDAA106000391AG12000AY151061GA1071+001809079GF108991071061001501999999MA1102001999999MD1110081+9999MW1101REMSYN017333   87706 95490MET006NOSIG?
0074847520999991983110104004-16317-071550FM-15+2520SPQU V0200401N00411999991CY0099001N1+01001-00301999999ADDAG10999MA1102711075361REMMET005CAVOKEQDQ01+999990APOSP Q02+000000PRSWM2
0064062500999991983081815004+53367+005217FM-12+002699999V0200901N00511220001CN0400001N9+02111+01321102071ADDAG11000AY101031GF101991001001999999001011MD1710091+9999MW1021
0095337610999991983091606004+47850+030267FM-12+018299999V0201601N00301220001CN0180001N9+01441+00701101691ADDAA106000091AG10000AY101061GF100991001001999999001001MD1410001+9999MW1021REMSYN011333   200/6
039572645014898198309251500C+44483-088133SAO  +0208GRB  V0202205N00675027434EN0240005N1+01335+00945102065ADDAA101000095AG10000GA1999+027434034GA2999+064014024GD13065+0270099GD24025+0630099GD30995+9999999GD40995+9999999GF108085999001999999051991MA1102001099465MD1310051+9999MW1001REMAWY009305 1058?EQDQ01+999990APOSP N01 00000JPWTH 1QNNE11 1 00407E11 1 00603E11 1 00099E11 1 00099G11 1 00090H11 1 23090H11 1 37210K11 1 00049L11 1 01500M11 1 29370N11 1 00000Q11 1 10206S11 1 00056V11 1 01010X11 1 22013
0075688420999991983022100004-33983+025600FM-12+0000FAPE V0200601N00931220001CN0220001N9+02081+01961101501ADDAA106000091AG10999AY101061GF101991011061004501001001MD1710291+9999MW1021
0071857990999991983013116004-41433-073083FM-15+0085SCTE V0202401N00201999991CY0099001N1+01901+01001999999ADDAG10999MA1101901999999REMMET018CAVOK HR58 7CI200?EQDQ01+000000PRSWM2
0122037960999991983081614004+51133+001350FM-12+011799999V0202101N00721075001CN0080001N9+01961+01591101331ADDAG11999AY101051GA1011+001809079GA2061+075009009GF106991011061002501001021MD1810081+9999MW1021REMSYN017333   81706 86075
0106713990999991983111805004+43717-065250SAO  +0030WOS  V0201901N00201007501EN0240001N1+00701+00401099911ADDAG10999GD14991+0075099GF108991999999999999999999MA1099901099551MW1001REMAWY006SC10 ?EQDQ01+999990APOSP 
0065033340999991983070318204+53350-002267FM-15+0078EGCC V0203101N00511999991CY0099001N1+01901+01001999999ADDAG12000MA1102201999999REMMET012CAVOK NOSIG?EQDQ01+000000PRSWM2
0075684540999991983070609004-29283+027500FM-12+1554FXMU V0201801N00261220001CN0750001N9+00521+00021999999ADDAA106000091AG10999AY101031GF100991001001999999001001MD1410001+9999MW1021
0151999999999991983062000004+44000-059600FM-13+9999RIGG V0201601N01131000151CN0000001N9+01651+99999101551ADDAG12004AY161061GA1091+999999999GF109991091999999999999999MD1710151+9999MW1631SA1+0889UA1M040059999UG1070052109REMSYN02922200 00088 20401 321// 40701
0087725755241011983112716004+41117-111967SAO  +1459HIF  V0201101N003010210019N0720001N1-00601-00881102881ADDAG10999GD12991+0150099GD23991+0210099GF107991999999999999999999MA1102511999999MW1001
0100221650999991983020915004+68650+043300FM-12+004899999V0201601N01701003301CN0016001N9-01301-01361100811ADDAG12000AY131031GA1081+003309079GF108991081061004501999999MD1710311+9999MW1391REMSYN011333   88711
0063025900999991983101506504+57667+018350FM-15+0051ESSV V0202101N00661060001CN0090001N1+01001+00901999999ADDAG11999GA1011+002409079GA2071+060009029MA1101291999999MW1101
0085164000999991983021111164+38700+013183FM-16+0250LICU V0202601N01181005401CN0060001N1+99999+99999999999ADDAG12999GA1041+003609089GA2051+005409059MW1601REMMET028OVC QUK4 QUL3 W VISMAR 6 KM?
0114262310999991983043018004+58383+024500FM-12+001499999V0202501N00501004201CN0040001N9+00781+00671101021ADDAA112003091AG10001AY161061GF107991051041004501999999KA1120M+01121MD1710091+9999MW1101REMSYN017333   10112 60032
0093711896999991983042620004+50283-064150SAO  +0022YLP  V0200901N00561001201BN0048001N1+00401+00401100561ADDAG10999GD14991+0012099GF108991999999999999999999MA1100541999999MW1451MW2611REMAWY006SF10 ?
0117935450999991983030505004-41300+173217FM-12+0005NZNS V0200401N00511220001CN0200001N9+01691+01281102171ADDAA106000091AG10999AY101999GA1011+007509089GF101991011011008001001011MD1610101+9999MW1051REMSYN017333   566/9 81825
0083164590999991983032808104+37400+014917FM-15+0022LICZ V0209991C00001220001CN0112001N1+00301+00301999999ADDAG12999GA1031+027009039MA1100911999999REMMET014SCT? (280700)?EQDQ01+000000PRSWM2
0122032400999991983090116004+55417-001600FM-12+002399999V0200201N00311015001CN0080001N9+01761+01561100391ADDAG11999AY111011GA1041+009609089GA2031+015009059GF106991061081012501999999MD1610031+9999MW1051REMSYN017333   84832 83650
0084600200999991983011721004+28467-016250FM-12+004699999V0209991C00001220001CN0200001N9+01701+01451102101ADDAG12000AY101031GF100991001001999999001001MD1310111+9999MW1021REMSYN011333   91818
033472562024023198301221700C+41133-100683SAO  +0846LBF  V0202705N00315002444MN0096005N1-00175-00335101595ADDAA101000095AG10999GD14995+0024099GD20995+9999999GD30995+9999999GD40995+9999999GF108085999999999999999999MA1101321091535MW1455REMAWY016THIN SPOTS IOVC?EQDQ01+999990APOSP N01 07000JPWTH 1QNNE11 1 00699E11 1 00099E11 1 00099E11 1 00099G11 1 00008K11 1 00026L11 1 00600M11 1 27030N11 1 07000Q11 1 10159S11 1 00029V11 1 01010X11 1 27006
0121722745231091983072602004+32167-110883SAO  +0824DMA  V0200901N001012200019N0640001N1+03001+01831100991ADDAG10999GD12991+0210099GD22991+0360099GD33991+0750093GF107991999999999999999999MA1101491999999MW1001REMAWY010CB DSIPTD?
006872408594732198306100900D+40083-075017SAO  +0037PNE  V0200301N003012200019N0160001N1+01061+00721999999ADDAA101000095AG10000GF100991999999999999999999MA1102401999999MW1001
0111999999999991983052500004+24600+058200FM-13+9999SHIP V0202101N00411220001CN0200001N9+03041+02701100281ADDAG11000AY101061GF100991001001999999001001MD1110031+9999MW1021SA1+3109UA1M000009999REMSYN01722200 00310 20000
0168108380999991983112006004+48383+009967FM-12+052299999V0202401N00151001201CN0015001N9-00461-00531102091ADDAA106000091AG10000AY121061GA1081+001209079GF108991081061001501999999GJ100009IA1149IA2999-00509KA1120N-00461MD1710091+9999MW1101REMSYN029333   21046 34105 88704 94000
0154999999999991983031300004+22600-152400FM-13+99995MTE V0203101N00461009001CN0200001N9+02401+01961102101ADDAG12002AY121061GF108991999081004501021999MD1710101+9999MW1211SA1+2509UA1M030109999UG1060252809REMSYN02922263 00250 20302 328// 40605EQDQ01+000082SCOTLC
0095466960999991983070616004+25067+121533FM-15+0007RCSS V0209991C00001060001CN0080001N1+02801+02501999999ADDAG12999GA1031+030009039GA2051+060009009MA1100411999999REMMET0102965NOSIG?EQDQ01+000000PRSWM2
0242718790999991983021918004+53567-113517SY-SA+0671YXD  V0209991C000012200019N0160001N1-00701-01101101991ADDAA106000091AG14000AY111061GD12991+0090099GD22991+0300099GD32991+0810093GF103991011051008001071011KA1120M-00611KA2240N-01011MA1101521093731MD1310141+9999MW1051REMSYN017333   11061 21101AWY030SC1AC1CI         ?    H 3014 ?EQDQ01+000003PRSWM2
0080094530999991983080514004+51800+010617FM-12+115399999V0203501N01601000151CN0000001N9+00721+00721999999ADDAG12999AY161021GA1091+999999999GF109991091999999999999999MD1210101+9999MW1631
029372530094846198303041700C+41983-087900SAO  +0201ORD  V0202105N004150609649N0112005N1+02065+01065100865ADDAA101000095AG10999GD12995+0300099GD24995+0600099GD30995+9999999GD40995+9999999GF108065999999999999999999MA1100881098445MW1001EQDN01 00000JPWTH 1QNNE11 1 00299E11 1 00699E11 1 00099E11 1 00099G11 1 00200K11 1 00051L11 1 00700M11 1 29070N11 1 00000Q11 1 10086S11 1 00069V11 1 01008X11 1 21008
0092999999999991983010100004-24300+168300FM-13+99995MXH V0200801N010819999999N0040001N9+02401+01901101101ADDAG10999AY121061GF108991999091002501001001MD1410001+9999MW1021SA1+2559REMSYN01122214 00255
0077471820999991983110722004+33500+126500FM-15+0038RKPC V0201901N00201009001CN0112001N1+01301+01101999999ADDAG12999GA1051+009009059MA1102001999999REMMET0083012INS?EQDQ01+000000PRSWM2
0104063300999991983121816004+51983+004117FM-12+000799999V0201001N00721075001CN0080001N9+00361+00251098821ADDAG12999GF107991021051012501001061MD1710221+9999MW1101OA149900881OA259900721REMSYN017333   91117 91214
0199209670999991983060803004+70150+072517FM-12+001699999V0202901N01101004501CN0300001N9-00401-00621101331ADDAA106000091AA224002091AG14000AJ100249199999999AY101031GA1051+004509089GF106991051011004501001011IA1269KA1120N-00641MD1210341+9999MW1021OA149901401REMSYN041333   21064 85815 555   42024 70024 91114
0064319930999991983012318004+43983+134683FM-12+023499999V0201701N00101220001CN0500001N9-01031-01391102111ADDAG12000AY101061GF100991001001999999001001MD1210041+9999MW1021
0112076460999991983092303004+43750+004417SY-MT+0094LFTW V0200601N00311220001CN0300001N1+01801+01381102191ADDAG12000AY101031GF100991001001999999001001MA1102101999999MD1310011+9999MW1021REMMET005CAVOKEQDQ01+000000PRSWM2
0069166410999991983041108004+39617+019917FM-15+0002LGKR V0209991C00001220001CN0010001N1+01601+01401999999ADDAG12999GA1031+009009079MA1101801999999MW1101REMMET013TEND VIS 5KM?
0145427790999991983091000004+22767+081900FM-12+062599999V0201401N00151003001CN0100001N9+03331+02271100371ADDAA121010091AG10000AY101061GA1051+003009079GA2031+006009059GF106991061061004501999001MD1999999+0331MW1021REMSYN029333   58033 6010/ 85710 83620
0079723106137441983061211004+34183-079717SAO  +0045FLO  V0200201N004112200019N0096001N1+01501+01441102171ADDAG10999GF100991999999999999999999MA1102171999999MW1051MW2451REMAWY007FEW CI?
0090725395148331983110208004+42267-084467SAO  +0305JXN  V0201901N00411013501MN0080001N1+01441+01221102471ADDAG10999GD13991+0135099GF107991999999999999999999MA1102441999999MW1051MW2451REMAWY003KK?
0083319170999991983072506004+44033+131317FM-12+010999999V0202301N003019999999N0500001N9+02501+01691100601ADDAG11000AY101061GF107991011021999999031001MD1710051+9999MW1021EQDQ01+000992SCOLCB
0083107120999991983040718004+49500-007867FM-15+0321EDAS V0202101N003010240019N0112001N1+00801+00401999999ADDAG12000GA1011+006009059GA2081+024009039MA1100541999999MW1001REMMET011CIG080 BLU?
0078161490999991983110321204+44017+012633FM-15+0012LIPR V0209991C00001024001CN0050001N1+01201+01201999999ADDAG12000GA1011+012009059GA2061+024009039MA1102301999999MW1101REMMET006NOSIG?
0105161790999991983022608164+43517+012733FM-16+0570LIVF V0200401N00301009601CN0112001N1+99999+99999999999ADDAG12999GA1041+008409089GA2041+009609059REMMET035OVC MON S ET W CIME INC NC VAL NIL?EQDQ01+000000PRSWM2
0061943400999991983012908004-20733+143133FM-12+021699999V0200901N00261220001CN0500001N9+03601+01051101101ADDAA106000091AG10999AY101999GF100991001001999999001001MW1021
0081718940999991983111917004+49383-126550SAO  +0007WEB  V0200201N002519999999N9999999N9+00701+00301099461ADDAG10999MA1999999099381REMAWY012/0002 M054 ?EQDQ01+999990APOSP Q02+000002VOVAR 
0071788620999991983041621004+17133-061783FM-15+0010MKPA V0200801N00511220001CN0112001N1+99999+99999999999ADDAG12000GA1021+007209089REMMET0174XPRP WUXWW QPQQ?EQDQ01+000000PRSWM2
0144032220999991983121504004+54933-002950FM-12+0026EGNC V0200701N00101005401CN0070001N9+00351+00281099591ADDAG12999AY161011GA1031+003909079GA2041+005409059GA3081+009609059GF108991081051004501999999MD1810081+9999MW1601REMSYN023333   83713 84618 88632
0069164800999991983011308174+36683+015133FM-16+0046LICO V0209991C00001220001CN0040001N1+99999+99999999999ADDAG11999MW1101REMMET044QUK2 QUL0 VIS MAR 4 KM? (13080     ?     0)?
0064237340999991983040121004+62450+066050FM-12+003899999V0209991C00001220001CN0500001N9-00101-00381101351ADDAG12000AY101031GF108991001001999999001011MD1710151+9999MW1021
0060802520999991983032911004+03850-076967FM-15+0014MCBU V0209991C00001007501CN0112001N1+99999+99999999999ADDAG12999GA1061+007509089MA1100711999999EQDQ01+000000PRSWM2
0064320530999991983050318004+51817+143133FM-12+001099999V0209991C00001220001CN0100001N9-00331-00441101711ADDAG11000AY101061GF100991001001999999001001MD1210081+9999MW1021
0061992320999991983102213004+28700-095300FM-18+00034200 V0203601N008019999999N9999999N9+01861+99999101831ADDAG12999OA139901001SA1+2469REMSYN02322200 00246 333   92110
0065614420999991983060801004+18100-015950FM-15+0003GQNN V0203501N00411999991CY0099001N1+02901+01601999999ADDAG11999MA1100811999999REMMET012CAVOK NOSIG?EQDQ01+000000PRSWM2
0076160900999991983050122504+45383+010867FM-15+0067LIPX V0209991C00001220001CN0112001N1+01001+00801999999ADDAG12999GA1011+009009089GA2031+021009039MA1100311999999EQDQ01+000000PRSWM2
0100032220999991983070610004+54933-002950FM-12+0026EGNC V0201101N00211220001CN0120001N9+02261+01571101691ADDAG11999AY101011GA1021+090009009GF102991001001999999001011MD1810111+9999MW1021REMSYN011333   82080
0121999999999991983080812004+17400+111400FM-13+9999BOQN V0201501N00501220001CN0200001N9+02931+99999100801ADDAG11000AY101061GF102991021011008001001001MW1001SA1+3019UA1M990059999UG1990051509REMSYN02922253 00301 2//01 315// 4//01
0121999999999991983082512004-02000+107200FM-13+9999NGYS V0201201N00621045001CN0200001N9+02891+02571101001ADDAG10999AY101061GF106991041041008001061999MW1021SA1+2899UA1M020109999UG1020051209REMSYN02922274 00289 20202 312// 40201
0096719240999991983120510004+74717-094950SAO  +0067YRB  V0200501N009712200019N0240001N1-02201-02601101631ADDAG10999GF100991999999999999999999MA1101521100721MW1761REMAWY011DRFTG SNW ?EQDQ01+999990APOSP 
0108318010999991983041712004+47667+136183FM-12+018099999V0202201N00201090001CN0200001N9+01111-00251100961ADDAA106000091AG10000AY101061GF108991021001999999051071KA1120M+02051MD1210181+9999MW1021REMSYN011333   10205
0064311580999991983122006004+56650+136350FM-12+049699999V0209991C00001220001CN0500001N9-01241-02081101361ADDAG12000AY101061GF102991001001999999001021MD1710021+9999MW1021
0111999999999991983100621004+47200-060200FM-13+9999VCWB V0202701N01541007501CN0040001N9+01701+99999100451ADDAG12001AY121031GF107991071021008001001001MD1310151+9999MW1151SA1+1469UA1M030209999REMSYN01722200 00146 20304
0125423480999991983090400004+26817+075800FM-12+0390VIJP V0209991C00001060001CN0040001N9+02601+02461100291ADDAA106000091AG14000AY101061GA1031+030009039GA2051+060009009GF105991011011008001031011MW1021REMSYN023333   18830 83360 85070
0133370310999991983063003004+44983+041117FM-12+020899999V0201601N00101220001CN0080001N9+01631+01541101431ADDAA124000091AG10000AY111031GF100991001001999999001001KA1120N+01301MD1210041+9999MW1101REMSYN017333   20130 70000EQDQ01+008207APC3  
0058026360999991983031822204+55550+013367FM-15+0106ESMS V0202701N00461000601CN0002001N1+00701+00701999999ADDAG12999ED117U10979GA1091+000609999MA1101291999999MW1471
0100030080999991983013107004+59533-001633FM-12+005799999V0202401N00411004501CN0020001N9+00141-00221099891ADDAG12999AY121011GA1071+004509089GF107991071021004501999999MD1310011+9999MW1881REMSYN011333   87815
0123207440999991983102821004+72383+052733FM-12+001699999V0202601N00901005701CN0200001N9-00161-00331097481ADDAG12002AY181031GA1061+005709059GF106991061051004501001001MD1710041+9999MW1361OA149901001REMSYN023333   86619 555   91110
0087723346038111983012905004+35600-088917SAO  +0132MKL  V0201401N00301036001EN0080001N1+00281+00061101711ADDAG10999GD13991+0360099GD24991+0750093GF108991999999999999999999MA1101691999999MW1451
0119724836232081983092109004+38667-121400SAO  +0023MCC  V0201101N001012200019N0240001N1+02111+00671101411ADDAG10000GD12991+0360099GD22991+0600099GF102991999001999999071011MA1101421999999MD1010051+9999MW1001REMAWY009005 1071?
0107167540999991983010513504+35333+025183FM-15+0038LGIR V0209991C00001027001CN0112001N1+01401+00801999999ADDAG12999GA1011+009009089GA2041+012009059GA3071+027009039MA1101901999999REMMET006NOSIG?EQDQ01+000000PRSWM2
0064094800999991983032002004+51300+013100FM-12+015099999V0202901N00301004201CN0025001N9+00861+00781101651ADDAG12999AY151999GF108991071071004501999999MD1210051+9999MW1511
0099876450999991983012916004-37233-059250FM-12+0175SAZT V0202701N00461036001CN0200001N9+02681+01771999999ADDAG10999AY101011GF107991011081008001071061MA1100511999999MD1010031+9999MW1021REMSYN011555   10052
0079107630999991983020201204+49500+011083FM-15+0312EDDN V0202201N00871009001CN0070001N1+00201+00001999999ADDAG11999GA1011+001809089GA2041+003009089GA3061+009009059MA1100711999999MW1851
0061071970999991983082914304+47917+007400FM-15+0217LFSC V0200401N00611033001CN0070001N1+02501+01601999999ADDAG12000GA1041+015009059GA2061+033009039EQDQ01+000000PRSWM2
0050153440999991983120900004+45183+023817FM-12+053099999V0209991C00001012001CN0120001N9-00231+99999999999ADDAG11000AY101061GF108991081051012501999999MW1021
0088724917232331983091316004+36667-121600SAO  +0023SNS  V0209991C00001000301WN0006001N1+01671+01671101341ADDAG10999GD15991+0003099GF109991999999999999999999MA1101321999999MW1451REMAWY007TOPS 5?
0092033180999991983072806504+53767-003033FM-15+0010EGNH V0203001N00361013501CN0112001N1+01601+01401999999ADDAG12999GA1011+004509089GA2051+013509059GA3071+066009029MA1102811999999EQDQ01+000000PRSWM2
0267726686240251983103005003+44383-100283SAO  +0528PIR  V0201605N009352200059N0128005N1+00895-00505102385ADDAG10999GD10995+9999999GD20995+9999999GD30995+9999999GF100005999999999999999999MA1102301096115MW1001EQDN01 00000JPWTH 1QNNE11 1 00099E11 1 00099E11 1 00099E11 1 00099G11U1 99999K11 1 00023L11 1 00800M11 1 28380N11 1 00000Q11 1 10238S11 1 00048V11 1 00000X11 1 16018
0091093850999991983010506304+52383+013517FM-15+0047ETBS V0202601N00411220001CN0112001N1+00301+00101999999ADDAG12999GA1011+007509059GA2031+078009029MA1101591999999REMMET006NOSIG?EQDQ01+000000PRSWM2
0455917650617051983042106003-14333-170717SY-SA+0003NSTU V0201005N005750121949N0112005N1+02615+02445101225ADDAA106001091AG10999AY181061GA1999+005794084GA2999+012194064GA3999+030484034GD12035+0057099GD23025+0120099GD34025+0300099GD40995+9999999GF108085061041008001031999KA1999M+02941MA1101221101195MD1210121+9999MW1805REMSYN011333   56399AWY020RB37/ 21205 143/ 85?EQDN01 02300JPWTH 1QNNE11 1 00204E11 1 00403E11 1 00603E11 1 00099G11 1 00040H11 1 11019H11 1 15040H11 1 23100K11 1 00076L11 1 00700M11 1 29880N11 1 02300Q11 1 10122S11 1 00079V11 1 01010X11 1 10011
0073727438999991983071418004+46550-087383SMARS+019634Y  V0202301N00511220001CN0185001N9+03331+99999101321ADDAG10999GF104991999999999999999999MW1001REMSYN022M     M     MARQUETTE?
0057722057128541983120815004+28783-081250SAO  +0002SFB  V0203601N005112200019N0240001N1+01221+00671999999ADDAG10000GF100991999999999999999999MA1102541999999MW1001
0091945780999991983030510004-27433+153083FM-15+0002ABBN V0200701N00051066001CN0112001N1+02401+01901999999ADDAG10999GA1031+006009059GA2051+066009029MA1102001999999REMMET006NOSIG?EQDQ01+000000PRSWM2
0064241250999991983020521004+68500+112433FM-12+012799999V0202501N00101075001CN0200001N9-04751-05051103051ADDAG12001AY171031GF108991001001999999001071MD1810031+9999MW1711
0099876230999991983062901004-36567-064267FM-12+0190SAZR V0201101N00511220001CN0300001N9+00301-00121102441ADDAG10999AY101011GF105991001001999999001061MA1102341999999MD1710281+9999MW1021REMSYN011555   10233
0111726145947051983112616004+44200-072567SAO  +0353MPV  V0202901N00511007501EN0160001N1+00061-00381100891ADDAG10999GD13991+0075099GD24991+0105099GF108991999999999999999999MA1100711999999MW1001REMAWY015MTN TOPS OBSCD?
0130162520999991983080718004+41567+014650FM-12+0807LIBS V0209991C00001006001CN0120001N9+01801+01461999999ADDAA199001091AG10000AY151061GA1061+006009059GF108991061051008001071999KA1120M+02261MD1110071+9999MW1201REMSYN017333   10226 86620
0064028740999991983071509004+65033+024800FM-12+0006EFHL V0201701N00511030001CN0300001N9+01421+00891100011ADDAG11000AY121031GF108991011091004501071999MD1710171+9999MW1021
0064294670999991983031421004+56283+090500FM-12+027299999V0201401N00201220001CN0200001N9-00011-00921101891ADDAG11000AY101031GF100991001001999999001001MD1710261+9999MW1021
0083345190999991983111215004+48067+037767FM-12+025999999V0202401N008019999999N0050001N9-00391-00651100251ADDAG12000AY151031GF107991999001004501001001MD1210081+9999MW1491EQDQ01+000002SCOTLC
0123999999999991983073006004+48500-005300FM-13+9999SGLU V0200501N00511090001CN0100001N9+01601+99999101801ADDAG12000AY101061GF107991031001022501031081MD1710101+9999MW1021SA1+1459UA1M990109999REMSYN02922214 00145 2//02 333   4//05
030972797094240198302151700C+47950-124550SAO  +0055UIL  V0201405N001550609649N0160005N1+00675+00615101135ADDAA101000095AG10999GD12995+0360099GD24995+0600099GD30995+9999999GD40995+9999999GF108075999999999999999999MA1101121100375MW1001EQDQ01+999990APOSP N01 00000JPWTH 1QNNE11 1 00299E11 1 00699E11 1 00099E11 1 00099G11 1 00200K11 1 00043L11 1 01000M11 1 29640N11 1 00000Q11 1 10113S11 1 00044V11 1 01009X11 1 14003
0039095580999991983033008004+50383+011183FM-12+063099999V0202001N007019999999N9999999N9-00121-00351999999ADDAG12999MA1999999093591MD1710011+9999
0064103280999991983120504004+51950+008900FM-12+0189EDUD V0201701N00261220001CN0250001N9-00201-00461102781ADDAG11999AY101011GF100991001001999999001001MD1710111+9999MW1021
0145718900999991983060616004+49050-123867SAO  +0030YCD  V0209991C000012200019N0160001N1+01601+01201102411ADDAG10999GD12991+0012093GD22991+0075099GD33991+0660093GF107991999999999999999999MA1102401999999MW1001REMAWY034ST2CU3CI         ?    VSBY SE 3F ?
0083162530999991983090503104+41067+014083FM-15+0008LIRM V0209991C00001220001CN0112001N1+01901+01701999999ADDAG12000GA1031+009009059MA1101691999999REMMET014SCT? (050300)?EQDQ01+000000PRSWM2
0075466990999991983092103004+23967+121617FM-12+001999999V0201101N00311220001CN0300001N9+03061+02411101151ADDAA106000091AG14000AY101031GF103991021011008001031001MD1810011+9999MW1021
0064243820999991983041106004+66450+143233FM-12+019699999V0200201N00101220001CN0500001N9-00891-01751101941ADDAG11000AY101061GF103991001001999999001011MD1710141+9999MW1021
0083312880999991983040415004+54117+135700FM-12+018299999V0200201N002019999999N0041001N9-00501-00531100491ADDAG12001AY181031GF107991999091004501999999MD1210041+9999MW1851EQDQ01+000082SCOTLC
0083304320999991983041615004+55717+109067FM-12+067699999V0209991C00001220001CN0500001N9-00421-00761100511ADDAG11000AY101031GF102991999051012501001001MD1210111+9999MW1021EQDQ01+000012SCOTLC
0078108580999991983070514504+48200+011267FM-15+0518EDSF V0200601N00461220001CN0112001N1+02601+01301999999ADDAG12000GA1031+075009009MA1101801999999REMMET009BLU+BLU+?EQDQ01+000000PRSWM2
0080725845232251983061607003+39283-120700SAO  +1609BLU  V0200505N000559999999N9999999N9+01615-00335999999ADDAG10999MA1101591999999EQDQ01+000002VOVAR QNNK11 1 00026S11 1 00061X11 1 05001
0132477040999991983111120004+36383+136417FM-15+0009RJNK V0202101N00361009001CN0112001N1+01201+01101999999ADDAG12999GA1031+006009099GA2051+009009089GA3071+018009059MA1100611999999MW1951REMMET044065. TS          ?     N. RASH. CB ALL QUAD?
0072722745231091983022111004+32167-110883SAO  +0824DMA  V0201301N001012200019N0320001N1+00561-00051101701ADDAG10999GD12991+0750093GF102991999999999999999999MA1101901999999MW1001
0153151070999991983041406004+46917+025367FM-12+067899999V0203601N00301004201CN9999999N9+00181+00181100921ADDAA199004091AG10001AY181061GF108991061071004501021999IA1099IA2120+00009KA1120N+00041MA1999999092781MD1210141+9999MW1711REMSYN023333   20004 31000 99/90
0108232740999991983092300004+67467+086567FM-12+003099999V0201501N00601030001CN0200001N9+00241-00061101401ADDAA106000091AG14000AY101061GF107991071001999999041001KA1120N+00011MD1410001+9999MW1021REMSYN011333   20001
0064442820999991983060203004+47450+101467FM-12+169799999V0200501N00201007501CN0500001N9+00661+00331101741ADDAG12001AY161031GF108991081051008001999999MD1410001+9999MW1021
0047073740999991983070617004+46167+003400FM-15+0249LFLV V0202601N00721009901CN0050001N1+01901+01701999999ADDAG12999GA1071+009909099MA1101591999999MW1951
0100037450999991983062800004+51250-001767FM-12+0139EGDN V0203601N00261220001CN0250001N9+00991+00811102021ADDAG12000AY101061GA1041+010509059GF104991041051012501001001MD1110081+9999MW1021REMSYN011333   84635
0075134520999991983072107104+42567+018267FM-15+0161LYDU V0200901N00201999991CY0099001N1+02701+01701999999ADDAG12999MA1101391999999REMMET022CAVOK NOSIG? (210700)?EQDQ01+000000PRSWM2
0133683440999991983122906004-27900+026133FM-12+125099999V0209991C00001036001CN0500001N9+02111+01221999999ADDAA106000091AG10999AY101061GF106991021081017501071001KA1240M+02901KA2120N+01691MD1310101+9999MW1021REMSYN023333   20169 555   10290
0125548630999991983020706004+36767+121200FM-12+006499999V0202901N01201220001CN0300001N9+00221-01351102181ADDAA106000091AG14000AY101061GF100991001001999999001001KA1240N-00571MD1710321+9999MW1021OA130601701REMSYN017333   21057 91117
0047060660999991983080112504+55983+008350FM-15+0005EKVJ V0201901N01021220001CN0080001N1+02401+01801999999ADDAG12999GA1041+012009089MA1099701999999MW1051
0094124690999991983031612004+51350+019867FM-12+018899999V02099999999999999999N0100001N9+99999+99999999999ADDAA106000091AG14000AY121061GF105991031001008001051081MD1110041+9999MW1031EQDQ01+098683APOSLP
031172635094860198309050500C+42883-085517SAO  +0239GRR  V0201805N004152200059N0080005N1+02175+01565100965ADDAA101000095AG10999GD19999+0001599GD20995+9999999GD30995+9999999GF102025999999999999999999MA1101021098145MW1055REMAWY003H2?EQDQ01+999990APOSP N01 08100JPWTH 1P01     03SCCGD1QNNE11 1 00099E11 1 00099E11 1 00099G11U1 99999K11 1 00060L11 1 00500M11 1 28980N11 1 08100Q11 1 10096S11 1 00071V11 1 00202X11 1 18008
0075442870999991983071809004+46133+100683FM-12+186099999V0202701N00501220001CN0500001N9+02171+00641099581ADDAA106000091AG10000AY101031GF103991031021008001001001MD1710151+9999MW1021
0111031600999991983010800004+55950-003350FM-12+0041EGPH V0202501N00511220001CN0250001N9+00221+00061101601ADDAA106001091AG10002AY181061GA1011+009009059GF101991011051012501001001MD1210341+9999MW1011REMSYN011333   81630
0189039550999991983102708004+51850-008500SY-MT+0162EICK V0202201N00301002401CN0020001N1+01001+01001101931ADDAG11999AY121021GA1011+000609079GA2031+001209079GA3051+002409079GF108991081061000751999999MA1101901999999MD1510001+9999MW1101REMSYN023333   81702 83704 85708MET024TEMPO      ?     5ST004?
0120106320999991983050513004+49967+008150FM-15+0231EDOT V0202001N001010600019N0112001N1+01901+00701999999ADDAG11999GA1011+009009089GA2021+012009089GA3021+030009039GA4021+060009009MA1101931999999MW1001REMMET016CIG200 HZ PRSNT?
0083165460999991983070116104+39350+008967FM-15+0029LIED V0203401N00821220001CN0112001N1+03001+01301999999ADDAG12999GA1011+024009039MA1101591999999REMMET014SCT? (011600)?EQDQ01+000000PRSWM2
033972688024155198301180200C+45683-118850SAO  +0452PDT  V0200505N002150762049N0112005N1+00175+00005101355ADDAA101000095AG10999GD12995+0114099GD22995+0300099GD33995+0750099GD40995+9999999GF106035999999999999999999MA1101221095875REMAWY027PK WND 07 000/FDNY G ALQDS?EQDQ01+999990APOSP N01 00000JPWTH 1QNNE11 1 00299E11 1 00299E11 1 00499E11 1 00099G11 1 00250K11 1 00032L11 1 00700M11 1 28310N11 1 00000Q11 1 10135S11 1 00035V11 1 00704X11 1 05004
009172360023051198307300400C+36450-103150SAO  +1515CAO  V0202505N003159999999N9999999N9+02005+01505999999ADDAA101000095AG10999MA1101591999999EQDQ01+000002VOVAR QNNK11 1 00059S11 1 00068X11 1 25006
0076963150999991983081812304+04933+114933FM-15+0015WBSB V0209991C00001084001CN0112001N1+02701+02601999999ADDAG12999GA1011+004809089GA2061+084009029MA1100911999999EQDQ01+000000PRSWM2
0145109610999991983030221004+47417+010983FM-12+296099999V0200901N00411220001CN0750001N9-01501-01561999999ADDAG12001AY171031GA1011+012009039GA2021+999999059GF103991021051999999041021MD1210121+9999MW1281OA149901701REMSYN029333   826// 81340 91133 96972
0064267300999991983071109004+54633+025283FM-12+0189UMWW V0202901N00301220001CN0180001N9+02411+01721101661ADDAG12000AY101031GF107991041001999999071011MD1710051+9999MW1021
0138947910999991983042605003-30317+153117FM-12+0003ASCH V0200401N00101090001CN0400001N9+02001+01091101011ADDAA106000091AG10999AY121999GA1005+999999999GA2025+999999045GA3075+999999999GF107991021001999999031081MA1999999100955MD1510001+9999MW1015
0120726510149441983022209144+43567-096733SAOSP+0435FSD  V0202901N00151000601WN0016001N1+99999+99999999999ADDAG10000ED103U18289GD15991+0006099GF109991999999999999999999MA1101961096821MW1451REMAWY009R03VR60+?EQDQ01+999990APOSP 
0129162610999991983071203004+41533+015717SY-MT+0057LIBA V0202801N00411220001CN0150001N1+02001+01631101411ADDAG11000AY101031GF100991001001999999001001MA1101391999999MD1610041+9999MW1021REMSYN011333   95890MET005CAVOKEQDQ01+000000PRSWM2
043872318113877198308271500C+36483-082400SAO  +0459TRI  V0200405N001550036649N0024005N1+02175+02005102185ADDAA101009495AA299010091AG10000GA1999+000914134GA2999+003664064GD12035+0009099GD24055+0036099GD30995+9999999GD40995+9999999GF108085999051999999999999MA1102341096825MD1210121+9999MW1055MW2455REMAWY051TB01E47          ?    RB01E45 T MOVD SE 21238 15//?EQDN01 07081JPWTH 1QNNE11 1 00204E11 1 00606E11 1 00099E11 1 00099G11 1 00012H11 1 13003H11 1 15012K11 1 00068L11 1 00150M11 1 28590N11 1 07081Q11 1 10218S11 1 00071V11 1 01010X11 1 04003
0087725145999991983022520004+41700-074800SAO  +0428MSV  V0203601N007210750019N0480001N1+00281-00601999999ADDAG10999GD12991+0090099GD23991+0750099GF107991999999999999999999MA1100681999999MW1001
0390722316129581983033123003+29817-090017SAO  +0002NBG  V0202005N002152200059N0064005N1+01945+01445101235ADDAG10999GA1999+012194999GA2999+999999999GA3999+999999999GA4999+999999999GD12025+0120099GD20005+9999999GD30005+9999999GD40005+9999999GF102995999999999999999999MA1101221101225MW1055EQDN01 08100JPWTH 1QNNE11 1 00203E11 1 00000E11 1 00000E11 1 00000G11U1 99999H11 1 99040H11 1 00999H11 1 00999H11 1 00999K11 1 00058L11 1 00400M11 1 29890N11 1 08100Q11 1 10123S11 1 00067V11 1 00399X11 1 20004
0135876480999991983021712004-36350-057733FM-12+0010SAZD V0202901N00311220001CN0100001N9+02101+01481101261ADDAA106000091AG10999AY101061GF103991001001999999001061KA1120N+01341MA1101291999999MD1110051+9999MW1021REMSYN023333   20134 555   10128
0102727435999991983080301004+46350-087400SAO  +0372SAW  V0201701N005110750019N0240001N1+02441+01831101901ADDAG10999GD12991+0360099GD22991+0540099GD33991+0750099GF107991999999999999999999MA1101931999999MW1001
0078060700999991983092112254+56300+010617FM-15+0025EKAH V0202401N00411024001CN0112001N1+99999+99999999999ADDAG12001GA1041+012009059GA2071+024009039MA1101291999999MW1601REMMET006NOSIG?
0094528570999991983081412004+00000+999999FM-12+999999999V0202701N002019999999N0300001N9+01061+00981999999ADDAA106000591AG10007AY171061GF107991999091001501999999MD1210111+9999MW1801EQDQ01+000082SCOTLC
0046411500999991983122602004+26267+050617FM-15+0002OBBI V0201401N00101220001CN0080001N1+01401+01301999999ADDAG11999MA1102101999999MW1051REMMET006NOSIG?
0148308370999991983062900004+51050+108833FM-12+071399999V0202401N00101030001CN0500001N9+00861+00501100961ADDAA106000091AA224000091AG14000AY101061GF106991031091008001051001KA1120N+00611MD1310041+9999MW1021OA149901001REMSYN029333   20061 555   70000 91110
033272451013985198312012200C+37767-099967SAO  +0787DDC  V0201805N00775076204EN0320005N1+00445-00285101375ADDAA101000095AG10999GD14995+0750099GD20995+9999999GD30995+9999999GD40995+9999999GF108075999999999999999999MA1101191092045MW1001REMAWY014BINOVC FEW AC?EQDQ01+999990APOSP N01 00000JPWTH 1QNNE11 1 00699E11 1 00099E11 1 00099E11 1 00099G11 1 00250K11 1 00027L11 1 02000M11 1 27180N11 1 00000Q11 1 10137S11 1 00040V11 1 01009X11 1 18015
0076787935999991983090419004+09333-082233FM-15+0002MPBO V0203601N00411220001CN0112001N1+99999+99999999999ADDAG12999GA1011+007509089GA2031+090009009MA1100981999999EQDQ01+000000PRSWM2
0091716290999991983120515004+44233-078367SAO  +0191YPQ  V0200501N00101000301WN0002001N1-00101-00101101481ADDAG10000GD15991+0003099GF109991999999999999999999MA1101391999999MW1451REMAWY010F10 1005 ?
0072723927931101983011916004+34200-119200SAO  +0013OXR  V0200601N004612200019N0480001N1+00831+99999999999ADDAG10999GD12991+0090099GF102991999999999999999999MA1101291999999MW1001
0124804260999991983042909004+09350-070617FM-12+058299999V0209991C00001011101CN9999999N9+02161+01991101601ADDAG12000AY151031GA1081+011109059GF108991081051012501999999IA1119MD1999999+0191MW1501REMSYN029333   32/// 569// 58019 88637
0064476360999991983042203004+35167+136967FM-12+005699999V0203001N00211004201CN0015001N9+01361+01311100491ADDAG12003AY161031GF108991051071004501021999MD1610431+9999MW1611
0072723550139451983021817004+34650-098400SAO  +0362FSI  V0209991C000012200019N0240001N1+01171+00501101901ADDAG10999GD12991+0750099GF102991999999999999999999MA1101901999999MW1001
048472208013880198307271800C+32900-080033SAO  +0012CHS  V0200705N005752200059N0240005N1+03005+01835102025ADDAA101000095AA206000091AG10000GA1999+013724064GA2999+999999999GA3999+999999999GA4999+999999999GD12025+0135099GD20005+9999999GD30005+9999999GD40005+9999999GF102025999051999999001991KA1999N+02221MA1102001101835MD1110031+9999MW1001OC100921REMAWY012103 1500 72?EQDQ01  00003PRCP99N01 00000JPWTH 1QNNE11 1 00203E11 1 00000E11 1 00000E11 1 00000G11U1 99999H11 1 15045H11 1 00999H11 1 00999H11 1 00999K11 1 00065L11 1 01500M11 1 30070N11 1 00000Q11 1 10202S11 1 00086V11 1 00303X11 1 07011
0045071480999991983090707004+48600+002333FM-15+0082LFPY V0203401N00151220001CN0070001N1+99999+99999999999ADDAG12999GA1011+078009009EQDQ01+000000PRSWM2
0102852450999991983120201004-17783-063167FM-15+0437SLCZ V0203101N00301220001CN0112001N1+02501+02201999999ADDAG10999GA1021+009009099GA2021+060009009MA1101491999999REMMET017BRA/CB AL S/SE E?EQDQ01+000000PRSWM2
032972767094014198312102000C+48183-103633SAO  +0579ISN  V0201205N00885009754MN0160005N1-01285-01835101645ADDAA101000095AG10999GD13995+0096099GD24995+0240099GD30995+9999999GD40995+9999999GF108085999999999999999999MA1101191094415MW1001REMAWY011DRFTG SNOW?EQDQ01+999990APOSP N01 00000JPWTH 1QNNE11 1 00499E11 1 00699E11 1 00099E11 1 00099G11 1 00032K11 1-00001L11 1 01000M11 1 27880N11 1 00000Q11 1 10164S11 1 00009V11 1 01010X11 1 12017
0078722068999991983083014004+30333-081517SAO  +0012CRG  V0201801N00201075001EN0048001N1+02611+02441999999ADDAG10999GD13991+0750099GF107991999999999999999999MA1101321999999MW1051MW2451
0311702000266171983052805003+64500-165433SAO  +0004OME  V0201605N003650609649N0560005N1+00565+00005101335ADDAG10999GD12995+0075099GD24995+0600099GD30995+9999999GD40995+9999999GF108065999999999999999999MA1101321101255MW1001REMAWY0041SC?EQDQ01+999990APOSP N01 00000JPWTH 1QNNE11 1 00299E11 1 00699E11 1 00099E11 1 00099G11 1 00200K11 1 00032L11 1 03500M11 1 29900N11 1 00000Q11 1 10133S11 1 00042V11 1 01007X11 1 16007
0101724957999991983121004004+38517-122817SAO  +0045STS  V0202101N003010108019N0160001N1+01281+01061999999ADDAG10999GD12991+0045099GD23991+0108099GF107991999999999999999999MA1101081999999MW1001REMAWY005LAST?
0120983250999991983050606004+16050+120333FM-12+000199999V0203201N00401220001CN0350001N9+03481+02351100991ADDAA106000091AG14000AY101061GF101991011021008001001011MD1810181+9999MW1021UA1M000009999REMSYN023222// 20000 333   56999
0135999999999991983122700004+45000-137500FM-13+99998KTX V0202701N00261220001CN0200001N9+00801+00491101101ADDAG11000AY111061GF102991021021004501001001MD1110101+9999MW1011SA1+0909UA1M990059999UG1060252809REMSYN02922273 00090 2//01 328// 40605
0064471290999991983072203004+36783+126450FM-12+002199999V0200201N00151036001CN0300001N9+02491+02281100101ADDAG12002AY161031GF108991031051008001021999MD1810171+9999MW1011
0075136250999991983022315004+40083+020150FM-12+019399999V0203201N00601220001CN0200001N9+00381-00941102861ADDAA106000091AG14000AY101031GF100991001001999999001001MD1110021+9999MW1021
0073722315539171983050520004+30033-090033SAO  +0003NEW  V0200201N002012200019N0160001N1+99999+99999999999ADDAG10999GF100991999999999999999999MA1101761999999MW1001REMAWY007FEW CU?
0071711405999991983010621004+50067-096517SAO  +0274WBS  V0203201N00511010501EN0160001N1-00701-01001999999ADDAG10001GD14991+0105099GF108991999999999999999999MW1711REMAWY005SC10?
0123837030999991983052100004-22550-055700FM-12+0660SBPP V0201801N00311220001CN0200001N9+01751+01681101121ADDAA106000091AG10999AY101061GF100991001001999999001001KA1240M+02501MA1999999093761MD1110091+9999MW1021REMSYN011333   10250
0079082240999991983010309004+40300-003717SY-MT+0623LEGT V0209991C00001220001CN0030001N1-00221-00221103811ADDAG12000AY101031GF100991001001999999001001MA1103491999999MD1310071+9999MW1101
0064246710999991983022703004+63917+135867FM-12+040099999V0203201N00501220001CN0500001N9-03821-04151102861ADDAG12000AY101031GF102991001001999999001021MD1810081+9999MW1021
0095013660999991983071212004+61567+008000FM-12+141399999V0202601N00361075001CN0240001N9+01141+00531101931ADDAG12000AY141061GF106991041021001501001081MD1710071+9999MW1021OA149900411REMSYN011333   91108
0072725037947451983071305004+41067-073717SAO  +0134HPN  V0202701N00301024001EN0112001N1+02781+02001101321ADDAG10999GD13991+0240099GF107991999999999999999999MA1101351999999MW1001
0100105320999991983100416004+50567+008700FM-12+019599999V0201401N00311078001CN0150001N9+02281+01361101621ADDAG11999AY101011GA1071+078009009GF107991001001999999001021MD1610111+9999MW1021REMSYN011333   87076
0058024600999991983042403204+59650+017950FM-15+0061ESSA V0202801N00101000601CN0003001N1+00501+00501999999ADDAG12000ED101U07929GA1091+000609999MA1101021999999MW1431
0075596440999991983060912004+21483+109100FM-12+001699999V0209991C00001007501CN0180001N9+02711+02441100531ADDAA106999929AG10012AY191061GF108991081091008001999999MD1210121+9999MW1001
0114727855241141983081812004+47617-117650SAO  +0750SKA  V0209991C000012200019N0400001N1+01501+00561100871ADDAA106000091AG10000GF100991999999999999999999MA1101051999999MD1310051+9999MW1001REMAWY004305?EQDQ01  00003PRCP99
0111114380999991983052112004+50383+013333FM-12+032199999V0200901N00301030001CN0070001N9+02111+01251999999ADDAA106000091AG14000AY111061GA1081+030009049GF108991081001999999011999MD1710151+9999MW1101REMSYN011333   88460
0122111500999991983020810194+47800+013000FM-15+0450LOWS V0209991V00051030001CN0028001N1+00101-00201999999ADDAG12999GA1011+001209079GA2061+030009039MA1100311999999MW1101REMMET050VIS 8KM FM S TO NW     ?     GRADU 5000? (080950)?
0086722487139351983031402004+31383-092300SAO  +0033ESF  V0201901N00361075001EN0112001N1+01611+00441101271ADDAG10999GD13991+0750099GF107991999999999999999999MA1101291999999MW1001REMAWY005LAST?
0075600150999991983032415304+28483-016333FM-15+0618GCXO V0203201N00821220001CN0112001N1+01401+00801999999ADDAG12999GA1041+003609089MA1101901999999REMMET006NOSIG?EQDQ01+000000PRSWM2
0033717260999991983121204004+47917-074617SAO  +0442WPK  V0201101N004619999999N0144001N1-01801-02301103651ADDAG10999MW1001REMAWY008/ MMMM ?
0122038270999991983040323004+50350-004117FM-12+002799999V0201901N01181001501CN0060001N9+00751+00711100051ADDAG12999AY161021GA1041+000909079GA2081+001509079GF108991081071001501999999MD1810611+9999MW1651REMSYN017333   84703 88705
0095106335999991983062714004+49967+008150FM-15+0231EDOT V0203001N004110120019N0090001N1+02201+01501999999ADDAG11999GA1011+006009089GA2031+009009099GA3011+012009059GA4021+027009039MA1101081999999MW1051
0380722065938371983060710003+30233-081667SAO  +0009NIP  V02099959000050076249N0112005N1+02115+02005101295ADDAG10999GA1999+000914999GA2999+007624999GA3999+012194999GD12025+0009099GD23075+0075099GD34085+0120099GD40995+9999999GF108995999999999999999999MA1101291101225MW1615REMAWY008CIG RGD?EQDN01 02000JPWTH 1QNNE11 1 00203E11 1 00409E11 1 00610E11 1 00099G11 1 00025H11 1 99003H11 1 99025H11 1 99040K11 1 00068L11 1 00700M11 1 29890N11 1 02000Q11 1 10129S11 1 00070V11 1 01099X11 1 00000
0067992320999991983022402004+28700-095300FM-18+00034200 V0202201N003019999999N9999999N9+01481+99999101281ADDAG12999OA139900401SA1+1489REMSYN02922200 00148 1//// 333   92104
0107030030999991983041309504+59883-001300FM-15+0005EGPB V0203201N00871036001CN0112001N1+00701+00501999999ADDAG12999GA1011+006009059GA2031+018009059GA3051+036009039MA1101391999999REMMET006NOSIG?EQDQ01+000000PRSWM2
0076603600999991983022112304+36833+007817FM-15+0004DABB V0203601N00151027001CN0112001N1+01501+00701999999ADDAG12999GA1031+012009059GA2031+027009039MA1102101999999EQDQ01+000000PRSWM2
0064011310999991983091812004+67883+013050FM-12+003199999V0200701N00981004201CN0100001N9+01211+01141098731ADDAG12002AY161061GF108991081061004501999999MD1610101+9999MW1611
0050969370999991983081003004-07217+113717FM-12+000399999V0200301N00361220001CN0100001N9+02891+02121101301ADDAG10999AY101031GF101991011011008001001001MW1051
0125410840999991983121703004+19967+042667SY-MT+1163OEBH V0209991C00001220001CN0120001N1+01061+00721999999ADDAG11000AY101031GF100991001001999999001001MD1999999-0111MW1021REMSYN011333   59011MET016CAVOK JPU QPQUV?EQDQ01+000000PRSWM2
0079107430999991983032414454+49400+009967FM-15+0468EDPT V0202701N00921009001CN0112001N1+00801+00401999999ADDAG12002GA1021+006009089GA2041+009009059GA3081+024009049MA1099591999999MW1611
0047032431999991983122013504+55033-001683FM-15+0081EGNT V0201301N00411002101CN0035001N1+00701+00501999999ADDAG12999GA1061+002109079MA1097601999999MW1611
0075533520999991983101912004+41700+110433FM-12+137699999V0209991C00001090001CN0300001N9+00531-00281102721ADDAA106000091AG10000AY101061GF107991001001999999001081MD1210071+9999MW1021
006874754013934198311281100D+31333-092550SAO  +0027KAEX V0202401N003012200019N0112001N1+00501-00211101361ADDAA101000095AG10999GF100991999999999999999999MA1101391999999MW1001
0116724916932171983081212004+36683-121767SAO  +0041OAR  V0209991C00001000601WN0008001N1+01391+01331101521ADDAA106000091AG10000GD15991+0006099GF109991999999999999999999MA1101521999999MD1710051+9999MW1451REMAWY010705 FIRST?
0064301020999991983081903004+58967+101083FM-12+018599999V0201001N00201030001CN0200001N9+99999+99999100601ADDAG11000AY101031GF107991021091012501031011MD1210021+9999MW1021
0078155561999991983110110304+43233+027833FM-15+0083LBWN V0201301N00101012001CN0020001N1+01401+01001999999ADDAG12999GA1051+012009059GA2071+030009039MA1102401999999MW1101REMMET006NOSIG?
0059071500999991983021514304+48967+002450FM-15+0066LFPB V0200601N00611220001CN0090001N1+00401-00201999999ADDAG12000MA1102301999999REMMET006NOSIG?EQDQ01+000000PRSWM2
0058034185999991983072521504+52833-001317FM-15+0095EGNX V0209991C00001999991CY0099001N1+02001+99999999999ADDAG12999MA1101591999999REMMET005CAVOKEQDQ01+000000PRSWM2
0120297590999991983111612004+54333+089283FM-12+084699999V0201401N00201007501CN0039001N9+00241+00051101471ADDAA112999929AG10001AY161061GF108991081051008001999999KA1120M+00621MD1610051+9999MW1681REMSYN023333   10062 69902 95996
0044701940264131983062603004+66567-145267SAO  +0127FYU  V0200501N003619999999N9999999N9+02891+00331999999ADDAG10000MA1101591999999EQDQ01+000002VOVAR 
0075872170999991983061218004-29383-066817FM-12+0431SANL V0209991C00001004201CN0150001N9+00741+00451102461ADDAA106000091AG10999AY101061GF108991051061004501071999MD1710151+9999MW1021
0136855850999991983010700004-33617-078817FM-12+000699999V0209991C00001009001CN0100001N9+01981+01171101821ADDAA106000091AG10999AY101061GA1051+009009089GF105991051021008001001001KA1120M+02041MD1210091+9999MW1021REMSYN023333   10204 56400 85830
0298726785241351983020113003+45950-112500SAO  +1689BTM  V0209995900005015244EN0240005N1-00945-01005102115ADDAG10999GD14995+0150099GD20995+9999999GD30995+9999999GD40995+9999999GF108065999999999999999999MA1101561082835MW1001REMAWY007BINOVC?EQDN01 00000JPWTH 1QNNE11 1 00699E11 1 00099E11 1 00099E11 1 00099G11 1 00050K11 1 00014L11 1 01500M11 1 24460N11 1 00000Q11 1 10211S11 1 00015V11 1 01008X11 1 00000
0075064510999991983122609204+50900+004467FM-15+0039EBBR V0202601N00871220001CN0112001N1+00801+00501999999ADDAG12000GA1041+008409089MA1101291999999REMMET006NOSIG?EQDQ01+000000PRSWM2
0064442720999991983061406004+47750+096850FM-12+175399999V0209991C00001012001CN0200001N9+01191+00881100071ADDAG12001AY161061GF108991081051012501999999MD1810111+9999MW1021
0114524180999991983072406004+40133+094783FM-12+114099999V0209991C00001220001CN0300001N9+03341+01001099481ADDAA106000091AG10000AY101061GF101991011011017501001021KA1240N+01751MD1710231-0401MW1021REMSYN017333   05403 20175
0182726225047421983080600004+44650-073467SAO  +0072PBG  V0209991C000010210019N0080001N1+02501+02001101661ADDAA199000091AG10000GD16991+0001599GD22991+0120099GD33991+0210099GD44991+0360099GF108991999021999999071999MA1101631999999MD1710071+9999MW1051REMAWY031H2 TCU     ?    NW-N/ 707 127/?
0136724270038041983111812004+39350-081433SAO  +0262PKB  V0201601N002012200019N0112001N1+00111+00061101831ADDAA106000091AA224000091AG10000GF100991999999999999999999KA1999N+00001MA1101801999999MD1810031+9999MW1001REMAWY021FEW CU/ 803 32 20000?
0076011830999991983062011504+68500+016683FM-15+0026ENEV V0202301N00611010501CN0112001N1+00701+00301999999ADDAG12000GA1021+006009089GA2051+010509089MA1102301999999EQDQ01+000000PRSWM2
0057723816031591983090811004+34733-118217SAO  +0728WJF  V0202501N005112200019N0480001N1+02111+00831100881ADDAG10999GF100991999999999999999999MA1101151999999MW1001
0092804070999991983101911004+10567-071733FM-15+0066MVMC V0203601N00251075001CN0112001N1+02401+02301999999ADDAG12999GA1021+006009099GA2011+006009059GA3041+075009029MA1100911999999EQDQ01+000000PRSWM2
0095835540999991983011415004-19017-057667FM-12+014099999V0209991C00001007501CN0200001N9+02701+02391100651ADDAA106000091AG10999AY101031GF108991051011008001031011MD1999999-0081MW1021REMSYN011333   59008
029372551014939198301190100C+40850-096750SAO  +0359LNK  V0201305N00675015244EN0192005N1-00335-01175102845ADDAA101000095AG10999GD14995+0150099GD20995+9999999GD30995+9999999GD40995+9999999GF108085999999999999999999MA1102641098345MW1001EQDN01 00000JPWTH 1QNNE11 1 00699E11 1 00099E11 1 00099E11 1 00099G11 1 00050K11 1 00011L11 1 01200M11 1 29040N11 1 00000Q11 1 10284S11 1 00026V11 1 01010X11 1 13013
0095230320999991983022415004+69717+066817FM-12+001199999V0200501N01301030001CN0034001N9-02231-02481100721ADDAG11000AY131031GF107991071001999999051999MD1710361+9999MW1381OA149901801REMSYN011555   91118
0076719560999991983090621004+69900-128967SAO  +0089WRP  V0203101N001519999999N9999999N9+00101+99999101641ADDAG10000MA1101561100501EQDQ01+999990APOSP Q02+999990APOSLPQ03+000002VOVAR 
0143035961999991983121912004+52133+001433FM-15+0026EGVJ V0201801N005610054019N0112001N1+00801+00601999999ADDAA124004091AG12000GA1011+003009079GA2051+005409059GA3051+012009059MA1097971999999OC100971REMMET023CIGM018 20017 WR// WHT?EQDQ01+000000PRSWM2
0131209430999991983073118004+70717+057617FM-12+001499999V0202501N00501220001CN0230001N9+00491+00301100701ADDAA106000091AG14000AY101061GF100991001001999999001001KA1120M+00651MD1410001+9999MW1021OA149900801REMSYN023333   10065 555   91108
0058852010999991983070702004-16500-068183FM-15+4050SLLP V0203601N00201999991CY0099001N1+00301-01401999999ADDAG10999MA1103291999999REMMET005CAVOKEQDQ01+000000PRSWM2
0064583210999991983070621004+31850+117283FM-12+0032ZSOF V0209991C00001090001CN0110001N9+02191+02181999999ADDAG12000AY101031GF107991021001999999041021MD1710011+9999MW1021
0108315270999991983102412004+50117+129467FM-12+024299999V0209991C00001220001CN0200001N9-00291-00911102031ADDAA106000091AG14000AY101061GF100991001001999999001001KA1120M+00371MD1310041+9999MW1021REMSYN011333   10037
0065260635999991983061200004+59800+030300FM-15+0018ULLL V0202801N00301999991CY0099001N1+00901+00801999999ADDAG11000MA1100911999999REMMET012CAVOK NOSIG?EQDQ01+000000PRSWM2
0075115200999991983072600004+50000+014450FM-12+030399999V0209991C00001220001CN0200001N9+01571+01151101921ADDAA106000091AG10000AY101061GF100991001001999999001001MD1210071+9999MW1021
0078275155999991983111607304+55967+037417FM-15+0190UUEE V0201801N00511030001CN0070001N1-00601-01001999999ADDAG12999GA1051+030009039GA2071+060009009MA1099901999999MW1101REMMET006NOSIG?
0064022880999991983060315004+63600+020767FM-12+000699999V0200501N00311030001CN0040001N9+00921+00731100941ADDAG12000AY121031GF108991041091004501071999MD1210091+9999MW1101
0146478080999991983082303004+33583+130450FM-15+0012RJFF V0209991V00251090001CN0112001N1+03201+02001999999ADDAG12000GA1011+010509089GA2071+999999009MA1100411999999REMMET0612965 FCST 0309 18005         ?     9999 2CU035 3AC150 7CI250?EQDQ01+000000PRSWM2
0100109000999991983040621004+47900+007617FM-12+0213EDSG V0202001N00621008401CN0200001N9+00611+00451100611ADDAG12002AY181031GA1081+008409059GF108991081051008001001001MD1210161+9999MW1611REMSYN011333   88628
0044723710999991983041507004+36933-111450SAO  +1304PGA  V0202101N000519999999N9999999N9+00391+99999999999ADDAG10999MA1101591999999EQDQ01+000002VOVAR 
0123718820999991983100720004+50967-118183SAO  +0456YRV  V0209991C000012200019N0240001N1+00501+00201102551ADDAG10999GD12991+0009099GD22991+0180099GF102991999999999999999999MA1102341097101MW1001REMAWY008SF1SC2 ?EQDQ01+999990APOSP 
0076719050999991983061410004+55283-077767SAO  +0026YGW  V0201601N003012200019N0096001N1+02001+01501100631ADDAG10999GF100991999999999999999999MA1100641100431MW1051EQDQ01+999990APOSP 
0188321330999991983122621004+47333+142800FM-12+004299999V0200101N00601001801CN0020001N9-00641-00921102781ADDAA112000591AG10003AJ100639199999999AY181031GA1081+001809079GF108991081091002501999999IA1239KA1120N-00641MD1810021+9999MW1861OA149901101REMSYN041333   21064 88706 555   47063 69952 91111
0064621760999991983070615004+29750+024533FM-12-000199999V0202101N00361220001CN0160001N9+02881+01221101201ADDAG12000AY101031GF103991031011012501001001MD1710171+9999MW1021
0156727871999991983070200004+48533-117883SAO  +057163S  V0209991C00001012601EN0160001N1+01501+01221100501ADDAA106001091AA224002091AG10002GD14991+0126099GF108991999061999999999999KA1999M+01661MA1100511999999MD1710071+9999MW1611REMAWY02670705 16// 62 20007 NOSPL?
0122032150999991983041009004+54767-003317FM-12+006199999V0200701N00211036001CN0250001N9+00301+00171100761ADDAG12000AY101031GA1011+010509059GA2081+036009049GF108991011051012501021999MD1610071+9999MW1021REMSYN017333   81635 88462
0087723190938071983092619004+36133-080233SAO  +0295INT  V0203601N003610750019N0320001N1+01941+00831999999ADDAG10999GD12991+0360099GD23991+0750099GF107991999999999999999999MA1102571999999MW1001
0045411960999991983020308004+25333+055517FM-15+0033OMSJ V0200501N00201999991CY0099001N1+02001+00701999999ADDAG12999MA1102511999999MW1001REMMET005CAVOK
0075701940264131983120706004+66567-145267SY-SA+0127FYU  V0200501N003019999999N9999999N9-02211-02821102541ADDAA106000091AG14000MA1101591999999MD1010001+9999MW1001EQDQ01+000002VOVAR 
0190123750999991983011018004+52183+020983SY-MT+0110EPWA V0202701N01081012001CN0112001N1+00501+00201102111ADDAG12001AY161061GA1031+007809059GA2071+012009059GF107991071051008001999999KA1120M+00501MA1102101999999MD1110121+9999MW1031OC101691REMSYN011333   10050MET013NOSIG 88///5?EQDQ01+000000PRSWM2
0100227620999991983022521004+62867+042717FM-12+002499999V0201501N00101001201CN0045001N9-01131-01261098961ADDAG12001AY181031GA1081+001209079GF108991081091001501999999MD1610011+9999MW1851REMSYN011333   88704
0108574470999991983072806004+30267+109483FM-12+043899999V0202001N00101036001CN0300001N9+02971+02291100411ADDAA106000091AG14000AY101061GF108991011011012501071999KA1240N+02551MD1710041+9999MW1021REMSYN011333   20255
0101747780999991983010913004+30517-086300SAO  +00272EG  V0209991C000010360019N0048001N1+00611+00561999999ADDAG10999GD12991+0090099GD23991+0360099GD33991+0750099GF107991999999999999999999MW1451REMAWY005LAST?
0083372790999991983121200004+42500+041850FM-12+011799999V0202101N001019999999N0010001N9+00961+00921101891ADDAG12000AY101061GF107991999071008001999999MD1210091+9999MW1021EQDQ01+000082SCOTLC
0064224380999991983050809004+65200+036817FM-12+001899999V0202301N00601220001CN0500001N9+00631-00151102231ADDAG11000AY101031GF102991021001999999051001MD1310011+9999MW1021
0136722975931061983080718004+33783-118050SAO  +0011SLI  V0202501N00201045001EN0096001N1+02831+02061101411ADDAA106000091AG10000GD13991+0450099GD23991+0600099GF107991999001999999031011MA1101421999999MD1510001+9999MW1041MW2051REMAWY009500 1031?
0095569540999991983120412004+22567+099933FM-12+105499999V0209991C00001220001CN0150001N9+01231+00751102341ADDAA106000091AG14000AY101061GF100991001001999999001001MD1210091-0201MW1021REMSYN011333   05251
0210768450999991983112518004+16733-092633FM-12+227699999V0200901N00201220001CN0130001N9+01941+01501101441ADDAA106000091AG14000AY101061GA1021+003009089GA2021+010209039GF104991021011004501031001IA1099KA1120M+02001KA2240N+01141MA1999999079661MD1710091+0061MW1021REMSYN047333   10200 20114 31/// 56320 58006 82810 82334
0133080270999991983041112004+43300-002033FM-12+025899999V0203101N01291220001CN0160001N9+00981+00591102191ADDAA106001091AG10003AY181061GA1011+003009099GA2021+003609089GF103991021091004501041001MD1110151+9999MW1011REMSYN017333   81910 82812
0119072830999991983061715004+47833+005317SY-MT+046499999V0200401N00621220001CN0150001N1+01511+00121102311ADDAG12000AY101031GA1021+007509089GF104991031081008001001011MD1810061+9999MW1021REMSYN011333   82825EQDQ01+000000PRSWM2
0103724060937211983120701014+39183-076667SAOSP+0047BWI  V0202801N00661006601MN0240001N1+99999+99999999999ADDAG10999GD13991+0066099GD24991+0120099GF108991999999999999999999MA1099261999999MW1001REMAWY007PRESRR?
0058123300999991983051213304+52417+016833FM-15+0092EPPO V0202201N00511999991CY0099001N1+02001+00401999999ADDAG12999MA1100611999999REMMET005CAVOKEQDQ01+000000PRSWM2
0112221330999991983121612004+68783+037300FM-12+006499999V0202101N01001220001CN0200001N9-00811-00911101361ADDAG12002AY181061GF107991001001999999001011MD1310041+9999MW1021OA149901401OA259901201REMSYN017555   91114 91212
0100330270999991983111812004+52217+027883FM-12+013899999V0202401N00301030001CN0060001N9-00161-00611101731ADDAG12002AY181061GA1021+008109099GF106991021091008001031001MD1410001+9999MW1011REMSYN011333   82927
0080014770999991983031615004+59667+009650FM-12+017199999V0202101N00101001201CN0020001N9+00261+00131101411ADDAG11000AY121031GA1091+999999999GF109991091999999999999999MD1210011+9999MW1101
0106717050999991983091305004+46117-064683SAO  +0076YQM  V0203401N00251045001EN0240001N1+01401+01201101301ADDAG10999GD14991+0450099GF108991999999999999999999MA1101321100471MW1001REMAWY006AS10 ?EQDQ01+999990APOSP 
0091404453999991983012814004+24433+054650FM-15+0027OMAA V0200101N00511220001CN0112001N1+01801+00801999999ADDAG12999GA1011+010509089GA2041+024009039MA1101901999999REMMET006NOSIG?EQDQ01+000000PRSWM2
0174030630999991983031218004+57200-003833FM-12+022099999V0202101N01031007501CN0250001N9+00701+00441101431ADDAA199999929AG10000AY101061GA1021+004509079GA2061+007509059GA3081+030009039GF108991071051004501071999KA1120M+00801MD1710101+9999MW1021REMSYN029333   10080 82715 86625 88360
0144031350999991983053102004+55500-004583FM-12+0020EGPK V0200601N00361012001CN0180001N9+00951+00671101071ADDAG11999AY101021GA1011+003609079GA2041+006609059GA3051+012009059GF108991061051004501021999MD1510011+9999MW1021REMSYN023333   81712 84622 85640
0072722673999991983120321004+33717-096667SAO  +0228F39  V0202901N00561002401EN0112001N1+00891+00671999999ADDAG10000GD14991+0024099GF108991999999999999999999MA1100811999999MW1001
006972597524235198310290400C+42617-123367SAO  +1169SXT  V0201901N004619999999N9999999N9+01445+00501999999ADDAA101000095AG10999MA1101591999999EQDQ01+000002VOVAR QNNS11 1 00058
044972306013722198302220900C+35867-078783SAO  +0127RDU  V0202205N00155076204EN0160005N1+00505-00175102135ADDAA101000095AG10000GA1999+076204024GA2999+999999999GA3999+999999999GA4999+999999999GD14085+0750099GD20005+9999999GD30005+9999999GD40005+9999999GF108065999001999999001991MA1102131100515MD1710141+9999MW1001REMAWY009714 1007?EQDQ01+999990APOSP N01 00000JPWTH 1QNNE11 1 00610E11 1 00000E11 1 00000E11 1 00000G11 1 00250H11 1 37250H11 1 00999H11 1 00999H11 1 00999K11 1 00029L11 1 01000M11 1 29680N11 1 00000Q11 1 10213S11 1 00041V11 1 01008X11 1 22003
0050486010999991983102209004+05300+100267FM-12+0003WMKP V0202001N00311045001CN0200001N9+02871+02381100701ADDAG12000AY101031GF106991021091004501031021MW1021
0120727575949251983021921004+47967-097400SAO  +0278RDR  V0203501N00561002101MN0080001N1-00431-00661101621ADDAG10001GD14991+0021099GF108991999061999999999999MA1101461999999MD1210321+9999MW1451MW2661REMAWY019232 16// IR14P WET?
0091024600999991983060500504+59650+017950FM-15+0061ESSA V0201201N00251001201CN0112001N1+00901+00801999999ADDAG11999GA1031+000909079GA2071+001209079MA1101591999999REMMET006NOSIG?EQDQ01+000000PRSWM2
0082858920999991983100312004-47233-072583FM-12+0182SCHR V0201801N01031220001CN0300001N9+00701-00521100721ADDAA106000091AG10999GF102991021011012501031001EQDQ01+000022APCTENQ02+000002APC3  
0064170500999991983021803004+41667+026567FM-12+004899999V0203601N00571220001CN0200001N9-00581-01171101791ADDAG11000AY101031GF100991001001999999001001MD1210091+9999MW1021
0060602500999991983111122304+30383-009567FM-15+0019GMAA V0200601N00301220001CN0080001N1+01601+01501999999ADDAG12999GA1021+006009089MA1101801999999EQDQ01+000000PRSWM2
0064091620999991983012315004+53633+011417FM-12+006899999V0203001N00401007501CN0100001N9+00411-00051103541ADDAG11000AY101031GF108991081051008001999999MD1110041+9999MW1021
0119093850999991983090817004+52383+013517SY-MT+0047ETBS V0202401N00201220001CN0099001N1+01401+00501101301ADDAG12999AY101021GF101991011001999999041011MA1101191999999MD1810121+9999MW1021REMMET012CAVOK NOSIG?EQDQ01+000000PRSWM2
0072726415999991983011622004+42617-089033SAO  +0246JVL  V0202801N00411003001WN0048001N1+99999+99999999999ADDAG10999GD15991+0030099GF109991999999999999999999MA1101151999999MW1711
0122724175999991983070416004+39283-080233SAO  +0366CKB  V0201401N004610090019N0040001N1+02061+02061999999ADDAG10999GD12991+0024099GD23991+0090099GD34991+0300099GF108991999999999999999999MA1101861999999MW1171REMAWY011OCNL LTGCC?
0229846580999991983012421004-12583-069200SY-MT+0265SPTU V0209991C00001001201CN0020001N1+02651+02521101161ADDAA124999999AG10999AY161031GA1051+001209049GA2021+004509059GA3011+021009049GF108991071071001501021999MA1100711999999MD1999999+0031MW1631REMSYN029333   58003 85504 82615 81457MET028RA EMPEZO        ?     2025?EQDQ01  00002PRCP24
0120981350999991983100806004+20450+121967FM-12+0010RPUO V0200401N00101220001CN0250001N9+03121+02821100891ADDAA106000091AG14000AY141061GF103991031021008001001001MD1810201+9999MW1051UA1M010059999REMSYN023222// 20101 333   56199
0075600010999991983042114004+27817-017883FM-15+0030GCHI V0200301N00511220001CN0112001N1+02101+01401999999ADDAG12999GA1031+009009089MA1102301999999REMMET006NOSIG?EQDQ01+000000PRSWM2
0304703410255071983100820003+59633-151500SAO  +0027HOM  V0200105N00155027434EN0480005N1+00395-00615101825ADDAG10999GD13995+0270099GD24995+0360099GD30995+9999999GD40995+9999999GF108065999999999999999999MA1101831101565MW1001REMAWY013BINOVC     ??EQDN01 00000JPWTH 1QNNE11 1 00499E11 1 00699E11 1 00099E11 1 00099G11 1 00090K11 1 00021L11 1 03000M11 1 29990N11 1 00000Q11 1 10182S11 1 00039V11 1 01008X11 1 01003
0122064580999991983030214004+50750+004767FM-12+0127EBBE V0201301N00261010501CN0100001N9+00511+00071103141ADDAG11999AY101021GA1031+006909089GA2031+010509059GF105991051081008001001001MD1210121+9999MW1021REMSYN017333   83823 83635
0293084490130251983021511005+36650-006350SAO  +0027LERT V0200305N003650030549N004800599+00785+00285101495ADDGA1999+003054064GA2999+021344044GA3999+027434034GD19055+9999999GD29025+9999999GD39015+9999999MA1999999101155MW1055EQDN01 08100JPWTH 1QNNE11 1 09906E11 1 09903E11 1 09901G11 1 00010H11 1 15010H11 1 21070H11 1 23090K11 1 00037L11 1 00300M11 1 29870N11 1 08100Q11 1 10149S11 1 00046X11 1 03007
0076151455999991983122505454+46467+024417FM-15+0306LRTM V0200901N00201000601CN0001001N1+00101+00101999999ADDAG12000ED199U00919GA1091+000609999MA1102301999999MW1451REMMET00907290095?
0076702590265231983042213004+60567-151250SAO  +0027ENA  V0209991C000012200019N0240001N1+00061-00161101581ADDAG10999GD12991+0270099GF102991999999999999999999MW1001EQDQ01+029303APOA  
0058403570999991983051814004+30967+040983FM-15+0539OEBD V0202201N00411999991CY0099001N1+03501-00101999999ADDAG12999MA1100811999999REMMET005CAVOKEQDQ01+000000PRSWM2
0072723190938071983041903004+36133-080233SAO  +0295INT  V0203101N003612200019N0240001N1+00331+00171999999ADDAG10000GD12991+0150099GF102991999999999999999999MA1100511999999MW1001
0079529570999991983070209004+35267+100650FM-12+329099999V0202201N00501090001CN0300001N9+01481+00181999999ADDAG12002AY101031GF107991021091008001001021MA1999999068021MD1710111+9999MW1141
0072067000999991983011006164+46250+006133FM-15+0416LSGG V0202301N00151003001CN0112001N1-00301-00401999999ADDAG12000GA1071+003009079MA1104001999999MW1101REMMET016NOSIG? (100550)?
0058029440999991983111712204+61417+023583FM-15+0112EFTP V0202201N00101999991CY0099001N1-00701-01101999999ADDAG12000MA1101021999999REMMET005CAVOKEQDQ01+000000PRSWM2
056072562024023198307270000C+41133-100683SY-SA+0846LBF  V0201505N008250762049N0240005N1+03115+01785100805ADDAA101000095AA206000091AG14000AY101061GA1999+015244094GA2999+076204024GA3999+999999999GA4999+999999999GD12025+0150099GD23045+0750099GD30005+9999999GD40005+9999999GF106065021091017501001991KA1120M+03231KA2180N+01521MA1101081091335MD1710241+9999MW1021REMSYN017333   10323 20152AWY052CB SW-NW MOVG E/       ?    724 1908 90 RADAT 74153?EQDQ01+000003PRSWM2N01 00000JPWTH 1QNNE11 1 00203E11 1 00405E11 1 00000E11 1 00000G11 1 00250H11 1 18050H11 1 37250H11 1 00999H11 1 00999K11 1 00064L11 1 01500M11 1 26970N11 1 00000Q11 1 10080S11 1 00088V11 1 00807X11 1 15016
0064580400999991983110603004+34833+119133FM-12+000399999V0200401N00201220001CN0150001N9+01621+00931102461ADDAG12000AY101031GF100991001001999999001001MD1210021+9999MW1021
0064544540999991983100521004+40300+120350FM-12+001899999V0209991C00001220001CN0300001N9+00481+00221102051ADDAG11000AY101031GF100991001001999999001001MD1710101+9999MW1021
0064338890999991983030112004+45367+028867FM-12+003099999V0200901N00801004201CN0042001N9+00291+00021102331ADDAG11000AY141061GF108991081061004501999999MD1210191+9999MW1101
0144033020999991983100707004+53250-004533FM-12+0011EGOV V0203601N00151005401CN0250001N9+01161+01021101611ADDAG12999AY121011GA1021+004209089GA2061+005409089GA3071+012009059GF107991071081004501999999MD1210111+9999MW1801REMSYN023333   82814 86818 87640
0071726406999991983082520004+42583-087750SMARS+022316C  V0202001N002519999999N0111001N9+02881+99999102301ADDAG10999GF107991999999999999999999MW1051REMSYN020M     M     KENOSHA?
0061944800999991983061311004-37883+145967FM-12+023699999V0201401N00261220001CN0500001N9+00891+99999103061ADDAA106000091AG10999AY101999GF100991001001999999001001MW1011
028099999911641198310080200E+18433-066000SAO  +000399999V0201105N003152200059N019200599+02675+02285101525ADDAA101002395GD12995+9999999GD22995+9999999GD30995+9999999GD40995+9999999GF103035999999999999999999MA1999999101295EQDN01 00000JPWTH 1QNNE11 1 00299E11 1 00299E11 1 00099E11 1 00099G11U1 99999K11 1 00073L11 1 01200M11 1 29910N11 1 00000Q11 1 10152S11 1 00080V11 1 00404X11 1 11006
0135065900999991983100723004+49617+006217FM-12+0379ELLX V0202201N00211015001CN0150001N9+01031+00671102101ADDAG12999AY101021GA1051+015009059GF105991051051999999999001MD1710091+9999MW1021REMSYN011333   85650EQDQ01+000992SCOLCBQ02    003SCOMCG
0064283210999991983071100004+57717+055383FM-12+012199999V0209991C00001220001CN0140001N9+01571+01511101701ADDAG11000AY101061GF100991001001999999001001MD1410001+9999MW1021
0091076460999991983051816004+43750+004417FM-15+0094LFTW V0201801N00921220001CN0112001N1+02001+00801999999ADDAG12999GA1021+009909089GA2031+069009009MA1101391999999REMMET006NOSIG?EQDQ01+000000PRSWM2
0116999999999991983021003004-51300+139000FM-13+9999SHIP V0202701N00621220001CN0200001N9+00841+00531098611ADDAG10999AY181031GF103991011021008001031001MD1610021+9999MW1151SA1+0769UG1080202709REMSYN02322253 00076 327/0 40804
0080077540999991983071205004+42533+008800FM-15+0058LFKC V0202201N00101220001CN0008001N1+02001+01701999999ADDAG11999GA1011+069009009MA1101491999999REMMET011(120500) -?EQDQ01+000000PRSWM2
0134600300999991983051609004+27933-015383SY-MT+0025GCLP V0200201N00921007501CN0112001N1+01801+00601102111ADDAG12000AY101031GA1061+007509089GF106991061081008001999999MA1102101999999MD1310121+9999MW1021REMSYN011333   91837EQDQ01+000000PRSWM2
0108380910999991983013106004+44800+071067FM-12+026699999V0201001N00501090001CN0200001N9-00541-00831102171ADDAA106000091AG10000AY101061GF108991001001999999001021KA1120N-01371MD1710041+9999MW1021REMSYN011333   21137
0046616410999991983012207004+14733-017500FM-15+0027GOOY V0200201N00611220001CN0080001N1+02001+01701999999ADDAG12999MA1101391999999MW1101REMMET006NOSIG?
0137745090232441983121116304+37417-122050SAOSP+0012NUQ  V0201801N006110075019N0112001N1+99999+99999999999ADDAG10999GD12991+0012099GD22991+0045099GD33991+0075099GD44991+0150099GF108991999999999999999999MA1101151999999MW1611REMAWY011VSBY LWR E?
0359724585939971983022010003+38867-098817SAO  +0568RSL  V0202605N00525015244EN0048005N1+00725+00615100975ADDAG10999GD14995+0150099GD20995+9999999GD30995+9999999GD40995+9999999GF108085999999999999999999MA1100981094345MW1455MW2805MW3955REMAWY029TB45RB30 W MOVG E OCNL LTGIC?EQDN01 01023JPWTH 1N02 07000JPWTH 1QNNE11 1 00699E11 1 00099E11 1 00099E11 1 00099G11 1 00050K11 1 00043L11 1 00300M11 1 27860N11 1 01023N11 1 07000Q11 1 10097S11 1 00045V11 1 01010X11 1 26010
0061467400999991983121701004+22567+120350FM-15+0008RCKH V0203601N00201220001CN0030001N1+02101+01401999999ADDAG11999GA1011+003009059MA1101901999999MW1051REMMET0053009?
051772533014827198303070000C+41000-085200SY-SA+0241FWA  V0202305N00215010064MN0112005N1+01445+01005100575ADDAA101000595AA206000591AA324001091AG10010AY121999GA1999+010064094GA2999+024384034GD13065+0099099GD24085+0240099GD30995+9999999GD40995+9999999GF108085061091012501071999MA1100581097605MD1310101+9999MW1805MW2955REMSYN041333   10222 20133 70008 90510 555   HIXDAAWY06431002 197/ 72          ?    RB25 TB25 NE MOVG NE OCNL LITGIC NE?EQDN01 01023JPWTH 1QNNE11 1 00407E11 1 00610E11 1 00099E11 1 00099G11 1 00033H11 1 18033H11 1 23080K11 1 00050L11 1 00700M11 1 28820N11 1 01023Q11 1 10057S11 1 00058V11 1 01010X11 1 23004
0122607750999991983021106004+32317+010400FM-12+030199999V0202501N00871220001CN0100001N9+00781-00291101011ADDAA106000091AG14000GA1031+060009009GF103991001001999999001021KA1120N+00781MD1210251+9999REMSYN023333   20078 83070 95139
0078161050999991983082516504+45500+012333FM-15+0002LIPZ V0201001N00301027001CN0090001N1+02201+01901999999ADDAG12999GA1031+009009089GA2031+027009039MA1101191999999MW1101REMMET006NOSIG?
061372243012960198309130000C+29967-095350SY-SA+0029IAH  V0203105N002152200059N0160005N1+02835+02445101175ADDAA101000095AA206006092AA324005692AC13I9AG10004AY181061GA1999+010674094GA2999+030484034GA3999+076204004GA4999+999999999GD12015+0105099GD22025+0300099GD32999+0750099GD40005+9999999GF103035011091012501061991KA1120M+03151KA2180N+02251MA1101191100815MD1510001+9999MW1011REMSYN053333   10315 20225 70056 90535 555   1080  08807220026AWY036CB DSNT E/ 50022       ?    1963 89?EQDQ01+000003PRSWM2N01 00000JPWTH 1P01    003SCCGD3QNNE11 1 00201E11 1 00203E11 1 00200E11 1 00000G11U1 99999H11 1 18035H11 1 23100H11 1 32250H11 1 00999K11 1 00076L11 1 01000M11 1 29770N11 1 00000Q11 1 10117S11 1 00083V11 1 00404X11 1 31004
0265718890999991983022400004+49467-119600SY-SA+0342YYF  V0203501N002010090019N0128001N1+00701+00501100761ADDAA106000091AA224002691AG14000AY101061GD12991+0024099GD22991+0054099GD33991+0090099GD43991+0300099GF107991061051002501071001KA1120M+00711KA2180N+00451MA1100681096631MD1610091+9999MW1021REMSYN023333   10071 20045 70026AWY021SF1SF2SC4AC2 K 6009 ?EQDQ01+000003PRSWM2
0160315520999991983112321004+50867+136050FM-12+031499999V0209999999999030001CN0500001N9+99999+99999100351ADDAA106000091AA224000091AG14000AJ100959199999999AY101031GF108991081001999999021999IA1239KA1120N-01811MD1710011+9999MW1021REMSYN029333   21181 555   47095 7000/
050772572024127198301220900C+40783-111950SAO  +1286SLC  V0200705N002650042749N0048005N1+00065-00115101675ADDAA101000395AG10001GA1999+999999104GA2999+002134074GA3999+004274074GA4999+009754054GD16025+0001599GD22999+0021099GD33045+0042099GD44085+0096099GF108085999071999999021999MA1101591087035MD1510001+9999MW1455MW2715REMAWY029S3         ?    / 50001 172/?EQDQ01+999990APOSP Q02  00033PRCP99N01 04070JPWTH 1P01    003SCCGD2QNNE11 1 00803E11 1 00200E11 1 00405E11 1 00610G11 1 00014H11 1 98999H11 1 16007H11 1 16014H11 1 22032K11 1 00030L11 1 00300M11 1 25700N11 1 04070Q11 1 10167S11 1 00033V11 1 01010X11 1 07005
0058128390999991983123021304+47433+019233FM-15+0152LHBP V0202001N00201000301CN0002001N1+00201+00201999999ADDAG12999ED113U03969GA1091+000309999MA1101901999999MW1511
0110700637274061983011821004+70200-148467SAO  +0015SCC  V0202901N001012200019N0032001N1-04711+99999999999ADDAG10000GD16991+0001599GD24991+0009093GF108991999999999999999999MA1102611999999MW1451REMAWY014IF3 VSBY N3/4?
0047783570999991983121517004+20950-076950FM-15+0088MUVT V0201301N00511220001CN0090001N1+03001+02601999999ADDAG12999GA1041+007509089MA1101691999999MW1061
0122488550999991983071800004+16033+108183FM-12+000799999V0209991C00001012001CN0100001N9+02561+02481100242ADDAG12003AY161061GF108991081081008001001001KA1120N+02561MD1999999+0261MW1601REMSYN017333   20256 58026EQDQ01+100243APOSLP
0119727675940111983011221004+48417-101350SAO  +0508MIB  V0202901N006112200019N0240001N1+00441-00161101161ADDAG10000GD12991+0240099GD22991+0600093GF102991999001999999071011MA1100951999999MD1210071+9999MW1001REMAWY009207 1071?
0070745950999991983082700004+38333-075083SMARS+0005W30  V0201401N00461220001CN0148001N9+02491+99999102671ADDAG10999GF101991999999999999999999MW1001SA1+2279REMSYN011OCEAN CITY?
0066165390999991983112910164+39750+008467FM-16+0091LIEF V0203301N02051004501CN0080001N1+99999+99999999999ADDAG12999GA1071+004509089MW1101OC102831REMMET017BKN VIS MAR 8 KM?
0057725377148041983091505004+42617-082833SAO  +0177MTC  V0209991C000012200019N0320001N1+00941+00611102471ADDAG10999GF100991999999999999999999MA1102471999999MW1001
0044701940264131983021409004+66567-145267SAO  +0127FYU  V0200601N001519999999N9999999N9-03051-03491999999ADDAG10000MA1101591999999EQDQ01+000002VOVAR 
0086766131999991983062622004+20517-103317SAO  +1526GDL  V0202101N020519999999N9999999N9+99999+99999999999ADDAG10999GF199999999051999999071001MA1100982999999EQDQ01+029823APOA  Q02+000002VOVAR 
0106108150999991983010220004+48450+008417FM-12+079799999V0202401N00211000301CN0001001N9+00011-00021999999ADDAG12999AY171021GA1091+000309999GF109991091999999999999999MD1010041+9999MW1471REMSYN017333   89/01 90469
0102724917232331983111704004+36667-121600SAO  +0023SNS  V0200901N003010120019N0240001N1+01671+01561101571ADDAG10999GD12991+0060099GD23991+0120099GD34991+0240099GF108991999999999999999999MA1101561999999MW1001
0145727846241601983042612004+46100-118283SAO  +0367ALW  V0201601N005110135019N0320001N1+00831+00331101251ADDAA106999929AG10002GD12991+0090099GD23991+0135099GD34991+0240099GF108991999999999999999999MA1101251999999MD1110031+9999MW1611REMAWY00910300 47?
0098722025128491983092906004+26067-080150SAO  +0003FLL  V0209991C000012200019N0160001N1+02221+02061999999ADDAA106000091AG10000GD12991+0075099GD22991+0240099GF102991999999999999999999MA1101461999999MW1001
0057702550265141983021002004+61967-151200SAO  +0048SKW  V0200201N001512200019N0960001N1-00771-01381999999ADDAG10999GF100991999999999999999999MA1100001999999MW1001
0061969330999991983090718004-07217+112717FM-12+0003WRSP V0202301N00151220001CN0080001N9+02361+02011101061ADDAA106000091AG10999AY101061GF100991001001999999001001MW1021
0061967910999991983101906004-06750+108267FM-12+005099999V0201201N00361045001CN0100001N9+03561+02281100761ADDAA106000091AG10999AY101061GF107991041021004501031011MW1021
0081160800999991983013112504+45433+009283FM-15+0107LIMM V0202301N00771999991CY0099001N1+01201+99999999999ADDAG12999MA1101591999999REMMET012CAVOK NOSIG?EQDQ01+028023ATOD  Q02+000000PRSWM2
0080992230999991983072419004+45300-082800FM-18+00034500 V0202901N006019999999N9999999N9+01981+99999101231ADDAG12999OA139900701SA1+1939UA1I040059999REMSYN02922200 00193 10401 333   92107
0061992190999991983060104004+50900-135900FM-18+00034600 V0203201N009019999999N9999999N9+00901+99999102391ADDAG12999OA139901101SA1+0899REMSYN02322200 00089 333   92111
0060107140999991983020218004+49217-007400FM-15+0345EDAM V0202601N00411220001CN0112001N1+00101-00401999999ADDAG12000GA1011+009009059MA1102711999999MW1001REMMET004BLU?
0135999999999991983091221004+49500+170900FM-13+9999JBMS V0209999999999220001CN0200001N9+00951+00321102501ADDAG12000AY111031GF104991041041012501001001MD1210281+9999MW1021SA1+1009UA1M060159999UG1080309999REMSYN02922264 00100 20603 300// 40806
0309725485149401983101203003+43150-093333SAO  +0364MCW  V0203005N00625024384EN0240005N1+00615-00065101535ADDAG10000GD14995+0240099GD20995+9999999GD30995+9999999GD40995+9999999GF108085999999999999999999MA1101491097095MD1310101+9999MW1001REMAWY004310?EQDN01 00000JPWTH 1QNNE11 1 00699E11 1 00099E11 1 00099E11 1 00099G11 1 00080K11 1 00031L11 1 01500M11 1 28670N11 1 00000Q11 1 10153S11 1 00043V11 1 01010X11 1 30012
0275722516129281983032620003+27500-097817SAO  +0017NQI  V0203105N004652200059N0160005N1+02565-00335100895ADDAG10999GD10995+9999999GD20995+9999999GD30995+9999999GF100995999999999999999999MA1100851100685MW1001OC100971EQDN01 00000JPWTH 1QNNE11 1 00099E11 1 00099E11 1 00099E11 1 00099G11U1 99999K11 1 00026L11 1 01000M11 1 29730N11 1 00000Q11 1 10089S11 1 00078V11 1 00099X11 1 31009
0064314820999991983112615004+51717+135900FM-12+013199999V0209991C00001220001CN0200001N9-02741-02851101371ADDAG12000AY101031GF100991001001999999001001MD1210051+9999MW1021
0160109610999991983123117004+47417+010983FM-12+296099999V0203201N00721220001CN0750001N9-00941-01181999999ADDAG11999AY101021GA1011+003009059GF101991011051004501041011GG1019017009069099GG2039014009069049MD1310041+9999MW1021REMSYN035333   81610 96880 444   16179 36144
0110722215138841983102206004+30783-086517SAO  +0056CEW  V0201001N00201003901MN0112001N1+02171+01891101921ADDAA106000091AG10000GD13991+0039099GD24991+0300099GF108991999999999999999999MA1101931999999MW1001REMAWY00382?
0119718935999991983020102004+49850-124500SAO  +0130YPW  V0209991C000012200019N0320001N1+00401+00401101871ADDAG10999GD12991+0750099GF102991999999999999999999MA1101801999999MD1010001+9999MW1001REMAWY024CI1 WBP WND 0000 TR CI ?
0060821930999991983032107004-01383-048483FM-15+0016SBBE V0209991C00001030001CN0112001N1+02501+02401999999ADDAG10999GA1061+030009039MA1100911999999EQDQ01+000000PRSWM2
0044722710930451983012401004+33233-107267SAO  +1481TCS  V0201401N000519999999N9999999N9+00721-00211999999ADDAG10999MA1101591999999EQDQ01+000002VOVAR 
0135999999999991983110518004-07800-034600FM-13+9999NBAD V0200701N00511220001CN0200001N9+02941+02331101301ADDAG10999AY101061GF101991011021008001001001MD1710201+9999MW1021SA1+2619UA1M020109999UG1040101009REMSYN02922242 00261 20202 310// 40402
0087724917232331983040220004+36667-121600SAO  +0023SNS  V0202801N007212200019N0640001N1+01671+00671102291ADDAG10999GD12991+0075099GD22991+0750099GF102991999999999999999999MA1102271999999MW1001
0060084950999991983051120004+36150-005350FM-15+0005LXGB V0202501N00661220001CN0112001N1+01701+01101999999ADDAG12999GA1011+007509059MA1101391999999EQDQ01+000000PRSWM2
0094949330999991983071611004-37567+149917FM-12+001599999V0203201N00411220001CN0200001N9+00981+00881102721ADDAA106000091AG10999AY101051GF100991001001999999001001MD1210111+9999MW1021EQDQ01+000022SCOTCV
0091062400999991983051220254+52300+004767FM-15-0004EHAM V0202101N00661013501CN0112001N1+01101+00801999999ADDAG12999GA1011+007509089GA2051+013509059MA1099801999999REMMET006NOSIG?EQDQ01+000000PRSWM2
0135999999999991983030318004+51400-147200FM-13+9999JPZD V0201801N01081220001CN0200001N9+00501+00281100601ADDAG12000AY101061GF102991021011004501001001MD1710101+9999MW1021SA1+0809UA1M050159999UG1050152509REMSYN02922274 00080 20503 325// 40503
0064093610999991983102616004+52100+011583FM-12+0085ETMG V0202601N00501004201CN0035001N9+01101+00671102461ADDAG12999AY101011GF108991081051004501999999MD1310071+9999MW1021
0072726355999991983022015004+42133-086433SAO  +0196BEH  V0201601N003012200019N0112001N1+00831+00111999999ADDAG10000GD13991+0750093GF107991999999999999999999MA1102301999999MW1001
0100467340999991983060818004+23567+119617FM-15+0031RCQC V0201801N003010135019N0112001N1+02501+02401999999ADDAG12000GA1021+003609079GA2051+013509059MA1101021999999REMMET0152985INS CIG045?EQDQ01+000000PRSWM2
0075071570999991983101812304+49033+002533FM-15+0109LFPG V0202401N00611006301CN0112001N1+01501+01201999999ADDAG12999GA1071+006309059MA1102301999999REMMET006NOSIG?EQDQ01+000000PRSWM2
0158637560999991983120118004-02467+032917FM-12+1140HTMW V0203501N00101220001CN0400001N9+02161+01901999999ADDAA106000091AG10999AY101061GA1011+006009059GA2011+006309099GF101991011091008001031011KA1120M+03191MD1999999+0041MW1021REMSYN029333   10319 58004 81620 81921
0132121200999991983090706004+54750+017533FM-12+000299999V0202101N01001004201CN0200001N9+00871+00801100421ADDAA106019091AG10002AY181061GF105991051091004501999999IA1099IA2999+00709KA1120N+00761MD1810051+9999MW1011REMSYN017333   20076 31007
0092992740999991983041016004+40800-124500FM-18+00034602 V0201301N002019999999N9999999N9+00781+99999102121ADDAG12999OA139900301SA1+1119UA1I110259999REMSYN04122200 00111 11105 333   92103 92512 92602
0108061800999991983040217204+55633+012667FM-15+0005EKCH V0200201N00661001801CN0080001N1+00301+00201999999ADDAG12999GA1051+001809079GA2071+003909059MA1099391999999MW1631REMMET036GRADU 3ST006 7SC012          ?     ?
0106637140999991983122709004-00267+036067FM-12+1872HKNK V0203601N00151220001CN0400001N9+02151+01171999999ADDAG10999AY121031GA1041+007509089GF104991041021008001031001MD1999999-0171MW1011REMSYN017333   59017 84825
0064581500999991983040903004+33767+120250FM-12+000399999V0200701N00301007501CN0090001N9+01371+01291100781ADDAG12000AY101031GF108991081051008001999999MD1410001+9999MW1101
0062072400999991983102810004+47450+000717FM-15+0108LFOT V0200401N00301002401CN0045001N1+00601+00401999999ADDAG12999GA1081+002409079MA1102201999999MW1101REMMET006NOSIG?
0046162890999991983100503504+40883+014300FM-15+0072LIRN V0209991C00001220001CN0018001N1+01301+01201999999ADDAG12999MA1102711999999MW1111REMMET006NOSIG?
