0098727935242341984080712004+47533-122300SAO  +0005BFI  V0201501N002612200019N0112001N1+01561+01111999999ADDAA106000091AG10000GD12991+0300099GD22991+0600099GF102991999999999999999999MA1102171999999MW1001
0097285740999991984122315004+55800+068317FM-12+012999999V0203401N00201075001CN0500001N9-01281-01711104351ADDAG11000AY101031GF106991001001999999001021KA1120M-01041MD1410001+9999MW1021REMSYN011333   11104
0064307450999991984010518004+52533+111550FM-12+095299999V0201801N00201220001CN0500001N9-02661-02831104211ADDAG12000AY101061GF100991001001999999001001MD1210011+9999MW1021
0085162890999991984020921104+40883+014300FM-15+0072LIRN V0203301N00261220001CN0112001N1+00601+00001999999ADDAG12000GA1021+007509089MA1100001999999REMMET016NOSIG? (092050)?EQDQ01+000000PRSWM2
0106718640999991984091214004+50333-105550SAO  +0577YMJ  V0202301N00361001501MN0160001N1+00701+00601100751ADDAG10999GD14991+0015099GF108991999999999999999999MA1100611093911MW1001REMAWY006ST10 ?EQDQ01+999990APOSP 
0127999999999991984120600004+14800-072800FM-13+9999USWB V0200601N013019999999N0200001N9+02701+99999101451ADDAG11000AY101061GA1091+999999999GF109991091999999999999999MD1210061+9999MW1021SA1+2749UA1M080309999REMSYN01722211 00274 20806
0058787920999991984040708004+09083-079367FM-15+0041MPTO V0209991C00001999991CY0099001N1+02101+02001999999ADDAG12999MA1100911999999REMMET005CAVOKEQDQ01+000000PRSWM2
0085067000999991984071919164+46250+006133FM-15+0416LSGG V0200201N00311220001CN0112001N1+02301+00901999999ADDAG12999GA1011+018009059MA1101801999999REMMET016NOSIG? (191850)?EQDQ01+000000PRSWM2
0100400220999991984121409004+35500+035783FM-12+0021OSLK V0202501N00361009001CN0150001N9+01221+00421102051ADDAG12000AY101031GA1051+009009059GF105991051041008001001001MD1210181+9999MW1021REMSYN011333   85630
0058108530999991984042401504+48717+011217FM-15+0380EDSU V0200201N00101220001CN0112001N1+00601-00301999999ADDAG11999MA1102401999999REMMET005BLU+?EQDQ01+000000PRSWM2
0061972300999991984012518004-08750+115167FM-12+0001WRRR V0209991C00001045001CN0100001N9+02491+02241100861ADDAA106006091AG10999AY161061GF105991031021008001031011MW1211
0116722860231191984081603004+33883-117267SAO  +0469RIV  V0203001N001512200019N0240001N1+02671+01671101211ADDAG10000GD12991+0300099GF102991999001999999071001MA1101391999999MD1310101+9999MW1001REMAWY021CB MOVD NE/ 310 1070?
0192154200999991984122106004+44500+026133SY-MT+0094LRBS V0209991C00001000601CN0005001N1+00231+00231102751ADDAA199999929AG10000AY141061ED199U02749GA1081+000609079GF108991081061004501999999IA1099IA2120+00209KA1120N+00201MA1102811101621MD1710101+9999MW1461MW2511REMSYN017333   20020 31002MET006NOSIG?
0084039600999991984051302004+52667-007267FM-12+006399999V0209991C00001220001CN0300001N9-00031-00181103211ADDAG12999AY101021GF100991001001999999001001MD1710041+9999MW1021REMSYN011333   92001
0097026360999991984072406504+55550+013367FM-15+0106ESMS V0203201N00361003901CN0080001N1+01501+01401999999ADDAG12999GA1021+002109079GA2031+003909089MA1101691999999MW1101REMMET025GRADU 99995CU020       ??
039670231026510198401302100C+62967-155617SAO  +0105MCG  V0201105N002150070159N0032005N1-01725-02225099545ADDAA101000395AA299000591AG10001AJ100459199999999GA1999+000005105GA2999+007015065GD16015+0001599GD24085+0069099GF108085999051999999999999MA1099421098215MD1210171+9999MW1715REMAWY034S1 10SC 21702 15//     ?    90418?EQDQ01+999990APOSP N01 04000JPWTH 0QNNE11 0 00801E11 0 00610G11 0 00023H11 0 70000H11 0 15023K11 0-00008L11 0 00200M11 0 29000N11 0 04000Q11 0 09954S11 0 00001V11 0 01010X11 0 11004
0107484560999991984021321304+13917+100600FM-15+0012VTBD V0200901N00101090001CN0112001N1+02401+02301999999ADDAG12999GA1011+007509089GA2031+012009059GA3051+090009009MA1101081999999REMMET006NOSIG?EQDQ01+000000PRSWM2
0079107340999991984050100004+49400+008650FM-15+0109EDIE V0209991C000010240019N0112001N1+00701+00301999999ADDAG11000GA1031+012009059GA2051+024009039MA1100611999999MW1001REMMET007CIG080?
0164971800999991984031612004-05067+119550FM-12+0014WAAA V0209991C00001003901CN0040001N9+02441+02441101191ADDAA106017091AG10999AY161061GA1061+003909059GA2081+030009049GF108991061051004501021999KA1240M+02991MD1999999+0051MW1611REMSYN035333   10299 56999 58005 86613 88460
0165722540139581984071123364+30300-097700SAOSP+0189AUS  V0201401N00821021001EN0192001N1+99999+99999999999ADDAG10999GD13991+0210099GD23991+0750099GF107991999999999999999999MA1101221098951MW1951OC101291REMAWY042TB33 OVHD-E MOVG NW          ?    LTGCG E?EQDQ01+999990APOSP 
0107766440999991984121922004+20950-089667SAO  +0009MID  V0203601N009312200019N0112001N1+02701+01701101421ADDAG10999GD12991+0090099GF102991999051999999001001MA1101661101321MW1001EQDQ01+999990APOSP Q02+999990APOSLP
0119061590999991984010603004+55750+010867FM-12+001199999V0202301N00821006001CN0150001N9+00441+00351100421ADDAG12002AY181031GA1081+006009099GF199999071031008001001001MD1210051+9999MW1021REMSYN011333   88920EQDQ01+000072SCOTCV
0133683520999991984052003004-27667+027250FM-12+140099999V0201301N00261220001CN0300001N9+99999+99999999999ADDAA106000091AG10999AY101031GF100991001001999999001001KA1240M+02031KA2120N+00071MD1110041+9999MW1021REMSYN023333   20007 555   10203
0108766910999991984101718004+19200-096133SAO  +0014VER  V0200901N004112200019N0096001N1+03101+02601101361ADDAG10000GD16991+0001599GD22991+0045099GD32991+2100099GF102991999999999999999999MA1101421999999MW1041MW2051
0072725205147621984121519004+40350-079933SAO  +0382AGC  V0202401N005112200019N0160001N1+01501+01111999999ADDAG10999GD13991+0750093GF107991999999999999999999MA1102741999999MW1001
0057724815999991984091502004+37283-120517SAO  +0047MCE  V0203201N003112200019N0160001N1+03171+99999999999ADDAG10999GF100991999999999999999999MA1100711999999MW1001
024672450003928198401040800C+37650-097433SAO  +0406ICT  V0202305N00265036585EN0320005N1-00225-00335101905ADDAA101000095AG10999GD13995+0360099GF105045999999999999999999MA1101831097005MW1001REMAWY00698578?EQDQ01+999990APOSP N01 00000JPWTH 0QNNE81 0 00499G21 0 00120K21 0 00026L21 0 02000M11 0 28645N21 0 00000Q21 0 10190S21 0 00028V11 0 00605X21 0 23005
0061978100999991984082700004-05683+132750FM-12+001299999V0201301N00211045001CN0120001N9+02401+02291101191ADDAA124001091AG10999AY161061GF107991031081004501071021MW1211
0112225220999991984042518004+64983+034783FM-12+001099999V0203301N00201220001CN0750001N9+00111-00311101321ADDAA106000091AA212999929AG14002AY181061GF102991021001999999031001MD1410001+9999MW1021REMSYN017333   1047/ 69900
020072564024018198408101300C+41150-104817SAO  +1867CYS  V0202705N003152200059N0960005N1+01225+01005101855ADDAA101000095AG10999GF100005999999999999999999MA1102541081785MW1001EQDN01 00000JPWTH 0QNNE81 0 00099G21U0 99999K21 0 00050L21 0 06000M11 0 24150N21 0 00000Q21 0 10185S21 0 00054V11 0 00000X21 0 27006
024672557014943198412261300C+42400-096383SAO  +0334SUX  V0201105N00525001225MN0160005N1-00285-00445102205ADDAA101000095AG10999GD14995+0012099GF108085999999999999999999MA1102031098045MW1565REMAWY006ZLB22?EQDQ01+999990APOSP N01 03600JPWTH 0QNNE81 0 00699G21 0 00004K21 0 00024L21 0 01000M11 0 28950N21 0 03600Q21 0 10220S21 0 00027V11 0 01010X21 0 11010
0108598550999991984101218004+19233+110467FM-12+002599999V0203601N00201045001CN0200001N9+02451+02301101221ADDAA106999929AG10005AY181061GF107991021011008001041999KA1240M+02961MD1710031+9999MW1001REMSYN011333   10296
0090725610240301984120421004+41100-102983SAO  +1312SNY  V0201901N007712200019N0320001N1-00051-01431102341ADDAG10000GF100991999999999999999999MA1101931999999MD1810421+9999MW1001REMAWY010AS S/ 842?
0183109800999991984110412004+47700+012017FM-12+183299999V0201801N00461220001CN0750001N9+00321-00251999999ADDAA106000091AG14000AY101061GA1011+060009009GF101991001001999999001011GG1029017009089099GG2059013009069059MD1810121+9999MW1021REMSYN047333   81070 96880 96910 94956 444   28179 56135
0115719665999991984091119004+67567-139833SAO  +0253YOC  V0209991C000012200019N0240001N1+00601+00001101711ADDAG10999GD12991+0090099GD23991+0630093GF107991999999999999999999MA1101561999999MW1001REMAWY019SAWR  CU1CI1 CU TR?
0126714110999991984051018004+43983-064667SY-SA+0009WWE  V0202001N008719999999N0130001N1+00821+00491100931ADDAA106000091AG10000KA1120M+00901KA2240N+00421MA1999999100811MD1510001+9999MW1001REMSYN017333   10090 20042AWY012/     5000 ?
0098723910931111984051316054+34117-119117SAOSP+0004NTD  V0209991C000010012019N0012001N1+99999+99999999999ADDAG10999ED103U01829GD16991+0001599GD24991+0012099GF108991999999999999999999MA1101561999999MW1451
0064233830999991984071109004+66933+093467FM-12+026399999V0201101N00301030001CN0020001N9+02341+00561100161ADDAG11000AY121031GF108991081001999999071999MD1310021+9999MW1051
0064152090999991984010521004+46183+023917FM-12+033499999V0209991C00001007501CN0026001N9+00041+00011102031ADDAG11000AY121031GF108991061051008001021999MD1210071+9999MW1101
0106677650999991984072112004-16833+029617FM-12+1346FVKA V0201201N00051220001CN0400001N9+02151+00721999999ADDAG10999AY101061GA1041+018009089GF104991041011017501001001MD1999999-0101MW1021REMSYN017333   59010 84856
0072745980137021984092705004+37083-076350SAO  +0003LFI  V0200401N00571013501EN0160001N1+01891+01001102451ADDAG10999GD14991+0135099GF108991999999999999999999MA1102441999999MW1001
0161999999931011984032113005+33667-117733SAO  +0116NZJ  V0201305N001552200059N011200599+01115+00565101155ADDGD10005+9999999GF100995999999999999999999MA1999999999999QNNE41 0 00000G41U0 99999K41 0 00042L41 0 00700C41 0 29870Q41 0 10115S41 0 00052V41 0 00099X41 0 13003
0267745060232391984012904003+37733-122317SAO  +0005NGZ  V02099959000052200059N0160005N1+01505+00505101855ADDAG10999GD10995+9999999GD20995+9999999GD30995+9999999GF100995999999999999999999MA1101831101795MW1001EQDN01 00000JPWTH 1QNNE11 1 00099E11 1 00099E11 1 00099E11 1 00099G11U1 99999K11 1 00041L11 1 01000M11 1 30060N11 1 00000Q11 1 10185S11 1 00059V11 1 00099X11 1 00000
0080992490999991984083015004+38200-123300FM-18+00034601 V0203001N009019999999N9999999N9+01491+99999101991ADDAG12000OA139901101SA1+1379UA1I110209999REMSYN02922200 00137 11104 333   92111
0032071860340621984033007004+48767+007300FM-15+037799999V0202601N00361001501CN0035001N1+00301+00301999999ADDAG12999GA1081+001509079MW1501
0146039690999991984123113004+53433-006250SY-MT+0085EIDW V0202901N00261220001CN0250001N1+00641+00431103381ADDAG12999AY101011GA1011+006009089GF102991011081008001031021MA1103291999999MD1810081+9999MW1021REMSYN011333   81820MET006NOSIG?EQDQ01+000000PRSWM2
0075061600999991984102406254+55767+012317FM-15+0019EKVL V0202301N00261220001CN0112001N1+00601+00501999999ADDAG12000GA1031+075009009MA1101081999999REMMET006NOSIG?EQDQ01+000000PRSWM2
0161719650999991984052018004+63617-135867FM-12+0504YMA  V0200501N00101030001CN0300001N9+01231-00081100341ADDAA106000091AG14000AY101061GF107991021021017501071001KA1120M+01231KA2240N+00501MA1100201094351MD1410001+9999MW1021REMSYN017333   10123 20050EQDQ01+999990APOA  
0100107420999991984081409004+49200+009517FM-12+027699999V0201801N00051012001CN0080001N9+01881+01381101431ADDAG11000AY101031GA1061+012009059GF106991061051012501001001MD1010001+9999MW1021REMSYN011333   86640
0064253250999991984092506004+66550+159417FM-12+012599999V0203201N00201007501CN0500001N9-00181-00561101781ADDAG12000AY101061GF106991061091008001001001MD1210041+9999MW1021
0190109290999991984100706004+47683+009183FM-12+044399999V0203301N00151009001CN0230001N9+00861+00761102481ADDAA199004091AG10001AY161061GA1011+004809089GA2071+009009059GF108991071081004501999999GJ101449IA1099IA2999+01009KA1120N+00831MD1210171+9999MW1211REMSYN035333   20083 31010 81816 87630 94024
0100033020999991984070317004+53250-004533FM-12+0011EGOV V0203401N00411220001CN0600001N9+01701+00571102821ADDAG11999AY101021GA1011+008409089GF101991011011008001001001MD1710051+9999MW1021REMSYN011333   81828
0171070380340611984052618004+49017+001217SY-MT+0141LFOE V0202401N00311009901CN0150001N1+01221+00861100291ADDAA199002091AG10001AY161061GA1021+006909089GA2051+009909059GF106991061081008001001001KA1999M+01391MD1510011+9999MW1011REMSYN023333   10139 82823 85633EQDQ01+000000PRSWM2
0253725140147781984091517003+41250-076917SAO  +0158IPT  V0203305N005250085359N0160005N1+01285+01115101455ADDAG10999GD12995+0039099GD24995+0084099GF108085999999999999999999MA1101461099545MW1805REMAWY014WSHFT 35 RB20?EQDN01 02300JPWTH 0QNNE81 0 00299E81 0 00699G21 0 00028K21 0 00052L21 0 01000M11 0 29395N21 0 02300Q21 0 10145S21 0 00055V11 0 01010X21 0 33010
0064336310999991984102600004+48633+022267FM-12+011899999V0201201N00301036001CN0040001N9+01241+00971101921ADDAG11000AY111061GF106991061001999999031001MD1810111+9999MW1101
0115718870999991984082514004+50700-120450SAO  +0346YKA  V0209991C00001024001EN0480001N1+01501+00901101561ADDAG10999GD13991+0240099GF107991999999999999999999MA1101561097471MW1001REMAWY015AC9 TCU EMBDD ?EQDQ01+999990APOSP 
0065167180999991984052815204+38067+023550FM-15+0031LGEL V0201801N00511999991CY0099001N1+02901-00401999999ADDAG12000MA1100911999999REMMET012CAVOK NOSIG?EQDQ01+000000PRSWM2
0150672370999991984111718004-15100+039283FM-12+0441FQNP V0200901N00501220001CN0300001N9+02841+01771100991ADDAA106999999AA299000091AG10999AY101061GF103991031021008001001001KA1120M+03401MD1999999-0291MW1021REMSYN023333   10340 59029 67241EQDQ01  72402PRCP06
0072761610999991984020223004+29100-111050SAO  +0187HMO  V0209991C000012100019N0240001N1+02601+00901999999ADDAG10999GD14991+2100099GF108991999001999999001071MA1101421999999MW1001
0068619960999991984060418004-37800+077533FM-12+002999999V0203401N012319999999N9999999N9+01461+01331101171ADDAA199000391AG10999KA1120M+01501MD1710271+9999REMSYN011333   10150
0062067000999991984041216204+46250+006133FM-15+0416LSGG V0200301N00511220001CN0080001N1+01201-00101999999ADDAG12999GA1011+013509089MA1101691999999MW1051REMMET006NOSIG?
0065037720999991984090206504+51483-000450FM-15+0024EGLL V0202001N00211999991CY0099001N1+01501+01301999999ADDAG12999MA1101691999999REMMET012CAVOK NOSIG?EQDQ01+000000PRSWM2
0102067000999991984090823164+46250+006133FM-15+0416LSGG V0209991C00001036001CN0112001N1+00901+00701999999ADDAG12999GA1021+021009039GA2051+036009039MA1102001999999REMMET017NOSIG ? (082250)?EQDQ01+000000PRSWM2
0106655070999991984032400004+12067+000350FM-12+0309DHEF V0203601N00101039001CN0200001N9+02901+00691100961ADDAG12000AY101061GA1061+039009039GF107991061001999999071021MD1999999+0331MW1021REMSYN017333   58033 86363
0057725533999991984013114004+40067-095583SAO  +0300FNB  V0202501N004612200019N0240001N1-00051-00211999999ADDAG10999GF100991999999999999999999MA1101731999999MW1001
0049075864999991984112718004+44100+006000FM-15+9999LFMX V0200801N00211999991CY0099001N1+99999+99999999999ADDAG12000REMMET011CAVOK 0105?EQDQ01+000000PRSWM2
0139167460999991984082718004+35533+024150FM-12+0146LGSA V0202801N00621220001CN0150001N9+02361+01651100871ADDAA106000091AG14000AY101061GF100991001001999999001001IA1019KA1120M+99999MD1210091+9999MW1021REMSYN017333   10230 30596EQDQ01 +02302ATMX  
0064312530999991984051521004+54717+128850FM-12+035799999V0209991C00001220001CN0500001N9+00331+00071101221ADDAG11000AY101031GF102991001001999999001011MD1210111+9999MW1021
0064380010999991984052121004+44500+050283FM-12-002099999V0203201N00601090001CN0100001N9+99999+99999101821ADDAG12000AY101031GF105991001001999999001021MD1710061+9999MW1021
0165787050999991984102921004+15750-086867SY-MT+0026MHLC V0200601N00411045001CN0060001N1+02791+02421101051ADDAA106000091AG14003AY121031GA1011+009609059GF107991031081008001041041MA1100711100751MD1710271-0111MW1151REMSYN023333   02220 59011 81632MET0212CU025 2AC090 2CI250?
0158614420999991984112215004+18100-015950SY-MT+0003GQNN V0203201N00411069001CN0100001N1+02961+01671101331ADDAG12000AY101031GA1051+069009009GF105991001001999999001021MA1101291999999MD1999999-0191MW1021REMSYN017333   59019 85073MET012CAVOK NOSIG?EQDQ01+000000PRSWM2
0064308560999991984120118004+51483+114550FM-12+085699999V0200501N00201030001CN0500001N9-01001-01201100631ADDAG12000AY101061GF108991061001999999071011MD1110011+9999MW1021
0079109210999991984072807454+47983+008900FM-15+0807EDPH V0202201N00411018001CN0025001N1+01101+00901999999ADDAG12999GA1011+001509079GA2041+010509059GA3081+018009059MA1102401999999MW1581
0045071530999991984090907004+48617+002683FM-15+0095LFPM V0202401N00621006001CN0112001N1+99999+99999999999ADDAG12999GA1071+006009059EQDQ01+000000PRSWM2
0064028440999991984022403004+66800+024000FM-12+0084EFPE V0201601N00211004201CN0040001N9-00871-00941103521ADDAG12001AY171031GF108991061071004501071999MD1710191+9999MW1711
0114483780999991984031000004+16817+100267FM-12+0045VTPS V0209991C00001220001CN0060001N9+02301+02091100821ADDAA106000091AG10000AY101061GF101991001001999999001051KA1120N+02281MD1999999+0061MW1101REMSYN017333   20228 58006
0059103210999991984062111104+52583+008350FM-16+0039EDND V0202801N00511220001CN0080001N1+99999+99999999999ADDAG12999GA1021+012009089REMMET005BLU+?EQDQ01+000000PRSWM2
0124318010999991984090300004+47667+136183FM-12+018099999V0201801N00101000301CN0005001N9+01291+01221101151ADDAA106000091AG10000AY141061GA1091+999999999GF109991091999999999999999KA1120N+00911MD1210041+9999MW1451REMSYN011333   20091
0347700860274011984062915003+70133-143633SAO  +0012BTI  V0200805N00675000915EN0012005N1+00065+00065100205ADDAG10000GA1999+000915075GA2999+001525075GD13055+0009099GD24035+0015099GF108085999999999999999999MA1100201100025MD1710051+9999MW1455MW2515REMAWY0186ST4ST 70500 16//?EQDQ01+999990APOSP N01 03370JPWTH 0QNNE11 0 00406E11 0 00604G11 0 00003H11 0 16003H11 0 16005K11 0 00033L11 0 00075M11 0 29535N11 0 03370Q11 0 10020S11 0 00033V11 0 01010X11 0 08013
0093478080999991984022213004+33583+130450FM-15+0012RJFF V0202101N00101010501CN0045001N1+00601+00501999999ADDAG12999GA1011+004509079GA2071+010509059GA3081+021009049MA1101591999999MW1611REMMET0053001?
0183109610999991984092616004+47417+010983FM-12+296099999V0203601N004619999999N0050001N9-00721-00781999999ADDAG12999AY121011GA1081+999999059GF108991081051999999999999GG1019020009069099GG2019029009089009MD1510051+9999MW1711OA149901651REMSYN047333   886// 91132 97599 96557 444   16209 18290
0127356990999991984122215004+47450+074817FM-12+062099999V0203601N00201220001CN0200001N9-02061-02551999999ADDAA106000091AG10000AY101031GF100991001001999999001001KA1120M+99999MD1810061+9999MW1021REMSYN011333   11781EQDQ01 -07812ATMX  
0135999999999991984050306004+52700-148400FM-13+9999JDCO V0202701N00571001201CN0200001N9+00601+00501100301ADDAG12000AY121061GF108991061031001501011999MD1410001+9999MW1061SA1+0609UA1M050059999UG1070202709REMSYN02922272 00060 20501 327// 40704
0090725915242571984020723004+40500-122300SAO  +0152RDD  V0201801N002612200019N0960001N1+01611+00781999999ADDAG10999GD14991+0600093GF108991999999999999999999MA1101931999999MW1001REMAWY009HK ALQDS?
0164655940999991984040418004+04750-006817FM-12+0031DISP V0202201N00511003901CN0100001N9+02901+02551100721ADDAA106000091AG14000AY101061GA1041+001809079GA2071+003909099GF107991071091004501001001KA1120M+03201MD1999999+0071MW1021REMSYN035333   10320 58007 84706 87913 95338
0153999999999991984111600004+22100-150000FM-13+99993ERV V0200701N00771220001CN0200001N9+02401+01811101931ADDAG12000AY111061GF103991031021008001001001MD1710121+9999MW1011SA1+2659UA1M030109999UG1100250109UG2050151009REMSYN03522264 00265 20302 30110 41005 50503
0139426750999991984011309004+23167+079950FM-12+0393VAJB V0202701N00051030001CN0100001N9+02741+01611101091ADDAA106000091AG14000AY101031GA1031+009009089GA2051+030009039GF107991021011008001031001MD1999999-0271MW1021REMSYN023333   59027 83830 85360
0100033350999991984071308004+53483-002250FM-12+0037EGCB V0203001N00461007501CN0250001N9+01461+00961101311ADDAG12999AY101021GA1051+007509089GF105991051081008001001001MD1110171+9999MW1021REMSYN011333   85825
0123081600999991984081000004+41667-001017SY-MT+0258LEZG V0202901N00931220001CN0300001N1+01681+00901101831ADDAA106000091AG10000AY101061GF100991001001999999001001MA1101901098811MD1810041+9999MW1021REMMET005CAVOKEQDQ01+000000PRSWM2
0158610240999991984122406004+16967+007983FM-12+0502DRZA V0201001N00511045001CN0150001N9+01301-00701101191ADDAA106000091AG10000AY101061GA1051+045009039GA2031+090009009GF107991051001999999041021KA1120N+01181MD1999999+0211MW1021REMSYN029333   20118 58021 85365 83080
0269911620225011984101019003+22033-159783SAO  +0004HBK  V02099959000052200059N0112005N1+03005+02115101685ADDAG10999GD12015+0060099GD22015+0120099GF101995999999999999999999MA1101691101611MW1001REMAWY041K N-E      ?    HFO SA 1855 23 SCT 15 18?EQDQ01+999990APOSP QNNE41 0 00201E41 0 00201G41U0 99999K41 0 00070L41 0 00700C41 0 30030Q41 0 10168S41 0 00086V41 0 00199X41 0 00000
0062070030999991984031614004+50517+001617FM-15+0010LFAT V0200401N00621069001CN0025001N1+00601+00301999999ADDAG11999GA1061+069009009MA1101191999999MW1101REMMET006NOSIG?
0084747945999991984101909004+28617-080683SAO  +0003X68  V0201701N001012200019N0112001N1+02001+01891101861ADDAG10000GF100991999999999999999999MA1101861999999MD1710071+9999MW1001REMAWY004707?
0108261670999991984072806004+58567+029800FM-12+009399999V0209991C00001220001CN0190001N9+01571+01281100711ADDAA106000091AG10000AY101061GF104991021081008001031011KA1120N+00841MD1210101+9999MW1021REMSYN011333   20084
0100117230999991984031003004+49150+016700FM-12+0246LKTB V0200301N00201006901CN0150001N9-00091-00361102881ADDAG11000AY101031GA1071+006909059GF107991071051008001001001MD1710061+9999MW1021REMSYN011333   87623
0058064520999991984062705254+51333+004500FM-15+0022EBBT V0202401N00261220001CN0012001N1+01401+01301999999ADDAG12999MA1102001999999MW1101REMMET018AMB AMB GRADU YLO?
0047075030999991984112307004+44433-001250FM-15+0039LFBS V0202601N00511015001CN0030001N1+01501+01501999999ADDAG12999GA1071+015009059MA1101491999999MW1611
0100062100999991984100223004+52183+004417FM-12+0001EHVB V0201401N00261220001CN0150001N9+00691+00561100121ADDAG12999AY101021GA1041+027009039GF104991041001999999031001MD1110061+9999MW1021REMSYN011333   84359
0271701330266161984062600005+99999+999999SAO  +999999999V0202705N003652200059N048000599+01225+00785100635ADDGA1999+012195095GA2999+024385035GD12015+9999999GD22015+9999999GF102025999999999999999999MA1999999100585EQDN01 00000JPWTH 0QNNE11 0 00201E11 0 00201G11U0 99999H11 0 18040H11 0 23080K11 0 00046L11 0 03000M11 0 29700N11 0 00000Q11 0 10063S11 0 00054V11 0 00202X11 0 27007
0166702120266331984051700004+61783-166033SAO  +0139PACZ V0201201N002110180019N0160001N1+00831+00501100651ADDAA106999929AG10000GD12991+0066099GD23991+0180099GF107991999051999999001001MA1100581999999MD1410001+9999MW1001REMAWY0454SC/ 40000 1500        ?     WR// RDWND 1505?
0064151080999991984071209004+46933+025917FM-12+189799999V0209991C00001220001CN0200001N9+01561+00971999999ADDAG11000AY101031GF101991011021001501001091MD1210111+9999MW1021
021572638094814198411281300C+44367-084683SAO  +0350HTL  V0202505N00525002135EN0112005N1+00225+00065100505ADDAA101000095AG10999GD14995+0021099GF108085999999999999999999MA1100441096285MW1001EQDN01 00000JPWTH 0QNNE11 0 00699G11 0 00007K11 0 00033L11 0 00700M11 0 28430N11 0 00000Q11 0 10050S11 0 00036V11 0 01010X11 0 25010
021572407093730198404180500C+39450-074567SAO  +0020ACY  V0209995900005033535EN0192005N1+00945+00675100335ADDAA101000095AG10999GD13995+0330099GF106055999999999999999999MA1100341100085MW1001EQDN01 00000JPWTH 0QNNE11 0 00499G11 0 00110K11 0 00044L11 0 01200M11 0 29555N11 0 00000Q11 0 10033S11 0 00049V11 0 00706X11 0 00000
0160723181138771984012423064+36483-082400SAOSP+0463TRI  V0203201N001510063019N0016001N1+99999+99999999999ADDAG10999ED123U18289GD12991+0015099GD22991+0036099GD34991+0063099GF108991999999999999999999MA1101631999999MW1451MW2611REMAWY032R23VR60+ 12 SCT V      ?    BKN?
0087725396148151984101717004+42300-085233SAO  +0287BTL  V0203201N005712200019N0320001N1+01441+00781999999ADDAG10999GD12991+0060099GD22991+0750099GF102991999999999999999999MA1102001999999MW1001
0135999999999991984111518004+49200-149000FM-13+99996ZQK V0201401N01181012001CN0200001N9+00801+00491100401ADDAG12000AY111061GF108991051051012501999999MD1710101+9999MW1031SA1+0909UA1M060209999UG1090453209REMSYN02922223 00090 20604 332// 40909
0106612300999991984041500004+15233-009350FM-12+0237GANR V0203601N00511220001CN0080001N9+03351+00801100641ADDAG11000AY101061GA1041+045009039GF104991041001999999041001MD1999999+0061MW1061REMSYN017333   58006 84365
0079103380999991984100722204+52467+009700FM-15+0055EDVV V0202901N00621003001CN0080001N1+01001+00801999999ADDAG12999GA1021+002409079GA2061+003009079GA3081+004509059MA1101801999999MW1631
0138875060999991984091114004-35500-069583FM-12+1423SAMM V0209991C00001007501CN0350001N9+00661+00291999999ADDAG10999AY101021GA1081+007509059GF108991081051008001999999MA1102341999999MD1610011+9999MW1021REMSYN034333   88625 555   10235 COR   CBTA
0100119160999991984040621004+48933+019583FM-12+200899999V0201201N00601220001CN0150001N9-00141-00471999999ADDAG12000AY101031GA1011+001809059GF101991011031002501001001MD1810011+9999MW1021REMSYN011333   81606
0110829150999991984011218004-09967-067800FM-12+013699999V0209991C00001004201CN0040001N9+02681+02261100751ADDAA106000091AG10999AY101061GF108991081051004501999999MA1999999099231MD1999999-0051MW1021REMSYN011333   59005
0075470900999991984060803004+38200+128600FM-12+000799999V0200701N00311220001CN0300001N9+02681+01441100971ADDAA106000091AG14000AY101031GF106991001001999999001041MD1610081+9999MW1021
0061979000999991984092806004-07983+131300FM-12+0024WAPI V0201201N00311220001CN0200001N9+02941+02321101001ADDAA106000091AG10999AY101061GF104991031021008001001021MW1021
0075164050999991984011822204+38183+013100FM-15+0021LICJ V0201701N00101220001CN0112001N1+01301+01001999999ADDAG12999GA1011+007509089MA1102201999999REMMET006NOSIG?EQDQ01+000000PRSWM2
0076844355999991984081120004-06050-077150FM-15+0792SPJA V0209991C00001220001CN9999999N9+02901+02101999999ADDAG10999GA1031+009009089MA1101081999999EQDQ01+000002VOVAR Q02+000000PRSWM2
0091857990999991984032614004-41433-073083FM-15+0085SCTE V0203101N00151220001CN0009001N1+00801+00801999999ADDAG10999GA1011+003009079MA1101691999999MW1421REMMET016HR98 VIS S ILIM?EQDQ01+000432PRSWM2
0125719060999991984061209004+58100-068417SAO  +0036YVP  V0202401N00261021001EN9999999N9+00301+00101100121ADDAG10000GD13991+0210099GF107991999999999999999999MA1100101099661MW1001REMAWY009C9 8004 ?EQDQ01+999990APOSP Q02+000002VOVAR 
0125646000999991984011112004+04217+015783FM-12+0583FEFT V0201401N00211220001CN0100001N9+03281+01371100551ADDAG12000AY101061GA1011+009009089GF101991011011999999001001MD1999999-0121MW1021REMSYN017333   59012 81830EQDQ01+000992SCOLCB
023172211012842198404072300C+27967-082533SAO  +0006TPA  V0202905N004152200059N0240005N1+02175+01445101735ADDAA101000095AG10999GD13995+0750093GF106025999999999999999999MA1101731101695MW1001EQDQ01+999990APOSP N01 00000JPWTH 0QNNE81 0 00399G21U0 99999K21 0 00058L21 0 01500M11 0 30030N21 0 00000Q21 0 10173S21 0 00071V11 0 00802X21 0 29008
0119034530999991984070905004+52717-000667FM-12+0140EGXJ V0202201N00311220001CN0030001N9+01311+01221100941ADDAG11999AY101021GA1011+045009039GF101991999001999999031011MD1510021+9999MW1101REMSYN011333   81365EQDQ01+000002SCOTLC
0075471330999991984101618004+36300+127400FM-12+007899999V0209991C00001220001CN0150001N9+00961+00931101181ADDAA106000091AG14000AY101061GF102991001001999999001011MD1710081+9999MW1021
0120130140999991984051407164+46217+014483FM-15+0362LYLJ V0200601N00101012001CN0060001N1+01101+00901999999ADDAG12999GA1021+003009079GA2051+012009059GA3071+027009039MA1101021999999MW1101REMMET032NOSIG? (14070          ?     0)?
0061970480999991984100712004+00517+123067FM-12+0002WAMG V0209991C00001045001CN0100001N9+02631+02411100991ADDAA106000091AG14000AY121061GF105991031051008001071011MW1051
0087722025128491984092302004+26067-080150SAO  +0003FLL  V0200801N007210180019N0160001N1+02781+02221999999ADDAG10999GD12991+0051099GD23991+0180099GF107991999999999999999999MA1101661999999MW1001
0097912180999991984052714004+13583+144933SAO  +0187PGUA V0201101N002112200019N0112001N1+02941+02331101031ADDAG10999GD12991+0045099GF102991999999999999999999MA1101191999999MW1001REMAWY016CB DSNT NW WR//?
0076718760999991984100508004+52767-108250SAO  +0548YQW  V0201801N003612200019N0240001N1+01301+00401100151ADDAG10999GF100991999999999999999999MA1100031093691MW1001EQDQ01+999990APOSP 
0144153350999991984011406004+45183+028817FM-12+000699999V0203401N00101004201CN0040001N9-00221-00221101591ADDAA199001091AG10001AY171061GF108991061071004501021999MD1110031+9999MW1101UA1M101709999UG1990109999UG2999990309REMSYN023222// 21034 3/103 47002
0102085090999991984051620004+38767-027100FM-15+0055LPLA V0203401N00771220001CN0112001N1+01801+01001999999ADDAG12999GA1011+007509089GA2021+060009009MA1102951999999REMMET036CNTR RNWY WND          ?     340/12?
0102039690999991984020412304+53433-006250FM-15+0085EIDW V0202201N01031009001CN0112001N1+01201+01001999999ADDAG12999GA1011+003609079GA2041+004509079GA3071+009009059MA1099801999999MW1581OC101701REMMET006NOSIG?
0127317130999991984071800004+48783+132917FM-12+007699999V0203401N001019999999N0500001N9+02151+01881100881ADDAA106000091AG10000AY101061GF107991999001999999041001KA1120N+01771MD1210051+9999MW1021REMSYN011333   20177EQDQ01+000002SCOTLC
0100034950999991984042917004+52767+001350FM-12+0020EGYC V0200901N00671075001CN0250001N9+00991+00101102141ADDAG11999AY101021GA1061+075009009GF106991001001999999001021MD1710171+9999MW1021REMSYN011333   86075
0165804100999991984051618004+10050-069367FM-12+0622MVBM V0200701N00501021001CN0200001N9+02721+01961100991ADDAA106000091AG14000AY101061GA1041+004809089GA2061+021009049GF108991041011004501071999MA1101291999999MD1999999-0071MW1021REMSYN034333   5629/ 59007 84816 86457 1013
0076030590999991984061417204+57533-004050FM-15+0012EGPE V0202901N00411075001CN0112001N1+01601+00901999999ADDAG12999GA1031+010509089GA2071+075009009MA1102201999999EQDQ01+000000PRSWM2
0155467580999991984041215004+22700+120483SY-MT+0029RCSQ V0203201N00151220001CN0110001N1+02181+02081101131ADDAA106000091AG14000AY101031GA1021+004209079GF102991021061004501001001MD1110141+9999MW1021REMSYN017555   82714 858//MET013100112985INS?EQDQ01+000000PRSWM2
0122034530999991984110605004+52717-000667FM-12+0140EGXJ V0200201N00571012001CN0060001N9+00471+00401100221ADDAG12999AY161021GA1031+006009059GA2081+012009059GF108991081051008001999999MD1710131+9999MW1611REMSYN017333   83620 88640
0075574760999991984112312004+30350+112183FM-12+003599999V0203201N00101036001CN0120001N9+00911+00771102811ADDAA106000091AG14000AY101061GF106991061001999999041001MD1210141+9999MW1021
0064319870999991984090903004+43133+133117FM-12+020299999V0200901N00201012001CN0500001N9+02041+00421099901ADDAG11000AY101031GF105991051021012501001001MD1710231+9999MW1021
0062115180999991984120111304+50100+014250FM-15+0369LKPR V0201401N00411003301CN0080001N1+00101+00001999999ADDAG12000GA1071+003309079MA1101391999999MW1101REMMET006NOSIG?
0120294770999991984010212004+56500+093283FM-12+015999999V0209999999999220001CN0080001N9-01871-01991103271ADDAA106000091AG14000AY101061GF100991001001999999001001KA1120M-00661MD1710091+9999MW1101REMSYN023333   11066 555   11140
0108478150999991984102612004+33233+131617FM-12+001399999V0201901N00211220001CN0100001N9+01581+01251101711ADDAA106000091AG14000AY101061GF100991001001999999001001KA1120M+02181MD1010021+9999MW1021REMSYN011333   10218
0202804190999991984052600004+10117-064683FM-12+0007MVBC V0201601N00301024001CN0100001N9+02441+02261101211ADDAA106017091AG10000AY161061GA1021+003909059GA2041+024009039GF106991021051004501031999IA1099KA1240M+03251MA1101191999999MD1999999+0041MW1201REMSYN052333   10325 31/// 5699/ 58004 60171 82613 84358 1012
0250767410999991984090200004+18150-094417FM-12+002399999V0203601N00501105001CN0100001N9+02841+02391101141ADDAA106000091AA224006991AG14000AY101061GA1011+006009089GA2011+008109099GF105991021031008001001031IA1019KA1120M+03031KA2180N+02371MA1999999100841MD1410001-0091MW1021OA139900701REMSYN065333   06809 10303 20237 30/// 59009 70069 81820 81927 92036 92107
0200722585939011984110808003+32733-096967SAO  +0150NBE  V0201805N00365004575MN0112005N1+01835+01565101435ADDAG10999GD13055+0045099GD24085+0750099GF108995999999999999999999MA1101491999999MW1001QNNE41 0 00406E41 0 00610G41 0 00015K41 0 00060L41 0 00700C41 0 29970Q41 0 10143S41 0 00065V41 0 01099X41 0 18007
0134062800999991984041609004+53133+006583FM-12+0005EHGG V0202401N00771220001CN0300001N9+00811+00411101571ADDAG12000AY101031GA1011+005109089GA2031+006609089GF103991031021004501001001MD1110151+9999MW1021REMSYN029333   81817 83822 555   53160
006872493023230198409211100D+37733-122217SAO  +0003OAK  V0202101N002112200019N0160001N1+01561+01501999999ADDAA101000095AG10999GF100991999999999999999999MA1100611999999MW1001
0108344990999991984020618004+48950+049600FM-12-000299999V0203601N00101220001CN0200001N9-02331-02581103681ADDAA106000091AG10000AY101061GF100991001001999999001001KA1120M-01701MD1710011+9999MW1021REMSYN011333   11170
0077716200999991984062410374+44217-076600SAOSP+0090YGK  V0201601N00621007501EN0048001N1+99999+99999999999ADDAG10999GD14991+0075099GF108991999999999999999999MW1451MW2801REMAWY005SC10?
0136645070999991984071906004-02850+011017FM-12+0079FOOT V0209991C00001000151CN0000001N9+02001+02001101451ADDAA106000091AG10999AY141061GA1091+999999999GF109991091999999999999999KA1120N+02001MD1999999+0031MW1471REMSYN023333   20200 58003 89///
0064999999999991984083121004+36500-007500FM-13+9999TFID V0200901N00101220001CN0100001N9+02381+99999101761ADDAG12000AY101031GF102991999999022501999999MW1021REMSYN00522272
0050710600999991984062911004+65617-118117SAO  +0230WOA  V0200201N001519999999N9999999N9+01101+00901100191ADDAG10999REMAWY012/     2015 ?EQDQ01+000002VOVAR 
0113476810999991984103022004+34733+137667FM-15+0047RJNH V0202801N00411220001CN0112001N1+00701+00301999999ADDAG12999GA1011+007509089MA1101961999999REMMET044202/ FCST 2207 98007 29013/        ?     25?EQDQ01+000000PRSWM2
0257710920999991984090806004+68650-071233SY-SA+0518WUW  V0209991C00001000301WN0002001N1-00371-00451100891ADDAA106002091AA224005091AG10001AJ100089199999999AL12400591GD15991+0003099GF109991091999999999999999IA1279KA1240M-00201KA2240N-00521MA1100471094441MD1610091+9999MW1451MW2701MW3711REMSYN053333   11020 21052 43008 70050 90599 555   10050 20050AWY010F10 6009 ?
0079512880999991984021209004+45367+090533FM-12+165099999V0209991C00001090001CN0300001N9-00691-02001999999ADDAG12000AY101031GF105991001001999999001021MA1999999083271MD1210031+9999MW1021
0099160450999991984071619154+45983+013033FM-15+0051LIPI V0209991C00001220001CN0112001N1+02201+01501999999ADDAG12999GA1011+006009089GA2031+009009059MA1100911999999REMMET014BKN? (161800)?EQDQ01+000000PRSWM2
0072764591999991984011305004+23150-106250SAO  +0005MZT  V0209991C000012200019N0144001N1+01801+01501999999ADDAG10999GD12991+0210099GF102991999001999999011001MA1101391999999MW1001
0135999999999991984120206004-37800+130100FM-13+9999GYSA V0202301N01441220001CN0200001N9+01311+00571101501ADDAG10999AY181061GF103991031031002501001001MD1410001+9999MW1251SA1+1309UA1M050309999UG1100502309REMSYN02922224 00130 20506 323// 41010
0065600250999991984110222304+28050-016567FM-15+0008GCTS V0200401N00311999991CY0099001N1+02001+99999999999ADDAG12999MA1101901999999REMMET012CAVOK NOSIG?EQDQ01+000000PRSWM2
0078725500149421984100909304+41300-095900SAOSP+0299OMA  V0201301N00261008101MN0048001N1+99999+99999999999ADDAG10000GD14991+0081099GF108991999999999999999999MA1101761999999MW1451MW2511
0112844010999991984010103004-05200-080617FM-12+0055SPUR V0202101N00411030001CN0160001N9+02401+01911101641ADDAG10999AY121031GA1061+030009039GF106991061001999999031999MD1999999+0031MW1021REMSYN023333   5600/ 58003 86360
0095404390999991984061112004+24117+038050FM-12+0006OEYN V0202901N00931220001CN0100001N9+04301+00901100271ADDAA106000091AG14000AY101061GF100991001001999999001001MD1999999+0051MW1021REMSYN011333   58005
0064299370999991984060121004+52517+082767FM-12+017499999V0209991C00001220001CN0100001N9+00551+00061100561ADDAG12000AY101031GF100991001001999999001001MD1710261+9999MW1021
0072722085938311984121813204+32483-080717SAOSP+0012NBC  V0209991C000012200019N0032001N1+99999+99999999999ADDAG10999GD13991+0750093GF107991999999999999999999MA1102471999999MW1451
0075037720999991984010112204+51483-000450FM-15+0024EGLL V0202301N00921006001CN0112001N1+01101+00701999999ADDAG12000GA1071+006009059MA1101291999999REMMET006NOSIG?EQDQ01+000000PRSWM2
0159722485139441984062921004+32500-093667SAO  +0051BAD  V0202901N003610240019N0112001N1+02941+01891101221ADDAG10000GD12991+0090099GD23991+0240099GD33991+0540099GF107991999031999999071081MA1101221999999MD1610171+9999MW1001REMAWY034CB NE      ?    MOVG SE/ 617 1378?
0072722615220011984020623004+29367-100783SAO  +033099999V0201301N003612200019N0320001N1+01441-00601102571ADDAG10999GD12991+0750099GF102991999999999999999999MA1102571999999MW1001
0159710760999991984080920004+59567-108483SAO  +0312YBE  V0201201N00571012001EN0240001N1+01901+01101101331ADDAG10999GD13991+0120099GD23991+0270099GD34991+0750099GF108991999999999999999999MA1101251097491MW1001OC100931REMAWY021SC6AC1CI1 CC ASOCTD ?EQDQ01+999990APOSP 
0084636120999991984080521004+03117+035617FM-12+0515HKLO V0200901N00571220001CN0300001N9+02761+01431101101ADDAG11000AY101031GF100991001001999999001001MD1999999-0091MW1011REMSYN011333   59009
0064683120999991984090709004-26533+018117FM-12+1100FAKT V0209991C00001220001CN0750001N9+01821-00461999999ADDAG10999AY101031GF101991001001999999001021MD1010011+9999MW1021
0100037660999991984031317004+51283-000750FM-12+0072EGUF V0200601N00411013501CN0090001N9+00521-00141102121ADDAG11999AY121021GA1071+013509059GF107991071051012501999999MD1610081+9999MW1051REMSYN011333   87645
0177039620999991984012208004+52683-008917SY-MT+0020EINN V0202901N00461004801CN0070001N1+00141+00061099771ADDAG12999AL19900091AY181021GA1031+001809079GA2051+004809099GF107991071031002501999999MD1010151+9999MW1841OA149901651REMSYN041333   83706 85916 99720 99500 91132 97362MET00401G?
0095986440999991984060106004+09633+123867FM-12+0005RPVT V0201801N00101045001CN0300001N9+03001+02611100891ADDAA106000091AG14015AY191061GF105991031091004501071001MD1810211+9999MW1171REMSYN011333   56899
0075443040999991984012118004+47317+110667FM-12+102999999V0202301N00501220001CN0500001N9-03161-03381103361ADDAA106000091AG10000AY101061GF100991001001999999001001MD1710151+9999MW1021
0046715274999991984040803004+42850-080267SAO  +0241WSI  V0203001N002619999999N9999999N9+00201-00401102231ADDAG10000REMAWY008/ 2020 ?EQDQ01+000002VOVAR 
0122037490999991984031511004+51150-001567FM-12+009199999V0200401N00671004501CN0050001N9+00401+00061101751ADDAG12999AY121021GA1061+004509059GA2081+009009059GF108991081051004501999999MD1710091+9999MW1051REMSYN017333   86615 88630
0115150830999991984121909004+47150+023867FM-12+023299999V0209991C00001000151CN0000001N9-00251-00251103091ADDAG11000AY141031GA1091+999999999GF109991091999999999999999MA1999999100081MD1210171+9999MW1431REMSYN011333   92012
0036992520999991984022912004+63300-170300FM-18+00044601 V0200501N011019999999N9999999N9-02121+99999102541ADDAG12000REMSYN01722200 333   921//
0120985500999991984062103004+11250+125000FM-12+001699999V0202201N00201045001CN0160001N9+03511+02741100591ADDAA106000091AG14000AY101031GF107991021021004501071001MD1810081+9999MW1021UA1M020059999REMSYN023222// 20201 333   56999
0114746716938081984011321004+36967-086433SAO  +0164BWG  V0202401N00301005401EN0112001N1+00331+00171102791ADDAG10000GD13991+0054099GD24991+0075099GF108991999999999999999999MA1102741999999MD1210071+9999MW1001REMAWY004207?
0129568860999991984021306004+24533+103767FM-12+170699999V0202001N01201220001CN0300001N9+02101-00371999999ADDAA106000091AG14000AY101061GF107991011001999999041011KA1240N+00241MA1999999082691MD1710251+0001MW1021REMSYN017333   00001 20024
0182718460999991984042506004+52233-087883SY-SA+0256WLH  V0201301N003112200019N0240001N1+00521-00311099851ADDAA106000091AG14000GD12991+0360099GD22991+0810093GF103991011001999999031011KA1240M+02221KA2240N-00111MA1099761096771MD1110021+9999MW1001REMSYN017333   10222 21011AWY012AC1CI1 1002?
0065037720999991984061515204+51483-000450FM-15+0024EGLL V0202701N00261999991CY0099001N1+02401+00901999999ADDAG12000MA1102511999999REMMET012CAVOK NOSIG?EQDQ01+000000PRSWM2
0064029820999991984122521004+59767+022950FM-12+001199999V0201501N00621004201CN0150001N9-00311-00501102711ADDAG12000AY101031GF108991071071004501021999MD1210011+9999MW1021
0064221270999991984060509004+68083+034800FM-12+016199999V0203301N00301220001CN0500001N9+00581-00121102161ADDAG12000AY101031GF103991031021008001001001MD1810081+9999MW1021
0064064790999991984021711004+51167+005467FM-12+0060EBBL V0201501N00211220001CN0016001N9-00041-00191103181ADDAG11999AY141021GF100991001001999999001001MD1010051+9999MW1281
0135999999999991984120506004+16800+118700FM-13+9999PDSA V0200501N01031220001CN0200001N9+02661+02301100801ADDAG12000AY101061GF104991041011004501001001MD1710301+9999MW1021SA1+2659UA1M060209999UG1090250409REMSYN02922254 00265 20604 304// 40905
0092999999999991984062218004+22600-064700FM-13+9999UFNH V0201001N00301220001CN0200001N9+02651+99999101101ADDAG12000AY101061GF101991999999999999999999MD1410001+9999MW1021SA1+2649REMSYN01122253 00264
0091080420999991984051414304+42900-008433FM-15+0316LEST V0203501N00511024001CN0112001N1+01001+00701999999ADDAG12000GA1041+005109089GA2071+024009039MA1101191999999REMMET006NOSIG?EQDQ01+000000PRSWM2
0108128050999991984090918004+47683+016600FM-12+023899999V0202001N00601220001CN0200001N9+01511+00751101011ADDAA106000091AG10000AY101061GF106991021001999999041061KA1120M+02041MD1610121+9999MW1021REMSYN011333   10204
0130060710999991984063018004+56450+010967FM-12+000899999V0201801N00411220001CN0200001N9+01521+00931100851ADDAA106000091AG14000AY101061GA1031+075009009GF103991001001999999001011KA1120M+01581MD1210041+9999MW1021REMSYN017333   10158 83075
0167718880999991984031221004+52883-118067SAO  +1061WJA  V0200601N005110060019N0048001N1-00601-01101100791ADDAG10001GD16991+0001599GD23991+0060099GD34991+0360099GF108991999999999999999999MA1100271088271MW1711REMAWY037S3SF4AS1 SUN     ?    DMLY VSB 0000 ?EQDQ01+999990APOSP 
0055727833999991984032312004+44517-114217SAO  +1529U15  V0201301N001519999999N9999999N9-00381-00661999999ADDAA106000091AG10000MA1101591999999EQDQ01+000002VOVAR 
0144038090999991984082317004+50083-005250FM-12+0082EGDR V0202101N00151006001CN0050001N9+01911+01701100631ADDAG12999AY121021GA1041+002709079GA2031+006009089GA3051+015009059GF107991051081002501011999MD1710091+9999MW1051REMSYN023333   84709 83820 85650
036172515004725198409060000C+42217-075983SY-SA+0485BGM  V0203305N004652200059N0720005N1+01175+00505102285ADDAA101000095AA206000091AG10000AY101061GA1999+007625065GD12015+0075099GF101015011051008001001991KA1120M+01671KA2180N+00721MA1102241096345MD1310031+9999MW1021REMSYN017333   10167 20072AWY012303 1500 62?EQDQ01+000003PRSWM2N01 00000JPWTH 0QNNE81 0 00201G21U0 99999H11 0 15025K21 0 00041L21 0 04500M11 0 28450N21 0 00000Q21 0 10228S21 0 00053V11 0 00101X21 0 33009
026072785024157198402031100C+47633-117533SAO  +0718GEG  V0202405N00215000615MN0016005N1-00175-00225102705ADDAA101000095AG10999ED121U18289GD14995+0006099GF108085999999999999999999MA1102541094075MW1455REMAWY009R21VR60+?EQDQ01+999990APOSP N01 07000JPWTH 0QNNE81 0 00699G21 0 00002K21 0 00028L21 0 00100M11 0 27780N21 0 07000Q21 0 10270S21 0 00029V11 0 01010X21 0 24004
0079477820999991984121102004+33667+135350FM-15+0108RJBD V0209991V00261024001CN0112001N1+01801+01601999999ADDAG11999GA1011+003009089GA2041+006009089GA3081+024009049MA1101151999999MW1801
0126727440148581984101312004+47167-088500SAO  +0333CMX  V0201801N00411003901EN0012001N1+01281+01281101841ADDAA106000091AG10000GD14991+0039099GF108991999999999999999999KA1999N+01111MA1101801999999MD1810031+9999MW1451REMAWY007803 52?
0075505480999991984031912004+49200+123717FM-12+028999999V0209991C00001220001CN0300001N9-00821-01411102531ADDAA106000091AG10000AY101061GF100991001001999999001001MD1210101+9999MW1021
0095423790999991984040209004+26750+083367FM-12+0077VEGK V0203101N00261220001CN0020001N9+03981+01711100131ADDAA106000091AG10000AY101031GF100991001001999999001001MD1999999-0141MW1071REMSYN011333   59014
036172265023023198403100600C+31950-102183SY-SA+0872MAF  V0201905N003152200059N0320005N1+00945+00445101445ADDAA101000095AA206000091AG10000AY101061GA1999+076205005GD11025+0750093GF102015001001999999001991KA1240M+02171KA2240N-00071MA1101661091575MD1010031+9999MW1021REMSYN017333   10217 21007AWY012003 1001 71?EQDQ01+000003PRSWM2N01 00000JPWTH 0QNNE81 0 00102G21U0 99999H11 0 32250K21 0 00040L21 0 02000M11 0 27040N21 0 00000Q21 0 10144S21 0 00049V11 0 00201X21 0 19006
0233719480272021984041300004+70167-124700SY-SA+0017ZUE  V0200901N00771012001EN0120001N1-01251-01451102531ADDAA106999929AC19C9AG10001AJ100179199999999AY171061GD14991+0120099GF108991081051012501001001IA1279KA1120M-01161KA2180N-01481MA1102511102301MD1310021+9999MW1711REMSYN029333   11116 21148 43017 90583AWY010SC9 8002 ?EQDQ01+000003PRSWM2
036172266013962198403081800C+32417-099683SY-SA+0544ABI  V0200405N008852200059N0480005N1+01005-00335102685ADDAA101000095AA206000091AG10000AY101061GA1999+076205005GD11025+0750093GF102005001001999999001991KA1120M+01001KA2240N+00331MA1102711096265MD1110151+9999MW1021REMSYN017333   10100 20033AWY012115 1001 38?EQDQ01+000003PRSWM2N01 00000JPWTH 0QNNE81 0 00103G21U0 99999H11 0 32250K21 0 00026L21 0 03000M11 0 28425N21 0 00000Q21 0 10268S21 0 00050V11 0 00300X21 0 04017
0047062800999991984090719554+53133+006583FM-15+0005EHGG V0200501N00151220001CN0028001N1+01101+01101999999ADDAG12999GA1011+001209079MA1101391999999MW1111
0064012180999991984050400004+62233+007417FM-12+000899999V0209991C000019999999N0200001N9+00761+00701100711ADDAG12002AY181061GF108991999999999999999999MD1210091+9999MW1021
0064570360999991984082315004+34300+108933FM-12+0398ZLSN V0209991C00001220001CN0150001N9+02351+02111100481ADDAG12000AY101031GF101991001001999999001021MD1210171+9999MW1021
0095672830999991984080100004-17883+036883FM-12+001699999V0209991C00001220001CN0200001N9+01761+01681102411ADDAA106000091AG10001AY101061GF102991021021004501001001MD1999999+0211MW1021REMSYN011333   58021
025472312003870198405040800C+34900-082217SAO  +0292GSP  V0202305N00625002445MN0112005N1+01505+01445099745ADDAA101000095AG10999GD14995+0024099GF108085999999999999999999GJ100369MA1099801096345MW1001REMAWY00698036?EQDQ01+999990APOSP N01 00000JPWTH 0QNNE81 0 00699G21 0 00008K21 0 00058L21 0 00700M11 0 28450N21 0 00000Q21 0 09974S21 0 00059V11 0 01010X21 0 23012
0061076310999991984010415004+43533+001367FM-15+0164LFBF V0203001N00721006301CN0112001N1+99999+99999999999ADDAG11000GA1021+006309099GA2041+006309089EQDQ01+000000PRSWM2
0064246680999991984021103004+63233+132100FM-12+009099999V0209991C00001075001CN0500001N9-04141-04431103631ADDAG11000AY101031GF106991021001999999031021MD1310051+9999MW1021
0095154990999991984043000004+43817+028583FM-12+000699999V0202701N01001004201CN0100001N9+00841+00841101551ADDAA106999929AG10003AY161061GF108991061071004501021999MD1210181+9999MW1611REMSYN011333   91837
0099992210999991984021301004+46100-131000FM-18+00034600 V02099999999999999999N9999999N9+01001+99999099911ADDAG12999OA139999999SA1+0989UA1I110409999REMSYN02922200 00098 11108 333   92112EQDQ01  01202WGOSPD
0084403570999991984052303004+30967+040983FM-12+0539OEBD V0202901N00211220001CN0120001N9+01801+00001101151ADDAG12000AY101031GF100991001001999999001001MD1999999-0091MW1021REMSYN011333   59009
0143153250999991984122500004+45383+025500FM-12+151099999V0202001N00201220001CN0200001N9-00821-00891999999ADDAA106000091AG14000AY141061GF102991021051004501001001IA1179MA1999999084581MD1710051+9999ME1314739MW1011REMSYN029333   40//3 92011 92102 92210
0083343040999991984082409004+49850+035233FM-12+017899999V0200201N00101002101CN0043001N9+01781+01591101211ADDAG12002AY161031GF108991999071002501021999MD1810011+9999MW1611EQDQ01+000082SCOTLC
0138477270999991984032206004+35783+140017FM-15+0033RJTL V0203001N01241066001CN0112001N1+00801-01101999999ADDAG12000GA1021+009009089GA2061+066009009MA1101901999999REMMET0533008/ FCST 0618 GRADU        ?     0910 33010 4CI220?EQDQ01+000000PRSWM2
0050999999999991984050500004+44200-066300FM-13+9999CG23 V0201201N010319999999N0040001N9+99999+99999999999ADDAG12000AY161061GF108991999999999999999999MW1501
0064214050999991984040121004+75533+113517FM-12+001599999V0203401N00801024001CN0100001N9-03071-03291102091ADDAG12001AY171031GF106991051001999999031011MD1810031+9999MW1361
042372773024153198406011500C+46933-114100SAO  +0974MSO  V0202505N002152200059N0640005N1+00395+00175102475ADDAA101000095AG10000GA1999+015245085GA2999+030485035GA3999+064015005GD12999+0630099GD20005+9999999GD30015+9999999GF101015999011999999071991MA1102341091095MD1010001+9999MW1001REMAWY020FEW CU AC/ 000 1172?EQDQ01+999990APOSP N01 00000JPWTH 0P01    003SCCGD1QNNE81 0 00200E81 0 00000E81 0 00001G21U0 99999H11 0 11050H11 0 23100H11 0 32210K21 0 00035L21 0 04000M11 0 26900N21 0 00000Q21 0 10247S21 0 00039V11 0 00101X21 0 25004
023972688024155198408140700C+45683-118850SAO  +0452PDT  V0201405N002152200059N0480005N1+01675+00565101555ADDAA101000095AG10999GF100005999999999999999999MA1101591096225MW1001REMAWY014PK WND 05 000?EQDQ01+999990APOSP N01 00000JPWTH 0QNNE81 0 00099G21U0 99999K21 0 00042L21 0 03000M11 0 28415N21 0 00000Q21 0 10155S21 0 00062V11 0 00000X21 0 14004
0064585560999991984121821004+29600+120817FM-12+010899999V0203601N00401036001CN0100001N9-00081-00341102861ADDAG12002AY171031GF108991081001999999021999MD1710181+9999MW1001
0046103380999991984021806504+52467+009700FM-15+0055EDVV V0200901N00411220001CN0020001N1-00901-00901999999ADDAG12999MA1103491999999MW1101REMMET006NOSIG?
0152036040999991984112618004+51700-005050FM-12+003799999V0202001N00821060001CN0250001N9+00961+00491102511ADDAA106000091AG10000AY101061GA1041+006009089GA2071+060009049GF107991041011008001011999KA1120M+01031MD1610021+9999MW1021REMSYN023333   10103 84820 87470
0046401800999991984070420504+32000+034900FM-15+0049LLBG V0201301N00101220001CN0080001N1+02201+01901999999ADDAG12000MA1100711999999MW1101REMMET006NOSIG?
0076104390999991984050211454+51117+009283FM-15+0172EDPF V0202101N00411220001CN0112001N1+01601+00601999999ADDAG12000GA1011+012009089GA2041+075009009MA1100511999999EQDQ01+000000PRSWM2
0145726886241301984051119004+44833-117817SAO  +1027BKE  V0202101N006210090019N0240001N1+01671+00831101281ADDAG10999GD12991+0027099GD23991+0090099GD34991+0180099GF108991999999999999999999MA1101351999999MW1001REMAWY034MTN TPS OBSCD          ?    ALQDS?
0194768450999991984081312004+16733-092633FM-12+227699999V0200901N00101010801CN0100001N9+01361+01331100921ADDAA124003591AG10000AY101061GA1081+010809049GF108991081001004501021001IA1119KA1240M+02161KA2120N+01131MA1999999079341MD1999999-0131MW1021REMSYN047333   10216 20113 32/// 56020 59013 70035 88436
0084747945999991984121103004+28617-080683SAO  +0003X68  V0202101N001512200019N0112001N1+01111+00941102001ADDAG10000GF100991999999999999999999MA1102001999999MD1510021+9999MW1001REMAWY004502?
0100341860999991984111203004+51333+048267FM-12+010499999V0200301N00501000901CN0060001N9-00491-00551102251ADDAG11000AY121031GA1081+000909049GF108991081001001501021999MD1210061+9999MW1101REMSYN011333   88503
0087725626240911984080414004+40533-101633SAO  +1000IML  V0200601N003612200019N0160001N1+02001+01781101371ADDAG10999GD12991+0270099GF102991999999999999999999MA1101731999999MW1001REMAWY006NOSPL?
0075471590999991984062303004+35100+129033FM-12+007199999V0200901N00261090001CN0150001N9+02201+01671100671ADDAA106000091AG14000AY101031GF107991021051012501001021MD1210021+9999MW1021
0050971800999991984032409004-05067+119550FM-12+0014WAAA V0202701N00101045001CN0100001N9+02951+02291100831ADDAG10999AY101031GF107991031091008001011011MW1021
0078075100999991984013115304+44833-000700FM-15+0049LFBD V0203201N00621006001CN0112001N1+00801+00601999999ADDAG12999GA1021+000309079GA2041+006009089MA1101191999999MW1251REMMET006NOSIG?
0110156550999991984111612504+42483+027483FM-15+0024LBBG V0200701N01181007801CN0112001N1+01101+00801999999ADDAG12999GA1021+005409059GA2051+007809059GA3081+030009049MA1101081999999MW1611REMMET022N0SIG      ?     7552?
0140719550999991984072620004+55933-129983SAO  +0007ZST  V0209991C000010360019N0240001N1+02001+01401101401ADDAG10999GD12991+0150099GD23991+0360099GD33991+0900099GF107991999999999999999999MA1101391101301MW1001REMAWY010TCU5AC2CI?EQDQ01+999990APOSP 
0091077900999991984040718304+42550+009483FM-15+0008LFKB V0209991C00001220001CN0112001N1+01201+99999999999ADDAG12999GA1011+009009059GA2031+033009039MA1101081999999REMMET006NOSIG?EQDQ01+000000PRSWM2
0110718640999991984072613004+50333-105550SAO  +0577YMJ  V0201101N001012200019N0240001N1+01401+00601102291ADDAG10999GD12991+0300099GF102991999999999999999999MA1102301095511MW1001REMAWY010AC1 TRAC ?EQDQ01+999990APOSP 
0117722500129191984092106394+25900-097433SAOSP+0006BRO  V0203201N004110750019N0112001N1+99999+99999999999ADDAA106000091AG10000GD12991+0015099GD23991+0750099GF107991999999999999999999MA1100441100371MW1001EQDQ01+999990APOSP 
0076076400999991984111516004+43917+002100FM-15+0178LFCI V0209991C00001060001CN0112001N1+99999+99999999999ADDAG12999GA1041+009009089GA2041+060009009MA1100311999999EQDQ01+000000PRSWM2
0080722046999991984031515004+28517-080800SAO  +0011TIX  V0200701N004112200019N0112001N1+02281+99999999999ADDAG10000GD12991+0090099GF102991999999999999999999MA1102741999999MW1001OC100821
0100103170999991984102320004+52250+008050FM-12+0095EDWO V0202601N00261006001CN0250001N9+01111+00931101461ADDAG11999AY101021GA1071+006009059GF108991071051008001999999MD1210221+9999MW1021REMSYN011333   87620
0064304990999991984082615004+55183+124667FM-12+051399999V0209991C00001220001CN0500001N9+00991+00551101471ADDAG12000AY101031GF100991001001999999001001MD1210101+9999MW1021
038472446003947198404161200C+39317-094717SY-SA+0297MCI  V0203205N00725021345MN0320005N1+00675+00335101355ADDAA101000095AA206000091AA324001591AG14000AY101061GA1999+021345035GD13075+0210099GF107075071001022501051991KA1240M+01441KA2120N+00671MA1101321097635MD1510001+9999MW1021REMSYN023333   10144 20067 70015AWY018500 1050 44 20006?EQDQ01+000003PRSWM2N01 00000JPWTH 0QNNE81 0 00409G21 0 00070H11 0 23070K21 0 00038L21 0 02000M11 0 28830N21 0 00000Q21 0 10135S21 0 00044V11 0 00909X21 0 32014
0111712650999991984123123004+43633-079400SAO  +0077YTZ  V0200701N00511005101MN0192001N1+00301+00001102731ADDAG10999GD13991+0051099GD24991+0210099GF108991999999999999999999MA1102711999999MW1001REMAWY015SC6AC4 CU ASOC?
0057762252999991984112923004+28700-105967SAO  +1354CUU  V0203501N008212200019N0240001N1+99999+99999999999ADDAG10999GF100991999999999999999999MA1101661999999MW1001
0058404300999991984040422004+24550+039717FM-15+0632OEMA V0202001N00411999991CY0099001N1+02501+00301999999ADDAG12999MA1100911999999REMMET005CAVOKEQDQ01+000000PRSWM2
0078163200999991984022216204+40650+017950FM-15+0015LIBR V0209991C00001060001CN0090001N1+01101+00901999999ADDAG12999GA1041+004509089GA2031+060009009MA1102201999999MW1101REMMET006NOSIG?
033172764024011198405180600C+46767-100750SY-SA+0502BIS  V0202105N003152200059N0192005N1+01335-00175101355ADDAA101000095AA206000091AA324000091AG14000AY101061GF100005001001999999001991KA1240M+02281KA2240N+01061MA1101351095435MD1110031+9999MW1021REMSYN023333   10228 20106 70000AWY007103 73?EQDQ01+000003PRSWM2N01 00000JPWTH 0QNNE81 0 00099G21U0 99999K21 0 00029L21 0 01200M11 0 28180N21 0 00000Q21 0 10135S21 0 00056V11 0 00000X21 0 21006
0231724855231531984012203003+38067-117083SAO  +1654TPH  V0202705N004652200059N0480005N1+00115-00285102005ADDAG10000GD12995+0300099GF101015999999999999999999MA1101831083375MD1210081+9999MW1001REMAWY004208?EQDN01 00000JPWTH 0QNNE11 0 00299G11U0 99999K11 0 00027L11 0 03000M11 0 24620N11 0 00000Q11 0 10200S11 0 00034V11 0 00101X11 0 27009
0135999999999991984042918004+11000-089000FM-13+9999GBBM V0200701N00361220001CN0100001N9+99999+99999101371ADDAG11000AY101061GF100991001001999999001001MD1010101+9999MW1021SA1+2909UA1M010059999UG1050100609REMSYN02922264 00290 20101 306// 40502
0133479180999991984032604004+24333+124167FM-15+0024ROIG V0200501N00621013501CN0112001N1+02301+02001999999ADDAG12999GA1011+002409089GA2031+004509089GA3071+013509059MA1101691999999REMMET0323003       ?     (WIND 020V090)?EQDQ01+000000PRSWM2
0390723096937271984082902003+34700-077383SAO  +0005NCA  V02099959000052200059N0112005N1+02115+01785101915ADDAG10999GA1999+076204999GA2999+999999999GA3999+999999999GA4999+999999999GD12025+0750099GD20005+9999999GD30005+9999999GD40005+9999999GF102995999999999999999999MA1101901101835MW1001EQDN01 00000JPWTH 1QNNE11 1 00203E11 1 00000E11 1 00000E11 1 00000G11U1 99999H11 1 99250H11 1 00999H11 1 00999H11 1 00999K11 1 00064L11 1 00700M11 1 30070N11 1 00000Q11 1 10191S11 1 00070V11 1 00399X11 1 00000
0108285520999991984040115004+56083+063633FM-12+008199999V0202101N00101075001CN0100001N9+00261-00071102901ADDAA106000091AG14000AY101031GF108991021051008001001021KA1120M+00601MD1310011+9999MW1021REMSYN011333   10060
0146745700138401984021212004+39833-084050SAO  +0251FFO  V0200201N001012200019N0112001N1+00671+00671102151ADDAA106000091AG10000GD12991+0750093GF102991999001999999001081MA1102101999999MD1210051+9999MW1001REMAWY021205 1008 200001 WR//?EQDQ01  00003PRCP99
0087062800999991984010219554+53133+006583FM-15+0005EHGG V0202001N01081002401CN0040001N1+00801+00801999999ADDAG12999GA1031+002109079GA2051+002409079GA3081+003009079MA1099491999999MW1631OC101641
0075071800999991984060907004+48683+006217FM-15+0217LFSN V0203001N00261006301CN0112001N1+00901+00401999999ADDAG11999GA1081+006309059MA1101801999999REMMET006NOSIG?EQDQ01+000000PRSWM2
0078071900999991984011210304+48550+007633FM-15+0153LFST V0202001N00411007801CN0112001N1+00401+00201999999ADDAG12999GA1011+003009089GA2071+007809059MA1100611999999MW1601REMMET006NOSIG?
0135999999999991984073003004+11000+130100FM-13+9999JEZO V0202701N00671004201CN0200001N9+02701+02501101001ADDAG12000AY101031GF107991071051004501999999MD1710051+9999MW1021SA1+3009UA1M020109999UG1040153209REMSYN02922283 00300 20202 332// 40403
0064379070999991984112315004+39600+047150FM-12+043099999V0209991C00001220001CN0200001N9+01071+00861101561ADDAG12000AY101031GF102991021001999999041001MD1310071+9999MW1021
0064028640999991984061321004+65783+024583FM-12+0019EFKE V0200901N00361004201CN0300001N9+01031+00921101051ADDAG12002AY181031GF107991071031004501999999MD1010021+9999MW1801
0100315110999991984012415004+50783+127300FM-12+014599999V0202701N00301030001CN0200001N9-01641-01831103071ADDAA112000391AG10000AY171031GF108991081001999999011999KA1120M-01481MW1701REMSYN017333   11148 69932
0157119300999991984101500004+49200+020217FM-12+263399999V0203001N02401000151CN0000001N9+99999+99999999999ADDAA106000491AA299000591AG10000AY151061GA1091+000159999GF109991091999999999999999MD1610111+9999MW1491OA149903401REMSYN035333   69941 89/00 99744 91134 92150
0075166220999991984092408004+40517+022967FM-15+0008LGTS V0203201N00311220001CN0112001N1+02401+01501999999ADDAG12999GA1011+009009089MA1101021999999REMMET006NOSIG?EQDQ01+000000PRSWM2
0114724240138071984120318004+37900-085967SAO  +0230KFTK V0202701N004112200019N0112001N1+00281-00601102661ADDAA106000091AG10000GD12991+0105099GF102991999011999999001001MA1102611999999MD1010021+9999MW1001REMAWY008002 1100
0065130140999991984051700164+46217+014483FM-15+0362LYLJ V0201601N00101012001CN0112001N1+00801+00801999999ADDAG12001GA1081+012009059MA1100711999999MW1601REMMET009(170000)?
0058081750999991984091115304+41150+001117FM-15+0117LERS V0202301N00931999991CY0099001N1+02401+01201999999ADDAG12999MA1101801999999REMMET005CAVOKEQDQ01+000000PRSWM2
0155614210999991984012006004+20517-013067FM-12+0224GQPA V0200401N00311039001CN0100001N9+01441-00061101621ADDAA106000091AG14000AY101061GA1051+039009039GF105991051001999999071001KA1120N+99999MD1999999-0011MW1021REMSYN023333   20158 59001 85363EQDQ01 +01582ATMN  
0121915540999991984102521004-15517+167217FM-12+004199999V0209991C00001009001CN0200001N9+02461+02391100971ADDAG10999AY181031GF107991071081004501999999IA2240+02209KA1240N+02301MD1110151+9999MW1801REMSYN023555   24208 5//23 722//
0091062400999991984090517554+52300+004767FM-15-0004EHAM V0200201N00461220001CN0112001N1+01201+00901999999ADDAG12000GA1011+007509099GA2031+018009059MA1101491999999REMMET006NOSIG?EQDQ01+000000PRSWM2
0105722656230401984051513004+31783-103200SAO  +0859INK  V0201301N00771027001EN0320001N1+01831+01281999999ADDAG10999GD13991+0270099GD24991+0750099GF108991999999999999999999MA1101761999999MW1001REMAWY00963 FIRST?
0075076900999991984062603404+43650+007200FM-15+0010LFMN V0203401N00211999991CY0099001N1+01801+01401999999ADDAG12999MA1101591999999REMMET022CAVOK NOSIG? (260330)?EQDQ01+000000PRSWM2
0058163320999991984061712004+40233+018150FM-15+0061LIBN V0200301N00621220001CN0112001N1+02701+00901999999ADDAG11000GA1021+060009009REMMET004SCT?EQDQ01+000000PRSWM2
0050037850999991984082612004+51200+000783FM-12+009199999V0203201N00101220001CN0070001N9+02191+01071999999ADDAG11000AY141061GF100991001001999999001001MW1051
0152071490999991984071512004+48733+002400FM-12+0096LFPO V0203001N01031015001CN0300001N9+01941+00841101421ADDAA106000191AG10002AY181061GA1051+015009059GA2021+999999089GF106991061081012501999001MD1110131+9999MW1011REMSYN017333   8284/ 85650EQDQ01    003SCOMCG
0406702510265281984032412003+62300-150100SY-SA+0105TKA  V0200205N00215018295EN0096005N1-00565-01115100235ADDAA106000091AG10000AJ100259199999999AY101061GA1999+018295065GD14085+0180099GF108085081051017501999999KA1240M+00441KA2120N-00561MA1100141098855MD1110031+9999MW1021MW2455REMSYN035333   10044 21056 4/025 555   92412AWY027103 15// 90229 90410 44022?EQDQ01+000003PRSWM2N01 07000JPWTH 0QNNE11 0 00610G11 0 00060H11 0 15060K11 0 00012L11 0 00600M11 0 29190N11 0 07000Q11 0 10023S11 0 00022V11 0 01010X11 0 02004
0100347850999991984011900004+46917+047933FM-12-001799999V0201101N00201004201CN0500001N9-00211-00331102591ADDAG11000AY101061GA1081+004209059GF108991081051004501999999MD1710041+9999MW1021REMSYN011333   88614
0050012620999991984032703004+64717+010550FM-12+003399999V0201301N01231220001CN0300001N9-00151-00741999999ADDAG11000AY101031GF100991001001999999001001MW1021
0090619860999991984012706004-16450+059617FM-12+000499999V0201501N00211220001CN0250001N9+02741+02401100701ADDAG10999AY101061GF103991021081012501041021MD1999999-0051MW1021REMSYN017333   59005 94314
0063076430999991984022104004+43583+003967FM-15+0005LFMT V0200401N00621007801CN0112001N1+00401+00401999999ADDAG12999GA1051+007809059GA2071+030009039MA1101901999999MW1611
0100107080999991984031715004+49217+007117FM-12+0334EDRS V0200501N00361220001CN0045001N9+00901+00011100951ADDAG12000AY101031GA1011+010509089GF101991011021012501001001MD1710081+9999MW1051REMSYN011333   81835
0143718113999991984061411004+51700-076117SAO  +0244YHH  V0203101N00261001201BN0192001N1+00201+00201999999ADDAG10999GD13991+0012099GD23991+0240099GD33991+0600099GF107991999999999999999999MA1101291999999MW1001REMAWY032SAWR  VSBY NE          ?    3F ?
0146789880999991984012603004+12200-068967SY-MT+0017MACC V0200801N00671220001CN0600001N1+02621+02241101271ADDAG12000AY101031GA1041+004509089GF104991041021004501001001MA1101291999999MD1110191+0001MW1021REMSYN023333   02299 58000 84815EQDQ01+000000PRSWM2
0105718630999991984011208004+50433-104667SAO  +0577YQR  V0201601N00361021001EN0240001N1-01801-02201103341ADDAG10999GD14991+0210099GF108991999999999999999999MA1102741095921MW1761REMAWY005AC9 ?EQDQ01+999990APOSP 
026172231012916198405290700C+29983-090250SAO  +0001MSY  V0203505N002652200059N0112005N1+02335+01835101805ADDAA101000095AG10999GD12995+0240099GF101015999999999999999999MA1101801101695MW1001REMAWY021CB DSNT E OCNL LTGIC?EQDQ01+999990APOSP N01 00000JPWTH 0QNNE81 0 00299G21U0 99999K21 0 00065L21 0 00700M11 0 30030N21 0 00000Q21 0 10180S21 0 00074V11 0 00101X21 0 35005
0037727939999991984030821004+47517-122417SMARS+000191S  V0209991C000019999999N9999999N9+99999+99999999999ADDAG10999MW1001REMSYN012ALKI  POINT?
0064544970999991984031103004+40050+124333FM-12+001499999V0200401N00401036001CN0060001N9-00041-00261101191ADDAG12001AY171031GF108991081001999999011999MD1710111+9999MW1101
0050151200999991984123023004+46783+023567FM-12+041099999V0209991C00001007501CN0050001N9-00531+99999999999ADDAG12999AY121021GF108991081061008001999999MW1101
0063014520999991984080409204+58200+008083FM-15+0016ENCN V0200501N00261004201CN0112001N1+01501+01401999999ADDAG12002GA1021+002709079GA2061+004209079MA1101491999999MW1611
0064537980999991984102009004+37067+114500FM-12+007899999V0201601N00101220001CN0100001N9+02251-00081102031ADDAG12000AY101031GF100991001001999999001001MD1710161+9999MW1021
0133235190999991984041306004+64033+059500FM-12+029099999V0202801N00901030001CN0100001N9-01851-02341101581ADDAA112002091AG13000AY131061GF107991999001999999031001KA1120N-02051MD1210121+9999MW1381REMSYN017333   21205 60020EQDQ01+000062SCOTLC
0058083350999991984091313004+38517-005117FM-15+0550LEHI V0209991C00001999991CY0099001N1+02901+01201999999ADDAG12999MA1101801999999REMMET005CAVOKEQDQ01+000000PRSWM2
0078854420999991984010416004-23433-070467FM-15+0122SCFA V0202001N00511220001CN0112001N1+02401+01601999999ADDAG10999GA1011+009909079MA1101801999999REMMET0091ACJQTPV?EQDQ01+000000PRSWM2
0078726356999991984012220004+42117-086483SMARS+017720C  V0201801N004619999999N0129001N9-00491+99999103311ADDAG10999GF107991999999999999999999MW1001SA1-0119REMSYN019UNK   ST    JOSEPH?
0091076300999991984020623304+43633+001367FM-15+0152LFBO V0202601N00571007501CN0112001N1+00901+00401999999ADDAG12000GA1051+007509059GA2071+012009059MA1102711999999REMMET006NOSIG?EQDQ01+000000PRSWM2
0085719964999991984051716004+00000+000000SAO  +9999WVFN V0202001N01901000301WN0000001N1-01431-01431102551ADDAG10999GD15991+0003099GF109991999999999999999999MA1102541999999MW1451REMAWY004SAWR
0112119300999991984040709004+49200+020217FM-12+263399999V0200401N00301000151CN0000001N9+99999+99999999999ADDAG11000AY141031GA1091+000159999GF109991091999999999999999MD1210011+9999MW1471REMSYN023333   89/00 555   0//40
021572564024018198410222000C+41150-104817SAO  +1867CYS  V0200405N002652200059N0960005N1+00115-00895102815ADDAA101000095AG10999GD13995+0750093GF106015999999999999999999MA1102341081615MW1001EQDN01 00000JPWTH 0QNNE81 0 00399G21U0 99999K21 0 00016L21 0 06000M11 0 24100N21 0 00000Q21 0 10281S21 0 00034V11 0 00801X21 0 04005
031672438093819198405040300C+39733-086267SAO  +0241IND  V0200505N00265004885MN0080005N1+01335+01175099625ADDAA101000095AG10000GA1999+004885135GD14085+0048099GD20005+9999999GF108085999061999999999999MA1099631096755MD1010001+9999MW1455REMAWY009000 16//?EQDQ01+999990APOSP N01 07000JPWTH 0QNNE11 0 00610E11 0 00000G11 0 00016H11 0 13016K11 0 00053L11 0 00500M11 0 28570N11 0 07000Q11 0 09962S11 0 00056V11 0 01010X11 0 05005
0060837460999991984010309004-22817-043250FM-15+0006SBGL V0200801N00151220001CN0112001N1+02501+02201999999ADDAG10999GA1041+024009039MA1101391999999EQDQ01+000000PRSWM2
0058855620999991984100717004-33050-071400FM-15+0121SCBL V0209991C00001000601CN0070001N1+99999+99999999999ADDAG10999GA1071+000609059MW1051REMMET017S007!)1221 HR 73?
0064343730999991984112215004+50050+046883FM-12+003699999V0201601N00401030001CN0200001N9+00231-00051101841ADDAG11000AY101031GF106991061001999999031011MD1310081+9999MW1021
0064268980999991984111421004+53233+034383FM-12+0162UUBP V0200701N00301220001CN0180001N9-01061-01421103481ADDAG11000AY101031GF100991001001999999001001MD1610021+9999MW1021
0119278570999991984042103004+53500+042617FM-12+013399999V0200301N00501004201CN0100001N9+00261+00131101041ADDAG11000AY101031GA1081+004209099GF108991081031004501999999KA1120N+00261MD1810021+9999MW1021REMSYN017333   20026 88914
0075870780999991984100900004-24700-060583FM-12+0129SATK V0201401N00621220001CN0180001N9+02381+01781100791ADDAA106000091AG10999AY101061GF100991001001999999001001MD1310211+9999MW1021
0111999999999991984030112004+30100-055500FM-13+9999ULBI V0202401N01001220001CN0200001N9+02101+99999101591ADDAG12000AY101061GF100991001001999999001001MD1410001+9999MW1021SA1+2009UA1M990159999REMSYN01722254 00200 26503
0064298460999991984010106004+53733+087183FM-12+0236UNCE V0201601N00401030001CN0200001N9-00651-00851102731ADDAG12000AY101061GF108991021051012501051999MD1210181+9999MW1021
0098724235138101984080900004+38233-085667SAO  +0166LOU  V0202301N003112200019N0112001N1+03001+02221999999ADDAA106000091AG10000GD12991+0105099GD22991+0750099GF102991999999999999999999MA1101121999999MW1001
0100025260999991984060421004+57667+012300FM-12+0169ESGG V0201001N00511220001CN0250001N9+01811+01211101191ADDAG12000AY101031GA1011+060009009GF101991001001999999001021MD1310061+9999MW1021REMSYN011333   81070
0154134520999991984012012004+42567+018267SY-MT+0161LYDU V0201801N00821013501CN0112001N1+01001+01001101061ADDAA106015091AG11003AY161061GA1041+003009079GA2081+013509049GF108991041071004501021999MA1101021999999MD1710181+9999MW1611REMSYN011333   95990MET006NOSIG?
0114484600999991984120400004+13167+100800FM-12+002699999V0200401N00671220001CN0060001N9+02401+01491101151ADDAA106000091AG14000AY111061GF106991001001999999001061KA1120N+02301MD1999999+0011MW1051REMSYN017333   20230 58001
0064590960999991984101509004+24367+114483FM-12+021499999V0201801N00101012001CN0200001N9+02651+01981101501ADDAG12000AY101031GF108991081051012501999999MD1410001+9999MW1021
0108541610999991984010711004+43900+125217FM-12+0238ZYCC V0201801N00301220001CN0120001N9-01671-02201102141ADDAA106000091AG10999AY101021GF100991001001999999001001KA1240M-00881MD1710121+9999MW1021REMSYN011333   11088
0100063800999991984111004004+50917+005767FM-12+0114EHBK V0209999999999036001CN0120001N9+00961+00601101011ADDAG11999AY101011GA1061+036009039GF107991061001999999071011MD1210161+9999MW1021REMSYN011333   86362
0078999999999991984020312004+35900-046700FM-13+9999SHIP V0203401N01131036001CN0100001N9+01821+99999102681ADDAG12000AY111061GF107991041031008001031021MD1110231+9999MW1101REMSYN00522224
0100983280999991984061615004+16417+120600FM-12+1500RPUB V0209991C00001000301CN0004001N9+01651+01601100731ADDAG12003AY161031GA1091+999999999GF109991091999999999999999MD1110081+9999MW1601REMSYN011333   56999
0119103810999991984092918004+52467+013300FM-12+005899999V0200801N00261220001CN0130001N9+01311+00901101361ADDAG11000AY101061GA1011+012009089GF101991011011012501001001KA1120M+01691MD1110061+9999MW1021REMSYN017333   10169 81840
0131718010999991984120722004+47617-052750SAO  +0140YYT  V0202401N01291004801MN0192001N1+00501+00401099641ADDAG10999GD13991+0048099GD24991+0090099GF108991999999999999999999MA1099561097911MW1001OC102061REMAWY008SC6SC4 ?EQDQ01+999990APOSP 
0128111650999991984060609004+47200+014750FM-12+0677LOXZ V0202301N00411018001CN0600001N9+01681+00591100841ADDAG11000AY101031GA1021+013509059GA2051+018009089GF106991051081012501041011MD1210061+9999MW1021REMSYN023333   82645 85856 94558
0123839800999991984081912004-31333-054117FM-12+019699999V0200501N00871012001CN0100001N9+01261+00771102281ADDAA106000091AG10999AY101061GF106991061021012501001001KA1240N+01121MA1999999099391MD1510001+9999MW1021REMSYN011333   20112
004394999900164198404170500N-24950+150080AUST +0141     V0201355N001059999999N999999999+02405+01605999999ADDAY124999GF108995999999999999999999MW1055
0123011990999991984121006004+68750+023533FM-12+038299999V0200901N00101001201CN0015001N9-01601-01701999999ADDAA106000091AG10000AJ100309199999999AY121061GF105991051061001501001001IA1239KA1120N-01791MW1481REMSYN017333   21179 47030
0108034010999991984092313004+52950-004567FM-12+003799999V0203201N01441013501CN0080001N9+99999+99999999999ADDAG12999AY181041GA1041+006609099GA2081+013509059GF108991999999008001999999MW1811REMSYN017333   84922 88645
0076717050999991984030410004+46117-064683SAO  +0071YQM  V0202201N002612200019N0240001N1-01701-02201101561ADDAG10999GF100991999999999999999999MA1101521100671MW1001EQDQ01+999990APOSP 
0114723825231311984110412004+34583-117383SAO  +0876VCV  V0201901N002112200019N0400001N1+00721+00221101631ADDAA106000091AG10000GF100991999999999999999999MA1101831999999MD1810031+9999MW1001REMAWY004803?EQDQ01  00003PRCP99
0135999999999991984061812004+41000-010300FM-13+9999SHIP V0200201N00501007501CN0200001N9+01801+99999102011ADDAG11000AY121061GF107991061051008001011071MD1210111+9999MW1101SA1+1709UA1M990109999UG1060253609REMSYN02922283 00170 2//02 336// 40605
0070727456999991984070714004+46767-092083SMARS+018630Y  V0209991C00001220001CN0185001N9+01771+99999101691ADDAG10999GF101991999999999999999999MW1001REMSYN019M     M     DULUTH?
0101161790999991984080909164+43517+012733FM-16+0570LIVF V0201801N00771030001CN0112001N1+99999+99999999999ADDAG12000GA1041+012009099GA2031+030009039OC101491REMMET023BKN MON LIB NC VAL NIL?EQDQ01+000000PRSWM2
0185783180999991984122018004+22900-083150FM-12+002399999V0200701N00101220001CN0100001N9+02691+01741101871ADDAA106000091AG14000AY111061GA1011+006009089GF102991021081008001001011IA1019KA1120M+02721KA2240N+01771MD1810081+0031MW1051REMSYN053333   10272 20177 30/// 56200 58003 81820 555   10702
0127845150999991984022700004-08367-074583SY-MT+0148SPCL V0209991C00001220001CN0200001N1+02701+02401100581ADDAA106000091AG10999AY101061GA1011+009009089GA2021+075009009GF103991011021008001001011MA1100811999999MW1021EQDQ01+000000PRSWM2
0076160990999991984082113504+45650+012183FM-15+0018LIPH V0201801N00101220001CN0112001N1+02401+01301999999ADDAG12999GA1011+007509029GA2031+024009039MA1102001999999EQDQ01+000000PRSWM2
0133683120999991984011106004-26533+018117FM-12+1100FAKT V0209991C00001220001CN0750001N9+02091+00441999999ADDAA106000091AG10999AY101061GF100991001001999999001001KA1240M+03551KA2120N+01801MD1110131+9999MW1021REMSYN023333   20180 555   10355
0122036930999991984031316004+51533+000817FM-12+000299999V0200501N00821005101CN0040001N9+00451+00061102191ADDAG12999AY121011GA1051+005109089GA2071+010509059GF107991071081004501999999MD1610121+9999MW1051REMSYN017333   85817 87635
0095722025128491984050219004+26067-080150SAO  +0003FLL  V0201401N006712200019N0112001N1+02831+01721999999ADDAG10999GD12991+0075099GD22991+0750099GF102991999999999999999999MA1101801999999MW1001OC101241
0108478920999991984052600004+33233+132550FM-12+004399999V0202801N001019999999N0130001N9+02221+01621101731ADDAA106000091AG14000AY101061GF107991011021999999001021KA1120N+01551MD1710041+9999MW1021REMSYN011333   20155
0073072990999991984120120504+47600+007517FM-15+0270LFSB V0202801N00261000151CN0003001N1-00101-00101999999ADDAG12000ED199U04879GA1091+000159999MA1100711999999MW1431REMMET006NOSIG?
0138725755241011984080520004+41117-111967SAO  +1459HIF  V0201901N007212200019N0960001N1+03281+01561101051ADDAG10999GD12991+0180099GD22991+0300099GF102991999999999999999999MA1101761999999MW1001REMAWY042CB N AND S-SW          ?    RWU SW AND NW?
0024032260999991984022107004+54567-002417FM-12+024499999V0201301N008719999999N9999999N9+00251-00141099561ADDAG12999MD1410001+9999
0091082210999991984102603304+40467-003567FM-15+0595LEMD V0202501N00411220001CN0112001N1+01101+00901999999ADDAG12999GA1021+007509059MA1101801094981REMMET006NOSIG?EQDQ01+999990APOSP Q02+000000PRSWM2
0091275155999991984120712004+55967+037417FM-15+0190UUEE V0200701N00211004201CN0030001N1-01001-01201999999ADDAG11001GA1081+004209059MA1102101999999MW1711REMMET035NOSIG 250100     ?     95 75110095?
0050999999999991984041000004+46600-171400FM-13+9999D7EI V0201001N010819999999N0200001N9+99999+99999999999ADDAG12000AY101061GF108991999999999999999999MW1021
0065165970999991984072806304+35850+014483FM-15+0091LMML V0203501N00571999991CY0099001N1+02901+02001999999ADDAG12999MA1101691999999REMMET012CAVOK NOSIG?EQDQ01+000000PRSWM2
0129528560999991984012918004+36267+100617FM-12+274399999V0209991C00001090001CN0300001N9-01181-02311999999ADDAA106000091AG14000AY101061GF108991001001999999001071KA1240M-00651MA1999999071721MD1710041+0201MW1021REMSYN017333   00201 11065
0060082230999991984080413004+40367-003783FM-15+0690LEVS V0202001N00511220001CN0112001N1+02801+00401999999ADDAG12999GA1011+010509089MA1101691999999EQDQ01+000000PRSWM2
021672469023062198402231900C+39767-104867SAO  +1611DEN  V0201605N006252200059N0960005N1+00335-01395101375ADDAA101000095AG10999GF100005999999999999999999MA1101291083245MW1001EQDQ01+999990APOSP N01 00000JPWTH 0QNNE81 0 00099G21U0 99999K21 0 00007L21 0 06000M11 0 24580N21 0 00000Q21 0 10137S21 0 00038V11 0 00000X21 0 16012
0100621200999991984121709004+30383+013583FM-12+050199999V0202001N00511220001CN0200001N9+01191+00441999999ADDAG12000AY101031GA1031+060009029GF103991001001999999001081MD1310161+9999MW1021REMSYN011333   83270
0097476530999991984051506004+34633+137083FM-12+000899999V0201401N004619999999N0200001N9+01831+01131101111ADDAG12000AY101061GF106991051011999999031011KA1150M+01941MD1710101+9999MW1021REMSYN011555   00194
0064584570999991984111915004+30233+120167FM-12+0043ZSHC V0203201N00301012001CN0200001N9+00581-00031103001ADDAG12000AY101031GF108991081051012501999999MD1710031+9999MW1021
0061948510999991984072005004-39933+143867FM-12+0022AMKI V0202301N00671009001CN0500001N9+01041+00891102041ADDAA106000391AG10999AY151999GF107991061081004501001011MW1501
0095485500999991984062018004+09467+100050FM-12+000799999V0202401N00101045001CN0070001N9+02831+02311100441ADDAA106000091AG14000AY121061GF108991021021008001041061MD1999999-0171MW1101REMSYN011333   59017
0098889680999991984030306004-60733-044733FM-12+000499999V0209991C000019999999N0050001N9+00061-00101100701ADDAG10999AY121061GF108991999999002501999999MA1999999100551MD1410001+9999MW1101EQDQ01+999990APOSP 
0064298650999991984081418004+53750+091400FM-12+0245UNKA V0202101N00201007501CN0150001N9+01491+01291100671ADDAG12002AY181061GF107991051091008001031001MD1210091+9999MW1801
024672591024216198401080800C+40150-122250SAO  +0104RBL  V0201905N00215000615WN0016005N1+00565+00565102345ADDAA101000095AG10999GD15995+0006099GF108085999999999999999999MA1102371101075MW1455REMAWY00698000?EQDQ01+999990APOSP N01 07000JPWTH 0QNNE81 0 00799G21 0 00002K21 0 00042L21 0 00100M11 0 29845N21 0 07000Q21 0 10234S21 0 00042V11 0 01010X21 0 19004
0032103134999991984030609504+52133+007683FM-15+0048EDLG V0209991V00151000901CN0012001N1+00501+00401999999ADDAG12999GA1081+000909079MW1101
0152021280999991984072818004+65017+017683FM-12+0278ESPD V0201101N00261220001CN0500001N9+01541+01091100081ADDAA199011091AG10001AY191061GA1021+009909099GA2031+060009009GF104991021091012501001011KA1120M+01671MD1710071+9999MW1141REMSYN023333   10167 82933 83070
0100467360999991984061716004+24433+118433FM-15+0012RCBS V0209991C000010096019N0112001N1+02701+02601999999ADDAG12999GA1021+002409079GA2071+009609059MA1100101999999REMMET0152957INS CIG032?EQDQ01+000000PRSWM2
0150804280999991984071601004+09017-069733FM-15+0163MVGU V0202501N00051021001CN0112001N1+02201+02101999999ADDAG11999GA1011+006009099GA2021+006009059GA3031+021009049MA1101391999999REMMET049.?:+ 09002 7000 3SC020 3?-100 1CB810 23/23 10113?EQDQ01+000000PRSWM2
0058837460999991984021604004-22817-043250FM-15+0006SBGL V0209991C00001999991CY0099001N1+02701+02401999999ADDAG10999MA1101191999999REMMET005CAVOKEQDQ01+000000PRSWM2
0134716250999991984040517004+45950-077317SAO  +0130YWA  V0201001N002110018019N0032001N1+00401+00401100261ADDAG10999GD16991+0001599GD24991+0018099GF108991999999999999999999MA1100201098681MW1451MW2511MW3611REMAWY007F4SF6 ?EQDQ01+999990APOSP 
0067714400999991984041905004+51167-096633SAO  +0230WHL  V0200901N001019999999N0144001N1+00201-00601101891ADDAG10999MA1999999099041MW1001REMAWY008/ 2003 ?EQDQ01+999990APOSP 
0216801100999991984112612004+06217-075600FM-12+1498MCMD V0209991C00001045001CN0060001N9+01811+01551999999ADDAA199000791AG12000AY121061GA1021+006009079GA2041+010209059GF107991021061008001031001IA1099KA1240N+01781MA1101961085141MD1999999-0061MW1051REMSYN047333   20178 31/// 5600/ 59006 69970 82720 84634EQDQ01+999990APOA  
0064124950999991984030215004+51233+022567FM-12+024099999V0200901N00201004201CN0040001N9-00011-00101100581ADDAG11000AY121031GF108991081051004501999999MD1710151+9999MW1101
0075983250999991984060200004+16050+120333FM-12+000199999V0201601N00201220001CN0300001N9+02901+02481100871ADDAA106000091AG14000AY101061GF101991011021004501001021MD1110091+9999MW1021
0099992210999991984040514004+46100-131000FM-18+00034600 V02099999999999999999N9999999N9+00721+99999101771ADDAG12999OA139999999SA1+0949UA1I130259999REMSYN02922200 00094 11305 333   92112EQDQ01  01202WGOSPD
0064543740999991984041415004+41717+126917FM-12+033399999V0209991C00001012001CN0100001N9+00531+00481101471ADDAG12001AY161031GF108991081051012501999999MD1210061+9999MW1001
009272258013960198403202200D+32850-096850SAO  +0149DAL  V0203001N006212200019N0240001N1+02111+00331999999ADDAA101000095AG10999GF100991999999999999999999MA1101351999999MW1001OC101131REMAWY007FEW CI?
0064298640999991984062306004+53717+090367FM-12+052599999V0203201N00201220001CN0500001N9+02951+00931100911ADDAG12000AY101061GF103991001001999999001011MD1810061+9999MW1021
0091742070242011984010513004+47083-122583SAO  +0092GRF  V0203601N00051000301WN0005001N1+00941+00611102651ADDAG10999GD15991+0003099GF109991999999999999999999MA1102641999999MW1451REMAWY010RVR38 WR//
0107847520999991984012417004-16317-071550FM-15+2520SPQU V0202701N00411009001CN0080001N1+02001+01101999999ADDAG10999GA1021+006009059GA2031+009009059GA3021+024009039MA1102301999999MW1121REMMET019TIEMPO VRBL      ??
0075111200999991984022912504+47267+011350FM-15+0598LOWI V0209991C00001220001CN0112001N1+00601-00701999999ADDAG12999GA1011+021009089MA1100911999999REMMET006NOSIG?EQDQ01+000000PRSWM2
0149724457039381984082418004+37750-092150SAO  +0353TBN  V0200901N002610210019N0112001N1+02221+01281102101ADDAA106000091AG10000GD12991+0135099GD23991+0210099GF107991999051999999071001MA1102171999999MD1410001+9999MW1001REMAWY009400 1570?EQDQ01  00003PRCP99
0082702320265161984061500004+61583-159533SAO  +0026ANI  V0203601N000519999999N9999999N9+01831+00611999999ADDAA106000091AG10000MA1100881999999MD1010221+9999REMAWY004022?EQDQ01+000002VOVAR 
0107107715999991984080516004+49217+011833FM-15+0442EDIH V0202001N002110270019N0112001N1+02001+01501999999ADDAG11999GA1021+006009059GA2061+027009049MA1102241999999REMMET022CIG090     ?     LAST?EQDQ01+000000PRSWM2
0064864400999991984090615004-32417-054333FM-12+0092SUMO V0200901N00411090001CN0100001N9+02081+01431101541ADDAG10999AY101031GF107991021011008001001061MD1710101+9999MW1021
0125858860999991984121215004-46600-071717FM-12+0382SCCC V0201901N00261220001CN0300001N9+01811+00091101351ADDAG10999AY101031GA1011+013809089GF101991011011999999001001MD1810031+9999MW1021REMSYN017333   56600 81846EQDQ01+000992SCOLCB
0149674410999991984120618004-11750+024433FM-12+1363FLMW V0203301N00101033001CN0300001N9+01961+01741999999ADDAG10999AY161061GA1011+009009099GA2031+009009059GA3071+033009039GF107991031041012501071999KA1120M+02541MW1601REMSYN029333   10254 81930 83630 87361
0220722320128841984082220003+29333-089400SAO  +0000BVE  V0201705N00465009145EN0096005N1+03005+02395101785ADDAG10999GD13995+0090099GF105055999999999999999999MA1101801101785MW1055REMAWY007TCU NW?EQDN01 08100JPWTH 0QNNE11 0 00499G11 0 00030K11 0 00075L11 0 00600M11 0 30055N11 0 08100Q11 0 10178S11 0 00086V11 0 00606X11 0 17009
0091163200999991984030516504+40650+017950FM-15+0015LIBR V0200401N00931004801CN0112001N1+00901+00401999999ADDAG12999GA1051+004809059GA2061+027009039MA1101021999999REMMET006NOSIG?EQDQ01+000000PRSWM2
0057744600999991984122713004+41367-088683SAO  +0225MMO  V0202201N003619999999N9999999N9+00391+00221999999ADDAG10999MA1102471999999REMAWY004000?EQDQ01+000002VOVAR 
0117128600999991984022012004+47167+020233FM-12+008699999V0202301N00101006001CN0008001N9+00001-00041102601ADDAA106000191AG10001AY171061GA1051+006009079GF108991051071008001021999MD1810011+9999MW1711REMSYN017333   69911 85720
0064346010999991984070600004+47800+035250FM-12+008699999V0202101N00501220001CN0100001N9+01551+00901100811ADDAG11000AY101061GF100991001001999999001001MD1810021+9999MW1021
0087702735264091984070602004+61217-149833SAO  +0041MRI  V0202501N002610600019N0800001N1+02001+01061999999ADDAG10999GD12991+0300099GD24991+0600099GF108991999999999999999999MA1101491999999MW1001
0065714320999991984081316004+43233-079217SAO  +0079WWZ  V0209991C000019999999N0080001N1+02301+02101101891ADDAG10999MA1999999100961REMAWY012/     2003 ?EQDQ01+999990APOSP 
0061489140999991984050700004+09167+105167FM-12+000399999V0203601N00101007501CN0200001N9+02541+02471999999ADDAA106000091AG14000AY101061GF107991071091008001999999MW1021
0071726405948691984073102424+43117-088050SAOSP+0227MWC  V0201801N003112200019N0192001N1+99999+99999999999ADDAG10999GF100991999999999999999999MA1101931999999MW1001REMAWY005LAST?
0094992230999991984112321004+45300-082800FM-18+00034500 V0202601N003019999999N9999999N9+00451+99999102031ADDAG12000MD1710201+9999OA139900401SA1+0559UA1I050109999REMSYN02922200 00055 10502 333   92104
0105719660999991984121605004+64050-139133SAO  +0369YDA  V0200601N001512200019N0320001N1-03101-03301103861ADDAG10999GD13991+0270093GF107991999999999999999999MA1103181098761MW1701REMAWY005AS2 ?EQDQ01+999990APOSP 
0113999999999991984110606004+37200+004500FM-13+9999GOYD V0202601N00931002101CN0200001N9+01601+01241100901ADDAG12000GF107991071091002501999999MD1210121+9999UA1M030159999UG1050202609REMSYN02922224 00/// 20303 326// 40504
0083725086999991984121212004+41367-073483SAO  +0139DXR  V0209991C00001006001EN0048001N1+00221+00171999999ADDAA106000091AG10000GD14991+0060099GF108991999999999999999999MA1101461999999MW1451
0134712625999991984121012004+43200-079167SAO  +0098YSN  V0201801N005110660019N0160001N1+00401+00001101351ADDAA106000091AG10000GD12991+0270099GD23991+0660099GF107991999999999999999999MA1101291999999MD1810141+9999MW1001REMAWY013AC2CI5 8014 ?
0064028790999991984081015004+64900+029017FM-12+0223EFSU V0200601N00101012001CN0500001N9+01731+01211101481ADDAG12002AY181031GF107991051091012501001011MD1710141+9999MW1251
0095250440999991984031903004+69483+166550FM-12+000699999V0200801N00201220001CN0500001N9-02511-02751102841ADDAG12000AY101031GF100991001001999999001001MD1010001+9999MW1021OA149900601REMSYN011555   91106
0060032431999991984030312204+55033-001683FM-15+0081EGNT V0203401N00721220001CN0112001N1+00501-00401999999ADDAG12000GA1011+009009089MA1101901999999EQDQ01+000000PRSWM2
0140846860999991984051606004-13550-071983SY-MT+3248SPZO V0209999999999220001CN0200001N1+00701+00251999999ADDAA106000091AG10999AY101061GF100991001001999999001001MA1102711068841MD1999999+0041MW1021REMSYN011333   58004MET005CAVOKEQDQ01+000000PRSWM2
0217746120931041984110220003+35683-117683SAO  +0677NID  V02099959000052200059N0112005N1+02505-00445101555ADDAG10999GD12045+0420099GD22045+0600099GF104995999999999999999999MA1101661999999MW1001REMAWY008ACSL NW?QNNE41 0 00205E41 0 00205G41U0 99999K41 0 00024L41 0 00700C41 0 30020Q41 0 10155S41 0 00077V41 0 00599X41 0 00000
0106718030999991984053110474+48950-054567SAOSP+0151YQX  V0202001N003610018019N0128001N1+99999+99999999999ADDAG10999GD12991+0009099GD23991+0018099GD33991+0810099GF107991999999999999999999MW1001REMAWY010SF2SF6CI1?
0090471580999991984032221004+35117+126817FM-15+0013RKJJ V0209991C000010600019N9999999N1-00401-00601999999ADDAG12000GA1011+036009049GA2051+060009029MA1102511999999MW1101REMMET018CIG200/QFF1025PT6?
0064152920999991984071403004+45417+022250FM-12+0241LRCS V0209991C00001220001CN0200001N9+01901+01831101661ADDAG11000AY101031GF100991001001999999001001MD1410001+9999MW1021
0064319430999991984030106004+44833+134833FM-12+999999999V0202701N00601220001CN0500001N9-01241-02321101161ADDAG11000AY131061GF100991001001999999001001MD1710081+9999MW1361
0143717390999991984012315004+48567-081383SAO  +0295YTS  V0202001N001012200019N0160001N1-01301-01601102691ADDAG10000GD12991+0150099GD23991+0750093GF107991999999999999999999MA1102401098891MW1001REMAWY028SC1CI3 FROIN     ?    3002 ?EQDQ01+999990APOSP 
0099039690999991984110623304+53433-006250FM-15+0085EIDW V0200801N00571010501CN0112001N1+00701+00501999999ADDAG12000GA1011+004509079GA2041+005409079GA3061+010509059MA1100101999999MW1501REMMET011TEMPO 8000?
0135999999999991984121406004-33500-161200FM-13+9999H3QI V0203501N00261220001CN0500001N9+02001+01581102391ADDAG10999AY121061GF104991041021008001041999MD1410001+9999MW1021SA1+1909UA1M020109999UG1030151909REMSYN02922263 00190 20202 319// 40303
0141999999999991984101112004-40700+173800FM-13+9999ZMJG V0202701N01901220001CN0100001N9+01231+01201100001ADDAG10999AY101061GF101991011011002501001001MD1110201+9999MW1071SA1+1109UA1M040259999UG1080252809REMSYN03522271 00110 20405 32800 40805 50000
0075155561999991984062211004+43233+027833FM-15+0083LBWN V0201101N00511060001CN0060001N1+02701+01501999999ADDAG12999GA1071+060009029MA1101081999999REMMET006NOSIG?EQDQ01+000000PRSWM2
023172411013741198402051900C+37317-079967SAO  +0350ROA  V0203005N00825012195EN0560005N1+00395-01005100265ADDAA101000095AG10999GD13995+0120099GF105055999999999999999999MA1100241096045MW1001EQDQ01+999990APOSP N01 00000JPWTH 0QNNE81 0 00499G21 0 00040K21 0 00014L21 0 03500M11 0 28360N21 0 00000Q21 0 10026S21 0 00039V11 0 00606X21 0 30016
0072724565139201984041117004+38950-095667SAO  +0324FOE  V0201601N00771004501EN0112001N1+01441+01001999999ADDAG10999GD13991+0045099GF107991999999999999999999MA1100641999999MW1001
028099999911641198411041400E+18433-066000SAO  +000399999V0200805N004150243859N019200599+02725+02335101125ADDAA101000095GD12995+9999999GD22995+9999999GD33995+9999999GD44995+9999999GF108075999999999999999999MA1999999100855EQDN01 00000JPWTH 0QNNE11 0 00299E11 0 00299E11 0 00499E11 0 00699G11 0 00080K11 0 00074L11 0 01200M11 0 29780N11 0 00000Q11 0 10112S11 0 00081V11 0 01009X11 0 08008
0148725280147331984120612444+42933-078733SAOSP+0215BUF  V0202801N002610033019N0024001N1+99999+99999999999ADDAA106999999AG10001GD12991+0009099GD23991+0033099GD34991+0060099GF108991999999999999999999MA1100581098031MW1711EQDQ01+999990APOSP Q02  00002PRCP06
0130070170999991984011318004+50217+003150FM-12+0078LFQI V0202801N01081220001CN0250001N9+00881+00391100381ADDAA199001091AG10001AY161061GA1031+012009059GF103991031051012501001001KA1999M+01181MD1210421+9999MW1011REMSYN017333   10118 83640
0090080150999991984122812004+43367-005850FM-12+026099999V0209991C00001090001CN0040001N9+00941+00641102871ADDAA106000091AG14000AY121061GF105991011051008001031011MA1999999098791MD1210121+9999MW1101
0114388670999991984072815004+38283+071333FM-12+173799999V0203401N00701220001CN0750001N9+03091+00251999999ADDAA106000091AG14000AY101031GF104991041051999999001001MD1810071+9999MW1021REMSYN011333   0328/EQDQ01+000992SCOLCB
0135999999999991984052712004+30900-066800FM-13+9999GPUJ V0201001N00461220001CN0200001N9+02351+01841102731ADDAG11000AY101061GF102991011021004501031001MD1210261+9999MW1021SA1+2349UA1M010059999UG1050151409REMSYN02922214 00234 20101 314// 40503
0050330410999991984061721004+52450+031000FM-12+013999999V0202701N00201220001CN0060001N9+01261+01061101261ADDAG12000GF102991001001999999001021MD1210111+9999
0101725377148041984042305004+42617-082833SAO  +0177MTC  V0201001N00621001501MN0320001N1+00441+00331100471ADDAG10999GD13991+0015099GD24991+0024099GF108991999999999999999999MA1100441999999MW1001REMAWY005RCRNR
0105710940999991984082919004+66583-061617SAO  +0376YVN  V0202901N001512200019N0320001N1+00401-00201101811ADDAG10999GD12991+0075099GF102991999999999999999999MA1101521096901MW1001REMAWY005CF1 ?EQDQ01+999990APOSP 
0064042200999991984051415004+68700-052750FM-12+0040BGEN V0200301N00461220001CN0750001N9-00401-00661102711ADDAG12000AY101031GF100991001001999999001001MD1710201+9999MW1021
0064339100999991984021712004+46167+034817FM-12+001599999V0200701N00501220001CN0200001N9-00201-00501103481ADDAG11000AY101061GF108991001001999999001041MD1810021+9999MW1021
0075265090999991984111303004+55700+021083FM-12+001099999V0201401N00501220001CN0120001N9-00401-00551103321ADDAA106000091AG14000AY101031GF103991001001999999001021MD1710051+9999MW1021
0065614150999991984111221004+20933-017033FM-15+0003GQPP V0203601N00821999991CY0099001N1+01901+01501999999ADDAG12000MA1101591999999REMMET012CAVOK NOSIG?EQDQ01+000000PRSWM2
0047012230999991984120210004+63117+007833FM-15+0062ENKB V0202601N00311002701CN0080001N1+00801+00801999999ADDAG12999GA1051+002709079MA1100911999999MW1101
0096106870999991984102117004+49700-011950FM-15+0415EDIC V0209991C000010120019N0112001N1+00401+00401999999ADDAG11999GA1051+012009059GA2081+060009009MA1102241999999REMMET030CIG040     ?     PRESRR RCRNR?
0107164050999991984101916504+38183+013100FM-15+0021LICJ V0200801N00211036001CN0112001N1+02101+01401999999ADDAG12999GA1021+006009089GA2041+036009039GA3051+054009009MA1101801999999REMMET006NOSIG?EQDQ01+000000PRSWM2
0092837460999991984123111004-22817-043250FM-15+0006SBGL V0209991C00001090001CN0112001N1+02401+02101999999ADDAG10999GA1021+006009059GA2031+024009039GA3071+090009009MA1100811999999EQDQ01+000000PRSWM2
0100999999999991984032801004+52200+004200FM-13+9999PLAT V0202801N013419999999N9999999N9+00661+00521099301ADDAG12999MD1210111+9999OA149901541SA1+0519UA1I040059999REMSYN03522200 00051 10401 333   91130 91226
0044722120128331984031423004+29617-083100SAO  +0013CTY  V0200901N001519999999N9999999N9+02441+01001999999ADDAG10999MA1101591999999EQDQ01+000002VOVAR 
0076105000999991984071423504+50967+006050FM-15+0089EDNG V0202401N00211012001CN0112001N1+01601+01501999999ADDAG12000GA1041+008109059GA2071+012009059MA1100911999999EQDQ01+000000PRSWM2
0135999999999991984091818004-26200-041100FM-13+9999GUQJ V0201101N00721220001CN0500001N9+01961+01211102121ADDAG10999AY101061GF106991041011004501001061MD1710061+9999MW1021SA1+2109UA1M030109999UG1070201409REMSYN02922234 00210 20302 314// 40704
0108505570999991984062718004+49167+125217FM-12+024399999V0201801N00101220001CN0200001N9+01171+01101100391ADDAA106000091AG10000AY101061GF100991001001999999001001KA1240M+02181MD1710051+9999MW1021REMSYN011333   10218
0075074810999991984032315304+45733+005083FM-15+0240LFLL V0209991C00001220001CN0080001N1+01401+00301999999ADDAG12999GA1011+009009089MA1100911999999REMMET006NOSIG?EQDQ01+000000PRSWM2
0135106550999991984030621004+49800+009900FM-12+025999999V0203201N00151220001CN0100001N9+00281-00021103311ADDAG11000AY101031GA1011+015009059GF102991011051999999999011MD1010001+9999MW1021REMSYN011333   81650EQDQ01+000992SCOLCBQ02    003SCOMCG
0108586550999991984041506004+28450+120400FM-12+999999999V0201801N00301220001CN0250001N9+99999+99999100771ADDAA106000091AG14000AY141061GF101991999999008001999999KA1240N+01211MD1710321+9999MW1001REMSYN011333   20121
0085166820999991984112510154+37917+021300FM-15+0011LGAD V0203401N00311220001CN0112001N1+01901+01401999999ADDAG12999GA1011+007509089MA1101901999999REMMET016NOSIG? (250950)?EQDQ01+000000PRSWM2
0047476880999991984110415004+34983+139833FM-15+0005RJTE V0201801N00461006001CN0112001N1+01501+01201999999ADDAG12003GA1071+006009089MA1102641999999MW1801
0076103350999991984051401454+52283+009083FM-15+0070EDCB V0202001N00051018001CN0112001N1+00501+00301999999ADDAG11999GA1051+018009059GA2071+036009039MA1101691999999EQDQ01+000000PRSWM2
0087722730031241984112913004+31583-110333SAO  +1422FHU  V0203001N002112200019N0480001N1+00611+00391101501ADDAG10999GD12991+0120099GF102991999999999999999999MA1101761999999MW1001REMAWY006FIRST?
0222766870999991984112812004+19533-096917FM-12+138999999V0203601N00301000601CN0010001N9+01041+01001102111ADDAA106002091AA224007591AG10000AY151061GA1081+000609059GF108991081051001501001001IA1119KA1240M+02401KA2120N+00961MA1999999086981MD1310021+0851MW1501OA139900401REMSYN053333   10240 20096 32/// 58085 70075 88602 92032 92104
010472567024032198412021100C+42867-100550SAO  +0788VTN  V0203105N004659999999N9999999N9-00835-01225999999ADDAA101000095AG10999MA1101961999999REMAWY004000?EQDQ01+000002VOVAR QNNK11 0 00010S11 0 00017X11 0 31009
0050268500999991984041700004+53867+027533FM-12+0234UMMM V0201501N00201220001CN0060001N9+00801-00071102031ADDAG12000GF100991001001999999001001MD1210051+9999
0111999999999991984101300004+43700-047500FM-13+9999UORF V0203201N02201002101CN0040001N9+01201+99999100041ADDAG12001AY121061GF108991071071002501021001MD1210051+9999MW1601SA1+1609UA1M120559999REMSYN01722233 00160 21211
0078724235138101984031802004+38233-085667SAO  +0166LOU  V0200401N00261001801EN0040001N1+00501+00441999999ADDAG10999GD14991+0018099GF108991999999999999999999MA1101861999999MW1451MW2511
0197387730999991984020703004+38917+058467FM-12+008799999V0209991C00001220001CN0200001N9-01891-02021102971ADDAA106000091AA224000091AG10000AJ100059199999999AY101031GF100991999001999999001001IA1239IA2999-01809KA1120N-01981MD1710011+9999MW1021REMSYN035333   21198 555   3/118 47005 7000/EQDQ01+000902SCOLCB
0075072220999991984092913004+47167-001600FM-15+0027LFRS V0203001N00261220001CN0112001N1+01901+01201999999ADDAG12999GA1031+009009089MA1101081999999REMMET006NOSIG?EQDQ01+000000PRSWM2
0122037170999991984112908004+51467-003167FM-12+005299999V0201901N00361010501CN0200001N9+01041+00831100871ADDAG12999AY101021GA1031+006009089GA2041+010509059GF105991051081008001001001MD1610031+9999MW1021REMSYN017333   83820 84635
0064314420999991984020209004+51983+127650FM-12+027699999V0203201N00201220001CN0500001N9-02631-03091102541ADDAG11000AY101031GF102991001001999999001011MD1210121+9999MW1021
0076718740999991984100708004+49633-112800SAO  +0929YQL  V0202601N005712200019N0800001N1+01301+00201101941ADDAG10999GF100991999999999999999999MA1101931091201MW1001EQDQ01+999990APOSP 
0075067000999991984102805504+46250+006133FM-15+0416LSGG V0209991C00001009001CN0112001N1+00801+00601999999ADDAG12000GA1071+009009059MA1102611999999REMMET006NOSIG?EQDQ01+000000PRSWM2
0064319690999991984062703004+42650+130800FM-12+001699999V0209991C00001220001CN0200001N9+02141+01721100291ADDAG11000AY101031GF103991031021012501001001MD1410001+9999MW1021
0092714750999991984032814004+49250-124833SAO  +0002WQC  V0209991C000010123019N0144001N1+00201+00201999999ADDAG10999GD12991+0045099GD24991+0123099GF108991999999999999999999MW1001REMAWY011/     MMMM?
030972567024032198402022000C+42867-100550SAO  +0788VTN  V0203005N00725004575EN0400005N1+00285-00445101455ADDAA101000095AG10999GD13995+0045099GD24995+0750099GF108065999999999999999999MA1101291092135MD1010001+9999MW1775REMAWY045PK WND 46 000 COR PK WND EST 35 SGB 30 NOSPL?EQDN01 05600JPWTH 0QNNE11 0 00499E11 0 00699G11 0 00015K11 0 00024L11 0 02500M11 0 27205N11 0 05600Q11 0 10145S11 0 00037V11 0 01008X11 0 30014
0057725765240611984062614004+43050-108450SAO  +1679RIW  V0203001N002612200019N0640001N1+02001+00781999999ADDAG10999GF100991999999999999999999MA1102001999999MW1001
013074754013934198411241500D+31333-092550SAO  +0027KAEX V0200801N001010750019N0112001N1+00561+00061102501ADDAA101000095AG10000GD12991+0240099GD23991+0750099GF107991999001999999071081MA1102511999999MD1810171+9999MW1001REMAWY009817 1078?
0057725776999991984081816004+43600-110733SAO  +1964JAC  V0209991C000012200019N0320001N1+01561+01061999999ADDAG10999GF100991999999999999999999MA1102611999999MW1001
0135999999999991984062806004-21700+037500FM-13+9999VPIO V0201301N00771007501CN0200001N9+02401+01761102121ADDAG10999AY121061GF105991051031008001001001MD1210181+9999MW1151SA1+2509UA1M050059999UG1050101309REMSYN02922243 00250 20501 313/3 40502
0136164600999991984061818004+37467+015050FM-12+0017LICC V0200901N00311220001CN0050001N9+02201+02001102181ADDAA106000091AG14000AY101061GA1021+009009089GF102991021021008001001001KA1120M+02541MD1110061+9999MW1101REMSYN023333   10254 82830 95890
0064231790999991984091621004+68200+090033FM-12+009199999V0202701N00301220001CN0500001N9-00361-00441100551ADDAG12000AY101031GF103991031001022501031001MD1710011+9999MW1021
0074474250999991984031321304+42800+141650FM-15+0028RJCC V0209991C00001220001CN0112001N1-01801-01801999999ADDAG12999GA1011+009009089MA1101691999999REMMET0053004?EQDQ01+000000PRSWM2
0308780160136011984062920003+32367-064683SAO  +0006TXKF V0201405N006252200049N0112005N1+02725+02285102515ADDAG12999GA1021+003054084GA2051+054864004GD14025+9999999GD24055+9999999GD30995+9999999GD40995+9999999MA1102471102375REMMET006CIGNO?EQDN01 00000JPWTH 1QNNE11 1 00603E11 1 00606E11 1 00099E11 1 00099G11U1 99999H11 1 11010H11 1 32180K11 1 00073L11 1 00700M11 1 30230N11 1 00000Q11 1 10251S11 1 00081X11 1 14012
0057724397999991984022923004+40483-088933SAO  +0267BMI  V0202901N005112200019N0320001N1+99999+99999999999ADDAG10999GF100991999999999999999999MA1101691999999MW1001
0136607350999991984011318004+35667+010100FM-12+0068DTTK V0203401N00311220001CN0120001N9+00971+00401101951ADDAA106000091AG14000AY101061GA1031+009009059GF103991031051008001001001KA1120M+01201MD1210321+9999MW1021REMSYN023333   10120 83630 95539
0064999999999991984030707004+37300+009800FM-13+9999PGQM V0203601N01601220001CN0200001N9+01211+99999101971ADDAG12999AY101999GF102991999999999999999999MW1021REMSYN00522223
