023672434013994198502141700C+38750-090367SAO  +0163STL  V0202905N009352200059N0160005N1-00505-01225102175ADDAA101000095AG10999GF100005999999999999999999MA1102101100035MW1001REMAWY011AC N CI SW?EQDQ01+999990APOSP N01 00000JPWTH 0QNNE81 0 00099G21U0 99999K21 0 00010L21 0 01000M11 0 29540N21 0 00000Q21 0 10217S21 0 00023V11 0 00000X21 0 29018
0048082210999991985112612054+40467-003567FM-16+0582LEMD V0209991C00001003601CN0060001N1+99999+99999999999ADDAG12001GA1041+002409079GA2061+003609059MW1501
0036964710999991985122521004+05950+116050FM-12+0003WBKK V0201001N00151045001CN0200001N9+02461+02371100901ADDAG12000GF108991021081004501041081
0050094990999991985092416004+51167+014950FM-12+023899999V0202801N00201007501CN0090001N9+01611+01151101731ADDAG12999GF107991051021008001071999MD1710041+9999
0071123750999991985012322304+52183+020983FM-15+0110EPWA V0201801N00211030001CN0060001N1+00101+00001999999ADDAG12999GA1071+030009039MA1100201999999MW1101REMMET015NOSIG 33710195?
0100103840999991985040203004+52467+013400FM-12+0050EDBB V0201901N00461030001CN0060001N9+01061+00871101001ADDAG12000AY121031GA1071+030009039GF107991071001999999071999MD1710151+9999MW1601REMSYN011333   87360
0050800220999991985101220004+10450-075517FM-15+0012MCCG V0203501N00311220001CN0112001N1+03001+02501999999ADDAG12999GA1011+006009089MW1051REMMET00973 10007?
0064321560999991985030803004+46633+142783FM-12+003499999V0202001N00601090001CN0500001N9-00181-00421102531ADDAG11000AY101031GF108991001001999999001021MD1810171+9999MW1021
0095035961999991985030112004+52133+001433FM-15+0026EGVJ V0201601N003610006019N0010001N1+00301-00201999999ADDAG12002ED199U10059GA1031+000159999GA2081+000609079MA1101251999999MW1611REMMET012CIGM002 AMB?
0073994050999991985052415004+26600-080000FM-12+9999LKWF V0201801N003619999999N9999999N9+02671+99999101461ADDAG12000OA139900411SA1+2679REMSYN035222// 00267 333   92108 555   91500
0064592870999991985010909004+23133+113317FM-12+0007ZGGG V0203601N00201004201CN0030001N9+00721+00621102221ADDAG12002AY161031GF108991081071004501999999MD1210051+9999MW1601
0057722336999991985052919004+28133-093667SAO  +0001ADN  V0201201N006212200019N0240001N1+00281-00821999999ADDAG10999GF100991999999999999999999MA1105521999999MW1001
0091852010999991985031908004-16500-068183FM-15+4050SLLP V0209991C00001021001CN0112001N1+00401+00401999999ADDAG10999GA1031+003909059GA2041+021009049MA1103491999999REMMET006626.3?EQDQ01+000000PRSWM2
0114130140999991985031214004+46217+014483FM-15+0362LYLJ V0209991C00001012001CN0025001N1+00101+00001999999ADDAG12999GA1031+000909079GA2051+012009059GA3081+024009049MA1102711999999MW1681REMMET026NOSIG      ?     31190095?
0088714310999991985112707004+43950-078167SAO  +0077WNC  V0203401N002619999999N9999999N9-00301-00601101231ADDAG10999MA1999999100271MD1210201+9999REMAWY00511MM?EQDQ01+999990APOSP Q02+000002VOVAR 
0120043200999991985011218004+76767-018767FM-12+0011BGDH V0203101N00101220001CN0750001N9-02011-02661100211ADDAA106000091AG10000AY131061GF101991001001999999001051KA1120M-01651MD1210181+9999MW1021REMSYN023333   11165 555   21240
0161718180999991985022100004+53700-057033FM-12+0014WCA  V0202801N00621220001CN0240001N9-01841-02361102031ADDAA106000091AG10000AY101061GF100991001001999999001001KA1120M-01301KA2180N-02351MA1102001101841MD1810071+9999MW1021REMSYN017333   11130 21235EQDQ01+999990APOA  
0065616410999991985061217004+14733-017500FM-15+0024GOOY V0203201N00571999999CY0099001N1+02601+02101999999ADDAG12999MA1101191999999REMMET012CAVOK NOSIG?EQDQ01+000000PRSWM2
0072722897999991985111305004+35233-120650SAO  +0063SBP  V0209991C000012200019N0128001N1+00561+00391999999ADDAG10999GD12991+0120099GF102991999999999999999999MA1101931999999MW1001
0137467700999991985091613004+24267+120617FM-15+0203RCMQ V0200201N002110150019N0112001N1+02501+02401999999ADDAG12999GA1021+002409079GA2031+002409079GA3031+007509059GA4081+015009059MA1100611999999REMMET020CIG050 QFF 1005.2MB?EQDQ01+000000PRSWM2
0077471040999991985120906004+37883+127817FM-15+0076RKNC V0202701N00621220001CN0112001N1-00401-02001999999ADDAG12000GA1011+006009089MA1102071999999MW1001OC100931REMMET013QFF E1021PT2?
0072125750999991985111503004+50033+020983FM-12+020999999V0203101N00201004201CN0018001N9+00001-00041102601ADDAG12001AY171031AY271031GF108991081051004501999999MD1110111+9999MW1221
0114306510999991985081212004+53917+113417FM-12+086599999V0209991C00001007501CN0100001N9+01171+01131100251ADDAA112006091AG10003AY161061GF108991081071008001999999KA1120M+01551MD1210051+9999MW1611REMSYN017333   10155 60062
0065112400999991985091112204+47000+015450FM-15+0347LOWG V0209991V00101999991CY0099001N1+02101+00901999999ADDAG12000MA1102511999999REMMET012CAVOK NOSIG?EQDQ01+000000PRSWM2
0094239140999991985061506004+60400+056483FM-12+020699999V0201101N00201220001CN0500001N9+02011+00711101901ADDAA106000091AG14000GF102991021021012501001001KA1120N+01311MD1810061+9999REMSYN011333   20131
0060637080999991985012119004-00100+034750FM-15+1146HKKI V0203401N00261220001CN0112001N1+02501+01601999999ADDAG10999GA1011+006609059MA1101191999999EQDQ01+000000PRSWM2
0107727827241101985123121004+47200-119317SAO  +0362MWH  V0209991C00001001201WN0016001N1-00661-00821999999ADDAG10000GD15991+0012099GF109991999999999999999999MA1102241999999MW1451REMAWY026R32RVV11/2+  VSBY E-S 1/2?
0094233320999991985081218004+66750+067750FM-12+003199999V0202001N00401220001CN0400001N9+00691+00281101191ADDAA106000091AG14000GF102991021001999999031001KA1120M+01331MD1310091+9999REMSYN011333   10133
0065154200999991985080506304+44500+026133FM-15+0090LRBS V0202301N00211999991CY0099001N1+02301+01701999999ADDAG12999MA1101021999999REMMET012CAVOK NOSIG?EQDQ01+000000PRSWM2
0093724371938231985093016364+39450-087300SAOSP+0181HUF  V0202801N004610033019N0048001N1+99999+99999999999ADDAG10999GD12991+0015099GD24991+0033099GF108991999999999999999999MA1101731999999MW1451MW2511
0116171700999991985082218004+38467+043350FM-12+1661LTCI V0202901N00511220001CN0200001N9+02381+01481999999ADDAA106000091AG14000GA1011+012009089GF101991011011012501001001KA1120M+02941MD1210121+9999REMSYN017333   10294 81840
0097999999999991985090206004+43800+146100FM-13+9999UDYR V0203401N01101220001CN0200001N9+01501+99999101711ADDAG12000GF103991031001022501081001MD1210301+9999SA1+1489UA1M050159999REMSYN01722200 00148 20503
0103723840231551985010220084+35417-119050SAOSP+0150BFL  V0202901N002612200019N0008001N1+99999+99999999999ADDAG10999GD16991+0001599GF110991999999999999999999MA1102811101001MW1451REMAWY003F7?EQDQ01+999990APOSP 
0108064500999991985070501004+51183+004450FM-12+0014EBAW V0202301N00151060001CN0100001N9+01961+01701101471ADDAG12999GA1041+030009039GA2041+060009009GF105991041001999999031021MD1810051+9999REMSYN017333   84360 84070
0088714850999991985100819004+50933-127633SAO  +0017WLP  V0201401N004119999999N9999999N9+00701+00201102431ADDAG10999MA1999999102231MD1210041+9999REMAWY00530MM?EQDQ01+999990APOSP Q02+000002VOVAR 
0049071680999991985033008004+48333+004017FM-15+0118LFQB V0201801N00621999991CY0099001N1+99999+99999999999ADDAG12999REMMET011CAVOK 0103?EQDQ01+000000PRSWM2
0101701780265291985072705304+65167-152100SAOSP+0067TAL  V0202601N003112200019N0800001N1+99999+99999999999ADDAG10999GD12991+0180099GD22991+0750093GF102991999999999999999999MA1101961999999MW1001REMAWY005LAST?
0108342620999991985032406004+50800+044550FM-12+012299999V0200501N00501075001CN0200001N9-00121-00551102171ADDAA106000091AG10000AY101061GF108991001001999999001021KA1120N-00441MD1310091+9999MW1021REMSYN011333   21044
0096727576149161985042819004+47950-097183SAO  +0257GFK  V0202101N009312200019N0320001N1+02941+00561101331ADDAG10999GD13991+0750093GF107991999999999999999999MA1101321999999MW1001OC101541REMAWY007FEW CU?
0036343850999991985081000004+49767+047750FM-12+001899999V0200901N00501220001CN9999999N9+02001+00991102231ADDAG12000GF100991001001999999001001
0063110100999991985022822204+48233+014183FM-15+0304LOWL V0200801N00101004501CN0035001N1+00001-00101999999ADDAG12999GA1021+003009079GA2061+004509079MA1102511999999MW1101
0065077610999991985082802084+41917+008800FM-15+0009LFKJ V0200401N00511999991CY0099001N1+01501+01301999999ADDAG11999MA1101901999999REMMET012CAVOK NOSIG?EQDQ01+000000PRSWM2
0103919250999991985120506004-09800-139033FM-12+005199999V0209991C00001220001CN0200001N9+02481+02011101261ADDAA106000091AG10999GA1011+006909089GF101991011021008001001001MD1210181+9999REMSYN017333   56200 81823
0152304840999991985122500004+55433+120550FM-12+052699999V0209991C00001220001CN0500001N9-04011-04211103181ADDAA112999929AA224999929AG10000AJ100269199999999GF108991001001999999001011IA1239KA1120M-03041MD1710021+9999REMSYN035333   11304 69902 555   47026 7990/
0094260380999991985061318004+59417+024800FM-12+0044ULTT V0200501N00401075001CN0200001N9+01501+00641100331ADDAA106000091AG14000GF107991031031008001001021KA1120M+01621MD1710051+9999REMSYN011333   10162
0024043300999991985091506004+74300-020217FM-12+0045BGDB V0200201N006719999999N9999999N9+00021-00291099631ADDAG12000MD1210021+9999
0100108150999991985011314004+48450+008417FM-12+079799999V0200801N00151009001CN0130001N9-01141-01321999999ADDAG11999AY101021GA1041+003609089GF105991051081004501001001MD1110081+9999MW1021REMSYN011333   84812
0093724945232931985010622004+37367-121917SAO  +0017SJC  V0200501N002610450019N0048001N1+01331+01001999999ADDAG10999GD12991+0300099GD24991+0450099GF108991999999999999999999MA1101691999999MW1041MW2051
0116020440999991985101418004+67817+020333FM-12+0452ESNQ V0201801N00211220001CN0300001N9+00101-00341101871ADDAA106000091AG14000GA1031+030009039GF103991031001999999051011KA1120M+00571MD1110241+9999REMSYN017333   10057 83360
0058123750999991985090423304+52183+020983FM-15+0107EPWA V0202801N00411999991CY0099001N1+01201+01101999999ADDAG12000MA1101491999999REMMET005CAVOKEQDQ01+000000PRSWM2
0128467430999991985022105004+22950+120200FM-15+0016RCNN V0200201N004110048019N0060001N1+01501+01201999999ADDAG12999GA1031+001809079GA2051+004809079GA3081+007509059MA1101521999999MW1601OC100721REMMET032S CIG016 10BR G1249L RAIN AMT T?
0064573480999991985033109004+31067+109483FM-12+060799999V0209991C00001036001CN0200001N9+01241+00151102421ADDAG12000AY101031GF107991071001999999041999MD1710251+9999MW1021
0122076470999991985030315004+43517+004933FM-12+0023LFMI V0202801N00411078001CN0400001N9+01591+00501101501ADDAG12000AY101031GA1021+030009039GA2061+078009009GF106991021001999999031041MD1610211+9999MW1021REMSYN017333   82360 86076
0074786475999991985012413004+14833-091517FM-15+9999MGQZ V0209991C00001001201CN0020001N1+00101+00001999999ADDAG12999GA1071+001209079MW1101REMMET033VIS S/SSW 0500 BEST APCH SBR STN?
0100107630999991985051209004+49500+011083FM-12+0312EDDN V0200601N00821220001CN0250001N9+01941+00961100791ADDAG11000AY101031GA1011+075009009GF101991001001999999001021MD1810051+9999MW1021REMSYN011333   81075
0127999999999991985111509004+58300-008900FM-13+9999OYDZ V0201801N00721220001CN0200001N9+00861+00121102381ADDAG12000GF104991031021004501001081MD1810121+9999MW1141SA1+1079UA1M030109999UG1060152509REMSYN02922223 00107 20302 325// 40603
0107153600999991985022400004+45150+029667FM-12+000999999V0203201N00701220001CN0060001N9-01241-01301102931ADDAA106000091AG10000AY101061GF100991001001999999001001MD1710091+9999MW1101REMSYN023333   91826 555   60003
0108592980999991985021006004+23083+114417FM-12+001699999V0200201N00401012001CN0140001N9+01351+01031101361ADDAA106000191AG10005AY181061GF108991081041012501999999KA1240N+01221MD1710161+9999MW1801REMSYN011333   20122
0058162300999991985092023084+42433+014200FM-15+0011LIBP V0209991C00001220001CN0112001N1+01901+01701999999ADDAG12999GA1041+009009059REMMET004BKN?EQDQ01+000000PRSWM2
0072265090999991985122621004+55700+021083FM-12+001099999V0202001N00601004201CN0070001N9+00411+00291099381ADDAG12001AY161031AY221031GF108991081051004501999999MD1310011+9999MW1101
023272308013737198512301900C+36900-076200SAO  +0007ORF  V0202705N002152200059N0160005N1+00675-01175102135ADDAA101000095AG10999GF100005999999999999999999MA1102131102015MW1001REMAWY007FEW CI?EQDQ01+999990APOSP N01 00000JPWTH 0QNNE81 0 00099G21U0 99999K21 0 00011L21 0 01000M11 0 30125N21 0 00000Q21 0 10213S21 0 00044V11 0 00000X21 0 27004
0105285930999991985032515004+56100+074633FM-12+007899999V0202901N00401220001CN0500001N9-00121-00381101631ADDAG12000AY101031GA1041+010809099GF106991041031012501001011KA1120M+00031MW1021REMSYN017333   10003 84936
0061071970999991985061414004+47917+007400FM-15+0217LFSC V0202201N00621030001CN0112001N1+02301+01001999999ADDAG12999GA1011+012009089GA2061+030009039EQDQ01+000000PRSWM2
0098726610999991985022700004+45267-103533SY-SA+0925REJ  V0202901N004119999999N9999999N9+00221-00781102381ADDAA106000091AG10000MA1102071999999MD1010001+9999MW1001REMAWY014PK WND 20 000?EQDQ01+000002VOVAR 
0159718890999991985091802004+49467-119600SAO  +0344YYF  V0203301N002612200019N0240001N1+01201+00701100721ADDAG10999GD12991+0105099GD22991+0150099GD32991+0360099GD43991+0750093GF107991999999999999999999MA1100711096671MW1001REMAWY014CF1CB2AC1CI1 ?EQDQ01+999990APOSP 
0050299250999991985121918004+52833+080950FM-12+016599999V0200501N00501220001CN0500001N9-01571-01911102651ADDAG12000GF100991001001999999001001MD1710151+9999
0230717060999991985072718004+46283-063133SY-SA+0055YYG  V0203001N006212200019N0240001N1+02481+01231100681ADDAA106000091AA224000891AG14000GD12991+0090099GD22991+0300099GD32991+0750099GF102991011011008001031011KA1120M+02481KA2240N+01781MA1100681100041MD1310051+9999MW1001REMSYN023333   10248 20178 70008AWY028CU1AC1CI1        ?    3005 ?
0095724466039291985090717004+38850-094550SAO  +0333GVW  V0201901N005112200019N0192001N1+03171+02221101621ADDAG10999GD12991+0105099GF102991999999999999999999MA1101761999999MW1001REMAWY014CB SE MOVG NE?
0075442880999991985081215004+46267+102783FM-12+181399999V0203201N00501012001CN0500001N9+01541+00451100441ADDAA106000091AG14005AY191031GF105991051091012501001001MD1210161+9999MW1131
0123719050999991985061904004+55283-077767SAO  +0018YGW  V0209991C00001010501EN0240001N1+01401+01101099981ADDAG10999GD13991+0105099GD23991+0300099GF107991999999999999999999MA1099971099751MW1001REMAWY008SC6AC2 ?EQDQ01+999990APOSP 
0071999999999991985120211004+48700-008900FM-13+999999999V0201901N017019999999N9999999N9+01501+99999100121ADDAG12999MD1210061+9999SA1+1249UA1I090609999REMSYN01722200 00124 10912
0060102180999991985122911504+52883+008233FM-15+0056EDNA V0202901N00361003301CN0048001N1-00501-00701999999ADDAG12001GA1071+003309079MA1100311999999MW1701REMMET004GRN?
0075947760999991985081511004-32783+151817FM-12+0011ASWM V0200401N00571036001CN0200001N9+01491+00921101931ADDAA106000091AG10999AY121031GF108991061001999999071071MD1010041+9999MW1041
0047125660999991985112207304+50083+019800FM-15+0237EPKK V0200601N00511000901CN0022001N1-00101-00201999999ADDAG12999GA1081+000909079MA1101801999999MW1101
0234718820999991985010400004+50967-118183SY-SA+0443YRV  V0209991C00001006001EN0240001N1-00571-00891104461ADDAA106999929AC12I9AG10001AJ100589199999999AY171061GD14991+0060099GF108991081051008001999999IA1239KA1120M-00481KA2180N-00771MA1104131098821MD1710071+9999MW1021REMSYN029333   11048 21077 47058 90526AWY011SC10 7007 ?EQDQ01+000003PRSWM2
0057992270999991985032309004+25600+135900FM-18+00032100 V0200201N00311999999CN9999999N9+01901+01861101361ADDAG12000MD1210181+9999UA1I080159999REMSYN01122200 10803
0177723816031591985010712004+34733-118217SAO  +0728WJF  V0202301N00511015001EN0320001N1+00501+00281101721ADDAA106999999AA224000291AG10003GD13991+0150099GD24991+0240099GF108991999999999999999999MA1101691999999MD1810071+9999MW1801REMAWY026807 20001 39     ?    WLK?EQDQ01  00002PRCP06
0146478540999991985051121004+32083+131450FM-15+0081RJFN V0202701N00051220001CN0112001N1+01701+01601999999ADDAG12000GA1011+010509059KA1999M+02301KA2999N+01601MA1101761999999REMMET051178. FG BANK S/ 23/16/       ?     FCST 2103 NOSIG?EQDQ01+000000PRSWM2
0064237740999991985022206004+62483+086300FM-12+005899999V0209991C00001030001CN0250001N9-01711-02211104211ADDAG11000AY101061GF106991051001999999051011MD1210031+9999MW1021
0060862180999991985101419004-25233-057517FM-15+0089SGAS V0203601N00411220001CN0112001N1+03601+01901999999ADDAG10999GA1031+012009089MA1100711999999EQDQ01+000000PRSWM2
0105747750138461985013104004+30067-085583SAO  +0004KPAM V0201701N006210006019N0002001N1+01781+01781101481ADDAG10999GD16991+0001599GD24991+0006099GF108991999999999999999999MA1101491999999MW1451REMAWY009RVR34 F6?
0105719220999991985033105004+55150-105267SAO  +0378YVC  V0201101N001012200019N0240001N1-00201-00701101211ADDAG10999GD12991+0300099GF102991999999999999999999MA1100981096541MW1001REMAWY005AC3 ?EQDQ01+999990APOSP 
0144716278999991985070813004+45683-074033SAO  +0082YMX  V0202501N001510114019N0400001N1+01801+01501100801ADDAG10999GD12991+0045099GD23991+0114099GD33991+0240099GF107991999999999999999999MA1100781999999MW1001REMAWY033SC3SC4AC1        ?    CF ASOCTD ?
0064122000999991985080403004+53917+014233FM-12+000599999V0202201N00401220001CN0200001N9+01191+01131100841ADDAG12000AY101031GF102991001001999999001021MD1410001+9999MW1011
0086032910999991985040811004+54117-000083FM-12+004699999V0203101N00361009001CN0040001N9+99999+99999999999ADDAG12999AY121021GA1081+009009059GF108991999999012501999999MW1501REMSYN011333   88630
0091074810999991985081810304+45733+005083FM-15+0240LFLL V0200201N00411075001CN0112001N1+02301+01001999999ADDAG12999GA1011+006009089GA2061+075009009MA1101901999999REMMET006NOSIG?EQDQ01+000000PRSWM2
0047103350999991985083006454+52283+009083FM-15+0073EDCB V0202001N00101220001CN0045001N1+01701+01101999999ADDAG12999GA1011+090009009MA1102401999999MW1051
027472469023062198504190400C+39767-104867SAO  +1611DEN  V0203205N00155025915MN0320005N1+01675+00175099945ADDAA101000095AG10999GD13995+0240099GD23995+0750099GF107075999999999999999999MA1100581082635MW1001REMAWY008VIRGA S?EQDQ01+999990APOSP N01 00000JPWTH 0QNNE81 0 00499E81 0 00499G21 0 00085K21 0 00035L21 0 02000M11 0 24400N21 0 00000Q21 0 09994S21 0 00062V11 0 00909X21 0 32003
0061091700999991985121800004+54183+012083FM-12+001099999V0201901N00301007501CN0160001N9+00201-00131101891ADDAA106000091AG14000GF107991071051008001999999MD1410001+9999
0119723405039301985091007004+34917-092150SAO  +0095LRF  V0209991C000012200019N0012001N1+02111+02111101581ADDAG10999GD16991+0001599GD22991+0003099GD32991+0300099GF102991999999999999999999MA1101631999999MW1451REMAWY008RVRNO F3
0024094490999991985051420004+51383+010317FM-12+035699999V0203001N00201999999CN9999999N9+01381+00741101231ADDAG12999MD1210221+9999
0123718110999991985111419004+50217-066267SAO  +0055YZV  V0202501N003112200019N0480001N1-00501-01301101971ADDAG10999GD12991+0090099GD23991+0540093GF107991999999999999999999MA1101931101281MW1001REMAWY008CU1AC4 ?EQDQ01+999990APOSP 
0152291280999991985090700004+58700+081500FM-12+006399999V0203201N00201002101CN0200001N9+00641+00551101801ADDAA124002091AG10000GA1071+002109079GF107991071071002501999999IA2999+00609KA1120N+00641MD1210101+9999REMSYN041333   20064 87707 555   10081 3/006 70022
0053994010999991985051215004+28900-089400FM-12+9999BURL V0201201N005119999999N9999999N9+02521+99999101481ADDAG12000OA139900621REMSYN023333   92112 555   91525
0101165970999991985012900154+35850+014483FM-15+0091LMML V0203101N00311220001CN0112001N1+01201+00801999999ADDAG12000GA1011+006009089GA2031+021009059MA1101491999999REMMET016NOSIG? (290000)?EQDQ01+000000PRSWM2
0155719100999991985111914004+64233-076533SAO  +0047YTE  V0202601N008810027019N0024001N1-01301-01701102201ADDAG10999GD16991+0001599GD23991+0027099GD33991+0045099GF107991999999999999999999MA1102131101571MW1381MW2711OC101241REMAWY011BS3SF3SC3 ?EQDQ01+999990APOSP 
0046161180999991985121416104+44283+008783FM-15+0189LIML V0209991C00001220001CN0060001N1+00801+00101999999ADDAG12999MA1102511999999MW1101REMMET006NOSIG?
0144710730999991985082403004+62717-109167SAO  +0164WFL  V0203201N00411006001EN0400001N1+01101+00801101361ADDAG10000GD13991+0060099GD23991+0600099GF107991999999999999999999MA1101291999999MD1210131+9999MW1001REMAWY034TCU7CI1 SHWRS NE       ?    2013 ?
0108081300999991985071106004+41500-005750FM-12+066099999V0200401N00211220001CN0120001N9+01521+00891101761ADDAA106000091AG14000GF102991021001017501081001GJ107989KA1120N+01521MD1410001+9999REMSYN017333   20152 94133
0072725847999991985120704004+38900-120000SAO  +1912TVL  V0201601N003612200019N0320001N1+00171+00061999999ADDAG10999GD12991+0075099GF102991999999999999999999MA1102511999999MW1001
021572551014939198507120200C+40850-096750SAO  +0359LNK  V0201405N00525076205EN0240005N1+03065+01675101025ADDAA101000095AG10999GD14995+0750099GF108065999999999999999999MA1101151096885MW1001EQDN01 00000JPWTH 0QNNE81 0 00699G21 0 00250K21 0 00062L21 0 01500M11 0 28610N21 0 00000Q21 0 10102S21 0 00087V11 0 01007X21 0 14010
0114722269038501985010812004+31283-085717SAO  +0091OZR  V0203301N000512200019N0160001N1+00281-00211102001ADDAA106000091AG10000GF100991999999999999999999MA1101961999999MD1510031+9999MW1001REMAWY004503?EQDQ01  00003PRCP99
011672473523170198504081800D+38367-110717SAO  +13144HV  V0209991C000012200019N0960001N1+02111-00051999999ADDAA101000095AA206000091AG10000GD13991+0450093GF107991999999999999999999MA1102371999999MW1001REMAWY013400 41 NOSPL?
0074101220999991985081417104+53533+007883FM-16+0009EDNJ V0202401N01031001501CN0007001N1+99999+99999999999ADDAG12001GA1021+000909079GA2071+001509099MW1951OC101541REMMET009BLACKRED?
0204723870031601985021213003+36617-116017SAO  +1006DRA  V0200305N002152200059N0320005N1+00115-00785102575ADDAG10999GD13995+0600093GF105025999999999999999999MA1102541090925MW1001EQDN01 00000JPWTH 0QNNE81 0 00399G21U0 99999K21 0 00018L21 0 02000M11 0 26850N21 0 00000Q21 0 10257S21 0 00034V11 0 00602X21 0 03004
0064121850999991985072915004+54017+021367FM-12+011099999V0201001N00501012001CN0200001N9+01951+01621100891ADDAG12000AY121031GF107991071051012501999999MD1810131+9999MW1031
0050298540999991985070215004+53683+088050FM-12+024299999V0203101N00401220001CN0500001N9+01741+01451101281ADDAG12000GF102991001001999999001011MD1210081+9999
0151635330999991985061712004+05300+039700FM-12+145599999V0202301N00401007201CN0400001N9+01981+01571999999ADDAG12000GA1021+006609059GA2041+007209089GA3031+024009039GF107991061081008001031001MA1999999084681MD1999999+0011REMSYN029333   58001 82622 84824 83358
0128717090999991985102200004+47383-061867FM-12+0010WGR  V0203201N00621220001CN0240001N9+00541+00001102421ADDAA106000091AG14000GF104991041051012501001001KA1120M+00551KA2180N+00241MA1999999102291MD1110091+9999REMSYN017333   10055 20024
0064714600999991985121606004+45967-081483SAO  +0196WBE  V02099999999999999999N0032001N1+99999+99999999999ADDAA106000091AG10000REMAWY034119/-10/-15/3109/-/     2019 44MM?
0050154060999991985020207004+44683+027950FM-12+003899999V0202301N00301036001CN0040001N9+00051+99999999999ADDAG11999AY121041GF108991081001999999071999MW1101
0115417650999991985091606004+25383+068417FM-12+002899999V0202301N00621220001CN0100001N9+03451+02051100821ADDAA106000091AG14000GF100991001001999999001001MA1999999100491MD1999999+0301REMSYN011333   58030EQDQ01+999990APOSP 
0230725140147781985092220003+41250-076917SAO  +0158IPT  V0201105N004152200059N0112005N1+02505+01445101995ADDAG10999GD12995+0135099GD23995+0420093GF106025999999999999999999MA1102001100085MW1001EQDN01 00000JPWTH 0QNNE81 0 00299E81 0 00399G21U0 99999K21 0 00058L21 0 00700M11 0 29555N21 0 00000Q21 0 10199S21 0 00077V11 0 00703X21 0 11008
0122719200999991985102419004+57350-107133SAO  +0499WFN  V0202801N00411005101EN0240001N1-00401-00701100551ADDAG10999GD13991+0051099GD24991+0270099GF108991999999999999999999MA1100241094451MW1701REMAWY007SC8AC2?EQDQ01+999990APOSP 
027472318113877198509012100C+36483-082400SAO  +0459TRI  V0201705N002652200059N0160005N1+02835+01395102145ADDAA101000095AG10000GA1999+012195065GD12025+0120099GF102025999051999999001991MA1102301096785MD1610071+9999MW1001REMAWY009607 1500?EQDN01 00000JPWTH 0QNNE81 0 00203G21U0 99999H11 0 15040K21 0 00057L21 0 01000M11 0 28580N21 0 00000Q21 0 10214S21 0 00083V11 0 00303X21 0 17005
0108107760999991985120211004+49017+012067FM-12+0371EDYR V0201701N00311000601CN0005001N9+00031+00011102961ADDAG12999AY141021AY241021GA1091+000609999GF109991091999999999999999MD1310021+9999MW1451REMSYN011333   89/02
0121999999999991985101312004+40000+142100FM-13+9999SHIP V0203401N00701007501CN0200001N9+01921+99999100581ADDAG12000GF108991071041008001999999MD1610101+9999SA1+2009UA1M040159999UG1060202009REMSYN02922283 00200 20403 32000 40604
0100213010999991985051618004+76800+110833FM-12+000699999V0201101N00701003601CN0180001N9-00991-01161102081ADDAG12000AY171061GA1071+003609059GF107991071051004501999999MD1210071+9999MW1361REMSYN011333   87612
0081514630999991985091712004+43783+087617FM-12+091999999V0203201N00201220001CN0300001N9+02171-00471101571ADDAA106000091AG14000GF100991001001999999001001MD1210061-0401REMSYN011333   05401
0058787838999991985031715004+09467-082517FM-15+0005MPCH V0209991C00001999991CY0099001N1+99999+99999999999ADDAG12000MA1101351999999REMMET005CAVOKEQDQ01+000000PRSWM2
0092725316999991985051903004+39833-088867SAO  +0207DEC  V0202901N002612200019N0400001N1+01831+01331100971ADDAG10000GF100991999999999999999999MA1100981999999MD1210121+9999MW1001REMAWY012FEW CU /212?
0130745700138401985102206004+39833-084050SAO  +0251FFO  V0200101N00211001801MN0048001N1+01061+00831102101ADDAA106000091AG10000GD13991+0018099GD24991+0024099GF108991999061999999999999MA1102101999999MD1810051+9999MW1451REMAWY009805 16//?
0065083600999991985060611304+38383-000517FM-15+0060LEAL V0209999999999999991CY0099001N1+02501+01601999999ADDAG12000MA1101491999999REMMET012CAVOK NOSIG?EQDQ01+000000PRSWM2
0119084510999991985052106004+36683-006133SY-MT+0056LEJR V0209991C00001004501CN0040001N1+01301+01191999999ADDAA106000091AG14000GA1031+003009079GA2051+004509059GF108991999999004501999999MA1101691999999MW1101EQDQ01+000003PRSWM1
0108108360999991985121314004+48667+009867FM-12+073799999V0202001N00151002101CN0045001N9-00181-00311103251ADDAG11999AY121021AY221021GA1071+002109059GF107991071051002501999999MD1510081+9999MW1101REMSYN011333   87607
0100103050999991985052711004+52517+007317FM-12+003899999V0201601N00361220001CN0250001N9+02901+01401101031ADDAG12999AY101021GA1011+045009039GF101991011001999999031001MD1710081+9999MW1021REMSYN011333   81365
0134644010999991985022215004-04200+012667FM-12+0330FCPL V0202201N00211007801CN0250001N9+02991+02191100621ADDAG10999AY101031GA1061+007809089GA2011+009909099GF106991061031008001001001MD1999999-0261MW1021REMSYN029333   59026 86826 81933 95438
0061470900999991985121103004+38200+128600FM-12+000799999V0202701N00511220001CN0300001N9-00171-01791102061ADDAA106000091AG14000GF100991001001999999001001MD1210041+9999
0121999999999991985080500004+71200+029700FM-13+9999USKL V0201101N00501060001CN0100001N9+00901+99999100061ADDAG12000GF106991041001022501051091MD1710081+9999SA1+0909UA1M040109999UG1070201409REMSYN02922263 00090 20402 31400 40704
0057703640999991985122509004+58967-135217SAO  +0017ERO  V0201701N009319999999N9999999N9+00501-02211999999ADDAG10000REMAWY019PKWND 023/RM MV252?EQDQ01+000002VOVAR 
0123161050999991985072800004+45500+012333FM-12+0006LIPZ V0200501N00211027001CN0100001N9+02631+02151101311ADDAA106000091AG14000GA1021+009009089GA2031+027009039GF105991021021008001031001MD1110021+9999REMSYN021333   82830 83359 555
0087726557149101985062614004+45867-095383SAO  +0434AXN  V0203101N00411001801EN0160001N1+01391+01391101131ADDAG10999GD13991+0018099GD24991+0027099GF108991999999999999999999MA1101151999999MW1611
0190783270999991985041000004+22767-081567FM-12+002399999V0200501N003019999999N0130001N9+02501+01961101651ADDAA106000091AA224000091AG14000AY121061GA1021+999999089GF105991021021999999041021IA1019KA1120M+03091KA2180N+02041MD1310061-0111MW1051REMSYN047333   10309 20204 30/// 56999 59011 70000 828//
0083308440999991985010406004+51350+110500FM-12+080899999V0209991C00001220001CN0500001N9-02351-02831104462ADDAG12000AY101061GF100991001001999999001001MD1810221+9999MW1021EQDQ01+104463APOSLP
0085072990999991985012916154+47600+007517FM-15+0270LFSB V0200801N00151220001CN0090001N1+00601+00201999999ADDAG12999GA1021+075009009MA1102611999999REMMET016NODIG? (291550)?EQDQ01+000000PRSWM2
0042725700999991985102020004+40500-107533SAO  +1915CAG  V0202301N005119999999N9999999N9+01721-00321999999ADDAG10999REMAWY004000?EQDQ01+000002VOVAR 
0079031600999991985090222204+55950-003350FM-15+0041EGPH V0200601N00261004501CN0112001N1+01101+01001999999ADDAG12999GA1011+003909079GA2051+004509059GA3051+006009059MA1099591999999MW1101
0099999999999991985022309004+61200+001100FM-13+9999PLAT V0202201N01591999999CN9999999N9+00781+00761100021ADDAG12000MD1410001+9999OA159999999UA1I090559999REMSYN02322200 10911 555   00220EQDQ01  01032WGOSPD
0112711870999991985110818204+49133-068200SAOSP+0022YBC  V0202301N007710045019N0064001N1+99999+99999999999ADDAG10007GD12991+0024093GD23991+0045099GD33991+0150099GF107991999999999999999999MW1451MW2611REMAWY010SF1SC7SC1?
0058131160999991985101904304+45217+014583FM-15+0085LYRI V0200601N00261999991CY0099001N1+01301+00601999999ADDAG11999MA1101691999999REMMET005CAVOKEQDQ01+000000PRSWM2
0058999999999991985112806004+56000-007300FM-13+9999TFAB V0203101N001019999999N0100001N9+00431+99999100111ADDAG12001AY161061AY281061GF108991999999008001999999MW1251
0050021960999991985070109004+65833+024150FM-12+000699999V0200501N00261007501CN0500001N9+01201+00661101131ADDAG12000GF107991071021008001999999MD1210061+9999
0136471410432191985080123004+35900+126617FM-15+0009RKJK V0201501N009810240019N0090001N1+02601+02201999999ADDAG12999GA1021+004509059GA2031+013509049GA3081+024009049MA1100411999999MW1611OC101441REMMET040CIG080 PK WND 1434/33 QFF E1003PT9 WR//?
0207466960999991985060800004+25067+121533SY-MT+0006RCSS V0200901N00721004801CN0040001N1+02101+01951100581ADDAA199053091AG10002AY161061GA1031+002109079GA2051+004809089GA3081+012009059GF108991081071002501999999KA1120N+02101MA1100541999999MD1210141+9999MW1601REMSYN035333   20210 555   83707 85816 88640MET006NOSIG?
0092655940999991985121915004+04750-006650FM-12+003099999V0203201N00411220001CN0060001N9+03131+01671100911ADDAG12000GA1031+045009039GF103991031001999999031001MD1999999-0111REMSYN017333   59011 83365
0075102240999991985042910204+53050+008783FM-15+0003EDDW V0202901N00931004201CN0112001N1+00601+00401999999ADDAG12999GA1061+004209089MA1100711999999REMMET006NOSIG?EQDQ01+000000PRSWM2
0036999999999991985093018004+33500+137600FM-13+9999UYXG V0202301N00301220001CN0200001N9+02201+99999101141ADDAG12000GF100991001001999999001001
0100587250999991985110918004+27333+117467FM-12+019499999V0202001N00101220001CN0080001N9+00671+00591102071ADDAA106000091AG14000GF100991001001999999001001KA1240M+01601MD1710071+9999MW1101REMSYN011333   10160
0088717375999991985120415284+46483-084517SAOSP+0192YAM  V0201301N00101002401BN0040001N1+99999+99999999999ADDAG10003GD13991+0024099GD24991+0090099GF108991999999999999999999MW1711REMAWY007SF8SC2?
0075583340999991985062400004+31333+118350FM-12+002099999V0203601N00301002101CN0020001N9+02091+02051100341ADDAA106007091AG10006AY161061GF108991071071002501021999MD1210111+9999MW1611
0122767500999991985041620003+18500-088300SAO  +0004CTM  V0201301N006212200019N0160001N1+03101+02301100881ADDAG10999GD12991+0060019GD22991+2100019GF102991999021999999001021MA1101461100781MW1001EQDQ01+999990APOSP Q02+999990APOSLP
0108294010999991985031218004+56950+075300FM-12+009099999V0201501N00301075001CN0500001N9-01131-01481102981ADDAA106000091AG10000AY101061GF108991001001999999001071KA1120M-00511MD1710181+9999MW1021REMSYN011333   11051
0122037070999991985051308004+51083-004150FM-12+0008EGDC V0200301N00571075001CN0120001N9+01161+00791101011ADDAG12999AY121021GA1021+004509089GA2041+075009009GF105991031081004501001011MD1010001+9999MW1051REMSYN017333   82815 84075
0213072050999991985032506004+47767-003450SY-MT+0044LFRH V0201601N00721007801CN0050001N1+00781+00601099871ADDAA199003091AG10001AY161061GA1021+003309059GA2051+007809059GA3071+024009049GF108991061051004501021999IA1119KA1999N+00511MA1099801999999MD1210381+9999MW1611REMSYN035333   20051 32/// 82611 85626 87458MET006NOSIG?
0079387250999991985081318004+39433+069950FM-12+256499999V0200501N00101012001CN9999999N9+01061+00771999999ADDAG12002AY181061GF106991061041012501001001MA1999999078121MD1810031+9999MW1021
0086992020999991985111607004+23400-162300FM-18+0003DB02 V0202501N006019999999N9999999N9+02431+99999100721ADDAG12999OA139900701SA1+2559UA1I130249999REMSYN03522200 00255 11305 333   92107 98224
0036366190999991985071421004+47083+079717FM-12+042299999V0200901N00201220001CN0500001N9+01951+00171999999ADDAG12000GF100991001001999999001001
0149724065937331985041518004+39083-076767SAO  +0046FME  V0200301N00311003601MN0048001N1+01721+01281101391ADDAA106000091AG10000GD14991+0036099GF108991999061999999999999MA1101391999999MD1710221+9999MW1051REMAWY024TWR VSBY 21/2/ 722 16//?EQDQ01  00003PRCP99
0108531920999991985040306004+44017+114950FM-12+112899999V0202001N00101220001CN0300001N9+00391-03261102571ADDAA106000091AG10000AY101061GF101991001001999999001021KA1240N-01071MD1710211+9999MW1021REMSYN011333   21107
0070444160999991985102106004+28600+081617FM-12+0710VNSK V0200601N00261220001CN0750001N9+02411+01501101971ADDAG12000GF101991011011008001001001MD1999999+0251REMSYN011333   58025
0072722520129201985011502004+27533-099467SAO  +0156LRD  V0203001N003612200019N0128001N1+00671+00281999999ADDAG10999GD12991+0240099GF102991999999999999999999MA1102711999999MW1001
0064121150999991985062421004+54583+016867FM-12+000699999V0200401N00101030001CN0100001N9+01531+01361100981ADDAG12000AY121031GF106991061001999999031999MD1010001+9999MW1021
0064292240999991985032421004+58133+080583FM-12+008099999V0202101N00101220001CN0260001N9-02021-02281101721ADDAG12000AY101031GF100991001001999999001001MD1810061+9999MW1021
0202724680940151985090500004+38683-104767SAO  +1789FCS  V0200401N001010750019N0800001N1+02391+00781100661ADDAA106000091AG10000GD12991+0180099GD22991+0360099GD33991+0750099GF107991999091999999061021MA1101421999999MD1510081+9999MW1001REMAWY047CB DSNT NE       ?    AND E MOVG NE/  508 1962?EQDQ01  00003PRCP99
025772217003813198511131900C+32700-083650SAO  +0108MCN  V0203505N00215008535MN0160005N1+02395+01675102275ADDAA101000095AG10999GD13995+0084099GD23995+0750099GF106055999999999999999999MA1102341100985MW1001EQDQ01+999990APOSP N01 00000JPWTH 0QNNE81 0 00499E81 0 00499G21 0 00028K21 0 00062L21 0 01000M11 0 29820N21 0 00000Q21 0 10227S21 0 00075V11 0 00806X21 0 35004
0130038940999991985110416004+49433-002600FM-12+0102EGJB V0201401N00721001801CN0120001N9+01071+00991099081ADDAG12999AY161011AY251011GA1031+001209079GA2061+001809079GF108991081071001501999999MD1710481+9999MW1581REMSYN017333   83704 86706
0060036553999991985022413004+51933-001250FM-15+0134EGUA V0202001N00261220001CN0112001N1+00701+00201999999ADDAG12999GA1041+060009009MA1103081999999MW1001REMMET004BLU?
0134821910999991985080200004-01433-048483FM-12+002499999V0209991C00001220001CN0100001N9+02551+02541101351ADDAA106000091AG10999GF102991001001999999001021KA1240N+99999MA1999999101291MD1999999+0031REMSYN017333   20317 58003EQDQ01 +03172ATMN  
0075121950999991985071912004+54133+022950FM-12+018699999V0201401N00501220001CN0200001N9+02311+01441101191ADDAA106000091AG14000AY101061GF102991021021012501001001MD1710141+9999MW1031
0071123750999991985010305004+52183+020983FM-15+0110EPWA V0202501N00411001801CN0030001N1-00601-00701999999ADDAG12999GA1071+001809079MA1100001999999MW1711REMMET015NOSIG 33490292?
0087785430116401985050116004+18333-064967SAO  +0067MIST V0201401N006212200019N0640001N1+03331+02061999999ADDAG10999GD12991+0060099GD22991+0300099GF102991999999999999999999MA1101461999999MW1001
0141014880999991985012018004+59900+010617FM-12+0017ENFB V0209991C00001002401CN0030001N9-00741-00901100951ADDAA199003091AG10002AY171061GA1091+999999999GF109991091999999999999999KA1120M-00681MD1610011+9999MW1731OA149900461REMSYN017333   11068 91109
0072624170999991985121612004+29200+025483FM-12-001399999V0200901N00511036001CN0100001N9+01621+01321101431ADDAG12000AY151061AY221061GF108991081001999999021999MD1810301+9999MW1501
0068722865931801985060412004+34050-117617SAO  +0293ONT  V0209991C000012200019N0112001N1+01171+00941999999ADDAA106000091AG10000GF100991999999999999999999MA1101491999999MW1001
0064260990999991985012515004+59500+034700FM-12+017399999V0202701N00101030001CN0120001N9-00671-00831099021ADDAG12001AY171031GF108991081001999999021999MD1210101+9999MW1711
0121726510149441985092115374+43567-096733SAOSP+0435FSD  V0201201N00411003601MN0192001N1+99999+99999999999ADDAG10000GD13991+0036099GD23991+0240099GD33991+0300099GF107991999999999999999999MA1102001096851MW1001EQDQ01+999990APOSP 
0108061190999991985080115004+54850+009983FM-12+002799999V0202601N00721010201CN0300001N9+01721+01271100951ADDAG12000GA1021+007509089GA2041+010209059GF106991051081008001031001MD1110021+9999REMSYN017333   82825 84634
0073101470999991985022822204+53633+009983FM-15+0016EDDH V0209991C00001000151CN0002001N1+00001+00001999999ADDAG12999ED199U02139GA1091+000159999MA1102401999999MW1451REMMET006NOSIG?
0122711020999991985021121004+53050-129683SAO  +0001WTC  V0201401N018010027019N0048001N1+00501+00401097551ADDAG10000GD16991+0001599GD24991+0027099GF108991999999999999999999MA1097561999999MD1810211+9999MW1451REMAWY012F5SF5 8021 ?
0047060240999991985041307204+57067+008700FM-15+0007EKTS V0201401N00411000601CN0010001N1+00401+00301999999ADDAG12999GA1091+000609999MA1099591999999MW1451
0072723415999991985091322004+34483-093100SAO  +0169HOT  V0200501N00411030001EN0240001N1+02281+01561999999ADDAG10999GD14991+0300099GF108991999999999999999999MA1102271999999MW1001
0030716314999991985100721004+43983-080750SAO  +0415WLS  V0202301N003119999999N0144001N1+01501+00601102011ADDAG10000MD1010001+9999MW1001
0136634710999991985060106004+09600+041867FM-12+1146HADR V0201901N00501220001CN0300001N9+02751+01471999999ADDAA106000091AG14000AY101061GA1011+006009089GF101991011011008001001001KA1120N+02301MD1999999+0011MW1021REMSYN023333   20230 58001 81820
0135999999999991985072700004-23100+151800FM-13+9999SHIP V0202201N00621220001CN0200001N9+01951+01581102381ADDAG10001AY101061GF101991011011008001001001MD1110281+9999MW1051SA1+2199UA1M020059999UG1080151709REMSYN02922263 00219 20201 317// 40803
0174725306148551985031822003+42083-087833SAO  +0197NBU  V0202105N006752200059N0112005N1+00835-00945101965ADDAG10999GD12025+0540093GF102995999999999999999999MA1101901999999MW1001QNNE41 0 00203G41U0 99999K41 0 00015L41 0 00700C41 0 30090Q41 0 10196S41 0 00047V41 0 00399X41 0 21013
0083293760999991985011706004+57217+094917FM-12+014799999V0209991C00001007501CN0500001N9-02031-02221101851ADDAG12001AY181061GF108991999091008001001001MD1210191+9999MW1851EQDQ01+000052SCOTLC
0140085240999991985090606004+33067-016350FM-12+0082LPPS V0200101N00311220001CN0150001N9+02121+01911102091ADDAA106000091AG14000GA1041+004509029GF104991041021004501001001IA1019IA2999+01809KA1120N+02081MD1510021+9999REMSYN023333   20208 30018 84215
0057702600264351985042510004+64550-149083SAO  +0110ENN  V0201801N001519999999N9999999N9-00491-01101999999ADDAG10999MA1101591999999REMAWY004018?EQDQ01+000002VOVAR 
0087162940999991985061706174+40550+014250FM-16+0264LIQC V0209991C00001999991CY0099001N1+99999+99999999999ADDAG12000REMMET049CAVOK QUK2 QUL1 W VIS MAR 20 KMMONIIB          ??EQDQ01+000000PRSWM2
0044085360999991985090810004+38767-009133FM-15+0123LPPT V0201301N00151220001CN0035001N1+02201+01901999999ADDAG12999MA1101801999999MW1101REMMET004SIG?
0087747880128101985042219004+27850-082517SAO  +0004KMCF V0201301N004612200019N0112001N1+03001+01391101611ADDAG10999GD12991+0090099GD22991+0750099GF102991999999999999999999MA1101591999999MW1001
0171714720999991985121912004+53317-133100SY-SA+0014WQS  V0201401N007219999999N9999999N9+01201+00611102311ADDAA106000091AA224000291AG10000KA1240M+99999KA2120N+00801MA1999999102141MD1710131+9999MW1001REMSYN023333   10110 20080 70002AWY00504MM?EQDQ01+000002VOVAR Q02 +01102ATMX  
019772406093721198501142100C+39183-076667SAO  +0045BWI  V0202305N004652200059N0240005N1+00835-00785099765ADDAA101000095AG10000GF100005999999999999999999MA1099761099205MD1610241+9999MW1001REMAWY004624?QNNE11 0 00099G11U0 99999K11 0 00018L11 0 01500M11 0 29295Q11 0 09976S11 0 00047V11 0 00000X11 0 23009
0064225220999991985032515004+64983+034783FM-12+001099999V0202001N00401075001CN0750001N9+00441-00701101571ADDAG12000AY101031GF106991001001999999001021MD1710151+9999MW1021
0100367780999991985050721004+45000+078350FM-12+060299999V0202501N00401003601CN0200001N9+01551+01041100961ADDAG12000AY181031GA1061+003609099GF108991081091004501999999MD1310051+9999MW1251REMSYN011333   86912
0167783490999991985032700004+21933-079450FM-12+006199999V0200401N00701220001CN0140001N9+02081+01231102421ADDAA106000091AG14000AY111061GA1031+006609059GF103991031041008001001021IA1019KA1120M+02701KA2180N+01791MD1310151+0611MW1051REMSYN035333   10270 20179 30/// 58061 83622
0130039760999991985100608004+54233-010000FM-12+001099999V0202201N00721220001CN0350001N9+01051+00851099591ADDAG12999AY181021AY211021GA1011+005409079GA2011+006309099GF103991031031004501001001MD1210181+9999MW1251REMSYN017333   81718 81921
0064357560999991985031300004+46883+064667FM-12+007999999V0202701N00101220001CN9999999N9-01491-01681103441ADDAG11000AY101061GF100991001001999999001001MD1410001+9999MW1021
0130915820999991985022703004-20767+167233FM-12+0028NWWL V0202801N00411090001CN0350001N9+03051+02561100241ADDAG10999AY101031GA1031+008109089GA2011+045009039GA3031+090009009GF106991031021008001041021MW1021REMSYN023333   83827 81365 83080
0116722405139761985010102004+30200-092000SAO  +0013LFT  V0202201N00931002401MN0048001N1+01941+01561101461ADDAG10999GD13991+0024099GD24991+0039099GF108991999999999999999999MA1101461999999MW1951REMAWY020TB11 T NE-SE MOVG E?
0145643870999991985100900004-01967+030117FM-12+1497HRYR V0203601N00101030001CN0150001N9+01901+01591999999ADDAA106000091AG10999GA1031+007809059GA2031+030009039GF105991031051008001031001MA1101691999999MD1999999-0101REMSYN028333   59010 83626 83360 1017
0088853150999991985110618004-20017-063550FM-12+0792SLCA V0201201N00411220001CN0500001N9+03101+02221100661ADDAA106000091AG10999GF100991001001999999001001MA1999999092401MD1710401+9999REMSYN003555
0106719070999991985110714004+58450-078117SAO  +0008YPH  V0202401N00881007501EN0240001N1+00001-00401099951ADDAG10999GD14991+0075099GF108991999999999999999999MA1099931099911MW1001REMAWY006SC10 ?EQDQ01+999990APOSP 
0141719020999991985122509004+56550-061683SAO  +0007YDP  V0209991C000010210019N0048001N1-00701-01001101271ADDAG10003GD16991+0001599GD24991+0210099GF108991999999999999999999MA1101251101181MD1710141+9999MW1711REMAWY012S6AS4 7014 ?EQDQ01+999990APOSP 
0115401530999991985080206004+32983+035500FM-12+093699999V0203001N00101220001CN0200001N9+02541+00301999999ADDAA106000091AG14000GF100991001001999999001001KA1120N+02341REMSYN011333   20234EQDQ01+000022APCTENQ02+000002APC3  
0137070700999991985123100004+49300+004033SY-MT+0099LFSR V0201801N00211220001CN0080001N1-01011-01181101621ADDAA106000091AG14000GA1021+007809059GF102991021051008001001001MA1101491999999MD1710061+9999MW1001REMSYN011333   82626EQDQ01+000000PRSWM2
023172456013996198509091400C+39067-095633SAO  +0267TOP  V0200205N00315004275MN0160005N1+01785+01505101805ADDAA101000095AG10999GD14995+0042099GF108085999999999999999999MA1101861098665MW1001EQDQ01+999990APOSP N01 00000JPWTH 0QNNE81 0 00699G21 0 00014K21 0 00059L21 0 01000M11 0 29135N21 0 00000Q21 0 10180S21 0 00064V11 0 01010X21 0 02006
0064442370999991985021403004+48533+101383FM-12+999999999V0203601N00301036001CN0040001N9-01881-01941103091ADDAG12001AY171031GF108991081001999999021999MD1210241+9999MW1711
0050531490999991985081315004+42533+110133FM-12+122399999V0209991C00001220001CN0300001N9+02121+00881100121ADDAG12000GF101991001001999999001021MD1210041+9999
0060121500999991985091217004+54383+018467FM-15+0138EPGD V0203001N00411220001CN0112001N1+01101+00801999999ADDAG11999GA1021+009009089MA1102611999999EQDQ01+000000PRSWM2
0146714400999991985070407004+51167-096633SAO  +0230WHL  V0203601N002612200019N0144001N1+01501+01401100341ADDAG10999GD12991+0240099GF102991999999999999999999MA1999999097601MD1210051+9999MW1001REMAWY0322005       ?    22MM(8510,0000)?EQDQ01+999990APOSP 
0091725025947411985080821004+40850-074050SAO  +0003TEB  V0202001N004112200019N0112001N1+02781+02221999999ADDAG10000GD12991+0090099GF102991999999999999999999MA1101391999999MW1001REMAWY010HLYR ALFT?
0057723825231311985110910004+34583-117383SAO  +0876VCV  V0201701N002112200019N0320001N1+01001+00561100931ADDAG10999GF100991999999999999999999MA1101191999999MW1001
0082789470999991985052814004+14017-061000FM-15+0002MKPC V0201201N00821006901CN0112001N1+02801+02201101651ADDAG12999GA1051+006909089MA1101591101621MW1051EQDQ01+999990APOSP Q02+999990APOSLP
0050223550999991985071921004+66483+040683FM-12+001699999V0200101N00401220001CN0400001N9+00521+00271102021ADDAG12000GF100991001001999999001001MD1210011+9999
0119722485139441985102709004+32500-093667SAO  +0051BAD  V0203601N00151012001EN0112001N1+01561+01061101461ADDAG10000GD13991+0120099GD24991+0300099GF108991999051999999021999MA1101461999999MD1810081+9999MW1001REMAWY009808 152/?
0114610170999991985020518004+18683+012917FM-12+0357DRRI V0200601N00411220001CN0200001N9+02281-00411101531ADDAA106000091AG14000AY101061GF100991001001999999001001KA1120M+02561MD1999999-0011MW1021REMSYN017333   10256 59001
0047969870999991985080300004-08217+114383FM-12+000599999V0209991C00001045001CN0100001N9+02421+02261101181ADDAA106000091AG10999GF107991041041008001031081
0058034185999991985012020504+52833-001317FM-15+0095EGNX V0200801N00511000901CN0012001N1-00101+99999999999ADDAG12000ED199U10979GA1081+000909079MA1099701999999MW1101
0113154810999991985100807304+44367+028483FM-15+0102LRCK V0200401N00411220001CN0015001N1+01301+01301101861ADDAG12999ED199U14939GA1041+001509079MA1101801100611MW1101REMMET011GRADU 4000?EQDQ01+999990APOSP Q02+999990APOSLP
0052172180999991985062323004+38500+027017FM-15+0005LTBL V0201301N00311999991CY0099001N1+02001+01201999999ADDAG12999MA1100811999999MW1001REMMET012CAVOK NOSIG?
0184220180999991985080718004+69283+032833FM-12+002799999V0200401N00201008701CN0200001N9+01111+01031100581ADDAA112000791AA299001091AG10001AY181061GA1061+008709099GF106991061091008001001001GJ141889KA1120M+01441MD1510121+9999MW1021OA159900401REMSYN041333   10144 69972 86929 555   91204 94698
0024035030999991985112615004+52350-003950FM-12+006399999V0209991C000019999999N9999999N9+00361+00181101211ADDAG12000MD1710171+9999
0122031600999991985010419004+55950-003350FM-12+0041EGPH V0202701N00311030001CN0300001N9+00221-00091102011ADDAG12999AY101011GA1011+005409089GA2031+008409059GF105991041081004501031001MD1410001+9999MW1021REMSYN017333   81818 83628
0087154210999991985121416304+44550+026100FM-15+0095LROP V0202301N00211010501CN0050001N1+00201+00001999999ADDAG12999GA1031+003009079GA2071+010509059MA1102511999999MW1101REMMET015NOSIG 08190095?
0120724838999991985110421004+39100-121567SAO  +0019MYV  V0201401N00311036001EN0080001N1+02001+01061101631ADDAG10000GD13991+0360099GD24991+0600099GF108991999999999999999999MA1101631999999MD1810071+9999MW1041MW2051REMAWY004807?
0100293130999991985060103004+57567+079450FM-12+009399999V0202401N00401003301CN0200001N9+00301+00201099391ADDAG12000AY151031GA1061+003309099GF107991999999004501999999MD1210061+9999MW1021REMSYN011333   86911
0086101310999991985071214004+53867+008717FM-12+001299999V0202401N00511005401CN0150001N9+02171+01331101911ADDAG12999GA1051+005409089GF105991051021004501001001MD1010031+9999REMSYN011333   85818
0063032431999991985112313504+55033-001683FM-15+0081EGNT V0200301N00511006001CN0112001N1+00501+00201999999ADDAG12999GA1021+003609079GA2071+006009089MA1102911999999MW1251
0119483830999991985090512004+16533+104717FM-12+0139VTUB V0209991C00001045001CN0120001N9+02801+02511999999ADDAA106000091AG14000GF107991031051008001041061KA1120M+03181MD1999999-0181REMSYN017333   10318 59018EQDQ01+102103APOSLP
0102722656230401985011319004+31783-103200SAO  +0859INK  V0209991C000010300019N0160001N1-00161-00551999999ADDAG10999GD12991+0045099GD23991+0300099GD34991+0750099GF108991999999999999999999MA1102371999999MW1001
0108107290999991985121410004+49533+008500FM-12+0109EDFM V0201901N00261003601CN0045001N9+00251+00151103081ADDAG12999AY121011AY221011GA1081+003609079GF108991081061004501999999MD1110071+9999MW1581REMSYN011333   88712
0064241660999991985041415004+68450+134800FM-12+010399999V0201201N00101030001CN0130001N9+99999+99999100901ADDAG12000AY171031GF108991081001999999021999MD1210281+9999MW1711
0081724870999991985092314004+37617-114517SAO  +1335P38  V0200201N000519999999N9999999N9+00331-00101999999ADDAG10999MA1102441999999MD1010001+9999REMAWY014PK WND 02 000?EQDQ01+000002VOVAR 
0136645070999991985111700004-02850+011017FM-12+007999999V0201001N00211004801CN0100001N9+02341+02251100791ADDAG10999AY191061AY221061GA1041+003009059GA2081+004809059GF108991081051002501999999MD1999999+0141MW1031REMSYN023333   58014 84610 88616
0099714500999991985012303004+51133-106583SAO  +0595WOK  V0209999999999010501EN0144001N1-00901+99999102101ADDAG10000GD14991+0105099GF108991999999999999999999MW1001REMAWY033/-/ 8003         ?    84MM(0009)?
0082702710264251985042912004+62150-145450SAO  +0481GKN  V0201701N002619999999N9999999N9+99999+99999999999ADDAA106000091AG10000MA1100511999999MD1010001+9999REMAWY004000?EQDQ01+000002VOVAR 
0144402700999991985040812004+31983+035983SY-MT+0767OJAM V0202801N00211220001CN0100001N1+01721-00041101521ADDAA106000091AG14000AY101999GA1041+060009009GF104991001001999999001021MA1101491999999MD1710161+9999MW1021REMSYN011333   84070MET012CAVOK NOSIG?
0050478870999991985110215004+33833+132783FM-12+003499999V0200101N00261220001CN0300001N9+01091+00491102731ADDAG12000GF101991011011999999001001MD1010051+9999
0095228060999991985033112004+61333+031600FM-12+002499999V0202401N00301075001CN0300001N9+00341-00521099851ADDAG12000AY101061GF105991031021012501001021MD1710041+9999MW1021OA149900601REMSYN011555   91106
035172205612834198507311500C+29183-081050SAO  +0009DAB  V0203305N002652200059N0160005N1+03065+02175101965ADDAA101000095AG10000GA1999+007625085GA2999+091445005GD11999+0900093GD20015+9999999GF101005999011999999001991MA1101961101815MD1110071+9999MW1001REMAWY017FEW CU/ 107 1101?EQDN01 00000JPWTH 0P01    003SCCGD1QNNE81 0 00100E81 0 00001G21U0 99999H11 0 11025H11 0 32300K21 0 00071L21 0 01000M11 0 30065N21 0 00000Q21 0 10196S21 0 00087V11 0 00100X21 0 33005
0064298360999991985032618004+53750+084950FM-12+022199999V0201001N00101220001CN0200001N9-01001-01731103191ADDAG12000AY101061GF100991001001999999001001MD1210241+9999MW1021
0118151110999991985022212004+46917+026833FM-12+020799999V0202001N00101220001CN0008001N9-01051-01111103171ADDAA106000091AG10000AJ100359199999999AY141061GF100991001001999999001001IA1289MD1710091+9999MW1441REMSYN011333   44035
0093789880999991985091919004+12200-068967FM-15+0017MACC V0200801N008819999999N0112001N1+03201+02601999999ADDAG12999GA1021+006309089GA2011+999999099MA1100911999999REMMET008CB TO S?EQDQ01+000000PRSWM2
0076719680999991985080507004+68933-137233SAO  +0037YUA  V0202701N007219999999N9999999N9+00101+99999102111ADDAG10999MA1102071101621EQDQ01+999990APOSP Q02+999990APOSLPQ03+000002VOVAR 
0139999999999991985033006004+55800-155200FM-13+9999NMHT V0200901N00821002101CN0100001N9+00441+99999099201ADDAG12000AY101061GF108991081061002501999999MD1410001+9999MW1021UA1M040209999UG1082500709UG2080302109REMSYN02922253 20404 30721 40850 50806
0213999999931071985090600005+32867-117133SAO  +0140NKX  V0202905N001550097559N011200599+02065+01115101335ADDGD12035+9999999GD23055+9999999GD33055+9999999GF105995999999999999999999MA1999999999999QNNE41 0 00204E41 0 00406E41 0 00406G41 0 00032K41 0 00052L41 0 00700C41 0 29960Q41 0 10133S41 0 00069V41 0 00699X41 0 29003
0080992580999991985033102004+34300-120700FM-18+00034602 V0203301N006019999999N9999999N9+01171+99999102521ADDAG12999OA139900801SA1+1239UA1I110259999REMSYN02922200 00123 11105 333   92108
0164029820999991985122506004+59767+022950FM-12+001199999V0202201N00571001201CN0010001N9+00321+00271100411ADDAA199001091AG10004AJ199992999999999AY161061AY221061GF108991999071001501021999IA1259KA1120N+00281MD1710131+9999MW1631REMSYN017333   20028 41998EQDQ01+000082SCOTLC
0085560340999991985102409004+33800+097133FM-12+441999999V0209991C00001220001CN0300001N9-00171-01101999999ADDAG12000GF102991011011008001001021MA1999999059641MD1710111-0101REMSYN011333   05104
0050286730999991985042621004+55450+069317FM-12+009299999V0202501N00201220001CN0500001N9+01461+01041999999ADDAG11000AY101031GF100991001001999999001001MW1021
0106062900999991985020614294+52267+006900FM-15+0035EHTW V0203001N00511006601CN0050001N1+00501+00201999999ADDAG12999GA1021+004209089GA2041+006609059GA3061+007509059MA1101391999999MW1051REMMET018WHT YLO TEMPO AMB?
005472417013729198503080300E+38883-079850SAO  +0594EKN  V02099999999999999999N999999999+00895+99999999999ADDAA101000095MA1999999095265QNNM11 0 28130S11 0 00048
0077719665999991985121517004+67567-139833SAO  +0253YOC  V0200701N003112200019N0240001N1-02601-03001101941ADDAG10999GF100991999999999999999999MA1101561999999MW1761REMAWY011SAWR  CLR ?
028972408013739198510031400C+39883-075250SAO  +0002PHL  V0200505N005750021359N0080005N1+01285+01175102105ADDAA101000095AG10999GD12995+0015099GD23995+0021099GD34995+0036099GF108085999999999999999999MA1102101102005MW1455MW2615EQDQ01+999990APOSP N01 02070JPWTH 0QNNE81 0 00299E81 0 00499E81 0 00699G21 0 00007K21 0 00053L21 0 00500M11 0 30120N21 0 02070Q21 0 10210S21 0 00055V11 0 01010X21 0 05011
0076038620999991985062718504+50783-001833FM-15+0011EGHH V0203001N00621075001CN0112001N1+01501+00701999999ADDAG12999GA1011+010509089GA2071+075009009MA1102101999999EQDQ01+000000PRSWM2
0121999999999991985060912004+58800-160200FM-13+9999WTEF V0201301N01031012001CN0100001N9+00641+99999101901ADDAG12000GF106991061081008001071999MD1210101+9999SA1+0399UA1M020109999UG1050101609REMSYN02922200 00039 20202 316// 40502
0105716250999991985031815004+45950-077317SAO  +0130YWA  V0203001N002112200019N0240001N1-01201-02501102291ADDAG10000GF100991999999999999999999MA1102171100621MD1110081+9999MW1001REMAWY0061008 ?EQDQ01+999990APOSP 
0087725290147681985040916194+43117-077667SAOSP+0169ROC  V0203301N006712200019N0240001N1+99999+99999999999ADDAG10999GD12991+0084099GF102991999999999999999999MA1102131999999MW1001REMAWY006SWU S?
0119526740999991985082418004+38467+102183FM-12+167699999V0209991C00001220001CN0300001N9+00981+00291999999ADDAA106000091AG14000GF101991001001999999001021KA1240M+99999MD1410001+0001REMSYN017333   00035 11154EQDQ01 -01542ATMX  
0067724870999991985042319004+37617-114517SAO  +1335P38  V0202001N003119999999N9999999N9+02061-00271999999ADDAG10999MA1102001999999REMAWY014PK WND 16 000?EQDQ01+000002VOVAR 
0282479330422151985070307003+26267+127750SAO  +0084ROTM V0201805N007252200059N0112005N1+03115+02505101215ADDAG12999GA1021+004575085GA2031+076205005GD12025+9999999GD23035+9999993GF106995999999999999999999MA1101121999999REMMET006CIGNO?EQDQ01+000000PRSWM2QNNE41 0 00203E41 0 00304G41U0 99999H41 0 11015H41 0 32250K41 0 00077L41 0 00700C41 0 29860Q41D0 10121S41 0 00088V41 0 00799X41 0 18014
0065947530999991985100301004-33600+150783FM-15+0021ASRI V0200401N00211999991CY0099001N1+02201+01101999999ADDAG10999MA1102001999999REMMET012CAVOK NOSIG?EQDQ01+000000PRSWM2
0087727856999991985102602004+47667-117333SAO  +0595SFF  V0202401N002110600019N0240001N1+00721-00271999999ADDAG10999GD12991+0210099GD24991+0600099GF108991999999999999999999MA1101931999999MW1001
0050542920999991985061109004+42883+129467FM-12+017899999V0200701N00501012001CN0300001N9+01351+01031101271ADDAG12000GF108991081051012501999999MD1710051+9999
0075717260999991985122411004+47917-074617SAO  +0442WPK  V02099999999999999999N0032001N1+99999+99999999999ADDAG10999MW1001REMAWY050977/-09/-10/1204/-/ 7019     ?    52MM(0000,0000)?
0065080450999991985090511004+42217-008633FM-15+0246LEVX V0209991C00001999991CY0099001N1+02201+01601999999ADDAG12999MA1102511999999REMMET012CAVOK NOSIG?EQDQ01+000000PRSWM2
0064297220999991985040103004+54667+081050FM-12+017599999V0201801N00801004201CN0100001N9+00001-00201999999ADDAG11000AY101031GF108991081091004501999999MD1710161+9999MW1021
0064374720999991985010312004+43017+047433FM-12-001499999V0201501N00601220001CN0500001N9+00301-00201101541ADDAG11000AY101061GF105991001001999999001011MD1310011+9999MW1021
0114610990999991985090111004+11883+003450FM-12+020399999V0209991C00001090001CN9999999N9+03021+02211100971ADDAG12999GA1011+012009089GA2061+090009029GF106991011011017501001081MD1999999+0041REMSYN023333   58004 81840 86280
0065029740999991985061700204+60317+024967FM-15+0051EFHK V0209991V00261999991CY0099001N1+01001+00801999999ADDAG12000MA1100711999999REMMET012CAVOK NOSIG?EQDQ01+000000PRSWM2
0060788067999991985122618004+08983-079517FM-15+0013MPMG V0200101N00511220001CN0112001N1+03101+02301999999ADDAG12000GA1031+007509089MA1101191999999EQDQ01+000000PRSWM2
0061171160999991985080200004+40183+029067FM-12+0100LTBE V0202201N00411220001CN0250001N9+02201+01751101031ADDAA106000091AG14000GF100991001001999999001001MD1210201+9999
0050580400999991985060915004+34833+119133FM-12+000399999V0200201N00101036001CN0200001N9+02191+02051100501ADDAG12000GF108991081001999999071999MD1210051+9999
0115723086999991985010215004+37133-076500SAO  +0012PHF  V0202001N00721018001EN0160001N1+02171+01611999999ADDAG10000GD13991+0180099GD23991+0600099GF107991999999999999999999MA1102241999999MD1110101+9999MW1001REMAWY005/110?
0140718520999991985072020004+49917-097233SAO  +0239YWG  V0201801N002112200019N0240001N1+02001+00801101761ADDAG10999GD12991+0138099GD22991+0300099GD33991+0750093GF107991999999999999999999MA1101731098891MW1001REMAWY010CU3AC1CI1?EQDQ01+999990APOSP 
0072744655999991985072717004+41767-088317SAO  +9999ARR  V0202901N002612200019N0240001N1+02611+01671999999ADDAG10999GD12991+0120099GF102991999999999999999999MA1102171999999MW1001
022872513014777198506040100C+41333-075733SAO  +0284AVP  V0201105N001552200059N0400005N1+01785+00945101555ADDAA101000095AG10999GD12995+0150099GF102025999999999999999999MA1101561098145MW1001REMAWY004AVX?EQDN01 00000JPWTH 0QNNE81 0 00299G21U0 99999K21 0 00049L21 0 02500M11 0 28980N21 0 00000Q21 0 10155S21 0 00064V11 0 00303X21 0 11003
0095724505039231985040820004+37617-097267SAO  +0418IAB  V0200201N003112200019N0112001N1+01171-00551103421ADDAG10999GD12991+0450099GD22991+0750093GF102991999999999999999999MA1103391999999MW1001OC100721
0064166430999991985043009004+38950+020767FM-12+0003LGPZ V0203501N00931220001CN0200001N9+01521+00571101661ADDAG12000AY101031GF102991021021004501001001MD1210191+9999MW1021
0095257030999991985020221004+62917+152417FM-12+020799999V0202001N00101030001CN0040001N9-02801-03111099661ADDAA112002091AG10001AY171031GF108991081001999999021999MD1710281+9999MW1711REMSYN011333   60022
0108106580999991985080415004+50200+010083FM-12+0226EDFK V0202501N00311036001CN0400001N9+01801+00911101221ADDAG12000GA1041+009909089GA2051+036009039GF107991051081012501031011MD1610141+9999REMSYN017333   84833 85362
0204726071146061985081405003+44800-068817SAO  +0050BGR  V0201505N00265036585EN0112005N1+01725+01285101685ADDAG10999GD14995+0360099GF108085999999999999999999MA1101661100955MW1001EQDN01 00000JPWTH 0QNNE81 0 00699G21 0 00120K21 0 00055L21 0 00700M11 0 29810N21 0 00000Q21 0 10168S21 0 00063V11 0 01010X21 0 15005
0070724097999991985100701004+40800-074417SAO  +0057MMU  V0209991C000012200019N0320001N1+99999+99999999999ADDAG10999GF100991999999999999999999MA1101631999999MW1001REMAWY004MNM?
0294722515129261985090616003+27683-097283SAO  +0006NGP  V0201905N007752200059N0112005N1+03335+02285101575ADDAG10999GD12035+0060099GD22035+0300099GD33055+0750093GD43055+0900093GF105995999999999999999999MA1101521999999MW1001OC101081REMAWY025CB E DSIPTD MDT CU ALQDS?QNNE41 0 00204E41 0 00204E41 0 00306E41 0 00306G41U0 99999K41 0 00073L41 0 00700C41 0 29980Q41 0 10157S41 0 00092V41 0 00699X41 0 19015
0119716040999991985020513004+45517-061250SAO  +0066WOQ  V0203101N007712200019N0240001N1-01801-02101102401ADDAG10999GF100991999999999999999999MA1102301101511MW1001REMAWY034LIGHTHOUSE       ?    WINDS 2924 ?EQDQ01+999990APOSP 
0152062750999991985052906004+52067+005883FM-12+0048EHDL V0200201N00571066001CN0250001N9+01001+00711102471ADDAA106000091AG10000AY101061GA1031+003609089GA2031+066009009GF105991031081004501031021KA1120N+00751MD1110121+9999MW1021REMSYN023333   20075 83812 83072
0105577450999991985111000004+27450+109683FM-12+026699999V0209991C00001220001CN9999999N9+00531+00491102251ADDAA106000091AG10000GF100991001001999999001001IA2999+00359MD1210071-0401MW1461REMSYN017333   05453 30035
0064014520999991985050409004+58200+008083FM-12+0017ENCN V0209991C00001007501CN0250001N9+00641+00151100651ADDAG12000AY101031GF107991061021008001999999MD1710051+9999MW1021
0226724885931021985110820003+39417-118717SAO  +1199NFL  V0201805N002650304859N0112005N1+01395+00065101145ADDAG10999GD12015+0150099GD23055+0300099GD33055+0750099GF105995999999999999999999MA1101151999999MW1001QNNE41 0 00201E41 0 00406E41 0 00406G41 0 00100K41 0 00033L41 0 00700C41 0 29870Q41 0 10114S41 0 00057V41 0 00699X41 0 18005
0075874800999991985012718004-32917-060783FM-12+0027SAAR V0200901N01031220001CN0150001N9+02771+01521101091ADDAA106000091AG10999AY101061GF103991031081012501001001MD1810121+9999MW1021
0080108050999991985013116454+48367+007833FM-15+0154EDAN V0202001N008810051019N0060001N1+99999+99999999999ADDAG12999GA1011+003609089GA2061+005109059GA3081+007509059MW1581REMMET007CIG017?
0122064510999991985050910004+50900+004467FM-12+0039EBBR V0202601N00311001201CN0015001N9+00931+00851100761ADDAG11999AY121011GA1041+000909079GA2061+001209079GF108991081061000751999999MD1210101+9999MW1101REMSYN017333   84703 86704
0111064900999991985022200004+50483+005917FM-12+0485EBSP V0209991C00001002101CN0015001N9-00171-00481103341ADDAA106000091AG10000AY121061GA1071+002109079GF108991071061002501999999MD1010031+9999MW1051REMSYN011333   87707
0100103130999991985022715004+51967+007600FM-12+0064EDLT V0203101N00211000301CN0001001N9+00071+00051102791ADDAG12000AY141031GA1091+000309999GF109991091999999999999999MD1610041+9999MW1451REMSYN011333   89/01
0038999999999991985031622004+51400-007900FM-13+9999PLAT V0203001N01441999999CN9999999N9+00601+99999101301ADDAG12999MD1410001+9999REMSYN00522200
011772344013964198506020500D+35333-094367SAO  +0141FSM  V0200601N003110750019N0240001N1+02441+02061100991ADDAA101000095AG10999GD12991+0300099GD23991+0750099GF107991999999999999999999MA1101051099361MW1001EQDQ01+999990APOSP 
0108105260999991985073113004+50667+007967FM-12+055599999V0203001N00261003001CN0180001N9+01471+01181100981ADDAG12999GA1031+002109089GA2061+003009089GF107991071021002501999999MD1210101+9999REMSYN017333   83807 86810
0177710720999991985021915004+76233-119317SY-SA+0020YMD  V0201701N006212200019N0032001N1-03841+99999101241ADDAG12000AY171031GD12991+0150099GD23991+0300093GF106991011051017501071001MA1101221101081MD1310081+9999MW1451MW2761REMAWY034SC1AC4 DRFTG SNW       ?    3008 ?EQDQ01+999990APOSP 
014572568524019198508031800D+42750-105383SAO  +14774DG  V0203101N005112200019N0560001N1+02391+00441101211ADDAA101000095AA206000091AG10000GD12991+0120099GD22991+0180099GF102991999999999999999999MA1101761999999MD1010021+9999MW1001REMAWY013002 52/NOSPL?
0106999999999991985041000004+53000+001700FM-13+9999PLAT V0203001N005119999999N0200001N9+00621+00571100291ADDAG12000AY101061GF108991999999999999999999MW1021OA159903091UA1M030009009REMSYN02322200 20300 555   00560
0110605710999991985102918004+31617-002233FM-12+0773DAOR V0201301N00361090001CN0150001N9+02201-00051999999ADDAA106000091AG14000GA1051+999999009GF105991001001999999001021MA1999999091971REMSYN023333   1/243 8507/ 95910
0065171290999991985042222004+39950+032683FM-15+0806LTAD V0202701N00151999991CY0099001N1+00801+00301999999ADDAG12999MA1100911999999REMMET012CAVOK NOSIG?EQDQ01+000000PRSWM2
0050309710999991985110406004+50917+117933FM-12+080799999V0202701N00501220001CN0500001N9-00131-01481101691ADDAG12000GF100991001001999999001001MD1810041+9999
0122999999999991985072300004+38600+132000FM-13+9999UMAY V0202001N00501220001CN0040001N9+02451+02331101111ADDAA106000091AG14000AY121061GF107991001001999999001041MD1810061+9999MW1101SA1+2409UA1M020059999REMSYN01722282 00240 20201
0050297590999991985061215004+54333+089283FM-12+084699999V0209991C00001030001CN0500001N9+00871+00251101271ADDAG12000GF107991051001999999041011MD1810191+9999
0050284560999991985101312004+56533+064683FM-12+011399999V0202601N00501220001CN0200001N9+00771-00381103031ADDAG12000GF101991001001999999001011MD1310031+9999
0087723781999991985111220004+35950-112150SAO  +2125GCN  V0201701N005110036019N0112001N1-00211-00321999999ADDAG10999GD12991+0021099GD24991+0036099GF108991999999999999999999MA1100951999999MW1001
0063060300999991985040915204+57100+009867FM-15+0003EKYT V0200501N00771003001CN0025001N1+00001-00201999999ADDAG12001GA1031+002109079GA2071+003009079MA1099801999999MW1711
0119999999999991985121612004+51000+001500FM-13+9999FNMS V0202701N01031004201CN0200001N9+01011+00661102901ADDAG12000AY121061AY221061GF108991071051004501021999MD1210021+9999MW1021SA1+1119UA1M990159999REMSYN01722234 00111 2//03
026372255012912198501130500C+28850-096917SAO  +0032VCT  V0203605N00525002745MN0032005N1-00285-00395103325ADDAA101000595AG10999GD13995+0027099GD24995+0036099GF108085999999999999999999MA1103321102905MW1715MW2795EQDQ01+999990APOSP N01 09040JPWTH 0QNNE81 0 00499E81 0 00699G21 0 00009K21 0 00025L21 0 00200M11 0 30385N21 0 09040Q21 0 10332S21 0 00027V11 0 01010X21 0 36010
0059065900999991985102218504+49617+006217FM-15+0379ELLX V0200701N00411220001CN0070001N1+00601+00201999999ADDAG12999MA1102811999999REMMET006NOSIG?EQDQ01+000000PRSWM2
0087569860999991985090221004+22900+103667FM-12+999999999V0209991C00001004201CN0250001N9+01811+01701100871ADDAA124003091AG10000GF107991061041004501041999MD1710081+0201REMSYN017333   00251 60034
021672327013897198504100100C+36117-086683SAO  +0180BNA  V0203605N004152200059N0320005N1+00785-00675102815ADDAA101000095AG10999GF100005999999999999999999MA1102781100545MW1001EQDQ01+999990APOSP N01 00000JPWTH 0QNNE81 0 00099G21U0 99999K21 0 00020L21 0 02000M11 0 29690N21 0 00000Q21 0 10281S21 0 00046V11 0 00000X21 0 36008
0074165310999991985011405504+40900+009517FM-15+0011LIEO V0202501N00361009001CN0112001N1+00401+00201999999ADDAG12000GA1031+006009089GA2041+009009059REMMET004BKN?EQDQ01+000000PRSWM2
0108313460999991985052012004+53783+136833FM-12+005299999V0202001N00301220001CN0500001N9+01891+00211099941ADDAA106000091AG10000AY101061GF100991001001999999001001KA1120M+02541MD1310061+9999MW1021REMSYN011333   10254
0097999999999991985111318004-20800+012500FM-13+9999ESBS V0201601N00301015001CN0200001N9+01701+99999101231ADDAG10999GF106991061081012501001001MD1510141+9999SA1+2689UA1M000009999REMSYN01722213 00268 20000
0092788620999991985121410004+17133-061783FM-15+0010MKPA V0200901N00821220001CN0112001N1+02501+01901101651ADDAG12999GA1011+007509089MA1101591101421EQDQ01+999990APOSP Q02+999990APOSLPQ03+000000PRSWM2
0102722246038441985102414004+30650-086517SAO  +0059EGI  V0200801N00361001201MN0080001N1+02331+02171999999ADDAG10999GD13991+0012099GD23991+0240099GF107991999999999999999999MA1102071999999MW1451REMAWY006FIRST?
0072724175999991985011603004+39283-080233SAO  +0366CKB  V0202701N00511010501EN0160001N1+99999+99999999999ADDAG10000GD14991+0105099GF108991999999999999999999MA1102441999999MW1001
0095430630999991985030318004+18533+073850FM-12+055999999V0209991C00001220001CN0040001N9+01901+00831101191ADDAA106000091AG14000AY101061GF100991001001999999001001MD1999999-0031MW1021REMSYN011333   59003
0086992020999991985101614004+23400-162300FM-18+0003DB02 V0200401N009019999999N9999999N9+02201+99999101211ADDAG12999OA139901001SA1+2629UA1I100339999REMSYN03522200 00262 11007 333   92110 98233
0084672210999991985041809004-13233+037550FM-12+076099999V0201901N00201007501CN0400001N9+02351+01861999999ADDAG10001AY101031GF106991061021008001001001MD1999999-0171MW1021REMSYN011333   59017
0136233300999991985100406004+66533+066533FM-12+003599999V0200501N00601003601CN0200001N9+00261+00131099491ADDAA112001091AG10001AY161061GA1061+003609079GF107991061071004501051011KA1120N+00151MD1210201+9999MW1021REMSYN023333   20015 60010 86712
0045637200999991985110222004-00500+037450FM-15+1493HKEM V0201401N00151220001CN0112001N1+01701+01501999999ADDAG10999GA1041+004809059EQDQ01+000000PRSWM2
0129153640999991985120809004+44933+022000FM-12+024099999V0209991C00001000151CN0000001N9-00151-00151102511ADDAG11000AY141031AY241031GA1091+999999999GF109991091999999999999999MA1999999099271MD1310131+9999MW1451REMSYN017333   95990 92010
0123477880999991985012407004+34033+131533FM-15+0005RJOF V0203001N00671006001CN0112001N1+00701+00201999999ADDAG11999GA1011+004509089GA2051+006009089GA3061+010509089MA1101731999999MW1801OC101131REMMET027177/ FCST 0713 96081 WXNIL?
0081164530999991985100600004+37083-014217FM-12+0033LICL V0209991C00001220001CN0140001N9+01701+01441101811ADDAA106000091AG14000GF100991001001999999001001MD1010001+9999REMSYN011555   0100/
0094504680999991985101506004+50250+127450FM-12+016699999V0200201N00201030001CN0250001N9+00501-00851101591ADDAA106000091AG14000GF107991071001999999021999KA1240N-00051MD1710081+9999REMSYN011333   21005
0058080420999991985111802304+42900-008433FM-15+0367LEST V0209991V00311999991CY0099001N1+00501+00301999999ADDAG12000MA1102511999999REMMET005CAVOKEQDQ01+000000PRSWM2
0058083140999991985080108004+39883+004250FM-15+0082LEMH V0200201N00721999991CY0099001N1+02501+01601999999ADDAG12999MA1101491999999REMMET005CAVOKEQDQ01+000000PRSWM2
0064342670999991985052921004+50367+044117FM-12+010299999V0200701N00101220001CN0200001N9+02021+01111101481ADDAG11000AY101031GF100991001001999999001001MD1710011+9999MW1021
0083011160999991985092314404+65967+012467FM-15+0017ENST V0202601N00311009001CN0112001N1+00701+00301999999ADDAG12002GA1021+006009089GA2041+009009089MA1101391999999MW1271REMMET011PAST MAX18?
0064478370999991985050521004+30733+131000FM-12+001799999V0201701N00361220001CN0300001N9+02101+01771101501ADDAG12000AY101031GF102991011011999999031011MD1310051+9999MW1021
0036024280999991985092815004+59100+014367FM-12+010599999V0203201N00261220001CN0750001N9+01061-00241999999ADDAG12000GF104991001001999999001081
0100063440999991985032003004+51950+004433FM-12-0004EHRD V0209991V00101013501CN0030001N9+00001-00071100671ADDAG12000AY121031GA1071+013509059GF108991071051012501071999MD1810141+9999MW1101REMSYN011333   87645
0091726059999991985080815004+43067-070717SMARS+000125B  V0202301N002519999999N0092001N9+02221+99999101381ADDAG10999GF107991999999999999999999MW1451MW2531UG1050009999REMSYN022PORTSMOUTH  HBR   STA?
0064531920999991985042409004+44017+114950FM-12+112899999V0202701N00701007501CN0250001N9+01251-00711100151ADDAG12000AY181031GF107991061021008001001021MD1210251+9999MW1001
0159722805031451985052613003+32650-114617SAO  +0065NYL  V0202505N001052200059N0112005N1+02335+00225100615ADDAG10999GF100995999999999999999999MA1100611999999MW1001QNNE41 0 00000G41U0 99999K41 0 00036L41 0 00700C41 0 29710Q41 0 10061S41 0 00074V41 0 00099X41 0 25002
0075033340999991985031216504+53350-002267FM-15+0078EGCC V0202401N00311220001CN0112001N1+00801+00101999999ADDAG12999GA1011+007509089MA1103011999999REMMET006NOSIG?EQDQ01+000000PRSWM2
0095527650999991985051412004+37367+101617FM-12+268299999V02099999999999999999N0300001N9+99999+99999999999ADDAA106000091AG14000AY101061GF199999001001999999001021MD1210051-0101MW1021REMSYN011333   05104
0160614150999991985090121004+20933-017033SY-MT+0003GQPP V0202801N00211220001CN0070001N1+02161+02051101121ADDAG12000GA1021+039009039GF103991999001999999031001MA1101081999999MD1999999+0151MW1001REMSYN017333   58015 82363MET006NOSIG?EQDQ01+000022SCOTLCQ02+000000PRSWM2
0095200970999991985030421004+79383+102417FM-12+003799999V0203501N01001220001CN0260001N9-02941-03171102601ADDAG12000AY131031GF102991021001999999031001MD1210121+9999MW1361OA149901401REMSYN011555   91114
022899999903872198506191700E+37783-081117SAO  +0763BKW  V0202505N003150079259N032000599+01675+01065101225ADDAA101000095GD13995+9999999GD24995+9999999GF108085999999999999999999MA1999999092555EQDN01 00000JPWTH 0QNNE81 0 00499E81 0 00699G21 0 00026K21 0 00051L21 0 02000M11 0 27330N21 0 00000Q21 0 10122S21 0 00062V11 0 01010X21 0 25006
0086033790999991985100409004+53033-000500FM-12+0067EGYD V0201801N00981005701CN0250001N9+01531+01111100261ADDAG12000GA1061+005709089GF106991061011004501001001MD1610011+9999REMSYN011333   86819
0068607400999991985010502154+35667+010750FM-15+0003DTTM V0202301N00621999991CY0099001N1+00801+00301999999ADDAG11999MA1100711999999REMMET015CAVOK (050100)?EQDQ01+000000PRSWM2
0095035831999991985090616004+52400+000567FM-15+0010EGUL V0203001N003112200019N0112001N1+01601+00101999999ADDAG12999GA1031+009009089GA2021+060009009MA1102681999999REMMET010CIGNO BLU?EQDQ01+000000PRSWM2
0154999999999991985010512004+30600-044800FM-13+9999USLN V0202801N008019999999N0200001N9+02161+99999101761ADDAG12000AY101061GF106991999001008001051001MD1410001+9999MW1021SA1+2009UA1M040159999UG1010153009REMSYN02922253 00200 20403 33000 40103EQDQ01+000032SCOTLC
0116999999999991985021706004+38600+120700FM-13+9999BPLJ V0200201N015019999999N0200001N9-00631+99999103521ADDAG12000AY101061GF105991999011008001001001MW1021SA1+0019UA1M990259999REMSYN01722233 00001 2//05EQDQ01+000022SCOTLC
0105717000999991985040705004+45867-066533SAO  +0023YFC  V0202101N00511002701MN0240001N1+00901+00901100101ADDAG10999GD13991+0027099GF107991999999999999999999MA1100071099831MW1001REMAWY005SF9 ?EQDQ01+999990APOSP 
0050509150999991985090703004+45517+116967FM-12+084099999V0202201N00401090001CN0300001N9+02561+01141100991ADDAG12000GF107991011001999999031021MD1710111+9999
0108637090999991985022503004-00683+034700FM-12+1493HKKS V0200901N00261045001CN0300001N9+01751+01181999999ADDAG10999AY121031GA1011+005409099GA2031+005409059GF106991031091004501041001MW1131REMSYN017333   81918 83618
0143321560999991985052600004+46633+142783FM-12+003499999V0202001N00601999999CN0008001N9+00871+00851099491ADDAA112009091AA224009091AG10000AY181061GF108991999999999999999999KA1120N+00901MD1710181+9999MW1511REMSYN035333   20090 60090 99744 555   70090
0094992380999991985080906004+35800-121700FM-18+00034602 V0203201N006019999999N9999999N9+01501+99999101251ADDAG12000MD1210051+9999OA139900701SA1+1629UA1I090259999REMSYN02922200 00162 10905 333   92107
0107172800999991985052921504+37883+040183FM-15+0677LTCC V0202701N00361220001CN9999999N9+01801+01001999999ADDAG12999GA1011+012009059GA2031+030009039MA1101081999999REMMET006NOSIG?EQDQ01+000002VOVAR Q02+000000PRSWM2
0121354160999991985120400004+49067+054683FM-12+008999999V0203601N00301005101CN0040001N9-00591-00661101481ADDAG12000AY151061AY251061GA1081+005109079GF108991081061004501999999MD1710221+9999REMSYN011333   88717EQDQ01+000512PRSWM1
0161412170999991985071512004+24433+054650SY-MT+9999OMAA V0202901N00311220001CN0140001N1+03841+02611099491ADDAA106000091AG14000GA1011+090009009GF101991001001999999001011MA1099391999999MD1999999+0051MW1001REMSYN017333   58005 81080MET012CAVOK NOSIG?EQDQ01+000000PRSWM2
0116176090999991985062606004+34883+033633FM-12+0002LCLK V0200901N00261220001CN0200001N9+02441+01971101121ADDAA106000091AG14000GA1011+003009079GF101991011061004501001001KA1120N+01741MD1110131+9999REMSYN017333   20174 81710
021472797094240198511070800E+47950-124550SAO  +0055UIL  V0202305N003150015259N004800599+00785+00675102045ADDAA101000595GD14995+9999999GF108085999999999999999999MA1999999101275MW1455MW2805EQDN01 02370JPWTH 0QNNE11 0 00699G11 0 00005K11 0 00044L11 0 00300M11 0 29905N11 0 02370Q11 0 10204S11 0 00046V11 0 01010X11 0 23006
0072727795999991985032820004+47600-115367SAO  +07253TH  V0200101N00361015001EN0240001N1+01001+99999999999ADDAG10999GD13991+0150099GF107991999999999999999999MW1001REMAWY006NOSPL?
0132713990999991985090613004+43717-065250SAO  +0030WOS  V0200601N001510060019N0096001N1+01501+01401101431ADDAG10999GD16991+0001599GD24991+0060099GF108991999999999999999999MA1101421101061MW1451REMAWY017F2SC8 VSBY SW 2 ?EQDQ01+999990APOSP 
0087912750216031985041711004+16733-169517SAO  +0005PJON V0200801N009312200019N0160001N1+02441+02111101501ADDAG10999GD12991+0060099GD22991+0150099GF102991999999999999999999MA1101491999999MW1001
0064295830999991985012209004+56117+097317FM-12+033899999V0209991C00001075001CN0500001N9-01511-01781103581ADDAG11000AY101031GF108991001001999999001071MD1710021+9999MW1021
0055153450999991985020811004+45000+024533FM-12+054899999V0203401N00401220001CN9999999N9-00361+99999999999ADDAG12999GF101991001001999999001011EQDQ01+000932SCOLCB
0107767584999991985080616004+17650-101450SAO  +0006ZIH  V0209991C000012100019N0128001N1+02601+02301999999ADDAG10999GD12991+0480099GD23991+2100099GF107991999999999999999999MW1001REMAWY026152 BMSO CBS DIST N 03390?
0047103060999991985012122454+52300+007383FM-15+0040EDCE V0201901N00361004501CN0050001N1+00501+00201999999ADDAG12999GA1081+004509059MA1098981999999MW1101
0096723235138961985012523004+34750-087617SAO  +0168MSL  V0203301N007712200019N0320001N1+00001-01211102171ADDAG10999GD12991+0750099GF102991999999999999999999MA1102131999999MW1001OC101291REMAWY007PRESRR?
0078128390999991985011903304+47433+019233FM-15+0152LHBP V0209991C00001030001CN0060001N1-00801-01201999999ADDAG12999GA1011+012009059GA2071+030009039MA1100411999999MW1101REMMET006NOSIG?
0053994070999991985101517004+47667-124483FM-12+0016DESW V0201601N006219999999N9999999N9+01241+99999102141ADDAG12999OA139900671REMSYN023333   92113 555   91725
0120062350999991985111820004+52917+004783FM-12+0001EHKD V0200801N01391220001CN0140001N9+00051-00401103771ADDAG12999GA1011+006609089GF101991011011008001001001MD1810201+9999OA149901961OA259901391REMSYN023333   81822 91138 91227
0058031400999991985031920504+55867-004433FM-15+0008EGPF V0201201N00411999991CY0099001N1+00101-00701999999ADDAG12000MA1101081999999REMMET005CAVOKEQDQ01+000000PRSWM2
0075152005999991985052310304+46183+021267FM-15+0110LRAR V0202701N00411220001CN0112001N1+02101+01201999999ADDAG11999GA1031+012009089MA1100811999999REMMET006NOSIG?EQDQ01+000000PRSWM2
0108358490999991985041406004+45767+062117FM-12+006899999V0209999999999220001CN0200001N9+00661-00641102021ADDAA106000091AG10000AY101061GF103991021001999999041011KA1120N-00281MD1210201+9999MW1021REMSYN011333   21028
020072582524121198508071100C+40833-115783SAO  +1539EKO  V0203205N002652200059N0320005N1+01395-00285101105ADDAA101000095AG10999GF100005999999999999999999MA1101801084475MW1001EQDN01 00000JPWTH 0QNNE81 0 00099G21U0 99999K21 0 00027L21 0 02000M11 0 24945N21 0 00000Q21 0 10110S21 0 00057V11 0 00000X21 0 32005
0087722116999991985122505004+27917-082683SAO  +0003PIE  V0209991C000012200019N0024001N1+01831+01671999999ADDAG10999GD16991+0001599GF110991999999999999999999MW1051MW2451REMAWY015R17LVV11/2+ F4?
0154036040999991985091606004+51700-005050FM-12+003799999V0202401N01031004501CN0100001N9+01241+01091101881ADDAA199000191AG10001AY161061GA1081+004509079GF108991081071004501999999IA1099IA2999+01109KA1120N+01121MD1710131+9999MW1601REMSYN023333   20112 31011 88715
0123711970999991985112914004+47567-059167SAO  +0040WZB  V0203101N00621007501EN0240001N1-00401-00701101431ADDAG10999GD13991+0075099GF107991999999999999999999MA1101391100911MW1851OC101131REMAWY015SC9 DRFTG SNW ?EQDQ01+999990APOSP 
0100200490999991985062521004+80367+052917FM-12+001699999V0203601N00501001201CN0014001N9-00041-00071099421ADDAG12000AY121031GA1081+001209079GF108991081061001501999999MD1310011+9999MW1101REMSYN011333   88704
0063787410999991985040615004+12117-086183FM-15+0053MNMG V0201001N00311090001CN0112001N1+02801+01901999999ADDAG12000GA1011+006009089GA2061+090009029MA1101251999999MW1051
0122037960999991985100412004+51133+001350FM-12+011799999V0202101N01031009001CN0200001N9+01621+01251100931ADDAG12001AY181061GA1031+006009089GA2051+009009059GF107991061081008001031999MD1810011+9999MW1021REMSYN017333   83820 85630
0053994240999991985121813004+43333-124383FM-12+0017CARO V0201301N002119999999N9999999N9+00731+99999102641ADDAG12999OA139900261REMSYN023333   92105 555   91325
0103307270999991985112806004+52033+105400FM-12+046199999V0203501N00801075001CN0100001N9-01781-02191103421ADDAG12001AY181061AY231061GF105991021091008001001021MD1710031+9999MW1021OA149901201REMSYN011333   91112
0064171160999991985063003004+40183+029067FM-12+0100LTBE V0200901N00051220001CN0100001N9+01441+01301101681ADDAG11000AY101031GF100991001001999999001001MD1610031+9999MW1101
0074160590999991985111013504+45217+007650FM-15+0287LIMF V0209991C00001018001CN0015001N1+01001+00701999999ADDAG12999ED199U19209GA1041+002409079GA2071+018009059MA1100911999999MW1101
0094314740999991985111800004+51633+133300FM-12+038299999V0209991C00001220001CN0750001N9-02591-02711101581ADDAA106000091AG14000GF100991001001999999001001KA1120N-02951MD1210031+9999REMSYN011333   21295
0047969330999991985071306004-07217+112717FM-12+0003WRSP V0200901N00311220001CN0120001N9+03041+02011100911ADDAA106000091AG10999GF101991011011008001001011
027672432093817198507262000C+38050-087533SAO  +0116EVV  V0203405N001550085359N0112005N1+02895+02285101425ADDAA101000095AG10999GD12995+0042099GD23995+0084099GF106065999999999999999999MA1101461100035MW1001REMAWY010TCU ALQDS?EQDQ01+999990APOSP N01 00000JPWTH 0QNNE11 0 00299E11 0 00499G11 0 00028K11 0 00073L11 0 00700M11 0 29540N11 0 00000Q11 0 10142S11 0 00084V11 0 00808X11 0 34003
0063103040999991985100210454+52717+007317FM-15+002699999V0202401N00411010501CN0070001N1+02001+01501999999ADDAG12999GA1021+006609089GA2031+010509059MA1101691999999MW1051
0100107610999991985031504004+49033+010967FM-12+042299999V0202801N00211006901CN0060001N9-00021-00141101031ADDAG12999AY121011GA1071+006909059GF108991081051008001999999MD1410001+9999MW1101REMSYN011333   87623
0060602300999991985071522004+31617-008033FM-15+0466GMMX V0203401N00211220001CN0060001N1+03101+01301999999ADDAG12999GA1021+030009039MA1101801999999EQDQ01+000000PRSWM2
0065037720999991985061603204+51483-000450FM-15+0024EGLL V0203201N00151999991CY0099001N1+01101+00701999999ADDAG12000MA1102001999999REMMET012CAVOK NOSIG?EQDQ01+000000PRSWM2
0095724297938121985100819004+39100-084433SAO  +0149LUK  V0201701N007712200019N0240001N1+02331+00391102301ADDAG10999GD12991+0360099GD23991+0750093GF107991999999999999999999MA1102341999999MW1001OC101081
0102999999999991985082212004+47300+144900FM-13+9999UTOL V0201401N00301021001CN0100001N9+01701+99999101851ADDAG12000GF105991051001022501051001MD1710101+9999SA1+1609UG1040151609REMSYN02322213 00160 316// 40403
0087745700138401985042402004+39833-084050SAO  +0251FFO  V0202001N002110750019N0320001N1+02111+01111101221ADDAG10999GD12991+0300099GD24991+0750099GF108991999999999999999999MA1101251999999MW1001
0195702960264101985081615004+60500-145500SAO  +0013CDV  V0209991C000010087019N0112001N1+00781+00611101841ADDAG10000GD12991+0045099GD23991+0087099GD34991+0120099GF108991999999999999999999MA1101801999999MW1001REMAWY084FOG BANK S-SW          ?    VALDEZ NARROWS TV INDICATES OPEN VSBY 7 LOW STRATUS/FOG?
0050688280999991985122703004-34000+022383FM-12+0000FAGG V0209991C00001007501CN0200001N9+01651+01531101491ADDAG10999GF106991061051008001001001MD1710151+9999
0061486470999991985032918004+03117+101550FM-12+0017WMKK V0203401N00101045001CN0120001N9+02481+02441100801ADDAA106000091AG14001AY191061GF107991021091000251041021MW1131
026272524614891198509122200C+40817-082517SAO  +0395MFD  V0203605N005252200059N0160005N1+01335+00445102795ADDAA101000095AG10999GD12995+0120099GD22995+0210099GF104045999999999999999999MA1102781098005MW1001REMAWY012MDT CU NW-S?EQDN01 00000JPWTH 0QNNE11 0 00299E11 0 00299G11U0 99999K11 0 00040L11 0 01000M11 0 28940N11 0 00000Q11 0 10279S11 0 00056V11 0 00505X11 0 36010
0122106750999991985070105004+49883+010917FM-12+024399999V0201401N00101021001CN0040001N9+01191+01021101541ADDAG11999AY121999GA1061+021009059GA2081+030009039GF108991061051022501031999MD1810061+9999MW1101REMSYN017333   86657 88360
0214476960433231985080900003+35283+139667SAO  +0010RJTX V0200405N00055220005CN0112005N1+03005+02285101665ADDAG11000GA1031+004575085GD12035+9999999GF103995999999999999999999MA1101661999999EQDQ01+000000PRSWM2QNNE41 0 00204G41U0 99999H41 0 11015K41 0 00073L41 0 00700C41 0 30020Q41D0 10166S41 0 00086V41 0 00499X41 0 04001
0118132950999991985121606004+44233+022550FM-12+004499999V0202501N00401220001CN0200001N9+01001+00471101751ADDAA106000091AG14000GF104991041051012501001001IA1099IA2999+00109KA1120N+00611MD1410001+9999REMSYN017333   20061 31001
0116702720999991985081304004+61250-149800SAO  +0059PAED V0209991C000010075019N0400001N1+01441+01281101891ADDAG10999GD12991+0009099GD23991+0075099GD34991+0105099GF108991999999999999999999MA1101861999999MW1511REMAWY005WR//?
0071724106137281985080502004+36567-079333SAO  +0177DAN  V0209991C000012200019N0240001N1+02001+01561102391ADDAG10999GF100991999999999999999999MA1102401999999MW1001REMAWY005LAST?
0260700860274011985050501003+70133-143633SAO  +0012BTI  V0201005N005252200059N0240005N1-00225-00445101665ADDAG10999GA1999+003055075GD13055+0030093GF105025999999999999999999MA1101661101465MW1001REMAWY0046ST?EQDQ01+999990APOSP N01 00000JPWTH 0QNNE11 0 00306G11U0 99999H11 0 16010K11 0 00024L11 0 01500M11 0 29960N11 0 00000Q11 0 10166S11 0 00028V11 0 00602X11 0 10010
0164719430999991985081914004+56233-120733SAO  +0695YXJ  V0203501N005112200019N0480001N1+00901+00601101461ADDAG10999GD12991+0030093GD22991+0150093GD33991+0240093GF107991999999999999999999MA1101351093291MW1001REMAWY034CF1SC2AC2        ?    TCU ASOCTD ?EQDQ01+999990APOSP 
0210643970999991985041506004-02833+030333FM-12+175599999V0202601N00051090001CN0300001N9+01831+01571999999ADDAA124025091AG10999AY101061GA1011+009009059GA2031+010509089GA3051+090009009GF106991031081008001001011KA1120N+01301MA1999999082741MD1999999-0061ME1315199MW1021REMSYN041333   20130 59006 81630 83835 85080 827/4
0062162580999991985091523164+41700+015950FM-16+0844LIBE V0201801N00101999991CY0099001N1+99999+99999999999ADDAG12999REMMET024CAVOK MON LIB VAL NIL?M?EQDQ01+000000PRSWM2
0100471200999991985100800004+37250+127000FM-15+0024RKSW V0201401N001510036019N0048001N1+01601+01401999999ADDAG12000GA1021+012009059GA2071+069009029MA1101801999999MW1101REMMET028CIG230     ?     QFF1016PT9?
0064474300999991985051415004+41817+140750FM-12+003699999V0202801N00051999999CN0080001N9+00891+00821100821ADDAG11000AY121031GF106991061061999999001001MD1810051+9999MW1101
0064152000999991985042321004+46167+021317FM-12+011899999V0209991C00001220001CN0100001N9+01021+00781100441ADDAG12000AY101031GF102991001001999999001011MD1310021+9999MW1021
0060061600999991985052304254+55767+012317FM-15+0019EKVL V0209991C00001030001CN0112001N1+00901+00801999999ADDAG11999GA1051+030009039MA1099701999999EQDQ01+000000PRSWM2
0086108660999991985062921004+48133+011717FM-12+0529EDDM V0200901N00101220001CN0300001N9+01491+01111101941ADDAG12000GA1031+075009009GF103991001001999999001011MD1310081+9999REMSYN011333   83075
0097287990999991985022815004+54167+074800FM-12+011599999V0203601N00201220001CN0200001N9-02121-02371103991ADDAG11000AY101031GF100991001001999999001001KA1120M-01621MD1210121+9999MW1021REMSYN011333   11162
0065071900999991985100718304+48550+007633FM-15+0154LFST V0201401N00311999991CY0099001N1+01801+01401999999ADDAG12999MA1101901999999REMMET012CAVOK NOSIG?EQDQ01+000000PRSWM2
0087722137138781985021517004+31150-081383SAO  +0006SSI  V0203001N004112200019N0112001N1+01061-00551102071ADDAG10999GD12991+0300099GD22991+0750093GF102991999999999999999999MA1102071999999MW1001
0149711090999991985052405004+50683-127367SAO  +0022YZT  V0209991C000012200019N0320001N1+01401+01101101611ADDAG10999GD12991+0120099GD23991+0720093GF107991999999999999999999MA1101591101341MW1001REMAWY034SC5CI ?7/14/11/0000/999/SC3AC1CC1?EQDQ01+999990APOSP 
0209411120999991985092410004+18233+042650SY-MT+2093OEAB V0200201N00461220001CN0100001N1+02161-00301999999ADDAG11001GA1021+010509089GF199999999999999999001001KA1999M+02721MA1102201999999MD1999999-0121MW1001REMSYN017333   10272 59012EQDQ01+000002SCOTCVQ02+000002SCOTLCQ03+000002SCOLCGQ04+000992SCOLCBQ05+000000PRSWM2
0065064510999991985071121204+50900+004467FM-15+0058EBBR V0202001N00311999991CY0099001N1+01501+01101999999ADDAG12000MA1101801999999REMMET012CAVOK NOSIG?EQDQ01+000000PRSWM2
0057762252999991985101416004+28700-105967SAO  +1354CUU  V0209991C000012200019N0240001N1+01901+00401999999ADDAG10999GF100991999999999999999999MA1102241999999MW1001
0102745980137021985012723004+37083-076350SAO  +0003LFI  V0202501N002110600019N0160001N1+00441-01051101451ADDAG10999GD12991+0150099GD22991+0300099GD33991+0600099GF107991999999999999999999MA1101421999999MW1001
0140064070999991985061506004+51200+002867FM-12+0004EBOS V0203101N00361220001CN0250001N9+01141+00731101841ADDAA106000091AG14000GA1021+006009089GF103991021021008001031021IA1099IA2999+00609KA1120N+00941MD1210101+9999REMSYN023333   20094 31006 82820
0076489000999991985061218304+10817+106667FM-15+0019VVTS V0201801N00211005101CN0112001N1+02601+02501999999ADDAG12999GA1061+005109089GA2071+036009049MA1100811999999EQDQ01+000000PRSWM2
0046161050999991985071512204+45500+012333FM-15+0006LIPZ V0201901N00311220001CN0080001N1+02901+01901999999ADDAG12000MA1101801999999MW1101REMMET006NOSIG?
0121719595999991985101620414+69433-133017SAOSP+0005YUB  V0209991C000010015019N0024001N1+99999+99999999999ADDAG10999GD16991+0001599GD23991+0015099GD34991+0300099GF108991999999999999999999MW1451REMAWY025F2ST6AC1 VSBY NE 1, W 15?
0102999999999991985112618004+32800-012500FM-13+9999CTFH V0203101N00701002101CN0200001N9+02001+02001101101ADDAG12000GF107991051071002501041001MD1110101+9999SA1+1709UG1060353209REMSYN02322211 00170 332// 40607
0064228200999991985042621004+61817+034267FM-12+004099999V0202201N00401220001CN0500001N9+00001-00901100191ADDAG12000AY101031GF100991001001999999001001MD1210051+9999MW1021
027472318113877198506041500C+36483-082400SAO  +0459TRI  V0202305N002652200059N0112005N1+02445+01895101695ADDAA101000095AG10000GA1999+076205005GD13065+0750093GF106025999001999999001991MA1101861096385MD1810031+9999MW1001REMAWY009803 1006?EQDN01 00000JPWTH 0QNNE81 0 00307G21U0 99999H11 0 32250K21 0 00066L21 0 00700M11 0 28460N21 0 00000Q21 0 10169S21 0 00076V11 0 00702X21 0 23005
0092476880999991985091502004+34983+139833FM-15+0005RJTE V0200601N00721013501CN0112001N1+02101+01701999999ADDAG11999GA1021+003009089GA2061+013509059GA3081+030009049MA1102201999999EQDQ01+000000PRSWM2
0049070380340611985091520004+49017+001217FM-15+0146LFOE V0203001N00101999991CY0099001N1+99999+99999999999ADDAG12999REMMET011CAVOK 0103?EQDQ01+000000PRSWM2
0281722065938371985060816003+30233-081667SAO  +0009NIP  V0201805N003150762059N0024005N1+03171+02225101361ADDAG10999GD16035+0001599GD23055+0750099GF105995999999999999999999MA1101351999999MW1045MW2055REMAWY004HK8?EQDN01 08180JPWTH 0N02 10136ISLVP 3N03 00089BTMPD 3QNNE41 0 00804E41 0 00406G41 0 00250K41 0 00072L41 0 00150C41 0 29930N41 0 08180Q41 3 10136S41 3 00089V41 0 00699X41 0 18006
0080167160999991985081212004+37900+023733FM-12+0027LGAT V0200301N00821220001CN0200001N9+03121+01051101441ADDAA106000091AG14000GF100991001001999999001001MD1710051+9999EQDQ01  00003PRCP99
0058032431999991985070700204+55033-001683FM-15+0081EGNT V0202701N00511999991CY0099001N1+01001+00801999999ADDAG12000MA1102711999999REMMET005CAVOKEQDQ01+000000PRSWM2
0064537720999991985020715004+37783+112550FM-12+0779ZBYN V0209991C00001090001CN0100001N9+00011-00971101581ADDAG12000AY101031GF107991001001999999001021MD1710041+9999MW1021
0093725346948661985083016004+41867-087617SAO  +0181CGX  V0203601N00411005101EN0064001N1+02111+02061999999ADDAG10999GD13991+0051099GD24991+0120099GF108991999999999999999999MA1101691999999MW1051MW2451
0031160980999991985092911004+45683+012100FM-15+0046LIPS V0209991C00001220001CN0050001N1+02801+01301999999ADDAG11999MA1102201999999MW1101
0050306270999991985071509004+53100+105533FM-12+076199999V0201501N00601220001CN0500001N9+99999+99999100621ADDAG12000GF102991001001999999001011MD1710111+9999
0072724096147061985051913004+40017-074600SAO  +0041WRI  V0203101N007212200019N0160001N1+01281+00001100921ADDAG10999GD12991+0600093GF102991999999999999999999MA1100951999999MW1001
0066992220999991985041701004+44300-082400FM-18+00034500 V0203401N010019999999N9999999N9+00191+99999102271ADDAG12999OA139901101UA1I070209999REMSYN02322200 10704 333   92111
0149064490999991985052918004+50467+004450FM-12+0187EBCI V0200201N00461220001CN0200001N9+01641+00651999999ADDAA106000091AG14000AY101061GA1031+060009009GF103991001001999999001021KA1120M+01761MD1610021+9999MW1021REMSYN017333   10176 83070EQDQ01+101343APOSLP
0064383830999991985021000004+41833+058717FM-12+006299999V0202901N00701220001CN0200001N9-00281-00731101621ADDAG12000AY101061GF102991001001999999001021MD1210291+9999MW1021
0189724585939971985031905003+38867-098817SAO  +0568RSL  V0201905N006252200059N0240005N1+00895+00335101425ADDAG10999GF100005999999999999999999MA1101421094755MW1001EQDN01 00000JPWTH 0QNNE11 0 00099G11U0 99999K11 0 00038L11 0 01500M11 0 27980N11 0 00000Q11 0 10142S11 0 00048V11 0 00000X11 0 19012
0103035773999991985010109004+52367+000483FM-15+0010EGUN V0203201N00821220001CN0112001N1+00301-00101999999ADDAG12000GA1021+015009059GA2011+060009009MA1101831999999OC101081REMMET029PK WND     ?     3227/10 BLU?
0113415710999991985041603004+33617+073100FM-12+0508OPRN V0209991C00001220001CN0040001N9+02001+01441101031ADDAA106000091AG10000AY101031GF100991001001999999001001IA2999+00509MD1999999+0411MW1051REMSYN017333   3/005 58041
033291285021504198512060800C+19717-155067SAO  +0008ITO  V0202405N003150076259N0240005N1+02065+01785101865ADDAA101000095AG10999GD12995+0042099GD23995+0075099GD33995+0105099GD43995+0900099GF107065999999999999999999GJ103559MA1101861101735MW1001REMAWY00698355?EQDQ01+999990APOSP N01 00000JPWTH 0QNNE81 0 00299E81 0 00499E81 0 00499E81 0 00499G21 0 00025K21 0 00064L21 0 01500M11 0 30040N21 0 00000Q21 0 10186S21 0 00069V11 0 00907X21 0 24006
0097999999999991985061815004+43900-008900FM-13+9999TUNW V0200501N007719999999N0200001N9+01851+01461101351ADDAG12000GF106991061041999999091081MD1410001+9999SA1+1709UA1M990159999REMSYN01722283 00170 2//03
0100216470999991985051918004+73200+143533FM-12+001099999V0201201N01201002701CN0038001N9-01451-01651100261ADDAG12000AY131061GA1081+002709079GF108991081061002501999999MD1710121+9999MW1381REMSYN011333   88709
031272254013958198503282000C+30283-097700SAO  +0179AUS  V0201705N005250304859N0144005N1+02505+02065100725ADDAA101000095AG10999GD12995+0087099GD23995+0300099GD34995+0750099GF108075999999999999999999MA1100811098565MW1001OC101031REMAWY012OCNL BINOVC?EQDQ01+999990APOSP N01 00000JPWTH 0QNNE81 0 00299E81 0 00499E81 0 00699G21 0 00100K21 0 00069L21 0 00900M11 0 29105N21 0 00000Q21 0 10072S21 0 00077V11 0 01009X21 0 17010
0098234110999991985071103004+65950+055150FM-12+007299999V0200201N00401220001CN0400001N9+01111+00671100991ADDAA106000091AA224000091AG14000GF102991001001999999001021MD1210021+9999REMSYN017555   20093 70000
0133039760999991985092200004+54233-010000FM-12+001099999V0202101N00931003901CN0120001N9+01461+01321100211ADDAA106001091AG10001AY161061GA1051+003909079GA2081+005709079GF108991081061004501999999MD1510031+9999MW1211REMSYN017333   85713 88719
0064093930999991985032314004+52217+014117FM-12+011599999V0201501N00301004201CN0045001N9+00901+00621100291ADDAG12999AY161021GF108991051061004501071999MD1210031+9999MW1211
0134727455949311985031412004+47383-092850SAO  +0412HIB  V0203201N004112200019N0240001N1-00491-00771101841ADDAA106000091AG10000AJ100109199999999GF100991999999999999999999KA1999N-00501MA1101631999999MD1210271+9999MW1001REMAWY013227 90404 23?
0181803610999991985062212004+01133-070050FM-12+0207MCMU V0209991C00001009001CN0120001N9+02171+02131999999ADDAA199012091AG12000AY121061GA1061+009009089GA2031+021009049GF108991061081008001071999IA1119KA1240M+02541KA2240N+01971MW1031REMSYN047333   10254 20197 32/// 5600/ 60120 86830 83457
0111703400255061985121502004+59750-154917SAO  +0049ILI  V0201101N00361013501EN0320001N1+00611-00211099761ADDAG10999GD14991+0135099GF108991999999999999999999MA1099731999999MW1001REMAWY030HIR CLDS VSBL  RWU DSNT E-S-W?
0117431280999991985020821004+17450+078467FM-12+0545VOHY V0209991C00001220001CN0100001N9+02221+01281100411ADDAA106000091AG14000AY101031GA1041+075009009GF104991001001999999001011MD1999999-0171MW1021REMSYN017333   59017 84075
0095987480999991985070803004+08483+124633FM-12+0005RPWL V0203601N00401220001CN0200001N9+03151+02641100981ADDAA106000091AG14000AY141031GF103991021021004501001021MD1810131+9999MW1051REMSYN011333   56999
0067703400255061985031114004+59750-154917SAO  +0049ILI  V0200801N010819999999N9999999N9-00321-00551999999ADDAG10999MA1098921999999REMAWY014PK WND 29 000?EQDQ01+000002VOVAR 
0220727975242551985102322003+48350-122650SAO  +0014NUW  V0201905N003150274359N0112005N1+01335+00835101275ADDAG10999GD12015+0096099GD23075+0270099GF107995999999999999999999MA1101251999999MW1001REMAWY011TCU ALQDS/?QNNE41 0 00201E41 0 00409G41 0 00090K41 0 00047L41 0 00700C41 0 29900Q41 0 10127S41 0 00056V41 0 00999X41 0 19006
0032072950999991985110810004+47633+006867FM-15+0423LFSQ V0203201N00101003001CN0050001N1+00601+00601999999ADDAG12999GA1081+003009089MW1631
0122107630999991985041423004+49500+011083FM-12+0312EDDN V0202201N00411006001CN0250001N9+00601+00411101061ADDAG12999AY101021GA1031+004509089GA2071+006009059GF107991071081004501999999MD1210151+9999MW1021REMSYN017333   83815 87620
0046164050999991985071712204+38183+013100FM-15+0021LICJ V0200301N00411220001CN0040001N1+02801+02601999999ADDAG12000MA1101901999999MW1101REMMET006NOSIG?
0106476880999991985081114004+34983+139833FM-15+0005RJTE V0202101N00771003001CN0112001N1+02501+02401999999ADDAG12999GA1031+001809079GA2081+003009089MA1101291999999MW1801REMMET034CUCON OVER       ?     HEAD MOV N?
0076478500999991985021809414+31350+130833FM-16+0068RJFY V0200301N00981002101CN0049001N1+99999+99999999999ADDAG12004GA1021+000609079GA2031+002109079GA3081+007509049MW1611REMMET003BR?
0079372600999991985031315004+43017+041033FM-12+011899999V0202701N00201220001CN0100001N9+00471-00261999999ADDAG11000AY101031GF100991001001999999001001MA1999999102841MD1710141+9999MW1021
0050094800999991985071010004+51300+013100FM-12+015299999V0203101N00301007501CN0045001N9+01711+01201101651ADDAG12999GF106991051021008001031001MD1110071+9999
0053994180999991985110122004+48317-122850FM-12+0016SISW V0201501N006219999999N9999999N9+01161+99999100841ADDAG12999OA139900721REMSYN023333   92114 555   92225
024172439093822198510141400C+39850-089683SAO  +0179SPI  V0200405N002650762059N0064005N1+01505+01395101455ADDAA101000095AG10999GD12995+0045099GD23995+0750099GF107065999999999999999999MA1101461099245MW1455EQDN01 07000JPWTH 0QNNE11 0 00299E11 0 00499G11 0 00250K11 0 00057L11 0 00400M11 0 29305N11 0 07000Q11 0 10145S11 0 00059V11 0 00907X11 0 04005
0094546240999991985111406004+38367+117350FM-12+000499999V0200701N00501220001CN0200001N9+00951+99999102171ADDAA106000091AG14000GF101991001001999999001011KA1240N-00201MD1710091+9999REMSYN011333   21020
0292704540257041985061813003+51883-176650SAO  +0005ADK  V0203605N004150045759N0040005N1+00565+00505099515ADDGA1021+999999999GA2061+999999999GA3081+999999999GD12025+9999999GD23065+9999999GD34085+9999999GF108995999999999999999999MA1099531999999MW1455MW2515EQDN01 03370JPWTH 0QNNE41 0 00202E41 0 00407E41 0 00610G41 0 00015K41 0 00041L41 0 00250N41 0 03370Q41 0 09951S41 0 00042V41 0 01099X41 0 36008
0063476870999991985111700004+35633+139850FM-15+0010RJTI V0209991V00101090001CN0042001N1+00901+00301999999ADDAG12000GA1011+045009039GA2071+999999009MA1101051999999MW1051
0167713970999991985012205004+44983-064917SAO  +0025YZX  V0202601N009810060019N0020001V1-01101-01301098541ADDAG10999GD16991+0001599GD24991+0060099GF108991999999999999999999MA1098511098191MW1381MW2711OC101341REMAWY038S5SC5 VSBY       ?    3/4-13/4 /S05/ ?EQDQ01+999990APOSP 
0050345450999991985092815004+48350+041867FM-12+008899999V0202301N00201036001CN0200001N9+01141+00211101481ADDAG12000GF107991071001999999071999MD1710231+9999
0255702670264151985091415003+64000-145733SAO  +0386BIG  V0201605N00885015245EN0480005N1+01335+00115099755ADDAG10000GD13995+0150099GD24995+0270099GF108085999999999999999999MA1099731095195MW1001OC101391REMAWY008ACSL SE?EQDN01 00000JPWTH 0QNNE11 0 00499E11 0 00699G11 0 00050K11 0 00034L11 0 03000M11 0 28110N11 0 00000Q11 0 09975S11 0 00056V11 0 01010X11 0 16017
0064994140999991985112822004+41483-071033FM-12+0000BUZM V0200501N013419999999N9999999N9+00451+99999101771ADDAA199003091AG10001OA139901491REMSYN023333   92129 555   92200
