0072724475939091986022113004+38817-094883SAO  +0331IXD  V0203601N00411004801EN0160001N1-00931+99999999999ADDAG10999GD14991+0048099GF108991999999999999999999MA1102371999999MW1001
0085710561999991986082214004+55750-120183SAO  +0655YDQ  V0209991C000012200019N0240001N1+00401+00201101641ADDAG10999GD12991+0840093GF102991999999999999999999MA1101491999999MW1001REMAWY004CI ?
0182724560139961986050603104+39067-095617SAOSP+0270TOP  V0202001N004110360019N0240001N1+99999+99999999999ADDAG10018GD12991+0078099GD22991+0120099GD33991+0360099GD44991+0750099GF108991999999999999999999MA1100541097371MW1951REMAWY037TB10 SW MOVG     ?    NE LTGICCC S-W?EQDQ01+999990APOSP 
0119722908999991986071003004+32867-117150SAO  +0147NKX  V0202901N002612200019N0160001N1+01781+01331101641ADDAG10000GD12991+0030099GD22991+0540099GF102991999051999999001011MA1101761999999MD1510021+9999MW1001REMAWY009502 1501?
0084722665139101986032409004+32433-099850SAO  +0545DYS  V0201801N005112200019N0240001N1+01331+00441102361ADDAG10000GF100991999999999999999999MA1102541999999MD1410001+9999MW1001REMAWY004400?
0321479330422151986033014003+26267+127750SAO  +0084ROTM V0201605N003650213459N0112005N1+02005+01785101275ADDAG12999GA1011+004575085GA2071+021345035GD12015+9999999GD24075+9999999GF108995999999999999999999MA1101151100295REMMET007CIG070?EQDQ01+000000PRSWM2N01 00000JPWTH 0QNNE41 0 00201E41 0 00609G41 0 00070H41 0 11015H41 0 23070K41 0 00064L41 0 00700C41 0 29870M41D0 29615N41 0 00000Q41D0 10127S41 0 00068V41 0 01099X41 0 16007
0024033210999991986060104004+53167-002983FM-12+001099999V0203101N004119999999N9999999N9+01211+01051101711ADDAG12999MD1710011+9999
0072714110999991986091010004+43983-064667SAO  +0009WWE  V0202501N001519999999N0144001N1+00901+00801102491ADDAG10999MA1999999102381MD1210101+9999REMAWY00523MM?EQDQ01+999990APOSP 
0119722215138841986093012004+30783-086517SAO  +0056CEW  V0209991C000012200019N0048001N1+02111+02061102161ADDAA106000591AG10000GF100991999999999999999999MA1102171999999MD1210071+9999MW1451REMAWY00969 20002?EQDQ01+000002APC3  
0108037960999991986120711004+51133+001350FM-12+011799999V0201501N00821001801CN0020001N9+00501+00431101451ADDAG12999AY121021AY221021GA1081+001809079GF108991081071002501999999MD1710171+9999MW1621REMSYN011333   88706
0133075240999991986060209004+44183+000600SY-MT+0060LFBA V0202501N00311003901CN0080001N1+01661+01391102201ADDAG12000GA1051+003909089GA2071+015009059GF107991071081004501999999MD1210041+9999MW1001REMSYN017333   85813 87650EQDQ01+000000PRSWM2
0050295510999991986061021004+56200+087750FM-12+013499999V0202001N00301030001CN0100001N9+01161+00771100521ADDAG12000GF108991031031008001031999MD1710131+9999
0114655620999991986012909004+06650-004700FM-12+009299999V0209991C00001003901CN0050001N9+02581+02321101121ADDAG12000AY111031AY211031GA1071+003909059GF107991071051004501001001MD1999999+0011MW1101REMSYN017333   58001 87613
0143820980999991986071612004+00050-051050FM-12+0015SBMQ V0200901N00261045001CN0100001N9+02581+02291101351ADDAA124013091AG10000AY121061AY261061GF107991031061012501031001KA1240N+02321MA1999999101171MD1999999+0051MW1031REMSYN023333   20232 58005 60134
0073065900999991986030509504+49617+006217FM-15+0379ELLX V0202201N00721000301CN0001001N1+00401+00401999999ADDAG12999ED124U05799GA1081+000309079MA1100811999999MW1511REMMET006NOSIG?
0050304130999991986062315004+55833+104233FM-12+999999999V0209991C00001012001CN9999999N9+99999+99999100241ADDAG12000GF107991061091012501001021MD1210101+9999
0057714340999991986090920004+55233-085117SAO  +0013WWN  V0202901N005119999999N9999999N9+00401-00701105021ADDAG10999MD1510211+9999REMAWY00500MM?EQDQ01+000002VOVAR 
0044478500999991986122516004+31350+130833FM-15+0065RJFY V0202701N00311220001CN0112001N1+00801+00201999999ADDAG12999MA1102301999999EQDQ01+000000PRSWM2
0103064470999991986121821004+50800+004350FM-12+010499999V0202401N00931007501CN0200001N9+01121+00861099081ADDAG12001AY181031AY261031GF108991061051008001999999MD1710521+9999MW1021OA149902991REMSYN011333   91158
0092071160999991986041115004+48750-004017FM-12+003799999V0200801N01341004201CN0250001N9+00401-00351102551ADDAG12001AY181031AY271031GF107991071091004501999999MD1410001+9999MW1031REMSYN011333   91858
026372297023129198605210600C+33817-118150SAO  +0008LGB  V02099959000050036659N0128005N9+01565+01285101255ADDAA101000095AA206000091AG10000GA1999+003665065GD14085+9999999GF108085999999999999999999MA1999999101125EQDQ01+000002VOVAR N01 00000JPWTH 0QNNE81 0 00610G21 0 00012H11 0 15012K21 0 00055L21 0 00800M11 0 29860N21 0 00000Q21 0 10125S21 0 00060V11 0 01010X21 0 00000
0120702720999991986110123004+61250-149800SAO  +0065PAED V0200301N000510210019N0560001N1+00171-00271100281ADDAG10999GD12991+0150099GD23991+0210099GD34991+0300099GF108991999999999999999999MA1100241999999MW1611REMAWY009SLR IR12?
0058083730999991986011922164+38917+001450FM-15+0012LEIB V0202401N00511999991CY0099001N1+01301+01001999999ADDAG12999MA1102611999999REMMET005CAVOKEQDQ01+000000PRSWM2
0053467360999991986112505004+24433+118433FM-15+0012RCBS V0200401N007212200019N0112001N1+99999+99999999999ADDAG12999GA1021+000159079OC101131EQDQ01+000000PRSWM2
029972502014734198608220100C+40700-074167SAO  +0002EWR  V0200305N004650048849N0080005N1+01785+01675102075ADDAA101005195AG10999GD12995+0021099GD24995+0048099GD30995+9999999GD40995+9999999GF108085999999999999999999MA1102071101965MW1455MW2615EQDN01 02070JPWTH 1QNNE11 1 00299E11 1 00699E11 1 00099E11 1 00099G11 1 00016K11 1 00062L11 1 00500M11 1 30110N11 1 02070Q11 1 10207S11 1 00064V11 1 01010X11 1 03009
0072723191938071986041820004+36133-080233SAO  +0298INT  V0200401N006212200019N0320001N1+02111+00561999999ADDAG10999GD12991+0120099GF102991999999999999999999MA1101901999999MW1001
0126783580999991986031921004+21200-076600FM-12+003299999V0200901N00901220001CN0090001N9+02841+02141101481ADDAG11000AY101031AY201031GA1011+006009089GF101991011021008001001001IA1019MD1710161+9999MW1051REMSYN023333   30/// 56900 81820
0137719665999991986102221004+67567-139833SAO  +0253YOC  V0200201N006210120019N0240001N1-00901-01201101501ADDAG10001GD13991+0090093GD24991+0120099GF108991999999999999999999MA1101251999999MD1510031+9999MW1701OC100981REMAWY019SAWR  SC5SC4 5003 ?
024172334013893198604201900C+35050-090000SAO  +0079MEM  V0203005N00775003355MN0160005N1+01615+01335100625ADDAA101000095AG10999GD13995+0033099GD24995+0075099GF108085999999999999999999MA1100641099615MW1001EQDN01 00000JPWTH 0QNNE81 0 00499E81 0 00699G21 0 00011K21 0 00056L21 0 01000M11 0 29415N21 0 00000Q21 0 10062S21 0 00061V11 0 01010X21 0 30015
0076012410999991986010800504+63700+009600FM-15+0007ENOL V0201201N00621220001CN0112001N1-00601-00701999999ADDAG11999GA1011+001809079GA2041+004509059MA1102001999999EQDQ01+000000PRSWM2
0072623000999991986092512004+31533+025183FM-12+000699999V0203201N00511007501CN0080001N9+02881+01481101361ADDAG11000AY121061AY201061GF105991051051008001001001MD1810041+9999MW1071
0067986180999991986010403004+09750+118733FM-12+0014RPVP V0200901N00201220001CN0300001N9+03161+02541100871ADDAA106000091AG14000GF102991021021008001001011REMSYN011333   56999
0131999999999991986041112004+51100+001700FM-13+9999SHIP V0200401N01341012001CN0200001N9+00471-00131102551ADDAG12001AY171061AY221061GF105991051081008001001001MD1710111+9999MW1151SA1+0589UA1M060309999REMSYN02922200 00058 20606 333   91457
035472408013739198611200000C+39883-075250SY-SA+0002PHL  V0203605N005252200059N0240005N1+00005-00785102615ADDAA101000095AA206000091AA324022691AG10000GA1999+060965005GD11025+0600093GF102015999001999999001991KA1120M+00441KA2180N+00001MA1102611102515MD1110241+9999MW1001REMSYN023333   10044 20000 70226AWY012124 1001 40?EQDN01 00000JPWTH 0QNNE81 0 00103G21U0 99999H11 0 32200K21 0 00018L21 0 01500M11 0 30270N21 0 00000Q21 0 10261S21 0 00032V11 0 00301X21 0 36010
0121999999999991986011412004+17000+137100FM-13+9999UTUI V0200701N00901045001CN0200001N9+02501+99999101481ADDAG12000GF105991021011004501011001MD1310101+9999SA1+2559UA1M040159999UG1070201009REMSYN02922244 00255 20403 31000 40704
0043999999999991986031812004+28400+048900FM-13+9999PLAT V0201201N006219999999N0100001N9+99999+99999999999ADDAG12000UA1M990059999REMSYN01122200 2//01
0158718310999991986062702004+49417-082467SAO  +0227YYU  V0201301N006710120019N0128001N1+01701+01501100661ADDAG10999GD12991+0060099GD23991+0120099GD34991+0300099GF108991999999999999999999MA1100611097941MW1001REMAWY028SF1SC5AS4        ?    HAZE ?EQDQ01+999990APOSP 
0078486010999991986073009304+05300+100267FM-15+0003WMKP V0202301N00411084001CN0112001N1+03001+02301999999ADDAG12999GA1011+005109099GA2061+084009009MA1100711999999MW1051REMMET006NOSIG?
0053994340999991986100602004+41633-082833FM-12+0181SBIO V0203301N014919999999N9999999N9+01281+99999101171ADDAG12999OA139901651REMSYN023333   92132 555   90200
0072476380999991986071721004+35667+138550FM-12+027499999V0201701N002119999999N0050001N9+02291+02211100121ADDAG12005AY181031AY221031GF108991081021999999999999MD1610051+9999MW1801
0065071300999991986110823004+48067-001733FM-15+0037LFRN V0209991C00001999991CY0099001N1+00201+00101999999ADDAG12999MA1102511999999REMMET012CAVOK NOSIG?EQDQ01+000000PRSWM2
0091107630999991986050413504+49500+011083FM-15+0312EDDN V0202201N00211220001CN0112001N1+02201+01001999999ADDAG12999GA1011+013509089GA2031+075009009MA1101021999999REMMET006NOSIG?EQDQ01+000000PRSWM2
0063025900999991986042116504+57667+018350FM-15+0047ESSV V0202501N00511021001CN0112001N1+00101+00101999999ADDAG12999GA1021+002709079GA2071+021009049MA1099901999999MW1211
0072724835232061986072117004+38550-121300SAO  +0029MHR  V0202101N001012200019N0480001N1+02891+01391100881ADDAG10999GD12991+0750099GF102991999999999999999999MA1100881999999MW1001
0087745940137051986122610004+38817-076867SAO  +0086KADW V0203401N001012200019N0112001N1+00111-00211101961ADDAG10999GD12991+0120099GD22991+0360099GF102991999999999999999999MA1101961999999MW1001
0106724810232031986010915004+37383-120567SAO  +0057MER  V0201301N00101000301WN0001001N1+00501+00331102731ADDAG10000GD15991+0003099GF109991999999999999999999MA1102741999999MD1510001+9999MW1451REMAWY011RVR10/ 500?
0063789880999991986121422004+12200-068967FM-15+0017MACC V0200801N00671004801CN0112001N1+02701+02201999999ADDAG12999GA1051+004809089GA2031+024009039MA1101291999999MW1801
0120610800999991986121815004+13467+007083FM-12+0373DRRM V0200801N00821090001CN0045001N9+02491+00301101681ADDAG12000AY121031AY221031GA1051+090009009GF105991001001999999001021MD1999999+0451MW1071REMSYN023333   58045 85080 93222
0200717250999991986090512004+48050-077783SY-SA+0337YVO  V0202201N003112200019N0240001N1+01241+01031100681ADDAA106000091AA224016291AG10000GD12991+0120099GD22991+0300099GF101991999999999999999999KA1240M+01831KA2120N+01051MA1100611096661MD1810041+9999MW1001REMSYN023333   10183 20105 70162AWY013SC1AC1 8004 ?
0050043200999991986111921004+76767-018767FM-12+0012BGDH V0209991C00001007501CN0200001N9-01271-01431100161ADDAG12000GF107991051051008001021999MD1210081+9999
0072306920999991986121906004+54000+123967FM-12+040099999V0200401N00101220001CN0020001N9-02261-02381102941ADDAG12000AY101061AY201061GF100991001001999999001001MD1710211+9999MW1051
0082109000999991986030623504+47900+007617FM-15+0217EDSG V0202001N00211009601CN0112001N1+00301+00201999999ADDAG12008GA1041+006609059GA2081+009609059MA1101591999999MW1611REMMET010PIC49 BLU?
0061166410999991986040100004+39617+019917FM-12+0004LGKR V0209991C00001220001CN0150001N9+01141+00771101511ADDAA106000091AG14000GF100991001001999999001001MD1210151+9999
0050537230999991986012603004+37783+107400FM-12+134999999V0202701N00501220001CN0200001N9-00571-02141104081ADDAG12000GF100991001001999999001001MD1210141+9999
0061801755999991986091720004+00000+000000FM-15+9999MCRG V0201201N00511060001CN0112001N1+02301+00901999999ADDAG12999GA1031+009009089GA2061+060009009EQDQ01+000000PRSWM2
0076716090999991986011504004+45317-065883SAO  +0107YSJ  V0203101N007212200019N0240001N1-02101-02901100891ADDAG10999GF100991999999999999999999MA1100781099491MW1001EQDQ01+999990APOSP 
0092714130999991986091220004+46233-061300SAO  +0039WVE  V0209999999999010501EN0048001N1+99999+99999999999ADDAG10999GD13991+0105099GF107991999999999999999999MW1001REMAWY026M/ 23/ 20//-/  79MM(0008)?
0050095770999991986110221004+50800+012867FM-12+042099999V0203201N00201220001CN0100001N9+00171-00051102571ADDAG12000GF100991001001999999001001MD1110351+9999
0047977240999991986021318004-03700+128083FM-12+0012WAPP V0203201N00151045001CN0100001N9+02431+02281100961ADDAA106000091AG10999GF105991031021008001031021
0094387130999991986062006004+39900+068983FM-12+104399999V0203201N00201220001CN0500001N9+02571+00711999999ADDAA106000091AG14000GF101991011021012501001001KA1120N+01871MD1210021+9999REMSYN011333   20187
0083067710999991986032012004+45833+008917FM-12+035399999V0202101N00261220001CN0150001N9+00981+00001999999ADDAA106000091AG14000GA1021+030009049GF104991999999999999999999REMSYN011333   82460
0189724855231531986080220003+38067-117083SAO  +1654TPH  V0202805N002652200059N0800005N1+03335+00225101445ADDAG10999GF100005999999999999999999MA1102271083755MW1001EQDN01 00000JPWTH 0QNNE11 0 00099G11U0 99999K11 0 00036L11 0 05000M11 0 24730N11 0 00000Q11 0 10144S11 0 00092V11 0 00000X11 0 28005
0097119270999991986090200004+48333+019767FM-12+021999999V0202701N00501220001CN0150001N9+01141+00531102141ADDAA106000091AG14000GA1031+030009039GF103991031001999999041001MD1410001+9999REMSYN011333   83360
0050526520999991986071515004+38933+100433FM-12+148399999V0209991C00001090001CN0300001N9+01891+00841100141ADDAG12000GF106991001001999999001021MD1210011+9999
0115529840999991986011706004+35583+103217FM-12+192099999V0200901N00201090001CN0120001N9+00251-01921999999ADDAA106000091AG14000GF107991001001999999001021KA1240N-01151MA1999999080531MD1710381+0301REMSYN017333   00302 21115
0202999999931011986072106005+33667-117733SAO  +0116NZJ  V0202805N001052200059N011200599+02005+01725101115ADDGD10005+9999999GF100995999999999999999999MA1999999099785EQDN01 00000JPWTH 0QNNE41 0 00000G41U0 99999K41 0 00063L41 0 00700C41 0 29870M41D0 29465N41 0 00000Q41 0 10111S41 0 00068V41 0 00099X41 0 28002
0078966950999991986061709004-03400+116217FM-12+0018WRBK V0209991C00001007501CN0120001N9+02651+02451100671ADDAG10999GA1031+006009089GF107991051021008001011001REMSYN017333   56000 83820
0116126950999991986031118004+49800+022767FM-12+028099999V0201201N00401007501CN0040001N9+00121-00051102861ADDAA106000091AG10000AY121061AY221061GF108991081051008001999999KA1120M+00231MD1110061+9999MW1101REMSYN011333   10023
0108038390999991986121902004+50733-003417FM-12+0030EGTE V0202801N00871220001CN0180001N9+00321-00041100551ADDAG12999AY181021AY211021GA1021+004509099GF102991021091004501001001MD1210301+9999MW1271REMSYN011333   82915
0124718980999991986051022004+54300-130450SAO  +0034YPR  V0202801N007712200019N0240001N1+00801+00401101271ADDAG10999GD12991+0105099GD22991+0690093GF102991999999999999999999MA1101251100851MW1001REMAWY009TCU1CI1 ?EQDQ01+999990APOSP 
035472422093820198604030000C+38033-084600SY-SA+0294LEX  V0200405N003152200059N0160005N1+01675+00725101645ADDAA101000095AA206000091AA324000591AG14000GA1999+076205025GD11035+0750093GF103015999001999999001991KA1120M+01891KA2180N+01001MA1101661098095MD1610031+9999MW1001REMSYN023333   10189 20100 70005AWY012603 1008 66?EQDN01 00000JPWTH 0QNNE11 0 00104G11U0 99999H11 0 37250K11 0 00045L11 0 01000M11 0 28965N11 0 00000Q11 0 10164S11 0 00062V11 0 00401X11 0 04006
0084260635999991986110315004+59800+030300FM-15+0018ULLL V0203401N00721003601CN0112001N1+00201+00001999999ADDAG11000GA1081+003609059MA1100911999999REMMET015NOSIG 88290252?EQDQ01+000000PRSWM2
0127108570999991986122912504+48067+010900FM-15+0623EDSA V0202501N01081015001CN0112001N1+00501+00201999999ADDAG12999GA1041+004809059GA2051+015009059GA3071+030009039MA1101691999999OC101601REMMET018BLU BLU TEMPO WHT?EQDQ01+000000PRSWM2
0401984260412311986091720003+14800+120267SAO  +0014RPMB V0202205N006250121959N0112005N1+02785+02285100255ADDAG12999GA1031+004575085GA2051+012195065GA3081+030485035GD12035+9999999GD23055+9999999GD34085+9999999GF108995999999999999999999MA1100241100035MW1805REMMET012CIG040 WR//?EQDQ01+999990APOSP Q02+999990APOSLPN01 02300JPWTH 0QNNE41 0 00204E41 0 00406E41 0 00610G41 0 00040H41 0 11015H41 0 15040H41 0 23100K41 0 00073L41 0 00700C41 0 29600M41D0 29540N41 0 02300Q41D0 10025S41 0 00082V41 0 01099X41 0 22012
0094012380999991986090506004+62117+009283FM-12+097499999V0202001N00511030001CN0400001N9+00531+00071100291ADDAA199002091AG10000GF105991041091008001061001KA1120N+00451MD1710111+9999REMSYN011333   20045
029972502014734198602200700C+40700-074167SAO  +0002EWR  V0200305N00525002444MN0040005N1+00175+00065101395ADDAA101001095AG10999GD13995+0024099GD24995+0039099GD30995+9999999GD40995+9999999GF108085999999999999999999MA1101391101295MW1455MW2615EQDN01 02070JPWTH 1QNNE11 1 00499E11 1 00699E11 1 00099E11 1 00099G11 1 00008K11 1 00033L11 1 00250M11 1 29910N11 1 02070Q11 1 10139S11 1 00035V11 1 01010X11 1 03010
0167639800999991986052712004-04667+055517SY-MT+0003FSSS V0201301N00361220001CN0350001N1+02941+02311101041ADDAG10001GA1021+005709089GF102991999999004501999999MA1101021999999MD1999999-0011MW1001OA149901291REMSYN029333   59001 82819 94317 91125MET006NOSIG?EQDQ01+000000PRSWM2
0083084330999991986072600004+37783-000800FM-12+0010LELC V0203101N00211220001CN0120001N9+02521+02101101681ADDAA106000091AG14000AY141061AY221061GF104991011041008001071021MD1310021+9999MW1011
0092610430999991986041212004+14900+005250FM-12+039199999V0201801N00411090001CN0250001N9+04021+00731100541ADDAG12000GA1071+090009029GF107991001001999999001081MD1999999-0061REMSYN017333   59006 87280
0036610360999991986070409004+14200+001450FM-12+021099999V0202401N00211045001CN0200001N9+02861+02091101311ADDAG12000GF105991051001999999081001
0086105100999991986070521004+50333+006950FM-12+062999999V0202101N00511021001CN0200001N9+01871+01311100761ADDAG12000GA1081+021009049GF108991081001022501071999MD1710201+9999REMSYN011333   88457
0096154550999991986050200004+44283+025500FM-12+010899999V0209991C00001220001CN0100001N9+99999+99999101141ADDAA106000091AG14000GF100991001001999999001001MA1999999099871MD1810031+9999REMSYN011555   69913
0117761610999991986081517004+29100-111050SAO  +0187HMO  V0209991C000012100019N0192001N1+03001+02201999999ADDAG10999GD12991+0360099GD24991+2100099GF108991999999999999999999MA1101151999999MW1001REMAWY021115/BMSO CLCDO/03790?
0072724386148351986122811004+40417-086933SAO  +0184LAF  V0202601N00511003301MN0112001N1-00211-00431102681ADDAG10999GD14991+0033099GF108991999999999999999999MA1102611999999MW1001
0108035270999991986071409004+52117-002300FM-12+004699999V0203101N00261009001CN0150001N9+02191+01881102291ADDAG12000GA1031+004509089GA2041+009009059GF107991061081004501031011MD1010031+9999REMSYN017333   83815 84630
0116287560999991986050118004+54467+064867FM-12+011799999V0203601N00601005401CN0500001N9+00321-00061101151ADDAA106000091AG14000GA1081+005409059GF108991081051008001999999KA1120M+02521MD1210321+9999REMSYN017333   10252 88618
0075162420999991986042908204+41800+012233FM-15+0003LIRF V0200901N00151220001CN0112001N1+01501+01001999999ADDAG12999GA1031+003009089MA1100711999999REMMET006NOSIG?EQDQ01+000000PRSWM2
0036235310999991986060209004+64883+065583FM-12+002499999V0209999999999220001CN0500001N9+00561+00011102211ADDAG12000GF100991001001999999001001
0083725346948661986111500004+41867-087617SAO  +0181CGX  V0202201N00881013501EN0192001N1+00061-01381999999ADDAA106000091AG10000GD14991+0135099GF108991999999999999999999MA1102401999999MW1001
0086992710999991986051114004+26000-093500FM-18+0003DB71 V0201601N004019999999N9999999N9+02481+99999101371ADDAG12999OA139900401SA1+2539UA1I070139999REMSYN03522200 00253 10703 333   92104 98213
0061442720999991986051718004+47750+096850FM-12+175399999V0209991C00001220001CN0200001N9+00541-00671101201ADDAA106000091AG14000GF100991001001999999001001MD1110091+9999
0031471070999991986083117004+37750+128950FM-15+0006RKNN V0202901N001012200019N0090001N1+01801+01701999999ADDAG12999MA1101121999999MW1101
0048067920999991986102303004+46500+009850FM-12+170699999V0202301N006719999999N9999999N9+00751+00421999999ADDAG12000MA1999999081551MD1710281+9999ME1313639
0078723087937351986102711484+37133-076617SAOSP+0004FAF  V0209991C00001000301WN0002001N1+99999+99999999999ADDAG10999GD15991+0003099GF109991999999999999999999MA1101191999999MW1451MW2531
0086064900999991986081702004+50483+005917FM-12+0482EBSP V0202101N00101030001CN0250001N9+01191+00711101521ADDAG12999GA1061+030009039GF107991061001999999031021MD1810051+9999REMSYN011333   86360
0076821110999991986082323004-03033-060050FM-15+0002SBEG V0209991C00001220001CN0112001N1+03001+02201999999ADDAG10999GA1031+120009009MA1100811100861EQDQ01+999990APOSP Q02+000000PRSWM2
0083725634999991986081318004+40867-100000SAO  +9999CZD  V0203201N004112200019N0128001N1+02781+01831999999ADDAA106000091AG10000GD12991+0600099GF102991999999999999999999MA1101051999999MW1001
0146039620999991986042907004+52683-008917SY-MT+0020EINN V0202201N00721220001CN0300001N1+00591+00251101581ADDAG12001GA1021+006009099GF102991021091008001001001MA1101491999999MD1210131+9999MW1001REMSYN011333   82920MET014TEMPO  6CB020?EQDQ01+000000PRSWM2
0067994090999991986122512004+48217-088367FM-12+0195PILM V0202901N006719999999N9999999N9-00091+99999100881ADDAG12000MD1210071+9999OA139900721REMSYN023333   92114 555   91200
0168716279999991986012812004+45517-075567SAO  +0064YND  V0202701N006210270019N0064001N1-02302-02801100161ADDAA106999999AG10003GD16991+0001599GD24991+0270099GF108991999999999999999999MA1100071999999MD1510021+9999MW1711REMAWY012S3AS7 5002 ?EQDQ01+025023ATOT  Q02  00002PRCP06
0098072650999991986122821004+47800+003550FM-12+021299999V0202301N005119999999N9999999N9+00811+00731102541ADDAA106000091AG14000GJ100009IA2999+00709MD1710031+9999OA149900981REMSYN023333   3/007 91119 94000
0095152800999991986021620004+45450+025450FM-12+250999999V0201801N02801001201CN0010001N9-01081+99999999999ADDAG12999AY131021AY231021GF108991051051001501021999MW1381OA149903401REMSYN017333   91134 92362
0069724026999991986061918004+37983-075867SMARS+0001W06  V0202701N00511220001CN0129001N9+02381+99999101861ADDAG10999AY121061GF101991999999999999999999MW1001REMSYN010CRISFIELD?
0024034610999991986100521004+52617-000467FM-12+007599999V0202301N003119999999N9999999N9+01281+01181102211ADDAG12000MD1210101+9999
0070171120999991986071303004+40133+026400FM-12+0003LTBH V0200401N00461220001CN0200001N9+02061+01821101341ADDAG12000GF100991001001999999001001MD1810021+9999REMSYN011333   91828
005472462023061198605100500E+37450-105867SAO  +2297ALS  V02099999999999999999N999999999+00115+99999999999ADDAA101000095MA1999999077025QNNM11 0 22745S11 0 00034
0100999999999991986080500004+49100-033500FM-13+9999C6BE V0200201N00931015001CN0200001N9+01301+01111101661ADDAG12000AY111061AY211061GF107991071051017501999999MD1210301+9999MW1501SA1+1409REMSYN01122253 00140
0108031620999991986063001004+55317-003200FM-12+024299999V0203501N00261220001CN0045001N9+01231+01081102311ADDAG11999AY101011AY201011GA1011+036009039GF101991011001999999031011MD1810051+9999MW1041REMSYN011333   81362
0109231460999991986021715004+68467+073600FM-12+000599999V0200601N00901030001CN0010001N9-01862-03161100061ADDAG12000AY131031AY231031GF108991081001999999071999MD1710171+9999MW1391OA149901301REMSYN017555   91113 92362
0063111500999991986061820504+47800+013000FM-15+0450LOWS V0201701N00261027001CN0112001N1+01801+01401999999ADDAG12008GA1011+015009089GA2061+027009039MA1101901999999MW1291
0258766400999991986112612004+20950-097383FM-12+0028TUX  V0202901N00101012001CN0050001N9+01761+01701101521ADDAA106005092AA224000792AG10001AY151061AY241061GA1041+008101051GA2041+012001041GF108991041061008001021001IA1099KA1240M+02001KA2120N+01661MA1999999101221MD1610021-0011MW1501OA139900101REMSYN065333   0/990 10200 20166 31/// 59001 70007 84627 84540 92034 92101
0171722358939191986111118004+31183-090467SAO  +0126MCB  V0203601N006210300019N0112001N1+01671+01171102141ADDAA106000091AG10000GD12991+0024099GD22991+0060099GD33991+0300099GD44991+0600099GF108991999999999999999999KA1999N+01441MA1102171999999MD1410001+9999MW1001REMAWY007400 58?
0123896640999991986090903004-77850+166667FM-12+002499999V0201101N00821003001CN0004001N9-02041+99999096981ADDAG10999AY171031AY231031GA1081+003009059GF108991081051004501999999MA1999999096561MD1310301+9999MW1711REMSYN011333   88610
0057725866999991986100404004+42483-114483SAO  +1265TWF  V0202001N006712200019N0480001N1+00611-00101999999ADDAG10999GF100991999999999999999999MA1102241999999MW1001
0074161340999991986102117154+44200+010700FM-16+2173LIVC V0202801N00511220001CN0112001N1+99999+99999999999ADDAG12999GA1031+051009029REMMET020SCT MON LIB VAL NIL?EQDQ01+000000PRSWM2
0072295590999991986012718004+55617+089583FM-12+999999999V0209991C00001220001CN0050001N9-02351-02531103481ADDAG12001AY171061AY211061GF100991001001999999001001MD1710031+9999MW1101
0144106580999991986062106004+50200+010083FM-12+0226EDFK V0200601N00101220001CN0060001N9+01921+01651101431ADDAA106000091AG14000GF100991001001999999001001GJ105769IA1019IA2999+01509KA1120N+01771MD1310051+9999MW1101REMSYN029333   20177 30015 94096 99838
0138714960999991986040700004+65767-111233SY-SA+0500WIJ  V0200901N003619999999N9999999N9-01601-01871100701ADDAA106000091AG14000KA1120M-01601KA2180N-01801MA1999999094301MD1210241+9999MW1001REMSYN017333   11160 21180AWY00507MM?EQDQ01+000002VOVAR 
0159700300275081986081900004+70617-159850FM-12+0027AIN  V0202901N00511002401CN0090001N9+00491+00361100941ADDAA106007092AA224000892AG10000GA1081+002409089GF108991081071002501999999KA1120M+00601KA2180N+00401MA1999999100601MW1611REMSYN029333   10060 20040 70008 88808
0117994020999991986061521004+36900-075700FM-12+9999CHLV V0201701N007219999999N9999999N9+02381+99999101931ADDAA106000091AG14000MD1710041+9999OA139900821SA1+2309UA1I080059999REMSYN041222// 00230 10801 333   92116 555   92100
0050864900999991986010215004-33250-058067FM-12+0017SUME V0200501N00511220001CN0100001N9+02601+01391101251ADDAG10999GF101991001001999999001031MD1710221+9999
0148130260999991986071412004+46533+015650SY-MT+0265LYMB V0201201N00201030001CN0100001N1+01921+00881102041ADDAA106000091AG14000GA1011+015009089GA2081+030009039GF108991011021017501071999MA1102101999999MD1310011+9999MW1001REMMET006NOSIG?EQDQ01+000000PRSWM2
0055701719999991986090109004+66883-157150SAO  +0061SHG  V0201301N001519999999N9999999N9+01061+00111999999ADDAG10000REMAWY017PKWND 009/RM 997?EQDQ01+000002VOVAR 
0123718780999991986022416004+52183-113900SAO  +0904YQF  V0201701N00151030001EN0240001N1+00201-00201100611ADDAG10999GD13991+0300099GD23991+0750099GF107991999999999999999999MA1100171089871MW1001REMAWY008AC7CI1 ?EQDQ01+999990APOSP 
0030999999999991986120105004+00000+999999FM-18+9999DRIB V02099999999999999999N9999999N9-03701+99999102001ADDAG10999REMSYN011333   25524
0105718640999991986122703004+50333-105550SAO  +0577YMJ  V0202101N006212200019N0240001N1+00201-00401101161ADDAG10000GF100991999999999999999999MA1100911094191MD1810081+9999MW1001REMAWY0068008 ?EQDQ01+999990APOSP 
0078154230999991986111822004+44417+027033FM-12+005199999V0209991C00001220001CN0020001N9-00181+99999999999ADDAG11999AY101011AY201011GF100991001001999999001001MW1101REMSYN011333   92000
0122263130999991986100818004+57750+022600FM-12+000599999V0203201N00501220001CN0500001N9+00551-00481101641ADDAA112999929AG10001AY181061AY211061GF101991011021008001001001KA1120M+00991MD1210091+9999MW1011REMSYN017333   10099 69902
0046714610999991986082505004+48300-088867SAO  +0218WAB  V02099999999999999999N0128001N1+99999+99999999999ADDAG10999REMAWY027/ 16/ 12/1411/-/      99MM?
0117308530999991986081612004+51617+114333FM-12+061999999V0203201N00201220001CN0500001N9+01661+00701100711ADDAA106000091AG14000GF101991011041012501001001KA1120M+02331MD1310091+9999OA149900901REMSYN023333   10233 555   91109
0086036090999991986120222004+51567-003983FM-12+003599999V0202001N00721006001CN0160001N9+01091+00951102271ADDAG12999GA1061+006009059GF106991061051008001999999MD1810051+9999REMSYN011333   86620
0113702550265141986083016004+61967-151200SAO  +0048SKW  V0200901N00151004501EN0160001N1+00891+00891999999ADDAG10999GD13991+0045099GD24991+0120099GF108991999999999999999999MA1101461999999MW1611REMAWY017F GF ALQDS NOSPL?
0065151090999991986011815004+46933+026350FM-12+031499999V0209991C00001007501CN0150001N9-00481-00941102341ADDAG12000GF105991051051008001999021MA1999999098331MD1210021+9999
0072236310999991986031012004+63933+065050FM-12+002799999V0203401N00201220001CN0500001N9-00901-02401102581ADDAG12000AY131061AY231061GF107991031001999999031011MD1710031+9999MW1031
0057724930232301986110809004+37733-122217SAO  +0003OAK  V0203501N002112200019N0320001N1+01171+00721999999ADDAG10000GF100991999999999999999999MA1102471999999MW1001
0058943260999991986122010004-23800+133900FM-15+0544ASAS V0201301N00101999991CY0099001N1+03101+00501999999ADDAG10999MA1101391999999REMMET005CAVOKEQDQ01+000000PRSWM2
0081475160999991986041622004+41233+141150FM-15+0010RJSO V0202601N00461220001CN0112001N1+00301-00501999999ADDAG12999MA1101831999999REMMET028FCST 2210 TEMPO 0610 5CU030?EQDQ01+000000PRSWM2
0094723921999991986042105004+34567-120667SMARS+0002L96  V0203601N007719999999N9999999N9+99999+99999999999ADDAG10999MW1001SA1+2059REMSYN061PK    WND   17    POINT ARGUELLO    NW06  SAN   MIGUELISLAND?
0058081750999991986090211004+41150+001117FM-15+0075LERS V0209991C00001999991CY0099001N1+02601+01601999999ADDAG12999MA1102201999999REMMET005CAVOKEQDQ01+000000PRSWM2
0091156091999991986081510304+42700+023400FM-15+0530LBSF V0209991V00101030001CN0112001N1+02301+01601999999ADDAG12999GA1031+012009089GA2061+030009039MA1101801999999REMMET006NOSIG?EQDQ01+000000PRSWM2
0024095690999991986091911004+50483+012150FM-12+038999999V0203401N001019999999N9999999N9+01031+00551103931ADDAG12999MD1710011+9999
0091110360999991986033017154+48117+016567FM-15+0190LOWW V0202701N00461220001CN0112001N1+00801-00201999999ADDAG12999GA1011+012009089GA2031+027009039MA1101291999999REMMET006NOSIG?EQDQ01+000000PRSWM2
0072702756999991986090415004+61133-146250SAO  +0034VDZ  V0209991C000012200019N0320001N1+00391+00111999999ADDAG10000GF100991999999999999999999MA1103121999999MW1001REMAWY006NOSPL?
0071010740999991986110312354+71033+027833FM-15+0013ENMH V0203001N01031006001CN0060001N1+00001+00001999999ADDAG12999GA1011+003609089GA2051+006009089MA1100311999999MW1851OC101651
0050351730999991986081121004+51617+069800FM-12+031299999V0209991C00001220001CN0200001N9+00901+00451101811ADDAG12000GF100991001001999999001001MD1210031+9999
0201719060999991986090406004+58100-068417SY-SA+0037YVP  V0201901N00311010501MN0240001N1+01211+00571101321ADDAA106000091AG14000GD13991+0105099GJ102349KA1240M+01551KA2240N+00001MA1101321100861MD1810111+9999MW1001OA132401031REMSYN041333   10155 20000 555   01039 32020 40161AWY010SC6 8011 ?EQDQ01+000052SCOTCV
0060607401999991986121712004+35767+010750FM-15+0002DTMB V0203601N01181220001CN0112001N1+01601+00701999999ADDAG12000GA1031+006009089MA1102101999999EQDQ01+000000PRSWM2
0087725515999991986032620004+40317-096750SAO  +0402BIE  V0203401N006212200019N0320001N1+01721-00321999999ADDAG10999GD12991+0150099GD22991+0750099GF102991999999999999999999MA1102741999999MW1001
0108038270999991986091022004+50350-004117FM-12+0027EGDB V0200701N00101220001CN0080001N9+00971+00721102091ADDAG12999AY101011AY201011GA1031+075009009GF103991001001999999001011MD1210061+9999MW1051REMSYN011333   83075
0206034950999991986082406004+52750+001367FM-12+0020EGYC V0203001N00101009001CN0350001N9+01021+00841101161ADDAA199999929AG10000AY121061AY221061GA1021+005409089GA2031+009009059GA3061+075009009GF107991041081004501031021IA1019IA2999+00509KA1120N+00921MD1210081+9999MW1251REMSYN035333   20092 30005 82818 83630 86075
0058972600999991986062403004-08517+117417FM-12+0003WRRS V0201501N00261007501CN0150001N9+02941+02221101061ADDAG10999AY111031AY211031GF105991051021008001001011MW1051
0086107420999991986112001004+49200+009517FM-12+027799999V0201501N00101010801CN0250001N9+00801+00371101641ADDAG12999GA1081+010809059GF108991081051012501999999MD1710121+9999REMSYN011333   88636
0072205940999991986040706004+74600+101983FM-12+001199999V0200901N00401220001CN0210001N9-02941-03111100361ADDAG12000AY171061AY271061GF107991001001999999001011MD1710251+9999MW1781
0050029170999991986102512004+63017+027800FM-12+0102EFKU V0202201N00511220001CN0500001N9+00511+00061100261ADDAG12000GF101991011051004501041001MD1210151+9999
0045102380999991986072907454+52817+009933FM-15+0070EDZB V0201501N00261220001CN0080001N1+02301+01601999999ADDAG12999GA1031+030009039EQDQ01+000000PRSWM2
0073766961999991986040212004+19833-090517SAO  +0009CPE  V02099999999992200019N0096001N1+01901+01801999999ADDAG10000GD16991+0001599GF110991999999999999999999MW1001REMAWY007M BMSO?
008372258113960198605191400D+32850-096850SAO  +0149DAL  V0203301N004112200019N0160001N1+01611+01111999999ADDAA101000095AG10999GD12991+0600099GF102991999999999999999999MA1101961999999MW1001
0087724371938231986043013004+39450-087300SAO  +0181HUF  V0201901N00511021001EN0240001N1+01781+00891101571ADDAG10999GD13991+0210099GD23991+0300099GF107991999999999999999999MA1101591999999MW1001
0100477990999991986091404004+34300+129300FM-15+0063RJDT V0200401N00411090001CN0112001N1+02301+01601999999ADDAG12999GA1011+006009089GA2071+999999009MA1101391999999REMMET015(WIND 350V090)?EQDQ01+000000PRSWM2
0036012520999991986082103004+62817+010017FM-12+047599999V0209991C00001007501CN0200001N9+00531+00491999999ADDAG12000GF108991081051008001999999
0114604020999991986010415004+36717+005067FM-12+0002DAAE V0202601N00721012001CN0100001N9+01281+00501101601ADDAG12000GA1031+006909089GA2051+012009059GF107991071081008001999999MD1310031+9999REMSYN023333   83823 85640 95900
0076103060999991986012022454+52300+007383FM-15+0049EDCE V0202401N00721005401CN0112001N1+00601+00201999999ADDAG12999GA1051+005409059GA2071+008109059MA1101491999999EQDQ01+000000PRSWM2
0226717250999991986070406004+48050-077783SY-SA+0337YVO  V0202201N003612200019N0240001N1+01291+00801101131ADDAA106000091AG14000GD12991+0210099GD23991+0750093GF106991999999999999999999GJ105949KA1240M+01701KA2240N+00501MA1101051097081MD1510081+9999MW1001OA132401131REMSYN041333   10170 20050 555   01099 30122 40080AWY013AC4CI1 5008 ?
0087726665999991986121210004+43967-107967SAO  +1294WRL  V0209991C000012200019N0240001N1-01321-01661102441ADDAG10999GD12991+0450099GD22991+0750093GF102991999999999999999999MA1101931999999MW1001
025772557014943198606082300C+42400-096383SAO  +0334SUX  V0200905N005250762059N0480005N1+02505+01065101355ADDAA101000095AG10999GD12995+0420099GD23995+0750099GF106055999999999999999999MA1101391097415MW1001EQDQ01+999990APOSP N01 00000JPWTH 0QNNE81 0 00299E81 0 00499G21 0 00250K21 0 00051L21 0 03000M11 0 28765N21 0 00000Q21 0 10135S21 0 00077V11 0 00806X21 0 09010
0067723094999991986032000004+34650-077100SMARS+00023W4  V0202501N007719999999N0018001N9+01441+99999101181ADDAG10999GF107991999999999999999999MW1001REMSYN016TSTM  SWANSBORO?
0077010250999991986041400504+69683+018917FM-15+0010ENTC V0203501N00411220001CN0112001N1-00601-00801999999ADDAG13999GA1041+007509089MA1101021999999REMMET008DIST SH?EQDQ01+000000PRSWM2
0130064630999991986082009004+50783+004950FM-12+0081EBTN V0202401N00411012001CN0042001N9+01441+01161102061ADDAG12000AY121031AY221031GA1021+003009079GA2061+012009059GF106991061051004501999999MD1310151+9999MW1101REMSYN017333   82710 86640
0060161400999991986080714504+44533+011300FM-15+0049LIPE V0209991C00001220001CN0112001N1+03101+01801999999ADDAG12000GA1011+004509089MA1101291999999EQDQ01+000000PRSWM2
0083876230999991986020412004-36567-064267FM-12+0190SAZR V0203401N00151220001CN0150001N9+02481+02261101131ADDAA106000091AG10999AY101061AY201061GF100991001001999999001001MD1210081+9999MW1101
0108164220999991986101015144+38083+015650FM-15+0021LICR V0202501N00821220001CN0090001N1+02301+01801999999ADDAG12000GA1041+006009089MA1101491999999MW1101REMMET052SCT QUK2 QUL1 SW WT15 24013        ?     WT33 24007?
0130039710999991986072604004+53533-007367FM-12+010499999V0202401N00571001801CN0100001N9+01401+01351100621ADDAG12999AY161011AY251011GA1061+001809079GA2081+003009079GF108991081061002501999999MD1510031+9999MW1581REMSYN017333   86706 88710
0061588470999991986082212004+26083+119283FM-12+0085ZSFZ V0209991C00001012001CN0100001N9+02691+02141100631ADDAA106000091AG14000GF107991061051012501041999MD1210191+9999
0145231460999991986091418004+68467+073600FM-12+000599999V0200801N00301030001CN0200001N9+00171-00451100971ADDAA112002091AG10001AY181061AY221061GF107991071001999999031999KA1120M+00211MD1710091+9999MW1021OA149900801REMSYN029333   10021 60020 555   91108
0098471220999991986102714004+37083-127033FM-15+0012RKSO V0202801N001510105019N0112001N1+01101+00601999999ADDAG12999GA1061+010509059GA2021+027009049MA1101561999999MW1801REMMET026CIG035 PRESRR QFF 1015PT4?
0086992160999991986012910004+42500-130300FM-18+0003DB16 V0202001N006019999999N9999999N9+01061+99999099561ADDAG12999OA139900801SA1+1089UA1I070189999REMSYN03522200 00108 10704 333   92108 98218
0105717020999991986050908004+46433-063833SAO  +0024YSU  V0200401N00621003601MN0240001N1+00201+00001102521ADDAG10999GD13991+0036099GF107991999999999999999999MA1102511102231MW1001REMAWY005SF6 ?EQDQ01+999990APOSP 
0057702600264351986040407004+64550-149083SAO  +0110ENN  V0202801N001019999999N9999999N9-01491-02431999999ADDAG10999MA1100951999999REMAWY004009?EQDQ01+000002VOVAR 
0061060590999991986061712004+56050+008100FM-12+000399999V0201101N00931220001CN0120001N9+02601+01651101401ADDAA106000091AG14000GF100991001001999999001001MD1610061+9999
0072724398999991986070111004+40200-087600SAO  +0212DNV  V0200901N00211000601WN0004001N1+01721+99999999999ADDAG10999GD15991+0006099GF109991999999999999999999MA1101221999999MW1451
0072727437999991986081802004+45817-088117SAO  +0358IMT  V0209991C000012200019N0160001N1+01781+01171999999ADDAG10999GD12991+0210099GF102991999999999999999999MA1102241999999MW1001
0086034620999991986032423004+52617-000467FM-12+0084EGXT V0202701N01031220001CN0400001N9+00131-00191098571ADDAG12999GA1011+006609089GF101991011011008001001011MD1110421+9999REMSYN011333   81822
0159076460999991986092715004+43750+004417SY-MT+0096LFTW V0200201N00621220001CN0150001N1+02221+00871101861ADDAG12000GA1021+015009059GF103991021051017501999011MA1101801999999MD1610041+9999MW1001REMSYN017333   82650 83076MET005CAVOKEQDQ01+000000PRSWM2Q02    003SCOMCG
0195804230999991986112518004+10583-062300FM-12+0008MVGI V0200901N00401002401CN0200001N9+02941+02361101001ADDAA106000091AG14008AY191061AY291061GA1041+002109089GA2011+002409099GA3031+069009029GF108991051091002501031081MA1101021999999MD1999999-0111MW1021REMSYN040333   56209 59011 84807 81908 83273 1010
0491723090137541986081212003+34900-076883SAO  +0011NKT  V0201905N001050243849N0112005N1+02565+02285102035ADDAA106000091AG10000GA1999+007624999GA2999+015244999GA3999+024384999GA4999+076204999GD12015+0075099GD22015+0150099GD33055+0240099GD43055+0750099GF105995999091999999071991KA1999N+02281MA1101931101905MD1310151+9999MW1001REMAWY043CB SE STNRY CB SW STNRY/ 315 1978 73 WL0.0?EQDN01 00000JPWTH 1QNNE11 1 00201E11 1 00201E11 1 00406E11 1 00406G11 1 00080H11 1 00025H11 1 00050H11 1 00080H11 1 00250K11 1 00073L11 1 00700C41 0 30100M11 1 30090N11 1 00000Q11 1 10203S11 1 00078V11 1 00699X11 1 19002
0152074710999991986050715004+45083+003767FM-12+0833LFHP V0202401N00211007501CN0300001N9+01251+00841999999ADDAG12000AY121031AY221031GA1051+007509089GA2031+012009059GA3061+069009009GF107991061081008001001021MD1510011+9999MW1251REMSYN023333   85825 83640 86073
0122719430999991986072807004+56233-120733SAO  +0695YXJ  V0202501N00211024001MN0480001N1+01301+00701100741ADDAG10999GD13991+0240099GD23991+0750099GF107991999999999999999999MA1100681092661MW1001REMAWY007AC6CI ?EQDQ01+999990APOSP 
0105718280999991986012203004+54800-066800SAO  +0512YKL  V0201501N003612200019N0240001N1-02701-03201102171ADDAG10000GF100991999999999999999999MA1101421095311MD1810171+9999MW1001REMAWY0068017 ?EQDQ01+999990APOSP 
0072723417939881986082701004+34167-091933SAO  +0065PBF  V0202001N002112200019N0112001N1+02941+02001999999ADDAG10999GD12991+0750099GF102991999999999999999999MA1101521999999MW1001
0095722336999991986030417004+28133-093667SAO  +0001ADN  V0209999999999010501EN0160001N1-00881-01101999999ADDAG10999GD13991+0105099GD24991+0210099GF108991999999999999999999MW1001REMAWY014610/282 57X99?
0355724040137211986080223003+38300-076417SAO  +0014NHK  V0201605N005250762049N0080005N1+02835+02175101125ADDAG10999GA1999+012194999GA2999+076204999GD12015+0120099GD23055+0750099GD30995+9999999GD40995+9999999GF105995999999999999999999MA1101121100955MW1055OC100821EQDN01 08100JPWTH 1QNNE11 1 00201E11 1 00406E11 1 00099E11 1 00099G11 1 00250H11 1 00040H11 1 00250K11 1 00071L11 1 00500C41 0 29860M11 1 29810N11 1 08100Q11 1 10112S11 1 00083V11 1 00699X11 1 16010
0104712600999991986052501004+46483-084517SAO  +0192YAM  V0202101N002112200019N0240001N1+01601+01101101961ADDAG10999GD12991+0360099GD22991+0750099GF102991999999999999999999MA1101931999999MW1001REMAWY008AC3CI1 ?
0140725845232251986030902003+39283-120700SAO  +1609BLU  V0202005N002159999999N9999999N9-00065-00285999999ADDAG10999GF108995999999999999999999MA1100851999999REMAWY014PK WND 15 054?EQDQ01+000002VOVAR QNNK11 0 00027S11 0 00031V11 0 01099X11 0 20004
0285702190266151986112218003+60783-161800SY-SA+0038BET  V0200405N008252200059N0320005N1-01895-02335099575ADDAA106000091AG12000GF100005001001999999001991KA1120M-01771KA2240N-01991MA1099531098975MD1610021+9999MW1001REMSYN017333   11177 21199AWY013602 40096 97?EQDN01 00000JPWTH 0QNNE11 0 00099G11U0 99999K11 0-00010L11 0 02000M11 0 29225N11 0 00000Q11 0 09957S11 0-00002V11 0 00000X11 0 04016
0081040640999991986070800004+63783-018067FM-12+003599999V0200201N00261030001CN0750001N9+00931+00301101271ADDAG12000GF107991011041008001071021MD1210201+9999OA130300261REMSYN011555   3//05
0062085360999991986112912004+38783-009133FM-15+0114LPPT V0200801N00361220001CN0080001N1+01201+00901999999ADDAG12000GA1021+004809059MA1102711999999MW1101REMMET006NOSIG?
0152165200999991986032109004+40633+008283FM-12+0040LIEA V0202501N00151005401CN0080001N9+01001+00811102051ADDAG12001AY161031AY251031GA1021+003909079GA2041+005409059GA3061+024009049GF108991061071004501011999MD1710141+9999MW1601REMSYN023333   82713 84618 86458
0050239530999991986080321004+00000+999999FM-12+999999999V0203101N00301007501CN0100001N9+01141+01051099751ADDAG12000GF106991061051008001001001MD1710101+9999
0055060240999991986051605204+57067+008700FM-15+0007EKTS V0202401N00981002701CN0090001N1+00601+00501999999ADDAG12999GA1061+002709059MA1099491999999MW1601OC101651
0155718864999991986081300004+49467-120517SAO  +0700YDC  V0202901N006212200019N0240001N1+02801+01101101441ADDAA106000091AG10000GD12991+0180099GD22991+0300099GF102991999999999999999999MA1101591999999MD1610131+9999MW1001REMAWY034TCU2AC1 CB TOP E       ?    6013 ?
0102010510999991986062306004+69583+023533FM-12+037499999V0201801N00101030001CN0550001N9+00661+00321999999ADDAA199000191AG10001AY161061AY221061GF108991031071008001021999KA1120N+00251MW1021REMSYN011333   20025
0107166820999991986020802504+37917+021300FM-15+0012LGAD V0200701N00311010501CN0112001N1+00801+00601999999ADDAG11000GA1031+007509089GA2031+010509059GA3061+024009039MA1100711999999REMMET006NOSIG?EQDQ01+000000PRSWM2
011772781524237198601070900C+47283-121333SAO  +1206SMP  V0200901N007719999999N9999999N9-00285-00601999999ADDAA101000095AG10000MA1102741088885MD1010001+9999REMAWY014PK WND 27 000?EQDQ01+000002VOVAR QNNM11 0 26245S11 0 00027
0036154050999991986100622004+44750+027300FM-12+005199999V0209991C00001220001CN0100001N9+00661+99999999999ADDAG12999GF100991001001999999001001
0075600050999991986061408004+28617-017750FM-15+0031GCLA V0203001N00311009001CN0112001N1+01901+01601999999ADDAG12999GA1071+009009089MA1101591999999REMMET006NOSIG?EQDQ01+000000PRSWM2
0086037150999991986010310004+51400-003350FM-12+0067EGFF V0203401N00411220001CN0170001N9+00211-00301100501ADDAG12999GA1021+010509059GF102991021051012501001001MD1110551+9999REMSYN011333   82635
0148711060942341986092820004+49083-125767SAO  +0020YAZ  V0201201N004110024019N0040001N1+01201+01101101871ADDAG10999GD16991+0001599GD23991+0012093GD34991+0024099GF108991999999999999999999MA1101861999999MW1451MW2611REMAWY031F1SF4SF5         ?    CIG RGD ?
0061442140999991986080821004+48967+089967FM-12+171499999V0202901N00501036001CN0200001N9+01851+01341100311ADDAA106000091AG14000GF105991031051012501041021MD1610021+9999
0061161480999991986112411544+44217+012300FM-16+0010LIPC V0203501N00361007501CN0090001N1+99999+99999999999ADDAG12999GA1031+006009089GA2041+007509059MW1101REMMET004BKN?
0105477560999991986112606004+35067+134017FM-12+014799999V0203301N00211220001CN0350001N9+00741+00041102651ADDAG12001AY181061AY211061GF104991031021999999041001KA1150M+00971MD1210041+9999MW1251REMSYN011555   00097
0067747400139731986031119004+30500-099767SAO  +0522JCT  V0201701N005719999999N9999999N9+99999+99999999999ADDAG10999MA1100031999999REMAWY014PK WND 17 000?EQDQ01+000002VOVAR 
0050544830999991986052621004+40883+123900FM-12+023599999V0209991C00001220001CN0150001N9+00611+00541101451ADDAG12000GF100991001001999999001001MD1210051+9999
0064081605999991986120616004+41667-001050FM-15+0263LEZG V0202801N001010012019N0030001N1+00501+00501999999ADDAG12999GA1081+001209079MA1102571999999MW1101REMMET008CIGE004?
0047106590999991986090814004+49750+010200FM-15+0210EDIN V0202701N00311220001CN0112001N1+01901+00901999999ADDAG12999GA1031+009009089MA1101591999999MW1001
0057714450999991986013023004+52800-097633SAO  +0226WWS  V0202301N003119999999N9999999N9-01901-02301102671ADDAG10999MD1510021+9999REMAWY00517MM?EQDQ01+000002VOVAR 
0073601010999991986071816004+35733-005900FM-15+0021GMTT V0200801N01751999991CY0099001N1+03301+00901999999ADDAG12999MA1101081999999OC102111REMMET012CAVOK NOSIG?EQDQ01+000000PRSWM2
0131718090999991986101211004+49217-057400SAO  +0022YDF  V0202301N010310120019N0240001N1+00801+00001101941ADDAG10999GD12991+0108099GD23991+0120099GF107991999999999999999999MA1101931101671MW1001OC101651REMAWY008SC5SC2 ?EQDQ01+999990APOSP 
0117037460999991986032917004+51167-010750FM-12+0124EGDM V0202901N01181015001CN0300001N9+00631+00261100441ADDAG12999GA1041+004809089GA2031+015009059GF107991051081004501041021OA199901851REMSYN029333   84816 83650 555   1//36
0096718220999991986050323294+49767-074533SAOSP+0387YMT  V0203101N00571006001EN0040001N1+99999+99999999999ADDAG10999GD13991+0060099GD23991+0270099GF107991999999999999999999MW1851OC100981REMAWY007TCU6AC?
0086992580999991986073005004+34300-120700FM-18+0003DB58 V0203201N008019999999N9999999N9+01471+99999101791ADDAG12999OA139901101SA1+1389UA1I140149999REMSYN03522200 00138 11403 333   92111 98214
0116026070999991986050618004+56300+012850FM-12+0047ESDB V0201101N00821220001CN0200001N9+01781+00381101591ADDAA106000091AG14000GA1021+060009009GF102991001001999999001011KA1120M+02281MD1810061+9999REMSYN017333   10228 82070
0108106145999991986060514004+49217+007617FM-15+0415EDIV V0203101N001010120019N0112001N1+01401+00301999999ADDAG12999GA1041+009009089GA2031+012009059GA3021+024009039MA1100581999999REMMET007CIG040?EQDQ01+000000PRSWM2
025172546014933198611212100C+41533-093650SAO  +0286DSM  V0201605N006252200059N0192005N1+01005+00005101375ADDAA101000095AG10000GF100005999999999999999999MA1101291097825MD1710251+9999MW1001OC100981REMAWY004725?EQDQ01+999990APOSP N01 00000JPWTH 0QNNE81 0 00099G21U0 99999K21 0 00032L21 0 01200M11 0 28885N21 0 00000Q21 0 10137S21 0 00050V11 0 00000X21 0 16012
0065076500999991986100219004+43450+005217FM-15+0036LFML V0200801N00411999991CY0099001N1+02101+01001999999ADDAG12999MA1102201999999REMMET012CAVOK NOSIG?EQDQ01+000000PRSWM2
0105716090999991986081503004+45317-065883SAO  +0109YSJ  V0209991C000012200019N0240001N1+01201+01001101951ADDAG10000GF100991999999999999999999MA1101931100631MD1010011+9999MW1001REMAWY0060001 ?EQDQ01+999990APOSP 
0112727826241411986060414004+47317-119517SAO  +0388EPH  V0200601N00261021001EN0240001N1+01831+01281100871ADDAG10999GD13991+0210099GD23991+0300099GF107991999999999999999999MA1100951999999MW1611REMAWY016TE48 VSBY LWR N?
0072722029999991986070205004+25650-080433SAO  +0003TMB  V0209991C000012200019N0128001N1+02441+02111999999ADDAG10999GD12991+0750099GF102991999999999999999999MA1102171999999MW1001
0076012230999991986031017504+63117+007833FM-15+0062ENKB V0202601N00361220001CN0112001N1+00201+00101999999ADDAG12000GA1011+004509079GA2041+013509059MA1102101999999EQDQ01+000000PRSWM2
0036151130999991986062222004+46833+027450FM-12+013399999V0203201N00301007501CN0100001N9+01681+99999999999ADDAG12999GF108991051051008001071999
026572515004725198609251900C+42217-075983SAO  +0485BGM  V0202505N00315036585EN0240005N1+02065+01175101725ADDAA101000095AG10999GD14995+0360099GF108075999999999999999999MA1101761095905MW1001REMAWY025FEW SC BINOVC          ??EQDQ01+999990APOSP N01 00000JPWTH 0QNNE81 0 00699G21 0 00120K21 0 00053L21 0 01500M11 0 28320N21 0 00000Q21 0 10172S21 0 00069V11 0 01009X21 0 25006
0041999999999991986112015004-42300+028317FM-18+9999DRIB V02099999999999999999N9999999N9+01101+99999103351ADDAA106271092AG10999REMSYN011333   62711
0129466960999991986043018004+25067+121533SY-MT+0006RCSS V0209991C00001220001CN0025001N1+02341+02171101391ADDAA106000091AG14000AY101061AY201061GA1021+003009079GF102991021061004501001001MA1101351999999MD1710101+9999MW1101REMMET006NOSIG?
0099746930937371986110605004+35133-078933SAO  +0074FBG  V0201801N001510018019N0032001N1+02001+01611101511ADDAG10999GD16991+0001599GD24991+0018099GF108991999999999999999999MA1101521999999MW1451REMAWY003F2?
0036152540999991986041713004+45667+023917FM-12+147899999V0209991C000019999999N0100001N9+00691+99999999999ADDAG12999GF107991999999008001999999
0070828240999991986052415004-08767-063917FM-12+0102SBPV V0203601N00211220001CN0200001N9+03021+02311101251ADDAG10999GF103991011011008001001011MD1999999+0011REMSYN011333   58001
0072702084999991986031220004+62767-164517SAO  +00032Z0  V0200101N004612200019N0112001N1-01431-01661999999ADDAG10999GF100991999999999999999999MA1100341999999MW1001REMAWY006NOSPL?
029072225593842198608010200C+32517-084950SAO  +0137CSG  V0202605N00155015245EN0096005N1+02675+02005101295ADDAA101000095AG10999GD13995+0150099GD24995+0750099GF108075999999999999999999MA1101351099925MW1055REMAWY040TE24 MOVD S      ?    OCNL LTGIC DSNT S?EQDN01 08100JPWTH 0QNNE11 0 00499E11 0 00699G11 0 00050K11 0 00068L11 0 00600M11 0 29505N11 0 08100Q11 0 10129S11 0 00080V11 0 01009X11 0 26003
0106716000999991986032604004+43933-060017SAO  +0004WSA  V0202601N00771024001EN0160001N1+00001-00301104021ADDAG10999GD14991+0240099GF108991999999999999999999MA1104001103951MW1001REMAWY006AC10 ?EQDQ01+999990APOSP 
0050309350999991986061421004+50367+108750FM-12+077099999V0209991C00001030001CN0200001N9+00701+00651101281ADDAG12000GF106991021011012501051001MD1210101+9999
030291348040504198601281100C+06967+158217SAO  +0038PTPN V0201705N00215005495EN0192005N1+02505+02335100875ADDAA101000095AG10999GD13995+0054099GD23995+0390099GD34995+0870099GF108075999999999999999999MA1100881100365MW1001REMAWY010TCU ALQDS?EQDQ01+999990APOSP N01 00000JPWTH 0QNNE11 0 00499E11 0 00499E11 0 00699G11 0 00018K11 0 00074L11 0 01200M11 0 29635N11 0 00000Q11 0 10087S11 0 00077V11 0 01009X11 0 17004
0086106150999991986031805004+49767+007050FM-12+048399999V0201001N00311220001CN0100001N9+00511+00121102041ADDAG12999GA1021+039009039GF103991021001999999041011MD1710031+9999REMSYN011333   82363
0065037720999991986080302204+51483-000450FM-15+0024EGLL V0202201N00051999991CY0099001N1+01301+01001999999ADDAG11999MA1101801999999REMMET012CAVOK NOSIG?EQDQ01+000000PRSWM2
0117251380999991986061600004+68117+164150FM-12+009899999V0203201N00501220001CN0500001N9+02261+00501101241ADDAA106000091AA224000091AG14000GF106991001001999999001011KA1120N+00791MD1210051+9999REMSYN023333   20079 555   70000
0060725057999991986042403004+41283-070083SMARS+000845B  V0200201N00661220001CN0111001N9+00551+99999101181ADDAG10999GF101991999999999999999999MW1001REMSYN009BRANT PT?
0083478920999991986061906004+33233+132550FM-12+004399999V0202601N00101220001CN0200001N9+02921+01811100731ADDAG12000GF101991011001999999031021KA1150M+02961MD1710101+9999REMSYN011555   00296
0097671130999991986062512004-19833+048800FM-12+0005FMMH V0209991C00001220001CN0400001N9+02321+01491102141ADDAA106000091AG10999GA1011+006909089GF101991011081008001001001MD1710181+9999REMSYN011333   81823
0124719640999991986080716004+60717-135067SAO  +0704YXY  V0200201N001010120019N0480001N1+00901+00601102061ADDAG10999GD12991+0030099GD24991+0120099GF108991999999999999999999MA1101861093671MW1001REMAWY009CF1SC10 ?EQDQ01+999990APOSP 
0050303370999991986041715004+56283+107567FM-12+035899999V0203301N00301220001CN0200001N9-00141-01501100981ADDAG12000GF102991001001999999001011MD1210391+9999
0074162240999991986040314164+42083+012217FM-16+0270LIRB V0202001N00411036001CN0112001N1+99999+99999999999ADDAG12999GA1021+010509059GA2051+036009049REMMET004BKN?EQDQ01+000000PRSWM2
0109166140999991986093018004+40450+021283FM-12+0604LGKA V0203601N00771220001CN0250001N9+01741+00801102131ADDAA106000091AG14000GF100991001001999999001001KA1120M+02301MA1999999094471MD1310141+9999REMSYN011333   10230
0063064320999991986051607254+50567+003833FM-15+0063EBCV V0202201N00211999991CY0099001N1+01001+00501999999ADDAG12999MA1101801999999REMMET010CAVOK BLU?EQDQ01+000000PRSWM2
0215911780225141986021819003+21317-158067SAO  +0015HNA  V0200505N002652200059N0112005N1+02285+01285101735ADDAG10999GD12035+0075099GF103995999999999999999999MA1101731101565MW1001EQDN01 00000JPWTH 0QNNE41 0 00204G41U0 99999K41 0 00055L41 0 00700C41 0 30040M41D0 29990N41 0 00000Q41 0 10173S41 0 00073V41 0 00499X41 0 05005
0072265540999991986082912004+55817+027950FM-12+012299999V0201201N00501030001CN0110001N9+02051+01491101121ADDAG12001AY161061AY221061GF108991081001999999071999MD1710161+9999MW1021
0106710820999991986102702004+82500-062333SAO  +0063YLT  V0209991C00001024001MN0160001N1-02001-02201099931ADDAG10999GD14991+0240099GF108991999999999999999999MA1099861099081MW1711REMAWY006AC10 ?EQDQ01+999990APOSP 
0072879380999991986080615004-54800-068317FM-12+0014SAWH V0209991C00001030001CN0250001N9+00301+00161098331ADDAG10999AY121031AY221031GF108991011051004501021001MD1110121+9999MW1151
0075134520999991986101105004+42567+018267FM-15+0165LYDU V0201001N00151220001CN0112001N1+01501+01101999999ADDAG11999GA1021+013509059MA1102101999999REMMET006NOSIG?EQDQ01+000000PRSWM2
0113999999999991986071306004-53800-037400FM-13+9999UIRV V0202701N012019999999N0200001N9+00071+99999098101ADDAG10999GA1091+999999999GF109991091999999999999999MD1210261+9999SA1+0289UA1M040109999REMSYN01722262 00028 20402
012674780499999198609160000D+32017-081150SAO  +0013SVN  V0201301N001012200019N0112001N1+02671+01831102181ADDAA101000095AA206000091AG10000GD12991+0300099GF102991999001999999061001MA1102201999999MD1210021+9999MW1001REMAWY009202 1060?
0078066700999991986022817504+47483+008533FM-15+0432LSZH V0200601N00261012001CN0040001N1-00501-01001999999ADDAG12000GA1051+012009059GA2071+015009059MA1101691999999MW1051REMMET006NOSIG?
0081504420999991986010200004+50800+124283FM-12+999999999V0209991C00001220001CN0110001N9-03491-03721102461ADDAA106000091AG14000GF100991001001999999001001MD1210031+0301REMSYN011333   00358
0036032110999991986100716004+54517-003633FM-12+009499999V0202201N004119999999N0180001N9+99999+99999999999ADDAG12999GF107991999999999999999999
0086162060999991986102209004+42750+011067FM-12+0007LIRS V0209991C00001220001CN0200001N9+01681+01221101461ADDAG12000GA1011+005409059GF101991011051004501001001MD1310081+9999REMSYN011333   81618
0102011030999991986041018004+65100+011700FM-12+004799999V0209991C00001220001CN0600001N9-00121-00791999999ADDAA199001091AG10001AY181061AY281061GF104991041091012501001001KA1120M+00081MW1021REMSYN011333   10008
0075030910999991986121914204+57200-002200FM-15+0065EGPD V0202501N00571220001CN0112001N1+00301-00201999999ADDAG12999GA1011+004509099MA1099391999999REMMET006NOSIG?EQDQ01+000000PRSWM2
024172232012884198604040200C+29333-089400SAO  +0000BVE  V0201105N004152200059N0160005N1+01895+01725101585ADDAA101000095AG10999GD12995+0045099GD22995+0750099GF104035999999999999999999MA1101591101575MW1001EQDN01 00000JPWTH 0QNNE11 0 00299E11 0 00299G11U0 99999K11 0 00063L11 0 01000M11 0 29995N11 0 00000Q11 0 10158S11 0 00066V11 0 00504X11 0 11008
0072722800231951986011310004+32650-114600SAO  +0063YUM  V0203601N001012200019N0112001N1+01221-00051102021ADDAG10999GD12991+0600093GF102991999999999999999999MA1102031999999MW1001
0130036830999991986051915004+51883+000233FM-12+0106EGSS V0202801N00151015001CN0200001N9+01901+00911102191ADDAG12000GA1041+012009089GA2031+015009059GA3061+075009009GF107991061041012501031011MD1610131+9999REMSYN023333   84840 83650 86075
0046173000999991986072304504+36883+030700FM-15+0057LTAI V0200801N00051220001CN0050001N1+02401+02201999999ADDAG12999MA1100311999999MW1101REMMET006NOSIG?
0092723213999991986123118004+00000+000000SAO  +9999PXM  V0201601N005119999999N9999999N9+99999+99999999999ADDAA106002091AG10000REMAWY011BMSO 20009?EQDQ01+000022APCTENQ02+000002APC3  Q03+000002VOVAR 
0024038030999991986010911004+00000+000000FM-12+999999999V0202301N010019999999N9999999N9+01181+00961102171ADDAG12999MD1210121+9999
0060161470999991986092422004+44200+012067FM-15+0032LIPK V0209991C00001220001CN0080001N1+01701+01701999999ADDAG11999GA1031+027009039MA1101491999999MW1101REMMET004SCT?
0111962530999991986032818004-03867+102333FM-12+0016WIPL V0209991C00001030001CN0100001N9+02371+02331101021ADDAA106000091AG10999GA1021+006909059GA2051+030009049GF108991021051008001021051REMSYN023333   56000 82623 85460
031872564024018198608040500C+41150-104817SAO  +1867CYS  V0200505N00625016765EN0160005N1+01565+01115101885ADDAA101000095AG10999GD13995+0150099GD23995+0270099GD33995+0750099GF107075999999999999999999MA1102741081955MW1001REMAWY042CB OCNL LTGICCG        ?    NW-NE MOVG SE?EQDN01 00000JPWTH 0QNNE81 0 00499E81 0 00499E81 0 00499G21 0 00055K21 0 00052L21 0 01000M11 0 24200N21 0 00000Q21 0 10188S21 0 00060V11 0 00909X21 0 05012
0065412170999991986051614004+24433+054650FM-15+9999OMAA V0203501N00721999991CY0099001N1+03501+01601999999ADDAG12999MA1100511999999REMMET012CAVOK NOSIG?EQDQ01+000000PRSWM2
0100992120999991986100215004+30100-088900FM-18+0003DB12 V0201801N004019999999N9999999N9+02841+99999101921ADDAG12000MD1210141+9999OA139900501SA1+2809UA1I060039999REMSYN03522200 00280 10601 333   92105 98203
0065835830999991986121421004-19850-043950FM-12+0785SBBH V0201001N00361045001CN0150001N9+02341+02041999999ADDAG10999GF107991031051004501031021MA1999999101241MD1410001+9999
0067994210999991986092515004+34567-120667FM-12+0023PTGC V0202901N003619999999N9999999N9+01481+99999101211ADDAG12000MD1210171+9999OA139900411REMSYN023333   92108 555   91525
0083673410999991986071600004-25917+032567FM-12+0044FQMA V0202901N00501007501CN0200001N9+01721+01371101891ADDAA106001091AG10999AY191061AY281061GF106991061021008001001001MD1210111+9999MW1031
034272202012839198607050100C+25800-080300SAO  +0004MIA  V0200305N004150426759N0112005N1+02395+02115101965ADDAA101000095AG10999GD12995+0075099GD23995+0420099GD33995+0750099GF107075999999999999999999MA1101961101915MW1001REMAWY050TE23 MOVD E      ?    CB OCNL LTGICCCCA DSNT NE-E?EQDQ01+999990APOSP N01 00000JPWTH 0QNNE81 0 00299E81 0 00499E81 0 00499G21 0 00140K21 0 00070L21 0 00700M11 0 30095N21 0 00000Q21 0 10196S21 0 00075V11 0 00909X21 0 03008
0067501360999991986100612004+53467+122367FM-12+029799999V0209991C00001220001CN0030001N9-00271-00861102741ADDAA106000091AG14000GF100991001001999999001001MD1210141+9999MW1041
0050295510999991986040821004+56200+087750FM-12+013499999V0202401N01001075001CN0100001N9-00371-01031102451ADDAG12000GF108991021031008001001021MD1810011+9999
0041994140999991986092001004+41483-071033FM-12+0000BUZM V02099999999999999999N9999999N9+01621+99999102241ADDAA106000091AG14999REMSYN011555   90100
0081231460999991986042615004+68467+073600FM-12+000599999V0203201N00801220001CN0200001N9-00341-00701100491ADDAG12000GF107991031001999999031011MD1210051+9999OA149901801REMSYN011555   91118
0122655280999991986011218004+09500-007567FM-12+042199999V0203401N00211220001CN0025001N9+02501+00981101271ADDAA106000091AG14000AY101061AY201061GF100991001001999999001001KA1120M+03421MD1999999+0081MW1051REMSYN017333   10342 58008
0165854690999991986122018004-27167-109433SY-MT+0069NEIP V0201101N00211060001CN0300001N1+02441+01811102251ADDAG10999GA1041+009009089GA2011+060009009GF105991041021008001001011MA1102201999999MD1210051+9999MW1001REMSYN023333   56205 84830 81070MET005HR68?EQDQ01+000000PRSWM2
0072725750241261986072802004+41183-112017SAO  +1358OGD  V0203301N003612200019N0800001N1+02561+99999999999ADDAG10999GD12991+0450099GF102991999999999999999999MA1101631999999MW1001
029072353013967198610050300C+35400-097600SAO  +0392OKC  V0203605N00365024385EN0320005N1+01505+01225101995ADDAA101000095AG10000GA1999+024385045GD14085+0240099GF108085999001999999021999MA1102031097325MD1510001+9999MW1001REMAWY009500 102/?EQDQ01+999990APOSP N01 00000JPWTH 0QNNE81 0 00610G21 0 00080H11 0 21080K21 0 00054L21 0 02000M11 0 28740N21 0 00000Q21 0 10199S21 0 00059V11 0 01010X21 0 36007
0044999999999991986072500004-53400+176517FM-18+9999DRIB V02099999999999999999N9999999N9+00701+99999097281ADDAG10999MW1001SA1+0629REMSYN011333   55823
0024093590999991986082504004+52517+011400FM-12+004899999V0202401N002019999999N9999999N9+00831+00581101771ADDAG12999MD1210141+9999
0107109540999991986082007454+47833+010867FM-15+0760EDZT V0203101N00261012901CN0112001N1+01201+00901999999ADDAG12999GA1021+003609089GA2031+012909059GA3051+027009039MA1102201999999REMMET006PIC59?EQDQ01+000000PRSWM2
0024093590999991986082013004+52517+011400FM-12+004899999V0202801N006019999999N9999999N9+01241+00841101731ADDAG12999MD1210021+9999
0062162890999991986050722204+40883+014300FM-15+0072LIRN V0209991C00001220001CN0040001N1+01501+01301999999ADDAG12001GA1011+009009059MA1101901999999MW1101REMMET006NOSIG?
0076717250999991986010402004+48050-077783SAO  +0338YVO  V0200201N002112200019N0240001N1-02501-03001102461ADDAG10999GF100991999999999999999999MA1102001097991MW1001EQDQ01+999990APOSP 
0084467640999991986093005004+24733+121750FM-15+0009RCMS V0200701N00511220001CN0112001N1+99999+99999999999ADDAG12999GA1021+006009089MA1101391999999REMMET015  = 40  2752  =EQDQ01+000000PRSWM2
0102723924999991986042521004+34250-119250SMARS+0007P43  V0202501N00461220001CN0148001N9+01381+99999999999ADDAG10999GF104991999999999999999999MW1001SA1+1339UG1020099999REMSYN031WSW   SWL   VENTURA     HARBOR?
037870231026510198607101000C+62967-155617SAO  +0105MCG  V0202605N003150167659N0400005N1+01565+00835101065ADDAA101000095AG10999GA1999+011585065GA2999+016765065GA3999+024385035GD12025+0114099GD23045+0150099GD34025+0240099GF108085999999999999999999MA1101051099815MW1805REMAWY005RB30?EQDQ01+999990APOSP N01 02300JPWTH 0QNNE11 0 00202E11 0 00405E11 0 00603G11 0 00055H11 0 15038H11 0 15055H11 0 23080K11 0 00047L11 0 02500M11 0 29475N11 0 02300Q11 0 10106S11 0 00060V11 0 01010X11 0 26006
0056518110999991986121403004+38433+077267FM-12+123299999V0209991C00001090001CN0080001N9-00621-00771102781ADDAG12000GF107991001001999999001021MD1210021+9999MW1061
0088689280999991986052512004-34183+022150FM-12+000099999V0200901N00511220001CN0220001N9+01901+01651101781ADDAG10999GF101991011051004501001001MD1710221+9999UG1090201809REMSYN017222// 318// 40904
0155747910137171986053104004+33683-078933SAO  +0008MYR  V0202601N003610120019N0112001N1+02281+01891101181ADDAG10999GD12991+0060099GD22991+0090099GD34991+0120099GF108991999999999999999999MA1101191999999MW1951REMAWY044T ALQDS          ?    MOVG SE FQT LTGICCCCA?
0076478080999991986011500004+33583+130450FM-15+0012RJFF V0201601N00461024001CN0112001N1+00501-00101999999ADDAG11000GA1011+010509059GA2081+024009049MA1102171999999EQDQ01+000000PRSWM2
0036011910999991986090312004+68283+017317FM-12+000699999V0203001N00101220001CN0750001N9+01431+00921999999ADDAG12000GF102991011001022501031021
0100084310999991986041718004+37583-001000FM-12+021799999V0202301N01231036001CN0300001N9+01361+00801100861ADDAA106000091AG14000GF107991031051008001071001KA1120M+01601MD1610351+9999REMSYN017333   10160 91828
0058837210999991986041309004-23000-047133FM-15+0661SBKP V0209991C00001999991CY0099001N1+02001+01901999999ADDAG10999MA1101191999999REMMET005CAVOKEQDQ01+000000PRSWM2
0065717055999991986091115004+47567-064800SAO  +0015WPJ  V0201801N007219999999N9999999N9+01401+01301101251ADDAG10000MD1710361+9999OC100981REMAWY00586MM?EQDQ01+000002VOVAR 
0131722210138581986070214004+30483-086533SAO  +0026VPS  V0202801N003610075019N0112001N1+02891+02611101921ADDAG10999GD12991+0045099GD23991+0075099GD33991+0240099GD43991+0750099GF107991999999999999999999MA1101931999999MW1001REMAWY005WR//?
0088727684999991986073100004+47333-106933SAO  +0809JDN  V0203101N005719999999N9999999N9+02501+00111999999ADDAA106000091AG10000MD1010251+9999REMAWY025PK WND 21 ///025 RNO E79?EQDQ01+000002VOVAR 
0061593450999991986011212004+23583+119617FM-12+003199999V0200201N00901220001CN0110001N9+01641+01391102121ADDAA106000091AG14000GF103991031051004501001001MD1310101+9999
0057714250999991986103018004+49250-065333SAO  +0029WSF  V0202801N007219999999N0112001N1+00201-00401101261ADDAA106000091AG10000MD1210181+9999OC101081REMAWY00575MM?
0061876790999991986072618004-37617-062383FM-12+0304SAZE V0201801N00411220001CN0150001N9+01041+00301102441ADDAA106000091AG10999GF102991001001999999001011MD1110021+9999
0069307120999991986011018004+52750+103617FM-12+045099999V0200201N00101030001CN9999999N9-01611-01671103422ADDAG12000GF105991051001999999031001MD1210151+9999EQDQ01+103423APOSLP
0138702220999991986090902004+64733-156933SAO  +0046PAGA V0203001N00511012001EN0400001N1+00891+00281100551ADDAG10999GD13991+0120099GD23991+0600099GF107991999999999999999999MA1100541999999MW1001REMAWY042VIRGA W RWU N          ?     AND SE RCRNR?
0047014750999991986081309454+59183+009567FM-15+0014ENSN V0209991C00001012001CN0112001N1+01501+01001999999ADDAG12999GA1051+012009089MA1101901999999MW1101
0094310930999991986112312004+59667+150133FM-12+000899999V0203601N00301220001CN0500001N9-01261-01461101631ADDAA106000091AG14000GF101991001001999999001021KA1120M-01041MD1810041+9999REMSYN011333   11104
0119129420999991986112912004+46000+018233FM-12+020399999V0202901N00301003001CN0004001N9+00201+00151103581ADDAA106000091AG14000AY121061AY221061GA1081+003009079GF108991081061004501999999MD1710091+9999MW1461REMSYN011333   88710
0058683280999991986100412004-26050+022450FM-12+100099999V0200501N01031220001CN0300001N9+02841+00931999999ADDAG10999AY101061AY201061GF104991021011012501001021MW1071
0094610430999991986053115004+14900+005250FM-12+039199999V0201801N00311090001CN0300001N9+04101+01111100471ADDAG12000GA1031+015009089GA2051+090009009GF107991031021017501001021REMSYN017333   83850 85080
0043163320999991986051107124+40233+018150FM-15+0061LIBN V0200101N00671999991CY0099001N1+01801+01101999999ADDAG12999REMMET005CAVOKEQDQ01+000000PRSWM2
0162415980999991986092703004+32933+073717FM-12+023499999V0209991C00001036001CN0100001N9+02281+02111100222ADDAA199006091AG10000GA1031+015009059GF107991031051017501051001KA1120N+02001MA1999999098541MD1999999+0161REMSYN029333   20200 58016 6006/ 83650EQDQ01+100223APOSLP
0287766440999991986102612004+20950-089667SY-SA+0009MID  V0200901N002012200019N0100001N1+02281+02221101181ADDAA106000091AA224000091AG14000GA1031+999999039GD16991+0001599GD22991+0045099GF105991999999999999999999IA1019KA1240M+03631KA2120N+02261MA1101491101081MD1710011+9999MW1041MW2051REMSYN047333   0/299 10363 20226 30/// 54000 70000 833//AWY029152/HK2 ALGS AC/907/60009/23?EQDQ01+000003PRSWM1
020072225593842198604271300C+32517-084950SAO  +0137CSG  V02099959000052200059N0112005N1+01785+01115101935ADDAA101000095AG10999GF100005999999999999999999MA1101961100525MW1001EQDN01 00000JPWTH 0QNNE11 0 00099G11U0 99999K11 0 00052L11 0 00700M11 0 29685N11 0 00000Q11 0 10193S11 0 00064V11 0 00000X11 0 00000
0147108360999991986090210004+48667+009867FM-12+073799999V0202401N00931036001CN0200001N9+01301+00691102031ADDAG12001GA1011+006909089GA2051+036009039GA3071+075009009GF107991011081008001071021MD1010011+9999OA149901441REMSYN029333   81823 85362 87075 91128
0031162530999991986100621084+41067+014083FM-15+0010LIRM V0209991C00001220001CN0015001N1+01801+01701999999ADDAG12000MA1102201999999MW1101
0103156250999991986051103004+42133+024800FM-12+0185LBPD V0209991C00001012001CN0060001N9+01281+01231101791ADDAA124006091AG10000AY121031AY221031GF108991081051012501999999MD1410001+9999MW1101REMSYN011333   60064
0088712610999991986122402004+43767-081717SAO  +0213WGD  V0201001N001519999999N9999999N9+00201-00301102381ADDAG10999MA1999999099711MD1210071+9999REMAWY00563MM?EQDQ01+999990APOSP Q02+000002VOVAR 
0047102240999991986112704204+53050+008783FM-15+0005EDDW V0202501N00621220001CN0112001N1+00601+00401999999ADDAG12999GA1031+018009059MA1102711999999MW1211
0097999999999991986061118004+21900-035300FM-13+9999UOWM V0200801N00701220001CN0200001N9+02851+99999102111ADDAG12000GF102991021041012501001001MD1210071+9999SA1+2309UA1M990159999REMSYN01722253 00230 2//03
0032103134999991986120717504+52133+007683FM-15+0048EDLG V0201501N00411220001CN0030001N1+00401+00201999999ADDAG12000GA1021+006009059MW1101
0079718790999991986040819004+53567-113517SAO  +0671YXD  V02099999999992200019N0240001N1+01801-00101101201ADDAG10999GD12991+0900093GF102991999999999999999999MW1001REMAWY013G24/986/CI1 ?
0119401000999991986081015004+33817+035483SY-MT+0019OLBA V0202201N00511220001CN0150001N1+02901+02351100631ADDAG12000GA1011+007809089GF101991011021008001001001MA1100611999999MD1710091+9999MW1001REMSYN011333   91837MET006NOSIG?
025772578024156198612230400C+42917-112600SAO  +1358PIH  V0202005N00625018295EN0320005N1+00005-00615102375ADDAA101000095AG10999GD13995+0180099GD24995+0300099GF108085999999999999999999MA1102001086565MW1001EQDQ01+999990APOSP N01 00000JPWTH 0QNNE81 0 00499E81 0 00699G21 0 00060K21 0 00021L21 0 02000M11 0 25560N21 0 00000Q21 0 10237S21 0 00032V11 0 01010X21 0 20012
0158675850999991986022806004-13983+033633FM-12+114999999V0201501N00301006001CN0700001N9+01821+01681999999ADDAA106000091AA299061691AG10999AY121999GA1081+006009059GF108991081051008001999999KA1240M+02431KA2120N+01731REMSYN041333   20173 88620 555   10243 22000 30616
0096151990999991986100700004+46067+020617FM-12+008499999V0201101N00101036001CN0100001N9+01001+00331102641ADDAA106000091AG14000GF107991071001999999071001MA1999999101581MD1710021+9999REMSYN011555   26000
0161403730999991986120903004+28333+046117SY-MT+0360OEPA V0201601N00311220001CN0100001N1+00671-00101101831ADDAG12000GA1021+030009039GF102991021001999999041001MA1101801999999MD1999999-0231MW1001REMSYN035333   59023 82360 555   04410 49757MET005CAVOKEQDQ01+000000PRSWM2
0159812530999991986012506004+03367-057333FM-12+0148MECI V0209991C00001024001CN0150001N9+02281+02251101311ADDAA106001091AG10002AY181061AY261061GA1031+009009059GA2051+024009049GF107991031051008001071011MD1999999-0051MW1601REMSYN035333   56129 59005 60011 83630 85458
0080714390999991986101420004+45333-081733SAO  +0181WWX  V0202501N007219999999N0096001N1+00801+00101100171ADDAG10999MA1999999097991MD1410001+9999OC101031REMAWY00538MM?EQDQ01+999990APOSP 
0152857320999991986080418004-38367-073900FM-12+002399999V0203601N00511220001CN0200001N9+01141+00631101991ADDAA106000091AG10999GA1031+012009089GF103991031021012501001001MD1210111+9999UA1M070159999UG1070153609REMSYN041222// 20703 336// 40703 333   56800 83840
0060035623999991986042502004+52367-000217FM-15+0049EGWZ V0202001N00211220001CN0112001N1+00401+00001999999ADDAG11999GA1041+060009009MA1101461999999MW1001REMMET004BLU?
0121999999999991986041906004+75200+081500FM-13+9999VSBN V0209999999999220001CN0500001N9+02751+02461100911ADDAG12000GF103991031011004501001001MD1010001+9999SA1+2809UA1M010059999UG1030153009REMSYN02922274 00280 20101 330// 40303
0076837030999991986061718004-22550-055700FM-12+0660SBPP V0200501N00311220001CN0200001N9+02801+99999101571ADDAA106000091AG10999GF100991001001999999001001MA1999999094231MD1610121+9999
0150725306148551986092911454+42083-087817SAOSP+0199NBU  V0203001N003110084019N0112001N1+99999+99999999999ADDAG10999GD12991+0036099GD23991+0084099GD34991+0150099GF108991999999999999999999MA1101321999999MW1001REMAWY039TE45 OVHD MOVD E       ?    OCNL LTGIC?
0065082840999991986112011304+39483-000467FM-15+0062LEVC V0202301N00311999991CY0099001N1+01801+00601999999ADDAG12000MA1102301999999REMMET012CAVOK NOSIG?EQDQ01+000000PRSWM2
0076084190999991986052007304+37133-003633FM-15+0570LEGR V0202501N00211220001CN0112001N1+02001+01401999999ADDAG12999GA1011+010509089MA1101591094971EQDQ01+999990APOSP Q02+000000PRSWM2
0060828990999991986051914004-08133-034917FM-15+0011SBRF V0201701N00311006001CN0112001N1+03101+02201999999ADDAG10999GA1051+006009089MA1101491999999EQDQ01+000000PRSWM2
0078065900999991986050317504+49617+006217FM-15+0379ELLX V0203101N00311013501CN0060001N1+01301+01101999999ADDAG12013GA1041+001509079GA2061+013509099MA1100911999999MW1951REMMET006NOSIG?
0114679910999991986050204004-22217+030000FM-12+0457FVBB V0209991C00001220001CN0150001N9+01621+01581999999ADDAG10999AY101011AY201011GA1011+009009059GF101991011051012501001001MD1999999+0161MW1051REMSYN017333   58016 81630
0127064070999991986082113004+51200+002867FM-12+0005EBOS V0201601N00511030001CN0120001N9+01901+00211101781ADDAG12999GA1011+012009059GA2071+030009039GF107991011051999999071999MD1810201+9999REMSYN017333   81640 87360EQDQ01+000992SCOLCB
0061471150999991986090815004+37483+130900FM-12+022399999V0202001N00261004201CN0120001N9+01971+01851101051ADDAA106000091AG14000GF108991061061004501021999MD1810111+9999
0122081840999991986120815004+41900+002767SY-MT+0129LEGE V0202001N00311024001CN0080001N1+01421+01121101681ADDAG12000GA1031+007509089GA2041+024009039GF107991031051008001021001MA1101591999999MD1710231+9999MW1001EQDQ01+000000PRSWM2
0058471820999991986052614004+33500+126500FM-15+0038RKPC V0200801N00721999991CY0099001N1+01701+01201999999ADDAG12999MA1101251999999REMMET005CAVOKEQDQ01+000000PRSWM2
0098071860340621986100603004+48767+007300FM-12+038299999V0202201N001019999999N9999999N9+01281+01151102501ADDAA106000091AG14000GJ100009IA2999+00809MD1710021+9999OA149900411REMSYN023333   3/008 91108 94000
0072039280999991986112900004+54850-005800FM-12+000399999V0202301N00511007201CN0240001N9+00991+00911999999ADDAG12000GA1061+007209089GF106991999999008001999999REMSYN011333   86824
0099035963999991986011117004+52133+001433FM-15+0026EGVJ V0202601N00411220001CN0112001N1+00601+00201999999ADDAG12999GA1011+006009089GA2031+010509059MA1100881999999MW1251REMMET027MDT CU E         ?     BLU?
0057722599999991986032301004+32683-096867SAO  +0201RBD  V0201701N006712200019N0240001N1+01721+00671999999ADDAG10999GF100991999999999999999999MA1102641999999MW1001
0068726838941851986012713344+43600-118950SAOSP+1263BNO  V0202601N001519999999N9999999N9-01051-01271999999ADDAG10999MA1102031999999REMAWY015PK WND 06 000 ?EQDQ01+000002VOVAR 
0087702005999991986081605004+62067-163300SAO  +0092KSM  V0201701N003610150019N0480001N1+00721+00721999999ADDAG10999GD12991+0090099GD24991+0150099GF108991999999999999999999MA1101691999999MW1001
0122710430999991986052511004+65283-126800SAO  +0074YVQ  V0201001N002612200019N0480001N1+00201-00301101561ADDAG10999GD12991+0240099GD22991+0690093GF102991999999999999999999MA1101491100621MW1001REMAWY007AC1CI ?EQDQ01+999990APOSP 
0172151380999991986021118004+46650+021517FM-12+058999999V0209991C00001220001CN0010001N9-00171-00171102171ADDAA199000191AG10000AJ100059199999999AY141061AY221061GF103991031061004501001001IA1279KA1120M+00131MA1999999094921MD1310061+9999MW1281REMSYN029333   10013 43005 92270 90591
0036308660999991986051003004+51567+116667FM-12+067199999V0203301N00501220001CN0500001N9+00521-01061101131ADDAG12000GF106991041011012501001011
0070724838999991986051015004+39100-121567SAO  +0019MYV  V0203001N004112200019N1040001N1+01501+00611101221ADDAG10000GF100991999999999999999999MA1101221999999MW1001REMAWY004///?
0230722221138991986070817003+30467-087200SAO  +0034PNS  V0201905N004652200059N0160005N1+03225+02285102335ADDAG10999GD12995+0084099GD24995+0750093GF108025999999999999999999MA1102341101905MW1001EQDN01 00000JPWTH 0QNNE81 0 00299E81 0 00599G21U0 99999K21 0 00073L21 0 01000M11 0 30090N21 0 00000Q21 0 10233S21 0 00090V11 0 01003X21 0 19009
031772681024131198609151300C+43567-116217SAO  +0865BOI  V0201405N004150304859N0240005N1+01175+00675101185ADDAA101000095AG10999GD12995+0150099GD23995+0300099GD34995+0600099GF108075999999999999999999MA1101321091235MW1001REMAWY041CB NW MOVG NE          ?    OCNL LTGICCG?EQDN01 00000JPWTH 0QNNE81 0 00299E81 0 00499E81 0 00699G21 0 00100K21 0 00044L21 0 01500M11 0 26940N21 0 00000Q21 0 10118S21 0 00053V11 0 01009X21 0 14008
0060160900999991986070913504+45383+010867FM-15+0068LIPX V0201601N00261009001CN0112001N1+02501+01501999999ADDAG12999GA1051+009009089MA1101491999999EQDQ01+000000PRSWM2
0155724271038041986022000004+39350-081433SAO  +0263PKB  V0200701N00211009001EN0080001N1+00941+00941100511ADDAA106000391AG10005GD13991+0090099GD24991+0240099GF108991999999999999999999KA1999M+01331MA1100511999999MD1210201+9999MW1451MW2801REMAWY015RB45/ 22001 56?
0098474760999991986072009004+43667+142450FM-15+0212RJEC V0203201N00361007501CN0112001N1+02101+01701999999ADDAG12000GA1051+007509089GA2061+999999009MA1101221999999REMMET013TCU NE-SE-SW?EQDQ01+000000PRSWM2
0086992440999991986012710004+26000-085900FM-18+0003DB44 V0203201N014019999999N9999999N9+02021+99999101641ADDAG12999OA139901801SA1+2199UA1I090329999REMSYN03522200 00219 10906 333   92118 98232
0121999999999991986050618004+56400+002100FM-13+9999GRHJ V0201101N00621075001CN0200001N9+00841+00671101311ADDAG12000GF108991001001999999001081MD1410001+9999SA1+0759UA1M010059999UG1040101109REMSYN02922200 00075 20101 31100 40402
039670261026411198611020700C+64817-147867SAO  +0133FAI  V02099959000052200059N0240005N1-00785-00945100535ADDAA101000095AG10999GA1999+012195065GA2999+024385035GA3999+054865025GD12999+0240099GD23025+0540093GD30045+9999999GF106025999999999999999999MA1100411098755MW1001REMAWY007FEW SC?EQDQ01+999990APOSP N01 00000JPWTH 0P01    003SCCGD1QNNE81 0 00200E81 0 00302E81 0 00005G21U0 99999H11 0 15040H11 0 23080H11 0 37180K21 0 00015L21 0 01500M11 0 29160N21 0 00000Q21 0 10053S21 0 00018V11 0 00702X21 0 00000
0060014830999991986110317504+59200+010267FM-15+0088ENTO V0202401N00311006001CN0112001N1+00301+00201999999ADDAG12000GA1061+006009059MA1101491999999EQDQ01+000000PRSWM2
0096152190999991986111404004+46100+027167FM-12+010199999V0209991C00001220001CN0005001N9-00201+99999999999ADDAG11999AY101011AY201011GF100991001001999999001001MW1461REMSYN029333   90428 92000 555   60009
0094170900999991986101112004+39750+037017FM-12+128599999V0203101N00151220001CN0200001N9+01731+00651999999ADDAA106000091AG14000GF102991021011012501001001KA1120M+01941MD1810061+9999REMSYN011333   10194
0125106390999991986121805004+49850+008583FM-12+0110EDES V0201901N00821007501CN0100001N9+00461+00331100901ADDAG12999GA1021+002409079GA2071+007509059GF108991071051002501999999MD1710351+9999OA149901441REMSYN023333   82708 87625 91128
0093467720999991986092902004+22417+120550FM-15+0020RCFS V0202601N001010240019N0112001N1+02801+02101999999ADDAG11999GA1021+004809089GA2061+024009039MA1101291999999REMMET008CIG080:?EQDQ01+000000PRSWM2
0087425710999991986082306004+24567+080833FM-12+0317VIST V0202601N00101036001CN0100001N9+02701+02411100361ADDAA106000091AG14000GF108991041081004501071999MD1999999+0281REMSYN017333   5669/ 58028
0220471170999991986081219004+37500+126933FM-15+0046RKSF V0202401N00361003601CN0080001N1+02501+02401999999ADDAG12999GA1061+003609079GA2011+006009099GA3081+007509059MA1100001999999MW1631OC100881REMMET124EEE        ?     2953IN SEEE       ?     2953INS/CIGE012/CB N MOV NE /RA M  ONCL RA /1RA08/QFF100PT4EE     ?     QFF1000PT4?
021672456013996198604221000C+39067-095633SAO  +0267TOP  V02099959000052200059N0240005N1-00175-00335102255ADDAA101000095AG10999GF102005999999999999999999MA1102201098985MW1001EQDQ01+999990APOSP N01 00000JPWTH 0QNNE81 0 00199G21U0 99999K21 0 00026L21 0 01500M11 0 29230N21 0 00000Q21 0 10225S21 0 00029V11 0 00200X21 0 00000
0097999999999991986122006004+40200-040700FM-13+9999UTNE V0202001N01201220001CN0200001N9+02881+99999100811ADDAG12000GF103991021021004501001011MD1410001+9999SA1+2209UA1M040159999REMSYN01722213 00220 20403
0065134570999991986050206304+42733+018733FM-15+0005LYTV V0201001N00101999991CY0099001N1+01601+01001999999ADDAG12999MA1101191999999REMMET012CAVOK NOSIG?EQDQ01+000000PRSWM2
0066101470999991986112103504+53633+009983FM-15+0016EDDH V0202401N00461999991CY0099001N1+00201+00101999999ADDAG12999MA1101491999999REMMET013CAVOK NOSIG ?EQDQ01+000000PRSWM2
0072024000999991986042609004+60317+012700FM-12+019999999V0202901N00101030001CN0150001N9+00461+00141101181ADDAG12001AY161031AY221031GF108991031071004501021999MD1610061+9999MW1021
023172572024127198601211700C+40783-111950SAO  +1286SLC  V0201305N003152200059N0480005N1-00175-00565102685ADDAA101000095AG10999GD11995+0750093GF102015999999999999999999MA1102471087795MW1001EQDQ01+999990APOSP N01 00000JPWTH 0QNNE81 0 00199G21U0 99999K21 0 00022L21 0 03000M11 0 25925N21 0 00000Q21 0 10268S21 0 00029V11 0 00301X21 0 13006
0106719240999991986011514004+74717-094983SAO  +0067YRB  V0209991C00001009601MN0240001N1-03001-03401101481ADDAG10999GD14991+0096099GF108991999999999999999999MA1101321100521MW1711REMAWY006SC10 ?EQDQ01+999990APOSP 
0041081605999991986121618004+41667-001050FM-15+0263LEZG V0202701N002612200019N0112001N1+00801+00701999999ADDAG12000GA1011+024009039MA1102981999999
0087725196147171986022009094+43233-075400SAOSP+0154RME  V0201101N00411002701MN0112001N1+99999+99999999999ADDAG10000GD13991+0027099GD24991+0060099GF108991999999999999999999MA1101251999999MW1001
0086992040999991986110622004+25900-089700FM-18+0003DB04 V0201401N003019999999N9999999N9+02721+99999101581ADDAG12999OA139900401SA1+2789UA1I070089999REMSYN03522200 00278 10702 333   92104 98208
0104712635999991986021101004+43167-079933SAO  +0237YHM  V0202701N002112200019N0240001N1-01301-01501102151ADDAG10999GD12991+0060099GD22991+0750099GF102991999999999999999999MA1101961999999MW1001REMAWY008CF1CI1 ?
0050095690999991986020409004+50483+012150FM-12+038999999V0201101N00401007501CN0100001N9-00221-00721101981ADDAG12000GF107991071051008001999999MD1210111+9999
0075163200999991986103022504+40650+017950FM-15+0010LIBR V0203401N00411220001CN0112001N1+01701+01401999999ADDAG12999GA1011+006009059MA1101291999999REMMET006NOSIG?EQDQ01+000000PRSWM2
0191723870031601986110809005+36617-116017SAO  +1006DRA  V02099959000052200059N032000599+00395-00895101815ADDGD10995+9999999GF100005999999999999999999MA1999999090285EQDN01 00000JPWTH 0QNNE81 0 00099G21U0 99999K21 0 00016L21 0 02000M11 0 26660N21 0 00000Q21 0 10181S21 0 00039V11 0 00000X21 0 00000
0088711320999991986102000364+59250-105833SAOSP+0250YSF  V0202601N002110075019N0240001N1+99999+99999999999ADDAG10000GD12991+0027099GD23991+0075099GF107991999999999999999999MW1001REMAWY007SF4SC5?
034870261026411198610290600C+64817-147867SY-SA+0133FAI  V0200305N003152200059N0240005N1-01065-01445102595ADDAA101000095AA206000091AA324000091AG14000AJ100089199999999GF100005001001999999001991KA1240M-00221KA2240N-01561MA1102471100785MD1210081+9999MW1001REMSYN041333   11022 21156 4/008 70000 555   92906AWY013208 42804 28?EQDN01 00000JPWTH 0QNNE81 0 00099G21U0 99999K21 0 00006L21 0 01500M11 0 29760N21 0 00000Q21 0 10259S21 0 00013V11 0 00000X21 0 03006
0070535290999991986060221004+39100+107983FM-12+138199999V0209991C00001090001CN0300001N9+01421-00361100581ADDAG12000GF105991001001999999001021MD1210011-0201REMSYN011333   05252
0174077610999991986112618004+41917+008800SY-MT+0009LFKJ V0200401N00411220001CN0250001N1+01221+00831102351ADDAA106000091AG14000GA1011+006009059GF101991011051008001001001KA1999M+01811MA1102301999999MD1310061+9999MW1001REMSYN023333   10181 81620 95990MET006NOSIG?EQDQ01+000000PRSWM2
0178765752999991986061502004+21067-101550SAO  +1829LEN  V0209991C00001009001EN0112001N1+01801+01501999999ADDAG10999GD13991+0090099GD23991+0240099GD34991+2100099GF108991999999999999999999MA1102341999999MW1001REMAWY067234 R-INTMTE     ?    PCPCN AL NE/SW ALGS SC TR TE 30 CLCDO  97299?
0076828990999991986081123004-08133-034917FM-15+0011SBRF V0209991C00001030001CN0112001N1+02601+02201999999ADDAG10999GA1031+006009089GA2061+030009039MA1101691999999EQDQ01+000000PRSWM2
0089918000999991986010818004-09017-158067FM-12+0001NCPY V0200901N00981007501CN0500001N9+02801+99999100951ADDAA106000091AG10999AY121061AY221061GF106991061021008001999999MW1021REMSYN011333   562//
0208167464332091986081001003+35533+024150SAO  +0146KQNC V0203205N001552200059N0112005N1+02395+01785101245ADDGD10995+9999999GF100995999999999999999999MA1101291099585MW1001EQDN01 00000JPWTH 0QNNE41 0 00099G41U0 99999K41 0 00064L41 0 00700C41 0 29900M41D0 29405N41 0 00000Q41 0 10124S41 0 00075V41 0 00099X41 0 32003
0076479425999991986031901004+27033+128400FM-15+0014RORY V0203001N00721013501CN0112001N1+99999+99999999999ADDAG11999GA1021+006009999GA2051+013509999MA1101191999999EQDQ01+000000PRSWM2
0072315130999991986122506004+50917+128467FM-12+017899999V0202801N00301030001CN0090001N9-01911-02171101921ADDAG12001AY171061AY271061GF108991081001999999021999MD1310011+9999MW1711
0031032431999991986061707204+55033-001683FM-15+0081EGNT V0209991C00001220001CN0020001N1+01701+01401999999ADDAG11999MA1101021999999MW1051
0119171840999991986061200004+38917+027850FM-12+0093LTBB V0209991C00001030001CN0200001N9+01801+01661100581ADDAA106000091AG14000GA1041+012009059GA2081+030009049GF108991041051012501021999MD1810021+9999REMSYN017333   84640 88460
0050095670999991986112608004+50883+012133FM-12+031299999V0201801N00501220001CN0150001N9+00461+00091102221ADDAG12999GF101991011001999999041011MD1510021+9999
0092648600999991986030112004+09333+013383FM-12+0244FKKR V0201001N00411220001CN0200001N9+03821+00301100701ADDAG12000GA1031+090009009GF103991001001999999001021MD1999999+0061REMSYN017333   58006 83080
023172745014913198608041400C+46833-092183SAO  +0435DLH  V0202505N003652200059N0240005N1+02005+01395101765ADDAA101000095AG10999GD12995+0300099GF102025999999999999999999MA1101761096665MW1001EQDQ01+999990APOSP N01 00000JPWTH 0QNNE81 0 00299G21U0 99999K21 0 00057L21 0 01500M11 0 28545N21 0 00000Q21 0 10176S21 0 00068V11 0 00202X21 0 25007
0050254280999991986021918004+65233+160500FM-12+025399999V0209991C00001220001CN0500001N9-03031-03341102971ADDAG12000GF104991001001999999001011MD1310031+9999
0143999999999991986051400004+52900-025500FM-13+9999OUSC V0202901N00801007501CN0200001N9+00721+99999100391ADDAG12000AY111061AY261061GF105991051031008001999999MD1410001+9999MW1211SA1+1309UA1M040159999UG1120302709REMSYN02922253 0013/ 20403 32700 41206
0094354780999991986032015004+48867+068750FM-12+999999999V0209991C00001220001CN9999999N9-01081-01141102681ADDAA106000091AG14000GF100991001001999999001001KA1120M-00611MD1310051+9999REMSYN011333   11061
0047013100999991986062705504+61583+005033FM-15+0009ENFL V0203301N00101000301CN0005001N1+01101+01101999999ADDAG12000GA1051+000309079MA1102811999999MW1421
0065074810999991986072108214+45733+005083FM-15+0240LFLL V0203201N00261999991CY0099001N1+01901+01201999999ADDAG12999MA1101801999999REMMET012CAVOK NOSIG?EQDQ01+000000PRSWM2
0072722673999991986112315004+33717-096667SAO  +0228F39  V0203601N00261002701EN0032001N1+01061+00941999999ADDAG10000GD14991+0027099GF108991999999999999999999MA1101351999999MW1451
0246710720999991986111618004+76233-119317SY-SA+0012YMD  V0203201N00211002401MN0190001N1-02351-02711101811ADDAA106999929AC19C9AG10000AJ100299199999999AY171061AY271061GD13991+0024099GD23991+0060099GF107991999999999999999999IA1249KA1120M-02291KA2240N-02821MA1101801101641MD1610041+9999MW1701MW2711REMSYN029333   11229 21282 48029 90583AWY013ST6SC2 6004 ?
0087714080999991986031613004+47367-055800SAO  +0035WZN  V02099999999999999999N9999999N9-00401+99999101341ADDAG10999MA1999999100911REMAWY0183605/-/ MMMM 1MMM?EQDQ01+999990APOSP Q02+000002VOVAR 
0072724095147921986022702004+40283-074817SAO  +0065TTN  V0202601N00311075001EN0240001N1-00431+99999999999ADDAG10999GD13991+0750099GF107991999999999999999999MA1100371999999MW1001
0122984400999991986091312004+14133+122983FM-12+0003RPUD V0202701N00101105001CN0250001N9+02561+02481100801ADDAA199003091AG10003AY161061AY221061GF105991021021004501001021KA1240M+03051MD1210021+9999MW1011REMSYN017333   10305 56999
0059703880253151986082401004+56000-134133SAO  +0012CDE  V0202901N002619999999N9999999N9+01001-01931999999ADDAG10999REMAWY021PKWND 007/RM 508V263?EQDQ01+000002VOVAR 
0050389330999991986061709004+37833+068783FM-12+043099999V0200501N00201220001CN0200001N9+03611+01121100001ADDAG12000GF101991011011017501001001MD1810161+9999
0231742300240371986072215003+46433-105867SAO  +0801MLS  V0201205N006252200059N0640005N1+02505+01225101205ADDAG10000GD13995+0750093GF106005999999999999999999MA1101421092135MD1710081+9999MW1001REMAWY004708?EQDN01 00000JPWTH 0QNNE81 0 00399G21U0 99999K21 0 00054L21 0 04000M11 0 27205N21 0 00000Q21 0 10120S21 0 00077V11 0 00800X21 0 12012
0083355420999991986052915004+48617+061267FM-12+011499999V0203301N00601220001CN0200001N9+02681-00251100921ADDAG12000GF100991001001999999001001KA1120M+02841MD1210091+9999REMSYN011333   10284
0097999999999991986072900004+27000-069200FM-13+9999UYDJ V0202601N00201036001CN0200001N9+02901+99999102361ADDAG12000GF106991041051008001011041MD1410001+9999SA1+2809UA1M990009999REMSYN01722223 00280 2//00
0118747320999991986091912004+32850-106100SAO  +1248HMN  V0201501N001512200019N0640001N1+01391+00721101201ADDAA106000091AG10000GD13991+0750093GF107991999001999999001061MA1101731999999MD1310071+9999MW1001REMAWY012307 1006 57?
0047964210999991986032200004+02333+111833FM-12+0007WBGS V0201501N00051045001CN0200001N9+02441+02381101051ADDAA124001091AG10000GF107991031061001501071081
0036013250999991986062500004+60833+005950FM-12+011499999V0202701N00261220001CN0750001N9+01421+01011999999ADDAG12000GF102991021001999999031001
0122719200999991986081016004+57350-107133SAO  +0499WFN  V0201901N000512200019N0240001N1+01601+01001101811ADDAG10999GD12991+0135093GD23991+0840093GF107991999999999999999999MA1101691095831MW1001REMAWY007SC1CI ?EQDQ01+999990APOSP 
0141726145947051986071900004+44200-072567SAO  +0353MPV  V0203201N002612200019N0096001N1+02441+01831101451ADDAA106000091AG10000GD12991+0150099GD22991+0750093GF102991999999999999999999KA1999M+02831MA1101461999999MD1410001+9999MW1051REMAWY007400 83?
0050219210999991986060609004+70683+127400FM-12+003999999V0209991C00001060001CN0500001N9+00151-00591101471ADDAG12000GF105991021051008001031011MD1710141+9999
0171171950999991986010318004+38783+035483SY-MT+1054LTAU V0201401N00101036001CN0080001N1+00401+00081102111ADDAA106000091AG14000AY121061AY221061GA1031+010509059GF106991031091012501051001KA1120M+00801MA1102101999999MD1210171+9999MW1101REMSYN023333   10080 83635 86359MET006NOEIG?
0050249880999991986060806004+60083+142333FM-12+019899999V0209991C00001075001CN0500001N9+01431+00431099891ADDAG12000GF106991041031012501001031MD1310021+9999
0144726700999991986102718004+44517-109017SY-SA+1553COD  V0202501N00211036001EN0450001N1+01721+99999100931ADDAA106000091AG12000GD13991+0360099GD23991+0600099GF106991999999999999999999MA1101321999999MD1010001+9999MW1001REMAWY004000?EQDQ01+028043ATOD  
0078727976242171986111114004+48800-122533SAO  +0048BLI  V0200201N00411002101MN0024001N1+00111+00061102731ADDAG10999GD14991+0021099GF108991999999999999999999MA1102711999999MW1451MW2511
0031163120999991986111106104+40767+016933FM-15+0350LIBV V0209991C00001220001CN0060001N1+00301+00201999999ADDAG12000MA1103011999999MW1101
0123718090999991986062810004+49217-057400SAO  +0022YDF  V0200701N001512200019N0240001N1+00201+00001101781ADDAG10999GD12991+0360099GD23991+0750093GF107991999999999999999999MA1101761101501MW1001REMAWY008AC1CI2 ?EQDQ01+999990APOSP 
040972698024229198606172100C+45600-122600SAO  +0006PDX  V0203005N002650094559N0112005N1+01675+01505101405ADDAA101000895AA299000591AG10007GA1999+003355155GA2999+009455085GA3999+013725065GD12035+0033099GD23025+0093099GD34035+0135099GF108085999081999999999999MA1101421101275MD1210201+9999MW1805REMAWY027RB01/ 22002      ?    18//?EQDN01 02300JPWTH 0QNNE81 0 00204E81 0 00402E81 0 00604G21 0 00031H11 0 17011H11 0 11031H11 0 15045K21 0 00059L21 0 00700M11 0 29905N21 0 02300Q21 0 10140S21 0 00062V11 0 01010X21 0 30005
0100850410999991986080915004-11017-068783SY-MT+0252SLCO V0209991C00001220001CN0050001N1+03001+02301999999ADDAA106000091AG10001AY121031AY221031GA1021+024009039GF102991021001022501031001MA1101191999999MW1041
0091766961999991986100716004+19833-090517SAO  +0009CPE  V0201201N003612200019N0128001N1+02901+02401999999ADDAG10999GD12991+0036099GF102991999999999999999999MA1101661999999MW1001REMAWY010166/10003?
0156766131999991986082305004+20517-103317SAO  +1526GDL  V0209991C000010300019N0080001N1+01701+01501999999ADDAG10999GD12991+0090099GD23991+0300099GD34991+2100099GF108991999999999999999999MA1102171999999MW1631REMAWY045217/R CO30 RLMPGS 2Y3        ?    CDTS/97799?
0084072950999991986042521004+47633+006867FM-12+0423LFSQ V0200801N003119999999N9999999N9+01251+00761100771ADDAA106000091AG14000IA2999+01209MD1710171+9999OA149900881REMSYN017333   3/012 91117
0086038530999991986112210004+51000-002633FM-12+0023EGDY V0202601N00721220001CN0150001N9+00821+00411099711ADDAG12999GA1011+006009059GF101991011051008001001001MD1310051+9999REMSYN011333   81620
035972693024221198610251200C+44117-123217SY-SA+0109EUG  V0201405N00155027435MN0080005N1+01285+01285101935ADDAA101000095AA206000091AG10000AY121061AY221061GA1999+027435045GD14085+0270099GF108085999001999999021999KA1240M+01671KA2120N+01281MA1101901100545MD1510001+9999MW1101MW2455REMSYN017333   10167 20128AWY012500 102/ 55?EQDN01 07000JPWTH 0QNNE81 0 00610G21 0 00090H11 0 21090K21 0 00055L21 0 00500M11 0 29690N21 0 07000Q21 0 10193S21 0 00055V11 0 01010X21 0 14003
0061471400999991986122115004+35983+126700FM-12+003199999V0203401N00511220001CN0150001N9+00111-00501102911ADDAA106000091AG14000GF100991001001999999001001MD1210211+9999
0133711940999991986022409004+47617-057617SAO  +0012WBD  V0200301N01181010501EN0128001N1-00101-00401100061ADDAG10000GD14991+0105099GF108991999999999999999999MA1100031099891MD1710181+9999MW1001OC101651REMAWY011SC10 7018 ?EQDQ01+999990APOSP 
0050335620999991986012609004+49233+028467FM-12+028799999V0202301N00401036001CN0100001N9-00081+99999101081ADDAG12000GF106991061001999999031001MD1210141+9999
0189726221947251986022517003+44933-074850SAO  +0065MSS  V0202905N006252200059N0240005N1-00895-01675101375ADDAG10999GF100005999999999999999999MA1101351100585MW1001EQDN01 00000JPWTH 0QNNE11 0 00099G11U0 99999K11 0 00002L11 0 01500M11 0 29700N11 0 00000Q11 0 10137S11 0 00016V11 0 00000X11 0 29012
0072309110999991986051503004+50733+102833FM-12+117099999V0202501N00201030001CN0500001N9+00381+00201999999ADDAG12002AY161031AY221031GF108991021071008001021999MD1210211+9999MW1211
0108787410999991986120210004+12117-086183FM-15+0053MNMG V0209991C00001220001CN0112001N1+02301+02101101071ADDAG12999GA1011+005409059MA1101021100421REMMET0071AC080?EQDQ01+999990APOSP Q02+999990APOSLPQ03+000000PRSWM2
0154814050999991986100709004+04833-052367SY-MT+0008MOCA V0209991C00001036001CN0100001N1+02261+02231101181ADDAG12000GA1021+005109089GA2041+036009039GF105991021021004501041001MA1101081999999MD1999999-0061MW1001REMSYN023333   59006 82817 84361EQDQ01+000000PRSWM2
0066723921999991986110321004+34567-120667SMARS+0002L96  V0203601N007719999999N9999999N9+99999+99999999999ADDAG10999MW1001SA1+1389REMSYN033PK    WND   17    POINT ARGUELLO?
0072386150999991986032900004+40533+072800FM-12+088899999V0201801N00101036001CN0100001N9+00131-00131103051ADDAG12001AY161061AY221061GF107991021051012501031001MD1510051+9999MW1011
0050303790999991986062109004+56000+119450FM-12+099099999V0203601N00101220001CN0500001N9+02271+00111100631ADDAG12000GF102991001001999999001021MD1710091+9999
0396722805031451986082908003+32650-114617SAO  +0065NYL  V0201205N001052200059N0112005N1+03281+02005100871ADDAG10999GA1999+015245999GA2999+030485999GA3999+076205999GD12015+0150099GD22015+0300099GD32015+0750099GF101995999999999999999999MA1100881999999MW1001EQDN01 29565FPRES 3N02 00000JPWTH 0N03 10087ISLVP 3N04 00091BTMPD 3QNNE41 0 00201E41 0 00201E41 0 00201G41U0 99999H41 0 00050H41 0 00100H41 0 00250K41 0 00068L41 0 00700C41 0 29790M41 3 29565N41 0 00000Q41 3 10087S41 3 00091V41 0 00199X41 0 12002
0138690170999991986021822004+36533-115567SAO  +0972L63  V0200901N004612200019N0320001N1+02171+00831999999ADDAG10999GD12991+0150099GD22991+0360099GD34991+0750093GF108991999999999999999999MA1101351999999MW1001REMAWY027MDT CU N         ?    LAST?
0070167340999991986032015004+36833+021700FM-12+003499999V0201401N00511036001CN0200001N9+01301+00731102081ADDAG12000GF107991021021008001071001MD1610091+9999REMSYN011333   91837
0306711820999991986120112004+53550-064100SY-SA+0435ZUM  V0202701N001512200019N0240001N1-01771-01951102911ADDAA106999929AA224000391AC13C9AG10001AJ100829199999999AY181061AY211061GD12991+0045099GD22991+0360093GD32991+0600093GF102991999999999999999999IA1239KA1240M-00721KA2120N-01771MA1102441097251MD1710091+9999MW1221REMSYN035333   11072 21177 47082 70003 90573AWY028SC1AC1CI1 FROIN TR SC 7009 ?EQDQ01+000003PRSWM2
024472203012844198608240900C+26683-080117SAO  +0006PBI  V0203205N002652200059N0160005N1+02505+02335101595ADDAA101000095AG10000GF100005999999999999999999MA1101591101515MD1710121+9999MW1001REMAWY005712 ?EQDQ01+999990APOSP N01 00000JPWTH 0QNNE81 0 00099G21U0 99999K21 0 00074L21 0 01000M11 0 29975N21 0 00000Q21 0 10159S21 0 00077V11 0 00000X21 0 32005
0086064780999991986092002004+50650+005450FM-12+0178EBLH V0209991C00001220001CN0100001N9+00411+00391103381ADDAG12999GA1011+060009009GF101991001001999999001011MD1710101+9999REMSYN011333   81070
0091765491999991986121712004+22283-097850SAO  +0024TAM  V02099999999999999999N9999999N9+99999+99999999999ADDAG10000MA1102071999999REMAWY038209/20/20 0000/208/F10/975/XXXXXXQ/19?EQDQ01+000002VOVAR 
0143999999999991986071512004+34300-039700FM-13+9999SHIP V0202701N00571090001CN0200001N9+02711+02301102261ADDAG12000AY121061AY221061GF108991011011008001001071MD1810031+9999MW1021SA1+2589UA1M020109999UG1050202909REMSYN02922214 00258 20202 32900 40504
0116467520999991986052322004+22033+120733FM-15+0013RCKW V0200601N007210096019N0112001N1+02401+02001999999ADDAG12999GA1021+003609079GA2061+009609059GA3081+024009049MA1100511999999OC101341REMMET007CIG032?EQDQ01+000000PRSWM2
0057724971999991986072120004+39783-121850SAO  +0072CIC  V0201501N004612200019N0160001N1+99999+99999999999ADDAG10999GF100991999999999999999999MA1100781999999MW1001
0088711450999991986031617294+53867-094667SAOSP+0239WGB  V0203501N003610120019N0096001N1+99999+99999999999ADDAG10999GD12991+0081099GD24991+0120099GF108991999999999999999999MW1711REMAWY007SC2SC8?
035872386023169198601111800C+36083-115167SY-SA+0659LAS  V0201905N002152200059N1200005N1+01335-00445102925ADDAA101000095AA206000091AG10000GA1999+076205005GF100005999001999999001991KA1120M+01351KA2240N+00391MA1102951095115MD1110151+9999MW1001REMSYN017333   10135 20039AWY048CI DSNT NW-N DNS HK E-SE/ 115      ?    1001 39?EQDN01 00000JPWTH 0QNNE81 0 00000G21U0 99999H11 0 32250K21 0 00024L21 0 07500M11 0 28085N21 0 00000Q21 0 10292S21 0 00056V11 0 00000X21 0 19004
0151718840999991986030714004+49300-117633SAO  +0493YCG  V0209991C000010069019N0032001N1+00301+00201100481ADDAG10999GD16991+0001599GD22991+0018099GD33991+0069099GD44991+0120099GF108991999999999999999999MA1100341999999MW1041MW2451MW3611REMAWY013F2SF2CF4SC2 ?
0065103840999991986052000504+52467+013400FM-15+0049EDBB V0201101N00101999991CY0099001N1+01201+00801999999ADDAG11999MA1102401999999REMMET012CAVOK NOSIG?EQDQ01+000000PRSWM2
0070074000999991986101609004+45700-001233FM-12+000799999V0200601N00511001201CN0040001N9+01501+01321102371ADDAG12000GF108991081061001501999999MD1210181+9999REMSYN011333   91836
0081450110999991986121915004+22200+113533FM-12+0059VMMC V0200201N00311220001CN0150001N9+01361+00341102531ADDAA106000091AG14000GF100991001001999999001001MD1410001+0051REMSYN011333   58005
0081316470999991986063003004+49250+135183FM-12+007199999V0200901N00301220001CN0200001N9+02651+00401100831ADDAG12000GF102991001001999999001021MD1110031+9999OA149901001REMSYN011555   91110
0131160840999991986072918004+44917+009717SY-MT+0138LIMS V0209991C00001220001CN0040001N1+03101+02191101511ADDAA106000091AG10000AY111061AY211061GF100991001001999999001001KA1120M+03221MA1101591999999MD1710101+9999MW1101REMSYN011333   10322
