0072294710999991987051218004+56917+093133FM-12+015499999V0202301N00301004201CN0036001N9+01191+01111101311ADDAG12003AY181061AY221061GF108991081091004501999999MD1810151+9999MW1811
0078072990999991987112016134+47600+007517FM-15+0271LFSB V0202601N00461015001CN0112001N1+00601+00301999999ADDAG12999GA1011+009009089GA2071+015009059MA1102101999999MW1211REMMET006NOSIG?
0105710720999991987091123004+76233-119317SAO  +0012YMD  V0201601N001512200019N0480001N1-00201-00501101451ADDAG10999GD12991+0045099GF102991999999999999999999MA1101421101281MW1001REMAWY005SF1 ?EQDQ01+999990APOSP 
0076474880999991987092722004+41767+140817FM-15+0036RJCH V0200201N00261090001CN0112001N1+00801+00401999999ADDAG12999GA1011+015009059GA2061+999999009MA1102341999999EQDQ01+000000PRSWM2
0173304060999991987100200004+55617+102317FM-12+041199999V0202501N00201002101CN0200001N9+00231+00181100481ADDAA112004091AA224004091AG10001AY181061AY261061GA1041+002109079GF108991051071002501011999KA1120N+00131MD1710061+9999MW1211REMSYN041333   20013 60042 84707 555   10003 70041
0009723087937351987102603004+37133-076617SAO  +0004FAF  V02099999999992200019N9999999N9+99999+99999999999ADDMW1001
0154829000999991987040800004-08050-034917FM-12+000799999V0209991C00001220001CN0020001N9+02511+02401101481ADDAA106000491AA299000591AG10999AY161061AY221061GF104991041021008001001001KA1240M+03041MA1999999101391MD1999999+0051MW1021REMSYN023333   10304 58005 69941
0069289840999991987060400004+52950+070217FM-12+038499999V0209999999999220001CN0500001N9+00901+99999101741ADDAG12000GF108991001001999999001011MD1710051+9999EQDQ01+010141APOSP 
0065637400999991987103120004-01317+036917FM-15+1624HKNA V0200501N00261999991CY0099001N1+01601+01101999999ADDAG10999MA1102201999999REMMET012CAVOK NOSIG?EQDQ01+000000PRSWM2
0105021280999991987040521004+65017+017683FM-12+0281ESPD V0202701N00311220001CN0700001N9-00051-00681100621ADDAG12000GA1021+015009059GF102991021051017501999001MD1710131+9999REMSYN011333   82650EQDQ01    003SCOMCG
0133314420999991987123112004+51983+127650FM-12+027699999V0203201N00101075001CN0200001N9-03141-03361102681ADDAA112000891AA299001091AG10001AY171061AY271061GF108991001001999999001021KA1120M-02961MD1210131+9999MW1711REMSYN017333   11296 69982
0059170820999991987082710004+40850+035583FM-15+0535LTAP V0203601N006219999999N0112001N1+02601+01401999999ADDAG12999MA1101901999999REMMET006NOSIG?EQDQ01+000000PRSWM2
0050305650999991987071306004+54450+116517FM-12+068699999V0203001N00401220001CN0500001N9+02531+00341100071ADDAG12000GF103991021021012501061001MD1710081+9999
0108535930999991987030918004+39833+114567FM-12+091099999V0200201N00301036001CN0120001N9-00371-00451102171ADDAA106002091AG10002AY171061GF108991081001999999021999KA1240M+00581MD1210051+9999MW1711REMSYN011333   10058
0126717350999991987042113004+47700-079850SAO  +0243YXR  V0203101N00821003301EN0240001N1+00701+00401101801ADDAG10999GD14991+0033099GF108991999999999999999999MA1101801098901MW1801OC101541REMAWY018CU10 VSBY LWR NW ?EQDQ01+999990APOSP 
0053994320999991987033014004+43883-076467FM-12+0076GLLN V0201701N011819999999N9999999N9+00751+99999100791ADDAG12999OA139901241REMSYN023333   92124 555   91400
0056549380999991987102803004+35050+118350FM-12+008699999V0201801N00301036001CN0050001N9+01801+01391101891ADDAG12000GF107991071001999999031999MD1710091+9999MW1101
0072151500999991987102509004+46583+026983FM-12+0190LRBC V0201601N00701220001CN0030001N9+00941+00681103121ADDAG12000AY111031AY211031GF105991001001999999001011MD1810011+9999MW1101
0108409040999991987060806004+37117+070517FM-12+1200OAFZ V0203601N00201030001CN0070001N9+02581+00771999999ADDAG12000AY121061AY221061GA1051+030009039GF105991051001999999031001MD1810021+9999MW1061REMSYN011333   85360
0097999999999991987030506004+57600+004700FM-13+9999UVNH V0201601N00401009001CN0200001N9-00091+99999102741ADDAG12000GF108991071081004501011999MD1210151+9999SA1+0109UA1M030109999REMSYN01722283 00010 20302
0159783210999991987021606004+21717-082767FM-12+003299999V0201801N00401220001CN0010001N9+02381+02251100821ADDAA106000091AG14000GA1011+999999089GF101991011021999999001001IA1019KA1240M+02841KA2240N+01941MD1010001-0301REMSYN041333   10284 20194 30/// 56900 59030 818//
0050402550999991987092509004+32550+035850FM-12+0619OJBD V0203501N00411220001CN0100001N9+02481+01901101351ADDAG12000GF100991001001999999001001MD1210061+9999
0094282250999991987061318004+58017+056300FM-12+016199999V0202701N00301220001CN0040001N9+01611+00761101701ADDAA106000091AG14000GF102991001001999999001011KA1120M+02171MD1410001+9999REMSYN011333   10217
0087067000999991987090103004+46250+006133FM-12+0416LSGG V0202601N00051220001CN0100001N9+01691+01561101601ADDAG12000AY101031AY201031GF100991001001999999001001MA1999999096791MD1710021+9999MW1101
0074724838999991987020416004+39100-121567SAO  +0019MYV  V0209991C000012200019N0560001N1+00221+00221102271ADDAG10999GF100991999999999999999999MA1102271999999MW1001REMAWY008F BNK S?
0081250770999991987031715004+69167+178667FM-12+999999999V0201201N004019999999N0200001N9-02861-03161102911ADDAG12000GF106991021001999999031011MD1210031+9999OA149900901REMSYN011555   91109
0276727470149181987111604003+48567-093383SAO  +0359INL  V0201905N00465002745EN0040005N1+00615+00565101265ADDAG10999GD14995+0027099GF108085999999999999999999MA1101151096905MW1455MW2515MW3615REMAWY008CIG RGD?EQDQ01+999990APOSP N01 02033JPWTH 0N02 07000JPWTH 0QNNE81 0 00699G21 0 00009K21 0 00042L21 0 00250M11 0 28615N21 0 02033N21 0 07000Q21 0 10126S21 0 00043V11 0 01010X21 0 19009
0055701719999991987051114004+66883-157150SAO  +0061SHG  V0203101N000519999999N9999999N9-00051-00321999999ADDAG10999REMAWY017PKWND 004/RM 542?EQDQ01+000002VOVAR 
0129717020999991987101719004+46433-063833SAO  +0024YSU  V0201601N004612200019N0240001N1+01301+00001102631ADDAG10999GD12991+0300099GD22991+0750093GF102991999999999999999999MA1102641102361MW1001REMAWY014AC1CI1 AC TR ?EQDQ01+999990APOSP 
0060467700999991987100401004+24267+120617FM-15+0203RCMQ V0200101N00211220001CN0112001N1+02501+02001999999ADDAG11999GA1021+003609079MA1101631999999EQDQ01+000000PRSWM2
0154747945999991987030621004+28617-080683SAO  +0003X68  V0200801N006210135019N0160001N1+02001+01171102131ADDAG10000GD12991+0090099GD23991+0135099GD34991+0750099GF108991999051999999001071MA1102131999999MD1810191+9999MW1001OC100881REMAWY021819        ?    1507?
0108722057128541987022423004+28783-081250SAO  +0002SFB  V0200901N00621009001EN0096001N1+01671+01281999999ADDAG10999GD13991+0090099GD23991+0300099GD34991+0750099GF108991999999999999999999MA1101901999999MW1451MW2611
0050282780999991987073100004+57950+069033FM-12+010099999V0202701N00201030001CN0100001N9+01441+01371101621ADDAG12000GF107991071001999999051001MD1710011+9999
0175764230999991987031200004+24033-104667FM-12+187299999V0201301N00101220001CN0500001N9+02101+00881101131ADDAA106000091AA224000091AG14000GF103991001001999999001011IA1019KA1120M+02201KA2180N+00171MA1999999081361MD1710141+0321REMSYN047333   10220 20017 30/// 56//6 58032 70000 91304
0118106850999991987122705004+50317+011883FM-12+0568EDQM V0202401N00721002101CN0100001N9+00371+00281103111ADDAG12999GA1071+002109079GF108991071061002501999999MA1999999096191MD1710011+9999OA149901541REMSYN017333   87707 91130
0092727915999991987032200004+46283-124050SMARS+005582S  V0201601N00511220001CN0185001N9+01491+99999100711ADDAG10999GF101991999999999999999999MW1001SA1+1119UG1080189999REMSYN021CAPE  DISAPPOINTMENT?
0098619680999991987103003004-11583+047283FM-12+000499999V0200601N00411220001CN0250001N9+02541+02251101441ADDAG10999GA1011+006009089GF103991021081008001031001MD1999999+0071REMSYN023333   58007 81820 91838
0097999999999991987102118004+70300+032400FM-13+9999UZJG V0200901N00701002101CN0200001N9+00601+99999103041ADDAG12000GF106991061011002501001001MD1210351+9999SA1+0709UA1M990159999REMSYN01722211 00070 2//03
0096526330999991987101900004+38800+098417FM-12+060999999V0209991C00001090001CN0300001N9-01361-02231999999ADDAA106000091AG14000GF107991001001999999001021MA1999999067661MD1710031-0401REMSYN011333   05405
0050402550999991987043003004+32550+035850FM-12+0619OJBD V0209991C00001220001CN0100001N9+01481+00021101231ADDAG12000GF100991001001999999001001MD1210031+9999
0047483000999991987082109004+19300+097833FM-12+0269VTCH V0209991C00001045001CN0150001N9+03311+02521100141ADDAA106000091AG14000GF105991031091004501061031
0094217010999991987080712004+72817+113267FM-12+002599999V0200701N00401004201CN0100001N9+00401+00331101651ADDAA106000091AG14000GF108991081061004501999999KA1120M+00761MD1710111+9999REMSYN011333   10076
0054745201231761987062912005+38433-113017SAO  +1533MLF  V02099999999999999999N999999999+01115+99999101325ADDMA1999999084665QNNM11 0 25000Q11 0 10132S11 0 00052
0100999999999991987061018004-13000+137000FM-13+9999SHIP V0201501N00311220001CN0500001N9+02651+02391101391ADDAG10999AY111061AY201061GF102991011001004501041061MD1810071+9999MW1021SA1+2689REMSYN01122242 00268
0119685360999991987082606004-30650+024017FM-12+120099999V0209991C00001220001CN0350001N9+00341+00031999999ADDAA106000091AG10999GF100991001001999999001001KA1240M+01601KA2120N+00121MD1210101+9999REMSYN023333   20012 555   10160
0125164200999991987121112174+38200+015550FM-16+0051LICF V0203301N00621009001CN0112001N1+99999+99999999999ADDAG11000GA1021+006009099GA2051+009009059REMMET055BKN QUK2 QUL1 NW MON CLD CIME      ?     VIS MAR 10 KM?EQDQ01+000000PRSWM2
0080471270432161987111523394+36967+127033FM-16+0016RKSG V0209991C000010240019N0032001N1+99999+99999999999ADDAG12999GA1021+018009059GA2061+024009039GA3041+036009049MW1101REMMET007CIG080?
0065308290999991987122318004+51100+106650FM-12+054299999V0209991C00001220001CN0500001N9+99999+99999102801ADDAG12000GF102991001001999999001011MA1999999095411MD1810021+9999
0095703400255061987022117004+59750-154917SAO  +0049ILI  V0201501N00361003001EN0064001N1+00061-00101099641ADDAG10999GD14991+0030099GF108991999999999999999999MA1099631999999MW1451MW2711REMAWY008SB28RE4?
0145725287047241987053100004+43100-078950SAO  +0180IAG  V0202301N005112200019N0064001N1+02561+01721101391ADDAA106000091AG10000GD12991+0360099GD22991+0600099GD33991+0750093GF107991999001999999071081MA1101421999999MD1710031+9999MW1051REMAWY009703 1078?
0058085450999991987031703304+41233-008683FM-15+0073LPPR V0200801N00571999991CY0099001N1+00901+00001999999ADDAG12999MA1101391999999REMMET005CAVOKEQDQ01+000000PRSWM2
012972509594746198704100900C+42267-071867SAO  +0300ORH  V0202905N005759999999N9999999N9+00505-00225999999ADDAA101000095AG10000MA1100611096975MD1010001+9999REMAWY004000?EQDQ01+000002VOVAR QNNK11 0 00028M11 0 28635S11 0 00041X11 0 29011
0250084490130251987080203003+36650-006350SY-SA+0027LERT V0200905N00775220005CN0112005N9+02615+01225101165ADDAG12000GA1999+000005999GD10005+9999999GF100995001001999999001991MA1999999100815MD1710091+9999EQDN01 00000JPWTH 0QNNE41 0 00000G41U0 99999H41 0 00000K41 0 00054L41 0 00700C41 0 29870M41D0 29770N41 0 00000Q41D0 10116S41 0 00079V41 0 00099X41 0 09015
0119109620999991987022600004+47800+011017FM-12+098699999V0202301N00571069001CN0250001N9-00051-00231999999ADDAA106000091AG14000GA1031+030009039GA2051+069009029GF107991031001999999031081MD1210151+9999REMSYN017333   83360 85273
0143999999999991987102300004+44700+177600FM-13+9999JGPN V0202701N01801220001CN0100001N9+01101+00821100241ADDAG11000AY101061AY201061GF104991041031004501001001MD1410001+9999MW1021SA1+1209UA1M060409999UG1070352809REMSYN02922225 00120 20608 328// 40707
0060782550999991987092620004+21417-077850FM-15+0118MUCM V0202301N00621220001CN0112001N1+03401+02201999999ADDAG12999GA1021+007509089MA1101801999999EQDQ01+000000PRSWM2
0068025500999991987020821204+57767+014083FM-15+0232ESGJ V0202801N00261999991CY0099001N1-00401-01001999999ADDAG12000MA1100311999999REMMET015CAVOK 19450170?EQDQ01+000000PRSWM2
0072726357999991987110303004+42233-085550SAO  +0266AZO  V0202001N00511030001EN0160001N1+01721+01061999999ADDAG10000GD14991+0300099GF108991999999999999999999MA1101961999999MW1001
0100483000999991987062100004+19300+097833FM-12+0269VTCH V0209991C00001004201CN0100001N9+02571+02451100651ADDAA124003091AG10000GF108991071061004501071999KA1120N+02441MD1999999+0351REMSYN017333   20244 58035
0072157300999991987071721004+41650+025367FM-12+033199999V0209991C00001220001CN0100001N9+02201+01541101071ADDAG12000AY101031AY201031GF100991001001999999001001MD1210021+9999MW1051
0123105320999991987123114004+50583+008700FM-12+019599999V0201401N00511003601CN0070001N9+00861+00681100951ADDAG12999AY121021AY221021GA1071+003609059GF107991071051004501999999MA1999999098611MD1710171+9999MW1101REMSYN011333   87612
0057726227947901987081116004+44000-076017SAO  +0099ART  V0200201N004612200019N0240001N1+01941+00831102041ADDAG10999GF100991999999999999999999MA1102031999999MW1001
0047486650999991987011318004+02267+102250FM-12+0011WMKM V0200101N00101045001CN0140001N9+02321+02291101291ADDAA106000091AG14000GF108991021051008001051021
0100999999999991987011912004-11500+138900FM-13+9999SHIP V0202901N01641004201CN0010001N9+02661+02551100371ADDAG10999AY181061AY281061GF108991081091004501999999MD1110061+9999MW1801SA1+2959REMSYN01122200 00295
0072727344999991987050614004+46250-084467SAO  +0244CIU  V0202501N004112200019N0320001N1+01391+00391999999ADDAG10999GD12991+0600093GF102991999999999999999999MA1101631999999MW1001
0413723085137501987071213003+36950-076283SAO  +0010NGU  V0203405N001552200059N0048005N1+02895+02445101395ADDAG10999GA1999+000005999GA2999+012195999GA3999+030485999GA4999+076205999GD16025+0001599GD22025+0120099GD32025+0300099GD42025+0750099GF102995999999999999999999MA1101391101345MW1055REMAWY003H3?EQDN01 08100JPWTH 0QNNE41 0 00803E41 0 00203E41 0 00203E41 0 00203G41U0 99999H41 0 00000H41 0 00040H41 0 00100H41 0 00250K41 0 00076L41 0 00300C41 0 29940M41D0 29925N41 0 08100Q41 0 10139S41 0 00084V41 0 00399X41 0 34003
0105714420999991987091505004+51083-097550SAO  +0253WSZ  V0203501N003119999999N0144001N1+01201+01101101281ADDAG10999MA1999999098241MD1210141+9999MW1001REMAWY0322014       ?    26MM(0000,0000)?EQDQ01+999990APOSP 
0097999999999991987072712004+35400-055600FM-13+9999UHCC V0202001N00701220001CN9999999N9+02571+99999101991ADDAG12000GF102991021021001501061001MD1610051+9999SA1+2609UA1M990009999REMSYN01722213 00260 2//00
0097999999999991987040106004+71200+024200FM-13+9999UUQG V0201801N01201007501CN0200001N9+00101+99999101491ADDAG12000GF108991081051008001999999MD1710191+9999SA1+0109UA1M060209999REMSYN01722263 00010 20604
0057725626240911987040903004+40533-101633SAO  +1000IML  V0201501N006212200019N0192001N1+01111+00171999999ADDAG10000GF100991999999999999999999MA1101121999999MW1001
0058025710999991987052713204+58583+016250FM-15+0008ESSP V0201101N00821999991CY0099001N1+01101+00201999999ADDAG12999MA1101801999999REMMET005CAVOKEQDQ01+000000PRSWM2
0024038030999991987070810004+49917-006300FM-12+0031EGHE V0200601N006219999999N9999999N9+01681+01241102501ADDAG12999MD1210081+9999
0354722585939011987102606003+32733-096967SAO  +0150NBE  V0201905N006252200059N0096005N1+02225+01895101075ADDAA106000091AG10000GA1999+030485999GA2999+076205999GD12025+0300099GD22025+0750099GF102995999001999999071991KA1999M+02721MA1101151099375MD1610301+9999MW1055REMAWY012630 1071 81?EQDN01 08100JPWTH 0QNNE41 0 00203E41 0 00203G41U0 99999H41 0 00100H41 0 00250K41 0 00066L41 0 00600C41 0 29870M41D0 29345N41 0 08100Q41 0 10107S41 0 00072V41 0 00399X41 0 19012
0140711010999991987101417004+53250-131817SAO  +0006YZP  V0202601N006212200019N0240001N1+00901+00701102041ADDAG10999GD12991+0105099GD22991+0150099GD32991+0240099GF102991999999999999999999MA1102031101961MW1001REMAWY010SC1SC3AC1?EQDQ01+999990APOSP 
0079109210999991987102110454+47983+008900FM-15+0794EDPH V0201901N00211009001CN0060001N1+01201+00801999999ADDAG12999GA1011+006009089GA2051+009009059GA3061+027009039MA1101691999999MW1051
0292725306148551987010215003+42083-087833SAO  +0197NBU  V0203505N00105009755MN0080005N1+00115-00065101475ADDAG10003GA1999+009755999GD14085+0096099GF108995999061999999999999MA1101391099025MD1310141+9999MW1455MW2715REMAWY021314 16// WRLSRPSR 10?EQDN01 04070JPWTH 0QNNE41 0 00610G41 0 00032H41 0 00032K41 0 00031L41 0 00500C41 0 29940M41D0 29240N41 0 04070Q41 0 10147S41 0 00034V41 0 01099X41 0 35002
0047103060999991987042304454+52300+007383FM-15+0049EDCE V0200801N00101220001CN0050001N1+00401+00201999999ADDAG12999GA1021+075009009MA1102911999999MW1101
0116785145999991987020200004+18250-067150SAO  +0009TJMZ V0201501N001510090019N0128001N1+02391+02001999999ADDAA106999999AG10045GD14991+0090099GF108991999999999999999999MA1101661999999MW1631REMAWY005RB50?EQDQ01  00002PRCP06
0309725097147901987050414003+42150-070933SAO  +0048NZW  V0200205N003650243859N0112005N1+00835+00505102705ADDAG10999GA1999+012195999GA2999+024385999GD12045+0120099GD24085+0240099GF108995999999999999999999MA1102711102105MW1001REMAWY005WR//?EQDN01 00000JPWTH 0QNNE41 0 00205E41 0 00610G41 0 00080H41 0 00040H41 0 00080K41 0 00041L41 0 00700C41 0 30330M41D0 30150N41 0 00000Q41 0 10270S41 0 00047V41 0 01099X41 0 02007
0072726225047421987050816004+44650-073467SAO  +0072PBG  V0201401N007712200019N0480001N1+01441+00111101551ADDAG10999GD12991+0150099GF102991999999999999999999MA1101521999999MW1001
0089101220999991987100619244+53533+007883FM-16+0009EDNJ V0202701N00931014401CN0060001N1+99999+99999999999ADDAG12999GA1021+003009079GA2051+014409059GA3071+030009039MW1631REMMET016WHT FCST CANCEL?
0183072570999991987071218004+47050+002650SY-MT+0179LFOA V0203001N00311220001CN0250001N1+02621+01421101661ADDAA106000091AG14000GA1011+015009059GF101991011041017501999001KA1999M+02731MA1101691999999MD1610061+9999MW1001REMSYN017333   10273 81650MET005CAVOKEQDQ01+000000PRSWM2Q02    003SCOMCG
0058151790999991987110722004+00000+999999FM-12+999999999V0209991C00001007501CN0040001N9+00451+99999999999ADDAG12999AY121011AY221011GF108991081061008001999999MW1101
0172710950999991987080721004+72667-078000SAO  +0057YIO  V0200501N005710300019N0480001N1+01101-00101100711ADDAG10000GD12991+0105099GD23991+0300099GD33991+0630099GF107991999999999999999999MA1100681100001MD1810041+9999MW1001REMAWY028SC3AC4CI2        ?    8004 ?EQDQ01+999990APOSP 
0152112040999991987070815004+46833+012800FM-12+066599999V0201101N00671075001CN0050001N9+02581+01471999999ADDAG11000AY111031AY211031GA1011+018009099GA2021+018009089GA3041+075009029GF106991021091017501061081MD1610171+9999MW1051REMSYN023333   81956 82856 84275
0097011520999991987100822504+67267+014367FM-15+0013ENBO V0201301N00881024001CN0112001N1+01201+00501999999ADDAG12001GA1021+012009059GA2051+024009039MA1098921999999REMMET012PAST MAX 28?EQDQ01+000000PRSWM2
0070360920999991987061518004+52150+093917FM-12+086299999V0209991C00001220001CN0500001N9+00731+00131101721ADDAG12000GF104991041091008001001001MD1210051+9999REMSYN011555   95990
025072537094847198703211700C+42233-083333SAO  +0193DTW  V0200805N005252200059N0240005N1+00895-00285101815ADDAA101000095AG10999GD12995+0105099GF101015999999999999999999MA1101761099345MW1001REMAWY010WND 05V11?EQDQ01+999990APOSP N01 00000JPWTH 0QNNE11 0 00299G11U0 99999K11 0 00027L11 0 01500M11 0 29335N11 0 00000Q11 0 10181S11 0 00048V11 0 00101X11 0 08010
0060477380999991987032923004+33117+139783FM-15+0095RJTH V0200601N00211006301CN0112001N1+01501+01101999999ADDAG12001GA1071+006309059MA1101901999999EQDQ01+000000PRSWM2
0030719490999991987022015004+62217-133367SAO  +0717WUM  V0201101N002619999999N0144001N1-00901-01301101731ADDAG10000MD1810061+9999MW1001
0108036720999991987092823004+51550-000417FM-12+0040EGWU V0203401N00101015001CN0080001N9+00811+00621103011ADDAG12999AY121051AY221051GA1071+015009059GF107991071051017501999999MD1210031+9999MW1051REMSYN011333   87650
0061403400999991987032900004+29633+035017FM-12+0051OJAQ V0203601N00411220001CN0100001N9+01261+00501101071ADDAA106000091AG14000GF100991001001999999001001MD1410001+9999
0050040970999991987051000004+65267-013583FM-12+000999999V0203401N00411220001CN0550001N9+00011-00901101491ADDAG12000GF101991011021012501001001MD1710031+9999
0098358840999991987082303004+46050+070183FM-12+032599999V0209991C00001220001CN0200001N9+01871+99999999999ADDAA106000091AA224000091AG14000GF100991001001999999001001MD1310101+9999REMSYN017555   20158 70000
0057725847999991987011804004+38900-120000SAO  +1912TVL  V0209991C000012200019N0240001N1-00551-01211999999ADDAG10999GF100991999999999999999999MA1102611999999MW1001
0100960750999991987031615004+01500+097633FM-12+000699999V0209991C00001105001CN0090001N9+02391+02341101191ADDAG12012AY191031AY221031GA1021+005109099GF105991021091004501011011MW1291REMSYN017333   56000 82917
0145745940137051987021706004+38817-076867SAO  +0086KADW V0200101N003610138019N0112001N1-00211-01051101721ADDAA106000091AG10000GD12991+0066099GD23991+0138099GD34991+0240099GF108991999051999999071999MA1101661999999MD1610101+9999MW1001REMAWY009610 157/?
0056536980999991987111103004+38033+114417FM-12+008199999V0203601N00101036001CN0090001N9+01101+00651102281ADDAG12000GF108991081001999999021999MD1210081+9999MW1101
0100724297938121987011817004+39100-084433SAO  +0149LUK  V0203601N00411002701EN0048001N1+00281+00221101381ADDAG10999GD14991+0027099GF108991999999999999999999MA1101351999999MW1451MW2611REMAWY013CIG RGD RB30?
0166917620999991987010400004-13800-171783FM-12+0002NSAP V0203501N00051081001CN0500001N9+02981+02411100701ADDAA106000091AG10999AY121061AY221061GA1011+006609089GA2071+081009009GF107991011011008001001041KA1240N+02301MD1810111+9999MW1011REMSYN029333   20230 567/9 81822 87077
0093643900999991987122510004-03317+029317FM-15+0783HBBA V0202001N01131030001CN0112001N1+02601+02101999999ADDAG10999GA1011+006009079GA2031+009009089GA3071+030009039REMMET0071014,7?EQDQ01+000000PRSWM2
0105714360999991987072120004+44383-079783SAO  +0295WCU  V0203001N002619999999N0144001N1+02801+02101101931ADDAG10999MA1999999098521MD1010001+9999MW1001REMAWY0320000       ?    70MM(0000,0000)?EQDQ01+999990APOSP 
0072369820999991987083115004+41917+078233FM-12+361499999V0200301N00101007501CN0500001N9+00221+00121999999ADDAG12002AY181031AY221031GF108991081091008001999999MD1310111+9999MW1271
0255724925232401987022315003+37400-121133SAO  +0050NRC  V02099999999992200059N0112005N1+00675-00115100435ADDAG10000GA1999+012195999GD12015+0120099GF101995999051999999001991MA1100441099925MW1001REMAWY015/// 1500 FIRST?EQDN01 00000JPWTH 0QNNE41 0 00201G41U0 99999H41 0 00040K41 0 00030L41 0 00700C41 0 29660M41D0 29505N41 0 00000Q41 0 10043S41 0 00044V41 0 00199
0024032300999991987050523004+55283-002283FM-12+020799999V0203101N004119999999N9999999N9+00751+00451103341ADDAG12999MD1210041+9999
0138725374999991987080912004+42217-083750SAO  +0256ARB  V0202401N003610012019N0008001N1+99999+99999999999ADDAA106999999AG10036GD16991+0001599GD23991+0012099GD34991+0060099GF108991999999999999999999MA1100781999999MW1451MW2631EQDQ01  00002PRCP06
0035033840999991987112118004+53867-000433FM-12+000699999V0202701N006219999999N9999999N9+00831+00541101741ADDAA106000091AG14000MD1710171+9999
0087722026128261987051710004+25483-080383SAO  +0002HST  V0200901N002612200019N0112001N1+02501+01891101601ADDAG10999GD12991+0060099GD22991+0120099GF102991999999999999999999MA1101591999999MW1001
0086032400999991987121007004+55417-001600FM-12+0023EGQM V0202901N00411012001CN0300001N9+00371-00031102461ADDAG12999GA1051+012009059GF105991051051012501001001MD1810101+9999REMSYN011333   85640
0075011120999991987100600504+65467+012217FM-15+0009ENBN V0201101N00411220001CN0112001N1+01101+00401999999ADDAG11999GA1031+012009059MA1100311999999REMMET006PM 18?EQDQ01+000000PRSWM2
0075712643999991987112921364+43867-079367SAOSP+0198YKZ  V0201001N00261000301WN0008001N1+99999+99999999999ADDAG10001GD15991+0003099GF109991999999999999999999MW1451MW2511REMAWY003F10
0058060340999991987021709504+57500+010233FM-15+0028EKSN V0200301N00411999991CY0099001N1-00201-00601999999ADDAG12999MA1101291999999REMMET005CAVOKEQDQ01+000000PRSWM2
0080725098999991987112122004+42183-071183SAO  +0015OWD  V0203301N00621015001EN0128001N1-00711+99999999999ADDAG10999GD14991+0150099GF108991999999999999999999MA1100341999999MW1001OC101031
0066714080999991987073006004+47367-055800SAO  +0035WZN  V02099999999999999999N0112001N1+01501+99999101791ADDAA106000091AG10000MA1999999101371REMAWY0210000/-/     M000 6MMM
0137999999999991987062003004+07300-080000FM-13+9999DHWL V0202201N00461004201CN0200001N9+02801+02641100921ADDAG12001AY121031AY221031GF105991051071004501021999MD1010041+9999MW1131SA1+2949UA1M020059999UG1999992109REMSYN02322253 00294 20201 321//
0072724065937331987010520004+39083-076767SAO  +0046FME  V0200101N004112200019N0160001N1+00441-00711102661ADDAG10999GD12991+0750099GF102991999999999999999999MA1102681999999MW1001
0101164500999991987033019184+37567+014283FM-16+0965LICE V0202801N00411001501CN0112001N1+99999+99999999999ADDAG12999GA1031+001209089GA2051+001509059MW1271REMMET044BKN MON GEN INC NC VAL NIL         ?     NC?
0103435550999991987032518004+04200+073533FM-12+0002VRMM V0200701N00361220001CN0300001N9+02881+02361101231ADDAA106000091AG14000GA1021+006009089GF102991021021008001001001MD1999999+0201REMSYN017333   58020 82820
0122673410999991987100512004-25917+032567SY-MT+0044FQMA V0203501N00401220001CN0300001N1+02601+01491102181ADDAA106000091AG10999GF100991001001999999001001MA1102101999999MD1710281+9999MW1001REMMET012CAVOK NOSIG?EQDQ01+000000PRSWM2
0137999999999991987070106004+72100+048600FM-13+9999SHIP V0201501N00701004201CN0100001N9+00701+99999100571ADDAG12000AY151061AY251061GF108991081061004501001001MD1710061+9999MW1501SA1+0209UA1M050159999REMSYN03522252 00020 20503 30000 40000 50000
0143999999999991987081405004+39600-148400FM-13+9999CBTL V0200601N00721001201CN0040001N9+01841+01701103041ADDAG12999AY121999AY221999GF108991081091001501001001MD1610031+9999MW1151SA1+2009UA1M050109999UG1060150909REMSYN02922223 00200 20502 309// 40603
0116477840999991987031400004+34150+131450FM-12+001899999V0209991C000019999999N0030001N9+01071+01011100781ADDAA199003091AG10004AY161061AY221061GF108991071071999999021999KA1120N+00991MD1010031+9999MW1611REMSYN011333   20099
0115723340138931987061920254+35050-090000SAOSP+0087MEM  V0202101N00311001801EN0064001N1+99999+99999999999ADDAG10999GD13991+0018099GD24991+0075099GF108991999999999999999999MA1101291999999MW1451MW2801REMAWY013TE25 MOVD NE?
0122678770999991987092306004-18167+031500FM-12+164699999V0200301N00261220001CN0300001N9+01901+00861999999ADDAA106000091AG10999GA1021+999999029GF102991001001999999001081KA1120N+01061MD1999999-0221REMSYN023333   20106 59022 82299
0083804150999991987122502004+10600-066983FM-15+0048SVMI V0200201N00101220001CN0112001N1+02501+02401999999ADDAG11999GA1021+003009079MA1101291999999REMMET0141005.5 1010.5?EQDQ01+000000PRSWM2
0061478030999991987102200164+33883+130650FM-16+0033RJFA V0201701N00261220001CN0112001N1+99999+99999999999ADDAG12000GA1011+009009089GA2041+033009039EQDQ01+000000PRSWM2
0075154500999991987041306454+44233+023867FM-15+0195LRCV V0202901N00311003001CN0040001N1+00201+00201999999ADDAG12001GA1061+003009079GA2081+024009049MA1101391999999MW1211REMMET003BR?
021672255012912198701051100C+28850-096917SAO  +0032VCT  V0203305N002152200059N0160005N1+00115+00065102405ADDAA101000095AG10999GF100005999999999999999999MA1102401101985MW1001EQDQ01+999990APOSP N01 00000JPWTH 0QNNE81 0 00099G21U0 99999K21 0 00033L21 0 01000M11 0 30115N21 0 00000Q21 0 10240S21 0 00034V11 0 00000X21 0 33004
0050304930999991987070815004+55967+124883FM-12+086499999V0202401N00201012001CN0500001N9+00851+00811101171ADDAG12000GF108991051051012501001011MD1010001+9999
0087994220999991987072312004+27083-082450FM-12+0002VENF V0201001N002619999999N9999999N9+02381+99999101911ADDAG12000MD1210121+9999OA139900411SA1+2959REMSYN035222// 00295 333   92108 555   91225
0122672170999991987070206004-13283+035250FM-12+136599999V0201501N00401220001CN0250001N9+01151+01041999999ADDAA106000091AG10999AY101061AY201061GF104991041021008001001001KA1120N+00741MD1999999+0071MW1101REMSYN017333   20074 58007
0024100630999991987040609004+54500+011217FM-12+000399999V0202701N006219999999N0018001N9+00441+00371100931ADDAG12000MD1210151+9999
0144106370999991987082305004+50033+008567FM-12+0111EDDF V0202601N00261021001CN0050001N9+01931+01841100941ADDAG12999AY181999AY221999GA1021+012009099GA2051+021009059GA3051+030009039GF107991061091012501071999MW1451MW2801REMSYN023333   82940 85657 85360
0108108750999991987011710004+48250+012533FM-12+0402EDMY V0209991C00001002401CN0025001N9-00401-00451103221ADDAG12999AY151011AY251011GA1081+002409079GF108991081061002501999999MD1110171+9999MW1561REMSYN011333   88708
0072062680999991987020108004+53533+005433FM-12+000299999V0201601N00361220001CN0050001N9-00751-01091102361ADDAG12999AY101021AY201021GF100991001001999999001001MD1610021+9999MW1101
0071161460999991987011214154+44467+012283FM-16+0006LIVM V0203201N00311002401CN0040001N1+99999+99999999999ADDAG12999GA1081+002409079MW1701REMMET030OVC QUK4 QUL2 N E VIS MAR 4KM?
0088010010999991987042615004+70933-008667FM-12+0009ENJA V0201901N00411000601CN0010001N9+00041+00001099011ADDAG12000AY151031AY241031GA1091+999999999GF109991091999999999999999MD1710201+9999MW1501
0050309670999991987101909004+49900+115750FM-12+062399999V0203601N00601007501CN0500001N9-00111-01371101631ADDAG12000GF106991061091008001001001MD1610011+9999
0072722555129351987010217004+28717-096250SAO  +0005PSX  V0200801N00621012001EN0112001N1+01671+01001102131ADDAG10999GD13991+0120099GF107991999999999999999999MA1102131999999MW1001
0062066700999991987021109204+47483+008533FM-15+0432LSZH V0209991C00001002101CN0050001N1+00301+00301999999ADDAG12000GA1081+002109079MA1099591999999MW1101REMMET006NOSIG?
0104992820999991987122223004+57100-177700FM-18+0003DB82 V0203601N009019999999N9999999N9+00011+99999099091ADDAG12999OA139901201SA1+0289UA1I100249999REMSYN05322200 00028 11005 70024 333   92112 555   11092 22096
0230725485149401987070223003+43150-093333SAO  +0364MCW  V0202905N00885021345EN0240005N1+03065+01395100905ADDAG10999GD13995+0210099GD23995+0750099GF105045999999999999999999MA1100981096605MW1001EQDN01 00000JPWTH 0QNNE81 0 00499E81 0 00499G21 0 00070K21 0 00057L21 0 01500M11 0 28525N21 0 00000Q21 0 10090S21 0 00087V11 0 00605X21 0 29017
0094282750999991987062706004+58150+068183FM-12+004499999V0203001N00401220001CN0500001N9+02661+01311101461ADDAA106000091AG14000GF106991001001999999001011KA1120N+02001MD1210011+9999REMSYN011333   20200
0086108520999991987052517004+48433+010933FM-12+046399999V0202401N00211220001CN0200001N9+01701+00701101761ADDAG12999GA1011+010809089GF103991011021012501031001MD1010001+9999REMSYN011333   81836
0060103210999991987060102504+52583+008350FM-15+0043EDND V0202701N00151220001CN0007001N1+00801+00601999999ADDAG12000GA1021+999999009MA1101901999999MW1461REMMET004RED?
0081725957242151987122221114+41317-122317SAOSP+1080MHS  V0203501N004619999999N9999999N9+00171-00431999999ADDAG10000MA1102031999999MD1010011+9999REMAWY014PK WND 12 001?EQDQ01+000002VOVAR 
0144674030999991987081006004-09800+029083FM-12+132499999V0200901N00151220001CN0200001N9+01901+01101999999ADDAA106000091AG10999AY101061AY201061GA1011+045009039GF101991011001999999031001KA1120N+01531MD1999999+0061MW1051REMSYN023333   20153 58006 81365
0085102150999991987071605504+53183+008167FM-15+0013EDNO V0200901N00311220001CN0012001N1+01701+01701999999ADDAG12000ED110U09759GA1041+000609079MA1101081999999MW1101REMMET018AMB AMB GRADU WHT?
0065084820999991987111123004+36667-004483FM-15+0007LEMG V0203001N00101999991CY0099001N1+01301+01101999999ADDAG12999MA1102101999999REMMET012CAVOK NOSIG?EQDQ01+000000PRSWM2
0086104060999991987022309004+51833+006533FM-12+002499999V0203301N00311220001CN0300001N9+00081-00131102551ADDAG12000GA1021+030009039GF102991021001999999031001MD1210141+9999REMSYN011333   82360
0044036731999991987050600504+51883-000367FM-15+0160EGGW V0203001N00311220001CN0080001N1+00701+00601999999ADDAG11999MA1103181999999EQDQ01+000000PRSWM2
0092109973999991987091103454+00000+999999FM-15+9999EDPL V0202601N00621075001CN0112001N1+01301+00801999999ADDAG12999GA1011+015009059GA2031+030009039GA3061+075009009MA1102101999999EQDQ01+000000PRSWM2
0067747400139731987111404004+30500-099767SAO  +0522JCT  V0200601N000519999999N9999999N9+00781+00611999999ADDAG10999MA1101561999999REMAWY014PK WND 04 000?EQDQ01+000002VOVAR 
0100571340999991987030406004+33450+108250FM-12+054899999V0202001N00601220001CN0180001N9+99999+99999101231ADDAA106000091AG14000GF101991011011012501001001KA1240N+00151MD1710331-0301REMSYN017333   05301 20015
0106711300999991987051015404+53333-104000SAOSP+0372YBU  V0200801N002610045019N0240001N1+99999+99999999999ADDAG10000GD12991+0030099GD23991+0045099GD34991+0270099GF108991999999999999999999MW1001REMAWY010CF2SC6AS2?
0050293930999991987020315004+57667+099567FM-12+022099999V0209991C00001220001CN0500001N9-02451-02631103951ADDAG12000GF100991001001999999001001MD1710201+9999
0050507560999991987092903004+47433+126967FM-12+024099999V0201401N00601036001CN0200001N9+01091-00071101751ADDAG12000GF107991061001999999031021MD1710181+9999
0065161050999991987041519504+45500+012333FM-15+0006LIPZ V0209991C00001999991CY0099001N1+01301+00801999999ADDAG12999MA1102401999999REMMET012CAVOK NOSIG?EQDQ01+000000PRSWM2
0089100220999991987041814504+54800+008950FM-15+0013EDNL V0202601N00361220001CN0112001N1+01301+00301999999ADDAG12000GA1011+012009089GA2041+999999009MA1102301999999REMMET004BLU+EQDQ01+000000PRSWM2
0103725335999991987091319004+40650-086150SAO  +0248GUS  V0203001N004612200019N0160001N1+02561+00781101451ADDAG10999GD12991+0300099GD22991+0750099GF102991999999999999999999MA1101491999999MW1001REMAWY007ACCAS E
0145105130999991987112810004+50867+007133FM-12+0092EDDK V0209991C00001006001CN0030001N9+00281+00251102231ADDAG12999AY121011AY221011GA1031+004509059GA2071+006009059GF108991081051004501999999MA1999999101071MD1210141+9999MW1101REMSYN017333   83615 87620
0038999999999991987090809004-22717-100033FM-18+9999DRIB V02099999999999999999N9999999N9+01921+99999102011ADDAG10999SA1+2099REMSYN011333   32801
0189377110999991987062521004+40867+045150FM-12+069699999V0201801N00101220001CN9999999N9+02161+01401101051ADDAA106000091AG14000AJ199999999999999GF100991001001999999001001IA1249KA1120M+99999KA2120N+00321MD1210031+0021REMSYN035333   00000 10092 20032 48535 58002EQDQ01 +00922ATMX  Q02  05352SNDP  
0072725205147621987083020004+40350-079933SAO  +0382AGC  V0202001N003112200019N0240001N1+02391+01061999999ADDAG10999GD12991+0120099GF102991999999999999999999MA1102201999999MW1001
0083999999999991987022118004+50300-132500FM-13+9999UNUV V0202401N01201021001CN0002001N9+01551+99999103861ADDAG12000GF108991071061022501999011SA1+1609UA1M080259999REMSYN01722233 00160 20805
0109420270999991987060915004+34083+074833FM-12+158799999V0203201N00051036001CN0040001N9+01641+01361999999ADDAA112002091AG10008AY191031AY261031GF106991041051008001021999MD1999999+0271MW1131REMSYN017333   58027 6002/
0108032920999991987121712004+54100-000167FM-12+002099999V0209991C00001003001CN0018001N9+00751+00731100391ADDAG12004AY161061AY211061GA1081+003009079GF108991081061004501999999MD1510051+9999MW1631REMSYN011333   88710
0104992120999991987112005004+30100-088900FM-18+0003DB12 V0200301N009019999999N9999999N9+01371+99999102391ADDAG12999OA139901301SA1+1739UA1I040109999REMSYN05322200 00173 10402 70010 333   92113 555   11091 22095
0065600300999991987020716304+27933-015383FM-15+0025GCLP V0200401N00361999991CY0099001N1+01901+01401999999ADDAG12999MA1102301999999REMMET012CAVOK NOSIG?EQDQ01+000000PRSWM2
0205467340999991987112816004+23583+119617FM-15+0031RCQC V0200201N020610015019N9999999N9+01701+01501999999ADDAA199000391AG10999GA1031+000609079GA2061+001509079GA3081+005409059MA1101491999999MW1611OC102881REMMET0792          ?     99INS CIG00       ?     5     ?     18BR HAZOB RAIN AMT 0.2MM?EQDQ01+000002VOVAR 
0123115410999991987111809004+48933+014450FM-12+043699999V0202801N00501024001CN0150001N9+00741+00201102991ADDAG12000GA1041+015009059GA2071+024009039GF107991041051017501031001MA1999999097831MD1210181+9999REMSYN017333   84650 87358
029072440013995198703272100C+37233-093383SAO  +0386SGF  V0201805N002652200059N0112005N1+01445+00505100995ADDAA101000095AG10000GA1999+007625085GD12015+0075099GF101015999011999999001991MA1100981096435MD1610171+9999MW1001REMAWY009617 1100?EQDQ01+999990APOSP N01 00000JPWTH 0QNNE81 0 00201G21U0 99999H11 0 11025K21 0 00041L21 0 00700M11 0 28475N21 0 00000Q21 0 10099S21 0 00058V11 0 00101X21 0 18005
0072303370999991987070518004+56283+107567FM-12+035799999V0209991C00001030001CN0200001N9+01271+01201100171ADDAG12001AY181061AY221061GF107991021051012501041011MD1210061+9999MW1021
0075155561999991987083111004+43233+027833FM-15+0083LBWN V0201901N00311220001CN0112001N1+02801+00901999999ADDAG12999GA1031+009009089MA1101691999999REMMET006NOSIG?EQDQ01+000000PRSWM2
027472414013866198705041600C+38367-081600SAO  +0286CRW  V0200505N00265002445MN0096005N1+01225+01065102215ADDAA101000095AG10999GD13995+0024099GD24995+0060099GF108085999999999999999999MA1102201098655MW1455REMAWY008LB32E47?EQDQ01+999990APOSP N01 07000JPWTH 0QNNE81 0 00499E81 0 00699G21 0 00008K21 0 00051L21 0 00600M11 0 29130N21 0 07000Q21 0 10221S21 0 00054V11 0 01010X21 0 05005
0078062400999991987102008554+52300+004767FM-15-0002EHAM V0201301N00621060001CN0060001N1+01101+00901999999ADDAG12000GA1011+030009039GA2071+060009009MA1101391999999MW1101REMMET006NOSIG?
0129164700999991987050321004+36817+011967FM-12+0170LICG V0200501N00361220001CN0080001N9+01441+01311101241ADDAG12000AY101031AY201031GA1031+024009039GF103991031001022501031001MA1999999098931MD1510001+9999MW1101REMSYN017333   83358 95300
0075165970999991987010710174+35850+014483FM-15+0091LMML V0202701N00821007501CN0112001N1+01501+01001999999ADDAG12999GA1061+007509089MA1101291999999REMMET006NOSIG?EQDQ01+000000PRSWM2
0057714770999991987060711004+54167-131667SAO  +0007WRO  V0200901N002619999999N9999999N9+01001+00801102081ADDAG10999MD1710091+9999REMAWY00554MM?EQDQ01+000002VOVAR 
0226466890999991987081009004+26150+119950SY-MT+0030RCFG V0202101N001510150019N0110001N1+02721+02331100921ADDAA106000091AG14000GA1021+004809079GA2051+015009059GA3071+024009039GF107991051051004501051001MA1100911999999MD1710091+9999MW1001REMSYN036555   82716 85650 87358 00990 QNH298MET026CIG050     ?     -7- SLGT?EQDQ01+000000PRSWM2
0078724106137281987112722004+36567-079333SAO  +0177DAN  V0200401N00511001501EN0028001N1+00561+00501102641ADDAG10999GD14991+0015099GF108991999999999999999999MA1102641999999MW1451MW2511
0094582590999991987101206004+32033+120850FM-12+000199999V0200701N00601220001CN0230001N9+02511+01711101731ADDAA106000091AG14000GF104991041011008001001001KA1240N+01851MD1710181+9999REMSYN011333   20185
0123037970350471987090807004+51350+001350SY-MT+0055EGUM V0202401N00211220001CN0070001N1+01121+01041102131ADDAG11999AY101011AY201011GA1041+075009009GF104991001001999999001011MA1102101999999MD1210081+9999MW1101REMSYN011333   84075
045472520094823198712120600C+40500-080217SY-SA+0347PIT  V0202405N006750045759N0128005N1+00565-00065099625ADDAA101000395AA206000591AA324000591AC11I9AG10002AY181061AY221061GA1999+003355135GA2999+004575135GD12025+0033099GD24065+0045099GF108085999071999999999999KA1240M+00891KA2240N-00171MA1099591095265MD1510051+9999MW1805REMSYN029333   10089 21017 70005 90516AWY031RB0458/ 50502 17//     ?    48?EQDN01 02300JPWTH 0QNNE11 0 00202E11 0 00608G11 0 00015H11 0 13011H11 0 13015K11 0 00031L11 0 00800M11 0 28130N11 0 02300Q11 0 09962S11 0 00042V11 0 01010X11 0 24013
0065517110999991987080703004+40933+078450FM-12+198699999V0202701N00301036001CN0300001N9+01681+00741999999ADDAG12000GF107991011051017501031001MA1999999080581MD1410001+9999
021574486094789198706061100C+40650-073783SAO  +0005JFK  V0203505N006252200059N0320005N1+01785+00945101905ADDAA101000095AG10999GD12995+0240099GF102025999999999999999999MA1101901101835MW1001EQDN01 00000JPWTH 0QNNE11 0 00299G11U0 99999K11 0 00049L11 0 02000M11 0 30070N11 0 00000Q11 0 10190S11 0 00064V11 0 00303X11 0 35012
0075623060999991987081917244+31333+027217FM-15+0030HEMM V0203501N00511220001CN0112001N1+02501+01901999999ADDAG12999GA1041+007509089MA1101191999999REMMET006NOSIG?EQDQ01+000000PRSWM2
0062067000999991987030604504+46250+006133FM-15+0416LSGG V0200301N00461006001CN0080001N1-00301-00701999999ADDAG12999GA1051+006009059MA1102711999999MW1101REMMET006NOSIG?
0129561440999991987041518004+31733+098567FM-12+320499999V0209991C00001001201CN0300001N9+00041-00011999999ADDAA106000591AG10013AY181061GF108991081041001501999999KA1240M+00691MA1999999069191MD1210031+0401MW1001REMSYN017333   00400 10069
0092160760999991987090708004+45667+009700FM-15+0237LIME V0209991C00001220001CN0112001N1+02001+01501102341ADDAG12999GA1021+009009089MA1102301099501EQDQ01+999990APOSP Q02+999990APOSLPQ03+000000PRSWM2
0072224080999991987060812004+65200+031167FM-12+011299999V0202101N00501007501CN0200001N9+01181+01001099881ADDAG12002AY181061AY261061GF107991051031008001031001MD1810021+9999MW1801
0086108930999991987050215004+48583+013467FM-12+040899999V0202201N00101220001CN0280001N9+02411+00571100841ADDAG12000GA1011+018009089GF101991011011017501001001MD1710151+9999REMSYN011333   81856
0056152170999991987091811004+46000+026133FM-12+056899999V0209991C00001036001CN9999999N9+01211+99999999999ADDAG12999GF108991031071012501071999REMSYN011555   8010/
0081432130999991987050800004+15800+078067FM-12+028199999V0209991C00001220001CN0040001N9+02921+01791100741ADDAA106000091AG14000GF104991021051008001031001MD1999999+0001REMSYN011333   58000
0061234180999991987082303004+65117+057100FM-12+005699999V0201501N00201220001CN0500001N9+00891+00701101201ADDAA106000091AG14000GF101991011001999999031001MD1710111+9999
0050307140999991987032521004+52550+103050FM-12+053099999V0209991C00001220001CN9999999N9-02631-02741103891ADDAG12000GF100991001001999999001001MD1710011+9999
023172651014944198711210500C+43567-096733SAO  +0432FSD  V0201505N005252200059N0240005N1-00285-01115102405ADDAA101000095AG10999GD12995+0750099GF102025999999999999999999MA1102201097055MW1001EQDQ01+999990APOSP N01 00000JPWTH 0QNNE81 0 00299G21U0 99999K21 0 00012L21 0 01500M11 0 28660N21 0 00000Q21 0 10240S21 0 00027V11 0 00202X21 0 15010
0098026360999991987011702204+55550+013367FM-15+0106ESMS V0200901N00361004501CN0112001N1-00301-00601999999ADDAG11999GA1041+004209059GA2071+004509059MA1103791999999MW1771REMMET026NOSIG 17////     ?     //?
0107093850999991987082517304+52383+013517FM-15+0048ETBS V0202701N00211018001CN0112001N1+02101+01601999999ADDAG12000GA1021+013809099GA2031+018009059GA3051+030009039MA1100511999999REMMET006NOSIG?EQDQ01+000000PRSWM2
0050598550999991987012309004+19233+110467FM-12+002599999V0200701N00401220001CN0280001N9+02491+01791101721ADDAG12000GF103991011011008001041001MD1710041+9999
0050300140999991987091315004+59633+103333FM-12+027799999V0209991C00001220001CN0500001N9+00121+00091102271ADDAG12000GF106991021001999999031011MD1310011+9999
0103844520999991987122106004-06783-079833FM-12+0034SPHI V0201801N00411220001CN0120001N9+02001+01801101011ADDAA106000091AG10999AY101061AY201061GF100991001001999999001001MD1999999-0131MW1021REMSYN011333   59013
0119724285138121987062403004+39817-082933SAO  +0227LCK  V0209991C000012200019N0112001N1+02221+01891101351ADDAG10000GD12991+0300099GD23991+0750093GF107991999001999999071081MA1101421999999MD1310151+9999MW1001REMAWY009315 1078?
0075766655999991987031304004+19733-101217SAO  +1899MLM  V0202101N003112200019N0112001N1-00881-01491999999ADDAG10999GF100991999999999999999999MA1102371999999MW1001REMAWY009238 BMSO?
027872295023174198707161900C+33933-118400SAO  +0030LAX  V0201705N00365007015MN0160005N1+02065+01615101225ADDAA101000095AG10999GD13995+0069099GD24995+0090099GF108085999999999999999999MA1101221100855MW1001REMAWY012CITY 67    ?EQDQ01+999990APOSP N01 00000JPWTH 0QNNE81 0 00499E81 0 00699G21 0 00023K21 0 00061L21 0 01000M11 0 29780N21 0 00000Q21 0 10122S21 0 00069V11 0 01010X21 0 17007
0168374840999991987122703004+41650+041633FM-12+000699999V0201301N01201220001CN0100001N9-00111-00741103231ADDAA106000091AA224008091AG14000AJ100169199999999GF100991001001999999001001IA1279IA2999-00109MD1310011+9999OA149901601REMSYN041555   10007 21012 3/101 43016 7008/ 91116
0086039550999991987121023004+51850-008483FM-12+0162EICK V0201201N01131007501CN0250001N9+00501-00131101491ADDAG12999GA1081+007509059GF108991081051008001999999MD1710141+9999REMSYN011333   88625
0147116790999991987033012004+49983+016433FM-12+040299999V0203001N00601060001CN0150001N9+00401-00401102121ADDAA106999929AG10001AY181061AY211061GA1031+010809089GA2061+060009029GF106991031021012501001061MD1310011+9999MW1031REMSYN023333   69901 83836 86270
0147723405039301987091609024+34917-092150SAOSP+0095LRF  V0201501N001510075019N0032001N1+99999+99999999999ADDAG10018GD12991+0012099GD24991+0075099GF108991999999999999999999MA1101121999999MW1451MW2951REMAWY045T ALQDS MOVG NE FQT          ?    LTGICCCCGCA
0103483560999991987020406004+17150+104133FM-12+0172VTUS V0200801N00411012001CN0090001N9+02411+01261102151ADDAA106000091AG14000AY121061AY211061GF107991061051012501001051MD1999999+0081MW1051REMSYN011333   58008
0130062600999991987112920004+52100+005183FM-12+0004EHDB V0202201N00211021001CN0040001N9+00441+00191102651ADDAG12999AY121021AY221021GA1021+015009059GA2071+021009039GF107991021051017501031001MD1110111+9999MW1101REMSYN017333   82650 87357
0050581020999991987052821004+33883+115767FM-12+004299999V0202001N00201220001CN0150001N9+01661+01451101181ADDAG12000GF100991001001999999001001MD1710011+9999
0116264220999991987041118004+56967+024067FM-12+0003UMRR V0201301N00701220001CN0040001N9+00721-00541101951ADDAA106000091AG14000AY101061AY201061GF102991001001999999001011KA1120M+00941MD1310031+9999MW1041REMSYN011333   10094
0072245570999991987071718004+64200+126617FM-12+007699999V0209991C00001030001CN0500001N9+01691+01241100851ADDAG12001AY181061AY221061GF108991021031008001011999MD1610031+9999MW1251
0115725755241011987112812004+41117-111967SAO  +1459HIF  V0201201N005112200019N0240001N1-00271-00931101871ADDAA106000091AG10000GD13991+0600093GF107991999001999999001081MA1101691999999MD1710101+9999MW1001REMAWY009710 1008?
0138110350999991987062706004+48250+016367FM-12+020999999V0202701N00621015001CN0500001N9+01671+01361101871ADDAA106000091AG14000GA1051+015009059GA2041+036009039GF107991051051017501071999KA1120N+01601MD1210181+9999REMSYN023333   20160 85650 84362
0060071970999991987062911004+47917+007400FM-15+0217LFSC V0203601N00211220001CN0112001N1+02601+02001999999ADDAG12999GA1011+009909089MA1102401999999EQDQ01+000000PRSWM2
0050320570999991987110715004+51133+142667FM-12+006599999V0202101N00201012001CN0200001N9+00041-00131101301ADDAG12000GF107991051051012501051001MD1710131+9999
0048467400999991987100102124+22567+120350FM-16+0009RCKH V0202001N00311015001CN0080001N1+99999+99999999999ADDAG11999GA1031+005409089GA2061+015009059MW1051
0098345100999991987120603004+48600+037983FM-12+013799999V0200401N00101036001CN0190001N9-00551-01011102521ADDAA106000091AA224000091AG14000GF107991071001999999031001MD1710111+9999REMSYN017555   21058 70004
0035038030999991987030212004+49917-006300FM-12+0031EGHE V0203501N009819999999N9999999N9+00851+00081102451ADDAA106000091AG14000MD1210221+9999
0084302630999991987121915004+57833+117667FM-12+056299999V0209991C00001220001CN0500001N9-02321-02811102861ADDAG12000GF100991001001999999001001MA1999999095321MD1810091+9999EQDQ01+999990APOSP 
0098100460999991987071817504+54383+010150FM-15+0031EDCK V0200901N00261036001CN0112001N1+01801+01301999999ADDAG12000GA1011+007509089GA2061+036009039MA1101021999999REMMET013PEGEL 494 BLUEQDQ01+000000PRSWM2
0119999999999991987012718004-21400-120200FM-13+9999DGNZ V0201201N00461220001CN0200001N9+02701+02061101821ADDAG10999AY101061AY201061GF103991031021004501001001MD1210201+9999MW1021SA1+2659UA1M020059999REMSYN01722254 00265 20201
0050470700999991987091103004+37967+126567FM-12+007099999V0200501N00401220001CN0200001N9+02461+01261101901ADDAG12000GF102991021001999999031021MD1210021+9999
0092161580999991987021602504+43683+010400FM-15+0001LIRP V0209991V00261220001CN0112001N1+01101+00801999999ADDAG12000GA1021+006009089GA2031+024009039MA1100101999999REMMET007NOSUIG?EQDQ01+000000PRSWM2
0072714320999991987033102004+43233-079217SAO  +0079WWZ  V0203501N005719999999N0096001N1+00201+00201100481ADDAG10999MA1999999099521MD1710061+9999REMAWY00598MM?EQDQ01+999990APOSP 
0070471580999991987062907004+35117+126817FM-15+0013RKJJ V0202401N001019999999N9999999N1+99999+99999999999ADDAG12999MW1001REMMET0459999#2CU040 1A C130 32/19 2969INS/QFF1005PT9?
0092823980999991987011211004-03783-038533FM-15+0025SBFZ V0201201N00411030001CN0112001N1+02801+02301999999ADDAG10999GA1041+006009089GA2031+030009039GA3061+060009009MA1101391999999EQDQ01+000000PRSWM2
0078724345039661987022714364+38650-090633SAOSP+0141SUS  V0200701N00511001201MN0024001N1+99999+99999999999ADDAG10999GD14991+0012099GF108991999999999999999999MA1101761999999MW1451MW2511
0063612910999991987020120004+12533-007950FM-15+0381GABS V0200401N00411999991CY0099001N1+02501+00801999999ADDAG12999MA1101391999999REMMET010CAVOK NSG?EQDQ01+000000PRSWM2
0110471280999991987020116004+36700+127500FM-15+0066RKTU V0209991C000010090019N0090001N1-00501-01001999999ADDAG12999GA1061+009009059GA2081+030009049MA1102611999999MW1711REMMET038CIG030/1SN       ?     00/ QFF1027PT2?
0079725387999991987040312004+47467-087850SAO  +0186P59  V0209991C000019999999N9999999N9-01161-01271999999ADDAA106000091AG10000REMAWY030PK WND 00 ///448 RNO 11 20000?EQDQ01+000002VOVAR 
0068747685999991987101300004+30400-089067SAO  +0009GPT  V0203401N007212200019N0240001N1+01891+00781999999ADDAA106000091AG10000GF100991999999999999999999MA1101461999999MW1001
0078999999999991987011812004+21800+122500FM-13+9999JQRO V0201401N00511220001CN0200001N9+02201+01831101801ADDAG12000GF100991001001999999001001MD1210051+9999SA1+2509REMSYN01122254 00250
0061576870999991987110212004+28233+112867FM-12+006899999V0203401N00101220001CN0300001N9+00781+00531102991ADDAA106000091AG14000GF103991031001999999041001MD1210061+9999
0102722119999991987072515004+28033-081950SAO  +0072LAL  V0209991C000012200019N0080001N1+02941+02391999999ADDAG10000GD12991+0075099GD22991+0180099GD33991+0750093GF107991999999999999999999MA1101961999999MW1051
0071062750999991987020902294+52067+005883FM-15+0052EHDL V0202601N00311000301CN0010001N1+00601+00601999999ADDAG11999ED199U19209GA1081+000309079MA1101691999999MW1101REMMET004RED?
0092857820999991987052115004-40600-073050FM-12+0058SCJO V0201301N00771009901CN0200001N9+00971+00431102471ADDAG10999GA1071+009909059GF107991071051008001001001MD1210081+9999REMSYN017333   56400 87633
021672515004725198704252300C+42217-075983SAO  +0484BGM  V0200905N003652200059N0400005N1+01285-00785102395ADDAA101000095AG10999GF100005999999999999999999MA1102301096415MW1001EQDQ01+999990APOSP N01 00000JPWTH 0QNNE81 0 00099G21U0 99999K21 0 00018L21 0 02500M11 0 28470N21 0 00000Q21 0 10239S21 0 00055V11 0 00000X21 0 09007
0121727347148411987111913264+45567-084800SAOSP+0220PLN  V0202601N01131002701EN0064001N1+99999+99999999999ADDAG10999GD13991+0027099GD24991+0045099GF108991999999999999999999MA1100881999999MW1451MW2801MW3851OC101601REMAWY005SB23?
0247767260999991987112000004+18917-099250FM-12+156099999V0203601N00601021001CN0100001N9+02251+00881101001ADDAA124000091AG14000AY141061AY241061GA1031+004509099GA2031+021009049GF106991031031000751021001IA1019KA1120M+02891KA2180N+01131MA1999999084171MD1210061-0041MW1141OA139901001REMSYN065333   10289 20113 30/// 56250 59004 70000 83915 83457 92036 92110
0189726221947251987031910003+44933-074850SAO  +0065MSS  V02099959000052200059N0160005N1-00675-00835101945ADDAG10999GF100005999999999999999999MA1101931101155MW1001EQDN01 00000JPWTH 0QNNE11 0 00099G11U0 99999K11 0 00017L11 0 01000M11 0 29870N11 0 00000Q11 0 10194S11 0 00020V11 0 00000X11 0 00000
0067035340999991987103019204+52450-001733FM-15+0099EGBB V0201201N00151001201CN0025001N1+01101+01001999999ADDAG12999GA1081+001209079MA1101591999999MW1051REMMET011GRADU 3000?
023772513014777198701030500C+41333-075733SAO  +0284AVP  V0202405N00465011285MN0128005N1-00335-00505100545ADDAA101000095AG10999GD14995+0111099GF108085999999999999999999MA1100411097005MW1715REMAWY013PCPN VRY LGT?EQDN01 04000JPWTH 0QNNE81 0 00699G21 0 00037K21 0 00023L21 0 00800M11 0 28645N21 0 04000Q21 0 10054S21 0 00026V11 0 01010X21 0 24009
0106994330999991987042203004+43750-087683FM-12+0178SGNW V0200301N013919999999N9999999N9+00381+99999102411ADDAG12000MD1410001+9999OA139901601SA1+0759REMSYN035222// 00075 333   92131 555   90300EQDQ01+000022APCTEN
0066714130999991987010202004+46233-061300SAO  +0039WVE  V0201501N002619999999N0080001N1-00401-00601102351ADDAG10999MA1999999101861MW1001REMAWY0267020       ?    85MM(0000)
0121999999999991987081106004+39600+173300FM-13+99993EJI V0202901N01231002101CN0100001N9+01601+01181101181ADDAG12000GF107991071051002501999999MD1210151+9999SA1+1909UA1M050159999UG1060253009REMSYN02922265 00190 20503 330// 40605
024772539014836198710211700C+42767-084600SAO  +0256LAN  V0202505N00525002445MN0080005N1+00395+00225101875ADDAA101000095AG10999GD13995+0024099GD24995+0048099GF108085999999999999999999MA1101801098635MW1455MW2615EQDN01 02070JPWTH 0QNNE81 0 00499E81 0 00699G21 0 00008K21 0 00036L21 0 00500M11 0 29125N21 0 02070Q21 0 10187S21 0 00039V11 0 01010X21 0 25010
0119110360999991987072912004+48117+016567FM-12+0190LOWW V0209991V00261036001CN0400001N9+02121+00881101551ADDAA106000091AG14000GA1041+014409089GA2061+036009039GF107991041021012501031999MD1710131+9999REMSYN017333   84848 86362
0074471610432401987071702004+35083+128083FM-15+0008RKPS V0202301N001010600019N0080001N1+02501+02001999999ADDAG11999GA1081+060009029MA1100981999999MW1101REMMET018CIG200/QFF1010PT5?
020072210612835198704110200C+26583-081867SAO  +0005FMY  V02099959000052200059N0160005N1+01725+01395101525ADDAA101000095AG10999GF100005999999999999999999MA1101521101495MW1001EQDN01 00000JPWTH 0QNNE81 0 00099G21U0 99999K21 0 00057L21 0 01000M11 0 29970N21 0 00000Q21 0 10152S21 0 00063V11 0 00000X21 0 00000
0119716010999991987111819004+44633-063500SAO  +0051YAW  V0202101N01031001801MN0040001N1+01201+01201101181ADDAG10999GD14991+0018099GF108991999999999999999999MA1101151100551MW1451MW2801OC101751REMAWY005SF10?EQDQ01+999990APOSP 
0058111500999991987123003164+47800+013000FM-15+0450LOWS V0201501N00461999991CY0099001N1+00301-00201999999ADDAG12000MA1102911999999REMMET005CAVOKEQDQ01+000000PRSWM2
0060130140999991987051922164+46217+014483FM-15+0364LYLJ V0209991C00001220001CN0112001N1+01101+00901999999ADDAG12999GA1041+015009059MA1101291999999EQDQ01+000000PRSWM2
024372450003928198709010900C+37650-097433SAO  +0406ICT  V02099959000052200059N0320005N1+01395+01225102395ADDAA101000095AG10000GF100005999999999999999999MA1102471097615MD1810071+9999MW1001REMAWY004807?EQDQ01+999990APOSP N01 00000JPWTH 0QNNE81 0 00099G21U0 99999K21 0 00054L21 0 02000M11 0 28825N21 0 00000Q21 0 10239S21 0 00057V11 0 00000X21 0 00000
0061091700999991987012712004+54183+012083FM-12+001099999V0202201N00501030001CN0180001N9-00181-00691100411ADDAA106000091AG14000GF107991071001999999071999MD1710461+9999
0060075770999991987072014004+44583+004733FM-15+0074LFLQ V0202101N00311010801CN0112001N1+02501+01501999999ADDAG12999GA1051+010809089MA1101391999999EQDQ01+000000PRSWM2
0058062420999991987042816154+53250+004917FM-15+0005EHVL V0201001N00261999991CY0099001N1+02001+01101999999ADDAG12999MA1102511999999REMMET005CAVOKEQDQ01+000000PRSWM2
0065309380999991987110606004+49433+108900FM-12+093499999V0202301N00301220001CN0500001N9-00421-01941102931ADDAG12000GF107991011011012501001011MA1999999091501MD1810231+9999
0235713970999991987020706004+44983-064917SY-SA+0025YZX  V0209991C000012200019N0240001N1-02081-02261102121ADDAA106000091AA224999929AG10000AL12499939GD13991+0300093KA1240M-00671KA2240N-02161MA1102101101761MD1310041+9999MW1001OA132401081REMSYN047333   11067 21216 555   19999 29999 32621 40181AWY044AS3 FROIN MOON DIMLY         ?    VSB 3004 ?
0145111500999991987011114204+47800+013000FM-15+0450LOWS V0200101N00211004201CN0018001N1-01201-01401999999ADDAG10999GA1011+000909079GA2081+004209049MA1101021999999MW1711REMMET073WS WRNG VWS IN APCH          ?     APRX AT 200FT AAL TEMPO 1200 16490254?
0100523230999991987091418004+41800+097033FM-12+177099999V0202501N00501220001CN0300001N9+01121-01031999999ADDAA106000091AG14000GF101991011041017501001021KA1240M+02251MD1410001-0401REMSYN017333   05403 10225
0092471030999991987113010004+37967+124667FM-15+0171RKSP V0203501N003110090019N0112001N1-00301-00901103231ADDAG12999GA1021+006009059GA2061+009009059MA1103051999999OC100571REMMET018CIG030/QFF1032PT3?
0366722345038661987120100003+32550-088567SAO  +0083NMM  V0203205N003152200059N0112005N1+00895+00225101055ADDAA106000091AG10000GA1999+012195999GA2999+030485999GD12035+0120099GD22035+0300099GF103995999051999999071991KA1999M+01441MA1101051099865MD1310081+9999MW1001REMAWY024308        ?    1570 58?EQDN01 00000JPWTH 0QNNE41 0 00204E41 0 00204G41U0 99999H41 0 00040H41 0 00100K41 0 00036L41 0 00700C41 0 29840M41 0 29490N41 0 00000Q41 0 10105S41 0 00048V41 0 00499X41 0 32006
0105605590999991987082215004+33500+006117FM-12+0063DAUO V0202001N003119999999N0100001N9+03871+01761101051ADDAG12000GA1041+036009039GF106991999001999999031001MD1610171+9999REMSYN011333   84362EQDQ01+000042SCOTLC
0124718550999991987081009004+51100-100050SAO  +0305YDN  V0201201N00311036001EN0240001N1+01201+01001101871ADDAG10000GD13991+0360099GF107991999999999999999999MA1101831098221MD1810071+9999MW1001REMAWY010AC9 8007 ?EQDQ01+999990APOSP 
0191763820999991987020800004+25533-103450FM-12+112499999V0203401N00201220001CN0300001N9+01401+00471102551ADDAA106000091AG14000GA1041+090009009GF104991001001999999001021IA1019KA1120M+01551KA2180N+00351MA1999999089721MD1710301+0141OA150600201REMSYN047333   10155 20035 30/// 55022 56//7 58014 84080
0348722926031541987121523003+33300-117350SAO  +0023NFG  V02099959000050365859N0112005N1+01395-00835101575ADDAG10999GA1999+030485999GA2999+036585999GA3999+060965999GD12035+0300099GD23055+0360099GD34085+0600099GF108995999999999999999999MA1101631101305MW1001EQDN01 00000JPWTH 0QNNE41 0 00204E41 0 00406E41 0 00610G41 0 00120H41 0 00100H41 0 00120H41 0 00200K41 0 00017L41 0 00700C41 0 30010M41D0 29915N41 0 00000Q41 0 10157S41 0 00057V41 0 01099X41 0 00000
025772556014941198705261300C+41983-097433SAO  +0471OFK  V0201505N00575003965MN0240005N1+01785+01615100835ADDAA101000095AG10999GD13995+0039099GD24995+0060099GF108085999999999999999999MA1100911095385MW1001EQDQ01+999990APOSP N01 00000JPWTH 0QNNE81 0 00499E81 0 00699G21 0 00013K21 0 00061L21 0 01500M11 0 28165N21 0 00000Q21 0 10083S21 0 00064V11 0 01010X21 0 15011
0120596260999991987053000004+21550+107967FM-12+001399999V0209991C00001007501CN0120001N9+02541+02441101021ADDAA106001091AA224002091AG10006AY191061AY281061GF107991071091008001061999MD1210101+0001MW1171REMSYN017333   00001 60024
0068782684999991987042519004+20667-074933FM-15+0005MUMO V0200301N00511005401CN0090001N1+99999+99999999999ADDAG12999GA1051+005409079GA2081+012009059MW1161REMMET011XX/XX 1014?
0036152970999991987111216004+45350+024233FM-12+999999999V0203201N00101220001CN0130001N9+00101+99999999999ADDAG12999GF102991021001022501041001
0093725036147571987061302004+41633-073883SAO  +0050POU  V0201901N002110090019N0048001N1+01941+01831100951ADDAG10999GD12991+0051099GD23991+0090099GF107991999999999999999999MA1100911999999MW1051MW2451
0091131310999991987061915304+45733+016067FM-15+0107LYZA V0201801N00261220001CN0112001N1+02101+01001999999ADDAG12999GA1011+012909089GA2031+015009059MA1101021999999REMMET006NOSIG?EQDQ01+000000PRSWM2
0066105130999991987100922504+50867+007133FM-15+0092EDDK V0201401N00931999991CY0099001N1+01201+00601999999ADDAG12999MA1100611999999OC101491REMMET005CAVOKEQDQ01+000000PRSWM2
0072725315999991987081114004+40033-088283SAO  +0230CMI  V0200801N004112200019N0112001N1+02111+01721999999ADDAG10999GD12991+0120099GF102991999999999999999999MA1101761999999MW1001
0074061600999991987122119254+55767+012317FM-15+0031EKVL V0209991C00001060001CN0010001N1+00301+00301999999ADDAG12999ED110U15849GA1041+024009039GA2071+060009029MA1102201999999MW1411
0061471560999991987111018004+35133+126917FM-12+007299999V0201401N00051220001CN0150001N9+01001+00851102311ADDAA106000091AG14000GF100991001001999999001001MD1610011+9999
0116024100999991987072518004+60683+013717FM-12+030899999V0201101N00101007501CN0550001N9+01061+00841099711ADDAA199001091AG10009AY191061AY281061GF106991061091008001999999KA1120M+01761MD1310091+9999MW1921REMSYN011333   10176
0114039520999991987030523004+51800-008250FM-12+004199999V0201501N00981001201CN0030001N9+00831+00811101551ADDAG12999AY161021AY251021GA1081+001209079GF108991081071001501999999MD1710061+9999MW1581REMSYN017333   88704 91845
0116670830999991987072015004-18800+047483FM-12+1276FMMI V0209999999999220001CN0350001N9+01671+01161999999ADDAA106000091AG10999GA1011+006009059GF102991999999008001999999KA1120M+02291MD1310101+9999REMSYN017333   10229 81620
0107410620999991987080706004+20467+045617FM-12+0614OESL V0209991C00001220001CN0100001N9+03851+01101100471ADDAG12000GF100991001001999999001001KA1120N+02901MD1999999+0231REMSYN035333   20290 58023 555   04410 49393
025772662024090198711030200C+44050-103067SAO  +0964RAP  V0203405N00825008235MN0240005N1+00945+00725101385ADDAA101000895AG10999GD13995+0081099GD24995+0150099GF108085999999999999999999MA1101351090285MW1615EQDQ01+999990APOSP N01 02000JPWTH 0QNNE81 0 00499E81 0 00699G21 0 00027K21 0 00045L21 0 01500M11 0 26660N21 0 02000Q21 0 10138S21 0 00049V11 0 01010X21 0 34016
0072236620999991987102700004+63800+082733FM-12+003399999V0202101N00401004201CN0040001N9-00581-00691101941ADDAG12001AY171061AY271061GF108991061071004501021999MD1710181+9999MW1711
0099723346038111987012603004+35600-088917SAO  +0132MKL  V0203601N00571008401EN0112001N1-00381-00551101751ADDAG10000GD14991+0084099GF108991999999999999999999MA1101731999999MD1110171+9999MW1001REMAWY004117?
0065024600999991987100416504+59650+017950FM-15+0061ESSA V0202101N00211999991CY0099001N1+00801+00301999999ADDAG12999MA1102711999999REMMET012CAVOK NOSIG?EQDQ01+000000PRSWM2
0061785010118071987051906004+17400-083933FM-12+0011MHIC V0200701N006219999999N9999999N9+02761+00891999999ADDAA106000091AG14000MD1410001+9999REMSYN017333   92008 92048
0076107880999991987070316454+48833+012567FM-15+0360EDPS V0202301N00211015001CN0112001N1+02601+01601999999ADDAG12999GA1031+013509089GA2031+015009059MA1102001999999EQDQ01+000000PRSWM2
0085873200999991987081121004-30367-066283FM-12+046199999V0200901N00671036001CN0200001N9+02041+01081100181ADDAG10999GF107991011051012501011061MA1100271999999MD1710131+9999REMSYN011555   10027
0047782680999991987080716004+20350-074500FM-15+0009MUBA V0201001N00721220001CN0070001N1+03101+02601999999ADDAG12999GA1011+007509089MA1101691999999MW1061
0061471520999991987042315004+35550+129317FM-12+003399999V0200501N00261220001CN0150001N9+01451+00681101331ADDAA106000091AG14000GF100991001001999999001001MD1210261+9999
0130747915937181987041513354+33817-078717SAOSP+0010CRE  V0201301N005110060019N0040001N1+99999+99999999999ADDAG10999GD12991+0024099GD23991+0060099GD34991+0120099GF108991999999999999999999MA1101461999999MW1451MW2951REMAWY013TB34 SW RB21?
0114026220999991987100106004+56833+013967FM-12+014599999V0200201N00101220001CN0006001N9-00171-00181999999ADDAA106000091AG14000AY141061AY201061GF102991021061002501001011IA1149KA1120N-00171MW1441REMSYN017333   21017 34///
0140477430999991987100511004+35483+133250FM-15+0009RJOH V0202001N00151010501CN0112001N1+02101+01801999999ADDAG12999GA1051+010509059GA2061+024009039GA3081+036009049MA1101961999999REMMET039200/ FCST        ?     1117 98152 60RA?EQDQ01+000000PRSWM2
0131104010999991987032715004+51200+006133FM-12+0076EDUR V0202301N01031030001CN0250001N9+01271+00541099231ADDAG12000GA1021+008109089GA2041+009609059GF107991041081008001071021MD1610371+9999OA140102011REMSYN029333   82827 84632 555   1//39
0091167490999991987120322004+36400+028083FM-15+0011LGRP V0203401N00771220001CN0112001N1+01301+00601999999ADDAG12999GA1011+007509089GA2031+060009009MA1101901999999REMMET006NOSIG?EQDQ01+000000PRSWM2
0122296750999991987011412004+55117+093333FM-12+047799999V0209991C00001220001CN9999999N9-02181-02431102781ADDAA112000591AG10001AY171061AY211061GF102991001001999999001091KA1120M-01321MD1210271+9999MW1011REMSYN017333   11132 69952
0079038620999991987110907504+50783-001833FM-15+0011EGHH V0200701N00261007501CN0070001N1+01001+00901999999ADDAG12999GA1031+005409089GA2051+007509059GA3071+010509059MA1100711999999MW1251
0070711090999991987061413504+50683-127367SAOSP+0022YZT  V0202701N00261005401MN0320001N1+99999+99999999999ADDAG10999GD13991+0054099GF107991999999999999999999MW1001REMAWY004CF8?
0057715274999991987081003004+42850-080267SAO  +0241WSI  V0200301N001019999999N9999999N9+01701+01701100851ADDAG10000MD1210101+9999REMAWY00508MM?EQDQ01+000002VOVAR 
0105711380999991987082810004+51267-102467SAO  +0498YQV  V0202101N004112200019N0240001N1+01101+00701101691ADDAG10999GD12991+0300099GF102991999999999999999999MA1101631095771MW1001REMAWY005AC3 ?EQDQ01+999990APOSP 
0097999999999991987052718004+24700+137800FM-13+9999PCPY V0202201N00461220001CN0200001N9+02721+02371101121ADDAG12000GF102991021021004501001001MD1710111+9999SA1+2829UA1M010059999REMSYN01722283 00282 20101
0122483030999991987100300004+19917+099833FM-12+0395VTCR V0209991C00001009001CN0050001N9+02401+02311101101ADDAA124999929AG10001AY121061AY221061GF108991061081004501071999KA1120N+02291MD1999999-0161MW1211REMSYN017333   20229 59016
0050470160999991987080209004+41400+128167FM-12+071499999V0209991C00001220001CN0200001N9+02621+01801100641ADDAG12000GF102991011021008001001011MD1710041+9999
0120105440999991987031001004+50500+009950FM-12+092599999V0201201N01031220001CN0150001N9-00761-01171999999ADDAG12999GA1011+084009009GF101991001001999999001011MD1110071+9999OA149901601OA259901181REMSYN023333   81078 91131 91223
021572509014739198702150500C+42367-071033SAO  +0006BOS  V0203405N008252200059N0240005N1-01445-02395101645ADDAA101000095AG10999GD12995+0210099GF103035999999999999999999MA1101661101545MW1001EQDN01 00000JPWTH 0QNNE81 0 00299G21U0 99999K21 0-00011L21 0 01500M11 0 29985N21 0 00000Q21 0 10164S21 0 00006V11 0 00404X21 0 34016
0080714380999991987082415004+45033-080367SAO  +0191WMZ  V0203101N007719999999N0072001N1+01401-00301102421ADDAG10000MA1999999100091MD1210051+9999OC101131REMAWY00581MM?EQDQ01+999990APOSP 
018272375503103198712250400C+35133-111667SAO  +2135FLG  V0201405N000550066019N0080001N1-01065-01335999999ADDAA101000095AG10999GD12991+0027099GD24991+0066099GF108991999999999999999999MA1100581999999MW1851REMAWY039PK WND 002 000         ?    / SB11 LASTQNNK11 0 00008S11 0 00013X11 0 14001
037072535014848198705101200C+41700-086317SAO  +0236SBN  V0202205N006250274359N0160005N1+01785+00835101455ADDAA101000095AA206000091AG10000GA1999+015245065GA2999+027435035GD12025+0150099GD23035+0270099GF105055999051999999071991KA1999M+02891KA2999N+01611MA1101491098705MD1310101+9999MW1001REMAWY015310 1570 48461?EQDN01 00000JPWTH 0QNNE81 0 00202E81 0 00404G21 0 00090H11 0 15050H11 0 23090K21 0 00047L21 0 01000M11 0 29145N21 0 00000Q21 0 10145S21 0 00064V11 0 00606X21 0 22012
0072723927931101987090723004+34200-119200SAO  +0013OXR  V0202201N003112200019N0160001N1+02391+01781999999ADDAG10999GD12991+0750093GF102991999999999999999999MA1101191999999MW1001
031772423093821198709160600C+38183-085733SAO  +0145SDF  V0201905N00365013725EN0112005N1+02285+01835101345ADDAA101000095AA206000091AG10000GA1999+013725065GD14085+0135099GF108085999051999999999999KA1999M+03171KA2999N+01831MA1101391099615MD1710101+9999MW1001REMAWY015710 15// 48965?EQDN01 00000JPWTH 0QNNE11 0 00610G11 0 00045H11 0 15045K11 0 00065L11 0 00700M11 0 29415N11 0 00000Q11 0 10134S11 0 00073V11 0 01010X11 0 19007
0094476620999991987062512004+35683+139767FM-12+0036RJTD V0200701N00211036001CN0100001N9+02091+01351100301ADDAA199999929AG10000GF108991081001999999071999KA1120M+02451MD1310131+9999REMSYN011333   10245
041372556014941198704111200C+41983-097433SY-SA+0471OFK  V0203305N006752200059N0240005N1+00005-00175100635ADDAA101000095AA206000091AA324000591AG14000GA1999+003965065GA2999+012505065GD12025+0039099GD22025+0123099GF104035999051999999001991KA1240M+01611KA2120N+00001MA1100541095025MD1310031+9999MW1001REMSYN023333   10161 20000 70005AWY018303 1500 32 20002?EQDN01 00000JPWTH 0QNNE81 0 00202E81 0 00203G21U0 99999H11 0 15013H11 0 15041K21 0 00029L21 0 01500M11 0 28060N21 0 00000Q21 0 10063S21 0 00032V11 0 00504X21 0 33013
0108013170999991987042003004+60383+005333FM-12+003699999V0201401N00261030001CN0550001N9+00661+00411100441ADDAG12001AY161031AY221031GA1031+007509059GF106991031051008001071999MD1810191+9999MW1011REMSYN011333   83625
0086151580999991987100718004+46417+021633FM-12+009399999V0201101N00201090001CN0200001N9+01581+99999101661ADDAA106000091AG14000GF108991011001999999031071KA1120M+02411REMSYN017333   10241 70///
0105718340999991987031014004+49700-086950SAO  +0351YGQ  V0202101N002112200019N0240001N1-01901-02601103801ADDAG10999GD12991+0720093GF102991999999999999999999MA1103391099211MW1001REMAWY005CI1 ?EQDQ01+999990APOSP 
0115561440999991987081506004+31733+098567FM-12+320499999V0201801N00201012001CN0300001N9+01961+00521999999ADDAA106000091AG14000GF106991051011012501001021KA1240N+00451MA1999999069141MD1710241-0101REMSYN017333   05104 20045
022972553094918198701201900C+41367-096017SAO  +0399OVN  V0202905N00725010675EN0240005N1+00005-00895102165ADDAA101000095AG10999GD13995+0105099GF105055999999999999999999MA1101961097165MW1001REMAWY005NOSPLEQDN01 00000JPWTH 0QNNE11 0 00499G11 0 00035K11 0 00016L11 0 01500M11 0 28690N11 0 00000Q11 0 10216S11 0 00032V11 0 00606X11 0 29014
0083725115147111987040706004+40200-076767SAO  +0094MDT  V0202901N00361012001EN0240001N1+00611+00501999999ADDAA106000091AG10000GD14991+0120099GF108991999999999999999999MA1100541999999MW1001
0108475800999991987120123004+40700+141383FM-15+0036RJSM V0202801N00571024001CN0100001N9+00101-00301999999ADDGA1011+004509089GA2011+007509089GA3011+012009059GA4061+024009039GF107991999999999999999999MA1099731999999
0217725485149401987052114005+43150-093333SAO  +0364MCW  V0201705N006250121959N016000599+02225+01835100755ADDGD13995+9999999GD23995+9999999GF107065999999999999999999MA1999999096435EQDN01 00000JPWTH 0QNNE81 0 00499E81 0 00499G21 0 00040K21 0 00065L21 0 01000M11 0 28475N21 0 00000Q21 0 10075S21 0 00072V11 0 00908X21 0 17012
023172201012836198703011000C+24550-081750SAO  +0001EYW  V0201705N006752200059N0128005N1+02445+02225101395ADDAA101000095AG10999GD12995+0750099GF103035999999999999999999MA1101391101325MW1001EQDQ01+999990APOSP N01 00000JPWTH 0QNNE81 0 00299G21U0 99999K21 0 00072L21 0 00800M11 0 29920N21 0 00000Q21 0 10139S21 0 00076V11 0 00404X21 0 17013
0052433530999991987080301004+09950+076267FM-12+0003VOCC V0203401N00211004201CN0040001N9+02381+02381101231ADDAG12999AY161011AY251011GF108991071021004501999999
0199067020999991987053106004+46433+006100FM-12+167599999V0202901N00671220001CN0750001N9+00601+00101999999ADDAA106000091AG14000AJ100009199999999AL12400091GA1041+024009049GF104991041001999999071001GJ107569IA1259KA1120N+00571MA1999999083441MD1710071+9999ME1315239REMSYN035333   20057 41000 70004 84458 94126
0047101420999991987102113454+54000+009583FM-15+0026EDCI V0201301N00671004201CN0035001N1+01101+00801999999ADDAG12999GA1071+004209059MA1101591999999MW1101
0152413820999991987072206004+13250+043283SY-MT+0003OYMK V0201501N00801220001CN0060001N1+03201+02821100451ADDAG12000AY101061GA1011+021009039GF102991021001022501031001IA1019KA1120N+02901MA1100411999999MD1999999+0101MW1101REMSYN029333   20290 30/// 58010 81357
0162724286938241987053100004+39950-081900SAO  +0274ZZV  V0203601N002610300019N0032001N1+02171+02001101731ADDAA106008091AG10000GD12991+0105099GD24991+0300099GF108991999999999999999999KA1999M+03111MA1101801999999MD1110071+9999MW1051MW2451REMAWY022TE47 MOVD E/ 10731 88?
0281723940232731987041602003+34900-120450SAO  +0077SMX  V0202905N003650762059N0240005N1+01615+01115101645ADDAG10999GD14995+0750093GF108085999999999999999999MA1101631100765MW1001REMAWY014F BANK DSNT NWEQDN01 00599KCLC1 2N02 99999CCLHTU2N03 00000JPWTH 0QNNE11 2 00599E11 S 00699G11U2 99999G11 S 00250K11 0 00052L11 0 01500M11 0 29755N11 0 00000Q11 0 10164S11 0 00061V11 0 01010X11 0 29007
0080725065999991987043014004+41683-070967SAO  +0024EWB  V0202901N00771009001MN0320001N1+01061+00001999999ADDAG10999GD13991+0090099GF107991999999999999999999MA1099701999999MW1001OC101291
0080727572999991987040914004+48117-098900SAO  +0443DVL  V0202901N01181012001EN0240001N1+00721+00391999999ADDAG10999GD13991+0120099GF107991999999999999999999MA1100141999999MW1001OC101541
0097064040999991987021212004+51400+002433FM-12+000799999V0209991C00001220001CN0020001N9+00651+00431099891ADDAG12000GF103991001001999999001081MD1210111+9999SA1+0459UA1M000009999REMSYN01722200 00045 20000
0058476710999991987031008004+35550+139767FM-15+0006RJTT V0201301N00361999991CY0099001N1+00801-00501999999ADDAG12001MA1101801999999REMMET005CAVOKEQDQ01+000000PRSWM2
0079031600999991987092014204+55950-003350FM-15+0041EGPH V0200501N00361002101CN0112001N1+01201+01101999999ADDAG12999GA1021+001209079GA2031+002109079GA3051+003609079MA1101081999999MW1051
0089160450999991987090317004+45983+013033FM-15+0053LIPI V0209999999999220001CN0112001N1+99999+99999999999ADDAG12999GA1021+027009039MA1101291100711REMMET004SCT?EQDQ01+999990APOSP Q02+000000PRSWM2
0076478830999991987101006004+33533+133667FM-15+0010RJOK V0201301N00771024001CN0112001N1+02501+01701999999ADDAG12000GA1011+009009089GA2071+024009039MA1101731999999EQDQ01+000000PRSWM2
0051722120128331987112411004+29617-083100SAO  +0013CTY  V0200501N002119999999N9999999N9+01171+01001999999ADDAG10999REMAWY013PK WND 06 000EQDQ01+000002VOVAR 
0065107630999991987080415504+49500+011083FM-15+0312EDDN V0202601N00411999991CY0099001N1+01901+00201999999ADDAG12999MA1101491999999REMMET012CAVOK NOSIG?EQDQ01+000000PRSWM2
0083963150999991987041422304+04933+114933FM-15+0015WBSB V0209991C00001220001CN0008001N1+02201+02101999999ADDAG12999GA1011+001509079GA2031+042009039MA1101081999999MW1441REMMET011GRADU 3000?
0094601270999991987081918004+34217-004000FM-12+051099999V0209991C00001220001CN0150001N9+03801+02171100971ADDAA106000091AG14000GF100991001001999999001001KA1120M+03971MD1610071+9999REMSYN011333   10397
0162032570999991987010308004+54300-001533SY-MT+0040EGXE V0202501N00101220001CN0300001N1-00241-00431103061ADDAG12999GA1011+015009059GF101991011051017501999001MA1103011999999MD1310051+9999MW1001REMSYN011333   81650MET014CAVOK BLK/BLU?EQDQ01+000000PRSWM2Q02    003SCOMCG
006872614054742198701311100D+44417-072017SAO  +02179B2  V0203501N001519999999N9999999N9-00381-00771999999ADDAA101002595AG10999MA1099931999999REMAWY004000?EQDQ01+000002VOVAR 
025772641014837198711041100C+43133-089333SAO  +0262MSN  V0202905N00525011585MN0160005N1+01395+01175100835ADDAA101000095AG10999GD13995+0114099GD23995+0210099GF106065999999999999999999MA1100851097735MW1001EQDQ01+999990APOSP N01 00000JPWTH 0QNNE81 0 00499E81 0 00499G21 0 00038K21 0 00053L21 0 01000M11 0 28860N21 0 00000Q21 0 10083S21 0 00057V11 0 00808X21 0 29010
0198724340139941987062307084+38750-090367SAOSP+0172STL  V0202701N006210084019N0112001N1+99999+99999999999ADDAG10999GD12991+0030099GD23991+0084099GD33991+0210099GD44991+0750099GF108991999999999999999999MA1101291099241MW1001OC101181REMAWY045CB E S-NW OCNL         ?    LTGICCCCA PRESRR?EQDQ01+999990APOSP 
0058154250999991987121414004+44383+026583FM-12+004599999V0209991C00001036001CN0030001N9+00121+99999999999ADDAG12999AY121021AY221021GF108991041051008001071999MW1101
0058071470999991987080616004+48767+002200FM-15+0179LFPV V0201401N00211999991CY0099001N1+01801+00601999999ADDAG12001MA1101391999999REMMET005CAVOKEQDQ01+000000PRSWM2
0078132720999991987111722004+44817+020283FM-15+0099LYBE V0203201N00621002401CN0112001N1+00601+00601999999ADDAG12999GA1051+002409079GA2081+018009049MA1102301999999MW1601REMMET006NOSIG?
0074162630999991987061713194+41050+015233FM-16+1093LIRT V0202701N00411220001CN0112001N1+99999+99999999999ADDAG12999GA1031+004509089REMMET020SCT MON LIB VAL NIL?EQDQ01+000000PRSWM2
021572423093821198711210100C+38183-085733SAO  +0145SDF  V0203105N006752200059N0320005N1-00065-00835102455ADDAA101000095AG10999GD12995+0075099GF101015999999999999999999MA1102401100615MW1001EQDN01 00000JPWTH 0QNNE11 0 00299G11U0 99999K11 0 00017L11 0 02000M11 0 29710N11 0 00000Q11 0 10245S11 0 00031V11 0 00101X11 0 31013
0121160450999991987080318074+45983+013033FM-15+0053LIPI V0201501N00511220001CN0112001N1+02701+02301101221ADDAG12000GA1021+007509089GA2031+060009009MA1101191100611REMMET004BKN?EQDQ01+999990APOSP Q02+999990APOSLPQ03+000000PRSWM2
0152172180999991987092318004+38500+027017SY-MT+0005LTBL V0203301N00261220001CN0200001N1+01781+01101101411ADDAA106000091AG14000GF100991001001999999001001KA1999M+02701MA1101391999999MD1610041+9999MW1001REMSYN011333   10270MET012CAVOK NOSIG?EQDQ01  00003PRCP99
0304747020231101987111907003+36333-119950SAO  +0073NLC  V0201205N002152200059N0001005N1+00895+00565102535ADDAG10999GA1999+000005999GD16015+0001599GF101995999999999999999999MA1102511101665MW1055MW2455REMAWY047RVR32LNO RVR32R24 F9         ?    TWR VSBY 3/8?EQDN01 07081JPWTH 0QNNE41 0 00801G41U0 99999H41 0 00000K41 0 00042L41 0 00006C41 0 30270M41D0 30020N41 0 07081Q41 0 10253S41 0 00048V41 0 00199X41 0 12004
0116682620999991987120418004-25733+028183FM-12+130099999V0200801N00211036001CN0180001N9+01861+01511999999ADDAA124000091AG10999AY181061AY281061GF106991041091008001061031KA1120M+02921MD1210131+9999MW1171REMSYN011333   10292
0061578530999991987061800004+26733+110633FM-12+034099999V0209991C00001220001CN0100001N9+02201+01911100781ADDAA106000091AG14000GF101991011001999999041001MD1210161+9999
0058080290999991987102214304+43350-001800FM-15+0008LESO V0200701N00411999991CY0099001N1+01501+01001999999ADDAG12000MA1101391999999REMMET005CAVOKEQDQ01+000000PRSWM2
0047070270999991987020217004+49183-000450FM-15+0067LFRK V0202001N00411018001CN0025001N1+00501+00401999999ADDAG12999GA1071+018009059MW1101REMMET006NOSIG?
0074364430999991987122321004+49967+086700FM-12+205099999V0201801N00401007501CN0500001N9-00871-01361999999ADDAG12000GF105991051091008001001001MA1999999079391MD1210011+9999ME1315209
027672235003940198708092000C+32317-090083SAO  +0089JAN  V0201205N002150762059N0112005N1+03445+02285101445ADDAA101000095AG10999GD12995+0150099GD24995+0750099GF108065999999999999999999MA1101491100275MW1001REMAWY010TCU ALQDS?EQDQ01+999990APOSP N01 00000JPWTH 0QNNE81 0 00299E81 0 00699G21 0 00250K21 0 00073L21 0 00700M11 0 29610N21 0 00000Q21 0 10144S21 0 00094V11 0 01007X21 0 12004
0071714640999991987010112004+42567-080050SAO  +0175WPS  V02099999999999999999N9999999N9+00201+99999101911ADDAA106000091AG10000REMAWY0220906/-/     7011 5MMM?EQDQ01+000002VOVAR 
0065156091999991987082913304+42700+023400FM-15+0530LBSF V0202901N00621999991CY0099001N1+02501+01001999999ADDAG12999MA1101801999999REMMET012CAVOK NOSIG?EQDQ01+000000PRSWM2
0083474170999991987061006004+42917+143217FM-12+004099999V0201601N002619999999N0300001N9+02041+01351100981ADDAG12000GF107991051031999999001021KA1150M+02111MD1210021+9999REMSYN011555   00211
0092784850999991987021923004+18433-069667FM-15+0014MDSD V0201301N00261220001CN0112001N1+02501+02001101501ADDAG12999GA1021+006009089MA1101391101301EQDQ01+999990APOSP Q02+999990APOSLPQ03+000000PRSWM2
042472243012960198709270000C+29967-095350SY-SA+0029IAH  V0201405N004150243859N0160005N1+02615+01945101465ADDAA101000095AA206000091AG10000GA1999+009145085GA2999+024385035GD12025+0090099GD23035+0240099GF105055999011999999071991KA1120M+02931KA2180N+01591MA1101491101085MD1610031+9999MW1001REMSYN035333   10293 20159 555   1080/ 08106AWY012603 1170 85?EQDQ01+000052SCOTCVN01 00000JPWTH 0QNNE81 0 00202E81 0 00404G21 0 00080H11 0 11030H11 0 23080K21 0 00067L21 0 01000M11 0 29850N21 0 00000Q21 0 10146S21 0 00079V11 0 00606X21 0 14008
0094262750999991987040506004+58017+031317FM-12+002599999V0202001N00301220001CN0240001N9+00091-00371102161ADDAA106000091AG14000GF100991001001999999001001KA1120N-00101MD1710051+9999REMSYN011333   21010
0182477660999991987113000004+34233+132550SY-MT+001299999V0203301N00051030001CN0250001N1+00891+00211102541ADDAA106000091AG14000GA1051+030009039GA2061+060009009GF107991011021999999999021KA1120N+00611MA1102611999999MD1110051+9999MW1001REMSYN011333   20061EQDQ01+000002SCOMCGQ02+000000PRSWM2
0108040530999991987062206004+65700-019617FM-12+004699999V0201801N00261011101CN0650001N9+00681+00541102241ADDAG12000GA1011+007509079GA2071+011109059GF107991071051008001001001MD1210111+9999REMSYN017333   81725 87637
0093724096147061987012604004+40017-074600SAO  +0041WRI  V0200301N00411002401WN0032001N1-00711-00991101631ADDAG10999GD15991+0024099GF109991999999999999999999MA1101631999999MW1451MW2711REMAWY006LSR10?
0147671170999991987050212004-20283+044317FM-12+000899999V0202601N00211220001CN0300001N9+03031+02181101221ADDAA106000091AG10001AY101061AY201061GA1011+006009099GA2031+006009089GF103991031091008001001001MD1610091+9999MW1151REMSYN023333   81920 83820 953/1
0091101470999991987112823504+53633+010000FM-15+0016EDDH V0202901N00261001501CN0050001N1+00301+00201999999ADDAG12000GA1031+000909079GA2071+001509079MA1102101999999MW1101REMMET019TEMPO 5ST003     ??
0180111260999991987082206004+47217+011467FM-12+224799999V0201601N00151220001CN0400001N9+01181+00351999999ADDAA106000091AG14000GA1011+075009009GA2011+999999089GF101991011011999999001011GG1019999999089009KA1120N+00961MD1610041+9999REMSYN047333   20096 818// 81075 95402 96910 444   18//0
0095443040999991987121905004+47317+110667FM-12+102999999V0202301N00401220001CN0500001N9-01931-02261103642ADDAA106000091AG14999GF102991011001999999041021MA1999999090421MD1710321+9999EQDQ01+103643APOSLP
0095727347148411987062723004+45567-084800SAO  +0220PLN  V0202801N00621007501EN0480001N1+01561+00891100891ADDAG10999GD13991+0075099GD24991+0150099GF108991999999999999999999MA1100881999999MW1001OC101031
0092039800999991987122903004+55367-007333FM-12+002599999V0202201N01131220001CN0300001N9+00941+00661100551ADDAG12000GA1021+075009009GF102991001001999999001021MD1210101+9999REMSYN017333   82075 91848
0121999999999991987081800004+18900+117100FM-13+9999EOFX V0200801N00701021001CN0200001N9+03101+99999101991ADDAG12000GF105991051021022501061001MD1310111+9999SA1+3109UA1M030109999UG1100251709REMSYN02922253 00310 20302 31700 41005
0081834970999991987051206004-17633-039250FM-12+0004SBCV V0201801N00411220001CN0200001N9+02361+02261101651ADDAA106000091AG10999GF101991011021008001001001MD1999999-0101REMSYN011333   59010
0062724844999991987092715004+37800-116783SAO  +1691TNX  V0203101N002612200019N1280001N1+01281-00891999999ADDGF100991999999999999999999MA1102371999999MW1001REMAWY003210
0098722545999991987121418404+30200-097683SAOSP+0165BSM  V0203201N005110036019N0112001N1+99999+99999999999ADDAA106000091AG10000GD12991+0024099GD24991+0036099GF108991999999999999999999MA1100811999999MW1001
0038717055999991987052304004+47567-064800SAO  +0015WPJ  V0200501N005119999999N0056001N1+00701+00601101821ADDAG10999MD1210271+9999REMAWY00593MM?
0122259540999991987123012004+60350+166000FM-12+000399999V0203301N00701030001CN0450001N9-01841-02251099351ADDAA112999929AG10001AY181061AY281061GF106991021091008001031001KA1120M-01571MD1210241+9999MW1851REMSYN017333   11157 69900
0136653870999991987092209004+06167+001250FM-12+0025DXXX V0202401N00411030001CN0020001N9+02301+02271101501ADDAG12007AY161031AY261031GA1041+001209079GA2081+030009049GF108991051071001501071999MD1999999+0111MW1611REMSYN023333   58011 84704 88460
0091063440999991987010407254+51950+004433FM-15-0004EHRD V0202101N00411018001CN0112001N1+00301+00001999999ADDAG12999GA1011+012009059GA2081+018009059MA1102611999999REMMET006NOSIG?EQDQ01+000000PRSWM2
0076474790999991987030707004+43117+141383FM-15+0011RJCO V0203101N00621009001CN0112001N1+00001-00701999999ADDAG12999GA1011+003009079GA2051+009009089MA1101081999999MW1261REMMET004114?
0084064700999991987090704254+50800+005200FM-15+0075EBST V0202401N00721009001CN0112001N1+01601+01401999999ADDAG12999GA1041+003609079GA2071+009009059MA1101391999999MW1201OC101241REMMET004GRN?
0127281160999991987111612004+58983+054650FM-12+015099999V0200701N00301004201CN0060001N9-00881-00951100561ADDAG12001AY171061AY271061GA1021+999999019GF108991999071004501021999MD1710051+9999MW1711REMSYN011333   8210/EQDQ01+000082SCOTLC
0094347480999991987060706004+46700+041733FM-12+002599999V0201101N00601220001CN0200001N9+02191+01111999999ADDAA106000091AG14000GF101991001001999999001011KA1120N+01561MD1410001+9999REMSYN011333   20156
0078070700999991987092204004+49300+004033FM-15+0099LFSR V0202201N00311030001CN0112001N1+02101+01601999999ADDAG12999GA1031+018009059GA2031+030009039MA1101291999999MW1211REMMET006NOSIG?
0122718194999991987061819004+51483-055817SAO  +0005YAY  V0202501N003112200019N0240001N1+01401+00301101241ADDAG10999GD12991+0075099GD22991+0150099GD32991+0750099GF102991999999999999999999MA1101221999999MW1001REMAWY011SC2SC1CI1 ?
0134724037937281987022121004+38717-077183SAO  +0021DAA  V0202101N001510360019N0112001N1+00561-00881102161ADDAG10000GD12991+0240099GD23991+0360099GD33991+0750099GF107991999001999999071011MA1102131999999MD1610081+9999MW1001REMAWY009608 1071?
028672688024155198710210600C+45683-118850SY-SA+0452PDT  V0201405N00315220005CN0240005N9+00395-00675102005ADDAA101000095AA206000091AG14000GD10995+9999999GF100005001001999999001991KA1240M+01561KA2240N+00001MA1999999096555MD1310071+9999REMSYN017333   10156 20000EQDN01 00000JPWTH 0QNNE81 0 00099G21U0 99999K21 0 00020L21 0 01500M11 0 28510N21 0 00000Q21 0 10200S21 0 00039V11 0 00000X21 0 14006
0108105320999991987051911004+50583+008700FM-12+019599999V0200501N00311078001CN0130001N9+01791+00531101481ADDAG12999GA1011+009009089GA2071+078009009GF107991011021008001031021MD1510001+9999REMSYN017333   81830 87076
0097999999999991987101206004+57200+169500FM-13+9999UUOX V0201701N00601030001CN0200001N9+00591+99999101181ADDAG12000GF106991031011004501031001MD1710201+9999SA1+0679UA1M030109999REMSYN01722261 00067 20302
0130035580999991987061909004+52217-000483FM-12+0089EGVW V0200701N00261006001CN0120001N9+01451+01251099661ADDAG12000AY151031AY221031GA1031+003009089GA2031+006009059GF107991061081004501071021MD1710031+9999MW1031REMSYN017333   83810 83620
0303723085137501987060106003+36950-076283SAO  +0010NGU  V0202305N005752200059N0112005N1+02505+02005101655ADDAA106009091AG10000GA1999+060965999GD12035+0600099GF103995999001999999001991KA1999M+03281MA1101661101615MD1510051+9999MW1001REMAWY01450534 1001 91?EQDN01 00000JPWTH 0QNNE41 0 00204G41U0 99999H41 0 00200K41 0 00068L41 0 00700C41 0 30020M41D0 30005N41 0 00000Q41 0 10165S41 0 00077V41 0 00499X41 0 23011
0067746375999991987070207004+34917-105583SAO  +2096P70  V0202601N003119999999N9999999N9+01391+00391999999ADDAG10999REMAWY029PKWND 008/RNO 877 C-04V249 Z?EQDQ01+000002VOVAR 
0086063100999991987091823004+51450+003600FM-12+0010EHFS V0200401N00211220001CN0200001N9+01351+01091102631ADDAG12999GA1021+060009009GF102991001001999999001011MD1510011+9999REMSYN011333   82070
0047477390999991987120200004+36183+133333FM-15+0095RJNO V0209991V00261004501CN0112001N1+00201+00101999999ADDAG12000GA1051+004509089MA1101631999999MW1851
0111042020999991987110806004+76533-068750SY-MT+0077BGTL V0201201N00311220001CN0100001N9-01201-01501100471ADDAA106000091AG14000GA1041+021009049GF104991041001022501011001MA1100411999999MD1710041+9999EQDQ01  00003PRCP99
0050308660999991987021703004+51567+116667FM-12+067199999V0202601N00401220001CN0500001N9-02381-02941104391ADDAG12000GF107991001001999999001011MD1210071+9999
0150119160999991987101218004+48933+019583FM-12+201299999V0201801N01201000151CN0000001N9+00411+00411999999ADDAA112003091AG10003AY141061AY241061GA1091+000159999GF109991091999999999999999KA1120M+00441MD1610011+9999MW1631REMSYN029333   10044 60032 89/00 99744
0073102460999991987021921504+52917+010183FM-15+0088EDNF V0200301N00361006901CN0112001N1-00401-00501999999ADDAG12999GA1081+006909059MA1102101999999REMMET004WHT?EQDQ01+000000PRSWM2
0169072990999991987042000004+47600+007517FM-12+0271LFSB V0200401N00101012901CN0150001N9+01331+01161102091ADDAA106001091AG10003AY191061AY281061GA1021+009009099GA2041+012909059GA3061+030009039GF108991051091008001031999MD1610051+9999MW1251REMSYN029333   82930 84643 86360 95990
0065073350999991987091117004+46583+000317FM-15+0120LFBI V0201901N00511999991CY0099001N1+02501+01701999999ADDAG12999MA1101691999999REMMET012CAVOK NOSIG?EQDQ01+000000PRSWM2
0086237340999991987100721004+62450+066050FM-12+003899999V0209991C00001010801CN0500001N9-00171-00391102731ADDAG12000GA1071+010809059GF107991071051012501001001MD1210031+9999REMSYN011333   87636
0090152770999991987032316004+45633+024267FM-12+051799999V0203401N00301001201CN0015001N9+00141+99999999999ADDAG12999AY171011AY271011GF108991051071001501021999MW1681REMSYN023333   95991 555   6993/
011672508714752198707210300D+41733-072650SAO  +0006HFD  V0202001N002610030019N0032001N1+02331+02221999999ADDAA101000095AG10015GD16991+0001599GD23991+0030099GF107991999999999999999999MA1101461999999MW1451MW2611REMAWY003F2?
0086100200999991987072323004+55017+008417FM-12+002999999V0203401N00211003901CN0080001N9+01561+01461101531ADDAG12999GA1051+003909059GF105991051051004501001001MD1610011+9999REMSYN011333   85613
029072450003928198704200300C+37650-097433SAO  +0406ICT  V0201805N009352200059N0320005N1+02505+00835100685ADDAA101000095AG10000GA1999+076205025GD14085+0750093GF108045999001999999001991MA1100811096025MD1310141+9999MW1001REMAWY009314 1007?EQDQ01+999990APOSP N01 00000JPWTH 0QNNE81 0 00510G21U0 99999H11 0 37250K21 0 00047L21 0 02000M11 0 28355N21 0 00000Q21 0 10068S21 0 00077V11 0 01005X21 0 18018
0058163320999991987082308104+40233+018150FM-15+0061LIBN V0203501N00311220001CN0112001N1+02601+02001999999ADDAG12999GA1011+005409089REMMET004SCT?EQDQ01+000000PRSWM2
023172304093729198708221900C+35267-075550SAO  +0002HAT  V0202205N006252200059N0096005N1+03005+02175102005ADDAA101000095AG10999GD13995+0750093GF106025999999999999999999MA1102001101965MW1055EQDQ01+999990APOSP N01 08100JPWTH 0QNNE11 0 00399G11U0 99999K11 0 00071L11 0 00600M11 0 30110N11 0 08100Q11 0 10200S11 0 00086V11 0 00803X11 0 22012
0048475150999991987122304424+40550+141467FM-16+0049RJSH V0202101N00151006001CN0050001N1+99999+99999999999ADDAG12999GA1011+003609079GA2071+006009089MW1101
0087724506139861987110117004+38067-097867SAO  +0470HUT  V0201801N008210750019N0160001N1+99999+99999999999ADDAG10999GD12991+0300099GD23991+0750099GF107991999999999999999999MA1102031999999MW1001
0050296980999991987052103004+54883+099033FM-12+0410UINN V0201301N00401075001CN0200001N9+01121-00191100511ADDAG12000GF108991031001999999071041MD1710141+9999
0050599480999991987012403004+18283+109467FM-12+000599999V0200901N00401220001CN0300001N9+02591+01651102171ADDAG12000GF103991011011008001041021MD1210121+9999
0061152300999991987042700004+45883+022900FM-12+0231LRDV V0203401N00401220001CN0100001N9+00721+00001101431ADDAA106000091AG14000GF100991001001999999001001MD1210121+9999
0115825710999991987072200004-05500-045267FM-12+015399999V0200501N00051220001CN0100001N9+02511+02001101191ADDAA106000091AG10999GF100991001001999999001001KA1240M+03371MA1999999099211MD1999999-0161REMSYN017333   10337 59016
0133150440999991987062406004+47467+022783FM-12+016299999V0209991C00001220001CN0120001N9+01581+01481101731ADDAA199014091AG10000GF100991001001999999001001IA1119IA2120+01409KA1120N+01411MA1999999099831MD1110021+9999REMSYN017333   20141 32014
0131431980999991987101418004+15850+074617FM-12+0747VABM V0209991C00001220001CN0040001N9+02281+02041100991ADDAA106000091AG14001AY121061AY221061GA1011+007509099GF102991011031008001001011MD1999999-0071MW1131REMSYN023333   57945 59007 81925
0053994230999991987010310004+32550-079900FM-12+0002FBIS V0203101N003119999999N9999999N9+00091+99999102261ADDAG12999OA139900461REMSYN023333   92109 555   91000
0065994230999991987102002004+32550-079900FM-12+0002FBIS V0200401N004119999999N9999999N9+01921+99999101901ADDAG12999OA139900461REMSYN035333   92109 555   11008 22008 90200
0031161470999991987080815504+44200+012067FM-15+0032LIPK V0200701N00311220001CN0080001N1+02501+01801999999ADDAG12999MA1101591999999MW1101
0072121050999991987080521004+54200+016150FM-12+003499999V0202201N00301004201CN0100001N9+01201+01131100691ADDAG12000AY121031AY221031GF108991081091004501999999MD1410001+9999MW1251
0070678810999991987031403004-18533+032133FM-12+1430FVRU V0200301N00311220001CN0600001N9+01591+01271999999ADDAG10999GF100991001001999999001001MD1999999-0031REMSYN011333   59003
0085467500999991987121711004+22667+120450FM-15+0024RCDC V0203601N002110150019N0060001N1+02001+01801999999ADDAG12999GA1021+003609079GA2061+015009059MA1102001999999MW1101REMMET013CIG050     ??
0088577740999991987121521004+27450+112200FM-12+091699999V0209991C00001000151CN0001001N9+00021+99999102951ADDAG12002AY151031AY241031GA1091+999999999GF109991091999999999999999MD1710031+9999MW1551
0119727755241121987021603004+47500-111183SAO  +1075KGFA V0200401N002612200019N0240001N1+00281-00711101281ADDAG10000GD12991+0420099GD24991+0750093GF108991999001999999071071MA1101021999999MD1110081+9999MW1001REMAWY009108 1077?
0091946720999991987072001004-34933+138517FM-15+0004AAAD V0202001N00211075001CN0112001N1+01101+00601999999ADDAG10001GA1011+007509089GA2051+075009009MA1102301999999REMMET006NOSIG?EQDQ01+000000PRSWM2
0068911860999991987070507004+21150-157100SAO  +0137MKK  V0200601N005719999999N9999999N9+02331+01831999999ADDAG10999MA1101731999999REMAWY015PK WND 027 000?EQDQ01+000002VOVAR 
0024030340999991987071514004+57867-005633FM-12+001199999V0201301N005119999999N9999999N9+01831+01301100061ADDAG12999MD1710121+9999
0094588340999991987022818004+26650+118167FM-12+012899999V0209991C00001036001CN0130001N9+00791+00411102451ADDAA106000091AG14000GF107991071001999999041999KA1240M+01581MD1210041+9999REMSYN011333   10158
0115702740999991987050814004+61600-149083SAO  +0071PAQ  V0209991C000010090019N0320001N1+00611+00391102051ADDAG10999GD12991+0045099GD24991+0090099GF108991999999999999999999MA1102031999999MW1611REMAWY019/CIG RGD PCPN VLGT?
029470361025339198710140900C+59517-139667SAO  +0008YAK  V0200605N00265007625MN0112005N1+00395+00335101415ADDAA101000095AG10000GA1999+007625065GD13075+0075099GF107075999051999999001991MA1101421101305MD1010001+9999MW1001REMAWY0139SC 000 1500?EQDQ01+999990APOSP N01 00000JPWTH 0QNNE81 0 00409G21 0 00025H11 0 15025K21 0 00038L21 0 00700M11 0 29915N21 0 00000Q21 0 10141S21 0 00039V11 0 00909X21 0 06005
0057724676999991987010314004+39217-106867SAO  +2565ASE  V0201601N002612200019N0320001N1-01211-01711999999ADDAG10999GF100991999999999999999999MA1102571999999MW1001
0072744864999991987050722004+40733-073433SAO  +0041FRG  V0202001N00571015001EN0160001N1+01721+00671999999ADDAG10999GD13991+0150099GF107991999999999999999999MA1101021999999MW1001
0088726874999991987052409004+42900-117650SAO  +1162P88  V0203401N002619999999N9999999N9+01391+00221999999ADDAG10000MD1310602+9999REMAWY020PKWND 010/RNO 360 Z?EQDQ01+000602APC3  Q02+000002VOVAR 
0050384710999991987042918004+41900+071350FM-12+193799999V0200501N00201220001CN9999999N9-00051-00201999999ADDAG12000GF100991001001999999001001MD1110031+9999
020072551014939198709260500C+40850-096750SAO  +0359LNK  V0201705N003652200059N0240005N1+01725+01445101295ADDAA101000095AG10999GF100005999999999999999999MA1101351097075MW1001EQDN01 00000JPWTH 0QNNE81 0 00099G21U0 99999K21 0 00058L21 0 01500M11 0 28665N21 0 00000Q21 0 10129S21 0 00063V11 0 00000X21 0 17007
0069163440999991987101222164+39333+016400FM-16+1720LIBQ V0202701N01031000151CN0000001N1+99999+99999999999ADDAG12999GA1091+000159999MW1601OC101601REMMET020MON INVIS VAL INVIS?
0114612770999991987031515004+13333-004833FM-12+028499999V0202801N00211220001CN0200001N9+03971+01331100591ADDAG12000GA1031+075009009GA2011+999999039GF103991021001999999041021MD1999999+0011REMSYN023333   58001 8135/ 83075
0096825620999991987031418004-05350-049150FM-12+0102SBMA V0203201N00151007501CN0200001N9+02681+02221101081ADDAA106000091AG10999GF106991061021008001001001MA1999999099961MD1999999+0061REMSYN011333   58006
0085718134999991987062511004+50183-061800SAO  +0011YNA  V0200101N003612200019N0240001N1+01101+00501101751ADDAG10999GD12991+0300093GF102991999999999999999999MA1101761999999MW1001REMAWY004AC ?
0145722269038501987012418004+31283-085717SAO  +0091OZR  V0201701N002610150019N0112001N1+00941+00171102381ADDAA106000091AG10000GD12991+0120099GD23991+0150099GD33991+0750099GF107991999081999999071011MA1102341999999MD1810121+9999MW1001REMAWY009812 1871?
0087727935242341987050205004+47533-122300SAO  +0005BFI  V0202001N00671004501EN0112001N1+00891+00561999999ADDAG10999GD13991+0045099GD24991+0090099GF108991999999999999999999MA1101591999999MW1611
0055154210999991987121320304+44550+026100FM-15+0095LROP V0209991C00001220001CN0030001N1-01101-01101999999ADDAG12000MA1102511999999MW1101REMMET015NOSIG 08710294?
0045476390999991987042513004+35350+138733FM-12+377399999V0202401N018019999999N9999999N9+99999+99999999999ADDAG12999MA1999999063891REMSYN011555   72000
0057727964999991987092116004+48250-122683SAO  +005876S  V0209991C000012200019N0112001N1+01281+99999999999ADDAG10999GF100991999999999999999999MA1102031999999MW1001
0108724620230611987071213254+37450-105867SAOSP+2299ALS  V0200201N005112200019N0640001N1+99999+99999999999ADDAG10999GD12991+0300099GD22991+0750099GF102991999999999999999999MA1102401999999MW1001REMAWY012ACCAS ALQDS?
0106724690230621987052119414+39750-104867SAOSP+1625DEN  V0200101N00311004801MN0112001N1+99999+99999999999ADDAG10999GD14991+0048099GD24991+0090099GF108991999999999999999999MA1101961083811MW1801EQDQ01+999990APOSP 
0094283820999991987032718004+57717+071183FM-12+005699999V0202301N00201220001CN0500001N9-00691-01161102641ADDAA106000091AG14000GF100991001001999999001001KA1120M+00131MD1210011+9999REMSYN011333   10013
0118992210999991987121115004+46100-131000FM-18+0003DB21 V0203201N006019999999N9999999N9+00921+99999103851ADDAG12000MD1210181+9999OA139900901SA1+1109UA1I140529999REMSYN05322200 00110 11410 70052 333   92109 555   11064 22067
0119154360999991987081806004+00000+999999FM-12+999999999V0203601N00201220001CN0100001N9+99999+99999101861ADDAA106000091AG14000GF101991001001999999001021IA1019IA2120+00809KA1120N+00861MA1999999099961REMSYN017333   20086 30008
0063036911999991987122108504+51567+000700FM-15+0015EGMC V0202401N00621001801CN0060001N1+00901+00801999999ADDAG12000GA1051+001809079GA2081+002409079MA1102811999999MW1051
0091070030999991987061607304+50517+001617FM-15+0014LFAT V0203201N00721021001CN0112001N1+01201+01001999999ADDAG12999GA1041+006309089GA2071+021009059MA1101691999999REMMET006NOSIG?EQDQ01+000000PRSWM2
0094323890999991987060200004+56317+160833FM-12+002899999V0203201N00401075001CN0500001N9+00961-00121100551ADDAA106000091AG14000GF108991021011012501001021KA1120N+00371MD1210041+9999REMSYN011333   20037
0142716314999991987013019004+43983-080750SAO  +0415WLS  V0200101N003110021019N0012001N1-00201-00301099521ADDAG10999GD16991+0001599GD22991+0009099GD34991+0021099GF108991999999999999999999MD1610071+9999MW1001REMAWY0326007       ?    19MM(0719,3900)?
023872567024032198702231400C+42867-100550SAO  +0788VTN  V0203005N000552200059N0400005N9-00675-00945101485ADDAA101000095AG10999GD13995+9999993GF107035999999999999999999MA1101291092035REMAWY004000?EQDQ01+000002VOVAR N01 00000JPWTH 0QNNE11 0 00399G11U0 99999K11 0 00015L11 0 02500M11 0 27175N11 0 00000Q11 0 10148S11 0 00020V11 0 00904X11 0 30001
0097725335999991987052013124+40650-086150SAOSP+0247GUS  V0209991C00001001501MN0024001N1+99999+99999999999ADDAG10999ED199U18289GD14991+0015099GF108991999999999999999999MA1101521999999MW1451REMAWY005RVR60
0062013840999991987102314204+60200+011083FM-15+0204ENGM V0200101N00411007501CN0112001N1+00401+00101999999ADDAG12999GA1061+007509059MA1102301999999MW1601REMMET006NOSIG?
0061167430999991987050700004+36283+023017FM-12+016799999V0203401N01031220001CN0100001N9+01341+00681101011ADDAA106000091AG14000GF104991011021008001061021MD1810081+9999
0076061500999991987080608554+55083+011783FM-15+0004EKAV V0202901N00771007201CN0112001N1+01201+01001999999ADDAG12000GA1021+004509059GA2071+007209059MA1100611999999EQDQ01+000000PRSWM2
0097999999999991987081712004-03300+118700FM-13+9999SHIP V0201701N00261045001CN0200001N9+02901+02501101041ADDAG10999GF106991041081008001031001MD1310111+9999SA1+2909UA1M020059999REMSYN01722243 00290 20201
0196783970999991987052303004+17933-076783SY-MT+0014MKJP V0203001N00211220001CN0200001N1+02581+02371101281ADDAG12001AY111031AY211031GA1011+006009099GF104991011091008001001031MA1101221101121MD1999999+0091MW1131REMSYN023333   069/9 58009 81920MET0201012,CB+LGTN SW,NNW?EQDQ01+999990APOA  Q02+000000PRSWM2
0050571270999991987071309004+33067+107033FM-12+050999999V0209991C00001220001CN0180001N9+03011+02161100181ADDAG12000GF101991011021008001001001MD1710161+9999
