0080722215138841988052800004+30783-086517SAO  +0066CEW  V0200701N003112200019N0112001N1+02671+00561101781ADDAA106000091AG10000GF100991999999999999999999MA1101801999999MW1001REMAWY00386?
0121716278999991988081719304+45683-074033SAOSP+0082YMX  V0200101N002610021019N0024001N1+99999+99999999999ADDAG10999GD16991+0001599GD23991+0021099GD34991+0054099GF108991999999999999999999MW1451MW2801REMAWY019F1CF6SC3 VSBY SE 3?
007872595724215198802032000D+41317-122317SAO  +1080MHS  V0202901N002619999999N9999999N9+00611-00711999999ADDAA101000095AG10999MA1102841999999REMAWY014PK WND 08 000?EQDQ01+000002VOVAR 
0136916520999991988050415004-16133-179983FM-12+006399999V0200801N00151013501CN0500001N9+02631+02501101171ADDAG10999AY121031AY221031GA1021+006909089GA2031+013509059GF105991051081008001001001MD1710111+9999MW1021REMSYN023333   561// 82823 83645
0327911780225141988051409003+21317-158067SAO  +0015HNA  V0200605N004152200059N0112005N1+02335+01725101995ADDAG10000GA1999+007625999GA2999+012195999GD12035+0075099GD22035+0120099GF103995999041999999001991MA1102001101835MD1310021+9999MW1001REMAWY009302 1400?EQDN01 00000JPWTH 0QNNE41 0 00204E41 0 00204G41U0 99999H41 0 00025H41 0 00040K41 0 00063L41 0 00700C41 0 30120M41D0 30070N41 0 00000Q41 0 10199S41 0 00074V41 0 00499X41 0 06008
0116033540999991988061318004+53000-001250FM-12+011799999V0200601N00461220001CN0700001N9+01791+00671102021ADDAA106000091AG14000GA1041+060009009GF104991001001999999001041KA1120M+02041MD1510031+9999REMSYN017333   10204 84070
0172081400999991988122606004+41717-004850SY-MT+0854LEVD V0200801N003119999999N0002001N1+00341+00281999999ADDAA106000091AG14000GA1091+220009999GF109991091999999999999999GJ100009IA1099IA2999+00209KA1120N+00221MA1103011093101MD1710041+9999ME1315769REMSYN023333   20022 31002 94000
0084305070999991988042521004+54183+100083FM-12+052799999V0203201N00101030001CN0200001N9+00331-00341100931ADDAG12000GF108991999001999999031001MA1999999094601MD1710281+9999EQDQ01+000072SCOTLC
0067587650999991988081412004+27500+121500FM-12+999999999V0202001N00601220001CN0300001N9+02771+02531100641ADDAA106000091AG14001GF102991021091004501001999MD1210151+9999MW1131
0075601350999991988081619304+34050-006767FM-15+0075GMME V0203401N00361220001CN0070001N1+02401+02201999999ADDAG12999GA1021+004809059MA1101491999999REMMET006NOSIG?EQDQ01+000000PRSWM2
0058837210999991988031110004-23000-047133FM-15+0661SBKP V0201201N00311999991CY0099001N1+01901+01801999999ADDAG10999MA1101801999999REMMET005CAVOKEQDQ01+000000PRSWM2
0102766342999991988060213004+20083-098367SAO  +2181TCG  V0209991C000012200019N0048001N1+01101+00801999999ADDAG10999GD16991+0001599GF110991999999999999999999MA1102711999999MW1041MW2051MW3451REMAWY009271/FHK2?
0050167490999991988120803004+36400+028083FM-12+0011LGRP V0201201N00261036001CN0100001N9+01681+01471101511ADDAG12000GF105991031061004501051001MD1810061+9999
008374754013934198807230800D+31333-092550SAO  +0027AEX  V0203601N00101015001EN0112001N1+02331+01891101691ADDAA101000095AG10999GD13991+0150099GF107991999999999999999999MA1101691999999MW1001
0048067240999991988080803004+46317+007483FM-12+150899999V0203601N000519999999N9999999N9+01351+00951999999ADDAG12000MA1999999085351MD1710051+9999ME1315429
0109541020999991988040718004+43950+116067FM-12+099199999V0202001N00301220001CN0300001N9-00301-01241102601ADDAA106000091AG14000GF100991001001999999001001KA1240M+00011MA1999999090771MD1410001+9999REMSYN011333   10001
0087310040999991988111018004+58617+125367FM-12+068299999V0202001N00101220001CN0500001N9-02631-02871101321ADDAG12001AY171999AY221999GF106991001001999999001011MA1999999092301MD1710211+9999MW1021
0108072080999991988022718004+00000+999999FM-12+999999999V0200601N00931220001CN0200001N9+00581+99999999999ADDAA199000091AG14000AY101061AY201061GF103991999999999999999999KA1999M+00721MW1001REMSYN017333   10072 91838
0036152770999991988062120004+45633+024267FM-12+051799999V0202901N00201036001CN0150001N9+01431+99999999999ADDAG12999GF105991031041012501061001
0095785830999991988091323004+17533-088300FM-15+0005MZBZ V0203001N00261021001CN0112001N1+02501+02401999999ADDAG12999GA1011+006009089GA2051+021009039GA3071+060009009MA1100511999999MW1251REMMET007NO SIG?
0135713713999991988121718004+45517-073417SAO  +0027YHU  V0200101N005710750019N0112001N1-01501-01901101561ADDAA106000091AG10000GD12991+0210099GD24991+0750099GF108991999999999999999999MA1101521999999MD1810341+9999MW1001REMAWY014AS4CS4 8034  ?
0044103060999991988042404454+52300+007383FM-15+0049EDCE V0200201N00051220001CN0112001N1-00301-00601999999ADDAG12999MA1102301999999EQDQ01+000000PRSWM2
0116999999999991988021000004+06700-016400FM-13+9999UZYY V0200101N00301002401CN0100001N9+02671+99999100971ADDAG12000AY121061AY211061GA1091+999999999GF109991091999999999999999MD1210071+9999MW1101SA1+2409REMSYN01122233 00240
0108030030999991988060813004+59883-001300FM-12+0005EGPB V0203501N00411005101CN0450001N9+01221+00711103051ADDAG12999GA1011+004209089GA2061+005109059GF107991061081004501999021MD1110031+9999REMSYN017333   81814 86617
0121999999999991988031900004+27600-152600FM-13+9999H3AU V0200801N00261220001CN0200001N9+02201+01601102301ADDAG12000GF100991001001999999001001MD1210151+9999SA1+2009UA1M030159999UG1030153409REMSYN02922223 00200 20303 334// 40303
0072036120999991988091707004+51950-003700FM-12+031299999V0209991C00001007501CN0050001N9+01011+00821999999ADDAG12999GA1061+007509059GF106991999999008001999999REMSYN011333   86625
0050475700999991988082203004+37483+139917FM-12+021399999V0203601N002119999999N0150001N9+03041+02281100271ADDAG12000GF107991011021999999031021MD1610101+9999
0107410300999991988073115004+21483+039833FM-12+0162OEMK V0203401N00311220001CN0120001N9+03801+02001101151ADDAG12000GA1021+030009039GF102991021001999999041001MA1999999097751MD1999999-0131REMSYN017333   59013 82360
0121999999999991988120212004+45800-028100FM-13+9999PIMQ V0202801N00571002101CN0200001N9+01411+00541102131ADDAG12000GF107991071071002501001001MD1810121+9999SA1+1609UA1M030209999UG1070253209REMSYN02922224 00160 20304 332// 40705
0085994430999991988100413004+25000-080400FM-12+9999MLRF V0202701N003619999999N9999999N9+02781+99999101361ADDAG12999OA139900411SA1+2869REMSYN047222// 00286 333   92108 555   11006 22007 91300
0070833490999991988020321004-14800-039017FM-12+000599999V0209991C00001220001CN0200001N9+02741+02401101101ADDAG10999GF103991011011004501031001MD1999999+0151REMSYN011333   58015
0120712650999991988101213004+43633-079400SAO  +0077YTZ  V0203001N005110105019N0240001N1+00301-00101101661ADDAG10999GD12991+0075099GD23991+0105099GD33991+0870099GF107991999999999999999999MA1101631999999MW1001REMAWY009CU1SC5CI2
0086035270999991988021808004+52117-002300FM-12+004699999V0203001N00461009001CN0300001N9+00671+00231102891ADDAG12999GA1071+009009059GF107991071051012501999999MD1310021+9999REMSYN011333   87630
0111479180999991988060802004+24333+124167FM-15+0007ROIG V0201801N00311220001CN0112001N1+02901+02701999999ADDAG11999GA1011+002409079GA2041+045009039MA1101291999999REMMET026(WIND 150V22     ?     0)?EQDQ01+000000PRSWM2
0072317330999991988090303004+48817+135883FM-12+004199999V0201601N00301012001CN0500001N9+01531+01221101811ADDAG12001AY181031AY221031GF108991081051012501999999MD1810031+9999MW1251
0072724016937361988050413004+38133-078450SAO  +0195CHO  V0201501N00211007501EN0128001N1+01171+00831999999ADDAG10999GD14991+0075099GF108991999999999999999999MA1101691999999MW1001
0047467425999991988052915004+00000+999999FM-15+9999RCLT V0201101N00311220001CN0112001N1+02401+99999999999ADDAG12001GA1041+005409089MW1211REMMET0062) 10?
0076154450999991988102312004+00000+999999FM-12+010099999V0201101N00501007501CN0100001N9+01451+01001101781ADDAA106000091AG14000GF108991081051008001999999MA1999999100731MD1710191+9999
0114725500149421988021211094+41300-095900SAOSP+0299OMA  V0201501N00671001201WN0016001V1+99999+99999999999ADDAG10999ED114U18289GD15991+0012099GF109991999999999999999999MA1101861999999MW1711REMAWY022R14RVR60 VSBY 3/4V11/4
0164710690999991988081604004+55300-114783SAO  +0581YZH  V0201201N001010300019N0400001N1+01501+01201101601ADDAG10999GD12991+0090099GD23991+0300099GD34991+0750099GF108991999999999999999999MA1101521094741MW1001REMAWY034SC2AC6CI1        ?    TCU DSNT W ?EQDQ01+999990APOSP 
0105719430999991988073010004+56233-120733SAO  +0695YXJ  V0202501N006712200019N0480001N1+01201+00501101431ADDAG10999GD12991+0210099GF102991999999999999999999MA1101321093261MW1001REMAWY005AC3 ?EQDQ01+999990APOSP 
0098722029999991988012300004+25650-080433SAO  +0003TMB  V0203601N003612200019N0128001N1+01721+00941999999ADDAA106000091AG10000GD12991+0300099GD23991+0750093GF107991999999999999999999MA1101901999999MW1001
0155154910999991988071206004+43867+025950FM-12+002499999V0202301N00201036001CN0120001N9+01721+01691101341ADDAA199000591AG10002AY181061AY221061GF107991031031012501071001IA1099IA2120+01409KA1120N+01301MA1999999101061MD1610031+9999MW1011REMSYN017333   20130 31014
0080479310999991988020814334+26350+127767FM-16+0045RODN V0200301N005110120019N0112001N1+99999+99999999999ADDAG12999GA1031+010509059GA2031+012009059GA3031+021009049MW1801REMMET007CIG040?
0074725249999991988031602004+41550-082733SMARS+019621G  V0202901N009219999999N0166001N9-00161+99999101591ADDAG10999GF107991999999999999999999MW1001REMSYN02301    M     MARBLEHEAD?
0171074750999991988112915004+45533+004300FM-12+0402LFMH V0201601N00211027001CN0100001N9+00921+00861101861ADDAG12002AY161031AY261031GA1011+007809059GA2041+015009059GA3081+027009039GF108991999051008001071999MD1710041+9999MW1611REMSYN023333   81626 84650 88359EQDQ01+000082SCOTLC
0094343360999991988101317004+49933+040567FM-12+008399999V0200201N00201220001CN0500001N9+01081+00511103041ADDAA106000091AG14999GF106991001001999999001011KA1120M+01991MD1210081+9999REMSYN011333   10199
0057723445939931988032010004+36000-094167SAO  +0381FYV  V0202001N004112200019N0112001N1+00441+00001101801ADDAG10999GF100991999999999999999999MA1101801999999MW1001
0130024460999991988052103004+59583+016633FM-12+0031ESOW V0200201N00311010501CN0120001N9+00741+00601102021ADDAG12000AY121031AY221031GA1011+001509079GA2071+010509059GF108991081051001501999999MD1810021+9999MW1601REMSYN017333   81705 87635
0057726379148451988101207004+43533-084083SAO  +0204MBS  V0203001N004112200019N0240001N1-00051-00101101831ADDAG10999GF100991999999999999999999MA1101761999999MW1001
0057725335999991988060413004+40650-086150SAO  +0248GUS  V0209991C000012200019N0240001N1+01561+00721102151ADDAG10999GF100991999999999999999999MA1102171999999MW1001
0096303740999991988070406004+56650+117567FM-12+100099999V0200201N00201007501CN0500001N9+00921+00291999999ADDAG12000AY121061AY221061GF106991061091008001001001MA1999999089011MD1310021+9999ME1313819MW1251
0060782290999991988032904004+23133-081283FM-15+0003MUVR V0200601N00621220001CN0112001N1+02401+02101999999ADDAG12999GA1031+006009089MA1101901999999EQDQ01+000000PRSWM2
0134718320999991988073023004+49750-084167SAO  +0263WNZ  V02099999999992200019N0144001N1+01701+01301101501ADDAG10999GD12991+0111099GF102991999999999999999999MA1999999098351MW1001REMAWY03406/-/ 2019       ?    (3710,0000)?EQDQ01+999990APOSP 
0065071300999991988040208004+48067-001733FM-15+0037LFRN V0201201N00511999991CY0099001N1+00701+00501999999ADDAG12999MA1101081999999REMMET012CAVOK NOSIG?EQDQ01+000000PRSWM2
009872204012838198804112200D+28100-080650SAO  +0011MLB  V0202801N010312200019N0240001N1+02831+01441100541ADDAA101000095AG10999GD12991+0090099GD22991+0750099GF102991999999999999999999MA1100541999999MW1001
0184150840999991988022206004+00000+999999FM-12+999999999V0201401N00101036001CN0070001N9-01081-01211999999ADDAA106000091AG14000AJ199992999999999AY111061AY211061GF108991081001999999071999IA1229IA2120-00909KA1120N-01121MA1999999099541MD1610081+9999MW1101REMSYN029333   21112 3/109 46998 92000
0113353440999991988071018004+49950+060133FM-12+022999999V0209991C00001220001CN0200001N9+02051+01131100251ADDAA106000091AG14000GF102991021001999999031001KA1120N+99999MD1310101+9999REMSYN011333   20264EQDQ01 +02642ATMN  
0080471870999991988060507004+33200+126267FM-15+0027RKPM V0209991C00001220001CN0112001N1+02401+01601999999ADDAG12999GA1011+009009059MA1101421999999REMMET011QFF1014PT2?EQDQ01+000000PRSWM2
0057724240138071988090107004+37900-085967SAO  +0230FTK  V0209991C000012200019N0112001N1+01781+01061102071ADDAG10999GF100991999999999999999999MA1102101999999MW1001
0094219820999991988050218004+70967-178533FM-12+000399999V0200101N00901220001CN0400001N9-00951-01651103491ADDAA106000091AG14000GF100991001001999999001001KA1120N-01141MD1210071+9999REMSYN011333   21114
0094507560999991988121706004+47433+126967FM-12+024099999V0201801N00201090001CN0100001N9-01521-01881102321ADDAA106000091AG14000GF107991041001999999031021KA1240N-02471MD1710081+9999REMSYN011333   21247
0104992230999991988103111004+45300-082800FM-18+0003DB22 V0202201N010019999999N9999999N9+00301+99999102211ADDAG12999OA139901301SA1+0759UA1I050119999REMSYN05322200 00075 10502 70011 333   92113 555   11108 22113
0140710940999991988080407004+66583-061617SAO  +0393YVN  V0202101N003112200019N0320001N1+00801+00401099631ADDAG10999GD12991+0270099GD22991+0420099GD33991+0660093GF107991999999999999999999MA1099421094871MW1001REMAWY010AC1AC1CS3?EQDQ01+999990APOSP 
0036969870999991988072503004-08217+114383FM-12+000599999V0201801N00261220001CN0130001N9+02861+02111101311ADDAG10999GF103991031011008001001011
0122238910999991988010412004+61667+096367FM-12+0179UNKW V0209991C00001030001CN0090001N9-02701-02941103081ADDAA112000391AG10001AY171061AY221061GF108991041051012501081071KA1120M-02511MD1310101+9999MW1711REMSYN017333   11251 69932
0058477890999991988062007004+34367+132417FM-15+0006RJOA V0202101N00511999991CY0099001N1+02601+01801999999ADDAG12999MA1100751999999REMMET005CAVOKEQDQ01+000000PRSWM2
0053994370999991988080901004+43783-068850FM-12+0013MISM V0202401N005719999999N9999999N9+01821+99999101261ADDAG12999OA139900571REMSYN023333   92111 555   90100
0050370310999991988101409004+44983+041117FM-12+020899999V0200701N00601220001CN0200001N9+01801+00021102611ADDAG12000GF103991021001999999031011MD1210101+9999
0072239530999991988111612004+00000+999999FM-12+999999999V0201501N00301004201CN0500001N9-00501-00631100421ADDAG12000AY171061AY271061GF108991081001004501021999MD1710151+9999MW1221
0057161640999991988032908164+43400+010867FM-16+0575LIQV V0209991C00001024001CN0112001N1+99999+99999999999ADDAG12999GA1061+024009039REMMET003BKNEQDQ01+000000PRSWM2
0078999999999991988022612004+40400+131300FM-13+9999UGTY V0200701N00701220001CN0200001N9+00051+99999102821ADDAG12000GF101991999999000751999999MD1610131+9999SA1+0809REMSYN01122214 00080
0087714720999991988122402004+53317-132767SAO  +0014WQS  V02099999999999999999N9999999N9+00201+99999100851ADDAG10999MA1999999100681REMAWY0180901/-/     2020 ?EQDQ01+999990APOSP Q02+000002VOVAR 
0039105170999991988012823004+50700+007150FM-12+006399999V0201801N002619999999N0100001N9+00741+00601099661ADDAG12999MA1999999098881MD1710181+9999
0155135860999991988073015004+41967+021650SY-MT+0239LYSK V0200301N01101220001CN0150001N1+03461+01541101011ADDAA106000091AG14000GA1021+015009089GF102991021011017501001001MA1101081999999MD1310031+9999MW1001REMSYN017333   82850 95900MET006NOSIG?EQDQ01+000000PRSWM2
0125173700999991988052112004+36583+036167FM-12+0003LTAK V0203601N00261220001CN0100001N9+02581+01911101361ADDAA106000091AG14000AY101061AY201061GA1021+009909089GF102991021011012501001001MD1010001+9999MW1101REMSYN017333   82833 91827
0143999999999991988111812004+41300-029400FM-13+9999UUDH V0201701N01801001201CN0020001N9+01641+99999100381ADDAG12000AY151061AY251061GF108991081061001501999999MD1410001+9999MW1501SA1+1909UA1M100409999UG1110501509REMSYN02922213 00190 21008 31500 41110
0153712085999991988073116004+49833-124500SAO  +0121YPW  V0202901N004610180019N1120001N1+01401+01001102001ADDAG10999GD12991+0036099GD23991+0060093GD33991+0180099GF107991999999999999999999MA1101961999999MW1001REMAWY042SF1SC4SC2        ?    WBP WND 3218 TR SF ?
0057725316999991988092010004+39833-088867SAO  +0207DEC  V0202401N007212200019N0480001N1+01281+00831101041ADDAG10999GF100991999999999999999999MA1101081999999MW1001
0024043820999991988060709004+61933-042067FM-12+004199999V0202501N002619999999N9999999N9+00291+00161101231ADDAG12000MD1210111+9999
025672260003969198805071700C+32217-098183SAO  +0398SEP  V0201805N00625004275EN0048005N1+01945+01785999999ADDAA101000095AG10999GD13995+0042099GD24995+0750099GF108085999999999999999999MA1101321096605MW1455MW2515REMAWY011LB35 NOSPL?EQDN01 03370JPWTH 0QNNE81 0 00499E81 0 00699G21 0 00014K21 0 00064L21 0 00300M11 0 28525N21 0 03370S21 0 00067V11 0 01010X21 0 18012
0076537720999991988070102004+37783+112550FM-15+0779ZBYN V0203601N00621030001CN0112001N1+02001+01701999999ADDAG11999GA1011+003909049GA2081+030009049MA1100811999999EQDQ01+000000PRSWM2
0050540260999991988051809004+44567+120900FM-12+026699999V0201101N00301220001CN0300001N9+02771+00041100311ADDAG12000GF104991011091012501001021MD1710311+9999
0087710660999991988020821154+58617-117167SAOSP+0338YOJ  V0203601N004112200019N0240001N1+99999+99999999999ADDAG10000GD12991+0270099GD22991+0600093GF102991999999999999999999MW1001REMAWY006AC1CI?
0064585270999991988061515004+29300+117200FM-12+006099999V0203601N00101015001CN0080001N9+02381+02321100591ADDAG12002AY161031GF107991071051017501041999MD1210041+9999MW1101
0226783270999991988090900004+22733-081733FM-12+003199999V0201501N00101220001CN0120001N9+02781+02421101111ADDAA106000091AA224001291AG14000AY111061AY211061GA1011+999999089GA2011+999999099GF102991021091999999001031IA1099KA1120M+03221KA2180N+02351MD1310051+0031MW1051REMSYN059333   06909 10322 20235 31/// 57915 58003 70012 818// 819//
0066085450999991988080722004+41233-008683FM-15+0073LPPR V0203601N00361220001CN0080001N1+01601+01401102051ADDAG12999MA1102001101131MW1101EQDQ01+999990APOSP Q02+999990APOSLP
0076467450999991988032808004+22783+120267FM-15+0010RCAY V0202101N00311220001CN0048001N1+02901+02401999999ADDAG12999GA1021+005409089MA1100471999999MW1051REMMET020VIS S3     ?     N3?
0104992070999991988043023004+38500-070700FM-18+0003DB20 V0203101N009019999999N9999999N9+00981+99999101311ADDAG12999OA139901101SA1+1279UA1I060199999REMSYN05322200 00127 10604 70019 333   92111 555   11090 22094
0057742060242071988102708004+47150-122483SAO  +0098TCM  V0202201N000512200019N0112001N1+00221+00061102121ADDAG10999GF100991999999999999999999MA1102101999999MW1001
0064014030999991988101721004+59300+004883FM-12+005699999V0201801N00051007501CN0280001N9+00841+00711102611ADDAG12000GF108991061051008001071999MD1410001+9999REMSYN005222//
0050029110999991988080815004+63050+021767FM-12+0004EFVA V0203401N00771220001CN0300001N9+01981+01171101211ADDAG12000GF104991011021008001041021MD1710051+9999
0091013110999991988120109204+60300+005217FM-15+0050ENBR V0200801N00101220001CN0112001N1+99999+99999999999ADDAG10000REMMET053DIST SH 1CU025 3SC035 M03/M08 1018       ?     NOSIG?EQDQ01+000000PRSWM2
0098584370999991988081912004+30133+118150FM-12+183699999V0202501N006019999999N0300001N9+01781+01751999999ADDAA106000091AG14005AY191061AY241061GF106991031091999999041021MA1999999081491MD1210081+9999MW1171
0086063100999991988052007004+51450+003600FM-12+0010EHFS V0203501N00511220001CN0350001N9+00971+00391102381ADDAG12999GA1021+006009089GF102991021021008001031001MD1210201+9999REMSYN011333   82820
0075011520999991988081406204+67267+014367FM-15+0013ENBO V0209991C00001220001CN0112001N1+01301+01101999999ADDAG12000GA1011+015009089MA1100611999999REMMET006NOSIG?EQDQ01+000000PRSWM2
0129522670999991988060406004+41950+101067FM-12+094199999V0201801N00201015001CN0070001N9+01501+01381101311ADDAA106004091AG10012AY161061GF108991081091017501999999KA1240N+01501MA1999999090841MD1210041+0601MW1921REMSYN017333   00664 20150
031772515004725198804291400C+42217-075983SAO  +0484BGM  V0202405N005250021359N0048005N1+00335+00225100265ADDAA101000095AG10999GA1999+001225135GA2999+002135135GD12035+0012099GD24055+0021099GF108085999999999999999999MA1100141094345MW1455MW2515EQDQ01+999990APOSP N01 03370JPWTH 0QNNE81 0 00204E81 0 00606G21 0 00007H11 0 13004H11 0 13007K21 0 00036L21 0 00300M11 0 27860N21 0 03370Q21 0 10026S21 0 00038V11 0 01010X21 0 24010
0050092800999991988071311004+53550+013200FM-12+008099999V0201501N00601220001CN0300001N9+02151+01021101521ADDAG12999GF106991031021012501001061MD1810151+9999
0122999999999991988032218004+32700-025400FM-13+9999UEUA V0200801N00901036001CN0200001N9+01831+99999999999ADDAG12000GF107991021011008001051041MA1999999080201SA1+1809UA1M990009999UG1070353009REMSYN02922254 00180 2//00 33000 40707
0123118160999991988060216304+48200+017200FM-15+0130LKIB V0203301N00621015001CN0112001N1+01801+00801101291ADDAG12999GA1021+009009089GA2051+015009039MA1101291099741REMMET006NOSIG?EQDQ01+999990APOSP Q02+999990APOSLPQ03+000000PRSWM2
0101108380999991988063005004+48383+009967FM-12+0523EDZD V0202101N00151014701CN0150001N9+01491+01421101471ADDAG12999GA1061+014709059GF106991061051012501031999MA1999999095441MD1210081+9999REMSYN011333   86649
0228118160999991988071106004+48200+017200SY-MT+0130LKIB V0200601N00201220001CN0150001N1+01851+01001102181ADDAA106000091AG10000GA1021+060009009GF102991001001999999001011IA1019IA2999+00809KA1120N+01151MA1102131100601MD1310041+9999MW1001REMSYN023333   20115 30008 82070MET026PS CAVOK 18/10 1022 NOSIG?EQDQ01+999990APOA  Q02+000000PRSWM2
0094374840999991988060706004+41650+041633FM-12+000699999V0203601N00201220001CN0200001N9+02111+01471101301ADDAA106000091AG14000GF101991001001999999001011KA1120N+01411MD1210011+9999REMSYN011333   20141
0072690110999991988071317004+40200-112933SAO  +1326DPG  V0202401N002612200019N0800001N1+03281-00101101261ADDAG10999GD14991+0750093GF108991999999999999999999MA1101761999999MW1001
0127719480272021988012604004+70167-124700SAO  +0016ZUE  V0202201N001512200019N0240001N1-02801-03101102911ADDAG10999GD12991+0120099GD22991+0540093GF102991999999999999999999MA1102881102671MW1001REMAWY012SC1CS FROIN?EQDQ01+999990APOSP 
0070560160999991988042521004+34100+095033FM-12+478599999V0202001N00301012001CN0300001N9-00351-00561999999ADDAG12000GF108991081051012501999999MD1710081+0301REMSYN011333   00303
0215115410999991988031307004+48933+014450FM-12+043699999V0202701N00401003001CN0120001N9-00201-00241101321ADDAA112000691AG10999AJ100079199999999AY171011AY221011GA1051+003009079GA2071+024009039GF107991051051004501031001IA1279IA2999-00809MA1999999096081MD1210161+9999MW1011REMSYN041333   210/0 3/108 43007 69962 85710 87358
0108260460999991988032609004+59350+027417FM-12+007399999V0201801N00501001801CN0010001N9+00311+00131100771ADDAG12000AY121031AY221031GA1081+001809079GF108991081061001501999999MD1310071+9999MW1101REMSYN011333   88706
0010943930999991988121212004-21017+154367FM-12+001299999V0200801N005119999999N9999999N9+99999+99999101151ADDAG10999
0054710600999991988122501004+65617-118117SAO  +0230WOA  V02099999999999999999N9999999N9-02701-03101999999ADDAG10999REMAWY01600/-/MMMM MMMM ?EQDQ01+000002VOVAR 
0136724810232031988101903004+37383-120567SAO  +0057MER  V0203001N002112200019N0080001N1+02501+01281101401ADDAG10000GD16991+0001599GD22991+0750093GF102991999999999999001081MA1101421999999MD1110071+9999REMAWY013H1/ 107 1008?EQDQ01    003SCOLCG
0113013780999991988021318004+61083+010483FM-12+024299999V0209991C00001004201CN0250001N9-01001-01061102201ADDAA106000091AG14000GF108991081061004501999999KA1120M-00561KA2120N-01101MD1210031+9999REMSYN017333   11056 21110
0108289380999991988122312004+52733+058883FM-12+031699999V0201401N00301008001CN0020001N9-00561-00781100981ADDAG12002AY171061AY271061GA1081+008009049GF108991081001008001999999MD1710071+9999MW1731REMSYN011333   88595
0072258210999991988062215004+61917+158983FM-12+002399999V0209991C00001220001CN0500001N9+00321+00301101101ADDAG12000AY101031AY201031GF100991001001999999001001MD1210041+9999MW1121
0061471520999991988091521004+35550+129317FM-12+003399999V0200201N00211012001CN0120001N9+01971+01591100931ADDAA106000091AG14000GF105991051051012501001001MD1210031+9999
0057747185999991988031823004+32833-115567SAO  -0017IPL  V0201701N002612200019N1280001N1+02611-00161102101ADDAG10999GF100991999999999999999999MA1102101999999MW1001
0148634500999991988021718004+08983+038800FM-12+2355HAAB V0200601N00201220001CN0250001N9+01841+00641101041ADDAG12000GA1031+009009059GA2021+060009009GF105991031041008001001011KA1999M+02651MA1999999077381MD1999999+0041REMSYN029333   10265 58004 83630 82070
040772423603889198811160000C+37600-083317SAO  +0416JKL  V0201405N005750304859N0160005N1+01785+01065101685ADDAA101000095AA206000091AG10000GA1999+009145085GA2999+030485035GA3999+076205025GD12035+0090099GD23035+0300099GD34025+0750099GF108085999011999999071991KA1999M+02061MA1101731096835MD1610121+9999MW1001REMAWY012612 1178 69?EQDN01 00000JPWTH 0QNNE81 0 00204E81 0 00404E81 0 00602G21 0 00100H11 0 11030H11 0 23100H11 0 37250K21 0 00051L21 0 01000M11 0 28595N21 0 00000Q21 0 10168S21 0 00064V11 0 01010X21 0 14011
0111080450999991988090609004+42217-008633SY-MT+0256LEVX V0201901N00511220001CN0200001N1+02181+01651101921ADDAG12000GF100991001001999999001001MA1102001999999MD1610021+9999MW1001REMMET012CAVOK NOSIG?EQDQ01+000000PRSWM2
0050094800999991988091503004+51300+013100FM-12+015299999V0203401N00301220001CN0030001N9+00801+00761101901ADDAG12000GF104991041001999999071001MD1310091+9999
0142648700999991988090400004+07350+013567FM-12+1104FKKN V0209991C00001003901CN0100001N9+01781+01741999999ADDAG12007AY191061AY221061GA1061+003909059GA2011+006009099GF107991061091004501071021MD1999999+0001MW1171REMSYN029333   58000 86613 81920 95318
0116222690999991988013106004+67150+043900FM-12+001499999V0200301N00401030001CN0160001N9-00861-01051102191ADDAA106000091AG14001AY181061AY221061GF106991031091004501031001KA1120N-01181MD1310151+9999MW1021REMSYN011333   21118
0161129350999991988062812004+46917+018033FM-12+010899999V0209991C00001009001CN0040001N9+02041+01751101061ADDAA106001091AG10008AY191061AY281061GA1041+009009099GA2031+009009089GF107991071091008001999999MD1810121+9999MW1951SA1+2209REMSYN029333   60011 84930 83830 92422
0119718080999991988101609004+51450-057183SY-SA+0035YBX  V0203201N00721010501MN0240001N1-00141-00801102621ADDAG12000GD14991+0105099GF108991999999999999999999MA1102571102151MD1210261+9999REMAWY011SC10 2026 ?EQDQ01+999990APOSP 
0058687140999991988121516004-32967+018167FM-15+0000FALW V0201901N01291999991CY0099001N1+02201+01001999999ADDAG10999MA1101191999999REMMET005CAVOKEQDQ01+000000PRSWM2
0152062700999991988011402004+53217+005750FM-12+0002EHLW V0201601N00511015001CN0090001N9+00681+00171100801ADDAG11999AY121021AY221021GA1021+013209059GA2071+015009059GA3081+027009039GF108991071051012501071999MD1810061+9999MW1051REMSYN023333   82644 87650 88359
0122325090999991988071400004+54083+159950FM-12+002699999V0201701N00401004201CN0100001N9+01041+00941102531ADDAA112000391AG13000AY121061AY221061GF108991081061004501999999KA1120N+00751MD1210081+9999MW1021REMSYN017333   20075 69930
0096913760407101988081501344+07083+171383SAOSP+0003PKMJ V0200101N017519999999N9999999N9+99999+99999999999ADDAG10999REMAWY058300 BKN 12RW- 12Q1/984/CB SE       ?     MOVG W TCU ALQDS?EQDQ01+000002VOVAR 
0108035580999991988081017004+52217-000483FM-12+0089EGVW V0202201N00411042001CN0140001N9+01931+01191100891ADDAG12999GA1021+009009089GA2071+042009039GF107991021021012501071999MD1710121+9999REMSYN017333   82830 87364
0088710730999991988060918364+62717-109167SAOSP+0164WFL  V0201801N00101013501EN0560001N1+99999+99999999999ADDAG10008GD13991+0135099GD24991+0300099GF108991999999999999999999MW1611REMAWY007SC8AC1?
0204722050128151988080316003+28450-081317SAO  +0029MCO  V0201205N003152200059N0112005N1+03065+02285102105ADDAG10999GD12995+0075099GF103035999999999999999999MA1102101101735MW1001EQDN01 00000JPWTH 0QNNE81 0 00299G21U0 99999K21 0 00073L21 0 00700M11 0 30040N21 0 00000Q21 0 10210S21 0 00087V11 0 00404X21 0 12006
0058061200999991988051419504+55467+010333FM-15+0017EKOD V0200501N00211999991CY0099001N1+01101+00501999999ADDAG12999MA1102201999999REMMET005CAVOKEQDQ01+000000PRSWM2
0052999999999991988091218004+41800-066900FM-13+9999CGDK V0203101N008219999999N0200001N9+01601+99999102101ADDAG12000GA1091+999999999GF109991091999999999999999
0105718320999991988092203004+49750-084167SAO  +0263WNZ  V0209991C00001007201EN0144001N1+00601+00401101781ADDAG10000GD14991+0072099GF108991999999999999999999MA1999999098531MD1610051+9999MW1001EQDQ01+999990APOSP 
0148603900999991988020609004+36717+003250SY-MT+0025DAAG V0202201N00211220001CN0300001N1+01441+00941101851ADDAG12000GA1011+009909089GF101991011011999999001021MA1101801999999MD1810021+9999MW1001REMSYN017333   81833 95400EQDQ01+000992SCOLCBQ02+000000PRSWM2
0065308740999991988100118004+51650+117567FM-12+071599999V0201501N00101220001CN0500001N9-00561-00601102591ADDAG12000GF100991001001999999001001MA1999999093711MD1410001+9999
0065108660999991988072516504+48133+011700FM-15+0529EDDM V0200801N00151999991CY0099001N1+02401+01201999999ADDAG12999MA1102201999999REMMET012CAVOK NOSIG?EQDQ01+000000PRSWM2
052672793024233198802071200C+47450-122300SY-SA+0122SEA  V0201905N006750033559N0240005N1+00785+00725102335ADDAA101000095AA206000391AA324000391AC12C9AG10001AY161061AY251061GA1999+001525075GA2999+003355075GA3999+013725065GD12025+0015099GD23055+0033099GD34015+0135099GF108085999061999999999999KA1240M+00811KA2120N+00721MA1102301100645MD1710071+9999MW1021REMSYN029333   10081 20072 70003 90521AWY03470701 16// 45          ?    20001?EQDQ01+000003PRSWM2N01 00000JPWTH 0QNNE81 0 00203E81 0 00406E81 0 00601G21 0 00011H11 0 16005H11 0 16011H11 0 15045K21 0 00045L21 0 01500M11 0 29720N21 0 00000Q21 0 10233S21 0 00046V11 0 01010X21 0 19013
0237786150999991988071400004+16917-089883SY-MT+0115MGFL V0200601N00411030001CN0400001N1+02601+02381101251ADDAA106000091AG14006AY191061AY221061GA1021+006009059GA2061+030009049GF108991021051008001021999IA1099KA1120M+03221KA2180N+02181MA1101291099861MD1510041+0021MW1031REMSYN047333   10322 20218 31/// 5629/ 58002 82620 86460EQDQ01+000000PRSWM2
0109838420999991988063000004-25433-049267FM-12+0923SBBI V0200501N00101220001CN0100001N9+01611+01331102011ADDAA106000091AG10999GF103991001001999999001091KA1240M+02461MA1999999091621MD1110161+9999REMSYN011333   10246
032972266013962198804080000C+32417-099683SY-SA+0544ABI  V0201705N005252200059N0480005N1+02835-00335101105ADDAA101000095AA206000091AG10000GA1999+076205005GF100005999001999999001991KA1120M+02951KA2180N+00841MA1101291094905MD1610251+9999MW1001REMSYN017333   10295 20084AWY019FEW CI 625 1001 85?EQDN01 00000JPWTH 0QNNE81 0 00000G21U0 99999H11 0 32250K21 0 00026L21 0 03000M11 0 28025N21 0 00000Q21 0 10110S21 0 00083V11 0 00000X21 0 17010
0123718700999991988051509004+50283-107683SAO  +0816YYN  V0202801N006712200019N0240001N1+00701-00101101191ADDAG10000GD12991+0720093GF102991999999999999999999MA1101081091661MD1210231+9999MW1001REMAWY009CI 2023 ?EQDQ01+999990APOSP 
0108846860999991988020923004-13550-071983FM-15+3249SPZO V0209991C00001015001CN0112001N1+01401+00801999999ADDAG10001GA1031+012009049GA2021+015009089GA3031+021009049MA1102301068991EQDQ01+999990APOSP Q02+000000PRSWM2
0075477790999991988070308004+34600+135600FM-15+0013RJOY V0203301N00211030001CN0050001N1+02601+02101999999ADDAG12999GA1031+012009089GA2081+030009049MA1100581999999MW1251REMMET003BR?
0115430140999991988122412004+19850+075400FM-12+0579VAAU V0202001N00311220001CN0040001N9+02841+01671101011ADDAA106000091AG14000GF100991001001999999001001KA1120M+03001MA1999999094691MD1999999-0021REMSYN017333   10300 59002
0050064730999991988010815004+50267+005250FM-12+024499999V0201701N00461220001CN0200001N9+00421-00301102761ADDAG12000GF103991011041008001001091MD1810041+9999
0215725306148551988112913003+42083-087833SAO  +0197NBU  V0201705N00265021345EN0112005N1+00065-00445101805ADDAG10999GD14085+0210099GF108995999999999999999999MA1101691099375MW1001EQDN01 00000JPWTH 0QNNE41 0 00610G41 0 00070K41 0 00024L41 0 00700C41 0 30030M41 0 29345N41 0 00000Q41 0 10180S41 0 00033V41 0 01099X41 0 17005
0092999999999991988082600004+14700-074900FM-13+9999PPGJ V0200901N00361012001CN0200001N9+03001+02601101031ADDAG11000AY121061GF106991061041012501999999MD1110101+9999MW1021SA1+2809REMSYN01122223 00280
0160076480999991988031612004+43600+005100SY-MT+0060LFMY V0202201N00211012001CN0060001N1+01321+00961100751ADDAA106000191AG10001AY161061AY221061GA1051+012009059GA2081+030009039GF108991051051012501071999MD1710261+9999MW1011REMSYN017333   85640 88360EQDQ01+000000PRSWM2
0101062400999991988022421364+52300+004767FM-15-0002EHAM V0200201N00621013501CN0112001N1+00101-00101999999ADDAG12999GA1021+009009059GA2081+013509059MA1101291999999MW1261REMMET029TEMPO      ?     2500 4ST007?
0100999999999991988120612004+64700-036100FM-13+9999OUEK V0202201N00701001201CN0040001N9+99999+99999098321ADDAG12001AY181061AY211061GF108991071071001501071999MD1410001+9999MW1021SA1+0309REMSYN01122263 00030
0128023760999991988082106004+61267+017100FM-12+0036ESCL V0202101N00511220001CN0350001N9+01441+01041099861ADDAA106000091AG14000GA1011+033009039GF102991011001999999031081IA1019KA1120N+01121MD1110061+9999REMSYN023333   20112 30/// 81361
0129719510999991988011414004+54467-128567SAO  +0217YXT  V0200101N004110060019N0080001N1+00001-00101099041ADDAG10999GD12991+0006099GD24991+0060099GF108991999999999999999999MA1098951096421MW1661MW2701REMAWY008SF2SC8 ?EQDQ01+999990APOSP 
0057727440148581988041123004+47167-088500SAO  +0329CMX  V0202501N003112200019N0800001N1+01221-00661102091ADDAG10999GF100991999999999999999999MA1101961999999MW1001
0115533360999991988101718004+41567+108517FM-12+129099999V0209991C00001220001CN0300001N9+00151-00741102191ADDAA106000091AG14000GF100991001001999999001001KA1240M+01471MA1999999087471MD1710011-0401REMSYN017333   05403 10147
0039101430999991988110621004+54083+009933FM-12+0021EDHN V0202401N003119999999N0070001N9+00511+00391101901ADDAG12000MA1999999101641MD1210041+9999
0075167540999991988012111204+35333+025183FM-15+0039LGIR V0209991C00001220001CN0112001N1+01501+00901999999ADDAG12999GA1021+007509089MA1101901999999REMMET006NOSIG?EQDQ01+000000PRSWM2
025472203012844198802272300C+26683-080117SAO  +0006PBI  V0203005N003652200059N0160005N1+01945+00285101735ADDAA101000095AG10999GD11995+0900093GF103005999999999999999999MA1101731101645MW1001REMAWY014FEW SC E KALF?EQDQ01+999990APOSP N01 00000JPWTH 0QNNE81 0 00199G21U0 99999K21 0 00037L21 0 01000M11 0 30015N21 0 00000Q21 0 10173S21 0 00067V11 0 00400X21 0 30007
0109014970999991988041506004+59000+011533FM-12+015799999V0202201N00261004201CN0200001N9+00231-00041999999ADDAA106000091AG14000AJ199992999999999GF107991071051004501071999IA1259KA1120N+00141REMSYN017333   20014 41998
0102471105999991988041104004+37517+126983FM-15+0012RKSY V0202301N002110600019N0112001N1+01801-00501999999ADDAG12999GA1021+030009039GA2081+060009029MA1102471999999MW1001REMMET030CIG200     ?     QFF E1024PT8?
0087724094999991988101815004+40867-074283SAO  +0053CDW  V0202301N00511030001EN0112001N1+01781+01061999999ADDAG10000GD13991+0300099GD24991+0600099GF108991999999999999999999MA1101291999999MW1001
0058969350999991988100203004-07367+112767FM-12+0003WRSJ V0203601N00211220001CN0100001N9+03301+02231100991ADDAG10999AY111031AY201031GF103991011011008001001011MW1051
0157601350999991988042706004+34050-006767FM-12+0075GMME V0201801N00261004801CN0080001N9+01231+01171101941ADDAA106000091AG14000GA1021+003909089GA2051+004809059GF107991999081004501001001KA1120N+01001MD1210121+9999REMSYN023333   20100 82813 85616EQDQ01+000062SCOTLC
020072268023009198801230500C+33300-104533SAO  +1112ROW  V0202205N003152200059N0160005N1-00335-00945102565ADDAA101000095AG10999GF100005999999999999999999MA1102511089645MW1001EQDN01 00000JPWTH 0QNNE81 0 00099G21U0 99999K21 0 00015L21 0 01000M11 0 26470N21 0 00000Q21 0 10256S21 0 00026V11 0 00000X21 0 22006
021672569024089198808131100C+42917-106467SAO  +1627CPR  V0202605N002652200059N0240005N1+01065+00445101105ADDAA101000095AG10999GF100005999999999999999999MA1101731083735MW1001EQDQ01+999990APOSP N01 00000JPWTH 0QNNE81 0 00099G21U0 99999K21 0 00040L21 0 01500M11 0 24725N21 0 00000Q21 0 10110S21 0 00051V11 0 00000X21 0 26005
0078486010999991988040102304+05300+100267FM-15+0004WMKP V0200401N00261090001CN0112001N1+03001+02501999999ADDAG12000GA1011+005109099GA2051+090009009MA1101021999999MW1051REMMET006NOSIG?
0148680540999991988102915004-21217+027500SY-MT+1000FBFT V0202401N00511024001CN0300001N1+02931+01651999999ADDAG10999GA1031+010509089GA2011+012009099GA3031+024009039GA4021+999999009GF107991031091012501071031MA1101491999999MD1510001+9999EQDQ01+000000PRSWM2
0148644560999991988021215004-00017+015583FM-12+0379FCOM V0201801N00211009901CN0200001N9+03071+02251100511ADDAG10999AY191031AY221031GA1041+007809089GA2011+009909099GF106991051091008001001031MD1999999+0061MW1171REMSYN035333   58006 84826 81933 95335 95378
0084467520999991988020310004+22033+120733FM-15+0013RCKW V0200601N00721220001CN0112001N1+01901+01401999999ADDAG12999GA1011+003609089GA2031+013509059MA1101591999999OC101131EQDQ01+000000PRSWM2
0097999999999991988021206004+22700-017200FM-13+9999URUJ V0200401N00901036001CN0200001N9+01611+99999101761ADDAG12000GF106991061001999999031001MD1710041+9999SA1+1749UA1M040159999REMSYN01722200 00174 20403
0072270510999991988121412004+59967+042750FM-12+0134ULWT V0201701N00201030001CN0160001N9-01151-01281100861ADDAG12001AY171061AY271061GF106991021071004501071001MD1410001+9999MW1711
0048160590999991988031312214+45217+007650FM-16+0287LIMF V0209991V00261024001CN0070001N1+99999+99999999999ADDAG12000GA1041+009009089GA2031+024009049MW1101
0094014480999991988031006004+58067+008050FM-12+000899999V0202601N00411220001CN0220001N9-00061-00101101461ADDAA199001091AG10000GF101991011001022501061021KA1120N-00111MD1710071+9999REMSYN011333   21011
0024034150999991988111009004+52817-002683FM-12+007499999V0201701N005719999999N9999999N9+01291+01021100691ADDAG12000MD1410001+9999
0050094600999991988021101004+51383+011300FM-12+016699999V0202001N00501220001CN0300001N9+00251-00181100231ADDAG12999GF102991021081008001001001MD1810131+9999
0086992170999991988110708004+51900-155900FM-18+0003DB21 V0202801N006019999999N9999999N9+00701+99999100081ADDAG12999OA139900801SA1+0679UA1I990539999REMSYN03522200 00067 11711 70053 333   92108
0038999999999991988013101004-50950-164117FM-18+9999DRIB V02099999999999999999N9999999N9+01001+99999100171ADDAG10999SA1+1059REMSYN011333   55828
0108035020999991988081111004+52133-004567FM-12+0134EGUC V0202201N00571005401CN0220001N9+01531+01041101181ADDAG12999GA1051+005409089GA2041+027009039GF107991051081004501031021MD1010041+9999REMSYN017333   85818 84359
0090153660999991988030311004+44983+023500FM-12+017799999V0200501N00401007501CN0050001N9-00091+99999999999ADDAG12999AY171021AY271021GF108991061071008001021999MW1711REMSYN023333   95990 555   60010
0153603380999991988042718004+35283-002950SY-MT+0055GEML V0203101N00931220001CN0300001N1+01901+01091101571ADDAA106000091AG14000GF100991001001999999001001KA1120M+02101MA1101491999999MD1310011+9999MW1001OC101441REMSYN011333   10210MET005CAVOKEQDQ01+000000PRSWM2
0076442780999991988091800004+46367+097367FM-12+999999999V0209991C00001220001CN0500001N9+00251-00611102731ADDAA106000091AG14000GF100991001001999999001001MA1999999078821MD1210051+9999
023172253012921198801281000C+29533-098467SAO  +0240SAT  V0201905N002152200059N0160005N1+01005+00565103095ADDAA101000095AG10999GD11995+0750093GF102005999999999999999999MA1103151100225MW1001EQDQ01+999990APOSP N01 00000JPWTH 0QNNE81 0 00199G21U0 99999K21 0 00042L21 0 01000M11 0 29595N21 0 00000Q21 0 10309S21 0 00050V11 0 00200X21 0 19004
0143999999999991988022622004+52700-035500FM-13+9999C7C  V0201801N00901220001CN0040001N9+00681+00591104191ADDAG12999AY101999AY201999GF102991001001999999001021MD1210211+9999MW1101SA1+0519UA1M990159999UG1990252209REMSYN02922200 00051 2//03 322// 4//05
0119999999999991988071818004+38500-014800FM-13+9999ULYN V0203301N00901006001CN0200001N9+02001+99999102101ADDAG12000AY121061AY261061GF107991071081001501021999MD1710011+9999MW1151SA1+1709UA1M040109999REMSYN01722200 00170 20402
0121999999999991988081218004+36000+015600FM-13+9999GRIF V0203101N00311220001CN0100001N9+02631+02151101561ADDAG12000GF101991001001999999001081MD1410001+9999SA1+2709UA1M020059999UG1040102909REMSYN02922225 00270 20201 329// 40402
0057722359139781988053022004+33500-090083SAO  +0047GWO  V0201301N002612200019N0160001N1+03221+00831101661ADDAG10999GF100991999999999999999999MA1101661999999MW1001
0058710600999991988091419004+65617-118117SAO  +0230WOA  V0203401N002619999999N9999999N9+00601+00401101231ADDAG10999MD1510011+9999REMAWY0065001 ?EQDQ01+000002VOVAR 
0145101470999991988072208004+53633+010000FM-12+0016EDDH V0201801N00411001501CN0022001N9+01621+01551101151ADDAG12059AY161021AY221021GA1031+000909079GA2071+001509079GF108991071071000751999999MA1999999100961MD1710161+9999MW1611REMSYN017333   83703 87705
0036153350999991988011323004+45183+028817FM-12+000699999V0203201N00401220001CN0100001N9+00181+99999999999ADDAG12999GF100991001001999999001001
0107081810999991988091302304+41283+002067FM-15+0006LEBL V0203401N00211006001CN0112001N1+02101+01901999999ADDAG12000GA1051+006009089GA2011+007509099GA3061+024009039MA1101491999999REMMET006NOSIG?EQDQ01+000000PRSWM2
0100228910999991988100206004+61067+028933FM-12+003999999V0202501N00201030001CN0500001N9+00321+00191102861ADDAA106000091AG14000GF107991071001999999031001KA1120N-00061MD1210071+9999REMSYN017333   21006 3/104
0043075020999991988031220004+44533-001133FM-15+0033LFBC V0203601N00211999991CY0099001N1+00601+00301999999ADDAG12999REMMET005CAVOKEQDQ01+000000PRSWM2
0036153750999991988041105004+44933+025433FM-12+029799999V0202301N00201007501CN0120001N9+00381+99999999999ADDAG12999GF108991051051008001071999
0170037400999991988030719004+51500-001983SY-MT+0156EGDL V0202801N00101004801CN0150001N1+00581+00421102421ADDAG12999AY121011AY221011GA1011+003609089GA2081+004809059GF108991081081004501999999MA1102301999999MD1310121+9999MW1501REMSYN017333   81812 88616MET019TEMPO 5ST010     ??
0073123250999991988011306004+00000+999999FM-12+999999999V0201101N00501220001CN0008001N9-00201-00231999999ADDAG12000AY141061AY241061GF100991001001999999001001MA1999999075601MW1441
0178172920999991988072812004+37200+028350FM-12+064699999V0201801N00311030001CN0150001N9+02961+02101100231ADDAA106999929AG10010AY191061AY211061GA1011+009009099GA2031+009909089GA3061+030009039GF106991041091008001041001MA1999999093051MD1710051+9999MW1951REMSYN023333   81930 83833 86360
0102726665999991988031002004+43967-107950SAO  +1294WRL  V0203001N009310090019N0240001N1+01001+00001100701ADDAG10999GD12991+0045099GD23991+0090099GD34991+0150099GF108991999999999999999999MA1100541999999MW1001
0131171120999991988012403004+40133+026400FM-12+0003LTBH V0200501N00821030001CN0200001N9+00531+00001101061ADDAG12000GA1041+009909059GA2071+030009049GF107991041051012501071001MD1010001+9999OA149901341REMSYN029333   84633 87460 91126 91838
0074109530999991988051307504+47867+010617FM-15+0721EDSK V0203601N00211220001CN0112001N1+01501+00501999999ADDAG12999GA1011+009009089MA1100711999999REMMET005BLU+?EQDQ01+000000PRSWM2
0130038390999991988082802004+50733-003417FM-12+0030EGTE V0203401N00361002701CN0030001N9+01171+01151100771ADDAG12999AY151021AY251021GA1031+000909079GA2081+002709079GF108991081071001501999999MD1710171+9999MW1531REMSYN017333   83703 88709
0178150730999991988022806004+47233+026383FM-12+038499999V0209991C00001004201CN0008001N9-00471-00501100801ADDAA106000091AG14000AJ100169199999999AY121061AY221061GF108991081061004501999999IA1239KA1120N-00511MA1999999095981MD1710141+9999MW1461REMSYN035333   21051 3/10/ 47016 92200 90405
0079579020999991988082609004+25433+105183FM-12+137999999V0201801N00101004201CN0150001N9+01851+01701100821ADDAG12002AY161031GF108991081071004501999999MA1999999085891MD1710171+9999MW1601
0061549060999991988022300004+35250+115433FM-12+005199999V0203601N00401090001CN0150001N9-00151-00721103321ADDAA106000091AG14000GF107991001001999999001021MD1210241+9999
0254745090232441988031115003+37417-122050SAO  +0012NUQ  V0203205N003152200059N0112005N1+00945-00505101935ADDAG10000GA1999+000005999GF100995999999999999999999MA1101931101815MD1310141+9999MW1001REMAWY004314?EQDN01 00000JPWTH 0QNNE41 0 00000G41U0 99999H41 0 00000K41 0 00023L41 0 00700C41 0 30100M41D0 30065N41 0 00000Q41 0 10193S41 0 00049V41 0 00099X41 0 32006
0050267300999991988090921004+54633+025283FM-12+0189UMWW V0203301N001019999999N0100001N9+00991+00741101901ADDAG12000GF105991999999008001999999MD1810011+9999
0142710455999991988060223004+60167-132750SAO  +0705WZW  V0209991C000012200019N9999999N9+00701+00301101521ADDAG10999GD12991+0021099GD22991+0042099GF102991999999999999999999MD1710081+9999MW1001REMAWY0287008       ?    (1404,0100)?EQDQ01+000002VOVAR 
022772228013876198810050900C+33567-086750SAO  +0189BHM  V0200105N003152200059N0192005N1+00945+00785102445ADDAA101000095AG10000GF100005999999999999999999MA1102471100175MD1210071+9999MW1001REMAWY004207?EQDN01 00000JPWTH 0QNNE81 0 00099G21U0 99999K21 0 00046L21 0 01200M11 0 29580N21 0 00000Q21 0 10244S21 0 00049V11 0 00000X21 0 01006
0070767755999991988020401004+17000-096733SAO  +1528OAX  V0201001N007212200019N0112001N1+02401+00901999999ADDAG10999GF100991999999999999999999MA1102131999999MW1001REMAWY004216?
0085871210999991988011009004-26850-065100FM-12+045099999V0209991C00001220001CN0150001N9+02461+02021099961ADDAG10999GF100991001001999999001001MA1100311999999MD1310041+9999REMSYN011555   10030
0050093790999991988112123004+52383+013067FM-12+010099999V0203401N00401012001CN0200001N9-00651-00961102381ADDAG12999GF106991061021012501001001MD1210111+9999
0170062600999991988070107004+52100+005183FM-12+0004EHDB V0201601N00211030001CN0030001N9+01711+01651100021ADDAG12999AY181011AY221011GA1011+003009079GA2041+012009059GA3081+030009049GF108991041051004501071999MD1710161+9999MW1251REMSYN041333   81710 84640 88460 555   510/8 53027
0133979800999991988032706004-08467+140383FM-12+0003WAKK V0202401N00511003001CN0040001N9+02481+02421100541ADDAA106094091AG10999AY161061AY261061GA1061+003009089GA2081+030009049GF108991061011004501021999MW1621REMSYN023333   56500 86810 88460
0106716090999991988071702004+45317-065883SAO  +0107YSJ  V0202101N00411003601MN0240001N1+01301+01101101411ADDAG10999GD14991+0036099GF108991999999999999999999MA1101391100101MW1001REMAWY006SC10 ?EQDQ01+999990APOSP 
0100162640999991988033019174+41133+015517FM-16+0514LIBH V0201701N01031006001CN0112001N1+99999+99999999999ADDAG12999GA1051+006009059GA2081+027009049REMMET030OVC QUK3 QUL3 S VIS MAR 12 KM?EQDQ01+000000PRSWM2
0112433690999991988120303004+08300+073150FM-12+000299999V0209991V00051220001CN0100001N9+02941+02141101511ADDAA106000091AG14000GF100991001001999999001001KA1120N+02501MD1999999+0111REMSYN029333   20250 58011 555   10155
0073107340999991988111400004+49400+008650FM-15+0110EDIE V0203101N000510240019N0112001N1+00701+00401999999ADDAG12000GA1031+012009059GA2051+024009039MA1102951999999REMMET007CIG080?
0072704890999991988032620004+53900-166533SAO  +0004DUT  V0201801N00311009001EN0128001N1+00061-00051999999ADDAG10999GD14991+0090099GF108991999999999999999999MA1101931999999MW1001
0108273290999991988062515004+57200+039417FM-12+010299999V0200601N00101003601CN0290001N9+02131+01651101081ADDAG12006AY191031AY281031GA1051+003609079GF107991051091004501031001MD1310081+9999MW1911REMSYN011333   85712
0162711400999991988032503514+49917-099950SAOSP+0409YBR  V0202901N00411003901MN0240001N1+99999+99999999999ADDAG10001GD14991+0039099GF108991999999999999999999MW1701REMAWY096SF10?      ?PTPN?RS 0356 E12 BKN 1P0 OVC SRW- 061/77/74/1009/971/TCU         ?    ALQDS PCPN 55?
0076592090999991988111812004+23300+105950FM-12+079499999V0202701N00101012001CN0110001N9+01571+01081102641ADDAA106000091AG14000GF108991081081008001999999MA1999999093511MD1210211+9999
026772525014852198806161300C+41250-080667SAO  +0360YNG  V0200205N00265015245EN0048005N1+01945+01725101885ADDAA101000095AG10999GD13995+0150099GD23995+0240099GD34995+0750099GF108065999999999999999999MA1101931097665MW1455EQDN01 07000JPWTH 0QNNE81 0 00499E81 0 00499E81 0 00699G21 0 00050K21 0 00063L21 0 00300M11 0 28840N21 0 07000Q21 0 10188S21 0 00067V11 0 01008X21 0 02005
0047112310999991988011601164+46650+014333FM-15+0452LOWK V0203201N00101220001CN0012001N1-00501-00601999999ADDAG11999GA1011+002409079MA1102711999999MW1401
0208474340999991988110701004+42800+141667FM-15+0030RJCJ V0203201N00721021001CN0112001N1+00401-00601999999ADDAG11999GA1011+007509089GA2061+021009039MA1100911999999OC101031REMMET115098.       ?     SNSH NW-N/ FCST 0107 98012 85SNSH 5CU025 7SC045 98033       ?     33020/30KT 85SNSH 2ST015 6CU020?EQDQ01+000000PRSWM2
0146041650999991988011106004+66483-046283FM-12+233099999V0201201N01031220001CN0160001N9-02301-02641102841ADDAA106000091AG14000AY101061AY201061GF100991001001999999001001KA1240M-02051KA2240N-03011MA1099931075181MW1381REMSYN027333   11205 21301 QNH   951
0069093850999991988040508304+52383+013517FM-15+0048ETBS V0200401N00511003301CN0042001N1+00601+00401999999ADDAG12000GA1071+003309089MA1102511999999MW1051REMMET013GRADU 5CU015?
0050542590999991988100303004+42100+124950FM-12+023599999V0200201N00101220001CN0250001N9+01661+00071101991ADDAG12000GF101991011011008001001011MD1710161+9999
0087727834999991988030917004+47783-116817SAO  +0707COE  V0202101N01031004501EN0320001N1+00391+00001999999ADDAG10999GD13991+0045099GD24991+0210099GF108991999999999999999999MA1101391999999MW1001
0062275155999991988031000004+55967+037417FM-15+0190UUEE V0209991C00001008101CN0045001N1-01001-01001999999ADDAG11000GA1061+008109059MA1102201999999MW1101REMMET006NOSIG?
0123109290999991988111005004+47683+009183FM-12+0447EDTZ V0209991C00001018001CN0060001N9+00601+00451102301ADDAG11999AY121021AY221021GA1071+018009059GF108991071051017501999999MA1999999096901MD1310021+9999MW1101REMSYN011333   87656
0142718670999991988011909004+53967-101100SAO  +0271YQD  V0202801N004110075019N0240001N1-01201-01501102221ADDAG10001GD12991+0039099GD24991+0075099GF108991999999999999999999MA1101961098751MD1210211+9999MW1701REMAWY013SF4SC6 2021 ?EQDQ01+999990APOSP 
0108878520999991988092021004-46517-071017FM-12+0429SAWP V0209991C00001220001CN0500001N9+00821+00341102701ADDAG10999GA1021+006009059GA2021+009009059GF104991041051008001001001MD1110011+9999REMSYN017333   82620 82630
0091012710999991988050213204+63467+010933FM-15+0017ENVA V0202801N00211027001CN0112001N1+01001+00401999999ADDAG12999GA1021+009009089GA2051+027009039MA1100201999999REMMET006NOSIG?EQDQ01+000000PRSWM2
0068722747999991988112719004+32817-109683SAO  +0900E74  V0202401N002619999999N9999999N9+00941-00271999999ADDAG10999MD1010001+9999REMAWY016PK WND 007 000 ?EQDQ01+000002VOVAR 
0047012900999991988121322204+64467+011583FM-15+0002ENNM V0202901N00571220001CN0112001N1+00001-00801999999ADDAG12999GA1031+006009089MA1101491999999MW1261
0050237740999991988032203004+62483+086300FM-12+005899999V0203301N00301007501CN0180001N9-00381-00641102001ADDAG12000GF107991071091008001999999MD1210081+9999
0107466960999991988100701004+25067+121533FM-15+0006RCSS V0203601N00101010501CN0112001N1+02301+01701999999ADDAG11999GA1011+006009089GA2031+007509089GA3071+010509059MA1101121999999REMMET006NOSIG?EQDQ01+000000PRSWM2
0093064000999991988031716254+51083+002650FM-15+0009EBFN V0200101N00211060001CN0112001N1+00601-00101999999ADDAG12001GA1011+008409089GA2061+060009009MA1100911999999REMMET008BLU BLU?EQDQ01+000000PRSWM2
0052999999999991988091600004+61600-013400FM-13+9999ODAS V0202701N005719999999N9999999N9+01151+99999102351ADDAG12000MD1710051+9999SA1+1169REMSYN01122200 00116
0074724838999991988090814004+39100-121567SAO  +0019MYV  V0209991C000012200019N0240001N1+01441+00671100951ADDAG10999GF100991999999999999999999MA1100951999999MW1001REMAWY008K ALQDS?
0087476180999991988110918004+36250+137967FM-12+061199999V0201701N00511220001CN0120001N9+00981-00191101281ADDAG12000AY111061AY211061GF100991001001999999001001MA1999999094141MD1810091+9999MW1131
0084443020999991988051310004+47783+112117FM-12+092699999V0200201N006019999999N9999999N9+01461-00121100091ADDAG12999GF106991041031999999031031MA1999999089781MD1310041+9999EQDQ01+000992SCOLCB
0038999999999991988011420004+25417-088733FM-18+9999DRIB V02099999999999999999N9999999N9+99999+99999999999ADDAG10999SA1+2339REMSYN011333   42509
0050091700999991988060201004+54183+012083FM-12+001099999V0203001N01001004201CN0120001N9+01251+01161100801ADDAG12999GF108991051061004501071999MD1210071+9999
0126471280999991988082723004+36700+127500FM-15+0066RKTU V0202201N002110090019N0112001N1+02201+01801999999ADDAG12999GA1021+004509079GA2051+009009059GA3061+024009049MA1100241999999REMMET025CIG030/QFF102PT4       ??EQDQ01+000000PRSWM2
0072725247999991988011317004+41567-081483SAO  +0268CGF  V0203101N00771006001EN0080001N1-00601+99999999999ADDAG10999GD14991+0060099GF108991999999999999999999MA1102371999999MW1711
0072298480999991988021909004+53467+085917FM-12+027099999V0202501N00701007501CN0100001N9-00611-00921101981ADDAG12000AY131031AY221031GF108991081091008001999999MD1210111+9999MW1261
0083267020999991988081303004+54700+020617FM-12+002799999V0201501N00201030001CN0040001N9+01541+01421100841ADDAA106000091AG14000AY111031AY211031GF107991071001999999051999MD1710181+9999MW1101
0071062750999991988122518204+52067+005883FM-15+0052EHDL V0202201N00411000901CN0018001N1+01001+00901999999ADDAG12000ED199U19209GA1081+000909079MA1102611999999MW1101REMMET004YLO?
0113766131999991988061121004+20517-103317SAO  +1526GDL  V0201101N00621009001EN0112001N1+03201+00901100881ADDAG10000GD13991+0090099GF107991999999999999999999MA1101831999999MW1001REMAWY032186/ALGS AC GTS OCNLS/904/20009?
0070104350999991988100805004+51500+009183FM-12+022599999V0202401N006219999999N0100001N9+00771+00391099851ADDAG12999MA1999999097171MD1210151+9999OA149901441REMSYN011333   91128
0094478270999991988020600004+31567+130550FM-12+000599999V0203001N00311220001CN0150001N9+01051+00161101341ADDAA199999929AG10000GF101991011051999999001001KA1120N+01031MD1110251+9999REMSYN011333   20103
0167105320999991988033110004+50583+008700FM-12+019599999V0203101N00361009901CN0160001N9+00651+00481100541ADDAG12001AY121011AY221011GA1031+005409089GA2041+009909059GA3081+030009039GF108991061081008001031999MA1999999098191MD1310101+9999MW1211REMSYN023333   83818 84633 88360
0107946723999991988080406004-34950+138533FM-15+0006APAD V0203001N00511015001CN0112001N1+01201+00601999999ADDAG10999GA1011+005109079GA2031+006609089GA3061+015009059MA1102101999999REMMET006NOSIG?EQDQ01+000000PRSWM2
0140031850999991988093006004+55917-002133FM-12+007599999V0203001N00721220001CN0400001N9+00591+00111102471ADDAA106000091AG14000GA1011+007509089GF101991011081008001041001IA1019IA2999+00409KA1120N+00591MD1210211+9999REMSYN023333   20059 30004 81825
0140719640999991988081911004+60717-135067SAO  +0703YXY  V0201701N005112200019N0640001N1+00801+00401101001ADDAG10999GD12991+0180099GD22991+0300099GD33991+0750093GF107991999999999999999999MA1100881092761MW1001REMAWY010SC1AC2CI1?EQDQ01+999990APOSP 
0144915550999991988012412004-16417+167800FM-12+0022NVSL V0201301N00511220001CN0250001N9+02651+02291100851ADDAA106006091AG10999AY121061AY221061GA1041+006009089GF104991041021008001001001KA1240M+02981MD1110081+9999MW1251REMSYN023333   10298 563// 84820
0083999999999991988061012004+59400+166600FM-13+9999EWWL V0202401N00201220001CN0200001N9+00551+99999101091ADDAG12000GF102991021041008001001001SA1+0529UA1M020059999REMSYN01722200 00052 20201
0047107550999991988091720004+49317-010633FM-15+0467EDEB V0202701N002612200019N0080001N1+01001+01001999999ADDAG12999GA1041+009009059MA1102241999999MW1101
0134103050999991988081212004+52517+007317FM-12+003899999V0202201N00311009001CN0130001N9+02211+01301100921ADDAA106999929AG10001AY161061AY221061GA1051+009009089GF107991071081008001031999MA1999999100481MD1710161+9999MW1021REMSYN011333   85830
0050299550999991988061815004+52817+088450FM-12+041199999V0200801N00101220001CN0500001N9+01821+01121101181ADDAG12000GF102991021001999999031001MD1210041+9999
0119686680999991988021506004-31533+028667FM-12+0700FAUT V0209991C00001220001CN0300001N9+02081+01771999999ADDAA106000091AG10999GF104991021051012501031001KA1240M+03401KA2120N+01621MD1210101+9999REMSYN023333   20162 555   10340
0140999999999991988011218004+54000-154500FM-13+9999DUZH V0200801N00101004201CN0100001N9+00401+00401096801ADDAG12000GF108991999061004501021091MD1410001+9999SA1+1409UA1M060259999UG1100353309REMSYN02922263 00140 20605 333// 41007EQDQ01+000082SCOTLC
0050228020999991988072012004+61717+030717FM-12+001899999V0202001N00301220001CN0240001N9+02781+01741101711ADDAG12000GF102991021021008001031001MD1610011+9999
0092170560999991988071021004+40983+027483FM-12+000499999V0202801N00211220001CN0200001N9+02101+01871101301ADDAG12000GA1021+009909059GF102991021051012501001001MD1310171+9999REMSYN017333   82633 91818
0083467460999991988031102004+23467+120383FM-15+0025RCKU V0200301N001510006019N0004001N1+01701+01701999999ADDAG11999GA1091+000609999MA1101691999999MW1431REMMET027CIG002 R36CVV 1/4MI HAZ OB?
0114727830241491988061702354+46383-117017SAOSP+0438LWS  V0202901N00361030001EN0480001N1+99999+99999999999ADDAG10999GD13991+0300099GD24991+0750099GF108991999999999999999999MA1100471999999MW1171REMAWY018T SW NW MOVG N-NE?
0140719300999991988101721004+54150-115783SAO  +0782YZU  V0203001N008212200019N0240001N1+00801-00801101971ADDAG10000GD12991+0150099GF102991999999999999999999MA1101731092651MD1610061+9999MW1001OC101081REMAWY018SC4 CU EMBDD 6006?EQDQ01+999990APOSP 
0068722904231961988021118004+32567-116983SAO  +0160SDM  V0201201N006712200019N0480001N1+02391+00111999999ADDAA106000091AG10000GF100991999999999999999999MA1101961999999MW1001
0093724106137281988021201004+36567-079333SAO  +0174DAN  V0200201N00411001501EN0024001N1+00221+00061101961ADDAG10999GD13991+0015099GD24991+0024099GF108991999999999999999999MA1101931999999MW1451MW2611
0050094740999991988070503004+51883+012650FM-12+010699999V0200701N00201220001CN0150001N9+01421+01201100951ADDAG12000GF103991001001999999001011MD1810061+9999
0088471933999991988041209134+36567+127500FM-15+0079RKTE V0203601N00361220001CN0112001N1+01501+00501999999ADDAG12000GA1021+060009029MA1101351999999OC100621REMMET011QFF1013PT9?EQDQ01+000000PRSWM2
0142403100999991988102706004+30167+035783FM-12+1070OJMN V0209991C00001220001CN0100001N9+01501+01441999999ADDAA106000091AG14000GF100991001001999999001001IA1019IA2999+00809KA1120N+01041MA1999999088821MD1310151+9999ME1314749REMSYN017333   20104 30008
0083915070999991988071706004-08783+160733FM-12+0011AGGA V0200701N00101045001CN0300001N9+02671+02401100791ADDAA106999929AG10999AY181061AY221061GF107991021021008001071999MD1410001+9999MW1251
0065033340999991988091322504+53350-002267FM-15+0078EGCC V0203101N00361999991CY0099001N1+01101+00401999999ADDAG12999MA1102401999999REMMET012CAVOK NOSIG?EQDQ01+000000PRSWM2
0072106530999991988042215004+49650+009967FM-15+0298EDEU V0203201N003112200019N0112001N1+01701+00801999999ADDAG12000GA1031+010509089GA2031+060009009MA1101591999999REMMET006CIGNO?
0050545110999991988020703004+39933+116283FM-12+0055ZBAA V0203601N00401036001CN0300001N9-00251-03031103251ADDAG12000GF107991071001999999041021MD1210071+9999
0072722448139721988070115004+32350-095400SAO  +0166TYR  V0203201N004112200019N0160001N1+02941+02221999999ADDAG10000GD12991+0750093GF102991999999999999999999MA1101191999999MW1001
0163236120999991988112106004+00000+999999FM-12+999999999V0201801N00501004501CN0110001N9-01011-01291099391ADDAA112001091AG10000AY181061AY271061GA1051+004509099GF108991061091004501001011KA1120N+99999MD1210191+9999MW1851REMSYN023333   21075 60010 85915EQDQ01 -00752ATMN  
028472234013865198810121800C+32333-088750SY-SA+0088MEI  V0200105N007252200059N0112005N1+01945+00395102545ADDAA101000095AA206000091AG14000GF100005001001999999001991KA1120M+02001KA2240N+00501MA1102541101415MD1010001+9999REMSYN017333   10200 20050AWY007000 41?EQDN01 00000JPWTH 0QNNE81 0 00099G21U0 99999K21 0 00039L21 0 00700M11 0 29945N21 0 00000Q21 0 10254S21 0 00067V11 0 00000X21 0 01014
0102725065999991988010818004+41683-070967SAO  +0024EWB  V0200701N00511000901WN0032001N1-00161-00381999999ADDAA106999999AG10003GD15991+0009099GF109991999999999999999999MA1102441999999MW1711EQDQ01  00002PRCP06
0137063100999991988123012004+51450+003600FM-12+0010EHFS V0202101N00461000901CN0018001N9+00561+00541103761ADDAA106999929AG10000AY151061AY241061GA1081+000909079GF108991081061000751999999MD1810021+9999MW1511REMSYN029333   88703 555   510/8 53006
0121999999999991988030606004+37000+013800FM-13+9999DFCX V0202301N00461036001CN0100001N9+01461+01271099901ADDAG12000GF107991041071004501021999MD1510101+9999SA1+1439UA1M020059999UG1050152009REMSYN02922291 00143 20201 320// 40503
0102722029999991988011413004+25650-080433SAO  +0003TMB  V0203601N00511008401EN0096001N1+01561+01391999999ADDAG10999GD13991+0084099GD23991+0240099GD33991+0750099GF107991999999999999999999MA1102301999999MW1051
0074383450999991988102112004+42517+072250FM-12+121699999V0209999999999036001CN0200001N9+99999+99999999999ADDAG12000GF107991031051017501031001MA1999999087491MD1310021+9999ME1314639
031170273026451198802051400C+61167-150017SAO  +0035ANC  V0200105N005252200059N0320005N1-00615-01285100635ADDAA101000095AG10999GA1999+036585035GA2999+060965025GD13055+0360093GD24065+0600093GF108045999999999999999999MA1100611100125MW1001EQDQ01+999990APOSP N01 00000JPWTH 0QNNE81 0 00306E81 0 00507G21U0 99999H11 0 23120H11 0 37200K21 0 00009L21 0 02000M11 0 29565N21 0 00000Q21 0 10063S21 0 00021V11 0 01005X21 0 01010
0068722868999991988032106004+33833-116500SAO  +0141PSP  V0203101N002612200019N0480001N1+01891+99999999999ADDAA106000091AG10000GF100991999999999999999999MA1101661999999MW1001
0078746375999991988121215004+34933-105583SAO  +2109P70  V0203001N007219999999N9999999N9-00101-00431999999ADDAG10000MD1010001+9999REMAWY026PKWND 018/RNO 000 C93V252?EQDQ01+000002VOVAR 
0087722235138381988060222004+30633-088067SAO  +0008BFM  V0202801N001510750019N0112001N1+02441+02281999999ADDAG10999GD12991+0105099GD23991+0750099GF107991999999999999999999MA1101051999999MW1001
0105718480999991988033114004+53833-089867SAO  +0222WTL  V0202901N004612200019N0240001N1-01201-01501102821ADDAG10999GD12991+0075099GF102991999999999999999999MA1102611099931MW1761REMAWY005CF1 ?EQDQ01+999990APOSP 
0065167490999991988040606504+36400+028083FM-15+0011LGRP V0209991C00001999991CY0099001N1+02001-00301999999ADDAG12999MA1101801999999REMMET012CAVOK NOSIG?EQDQ01+000000PRSWM2
0089999999999991988091217004+51900+003600FM-13+9999PLAT V0203001N011319999999N0100001N9+01421+00811100981ADDAG12999MD1710161+9999SA1+1719UA1I060259999REMSYN03522200 00171 10605 333   911// 91224
0313723345938391988020308003+35350-089867SAO  +0090NQA  V0203505N001550012259N0048005N1+00395+00225102325ADDAG10999GA1999+000005999GA2999+001225999GD16015+0001599GD24085+0012099GF108995999999999999999999MA1102341101195MW1455REMAWY009F4 RCRNR?EQDN01 07000JPWTH 0QNNE41 0 00801E41 0 00610G41 0 00004H41 0 00000H41 0 00004K41 0 00036L41 0 00300C41 0 30220M41D0 29880N41 0 07000Q41 0 10232S41 0 00039V41 0 01099X41 0 35003
0058151970999991988010516004+46250+027667FM-12+017399999V0202001N00301004201CN0001001N9+00131+99999999999ADDAG11999AY141011AY241011GF106991061061004501001001MW1441
0057726563999991988062023004+44333-093317SAO  +0322FBL  V0209991C000012200019N0320001N1+03391+00831999999ADDAG10999GF100991999999999999999999MA1101491999999MW1001
0052680320999991988061401004-19983+023417FM-15+0900FBMN V0200701N00261999991CY0099001N1+01101+99999999999ADDAG10999REMMET014CAVOK 0+01017?EQDQ01+000000PRSWM2
0132712063999991988072501004+52383-126583SAO  +0035YBD  V0202701N004110270019N0192001N1+01601+01501102131ADDAG10999GD12991+0045099GD23991+0180093GD34991+0270099GF108991999999999999999999MA1102131999999MW1801REMAWY021CU2AC3AS5 TCU EMBDD ?
0255722290038811988080118003+32900-087250SAO  +0139CKL  V0200505N002152200059N0112005N1+03225+02225999999ADDAA106000091AG10000GA1999+007625085GD12025+0075099GF102025999999999999999999KA1999N+02061MA1102001999999MW1001REMAWY013/// 69 NOSPL?EQDN01 00000JPWTH 0QNNE81 0 00202G21U0 99999H11 0 11025K21 0 00072L21 0 00700N21 0 00000S21 0 00090V11 0 00202X21 0 05004
0050474300999991988070515004+41817+140750FM-12+003699999V0203601N00051220001CN0100001N9+01471+01291101021ADDAG12000GF100991001001999999001001MD1810011+9999
0094718620999991988101622334+49067-103000SAOSP+0572YEN  V0200201N00261003301BN0064001N1+99999+99999999999ADDAG10999GD13991+0033099GD24991+0060099GF108991999999999999999999MW1451MW2611REMAWY007SF7SC3?
0104992480999991988121011004+37400-122700FM-18+0003DB24 V0202901N003019999999N9999999N9+01221+99999101871ADDAG12999OA139900401SA1+1209UA1I140169999REMSYN05322200 00120 11403 70016 333   92104 555   11032 22035
0065101560999991988011222004+53817+010700FM-12+001599999V0201601N00411220001CN0100001N9+00131+00061102021ADDAG12999GF100991001001999999001001MA1999999101831MD1710071+9999
0065071570999991988060403304+49017+002533FM-15+0109LFPG V0202201N00411999991CY0099001N1+01201+00801999999ADDAG12999MA1100911999999REMMET012CAVOK NOSIG?EQDQ01+000000PRSWM2
0069943630999991988062423004-23533+148167FM-12+018099999V0201401N00261220001CN0500001N9+01551+00871102641ADDAA106000091AG10999AY101999AY201999GF100991001001999999001001MW1021
0058846910999991988120518494-13750-076283FM-15+0007SPSO V0202901N00511999991CY0099001N1+02301+01801999999ADDAG10999MA1101391999999REMMET005CAVOKEQDQ01+000000PRSWM2
0036151320999991988021923004+46683+027217FM-12+027499999V0209991C00001036001CN0100001N9+00051+99999999999ADDAG12999GF108991081001999999071999
0072284110999991988110100004+56817+053267FM-12+015899999V0202401N00701030001CN0100001N9-00761-01111100731ADDAG12001AY181061AY221061GF105991051001999999051001MD1210321+9999MW1011
0272913660406041988081807003+08733+167733SAO  +0002PKWA V0200605N009352200059N0240005N1+02895+02395101015ADDAG10999GD12995+0045099GD22995+0450099GD34995+1050093GF108035999999999999999999MA1101021100935MW1001EQDQ01+999990APOSP N01 00000JPWTH 0QNNE11 0 00299E11 0 00299E11 0 00599G11U0 99999K11 0 00075L11 0 01500M11 0 29805N11 0 00000Q11 0 10101S11 0 00084V11 0 01004X11 0 06018
0124161490999991988040705084+44033+012617FM-15+0013LIPR V0201301N00101006001CN0009001N1+00901+00801101241ADDAG12999ED199U19209GA1031+001509079GA2041+006009059MA1101191101081MW1421REMMET006NOSIG?EQDQ01+999990APOSP Q02+999990APOSLP
0072231460999991988110915004+68467+073600FM-12+000599999V0202301N008019999999N0100001N9-02001-02351101961ADDAG12001AY171031AY231031GF108991081999999999021999MD1810221+9999MW1711
0107719220999991988051719024+55150-105267SAOSP+0378YVC  V0202001N00511027001EN0240001N1+99999+99999999999ADDAG10999GD13991+0270099GD24991+0750099GF108991999999999999999999MW1801REMAWY026AC9CI1 ACC EMBDD VIRGA SE?
0061471190999991988021618004+37267+126983FM-12+003899999V0203201N00101220001CN0120001N9-00831-01511103221ADDAA106000091AG14000GF100991001001999999001001MD1710021+9999
0065134520999991988042111004+42567+018267FM-15+0165LYDU V0202101N00411999991CY0099001N1+01701+00901999999ADDAG12999MA1101491999999REMMET012CAVOK NOSIG?EQDQ01+000000PRSWM2
010772472193025198805290000D+37617-109467SAO  +18404BL  V0201601N004112200019N0800001N1+02611-00381100311ADDAA101000095AA206000091AG10000GD13991+0750093GF107991999999999999999999MW1001REMAWY019720 1001 82 /NOSPL?
0132108180999991988060807004+48100+008750FM-12+097599999V0209991C00001000151CN0001001N9+00781+00781999999ADDAG12999AY141011AY241011GA1091+000159999GF109991091999999999999999MA1999999090331MD1310061+9999ME1314759MW1471REMSYN011333   89/00
0072725046147071988012822004+41333-072050SAO  +0003GON  V0202601N006212200019N0160001N1-00271+99999999999ADDAG10999GD12991+0120099GF102991999999999999999999MA1103181999999MW1001
029172525014852198805310000C+41250-080667SAO  +0360YNG  V0203105N002652200059N0160005N1+02675+01225101925ADDAA101000095AA206000091AG10000GA1999+076205025GD14085+0750093GF108025999001999999001991MA1101961097705MD1410001+9999MW1001REMAWY015400 1007 48863?EQDN01 00000JPWTH 0QNNE81 0 00510G21U0 99999H11 0 37250K21 0 00054L21 0 01000M11 0 28850N21 0 00000Q21 0 10192S21 0 00080V11 0 01003X21 0 31005
0094598550999991988112406004+19233+110467FM-12+002599999V0200701N00301220001CN0150001N9+02481+01851101711ADDAA106000091AG14000GF104991041011008001001001KA1240N+01751MD1710311+9999REMSYN011333   20175
0075128390999991988091011004+47433+019267FM-15+0185LHBP V0209991C00001220001CN0112001N1+02101+00801999999ADDAG12999GA1021+012009089MA1102201999999REMMET006NOSIG?EQDQ01+000000PRSWM2
023172797094240198807081400C+47950-124550SAO  +0055UIL  V0209995900005000915WN0004005N1+01005+00945102045ADDAA101000095AG10999GD15995+0009099GF108085999999999999999999MA1102031101275MW1455EQDQ01+999990APOSP N01 07000JPWTH 0QNNE11 0 00799G11 0 00003K11 0 00049L11 0 00025M11 0 29905N11 0 07000Q11 0 10204S11 0 00050V11 0 01010X11 0 00000
0063103430999991988031319454+52600+010017FM-15+0047EDCL V0202701N00211018001CN0112001N1-00101-00201999999ADDAG12999GA1031+005109059GA2081+018009059MA1100411999999MW1231
0062161180999991988061720104+44767+008783FM-15+0189LIML V0201201N00151220001CN0050001N1+02001+01701999999ADDAG12999GA1041+027009039MA1101021999999MW1101REMMET006NOSIG?
0066786470999991988011923004+13917-090817FM-15+0002MGSJ V0201801N00411220001CN0112001N1+03001+02101100921ADDAG12999MA1100911100851MW1051EQDQ01+999990APOSP Q02+999990APOSLP
0121999999999991988112312004+13100-121100FM-13+9999UJGM V0200601N008019999999N0100001N9+02431+99999101201ADDAG12000GF108991999999999999999999MD1710161+9999SA1+2579UA1M060109999UG1100250609REMSYN02922222 00257 20602 30600 41005
024172504094702198808171700C+41167-073133SAO  +0003BDR  V0202405N00725030485EN0240005N1+02725+01725101155ADDAA101000095AG10999GD13995+0300099GD24995+0750099GF108065999999999999999999MA1101151101085MW1001EQDN01 00000JPWTH 0QNNE11 0 00499E11 0 00699G11 0 00100K11 0 00063L11 0 01500M11 0 29850N11 0 00000Q11 0 10115S11 0 00081V11 0 01008X11 0 24014
0087442920999991988062518004+47933+106983FM-12+131699999V0209991C00001220001CN0500001N9+01241+01121099911ADDAG12002AY161061AY221061GF100991001001999999001001MA1999999085621MD1310051+9999MW1011
0283722446939871988122215003+31233-094750SAO  +0086LFK  V0201505N004150045759N0112005N1+01835+01675102015ADDAG10000GD12995+0018099GD23995+0045099GD34995+0360099GF108085999999999999999999MA1102031100885MD1110071+9999MW1001REMAWY004107?EQDN01 00000JPWTH 0QNNE11 0 00299E11 0 00499E11 0 00699G11 0 00015K11 0 00062L11 0 00700M11 0 29790N11 0 00000Q11 0 10201S11 0 00065V11 0 01010X11 0 15008
0144710563999991988052313004+55750-120183SAO  +0655YDQ  V0209991C000010150019N0240001N1+00901+00901100461ADDAG10999GD12991+0120099GD23991+0150099GD34991+0270099GF108991999999999999999999MA1100371999999MW1001REMAWY033CF1SC8AC1 F      ?    RVR VLY E ?
0094111530999991988031209004+47850+013367FM-12+049199999V0203201N00461004201CN0080001N9+00221+00161999999ADDAG12004AY171031AY261031GA1081+004209079GF108991081061004501999999MW1631REMSYN011333   88714
0105717030999991988052823004+47150-067833SAO  +0241YSL  V0203001N002112200019N0240001N1+01701+01301101201ADDAG10999GD13991+0300093GF107991999999999999999999MA1101151098291MW1001REMAWY005AC5 ?EQDQ01+999990APOSP 
0091077900999991988020701004+42550+009483FM-15+0012LFKB V0202601N00211030001CN0112001N1+00801+00801999999ADDAG11999GA1021+009009059GA2051+030009039MA1100811999999REMMET006NOSIG?EQDQ01+000000PRSWM2
027572677024033198801080200C+45800-108533SAO  +1087BIL  V0200505N005250061059N0032005N1-01335-01565102685ADDAA101000095AG10999GD16995+0001599GD24995+0060099GF108085999999999999999999MA1101961089505MW1455MW2715REMAWY003S4?EQDQ01+999990APOSP N01 04070JPWTH 0QNNE81 0 00899E81 0 00699G21 0 00020K21 0 00004L21 0 00200M11 0 26430N21 0 04070Q21 0 10268S21 0 00008V11 0 01010X21 0 05010
0086992030999991988062804004+56300-148300FM-18+0003DB20 V0201901N003019999999N9999999N9+01031+99999102321ADDAG12999OA139900301SA1+1129UA1I990099999REMSYN03522200 00112 11702 70009 333   92103
0044545110999991988083002254+39933+116283FM-15+0055ZBAA V0209991V00101220001CN0112001N1+02801+01801999999ADDAG11999MA1101021999999EQDQ01+000000PRSWM2
0140999999999991988090412004-35200+021500FM-13+9999HO68 V0200601N00821220001CN0200001N9+01961+01611102221ADDAG10999GF101991001001999999001091MD1810251+9999SA1+1619UA1M020109999UG1110202109REMSYN02922200 00161 20202 32100 41104EQDQ01+000942SCOLCB
0068722484999991988040800004+32517-093750SAO  +0055DTN  V0209991C000012200019N0112001N1+99999+99999999999ADDAA106000091AG10000GF100991999999999999999999MA1101421999999MW1001
0129569540999991988070306004+22567+099933FM-12+105499999V0202001N00301007501CN0300001N9+02361+01981100611ADDAA106002091AG10006AY181061GF107991071091008001061999KA1240N+02081MA1999999089171MD1710121-0101MW1801REMSYN017333   05151 20208
0117101430999991988120118004+54083+009933FM-12+0021EDHN V0200901N008719999999N0090001N9-00141-00841101091ADDAA106000091AG14000KA1120M-00071MA1999999100821MD1210061+9999OA149901801OA259901081REMSYN023333   11007 91135 91221
0127266450999991988112821004+55050+026317FM-12+020999999V0201801N00401002701CN0020001N9-00451-00581100301ADDAG12002AY171031AY231031GA1081+002709079GF108991999071002501021999MD1710591+9999MW1731REMSYN011333   88709EQDQ01+000082SCOTLC
0086336640999991988032418004+48367+027100FM-12+023899999V0203601N00101220001CN0100001N9+00471+00171101531ADDAA112999929AG10000GF100991001001999999001001KA1120M+00851REMSYN017333   10085 69902
0076064650999991988062714254+51000+005067FM-15+0054EBDT V0203501N00211005401CN0020001N1+01701+01601999999ADDAG12999GA1041+003009079GA2071+005409059MA1101391999999MW1101REMMET004YLO?
0056153040999991988122314004+00000+999999FM-12+999999999V0203601N00601004201CN0100001N9+00261+99999999999ADDAG12999GF106991061051004501001001REMSYN011333   95760
0159784860999991988102712004+18433-069883FM-12+001499999V0200401N00201220001CN0160001N9+02501+02281101231ADDAA106000091AG14000GA1021+006009089GF102991021021008001001001IA1019KA1240M+03301KA2120N+02351MD1999999+0091REMSYN041333   02000 10330 20235 30/// 58009 82820
0057725776999991988040513004+43600-110733SAO  +1964JAC  V0209991C000012200019N0320001N1-00661-00771999999ADDAG10999GF100991999999999999999999MA1102201999999MW1001
0110062400999991988031203254+52300+004767FM-15-0002EHAM V0202901N00361012001CN0112001N1+00501+00301999999ADDAG12002GA1011+003609089GA2061+012009059GA3081+027009039MA1101191999999MW1601REMMET022TEMPO      ?     6000?
0091724505039231988030402004+37617-097267SAO  +0418IAB  V0200101N00101012001EN0112001N1+00061-00271101711ADDAG10999GD13991+0120099GF107991999999999999999999MA1101591999999MW1001REMAWY01001R LSR12?
0072315940999991988120903004+49417+130083FM-12+013599999V0200101N00101220001CN0020001N9-02661-02831101831ADDAG12000AY101031AY201031GF100991001001999999001001MD1710191+9999MW1101
0087948020999991988050722004-34950+117800FM-12+0069APAL V0202801N00101012001CN0300001N9+01121+01061102031ADDAG10999AY121999AY211999GF105991051081008001001001MA1999999101201MD1210081+9999MW1021
0071714640999991988052103004+42567-080050SAO  +0175WPS  V02099999999999999999N0025001N1+01201+99999101511ADDAG10000MA1999999099401REMAWY0182603/-/     0005 ?EQDQ01+999990APOSP 
0076443520999991988112303004+45733+112367FM-12+109699999V0203201N00701220001CN0500001N9-01211-01701103701ADDAA106000091AG14000GF100991001001999999001001MA1999999090021MD1110171+9999
0094285370999991988022618004+55700+057900FM-12+032699999V0201601N00101075001CN0200001N9-01591-02391105501ADDAA106000091AG14000GF107991001001999999001021KA1120M-00631MD1710101+9999REMSYN011333   11063
0107155561999991988122014304+43233+027917FM-15+0083LBWN V0202301N00101030001CN0112001N1+00401-00101999999ADDAG12000GA1041+006909059GA2041+030009039GA3071+060009029MA1100911999999REMMET006NOSIG?EQDQ01+000000PRSWM2
0038999999999991988012116004+53667-038917FM-18+9999DRIB V02099999999999999999N9999999N9+00271+99999101741ADDAG10999SA1+0449REMSYN011333   44726
0050319690999991988032615004+42650+130800FM-12+001699999V0209991C00001220001CN0200001N9-00281-00731101931ADDAG12000GF100991001001999999001001MD1210021+9999
0099727856999991988090622124+47683-117317SAOSP+0595SFF  V0202301N004610600019N0024001N1+99999+99999999999ADDAG10999GD16991+0001599GD23991+0600099GF107991999999999999999999MA1100511999999MW1041REMAWY003K7?
0112719440999991988052619254+55300-123133SAOSP+0701YZY  V0201101N002610270019N0240001N1+99999+99999999999ADDAG10999GD12991+0126099GD24991+0270099GF108991999999999999999999MW1531REMAWY031SC3AS7 CU ASOCTD SUN DMLY VSBL?
0220702510265281988021007003+62300-150100SAO  +0105TKA  V0203205N005252200059N0112005N1-01065-01565100305ADDAG10999GF100005999999999999999999MA1100201098925MW1001REMAWY006NOSPL?EQDQ01+999990APOSP N01 00000JPWTH 0QNNE11 0 00099G11U0 99999K11 0 00004L11 0 00700M11 0 29210N11 0 00000Q11 0 10030S11 0 00013V11 0 00000X11 0 32010
0121716293999991988110516004+44217-078350SAO  +0191YPQ  V0201101N005110150019N0192001N1+01401+01101099541ADDAG10999GD12991+0036099GD23991+0150099GD34991+0240099GF108991999999999999999999MA1099531999999MW1001REMAWY010CF1SC8AC1?
0070479310999991988041910004+26350+127767FM-15+0045RODN V0201601N002112200019N0060001N9+02201+01501999999ADDGA1021+000159999GA2031+075009009MA1101121999999MW1061REMMET005CIGNO
0064471070999991988020813004+37750+128950FM-15+0011RKNN V0202501N00511220001CN0112001N1-00201-01201999999ADDAG12999MA1102001999999REMMET011QFF1020PT9?EQDQ01+000000PRSWM2
0057722447039011988021202004+32383-094717SAO  +0111GGG  V0203001N005112200019N0240001N1-00321+99999999999ADDAG10999GF100991999999999999999999MA1103121999999MW1001
034091765061705198807160100C-14333-170717SAO  +0003NSTU V0200905N00625005795EN0192005N1+02785+02395101055ADDAA101000095AG10999GA1999+005795085GA2999+013725065GD13065+0057099GD23025+0135099GF107075999999999999999999MA1101051101025MW1001REMAWY020RWU E WITH LWR VSBY?EQDQ01+999990APOSP N01 00000JPWTH 0QNNE11 0 00408E11 0 00402G11 0 00019H11 0 11019H11 0 15045K11 0 00075L11 0 01200M11 0 29830N11 0 00000Q11 0 10105S11 0 00082V11 0 00909X11 0 09012
0036154700999991988100422004+44117+025000FM-12+010399999V0209991C00001036001CN0100001N9+01301+99999999999ADDAG12999GF108991041051008001071999
0146722687930331988070502004+32333-104267SAO  +1004CNM  V0201401N003610360019N0480001N1+03171+01561100781ADDAG10999GD12991+0180099GD23991+0360099GD33991+0750099GF107991999999999999999999MA1101391999999MW1001OC100721REMAWY027CB ALQDS RWU     ?    SW-W?
0109534870999991988021318004+40100+113333FM-12+106999999V0203601N00301220001CN0150001N9-01621-02291104401ADDAA106000091AG14000GF100991001001999999001001KA1240M-00451MA1999999090961MD1210161+9999REMSYN011333   11045
0036999999999991988091118004+69500-116700FM-13+9999VC67 V0201301N01031220001CN0100001N9+00501+99999101101ADDAG12000GF102991999999999999999999
0065110360999991988071523164+48117+016567FM-15+0190LOWW V0202901N00671999991CY0099001N1+01401+01001999999ADDAG12003MA1101591999999REMMET012CAVOK NOSIG?EQDQ01+000000PRSWM2
0084061100999991988071807004+55233+009267FM-15+0040EKSP V0209991C00001004501CN0050001N1+01601+01501999999ADDAG12999GA1021+001209079GA2061+004509059MA1101021999999MW1101REMMET012GRADU 8000 ?
0094171150999991988121013004+40317+027967FM-15+0049LTBG V0200201N01291009001CN0050001N1+00701+00501999999ADDAG11999GA1041+003009079GA2051+009009059GA3081+030009049MA1101391999999MW1501REMMET006NOSIG?
0084726579999991988041820004+44833-093450SAO  +0276FCM  V0203101N006712200019N0320001N1+99999+99999999999ADDAG10999GF100991999999999999999999MA1101051999999MW1001OC101081REMAWY010WND 27V35?
0102725088999991988041218004+42583-070917SAO  +0033BVY  V0200701N004112200019N0240001N1+99999+99999999999ADDAA106000091AG10000GD12991+0120099GF102991999999999999999999MA1102001999999MW1001REMAWY010WND 04V12?
0078064070999991988041905504+51200+002867FM-15+0005EBOS V0203001N00311030001CN0020001N1+01301+01201999999ADDAG12008GA1031+004809099GA2071+030009049MA1100811999999MW1611REMMET006NOSIG?
0113566840999991988090600004+26417+103283FM-12+211099999V0209991C00001007501CN0200001N9+01451+01341999999ADDAA106000091AA224001091AG14000GF108991081051008001999999MA1999999079121MD1210081-0101REMSYN017333   05101 60014
0060106180999991988082914454+49700+007333FM-15+0377EDZJ V0202501N00511220001CN0112001N1+02001+00601999999ADDAG12000GA1031+015009059MA1101021999999EQDQ01+000000PRSWM2
0214718680999991988082312004+52867-102400SY-SA+0358YHB  V0202901N00411008701MN0240001N1+01351+01161100771ADDAA106000091AA224007891AA399005091AG10000GD14991+0087099GF108991999999999999999999GJ100369KA1240M+01501KA2120N+01341MA1100711096501MD1210231+9999MW1001REMSYN035333   10150 20134 70078 555   01006AWY011SC10 2023 ?
0060102460999991988101822504+52917+010183FM-15+0088EDNF V0200501N00361075001CN0030001N1+00701+00601999999ADDAG12999GA1051+999999009MA1101691999999MW1101REMMET004YLO?
0076072490999991988030117004+47983+001750FM-15+0125LFOJ V0203401N00511012901CN0112001N1+00301-00201999999ADDAG12999GA1021+009009089GA2031+012909059MA1101021999999EQDQ01+000000PRSWM2
0119725785241451988071500004+43517-112067SAO  +1445IDA  V0202201N008812200019N0960001N1+03281+00671100851ADDAA106000091AG10000GF100991999999999999999999KA1999M+03281MA1101421999999MD1710121+9999MW1001REMAWY015FEW CU/ 712 91?
0168214050999991988061300004+75533+113517FM-12+001599999V0200201N00301002401CN0220001N9-00051-00171101521ADDAA106000091AA224000091AG14000AJ100309199999999GA1061+002409079GF107991061061002501051999IA1269KA1120N-00261MD1710021+9999REMSYN035333   21026 86708 555   42030 7000/
0113999999999991988041200004-45300-060100FM-13+9999UIAL V0202301N008019999999N0200001N9+00961+99999101761ADDAG10999GA1091+999999999GF109991091999999999999999MD1210051+9999SA1+1209UA1M040159999REMSYN01722200 00120 20403
0116061400999991988060210004+54817+011133FM-12-000199999V0202701N01001007501CN0250001N9+01301+01111999999ADDAG12999AY161999AY251999GA1021+004509059GA2061+007509059GF108991061051004501071999MW1211REMSYN017333   82615 86625
0032476710999991988111802194+35550+139767FM-16+0006RJTT V0200301N00671003301CN0070001N1+99999+99999999999ADDAG11999GA1071+003309079MW1611
0193161200999991988062406004+44417+008850FM-12+0003LIMJ V0209991C00001021001CN0040001N9+02101+01661101301ADDAA106000091AG14000AY121061AY211061GA1021+006009089GA2051+021009039GF107991021021008001051001KA1120N+02001MA1999999101271MD1810081+9999MW1101REMSYN041333   20200 82820 85357 97057 555   0100/
0061076470999991988051420004+43517+004933FM-15+0024LFMI V0202001N00211030001CN0112001N1+99999+99999999999ADDAG11999GA1011+009909059GA2071+030009039EQDQ01+000000PRSWM2
0051719664999991988052710004+64050-139133SAO  +0369WON  V02099999999999999999N9999999N9+99999+99999999999ADDAG10999REMAWY013/1/0000/949/?EQDQ01+000002VOVAR 
0072744655999991988102217004+41767-088467SAO  +0215ARR  V0203301N004112200019N0720001N1+99999+99999999999ADDAG10999GD12991+0075099GF102991999999999999999999MA1101561999999MW1001
0160963150999991988011515004+04933+114933FM-12+0015WBSB V0200701N00361006001CN0100001N9+02601+02511101151ADDAG12002AY121031AY221031GA1031+003609089GA2011+004809099GA3061+006009059GA4051+090009009GF107991061091004501071031MW1801REMSYN029333   83812 81916 86620 85080
0075788970999991988041420004+16267-061517FM-15+0008TFFR V0201401N00621220001CN0112001N1+03001+01901999999ADDAG12999GA1021+009909089MA1101391999999REMMET006NOSIG?EQDQ01+000000PRSWM2
0192105320999991988012618004+50583+008700FM-12+019599999V0201801N00461006001CN0200001N9+00691+00351100021ADDAA199002091AG10002AY181061AY221061GA1011+003909089GA2071+006009089GF107991071081004501999999KA1120M+01011MA1999999097611MD1210261+9999MW1801OA149901491REMSYN029333   10101 81813 87820 91129
0184804470999991988031500004+07850-072450FM-12+0378SVSA V0209991C00001027001CN0100001N9+02641+02181100851ADDAA106000091AG10000AY121061AY221061GA1031+006009059GA2051+027009049GF108991031051008001021999IA1019KA1240M+03101MA1101021999999MW1051REMSYN040333   10310 30/// 5699/ 83620 85459 1010
0174171500999991988020818004+39617+027917SY-MT+0102LTBF V0202001N00151220001CN0100001N1+01001+00381101781ADDAA106000091AG14000GA1031+060009009GF103991001001999999001011KA1120M+01801MA1101691999999MD1010021+9999MW1001REMSYN017333   10180 83070MET012CAVOK NOSIG?EQDQ01+000000PRSWM2
0094284510999991988032106004+56850+062717FM-12+011399999V0202701N00101220001CN0200001N9+00231-00731104291ADDAA106000091AG14000GF100991001001999999001001KA1120N-00591MD1710031+9999REMSYN011333   21059
0122718960999991988050607004+53883-122683SAO  +0691YXS  V0209991C000012200019N0480001N1+00301+00001101171ADDAG10999GD12991+0240099GD22991+0630093GF102991999999999999999999MA1100981092971MW1001REMAWY007AC1CI1?EQDQ01+999990APOSP 
040172519014771198808251800C+43117-076117SY-SA+0125SYR  V0202305N005250304859N0192005N1+02445+01445100355ADDAA101000095AA206000091AA324015791AG14000GA1999+009145085GA2999+030485035GD12035+0090099GD23045+0300099GF107075999011999999051991KA1120M+02441KA2240N+01331MA1100371098885MD1610071+9999REMSYN023333   10244 20133 70157AWY012607 1150 56?EQDN01 00000JPWTH 0QNNE81 0 00204E81 0 00405G21 0 00100H11 0 11030H11 0 23100K21 0 00058L21 0 01200M11 0 29200N21 0 00000Q21 0 10035S21 0 00076V11 0 00909X21 0 23010
0076036830999991988052112504+51883+000233FM-15+0106EGSS V0201801N00151015001CN0112001N1+01501+00201999999ADDAG12999GA1021+010509089GA2071+015009059MA1102911999999EQDQ01+000000PRSWM2
0116476720999991988041412004+34983+139867FM-12+000799999V0202301N00771220001CN0080001N9+01781+00761100881ADDAA106000091AG10000AY111061AY211061GF100991001001999999001001KA1120M+02071MD1310221+9999MW1061REMSYN011333   10207
0091725067999991988110600004+41667-070283SAO  +0016HYA  V0201101N00771001501MN0048001N1+99999+99999999999ADDAA106000091AG10000GD14991+0015099GF108991999999999999999999MA1100371999999MW1451OC101031
0086026260999991988112303004+56367+013950FM-12+008599999V0202001N00261008701CN0100001N9+00001-00111101681ADDAG12000GA1081+008709059GF108991081051008001999999MD1310021+9999REMSYN011333   88629
0039107770999991988072922004+48950+011433FM-12+053999999V0202401N003119999999N0100001N9+01211+01161101791ADDAG12999MA1999999095491MD1210271+9999
022972553094918198803131000C+41367-096017SAO  +0399OVN  V0203105N007752200059N0192005N1-01005-01225102185ADDAA101000095AG10999GD12995+0150099GF104025999999999999999999MA1101961097165MW1001REMAWY005NOSPLEQDN01 00000JPWTH 0QNNE11 0 00299G11U0 99999K11 0 00010L11 0 01200M11 0 28690N11 0 00000Q11 0 10218S11 0 00014V11 0 00503X11 0 31015
0057723419939921988062113004+33217-092817SAO  +0084ELD  V0209991C000012200019N0080001N1+02391+01831999999ADDAG10999GF100991999999999999999999MA1102001999999MW1051
0132723085137501988021522014+36933-076283SAOSP+0005NGU  V0201801N005110060019N0064001N1+99999+99999999999ADDAG10999GD12991+0012099GD22991+0030099GD34991+0060099GF108991999999999999999999MA1100581999999MW1451MW2611REMAWY015VSBY SW-W 13/4?
0072285370999991988091400004+55700+057900FM-12+032699999V0209991C00001004201CN0035001N9+00961+00921100811ADDAG12003AY181061AY281061GF108991081091004501999999MD1310021+9999MW1811
0073476420999991988100413004+35750+139350FM-15+0142RJTY V0209991C000010090019N0112001N1+01701+01301999999ADDAG12999GA1051+009009059GA2081+024009049MA1102071999999REMMET007CIG030?
0105476700999991988112206004+35433+139650FM-12+004299999V0201101N00361220001CN0080001N9+01331+00101102081ADDAG12000AY101061AY201061GF100991001001999999001001KA1150M+01441MD1510051+9999MW1051REMSYN011555   00144
0081600200999991988050900004+28467-016250FM-12+004699999V0200601N00211220001CN0300001N9+01941+01371102031ADDAA106000091AG14000GF103991001001999999001061MD1110141+9999REMSYN011333   91818
0080722137138781988011419004+31150-081383SAO  +0006SSI  V0200201N006212200019N0112001N1+00611-00051103121ADDAG10999GD13991+0750093GF107991999999999999999999MA1103121999999MW1001OC100981
0130037460999991988041503004+51167-001750FM-12+0124EGDM V0201401N00211006001CN0050001N9+00741+00491101361ADDAG12001AY161999AY221999GA1031+004209059GA2081+006009059GF108991081051004501999999MD1710241+9999MW1051REMSYN017333   83614 88620
0098943000999991988050601004-24867+113667FM-12+0007APCR V0200901N00261220001CN0300001N9+02061+01431101461ADDAA106000091AG10999AY141999AY201999GF101991011021008001001021MA1999999101381MD1110161+9999MW1021
0121152730999991988081418004+45567+022883FM-12+038199999V0209991C00001220001CN0200001N9+02821+01441101391ADDAA106000091AG14000GF102991011041012501001011IA1019KA1120M+03441MA1999999097161MD1710021+9999REMSYN017333   10344 30052
0101724285138121988052314004+39817-082933SAO  +0227LCK  V0200601N002110240019N0048001N1+02001+01721101121ADDAG10999GD12991+0090099GD23991+0240099GF107991999999999999999999MA1101191999999MW1451REMAWY005WR//?
0104742070242011988080323004+47083-122583SAO  +0092GRF  V0203601N002112200019N0400001N1+03221+00611101991ADDAG10999GD12991+0120093GD22991+0180093GF102991999999999999999999MA1102001999999MW1001REMAWY008K40 -SCT
0130034140999991988010819004+52800-002667FM-12+0076EGOS V0201601N00411015001CN0032001N9+00911+00831101331ADDAG12999AY161011AY221011GA1011+002709079GA2081+015009059GF108991081051002501999999MD1610051+9999MW1581REMSYN017333   81709 88650
0072024040999991988022300004+59667+012583FM-12+007899999V0200901N00261002101CN0040001N9-00331-00471100601ADDAG12002AY171061AY271061GF108991081071002501999999MD1710131+9999MW1731
0072690310031251988050517004+32850-114400SAO  +00981Y7  V0202701N002112200019N0400001N1+02391-00601101201ADDAG10999GF100991999999999999999999MA1101221999999MW1001REMAWY006AC NW?
0113162890999991988042010504+40850+014300FM-15+0072LIRN V0202101N00151024001CN0060001N1+01701+01001101321ADDAG12999GA1041+010509059GA2041+024009039MA1101291100471MW1101REMMET006NOSIG?EQDQ01+999990APOSP Q02+999990APOSLP
0106710690999991988120910004+55300-114783SAO  +0581YZH  V0203201N00511003301MN0160001N1-00901-01101102161ADDAG10999GD14991+0033099GF108991999999999999999999MA1101691094901MW1701REMAWY006ST10 ?EQDQ01+999990APOSP 
0058081840999991988121819304+41900+002767FM-15+0129LEGE V0203601N00101999991CY0099001N1+00401+00201999999ADDAG12999MA1102911999999REMMET005CAVOKEQDQ01+000000PRSWM2
0069359250999991988012821004+45417+056200FM-12+008299999V0201101N005019999999N0200001N9-00511-00581101741ADDAG12000GF107991999001999999021999MD1810061+9999EQDQ01+000082SCOTLC
0120766014999991988110208404+20683-105250SAOSP+0006PVR  V02099999999992200019N0096001N1+02501+99999101371ADDAG10999GD16991+0001599GD22991+0045099GF102991999999999999999999MA1101391999999MW1041MW2051REMAWY018139/HK2/951/50009?
0123103840999991988080711004+52467+013400FM-12+0049EDBB V0203301N00361003901CN0070001N9+01801+01531102001ADDAG12999AY121021AY221021GA1071+003909059GF107991071051004501999999MA1999999101421MD1810011+9999MW1101REMSYN011333   87613
0067060300999991988031806504+57100+009867FM-15+0003EKYT V0209991C00001220001CN0040001N1-00601-00601999999ADDAG12001GA1021+007509089MA1101021999999MW1111REMMET011TEMPO 0300?
0114647060999991988100612004+08617+016067FM-12+0422FTTD V0209991C00001075001CN0200001N9+03201+02201100871ADDAG12000GA1041+012009089GA2031+075009009GF105991041021012501001021MD1999999-0111REMSYN023333   59011 84840 83075
0063060660999991988020607204+55983+008350FM-15+0005EKVJ V0200801N00311003001CN0050001N1+00401+00301999999ADDAG12999GA1031+001809079GA2071+003009059MA1098711999999MW1101
0087723119138861988102815004+34850-082350SAO  +0319GMU  V0202301N005110750019N0080001N1+01671+01111999999ADDAG10000GD12991+0300099GD23991+0750099GF107991999999999999999999MA1102241999999MW1051
0050479710424021988071503004+27083+142183FM-12+0008RJAO V0202401N002619999999N0100001N9+02881+02431101061ADDAG12000GF108991031031999999031021MD1710021+9999
0092915570999991988082310004-17700+168300FM-12+002199999V0209991C00001220001CN0300001N9+02001+01931101391ADDAG10999GA1021+009009089GF102991021021012501001001MD1210131+9999REMSYN017333   562// 82830
0141043650999991988011806004+65533-037183FM-12+0327BGKK V0209991C00001220001CN0240001N9-01061-01411099231ADDAA106000091AA224001091AG14000GF100991001001999999001001KA1240M-00551KA2240N-01061MA1098681094891REMSYN033333   11055 21106 70010 QNH   914
0098284290999991988090303004+56500+057200FM-12+022999999V0209999999999004201CN0240001N9+00781+00651102031ADDAA106000091AA224000091AG14000GF108991081061004501999999MD1410001+9999REMSYN017555   20078 70000
0162719675999991988052018004+62417-140867SAO  +0649YXQ  V0202701N002610075019N0240001N1+00501+00201999999ADDAA106999999AG10007GD12991+0015099GD24991+0075099GF108991999999999999999999MA1101391999999MD1110121+9999MW1611REMAWY022ST3SC7 R- INTMT 1012 ?EQDQ01  00002PRCP06
0095718776999991988031017314+51100-114367SAOSP+1200YBW  V0203301N00931001801EN0048001N1+99999+99999999999ADDAG10999GD13991+0018099GD24991+0060099GF108991999999999999999999MW1701OC101181REMAWY006SC9SC?
0097999999999991988022500004+46400-024600FM-13+9999MNHE V0209991V00261220001CN0100001N9+01241+00971103341ADDAG12000GF100991001001999999001001MD1210121+9999SA1+1249UA1M010059999REMSYN01722262 00124 20101
0169718800999991988021501004+49617-115783SAO  +0939YXC  V0201701N007210120019N0320001N1+00201-00401101331ADDAG10999GD12991+0060099GD23991+0120099GD34991+0210099GF108991999999999999999999MA1101021090261MW1001REMAWY039CF2SC7AS1        ?    PCPN MTNS ALQDS ?EQDQ01+999990APOSP 
0072723575999991988022922004+34567-098417SAO  +0338LAW  V0200801N005112200019N0400001N1+01721+99999999999ADDAG10999GD13991+0750093GF107991999999999999999999MA1102241999999MW1001
0142616950999991988061301004+12550-016267FM-12+0023GOGG V0209991C00001069001CN0100001N9+02741+02241101251ADDAG12999AY191011AY291011GA1031+009009099GA2061+069009009GF106991031091008001001021MD1999999-0041MW1171REMSYN029333   59004 83930 86073 95313
0057722520129201988092703004+27533-099467SAO  +0156LRD  V0201001N003112200019N0240001N1+02891+01781999999ADDAG10000GF100991999999999999999999MA1101691999999MW1001
0085726120999991988081809004+44933-072200SAO  +02339B2  V0203201N002119999999N9999999N9+99999+99999999999ADDAG10000MA1100641999999REMAWY032WND E34 //?           = 40  3322EQDQ01+000002VOVAR 
0059725386999991988030403004+44017-082800SAO  +0183P58  V0200201N004119999999N9999999N9-00431-01551999999ADDAG10000REMAWY021PK WND 16 ///453 RNO?EQDQ01+000002VOVAR 
0088033380999991988011600004+53033-002083FM-12+022899999V0201501N00051000151CN0001001N9+00321+00301102221ADDAG12000AY141061AY241061GA1091+999999999GF109991091999999999999999MD1210071+9999MW1471
0108164050999991988042615144+38183+013100FM-15+0021LICJ V0200801N00721030001CN0112001N1+02101+01601101231ADDAG12000GA1011+007509089GA2051+030009039MA1101191100831EQDQ01+999990APOSP Q02+999990APOSLPQ03+000000PRSWM2
0100999999999991988022012004+38500+009000FM-13+9999VPGH V0202801N00511004201CN0200001N9+01651+01091101871ADDAG12000AY121061AY211061GF106991061051004501999999MD1110021+9999MW1021SA1+1409REMSYN01122233 00140
0153833780999991988022115004-15867-047933SY-MT+1061SBBR V0200901N00511060001CN0200001N1+02771+01901101201ADDAA106000091AG10001GA1031+006009089GA2061+060009009GF106991031011008001001041MA1101901999999MD1999999+0021MW1001REMSYN011333   58002EQDQ01+000000PRSWM2
0103152470999991988103109004+45767+021250FM-12+0088LRTR V0209991C00001000151CN0001001N9-00151-00151102221ADDAG12000AY141031AY241031GA1091+999999999GF109991091999999999999999MA1999999101101MD1010011+9999MW1471
0143288380999991988122712004+53350+059083FM-12+038299999V0201901N00201004501CN0040001N9-00601-00831099801ADDAG12001AY171061AY271061GA1091+004509999GF109991091001004501021999MD1710041+9999MW1711REMSYN011333   89/15EQDQ01+000082SCOTCVQ02+000082SCOTLC
0050152600999991988010115004+45800+024150FM-12+0444LRSB V0209991C00001220001CN0200001N9+00411+00221101761ADDAG12000GF105991001001999999001061MD1710121+9999
0038999999999991988041300004-34633-133400FM-18+9999DRIB V02099999999999999999N9999999N9+01931+99999101731ADDAG10999SA1+1929REMSYN011333   54824
0106351080999991988101015004+51250+051400FM-12+0036UARR V0201401N00301220001CN0100001N9+00811-00601103211ADDAA106000091AG14000GF103991999999999999999999KA1120M+01811MD1310021+9999REMSYN023333   10181 555   10087
0086250170999991988070403004+69183+154450FM-12+999999999V0200201N00901006601CN0500001N9+00751+00301101091ADDAG12000GA1071+006609059GF107991071051008001999999MD1310031+9999REMSYN011333   87622
0171690014999991988111509004+32350-106367SAO  +12242C2  V0202501N01541015001EN0040001N1+01671+00061100031ADDAG10000GD13991+0150099GF107991999999999999999999MA1100641999999MD1510101+9999MW1071OC102521REMAWY068WSHFT 46 FROPA         ?    PRESRR/ 510 1500/ E28 WND 2441/P56/0900?
0133233240999991988041318004+66467+060750FM-12+005899999V0203001N00401030001CN0280001N9-01511-01931101661ADDAA112000491AA299000591AG10001AY181061AY231061GF108991081001999999011999KA1120M-00721MD1210211+9999MW1021REMSYN017333   11072 69940
0180219460999991988073000004+70617+147883FM-12+004899999V0203101N00801002101CN0110001N9+00631+00631099161ADDAA112007091AG10001AY161061AY261061GA1081+002109049GF108991081001002501021999KA1120N+99999MD1210111+9999MW1611OA149901201REMSYN029333   20080 60070 88507 91112EQDQ01 +00802ATMN  
0159789050999991988042321004+15533-061300FM-12+0014TDPD V0209991C00001006901CN0220001N9+02741+02321101591ADDAA106999999AG14002AY111031AY211031GA1071+006909089GF107991071021008001001001MA1999999101431MD1999999+0161MW1801REMSYN017333   58016 87823EQDQ01  00002PRCP06
0056152920999991988041920004+45417+022250FM-12+0242LRCS V0209991C00001220001CN0200001N9+00921+99999999999ADDAG12999GF100991001001999999001001REMSYN011333   95990
0061479810999991988100122374+24783+141317FM-16+0116RJAW V0201401N00461075001CN0112001N1+99999+99999999999ADDAG12999GA1031+003609089GA2041+075009009EQDQ01+000000PRSWM2
0133041650999991988031100004+66483-046283FM-12+233099999V0201601N00261220001CN0240001N9-02801-03221999999ADDAA106000091AG14000GF100991001001999999001001KA1120M-02451KA2180N-03691MA1102641077351ME1427099REMSYN027333   11245 21369 QNH   031
0107082210999991988010420004+40450-003550FM-15+0582LEMD V0202401N00211007501CN0112001N1+01001+00601999999ADDAG12999GA1031+006009059GA2051+007509059MA1102301095541REMMET006NOSIG?EQDQ01+999990APOSP Q02+000000PRSWM2
0127161700999991988061106004+43800+011200FM-12+0038LIRQ V0209991C00001220001CN0040001N9+01461+01201101321ADDAA106000091AG10000GF100991001001999999001001IA1019KA1120N+01161MA1999999100861MD1310031+9999MW1101REMSYN017333   20116 30///
0024030880999991988011505004+56850-002267FM-12+013499999V0202301N021019999999N9999999N9+00551+00331100851ADDAG12999MD1210111+9999
024772438093819198809070200C+39733-086267SAO  +0241IND  V0201605N002652200059N0240005N1+01285+00725101895ADDAA101000095AG10999GD11995+0750093GF102005999999999999999999MA1101901098955MW1001REMAWY007FEW SC?EQDQ01+999990APOSP N01 00000JPWTH 0QNNE11 0 00199G11U0 99999K11 0 00045L11 0 01500M11 0 29220N11 0 00000Q11 0 10189S11 0 00055V11 0 00200X11 0 16005
0181467630999991988060321004+24033+121617SY-MT+0015RCYU V0209991C00001220001CN0080001N1+01891+01611100941ADDAA106000091AG14000AY101031AY201031GA1011+007509089GF102991999081008001001001MA1100881999999MD1010001+9999MW1101REMSYN039555   81825 90419 00000 QNH   2979/ INSEQDQ01+000012SCOTLC
0065103840999991988050821204+52467+013400FM-15+0049EDBB V0200901N00621999991CY0099001N1+01501+00501999999ADDAG12000MA1102301999999REMMET012CAVOK NOSIG?EQDQ01+000000PRSWM2
0139999999999991988051100004+38500-135400FM-13+99997KBF V0201901N00511090001CN0200001N9+01601+00991101001ADDAG12000GF105991021021004501001051MD1210091+9999SA1+1259UA1M030109999UG1080202609UG2060151609REMSYN03522233 00125 20302 32616 40804 50603
0065534800999991988040109004+41033+113067FM-12+141699999V0202701N00401220001CN0300001N9+00981-01901101921ADDAG12000GF103991031021012501001001MA1999999085651MD1710101+9999
0094353580999991988061718004+49633+063500FM-12+012399999V02099999999999999999N9999999N9+02981+01271100561ADDAA106000091AG14000GF199999041001999999071011KA1120M+03691MD1310031+9999REMSYN011333   10369
0148890570999991988032221004-62500-059683FM-12+000599999V0200901N01441021001CN0100001N9-00341-00651098881ADDAG10999AY131031AY231031GA1021+003609079GA2061+021009039GF106991061071004501031001MD1210131+9999MW1361REMSYN035333   7/299 82712 86357 91846 92302
0127710455999991988021413004+60167-132750SAO  +0705WZW  V0200701N002612200019N9999999N9-00901-01001099481ADDAG10999GD12991+0117099GF102991999999999999999999MD1710211+9999MW1001REMAWY0287021       ?    (3902,0000)?EQDQ01+000002VOVAR 
0072723495139871988082113004+37150-094500SAO  +0299JLN  V0201501N002612200019N0080001N1+02391+02171101221ADDAG10999GD12991+0600093GF102991999999999999999999MA1101321999999MW1451
0058121960999991988081206004+00000+999999FM-12+999999999V0202201N00201220001CN9999999N9+01501+01431999999ADDAG12000AY101061AY201061GF104991041001004501031001MW1101
