0094475870999991989032700004+38900+139850FM-12+000499999V0201101N00511220001CN0300001N9+00951-00171101311ADDAA106000091AG14000GF102991021001999999031021KA1120N-00081MD1810111+9999REMSYN011333   21008
0061374720999991989060303004+43017+047433FM-12-001499999V0201701N00401007501CN0200001N9+01611+01421101401ADDAA106000091AG14000GF108991061051008001031011MD1310011+9999
0108034960999991989090415004+52683+001683FM-12+001499999V0201301N00261036001CN0250001N9+01781+00851102431ADDAG12000GA1011+008409089GA2071+036009039GF107991021081008001071999MD1710061+9999REMSYN017333   81828 87362
0131718010999991989080813004+47617-052733SAO  +0140YYT  V0201801N00721001801MN0160001N1+02101+02101101091ADDAG10999GD13991+0018099GD24991+0240099GF108991999999999999999999MA1101081099421MW1001OC101291REMAWY008SF8AC2 ?EQDQ01+999990APOSP 
0108724096147061989092214374+40017-074600SAOSP+0041WRI  V0201401N003110060019N0096001N1+99999+99999999999ADDAG10999GD12991+0042099GD23991+0060099GD34991+0240099GF108991999999999999999999MA1101591999999MW1451MW2611
0025106450999991989051023004+49900+009433FM-12+058199999V0202501N001519999999N0100001N9+00911+00881101121ADDAG12999MA1999999094321
0065994070999991989101907004+47667-124483FM-12+0021DESW V0201401N007219999999N9999999N9+01231+99999102181ADDAG12999OA139900771REMSYN035333   92115 555   11012 22013 90725
0038999999999991989090613084+54267-036333FM-18+9999DRIB V02099999999999999999N9999999N9+99999+99999102371ADDAG10999SA1+1039REMSYN011333   44509
0024035070999991989042115004+52067-003617FM-12+030999999V0203601N004619999999N9999999N9+00861+00401102211ADDAG12000MD1710021+9999
0050406450999991989101409004+00000+999999FM-12+999999999V0203501N00301220001CN0100001N9+02951+01371101501ADDAG12000GF100991001001999999001001MD1710081+9999
0141726797241321989082012004+45783-111150SAO  +1364BZN  V0201801N005112200019N0240001N1+01061+00781101121ADDAA106000091AG10000GD12991+0180099GD23991+0360093GF107991999999999999999999KA1999N+00941MA1101391999999MD1810051+9999MW1001REMAWY007805 49?
037472486023154198902141400C+39283-114850SY-SA+1906ELY  V0201805N00675220005CN0240005N9-02115-02445102185ADDAA101000095AA206000091AA324999929AG14999AJ100139199999999GD10995+9999999GF100005001001999999001991KA1999M+99999KA2999N+99999MA1101491080605MD1410001+9999REMSYN029333   11217 21168 4/013 79999EQDQ01+999990APOA  Q02 -02173ATMM  Q03 -01683ATMM  N01 00000JPWTH 0QNNE81 0 00099G21U0 99999K21 0-00012L21 0 01500M11 0 23800N21 0 00000Q21 0 10218S21 0-00006V11 0 00000X21 0 18013
0118568560999991989111609004+24433+100850FM-12+167699999V0209991C00001220001CN9999999N9+01901+99999100412ADDAG12012AY181031GF103991999999022501999999MA1999999088531MD1710061+0201MW1001REMSYN011333   00252EQDQ01+100413APOSLP
0072249510999991989030618004+60817+125317FM-12+011899999V0202601N00401075001CN0200001N9-01631-01761101821ADDAG12001AY171061AY271061GF108991001001999999001071MD1710111+9999MW1711
0103485650999991989022803004+08117+098317FM-12+0010VTSP V0200801N00311220001CN0080001N9+02881+02231101271ADDAA106000091AG14000AY111031AY211031GF105991011011008001001061MD1999999-0011MW1101REMSYN011333   59001
0058024460999991989070120504+59583+016633FM-15+0031ESOW V0209991C00001999991CY0099001N1+01601+00601999999ADDAG12000MA1101391999999REMMET005CAVOKEQDQ01+000000PRSWM2
0096164500999991989032619164+37567+014283FM-15+0965LICE V0201201N00261220001CN0112001N1+01401+00301999999ADDAG12999GA1021+002409089GA2031+021009039REMMET026SCT MON LIB NC VAL NIL NC?EQDQ01+000000PRSWM2
031672301113748198911150700C+34267-077900SAO  +0009ILM  V0201805N003150198159N0112005N1+01895+01725101845ADDAA101000895AG10999GA1999+015245065GA2999+019815035GD12025+0150099GD24065+0180099GF108085999999999999999999MA1101831101695MW1805REMAWY012RB02 BINOVC?EQDN01 02300JPWTH 0QNNE81 0 00203E81 0 00607G21 0 00065H11 0 15050H11 0 23065K21 0 00063L21 0 00700M11 0 30030N21 0 02300Q21 0 10184S21 0 00066V11 0 01010X21 0 18006
0191722420999991989062618004+29300-094800FM-12+001699999V0201501N01291004201CN0040001N9+02451+02451100631ADDAA106048091AA224083191AC13C9AG10010AY161061AY221061GF108991061071004501021999KA1120M+02721KA2240N+02351MA1999999100431MD1510061+9999MW1631REMSYN041333   10272 20235 70831 90573 555   06026
0130031350999991989051808004+55500-004583FM-12+0020EGPK V0202201N00621006301CN0220001N9+01471+01181102131ADDAG12999GA1011+002409079GA2031+004209059GA3051+006309059GF107991071051002501999999MD1110041+9999REMSYN023333   81708 83614 85621
0036153730999991989022822004+44867+024867FM-12+028099999V0203201N00101220001CN0120001N9+00421+99999999999ADDAG12999GF100991001001999999001001
0081984460999991989112209004+13583+124233FM-12+0006RPUV V0200901N00201105001CN0300001N9+02801+02401101061ADDAA106000091AG14000GF105991011011004501001021MD1510001+9999REMSYN011333   56299
0075083730999991989100119164+38867+001383FM-15+0012LEIB V0203401N00261220001CN0112001N1+02001+01701999999ADDAG12999GA1011+006009089MA1102201999999REMMET006NOSIG?EQDQ01+000000PRSWM2
0024030100999991989121201004+59083-004400FM-12+001699999V0203501N003119999999N9999999N9+00511-00031100721ADDAG12999MD1710201+9999
0140064760999991989071801004+50033+005400FM-12+0557EBSU V0202101N00151220001CN0200001N9+01211+01001102201ADDAG12999GA1021+013509059GA2041+060009009GF104991021051012501001021MA1999999095671MD1710091+9999OA149900151REMSYN023333   82645 84070 91103
0050282640999991989120815004+58050+065350FM-12+006299999V0201401N00201220001CN0100001N9-01731-02071101771ADDAG12000GF108991001001999999001011MD1410001+9999
0076042210999991989041417534+69250-051067FM-15+0040BGJN V0209991V00101220001CN0112001N1-01601-02101999999ADDAG12000GA1011+003009089GA2031+060009009MA1101491999999EQDQ01+000000PRSWM2
0050470390999991989032921004+40167+126250FM-12+015599999V0209991C00001220001CN0100001N9+99999+99999101781ADDAG12000GF103991031001999999041001MD1710101+9999
0050295810999991989101606004+56200+095683FM-12+020499999V0202601N00701030001CN0200001N9+00981-00271102021ADDAG12000GF107991041051012501031999MD1710271+9999
0123105100999991989112116004+50333+006950FM-12+062999999V0201601N00361027001CN0200001N9+00861+00051100881ADDAG12999GA1021+015009059GA2071+027009039GF107991021051017501071999MA1999999093541MD1710151+9999REMSYN017333   82650 87359
0188109620999991989030810004+47800+011017FM-12+098699999V0202401N01081030001CN0300001N9+00261-00161999999ADDAG12999GA1011+006009089GA2031+009009059GA3061+030009049GF107991031081008001071999MA1999999090171MD1010041+9999ME1314619OA149901851OA259901131REMSYN035333   81820 83630 86460 91136 91222
0075135860999991989070209304+41967+021650FM-15+0239LYSK V0201801N00101220001CN0112001N1+02601+01901999999ADDAG12999GA1021+012009089MA1101081999999REMMET006NOSIG?EQDQ01+000000PRSWM2
033172414013866198912150000C+38367-081600SY-SA+0310CRW  V0202905N002152200059N0240005N1-00335-01285101995ADDAA101000095AA206000091AG10000AJ100019199999999GF100005001001999999001991KA1120M+00061KA2180N-00501MA1101901098325MD1210121+9999MW1001REMSYN035333   10006 21050 4/001 555   91500AWY013212 90401 33?EQDN01 00000JPWTH 0QNNE81 0 00099G21U0 99999K21 0 00009L21 0 01500M11 0 29035N21 0 00000Q21 0 10199S21 0 00026V11 0 00000X21 0 29004
0099527370999991989052521004+37367+097367FM-12+298299999V0200701N00801015001CN0250001N9+00981+00231999999ADDAG12012AY161031GF107991071051017501001021MA1999999070671MD1210011+0001MW1001REMSYN011333   00051
0106108600999991989060204504+48717+011533FM-15+0370EDSI V0202701N00211002101CN0030001N1+01101+01001999999ADDAG12999GA1011+001509079GA2051+002109079GA3081+015009049MA1101021999999MW1611REMMET018YLO YLO TEMPO WHT?
0154119330999991989080815004+49117+020083FM-12+136899999V0202401N00501006001CN0070001N9+01411+01121999999ADDAG12003AY181031AY221031GA1051+006009059GA2071+021009039GF107991051041008001071999MA1999999086251MD1710111+9999ME1314909MW1801REMSYN017333   85620 87357
0038999999999991989120913034-45967-104117FM-18+9999DRIB V02099999999999999999N9999999N9+00801+99999100381ADDAG10999SA1+0969REMSYN011333   55829
0044064700999991989092802164+50800+005200FM-15+0075EBST V0209991V00101220001CN0038001N1+00601+00601999999ADDAG11999MA1102511999999MW1101REMMET004GRN?
0072296360999991989010718004+55233+084400FM-12+014899999V0201201N00101220001CN0020001N9-02941-03241102811ADDAG12000AY101061AY201061GF100991001001999999001001MD1310031+9999MW1051
021672266013962198910101400C+32417-099683SAO  +0544ABI  V0203005N002152200059N0480005N1+01505+00615102015ADDAA101000095AG10999GF100005999999999999999999MA1102171095735MW1001EQDQ01+999990APOSP N01 00000JPWTH 0QNNE81 0 00099G21U0 99999K21 0 00043L21 0 03000M11 0 28270N21 0 00000Q21 0 10201S21 0 00059V11 0 00000X21 0 30004
0074999999999991989111118004+45400-051500FM-13+9999GJPP V0202601N00771000151CN0001001N9+01301+99999100701ADDAG12000AY141061AY251061GA1091+999999999GF109991091999999999999999MW1451
023572207003822198901070700C+32133-081200SAO  +0014SAV  V0202005N002152200059N0240005N1+01675+01395101975ADDAA101000095AG10999GD12995+0240099GD23995+0750093GF105025999999999999999999MA1101961101795EQDN01 00000JPWTH 0QNNE81 0 00299E81 0 00399G21U0 99999K21 0 00057L21 0 01500M11 0 30060N21 0 00000Q21 0 10197S21 0 00062V11 0 00602X21 0 20004
025872211012842198909121700C+27967-082533SAO  +0006TPA  V0200205N002652200059N0240005N1+03285+02115101555ADDAA101000095AG10999GA1999+013115085GD12035+0129099GF103035999999999999999999MA1101561101515MW1001EQDQ01+999990APOSP N01 00000JPWTH 0QNNE81 0 00204G21U0 99999H11 0 11043K21 0 00070L21 0 01500M11 0 29975N21 0 00000Q21 0 10155S21 0 00091V11 0 00404X21 0 02005
0080726545999991989052410004+43767-098033SAO  +0397MHE  V0201201N005712200019N0160001N1+01831+99999999999ADDAG10999GD12991+0240099GF102991999999999999999999MA1099191999999MW1001OC100821
0105039170999991989091123004+54650-006217FM-12+0081EGAA V0200801N00261015001CN0130001N9+01321+01111102231ADDAG12999GA1051+015009059GF105991051051017501999001MD1810051+9999REMSYN011333   85650EQDQ01    003SCOMCG
0078108660999991989041318154+48133+011700FM-15+0529EDDM V0202501N00671002101CN0112001N1+00701+00501999999ADDAG12003GA1011+001509079GA2081+002109079MA1099491999999MW1601REMMET006NOSIG?
0131106370999991989041322004+50033+008567FM-12+0111EDDF V0209991V00211004201CN0100001N9+00971+00901099621ADDAG12999AY161999AY261999GA1021+002409079GA2071+004209049GF107991071051002501999999MA1999999098281MW1581REMSYN017333   82708 87514
0119764591999991989082015404+23150-106250SAOSP+0005MZT  V02099999999992200019N0112001N1+03101+99999999999ADDAG10000GD12991+0036099GD22991+0300099GF102991999999999999999999MA1101321999999MW1001REMAWY023135/CU MAS BJS SBR MAR?
0204722221138991989012902003+30467-087200SAO  +0034PNS  V0200705N002652200059N0112005N1+01065+00945102235ADDAG10999GD13995+0750093GF105025999999999999999999MA1102241101795MW1001EQDN01 00000JPWTH 0QNNE81 0 00399G21U0 99999K21 0 00049L21 0 00700M11 0 30060N21 0 00000Q21 0 10223S21 0 00051V11 0 00603X21 0 07005
0091333460999991989091715004+50350+030917FM-15+0125UKBB V0209991V00211030001CN0060001N1+01501+01201999999ADDAG11000GA1031+006909089GA2051+030009039MA1101901999999REMMET006NOSIG?EQDQ01+000000PRSWM2
0072724075137351989101501004+39367-075067SAO  +0025MIV  V0201901N004112200019N0064001N1+01891+01441101721ADDAG10999GD12991+0300099GF102991999999999999999999MA1101731999999MW1051
0039107350999991989082504004+49250+008883FM-12+016999999V0201601N000519999999N0080001N9+00951+00921101541ADDAG12999MA1999999099501MD1710061+9999
0044471105999991989113002004+37517+126983FM-15+0012RKSY V0203301N00151220001CN0112001N1-00201-00801999999ADDAG11999MA1103151999999EQDQ01+000000PRSWM2
0086039650999991989042509004+53083-007883FM-12+007299999V0203601N00361220001CN0300001N9+00471+00161101501ADDAG12000GA1021+006009089GF102991021021004501001001MD1310121+9999REMSYN011333   82820
0094170600999991989032105004+40967+028817FM-15+0037LTBA V0200601N00311009001CN0025001N1+00701+00501999999ADDAG12999GA1031+001809079GA2041+009009059GA3071+024009049MA1101691999999MW1401REMMET006NOSIG?
0094999999999991989111218004+24500+036200FM-13+9999UOTL V0203301N007019999999N0500001N9+02501+99999999999ADDAG12000GA1091+999999999GF109991091999999999999999MD1710051+9999SA1+2809REMSYN01122233 00280
0117306370999991989071700004+53200+107333FM-12+048899999V0201301N00201007501CN0500001N9+01601+99999100601ADDAA106000091AG14000GF107991071091008001001001KA1120N+01511MD1710031+9999OA149901301REMSYN023333   20151 70000 91113
0105711294999991989082123004+51517-109183SAO  +0694YKY  V0202301N002110780019N0240001N1+02701+00601099951ADDAG10999GD12991+0180099GD23991+0780099GF107991999999999999999999MA1100001999999MW1001REMAWY009TCU5CI2 ?
0106219230999991989110800004+70817+133500FM-12+009199999V0202301N00301220001CN0200001N9-02981-03151103061ADDAA124000091AG14000GF100991001001999999001001KA1120N-03061MD1710091+9999REMSYN023333   21306 555   7000/
0060474250999991989032616304+42767+141700FM-15+0030RJCC V0201701N00101220001CN0112001N1-00501-00601999999ADDAG12999GA1011+009009089MA1101561999999EQDQ01+000000PRSWM2
0097010590999991989100108204+70067+024983FM-15+0008ENNA V0201801N00821018001CN0112001N1+99999+99999999999ADDAG12999GA1031+012009059GA2061+018009049MA1100101999999REMMET012RJCT40  2752EQDQ01+000000PRSWM2
0076061180999991989081504304+54967+009800FM-15+0023EKSB V0201301N00411024001CN0112001N1+01701+01501999999ADDAG12999GA1021+009009059GA2051+024009039MA1100911999999EQDQ01+000000PRSWM2
0094471360999991989081512004+36567+128700FM-12+0142RKTA V0200701N00151012001CN0250001N9+02341+01681101111ADDAA106000091AG14000GF106991061051012501001001KA1120M+02951MD1210161+9999REMSYN011333   10295
0090161580999991989061517504+43683+010383FM-15+0001LIRP V0202501N00461220001CN0112001N1+02401+01801102071ADDAG12000GA1021+024009039GA2031+060009009MA1102001102001REMMET005NOSIGEQDQ01+000000PRSWM2
0087310040999991989031412004+58617+125367FM-12+068299999V0201601N00201075001CN0040001N9-02321-02641101741ADDAG12001AY171999AY271999GF108991031001999999091081MA1999999092781MD1210221+9999MW1711
0091486470999991989093016304+03117+101550FM-15+0022WMKK V0209991C00001084001CN0112001N1+02501+02301999999ADDAG12999GA1021+009009059GA2061+084009029MA1101191999999REMMET006NOSIG?EQDQ01+000000PRSWM2
0072063750999991989021105004+51650+005700FM-12+0021EHVK V0202201N00151220001CN0050001N9+00061+00001103521ADDAG11999AY101021AY201021GF100991001001999999001001MD1310081+9999MW1101
0105717300999991989092308004+46617-080800SAO  +0348YSB  V0202801N00361005401MN0240001N1+00001-00101100201ADDAG10999GD13991+0054099GF107991999999999999999999MA1100141096071MW1001REMAWY005SC7 ?EQDQ01+999990APOSP 
0089101360999991989040108504+53767+008667FM-15+0032EDCN V0200601N00931011401CN0112001N1+00701+00201999999ADDAG12000GA1041+004209089GA2071+011409059MA1101801999999REMMET004BLU?EQDQ01+000000PRSWM2
0107999999999991989082818004+59100+151300FM-13+9999USZP V0209991C00001220001CN0200001N9+01081+99999102081ADDAG12000AY101061AY201061GF101991999001999999001001MW1021REMSYN00522200EQDQ01+000012SCOTLCQ02+000002SCOTLC
0153418910999991989070106004+24900+091883FM-12+0035VGSY V0201801N00311003601CN0050001N9+02871+02601100181ADDAA199007091AG10000GA1051+003609059GA2011+009009099GA3081+024009049GF108991051031004501021999MD1999999-0031REMSYN035333   5649/ 59003 85612 81930 88458
0106299740999991989010121004+52883+093017FM-12+140499999V0200501N01101220001CN0020001N9-01741-01931103061ADDAG12001AY171031AY231031GF106991001001999999001011MA1999999085831MD1310021+9999MW1361EQDQ01+999990APOSP 
0118992580999991989061012004+34300-120700FM-18+0003DB25 V0203501N008019999999N9999999N9+01251+99999101361ADDAG12000MD1610081+9999OA139901001SA1+1139UA1I090209999REMSYN05322200 00113 10904 70020 333   92110 555   11082 22090
0072746930937371989092901004+35133-078933SAO  +0074FBG  V0209991C00001075001EN0112001N1+01941+01331102561ADDAG10999GD13991+0750099GF107991999999999999999999MA1102571999999MW1001
0076103350999991989071104004+52283+009083FM-15+0073EDCB V0203101N00151010501CN0112001N1+01401+01101999999ADDAG11999GA1021+008109059GA2061+010509059MA1102301999999EQDQ01+000000PRSWM2
028972785024157198912071000C+47633-117533SAO  +0718GEG  V0209995900005000305WN0004005N1-00065-00065102785ADDAA101000095AG10999ED121U07319GA1999+000305105GD15085+0003099GF108085999999999999999999MA1102611094165MW1455REMAWY011R21VR24V35?EQDQ01+999990APOSP N01 07000JPWTH 0QNNE81 0 00710G21 0 00001H11 0 45001K21 0 00031L21 0 00025M11 0 27805N21 0 07000Q21 0 10278S21 0 00031V11 0 01010X21 0 00000
0071025500999991989050608504+57767+014083FM-15+0232ESGJ V0200201N01131007501CN0112001N1+00701+00501999999ADDAG12004GA1021+003009099GA2041+007509059MA1101191999999MW1801OC101701
0081485520999991989082103004+08467+099967FM-12+0009VTSN V0209991C00001220001CN0130001N9+03111+02281101031ADDAA106000091AG14000GF102991011011008001041021MD1999999+0111REMSYN011333   58011
0130030170999991989100703004+58950-002900FM-12+0021EGPA V0203001N00771015001CN0250001N9+00881+00691101181ADDAG11000AY111031AY211031GA1031+004509089GA2071+015009059GF107991071081004501999999MD1710041+9999MW1151REMSYN017333   83815 87650
0100979800999991989121906004-08467+140383FM-12+0003WAKK V0209999999999090001CN0100001N9+02421+02331100941ADDAG10999GA1021+005409089GA2051+090009009GF106991021011004501041021REMSYN023333   56000 82818 85080
0159071090999991989120106004+48283-004433FM-12+0082LFRL V0200601N00411220001CN0070001N9+00501+00401102941ADDAA106000091AG14000GA1031+015009059GF103991031051017501999001IA1019KA1999N+00491MD1210081+9999REMSYN035333   20049 30/// 83650 555   00004EQDQ01    003SCOMCG
0108039600999991989122803004+52667-007267FM-12+006499999V0200801N00151004801CN0060001N9+00701+00471101741ADDAG12000AY121031AY221031GA1081+004809079GF108991081061004501999999MD1210091+9999MW1101REMSYN011333   88716
0108037720999991989041016004+51483-000450FM-12+0024EGLL V0202001N00721030001CN0350001N9+01261+00431099761ADDAG12999GA1011+009009089GA2041+075009009GF106991031081012501041011MD1110091+9999REMSYN017333   81830 84075
0189746120931041989110922003+35683-117683SAO  +0677NID  V02099959000052200059N0800005N1+02565-00225101915ADDAG10999GF100995999999999999999999MA1102001094045MW1001EQDN01 00000JPWTH 0QNNE41 0 00099G41U0 99999K41 0 00028L41 0 05000M41 0 27770N41 0 00000Q41 0 10191S41 0 00078V41 0 00099X41 0 00000
0092123750999991989062114004+52167+020967FM-15+0107EPWA V0202801N00311007801CN0112001N1+01701+01401999999ADDAG12999GA1041+004809089GA2071+007809059MA1101291999999REMMET007NOSIIG?EQDQ01+000000PRSWM2
0050094740999991989112921004+51883+012650FM-12+010699999V0200601N00201220001CN0030001N9-00441-00651103171ADDAG12000GF100991001001999999001001MD1410001+9999
0060600010999991989063013004+27817-017883FM-15+0030GCHI V0200301N00931220001CN0112001N1+02401+01901999999ADDAG12999GA1031+009009089MA1101901999999EQDQ01+000000PRSWM2
0169718800999991989080923004+49600-115783SAO  +0939YXC  V0201301N003110180019N0400001N1+01701+01501101051ADDAG10999GD12991+0060099GD23991+0180099GD33991+0360099GF107991999999999999999999MA1101191090411MW1801REMAWY039CU2TCU7AC1 CB ASOCTD VSBY LWR E-S RW- ?EQDQ01+999990APOSP 
0065307290999991989010818004+52050+106650FM-12+046999999V0209991C00001030001CN0500001N9-01371-01891103111ADDAG12000GF108991061001999999071021MA1999999095871MD1210111+9999
0050025820999991989070803004+58750+017867FM-12+003299999V0209991C00001220001CN0240001N9+01721+01351101341ADDAG12000GF102991021001008001071071MD1710121+9999
0060010230999991989011116504+69050+018550FM-15+0079ENDU V0202201N00051220001CN0112001N1-02001-02201999999ADDAG12999GA1011+010509059MA1100101999999EQDQ01+000000PRSWM2
0228039690999991989042216004+53433-006250SY-MT+0085EIDW V0200401N00151003001CN0040001N1+00791+00591102031ADDAG12999AY161011AY251011GA1021+001209079GA2041+003009079GA3071+006009059GF108991081061001501999999MA1102001999999MD1710051+9999MW1581REMSYN035333   82704 84710 87620 97256 97356MET043VIS        ?     6000 TO SE SW, TEMPO 9000?
0075077610999991989123122304+41917+008800FM-15+0009LFKJ V0200401N00411220001CN0112001N1+00501+00201999999ADDAG12999GA1011+009009059MA1101691999999REMMET006NOSIG?EQDQ01+000000PRSWM2
0072722116999991989061216004+27917-082683SAO  +0003PIE  V0201901N002612200019N0112001N1+03061+02221999999ADDAG10999GD12991+0090099GF102991999999999999999999MA1101931999999MW1001
0100711030999991989070420304+53033-122517SAOSP+0545YQZ  V0203301N002610300019N0240001N1+99999+99999999999ADDAG10999GD12991+0135099GD23991+0300099GF107991999999999999999999MW1001REMAWY019VB4AC3 SHWRS ALQDS?
0088710750999991989121315204+58183-103700SAOSP+0492WKC  V0202101N001510030019N0240001N1+99999+99999999999ADDAG10000GD12991+0018099GD24991+0030099GF108991999999999999999999MW1001REMAWY007SC4SC6?
0056153150999991989082223004+45083+022083FM-12+144599999V0209991C00001004201CN0150001N9+01491+99999999999ADDAG12999GF106991061051004501001001REMSYN011333   96990
0114718320999991989081223004+49750-084167SAO  +0256WNZ  V0203601N030419999999N0144001N1+02501+01601101581ADDAG10999MA1999999098531MD1710151+9999OC105042REMAWY023(          ?    ,    )?EQDQ01+005046WGOSPDQ02+999990APOSP 
0098026360999991989092604504+55550+013367FM-15+0106ESMS V0202401N00461006001CN0040001N1+01401+01301999999ADDAG12999GA1021+002709079GA2061+006009059MW1211REMMET041QPQE TEMPO 2500        ?     62RA 6ST006?
0106725335999991989052302004+40650-086150SAO  +0248GUS  V0203601N002110240019N0080001N1+01561+01391101261ADDAG10999GD12991+0150099GD24991+0240099GF108991999999999999999999MA1101291999999MW1451MW2611REMAWY004WR//
0248711140999991989010706004+49367-121483SY-SA+0039YHE  V0201001N006712200019N0240001N1-00201-00811102381ADDAA106000091AA224002691AG10000AL12400391GD12991+0120099GF101991999999999999999999GJ100009KA1240M+00101KA2240N-00211MA1102341101891MD1110241+9999OA132401131OC100931REMSYN059333   10010 21021 70026 555   01000 10032 20026 31322 40060AWY009CF1 1024?
0050176010999991989051321004+34583+032983FM-12+0023LCRA V0203201N00101220001CN0250001N9+01941+01571101861ADDAG12000GF100991001001999999001001MD1110051+9999
0086032570999991989053005004+54300-001533FM-12+0040EGXE V0203501N00671220001CN0500001N9+00551+00121101721ADDAG12999GA1011+006009089GF101991011081008001001001MD1210101+9999REMSYN011333   81820
0094471460999991989081912004+35817+127150FM-12+005399999V0201601N00101036001CN0180001N9+02731+02121100981ADDAA106000091AG14000GF107991021051012501031001KA1120M+03191MD1210131+9999REMSYN011333   10319
0062081810999991989092505304+41283+002067FM-15+0006LEBL V0203601N00211220001CN0090001N1+02201+02101999999ADDAG12000GA1021+006009089MA1101801999999MW1101REMMET006NOSIG?
0072478910999991989120718004+34317+134050FM-12+001099999V0203101N004119999999N0200001N9+01151+00471100941ADDAG12001AY181061AY211061GF107991071021999999999999MD1010041+9999MW1021
0057722485139441989070908004+32500-093667SAO  +0051BAD  V0209991C000012200019N0112001N1+02561+02441101651ADDAG10999GF100991999999999999999999MA1101661999999MW1001
0076718610999991989102505004+50383-102683SAO  +0602WIK  V0202501N004112200019N0240001N1+00701+00001101101ADDAG10999GF100991999999999999999999MA1100951093951MW1001EQDQ01+999990APOSP 
0010030100999991989091615004+59083-004400FM-12+001699999V0202301N013419999999N9999999N9+01211+00781099631ADDAG12000
0056131220999991989092603004+45267+015233FM-12+032899999V0203201N00201220001CN0005001N9+01001+00981101811ADDAG11000GF100991001001999999001001MD1510001+9999MW1441
037770398025308198906181000C+55033-131567SAO  +0033ANN  V0201205N005750137259N0160005N1+01005+00615101265ADDAA101000095AG10999GA1999+007625065GA2999+013725065GA3999+024385035GD12025+0075099GD23025+0135099GD33025+0240099GF106065999999999999999999MA1101251100855MW1001REMAWY0043SC?EQDQ01+999990APOSP N01 00000JPWTH 0QNNE11 0 00203E11 0 00403E11 0 00402G11 0 00045H11 0 15025H11 0 15045H11 0 23080K11 0 00043L11 0 01000M11 0 29780N11 0 00000Q11 0 10126S11 0 00050V11 0 00808X11 0 12011
0050094740999991989011110004+51883+012650FM-12+010699999V0202201N00401220001CN0080001N9+00361+00031102641ADDAG12999GF100991001001999999001001MD1210211+9999
0060173520999991989052913064+36983+035300FM-15+0020LTAF V0201801N00931220001CN0112001N1+03401+01301999999ADDAG12999GA1021+012009089MA1100711999999EQDQ01+000000PRSWM2
0105722588999991989041216004+33067-096067SAO  +0166GVT  V0201301N00261021001EN0240001N1+01221+00331999999ADDAG10999GD13991+0210099GD24991+0750099GF108991999999999999999999MA1102271999999MW1001REMAWY009BINOVC N?
0119475910999991989112418004+38400+141217FM-15+0005RJST V0209991C00001012001CN0112001N1+00301+00101999999ADDAG12000GA1011+009009059GA2071+012009059MA1102271999999REMMET034233/ FCST        ?     1800 NOSIG?EQDQ01+000000PRSWM2
0063103150999991989100304204+52133+007683FM-15+0048EDLG V0203001N00261012601CN0112001N1+01101+01001999999ADDAG12999GA1011+007509059GA2071+012609059MA1102001999999MW1211
0024094490999991989033023004+51400+010317FM-12+035699999V0209991C000019999999N9999999N9+00531+00281102081ADDAG12999MD1210011+9999
0137411140999991989040621004+18300+042800FM-12+2054OEKM V0209999999999004201CN0100001N9+01141+01061999999ADDAG12004AY161031AY201031GA1031+003009079GF199999071071004501001001MA1102071079621ME1314999MW1131REMSYN011333   83710EQDQ01+999990APOA  
0190787720999991989102618004+08950-083467SY-MT+0015MRPM V0203501N00151045001CN0100001N1+03001+02251100781ADDAA106000091AG14000GA1041+010509089GA2041+045009049GF106991041021012501021001KA1120M+03151MA1999999100611MD1610171+0001REMSYN041333   03000 10315 202// 58000 84835 84465EQDQ01+000000PRSWM2
0063024460999991989080407204+59583+016633FM-15+0031ESOW V0200601N00411003601CN0050001N1+01501+01401999999ADDAG12999GA1041+002409079GA2061+003609059MA1098821999999MW1801
024272529014768198902010700C+43133-077667SAO  +0183ROC  V0201905N004652200059N0400005N1+01005+00225100055ADDAA101000095AG10999GA1999+039625035GD13075+0390093GF107035999999999999999999MA1100031098045MW1001EQDN01 00000JPWTH 0QNNE81 0 00309G21U0 99999H11 0 23130K21 0 00036L21 0 02500M11 0 28950N21 0 00000Q21 0 10005S21 0 00050V11 0 00904X21 0 19009
0058154500999991989031319004+44233+023867FM-12+0195LRCV V0209991C00001220001CN0040001N9+00661+99999999999ADDAG12999AY101011AY201011GF100991001001999999001001MW1101
0061076480999991989022410004+43600+005100FM-15+0060LFMY V0201801N00621006001CN0112001N1+99999+99999999999ADDAG12999GA1031+003909089GA2051+006009089EQDQ01+000000PRSWM2
0211223020999991989110806004+66917+031317FM-12+015299999V0200701N00101006001CN0140001N9+00431+00361101451ADDAA124999999AA299001091AG10002AY181061AY221061GA1061+006009099GF107991071091008001001001GJ100009KA1120N+00421MD1710101+9999MW1801OA140100101REMSYN041333   20042 55000 86920 91001 555   7000/EQDQ01  00002PRCP24
0130747240231681989071918004+32883-112717SAO  +0262GBN  V0209991C000012200019N0640001N1+04281+01221100931ADDAA106000091AG10000GD12991+0420099GD22991+0750093GF102991999001999999071081MA1101151999999MD1810021+9999MW1001REMAWY009802 1078?
0116205940999991989011012004+74600+101983FM-12+001199999V0203601N002019999999N0080001N9-03121-03361099411ADDAA106000091AG14000AY131061AY231061GF107991051001999999031021KA1120M-02171MD1210121+9999MW1021REMSYN011333   11217
0099724505039231989070717004+37617-097267SAO  +0418IAB  V0203001N001512200019N0112001N1+03001+01781102241ADDAG10999GD12991+0750099GF102991999999999999999999MA1102371999999MW1001REMAWY018WND LGT VRBL HAZY?
0118122050999991989080406004+53400+014617FM-12+0003EPSC V0202701N00501004201CN0150001N9+01251+01021100381ADDAA199004091AG10000GF106991061051004501001001IA1099IA2999+01109KA1120N+01201MD1210101+9999REMSYN017333   20120 31011
0086026300999991989080700004+56083+013233FM-12+0052ESDA V0200801N00101220001CN0100001N9+00921+00841101031ADDAG12000GA1021+048009029GF102991001001999999001051MD1210071+9999REMSYN011333   82266
0064576620999991989061515004+29050+111683FM-12+003599999V0209991C00001015001CN0090001N9+02221+02121100501ADDAG12002AY161031GF108991081051017501999999MD1710031+9999MW1101
0107162160999991989042607074+42433+012083FM-15+0300LIRV V0201501N00671024001CN0112001N1+01501+00901999999ADDAG12999GA1031+018009039GA2071+024009049OC101181REMMET029OVC MON E SE     ?     LIB NCEQDQ01+000000PRSWM2
0060033910999991989112106504+53083-000167FM-15+0007EGXC V0200501N00151000151CN0009001N1+00901+00901999999ADDAG12999GA1081+000159079MA1101021999999MW1421REMMET004RED?
0115536140999991989022806004+38483+106217FM-12+1112ZLIC V0203401N00601220001CN0200001N9+00531-01021102311ADDAA106000091AG14000GF100991001001999999001001KA1240N-00401MA1999999089221MD1710341-0201REMSYN017333   05251 21040
0050038740999991989082116004+50800-001217FM-12+000999999V0202501N00821220001CN0260001N9+02061+01431102171ADDAG12999GF100991001001999999001001MD1610061+9999
0083579930999991989012912004+25850+114950FM-12+0125ZSGZ V0203601N00301004201CN0100001N9+00251+00171102881ADDAA106003091AG10002AY161061AY261061GF108991081051004501999999MD1710041+9999MW1211
0171726055999991989040100004+43083-070817SAO  +0031PSM  V0200701N003110012019N0032001N1+00221-00051100261ADDAA106999929AG10002GD16991+0001599GD22991+0006099GD34991+0012099GF108991999061999999999999MA1100241999999MD1810121+9999MW1451MW2511REMAWY029F3         ?    / 81200 16//?
0211432950999991989071812004+12967+077583FM-12+092199999V0202301N00311006001CN0100001N9+02501+01831999999ADDAA109000891AA299001091AG10004AY161061AY251061GA1021+004509059GA2031+006009089GA3061+024009039GF107991031081004501031011KA1120M+02511MD1999999+0071MW1021REMSYN047333   10251 56599 58007 6998/ 82615 83820 86358
0202722515129261989020521005+27683-097283SAO  +0006NGP  V0200105N005250018359N011200599+00065-00225102175ADDGD14085+9999999GF108995999999999999999999MA1999999102105EQDN01 00000JPWTH 0QNNE41 0 00610G41 0 00006K41 0 00028L41 0 00700C41D0 30162M41 0 30150N41 0 00000Q41 0 10217S41 0 00033V41 0 01099X41 0 01010
0101105130999991989052714004+50867+007133FM-12+0092EDDK V0200101N00571220001CN0300001N9+02241+00611102281ADDAG12999GA1011+018009089GF101991011021017501001031MA1999999101201MD1710081+9999REMSYN011333   81856
0050135830999991989061015004+41050+021367FM-12+058999999V0200201N00201220001CN0200001N9+02171+00661101351ADDAG12000GF102991021081012501001001MD1710151+9999
0114726185146051989012011004+44317-069800SAO  +0107AUG  V0201801N002110150019N0004001N1-00101-00101101171ADDAG10999GD16991+0001599GD22991+0009099GD34991+0150099GF108991999999999999999999MA1101121999999MW1451REMAWY003F3?
0050238120999991989070312004+61800+056833FM-12+013099999V0202501N00201220001CN0200001N9+03251+01401101391ADDAG12000GF106991041031008001001011MD1710181+9999
0123102350999991989093011004+53000+009833FM-12+007899999V0203301N00511007501CN0250001N9+01561+01091102301ADDAG12999GA1011+006009089GA2061+007509089GF107991071081008001999999MA1999999101371MD1710041+9999REMSYN017333   81820 86825
0152763944999991989043004004+25783-100100SAO  +0387MTY  V0201101N004110210019N0192001N1+02501+01601999999ADDAG10999GD12991+0075099GD23991+0210099GD33991+2100099GF107991999999999999999999MA1101151999999MW1001REMAWY041115/RLPGS OCNLS AL N         ?    /57299?
0125421820999991989042609004+28583+077200FM-12+0216VIDD V0202901N00461220001CN0040001N9+03481+00421100381ADDAA106000091AG14000AY101031AY201031GA1011+060009009GF101991001001999999001011MD1999999-0041MW1061REMSYN017333   59004 81070
0109846280999991989123105414-12000-077117FM-15+0013SPIM V0201601N00361999991CY0099001N1+01901+01701999999ADDAG10999MA1101391999999REMMET056CAVOK SKC NOSIG        ?     NEBLINA SBR COSTA CDTE SUR?EQDQ01+000000PRSWM2
0115569640999991989090618004+22767+100983FM-12+130399999V0209991C00001220001CN0200001N9+01921+01821100731ADDAA106000091AG14000GF101991011041012501001001KA1240M+02181MA1999999086661MD1710091+0101REMSYN017333   00100 10218
0081485660999991989122106004+07533+099050FM-12+000399999V0200501N00261220001CN0100001N9+03201+02401100961ADDAA106000091AG14000GF101991011011008001001011MD1999999-0071REMSYN011333   59007
0230101290999991989053006004+53533+008583FM-12+0011EDWB V0201601N00461012601CN0400001N9+01061+00451101061ADDAA199999929AG10000AY121061AY221061GA1071+012609059GF107991071051012501999999GJ105109IA1099IA2999+00509KA1120N+00891MA1999999100941MD1710201+9999MW1251SA1+1789UA1M000009999REMSYN047222// 00178 20000 333   20089 31005 87642 94085
0059727554999991989110717004+47583-090833SAO  +0241P61  V0209991C000019999999N9999999N9+00501+00281999999ADDAG10999REMAWY021PK WND 03 ///881 RNO?EQDQ01+000002VOVAR 
0094153160999991989100903004+45300+022517FM-12+144799999V0209999999999036001CN0100001N9+00461+00461999999ADDAG12000GF108991041051004501071999MA1999999084491MD1210081+9999ME1314009REMSYN011333   95990
030672557014943198908170300C+42400-096383SAO  +0334SUX  V0201105N003652200059N0320005N1+02065+01445101625ADDAA101000095AG10000GA1999+024385035GD12015+0240099GF101015999001999999071991MA1101661097685MD1310171+9999MW1001REMAWY009317 1070?EQDQ01+999990APOSP Q02  00003PRCP99N01 00000JPWTH 0QNNE81 0 00201G21U0 99999H11 0 23080K21 0 00058L21 0 02000M11 0 28845N21 0 00000Q21 0 10162S21 0 00069V11 0 00101X21 0 11007
0058162700999991989061206104+41133+016783FM-15+0044LIBD V0202901N00411999991CY0099001N1+01801+01401999999ADDAG12000MA1101291999999REMMET005CAVOKEQDQ01+000000PRSWM2
0091077470999991989020418504+42733+002867FM-15+0048LFMP V0202401N00211006901CN0050001N1+00901+00601999999ADDAG12999GA1021+003009079GA2061+006909059MA1103121999999REMMET006NOSIG?EQDQ01+000000PRSWM2
0052726710999991989091904004+42567-110100SAO  +2124BPI  V0203301N002619999999N9999999N9+00671+00001999999ADDAG10999REMAWY014PK WND 09 000?EQDQ01+000002VOVAR 
0078486980999991989073118304+01367+103983FM-15+0016WSSS V0209991C00001090001CN0112001N1+02601+02501999999ADDAG12999GA1011+004809089GA2051+090009009MA1101021999999MW1051REMMET006NOSIG?
0072286960999991989111809004+55033+074583FM-12+010799999V0203201N00301220001CN0050001N9-00891-01091102261ADDAG12000AY111031AY211031GF104991001001999999001011MD1210141+9999MW1101
0058134570999991989111418304+42400+018733FM-15+0005LYTV V0200601N00211999991CY0099001N1+01401+00101999999ADDAG12999MA1102001999999REMMET005CAVOKEQDQ01+000000PRSWM2
0215070240999991989060206004+49650-001467FM-12+0138LFRC V0200701N00311015001CN0100001N9+00801+00801101301ADDAA199005091AG10002AY181061AY261061GA1031+003009099GA2041+015009059GF107991071091004501999999GJ100009IA1119IA2999+00609KA1999N+00721MD1210041+9999MW1251OA149900411REMSYN041333   20072 32006 83910 84650 91108 94000
0121725180147351989051012024+42750-073800SAOSP+0089ALB  V0200101N003610270019N0048001N1+99999+99999999999ADDAG10000GD12991+0009099GD22991+0150099GD34991+0270099GF108991999999999999999999MA1101861100781MW1451EQDQ01+999990APOSP 
0119033550999991989030812004+53833-001200FM-12+0009EGXG V0201901N00571060001CN0170001N9+00801-00081101771ADDAA106000091AG14000GA1011+012009059GA2071+060009009GF107991011051012501071021MD1810241+9999REMSYN017333   81640 87070
0083133700999991989120612004+43833+020033FM-12+031299999V0209991C00001220001CN0040001N9+00301+00201102751ADDAA106000091AG10000AY101061AY241061GF100991001001999999001001MD1810191+9999MW1101
0079063700999991989012115554+51450+005417FM-15+0022EHEH V0202101N00621002701CN0038001N1+00601+00501999999ADDAG12999GA1021+001509079GA2051+002709079GA3081+004809059MA1101291999999MW1611
006172509014739198908312000A+42367-071033SAO  +0009BOS  V0203101N003112200019N0240001N1+02221+01001101591ADDAA101000095GF100991999999999999999999MA1101591101491MW1001
0059101360999991989120109304+53767+008667FM-16+0032EDCN V0200901N00461220001CN0025001N1+99999+99999999999ADDAG12000GA1041+001209079MW1101REMMET018YLO YLO TEMPO RED?
0123107610999991989020808004+49017+010967FM-12+042499999V0209991C00001220001CN0025001N9-00231-00291103371ADDAG12999AY101021AY201021GA1011+000609079GF101991011061000751001001MA1999999098021MD1410001+9999MW1401REMSYN011333   81702
0074109470999991989041821504+47983+010233FM-15+0644EDSM V0202101N00151220001CN0080001N1+00401+00201999999ADDAG12999GA1031+015009059MA1101391999999REMMET005BLU+?EQDQ01+000000PRSWM2
0094356990999991989121815004+47450+074817FM-12+062099999V0209991C00001007501CN0200001N9-00301-00371102691ADDAA106000091AG14000GF108991081061008001999999KA1120M-00241MD1210221+9999REMSYN011333   11024
0057727935242341989112204004+47533-122300SAO  +0005BFI  V0203501N003112200019N0320001N1+00611+00441999999ADDAG10999GF100991999999999999999999MA1102511999999MW1001
0062170600999991989041003504+40967+028817FM-15+0037LTBA V0200401N00411003001CN0070001N1+01001+00801999999ADDAG12999GA1051+003009079MA1101591999999MW1101REMMET006NOSIG?
0086710763999991989010110004+59567-108483SAO  +0318WDC  V0200501N002619999999N9999999N9-03801-04201102481ADDAG10999MD1710221+9999MW1001REMAWY0287022       ?    (0000,0000)?EQDQ01+000002VOVAR 
0119724695230361989040403004+39717-104750SAO  +1726BKF  V0203301N002612200019N0400001N1+00281-00661101571ADDAG10000GD12991+0300099GD22991+0750099GF102991999001999999071011MA1101631999999MD1210301+9999MW1001REMAWY009230 1071?
0122719220999991989052611004+55150-105267SAO  +0379YVC  V0201201N00411024001EN0240001N1+00401-00201101491ADDAG10999GD13991+0240099GD23991+0750099GF107991999999999999999999MA1101321096861MW1001REMAWY007AC8CI1?EQDQ01+999990APOSP 
0072725316999991989110405004+39833-088867SAO  +0207DEC  V0201701N00771012601MN0480001N1+00391-00211999999ADDAG10999GD14991+0126099GF108991999999999999999999MA1101931999999MW1001
0064718140999991989102803004+50467-059633SAO  +0010WDM  V0203201N002619999999N0144001N1+00001-00101101801ADDAG10000MA1999999101711MD1710071+9999MW1001EQDQ01+999990APOSP 
0107999999999991989071506004+27100+121700FM-13+9999PJFN V0201401N00361220001CN0500001N9+02881+02501101031ADDAG12000GF103991031011004501001001MD1710061+9999UA1M020159999UG1080201609REMSYN02322253 20203 316// 40804
0065476860999991989070218304+35767+140383FM-15+0044RJAA V0200201N00411001201CN0033001N1+01501+01401999999ADDAG12999GA1071+001209079MA1101591999999MW1611REMMET009BR NOSIG?
0036152150999991989120823004+46083+025617FM-12+050899999V0209991C00001220001CN0100001N9-01401+99999999999ADDAG12999GF100991001001999999001001
0060030030999991989073120204+59883-001300FM-15+0005EGPB V0203301N00931220001CN0112001N1+01001+00501999999ADDAG12999GA1031+005409089MA1100811999999EQDQ01+000000PRSWM2
0054714120999991989050404004+46450-061967SAO  +0011WEP  V0202201N005719999999N0096001N1+00501+00201100041ADDAG10999MA1999999099881MD1010001+9999REMAWY0060000 ?
0132999999999991989021303004+53500-168600FM-13+9999WTDM V0200901N01801001201CN0200001N9+00651+00401100401ADDAG12000GF107991071011001501051999MD1710481+9999SA1+0329UA1M050109999UG1070250909REMSYN04022211 00032 20502 309// 40705 ICE   ////
0024095690999991989122920004+50483+012133FM-12+038999999V0201801N003019999999N9999999N9-00201-00481102461ADDAG12999MD1510011+9999
0060969350999991989051905004-07367+112767FM-15+0003WRSJ V0200901N00411220001CN0112001N1+03101+02301999999ADDAG10999GA1011+006009089MA1100911999999EQDQ01+000000PRSWM2
0081546160999991989091900004+38333+116833FM-12+001199999V0200201N00301220001CN0150001N9+01421+00051102201ADDAA106000091AG14000GF100991001001999999001001MD1210181+1201REMSYN011333   01255
0284726221947251989022818003+44933-074850SAO  +0065MSS  V0202705N006250243859N0192005N1+00005-01005101665ADDAA106000091AG10000GD12995+0120099GD23995+0240099GF107065999999999999999999KA1999N-01001MA1101661100885MD1710101+9999MW1001REMAWY007710 14?EQDN01 00000JPWTH 0QNNE11 0 00299E11 0 00499G11 0 00080K11 0 00014L11 0 01200M11 0 29790N11 0 00000Q11 0 10166S11 0 00032V11 0 00908X11 0 27012
0050364870999991989100621004+48267+077317FM-12+069999999V0209991C00001220001CN9999999N9+00441+00081102061ADDAG12000GF100991001001999999001001MD1210011+9999
0047160990999991989010516204+45650+012183FM-15+0023LIPH V0209991C00001000151CN0000001N1-00201-00201999999ADDAG12999GA1091+000159999MA1103011999999MW1451
0057724125999991989041311004+37300-081217SAO  +0871BLF  V0209991C000012200019N0320001N1+00281-00931102291ADDAG10999GF100991999999999999999999MA1102241999999MW1001
0115639800999991989080715004-04667+055517FM-12+0003FSSS V0201401N00771045001CN0250001N9+02551+02101101311ADDAG10999AY181031AY221031GF107991031081004501031021MD1999999-0011MW1021OA149901241REMSYN023333   59001 94314 91124
0200724885931021989072902003+39417-118717SAO  +1199NFL  V0203005N005252200059N0112005N1+03505+00175100945ADDAG10999GF100995999999999999999999MA1101291087625MW1001EQDN01 00000JPWTH 0QNNE41 0 00000G41U0 99999K41 0 00035L41 0 00700C41 0 29910M41D0 25875N41 0 00000Q41 0 10094S41 0 00095V41 0 00099X41 0 30010
0143999999999991989092718004-17200+160500FM-13+9999SHIP V0201201N013419999999N0100001N9+02501+02221101901ADDAG10999AY181061AY221061GF107991999999999999999999MD1710651+9999MW1001SA1+3009UA1M120109999UG1050201109REMSYN02922232 00300 21202 31100 40504
005472462023061198906030200E+37450-105867SAO  +2298ALS  V02099999999999999999N999999999+01725+99999999999ADDAA101000095MA1999999077065QNNM11 0 22755S11 0 00063
0078725250148521989032111034+41267-080667SAOSP+0361YNG  V0203301N00821002401MN0064001N1+99999+99999999999ADDAG10999GD14991+0024099GF108991999999999999999999MA1101661999999MW1451MW2851
0065412170999991989032223364+24433+054650FM-15+0027OMAA V0209991C00001999991CY0099001N1+01701+01501999999ADDAG12000MA1101291999999REMMET012CAVOK NOSIG?EQDQ01+000000PRSWM2
0050304370999991989040303004+55150+107600FM-12+049799999V0201801N00101030001CN0200001N9-00351-00751101911ADDAG12000GF108991021091012501031071MD1710211+9999
0079101470999991989022805204+53633+010000FM-15+0016EDDH V0202401N00571220001CN0112001N1+00301+00201999999ADDAG12999GA1011+004509059GA2031+012009059MA1097901999999MW1211REMMET007NOSIG ?
0076711320999991989020211004+59250-105833SAO  +0250YSF  V0202701N003612200019N0240001N1-04001+99999104521ADDAG10999GF100991999999999999999999MA1104061101031MW1001EQDQ01+999990APOSP 
0076011520999991989081522204+67267+014367FM-15+0013ENBO V0201001N00511220001CN0112001N1+01401+01301999999ADDAG12999GA1011+012009059GA2041+030009039MA1099801999999EQDQ01+000000PRSWM2
0057725376148531989071410004+42233-083533SAO  +0218YIP  V0203301N003612200019N0240001N1+99999+99999999999ADDAG10999GF100991999999999999999999MA1101591999999MW1001
0031476710999991989012605334+35550+139767FM-15+0006RJTT V0200101N00261220001CN0042001N1+00701+00101999999ADDAG12003MA1102031999999MW1211
0082789480999991989042022004+13750-060950FM-15+0003TLPL V0201201N00771220001CN0112001N1+02601+02201101251ADDAG12999GA1011+007509089MA1101191101171MW1051EQDQ01+999990APOSP Q02+999990APOSLP
0080361770999991989042003004+50350+080250FM-12+020699999V0202701N005019999999N0100001N9+00371-00601103421ADDAA106000091AG14000GF108991001999999999999999MD1810021+9999EQDQ01+000072SCOLCG
0095714963999991989011315004+65767-111233SAO  +0494YWO  V0203301N02061000151WN0000001N1-02601-02801999999ADDAG10000GD15991+0001599GF109991999999999999999999MA1097731999999MW1381OC102471REMAWY006BS10 ?
0067719310999991989110705004+54767-112017SAO  +0567WLB  V0209991C000019999999N0144001N1-00401-00701099691ADDAG10999MD1710141+9999MW1001REMAWY0287014       ?    (0000,0000)?
002872659014929198908101000E+45450-098433SAO  +0395ABR  V02099999999999999999N999999999+01785+99999999999ADDAA101000095QNNS11 0 00064
0090072220999991989010705004+47167-001600FM-15+0027LFRS V0200101N00211000901CN0030001N1+00701+00701999999ADDAG12999GA1051+000909079GA2081+003009059MA1102711999999MW1101REMMET018GRADU 1500 8ST003?
0039105170999991989081802004+50700+007150FM-12+006499999V0203401N001019999999N0100001N9+01591+01191102351ADDAG12999MA1999999101581MD1210121+9999
0113345550999991989122612004+48367+043100FM-12+007799999V0209991C00001006001CN0200001N9+00161-00031102671ADDAG12000GA1081+006009059GF108991081051004501999999MA1999999101811MD1210101+9999REMSYN023333   88620 555   11003
0147064490999991989062314004+50467+004450FM-12+0192EBCI V0203101N00211005101CN0050001N9+01621+01301102001ADDAG11999AY121021AY221021GA1041+003909079GA2061+005109059GF108991071051004501999999MD1110051+9999MW1101OA149900411REMSYN023333   84713 86617 91108
0063843770999991989090605004-03750-073250FM-15+0126SPQT V0203001N00621220001CN0112001N1+02501+02401999999ADDAG10999GA1011+004809099GA2021+009009059MA1101081999999MW1131
0052999999999991989110915164+64383-032167FM-18+9999DRIB V02099999999999999999N9999999N9+99999+99999099571ADDAG10999MD1210061+9999SA1+0619REMSYN011333   44623
0087722359139781989010722004+33500-090083SAO  +0047GWO  V0201601N006210240019N0160001N1+02391+01611101051ADDAG10999GD12991+0135099GD24991+0240099GF108991999999999999999999MA1101051999999MW1001
0069999999999991989090118004+29200+133100FM-13+9999VLAP V0201301N00981220001CN0500001N9+02731+99999999999ADDAG12000GF103991999999002501999999UA1M020059999REMSYN01122283 20201
0038714290999991989121521004+48417-064317SAO  +0016WRZ  V02099999999999999999N0096001N1+99999+99999999999ADDAG10000REMAWY019/-04/-05/0000/-/  ?
0094080480999991989091718004+42333-007867FM-12+012799999V0201601N00151004201CN0100001N9+02341+01351101191ADDAA106000091AG14000GF107991051051004501071011KA1120M+02721MD1310051+9999REMSYN011333   10272
0102476430999991989082705184+35833+139417FM-16+0093RJTJ V0201501N01241001801CN0025001N1+99999+99999999999ADDAG12059ED199U15849GA1061+001809089GA2081+003909089MW1801OC101801REMMET026VIS N 4500M.     ?     BR?
012772261022010198907120100D+29367-100917SAO  +0313DRT  V0201401N004612200019N0128001N1+03501+01221101241ADDAA101000095AG10999GF100991999999999999999999MA1101421097791MW1001REMAWY015PK WND 14 000 ?EQDQ01+999990APOSP Q02+999990APOSLP
0233724885931021989062416003+39417-118717SAO  +1199NFL  V0200205N002152200059N0112005N1+02065+00175101355ADDAG10999GD12045+0240099GF104995999999999999999999MA1101591087935MW1001REMAWY009ACCAS SE?EQDN01 00000JPWTH 0QNNE41 0 00205G41U0 99999K41 0 00035L41 0 00700C41 0 30000M41D0 25965N41 0 00000Q41 0 10135S41 0 00069V41 0 00599X41 0 02004
0131117100999991989111718004+49650+016950FM-12+051899999V0201001N00301220001CN0050001N9-00451-00571103151ADDAA106000091AG14000AY101061AY201061GF100991001001999999001001KA1120M-00051MA1999999096601MD1510001+9999MW1101REMSYN011333   11005
0105716240999991989121319004+43667-079633SAO  +0173YYZ  V0200401N002112200019N0320001N1-00901-01401101831ADDAG10999GD14991+0750093GF108991999999999999999999MA1101691099631MW1001REMAWY005CI5 ?EQDQ01+999990APOSP 
025872537094847198912240500C+42233-083333SAO  +0193DTW  V0202005N002652200059N0112005N1-01945-02115103635ADDAA101000095AG10999GA1999+060965025GD12025+0600099GF102025999999999999999999MA1103451101005MW1001EQDQ01+999990APOSP N01 00000JPWTH 0QNNE11 0 00202G11U0 99999H11 0 37200K11 0-00006L11 0 00700M11 0 29825N11 0 00000Q11 0 10363S11 0-00003V11 0 00202X11 0 20005
0067702320265161989051513004+61583-159533SAO  +0026ANI  V0202701N002119999999N9999999N9+00111+00001999999ADDAG10999MA1100851999999REMAWY014PK WND 42 376?EQDQ01+000002VOVAR 
0169119300999991989042606004+49200+020217FM-12+263599999V0202501N00901048001CN0200001N9+00481-00251999999ADDAA106000091AG14000AJ101609199999999GA1061+048009029GF106991001001999999001081IA1289KA1120N+00001MA1999999073331MD1510001+9999ME1430129REMSYN023333   20000 44160 86266
0051371160999991989010800004+43783+041900FM-12+086299999V0201401N00201036001CN0200001N9-00351-00671999999ADDAG12005GF108991081001999999021999MA1999999090911
0121999999999991989120600004+30400-041300FM-13+9999UDSW V0202401N00501007501CN0200001N9+02151+99999102221ADDAG12000GF107991061041008001021001MD1310061+9999SA1+2209UA1M040109999UG1080152809REMSYN02922255 00220 20402 32800 40803
0065071100999991989011101504+48450-004417FM-15+0103LFRB V0201201N00211999991CY0099001N1+00401+00201999999ADDAG11999MA1102401999999REMMET012CAVOK NOSIG?EQDQ01+000000PRSWM2
0152104010999991989051014004+51200+006133FM-12+0076EDUR V0202301N00101009601CN0070001N9+01571+00731101011ADDAG12999AY121021AY221021GA1061+009609089GA2051+027009039GA3081+066009029GF108991061021012501031071MD1810011+9999MW1051REMSYN023333   86832 85359 88272
0084307570999991989040318004+52117+112667FM-12+096899999V0202401N00201220001CN0500001N9+00471-00451101051ADDAG12000GF103991999001999999071001MA1999999089841MD1710011+9999EQDQ01+000022SCOTLC
0072917540999991989100209004-14317-178117FM-12+0036NLWF V0200601N00101220001CN0200001N9+02501+02201101201ADDAG10999GA1021+006009089GF102991021021008001001001REMSYN011333   82820
025872306013722198912030400C+35867-078783SAO  +0127RDU  V0202205N004652200059N0240005N1+00675-00115100815ADDAA101000095AG10999GA1999+076205005GD11035+0750093GF103015999999999999999999MA1100811099205MW1001EQDQ01+999990APOSP N01 00000JPWTH 0QNNE81 0 00104G21U0 99999H11 0 32250K21 0 00030L21 0 01500M11 0 29295N21 0 00000Q21 0 10081S21 0 00044V11 0 00401X21 0 22009
0078999999999991989120618004+39700+150100FM-13+99998JNH V0203001N01181007501CN0200001N9+00751-00071101201ADDAG12000GF107991071041008001001001MD1410001+9999SA1+1509REMSYN01122213 00150
0081480350999991989090609004+22933+097750FM-12+0749VBLS V0209991C00001090001CN0100001N9+02871+02301099981ADDAA106000091AG14000GF105991021091008001031031MD1999999+0051REMSYN011333   58005
0108579930999991989012118004+25850+114950FM-12+0125ZSGZ V0203601N00101004201CN0090001N9+00531+00441102431ADDAA106004091AG10001AY161061GF108991081051004501999999KA1240M+00671MD1710041+9999MW1601REMSYN011333   10067
025872411013741198912182300C+37317-079967SAO  +0350ROA  V0202005N001552200059N0240005N1-00445-01175102665ADDAA101000095AG10999GA1999+076205005GD14085+0750093GF108035999999999999999999MA1102511098245MW1001EQDQ01+999990APOSP N01 00000JPWTH 0QNNE81 0 00510G21U0 99999H11 0 32250K21 0 00011L21 0 01500M11 0 29010N21 0 00000Q21 0 10266S21 0 00024V11 0 01004X21 0 20003
0045104160999991989071114504+51517+007617FM-15+0127EDLW V0203301N00511220001CN0112001N1+99999+99999999999ADDAG12000GA1031+012009089EQDQ01+000000PRSWM2
0140064000999991989090108004+51083+002650SY-MT+0009EBFN V0203601N00571220001CN0150001N1+01681+00871102111ADDAG12999GA1011+008409089GF102991021081008001001011MA1102101999999MD1310101+9999MW1001REMSYN011333   81828MET008BLU BLU?EQDQ01+000000PRSWM2
0024043510999991989091515004+67783-032283FM-12+002399999V0200701N006219999999N9999999N9+01191+00491100051ADDAG12000MD1210111+9999
0052999999999991989090812004+43600-078900FM-13+9999VDJL V0202001N00621002401CN0040001N9+02101+00011999999ADDAG12000GA1091+999999999GF109991091999999999999999
0091105130999991989092915504+50867+007133FM-15+0092EDDK V0200301N00151024001CN0112001N1+01301+01001999999ADDAG12999GA1031+012009059GA2071+024009039MA1102711999999REMMET006NOSIG?EQDQ01+000000PRSWM2
0100161530999991989040419154+43950+008167FM-15+0221LIMU V0202901N01081006001CN0112001N1+00901+00501999999ADDAG12999GA1051+006009059GA2081+027009049MW1601REMMET043OVC QUK2 QUL1S         ?     VIS MAR 10 KM?
0084299230999991989112603004+53067+082300FM-12+021499999V0200901N00101220001CN0200001N9-01651-01781102751ADDAG12000GF100991001001999999001001MA1999999099871MD1710091+9999EQDQ01+999990APOSP 
0065167490999991989010419504+36400+028083FM-15+0011LGRP V0209991C00001999991CY0099001N1+00701-00201999999ADDAG12999MA1103181999999REMMET012CAVOK NOSIG?EQDQ01+000000PRSWM2
0101874180999991989060221004-32833-068783FM-12+0704SAME V0200501N00411090001CN0150001N9+01401+00451101671ADDAG10999GA1011+015009089GF106991011021017501071061MA1999999093531MD1610151+9999REMSYN011333   81850
0074714170999991989112704004+44600-063533SAO  +0017WDA  V0203401N002619999999N9999999N9-01101-01301100831ADDAG10999MA1999999100451MD1610071+9999EQDQ01+999990APOSP Q02+000002VOVAR 
0047162390999991989103005104+41800+012550FM-15+0101LIRA V0201101N00101220001CN0080001N1+01701+01501999999ADDAG12999GA1041+006909059MA1102101999999MW1101
0050470500999991989042418004+39617+125650FM-12+002799999V0203401N00201036001CN0150001N9+00891+00461101251ADDAG12000GF107991071001999999031001MD1410001+9999
0050094740999991989090408004+51883+012650FM-12+010699999V0203401N00201030001CN0150001N9+01421+00791102151ADDAG12999GF107991051001999999031011MD1210121+9999
0123710690999991989052319004+55300-114783SAO  +0581YZH  V0201301N003112200019N0400001N1+01201-00201100771ADDAG10999GD12991+0150099GD23991+0750093GF107991999999999999999999MA1100611093871MW1001REMAWY008CU1CI1 ?EQDQ01+999990APOSP 
0084479180999991989110523004+24333+124167FM-15+0007ROIG V0201001N00361220001CN0112001N1+02601+02201999999ADDAG12999GA1031+005409089MA1101831999999REMMET015(WIND 060V140)?EQDQ01+000000PRSWM2
0010094540999991989041301004+51850+010767FM-12+024099999V0209991V001019999999N9999999N9+00881+00591999999ADDAG12999
0098743700999991989060814004+44050-075733SAO  +0207GTB  V0203201N001010420019N0240001N1+02001+01331101461ADDGA1021+021009999GA2071+042009999GA3081+090009999GF108991999999999999999999MA1101461999999MW1001
0144489000999991989042706004+10817+106667SY-MT+0019VVTS V0203201N00201005101CN0100001N1+03271+02501101081ADDAA106000091AG14000GA1051+005109089GA2031+090009009GF107991051021004501001011MD1999999+0101REMSYN011333   58010MET0061011:?EQDQ01+000000PRSWM2
0122171120999991989091418004+40133+026400FM-12+0003LTBH V0200301N00211220001CN0200001N9+02101+01201101501ADDAA106000091AG14000GA1021+030009039GF102991021001999999031001KA1120M+02401MD1710061+9999REMSYN023333   10240 82360 91828
0073415710999991989041809004+33617+073100FM-12+0508OPRN V0200901N00261220001CN0100001N9+03081+00611100601ADDAA106000091AG14000GF103991031041012501001001REMSYN017333   56900 5800/
0224718640999991989071818004+50333-105550SY-SA+0577YMJ  V0201401N002112200019N0240001N1+02621+01421102021ADDAA106000091AA224012091AG14000GD12991+0144099GD22991+0300099GD32991+0900093GF102991999999999999999999KA1120M+02651KA2240N+01431MA1102001095251MD1110041+9999REMSYN023333   10265 20143 70120AWY028CU1ACC1CI        ?    1004 ?
0058344070999991989120609004+48817+035167FM-12+013299999V0202901N00201220001CN0200001N9-00671-00951999999ADDAG12001AY181031AY211031GF100991001001999999001001MW1021
030072525014852198912190000C+41250-080667SAO  +0360YNG  V0202305N001552200059N0240005N1-01285-01675102915ADDAA101000095AA206000091AG10000GA1999+076205005GF100005999001999999001991MA1102611098295MD1210121+9999MW1001REMAWY023FEW CI/ 212 1001 41792?EQDQ01  00003PRCP99N01 00000JPWTH 0QNNE81 0 00000G21U0 99999H11 0 32250K21 0 00002L21 0 01500M11 0 29025N21 0 00000Q21 0 10291S21 0 00009V11 0 00000X21 0 23003
0135671520999991989070306004-22550+045400FM-12+0824FMSO V0209991C00001220001CN0400001N9+01791+00881999999ADDAA106000091AG10999GA1011+006009059GF101991011051008001001001KA1120M+02621KA2120N+00971MD1210101+9999REMSYN023333   10262 20097 81620
0097714310999991989101917004+43950-078167SAO  +0078WNC  V0200501N007219999999N9999999N9+00501+00001102371ADDAG10999MA1999999101411MD1710291+9999OC101241REMAWY0067029 ?EQDQ01+999990APOSP Q02+000002VOVAR 
0061467490999991989072306004+24150+120683FM-12+007899999V0202501N00361007501CN0150001N9+02691+02351101021ADDAA106000091AG14000GF107991071021008001999999MD1310041+9999
0140999999999991989030806004-33000+040500FM-13+9999VRMG V0200901N00621220001CN9999999N9+02201+01011102361ADDAG10999GF102991999011999999001001MD1110101+9999SA1+2259UA1M020059999UG1040150909REMSYN02922263 00225 20201 309// 40403EQDQ01+000012SCOTLC
0051827980999991989012503004-07100-034867FM-12+0007SBJP V0209991C00001220001CN0150001N9+02541+02241999999ADDAG10999GF103991031011008001001001MA1999999101141
0108034920999991989031404004+52633+001317FM-12+0018EGSH V0203001N00311075001CN0200001N9+00451+00151101791ADDAG12999GA1021+030009039GA2071+075009009GF107991021001999999031021MD1610041+9999REMSYN017333   82360 87075
0142726185146051989061110004+44317-069800SAO  +0107AUG  V0202201N003610006019N0012001N1+01061+01061100501ADDAG10999GD16991+0001599GD23991+0006099GD33991+0090099GD44991+0300099GF108991999999999999999999MA1100471999999MW1451REMAWY016F4 VSBY NE 11/2?
023072537514822198906120000C+42417-083017SAO  +0189DET  V0202005N003150609659N0240005N1+02225+01065999999ADDAA101000095AA206000091AG10000GD12995+0300099GD23995+0600099GF106035999999999999999999MA1101931999999MW1001EQDN01 00000JPWTH 0QNNE81 0 00299E81 0 00499G21 0 00200K21 0 00051L21 0 01500N21 0 00000S21 0 00072V11 0 00704X21 0 20006
0053994060999991989022522004+43967-068133FM-12+0009MDRM V0203401N012919999999N9999999N9-00551+99999100651ADDAG12999OA139901541REMSYN023333   92130 555   92200
0143206750999991989121012004+73683+085250FM-12+001599999V0201801N00801220001CN0160001N9-02941-03241102061ADDAA106000091AG10000AY131061AY201061GF103991021001999999031011KA1120M-02941MA1999999101831MD1810031+9999MW1361REMSYN023333   11294 555   1/130
0056590210999991989122421004+25000+107167FM-12+030599999V0203401N00201015001CN0150001N9+00861+00581101851ADDAG12000GF108991081051017501999999MD1710061+9999MW1601
0038999999999991989091215384-27800+087433FM-18+9999DRIB V02099999999999999999N9999999N9+01751+99999102331ADDAG10999SA1+1879REMSYN011333   56546
0247766750999991989020718004+19300-099667FM-12+272099999V0203601N00101030001CN0200001N9+01561+00611101291ADDAA106000091AG14000AY141061AY241061GA1021+005101091GA2031+030001041GF108991021091004501021071IA1019KA1120M+01561KA2240N+00251MA1999999073991MD1210011-0011MW1051OA139900201REMSYN065333   10156 20025 30/// 56999 57991 59001 82917 83460 92036 92102
0051719025999991989110213004+60417-064850SAO  +0031WWV  V0203501N009319999999N9999999N9-00701-01001099971ADDAG10999MD1210381+9999OC101241EQDQ01+000002VOVAR 
0068359410999991989080815004+45683+060067FM-12+008099999V02099999999999999999N0200001N9+02921+01411101101ADDAA106000091AG14000KA1120M+03181MD1410001+9999REMSYN011333   10318
0065171270999991989081118004+40083+032567FM-15+0843LTAE V0203601N00311999991CY0099001N1+02501+01501999999ADDAG12000MA1101081999999REMMET012CAVOK NOSIG?EQDQ01+000000PRSWM2
0058714210999991989082214004+51850-063283SAO  +0593WEO  V0203401N001519999999N9999999N9+01001+00901100691ADDAG10999MD1210101+9999REMAWY0062010 ?EQDQ01+000002VOVAR 
0087722576039021989081017004+31067-097833SAO  +0309GRK  V0201001N003112200019N0112001N1+02611+01561102011ADDAG10999GD12991+0120099GD23991+0750093GF107991999999999999999999MA1102131999999MW1001
031172556014941198907141100C+41983-097433SAO  +0471OFK  V0201205N00465015245MN0240005N1+02005+01565101725ADDAA101000095AG10999GA1999+015245065GA2999+022865035GD13055+0150099GD24035+0210099GF108085999999999999999999MA1101861096285MW1001EQDQ01+999990APOSP N01 00000JPWTH 0QNNE81 0 00406E81 0 00604G21 0 00050H11 0 15050H11 0 23075K21 0 00060L21 0 01500M11 0 28430N21 0 00000Q21 0 10172S21 0 00068V11 0 01010X21 0 12009
0094028010999991989071818004+69050+020783FM-12+047699999V0202801N00821030001CN0350001N9+00761+00381101301ADDAA106000091AG14000GF105991021051008001031001KA1120M+01021MD1210051+9999REMSYN011333   10102
0074117350999991989042321004+50067+017233FM-12+149299999V0203501N00801220001CN0200001N9-00231-00291999999ADDAG12000GF100991001001999999001001MA1999999084431MD1110051+9999ME1314389
0215430140999991989080712004+19850+075400FM-12+0579VAAU V0203201N00411004501CN0040001N9+02301+02151100371ADDAA109002091AG10001AY151061AY221061GA1031+002409079GA2041+004509059GA3081+018009049GF108991061071004501021999KA1120M+02461MA1999999093961MD1999999+0181MW1501REMSYN047333   10246 5666/ 58018 6002/ 83708 84615 88456
0050319870999991989030103004+43150+133017FM-12+020299999V0203401N00901220001CN0500001N9-00191-01551102821ADDAG12000GF102991021011012501001001MD1110131+9999
0058413160999991989093021304+17033+054083FM-15+0020OOSA V0202901N00151999991CY0099001N1+02401+02301999999ADDAG12999MA1101021999999REMMET005CAVOKEQDQ01+000000PRSWM2
0085272420999991989070512004+58483+041533FM-12+009799999V0200201N00101030001CN0500001N9+01981+01511101381ADDAG12000GF108991021091008001051999MD1710011+9999EQDQ01+000032APCTENQ02+000002APC3  
022172574124027198901011600C+41600-109067SAO  +2055OCS  V0202405N004152200059N0480005N1-01005-01175102355ADDAA101000095AG10999GF100005999999999999999999MA1101761079295MW1001REMAWY012FEW CU SE-W?EQDN01 00000JPWTH 0QNNE81 0 00099G21U0 99999K21 0 00011L21 0 03000M11 0 23415N21 0 00000Q21 0 10235S21 0 00014V11 0 00000X21 0 24008
0099700637274061989031416004+70200-148467SAO  +0017SCC  V0200901N003110015019N0024001N1-00881+99999999999ADDAG10999GD16991+0001599GD24991+0015099GF108991999999999999999999MA1103221999999MW1451REMAWY003F5?
0042718760999991989010920114+52767-108250SAOSP+0548YQW  V0209991C000012200019N0240001N1+99999+99999999999ADDAG10999GF100991999999999999999999MW1001
0102723307999991989103021004+33450-088583SAO  +0080GTR  V0202701N002112200019N0096001N1+02561+01061999999ADDAG10000GD12991+0105099GD22991+0300099GD32991+0750099GF102991999999999999999999MA1101421999999MW1051
0050540960999991989102621004+44383+131150FM-12+049899999V0209991C00001220001CN0200001N9-00601-00751102441ADDAG12000GF100991001001999999001001MD1710091+9999
0065506320999991989113009004+48767+121917FM-12+073999999V0202901N00301220001CN0300001N9+00601-01101102691ADDAG12000GF100991001001999999001001MA1999999093361MD1710051+9999
0065013110999991989040208204+60300+005217FM-15+0050ENBR V0209991C00001999991CY0099001N1+00601-00401999999ADDAG12999MA1102201999999REMMET012CAVOK NOSIG?EQDQ01+000000PRSWM2
0076161200999991989041104084+44417+008850FM-15+0003LIMJ V0203601N01031030001CN0112001N1+01601+01001999999ADDAG12999GA1021+006009089GA2061+030009049MA1101021999999EQDQ01+000000PRSWM2
0105719280999991989030622004+52433-114917SAO  +0989YRM  V0200301N004612200019N0640001N1+00401-00401100541ADDAG10999GD12991+0150099GF102991999999999999999999MA1100031088791MW1001REMAWY005CU5 ?EQDQ01+999990APOSP 
0161999999999991989122900004-34400+158500FM-13+9999ZMQR V0201401N00871220001CN0200001N9+02231+01531101691ADDAG10999AY111061AY221061GF103991021011004501011999MD1110111+9999MW1011SA1+2309UA1M010059999UG1060102409UG2080051809REMSYN03522223 00230 20101 32418 40602 50801
0087724397999991989040817004+40483-088933SAO  +0267BMI  V0203601N00771003301EN0160001N1+00281+99999999999ADDAG10999GD13991+0033099GD23991+0150099GF107991999999999999999999MA1100781999999MW1001
0050333450999991989102900004+50400+030450FM-12+0179UKKK V0201701N00201220001CN0150001N9+00411+00131102701ADDAG12000GF100991001001999999001001MD1710131+9999
020072219013874198905281900C+33650-084433SAO  +0308ATL  V0200805N003152200059N0400005N1+02835+01065102195ADDAA101000095AG10999GF100005999999999999999999MA1102301098545MW1001EQDN01 00000JPWTH 0QNNE81 0 00099G21U0 99999K21 0 00051L21 0 02500M11 0 29100N21 0 00000Q21 0 10219S21 0 00083V11 0 00000X21 0 08006
0087911904999991989030423054+20967-156833SAOSP+0078JHM  V0202701N00211003001EN0048001N1+99999+99999999999ADDAG10999GD13991+0030099GD24991+0270099GF108991999999999999999999MA1101291999999MW1801
0057722506129591989102104004+26183-098233SAO  +0033MFE  V0201401N004612200019N0240001N1+01611+00671102501ADDAG10999GF100991999999999999999999MA1102511999999MW1001
0091785260999991989011001004+18433-066000SAO  +0019TJSJ V0201001N004612200019N0208001N1+02501+01891101901ADDAG10999GD12991+0090099GF102991999999999999999999MA1101901101691MW1001EQDQ01+999990APOSP 
0095725198999991989090812004+41700-073733SMARS+021344N  V0200901N005119999999N0111001N9+01831+99999102091ADDAG10999AY121061GF107991999999999999999999MW1001UG1050009999REMSYN024STATION     SHORT BEACH?
0087153350999991989012821004+45183+028817FM-12+000699999V0209991C00001004201CN0020001N9+00351+00221104061ADDAG12000AY121031AY221031GF108991081061004501999999MA1999999103981MD1410001+9999MW1101
0230780620999991989112603004+26550-078700SY-SA+0011MYGF V0200601N003110300019N0190001N1+02101+01611102031ADDAA106000091AG10000GA1021+006009089GA2061+030009039GA3081+060009009GD12991+0060099GD23991+0300099GD34991+0750099GF108991999999999999999999MA1102001999999MD1210031+9999MW1001REMSYN046333   82820 86360 88070 91903   RJCT40  343246
0101745980137021989010402004+37083-076367SAO  +0003LFI  V0209991C00001001501MN0032001N1+00611+00501099771ADDAG10999GD13991+0015099GD24991+0021099GF108991999999999999999999MA1099731999999MW1451REMAWY005WR//?
0084287360999991989033012004+54300+059483FM-12+052599999V0201801N00301030001CN0200001N9+00091-00371101191ADDAG12000GF108991081001999999011999MA1999999094821MD1810061+9999EQDQ01+999990APOSP 
0328787670999991989092100004+10000-083050SY-MT+0026MRLM V0202201N00211027001CN0100001N1+02541+02291100911ADDAA106000391AA224008791AG10001AY151061AY251061GA1021+006009089GA2051+027009039GA3031+084009009GF108991021021008001071021IA1019KA1120M+02991KA2180N+02321MA1100811100871MD1510001-0051MW1151REMSYN053333   06622 10299 20232 30/// 59005 70087 82820 85459MET052CB DST /         ?     HZ ARND    RN  ENE/S/SW/W   ?EQDQ01+000000PRSWM2
0047071680999991989020107004+48333+004017FM-15+0118LFQB V0201801N00211060001CN0020001N1-00601-00601999999ADDAG11999GA1051+060009009MA1103691999999MW1101
0076152610999991989070500004+45683+026017FM-12+071099999V0209991C00001036001CN0120001N9+01481+01481102191ADDAA106000091AG14000GF107991041031008001071001MA1999999094061MD1710041+9999
0087723307999991989021217004+33450-088583SAO  +0080GTR  V0209991C000012200019N0112001N1+01391+00501999999ADDAG10999GD12991+0300099GD22991+0750099GF102991999999999999999999MA1102641999999MW1001
0072722575999991989081210004+31083-097683SAO  +0256ILE  V0200901N002112200019N0112001N1+02111+01781999999ADDAG10999GD12991+0300099GF102991999999999999999999MA1101801999999MW1001
0050543740999991989040315004+41717+126917FM-12+033399999V0203601N00101220001CN0120001N9-00121-00881101881ADDAG12000GF100991001001999999001001MD1210161+9999
0086034960999991989071420004+52683+001683FM-12+001499999V0201101N00151220001CN0300001N9+01301+00931102381ADDAG12999GA1011+012009059GF101991011051012501001011MD1810071+9999REMSYN011333   81640
0072125400999991989050103004+50050+018200FM-12+020699999V0203201N00601004201CN0040001N9+00451+00321101741ADDAG12005AY161031AY261031GF108991051071004501021999MD1210021+9999MW1631
0091065900999991989092817504+49617+006217FM-15+0379ELLX V0209991V00211013501CN0112001N1+01101+00801999999ADDAG12000GA1041+006009059GA2071+013509059MA1102611999999REMMET006NOSIG?EQDQ01+000000PRSWM2
0124723405039301989082418004+34917-092150SAO  +0095LRF  V0202501N002612200019N0096001N1+03331+02671101331ADDAA106000091AG10000GD12991+0060099GF102991999021999999001001MA1101351999999MD1810071+9999MW1051REMAWY018TCU OVHD/ 807 1200
0107389540999991989092518004+37500+071500FM-12+208099999V0209991C00001220001CN9999999N9+00931+00061999999ADDAG12000GF100991001001999999001001KA1120M+02771MA1999999079321MD1310061+9999ME1315009REMSYN011333   10277
030472429093815198911131800C+39900-084200SY-SA+0303DAY  V0201905N007752200059N0112005N1+02005+00835101665ADDAA101000095AA206000091AG14000GF100005001001999999001991KA1120M+02001KA2240N+00611MA1101661098045MD1810251+9999OC101241REMSYN029333   10200 20061 555   91318AWY007825 43?EQDN01 00000JPWTH 0QNNE11 0 00099G11U0 99999K11 0 00047L11 0 00700M11 0 28950N11 0 00000Q11 0 10166S11 0 00068V11 0 00000X11 0 19015
0161164200999991989071706004+38200+015550FM-12+0051LICF V0203301N01541220001CN0120001N9+02461+02121101591ADDAA106000091AG14000GF103991031021008001001001KA1120N+02421MA1999999100971MD1610021+9999ME1100609REMSYN035333   20242 80830 95279 95647 9/555EQDQ01+999990APOSLP
0088722146128161989031714204+29683-082267SAOSP+0046GNV  V0200701N00411001501EN0040001N1+99999+99999999999ADDAG10999GD14991+0015099GF108991999999999999999999MA1102511999999MW1451REMAWY007CIG RGD
0098716010999991989031912224+44633-063500SAOSP+0051YAW  V0200401N006210138019N0160001N1+99999+99999999999ADDAG10000GD12991+0030099GD24991+0138099GF108991999999999999999999MW1001REMAWY017CF3SC7 DRFTG SNW?
0075167490999991989020606204+36400+028083FM-15+0011LGRP V0209991C00001220001CN0112001N1+01001+00601999999ADDAG12000GA1011+009009089MA1102301999999REMMET006NOSIG?EQDQ01+000000PRSWM2
0086291110999991989092818004+59217+078233FM-12+006999999V0203501N00201018001CN0500001N9-00021-00171101921ADDAG12000GA1081+018009059GF108991081051022501999999MD1410001+9999REMSYN011333   88656
0101107060999991989090304004+49483+007050FM-12+039899999V0200301N00101010801CN0100001N9+01051+00901102001ADDAG12999GA1071+010809059GF108991071051012501999999MA1999999097271MD1510001+9999REMSYN011333   87636
0109442980999991989122800004+46450+108217FM-12+128599999V0209991C00001220001CN9999999N9-02261-02261103661ADDAA106000091AG14000GF100991001001999999001001KA1120N-02451MA1999999087231MD1710031+9999REMSYN011333   21245
0057727675940111989010922004+48417-101350SAO  +0508MIB  V0202801N004612200019N0160001N1-02551-03161102101ADDAG10999GF100991999999999999999999MA1101461999999MW1761
0104992210999991989111617004+46100-131000FM-18+0003DB22 V0202301N007019999999N9999999N9+01401+99999102401ADDAG12999OA159900801SA1+1359UA1I130209999REMSYN05322200 00135 11304 70020 333   91208 555   11074 22080
0116606800999991989060821004+22783+005517FM-12+137899999V0203301N00311220001CN0080001N9+03031-00191999999ADDAG12000GA1021+018009089GF102991021021017501001001MA1999999086581MD1310161+9999ME1315279REMSYN017333   82856 95990
011791212041415198904301100A+13483+144800SAO  +0075PGUM V0200801N002112200019N0112001N1+02671+02331101261ADDAA101000095AG10999GD12991+0042099GD22991+0900093GF102991999999999999999999MA1101221100321MW1001EQDQ01+999990APOSP 
0094107640999991989122211004+49383-011183FM-15+0386EDIG V0201401N001510090019N0112001N1+01001+00801999999ADDAG12999GA1011+003609089GA2051+009009059GA3021+060009009MA1100341999999REMMET012CIG030 WR//?
0083999999999991989052918004+43600-077600FM-13+9999VDDF V0200701N00511220001CN0200001N9+00901+99999999999ADDAG12000GF102991999999999999999999SA1+0609UA1M990009999REMSYN017222// 0006/ 2//00
0072722356139391989112019004+33483-090983SAO  +0040GLH  V0202301N005712200019N0480001N1+02221+01441999999ADDAG10999GD12991+0090099GF102991999999999999999999MA1101901999999MW1001
0092062400999991989091814004+52300+004767FM-12-0002EHAM V0202101N00511220001CN0080001N9+02491+01691101331ADDAG12999AY101021AY201021GF100991001001999999001001MD1810021+9999MW1051REMSYN011555   53175
0067104020999991989082216504+51117+006217FM-15+0089EDUW V0203001N00411999991CY0099001N1+02301+01301999999ADDAG12999MA1102201999999REMMET014CAVOK BLU BLU?EQDQ01+000000PRSWM2
0061545390999991989101812004+39433+118900FM-12+001299999V0203401N00101036001CN0120001N9+00971+00741101801ADDAA106000091AG14000GF108991081001999999021999MD1210111+9999
014372529014768198905290300A+43117-077667SAO  +0169ROC  V0202001N003112200019N0240001N1+01171+00501102491ADDAA101000095AG10000GF100991999001999999001999MA1102471100431MD1810031+9999MW1001REMAWY017FEW CI/ 803 1001?EQDQ01+999990APOSP Q02    013SCOHCG
0107999999999991989031506004+21600-074700FM-13+9999NNJW V0200701N01131220001CN0200001N9+02521+02081101661ADDAG12000GF104991021011004501001011SA1+2629UA1M010059999UG1020100809REMSYN02922274 00262 20101 308// 40202
0076167100999991989120800004+37533+022400FM-12+0652LGTP V0202201N00361007501CN0140001N9+01101+00871101871ADDAA106000091AG14000GF107991061021008001071001MA1999999094201MD1810071+9999
0070824000999991989102115004-03850-032417FM-12+0056SBFN V0201501N00511220001CN0200001N9+02941+02241101411ADDAG10999GF102991021011008001001001MD1999999+0101REMSYN011333   58010
0283724755931291989061923003+37700-113100SAO  +1710CDC  V0202005N012950609659N0960005N1+03175-00445100905ADDAG10999GD12995+0480099GD24995+0600099GF108055999999999999999999MA1101831082805MW1001OC101651REMAWY036BINOVC     ?    ACSL W PKWND2037/31?EQDN01 00000JPWTH 0QNNE11 0 00299E11 0 00699G11 0 00200K11 0 00024L11 0 06000M11 0 24450N11 0 00000Q11 0 10090S11 0 00089V11 0 01006X11 0 20025
0114653380999991989122303004+07167+002067FM-12+0167DBBC V0209991C00001078001CN0040001N9+02301+01751100951ADDAG12000AY121031AY221031GA1051+078009009GF105991001001999999001021MD1999999+0021MW1051REMSYN017333   58002 85076
0075722439999991989121318004+28017-095867SAO  +0023T46  V0203601N002112200019N0400001N1+01171+00061999999ADDAG10000GF100991999999999999999999MA1102611999999MW1001REMAWY009SEAS 1-3?
0098725038147141989041818004+41500-074100SAO  +0150SWF  V0202701N005112200019N0480001N1+01671+00781999999ADDAA106000091AG10000GD12991+0135099GD22991+0600093GF102991999999999999999999MA1101351999999MW1001
0096539150999991989011712004+35550+106667FM-12+134899999V0202901N00201090001CN0300001N9-00331-01701103311ADDAA106000091AG14000GF108991001001999999001071MA1999999087141MD1210071+0201REMSYN011333   00203
0099310970999991989071821004+59183+146333FM-12+002399999V0202001N00101220001CN0500001N9+01371+01141101331ADDAA106000091AG14000GF100991001001999999001001IA2999+00809MD1310101+9999REMSYN017555   20107 3/008
0072725086999991989121523004+41367-073483SAO  +0139DXR  V0201301N00361015001EN0160001N1-00321+99999999999ADDAG10999GD14991+0150099GF108991999999999999999999MA1101351999999MW1001
0065994010999991989101602004+28900-089433FM-12+0000BURL V0201201N006719999999N9999999N9+02511+99999101351ADDAG12999OA139900721REMSYN035333   92114 555   11012 22012 90225
0076012090999991989060917004+62183+006067FM-15+0074ENOV V0202001N00261220001CN0112001N1+00901+00301999999ADDAG12999GA1011+007509089GA2041+009009089MA1101591999999EQDQ01+000000PRSWM2
0090153140999991989082907004+00000+999999FM-12+028799999V0209991C00001007501CN0040001N9+01081+99999999999ADDAG12999AY181999AY281999GF108991081091008001999999MW1801REMSYN023333   99297 555   6005/
0194718170999991989070918004+52300-055833SY-SA+0008WMH  V0201501N005110750019N0240001N1+01801+00571101021ADDAA106000091AG14000GD12991+0450099GD23991+0750099GF106991999999999999999999KA1120M+01801KA2240N+00801MA1101021100921MD1710161+9999OC100821REMSYN017333   10180 20080AWY022AC2CI5     ?    7016 ?
0046170600999991989063006504+40967+028817FM-15+0037LTBA V0202101N00261220001CN0070001N1+02401+02001999999ADDAG12999MA1101191999999MW1101REMMET006NSOIG?
0072722897999991989072520004+35233-120633SAO  +0064SBP  V0203101N006712200019N0320001N1+02281+01221999999ADDAG10999GD12991+0600093GF102991999999999999999999MA1101291999999MW1001
025372494023234198906251400C+37617-122383SAO  +0002SFO  V0202505N003652200059N0192005N1+01565+01225101665ADDAA101000095AG10999GD12995+0039099GF102025999999999999999999MA1101661101595MW1001REMAWY013SOSF MM/MMMM?EQDQ01+999990APOSP N01 00000JPWTH 0QNNE81 0 00299G21U0 99999K21 0 00054L21 0 01200M11 0 30000N21 0 00000Q21 0 10166S21 0 00060V11 0 00202X21 0 25007
0105716270947921989030311004+45467-073750SAO  +0036YUL  V0203401N001512200019N0240001N1-01601-02301103021ADDAG10999GD12991+0210099GF102991999999999999999999MA1102981102551MW1001REMAWY005AC1 ?EQDQ01+999990APOSP 
0072299150999991989110206004+53967+078650FM-12+012599999V0203001N00401220001CN0300001N9-00261-00561102461ADDAG12001AY181061AY231061GF101991011001999999031001MD1210251+9999MW1261
0080162530999991989011810074+41050+014067FM-15+0010LIRM V0209991C00001021001CN0018001N1+00901+00501999999ADDAG12999GA1041+006009059GA2051+021009039MA1103181999999MW1101REMMET008OVC YLO?
0099656600999991989081708004+06250-010350FM-15+0018GLRB V0200701N00261003901CN0112001N1+02301+02301999999ADDAG12999GA1031+001209079GA2081+003909059MA1101391999999REMMET014INTER 5000 RA?EQDQ01+000000PRSWM2
0065522030999991989091403004+42817+093517FM-12+0739ZWHM V0209991C00001220001CN0300001N9+02281+00591101201ADDAG12000GF100991001001999999001001MA1999999092871MD1210081+9999
0097999999999991989051518004+42100+030500FM-13+9999ULRS V0200701N00401220001CN0200001N9+02001+99999101461ADDAG12000GF100991001001999999001001MD1410001+9999SA1+1809UA1M000009999REMSYN01722223 00180 20000
0146718700999991989102012004+50283-107683SY-SA+0818YYN  V0201601N008212200019N0240001N1+00591+00111101221ADDAA106000091AG10000GF100991001001999999001001KA1240M+01751KA2120N+00051MA1101121091681MD1710291+9999MW1001REMSYN017333   10175 20005AWY0067029 ?
036572556014941198907141500C+41983-097433SAO  +0471OFK  V0201205N004650243859N0192005N1+01835+01615101835ADDAA101001395AA299003091AG10000GA1999+016765065GA2999+024385035GD12045+0150099GD23035+0240099GF107075999051999999071991MA1101901096335MD1010051+9999MW1001REMAWY020RB01E32/ 00510 1570?EQDQ01+999990APOSP N01 00000JPWTH 0QNNE81 0 00205E81 0 00404G21 0 00080H11 0 15055H11 0 23080K21 0 00061L21 0 01200M11 0 28445N21 0 00000Q21 0 10183S21 0 00065V11 0 00909X21 0 12009
0058711480999991989070904004+49200-098900SAO  +0470WPO  V0200801N004119999999N9999999N9+01801+99999100791ADDAG10999MD1510161+9999REMAWY0065016 ?EQDQ01+000002VOVAR 
0097471220999991989012406004+35083-127033FM-15+0011RKSO V0202801N002110120019N0080001N1+00401+00001999999ADDAG12000GA1081+012009059MA1102241999999MW1101REMMET041CIG040     ?     RADAT 75012 QFF 1022PT3?
0063723446139711989070810004+36267-093150SAO  +0416HRO  V0203201N002112200019N0080001N1+02061+01831101881ADDAG10999GF100991999999999999999999MA1102071999999MW1051MW2451
0065412170999991989120202304+24433+054650FM-15+0027OMAA V0200901N00361999991CY0099001N1+01601+00701999999ADDAG12000MA1101901999999REMMET012CAVOK NOSIG?EQDQ01+000000PRSWM2
0085471410432191989030422004+35917+126617FM-15+0010RKJK V0203201N004610750019N0112001N1+00201-00601999999ADDAG12999GA1031+010509059GA2081+075009029MA1101461999999REMMET019CIG250 QFF 1014PT5?
0069470670999991989032606004+38500+126533FM-12+010099999V0209991C000019999999N0100001N9+01361-00141101371ADDAG12000GF108991011011999999001021MD1710341+9999EQDQ01+000992SCOLCB
0038999999999991989041001004+12400+177033FM-18+9999DRIB V02099999999999999999N9999999N9+99999+99999999999ADDAG10999SA1+2729REMSYN011333   52806
0110110360999991989061916504+48117+016567FM-15+0190LOWW V0202901N00571018001CN0112001N1+01801+01501999999ADDAG12999GA1011+009009099GA2011+009009089GA3031+018009059GA4051+033009039MA1102001999999MW1251REMMET006NOSIG?
0072725396148151989091418004+42300-085250SAO  +0290BTL  V0200501N00511002401MN0112001N1+01221+01111999999ADDAG10011GD14991+0024099GF108991999999999999999999MA1101861999999MW1611
0065082840999991989041900304+39500-000467FM-15+0062LEVC V0202401N00101999991CY0099001N1+00901+00701999999ADDAG11999MA1101491999999REMMET012CAVOK NOSIG?EQDQ01+000000PRSWM2
0024094540999991989102814004+51850+010767FM-12+024099999V0202101N008019999999N9999999N9+02061+00641100591ADDAG12999MD1610161+9999
0109578320999991989031918004+26967+108667FM-12+061199999V0200401N00301015001CN0280001N9+00781+00541102271ADDAA106000091AG14000GF108991081051017501999999KA1240M+01071MA1999999094991MD1210021+9999REMSYN011333   10107
0050094990999991989091902004+51167+014950FM-12+023899999V0201601N00101220001CN0047001N9+01751+01461101931ADDAG12999GF102991011001999999041011MD1810061+9999
0114610750999991989052012004+13800+005250FM-12+0273DRRB V0202201N00311220001CN0200001N9+03921+01601100981ADDAG12000GA1011+009909089GA2031+090009009GF103991011011012501001021MD1999999-0081REMSYN023333   59008 81833 83080
0072744655999991989012021004+41767-088467SAO  +0215ARR  V0203501N008212200019N0640001N1-00271-00771999999ADDAG10000GD12991+0090099GF102991999999999999999999MA1102981999999MW1001
0067722710930451989032514004+33233-107267SAO  +1481TCS  V0203101N004119999999N9999999N9+01391-00771999999ADDAG10999MA1101831999999REMAWY014PK WND 10 000?EQDQ01+000002VOVAR 
0035030470999991989010918004+56867-004700FM-12+023899999V0202301N004119999999N9999999N9+00381-00421100681ADDAA199002091AG10000MD1210061+9999
0065471100999991989030921004+37550+126800FM-15+0018RKSS V0201701N00361999991CY0099001N1+00001-00201999999ADDAG12000MA1102401999999REMMET012CAVOK NOSIG?EQDQ01+000000PRSWM2
0036971200999991989051409004-02500+119000FM-12+999999999V0202201N00261045001CN0130001N9+02941+02481999999ADDAG10999GF106991021021004501031011
0103724240138071989052409004+37900-085967SAO  +0230FTK  V0209991C000012200019N0112001N1+01391+01281101181ADDAG10000GD12991+0750093GF102991999001999999001081MA1101221999999MD1610021+9999MW1001REMAWY008602 1008
0070655360999991989121512004+09417-005617FM-12+0381DIKO V0201201N00411220001CN0080001N9+03191+01931101011ADDAG12000GF100991001001999999001001MD1999999-0061REMSYN011333   59006
0061125300999991989061400004+50667+017967FM-12+017899999V0209991C00001220001CN0100001N9+01251+00531102151ADDAA106000091AG14000GF100991001001999999001001MD1810041+9999
0100162400999991989122104004+41900+012483FM-12+004599999V0201501N004119999999N9999999N9+01291+99999102621ADDAA106000091AG14999MA1999999101461MD1710021+9999REMSYN041555   11183 30230 41111 51111 61100 7/000
0139152000999991989100206004+46133+021400FM-12+011899999V0209991C00001220001CN0200001N9+00021-00041102111ADDAA106000091AG14000GF103991001001999999001011IA1099IA2120-00209KA1120N-00101MA1999999100641MD1710031+9999REMSYN023333   21010 31102 92000
0065154210999991989061519304+44550+026100FM-15+0095LROP V0209991C00001999991CY0099001N1+01401+01301999999ADDAG12999MA1101591999999REMMET012CAVOK NOSIG?EQDQ01+000000PRSWM2
037570350025501198908070900C+57750-152500SAO  +0005ADQ  V0201005N002650003059N0048005N1+01115+01115101575ADDAA101000395AG10001GA1999+000005105GA2999+000305135GD16015+0001599GD24085+0003099GF108085999071999999999999MA1101561101155MD1810031+9999MW1455MW2515REMAWY019F110SF/ 80301 17//?EQDQ01+999990APOSP Q02  00033PRCP99N01 03370JPWTH 0QNNE81 0 00801E81 0 00610G21 0 00001H11 0 45000H11 0 13001K21 0 00052L21 0 00300M11 0 29870N21 0 03370Q21 0 10157S21 0 00052V11 0 01010X21 0 10005
0187467720999991989020212004+22417+120550FM-12+0020RCFS V0200501N00311007501CN0110001N9+01751+01291101971ADDAA106000091AG14000GA1031+002409079GA2071+007509059GF107991071051004501001001KA1120M+02331MA1101931999999MD1210241+9999REMSYN057333   10233 555   83708 87625 90212 00000 QNH   3010/ INS
0174855850999991989102812004-33617-078833FM-12+003099999V0201801N00621008101CN0200001N9+01341+00941102241ADDAA124000891AA299001091AG10999AY181061AY221061GA1061+008109089GF106991061021008001001001KA1120N+01331MD1310151+9999MW1021REMSYN042333   20133 56400 69984 86827 HR67  RIZADA
0120718610999991989082408404+50383-102683SAOSP+0602WIK  V0200601N003110360019N0240001N1+99999+99999999999ADDAG10999GD12991+0210099GD24991+0360099GF108991999999999999999999MW1801REMAWY039CB2AC8 ACC EMBDD LTGICCG     ?    SE-E?
0102727825999991989082419004+47400-120200SAO  +0379EAT  V0202801N007212200019N0480001N1+02441+00891101411ADDAG10999GD12991+0180099GD22991+0300099GD32991+0750093GF102991999999999999999999MA1101421999999MW1001
0084723566939501989033008194+34883-095783SAOSP+0235MLC  V0201301N003612200019N0032001N1+99999+99999999999ADDAG10999GD16991+0001599GF110991999999999999999999MA1100751999999MW1451REMAWY003F4?
0074403600999991989060410204+31417+037267FM-15+0504OEGT V0203001N00571999991CY0099001N1+03501+00401999999ADDAG12999MA1101081095241REMMET005CAVOKEQDQ01+999990APOSP Q02+000000PRSWM2
0050234990999991989082918004+64967+098867FM-12+018699999V0209991C00001012001CN9999999N9+00981+00851101041ADDAG12000GF107991071051012501999999MD1310081+9999
022972412003872198912041000E+37783-081117SAO  +0763BKW  V0203005N002652200059N019200599-01005-01505102105ADDAA101000095GA1999+016765065GD12025+9999999GF102025999999999999999999MA1999999092675EQDN01 00000JPWTH 0QNNE81 0 00202G21U0 99999H11 0 15055K21 0 00005L21 0 01200M11 0 27365N21 0 00000Q21 0 10210S21 0 00014V11 0 00202X21 0 30005
0179723400999991989061500004+34833-092250FM-12+0165LZK  V0209991C00001036001CN0110001N9+01891+01771101201ADDAA106001091AA224003091AC13C9AG10005AY161061AY221061GF108991081001999999021999KA1120M+02001KA2180N+01791MA1999999099281MD1710171+9999MW1611REMSYN029333   10200 20179 70030 90573
023172693024221198905170700C+44117-123217SAO  +0109EUG  V0202605N002652200059N0240005N1+01115+00835101715ADDAA101000095AG10999GD12995+0075099GF102025999999999999999999MA1101731100345MW1001EQDQ01+999990APOSP N01 00000JPWTH 0QNNE81 0 00299G21U0 99999K21 0 00047L21 0 01500M11 0 29630N21 0 00000Q21 0 10171S21 0 00052V11 0 00202X21 0 26005
0051742065999991989122618004+47917-122533SMARS+000197S  V0209991C000019999999N9999999N9+99999+99999999999ADDAG10999AY121061MW1001REMSYN018PT    NO    POINT?
0070477440999991989071506004+35433+133350FM-12+000899999V0200401N003619999999N0200001N9+02531+02051101281ADDAG12000GF107991011021999999071021MD1610091+9999REMSYN011555   0263/
0095033730999991989072711504+53300-000550FM-15+0061EGXP V0202601N00511015001CN0112001N1+02201+00901999999ADDAG12000GA1041+012009089GA2031+015009059MA1102101999999REMMET010BLU NOSIG?EQDQ01+000000PRSWM2
0092071070999991989030209004+48683-004333FM-12+002299999V0202401N01131036001CN0200001N9+01141+01021099781ADDAG12001AY161031AY221031GF105991031071004501031001MD1610321+9999MW1011REMSYN011333   91848
0050332150999991989090115004+50967+028650FM-12+018999999V0200501N00201030001CN0500001N9+01901+99999100511ADDAG12000GF108991011031004501071999MD1710051+9999
0108216110999991989061303004+73567+118750FM-12+001099999V0202001N01001009901CN0300001N9-00221-00471100541ADDAG12000AY131031AY231031GA1071+009909059GF107991071051008001001001MD1210041+9999MW1361REMSYN011333   87633
0084725035047811989072712104+40800-073100SAOSP+0030ISP  V0203101N002612200019N0048001N1+99999+99999999999ADDAG10000GD16991+0001599GF110991999999999999999999MA1101631999999MW1051REMAWY003H2?
0065171280999991989032101214+40117+032983FM-15+0949LTAC V0209991C00001999991CY0099001N1+00301-00201999999ADDAG11999MA1101901999999REMMET012CAVOK NOSIG?EQDQ01+000000PRSWM2
0185766340999991989121100003+20083-098367FM-12+218199999V0209999C00001220001CN0300001N9+01661+00911101021ADDAA106000091AA224000091AG14000AY141061AY211061GF103991031999017501999071IA1019KA1120M+02081KA2180N+01021MA1999999078431MD1210021+0111MW1021REMSYN035333   10208 20102 30/// 58011 70000
0164614420999991989112100004+18100-015950SY-MT+0003GQNN V0200201N00311039001CN0100001N1+02351+02201101731ADDAG12002AY161061AY221061GA1071+039009049GF107991071001999999071999MA1101691999999MD1999999+0081MW1021REMSYN017333   58008 87463MET010CAVOK NSG?EQDQ01+000000PRSWM2
0114644540999991989021015004-01867+015867FM-12+0377FCOG V0209991C00001220001CN0040001N9+03021+02121100781ADDAG10999AY111031AY211031GA1041+006909089GF104991041021008001001001MD1999999+0101MW1051REMSYN017333   58010 84823
0072360520999991989071806004+52017+085900FM-12+033199999V0200601N00301220001CN0200001N9+02601+01381100541ADDAG11000AY141061AY201061GF102991021011012501001001MD1710091+9999MW1021
0092476880999991989092520004+34983+139833FM-15+0006RJTE V0203401N00361060001CN0112001N1+02201+02001999999ADDAG12999GA1011+009009089GA2031+036009039GA3061+060009009MA1101151999999EQDQ01+000000PRSWM2
0112431920999991989110803004+15483+073817FM-12+006099999V0200701N00211220001CN0100001N9+02501+01341101291ADDAA106000091AG14000GF100991001001999999001001KA1120N+02031MD1999999+0091REMSYN029333   20203 58009 555   10075
0135999999999991989112518004+70400+032600FM-13+9999UJLN V0201201N008019999999N0200001N9-00301+99999099531ADDAG12000AY171061AY221061GA1091+999999999GF109991091999999999999999MD1210161+9999MW1021SA1+0429UA1M030109999REMSYN01722231 00042 20302
0061064000999991989120619304+51083+002650FM-16+0009EBFN V0202801N00151013501CN0050001N1+99999+99999999999ADDAG12999GA1041+003309079GA2071+013509059MW1101REMMET004GRN?
0115999999999991989070318004+32300+129300FM-13+9999WZS9 V0203501N005119999999N0200001N9+02221+99999101621ADDAG12000AY121061AY221061GF108991999999999999999999MW1021UA1M040059999UG1040050109REMSYN02322282 20401 301// 40401
0191804380999991989050200004+08600-071183FM-12+1498SVMD V0202501N00201003901CN0100001N9+02001+01701999999ADDAA106000091AG14000GA1051+003909059GA2051+030009049GF108991051021004501051999IA1019KA1240M+02611MA1102101085271MD1999999+0031ME1315249REMSYN046333   10261 30/// 5699/ 58003 85613 85460 1021
0087725205147621989022317004+40350-079933SAO  +0382AGC  V0200201N007210060019N0080001N1-00661-01161999999ADDAG10999GD12991+0042099GD24991+0060099GF108991999999999999999999MA1102271999999MW1851
0119999999999991989060612004+56900+011700FM-13+9999UBFH V0202101N00301004201CN0040001N9+01101+00971100971ADDAG12003AY181061AY221061GF107991071091004501001001MD1210141+9999MW1801SA1+1309UA1M020059999REMSYN01722232 00130 20201
0057726375999991989091803004+42667-083417SAO  +0299PTK  V0209991C000012200019N0240001N1+99999+99999999999ADDAG10000GF100991999999999999999999MA1102241999999MW1001
0131621610999991989092406004+29033+021567FM-12+006099999V0200701N00211220001CN0180001N9+01791+01431101761ADDAA106000091AG14000GF100991001001999999001001KA1120N+99999REMSYN011333   20213EQDQ01+000032APCTENQ02+000002APC3  Q03 +02132ATMN  
0082726467999991989100115004+45483-091717SAO  +0347RIE  V0201901N006212200019N0240001N1+01721+00941999999ADDAG10000GF100991999999999999999999MA1100751999999MW1001OC100981REMAWY008AC NW-W?
0072723565999991989120419004+36767-096017SAO  +0218BVO  V0202601N005112200019N0240001N1+01331-00161999999ADDAG10999GD12991+0060093GF102991999999999999999999MA1101291999999MW1001
0144919250999991989042106004-09800-139033FM-12+005299999V0203401N00101220001CN0200001N9+02561+02371100971ADDAA106000091AG10999GA1021+006009089GA2031+015009059GF104991041081008001999001MD1210241+9999REMSYN023333   56200 82820 83650EQDQ01    003SCOMCG
0094289780999991989060618004+52533+068750FM-12+039999999V0209991C00001220001CN0200001N9+01041+00361102631ADDAA106000091AG14000GF100991001001999999001001KA1120M+02211MD1310041+9999REMSYN011333   10221
0092172440999991989012518204+37967+032550FM-15+1028LTAN V0209991C00001220001CN0020001N1-02101-02601999999ADDAG12000ED199U19209GA1021+003609079MA1102511090651MW1101REMMET006NOSIG?EQDQ01+999990APOSP 
0176716270947921989041418004+45467-073750SY-SA+0036YUL  V0202101N002612200019N0240001N1+00891-00111102221ADDAA106000091AA224010291AG14000GD12991+0120099GF102991999999999999999999KA1120M+00891KA2240N+00021MA1102201101781MD1810161+9999REMSYN023333   10089 20002 70102AWY010CU2 8016 ?
030672458013984198909110300C+39550-097650SAO  +0448CNK  V0201205N002152200059N0320005N1+01615+01225101805ADDAA101000095AG10000GA1999+024385035GD12035+0240099GF103035999001999999071991MA1101861096515MD1310141+9999MW1001REMAWY009314 1070?EQDQ01+999990APOSP Q02  00003PRCP99N01 00000JPWTH 0QNNE81 0 00204G21U0 99999H11 0 23080K21 0 00054L21 0 02000M11 0 28500N21 0 00000Q21 0 10180S21 0 00061V11 0 00404X21 0 12004
0086710763999991989102116004+59567-108483SAO  +0318WDC  V0209991C000019999999N9999999N9+00201+00101099921ADDAG10999MD1210181+9999MW1001REMAWY0282018       ?    (0000,0000)?EQDQ01+000002VOVAR 
0163844440999991989111700004-06217-077833FM-12+2435SPPY V0203401N00411006001CN0090001N9+01401+01171999999ADDAG10999AY151061AY221061GA1051+006009079GA2021+030009049GF107991051061008001021999MA1999999075101MD1999999+0011MW1501REMSYN035333   10/// 5699/ 58001 85720 82460
0072723546139691989020717004+36733-097100SAO  +0307PNC  V0202701N002612200019N0192001N1-00771-01321103501ADDAG10999GD12991+0750099GF102991999999999999999999MA1103321999999MW1001
0147410360999991989070109004+21483+040550FM-12+1449OETF V0203601N00311220001CN0100001N9+03401+00821999999ADDAG12000GA1011+006009059GF102991011041008001031001MA1101461085211MD1999999+0041ME1314759REMSYN029333   58004 81620 555   5001/EQDQ01+999990APOA  
0043637100999991989060823004-00367+035350FM-15+2184HKKR V0203601N00101999991CY0099001N1+01401+01101999999ADDAG10999REMMET005CAVOKEQDQ01+000000PRSWM2
0039104350999991989042811004+51500+009183FM-12+022599999V0200101N005719999999N0100001N9+00611+00131101731ADDAG12999MA1999999098981MD1210141+9999
0062083910999991989102808004+37417-005900FM-15+0031LEZL V0203001N00151220001CN0080001N1+01601+01501999999ADDAG12999GA1031+010509089MA1101901999999MW1101REMMET006NOSIG?
0086038090999991989040901004+50083-005250FM-12+0082EGDR V0201001N00311060001CN0250001N9+00551+00311101221ADDAG12999GA1051+060009009GF105991001001999999001011MD1810151+9999REMSYN011333   85070
0172711380999991989062815004+51267-102467SAO  +0498YQV  V0201401N006210810019N0240001N1+01601+01201101511ADDAG10000GD12991+0150099GD22991+0300099GD33991+0810099GF107991999999999999999999MA1101421095581MD1310101+9999MW1001REMAWY028SC3AC2CI3        ?    3010 ?EQDQ01+999990APOSP 
0104992220999991989091004004+44300-082400FM-18+0003DB22 V0203001N010019999999N9999999N9+01801+99999100721ADDAG12999OA139901101SA1+2049UA1I040109999REMSYN05322200 00204 10402 70010 333   92111 555   11103 22108
0102912213999991989112823004+14167+145233SAO  +0185PGRO V0201201N005110300019N0112001N1+02721+02501999999ADDAG10999GD12991+0027099GD23991+0300099GD34991+0900099GF108991999999999999999999MA1101291999999MW1001
0116366430999991989092103004+47767+082800FM-12+054899999V0202701N00701007501CN0200001N9+00861-00071102411ADDAA106000091AA224000091AG14000GF108991081051008001999999IA2999+00409MD1210181+9999REMSYN023555   20075 3/004 70000
0109014900999991989081318004+59983+010683FM-12+052999999V0201801N00461030001CN0400001N9+01231+01121100551ADDAA106000091AG14000GF106991031091012501061081KA1120M+01421MA1999999094471MD1210041+9999REMSYN011333   10142
0058063800999991989052216554+50917+005783FM-15+0116EHBK V0201001N00721999991CY0099001N1+02401+00301999999ADDAG12999MA1101901999999REMMET005CAVOKEQDQ01+000000PRSWM2
0074161470999991989012218504+44200+012067FM-15+0032LIPK V0203101N00361000901CN0010001N1+00201+00201999999ADDAG12999ED199U19209GA1051+000909079GA2041+003009059MA1102611999999MW1631
0078718160999991989121408304+53317-060417SAOSP+0049YYR  V0203201N00261003301MN0160001N1+99999+99999999999ADDAG10999GD14991+0033099GF108991999999999999999999MW1561MW2701REMAWY006SC10 ?
0108259130999991989071403004+59583+150783FM-12+0118UHMM V0202401N00301000301CN0002001N9+01141+01141100741ADDAG12000AY151031AY241031GA1091+999999999GF109991091999999999999999MD1210011+9999MW1511REMSYN011333   99744
026172494023234198908041100C+37617-122383SAO  +0002SFO  V0203005N00315002445MN0160005N1+01445+01285101325ADDAA101000095AG10999GD14995+0024091GF108085999999999999999999MA1101321101255MW1001REMAWY021CIG 7V9/SOSF 53/2203?EQDQ01+999990APOSP N01 00000JPWTH 0QNNE81 0 00699G21 0 00008K21 0 00055L21 0 01000M11 0 29900N21 0 00000Q21 0 10132S21 0 00058V11 0 01010X21 0 30006
0056548570999991989050303004+36067+120333FM-12+0077ZSQD V0203201N00201220001CN0060001N9+02281+01291101491ADDAG12000GF103991001001999999001021MD1210031+9999MW1041
0144232190999991989100118004+67083+059383FM-12+008499999V0201801N00301030001CN0230001N9+00691+00531100161ADDAA112001091AG19002AY161061AY221061GA1081+999999049GF108991081001008001021999KA1120M+00851MD1810061+9999MW1611REMSYN023333   10085 60010 8852/
0080999999999991989021118004+58700+001300FM-13+9999PLAT V0202401N013919999999N9999999N9+00721+99999101551ADDAG12000MD1710011+9999OA159903551UA1I070509999REMSYN02322200 10710 555   00369
0102714600999991989042212004+45967-081483SY-SA+0196WBE  V0200301N003119999999N0140001N1-00281-02061102511ADDAA106000091AG14000KA1240M+00811KA2120N-00281MA1999999100061MD1210221+9999REMSYN017333   10081 21028
0050584770999991989070921004+30033+122117FM-12+003799999V0209991C00001036001CN0150001N9+02461+02341100801ADDAG12000GF106991021041004501031021MD1710061+9999
0140028750999991989082106004+64933+025367FM-12+0015EFOU V0202301N00361030001CN0100001N9+01411+01231100441ADDAA106000091AG14000AY121061AY221061GF106991011061002501071081IA1019IA2999+00909KA1120N+01071MD1710261+9999MW1101REMSYN017333   20107 30009
0085153380999991989031409004+45033+021683FM-12+030999999V0202701N00201036001CN0100001N9+00801+00171101981ADDAG12000GF107991071001999999071001MA1999999098251MD1210091+9999REMSYN011333   95990
0136362780999991989020612004+50383+090433FM-12+185099999V0209991C00001075001CN0500001N9-02111-02441999999ADDAA106000091AG14000GF108991021051012501001021KA1120M-01381MA1999999081721MD1210101+9999ME1315569REMSYN029333   11138 555   11225 95900
0086039200999991989102821004+54483-006100FM-12+003899999V0202801N00211220001CN0120001N9+00701+00641098451ADDAG12000GA1041+009009059GF105991041051012501001011MD1210421+9999REMSYN011333   84630
0072723781999991989101215004+35950-112150SAO  +2014GCN  V0209991C000012200019N0800001N1+00501-00271999999ADDAG10000GD12991+0600093GF102991999999999999999999MA1102841999999MW1001
0024042280999991989051915004+67783-053967FM-12+001299999V0203101N010819999999N9999999N9-00481-00551100711ADDAG12000MD1710061+9999
0067467500999991989020901254+22683+120467FM-16+0024RCDC V0202901N00151220001CN0048001N1+99999+99999999999ADDAG11999GA1021+003609079GA2031+030009039MW1101REMMET010VIS E3 W3?
0072478910999991989060221004+34317+134050FM-12+001099999V0209991C00001220001CN0040001N9+01621+01451101861ADDAG12000AY101031AY201031GF100991001001999999001001MD1310131+9999MW1101
0105727856999991989022608004+47683-117317SAO  +0595SFF  V0200201N001512200019N0008001N1+99999+99999999999ADDAG10999GD16991+0001599GF110991999999999999999999MA1102541999999MW1451REMAWY024F5?           = 40  2666
0050235270999991989092912004+64283+060883FM-12+002999999V0200901N00101030001CN0200001N9+00491+00021101321ADDAG12000GF107991071001999999031001MD1710141+9999
0241804150999991989091500004+10600-066983SY-MT+0048SVMI V0200701N00101027001CN0100001N1+02811+02811101181ADDAA106000091AG14000GA1011+006009099GA2031+006009059GA3041+027009049GF108991041091008001021999KA1240M+03181MA1101191999999MD1999999+0091REMSYN046333   10318 5649/ 58009 81920 83620 84459 1012MET0241003.6     ?     1008.6?EQDQ01+000000PRSWM2
0104095540999991989102522004+50983+010967SY-MT+0323ETEF V0202001N00401220001CN0140001N1+01181+00961102231ADDAG12999GF100991001001999999001001MA1102201999999MD1810031+9999MW1001REMMET005CAVOKEQDQ01+000000PRSWM2
0058066700999991989092202204+47483+008533FM-15+0432LSZH V0201001N00051000151CN0000001N1+01401+01401999999ADDAG11999ED114U01529GA1091+000159999MA1101801999999MW1451
0078717393999991989111714004+48367-089117SAO  +0209WEC  V02099999999999999999N9999999N9+99999+99999999999ADDAG10999REMAWY040066/-13/-15/3012+18/-/ 2010 STN PRES 80?EQDQ01+000002VOVAR 
0063110100999991989092420164+48233+014183FM-15+0313LOWL V0202601N00261013501CN0060001N1+01601+01501999999ADDAG12999GA1011+008109089GA2051+013509059MA1102101999999MW1101
0086718105999991989043016004+50283-063617SAO  +0033YGV  V0202501N004112200019N0240001N1+01101-00101101901ADDAG10999GD12991+0660093GF102991999999999999999999MA1101901999999MW1001REMAWY005CI1 ?
0060782210999991989021316004+21833-082783FM-15+0023MUNG V0200901N01341006001CN0112001N1+02401+01901999999ADDAG12999GA1051+006009089MA1102401999999EQDQ01+000000PRSWM2
0111717020999991989040520324+46433-063833SAOSP+0024YSU  V0201801N001010090019N0160001N1+99999+99999999999ADDAG10999GD12991+0018099GD23991+0090099GF107991999999999999999999MW1001REMAWY030SF2SC8 WND LGT VRBL VSBY N 4F?
043672304093729198901270000C+35267-075550SY-SA+0002HAT  V0202305N003150304859N0112005N1+01565+01115102115ADDAA101000095AA206000091AG14000GA1999+009145085GA2999+030485035GD12025+0090099GD24065+0300099GF108085999011999999999991KA1120M+02111KA2180N+00671MA1102101102075MD1810101+9999REMSYN029333   10211 20067 555   06002AWY036810 1108 70/RADAT      ?    31101  ?EQDQ01    003SCOMCGN01 00000JPWTH 0QNNE11 0 00202E11 0 00608G11 0 00100H11 0 11030H11 0 23100K11 0 00052L11 0 00700M11 0 30140N11 0 00000Q11 0 10211S11 0 00060V11 0 01010X11 0 23006
0122711010999991989050502004+53250-131817SAO  +0006YZP  V0201401N006712200019N0240001N1+01101+00801101831ADDAG10999GD12991+0033099GD22991+0300099GF102991999999999999999999MA1101831101761MW1001REMAWY007SF1AC2?EQDQ01+999990APOSP 
0100298540999991989123109004+53683+088050FM-12+024299999V0209991C000019999999N0040001N9-00471-00831101801ADDAG12000GF108991001999999999999999MA1999999098721MD1710141+9999EQDQ01+000032SCOLCGQ02+999990APOSP 
006976593099999198911222100N+21300-089650MEXIC+0014     V0201605N002059999999N020000599+02905+02145100985ADDAA199000095GF104995999999999999999999MA1999999100825MD1999999-0434
0108540960999991989060806004+44383+131150FM-12+049899999V0201601N00401090001CN0200001N9+01831+00851101541ADDAA106000091AG10000AY141061GF107991011011008001001061KA1240N+00801MD1710251+9999MW1001REMSYN011333   20080
0104315500999991989081900004+50217+136900FM-12+002499999V0201801N00101075001CN0200001N9+02041+01831100971ADDAA106000091AA224000091AG14000GF106991031031008001001021MD1810081+9999REMSYN023555   10183 20128 70000
0087723656230491989112019004+35617-106083SAO  +1934SAF  V0202601N005112200019N0640001N1+01561-00711999999ADDAG10999GD12991+0450099GD23991+0750093GF107991999999999999999999MA1102541999999MW1001
0139726770240331989120701334+45800-108533SAOSP+1088BIL  V0203501N00261002101MN0008001N1+99999+99999999999ADDAG10999ED109U18289GD14991+0021099GF108991999999999999999999MA1101691089261MW1451MW2711REMAWY022R09LVR60+ VSBY1/4V3/4?EQDQ01+999990APOSP 
0072307720999991989120306004+52700+118800FM-12+040499999V0200601N00301075001CN0500001N9-01451-02061101181ADDAG12001AY171061AY231061GF107991021091012501001021MD1210241+9999MW1031
0079038620999991989021912504+50783-001833FM-15+0011EGHH V0202101N00621009001CN0112001N1+01101+01001999999ADDAG12999GA1011+003309079GA2041+004509089GA3051+009009059MA1101901999999MW1801
