0053162281999991990011608004+42417+013667FM-15+2138LIQI V0209991C00001000151CN0000001N1-00801-00801999999ADDAG11999GA1091+000159999MW1451REMMET012MON INVIS NC
0109085450999991990090205004+41233-008683FM-15+0073LPPR V0209991C00001000301CN0005001N1+01701+99999101741ADDAG12999ED118U04879GA1061+000309079GA2041+004509059MA1101691100831MW1421EQDQ01+999990APOSP Q02+999990APOSLP
0072475750999991990041509004+40817+140783FM-12+000499999V0200801N005719999999N0080001N9+00281+00041101151ADDAG12004AY161031AY261031GF108991031071999999021999MD1110061+9999MW1611
0089064700999991990090908254+50800+005200FM-15+0075EBST V0202501N00211013501CN0112001N1+01401+01101999999ADDAG12999GA1011+009009089GA2051+013509059MA1102811999999REMMET004BLU?EQDQ01+000000PRSWM2
0100100370999991990081418504+54467+009517FM-15+0025EDCS V0203101N00101018001CN0090001N1+02101+01401999999ADDAG12999GA1051+018009059GA2061+999999009MA1101081999999REMMET015BLU FCST CANCELEQDQ01+000000PRSWM2
0061092800999991990041712004+53550+013200FM-12+008099999V0201501N00501007501CN0180001N9+00991+00361101501ADDAA106000091AG14000GF107991061031008001071999MD1810061+9999
0071476710999991990061515304+35550+139783FM-15+0008RJTT V0202001N01181012001CN0112001N1+02401+02301999999ADDAG12999GA1021+002409089GA2071+012009089MA1100471999999MW1801OC101701
0103483780999991990121421004+16783+100267FM-12+0045VTPS V0209991C00001220001CN0080001N9+02281+01831101311ADDAA106000091AG14000AY101031AY201031GF100991001001999999001001MD1999999+0091MW1101REMSYN011333   58009
0114723825231311990041512004+34583-117383SAO  +0876VCV  V0201901N000512200019N0160001N1+01111-00051101091ADDAA106000091AG10000GF100991999999999999999999MA1101461999999MD1610031+9999MW1001REMAWY004603?EQDQ01  00003PRCP99
0116476560999991990091012004+34967+138400FM-12+001599999V0203401N00151220001CN0040001N9+02511+02051101391ADDAA106000091AG14000AY101061AY201061GF100991001001999999001001KA1120M+02871MD1110131+9999MW1101REMSYN011333   10287
0061598450999991990020900004+19517+109583FM-12+016999999V0201101N00101045001CN0300001N9+01881+01681102031ADDAA106000091AG14000GF107991021041012501041021MD1210141+9999
0164038170999991990031123004+50433-005000SY-MT+0119EGDG V0202901N00211000901CN0100001N1+00801+00761102861ADDAG12999AY141021AY221021GA1051+000909079GA2041+030009039GF107991051061001501031021MA1102811999999MD1210041+9999MW1281REMSYN017333   85703 84360EQDQ01+000000PRSWM2
0123718720999991990092916004+50017-110717SAO  +0716YXH  V0202001N00721036001EN0480001N1+01401-00201101551ADDAG10999GD13991+0360099GD23991+0750099GF107991999999999999999999MA1101461093141MW1001REMAWY008AC6CI3 ?EQDQ01+999990APOSP 
0088718105999991990101214324+50283-063617SAOSP+0033YGV  V0200601N00101001501BN0064001N1+99999+99999999999ADDAG10999GD13991+0015099GD24991+0060099GF108991999999999999999999MW1001REMAWY007SF7SC3?
0098311630999991990060621004+57767+140183FM-12+001099999V0200901N00501004201CN0500001N9+00571+00521101741ADDAA112000991AA299001091AG10000GF108991081091004501999999MD1710021+9999REMSYN017555   20053 69992
0096569590999991990090621004+22017+100800FM-12+055399999V0209991C00001220001CN0200001N9+02201+02201100671ADDAA106000091AG14000GF101991011061008001031001MA1999999094551MD1410001+0001REMSYN011333   00051
0102725128999991990122719004+40850-077850SAO  +0378UNV  V0200501N001510300019N0240001N1-00551-01431999999ADDAG10999GD12991+0240099GD23991+0300099GD34991+0450099GF108991999999999999999999MA1103791999999MW1001
0119719450999991990121020004+58833-122583SAO  +0382YYE  V0209991C000012200019N0480001N1-02501-02901102071ADDAG10999GD12991+0300099GD22991+0630093GF102991999999999999999999MA1101561097061MW1001REMAWY004AC1?EQDQ01+999990APOSP 
0076603900999991990122823004+36717+003250FM-15+0025DAAG V0202401N00311015001CN0080001N1+01401+01301999999ADDAG12999GA1021+007809089GA2051+015009059MA1102711999999EQDQ01+000000PRSWM2
0108296260999991990111118004+55033+082183FM-12+016099999V0202701N00601004201CN0080001N9-00651-00891101731ADDAG12002AY171061AY231061GA1081+004209049GF108991081001004501021999MD1210341+9999MW1731REMSYN011333   88514
0357703160256241990063023003+55200-162717SAO  +0029CDB  V0201605N013950033559N0080005N1+00945+00895099945ADDAG10999GA1999+001225135GA2999+003355065GD12025+0012099GD24065+0033099GF108085999999999999999999MA1099931099565MW1455MW2615OC101801REMAWY0343SF7SC/PK        ?    WND 1736/26?EQDQ01+999990APOSP N01 02070JPWTH 0QNNE81 0 00203E81 0 00607G21 0 00011H11 0 13004H11 0 15011K21 0 00048L21 0 00500M11 0 29400N21 0 02070Q21 0 09994S21 0 00049V11 0 01010X21 0 16027
0089716070999991990061913004+45200-067250SAO  +0026WSS  V0201501N002119999999N9999999N9+01601+01501100761ADDAG10999MA1999999100431MD1110091+9999REMAWY0061009 ?EQDQ01+999990APOSP Q02+000002VOVAR 
0084350780999991990111221004+51817+068367FM-12+030899999V0202101N00501220001CN0260001N9-00811-00991102031ADDAG12000GF100991001001999999001001MA1999999098131MD1710121+9999EQDQ01+999990APOSP 
0070786470999991990031416464+13917-090817FM-15+0002MGSJ V0209991C00001999991CY0099001N1+03101+01901999999ADDAG12999MA1100911999999REMMET017CAVOK VTO TEND S?EQDQ01+000000PRSWM2
0101116030999991990092109004+50767+015017FM-12+0400LKLB V0201701N00701010501CN0200001N9+01091+00351099531ADDAG12000GA1061+010509059GF108991061051012501071999MA1999999094901MD1710441+9999REMSYN011333   86635
0075167420999991990052810504+36783+027067FM-15+0129LGKO V0203001N00511220001CN0112001N1+02301+01801999999ADDAG12999GA1011+003009079MA1101081999999REMMET006NOSIG?EQDQ01+000000PRSWM2
0083467410999991990110315004+23000+120217FM-12+001499999V0200201N00361220001CN0050001N9+02211+01921101051ADDAA106000091AG14000AY101031AY201031GF100991001001999999001001MD1010051+9999MW1101
0097999999999991990060412004+57600+010100FM-13+9999UBFH V0201001N00401030001CN0100001N9+01301+01151100171ADDAG12000GF106991031051022501031011MD1210031+9999SA1+1219UA1M020059999REMSYN01722200 00121 20201
0274727470149181990030903003+48567-093383SAO  +0359INL  V0201805N00315006405MN0160005N1+00175-00225101525ADDAA199000091AG10000GA1999+006405065GD14085+0063099GF108085999051999999999999MA1101351097095MD1810101+9999MW1001REMAWY009810 15//?EQDN01 00000JPWTH 0QNNE81 0 00610G21 0 00021H11 0 15021K21 0 00028L21 0 01000M11 0 28670N21 0 00000Q21 0 10152S21 0 00035V11 0 01010X21 0 18006
0215745090232441990012322003+37417-122050SAO  +0012NUQ  V0203305N003652200059N0096005N1+01785+00175102135ADDAG10999GD13055+0600093GF105995999999999999999999MA1102131101985MW1055EQDN01 08100JPWTH 0QNNE41 0 00306G41U0 99999K41 0 00035L41 0 00600C41 0 30160M41D0 30115N41 0 08100Q41 0 10213S41 0 00064V41 0 00699X41 0 33007
0065133480999991990040203004+43350+017800FM-12+0108LYMO V0202001N00101220001CN0200001N9+00831+00591102271ADDAG12000GF100991001001999999001001MA1999999100951MD1710061+9999
0066162890999991990060209504+40850+014300FM-15+0072LIRN V0202001N00671220001CN0060001N1+02101+01601101821ADDAG12999MA1101801100981MW1101EQDQ01+999990APOSP Q02+999990APOSLP
0152103280999991990111909004+51950+008900FM-12+0187EDUD V0202701N00461003601CN0050001N9+00371+00191100341ADDAG12002AY191031AY281031GA1031+002409079GA2021+003609099GA3031+004509089GF106991061091002501001001MD1310071+9999MW1251REMSYN023333   83708 82912 83815
0108632600999991990020304004+02033+045350FM-15+0009HCMM V0200701N00511027001CN0112001N1+02601+99999999999ADDAG11999GA1041+007509089GA2031+027009039GA3031+075009029MA1101291999999EQDQ01+027523ATOD  Q02+000000PRSWM2
0247722050128151990122223003+28450-081317SAO  +0029MCO  V0201305N006252200059N0160005N1+02335+01835101945ADDAG10999GA1999+016765065GD12015+0150099GF101015999999999999999999MA1101931101545MW1001EQDQ01+999990APOSP N01 00000JPWTH 0QNNE41 0 00201G41U0 99999H41 0 15055K41 0 00065L41 0 01000M41 0 29985N41 0 00000Q41 0 10194S41 0 00074V41 0 00101X41 0 13012
0147160900999991990101812004+45383+010867SY-MT+0068LIPX V0201001N00411004501CN0100001N1+01811+01791101481ADDAA106000091AG14000GA1051+004509089GF107991051021004501031001MA1101391100671MD1110011+9999MW1001REMSYN011333   8581/MET004WHT?EQDQ01+000000PRSWM2
0215722585939011990090314003+32733-096967SAO  +0150NBE  V0201905N001052200059N0112005N1+02725+02065102005ADDAG10999GD12025+0750099GF102995999999999999999999MA1102071100225MW1001EQDN01 00000JPWTH 0QNNE41 0 00203G41U0 99999K41 0 00069L41 0 00700C41 0 30140M41 0 29595N41 0 00000Q41 0 10200S41 0 00081V41 0 00399X41 0 19002
0067100440999991990051822004+54500+010283FM-12+002399999V0203201N005119999999N0035001N9+01061+00431102341ADDAG12999MA1999999102031MD1210121+9999SA1+1289REMSYN011222// 00128
0115722935999991990011521004+33450-120033SMARS+0027L98  V0202501N006119999999N0185001N9+01441+99999999999ADDAG10999AY121031GF107991999999999999999999MW1001SA1+1449UG1040099999REMSYN036SW    SWL   EL    CAPITAN     BEACH?
008372508714752199007220200D+41733-072650SAO  +0006HFD  V0201801N00261045001EN0160001N1+02441+02111999999ADDAA101000095AG10999GD13991+0450099GF107991999999999999999999MA1101351999999MW1001
0124724240138071990111112104+37900-085967SAOSP+0230FTK  V0209991C000012200019N0016001N1+99999+99999999999ADDAG10000GD16991+0001599GD22991+0003099GD32991+0750093GF102991999999999999999999MA1102511999999MW1451REMAWY013F1 VSBY NE-E2
0065014820999991990081015004+59033+010533FM-12+000899999V0202301N00571220001CN0500001N9+01941+01151101561ADDAG12000GF101991011021004501041011MA1999999101471MD1410001+9999
0103427370999991990060615004+22300+070783FM-12+0138VARK V0202301N00821220001CN0040001N9+03181+02311100271ADDAA106000091AG14000GA1011+007509089GF101991011011008001001001MD1999999+0151REMSYN017333   58015 81825
030672451013985199004130300C+37767-099967SAO  +0787DDC  V0201105N00675021345MN0160005N1+00785+00505101455ADDAA101000095AG10000GA1999+021345035GD14085+0210099GF108085999001999999071999MA1101391092255MD1510001+9999MW1001REMAWY009500 107/?EQDQ01+999990APOSP Q02  00003PRCP99N01 00000JPWTH 0QNNE81 0 00610G21 0 00070H11 0 23070K21 0 00041L21 0 01000M11 0 27240N21 0 00000Q21 0 10145S21 0 00046V11 0 01010X21 0 11013
0062152960999991990030807004+45417+023383FM-12+059999999V0209991C00001220001CN0200001N9-00101+99999999999ADDAG12999GF100991001001999999001001REMSYN017333   92600 95000
031172255012912199003122200C+28850-096917SAO  +0032VCT  V0201605N00775005185MN0112005N1+02445+02115101585ADDAA101000095AG10999GA1999+005185065GA2999+009145065GD13075+0051099GD24015+0090099GF108085999999999999999999MA1101591101175MW1001EQDQ01+999990APOSP N01 00000JPWTH 0QNNE81 0 00409E81 0 00601G21 0 00017H11 0 15017H11 0 15030K21 0 00070L21 0 00700M11 0 29875N21 0 00000Q21 0 10158S21 0 00076V11 0 01010X21 0 16015
0168233240999991990051503004+66467+060750FM-12+005899999V0203501N00501002101CN0070001N9-00011-00171100271ADDAA112001091AA224002091AG10002AY181031AY261031GA1051+002109079GF107991071091002501001001GJ103129MD1310111+9999MW1861REMSYN041333   55052 85707 555   21003 60012 70021
0165718030999991990060300004+48950-054567SY-SA+0151YQX  V0202201N00261075001EN0400001N1+02001+00601100571ADDAA106000091AG14000GD13991+0750099GF107991999999999999999999KA1120M+02711KA2180N+00501MA1100541098771MD1110091+9999REMSYN023333   10271 20050 50980AWY010CI9 1009 ?
0147780880127161990040500004+24050-074533FM-12+0005MYSM V0203401N00511220001CN0280001N9+02451+01401101031ADDAA106000091AG14000GA1011+007509089GF101991011021008001001051KA1120M+02801KA2180N+01901MD1999999+0131REMSYN035333   10280 20190 58013 81825 90804
010172464093058199010220900C+38283-104500SAO  +1428PUB  V0209991C000012200019N0480001N1-00065-00211999999ADDAA101000095AG10000GF100991999999999999999999MA1101801085601MW1001EQDQ01+999990APOSP QNNS11 0 00031
0136039520999991990021223004+51800-008250FM-12+004199999V0202301N00511030001CN0300001N9+00521+00171099671ADDAG12999GA1011+012009059GA2061+030009049GA3081+075009029GF108991011051012501021071MD1010021+9999REMSYN029333   81640 86460 88275 92438
0076804750999991990112017004+07583-072067FM-15+0327SVSO V0209991C00001027001CN0112001N1+02801+01801999999ADDAG12999GA1041+006909089GA2031+027009039MA1101391999999EQDQ01+000000PRSWM2
0077475910999991990020606264+38400+141217FM-16+0005RJST V0201901N00211060001CN0112001N1+99999+99999999999ADDAG12000GA1011+006009089GA2041+024009039GA3071+060009029EQDQ01+000000PRSWM2
0102703625999991990090822004+59233-135433SAO  +0010Z26  V0200401N002610120019N0240001N1+01111+00891999999ADDAG10999GD12991+0060099GD24991+0120099GF108991999999999999999999MA1102301999999MW1001REMAWY006NOSPL?
0048714500999991990081703004+51133-106583SAO  +0595WOK  V0200601N005119999999N0144001N1+01701+01201101291ADDAG10000MW1001REMAWY0232032       ?    (0000)?
0040714263999991990072202004+48067-069550SAO  +0005WAF  V02099999999999999999N0144001N1+99999+99999999999ADDAG10999REMAWY021/15/10/2710/-/      ?
0139367290999991990111406004+46167+080933FM-12+039799999V0202701N00501012001CN0200001N9+00681+00551102741ADDAG12002AY181061AY261061GF107991071051012501999999KA1120N+00691MA1999999097911MD1210361+9999MW1611REMSYN011333   20069EQDQ01+999990APOSP 
0138760753999991990070923004+31633-106433SAO  +1171CJS  V0202401N005112100019N0112001N1+03501+01501999999ADDAG10999GD12991+0120099GD23991+2100099GF107991999999999999999999MA1101521999999MW1001REMAWY042154/CBS DIST ALRD      ?    PCPCN S/20399?
0075077900999991990101111004+42550+009483FM-15+0012LFKB V0201301N00621220001CN0112001N1+02501+01801999999ADDAG12999GA1021+003909059MA1102201999999REMMET006NOSIG?EQDQ01+000000PRSWM2
0120204760999991990102821004+75400+088783FM-12+001099999V0202101N00501003601CN0220001N9-02221-02401100291ADDAG12000GA1071+003609059GF107991071051004501999999MA1999999100171MD1210051+9999REMSYN011333   87612EQDQ01+999990APOSP 
0064999999999991990032206004+14400+115700FM-13+9999ELEG V0200401N00361220001CN0200001N9+03001+02501101321ADDAG12000GF100991001001999999001001SA1+2809REMSYN01122254 00280
0081250340999991990041103004+69567+162300FM-12+002499999V0201801N00601030001CN0450001N9+00271-00091102391ADDAG12000GF108991081001999999071999MD1710141+9999OA149901101REMSYN011333   91111
0115726625240061990102709004+44150-103100SAO  +0999RCA  V0203301N004112200019N0160001N1+00561-00931102611ADDAA199000091AG10000GD12991+0750099GF102991999001999999001081MA1102711999999MD1310241+9999MW1001REMAWY009324 1008?
0059714790999991990031600004+50117-127933SAO  +0098WRU  V02099999999999999999N9999999N9+99999+99999999999ADDAG10000REMAWY0210938+45/-/MMMM 3016 ?EQDQ01+000002VOVAR 
0091601350999991990120516004+34050-006767FM-15+0075GMME V0202401N00411004501CN0112001N1+01901+01801999999ADDAG12999GA1051+004509089GA2041+024009039MA1101491999999REMMET006NOSIG?EQDQ01+000000PRSWM2
0132067500999991990050903004+46650+008617FM-12+228499999V0201501N00571006901CN0090001N9+00251-00141999999ADDAG12000AW1051AZ121031AZ221031GA1071+006909059GF107991071051008001999999MA1999999077341MD1710111+9999ME1315129REMSYN011333   87623
0064161150999991990113004004+44250+007800FM-15+1742LIMY V0209991C00001999991CY0099001N1+00201-00301999999ADDAG12999REMMET026CAVOK VAL FOSCHIA SKC SUP?EQDQ01+000000PRSWM2
0036305650999991990062015004+54450+116517FM-12+068699999V0209991C00001220001CN0500001N9+00831+00611100491ADDAG12000GF101991999999999999999999
0123716030999991990122719004+43833-066083SAO  +0043YQI  V0203301N008212200019N0240001N1-00701-01501104401ADDAG10999GD12991+0096099GD23991+0750093GF107991999999999999999999MA1104371103851MW1001REMAWY008CU2CI1 ?EQDQ01+999990APOSP 
0065565710999991990010115004+27900+102267FM-12+159999999V0203601N00101220001CN0300001N9+00681-00141999999ADDAG12000GF100991001001999999001001MA1999999083861MD1210251+9999
0076150250999991990060412004+00000+999999FM-12+011099999V0203401N00301007501CN0120001N9+02171+01131100411ADDAA106000091AG14000GF105991051021008001001001MA1999999099141MD1710041+9999
0170467800999991990112015004+00000+999999FM-12+999999999V0203401N00931220001CN0110001N9+02241+02041101761ADDAA106000091AG14000GA1021+004809089GA2041+018009059GF104991041051004501999001MA1102031999999MD1110051+9999REMSYN034555   82816 84656 00000 QNH3013INSEQDQ01    003SCOMCG
0076402500999991990121900004+32500+038200FM-12+0688OJHR V0209991C00001220001CN0150001N9+00561+00071101951ADDAA106000091AG14000GF100991001001999999001001MA1999999094011MD1010001+9999
0103987510999991990112918004+08150+125083FM-12+0627RPWY V0209991C00001220001CN0200001N9+01731+01721100701ADDAA106000091AG14000AY121061AY221061GF106991021021004501001011MD1710151+9999MW1101REMSYN011333   56999
013272518014735199001201700D+42750-073800SAO  +0089ALB  V0201601N004610180019N0640001N1-00051-00881102181ADDAA101000095AG10999GD12991+0105099GD23991+0180099GD34991+0300099GF108991999999999999999999MA1102131101061MW1001EQDQ01+999990APOSP 
0066723710999991990092508004+36933-111450SAO  +1304PGA  V0202401N002119999999N9999999N9+01781+01221999999ADDAG10999MA1102031999999REMAWY013PK WND 06 000EQDQ01+000002VOVAR 
0065385110999991990022500004+40717+055417FM-12+011599999V0202501N00501220001CN0200001N9+00251-00021999999ADDAG12000GF104991041001999999031011MA1999999099921MD1710051+9999
0094038240999991990032308004+50567-004483FM-12+023399999V0202501N00461024001CN0350001N9+00671+00441999999ADDAG12999GA1041+003009059GA2081+024009049GF108991999999004501999999REMSYN017333   84610 88458
0123567680999991990082606004+25017+101533FM-12+177399999V0202201N00201036001CN0300001N9+02391+01721999999ADDAA106000391AG10016AY181061GF107991021011012501041999KA1240N+01861MA1999999082181MD1710091+9999MW1001REMSYN011333   20186
0082373790999991990012518004+42133+041650FM-12+000399999V0209991C00001220001CN9999999N9+00301-00151102751ADDAA106000091AG14000GF100991001001999999001001EQDQ01+000032APCTENQ02+000002APC3  
0063999999999991990061010584+46117-008517FM-18+9999DRIB V0200401N009319999999N9999999N9+99999+99999102921ADDAA102251092AG10999MD1210821+9999SA1+1629REMSYN011333   62516
0573702750264421990051000003+61133-146350SY-SA+0007VWS  V0202305N002650213459N0320005N1+01175+00445102705ADDAA106000091AA224000591AG14000AJ100259199999999GA1999+007625085GA2999+015245065GA3999+021345045GA4999+054865025GD12999+0150099GD23015+0210099GD34065+0540099GD40025+9999999GF108075999999999999999999KA1120M+01171KA2180N+00331MA1102711102595MD1810081+9999REMSYN041333   10117 20033 4/025 70005 555   91000AWY0380CU FEW          ?    CU/ 808 1528 53?EQDN01 00000JPWTH 0P01    003SCCGD1QNNE81 0 00200E81 0 00401E81 0 00607E81 0 00003G21 0 00070H11 0 11025H11 0 15050H11 0 21070H11 0 37180K21 0 00040L21 0 02000M11 0 30295N21 0 00000Q21 0 10270S21 0 00053V11 0 01009X21 0 23005
0094167160999991990082518004+37900+023733FM-12+0021LGAT V0200101N00721220001CN0200001N9+02501+01041101571ADDAA106000091AG14000GF100991001001999999001001KA1999M+02841MD1610041+9999REMSYN011333   10284
0081308490999991990121306004+51050+111767FM-12+081799999V0202901N01001220001CN0500001N9-01371-02191102511ADDAG12000GF103991031051012501001001MD1810061+9999OA149901801REMSYN011333   91118
0130724285138121990072209004+39817-082933SAO  +0227LCK  V0200701N001510075019N0048001N1+02111+01941101231ADDAA199000091AG10000GD12991+0012099GD24991+0075099GF108991999051999999999999MA1101291999999MD1610101+9999MW1451REMAWY009610 15//?
0065110360999991990072413204+48117+016567FM-15+0190LOWW V0203501N00571999991CY0099001N1+02301+00801999999ADDAG12999MA1101691999999REMMET012CAVOK NOSIG?EQDQ01+000000PRSWM2
0121475800999991990022700004+40700+141367FM-15+0036RJSM V0202901N00721220001CN0112001N1+00201-00301999999ADDAG13000GA1021+007509089MA1102401999999OC101031REMMET063247/ FCST 0006         ?     96001 29015KT 98015 85SNSH 5CU025?
0215723096937271990081210003+34700-077383SAO  +0005NCA  V02099959000052200059N0064005N1+02225+02065101995ADDAG10999GD12015+0750093GF101995999999999999999999MA1102001101885MW1455EQDN01 07000JPWTH 0QNNE41 0 00201G41U0 99999K41 0 00069L41 0 00400C41 0 30120M41D0 30085N41 0 07000Q41 0 10199S41 0 00072V41 0 00199X41 0 00000
0036151590999991990102516004+46383+021817FM-12+069799999V0209991C00001220001CN0200001N9+00471+99999999999ADDAG12999GF100991001001999999001001
015272356693950199012200000D+34883-095783SAO  +0235MLC  V0201501N004610750019N0320001N1+01391+00281101001ADDAA101000095AA206000091AG10000GD12991+0540099GD23991+0750099GF107991999999999999999999KA1999M+01721MA1101021999999MD1310101+9999MW1001REMAWY007310 63?
0129489170999991990081118004+10217+103967FM-12+000399999V0202701N00501105001CN0200001N9+02771+02511100901ADDAA106000191AG10003AY181061AY221061GF108991041081008001001071MD1999999-0011MW1021SA1+2809REMSYN029222// 00280 333   59001 69911
0136703950253251990050720004+55350-131700SAO  +0029KTN  V0203401N004110540019N0400001N1+01111+00441102591ADDAG10999GD12991+0105099GD22991+0240099GD33991+0540099GF107991999999999999999999MA1102571999999MW1001REMAWY025HARBOR     ?    WND 2809?
0106161180999991990022322004+44767+008783FM-12+0189LIML V0201301N001519999999N9999999N9+00741+99999103591ADDAA106000091AG14999MA1999999101271MD1210041+9999REMSYN047555   10978 20051 30273 41111 51111 61101 7/111
0070616120999991990040515004+16650-014967FM-12+0007GOSP V0200301N00311220001CN0100001N9+04091+01171100731ADDAG12000GF100991001001999999001001MD1999999+0031REMSYN011333   58003
0141477870999991990100900004+34050+131050FM-15+0007RJOZ V0209991V00051009001CN0112001N1+01801+01501999999ADDAG12000GA1021+004509089GA2061+009009089GA3071+030009039MA1101761999999REMMET040FCST       ?     0012 TEMPO 0208 80RASH?EQDQ01+000000PRSWM2
0057702600264351990111814004+64550-149083SAO  +0110ENN  V0203001N000519999999N9999999N9-01271-01491999999ADDAG10999MA1101661999999REMAWY004454?EQDQ01+000002VOVAR 
0072722673999991990061012004+33717-096667SAO  +0228F39  V0201501N00211054001EN0240001N1+02331+02171999999ADDAG10000GD13991+0540099GF107991999999999999999999MA1102001999999MW1001
0045071400999991990051005004+48050+001383FM-15+0127LFOC V0203101N00101012901CN0080001N1+01101+00901999999ADDAG11999GA1071+012909059EQDQ01+000000PRSWM2
0121067530999991990081200004+46517+008683FM-12+101699999V0202901N00101220001CN0150001N9+01471+01201999999ADDAA106000091AG14000GA1021+024009089GF102991999999022501999999MA1999999090751MD1210071+9999ME1315669REMSYN011333   82858
0105171270999991990010806004+40083+032567FM-15+0843LTAE V0209991C00001010501CN0020001N1-01201-01301999999ADDAG12001ED199U19209GA1021+003009079GA2041+010509059GA3061+030009039MA1103011999999MW1701REMMET006NOSIG?
0123710680999991990012423004+56233-117433SAO  +0571YPE  V0202501N004110270019N0240001N1-00301-00801100321ADDAG10999GD12991+0090099GD23991+0270099GF107991999999999999999999MA1099971093381MW1001REMAWY008CU1AC6 ?EQDQ01+999990APOSP 
0050095480999991990050511004+50567+010383FM-12+045399999V0200601N00101220001CN0300001N9+02231+00911102131ADDAG12999GF103991031021012501001001MD1810091+9999
0024094900999991990031020004+51650+013583FM-12+010099999V0202501N009019999999N9999999N9+00901+00731102161ADDAG12999MD1810061+9999
0094474060999991990091412004+43950+141633FM-12+002899999V0201001N00511090001CN0200001N9+01521+01191101651ADDAA106000091AG14000GF107991001001999999001021KA1120M+02111MD1810081+9999REMSYN011333   10211
0106219310999991990032306004+70750+136217FM-12+002299999V0202001N00801024001CN0100001N9-01211-01641101891ADDAG12000AY131061AY231061GF107991071001999999031001MA1999999101571MD1710081+9999MW1381EQDQ01+999990APOSP 
0091172190999991990050912504+38267+027150FM-15+0120LTBJ V0203301N01031060001CN0112001N1+02501+01001999999ADDAG12999GA1021+009009089GA2041+060009009MA1100911999999REMMET006NOSIG?EQDQ01+000000PRSWM2
0208164800999991990112706004+36683+015133SY-MT+0051LICO V0202701N00151220001CN0120001N1+01681+01491100881ADDAA106000091AG14000GF100991001001999999001001KA1120N+01701MA1999999100271MD1310081+9999MW1001UG1999992209REMSYN023333   20170 555   0315/MET044CAVOK QUK3 QUL1 SW VIS MAR 12      ?     KM?EQDQ01+000000PRSWM2
0129724240138071990061909004+37900-085967SAO  +0230FTK  V0203301N000512200019N0080001N1+02061+01391101371ADDAA199000091AG10000GD12991+0360099GD24991+0750093GF108991999001999999071041MA1101421999999MD1710021+9999MW1051REMAWY008702 1074
0047101420999991990011921004+54000+009583FM-15+0026EDCI V0202401N00721002101CN0050001N1+00501+00401999999ADDAG12003GA1071+002109079MA1101491999999MW1581
027072255012912199003231000C+28850-096917SAO  +0032VCT  V0200505N003152200059N0048005N1+01285+01285102135ADDAA101000095AG10999GA1999+000005105GD16025+0001599GF102025999999999999999999MA1102131101715MW1455REMAWY003F3?EQDQ01+999990APOSP N01 07000JPWTH 0QNNE81 0 00803G21U0 99999H11 0 45000K21 0 00055L21 0 00300M11 0 30035N21 0 07000Q21 0 10213S21 0 00055V11 0 00303X21 0 05006
0108080800999991990112115304+42883-002733FM-15+0501LEVT V0203101N00411006001CN0112001N1+00501+00201999999ADDAG12999GA1021+004209089GA2041+006009089GA3061+024009049MA1100711094801EQDQ01+999990APOSP Q02+000000PRSWM2
0081726459999991990062316004+44783-087317SMARS+01760Y2  V0202901N006619999999N0129001N9+01441+99999100231ADDAG10999GF107991999999999999999999MW1001SA1+1499REMSYN02201    STURGEON    BAY?
0080106270999991990061410004+49850+007883FM-15+0103EDEH V0200201N001010240019N0060001N1+01401+01001999999ADDAG12999GA1041+010509059GA2081+024009039MA1101931999999MW1051REMMET008CIGE080?
0093118160999991990080308004+48200+017200FM-15+0130LKIB V0200501N00411999991CY0099001N1+02601+01001102461ADDAG11999MA1102511100941REMMET008CAVOK NOEQDQ01+999990APOSP Q02+999990APOSLPQ03+000000PRSWM2
0097999999999991990102518004+46300-040400FM-13+9999OWOG V0202001N00461220001CN0500001N9+01481+00901102121ADDAG12000GF103991011081017501031091MD1610081+9999SA1+1789UA1M050109999REMSYN01722223 00178 20502
0123085360999991990050920004+38783-009133FM-15+0123LPPT V0203601N00571024001CN0112001N1+01901+01201999999ADDAG12999GA1021+006009089GA2011+009009099GA3051+024009039GA4061+075009009MA1101021999999REMMET006NOSIG?EQDQ01+000000PRSWM2
0082726074999991990070709004+45450-069550SAO  +04273B1  V0201601N001519999999N9999999N9+00941+00561999999ADDAA199000091AG10000MA1102001999999MD1010001+9999REMAWY004000?EQDQ01+000002VOVAR 
0072125000999991990042303004+50900+015800FM-12+034499999V0209991C00001075001CN0012001N9+00581+00521101171ADDAG12000AY121031AY221031GF106991041051008001001081MD1610041+9999MW1101
0084333450999991990050615004+50400+030450FM-12+0179UKKK V0203501N00301220001CN0350001N9+02161+00481101481ADDAG12000GF108991011001999999081011MA1999999099531MD1710141+9999EQDQ01+999990APOSP 
0072863500999991990021015004-30883-055533FM-12+0242SURV V0201001N00621002101CN0040001N9+02241+02181100951ADDAG10999AY161031AY251031GF108991061061002501071999MD1810051+9999MW1611
0060036733999991990011918204+51867-000367FM-15+0160EGGW V0202501N00771220001CN0112001N1+00901+00701999999ADDAG12000GA1031+012009059MA1101691999999EQDQ01+000000PRSWM2
020072315003812199003210400C+35433-082550SAO  +0652AVL  V0203305N004152200059N0320005N1-00115-00785102765ADDAA101000095AG10999GF100005999999999999999999MA1102611094845MW1001EQDN01 00000JPWTH 0QNNE81 0 00099G21U0 99999K21 0 00018L21 0 02000M11 0 28005N21 0 00000Q21 0 10276S21 0 00030V11 0 00000X21 0 33008
0092474880999991990020922174+41767+140817FM-15+0036RJCH V0200401N00211030001CN0112001N1-00301-00701999999ADDAG12999GA1011+006009059GA2061+030009039GA3071+999999009MA1103221999999EQDQ01+000000PRSWM2
0098946630999991990093023004-34983+137400FM-12+005499999V0201401N00261036001CN0200001N9+01601+01201102591ADDAA106000091AG10999AY121999AY221999GF107991071001999999091001MA1999999101931MD1210151+9999MW1021
0050093610999991990110810004+52117+011583FM-12+0085ETMG V0203301N00301009001CN0100001N9+00911+00561102811ADDAG12999GF106991061081004501001001MD1310071+9999
0047803150999991990082021004+02967-075300FM-12+0443SKNV V0201801N004019999999N0200001N9+03491+01701999999ADDAA106000091AG14000GF105991999999008001999999
0098725205147621990041501004+40350-079933SAO  +0382AGC  V0202101N00311002701MN0160001N1+00891+00001999999ADDAG10999GD14991+0027091GF108991999999999999999999MA1101631999999MW1801REMAWY017CIG 6V11 RE15B40?
0098154250999991990041703004+44383+026583FM-12+005299999V0201401N00101220001CN0070001N9+99999+99999101431ADDAA106000091AG10000AY121031AY211031GF106991001001999999001061MA1999999100791MD1110011+9999MW1101
0109836760999991990080212004-21133-048967FM-12+053699999V0200901N00871220001CN0100001N9+01361+00981102421ADDAA106000091AG10999GF102991001001999999001011KA1240N+00981MA1999999095881MD1210161+9999REMSYN011333   20098
0072727856999991990063004004+47683-117317SAO  +0595SFF  V0200501N002612200019N0320001N1+02391+01281999999ADDAG10999GD12991+0210099GF102991999999999999999999MA1100851999999MW1001
0084298380999991990112103004+53333+083700FM-12+0196UNBB V0201701N00701220001CN0100001N9-00771-01371102701ADDAG12000GF107991001001999999001011MA1999999099441MD1710111+9999EQDQ01+999990APOSP 
0079474250999991990021904004+42800+141667FM-15+0030RJCC V0201401N00981010501CN0112001N1+00101-00401999999ADDAG11999GA1011+004509079GA2061+010509059GA3071+024009039MA1103421999999MW1851
0067592650999991990031212004+23483+111300FM-12+012099999V0209991C00001021001CN0080001N9+02311+01951101601ADDAA106000091AG14000GF107991071051022501999999MD1210081+9999MW1101
0072548360999991990061909004+36183+118150FM-12+030299999V0209991C00001007501CN0070001N9+02341+01991100841ADDAG12003AY161031AY261031GF108991081051008001999999MD1210051+9999MW1211
0154409300999991990010606004+35317+069017FM-12+336699999V0201701N00201009001CN0100001N9-00841-01221999999ADDAG12000GA1021+003009079GA2031+009009059GA3071+060009009GF107991051051004501001041MA1999999067421MD1110051+9999ME1430739REMSYN023333   82710 83630 87070
0105071430999991990102918004+48467+001517FM-12+0156LFOR V0201301N004119999999N9999999N9+00891+00891097971ADDAA103005091AG19000AY141061KA1999M+00931MD1610361+9999MW1211OA149901291REMSYN023333   10093 60057 91125
0065085660999991990031503004+41317-007733FM-12+0482LPVR V0209991C00001220001CN0200001N9+00651+00531103251ADDAG12000GF100991001001999999001001MA1999999097361MD1310011+9999
0075014150999991990071914504+58883+005633FM-15+0009ENZV V0203001N00771220001CN0112001N1+01501+01201999999ADDAG12000GA1011+004509089MA1101801999999REMMET006NOSIG?EQDQ01+000000PRSWM2
0108948660999991990090709004-37667+144833FM-15+0141AMML V0209991C00001220001CN0112001N1+00801+00301102811ADDAG10999GA1011+009009089MA1102711101071REMMET007NOSIG??EQDQ01+999990APOSP Q02+999990APOSLPQ03+000000PRSWM2
0103484310999991990050418004+14967+102083FM-12+0188VTUN V0200301N00311007501CN0100001N9+02751+02281100871ADDAA199999929AG10005AY191061AY211061GF107991061091008001061061MD1999999+0181MW1601REMSYN011333   58018
0063160660999991990060910504+45617+008733FM-15+0211LIMC V0201101N00261021001CN0090001N1+02101+01501999999ADDAG12999GA1041+009009089GA2021+021009039MA1100711999999MW1101
0169718340999991990021315004+49783-086933SAO  +0351YGQ  V0203001N007712200019N0240001N1-02201-02801101111ADDAG10000GD12991+0072099GD22991+0300099GF102991999999999999999999MA1100811096721MD1210461+9999MW1001OC101031REMAWY032CF1AC2 DRFTG     ?    SNW 2046 ?EQDQ01+999990APOSP 
0112402650999991990050800004+32367+036250FM-12+0687OJMF V0209991C00001220001CN0100001N9+01121-00241101311ADDAA106000091AG14000GA1031+060009009GF103991001001999999001011MA1999999093591MD1710141+9999REMSYN011333   83070
0090787140999991990070420004+14900-085933FM-15+0442MHCA V0200901N00311009001CN0112001N1+02501+02201999999ADDAG11999GA1031+007509089GA2021+009009099GA3081+021009049MW1511REMMET017CB S SE E TCU TDS
0068479275999991990120206204+24650+124700FM-15+0009RORT V0200201N00511007501CN0112001N1+99999+99999999999ADDAG12000GA1051+007509999MA1102541999999OC101081EQDQ01+000000PRSWM2
0061070050999991990022518004+50133+001833FM-12+0077LFOI V0202201N011819999999N9999999N9+00951+00761100551ADDAG12000MD1710261+9999MW1211OA149901801REMSYN011333   91135
0124107390999991990021521004+48833+009200FM-12+031199999V0202801N00981009001CN0500001N9+00431-00291100831ADDAG12000GA1061+009009089GF106991061021008001001001MA1999999097061MD1210321+9999OA149901961REMSYN023333   86830 91138 90220
0084389110999991990041821004+37833+065200FM-12+024299999V0209991C00001220001CN0100001N9+01241+01051101561ADDAG12000GF100991001001999999001001MA1999999098681MD1710071+9999EQDQ01+999990APOSP 
0092719650999991990041308004+63617-135867SAO  +0504YMA  V0200201N002612200019N0320001N1-00301-00801101971ADDAG10999GD12991+0360099GF102991999999999999999999MA1101631999999MW1001REMAWY011AC1 AURBO ?
0143999999999991990100106004+03000-011500FM-13+9999PJEY V0201601N00721220001CN0200001N9+02561+02191101121ADDAG12003AY181061AY211061GF102991021021002501001001MD1410001+9999MW1011SA1+2659UA1M020109999UG1070151809REMSYN02922234 00265 20202 318// 40703
0066746375999991990022611004+34933-105583SAO  +2109P70  V0202801N003119999999N9999999N9+00061-00821999999ADDAG10999REMAWY028PKWND 008/RNO 000 C05V248 Z?EQDQ01+000002VOVAR 
0038999999999991990012803114+45983-154300FM-18+9999DRIB V02099999999999999999N9999999N9+00551+99999102251ADDAG10999SA1+0689REMSYN011333   46706
0050314410999991990010721004+51900+126583FM-12+015999999V0209991C00001030001CN0180001N9-02491-02611101961ADDAG12000GF107991071001999999051999MD1210071+9999
0072034030999991990081812004+53000-004083FM-12+005399999V0209991C00001009001CN0500001N9+01751+00861999999ADDAG12000GA1061+009009089GF106991999999012501999999REMSYN011333   86830
0030999999999991990070618204+08583+144517FM-18+9999DRIB V0201001N001519999999N9999999N9-00201+99999101231ADDAG10999REMSYN011333   52005
0125408560999991990082606004+29467+060883FM-12+1370OIZH V0209991C00001220001CN0150001N9+02961-00661100001ADDAA106000091AA224000091AG14000GF100991001001999999001001MA1999999085801MD1110041+9999REMSYN029333   30013 48453 51321 70000
0086034950999991990062510004+52767+001350FM-12+0020EGYC V0202401N00511005101CN0300001N9+01861+01451102061ADDAG12999GA1081+005109059GF108991081051004501999999MD1210081+9999REMSYN011333   88617
0106161380999991990121303004+44833+011617FM-12+0010LIPF V0203001N003119999999N9999999N9+00121+99999099991ADDAA106000091AG14000MA1999999099861MD1210051+9999REMSYN047555   10000 20044 30276 41111 51111 61111 7/111
0080108600999991990012513004+48717+011533FM-15+0370EDSI V0202101N00361015001CN0112001N1+00701+00401999999ADDAG12999GA1051+015009059GA2081+027009049MA1100511999999MW1581REMMET008BLU BLU?
0048067800999991990040811004+00000+999999FM-12+999999999V0209991C000019999999N9999999N9-00161-00381999999ADDAG12999MA1999999072631MD1210081+9999ME1429609
0048066390999991990082208004+47000+007933FM-12+140699999V0200701N002119999999N9999999N9+00911+00531999999ADDAG12999MA1999999086601MD1210081+9999ME1315619
0141710950999991990053003004+72667-078000SAO  +0057YIO  V0200501N00101009001EN0480001N1-00201-00501101141ADDAG10000GD13991+0090099GD23991+0240099GF107991999999999999999999MA1101081100401MD1610041+9999MW1001REMAWY012SC8AC1 6004?EQDQ01+999990APOSP 
0081483760999991990110809004+16883+099150FM-12+0124VTPT V0209991C00001045001CN0100001N9+03011+02181100441ADDAA106000091AG14000GF106991041031008001061031MD1999999-0101REMSYN011333   59010
0072725354999991990020600004+41717-086000SAO  +0237EKM  V0202201N00771060001EN0192001N1+00671+99999999999ADDAG10000GD13991+0600099GF107991999999999999999999MA1101731999999MW1001
0076804100999991990101420004+10067-069317FM-15+0614SVBM V0200701N00571021001CN0112001N1+02901+02101999999ADDAG12999GA1041+004809089GA2031+021009049MA1101191999999EQDQ01+000000PRSWM2
025872421093814199007170400C+39050-084667SAO  +0265CVG  V0202005N003152200059N0240005N1+02115+01615102395ADDAA101000095AG10999GA1999+076205005GD12015+0750099GF101015999999999999999999MA1102441099265MW1001EQDQ01+999990APOSP N01 00000JPWTH 0QNNE11 0 00201G11U0 99999H11 0 32250K11 0 00061L11 0 01500M11 0 29310N11 0 00000Q11 0 10239S11 0 00070V11 0 00101X11 0 20006
0075768056999991990122608004+16750-099750SAO  +0005ACA  V0209991C000012200019N0128001N1+02401+02101999999ADDAG10999GF100991999999999999999999MA1101321999999MW1001REMAWY009135 BMSO?
0195718740999991990013021004+49633-112800SAO  +0929YQL  V0200201N004610042019N0016001N1-02501-03101101671ADDAG10003GD16991+0001599GD23991+0042099GD34991+0750099GF108991999999999999999999MA1100641090031MD1110021+9999MW1711REMAWY051S6SC2CI2         ?    DRFTG SNW SUN DMLY VSB 1002 ?EQDQ01+999990APOSP 
0109013600999991990072918004+61900+007867FM-12+071199999V0202601N00671007501CN0750001N9+01311+00461101451ADDAA199007091AG10000GF107991071091008001001001KA1120M+01631MA1999999093311MD1110071+9999REMSYN011333   10163
0050109820999991990112700004+47883+012533FM-12+054999999V0200801N002119999999N0100001N9-00021-00021100821ADDAA106000091AG14000MA1999999094181MD1710061+9999
0111723265038471990011106004+35950-085083SAO  +0573CSV  V0202101N004112200019N0160001N1+00391-00431101701ADDAA106000091AG10000GF100991999999999999999999KA1999M+00941MA1101661999999MD1710081+9999MW1001REMAWY007708 49?
0060478080999991990082919304+33583+130450FM-15+0012RJFF V0200701N00101220001CN0112001N1+02701+02201999999ADDAG12999GA1011+015009059MA1101021999999EQDQ01+000000PRSWM2
0072478070999991990072921004+33583+130383FM-12+001499999V0202101N00101220001CN0040001N9+02701+02361101091ADDAG12000AY111031AY211031GF105991001001999999001011MD1310051+9999MW1101
0074471410432191990060104004+35917+126617FM-15+0010RKJK V0202301N004610810019N0112001N1+01901+01601999999ADDAG12999GA1021+006009059GA2061+081009009MA1100751999999REMMET008CIGE270?
0121606300999991990100621004+27200+002467FM-12+029399999V0200101N99999090001CN0100001N9+03331+00511101261ADDAG12000GA1041+036009089GF105991041001999999031021MD1210121+9999REMSYN011333   84862EQDQ01+003443WOSPD Q020003443WOSPD 
0050864600999991990100321004-32800-056517FM-12+007599999V0200801N00461220001CN0100001N9+02491+01751101321ADDAG10999GF102991001001999999001051MD1710181+9999
0047083300999991990051117004+38883-006817FM-15+0192LEBZ V0202101N00151220001CN0112001N1+02401+01601999999ADDAG12999GA1041+012009089MA1100911999999MW1211
0123724230938211990072210014+38183-085733SAOSP+0149SDF  V0201701N003610150019N0112001N1+99999+99999999999ADDAG10999GD12991+0105099GD23991+0150099GD34991+0270099GF108991999999999999999999MA1101191999999MW1001REMAWY012TE01 MOVD E?
031172253012921199008030700C+29533-098467SAO  +0240SAT  V0201105N001550457259N0128005N1+02395+02285101675ADDAA101000095AG10999GA1999+004275065GA2999+045725035GD12015+0042099GD24085+0450099GF108085999999999999999999MA1101801098925MW1001EQDQ01+999990APOSP N01 00000JPWTH 0QNNE81 0 00201E81 0 00610G21 0 00150H11 0 15014H11 0 23150K21 0 00073L21 0 00800M11 0 29210N21 0 00000Q21 0 10167S21 0 00075V11 0 01010X21 0 11003
0074109000999991990060212504+47900+007617FM-15+0217EDSG V0202101N00931220001CN0112001N1+01801+01301999999ADDAG12999GA1031+007509089MA1101191999999REMMET005BLU+?EQDQ01+000000PRSWM2
0113722270138641990080313284+33917-084517SAOSP+0326MGE  V0203301N001510021019N0032001N1+99999+99999999999ADDAG10999GD16991+0001599GD23991+0021099GD33991+0030099GF107991999999999999999999MA1102071999999MW1451REMAWY002F2
0103220180999991990122415004+69283+032800FM-12+002799999V0202401N00101030001CN0090001N9-00721-00811101551ADDAG12000AY111031AY211031GF107991031091008001031001MD1210081+9999MW1101OA140100201REMSYN011333   91002
0079109543999991990021311574+47833+010867FM-15+0739EDPL V0202801N00671004201CN0060001N1+00101-00201999999ADDAG12003GA1021+002409089GA2041+004209089GA3061+008409059MA1100001999999MW1711
0153030250999991990011121004+58517-006267FM-12+002399999V0201901N01441009001CN0250001N9+00871+00611099841ADDAG12001AY181031AY221031GA1041+006009089GA2071+009009059GF107991071081008001999999MD1710151+9999MW1021OA140102161REMSYN029333   84820 87630 555   1//42
0097069900999991990061606004+47133+009533FM-12+046399999V0201301N002119999999N9999999N9+01061+00811102091ADDAA199000591AG10000GJ100849KA1120N+00971MA1999999096601MD1010031+9999REMSYN017333   20097 55014
0108030220999991990032723004+57467-007367FM-12+0006EGPL V0203401N00721010501CN0300001N9+00601-00021102511ADDAG12999GA1021+006609089GA2061+010509059GF107991071081008001999999MD1210261+9999REMSYN017333   82822 86635
0106333250999991990122121004+50267+028633FM-12+022799999V0201901N00401220001CN0040001N9-00461-00551101691ADDAG11000AY111031AY211031GF103991031001999999031001MA1999999098841MD1710091+9999MW1101EQDQ01+999990APOSP 
0085073540340481990120218004+46850+001717FM-12+0157LFLX V0203601N003119999999N9999999N9+00331+00201103291ADDAA106000091AG14000KA1999M+00611MD1810031+9999OA149900981REMSYN017333   10061 91119
0086233240999991990090615004+66467+060750FM-12+005899999V0203001N00201005401CN0300001N9+00611+00401102121ADDAG12000GA1071+005409059GF107991071051004501001001MD1410001+9999REMSYN011333   87618
0024095690999991990040823004+50483+012133FM-12+038999999V0200501N003019999999N9999999N9-00111-00971102201ADDAG12999MD1810041+9999
0131014500999991990122706004+59833+008183FM-12+097799999V0200601N00101000601CN0100001N9-00361-00381999999ADDAA199003091AG10001AJ100389199999999AY171061AY271061GF108991081061000751999999IA1299KA1120N-00361MW1701REMSYN017333   21036 49038
0065060300999991990042805504+57100+009867FM-15+0003EKYT V0203101N00361999991CY0099001N1+00601+00001999999ADDAG12000MA1101901999999REMMET012CAVOK NOSIG?EQDQ01+000000PRSWM2
0213710730999991990080618004+62717-109167SY-SA+0164WFL  V0201101N004612200019N0550001N1+01551+00871101461ADDAA106000091AG10000GD12991+0090099GD22991+0270099GD33991+0750093GF106991999999999999999999KA1120M+01621KA2240N+00921MA1101391099411MD1610211+9999MW1001REMSYN017333   10162 20092AWY028SC1AC1CI1        ?    6021 ?
0078685880999991990091204304-29967+030950FM-15+0008FADN V0202401N00151042001CN0112001N1+02001+01501999999ADDAG10999GA1041+007509059GA2071+042009039REMMET008101 NOSIEQDQ01+000000PRSWM2
0130726145947051990072021114+44200-072567SAOSP+0353MPV  V0200401N002610039019N0040001N1+99999+99999999999ADDAG10014GD16991+0001599GD23991+0039099GD34991+0105099GF108991999999999999999999MA1101221999999MW1451MW2611REMAWY013F3         ??
0072701718999991990011816004+67100-157850SAO  +0088Z60  V0209991C000012200019N0240001N1-03601-03931999999ADDAG10999GF100991999999999999999999MA1101291999999MW1001REMAWY006NOSPL?
0076672050999991990010609004-11350+040367FM-12+0029FQMP V0203501N00601007501CN0300001N9+03151+02291100761ADDAG10999GF107991071021008001999999MD1999999-0291REMSYN017333   59029 94336
0081984320999991990031209004+14083+121050FM-12+001199999V0200401N00201220001CN0250001N9+03051+02121101111ADDAA106000091AG14000GF102991011021008001001011MD1610111+9999REMSYN011333   56999
0076108370999991990121323504+48217+009917FM-15+0549EDPM V0200701N00261002401CN0112001N1-00201-00301999999ADDAG12000GA1051+002409079GA2081+004209059MA1101691999999EQDQ01+000000PRSWM2
0277910660227011990072602003+28200-177383SAO  +0007PMDY V0200905N007252200059N0112005N1+02945+01945101965ADDAG10999GD12025+0045099GF102995999999999999999999MA1101961101865MW1001REMAWY037TCU RWU E MOD CU SW AND      ?     W?EQDQ01+999990APOSP N01 00000JPWTH 0QNNE41 0 00203G41U0 99999K41 0 00067L41 0 00700C41 0 30110M41 0 30079N41 0 00000Q41 0 10196S41 0 00085V41 0 00399X41 0 09014
0142111160999991990042606004+47500+010750FM-12+087099999V0200901N00101012001CN0150001N9+00341+00231999999ADDAA199001091AG10001AY161061AY221061GA1071+012009059GF107991071051012501999999KA1120N+00301MW1011REMSYN035333   20030 87640 555   10096 6003/
034272422093820199012251800C+38033-084600SY-SA+0294LEX  V0202205N004652200059N0160005N1-00395-00895102895ADDAA101000095AA206000091AG10000GA1999+076205005GF100005999001999999001991KA1120M-00391KA2240N-01111MA1102741099145MD1810171+9999MW1001REMSYN029333   11039 21111 555   92518AWY020FEW CI/ 817 1001 12?EQDN01 00000JPWTH 0QNNE41 0 00000G41U0 99999H41 0 32250K41 0 00016L41 0 01000M41 0 29275N41 0 00000Q41 0 10289S41 0 00025V41 0 00000X41 0 22009
0076719360999991990030522004+62467-114450SAO  +0205YZF  V0201701N003112200019N0240001N1-00401-00901100671ADDAG10999GF100991999999999999999999MA1100471098051MW1001EQDQ01+999990APOSP 
0167702590265231990021412004+60567-151250SAO  +0029ENA  V0209991C000012200019N0192001N1-01931-02161101631ADDAA106000091AA224005091AG10000AJ100509199999999GF100991999999999999999999KA1999M-00501KA2999N-01951MA1101591999999MD1210201+9999MW1001REMAWY022220 90420 42397 20020?
024272504094702199009272000C+41167-073133SAO  +0003BDR  V0202405N002152200059N0160005N1+02225+01505101895ADDAA101000095AG10999GA1999+015245085GD12025+0150099GF102025999999999999999999MA1101901101835MW1001EQDN01 00000JPWTH 0QNNE11 0 00203G11U0 99999H11 0 11050K11 0 00059L11 0 01000M11 0 30070N11 0 00000Q11 0 10189S11 0 00072V11 0 00303X11 0 24004
0126413440999991990081512004+15517+044183FM-12+2190OYSN V0203601N00931021001CN9999999N9+03801+99999999999ADDAG12000GA1031+009009089GA2031+021009039GF105991051021000251061001IA1019MD1999999+0011REMSYN029333   30/// 58001 83830 83357
0109855740999991990072115004-33383-070783SY-MT+0474SCEL V0202101N00051220001CN0040001N1+00471+00221102551ADDAG10999AY101031AY201031GF100991001001999999001001MA1102301999999MD1710081+9999MW1051MW2061REMMET007HR 84+?
0065167230999991990070801504+37700+026917FM-15+0007LGSM V0200701N00771999991CY0099001N1+02501+01101999999ADDAG11999MA1100711999999REMMET012CAVOK NOSIG?EQDQ01+000000PRSWM2
0120703500255011990041916264+57750-152500SAOSP+0034ADQ  V0200701N00621000901MN0020001N1+99999+99999999999ADDAG10999GD14991+0009091GF108991999999999999999999MA1099051098651MW1451MW2511MW3611REMAWY008CIG 2V4?EQDQ01+999990APOSP 
0084370610999991990031121004+44800+044167FM-12+011899999V0202601N00101036001CN0500001N9+00101-00251102351ADDAG12000GF107991071001999999031001MA1999999100641MD1210061+9999EQDQ01+999990APOSP 
0190787080999991990012821004+15450-087933SY-MT+0031MHLM V0200401N00511011701CN0150001N1+03001+02601100991ADDAA106000091AG14000AY141031AY241031GA1051+011709089GA2031+024009039GF107991051021008001031001MA1999999100731MD1310281-0241MW1051MW2151REMSYN029333   56100 59024 85839 83358MET010PCPN NE/SE
0050475900999991990040821004+38267+140900FM-12+004399999V0203001N00771220001CN0200001N9+01051-00341100701ADDAG12000GF102991021021999999001001MD1210311+9999
0062093850999991990091704304+52383+013517FM-15+0048ETBS V0200701N00101220001CN0112001N1+00701+00601999999ADDAG12999GA1011+014409059MA1102101999999MW1121REMMET006NOSIG?
0060788660999991990070414004+18050-063117FM-15+0009TNCM V0201101N00511220001CN0112001N1+03001+02201999999ADDAG12999GA1041+005401081MA1101801999999EQDQ01+000000PRSWM2
0064573060999991990091803004+31583+105967FM-12+038599999V0209991C00001036001CN0050001N9+02391+02061101351ADDAG12000AY141031GF107991021051017501031999MD1410001+9999MW1101
0077992610999991990123112004+19200-160800FM-18+0003DB26 V02099999999999999999N9999999N9+02311+99999101351ADDAG12000MD1810071+9999SA1+2549UA1I990219999REMSYN02322200 00254 12004 70021
0065083730999991990061520004+38867+001383FM-15+0012LEIB V0202001N00151999991CY0099001N1+02301+01901999999ADDAG12999MA1101691999999REMMET012CAVOK NOSIG?EQDQ01+000000PRSWM2
0249722446939871990012002005+31233-094750SAO  +0086LFK  V0202905N006250030559N011200599+01725+01615101145ADDGD12995+9999999GD23995+9999999GD34995+9999999GF108085999999999999999999MA1999999100035MW1805EQDN01 02300JPWTH 0QNNE11 0 00299E11 0 00499E11 0 00699G11 0 00010K11 0 00061L11 0 00700M11 0 29540N11 0 02300Q11 0 10114S11 0 00063V11 0 01010X11 0 29012
0063715020999991990120810004+69633-135433SAO  +0031WND  V02099999999999999999N9999999N9+99999+99999999999ADDAG10999REMAWY025/-34/-392815+20/-/      ?EQDQ01+000002VOVAR 
0072726487999991990082912004+45133-087633SAO  +0191MNM  V0202401N00261006001EN0240001N1+01611+01441999999ADDAG10000GD13991+0060099GF107991999999999999999999MA1101081999999MW1001
0097162420999991990072213204+41800+012233FM-15+0003LIRF V0202601N00571999991CY0099001N1+02801+02301101621ADDAG12999MA1101591101591REMMET012CAVOK NOSIG?EQDQ01+999990APOSP Q02+999990APOSLPQ03+000000PRSWM2
0139947670999991990102200014-33950+151183FM-15+0003ASSY V0202101N00821033001CN0112001N1+01401+00601101351ADDAG10999GA1011+013509089GA2031+030009039GA3071+033009039MA1101291101301REMMET006NOSIG?EQDQ01+999990APOSP Q02+999990APOSLPQ03+000000PRSWM2
0050247680999991990120218004+62033+132600FM-12+017999999V0200601N00201220001CN0500001N9-03271+99999999999ADDAG12000GF100991001001999999001001MD1710251+9999
0122724697999991990053102004+40583-105083SAO  +1525FCL  V0201701N00461012001EN0480001N1+01561+00831999999ADDAG10999GD13991+0120099GD23991+0300099GD34991+0750099GF108991999999999999999999MW1001REMAWY026CB RWU SE-S MOVG NE NOSPL?
0065105010999991990040504004+50783+006100FM-12+020599999V0202901N00101220001CN0080001N9-00051-00101101981ADDAG12999GF100991001001999999001001MA1999999099401MD1310021+9999
0231910660227011990061820003+28200-177383SAO  +0007PMDY V0201105N006252200059N0112005N1+02505+01945102265ADDAG10999GD12025+0060099GF102995999999999999999999MA1102271102165MW1001EQDQ01+999990APOSP N01 00000JPWTH 0QNNE41 0 00203G41U0 99999K41 0 00067L41 0 00700C41 0 30200M41 0 30167N41 0 00000Q41 0 10226S41 0 00077V41 0 00399X41 0 11012
0128311740999991990100209004+54833+137533FM-12+001799999V0203001N00301220001CN0500001N9+01091+00251099911ADDAA106000091AG14000GF102991021001999999041001KA1120M+01351MA1999999099661MD1610031+9999REMSYN011333   10135EQDQ01+999990APOSP 
0074383580999991990061821004+42150+073983FM-12+209299999V0209991C00001220001CN9999999N9+00931+00611999999ADDAG12000GF101991001001999999001021MA1999999079501MD1210041+9999ME1315289
0058865800999991990110704004-34833-056000FM-15+0032SUMU V0201801N00211999991CY0099001N1+01501+01001999999ADDAG10999MA1101691999999REMMET005CAVOKEQDQ01+000000PRSWM2
0111726886241301990090412004+44833-117817SAO  +1027BKE  V0209991C000012200019N0240001N1+01001+00721101751ADDAA106000091AG10000GF100991999999999999999999KA1999N+00891MA1101931999999MD1210051+9999MW1001REMAWY007205 48?
0075025260999991990083116204+57667+012300FM-15+0169ESGG V0203201N00261010501CN0112001N1+01501+01201999999ADDAG12999GA1061+010509059MA1101291999999REMMET006NOSIG?EQDQ01+000000PRSWM2
0105063700999991990021715204+51450+005417FM-15+0022EHEH V0202001N00461008101CN0112001N1+00901+00701999999ADDAG12000GA1021+003609059GA2041+008109059GA3061+018009059MA1101021999999REMMET004BLU?EQDQ01+000000PRSWM2
0069947410999991990102923004-33483+150133FM-12+095099999V0202901N00101220001CN0200001N9+02161+01091999999ADDAA106000091AG10999AY101999AY201999GF101991001001999999001011MW1021
0106343980999991990112409004+49667+049483FM-12+001099999V0209991C00001004201CN0040001N9+00091+00061102721ADDAG12001AY181031AY281031GF108991081071004501999999MA1999999102611MD1810041+9999MW1851EQDQ01+999990APOSP 
0112075580999991990111000004+44117+003017FM-12+072099999V0201301N005119999999N9999999N9+00761+00761102391ADDAA103002091AA206002091AG10000AY141061MA1999999093921MD1810071+9999MW1211OA149900881REMSYN017333   60027 91117
0074095520999991990101705004+50650+010767FM-12+094299999V0200801N00601220001CN0100001N9+01151+00941999999ADDAG12999GF104991031001017501031041MA1999999090781MD1710131+9999ME1314929
0172915830999991990030418004-20933+165317FM-12+0013NWWP V0201601N00311012001CN0080001N9+02481+02301100951ADDAA103000291AA206000391AG10999AY181061AY261061GA1031+003009089GA2031+012009059GA3071+030009039GF108991051081004501071999MW1001REMSYN035333   56009 69927 83810 83640 87360
0149788660999991990042918004+18050-063117SY-MT+0009TNCM V0200401N00571220001CN0700001N1+02911+02021101451ADDAA106000091AG14000GA1021+005401081GF102991021011004501001001MA1101391999999MD1710081+0131MW1001REMSYN023333   01199 58013 82818EQDQ01+000000PRSWM2
005576692099999199001052100N+19120-096120MEXIC+0016     V0200905N003059999999N003000599+02565+02105101445ADDAA199000095GF100995999999999999999999MA1999999101045
032591408040309199003242000C+07333+134483SAO  +0029PTRO V0200605N00315004885EN0096005N1+02505+02505100975ADDAA101002395AG10999GA1999+004885085GA2999+024385055GD13055+0048099GD24085+0240099GF108085999999999999999999MA1100981100595MW1805REMAWY005RB25?EQDQ01+999990APOSP N01 02300JPWTH 0QNNE11 0 00406E11 0 00610G11 0 00016H11 0 11016H11 0 22080K11 0 00077L11 0 00600M11 0 29705N11 0 02300Q11 0 10097S11 0 00077V11 0 01010X11 0 06006
0114035623999991990122309004+52367-000217FM-15+0049EGWZ V0201901N007210240019N0112001N1+00801+00401999999ADDAG12000GA1041+007509059GA2021+024009039GA3041+066009009MA1101321999999MW1001OC101131REMMET018CIGE080 BLU FIRST?
0036112250999991990113009004+46850+014200FM-12+070599999V0202701N00101002101CN0100001N9+00001-00201999999ADDAG12000GF107991071061002501999999
0106348580999991990081521004+45917+043350FM-12+007799999V0209991C00001220001CN0060001N9+01851+01701101331ADDAG12000AY101031AY201031GF100991001001999999001001MA1999999100311MD1310051+9999MW1101EQDQ01+999990APOSP 
0079010014999991990082013504+59800+005350FM-15+0049ENSO V0203501N00361015001CN0112001N1+01201+01001999999ADDAG12999GA1011+003009079GA2041+009009059GA3061+015009039MA1100101999999MW1611
0038999999999991990080100394+39783-058433FM-18+9999DRIB V02099999999999999999N9999999N9+99999+99999999999ADDAG10999SA1+2709REMSYN011333   44531
0106702220999991990021605154+64733-156933SAOSP+0046PAGA V0201001N006210084019N0048001N1+99999+99999999999ADDAG10999GD12991+0045099GD24991+0084099GF108991999999999999999999MA1101691999999MW1711REMAWY010DRFTG SNW?
0050574260999991990042703004+30683+107800FM-12+045599999V0203601N00201220001CN0200001N9+02561+01551101021ADDAG12000GF101991001001999999001011MD1410001+9999
0087724105999991990011421004+38267-078900SAO  +0366SHD  V0209991C000012200019N0480001N1+00721+99999999999ADDAG10000GD12991+0300099GD23991+0600093GF107991999999999999999999MA1102541999999MW1001
0063013200999991990070511504+61833+006117FM-15+0060ENSD V0209991C00001018001CN0112001N1+01301+01101999999ADDAG12003GA1021+015009059GA2051+018009059MA1099801999999MW1211
0112789480999991990092009004+13750-060950FM-15+0003TLPL V0200501N00361004501CN9999999N9+02601+02401101071ADDAG10012GA1061+004509089MA1101021100991MW1801REMMET005HAZE?EQDQ01+999990APOSP Q02+999990APOSLPQ03+000002VOVAR 
0103854880999991990092518004-29917-071200FM-12+0146SCSE V0202801N00461220001CN0100001N9+01481+00861101831ADDAA106000091AG10999GA1021+006009089GF102991021081008001001001MD1410001+9999REMSYN017333   56600 82820
0050028360999991990102015004+67367+026650FM-12+0179EFSO V0203501N00311220001CN0500001N9-00231-00981102661ADDAG12000GF101991011051004501001001MD1110271+9999
0179467340999991990120121004+23583+119617FM-12+0031RCQC V0200201N01441003601CN0060001N9+01631+01111102231ADDAA106000091AG14000AY121031AY221031GA1031+002409079GA2071+003609079GF107991071061002501001001MA1102241999999MD1510071+9999MW1051REMSYN040555   30238 83708 87712 00000 QNH3019INS
0072157300999991990111403004+41650+025367FM-12+033199999V0209991C00001220001CN0010001N9-00061-00101102921ADDAG11000AY101031AY201031GF100991001001999999001001MD1710031+9999MW1101
0106295810999991990022015004+56200+095683FM-12+020499999V0209991V00101030001CN0040001N9-02301-02551104811ADDAG12001AY171031AY221031GF108991081001999999021999MA1999999101891MD1710071+9999MW1711EQDQ01+999990APOSP 
0065994090999991990050223004+48217-088367FM-12+0195PILM V0202201N005719999999N9999999N9+00441+99999102161ADDAG12999OA139900621REMSYN035333   91212 555   11011 22011 92300
0087724235138101990060815004+38233-085667SAO  +0167LOU  V0202201N007212200019N0112001N1+02831+02171999999ADDAG10000GD12991+0090099GD24991+0750093GF108991999999999999999999MA1101661999999MW1001
0058718755999991990110216004+49517-114000SAO  +1190WMP  V0203501N002119999999N9999999N9-00701-00801102871ADDAG10999MD1210121+9999REMAWY0062012 ?EQDQ01+000002VOVAR 
0118133630999991990021306004+43350+019350FM-12+078899999V0209991C00001012001CN0180001N9+00081-00021092271ADDAA106000091AG14000GF108991081051012501999999IA1099IA2999+00009KA1120N+00071MD1310041+9999REMSYN017333   20007 31100
0077035860999991990012602004+52333+000767FM-12+0054EGXH V0202301N00931220001CN0300001N9+00351-00121098821ADDAG12999GA1021+075009009GF102991001001999999001021MD1110271+9999OA140101601
0103484030999991990121303004+15800+102033FM-12+0183VTUC V0200401N00311220001CN0080001N9+02751+01911101541ADDAA106000091AG14000AY121031AY211031GF105991011011008001001011MD1999999-0191MW1051REMSYN011333   59019
0211232150999991990032903004+67433+058033FM-12+007199999V0202501N00801005701CN0300001N9-00191-00431101361ADDAA106000091AA224000091AG14000AJ100159199999999AY131031AY231031GA1071+005709059GF107991071051004501999999IA1249MA1999999100451MD1310081+9999MW1361REMSYN035333   87619 555   221   48015 7000/EQDQ01+999990APOSP 
0115711450999991990080501004+53850-094650SAO  +0237YIV  V0201601N00101012001EN0240001N1+01601+01001102411ADDAG10999GD13991+0120099GF107991999999999999999999MA1102341099511MW1001REMAWY015SC9 TCU ASOCTD?EQDQ01+999990APOSP 
0135999999999991990073100004+30300-133200FM-13+9999KNLO V0209999999999002101CN0200001N9+02221+01701102151ADDAG11000AY121061GF107991071051002501999999MD1810091+9999MW1021SA1+1899UA1M020059999UG1040150409REMSYN02922265 00189 20201 304// 40403
0078172190999991990121907004+38267+027150FM-15+0120LTBJ V0201801N00101030001CN0070001N1+00701+00601999999ADDAG12999GA1021+009009059GA2051+030009039MA1102101999999MW1101REMMET006NOSIG?
0058766443999991990091108484+20933-089667FM-15+0010MMMD V0209991C00001999991CY0099001N1+02301+02101999999ADDAG12000MA1101691999999REMMET005CAVOKEQDQ01+000000PRSWM2
006976695099999199004032100N+19850-090580MEXIC+0025MMCP V0203205N005059999999N010000599+02925+02375101015ADDAA199000095GF102995999999006005999999MA1999999100915MD1999999+0154
0106703870999991990071518004+56483-132367SAO  +0013WRG  V0209991C000010180019N0240001N1+01171+01061999999ADDAG10000GD12991+0120099GD24991+0180099GF108991999999999999999999MA1101691999999MW1001REMAWY010NOSPL/ 47?
0066162520999991990060417004+41567+014650FM-15+0807LIBS V0202401N00311220001CN0112001N1+02101+01201999999ADDAG11999GA1021+060009009REMMET012SCT MON LIB?EQDQ01+000000PRSWM2
028972311013873199012312100C+33950-083317SAO  +0244AHN  V0203105N004652200059N0400005N1+01395+00225102415ADDAA101000095AG10000GA1999+076205005GD13065+0750093GF106035999001999999001991MA1102441099485MD1610071+9999MW1001REMAWY008607 1001EQDQ01  00003PRCP99N01 00000JPWTH 0QNNE41 0 00308G41U0 99999H41 0 32250K41 0 00036L41 0 02500M41 0 29375N41 0 00000Q41 0 10241S41 0 00057V41 0 00804X41 0 31009
0076162890999991990110617504+40850+014300FM-15+0072LIRN V0200201N00211024001CN0112001N1+01401+00601999999ADDAG12000GA1031+010509059GA2051+024009039MA1101901999999EQDQ01+000000PRSWM2
0131013250999991990123006004+60833+005950FM-12+011499999V0201801N00101007501CN0003001N9+99999+99999999999ADDAA199031091AG10002AJ100239199999999AY171061AY221061GF108991081001008001021999IA1289KA1120N+00021MW1721REMSYN017333   20002 44023
0087726665999991990020420004+43967-107950SAO  +1294WRL  V0203601N002610750019N0960001N1+00331-00491101181ADDAG10999GD12991+0450099GD23991+0750099GF107991999999999999999999MA1100911999999MW1001
0123100350999991990082705004+54533+009550FM-12+004899999V0203501N00101220001CN0300001N9+00921+00831102091ADDAG12999AY101021AY201021GA1011+060009009GF101991001001999999001021MA1999999101501MD1710031+9999MW1111REMSYN011333   81070
0119161200999991990020721004+44417+008850FM-12+0003LIMJ V0200301N00101220001CN0150001N9+01101+00901102691ADDAG12000GA1011+006009089GF101991011011008001001001MA1999999102651MD1110131+9999REMSYN029333   81820 97075 555   0200/
0072722688930341990111013004+32683-103217SAO  +1115HOB  V0202801N004112200019N0400001N1+00221+00001999999ADDAG10999GF100991999999999999999999MA1102201999999MW1001REMAWY00646034?
027772241012917199001081000C+29950-094017SAO  +0005BPT  V02099959000052200059N0016005N1+00225+00175101985ADDAA101000095AG10999ED112U13719GA1999+000005105GD16025+0001599GF102025999999999999999999MA1101961101905MW1455REMAWY015R12VR45V60+ F2?EQDN01 07000JPWTH 0QNNE81 0 00802G21U0 99999H11 0 45000K21 0 00035L21 0 00100M11 0 30090N21 0 07000Q21 0 10198S21 0 00036V11 0 00202X21 0 00000
0076061100999991990090719254+55233+009267FM-15+0040EKSP V0202701N00211220001CN0112001N1+01101+01001999999ADDAG12999GA1011+007509089GA2031+013509059MA1100711999999EQDQ01+000000PRSWM2
0068073060999991990020805504+46700-001383FM-15+0091LFRI V0202701N00881220001CN0112001N1+01101+00801999999ADDAG12000GA1011+007809089MA1102001999999OC101391EQDQ01+000000PRSWM2
0086231090999991990110700004+68250+054517FM-12+002499999V0201301N00501008101CN0240001N9-01031-01231100241ADDAG12000GA1071+008109059GF107991071051008001001001MD1710161+9999REMSYN011333   87627
0138031710999991990071218004+56383-002867FM-12+0012EGQL V0202701N00411027001CN0350001N9+01681+01001102511ADDAA106000091AG14000GA1011+009009089GA2061+027009039GF107991021081012501071021KA1120M+01781MD1710041+9999REMSYN023333   10178 81830 86359
0081726459999991990082100004+44783-087317SMARS+01760Y2  V0203601N005119999999N0129001N9+01771+99999101991ADDAG10999GF107991999999999999999999MW1001SA1+1839REMSYN02204    STURGEON    BAY?
0098062600999991990041004004+52100+005183FM-12+0004EHDB V0201601N00051220001CN0300001N9-00341-00401101461ADDAG12999GA1011+069009009GF101991001001999999001011MD1610131+9999REMSYN023333   81073 555   51001
0156109480999991990022506004+47400+010283FM-12+081299999V0201901N00101220001CN0600001N9+00031-00191999999ADDAA106000091AG14000GF100991001001999999001001GJ105409IA1099IA2999-00309KA1120N+00031MA1999999092821MD1710081+9999ME1315119REMSYN023333   20003 31103 55090
0111165600999991990112022004+39250+009050FM-15+0001LIEE V0200301N00151220001CN0112001N1+01201+01201101131ADDAG12999GA1011+002109079MA1101081101071REMMET010NOSIG BLU?EQDQ01+999990APOSP Q02+999990APOSLPQ03+000000PRSWM2
0065994010999991990121504004+28900-089433FM-12+0000BURL V0201401N005119999999N9999999N9+01831+99999102101ADDAG12999OA139900571REMSYN035333   91211 555   11009 22010 90425
0115523230999991990100806004+41800+097033FM-12+177099999V0200901N00701220001CN0300001N9+01511-00291999999ADDAA106000091AG14000GF102991011051017501001021KA1240N+00181MA1999999083001MD1710151+0201REMSYN017333   00252 20018
0024039230999991990010802004+54233-006500FM-12+016199999V0202701N003619999999N9999999N9+00371+00161102701ADDAG12999MD1210151+9999
0081714380999991990081905004+45033-080367SAO  +0191WMZ  V0200701N010819999999N0144001N1+01701+00801101981ADDAG10999MA1999999099671MD1010091+9999OC101341REMAWY0060009 ?EQDQ01+999990APOSP 
0047036580999991990092803504+51617-001083FM-15+0070EGUB V0209991C00001220001CN0080001N1+00701+00601999999ADDAG12999GA1011+030009039MA1102611999999MW1051
0125999999999991990031212004+33700-154900FM-13+9999KRJG V0201801N01131220001CN0200001N9+01701+01401102451ADDAG12000GF101991011011001501999999MD1710151+9999SA1+1839UA1M030059999UG1030151809REMSYN03322265 00183 20301 318// 40303 ICE
0229767620999991990052006003+17550-099500FM-12+136099999V0201801N00101220001CN0030001N9+02141+02141100931ADDAA106000091AG14000AY121061AY221061GA1021+009001081GF104991021041008001021001GM1144000239809999999999999999999IA1019KA1240M+03051KA2240N+02001MA1999999087541MD1310121-0011MW1411REMSYN041333   10305 20200 30/// 56440 59001 82830
0391704540257041990121103003+51883-176650SAO  +0005ADK  V0202305N003650039659N0064005N1+00225-00065100681ADDAA199999999AG10007GD12991+0033099GD24991+0039099GF108995999051999999999999MA1100681100621MD1810031+9999MW1455MW2615REMAWY014803 15// WR//?EQDQ01  00002PRCP99N01 00203KCLC1 3N02 00610KCLC2 3N03 29730EALTP 3N04 29713FPRES 3N05 02070JPWTH 0N06 10068ISLVP 3QNNE41 3 00203E41 3 00610G41 0 00013K41 0 00031L41 0 00400C41 3 29730M41 3 29713N41 0 02070Q41 3 10068S41 0 00036V41 0 01099X41 0 23007
025872520094823199010050100C+40500-080217SAO  +0347PIT  V0202105N005252200059N0192005N1+01335+00785101575ADDAA101000095AG10999GA1999+021345035GD12015+0210099GF101015999999999999999999MA1101591097175MW1001EQDQ01+999990APOSP N01 00000JPWTH 0QNNE11 0 00201G11U0 99999H11 0 23070K11 0 00046L11 0 01200M11 0 28695N11 0 00000Q11 0 10157S11 0 00056V11 0 00101X11 0 21010
0136916830999991990110409004-18050+178567FM-12+0007NFNA V0200801N00621004801CN0100001N9+02341+02251101431ADDAG10999AY121031AY281031GA1051+004809089GA2071+012009059GF108991081081004501999999MD1210171+9999MW1801REMSYN023333   562// 85816 87640
0115426670999991990031400004+23283+077350FM-12+0523VABP V0200501N999999999999N0040001N9+99999+99999101241ADDAA106000091AG14000GF108991999999999999999999MA1999999095381MD1999999-0091REMSYN011333   59009EQDQ01+004523WOSPD 
0392724030937381990031618003+38950-077450SY-SA+0088IAD  V0202005N008250762059N0240005N1+02675+01565101635ADDAA106000091AG14000GA1999+012195065GA2999+076205025GD12035+0120099GD24085+0750099GF108085999051999999001991KA1120M+02721KA2240N+01781MA1101661100475MD1710201+9999OC101291REMSYN029333   10272 20178 555   91618AWY011720 1507 64EQDN01 00000JPWTH 0QNNE11 0 00204E11 0 00610G11 0 00250H11 0 15040H11 0 37250K11 0 00060L11 0 01500M11 0 29670N11 0 00000Q11 0 10163S11 0 00080V11 0 01010X11 0 20016
0058411840999991990102110004+25617+055933FM-15+0031OMRK V0203401N00461999991CY0099001N1+03501+01601999999ADDAG12999MA1101491999999REMMET005CAVOKEQDQ01+000000PRSWM2
0067033340999991990082609504+53350-002267FM-15+0078EGCC V0202001N00211003601CN0038001N1+02001+01701999999ADDAG12999GA1051+003609089MA1101901999999MW1051REMMET011GRADU 5000?
0050389740999991990120709004+36533+061217FM-12+027999999V0203201N00401036001CN0100001N9+02501-00251101371ADDAG12000GF106991061001999999071001MD1210051+9999
0077164590999991990120105004+37400+014917FM-15+0022LICZ V0202301N00411220001CN0112001N1+00901+00701999999ADDAG12999GA1041+024009039MA1100711999999REMMET008SCT BLU?EQDQ01+000000PRSWM2
0107166410999991990042519204+39617+019917FM-15+0004LGKR V0209991C00001024001CN0112001N1+01601+01001999999ADDAG12999GA1011+006009089GA2031+010509059GA3081+024009049MA1101391999999REMMET006NOSIG?EQDQ01+000000PRSWM2
0076071810999991990060209004+48583+005967FM-15+0350LFSO V0203001N00621004801CN0112001N1+01501+01201999999ADDAG12000GA1061+004809089GA2041+007809059MA1101191999999EQDQ01+000000PRSWM2
0122764235999991990041822004+24133-104533SAO  +1856DGO  V02099999999992200019N0160001N1+02901+99999999999ADDAG10999GD12991+0150099GD22991+0540099GF102991999999999999999999MA1101831999999MW1001REMAWY026183/BMSO ALGS SC/CI/57099?
0100570830999991990030206004+34717+113650FM-12+0111ZHCC V0203601N00101220001CN0090001N9+01101-00081102461ADDAA106000091AG14000GF104991041001999999041021KA1240N+00011MD1710191+9999MW1051REMSYN011333   20001
0118712035999991990030413004+49967-119383SAO  +0430YLW  V0200101N001510240019N0240001N1+00001-00201101571ADDAG10999GD12991+0123099GD23991+0240099GF107991999999999999999999MA1101461999999MW1001REMAWY022SC5AC3 M41 SCT 98082 ?
0121150200999991990030807004+47683+026667FM-12+016299999V0209991C00001220001CN0150001N9+00521+00381102341ADDAA106000091AG14999GF103991031051008001001001IA1019KA1120N+00021MA1999999100331MD1810051+9999REMSYN017333   20002 30105
0140722595139111990031620004+32783-097433SAO  +0198FWH  V0200301N004110240019N0160001N1+01781+00391101681ADDAG10999GD12991+0120099GD23991+0240099GD33991+0750099GF107991999999999999999999MA1101691999999MW1801REMAWY029CB ALQDS         ?    MOVG E?
0106286610999991990020409004+55467+065400FM-12+007999999V0202401N00601030001CN0050001N9-01121-01321102131ADDAG12001AY171031AY221031GF108991041071004501021999MA1999999101151MD1710141+9999MW1711EQDQ01+999990APOSP 
026672645014898199005101000C+44483-088133SAO  +0214GRB  V0203505N00825003355MN0112005N1+00285+00175099095ADDAA101001595AG10999GA1999+003355135GD14085+0033099GF108085999999999999999999MA1099021096535MW1615OC101391EQDQ01+999990APOSP N01 02000JPWTH 0QNNE81 0 00610G21 0 00011H11 0 13011K21 0 00035L21 0 00700M11 0 28505N21 0 02000Q21 0 09909S21 0 00037V11 0 01010X21 0 35016
0084306270999991990012603004+53100+105533FM-12+076199999V0200301N00301220001CN0500001N9-03261-03421103691ADDAG12000GF105991001001999999001091MA1999999093151MD1710081+9999EQDQ01+999990APOSP 
0065067000999991990080700204+46250+006133FM-15+0416LSGG V0200101N00101999991CY0099001N1+01601+00501999999ADDAG12000MA1101801999999REMMET012CAVOK NOSIG?EQDQ01+000000PRSWM2
0087725038147141990052212004+41500-074100SAO  +0150SWF  V0209991C000010090019N0320001N1+00721+00331999999ADDAG10000GD12991+0036099GD23991+0090099GF107991999999999999999999MA1101731999999MW1001
0125726055999991990111309004+43083-070817SAO  +0031PSM  V0202601N006212200019N0480001N1-00491-01211100561ADDAA199000091AG10000GF100991999999999999999999MA1100541999999MD1110031+9999MW1001OC101131REMAWY026PK WND 2726/13/ 103 RCRNR?
0086039200999991990101003004+54483-006100FM-12+003899999V0202601N00311018001CN0200001N9+01001+00751101561ADDAG12000GA1081+018009059GF108991081051017501999999MD1810041+9999REMSYN011333   88656
0144263780999991990061018004+57150+031183FM-12+007199999V0209991C00001220001CN0200001N9+01891+00991100871ADDAA106000091AG14000GF104991999021008001001001KA1120M+02081MA1999999100041MD1310081+9999REMSYN011333   10208EQDQ01+000032SCOTLCQ02+999990APOSP 
0066076070999991990071903004+43917-000500FM-12+0063LFBM V0200401N002119999999N9999999N9+01481+01101101481ADDAA106000091AG14000MD1710051+9999OA149900411REMSYN011333   91108
0122475800999991990022006314+40700+141367FM-16+0036RJSM V0202901N00211002701CN0025001N1+99999+99999999999ADDAG12009GA1031+001809079GA2061+002709079GA3081+007509049MW1611REMMET049VIS W-NW 1500M.        ?     BR. ST6 SCT OVR FLD?
0102725287047241990060704004+43100-078950SAO  +0180IAG  V0202501N004110750019N0160001N1+01671+01501100991ADDAG10999GD12991+0210099GD22991+0330099GD34991+0750099GF108991999999999999999999MA1101021999999MW1001
0044106160999991990101221004+49950+007267FM-15+0503EDAH V0201301N00311220001CN0090001N1+01401+01001999999ADDAG12000MA1102001999999MW1051REMMET004BLU?
0066723900999991990050914004+35667-121283SAO  +002187Q  V0201201N003119999999N9999999N9+01221+00941999999ADDAG10999MA1101591999999REMAWY013PK WND 07 000EQDQ01+000002VOVAR 
0093037780999991990030616004+51517-000117FM-12+0023EGRB V0202601N00771030001CN0400001N9+01231+00521101981ADDAG12999GA1041+007509059GA2061+030009039GF107991041051008001031011MD1710071+9999OA140101491
0060035860999991990120221504+52333+000767FM-15+0054EGXH V0202401N00311006601CN0050001N1+00501+00301999999ADDAG12999GA1081+006609059MA1103121999999MW1051REMMET004WHT?
0070999999999991990070218004+70000-134300FM-13+9999VD80 V0200701N01231220001CN0200001N9+00901+00701101731ADDAG12000GF102991011001999999071011MD1210091+9999MW1021REMSYN00522200
0108030050999991990090621004+60133-001183FM-12+008499999V0200101N00261060001CN0200001N9+01071+00991100381ADDAG12000GA1021+010509059GA2051+060009009GF106991021051012501031021MD1210261+9999REMSYN017333   82635 85070
0106716200999991990100823004+44217-076600SAO  +0093YGK  V0200401N00721003001AN0240001N1+00901+00701102421ADDAG10999GD14991+0030099GF108991999999999999999999MA1102401101281MW1001REMAWY006SC10 ?EQDQ01+999990APOSP 
0089714310999991990121302004+43950-078167SAO  +0078WNC  V0200801N001519999999N9999999N9+00501+00201100641ADDAG10999MA1999999099711MD1710281+9999REMAWY0067028 ?EQDQ01+999990APOSP Q02+000002VOVAR 
0061599480999991990022112004+18233+109517FM-12+000799999V0200901N00201220001CN0200001N9+02501+02201101161ADDAA106000091AG14000GF102991011011008001001021MD1210111+9999
0024714080999991990100900004+47367-055800SAO  +0035WZN  V0203601N005719999999N0144001N1+00901+99999102501ADDAG10000MD1210091+9999
0118153550999991990010103004+45083+027233FM-12+005399999V0203601N00201004201CN0060001N9-00261-00421103161ADDAA106000091AG14000AY121031AY221031GF108991081001004501021999MA1999999102461MD1810041+9999MW1101REMSYN011333   94050
0087722447039011990072022004+32383-094717SAO  +0111GGG  V0201201N003112200019N0160001N1+03281+02061999999ADDAG10999GD12991+0240099GD22991+0360099GF102991999999999999999999MA1101491999999MW1001
0096717350999991990100500254+47700-079850SAOSP+0243YXR  V0202701N00621009001MN0240001N1+99999+99999999999ADDAG10004GD13991+0090099GD23991+0750099GF107991999999999999999999MW1801OC101241REMAWY007SC7CI1?
014472259613961199005060300D+32817-097367SAO  +0216FTW  V0209991C000012200019N0240001N1+01941+00781101861ADDAA101000095AG10000GD12991+0240099GD22991+0750093GF102991999999999999999999MA1101931999999MD1310031+9999MW1001REMAWY004303?EQDQ01  00003PRCP99
0079994230999991990051906004+32683-079883FM-12+0003FBIS V0202701N001519999999N9999999N9+01991+99999101911ADDAG12000MD1410001+9999OA139900211REMSYN035333   91204 555   11003 22003 90600
0102011030999991990091806004+65100+011700FM-12+004799999V0202001N00461030001CN0400001N9+00681+00591999999ADDAA199010091AG10001AY161061AY261061GF108991021041008001021999KA1120N+00651MW1021REMSYN011333   20065
0036150990999991990012502004+46867+023050FM-12+056199999V0201601N00101036001CN0100001N9+00401+99999999999ADDAG12999GF108991081001999999071999
0065994270999991990123105004+42967-070617FM-12+0013IOSN V0202101N010319999999N9999999N9+01081+99999099951ADDAG12999OA139901081REMSYN035333   91221 555   11019 22020 90500
0118476400999991990090100004+35500+138767FM-12+086199999V0200101N00101220001CN0100001N9+02441+01991999999ADDAA106000091AG14000GF107991021021008001001011KA1120N+01881MA1999999092001MD1010031+9999ME1315519REMSYN011333   20188
0145119030999991990080821004+48633+019150FM-12+0318LKSL V0200401N00101027001CN0150001N9+01361+01241102161ADDAG12000AY121031AY221031GA1031+012909059GA2081+027009039GF108991031051012501071999MA1999999098361MD1310051+9999MW1601REMSYN017333   83643 88359
0058401980999991990092211504+30000+034833FM-15+0445LLOV V0203501N00411999991CY0099001N1+02801+01901999999ADDAG12000MA1100911999999REMMET005CAVOKEQDQ01+000000PRSWM2
0061154210999991990030514304+44550+026100FM-15+0095LROP V0202501N00311999991CY0099001N1+01201+00201999999ADDAG12000MA1102711999999REMMET008CAVOK NOEQDQ01+000000PRSWM2
0308727470149181990092913003+48567-093383SAO  +0359INL  V0200505N00315005495MN0240005N1+00675+00505102915ADDAG10999GA1999+005495135GA2999+012195065GD13065+0054099GD24025+0120099GF108085999999999999999999MA1102781098485MW1001REMAWY015RE13 BINOVC NW?EQDN01 00000JPWTH 0QNNE81 0 00408E81 0 00602G21 0 00018H11 0 13018H11 0 15040K21 0 00041L21 0 01500M11 0 29080N21 0 00000Q21 0 10291S21 0 00044V11 0 01010X21 0 05006
0104873050999991990061618004-30250-068750FM-12+1165SAMJ V0201101N00101220001CN0500001N9+02562+00221999999ADDAA106000091AG10999GF100991001001999999001001MA1999999088321MD1710011+9999ME1314969EQDQ01+029883ATOT  
0058014993999991990040415004+00000+999999FM-15+9999ENVY V0200601N00151999991CY0099001N1-00101-00901999999ADDAG12000MA1099801999999REMMET005CAVOKEQDQ01+000000PRSWM2
0073945850999991990092102004-26800+153150FM-12+005799999V0201401N00571220001CN0200001N9+01951+01261102381ADDAG10999AY101999AY201999GF102991021041008001001001MA1999999101711MW1041
0118029630999991990051606004+60817+023500FM-12+010399999V0202501N00211030001CN0150001N9+00841+00611100871ADDAA106000091AG14000GF108991011061002501071999IA1019IA2999+00409KA1120N+00631MD1810011+9999REMSYN017333   20063 30004
0032714610999991990091418004+48300-088867SAO  +0218WAB  V0200101N007719999999N0144001N1+00901+00001101081ADDAG10000MD1210071+9999OC101031
0072724567139211990110615004+39367-094917SAO  +0235FLV  V0201101N00261027001EN0160001N1+00561+00221999999ADDAG10000GD13991+0270099GF107991999999999999999999MA1101761999999MW1001
025972266013962199005212300C+32417-099683SAO  +0544ABI  V0200305N004652200059N0480005N1+02835+01335101355ADDAA101000095AG10999GA1999+076205005GF100005999999999999999999MA1101561095165MW1001REMAWY007FEW CI?EQDQ01+999990APOSP N01 00000JPWTH 0QNNE81 0 00000G21U0 99999H11 0 32250K21 0 00056L21 0 03000M11 0 28100N21 0 00000Q21 0 10135S21 0 00083V11 0 00000X21 0 03009
0066074800999991990042203004+45717+004950FM-12+0201LFLY V0201401N001019999999N9999999N9+00411+00321100841ADDAA106000091AG14000MD1710071+9999OA149900311REMSYN011333   91106
0036153410999991990031323004+45017+022867FM-12+026299999V0209991C00001220001CN0100001N9+00101+99999999999ADDAG12999GF100991001001999999001001
0075718355999991990022012004+51283-080600SAO  +0009YMO  V0209991C000012200019N0240001N1-03401-03701999999ADDAG10000GD12991+0660099GF102991999999999999999999MW1001REMAWY009SAWR  VL?
0077712610999991990083016004+43767-081717SAO  +0213WGD  V02099999999999999999N9999999N9+99999+99999999999ADDAG10999REMAWY039180/21/13/3408+11/-/ 5010 STN PRES 931?EQDQ01+000002VOVAR 
0065560040999991990102203004+34217+092433FM-12+453599999V0202701N00801220001CN0300001N9-00471-01871999999ADDAG12000GF100991001001999999001001MA1999999058931MD1210141+9999
028891413040308199008311100E+09483+138083SAO  +001399999V0202705N005250045759N006400599+02395+02285100885ADDAA101000095GA1999+004575095GA2999+033535045GD13065+9999999GD24085+9999999GF108085999999999999999999MA1999999100695MW1805EQDN01 02300JPWTH 0QNNE11 0 00407E11 0 00610G11 0 00015H11 0 18015H11 0 21110K11 0 00073L11 0 00400M11 0 29735N11 0 02300Q11 0 10088S11 0 00075V11 0 01010X11 0 27010
0050215350999991990083015004+74500+140000FM-12+001699999V0203601N007019999999N0250001N9+00031-00111101821ADDAG12000GF107991071999999999051999MD1210031+9999
0108586260999991990041206004+28450+117967FM-12+009099999V0202501N00201012001CN0250001N9+01561+01111101541ADDAA106000591AG10014AY161061GF108991071051012501071999KA1240N+01311MD1710041+9999MW1001REMSYN011333   20131
0072931840999991990041512004-37650+176183FM-12+001199999V0202501N00621220001CN0500001N9+01761+01701102011ADDAG10999AY101061AY201061GF100991001001999999001001MD1710021+9999MW1021
0188200340999991990082418004+80817+047417FM-12+001899999V0203401N00501001501CN0039001N9-00101-00141101251ADDAA199000591AG10000AY171061AY221061GA1081+001509079GF108991081061001501999999KA1120M+99999MA1999999101041MD1710111+9999MW1101REMSYN017333   11020 88705EQDQ01+999990APOSP Q02 -00202ATMX  
0115510530999991990031406004+48050+086350FM-12+053499999V0200901N00301220001CN0300001N9+00231-00581103331ADDAA106000091AG14000GF101991011001999999031021KA1240N-00411MA1999999096681MD1710031+0501REMSYN017333   00504 21041
0128284810999991990073018004+56817+070617FM-12+007099999V0201001N00201220001CN0100001N9+01351+01271100511ADDAA199002091AG10000GF100991001001999999001001KA1120M+01801MA1999999099581MD1710031+9999REMSYN011333   10180EQDQ01+999990APOSP 
0098943740999991990061805004-23383+150467FM-12+0014ABRK V0202001N00621220001CN0400001N9+02121+00921101331ADDAA106000091AG10999AY101999AY201999GF102991021011012501001001MA1999999101161MD1610051+9999MW1021
0083475840999991990031906004+39700+141167FM-12+015799999V0202601N006219999999N0350001N9+00921-00341101331ADDAG12000GF107991051021999999031011KA1150M+00981MD1810101+9999REMSYN011555   00098
0104074970999991990012321004+45617+006767FM-12+086899999V0209991C000019999999N9999999N9+00261-00931999999ADDAA106000091AG14000GJ100009MA1999999091831MD1710161+9999ME1314899OA149900211REMSYN017333   91104 94000
0148070700999991990112315004+49300+004033SY-MT+0099LFSR V0202301N00311002101CN0050001N1+00301+00231100781ADDAA106000091AG14000GA1081+002109079GF108991081061002501999999MA1100711999999MD1610221+9999OA149900511REMSYN017333   88707 91110EQDQ01+000000PRSWM2
0114039520999991990081117004+51800-008250FM-12+004199999V0202301N00931024001CN0300001N9+01821+01341101521ADDAG12999GA1011+006609089GA2061+024009039GF107991011081008001071999MD1810111+9999REMSYN023333   81822 86358 92438
0052035953999991990043019004+52083-001400FM-15+0029EGVG V0200601N00411220001CN0090001N9+01301+01101999999ADDGA1011+060009009MA1103051999999MW1051REMMET003BLU
0095511330999991990072417004+46733+083000FM-12+053599999V0203401N00201220001CN0300001N9+01741+01401100911ADDAA106000091AG14999GF101991999999999999999999KA1240M+02691MA1999999094761REMSYN011333   10269
0072722927999991990112514004+33133-117283SAO  +0100CRQ  V0209991C000012200019N0480001N1+99999+99999999999ADDAG10999GF100991999999999999999999MA1101691999999MW1001REMAWY006FIRST?
0063010250999991990122508204+69683+018917FM-15+0010ENTC V0202101N00211006901CN0112001N1+00301+00201999999ADDAG12999GA1011+003609079GA2051+006909059MA1099701999999MW1601
0274722906931121990022012003+32700-117200SAO  +0015NZY  V0201005N000552200059N0112005N1+00565-00115102525ADDAA106000091AG10000GD12045+0750099GF104995999001999999001991KA1999N+00561MA1102541102395MD1510051+9999MW1001REMAWY012505 1001 42?EQDN01 00000JPWTH 0QNNE41 0 00205G41U0 99999K41 0 00030L41 0 00700C41 0 30280M41D0 30235N41 0 00000Q41 0 10252S41 0 00042V41 0 00599X41 0 10001
0122717350999991990032120004+47700-079850SAO  +0243YXR  V0200401N002610300019N0240001N1+00001-00801102171ADDAG10999GD12991+0090099GD23991+0300099GF107991999999999999999999MA1102001099101MW1001REMAWY007CU1AC9?EQDQ01+999990APOSP 
0109780610999991990121318004+26700-078967FM-12+0004MYGW V0200301N00101220001CN0220001N9+02281+01801102111ADDAA106000091AG14000GA1021+060009009GF102991001001999999001011MD1999999-0121REMSYN023333   59012 82070 90801
0108063500999991990071002004+51567+004933FM-12+0013EHGR V0202401N00411027001CN0140001N9+01211+01051101531ADDAG12999GA1011+018009059GA2071+027009039GF107991011051017501071001MD1510001+9999REMSYN017333   81656 87359
0119036830999991990111912004+51883+000233FM-12+0106EGSS V0202201N00511030001CN0500001N9+00721+00341100771ADDAA106000091AG14000GA1031+012009059GA2071+030009039GF107991031051012501071999MD1710141+9999REMSYN017333   83640 87360
0071578030999991990040809004+26700+105767FM-12+167699999V0201801N00601007501CN0070001N9+01451+01051101151ADDAG12000GF108991081051008001999999MA1999999087181MD1710331+9999MW1601
0076010460999991990011418004+69783+020967FM-15+0006ENSR V0201401N00821060001CN0112001N1-01101-01701999999ADDAG12000GA1021+021009039GA2061+060009009MA1100201999999EQDQ01+000000PRSWM2
0078999999999991990121306004-28900+002200FM-13+9999ELFQ V0200901N004119999999N0200001N9+01801+01501102101ADDAG10999GF107991071021999999001001MD1410001+9999SA1+2009REMSYN01122264 00200
0150286150999991990012418004+55183+053800FM-12+010699999V0209991C00001030001CN0045001N9-01121-01181102371ADDAA199001091AG10001AY171061AY221061GF108991081001999999021999KA1120M-00781MA1999999100711MD1210031+9999MW1711REMSYN011333   11078EQDQ01+999990APOSP 
0121716030999991990013120004+43833-066083SAO  +0043YQI  V0203201N005112200019N0240001N1-00201-00701102531ADDAG10999GD12991+0060099GD22991+0750093GF102991999999999999999999MA1102511102001MW1001REMAWY006CF1CI?EQDQ01+999990APOSP 
0076064785999991990042319254+50633+005450FM-15+0201EBLG V0200401N00261220001CN0045001N1+01001+00601999999ADDAG12999GA1011+009009099GA2031+013509059MA1101021999999MW1051REMMET004GRN?
0074471580999991990032513004+35117+126817FM-15+0013RKJJ V0209991C000010360019N0112001N1+01001+00401999999ADDAG12999GA1061+036009049MA1102371999999MW1001REMMET018CIG120/1!!1024PT0?
0087725247999991990120704004+41567-081483SAO  +0268CGF  V0202401N00261006001EN0160001N1+00281+99999999999ADDAG10999GD13991+0060099GD24991+0105099GF108991999999999999999999MA1101801999999MW1001
0108064320999991990010119004+50567+003833FM-12+0063EBCV V0201401N00211001201CN0032001N9+00011-00081101911ADDAG12999AY121011AY221011GA1071+001209079GF108991071061001501999999MD1210031+9999MW1101REMSYN011333   87704
0072307570999991990061009004+52117+112667FM-12+096899999V0202301N00501007501CN0500001N9+01251+00201100411ADDAG12004AY191031AY281031GF107991071091008001001001MD1310021+9999MW1251
0078724697999991990052514004+40583-105083SAO  +1525FCL  V0201801N006212200019N0800001N1+01221-00161999999ADDAG10999GF100991999999999999999999MW1001REMAWY027FEW AC E AND DSNT S  NOSPL?
0097605600999991990010406004+32767-000600FM-12+105899999V0203601N00721012001CN0100001N9+00331-00161999999ADDAA124012091AG10000GF106991061081008001001001MA1999999089081MD1410001+9999ME1314119REMSYN003333
0072722520129201990121721004+27533-099467SAO  +0156LRD  V0201401N00621075001EN0192001N1+02781+01611999999ADDAG10000GD13991+0750099GF107991999999999999999999MA1100411999999MW1001
0076080850999991990060808004+42767-001633FM-15+0459LEPP V0203501N00411007501CN0112001N1+01501+01301999999ADDAG12999GA1021+004509079GA2081+007509089MA1101491999999EQDQ01+000000PRSWM2
0105711040999991990021808004+52183-122050SAO  +0940YWL  V0209991C000012200019N0240001N1-01901-02401102731ADDAG10999GD12991+0480099GF102991999999999999999999MA1101801090961MW1001REMAWY005AC2 ?EQDQ01+999990APOSP 
0113336580999991990042200004+48267+025967FM-12+024099999V0201101N00401036001CN0100001N9+00851+00701101341ADDAG12000GA1031+009009059GF108991031051008001071999MA1999999098381MD1710171+9999REMSYN023333   83630 555   1/008
0031471530999991990011520004+35183+128933FM-15+0015RKPK V0203301N00411220001CN0098001N1-00101-00601101941ADDAG12999MA1101901999999MW1101
0024033920999991990033106004+53083+000267FM-12+000599999V0202301N001519999999N9999999N9+00471+00401103691ADDAG12000MD1210021+9999
0116703810253091990120422344+58367-134583SAOSP+0007JNU  V0200901N008810150019N0064001N1+99999+99999999999ADDAG10999GD12991+0090099GD24991+0150099GF108991999999999999999999MA1099361999999MW1851REMAWY020CONDS LWR SW-W SB19?
0050477460999991990052321004+35483+134233FM-12+001599999V0201201N00261090001CN0350001N9+00991+00771101671ADDAG12000GF107991001001999999001021MD1810021+9999
0204723723231841990111401003+34650-112433SAO  +1531PRC  V0201705N003652200059N0640005N1+01565-00565101955ADDAG10999GF100005999999999999999999MA1102171084865MW1001REMAWY006CI W-NEQDN01 00000JPWTH 0QNNE81 0 00099G21U0 99999K21 0 00022L21 0 04000M11 0 25060N21 0 00000Q21 0 10195S21 0 00060V11 0 00000X21 0 17007
0076994120999991990090401004+38950-123733FM-12+0017PTAC V0200101N003619999999N9999999N9+01641+99999101521ADDAA106000091AG14999OA139900461REMSYN035333   91209 555   11007 22008 90125
0029724518999991990080820004+38850-099267SAO  +0609HYS  V02099999999999999999N9999999N9+99999+99999999999ADDAG10999EQDQ01+000002VOVAR 
0036153870999991990020508004+44900+029433FM-12+000199999V0209999999999036001CN9999999N9+00521+99999999999ADDAG12999GF199999061001999999071001
0116476720999991990080112004+34983+139867FM-12+000799999V0201301N00051220001CN0080001N9+02361+02241100831ADDAA199999929AG10000AY101061AY201061GF100991001001999999001001KA1120M+03001MD1110101+9999MW1101REMSYN011333   10300
0076684240999991990011613004-28400+021267FM-15+0800FAUP V0203601N00361220001CN0112001N1+03501+01501999999ADDAG10999GA1031+002109089MA1101291091641EQDQ01+999990APOSP Q02+000000PRSWM2
0016719490999991990112309004+62233-133350SAO  +0717WUM  V0209991C000019999999N0144001N1-03601-04001999999ADDAG10000MW1001
0170227620999991990042903004+62867+042717FM-12+002499999V0209991V00101000151CN0001001N9+00181+00101100711ADDAA106000091AA224999929AG14000AY141031AY241031GA1091+999999999GF109991091999999999999999MA1999999100271MD1710011+9999MW1451REMSYN017555   20008 79901EQDQ01+999990APOSP 
0078071900999991990101608304+48550+007633FM-15+0154LFST V0209991C00001030001CN0025001N1+01601+01601999999ADDAG12000GA1021+018009059GA2071+030009039MA1101691999999MW1101REMMET006NOSIG?
025872524014820199009011300C+41417-081867SAO  +0235CLE  V0202105N003152200059N0160005N1+02115+01615102195ADDAA101000095AG10999GA1999+036585035GD12025+0360099GF102025999999999999999999MA1102201099295MW1001EQDQ01+999990APOSP N01 00000JPWTH 0QNNE81 0 00203G21U0 99999H11 0 23120K21 0 00061L21 0 01000M11 0 29320N21 0 00000Q21 0 10219S21 0 00070V11 0 00303X21 0 21006
0094605600999991990111809004+32767-000600FM-12+105899999V0202301N00311220001CN0200001N9+00961+00501999999ADDAG12000GF100991001001999999001001MA1999999090571MD1310071+9999ME1315839REMSYN011333   95900
0093467720999991990060104104+22417+120550FM-16+0020RCFS V0202001N005710063019N0112001N1+99999+99999999999ADDAG12999GA1031+004209089GA2051+006309089GA3071+018009059REMMET007CIG021?EQDQ01+000000PRSWM2
0065994230999991990022219004+32683-079883FM-12+0003FBIS V0202001N006219999999N9999999N9+01831+99999101701ADDAG12999OA139900671REMSYN035333   91213 555   11011 22012 91900
0084306640999991990042706004+53567+115567FM-12+081299999V0203501N00701220001CN0500001N9+00291-01321101491ADDAG12000GF100991001001999999001001MA1999999091881MD1710141+9999EQDQ01+999990APOSP 
0086725145999991990052114004+41700-074800SAO  +0428MSV  V0200901N00311001201EN0064001N1+00561+00501999999ADDAG10999GD14991+0012099GF108991999999999999999999MA1101021999999MW1451MW2511OC100881
006872561024030199002070500D+41100-102983SAO  +1312SNY  V0202301N003619999999N9999999N9+00111-00711999999ADDAA101000095AG10999MA1101121999999REMAWY004000?EQDQ01+000002VOVAR 
009872508714752199007282100D+41733-072650SAO  +0006HFD  V0201101N004112200019N0240001N1+02891+01831999999ADDAA101000095AG10000GD12991+0135099GD22991+0600099GF102991999999999999999999MA1102101999999MW1001
0065369110999991990081621004+42833+075283FM-12+081899999V0201001N00201220001CN9999999N9+01831+00771101511ADDAG12000GF100991001001999999001001MA1999999091921MD1810081+9999
0122717020999991990031920004+46433-063833SAO  +0024YSU  V0202601N010312200019N0240001N1+00601-00601101961ADDAG10999GD12991+0150099GF102991999999999999999999MA1101931101651MW1001OC101341REMAWY014SC1 CF ASOCTD?EQDQ01+999990APOSP 
0079478510999991990101211004+31800+130717FM-15+0275RJFK V0201001N00311024001CN0112001N1+02001+01801999999ADDAG12999GA1011+006009089GA2061+024009039GA3081+030009049MA1101591999999MW1211
0058788620999991990122508004+17117-061783FM-15+0014TAPA V0209991C00001999991CY0099001N1+01901+01801101461ADDAG12999MA1101391101221REMMET005CAVOKEQDQ01+000000PRSWM2
0159062750999991990102711004+52067+005883FM-12+0052EHDL V0201801N00821006001CN0080001N9+00961+00751100041ADDAG12999AY161021AY221021GA1021+003009079GA2081+006009059GF108991081051004501999999MD1610051+9999MW1601OA149901441REMSYN035333   82710 88620 91128 555   53062
0061985480999991990082312004+11783+124883FM-12+000599999V0202701N00201105001CN0150001N9+02951+02491100781ADDAA106000091AG14000GF108991031021004501001071MD1310121+9999
0106725810241931990051809004+40733-114033SAO  +1292ENV  V0201801N004112200019N0128001N1+01721-00321999999ADDAA199000091AG10000GF100991999999999999999999MA1100711999999MD1010001+9999MW1001REMAWY015PK WND 10 000 ?
0050173000999991990020409004+36700+030733FM-12+0057LTAI V0200201N00411220001CN0200001N9+01201-00481102391ADDAG12000GF100991001001999999001001MD1310031+9999
0103837800999991990062715004-23617-046650SY-MT+0803SBSP V0200801N00311220001CN0080001N1+01401+01161102181ADDAG10999AY111031AY211031GA1021+006009089GF102991021011008001001001MA1102301093031MD1810081+9999MW1051
0075854060999991990093014004-18350-070333FM-15+0055SCAR V0202101N00311009001CN0112001N1+01701+01201999999ADDAG10999GA1081+009009059MA1101591999999REMMET006HR 74?EQDQ01+000000PRSWM2
0095679710999991990042406004-20317+030067FM-12+098099999V0202801N00151220001CN0600001N9+01771+01571999999ADDAA106000091AG10999GF100991001001999999001001KA1120N+01281MA1999999100001REMSYN011333   20128
0084309490999991990041821004+49567+111967FM-12+090899999V0203301N00201036001CN0500001N9+00221-00531100471ADDAG12000GF107991031051012501051001MA1999999089871MD1410001+9999EQDQ01+999990APOSP 
0137310830999991990052306004+59967+144750FM-12+012199999V0200201N00501012001CN0200001N9+01251+00591099501ADDAG12001AY121061AY221061GF107991071091012501001001MA1999999098071MD1610141+9999MW1801OA140101301REMSYN011333   91013EQDQ01+999990APOSP 
0101105010999991990010101004+50783+006100FM-12+020599999V0201501N00051001801CN0120001N9+00001-00161102011ADDAG12999GA1081+001809079GF108991081051001501999999MA1999999099441MD1610021+9999REMSYN011333   88706
0092084190999991990040708304+37183-003783FM-15+0570LEGR V0209991C00001220001CN0112001N1+00701+00501999999ADDAG12000GA1011+007509059GA2031+060009009MA1101081094581EQDQ01+999990APOSP Q02+000000PRSWM2
0048067820999991990121007004+46700+008850FM-12+118099999V0209991C000019999999N9999999N9-00301-00521999999ADDAG12999MA1999999085431MD1710041+9999ME1312209
0102351630999991990110200004+51600+067567FM-12+022799999V0200701N00701220001CN9999999N9-00871-01161102161ADDAG12000GF100991001001999999001001MA1999999098661MD1710081+9999OA149901001REMSYN017555   10109 91110
0072722897999991990072016004+35233-120633SAO  +0064SBP  V0202701N003612200019N0240001N1+01721+01331999999ADDAG10999GF100991999999999999999999MA1101291999999MW1001REMAWY006ST NW?
0050312570999991990071615004+54333+127633FM-12+027299999V0200401N00201220001CN0500001N9+01791+01001100561ADDAG12000GF100991001001999999001001MD1210211+9999
0071717255999991990092010214+48200-078833SAOSP+0301YUY  V0203201N00311003001MN0240001N1+99999+99999999999ADDAG10999GD14991+0030099GF108991999999999999999999MW1001REMAWY005SC10?
0098220190999991990041221004+69067+033400FM-12+002099999V0202001N01201030001CN0400001N9+00531-00151100331ADDAG12000GF108991081001999999071999MD1110091+9999OA140101601OA249901601REMSYN017333   91016 91116
0092804260999991990091620004+09350-070617FM-15+0582SVVL V0200201N00211220001CN0112001N1+03001+02401999999ADDAG12999GA1011+007209099GA2041+007209089MA1101081094381EQDQ01+999990APOSP Q02+000000PRSWM2
0123103050999991990051221004+52517+007317FM-12+003899999V0201601N00261009901CN0090001N9+00931+00841100941ADDAG12000GA1021+005409089GA2071+009909059GF107991071081004501999999MA1999999100481MD1110071+9999REMSYN017333   82818 87633
0108085540999991990010908004+37017-007967FM-15+0004LPFR V0200401N00311220001CN0112001N1+00801+00501103051ADDAG12999GA1011+009009089GA2031+090009009MA1103011102951EQDQ01+999990APOSP Q02+999990APOSLPQ03+000000PRSWM2
0036122220999991990090618004+00000+999999FM-12+999999999V02099999999999999999N0100001N9+01321+01191999999ADDAG12000GF107991001999022501999999
0050596630999991990112109004+21867+111967FM-12+002299999V0200201N00401036001CN0300001N9+01951+01381102191ADDAG12000GF107991011011008001031999MD1710111+9999
0130156400999991990101508004+42667+026317FM-12+025799999V0209991C00001036001CN0200001N9+00961+00641103001ADDAA106000091AG14999AY111021AY211021GF107991071001999999051001GJ106069KA1120N+00701MD1410001+9999MW1031REMSYN017333   20070 55101
0085994130999991990103123004+47867-089317FM-12+0183ROAM V0200601N002619999999N9999999N9+00901+99999101771ADDAG12999OA139900361SA1+0729REMSYN047222// 00072 333   91207 555   11004 22005 92300
0058033233999991990071721504+53333-002850FM-15+0026EGGP V0209991C00001999991CY0099001N1+01601+01101999999ADDAG12999MA1102811999999REMMET005CAVOKEQDQ01+000000PRSWM2
0084100370999991990071117504+54467+009517FM-15+0025EDCS V0202601N00771003001CN0112001N1+01601+01201999999ADDAG12000GA1071+003009079MA1102401999999REMMET015GRN FCST CANCELEQDQ01+000000PRSWM2
0057725067999991990081617004+41667-070283SAO  +0016HYA  V0202201N004112200019N0160001N1+02611+01611999999ADDAG10999GF100991999999999999999999MA1101861999999MW1001
0087949650999991990122702004-41050+146800FM-12+003099999V0201401N00261007501CN0200001N9+01151+01111100421ADDAG19057AY161999AY221999GF108991081001008001021999MA1999999100071MD1810481+9999MW1601
0057726074999991990082001004+45450-069550SAO  +04273B1  V0200401N002119999999N9999999N9+01331+00501999999ADDAG10999MA1102401999999REMAWY004000?EQDQ01+000002VOVAR 
0142232190999991990021415004+67083+059383FM-12+008499999V0201801N00401003001CN0034001N9-00301-00401100771ADDAG12002AY171031AY271031GA1081+003009049GF108991081001004501031999MA1999999099711MD1710071+9999MW1731REMSYN011333   88510EQDQ01+999990APOSP 
0266702750264421990031610003+61133-146350SAO  +0007VWS  V02099959000052200059N0240005N1+00005-00335102755ADDAG10999GF100005999999999999999999MA1102741102645MW1001REMAWY052ARPT WND 0304          ?    POTATO PT WND 0316 PK18?EQDQ01+999990APOSP N01 00000JPWTH 0QNNE81 0 00099G21U0 99999K21 0 00026L21 0 01500M11 0 30310N21 0 00000Q21 0 10275S21 0 00032V11 0 00000X21 0 00000
0104992070999991990100704004+38500-070700FM-18+0003DB20 V0202001N004019999999N9999999N9+02221+99999102361ADDAG12999OA159900501SA1+2159UA1I050099999REMSYN05322200 00215 10502 70009 333   91205 555   11046 22052
0100702770999991990072910004+60117-149450SAO  +00185WD  V0202401N00151001501EN0064001N1+01111+01061999999ADDAG10999GD14991+0015099GF108991999999999999999999MA1101761999999MW1451MW2611REMAWY013FALQDS/NOSPL?
0174804190999991990031921004+10117-064683FM-12+0007SVBC V0200701N00501009001CN0200001N9+03131+02231101231ADDAG12000AY121031AY221031GA1031+004809089GA2041+009009029GF107991031081004501001061IA1019MA1101191999999MD1999999+0021MW1051REMSYN040333   30/// 56909 58002 83816 84230 1012
0057718534999991990081014004+50183-096067SAO  +0268WEA  V0203501N003119999999N9999999N9+01301+01001102261ADDAG10999MD1210091+9999REMAWY00542MM?EQDQ01+000002VOVAR 
0057786630999991990021217004+13700-089117FM-15+0621MSSS V0203601N00621999991CY0099001N1+02701+01501999999ADDAG12999REMMET019CAVOK 1017.6 30.05?EQDQ01+000000PRSWM2
0036152450999991990032611004+00000+999999FM-12+008099999V0202901N00301036001CN0100001N9+00901+99999999999ADDAG12999GF108991081001999999071999
0127569690999991990063000004+21500+101583FM-12+063399999V0209991C00001004201CN0300001N9+02351+02311100151ADDAA106999929AA224001091AG10018AY161061GF108991081051004501999999MA1999999093181MD1210121+0001MW1001REMSYN017333   00000 60014
0129945780999991990122903004-27417+153083FM-15+0005ABBN V0200101N00621039001CN0112001N1+02801+02201101141ADDAG10999GA1011+007509089GA2041+018009059GA3051+039009039MA1101081101081MW1051REMMET006NOSIG?EQDQ01+999990APOSP Q02+999990APOSLP
043072507014765199009230200C+41733-071433SAO  +0016PVD  V0200605N004150003059N0016005N1+01725+01725100285ADDAA101013295AG10999ED105U18289GA1999+000005105GA2999+000305135GA3999+008235055GD16025+0001599GD23025+0003099GD34055+0081099GF108085999999999999999999MA1100271100055MW1455MW2635REMAWY056R05RVR60+ F3     ?    SFC VSBY 11/4 R OCNLY R+ PCPN 054?EQDN01 02170JPWTH 0QNNE81 0 00803E81 0 00403E81 0 00606G21 0 00001H11 0 45000H11 0 13001H11 0 22027K21 0 00063L21 0 00100M11 0 29545N21 0 02170Q21 0 10028S21 0 00063V11 0 01010X21 0 06008
0092119340999991990121719004+49067+020250FM-15+0707LKTT V0200801N00411003901CN0112001N1-00501-00601999999ADDAG12999GA1061+003909079GA2081+010209059MA1102511094271EQDQ01+999990APOSP Q02+000000PRSWM2
0047714300999991990071723004+43833-077150SAO  +0079WQP  V02099999999999999999N0064001N1+99999+99999999999ADDAG10999REMAWY028196/22/20/2408/-/     7006 ?
0036151700999991990071622004+46367+025733FM-12+066299999V0209991C00001220001CN0230001N9+00771+99999999999ADDAG12999GF100991001001999999001001
025372389093193199012020400C+36783-119717SAO  +0102FAT  V0203605N001552200059N0040005N1+00785+00395102665ADDAA101000095AG10999GA1999+000005105GD16015+0001599GF101015999999999999999999MA1102641101445MW1055REMAWY002H1EQDN01 08100JPWTH 0QNNE41 0 00801G41U0 99999H41 0 05000K41 0 00039L41 0 00250M41 0 29955N41 0 08100Q41 0 10266S41 0 00046V41 0 00101X41 0 36003
0076070020999991990012621004+50733+001600FM-12+007499999V0202401N01291004201CN0100001N9+00641+00201099681ADDAG12001GF106991051091004501061001MD1810091+9999MW1911REMSYN011333   92457
0106161380999991990062718004+44833+011617FM-12+0010LIPF V0201201N002619999999N9999999N9+02721+99999101491ADDAA106000091AG14000MA1999999101381MD1710081+9999REMSYN047555   12419 20225 30276 41111 51111 61111 7/111
0075509630999991990010100004+45967+128733FM-12+011099999V0202701N00701036001CN0100001N9-01761-01951102761ADDAA106999929AG19001AY171061GF108991081001999999021999MD1210071+9999MW1701
0076154990999991990051821004+43817+028583FM-12+000999999V0203401N00201007501CN0100001N9+01921+01481101371ADDAA106000091AG14000GF108991081091008001999999MA1999999101261MD1210091+9999
0061166750999991990101412004+38900+022400FM-12+014499999V0200901N00511220001CN0120001N9+02161+01331102711ADDAA106000091AG14000GF104991021021008001061011MD1810121+9999
0086712035999991990042706004+49967-119383SAO  +0430YLW  V0201201N002112200019N0320001N1+00301-00401101591ADDAG10000GF100991999999999999999999MA1101491999999MD1010071+9999MW1001REMAWY0060007 ?
0126765255999991990081916004+22900-102683SAO  +2140ZCL  V02099999999990360019N0112001N1+01601+99999999999ADDAG10999GD12991+0150099GD23991+0360099GD33991+2100099GF107991999999999999999999MA1102471999999MW1001REMAWY015250/BMSO/53699?
0159912180999991990102807384+13583+144933SAOSP+0162PGUA V0200501N006710090019N0096001N1+99999+99999999999ADDAG10999GD12991+0045019GD23991+0090019GD33991+0360019GD43991+0900019GF107991999999999999999999MA1101221999999MW1801OC100981REMAWY025TCU        ?     OVHD-NW?
0087725065999991990041712004+41683-070967SAO  +0024EWB  V0201801N003110450019N0048001N1+00721+00611999999ADDAG10000GD12991+0006099GD23991+0450099GF107991999999999999999999MA1101291999999MW1451
0065077610999991990030804234+41917+008800FM-15+0009LFKJ V0200601N00311999991CY0099001N1+00301+00201999999ADDAG12999MA1102811999999REMMET012CAVOK NOSIG?EQDQ01+000000PRSWM2
0044060700999991990080323204+56300+010617FM-15+0025EKAH V0201701N00361220001CN0112001N1+01901+01401999999ADDAG12999MA1102301999999EQDQ01+000000PRSWM2
0110444160999991990121704004+28600+081617FM-12+0720VNSK V0200301N017019999999N9999999N9+99999+99999999999ADDAG12999GF106991999071999999071001KA1120N+00721REMSYN017333   20072 590//EQDQ01+000002SCOTLCQ02+020271APOSP 
