0088103340999991991122404504+52450+009433FM-15+0070EDNW V0202701N00771015001CN0112001N1+00401+00201999999ADDAG11999GA1011+005409089GA2061+015009059MA1101801999999REMMET003BLUEQDQ01+000000PRSWM2
0054727836999991991021708009+47467-115800NSRDB+101199999V020999999999999999999999999999+99999+99999999999ADDGP10060000001000000001000000001000GR100600000900009
0122986440999991991031412004+09600+123850FM-12+0006RPVT V0209991C00001220001CN0300001N9+02681+02371100861ADDAA106000091AG14000AY141061AY241061GF104991021021004501001011KA1240M+03031MD1210291+9999MW1011REMSYN017333   10303 56999
0060872890999991991053001004-29683-057150FM-15+0070SARL V0203601N00571060001CN0112001N1+02401+02001999999ADDAG10999GA1071+060009029MA1101021999999EQDQ01+000000PRSWM2
0201726797241321991102818003+45783-111150SAO  +1364BZN  V0209999C00001036001EN0112001N1-00991-01321102911ADDAA106999929AG10000GD13991+0360019GF107991999999999999999999GP10060026901011012901016021001011GQ100600630915309GR100600628913859KA1999N-01221MA1102171999999MD1210071+9999MW1001REMAWY01420700 10 90406
0108031600999991991081904004+55950-003350FM-12+0041EGPH V0202701N00361030001CN0150001N9+01221+01061101731ADDAG12999GA1011+005409059GA2071+030009039GF107991021051004501071999MD1810111+9999REMSYN017333   81618 87360
0100714100999991991100510004+45850-064267SAO  +0023WAH  V0201201N001019999999N0144001N1+00701+00601102671ADDAG10999MA1999999102381MD1210211+9999MW1001REMAWY0272021       ?    (0000,0000)EQDQ01+999990APOSP 
0060800940999991991081301004+07100-073200FM-15+1189SKBG V0209991C00001220001CN0112001N1+02101+02001999999ADDAG11999GA1011+006009089MA1101691999999EQDQ01+000000PRSWM2
0074061100999991991011614004+55233+009267FM-15+0040EKSP V0201101N00621220001CN0112001N1+00101-00501999999ADDAG12999GA1011+060009009MA1103391999999REMMET005NOSIGEQDQ01+000000PRSWM2
0119992230999991991080713004+45300-082800FM-18+0003DB22 V0203101N002019999999N9999999N9+01881+99999102681ADDAG12999MA1999999100551OA159900301SA1+1879UA1I990009999REMSYN05322200 00187 1//00 70000 333   91203 555   11024 22026
0083477710999991991011305304+34783+135450FM-15+0015RJOO V0202701N00571220001CN0112001N1+00801-00901999999ADDAG12000GA1021+010509089MA1101561999999REMMET014(WIND 230V320)EQDQ01+000000PRSWM2
0142284110999991991111012004+56817+053267FM-12+015899999V0201901N00301002101CN0020001N9+00111+00061102261ADDAG11000AY121061AY221061GA1081+002109079GF108991999061002501091999MA1999999100261MD1210041+9999MW1101REMSYN011333   88707EQDQ01+000082SCOTLC
0228467430999991991051900004+22950+120200SY-MT+0019RCNN V0201801N00721220001CN0110001N1+03031+02461101331ADDAA106000091AG14000GA1031+004209079GF103991031061004501001001KA1120N+02721MA1101321999999MD1210141+9999MW1001OC101031REMSYN063333   20272 555   31820 83714 90522 00000 24000 QNH   2992  INSMET012G0750L ///3/EQDQ01+000000PRSWM2
0106161500999991991041220004+00000+999999FM-12+005499999V0203001N001019999999N9999999N9+01561+99999101721ADDAA106000091AG14999MA1999999101071MD1210061+9999REMSYN047555   11430 20141 30268 41111 51111 61111 7/111
0075859340999991991021608004-53000-070850FM-15+0037SCCI V0209999999999220001CN0112001N1+00501+00401999999ADDAG10999GA1011+006009059MA1101591999999REMMET0061AC080EQDQ01+000000PRSWM2
0144477890999991991080421004+34367+132417FM-15+0006RJOA V0200301N00151012001CN0112001N1+02301+02101999999ADDAG12000GA1011+004509079GA2031+009009089GA3071+012009059MA1100441999999REMMET043FCST 2103 03006KT 9999 1ST015 5CU030 7SC040EQDQ01+000000PRSWM2
0087442410999991991090609004+48917+106067FM-12+080799999V0209991C00001036001CN0500001N9+01621+00811100621ADDAG12004AY191031AY221031GF106991031031008001041031MA1999999091471MD1210131+9999MW1021
0119999999999991991121518004+44000-058700FM-13+9999DHES V0202501N021619999999N0100001N9+00581-00231099291ADDAG12000AY121061AY221061GF106991051091999999999999MD1310181+9999MW1151SA1+0669UA1M090509999REMSYN01722253 00066 20910
0096430410999991991011300004+19083+082033FM-12+055399999V0209991C00001220001CN0100001N9+01601+01431101471ADDAA106000091AG14000GF100991001001999999001001MA1999999095141MD1999999-0021REMSYN011333   59002
0187742070242011991010206003+47083-122583SAO  +0092GRF  V0209999C000012200019N0112001N1+00391+00281102781ADDAA106000391AG10000GD12991+0096019GD23991+0180013GF107991999051999999071001GP10060000001000000001000000001000GR100600000900009MA1102741999999MD1310021+9999MW1001REMAWY01530201 1570 WR//
0054724955999991991012009009+38217-122283NSRDB+001099999V020999999999999999999999999999+99999+99999999999ADDGP10060000001000000001000000001000GR100600000900009
0083681040999991991110118004-22883+014433FM-12+000099999V0201801N00261220001CN0180001N9+01401+01301101541ADDAG10999GF101991011051002501001001KA1120M+01601MD1310121+9999REMSYN011333   10160
0186724125999991991030708003+37300-081200SAO  +0871BLF  V0203101N003610099019N0112001N1+00501+00171100171ADDAG10999GD12991+0057019GD23991+0099019GD33991+0180019GF107991999999999999999999GM1006000000190000019000001999999GP10060000001000000001000000001000GR100600000900009MA1100201999999MW1001
0121999999999991991041418004+48600-017500FM-13+9999ZBWE V0200501N00871004201CN0200001N9+01151+00631102911ADDAG12000GF108991081061004501001001MD1710141+9999SA1+1169UA1M040109999UG1070250609REMSYN02922223 00116 20402 306// 40705
0103873440999991991082410004-31317-064217SY-MT+0474SACO V0200201N002619999999N0001001N1+01031+01021101991ADDAG10999AY141011AY241011GA1091+220009999GF109991091999999999999999MA1102201999999MD1610071+9999MW1451
0047104360999991991030611504+51400+009383FM-15+0285EDVK V0201501N00411018001CN0050001N1+00801+00401999999ADDAG12000GA1061+018009059MA1100411999999MW1051
0037702648999991991051606009+63400-148950NSRDB+066899999V020999999999999999999999999999+99999+99999999999ADDGQ100600832930009GR100600158913379
0076071970999991991051505004+47917+007400FM-15+0217LFSC V0203501N00511015001CN0112001N1+00801+00501999999ADDAG12999GA1051+015009059GA2051+027009039MA1102401999999EQDQ01+000000PRSWM2
0133063300999991991032209004+51983+004100FM-12+001399999V0203301N00261220001CN0350001N9+00691+00661100681ADDAG12000GF101991011011004501041011MD1210101+9999OA140100311OA249900511OA359900461REMSYN041333   91006 91110 91209 555   51106 51205
0131715380999991991021020004+42267-082967SAO  +0190YQG  V0202901N009312200019N0240001N1+00201-01201101191ADDAG10999GD12991+0135099GD23991+0810093GF107991999999999999999999MA1101121098871MW1001OC101181REMAWY008SC1CI1 ?EQDQ01+999990APOSP 
0063162890999991991062720504+40850+014300FM-15+0072LIRN V0202101N00101220001CN0070001N1+02301+02101999999ADDAG12000GA1011+008409089GA2021+024009039MA1101081999999MW1101
0081084310999991991080612004+37583-001000FM-12+021799999V0200501N00621220001CN0180001N9+02861+02231101551ADDAA106000091AG14000GF100991001001999999001001MD1410001+9999REMSYN011333   92427
0075477870999991991063023044+34050+131050FM-16+0007RJOZ V0201001N00311004501CN0050001N1+99999+99999999999ADDAG12999GA1021+001509079GA2061+004509089GA3081+009009089MW1801REMMET002BR
0103994040999991991111213004+33483-077583FM-12+0000FPSN V0200201N005719999999N9999999N9+01251+99999102191ADDAA106000091AG14999OA139900671SA1+2009REMSYN054222// 00200 333   91213 555   11010 22010 31237 401018
0097999999999991991030118004+02800+128500FM-13+9999UVEE V0200401N00601000601CN0100001N9+99999+99999101621ADDAG12004GF108991081051000751999999MD1410001+9999SA1+2809UA1M070209999REMSYN01722263 00280 20704
0094310670999991991013109004+58650+137217FM-12+045799999V0209991C00001220001CN9999999N9-02561-03031103041ADDAA106000091AG14000GF100991001001999999001001KA1120M-02321MD1310021+9999REMSYN011333   11232
0076012170999991991102117504+62750+007267FM-15+0003ENML V0203001N00311015001CN0112001N1+00601+00301999999ADDAG12000GA1021+007509089GA2051+015009089MA1102001999999EQDQ01+000000PRSWM2
0060413440999991991071920004+15517+044183FM-15+2190OYSN V0202401N00311220001CN0112001N1+02201+01201999999ADDAG12999GA1031+009009059MA1102301999999EQDQ01+000000PRSWM2
0058718743999991991112302004+49133-112050SAO  +1050WRY  V0203101N002619999999N9999999N9-01001-01201103861ADDAG11999MD1210071+9999REMAWY0062007 ?EQDQ01+000002VOVAR 
0060081600999991991061515304+41667-001017FM-15+0258LEZG V0201101N00461220001CN0112001N1+03501+01801999999ADDAG12999GA1021+010509089MA1101081999999EQDQ01+000000PRSWM2
0071702675999991991030702009+63033-145500NSRDB+080999999V020999999999999999999999999999+99999+99999999999ADDGP10060004201025000001028004201025GQ100600797923519GR100600249913899
0090162340999991991090212004+42000+012733FM-15+0089LIRG V0202301N00211060001CN0112001N1+02701+01301999999ADDAG11000GA1021+008109089GA2051+060009029REMMET020BKN MON NE LIB NC BLEQDQ01+000000PRSWM2
0076471700999991991121421004+34300+126750FM-12+001299999V0203401N00311220001CN0200001N9+00611+00481103031ADDAA106000091AG14000GF100991001001999999001001MA1999999102881MD1610031+9999
0043476070999991991102601004+36700+137200FM-12+001799999V0200201N002119999999N9999999N9+01861+01291102291ADDAG12999MD1710011+9999EQDQ01+000002APC3  
0106442410999991991030703004+48917+106067FM-12+080799999V0209991C00001007501CN0040001N9-00891-01131103291ADDAG12001AY171031AY271031GF108991999071008001021999MA1999999093111MD1210021+9999MW1711EQDQ01+000082SCOTLC
0234783970999991991070112004+17933-076783SY-MT+0009MKJP V0209991C00001060001CN0100001N1+02841+02391101431ADDAA106000091AG14000AY111061AY211061GA1021+006609099GA2051+060009009GF107991031091008001061031KA1240M+03371KA2120N+02641MA1101391101271MD1999999+0031MW1051REMSYN041333   06999 10337 20264 58003 82922 85070MET022HZ ALL QUADS, CB E-SSE
0086712603999991991072207004+46483-084517SAO  +0192YAM  V0209991C00001081001EN0160001N1+01301+01301101741ADDAG10999GD14991+0810099GF108991999999999999999999MA1101731999999MW1001REMAWY005CI8 ?
0099994450999991991041721004+24633-081117FM-12+0000SMKF V0201501N002619999999N9999999N9+02771+99999101381ADDAG12000MD1610221+9999OA139900311SA1+2649REMSYN047222// 00264 333   91206 555   11003 22004 92100
0058081600999991991072416004+41667-001017FM-15+0258LEZG V0203001N00981999991CY0099001N1+02801+01601999999ADDAG12999MA1101491999999REMMET005CAVOKEQDQ01+000000PRSWM2
0108037780999991991102719004+51517-000117FM-12+0023EGRB V0200701N00361006001CN0050001N9+01001+00771101151ADDAG12999AY121011AY221011GA1071+006009059GF107991071051008001999999MD1110061+9999MW1051REMSYN011333   87620
0190071390999991991072412004+48450+000117SY-MT+0141LFOF V0202601N00721006301CN0200001N1+01871+01201101171ADDAA103999929AA206999929AG10000AY121061AY221061GA1051+006309089GA2061+015009059GF107991071081008001999999MA1101191999999MD1510001+9999MW1251OA149901291REMSYN029333   69907 85821 86650 91125
0074151500999991991082202004+46583+026983FM-15+0190LRBC V0209999999999030001CN0112001N1+01501+01401999999ADDAG11999GA1071+030009039MA1101691999999REMMET005NOSCGEQDQ01+000000PRSWM2
0142111260999991991021009004+47217+011467FM-12+224799999V0201501N01031000151CN0000001N9-00741-00771999999ADDAG12002AY171031AY271031GA1091+000159999GF109991091999999999999999MD1310011+9999MW1731OA149901541OA259901241REMSYN023333   89/00 91130 91224
0038999999999991991062003514+21333-173350FM-18+9999DRIB V02099999999999999999N9999999N9+99999+99999999999ADDAG10999SA1+2659REMSYN011333   51811
0048095740999991991042720004+00000+999999FM-12+999999999V0200601N002019999999N9999999N9+00401+00371999999ADDAG12999MA1999999090931MD1210071+9999ME1314459
0152310160999991991031400004+58667+128500FM-12+013099999V0203201N00201220001CN0500001N9-03051-03271103401ADDAA106000091AA224000091AG14000AJ100469199999999GF100991001001999999001001IA1249KA1120N-03441MD1810071+9999REMSYN035333   21344 555   1/145 48046 7000/
0083080270999991991011212004+43300-002050FM-12+025999999V0201701N00051036001CN0090001N9+00541+00451102921ADDAA106005091AG10001AY161061AY261061GF108991031071004501071999MD1010071+9999MW1601
0108020600999991991040900004+68683+021533FM-12+040399999V0202001N00261999999CN0350001N9+00051-00121100741ADDAG12000GA1031+008009059GA2041+999999029GF106991031051008001041081MD1510021+9999REMSYN017333   83695 84299
0054702740999991991122714009+61600-149083NSRDB+007199999V020999999999999999999999999999+99999+99999999999ADDGP10060000001000000001000000001000GR100600000900009
0044125660999991991070922304+50083+019800FM-15+0237EPKK V0202101N00101220001CN0112001N1+02101+01701999999ADDAG12999MA1102001999999EQDQ01+000000PRSWM2
0064167420999991991061317504+36783+027067FM-15+0129LGKO V0203201N00511999991CY0099001N1+02301+01801999999ADDAG12000MA1100811999999REMMET011CAVOK NOSIGEQDQ01+000000PRSWM2
0140723754999991991070614003+34517-109383SAO  +1747SJN  V0202101N000512200019N0800001N1+01941+00611999999ADDAG10999GD12991+0360019GF102991999999999999999999GP10060019301024052301027006401024GQ100600758907199GR100600325913219MA1102171999999MW1001
0134723830231871991120308003+34750-118733SAO  +1379SDB  V0200601N007212200019N0128001N1+00781-01161999999ADDAG12999GF100991999999999999999999GP10060000001000000001000000001000GR100600000900009MA1102171999999MW1001REMAWY017PK WND 19 000 L ?
0140725524999991991062920003+41617-098950SAO  +0631ODX  V0201801N009312200019N0320001N1+03391+02001999999ADDAG10999GD12991+0600019GF102991999999999999999999GP10060088001024074101027019101024GQ100600215921329GR100601229913229MA1101051999999MW1001
0076153100999991991062509004+45500+028017FM-12+007299999V0203201N00301220001CN0100001N9+02541+01651101181ADDAA106000091AG14000GF103991021021008001031001MA1999999100351MD1010001+9999
0105476810999991991032500504+34750+137700FM-16+0048RJNH V0201801N00411001201CN0032001N1+99999+99999999999ADDAG11007GA1021+000609079GA2061+001209089GA3071+002409089MW1801REMMET032BR. ST2 SCT OVR        ?     FLD
0055782684999991991070416004+20650-074917FM-15+0005MUMO V0200901N00721220001CN0080001N1+03001+02401999999ADDAG12999GA1041+005409089MA1101591999999MW1061OC101341
0193723235138961991020700003+34750-087617SAO  +0168MSL  V0202801N00411006001EN0112001N1+01331+00941101931ADDAA106000091AG10000GD14991+0060019GF108991999999999999999999GP10060000201011000001016000201011GQ100600880924979GR100600019905289KA1999M+01721MA1101961999999MD1110151+9999MW1001REMAWY006115 63
0342745060232391991121217003+37733-122317SAO  +0005NGZ  V0203305N004152200059N0022005N1+00675+00565102231ADDAG12999GD16991+0001519GF101995999999999999999999GP10060012601025032401028006301025GQ100600787913149GR100600277914119MA1102241102185MW1455REMAWY002F3EQDN01 00801KCLC1 3N02 30190EALTP 3N03 07000JPWTH 0N04 10223ISLVP 3QNNE41 3 00801G41U0 99999K41 0 00042L41 0 00138C41 3 30190M41D0 30175N41 0 07000Q41 3 10223S41 0 00044V41 0 00199X41 0 33008
0059994090999991991120707004+48217-088367FM-12+0195PILM V0203101N007219999999N9999999N9-00331+99999099521ADDAG12999OA139900821REMSYN029333   91216 555   11014 22015
0063802590999991991081120004+03550-076383FM-15+0969SKCL V0209991C00001060001CN0112001N1+03001+01801999999ADDAG12999GA1031+008109089GA2061+060009009MA1101191999999MW1051
0146331350999991991061503004+51483+031283FM-12+013799999V0203001N00401004801CN0100001N9+01311+01141101331ADDAA112001091AA224001091AG10000GA1051+004809059GF105991051051004501001001GJ106609MD1210211+9999REMSYN041333   55110 85616 555   20131 60012 7001/
0161600300999991991101318004+27933-015383SY-MT+0025GCLP V0203601N00871220001CN0500001N1+02221+01391101691ADDAA106000091AG14000GA1021+006909059GF102991021051008001001001KA1120M+02601MA1101591999999MD1310041+9999REMSYN017333   10260 91828MET005NOSIGEQDQ01+000000PRSWM2
0442725570149431991022121003+42400-096383SAO  +0334SUX  V0203205N006752200059N0320005N1+01395+00445101845ADDAA101000095AG10000GA1999+039625035GA2999+076205005GD13999+0750013GD20055+9999999GF105015999001999999071991GP10060049701010079001016008701010GQ100600587921239GR100600725913989MA1101761097785MD1310031+9999MW1001REMAWY008303 1071EQDQ01+999990APOSP Q02  00003PRCP99N01 00000JPWTH 0P01    003SCCGD1QNNE41 0 00300E41 0 00006G41U0 99999H41 0 23130H41 0 32250K41 0 00040L41 0 02000M41 0 28875N41 0 00000Q41 0 10184S41 0 00057V41 0 00601X41 0 32013
0021948760999991991011317004-35717+145617FM-12+011099999V02099999999999999999N9999999N9+01821+01321999999ADDAA106000091AG10999
0061507880999991991062512004+47233+131983FM-12+006599999V0202001N00201220001CN0200001N9+02431+01781100781ADDAA106000091AG14000GF100991001001999999001001MD1210021+9999
0170404300999991991101903004+24550+039700SY-MT+0631OEMA V0201201N00211220001CN0100001N1+02601+00901101021ADDAG12000GA1021+030009039GF102991021001999999031001MA1101461094111MD1999999-0111MW1001REMSYN017333   59011 82360MET016CAVOK YXPO QPQTVEQDQ01+999990APOA  Q02+000000PRSWM2
0154200260999991991101803004+80167+036750FM-12+000999999V0200101N00801220001CN0200001N9-02681-02861101141ADDAA124000291AA299000391AG19000AY131031AY201031GF100991001001999999001001MA1999999101011MD1210021+9999MW1361REMSYN017555   21273 7992/EQDQ01+999990APOSP 
0086030630999991991062005004+57200-003833FM-12+022099999V0209991C00001220001CN0450001N9+00701+00631100891ADDAG12999GA1011+002109079GF103991011081002501071021MD1610041+9999REMSYN011333   81707
0036153000999991991020514004+45633+025583FM-12+053899999V0200901N00801007501CN0100001N9-00491+99999999999ADDAG12999GF107991051021008001041001
0092783970999991991120302004+17933-076783FM-15+0009MKJP V0201401N01131220001CN0112001N1+02801+02201101541ADDAG11999GA1011+007509089MA1101491101381EQDQ01+999990APOSP Q02+999990APOSLPQ03+000000PRSWM2
0140725287047241991010207003+43100-078950SAO  +0180IAG  V0202401N006712200019N0320001N1+00221-00431102291ADDAG10999GD12991+0300019GF102991999999999999999999GP10060000001000000001000000001000GR100600000900009MA1102241999999MW1001REMAWY008IRLSR08?
0127727676240131991053103064+48267-101283SAOSP+0523MOT  V0202101N00621015001EN0240001N1+99999+99999999999ADDAG10004GD13991+0150019GD23991+0360019GF107991999999999999999999MA1100271999999MW1171MW2611REMAWY025TRW S MVG NE OCNL LTGICCG
0077104000999991991100903504+51283+006783FM-15+0044EDDL V0201001N00261015001CN0030001N1+01201+01101999999ADDAG12999GA1021+013809059GA2061+015009059MA1101021999999MW1101REMMET005NOSIG
0105719400999991991112107004+55183-118883SAO  +0669YQU  V0202701N001512200019N0400001N1-00701-00801101491ADDAG11999GD12991+0840093GF102991999999999999999999MA1101051093301MW1001REMAWY005CI1 ?EQDQ01+999990APOSP 
0051710730999991991062200004+62717-109167FM-12+0164WFL  V0203001N002119999999N9999999N9+01881+00551101851ADDAG12000MA1999999099791MD1710101+9999REMSYN003333
0126170900999991991072515004+39750+037017FM-12+1271LTAR V0201101N00211220001CN0200001N9+02701+01301999999ADDAG12000GF104991041011012501001001KA1120M+99999MA1999999086901MD1710081+9999ME1314729REMSYN011333   10096EQDQ01 +00962ATMX  
0050870780999991991032709004-24700-060583FM-12+0130SATK V0201601N00101220001CN0200001N9+01571+01341101761ADDAG10999GF100991001001999999001001MD1610041+9999
0347699604031451991071414003+32650-114617SAO  +0065NYL  V0201605N004152200059N0112005N1+02945+00945100801ADDAG10999GD12991+0360019GF102995999999999999999999GP10060009701011036301017004201011GQ100600812906979GR100600202913229MA1100811999999MW1001EQDN01 00203KCLC1 3N02 29770EALTP 3N03 29560FPRES 3N04 00000JPWTH 0N05 10080ISLVP 3QNNE41 3 00203G41U0 99999K41 0 00049L41 0 00700C41 3 29770M41 3 29560N41 0 00000Q41 3 10080S41 0 00085V41 0 00399X41 0 16008
0105718060999991991122911004+49917-055667SAO  +0194WAG  V0202701N004112200019N0400001N1-01301-01701100721ADDAG12999GD12991+0060099GF102991999999999999999999MA1100541098261MW1001REMAWY005SC1 ?EQDQ01+999990APOSP 
0116121850999991991090518004+54067+021367FM-12+011099999V0203101N00201004201CN0100001N9+01341+01291100861ADDAA199001091AG10001AY181061AY221061GF107991071051004501999999KA1120M+01781MD1310021+9999MW1251REMSYN011333   10178
0046161250999991991122809004+44083+009983FM-15+0010LIQW V0203201N00411999991CY0099001N1+00101-00401999999ADDAG12000REMMET008CAVOK BLEQDQ01+000000PRSWM2
0074410610999991991111111004+20500+045200FM-15+0617OEWD V0201201N00361999991CY0099001N1+02901+01301999999ADDAG12999MA1101691094461REMMET005CAVOKEQDQ01+999990APOSP Q02+000000PRSWM2
0368723530139671991101612003+35400-097600SY-SA+0392OKC  V0201705N003652200059N0320005N1+00945+00505101765ADDAA101000095AA206000091AG10000GF100005001001999999001991GP10060000001000000001000000001000GR100600000900009KA1240M+02171KA2120N+00891MA1101801097095MD1310031+9999MW1001REMSYN029333   10217 20089 555   91612AWY022303 48 OUN RADAT 31131EQDN01 00000JPWTH 0QNNE41 0 00099G41U0 99999K41 0 00041L41 0 02000M41 0 28670N41 0 00000Q41 0 10176S41 0 00049V41 0 00000X41 0 17007
0144637400999991991011418004-01317+036917FM-12+1624HKNA V0200901N00511220001CN0300001N9+02221+01471999999ADDAA106000091AG10999AY101061AY201061GA1031+007209059GF103991031051008001001001KA1120M+02611MD1999999-0121MW1031REMSYN023333   10261 59012 83624
0090874120999991991012418004-33767-069033FM-12+0940SAMS V0209991C00001220001CN0200001N9+02781+01451999999ADDAA106000091AG10999GF103991031031008001001001MA1999999079192ME1314849EQDQ01+079193APOSP 
0072093850999991991012017304+52383+013517FM-15+0048ETBS V0202201N00511001201CN0012001N1+00001-00101999999ADDAG12000ED199U17989GA1071+001209079MA1103391999999MW1101REMMET005NOSIG
0112727435999991991121716034+46350-087400SAOSP+0372SAW  V0203201N007210075019N0400001N1-01161-01662999999ADDAG11999GD12991+0039099GD23991+0075099GF107991999999999999999999MA1100751999999MW1001OC101081REMAWY008VSBY N1?
0109072170999991991050409004+47317-002167SY-MT+0004LFRZ V0201801N00101003001CN0080001N1+00821+00701101511ADDAG12003AY161031AY221031GA1071+003009079GF108991071071002501999999MW1611REMSYN011333   87710MET009101 NOSIG
0039476060999991991112616004+36783+137050FM-12+001399999V0202001N001519999999N9999999N9+00441+00271102961ADDAG12999MA1999999102801MD1610181+9999
0058837550999991991120700004-22900-043167FM-15+0003SBRJ V0201501N00151999991CY0099001N1+02801+02101999999ADDAG11000MA1100811999999REMMET005CAVOKEQDQ01+000000PRSWM2
0125744865147191991090717003+40850-072633SAO  +0020FOK  V0200201N004112200019N0240001N1+02561+01441999999ADDAG10999GF100991999999999999999999GP10060081801011079301016017001011GQ100600352917209GR100601099913469MA1102471999999MW1001
0117999999999991991092214004+52200+004200FM-13+9999PLAT V0202801N009319999999N9999999N9+01591+01061100641ADDAG12999MD1210241+9999OA149901081OA259900981SA1+1799UA1I050159999REMSYN04122200 00179 10503 333   91021 91121 91219
0143999999999991991031603004+40400-041900FM-13+9999PEWF V0202001N015419999999N0100001N9+01701+01541100501ADDAG12000AY121031AY221031GF108991999999999999999999MD1710501+9999MW1601SA1+1669UA1M050409999UG1100502509REMSYN02922263 00166 20508 325// 41010
0116874530999991991012921004-33117-064233FM-12+0421SAOC V0201801N01031003001CN0100001N9+99999+99999999999ADDAG10999AY121031AY221031GA1051+003009079GA2041+004509079GF108991081061002501999999MW1501REMSYN017333   85710 84715
0080013640999991991120606004+60517+008217FM-12+081099999V0203001N00671220001CN0750001N9+00241-00781999999ADDAA106000091AG14000GF100991001001999999001001KA1120N-00221REMSYN011333   21022
0057714350999991991031900004+49033-090467SY-SA+0489WDV  V0202601N002619999999N0140001N1+00491-00331100621ADDAG10000MA1999999094741MD1110031+9999MW1001REMSYN003333
0061108660999991991082716204+48133+011700FM-15+0529EDDM V0200401N00261999991CY0099001N1+02101+00501999999ADDAG12999MA1102511999999REMMET008CAVOK NOEQDQ01+000000PRSWM2
0072125000999991991113009004+50900+015800FM-12+034499999V0209991C00001030001CN0008001N9-00181-00201102981ADDAG11000AY141031AY241031GF107991071001999999051999MD1010021+9999MW1421
0253724560139961991112109003+39067-095633SAO  +0267TOP  V0202105N003652200059N024000599+00175-00175101725ADDAA101000095GD10995+9999999GF100005999999999999999999GP10060000001000000001000000001000GR100600000900009MA1999999098495EQDN01 00000JPWTH 0QNNE41 0 00099G41U0 99999K41 0 00029L41 0 01500M41 0 29085N41 0 00000Q41 0 10172S41 0 00035V41 0 00000X41 0 21007
0214466970999991991090200004+25067+121233SY-MT+0045RCGM V0200901N00151220001CN0048001N1+02971+02411100871ADDAA106000091AG14000AY111061AY201061GA1021+004209079GF102991021061004501001001KA1120N+02751MA1100851999999MD1310051+9999MW1051REMSYN057333   20275 555   82714 90522 00000 24000 QNH   2978  INSMET015VISNE SW3 ///3/
0061107080999991991041611204+49217+007117FM-15+0328EDRS V0203601N00511999991CY0099001N1+01601+00201999999ADDAG12999MA1101691999999REMMET008CAVOK NOEQDQ01+000000PRSWM2
0054726798241501991120704009+45700-110450NSRDB+141899999V020999999999999999999999999999+99999+99999999999ADDGP10060000001000000001000000001000GR100600000900009
0153130240999991991112700004+46067+015283FM-12+094199999V0202901N00101000151CN0000001N9+00121+00121104511ADDAA106000091AG10000AY141061AY241061GA1091+999999999GF109991091999999999999999MA1999999999999MD1410001+9999MW1451REMSYN011333   95990EQDQ01 101963APOSP 
0193171240999991991051806004+39783+030567SY-MT+0785LTBI V0200901N00511220001CN0050001N1+01301+00881101441ADDAA106000091AG14000AY101061AY201061GA1021+012009059GF102991021051012501001001IA1099IA2999+00709KA1120N+00861MA1101491092461MD1110061+9999MW1101REMSYN023333   20086 31007 82640MET010GRADU 9999
0121719650999991991022121004+63617-135867SAO  +0504YMA  V0200201N00721012001EN0320001N1-02201-02501101921ADDAG10000GD13991+0120099GD24991+0270099GF108991999999999999999999MA1101251999999MD1810101+9999MW1001REMAWY011SC7AC2 8010
0121999999999991991031112004+62100+003100FM-13+9999UBNZ V0201701N00701030001CN0200001N9+00681+00571100791ADDAG12000GF108991081001999999071999MD1310021+9999SA1+0669UA1M030109999UG1090201709REMSYN02922272 00066 20302 317// 40904
0147916700999991991062418004-17150+176917FM-12+000599999V0201801N00511090001CN0200001N9+02541+02101101241ADDAA106000091AG10999AY121061AY221061GA1021+007509089GA2041+090009009GF105991031081008001001021MD1310081+9999MW1011REMSYN023333   564/9 82825 84080
0081830630999991991011221004-10700-048400FM-12+0290SBPN V0209991C00001045001CN0200001N9+02471+02161100761ADDAA106000091AG10999GF107991041021008001021021MD1999999+0081REMSYN011333   58008
0131134810999991991071418004+42650+021150FM-12+0576LYPR V0209991C00001036001CN0100001N9+02581+01471100441ADDAA106000091AG14004AY191061AY221061GF107991021021012501011001KA1120M+03201MA1999999094131MD1410001+9999MW1171REMSYN011333   10320
0109717330999991991032914004+45883-082567SAO  +0193YZE  V0203101N006712200019N0240001N1-00801-01201100931ADDAG10999GD12991+0090099GF102991999999999999999999MA1100781098491MW1001REMAWY009CF1 TR CFEQDQ01+999990APOSP 
0068723940232731991061811003+34900-120450SAO  +0077SMX  V02099999999999999999N999999999+00945+99999999999ADDGP10060000001000000001000000001000GR100600000900009QNNS41 0 00049
0172371450999991991011918004+43733+044667FM-12+013299999V0201001N00201006001CN0200001N9-00351-00561103381ADDAA199999929AG10001AY171061AY221061GA1081+006009059GF108991081051008001999999KA1120M-00261MA1999999101611MD1210011+9999MW1021REMSYN017333   11026 88620EQDQ01+999990APOSP 
0109423390999991991071718004+26300+073017FM-12+0224VIJO V0202301N00261036001CN0020001N9+02681+02481099661ADDAA115008091AG10003AY161061AY251061GF108991021051008001011999MD1999999-0051MW1201REMSYN017333   59005 6008/
0047108370999991991021900504+48217+009917FM-15+0549EDPM V0209991C00001008101CN0030001N1-00301-00501999999ADDAG11999GA1071+008109059MA1101591999999MW1101
0044711830999991991062022004+52650-056867SAO  +0043WXW  V02099999999999999999N9999999N9+00001+99999999999ADDAG10999REMAWY006MMMM ?EQDQ01+000002VOVAR 
0251724070937301991082307003+39450-074567SAO  +0020ACY  V0202105N001552200059N0064005N1+01895+01835101855ADDAA101000095AG10999GF100005999999999999999999GP10060000001000000001000000001000GR100600000900009MA1101861101615MW1455EQDN01 07000JPWTH 0QNNE41 0 00099G41U0 99999K41 0 00065L41 0 00400M41 0 30005N41 0 07000Q41 0 10185S41 0 00066V41 0 00000X41 0 21003
0100316830999991991012812004+49667+140117FM-12+005899999V0203601N00101220001CN0500001N9-00991-01931103121ADDAA106000091AG14000GF100991001001999999001001KA1120M-00661MD1210031+9999REMSYN017333   11066 95090
0077766123999991991121104004+20517-103317SAO  +1528GDL  V0209991C000012200019N0112001N1+01501+01001999999ADDAG12999GF100991999999999999999999MA1102001999999MW1001REMAWY011203/ALGS AC
0096152610999991991031612004+45683+026017FM-12+071099999V0209991C00001036001CN0120001N9+01061+00511101241ADDAA106000091AG14000GF108991081001999999071999MA1999999093051MD1710141+9999REMSYN011333   95000
0208724106137281991080718003+36567-079333SAO  +0174DAN  V0200201N002610750019N0080001N1+02891+02281999999ADDAA106000091AG10000GD12991+0060019GD23991+0750019GF107991999999999999999999GP10060081201011046201016037901011GQ100600206918469GR100601244913289KA1999N+02171MA1102301999999MD1810141+9999MW1051REMAWY006814 71
0122837440999991991040118004-23067-043150FM-12+007599999V0202101N00571001201CN0100001N9+03001+02471100871ADDAA106000091AG10999AY121061GF107991071051001501999999MD1510021+9999MW1051SA1+2109UA1M000009999REMSYN017222// 00210 20000
0096682880999991991031412004-25433+030983FM-12+070099999V0200901N00721036001CN0290001N9+02921+01901999999ADDAG10999AY191061AY221061GF106991041031017501041011MA1999999093881MD1810151+9999ME1315359MW1171
0097999999999991991081815004+56500+003200FM-13+9999LF5U V0203101N01081030001CN0200001N9+01331+00991101651ADDAG12000GF108991021021008001051999MD1210101+9999SA1+1629UA1I060209999REMSYN01722200 00162 10604
0071726587999991991082922009+43650-095583NSRDB+048099999V020999999999999999999999999999+99999+99999999999ADDGP10060055701028070301031013501028GQ100600531924399GR100600804913409
0155724676999991991091002003+39217-106867SAO  +2382ASE  V0202001N002610450019N0240001N1+01891+00611999999ADDAG10999GD12991+0210019GD23991+0450019GF107991999999999999999999GP10060000401024000001027000401024GQ100600878927529GR100600021905509MA1102271999999MW1001
0036152540999991991040104004+45650+023917FM-12+145499999V0209991C000019999999N0100001N9-00271+99999999999ADDAG12999GF107991071999004501071021
0058620100999991991080618304+32667+013150FM-15+0081HLLT V0200601N00411999991CY0099001N1+02701+02101999999ADDAG12999MA1101491999999REMMET005CAVOKEQDQ01+000000PRSWM2
0058151320999991991031204004+46683+027233FM-12+025199999V0209991C00001004201CN0001001N9-00541+99999999999ADDAG11025AY141011AY241011GF108991081061004501999999MW1441
0084946290999991991072507004-33683+117550FM-12+031199999V0209991C00001004201CN0500001N9+01501+00931101851ADDAA106000091AG10999AY121999AY221999GF106991061051004501001001MA1999999098131MW1021
0061123750999991991042914004+52167+020967FM-15+0107EPWA V0209991V00211999991CY0099001N1+01601+00501999999ADDAG12999MA1101691999999REMMET008CAVOK NOEQDQ01+000000PRSWM2
0101104520999991991090508004+51733+010600FM-12+061099999V0203301N00461002401CN0200001N9+01231+00981102351ADDAG12999GA1061+002409079GF107991061061002501001021MA1999999095211MD1310061+9999REMSYN011333   86708
0024476290999991991092513004+36383+140467FM-12+003199999V0203201N001519999999N9999999N9+01841+01551102051ADDAG12999MD1210061+9999
0113150740999991991032112004+00000+999999FM-12+025099999V0209991C000019999999N9999999N9+01181+00771101051ADDAA106000091AG14000GF106991061001012501071001MA1999999098091EQDQ01+999990APOSLPQ02+000057APCTENQ03+007017APC3  
0140724386148351991123121003+40417-086933SAO  +0185LAF  V0201401N00211004801MN0096001N1+00171-00211999999ADDAG11000GD14991+0048019GF108991999999999999999999GP10060007401011000001016007401011GQ100600735921789GR100600400914159MA1103081999999MW1051
0064074340999991991041007004+45867+001183FM-15+0402LFBL V0200701N00411999991CY0099001N1+01001+00601999999ADDAG12999MA1102511999999REMMET011CAVOK NOSIGEQDQ01+000000PRSWM2
0080061800999991991053002504+55633+012667FM-15+0005EKCH V0209991V00151001501CN0040001N1+00901+00801999999ADDAG12000GA1081+001509079MA1102101999999MW1101REMMET024TEMPO 1200 6ST002      ?
0073467500999991991091200404+22683+120467FM-16+0024RCDC V0203601N001510075019N0032001N1+99999+99999999999ADDAG12000GA1031+003009079GA2061+007509059MW1101REMMET016CIG025 VIS E2 W2
0195723510139661991041213003+33967-098483SAO  +0309SPS  V0201401N004110150019N0064001N1+02001+01941100811ADDAA101000095AG10999GD12991+0021019GD22991+0120019GD34991+0150019GF108991999999999999999999GP10060002401011000201016002401011GQ100600851908279GR100600099911679MA1100911097211MW1451REMAWY005LE32?
0108033180999991991082211004+53767-003033FM-12+0010EGNH V0201401N00571013501CN0100001N9+02151+01571100221ADDAG12999GA1021+009009089GA2051+013509059GF107991061081012501081999MD1010061+9999REMSYN017333   82830 85645
0072727575949251991102916244+47967-097400SAOSP+0278RDR  V0203301N00621005101MN0112001N1+99999+99999999999ADDAG10999GD14991+0051019GF108991999999999999999999MA1101391999999MW1711
0112719010999991991011200004+55333-063217SY-SA+0478WTB  V0203601N001519999999N9999999N9-03101-03601103391ADDAA106000091AA224002091AG14000MA1999999096861MD1010071+9999REMSYN023333   70020 555   52351EQDQ01+000002VOVAR 
0314745060232391991060810003+37733-122317SAO  +0005NGZ  V0202905N001552200059N0112005N1+01065+00725101191ADDAG10999GD12991+0030019GF102995999999999999999999GP10060000001000000001000000001000GR100600000900009MA1101191101135MW1001EQDN01 00203KCLC1 3N02 29880EALTP 3N03 00000JPWTH 0N04 10119ISLVP 3QNNE41 3 00203G41U0 99999K41 0 00045L41 0 00700C41 3 29880M41D0 29865N41 0 00000Q41 3 10119S41 0 00051V41 0 00399X41 0 29003
0047101260999991991031406504+53550+007667FM-15+0012EDNT V0202101N00151220001CN0035001N1+00401+00201999999ADDAG12999MA1101291999999MW1101REMMET007YLO YLO
0077401800999991991110316504+32000+034900FM-15+0049LLBG V0202801N00211220001CN0112001N1+01701+01401999999ADDAG12999GA1021+009009059GA2031+030009039MA1100911999999MW1211REMMET005NOSIG
0116024060999991991101612004+59283+012050FM-12+011099999V0202301N00261999999CN0300001N9+01121+00671999999ADDAG12001AY161061AY221061GA1011+004509079GA2071+999999049GF107991011071004501021999MW1011REMSYN017333   81794 87599
0098082720999991991012712004+39883-004050FM-12+051699999V0201601N00101220001CN0035001N9+00641+00131103071ADDAA106000091AG14000AY141061AY201061GF100991001001999999001001MA1999999096781MD1010011+9999MW1051
0181076070999991991071909004+43917-000500SY-MT+0063LFBM V0202401N00101220001CN0150001N1+02161+01661101801ADDAA106000091AG14000AY141031AY211031GA1011+075009009GF101991001001999999001021MA1101801999999MD1410001+9999MW1011OA149900311REMSYN017333   81075 91106MET005CAVOKEQDQ01+000000PRSWM2
0039107960999991991051609004+49033+013233FM-12+061399999V0200601N000519999999N0100001N9+00351+00231101101ADDAG12000MA1999999094161MD1210071+9999
0293724230938211991122710003+38183-085733SAO  +0145SDF  V0203305N002652200059N0160005N1+00065-00175102885ADDAA101000095AG12999GA1999+036585035GD12015+0360019GF101015999999999999999999GP10060000001000000001000000001000GR100600000900009MA1102841101055MW1001EQDN01 00000JPWTH 0QNNE71 0 00201G71U0 99999H71 0 23120K71 0 00029L71 0 01000M71 0 29840N71 0 00000Q71 0 10288S71 0 00033V71 0 00101X71 0 33005
0036154990999991991101917004+43817+028583FM-12+000999999V0202701N00101220001CN0100001N9+01981+99999999999ADDAG12999GF103991001001999999001011
0155724838999991991011523003+39100-121567SAO  +0019MYV  V0203301N00461006001EN0112001N1+01221+00781102501ADDAG10999GD13991+0060019GD23991+0150019GF107991999999999999999999GP10060016201024010501027012301024GQ100600679921389GR100600531914149MA1102511999999MW1001
0073714140999991991122410004+47067-064800SAO  +0005WPJ  V0202701N004619999999N0144001N1-00201-00301099521ADDAG12999MA1999999099461MD1210201+9999REMAWY0062020 ?EQDQ01+999990APOSP 
0097607350999991991042700004+35667+010100FM-12+0068DTTK V0200601N00101009901CN0080001N9+01121+00661101361ADDAA106000091AG14000GA1051+009909059GF105991051051012501001001MD1110061+9999REMSYN011333   85633
0106999999999991991072309004+51900+003600FM-13+9999PLAT V0201301N004619999999N0040001N9+01861+01481101481ADDAG12000MD1710101+9999OA159900511SA1+1689UA1I060059999REMSYN04122200 00168 10601 333   91009 911// 91210
0183703710253331991061021003+57067-135350SAO  +0020SIT  V0201801N004110075019N0160001N1+00941+00721100951ADDAG10000GD12991+0030019GD23991+0075019GD34991+0096019GF108991999999999999999999GP10060024701011000001017024701011GQ100600346916759GR100601090913259MA1100951999999MW1001REMAWY004RE30
0108725245999991991040304003+41517-081683SAO  +0178BKL  V0201601N003112200019N0320001N1+99999+99999999999ADDAG10999GF100991999999999999999999GP10060000001000000001000000001000GR100600000900009MA1103321999999MW1001
0039066850999991991121407004+00000+999999FM-12+047099999V0209991C000019999999N9999999N9-00901-01041104141ADDAG12999MA1999999098041MD1510021+9999
0291718920999991991102112004+49183-123167SY-SA+0002YVR  V0202801N004612200019N0190001N1+01241+01061100331ADDAA106000392AA224000292AC13I9AG10001AY181061AY261061GD12991+0057099GD22991+0105093GD32991+0270093GF104991999999999999999999GJ100009KA1240M+01331KA2120N+01091MA1100341100301MD1610281+9999MW1011REMSYN035333   10133 20109 55000 70002 90936AWY028CF1SC3AC1        ?    6028 ?EQDQ01+000003PRSWM2
0102912180999991991092213204+13583+144933SAOSP+0162PGUA V0200301N002110300019N0112001N1+99999+99999999999ADDAG10999GD12991+0045019GD23991+0300019GD34991+0900019GF108991999999999999999999MA1101291999999MW1001
0284726350948601991122114003+42883-085517SAO  +0239GRR  V0202505N005752200059N0096005N1-00115-00225102795ADDAA101000095AG12999GF100005999999999999999999GP10060001901010007001016001501010GQ100600866912659GR100600067911439MA1102681099755MW1455EQDQ01+999990APOSP N01 07000JPWTH 0QNNE71 0 00099G71U0 99999K71 0 00028L71 0 00600M71 0 29455N71 0 07000Q71 0 10279S71 0 00030V71 0 00000X71 0 25011
0064274020999991991070120004+56833+035900FM-15+0137UUEM V0209991C00001999991CY0099001N1+01901+01701999999ADDAG11999MA1102101999999REMMET011CAVOK NOSIGEQDQ01+000000PRSWM2
0155723783999991991021720003+35950-112150SAO  +2014GCN  V0202401N005110540019N0800001N1+00611-00161999999ADDAG10999GD12991+0150019GD23991+0540019GF107991999999999999999999GP10060058401024043301027029501024GQ100600481917599GR100600935914019MA1101321999999MW1001
0098949830999991991091223004-40983+148333FM-12+001499999V0201801N00511220001CN0500001N9+01001+00491101751ADDAA106000091AG10999AY101999AY201999GF101991011021008001001001MA1999999101581MD1210041+9999MW1021
0095716200999991991032800334+44217-076600SAOSP+0093YGK  V0201701N010310120019N0160001N1+99999+99999999999ADDAG10005GD12991+0030099GD24991+0120099GF108991999999999999999999MW1801OC101441REMAWY006SF2SC8
0082030910999991991031619204+57200-002217FM-15+0065EGPD V0201401N00211060001CN0090001N1+00801+00601999999ADDAG12999GA1011+006609089GA2081+060009029MA1099701999999MW1051REMMET010GRADU 5000
0447724380938191991042722003+39733-086267SAO  +0241IND  V0201605N00575006105MN0096005N1+02115+01675100855ADDAA101000095AG10999GA1999+006105065GA2999+039625035GA3999+076205025GD13055+0060019GD23025+0390019GD34015+0750019GF108085999999999999999999GP10060016201010000001016016201010GQ100600558925919GR100600757913499MA1100881097975MW1055REMAWY006BINOVCEQDQ01+999990APOSP N01 08100JPWTH 0QNNE41 0 00406E41 0 00403E41 0 00601G41 0 00020H41 0 15020H41 0 23130H41 0 37250K41 0 00062L41 0 00600M41 0 28930N41 0 08100Q41 0 10085S41 0 00070V41 0 01010X41 0 16011
0239725375148221991123009003+42417-083017SAO  +0189DET  V0203605N00775004275MN0160005N1+99999+99999999999ADDAA101000095AG12000GD14995+0042019GF108085999999999999999999GP10060000001000000001000000001000GR100600000900009MA1102101999999MW1001REMAWY008WND33V03EQDN01 00000JPWTH 0QNNE21 0 00699G21 0 00014L21 0 01000N21 0 00000V21 0 01010X21 0 36015
0237161340999991991031606004+44200+010700SY-MT+2173LIVC V0200301N01641220001CN0150001N1-00321-00571999999ADDAA106000091AA212048091AG10000AJ100689199999999GA1011+048009029GF101991001001999999001081IA1289KA1120N-00381MA1999999077521MD1510071+9999ME1314369REMSYN023333   21038 44068 92848MET032SCT MON LIB VAL        ?     NILEQDQ01+000000PRSWM2
0039067050999991991100805004+00000+999999FM-12+043299999V0202301N001519999999N9999999N9+00971+00761101221ADDAG12999MA1999999096121MD1710031+9999
0050475920999991991031003004+38433+141300FM-12+004599999V0202901N00621220001CN0600001N9+00591-00311101801ADDAG12000GF101991011021999999001001MD1110071+9999
0059714780999991991011716004+50817-128900SAO  +0111WFG  V02099999999999999999N9999999N9+99999+99999999999ADDAG10999REMAWY0211436+42/-/0014 7022 ?EQDQ01+000002VOVAR 
0081636710999991991112800004+01750+040067FM-12+0244HKWJ V0201101N00211220001CN0400001N9+02511+02061999999ADDAA106000091AG14000AY101061AY201061GF100991001001999999001001MW1021REMSYN003333
0331722540139581991022708003+30283-097700SAO  +0179AUS  V0202505N00265036585MN0160005N1+00945+00005102285ADDAA101000095AG10999GA1999+036585035GD14085+0360019GF108075999999999999999999GP10060000001000000001000000001000GR100600000900009MA1102301100035MW1001REMAWY013BINOVC/ 98156EQDQ01+999990APOSP N01 00000JPWTH 0QNNE41 0 00610G41 0 00120H41 0 23120K41 0 00032L41 0 01000M41 0 29540N41 0 00000Q41 0 10228S41 0 00049V41 0 01009X41 0 25005
0101109290999991991032110004+47683+009183FM-12+0447EDTZ V0200101N00101078001CN0300001N9+01291+00841100971ADDAG12999GA1081+078009029GF108991001001999999001071MA1999999095761MD1810271+9999REMSYN011333   88276
0050014650999991991120603004+58400+008800FM-12+001599999V0203201N00411220001CN0750001N9+00041-00261103291ADDAG12000GF102991011041012501071001MD1710141+9999
0081483770999991991050809004+17250+099017FM-12+014499999V0209991C00001220001CN0100001N9+03851+01971100361ADDAA106000091AG14000GF104991031021008001001051MD1999999+0051REMSYN011333   58005
0084264980999991991012709004+56267+034317FM-12+019699999V0202901N00401220001CN0100001N9-01611-02031102841ADDAG12000GF100991001001999999001001MA1999999100191MD1210151+9999EQDQ01+999990APOSP 
0140725374999991991063013003+42217-083750SAO  +0256ARB  V0203301N00361045001EN0080001N1+99999+99999999999ADDAG10999GD13991+0450019GF107991999999999999999999GP10060019401024006201027016901024GQ100600654908039GR100600550913219MA1101291999999MW1051
0125726185146051991051519003+44317-069800SAO  +0107AUG  V0202801N002112200019N0240001N1+02221-00211101421ADDAG10999GF100991999999999999999999GP10060083101011084001016014301011GQ100600350923219GR100601094913379MA1101421999999MW1001
0072014550999991991030603004+59033+008517FM-12+025599999V0209991C00001001201CN0030001N9-00221-00241101471ADDAG12001AY171031AY221031GF108991081061001501999999MD1710051+9999MW1711
0076838910999991991041918004-27817-050333FM-12+093799999V0202301N00311220001CN0100001N9+01701+01311101811ADDAA106000091AG10999GF102991021001999999041001MA1999999091341MD1610071+9999
0060865823999991991020618004-34867-055117FM-15+0030SULS V0201201N01031220001CN0112001N1+02301+01501999999ADDAG10999GA1021+012009089MA1102001999999EQDQ01+000000PRSWM2
0039101520999991991022223004+54083+010883FM-12+000299999V0202001N005119999999N9999999N9+00191+00031101741ADDAG12999MA1999999101711MD1710021+9999
0074081810999991991030601004+41283+002067FM-15+0006LEBL V0209991C00001220001CN0112001N1+01201+01101999999ADDAG11999GA1011+003609079MA1100511999999REMMET005NOSIGEQDQ01+000000PRSWM2
0205032400999991991111018004+55417-001600FM-12+0023EGQM V0202001N00931015001CN0100001N9+00701+00651099631ADDAA199001091AG10001AY161061AY221061GA1021+003609079GA2041+015009059GA3081+024009049GF108991061051004501021999KA1120M+00761MD1810591+9999MW1611OA140101491REMSYN041333   10076 82712 84650 88458 90710 91129
0105547250999991991102700004+37500+117533FM-12+001299999V0202901N00301220001CN0130001N9+00351-00151103031ADDAA106000091AG14000GF100991001001999999001001IA1099IA2999-00139MD1210141+1001REMSYN017333   01055 31013
0096132090999991991071701304+44900+013917FM-15+0063LYPL V0200501N00211999991CY0099001N1+02101+01501101341ADDAG11999MA1101291100601REMMET011CAVOK NOSIGEQDQ01+999990APOSP Q02+999990APOSLPQ03+000000PRSWM2
0181722430129601991041803404+29967-095350SAOSP+0033IAH  V0201801N00461001501MN0112001N1+99999+99999999999ADDAG10020GD13991+0015019GD23991+0036019GD33991+0075019GD44991+0150019GF108991999999999999999999MA1100851100451MW1951REMAWY036T ALQDS MOVG     ?    SE FQT LTGICCCEQDQ01+999990APOSP 
0130999999999991991081312004+46100-165600FM-13+9999KGJB V0202001N00821006001CN0020001N9+01401+01101099601ADDAG12000GF108991999081001501081999MD1710651+9999UA1M040259999UG1050252109REMSYN02722265 20405 321// 40505 ICEEQDQ01+000082SCOTLC
0104718660999991991032704004+52167-106683SAO  +0504YXE  V0201701N001512200019N0240001N1-00601-01201101221ADDAG10999GD12991+0720093GF102991999999999999999999MA1100881095001MW1001REMAWY004CI ?EQDQ01+999990APOSP 
0112085790999991991020500004+38767-009133FM-12+010599999V0209991C00001220001CN0100001N9+00841+00641102821ADDAA106000091AG14000GA1031+999999009GF103991001001999999001011MA1999999101521MD1710071+9999REMSYN011333   830//
0105022860999991991031121004+63800+020283FM-12+0014ESNU V0202201N00051220001CN0500001N9+00321+00211100361ADDAG12000GA1041+018009059GF104991041051017501999001MD1710081+9999REMSYN011333   84656EQDQ01    003SCOMCG
0074075490999991991032910004+44900+002417FM-15+0639LFLW V0201001N00211999991CY0099001N1+00901-00801999999ADDAG12999MA1101901094441REMMET005CAVOKEQDQ01+999990APOSP Q02+000000PRSWM2
0105787013999991991040901004+00000+000000FM-15+9999MHNO V0201801N00821220001CN0040001N1+02701+01801999999ADDAG11999GA1011+012009099GA2011+012009089GA3031+075009029MW1041REMMET0321AC090 CB NE 4 KMS     ?     TDS
0115562570999991991083118004+30000+100267FM-12+395099999V0201801N00101012001CN0300001N9+00801+00491999999ADDAA106000091AG14000GF105991051041012501001021KA1240M+01741MA1999999063291MD1210041+0001REMSYN017333   00001 10174
0047789480999991991082901004+13750-060950FM-15+0003TLPL V0201301N00571004801CN0112001N1+02601+02301999999ADDAG11999GA1051+004809089MW1251REMMET0061017.9
0066105350999991991111406004+50817+009133FM-12+035099999V0202001N006219999999N9999999N9+00371+00061100071ADDAA106000091AA224000691AG14000MD1210061+9999REMSYN011333   70006
0315727470149181991092614003+48567-093383SAO  +0359INL  V0203605N005752200059N0240005N1+00115-00445101635ADDAG10999GA1999+007625065GD12045+0075019GF104045999999999999999999GP10060013401010016501016009701010GQ100600770910719GR100600306913609MA1101491097225MW1001EQDQ01+999990APOSP N01 00000JPWTH 0QNNE71 0 00205G71U0 99999H71 0 15025K71 0 00024L71 0 01500M71 0 28710N71 0 00000Q71 0 10163S71 0 00034V71 0 00505X71 0 36011
0186061100999991991071521004+55233+009267FM-12+0040EKSP V0202301N00411004801CN0100001N9+01431+01341100741ADDAA103001091AG10001AY161031AY221031GA1011+003009079GA2061+004809059GA3071+007209059GF108991081051004501999999MD1610051+9999MW1601OA149901181REMSYN035333   60017 81710 86616 87624 91123
0061014880999991991042405204+59900+010617FM-15+0017ENFB V0203501N00051999991CY0099001N1+00101+00001999999ADDAG12999MA1102301999999REMMET008CAVOK NOEQDQ01+000000PRSWM2
0074369740999991991100221004+41433+076000FM-12+204999999V0201101N00101220001CN9999999N9+00441-00451999999ADDAG12000GF100991001001999999001001MA1999999080301MD1410001+9999ME1315769
0118151450999991991011409004+46533+024533FM-12+0309LRTM V0209991C00001004201CN0032001N9+00381+00071103411ADDAA103999929AG10002AY161031AY221031GF108991051071004501021999MA1999999099571MD1210311+9999MW1611REMSYN011333   69907
0105716250999991991032007004+45950-077317SAO  +0130YWA  V0203301N008212200019N0240001N1-00201-01001101011ADDAG10999GD12991+0750093GF102991999999999999999999MA1100951099411MW1001REMAWY005CI1 ?EQDQ01+999990APOSP 
0330722290038811991052403003+32900-087250SAO  +0139CKL  V0200805N00265030485EN0112005N1+02395+01895101725ADDAA199000091AG10000GA1999+030485035GD14085+0300019GF108085999001999999071999GP10060000001000000001000000001000GR100600000900009MA1101761100105MD1210121+9999MW1001REMAWY014212 107/ NOSPLEQDN01 00000JPWTH 0QNNE41 0 00610G41 0 00100H41 0 23100K41 0 00066L41 0 00700M41 0 29560N41 0 00000Q41 0 10172S41 0 00075V41 0 01010X41 0 08005
0058474890999991991121509004+43033+144200FM-15+0098RJCK V0202501N00261999991CY0099001N1-00101-00701999999ADDAG12000MA1102741999999REMMET005CAVOKEQDQ01+000000PRSWM2
0094546460999991991021106004+38350+119683FM-12+000699999V0203401N00401220001CN0300001N9+00091-00971102511ADDAA106000091AG14000GF101991001001999999001021KA1240N-00151MD1710111+9999REMSYN011333   21015
0043105020999991991073123504+50833+006667FM-15+0135EDNN V0201901N00101220001CN0035001N1+01401+01201999999ADDAG12000MA1101191999999MW1101REMMET003YLO
0142062400999991991123005004+52300+004767FM-12-0002EHAM V0209999V00051007501CN0030001N9+00571+00531104211ADDAG11999AY121021AY221021GA1011+005401051GA2051+007501051GF105991051051004501001001MD1310031+9999MW1101REMSYN029333   81618 85625 555   51005
0123716270947921991052103004+45467-073750SAO  +0036YUL  V0202401N003612200019N0240001N1+01701+00401102171ADDAG10000GD12991+0750093GF102991999999999999999999MA1102171101741MD1510021+9999MW1001REMAWY009CI 5002 ?EQDQ01+999990APOSP 
0104719500999991991080707274+54817-127183SAOSP+0523YYD  V0202201N001012200019N0400001N1+99999+99999999999ADDAG10999GD12991+0210099GD22991+0750093GF102991999999999999999999MW1001REMAWY023AC1CI1 CB LTGIC DSTNT S
0061122000999991991120800004+53917+014233FM-12+000599999V0202701N00101007501CN0100001N9+00211+00141103041ADDAA106000091AG14000GF107991071051008001999999MD1810031+9999
0069946250999991991040207004-32367+117000FM-12+024099999V0209991C00001220001CN0500001N9+02901+00801999999ADDAA106000091AG10999AY101999AY201999GF100991001001999999001001MW1021
0093062400999991991012018254+52300+004767FM-15-0002EHAM V0202101N00621002401CN0038001N1+00401+00401999999ADDAG12000GA1031+000901071GA2051+002401071GA3071+003301051MA1103181999999MW1101REMMET005NOSIG
0297727340148471991080116003+46467-084350SAO  +021999999V0202905N006752200059N032000599+02335+01285101095ADDAA101000095GA1999+006105085GD10005+9999999GF100005999999999999999999GP10060078001010089201016009401010GQ100600396912499GR100601021913269MA1999999098465EQDN01 00000JPWTH 0QNNE41 0 00000G41U0 99999H41 0 11020K41 0 00055L41 0 02000M41 0 29075N41 0 00000Q41 0 10109S41 0 00074V41 0 00000X41 0 29013
0087714720999991991021004004+53317-132767SAO  +0014WQS  V02099999999999999999N9999999N9+00801+99999100741ADDAG10999MA1999999100571REMAWY0181808/-/     7018 ?EQDQ01+999990APOSP Q02+000002VOVAR 
0069716230999991991020600404+43033-081150SAOSP+0278YXU  V0203401N00361000601WN0010001N1+99999+99999999999ADDAG10000GD15991+0006099GF109991999999999999999999MW1451REMAWY003F10
0055037640999991991021912004+51383-000783FM-12+007599999V0209991C000019999999N9999999N9-00041-00061101621ADDAA106000391AG10000MD1710101+9999REMSYN011555   91150
0123711290999991991071905004+51517-109167SAO  +0694YKY  V0201401N001012200019N0240001N1+01301+01101100941ADDAG10999GD12991+0090099GD22991+0300093GF102991999999999999999999MA1100951092921MW1001REMAWY008CB2AC2 ?EQDQ01+999990APOSP 
0084944390999991991102907004-26583+120217FM-12+052299999V0202501N00051220001CN0500001N9+03501+00501100821ADDAA106000091AG10999AY101999AY201999GF100991001001999999001001MA1999999094961MW1021
0140722024999991991011719003+25917-080283SAO  +0003OPF  V0203601N00511030001EN0192001N1+99999+99999999999ADDAG10999GD13991+0300019GF107991999999999999999999GP10060046701024032201027025501024GQ100600489919839GR100600929914149MA1102001999999MW1001
0087912213999991991052523004+14183+145250SAO  +0185PGRO V0201201N003112200019N0112001N1+02721+02441999999ADDAG10999GD12991+0030099GD22991+0900099GF102991999999999999999999MA1101291999999MW1001
0426725097147901991032907003+42150-070933SAO  +0048NZW  V0202705N002652200059N0112005N1+01005-00675100501ADDAG10999GD12991+0300019GD23991+0600013GF106025999999999999999999GP10060000001000000001000000001000GR100600000900009MA1100511999999MW1001EQDN01 00203KCLC1 3N02 00307KCLC2 3N03 23100CCLT1 3N04 32250CCLT2 3N05 29680EALTP 3N06 29510FPRES 3N07 00000JPWTH 0N08 10050ISLVP 3QNNE41 3 00203E41 3 00307G41U0 99999H41 3 23100H41 3 32250K41 0 00020L41 0 00700C41 3 29680M41 3 29510N41 0 00000Q41 3 10050S41 0 00050V41 0 00703X41 0 27005
0096684610999991991041709004-28250+028333FM-12+1700FABM V0203501N00261220001CN0240001N9+02081+00621999999ADDAG10999AY101031AY201031GF102991011011004501011001MA1999999083711MD1010051+9999ME1315549MW1051
0099564620999991991083109004+29000+101500FM-12+299499999V0201401N00701007501CN0300001N9+01881+01041999999ADDAG12005AY181031GF107991061091008001041999MA1999999071341MD1210021+0001MW1801REMSYN011333   00000
0123100460999991991040304004+54383+010150FM-12+0031EDCK V0201701N00101027001CN0050001N9+00761+00451099901ADDAG12999AY121011AY221011GA1061+027009039GF106991061001999999071999MA1999999099521MD1710081+9999MW1101REMSYN011333   86359
0136229960999991991100615004+60367+049650FM-12+015399999V0202401N00201015001CN0500001N9+00731+00451102771ADDAG12000GA1071+015009059GF107991071051017501999001MA1999999100881MD1210051+9999REMSYN011333   87650EQDQ01+999990APOSP Q02    003SCOMCG
0125723820231821991120615003+34633-118083SAO  +0774PMD  V0202201N002612200019N0800001N1+99999+99999999999ADDAG12000GF100991999999999999999999GP10060000101011000101016000101011GQ100600889911829GR100600006903179MA1101831999999MW1001
0058022670999991991090414504+63400+018967FM-15+0103ESNO V0203001N00671999991CY0099001N1+01301+00201999999ADDAG12000MA1100911999999REMMET005CAVOKEQDQ01+000000PRSWM2
0054742300240371991092610009+46433-105883NSRDB+080199999V020999999999999999999999999999+99999+99999999999ADDGP10060000001000000001000000001000GR100600000900009
0071725717999991991081222009+39533-107717NSRDB+169199999V020999999999999999999999999999+99999+99999999999ADDGP10060076101028084201031010101028GQ100600383923939GR100601042913309
0063160590999991991072301204+45217+007650FM-15+0287LIMF V0209991C00001220001CN0050001N1+02201+02101999999ADDAG11999GA1011+010509089GA2041+027009039MA1101801999999MW1101
0054724936232541991062811009+38000-122050NSRDB+000799999V020999999999999999999999999999+99999+99999999999ADDGP10060000001000000001000000001000GR100600000900009
0336725945242831991051612003+40983-124100SAO  +0062ACV  V0200705N00265002445MN0112005N1+00785+00725101695ADDAA106000091AG10000GD13995+0024019GD23995+0045019GF106065999999999999999999GP10060000001000000001000000001000GR100600000900009KA1999N+00501MA1101691100885MD1710071+9999MW1001REMAWY008707 41 ?EQDN01 00000JPWTH 0QNNE81 0 00499E81 0 00499G21 0 00008K21 0 00045L21 0 00700M11 0 29790N21 0 00000Q21 0 10169S21 0 00046V11 0 00808X21 0 07005
0121919380999991991082321004-17550-149617FM-12+0002NTAA V0202401N00211220001CN0350001N9+02821+02201101601ADDAA106000091AG10999GA1011+006909089GF101991011021008001001001MD1010001-0121REMSYN035333   56900 81823 555   12406 59012
0064100340999991991120608374+54633+009350FM-16+0022EDCG V0202501N00261010501CN0112001N1+99999+99999999999ADDAG11999GA1031+006009089GA2061+010509059MW1661REMMET007BLU BLU
0287467630999991991011112004+24033+121617SY-MT+0016RCYU V0200401N00511006301CN0032001N1+01671+01391101801ADDAA199999929AG10000AY151061AY221061GA1021+002409079GA2051+006309089GA3081+010509059GF108991081051002501999999KA1120M+02221MA1101761999999MD1210191+9999MW1501REMSYN063333   10222 555   30416 82708 85621 88635 00990 QNH   3005  INSMET050S CIG021 10BR VIS NNE2 SSW2 HAZOB RAIN AMT T XXX3X
0144712023999991991031221004+48367-123750SAO  +0032WIR  V0209991C00001007201EN0240001N1+00901+00601101311ADDAG10000GD13991+0072099GD23991+0390099GF107991999999999999999999MA1101291999999MD1110131+9999MW1001REMAWY034TCU6AC1 WSP1107        ?    1013 ?
0110108180999991991061108004+48100+008750FM-12+097599999V0202901N00461220001CN0400001N9+00981+00491999999ADDAG12999GA1041+005109089GF104991041021004501001001MA1999999091021MD1210111+9999ME1315409REMSYN011333   84817
0155077900999991991012515004+42550+009483SY-MT+0012LFKB V0201701N00311220001CN0300001N1+01231+00221102841ADDAA106000091AG14000GF100991001001999999001001MA1102811999999MD1610121+9999MW1001OA149900621REMSYN017333   91112 95000MET011CAVOK NOSIGEQDQ01+000000PRSWM2
0039066010999991991111105004+00000+999999FM-12+031899999V0201101N002619999999N9999999N9-00011-00161102621ADDAG12999MA1999999098651MD1710101+9999
0146718130999991991011206004+50183-061817SY-SA+0011YNA  V0202901N005712200019N0240001N1-02221-02821102971ADDAA106000091AG10000GF100991001001999999001001KA1240M-01961KA2240N-02801MA1102951102831MD1210101+9999MW1001REMSYN017333   11196 21280AWY0062010 ?
0120478540999991991070200464+32083+131450FM-16+0082RJFN V0200701N00361007501CN0015001N1+99999+99999999999ADDAG11023ED199U11889GA1011+000309079GA2031+004509089GA3011+007509099GA4061+007509089MW1951REMMET020TS E.      ?     BR.
0119119340999991991112613004+49067+020250FM-15+0707LKTT V0209991C00001012901CN0040001N1+00601+00501999999ADDAG11999GA1031+001509079GA2081+012909059MA1102401094151MW1101REMMET028BASE 150M        ?     NOSIGEQDQ01+999990APOSP 
0054722487139351991040106009+31400-092300NSRDB+003499999V020999999999999999999999999999+99999+99999999999ADDGP10060000001000000001000000001000GR100600000900009
0114915570999991991020510004-17700+168300FM-12+0021NVVV V0200901N00311036001CN0250001N9+02611+02301101341ADDAG10999GA1041+007509089GA2051+036009039GF105991041081008001031001MD1210141+9999REMSYN023333   5629/ 84825 85362
0054725716999991991112108009+39533-107800NSRDB+162299999V020999999999999999999999999999+99999+99999999999ADDGP10060000001000000001000000001000GR100600000900009
0491722170038131991072901003+32700-083650SAO  +0108MCN  V0203505N003652200059N0112005N1+02675+02445101515ADDAA101000095AG10999GA1999+011285065GA2999+013725095GA3999+076205005GD12025+0111019GD22015+0135019GD32025+0750019GF104045999999999999999999GP10060001001010002501016000801010GQ100600869929079GR100600042907629MA1101561100245MW1171MW2955REMAWY044TB30 W-N         ?    DRFTG N OCNL LTG TCU SEQDQ01+999990APOSP N01 01000JPWTH 0QNNE41 0 00202E41 0 00201E41 0 00202G41U0 99999H41 0 15037H41 0 18045H41 0 32250K41 0 00076L41 0 00700M41 0 29600N41 0 01000Q41 0 10151S41 0 00080V41 0 00505X41 0 35007
0115766534999991991051317004+19150-104567SAO  +0008ZLO  V0201401N003112100019N0080001N1+02701+02401999999ADDAG10999GD12991+0060099GD23991+2100099GF107991999999999999999999MA1101151999999MW1041MW2051REMAWY013115/HK2/40799
0184919540999991991021800004-23350-149483FM-12+0003NTAT V0200601N00721042001CN0200001N9+02731+02491101491ADDAA124040091AG10999AY181061AY221061GA1031+004509089GA2071+042009049GF108991031081004501071999KA1240N+02371MD1810051+0221MW1151REMSYN047333   20237 56999 58022 83815 87464 555   10622
0024042140999991991071806004+70683-054617FM-12+002799999V0201001N002119999999N9999999N9+00221+00181100871ADDAG12000MD1710051+9999
0097999999999991991013006004+73200+032000FM-13+9999LLZG V0202601N00671007501CN0100001N9+00501+00301101251ADDAG12000GF108991081071008001001001MD1610021+9999SA1+0409UA1M040109999REMSYN01722242 00040 20402
0326726620240901991072519003+44050-103067SAO  +0964RAP  V0201605N006752200059N0640005N1+02725+01175101765ADDAA101000095AG10999GA1999+016765085GD12045+0150019GF104045999999999999999999GP10060084601010061501016029101010GQ100600254916429GR100601196913249MA1102001090845MW1001EQDQ01+999990APOSP N01 00000JPWTH 0QNNE41 0 00205G41U0 99999H41 0 11055K41 0 00053L41 0 04000M41 0 26825N41 0 00000Q41 0 10176S41 0 00081V41 0 00505X41 0 16013
0024060780999991991120209004+56700+011550FM-12+0008EKAT V0201001N003619999999N9999999N9+00521+00271103301ADDAG12000MD1210171+9999
0076082020999991991082317004+40950-005500FM-15+0795LESA V0202501N00511220001CN0112001N1+02801+00701999999ADDAG12999GA1011+009009089MA1101901092711EQDQ01+999990APOSP Q02+000000PRSWM2
0310725430948221991050923003+42200-089100SAO  +0221RFD  V0201805N005252200059N0240005N1+02445+01175102105ADDAA101000095AG10999GA1999+012195085GD12025+0120019GF102025999999999999999999GP10060033001010046801016011901010GQ100600632926969GR100600604913419MA1102101099395MW1001EQDN01 00000JPWTH 0QNNE41 0 00203G41U0 99999H41 0 11040K41 0 00053L41 0 01500M41 0 29350N41 0 00000Q41 0 10210S41 0 00076V41 0 00303X41 0 18010
0063471530999991991122002004+35183+128933FM-15+0015RKPK V0200501N00151009001CN0048001N1+00801+00601102961ADDAG11999GA1021+004509079GA2051+009009059MA1102911999999MW1101
0086030080999991991092613004+59533-001633FM-12+005999999V0203101N00461220001CN0400001N9+01011+00451100751ADDAG12999GA1041+005409089GF104991041081004501001001MD1110061+9999REMSYN011333   84818
0061471120999991991021709004+37483+126633FM-12+007099999V0202701N00361220001CN0300001N9+00301-00941102431ADDAA106000091AG14000GF102991001001999999001011MD1710091+9999
0184160760999991991040406004+45667+009700SY-MT+0237LIME V0209991C00001048001CN0035001N1+01141+00641100941ADDAA106000091AG10000AY121061AY211061GA1021+039009039GA2071+048009049GF107991071001999999071001KA1120N+01081MA1100811098061MD1510001+9999MW1101REMSYN023333   20108 82363 87466MET003BKN
0079994060999991991071406004+43967-068133FM-12+0009MDRM V0201201N008219999999N9999999N9+01351+99999100971ADDAG12000MD1610201+9999OA139900931REMSYN035333   91218 555   11015 22016 90600
0130717380999991991120116004+47967-084783SAO  +0287YXZ  V0201901N00881002701EN0192001N1-00601-01001101251ADDAG12999GD13991+0027099GF107991999999999999999999MA1101051097661MW1711OC101241REMAWY022SC9  DRFTG SNW CIG RGDEQDQ01+999990APOSP 
0060825790999991991090608004-05050-042817FM-15+0069SBTE V0209991C00001004801CN0112001N1+02601+01901999999ADDAG10999GA1061+004809059MA1101291999999EQDQ01+000000PRSWM2
0073943290999991991031008004-21600+138300FM-12+017599999V0201101N00621012001CN0500001N9+03531+01011100611ADDAG10999AY121999AY221999GF105991051011012501001001MA1999999098611MW1011
0108722904231961991091905003+32567-116983SAO  +0160SDM  V0202701N002612200019N0080001N1+01781+01611999999ADDAG10999GD13991+0750013GF107991999999999999999999GP10060000001000000001000000001000GR100600000900009MW1051
0148726155999991991070116003+43567-071417SAO  +0166LCI  V0203201N005112200019N0160001N1+01941+00171999999ADDAG10999GD12991+0180019GF102991999999999999999999GP10060087801025081101028015201025GQ100600263913559GR100601183913219MA1101081999999MW1001OC100881
0138917530999991991030603004-13233-176167FM-12+0027NLWW V0203201N00621004801CN0100001N9+02971+02511100721ADDAG10999AY111031AY211031GA1011+003009089GA2011+004509099GA3051+004809089GF106991061031004501001001MW1151REMSYN023333   81810 81915 85816
0094038370999991991010718004+50400-003483FM-12+000399999V0202301N00721007501CN0100001N9+99999+99999999999ADDAG12001AY181061AY221061GA1051+007509059GF105991999999008001999999MW1251REMSYN011333   85625
0135702986999991991083016003+60817-152300SAO  +00125BI  V0209999C000012200019N1200001N1+01001+00501100111ADDAG10999GF100991999999999999999999GP10060002101025005901028001801025GQ100600867907699GR100600078913409MW1001REMAWY016EPASS OPEN NOSPL
0054722867231561991091711009+33933-116967NSRDB+079299999V020999999999999999999999999999+99999+99999999999ADDGP10060000001000000001000000001000GR100600000900009
0099763943999991991092502454+25783-100100FM-15+0387MMMY V0203301N00981010501CN0112001N1+02401+02101999999ADDAG12017GA1051+010509089GA2081+030009039MA1101901999999MW1611REMMET027LTGICCC FQTS     ?     S/SW
0124160880999991991080420004+45417+010283FM-15+0092LIPL V0200401N00211027001CN0112001N1+02701+02101101601ADDAG11999GA1011+010509089GA2051+027009039MA1101591100491REMMET007BKN BLUEQDQ01+999990APOSP Q02+999990APOSLPQ03+000000PRSWM2
0236727755241121991020221003+47500-111183SAO  +1075GFA  V0202201N009310750019N0720001N1+01561-00711100561ADDAA199000091AG10000GD12991+0240019GD22991+0360019GD33991+0750019GF107991999001999999041081GP10060016801011007101017013801011GQ100600654919369GR100600586914089MA1100681999999MD1810081+9999MW1001REMAWY032ACSL ALQDS       ?    / 808 1048
0024476150999991991082408004+36550+139867FM-12+014099999V0200401N004119999999N9999999N9+02291+01711100811ADDAG12999MD1210041+9999
0040714263999991991061903004+48067-069550SAO  +0005WAF  V02099999999999999999N0144001N1+99999+99999999999ADDAG10000REMAWY021/10/08/1817/-/      ?
0127104050999991991091803004+51600+006150FM-12+0031EDUL V0201901N00151220001CN0045001N9+01001+00941102051ADDAG12000AY101031AY201031GA1011+015009059GF101991011051017501999001MD1710061+9999MW1101REMSYN011333   81650EQDQ01    003SCOMCG
0270690160931141991063003003+33700-117833SAO  +0018NTK  V0202505N003152200059N011200599+02065+01445101165ADDGD10995+9999999GF100995999999999999999999GP10060004401025007601028003601025GQ100600840929419GR100600139913229MA1999999100955EQDN01 00000JPWTH 0QNNE41 0 00099G41U0 99999K41 0 00058L41 0 00700C41D0 29874M41 0 29810N41 0 00000Q41 0 10116S41 0 00069V41 0 00099X41 0 25006
0054702320265161991011906009+61583-159533NSRDB+002699999V020999999999999999999999999999+99999+99999999999ADDGP10060000001000000001000000001000GR100600000900009
0137416750999991991092003004+30200+071433FM-12+0123OPMT V0209991C00001220001CN0040001N9+02601+02311100641ADDAA106000091AG14000AY101031AY201031GF100991001001999999001001KA1120N+02501MA1999999099241MD1999999+0151MW1051REMSYN017333   20250 58015
0060023760999991991090302204+61267+017100FM-15+0036ESCL V0209991C00001009901CN0112001N1+01301+01101999999ADDAG11999GA1081+009909059MA1102611999999EQDQ01+000000PRSWM2
0101101470999991991041014004+53633+010000FM-12+0016EDDH V0202301N00361015001CN0120001N9+01611+00461102951ADDAG12999GA1051+015009089GF105991051081017501001001MA1999999102741MD1610051+9999REMSYN011333   85850
0149411500999991991062821004+26267+050650SY-MT+0002OBBI V0203401N00311220001CN0120001N1+02941+02601099881ADDAG12000GA1021+036009039GF102991021001999999031001MA1099801999999MD1999999+0181MW1001REMSYN017333   58018 82362MET011CAVOK NOSIGEQDQ01+000000PRSWM2
0180724645230701991041920003+37267-104333SAO  +1756TAD  V0200701N005712200019N0960001N1+01831-00051101401ADDAG10999GD12991+0150019GD23991+0750013GF107991999999999999999999GP10060081601011044601016042001011GQ100600274919809GR100601203913559MA1101861999999MW1001REMAWY016SCTD RWU OMESA S
0098321740999991991111303004+45267+147967FM-12+003899999V0202701N01101007501CN0200001N9+00311-00071100621ADDAG12000GF108991051091008001001011MD1810031+9999OA140101501OA249901801REMSYN017333   91015 91118
0155723119138861991053019003+34850-082350SAO  +0319GMU  V0209999C000010750019N0160001N1+03171+02171999999ADDAG10999GD12991+0120019GD23991+0750019GF107991999999999999999999GP10060089201011057001016035401011GQ100600192922969GR100601254913299MA1101421999999MW1001
0073024600999991991011402504+59650+017950FM-15+0061ESSA V0202801N00511999991CY0099001N1-00801-01001999999ADDAG12000MA1103591999999REMMET020CAVOK NOSIG 88////95EQDQ01+000000PRSWM2
0284723040937291991022719003+35267-075550SAO  +0002HAT  V0202805N006252200059N0112005N1+00835-00675102125ADDAA101000095AG10999GF100005999999999999999999GP10060070301010084801016012801010GQ100600472920569GR100600947913949MA1102131102085MW1001EQDQ01+999990APOSP N01 00000JPWTH 0QNNE41 0 00099G41U0 99999K41 0 00020L41 0 00700M41 0 30145N41 0 00000Q41 0 10212S41 0 00047V41 0 00000X41 0 28012
0277722146128161991070103003+29683-082267SAO  +0042GNV  V0201105N002152200059N0112005N1+02565+02395101405ADDAA199000091AG10000GF100005999999999999999999GP10060000001000000001000000001000GR100600000900009MA1101421100835MD1310101+9999MW1001REMAWY003310EQDN01 00000JPWTH 0QNNE81 0 00099G21U0 99999K21 0 00075L21 0 00700M11 0 29775N21 0 00000Q21 0 10140S21 0 00078V11 0 00000X21 0 11004
009772582799999199106170400D+41667-115783SAO  +1902AWH  V0203601N006212200019N0640001N1+01501+00171101021ADDAA101000095AG10999GD12991+0180099GD22991+0300099GF102991999999999999999999MW1001REMAWY005NOSPL
0071723747999991991050715009+34267-110000NSRDB+195499999V020999999999999999999999999999+99999+99999999999ADDGP10060039601025086901028003801025GQ100600656908579GR100600552913429
0060070700999991991040920004+49300+004033FM-15+0099LFSR V0201201N00101220001CN0050001N1+00701+00601999999ADDAG12999GA1011+075009009MA1102911999999EQDQ01+000000PRSWM2
0153725180147351991040805003+42750-073800SAO  +0089ALB  V0201801N002612200019N0320001N1+01501+00891101341ADDAA101000095AG10999GD12991+0600013GF102991999999999999999999GP10060000001000000001000000001000GR100600000900009MA1101351100291MW1001EQDQ01+999990APOSP 
0105726380948141991121910003+44367-084683SAO  +0350HTL  V02099999999999999999N999999999-01945+99999999999ADDAA101000095GP10060000001000000001000000001000GR100600000900009MA1999999099595QNNM71 0 29410S71 0-00003
0084345550999991991011621004+48367+043100FM-12+007799999V0203201N00401220001CN0200001N9-01181-01531103141ADDAG12000GF100991001001999999001001MA1999999102231MD1810111+9999EQDQ01+999990APOSP 
0415723860231691991021614003+36083-115167SAO  +0659LAS  V0201905N002150609659N0240005N1+01335+00065101085ADDAA101000095AG10999GA1999+021345065GA2999+027435035GA3999+060965025GD12015+0210019GD22035+0270019GD34045+0600019GF108085999999999999999999GP10060000001000000001000000001000GR100600000900009MA1101191093465MW1001EQDQ01+999990APOSP N01 00000JPWTH 0QNNE41 0 00201E41 0 00204E41 0 00605G41 0 00200H41 0 15070H41 0 23090H41 0 37200K41 0 00033L41 0 01500M41 0 27600N41 0 00000Q41 0 10108S41 0 00056V41 0 01010X41 0 19004
0162039200999991991122506004+54483-006100FM-12+003899999V0202401N00361030001CN0250001N9+00401+00141104021ADDAA106000091AG14000GA1011+012009059GA2071+030009049GF107991011051012501011999IA1099IA2999-00409KA1120N-00041MD1710181+9999REMSYN029333   21004 31104 81640 87460
0092110100999991991072616204+48233+014183FM-15+0313LOWL V0202701N00511090001CN0112001N1+01701+01001999999ADDAG12999GA1021+008109089GA2011+010509099GA3061+090009009MA1101191999999EQDQ01+000000PRSWM2
0160154440999991991050718004+44367+027850FM-12+006199999V0201401N00401036001CN0180001N9+01451+01051100331ADDAA103000791AA299001091AG10003AY181061AY221061GF107991031091008001071001IA1099KA1120M+02301MA1999999099611MD1710141+9999MW1291REMSYN023333   10230 31036 69977
0072745940137051991052704004+38817-076867SAO  +0086ADW  V0201801N001012200019N0112001N1+02281+02111101851ADDAG10999GD12991+0750019GF102991999999999999999999MA1101861999999MW1001
0195466860999991991121515004+25083+121217SY-MT+0033RCTP V0200401N00311007501CN0070001N1+02001+01831102201ADDAA106000091AG14000AY121031AY221031GA1021+003009079GA2051+007509059GA3071+015009059GF107991051061004501031001MA1102171999999MD1310031+9999MW1101REMSYN029555   82710 85625 87650 00000MET005NOSIG
0414704540257041991062414003+51883-176650SAO  +0005ADK  V0200105N004150036659N0112005N1+00615+00335100111ADDAG10999GD12991+0021019GD23991+0036019GD34991+0051019GF108995999999999999999999GP10060000001000000001000000001000GR100600000900009MA1100101100041MW1001EQDN01 00203KCLC1 3N02 00409KCLC2 3N03 00610KCLC3 3N04 29560EALTP 3N05 29541FPRES 3N06 00000JPWTH 0N07 10011ISLVP 3QNNE41 3 00203E41 3 00409E41 3 00610G41 0 00012K41 0 00038L41 0 00700C41 3 29560M41 3 29541N41 0 00000Q41 3 10011S41 0 00043V41 0 01099X41 0 01008
0148725555999991991102821003+41433-099650SAO  +0776BBW  V0203201N01441002101EN0064001N1-00431-00711999999ADDAG10000GD14991+0021019GF108991999999999999999999GP10060009901024000001027009901024GQ100600621921559GR100600648913859MA1100581999999MW1451OC101651
0214717030999991991081212004+47150-067833SY-SA+0241YSL  V0203301N004612200019N0240001N1+01481+01271101561ADDAA106000091AA224001291AG10000GD12991+0060099GD22991+0090093GF102991999999999999999999GJ101329KA1240M+02191KA2120N+01301MA1101521098661MD1110171+9999MW1001REMSYN029333   10219 20130 55022 70012AWY013CU1SC1 1017 ?
0064999999999991991030315004+46100-063700FM-13+9999CGJV V0200201N01131004201CN0100001N9+00021-00201101031ADDAG12000GF108991061061004501999999MD1310351+9999REMSYN00522262
0059727119999991991110903004+46617-069533SAO  +031440B  V02099999999999999999N9999999N9-01161-01711999999ADDAG12000REMAWY021PKWND 002/RNO 760V262EQDQ01+000002VOVAR 
0054081605999991991091418004+41667-001050FM-15+0263LEZG V0209991C00001220001CN0112001N1+02701+01501999999ADDAG12000GA1011+075009009MA1101831999999REMMET004BLU?
0140725205147621991050420003+40350-079933SAO  +0382AGC  V0209999C00001030001EN0240001N1+02061+00061999999ADDAG10999GD13991+0300019GF107991999999999999999999GP10060054001011032901016028001011GQ100600379923949GR100601059913449MA1101801999999MW1001
0088164800999991991011804004+36683+015133FM-15+0051LICO V0200301N00511004501CN0080001N1+01001+00801999999ADDAG12999GA1051+004509089GA2041+024009039MW1101REMMET031BKN QUK4 QUL3          ?     NE
0100014650999991991040212004+58400+008800FM-12+001599999V0202301N01081002101CN0050001N9+00631+00631098841ADDAG12001AY161061AY221061GF108991071071002501021999MD1210041+9999MW1601SA1+0499REMSYN011222// 00049
0179301510999991991082412004+58850+112900FM-12+020199999V0202001N002019999999N0008001N9+01391+00841102341ADDAG12000AJ100019199999999GF108991081091999999999999IA1279KA1120M+01661MA1999999099911REMSYN032333   10166 43001 555   11013 /-EQDQ01+000992SCOLCBQ02+104343APOSLPQ03+999990APOSLP
0125161580999991991072800004+43683+010383SY-MT+0001LIRP V0201701N00211220001CN0120001N1+01901+01731101171ADDAA106000091AG10000GF100991001001999999001001MA1101081101101MD1110101+9999MW1001REMMET015CAVOK NOSIG BLUEQDQ01+000000PRSWM2
0080154210999991991072803304+44550+026100FM-15+0095LROP V0209991V00101009001CN0040001N1+01601+01601999999ADDAG12999GA1021+003609079GA2051+009009059MA1100511999999MW1101REMMET008TEND 300
0050477780999991991012318004+33450+135767FM-12+007599999V0203601N00261220001CN0400001N9+00271-00361102631ADDAG12000GF101991011011999999001001MD1510081+9999
0148403620999991991120818004+29633+043483SY-MT+0447OERF V0201701N00571000301CN0002001N1+01901+01301101031ADDAG12000AY131061AY201061GA1091+999999999GF109991091999999999999999KA1120M+02911MA1101081095921MD1999999-0641MW1311REMSYN023333   10291 59064 89///
0120234630999991991111112004+65967+084350FM-12+004199999V0209991C00001021001CN0200001N9-00401-00551102191ADDAA199000391AG10000GF108991081001022501071999MA1999999101661MD1810031+9999REMSYN035333   9718/ 555   1/104 51042 53006
0336725915242571991030322003+40500-122300SAO  +0153RDD  V0201805N01135002135MN0240005N1+01225+01005101305ADDAG10999GA1999+002135085GA2999+007625065GD13065+0021099GD24025+0075099GF108085999999999999999999MA1101321099495MW1001OC102061REMAWY035CIG RGD PK WND         ?    1842/25EQDN01 00000JPWTH 0QNNE41 0 00408E41 0 00602G41 0 00007H41 0 11007H41 0 15025K41 0 00050L41 0 01500M41 0 29380N41 0 00000Q41 0 10130S41 0 00054V41 0 01010X41 0 18022
0124719520999991991071922004+54233-125767SAO  +0704YPZ  V0202801N00411015001EN0240001N1+01501+00201101401ADDAG10999GD13991+0150099GD23991+0390099GF107991999999999999999999MA1101291093011MW1001REMAWY009TCU7AC1 ?EQDQ01+999990APOSP 
0061071900999991991022720004+48550+007633FM-15+0154LFST V0202101N00211033001CN0022001N1+00301+00201999999ADDAG12999GA1051+033009039MA1101291999999MW1101REMMET005NOSIG
0065094960999991991080222004+51783+014317FM-12+0069ETCO V0203101N00201015001CN0100001N9+02081+01781101741ADDAG12999GF107991071051017501999999MA1999999100931MD1110081+9999
0326722170038131991022713003+32700-083650SAO  +0108MCN  V02099999000052200059N0192005N1+00005-00115102415ADDAA101000095AG10999GA1999+076205005GF100005999999999999999999GP10060004601010026901016002201010GQ100600849910339GR100600111912439MA1102401101075MW1001REMAWY006FEW CIEQDQ01+999990APOSP N01 00000JPWTH 0QNNE41 0 00000G41U0 99999H41 0 32250K41 0 00030L41 0 01200M41 0 29845N41 0 00000Q41 0 10241S41 0 00032V41 0 00000X41 0 00000
0071726566999991991092615009+43983-096317NSRDB+052999999V020999999999999999999999999999+99999+99999999999ADDGP10060033201017069601021006701017GQ100600676911559GR100600517913609
0058766013999991991032511454+20683-105250FM-15+0006MMPR V0209991C00001999991CY0099001N1+01601+01401999999ADDAG12000MA1101491999999REMMET005CAVOKEQDQ01+000000PRSWM2
0110134620999991991082609004+42367+019250SY-MT+0033LYTI V0200701N00101220001CN0150001N1+02921+01151101641ADDAG12000GF101991011001999999031001MA1101591101241MD1510011+9999MW1001REMMET011CAVOK NOSIGEQDQ01+000000PRSWM2
0077109350999991991111912504+47667+009517FM-15+0424EDTY V0201201N00211066001CN0112001N1+01101+00401999999ADDAG11999GA1011+012009089GA2031+024009039GA3051+066009009EQDQ01+000000PRSWM2
0105719090999991991121902004+63750-068533SAO  +0034YFB  V0201101N002612200019N0240001N1-02401-03001101171ADDAG11999GD13991+0660093GF107991999999999999999999MA1101081100691MW1761REMAWY005CI2 ?EQDQ01+999990APOSP 
0060824000999991991091717004-03850-032417FM-15+0056SBFN V0201701N00511004801CN0112001N1+02801+02301999999ADDAG10999GA1051+004809089MA1101081999999EQDQ01+000000PRSWM2
0096408410999991991031100004+30250+056967FM-12+1754OIKK V0209991C00001220001CN0100001N9+00941-00151100631ADDAA106000091AG14000GF100991001001999999001001MA1999999082001MD1710131+9999REMSYN011333   48452
0125727937999991991032615003+47900-122283SAO  +0185PAE  V0203301N004112200019N1200001N1+00331-00321999999ADDAG10000GF100991999999999999999999GP10060004101024026101027002001024GQ100600854909169GR100600104913179MA1100881999999MW1001
0084304930999991991040703004+55967+124883FM-12+086499999V0201901N00101075001CN0500001N9+00331-00891101411ADDAG12000GF108991001001999999001021MA1999999091271MD1810051+9999EQDQ01+999990APOSP 
0054724678999991991041604009+40517-106867NSRDB+214999999V020999999999999999999999999999+99999+99999999999ADDGP10060000001000000001000000001000GR100600000900009
0065167100999991991082315004+37533+022400FM-12+0652LGTP V0200401N00361007501CN0140001N9+02561+00991101731ADDAG12000GF107991051021008001071001MA1999999094421MD1410001+9999
0055038720999991991101812004+50817-000917FM-12+000499999V0203201N006219999999N9999999N9+01041+00331100931ADDAA106000091AG14000MD1210111+9999REMSYN011555   91150
0155724463139881991081120003+39117-094600SAO  +0231MKC  V0200601N00461015001EN0112001N1+02891+01441999999ADDAG10999GD13991+0150019GD23991+0360019GF107991999999999999999999GP10060065901011038301016032101011GQ100600281921559GR100601172913309MA1102301999999MW1001
0104992030999991991011011004+56300-148300FM-18+0003DB20 V0201301N007019999999N9999999N9+00311+99999100611ADDAG12999OA159900901SA1+0369UA1I140249999REMSYN05322200 00036 11405 70024 333   91209 555   11074 22079
0182617010999991991082221004+13350-016800SY-MT+0036GBYD V0202701N00461006001CN0100001N1+02721+02491101121ADDAG12001AY121031AY221031GA1041+003609059GA2021+006009099GF106991051091004501001031MA1101191999999MD1999999-0121MW1131REMSYN035333   59012 84612 82920 94646 95705EQDQ01+000000PRSWM2
0142726395148081991112707224+44450-083400SAOSP+0193OSC  V0201801N006710180019N0024001N1+99999+99999999999ADDAG11999GD16991+0001519GD22991+0051019GD34991+0180019GF108991999999999999999999MA1102131999999MW1851REMAWY031S4 WND 14V21     ?    DRFTG SNW
0088031110999991991052115504+55433-005700FM-15+0013EGQJ V0202901N00721006001CN0112001N1+01101+00901999999ADDAG12999GA1011+002409079GA2071+006009059MA1103121999999REMMET003WHTEQDQ01+000000PRSWM2
0058747300999991991101917004+30167-102417SAO  +0865P07  V0202701N006219999999N9999999N9+01501+00441999999ADDAG10999REMAWY020PK WND 17 ///000 RNOEQDQ01+000002VOVAR 
0137222490999991991052609004+67133+039667FM-12+014999999V0201801N00301005401CN0500001N9+00521+00251102771ADDAG12000GA1081+005409059GF108991081051004501999999MA1999999100891MD1210101+9999OA140100401REMSYN017333   88618 91004EQDQ01+999990APOSP 
0125724815999991991070901003+37283-120517SAO  +0047MCE  V0203401N002112200019N0240001N1+03391+01331999999ADDAG10999GF100991999999999999999999GP10060049601024078201027007901024GQ100600577927509GR100600704913219MA1101051999999MW1001
0140723193938071991013013003+36133-080217SAO  +0296INT  V0209999C00001000301WN0004001N1+01391+01001999999ADDAG10999GD15991+0003019GF109991999999999999999999GP10060000401011000001016000401011GQ100600870911439GR100600042908119MA1101461999999MW1451
0090112400999991991080513504+47000+015433FM-15+0347LOWG V0203301N00511220001CN0112001N1+02701+01501999999ADDAG12999GA1011+015009089GA2041+036009039MA1101801999999REMMET005NOSIGEQDQ01+000000PRSWM2
0054725103147121991062109009+40367-075967NSRDB+010499999V020999999999999999999999999999+99999+99999999999ADDGP10060000001000000001000000001000GR100600000900009
0168719280999991991102412004+52433-114917SY-SA+0989YRM  V0202401N001012200019N0140001N1-01481-01741101281ADDAA106000091AG14000GD12991+0300099GF102991999999999999999999KA1240M-00571KA2120N-01611MA1100641089361MD1410001+9999REMSYN017333   11057 21161AWY019AC2 /SOG 15/ 2006 ?
0078110120999991991011221004+48050+014133FM-12+038899999V0202601N002619999999N9999999N9+00421+00331102551ADDAA199001091AG10000AY141031AY241031MA1999999097791MW1401REMSYN011333   69997
0090477870999991991041104004+34050+131050FM-15+0007RJOZ V0201501N00211003001CN0030001N1+01601+01501999999ADDAG12999GA1021+001509079GA2061+003009079GA3081+009009059MA1100851999999MW1511REMMET002BR
0038082270999991991081301004+40483-003467FM-15+0608LETO V0209991C00001220001CN0112001N1+02101+00601999999ADDAG11999MA1101931999999REMMET004BLU?
0145102240999991991031805004+53050+008800FM-12+0005EDDW V0203001N00151018001CN0045001N9+00601+00561101281ADDAG12999AY121021AY221021GA1011+000909079GA2071+018009059GF107991071051000751999999MA1999999101221MD1210171+9999MW1101REMSYN017333   81703 87656
0047412160999991991072902344+24433+054467FM-15+0003OMAD V0201701N00101220001CN0080001N1+03001+02701999999ADDAG12000GA1031+045009039MA1099491999999MW1051
0144612330999991991080818004+15167-007283FM-12+0265GANK V0201801N00101045001CN0200001N9+03061+02141100831ADDAA106000091AG14000GA1011+009009059GA2061+045009039GF106991011041008001081001KA1120M+04161MD1999999-0091REMSYN029333   10416 59009 81630 86365
0145830950999991991100400004-10983-037067SY-MT+0009SBAR V0201001N00311220001CN0200001N1+02421+02051101341ADDAA106000091AG10999GF100991001001999999001001KA1240M+02901MA1101291999999MD1999999-0141REMSYN017333   10290 59014MET005CAVOKEQDQ01+000000PRSWM2
0150712635999991991012712004+43167-079933SAO  +0237YHM  V0202201N007212200019N0240001N1-00901-01101101311ADDAG10000GD12991+0240099GD22991+0750093GF102991999999999999999999MA1101151999999MD1610091+9999MW1001REMAWY040AC1CI1 G22 PST         ?    1/2HR 6009 ?
0069351730999991991122621004+51617+069800FM-12+031299999V0209991C00001220001CN0200001N9-02291-02691102251ADDAG12000GF100991001001999999001001MD1710141+9999EQDQ01+000002APC3  
0162414480999991991092518004+14583+049250SY-MT+0025OYAR V0209991C00001220001CN0100001N1+02601+02341100911ADDAA106000091AG14000GA1011+005409089GF101991011081004501001001KA1120M+02871MA1100911100701MD1999999+0051MW1001REMSYN023333   10287 58005 81818EQDQ01+000000PRSWM2
0076474250999991991121020004+42800+141667FM-15+0030RJCC V0201401N00211090001CN0112001N1-00801-01101999999ADDAG12999GA1011+010509089GA2071+999999009MA1101961999999EQDQ01+000000PRSWM2
0298725945242831991062702003+40983-124100SAO  +0062ACV  V0202605N002152200059N0240005N1+01285+00945101195ADDAG10999GD12995+0240019GD23995+0450013GF106035999999999999999999GP10060024101010031101016011401010GQ100600659928089GR100600539913229MA1101191100375MW1001EQDN01 00000JPWTH 0QNNE81 0 00299E81 0 00399G21U0 99999K21 0 00049L21 0 01500M11 0 29640N21 0 00000Q21 0 10119S21 0 00055V11 0 00804X21 0 26004
0064025260999991991052914204+57667+012300FM-15+0169ESGG V0203001N00511999991CY0099001N1+01801+00701999999ADDAG12999MA1101901999999REMMET011CAVOK NOSIGEQDQ01+000000PRSWM2
0141719360999991991082014004+62467-114450SAO  +0206YZF  V0200601N004610240019N0240001N1+00601-00201101351ADDAG10999GD12991+0036099GD22991+0090099GD33991+0240099GF107991999999999999999999MA1101251098821MW1001REMAWY011CF1SC3AC3 ?EQDQ01+999990APOSP 
0140724555999991991080622003+39133-096667SAO  +0322MHK  V0202001N006212200019N0240001N1+03671+01831101401ADDAG10999GD12991+0135019GF102991999999999999999999GP10060061301024042401027031101024GQ100600446925249GR100600944913289MA1101521999999MW1001
0131039570999991991050114004+52250-006333FM-12+002599999V0200401N01291220001CN0140001N9+00981+00451103121ADDAG12999AY101021AY201021GA1011+007509089GF101991011021008001001001MD1210181+9999MW1051OA149901851REMSYN023333   81825 92457 91136
0024475950999991991032203004+37750+140467FM-12+006999999V0200601N001019999999N9999999N9+00751-00431102461ADDAG12000MD1710301+9999
0071723416999991991020119009+34600-091567NSRDB+006899999V020999999999999999999999999999+99999+99999999999ADDGP10060041101017018101021030001017GQ100600519918319GR100600870914099
0066717260999991991050207004+47917-074617SAO  +0442WPK  V0209991C000019999999N0144001N1+00501+00501100281ADDAG10999MD1010111+9999MW1001REMAWY0270011       ?    (0000,0000)
0076716363999991991070718004+42300-082700SAO  +0184WDD  V02099999999999999999N9999999N9+99999+99999999999ADDAG10000REMAWY038099/29/20/3010+13/-/ 0001 STN PRES 888EQDQ01+000002VOVAR 
005476220099999199102271500N+28950-107850MEXIC+1932     V0209999C000059999999N000500599+01285+00285101615ADDAA199000095GF199999999999025005999999MD1999999-0244
0041111740999991991031615004+47333+015083FM-12+058099999V0201001N002119999999N9999999N9+01611-00191999999ADDAA106000091AG14000REMSYN011333   55310
0102826780999991991111812004-06767-043017FM-12+013899999V0202601N00151004201CN0200001N9+02531+02131101831ADDAA106000091AG14000GF108991061061004501031999MA1999999099851MD1999999+0141REMSYN017333   20/// 58014
0172238480999991991030806004+61100+072750FM-12+002799999V0200901N00201030001CN0040001N9-01821-02011103031ADDAA106999999AG14001AY171061AY271061GF108991081001999999021999KA1120N-02381MA1999999102541MD1710011+9999MW1711REMSYN017333   21238 93500EQDQ01+999990APOSP Q02  00002PRCP06
0133133480999991991120506004+43350+017800FM-12+0108LYMO V0202901N00201220001CN0200001N9+00181-00121101871ADDAA106000091AG14000GF102991999999999999999999IA1099IA2999-02409KA1120N+00031MA1999999100521MD1710081+9999REMSYN017333   20003 31124
0114222190999991991121209004+67617+033667FM-12+109399999V0203201N00401075001CN0500001N9-00641-00681999999ADDAG12000GF107991011051001501001021MA1999999087981ME1313509OA140100401OA249901201REMSYN023333   91004 91112 93523
0061063750999991991031203294+51650+005700FM-15+0021EHVK V0201801N00211999991CY0099001N1+00801+00601999999ADDAG12000MA1101391999999REMMET008CAVOK BLEQDQ01+000000PRSWM2
0074160800999991991052814104+45433+009283FM-15+0103LIML V0202401N00311220001CN0112001N1+02001+01001999999ADDAG12999GA1011+009009089MA1101591999999REMMET005NOSIGEQDQ01+000000PRSWM2
0140725336999991991051113003+40250-085400SAO  +0286MIE  V0209999C00001030001EN0048001N1+99999+99999999999ADDAG10999GD13991+0300019GF107991999999999999999999GP10060018801024014501027013501024GQ100600688908429GR100600484913399MA1102511999999MW1451
0050506580999991991092709004+48050+125883FM-12+023799999V0203401N00601220001CN0300001N9+00691-00261101441ADDAG12000GF102991021001999999031001MD1210021+9999
0030999999999991991060110564+47000-053633FM-18+9999DRIB V02099999999999999999N9999999N9-03341+99999099241ADDAG10999REMSYN011333   44635
0182478030999991991071721004+33883+130650FM-15+0033RJFA V0201501N00211010501CN0112001N1+02401+02301999999ADDAA124008091AG12000GA1021+006009089GA2051+010509089GA3051+030009039KA1999M+03001KA2999N+02401MA1100981999999REMMET044101/       ?     30/24 R008/ FCST 2103 NOSIGEQDQ01+000000PRSWM2
0175616410999991991090400004+14733-017500SY-MT+0024GOOY V0209991C00001220001CN0100001N1+02651+02361101621ADDAG12001AY111061AY211061GA1031+003909059GF103991031031004501001001MA1101591999999MD1999999+0131MW1131REMSYN029333   58013 83613 81930 95431MET009CB NE NSGEQDQ01+000000PRSWM2
0065994490999991991041505004+08917+165750FM-12+0002UJAP V0200701N009819999999N9999999N9+02741+99999100801ADDAG12999OA139901081REMSYN035333   91221 555   11019 22020 90500
0123727455949311991020307003+47383-092850SAO  +0412HIB  V0201801N003112200019N0160001N1-00101-00431101231ADDAG10999GD12991+0750013GF102991999999999999999999GP10060000001000000001000000001000GR100600000900009MA1101081999999MW1001
0072474790999991991051522154+43117+141383FM-16+0011RJCO V0201701N00821003601CN0112001N1+99999+99999999999ADDAG12999GA1021+002409079GA2061+003609079GA3071+009009059MW1501OC101291
0101064760999991991021819004+50033+005400FM-12+0557EBSU V0201001N00571007501CN0200001N9-00091-00621101661ADDAG12999GA1071+007509059GF107991071051008001999999MA1999999094851MD1110151+9999REMSYN011333   87625
0078152900999991991030423004+00000+999999FM-12+014799999V0209991C00001220001CN0060001N9-00181+99999999999ADDAG12999AY101021AY201021GF100991001001999999001001MW1101REMSYN011333   92600
0105718420999991991021713004+50117-091900SAO  +0390YXL  V0201701N001012200019N0240001N1-02501-02901101531ADDAG10999GD12991+0120099GF102991999999999999999999MA1101081096491MW1001REMAWY005SC1 ?EQDQ01+999990APOSP 
0076132240999991991062515004+44100+015367FM-12+0084LYZD V0202401N00201220001CN0200001N9+03201+01791101611ADDAA106000091AG14000GF103991011021012501001011MA1999999100661MD1810061+9999
0172289250999991991041706004+52950+055967FM-12+017999999V0201801N00401006301CN0500001N9+01191+00271101911ADDAA199004091AG10001AY181061AY221061GA1071+006309059GF108991071051008001001021KA1120N+00601MA1999999099751MD1210031+9999MW1021REMSYN017333   20060 87621EQDQ01+999990APOSP 
0074061100999991991121008004+55233+009267FM-15+0040EKSP V0201601N00261220001CN0112001N1-00301-00901999999ADDAG12999GA1031+024009039MA1104501999999REMMET005NOSIGEQDQ01+000000PRSWM2
0113872440999991991092212004-29900-063683FM-12+0341SACV V0201401N002619999999N0200001N9+01491+00631102241ADDAA106000091AG10999GF107991011061999999051001KA1120N+01021MD1310411+9999REMSYN011333   20102EQDQ01+000992SCOLCB
0048067450999991991121007004+00000+999999FM-12+134899999V0209991C000019999999N9999999N9-01681-01871999999ADDAG12999MA1999999087301MD1210031+9999ME1315489
0090166820999991991102614204+37917+021283FM-15+0012LGAD V0209991V00211220001CN0112001N1+01801+00601999999ADDAG12999GA1011+006009089GA2041+024009039MA1101901999999REMMET005NOSIGEQDQ01+000000PRSWM2
0121722030128441991020202254+26683-080117SAOSP+0006PBI  V0200101N003110114019N0160001N1+99999+99999999999ADDAG10999GD12991+0060019GD23991+0114019GD34991+0180019GF108991999999999999999999MA1102541102451MW1001EQDQ01+999990APOSP 
0079108600999991991070906504+48717+011533FM-15+0370EDSI V0203401N00211015001CN0112001N1+02001+01601999999ADDAG12999GA1011+012009089GA2071+015009059MA1102201999999MW1251REMMET007BLU BLU
0125724926232581991051515003+37633-120950SAO  +0030MOD  V0209999C000012200019N0480001N1+01561+00891999999ADDAG10000GF100991999999999999999999GP10060023301011059701016005701011GQ100600728907919GR100600395913379MA1101691999999MW1001
0168231740999991991040512004+68700+087267FM-12+004399999V0201401N00601021001CN0040001N9-00671-00911100331ADDAA199000591AG10001AY171061AY231061GF108991081001022501021999KA1120M-00661MA1999999099811MD1310051+9999MW1711REMSYN029333   11066 555   /107/ 51122EQDQ01+999990APOSLP
0093162630999991991082317004+41050+015233FM-15+1093LIRT V0202801N006719999999N9999999N9+99999+99999999999ADDAG11999REMMET039T 9OOO WCU020 19/11 SCT MON LIB VAL NILEQDQ01+000002VOVAR Q02+000000PRSWM2
0140943650999991991042900004-20483+148533FM-12+0021ABPN V0209991C00001220001CN0230001N9+00592+00062101141ADDAA106000091AG10999GF100991001001999999001001IA1099IA2999+00709MD1210021+9999REMSYN017333   00252 31007EQDQ01+027913ATOT  Q02+027383ATOD  
0058064000999991991121605154+51083+002650FM-16+0009EBFN V0201701N00411000601CN0038001N1+99999+99999999999ADDAG11999GA1071+000609079MW1101REMMET017AMB AMB TEMPO RED
0093115180999991991082602004+50100+014283FM-15+0366LKPR V0202601N00211999991CY0099001N1+01201+00901102151ADDAG11999MA1102101097781REMMET008CAVOK NOEQDQ01+999990APOSP Q02+999990APOSLPQ03+000000PRSWM2
0073714270999991991032111004+49317-067383SAO  +0005WTG  V0202901N002619999999N0144001N1-01401-02101101241ADDAG10999MA1999999101171MD1210391+9999REMAWY0062039 ?EQDQ01+999990APOSP 
0355725140147781991070221003+41250-076917SAO  +0158IPT  V0200705N00365005185MN0096005N1+02115+01785101115ADDAA199999929AG10000GA1999+005185065GD14085+0051019GF108085999051999999999999GP10060019901010000001016019901010GQ100600450926189GR100600932913219MA1101121099225MD1710121+9999MW1455REMAWY022RE05B10E20/ 71200 15//EQDN01 07000JPWTH 0QNNE41 0 00610G41 0 00017H41 0 15017K41 0 00064L41 0 00600M41 0 29300N41 0 07000Q41 0 10111S41 0 00070V41 0 01010X41 0 07007
0090013110999991991082309504+60300+005217FM-15+0050ENBR V0201601N00621220001CN0112001N1+02401+01001999999ADDAG12999GA1011+012009089GA2031+024009039MA1100711999999REMMET005NOSIGEQDQ01+000000PRSWM2
0087480970999991991091515004+16767+096167FM-12+001599999V0201801N00901045001CN0060001N9+02701+02481101071ADDAA106000091AG14000GF105991031031004501031011MD1999999-0031REMSYN017333   56499 59003
0030711310999991991063015004+49433-108983SAO  +1078WEH  V0202901N005119999999N0144001N1+01601+01401100601ADDAG10000MD1610031+9999MW1001
0076150950999991991080212004+46983+022633FM-12+031799999V0202301N00501036001CN0200001N9+02101+01531100521ADDAA106000091AG14000GF107991041021008001071001MA1999999096921MD1410001+9999
0065239330999991991070711004+60967+069067FM-12+0040USHH V0200201N00301075001CN0100001N9+02371+00891099991ADDAG12999GF106991021011008001001021MA1999999099451MD1710131+9999
0039476490999991991120913004+34767+136150FM-12+016599999V0202201N001519999999N9999999N9+00471+00111102851ADDAG12999MA1999999100791MD1110181+9999
0086038530999991991051502004+51000-002633FM-12+0023EGDY V0202801N00151010501CN0250001N9+00831+00251103261ADDAG12999GA1061+010509059GF106991061051012501001001MD1010021+9999REMSYN011333   86635
0166725098999991991052417003+42183-071183SAO  +0015OWD  V0202701N005112200019N0080001N1+02671+99999999999ADDAG10999GD16991+0001519GD23991+0750013GF107991999999999999999999GP10060093201024060301027037201024GQ100600219917289GR100601236913329MA1101631999999MW1051REMAWY002H4
0157789700999991991051709004+10617-061350SY-MT+0015TTPP V0209991C00001010501CN0120001N1+02381+02341101301ADDAG12003AY111031AY211031GA1021+006009089GA2051+010509059GF106991061081008001001001MA1101291101051MD1999999-0041MW1801REMSYN029333   02200 59004 82820 85635
0155724177137341991112914003+39400-077983SAO  +0170MRB  V0202401N005112200019N0240001N1+01331+00111102311ADDAG11999GD12991+0300019GD23991+0750013GF107991999999999999999999GP10060009601011007001016008201011GQ100600781913119GR100600289914069MA1102371999999MW1001
0159725715999991991120902003+40483-107217SAO  +2012HDN  V0200801N001512200019N0020001V1-00381-00711999999ADDAG11999GD16991+0001519GD22991+0114019GF102991999999999999999999GP10060000001000000001000000001000GR100600000900009MA1102441999999MW1001REMAWY012VSBY 50V1000
0044995780999991991101502004+61100+001100FM-18+9999DB57 V0200901N001019999999N9999999N9+00881+99999999999ADDAG12999MD1710031+9999REMSYN011555   00229
0152129350999991991012406004+46917+018033FM-12+010899999V0202301N00401003001CN0040001N9-00201-00371103281ADDAA106000091AG14000AY121061AY221061GA1081+003009079GF108991081061004501999999GJ100009KA1120N-00501MD1810131+9999MW1101REMSYN023333   21050 55000 88710
0180723656230491991062417003+35617-106083SAO  +1934SAF  V0201201N005112200019N9999999N9+99999+99999999999ADDAG10999GD12991+0300013GF102991999999999999999999GP10060074901011075401016014001011GQ100600359909919GR100601069913229MA1102201999999MW1001REMAWY012RJCT40  2776EQDQ01+000002VOVAR 
0104992360999991991102322004+41100-066600FM-18+0003DB23 V0200301N003019999999N9999999N9+01291+99999103081ADDAG12999OA159900301SA1+1349UA1I110089999REMSYN05322200 00134 11102 70008 333   91203 555   11029 22030
0130021640999991991011003004+66383+021633FM-12+026399999V0209991C00001030001CN0040001N9-01321-01511099631ADDAG12001AY171031AY221031GA1031+003309079GA2031+022509049GF106991031061004501021001MD1110081+9999MW1701REMSYN017333   83711 83598
0116548570999991991072418004+36067+120333FM-12+0077ZSQD V0202001N00601007501CN0180001N9+02321+02311099991ADDAA106027091AG10011AY191061AY281061GF108991081091008001999999KA1240M+02711MD1710161+9999MW1951REMSYN011333   10271
0058060800999991991072917504+55517+008550FM-15+0029EKEB V0200901N00361999991CY0099001N1+02201+01201999999ADDAG12000MA1101801999999REMMET005CAVOKEQDQ01+000000PRSWM2
0076011940999991991020710504+68467+017500FM-15+0023ENNK V0209991C00001010501CN0112001N1+00001-00101999999ADDAG12999GA1021+006009059GA2051+010509059MA1103891999999EQDQ01+000000PRSWM2
0119999999999991991031312004+42500+139400FM-13+9999UPSU V0202901N01201007501CN0100001N9-00211+99999101921ADDAG12001AY171061AY221061GF107991071051008001999999MD1410001+9999MW1701SA1+0609UA1M050259999REMSYN01722233 00060 20505
0110475450999991991061805004+39617+140217FM-15+0096RJSK V0203001N00461090001CN0112001N1+02601+01701999999ADDAG12999GA1011+012009089GA2071+999999009MA1100471999999REMMET025(WIND 260V34     ?     0)EQDQ01+000000PRSWM2
0108107170999991991051707004+49217+007617FM-15+0415EDIV V0203401N001510120019N0112001N1+00501+00201999999ADDAG12999GA1021+007809059GA2051+012009059GA3031+024009039MA1102071999999REMMET007CIGE040EQDQ01+000000PRSWM2
0075063400999991991010704294+51450+004333FM-15+0017EHWO V0202101N00461008401CN0112001N1+00701+00501999999ADDAG12999GA1011+004809059GA2061+008409059MA1099801999999MW1211REMMET003BLU
0140742300240371991032702003+46433-105867SAO  +0801MLS  V0203301N00671006601EN0320001N1-00431-00771101041ADDAG10999GD13991+0066019GF107991999999999999999999GP10060000401011000501016000401011GQ100600883927209GR100600015905159MA1100751999999MW1001
0293725250148521991021104003+41250-080667SAO  +0360YNG  V0202905N005252200059N0112005N1-00225-01005101355ADDAA101000095AG10999GA1999+015245065GD12045+0150019GF104045999999999999999999GP10060000001000000001000000001000GR100600000900009MA1101221096955MW1001EQDN01 00000JPWTH 0QNNE41 0 00205G41U0 99999H41 0 15050K41 0 00014L41 0 00700M41 0 28630N41 0 00000Q41 0 10135S41 0 00028V41 0 00505X41 0 29010
0063160610999991991101005004+45033+007733FM-15+0710LIMK V0209991C00001999991CY0099001N1+01201+01201999999ADDAG11999REMMET025CAVOK VAL FOSCHIA SKC SUPEQDQ01+000000PRSWM2
0063012710999991991052221504+63467+010933FM-15+0017ENVA V0203101N00881005401CN0112001N1+00501+00301999999ADDAG12999GA1011+004509099GA2051+005409089MA1101901999999MW1251
0223722287138711991102412003+33583-085850SAO  +0186ANB  V0200101N002610045019N0096001N1+01941+01781102251ADDAA106000091AG10000GD12991+0027019GD23991+0045019GD34991+0750019GF108991999999999999999999GP10060000001011000001016000001011GQ100600897910399GR100600000900819KA1999N+01941MA1102271999999MD1210101+9999MW1451REMAWY006210 67
0126783550999991991102615004+21400-077850FM-12+012499999V0201401N00101030001CN0200001N9+02851+02201101171ADDAG12000GA1021+009909089GA2051+030009039GF107991021021012501031021IA1019MD1110031+9999REMSYN029333   01999 30/// 82833 85360
0050062680999991991070322004+52533+005433FM-12+000299999V0200601N00461220001CN0100001N9+02101+01681102431ADDAG12999GF103991999999999999999999MD1110121+9999
0114280660999991991111300004+59667+067417FM-12+004199999V0201501N00301001501CN0020001N9-00251-00251101561ADDAG11000AY121061AY221061GA1081+001509079GF108991081061001501999999MD1710061+9999MW1101REMSYN017333   88705 93504
0289170960999991991113006004+39917+041267FM-12+1758LTCE V0200701N00311012001CN0200001N9+00401+00341999999ADDAA199000391AG19001AJ199992999999999AL10699999AL29999939AY171061AY221061GA1999+010509059GA2081+027009049GF108991051051012501021999IA1259IA2999+00009KA1120N+00021MA1101391082001MD1310021+9999ME1314659MW1021REMSYN054333   20002 3/100 41998 7000/ 8/635 88459 93197 10125:EQDQ01+999990APOA  
0038999999999991991020611114+32167-035133FM-18+9999DRIB V02099999999999999999N9999999N9+01781+99999102921ADDAG10999SA1+1849REMSYN011333   44551
0145102030999991991042215004+53350+007200FM-12+001299999V0203301N00671072001CN0300001N9+00861+00081101111ADDAG12001AY161031AY221031GA1041+006009089GA2031+072009009GF105991041021008001001021MA1999999100961MD1210051+9999MW1011REMSYN017333   84820 83074
0164719520999991991121217004+54233-125767SAO  +0704YPZ  V0203201N002112200019N0240001N1-00601-00801100291ADDAG12999GD12991+0039099GD22991+0120099GD32991+1050093GF102991999999999999999999MA1100001091811MW1001REMAWY034CF1SC1CI PRESRR        ?    TRCF ?EQDQ01+999990APOSP 
0250726430149201991112011003+43867-091250SAO  +0198LSE  V02099999000052200059N0080005N1-00225-00335999999ADDAG12999GD11995+0750013GF101005999999999999999999GP10060000001000000001000000001000GR100600000900009MA1101931999999MW1455REMAWY008VSBY NW2EQDN01 07000JPWTH 0QNNE81 0 00199G21U0 99999K21 0 00026L21 0 00500N21 0 07000S21 0 00028V11 0 00100X21 0 00000
0125932910999991991092518004-38667+177983FM-12+0008NZGS V0203101N00311220001CN0500001N9+00651+00541100611ADDAA106000091AG10999AY111061AY211061GA1011+006009089GF102991011081008001031001MD1310101+9999MW1031REMSYN017333   5659/ 81820
0155723067937261991071022003+35333-077617SAO  +0029ISO  V0202001N003612200019N0064001N1+03441+02391999999ADDAG10999GD12991+0105019GD22991+0600019GF102991999999999999999999GP10060037901025031301028020501025GQ100600562927489GR100600733913229MA1101251999999MW1051
