0128389110999991992041518004+37833+065200FM-12+024299999V0202001N00701036001CN0100001N9+02981+00841100691ADDAA106000091AG14000GF107991021091017501011999KA1120M+03261MA1999999098001MD1310231+9999REMSYN011333   10326EQDQ01+999990APOSP 
0122160720999991992012900004+45867+009067FM-12+1322LIMO V0209991C00001220001CN0120001N9+00051+99999999999ADDAA106000091AA212040091AG14000AJ100169199999999GF100991001001999999001001IA1279MA1999999100001REMSYN017333   43016 92840
0112724466039291992101418004+38850-094550SAO  +0333GVW  V0202001N006112200019N0241401N1+02381+01551100731ADDAA106000091AG10000GD12991+0135099GD22991+0360099GF102991999051999999031001MA1100811999999MD1410001+9999MW1001
0118226710999991992121706004+63983+044450FM-12+006099999V0201501N00401006301CN0260001N9-00721-01001101701ADDAA199000391AG10001AY181061AY221061GA1061+006309099GF108991081091008001999999MD1810251+9999MW1021REMSYN010 333 86921
0104718960999991992041905004+53883-122683SAO  +0691YXS  V0209991C000012200019N0240001N1+00601-00101102261ADDAG11999GD13991+0780093GF107991999999999999999999MA1102071093991MW1001REMAWY004CS ?EQDQ01+999990APOSP 
0059476430999991992112519004+35833+139417FM-15+0093RJTJ V0209991V00101220001CN0080001N1+00501+00101999999ADDAG11999GA1011+030009039MA1100511999999MW1101REMMET003058
0059107350999991992022310004+49250+008883FM-12+016999999V0202701N004619999999N0090001N9+00641-00101103201ADDAG12999MA1999999101111MD1210091+9999REMSYN011333   55302
0044999999999991992122404384-33933-132583FM-18+9999DRIB V02099999999999999999N9999999N9+99999+99999999999ADDAG10999MW1001SA1+1969REMSYN01154925     ?
0120104300999991992061708004+51783+008833FM-12+015899999V0203301N00151220001CN0250001N9+01481+00881102531ADDAG12999GA1011+006909089GF101991011011999999041001MA1999999100641MD1110031+9999REMSYN011333   81823EQDQ01+000992SCOLCB
0054911860999991992120411009+21150-157100NSRDB+013799999V020999999999999999999999999999+99999+99999999999ADDGP10060000001000000001000000001000GR100600000900009
0047108370999991992122218504+48217+009917FM-15+0549EDPM V0200101N00051000151CN0001001N1+00201+00201999999ADDAG11999GA1091+000159999MA1102511999999MW1451
0076010890999991992091616504+69733+029900FM-15+0091ENKR V0201301N00151060001CN0112651N1+01001+00601999999ADDAG11999GA1011+021009039GA2051+060009009MA1101291999999EQDQ01+000000PRSWM2
0537725720241271992072506003+40783-111950SY-SA+1286SLC  V0201705N003150365859N0320005N1+02285+00725101245ADDAA101000095AA206999929AA324999929AC11C9AG13002AY181061AY211061GA1999+024385085GA2999+036585035GD12025+0240019GD23035+0360019GF105055999011999999071991GP10060000001000000001000000001000GR100600000900009KA1240M+03061KA2240N+01441MA1101801087185MD1110121+9999MW1251REMSYN038 333 10306 20144 79999 90910 555 92506AWY022RB35E50/ 11200 1170 87EQDQ01+000052SCOTCVQ02+000003PRSWM2N01 00000JPWTH 0QNNE71 0 00202E71 0 00404G71 0 00120H71 0 11080H71 0 23120K71 0 00045L71 0 02000M71 0 25745N71 0 00000Q71 0 10124S71 0 00073V71 0 00606X71 0 17006
0136154450999991992081318004+00000+999999FM-12+008899999V0201101N00301220001CN0100001N9+02771+01911100861ADDAA106000091AG14000GA1001+999999999GF100991001001999999001001IA1019KA1120M+03481MA1999999099861MD1310031+9999REMSYN016 333 10348 30048
0170723663999991992091917003+36450-105667SAO  +2161SKX  V0201901N002512200019N0160931N1+01381+00831999999ADDAG11999GD12991+0060019GD22991+0078019GD32991+0096019GF102991999999999999999999GP10060064201024070801027017701024GQ100600489912799GR100600890913559MA1102241999999MW1001
0125999999999991992052706004+31200+133100FM-13+9999WSRL V0203401N00621036001CN0200001N9+02441+01501101051ADDAG12000GF105991011021002501031999MD1710251+9999SA1+2229UA1M040109999UG1070152009REMSYN03322215 00222 20402 320// 40703 ICE
0054722329999991992040403009+29717-091333NSRDB+000399999V020999999999999999999999999999+99999+99999999999ADDGP10060000001000000001000000001000GR100600000900009
0064714410999991992052109004+49033-097567SAO  +0251WGN  V0201701N005119999999N0144001N1+02101+01601101021ADDAG11000MA1999999098071MD1210131+9999MW1001EQDQ01+999990APOSP 
0115479180999991992091607004+24333+124167FM-15+0007ROIG V0200401N00561220001CN0112651N1+02901+02001100971ADDAG11999GA1021+009009089MA1100911100891REMMET014(WIND 010V070)EQDQ01+999990APOSP Q02+999990APOSLPQ03+000000PRSWM2
0076103430999991992071717504+52600+010017FM-15+0052EDCL V0202601N00511036001CN0080001N1+02401+01501999999ADDAG11000GA1031+018009059GA2071+036009039MA1101491999999EQDQ01+000000PRSWM2
0090851040999991992042514004-13067-064667FM-15+0140SLJO V0209991C00001999991CY0099001N1+03001+02601101031ADDAG11999MA1100911099461REMMET005CAVOKEQDQ01+999990APOSP Q02+999990APOSLPQ03+000000PRSWM2
0331723140138811992113012003+35217-080933SY-SA+0220CLT  V02099999000052200059N0160005N9-00065-00175102135ADDAA101000095AA206000091AG14000GF100005001001999999001991GP10060000001000000001000000001000GR100600000900009KA1240M+01221KA2120N-00111MA1102101099295MD1310021+9999REMSYN026 333 10122 21011 555 93012EQDN01 00000JPWTH 0QNNE71 0 00099G71U0 99999K71 0 00029L71 0 01000M71 0 29320N71 0 00000Q71 0 10213S71 0 00031V71 0 00000X71 0 00000
0323724340139941992062708003+38750-090367SAO  +0173STL  V0202705N002652200059N0240005N1+01675+01115101485ADDAA101000095AG11999GA1999+076205005GD11035+0750013GF103005999999999999999999GP10060000001000000001000000001000GR100600000900009MA1101521099485MW1001REMAWY00598768EQDQ01+999990APOSP N01 00000JPWTH 0QNNE71 0 00104G71U0 99999H71 0 32250K71 0 00052L71 0 01500M71 0 29375N71 0 00000Q71 0 10148S71 0 00062V71 0 00400X71 0 27005
0569912850215041992043015003+19717-155067SAO  +0008ITO  V0202505N002650109759N0128005N1+01945+01895101895ADDAA101000895AA299003091AG13002GA1999+005495085GA2999+007625085GA3999+010975065GA4999+015245065GD12999+0075019GD23045+0108019GD34025+0150019GD40025+9999999GF108085999081999999999999GP10060000001000000001000000001000GR100600000900009MA1101901101765MD1510081+9999MW1805REMAWY051FEW LWR          ?    CU/ RW- OCNLY RW+/ 50811 18//EQDQ01+999990APOSP N01 02300JPWTH 0P01    003SCCGD1QNNE71 0 00200E71 0 00405E71 0 00603E71 0 00002G71 0 00036H71 0 11018H71 0 11025H71 0 15036H71 0 15050K71 0 00066L71 0 00800M71 0 30050N71 0 02300Q71 0 10189S71 0 00067V71 0 01010X71 0 25005
0138724240138071992011205003+37900-085967SAO  +0230FTK  V0209999C000012200019N0112001N1+00111-00431101971ADDAG11999GD12991+0240019GD24991+0750013GF108991999999999999999999GP10060000001000000001000000001000GR100600000900009MA1101901999999MW1001
0050531920999991992040721004+44017+114950FM-12+112899999V0202201N00501220001CN0300001N9-00481-01261102411ADDAG12000GF100991001001999999001001MD1410001+9999
0077170500999991992083000004+41667+026567FM-12+004899999V0200101N00101220001CN0200001N9+02161+01841101341ADDAA106000091AG14000GA1001+999999999GF100991001001999999001001MD1010001+9999
0084294810999991992091021004+56850+095217FM-12+018899999V0209991C00001030001CN0500001N9+01141+00981100061ADDAG12000GF108991081001999999021999MA1999999097831MD1410001+9999EQDQ01+999990APOSP 
0090085940999991992121007004+16733-022950FM-15+0055GVAC V0200601N00361030001CN0112651N1+02001+01601999999ADDAG11999GA1021+004209059GA2041+030009039MA1101291999999REMMET005NOSIGEQDQ01+000000PRSWM2
0128359250999991992032306004+45400+056117FM-12+008299999V0200701N00501220001CN0200001N9-00291-00292102201ADDAA106000091AG14000GF100991001001999999001001KA1120N-01231MA1999999101081MD1310061+9999REMSYN011333   21123EQDQ01+999990APOSP 
0039066500999991992051819004+00000+999999FM-12+045699999V0200201N005119999999N9999999N9+01941+00691101721ADDAG12999MA1999999096501MD1210041+9999
0140723550139451992011416003+34650-098400SAO  +0362FSI  V0202401N001012200019N0112001N1+00061-00551102311ADDAG11999GD12991+0450019GF102991999999999999999999GP10060024301011054701017007701011GQ100600723913349GR100600429914149MA1102241999999MW1001
0123725377148041992030204003+42617-082833SAO  +0177MTC  V0203501N002612200019N0112001N1+00221+00001101631ADDAG11999GD12991+0180019GF102991999999999999999999GP10060000001000000001000000001000GR100600000900009MA1101591999999MW1001
0122066430999991992100221004+47250+007783FM-12+041699999V0209991C00001009001CN0030001N9+01161+01101101151ADDAG12001AW1101AZ161031AZ221031GA1081+009009079GF108991081071008001999999MA1999999096261MD1710131+9999REMSYN010 333 88730
0050586650999991992101209004+28650+120083FM-12+000999999V0203601N00401036001CN0200001N9+02041+01261101911ADDAG12000GF107991011011008001041999MD1210051+9999
0405722906931121992093020003+32700-117200SAO  +0015NZY  V0203405N006252200059N0112651N1+02675+01945101201ADDAG11999GD12991+0090019GD22991+0300019GF102995999999999999999999GP10060072901011063501016021501011GQ100600361917649GR100601102913649MA1101221999999MW1001EQDN01 00203KCLC1 3N02 00203KCLC2 3N03 00700DHZVS 3N04 29890EALTP 3N05 29860FPRES 3N06 00000JPWTH 3N07 10120ISLVP 3QNNE41 3 00203E41 3 00203G41U0 99999K41 0 00067L41 3 00700C41 3 29890M41 3 29860N41 3 00000Q41 3 10120S41 0 00080V41 0 00399X41 0 34012
0095101240999991992091813004+53867+008133FM-12+003199999V0201101N010319999999N0100001N9+01821+01551102081ADDAG12999MA1999999101701MD1710041+9999OA159901081SA1+1539REMSYN028 222// 00153 333 55310 91221
0047063700999991992110904554+51450+005417FM-15+0022EHEH V0201501N00301010201CN0050001N1+00501+00501999999ADDAG11999GA1071+010209059MA1102301999999MW1101
0141030050999991992120800004+60133-001183FM-12+008499999V0201301N00411030001CN0250001N9+00541+00201101261ADDAA106999929AG10001AY181999AY211999GA1031+010509059GA2071+030009039GF107991031051012501031999MD1210271+9999MW1031REMSYN017 333 83635 87360?
0150383530999991992061218004+42850+074533FM-12+063599999V02099999999999999999N0100001N9+01841+01311100911ADDAA199999929AG10000AY181061AY221061GF108991999999012501999999KA1120M+02461MA1999999093771MD1810161+9999MW1021REMSYN011333   10246EQDQ01+999990APOSP 
0085719044999991992062018004+61583-071933SAO  +0151YKG  V0203601N008812200019N0160001N1+00101+00001999999ADDAG11000GD12991+0006099GF102991999999999999999999MA1102781999999MW1001REMAWY004SAWR
0076471820999991992030905004+33500+126550FM-15+0027RKPC V0200501N00511009001CN0112001N1+01201+00901999999ADDAG11999GA1021+006009059GA2061+009009059MA1101901999999EQDQ01+000000PRSWM2
0051711944999991992051123004+47617-057633SAO  +0012WBF  V02099999999999999999N9999999N9+99999+99999102651ADDAG12999REMAWY013/0/2610/-/  ?EQDQ01+000002VOVAR 
0083267300999991992010604004+54633+025283FM-15+0156UMWW V0202601N00821220001CN0112001N1-00101-00401999999ADDAG11999GA1021+012009059MA1101391999999REMMET014NOSIG 204/0245EQDQ01+000000PRSWM2
0102719156999991992031519004+68633-095850SAO  +0046YHK  V0203401N010310015019N0008001N1-03001-03301100871ADDAG11999GD16991+0001599GD24991+0015099GF108991999999999999999999MA1100781999999MW1381REMAWY006BS8SC2
0096084820999991992061104304+36667-004483FM-15+0007LEMG V0203101N00511999991CY0099001N1+01501+00901101761ADDAG11999MA1101691101661REMMET011CAVOK NOSIGEQDQ01+999990APOSP Q02+999990APOSLPQ03+000000PRSWM2
0078719075999991992062519004+62183-075667SAO  +0226YZG  V0200601N00361000301WN0000001N1+00001+00001999999ADDAG11999GD15991+0003099GF109991999999999999999999MA1101051999999MW1451MW2511
0138725867241331992122810003+42550-113767SAO  +1265BYI  V0201101N003010420019N0160931N1-00341-00781100851ADDAG11999GD12991+0180019GD23991+0420019GF107991999999999999999999GP10060000001000000001000000001000GR100600000900009MA1100711999999MW1001
0122432790999991992031712004+13000+080183FM-12+0016VOMM V0202001N00411220001CN0100001N9+02961+02191100871ADDAA106000091AG14000GA1021+060009009GF102991001001999999001011KA1120M+03391MD1999999-0061REMSYN023333   10339 59006 82070
0093083060999991992081205004+39550+002733FM-15+0008LEPA V0209991C00001999991CY0099001N1+01601+01501102151ADDAG11999MA1102101102051REMMET008CAVOK NOEQDQ01+999990APOSP Q02+999990APOSLPQ03+000000PRSWM2
0378690140931011992032510003+33667-117733SAO  +0116NZJ  V02099999000052200059N0096005N1+01335+01005101611ADDAG11999GD12991+0090019GD22991+0600019GF102995999999999999999999GP10060000001000000001000000001000GR100600000900009MA1101661999999MW1055MW2455EQDN01 00203KCLC1 3N02 00203KCLC2 3N03 30025EALTP 3N04 29605FPRES 3N05 07081JPWTH 0N06 10161ISLVP 3QNNE41 3 00203E41 3 00203G41U0 99999K41 0 00050L41 0 00600C41 3 30025M41 3 29605N41 0 07081Q41 3 10161S41 0 00056V41 0 00399X41 0 00000
0087284810999991992100912004+56817+070617FM-12+007099999V0201801N00601030001CN0500001N9+00921-00121100201ADDAG12001AY161061AY221061GF108991081001999999071999MA1999999099261MD1210011+9999MW1211
0024039230999991992032222004+54233-006500FM-12+016199999V0202801N006719999999N9999999N9+00481+00231101071ADDAG12999MD1710181+9999
0149719310999991992021712004+54767-112017SY-SA+0567WLB  V0209991C00001005101EN0140001N1-01111-01251101671ADDAA106000091AG10000GD14991+0051099GF108991999999999999999999KA1240M-00591KA2120N-01161MA1999999094681MD1210121+9999MW1001REMSYN017333   11059 21116
0079876920999991992091814004-37933-057583FM-15+0021SAZM V0202501N00821003001CN0050001N1+01001+00801999999ADDAG11999GA1031+002709079GA2051+003009059MA1100811999999MW1501REMMET007NEBLINA
0085037960999991992062919004+51133+001350FM-12+011799999V0200301N00511024001CN0150001N9+02051+01321101361ADDAG12999GA1051+024009039GF105991051001999999081001MD1610081+9999REMSYN010 333 85358
0064714610999991992100803004+48300-088867SAO  +0218WAB  V0200401N008719999999N0128751N1+00501+00501101831ADDAG11000MA1999999099191MD1810021+9999MW1001EQDQ01+999990APOSP 
0145467520999991992050801004+21933+120833FM-15+0013RCKW V0202601N003110180019N0112001N1+03001+02501100941ADDAG11999GA1021+003609089GA2031+009609059GA3051+018009059MA1100911100751REMMET012CIG060     ?EQDQ01+999990APOSP Q02+999990APOSLPQ03+000000PRSWM2
0100084190999991992101315004+37183-003783SY-MT+0559LEGR V0202901N00411220001CN0200001N1+01701+00581101781ADDAG11000GA1041+007509089GF104991041081008001001001MA1101691095181MD1610081+9999EQDQ01+000000PRSWM2
0054722484999991992081307009+32533-093750NSRDB+005599999V020999999999999999999999999999+99999+99999999999ADDGP10060000001000000001000000001000GR100600000900009
0071727456999991992102113009+46767-092083NSRDB+018699999V020999999999999999999999999999+99999+99999999999ADDGP10060000201028000001031000201028GQ100600883910759GR100600016905419
0054724067999991992091804009+39317-076417NSRDB+000799999V020999999999999999999999999999+99999+99999999999ADDGP10060000001000000001000000001000GR100600000900009
0086870970999991992020415004-25733-054467FM-12+0270SARI V0200501N00261220001CN0200001N9+02831+02251100731ADDAG12000GA1041+009009089GF104991041021008001001001MD1810081+9999REMSYN011333   84830
0113918430999991992111406004-21200-159817FM-12+0007NCRG V0201401N00571220001CN0500001N9+02251+01841100771ADDAG12003AY181061AY281061GA1021+006309089GF102991021011008001001001MD1310161+9999MW1021REMSYN016 333 563// 82821
0071702717999991992101318004+62033-142667SAO  +07355SO  V0209991C000012200019N0643741N1-01671-01841999999ADDAG11000GF100991999999999999999999MA1102881999999MW1001REMAWY005NOSPL
0010992580999991992080720004+34300-120700FM-18+0003DB25 V0203001N003019999999N9999999N9+01561+99999101641ADDAG12999
0069717270999991992021722154+48333-071000SAOSP+0159YBG  V0202701N004110030019N0016001N1+99999+99999999999ADDAG12999GD15991+0030099GF109991999999999999999999MW1851REMAWY003S10
0212912180999991992122818003+13583-144933SAO  +0162PGUA V0200701N004110180019N0112651N1+02441+02051101221ADDAA106999929AG13000GD12991+0054019GD23991+0180019GD33991+0270019GD43991+1050019GF107991999081999999071081GP10060000001000000001000000001000GR100600000900009MA1101351999999MD1610101+9999MW1001EQDQ01  99993PRCP99
0121718110999991992082910004+50217-066267SAO  +0055YZV  V0200701N005110144019N0321871N1+01001+00801101831ADDAG11999GD12991+0021099GD24991+0144099GF108991999999999999999999MA1101801101151MW1001REMAWY006SF2SC8EQDQ01+999990APOSP 
0048476400999991992011010004+35500+138767FM-12+086199999V0202401N002119999999N9999999N9+00001-00921999999ADDAG12999MA1999999092001MD1110331+9999ME1314909
0267723140138811992020205003+35217-080933SAO  +0220CLT  V0203405N003652200059N0160005N1+00115-00895102035ADDAA101000095AG11999GF100005999999999999999999GP10060000001000000001000000001000GR100600000900009MA1102001099205MW1001EQDQ01+999990APOSP N01 00000JPWTH 0QNNE71 0 00099G71U0 99999K71 0 00016L71 0 01000M71 0 29295N71 0 00000Q71 0 10203S71 0 00034V71 0 00000X71 0 34007
0181718720999991992012300004+50017-110717SY-SA+0716YXH  V0201801N001512200019N0450001N1-00141-00821101741ADDAA106000091AG14000GD12991+0300099GD23991+0750093GF106991999999999999999999KA1120M+00211KA2180N-00391MA1101461093121MD1610041+9999MW1001REMSYN017333   10021 21039AWY011AC2CI3 6004
0146999999999991992050218004+30500-042800FM-13+9999UUXS V0201601N007019999999N0200001N9+02461+99999102121ADDAG12000GF106991999011008001001001MD1210351+9999SA1+2429UA1M030159999UG1100301209REMSYN03522200 00242 20303 31200 41006 50000EQDQ01+000032SCOTLC
0074173000999991992120814204+36700+030733FM-15+0057LTAI V0202101N00151220001CN0112651N1+01501+01201999999ADDAG11999GA1021+009009089MA1101391999999REMMET005NOSIGEQDQ01+000000PRSWM2
0140726463148971992050117003+44933-089633SAO  +0366AUW  V0202801N006212200019N0112001N1+02501+01441099971ADDAG12999GD13991+0750013GF107991999999999999999999GP10060035101011005101016030901011GQ100600348914219GR100601104913459MA1100001999999MW1001
0106062400999991992062408554+52300+004767FM-15-0002EHAM V0200401N00511007501CN0112651N1+01501+01101999999ADDAG11000GA1011+006001081GA2051+007501051GA3071+009601051MA1101391999999REMMET005NOSIGEQDQ01+000000PRSWM2
0050309380999991992011615004+49433+108900FM-12+094099999V0209991C00001220001CN0500001N9+99999+99999104931ADDAG12000GF102991001001999999001011MD1210161+9999
0280723910931111992100105003+34117-119117SAO  +0003NTD  V0200405N003152200059N0112005N1+01835+01725101315ADDAG11999GF100995999999999999999999GP10060000001000000001000000001000GR100600000900009MA1101321999999MW1001REMAWY031LAG PK 74/54/3219 NSI SEA 30604EQDN01 00000JPWTH 0QNNE41 0 00000G41U0 99999K41 0 00063L41 0 00700C41 0 29920N41 0 00000Q41 0 10131S41 0 00065V41 0 00099X41 0 04006
0057726399999991992031310004+45917-085917SAO  +0180P75  V0203601N000519999999N9999999N9-01211-01431999999ADDAG11999MA1101421999999REMAWY004000?EQDQ01+000002VOVAR 
0054724723930251992070807009+37617-109483NSRDB+184199999V020999999999999999999999999999+99999+99999999999ADDGP10060000001000000001000000001000GR100600000900009
0093083600999991992062622304+38283-000550FM-15+0031LEAL V0209991C00001999991CY0099001N1+02001+01801101731ADDAG11999MA1101691101361REMMET008CAVOK NOEQDQ01+999990APOSP Q02+999990APOSLPQ03+000000PRSWM2
0072470600999991992022718004+38717+125367FM-12+004799999V0200901N00401220001CN0000001N9+00471+00411101631ADDAG11000AY101061AY201061GF100991001001999999001001MD1210021+9999MW1101
0077620550999991992092100004+30717+020167FM-12+000799999V0209991C00001220001CN0100001N9+01981+01511101941ADDAA106000091AG14000GA1001+999999999GF100991001001999999001001MD1610141+9999
0341722660139621992041313003+32417-099683SAO  +0544ABI  V0200105N00265000915MN0004005N1+01115+01065102395ADDAA101000095AG12999GA1999+000915075GD14085+0009019GF108085999999999999999999GP10060001201010000001016001201010GQ100600855908189GR100600085910759MA1102471096025MW1455REMAWY022R35RVV1/2 SFC VSBY 1/2EQDN01 07000JPWTH 0QNNE71 0 00610G71 0 00003H71 0 16003K71 0 00051L71 0 00025M71 0 28355N71 0 07000Q71 0 10239S71 0 00052V71 0 01010X71 0 01005
0125834240999991992090309004-16633-049217SY-MT+0747SBGO V0209991C00001220001CN0200001N1+02121+01621101201ADDAA106000091AG11000GF105991021001022501031011MA1101691999999MD1999999+0101REMSYN010 333 58010MET005CAVOKEQDQ01+000000PRSWM2
0173999999999991992092800004+45800+161500FM-13+9999SHIP V0201701N02161000601CN0010001N9+01101+00901099501ADDAG12000AY141061AY221061GA1091+999999999GF109991091999999999999999MD1610101+9999SA1+1309UA1M110709999UG1090501809REMSYN030 22212 00130 21114 318// 40910EQDQ01+000482PRSWM1
0140725118147511992101520003+40217-076850SAO  +0106CXY  V0203401N002512200019N0160931N1+02551+01381999999ADDAG11999GD13991+0360013GF107991999999999999999999GP10060028101011003901016026201011GQ100600610922559GR100600666913769MA1101761999999MW1001
0074030880999991992110312004+56850-002267FM-12+013499999V0202401N009319999999N9999999N9+00641+00221100091ADDAA106000091AG14000MD1710011+9999REMSYN011 555 91151?EQDQ01  00003PRCP99
0084237880999991992112321004+62317+092133FM-12+006099999V0201401N00101075001CN0200001N9-03101-03401103251ADDAG12000GF108991001001999999001071MA1999999102361MD1710151+9999EQDQ01+999990APOSP 
0135076350999991992072409004+43217+002317FM-12+0130LFMK V0203001N00721006901CN0100001N9+02241+01691102131ADDAA106000091AG14000GA1021+004509059GA2041+006909059GF105991051051004501001001MD1010021+9999OA149901081REMSYN022 333 82615 84623 91121
0095999999999991992080206004+32500-015300FM-13+9999UIDZ V0200701N003019999999N0200001N9+02201+99999101801ADDAG12000GA1091+999999999GF109991091999999999999999MD1410001+9999SA1+2209REMSYN012 22213 00220
0101718813999991992071401004+53583-116467SAO  +0925ZET  V0202601N004112200019N0144841N1+01801+00701100421ADDAG11999GD12991+0180099GD22991+0270099GF102991999999999999999999MA1100371999999MD1710121+9999MW1001
0152722610220101992021601003+29367-100917SAO  +0307DRT  V0202901N001512200019N0128001N1+02111+00391999999ADDAA101000095AG11999GF100991999999999999999999GP10060000901024000101027000901024GQ100600870925389GR100600038907369MA1101421999999MW1001REMAWY007M 000 ?
0099717250999991992020209004+48067-077783SY-SA+0337YVO  V0209991C000012200019N0240001N1-02501-03001102271ADDAG11000GF100991001001999999001001MA1101831097831MD1810101+9999REMAWY0068010 ?EQDQ01+999990APOSP 
0134827040999991992080212004-07633-072667FM-12+0170SBCZ V0209991C00001220001CN0040001N9+02061+02031100881ADDAA106000091AG14000GF103991031011012501001001KA1999N+02031MA1999999098951MD1999999-0061REMSYN017 333 20203 59006?EQDQ01  00003PRCP99
0325726387148501992030406003+44733-085583SAO  +0188TVC  V0201805N00215002745EN0064005N1+00225+00065102355ADDAA106000091AG14000GD14995+0027019GF108085999999999999999999GP10060000001000000001000000001000GR100600000900009KA1999M+00441MA1102271099975MD1810101+9999MW1455REMAWY007810 40?EQDQ01  00003PRCP99N01 07000JPWTH 0QNNE21 0 00699G21 0 00009K21 0 00033L21 0 00400M21 0 29520N21 0 07000Q21 0 10235S21 0 00036V21 0 01010X21 0 18004
0203205940999991992082900004+74500+102500FM-12+001199999V0202601N00701008101CN0450001N9+00051-00211100411ADDAA106000091AA224000091AG14000AJ100009199999999GA1061+008109059GF107991061051004501041011IA1219KA1120N-00371MA1999999100251MD1310051+9999OA149901301REMSYN044 333 21037 45000 86627 91113 555 1/100 7000/
0094838180999991992062311004-23933-046300FM-15+0003SBST V0209991C00001999991CY0099001N1+01801+01701101751ADDAG12999MA1101691101711REMMET009CAVOK SKCEQDQ01+999990APOSP Q02+999990APOSLPQ03+000000PRSWM2
0095722439999991992072410124+28017-095867SAOSP+0023T46  V0201601N002512200019N0321871N1+02771+02551999999ADDAG11999GD12991+0060099GF102991999999999999999999MA1101731999999MW1001REMAWY014WT 32 SEAS 2-3
0113588530999991992012218004+27000+120700FM-12+010699999V0200201N00701220001CN0120001N9+00741+00241102581ADDAA106000091AG14000GF100991001001999999001001KA1999M+01051MD1710091+9999REMSYN011333   10105EQDQ01  00003PRCP99
0140746716938081992053111003+36967-086417SAO  +0167BWG  V0209999C000012200019N0048001N1+00941+00891102011ADDAG11999GF100991999999999999999999GP10060000601011000801016000601011GQ100600875906399GR100600029906759MA1102001999999MW1451REMAWY006FEW CI
0115717255999991992090600004+48200-078833SAO  +0301YUY  V0201801N002512200019N0241401N1+02101+01201102161ADDAA106000091AG10000GD12991+0720093GF102991999999999999999999MA1102101999999MD1810041+9999MW1001REMAWY009CI 8004 ?
0318725080147401992031223003+41933-072683SAO  +0049BDL  V0202605N009852200059N0400005N1+00065-01615100105ADDAA101000095AG11999GA1999+016765065GD12025+0150019GF102025999999999999999999GP10060002401010000001016002401010GQ100600854926219GR100600096912119MA1100071099425MW1001OC101441EQDN01 00000JPWTH 0QNNE71 0 00202G71U0 99999H71 0 15055K71 0 00003L71 0 02500M71 0 29360N71 0 00000Q71 0 10010S71 0 00033V71 0 00202X71 0 26019
0116035773999991992052922004+52367+000483FM-15+0010EGUN V0201001N002610045019N0080001N1+01601+01401999999ADDAG12999GA1031+002409079GA2041+004509059GA3031+006009059GA4031+013509059MA1101121999999MW1801REMMET012CIGM015 WHT?
0140718090999991992042103004+49217-057400SAO  +0022YDF  V0209991C000010042019N0192001N1+00401+00301101301ADDAG12000GD12991+0030099GD24991+0042099GF108991999999999999999999MA1101291101031MD1310081+9999MW1601REMAWY011SF2SC8 3008EQDQ01+999990APOSP 
0091411840999991992103015004+25617+055933SY-MT+0031OMRK V0200301N00211220001CN0100001N9+99999+99999101511ADDAG12000GA1011+009009059GF101991011041012501001001MD1999999-0131REMSYN016 333 59013 81630
0121485500999991992112012004+09467+100050FM-12+000799999V0209991C00001105001CN0060001N9+02721+02431101021ADDAA106000091AG10000AY121061AY221061GF107991011091008001001061KA1120M+02941MD1999999-0121MW1131REMSYN016 333 10294 59012
0162702757999991992112021003+60767-148683SAO  +00095WT  V0202301N010212200019N0321871N1+00051-00841101481ADDAG11000GD12991+0180019GF102991999999999999999999GP10060007101025009701028005701025GQ100600819916339GR100600198914029MA1101491999999MW1001OC101801REMAWY005NOSPL
0047025120999991992101310504+57783+011883FM-15+0053ESGP V0202201N00561002701CN0070001N1+00901+00901999999ADDAG11999GA1071+002709079MA1102001999999MW1581
0091916100999991992071503004+01350+172917FM-12+0004NGTA V0200201N00311045001CN0500001N9+03151+02431100921ADDAG11000AY111031AY221031GF106991021021008001051081MD1710181+9999MW1021REMSYN010 333 56899
0129718030999991992010901004+48950-054567SAO  +0151YQX  V0200201N007710024019N0012001N1-00201-00401100131ADDAG11999GD15991+0024099GF109991999999999999999999MA1100031098251MW1711OC101031REMAWY021S10 DRFTG SNW /S01/ ?EQDQ01+999990APOSP 
0174035020999991992080310004+52133-004567FM-12+0134EGUC V0202401N01081005101CN0220001N9+01511+01141100501ADDAG12999AY181011AY221011GA1011+003609099GA2031+004209089GA3051+005109089GF107991071031004501999999MD1110101+9999MW1801OA140101541REMSYN034 333 81912 83814 85817 90710 91130
0044107340999991992082722004+49400+008650FM-15+0109EDIE V0202801N00101220001CN0112651N1+02101+01601999999ADDAG11999MA1101121999999EQDQ01+000000PRSWM2
0101685240999991992070112004-30350+021817FM-12+096199999V0209991C00001220001CN0600001N9+01902+00401999999ADDAA106000091AG14000GA1001+999999999GF100991001001999999001001MA1999999091251MD1810181+9999ME1315649
0125722869999991992022502003+33950-117450SAO  +0249RAL  V0200101N007712200019N0800001N1+99999+99999999999ADDAG12999GF100991999999999999999999GP10060001501024000101027001501024GQ100600863925629GR100600061909439MA1101931999999MW1001
0039895640999991992071521004-67600+062867FM-12+001699999V0209991C000019999999N9999999N9-02851-03751099011ADDAG12000MA1999999098841MD1510191+9999
0039067110999991992051304004+00000+999999FM-12+046399999V0200301N002119999999N9999999N9+01111+00431102831ADDAG12999MA1999999097321MD1410001+9999
0136724096147061992081701003+40017-074600SAO  +0041WRI  V0200501N00201000901MN0112651N1+01941+01881102111ADDAG11999GD14991+0009019GF108991999999999999999999GP10060000001000000001000000001000GR100600000900009MA1102101999999MW1001REMAWY004WR//
0071104660999991992091723004+51517+011950FM-12+009399999V0209991C000019999999N9999999N9+00811+00741102411ADDAG12999KA1120N+00001MA1999999101281MD1310041+9999REMSYN010 333 20000
0083999999999991992012000004-13900+128800FM-13+9999VNXD V0202701N00621220001CN0200001N9+03231+02601101361ADDAG12000GF101991011011004501001001MD1210101+9999UA1M020109999REMSYN01122253 20202
0090119340999991992012808304+49067+020250FM-15+0707LKTT V0209991C00001220001CN0112001N1-00401-00501999999ADDAG11000GA1021+006909059MA1103391095071REMMET005NOSIGEQDQ01+999990APOSP Q02+000000PRSWM2
0104152970999991992091112004+45350+024250FM-12+134699999V0209991C00001007501CN0130001N9+01501+00921999999ADDAA106000091AG14000GF106991061021008001001001MA1999999087441MD1710071+9999ME1315889REMSYN010 333 95000
0373722110128421992070706003+27967-082533SY-SA+0006TPA  V02099999000052200059N0112005N9+02785+02505101775ADDAA101000095AA206000091AG14000GA1999+030485035GD12025+0300019GF102025021001999999071991GP10060000001000000001000000001000GR100600000900009KA1240M+03281KA2240N+02391MA1101761101735MD1010001+9999REMSYN026 333 10328 20239 555 90706EQDN01 00000JPWTH 0QNNE71 0 00203G71U0 99999H71 0 23100K71 0 00077L71 0 00700M71 0 30040N71 0 00000Q71 0 10177S71 0 00082V71 0 00302X71 0 00000
0170719390261141992112006004+68933-116917SY-SA+0016YUI  V0209991C000012200019N0240001N9-02801-03091102531ADDAA106000091AA224999929AG14000GF100991001001999999001001KA1240M-02151KA2240N-03041MA1102511102311MD1710061+9999REMSYN022 333 11215 21304 79999AWY020OBS TAKEN -10 7006 ?
0155724567139211992052119003+39367-094917SAO  +0235FLV  V0201801N00621012001EN0160001N1+03001+99999999999ADDAG11999GD13991+0120019GD23991+0750019GF107991999999999999999999GP10060084901025042201028045101025GQ100600196918959GR100601256913339MA1102101999999MW1001
0077716363999991992020418004+42300-082700SAO  +0184WDD  V02099999999999999999N9999999N9+99999+99999999999ADDAG11000REMAWY039103/2/-2/3220+25/-/ 0008 STN PRES 883 ?EQDQ01+000002VOVAR 
0123722895999991992121104003+34667-120467SAO  +0027LPC  V0200901N002512200019N0160931N1+01001+00771999999ADDAG11999GD12991+0120019GF102991999999999999999999GP10060000001000000001000000001000GR100600000900009MA1101761999999MW1001
0087081300999991992012509004+41500-005733FM-12+066099999V0200401N00101220001CN0015001N9-00381-00431103651ADDAG12000AY101031AY201031GF101991001001999999001021MA1999999095511MD1310121+9999MW1101
0137745980137021992070303003+37083-076367SAO  +0003LFI  V0201001N004112200019N0112651N1+02001+01721101691ADDAG11000GD12991+0105019GF102991999011999999001001GP10060000001000000001000000001000GR100600000900009MA1101661999999MD1210151+9999MW1001
0108026070999991992020315004+56300+012850FM-12+0047ESDB V0202701N00671006001CN0250001N9+00381+00181099311ADDAG12000GA1051+006009059GA2041+009909059GF106991061051008001001011MD1710021+9999REMSYN017333   85620 84633
0086716013999991992120809004+44550-065783SAO  +0152YID  V0203201N006110012019N0008051N1-00701-00701999999ADDAG11001GD15991+0012099GF109991999999999999999999MA1100541999999MW1381MW2731OC101331
0010948350999991992090820004-37283+143250FM-12+096599999V0201701N002119999999N9999999N9+00091-00101999999ADDAG12999
0109246520999991992061500004+63967+127467FM-12+009099999V0201801N00101220001CN0500001N9+01491+00901101861ADDAA106000091AG14000GF100991001001999999001001KA1120N+00741MA1999999100721MD1210031+9999REMSYN011333   20074
0054725473999991992022304009+41833-090333NSRDB+021699999V020999999999999999999999999999+99999+99999999999ADDGP10060000001000000001000000001000GR100600000900009
0119764594999991992070604404+23167-106267SAOSP+0010MZT  V0209991C00001024001EN0112651N1+03001+02101100011ADDAG11999GD13991+0240099GD23991+0300099GD34991+2100099GF108991999999999999999999MW1001REMAWY023BMSO RLPGS OCNL N 07790
0097999999999991992050812004+61700+176000FM-13+9999UNGG V0209991C00001220001CN0200001N9+00051+99999101661ADDAG12000GF102991011061002501001011MD1110081+9999SA1+0089UA1M000009999REMSYN01722200 00008 20000
0220209670999991992033003004+70167+072517FM-12+001699999V0200201N00901220001CN0210001N9-02491-02741100291ADDAA106000091AA224000091AG14000AJ100329199999999AY131031AY211031GF102991001001999999001011GJ100009IA1289MA1999999100041MD1210341+9999MW1361OA149901101REMSYN041333   44032 55000 91111 555   21249 7000/EQDQ01+999990APOSP 
0071724625999991992091514009+37150-107750NSRDB+203899999V020999999999999999999999999999+99999+99999999999ADDGP10060003601025002701028003301025GQ100600834909149GR100600156913529
0050578160999991992011003004+26583+106717FM-12+1074ZUGY V0200901N00301012001CN0200001N9+00101-00201103501ADDAG12000GF108991081051012501999999MD1210121+9999
0039475900999991992060516004+38267+140900FM-12+004399999V0203601N002119999999N9999999N9+01691+01501100891ADDAG12999MA1999999100381MD1710021+9999
0084308460999991992022903004+51350+112483FM-12+074199999V0202701N00401220001CN0500001N9-01311-02251103621ADDAG12000GF100991001001999999001001MA1999999094061MD1210181+9999EQDQ01+999990APOSP 
0045154200999991992081108304+44500+026133FM-15+0091LRBS V0200901N00301220001CN0090001N1+03001+01901999999ADDAG11000MA1101801999999MW1101REMMET005NOSIG
0140724095147921992100719003+40283-074817SAO  +0065TTN  V0209999C000012200019N0241401N1+01941+00501999999ADDAG11999GD12991+0750013GF102991999999999999999999GP10060053101011048701016023101011GQ100600519921329GR100600844913699MA1102571999999MW1001
0123723565999991992011213003+36767-096017SAO  +0218BVO  V0201701N00621004501EN0112001N1+00501+00221999999ADDAG12999GD14991+0045019GF108991999999999999999999GP10060000001000000001000000001000GR100600000900009MA1100751999999MW1001
0108036720999991992031711004+51550-000417FM-12+0040EGWU V0202201N00411075001CN0350001N9+01231+00361102881ADDAG12999GA1011+009009089GA2071+075009029GF107991011081012501031081MD1810071+9999REMSYN017333   81830 87275
0075100380999991992011106504+54317+009533FM-15+0017EDNQ V0202101N00151220001CN0070001N1-00401-00501999999ADDAG12999GA1011+005409059GA2031+999999009MA1102811999999MW1101REMMET003WHT
0076024180999991992110200504+59367+013467FM-15+0055ESSQ V0202301N00561005101CN0112651N1+00701+00501999999ADDAG11999GA1011+004509059GA2051+005109059MA1099801999999EQDQ01+000000PRSWM2
0058020440999991992110913204+67817+020333FM-15+0452ESNQ V0202101N00721999991CY0099001N1-00201-00501999999ADDAG11999MA1100511999999REMMET005CAVOKEQDQ01+000000PRSWM2
0146306860999991992072100004+53467+122400FM-12+029599999V0201101N00201000601CN0009001N9+01361+01341101061ADDAA106000091AG14000AY141061AY221061GA1091+999999999GF109991091999999999999999KA1120N+00781MA1999999097601MD1210041+9999MW1451REMSYN010 333 20078
0071702615999991992041705009+64833-147617NSRDB+014299999V020999999999999999999999999999+99999+99999999999ADDGP10060002801018000001022002801018GQ100600845928359GR100600130913569
0155725037947451992051400003+41067-073700SAO  +0134HPN  V0201901N002612200019N0192001N1+01891+01281100681ADDAG12000GD12991+0135019GD22991+0600019GF102991999999999999999999GP10060003501011004001016003101011GQ100600847929039GR100600125913379MA1100681999999MW1001
0058717480999991992040221004+48750-091617SAO  +0393WCH  V0202801N005119999999N9999999N9+00301-01201101401ADDAG11000MA1101151999999MD1710291+9999EQDQ01+000002VOVAR 
0071726499999991992050916009+43400-094750NSRDB+040199999V020999999999999999999999999999+99999+99999999999ADDGP10060034901025012601028025801025GQ100600434911369GR100600973913409
0136999999999991992102303004+42900+006200FM-13+9999FNYF V0202901N01291220001CN0200001N9+01151+00761100911ADDAG12001AY161031AY211031GA1001+999999999GF100991001001999999001001MD1510051+9999MW1011SA1+1779UA1M030159999REMSYN018 22264 00177 20303
0066404200999991992101001004+25283+049483FM-15+0172OEAH V0202401N00101220001CN0070001N1+02101+01401101291ADDAG11999MA1101291099251MW1051EQDQ01+999990APOSP Q02+999990APOSLP
0083408210999991992021415004+31900+054400FM-12+1230OIYY V0203401N00201220001CN0100001N9+00961-01801102031ADDAG12000GF100991001001999999001001KA1120M+01441MD1310011+9999REMSYN011333   10144
0162717990999991992042516004+48650-123433SAO  +0019YYJ  V0203001N002110720019N0480001N1+01501+00701101701ADDAG12999GD12991+0240099GD22991+0330099GD34991+0720099GF108991999999999999999999MA1101691101461MW1001REMAWY032AC3AC1CS3        ?    WZO 0509 ?EQDQ01+999990APOSP 
0140727964999991992083000003+48250-122667SAO  +005876S  V0202901N00411030001EN0112651N1+02051+99999999999ADDAG11000GD13991+0300019GF107991999999999999999999GP10060019701025009701028014401025GQ100600572924369GR100600726913409MA1101761999999MW1001
0060064560999991992051314254+50233+004650FM-15+0299EBFS V0201601N00311220001CN0112001N1+02201+00801999999ADDAG11999MA1102611999999REMMET007BLU BLUEQDQ01+000000PRSWM2
0057726530999991992070405084+43800-099317SAOSP+05309V9  V0200701N003019999999N9999999N9+01611+01051999999ADDAG11999MW1001REMAWY013PK WND 08 000EQDQ01+000002VOVAR 
0155725610240301992112220003+41100-102983SAO  +1312SNY  V0201901N00511036001EN0241401N1+00331-00171999999ADDAG11999GD13991+0360019GD24991+0750019GF108991999999999999999999GP10060016101011000001016016101011GQ100600627919369GR100600644914039MA1100141999999MW1001
0035716303999991992092801004+44233-079783SAO  +0251WET  V0203001N003619999999N9999999N9+01201+00701999999ADDAG11999MW1001EQDQ01+000002VOVAR 
0071701745999991992100404009+67500-148483NSRDB+058599999V020999999999999999999999999999+99999+99999999999ADDGP10060000001025000001028000001025GQ100600898925919GR100600001901259
0073994190999991992010218004+47083-090733FM-12+0192DISW V0201701N003119999999N9999999N9-00021+99999101731ADDAG12000MD1810141+9999OA139900411REMSYN029333   91208 555   11005 22006
0118038650999991992080300004+50900-001400FM-12+0009EGHI V0202401N00211012001CN0300001N9+01641+01441100871ADDAA106000091AG14000GA1041+002709079GA2081+012009059GF108991081051002501999999MD1810161+9999REMSYN016 333 84709 88640
0057106270999991992040713004+49850+007883FM-15+0103EDEH V0201301N003112200019N0112001N1+01201+00001999999ADDAG12999GA1011+009009059GA2011+060009029MA1100341999999
0104718280999991992022602004+54800-066817SAO  +0521YKL  V0202501N001512200019N0240001N1-01901-02601101631ADDAG11999GD12991+0600093GF102991999999999999999999MA1100981094891MW1001REMAWY004CI ?EQDQ01+999990APOSP 
0133970160999991992052106004+01433+125183FM-12+000399999V0201001N00101045001CN0140001N9+03131+02441100881ADDAA106000091AG14000AY121061AY211061GA1011+005409099GA2031+006009089GF106991041091004501041011MW1051REMSYN023333   56600 81918 83820
0071745966999991992122919009+39000-074917NSRDB+000799999V020999999999999999999999999999+99999+99999999999ADDGP10060037001028066801031009401028GQ100600656920229GR100600585914159
0037722527999991992041612009+29117-095467NSRDB+000899999V020999999999999999999999999999+99999+99999999999ADDGQ100600896907819GR100600001901029
0366702000266171992110704003+64500-165433SAO  +0004OME  V0200505N003150070159N0112005N1-00725-00835099625ADDAG11999GA1999+002135075GA2999+007015065GD12025+0021019GD24065+0069019GF108085999999999999999999GP10060000001000000001000000001000GR100600000900009MA1099631099545MW1001REMAWY0063ST7SCEQDQ01+999990APOSP N01 00000JPWTH 0QNNE71 0 00203E71 0 00607G71 0 00023H71 0 16007H71 0 15023K71 0 00017L71 0 00700M71 0 29395N71 0 00000Q71 0 09962S71 0 00019V71 0 01010X71 0 05006
0058719573999991992030917004+67200-130217SAO  +0063WLG  V0201701N003119999999N9999999N9-01701-02001100391ADDAG11999MD1510011+9999REMAWY0065001 ?EQDQ01+000002VOVAR 
0109123000999991992042012004+52750+015283FM-12+007399999V0203501N00901007501CN0200001N9+00851-00511101841ADDAA106999929AG10001AY181061AY221061GF105991051091008001001001MD1310051+9999MW1151REMSYN017555   43518 QNT18
0106100040999991992082812004+54167+006350FM-12+000099999V0202301N011319999999N0090001N9+01821+01511100111ADDAG12000MA1999999100111MD1210011+9999OA149901651OA259901391SA1+1809REMSYN028 222// 00180 333 91132 91227
0061170380999991992101801004+41000+039717FM-15+0030LTCG V0202301N00151999991CY0099001N1+01301+00601999999ADDAG11999MA1101591999999REMMET008CAVOK NOEQDQ01+000000PRSWM2
0080014390999991992051818004+61200+008233FM-12+086499999V0202401N00461220001CN0400001N9+01981+00501999999ADDAA106000091AG14000GF102991011001017501041011KA1120M+02121REMSYN011333   10212
0036154630999991992032605004+00000+999999FM-12+004999999V0201801N00201220001CN0100001N9+00681+99999999999ADDAG12999GF100991001001999999001001
0154727566999991992110116003+43667-092933SAO  +0375AUM  V0200701N00971003001MN0160931N1+00441+00381999999ADDAG11999GD14991+0030019GF108991999999999999999999GP10060008401024000001027008401024GQ100600671914169GR100600539913899MA1100951999999MW1001REMAWY005NOSPL
0048066050999991992011305004+00000+999999FM-12+163199999V0200701N013419999999N9999999N9-00161-01141999999ADDAG12999MA1999999084301MD1210031+9999ME1315659
0133722895999991992090422003+34667-120467SAO  +0027LPC  V0202801N008712200019N0160931N1+02221+01221999999ADDAG11999GF100991999999999999999999GP10060084201025085001028014501025GQ100600347922139GR100601104913449MA1101591999999MW1001OC101081
0074401800999991992083116504+32000+034900FM-15+0049LLBG V0203601N00361220001CN0112651N1+02801+02301999999ADDAG11999GA1011+007509059MA1100911999999REMMET005NOSIGEQDQ01+000000PRSWM2
0085084950999991992102709004+36150-005350FM-12+0005LXGB V0202501N00721220001CN0500001N9+01841+01231101791ADDAG12000GA1011+090009009GF101991001001999999001021MD1210191+9999REMSYN010 333 81080
0153360340999991992122800004+51500+081217FM-12+021599999V0202101N00501220001CN0200001N9-01531-01661102431ADDAA199000391AG10000AJ100149199999999GA1001+999999999GF100991001001999999001001IA1249KA1120N-01601MA1999999099511MD1210061+9999REMSYN016 333 21160 48014
0153726225047421992102011003+44650-073467SAO  +0072KPBG V0202601N001010090019N0241401N1+00271+00051102541ADDAG11999GD12991+0060019GD23991+0090019GD33991+0270019GF107991999999999999999999GP10060000001000000001000000001000GR100600000900009MA1102511999999MW1001
0123723654999991992012713003+35883-106283SAO  +2179LAM  V0209999C000012200019N0480001N1-00381-01431999999ADDAG11999GD12991+0300019GF102991999999999999999999GP10060000001000000001000000001000GR100600000900009MA1102201999999MW1001
0106333010999991992012209004+50583+026133FM-12+023499999V0202701N00401220001CN0040001N9-00981-01101104351ADDAG12000AY111031AY211031GF105991001001999999001011MA1999999101281MD1310031+9999MW1101EQDQ01+999990APOSP 
0135265240999991992101212004+55933+023317FM-12+010899999V0203601N00301002401CN0020001N9+00001-00061101251ADDAG12001AY181061AY221061GA1081+002409079GF108991081031002501999999MA1999999099901MD1110291+9999MW1861REMSYN023 333 88708 555 1/000 /-
0069959890999991992061523004-41867+148300FM-12+001099999V0202501N00211220001CN0500001N9+00501+00091999999ADDAA106000091AG14999AY101999AY201999GF100991001001999999001001MW1021
0089714770999991992020908004+54167-131667SAO  +0007WRO  V0202201N002119999999N9999999N9+00401+00301100861ADDAG11999MA1999999100761MD1610031+9999REMAWY0066003 ?EQDQ01+999990APOSP Q02+000002VOVAR 
0146722686230081992111606003+34383-103317SAO  +1309CVS  V0202301N003612200019N0241401N1+00611-00281101881ADDAA106000091AG10000GF100991999999999999999999GP10060000001000000001000000001000GR100600000900009KA1999M+02161MA1102201999999MD1110021+9999MW1001
0049719523999991992031316004+54300-130600SAO  +0027WLC  V02099999999999999999N9999999N9+99999+99999999999ADDAG12999REMAWY011//1306/-/ ?EQDQ01+000002VOVAR 
0052999999999991992012218004+53200+159600FM-13+9999UWPJ V02099999999999999999N0100001N9-00921+99999100731ADDAG12000MD1210041+9999SA1-0109REMSYN01122200 01010
0165852230999991992111715004-17450-066100SY-MT+2531SLCB V0209991C00001024001CN0500001N9+01851+01071999999ADDAA106000091AG14000GA1021+009009089GA2041+024009039GA3051+060009009GF107991021081012501031061MD1810041-0131REMSYN028 333 59013 82830 84358 85070EQDQ01+074583APOSP 
0138727645240121992021505003+46800-102800SAO  +0789DIK  V0203001N004112200019N0320001N1-00211-00381100961ADDAG11999GD12991+0300019GD23991+0750013GF107991999999999999999999GP10060000001000000001000000001000GR100600000900009MA1100681999999MW1001
0096154770999991992011503004+44083+026633FM-12+003299999V0202401N00901220001CN0100001N9+00261-00231101821ADDAA106000091AG14000GF100991001001999999001001MA1999999101421MD1710181+9999REMSYN011333   92437
0293723183138771992010610003+36483-082400SAO  +0465TRI  V0202805N00215007625MN0112005N1+00335+00115101235ADDAA101000095AG11999GA1999+007625065GD14085+0075019GF108085999999999999999999GP10060000001000000001000000001000GR100600000900009MA1101191095735MW1001EQDN01 00000JPWTH 0QNNE71 0 00610G71 0 00025H71 0 15025K71 0 00034L71 0 00700M71 0 28270N71 0 00000Q71 0 10123S71 0 00038V71 0 01010X71 0 28004
0050387130999991992071421004+39900+068983FM-12+100699999V0201701N00201036001CN0270001N9+01901+01241999999ADDAG12000GF108991021051012501071011MD1710131+9999
0161716010999991992100207004+44633-063500SAO  +0051YAW  V0202801N00511014401MN0241401N1+00401-00101100971ADDAG12999GD14991+0144099GF108991999999999999999999MA1100981100381MD1710021+9999MW1001REMAWY015SC10 MCNAB 3114EQDQ01+999990APOSP Q02+000032APCTENQ03+001142APC3  
0092616270999991992032612004+15383-015117FM-12+0021GOOG V0200601N00311069001CN0100001N9+03511+00351101221ADDAG12000GA1061+069009009GF106991001001999999001021MD1999999+0111REMSYN017333   58011 86073
0059100420999991992061008004+54667+010033FM-12+001099999V02099999999999999999N0100001N9+01501+01301101831ADDAG12999MA1999999101711MD1210081+9999REMSYN011333   55307
0114130260999991992061208004+46483+015683FM-15+0265LYMB V0203501N00511009001CN0040001N1+01401+01401100741ADDAG12999GA1021+003909079GA2051+009009059GA3081+012009049MA1100711097651MW1631EQDQ01+999990APOSP Q02+999990APOSLP
0010992650999991992120916004+40433-124500FM-18+0003DB26 V0201501N005019999999N9999999N9+01131+99999101781ADDAG12999
0162725450149901992050921003+41883-091700SAO  +0265CID  V0201501N007712200019N0240001N1+02831+00171101251ADDAA199000091AG14000GF100991999999999999999999GP10060077001011078001016017001011GQ100600396924329GR100601031913409MA1101291999999MD1810141+9999MW1001REMAWY003814
0071726064999991992051200009+43400-070717NSRDB+007499999V020999999999999999999999999999+99999+99999999999ADDGP10060002101025000801028002001025GQ100600857929139GR100600091912169
0133726455999991992101316003+44133-087683SAO  +0198MTW  V0202701N008712200019N0160931N1+00881-00781999999ADDAG11999GF100991999999999999999999GP10060046801024069901027011401024GQ100600596914299GR100600695913749MA1101121999999MW1001OC101181
0170725207999991992060511003+40283-079400SAO  +0361LBE  V0200301N003110072019N0192001N1+01611+01281999999ADDAG11999GD12991+0054019GD23991+0072019GD34991+0210019GF108991999999999999999999GP10060003101025000001028003101025GQ100600836906559GR100600147913269MA1100951999999MW1001
0115467580999991992090208004+22700+120483FM-15+0029RCSQ V0203201N003010096019N0060001N1+03001+02601100541ADDAG11999GA1031+003609079GA2071+009609059MA1100511100191MW1051REMMET008CIG032 ?EQDQ01+999990APOSP Q02+999990APOSLP
0090070550999991992060314004+49467+002117FM-15+0111LFOB V0203401N00411030001CN0112001N1+01701+01401999999ADDAG12999GA1031+004809089GA2071+030009049MA1101291999999REMMET005NOSIGEQDQ01+000000PRSWM2
0065014940999991992022009004+59383+010783FM-12+0053ENRY V0209991C00001075001CN0750001N9+00001-00171102241ADDAG12000GF105991011051012501071021MA1999999101561MD1210031+9999
0071150730999991992111022004+47200+026367FM-12+038999999V0209991C00001220001CN0200001N9-00181+99999999999ADDAG12999GA1001+999999999GF100991001001999999001001REMSYN010 333 92600
0185727935242341992020919003+47533-122300SAO  +0005BFI  V0203301N002610150019N0096001N1+01001+00781999999ADDAG12999GD12991+0120019GD23991+0150019GD34991+0300019GF108991999999999999999999GP10060009501011000001016009501011GQ100600674915039GR100600540914059MA1100751999999MW1451REMAWY006BINOVC
0276719480272021992100512004+70167-124683SY-SA+0017ZUE  V0203201N01231001201WN0008001V1-00521-00631101651ADDAA106002091AA224003091AG14001AJ100109199999999AL19900291AY171061AY231061GD15991+0012099GF109991999999999999999999IA1269KA1240M-00061KA2120N-00561MA1101631101421MD1210301+9999MW1381MW2711OC101591REMSYN040 333 11006 21056 42010 70030 90999 93102AWY024BS10 VSBY 1/4-3/4 2030 ?
0107102910999991992051709004+53033+014000FM-12+005599999V0203001N00511015001CN0200001N9+01221+00851102891ADDAG12000GA1051+015009089GF107991051021017501001021MA1999999102221MD1010051+9999REMSYN017333   553// 85850
0066549380999991992070403004+35050+118350FM-12+008699999V0200701N00301220001CN0150001N9+03001+01441100351ADDAG12000GA1001+999999999GF100991001001999999001001MD1710011+9999
0098071210999991992031400004+48850-003000FM-12+003699999V0203001N01231021001CN0250001N9+00981+00821101521ADDAA106000391AG10000GF108991081001022501051999MD1210201+9999OA149901961REMSYN017333   91138 92458
0058012230999991992101706504+63117+007833FM-15+0062ENKB V0201001N00151999991CY0099001N1-00301-00501999999ADDAG11999MA1099191999999REMMET005CAVOKEQDQ01+000000PRSWM2
0124305140999991992050300004+54417+103250FM-12+042099999V0209999999999075001CN0200001N9+00081-00281102001ADDAA106000091AA224000091AG14000GF108991001001999999001071KA1120N-00041MA1999999096741REMSYN029333   21004 555   1000/ 7000/
0105523780999991992041200004+41367+102367FM-12+096099999V0202201N00701090001CN0300001N9+00941-02771101671ADDAA106000091AG14000GF107991001001999999001021IA1019IA2999+00189MD1210111-0301REMSYN017333   05307 30018
0156039690999991992020913004+53433-006250SY-MT+0085EIDW V0202501N00821060001CN0250001N1+00751+00381100061ADDAG12999AY181011AY221011GA1011+004809079GA2061+060009009GF107991021081004501031021MA1100001999999MD1110141+9999MW1801REMSYN017333   81716 86070MET005NOSIG
0076442560999991992052603004+49550+114400FM-12+070599999V0202501N00401090001CN0500001N9+02541+01031100101ADDAA106000091AG14000GF105991031001999999081021MA1999999092421MD1810191+9999
0053999999999991992100212004+54200+007400FM-13+9999DBBC V0201801N005719999999N9999999N9+01431+01331101481ADDAG12000MD1710091+9999SA1+1599REMSYN012 22261 00159
0058061200999991992062012504+55467+010333FM-15+0017EKOD V0203401N00311999991CY0099001N1+02301+00601999999ADDAG12999MA1102001999999REMMET005CAVOKEQDQ01+000000PRSWM2
0061484560999991992030402004+13917+100600FM-15+0012VTBD V0202401N00461220001CN0060001N1+02601+02101999999ADDAG11999GA1031+090009009MA1101191999999MW1101REMMET005NOSIG
0100614980999991992013106004+16633-011400FM-12+0115GQNF V0203601N00311220001CN0100001N9+01961+00051101281ADDAA106000091AG14000GF100991001001999999001001KA1120N+01861MD1999999-0021REMSYN017333   20186 59002
0140719090999991992052208004+63750-068533SAO  +0034YFB  V0203201N006712200019N0320001N1-01501-01701102021ADDAG11999GD12991+0090099GD22991+0390099GD33991+0630093GF107991999999999999999999MA1102001101601MW1001REMAWY010SC2AC1CI ?EQDQ01+999990APOSP 
0123723300999991992091908003+36767-090467SAO  +0146P02  V0200101N003619999999N9999999N9+01831+00881999999ADDAG11999GP10060000001000000001000000001000GR100600000900009MA1101661999999MW1001REMAWY013PK WND 15 000EQDQ01+000002VOVAR 
0076710430999991992030601004+65283-126800SAO  +0074YVQ  V0209991C000012200019N0240001N1-02601-03201103221ADDAG11999GF100991999999999999999999MA1103081102201MW1761EQDQ01+999990APOSP 
0113718930999991992060204004+49717-124900SAO  +0024YQQ  V0203201N006712200019N0320001N1+01501+00501101971ADDAG12999GD12991+0150099GF102991999999999999999999MA1101961101671MW1001OC100931REMAWY005SC3 ?EQDQ01+999990APOSP 
0164479180999991992022009004+24333+124167SY-MT+0007ROIG V0203601N00671004501CN0150001N1+01471+01081101891ADDAG12004AY161031AY221031GA1051+004509089GA2071+015009059GA3081+024009039GF108991061021999999021999MA1101831101811MD1310251+9999MW1601MW2611REMMET014(WIND 320V050)
0178946720999991992040517004-34933+138517SY-MT+0004APAD V0200101N00571003901CN0100001N1+01961+01901101431ADDAA106006091AG10999AY161021AY261021GA1031+002409079GA2061+003909079GF108991081071002501999999MA1101291101381MD1710071+9999MW1601MW2611REMMET033FM 1700HR 5000 80RASH/52DZ 7ST008
0093571060999991992050721004+33750+105750FM-12+112899999V0209991C00001036001CN0130001N9+01521+01241100821ADDAA124999929AG19001GF108991081001999999021999MD1210011-0101MW1601REMSYN017333   05104 79999
0060839370999991992112218004-29717-053700FM-15+0085SBSM V0201601N00251220001CN0112651N1+02501+01501999999ADDAG11000GA1041+009009089MA1101391999999EQDQ01+000000PRSWM2
0170151110999991992092306004+46917+026833FM-12+021799999V0209991C00001220001CN0040001N9+00541+00541102801ADDAA106000091AG10000AY101061AY201061GA1001+999999999GF100991001001999999001001IA1099IA2120+00309KA1120N+00251MA1999999100121MD1310031+9999MW1101REMSYN016 333 20025 31003
0161670230999991992112603004-14283+050167FM-12+0005FMNS V0209991C00001012001CN0250001N9+02201+01981101491ADDAA112000191AG10003AY161031AY221031GA1041+006009089GA2021+012009059GF106991061081008001001001MA1999999101431MD1310011+9999MW1151REMSYN022 333 69912 84820 82640
0091747960128041992122313084+27650-081333SAOSP+0020AGR  V0209999C000012200019N0048281N1+99999+99999999999ADDAG11999GD12991+0135019GF102991999999999999999999MA1102401999999MW1051EQDQ01+000100PRSWM2
0105719460999991992052907004+61750-121233SAO  +0169YFS  V0209991C000012200019N0240001N1+00901+00601101181ADDAG12999GD12991+0210099GF102991999999999999999999MA1101121099111MW1001REMAWY005AC1 ?EQDQ01+999990APOSP 
0025896600999991992022106004-66283+162333FM-12+003099999V02099999999999999999N9999999N9-00111+99999098521ADDAG12000MA1999999098151
0112132720999991992112209304+44817+020283FM-15+0099LYBE V0201401N00201018001CN0112651N1+00501+00401101641ADDAG11999GA1041+002409079GA2081+018009049MA1101591100421MW1631REMMET005NOSIGEQDQ01+999990APOSP Q02+999990APOSLP
0090600300999991992120201304+27933-015383FM-15+0025GCLP V0200301N00661999991CY0099001N1+01801+01301102361ADDAG11999MA1102301101801REMMET005CAVOKEQDQ01+999990APOSP Q02+999990APOSLPQ03+000000PRSWM2
0170723440139641992051223003+35333-094367SAO  +0141FSM  V0203001N003112200019N0112001N1+02941+02001101131ADDAA101000095AG11999GF100991999999999999999999GP10060040701011037901016021001011GQ100600586927119GR100600696913389MA1101191099501MW1001REMAWY006FEW CUEQDQ01+999990APOSP 
0137703625999991992122217003+59233-135433SAO  +0010Z26  V0203201N00361018001EN0241401N1-01001-01121999999ADDAG11999GD13991+0180019GF107991999999999999999999GP10060000001000000001000000001000GR100600000900009MA1102611999999MW1001REMAWY005NOSPL
0163726184999991992062100003+44050-070283SAO  +0088LEW  V0201601N003610006019N0016001N1+01611+01391999999ADDAG11000GD16991+0001519GD24991+0006019GF108991999999999999999999GP10060002301025000001028002301025GQ100600817929499GR100600191913229MA1100781999999MW1001OC100721
0140722235138381992032014003+30633-088067SAO  +0008BFM  V0203301N005112200019N0240001N1+00831+00061999999ADDAG11999GD12991+0750019GF102991999999999999999999GP10060026001011049701016009501011GQ100600706910209GR100600456913789MA1102131999999MW1001
0064725387999991992070308004+47450-087900SAO  +0186P59  V0200701N003019999999N9999999N9+00881+00881999999ADDAG11999MW1001REMAWY020PK WND 11 ///032 RNOEQDQ01+000002VOVAR 
0204804260999991992020412004+09350-070617FM-12+0575SVVL V0209991C00001135001CN0120001N9+02151+01941101081ADDAA106000091AG19000AY121061AY221061GA1031+004809039GA2061+135009049GF108991031051004501021999IA1019KA1240N+02121MA1101191094631MD1999999-0161MW1051REMSYN046333   20212 30/// 5699/ 59016 83316 86583 1012
0061172190999991992110318204+38267+027150FM-15+0120LTBJ V0200101N00301999991CY0099001N1+01801+01401999999ADDAG11000MA1101801999999REMMET008CAVOK NOEQDQ01+000000PRSWM2
0191723030137141992072402003+35167-079017SAO  +0066KPOB V0202101N003010300019N0112651N1+02831+02331102041ADDAG11999GD12991+0150019GD23991+0300019GD33991+0750019GF107991999999999999999999GP10060000001000000001000000001000GR100600000900009MA1102031999999MW1001REMAWY029CB S MOVD NE CB 50SW MOVG NE?
0087725244999991992020722104+41683-081383SAOSP+0191LNN  V0202701N00211001801EN0064001N1+99999+99999999999ADDAG11999GD13991+0018019GD24991+0069019GF108991999999999999999999MA1100341999999MW1711
0100235010999991992082721004+64783+051067FM-12+016799999V0203401N00201220001CN0500001N9-00141-00181101401ADDAG12000GA1001+999999999GF100991001001999999001001MA1999999099371MD1310041+9999EQDQ01+999990APOSP 
0056711965999991992050906004+48167-052933SAO  +0018WVW  V02099999999999999999N9999999N9+99999+99999102491ADDAG12000REMAWY018/-1/2325/-/ 7014 ?EQDQ01+000002VOVAR 
0166031710999991992012918004+56383-002867FM-12+0012EGQL V0203501N00101000901CN0022001N9+00281+00251103991ADDAA199999929AG19000AY151999AY221999GA1021+000609079GA2071+000909079GF108991081061000751999999KA1999M+00351MD1710061+9999MW1511REMSYN029333   10035 82702 87703 96010
0065105260999991992021319004+50667+007967FM-12+055599999V0202501N00261220001CN0300001N9+00391+00161101231ADDAG12999GF100991001001999999001001MA1999999094581MD1210151+9999
0106104800999991992111422004+51300+013100FM-12+015299999V0202701N00261009901CN0200001N9+00281+00121101321ADDAG12999GA1061+009909099GF106991061031012501001001MA1999999099451MD1310141+9999REMSYN016 333 55300 86933
0074166670999991992122711504+39067+026600FM-15+0005LGMT V0203501N00301220001CN0112651N1+00501-00201999999ADDAG11000GA1011+006009089MA1102511999999REMMET005NOSIGEQDQ01+000000PRSWM2
0071725958999991992060622009+41500-120533NSRDB+134199999V020999999999999999999999999999+99999+99999999999ADDGP10060083601025058801028031101025GQ100600266923129GR100601185913269
0166317100999991992072600004+47933+132633FM-12+005699999V0200701N00101007501CN0100001N9+01911+01911099951ADDAA124035091AA299001091AG10002AY181061AY241061GF108991081091008001999999IA1099IA2999+01609KA1120N+01631MD1810101+9999MW1801REMSYN032 333 20163 555 31016 7035/ 88035
0069949030999991992091723004-36850+147267FM-12+151099999V0202301N00211004201CN0200001N9+00061+00061999999ADDAA106000091AG10999AY121999AY221999GF108991081051004501999999MW1031
0262702190266151992111815003+60783-161800SAO  +0038BET  V0200305N009852200059N0112005N1-01725-02175100565ADDAG11000GF100005999999999999999999GP10060000001000000001000000001000GR100600000900009MA1100511099975MD1710121+9999MW1001OC101331EQDN01 00000JPWTH 0QNNE71 0 00099G71U0 99999K71 0-00007L71 0 00700M71 0 29520N71 0 00000Q71 0 10056S71 0 00001V71 0 00000X71 0 03019
0054703625999991992042807009+59233-135433NSRDB+001099999V020999999999999999999999999999+99999+99999999999ADDGP10060000001000000001000000001000GR100600000900009
0050337540999991992071400004+47700+029133FM-12+019999999V0209991C00001220001CN0100001N9+01741+01071101651ADDAG12000GF103991031001999999031001MD1110031+9999
0058479710424021992060308004+27083+142183FM-12+0008RJAO V0202101N004119999999N9999999N9+02381+02271100891ADDAG12999MA1100911100801MD1210141+9999EQDQ01+999990APOA  
0195718500999991992071112004+49783-094367SY-SA+0411YQK  V0202501N00151015001EN0240001N9+01161+00571101441ADDAA106000091AG14000GD13991+0150099GD23991+0240099GF106991999051017501071999KA1240M+01881KA2120N+01081MA1101391096561MD1610041+9999REMSYN016 333 10188 20108AWY013SC7AC1 6004 ?EQDQ01+000072SCOTLC
0065127720999991992081909004+48100+020783FM-12+023399999V0201601N00301220001CN0100001N9+02501+01471101711ADDAG12000GF101991011001999999081001MA1999999099051MD1810021+9999
0119172800999991992122715004+37883+040183FM-12+0677LTCC V0209991C00001220001CN0150001N9-01761-01791102771ADDAG12000GA1011+060009009GF101991001001999999001011MA1102341094431MD1310031+9999REMSYN010 333 81070EQDQ01+999990APOA  
0074010230999991992040904504+69050+018550FM-15+0079ENDU V0209991C00001012001CN0112001N1-00201-00201999999ADDAG11999GA1051+012009059MA1102301999999REMMET005NOSIGEQDQ01+000000PRSWM2
0087064560999991992070306454+50233+004650FM-16+0299EBFS V0202501N00301009301CN0070001N1+99999+99999999999ADDAG11000GA1021+001509079GA2051+009309059REMMET017WHT WHT GRADU BLUEQDQ01+000000PRSWM2
0372744860947891992051803003+40650-073783SAO  +0005JFK  V0201805N00415000915MN0144005N1+00835+00785102475ADDAA101000095AG10000GA1999+000915135GD13075+0009019GF107075999061999999001991GP10060000001000000001000000001000GR100600000900009MA1102471102395MD1710071+9999MW1001REMAWY024F BANK DSNT SE/ 707 1600EQDQ01+999990APOSP Q02  00003PRCP99N01 00000JPWTH 0QNNE71 0 00409G71 0 00003H71 0 13003K71 0 00046L71 0 00900M71 0 30235N71 0 00000Q71 0 10247S71 0 00047V71 0 00909X71 0 18008
0050234840999991992012409004+65633+090017FM-12+006599999V0201901N00101220001CN0200001N9-03911-04171101451ADDAG12000GF100991001001999999001001MD1310041+9999
0039066790999991992020210004+00000+999999FM-12+053899999V0201801N000519999999N9999999N9-00571-00641103421ADDAG12999MA1999999096611MD1210051+9999
0125999999999991992040712004+48700+176900FM-13+9999KHRK V0201201N018519999999N0020001N9+00441+00401101781ADDAG12000GF108991081061999999999999MD1310171+9999SA1+0729UA1M040159999UG1080501209REMSYN03322214 00072 20403 312// 40810 ICE
0149717090999991992031317004+47417-061783SAO  +0010YGR  V0201901N007210300019N0192001N1-00101-00401099421ADDAG12999GD12991+0075099GD23991+0300099GD34991+0750099GF108991999999999999999999MA1099421099321MW1001OC100981REMAWY011CU4AC4CI2 ?EQDQ01+999990APOSP 
0143999999999991992032712004+09800-055700FM-13+9999SHIP V0200801N00931220001CN0200001N9+02671+02101101481ADDAG12000AY111061AY211061GF104991031021004501041001MD1210181+9999MW1021SA1+2659UA1M040159999UG1070250809REMSYN02922274 00265 20403 308// 40705
0215105820999991992022318004+50733+013750FM-12+088299999V0203001N01131000301CN0002001N9+00031+00001999999ADDAA199004091AG19000AY151061AY241061GA1091+999999999GF109991091999999999999999KA1120M+00031KA2120N-00021MA1999999091971MD1110271+9999ME1315109MW1471OA149902261OA259901341REMSYN035333   10003 21002 553// 91144 91226
0045071810999991992081814304+48583+005967FM-15+0350LFSO V0201801N00411220001CN0112651N1+02801+01901999999ADDAG11000GA1031+013509089EQDQ01+000000PRSWM2
0059035660999991992022901504+52350-000117FM-15+0041EGUY V0202101N00361000151CN0001001N1+00401+00401999999ADDAG11999GA1091+999999999MA1102711999999MW1451REMMET003RED
0284725150047251992051201003+42217-075983SAO  +0488BGM  V0201505N004652200059N0320005N1+01895+00835102135ADDAA101000095AG11999GF100005999999999999999999GP10060000001010000001016000001010GQ100600891929439GR100600005902799MA1102171096285MW1001EQDQ01+999990APOSP N01 00000JPWTH 0QNNE71 0 00099G71U0 99999K71 0 00047L71 0 02000M71 0 28430N71 0 00000Q71 0 10213S71 0 00066V71 0 00000X71 0 15009
0096879030999991992091418004-50333-072300FM-12+0220SAWA V0202701N00511220001CN0300001N9+00681-00131101191ADDAA106000091AG14000GA1031+012009059GF103991031041012501001001MD1410001+9999REMSYN010 333 83640
0047871780999991992032601004-27367-055967FM-15+0125SARP V0201401N00311220001CN0112001N1+02201+01901999999ADDAG11999GA1031+030009039MA1100811999999MW1101
0132569540999991992110606004+22567+099933FM-12+105499999V0201401N001019999999N0300001N9+02561+01561101301ADDAA106000091AG10000AY141061GF108991999021008001001001KA1240N+01391MD1710341+0001MW1001REMSYN016 333 00000 20139EQDQ01+000032SCOTLC
0180722270138641992122001003+33917-084517SAO  +0326MGE  V0201101N004110024019N0048281N1+01051+00941102181ADDAG11999GD12991+0015019GD23991+0024019GD34991+0090019GF108991999999999999999999GP10060000001000000001000000001000GR100600000900009MA1102131999999MW1451MW2611REMAWY012CIG RGD WR//
0092347200999991992021012004+47200+038950FM-12+001599999V0202701N00101036001CN0040001N9-00151-00521102361ADDAG12001AY171061AY221061GF108991081001999999021999MD1710061+9999MW1101REMSYN011555   1/000
0087727855241141992072318194+47617-117650SAOSP+0750SKA  V0201901N00411001201MN0032191N1+99999+99999999999ADDAG11000GD13991+0012019GD24991+0039019GF108991999999999999999999MA1101491999999MW1511
0090999999999991992111006004+23200+036600FM-13+9999UOUI V0203401N00401007501CN0200001N9+02811+99999101261ADDAG12002GF106991061021008001011001MD1410001+9999UA1M000109999REMSYN018 22200 00990 20002
0138477150999991992012201004+36183+140417FM-15+0035RJAH V0202201N00151030001CN0022001N1+00401+00201999999ADDAG11999GA1021+012009059GA2051+030009039GA3071+060009009MA1101251999999MW1101REMMET050130/ FCST 0107 96011 3200 96021 5000 3AC100 5CI200
0090722887999991992080818004+34100-117783SAO  +0308POC  V0202301N002012200019N0064371N1+99999+99999999999ADDAG11000GD16991+0001599GF110991999999999999999999MA1101661999999MW1041MW2051REMAWY003HK4
0054726184999991992021309009+44050-070283NSRDB+008899999V020999999999999999999999999999+99999+99999999999ADDGP10060000001000000001000000001000GR100600000900009
0024032300999991992102305004+55283-002283FM-12+020799999V0203101N000519999999N0024001N9+00231+00181099621ADDAG12999MD1710141+9999
0054723545999991992070905009+36150-097083NSRDB+030899999V020999999999999999999999999999+99999+99999999999ADDGP10060000001000000001000000001000GR100600000900009
0140724516999991992041216003+37050-100967SAO  +0879LBL  V0200801N00511004501MN0160001N1+00501+00001999999ADDAG11999GD14991+0045019GF108991999999999999999999GP10060017201024000001027017201024GQ100600521911019GR100600834913599MA1102881999999MW1001
0051109350999991992122813504+47667+009517FM-15+0424EDTY V0200601N00921999991CY0099001N1-00101-00901999999ADDAG11999OC101441REMMET005CAVOKEQDQ01+000000PRSWM2
0153034960999991992010113004+52683+001683FM-12+001499999V0202501N01081045001CN0250001N9+00901+00571102601ADDAG12999GA1011+006009079GA2051+045009039GA3081+075009029GF108991011061008001071071MD1710031+9999OA140101751REMSYN035333   81720 85365 88275 90710 91134
0155747770038521992081423003+30433-086683SAO  +0012HRT  V0200301N002010600019N0112651N1+02661+02161101531ADDAG11999GD12991+0450019GD24991+0600019GF108991999999999999999999GP10060012401011000001017012401011GQ100600655927249GR100600550913329MA1101521999999MW1001
0385724380938191992080313003+39733-086267SAO  +0241IND  V0202605N00315000915WN0012005N1+01895+01835101505ADDAA101000095AG11999ED105U03669GA1999+000915105GD15085+0009019GF108085999999999999999999GP10060004601010000001016004601010GQ100600716908239GR100600418913279MA1101561098615MW1455REMAWY023R05LVR12V60+ TWR VSBY 1EQDQ01+999990APOSP Q02+000100PRSWM2N01 07000JPWTH 0QNNE71 0 00710G71 0 00003H71 0 45003K71 0 00065L71 0 00075M71 0 29120N71 0 07000Q71 0 10150S71 0 00066V71 0 01010X71 0 26006
0059109000999991992020820504+47900+007617FM-15+0217EDSG V0209991C00001000151CN0000001N1-00201-00201999999ADDAG12000GA1091+000159999MA1102711999999MW1491REMMET003RED
0062727119999991992121107004+46617-069533SAO  +031440B  V0209991C000019999999N9999999N9-01451-01561999999ADDAG11999MW1001REMAWY018PKWND 003/RM MV262EQDQ01+000002VOVAR 
0060074910999991992011313004+45650+005883FM-15+0239LFLB V0203401N00411006901CN0070001N1+00301-00201999999ADDAG11999GA1081+006909059MA1103181999999EQDQ01+000000PRSWM2
0432724380938191992081311003+39733-086267SAO  +0241IND  V0203305N003150259159N0160005N1+01785+01675101915ADDAA101000095AG11999GA1999+015245065GA2999+025915035GA3999+076205025GD12025+0150019GD23055+0240019GD34025+0750019GF108085999999999999999999GP10060000001010000001016000001010GQ100600897907089GR100600000900559MA1101961099025MW1001EQDQ01+999990APOSP N01 00000JPWTH 0QNNE71 0 00202E71 0 00406E71 0 00602G71 0 00085H71 0 15050H71 0 23085H71 0 37250K71 0 00062L71 0 01000M71 0 29240N71 0 00000Q71 0 10191S71 0 00064V71 0 01010X71 0 33006
0080984460999991992111406004+13583+124233FM-12+0040RPUV V0200101N00301045001CN0250001N9+02781+02411101131ADDAA106000091AG14000GF108991041021004501021071MD1710131+9999REMSYN010 333 56199
0045691974999991992100220004+00000+000000FM-16+9999KQLX V0209991C000012200019N0112651N1+99999+99999999999ADDAG11999GA1031+001209059EQDQ01+000000PRSWM2
0061072350999991992072811004+47933+000200FM-15+0052LFRM V0201101N00511999991CY0099001N1+02301+01201999999ADDAG11999MA1102711999999REMMET008CAVOK NOEQDQ01+000000PRSWM2
0160084950999991992092218004+36150-005350SY-MT+0005LXGB V0202601N00721220001CN0300001N1+02241+01341101691ADDAA106000091AG14000GA1031+060009009GF103991001001999999001021KA1120M+02601MA1101591999999MD1510001+9999REMSYN016 333 10260 83070MET005CAVOKEQDQ01+000000PRSWM2
0120999999999991992113018004+56500+003200FM-13+9999LF5U V0202001N01751001201CN0040001N9+00921+00861099291ADDAG12001AY161061AY221061GF108991081061001501999999MD1710241+9999MW1601OA149902261REMSYN028 22200 00080 10708 333 91144
0050946530999991992072111004-32117+133700FM-12+0017APCD V0202601N003619999999N9999999N9+01201+01131102601ADDAA106000091AG14999MA1999999102411MD1210181+9999
0095525760999991992122512004+39383+102833FM-12+138399999V0203201N00401220001CN0300001N9-00401-01371999999ADDAA106000091AG14000GF104991001001999999001021MA1999999085381MD1210191+0701REMSYN010 333 00751
0153701718999991992082308003+67100-157850SAO  +0088Z60  V0200101N003612200019N0160931N1+01381+00941999999ADDAG11999GD12991+0180019GD22991+0240019GD32991+0300019GF102991999999999999999999GP10060000001000000001000000001000GR100600000900009MA1100811999999MW1001
0146601070999991992101115004+35183-003850FM-12+0014GMTA V0200201N00411006901CN0100001N9+02031+01491101071ADDAA106000091AG14000GA1031+003909089GA2051+006909059GA3021+009009099GF108991081091004501999999MD1610111+9999REMSYN028 333 83813 85623 82930 95310
0137204760999991992062812004+75400+088783FM-12+001099999V0200701N00401024001CN0350001N9+00481+99999100171ADDAA106000091AG14000GF107991071001999999031001KA1120M+00531MA1999999100061MD1210091+9999REMSYN020 333 10053 555 1/006EQDQ01+999990APOSLP
0131349150999991992100806004+45317+037383FM-12+000299999V0202301N00401220001CN0100001N9+01771+01621100581ADDAA199001091AG10001AY181061AY211061GA1001+999999999GF100991001001999999001001KA1120N+01651MD1310061+9999MW1011REMSYN010 333 20165
0156109800999991992030309004+47700+012017FM-12+183599999V0202601N01341015001CN0750001N9-00421-01161999999ADDAG12000GA1051+015009039GF105991051001017501031001MA1999999082411MD1210131+9999ME1315909OA149902111OA259901601REMSYN035333   553// 85350 91141 91231 95110
0108722748999991992091212003+32950-111767SAO  +0446CGZ  V0202501N002012200019N0160931N1+02381+00771999999ADDAG11000GF100991999999999999999999GP10060000001000000001000000001000GR100600000900009MA1101121999999MW1001
0072716013999991992111511004+44550-065783SAO  +0152YID  V0202001N00361030001EN0241401N1+00001-00201999999ADDAG11999GD13991+0300099GF107991999999999999999999MA1101931999999MW1001
0130762253999991992040502004+28700-105967SAO  +1360CUU  V0202201N00511024001EN0112001N1+01301+00401999999ADDAG11999GD12991+0090099GD23991+0240099GD34991+2100099GF108991999999999999999999MA1101191999999MW1001REMAWY019119/PCPN S/SE 57299
0059107770999991992032113004+48950+011433FM-12+053999999V0202501N005119999999N0100001N9+01201+00501101401ADDAG12999MA1999999095121MD1710271+9999REMSYN011333   55300
0052716160999991992013123004+46433-071933SAO  +0108WVY  V02099999999999999999N9999999N9+99999+99999999999ADDAG11999REMAWY014/MM/0711/-/  ?EQDQ01+000002VOVAR 
0123600150999991992073119004+28483-016333FM-15+0618GCXO V0203001N00921000901CN0020001N1+01801+01701999999ADDAG11999GA1031+000159079GA2021+000909079GA3031+001809089MA1101901094741MW1501REMMET016VIS TO 30 4/7KMSEQDQ01+999990APOSP 
0123368700999991992040805004+43233+076933FM-12+0847UAAA V0201601N00301009001CN0130001N9+00811+00231102331ADDAG12999AY181021AY221021GA1071+009009099GF108991071091008001071999MA1999999092411MD1210091+9999MW1251REMSYN011333   87930
0126442320999991992042109004+49383+102700FM-12+094999999V0202701N009019999999N0500001N9+01491-00171100001ADDAA106000091AG14000GF106991061051999999001001MA1999999089501MD1710461+9999OA159901201REMSYN011333   91212EQDQ01+000992SCOLCB
0050028050999991992051200004+69750+027033FM-12+010199999V0201601N00211220001CN0400001N9-00271-00331100781ADDAG11000GF101991011041004501001001MD1110131+9999
0061647000999991992111804304+12133+015033FM-15+0295FTTJ V0209991C00001999991CY0099001N1+01701+00901999999ADDAG11999MA1101081999999REMMET008CAVOK NOEQDQ01+000000PRSWM2
0072121150999991992120715004+54583+016867FM-12+000899999V0201001N00201004201CN0040001N9+00101+00041101091ADDAG11000AY121031AY221031GF106991061061004501999999MD1510021+9999MW1101
0192722687930331992091517003+32333-104267SAO  +1004CNM  V0201501N005110240019N0482801N1+02441+01831101431ADDAG11999GD12991+0036019GD23991+0240019GD33991+0300019GF107991999999999999999999GP10060057301011013601016047601011GQ100600446912449GR100600961913529MA1101931999999MW1001REMAWY013MTNS OBSCD SW
0106410240999991992022213004+21667+039150FM-15+0012OEJN V0202101N00621220001CN0112001N1+02801+01801100851ADDAG11999GA1011+012009059MA1100911100771REMMET005NOSIGEQDQ01+999990APOSP Q02+999990APOSLPQ03+000000PRSWM2
0101114380999991992020703004+50383+013350FM-12+032299999V0203201N01001007501CN0160001N9+00601+00391102781ADDAG12000GA1071+007509059GF107991071051008001999999MA1999999098761MD1810051+9999REMSYN011333   87625
0138408750999991992050212004+27217+056367FM-12+0010OIKB V0201901N00501220001CN0060001N9+03361+01771100541ADDAA106000091AG14000AY121061AY211061GA1021+027009039GF102991021011999999031001MD1710231+9999MW1051REMSYN011333   82359EQDQ01+000992SCOLCB
0060024853999991992120907504+58783+016917FM-15+0043ESKN V0209991C00001008701CN0112651N1+00001-00101999999ADDAG11999GA1071+008709059MA1102711999999EQDQ01+000000PRSWM2
0058013740999991992090312004+60933+010033FM-12+054299999V0209991C00001007501CN0250001N9+00981+00821999999ADDAG12001AY181061AY221061GF108991081051008001999999MW1021
0061155520999991992122215304+43200+027917FM-15+0043LBWN V0203001N00201999991CY0099001N1-00201-00801999999ADDAG11999MA1102911999999REMMET008CAVOK NOEQDQ01+000000PRSWM2
0096917530999991992121118004-13233-176167FM-12+0027NLWW V0209991C00001220001CN0300001N9+02441+02431100881ADDAA106000091AG14000GA1021+004509089GF103991021081004501001021MD1310071+9999REMSYN010 333 82815
0195855740999991992112812004-33383-070783SY-MT+0476SCEL V0201001N001019999999N0070001N9+01241+01011101871ADDAA106000091AG10000AY121061AY211061GA1011+007509059GA2041+039009039GF105991011051999999071001KA1120N+00901MD1310041+9999MW1051REMSYN028 333 20090 56770 81625 84363MET005HR 86EQDQ01+000992SCOLCB
0103483810999991992042209004+16433+102833FM-12+0166VTUK V0202101N00101045001CN0060001N9+03931+01821100201ADDAA106000091AG10000AY121031AY201031GF105991021021008001031051MD1999999-0041MW1051REMSYN011333   59004
0043037640999991992092313004+51383-000800FM-12+007599999V0200901N002619999999N9999999N9+01421+00971101301ADDAG12999MD1210181+9999REMSYN010 555 91250
0079033020999991992030617504+53250-004533FM-15+0011EGOV V0201901N01391006601CN0112001N1+00901+00701999999ADDAG11000GA1031+004209059GA2071+006609059GA3081+027009049MA1101801999999MW1601
0155725724999991992030221003+40217-111717SAO  +1369PVU  V0202701N003612200019N0160001N1+01331+00061999999ADDAG12000GD12991+0210019GD22991+0270019GF102991999999999999999999GP10060058401024053401027023201024GQ100600487919699GR100600919913929MA1101351999999MW1001
0077594560999991992111112004+22350+110933FM-12+008499999V0200201N00201220001CN0300001N9+01601+00611102421ADDAA106000091AG14000GA1001+999999999GF100991001001999999001001MD1210181+9999
0136574610999991992122800004+30700+111300FM-12+013499999V0209991C00001036001CN0011001N9+00581+00531102601ADDAA106000091AA224000391AG10000GF108991081001999999071999IA2999+00449MA1999999100931MD1210081+0301MW1101REMSYN022 333 00302 30044 70003
0076153000999991992041312004+45633+025583FM-12+053899999V0203201N00701015001CN0120001N9+01161+00151999999ADDAA106000091AG14000GF106991061021017501001001MA1999999095231MD1710061+9999
0084955740999991992012523004-26383+153033FM-12+001099999V0203401N00461036001CN0500001N9+02701+02101101511ADDAA106000091AG14999AY101999AY211999GF105991051001999999031001MA1999999101391MW1021
0071726155999991992060722009+43567-071417NSRDB+016699999V020999999999999999999999999999+99999+99999999999ADDGP10060037001025040501028017501025GQ100600612927519GR100600638913269
0064999999999991992012600004+42400+015900FM-13+9999SXZO V0203401N00931220001CN0200001N9+01401+99999102701ADDAG11000GF101991999999999999999999SA1+1379REMSYN011222// 00137
0172302630999991992092900004+57833+117667FM-12+056299999V0203601N00301004201CN0040001N9-00121-00251100691ADDAA124007091AG10001AJ100079199999999AY181061AY271061GF108991081091004501999999IA1099IA2999-00209KA1120N-00131MD1210271+9999MW1861REMSYN032 333 21013 47007 555 31102 7007/
0083725215999991992020512004+41467-082183SMARS+017627G  V0200201N005119999999N0129001N9-00441+99999101651ADDAG10999AY111061GF107991999999999999999999MW1001REMSYN024M     M     44324 LORAIN
0071725869941861992091002009+42300-113333NSRDB+138499999V020999999999999999999999999999+99999+99999999999ADDGP10060003001028013401031002001028GQ100600856927299GR100600088911579
0131724468999991992033115003+38850-094733SAO  +0334OJC  V0202501N006712200019N0080001N1+00781+00391999999ADDAG11000GF100991999999999999999999GP10060037501024048501027015401024GQ100600628910779GR100600624913699MA1101801999999MW1051MW2451
0061155520999991992101720304+43200+027917FM-15+0043LBWN V0200401N00101999991CY0099001N1+01201+01101999999ADDAG11000MA1101081999999REMMET008CAVOK NOEQDQ01+000000PRSWM2
0031109210999991992031011504+47983+008900FM-15+0804EDPH V0202101N00261220001CN0050001N1+01101+00201999999ADDAG11000MA1103011999999MW1051
0143655990999991992083006004+04950-006083FM-12+0066DISS V0209999999999078001CN0080001N9+02101+02071101611ADDAA106000091AG14000GA1041+003909059GA2061+078009009GF106991041051004501001021KA1120N+02101MD1999999-0051REMSYN028 333 20210 59005 84613 86076
0054724769999991992011009009+40450-105017NSRDB+152999999V020999999999999999999999999999+99999+99999999999ADDGP10060000001000000001000000001000GR100600000900009
0123702595999991992121806003+60483-151033SAO  +0033SXQ  V0200601N00151002401MN0160931N1-01121-01281999999ADDAG11000GD14991+0024019GF108991999999999999999999GP10060000001000000001000000001000GR100600000900009MA1101961999999MW1001
0054722055999991992061106009+29167-082217NSRDB+002799999V020999999999999999999999999999+99999+99999999999ADDGP10060000001000000001000000001000GR100600000900009
0060404190999991992011512004+26400+050100FM-12+001099999V0200801N003119999999N9999999N9+01851+99999999999ADDAG12000REMSYN041555   03310 20008 30000 80010 04410 60013
0076478080999991992101616004+33583+130450FM-15+0012RJFF V0209991V00101036001CN0112651N1+01701+01201999999ADDAG11999GA1011+010509089GA2071+036009039MA1101191999999EQDQ01+000000PRSWM2
0110766790999991992040113004+19433-099083SAO  +2234MEX  V0209991C00001024001EN0128001N1+01501+01101999999ADDAG11999GD13991+0240099GD24991+2100099GF108991999999999999999999MA1102611999999MW1001REMAWY014261/BMSO/03790
0168725533999991992090613003+40083-095600SAO  +0300FNB  V0202901N00151010501EN0040231N1+01771+01771999999ADDAG11999GD13991+0105019GD24991+0300019GF108991999999999999999999GP10060002901011000001016002901011GQ100600840908679GR100600140913469MA1101761999999EQDQ01+000100PRSWM2
0054724927999991992053109009+37700-121817NSRDB+012199999V020999999999999999999999999999+99999+99999999999ADDGP10060000001000000001000000001000GR100600000900009
0090624630999991992101203004+27150+033717SY-MT+0014HEGN V0202901N00621220001CN0100001N9+02161+00911101031ADDAA106000091AG14000GF100991001001999999001001MD1610011+9999REMMET020CAVOK 22X09 1010 NOS
0069764120999991992032322404+24817-107400SAOSP+0039CUL  V02099999999992200019N0112001N1+03101+99999999999ADDAG11999GF100991999999999999999999MA1101151999999MW1001REMAWY003116
0448722230138941992120613003+30683-088250SAO  +0064MOB  V0200805N003150274359N0240005N1+00675-00285102405ADDAA101000095AG11999GA1999+011285065GA2999+027435035GA3999+076205005GD12025+0111019GD23065+0270019GD33999+0750019GF107075999999999999999999GP10060000301010000001016000301010GQ100600881911759GR100600016905059MA1102401101595MW1001EQDQ01+999990APOSP N01 00000JPWTH 0P01    003SCCGD3QNNE71 0 00202E71 0 00407E71 0 00400G71 0 00090H71 0 15037H71 0 23090H71 0 32250K71 0 00027L71 0 01500M71 0 30000N71 0 00000Q71 0 10240S71 0 00044V71 0 00909X71 0 08006
0399727530149141992022009003+46900-096800SAO  +0274FAR  V0201605N011350030559N001600599-00445-00505100855ADDAA101002095GA1999+000005105GA2999+003055135GA3999+033535035GD16025+9999999GD23035+9999999GD34035+9999999GF108085999999999999999999GP10060000001000000001000000001000GR100600000900009MW1385MW2715EQDN01 28775FPRES 3N02 04084JPWTH 0QNNE71 0 00802E71 0 00404E71 0 00604G71 0 00010H71 0 36000H71 0 13010H71 0 23110K71 0 00023L71 0 00100M71 3 28775N71 0 04084Q71 0 10085S71 0 00024V71 0 01010X71 0 16022
0081563570999991992102703004+29050+100300FM-12+372999999V0200701N00101220001CN0300001N9+00221-00981999999ADDAG12000GA1001+999999999GF100991001001999999001001MA1999999065351MD1210061+9999
0054722016999991992120701009+24733-081050NSRDB+000299999V020999999999999999999999999999+99999+99999999999ADDGP10060000001000000001000000001000GR100600000900009
0226727755241121992101500003+47500-111183SAO  +1075GFA  V0203601N003010060019N0241401N1+00221-00171101871ADDAA106999929AG13000GD12991+0030019GD23991+0060019GD34991+0105019GF108991999051999999999999GP10060003601011000001017003601011GQ100600799924549GR100600241913759MA1101591999999MD1310071+9999MW1851REMAWY022SWU E-S-W / 30700 15//
0061167420999991992081600204+36783+027067FM-15+0129LGKO V0209991C00001999991CY0099001N1+02201+02001999999ADDAG11000MA1101191999999REMMET008CAVOK NOEQDQ01+000000PRSWM2
0470722700230441992020406003+31800-106400SY-SA+1194ELP  V0200405N00415019815MN0320005N1+00725+00175101505ADDAA101000095AA206000091AA324002091AG10000GA1999+019815065GA2999+027435035GD13055+0180019GD23035+0270019GF107075999051999999071991GP10060000001000000001000000001000GR100600000900009KA1999M+01111KA2999N+00561MA1101761088165MD1210141+9999MW1001REMSYN035333   10111 20056 70020 555   90406AWY012214 1570 52?EQDN01 00000JPWTH 0QNNE71 0 00406E71 0 00404G71 0 00065H71 0 15065H71 0 23090K71 0 00035L71 0 02000M71 0 26035N71 0 00000Q71 0 10150S71 0 00045V71 0 00909X71 0 04008
0115566510999991992032818004+26967+100233FM-12+239499999V0202701N00401220001CN0300001N9+00991+00421999999ADDAA106000091AG14000GF101991011041017501001001KA1240M+02071MA1999999076121MD1710041+0101REMSYN017333   00152 10207
0086037400999991992031621004+51500-001983FM-12+0156EGDL V0202301N00411012001CN0120001N9+00921+00691102931ADDAG12000GA1071+012009059GF107991071051012501999999MD1210061+9999REMSYN011333   87640
0090112310999991992080419204+46650+014333FM-15+0452LOWK V0203001N00201220001CN0112651N1+01801+01701999999ADDAG11999GA1011+001809079GA2041+030009039MA1102401999999REMMET005NOSIGEQDQ01+000000PRSWM2
0099035623999991992112518004+52367-000217FM-15+0049EGWZ V0209991V00561010501EN0112651N1+00901+00701999999ADDAG11000GA1061+010509059GA2081+024009049MA1100171999999MW1601OC100871REMMET019CIGE035 WND 170V240
0121483530999991992101800004+17450+101733FM-12+0254VTUL V0202701N00211004201CN0020001N9+01901+01801101711ADDAA124005091AG10003AY161061AY221061GF108991061071004501021999KA1120N+01841MD1999999+0191MW1601REMSYN016 333 20184 58019
0090037720999991992042110504+51483-000450FM-15+0024EGLL V0202201N00261220001CN0112001N1+01501+00901999999ADDAG11999GA1011+006009089GA2031+021009039MA1101591999999REMMET005NOSIGEQDQ01+000000PRSWM2
0236725867241331992011400003+42550-113767SAO  +1265BYI  V0202701N00511002401WN0012001V1-00101-00321102541ADDAA106999929AG13000GD15991+0024019GF109991999999999999999999GP10060002601011000001016002601011GQ100600824923159GR100600186914149KA1999M+00221MA1102241999999MD1110081+9999MW1381MW2711REMAWY024VSBY 1/2V11/4/ 10800 36?EQDQ01  99993PRCP99
0069948280999991992120505004-38317+141467FM-12+008199999V0201401N00821001201CN0040001N9+01581+01551999999ADDAA106001091AG10999AY151999AY251999GF108991081051001501999999MW1201
0066071790340511992063009004+48783+005483FM-15+0298LFSL V0202101N00971999991CY0099001N1+02501+00401999999ADDAG11000MA1101391999999OC101491REMMET005CAVOKEQDQ01+000000PRSWM2
0069946210999991992060401004-31650+116667FM-12+015099999V0209991C00001012001CN0100001N9+01301+01011999999ADDAA106000091AG10999AY101999AY221999GF108991081041012501001001MW1031
0093067700999991992061616204+46000+008967FM-15+0276LSZA V0203301N00101013501CN0050001N1+01901+01701999999ADDAG12999GA1021+009009099GA2031+013509089GA3071+036009039MA1101291999999MW1951REMMET005NOSIG
0058151580999991992010517004+46400+021650FM-12+011299999V0209991C00001007501CN0040001N9+00161+99999999999ADDAG12999AY121021AY221021GF108991081001008001021999MW1101
0143579570999991992012000004+25333+110300FM-12+0166ZGKL V0209991C00001220001CN0080001N9+00171+00091103141ADDAA106000091AA224001091AG14000GF106991011011008001001011IA1099IA2999-00309MA1999999101051MD1210021+0101MW1101REMSYN023333   00153 31030 70010
0061860330999991992030318004-20217-058167FM-12+009699999V0209991C00001012001CN0200001N9+03301+02291100891ADDAA106000091AG14000GF105991051021012501001001MD1710281+9999
0036153730999991992033113004+44850+024867FM-12+031599999V0201401N00201012001CN0100001N9+01111+99999999999ADDAG12999GF107991061081008001041001
0066042600999991992121315004+62000-049717FM-12+0016BGFH V0203301N00721220001CN0300001N9-01321-02031102301ADDAG12000GA1001+999999999GF100991001001999999001001MD1710171+9999
0085687540999991992012112004-32517+027467FM-12+090099999V0201801N00211012001CN0220001N9+02211+00851999999ADDAA106000091AG14000GF105991051011012501001001MA1999999091201MD1710121+9999ME1315069
0061167180999991992110505204+38067+023550FM-15+0031LGEL V0209991C00001999991CY0099001N1+01101+00701999999ADDAG11999MA1101901999999REMMET008CAVOK NOEQDQ01+000000PRSWM2
0054726468999991992021707009+45700-090400NSRDB+044999999V020999999999999999999999999999+99999+99999999999ADDGP10060000001000000001000000001000GR100600000900009
0334724010137401992040521003+37500-077333SAO  +0050RIC  V0203305N008852200059N0128005N1+01395-00895101705ADDAA101000095AG10000GF100005999999999999999999GP10060055101010072001016013501010GQ100600546924809GR100600789913659MA1101661101055MD1510021+9999MW1001OC101291REMAWY003502EQDQ01+999990APOSP Q02  00003PRCP99N01 00000JPWTH 0QNNE71 0 00099G71U0 99999K71 0 00016L71 0 00800M71 0 29840N71 0 00000Q71 0 10170S71 0 00057V71 0 00000X71 0 33017
0284703810253091992100706003+58367-134583SAO  +0004JNU  V0201005N006750365859N0112005N1+00785+00395999999ADDAA106000091AG10000GD12995+0270019GD24995+0360019GF108085999001999999071999GP10060000001000000001000000001000GR100600000900009MA1101761999999MD1610371+9999MW1001EQDN01 00000JPWTH 0QNNE21 0 00299E21 0 00699G21 0 00120K21 0 00039L21 0 00700N21 0 00000S21 0 00046V21 0 01010X21 0 10013
0165637990999991992072506004-03233+040100FM-12+0023HKML V0201801N00621220001CN0300001N9+02511+01871102021ADDAA124002091AG13000AY101061AY201061GA1011+006309089GA2031+027009039GF104991011021008001031001KA1120N+02191MD1999999+0111MW1021REMSYN028 333 20219 58011 81821 83359
0060719000999991992111706004+55450-060233SAO  +0008WHO  V0202701N006119999999N9999999N9-00901+99999101181ADDAA106000091AG10000MD1510001+9999MW1001EQDQ01+000002VOVAR 
0151161910999991992040315004+43617+013367SY-MT+0010LIPY V0201001N00571013501CN0300001N1+01701+00771100911ADDAG12000GA1031+010509089GA2041+013509059GF107991071081012501001001MA1100911100731MD1610071+9999REMSYN017333   83835 84645MET003BKNEQDQ01+000000PRSWM2
0105474250999991992072713304+42800+141667FM-15+0030RJCC V0201701N00411000301CN0007001N1+01901+01901999999ADDAG11999ED199U16009GA1091+000309999MA1100001999999MW1471REMMET0383KT 9999 1CU035 7CI/// 27/22 1009/2981
0155727453949671992021320003+46900-095067SAO  +0440PKD  V0203401N00261004201EN0160001N1-00491-00821999999ADDAG12999GD13991+0042019GD24991+0120019GF108991999999999999999999GP10060012701011000001016012701011GQ100600617919539GR100600666914039MA1101251999999MW1711
0085353610999991992043009004+50133+065233FM-12+014299999V0200201N018019999999N0100001N9+00751-00251999999ADDAG12000GF106991999021999999001001MD1410001+9999EQDQ01+000002SCOTLCQ02+000362PRSWM1
0102747900138491992082300124+33967-080467SAOSP+0074SSC  V0200501N001010096019N0112651N1+99999+99999999999ADDAG11000GD12991+0075099GD23991+0096099GD34991+0240099GF108991999999999999999999MA1102271999999MW1001
0090717270999991992092521004+48333-071000SAO  +0159YBG  V0201301N001012200019N0321871N1+02001+00401103011ADDAG11000GF100991999999999999999999MA1102951101041MD1610171+9999MW1001EQDQ01+999990APOSP 
0138726155999991992052705003+43567-071417SAO  +0166LCI  V0200801N00151021001MN0160001N1+00611+00061999999ADDAG11999GD13991+0210019GD24991+0240019GF108991999999999999999999GP10060000001000000001000000001000GR100600000900009MA1101521999999MW1001
0140404390999991992022806004+24150+038067SY-MT+0001OEYN V0209991C00001220001CN0100001N1+01341+00201101921ADDAG12000GF100991001001999999001001KA1120N+00741MA1101901101851MD1999999-0451MW1001REMSYN017333   20074 59045MET005CAVOKEQDQ01+000000PRSWM2
0123104960999991992011123004+51783+014317FM-12+006999999V0202501N00511006001CN0040001N9-00141-00311102541ADDAG12999AY121021AY221021GA1071+006009089GF107991071021008001999999MA1999999101661MD1810051+9999MW1101REMSYN011333   87820
0076107650999991992111400504+49217+011100FM-15+0395EDPR V0202701N00611012001CN0112651N1+00201+00001999999ADDAG11999GA1011+004509089GA2061+012009059MA1101081999999EQDQ01+000000PRSWM2
0074167180999991992111700204+38067+023550FM-15+0031LGEL V0209991C00001220001CN0112651N1+01001+00601999999ADDAG11000GA1011+007509089MA1101801999999REMMET005NOSIGEQDQ01+000000PRSWM2
0108724680940151992012508003+38683-104767SAO  +1789FCS  V0203601N002612200019N0160001N1+00221-00931101831ADDAG11999GF100991999999999999999999GP10060000001000000001000000001000GR100600000900009MA1102131999999MW1001
0039475120999991992062503004+39067+141717FM-12+003799999V0201601N007719999999N9999999N9+01721+01111100961ADDAG12000MA1999999100471MD1710031+9999
0061038170999991992070422504+50433-005000FM-15+0119EGDG V0203601N00611999991CY0099001N1+01401+01001999999ADDAG11999MA1101691999999REMMET008CAVOK BLEQDQ01+000000PRSWM2
0379702510265281992020605003+62300-150100SAO  +0105TKA  V0200105N00155007625EN0096005N1-00395-00565101105ADDAG12999GA1999+007625065GA2999+012195065GD13055+0075019GD24035+0120019GF108085999999999999999999GP10060000001000000001000000001000GR100600000900009MA1101021099735MW1455MW2715REMAWY013PCPN VLGT/6SCEQDQ01+999990APOSP N01 04070JPWTH 0QNNE71 0 00406E71 0 00604G71 0 00025H71 0 15025H71 0 15040K71 0 00022L71 0 00600M71 0 29450N71 0 04070Q71 0 10110S71 0 00025V71 0 01010X71 0 01003
0061166500999991992102014204+39917+025233FM-15+0004LGLM V0203601N00511999991CY0099001N1+01901+01401999999ADDAG11999MA1102101999999REMMET008CAVOK NOEQDQ01+000000PRSWM2
0124837830999991992122800004-24050-052367FM-12+061799999V0200501N00101220001CN0040001N9+02341+02091100881ADDAA106000091AG14000GA1001+999999999GF100991001001999999001001KA1240M+02801MA1999999094281MD1210251+9999REMSYN010 333 10280
0126722175138601992032005003+32633-083600SAO  +0090WRB  V0203001N004612200019N0208001N1+01611+00671100981ADDAG11999GF100991999999999999999999GP10060000001000000001000000001000GR100600000900009MA1101021999999MW1001REMAWY009WND 27V33
0102726395148081992090307374+44450-083400SAOSP+0193OSC  V0201901N003610330019N0048281N1+99999+99999999999ADDAG11999GD12991+0021099GD22991+0045099GD34991+0330099GF108991999999999999999999MA1100611999999MW1101
0054725955242591992013105009+41783-122467NSRDB+080399999V020999999999999999999999999999+99999+99999999999ADDGP10060000001000000001000000001000GR100600000900009
0047036913999991992061305504+51567+000700FM-15+0015EGMC V0200101N00151004501CN0090001N1+01301+01101999999ADDAG12000GA1061+004509059MA1102201999999MW1051
0054722115999991992012107009+27383-082550NSRDB+001099999V020999999999999999999999999999+99999+99999999999ADDGP10060000001000000001000000001000GR100600000900009
0139064900999991992031616004+50483+005917FM-12+0482EBSP V0202601N00261220001CN0250001N9+00481-00321102951ADDAG12999GA1011+010509059GF101991011041999999001011MD1610011+9999OA149900571OA259900261REMSYN023333   81635 91111 91205EQDQ01+000992SCOLCB
0177233410999991992081806004+66833+070833FM-12+000899999V0203601N00301002701CN0100001N9+01361+01301100331ADDAG12001AY181061AY221061GA1081+002709099GF108991081091002501999999KA1120N+01001MA1999999100231MD1710071+9999MW1801OA149900501REMSYN022 333 20100 88909 91105EQDQ01+999990APOSP 
0377722515129261992101203003+27683-097283SAO  +0006NGP  V0201205N006252200059N0177031N1+02505+01615101881ADDAG11000GD12991+0750019GF104995999001999999001991GP10060000001000000001000000001000GR100600000900009MA1101861999999MD1310081+9999MW1001REMAWY008308 1001EQDN01 00205KCLC1 3N02 00700DHZVS 3N03 30080EALTP 3N04 30060FPRES 3N05 00000JPWTH 3N06 10188ISLVP 3QNNE41 3 00205G41U0 99999K41 0 00061L41 3 00700C41 3 30080M41 3 30060N41 3 00000Q41 3 10188S41 0 00077V41 0 00599X41 0 12012
0108594930999991992040518004+22550+114100FM-12+001899999V0209991C00001007501CN0150001N9+02081+01911100981ADDAA106001091AG19004AY181061GF108991081041008001999999KA1240M+02181MD1710141+9999MW1801REMSYN011333   10218
0078154900999991992051802004+43750+024883FM-12+003199999V0200501N01301012001CN9999999N9+01251+99999999999ADDAG12999AY121999AY221999GF108991051031012501071999MW1801REMSYN011555   60013
0054727456999991992091003009+46767-092083NSRDB+018699999V020999999999999999999999999999+99999+99999999999ADDGP10060000001000000001000000001000GR100600000900009
0080035833999991992072401304+52400-000567FM-16+0009EGUL V0201001N00201021001MN0090001N1+99999+99999999999ADDAG11999GA1041+018009059GA2031+021009039GA3061+030009039MW1101REMMET007CIGM070
0085020960999991992072409004+67217+023400FM-12+016899999V0200901N00261012501CN0750001N9+01171+00401102291ADDAG12000GA1071+012509059GF107991071051012501999999MD1210221+9999REMSYN010 333 87696
0106283210999991992100309004+57717+055383FM-12+016499999V0201801N00501004201CN0070001N9+00871+00821100361ADDAG12001AY161031AY221031GF108991061071004501021999MA1999999098401MD1210031+9999MW1611EQDQ01+999990APOSP 
0123723443999991992082710003+36200-094483SAO  +0300SLG  V0203401N00361000901MN0112651N1+01661+01441999999ADDAG11999GD13991+0009019GF107991999999999999999999GP10060000001000000001000000001000GR100600000900009MA1101901999999MW1001
0069948310999991992031123004-35067+142317FM-12+005099999V0200501N00461220001CN0500001N9+02321+00941999999ADDAA106000091AG14005AY101999AY201999GF100991001001999999001001MW1021
0127722055999991992121021003+29167-082217SAO  +0027OCF  V0202501N005619999999N0160931N1+01771+00881999999ADDAG11000GP10060027201028050301031009301028GQ100600691922609GR100600504914119MA1101121999999MW1001OC100921REMAWY011CLR BLO 120
0123724085947321992081305003+40083-075017SAO  +0037PNE  V0209999C000012200019N0112651N1+01831+01661999999ADDAG11999GD13991+0600013GF107991999999999999999999GP10060000001000000001000000001000GR100600000900009MA1102131999999MW1001
0075062700999991992042123294+53217+005750FM-15+0002EHLW V0202501N00151015001CN0090001N1+00801+00501999999ADDAG11999GA1061+015009059GA2071+030009039MA1101291999999MW1051REMMET003BLU
0061839530999991992041818004-30883-055533FM-12+023199999V0200501N00151004201CN0100001N9+02401+01701101371ADDAA106000091AG14000GF105991051021004501001001MD1710201+9999
0270722430129601992101315003+29967-095350SAO  +0029IAH  V0201705N002652200059N024000599+02285+01615101815ADDAA101000095GD10995+9999999GF100005999999999999999999GP10060037001010061201016010801010GQ100600646911709GR100600589913749MA1999999101425EQDN01 00000JPWTH 0QNNE71 0 00099G71U0 99999K71 0 00061L71 0 01500M71 0 29950N71 0 00000Q71 0 10181S71 0 00073V71 0 00000X71 0 17005
0063030030999991992061518204+59883-001300FM-15+0005EGPB V0203501N00771006001CN0112001N1+01101+00501999999ADDAG12000GA1011+004509089GA2071+006009059MA1102201999999MW1001
0084945000999991992021305004-28067+145733FM-12+019199999V0202301N00261015001CN0500001N9+02001+01921100981ADDAA106009091AG10999AY191999AY221999GF108991081051017501001001MA1999999098831MW1021
0071702185999991992031119009+60367-166267NSRDB+001599999V020999999999999999999999999999+99999+99999999999ADDGP10060005401028010801031004201028GQ100600837910819GR100600151913859
0369727850241571992050106003+47633-117533SY-SA+0718GEG  V0202605N008252200059N0320005N1+00565-00445101735ADDAA101000095AA206000091AA324000591AG10000GF100005001001999999001991GP10060000001000000001000000001000GR100600000900009KA1240M+01561KA2240N+00561MA1101691093305MD1210271+9999MW1001REMSYN035333   10156 20056 70005 555   90106AWY006227 60EQDN01 00000JPWTH 0QNNE71 0 00099G71U0 99999K71 0 00024L71 0 02000M71 0 27550N71 0 00000Q71 0 10173S71 0 00042V71 0 00000X71 0 26016
0076081600999991992081908004+41667-001017FM-15+0258LEZG V0200101N00251220001CN0112651N1+02601+01901999999ADDAG11999GA1011+009009089GA2031+027009049MA1101491999999EQDQ01+000000PRSWM2
0059034140999991992031118504+52800-002667FM-15+0076EGOS V0202301N00771003601CN0112001N1+00801+00601999999ADDAG12999GA1061+003609079MA1101491999999MW1511REMMET003GRN
0095851540999991992122620004-14850-064950FM-15+0157SLTR V0203001N00301004501CN0080001N1+02801+02501999999ADDAG11999GA1051+004509089GA2011+006909099GA3051+021009039GA4071+060009009MA1100911999999MW1801
0129037170999991992083121004+51483-003183FM-12+000999999V0202701N00261220001CN0200001N9+01181+00821100481ADDAG12001AY181031AY211031GA1011+004509089GA2011+006009099GF101991011091004501001001MD1210271+9999MW1251REMSYN016 333 81815 81920
0058162700999991992091821204+41133+016783FM-15+0044LIBD V0202701N00051999991CY0099001N1+01901+01701999999ADDAG11000MA1101591999999REMMET005CAVOKEQDQ01+000000PRSWM2
0148151340999991992022206004+46683+028067FM-12+009899999V0203601N00801007501CN0100001N9-00561-00711102651ADDAA199000391AG10000AJ100019199999999GF108991061051008001071999IA1239IA2120-00709KA1120N-00581MA1999999101371REMSYN029333   21058 3/107 47001 92800
0432725970242251992021722003+42383-122883SAO  +0396MFR  V0202205N005750259159N0480005N1+01285+00115101795ADDAA101000095AG12999GA1999+016765065GA2999+025915035GA3999+076205005GD12025+0150019GD23045+0240019GD33025+0750019GF107065999999999999999999GP10060035401010017301016025801010GQ100600563919929GR100600776914019MA1101761096975MW1001EQDQ01+999990APOSP N01 00000JPWTH 0QNNE71 0 00202E71 0 00405E71 0 00402G71 0 00085H71 0 15055H71 0 23085H71 0 32250K71 0 00034L71 0 03000M71 0 28635N71 0 00000Q71 0 10179S71 0 00055V71 0 00908X71 0 22011
0116999999999991992070300004+20700+118800FM-13+9999ELOI V0202101N00461220001CN0100001N9+03001+02601100641ADDAG11000GF101991011999017501999999MD1410001+9999SA1+2609UA1M020109999UG1999992109REMSYN024 22213 00260 20202 321//
0066714250999991992051203004+49250-065333SAO  +0029WSF  V0202401N004619999999N0144001N1+01601+00101101661ADDAG12000MA1999999101311MD1710231+9999OC101081EQDQ01+999990APOSP 
0058718813999991992041812004+53583-116467SAO  +0925ZET  V0202901N003619999999N9999999N9+00501-00301100941ADDAG11000MA1100781999999MD1210241+9999EQDQ01+000002VOVAR 
0093066303999991992070112504+46917+007500FM-15+0505LSZB V0202001N00101008101CN0060001N1+01801+01301999999ADDAG11999GA1021+006009059GA2041+008109059GA3071+015009059MA1101491999999MW1051REMMET005NOSIG
0092788580999991992112111004+17300-062683FM-15+0048TKPK V0202601N00251220001CN0112651N1+02501+02301101351ADDAG11999GA1011+006609089MA1101291100741EQDQ01+999990APOSP Q02+999990APOSLPQ03+000000PRSWM2
0072724937999991992070115004+37467-122117SAO  +0002PAO  V0201501N003012200019N0160931N1+01661+01221999999ADDAG11000GD12991+0060099GF102991999999999999999999MA1101351999999MW1001
0123719660999991992121523004+64050-139133SAO  +0369YDA  V0209991C000012200019N0321871N1-02601-02901102541ADDAG11999GD12991+0300093GD24991+0630093GF108991999999999999999999MA1102071100721MW1001REMAWY008AC1CI3 ?EQDQ01+999990APOSP 
0168911975999991992040518003+19733-156050SAO  +0013KOA  V0201001N002112200019N0240001N1+02441+99999999999ADDAG13000GD12991+0240019GD22991+0600019GF102991999999999999999999GP10060015401025015601028010801025GQ100600730908929GR100600399913659MA1101461999999MW1001REMAWY004HAZY
0096478540999991992082905414+32083+131450FM-16+0082RJFN V0200801N00771007501CN0112651N1+99999+99999999999ADDAG11999GA1021+004509089GA2051+007509089OC101021REMMET018CUCON 30KM E MOV WEQDQ01+000000PRSWM2
0090082270999991992110107004+40483-003467FM-15+0608LETO V0209991C00001220001CN0112651N1+00501-00301999999ADDAG11999GA1011+012009059GA2031+027009039MA1102001999999REMMET005NOSIGEQDQ01+000000PRSWM2
0108315340999991992082512004+50433+131017FM-12+023199999V0209991C00001007501CN0500001N9+01431+01151100851ADDAA106000091AG14000GF108991081051008001999999KA1120M+01961MA1999999098151MD1210071+9999REMSYN010 333 10196
0155724930232301992101823003+37733-122217SAO  +0003OAK  V0202701N005612200019N0321871N1+01831+01441999999ADDAG11999GD12991+0045019GD22991+0750019GF102991999999999999999999GP10060043201011064901016010901011GQ100600601922569GR100600686913789MA1101731999999MW1001
0050942980999991992121418004-19100+152383FM-12+000699999V0201101N005119999999N9999999N9+02541+99999100971ADDAA106000091AG14000MA1999999100891MD1210031+9999
0311719380999991992122200004+67817-115150SY-SA+0022YCO  V0202401N00671012001MN0032001N9-02511-02881101361ADDAA106001091AA224001691AC19C9AG10001AJ100659199999999AL19900191AY171061AY271061GD14991+0120099GF108991081051012501999999IA1249KA1120M-02351KA2180N-02981MA1101321101041MD1110041+9999MW1711REMSYN040 333 11235 21298 48065 70016 90983 93101AWY048136/-245-29/2413/992/SC10 DRFTG SNW /S01/ 1004 ?EQDQ01+999990APOA  
