0054722955031221993110913009+33800-118333NSRDB+002799999V020999999999999999999999999999+99999+99999999999ADDGP10060000001000000001000000001000GR100600000900009
0339911820225211993122923003+21333-157917SAO  +0002HNL  V0201305N005252200059N0320005N1+02565+01785101545ADDAA101000095AG11999GA1999+009145085GD12015+0090019GF101015999999999999999999GP10060072301010083201016013101010GQ100600447917879GR100601006914159MA1101561101495MW1001REMAWY004HAZYEQDQ01+999990APOSP N01 00000JPWTH 0QNNE71 0 00201G71U0 99999H71 0 11030K71 0 00064L71 0 02000M71 0 29970N71 0 00000Q71 0 10154S71 0 00078V71 0 00101X71 0 13010
0063726695999991993081616004+45933-102167SAO  +0781Y22  V0201301N008219999999N9999999N9+02161+01501999999ADDAG11999MW1001REMAWY019PK WND 20 ///934 RMEQDQ01+000002VOVAR 
0179467630999991993052818004+24033+121617SY-MT+0016RCYU V0200501N003110063019N0048001N1+02241+02071100711ADDAA106002091AG10004AY161061AY261061GA1031+002409079GA2081+006309059GF108991081051002501999999MA1100711100541MD1710101+9999MW1601REMMET040CIG021 10BR VIS NNE3 SSW3 RAIN AMT 0.5MM
0148718890999991993032703004+49467-119600SY-SA+0344YYF  V0203201N003112200019N0240001N1+00781-00501101111ADDAA106000091AG11000GD12991+0210099GD22991+0300099GF103991999999999999999999MA1100981096931MD1310031+9999REMSYN010 555 92703AWY017CU1AC3 VIRGA 3003
0044999999999991993032814144+58583-029917FM-18+9999DRIB V02099999999999999999N9999999N9+00301+99999098191ADDAG10999MW1001SA1+0609REMSYN01144772     ?
0037722666999991993092518009+31800-098950NSRDB+042299999V020999999999999999999999999999+99999+99999999999ADDGQ100600357915519GR100601103913599
0123725526999991993010213003+40733-099000SAO  +0649EAR  V0201701N00661000601MN0160931N1-00501-00781999999ADDAG11999GD14991+0006019GF108991999999999999999999GP10060000001000000001000000001000GR100600000900009MA1101221999999MW1001
0183726500999991993050722003+43167-095150SAO  +04083SE  V0201401N00771007501EN0241401N1+02381+01831999999ADDAG11999GD13991+0075019GD23991+0750019GF107991999999999999999999GP10060032301024018701027019901024GQ100600484925259GR100600890913429MA1100541999999MW1001REMAWY019CB NW MOVG N/ NOSPL
0092172920999991993071212004+37200+028350FM-12+064699999V0202901N00361220001CN0200001N9+03571+00861101001ADDAA106000091AG14000GA1001+999999999GF100991001001999999001001MA1999999093671MD1810031+9999
0054726626999991993080707009+45150-087150NSRDB+046499999V020999999999999999999999999999+99999+99999999999ADDGP10060000001000000001000000001000GR100600000900009
0125727885999991993090719003+48117-123500SAO  +0088CLM  V0200801N002512200019N0402341N1+02551+01221999999ADDAG11999GF100991999999999999999999GP10060067401024086501027009101024GQ100600476914479GR100600907913469MA1102171999999MW1001
038591408040309199308280000C+07333+134483SY-SA+0029PTRO V0202405N003152200059N0240005N9+02835+02395101145ADDAA101000095AA206000091AG14000GA1999+005495085GA2999+091445005GD12015+0054099GD22015+0900099GF102025021011004501001991KA1240N+02441MA1101151100765MD1210081+0011REMSYN032 333 20244 565/1 58001 555 92800AWY011RADAT 60152EQDN01 00000JPWTH 0QNNE71 0 00201E71 0 00201G71U0 99999H71 0 11018H71 0 32300K71 0 00075L71 0 01500M71 0 29755N71 0 00000Q71 0 10114S71 0 00083V71 0 00202X71 0 24006
0072727677999991993070708284+47650-101433SAOSP+0587N60  V0200101N001519999999N9999999N9+00831+00721999999ADDAG11999MA1101121999999MW1001REMAWY013PK WND 04 000EQDQ01+000002VOVAR 
0135702550265141993070100004+61967-151183SAO  +0045SKW  V0201901N002510180019N0402341N1+01771+01001999999ADDAG11000GD12991+0090099GD23991+0180099GD33991+0300099GF107991999999999999999999KA1999M+01881MA1101491999999MW1001REMAWY011MAX 66 LAST
0172724338138021993032911003+38550-089850SAO  +0138BLV  V0203201N00051021001MN0096561N1+00881+00611101371ADDAG11999GD13991+0210019GD23991+0300019GD33991+0750019GF107991999999999999999999GP10060000001000000001000000001000GR100600000900009MA1101391999999MW1451EQDQ01+000100PRSWM2
0125725207999991993012718104+40283-079400SAOSP+0361LBE  V0203001N00461004501EN0064371N1+99999+99999999999ADDAG11000GD13991+0045019GD24991+0075019GF108991999999999999999999MA1101661999999MW1451REMAWY010OCNL LGT SEQDQ01+000100PRSWM2
0298726223947251993101223003+44933-074850SAO  +0065MSS  V0201905N002650304859N0112005N1+00835-00115100635ADDAG11999GD12995+0060019GD23995+0300019GF106045999999999999999999GP10060000101010000201016000101010GQ100600886925819GR100600010904239MA1100641099865MW1001EQDN01 00000JPWTH 0QNNE11 0 00299E11 0 00499G11 0 00100K11 0 00030L11 0 00700M11 0 29490N11 0 00000Q11 0 10063S11 0 00047V11 0 00805X11 0 19005
0128911860999991993102806003+21150-157100SAO  +0137MKK  V0200301N004119999999N9999999N9+02331+01221999999ADDAG11000GP10060000001000000001000000001000GR100600000900009MA1101801999999MW1001REMAWY018PK WND 009 745-M MEQDQ01+000002VOVAR 
0036999999999991993120109064+62550-040783FM-18+9999DRIB V02099999999999999999N9999999N9-00321+99999097731ADDAG10999MW1001REMSYN01162712     ?
0102693264999991993071623004+00000+000000SAO  +9999KQHZ V0203201N005110270019N0482801N1+99999+99999100631ADDAG11999GD12991+0180099GD23991+0270099GD33991+0750099GF107991999999999999999999MA1101291999999MW1001
0198064960999991993052906004+50467+006183FM-12+0570EBLB V0202401N00211003601CN0050001N9+00911+00771101681ADDAA106000091AG10000AY121061AY221061GA1031+001509079GA2041+003609089GF106991061021001501001001IA1099IA2999+00709KA1120N+00751MA1999999095021MD1110071+9999MW1101REMSYN028 333 20075 31007 83705 84812
0058022860999991993052404504+63800+020283FM-15+0014ESNU V0203201N00561999991CY0099001N1+00901+00001999999ADDAG11999MA1101291999999REMMET005CAVOKEQDQ01+000000PRSWM2
0108719510999991993100914004+54467-128583SAO  +0217YXT  V0200101N008712200019N0241401N1+00501+00201102441ADDAG11999GF100991999999999999999999MA1102371099771MW1001OC101281REMAWY015WSX 0216+29 K ?EQDQ01+999990APOSP 
0051160083999991993010218004+46833+010500FM-15+1800LIVE V0203601N00771999991CY0099001N1-00801-01801999999ADDAG11000OC101591REMMET005CAVOKEQDQ01+000000PRSWM2
0087717493999991993041413004+48817-087100SAO  +0287YTJ  V0209991C000010750019N0241401N1-00101-00501999999ADDAG11999GD12991+0150099GD23991+0750099GF107991999999999999999999MA1102001999999MW1001
0064727554999991993082204004+47583-090833SAO  +0241P61  V0203201N000519999999N9999999N9+01551+00831999999ADDAG11999MW1001REMAWY020PK WND 02 ///943 RNOEQDQ01+000002VOVAR 
0024037170999991993072823004+51483-003183FM-12+000999999V0202201N004119999999N9999999N9+01741+01631101471ADDAG12999MD1710101+9999
0054722977931841993121610009+33683-117867NSRDB+001699999V020999999999999999999999999999+99999+99999999999ADDGP10060000001000000001000000001000GR100600000900009
0147719044999991993080918004+61583-071933SAO  +0151YKG  V0201301N006610660019N0241401N1+02101+00701102361ADDAA106000091AG10000GD12991+0045093GD23991+0660099GF107991999999999999999011MA1102301999999MD1710101+9999MW1001REMAWY026CF5CI1 OBS TAKEN -5 7010 ?
0024029800999991993022621004+59967+019967FM-12+001099999V0201801N006219999999N9999999N9-00121+99999100891ADDAG12000MD1710051+9999
0071725525999991993092601009+40600-098433NSRDB+059699999V020999999999999999999999999999+99999+99999999999ADDGP10060000701025001801028000601025GQ100600880926709GR100600020905559
0123725946242861993050212003+41783-124233SAO  +0017CEC  V0203301N00361000901MN0056331N1+01051+00831999999ADDAG11000GD14991+0009019GF108991999999999999999999GP10060000001000000001000000001000GR100600000900009MA1101961999999MW1001
0036999999999991993080114494+00017+083983FM-18+9999DRIB V02099999999999999999N9999999N9+99999+99999999999ADDAG10999MW1001REMSYN01123066     ?
0089943510999991993102820004-24417+145450FM-12+028599999V0200501N00101220001CN0500001N9+02151+00721100931ADDAG11999AY101999AY201999GA1001+999999999GF100991001001999999001001MA1999999097711MW1021
0112355420999991993120515004+48617+061267FM-12+011499999V0203601N00201220001CN0200001N9-01101-02221103301ADDAA106000091AG14000GF102991001001999999001021KA1120M+99999MD1210051+9999REMSYN010 333 11165EQDQ01 -01652ATMX  
0079013110999991993053122504+60300+005217FM-15+0050ENBR V0202101N00151002101CN0040001N1+01101+01101999999ADDAG11999GA1011+000609079GA2031+001209079GA3061+002109079MA1099801999999MW1511
0123725316999991993090711003+39833-088867SAO  +0208DEC  V0200201N002512200019N0402341N1+00881+00831999999ADDAG11999GD12991+0600019GF102991999999999999999999GP10060000001000000001000000001000GR100600000900009MA1102301999999MW1001
0104165500999991993090421004+39933+009717FM-12+0156LIEB V0202601N00151220001CN0200001N9+02201+00671100631ADDAG12000GA1031+030009039GF103991021001999999031021MA1999999098901MD1310171+9999REMSYN014 333 83360 555
0106789250999991993020408004+14600-061000FM-15+0004TFFF V0201001N00101018001CN0112651N1+02201+02101999999ADDAG11999GA1021+006009089GA2031+018009059GA3051+030009039MA1101291999999REMMET005NOSIGEQDQ01+000000PRSWM2
0036999999999991993110923524+84067-110567FM-18+9999DRIB V02099999999999999999N9999999N9-01911+99999097381ADDAG10999MW1001REMSYN01148565     ?
0056874800999991993071705004-32917-060783FM-15+0025SAAR V0209991C00001220001CN0040001N1+00301+00301999999ADDAG11999MA1102001999999REMMET003NEWEQDQ01+000000PRSWM2
0119297260999991993121721004+54367+081950FM-12+013599999V0202801N00101010201CN0200001N9-01031-01161103381ADDAG12000GA1081+010209059GF108991081051012501999999MA1999999101591MD1210221+9999REMSYN010 333 88634EQDQ01+999990APOSP 
0284912450416061993032108003+19283+166650SAO  +0004PWAK V0201005N002150762059N0160005N1+02505+02065101685ADDAG11999GA1999+006105085GA2999+076205025GD12015+0060099GD24085+0750099GF108085999999999999999999MA1101691101645MW1001EQDN01 00000JPWTH 0QNNE71 0 00201E71 0 00610G71 0 00250H71 0 11020H71 0 37250K71 0 00069L71 0 01000M71 0 30015N71 0 00000Q71 0 10168S71 0 00077V71 0 01010X71 0 10004
0061013840999991993040911504+60200+011083FM-15+0204ENGM V0201901N00101999991CY0099001N1+00301-01201999999ADDAG11000MA1102711999999REMMET008CAVOK NOEQDQ01+000000PRSWM2
0050029480999991993011515004+61950+028950FM-12+0095EFSA V0202301N00211004201CN0300001N9-00151-00221100631ADDAG12000GF107991071051004501999999MD1210201+9999
0085895140999991993030706004-70767+011750FM-12+012099999V0201601N01441021001CN0100001N9-00411+99999098511ADDAG12000GA1081+021009049GF108991081001022501021999MD1210061+9999REMSYN010 333 88457
0074102180999991993012609424+52883+008233FM-16+0056EDNA V0202601N01081005401CN0040001N1+99999+99999999999ADDAG11003GA1041+003609079GA2071+005409059MW1691REMMET017GRN WHT TEMPO GRN
0414726550149261993082112003+45550-094067SAO  +0313STC  V0209999C000052200059N0080005N1+01175+01175102205ADDAA101000095AA206000091AG10000GA1999+019815065GF100005999999999999999999GP10060000901010004601016000701010GQ100600874907519GR100600035907689KA1999M+02381KA2999N+01161MA1102201098465MD1610071+9999MW1455REMAWY043VSBY NE2 FEW SC/ 607 1500 47553 RADAT 20140EQDQ01+000100PRSWM2N01 07000JPWTH 0QNNE71 0 00000G71U0 99999H71 0 15065K71 0 00053L71 0 00500M71 0 29075N71 0 07000Q71 0 10220S71 0 00053V71 0 00000X71 0 00000
0414722926031541993080905003+33300-117350SAO  +0023NFG  V0209999C000050426759N0112005N1+02115+01785101521ADDAG11999GD12991+0045019GD23991+0420019GD33991+0600019GF107995999999999999999999GP10060000001000000001000000001000GR100600000900009MA1101491999999MW1001EQDN01 00203KCLC1 3N02 00409KCLC2 3N03 00409KCLC3 3N04 29970EALTP 3N05 29885FPRES 3N06 00000JPWTH 0N07 10152ISLVP 3QNNE41 3 00203E41 3 00409E41 3 00409G41 0 00140K41 0 00064L41 0 00700C41 3 29970M41 3 29885N41 0 00000Q41 3 10152S41 0 00070V41 0 00999X41 0 00000
0036999999999991993012622264+30217+128883FM-18+9999DRIB V02099999999999999999N9999999N9+99999+99999999999ADDAG10999MW1001REMSYN01153801     ?
0096717393999991993071313004+48367-089117SAO  +0209WEC  V0202801N005119999999N9999999N9+01401+01001101441ADDAG11999MD1210071+9999MW1001OC100561REMAWY014STN PRES 894 ?EQDQ01+000942APC3  Q02+000002VOVAR 
0153724273038041993050610003+39350-081433SAO  +0262PKB  V0209999C000012200019N0040231N1+01161+01111102101ADDAG11999GD16991+0001519GF110991999999999999999999GP10060000001000000001000000001000GR100600000900009MA1102131999999MW1451REMAWY002F1EQDQ01+000100PRSWM2
0129265240999991993082103004+55933+023317FM-12+010899999V0202301N00101005101CN0100001N9+01021+00941101201ADDAG12000GA1081+005109059GF108991081051004501999999MA1999999099911MD1710131+9999REMSYN020 333 88617 555 20102EQDQ01+999990APOSP 
0130563570999991993032118004+29050+100300FM-12+372999999V0209991C00001220001CN0300001N9-00711-01391999999ADDAA106000091AG14000GA1001+999999999GF100991001001999999001001KA1240M+00481MA1999999064611MD1210011+0201REMSYN016 333 00253 10048
0140724515230641993012722003+37933-100717SAO  +0881GCK  V0202401N004112200019N0321871N1+00611+00001101651ADDAG11999GD12991+0750013GF102991999999999999999999GP10060033501011059901016010101011GQ100600669922009GR100600553914119MA1101491999999MW1001
0100337170999991993052121004+48050+032200FM-12+014699999V0209991C00001220001CN0500001N9+01771+01291101411ADDAG12000GA1001+999999999GF100991001001999999001001MA1999999099731MD1410001+9999EQDQ01+999990APOSP 
0039479090999991993091402004+28383+129500FM-12+000799999V0203101N000519999999N9999999N9+02581+02411101561ADDAG12999MA1999999101481MD1210131+9999
0030714370999991993020413004+43300-079800SAO  +0077WWB  V0202901N002519999999N0144841N1-00401-00901103061ADDAG11999MD1210231+9999MW1001
0109710814999991993072114004+69367-081817SAO  +0051YGT  V0201101N006110006019N0004021N1+00201+00201101021ADDAG11999GD16991+0001599GD24991+0006099GF108991999999999999999999MA1100981999999MW1451MW2611REMAWY007F6SC4 ?
0024994270999991993090906004+42967-070617FM-12+0013IOSN V0200201N003619999999N9999999N9+01541+99999101251ADDAG12000MD1810161+9999
0113654600999991993050809004+06100+000117FM-12+0019DGAK V0202701N00151039001CN0350001N9+03051+02561101101ADDAG12000GA1031+005409089GA2041+039009039GF106991031021004501031021MD1999999-0031REMSYN022 333 59003 83818 84363
0111073850999991993083009004+46300+004800FM-12+0217LFLM V0200901N00101220001CN0200001N9+01661+00881102671ADDAA106000091AG14000GA1031+075009009GF103991001001999999001021MA1999999100101MD1210011+9999REMSYN010 333 83075
0039478180999991993012103004+32733+130267FM-12+067999999V0200601N002119999999N9999999N9+00061-00761102701ADDAG12000MA1999999094421MD1810021+9999
0372722045128431993100921003+27650-080417SAO  +0007VRB  V0201405N004650762059N0240005N1+02835+02335101295ADDAG11001GD12995+0090019GD22995+0240019GD33995+0750019GF105045999999999999999999GP10060028801010022801016017201010GQ100600594924259GR100600697913709MA1101291101195MD1610071+9999MW1171MW2955REMAWY019TB47 S MOVG N / 607EQDN01 01000JPWTH 0QNNE21 0 00299E21 0 00299E21 0 00499G21 0 00250K21 0 00074L21 0 01500M21 0 29880N21 0 01000Q21 0 10129S21 0 00083V21 0 00605X21 0 14009
0100380810999991993100621004+44800+069117FM-12+019099999V0203601N00201220001CN0200001N9+00111-00921103401ADDAG12000GA1001+999999999GF100991001001999999001001MA1999999100971MD1810011+9999EQDQ01+999990APOSP 
0010994230999991993100904004+32683-079883FM-12+0003FBIS V0202801N001519999999N9999999N9+01971+99999101491ADDAG12999
0061768053999991993042108454+16750-099750FM-15+0005MMAA V0209991C00001999991CY0099001N1+02201+01901999999ADDAG11000MA1101021999999REMMET008CAVOK HZEQDQ01+000000PRSWM2
0010992400999991993120711004+38450-074700FM-18+0003DB24 V0203001N010019999999N9999999N9+00861+99999101981ADDAG12999
0122346550999991993100700004+47633+043150FM-12+004999999V0201201N00501220001CN0100001N9+00461+00261102971ADDAG12000GA1001+999999999GF100991001001999999001001MA1999999102351MD1710031+9999REMSYN013 555 10003 /-EQDQ01+999990APOSP 
0244671570999991993030206004-22800+047833FM-12+0006FMSG V0201201N00721009901CN0200001N9+02601+02271101361ADDAA124038091AG10002AY161061AY261061GA1011+002109079GA2031+005109089GA3061+009909059GF107991071081002501999999KA1120M+02721KA2120N+02401MA1999999101291MD1210111+9999MW1211OA149901961REMSYN052 333 10272 20240 50254 55/// 81707 83817 86633 91138
0051701170999991993112610004+65567-167917SAO  +0083PATC V0200201N007719999999N0160931N1-02281-02731999999ADDAG11999MA1100881999999MW1001REMAWY011CLR BLO 120
0108725036147571993041904003+41633-073883SAO  +0051POU  V0209999C000012200019N0241401N1+00331-00061999999ADDAG11999GF100991999999999999999999GP10060000001000000001000000001000GR100600000900009MA1101631999999MW1001
0076566910999991993032408004+26867+104283FM-12+223699999V0201801N00801036001CN0300001N9+01891+00241999999ADDAA106000091AG14999GF107991011011008001041021MA1999999077271MD1710121+9999
0105718930999991993062401004+49717-124900SAO  +0024YQQ  V0201101N00301018001MN0321871N1+01801+00801102201ADDAG11999GD13991+0180099GF107991999999999999999999MA1102201101911MW1001REMAWY005SC6 ?EQDQ01+999990APOSP 
0157114380999991993112700004+50383+013350FM-12+032299999V0200901N00401003001CN0015001N9-00711-00841103371ADDAA106000091AG10000AY111061AY211061GA1081+003009079GF108991081061004501999999GJ100009MA1999999099121MD1810051+9999MW1101REMSYN026 333 55000 88710 555 391//
0096871620999991993082109004-26200-058233SY-MT+0060SARF V0202501N00211220001CN0200001N1+00801+00531101901ADDAG11000GF100991001001999999001001MA1101901999999MD1610071+9999REMMET003NEWEQDQ01+000000PRSWM2
0347745060232391993061311003+37733-122317SAO  +0005NGZ  V0201305N000552200019N0112005N1+01441+01051101331ADDAG11999GF100995999999999999999999GP10060000001000000001000000001000GR100600000900009MA1101321101275MW1001EQDN01 00000KCLC1 3N02 99999CCLHTU3N03 00051BDPTP 3N04 29920EALTP 3N05 00000JPWTH 0N06 10133ISLVP 3N07 00058BTMPD 3QNNE41 3 00000G41U3 99999K41 3 00051L41 0 00700C41 3 29920M41D0 29905N41 0 00000Q41 3 10133S41 3 00058V41 0 00099X41 0 13001
0141703263999991993090602424+58683-156667SAOSP+0017AKN  V0201401N01081006001MN0321871N1+99999+99999999999ADDAG11999GD13991+0060019GD23991+0090019GD33991+0240019GD44991+0540019GF108991999999999999999999MA1098951999999MW1801OC101491REMAWY007CIG RGD
0123727675940111993030407003+48417-101350SAO  +0508MIB  V0202801N001512200019N0112651N1-00231-00341102181ADDAG11999GD12991+0660019GF102991999999999999999999GP10060000001000000001000000001000GR100600000900009MA1102031999999MW1001
0092102180999991993062510204+52883+008233FM-15+0056EDNA V0202901N00921015001CN0112651N1+01501+00501999999ADDAG11999GA1031+009009089GA2051+015009059MA1102301999999REMMET007BLU BLUEQDQ01+000000PRSWM2
0096717260999991993100216004+47917-074617SAO  +0442WPK  V0202501N002519999999N0144841N1+00701+00001101001ADDAG12999MA1999999095771MD1110031+9999MW1001REMAWY023CLR BLO 50  (0000,0000)EQDQ01+999990APOSP 
0077402720999991993042803004+31667+035967FM-15+0721OJAI V0203601N00101999991CY0099001N1+00201+00201999999ADDAG11000MA1101021092711REMMET008CAVOK NOEQDQ01+999990APOSP Q02+000000PRSWM2
0183747240231681993082522003+32883-112717SAO  +0262GBN  V0203301N002510660019N0563271N1+02611+02221101201ADDAG11999GD12991+0120019GD22991+0360019GD34991+0660019GF108991999999999999999999GP10060030701011000001016030701011GQ100600351923679GR100601093913379MA1101321999999MW1611REMAWY004WR//
0080719010999991993122101004+55333-063217SAO  +0479WTB  V0202901N005119999999N9999999N9-01301-01601100921ADDAG11999MA1999999094901MD1210271+9999MW1001EQDQ01+999990APOSP Q02+000002VOVAR 
0155723046999991993082616003+35917-075700SAO  +0004MQI  V0202301N002012200019N0112651N1+02941+99999999999ADDAG11999GD12991+0036019GD22991+0450019GF102991999999999999999999GP10060076601025073201028015701025GQ100600336913479GR100601114913389MA1102301999999MW1001
0290725266047511993060510003+41800-078633SAO  +0645BFD  V0201305N00675006105MN0112005N1+01175+00895100705ADDAG11999GD14995+0060019GF108085999999999999999999GP10060000101010000001016000101010GQ100600887905999GR100609999903879MA1100781093195MW1805REMAWY009WND 11V19EQDN01 02300JPWTH 0QNNE21 0 00699G21 0 00020K21 0 00048L21 0 00700M21 0 27520N21 0 02300Q21 0 10070S21 0 00053V21 0 01010X21 0 13013
0115517300999991993070506004+40500+081050FM-12+101399999V0202901N00101220001CN0250001N9+03301+01191100091ADDAA106000091AG14000GA1001+999999999GF100991001001999999001001KA1240N+01491MD1710111-0101REMSYN016 333 05102 20149
0100223610999991993101812004+66750+042583FM-12+001599999V0201701N00301005401CN0170001N9-00071-00171100781ADDAG12000GA1061+005409059GF108991061051004501071999MA1999999100471MD1710141+9999REMSYN010 333 86618
0039475810999991993063007004+40533+141533FM-12+002899999V0201201N006219999999N9999999N9+01411+00691100651ADDAG12999MA1999999100331MD1210051+9999
0133063750999991993042200004+51650+005700FM-12+0021EHVK V0209991C00001220001CN0150001N9+00851+00761100841ADDAA106999929AG10003AY191061AY281061GA1011+066009009GF101991001001999999001021MA1999999100601MD1110051+9999MW1011REMSYN010 333 81072
0072121350999991993020915004+54600+018817FM-12+000399999V0202201N00101002101CN0012001N9+00231+00161103411ADDAG12000AY121031AY221031GF108991081061002501999999MD1710041+9999MW1281
0097594460999991993111800004+22250+109967FM-12+012199999V0200201N00201220001CN0130001N9+01951+01451101771ADDAA106000091AA224999929AG14000GF102991021001999999031001MD1210141+0201REMSYN016 333 00200 79999
0071724776999991993080121009+38750-109750NSRDB+138899999V020999999999999999999999999999+99999+99999999999ADDGP10060080101028079501031008301028GQ100600254921869GR100601197913269
0116985500999991993061609004+11250+125000FM-12+0003RPVA V0203401N00201045001CN0160001N9+02811+02471100951ADDAG12003AY181031AY221031GF107991031091004501071001MD1310091+9999MW1151UA1M010059999REMSYN022 222// 20101 333 56999
0060042500999991993013020504+64167-051750FM-15+0070BGGH V0201001N00511220001CN0112651N1-02001-02701999999ADDAG11000GA1011+003009059MA1098921999999EQDQ01+000000PRSWM2
0063714720999991993060600004+53317-132767SY-SA+0014WQS  V0202201N003119999999N9999999N9+01221+99999100901ADDAA106000091AG14000MA1999999100741MD1710091+9999REMSYN004 333
0124154220999991993031512004+44417+026083FM-12+008299999V0202301N00401220001CN0100001N9+00831+00001103071ADDAA106000091AG14000AJ100239199999999GF104991041061008001001001IA1279MA1999999102041MD1010041+9999REMSYN016 333 43023 92851
0133718100999991993112004004+49833-064300SAO  +0053WBY  V0201401N006612200019N0048281N1+00001+00001100801ADDAG11999GD12991+0015099GF102991999999999999999999MA1999999100171MD1710381+9999MW1001OC100971REMAWY011(0503,0000)EQDQ01+999990APOSP 
0031164600999991993011222204+37467+015050FM-15+0017LICC V0202301N00301220001CN0050001N1+00501+00401999999ADDAG11999MA1102611999999MW1101
0035070370999991993052900004+49383+001183FM-12+0157LFOP V0201701N001019999999N9999999N9+00861+00771101741ADDAA106000091AG14000MD1810021+9999
0154161530999991993012415004+43950+008167SY-MT+0221LIMU V0202401N00721009001CN0100001N1+01111+00951102241ADDAG11000GA1011+003609089GA2071+009009059GF108991081081004501999999MA1999999099571MD1710311+9999REMMET029OVC QUK 2 QUL 1S VIS MAR 1OKMEQDQ01+000000PRSWM2
0064727684999991993032707004+47333-106933SAO  +0811JDN  V0200101N002019999999N9999999N9+00381+00271999999ADDAG11999MW1001REMAWY020PK WND 05 ///287 RNOEQDQ01+000002VOVAR 
0125722735930261993041920003+31467-109600SAO  +1265DUG  V02099999999992200019N0563271N1+02551-00341100841ADDAG11999GF100991999999999999999999GP10060102301011097501016011101011GQ100600207918869GR100601267913559MA1101421999999MW1001
0052154550999991993072005004+44283+025517FM-12+010899999V0200701N00201220001CN0100001N9+01991+99999999999ADDAG12999GA1001+999999999GF100991001001999999001001
0363725210148951993012517003+40917-081433SAO  +0368CAK  V0202505N00675007325MN0160005N1-00225-00725102995ADDAA101000095AG11999GA1999+007325085GA2999+076205025GD13055+0072019GD23025+0750019GF107065999999999999999999GP10060036601010022001016026301010GQ100600619916179GR100600664914119MA1102811098325MW1001EQDN01 00000JPWTH 0QNNE71 0 00406E71 0 00403G71 0 00024H71 0 11024H71 0 37250K71 0 00019L71 0 01000M71 0 29035N71 0 00000Q71 0 10299S71 0 00028V71 0 00907X71 0 25013
0156468110999991993112800004+20717+116717FM-12+000399999V0200301N00721007501CN0110001N9+02361+02081101931ADDAA106000091AG14000GA1031+004209079GA2081+007509059GF108991081051004501999999MA1101901101901MD1210071+9999REMSYN039 555 30322 83714 88625 00000 QNH3009INS
0151722955031221993091020003+33800-118333SAO  +0031TOA  V0203001N005612200019N0048281N1+02271+01881999999ADDAG11999GD16991+0001519GF110991999999999999999999GP10060032701025000001028032701025GQ100600297916999GR100601170913489MA1101081999999MW1051REMAWY002H3
0052154790999991993051101004+44083+027950FM-12+015899999V0203201N00101220001CN0100001N9+00941+99999999999ADDAG12999GA1001+999999999GF100991001001999999001001
0178122720999991993010406004+53767+020417FM-12+013599999V0201101N00201220001CN0080001N9-01291-01491104821ADDAA106000091AG10000AJ100029199999999AY111061AY211061GA1001+999999999GF100991001001999999001001IA1279IA2999-01809KA1120N-01291MD1710071+9999MW1101REMSYN022 333 21129 3/118 43002
0054725958999991993120714009+41500-120533NSRDB+134199999V020999999999999999999999999999+99999+99999999999ADDGP10060000001000000001000000001000GR100600000900009
0130766950999991993042219004+19850-090550SAO  +0005CPE  V0209999999999004501EN0112651N1+02801+02201100011ADDAG11999GD13991+0045019GD23991+0240019GF107991999999999999999999MW1001REMAWY0140000 185 33099EQDQ01+999990APOSP Q02+099913APOSP 
0071725079999991993040822009+41533-071283NSRDB+005299999V020999999999999999999999999999+99999+99999999999ADDGP10060008601028000001031008601028GQ100600707926279GR100600451913639
0102726586999991993122104003+43650-094417SAO  +0354FRM  V0203101N003019999999N0160931N1-01171-01451999999ADDAG11999GP10060000001000000001000000001000GR100600000900009MA1101191999999MW1001REMAWY011CLR BLO 120
0166020440999991993083112004+67817+020333SY-MT+0452ESNQ V0201901N00361021001CN0600001N1+01151+00231102031ADDAG11000GA1021+012609999GA2071+021009999GF199999051081012501001001MA1102001096591MD1810071+9999REMSYN016 333 81840 84357MET003NEWEQDQ01+000052SCOTCVQ02+000000PRSWM2
0111152620999991993030312004+45817+026367FM-12+177699999V0201801N00601000151CN0000001N9+99999+99999999999ADDAG12001AY171061AY241061GA1091+999999999GF109991091999999999999999MW1711REMSYN028 333 92723 92911 96036 96049
0069123100999991993042915004+52350+014600FM-12+002499999V0200901N00601220001CN0100001N9+02581+00771101651ADDAG12000GF102991021041022501001001MD1610091+9999REMSYN010 555 QNT12
0092062750999991993092308514+52067+005883FM-16+0052EHDL V0200201N00211024001CN0080001N1+01301+01201999999ADDAG11999GA1071+024009999GA2081+036009999MA1101491999999REMMET007NEW BLUEQDQ01+000000PRSWM2
0156724955999991993121422003+38217-122283SAO  +0010APC  V0202701N00251006001EN0321871N1+99999+99999999999ADDAG11999GD13991+0060019GF107991999999999999999999GP10060030101011011901016025101011GQ100600648920189GR100600602914129MA1101151999999MW1001REMAWY007RWU S-N
0068031710999991993050400504+56383-002867FM-15+0012EGQL V0202201N00101999991CY0099001N1+00201+00001999999ADDAG11999MA1103011999999REMMET015CAVOK BLU NOSIGEQDQ01+000000PRSWM2
0119476380999991993092306004+35667+138550FM-12+027499999V0203001N001019999999N0030001N9+01651+01531101111ADDAG12000AY121061AY221061GF108991061071999999021999KA1150M+01691MA1999999097841MD1810161+9999MW1611REMSYN010 555 00169
0054723676230481993041411009+35183-103600NSRDB+123599999V020999999999999999999999999999+99999+99999999999ADDGP10060000001000000001000000001000GR100600000900009
0100722610220101993081022284+29367-100917SAOSP+0307DRT  V0201701N005119999999N0128751N1+03881+01501101161ADDAG11999MA1101391097761MW1001REMAWY025CLR BLO 60  PK WND 15 000EQDQ01+999990APOSP Q02+999990APOSLP
0139346350999991993032803004+47700+040267FM-12+012599999V0200401N00601001501CN0020001N9+00421+00351101991ADDAA106000091AA224999929AG14000AY121031AY221031GA1081+001509079GF108991081061001501999999MD1210011+9999MW1101REMSYN020 333 88705 555 7990/
0131711090999991993111705004+50683-127367SAO  +0022YZT  V0209991C000010102019N0160931N1+00401+00301101551ADDAG11999GD12991+0066099GD23991+0102099GF107991999999999999999999MA1101521101261MW1801REMAWY016SF2SC7 TCU EMBDDEQDQ01+999990APOSP 
0095085210999991993022814004+32683-016767FM-15+0055LPFU V0200301N01021006001CN0112651N1+01501+00901999999ADDAG11999GA1051+006009089MA1102101999999REMMET026RS0116KT 060215KT 240214KTEQDQ01+000000PRSWM2
0039476410999991993120401004+35983+139083FM-12+021999999V0200101N001019999999N9999999N9+01151+00611100731ADDAG12999MA1999999098131MD1110171+9999
0074167420999991993052611504+36783+027067FM-15+0129LGKO V0203201N00611220001CN0112651N1+02401+01401999999ADDAG11000GA1011+007509089MA1101291999999REMMET005NOSIGEQDQ01+000000PRSWM2
0105478540999991993052311004+32083+131450FM-15+0082RJFN V0201201N00151220001CN0112651N1+02001+01501999999ADDAG11999GA1011+015009059GA2031+051009039MA1100911999999REMMET020098/ FCST 1117 NOSIGEQDQ01+000000PRSWM2
0161102340999991993041918004+53133+009350FM-12+0061EDCR V0203201N00361069001CN0350001N9+00781-00031101871ADDAA106000091AG14000GA1071+069009009GF107991001001999999001041IA1099KA1120M+01031KA2120N+00531MA1999999101121MD1210171+9999REMSYN028 333 10103 20053 31/// 87073
0070744900999991993051503004+42467-071283SAO  +0041BED  V0209991C000012200019N0321871N1+00881+00441999999ADDAG11000GF100991999999999999999999MA1100951999999MW1001REMAWY004LAST
0179727430948501993010917003+46533-087550SAO  +0434MQT  V0203501N005610750019N0112651N1-01281-01451104061ADDAA101000095AG11999GD12991+0045019GD23991+0750019GF107991999999999999999999GP10060006801025004701028005301025GQ100600714915879GR100600451914159MA1103621999999MW1001REMAWY004SE40
0100025860999991993081021004+58250+017017FM-12+000799999V0202301N00361220001CN0200001N9+01511+01261099861ADDAG12000GA1031+999999039GF103991031001999999071001MA1999999099761MD1110051+9999REMSYN010 333 83399
0098401550999991993052512004+32800+035033FM-12+0008LLHA V0203001N00511090001CN0060001N9+02271+01801101171ADDAA106000091AG10000AY101061AY201061GF107991001001999999001071MA1999999101071MD1710051+9999MW1101
0102485500999991993042215004+09467+100050FM-12+000799999V0200901N00311220001CN0080001N9+02931+02501101091ADDAA106000091AG10000AY101031AY201031GF101991011011008001001051MD1999999+0111MW1101REMSYN010 333 58011
0151032400999991993121613004+55417-001600SY-MT+0023EGQM V0202901N00721220001CN0400001N9+00551-00111098601ADDAG12999GA1021+006009999GA2021+060009999GF104991021081008001031011MD1210351+9999OA140101491OC101291REMSYN028 333 81820 84070 90710 91129MET007NEW BLU
0062710500999991993052714004+52117-124133SAO  +0910WPU  V0209991C000019999999N0144841N1+00701+00301101391ADDAG11999MD1010001+9999MW1001REMAWY023CLR BLO 100 (0000,0000)
0043031440999991993070710004+56317-003733FM-12+003599999V0203001N003619999999N9999999N9+01671+01551102331ADDAG12999MD1710041+9999REMSYN010 555 90951
0044999999999991993122610324+20850+059217FM-18+9999DRIB V0200301N007219999999N9999999N9+02491+99999101861ADDAG10999MW1001SA1+2529REMSYN01120351     ?
0105977900999991993051216004-04533+129900FM-12+000499999V0209991C00001105001CN0100001N9+02561+02411101101ADDAA106000091AA224999929AG14999GA1021+006009089GF105991021011008001031021REMSYN022 333 56300 79999 82820
0055152820999991993042810004+00000+999999FM-12+101699999V0209991C00001036001CN0160001N9+01201+99999999999ADDAG12999GF108991041031008001071999REMSYN010 333 95060
0010999999999991993102611004-19200+147000FM-13+9999CPCL V0203401N007219999999N9999999N9+02331+99999101101ADDAG12999
042291765061705199311140000C-14333-170717SY-SA+0003NSTU V0203605N005250762059N0192005N9+02835+02285100735ADDAA101000095AA206000091AA324000591AG13000GA1999+048775035GA2999+076205005GD12035+0480099GD23055+0750099GF107075021001999999031991KA1240N+02501MA1100751100695MD1710321-0251REMSYN038 333 20250 56/88 59025 70005 555 91400AWY031FEW CU/ 732 1032 84 RADAT 94150EQDN01 00000JPWTH 0QNNE71 0 00204E71 0 00406G71 0 00250H71 0 23160H71 0 32250K71 0 00073L71 0 01200M71 0 29735N71 0 00000Q71 0 10073S71 0 00083V71 0 00909X71 0 36010
0024032300999991993020321004+55283-002283FM-12+020799999V0202501N009819999999N9999999N9+00661+00571103011ADDAG12000MD1210021+9999
0043030440999991993102120004+58283-004433FM-12+008099999V0209991C000019999999N9999999N9+00081-00031103501ADDAG12999MD1210091+9999REMSYN010 555 91950
0103717134999991993090913004+47600-070233SAO  +0298YML  V0203301N001010180019N0241401N1+01101+01001999999ADDAG11999GD12991+0060099GD23991+0180099GF107991999999999999999999MA1101051999999MW1001REMAWY007F BNK S
0054726394999991993051510009+46317-085467NSRDB+026599999V020999999999999999999999999999+99999+99999999999ADDGP10060000001000000001000000001000GR100600000900009
0077972300999991993100106004-08750+115167FM-15+0001WRRR V0201301N00411220001CN0112651N1+03001+02301999999ADDAG11000GA1021+005709999MA1101081999999REMMET008NEW NOSIEQDQ01+000000PRSWM2
0163723677230541993102118003+35650-105150SAO  +2095LVS  V0209999C000012200019N0563271N1+01161-00061999999ADDAA106000091AG10000GF100991999999999999999999GP10060069101011096801016006801011GQ100600499915569GR100600888913809KA1999N-00231MA1103051999999MD1810031+9999MW1001
0317723110138731993041008003+33950-083317SAO  +0244AHN  V0202905N00825007325MN0112005N1+01175+00725100425ADDAA101000095AG11999GA1999+007325065GD14085+0072019GF108085999999999999999999GP10060000001000000001000000001000GR100600000900009MA1100471097545MW1001OC101381EQDQ01+999990APOSP N01 00000JPWTH 0QNNE71 0 00610G71 0 00024H71 0 15024K71 0 00045L71 0 00700M71 0 28805N71 0 00000Q71 0 10042S71 0 00053V71 0 01010X71 0 29016
0130725127047261993051819314+40317-078833SAOSP+0696JST  V0201101N00661000601EN0024141N1+99999+99999999999ADDAG11999GD13991+0006019GD24991+0036019GF108991999999999999999999MA1100881999999MW1451MW2611REMAWY009WND 03V14EQDQ01+000100PRSWM3
0010992170999991993102505004+51900-155900FM-18+0003DB21 V0200201N014019999999N9999999N9+00881+99999100001ADDAG12999
0050587150999991993042603004+27583+116650FM-12+008299999V0202001N00601220001CN0300001N9+02641+01791101291ADDAG12000GF104991011011008001001021MD1710071+9999
0169722445039041993102115003+30583-096367SAO  +0098CLL  V0203601N00611004501EN0112651N1+01551+01221102631ADDAG11000GD13991+0045019GD24991+0750019GF108991999999999999999999GP10060010401011000001016010401011GQ100600671911929GR100600536913809MA1102641999999MD1110241+9999MW1001
0131843900999991993061709004-04567-081250SY-MT+0090SPYL V0201801N00621220001CN0150001N9+01951+01751101051ADDAA106000091AG10000AY101031AY201031GF100991001001999999001001MA1999999100051MD1999999+0071MW1021REMSYN010 333 58007MET008CAVOK SK
0086480530999991993120706004+20833+095833FM-12+0220VBML V0203601N00301220001CN0080001N9+02751+01721101331ADDAA106000091AG14000GF101991011011008001001001MD1999999-0091REMSYN016 333 569// 59009
0171915030999991993060200004-08333+157267FM-12+0006AGGM V0200901N00411090001CN0250001N9+02921+02531101061ADDAA124000191AG13000AY121061AY221061GA1021+006009089GA2051+090009009GF106991021021008001001061KA1240N+02531MD1210101+0031MW1151REMSYN034 333 20253 56209 58003 82820 85080
0166333450999991993022500004+50400+030450FM-12+0168UKKK V0200301N00301001201CN0028001N9-00411-00461101811ADDAG12001AY181061AY221061GF108991081091001501999999MA1999999099681MD1710131+9999MW1861REMSYN070 33345 41228 80303 11041 21046 39968 40181 57013 78682 889// 333 88706
0155725315999991993082501003+40033-088283SAO  +0230CMI  V0201901N002012200019N0112651N1+02661+02331999999ADDAG11999GD12991+0090019GD22991+0600019GF102991999999999999999999GP10060001001024001701027000901024GQ100600869928189GR100600042907919MA1101591999999MW1001
0073723755031031993050108294+35133-111667SAOSP+2137FLG  V0200701N004119999999N9999999N9+00661+00161999999ADDAG11999MA1101631999999MW1001REMAWY014PK WND 015 000EQDQ01+000002VOVAR 
0136783690999991993031509004+20250-074150FM-12+001099999V0200301N00511021001CN0130001N9+02201+01751102111ADDAA106000091AG14000GA1031+005409089GA2081+021009049GF108991031021004501021071IA1099MD1610101+9999REMSYN028 333 31/// 56999 83818 88457
0125747685999991993100514003+30400-089067SAO  +0009GPT  V0200601N003612200019N0112651N1+02271+01551999999ADDAG11999GF100991999999999999999999GP10060022701024031001027012201024GQ100600702910859GR100600462913679MA1102171999999MW1001
0039477610999991993102408004+35267+136250FM-12+008999999V0202901N004119999999N9999999N9+01341+00911101431ADDAG12999MA1999999100371MD1210111+9999
0089960350999991993122819004+03567+098683FM-16+0025WIMM V0202601N00311220001CN0050001N1+99999+99999999999ADDAG11999GA1021+005409099GA2071+005409999REMMET019NEW 24-23 Q1012 NSGEQDQ01+000000PRSWM2
0087408480999991993031009004+29533+052583FM-12+1491OISS V0202701N00701220001CN0080001N9+01441-00171101251ADDAG11000AY111031AY201031GF104991041041012501001001MA1999999084881MD1810041+9999MW1071
0076010740999991993031804504+71033+027833FM-15+0013ENMH V0201901N00411018001CN0112651N1-00101-00201999999ADDAG11999GA1031+009009059GA2051+018009039MA1098211999999EQDQ01+000000PRSWM2
006776632099999199305091800N+20130-098750MEXIC+2435     V0202505N006059999999N015000599+02145+00635100215ADDAA199000095GF102995999999006005999999KA1024N+00005MD1999999+0084
0077035440999991993011818004+52367-001333FM-12+010799999V0201901N004619999999N9999999N9+00661+00271102131ADDAA199000191AG10000KA1120M+00731MD1710271+9999REMSYN020 333 10073 555 91753
0055152900999991993042005004+00000+999999FM-12+014799999V0202901N00401036001CN0200001N9+00941+99999999999ADDAG12999GF107991999001999999071001EQDQ01+000052SCOTLC
0049717230999991993070511004+46217-072650SAO  +0010WNQ  V0200501N002519999999N9999999N9+01701+01601101861ADDAG11999MD1310161+9999MW1001EQDQ01+000002VOVAR 
0148999999999991993010518004+35900-035500FM-13+9999WMLG V0203201N00671220001CN0200001N9+01451+00801102881ADDAG11000AY121061AY221061GF104991041011012501999999MD1610201+9999MW1151UA1M040159999UG1100303409UG2100300209REMSYN030 22214 20403 33402 41006 51006
0086590720999991993091000004+24783+112383FM-12+009899999V0203601N00101036001CN0070001N9+02451+02261101421ADDAA106000091AG10000GF107991071001999999041999MD1210161+0101MW1101REMSYN010 333 00102
0312724755931291993043021003+37700-113100SAO  +1710CDC  V0203305N00415024385EN0960005N1+01725-00395101145ADDAG11000GD13995+0240019GD23995+0750019GF106055999999999999999999GP10060088501010078801016018101010GQ100600266921409GR100601204913479MA1101591082595MD1710201+9999MW1001EQDN01 00000JPWTH 0QNNE11 0 00499E11 0 00499G11 0 00080K11 0 00025L11 0 06000M11 0 24390N11 0 00000Q11 0 10114S11 0 00063V11 0 00706X11 0 33008
0036151200999991993071316004+46783+023567FM-12+0413LRCL V0202901N00501036001CN0200001N9+01751+99999999999ADDAG12999GF105991031091008001061031
0054727456999991993080107009+46767-092083NSRDB+018699999V020999999999999999999999999999+99999+99999999999ADDGP10060000001000000001000000001000GR100600000900009
0054724339999991993103107009+37750-089017NSRDB+014499999V020999999999999999999999999999+99999+99999999999ADDGP10060000001000000001000000001000GR100600000900009
0103765494999991993091917004+22283-097883SAO  +0024TAM  V0203601N00771004501EN0112651N1+03101+02501100011ADDAG11999GD13991+0045099GF107991999999999999999999MA1100811999999MW1001REMAWY022CBS N/NE ALGS AC 20003
0171747810999991993110721003+30967-083200SAO  +0071VAD  V0203101N002612200019N0112001N1+01441-00111102321ADDAG11000GD12991+0600019GF102991999001999999001021GP10060030201011042601017013201011GQ100600664923149GR100600556913939MA1102341999999MD1510021+9999MW1001REMAWY008502 1002
0123726227947901993022404003+44000-076017SAO  +0099ART  V0202501N00361006001WN0016091N1-01171-01391100971ADDAG11999GD15991+0060019GF109991999999999999999999GP10060000001000000001000000001000GR100600000900009MA1100911999999MW1851
0421722585939011993031023003+32733-096967SAO  +0150NBE  V0200105N005252200059N0112005N1+01831-00501101941ADDAG11999GD12991+0450013GD24991+0750013GF108995999999999999999999GP10060014101025000001028014101025GQ100600659924799GR100600566913869MA1101961999999MW1001EQDN01 00201KCLC1 3N02 00510KCLC2 3N03 00023BDPTP 3N04 30110EALTP 3N05 29565FPRES 3N06 00000JPWTH 0N07 10194ISLVP 3N08 00065BTMPD 3QNNE41 3 00201E41 3 00510G41U0 99999K41 3 00023L41 0 00700C41 3 30110M41 3 29565N41 0 00000Q41 3 10194S41 3 00065V41 0 01099X41 0 01010
0062121500999991993101603004+54383+018467FM-15+0138EPGD V0202501N00401006001CN0112651N1+00501+00501999999ADDAG11000GA1071+006009999REMMET008NEW 1011EQDQ01+000000PRSWM2
0059471180999991993110116004+37433+127950FM-15+0101RKNH V0200801N00151220001CN0048001N1+00101+00101999999ADDAG11999GA1021+060009999MA1102781999999MW1101REMMET003NEW
0224105140999991993033006004+50367+007317FM-12+0191EDPN V0202401N00101220001CN0300001N9-00441-00681102431ADDAA106000091AA224000091AG14000GA1011+060009009GF101991001001999999001011GJ100059IA1149IA2999-00909KA1120M+00611KA2120N-00511MA1999999099991MD1310021+9999REMSYN060 333 10061 21051 34109 70000 81070 555 20024 999 02605 21093
0054722517129321993121701009+27733-098033NSRDB+005399999V020999999999999999999999999999+99999+99999999999ADDGP10060000001000000001000000001000GR100600000900009
0099483770999991993051100004+17250+099017FM-12+014499999V0209991C00001220001CN0100001N9+02951+02091100781ADDAA106000091AG14000GF104991011021008001031061KA1120N+02781MD1999999+0091REMSYN016 333 20278 58009
0088915830999991993041306004-20933+165317FM-12+001399999V0201201N00211007801CN0250001N9+02471+01821101481ADDAA106000091AG14000GA1061+007809089GF106991061021008001001001REMSYN016 333 56900 86826
0119213580999991993062003004+76150+152833FM-12+001499999V0201501N00201002101CN0300001N9+00061-00141101751ADDAG12000GA1061+002109079GF106991061061002501001001MA1999999101551MD1710051+9999REMSYN010 333 86707EQDQ01+999990APOSP 
0052110030999991993051309004+48217+013483FM-12+044399999V0209991C00001220001CN0200001N9+01821+01281999999ADDAG12000GA1001+999999999GF100991001001999999001001
0138723896999991993010411003+36317-119400SAO  +0089VIS  V0201701N002010003019N0004021N1-00231-00281999999ADDAG11999GD16991+0001519GD24991+0003019GF108991999999999999999999GP10060000001000000001000000001000GR100600000900009MA1102171999999MW1001
0024992200999991993033012004+40800-137600FM-18+0003DB22 V0201901N006019999999N9999999N9+01091+99999101371ADDAG12000MD1810191+9999
0087940030999991993011502004-09067+143200FM-12+000899999V0201301N00261220001CN0400001N9+03001+02651100861ADDAG12999AY181999AY221999GF107991041021008001001011MA1999999100761MD1810061+9999MW1251
0075063500999991993040403294+51567+004933FM-15+0013EHGR V0201401N00301045001CN0050001N1+00501+00201999999ADDAG11000GA1021+036009039GA2081+045009049MA1100611999999MW1101REMMET003WHT
0054702595999991993042011009+60467-151033NSRDB+003499999V020999999999999999999999999999+99999+99999999999ADDGP10060000001000000001000000001000GR100600000900009
0252766950999991993111715003+19850-090550SY-SA+0005CPE  V0200901N003010300019N0100001N9+02561+02341999999ADDAA106000091AG14000GD12991+0045019GD23991+0300019GD33991+2100019GF102995021999004501999999IA1019MA1101901999999MD1210161+0111REMSYN022 333 0/099 30/// 58011AWY00513299EQDQ01+000022SCOTCVQ02+101693APOSP Q03+101793APOSLPQ04 101693APOSP P01 101793APOSLP
0083585560999991993012312004+29600+120817FM-12+010899999V0203601N00101012001CN0030001N9+00071-00041102851ADDAA106000191AG10001AY171061AY271061GF108991081051012501999999MD1210041+9999MW1221
0157719403999991993010218004+55700-121633SAO  +0609YCQ  V0202501N006112200019N0563271N1-01201-01701101431ADDAA106000091AG10000GD12991+0210099GD22991+0660093GF102991999999999999999999MA1100881999999MD1310181+9999MW1001OC100871REMAWY028AC1CI ACSL DRFTNG SNW 3018 ?
0094719530999991993121309004+60117-128817SAO  +0690YQH  V0209991C000019999999N0019311N1-01801-02101100431ADDAG11000MA1099731091821MD1010031+9999MW1711REMAWY021CLR BLO 100 0003 6001EQDQ01+999990APOSP 
0039476530999991993030719004+34633+137100FM-12+000899999V0203101N008719999999N9999999N9+00581-00191101241ADDAG12999MA1999999101151MD1710021+9999
0102723444999991993062608003+36350-094217SAO  +0395H00  V0200801N001519999999N0160931N1+01831+01551999999ADDAG11999GP10060000001000000001000000001000GR100600000900009MA1101901999999MW1001REMAWY011CLR BLO 120
0193062900999991993092621004+52267+006900SY-MT+0036EHTW V0202201N00671002101CN0070001N9+01031+01001100601ADDAG12000AY151031AY221031GA1071+002109999GA2081+003009999GF108991081051002501999999MA1100541100181MD1210091+9999MW1501OA149901491REMSYN022 333 85708 88610 91129MET007NEW GRNEQDQ01+999990APOA  
0385724070937301993021623003+39450-074567SAO  +0018ACY  V0201905N00885001525MN0048005N1+01115+01005100655ADDAA101000095AG11999GA1999+001525135GA2999+004575065GD13075+0015019GD24015+0045019GF108085999999999999999999GP10060000401010000001016000401010GQ100600871925199GR100600041908069MA1100641100415MW1455MW2615EQDQ01+000100PRSWM3N01 02070JPWTH 0QNNE71 0 00409E71 0 00601G71 0 00005H71 0 13005H71 0 15015K71 0 00050L71 0 00300M71 0 29650N71 0 02070Q71 0 10065S71 0 00052V71 0 01010X71 0 19017
0093037850999991993012412004+51200+000783FM-12+009199999V0202301N01031045001CN0120001N9+00951+00161999999ADDAG12000GA1021+006009089GA2031+045009039GF106991021011008001071091REMSYN016 333 82820 83365
0233716030999991993060618004+43833-066083SY-SA+0043YQI  V0201001N007710120019N0120001N9+01041+00961101361ADDAA106002092AA224001692AC12I9AG10004AY181061AY221061GD12991+0036099GD24991+0120099GF108991081051004501999999KA1120M+01191KA2240N+00591MA1101321100831MD1710301+9999MW1611OC101231REMSYN028 333 10119 20059 70016 90926AWY011SF3SC7 7030
0058072800999991993042710004+47267+005083FM-15+0227LFSD V0200501N00411999991CY0099001N1+01501+01001999999ADDAG11999MA1101021999999REMMET005CAVOKEQDQ01+000000PRSWM2
0104150690999991993112300004+47317+025133FM-12+091099999V0200101N01001220001CN0150001N9-00541+99999999999ADDAA106000091AG14000GF101991999011999999011011MA1999999091751MD1110021+9999ME1208619EQDQ01+000002SCOTLC
0075010830999991993111804504+70867+029033FM-15+0013ENBV V0202501N00621220001CN0112651N1+00401+00101999999ADDAG11999GA1021+007509999GA2021+024009999MA1102511999999MW1611REMMET003NEW
0358702190266151993080112003+60783-161800SAO  +0038BET  V0201905N00525000915MN0112005N1+01175+01115102605ADDAA106000091AG10000GA1999+000915075GD14085+0009019GF108085999061999999999999GP10060000001000000001000000001000GR100600000900009KA1999N+01161MA1102571102035MD1110031+9999MW1001REMAWY02910ST/ 103 16// 53 RADAT 20123EQDN01 00000JPWTH 0QNNE71 0 00610G71 0 00003H71 0 16003K71 0 00052L71 0 00700M71 0 30130N71 0 00000Q71 0 10260S71 0 00053V71 0 01010X71 0 19010
0102727675940111993060613284+48417-101350SAOSP+0508MIB  V0200101N002510042019N0112651N1+99999+99999999999ADDAG11999GD12991+0018019GD23991+0042019GD33991+0240019GF107991999999999999999999MA1101461999999MW1001
0108582510999991993021406004+32867+120317FM-12+000599999V0200901N00501090001CN0260001N9+01041+00321102571ADDAA106000091AG14000GF107991011001999999041021KA1240N+00331MA1999999102511MD1710361+9999REMSYN010 333 20033
0071701043999991993081604009+68350-166800NSRDB+000499999V020999999999999999999999999999+99999+99999999999ADDGP10060016301028011301031012101028GQ100600680925119GR100600499913329
0099071390999991993021512004+48450+000117FM-12+0141LFOF V0201001N00211220001CN0120001N9+00921+00381103541ADDAA106000091AG10000AY141061AY201061GA1001+999999999GF100991001001999999001001MD1010001+9999MW1021
0072726399999991993071214284+45917-085917SAOSP+0180P75  V0203001N001019999999N9999999N9+01941+01161999999ADDAG11999MA1101151999999MW1001REMAWY013PK WND 10 000EQDQ01+000002VOVAR 
0039043510999991993070600004+67783-032283FM-12+0023BGAT V0203301N003119999999N9999999N9+00191+00131101521ADDAG12000MA1999999101381MD1210071+9999
0036153350999991993012714004+45183+028817FM-12+0006LRTC V0202701N00701036001CN0100001N9+00421+99999999999ADDAG12999GF107991071001999999071001
0084567510999991993032809004+25700+100183FM-12+199299999V0202501N00701220001CN0300001N9+01981+00351999999ADDAG12000GF102991021041012501001001MA1999999079881MD1710151+0101REMSYN010 333 00102
0086569640999991993081821004+22767+100983FM-12+130399999V0202201N00101004201CN0120001N9+02001+01911100461ADDAA124004091AG10000GF108991081041004501999999MD1710131-0101REMSYN016 333 05100 70042
0064111850999991993031112004+47517+016033FM-12+100099999V0202701N001519999999N9999999N9+00161+00011999999ADDAA106000191AG10000MA1999999090971ME1315459REMSYN010 333 55301
0085030080999991993050807004+59533-001633FM-12+005999999V0203201N00361220001CN0300001N9+00781+00691103381ADDAG12999GA1011+004509059GF101991011051004501001011MD1210111+9999REMSYN010 333 81615
0091725335999991993032602354+40650-086150SAOSP+0247GUS  V0200601N00461002101MN0096561N1+99999+99999999999ADDAG11999GD13991+0021019GF107991999999999999999999MA1102301999999MW1451EQDQ01+000100PRSWM2
0039475880999991993010313004+38250+140350FM-12+015399999V0203401N001019999999N9999999N9+00391+00271101501ADDAG12999MA1999999099611MD1210081+9999
0114488480999991993081012004+17517+106583FM-12+000899999V0202701N00201105001CN0200001N9+03171+02191100231ADDAA106000091AG14000GF107991011021008001001081KA1120M+03631MA1999999100141MD1999999+0131REMSYN016 333 10363 58013
0054746110999991993090706009+35283-116617NSRDB+071699999V020999999999999999999999999999+99999+99999999999ADDGP10060000001000000001000000001000GR100600000900009
0044999999999991993041221004-24667-092867FM-18+9999DRIB V02099999999999999999N9999999N9+99999+99999999999ADDAG10999MW1001SA1+2299REMSYN01132911     ?
0153727555999991993043005003+48067-096183SAO  +0340TVF  V0200201N00251001801MN0112651N1+00441+00161999999ADDAG11999GD13991+0018019GD23991+0057019GD34991+0150019GF108991999999999999999999GP10060000001000000001000000001000GR100600000900009MA1101631999999MW1001
0072272420999991993020621004+58483+041533FM-12+009799999V0203001N00201021001CN0040001N9-00661-00861099031ADDAG12001AY171031AY221031GF108991081001022501021999MD1210141+9999MW1711
0066384270999991993061221004+41050+065283FM-12+019999999V0200301N00601220001CN0200001N9+02141+99999101101ADDAG12000GA1001+999999999GF100991001001999999001001MD1810081+9999
0049714325999991993112605004+44850-079867SAO  +0183WPB  V0201201N005119999999N9999999N9-00701-00901103441ADDAG11999MD1610171+9999MW1001EQDQ01+000002VOVAR 
0093787180999991993072118004+14383-087617FM-15+0626MHSC V0203601N004610900019N0112651N1+02901+01801999999ADDAG11000GA1021+015009999GA2071+090009999MA1101691999999REMMET008NEW CIGEEQDQ01+000000PRSWM2
0036999999999991993060501304+07967-155000FM-18+9999DRIB V0200701N007719999999N9999999N9+99999+99999999999ADDAG10999MW1001REMSYN01151301     ?
0095833880999991993110318004-15150-042883FM-12+060599999V0200501N00151045001CN0100001N9+03501+01321100751ADDAA106000091AG14000GF105991031021004501011001MA1999999094161MD1999999-0061REMSYN010 333 59006
0239727840999991993041321003+46567-119600SAO  +0223HMS  V0201301N00201012001EN0241401N1+01221+00441101371ADDAA106999929AG13000GD14991+0120019GF108991999051999999999999GP10060023701025000001028023701025GQ100600380919259GR100601071913599MA1101321098661MD1810121+9999MW1001REMAWY046RE40/CLDS TPG HILLS S/ 81200 15// RSNK 38/2323EQDQ01+999990APOSP 
0070162190999991993010602004+42467+012983FM-15+1875LIRK V0200901N01131999991CY0099001N1+00001-01801999999ADDAG11999REMMET032CAVOK MON NE LIB NC VAL NIL NC 1EQDQ01+000000PRSWM2
0035939940999991993070206004-29250-177933FM-12+004999999V0201101N002619999999N9999999N9+01511+01041102861ADDAA106000091AG14000MD1210081+9999
0084228450999991993050709004+61500+038933FM-12+012199999V0201201N00201075001CN0200001N9+01301-00301103941ADDAG12000GF106991001001999999001021MA1999999102401MD1710141+9999EQDQ01+999990APOSP 
0050284510999991993011709004+56850+062717FM-12+012699999V0201801N00101220001CN0200001N9-00451-00971100951ADDAG12000GF108991001001999999001011MD1210071+9999
0054722103999991993090204009+27483-080367NSRDB+000799999V020999999999999999999999999999+99999+99999999999ADDGP10060000001000000001000000001000GR100600000900009
0140722487139351993091819003+31400-092300SAO  +0034ESF  V0201001N004112200019N0112651N1+03111+02161101541ADDAG11999GD12991+0102019GF102991999999999999999999GP10060071201011064501016015801011GQ100600307919319GR100601164913549MA1101561999999MW1001
0108722404139411993012215204+30217-093150SAOSP+0004CWF  V0209999C000012200019N0048281N1+99999+99999999999ADDAG11000GD12991+0030019GF102991999999999999999999MA1102471999999MW1451REMAWY008VSBY N 1EQDQ01+000100PRSWM2
0133787350999991993071516504+12100-085367FM-15+0090MNJU V0200601N00411220001CN0112651N1+02901+02301999999ADDAG11999GA1021+007509999GA2021+090009999MA1101191999999REMMET048NEW MNMG 1650Z 000 600KT 9999 SCT020 29/22 Q1012EQDQ01+000000PRSWM2
0054702735264091993122616009+61217-149850NSRDB+004299999V020999999999999999999999999999+99999+99999999999ADDGP10060000001000000001000000001000GR100600000900009
0025892840999991993061215004-75917-083917FM-12+105499999V0200201N004119999999N9999999N9-00061+99999999999ADDAG12000MA1999999099421
0039474400999991993061116004+42300+143317FM-12+003399999V0201301N001019999999N0005001N9+00861+00841101311ADDAG12999MA1999999100901MD1510001+9999
0124654450999991993122500004+06200-002333FM-12+0172DGSB V0209991C00001003901CN0020001N9+02441+02241101241ADDAA106000091AG10000AY111061AY211061GA1051+003909059GF105991051051004501001001MD1999999-0101MW1101REMSYN016 333 59010 85613
0057719000999991993021113004+55450-060233SAO  +0008WHO  V0203101N004619999999N9999999N9-02501+99999101021ADDAG11999MD1310011+9999MW1001OC100821EQDQ01+000002VOVAR 
0078711153999991993062714004+50233-119300SAO  +0556WJV  V0202601N007719999999N9999999N9+01401+00601100751ADDAG11999MD1210251+9999MW1001REMAWY020(PKWND 2719 1357Z) ?EQDQ01+000002VOVAR 
0084999999999991993021206004+29000-045600FM-13+9999PHUF V0200501N00511004201CN0200001N9+02041+01701102181ADDAG12000GF106991061031004501051999MD1710101+9999UA1M030059999REMSYN012 22254 20301
0122100340999991993040323004+54633+009350FM-12+0022EDCG V0200901N00511002701CN0050001N9+00441+00251101461ADDAG12999AY121021AY221021GA1071+002709079GF108991071061002501999999MA1999999101181MD1710011+9999MW1101REMSYN010 333 87709
0187724675230631993062616003+39650-106917SAO  +1993EGE  V0209999C000019999999N0160931N1+01551-00171999999ADDAA101000095AG11999GP10060063701028084701031008201028GQ100600489909249GR100600867913229MA1102641999999MD1710101+9999MW1001REMAWY019CLR BLO 120 SLP 190EQDQ01+000012APCTENQ02+000902APC3  
0039475760999991993101522004+41283+141217FM-12+000599999V0200801N000519999999N9999999N9+00351+00261102571ADDAG12999MA1999999102511MD1810021+9999
0021994020999991993021822004+36917-075717FM-12+0000CHLV V0203401N006219999999N9999999N9+00011+99999101731ADDAA106000091AG14999
0127725776999991993120918003+43600-110733SAO  +1964JAC  V0202501N007219999999N0160931N1+00051-00891999999ADDAG11000GP10060030501025070901028007201025GQ100600708915449GR100600464914109MA1101731999999MW1001OC101331REMAWY011CLR BLO 120
0044999999999991993121523374+06733+131983FM-18+9999DRIB V02099999999999999999N9999999N9+02931+99999101201ADDAG10999MW1001SA1+2949REMSYN01153515     ?
0122102380999991993120310004+52817+009933FM-12+0069EDZB V0202401N00621001801CN0012001N9+00821+00741101581ADDAG12999AY151011AY241011GA1081+001809079GF108991081061002501999999MA1999999100731MD1210111+9999MW1511REMSYN010 333 88706
0119402600999991993031712004+32200+037133FM-12+0670OJHF V0201801N00211030001CN0030001N9+01601-00461100771ADDAA106000091AG14000GA1031+009009059GA2041+030009039GF107991031051008001031001MA1999999093041REMSYN016 333 83630 84360
0050713720999991993103020004+45300-073350SAO  +0045WIZ  V0202301N002519999999N9999999N9+00701+00101999999ADDAG12999MW1001REMAWY006MMMM ?EQDQ01+000002VOVAR 
0115283660999991993110706004+57433+067083FM-12+005099999V0202701N00201220001CN0500001N9-01641-01771101801ADDAA106000091AG14000GA1001+999999999GF100991001001999999001001KA1120N-01921MD1210101+9999REMSYN016 333 21192 93503
0314723183138771993012922003+36483-082400SAO  +0465TRI  V0203205N005752200059N0320005N1+00565-00945102795ADDAA101000095AG11999GA1999+076205005GF100005999999999999999999GP10060019801010065901016004101010GQ100600762923519GR100600336914109MA1102741097225MW1001REMAWY010FEW CI E-SEQDN01 00000JPWTH 0QNNE71 0 00000G71U0 99999H71 0 32250K71 0 00015L71 0 02000M71 0 28710N71 0 00000Q71 0 10279S71 0 00042V71 0 00000X71 0 32011
0054722314039341993031504009+30033-091883NSRDB+000899999V020999999999999999999999999999+99999+99999999999ADDGP10060000001000000001000000001000GR100600000900009
0107030910999991993092321004+57200-002217FM-12+0065EGPD V0202001N00261018001CN0300001N9+01021+00791101711ADDAG12000GA1011+007509089GA2041+018009059GF105991041081008001031001MD1010021+9999REMSYN016 333 81825 84656
0101763944999991993110720004+25767-100100SAO  +0387MTY  V0209991C000012100019N0241401N1+01501+00001100011ADDAG11999GD12991+0240099GD23991+2100099GF107991999999999999999999MA1102201999999MW1001REMAWY00507290
0125745980137021993022313003+37083-076367SAO  +0003LFI  V0202601N002012200019N0160931N1+00331-00391101311ADDAG11999GF100991999999999999999999GP10060009301011042401017003301011GQ100600819910879GR100600196913979MA1101291999999MW1001
0169062600999991993101400004+52100+005183FM-12+0004EHDB V0209991V00151021001CN0100001N9+01151+01021099621ADDAA106000091AG14000GA1021+003309059GA2051+021009039GA3081+036009039GF108991021051004501071999GJ101509MA1999999099591MD1810121+9999REMSYN028 333 55025 82611 85357 88362
0154333250999991993091312004+50267+028633FM-12+022799999V0200101N00401030001CN0100001N9+01201+00701100961ADDAG12000GA1061+999999049GF106991061051008001999999MA1999999098301MD1210121+9999REMSYN064 33325 42597 60104 10120 20070 39830 40096 52012 865// 333 86620
0039478230999991993102421004+32017+130200FM-12+004599999V0200801N002619999999N9999999N9+01371+00611101971ADDAG12000MA1999999101431MD1310051+9999
0090077900999991993051015004+42550+009483FM-15+0012LFKB V0201601N00301024001CN0112651N1+02001+01301999999ADDAG11000GA1051+024009039GA2071+033009039MA1101491999999REMMET005NOSIGEQDQ01+000000PRSWM2
0139150520999991993020212004+47450+025567FM-12+154199999V0203201N00801012001CN0600001N9-00071-01061999999ADDAA106000091AG14000AJ100159199999999GF105991051001012501071001IA1249MA1999999084951MD1710011+9999ME1315879REMSYN022 333 48015 95000 95100
0191714750999991993041318004+49250-124833SY-SA+0002WQC  V0203101N00051003901EN0140001N9+00651+00561101421ADDAA106002091AA224003291AG13000GD13991+0039099GF199999071999004501999999KA1120M+00651MA1999999101391MD1510001+9999REMSYN016 333 10065 70032AWY0459.+ P- 142/07/06/3101/-/0022 5000 (1315,0060)
0044999999999991993073006054+27250-022400FM-18+9999DRIB V02099999999999999999N9999999N9+99999+99999999999ADDAG10999MW1001SA1+2409REMSYN01113916     ?
0075107280999991993073005004+49567+008467FM-15+0094EDOR V0200401N00101220001CN0070001N1+01601+01601999999ADDAG11999GA1021+024009999GA2021+060009999MA1101461999999MW1101REMMET003NEW
0108726710999991993031410003+42567-110100SAO  +2124BPI  V0201201N000519999999N9999999N9-01391-01561999999ADDAG11999GP10060000001000000001000000001000GR100600000900009MW1001REMAWY013PK WND 05 000EQDQ01+000002VOVAR 
0108999999999991993061512004+35300-075200FM-13+9999NBAD V0201501N00621220001CN0200001N9+02501+02301101321ADDAG12000GF103991031041008001041999MD1210051+9999UA1M010059999UG1050101409REMSYN024 22251 20101 314// 40502
0186064500999991993072623004+51200+004467SY-MT+0014EBAW V0202401N00721030001CN0200001N1+01471+01011101511ADDAG12999GA1021+015009059GA2061+030009039GF107991021051017501031999MA1101491999999MD1010011+9999OA149901131OA259900721REMSYN028 333 82650 86360 91122 91214MET005NEW KEQDQ01+000000PRSWM2
0096417100999991993102715004+28817+062750FM-12+068399999V0209991C00001220001CN9999999N9+02562+00061101431ADDAA106000091AG14000GA1001+999999999GF100991001001999999001001MD1999999-0091REMSYN010 333 59009
0277719090999991993090318004+63750-068533SY-SA+0034YFB  V0201401N00511012001EN0450001N9+00291+00111100431ADDAA106999929AA224000291AC12I9AG10001AY181061AY221061GD13991+0120099GD23991+0270099GF106991999021012501071999KA1120M+00381KA2240N+00151MA1100411100011MD1810011+9999MW1161REMSYN028 333 10038 20015 70002 90926AWY028CU7AC1 SHWRS ALQDS VCSH 8001EQDQ01+000072SCOTLCQ02+999990APOA  
0117033020999991993082111004+53250-004533SY-MT+0011EGOV V0200301N00361005401CN0350001N9+01641+01041102111ADDAG12999GA1071+005409999GF199999061081004501999011MD1210021+9999REMSYN010 333 86818MET007NEW WHTEQDQ01+000062SCOTCV
0167726457999991993040912003+44250-088517SAO  +0280ATW  V0202601N00511003001EN0080471N1+00551+99999999999ADDAG11000GD14991+0030019GF108991999999999999999999GP10060000901025000301028000901025GQ100600869908209GR100600046908529MA1100141999999MW1451OC100771EQDQ01+000100PRSWM2
0165344010999991993101306004+49383+035450FM-12+016199999V0201801N00201000301CN0002001N9+01021+01021101821ADDAA106000091AG10000AY141061AY241061GA1091+999999999GF109991091999999999999999KA1120N+00861MA1999999099891MD1210101+9999MW1471REMSYN010 333 20086EQDQ01+999990APOSP 
0065272420999991993041812004+58483+041533FM-12+009799999V0202101N00501007501CN0500001N9+00961-00381100591ADDAG12000GF106991061091008001001001MA1999999099351MD1710201+9999
0113718910999991993072807004+50233-121583SAO  +0229WLY  V0201601N006112200019N0144841N1+02101+01101100951ADDAG11999GD12991+0240099GF102991999999999999999999MA1100981098281MD1010011+9999MW1001OC101021EQDQ01+999990APOSP 
0132389870999991993032300004+35283+062350FM-12+063099999V0203601N00601003301CN0040001N9+00321+00141101611ADDAG12002AY181061AY221061GA1081+003309099GF108991081091004501999999MA1999999094121MD1210111+9999MW1811REMSYN020 333 88911 555 13/04
0187432840999991993101706004+12917+074883FM-12+0102VOML V0209991C00001009301CN0100001N9+03101+02321999999ADDAA106000091AG14000GA1031+004509059GA2041+009309049GA3041+030009039GA4041+999999059GF106991051081008001999011MD1999999+0011REMSYN034 333 58001 8467/ 83615 84431 84360EQDQ01+000002SCOMCG
0090022780999991993081112004+63183+019017FM-12+001399999V0201601N00821004501CN0250001N9+01601+01361999999ADDAG12000GA1061+004509079GF108991999071004501071999REMSYN010 333 86794EQDQ01+000082SCOTLC
0054726988242191993101811009+45617-121150NSRDB+007399999V020999999999999999999999999999+99999+99999999999ADDGP10060000001000000001000000001000GR100600000900009
0092671610999991993111500004-23383+043733FM-12+0008FMST V0201801N00411220001CN0300001N9+02251+01721101301ADDAA106000091AG14000GA1001+999999999GF100991001001999999001001MA1999999101211MD1810091+9999
0021941820999991993062905004-10050+143050FM-12+001099999V0201201N010819999999N9999999N9+02651+99999101011ADDAA106000091AG14999
0104514635999991993122621004+43900+087467FM-15+0654ZWWW V0202601N00201060001CN0040001N1-01001-01101999999ADDAG11000GA1021+012009999GA2021+030009999GA3071+060009999MA1102911999999REMMET003NEWEQDQ01+000000PRSWM2
0131295780999991993091212004+55717+093733FM-12+037799999V0202701N00101220001CN0500001N9+01081+00581101161ADDAA199002091AG10001AY181061AY221061GF106991031091008001001011KA1120M+01351MD1310021+9999MW1021REMSYN026 333 10135 555 50097 53008
0071033450999991993013118004+53617-001667FM-12+025999999V0200501N00261007501CN0100001N9+00411+00181999999ADDAG12000GA1081+007509059GF108991081051008001999999REMSYN010 333 88625
0170074810999991993030218004+45733+005083SY-MT+0240LFLL V0201301N00211027001CN0030001N9+00221-00041100651ADDAA106000091AG10000AY121061AY221061GA1051+027009039GA2071+069009009GF107991051001999999071021KA1999M+00341MD1310231+9999MW1101REMSYN022 333 10034 85359 87073MET005NOSIG
0039474130999991993101820004+43217+141783FM-12+005199999V0202001N003119999999N9999999N9+00731+00061101281ADDAG12999MA1999999100661MD1210141+9999
0194711300999991993032200004+53333-104000SY-SA+0374YBU  V0201701N004612200019N0240001N9+00291-00091101621ADDAA106000091AA224000091AG14000GD12991+0300099GF101991999999999999071999KA1120M+00401KA2180N-01121MA1101351096981MD1710151+9999REMSYN022 333 10040 21112 70000AWY010AC1 7015 ?EQDQ01+000022SCOTLC
0084292530999991993040509004+58433+089367FM-12+014299999V0201801N00301220001CN0500001N9-00641-01871103561ADDAG12000GF107991001001999999001011MA1999999101771MD1710091+9999EQDQ01+999990APOSP 
0077814050999991993061214004+04833-052367FM-15+0009SOCA V0201001N00301001801CN0020001N1+02401+02301999999ADDAG11999GA1051+001809089GA2081+030009049MA1101491999999MW1611REMMET005NOSIG
0118871210999991993090516004-26850-065100SY-MT+0450SANT V0201801N00211220001CN0080001N1+02821+00481100781ADDAG11999AY101011AY201011GF100991001001999999001001MA1100911999999MD1810081+9999MW1041REMMET003NEWEQDQ01+000000PRSWM2
0043037100999991993092311004+51083-003600FM-12+034799999V0201101N002119999999N9999999N9+01451+01071101881ADDAG12999MD1210041+9999REMSYN010 555 91051
0076477890999991993060820004+34367+132417FM-15+0006RJOA V0200401N00461009001CN0112651N1+01801+01201999999ADDAG11999GA1011+006009089GA2071+009009089MA1101021999999EQDQ01+000000PRSWM2
0080717385999991993072508004+47967-084800SAO  +0287WXZ  V0200601N001019999999N9999999N9+01101+01101101891ADDAG11999MD1510461+9999MW1001OC199999REMAWY014STN PRES 846 ?EQDQ01+000002VOVAR 
0030711855999991993052902004+51017-057100SAO  +0008WXI  V0200501N006619999999N0128751N1+00201+00101101151ADDAG11999MD1110061+9999MW1001
0057710750999991993120522004+58183-103700SAO  +0492WWC  V0203201N004619999999N9999999N9-01801-01901101201ADDAG11999MD1210161+9999MW1001OC101021EQDQ01+000002VOVAR 
0166010890999991993101521004+69733+029900SY-MT+0091ENKR V0203401N01031006001CN0150001N1+00201-00011098271ADDAG12001AY181031AY221031GA1021+002409999GA2071+006009999GF199999061061002501999999MA1098211097161MD1210241+9999MW1011REMMET003NEWEQDQ01+000062SCOTCVQ02+000000PRSWM2
0050470600999991993100603004+38717+125367FM-12+004799999V0200901N00401220001CN0200001N9+01781+00461102111ADDAG12000GF108991001001999999001041MD1810041+9999
0241726387148501993012902003+44733-085583SAO  +0188TVC  V0203205N00525009145EN0040005N1-00675-01175999999ADDAG11999GD14995+0090019GF108085999999999999999999GP10060000001000000001000000001000GR100600000900009MA1101661999999MW1715OC101131EQDN01 04000JPWTH 0QNNE21 0 00699G21 0 00030K21 0 00011L21 0 00250N21 0 04000S21 0 00020V21 0 01010X21 0 32010
0039476100999991993042120004+36667+138200FM-12+041999999V0202101N004619999999N9999999N9+01011+00521101691ADDAG12999MA1999999096721MD1710051+9999
0088125100999991993121509004+50733+015733FM-12+161399999V0202201N01501000151CN0000001N9-00471-00471999999ADDAG12000AY141031AY231031GA1091+999999999GF109991091999999999999999MD1510111+9999MW1711
0044999999999991993090122224-26483-099983FM-18+9999DRIB V02099999999999999999N9999999N9+99999+99999999999ADDAG10999MW1001SA1+1979REMSYN01132522     ?
0112477430999991993030110004+35483+133250FM-15+0009RJOH V0202701N00721010501CN0112651N1+00101-00801999999ADDAG11999GA1011+004509089GA2061+010509089MA1101691999999MW1261OC101181REMMET032176/ FCST 1016 98124 1500 85SNSH
001804999900007199303262100N+72310-040480GREEN+310599999V020999999999999999999999999999-04111-04591999999ADDMA1999999066151
0139383390999991993031415004+42500+071117FM-12+215399999V0202301N00901220001CN9999999N9+99999+99999999999ADDAA106000091AG14000AY131031AY231031GF103991031051008001001999KA1120M-00651MA1999999078471MD1210161+9999ME1315319MW1361REMSYN010 333 11065
0076163600999991993013100004+39817+018350FM-12+0112LIBY V0203601N00311036001CN0100001N9+00801+00391102381ADDAA106000091AG14000GF107991021051008001031001MA1999999101001MD1210181+9999
0096020960999991993063000004+67217+023400FM-12+016899999V0200501N00461008001CN0500001N9+00781+00271101781ADDAA106000091AG14000GA1061+008009059GF107991061051008001041999MD1210101+9999REMSYN010 333 86695
0066582590999991993112221004+32100+120867FM-12+000199999V0203401N00301220001CN0150001N9+00091-00381103101ADDAG12000GA1001+999999999GF100991001001999999001001MD1210031+9999
0251722700230441993062507003+31800-106400SAO  +1194ELP  V0200105N002152200059N0320005N1+02785+01175100665ADDAA101000095AG11999GF100005999999999999999999GP10060000001000000001000000001000GR100600000900009MA1101521087965MW1001EQDN01 00000JPWTH 0QNNE71 0 00099G71U0 99999K71 0 00053L71 0 02000M71 0 25975N71 0 00000Q71 0 10066S71 0 00082V71 0 00000X71 0 01004
0065354970999991993070900004+48950+072850FM-12+065699999V0203401N00101007501CN0200001N9+01471+01341100591ADDAG12000GF108991081091008001999999MA1999999093151MD1410001+9999
0123835830999991993120619004-19850-043950FM-15+0785SBBH V0201001N00511220001CN0112651N1+02901+01701999999ADDAG11999GA1021+007509999GA2021+060009999MA1101391999999REMMET038NEW SBVT 03014KT 9999 SPWT WOXWW Q1013EQDQ01+000000PRSWM2
0117723306138251993062513374+33650-088450SAOSP+0067CBM  V0201501N003010033019N0112651N1+99999+99999999999ADDAG11999GD12991+0021019GD23991+0033019GD33991+0180019GD44991+0390019GF108991999999999999999999MA1102071999999MW1001
0036151650999991993052213004+00000+999999FM-12+035799999V0202301N00401220001CN0210001N9+02001+99999999999ADDAG12999GF107991021011008001001011
0127726586999991993061416003+43650-094417SAO  +0354FRM  V0202901N011319999999N0160931N1+02001+00611999999ADDAG11999GP10060074601028077401031015301028GQ100600399910709GR100601014913249MA1101661999999MW1001OC101441REMAWY011CLR BLO 120
0095518860999991993110812004+38250+090850FM-12+294599999V0200401N00301090001CN0300001N9+00061-01321999999ADDAA106000091AG14000GF107991001001999999001021MA1999999070991MD1210151-0201REMSYN010 333 05252
0084370210999991993100909004+44617+040083FM-12+021399999V0202501N00101220001CN0200001N9+01931+00851102191ADDAG12000GF102991001001999999001021MA1999999099611MD1610041+9999EQDQ01+999990APOSP 
0072476420999991993122710004+35750+139350FM-15+0139RJTY V0203601N00671220001CN0112651N1+00701-00301999999ADDAG11999GA1021+018009999MA1101191999999REMMET003NEWEQDQ01+000000PRSWM2
0166592870999991993061121004+23133+113317SY-MT+0008ZGGG V0209991C00001018001CN0030001N1+02551+02491100391ADDAA124006091AG13000GA1031+006009089GA2051+018009059GF107991071041012501999999MA1100311100291MD1710061+9999MW1101REMSYN010 333 70055MET008QFE 1002EQDQ01+999990APOSP 
0140724373938231993121823003+39450-087317SAO  +0178HUF  V0202701N00511005701MN0112651N1+00381+00111999999ADDAG11999GD14991+0057019GF108991999999999999999999GP10060000301024000001027000301024GQ100600881923759GR100600020906019MA1101731999999MW1001
0169724836232081993040615003+38667-121400SAO  +0023MCC  V0201001N004112200019N0563271N1+00941+00551101821ADDAG11000GD12991+0300019GD23991+0600013GF107991999001999999071061GP10060006101025002701028005701025GQ100600815908839GR100600202913659MA1101831999999MD1210151+9999MW1001
0160030050999991993020100004+60133-001183FM-12+008499999V0202401N01591060001CN0200001N9+00531+00101102941ADDAA106000091AG14000GA1021+015009059GA2061+060009009GF106991021051017501999021MD1710051+9999OA140102261REMSYN028 333 82650 86070 90710 91144EQDQ01    003SCOMCG
0044999999999991993043017294-39967-158767FM-18+9999DRIB V02099999999999999999N9999999N9+99999+99999999999ADDAG10999MW1001SA1+1519REMSYN01154929     ?
0114945300999991993081511004-28533+150300FM-12+022099999V0200501N00101220001CN0500001N9+01521+00511102141ADDAA106000091AG10999AY101999AY201999GA1001+999999999GF100991001001999999001001MA1999999099531MD1210141+9999MW1021
0050306830999991993012215004+53967+121933FM-12+052499999V0203601N00201220001CN0500001N9-02301-02421102441ADDAG12000GF103991001001999999001021MD1710051+9999
0098134890999991993112221004+42550+021917FM-12+043499999V0200601N00301012001CN0040001N9+00121+00011102391ADDAA106000091AG14001AY161031AY261031GF108991081051012501999999MA1999999097041MD1310031+9999MW1101
0044999999999991993091621534+29417-031817FM-18+9999DRIB V02099999999999999999N9999999N9+99999+99999999999ADDAG10999MW1001SA1+2609REMSYN01113916     ?
0130166500999991993061515004+39917+025233FM-12+0004LGLM V0203301N00771010501CN0150001N9+02451+01181100911ADDAG12000GA1021+007509089GA2031+010509059GA3061+027009039GF106991041081008001051001MA1999999100871REMSYN022 333 82825 83635 86359
0478084490130251993032020003+36650-006350SAO  +0027RTA  V0203505N003150540019N0096005N1+01785+01115999999ADDAG11999GA1021+000159999GA2031+054009029GA3021+060009009GF108995999999999999999999MA1101961999999MW1055REMMET006CIG180EQDN01 00803KCLC1 3N02 00404KCLC2 3N03 00603KCLC3 3N04 00180CCLHT 3N05 05000CCLT1 3N06 37180CCLT2 3N07 32200CCLT3 3N08 30110EALTP 3N09 30015FPRES 3N10 08100JPWTH 0N11 10201ISLVP 3QNNE41 3 00803E41 3 00404E41 3 00603G41 3 00180H41 3 05000H41 3 37180H41 3 32200K41 0 00052L41 0 00600C41 3 30110M41 3 30015N41 0 08100Q41 3 10201S41 0 00064V41 0 01099X41 0 35006
0049712470999991993080801004+58583-118500SAO  +0373WSH  V02099999999999999999N9999999N9+01701+01201100701ADDAG11999MD1710291+9999MW1001EQDQ01+000002VOVAR 
0065167430999991993040503004+36283+023017FM-12+016799999V0203201N00411220001CN0100001N9+01101+00901101841ADDAG12000GF102991021021008001001001MA1999999099421MD1710031+9999
0066061430999991993041806204+54700+011450FM-15+0005EKMB V0202401N00771999991CY0099001N1+00601+00501999999ADDAG11000MA1100811999999OC101281REMMET005CAVOKEQDQ01+000000PRSWM2
0111999999999991993062606004+36700+000900FM-13+9999MQYA V0209999999999002101CN0100001N9+02161+01841101651ADDAG12000AY111061AY211061GF108991081051002501999999MD1110251+9999MW1501UG1070300609REMSYN018 22224 306// 40706
0100722610220101993121311284+29367-100917SAOSP+0307DRT  V0203101N003619999999N0128751N1+01331-00391100651ADDAG11999MA1100641097051MW1001REMAWY025CLR BLO 60  PK WND 10 000EQDQ01+999990APOSP Q02+999990APOSLP
0526726580149221993072518003+44883-093217SY-SA+0254MSP  V0202405N00575007015MN0240005N9+02335+01785100715ADDAA101000095AA206000091AA324008991AG14000GA1999+007015065GA2999+012505065GD13065+0069019GD24085+0123019GF108085081051008001999999GP10060025901010000001016025901010GQ100600275915439GR100601174913249KA1120M+02331KA2240N+02001MA1100751097735MD1110101+9999REMSYN032 333 10233 20200 70089 555 92518AWY028BINOVC OVHD-N-S/ 110 15// 68EQDQ01+000072SCOTCVQ02+999990APOA  N01 00000JPWTH 0QNNE71 0 00407E71 0 00610G71 0 00023H71 0 15023H71 0 15041K71 0 00064L71 0 01500M71 0 28860N71 0 00000Q71 0 10071S71 0 00074V71 0 01010X71 0 24011
0062725670240321993083011084+42867-100550SAOSP+0792VTN  V0203401N003619999999N9999999N9+01161+00881999999ADDAG11999MA1101691999999MW1001REMAWY003000EQDQ01+000002VOVAR 
0105105130999991993041213504+50867+007167FM-15+0099EDDK V0203401N00201075001CN0112651N1+01301+00501999999ADDAG11999GA1031+009009089GA2061+075009009MA1100201999999REMMET020TEMPO 5000 95TS 5CB0EQDQ01+000000PRSWM2
0107476340999991993021200004+35383+136867FM-15+0042RJNG V0203501N00411220001CN0112651N1+00701-00401999999ADDAG11000GA1021+009009089MA1101591999999REMMET038174/ FCST 0006 98015 31013/23KT 5CU040EQDQ01+000000PRSWM2
0039941370999991993082323004-12667+132900FM-12+002699999V0209991C000019999999N9999999N9+02641+01951101701ADDAG12999MA1999999101391MD1210121+9999
0115412680999991993091118004+22533+059483FM-12+0014OOSR V0209991C00001220001CN0100001N9+03161+02531100581ADDAA106000091AG14000GA1001+999999999GF100991001001999999001001KA1120M+03981MD1999999-0041REMSYN016 333 10398 59004
0043035600999991993030720004+52217-000500FM-12+008599999V0201201N004119999999N9999999N9+00541+00161102371ADDAG12999MD1210091+9999REMSYN010 555 91954
0109763944999991993071021004+25767-100100SAO  +0387MTY  V0201201N005112200019N0241401N1+03401+02001999999ADDAG11000GD12991+0120099GF102991999999999999999999MA1101591999999MW1001REMAWY009958/50009EQDQ01+101203APOSLP
0109544050999991993082618004+40400+115500FM-12+053899999V0209991C00001220001CN0250001N9+01691+00861101281ADDAA106000091AG14000GA1001+999999999GF100991001001999999001001KA1240M+02981MD1210061+9999REMSYN010 333 10298
0146915540999991993091103004-15517+167217FM-12+0044NVSS V0201101N00871220001CN0300001N9+02541+01481101511ADDAA106000091AG14000GA1021+005409089GA2041+012009059GA3031+090009009GF104991041081004501001011MD1710191+9999REMSYN028 333 563/9 82818 84640 83080
0155702960264101993032617003+60500-145500SAO  +0013CDV  V0209999C000012200019N0321871N1-00501-00501102591ADDAG11999GD12991+0135019GD23991+0600013GF107991999999999999999999GP10060004501011001501017004301011GQ100600826909819GR100600177913749MA1102541999999MW1001
0387723085137501993053002003+36950-076283SAO  +0010NGU  V0200805N00415007625EN0112005N1+02005+01395101791ADDAG11999GD13991+0075019GD23991+0300019GF106995999999999999999999GP10060000001000000001000000001000GR100600000900009MA1101801999999MW1001REMAWY006T2 SETEQDN01 00408KCLC1 3N02 00408KCLC2 3N03 30060EALTP 3N04 30040FPRES 3N05 00000JPWTH 0N06 10179ISLVP 3QNNE41 3 00408E41 3 00408G41 0 00025K41 0 00057L41 0 00700C41 3 30060M41 3 30040N41 0 00000Q41 3 10179S41 0 00068V41 0 00899X41 0 08008
0076021860999991993012510504+65550+022133FM-15+0034ESPA V0203401N00151078001CN0112651N1-02401-02701999999ADDAG11999GA1031+000609079GA2041+078009009MA1098411999999EQDQ01+000000PRSWM2
0079111090999991993041318004+47133+010317FM-12+127599999V0202701N00051012001CN0100001N9+00601-00581999999ADDAA106000091AG14000GF105991051021012501001011KA1120M+01051REMSYN010 333 10105
0054724723930251993012414009+37617-109483NSRDB+184199999V020999999999999999999999999999+99999+99999999999ADDGP10060000001000000001000000001000GR100600000900009
0072614420999991993121511004+18100-015950FM-15+0003GQNN V0200601N00411220001CN0020001N1+02301+00701999999ADDAG11999MA1101591999999REMMET019NEW TEMPO VIS 1200MEQDQ01+000000PRSWM2
0215225500999991993113006004+64533+040467FM-12+0013ULAA V0201301N00101002401CN0090001N9-00871-00961104641ADDAA199000391AG10001AY171061AY221061GA1071+002409059GA2071+004809059GA3071+999999049GF107991071051004501999999KA1120N-01031MA1999999104531MD1210021+9999MW1711REMSYN028 333 21103 87608 875// 87616EQDQ01+999990APOSP 
0058080800999991993030608304+42883-002733FM-15+0509LEVT V0209991C00001000901CN0001001N1-00401-00501999999ADDAG11000ED104U02009GA1091+000909999MA1101901999999MW1451
0095510870999991993071300004+46983+089517FM-12+082799999V0201401N00101220001CN0300001N9+01801+01431100551ADDAA106000091AG14000GF104991011001999999061021MA1999999091621MD1210041+0101REMSYN010 333 00101
0025898690999991993012218004-79950+164967FM-12+007599999V0201701N002619999999N9999999N9-01711-02071100941ADDAG12000MA1999999099931
0072074860999991993020907004+45367+005333FM-15+0386LFLS V0209991C00001000151CN0000001N1+00001+00001999999ADDAG11999ED199U05009GA1091+000159999MA1103011999999MW1451REMMET005NOSIG
0114999999999991993071712004+38700-030800FM-13+9999Y5LV V0202401N00621220001CN0100001N9+02311+02181102401ADDAG12000GA1001+999999999GF100991001001999999001001MD1210201+9999SA1+2209UA1M020159999REMSYN018 22253 00220 20203
0481724340139941993090819003+38750-090367SAO  +0173STL  V0200805N00215019815MN0192005N1+02175+01225101675ADDAA101000095AG11999GA1999+010065085GA2999+019815065GA3999+076205025GD13999+0180019GD24065+0750019GD30025+9999999GF108075999999999999999999GP10060033101010009201016025501010GQ100600342919379GR100601113913469MA1101691099645MW1001REMAWY024CU NW-N BINOVC OVHD-NW-NEQDQ01+999990APOSP N01 00000JPWTH 0P01    003SCCGD1QNNE71 0 00400E71 0 00608E71 0 00002G71 0 00065H71 0 11033H71 0 15065H71 0 37250K71 0 00054L71 0 01200M71 0 29425N71 0 00000Q71 0 10167S71 0 00071V71 0 01009X71 0 08004
0105160540999991993052809004+45733+007350FM-12+054799999V0202701N003119999999N9999999N9+01841+00541101151ADDAA106000091AG14000MA1999999094941MD1210041+9999REMSYN046 555 10500 20152 30276 41111 51111 61111 7/111
0061163200999991993032516204+40650+017950FM-15+0010LIBR V0201301N00561024001CN0070001N1+01901+01501999999ADDAG11999GA1051+024009039MA1100811999999MW1101REMMET005NOSIG
0326722590039271993101720003+32900-097033SAO  +0168DFW  V0200805N00265003965MN0160005N1+02175+01835100835ADDAA101000095AG11999GA1999+003965065GD14085+0039019GF108085999999999999999999GP10060016801010000001016016801010GQ100600463920659GR100600951913779MA1100881098735MW1001EQDQ01+999990APOSP N01 00000JPWTH 0QNNE71 0 00610G71 0 00013H71 0 15013K71 0 00065L71 0 01000M71 0 29155N71 0 00000Q71 0 10083S71 0 00071V71 0 01010X71 0 08005
0091918300999991993101715004-18833-159767FM-12+0006NCAI V0201501N00671004201CN0200001N9+02401+02201101281ADDAG12000AY121031AY221031GF107991071021004501999999MD1610171+9999MW1801REMSYN010 333 563//
0106303930999991993121918004+56833+124867FM-12+0859UELL V0203301N00201075001CN0020001N9-04121-04311104491ADDAG12001AY171061AY221061GF108991021001999999031071MA1999999092191MD1710011+9999MW1221EQDQ01+999990APOSP 
0051726884241481993111205004+45283-118000SAO  +0827LGD  V0203001N007219999999N0160931N1+00331-00561999999ADDAG11999MA1100881999999MW1001REMAWY011CLR BLO 120
0116030910999991993082905004+57200-002217SY-MT+0065EGPD V0203601N00311012001CN0200001N9+01211+01191102061ADDAG12999GA1021+001509999GA2071+012009999GF107991071051001501031999MD1310011+9999REMSYN016 333 81705 87640MET003NEW
0192726625240061993060900004+44150-103100SAO  +0999RCA  V02099999999990240019N0482801N1+01441+00271100471ADDAA106999929AG13000AJ100009199999999GD12991+0150099GD23991+0240099GD33991+0390099GD44991+0750099GF108991999051999999071071MD1310171+9999MW1001REMAWY0393216G21 /968/PK WND 3228/37/ 31700 1577
0058025260999991993030702504+57667+012300FM-15+0169ESGG V0200501N00301999991CY0099001N1-00301-00401999999ADDAG11000MA1101691999999REMMET005CAVOKEQDQ01+000000PRSWM2
0109537640999991993022618004+37500+111100FM-12+095199999V0203201N00301220001CN0200001N9-00101-01461102591ADDAA106000091AG14000GA1001+999999999GF100991001001999999001001KA1240M+00651MD1210061+9999REMSYN010 333 10065
0119319590999991993080403004+44367+135850FM-12+003499999V0201101N00301006901CN0200001N9+01731+01391101301ADDAG12000GA1051+006909059GF108991081051004501999999MA1999999100901MD1210041+9999REMSYN010 333 85623EQDQ01+999990APOSP 
0153723046999991993040822003+35917-075700SAO  +0004MQI  V0200301N00511004201EN0112651N1+00881+00381999999ADDAG11999GD14991+0042019GF108991999999999999999999GP10060009001025000001028009001025GQ100600665926199GR100600542913639MA1101901999999MW1001REMAWY004LAST
0076476870999991993081501004+35633+139850FM-15+0008RJTI V0201601N00311036001CN0020001N1+02601+02301999999ADDAG11999GA1071+036009999MA1100511999999MW1101REMMET020NEW (BKN120AC A2969)
0105724100137331993070606003+37333-079200SAO  +0286LYH  V02099999999999999999N999999999+02395+99999999999ADDAA101000095GP10060000001000000001000000001000GR100600000900009MA1999999098515QNNM71 0 29090S71 0 00075
0050596470999991993021221004+21033+109117FM-12+004199999V0200901N00501012001CN0100001N9+01781+01701101731ADDAG12000GF107991071081008001999999MD1710151+9999
0110162530999991993080616004+41050+014067FM-15+0010LIRM V0202301N00311220001CN0080001N1+02901+02401999999ADDAA124256091AG11999GA1021+006009999MA1101491999999REMMET030NEW SCT WIND THR06 21008KT BLUEQDQ01+000000PRSWM2
0039476040999991993110622004+37917+139050FM-12+000799999V0200201N007719999999N9999999N9+01191+00421102251ADDAG12999MA1999999102171MD1210311+9999
0095082260999991993073112004+40633-003167FM-12+064099999V0202701N00101220001CN0300001N9+02781+01201101591ADDAA106000091AG14000GF101991011011999999001001MA1999999094561MD1710111+9999EQDQ01+000992SCOLCB
0044999999999991993040705414+63033-032417FM-18+9999DRIB V02099999999999999999N9999999N9+99999+99999999999ADDAG10999MW1001SA1+0439REMSYN01164429     ?
0044999999999991993030906454+21233-042183FM-18+9999DRIB V02099999999999999999N9999999N9+99999+99999999999ADDAG10999MW1001SA1+2339REMSYN01141911     ?
0057716013999991993012710004+44550-065783SAO  +0152YID  V0201401N004612200019N0241401N1-01301-01701999999ADDAG11999GF100991999999999999999999MA1102781999999MW1001
0196368700999991993111606004+43233+076933SY-MT+0847UAAA V0203501N00201000151CN0002001N1-00081-00261102671ADDAA106000091AG11000AY141061AY221061GA1091+000159999GF109991091999999999999999KA1120N-00451MA1102301092391MD1810051+9999MW1451REMSYN010 333 21045MET025NEW SC05 TEMPO 0600 VV002EQDQ01+999990APOSP 
0151719110999991993080519004+68817-093433SAO  +0042YUS  V0202001N002512200019N0241401N1+00901+00301101341ADDAG11999GD12991+0033099GD22991+0330093GD32991+0660093GF102991999999999999999999MA1101321100821MW1001REMAWY021CU1AC3CC1 CI ASOCTD ?EQDQ01+999990APOSP 
0140724339999991993022516003+37750-089017SAO  +0144MWA  V0201001N00511000301WN0008051N1-00391+99999999999ADDAG11999GD15991+0003019GF109991999999999999999999GP10060009301024000001027009301024GQ100600597913309GR100600703913969MA1101861999999MW1731
0054726577999991993112611009+45150-093217NSRDB+027899999V020999999999999999999999999999+99999+99999999999ADDGP10060000001000000001000000001000GR100600000900009
0039477800999991993071402004+34683+135833FM-12+010699999V0202301N001019999999N9999999N9+02801+02311099911ADDAG12999MA1999999098741MD1710111+9999
0052999999999991993091315004+42000-081300FM-13+9999VDRV V0202001N00931220001CN0100001N9+02501+99999999999ADDAG12000GA1001+999999999GF100991001001999999001001
0200716240999991993101701004+43667-079633SAO  +0173YYZ  V0209991C000010018019N0020121N1+01301+01301101271ADDAG11999GD16991+0001599GD23991+0018099GD34991+0036099GF108991999999999999999999MA1101251099191MW1451MW2511REMAWY048F4SF3ST3 TREND OCNL -X C5 BKN 15 OVC 1RWF. ?73XXEQDQ01+999990APOSP Q02+000100PRSWM3
0257723525939861993061600003+34983-099050SAO  +0477HBR  V0201801N007210600019N0321871N1+03221+01661101261ADDAA106000091AG10000GD12991+0120019GD22991+0210019GD34991+0600019GF108991999999999999999999GP10060013301011000001016013301011GQ100600636928119GR100600587913249KA1999M+03381MA1101461999999MD1710191+9999MW1001OC100971REMAWY032CB E TCU SE FEW CU ALQDS/ 719 93
0054722909931151993032609009+32567-117117NSRDB+000699999V020999999999999999999999999999+99999+99999999999ADDGP10060000001000000001000000001000GR100600000900009
0054701780265291993041709009+65167-152100NSRDB+007199999V020999999999999999999999999999+99999+99999999999ADDGP10060000001000000001000000001000GR100600000900009
0087719246999991993062314204+76417-082900SAOSP+0045WGZ  V0209991C000010090019N0112651N1+99999+99999999999ADDAG11999GD12991+0018099GD24991+0090099GF108991999999999999999999MW1611REMAWY006ST5SC5
0106719284999991993011205004+52433-114933SAO  +0988WRM  V0209991C00001000901EN0144841N1-01801-02101103311ADDAG11999GD13991+0009099GD24991+0141099GF108991999999999999999999MD1210091+9999MW1001REMAWY011(4719,5009)
0127234450999991993123106004+65600+072700FM-12+001299999V0209991V00201075001CN0040001N9-03991-04331102111ADDAA106000091AG14000GF108991001001999999001071KA1120N-04311MA1999999101901MD1710061+9999REMSYN010 333 21431EQDQ01+999990APOSP 
0204031600999991993012418004+55950-003350FM-12+0041EGPH V0202601N00871013501CN0150001N9+00171-00221099561ADDAA199003091AG10001AY181061AY221061GA1011+002409079GA2011+004509099GA3031+013509059GF105991041091002501061031KA1120M+00611MD1310011+9999MW1261OA140101541REMSYN040 333 10061 81708 81915 83645 90710 91130
0109077470999991993111504004+42733+002867FM-15+0048LFMP V0203501N00621220001CN0112651N1+00901+00101102971ADDAG11999GA1021+013809999MA1102911102391REMMET008NEW NOSIEQDQ01+999990APOSP Q02+999990APOSLPQ03+000000PRSWM2
0155467500999991993082706254+22683+120467FM-15+0024RCDC V0203001N00511006301CN0112651N1+03101+02501100651ADDAG11001GA1021+004209999GA2021+004809099GA3071+006309999MA1100611100301MW1171REMMET032NEW A2982 TS E MOV OVHD ON COURSEQDQ01+999990APOSP Q02+999990APOSLP
0108443540999991993031512004+44900+110117FM-12+093699999V0209991C00001220001CN9999999N9+00101-01211103041ADDAA106000091AG14000GF104991041001999999041001KA1120M+00571MA1999999091751MD1510151+9999REMSYN010 333 10057
0142111450999991993110506004+47117+013133FM-12+110099999V0209991C00001090001CN0200001N9+00161-00031999999ADDAA106000091AG14000GA1011+018009059GA2071+090009029GF107991011061017501999061KA1120N+00061REMSYN022 333 20006 81656 87280EQDQ01    003SCOMCG
0100066700999991993061915004+47483+008533FM-12+0432LSZH V0202301N00361220001CN0270001N9+02901+01491101401ADDAG12000GA1011+018009089GF101991011011017501001001MA1999999096621MD1710141+9999REMSYN010 333 81856
0416725660240281993070116003+41867-103600SAO  +1202BFF  V0202805N007252200059N0400005N1+02445+00945100835ADDAA101000095AG11999GA1999+009145065GA2999+030485035GA3999+076205025GD12025+0090019GD22015+0300019GD32035+0750019GF103025999999999999999999GP10060064101010075001016013001010GQ100600469909689GR100600901913219MA1101291087625MW1001EQDN01 00000JPWTH 0QNNE71 0 00202E71 0 00201E71 0 00204G71U0 99999H71 0 15030H71 0 23100H71 0 37250K71 0 00049L71 0 02500M71 0 25875N71 0 00000Q71 0 10083S71 0 00076V71 0 00403X71 0 28014
0031161910999991993030622004+43617+013367FM-15+0010LIPY V0201801N00201220001CN0080001N1-00101-00401999999ADDAG11999MA1101081999999MW1101
0123725376148531993122412003+42233-083533SAO  +0218YIP  V0202301N008212200019N0482801N1-00731-01121999999ADDAG11000GD13991+0360013GF107991999999999999999999GP10060000001000000001000000001000GR100600000900009MA1101421999999MW1001
0077714820999991993032620004+52183-127467SAO  +0032WME  V0200401N009719999999N9999999N9+00601-00201101601ADDAG11999MD1710201+9999MW1001OC101231REMAWY011MMMM 7020 ?EQDQ01+000002VOVAR 
0394477640433241993101205003+34150+132233SAO  +0003RJOI V0209999900215220001CN0090001N1+02285+01505999999ADDAG11999GA1021+024009999GA2021+060009999GF104995999999999999999999MA1102071999999MW1051REMMET003NEWEQDN01 00203KCLC1 3N02 00203KCLC2 3N03 99999CCLHTU3N04 05080CCLT1 3N05 00600DHZVS 3N06 30140EALTP 3N07 30130FPRES 3N08 08100JPWTH 3N09 10208ISLVP 3QNNE41 3 00203E41 3 00203G41U3 99999H41 3 05080K41 0 00059L41 3 00600C41 3 30140M41 3 30130N41 3 08100Q41 3 10208S41 0 00073V41 0 00599X41 0 99004
0102704890999991993020310003+53900-166550SAO  +0004DUT  V0202901N001519999999N0160931N1-00281-00781999999ADDAG11999GP10060000001000000001000000001000GR100600000900009MA1102741999999MW1001REMAWY011CLR BLO 120
0140726165999991993080819003+42900-072267SAO  +0149EEN  V0200801N002012200019N0160931N1+02271+01441999999ADDAG11999GD12991+0144019GF102991999999999999999999GP10060070201024053701027025701024GQ100600339922419GR100601103913299MA1102341999999MW1001
0135318730999991993083003004+45867+133733FM-12+010799999V0202801N00101007501CN0500001N9+01541+01091101381ADDAG12000GA1021+084009049GF108991071011008001999071MA1999999100191MD1110051+9999REMSYN010 333 82478EQDQ01+999990APOSP Q02    003SCOMCG
0072030110999991993010802004+59117-005817FM-12+009899999V0202501N025719999999N9999999N9+00401-00161099241ADDAG12999MD1210301+9999OA140103911REMSYN028 555 1//76 05011 07251 10250
0044999999999991993021712324+68800+006083FM-18+9999DRIB V02099999999999999999N9999999N9+99999+99999999999ADDAG10999MW1001SA1+0509REMSYN01163904     ?
0105063500999991993031707294+51567+004933FM-15+0013EHGR V0202401N00611013501CN0112651N1+00901+00701999999ADDAG11999GA1011+003909089GA2061+013509059GA3071+027009039MA1102201999999MW1211REMMET017BLU WHT TEMPO YLO
0172320270999991993032512004+52217+141633FM-12+000799999V0203201N01001030001CN9999999N9+99999+99999100251ADDAA106000091AG10000AY131061AY221061GF107991071001999999031001KA1120M-00601MA1999999100161MD1210161+9999MW1371OA149901501REMSYN022 333 11060 9101/ 91115EQDQ01+020083ATOT  
0071013755999991993032419504+61033+002033FM-15+0010ENGC V0203501N02211004501CN0112651N1+00501-00101999999ADDAG11999GA1021+003009099GA2051+004509089MA1101291999999MW1261OC102981
0051726399999991993020314094+45917-085917SAOSP+0180P75  V02099999999999999999N9999999N9+00001-00231999999ADDAG11999MW1001REMAWY007014 000EQDQ01+000002VOVAR 
0122025440999991993030415004+58517+014533FM-12+0102ESIA V0201601N00051012001CN0300001N9-00041-00391102251ADDAG12000GA1031+005409059GA2061+012009059GF107991071051004501999999MA1999999101051MD1710131+9999REMSYN016 333 83618 86640
0110722535129091993010222004+29383-098583SAO  +0210SKF  V0200801N00101000601WN0032191N1+01001+00941101891ADDAG11999GD15991+0006099GF109991999999999999999999MA1101901999999MW1451MW2511REMAWY004WR//EQDQ01+000100PRSWM3
0087043600999991993051609004+65600-037633FM-12+0052BGAM V0201301N00261001201CN0050001N9-00141-00191103321ADDAG12001AY171031AY221031GF108991061071001501021999MA1999999102651MD1710071+9999MW1711
0097307100999991993062100004+52267+104350FM-12+0513UIII V0203301N00501030001CN0100001N9+01141+00561101541ADDAG12000GF108991061001999999031011KA1120N+01101MA1999999095521MD1210091+9999REMSYN010 333 20110
0036150010999991993070602004+48017+026950FM-12+024099999V0201601N00101036001CN0150001N9+01821+99999999999ADDAG12999GF108991041051008001071999
0084202740999991993042818004+77500+082233FM-12+002399999V0203601N00201220001CN0290001N9-01401-01751100871ADDAG12000GF103991001001999999001011MA1999999100571MD1310021+9999EQDQ01+999990APOSP 
0180722270138641993090800003+33917-084517SAO  +0326MGE  V0209999C000010750019N0112651N1+02551+01771101491ADDAA106000091AG10000GD12991+0120019GD24991+0750019GF108991999051999999001071GP10060002401011000001017002401011GQ100600848927369GR100600111912229MA1101631999999MD1710021+9999MW1001
0054725717999991993081307009+39533-107717NSRDB+169199999V020999999999999999999999999999+99999+99999999999ADDGP10060000001000000001000000001000GR100600000900009
0117151200999991993051521004+46783+023567FM-12+0413LRCL V0202701N00501012001CN0200001N9+01341+01231100771ADDAA103002091AG10005AY191031AY281031GF105991051031012501001001MA1999999095981MD1210191+9999MW1021REMSYN010 333 60027
0074401980999991993070615504+30000+034833FM-15+0432LLOV V0200301N00511999991CY0099001N1+03501+01001999999ADDAG11999MA1100411095401REMMET005NEW KEQDQ01+999990APOSP Q02+000000PRSWM2
0106286150999991993063021004+55183+053800FM-12+012699999V0201801N00201220001CN0030001N9+01141+01091101151ADDAG12000AY121031AY221031GF107991041001999999071011MA1999999099651MD1210081+9999MW1101EQDQ01+999990APOSP 
0099484750999991993100912004+12583+099950FM-12+0006VTPH V0203001N00151105001CN0100001N9+02701+02331101061ADDAA106000091AG14000GF105991011021008001041061KA1120M+03201MD1999999-0021REMSYN016 333 10320 59002
0058999999999991993053114524+45117-131317FM-18+9999DRIB V02099999999999999999N9999999N9+01311+99999100091ADDAG10999MD1610031+9999MW1001SA1+1169REMSYN01146682     ?
0086161250999991993031807004+44083+009983FM-15+0010LIQW V0203201N00301220001CN0400001N1+99999+99999999999ADDAG11999REMMET03210BH 3CU025 5AC070 09/07 OVC GRNEQDQ01+027323ATOT  Q02+000000PRSWM2
0114833320999991993022112004-14100-046367FM-12+095099999V0200901N00101015001CN0100001N9+02721+01791101281ADDAA106000091AG14000GF106991051001017501021031KA1240N+02041MA1999999092301MD1999999+0071REMSYN016 333 20204 58007
0122999999999991993112318004+10800-088900FM-13+99997KFY V0201101N00361220001CN0200001N9+02901+02211101151ADDAG12000GF102991021021004501081031MD1410001+9999SA1+2909UA1M030109999UG1060203409REMSYN030 22234 00290 20302 334// 40604
0049711480999991993061703004+49200-098900SAO  +0470WPO  V0203501N007219999999N9999999N9+01101+00801101991ADDAG11000MD1210261+9999MW1001EQDQ01+000002VOVAR 
0181130140999991993081106004+46217+014483SY-MT+0385LJLJ V0202701N00201220001CN0500001N1+01241+01001101671ADDAA199000391AG13000GA1021+006909999GF102991021081008001031001IA1099IA2999+00709KA1120N+00901MA1101591097151MD1210241+9999REMSYN016 333 20090 31007MET008NEW NOSIEQDQ01+000000PRSWM2
0010994280999991993082905004+44617-124067FM-12+0009NWPO V0203501N004119999999N9999999N9+01191+99999102061ADDAG12999
0242780620999991993010300004+26550-078700SY-SA+0011MYGF V0200601N008212200019N0190001N9+02281+01951102071ADDAA106999929AA224000291AG10002AY181061AY211061GA1021+006009089GD12991+0060099GF102991021021008001001001KA1120M+02561KA2180N+02061MD1999999+0201MW1151OC101331REMSYN040 333 10256 20206 58020 70002 82820 90924AWY028RWU SCT ALQDS/ 21400 1200 78
0058022860999991993042821504+63800+020283FM-15+0014ESNU V0202001N00101999991CY0099001N1+00101-00301999999ADDAG11999MA1102811999999REMMET005CAVOKEQDQ01+000000PRSWM2
0069916310999991993061706004-05667+176133FM-12+0003NGFO V0200901N00211045001CN0200001N9+02711+02401100941ADDAA106999929AG10005AY181061AY221061GF108991031031004501071999MW1801
0063711480999991993070800004+49200-098900SY-SA+0470WPO  V0202001N002619999999N9999999N9+01221+01001101101ADDAA106000091AG14000MA1999999095471MD1710061+9999REMSYN004 333
0095466950999991993042003004+25633+122067FM-12+010299999V0201601N00821007501CN0200001N9+02541+02251101371ADDAA106000091AG14000GF105991051051008001001001MA1999999100201MD1010001+9999REMSYN010 555 31622
0039476170999991993061407004+36150+137250FM-12+056199999V0202001N003619999999N9999999N9+02651+01941100301ADDAG12999MA1999999094171MD1710051+9999
0049718905999991993110914004+49350-124167SAO  +0000WGB  V0201201N003619999999N9999999N9+00701+00501101871ADDAG11999MD1710071+9999MW1001EQDQ01+000002VOVAR 
0088032433999991993112811204+55033-001700FM-15+0081EGNT V0201301N00621004501CN0035001N1+00301+00101999999ADDAG11999GA1071+004509999GA2081+006009999MA1102811999999REMMET003NEWEQDQ01+000000PRSWM2
0130085490999991993072518004+40200-008417FM-12+014099999V0203101N00411220001CN0200001N9+02521+01561101651ADDAA199999929AG10000GA1031+999999009GF103991001001999999001011KA1120M+02881MA1999999100051MD1310061+9999REMSYN016 333 10288 830//
0150411120999991993120300004+18233+042650SY-MT+2084OEAB V0202701N00101220001CN0100001N1+01031+00201999999ADDAA106000091AG11000GF100991001001999999001001MA1102201079351MD1999999-0101ME1314979REMSYN026 333 59010 555 04410 50074MET005NEW KEQDQ01+000000PRSWM2
0080106270999991993113011004+49850+007883FM-15+0103EDEH V0200801N004610240019N0040001N1-00301-00601999999ADDAG11999GA1071+024009999GA2081+060009999MA1101761999999MW1101REMMET008NEW CIGE
0108583620999991993091018004+31400+121467FM-12+000499999V0201401N00201015001CN0160001N9+02341+02081101461ADDAA106000091AG14000GF106991061051017501001001KA1240M+02771MA1999999101361MD1710121+9999REMSYN010 333 10277
0159025500999991993122009004+57767+014083SY-MT+0232ESGJ V0202801N00771220001CN0600001N1-00031-00441098411ADDAG12001AY171031AY221031GA1021+004509999GF103991011051004501031021MA1098211095691MD1310521+9999MW1011REMSYN010 333 81615MET012NEW 19790141EQDQ01+000000PRSWM2
0044999999999991993012119144-02950+166050FM-18+9999DRIB V02099999999999999999N9999999N9+99999+99999999999ADDAG10999MW1001SA1+2859REMSYN01152833     ?
0318725266047511993072616003+41800-078633SAO  +0645BFD  V0201705N005250103659N0080005N1+02445+01895101565ADDAG11999GD16995+0001519GD24995+0102019GF108075999999999999999999GP10060038501010006401016033201010GQ100600326912559GR100601114913249MA1101761094115MW1055REMAWY011H2 BINOVC ?EQDN01 08100JPWTH 0QNNE21 0 00899E21 0 00699G21 0 00034K21 0 00066L21 0 00500M21 0 27790N21 0 08100Q21 0 10156S21 0 00076V21 0 01009X21 0 17010
0113033340999991993032605004+53350-002267FM-12+0078EGCC V0200601N00101220001CN0070001N9-00211-00431103611ADDAG12999AY101021AY201021GA1021+066009009GF102991001001999999001011MD1610121+9999MW1051REMSYN016 333 82072 92610
0293725760240211993110804003+42817-108733SAO  +1694LND  V0202605N004152200059N0400005N1-00505-01115102085ADDAA101000095AG11999GA1999+021345035GF100005999999999999999999GP10060000001000000001000000001000GR100600000900009MA1101591082805MW1001REMAWY006FEW ACEQDN01 00000JPWTH 0QNNE71 0 00000G71U0 99999H71 0 23070K71 0 00012L71 0 02500M71 0 24450N71 0 00000Q71 0 10208S71 0 00023V71 0 00000X71 0 26008
0127969730999991993052604004-07050+113967FM-12+000399999V0201001N00981045001CN0120001N9+03041+02421101121ADDAA106000091AA224999929AG14999GA1011+006009099GA2021+006309089GF105991031031008001041011REMSYN028 333 56200 79999 81920 82821
0155723095937191993060210003+35067-077050SAO  +0006EWN  V0200601N00251015001MN0160931N1+01551+01161101421ADDAG11999GD13991+0150019GD23991+0750019GF107991999999999999999999GP10060000001011000001016000001011GQ100600897906239GR100600000900779MA1101421999999MW1001
0044999999999991993081501464+18200+155400FM-18+9999DRIB V02099999999999999999N9999999N9+99999+99999999999ADDAG10999MW1001SA1+2969REMSYN01152835     ?
0156725905232751993020217003+39133-123200SAO  +0187UKI  V0209999C000012200019N0402341N1+00221+00161102101ADDAG11999GD13991+0600013GF107991999999999999999999GP10060005801011002001016005401011GQ100600784912309GR100600282914089MA1102071999999MW1001REMAWY007FKH E-S
0155723119138861993052421003+34850-082350SAO  +0319GMU  V0201901N007210750019N0160931N1+02721+01381999999ADDAG11000GD12991+0150019GD23991+0750019GF107991999999999999999999GP10060032001011009901016024701011GQ100600425926329GR100600980913329MA1101861999999MW1001
0088851040999991993121214004-13067-064667FM-15+0140SLJO V0203401N00261220001CN0112651N1+02801+02501999999ADDAG11999GA1021+003009999GA2021+024009999MA1101081999999REMMET003NEWEQDQ01+000000PRSWM2
0034892080999991993062603004-89950-000017FM-12+283599999V0200801N002119999999N9999999N9-07001+99999999999ADDAG12000MA1999999066941ME1425719
0166116430999991993100900004+50667+015750FM-12+081699999V0201401N00301003901CN0100001N9+01351+01191999999ADDAA106000591AG10001AY161061AY211061GA1081+003909079GF108991081071004501999999GJ100129MA1999999091391MD1710111+9999ME1207189MW1611REMSYN026 333 55002 88713 555 390//
