0097717150999991994101310004+47800-069550SAO  +0148WNH  V0202101N003019999999N0144841N1+00501+00101102761ADDAG11999MA1999999100921MD1610041+9999MW1001REMAWY024CLR BLO 50  (0000,0000);EQDQ01+999990APOSP 
0050516440999991994010203004+41717+082950FM-12+110099999V0209991C00001036001CN0150001N9-00611-01201103371ADDAG12000GF108991081001999999021999MD1210351+9999
0090874800999991994101920004-32917-060783FM-15+0025SAAR V0201601N00771009001CN9999999N9+02301+01101999999ADDAG10999GA1071+009009999MA1100711999999REMMET005NEW ;EQDQ01+000002VOVAR Q02+000000PRSWM2
0124725975242351994110207044+42617-123367SAOSP+1171SXT  V0209991C00001001201MN0020121N1-00171-00171101511ADDAG10999GD13991+0012099GD24991+0033099GF108991999999999999999999MA1101291999999MW1451REMAWY009TNO ZRNO;EQDQ01+000100PRSWM2
0074833780999991994121217004-15867-047933FM-15+1061SBBR V0200801N00311006001CN0112651N1+03001+01401999999ADDAG10999GA1071+006009999MA1101691999999REMMET005NEW ;EQDQ01+000000PRSWM2
0064714120999991994010123004+46450-061967SAO  +0011WEP  V0201901N009719999999N0144841N1-00401-00801102491ADDAG11999MA1999999102331MD1710111+9999MW1001EQDQ01+999990APOSP 
0095722555129351994030622004+28733-096250SAO  +0005PSX  V0201501N007712200019N0112651N1+02331+01881101351ADDAG11999GD12991+0360099GF102991999999999999999999MA1101351999999MW1001OC101021REMAWY006FEW CU
0084306860999991994020506004+53467+122400FM-12+029599999V0209991C00001075001CN0200001N9-01421-01931101411ADDAG12000GF108991001001999999001071MA1999999097541MD1710201+9999EQDQ01+999990APOSP 
0058992180999991994052712004+45300-086300FM-18+0003DB21 V0202501N003019999999N9999999N9+00351+99999101911ADDAG12000MA1999999099801MD1310121+9999EQDQ01+000002VOVAR 
0051723307999991994101719004+33450-088583SAO  +0080GTR  V0201101N005619999999N0160931N1+01831+01001999999ADDAG11999MA1102171999999MW1001REMAWY011CLR BLO 120
0165170260999991994021406004+42033+035167FM-12+003299999V0203401N00311030001CN0200001N9-00081-00831999999ADDAA106000091AG14000GA1041+010209059GA2081+030009049GF108991041051012501021999IA1019IA2999-00209KA1120N-00141REMSYN046 333 21014 30102 50044 55000 84634 88460 92438
0108688420999991994022218004-33983+025600FM-12+0060FAPE V0201101N00511220001CN0400001N9+01981+01671102031ADDAA106000091AG14000GF101991001001999999001011KA1120M+02471MA1999999101321MD1210161+9999REMSYN010 333 10247
039672698024229199410082000C+45600-122600SAO  +0006PDX  V0202605N002152200059N0640005N1+02005+00675101895ADDAA101000095AG11999GA1999+042675035GA2999+067065005GA3999+076205025GD14999+0750093GD20005+9999999GD30085+9999999GF108025999999999999999999MA1101901101745MW1001REMAWY007FEW AC;EQDQ01+999990APOSP N01 00000JPWTH 0P01    003SCCGD1QNNE71 0 00500E71 0 00000E71 0 00010G71U0 99999H71 0 23140H71 0 32220H71 0 37250K71 0 00044L71 0 04000M71 0 30045N71 0 00000Q71 0 10189S71 0 00068V71 0 01003X71 0 26004
0096714400999991994122011004+54167-130367SAO  +0005WHL  V0201301N009719999999N9999999N9+00601+99999099061ADDAG11999MD1010101+9999MW1001OC101281REMAWY0300010 2018 (PKWND 1325 1053Z) ;EQDQ01+000002VOVAR 
020872375503103199411281400C+35133-111667SAO  +2135FLG  V0202105N00155220005MN0160005N1-00785-01335102135ADDAA101000095AG10999GD10995+9999999MA1101901078585MW1001REMAWY021CLR BLO 120 TNO ZRNO;EQDN01 00000JPWTH 0QNNAA1 0 00000GA1U0 99999KA1 0 00008LA1 0 01000MA1D0 23205NA1 0 00000QA1 0 10213SA1 0 00018YA1 0 21003
0104024460999991994010107504+59583+016633FM-15+0031ESOW V0202801N00461003301CN0112651N1-00201-00401099661ADDAG11999GA1071+003309999MA1099591099561REMMET003NEWEQDQ01+999990APOSP Q02+999990APOSLPQ03+000000PRSWM2
0010898690999991994040515004-79950+164967FM-12+007599999V0201401N002619999999N9999999N9-02741-03211999999ADDAG12000
0092037120999991994072714004+51200-003533FM-12+008399999V0202901N00211002101CN0140001N1+01631+01011101901ADDAG12999GA1031+001809079GF107991071051002501999999MD1010011+9999REMSYN017 333 83706 87618;
0069916360999991994062206004-07233+177150FM-12+000299999V0201201N00261105001CN0500001N1+02901+02501999999ADDAA106000091AG10000AY101061AY211061GF107991041011008001001081MW1031
0068616410999991994021502004+14733-017500FM-15+0024GOOY V0203501N00211999991CY0099001N1+01701+01601999999ADDAG11999MA1101491999999REMMET015NEW CAVOK NOSIGEQDQ01+000000PRSWM2
0058726627999991994052217004+45567-103517SAO  +08812WX  V0201301N005619999999N9999999N9+02381+00831999999ADDAG11999MW1001REMAWY014PK WND 17 000;EQDQ01+000002VOVAR 
0100719000999991994101814004+55450-060233SAO  +0008WHO  V0202301N009219999999N9999999N9+00701+99999101321ADDAG11999MA1999999101201MD1710251+9999MW1001REMAWY011MMMM 7025 ;EQDQ01+999990APOSP Q02+000002VOVAR 
0162804570999991994030918004+05600-067500FM-12+0074SVPA V0202301N00101220001CN0100001N9+03671+01781101101ADDAA106000091AG10000AY121061AY221061GA1031+004809059GF103991031051004501001001IA1019MA1101081999999MD1999999+0171MW1041REMSYN033 333 30/// 56400 58017 83616 1011
0195718020999991994052318004+46917-055383FM-12+0049WDS  V0202201N00411000151CN0000001N1+00431+00431100551ADDAA106005092AA224004692AG10002AY181061AY241061GA1091+000159999GF109991091999999999999999KA1120M+00441KA2240N+00241MA1999999099981MD1710271+9999MW1471REMSYN035 333 10044 20024 70046 89/00 90922;
0063999999999991994093014394-27583-098667FM-18+9999DRIB V02099999999999999999N9999999N9+99999+99999999999ADDAG10999MW1001SA1+1959REMSYN01132529     ?EQDQ01+000002VOVAR 
0052161250999991994111420004+44083+009983FM-15+0010LIQW V0203101N00151999991CY0099001N1+01001+01001999999ADDAG11999REMMET014NEW CAVOK BLU;EQDQ01+000000PRSWM2
0129788620999991994041319004+17117-061783FM-15+0014TAPA V0200301N00771005401CN0112651N1+02701+02201101641ADDAG10999GA1071+005409089GA2071+010509999GA3071+084009999MA1101591101411MW1161REMMET006NEW :;EQDQ01+999990APOSP Q02+999990APOSLP
0139478520999991994040705004+33483+131733FM-15+0008RJFO V0200401N00361003901CN0112651N1+01601+01301999999ADDAG11999GA1021+002409999GA2071+003909999GA3071+006009999MA1100411999999REMMET038NEW (SCT008ST BKN013ST BKN020CU A2967)EQDQ01+000000PRSWM2
0106710790999991994121605004+55800-097867SAO  +0218YTH  V0201401N00151000901MN0048281N1-00901-01001101041ADDAG11999GD14991+0009099GF108991999999999999999999MA1100811098211MW1711REMAWY006ST10 ;EQDQ01+999990APOSP 
0057724765999991994042117004+38500-107900SAO  +1755MTJ  V0209991C000019999999N0160931N1+01941+00001101531ADDAG11999MA1102131999999MW1001REMAWY017CLR BLO 120 ZRNO;
0087726544999991994040903004+48017-092867SAO  +0397ORB  V0201301N003610021019N0032191N1+00051+00051999999ADDAG11000GD16991+0001599GD24991+0021099GF108991999999999999999999MA1099971999999MW1001
0162037460999991994111617004+51167-001750SY-MT+0124EGDM V0202201N00101036001CN0250001N1+00961+00731101721ADDAG11999GA1021+012009999GA2071+036009999GF107991031051012501071999MA1101591999999MD1610171+9999REMSYN017 333 83640 87362;MET014NEW BLU NOSIG;EQDQ01+000000PRSWM2
0145999999999991994101200004-33400+155300FM-13+9999ZMQN V0202001N01031004201CN0200001N1+01721+00751102581ADDAG10000AY121061AY221061GF105991051041004501001001MD1010101+9999MW1021SA1+1789UA1M020109999UG1070302009REMSYN031 22223 00178 20202 320// 40706;
034272438093819199404090500C+39733-086267SAO  +0241IND  V0201505N003152200059N0400005N1+00945+00175101795ADDAA101000095AG11999GA1999+045725035GA2999+076205025GD11999+0750093GD20025+9999999GF102015999999999999999999MA1101761098835MW1001REMAWY006FEW ACEQDQ01+999990APOSP N01 00000JPWTH 0P01    003SCCGD1QNNE71 0 00100E71 0 00002G71U0 99999H71 0 23150H71 0 37250K71 0 00035L71 0 02500M71 0 29185N71 0 00000Q71 0 10179S71 0 00049V71 0 00201X71 0 15006
0055999999999991994110515004-49267-040267FM-18+9999DRIB V02099999999999999999N9999999N9+99999+99999999999ADDAG10999MW1001REMSYN01131905     ?EQDQ01+000002VOVAR 
0132035623999991994050416014+52367-000217FM-16+0049EGWZ V0209991V005110105019N0112651N1+99999+99999999999ADDAG11999GA1021+007509999GA2071+010509999GA3071+015009999GA4071+036009999MA1100881999999MW1801REMMET028NEW CIGE035 MDT CU ALQDS BLU
0218719674999991994051901004+61367-139033SAO  +0807YDB  V0201201N007710270019N0804671N1+01701+00201101461ADDAG11999GD12991+0150099GD23991+0270099GD33991+0330099GD43991+0840099GF107991999999999999999999MA1101221999999MD1710201+9999MW1001OC101381REMAWY035SC1AC6AC2CI1 CI TR,19.1/2.2/0 2299;EQDQ01+000022APCTENQ02+002992APC3  
0088853150999991994030420004-20050-063567FM-15+0792SLCA V0201201N00311220001CN0112651N1+03001+01801999999ADDAG11999GA1021+010809999MA1101691092431REMMET003NEWEQDQ01+999990APOSP Q02+000000PRSWM2
0082034920999991994062213204+52633+001317FM-15+0018EGSH V0202801N00771010501CN0112651N1+02101+00801999999ADDAG11999GA1071+010509999MA1102001999999OC101291REMMET005NEW ;EQDQ01+000000PRSWM2
0036347850999991994101509004+46917+047933FM-12-001799999V0203001N00701036001CN0500001N1+00871+00041101801ADDAG12000GF106991031081008001051011
0063999999999991994062121414-29483-006617FM-18+9999DRIB V02099999999999999999N9999999N9+01851+99999102671ADDAG10999MW1001SA1+1989REMSYN01117569     ?EQDQ01+000002VOVAR 
0061839800999991994021118004-31333-054100FM-12+024299999V0200901N00511012001CN0100001N9+02601+01511101551ADDAA106000091AG14000GF106991061021012501001001MD1710121+9999
0167804570999991994101612004+05600-067500FM-12+0074SVPA V0201801N00401003001CN0100001N1+02191+02021101321ADDAA124047091AG10008AY161061AY221061GA1081+003009059GF108991081051004501999999IA1119KA1240N+02131MD1999999+0001MW1501REMSYN040 333 20213 32/// 569// 58000 88610 1013;
0097717260999991994081605004+47917-074617SAO  +0442WPK  V0209991C000019999999N0144841N1+00601+00501101441ADDAG11999MA1999999096071MD1010071+9999MW1001REMAWY024CLR BLO 50  (0000,0000);EQDQ01+999990APOSP 
0091725305999991994122303004+41917-088250SAO  +0231DPA  V0203301N00511002401MN0048281N1+00161+00051999999ADDAG11000GD14991+0024099GF108991999999999999999999MA1102201999999MW1451EQDQ01+000100PRSWM2
0116703400255061994122115004+59750-154917SAO  +0049ILI  V0203601N003010180019N0112651N1-01171-01451097861ADDAG11000GD12991+0105099GD23991+0180099GD34991+0360099GF108991999999999999999999MA1097871999999MD1410001+9999MW1001
0084294980999991994080306004+56367+098367FM-12+022099999V0200901N00301220001CN0200001N1+02701+01031099961ADDAG12000GF106991031021008001001011MA1999999097491MD1710141+9999EQDQ01+999990APOSP 
0058726627999991994072318084+45567-103517SAOSP+08812WX  V0201301N001019999999N9999999N9+02331+00501999999ADDAG10000MW1001REMAWY014PK WND 04 000;EQDQ01+000002VOVAR 
0049712610999991994020609004+43767-081717SAO  +0214WGD  V0202201N003019999999N9999999N9-01001-01301101511ADDAG11000MD1510001+9999MW1001EQDQ01+000002VOVAR 
0051727566999991994070112004+43667-092933SAO  +0375AUM  V0202401N002019999999N0160931N1+01771+01721999999ADDAG11000MA1101321999999MW1001REMAWY011CLR BLO 120
0112718280999991994070322004+54800-066817SAO  +0521YKL  V0203201N00971006601MN0241401N1+00801+00301101111ADDAG11999GD13991+0066099GD24991+0138099GF108991999999999999999999MA1100911999999MW1001OC101441REMAWY008SC8SC2 ;
0039478370999991994031010004+30733+131000FM-12+001899999V0203101N009319999999N9999999N9+01001+00381101951ADDAG12999MA1999999101731MD1210241+9999
0051726559999991994031808004+44450-095817SAO  +0359MML  V0203101N005119999999N0160931N1+00221-00281999999ADDAG11999MA1100071999999MW1001REMAWY011CLR BLO 120
0067162530999991994113017004+41050+014067FM-15+0010LIRM V0209991C00001220001CN0028001N1+01001+00901999999ADDAG11999MA1102401999999MW1101REMMET027NEW WIND THR06 25001KT YLO;
0077403560999991994101322004+31683+038667FM-15+0813OETR V0201701N00621999991CY0099001N1+02101+00701999999ADDAG10999MA1101591091811REMMET008NEW CAVOEQDQ01+999990APOSP Q02+000000PRSWM2
0210330410999991994030306004+52450+031000FM-12+012799999V0200801N00401007501CN0080001N9-00861-01051102211ADDAA199002091AG10001AJ100079199999999AY171061AY271061GA1071+007509059GF107991071051008001999999IA1239KA1120N-00871MA1999999100561MD1710021+9999MW1711REMSYN032 333 21087 47007 87625 555 90014EQDQ01+999990APOSP 
0069946690999991994011523004-33183+138017FM-12+000399999V0202001N00931007501CN0040001N9+02301+01191999999ADDAA124999929AG10999AY161999AY221999GF108991081001008001021999MW1601
0123229540999991994063000004+60467+040200FM-12+017899999V0203601N00701003601CN0180001N1+01091+00971100661ADDAG12001AY181061AY221061GA1081+003609059GF108991081051004501999999MA1999999098261MD1710061+9999MW1021REMSYN011 333 88612;
0112066100999991994051400004+46817+006950FM-12+0491LSMP V0202301N00101027001CN0300001N1+01291+01141100841ADDAA106000091AG10000GA1081+027009039GF108991081001999999071999MA1999999095151MD1710021+9999REMSYN011 333 88359;
0100911975999991994010905004+19733-156050SAO  +0013KOA  V0203201N004110240019N0241401N1+02381+99999999999ADDAG11999GD12991+0090099GD23991+0240099GF107991999999999999999999MA1101421999999MW1001REMAWY004HAZY
0043994250999991994093021004+42483-079350FM-12+0183DBLN V0202501N008219999999N9999999N9+01561+99999101611ADDAG12000MD1610171+9999EQDQ01+000002VOVAR 
0083716310999991994050710004+43983-080750SAO  +0415WLS  V0209991C00001000151WN0032191N1+00201+00201999999ADDAG11999GD15991+0001599GF109991999999999999999999MW1001REMAWY017MMMM (0004,4000);
0144895320999991994080900004-69000+039583FM-12+002199999V0200301N011319999999N0070001N9-01961-02421097861ADDAG12001AY171061AY271061GF108991081001999999071999KA1120M-01961KA2120N-02691MA1999999097591MD1610261+9999MW1711REMSYN022 333 11196 21269 92963
0114039670999991994082403004+53300-006433FM-12+0093EIME V0202301N00671015001CN0300001N1+01161+01051100671ADDAG12000GA1021+006009059GA2031+015009059GF107991041051008001031999MD1810041+9999REMSYN023 333 82620 83650 85361;
0044999999999991994032116244-17883+072467FM-18+9999DRIB V02099999999999999999N9999999N9+99999+99999999999ADDAG10999MW1001SA1+2749REMSYN01156506     ?
0049711146999991994081621004+49033-119433SAO  +0283WYY  V0201501N002019999999N9999999N9+03001+00801101161ADDAG11000MD1710161+9999MW1001EQDQ01+000002VOVAR 
027272253012921199411300900C+29533-098467SAO  +0240SAT  V0200105N00215076205EN0160005N1+00835-00505102825ADDAA101000095AG10000GA1999+076205025GD14085+0750099GF108065999001999999001991MA1102881099975MD1510021+9999MW1001EQDQ01+999990APOSP N01 00000JPWTH 0QNNE71 0 00610G71 0 00250H71 0 37250K71 0 00023L71 0 01000M71 0 29520N71 0 00000Q71 0 10282S71 0 00047V71 0 01008X71 0 01004
0087724175999991994100423004+39300-080233SAO  +0367CKB  V0203501N004110600019N0241401N1+01161+00381999999ADDAG10999GD12991+0270099GD23991+0600099GF107991999999999999999999MA1102001999999MW1001
0090852230999991994070205004-17450-066100FM-15+2531SLCB V0209991C00001220001CN0050001N1+01101+00301999999ADDAG10999GA1021+006909099GA2021+060009999MA1102511999999REMMET005NEW ;EQDQ01+000000PRSWM2
0055999999999991994080316264+27533+049117FM-18+9999DRIB V02099999999999999999N9999999N9+02951+99999099511ADDAG10999MW1001REMSYN01123512     ?EQDQ01+000002VOVAR 
0067039230999991994120222004+54233-006500FM-12+016199999V0201601N012919999999N0050001N1+01111+00881100501ADDAG12999MD1710321+9999OA140102261REMSYN023 555 1//44 88/09 92152;
0099719150999991994070319324+64200-083367SAOSP+0064YZS  V0202201N00251006001EN0241401N1+99999+99999999999ADDAG10999GD13991+0060099GD23991+0240099GF107991999999999999999999MW1001REMAWY018SC8AC SHWRS NW-NE;
0095722116999991994021119004+27917-082683SAO  +0003PIE  V0201901N00971039001EN0112651N1+02661+02111999999ADDAG11999GD13991+0390099GD24991+0750099GF108991999999999999999999MA1101901999999MW1001OC101331
0036154940999991994113013004+43767+023950FM-12+004099999V0202701N00701036001CN0120001N1+00761+99999999999ADDAG12999GF105991051001999999071001
0095727976242171994081806004+48800-122533SAO  +0048BLI  V0209991C000012200019N0321871N1+01611+01271101811ADDAA106000091AG10000GF100991999999999999999999KA1999M+02381MA1101801999999MD1010001+9999MW1001
0010999999999991994111100004+55500+004700FM-13+9999XP33 V0200801N007219999999N0200001N1+00951+99999101531ADDAG12000
0127268630999991994040518004+53900+030317FM-12+019399999V0201801N00301030001CN0100001N9+00951+00531101481ADDAA106000091AG14000GF106991061001999999031001KA1120M+01591MA1999999099151MD1310081+9999REMSYN010 333 10159EQDQ01+999990APOSP 
0071725785241451994041215004+43517-112067SAO  +1445IDA  V0202101N002512200019N0804671N1+00661+00001102111ADDAG11000GF100991999999999999999999MA1102171999999MD1010001+9999MW1001
0050943790999991994043018004-21950+152467FM-12+000699999V0201201N009819999999N9999999N9+02331+99999101651ADDAA106000091AG10000MA1999999101561MD1710091+9999
0109084330999991994050415004+37783-000800SY-MT+0003LELC V0201001N00411220001CN0150001N1+02161+01211101651ADDAG10000GF104991001001999999001021MA1101591101621MD1810081+9999REMMET016NEW CAVOK NOSIG;EQDQ01+000000PRSWM2
0101723066137131994091412004+35333-077967SAO  +0033GSB  V0202301N003012200019N0096561N1+01881+01721102251ADDAA106000091AG10000GF100991999999999999999999MA1102241999999MD1210101+9999MW1451EQDQ01+000100PRSWM2
0077780730999991994061714004+25050-077467FM-15+0007MYNN V0201201N00511220001CN0112651N1+03001+02101999999ADDAG10999GA1021+005409099GA2021+006009089MA1101801999999MW1161REMMET005NEW ;
0072702120266331994071610154+61783-166033SAOSP+0146PACZ V0200301N004112200019N0160931N1+01161+00941999999ADDAG10999GD12991+0270099GF102991999999999999999999MA1100811999999MW1001
0125160880999991994022103004+45417+010283SY-MT+0092LIPL V0209991C00001220001CN0025001N1-00101-00121101481ADDAG11000AY121031AY211031GA1021+030009999GF102991021001999999031001MA1101391100251MD1810051+9999MW1101REMMET013NEW SCT YLO ?
0072714020999991994012413004+49683-054800SAO  +0092WDO  V0202501N012819999999N0144841N1-01401-01901101431ADDAG11999MA1999999100231MD1210271+9999MW1001OC101801EQDQ01+999990APOSP 
0087725810241931994020804004+40733-114033SAO  +1292ENV  V0201301N00201015001MN0160931N1+00381-00231999999ADDAG11999GD13991+0150099GD23991+0180099GF107991999999999999999999MA1099661999999MW1001
0144824000999991994020515004-03850-032417SY-MT+0056SBFN V0201601N00411220001CN0200001N1+03081+02841100821ADDAG11000GA1021+004809999GF102991999011022501001001MA1101021999999MD1999999-0181REMSYN010 333 59018MET003NEWEQDQ01+000032SCOTLCQ02+000000PRSWM2
0114564440999991994101700004+28500+098900FM-12+348899999V0209991C00001220001CN0300001N1+00391+00101999999ADDAA106000091AG10000GF103991031011012501001001IA2999+00009MA1999999068661MD1210141+0201REMSYN017 333 00201 30003;
0072747187031041994012822004+33633-116167SAO  -0036TRM  V0203301N004612200019N0402341N1+02111-00391101661ADDAG11999GF100991999999999999999999MA1101661999999MW1001REMAWY006FEW CU
0039477770999991994030521004+34233+135167FM-12+001899999V0200601N003619999999N9999999N9+00281-00291102711ADDAG12000MA1999999102491MD1210111+9999
0049714230999991994011207004+49083-061700SAO  +0004WHP  V02099999999999999999N9999999N9-00601-00901101491ADDAG11999MD1610051+9999MW1001EQDQ01+000002VOVAR 
0051723143999991994101812004+35233-079400SAO  +0141SOP  V0209991C000019999999N0160931N1+00331+00051999999ADDAG10000MA1102241999999MW1001REMAWY011CLR BLO 120
0077156550999991994102722304+42483+027483FM-15+0028LBBG V0202501N00301220001CN0050001N1+01101+01101999999ADDAG11999GA1021+030009999MA1102001999999REMMET008NEW NOSIEQDQ01+000000PRSWM2
0058941110999991994061802004-14233+129450FM-12+001899999V0201301N002619999999N9999999N9+02621+00461101481ADDAG10999MA1999999101231MD1710151+9999EQDQ01+000002VOVAR 
0101478360999991994012712004+30383+130667FM-12+0038RJFC V0202701N002119999999N9999999N9+00801+00221102101ADDAA106000091AG14000KA1120M+01401MA1102001101631MD1210071+9999REMSYN010 333 10140EQDQ01+999990APOA  
0086712650999991994122306024+43633-079400SAOSP+0077YTZ  V0209991C000019999999N0022531N1+00001+00001102101ADDAG10000MA1102071101141MW1001REMAWY011CLR BLO 100EQDQ01+999990APOSP Q02+999990APOSLP
0074874800999991994042817004-32917-060783FM-15+0025SAAR V0201401N00511030001CN0112651N1+01701+00501999999ADDAG10999GA1071+030009999MA1102301999999REMMET005NEW ;EQDQ01+000000PRSWM2
0073744600999991994092422084+41367-088683SAOSP+0225MMO  V0202101N002519999999N9999999N9+01771+01331999999ADDAG10999MA1101081999999MW1001REMAWY014PK WND 08 000;EQDQ01+000002VOVAR 
0171727796241371994082206004+48600-112367SAO  +1175CTB  V0202001N001512200019N0160931N1+02111+00161999999ADDAA106000091AG10000GD12991+0141099GD22991+0180099GD32991+0300099GF102991999999999999999999KA1999M+02881MA1100981999999MD1310191+9999MW1001REMAWY022WEA:RW- SLP055/319 84;
0087229960999991994020712004+60367+049650FM-12+015399999V0203401N00501030001CN0120001N9-02171-02491101071ADDAG12001AY171061AY231061GF107991071001999999011001MA1999999099011MD1810031+9999MW1711
0127577450999991994101300004+27450+109683FM-12+027399999V0209991C00001036001CN0070001N1+01801+01741101591ADDAA106000391AA224000391AG10002AY161061GF108991081001999999071999MA1999999098401MD1210111-0101MW1211REMSYN017 333 05102 70003;
0055130150999991994101321004+46067+014517FM-12+031699999V0209991C000012200019N9999999N9+00711+99999999999ADDAG12000GF101991999999999999999999EQDQ01+000002VOVAR 
0069999999999991994081002234+78233+022783FM-18+9999DRIB V0202701N004619999999N9999999N9+00151+99999099171ADDAG10999MD1210171+9999MW1001REMSYN01163006     ?EQDQ01+000002VOVAR 
006672614054742199401122000D+44417-072017SAO  +02171V4  V02099999999999999999N9999999N9-00621-01001999999ADDAA101000095AG11999MW1001REMAWY01133M/011 000EQDQ01+000002VOVAR 
0215085240999991994122912004+33067-016350SY-MT+0082LPPS V0202601N00311220001CN0150001N1+02041+01701102851ADDAA106000091AG10000GA1021+005409999GA2021+075009999GF105991031011004501001011MA1102811101881MD1210211+9999SA1+1929UA1M000009999REMSYN047 222// 00192 20000 300// 40000 333 83818 83075;MET005NEW ;EQDQ01+000000PRSWM2
0182727676240131994032702003+48267-101283SAO  +0523MOT  V0203105N00775007625EN0192005N1-00065-00565999999ADDAG11999GD13995+0075099GF106065999999999999999999MA1100881999999MW1001EQDN01 00000JPWTH 0QNNE21 0 00499G21 0 00025K21 0 00022L21 0 01200N21 0 00000S21 0 00031V21 0 00807X21 0 31015
0074600250999991994053120304+28050-016567FM-15+0072GCTS V0201301N00261008401CN0112651N1+02101+01701999999ADDAG10000GA1071+008409999MA1101801999999REMMET005NEW ;EQDQ01+000000PRSWM2
0080638200999991994070205004-04033+039617FM-15+0055HKMO V0201801N00931004801CN0112651N1+02201+02201999999ADDAG10999GA1071+004809089GA2081+024009999MA1101491999999MW1631REMMET008NEW NOSI
0186132720999991994121506004+44817+020283SY-MT+0099LYBE V0202801N004010120019N0150001N1+00001-00221102471ADDAA106000091AG11000GF107991071051012501001001IA1099IA2999-00209KA1120N-00081MA1102401101221MD1310111+9999REMSYN029 333 21008 31102 55018 87633;MET016NEW CAVOK NOSIG;EQDQ01+000000PRSWM2
0125724396939891994033000004+39950-091200SAO  +0234UIN  V0203301N004110180019N0160931N1+00551-00561102561ADDAA106000091AG10000GD12991+0144099GD24991+0180099GF108991999999999999999999KA1999M+00721MA1102511999999MD1210171+9999MW1001
0118606110999991994122421004+28050+009633SY-MT+0562DAUZ V0209991C00001220001CN0100001N1+01461-00241102051ADDAG10000GF104991031001999999031021MA1102101999999MD1110101+9999REMSYN011 333 83360;MET008NEW CAVOEQDQ01+000000PRSWM2
0069948890999991994020923004-36417+146300FM-12+015099999V0200901N00101036001CN0500001N9+02351+01841999999ADDAA106000091AG10999AY121999AY221999GF108991011031017501091999MW1141
0123999999999991994042512004+23700+036500FM-13+9999PGDE V0200201N009319999999N0200001N9+02621+01861100911ADDAG10000GF108991081001999999011999MD1810311+9999SA1+2609UA1M030159999UG1080203109REMSYN031 22235 00260 20303 331// 40804;
0092574260999991994120621004+30683+107800FM-12+045599999V0209991C00001000151CN0001001N1+00761+00761101791ADDAG10000GA1091+999999999GF109991091999999999999999MD1710101+0031MW1471REMSYN011 333 05353;
0098949830999991994032023004-40983+148333FM-12+001499999V0209991C00001220001CN0200001N9+01481+01391102791ADDAA106000091AG10999AY121999AY221999GF103991031021008001001001MA1999999102621MD1210151+9999MW1021
0122403610999991994101414154+29783+040100FM-15+0684OESK V0203001N00311220001CN9999999N9+03201+00101999999ADDAG10999GA1021+012009999GA2021+030009999MA1101391093431REMMET005NEW ;EQDQ01+999990APOSP Q02+000002VOVAR Q03+000000PRSWM2
0074011133999991994080207504+60417+008517FM-15+0798ENDI V0200601N00361003001CN0112651N1+01701+99999999999ADDAG10999GA1071+003009999MA1101691999999REMMET005NEW ;EQDQ01+000000PRSWM2
039072532014842199404131800C+40667-089683SY-SA+0199PIA  V0202705N00725004275MN0112005N9+00835+00615100645ADDAA101000095AA206999929AA324002891AC10C9AG10002AY181061AY221061GA1999+004275065GD14085+0042099GF108085081051004501999999KA1120M+00891KA2240N+00561MA1100611098225MD1210101+9999MW1021REMSYN039 333 10089 20056 70028 90943 555 91318;EQDQ01+000003PRSWM2N01 00000JPWTH 0QNNE71 0 00610G71 0 00014H71 0 15014K71 0 00043L71 0 00700M71 0 29005N71 0 00000Q71 0 10064S71 0 00047V71 0 01010X71 0 27014
054372532014842199405250600C+40667-089683SY-SA+0199PIA  V0202605N002150365859N0112005N1+01725+01615100795ADDAA101000395AA206002091AA324010991AC11I9AG10002AY181061AY221061GA1999+019815035GA2999+025915035GA3999+036585035GD12025+0180099GD22025+0240099GD34045+0360099GF108085081999017501071999KA1240M+02891KA2240N+01441MA1100851098445MD1810031+9999MW1251REMSYN039 333 10289 20144 70109 90915 555 92506;AWY025RB0457E15/ 80306 107/ 84;EQDQ01+000002SCOLCGQ02+000003PRSWM2N01 00000JPWTH 0QNNE71 0 00203E71 0 00202E71 0 00605G71 0 00120H71 0 23065H71 0 23085H71 0 23120K71 0 00061L71 0 00700M71 0 29070N71 0 00000Q71 0 10079S71 0 00063V71 0 01010X71 0 26004
0194711350999991994080712004+49167-105983SY-SA+0917WKO  V0203601N004610024019N0140001N1+01251+01201101711ADDAA106000091AA224003091AG14000GA1081+002409999GD12991+0009099GF199999081999000751999999KA1240M+03221KA2120N+01201MA1999999091211MD1210141+9999REMSYN023 333 10322 20120 70034;AWY012(0819,2700);
0099083970999991994041507004+37150-005617FM-15+0088LEMO V0200501N00101024001CN0025001N1+01201+01101100971ADDAG10999GA1081+024009999MA1100911099921MW1101REMMET008NEW NOSIEQDQ01+999990APOSP Q02+999990APOSLP
0142873110999991994122318004-31567-068417SY-MT+0598SANU V0209991C00001220001CN0200001N1+03761+01441100091ADDAA106000091AG10000GA1021+015009089GF103991021021017501001051MA1100611093671MD1710311+9999REMSYN011 333 82850;MET005NEW ;EQDQ01+000000PRSWM2
0321722085938311994050922003+32483-080717SAO  +0010NBC  V0201205N004152200019N0112005N1+02505+01285101451ADDAG10999GD12991+0090099GD23991+0750093GF106995999999999999999999MA1101461101325MW1001EQDN01 00205KCLC1 3N02 00308KCLC2 3N03 99999CCLHTU3N04 29960EALTP 3N05 00000JPWTH 0N06 10145ISLVP 3QNNE41 3 00205E41 3 00308G41U3 99999K41 0 00055L41 0 00700C41 3 29960M41D0 29920N41 0 00000Q41 3 10145S41 0 00077V41 0 00899X41 0 12008
0181040820999991994032118004+64250-015183FM-12+0010BIHN V0201301N01591003001CN0050001N9+00481+00381097182ADDAA109027091AG10001AY161061AY221061GA1071+003009079GF108991071061004501021999KA1999M+00521KA2999N+00001MD1711221+9999MW1651REMSYN028 333 10052 20000 60278 87710EQDQ01+097183APOSLP
0065726404999991994102917004+45933-089733SAO  +0496ARV  V0202901N008712200019N0241401N1+01111-00231999999ADDAG11999GF100991999999999999999999MA1101151999999MW1001OC101131
0139724885931021994040922154+39417-118700SAOSP+1199NFL  V0203601N00461015001EN0321871N1+99999+99999999999ADDAG11999GD13991+0150099GD23991+0450099GD33991+0750099GF107991999999999999999999MA1101191999999MW1001REMAWY028CB NW STNRY RWU ALQDS T2 SET
0064714620999991994050200004+45633-082967SY-SA+0183WNL  V0203101N006219999999N0100001N9+00431+99999101771ADDAA106000091AG14000MA1999999099511MD1210131+9999REMSYN005 333;
0093161790999991994051908004+43517+012733FM-15+0574LIVF V0202001N00511007501CN0112651N1+01301+00901999999ADDAG12999GA1071+007509089REMMET039NEW BKN MON S ET W CIME INC NC VAL NIL;EQDQ01+000000PRSWM2
0092032460999991994101421004+54983-001600FM-12+004799999V0209991C00001220001CN0060001N1+01101+00831102131ADDAG12000GA1011+045009039GF103991011001999999031021MD1610031+9999REMSYN017 333 81365 83075;
0074412440999991994072209004+24233+055783FM-12+0299OOBR V0200301N002619999999N9999999N9+03881+01571999999ADDAA106000091AG10000MD1999999+0151REMSYN011 333 58015;EQDQ01+000002VOVAR 
0077999999999991994081214204+61317-029867FM-18+9999DRIB V02099999999999999999N9999999N9+01031+99999102171ADDAG10999MD1010061+9999MW1001SA1+1019REMSYN01144770     ?EQDQ01+000002VOVAR 
0215260380999991994040206004+59350+024800FM-12+0044ULTT V0201501N00601001201CN0040001N9+00531+00461099781ADDAA199003091AG10001AY181061AY261061GA1071+001209079GF108991999071001501021999IA1099IA2999+00409KA1120N+00361MA1999999099371MD1310081+9999MW1611REMSYN026 333 20036 87704 555 31004EQDQ01+000082SCOTLCQ02+999990APOSP 
0084313690999991994011006004+53150+140700FM-12+006899999V0202701N00201030001CN0040001N9-02761-02991102971ADDAG12000GF108991081001999999021999MA1999999102011MD1710011+9999EQDQ01+999990APOSP 
0092723830231871994112517084+34750-118733SAOSP+1379SDB  V0202001N005619999999N9999999N9+00721-00451999999ADDAG10999MA1098711999999MW1001REMAWY033BVM 45/24/2011/915 PK WND 13 000;EQDQ01+000002VOVAR 
0120060600999991994031516504+56283+009133FM-15+0052EKKA V0202701N00621060001CN0112651N1+00501+00001100171ADDAG11999GA1021+007509999GA2071+060009999MA1100101099521REMMET003NEWEQDQ01+999990APOSP Q02+999990APOSLPQ03+000000PRSWM2
0074479420999991994062721004+27433+128700FM-12+0029RJKB V0202601N001519999999N9999999N9+02601+02511101321ADDAG10000MA1101251100981MD1210081+9999EQDQ01+999990APOA  Q02+000002VOVAR 
0109167540999991994032222204+35333+025183FM-15+0039LGIR V0201701N00261220001CN0090001N1+01101+00901102171ADDAG11999GA1021+003609999MA1102101101681REMMET008NEW NOSIEQDQ01+999990APOSP Q02+999990APOSLPQ03+000000PRSWM2
0072787920999991994012707004+09050-079367FM-15+0011MPTO V0209991C00001220001CN0112651N1+02201+02101999999ADDAG11999GA1021+005409999MA1101081999999REMMET003NEWEQDQ01+000000PRSWM2
0099165420999991994061308004+39500+009617FM-15+0022LIEL V0200701N00261220001CN0112651N1+01901+01301999999ADDAG10999GA1021+007509089GA2021+027009999REMMET029NEW BKN MON LIB VIS MAR 20KM;EQDQ01+000000PRSWM2
0108585620999991994082006004+29917+121467FM-12+000699999V0200401N00601036001CN0150001N1+02871+02351100921ADDAA106999929AG10002AY181061GF108991031041008001011999KA1999N+02541MD1710131+9999MW1001REMSYN011 333 20254;
0065383880999991994111512004+41033+057767FM-12+006299999V0202601N00401007501CN0200001N1+00561+00221102301ADDAG12000GF108991081091008001999999MA1999999101521MD1210081+9999
0127203530999991994011112004+76950+068583FM-12+000899999V0201401N01101024001CN0220001N9-02891-03231101401ADDAG11000AY131061AY221061GF107991071001999999051999MA1999999101271MD1210161+9999MW1371OA149901401REMSYN020 333 91114 555 1/130
0070160990999991994020703504+45650+012183FM-15+0023LIPH V0203001N00151999991CY0099001N1+00601+00501999999ADDAG11999MA1100811999999REMMET017NEW CAVOK Q1008.6EQDQ01+000000PRSWM2
0234724855231531994120209003+38067-117083SAO  +1655TPH  V0203505N004152200059N0400005N1-00445-00565101485ADDAG10000GD12995+0300099GF101015999999999999999999MA1101491083095MD1810081+9999MW1001EQDQ01+100713APOSLPN01 00000JPWTH 0QNNE11 0 00299G11U0 99999K11 0 00022L11 0 02500M11 0 24535N11 0 00000Q11 0 10148S11 0 00024V11 0 00101X11 0 35008
0047838130999991994050718004-24783-050000FM-12+100999999V0202701N00101220001CN0100001N1+99999+99999999999ADDAA106000091AG10000GF105991021091008001001011
0072700638999991994050616154+70500-149900SAOSP+0005POLI V0200601N00611002401MN0080471N1-00391-00451999999ADDAG10999GD14991+0024099GF108991999999999999999999MA1100811999999MW1001
0155150200999991994120919004+47683+026667FM-12+016299999V0201401N00301004201CN0035001N1+00021+00021102381ADDAA106000091AG10999AY141011AY241011GF108991081061004501999999IA1149IA2999+00009KA1120M+00041MA1999999100351MD1710051+9999MW1101REMSYN017 333 10004 34000;
0232063800999991994123114004+50917+005783SY-MT+0116EHBK V0202301N00571004501CN0130001N1+00501+00401099271ADDAG12999AY181021AY261021GA1021+002709999GA2021+003609999GA3071+004509999GF108991081051002501999999MA1099191999999MD1710291+9999MW1601MW2611OA149901291REMSYN045 333 82709 84612 87615 91125 555 510/8 53008;MET020NEW TEMPO 6000 BKN01
0139716230999991994092710004+43033-081150SAO  +0278YXU  V0200701N00201015001EN0048281N1+01101+01001100591ADDAG11999GD13991+0150099GD23991+0450099GF107991999999999999999999MA1100581097301MW1451REMAWY008SC8AC1 ;EQDQ01+999990APOSP Q02+000100PRSWM2
0125702590265231994111000004+60567-151250SAO  +0029ENA  V0200201N006610072019N0016091N1-00501-00621999999ADDAG11000GD16991+0001599GD24991+0072099GF108991999999999999999999MA1100311999999MW1451MW2711REMAWY004SF7;EQDQ01+000100PRSWM3
0097722903999991994031600004+32817-117133SAO  +0129MYF  V0202601N003012200019N0482801N1+02381+00721999999ADDAA106014091AG13000GD13991+0750093GF107991999999999999999999MA1101491999999MW1001REMAWY00547754
0144076750999991994102618004+43383+006383FM-12+0078LFMC V0202801N00311220001CN0500001N1+01421+00701101401ADDAA106000091AG10000GA1001+999999999GF100991001001999999001001KA1999M+01981KA2999N+01151MA1999999100421MD1310131+9999REMSYN017 333 10198 20115;
0063999999999991994120310104-29083-095600FM-18+9999DRIB V02099999999999999999N9999999N9+99999+99999102401ADDAG10999MW1001SA1+2059REMSYN01132813     ?EQDQ01+000002VOVAR 
0101535640999991994010901004+39383+111150FM-12+086199999V0209991C000019999999N0070001N9+99999+99999102441ADDAA106000091AG10999GF106991011999999999071021MA1999999091701MD1210201+0201MW1041REMSYN010 333 002/2
036272658014922199412281800C+44883-093217SY-SA+0254MSP  V0203405N004652200059N0240005N1+00005-00565102785ADDAA101000095AA206000091AG14000AJ100019199999999GA1999+005495065GD12045+0054099GF104035999051004501001991KA1120M+00171KA2240N-00171MA1102681099615MD1210191+9999REMSYN033 333 10017 21017 4/001 555 92818;EQDQ01+000022SCOTLCN01 00000JPWTH 0QNNE71 0 00205G71U0 99999H71 0 15018K71 0 00022L71 0 01500M71 0 29415N71 0 00000Q71 0 10278S71 0 00032V71 0 00504X71 0 34009
0074851230999991994070613004-13717-065583FM-15+0144SLSA V0201701N00211060001CN0112651N1+01901+01601999999ADDAG10999GA1071+060009999MA1101491999999REMMET005NEW ;EQDQ01+000000PRSWM2
0092443130999991994122921004+47617+118617FM-12+068899999V0209991C00001220001CN0500001N1-02901-03131104201ADDAA106000091AG14000GA1001+999999999GF100991001001999999001001MA1999999094711MD1410001+9999
0036153140999991994090916004+00000+999999FM-12+028799999V0202701N00501220001CN0200001N1+02851+99999999999ADDAG10999GF101991011001999999031001
0050580150999991994080709004+34417+116333FM-12+004499999V0202701N001019999999N0200001N1+02611+02471100501ADDAG10000GF107991999999008001999999MD1710061+9999
0113702740999991994032715004+61600-149083SAO  +0071PAQ  V0200101N00201030001EN0241401N1-00621-00841102241ADDAG11000GD13991+0300099GD24991+0540099GF108991999999999999999999MA1102201999999MD1210071+9999MW1001REMAWY003207
0058476170999991994110320004+36150+137250FM-12+056199999V0201001N001519999999N9999999N9+00351+00261102821ADDAG10999MA1999999095991MD1210121+9999EQDQ01+000002VOVAR 
0134033770999991994112723004+53167-000517SY-MT+0070EGXW V0203201N00311220001CN0120001N1+00771+00691103441ADDAG11999GA1021+010509999GF102991021051012501001001MA1103391999999MD1210161+9999REMSYN011 333 82635;MET008NEW BLU;EQDQ01+000000PRSWM2
032272557014943199403041800C+42400-096383SY-SA+0334SUX  V0203105N003152200059N0240005N9+00945+00335101755ADDAA101000095AA206000091AG14000GA1999+076205005GD11045+0750093GF104005999001999999001991KA1120M+00941KA2240N+00171MA1101691097705MD1110031+9999REMSYN026 333 10094 20017 555 90418EQDN01 00000JPWTH 0QNNE71 0 00105G71U0 99999H71 0 32250K71 0 00038L71 0 01500M71 0 28850N71 0 00000Q71 0 10175S71 0 00049V71 0 00500X71 0 31006
0049711510999991994040223004+46900-071500SAO  +0168WQG  V0201301N000519999999N9999999N9-00101-00901102081ADDAG11999MD1610251+9999MW1001EQDQ01+000002VOVAR 
0105039670999991994090503004+53300-006433FM-12+0093EIME V0202401N00571018001CN0250001N1+00901+00821101671ADDAG12000GA1051+018009059GF105991051051017501999001MD1210071+9999REMSYN011 333 85656;EQDQ01    003SCOMCG
0046636870999991994092605004+00283+034783FM-15+1530HKKG V0200901N00151999991CY0099001N1+01701+01201999999ADDAG10999REMMET008NEW CAVOEQDQ01+000000PRSWM2
0089943370999991994062702004-20650+141733FM-12+012499999V0201401N00261220001CN0500001N1+01901-00011101961ADDAG10999AY101999AY201999GA1001+999999999GF100991001001999999001001MA1999999100501MW1021
0044035200999991994102102004+52250-002883FM-12+009999999V0200801N003619999999N0050001N1+01171+00991099831ADDAG12999MD1710101+9999REMSYN011 555 90151;
0065623330999991994062912004+31267+032300FM-16+0006HEPS V0203401N00411999991CY0099001N1+99999+99999999999ADDAG10000REMMET027NEW CAVOK 30X16 Q 1008 NS ;EQDQ01+000000PRSWM2
0097475730433181994051823104+37950+139117FM-16+0004RJSN V0202501N01031220001CN0112651N1+01501+00701999999ADDAG10999GA1021+009009999MA1101191999999OC101541REMMET020NEW (SCT030CU A2991)EQDQ01+000000PRSWM2
0051723449999991994041700004+36367-094100SAO  +0415ROG  V0202701N003019999999N0160931N1+01881+00221999999ADDAG11000MA1102511999999MW1001REMAWY011CLR BLO 120
0050351570999991994062709004+51083+062700FM-12+023099999V0202701N00401075001CN0500001N1+02901+01271100891ADDAG12000GF108991001001999999001021MD1210051+9999
0110116360999991994092809004+49183+015467FM-12+056999999V0202901N00201220001CN0150001N1+01611+01001999999ADDAG12000GA1011+006909089GF102991011011008001031001MA1999999095471MD1210111+9999ME1208429REMSYN011 333 81823;
0111723495139871994011617004+37150-094500SAO  +0299JLN  V0201901N00411003301MN0096561N1-00121-00281101781ADDAG11999GD14991+0033099GF108991999999999999999999MA1101661999999MW1451MW2661REMAWY005ZRB09EQDQ01+000100PRSWM3
0052150950999991994070507004+46983+022633FM-12+031799999V0209991C00001220001CN0200001N1+02261+99999999999ADDAG12999GA1001+999999999GF100991001001999999001001
0051723069999991994100823004+34833-077617SAO  +0029OAJ  V0201301N001519999999N0160931N1+01771+01441999999ADDAG10999MA1102101999999MW1001REMAWY011CLR BLO 120
0029994180999991994072608004+48317-122833FM-12+0015SISW V0202401N004619999999N9999999N9+01211+99999102131ADDAG12999EQDQ01+000002VOVAR 
0074160080999991994020821004+46750+010533FM-12+146199999V0209991C00001220001CN0120001N9-00101-00411999999ADDAG12000GF103991031051012501001001MA1999999085261MD1210171+9999ME1314859
0152851510999991994102815004-14733-068417FM-12+1415SLAP V0201401N00211010801CN0500001N1+02351+01801999999ADDAA106000091AG10000GA1051+010809059GA2031+012009089GF107991061081012501001041MA1999999085701MD1999999-0181REMSYN035 333 56300 59018 85636 83840 87070;
0043912220999991994101812004+18900+145600FM-12+000299999V0200401N004619999999N9999999N9+02791+99999100881ADDAG10000MD1810031+9999EQDQ01+000002VOVAR 
0225467630999991994060515004+24033+121617SY-MT+0016RCYU V0202501N00101018001CN0110001N1+02501+02261101001ADDAA106000091AG10000GA1021+003609999GA2071+018009999GF199999051051004501001001MA1101021100831MD1110061+9999REMSYN036 555 82712 85656 00000 QNH 2981 INS;MET031NEW A2981 NOSIG QFF 1010.0 HPA;EQDQ01+000052SCOTCVQ02+000000PRSWM2
0077622710999991994082815004+24217+023300FM-12+0435HLKF V0203601N00361220001CN0200001N1+03831+00091999999ADDAA106000091AG10000GA1001+999999999GF100991001001999999001001MD1810151+9999
0061037243999991994101719504+51383-002717FM-15+0189EGGD V0201001N00571999991CY0099001N1+00601+00301999999ADDAG11999MA1102301999999REMMET008NEW CAVOEQDQ01+000000PRSWM2
0139488770999991994071300004+12250+109200FM-12+0010VVNT V0209991C00001012001CN0200001N1+02581+02421100531ADDAA199000191AG10000GF107991071081008001999999IA1019IA2999+02509KA1120N+02521MA1999999100471MD1999999+0051REMSYN023 333 20252 30025 58005;
0098644590999991994072512004+01617+018067FM-12+0326FCOI V0209991C00001006001CN0200001N1+02681+02241101301ADDAG10000GA1051+006009089GF108991051021008001071999MD1999999+0061REMSYN023 333 58006 85820 88462;
0087745160232021994022716004+38267-121933SAO  +0019SUU  V0202701N002010210019N0241401N1+01221+01051102021ADDAG11999GD12991+0030099GD24991+0210099GF108991999999999999999999MA1102031999999MW1001
0080719010999991994052313004+55333-063217SAO  +0479WTB  V0203201N009219999999N9999999N9-00601-01101101131ADDAG11999MA1999999095141MD1210061+9999MW1001EQDQ01+999990APOSP Q02+000002VOVAR 
041472518014735199401221200C+42750-073800SY-SA+0084ALB  V0201605N003650109759N0192005N9-01225-01675101905ADDAA101000095AA206000091AG14000AJ100339199999999GA1999+008235065GA2999+010975065GD12015+0081099GD24075+0108099GF108085081051008001999999KA1240M-01171KA2120N-01441MA1101831100765MD1610031+9999REMSYN032 333 11117 21144 4/033 555 92212AWY010RADAT ZEROEQDN01 00000JPWTH 0QNNE71 0 00201E71 0 00609G71 0 00036H71 0 15027H71 0 15036K71 0 00002L71 0 01200M71 0 29755N71 0 00000Q71 0 10190S71 0 00010V71 0 01010X71 0 16007
0010992200999991994040613004+40800-137600FM-18+0003DB22 V02099999999999999999N9999999N9+01061+99999999999ADDAG12999
0180081810999991994061306004+41283+002067SY-MT+0006LEBL V0203201N00411220001CN0240001N1+01401+00931102101ADDAA106000091AG10000GA1021+007809999GF199999011051008001001001KA1120N+01351MA1102001102021MD1310021+9999REMSYN017 333 20135 55082;MET008NEW NOSIEQDQ01+000012SCOTCVQ02+000000PRSWM2
021672533014827199409121000C+41000-085200SAO  +0241FWA  V0209995C000052200059N0160005N1+01225+01065102565ADDAA101000095AG11999GF100005999999999999999999MA1102571099565MW1001EQDQ01+999990APOSP N01 00000JPWTH 0QNNE71 0 00099G71U0 99999K71 0 00051L71 0 01000M71 0 29400N71 0 00000Q71 0 10256S71 0 00054V71 0 00000X71 0 00000
0068715100999991994090200004+51567-107917SAO  +0586WRJ  V0201401N005619999999N9999999N9+01801-00101102421ADDAA106000091AG10000MD1710121+9999MW1001OC100821EQDQ01+000002VOVAR 
0125170670999991994110212004+40717+029817FM-12+001899999V0203301N00571060001CN0040001N1+01921+01441102041ADDAA106000091AG14000AY111061AY211061GA1071+060009029GF107991001001999999001081MD1810061+9999MW1101REMSYN017 333 87270 92436;
0113725287047241994022604004+43100-078950SAO  +0180IAG  V0200701N006610150019N0044261N1-00841-00951101081ADDAG11999GD12991+0090099GD24991+0150099GF108991999999999999999999MA1100981999999MW1711REMAWY017DRFTG SNW LSRIR11
0073724870999991994082803084+37617-114517SAOSP+1335P38  V0203201N001019999999N9999999N9+02441+00331999999ADDAG10000MA1101861999999MW1001REMAWY014PK WND 05 000;EQDQ01+000002VOVAR 
0159718770999991994100812004+51117-114017SY-SA+1084YYC  V0202101N001512200019N0240001N1+00061-00491102431ADDAA106000091AA224000091AG14000GF100991001001999999001001GJ105349KA1240M+01311KA2120N-00171MA1102131089691MD1610041+9999REMSYN029 333 10131 21017 55089 70000;
0100945490999991994080411004-26550+151833FM-12+043199999V0200501N00261220001CN0500001N1+00621-00171102071ADDAA106000091AG10999AY101999AY201999GA1001+999999999GF100991001001999999001001MA1999999096971MW1021
0116106070999991994051305004+49983+006700FM-15+0365EDAD V0200901N002610330019N0080001N1+00801+00801999999ADDAG10999GA1021+015009999GA2021+024009999GA3071+033009999MA1101251999999MW1101REMMET028NEW CIGM110 FG BNK SE-E BLU;
0094727459999991994020620004+47817-091833SAO  +0443ELO  V0203201N00361007501MN0160931N1-02231-03121999999ADDAG11999GD13991+0075099GF107991999999999999999999MA1101661999999MW1001OC100871REMAWY005NOSPL
0081587150999991994060400004+27583+116650FM-12+008299999V0201801N00401220001CN0250001N1+02451+01681100831ADDAA106000091AG10000GF101991001001999999001021MD1210101+0001REMSYN011 333 00000;
0094031540999991994081615004+55050-003650FM-12+001699999V0201701N00311007501CN0160001N1+01401+01331999999ADDAG12001AY161031AY251031GA1081+007509059GF108991081051008001999999MW1631REMSYN011 333 88625;
0093076670999991994080610004+43100+006150FM-15+0004LFTH V0201301N00311999991CY0099001N1+02901+02301101761ADDAG10999MA1101691101711REMMET008NEW CAVOEQDQ01+999990APOSP Q02+999990APOSLPQ03+000000PRSWM2
0119716240999991994010204004+43667-079633SAO  +0173YYZ  V0202501N00411004501MN0160931N1+00201+00101100861ADDAG12999GD14991+0045099GF108991999999999999999999MA1100781098731MW1611REMAWY019SC10 TREND NOSIG. ?EQDQ01+999990APOSP 
0079161480999991994122922004+44217+012300FM-15+0010LIPC V0202801N00211018001CN0013001N1+00701+00601999999ADDAG11999GA1021+000609999GA2071+018009999MA1101801999999MW1101REMMET007NEW OVC
0150235410999991994120706004+64750+070967FM-12+006399999V0202101N00101220001CN0100001N1-03121-03421102161ADDAA199999929AG10000GA1001+999999999GF100991001001999999001001KA1120N-03581MA1999999101271MD1210021+9999REMSYN017 333 21358 93509;EQDQ01+999990APOSP 
0010992610999991994032110004+19200-160800FM-18+0003DB26 V0200701N009019999999N9999999N9+02381+99999101561ADDAG12999
0077971800999991994121523004-05067+119550FM-15+0014WAAA V0201101N00101220001CN0090001N1+02501+02401999999ADDAG10999GA1021+006009099MA1100911999999REMMET008NEW NSG;EQDQ01+000000PRSWM2
0065718480999991994082319004+53833-089867SAO  +0224YTL  V0201901N003019999999N0144841N1+02201+01601100721ADDAG11999MA1100681999999MD1710121+9999MW1001REMAWY011CLR BLO 100
0093160990999991994012016504+45650+012183FM-15+0023LIPH V0200301N00211024001CN0050001N1+00601-00101999999ADDAG11999GA1021+006009999GA2071+024009999MA1101591999999REMMET008NEW Q101EQDQ01+000000PRSWM2
0044999999999991994041408534-47083-001067FM-18+9999DRIB V02099999999999999999N9999999N9+00681+99999102781ADDAG10999MW1001SA1+0719REMSYN01117821     ?
0102714360999991994073117004+44383-079783SAO  +0295WCU  V0202301N001512200019N0144841N1+02501+01601102181ADDAG11999GD12991+0240099GF102991999999999999999999MD1710061+9999MW1001REMAWY022MMMM 7006 (8004,0000);
0076164590999991994061109004+37400+014917FM-15+0022LICZ V0203001N00361220001CN0112651N1+02401+00901999999ADDAG10000GA1021+009009999MA1101391999999REMMET007NEW SCTEQDQ01+000000PRSWM2
0061024180999991994071822504+59367+013467FM-15+0055ESSQ V0202101N00051999991CY0099001N1+01301+01201999999ADDAG11999MA1102001999999REMMET008NEW CAVOEQDQ01+000000PRSWM2
0066570340999991994121221004+34533+108233FM-12+033599999V0203401N00201220001CN0100001N1-00231-00261103101ADDAG10000GA1001+999999999GF100991001001999999001001MD1710281+9999
0090835870999991994112314004-19833-043933FM-15+0917SBCF V0201501N00771006001CN0112651N1+02101+01701999999ADDAG10999GA1071+006009999GA2081+030009999MA1102101999999REMMET005NEW ;EQDQ01+000000PRSWM2
0076514310999991994121400004+43950+081333FM-12+0663ZWYN V0200901N002019999999N0300001N1-01181-01411102591ADDAA106000091AG14000GF107991001001999999999999MA1999999094211MD1710181+9999
0096579720999991994062500004+25800+113033FM-12+018599999V0201801N00301220001CN0160001N1+02921+02301100301ADDAA106000091AG10000GF101991011001999999041001MA1999999098251MD1210031+0041REMSYN011 333 05401;
0057724520039571994032210004+37300-098583SAO  +0468P28  V0201601N004619999999N9999999N9+00881-00341999999ADDAG11999MW1001REMAWY013PK WND 11 000EQDQ01+000002VOVAR 
0074917570999991994072612004-13450-172350FM-12+999999999V0201301N006019999999N9999999N9+02681+99999100991ADDAA106000091AG10000MD1710071+9999REMSYN011 333 91215;EQDQ01+000002VOVAR 
0080714380999991994111313004+45033-080367SAO  +0191WMZ  V0201401N006619999999N9999999N9+00901+00701102111ADDAG11999MA1999999099791MD1110061+9999MW1001EQDQ01+999990APOSP Q02+000002VOVAR 
0132560670999991994022800004+33467+101483FM-12+335099999V0209991C00001036001CN0100001N9-01011-01241999999ADDAA106000191AA224001091AG10001AY171061GF108991081001999999021999MA1999999064941MD1210021-0101MW1701REMSYN022 333 05105 70009 92505
0232467400999991994040909004+22583+120350SY-MT+0009RCKH V0202901N00411024001CN0070001N1+02771+02131101051ADDAA106000091AG10000AY121031AY221031GA1021+004509999GA2021+009009999GA3071+024009999GF199999031051004501031001MA1101021100921MD1610071+9999MW1051REMSYN028 555 82615 83630 86358 00998MET008NEW NOSIEQDQ01+000062SCOTCVQ02+000000PRSWM2
028272524014820199405111500E+41417-081867SAO  +0235CLE  V0202205N007750762059N016000599+01785+00175101735ADDAA101000095GA1999+039625035GA2999+076205025GD12025+9999999GD24065+9999999GF108075999999999999999999MA1999999098805EQDN01 00000JPWTH 0QNNE71 0 00203E71 0 00607G71 0 00250H71 0 23130H71 0 37250K71 0 00035L71 0 01000M71 0 29175N71 0 00000Q71 0 10173S71 0 00064V71 0 01009X71 0 22015
0036999999999991994060515004+46300-062200FM-13+9999XLW3 V0201401N002612200019N0200001N1+01201+99999102601ADDAG12000GF104991999999999999999999
028270326025503199412090900E+58683-156650SAO  +0015AKN  V0201405N003150076259N024000599+00065-00065100875ADDAA101000095GA1999+007625065GA2999+018295055GD13055+9999999GD24035+9999999GF108085999999999999999999MA1999999100685EQDN01 00000JPWTH 0QNNE71 0 00406E71 0 00604G71 0 00025H71 0 15025H71 0 22060K71 0 00031L71 0 01500M71 0 29730N71 0 00000Q71 0 10087S71 0 00033V71 0 01010X71 0 14006
0074477660999991994112714004+34233+132550FM-12+001299999V0200301N003619999999N9999999N9+00821+00141102151ADDAG10999MA1102031102001MD1810031+9999EQDQ01+999990APOA  Q02+000002VOVAR 
0154804340999991994062821004+09217-066017SY-MT+0125SVVP V0200701N00601007501CN0200001N1+02691+02431101191ADDAG10000GA1071+007509999GF108991081071002501999999IA1019MD1999999+0141REMSYN040 333 30/// 5699/ 58014 85716 86620 1006;MET008NEW 1010EQDQ01+000003PRSWM1
0116718454999991994081900524+51450-090200SAOSP+0386YPL  V0200201N001510270019N0241401N1+99999+99999999999ADDAG10000GD12991+0120099GD22991+0180099GD34991+0270099GF108991999051999999011999MW1001REMAWY020CU2SC3AS5 AC ASOCTD;
0099999999999991994090912004+12400+111400FM-13+9999ELFU V0202201N006210150019N0200001N1+02801+02501100741ADDAG10000GF107991061001017501031999MD1410001+9999SA1+2809UA1M029999999REMSYN019 22255 00280 20201;
0102163600999991994040811004+39817+018350FM-15+0112LIBY V0202201N00621027001CN0112651N1+01301+01201999999ADDAG11999GA1021+006009999GA2081+027009999REMMET032NEW OVC QUK5 QUL4 SW VIS MAR 10KEQDQ01+000000PRSWM2
0078896420999991994061915004-66667+140017FM-12+004399999V0201801N012919999999N9999999N9-01471-02501100381ADDAG10000MA1999999099811MD1210131+9999REMSYN011 333 01672;EQDQ01+000002VOVAR 
0036151970999991994072613004+46250+027667FM-12+017399999V0203401N00201220001CN0150001N1+02981+99999999999ADDAG12999GF104991041021008001001001
0074014280999991994042605504+58100+006633FM-15+0010ENLI V0201301N00621220001CN0112651N1+00701+00501999999ADDAG11000GA1021+009009999MA1101081999999REMMET005NEW ;EQDQ01+000000PRSWM2
0086725127047261994072611004+40317-078833SAO  +0696JST  V0202201N00301009001EN0112651N1+01771+01611999999ADDAG11999GD14991+0090099GF108991999999999999999999MA1101151999999MW1001REMAWY005HAZY;
0050297120999991994092703004+54700+078667FM-12+011299999V0202301N00701030001CN0200001N1+01181+00651100661ADDAG12000GF108991081001999999071999MD1610041+9999
0087725450149901994022719004+41883-091700SAO  +0265CID  V0201501N00511018001MN0193121N1-00731-01341103251ADDAG11999GD13991+0180099GD24991+0750099GF108991999999999999999999MA1103051999999MW1001
0134960350999991994042616004+03567+098683FM-12+0025WIMM V0201201N00261004201CN0050001N9+02701+02511100811ADDAA106000091AA224999929AG10999AY191011AY221011GA1011+005409099GF108991051091004501071061MW1171REMSYN029 333 56000 79999 81918 84618;
0092718735999991994050219004+52067-111467SAO  +0791WCT  V0203101N002512200019N0144841N1+00601+00601100891ADDAG11999GD12991+0078099GF102991999999999999999999MD1710051+9999MW1001REMAWY012(2601,0000);
0058475840999991994102016004+39700+141167FM-12+015799999V0201501N001019999999N9999999N9+00371+00101102401ADDAG10999MA1999999100451MD1210161+9999EQDQ01+000002VOVAR 
0123599810999991994070306004+16833+112333FM-12+000599999V0203401N00201004201CN0150001N1+02451+02251100411ADDAA106018091AG10003AY181061GF108991081091004501999999KA1999N+02421MA1999999100351MD1710121+9999MW1801REMSYN011 333 20242;
0123719380999991994042914004+67817-115150SAO  +0022YCO  V0203001N001012200019N0241401N1-01201-01301101671ADDAG11999GD12991+0105093GD22991+0210093GF102991999999999999999999MA1101661101391MW1001REMAWY008SC2AC1 ;EQDQ01+999990APOSP 
0092163120999991994022409004+40767+016933FM-15+0350LIBV V0201701N00871021001CN0060001N1+01001+00901999999ADDAG11000GA1021+001209999GA2071+021009999MA1100911999999REMMET007NEW BKNEQDQ01+000000PRSWM2
0050028480999991994073003004+66817+028667FM-12+022399999V0201301N00151030001CN0400001N1+01291+01151102011ADDAG11000GF108991041071008001011999MD1010001+9999
0133960110999991994011600004+05517+095417FM-12+0021WITT V0201201N00211220001CN0100001N9+02401+02191100981ADDAA124002091AG10000GA1011+006009059GF104991011051008001031011GJ101689KA1240N+02251REMSYN040 333 20225 50050 55028 56000 79999 81620
0132428090999991994062109004+22650+088450FM-12+0006VECC V0201801N00211036001CN0040001N1+03381+02691099521ADDAA106000291AA299000191AG10000GA1021+005409059GF105991041041004501031001MD1999999+0171REMSYN035 333 56490 58017 6992/ 82618 83820;
0063999999999991994052109364+68033-015067FM-18+9999DRIB V02099999999999999999N9999999N9+99999+99999999999ADDAG10999MW1001SA1+0229REMSYN01164642     ?EQDQ01+000002VOVAR 
0057725314999991994102100004+38567-090150SAO  +0126CPS  V0203401N002012200019N0321871N1+01941+00881999999ADDAG11000GF100991999999999999999999MA1101731999999MW1001
0145117870999991994050315004+49550+018450FM-12+132799999V0200501N00301220001CN0750001N9+00411-00671999999ADDAG12000GA1041+060009049GF104991999001999999999021MA1999999087001MD1710071+9999ME1315189REMSYN011 333 84070;EQDQ01+000002SCOTLCQ02+000002SCOMCG
0127701625999991994112121003+68133-151733SAO  +0643AKP  V0200601N008219999999N0160931N1-03121-03171999999ADDAG11000GP10060000501028012401031000301028GQ100600891916069GR100600023914029MA1101121999999MW1001OC101021REMAWY011CLR BLO 120
0106722090999991994103112254+31883-081567SAOSP+0014LHW  V0202301N001010330019N0048281N1+99999+99999999999ADDAG10000GD12991+0036099GD23991+0330099GF107991999999999999999999MA1101561999999MW1451EQDQ01+000100PRSWM2
0069538210999991994030209004+36767+107200FM-12+132299999V0202901N00501036001CN0180001N9+00891-01291102001ADDAG12000GF107991051001999999041021MD1710241-0801REMSYN010 333 05804
0092443050999991994123021004+46683+113283FM-12+098699999V0202701N00501220001CN0500001N1-02581-02581105041ADDAA106000091AG14000GA1001+999999999GF100991001001999999001001MA1999999091831MD1810041+9999
0094579160999991994110406004+25433+106767FM-12+044199999V0200701N00201036001CN0150001N1+02491+01421102231ADDAA106000091AG10000GF106991021011012501041001KA1999N+01231MD1710291+9999REMSYN011 333 20123;
0093042020999991994101823004+76533-068500FM-15+0059BGTL V0201101N00411220001CN0112651N1-01701-02101999999ADDAG11999GA1021+030009999GA2021+054009999MA1101761999999REMMET008NEW RCRNEQDQ01+000000PRSWM2
0114999999999991994013000004+13500+043100FM-13+9999C6IE V0201701N02061220001CN0200001N9+02391+01871101181ADDAG12000GA1001+999999999GF100991001001999999001001MD1610301+9999SA1+2529UA1M050309999REMSYN018 22285 00252 20506
0114039740999991994090410004+54183-007233FM-12+008999999V0201901N00621005101CN0110001N1+01311+01121100901ADDAG12999AY161011AY221011GA1051+005109079GF108991081061004501999999MD1710161+9999MW1211REMSYN017 333 85717 88623;
0146032040999991994121810004+54083-004633SY-MT+0017EGNS V0202401N01231220001CN0400001N1+00591-00121100151ADDAG12999GA1021+007509999GF103991021081008001031001MA1100101999999MD1210141+9999REMSYN023 333 82825 90710 91131;MET008NEW NOSIEQDQ01+000000PRSWM2
0102967490999991994030203004-06117+106650FM-15+0008WIII V0209991C00001030001CN0090001N1+02601+02501999999ADDAG11000GA1021+006009999GA2081+030009999MA1101081999999REMMET017NEW PREC. TO N, SEQDQ01+000000PRSWM2
0047151190999991994050321004+46750+022800FM-12+184899999V0200501N007019999999N0500001N1-00541-00851999999ADDAA106000091AG14000GF107991999999999999999999
0060711146999991994092218004+49033-119433SAO  +0283WYY  V0209991C000019999999N9999999N9+01901+99999102101ADDAA106000091AG10000MD1710131+9999MW1001EQDQ01+000002VOVAR 
0054690150931211994111003009+34300-116167NSRDB+062699999V020999999999999999999999999999+99999+99999999999ADDGP10060000001000000001000000001000GR100600000900009
031172520094823199412282000C+40500-080217SAO  +0350PIT  V0203005N006250762059N0192005N1+00725-00115101565ADDAA101000095AG11999GA1999+004885065GA2999+076205005GD12015+0048099GD23045+0750099GF105045999999999999999999MA1101461097055MW1001EQDQ01+999990APOSP N01 00000JPWTH 0QNNE71 0 00201E71 0 00405G71 0 00250H71 0 15016H71 0 32250K71 0 00030L71 0 01200M71 0 28660N71 0 00000Q71 0 10156S71 0 00045V71 0 00605X71 0 30012
0140601010999991994010603004+35733-005900FM-12+0021GMTT V0201801N00931030001CN0100001N9+01071+00791101281ADDAA106000091AG14000GA1031+004809089GA2031+030009039GA3051+069009009GF106991031021004501031021MD1810311+9999REMSYN022 333 83816 83360 85073
0120075240999991994011513004+44183+000600FM-15+0060LFBA V0202401N00411004801CN0112651N1+00701+00401101251ADDAG11999GA1071+004809999GA2071+030009999MA1101191100531REMMET003NEWEQDQ01+999990APOSP Q02+999990APOSLPQ03+000000PRSWM2
0153870970999991994072309004-25733-054467SY-MT+0270SARI V0202501N00211220001CN0100001N1+00671+00671102171ADDAG10000AY111031AY201031GA1021+004509999GF102991021061004501001001MA1102201999999MD1110031+9999MW1101REMSYN011 333 82615;MET005NEW ;EQDQ01+000000PRSWM2
0117999999999991994081906004+05900+095700FM-13+9999GOYD V0202301N008210450019N0200001N1+02921+02111101011ADDAG10000GF106991031081002501061011MD1810021+9999SA1+2919UA1M040209999UG1999993509REMSYN025 22225 00291 20404 399//;
0083124000999991994112700004+51933+015533FM-12+0192EPZG V0201701N00201007501CN0100001N1+00291+00241102381ADDAA106001091AG10001AY161061AY241061GF108991081051008001999999MD1410001+9999MW1021
0134067340999991994081312004+46667+007883FM-12+058099999V0202501N00261220001CN0100001N1+02221+01291101441ADDAA106000091AG10000AW1051AZ111061AZ211061GA1031+015009059GF103991999999017501999999MA1999999094961MD1710101+9999REMSYN011 333 83650;
0064714120999991994111407004+46450-061967SAO  +0011WEP  V0200501N004119999999N0144841N1+00201-00101102631ADDAG11999MA1999999102481MD1010101+9999MW1001EQDQ01+999990APOSP 
0070719403999991994083117424+55700-121633SAOSP+0609YCQ  V0201301N00201004801BN0160931N1+99999+99999999999ADDAG10999GD13991+0048099GF107991999999999999999999MW1001REMAWY004SC8;
0148592870999991994081007004+23133+113317FM-15+0008ZGGG V0202501N00301060001CN0112651N1+03201+02401100261ADDAG10999GA1021+007809089GA2021+007809999GA3071+060009999MA1100201100141REMMET015NEW 2 91 NOSIG;EQDQ01+999990APOSP Q02+999990APOSLPQ03+000000PRSWM2
0058474230999991994063007004+42317+140983FM-12+0049RJCY V0200601N006219999999N9999999N9+01471+01441101021ADDAG12999MA1999999100441MD1710031+9999EQDQ01+000002VOVAR 
0119344070999991994031215004+48817+035167FM-12+013299999V0200501N00501007201CN0190001N9-00081-00531102711ADDAG12000GA1081+007209059GF108991081051008001999999MA1999999101081MD1710061+9999REMSYN010 333 88624EQDQ01+999990APOSP 
0064726514999991994010414004+43733-103617SAO  +17070V1  V0202701N001519999999N9999999N9-00891-01231999999ADDAG11999MW1001REMAWY020PK WND 04 ///375 RNOEQDQ01+000002VOVAR 
0155165600999991994041611004+39250+009050FM-15+0001LIEE V0209991C00001027001CN0060001N1+01401+01101100151ADDAG10999GA1021+006009999GA2021+009009999GA3081+027009999MA1100101100091MW1511REMMET032NEW NOSIG WIND THR14 00000KT WHTEQDQ01+999990APOSP Q02+999990APOSLP
0076163120999991994070722004+40767+016933FM-15+0350LIBV V0209991C00001220001CN0080001N1+02501+02001999999ADDAG11999GA1021+024009999MA1101291999999REMMET007NEW SCTEQDQ01+000000PRSWM2
0158042310999991994070812004+67000-050800SY-MT+0053BGSF V0200601N00411220001CN0750001N1+01591+00471101591ADDAA106000091AG10000GA1021+060009999GF199999001001999999001011MA1101491100881MD1810031+9999REMSYN011 333 81070;MET005NEW ;EQDQ01+000012SCOTCVQ02+000000PRSWM2
0063035440999991994120716004+52367-001333FM-12+010799999V0202101N003619999999N9999999N9+00531+00151100391ADDAG12999MD1210101+9999REMSYN011 555 91552;EQDQ01+000002VOVAR 
0066128920999991994101909004+48017+021733FM-12+010699999V0200801N00401220001CN0250001N1+00391-00241102871ADDAG12000GA1001+999999999GF100991001001999999001001MD1010041+9999
0131915020999991994031809004-06700+156383FM-12+000399999V0209991C00001220001CN0250001N9+02711+02541100681ADDAA106000091AG10000AY121031AY221031GA1011+005109089GF104991011021004501031011MD1210111+9999MW1051REMSYN023 333 56000 81817 83360;
036572508014740199402131000C+41933-072683SAO  +0049BDL  V0200205N001050030559N0064005N1-00505-00565101795ADDAA101000095AG11999GA1999+001525135GA2999+003055055GD12045+0015099GD24045+0030099GF108085999999999999999999MA1101761101105MW1455MW2565MW3715REMAWY006PRESFREQDQ01+000100PRSWM4N01 03640JPWTH 0N02 07000JPWTH 0QNNE71 0 00205E71 0 00605G71 0 00010H71 0 13005H71 0 22010K71 0 00022L71 0 00400M71 0 29855N71 0 03640N71 0 07000Q71 0 10179S71 0 00023V71 0 01010X71 0 02002
0081764594999991994062913004+23167-106283SAO  +0010MZT  V0201201N020519999999N9999999N9+99999+99999100011ADDAG10999MW1001REMAWY037Z /MNU 7 25/220000/132/ALGS AC 00290;EQDQ01+000002VOVAR 
0086106870999991994020206004+49700+011950FM-15+0415EDIC V0202601N001510051019N0080001N1+00301+00301999999ADDAG11001GA1081+005109999MA1101631999999MW1101MW2611REMMET024NEW CIGM017 / 20002 WR//
0088722315539171994011917004+30050-090033SAO  +0003NEW  V0200901N004112200019N0160931N1+00271-00891103571ADDAG11999GD12991+0750093GF102991999999999999999999MA1103561999999MW1001REMAWY007K LYR W
0057722899999991994060800004+33967-117633SAO  +0198CNO  V0202401N007712200019N0112651N1+99999+99999999999ADDAG10000GF100991999999999999999999MA1101191999999MW1001
0120726564999991994070904004+43650-094983SAO  +0441MJQ  V0202901N00771002401MN0056331N1+01551+01441999999ADDAA199000391AG13999GD13991+0024099GD24991+0036099GF108991999999999999999999MA1101461999999MW1001OC101021REMAWY005P001;
0090804214999991994051501004+10917-063983FM-15+0023SVMG V0200801N00871220001CN0112651N1+02601+02601999999ADDAG10999GA1021+001809999GA2021+081009999MA1101291999999REMMET005NEW ;EQDQ01+000000PRSWM2
0076043390999991994061112004+70483-021967FM-12+0066BGSC V0201901N00101024001CN0750001N1+00201-00031099871ADDAA106000091AG14000GF106991011061000751031001MA1999999099031MD1110081+9999
0087746710138061994011110314+36667-087500SAOSP+0174HOP  V0209991C000010180019N0112651N1+99999+99999999999ADDAG11999GD12991+0105099GD24991+0180099GF108991999999999999999999MA1102911999999MW1611
0104475800999991994070912004+40700+141367FM-15+0036QSM  V0201301N00721000301CN0020001N1+01601+01601999999ADDAG11000GA1081+000309999MA1101191999999MW1511OC101031REMMET040NEW (A2988) FCST 1218 96121 0500 9//000;
0106725377148041994101913404+42617-082833SAOSP+0177MTC  V0202301N00411002401MN0080471N1+99999+99999999999ADDAG10999GD13991+0024099GD24991+0150099GF108991999999999999999999MA1101151999999MW1451EQDQ01+000100PRSWM2
0035718736999991994121316004+51433-112667SAO  +0678WDZ  V0209991C000019999999N9999999N9-02001-02301999999ADDAG11999MW1001EQDQ01+000002VOVAR 
0125466960999991994081312154+25067+121550FM-16+0006RCSS V0203201N00361018001CN0070001N1+03001+02601100071ADDAG10000GA1021+006009999GA2071+018009999MA1100001099961REMMET008NEW NOSIEQDQ01+999990APOSP Q02+999990APOSLPQ03+000000PRSWM2
0171711380999991994030406004+51267-102467SY-SA+0498YQV  V0202501N005712200019N0240001N9-00011-00251101171ADDAA106000091AA224000091AG14000GF100991001001999999001001KA1240M+00591KA2240N-00181MA1100951095121MD1110051+9999OA132401081REMSYN038 333 10059 21018 70000 555 32921 40181
0076443050999991994122315004+46683+113283FM-12+098699999V0209991C00001220001CN0500001N1-01351-01561103351ADDAA106000091AG14000GF102991021001999999041001MA1999999090841MD1210181+9999
0153476880999991994041122004+34983+139833FM-15+0006RJTE V0202001N00461013501CN0112651N1+01701+01401999999ADDAG11999GA1021+006009999GA2071+013509999MA1101801999999REMMET068NEW (A3008) FCST 2210 TEMPO 0510 21015/25KT 80RASH 5ST006 6CU015 8SCEQDQ01+000000PRSWM2
034072747014918199407151500C+48567-093383SAO  +0359INL  V0203005N003650085359N0240005N1+01675+01175101815ADDAA101000095AG11000GA1999+003665085GA2999+008535065GD12025+0036099GD24065+0084099GF108075999051999999999999MA1101761097495MD1310071+9999MW1001REMAWY022BINOVC OVHD/ 307 15//;EQDN01 00000JPWTH 0QNNE71 0 00202E71 0 00608G71 0 00028H71 0 11012H71 0 15028K71 0 00053L71 0 01500M71 0 28790N71 0 00000Q71 0 10181S71 0 00062V71 0 01009X71 0 30007
0073725957242151994071406084+41317-122317SAOSP+1080MHS  V0203101N003619999999N9999999N9+02221+00331999999ADDAG10000MA1101321999999MW1001REMAWY014PK WND 14 000;EQDQ01+000002VOVAR 
0118261410999991994103103004+59133+026233FM-12+012399999V0201201N00201002101CN0040001N1+00331+00281100621ADDAG12000AY151031AY221031GA1081+002109079GF108991081061002501999999MD1710031+9999MW1101REMSYN021 333 88707 555 20028;
0061725249999991994040908004+41550-082733SMARS+019621G  V0201801N00461220001CN0166681N9+00941+99999101651ADDAG10999GF104991999999999999999999MW1001REMSYN010MARBLEHEAD
0100724457039381994031803004+37733-092133SAO  +0353TBN  V0201801N005112200019N0112651N1+01881+00661099771ADDAG11000GD12991+0180099GF102991999051999999001001MA1099801999999MD1410001+9999MW1001REMAWY005LAST;
0171415710999991994072912004+33617+073100SY-MT+0508OPRN V0202301N00411220001CN0100001N1+03171+02501099301ADDAA199004091AG10000GA1021+012009999GA2021+030009999GF104991031041012501031001KA1120M+03221MD1999999-0341REMSYN023 333 10322 56990 59034;MET008NEW 994;EQDQ01+000000PRSWM2
0090834970999991994060122004-17633-039250FM-15+0004SBCV V0209991C00001030001CN0112651N1+02401+02301999999ADDAG10999GA1021+006009999GA2071+030009999MA1101801999999REMMET005NEW ;EQDQ01+000000PRSWM2
0157341220999991994010609004+51700+039167FM-12+0154UUOO V0201401N00601001501CN0018001N9-00301-00341101221ADDAG12001AY171031AY231031GA1081+001509079GF108991999071001501021999MA1999999099281MD1710131+9999MW1711REMSYN010 333 88705EQDQ01+000082SCOTLCQ02+999990APOSP 
0208467510999991994102615004+24183+120650SY-MT+0112RCLG V0203601N00621015001CN0110001N1+02041+01831101341ADDAA106000091AG10000GA1021+003609999GA2071+015009999GF199999051051004501001001MA1101391100081MD1210051+9999REMSYN042 555 82712 85650 90513 00000 QNH 2995 INS;MET008NEW (A29EQDQ01+000052SCOTCVQ02+000000PRSWM2
0035712490999991994011509004+51700-113217SAO  +0907WHI  V0201401N006119999999N9999999N9-02001-02201999999ADDAG12000MW1001EQDQ01+000002VOVAR 
0202467340999991994062912004+23583+119617SY-MT+0031RCQC V0209991C00001054001CN0110001N1+02811+02541100931ADDAA106000091AG10000GA1021+003009999GA2071+054009999GF199999021011004501001011KA1120M+03131MA1100911100561MD1210091+9999REMSYN015 333 10313 555;MET016NEW A2981 NOSIG;EQDQ01+000062SCOTCVQ02+000000PRSWM2
0058477780999991994081004004+33450+135767FM-12+007599999V0200601N005719999999N9999999N9+02881+02541101081ADDAG10999MA1999999100241MD1710061+9999EQDQ01+000002VOVAR 
0066524180999991994071915004+40150+094683FM-12+114099999V0202201N00201220001CN0300001N1+02731+01201099081ADDAG12000GA1001+999999999GF100991001001999999001001MD1210081+9999
0072331770999991994070703004+50833+024317FM-12+019399999V0202001N00101220001CN0080001N1+00721+00701101411ADDAG12000AY101031AY201031GF102991021051008001041001MD1710011+9999MW1111
0076150200999991994080421004+47683+026667FM-12+016299999V0209991C000010360019N0120001N1+01961+01931101951ADDAA106000091AG14000GF105991031051008001071001MA1999999100061MD1310071+9999
0058475810999991994071908004+40533+141533FM-12+002899999V0200701N002619999999N9999999N9+02381+01911100851ADDAG12999MA1999999100531MD1710081+9999EQDQ01+000002VOVAR 
0128717030999991994051302004+47150-067833SAO  +0241YSL  V0201501N00251000901MN0032191N1+00901+00801100031ADDAG11999GD14991+0009099GF108991999999999999999999MA1099971097141MW1451MW2611REMAWY006SF10 ;EQDQ01+999990APOSP Q02+000100PRSWM3
0095043900999991994010603004+60033-043117FM-12+0019BGPC V0200501N00361015001CN0100001N9-00291-00521101881ADDAG12000GF107991071071017501999999MA1999999100901MD1710191+9999OA149900931REMSYN010 333 91118
0148612910999991994121700004+12533-007950SY-MT+0381GABS V0203601N00411105001CN0150001N1+02171+00662101471ADDAG10000GF105991001001999999001021MA1101691999999MD1999999-0021REMSYN017 333 59002 85080;MET016NEW CAVOK NOSIG;EQDQ01+027983ATOD  Q02+000000PRSWM2
0295722516129281994091719003+27500-097817SAO  +0017NQI  V0203205N00215030001MN0112005N1+02785+02115101851ADDAG10999GD13991+0300099GF106995999999999999999999MA1101831999999MW1001EQDN01 00408KCLC1 3N02 00100CCLHT 3N03 30070EALTP 3N04 30005FPRES 3N05 00000JPWTH 0N06 10185ISLVP 3QNNE41 3 00408G41 3 00100K41 0 00070L41 0 00700C41 3 30070M41 3 30005N41 0 00000Q41 3 10185S41 0 00082V41 0 00899X41 0 32004
0132723235138961994021003004+34750-087617SAO  +0168MSL  V0203601N00561003601MN0080471N1+00001-00171102151ADDAG11002GD14991+0036099GF108991999999999999999999MA1102171999999MD1510001+9999MW1451MW2611REMAWY012CIG RGD/ 500EQDQ01+000100PRSWM3
0117106870999991994121215004+49700+011950FM-15+0415EDIC V0202801N003610120019N0112651N1+01001+00601999999ADDAG11000GA1021+009009999GA2071+012009999GA3081+030009999MA1102681999999OC100771REMMET008NEW CIGMEQDQ01+000000PRSWM2
0191725945242831994122022005+40983-124100SAO  +0062ACV  V0202005N005250457259N024000599+01285+00835101635ADDGD13995+9999999GF107055999999999999999999MA1999999100815EQDN01 00000JPWTH 0QNNE21 0 00499G21 0 00150K21 0 00047L21 0 01500M21 0 29770N21 0 00000Q21 0 10163S21 0 00055V21 0 00906X21 0 20010
0109165970999991994031219454+35850+014483FM-15+0091LMML V0202201N00151220001CN0080001N1+01201+00901102171ADDAG11999GA1021+004509999MA1102101101281REMMET008NEW NOSIEQDQ01+999990APOSP Q02+999990APOSLPQ03+000000PRSWM2
0065135860999991994080511004+41967+021650FM-15+0239LYSK V0200401N00511999999CN0112651N1+99999+99999999999ADDAG11999REMMET027NEW 0TCU 33/14 Q1016 NOSIG;EQDQ01+000000PRSWM2
0077762556999991994040317454+27967-110950FM-15+0027MMGM V0209991C00001060001CN0112651N1+02901+00801999999ADDAG11000GA1071+060009999MA1101731999999REMMET008NEW 0089EQDQ01+000000PRSWM2
0010913770999991994012223004+06100+171400FM-12+000299999V0200101N006719999999N9999999N9+02831+99999101011ADDAG12999
0072722108999991994011217004+26533-081750SAO  +0009RSW  V0209991C00001002101MN0112651N1+02221+02001999999ADDAG11999GD14991+0021099GF108991999999999999999999MA1101931999999MW1001
0425723096937271994050119003+34700-077383SAO  +0005NCA  V0202205N003150600019N0112005N1+02835+01785101431ADDAG10999GD12991+0060099GD22991+0135099GD32991+0300099GD43991+0600099GF106995999999999999999999MA1101421101325MW1001REMAWY011SVR T2 SET;EQDN01 00205KCLC1 3N02 00205KCLC2 3N03 00205KCLC3 3N04 00408KCLC4 3N05 00200CCLHT 3N06 29950EALTP 3N07 00000JPWTH 0N08 10143ISLVP 3QNNE41 3 00205E41 3 00205E41 3 00205E41 3 00408G41 3 00200K41 0 00064L41 0 00700C41 3 29950M41D0 29920N41 0 00000Q41 3 10143S41 0 00083V41 0 00899X41 0 22006
0136724697999991994071712004+40583-105083SAO  +1525FCL  V0203201N002012200019N0321871N1+01221+01051999999ADDAA106000091AA224008091AG10000GF100991999999999999999999KA1999N+01111MD1510001+9999MW1001REMAWY036ACSL AC SW/ 500 1040 20031 52 NOSPL;
0089712320999991994053023004+51083-115067SAO  +1298WXA  V0202301N005119999999N9999999N9+01401-00701101951ADDAG11999MD1310101+9999MW1001OC101021REMAWY023PK WND 2322 2249Z 3010;EQDQ01+000002VOVAR 
0010994050999991994010711004+26617-080033FM-12+0005LKWF V0201501N009319999999N9999999N9+02251+99999102001ADDAG12999
0072722895999991994050901004+34667-120467SAO  +0027LPC  V0202901N004612200019N0160931N1+01551+01111999999ADDAG10999GD12991+0054099GF102991999999999999999999MA1101591999999MW1001
0047726530999991994020310084+43800-099317SAOSP+05309V9  V02099999999999999999N0000001N1+99999+99999999999ADDAG11999MW1001REMAWY022-9/M09/M/PK WND 11 000
0089966950999991994122704004-03400+116217FM-12+0018WRBK V0209991C00001045001CN0100001N1+03011+02341101301ADDAA106000091AG10999GA1031+006009089GF105991031021008001021001REMSYN017 333 56000 83820;
0073723710999991994061221004+36933-111450SAO  +1304PGA  V0202801N004619999999N9999999N9+03551+00051999999ADDAG10000MA1101081999999MW1001REMAWY014PK WND 17 000;EQDQ01+000002VOVAR 
0186618320999991994061912004+09567-013617SY-MT+0026GUCY V0201801N00801033001CN0300001N1+02761+02391101341ADDAA106000091AG10000GA1021+004509999GA2071+033009999GF199999031051004501071001MA1101291999999MD1999999-0091REMSYN023 333 59009 83615 85361;MET005NEW ;EQDQ01+000062SCOTCVQ02+000000PRSWM2
0058476160999991994092919004+36050+136233FM-12+001799999V0202201N004619999999N9999999N9+02371+02161099461ADDAG10999MA1999999099271MD1211341+9999EQDQ01+000002VOVAR 
0104787410999991994040713004+12150-086167FM-15+0050MNMG V0209991C00001220001CN0112651N1+02501+02001101341ADDAG11999GA1021+006009999MA1101291100711REMMET003NEWEQDQ01+999990APOSP Q02+999990APOSLPQ03+000000PRSWM2
0145914250999991994071106004+03850+155017FM-12+000499999V0203201N00461005401CN0240001N1+02671+02391100591ADDAA106000091AA224019191AG10000GA1071+005409089GF107991071021004501001001MA1999999100581MD1610141+9999REMSYN033 333 5679/ 70191 87818 555 91106;
0138085300999991994031218004+39350-009400FM-12+003499999V0203601N00981220001CN0200001N9+01321+00921102571ADDAA106000091AG14000GF103991031021008001001001KA1120M+01401MA1999999102191MD1210081+9999UG1110303209REMSYN028 222// 332// 41106 333 10140
0106022860999991994081706504+63800+020283FM-15+0014ESNU V0202101N00211220001CN0112651N1+01401+00801101841ADDAG11999GA1021+009009999MA1101801101761REMMET005NEW ;EQDQ01+999990APOSP Q02+999990APOSLPQ03+000000PRSWM2
0051701170999991994030808004+65567-167917SAO  +0083PATC V0200101N018019999999N0080471N1-02001-02281999999ADDAG11999MA1101691999999MW1001REMAWY011CLR BLO 120
0055999999999991994111709004+44350-016683FM-18+9999DRIB V02099999999999999999N9999999N9+99999+99999102281ADDAG10999MW1001REMSYN01162511     ?EQDQ01+000002VOVAR 
0119264220999991994030415004+56967+024067FM-12+0003UMRR V0203501N00301007801CN0100001N9-00441-00751102361ADDAG12000GA1081+007809059GF108991081051008001999999MA1999999102271MD1210181+9999REMSYN010 333 88626EQDQ01+999990APOSP 
0084287560999991994060721004+54467+064867FM-12+011799999V0209991C00001220001CN0100001N1+01201+01131101781ADDAG12000GF101991011001999999031001MA1999999100371MD1210071+9999EQDQ01+999990APOSP 
0128372350999991994042706004+43350+045683FM-12+016299999V0202801N00301012001CN0100001N9+01561+01031101581ADDAA106000091AG14000GF107991071051012501999999KA1999N+01381MA1999999099661MD1210061+9999REMSYN011 333 20138;EQDQ01+999990APOSP 
0029994190999991994111801004+47083-090733FM-12+0192DISW V0201901N004119999999N9999999N9+01111+99999999999ADDAG12999EQDQ01+000002VOVAR 
0090162320999991994060714004+42000+015000FM-15+0044LIBT V0200201N00361999991CY0099001N1+99999+99999999999ADDAG11999REMMET052NEW CAVOK SCT200 19/10 SCT QUK2 QUL1NE VIS MAR 30KM;EQDQ01+000000PRSWM2
0073723600230511994100301084+36450-103150SAOSP+1515CAO  V0201101N004119999999N9999999N9+01441+00221999999ADDAG10999MA1101051999999MW1001REMAWY014PK WND 10 000;EQDQ01+000002VOVAR 
0160471270432161994120700004+36967+127033FM-15+0016RKSG V0202701N003612200019N0040001N9+00901+00501999999ADDAA124000891GD19999+0001599GF102991999999999999999999MA1101931999999MW1101REMMET024 SKY -X TWR VSBY 2/70003EQDQ01+000002WGOSPDQ02+300451APOSP Q03     03SCCGD1
0073744600999991994092810284+41367-088683SAOSP+0225MMO  V0202601N002519999999N9999999N9+00831+00661999999ADDAG10999MA1100781999999MW1001REMAWY014PK WND 09 000;EQDQ01+000002VOVAR 
0115072220999991994110207004+47167-001600FM-15+0027LFRS V0200801N00311005701CN0112651N1+01001+00801101441ADDAG11999GA1021+003609999GA2071+005709999MA1101391101121MW1531REMMET008NEW NOSIEQDQ01+999990APOSP Q02+999990APOSLP
0100071210999991994052618004+48850-003000FM-12+003699999V0203001N00511015001CN0180001N1+01261+01071101221ADDAA106000091AG14000GF107991051081012501071999KA1999M+01481MD1310191+9999REMSYN017 333 10148 92427;
0144718770999991994080322004+51117-114017SAO  +1084YYC  V0201201N005110420019N0160931N1+02701+01201101981ADDAG11999GD12991+0210099GD23991+0420099GD33991+0900099GF107991999999999999999999MA1102131089691MW1001REMAWY014TCU5AC2CI1 K ;EQDQ01+999990APOSP 
034072327013897199406130600C+36117-086683SY-SA+0180BNA  V0201705N001552200059N0112005N1+02335+02115101525ADDAA101000095AA206000091AA324000091AG14000GA1999+012195085GD12025+0120099GF102025021011012501001991KA1240M+03171KA2240N+01941MA1101591099395MD1810031+9999REMSYN033 333 10317 20194 70000 555 91306;EQDN01 00000JPWTH 0QNNE71 0 00203G71U0 99999H71 0 11040K71 0 00070L71 0 00700M71 0 29350N71 0 00000Q71 0 10152S71 0 00074V71 0 00303X71 0 17003
0138717100999991994111512004+47417-061783SAO  +0010WGR  V0202201N008219999999N9999999N9+00701+00601100761ADDAA106000091AG10000MD1710171+9999MW1001OC101131REMAWY0290078 PK WND 2124 1100Z 6017 ;EQDQ01+000002APCTENQ02+000782APC3  Q03+000002VOVAR 
0159303790999991994022100004+56000+119450FM-12+099699999V0209991C00001220001CN0500001N9-03961-04001103051ADDAA106000091AA224999929AG14000AJ100209199999999GA1001+999999999GF100991001001999999001001IA1239KA1120N-03961MD1210031+9999REMSYN026 333 21396 47020 555 7990/
0010994430999991994022520004+25017-080383FM-12+0000MLRF V0202301N001019999999N9999999N9+02631+99999101481ADDAG12999
0080717355999991994120422004+46317-079467SAO  +0200WLQ  V0201401N003019999999N9999999N9+00201+99999999999ADDAG11999MD1410001+9999MW1001REMAWY022253<4/2/1406/-/ 4000 ;EQDQ01+000002VOVAR 
0149154340999991994060421004+44383+026700FM-12+017799999V0202701N00601220001CN0120001N1+02861+01521100681ADDAA106000091AG14000GA1001+999999999GF100991001001999999001001IA1019IA2999+05709KA1120M+03261MA1999999098741MD1410001+9999REMSYN017 333 10326 30057;
0121038030999991994050613004+49917-006300SY-MT+0031EGHE V0201901N00361010501CN0090001N1+01191+01031101731ADDAG12999GA1021+002709999GA2071+010509999MA1101801999999MD1710091+9999REMSYN011 555 91252;MET005NEW ;EQDQ01+000000PRSWM2
0185064320999991994042710004+50567+003833SY-MT+0063EBCV V0202401N00361004501CN0028001N9+01401+01331102701ADDAG12999AY121011AY221011GA1071+004509999GF108991071051001501999999MA1102711999999MD1010221+9999MW1501OA149900511REMSYN029 333 85706 87613 91110 91207;MET008NEW YLO;EQDQ01+000000PRSWM2
0090043610999991994042216504+65567-037117FM-15+0034BGKK V0200801N00871006001CN0112651N1-00301-00701999999ADDAG10999GA1021+004509999GA2071+006009999MA1102711999999REMMET005NEW ;EQDQ01+000000PRSWM2
0069101360999991994071003454+53767+008667FM-15+0031EDCN V0201901N00261220001CN0025001N1+01201+01201999999ADDAG10000GA1021+075009999MA1102301999999MW1401REMMET013NEW BLACKYLO;
0129999999999991994083018004+44400-148300FM-13+9999JGPN V0202901N00671220001CN0200001N1+01651+01141102861ADDAG12000GF102991021021008001041001MD1710081+9999SA1+2009UA1I140209999UG1100153409REMSYN037 22225 00200 11404 20201 334// 41003;
0070712360999991994052819004+49633-114483SAO  +1303WRT  V0203001N007219999999N9999999N9+01201-00901999999ADDAG11999MW1001OC101231REMAWY018PK WND 3024 1850Z;EQDQ01+000002VOVAR 
0129364280999991994062803004+49200+084517FM-12+040199999V0201601N00101220001CN0500001N1+02291+01421100461ADDAA106000091AG14000GF106991011011017501001011GJ107389MA1999999095951MD1310021+9999REMSYN017 333 55123 95000;EQDQ01+999990APOSP 
0056152610999991994072417004+45683+026017FM-12+071099999V0200901N00301007501CN0120001N1+02091+99999999999ADDAG12999GF105991051031008001001001REMSYN011 333 95000;
0160353580999991994093015004+49633+063500FM-12+013699999V0209999999999220001CN9999999N9+02441+00451101731ADDAA106000091AG14000GA1001+999999999GF100991001001999999001001KA1999M+02851MA1999999100161MD1710061+9999REMSYN011 333 10285;EQDQ01+999990APOSP Q02+000002VOVAR 
0117725144999991994051913004+40433-076567SAO  +0149MUI  V0200601N003010150019N0321871N1+01161+00941101701ADDAG11999GD12991+0066099GD23991+0150099GD33991+0240099GD43991+0360099GF107991999999999999999999MA1101691999999MW1001
031770326025503199409022000C+58683-156650SAO  +0015AKN  V0201005N00415002135MN0112005N9+01225+01065101085ADDAA101000095AG11999GA1999+002135075GD14085+0021099GF108085999999999999999999MA1101081100905MW1001REMAWY03410ST BRKS ALQDS CIG RGD LE42 WR//;EQDQ01+999990APOSP Q02+000002VOVAR N01 00000JPWTH 0QNNE71 0 00610G71 0 00007H71 0 16007K71 0 00051L71 0 00700M71 0 29795N71 0 00000Q71 0 10108S71 0 00054V71 0 01010X71 0 10008
020772666024029199408280100C+44767-106967SAO  +1208SHR  V0203405N00215076205EN0800005N1+02395+00565999999ADDAA101000095AG11999GD14995+0750099GF108065999999999999999999MA1102001999999MW1001REMAWY005HAZY;EQDN01 00000JPWTH 0QNNE71 0 00699G71 0 00250K71 0 00042L71 0 05000N71 0 00000S71 0 00075V71 0 01008X71 0 34004
0165851750999991994082212004-15717-063100FM-12+0247SLAS V0209991C00001220001CN0010001N1+01881+01821101381ADDAA106000091AG10000AY101061AY201061GA1001+999999999GF100991001001999999001001IA1019KA1240N+01771MA1999999098541MD1210141-0141MW1041REMSYN023 333 20177 30/// 59014;
025572412003872199403310200C+37783-081117SAO  +0763BKW  V0201505N00265007325MN0112005N1+00445+00005102895ADDAA101000095AG11999GA1999+007325065GD14085+0072099GF108085999999999999999999MA1102711093725MW1615REMAWY004RB30EQDN01 02000JPWTH 0QNNE71 0 00610G71 0 00024H71 0 15024K71 0 00032L71 0 00700M71 0 27675N71 0 02000Q71 0 10289S71 0 00040V71 0 01010X71 0 15005
0051725776999991994122020004+43600-110733SAO  +1964JAC  V0209991C000019999999N0160931N1-00841-01171999999ADDAG11999MA1102641999999MW1001REMAWY011CLR BLO 120
0051999999999991994091806004-34500+017800FM-13+9999ZTHP V0202701N005119999999N9999999N9+99999+99999101601ADDAG10000REMSYN013 222// 00150;EQDQ01+000002VOVAR 
055172518014735199403031800C+42750-073800SY-SA+0084ALB  V0203605N007750036659N0012005N9-00225-00335100045ADDAA101001095AA206011091AA324022191AC13C9AG10001AJ100389100046099AY171061AY271061GA1999+001835135GA2999+003665065GD12025+0018099GD24065+0036099GF108085081051001501999999KA1120M-00221KA2240N-00441MA1100001098955MD1710411+9999MW1385MW2455MW3715REMSYN044 333 11022 21044 4/038 70221 90973 555 90318AWY041SNOINCR 1/6/15/ 74142 15// 90218 90415 24EQDQ01+999990APOA  N01 04070JPWTH 0N02 08400JPWTH 0QNNE71 0 00203E71 0 00607G71 0 00012H71 0 13006H71 0 15012K71 0 00026L71 0 00075M71 0 29220N71 0 04070N71 0 08400Q71 0 10004S71 0 00028V71 0 01010X71 0 36015
0118484260999991994030718004+14800+100617FM-12+001199999V0209991C00001220001CN0050001N9+02591+02261100891ADDAA106000091AG10000AY101061AY201061GA1001+999999999GF100991001001999999001001MD1999999+0031MW1101REMSYN010 333 58003
0162130080999991994100206004+46383+013850FM-12+251999999V0203601N00401000151CN0001001N1+00481+00441999999ADDAA106000091AG14000AY141061AY221061GA1091+999999999GF109991091999999999999999KA1120N+00481MA1999999075591MD1710051+9999ME1431439MW1471REMSYN017 333 20048 95190;
0036154280999991994102614004+00000+999999FM-12+999999999V0202701N00201220001CN0150001N1+01761+99999999999ADDAG10999GF101991011011008001001001
0066542080999991994071915004+42183+116467FM-12+124799999V0202001N00301220001CN0300001N1+02121+01691100151ADDAG12000GA1001+999999999GF100991001001999999001001MD1210181+9999
0115871550999991994052201004-27450-059050FM-15+0052SARE V0201401N00671015001CN0050001N1+01901+01901999999ADDAG10999GA1021+002109999GA2021+004509999GA3021+015009099GA4081+015009999MA1101391999999MW1811MW2951REMMET005NEW ;
0044999999999991994032215334+09450-175717FM-18+9999DRIB V02099999999999999999N9999999N9+99999+99999999999ADDAG10999MW1001SA1+2839REMSYN01151837     ?
0088718980999991994021312354+54300-130433SAOSP+0034YPR  V0201601N002510060019N0241401N1+99999+99999999999ADDAG11000GD12991+0021099GD24991+0060099GF108991999999999999999999MW1001REMAWY007SF3TCU7
0142838270999991994092300004-25517-054583SY-MT+0243SBFI V0200101N00411220001CN0200001N1+02741+01181101041ADDAA106000091AG10000GF103991001001999999001011KA1999M+03681MA1101081098311MD1310111+9999REMSYN011 333 10368;MET008NEW CAVOEQDQ01+000000PRSWM2
0294724035137731994032003003+38500-077300SAO  +0004NYG  V0202905N001052200019N0112005N1+00505-00785101061ADDAG11000GF100995999999999999999999MA1101051999999MD1110081+9999MW1001EQDN01 00000KCLC1 3N02 99999CCLHTU3N03 29840EALTP 3N04 29825FPRES 3N05 00000JPWTH 0N06 10106ISLVP 3QNNE41 3 00000G41U3 99999K41 0 00018L41 0 00700C41 3 29840M41 3 29825N41 0 00000Q41 3 10106S41 0 00041V41 0 00099X41 0 29002
025972251012924199410040400C+27767-097500SAO  +0013CRP  V0201105N004152200059N0112005N1+02505+02285101255ADDAA101000095AG10999GA1999+006105085GF100005999999999999999999MA1101251101085MW1001REMAWY007FEW CU;EQDQ01+999990APOSP N01 00000JPWTH 0QNNE71 0 00000G71U0 99999H71 0 11020K71 0 00073L71 0 00700M71 0 29850N71 0 00000Q71 0 10125S71 0 00077V71 0 00000X71 0 11008
019172450003928199405271600C+37650-097433SAO  +0402ICT  V0201605N004152200059N0160005N1+02065+00725101915ADDAA101000095AG11999MA1102001097165MW1001REMAWY014CLR BLO 120 $;EQDQ01+999990APOSP N01 00000JPWTH 0QNNG31U0 99999K31 0 00045L31 0 01000M31D0 28690N31 0 00000Q31 0 10191S31 0 00069X31 0 16008
0145999999999991994081312004+59800-004200FM-13+9999GJMP V0203201N012910300019N0200001N1+01011+00501102201ADDAG12001AY181061AY221061GF107991041011008001071001MD1110041+9999MW1021SA1+1259UA1I019999999UG1100503109REMSYN031 22272 00125 20306 33100 41010;
0137999999999991994102400004+58700+005400FM-13+9999UFHZ V0201701N01701002401CN0100001N1+01101+99999098631ADDAG12001AY161061AY251061GA1091+999999999GF109991091999999999999999MD1210021+9999MW1501SA1+0609UA1M089999999REMSYN019 22241 00060 20806;
0063999999999991994052208064+33933-010933FM-18+9999DRIB V02099999999999999999N9999999N9+99999+99999999999ADDAG10999MW1001SA1+1849REMSYN01113932     ?EQDQ01+000002VOVAR 
0100714780999991994112303004+50817-128900SAO  +0111WFG  V0202701N010819999999N9999999N9+00501+99999100551ADDAG11000MA1999999099201MD1010061+9999MW1001REMAWY0110006 5002 ;EQDQ01+999990APOSP Q02+000002VOVAR 
0113726407999991994091200004+43017-087950SMARS+017915C  V0201581N00251220001CN0037041N1+02111+99999102331ADDAG10999GF100991999999999999999999KA1999M+02271KA2999N+01661MW1451SA1+1729UG1990069999REMSYN01647362 MILWAUKEE;
0276723403139631994062808003+34733-092233SAO  +0078LIT  V0202505N00415022865EN0096005N1+02725+02225101085ADDAA106013091AG13999GD13995+0210099GF106065999999999999999999MA1101081100155MD1710031+9999MW1055REMAWY00698753;EQDQ01+000007APCTENQ02-000117APC3  N01 08100JPWTH 0QNNE21 0 00499G21 0 00075K21 0 00072L21 0 00600M21 0 29575N21 0 08100Q21 0 10108S21 0 00081V21 0 00807X21 0 25008
0087947680999991994061420004-33867+151200FM-12+006699999V0209999999999220001CN0250001N1+01041+00411102031ADDAG10999AY111999AY211999GF102991011001999999031081MA1999999101521MD1210111+9999MW1011
0084953140999991994022507004-23350+119717FM-12+054599999V0203201N00261090001CN0200001N9+03351+02031099921ADDAA106000091AG10999AY121999AY221999GF105991031021008001001021MA1999999094041MW1021
0131013360999991994042906004+60650+006500FM-12+0122ENBM V0203301N00101004201CN0600001N9+00671+00581101871ADDAA199003091AG10001AY181061AY221061GF108991071091004501061999KA1999N+00571MA1999999100371MD1310071+9999MW1021REMSYN011 333 20057;
0181085430999991994051309004+41700-008800FM-12+001899999V0201601N00261006001CN0050001N1+01201+01061100041ADDAG12002AY181031AY221031GA1011+002409079GA2031+004509089GF107991071081002501999999MA1999999099831MD1310051+9999MW1801UG1120202709REMSYN041 222// 327// 41204 333 81708 83815 85620;
0122622710999991994122512004+24217+023300FM-12+0435HLKF V0200501N00511030001CN0200001N1+02001+99999999999ADDAA106000091AG10000GA1061+030009049GF107991061001999999011061MD1610151+9999REMSYN017 333 86460 81270;EQDQ01+028573ATOD  
0050714110999991994102017004+43983-064667SAO  +0009WWE  V0201801N003619999999N0144841N1+01501+00901101991ADDAG11999MD1010021+9999MW1001REMAWY0110002 7011 ;
0075160990999991994021212504+45650+012183FM-15+0023LIPH V0201401N00101999991CY0099001N1+99999+99999999999ADDAG11999REMMET037NEW CAVOK BKN200 09/M01 Q1015 Q1015.9EQDQ01+000000PRSWM2
0072747400139731994030718084+30500-099767SAOSP+0522JCT  V0202001N006119999999N9999999N9+03051+00771999999ADDAG11000MA1101631999999MW1001REMAWY013PK WND 21 000EQDQ01+000002VOVAR 
0082744910147031994111200004+42200-072533SAO  +0075CEF  V0203401N004112200019N0482801N1+00381-00621102671ADDAA106000091AG10000GF100991999999999999999999MA1102641999999MD1110241+9999MW1001
0153722535129091994012019464+29383-098583SAOSP+0210SKF  V0200901N003010012019N0012071N1+99999+99999999999ADDAG11999ED199U18299GD12991+0006099GD23991+0012099GD34991+0024099GF108991999999999999999999MA1102511999999MW1451MW2511REMAWY006RVR60+EQDQ01+000100PRSWM3
0084719330999991994041015004+58767-111117SAO  +0232YPY  V0200501N001519999999N0144841N1-00501-00901101301ADDAG11000MA1101121098371MD1510001+9999MW1001REMAWY011CLR BLO 100EQDQ01+999990APOSP 
0202038580999991994081218004+50567-002450SY-MT+0003EGDP V0202901N00511012001CN0200001N1+01811+01041101701ADDAA106000091AG11000GA1021+006609999GA2071+012009999GF199999051051008001001001KA1120M+02061MA1101691999999MD1210011+9999REMSYN023 333 10206 82622 85640;MET008NEW BLU;EQDQ01+000052SCOTCVQ02+000000PRSWM2
0060718863999991994071200004+50700-119283SAO  +0351WSL  V0200101N005619999999N9999999N9+02901+00701101521ADDAA106000091AG10000MD1710111+9999MW1001EQDQ01+000002VOVAR 
0116470680999991994071700004+38200+124883FM-12+000599999V0209991C00001007501CN0100001N1+02401+02391100901ADDAA199030091AG10002AY181061AY281061GF108991081031008001999999KA1999N+02261MD1210061+9999MW1811REMSYN011 333 20226;
0100485520999991994051500004+08467+099967FM-12+0009VTSN V0209991C00001220001CN0100001N1+02501+02481100891ADDAA124005091AG10000GF105991011011008001001061KA1120N+02371MD1999999-0101REMSYN017 333 20237 59010;
038072267023042199409061600C+33650-101817SAO  +0992LBB  V0201305N002650762059N0128005N1+02225+01785102285ADDAA101000095AG11999GA1999+018295065GA2999+039625035GA3999+076205025GD12025+0180099GD22025+0390099GD34045+0750099GF108085999999999999999999MA1102711091265MW1001REMAWY007BINOVC;EQDQ01+999990APOSP N01 00000JPWTH 0QNNE71 0 00203E71 0 00202E71 0 00605G71 0 00250H71 0 15060H71 0 23130H71 0 37250K71 0 00064L71 0 00800M71 0 26950N71 0 00000Q71 0 10228S71 0 00072V71 0 01010X71 0 13005
0078030400999991994081115004+56767-006050FM-12+004599999V0203601N00261012001CN0270001N1+01471+01161999999ADDAG12000GA1021+006909089GF106991061081008001999999REMSYN017 333 82823 86643;
0069941250999991994110811004-13050+131017FM-12+010599999V0203101N003019999999N9999999N9+02781+02171101031ADDAA106000091AG10999MA1999999099851MD1210301+9999EQDQ01+000002VOVAR 
0091719530999991994022217194+60117-128817SAOSP+0690YQH  V0203001N00251000301EN0016091N1-02701-03201999999ADDAG11999GD14991+0003099GF108991999999999999999999MA1102951094831MW1001EQDQ01+999990APOSP 
0116171900999991994111209004+38750+030533FM-12+1034LTAH V0202201N00821036001CN0200001N1+01561+00871999999ADDAG10000GA1031+010509089GF105991031021012501031001MA1999999090151MD1810021+9999ME1315019REMSYN017 333 83835 85360;
0057727833999991994022206084+44517-114217SAOSP+1546U15  V0203301N001519999999N9999999N9-00671-02061999999ADDAG11000MW1001REMAWY013PK WND 05 000EQDQ01+000002VOVAR 
0101117820999991994051703004+49683+018117FM-12+0256LKMT V0201901N00101220001CN0200001N1+00911+00821101001ADDAG12000GA1031+030009039GF104991031001999999051021MA1999999097951MD1710101+9999REMSYN011 333 83360;
0049718917999991994112308004+50300-121767SAO  +0204WGP  V0209991C000019999999N9999999N9+00001+00001100981ADDAG11999MD1710251+9999MW1001EQDQ01+000002VOVAR 
0107283190999991994123100004+57083+054750FM-12+013099999V0202501N00301004201CN0200001N1-00021-00021100371ADDAG12000AY121061AY221061GF108991081001004501021999MA1999999098731MD1410001+9999MW1711REMSYN011 555 1/101;
0164061040999991994112100004+55733+009150SY-MT+0066EKBI V0202701N00571220001CN0150001N1+00791+00751101131ADDAA106000191AG11001AY161061AY211061GA1021+004809999GF104991041051004501001001MA1101081100161MD1210181+9999MW1011REMSYN011 333 84616;MET005NEW ;EQDQ01+000000PRSWM2
0147685840999991994052706004-30733+030450FM-12+001799999V0209991C00001009001CN0100001N1+01661+00841101081ADDAA106000091AG10000GF107991051081004501001021KA1999M+02271KA2120N+01291MD1610031+9999UG1120301309REMSYN039 222// 313// 41206 333 20129 555 10227;
0084319600999991994031306004+43117+131900FM-12+0184UHWW V0202001N00201007501CN0500001N9-00211-01271101431ADDAG12000GF106991061031008001001001MA1999999099121MD1610251+9999EQDQ01+999990APOSP 
0128614970999991994081512004+16600-007267FM-12+0269GQNI V0202801N00511039001CN0150001N1+03381+02311999999ADDAG10000AY111061AY211061GA1041+012009099GA2031+039009039GF107991041031012501071001MW1171REMSYN029 333 84940 83363 94952 95832;
0101716230999991994030615484+43033-081150SAOSP+0278YXU  V0201601N00611000901BN0048281N1+99999+99999999999ADDAG11001GD14991+0009099GF108991999999999999999999MW1451MW2611MW3711REMAWY004SF10EQDQ01+000100PRSWM4
0076719250999991994012607004+69100-105117SAO  +0027YCB  V0200501N004612200019N0241401N1-03701-04101102051ADDAG11999GF100991999999999999999999MA1102001101671MW1761EQDQ01+999990APOSP 
0074789613999991994120423004+11150-060850FM-15+0008TTCP V0209991C00001220001CN0112651N1+02601+02301999999ADDAG10999GA1021+004509999MA1101291999999REMMET005NEW ;EQDQ01+000000PRSWM2
0043031320999991994040220004+54850-004950FM-12+0012EGOY V0203201N010319999999N9999999N9+00331+00061100931ADDAG12999MD1210371+9999REMSYN010 555 91951
0119260380999991994022400004+59350+024800FM-12+0044ULTT V0200701N00401007501CN0180001N9-00501-00671099861ADDAG12000GA1071+007509059GF107991071051008001001001MA1999999099431MD1710201+9999REMSYN010 333 87625EQDQ01+999990APOSP 
0076060710999991994010921004+56450+010967FM-12+000899999V0201401N01081004201CN0100001N9+00301+00171101441ADDAA106000091AG14000GF108991081051004501999999MA1999999101321MD1710071+9999
0170780620999991994042718004+26550-078700FM-12+0011MYGF V0201001N00571090001CN0190001N9+02741+01971101861ADDAA106000191AA224007691AG10002AY181061AY221061GA1021+006009089GA2041+010509059GF107991041081008001001021MD1999999+0231MW1021REMSYN035 333 58023 70076 82820 84635 87075;
0010913380999991994041610004+05333+153733FM-12+000299999V0200201N003119999999N9999999N9+02811+99999100881ADDAG10999
0154636820999991994081309004+00450+033183FM-12+1173HUJI V0203001N00211006001CN0500001N1+99999+99999999999ADDAA106000091AG10000GA1051+006009089GA2011+007509099GF106991061091008001031001MA1999999088371MD1999999-0101REMSYN037 333 59010 85820 81925 555 10205 /99;
0069083910999991994071510304+37417-005900FM-15+0031LEZL V0200801N00621999991CY0099001N1+03501+02101999999ADDAG10999MA1101291999999REMMET016NEW CAVOK NOSIG;EQDQ01+000000PRSWM2
0101067700999991994082206504+46000+008967FM-15+0276LSZA V0209991C00001999991CY0099001N1+02001+01801101891ADDAG12999MA1101801098691REMMET016NEW CAVOK NOSIG;EQDQ01+999990APOSP Q02+999990APOSLPQ03+000000PRSWM2
0087475750999991994092918004+40817+140767FM-12+000399999V0200701N005119999999N0150001N1+01911+01341100791ADDAG12002AY181061AY221061GF108991081021999999999999MA1999999100751MD1810321+9999MW1251
0087725326999991994020815004+41750-089667SAO  +0197SQI  V0200601N005610066019N0080471N1-01061-01341999999ADDAG11000GD12991+0048099GD24991+0066099GF108991999999999999999999MA1101561999999MW1001
0217039170999991994120800004+54650-006217SY-MT+0081EGAA V0201801N00931030001CN0600001N1+00431+00181098731ADDAA106000191AG10001AY181061AY211061GA1021+006009999GA2071+030009999GF199999011051008001031999MA1098711999999MD1710341+9999MW1021REMSYN029 333 81620 86360 90710 91125;MET008NEW NOSIEQDQ01+000062SCOTCVQ02+000000PRSWM2
0135077900999991994033000004+42550+009483SY-MT+0012LFKB V0202301N00211220001CN0250001N1+00891+00691102611ADDAA106000091AG14000GF100991001001999999001001MA1102611102461MD1010011+9999REMSYN010 333 95090MET015NEW CAVOK NOSIGEQDQ01+000000PRSWM2
0154034820999991994113022004+52650+000567SY-MT+0023EGYM V0201501N00211004501CN0070001N1+00701+00451102831ADDAG11999AY121011AY221011GA1071+004509999GF107991071051004501999999MA1102811999999MD1210041+9999MW1051REMSYN011 333 87615;MET025NEW WHT BECMG BKN012 GRN;
0109718660999991994060318524+52167-106683SAOSP+0504YXE  V0202801N003010090019N0241401N1+99999+99999999999ADDAG10000GD12991+0036099GD24991+0090099GF108991999051999999999999MW1001REMAWY028CU3SC7 TCU EMBDD SHWRS W NW;
0093725116999991994123116004+40117-076300SAO  +0123LNS  V0209991C00001075001EN0482801N1+00051-00951999999ADDAG11999GD14991+0750099GF108991999999999999999999MA1103081999999MW1001REMAWY012BINOVC OVHD;
0089945000999991994061420004-28067+145733FM-12+019199999V0200501N00101220001CN0500001N1+00701+00571102301ADDAG10999AY101999AY201999GA1001+999999999GF100991001001999999001001MA1999999100011MW1021
0094336640999991994111506004+48367+027100FM-12+023899999V0201701N00301036001CN0200001N1-00531-01131101961ADDAA106000091AG14000GF106991061001999999031001KA1999N-00601MD1710111+9999REMSYN011 333 21060;
0179075020999991994110412004+44533-001133FM-12+0033LFBC V0201001N00211015001CN0150001N1+01251+01201100451ADDAA103002091AA206002091AG10001AY161061AY221061GA1011+000159079GA2041+015009059GF108991041081000251071999MA1999999100151MD1610181+9999MW1611REMSYN029 333 60027 81700 84650 87360;
0116172800999991994102404504+37883+040183FM-15+0677LTCC V0209991C00001030001CN0112651N1+01501+01401999999ADDAG10999GA1021+001209999GA2071+030009999MA1102301094401REMMET015NEW AUTO NOSIG;EQDQ01+999990APOSP Q02+000000PRSWM2
0091035110999991994120918004+52433-003117FM-12+021599999V0202701N00101220001CN0250001N1+00501+00251999999ADDAG12000GA1011+015009059GF101991011051017501999001REMSYN011 333 81650;EQDQ01    003SCOMCG
0100350670999991994030800004+51883+066333FM-12+022299999V0200601N00201220001CN9999999N9-02831-03201104101ADDAG12000GA1001+999999999GF100991001001999999001001MA1999999100951MD1810201+9999REMSYN010 555 1/130
0084338830999991994060115004+46300+028667FM-12+013699999V0202901N00301007501CN0200001N1+01901+00611101261ADDAG12000GF106991061021008001001001MA1999999099671MD1710151+9999EQDQ01+999990APOSP 
0097727855241141994022805184+47617-117650SAOSP+0750SKA  V0200801N00251000301WN0004021N1+99999+99999999999ADDAG11999ED199U04889GD15991+0003099GF109991999999999999999999MA1102001999999MW1451REMAWY005RVR16
0084265540999991994091521004+55817+027950FM-12+013399999V0201701N00301075001CN0150001N1+02041+01511100641ADDAG12000GF108991031001999999031071MA1999999099111MD1210021+9999EQDQ01+999990APOSP 
0123999999999991994100106004+17500+143400FM-13+9999JCDE V0203301N00571045001CN0200001N1+03001+02601100771ADDAG10000GF105991031021004501041021MD1710201+9999SA1+3109UA1M030209999UG1070253209REMSYN031 22273 00310 20304 332// 40705;
040572532014842199403030000C+40667-089683SY-SA+0199PIA  V0203205N004152200059N0096005N9-00175-00445102025ADDAA101000095AA206000091AG10000AJ100059199999999AY101061AY201061GA1999+006105065GF100005001999999999999999KA1120M+00111KA2180N-00721MA1101931099515MD1610031+9999MW1101MW2455REMSYN032 333 10011 21072 4/005 555 90300AWY025FEW SC/ 603 1500 90402 34EQDQ01+999990APOA  N01 07000JPWTH 0QNNE71 0 00000G71U0 99999H71 0 15020K71 0 00024L71 0 00600M71 0 29385N71 0 07000Q71 0 10202S71 0 00029V71 0 00000X71 0 32008
0142724695230361994050906004+39717-104750SAO  +1726BKF  V0203301N003010330019N0402341N1+01051+00501101661ADDAA106999929AG13000GD12991+0150099GD23991+0330099GD33991+0750099GF107991999041999999061031MA1102131999999MD1010101+9999MW1001REMAWY006RCRNR;
0072307570999991994070309004+52117+112667FM-12+096899999V0201401N00501075001CN0500001N1+02181+01051099721ADDAG12002AY181031AY221031GF107991031091008001001081MD1710051+9999MW1081
0084314450999991994111606004+51450+128117FM-12+019799999V0201801N00401220001CN0500001N1-00781-01571102661ADDAG12000GF103991001001999999001021MA1999999100071MD1710241+9999EQDQ01+999990APOSP 
0133467340999991994050123004+23583+119617FM-15+0031RCQC V0201901N00411030001CN0112651N1+02701+02401100951ADDAG10999GA1021+004209999GA2071+030009999MA1100911100581REMMET016NEW A2980 NOSIG;EQDQ01+999990APOSP Q02+999990APOSLPQ03+000000PRSWM2
0111032610999991994121806004+54133-001417FM-12+0035EGXD V0201301N002119999999N9999999N9+00421+00341100181ADDAA199001091AG10000IA1019IA2999+00009KA1120N+00421MD1610161+9999REMSYN017 333 20042 30100;EQDQ01+000002VOVAR 
0056150980999991994112005004+00000+999999FM-12+999999999V0203601N00201036001CN0150001N1-00111+99999999999ADDAG10999GF107991071001999999071001REMSYN011 333 92600;
031472677024033199406300800C+45800-108533SAO  +1087BIL  V0202705N00315045725EN0320005N1+02285+00225100945ADDAA101000095AA206008091AG13999GA1999+045725035GD13075+0450099GF107075999999999999999999MA1101351088945MD1010151+9999MW1001REMAWY00698631;EQDQ01+999990APOSP Q02-000127APC3  N01 00000JPWTH 0QNNE71 0 00409G71 0 00150H71 0 23150K71 0 00036L71 0 02000M71 0 26265N71 0 00000Q71 0 10094S71 0 00073V71 0 00909X71 0 27006
0144313480999991994111309004+53050+136033FM-12+015499999V0209991C00001220001CN0500001N1-02761-03061103151ADDAA106000091AG14000GA1001+999999999GF100991001001999999001001KA1999M-01361MA1999999100981MD1210191+9999REMSYN011 333 11136;EQDQ01+999990APOSP 
0061032433999991994091214504+55033-001700FM-15+0081EGNT V0203401N00361001801CN0112651N1+01201+01101999999ADDAG11001GA1071+001809999MA1099801999999MW1611REMMET005NEW ;
