0074714820999991995112316004+52183-127467SAO  +0032WME  V0200501N013319999999N9999999N9+00501+00501100421ADDAG11999MA1999999100031MW1001OC101641EQDQ01+999990APOSP Q02+000002VOVAR 
0121999999999991995112606004+28700-065400FM-13+9999ZBWE V0201601N01541002101CN0100001N1+02361+02111100791ADDAG10000AY151061AY221061GF108991081071002501999999MD1610121+9999MW1511SA1+2429UA1M059999999REMSYN019 22263 02242 20506;
0081984250999991995010315004+14583+120983FM-12+001699999V0200401N00201009001CN0030001N1+02741+02321101341ADDAA106000091AG10000GF107991051081004501001081MD1110011+9999REMSYN011 333 56999;
0055999999999991995110309164+12967+130633FM-18+9999DRIB V02099999999999999999N9999999N9+99999+99999999999ADDAG10999MW1001REMSYN01152653     ]EQDQ01+000002VOVAR 
0101072220999991995110504004+47167-001600FM-15+0027LFRS V0200701N00411999991CY0099001N1+00101-00201103181ADDAG11999MA1103121102851REMMET016NEW CAVOK NOSIG;EQDQ01+999990APOSP Q02+999990APOSLPQ03+000000PRSWM2
0087747880128101995052411004+27850-082517SAO  +0004MCF  V0200601N002012200019N0112651N1+02331+02161101711ADDAG10999GD12991+0030099GD22991+0750093GF102991999999999999999999MA1101691999999MW1001
0082716320999991995101516004+45800-080533SAO  +0190WBI  V0203001N006612200019N0144841N1+00801+00201999999ADDAG11999GD12991+0093099GF102991999999999999999999MW1001OC101281REMAWY0080010 M ;
0309726540149361995050710003+44383-098217SAO  +0390HON  V0201505N00675002745MN0112005N1+01335+01225100965ADDAA101000095AG11999GA1999+002745075GD14085+0027019GF108085999999999999999999GP10060000001000000001000000001000GR100600000900009MA1100951096335MW1001EQDQ01+999990APOSP N01 00000JPWTH 0QNNE71 0 00610G71 0 00009H71 0 16009K71 0 00054L71 0 00700M71 0 28445N71 0 00000Q71 0 10096S71 0 00056V71 0 01010X71 0 15013
0140726116947651995082011003+43633-072300SAO  +0182LEB  V0209999C000012200019N0482801N1+01001+00721999999ADDAG11999GF100991999999999999999999GP10060004301011025801016002201011GQ100600851907719GR100600112913239MA1102131999999MW1001REMAWY006VLY F;
0334722970231291995111608003+33817-118150SAO  +0008LGB  V0203005N00155003055WN0016005N1+01395+01335101705ADDAA101000095AG10999GA1999+003055105GD15085+0030019GF108085999999999999999999GP10060000001000000001000000001000GR100600000900009MA1101731101565MW1455REMAWY016LAST/ 400680055;EQDQ01+000100PRSWM2N01 07000JPWTH 0QNNE71 0 00710G71 0 00010H71 0 45010K71 0 00056L71 0 00100M71 0 29990N71 0 07000Q71 0 10170S71 0 00057V71 0 01010X71 0 30003
0080722555129351995032712174+28733-096250SAOSP+0005PSX  V0200301N00611003001MN0112651N1+99999+99999999999ADDAG10000GD14991+0030019GF108991999999999999999999MA1101491999999MW1001OC101021
0164031000999991995052115004+56500-006883FM-12+0012EGPU V0201701N01031006601CN0070001N1+01031+00931102091ADDAG12001AY161031AY261031GA1011+001209079GA2031+003609079GA3061+006609049GF108991081051001501999999MD1710101+9999MW1611REMSYN035 333 81704 83712 86522 90710 91128;
0127716278999991995112909004+45683-074033SAO  +0082YMX  V0200401N001510600019N0402341N1-01401-01801102531ADDAG11000GD12991+0090099GD22991+0270099GD34991+0600099GF108991999999999999999999MA1102471999999MW1001REMAWY016SC1AC5CS5 0001 ;
0065716240999991995060723254+43667-079633FM-16+0173YYZ  V0200101N00571009001CN0048281N1+99999+99999999999ADDAG10999GA1071+009009089GA2071+036009999MW1801REMMET008NEW TCU6
0050345240999991995022412004+48350+038433FM-12+033499999V0201801N00801036001CN0300001N1+00421-00191101931ADDAG12000GF106991051001999999031011MD1710221+9999
0421701330266161995072404003+66867-162633SAO  +0003OTZ  V0201105N006750274359N0560005N1+01725+00945100595ADDAG11999GA1999+019815065GA2999+027435035GA3999+060965025GD11035+0180013GD23035+0270019GD34025+0600019GF108065999999999999999999GP10060032401010023201016021901010GQ100600632925809GR100600597913239MA1100581100525MW1001EQDQ01+999990APOSP N01 00000JPWTH 0QNNE71 0 00104E71 0 00404E71 0 00602G71 0 00090H71 0 15065H71 0 23090H71 0 37200K71 0 00049L71 0 03500M71 0 29685N71 0 00000Q71 0 10059S71 0 00063V71 0 01008X71 0 11013
0263722160138691995053100003+31533-084183SAO  +0059ABY  V0200401N003010051019N0080471N1+02111+02051101591ADDAA106999999AG10004GD12991+0021019GD23991+0051019GD34991+0105019GF108991999999999999999999GP10060011801011003201016011201011GQ100600778928849GR100600279913299MA1101631999999MW1801MW2951REMAWY048TB04 OCNL LTGICCG ALQDS MOVG SE RB27 / 32412 94;EQDQ01  00002PRCP06
0191724666999991995101801003+39567-104850SAO  +1793APA  V0201401N005112200019N0804671N1+01331-00231999999ADDAG11999GD12991+0750013GF102991999999999999999999GM1006000010190000019000101999999GP10060000301024004801027000201024GQ100600885925699GR100600010904029MA1101961999999MW1001REMAWY009K LYR SW;
0069949340999991995122012004-37267+150050FM-12+001199999V0202101N015419999999N9999999N9+01521+99999100221ADDAA106000091AG10000MA1999999100061MD1210251+9999EQDQ01+000002VOVAR 
0101289520999991995091212004+53217+063617FM-12+015699999V0203201N00101220001CN0200001N1+03011+00321101971ADDAG12000GA1001+999999999GF100991001001999999001001MA1999999100201MD1710061+9999REMSYN011 555 1/036;
0110860860999991995062200004-22283-057867FM-12+008799999V0209991C00001220001CN0200001N1+01901+01381101721ADDAA106000091AG10000GA1001+999999999GF100991001001999999001001KA1999M+02501MD1210061+9999REMSYN011 333 10250;
0061026070999991995020703504+56300+012850FM-15+0047ESDB V0202901N01231999991CY0099001N1+00401+00101999999ADDAG12999MA1098981999999REMMET008NEW CAVOEQDQ01+000000PRSWM2
0176546620999991995111821004+38900+121633SY-MT+0097ZYTL V0200201N00901003001CN0280001N1+00361+00101102401ADDAG10001AY161031AY261031GA1071+003009999GA2081+030009999GF108991031071002501021999MA1102511101311MD1210081+9999MW1601OC101701REMMET005NEW ;EQDQ01+999990APOSP Q02+000000PRSWM2
0100387050999991995041415004+39483+067633FM-12+101599999V0202301N00201220001CN9999999N9+01411+01001999999ADDAA106000091AG10000GA1001+999999999GF100991001001999999001001REMSYN009 555 00,;EQDQ01+000002VOVAR 
0121719045999991995030318004+59300-069600SAO  +0035YLA  V0209991C00001087001EN0193121N1-02901-03401101471ADDAA106999999AG10000GD14991+0870099GF108991999999999999999081MA1101421999999MW1761REMAWY010CS8 6015 ;EQDQ01  00002PRCP06
0122607150999991995012722304+36833+010233FM-15+0004DTTA V0202601N00311220001CN0080001N1+01201+00801102541ADDAG10999GA1021+006909999GA2021+007809999MA1102511102491REMMET005NEW ;EQDQ01+999990APOSP Q02+999990APOSLPQ03+000000PRSWM2
0201716000999991995042100154+43933-060017SAOSP+0004WSA  V0201601N00971001501MN9999999N9+00701+00701100781ADDAG10000GD13991+0015099GD23991+0036099GD34991+0042099GF108991999999999999999999MA1100781100731MW1001OC101231REMAWY0311.0 P- M/07/07/1619G24/976/ M ;EQDQ01+999990APOSP Q02+999990APOSLPQ03+000002VOVAR 
0071725496999991995082418009+42600-095233NSRDB+045499999V020999999999999999999999999999+99999+99999999999ADDGP10060080601028083001031011701028GQ100600338915619GR100601111913379
0119727130146041995121715003+46683-068050SAO  +0146PQI  V0209999C000019999999N0160931N1-02171-03231999999ADDAG11000GP10060020201025017201028015801025GQ100600750915219GR100600366914139MA1102131999999MW1001REMAWY011CLR BLO 120
0122717050999991995080719004+46117-064683SAO  +0071YQM  V0200301N002512200019N0241401N1+02601+01201102251ADDAG11999GD12991+0120099GD22991+0750093GF102991999999999999999999MA1102241101201MW1001REMAWY007CU1CI ;EQDQ01+999990APOSP 
0125727845241631995020917003+46267-119117SAO  +0124PSC  V0202001N004112200019N0804671N1+00551+00001999999ADDAG11999GF100991999999999999999999GP10060015101011056201016003901011GQ100600785912599GR100600280914059MA1102271999999MW1001
0045084490130251995012501034+36650-006350FM-16+0026LERT V0203601N00151220001CN0018001N1+01201+01001999999ADDAG10999MA1102781999999MW1101REMMET005NEW ;
0155725540149491995112914003+41117-095917SAO  +0319OFF  V0201201N003612200019N0241401N1-00621-00951101941ADDAG11999GD12991+0390019GD22991+0750019GF102991999999999999999999GP10060000701011006101017000501011GQ100600877912119GR100600029907389MA1101761999999MW1001
0108918470999991995021700004-21917-157950FM-12+001599999V0200101N00261220001CN0500001N1+02951+02701101181ADDAA106000091AG10000AY111061AY221061GF105991021011008001001011KA1240N+02651MW1021REMSYN017 333 20265 568/9;
0070338370999991995011113004+46483+030633FM-15+0035UKOO V0202301N00501002701CN0030001N1-00101-00401999999ADDAG11999GA1081+002709999MA1099701999999MW1101REMMET014NEW 057 NOSIG;
0104647540999991995011212004+11033+020283FM-12+0436FTTN V0203401N00311220001CN0120001N1+03401+00281100801ADDAC1099AG10000GA1031+075009009GF103991001001999999001021MD1999999+0221REMSYN023 333 0//00 58022 83075;
0475703500255011995042400003+57750-152500SY-SA+0005ADQ  V0201705N00465013115MN0160005N1+00785+00285103065ADDAA101000095AA206000091AG10000GA1999+013115065GA2999+036585045GD13055+0129019GD24035+0360019GF108085999051999999021999GP10060019401010000001016019401010GQ100600478920739GR100600908913529KA1120M+00891KA2180N-00061MA1103051102625MD1310081+9999REMSYN027 333 10089 21006 555 92400;AWY0258/52// 53008 10048 20041;EQDN01 00000JPWTH 0QNNE71 0 00406E71 0 00604G71 0 00043H71 0 15043H71 0 21120K71 0 00037L71 0 01000M71 0 30305N71 0 00000Q71 0 10306S71 0 00046V71 0 01010X71 0 17009
0137995180999991995081718004+60800+001600FM-18+9999DB51 V0201901N00721012001CN0200001N1+01631+01391102091ADDAG10000AY121061AY221061GF106991061051012501999999MD1410001+9999MW1011UA1M030059999UG1070202609REMSYN031 22200 20301 326// 40704 80148;
0105153020999991995011803004+45500+025583FM-12+109399999V0209991C00001007501CN0100001N1-01101-01101999999ADDAA106000091AG14000GF108991081051008001999999MA1999999089621MD1710081+9999ME1314909REMSYN011 333 92600;
0029992400999991995010817004+38450-074700FM-18+0003DB24 V0203201N008019999999N9999999N9+00161+99999102101ADDAG10999EQDQ01+000002VOVAR 
0155724033999991995062023003+38267-077450SAO  +0026EZF  V0202201N002012200019N0160931N1+03111+02221999999ADDAG10999GD12991+0147019GD22991+0180019GF102991999999999999999999GP10060020201025015501028014401025GQ100600679928319GR100600497913239MA1101051999999MW1001
0138701745999991995010115003+67500-148483SAO  +0585WCR  V0200401N00251012001EN0112651N1-01561-02121999999ADDAG11000GD14991+0120019GF108991999999999999999999GP10060000001000000001000000001000GR100600000900009MA1102131999999MW1001REMAWY006NOSPL;
0384726360148401995022806003+43167-086233SAO  +0190MKG  V0203605N00415006405MN0160005N1-00225-00505102285ADDAA101000095AA206999929AG13000GA1999+006405065GD14085+0063019GF108085999051999999999999GP10060000001000000001000000001000GR100600000900009KA1999M-00121KA2999N-00231MA1102171099865MD1310051+9999MW1001REMAWY0318/5/// 53005 6000/ 10030 20028;EQDN01 00000JPWTH 0QNNE71 0 00610G71 0 00021H71 0 15021K71 0 00023L71 0 01000M71 0 29490N71 0 00000Q71 0 10228S71 0 00028V71 0 01010X71 0 36008
0137484250999991995121900004+14467+100133FM-12+000899999V0203501N00101220001CN0070001N1+02401+02251101411ADDAA106000091AG10000AY101061AY201061GF106991021011008001001061KA1120N+02351MA1999999101311MD1999999+0001MW1101REMSYN017 333 20235 58000;
0036150690999991995100814004+47317+025133FM-12+091099999V0203201N00201220001CN0250001N1+01681+99999999999ADDAG12999GF104991041021008001001001
0106607600999991995111320004+33917+008100FM-15+0093DTTZ V0200201N00311220001CN0112651N1+01801+00401101891ADDAG10999GA1021+009009999MA1101801100791REMMET005NEW ;EQDQ01+999990APOSP Q02+999990APOSLPQ03+000000PRSWM2
0116020960999991995090918004+67217+023400FM-12+016899999V0200501N00101017501CN0500001N1+00661+00051102451ADDAA106000091AG14000GA1081+017509029GF108991081051017501999999KA1120M+01021MD1710061+9999REMSYN017 333 10102 88697;
0117722890931361995011618004+34233-118067SAO  +1739MWS  V0202801N001512200019N1600001N1+00001-00561999999ADDAA106000091AG10000GD12991+0030093GF102991999999999999999999MW1001REMAWY040OCNL F E-S FEW CI NW/ 312 1401 24 NOSPL;
0095405820999991995112110004+29217+047983FM-15+0055OKBK V0202701N01801999991CY0099001N1+02901+00501999999ADDAG10999KA1999M+99999REMMET028NEW CAVOK 11016 NOSIG/99 OO;EQDQ01+000000PRSWM2Q02 -01602ATMX  
0050542180999991995092515004+42267+118967FM-12+057299999V0202901N00101220001CN0200001N1+00491+00231101951ADDAG12000GF104991041051017501001001MD1210101+9999
0093478030999991995072719004+33883+130650FM-15+0033RJFA V0201701N00261999999CN0112651N1+02301+02201999999ADDAG10999GA1021+009009999GA2021+999999999MA1101491999999REMMET008NEW (A29EQDQ01+000000PRSWM2
0126102720999991995100722004+53200+012517FM-12+0074ETGW V0202101N00261030001CN9999999N9+01531+01451102611ADDAG12999GA1021+014109059GF107991021051012501031081MA1999999101721MD1310031+9999REMSYN017 333 82647 87272;EQDQ01+000002VOVAR 
0141719043999991995042712004+60017-070000SAO  +0117YAS  V0200701N005110360019N0241401N1-00101-00201103481ADDAA106000091AG10000GD12991+0090099GD23991+0360099GF107991999051999999071999MA1103391999999MW1001REMAWY034SC2AC6 SNOW CVR/MEDIUM PACK 2020 ;
0065714270999991995042719004+49317-067383SAO  +0005WTG  V0202701N004619999999N0144841N1+00401+00101101911ADDAG11999MA1999999101831MW1001REMAWY0068002 ;EQDQ01+999990APOSP 
0113701625999991995091912003+68133-151733SAO  +0643AKP  V0201801N003619999999N0160931N1+00551-00451999999ADDAA106000091AG10000GP10060000001000000001000000001000GR100600000900009MA1101321999999MW1001REMAWY011CLR BLO 120
0080702120266331995060407004+61783-166033SAO  +0146PACZ V0200101N01181003601MN0160931N1+00221+00001999999ADDAG11999GD14991+0036099GF108991999999999999999999MA1101121999999MW1001OC101491
0092119760999991995102712004+49217+021650FM-12+022099999V0201701N00201220001CN0100001N1+01421+00211102331ADDAA106000091AG14000GA1001+999999999GF100991001001999999001001MA1999999099741MD1710241+9999
0063727119999991995111809004+46617-069533SAO  +031440B  V0209991C000019999999N9999999N9-00891-01231999999ADDAG11000MW1001REMAWY019PKWND 004/RM MV262;EQDQ01+000002VOVAR 
0170085090999991995031422404+38767-027100FM-16+0055LPLA V0200401N003610036019N0112651N1+99999+99999999999ADDAG10999GA1021+002109999GA2071+003609999GA3081+007509999MA1103151102491REMMET053NEW CIGM012 CNTR RNWY WND 02008KT HLTPS SW-W IN CLDS;EQDQ01+999990APOSP Q02+000000PRSWM2
0119478080999991995031300004+33583+130450FM-15+0012RJFF V0201701N00211010501CN0090001N1+00801+00601999999ADDAG10000GA1071+010509999MA1102101999999REMMET050NEW (BKN035CU A3016) FCST 0006 BECMG 0002 33010KT;EQDQ01+000000PRSWM2
0151999999999991995122712004+00000+141200FM-13+9999VRUB V0201301N00311002101CN0100001N1+02651+02501101071ADDAG10006AY161061AY221061GF108991081071002501999999MD1210121+9999MW1601SA1+3009UA1M020109999UG1020151309REMSYN037 22233 00300 20202 313// 40203 80255;
0077999999999991995122003004+53567-024333FM-18+9999DRIB V02099999999999999999N9999999N9+99999+99999100021ADDAG10999MD1710181+9999MW1001SA1+1059REMSYN01144769     ]EQDQ01+000002VOVAR 
0058153470999991995110213004+45133+024683FM-12+044899999V0209991C00001007501CN0080001N1+01021+99999999999ADDAG11999AY121011AY221011GF108991081001008001021999MW1101
0140725165999991995071010003+43533-072950SAO  +0240RUT  V0201401N00301030001MN0160931N1+01161+00771999999ADDAG11999GD13991+0300019GF107991999999999999999999GP10060000801024000101027000801024GQ100600873906119GR100600040908489MA1101291999999MW1001
0100944100999991995061301004-25050+115200FM-12+014499999V0201801N00101220001CN0500001N1+01001+00441102001ADDAA106000091AG10999AY101999AY201999GA1001+999999999GF100991001001999999001001MA1999999100291MW1021
0063999999999991995042422514+29367-052883FM-18+9999DRIB V02099999999999999999N9999999N9+99999+99999999999ADDAG10999MW1001SA1+2249REMSYN01113923     ?EQDQ01+000002VOVAR 
0081726365999991995010414004+43950-086467SMARS+018217C  V0203601N010219999999N0111121N1-01561+99999101861ADDAG10999GF107991999999999999999999MW1731SA1+0059UG1990099999REMSYN010LUDINGTON;
0058476820999991995122605004+35600+140100FM-12+001999999V0203201N010819999999N9999999N9+00461-01471101651ADDAG10999MA1999999101411MD1710121+9999EQDQ01+000002VOVAR 
0069038030999991995080513504+49917-006300FM-15+0031EGHE V0201501N00411999999CN0080001N1+99999+99999999999ADDAG12999REMMET031NEW 8SCT006 BKN025 19/17 Q1017;EQDQ01+000000PRSWM2
0098948040999991995122917004-35333+136117FM-12+003799999V0201001N00571220001CN0500001N1+01501+01311101341ADDAA106000091AG10999AY111999AY201999GF103991031051002501001001MA1999999100971MD1710161+9999MW1011
0125485650999991995072103304+08117+098317FM-15+0010VTSP V0203201N00261220001CN0112651N1+03101+02501101121ADDAG10999GA1021+006009999GA2021+090009999MA1101081101011REMMET008NEW NOSIEQDQ01+999990APOSP Q02+999990APOSLPQ03+000000PRSWM2
0398724210938141995011803003+39050-084667SAO  +0265CVG  V0201505N003650609659N0128005N1+00505+00335101845ADDAA101000095AG11000GA1999+030485035GA2999+060965025GD12025+0300019GD23055+0600019GF106055999001999999071991GP10060000001000000001000000001000GR100600000900009MA1101761098595MD1210081+9999MW1001REMAWY0138/078/ 52008;EQDQ01+999990APOSP N01 00000JPWTH 0QNNE71 0 00202E71 0 00406G71 0 00200H71 0 23100H71 0 37200K71 0 00038L71 0 00800M71 0 29115N71 0 00000Q71 0 10184S71 0 00041V71 0 00806X71 0 15007
0085172000999991995051219504+38433+038083FM-15+0849LTAT V0202101N00261999991CY0099001N1+01201+00801999999ADDAG10999MA1101901092111REMMET016NEW CAVOK VMUIG;EQDQ01+999990APOSP Q02+000000PRSWM2
0142155610999991995120903004+43533+028533FM-12+002899999V0203201N00801004201CN0100001N1-00141-00271999999ADDAG11000AY121031AY221031GF108991081051004501999999KA1999M-00181MD1410001+9999MW1021REMSYN029 555 11018 29076 92035 92435;EQDQ01+105943APOSLP
0063999999999991995030711514-20417-132017FM-18+9999DRIB V02099999999999999999N9999999N9+99999+99999999999ADDAG10999MW1001SA1+2829REMSYN01132817     ?EQDQ01+000002VOVAR 
0124477820999991995010502004+33667+135350FM-15+0108RJBD V0203301N00771220001CN0112651N1+00901-00101999999ADDAG10999GA1021+007509999GA2021+013509999MA1100911999999OC101441REMMET031NEW (SCT02 5CU SCT045SC A2981);EQDQ01+000000PRSWM2
0446725320148421995020405003+40667-089683SAO  +0199PIA  V0203305N009852200059N0160005N1-00115-00615101515ADDAA101000095AG11999GA1999+009455065GA2999+013415065GA3999+021345065GD12015+0093019GD22025+0132019GD32015+0210019GF104045999999999999999999GP10060000001000000001000000001000GR100600000900009MA1101421099035MW1001OC101441REMAWY014PKWND 3328/40;EQDQ01+999990APOSP N01 00000JPWTH 0QNNE71 0 00201E71 0 00203E71 0 00201G71U0 99999H71 0 15031H71 0 15044H71 0 15070K71 0 00021L71 0 01000M71 0 29245N71 0 00000Q71 0 10151S71 0 00030V71 0 00505X71 0 33019
0100313880999991995041415004+52350+129917FM-12+020799999V0209991C00001220001CN0500001N1-00641-00761102121ADDAG12000GA1001+999999999GF100991001001999999001001MA1999999099441MD1310161+9999EQDQ01+999990APOSP 
0058475700999991995083102004+37483+139917FM-12+021399999V0203101N001019999999N9999999N9+02251+02071100651ADDAG10999MA1999999098231MD1710121+9999EQDQ01+000002VOVAR 
0123725636240171995040503003+42833-103100SAO  +1005CDR  V0201901N011312200019N0241401N1+01381+00331999999ADDAG11000GD12991+0600019GF102991999999999999999999GP10060000001000000001000000001000GR100600000900009MA1100811999999MW1001
0040947290999991995122805004-33400+149650FM-12+074899999V0202201N004119999999N9999999N9+02701-01301999999ADDAA106000091AG10999EQDQ01+000002VOVAR 
0114585060999991995071600004+29583+115983FM-12+116599999V0202201N00201220001CN0300001N1+02381+01921100641ADDAA106000091AA224999929AG10000GA1001+999999999GF100991001001999999001001MD1210091+0201REMSYN017 333 00201 79999;
0102742070242011995060503414+47083-122583SAOSP+0092GRF  V0201801N002010150019N0112651N1+01221+01111999999ADDAG10000GD12991+0030019GD23991+0150019GD34991+0270019GF108991999999999999999999MA1101291999999MW1001
0151702590265231995080500003+60567-151250SAO  +0029ENA  V0201801N006112200019N1126541N1+01771+01051999999ADDAA106000091AG10000GD12991+0600013GF102991999999999999999999GP10060065301011081001017008801011GQ100600458920689GR100600926913279MA1100441999999MW1001
0073106870999991995112604004+49700+011950FM-15+0415ETIC V0201001N004110006019N0020001N1-00201-00201999999ADDAG11999GA1081+000609999MA1101561999999MW1101REMMET017NEW CIGM002 WR//;
0163151080999991995022521004+46933+025917FM-12+189899999V02099999999999999999N0150001N1-00631-00631999999ADDAA106000091AG10000AY141031AY241031GF108991999999999999999999MA1999999078971MD1310041+9999ME1313259MW1281OA149999999REMSYN017 333 91128 95100;EQDQ01  02802WGOSPD
0114030030999991995062700004+59883-001300FM-12+0005EGPB V0200401N00261220001CN0150001N1+00851+00791103511ADDAG11000AY111061AY211061GA1011+000609079GF103991031061000751001001MD1810051+9999MW1051REMSYN017 333 81702 83704;
0069916360999991995100506004-07233+177150FM-12+000299999V0202101N00211105001CN0200001N1+02591+02501999999ADDAA106007091AG10000AY121061AY281061GF106991021031004501031041MW1251
0094547510999991995102006004+37933+120717FM-12+004099999V0200401N00201036001CN0150001N1+01711+01241102081ADDAA106000091AG10000GF107991071001999999031999KA1999N+01311MD1710231+9999REMSYN011 333 20131;
0029889860999991995022508004-59450-027317FM-12+002799999V0202201N012019999999N9999999N9-00221+99999098781ADDAG10999EQDQ01+000002VOVAR 
0055712220999991995010623004+58417-130000SAO  +0816WKX  V0209991C000019999999N9999999N9-02501-02901102121ADDAG11999MW1001REMAWY011MMMM 7002 ;EQDQ01+000002VOVAR 
0155727856999991995062302003+47683-117317SAO  +0595SFF  V0201401N003010240019N0482801N1+99999+99999999999ADDAG11999GD12991+0120019GD23991+0240019GF107991999999999999999999GP10060011801024007401027009201024GQ100600694928269GR100600465913229MA1102071999999MW1001
0122011520999991995080211204+67267+014367FM-15+0013ENBO V0202701N00511000151CN0008001N1+01201+01201102051ADDAG10999ED199U09009GA1091+000159999MA1102001101891MW1451REMMET020NEW TEMPO 0300 VV001EQDQ01+999990APOSP Q02+999990APOSLP
0061030470999991995081516004+56867-004700FM-12+023799999V0202501N003119999999N0300001N1+01981+01171102091ADDAG12999MD1710051+9999OA140100721REMSYN017 555 1//14 91555;
0086999999999991995052206004+42200+004700FM-13+9999PGDF V0209991C00001220001CN0200001N1+01491+00941101901ADDAG10000GF102991001001999999001011MD1410001+9999SA1+1299REMSYN019 22214 00129 80118;
0069948740999991995092311004-36883+145183FM-12+014299999V0201801N004119999999N9999999N9+01131+00921101041ADDAA106004091AG10999MA1999999099351MD1210211+9999EQDQ01+000002VOVAR 
0098996110999991995033100004+53200-015000FM-18+9999DB61 V02099999999999999999N9999999N9+01091+00981102041ADDAG12000MD1210201+9999SA1+0989UA1M070509999REMSYN025 22200 00098 10710 70049;EQDQ01+000002VOVAR 
0469723870031601995080200003+36617-116017SAO  +1006DRA  V0202405N005752200059N0320005N1+04005-00065100745ADDAA106000091AG10000GA1999+024385085GA2999+076205005GD12025+0240019GD22999+0750019GF102025999011999999999991GP10060057001010075401016010101010GQ100600515926419GR100600825913269KA1999M+04161KA2999N+03721MA1101251089745MD1710171+9999MW1001REMAWY0258/101/ 57017 10107 20099;EQDQ01+000002SCOMCGN01 00000JPWTH 0P01    003SCCGD2QNNE71 0 00203E71 0 00200G71U0 99999H71 0 11080H71 0 32250K71 0 00031L71 0 02000M71 0 26500N71 0 00000Q71 0 10074S71 0 00104V71 0 00303X71 0 24011
0069949820999991995060605004-41317+148233FM-12+000599999V0200501N00261007501CN0500001N1+01351+01141999999ADDAA106000591AG10999AY181999AY221999GF107991071051008001999999MW1021
0059766013999991995021409434+20683-105250FM-15+0006MMPR V0209991C00001220001CN0112651N1+01901+01801999999ADDAG10999MA1101691999999REMMET006NEW .;EQDQ01+000000PRSWM2
0184690150931211995071615003+34300-116167SAO  +0626NXP  V0202701N00511009001EN0112651N1+02501+01551101281ADDAG10000GD13991+0090019GD24991+0300019GF108991999999999999999999GP10060018201011003201016017101011GQ100600703907709GR100600446913229MA1101661999999MW1001REMAWY020FIRST/ 8/57// 5////;
0095257030999991995061021004+62917+152417FM-12+020799999V0202101N00101030001CN0500001N1+00891+00581100351ADDAA106000091AG14000GF107991021031017501031001MA1999999097891MD1710101+9999EQDQ01+999990APOSP 
0153477890999991995062700004+34433+132917FM-15+0006RJOA V0209991V001519999999N0112651N1+02101+01501999999ADDAG10000GA1021+004509999GA2071+999999999MA1100411999999REMMET068NEW (SCT015CU A2967) FCST 0006 16007KT 9999 SCT020CU SCT030CU BKN230EQDQ01+000000PRSWM2
0157724836232081995080602003+38667-121400SAO  +0023MCC  V0201901N004612200019N0321871N1+03221+01111100561ADDAG10999GD12991+0120019GF102991999999999999999999GP10060023001025032001028012901025GQ100600715927729GR100600420913279MA1100581999999MW1001REMAWY008TCU N-E;
0127718900999991995061103004+49050-123867SAO  +0028YCD  V0201801N006110150019N0160931N1+01401+01101101461ADDAG11000GD12991+0009093GD22991+0090093GD33991+0150099GF107991999051999999999999MA1101461999999MW1001REMAWY016SF1SC3SC5 8001 ;
0140722899999991995021201003+33967-117633SAO  +0198CNO  V0202401N00411009001EN0160931N1+99999+99999999999ADDAG10999GD14991+0090019GF108991999999999999999999GP10060004401024000001027004401024GQ100600790924489GR100600266914049MA1101321999999MW1001
0077999999999991995070612004+55717-042883FM-18+9999DRIB V02099999999999999999N9999999N9+00731+99999101511ADDAG10999MD1710031+9999MW1001SA1+0749REMSYN01144616     ?EQDQ01+000002VOVAR 
0107726885241521995040215083+45517-118400SAOSP+1236MEH  V0200501N000519999999N9999999N9+00001-00281999999ADDAG10000GQ100600807909249GR100600221913689MA1102371999999MW1001REMAWY014PK WND 02 000;EQDQ01+000002VOVAR 
0063035030999991995051316004+52350-003950FM-12+006399999V0203301N005119999999N9999999N9+00861+00091102191ADDAG12999MD1210081+9999REMSYN011 555 91550;EQDQ01+000002VOVAR 
0101110360999991995012501504+48117+016567FM-15+0190LOWW V0209991V00101999991CY0099001N1+00301-00301101301ADDAG11999MA1101191098961REMMET016NEW CAVOK NOSIG;EQDQ01+999990APOSP Q02+999990APOSLPQ03+000000PRSWM2
0036152840999991995081008004+00000+999999FM-12+999999999V0200901N01001036001CN0100001N1+00691+99999999999ADDAG10999GF108991041031001501071999
0142726155999991995021008003+43567-071417SAO  +0166LCI  V0202301N004612200019N9999999N9-00951-01231999999ADDAG11999GD12991+0129019GF102991999999999999999999GP10060000001000000001000000001000GR100600000900009MA1100441999999MW1001EQDQ01+000002VOVAR 
0105718500999991995112605004+49783-094367SAO  +0411YQK  V0200501N001512200019N0241401N1-01701-01901101801ADDAG11999GD12991+0120099GF102991999999999999999999MA1101421096601MW1001REMAWY005SC2 ;EQDQ01+999990APOSP 
0086261410999991995040415004+59133+026233FM-12+012399999V0202801N00301009901CN0200001N1+00221-00461099881ADDAG12000GA1061+009909059GF106991061041008001051001MD1310201+9999REMSYN011 333 86633;
0061026410999991995112313204+56933+014733FM-15+0186ESMX V0201901N00411000151CN0004001N1+00101+00101999999ADDAG11999GA1091+000159999MA1101491999999MW1451REMMET005NEW ;
0058477700999991995111404004+34683+135183FM-12+005999999V0200801N002119999999N9999999N9+01571+01301101081ADDAG10999MA1999999100381MD1710371+9999EQDQ01+000002VOVAR 
0050028070999991995021815004+68617+027417FM-12+0148EFIV V0201601N00051030001CN0500001N1-00061-00171099211ADDAG12000GF106991031071008001031001MD1210071+9999
0072575840999991995082009004+29383+113083FM-12+005299999V0200901N00401002101CN0150001N1+02451+02351101081ADDAG10006AY191031AY281031GF108991081091002501999999MD1710101+9999MW1801
0102702220999991995080510354+64733-156933SAOSP+0046PAGA V0202301N005610150019N0160931N1+01001+00771999999ADDAG10999GD12991+0117099GD23991+0150099GD34991+0210099GF108991999999999999999999MA1100371999999MW1001
0092037260999991995100601004+51467-002600FM-12+001199999V0202001N00461075001CN0250001N1+01401+01001101181ADDAG12999GA1021+007509059GF108991021051008001001071MD1810211+9999REMSYN017 333 82625 88272;
0088150000999991995041204004+00000+999999FM-12+026199999V0203201N00501007501CN0040001N1-00041+99999999999ADDAG10999AY171041AY271041GF108991051051008001021999MW1711REMSYN021 333 96010 555 60002;
0094540960999991995031318004+44383+131150FM-12+049899999V0209991C00001220001CN0180001N1-00411-00851102341ADDAA106000091AG14000GF103991001001999999001011KA1999M+00741MD1710011+9999REMSYN011 333 10074;
0081408090999991995060809004+32867+059200FM-12+1491OIMB V0202701N01001220001CN0200001N1+03201-00641100421ADDAG10000GA1001+999999999GF100991001001999999001001MA1999999085011MD1710111+9999
0092471420999991995060604004+35900+128650FM-15+0035RKTN V0202701N001010600019N0090001N1+02901+01501999999ADDAG10999GA1021+012009999GA2071+060009999MA1101191999999MW1051REMMET020NEW CIG200/QFF1011PT
0185176090999991995050412004+34883+033633SY-MT+0002LCLK V0202201N01181220001CN0150001N1+02181+01131101211ADDAA106000091AG10000GA1021+006009089GA2021+007509099GF103991031091008001001001MA1101191101191MD1710181+9999REMSYN035 333 81820 81820 82925 91032 91132;MET008NEW NOSIEQDQ01+000000PRSWM2
0066030580999991995122618004+57683-004167FM-12+000399999V0202501N00311220001CN0400001N1-00321-00461101411ADDAG12000GA1001+999999999GF100991001001999999001001MD1310191+9999
0155722196999991995062621003+33883-084300SAO  +0305PDK  V0201701N003612200019N0128751N1+03111+02051999999ADDAG11000GD12991+0240019GD22991+0750019GF102991999999999999999999GP10060069001024042701027035601024GQ100600385926549GR100601033913229MA1101221999999MW1001
0489911780225141995020605003+21317-158067SAO  +0015BKH  V0202605N010350120019N0112005N1+02115+01785101491ADDAG10999GD12991+0060019GD23991+0120019GD33991+0210019GF107995999999999999999999GP10060000401025000001028000401025GQ100600876925229GR100600023905519MA1101421999999MW1001OC101491REMAWY025RWU ALQDS PK WND 2734/42;EQDN01 00205KCLC1 3N02 00409KCLC2 3N03 00409KCLC3 3N04 00040CCLHT 3N05 29950EALTP 3N06 29915FPRES 3N07 00000JPWTH 0N08 10149ISLVP 3QNNE41 3 00205E41 3 00409E41 3 00409G41 3 00040K41 0 00064L41 0 00700C41 3 29950M41 3 29915N41 0 00000Q41 3 10149S41 0 00070V41 0 00999X41 0 26020
0058477560999991995030815004+35067+134017FM-12+014799999V0202601N002619999999N9999999N9+00141-00031102601ADDAG10000MA1999999100751MD1110071+9999EQDQ01+000002VOVAR 
0085152540999991995072315004+45650+023917FM-12+145499999V0200501N00201220001CN0100001N1+02111+01491999999ADDAA106000091AG14000GF102991021021004501001001MA1999999085871MD1810041+9999ME1315439
0061606805999991995071505304+22817+005467FM-15+1377DAAT V0201201N00931999991CY0099001N1+02901-00201999999ADDAG10000MA1101901999999REMMET008NEW CAVOEQDQ01+000000PRSWM2
0076442410999991995103006004+48917+106067FM-12+080799999V0203601N00601220001CN0500001N1-00621-01831103121ADDAA106000091AG14000GF103991021001999999041011MA1999999093141MD1410001+9999
0109435770999991995121306004+01883+073500FM-12+000299999V0200501N00411045001CN0280001N1+02901+02251101511ADDAA106000091AG10000GA1011+005709089GF107991011021004501071999MD1999999+0061REMSYN023 333 58006 81819 87363;
0070569690999991995100409004+21500+101583FM-12+063399999V0200401N00101220001CN0300001N1+02841+02141100581ADDAG10000GF102991021011008001041001MD1710251+0021REMSYN011 333 00201;
0151999999999991995120612004-28900+036200FM-13+9999HPKW V0200701N00981220001CN0200001N1+02451+01541101371ADDAG10000AY101061AY211061GF104991021011004501061031MD1510051+9999MW1021SA1+2409UA1M040209999UG1050200509REMSYN037 22223 00240 20404 305// 40504 80190;
0187153880999991995081818004+44717+021617FM-12+008299999V0201601N005019999999N0100001N1+02641+99999999999ADDAA124000091AG14000AJ199999999999999GA1041+000309029GF107991001999999999001061IA1269REMSYN041 333 000/2 15389 42960 70000 84201 95000;EQDQ01+000082SCOLCGQ02+000992SCOLCBQ03  09602SNDP  
0159118260999991995070212004+48533+017833FM-12+0169LKPP V0202001N00401090001CN0100001N1+02501+01821100981ADDAA106000091AG14000GA1011+012009089GA2031+015009059GF108991031081012501999071MA1999999099131MD1710041+9999REMSYN023 333 81840 83650 88270;EQDQ01    003SCOMCG
0069941020999991995082400004-13750+126133FM-12+000899999V0209991C000019999999N9999999N9+02591+99999101641ADDAA106000091AG10000MA1999999101551MD1210241+9999EQDQ01+000002VOVAR 
0058151700999991995061322004+46367+025733FM-12+066299999V0209991C00001007501CN0070001N1+01271+99999999999ADDAG12999AY121011AY221011GF107991071031008001001001MW1101
0086717390999991995062201004+48567-081367SAO  +0295YTS  V0201001N002012200019N0241401N1+02201+01001101941ADDAG11999GD13991+0660093GF107991999999999999999999MA1101901098401MW1001REMAWY005CI1 ;
0043032300999991995041322004+55283-002283FM-12+020799999V0203501N001019999999N9999999N9+00511+00391103881ADDAG12999MD1210081+9999EQDQ01+000002VOVAR 
0121999999999991995061506004+41100+002000FM-13+9999FZVN V0200701N00571007501CN0500001N1+01801+01271101741ADDAG10000AY121061AY221061GF108991081051008001999999MD1410001+9999MW1021SA1+1789UA1M049999999REMSYN019 22200 00178 20403;
0167833780999991995101018004-15867-047933SY-MT+1061SBBR V0201001N00151007501CN0040001N1+02001+01811100701ADDAA106007091AG10011AY161061AY221061GA1071+007509089GA2081+030009999GF108991051021008001021999MA1101391999999MD1999999+0111MW1631REMSYN017 333 58011 60071;MET005NEW ;
0102725454999991995101602003+41283-091667SAO  +0230AWG  V0203201N003619999999N0160931N1+00941-00171999999ADDAG11999GP10060000001000000001000000001000GR100600000900009MA1101761999999MW1001REMAWY011CLR BLO 120
0077935460999991995020411004-41300+173233FM-12+000799999V0202401N002610069019N0200001N1+01791+01601100831ADDAA106000091AG10999GA1061+006909999MD1210141+9999REMSYN017 333 86/23 88/62;
0100071270999991995010406004+48717-001850FM-12+004199999V0201601N00931036001CN0200001N1+00241-00161102601ADDAA106000091AG14000GF108991041051017501071999KA1999N+00181MD1710091+9999REMSYN017 333 20018 92438;
0346724940232341995081215003+37617-122383SAO  +0002SFO  V0203305N003152200059N0160005N1+01335+01175101225ADDAA101000095AG10000GF100005999999999999999999GP10060012601010030201016006201010GQ100600778908039GR100600280913309MA1101221101155MD1310101+9999MW1001REMAWY039F BNK N-SE AND NW/ 53010/ SOSF 62/0000;EQDQ01+999990APOSP N01 00000JPWTH 0QNNE71 0 00099G71U0 99999K71 0 00053L71 0 01000M71 0 29870N71 0 00000Q71 0 10122S71 0 00056V71 0 00000X71 0 33006
0152722860231191995101523003+33883-117267SAO  +0469RIV  V0202901N006612200019N0080471N1+02551+01051101541ADDAG10999GD16991+0001519GF110991999999999999999999GP10060017901011000001017017901011GQ100600595923259GR100600698913759MA1101731999999MW1051REMAWY003H2;
0065263780999991995060100004+57150+031183FM-12+007199999V0209991C00001030001CN0200001N1+01351+01271101771ADDAG12000GF106991061001999999031001MA1999999100911MD1810041+9999
0058727833999991995112709004+44517-114217SAO  +1546U15  V0202401N001519999999N9999999N9-00171-00671999999ADDAG11000MW1001REMAWY014PK WND 04 000;EQDQ01+000002VOVAR 
0206317350999991995072914004+48517+135167FM-15+0072UHHH V0209991C000019999999N0112651N1+02001+01901099331ADDAG11999GA1021+006909099GA2081+999999999MA1099291098531REMMET089NEW 23290045 TEMPO 1500 TSRA UHSS SA 291300Z 36007MPS 3500 OVC009 19/19 Q0996 SC05 NOSIG;EQDQ01+999990APOSP Q02+999990APOSLPQ03+000000PRSWM2
0176028670999991995010806004+65367+027017FM-12+0117EFPU V0202101N00621007501CN0100001N1-00151-00251100781ADDAA199000391AG10001AJ100389199999999AY171061AY221061GF108991061071008001021999IA2999-00209KA1120M-00111KA2120N-00161MD1710251+9999MW1711REMSYN029 333 11011 21016 3/102 47038;
0113719680999991995080104524+68950-137217SAOSP+0038YUA  V0200501N003610078019N0144841N1+00901+99999999999ADDAG10999GD12991+0033099GD24991+0078099GD34991+0210099GF108991999999999999999999MA1100981999999MW1001REMAWY002M;
0054724556139891995082605009+38333-096183NSRDB+036899999V020999999999999999999999999999+99999+99999999999ADDGP10060000001000000001000000001000GR100600000900009
0175716160999991995050618004+46433-071933SY-SA+0108WVY  V0203301N006219999999N9999999N9+00591-00961101271ADDAA106000091AA224000091AG14000KA1120M+00841KA2240N+00421MA1999999099941MD1310161+9999OC101131REMSYN023 333 10084 20042 70000;AWY023PK WND 3424 1702Z 3016;EQDQ01+000002VOVAR 
0058152380999991995013020004+45867+025783FM-12+052599999V0209991C00001036001CN0015001N1-00171+99999999999ADDAG12999AY121021AY221021GF108991081001999999071999MW1101
0096488030999991995032809004+22500+103967FM-12+011299999V0209991C00001009001CN0100001N1+02141+01691100241ADDAA106000091AG10000GF106991061081004501999999MA1999999099301MD1999999-0201REMSYN011 333 59020;
0138727444999991995113009003+47050-091750SAO  +0328TWM  V0209999C000010270019N0160931N1-01231-01391999999ADDAG11000GD12991+0210019GD24991+0270019GF108991999999999999999999GP10060000001000000001000000001000GR100600000900009MA1100711999999MW1001
0113579020999991995071000004+25433+105183FM-12+137999999V0209991C00001007501CN0300001N1+02081+01811100341ADDAA106000091AA224999929AG10000GF107991071041008001999999MA1999999085681MD1210051-0201REMSYN017 333 05202 79999;
0253467520999991995122200004+21933+120833SY-MT+0013RCKW V0203401N00411012001CN0110001N1+02061+01521102271ADDAA106000091AG10000GA1021+003609999GA2071+012009999GF199999061051004501001001KA1120N+01991MA1102201102071MD1310231+9999REMSYN064 333 20199 555 82712 86640 00000 24000 10258 20210 QNH 3019 INS;MET018NEW (A3019) NOSIG;EQDQ01+000062SCOTCVQ02+000000PRSWM2
0434690140931011995102121003+33667-117733SAO  +0116NZJ  V0202705N003152200019N0064005N1+02005+01225101271ADDAG10000GD16991+0001519GD22991+0045019GF102991999061999999001001GP10060066101025063601028022201025GQ100600464919859GR100600951913809MA1101321999999MD1810341+9999MW1055REMAWY017H1/ 8/600/ 58034;EQDN01 00809KCLC1 3N02 00203KCLC2 3N03 99999CCLHTU3N04 29925EALTP 3N05 29505FPRES 3N06 08100JPWTH 0N07 10127ISLVP 3QNNE41 3 00809E41 3 00203G41U3 99999K41 0 00054L41 0 00400C41 3 29925M41 3 29505N41 0 08100Q41 3 10127S41 0 00068X41 0 27006
0092947060999991995110902004-34733+146550FM-12+017499999V0200501N006719999999N0500001N1+02701+00881101141ADDAG10999AY111999AY221999GF107991999001022501081061MA1999999099141MW1031EQDQ01+000002SCOTLC
0064595010999991995121709004+22783+115367FM-12+000599999V0200401N00201007501CN0250001N1+01581+01351102061ADDAG10002AY161031GF108991081051008001999999MD1710011+9999MW1001
0043992410999991995092712004+36800-122200FM-18+0003DB24 V0203501N003019999999N9999999N9+01521+99999101291ADDAG10000MD1010001+9999EQDQ01+000002VOVAR 
0172032040999991995040810004+54083-004633SY-MT+0017EGNS V0201001N00361066001CN0250001N1+00881+00371103181ADDAG11999GA1021+007509999GA2071+066009999GF199999011011008001001011MA1103121999999MD1210061+9999REMSYN017 333 81825 85072;MET008NEW NOSIEQDQ01+000052SCOTCVQ02+000000PRSWM2
0029992160999991995070207004+42500-130300FM-18+0003DB21 V0203401N003019999999N9999999N9+01531+99999102101ADDAG12999EQDQ01+000002VOVAR 
0179724096147061995051814003+40017-074600SAO  +0041WRI  V0202301N004610240019N0080001N1+02281+02111100491ADDGA1021+012001999GA2071+024001999GA3071+060001999GF107991999999999999999999GP10060050701011035201017027201011GQ100600481909979GR100600889913359MA1100471999999MW1451REMAWY004WR//
0077125600999991995102305004+50233+019033FM-15+0284EPKT V0201501N00201220001CN0080001N1+00101-00201999999ADDAG11999GA1021+060009999MA1103181999999REMMET008NEW 745.EQDQ01+000000PRSWM2
0141380230999991995100303004+44850+056333FM-12+012699999V0201201N00201220001CN0200001N1+00721+00271101991ADDAA106000091AG14000GF103991001001999999001021GJ106489IA1019IA2999+00409MD1810031+9999REMSYN045 333 55108 555 20063 30004 50141 53008 7000/;
0138724838999991995101113003+39100-121567SAO  +0019MYV  V0201501N003612200019N0160931N1+01501+00831101251ADDAG10999GD12991+0450019GD22991+0600013GF102991999999999999999999GP10060000001000000001000000001000GR100600000900009MA1101251999999MW1001
0093074120999991995052209304+45667-000317FM-15+0031LFBG V0201101N00311999991CY0099001N1+01901+00801101731ADDAG10999MA1101691101381REMMET008NEW CAVOEQDQ01+999990APOSP Q02+999990APOSLPQ03+000000PRSWM2
0110506580999991995011806004+48050+125883FM-12+023799999V0202901N00401220001CN0200001N1-01481-02031102331ADDAA106000091AG14000GA1001+999999999GF100991001001999999001001KA1999N-02381MD1710021+9999REMSYN011 333 21238;
0139164290999991995041220004+37917+012500FM-15+0007LICT V0209991C00001220001CN0112651N1+01201+00901101731ADDAG10999GA1021+007809999MA1101691101621REMMET038NEW SCT VIS MAR 16KM WT13 36006KT BLU;EQDQ01+999990APOSP Q02+999990APOSLPQ03+000000PRSWM2
0122919440999991995081013004-18067-140950FM-15+0003NTTO V0201801N00411012001CN0112651N1+02001+01801101331ADDAG10999GA1021+004509999GA2071+012009999MA1101291101251REMMET005NEW ;EQDQ01+999990APOSP Q02+999990APOSLPQ03+000000PRSWM2
0075111740999991995052112004+47333+015083FM-12+058099999V0200401N002619999999N9999999N9+01101+00491102381ADDAA106000091AG14000MA1999999095551REMSYN011 333 55300;EQDQ01+000002VOVAR 
0141153600999991995110400004+45150+029667FM-12+000999999V0203601N00701004201CN0060001N1+00721+00671100161ADDAA103007091AA206012091AG10001AY161061AY261061GF108991061071004501021999MA1999999100051MD1710201+9999MW1611REMSYN023 333 60077 92436 96010;
0089766793999991995071015454+19433-099100FM-15+2238MMMX V0203501N00571007501CN0096561N1+01801+01101999999ADDAG10999GA1071+007509089GA2071+021009999MA1102881999999MW1051REMMET017NEW 23091 FEW CI;
0036153140999991995011422004+00000+999999FM-12+028799999V0209991C00001007501CN0100001N1-00821+99999999999ADDAG10999GF108991081051008001999999
0066714450999991995031917004+52800-097617SAO  +0223WWS  V0209991C000019999999N9999999N9-00301-00801100751ADDAG11999MA1999999097991MW1001EQDQ01+999990APOSP Q02+000002VOVAR 
0071724973999991995052813009+39800-121850NSRDB+007399999V020999999999999999999999999999+99999+99999999999ADDGP10060000101025000101028000101025GQ100600889906229GR100600007903449
0077037683999991995071311504+51500-000500FM-15+0005EGLC V0201801N00311024001CN0112651N1+02201+01601999999ADDAG11001GA1021+013509999GA2071+024009999MA1101081999999MW1611REMMET005NEW ;
0106717170999991995072014004+47000-065450SAO  +0031YCH  V0202401N00511036001EN0241401N1+02401+01401100871ADDAG12999GD13991+0360099GD23991+0750099GF107991999999999999999999MA1100881100471MW1001EQDQ01+999990APOSP 
0077999999999991995112410404+56683-045967FM-18+9999DRIB V02099999999999999999N9999999N9+99999+99999100771ADDAG10999MD1710611+9999MW1001SA1+0459REMSYN01144761     ]EQDQ01+000002VOVAR 
0058476100999991995081114004+36667+138200FM-12+041999999V0203201N000519999999N9999999N9+02121+01861100951ADDAG10999MA1999999096211MD1210021+9999EQDQ01+000002VOVAR 
0317727340148471995020911003+46467-084350SAO  +0219Y62  V0202405N00625003055WN0020005N1-00945-01115100235ADDAA101000595AG11999GA1999+003055105GD15085+0030019GF108085999999999999999999GP10060000001000000001000000001000GR100600000900009MA1100071097485MW1855OC100821EQDQ01+999990APOSP N01 05000JPWTH 0QNNE71 0 00710G71 0 00010H71 0 70010K71 0 00012L71 0 00125M71 0 28785N71 0 05000Q71 0 10023S71 0 00015V71 0 01010X71 0 24012
0058060960999991995072915004+55183+008567FM-12+000399999V0203101N005119999999N9999999N9+02321+01651102071ADDAG12000MA1999999101941MD1710041+9999EQDQ01+000002VOVAR 
0122621030999991995111606004+30133+009500FM-12+0357HLTD V0209991C00001220001CN0200001N1+00651-00091102221ADDAA106000091AG10000GA1001+999999999GF100991001001999999001001KA1120N+00641MD1110031+9999REMSYN023 333 20064 50564 55098;
0102944490999991995022701004-28617+122417FM-12+046599999V0200701N010819999999N9999999N9+02101+01961100041ADDAA124023091AG10999KA1999N+01941MA1999999094941MD1710101+9999REMSYN011 333 20194;EQDQ01+000002VOVAR 
0160725473999991995041011003+41833-090333SAO  +0216CWI  V0200601N01021005401MN0160931N1+00051-00281999999ADDAG11999GD13991+0054019GD24991+0072019GF108991999999999999999999GP10060000001000000001000000001000GR100600000900009MA1101391999999MW1001OC101381REMAWY005P005;
0108722865931801995100410003+34050-117600SAO  +0287ONT  V0209999C000012200019N0160931N1+01661+01111999999ADDAG10999GF100991999999999999999999GP10060000001000000001000000001000GR100600000900009MA1100681999999MW1001
0255789250999991995032718004+14600-061000SY-MT+0004TFFF V0200501N00411015001CN0150001N1+02871+02271101211ADDAA106000091AA224002091AG10001AY111061AY211061GA1021+004809999GA2071+015009999GF107991071081004501999999KA1120M+02991KA2240N+02121MA1101191999999MD1810241-0211MW1151MW2161REMSYN047 333 022// 10299 20212 59021 70022 84816 85650;MET020NEW TEMPO 4000 SHRA;
0108687120999991995110518004-32833+017850FM-12+006099999V0201801N01031220001CN0220001N1+01341+01091102031ADDAG10000GF101991001001999999001051KA1120M+02021MA1999999101271MD1610021+9999REMSYN021 333 10202 555 91020;
0180115180999991995072206004+50100+014283SY-MT+0365LKPR V0209991C00001220001CN0200001N1+02291+01551101211ADDAA106000091AG11000GF104991041001022501081011IA1019IA2999+01509KA1120N+01811MA1101291097081MD1310011+9999REMSYN023 333 20181 30015 84358;MET016NEW CAVOK NOSIG;EQDQ01+000000PRSWM2
0173033910999991995120412004+53083-000167SY-MT+0007EGXC V0200801N00621011401CN0110001N1+00601+00201103101ADDAA106000091AG14000GA1021+006609999GA2081+011409999GF108991081081008001999999MA1103011999999MD1210201+9999REMSYN017 333 81822 88638;MET014NEW BLU NOSIG;EQDQ01+000000PRSWM2
0182722595139111995071719003+32767-097450SAO  +0198NFW  V0203301N002010750019N0112651N1+03441+02111101411ADDAG11999GD12991+0090019GD23991+0750019GF107991999999999999999999GP10060036901011011701016025601011GQ100600123917389GR100601292913229MA1101521999999MW1001REMAWY018TCU ALQDS/ T2 SET;
0121714963999991995111118004+65767-111250SAO  +0494YWO  V0202101N00101009001EN0193121N1-01601-01901101281ADDAA106999999AG10000GD14991+0090099GF108991999051999999999999MA1100681999999MW1711REMAWY010SC10 3003;EQDQ01  00002PRCP06
0362722510129241995012111003+27767-097500SAO  +0013CRP  V0200705N00365045725EN0160005N1+01335+01005101935ADDAA101000095AG10999GA1999+045725035GA2999+076205005GD13055+0450019GD23025+0750019GF106065999999999999999999GP10060000001000000001000000001000GR100600000900009MA1101931101765MW1001EQDQ01+999990APOSP N01 00000JPWTH 0QNNE71 0 00406E71 0 00402G71 0 00150H71 0 23150H71 0 32250K71 0 00050L71 0 01000M71 0 30050N71 0 00000Q71 0 10193S71 0 00056V71 0 00807X71 0 07007
0108711400999991995070509004+49917-099950SY-SA+0409YBR  V0203601N003112200019N0240001N1+01111+00781101371ADDAA106000091AG11000GD13991+0810093GF106991999999999999999011MA1101291096471REMSYN011 555 90509;AWY005CI4 ;
0069959610999991995032200004-42983+145500FM-12+003599999V0202201N007719999999N9999999N9+01021+99999100951ADDAA106000091AG10000MA1999999100541MD1210181+9999EQDQ01+000002VOVAR 
0169040300999991995100612004+64133-021900SY-MT+0061BIRK V0200901N00461018001CN0500001N1+00771+00371098991ADDAG10000GA1021+005409999GA2021+010509999GA3071+018009999GF108991011081004501011071MA1098921999999MD1210081+9999REMSYN017 333 83635 86656;MET005NEW ;EQDQ01+000000PRSWM2
0106800940999991995101723004+07100-073200FM-15+1189SKBG V0209991C00001030001CN0040001N1+02001+01801999999ADDAG10999GA1021+001809099GA2071+030009999MA1101591088111REMMET005NEW ;EQDQ01+999990APOSP Q02+000000PRSWM2
0085403750999991995031302004+28367+036633FM-15+0770OETB V0203501N00261999991CY0099001N1+00901+00101999999ADDAG10999MA1101591092651REMMET016NEW CAVOK NOSIG;EQDQ01+999990APOSP Q02+000000PRSWM2
0103115200999991995102703004+50000+014450FM-12+030499999V0209991C00001220001CN0030001N1+00591+00541102311ADDAG11000AY101031AY201031GA1001+999999999GF100991001001999999001001MA1999999098591MD1710061+9999MW1101
0103408750999991995090603004+27217+056367FM-12+0010OIKB V0209991C00001220001CN0060001N1+02841+02681100301ADDAG10000AY101031AY201031GA1001+999999999GF100991001001999999001001MA1999999100181MD1310151+9999MW1101
0128466860999991995022114374+25083+121217FM-16+0033RCTP V0200701N00571003601CN0080001N1+01301+01101101981ADDAG10999GA1021+001809999GA2071+003609999GA3081+013509999MA1101901101681MW1611REMMET005NEW ;EQDQ01+999990APOSP Q02+999990APOSLP
0201724550139471995052818003+39050-096767SAO  +0325FRI  V0202801N00511006001EN0112651N1+01661+00941101491ADDAA106000091AG10000GD13991+0060019GD24991+0090019GF108991999051999999999999GP10060028101024000001027028101024GQ100600213914349GR100601238913309MA1101521999999MD1210271+9999MW1001REMAWY0128/5// 52027;
0054722925931171995041613009+33017-118583NSRDB+005299999V020999999999999999999999999999+99999+99999999999ADDGP10060000001000000001000000001000GR100600000900009
0077010460999991995122808504+69783+020967FM-15+0006ENSR V0202701N00411009001CN0080001N1-00901-01301999999ADDAG11000GA1021+006009999GA2071+009009999MA1100311999999MW1851REMMET005NEW ;
0139370060999991995040718004+44367+038533FM-12+000399999V0201401N00501007501CN0200001N1+00891+00701100901ADDAG12001AY181061AY221061GF108991081091008001999999KA1999M+00951MA1999999100861MD1510051+9999MW1801REMSYN011 333 10095;EQDQ01+999990APOSP 
0077764593999991995010518404+23167-106267FM-15+0010MMMZ V0209991C00001066001CN0112651N1+02601+00901999999ADDAG10999GA1071+066009999MA1101731999999REMMET008NEW 0089EQDQ01+000000PRSWM2
0050305470999991995032506004+54317+110317FM-12+050999999V0203001N00501220001CN0200001N1+00101-00871101511ADDAG12000GF106991021031008001001011MD1110061+9999
0145971820999991995100312004-05067+119567FM-12+001499999V0201301N00051105001CN0100001N1+02881+02161100991ADDAA106000091AA224999929AG10000GA1021+006009089GF105991021021008001031011KA1240M+03301MD1999999-0031REMSYN035 333 10330 56000 59003 79999 82820;
0090697524999991995021514004+00000+000000FM-15+9999KQIV V0200901N00461220001CN0112651N1+02901+02201999999ADDAG10999GA1021+009009999GA2021+013509999MA1101831999999REMMET005NEW ;EQDQ01+000000PRSWM2
0085026510999991995051507504+55917+014083FM-15+0023ESMK V0202601N00671010501CN0112651N1+00801+00101999999ADDAG11999GA1021+003909999GA2071+010509999MA1101021999999MW1801OC101231REMMET005NEW ;
0120714410999991995052312004+49033-097567SY-SA+0251WGN  V0203101N004619999999N9999999N9+00441+00221102181ADDAA106000091AG14000KA1999N+00221MA1999999099051REMSYN011 333 20022;AWY026M M M 218/04/02/3109/M/ M;EQDQ01+000002VOVAR 
0084294710999991995111606004+56917+093133FM-12+018199999V0209991C00001030001CN0500001N1-00221-00991101501ADDAG12000GF108991041091008001011999MA1999999099221MD1210021+9999EQDQ01+999990APOSP 
0114702670264151995092006003+64000-145733SAO  +0391BIG  V0201201N004119999999N9999999N9+02001+00221999999ADDAG11000GP10060000001000000001000000001000GR100600000900009MA1101021999999MW1001REMAWY004133;EQDQ01+000002VOVAR 
0050864300999991995121209004-32333-058033FM-12+0061SUPU V0201101N00211220001CN0100001N1+01081+01041101571ADDAG10000GF102991001001999999001061MD1110081+9999
0110702550265141995021817004+61967-151183SAO  +0045SKW  V0203501N00511012001EN0241401N1-01671-02391999999ADDAG12999GD13991+0120099GD24991+0150099GF108991999999999999999999MA1100071999999MW1001OC100871REMAWY006NOSPL;
0125176090999991995022518304+34883+033633FM-15+0002LCLK V0203001N00361220001CN0112651N1+01201+00901101331ADDAG10999GA1021+009009999GA2021+075009999MA1101291101311REMMET008NEW NOSIEQDQ01+999990APOSP Q02+999990APOSLPQ03+000000PRSWM2
0359723940232731995071223003+34900-120450SAO  +0077SMX  V0203005N012952200059N0208005N1+02065+01175101475ADDAA101000095AG10999GA1999+004575065GF100005999999999999999999GP10060083401010081601016015601010GQ100600337925679GR100601097913229MA1101491100615MW1001OC101691REMAWY031SC VCNTY STN W/ PK WND 3034/37;EQDQ01+999990APOSP N01 00000JPWTH 0QNNE71 0 00000G71U0 99999H71 0 15015K71 0 00053L71 0 01300M71 0 29710N71 0 00000Q71 0 10147S71 0 00069V71 0 00000X71 0 30025
0186723106137441995081706003+34183-079717SAO  +0045FLO  V0203601N003012200019N0080471N1+02661+02331101111ADDAA106000091AG10000GF100991999999999999999999GP10060000001000000001000000001000GR100600000900009KA1999M+03331KA2999N+02661MA1101121999999MD1110031+9999MW1051REMAWY01851003 10092 20080;
0157722359139781995100410003+33500-090083SAO  +0047GWO  V0200201N00361003901MN0048281N1+01831+01771100511ADDAG11999GD13991+0039019GD24991+0360019GF108991999999999999999999GP10060000001000000001000000001000GR100600000900009MA1100511999999MW1451EQDQ01+000100PRSWM2
0101760753999991995091014454+31633-106433FM-15+1171MMCS V0209991C00001220001CN0096561N1+02001+01701999999ADDAG11000GA1021+030009999MA1101961999999REMMET032NEW 07090 ST BJS SBR SRRS FEW CIEQDQ01+000000PRSWM2
0090607500999991995121507004+34717+010683FM-15+0023DTTX V0202201N00211060001CN0112651N1+01001+00801999999ADDAG10999GA1021+007809999GA2071+060009999MA1101801999999REMMET005NEW ;EQDQ01+000000PRSWM2
0069616410999991995111205004+14733-017500FM-15+0024GOOY V0200401N00671999991CY0099001N1+02501+02301999999ADDAG10999MA1101291999999REMMET016NEW CAVOK NOSIG;EQDQ01+000000PRSWM2
0043994020999991995062318004+36917-075717FM-12+0000CHLV V0201101N003619999999N9999999N9+02311+99999101431ADDAG10000MD1810061+9999EQDQ01+000002VOVAR 
0333726435149911995072306003+44867-091483SAO  +0271EAU  V0209999C000052200059N0192005N1+01785+01565100855ADDAA106000091AG10000GD11995+0750013GF102005999999999999999999GP10060000001000000001000000001000GR100600000900009KA1999M+02551KA2999N+01771MA1100881097665MD1110141+9999MW1001REMAWY01851014 10078 20064;EQDN01 00000JPWTH 0QNNE21 0 00199G21U0 99999K21 0 00060L21 0 01200M21 0 28840N21 0 00000Q21 0 10085S21 0 00064V21 0 00300X21 0 00000
0097601150999991995031009004+34783-001933FM-12+0470GMFO V0201801N00871220001CN0150001N1+01811+00211100581ADDAA106000091AG10000GA1041+030009039GF104991041001999999071021MD1610101+9999REMSYN011 333 84360;
0105716300999991995122917004+44967-079300SAO  +0282YQA  V0202601N00411007501EN0241401N1-00101-00501102491ADDAG12999GD14991+0075099GF108991999999999999999999MA1102271098901MW1001REMAWY005SC10;EQDQ01+999990APOSP 
0434722480139571995091913003+32467-093817SAO  +0077SHV  V0201405N003652200059N0160005N1+02285+01725101435ADDAA101000095AG11999GA1999+045725035GA2999+076205005GD12035+0450019GD22015+0750019GF104035999999999999999999GP10060004501010011001016003401010GQ100600843909179GR100600128912989MA1101461100515MW1001REMAWY046ASOS TO BE COMMISSIONED AT THIS SITE ON OCT 1;EQDQ01+999990APOSP N01 00000JPWTH 0QNNE71 0 00204E71 0 00201G71U0 99999H71 0 23150H71 0 32250K71 0 00063L71 0 01000M71 0 29680N71 0 00000Q71 0 10143S71 0 00073V71 0 00504X71 0 14007
0055999999999991995011018454+74500-178750FM-18+9999DRIB V02099999999999999999N9999999N9-01281+99999101031ADDAG10999MW1001REMSYN01125537     ?EQDQ01+000002VOVAR 
035372207003822199512091500C+32133-081200SAO  +0014SAV  V0203505N003650036659N0112005N1+00725+00675102005ADDAA101000095AA206000391AG10000GA1999+002135065GA2999+003665065GD12025+0021099GD24065+0036099GF108085999051999999999999MA1102001101815MD1210141+9999MW1001REMAWY0248/5/// 52014 6001/ RE02;EQDN01 00000JPWTH 0QNNE71 0 00202E71 0 00608G71 0 00012H71 0 15007H71 0 15012K71 0 00044L71 0 00700M71 0 30065N71 0 00000Q71 0 10200S71 0 00045V71 0 01010X71 0 35007
0157727457999991995112100003+46833-095883SAO  +0426DTL  V0203101N008210084019N0112651N1-00281-00561999999ADDAA106000091AG10000GD12991+0072019GD24991+0084019GF108991999999999999999999GP10060000001000000001000000001000GR100600000900009MA1101801999999MW1001OC101131
0125724475939091995010120003+38833-094883SAO  +0331IXD  V0203001N005112200019N0160931N1-00561+99999999999ADDAG11999GF100991999999999999999999GP10060045601011092801016004801011GQ100600639919719GR100600623914159MA1102781999999MW1001
0123718030999991995070423004+48950-054567SAO  +0151YQX  V0203001N003012200019N0482801N1+01901+00701102041ADDAG11999GD12991+0360099GD22991+0660093GF102991999999999999999999MA1102031100221MW1001REMAWY008AC1CI1 ;EQDQ01+999990APOSP 
0058474130999991995122010004+43217+141783FM-12+005199999V0201601N001519999999N9999999N9-00541-00781101781ADDAG12999MA1999999101121MD1710051+9999EQDQ01+000002VOVAR 
0086162160999991995090709004+42433+012083FM-15+0300LIRV V0200301N00151220001CN0090001N1+01601+01501999999ADDAG11000GA1021+006609999REMMET032NEW SCT BLU MON E SE LIB VAR RAPEQDQ01+000000PRSWM2
0092031620999991995111923004+55317-003200FM-12+024299999V0203401N00101075001CN0400001N1+00301+00251102631ADDAG12999GA1041+012309059GF106991041051012501001021MD1810031+9999REMSYN017 333 84641 86075;
0251725360948301995101702003+41600-083800SAO  +0204TOL  V0202705N004152200059N0192005N1+00835-00285102495ADDAA101000095AG11999GF100005999999999999999999GP10060000001000000001000000001000GR100600000900009MA1102441099925MW1001EQDN01 00000JPWTH 0QNNE71 0 00099G71U0 99999K71 0 00027L71 0 01200M71 0 29505N71 0 00000Q71 0 10249S71 0 00047V71 0 00000X71 0 27008
0067476400999991995120109004+35500+138767FM-12+086199999V0203201N005119999999N9999999N9+00291-01161999999ADDAG10000MA1999999090651MD1310151+9999ME1313789EQDQ01+000002VOVAR 
0069471420999991995100918004+35900+128650FM-15+0035RKTN V0201101N00101220001CN0080001N1+01101+00701999999ADDAG10000GA1021+060009999MA1102301999999MW1101REMMET013NEW QFF102T9;
0345725320148421995042603003+40667-089683SAO  +0199PIA  V0201805N00525028965MN0160005N1+01335+00335101435ADDAA101000095AG11000GA1999+028965035GD14085+0270019GF108085999001999999071999GP10060000001000000001000000001000GR100600000900009MA1101421099025MD1310031+9999MW1001REMAWY0138/07// 53003;EQDQ01+999990APOSP N01 00000JPWTH 0QNNE71 0 00610G71 0 00095H71 0 23095K71 0 00038L71 0 01000M71 0 29240N71 0 00000Q71 0 10143S71 0 00056V71 0 01010X71 0 18010
0292725830241281995041219003+40900-117800SAO  +1310WMC  V0202605N00265220005MN0160005N1+01725+00005101405ADDAA101000095AG11999GD10995+9999999GP10060085401025094301028010201025GQ100600371914519GR100601084913609MA1101561086695MW1001REMAWY021CLR BLO 120 TNO ZRNO;EQDQ01+999990APOSP N01 00000JPWTH 0QNNAA1 0 00000GA1U0 99999KA1 0 00032LA1 0 01000MA1D0 25600NA1 0 00000QA1 0 10140SA1 0 00063YA1 0 26005
0107370060999991995032600004+44367+038533FM-12+000399999V0202101N00101007501CN0200001N1+00431+00261101151ADDAG12001AY181061AY221061GF108991081091008001999999MA1999999101111MD1810031+9999MW1021REMSYN011 555 11004;
0138725245999991995083110003+41517-081683SAO  +0178BKL  V0202201N005112200019N0160931N1+02661+02051999999ADDAG11999GD12991+0240019GD22991+0450019GF102991999999999999999999GP10060000001000000001000000001000GR100600000900009MA1101221999999MW1001
0090802590999991995101117004+03550-076383FM-15+0969SKCL V0209991C00001004501CN0080001N1+02501+01901999999ADDAG10999GA1071+004509999GA2071+027009999MA1101661999999REMMET005NEW ;EQDQ01+000000PRSWM2
0099718450999991995011904004+51467-090200SAO  +0386WPL  V0202501N004619999999N9999999N9-01201-01301101371ADDAG11999MA1999999096511MW1001REMAWY024PK WND 2519 0309Z 1015 ;EQDQ01+999990APOSP Q02+000002VOVAR 
0113718700999991995120718114+50283-107683SAOSP+0818YYN  V0203401N009710033019N0022531N1-02301-02701999999ADDAG10000GD12991+0003099GD24991+0033099GD34991+0150099GF108991999999999999999999MA1101901999999MW1001REMAWY002M;
0104710760999991995041802004+59567-108483SAO  +0318WDC  V0200901N003019999999N9999999N9-00201-00601102081ADDAG11999MA1999999098121MW1001REMAWY029CLR BLO 50  4000 (0000,0000);EQDQ01+999990APOSP Q02+000002VOVAR 
0092030700999991995041010004+57350-003350FM-12+021599999V0202701N00101012001CN0450001N1+00901+00421101711ADDAG12999GA1021+007509089GF107991051081008001031001MD1610051+9999REMSYN017 333 82825 83635;
0086038400999991995073013004+50867-003233FM-12+025599999V0201001N00151220001CN0160001N1+02331+01521101731ADDAG12999GA1011+007809089GF101991011011008001031001MD1810051+9999REMSYN011 333 81826;
0054724756231591995021906009+37700-112150NSRDB+231299999V020999999999999999999999999999+99999+99999999999ADDGP10060000001000000001000000001000GR100600000900009
0050712470999991995040301004+58583-118500SAO  +0373WSH  V02099999999999999999N9999999N9-01601-02501103251ADDAG11999MW1001REMAWY0061023 ;EQDQ01+000002VOVAR 
0063999999999991995081119084-52417+093633FM-18+9999DRIB V02099999999999999999N9999999N9+99999+99999999999ADDAG10999MW1001SA1+1599REMSYN01133905     ?EQDQ01+000002VOVAR 
0063999999999991995051709554+17667+063017FM-18+9999DRIB V02099999999999999999N9999999N9+02951+99999100621ADDAG10999MW1001SA1+3019REMSYN01123511     ?EQDQ01+000002VOVAR 
0069085360999991995010702304+38783-009133FM-15+0123LPPT V0200501N00621999991CY0099001N1+01101+00501999999ADDAG10000MA1103181999999REMMET016NEW CAVOK NOSIG;EQDQ01+000000PRSWM2
0084542920999991995102103004+42883+129467FM-12+017899999V0209991C00001090001CN0120001N1+01061+00221102271ADDAG12000GF107991041001999999031021MA1999999100101MD1710151+9999EQDQ01+999990APOSP 
0106081840999991995071117004+41900+002767FM-15+0129LEGE V0201801N00621024001CN0112651N1+02501+01201999999ADDAG10999GA1021+009009999GA2021+010509089GA3071+024009999MA1101021999999REMMET005NEW ;EQDQ01+000000PRSWM2
0070518390999991995120821004+37067+082767FM-12+141099999V0209991C00001090001CN0250001N1-00571-01171102461ADDAG10000GF107991001001999999001021MD1710041+0011REMSYN011 333 05103;
0130723069999991995082700003+34833-077617SAO  +0029OAJ  V0200701N001519999999N0160931N1+02381+02111999999ADDAA106000091AG10000GP10060001701025000101028001701025GQ100600859927999GR100600071909929MA1101561999999MW1001REMAWY011CLR BLO 120
0144423610999991995121012004+26233+078250FM-12+0207VIGR V0209991C00001220001CN0040001N1+02201+01381101501ADDAA106000091AG10000AY101061AY201061GA1031+075009009GF103991001001999999001011KA1120M+02861MD1999999-0091MW1051REMSYN023 333 10286 59009 83075;
0062724995999991995060221004+38317-123050SMARS+000392Q  V0203151N010219999999N9999999N9+99999+99999101521ADDAG10999MW1001REMSYN018PTCLDY BODEGA BAY;EQDQ01+000002VOVAR 
0055999999999991995112218044+73717-074767FM-18+9999DRIB V02099999999999999999N9999999N9+99999+99999999999ADDAG10999MW1001REMSYN01147532     ]EQDQ01+000002VOVAR 
0044032200999991995041305004+54933-002967FM-12+002899999V0200801N002619999999N0120001N1+00301+00141103781ADDAG12999MD1210051+9999REMSYN011 555 90454;
0174010590999991995031700004+70067+024983SY-MT+0008ENNA V0201601N00671024001CN0750001N1-00271-00761099971ADDAA106000091AG10000GA1021+007509999GA2071+024009999GF199999061031008001071999MA1099901999999MD1710061+9999REMSYN011 333 91134;MET005NEW ;EQDQ01+000062SCOTCVQ02+000000PRSWM2
0063999999999991995050203024+33867-020883FM-18+9999DRIB V02099999999999999999N9999999N9+99999+99999999999ADDAG10999MW1001SA1+1959REMSYN01113927     ?EQDQ01+000002VOVAR 
0061844520999991995031123004-06783-079833FM-15+0034SPHI V0201801N00441999991CY0099001N1+02701+02201999999ADDAG10999MA1101291999999REMMET008NEW CAVOEQDQ01+000000PRSWM2
0310722970231291995103020003+33817-118150SAO  +0008LGB  V0202805N00365009145MN0128005N1+02115+01395101285ADDAA101000095AG10999GA1999+009145065GD13065+0090019GF106055999999999999999999GP10060062101010055101016025001010GQ100600478917799GR100600931913879MA1101291101135MW1001EQDN01 00000JPWTH 0QNNE71 0 00407G71 0 00030H71 0 15030K71 0 00057L71 0 00800M71 0 29865N71 0 00000Q71 0 10128S71 0 00070V71 0 00706X71 0 28007
0156722175138601995091614003+32633-083600SAO  +0090WRB  V0201101N00251000601WN0008051N1+02271+02221101931ADDAG11999GD15991+0006019GF109991999999999999999999GP10060023901011010301017019301011GQ100600634910519GR100600605913529MA1101961999999MW1451REMAWY007RVRNO ;
0114603550999991995112115004+36933+006950FM-12+0007DABP V0200601N00411069001CN0150001N1+01951+01441102321ADDAG10000GA1031+030009039GA2051+069009009GF106991031001999999031021MD1710071+9999REMSYN023 333 83360 85073 95900;
0388722015128501995091901003+24583-081683SAO  +0007NQX  V0203105N002652200019N0096005N1+02835+02395101201ADDAG10999GD12991+0075019GD22991+0750019GF104995999999999999999999GP10060000001000000001000000001000GR100600000900009MA1101191999999MW1055EQDN01 00205KCLC1 3N02 00205KCLC2 3N03 99999CCLHTU3N04 29880EALTP 3N05 29875FPRES 3N06 08100JPWTH 0N07 10120ISLVP 3QNNE41 3 00205E41 3 00205G41U3 99999K41 0 00075L41 0 00600C41 3 29880M41 3 29875N41 0 08100Q41 3 10120S41 0 00083V41 0 00599X41 0 31005
0155725645240221995031120003+41317-105667SAO  +2218LAR  V0202101N008710300019N0804671N1+01501-00341100011ADDAG11999GD12991+0120019GD23991+0300019GF107991999999999999999999GP10060064401011047701016030901011GQ100600453918609GR100600974913869MA1100781999999MW1001
0129722747999991995091221003+32817-109683SAO  +0950E74  V0202301N001519999999N9999999N9+03611+00721999999ADDAG10000GP10060080201028087701031007301028GQ100600338921509GR100601121913499MW1001REMAWY017PK WND 005 000 O;EQDQ01+000002VOVAR 
0029994260999991995121202004+29667-094050FM-12+0001SRST V0201501N008219999999N9999999N9+01511+99999102491ADDAG10999EQDQ01+000002VOVAR 
0136030630999991995040109004+57200-003833FM-12+022099999V0201901N00511007501CN0130001N1+00701+00621102011ADDAG12001AY161031AY251031GA1021+002109079GA2051+007509059GF108991081051002501999999MD1710051+9999MW1511REMSYN023 333 82707 85625 88650;
0312725330148271995102305003+41000-085200SAO  +0241FWA  V0201505N002152200059N0240005N1+00895+00505101865ADDAA101000095AG11999GF100005999999999999999999GP10060000001000000001000000001000GR100600000900009KA1999M+01831KA2999N+00271MA1101831098835MW1001REMAWY010400650037;EQDQ01+999990APOSP N01 00000JPWTH 0QNNE71 0 00099G71U0 99999K71 0 00041L71 0 01500M71 0 29185N71 0 00000Q71 0 10186S71 0 00048V71 0 00000X71 0 15004
0081543080999991995041200004+41217+116633FM-12+066199999V0209991C00001090001CN0300001N1+00021-01901101121ADDAA106000091AG14000GF106991001001999999001021MD1710071+0091REMSYN011 333 05900;
0357724280148211995090413003+40000-082883SAO  +0248CMH  V0209999C00005027435MN0112005N1+01895+01615102245ADDAA101000095AG11999GA1999+027435185GD13065+0270019GF106065999999999999999999GP10060011601010011301016008501010GQ100600740909409GR100600371913449MA1102271099315MW1001REMAWY022ACC VCNTY ST NW AND S;EQDQ01+999990APOSP N01 00000JPWTH 0QNNE71 0 00408G71 0 00090H71 0 28090K71 0 00061L71 0 00700M71 0 29325N71 0 00000Q71 0 10224S71 0 00066V71 0 00808X71 0 00000
0157726886241301995021109003+44833-117817SAO  +1027BKE  V0201701N00201014101MN0160931N1+00001-00281101481ADDAG11000GD13991+0141019GD24991+0210019GF108991999999999999999999GP10060000001000000001000000001000GR100600000900009MA1101351999999MW1871REMAWY010SB01/ 612;
0125478830999991995051011004+33533+133667FM-15+0010RJOK V0201401N00511220001CN0112651N1+02101+01601999999ADDAG10999GA1021+006009999GA2021+009009089MA1101491999999REMMET040NEW (SCT020CU SCT030TCU A2998 TCU W-NE);EQDQ01+000000PRSWM2
0074717800999991995050713004+48383-123917SAO  +0021WSP  V0202701N006119999999N9999999N9+00901+00901101371ADDAG11999MW1001REMAWY030M M M 137/09/09/2712/M/ 8001 ;EQDQ01+000002VOVAR 
0084277860999991995051021004+54283+048250FM-12+012799999V0201701N00301220001CN0100001N1+01381+00581100041ADDAG12000GF106991021001999999031041MA1999999098521MD1810131+9999EQDQ01+999990APOSP 
0144722265138211995030922003+32383-086367SAO  +0051MXF  V0203601N005612200019N0112651N1+01381-00841102741ADDAG11999GF100991999999999999999999GP10060043401011077301017007901011GQ100600627924449GR100600636913879MA1102741999999MW1001REMAWY010WND 32V02;
0422725620240231995013018003+41133-100683SY-SA+0846LBF  V0202805N005252200059N0240005N1+00395-00445102035ADDAA101000095AA206000091AG10000GA1999+076205025GD13075+0750013GF107025999001999999001991GP10060042801010067101016011401010GQ100600621915689GR100600659914109KA1120M+00391KA2240N-00831MA1101761091945MD1710141+9999REMSYN027 333 10039 21083 555 93018;AWY0258/008/ 57014 10039 20017;EQDN01 00000JPWTH 0QNNE71 0 00309G71U0 99999H71 0 37250K71 0 00024L71 0 01500M71 0 27150N71 0 00000Q71 0 10203S71 0 00039V71 0 00902X71 0 28010
0142081840999991995011218004+41900+002767SY-MT+0129LEGE V0203401N00511220001CN0100001N1+00601-01141102301ADDAA106000091AG10000GF100991001001999999001001KA1999M+01001MA1102101100701MD1210191+9999REMSYN011 333 10100;MET008NEW CAVOEQDQ01+000000PRSWM2
0172349290999991995020306004+45033+039150FM-12+003399999V0200101N00201000601CN0012001N1-00011-00011102491ADDAA106000091AG10000AY141061AY221061GA1081+000609079GF108991081061000751999999KA1120N-00021MA1999999102061MD1810041+9999MW1101REMSYN017 333 21002 88702;EQDQ01+999990APOSP 
0177103040999991995091407004+52717+007317FM-12+0026ETGM V0202301N00311220001CN0030001N1+01351+01201101041ADDAG12999AY111011AY211011GA1011+002109079GF102991011061002501031011MA1999999100731MD1210081+9999MW1101REMSYN065 333 81707 555 BOT 0//// 10140 20144 30147 40157 50163 999 32///;
0153727430948501995101404003+46533-087550SAO  +0434MQT  V0203001N00411011701EN0160931N1+01271+00551100271ADDAA101000095AG11999GD14991+0117019GF108991999999999999999999GP10060000001000000001000000001000GR100600000900009MA1100241095151MW1001EQDQ01+999990APOSP 
0118864400999991995110512004-32367-054183FM-12+0100SUMO V0200701N00261090001CN0200001N1+02781+02201101361ADDAA106000091AG10000GF107991001001999999001061IA1019IA2999+01409KA1240N+01841MD1110041+9999REMSYN017 333 20184 30014;
0076151500999991995042703004+46583+026983FM-12+0190LRBC V0209991C00001036001CN0100001N1+00981+00591100061ADDAA106000091AG14000GF106991041051012501031001MA1999999097801MD1410001+9999
0097480190999991995121506004+24267+097200FM-12+0113VBBM V0201401N00201220001CN0100001N1+02181+01431101621ADDAA106000091AG10000GA1001+999999999GF100991001001999999001001MD1999999+0011REMSYN011 333 58001;
0081160720999991995082604004+45867+009067FM-15+1322LIMO V0200101N00821999991CY0099001N1+99999+99999999999ADDAG12999REMMET043NEW CAVOK SCT200 13/04 SCT MON LIB VAL NIL;EQDQ01+000000PRSWM2
0176031600999991995040702004+55950-003350SY-MT+0041EGPH V0202801N00871003301CN0170001N1+01071+00811101901ADDAG11999GA1021+002409999GA2071+003309999GF107991071061002501999999MA1101801999999MD1810081+9999OC101441REMSYN029 333 82708 87711 90710 91130;MET008NEW NOSIEQDQ01+000000PRSWM2
0140727926999991995060903003+46483-122800SAO  +0113TDO  V0202601N005612200019N0885141N1+02221+01001101171ADDAG11000GD12991+0180019GF102991999999999999999999GP10060013001025026601028006901025GQ100600768928959GR100600303913269MA1101191999999MW1001
008472683094185199506291900D+43583-118950SAO  +1271BNO  V0200901N005619999999N9999999N9+02271+00111999999ADDAA101000095AG11999MA1102201999999MW1001REMAWY014PK WND 15 000;EQDQ01+000002VOVAR 
0178033730999991995050915004+53300-000550SY-MT+0061EGXP V0203201N00361018001CN0450001N1+01221+00201101841ADDAG12000AY121031AY221031GA1021+012609999GA2071+018009999GF107991071041012501999999MA1101801999999MD1110011+9999MW1141REMSYN017 333 81842 87656;MET008NEW BLU;EQDQ01+000000PRSWM2
0085171273999991995051418504+40083+032567FM-15+0843LTAE V0201701N00101220001CN0112651N1+02001+00501999999ADDAG11999GA1021+001209999GA2021+030009999REMMET015NEW Q1QP NOSIG;EQDQ01+000000PRSWM2
0054725494999991995022203009+41017-095267NSRDB+031899999V020999999999999999999999999999+99999+99999999999ADDGP10060000001000000001000000001000GR100600000900009
0073725670240321995062521284+42867-100550SAOSP+0792VTN  V0203501N006119999999N9999999N9+02161+00831999999ADDAG10000MA1101631999999MW1001REMAWY014PK WND 17 000;EQDQ01+000002VOVAR 
0122162630999991995012513004+41050+015233FM-15+1093LIRT V0209999999999999999CN9999999N9+99999+99999999999ADDAG11999REMMET068NEW 1300Z /////KT 9999 SCT005 BKN010 06/05 OVC MON CLD CIME VAL NIL;EQDQ01+000002VOVAR Q02+000000PRSWM2
0058478070999991995022607004+33583+130383FM-12+001499999V0202801N004619999999N9999999N9+00971-00201101241ADDAG10999MA1999999101071MD1710091+9999EQDQ01+000002VOVAR 
0122783970999991995101001004+17933-076783FM-15+0009MKJP V0201301N00771075001CN0112651N1+02801+02401101071ADDAG10999GA1021+006609999GA2071+075009999MA1101021100911REMMET005NEW ;EQDQ01+999990APOSP Q02+999990APOSLPQ03+000000PRSWM2
0245727770940121995052306003+48550-109767SY-SA+0792HVR  V0202301N002112200019N0160001N1+00331+00061101961ADDAA101000095AA206000091AG10000GF100991001001999999001001GP10060000001000000001000000001000GR100600000900009KA1240M+01721KA2240N+00061MA1101861092661MD1810031+9999REMSYN027 333 10172 20006 555 92306;AWY039CLR BLO 120 58003 10063 20033 TNO ZRNO;
0114768056999991995083115454+16767-099750FM-15+0005MMAA V0201001N00461007501CN0096561N1+99999+99999999999ADDAG10999GA1021+003009099GA2071+007509999REMMET044NEW 100OVC 26/25 A2985 RMMK 96/99 --RA RB38;EQDQ01+000000PRSWM2
0090467360999991995052108004+24433+118367FM-15+0009RCBS V0200601N00621999999CN0600001N1+99999+99999999999ADDAG10999REMMET052NEW 0 SCT004 BKN008 OVC12 20/18 Q1005 2968 -4- SLGT;EQDQ01+000000PRSWM2
0092170300999991995070721004+41283+036333FM-12+000499999V0203401N00051220001CN0200001N1+02161+01961101451ADDAG12000GA1021+010809089GF102991021011012501001001MD1010011+9999REMSYN017 333 82836 92428;
0249722410129171995100710003+29950-094017SAO  +0005BPT  V0203605N00215220005MN0160005N1+01115+01005101825ADDAA101000095AG10999GD10995+9999999GP10060000001000000001000000001000GR100600000900009MA1101831101745MW1001REMAWY011CLR BLO 120EQDN01 00000JPWTH 0QNNAA1 0 00000GA1U0 99999KA1 0 00050LA1 0 01000MA1D0 30045NA1 0 00000QA1 0 10182SA1 0 00052YA1 0 36004
0084949400999991995050905004-35083+150800FM-12+008399999V0200501N00311007501CN0200001N1+01621+01281102791ADDAA106000091AG10999AY121999AY221999GF107991071021008001001061MA1999999101781MW1031
0029913520999991995050722004+06217+160717FM-12+000499999V0200901N005119999999N9999999N9+02641+99999101291ADDAG10999EQDQ01+000002VOVAR 
0112152000999991995100123004+46200+021400SY-MT+0118LRAR V0209991C00001220001CN0200001N1+00301+00101999999ADDAG11999GF100991001001999999001001MA1102001999999REMSYN011 333 92600;MET016NEW CAVOK NOSIG;EQDQ01+000000PRSWM2
0309726580149221995051204003+44883-093217SAO  +0254MSP  V0202705N003152200059N0240005N1+01445+00445100835ADDAA101000095AG11999GA1999+076205005GD13065+0750013GF106025999999999999999999GP10060000001000000001000000001000GR100600000900009MA1100851097825MW1001EQDQ01+999990APOSP N01 00000JPWTH 0QNNE71 0 00308G71U0 99999H71 0 32250K71 0 00040L71 0 01500M71 0 28885N71 0 00000Q71 0 10083S71 0 00058V71 0 00802X71 0 27006
0058476150999991995040402004+36550+139867FM-12+014099999V0202401N002619999999N9999999N9+01181-00471101991ADDAG10999MA1999999100301MD1710131+9999EQDQ01+000002VOVAR 
0153725705999991995081412053+40433-109517SAOSP+1608VEL  V0202501N001010360019N0643741N1+01611+00381999999ADDAG10000GD12991+0240019GD23991+0360019GF107991999999999999999999GP10060000001000000001000000001000GR100600000900009MA1101561999999MW1001REMAWY00648748;
0065725784999991995110121004+45817-115433SAO  +1249P69  V0201701N001019999999N9999999N9+00551-00671999999ADDAG11000MW1001REMAWY021PK WND 07 ///239 RNO;EQDQ01+000002VOVAR 
0284725620240231995071116003+41133-100683SAO  +0847LBF  V0202205N003152200059N0240005N1+03225+01725101165ADDAA101000095AG11999GF100005999999999999999999GP10060070201010090701016006801010GQ100600455909919GR100600924913229MA1101491091695MW1001EQDQ01+999990APOSP N01 00000JPWTH 0QNNE71 0 00099G71U0 99999K71 0 00063L71 0 01500M71 0 27075N71 0 00000Q71 0 10116S71 0 00090V71 0 00000X71 0 22006
0086610850999991995111121004+13417+012783FM-12+0305DRZF V0209999999999090001CN0040001N1+02641-00161999999ADDAG10000AY121031GA1071+090009029GF107991001001999999001081MW1061REMSYN011 333 87280;
0058476550999991995091805004+34600+138217FM-12+004799999V0201101N006719999999N9999999N9+02401+01391101191ADDAG10999MA1999999100661MD1710051+9999EQDQ01+000002VOVAR 
0272726940242321995091916003+44900-123000SAO  +0060SLE  V0203405N00155220005MN0160005N1+01565+01285102085ADDAA101000095AG11999GD12995+0762059GF102991999999999999999999GP10060013301024016901027008701024GQ100600741910429GR100600370913549MA1102101101355MW1001EQDN01 00000JPWTH 0QNNAA1 0 02250GA1U0 99999KA1 0 00055LA1 0 01000MA1D0 29930NA1 0 00000QA1 0 10208SA1 0 00060YA1 0 34003
0111718090999991995061412494+49217-057400SAOSP+0022YDF  V02099999999990018019N0032191N1+99999+99999999999ADDAG10002GD16991+0001599GD23991+0018099GD34991+0033099GF108991999051999999999999MW1451MW2611REMAWY009F2ST6SC2;
0106085240999991995062314004+33067-016350FM-15+0082LPPS V0200101N00511220001CN0112651N1+02301+01601101901ADDAG10999GA1021+005409999MA1101901100951REMMET005NEW ;EQDQ01+999990APOSP Q02+999990APOSLPQ03+000000PRSWM2
0095154100999991995052012004+44633+022633FM-12+007899999V0200201N00201036001CN0100001N1+01961+99999101231ADDAA106000091AG14000GF106991031031008001031001MA1999999100311MD1610051+9999EQDQ01+027193ATOD  
0077154430999991995100400004+44450+026917FM-12+004099999V0209991C00001220001CN0150001N1+99999+99999102851ADDAA106000091AG14000GA1001+999999999GF100991001001999999001001MD1410001+9999
0157725058947931995030110003+41167-071583SAO  +0033BID  V0200301N006610003019N0028161N1+00111+00001999999ADDAA101000095AG11999GD16991+0001519GD24991+0003019GF108991999999999999999999GP10060000001000000001000000001000GR100600000900009MA1101901999999MW1001OC101081
0118725957242151995101919003+41317-122317SAO  +1080MHS  V0202601N001019999999N9999999N9+01721-00281999999ADDAA101000095AG11999GQ100600550915449GR100600791913789MA1102131999999MW1001REMAWY014PK WND 05 000;EQDQ01+000002VOVAR 
0063999999999991995111412214-44167+038683FM-18+9999DRIB V02099999999999999999N9999999N9+99999+99999101091ADDAG10999MW1001SA1+0659REMSYN01117609     ]EQDQ01+000002VOVAR 
0061410300999991995042902004+21483+039833FM-15+0310OEMK V0209991C00001999991CY0099001N1+02701+01901999999ADDAG10999MA1100911999999REMMET008NEW CAVOEQDQ01+000000PRSWM2
0100313000999991995010821004+53750+127233FM-12+023299999V0200101N00501220001CN0500001N1-01551-02251100251ADDAG12000GA1001+999999999GF100991001001999999001001MA1999999097251MD1310091+9999EQDQ01+999990APOSP 
0119726088146061995092900003+44800-068833SAO  +0059BGR  V0203401N005112200019N0241401N1+00881-00231999999ADDAA106000091AG10000GF100991999999999999999999GP10060000001000000001000000001000GR100600000900009MA1102441999999MW1001
0084595010999991995032821004+22783+115367FM-12+000599999V0209991C00001012001CN0110001N1+01921+01641101121ADDAG10000GF108991081051012501999999MA1999999100971MD1710071+9999EQDQ01+999990APOSP 
0035712510999991995012713004+50050-112133SAO  +0779WVO  V0200501N000519999999N9999999N9-00801-01101999999ADDAG11999MW1001EQDQ01+000002VOVAR 
0084319690999991995072203004+42650+130800FM-12+003699999V0209991C00001090001CN0200001N1+02461+02101100311ADDAG12000GF106991001001999999001031MA1999999099911MD1810051+9999EQDQ01+999990APOSP 
0229747946999991995020418003+28617-080717SAO  +0003TTS  V0202801N010812200019N0160931N1+01381+00381101051ADDAA106002091AG10000GD12991+0135019GF102991999051999999001001GP10060072701011088401016010201011GQ100600450917779GR100600995914089MA1101051999999MD1810031+9999MW1001OC101901REMAWY047PK WND 2739/45 NTH 4SC (4)/ 8/500/ 58003 6007/;
0085152970999991995081800004+45350+024250FM-12+134699999V0209991C00001021001CN0130001N1+99999+99999999999ADDAA106000091AG14000GF108991081001022501071999MA1999999086941MD1410001+9999ME1315259
0058724520039571995051014004+37300-098583SAO  +0468P28  V0203401N009219999999N9999999N9+01161+00381999999ADDAG11999MW1001REMAWY014PK WND 00 000;EQDQ01+000002VOVAR 
0181703855999991995071218003+56967-133950SAO  +0000KAE  V0201301N004110063019N0160931N1+01381+01111999999ADDAA106000091AG10000GD12991+0045019GD23991+0063019GD33991+0135019GF107991999999999999999999GP10060033601025022101028019901025GQ100600518910999GR100600817913229MA1101561999999MW1001
0221071800999991995022806004+48683+006217SY-MT+0217LFSN V0202101N00411005401CN0150001N1+00521+00021102881ADDAA106000091AG10000GA1071+005409999GF108991071051004501999999GJ105229IA1019IA2999+00309KA1999M+00581KA2999N+00431MA1102711100241MD1210071+9999REMSYN035 333 10058 20043 30003 55087 87618;MET008NEW NOSIEQDQ01+000000PRSWM2
0058876920999991995020313004-37933-057583FM-15+0021SAZM V0203601N00511220001CN0112651N1+01901+00901999999ADDAG10999MA1101691999999REMMET005NEW ;EQDQ01+000000PRSWM2
0137722656230401995112209003+31783-103200SAO  +0859INK  V0201301N002512200019N0321871N1+00661+00551101751ADDAG11000GF100991999999999999999999GP10060000001000000001000000001000GR100600000900009MA1101931999999MD1610121+9999MW1001REMAWY00656012;
0127722689999991995051701003+34433-103083SAO  +1284CVN  V0202101N007219999999N0160931N1+02661-00561999999ADDAG11999GP10060017001028040701031006801028GQ100600755928369GR100600334913369MA1100341999999MW1001OC101021REMAWY011CLR BLO 120
0280725240148201995031208003+41417-081867SAO  +0235CLE  V0201805N003152200059N016000599+00335-00115102745ADDAA101000095GA1999+076205005GD11015+9999993GF101005999999999999999999GP10060000001000000001000000001000GR100600000900009MA1999999099765EQDN01 00000JPWTH 0QNNE71 0 00101G71U0 99999H71 0 32250K71 0 00030L71 0 01000M71 0 29460N71 0 00000Q71 0 10274S71 0 00038V71 0 00100X71 0 18006
0114586060999991995110800004+28600+115917FM-12+0050ZSCN V0203401N00201220001CN0120001N1+00941-00201102871ADDAA106000091AG10000GF101991011001999999041001IA2999+00409MA1999999102311MD1210051+0501REMSYN017 333 00559 30048;
0379726450148981995090717003+44500-088117SAO  +0214GRB  V0200305N008252200059N0160005N1+01285+00395102095ADDAA101000095AG11999GA1999+008235065GA2999+076205005GD12025+0081019GD22025+0750019GF104045999999999999999999GP10060048901010024501016030801010GQ100600424914959GR100600994913469MA1102101099535MW1001EQDQ01+999990APOSP N01 00000JPWTH 0QNNE71 0 00203E71 0 00202G71U0 99999H71 0 15027H71 0 32250K71 0 00039L71 0 01000M71 0 29390N71 0 00000Q71 0 10209S71 0 00055V71 0 00505X71 0 03016
0481723085137501995072618003+36950-076283SAO  +0010NGU  V0202405N006252200019N0096005N1+99999+99999101441ADDAA106000091AG10000GD12991+0120019GD22991+0750019GF104995999011999999001991GP10060093001011077901016019001011GQ100600183919369GR100601257913249KA1999M+03501KA2999N+02721MA1101461999999MD1810051+9999MW1055REMAWY03894/2412/996/ 8/101/ 58005 10095 20081;EQDN01 00205KCLC1 3N02 00205KCLC2 3N03 99999CCLHTU3N04 29960EALTP 3N05 29940FPRES 3N06 08100JPWTH 0N07 10144ISLVP 3QNNE41 3 00205E41 3 00205G41U3 99999L41 0 00600C41 3 29960M41 3 29940N41 0 08100Q41 3 10144V41 0 00599X41 0 24012
0066681040999991995060609004-22883+014433FM-12+000099999V0200401N00261220001CN0750001N1+01241+01021101591ADDAG10000GA1001+999999999GF100991001001999999001001MD1110071+9999
0074911630225261995060516004+21900-159600FM-12+000799999V0200501N004619999999N9999999N9+02291+99999101921ADDAA106000091AG10999MD1210071+9999REMSYN011 333 91214;EQDQ01+000002VOVAR 
0077638200999991995120707004-04033+039617FM-15+0055HKMO V0200501N00511220001CN0112651N1+03001+02201999999ADDAG10999GA1021+007209089MA1101291999999REMMET008NEW NOSIEQDQ01+000000PRSWM2
0055999999999991995082007404-32033+115733FM-18+9999DRIB V02099999999999999999N9999999N9+01661+99999102181ADDAG10999MW1001REMSYN01155524     ?EQDQ01+000002VOVAR 
0087945670999991995030908004-25533+152667FM-12+001199999V0203601N00101036001CN0100001N1+02961+02581100331ADDAG10999AY111999AY201999GF106991031031008001071011MA1999999100201MD1310211+9999MW1291
0071725186999991995101021009+44683-075467NSRDB+009199999V020999999999999999999999999999+99999+99999999999ADDGP10060025901028059801031006801028GQ100600713923949GR100600438913719
0123723495139871995072504003+37150-094500SAO  +0299JLN  V0201401N001512200019N0241401N1+02161+01941101331ADDAG11999GD12991+0720013GF102991999999999999999999GP10060000001000000001000000001000GR100600000900009MA1101421999999MW1001
0088268500999991995032311004+53867+027533FM-15+0234UMMS V0202101N00301009901CN0112651N1+00601-00401999999ADDAG11999GA1071+009909999MA1102401999999REMMET019NEW NOSIG 1331//60;EQDQ01+000000PRSWM2
0140722976999991995073123003+33867-117983SAO  +0029FUL  V0209999C000012200019N0112651N1+02831+01831999999ADDAG10999GD12991+0600019GF102991999999999999999999GP10060068201024038501027037601024GQ100600372925469GR100601053913269MA1100981999999MW1001
0055999999999991995092310164-54817-011467FM-18+9999DRIB V02099999999999999999N9999999N9+99999+99999101941ADDAG10999MW1001REMSYN01133541     ?EQDQ01+000002VOVAR 
0069066600999991995052100004+47383+008567FM-12+056999999V0209991C000019999999N9999999N9+00561+00511102731ADDAA106005091AG10000MA1999999095871MD1710021+9999EQDQ01+000002VOVAR 
0101725715999991995021817354+40483-107217SAOSP+2012HDN  V0209999999999014401MN9999999N9+99999+99999999999ADDAG10999GD13991+0144019GF107991999999999999999999MW1001REMAWY01660ZE/RM OVR 3WO;EQDQ01+000002VOVAR 
0106837080999991995112415004-22783-045200FM-12+0533SBGW V0202401N00211220001CN0150001N1+02701+01801100781ADDAG10000AY121031AY221031GF105991031021008001001011MA1101081094881MD1710151+9999MW1051EQDQ01+999990APOA  
0140026800999991995012400004+56917+018150FM-12+003999999V0202301N01441003601CN0250001N1+00391+00161097981ADDAA106999929AG10001AY161061AY221061GA1061+003609059GF108991081051004501999999MA1999999097511MD1310101+9999MW1021REMSYN017 333 86612 88625;
0071206670999991995040812004+73333+070033FM-12+000699999V0201601N00601004201CN0100001N1+00031-00081100431ADDAG12000GF108991081051004501999999MA1999999100351REMSYN011 333 91107;
0058724604999991995080500004+37000-101900SAO  +1099EHA  V0201301N006619999999N9999999N9+03051+01551999999ADDAG11000MW1001REMAWY014PK WND 21 000;EQDQ01+000002VOVAR 
0155725128999991995080415003+40850-077850SAO  +0378UNV  V0202001N002010450019N0160931N1+02501+02161999999ADDAG11000GD12991+0240019GD23991+0450019GF107991999999999999999999GP10060064401025050301028027601025GQ100600430911079GR100600969913279MA1102101999999MW1001
0169032040999991995070222004+54083-004633SY-MT+0017EGNS V0203301N00311012001CN0300001N1+01241+00971100621ADDAG12999GA1021+001809999GA2071+012009999GF199999061051002501999999MA1100611999999MD1610021+9999REMSYN017 333 81706 86640;MET005NEW ;EQDQ01+000062SCOTCVQ02+000000PRSWM2
0106852440999991995040911004-17650-063133FM-15+0373SLVR V0203601N00621001201CN0112651N1+02501+02301999999ADDAG10999GA1071+001209999GA2081+002409999MA1100611096261REMMET005NEW ;EQDQ01+999990APOSP Q02+000000PRSWM2
0065727684999991995062020004+47333-106933SAO  +0811JDN  V0202701N004619999999N9999999N9+02271+00111999999ADDAG11999MW1001REMAWY021PK WND 13 ///117 RNO;EQDQ01+000002VOVAR 
0115517650999991995062318004+40633+087700FM-12+084799999V0203201N00101090001CN0300001N1+02191+00761099801ADDAA106000091AG14000GF107991041001999999031021KA1999M+03331MA1999999090691MD1710031+0101REMSYN017 333 00100 10333;
0010994580999991995082913004+44783-075800FM-12+0077SUPN V0202301N003619999999N0120001N1+01851+01451101691ADDAG12999
0063999999999991995102901574-25333+084833FM-18+9999DRIB V02099999999999999999N9999999N9+99999+99999999999ADDAG10999MW1001SA1+1969REMSYN01156920     ]EQDQ01+000002VOVAR 
0066511560999991995112015004+46783+085717FM-12+129499999V0209991C00001220001CN0300001N1-00641-01191103941ADDAG12000GA1001+999999999GF100991001001999999001001MD1210051+9999
0161029440999991995011509004+61417+023583SY-MT+0112EFTP V0203301N00261220001CN0200001N1+00111-00041100951ADDAG12001AY161031AY221031GA1021+004509999GA2021+060009999GF106991041051004501001011MA1100911999999MD1210381+9999MW1021REMMET014NEW 247901 73;EQDQ01+000000PRSWM2
0076716330999991995072202004+44750-081100SAO  +0222YVV  V0201301N001512200019N0193121N1+01701+01501101311ADDAG11999GF100991999999999999999999MA1101321098681MW1001EQDQ01+999990APOSP 
0063999999999991995111418004+46667+155117FM-18+9999DRIB V02099999999999999999N9999999N9+00731+99999101731ADDAG10999MW1001SA1+0659REMSYN01121532     ]EQDQ01+000002VOVAR 
0172062700999991995031216004+53217+005750SY-MT+0002EHLW V0200601N00361220001CN0047001N1+01081+00641102551ADDAG11999AY101011AY201011GA1021+066009999GF199999011001999999031011MA1102511102531MD1310051+9999MW1051REMSYN027 333 81360 555 51001 53067;MET008NEW GRN;EQDQ01+000012SCOTCV
0050128600999991995120621004+47167+020233FM-12+008599999V0200601N00401036001CN0150001N1+00071-00111102421ADDAG12000GF108991081001999999071999MD1310091+9999
0072347470999991995021901004+46550+041050FM-12+011299999V0202001N001010360019N0100001N1+99999+99999102221ADDAG12999AY121011AY221011GF107991071001999999071999MD1710011+9999MW1101
0081471250999991995090400194+37033+127883FM-16+0091RKTI V0202901N000510036019N0032001N1+99999+99999999999ADDAG10000GA1011+000159999GA2021+002409999GA3081+003609999MW1101REMMET008NEW CIGE
0078787950999991995052516004+08083-080950FM-15+0088MPSA V0201301N00311220001CN0112651N1+02801+02301999999ADDAG10999GA1021+004509999GA2021+030009999REMMET008NEW 1012EQDQ01+000000PRSWM2
0106061080999991995090505504+55433+009333FM-15+0045EKVD V0201701N00051024001CN0060001N1+01001+00901999999ADDAG12000GA1021+002409999GA2021+006009999GA3071+024009999MA1099591999999REMMET005NEW ;EQDQ01+000000PRSWM2
0046636710999991995122821004+01750+040067FM-15+0244HKWJ V0209991C00001999991CY0099001N1+02701+02001999999ADDAG10000REMMET008NEW CAVOEQDQ01+000000PRSWM2
0090546620999991995080601004+38900+121633FM-15+0097ZYTL V0202401N00601003001CN0050001N1+02701+02601999999ADDAG10999GA1071+003009999GA2071+009909999MA1100511999999REMMET005NEW ;EQDQ01+000000PRSWM2
0108826100999991995011912004-06667-069867FM-12+018899999V0209991C00001220001CN0040001N1+02241+02171999999ADDAA124018091AG10006AY161061AY261061GF102991011001012501051021KA1240N+02041MW1031REMSYN017 333 20204 60184;
0392726390948491995090708003+45067-083567SAO  +0210APN  V0201705N002650213459N012800599+01835+01725100685ADDAA101000095GA1999+014335065GA2999+021345035GA3999+045725035GD12025+9999999GD23035+9999999GD34035+9999999GF108085999999999999999999GP10060000001000000001000000001000GR100600000900009MA1999999098215MW1955EQDN01 01000JPWTH 0QNNE71 0 00202E71 0 00404E71 0 00604G71 0 00070H71 0 15047H71 0 23070H71 0 23150K71 0 00063L71 0 00800M71 0 29000N71 0 01000Q71 0 10068S71 0 00065V71 0 01010X71 0 17005
0070711835999991995070415004+52233-061317SAO  +0321WFU  V02099999999999999999N9999999N9+02101+00601999999ADDAG11000MW1001REMAWY026M M M M/21/06/MMMM/M/M M ;EQDQ01+000002VOVAR 
0140725750241261995050822003+41200-112017SAO  +1362OGD  V0202701N00561018001EN0402341N1+01551+00441999999ADDAG11999GD13991+0180019GF107991999999999999999999GP10060073001011049101016033301011GQ100600362923739GR100601082913419MA1101251999999MW1001
0094382200999991995052618004+42850+074867FM-12+062799999V0202301N00101036001CN0100001N1+01201+00741101931ADDAA199999929AG10000GF105991051001999999031001KA1999M+02031MD1210111+9999REMSYN011 333 10203;
0074917550999991995011003004-13483-172767FM-12+999999999V0202401N002119999999N9999999N9+02881+99999100731ADDAA106000091AG10000MD1710071+9999REMSYN011 333 91206;EQDQ01+000002VOVAR 
0044136120999991995051112004+41300+019467FM-12+000899999V0200301N004019999999N9999999N9+02061+00781999999ADDAG12000MA1999999101501EQDQ01+000002VOVAR 
0081726408999991995071020004+43750-087700SMARS+000121C  V0201801N00301220001CN0129641N1+01941+99999101321ADDAG10999GF104991999999999999999999MW1001SA1+1559UG1990039999REMSYN010SHEBOYGAN;
0072231030999991995020815004+68933+053767FM-12+001199999V0201001N004019999999N0100001N1-00941-01011095881ADDAG12001AY181031AY271031GF106991061001004501071001MD1310081+9999MW1711
0085560670999991995020109004+33467+101483FM-12+335099999V0203201N00601220001CN0300001N1-00371-03501999999ADDAG10000GF101991011011008001001021MA1999999065401MD1710011+0031REMSYN011 333 00301;
0101071490999991995110421304+48733+002400FM-15+0096LFPO V0200601N00311999991CY0099001N1+00001-00201103591ADDAG10999MA1103491102441REMMET016NEW CAVOK NOSIG;EQDQ01+999990APOSP Q02+999990APOSLPQ03+000000PRSWM2
0128700260275021995050420324+71300-156783SAOSP+0004BRW  V0201001N00871003601MN0048281N1+99999+99999999999ADDAG10999GD13991+0036019GD24991+0096019GF108991999999999999999999MA1101591101541MW1451MW2711EQDQ01+999990APOSP Q02+000100PRSWM3
0071722588999991995073101009+33067-096067NSRDB+016399999V020999999999999999999999999999+99999+99999999999ADDGP10060008801028008601031007301028GQ100600798928559GR100600234913259
0052151070999991995101207004+46917+025333FM-12+068999999V0209991C00001000301CN0002001N1+00321+99999999999ADDAG12999GA1091+999999999GF109991091999999999999999
0072716333999991995012817264+44750-081117SAOSP+0223ZVV  V0200601N00361001801EN0144841N1-01001-01301999999ADDAG10999GD14991+0018099GF108991999999999999999999MA1102471999999MW1001
0058474130999991995033101004+43217+141783FM-12+005199999V0200201N003119999999N9999999N9+00401+00241100751ADDAG12999MA1999999100121MD1710181+9999EQDQ01+000002VOVAR 
0096802220999991995052823004+04700-074133FM-15+2548SKBO V0209991C00001021001CN0080001N1+01401+01301999999ADDAG10999GA1021+001509099GA2071+021009999MA1102571075241MW1171REMMET005NEW ;EQDQ01+999990APOSP 
0117722536129111995022414324+29533-098283SAOSP+0232RND  V0200101N003010024019N0008051N1+99999+99999999999ADDAG10999ED199U18299GD16991+0001519GD24991+0024019GF108991999999999999999999MA1102541999999MW1451REMAWY010RVR60+ F4;
0069075580999991995041903004+44117+003017FM-12+072099999V0200501N003119999999N9999999N9+00511+00361100771ADDAA106000091AG10000MA1999999092361MD1710201+9999EQDQ01+000002VOVAR 
0159726544999991995042121003+48017-092867SAO  +0397ORB  V0203201N00461024001MN0160931N1+01271-00561999999ADDAG11000GD13991+0240019GF107991999999999999999999GP10060063501024065901027018101024GQ100600464923069GR100600932913539MA1100981999999MW1001REMAWY010WND 29V36;
0119725489999991995052915003+42983-096067SAO  +0431ORC  V0203001N003019999999N0160931N1+01721+01331999999ADDAG11000GP10060059701028085101031007701028GQ100600522909509GR100600813913309MA1102101999999MW1001REMAWY011CLR BLO 120
0161354970999991995061403004+48950+072850FM-12+065699999V0201401N00301220001CN0500001N1+01811+00171101551ADDAA106000091AG14000GA1001+999999999GF100991001001999999001001IA1019IA2999+00709MA1999999094111MD1810021+9999REMSYN023 555 10121 30007 7000/;EQDQ01+999990APOSP 
0100401980999991995082921004+30000+034833FM-12+0432LLOV V0202901N00261220001CN0150001N1+02881+01601100691ADDAG10000GA1001+999999999GF100991001001999999001001MA1100951095901MD1310151+9999EQDQ01+999990APOA  
0069999999999991995040413004+58483-011233FM-18+9999DRIB V02099999999999999999N9999999N9+00661+99999101131ADDAG10999MD1710241+9999MW1001REMSYN01164528     ?EQDQ01+000002VOVAR 
0197722265138211995081018003+32383-086367SAO  +0051MXF  V0201001N00411015001MN0112651N1+03271+02001101411ADDAA106000091AG10000GD13991+0150019GF107991999011999999001001GP10060055101011019901017036101011GQ100600179916389GR100601265913309MA1101421999999MD1810031+9999MW1001REMAWY023WND 04V13/ 8/100 58003;
0069039150999991995102410004+54867-006450FM-12+006499999V0202201N004119999999N9999999N9+01381+01311098811ADDAG12999MD1410001+9999REMSYN017 333 90710 91141;EQDQ01+000002VOVAR 
0043994390999991995102803004+26683-079000FM-12+0002SPGF V0201501N002119999999N9999999N9+02601+99999101311ADDAG10000MD1210061+9999EQDQ01+000002VOVAR 
0140727836999991995071814003+47467-115800SAO  +1011S06  V0209999C000012200019N0128751N1+01111+01001101511ADDAG11999GF100991999999999999999999GP10060013301025036101028005601025GQ100600777907219GR100600281913229MA1101661999999MW1001REMAWY006NOSPL;
0131013360999991995082218004+60650+006500FM-12+0122ENBM V0203101N00261007501CN0048001N1+01861+01531101241ADDAA199000391AG10001AY181061AY241061GF108991061091008001071999KA1999M+02251MA1999999099821MD1710131+9999MW1801REMSYN011 333 10225;
0118983280999991995081918004+16417+120600FM-12+1501RPUB V0201101N00201105001CN0100001N1+01751+01671100631ADDAA106003091AG10003AY161061AY241061GF107991021021004501001081MA1999999084911MD1810091+9999MW1051REMSYN011 333 56999;
0097717170999991995092121004+47000-065450SY-SA+0031YCH  V0200501N004612200019N0240001N1+01781+01001101931ADDAA106000091AG11000GD12991+0600099GF103991999999999999999999MA1101931101521REMSYN011 555 92121;
0054725128999991995032911009+40850-077850NSRDB+037899999V020999999999999999999999999999+99999+99999999999ADDGP10060000001000000001000000001000GR100600000900009
008676122099999199506191200N+30400-107920MEXIC+1487     V0201805N001059999999N012000599+01605+00365100775ADDAA124000095GF101995999999010005999999KA1024N+00015MD1999999+0004EQDP01  00003PRCP99
0150567780999991995101809004+25017+102683SY-MT+1892ZPPP V0202201N00301220001CN0300001N1+02331+01141999999ADDAG10000GA1021+007809999GA2021+007809089GF103991021011008001001021MA1102001081121MD1710141+0011REMSYN011 333 05100;MET008NEW NOSIEQDQ01+000000PRSWM2
0230061100999991995100718004+55233+009267SY-MT+0040EKSP V0202501N00411005401CN0100001N1+01421+01331102241ADDAA199001091AG11001AY161061AY211061GA1071+005409999GA2071+007509999GF107991071051004501031011KA1120M+01551KA2120N+01271MA1102201101671MD1210201+9999MW1031REMSYN035 333 10155 20127 83615 85620 87625;MET005NEW ;EQDQ01+000000PRSWM2
0116479300999991995071023464+26183+127650FM-16+0008ROAH V0201801N00931003001CN0070001N1+02601+02401999999ADDAG10999GA1071+003009999GA2071+004509099MA1101081999999MW1811REMMET044NEW RERA (BKN010CU BKN015CB A2988 CB OHD MOV
0084719073999991995072908314+58467-078083SAOSP+0025YPH  V0201801N00721000601MN0048281N1+01101+01101999999ADDAG10999GD14991+0006099GF108991999999999999999999MA1099121999999MW1611REMAWY003M ;
0059725810241931995051322004+40733-114033SAO  +1292ENV  V0200801N005119999999N0160931N1+01271-00451999999ADDAG11999MA1100341999999MW1001OC100871REMAWY011CLR BLO 120
0074478120999991995100515004+33150+129733FM-12+001599999V0200701N002119999999N9999999N9+01621+01401101921ADDAG10000MA1101861101741MD1010021+9999EQDQ01+999990APOA  Q02+000002VOVAR 
0142320270999991995052106004+52217+141633FM-12+000799999V0203601N00401002101CN0100001N1+00171+00031100141ADDAG12000AY151061AY221061GA1081+002109079GF108991081061002501999999MA1999999100051MD1310101+9999MW1511REMSYN011 333 88707;EQDQ01+999990APOSP 
0084254000999991995011218004+65733+150900FM-12+004399999V0203601N00201220001CN0200001N1-03421-03711101391ADDAG12000GF108991001001999999001011MA1999999100771MD1210081+9999EQDQ01+999990APOSP 
0132612910999991995111312004+12533-007950SY-MT+0381GABS V0200601N00721105001CN0120001N1+03321+00651101251ADDAG10000GF107991001001999999001021MA1101491999999MD1999999-0021REMSYN017 333 59002 87080;MET016NEW CAVOK NOSIG;EQDQ01+000000PRSWM2
0141724699999991995101413003+39917-105117SAO  +1724BJC  V0203201N006112200019N1207011N1+00221-01121999999ADDAG11999GF100991999999999999999999GM1006000000190000019000001999999GP10060000001000000001000000001000GR100600000900009MA1102611999999MW1001
0105719200999991995071417004+57350-107133SAO  +0495WFN  V0202301N004619999999N9999999N9+02101+00901101181ADDAG11999MA1999999095371MW1001REMAWY030M M M 118/21/09/2309/M/ 7009 ;EQDQ01+999990APOSP Q02+000002VOVAR 
0058953070999991995011304004-20717+116767FM-12+000999999V0202801N021019999999N9999999N9+03341+02921100231ADDAG10999MA1999999100171MD1710141+9999EQDQ01+000002VOVAR 
0189852070999991995103021004-16367-060950SY-MT+0413SLSI V0201801N00101220001CN0500001N1+02851+01461101161ADDAA106000091AG10000GA1021+024009999GF199999011001022501031001KA1240M+02881MA1101391096471MD1710101-0101REMSYN029 333 10288 56090 59010 81358;MET005NEW ;EQDQ01+000012SCOTCVQ02+000000PRSWM2
0043992410999991995051603004+36800-122200FM-18+0003DB24 V0203101N002019999999N9999999N9+01411+99999101291ADDAG10000MD1510041+9999EQDQ01+000002VOVAR 
0080714900999991995011216004+65100-102433SAO  +0244WTD  V0201101N002519999999N9999999N9-03501-03801102881ADDAG11999MA1999999099461MW1001REMAWY0053009;EQDQ01+999990APOSP Q02+000002VOVAR 
0054725845232251995022003009+39300-120717NSRDB+160999999V020999999999999999999999999999+99999+99999999999ADDGP10060000001000000001000000001000GR100600000900009
0075110120999991995061703004+48050+014133FM-12+038899999V0202101N003119999999N9999999N9+01061+01061101701ADDAA199001091AG10000MA1999999097091REMSYN011 333 69977;EQDQ01+000002VOVAR 
0131294810999991995082912004+56850+095217FM-12+018899999V0202901N00301007501CN0500001N1+01571+00951101281ADDAA199999929AG10001AY181061AY221061GF106991061031008001001001KA1999M+01921MA1999999099061MD1210021+9999MW1021REMSYN011 333 10192;
0037700634999991995071314009+70317-149583NSRDB+002099999V020999999999999999999999999999+99999+99999999999ADDGQ100600809904739GR100600209913229
0103862970999991995071606004-27317-055833FM-12+0091SGEN V0202301N00671001201CN0200001N1+01481+01321101631ADDAA106000591AG10001AY181061AY221061GF108991081061001501999999MD1210191+9999MW1021REMSYN011 333 69961;
0234030910999991995051518004+57200-002217SY-MT+0065EGPD V0203301N00621220001CN0350001N1+00801-00321101311ADDAA199000591AG12001AY181061AY211061GA1021+004509099GF103991021091004501061021KA1120M+00971MA1101291999999MD1510001+9999MW1151REMSYN065 33312 10080 21032 40131 55000 69942 71581 82962 333 10097 81915;MET008NEW NOSIEQDQ01+000000PRSWM2
0140477940999991995051702004+35533+134167FM-15+0018RJOR V0203001N00721007501CN0112651N1+01601+01201999999ADDAG10999GA1021+003009999GA2021+004509999GA3071+007509999MA1101391999999REMMET039NEW (SCT010CU SCT015CU BKN025CU A2995);EQDQ01+000000PRSWM2
0059716210999991995021103254+44117-077533FM-16+0086YTR  V0202501N00931006001CN0193121N1+99999+99999999999ADDAG10000GA1081+006009999REMMET005NEW ;EQDQ01+000000PRSWM2
0106233310999991995111609004+66950+065467FM-12+089099999V0202301N01201000601CN0001001N1-02101-02161100521ADDAG12001AY171031AY231031GF108991081051000751999999MA1999999089231MD1710271+9999MW1711EQDQ01+999990APOSP 
0145999999999991995012412004+44700-031400FM-13+9999DIDT V0202201N015410012019N0100001N1+01521+01321099601ADDAG12000AY121061AY221061GF107991071051001501021001MD1610151+9999MW1021SA1+1429UA1M030109999UG1079992109REMSYN031 22263 00142 20302 321// 40798;
