0296722900231881996020903003+32733-117167SAO  +0004SAN  V0209999C000052200059N0160005N1+01675+01395101475ADDAA101000095AG10000GF100005999999999999999999GP10060000001000000001000000001000GR100600000900009MA1101491101375MD1310051+9999MW1001REMAWY00653005;EQDQ01+999990APOSP N01 00000JPWTH 0QNNE71 0 00099G71U0 99999K71 0 00057L71 0 01000M71 0 29935N71 0 00000Q71 0 10147S71 0 00062V71 0 00000X71 0 00000
0050034880999991996060503004+52950+001133FM-12+002199999V0202001N003619999999N0070001N1+01251+01071102551ADDAG12000MD1710071+9999REMSYN017 555 80/99 90253;
0069949740999991996011500004-42200+145167FM-12+002099999V0202901N008719999999N9999999N9+01481+99999100931ADDAA106000091AG10000MA1999999100701MD1210241+9999EQDQ01+000002VOVAR 
0077537720999991996063023004+37783+112550FM-15+0779ZBYN V0209991C00001999991CY0099001N1+01801+01501999999ADDAG10999MA1100411091481REMMET008NEW CAVOEQDQ01+999990APOSP Q02+000000PRSWM2
0554722226938411996071223003+30717-087017FM-15+0054NSE  V0209999900155009301CN0048281N1+02285+02225101411ADDAA101000021AG11999GA1021+005101999GA2081+009301091GF108995999999999999999999GP10060025101011005301016022701011GQ100600616927989GR100600628913229MA1101461999999MW1101MW2801MW3815MW4955REMMET066NEW FQT LTGICCG TS OVHD MOV SE SLP141 WR// T1 SET P0000 T02280217;EQDN01 00203KCLC1 3N02 00610KCLC2 3N03 00031CCLHT 3N04 60017CCLT1 3N05 18031CCLT2 3N06 29960EALTP 3N07 29740FPRES 3N08 01024JPWTH 0N09 10141ISLVP 3QNNE41 3 00203E41 3 00610G41 3 00031H41 3 60017H41 3 18031K41 0 00072C41 3 29960M41 3 29740N41 0 01024Q41 3 10141S41 0 00073V41 0 01099X41 0 99003
0069029440999991996022107504+61417+023583FM-15+0112EFTP V0200301N00101220001CN0112651N1-02101-02301999999ADDAG11999GA1021+060009999MA1103011999999MW1761REMMET013NEW 0639//78;
0079723035999991996070823454+34983-078883FM-15+0058KFAY V0202101N00411024001CN0096561N1+03101+02201999999ADDAG10000GA1021+010501999GA2071+024001999MA1100611999999MW1051REMMET007NEW 33;
0165710934999991996122412004+66150-065717FM-15+0023CYXP V0200801N001510630019N0241401N1-02101+99999101001ADDAA106999999AG11000GA1021+010509999GA2071+063009999GF107991999999999999999999MA1100981999999MW1761REMMET037NEW SC2CI2 SNW CVR/MUCH LOOSE SLP100;EQDQ01  00002PRCP06
0137200870999991996092000004+79550+090617FM-12+000899999V0201401N00501001801CN0220001N1-00791-00891102821ADDAA106000091AG14000GA1081+001809079GF108991081051002501999999KA1120N-01131MA1999999102711MD1810021+9999REMSYN023 333 21113 50040 88706;
0139471560999991996102812004+35133+126917FM-12+007299999V0201601N00211220001CN0120001N1+01391+00901101871ADDAA106000091AG10000GF102991001001999999001011IA1019IA2999+01109KA1120M+02061MA1999999101001MD1210141+9999REMSYN023 333 10206 30011 55064;
0121718820999991996041414004+50967-118183SAO  +0443YRV  V0209991C000012200019N0144841N1+00001+00001102491ADDAG11999GD16991+0001599GD22991+0240099GF102991999999999999999999MA1102341097101MW1001REMAWY0062007 ;EQDQ01+999990APOSP 
0063999999999991996112816284-21433-130333FM-18+9999DRIB V02099999999999999999N9999999N9+99999+99999999999ADDAG10999MW1001SA1+2539REMSYN01132907     ]EQDQ01+000002VOVAR 
0071722547999991996090618009+30683-097683NSRDB+024099999V020999999999999999999999999999+99999+99999999999ADDGP10060071001028062201031016301028GQ100600284914819GR100601183913469
0161725170147371996070921154+40650-075433FM-16+0117KABE V0202701N00261021001CN0064371N1+02401+01601999999ADDAG10003GA1021+007801091GA2021+018001999GA3071+021001999MA1100371999999MW1801MW2951REMMET067NEW AO2 PK WND 28026/2103 TSB15RAB00 OCNL LTCCG S TS S MOVG E P0006
0054701780265291996112309009+65167-152100NSRDB+007199999V020999999999999999999999999999+99999+99999999999ADDGP10060000001000000001000000001000GR100600000900009
0058477770999991996100610004+34233+135167FM-12+001899999V0201601N004119999999N9999999N9+02351+01661101651ADDAG10999MA1999999101451MD1210071+9999EQDQ01+000002VOVAR 
0095726510149441996081111464+43583+999999FM-15+0435KFSD V0200901N00151000151CN0020111N1+01301+01301999999ADDAG10000GA1091+000159999MA1101801096631MW1101REMMET020NEW AO2 SFC VIS 1 PNEQDQ01+999990APOSP 
0119722057128541996112320354+28783-081233FM-15+0017KSFB V0200801N00511220001CN0160931N1+02301+01101999999ADDAG10000GA1021+012901999GA2021+014701999GF104991999999999999999999MA1101831999999REMMET008NEW AO1;EQDQ01+000000PRSWM2
0125984300999991996060721004+14633+121017FM-12+004199999V0200101N00901220001CN0120001N1+02531+02211100861ADDAA106000091AG10000AY141031AY241031GA1021+006009089GF103991021021008001001081MD1610031+9999MW1051REMSYN017 333 56999 82820;
0069958420999991996010423004-36383+143000FM-12+011899999V0201101N00211220001CN0200001N1+01941+01261999999ADDAA106000091AG10999AY101999AY201999GF102991001001999999001011MW1021
0172033020999991996060816004+53250-004533SY-MT+0011EGOV V0202001N00871075001CN0450001N1+01341+00971102121ADDAG11999GA1021+007509999GA2071+075009999GF199999011011008001001041MA1102101999999MD1810041+9999REMSYN017 333 81825 85075;MET008NEW BLU;EQDQ01+000052SCOTCVQ02+000000PRSWM2
0172287110999991996110518004+54583+052800FM-12+031299999V0200701N00401001801CN0100001N1-00101-00141101791ADDAA199002091AG10001AY181061AY221061GA1071+001809079GF108991081031001501999999KA1120M-00061MA1999999098011MD1210041+9999MW1851REMSYN017 333 11006 87706;EQDQ01+999990APOSP 
0066471200999991996022712004+37250+127000FM-15+0024RKSW V0201801N00151999999CN0112651N1+99999+99999999999ADDAG10000MA1102541999999REMMET013NEW QFF102T6;EQDQ01+000000PRSWM2
0077999999999991996082009014-45150-158967FM-18+9999DRIB V02099999999999999999N9999999N9+99999+99999999999ADDAG10999MD1710021+9999MW1001SA1+0989REMSYN01154925     ]EQDQ01+000002VOVAR 
0155726700999991996031702003+44517-109017SAO  +1553COD  V0200701N003010240019N0160931N1+00221-00501999999ADDAG11999GD12991+0210019GD23991+0240019GF107991999999999999999999GP10060000301024000501027000301024GQ100600882926689GR100600016905189MA1101081999999MW1001
0138014740999991996030406004+59900+009533FM-12+029499999V0203601N00051015001CN0750001N1-00641-00661101561ADDAA106000091AG14000AJ100589199999999GF107991071001017501071999IA1239KA1120N-00781MA1999999097831MD1410001+9999REMSYN017 333 21078 47058;
0131717140999991996062507004+46800-071383FM-15+0073CYQB V0200301N00411008101CN0064371N1+01301+01201100681ADDAG11999GA1071+008109999GA2081+010509999MA1100681099811MW1101MW2801REMMET018NEW SC6SC2 SLP069;EQDQ01+999990APOSP Q02+999990APOSLP
0116030140999991996053110004+60117-002067FM-12+001399999V0201901N009819999999N9999999N9+01051+00931098851ADDAG10999MD1210221+9999OA140101601REMSYN053 555 1//31 05014 07189 10201 11325 12405 14914 15430;EQDQ01+000002VOVAR 
0057714963999991996040414004+65767-111250SAO  +0494YWO  V0209991C000012200019N0241401N1-02701-02901102821ADDAG11999GF100991999999999999999999MA1102101999999MW1001
0139719194999991996092022004+68533-089817FM-15+0015CYBB V0202101N003110042019N0241401N1+00801+00601101691ADDAG11999GA1071+004209999GF107991999999999999999999MA1101661999999REMMET044NEW SC7 8.5/1.5/NIL/LAST OB/ NEXT231400Z SLPEQDQ01+000000PRSWM2
0071724110137411996121817009+37317-079967NSRDB+035099999V020999999999999999999999999999+99999+99999999999ADDGP10060017701024005801027015001024GQ100600618916799GR100600667914139
0097427240999991996040809004+23883+091250FM-12+0016VEAT V0201801N00311220001CN0040001N1+03401+02201100611ADDAA106000091AG10000GA1001+999999999GF100991001001999999001001MD1999999-0251REMSYN011 333 59025;
0125724815999991996042522003+37283-120517SAO  +0047MCE  V0203201N005112200019N0241401N1+02611+00771999999ADDAG10999GF100991999999999999999999GP10060086901024080301027018301024GQ100600313922579GR100601153913499MA1101961999999MW1001
0058478380999991996081914004+32200+130033FM-12+001499999V0209991C000019999999N9999999N9+02581+02121101311ADDAG10999MA1999999101151MD1410001+9999EQDQ01+000002VOVAR 
0147618090999991996112718004+11317-012300FM-12+1026GULB V0201801N00601220001CN0150001N1+02551+00851100901ADDAA106000091AG10000GA1011+006009049GF101991011051999999041001KA1120M+02931MD1999999+0061REMSYN029 333 10293 58006 81520 81360;EQDQ01+000992SCOLCB
0238106260999991996031314004+49850+007600SY-MT+0396ETSP V0200801N00511009001CN0090001N1-00141-00721101201ADDAG10999AY121021AY221021GA1071+009009999GF199999051021008001001001MA1100911096221MD1710041+9999MW1221REMSYN065 333 85828 555 BOT 01001 11005 21005 30002 40019 999 34/// 4////;MET020NEW BLU BLU+TEMPO WHEQDQ01+000052SCOTCVQ02+000000PRSWM2
0081820990999991996032106004+00050-051067FM-12+001799999V0200501N00311045001CN0200001N1+02421+02321100981ADDAA106000091AG10000GF105991011051004501031001MD1999999-0141REMSYN011 333 59014;
0103715380999991996092501004+42267-082967FM-15+0190CYQG V0203101N00571220001CN0241401N1+01501+00401101561ADDAG11999GF100991999999999999999999MA1101561099291REMMET008NEW SLP1EQDQ01+999990APOSP Q02+000000PRSWM2
0071726545999991996072122009+43767-098033NSRDB+039799999V020999999999999999999999999999+99999+99999999999ADDGP10060029001028008701031022601028GQ100600426925049GR100600973913239
0069947780999991996050205004-29733+151733FM-12+106299999V0200901N00671004201CN0040001N1+01351+01261999999ADDAA106013091AG10999AY161999AY221999GF108991081001004501021999MW1631
0078152830999991996031517004+00000+999999FM-12+087799999V0209991C00001004201CN0020001N1-00431+99999999999ADDAG10999AY121021AY221021GF108991081051004501999999MW1101REMSYN011 333 95080;
0125725610240301996012301354+41100-102983SAOSP+1312SNY  V0200401N00361002401MN0040231N1-01171-01341101961ADDAG10999GD14991+0024019GF108991999999999999999999MA1101291999999MW1451MW2711REMAWY019TNO ZRNO PCPN 0000;EQDQ01+000100PRSWM3
0054724838999991996092013009+39100-121567NSRDB+001999999V020999999999999999999999999999+99999+99999999999ADDGP10060000001000000001000000001000GR100600000900009
0099999999999991996031918004+55300+013800FM-13+9999UEIS V0200901N00601220001CN0200001N1+00281+99999102041ADDAG12000GF101991001001999999001021MD1710271+9999SA1+0509UA1M049999999REMSYN019 22263 00050 20401;
0071724113999991996092916009+37217-080417NSRDB+065099999V020999999999999999999999999999+99999+99999999999ADDGP10060069201025085401028010501025GQ100600465914389GR100600938913639
0063999999999991996061506004-37267+171333FM-18+9999DRIB V02099999999999999999N9999999N9+01251+99999101911ADDAG10999MW1001SA1+1559REMSYN01155590     ]EQDQ01+000002VOVAR 
0130703400255061996092418484+59750-154917FM-15+0049PAIL V0200901N00771009001CN0160931N1+00401+00201100541ADDAG11999GA1021+004501999GA2071+009001999GA3081+012001999GF108991999999999999999999MA1100511999999MW1611OC101131REMMET008NEW SLP0
0132479110999991996072600004+24467+122983FM-15+0017ROYN V0201301N00821024001CN0112651N1+02801+02501999999ADDAG10000GA1021+003009999GA2021+015009999GA3081+024009999MA1100001999999REMMET031NEW 2CU010 4SC050 8AC080 A2954;EQDQ01+000000PRSWM2
0090013755999991996082505504+61033+002033FM-15+0010ENGC V0201601N01181220001CN0112651N1+01401+01301999999ADDAG10000GA1021+003609999GA2021+021009999MA1100201999999REMMET005NEW ;EQDQ01+000000PRSWM2
0141999999999991996082700004-15800+152600FM-13+99999VPU V0201301N01541007501CN0500001N1+02401+02201101651ADDAG10000GF106991061041008001071031MD1110051+9999SA1+2409UA1M050359999UG1050351409UG2999991509REMSYN037 22243 00240 20507 31415 40507 50507;
0116723200938011996022904003+34350-085167SAO  +0196RMG  V0209999C000019999999N9999999N9+00551-00671999999ADDAG11999GP10060000001000000001000000001000GR100600000900009MW1001REMAWY021PK WND 11 ///230 RNO;EQDQ01+000002VOVAR 
0116012890999991996111712504+62583+011350FM-15+0626ENRO V0203201N004610270019N0112651N1-00201-00501999999ADDAG10999GA1021+005409999GA2071+027009999GF107991999999999999999999MA1100101999999REMMET005NEW ;EQDQ01+000000PRSWM2
0086723300999991996092213484+36767-090467FM-16+0146KP02 V0209999999999999999CN9999999N9+99999+99999999999ADDAG11999REMMET032NEW AO1 PK WND 14 238 T01830112;EQDQ01+000002VOVAR Q02+000000PRSWM2
0128383880999991996030518004+41033+057767FM-12+006299999V0203601N00101036001CN0200001N1+00451-00261102161ADDAA106000091AG14000GF106991061001999999031001KA1999M+00921MA1999999101371MD1210111+9999REMSYN011 333 10092;EQDQ01+999990APOSP 
0058601550999991996042511004+33567-007667FM-15+0062GMMC V0200601N00411220001CN0060001N1+02101+01101999999ADDAG10999MA1101591999999REMMET005NEW ;EQDQ01+000000PRSWM2
0100011220999991996111204504+65800+013133FM-15+0070ENMS V0202001N00101220001CN0112651N1-01301-01701999999ADDAG10999GA1021+007509999GF104991999999999999999999MA1101801999999REMMET005NEW ;EQDQ01+000000PRSWM2
0110585060999991996041618004+29583+115983FM-12+116599999V0202201N00601220001CN0300001N1+01781+00491100561ADDAA106000091AG10000GA1001+999999999GF100991001001999999001001KA1999M+02091MD1210081+9999REMSYN011 333 10209;
0054724286938241996110208009+39950-081900NSRDB+026899999V020999999999999999999999999999+99999+99999999999ADDGP10060000001000000001000000001000GR100600000900009
0069952890999991996061511004-16767+145250FM-12+000399999V0201401N005719999999N9999999N9+02261+99999101371ADDAA106000091AG10999MA1999999101341MD1210171+9999EQDQ01+000002VOVAR 
0100854880999991996100921004-29917-071200FM-12+0146SCSE V0202801N00511220001CN0200001N1+01701+00491102001ADDAG10000GA1001+999999999GF100991001001999999001001MA1999999100311MD1710091+9999EQDQ01+999990APOSP 
0127569510999991996081200004+23950+100217FM-12+150399999V0200201N00101012001CN0250001N1+01891+01811999999ADDAA106000591AA224027091AG10002AY181061GF108991081041012501999999MA1999999084691MD1210051+0001MW1001REMSYN017 333 00051 70268;
0045424790999991996040403304+25450+082867FM-15+0085VIBN V0202301N00261220001CN0030001N1+02901+00501999999ADDAG10999MA1100911999999MW1051REMMET005NEW ;
0074723125938461996070419504+34500-082717FM-15+0238KAND V0202501N00511075001CN0160931N1+02901+01201999999ADDAG10999GA1071+075001999MA1101351999999REMMET005NEW ;EQDQ01+000000PRSWM2
0058476020999991996110915004+38017+138250FM-12+003699999V0203001N010319999999N9999999N9+01821+01621101291ADDAG10000MA1999999101091MD1210191+9999EQDQ01+000002VOVAR 
0147719540263941996092400004+69450-133017FM-15+0005CYUB V0200101N00051004501CN0241401N1+00301+00101101711ADDAG11000GA1021+001209999GA2071+004509999GA3081+030009999GF108991999999999999999999MA1101691999999REMMET020NEW SF2SC6AC1 SLP171EQDQ01+000000PRSWM2
0074383450999991996052009004+42517+072250FM-12+121699999V0202901N00101090001CN0500001N1+02261+00551999999ADDAG12000GF107991031091017501001051MA1999999087491MD1710021+9999ME1314689
0077999999999991996112823414+34967-131533FM-18+9999DRIB V02099999999999999999N9999999N9+99999+99999103001ADDAG10999MD1710051+9999MW1001SA1+1909REMSYN01146956     ]EQDQ01+000002VOVAR 
0119766580999991996123019454+19267-103583FM-15+0723MMIA V0209999C00001220001CN0096561N1+02501+01701101951ADDAG10999GF100991999999999999999999MA1101421096401REMMET008NEW -HZYEQDQ01+999990APOSP Q02+999990APOSLPQ03+000000PRSWM2
0072725895942361996061917004+42150-121733SAO  +1247LMT  V0200801N002512200019N0482801N1+01551-00561101611ADDAG11999GD12991+0600099GF102991999999999999999999MA1101761999999MW1001
0179726776240361996050204003+47050-109467SAO  +1270LWT  V0202501N005610075019N0160931N1+00221+99999999999ADDAG11999GD12991+0060019GD23991+0075019GD33991+0093019GF107991999999999999999999GP10060000001000000001000000001000GR100600000900009MA1101251999999MW1001REMAWY017SLP 137/ DWPT 37;
0099108570999991996033009214+48067+010900FM-16+0628ETSA V0203001N00311000151CN0005001N1+00001-00101999999ADDAG10002GA1091+000159999MA1100911093651MW1751REMMET008NEW RED;EQDQ01+999990APOSP Q02+000100PRSWM3
0054726576149281996092507009+45117-095083NSRDB+034599999V020999999999999999999999999999+99999+99999999999ADDGP10060000001000000001000000001000GR100600000900009
0177724665930101996122819003+39267-103667FM-15+1635KLIC V0202501N00571220001CN0160931N1+01101-01301101151ADDAG11999GF100991999999999999999999GP10060047401024091901027005401024GQ100600628917319GR100600646914159MA1101221999999REMMET030NEW AO2 SLP115 T01061133 TSNO;EQDQ01+000000PRSWM2
0108725305999991996121520504+41917-088250FM-16+0231KDPA V0202401N010310045019N0144841N1+99999+99999999999ADDAG10999GA1081+004501999GF108991999999999999999999MA1101801999999OC101291REMMET005NEW ;EQDQ01+000000PRSWM2
0108471390999991996010700004+35983+129417FM-15+0020RKTH V0202001N001010090019N0024001N1+00201+00001999999ADDAG10000GA1021+000159999GA2071+009009999GA3081+024009999MA1102741999999MW1101REMMET020NEW CIG030/ QFF1027P
0157717090999991996050202004+47417-061783SAO  +0010YGR  V0201801N00661003301MN0080471N1+00501+00401101761ADDAG11999GD14991+0033099GF108991999999999999999999MA1101761101641MW1451MW2801OC100971REMAWY027SC10 LAST OB/NEXT 021100Z ;EQDQ01+999990APOSP Q02+000100PRSWM3
0140718550999991996051222004+51100-100050SAO  +0305YDN  V0202901N004110240019N0144841N1+01401-00201101771ADDAG11999GD12991+0138099GD22991+0150099GD33991+0240099GF107991999999999999999999MA1101661098051MW1001REMAWY0100005 7017;EQDQ01+999990APOSP 
0128655030999991996080818004+12350-001517FM-12+0306DFFD V0202601N00211220001CN0200001N1+03101+01991100911ADDAA106000091AG10000GA1011+006009059GF103991011051008001001021KA1120M+03301MD1999999-0081REMSYN029 333 10330 59008 81620 83076;
0161308030999991996081300004+51700+102450FM-12+088999999V0209991C00001007501CN0100001N1+00861+00761101431ADDAA199007091AG10001AY181061AY221061GF108991071091008001071999GJ107389KA1120N+00851MA1999999091251MD1210111+9999MW1801REMSYN033 333 20085 55123 555 11011 7007/;
0110838093999991996011902004-23233-045867FM-15+0646SBSJ V0201901N99999999999CN9999999N9+99999+99999999999ADDAG10999REMMET040NEW 0KT 6000 SCT010 BKN100 21/20 Q1011 ;EQDQ01+010291WOSPD Q02+000002VOVAR Q03+000000PRSWM2
0093020490999991996090910504+67150+020650FM-15+0310ESNG V0202101N00361999991CY0099001N1+00701-00501101401ADDAG11999MA1101291097071REMMET008NEW CAVOEQDQ01+999990APOSP Q02+999990APOSLPQ03+000000PRSWM2
0093718770999991996012509004+51117-114017SY-SA+1084YYC  V0202001N002112200019N0240001N1-02441-02831102091ADDAA106000091AG11000GF100991001001999999001001MA1100981088661REMSYN011 555 92509;AWY0058011;
0115999999999991996050806004+14800+145800FM-13+9999D5OE V0201301N00721002101CN0200001N1+03101+02601100851ADDAG10000GF105991051051002501999999MD1710051+9999UA1M040109999UG1050101209REMSYN031 22223 20402 312// 40502 80270;
0106292820999991996062603004+58417+097400FM-12+013499999V0202401N00201007501CN0200001N1+01241+00561100641ADDAG12000AY141031AY221031GF107991071091008001001001MA1999999099061MD1810041+9999MW1021EQDQ01+999990APOSP 
0098937800999991996053020004-43483+172550FM-15+0034NZCH V0202801N00101220001CN0400001N1+00101-00301999999ADDAG10999GA1021+006009999MA1100101999999REMMET029NEW TEMPO FM2100 29018G30KT ;EQDQ01+000000PRSWM2
0037700636274051996092620009+70250-148333NSRDB+001499999V020999999999999999999999999999+99999+99999999999ADDGQ100600752914519GR100600348913619
030872314013881199611150350C+35217-080933FM-15+0220CLT  V0200405N003650088459N0160005N1+00525-00105103605ADDAA101000095AG10999GA1071+008701999GD13995+9999999GF107991999999999999999999MA1103565100711REMMET020NEW SLP360 T00521010EQDQ01+999990APOSP Q02+000000PRSWM2N01 00000JPWTH 0QNNE71D0 00499F71 0 00499G71 0 00029K71D0 00030J71 0-00010L71 0 01000C71 0 03058N71 0 00000Q71 0 10360S71D0 00041R71 0 00052X71 0 04007
0178719330999991996110606004+58767-111117SY-MT+0232CYPY V0200601N00151220001CN0140001N1-00651-00731100301ADDAA106000091AA224000091AG14000GF100991001001999999001001KA1240M-00031KA2240N-01251MA1100141097401MD1710121+9999REMSYN023 333 11003 21125 70000;MET008NEW SLP0EQDQ01+000000PRSWM2
0063999999999991996101507374+24967-065117FM-18+9999DRIB V02099999999999999999N9999999N9+99999+99999999999ADDAG10999MW1001SA1+2789REMSYN01141913     ]EQDQ01+000002VOVAR 
0074607403999991996062013004+35767+010750FM-15+0002DTMB V0200801N00511220001CN0112651N1+03001+01801999999ADDAG10999GA1021+006909999MA1101291999999REMMET005NEW ;EQDQ01+000000PRSWM2
0106718070999991996031417004+47300-054000SAO  +0016WAR  V0203401N006119999999N9999999N9+00501-00401101351ADDAG11999MA1999999101191MW1001REMAWY031M M M 135/05/-04/3412/M/ 7025 ;EQDQ01+999990APOSP Q02+000002VOVAR 
0116804480999991996101220004+07233-070800FM-15+0131SVGD V0200201N003110270019N0112651N1+03001+02001999999ADDAG10999GA1021+006009999GA2071+027009999GF107991999999999999999999MA1100611999999REMMET005NEW ;EQDQ01+000000PRSWM2
0122789700999991996121021004+10617-061350FM-15+0015TTPP V0200901N00411220001CN0112651N1+02901+02301101141ADDAG10002GA1021+007509999GF104991999999999999999999MA1101081100891MW1161REMMET005NEW ;EQDQ01+999990APOSP Q02+999990APOSLP
0055999999999991996111403004-42617-056333FM-18+9999DRIB V02099999999999999999N9999999N9+99999+99999100051ADDAG10999MW1001REMSYN01134906     ]EQDQ01+000002VOVAR 
0071722867231561996111100009+33933-116967NSRDB+079299999V020999999999999999999999999999+99999+99999999999ADDGP10060013501025022101028008301025GQ100600764923779GR100600327913959
0127725287047241996082016504+43100-078950FM-15+0180IAG  V0202101N006610270019N0080001N9+02701+01901999999ADDGD12991+0270019GD24991+0420019GF108991999001999999071999MA1102171999999MW1051REMMET019 SLP216 8/07/ 9/08/EQDQ01+295351APOSP 
0087725846999991996091307304+39317-120133FM-15+1798KTRK V0209999C00001220001CN0160931N1+00801-00101999999ADDAG10999GF100991999999999999999999MA1101351999999REMMET008NEW AO1;EQDQ01+000000PRSWM2
0098726557149101996092013094+45867-095400FM-16+0434KAXN V0201101N009810009019N0020111N1+01101+01101999999ADDAG10999GA1081+000901999GF108991999999999999999999MA1100411999999MW1101OC101181REMMET008NEW AO2;
0210030910999991996071506004+57200-002217SY-MT+0065EGPD V0203001N00771014401CN0750001N1+01211+00691103051ADDAA106000091AG14000GA1021+009009999GA2071+014409999GF107991071081012501999999IA1019IA2999+00809KA1120N+01101MA1103011999999MD1210141+9999REMSYN029 333 20110 30008 81830 87648;MET008NEW NOSIEQDQ01+000000PRSWM2
0055999999999991996020318134+50983-045433FM-18+9999DRIB V02099999999999999999N9999999N9+99999+99999999999ADDAG10999MW1001REMSYN01144774     ]EQDQ01+000002VOVAR 
0061726165999991996092414354+42900-072267FM-15+0149KEEN V0209999C00001999999CN0160931N1+00801+00501999999ADDAG11000MA1101591999999REMMET008NEW AO1;EQDQ01+000000PRSWM2
0104999999999991996051520004+53200+003200FM-13+9999SHIP V0203601N007719999999N9999999N9+00671+99999102041ADDAG12999MD1710021+9999OA149900931REMSYN041 22200 00076 10703 333 91017 91118 91216;EQDQ01+000002VOVAR 
0401911820225211996112506003+21333-157917SY-MT+0002HNL  V0200905N00315220005CN0192005N1+02455+02055101805ADDAA101000095AA206000091AA324000091AG10000GD11995+9999999GD22995+9999999GF103991031011008001001001GP10060000001000000001000000001000GR100600000900009MA1101795101741MD1210191+9999REMSYN021 333 70000 555 92506;EQDQ01+999990APOA  N01 00000JPWTH 0QNNE71D0 00299F71 0 00199E71D0 00299F71 0 00299G71U0 99999K71D0 00069J71 0 00205L71 0 01200C71 0 03006N71 0 00000Q71 0 10180S71D0 00076R71 0 00245X71 0 09006
0112472025999991996090606004+45250+141183FM-15+0030RJER V0200401N00311220001CN0112651N1+01701+01101999999ADDAG11000GA1021+007509999GF102991999999999999999999MA1101291999999REMMET017NEW 1CU025 A2993;EQDQ01+000000PRSWM2
0179727840999991996111820504+46567-119600FM-15+0223KHMS V0200701N001010090019N0160931N1+00501+00401100231ADDAA101000391AA203000591AG11001GA1081+009001999GF108991999999999999999999MA1100171097541MW1611REMMET056NEW SLP023 60002 8/5// T00510036 57019 P0001 RSNK M02/23EQDQ01+999990APOSP 
0071722056128341996121519009+29183-081067NSRDB+000999999V020999999999999999999999999999+99999+99999999999ADDGP10060051101024062701027015401024GQ100600553919979GR100600805914129
0115483790999991996093012004+16433+101150FM-12+011699999V0200601N00261220001CN0100001N1+02901+02101100341ADDAA106000091AG10000GF102991011011008001031001KA1120M+03361MA1999999099031MD1999999+0051REMSYN017 333 10336 58005;
0105714630999991996011802004+42867-079250SAO  +0184WPC  V0201401N003619999999N9999999N9+00501+99999101961ADDAG11999MA1999999099681MW1001REMAWY030M M M 196/05/M/1407/M/M 0002 ;EQDQ01+999990APOSP Q02+000002VOVAR 
0442722530129211996112423003+29533-098467FM-15+0247SAT  V0203205N00415010365MN0160005N1+00395-00175101745ADDAA101000095AG10999GA1021+008101999GA2081+010201999GD12995+0082359GD24995+0103659GF108991999999999999999999GP10060005301024000001027005301024GQ100600782923779GR100600286914049MA1101835098881OC101081REMMET025NEW AO2 SLP174 T00391017;EQDQ01+999990APOSP Q02+000000PRSWM2N01 00000JPWTH 0QNNAA1D0 02027BA1 0 02027AA1D0 06034BA1 0 06034GA1 0 00034KA1D0 00029JA1 0-00017LA1 0 01000CA1 0 03007NA1 0 00000QA1 0 10174SA1D0 00039RA1 0 00039YA1 0 32008
0086479100999991996010607004+27833+128883FM-15+0005RJKN V0203501N00211220001CN0112651N1+01901+00901999999ADDAG10999GA1021+010509999MA1102101999999REMMET017NEW 1CU035 A3016;EQDQ01+000000PRSWM2
0129999999999991996040406004+25900-077700FM-13+9999C6TV V0201101N00931220001CN0200001N1+02021+01151101901ADDAG10000GF104991031011008001031001MD1710031+9999SA1+2309UA1M040109999UG1040150909REMSYN037 22224 00230 20402 309// 40403 80150;
0063030020999991996022204004+60750-000850FM-12+001599999V0202601N004619999999N9999999N9+00241-00031101171ADDAG10999MD1710091+9999REMSYN011 555 90350;EQDQ01+000002VOVAR 
0061856820999991996071411004-36767-073050FM-15+0016SCIE V0200901N00151999991CY0099001N1+00201+00101999999ADDAG10999MA1101491999999REMMET008NEW CAVOEQDQ01+000000PRSWM2
0131719073999991996030422004+58467-078083SAO  +0025YPH  V0202401N006110690019N0128751N1-01801-02201100631ADDAG11999GD12991+0510099GD24991+0690099GF108991999999999999999999MA1100611999999MW1761REMAWY035AS2CS7 LAST MANNED OBS/NXT 051300 ;
0248717350999991996020612004+47700-079850SY-SA+0243YXR  V0202701N002112200019N0240001N1-02711-02751102991ADDAA106000091AA224000891AA399001091AG14000AJ100459199999999AL12400191GD12991+0450099GF101991999999999999071999IA1249KA1240M-01331KA2120N-02721MA1102681099771MD1310251+9999MW1001REMSYN045 333 11133 21272 48045 70008 555 10008 20008;AWY010AC1 3025 ;
041670273026451199612080054C+61167-150017FM-15+0035ANC  V0200805N00365012195CN0112005N1-01375-01665099505ADDAA101000025AG11999GA1021+004501999GA2071+012001999GA3081+021001999GD11995+9999999GD23995+9999999GD34995+9999999GF108991999999999999999999MA1099465098991MW1855REMMET032NEW SHSNE20B41 SLP950 T11371166;EQDQ01+999990APOSP N01 00050JPWTH 0QNNE71D0 00299F71 0 00199E71D0 00499F71 0 00499E71D0 00699F71 0 00699G71 0 00040K71D0 00002J71 0-00166L71 0 00700C71 0 02937N71 0 00050Q71 0 09950S71D0 00007R71 0-00137X71 0 08007
0077167420999991996040807504+36783+027067FM-15+0129LGKO V0203501N00621220001CN0112651N1+01401+00701999999ADDAG10999GA1021+006009999MA1101391999999REMMET008NEW NOSIEQDQ01+000000PRSWM2
0159011520999991996032603004+67267+014367SY-MT+0013ENBO V0200301N01131006001CN0150001N1-00271-00431099851ADDAG10001AY181031AY221031GA1071+006009999GF108991061081004501061999MA1099801099731MD1710061+9999MW1151REMSYN017 333 81710 86820;MET005NEW ;EQDQ01+000000PRSWM2
0147150900999991996052903004+47167+027633FM-12+0104LRIA V0203201N00201036001CN0100001N1+01411+01371101001ADDAA103000591AG10001AY161031AY221031GF108991041051008001071999MA1100951099771MD1210191+9999MW1611REMSYN021 333 69957 555 60005;EQDQ01+999990APOA  
0071724089137811996101817009+39667-075600NSRDB+002399999V020999999999999999999999999999+99999+99999999999ADDGP10060015101024000001027015101024GQ100600499917449GR100600888913789
0107719010999991996051910004+55333-063217SAO  +0479WTB  V02099999999999999999N9999999N9-00501-00901102291ADDAG11999MA1999999096241MW1001REMAWY032M M M 229/-05/-09/MMMM/M/ 7006 ;EQDQ01+999990APOSP Q02+000002VOVAR 
0067727119999991996042407004+46617-069533SAO  +031440B  V02099999999999999999N9999999N9+00441+00161999999ADDAG11999MW1001REMAWY0237/M PKWND 126/RM MV262;EQDQ01+000002VOVAR 
0071725486999991996092321009+42050-093850NSRDB+035499999V020999999999999999999999999999+99999+99999999999ADDGP10060018001024000001027018001024GQ100600533922659GR100600811913589
0054726370148261996102911009+42967-083750NSRDB+023499999V020999999999999999999999999999+99999+99999999999ADDGP10060000001000000001000000001000GR100600000900009
0094371710999991996121106004+43450+039900FM-12+0016URSS V0201401N00701036001CN0200001N1+01211+00821999999ADDAA106000091AG14000GF107991071001999999031001KA1999N+00901MD1210021+9999REMSYN011 333 20090;
0092032460999991996030211004+54983-001600FM-12+004799999V0202801N00101007501CN0250001N1+00801+00501103021ADDAG12999GA1041+006009059GF107991071051008001999999MD1810191+9999REMSYN017 333 84620 87635;
0208039550999991996020218004+51850-008483SY-MT+0162EICK V0200301N00361066001CN0060001N1+00151-00101101801ADDAA199999929AG13000AY121061AY221061GA1021+007209999GA2071+066009999GF107991061051008001999021KA1120M+00371MA1101591099761MD1210111+9999MW1051REMSYN023 333 10037 86627 87070;MET008NEW NOSIEQDQ01+000000PRSWM2
0290725560149411996122110543+41983-097433FM-15+0472OFK  V0209999C00005220005MN0160005N1-00505-00785100545ADDAG11999GD10995+9999999GF100991999999999999999999MA1100375094871REMMET029NEW AO2 SLP054 T10501078 PNO;EQDQ01+999990APOSP Q02+000000PRSWM2N01 00000JPWTH 0QNNAA1D0 00000BA1 0 00000GA1U0 99999KA1D0 00018JA1 0-00078LA1 0 01000CA1 0 02964NA1 0 00000QA1 0 10054SA1D0 00023RA1 0-00050YA1 0 00000
0233724236038891996053121003+37583-083317SAO  +0416JKL  V0201505N00265220005MN016000599+02335+00895102175ADDAA101000095GD10995+9999999GP10060068601028055701031026901028GQ100600414926089GR100600995913289MA1999999097365EQDN01 00000JPWTH 0QNNAA1 0 00000GA1U0 99999KA1 0 00048LA1 0 01000MA1D0 28750NA1 0 00000QA1 0 10217SA1 0 00074YA1 0 15005
0162108560999991996021000004+48183+010867SY-MT+0562ETSL V0200501N00211066001CN0040001N1-00851-00851101941ADDAG11000AY111061AY211061GA1071+066009999GF199999001001999999001061MA1101391094851MD1710151+9999MW1101REMSYN017 333 86272 00907;MET008NEW YLO;EQDQ01+000062SCOTCV
0144320980999991996111209004+49217+143100FM-12+000499999V0209991C00001220001CN0500001N1-01601-01871100731ADDAA106000091AG14000GA1001+999999999GF100991001001999999001001KA1999M-00921MA1999999100621MD1310131+9999REMSYN011 333 11092;EQDQ01+999990APOSP 
0086726710999991996092606484+42567-110100FM-16+2124KBPI V0201801N00261999999CN9999999N9+99999+99999999999ADDAG11999REMMET032NEW AO1 /PK WND 06 000 T10331049EQDQ01+000002VOVAR Q02+000000PRSWM2
0161161700999991996102718004+43800+011200SY-MT+0038LIRQ V0209991C00001220001CN0080001N1+01351+00751102521ADDAA106000091AG10000AY101061AY201061GF100991001001999999001001KA1999M+02001MA1102401102061MD1110021+9999MW1101REMSYN011 333 10200;MET005NEW ;EQDQ01+000000PRSWM2
0141711820999991996123001004+53550-064100FM-15+0440CZUM V0201001N00361002401CN0006041N1-01801-02101100991ADDAG11999GA1081+000159999GA2081+002409999GA3081+012609999GF108991999999999999999999MA1100471095351MW1711REMMET008NEW SLP0EQDQ01+999990APOSP 
0173691544999991996111212004+00000+000000FM-15+9999KQKH V0201901N006710600019N0112651N1+01801+01001999999ADDAG11000GA1021+030009999GA2071+060009999GF107991999999999999999999MA1101421999999MD1710151+9999OC101291REMMET040NEW SLPNO ESTMD ALSTG 8/041 9/032 57015;EQDQ01+000000PRSWM2
0072724973999991996051614234+39800-121850SAOSP+0073CIC  V0201901N00201001201EN0064371N1+99999+99999999999ADDAG10999GD14991+0012019GF108991999999999999999999MA1100781999999MW1611
0054722683999991996110810009+33467-105533NSRDB+207899999V020999999999999999999999999999+99999+99999999999ADDGP10060000001000000001000000001000GR100600000900009
0087945670999991996042120004-25533+152667FM-12+001199999V0201601N00261004201CN0010001N1+01981+01951101961ADDAG10999AY121999AY221999GF108991081001004501021999MA1999999101831MD1310101+9999MW1601
0065471260999991996061021104+36933+126450FM-16+0302RKTM V0202301N002610036019N0016001N1+99999+99999999999ADDAG10000GA1031+000159999GA2081+003609999MW1101REMMET008NEW CIGE
0324723600230511996091905533+36450-103150FM-15+1512CAO  V0202805N00525220005MN0160005N1+01065+00835101065ADDAA106006691AG11000GD10995+9999999GF100991999999999999999999MA1101595999999MD1610121+9999REMMET054NEW AO2 SLP106 60026 T01060083 10211 20106 56012 TSNO;EQDQ01+000000PRSWM2N01 00000JPWTH 0QNNAA1D0 00000BA1 0 00000GA1U0 99999KA1D0 00047JA1 0 00083LA1 0 01000CA1 0 03000NA1 0 00000QA1 0 10106SA1D0 00051RA1 0 00106YA1 0 28010
0172999999999991996032220004+65800+002000FM-13+9999LDWR V0201801N00771004201CN0100001N1+00501+00281102141ADDAG10999AY121999AY221999GF107991051091004501061999MD1110011+9999MW1151REMSYN091 22204 99658 10020 41497 71815 10050 20028 40214 51001 71522 8596/ 22241 04055 10702 70012;
0084200870999991996022518004+79550+090617FM-12+000899999V0203401N00201220001CN0300001N1-02861-03031101081ADDAG12000GF103991011001999999031011MA1999999100971MD1210171+9999EQDQ01+999990APOSP 
0122915770999991996010921004-20567+164283FM-12+0018NWWK V0200601N00311220001CN0350001N1+02901+02341100661ADDAA106000091AG10000GA1011+009009089GF102991021081008001001001MA1999999100461MD1110131+0131REMSYN021 333 81830 555 58013;
0071725085547561996090600009+42567-072283NSRDB+016999999V020999999999999999999999999999+99999+99999999999ADDGP10060000101024001101027000101024GQ100600889927819GR100600006903259
0130082350999991996032606004+40333-001100FM-12+091699999V0202601N00211004201CN0150001N1+00841+00711999999ADDAA106000091AG14000GF106991051011004501001011KA1120N+00841MA1999999091021MD1610041+9999ME1314639REMSYN023 333 20084 50424 55040;
0108038570999991996020221004+50517-002467FM-12+005399999V0200201N00571009001CN0070001N1+00161-00051101691ADDAG12000AY121031AY221031GA1081+009009059GF108991081051012501999999MD1210141+9999MW1051REMSYN011 333 88630;
0055952890999991996011305004-16767+145250FM-12+000399999V0201301N005719999999N9999999N9+03031+99999100741ADDAA106000091AG10999MA1999999100711EQDQ01+000002VOVAR 
0093995290999991996082615004+59500+001517FM-18+9999DB52 V0202901N001019999999N0200001N1+01671+01351101341ADDAG12000AY121031AY211031GF105991999999022501999999MW1021UA1M069999999REMSYN013 22200 20603;
0029897990999991996063016004-89000+090133FM-12+293599999V0202901N004619999999N9999999N9-05241+99999999999ADDAG10999EQDQ01+000002VOVAR 
0092958810999991996042302004-38600+145600FM-12+004299999V0203201N007219999999N0200001N1+01751+00891101871ADDAG10999AY111999AY211999GF106991001001999999001041MA1999999101371MW1021EQDQ01+000982SCOLCB
0114942670999991996102711004-17667+141083FM-12+001099999V0202901N00261220001CN0500001N1+02771+02101101071ADDAA106000091AG10999AY111999AY211999GA1001+999999999GF100991001001999999001001MA1999999100961MD1210181+9999MW1021
0133711140999991996041004334+49367-121483SAOSP+0039YHE  V0202801N002512200019N0144841N1+01101+00901101641ADDAG10999GD12991+0033099GD22991+0078099GF102991999999999999999999MA1101631101171MW1001REMAWY002M;EQDQ01+999990APOSP Q02+999990APOSLP
0065142360999991996082609004+45817+015983FM-12+015799999V0201801N00101220001CN0400001N1+02161+01391101701ADDAG12000GF102991021021012501001001MA1999999099821MD1210081+9999
0069946090999991996102219004-32100+115883FM-12+003099999V0203001N009319999999N9999999N9+01471+01041101041ADDAA106013091AG10999MA1999999100681MD1210111+9999EQDQ01+000002VOVAR 
0069724517999991996080620164+38350-098867FM-15+0575KGBD V0201901N01131220001CN0112651N1+03601+01901999999ADDAG11999MA1101191999999OC101541REMMET008NEW AO1;EQDQ01+000000PRSWM2
0036999999999991996082706004-13000+165700FM-13+9999DXHN V0201301N012319999999N0200001N1+03001+99999101171ADDAG10000GF108991999999999999999999
0093080420999991996081420304+42900-008433FM-15+0367LEST V0200601N00311220001CN0080001N1+01801+01601101501ADDAG11000MA1101591097231REMMET008NEW NOSIEQDQ01+999990APOSP Q02+999990APOSLPQ03+000000PRSWM2
0054722693999991996121610009+32833-105983NSRDB+131399999V020999999999999999999999999999+99999+99999999999ADDGP10060000001000000001000000001000GR100600000900009
0043994570999991996103109004+24750-081883FM-12+0000SANF V0200401N004619999999N9999999N9+02591+99999101591ADDAG10000MD1710041+9999EQDQ01+000002VOVAR 
0160161180999991996101909004+44767+008783FM-12+018999999V0201301N001019999999N9999999N9+01401+00751102881ADDAG12000MA1999999101671MD1210091+9999REMSYN093 333 55000 555 10403 20143 3//63 41302 50100 61303 1/134 21111 31111 411// 51111 61111 71///;EQDQ01+000002VOVAR 
0116605500999991996041109004+33667+001000FM-12+134199999V0202101N00621220001CN0200001N1+01561-00361999999ADDAG10000GA1021+069009009GF102991001001999999001011MA1999999086781MD1310081+9999ME1315219REMSYN017 333 82073 95900;
0091714190999991996022216004+45350-060983SAO  +0004WRN  V0201301N006619999999N0048281N1+00101+00101103021ADDAG11999MA1999999102981MW1001REMAWY032M 3.0 M 302/01/01/1313/M/ 7018 ;EQDQ01+999990APOSP 
0101074810999991996092401304+45733+005083FM-15+0240LFLL V0209991C00001999991CY0099001N1+00601+00501101301ADDAG10999MA1101191098391REMMET016NEW CAVOK NOSIG;EQDQ01+999990APOSP Q02+999990APOSLPQ03+000000PRSWM2
0058477770999991996052210004+34233+135167FM-12+001899999V0203001N002119999999N9999999N9+02061+01601100831ADDAG10999MA1999999100631MD1210181+9999EQDQ01+000002VOVAR 
0081719530999991996021811004+60117-128817SAO  +0690YQH  V0209991C000019999999N0112651N1-01001-01101100731ADDAG11999MA1100271092331MW1001REMAWY022CLR BLO 100 0005 2006;EQDQ01+999990APOSP 
0104724030937381996122716009+38933-077450NSRDB+008899999V020999999999999999999999999999+99999+99999999999ADDGM1006003710290806029005206999999GP10060035901024069801027008301024GQ100600667915489GR100600559914159
0076153730999991996102509004+44850+024867FM-12+031599999V0203601N002010360019N0100001N1+00931+00411102101ADDAA106000091AG14000GF106991061001999999071001MA1999999098301MD1210031+9999
0112830640999991996071618004-10517-048717FM-12+023999999V0209991C00001220001CN0200001N1+03421+01561999999ADDAA106000091AG10000GA1001+999999999GF100991001001999999001001MA1999999098661MD1999999+0181REMSYN011 333 58018;
0096483800999991996112309004+16483+099533FM-12+008199999V0209991C00001220001CN0100001N1+03181+02161100971ADDAA106000091AG10000GF103991011011008001001051MA1999999100081MD1999999-0081REMSYN011 333 59008;
0167724295038671996010917003+39833-083833SAO  +0321SGH  V0202401N006112200019N0112651N1-00391-00731100711ADDAG11999GD12991+0210019GF102991999999999999999999GP10060036301011055601017012201011GQ100600643916149GR100600613914159MA1100641999999MW1001OC101181REMAWY010DRFTG SNW;
0140726385999991996012222003+44267-086250SAO  +0189MBL  V0203301N00361004501MN0112651N1+00111-00341999999ADDAG11999GD14991+0045019GF108991999999999999999999GP10060003701024000001027003701024GQ100600803923009GR100600237914129MA1101391999999MW1001
026972417013729199607160851C+38883-079850FM-15+0594EKN  V0209999C00005011585MN0040005N1+01565+01505102085ADDAA101000095AG10000GA1081+011401999GD14995+0115859MA1102175999999MW1101MW2455REMMET027NEW AO2 SLP208 T01560150 $;EQDN01 00070JPWTH 0QNNAA1D0 06038BA1 0 06038GA1 0 00038KA1D0 00059JA1 0 00150LA1 0 00250CA1 0 03017NA1 0 00070QA1 0 10208SA1D0 00060RA1 0 00156YA1 0 00000
0207150250999991996032206004+00000+999999FM-12+011099999V0209991C00001007501CN0040001N1-00031-00031102701ADDAA103000491AA299000591AG10000AJ100149199999999AY171061AY271061GF108991081051008001999999IA1289IA2120-00309KA1120N-00061MA1999999101301MD1310071+9999MW1711REMSYN041 333 21006 3/103 44014 69947 92803 96010;
0076424520999991996011511004+25150+075850FM-12+0274VIKO V0202301N00211007501CN0040001N1+01941+01641100681ADDAG10999GF105991051041008001011001MD1999999+0061REMSYN017 333 58006 607//;
0061623060999991996120303004+31333+027217FM-12+0030HEMM V0209991C00001036001CN0100001N1+01251+00521101031ADDAA106000091AG10000GF108991081001999999011999MD1810091+9999
0120916500999991996030609004-12500+177050FM-12+0026NFNR V0200101N00511012001CN0200001N1+02701+02401100671ADDAG10000AY121031AY281031GA1041+006009089GF108991081081008001999999MD1210061+9999MW1021REMSYN023 333 561// 84820 86645;
0123724396939891996051607003+39950-091200SAO  +0234UIN  V0201901N00411018001MN0160931N1+02161+02001101191ADDAG11999GD14991+0180019GF108991999999999999999999GP10060000001000000001000000001000GR100600000900009MA1101251999999MW1001
0106800010999991996022317004+12583-081717FM-15-0002SKSP V0209991V00151220001CN0112651N1+02901+02401101361ADDAG10999GA1021+007509999MA1101351101351REMMET005NEW ;EQDQ01+999990APOSP Q02+999990APOSLPQ03+000000PRSWM2
0071724107999991996080122009+36767-080817NSRDB+083499999V020999999999999999999999999999+99999+99999999999ADDGP10060026001028024801031012001028GQ100600557926729GR100600745913269
0085555910999991996071821004+29667+091133FM-12+3650ZULS V0201401N00201090001CN0300001N1+01501+00901999999ADDAG10000GF106991041091017501001021MA1999999065191MD1710041+0021REMSYN011 333 05203;
0138715120999991996020700004+50267-064233FM-12+0011WBT  V0203501N001519999999N9999999N9-02191-02381102391ADDAA106000091AA224000091AG14000KA1120M-01211KA2180N-02851MA1999999102241MD1110081+9999REMSYN023 333 11121 21285 70000;EQDQ01+000002VOVAR 
0127564440999991996073000004+28500+098900FM-12+348899999V0209991C00001018001CN0300001N1+01161+01101999999ADDAA106002091AA224004091AG10002AY161061GF107991061081017501001021MA1999999068091MD1210011+0101MW1001REMSYN017 333 00151 70038;
0077403600999991996051208004+31417+037267FM-15+0499OEGT V0201301N00211999991CY0099001N1+03101+00401999999ADDAG10999MA1101491095631REMMET008NEW CAVOEQDQ01+999990APOSP Q02+000000PRSWM2
0098702005999991996123123364+62067-163300FM-15+0095PASM V0200301N00261220001CN0160931N1-01701-02501999999ADDAA106000091AG11000GF100991999999999999999999MA1100411999999REMMET008NEW AO1;EQDQ01+000000PRSWM2
0071723140138811996101017009+35217-080950NSRDB+022299999V020999999999999999999999999999+99999+99999999999ADDGP10060069601011060601016025601011GQ100600434916539GR100600997913729
0076132620999991996040703004+44550+019233FM-12+012299999V0209991C00001220001CN0100001N1+00541+00421101751ADDAA106000091AG14000GF102991021001999999031001MA1999999100311MD1310021+9999
0077541570999991996022712004+43183+124333FM-12+016599999V0202001N00301220001CN0150001N1-00511-02251102201ADDAA106000091AG14000GA1001+999999999GF100991001001999999001001MD1710021+9999
0078171290999991996033009504+39950+032683FM-16+0806LTAD V0202601N00511005701CN0112651N1+99999+99999999999ADDAG10000GA1071+005709999GA2021+012009999REMMET008NEW =8/;EQDQ01+000000PRSWM2
0272722358939191996041500003+31183-090467SAO  +0126MCB  V0200501N002010180019N0112651N1+01721+01611101041ADDAA106000091AG10000GD12991+0045019GD22991+0090019GD33991+0180019GF107991999999999999999999GP10060009201011003501016008401011GQ100600781927439GR100600280913589KA1999M+02501KA2999N+01721MA1101081999999MD1010001+9999MW1001REMAWY042TE20 MOVD NE/ 50000 6026 10077 20063 RE15;
0116679910999991996032004004-22217+030000FM-12+0457FVBB V0209991C00001220001CN0300001N1+01621+01491999999ADDAG10999GA1041+010509059GF104991041051012501001001MA1999999096551MD1999999-0151ME1315529REMSYN017 333 59015 84635;
0061855740999991996042914004-33383-070783FM-15+0476SCEL V0209991C00001220001CN0040001N1+01301+00701999999ADDAG10999MA1101801999999REMMET008NEW NOSIEQDQ01+000000PRSWM2
0120032920999991996103105004+54100-000167FM-12+001599999V0202201N00771033001CN0200001N1+00901+00601101391ADDAG12999GA1041+015009059GA2081+033009049GF108991041051017501011999MD1710301+9999REMSYN029 333 84650 88461 90710 91125;
0082163440999991996052108004+39333+016400FM-15+1720LIBQ V0202601N00151999991CY0099001N1+99999+99999999999ADDAG10999REMMET044NEW CAVOK SCT200 14/M02 SCT MON LIB VAL NIL;EQDQ01+000000PRSWM2
0094385650999991996051815004+40550+065683FM-12+050199999V0209991C00001090001CN0200001N1+02951+00821100771ADDAA106000091AG14000GF105991001001999999001031KA1999M+03511MD1810061+9999REMSYN011 333 10351;
0054725029999991996091308009+41483-073133NSRDB+022299999V020999999999999999999999999999+99999+99999999999ADDGP10060000001000000001000000001000GR100600000900009
0244107880999991996020606004+48833+012567FM-12+035999999V0200201N00051220001CN0005001N1-01731-01931100711ADDAA106000091AA224000091AG10000AJ100089199999999AY141061AY221061GA1001+999999999GF100991001001999999001001GJ104389IA1239IA2999-02009KA1120M-00631KA2120N-01741MA1999999096021MD1610211+9999MW1461REMSYN041 333 11063 21174 3/120 47008 55073 70000;
0125486980999991996052621304+01367+103983FM-15+0016WSSS V0209991C00001220001CN0112651N1+02701+02601100851ADDAG10000GA1021+005409999GA2021+105009999MA1100811100671REMMET008NEW NOSIEQDQ01+999990APOSP Q02+999990APOSLPQ03+000000PRSWM2
0075162610999991996082702004+41533+015717FM-15+0060LIBA V0202501N00211999991CY0099001N1+99999+99999999999ADDAG11999REMMET037NEW CAVOK SCT200 21/17 Q1014 SCT BLU;EQDQ01+000000PRSWM2
0196104040999991996072505004+51750+006283SY-MT+0043ETGY V0202901N00511001801CN0045001N1+01481+01361101391ADDAG12999AY151021AY251021GA1021+001209999GA2071+001809999GA3081+003309999GF108991081051001501999999MA1101291100881MD1210111+9999MW1101MW2511MW3581MW4611REMSYN023 333 81704 85706 88611;MET005NEW ;
0074043610999991996070608504+65567-037117FM-15+0034BGKK V0200101N00101003301CN0112651N1+00101+00001999999ADDAG10000GA1081+003309999MA1101491999999REMMET005NEW ;EQDQ01+000000PRSWM2
0054702910264121996082709009+62967-141933NSRDB+052299999V020999999999999999999999999999+99999+99999999999ADDGP10060000001000000001000000001000GR100600000900009
0103722555129351996100716524+28733-096250FM-15+0005KPSX V0203501N00671220001CN0112651N1+02401+01701101351ADDAG10999GA1021+009001999GF102991999999999999999999MA1101351999999REMMET008NEW SLP1EQDQ01+000000PRSWM2
0146060100999991996090713504+62067-007267FM-15+0085EKVG V0203001N00571220001CN0112651N1+01201+00801103091ADDAG10999GA1021+004209999GA2021+018009999GF104991999999999999999999MA1103011101951REMMET003NEWEQDQ01+999990APOSP Q02+999990APOSLPQ03+000000PRSWM2
0269724390938221996030213003+39850-089683SAO  +0179SPI  V0202905N00465220005MN0160005N1-00225-00785100675ADDAA101000095AG11999GD10995+9999999GP10060000501011000001016000501011GQ100600875910109GR100600028906619MA1100611098395MW1001REMAWY014CLR BLO 120 $;EQDN01 00000JPWTH 0QNNAA1 0 00000GA1U0 99999KA1 0 00018LA1 0 01000MA1D0 29055NA1 0 00000QA1 0 10067SA1 0 00028YA1 0 29009
0092408510999991996122818004+29467+055717FM-12+173999999V0209991C00001220001CN0100001N1+00561-01061102581ADDAA106000091AG10000GA1001+999999999GF100991001001999999001001MA1999999083341MD1210091+9999
0140727415999991996040515003+45633-089467SAO  +0495RHI  V0209999C000012200019N0241401N1-00121+99999999999ADDAG11000GD13991+0450013GF107991999999999999999999GP10060030601024017601027021801024GQ100600600911439GR100600682913659MA1102811999999MW1001
0054725065999991996101200009+41667-070950NSRDB+002599999V020999999999999999999999999999+99999+99999999999ADDGP10060000001000000001000000001000GR100600000900009
0531785350116301996051612003+18250-065633SAO  +0012TJNR V0200705N00365024001CN0112651N1+02785+02115101491ADDAG10000GA1021+006001999GA2021+009001999GA3071+024001999GF108995999999999999999999GP10060008701025000001028008701025GQ100600678907619GR100600503913369MA1101491101351REMMET014NEW INS RMK C;EQDQ01+999990APOSP Q02+999990APOSLPQ03+000000PRSWM2N01 00203KCLC1 3N02 00303KCLC2 3N03 00609KCLC3 3N04 00080CCLHT 3N05 00700DHZVS 3N06 29970EALTP 3N07 29928FPRES 3N08 00000JPWTH 3N09 10149ISLVP 3QNNE41 3 00203E41 3 00303E41 3 00609G41 3 00080K41 0 00070L41 3 00700C41 3 29970M41 3 29928N41 3 00000Q41 3 10149S41 0 00082V41 0 01099X41 0 07007
0074724397999991996081001454+40483-088917FM-15+0267KBMI V0200501N00261220001CN0321861N1+02301+01401999999ADDAG11999GA1021+075001999MA1102131999999REMMET005NEW ;EQDQ01+000000PRSWM2
0046680260999991996042707004-18367+021850FM-15+1000FBSW V0201601N00411999991CY0099001N1+02101+00601999999ADDAG10999REMMET008NEW CAVOEQDQ01+000000PRSWM2
0125031620999991996102612004+55317-003200FM-12+024299999V0202201N00411012001CN0500001N1+00861+00671101021ADDAA106000591AG10001AY181061AY261061GA1041+006009089GF107991071081008001999999MD1110311+9999MW1251REMSYN017 333 84820 86640;
0109160720999991996090611004+45867+009067FM-15+1322LIMO V0209999999999999999CN9999999N9+99999+99999999999ADDAG12999REMMET055NEW 1100Z /////KT 9999 FEW010 17/08 RMK FEW MON LIB VALEQDQ01+000002VOVAR Q02+000000PRSWM2
0104713970999991996011813004+44983-064917SAO  +0028YZX  V0200501N00151000601WN0002011N1+00101+00101103241ADDAG11999GD15991+0006099GF109991999999999999999999MA1103221102881MW1451REMAWY004F10;EQDQ01+999990APOSP 
0036152350999991996101923004+45850+024983FM-12+042999999V0202701N00401036001CN0160001N1+01021+99999999999ADDAG12999GF108991041031012501071999
0095834990999991996011218004-17967-038700FM-12+003899999V0200301N00361045001CN0100001N1+02751+02251101541ADDAG10000GF105991031021008001051999MD1999999+0131UA1M040109999REMSYN023 222// 20402 333 58013;
0126711090999991996121220004+50683-127367FM-15+0022CYZT V0201701N00411220001CN0321861N1+00501+00301101031ADDAG11999GA1021+090009999GF104991999999999999999999MA1101021100751REMMET015NEW CI4 SLP103;EQDQ01+999990APOSP Q02+000000PRSWM2
0104711240999991996052817004+54750-110050SAO  +0702WIQ  V0201801N003010270019N0402341N1+01401+00801101751ADDAG12999GD12991+0120099GD23991+0270099GF107991999999999999999999MA1101561999999MW1001REMAWY008SC3AC6 ;
0054723415999991996101904009+34467-093100NSRDB+016999999V020999999999999999999999999999+99999+99999999999ADDGP10060000001000000001000000001000GR100600000900009
0141063700999991996060721004+51450+005417SY-MT+0022EHEH V0201301N00261220001CN0300001N1+02281+01611101541ADDAG11000GA1021+072009999GF103991001001999999001031MA1101491999999MD1110031+9999REMSYN021 333 83074 555 53000;MET005NEW ;EQDQ01+000000PRSWM2
0150315320999991996073009004+50817+132167FM-12+027399999V0209991C00001030001CN0150001N1+02241+01581100361ADDAA106000091AG14000AY121031AY221031GF108991021051008001031071KA1999M+02361MA1999999097261MD1310021+9999MW1041REMSYN011 333 10236;EQDQ01+999990APOSP 
0375724010137401996100906003+37517-077317SY-MT+0050RIC  V0202905N00315220005MN0160005N1+01285+01065100555ADDAA101000095AA206000091AG10000GD10995+9999999GF100991001001999999001001GP10060000001000000001000000001000GR100600000900009MA1100515099911MD1110141+9999REMMET043NEW AO2 SLP055 T01280106 10139 20128 51014;EQDQ01+000000PRSWM2N01 00000JPWTH 0QNNAA1D0 00000BA1 0 00000GA1U0 99999KA1D0 00051JA1 0 00106LA1 0 01000CA1 0 02968NA1 0 00000QA1 0 10055SA1D0 00055RA1 0 00128YA1 0 29006
0119567780999991996111311004+25017+102683FM-15+1892ZPPP V0202501N00301220001CN0112651N1+01501+00701999999ADDAG10999GA1021+007809999GF102991999999999999999999MA1101901081061REMMET008NEW NOSIEQDQ01+999990APOSP Q02+000000PRSWM2
0103856820999991996122423004-36767-073050FM-15+0016SCIE V0202401N00461220001CN0112651N1+02001+01601999999ADDAG10999GA1021+005109999GF102991999999999999999999MA1101391999999REMMET008NEW NOSIEQDQ01+000000PRSWM2
0071727687999991996081119009+47700-104200NSRDB+060599999V020999999999999999999999999999+99999+99999999999ADDGP10060065001028022501031046301028GQ100600335916609GR100601109913309
0069726457999991996070810454+44250-088517FM-15+0280KATW V0202101N00771004501CN0064371N1+02001+01401999999ADDAG11999GA1081+004501999MA1100441999999MW1631OC101291REMMET005NEW ;
0107915790999991996112721004-20650+166583FM-12+0007NWWV V0201401N006219999999N9999999N9+02501+02211101021ADDAA103000291AA299000191AG10000MD1210161+9999REMSYN033 333 69927 555 10288 20233 60024;EQDQ01+000002VOVAR 
0076471120999991996012809004+37483+126633FM-12+007099999V0202701N00461220001CN0120001N1+00281-00671101711ADDAA106000091AG10000GF102991021051008001001001MA1999999100831MD1710051+9999
0299724860231541996022816003+39300-114850SAO  +1906ELY  V0201805N00265018295MN0160005N1-01445-01615102315ADDAA101000095AG10999GD14995+0182959GF108991999999999999999999GP10060006801024000001027006801024GQ100600767911239GR100600319913949MA1101591080615MW1001REMAWY002$;EQDQ01+999990APOSP N01 00000JPWTH 0QNNAA1 0 06060GA1 0 00060KA1 0 00003LA1 0 01000MA1D0 23805NA1 0 00000QA1 0 10231SA1 0 00006YA1 0 18005
0138717340999991996072312004+48250-079033FM-12+0318CWUY V0201801N003119999999N9999999N9+01471+01411100671ADDAA106005091AA224005091AG10000KA1240M+02551KA2120N+01441MA1999999096911MD1310021+9999REMSYN023 333 10255 20144 70050;EQDQ01+000002VOVAR 
0180719250999991996091718004+69100-105117FM-12+0027CYCB V0201001N00261220001CN0140001N1+00581+00331101851ADDAA106000091AA224000091AG14000GA1001+999999999GF100991001001999999001001KA1120M+00591KA2240N+00091MA1101831101501MD1710161+9999REMSYN023 333 10059 20009 70000;EQDQ01+999990APOA  
0101102150999991996041205004+53183+008167FM-12+002099999V0200301N00261220001CN0150001N1-00431-00591102231ADDAG12999GA1011+006309089GF101991011011008001001011MA1999999101971MD1810031+9999REMSYN011 333 81821;
0132744665999991996062920003+42117-087900SAO  +0197PWK  V0202101N007719999999N0112651N1+03331+02161101381ADDAG11999GP10060085601028072501031021301028GQ100600274923319GR100601172913219MA1101461999999MW1001OC101081REMAWY016CLR BLO 120 TNO;
0119479450999991996121407004+25833+131233SY-MT+0015ROMD V0200301N00361021001CN0112651N1+01781+01551101721ADDAG10999GA1021+003009999GA2081+021009999MA1101591101481MD1210031+9999REMMET020NEW 3CU010 8AS070 A3EQDQ01+000003PRSWM1
0098477780999991996062700004+33450+135767FM-12+007599999V0200601N006712200019N0150001N1+02371+01981101311ADDAG10000GF104991031021999999031001KA1999N+02151MA1999999100451MD1010051+9999REMSYN011 333 20215;
0090722115999991996071322504+27400-082550FM-15+0009KSRQ V0202101N00361060001CN0160931N1+03101+02301999999ADDAG10999GA1021+024001999GA2071+060001999MA1101521999999REMMET005NEW ;EQDQ01+000000PRSWM2
0055112550999991996040321004+46683+013000FM-12+070799999V0202701N000519999999N9999999N9+00031+00031102141ADDAA106000091AG14000MA1999999093551EQDQ01+000002VOVAR 
0029992430999991996041010004+17200-157800FM-18+0003DB24 V0200701N011019999999N9999999N9+02551+99999101661ADDAG10999EQDQ01+000002VOVAR 
0255726223947251996032104003+44933-074850SAO  +0065MSS  V0200505N00625003055EN0080005N1-00065-00175099875ADDAG11999GD14995+0030019GF108085999999999999999999GP10060000001000000001000000001000GR100600000900009MA1099861099095MW1715EQDN01 04000JPWTH 0QNNE11 0 00699G11 0 00010K11 0 00029L11 0 00500M11 0 29260N11 0 04000Q11 0 09987S11 0 00031V11 0 01010X11 0 05012
0158085210999991996102416004+32683-016767FM-15+0055LPFU V0203001N00311220001CN0112651N1+02401+01701101831ADDAG10999GA1021+005409999GF102991999999999999999999MA1101801101131REMMET031NEW RS1808KT 061806KT 240110KT;EQDQ01+999990APOSP Q02+999990APOSLPQ03+000000PRSWM2
0037726577999991996072923009+45150-093217NSRDB+027899999V020999999999999999999999999999+99999+99999999999ADDGQ100600578926429GR100600704913259
0142306030999991996091106004+53933+102050FM-12+045899999V0200301N00501030001CN0200001N1+00261+00131101661ADDAG12001AY181061AY211061GA1041+008709099GF107991041091008001071001MA1999999096091MD1310121+9999MW1261REMSYN011 333 84929;EQDQ01+999990APOSP 
0115834370999991996092100004-16717-043867FM-12+0646SBMK V0200901N00211220001CN0100001N1+02181+01241101841ADDAA106000091AG10000GF102991021041008001001001KA1240M+02821MA1999999094611MD1999999-0021REMSYN017 333 10282 59002;
0112724295038671996030717224+39833-083833SAOSP+0321SGH  V0203401N006110060019N0064371N1+99999+99999999999ADDAG10999GD12991+0024019GD24991+0060019GF108991999999999999999999MA1101691999999MW1451MW2711EQDQ01+000100PRSWM3
0093061700999991996041701504+55583+012133FM-15+0044EKRK V0201401N00311999991CY0099001N1+00101-00101101761ADDAG11999MA1101691101221REMMET008NEW CAVOEQDQ01+999990APOSP Q02+999990APOSLPQ03+000000PRSWM2
0054722953999991996120209009+35067-118150NSRDB+084999999V020999999999999999999999999999+99999+99999999999ADDGP10060000001000000001000000001000GR100600000900009
0055952890999991996022705004-16767+145250FM-12+000399999V0201001N004619999999N9999999N9+02811+99999100751ADDAA106000091AG10999MA1999999100721EQDQ01+000002VOVAR 
0089725895942361996080420004+42150-121733FM-15+1247KLMT V0201901N00261220001CN0482801N1+02201+00401101521ADDAG11999GA1021+075009999MA1101761999999REMMET020NEW SLP152 8/005 9/0EQDQ01+000000PRSWM2
0103580150999991996083100004+34417+116333FM-12+004499999V0209991C00001220001CN0080001N1+02161+02021101361ADDAA106000091AG10000GA1001+999999999GF100991001001999999001001MD1210131+0031MW1101REMSYN011 333 00351;
0102477150999991996050719004+36183+140417FM-15+0035RJAH V0200101N002119999999N0112651N1+00401+00401999999ADDAG10999GA1021+012009999GA2071+999999999MA1101291999999REMMET017NEW 3SC040 A2992;EQDQ01+000000PRSWM2
0050336510999991996112700004+48533+025033FM-12+029899999V0209991C00001036001CN0080001N1-00011-00101100791ADDAG12000GF108991081001999999071999MD1410001+9999
0058477700999991996120411004+34683+135183FM-12+005999999V0200901N005119999999N9999999N9+01001+00491101831ADDAG10999MA1999999101111MD1710191+9999EQDQ01+000002VOVAR 
0071722540139581996100517009+30300-097700NSRDB+018999999V020999999999999999999999999999+99999+99999999999ADDGP10060019801011011401016011501011GQ100600440913909GR100600982913689
0043992120999991996112904004+30100-088800FM-18+0010DB21 V0200601N007019999999N9999999N9+01771+99999102431ADDAG12999MD1810111+9999EQDQ01+000002VOVAR 
0056592650999991996070921004+23483+111300FM-12+012099999V0209991C00001220001CN0040001N1+02581+02471100251ADDAG10000GF101991001001999999001021MD1710021+9999MW1101
0074032635999991996072016504+54517-001417FM-15+0037EGNV V0202501N00671220001CN0112651N1+02601+00701999999ADDAG11999GA1021+010509999MA1102201999999REMMET005NEW ;EQDQ01+000000PRSWM2
0100313880999991996032815004+52350+129917FM-12+020799999V0209991C00001220001CN0500001N1-01371-01501102071ADDAG12000GA1001+999999999GF100991001001999999001001MA1999999099331MD1210071+9999EQDQ01+999990APOSP 
0091554930999991996062409004+30733+092450FM-12+472499999V0209991C00001015001CN0300001N1+01671+00531999999ADDAG10000GF107991071091017501999999MA1999999060331MD1710161+0011MW1171REMSYN011 333 05105;
0091747540139341996013110004+31333-092550SAO  +0027AEX  V0203501N00511001201EN0064371N1+00221+00051999999ADDAG11999GD14991+0012099GF108991999999999999999999MA1101761999999MW1451EQDQ01+000100PRSWM2
025572466093037199607041254C+38817-104717FM-15+1872COS  V0203605N00525220005MN0160005N1+02115+00505100875ADDAA101000095AG11999GD10995+9999999MA1101965999999REMMET025NEW AO2 SLP087 T02110050;EQDQ01+000000PRSWM2N01 00000JPWTH 0QNNAA1D0 00000BA1 0 00000GA1U0 99999KA1D0 00041JA1 0 00050LA1 0 01000CA1 0 03011NA1 0 00000QA1 0 10087SA1D0 00070RA1 0 00211YA1 0 36010
0126724698240151996030314003+40167-103217SAO  +1431AKO  V0202601N004119999999N0160931N1-00561-01061101631ADDAG11999GP10060000601028000001031000601028GQ100600869910119GR100600045908239MA1101251999999MW1001REMAWY018CLR BLO 120 TNO $;
0115710970999991996040308004+63333-064150SAO  +0367WOB  V02099999999999999999N9999999N9-02001+99999102241ADDAG11999MA1101801097391MW1711REMAWY024CLR BLO 100 <005/M 7005;EQDQ01+999990APOSP Q02+999990APOA  Q03+000002VOVAR 
0085477420999991996042906004+35550+133233FM-12+000399999V0203201N00261036001CN0150001N1+02151+00981101111ADDAG10000GF108991081001999999011999MA1999999101081MD1610101+9999REMSYN011 555 00254;
0114725765240611996012913003+43067-108467SAO  +1684RIW  V0200601N002519999999N0160931N1-01231-01731100971ADDAG11999GP10060000001000000001000000001000GR100600000900009MA1100441999999MW1001REMAWY023CLR BLO 120 TNO ZRNO $;
0050573990999991996011609004+31183+114967FM-12+005999999V0209991C00001036001CN0120001N1+00511-00081102351ADDAG10000GF108991081001999999071999MD1710261+9999
0071722317139701996091516009+30533-091150NSRDB+002099999V020999999999999999999999999999+99999+99999999999ADDGP10060059401024052201027022501024GQ100600450912109GR100600955913529
0051723083137631996041110004+36700-076900SAO  +0012FKN  V0202801N001519999999N0160931N1+00441+00001999999ADDAG10999MA1101521999999MW1001REMAWY011CLR BLO 120
0044043820999991996040106004+61933-042067FM-12+003999999V0200801N002619999999N9999999N9-00401-00401101641ADDAG10000MA1999999101151EQDQ01+000002VOVAR 
0071162210999991996110216004+42417+012850FM-15+0389LIQN V0200301N00211999991CY0099001N1+01701+00801999999ADDAG11999MA1102401999999REMMET018NEW CAVOK MON LIB;EQDQ01+000000PRSWM2
0107039740999991996102916004+54183-007233FM-12+008999999V0202801N00211075001CN0500001N1+00871+00461102181ADDAG12999GA1021+007809089GF106991021021008001001021MA1999999101121MD1110101+9999REMSYN017 333 82826 86070;
0098947110999991996070905004-31483+145817FM-12+026599999V0209991C00001220001CN0500001N1+01311+00281101961ADDAA106000091AG10999AY111999AY201999GF104991021051012501001021MA1999999098781MD1610171+9999MW1021
036670361025339199610280052C+59517-139667FM-15+0008YAK  V0201105N002150121959N0480005N1+00255+00135101275ADDAA101000095AG11999GA1021+003001999GA2071+012001999GD11995+9999999GD23995+9999999GF107991999999999999999999MA1101295101171REMMET025NEW 2SF SLP127 T00250013;EQDQ01+999990APOSP Q02+000000PRSWM2N01 00000JPWTH 0QNNE71D0 00299F71 0 00199E71D0 00499F71 0 00499G71 0 00040K71D0 00034J71 0 00013L71 0 03000C71 0 02991N71 0 00000Q71 0 10127S71D0 00036R71 0 00025X71 0 11004
0044895680999991996031408004-76050+065017FM-12+234599999V0201401N015419999999N9999999N9-03941+99999999999ADDAG10999MA1999999072371EQDQ01+000002VOVAR 
0100828990999991996122101004-08067-034850FM-15+0019SBRF V0201601N00511220001CN0112651N1+02801+02401999999ADDAG10999GA1021+006009999GF104991999999999999999999MA1101291999999REMMET005NEW ;EQDQ01+000000PRSWM2
0155153470999991996053018004+45133+024683FM-12+044899999V0209991C00001036001CN0200001N1+02081+01521101771ADDAA106000091AG14004AY191061AY281061GF105991021021008001061001IA1099IA2999+03709KA1120M+02561MA1999999096681MD1210051+9999MW1011REMSYN017 333 10256 31037;
0065722570039331996041516004+31150-097717SAO  +0283HLR  V0203501N009212200019N0112651N1+01501+00001102461ADDAG11999GF100991999999999999999999MA1102511999999MW1001OC101281
0135220280999991996112303004+69200+035100FM-12+002999999V0201401N00301030001CN0350001N1+00271+00061100151ADDAG12000GF107991021051008001041001GJ100009MA1999999099791MD1310241+9999OA140100401REMSYN023 333 55000 91004 91114;EQDQ01+999990APOSP 
0171478030999991996102505004+33883+130650FM-15+0033RJFA V0203601N003110360019N0112651N1+02301+01701999999ADDAG10999GA1021+009009999GA2021+024009999GA3071+036009999GF107991999999999999999999MA1101391999999REMMET044NEW 1CU030 4AC080 7AC120 A2997 FCST 0511 NOSEQDQ01+000000PRSWM2
0158474900999991996101822234+42733+143217FM-16+0152RJCB V0203501N003610048019N0050001N1+00801+00801999999ADDAG10999GA1021+000309999GA2021+000909999GA3071+004809999GF107991999999999999999999MA1101021999999REMMET031NEW 1ST001 3ST003 7ST016 A2984;EQDQ01+000000PRSWM2
0054722897999991996060807009+35233-120633NSRDB+006699999V020999999999999999999999999999+99999+99999999999ADDGP10060000001000000001000000001000GR100600000900009
0093765906999991996051618454+21033-086867FM-15+0005MMUN V0201201N00511220001CN0096561N1+03101+02401999999ADDAG10999GA1021+006009999GA2021+060009999MA1101731999999REMMET008NEW 2089EQDQ01+000000PRSWM2
0098948550999991996081623004-36750+144283FM-12+022699999V0203601N00621220001CN0500001N1+00921+00181101321ADDAA106000091AG10999AY121999AY211999GF101991011001999999041001MA1999999098801MD1410001+9999MW1011
0076165390999991996073106004+39750+008467FM-12+0092LIEF V0203201N00411220001CN0120001N1+02261+02261101381ADDAA106000091AG10000GF103991031011004501001001MA1999999100281MD1510001+9999
0087032660999991996071218004+54050-001250FM-12+0016EGXU V0202501N004119999999N9999999N9+02221+01201101581ADDAA106000091AG14000KA1999M+02311MD1510011+9999REMSYN011 333 10231;EQDQ01+000002VOVAR 
0155726077999991996022420003+44450-068367SAO  +0026BHB  V0201001N004610006019N0040231N1+00331+00221999999ADDAG11999GD16991+0001519GD24991+0006019GF108991999999999999999999GP10060008401025000001028008401025GQ100600654922519GR100600581913969MA1099421999999MW1001
0108471580999991996082619004+35117+126817FM-15+0013RKJJ V0200801N000510045019N0032001N1+02401+02201999999ADDAG10999GA1011+000159999GA2071+004509999GA3071+006009999MA1101051999999MW1101REMMET020NEW CIGM015/ QFF1010
0119916800999991996111607004-17750+177450FM-15+0018NFFN V0203401N002110900019N0400001N1+02801+02201999999ADDAG10999GA1021+008409999GA2071+090009999GF107991999999999999999999MA1101081999999REMMET008NEW NOSIEQDQ01+000000PRSWM2
0071726660240291996081119009+44767-106967NSRDB+120899999V020999999999999999999999999999+99999+99999999999ADDGP10060081801011080401016013001011GQ100600313915989GR100601137913309
0125723489039351996031801003+37233-089567SAO  +0104CGI  V0200301N003612200019N0241401N1+01111+00001101091ADDAG11999GF100991999999999999999999GP10060000001011000201016000001011GQ100600895926889GR100600001901509MA1101081999999MW1001
0161066700999991996090912004+47483+008533SY-MT+0432LSZH V0200701N00671220001CN0300001N1+01581+00441101901ADDAA106000091AG11000GA1021+012009999GA2021+075009999GF104991021011012501001011MA1101901096871MD1410001+9999REMSYN011 333 82840;MET008NEW NOSIEQDQ01+000000PRSWM2
0063999999999991996070401554-30350+164583FM-18+9999DRIB V02099999999999999999N9999999N9+99999+99999999999ADDAG10999MW1001SA1+2009REMSYN01151854     ]EQDQ01+000002VOVAR 
0113723896999991996060306003+36317-119400SAO  +0089VIS  V0203101N004119999999N0160931N1+02831+01161999999ADDAA106000091AG10000GP10060000001000000001000000001000GR100600000900009MA1101491999999MW1001REMAWY011CLR BLO 120
0103577930999991996100721004+27800+114383FM-12+012999999V0202501N00401002101CN0030001N1+01151+01071102281ADDAA124004091AG10002AY161031AY261031GF108991081051002501999999MD1710061+9999MW1601REMSYN011 333 70036;
0087725475999991996100400454+42233-091167FM-15+0259KMXO V0200601N00151220001CN0160931N1+00501+00201999999ADDAG11999GF100991999999999999999999MA1103011999999REMMET008NEW AO1;EQDQ01+000000PRSWM2
0123100220999991996072713004+54800+008950FM-12+001799999V0202401N00461001801CN0040001N1+01651+01561101591ADDAG12999AY161011AY261011GA1071+001809079GF108991071071002501999999MA1999999101381MD1710051+9999MW1611REMSYN011 333 87706;
0126711250999991996113022004+54133-108517FM-15+0480CYLJ V0202501N00151220001CN0241401N1-01101-01301101471ADDAG12999GA1021+003609999GF102991999999999999999999MA1101121095491REMMET015NEW SC1 SLP147;EQDQ01+999990APOSP Q02+000000PRSWM2
0071727503999991996122714009+45567-093267NSRDB+028799999V020999999999999999999999999999+99999+99999999999ADDGP10060000001028000001031000001028GQ100600897912429GR100600001901309
0099722480139571996081105214+32467-093817FM-16+0079KSHV V0201501N002610015019N0048281N1+02401+02401101331ADDAG10999GA1071+001501999MA1101421100481MW1101REMMET008NEW AO2;EQDQ01+999990APOSP Q02+999990APOSLP
0071725716999991996061716009+39533-107800NSRDB+162299999V020999999999999999999999999999+99999+99999999999ADDGP10060045101025046801028014501025GQ100600492909199GR100600863913239
0183727675940111996111900003+48417-101350FM-15+0508KMIB V0201201N00361220001CN0112651N1-01501-01501102541ADDAG11000GA1021+036001999GF104991999999999999999999GP10060000001000000001000000001000GQ100600899924049GR100600000900129MA1102071999999REMMET020NEW SLP254 8/050 9/0EQDQ01+000000PRSWM2
0205478810999991996090108144+34133+134617FM-16+0011RJOS V0201801N00101030001CN0112651N1+02601+02401999999ADDAG10999GA1021+003009999GA2021+006009099GA3071+006009999GA4071+030009999GF107991999999999999999999MA1100511999999MW1801REMMET075NEW RETS RMK 2CU010 5CU020 1CB020 7AC100 A2968 TS END 0804 CB 20KM E MOV E;
0101671520999991996091212004-22550+045400FM-12+0824FMSO V0200201N00411220001CN0400001N1+03261+00381999999ADDAA106000091AG10000GA1001+999999999GF100991001001999999001001MA1999999092171MD1610171+9999ME1315289
0153716250999991996021306004+45950-077317SY-SA+0130YWA  V0202901N002112200019N0140001N1-02341-02751101351ADDAA106000091AG10000GF100991001001999999001001KA1240M-01621KA2999N-02781MA1101221099661MD1710071+9999REMSYN017 333 11162 21278;AWY019CLR BLO 100 M 7007;
0077999999999991996083111454+58750-030883FM-18+9999DRIB V02099999999999999999N9999999N9+00911+99999099811ADDAG10999MD1210201+9999MW1001SA1+1099REMSYN01165595     ]EQDQ01+000002VOVAR 
0231702960264101996052012003+60500-145500SAO  +0013CDV  V0201101N002510081019N0321871N1+00771+00501101031ADDAA106000091AG10000GD12991+0045019GD23991+0081019GD34991+0210019GF108991999999999999999999GP10060000001000000001000000001000GR100600000900009KA1999M+00941KA2999N+00721MA1101051999999MD1110021+9999MW1001REMAWY01851002 10049 20045;
0147725210148951996032301104+40917-081433SAOSP+0377CAK  V0202601N004610126019N0160931N1-00341-00451101201ADDAG10999GD12991+0036019GD23991+0126019GD34991+0240019GF108991999999999999999999MA1101051096611MW1001REMAWY017SE0056 PCPN 0000;EQDQ01+999990APOSP 
0129062650999991996101105524+52133+005267FM-16+0013EHSB V0209991V00051021001CN0022001N1+00801+00801999999ADDAG10999ED199U22009GA1071+021009999GA2071+066009999GF107991999999999999999999MA1102201999999MW1101REMMET020NEW YLO YLO TEMPO RE
0125607140999991996012118004+37250+009800FM-12+0003DTTB V0201101N00311220001CN0100001N1+01151+00981101611ADDAA106000091AG10000GA1001+999999999GF100991001001999999001001KA1999M+01661MA1999999101551MD1710081+9999REMSYN011 333 10166;
0063999999999991996112412214-11583-132767FM-18+9999DRIB V02099999999999999999N9999999N9+99999+99999999999ADDAG10999MW1001SA1+2729REMSYN01132611     ]EQDQ01+000002VOVAR 
0114037260999991996111710004+51467-002600FM-12+001199999V0203101N00051001501CN0100001N1+00831+00731101101ADDAG12999AY161011AY251011GA1061+001509079GF108991081051001501999999MD1210041+9999MW1581REMSYN017 333 86705 88618;
0077085360999991996020421304+38783-009133FM-15+0123LPPT V0203401N00361220001CN0112651N1+01001+00801999999ADDAG10999GA1021+009009999MA1102001999999REMMET008NEW NOSIEQDQ01+000000PRSWM2
0086724237999991996032014004+37733-087167SAO  +0124OWB  V0203201N00771001801WN0008051N1-00171+99999999999ADDAG11999GD15991+0018099GF109991999999999999999999MA1100641999999MW1451MW2731OC101281
0090702075999991996073007344+62650-160183FM-15+0099PANV V0202001N00261018001CN0160931N1+01101+00101999999ADDAG11999GA1021+008101999GA2071+018001999MA1100641999999REMMET005NEW ;EQDQ01+000000PRSWM2
0103724373938231996042903154+39450-087317SAOSP+0178HUF  V0200501N00511002701MN0048281N1+01051+01001999999ADDAG10003GD14991+0027019GF108991999999999999999999MA1101221999999MW1451MW2611MW3951EQDQ01+000100PRSWM4
0164061900999991996120109004+55067+014750SY-MT+0016EKRN V0201001N00261005401CN0032001N1+00211+00141101321ADDAA106000091AG14000AY111031AY211031GA1071+005409999GF199999061051004501001001MA1101191101111MD1210181+9999MW1101REMSYN011 333 86613;MET005NEW ;EQDQ01+000062SCOTCV
0085164900999991996072712004+35500+012600FM-15+0020LICD V0201201N00361999991CY0099001N1+03101+02501999999ADDAG10000MA1101801999999REMMET032NEW CAVOK QUK2 QUL1 VIS MAR 20KMEQDQ01+000000PRSWM2
0129726555999991996021922003+46400-094133SAO  +0374BRD  V0202001N005119999999N0160931N1+00441-00121099301ADDAG11999GP10060017801028014101031013101028GQ100600703922739GR100600471914009MA1099151999999MW1001REMAWY021CLR BLO 120 TNO ZRNO;
0101570460999991996021321004+34483+110083FM-12+206399999V0202901N00701220001CN0250001N1+00401-01361999999ADDAG10000GA1001+999999999GF100991001001999999001001MA1999999078601MD1710061+0011REMSYN011 333 05155;
0077061180999991996051404504+54967+009800FM-15+0023EKSB V0202701N00411027001CN0030001N1+00901+00801999999ADDAG11999GA1021+000909999GA2071+027009999MA1101591999999MW1101REMMET005NEW ;
0063999999999991996040111504-18233-169533FM-18+9999DRIB V02099999999999999999N9999999N9+99999+99999999999ADDAG10999MW1001SA1+2919REMSYN01151865     ]EQDQ01+000002VOVAR 
0292725095947461996042010003+42267-071883SAO  +0300ORH  V0200405N00215220005MN0056005N1+00675+00675101655ADDAA101000095AG11999GD10995+9999999GP10060000001000000001000000001000GQ100600900907369GR100600000900119MA1101631097955MW1455REMAWY021CLR BLO 120 TNO ZRNO;EQDQ01+000100PRSWM2N01 07000JPWTH 0QNNAA1 0 00000GA1U0 99999KA1 0 00044LA1 0 00350MA1D0 28925NA1 0 07000QA1 0 10165SA1 0 00044YA1 0 04004
0125037260999991996080600004+51467-002600FM-12+001199999V0201101N00211030001CN0150001N1+01941+01041100781ADDAA106999929AG10001AY161061AY221061GA1041+012009059GF108991041051012501021999MD1710131+9999MW1211REMSYN017 333 84640 88459;
0069956270999991996050707004-32467+118883FM-12+029999999V0203401N00261015001CN0200001N1+03091+00151999999ADDAA106000091AG10999AY121999AY221999GF107991071051017501001001MW1031
0055999999999991996050110554+60867-021533FM-18+9999DRIB V02099999999999999999N9999999N9+99999+99999999999ADDAG10999MW1001REMSYN01144616     ]EQDQ01+000002VOVAR 
0087106530999991996052305004+49650+009967FM-15+0298ETEU V0202001N004110150019N0112651N1+01101+00701999999ADDAG11999GA1071+015009999MA1101961999999REMMET018NEW CIGM050 RCRNR;EQDQ01+000000PRSWM2
0117443730999991996041509004+43583+104417FM-12+147099999V0202901N01601036001CN0500001N1+01361-00471099961ADDAA106000091AG14000GF107991021011012501041021MA1999999083871MD1710121+9999OA159901601REMSYN021 333 91216 555 96108;
0058042030999991996010509004+76633-073000FM-12+001199999V0203301N001019999999N9999999N9-01591-01811100131ADDAG12000MA1999999099991MD1710061+9999EQDQ01+000002VOVAR 
0155104010999991996052816004+51200+006133SY-MT+0076ETUR V0202901N00261220001CN0250001N1+01521+00311102511ADDAG11999GA1021+009609999GA2021+015009999GF104991041081012501031011MA1102511999999MD1710081+9999REMSYN017 333 81832 84650;MET007NEW BLUEQDQ01+000000PRSWM2
0074917550999991996031807004-13483-172767FM-12+999999999V0209991C000019999999N9999999N9+02651+99999100501ADDAA106000091AG10999MD1210291+9999REMSYN011 333 91200;EQDQ01+000002VOVAR 
0143645650999991996091006004-01533+013267FM-12+0573FOOD V0209999999999045001CN0150001N1+02101+02041101051ADDAA124002091AG10000GA1031+004809059GF106991031051004501071999KA1120N+02051MA1999999094701MD1999999+0021REMSYN029 333 20205 58002 83616 86360;
0106821930999991996030320004-01383-048483FM-15+0016SBBE V0200301N00511090001CN0112651N1+02701+02501999999ADDAG10999GA1021+006009999GA2021+030009999GA3071+090009999MA1100811999999REMMET005NEW ;EQDQ01+000000PRSWM2
0116575980999991996123106004+29033+114583FM-12+014799999V0202901N00101036001CN0120001N1+01401+00981101571ADDAA106999929AG10001AY161061AY241061GF107991031051017501031999KA1999N+00391MD1710221+9999MW1001REMSYN011 333 20039;
0277788970999991996090912004+16267-061517SY-MT+0008TFFR V0201301N00721027001CN0080001N1+02691+02531101141ADDAA106004091AA224017091AG10009AY191061AY281061GA1021+004809099GA2021+005409999GA3081+027009999GF108991041091004501071999KA1240M+02691KA2120N+02371MA1101081999999MD1310211+0491MW1151MW2161REMSYN053 333 0333/ 10269 20237 58049 70170 81916 83818 88459;MET020NEW TEMPO 6000 -SHRA
0043992020999991996010812004+23400-162300FM-18+0003DB20 V0201201N008019999999N9999999N9+02311+99999101521ADDAG10000MD1810181+9999EQDQ01+000002VOVAR 
0090010590999991996050806504+70067+024983FM-15+0008ENNA V0200201N00211220001CN0112651N1+00101-00701999999ADDAG11999GA1021+006009999GA2021+024009999MA1101901999999REMMET005NEW ;EQDQ01+000000PRSWM2
0204160200999991996101712004+46467+011333SY-MT+0241LIPB V0200201N00211006001CN0080001N1+01161+00841100731ADDAA106007091AG12004AY161061AY261061GA1021+000909999GA2071+006009999GA3081+021009999GF108991061071000751021999MA1100711097871MD1310051+9999MW1631REMSYN023 333 84703 86820 88557;MET020NEW OVC MON GEN INC;
0108999999999991996033118004-39400+153000FM-13+99999KKS V0202801N01751220001CN0040001N1+01601+01041100281ADDAG10001AY181061AY221061GF104991021031002501031001MD1710301+9999MW1211SA1+1309REMSYN019 22263 00130 80130;
0069478570999991996040601004+31867+131450FM-15+0009RJFM V0209991V00151999991CY0099001N1+01401+00201999999ADDAG10999MA1102401999999REMMET016NEW CAVOK A3025;EQDQ01+000000PRSWM2
0050037680999991996020322004+51283-000783FM-12+006599999V0209991C000019999999N0060001N1-00471+99999102191ADDAG12999MD1210071+9999REMSYN017 555 80/99 92155;
0120082210999991996073100004+40450-003550SY-MT+0582LEMD V0209991C00001220001CN0150001N1+02481+01321101471ADDAA106000091AG11000GF100991001001999999001001MA1101801095001MD1310051+9999REMMET016NEW CAVOK NOSIG;EQDQ01+000000PRSWM2
0047061560999991996120615004+55717+011717FM-12+001299999V0203101N00311007501CN0045001N1+00501+00441999999ADDAA106000091AG14000GF108991081051008001999999
0152725185147501996031503003+43333-073617SAO  +0100GFL  V0209999C00001018001EN0160931N1+00271-00281100801ADDAG11000GD13991+0180019GF107991999999999999999999GP10060000001000000001000000001000GR100600000900009MA1100751999999MD1710171+9999MW1001REMAWY00657017;
0446913660406041996112806503+08733+167733FM-15+0002PKWA V0202105N00365012195CN0160005N1+02605+02325101045ADDAG10999GA1021+004509999GA2071+012009999GA3071+036009999GA4081+105009999GD11995+9999999GD23995+9999999GD33995+9999999GD44995+9999999GF108991999999999999999999MA1101055100981MW1805REMMET020NEW SLP104 T02600232EQDQ01+999990APOSP N01 00023JPWTH 0QNNE71D0 00299F71 0 00199E71D0 00499F71 0 00499E71D0 00499F71 0 00499E71D0 00699F71 0 00699G71 0 00040K71D0 00074J71 0 00232L71 0 01000C71 0 02984N71 0 00023Q71 0 10104S71D0 00079R71 0 00260X71 0 21007
0058959040999991996112320004-37867+147983FM-12+007399999V0202901N001512200019N0500001N1+00921+00731999999ADDAG10999AY111999AY211999GF102991001001999999001021MW1021
0194725464999991996103003053+41683-093017FM-15+0290KTNU V0202501N01231008701CN0160931N1+00701+00601999999ADDAG11000GA1021+007201999GA2071+008701999GA3081+011401999GF108991999999999999999999GP10060000001000000001000000001000GR100600000900009MA1098511999999OC101651REMMET008NEW AO1;EQDQ01+000000PRSWM2
0070644010999991996101109004-04200+012700FM-12+0330FCPL V0202001N00311007501CN0150001N1+02661+01861101171ADDAG10000GF106991061021008001001001MD1999999-0151REMSYN011 333 59015;
0058477610999991996120701004+35267+136250FM-12+008999999V0201801N002619999999N9999999N9+00491-00451101671ADDAG10999MA1999999100581MD1210041+9999EQDQ01+000002VOVAR 
0215744910147031996020821003+42200-072533SAO  +0075CEF  V0201801N006110030019N0080471N1+00161-00061100751ADDAG11000GD12991+0015019GD24991+0030019GF108991999061999999999999GP10060005801025000001028005801025GQ100600742923169GR100600382914069MA1100751999999MD1810341+9999MW1451REMAWY0188/6/// 58034 WR//;EQDQ01+000100PRSWM2
0177745160232021996092608003+38267-121933FM-15+0019KSUU V0202301N009310750019N0402331N1+01301+01001101041ADDAG10999GA1071+075001999GF107991999999999999999999GP10060000001000000001000000001000GR100600000900009MA1101051999999REMMET031NEW SLP104 CIG THN 8/008 9/006;EQDQ01+000000PRSWM2
0054722693999991996121811009+32833-105983NSRDB+131399999V020999999999999999999999999999+99999+99999999999ADDGP10060000001000000001000000001000GR100600000900009
0492747020231101996020602003+36333-119950SAO  +0073NLC  V0200905N001552200019N0112005N1+01675+01395102481ADDAG10999GD12991+0105019GD22991+0240019GD32991+0750019GF104995999999999999999999GP10060000601011000401016000501011GQ100600876924849GR100600028906689MA1102471999999MW1001REMAWY036ACC NE VIRGA W RWU VCNTY NW/ T2 SET;EQDN01 00205KCLC1 3N02 00205KCLC2 3N03 00205KCLC3 3N04 99999CCLHTU3N05 30260EALTP 3N06 30005FPRES 3N07 00000JPWTH 0N08 10248ISLVP 3QNNE41 3 00205E41 3 00205E41 3 00205G41U3 99999K41 0 00057L41 0 00700C41 3 30260M41 3 30005N41 0 00000Q41 3 10248S41 0 00062V41 0 00599X41 0 09003
0037702716999991996011523009+61817-147550NSRDB+090099999V020999999999999999999999999999+99999+99999999999ADDGQ100600831918719GR100600170914149
013774718823158199612300250D+33617-114717FM-15+0121KBLH V0203401N00261220001CN0241401N1+01401+00701101871ADDAA101000095AG10000GA1021+075001999GF104991999999999999999999MA1101901999999MD1610031+9999REMMET017NEW SLP187 56003;EQDQ01+000000PRSWM2
0136765770999991996071015003+21017-101250FM-12+199999999V0209999C00001220001CN0200001N1+01821+01501101211ADDAA106000091AG10000GA1021+004801081GF102991021021004501001001IA1099MA1999999080711MD1210081+0141REMSYN029 333 31/// 56500 58014 82816;
0125424100999991996010615004+26100+091583FM-12+0054VEGT V0209991C00001220001CN0020001N1+01621+01521101651ADDAA106000091AG10000AY101031AY201031GA1011+006009059GF101991011051008001001001MD1999999+0061MW1051REMSYN017 333 58006 81620;
0058476780999991996083115004+33100+139783FM-12+008099999V0200401N008719999999N9999999N9+02561+02451100801ADDAG10000MA1999999099891MD1710111+9999EQDQ01+000002VOVAR 
0083766340999991996060514404+20083-098367FM-15+2181MMTL V0209999C00001008401CN0080461N1+01501+01001999999ADDAG10000GA1081+008401999MA1102841078971MW1051REMMET008NEW 5///EQDQ01+999990APOSP 
0058994190999991996090223004+47083-090733FM-12+0192DISW V0201101N004619999999N9999999N9+01901+01811101021ADDAG12999MA1999999098531MD1810091+9999EQDQ01+000002VOVAR 
0071724636999991996070218009+38067-102683NSRDB+112999999V020999999999999999999999999999+99999+99999999999ADDGP10060095501028095001031008601028GQ100600237912449GR100601208913219
0109319130999991996052912004+45217+131983FM-12+008299999V0202301N00301220001CN0200001N1+02411+01261100661ADDAA106000091AG14000GF105991001001999999001011KA1999M+02411MA1999999099661MD1710011+9999REMSYN011 333 10241;
0117102460999991996102310254+52917+010183FM-16+0088ETHS V0209999999999999999CN9999999N9+99999+99999999999ADDAG10999REMMET063NEW 1025Z VBR01KT 1600 R27/1100 BCFG FEW010 SCT230 10/08 Q1030;EQDQ01+000002VOVAR Q02+000000PRSWM2
0135788060999991996071003004+08917-079600FM-15+0016MPHO V0209991V00211090001CN0112651N1+02701+02401999999ADDAG10000GA1021+004509999GA2021+030009999GA3021+090009999MA1101221999999MD1510271+9999REMMET020NEW 8/171 9/112 5502EQDQ01+000000PRSWM2
0159719640999991996042404004+60717-135067SAO  +0703YXY  V0201501N002510300019N0643741N1+00701-00901099121ADDAG11999GD12991+0150099GD23991+0300099GD33991+0540099GF107991999999999999999999MA1098881999999MW1001REMAWY013SC1AC6CI1 CU;EQDQ01+999990APOSP Q02+096393APOSP 
0067161240999991996022013004+44433+009933FM-15+1040LIMT V0209991C00001000151CN0000001N1+00101+00101999999ADDAG11999GA1091+000159999MW1451MW2731REMMET020NEW MON INVIS VAL IN
0058104160999991996012008504+51517+007617FM-15+0127EDLW V0200701N00461220001CN0090001N1-00301-00501999999ADDAG12000MA1101591999999REMMET005NEW ;EQDQ01+000000PRSWM2
0093814050999991996052902004+04833-052367FM-15+0009SOCA V0209991V00051220001CN0112651N1+02501+02401999999ADDAG10999GA1021+006309999GA2021+033009999MA1101391999999REMMET008NEW NOSIEQDQ01+000000PRSWM2
0095471425999991996121723004+35850+128583FM-15+0075RKTG V0202901N00511220001CN0112651N1-00301-01201999999ADDAG10999GF100991999999999999999999MA1102641999999OC100721REMMET008NEW SLPNEQDQ01+000000PRSWM2
0074917550999991996122717004-13483-172767FM-12+999999999V0200901N003119999999N9999999N9+02691+99999100711ADDAA106000091AG10999MD1210031+9999REMSYN011 333 91211;EQDQ01+000002VOVAR 
0071713730999991996012713004+45050-072833SAO  +0152WFQ  V0201401N007219999999N9999999N9+00601+00101999999ADDAG11999MW1001OC101281REMAWY019PK WND 1534 1220Z ;EQDQ01+000002VOVAR 
0252723265038471996062712003+35950-085083SAO  +0573CSV  V0209999C000010750019N0080471N1+01661+01441102101ADDAA106000091AG10000GD12991+0240019GD23991+0750019GF107991999999999999999999GP10060011401011002301016010901011GQ100600790906909GR100600252913229KA1999M+01661KA2999N+01501MA1102271999999MD1110081+9999MW1451REMAWY01851008 10062 20059;EQDQ01+000100PRSWM2
0069854060999991996041910004-18333-070333FM-15+0059SCAR V0200801N00151999991CY0099001N1+01601+01201999999ADDAG10999MA1101591999999REMMET016NEW CAVOK NOSIG;EQDQ01+000000PRSWM2
0110470580999991996041200004+39033+125783FM-12+0038ZKPY V0203201N00101220001CN0160001N1+00481-00771103121ADDAA106000091AG10000GA1001+999999999GF100991001001999999001001KA1999N-00041MD1210141+9999REMSYN011 333 21004;
0184604750999991996061915004+35483+008133SY-MT+0813DABS V0202601N00621012001CN0150001N1+02941+00851999999ADDAG10000GA1021+009909099GA2071+012009089GF199999051091012501001021MA1101801092291MD1610151+9999ME1315309REMSYN023 333 81933 85840 95900;MET005NEW ;EQDQ01+000052SCOTCVQ02+000000PRSWM2
045772243012960199612110853C+30000-095367FM-15+0029IAH  V0209999V00265004885MN0160005N1+02115+01895101385ADDAA101000095AG10000GA1071+004801999GA2071+007801999GA3081+012301999GD13995+0048859GD23995+0079259GD34995+0125059GF108991999999999999999999MA1101395100991REMMET031NEW AO2 SLP138 T02110189 58000;EQDQ01+999990APOSP Q02+000082APCTENQ03+000002APC3  Q04+000000PRSWM2N01 00000JPWTH 0QNNAA1D0 04016BA1 0 04016AA1D0 04026BA1 0 04026AA1D0 06041BA1 0 06041GA1 0 00016KA1D0 00066JA1 0 00189LA1 0 01000CA1 0 02994NA1 0 00000QA1 0 10138SA1D0 00070RA1 0 00211YA1 0 00005
0118118160999991996022913304+48200+017200FM-15+0130LZIB V0209991V00301220001CN0042001N1+00501-00401102291ADDAG11999GA1021+039009999MA1102201100671MW1051OC100801REMMET019NEW NOSIG 8800//95;EQDQ01+999990APOSP Q02+999990APOSLP
0201150900999991996012016004+47167+027633SY-MT+0104LRIA V0203401N00201030001CN0060001N1-00901-01101103071ADDAG12999AY121011AY221011GA1021+012009999GA2071+030009999GF108991011999999999071071MA1102911101701MW1101REMMET020NEW NOSIG 157510 93;EQDQ01+000992SCOLCBQ02+999990APOSP Q03+999990APOSLPQ04+000000PRSWM2
0106577990999991996031621004+27117+114967FM-12+007899999V0200201N00401002101CN0100001N1+01281+01191101141ADDAG10002AY181031AY261031GF108991081091002501999999MA1999999100211MD1210391+9999MW1951EQDQ01+999990APOSP 
0106837210999991996011419004-23000-047133FM-15+0661SBKP V0209991C00001220001CN0112651N1+03201+01701999999ADDAG10999GA1021+009009999GA2021+069009999MA1101491093841REMMET005NEW ;EQDQ01+999990APOSP Q02+000000PRSWM2
0093026410999991996081812504+56933+014733FM-15+0186ESMX V0202701N00361999991CY0099001N1+02401+01101102431ADDAG11999MA1102511100121REMMET008NEW CAVOEQDQ01+999990APOSP Q02+999990APOSLPQ03+000000PRSWM2
0091716240999991996102810364+43667-079633FM-16+0173CYYZ V0202801N00411009301CN0160931N1+99999+99999999999ADDAG10999GA1071+009309999GA2081+013509999GF108991999999999999999999MW1801REMMET008NEW SC7S
0166249880999991996061909004+60083+142333FM-12+019899999V0201801N00201220001CN0200001N1+02431+01111100441ADDAA106000091AG10000AY101031AY201031GA1001+999999999GF100991001001999999001001KA1999M+02781MA1999999098201MD1310031+9999MW1041REMSYN011 333 10278;EQDQ01+999990APOSP 
0071726050147451996122613009+43200-071500NSRDB+010699999V020999999999999999999999999999+99999+99999999999ADDGP10060001801024020201027000801024GQ100600872912599GR100600048909789
0129999999999991996060400004+08900+130100FM-13+9999JFCX V0200401N00571220001CN0200001N1+02901+02641101001ADDAG10000GF103991021011008001041091MD1410001+9999SA1+3009UA1M020109999UG1050200609REMSYN037 22283 00300 20202 306// 40504 80270;
0285727910942241996063019003+46150-123883SAO  +0002AST  V0203405N00315220005MN0160005N1+01835+01175102175ADDAA101000095AG11999GD10995+9999999GP10060083601025079501028016201025GQ100600320912739GR100601120913219MA1102171102085MW1001REMAWY014CLR BLO 120 $;EQDQ01+999990APOSP N01 00000JPWTH 0QNNAA1 0 00000GA1U0 99999KA1 0 00053LA1 0 01000MA1D0 30145NA1 0 00000QA1 0 10217SA1 0 00065YA1 0 34006
0164873440999991996011306004-31317-064217SY-MT+0474SACO V0201801N00311009001CN0150001N1+01841+01471101031ADDAA106000091AG10000GA1071+009009999GF199999061051008001001001MA1101191095741MD1210151+9999REMSYN017 333 56800 86630;MET005NEW ;EQDQ01+000062SCOTCVQ02+000000PRSWM2
0109600300999991996081417004+27933-015383FM-15+0025GCLP V0200301N01131220001CN0112651N1+02601+02001101631ADDAG10999GA1021+007509999MA1101591101081REMMET008NEW NOSIEQDQ01+999990APOSP Q02+999990APOSLPQ03+000000PRSWM2
0094152840999991996021113004+00000+999999FM-12+999999999V0201601N00401000151CN0000001N1-00991+99999999999ADDAG10999AY141041AY241041GA1091+999999999GF109991091999999999999999MW1491REMSYN011 333 92723;
0096484800999991996043021004+12600+102117FM-12+0004VTBC V0209991C000010075019N0100001N1+02551+02401100581ADDAA106000091AG10000GF108991061051008001071071MA1999999100541MD1999999+0091REMSYN011 333 58009;
0132852830999991996110919004-19017-065267FM-15+2903SLSU V0203601N00621220001CN0112651N1+02201+00801999999ADDAG10999GA1021+009009999GA2021+060009999GF104991999999999999999999MA1102001071521REMMET005NEW ;EQDQ01+999990APOSP Q02+000000PRSWM2
0127724509999991996041802003+38050-097283SAO  +0467EWK  V0201801N010219999999N0160931N1+02161+00721999999ADDAG11999GP10060000001028000301031000001028GQ100600896928399GR100600001901479MA1100201999999MW1001OC101281REMAWY011CLR BLO 120
0357162894341131996020903003+40883+014300SAO  +0088KQNN V0203305N002152200019N0090001N1+00285-00115999999ADDAG11000GA1021+024009999GA2071+054009999GF199999999999999999999999MW1101REMMET019NEW 2956 RMK CIGNO;EQDN01 00000KCLC1 3N02 00200KCLC2 3N03 99999CCLHTU3N04 00600DHZVS 3N05 29243FPRES 3N06 07000JPWTH 3N07 10015ISLVP 3P01    003SCOTCVQNNE41 3 00000E41 3 00200G41U3 99999K41 0 00030L41 3 00600M41 3 29243N41 3 07000Q41 3 10015S41 0 00037V41 0 00099X41 0 33004
0085030310999991996030909004+57717-004883FM-12+026599999V0201201N005119999999N9999999N9+00181-00101101981ADDAG12000IA2999-00509MD1710051+9999REMSYN021 333 3/105 555 90851;EQDQ01+000002VOVAR 
0121725975242351996031017384+42617-123367SAOSP+1171SXT  V0201501N00301003901MN9999999N9+00501+00501101641ADDAG10999GD14991+0039019GF108991999999999999999999MA1101731999999MW1611REMAWY021TNO ZRNO PCPN 0000 $;EQDQ01+000002VOVAR 
0050150560999991996101208004+47350+026983FM-12+028999999V0209999999999220001CN0040001N1+01021+99999999999ADDAG12999AY121021GF103991031051008001001001MW1121
0069478724999991996052304004+28317+129933FM-15+0006RJKI V0200101N00261999991CY0099001N1+02401+99999999999ADDAG10999MA1101081999999REMMET016NEW CAVOK A2987;EQDQ01+000000PRSWM2
0050509150999991996123021004+45517+116967FM-12+084099999V0200201N00201090001CN0300001N1-02451-02811103481ADDAG12000GF107991001001999999001021MD1210021+9999
0165106330999991996112505274+50050+008333FM-16+0141ETOU V0201701N00571013501CN0080001N1+00101-00101999999ADDAG10999GA1021+006009999GA2021+009609999GA3071+013509999GA4081+015009999GF108991999999999999999999MA1101081999999MW1711REMMET016NEW 8/5// 9/8//;EQDQ01+000100PRSWM3
0077545870999991996053112004+39050+123217FM-12+001099999V0202201N00201220001CN0150001N1+01921+01691100841ADDAA106000091AG10000GA1001+999999999GF100991001001999999001001MD1410001+9999
0188063750999991996061613004+51650+005700SY-MT+0021EHVK V0203601N00411090001CN0250001N1+02211+00891102541ADDAG11999GA1021+015009999GA2071+090009999GF199999031021017501001041MA1102511102291MD1710121+9999REMSYN033 333 83850 85080 555 51023 53254;MET008NEW BLU;EQDQ01+000062SCOTCVQ02+000000PRSWM2
0147722517129321996072006003+27733-098033FM-15+0054KALI V0201601N00511220001CN0241401N1+02701+02401101631ADDAG10000GP10060000001000000001000000001000GR100600000900009MA1101661999999MD1110071+9999REMMET029NEW SLP163 10344 20271 51007;EQDQ01+000000PRSWM2
0134971260999991996110209004-02550+120367FM-12+005099999V0201901N00101045001CN0070001N1+03001+02361100361ADDAA106000091AA224999929AG10000AY121031AY221031GA1021+006009089GF107991021021004501071011MW1051REMSYN029 333 56000 79999 82820 84460;
0188382640999991996012018004+42450+059617FM-12+007799999V0203601N00401001201CN0020001N1-01101-01301102391ADDAA199001091AG10001AW1711AZ171061AZ271061GA1081+001209079GF108991999071001501021999KA1120M-00911MA1999999101391MD1210021+9999REMSYN017 333 11091 88704;EQDQ01+000082SCOTLCQ02+999990APOSP 
0056153470999991996041701004+45133+024683FM-12+044899999V0209991C000019999999N0170001N1+00091+99999999999ADDAG12999GF105991999999999999999999REMSYN011 333 92600;
0061014703999991996022109504+59567+009217FM-15+0019ENNO V0209991C00001999991CY0099001N1-01001+99999999999ADDAG11999MA1103121999999REMMET008NEW CAVOEQDQ01+000000PRSWM2
0081545340999991996070300004+39667+118150FM-12+002999999V0200901N00501090001CN0150001N1+02331+01761101081ADDAA106000091AG10000GF107991031001999999031021MD1210061+0021REMSYN011 333 00251;
0051701213266381996021501004+69733-163017SAO  +0006PPIZ V0201101N002519999999N0160931N1-01621-01841999999ADDAG11999MA1101491999999MW1001REMAWY011CLR BLO 120
0107162610999991996071503004+41533+015717SY-MT+0060LIBA V0202401N00511220001CN0150001N1+01781+01361101851ADDAG11000GF100991001001999999001001MA1101801101131MD1810101+9999REMMET014NEW CAVOK BLU;EQDQ01+000000PRSWM2
0066471204999991996022313004+37350+126917FM-15+0406RKSC V0203201N00261999999CN0112651N1+99999+99999999999ADDAG10999MA1102471999999REMMET013NEW QFF102T7;EQDQ01+000000PRSWM2
0068012090999991996031804504+62183+006067FM-15+0074ENOV V0209991C00001220001CN0112651N1-00801-00901999999ADDAG10999MA1102911999999REMMET015NEW HH 30003KT;EQDQ01+000000PRSWM2
027172637014826199608111054C+42967-083750FM-15+0234FNT  V0209999C00005220005MN0160005N1+01335+01115102235ADDAA101000095AG11999GD10995+9999999MA1102245099451REMMET025NEW AO2 SLP223 T01330111;EQDQ01+999990APOSP Q02+000000PRSWM2N01 00000JPWTH 0QNNAA1D0 00000BA1 0 00000GA1U0 99999KA1D0 00052JA1 0 00111LA1 0 01000CA1 0 03019NA1 0 00000QA1 0 10223SA1D0 00056RA1 0 00133YA1 0 00000
0058043120999991996071712004+81600-016683FM-12+003499999V0202301N002619999999N9999999N9+00101-00091100671ADDAG10000MA1999999100231MD1210011+9999EQDQ01+000002VOVAR 
0129161080999991996012612004+45817+013483SY-MT+0012LIPQ V0200701N004110900019N0100001N1+00841+00131101121ADDAA106000191AG13000GF106991021001999999071051MA1101081100911MD1810031+9999REMSYN011 333 82359;MET008NEW CAVOEQDQ01+000000PRSWM2
0559724340139941996012418003+38750-090367SY-SA+0173STL  V0202605N006250304859N0240005N1-00445-01065102095ADDAA101000095AA206000391AA324006191AC13C9AG10001AY171061AY221061GA1999+005795065GA2999+030485035GD12045+0057012GD23035+0300019GF107075021051004501071991GP10060027901010020701016017201010GQ100600590916809GR100600727914129KA1120M-00441KA2240N-00721MA1102001099955MD1110251+9999MW1021REMSYN039 333 11044 21072 70061 90933 555 92418;AWY042SCT V BKN/ 8/570/ 51025 6001/ 10024 20019;EQDQ01+000003PRSWM2N01 00000JPWTH 0QNNE71 0 00205E71 0 00404G71 0 00100H71 0 15019H71 0 23100K71 0 00013L71 0 01500M71 0 29515N71 0 00000Q71 0 10209S71 0 00024V71 0 00909X71 0 26012
0111084870999991996052609304+36850-002383FM-15+0021LEAM V0209991V00151001501CN0010001N1+01901+01801101931ADDAG10999GA1071+001509999MA1101901101681MW1441REMMET020NEW BECMG 1500 BKN01EQDQ01+999990APOSP Q02+999990APOSLP
0156407800999991996071415004+33633+046417FM-12+136399999V0201201N00401036001CN0100001N1+03301+00471099731ADDAG10000GA1021+012009089GA2021+013509059GF105991041081012501051001MA1999999085741REMSYN029 333 00352 82840 82645 85360;EQDQ01+000062APCTENQ02+000002APC3  
0147475170999991996100803004+41233+141150FM-15+001099999V0202501N004110600019N0112651N1+01601+00601999999ADDAG11000GA1021+009009999GA2021+036009999GA3071+060009999GF107991999999999999999999MA1101191999999REMMET020NEW 1CU030 3AC120 A2EQDQ01+000000PRSWM2
0071703980253081996072417009+55050-131567NSRDB+003399999V020999999999999999999999999999+99999+99999999999ADDGP10060034601018032801022018201018GQ100600601909839GR100600660913249
0085677750999991996092917004-17917+031133FM-15+1503FVHA V0200501N00511999991CY0099001N1+02101+00801999999ADDAG10999MA1102511085541REMMET016NEW CAVOK NOSIG;EQDQ01+999990APOSP Q02+000000PRSWM2
0354723890931931996112811003+36783-119717FM-15+0102FAT  V0201105N00215000305MN0008005N1+00565+00565102275ADDAA101000095AG10999GA1091+000151999GD15995+0003059GF109991999999999999999999GP10060000001000000001000000001000GR100600000900009MA1102275101061MW1455REMMET025NEW AO2 SLP227 T00560056;EQDQ01+999990APOSP N01 00075JPWTH 0QNNAA1D0 07001BA1 0 07001GA1 0 00001KA1D0 00042JA1 0 00056LA1 0 00050CA1 0 03020NA1 0 00075QA1 0 10227SA1D0 00042RA1 0 00056YA1 0 11004
0050271990999991996050409004+58600+049633FM-12+015899999V0202301N00601220001CN0200001N1+02401-00271102321ADDAG12000GF104991001001999999001011MD1810031+9999
0071722315539171996081315009+30050-090033NSRDB+000399999V020999999999999999999999999999+99999+99999999999ADDGP10060049901018031701022030201018GQ100600516909539GR100600825913319
0058475820999991996090702004+39717+140100FM-12+002199999V0202501N001519999999N9999999N9+02171+01401101361ADDAG10999MA1999999101111MD1210051+9999EQDQ01+000002VOVAR 
0043994260999991996073021004+29667-094050FM-12+0001SRST V0201901N006719999999N9999999N9+02981+99999101741ADDAG10000MD1610131+9999EQDQ01+000002VOVAR 
0125723826999991996032517003+35667-117833SAO  +0749IYK  V0202501N009212200019N0321871N1+01831+99999999999ADDAG10999GF100991999999999999999999GP10060053401025091401028005601025GQ100600584911299GR100600718913749MA1101251999999MW1001
0144718250999991996052008004+52933-066867SAO  +0551YWK  V0209991C00001003001MN0096561N1+00201+00101100801ADDAG11999GD13991+0030099GD24991+0048099GF108991999999999999999999MA1100611094211MW1451MW2611REMAWY007SC8SC2;EQDQ01+999990APOSP Q02+000100PRSWM3
0101021200999991996070212004+66950+017750FM-12+033799999V0201801N00261012001CN0500001N1+01701+00591099771ADDAG10000GA1051+012009099GF108991051031012501081021MA1999999095901MD1710081+9999REMSYN011 333 85940;
0094588200999991996082006004+26183+117617FM-12+019899999V0201601N00301220001CN0300001N1+03291+02081100931ADDAA106000091AG10000GF102991021011012501001001KA1999N+02051MD1710211+9999REMSYN011 333 20205;
0174727770940121996030617003+48550-109767SAO  +0792HVR  V0209999C000019999999N0160931N1-02841-03231104031ADDAA101000095AG11999GP10060036401025077301028005901025GQ100600667913009GR100600548913899MA1103081093791MW1711REMAWY036CLR BLO 120 TNO SB55 ZRNO PCPN 0000;EQDQ01+999990APOSP 
041491408040309199611140754C+07333+134483FM-15+0029PTRO V0200705N002150914459N0240005N1+02785+02335101145ADDAA101000095AG10999GA1021+005409999GA2021+036009999GA3071+090009999GD11995+9999999GD21995+9999999GD33995+9999999GF107991999999999999999999MA1101155100771REMMET020NEW SLP114 T02780233EQDQ01+999990APOSP Q02+000000PRSWM2N01 00000JPWTH 0QNNE71D0 00299F71 0 00199E71D0 00299F71 0 00199E71D0 00499F71 0 00499G71 0 00300K71D0 00074J71 0 00233L71 0 01500C71 0 02987N71 0 00000Q71 0 10114S71D0 00082R71 0 00278X71 0 07004
0140722269038501996072010003+31283-085717FM-15+0091KOZR V0202401N00151220001CN0112651N1+02301+02301101721ADDAG11999GA1021+075001999GP10060000001000000001000000001000GR100600000900009MA1101731999999REMMET020NEW SLP172 8/001 9/0EQDQ01+000000PRSWM2
0096386960999991996051912004+39700+067000FM-12+0724UTSS V0200201N00301012001CN0200001N1+02461+01131100791ADDAA106000091AG10000GF108991081031012501999999MA1999999092861MD1710061+9999REMSYN011 555 10030;
0120167490999991996081412004+36400+028083SY-MT+0011LGRP V0202401N00871220001CN0100001N1+02781+01991100641ADDAA106000091AG10000GF100991001001999999001001MA1100611100501MD1710101+9999REMMET016NEW CAVOK NOSIG;EQDQ01+000000PRSWM2
0076719050999991996030508004+55283-077767SAO  +0012YGW  V0202101N003012200019N0241401N1-03001-03401101771ADDAG11999GF100991999999999999999999MA1101761101631MW1761EQDQ01+999990APOSP 
0085360010999991996040712004+51700+075367FM-12+023499999V0201001N00301007501CN0500001N1+00141-00401103641ADDAG12000GF106991061091008001001001MA1999999100681MD1410001+9999REMSYN011 555 1/002;
0074995250999991996031109004+60133+001700FM-18+9999DB52 V0201701N021619999999N0040001N1+00221+99999101701ADDAG10000AY121031AY221031GF108991999999004501999999MW1601REMSYN007 22200;
0087895710999991996020503004-68567+077950FM-12+001399999V0203601N00411220001CN0300001N1-00011-00881100011ADDAG10000AY101031AY201031GF101991011001022501071001MA1999999099731MD1710071+9999MW1021
0039723897231671996042103004+36733-119817SAO  +0085FCH  V0203301N005619999999N0160931N1+01381+00441999999ADDAG10000MA1101861999999MW1001OC100871
0286725720241271996053107003+40767-111950SAO  +1287SLC  V0200305N002152200059N024000599+00835+00725101375ADDAA101000095GD10995+9999999GF100005999999999999999999GM1006000000190000019000001999999GP10060000001000000001000000001000GR100600000900009MA1999999087015EQDN01 00000JPWTH 0QNNE71 0 00099G71U0 99999K71 0 00045L71 0 01500M71 0 25695N71 0 00000Q71 0 10137S71 0 00047V71 0 00000X71 0 03004
0132804470999991996093011004+07850-072450FM-15+0378SVSA V0209991C000010240019N0112651N1+02701+01701999999ADDAG10999GA1021+006009999GA2071+024009999GF107991999999999999999999MA1101391096721REMMET005NEW ;EQDQ01+999990APOSP Q02+000000PRSWM2
0094288070999991996100407004+53250+050450FM-12+004099999V0209991C00001030001CN0100001N1+00841+00001101661ADDAA106000091AG10999GF107991051001999999031011KA1999N+00241MD1810071+9999REMSYN011 333 20024;
0072152310999991996111402004+45967+023567FM-12+025399999V0209991C00001220001CN0100001N1-00121+99999999999ADDAG12999GA1001+999999999GF100991001001999999001001REMSYN011 333 92601;
0120647000999991996082515004+12133+015033FM-12+0295FTTJ V0201801N00411075001CN0150001N1+03321+02221100631ADDAG10000GA1021+012009089GA2051+075009009GF105991021021012501001021MD1999999+0141REMSYN029 333 58014 82840 85075 94939;
0160719440999991996022108124+55300-123133SAOSP+0690YZY  V0201201N00101008401MN9999999N9+00001-00101999999ADDAG10999GD13991+0084099GD24991+0150099GF108991999999999999999999MA1098071090271MW1001REMAWY0299.+ P- M/00/-01/1202/896/ M ;EQDQ01+999990APOSP Q02+000002VOVAR 
