0055999999999991997072316204+49500-031417FM-18+9999DRIB V02099999999999999999N9999999N9+99999+99999999999ADDAG10999MW1001REMSYN01144607     ]EQDQ01+000002VOVAR 
0100309490999991997113021004+49567+111967FM-12+090899999V0202801N00101220001CN0500001N1-02531-02911103921ADDAG12000GA1001+999999999GF100991001001999999001001MA1999999091831MD1410001+9999EQDQ01+999990APOSP 
0071725955242591997100818009+41783-122467NSRDB+080399999V020999999999999999999999999999+99999+99999999999ADDGP10060014501011000001016014501011GQ100600585913579GR100600714913699
0075021540999991997050812004+65867+020133FM-12+0182ESPE V0200801N003610150019N0500001N1+01011-00361101331ADDAG12000GA1081+015009999MA1999999099131MD1210071+9999REMSYN011 333 88/50;
0054725326999991997121605009+41750-089667NSRDB+019799999V020999999999999999999999999999+99999+99999999999ADDGP10060000001000000001000000001000GR100600000900009
0348724580139841997050808003+39550-097650FM-15+0448CNK  V0203205N00155220005MN0160005N1+01285+01005101475ADDAA101000095AG11999GD10995+9999999GF100991999999999999999999GP10060000001000000001000000001000GR100600000900009MA1101595096271REMMET025NEW AO2 SLP147 T01280100;EQDQ01+999990APOSP Q02+000000PRSWM2N01 00000JPWTH 0QNNAA1D0 00000BA1 0 00000GA1U0 99999KA1D0 00050JA1 0 00100LA1 0 01000CA1 0 03000NA1 0 00000QA1 0 10147SA1D0 00055RA1 0 00128YA1 0 32003
0071723575999991997092215009+34567-098417NSRDB+033899999V020999999999999999999999999999+99999+99999999999ADDGP10060012001024000001027012001024GQ100600649910879GR100600575913579
0071725635999991997060323009+42050-102800NSRDB+119899999V020999999999999999999999999999+99999+99999999999ADDGP10060015501024008401027010101024GQ100600496926469GR100600859913289
0071724507139811997111920009+37667-095483NSRDB+029899999V020999999999999999999999999999+99999+99999999999ADDGP10060050101024090701027005501024GQ100600606920249GR100600688914009
0076475200999991997012016004+38750+140317FM-12+011399999V0201001N000519999999N0012001N1-00011-00071100741ADDAG10999AJ100509199999999MA1999999099331MD1610331+9999REMSYN011 555 19050;
0461722345038661997050610003+32550-088567FM-15+0083NMM  V0202405N00155045001CN0112651N1+01395+00101102201ADDAG11999GA1071+045001999GA2071+075001999GF107995999999999999999999GP10060000001000000001000000001000GR100600000900009MA1102131999999REMMET020NEW SLP220 T01390006EQDQ01+000000PRSWM2N01 00409KCLC1 3N02 00409KCLC2 3N03 00150CCLHT 3N04 00034BDPTP 3N05 00700DHZVS 3N06 30160EALTP 3N07 29810FPRES 3N08 00000JPWTH 3N09 10220ISLVP 3QNNE41 3 00409E41 3 00409G41 3 00150K41 3 00034L41 3 00700C41 3 30160M41 3 29810N41 3 00000Q41 3 10220S41 0 00057V41 0 00999X41 0 24003
0134977960999991997050903004-04717+136433FM-12+0003WABN V0200901N00211220001CN0100001N1+02981+02311101011ADDAA106000091AA224999929AG10000AY121031AY211031GA1011+004809099GF104991031091004501041021MW1151REMSYN029 333 56000 79999 81916 83817;
0339726450148981997091106003+44483-088133SY-MT+0209GRB  V0203505N00465220005MN0160005N1+01175+01005101435ADDAA101000095AA206000091AG14000GA1001+999999999GD10995+9999999GF100991001001999999001001GP10060000001000000001000000001000GR100600000900009MA1101425098871MD1810031+9999EQDQ01+999990APOA  N01 00000JPWTH 0QNNAA1D0 00000BA1 0 00000GA1U0 99999KA1D0 00050JA1 0 00100LA1 0 01000CA1 0 02995NA1 0 00000QA1 0 10143SA1D0 00053RA1 0 00117YA1 0 35009
0069151480999991997081022004+46533+026833FM-12+128599999V0200501N00201220001CN0100001N1+99999+99999999999ADDAG12999GF104991041001999999071001MD1011112+9999EQDQ01+001112APC3  
0100723119138861997050220504+34850-082350FM-15+0319KGMU V0202301N00511220001CN0482801N1+02601+00501999999ADDAG10000GA1021+060001999GF104991999999999999999999MA1101631999999REMMET005NEW ;EQDQ01+000000PRSWM2
0103727550999991997040402364+47500-094933FM-15+0420KBJI V0201501N003110144019N0160931N1+00701-00301999999ADDAG11000GA1081+014401999GF108991999999999999999999MA1100751999999REMMET008NEW AO1;EQDQ01+000000PRSWM2
0135724335999991997110308344+38317-088867FM-15+0146KMVN V0202501N00311008401CN0160931N1+00201-00101999999ADDAG11000GA1021+003301999GA2071+008401999GA3081+013201999GF108991999999999999999999MA1100511999999REMMET008NEW AO1;EQDQ01+000000PRSWM2
0106965570999991997071409004-00350+111783FM-12+003799999V0201801N00261220001CN0250001N1+03311+02171100711ADDAA106000091AA224999929AG10000GA1031+006009089GF104991031011004501011011REMSYN023 333 56600 79999 83820;
0071723526999991997120718009+35333-099200NSRDB+058699999V020999999999999999999999999999+99999+99999999999ADDGP10060010901024000001027010901024GQ100600597916449GR100600710914099
0116783334999991997071012454+21617-081550FM-15+0002MUCL V0200751N00411220001CN0112651N1+02801+02501999999ADDAG10999GA1021+005409999GA2021+006909999GF104991999999999999999999MA1101691999999REMMET005NEW ;EQDQ01+000000PRSWM2
0054726228999991997021802009+44383-074200NSRDB+052099999V020999999999999999999999999999+99999+99999999999ADDGP10060000001000000001000000001000GR100600000900009
0151011520999991997082609504+67267+014367FM-15+0013ENBO V0201101N008710270019N0112651N1+01401+00701100551ADDAG10999GA1021+012009999GA2071+027009999GF107991999999999999999999MA1100511100401REMMET008NEW N0SIEQDQ01+999990APOSP Q02+999990APOSLPQ03+000000PRSWM2
0050470550999991997071806004+39183+127433FM-12+003699999V0200501N00101220001CN0150001N1+03101+02171100891ADDAG10000GF102991021011012501001001MD1710191+9999
0178032040999991997081218004+54083-004633SY-MT+0017EGNS V0201901N00101018001CN0200001N1+01971+01461102211ADDAA106000091AG14000GA1061+018009059GF107991061051017501031999KA1120M+02151MA1102201999999MD1710061+9999REMSYN023 333 10215 86656 83362;MET016NEW CAVOK NOSIG;EQDQ01+000000PRSWM2
0104814050999991997052805004+04833-052367FM-15+0009SOCA V0209999999999999999CN9999999N9+99999+99999999999ADDAG10999REMMET050NEW 280500Z /////KT 8000 FEW001 23/23 Q1012 NOSIG;EQDQ01+000002VOVAR Q02+000000PRSWM2
0029949770999991997102508004-42283+146267FM-12+066699999V0200901N002619999999N9999999N9+01271+00821999999ADDAG10999EQDQ01+000002VOVAR 
0143128510999991997111512004+47867+020017FM-12+101599999V0203501N00301003901CN0700001N1+00001-00011999999ADDAA106999929AG10001AY171061AY241061GA1051+003909059GF106991051051004501071021MA1999999089781MD1110061+9999ME1207769MW1011REMSYN011 333 85613;
0087726700999991997072302354+44517-109017FM-15+1553KCOD V0209999C00001220001CN0160931N1+02401+00801999999ADDAG11000GF100991999999999999999999MA1101761999999REMMET008NEW AO1;EQDQ01+000000PRSWM2
0075112550999991997072909004+46683+013000FM-12+070799999V0201201N001019999999N9999999N9+01951+01481101921ADDAA106000091AG14000MA1999999093911REMSYN011 333 55310;EQDQ01+000002VOVAR 
0120108280999991997060923004+48100+009250FM-12+064699999V0200401N00051220001CN9999999N9+01361+00961102241ADDAG12999GA1021+075009009GF102991001001999999001011MA1999999094751MD1310011+9999REMSYN011 333 82075;EQDQ01+000002VOVAR 
0181471040999991997122207004+37883+127717FM-15+0075RKNC V0203001N001510300019N0112651N1+01001+00101102731ADDAG10999GA1021+000159999GA2021+018009999GA3021+030009999GA4071+060009999GF107991999999999999999999MA1102741999999MW1041OC100571REMMET043NEW SLP273 ESTMD SLP FU FEW000 8/172 9/115;
0087725976999991997080516354+42167-120400FM-15+1441KLKV V0200101N00361220001CN0160931N1+02401+01101999999ADDAG11999GF100991999999999999999999MA1102641999999REMMET008NEW AO1;EQDQ01+000000PRSWM2
0119423280999991997060809004+26900+070917FM-12+023199999V0202001N00671220001CN0020001N1+03821+01651100321ADDAA106000091AG10000AY101031AY201031GA1001+999999999GF100991001001999999001001MD1999999-0021MW1071REMSYN011 333 59002;
0071727928999991997031422009+47483-122750NSRDB+013799999V020999999999999999999999999999+99999+99999999999ADDGP10060063401028090401031008001028GQ100600521920239GR100600849913839
0135166270999991997092122504+40850+025917FM-15+0003LGAL V0200301N00211220001CN0112651N1+01201+00301102661ADDAG11999GA1021+009009999GF104991999999999999999999MA1102611102621REMMET008NEW NOSIEQDQ01+999990APOSP Q02+999990APOSLPQ03+000000PRSWM2
0164780160136011997030612004+32367-064683FM-12+0003TXKF V0202201N00671220001CN0110001N1+02051+01911101991ADDAA106000091AA224002091AG10000GF101991011081004501001001KA1240M+02141KA2120N+01831MA1102001101931MD1710031+9999REMSYN023 333 10214 20183 70018;EQDQ01+999990APOA  
0036154020999991997032701004+44717+026633FM-12+006299999V0209991C00001036001CN0100001N1-00271+99999999999ADDAG12999GF108991081001999999071999
0050032300999991997032423004+55283-002283FM-12+020799999V0202901N003619999999N0270001N1+00361+00091101271ADDAG12999MD1210141+9999REMSYN017 555 7/095 85/61;
0183076670999991997120809004+43100+006150SY-MT+0004LFTH V0203201N00311069001CN0180001N1+00901+00561101601ADDAA106000091AG10000GA1021+008409999GA2071+069009999GF199999031051008001031011MA1101491101551MD1310101+9999REMSYN017 333 83628 85073;MET008NEW NOSIEQDQ01+000062SCOTCVQ02+000000PRSWM2
0178062650999991997021119004+52133+005267SY-MT+0013EHSB V0202001N00261036001CN0150001N1+00641+00271101391ADDAG11999GA1021+007509999GA2071+036009999GF107991071001999999071021MA1101291999999MD1610211+9999REMSYN011 333 87362;MET020NEW BLU BLU BECMG WHEQDQ01+000992SCOLCBQ02+000000PRSWM2
0112722484999991997111203534+32533-093750FM-15+0055KDTN V0200801N001510015019N0080461N1+00901+00901101861ADDAG11999GA1081+001501999GF108991999999999999999999MA1101861999999MW1101REMMET030NEW AO2 SLP186 T00940089 TSNO;
0133723677230541997052014194+35650-105150FM-16+2095KLVS V0209999V002610015019N0096561N1+99999+99999999999ADDAG10999GA1081+001501999GF108991999999999999999999MA1102131999999MW1101REMMET032NEW BINOVC HIR CLDS VIS CIG RGD;EQDQ01+000410PRSWM3
0069627210999991997072319004+15600+032550FM-15+0380HSSS V0201801N00571999991CY0099001N1+03301+01801999999ADDAG10999MA1100911999999REMMET016NEW CAVOK NOSIG;EQDQ01+000000PRSWM2
0071726394999991997073119009+46317-085467NSRDB+026599999V020999999999999999999999999999+99999+99999999999ADDGP10060067801028035401031037001028GQ100600297920039GR100601152913269
0111011610999991997052717504+68250+014667FM-15+0009ENSH V0203001N00461220001CN0112651N1+00601+00101999999ADDAA106000091AG10000GA1021+010509999GF104991999999999999999999MA1102201999999REMMET005NEW ;EQDQ01+000000PRSWM2
0121937800999991997012223004-43483+172550FM-15+0034NZCH V0202001N002610099019N0300001N1+01301+00601999999ADDAG10999GA1071+009909999GF107991999999999999999999MA1102811999999REMMET026NEW BECMG FM0000 05015KT ;EQDQ01+000000PRSWM2
0095315380999991997010500004+50067+132133FM-12+034999999V0209991C00001220001CN0500001N1-03131+99999103831ADDAA106000091AG14000GF103991001001999999001999MA1999999099941MD1210151+9999EQDQ01+000952SCOLCB
0138746710138061997120402184+36667-087500FM-16+0174KHOP V0202701N00361007501CN0080461N1+01101+00801999999ADDAG10999GA1021+004501999GA2071+007501999GA3081+010501999GF108991999999999999999999MA1101081999999MW1511REMMET005NEW ;EQDQ01+000100PRSWM3
0167071900999991997110709304+48550+007633FM-15+0154LFST V0202201N008210180019N0112651N1+01201+00801099951ADDAG10999GA1021+010809999GA2021+012009999GA3071+018009999GF107991999999999999999999MA1099901098141REMMET008NEW NOSIEQDQ01+999990APOSP Q02+999990APOSLPQ03+000000PRSWM2
0087725475999991997021521454+42233-091167FM-15+0259KMXO V0201401N00311220001CN0160931N1-00701-01401999999ADDAG11999GF100991999999999999999999MA1102271999999REMMET008NEW AO1;EQDQ01+000000PRSWM2
0169471330999991997070923574+36300+127400FM-16+0078RKTF V0209991C000019999999N0020001N1+02201+02101100991ADDAG10999GA1021+000159999GA2021+060009999GF104991999999999999999999MA1100951100181MW1101REMMET020NEW CIG200/ QFF1009PEQDQ01+999990APOSP Q02+999990APOSLPQ03 060003SCOCIG
0143942870999991997081100004-16883+145750FM-15+0007YBCS V0201501N00361220001CN0112651N1+02401+01701102241ADDAA106000091AG10000GA1021+007509089MA1102201102151REMMET031NEW REMARKS RF00.0/000.0 NOSIG;EQDQ01+999990APOSP Q02+999990APOSLPQ03+000000PRSWM2
042672308013737199704231851C+36900-076200FM-15+0007ORF  V0200605N01085001835MN0024005N1+00785+00785099905ADDAA101001395AG10999GA1071+001801999GA2081+003301999GD13995+0018359GD24995+0033559GF108991999999999999999999MA1099905099801MW1101MW2455MW3615OC101391REMMET075NEW AO2 PK WND 06027/1849 SFC VIS 2 1/2 CIG 005V009 SLP990 P0005 T00780078;EQDQ01+999990APOSP N01 02070JPWTH 0QNNAA1D0 04006BA1 0 04006AA1D0 06011BA1 0 06011GA1 0 00006KA1D0 00046JA1 0 00078LA1 0 00150CA1 0 02950NA1 0 02070QA1 0 09990SA1D0 00046RA1 0 00078YA1 0 06021
0054725054999991997121909009+41917-071500NSRDB+013499999V020999999999999999999999999999+99999+99999999999ADDGP10060000001000000001000000001000GR100600000900009
0098130670999991997061921004+46100+019767FM-12+010599999V0200501N00301012001CN0100001N1+01741+01601100781ADDAA106000091AG14006AY191031AY261031GF108991081051012501999999MA1999999099551MD1810161+9999MW1291
0109725342999991997073118534+38767-087600FM-15+0131KLWV V0200601N00461220001CN0160931N1+02901+01301102521ADDAG11999GF100991999999999999999999MA1102541999999REMMET030NEW AO2 SLP252 T02940128 TSNO;EQDQ01+000000PRSWM2
0118723625930571997111515534+35167-107900FM-16+1987KGNT V0201401N00261999999CN9999999N9+99999+99999102321ADDAG11999MA1102171999999REMMET049NEW AO2 SLP232 P0001 T10501061 PWINO FZRANO TSNO;EQDQ01+000002VOVAR Q02+000000PRSWM2
0110715010999991997120712004+69567-138917FM-12+0001CWJN V0203201N002619999999N9999999N9-01531-01571100011ADDAG12000KA1240M-01091KA2999N-01571MA1999999099991MD1310051+9999REMSYN017 333 11109 21157;EQDQ01+000002VOVAR 
0163999999999991997031200004+39600+169800FM-13+9999ELJP V0201901N01341036001CN0200001N1+01301+00701101671ADDAG10000AY111061AY211061GF106991041021008001041011MD1110061+9999MW1011SA1+1009UA1M040109999UG1080203009UG2999991909REMSYN037 22224 00100 20402 33019 40804 50503;
0108060240999991997032809504+57067+008700FM-15+0007EKTS V0202901N01541220001CN0112651N1+00601+00201999999ADDAG12999GA1021+006609999GF102991999999999999999999MA1099391999999OC102471REMMET005NEW ;EQDQ01+000000PRSWM2
0181118160999991997122209004+48200+017200SY-MT+0133LZIB V0202901N00601003001CN0070001N1+00371+00371101311ADDAG11000AY121031AY221031GA1021+001809999GA2071+003009999GA3081+006009999GF108991081051001501999999MA1101191099671MD1210131+9999MW1101REMSYN023 333 82706 85626 88643;MET008NEW NOSI
0164025120999991997091204204+57783+011883FM-15+0053ESGP V0201401N005710240019N0112651N1+01401+01301099951ADDAG11999GA1021+007509999GA2021+015009999GA3071+024009999GF107991999999999999999999MA1099901099711REMMET005NEW ;EQDQ01+999990APOSP Q02+999990APOSLPQ03+000000PRSWM2
0175170240999991997060412004+41983+033783FM-12+006499999V0203101N00211009001CN0030001N1+01531+01461101451ADDAA106999929AG10004AY191061AY221061GA1021+007509099GA2051+009009089GA3071+024009039GF107991061091008001071001MD1210131+9999MW1801REMSYN035 333 82925 85830 87358 92405 96010;
0063999999999991997041206064-12200+106917FM-18+9999DRIB V02099999999999999999N9999999N9+99999+99999999999ADDAG10999MW1001SA1+2889REMSYN01153522     ]EQDQ01+000002VOVAR 
0084725376148531997101915504+42233-083533FM-15+0218KYIP V0202301N00411220001CN0321861N1+01401+00001999999ADDAG11999GF100991999999999999999999MA1101731999999REMMET005NEW ;EQDQ01+000000PRSWM2
0113999999999991997020100004+16700-141000FM-13+9999V7AM V0200801N00931220001CN0100001N1+02801+02601101601ADDAG10000GF104991031031008001999999MD1510301+9999UA1M040109999UG1060251409REMSYN029 22274 20402 314// 40605 ICE;
0087727924242231997120422354+46117-122900FM-15+0005KKLS V0209999C00001220001CN0160931N1+00801+00101999999ADDAG11999GF100991999999999999999999MA1101631999999REMMET008NEW AO1;EQDQ01+000000PRSWM2
0058478290999991997041915004+31733+131083FM-12+015599999V0200201N001019999999N9999999N9+01141+00521102241ADDAG10000MA1999999100371MD1110061+9999EQDQ01+000002VOVAR 
0071726440149251997111014009+43900-092500NSRDB+039899999V020999999999999999999999999999+99999+99999999999ADDGP10060001501024000001027001501024GQ100600855911919GR100600108913839
0140226710999991997032103004+63983+044450FM-12+006099999V0209991C00001220001CN0200001N1-01221-01281101761ADDAA112999929AG12000AJ100809199999999GF105991021011022501001011GJ102769IA1249MD1210101+9999REMSYN039 333 48080 55046 555 21173 69902 7990/;
0087722284999991997071108344+32617-085433FM-15+0236KAUO V0200201N00211220001CN0128741N1+02201+02101999999ADDAG11000GF100991999999999999999999MA1101861999999REMMET008NEW AO1;EQDQ01+000000PRSWM2
0087726865999991997030122354+45117-113883FM-15+1233KSMN V0201601N00411220001CN0160931N1+00101-00601999999ADDAG11999GF100991999999999999999999MA1100851999999REMMET008NEW AO1;EQDQ01+000000PRSWM2
0071744904999991997040712009+42717-071117NSRDB+004699999V020999999999999999999999999999+99999+99999999999ADDGP10060004601024000001027004601024GQ100600773909239GR100600300913649
0128475160999991997102408004+41233+141133FM-15+0010RJSO V0202601N002610600019N0112651N1+01301+00701999999ADDAG11999GA1021+036009999GA2071+060009999GF107991999999999999999999MA1101291999999REMMET017NEW 1AC120 A2992;EQDQ01+000000PRSWM2
0085475870999991997120606004+38900+139850FM-12+000499999V0201201N003119999999N0400001N1+01041+00431102811ADDAG10000GF107991011021999999001011MA1999999102761MD1610251+9999REMSYN011 555 00122;
0125724515230641997081212544+37933-100717FM-15+0881KGCK V0200101N002610012019N0160931N1+01601+01501101981ADDAG11999GA1081+001201999GF108991999999999999999999MA1102171999999REMMET030NEW AO2 SLP198 T01560150 TSNO;EQDQ01+000000PRSWM2
0286785263116411997072402003+18450-066000FM-15+0003TJSJ V0200805N00315220005MN0160005N1+02725+02445101895ADDAG10999GA1021+011109999GD11995+0112859GF102991999999999999999999MA1101905999999REMMET025NEW AO2 SLP189 T02720244;EQDQ01+000000PRSWM2N01 00000JPWTH 0QNNAA1D0 02037BA1 0 01037GA1U0 99999KA1D0 00076JA1 0 00244LA1 0 01000CA1 0 03009NA1 0 00000QA1 0 10189SA1D0 00081RA1 0 00272YA1 0 08006
0119039240999991997040621504+54600-005883FM-15+0005EGAC V0200501N002110105019N0112651N1+01101+00901999999ADDAG11999GA1021+001509999GA2021+004509999GA3071+010509999GF107991999999999999999999MA1102811999999MW1511REMMET005NEW ;
0110042010999991997051218004+77467-069217FM-12+001999999V0202301N001019999999N9999999N9-00661-00781102791ADDAG12000KA1120M-00521KA2999N-01051MA1999999102541MD1410001+9999REMSYN017 333 11052 21105;EQDQ01+000002VOVAR 
0054725626240911997021106009+40517-101617NSRDB+099899999V020999999999999999999999999999+99999+99999999999ADDGP10060000001000000001000000001000GR100600000900009
0071723445939931997070421009+36000-094167NSRDB+038199999V020999999999999999999999999999+99999+99999999999ADDGP10060079901010068001016021601010GQ100600308925339GR100601133913219
0198722686230081997081305003+34383-103317FM-15+1309KCVS V0201001N00461007501CN0112651N1+02201+02101101911ADDAG11999GA1071+007501999GA2071+012001999GA3071+036001999GF107991999999999999999999GP10060000001000000001000000001000GR100600000900009MA1102541999999REMMET020NEW SLP191 8/370 9/6EQDQ01+000000PRSWM2
0070726710999991997071508484+42567-110100FM-16+2124KBPI V0200301N00051999999CN0070001N1+99999+99999999999ADDAG11000REMMET032NEW AO1 /PK WND 05 000 T00671005EQDQ01+000000PRSWM2
0145061700999991997111321004+55583+012133SY-MT+0044EKRK V0202701N00511001501CN0030001N1+00591+00541100551ADDAA106000091AG12000AY111031AY211031GA1081+001509999GF108991081061001501999999MA1100511100031MD1210201+9999MW1101REMSYN011 333 88705;MET005NEW ;
0103724467139301997042309534+38733-093550FM-16+0265KSZL V0200501N00261006001CN0064371N1+00701+00601999999ADDAG10000GA1071+006009999GA2081+012009999GF108991999999999999999999MA1100981999999MW1101REMMET005NEW ;
0159696790999991997081512004+43517+018183FM-15+0047KQUA V0203401N00211220001CN0112651N1+02601+01201101651ADDAA106000091AG12000GA1021+013509999GA2021+075009999GF104991999999999999999999MA1101901096181REMMET005NEW ;EQDQ01+999990APOSP Q02+999990APOSLPQ03+000000PRSWM2
0061603900999991997030215304+36717+003250FM-15+0025DAAG V0203601N00511999991CY0099001N1+01901+00501999999ADDAG10999MA1102811999999REMMET008NEW CAVOEQDQ01+000000PRSWM2
0054702648999991997092215009+63400-148950NSRDB+066899999V020999999999999999999999999999+99999+99999999999ADDGP10060000001000000001000000001000GR100600000900009
0129726499999991997072204244+43400-094750FM-15+0401KEST V0200401N00261004801CN0040231N1+02101+02101999999ADDAG11999GA1071+004801999GA2081+008401999GF108991999999999999999999MA1101831999999MW1101MW2651REMMET025NEW AO2 RAB01 TSNO PNO $;
0084723106137441997040221504+34183-079717FM-15+0045KFLO V0202501N00411220001CN0321861N1+02101-00401999999ADDAG10999GF100991999999999999999999MA1102371999999REMMET005NEW ;EQDQ01+000000PRSWM2
0106966850999991997060803004-03433+114750FM-12+0020WRBB V0200701N00311045001CN0100001N1+03131+02261101471ADDAA106000091AA224999929AG10000GA1031+005409089GF106991031021004501011011REMSYN023 333 56200 79999 83818;
0063999999999991997041413114+36467-176583FM-18+9999DRIB V02099999999999999999N9999999N9+99999+99999999999ADDAG10999MW1001SA1+1289REMSYN01121926     ]EQDQ01+000002VOVAR 
0087723069999991997091321144+34833-077617FM-15+0029KOAJ V0200401N00311220001CN0160931N1+02801+01801999999ADDAG10000GF100991999999999999999999MA1101691999999REMMET008NEW AO1;EQDQ01+000000PRSWM2
0097605150999991997082512004+35333+004200FM-12+0461DAAD V0200901N00511009001CN0100001N1+02661+01801101671ADDAA106000091AG10000GA1051+009009089GF105991051021008001001001MD1810061+9999REMSYN011 333 85830;
0058478180999991997022208004+32733+130267FM-12+067999999V0203601N003119999999N9999999N9+00321-00641102791ADDAG10999MA1999999094591MD1510001+9999EQDQ01+000002VOVAR 
0125983290999991997040106004+15717+120900FM-12+007699999V0200901N01001220001CN0250001N1+03121+02371101091ADDAA106000091AG10000AY141061AY241061GA1011+005409089GF101991011021004501001001MD1710251+9999MW1051REMSYN017 333 56999 81818;
0040956780999991997073117004-34967+138700FM-12+073099999V0200901N003619999999N9999999N9+00381+00381999999ADDAA106000091AG10999EQDQ01+000002VOVAR 
0050033910999991997020117004+53083-000167FM-12+0007EGXC V0201401N004119999999N0060001N1+00331+00121102781ADDAG12999MD1710151+9999REMSYN017 555 7/098 88/25;
0125128220999991997102206004+47700+017683FM-12+011699999V0209991C00001036001CN0060001N1+00021-00201102091ADDAA106000091AA224999929AG14000GF107991071001999999071999GJ101509KA1120N-00361MD1210011+9999REMSYN023 333 21036 55025 79999;
0175022590999991997082617504+63050+017767FM-15+0019ESNK V0201701N004110180019N0112651N1+02101+01701100851ADDAA106000091AG10000GA1021+009009999GA2021+013509999GA3071+018009999GF107991999999999999999999MA1100811100731REMMET005NEW ;EQDQ01+999990APOSP Q02+999990APOSLPQ03+000000PRSWM2
012072584523225199704150452D+39283-120717FM-15+1611KBLU V0200701N00311220001CN0160931N1+01001-00101101691ADDAA101000095AG10999GF100991999999999999999999MA1102071999999REMMET030NEW AO2 SLP169 T01001006 TSNO;EQDQ01+000000PRSWM2
0203038580999991997070216004+50567-002450SY-MT+0003EGDP V0202301N00621010501CN0250001N1+01311+01091100511ADDAG12999AY151011AY221011GA1021+003009999GA2021+006009999GA3071+010509999GF108991061081004501021999MA1100511999999MD1710031+9999MW1161REMSYN023 333 81710 84820 85635;MET030NEW WHT TEMPO SCT014 SHRA GRN;
0055999999999991997022306004-40133+037450FM-18+9999DRIB V02099999999999999999N9999999N9+99999+99999999999ADDAG10999MW1001REMSYN01115904     ]EQDQ01+000002VOVAR 
0036154630999991997093005004+00000+999999FM-12+004999999V0209991C00001036001CN0100001N1+01021+99999999999ADDAG10999GF107991071001999999071001
0175725395148331997122105474+42267-084467FM-15+0305KJXN V0203401N003110060019N0241401N1-00201-00601102651ADDAA106000091AG11000GA1081+006001999GF108991999999999999999999KA1999M+00081KA2999N-00181MA1102471999999MD1410001+9999REMMET029NEW SLP265 10008 21018 54000;EQDQ01+000000PRSWM2
0054704540257041997022408009+51883-176650NSRDB+000599999V020999999999999999999999999999+99999+99999999999ADDGP10060000001000000001000000001000GR100600000900009
0071723745931391997121401009+34233-111333NSRDB+149899999V020999999999999999999999999999+99999+99999999999ADDGP10060000301028004901031000201028GQ100600888924099GR100600007903659
0156061100999991997040518504+55233+009267FM-15+0040EKSP V0200501N00871002401CN0112651N1+00201+00101099861ADDAG12999GA1071+002409999GA2071+003009999GF107991999999999999999999MA1099801099281OC101441REMMET005NEW ;EQDQ01+999990APOSP Q02+999990APOSLPQ03+000000PRSWM2
0101067620999991997012521004+46167+008883FM-12+019899999V0201001N00051220001CN0200001N1+00281+00241103021ADDAG12000GA1031+030009039GF103991031001999999041011MA1999999100541MD1210101+9999REMSYN011 333 83360;
0071702035999991997061615009+63683-170500NSRDB+001799999V020999999999999999999999999999+99999+99999999999ADDGP10060004201028027001031002001028GQ100600854904229GR100600107913249
0071724795999991997110617009+39333-112583NSRDB+141499999V020999999999999999999999999999+99999+99999999999ADDGP10060038401028091501031003301028GQ100600674913709GR100600534913929
0111010880999991997072817504+70067+029850FM-15+0039ENVD V0200501N00461220001CN0112651N1+01301+00801999999ADDAA106000091AG11000GA1021+013509999GF104991999999999999999999MA1100911999999REMMET005NEW ;EQDQ01+000000PRSWM2
0072837753999991997120406004-23433-046467FM-15+0750SBGR V0200701N00261999991CY0099001N1+02201+02201999999ADDAA106000091AG10000MA1101021999999REMMET008NEW CAVOEQDQ01+000000PRSWM2
0059916110999991997101715004-01350+172933FM-12+999999999V0203001N004019999999N9999999N9+02781+99999101041ADDAG10000SA1+2949REMSYN013 22200 00294;EQDQ01+000002VOVAR 
0116010460999991997072115504+69783+020967FM-15+0006ENSR V0203401N001510105019N0112651N1+01401+01101999999ADDAG11999GA1021+007509999GA2071+010509999GF107991999999999999999999MA1102711999999REMMET005NEW ;EQDQ01+000000PRSWM2
0364727450149131997091604003+46833-092217FM-15+0433DLH  V0201105N00725001835MN0160005N1+01335+01225101665ADDAA101000095AG11999GA1081+001801999GD14995+0018359GF108991999999999999999999GP10060000001000000001000000001000GR100600000900009MA1101635096531REMMET025NEW AO2 SLP166 T01330122;EQDQ01+999990APOSP Q02+000000PRSWM2N01 00000JPWTH 0QNNAA1D0 06006BA1 0 06006GA1 0 00006KA1D0 00054JA1 0 00122LA1 0 01000CA1 0 03001NA1 0 00000QA1 0 10166SA1D0 00056RA1 0 00133YA1 0 11014
0095029800999991997070106004+59967+019967FM-12+001099999V0201401N007719999999N9999999N9+01831+01731100891ADDAG12000KA1120M+01951KA2999N+01721MD1710011+9999REMSYN017 333 10195 20172;EQDQ01+000002VOVAR 
0113333470999991997090601304+50333+030967FM-15+0119UKBB V0200701N00101220001CN0060001N1+00501+00501999999ADDAG11999GA1021+015009999GF104991999999999999999999MA1102811999999REMMET018NEW BECMG 3000 BR;EQDQ01+000000PRSWM2
0120030920999991997092903004+57500-001767FM-12+000599999V0202101N00621030001CN0150001N1+01491+01351100611ADDAG12000AY121031AY221031GA1081+030009039GF108991081001999999071999MD1310101+9999MW1051REMSYN023 333 88360 90710 91129;
0071727645240121997062615009+46800-102800NSRDB+078899999V020999999999999999999999999999+99999+99999999999ADDGP10060051401011077901016009001011GQ100600570909019GR100600719913229
0131727826241411997102901504+47300-119517FM-15+0388KEPH V0202701N00211021001CN0321861N1+00901+00501100991ADDAG11999GA1071+021001999GA2081+030001999GF108991999999999999999999MA1100951999999REMMET020NEW SLP099 T00870047EQDQ01+000000PRSWM2
0093724520039571997041604484+37300-098583FM-16+0468KP28 V0200301N00771999999CN9999999N9+99999+99999999999ADDAG11999REMMET039NEW 6 RMK AO1 /PK WND 24 000 T01280062;EQDQ01+000002VOVAR Q02+000000PRSWM2
0123711940999991997060906004+47617-057617FM-12+001299999V0203201N000519999999N9999999N9+00331+00171101961ADDAA106000091AA224000091AG14000KA1240M+01081KA2240N+00211MD1610061+9999REMSYN023 333 10108 20021 70000;EQDQ01+000002VOVAR 
0139235520999991997021415004+64917+077817FM-12+002799999V0202901N00201030001CN0040001N1-01181-01311099791ADDAG12001AY171031AY271031GF108991081001999999021999KA1999M-01001MA1999999099441MD1210071+9999MW1711REMSYN011 333 11100;EQDQ01+999990APOSP 
0110719493999991997101815004+62200-133367FM-15+0717CZFA V0203001N00361220001CN0482801N1-01501-01701102621ADDAG11000GA1021+036009999GF102991999999999999999999MA1102001999999REMMET015NEW AC1 SLP262;EQDQ01+000000PRSWM2
0087941490999991997020420004-13833+136417FM-12+002699999V0203601N00151220001CN0500001N1+02721+02551100611ADDAG10999AY101999AY201999GF103991011011004501001051MA1999999100371MD1310081+9999MW1021
0087726884241481997061615344+45283-118000FM-15+0827KLGD V0202601N00361220001CN0160931N1+02001+01001999999ADDAG11999GF100991999999999999999999MA1101691999999REMMET008NEW AO1;EQDQ01+000000PRSWM2
0127723013137481997011009244+34267-077900FM-16+0010KILM V0202601N006210090019N0160931N1+00701+00401999999ADDAG10000GA1021+007801999GA2071+009001999GF107991999999999999999999MA1100341999999OC101031REMMET008NEW AO2;EQDQ01+000000PRSWM2
0044897440999991997031919004-74017+039700FM-12+335399999V0202701N003619999999N9999999N9-04691+99999999999ADDAG10999MA1999999063761EQDQ01+000002VOVAR 
0069073140999991997110600004+46033-001417FM-12+002299999V0202201N003119999999N9999999N9+01401+01191099301ADDAA106000591AG10000MA1999999099031MD1710151+9999EQDQ01+000002VOVAR 
0267787200999991997060100004+14050-087217SY-MT+0994MHTG V0201801N00411045001CN0120001N1+02651+02101100731ADDAA106000091AA224003191AG10001AY141061AY241061GA1021+009609099GA2021+027009999GF107991041091008001071031IA1019KA1120M+03101KA2180N+01901MA1101291089941MD1510071-0111MW1171REMSYN059 333 06400 10310 20190 30/// 59011 70031 81832 83932 83459;MET020NEW CB TDS TS PCPN N
0078153450999991997042307004+45033+024533FM-12+054899999V0209991C00001004201CN0002001N1+00411+99999999999ADDAG12999AY151011AY241011GF108991081061004501999999MW1511REMSYN011 333 96044;
0095744994047411997061019454+42850-073933FM-15+0115KSCH V0203001N00931220001CN0160931N1+02901+01101999999ADDAG11999GF100991999999999999999999MA1101491999999OC101181REMMET008NEW AO1;EQDQ01+000000PRSWM2
0161467450999991997060110004+22783+120267FM-15+0010RCAY V0202001N00411220001CN0112651N1+03001+02301100611ADDAG10999GA1021+004809999GA2021+054009999GF104991999999999999999999MA1100611100491REMMET018NEW (A2972) NOSIG;EQDQ01+999990APOSP Q02+999990APOSLPQ03+000000PRSWM2
0116025103999991997041011204+58317+012350FM-15+0041ESGT V0202501N00981220001CN0112651N1+00901+00501999999ADDAG11999GA1021+004509999GA2021+030009999GF104991999999999999999999MA1101081999999REMMET005NEW ;EQDQ01+000000PRSWM2
0233725377148041997080700003+42617-082833FM-15+0177KMTC V0201601N00311220001CN0160931N1+02101+01301102081ADDAA106000091AG11000GA1021+015001999GA2021+024001999GF104991999999999999999999GP10060008001011004901017006901011GQ100600776928119GR100600286913289MA1102101999999MD1410001+9999REMMET029NEW SLP208 8/570 9/220 54000;EQDQ01+000000PRSWM2
0101836120999991997070309004-20467-054667SY-MT+0556SBCG V0203401N00411220001CN0200001N1+01801+01431101291ADDAG10000GF100991001001999999001001MA1101491095081MD1310031+9999REMMET008NEW CAVOEQDQ01+000000PRSWM2
0127722598999991997091917474+32967-096833FM-15+0196KADS V0201401N00411220001CN0160931N1+03301+02001999999ADDAA106000091AG11000GA1021+015001999GA2021+075001999GF104991999999999999999999MA1101491999999REMMET005NEW ;EQDQ01+000000PRSWM2
0054742300240371997103003009+46433-105883NSRDB+080199999V020999999999999999999999999999+99999+99999999999ADDGP10060000001000000001000000001000GR100600000900009
0129766133999991997080406004+20517-103317FM-15+1528MMGL V0209991C00001220001CN0096561N1+99999+99999999999ADDAA106000091AG10000GA1021+000159999GF104991999999999999999999REMMET038NEW -90 19/17 A3015 RMK 03090 109 900;EQDQ01+000000PRSWM2
0104724125999991997072500009+37300-081200NSRDB+087199999V020999999999999999999999999999+99999+99999999999ADDGM1006001011190096109007110999999GP10060007301011003301016006601011GQ100600778928579GR100600278913249
0094285860999991997080818004+55867+072200FM-12+012099999V0209991C00001220001CN0200001N1+01501+01261100151ADDAA106000091AG14000GF103991031021012501001001KA1999M+02501MD1210021+9999REMSYN011 333 10250;
0071724635230671997061017009+38050-103533NSRDB+128199999V020999999999999999999999999999+99999+99999999999ADDGP10060037001024007201027031001024GQ100600341910599GR100601096913259
0163710964999991997080613004+67550-064033FM-15+0006CYVM V0201901N00311024001CN0241401N1+00901+00201099701ADDAG11999GA1021+013509999GA2071+024009999GA3071+030009999GA4071+063009999GF107991999999999999999999MA1099701999999REMMET020NEW SC1AS4AC1CI1 SLPEQDQ01+000000PRSWM2
0054726650999991997091811009+44350-105533NSRDB+123099999V020999999999999999999999999999+99999+99999999999ADDGP10060000001000000001000000001000GR100600000900009
029372536094830199710190351C+41583-083800FM-15+0204TOL  V0209999C00005220005MN0064005N1+00285+00285101945ADDAA101000095AG11999GD10995+9999999GF100991999999999999999999MA1101905099381MW1101MW2455REMMET025NEW AO2 SLP194 T00280028;EQDQ01+999990APOSP N01 00070JPWTH 0QNNAA1D0 00000BA1 0 00000GA1U0 99999KA1D0 00037JA1 0 00028LA1 0 00400CA1 0 03009NA1 0 00070QA1 0 10194SA1D0 00037RA1 0 00028YA1 0 00000
0043913430999991997102821004+07633+155167FM-12+000399999V02099999999999999999N9999999N9+02911+99999100961ADDAG10000MD1110111+9999EQDQ01+000002VOVAR 
0100724917232331997052206454+36667-121600FM-15+0026KSNS V0200101N004110750019N0482801N1+01401+00401999999ADDAG10999GA1071+075001999GF107991999999999999999999MA1101491999999REMMET005NEW ;EQDQ01+000000PRSWM2
0100722448999991997081319474+32350-095400FM-15+0166KTYR V0201801N00311220001CN0193121N1+03401+02301999999ADDAG11999GA1021+012001999GF104991999999999999999999MA1101761999999REMMET005NEW ;EQDQ01+000000PRSWM2
0055999999999991997011706004+31233-135317FM-18+9999DRIB V02099999999999999999N9999999N9+99999+99999101601ADDAG10999MW1001REMSYN01146622     ]EQDQ01+000002VOVAR 
0084510760999991997112003004+47733+088083FM-12+073799999V0209991C00001090001CN0300001N1-00741-01251102811ADDAG12000GF107991021001017501031021MA1999999093571MD1210061+9999EQDQ01+999990APOSP 
019872332093862199704172200E+34267-088767FM-15+0110TUP  V0203505N00775220005MN016000599+01445-00225101885ADDAA101000095GD10995+9999999MA1101905999999EQDN01 00000JPWTH 0QNNAA1D0 00000BA1 0 00000GA1U0 99999KA1D0 00028JA1 0-00022LA1 0 01000CA1 0 03009NA1 0 00000QA1 0 10188SA1D0 00058RA1 0 00144YA1 0 35015
0081719460999991997072315004+61750-121233FM-12+0169CYFS V0201201N001519999999N0090001N1+01701+01701099631ADDAA106000091AG14000GF108991999999001501999999MA1099591097601EQDQ01+999990APOA  
0150983360999991997061412004+16283+122117FM-12+000499999V0209991C00001220001CN0250001N1+02841+02581100941ADDAA106000091AG10000AY111061AY211061GA1011+005409099GF102991011091008001071011KA1240M+03321MD1310221-0081MW1131REMSYN029 333 10332 56999 59008 81918;
0058994090999991997071002004+48217-088367FM-12+0195PILM V0202501N003119999999N9999999N9+01321+99999102171ADDAG12999MA1999999099611MD1210031+9999EQDQ01+000002VOVAR 
0138725486999991997101202053+42050-093850FM-15+0354KBNW V0201601N00721220001CN0160931N1+02201+01601999999ADDAG11999GF100991999999999999999999GP10060000001000000001000000001000GR100600000900009MA1101021999999REMMET008NEW AO1;EQDQ01+000000PRSWM2
0071723417939881997021700009+34167-091933NSRDB+006399999V020999999999999999999999999999+99999+99999999999ADDGP10060003601010023401016001701010GQ100600853925219GR100600099912039
0103726466999991997042007354+99999+999999FM-15+9999KAQP V0203601N003110240019N0160931N1+00501+00401999999ADDAG10999GA1081+024009999GF108991999999999999999999MA1100981999999REMMET008NEW AO2;EQDQ01+000000PRSWM2
0132723434999991997080516454+36183-094117FM-15+0412KASG V0200601N006210600019N0160931N1+02801+99999999999ADDAG11999GA1021+012001999GA2021+036001999GA3071+060001999GF107991999999999999999999MA1102101999999REMMET005NEW ;EQDQ01+000000PRSWM2
0132789480999991997033009004+13750-060950FM-15+0003TLPL V0200801N00461220001CN0112651N1+02501+02101101441ADDAG10000GA1021+006009999GF104991999999999999999999MA1101391101361REMMET005NEW ;EQDQ01+999990APOSP Q02+999990APOSLPQ03+000000PRSWM2
0071722285999991997011621009+33967-086083NSRDB+017399999V020999999999999999999999999999+99999+99999999999ADDGP10060037901028076701031007001028GQ100600662921999GR100600570914149
0096385650999991997080321004+40550+065683FM-12+050199999V0209991C00001220001CN9999999N9+01891+01061100721ADDAA106000091AG14000GA1001+999999999GF100991001001999999001001MD1810041+9999EQDQ01+000002VOVAR 
0074477660999991997102507004+34233+132550FM-12+001299999V0203101N005119999999N9999999N9+02081+00251101441ADDAG10999MA1101351101301MD1510051+9999EQDQ01+999990APOA  Q02+000002VOVAR 
0094505640999991997030506004+49433+127350FM-12+023599999V0202201N00901090001CN0200001N1-00441-00991101211ADDAA106000091AG14000GF107991001001999999001021KA1999N-02321MD1710261+9999REMSYN011 333 21232;
0135167260999991997112407504+37067+022017FM-15+0008LGKL V0201201N00261007501CN0080001N1+01601+01501999999ADDAG10999GA1021+004509999GA2071+007509999GA3081+024009999GF108991999999999999999999MA1100611999999REMMET008NEW NOSIEQDQ01+000000PRSWM2
0066547150999991997050821004+37333+116567FM-12+001999999V0202001N00301220001CN0200001N1+00851+00721101591ADDAG10000GA1001+999999999GF100991001001999999001001MD1710081+9999
0100722927999991997061222474+33133-117283FM-16+0100KCRQ V0202101N002610075019N0112651N1+99999+99999999999ADDAG10999GA1071+007501999GF107991999999999999999999MA1101321999999REMMET005NEW ;EQDQ01+000000PRSWM2
0111725155999991997012411504+42483-076450FM-15+0335KITH V0201601N003610600019N0112651N1-01101-01501999999ADDAA106000091AG11000GA1081+060001999GF108991999999999999999999MA1102911999999REMMET005NEW ;EQDQ01+000000PRSWM2
0071744860947891997061023009+40650-073800NSRDB+000599999V020999999999999999999999999999+99999+99999999999ADDGP10060024801010054001016006901010GQ100600706928439GR100600438913259
0142763930999991997072909003+25867-100200FM-12+051299999V0201301N00201220001CN0180001N1+02561+02111101131ADDAA106000091AG10000GA1011+004501081GF102991011021004501001041IA1019MA1999999095501MD1410001+0111REMSYN035 333 00305 30/// 58011 81815 81074;
0132103210999991997062907004+52583+008350FM-12+0043ETND V0203401N00101220001CN0200001N1+01651+01351100811ADDAG12999GA1031+030009039GF106991031001999999031011MA1100781100301MD1810131+9999REMSYN023 333 55302 83360 86075;EQDQ01+999990APOA  
0096488230999991997121809004+20433+106150FM-12+000399999V0202001N00501220001CN0200001N1+02701+02051101251ADDAA106000091AG10000GF102991021021004501001001MA1999999101211MD1999999-0181REMSYN011 333 59018;
051572526014860199708222054C+42083-080183FM-15+0222ERI  V0202705N00775005795MN0160005N1+01725+01395100845ADDAA101000025AA203000391AA306000391AG11000GA1071+005701999GA2071+006901999GA3081+009001999GD13995+0057959GD23995+0070159GD34995+0091459GF108991999999999999999999MA1100855098181MD1310141+9999OC101231REMMET077NEW AO2 PK WND 28026/2042 RAB13E20 SLP084 P0000 60001 T01720139 53014 TSNO $;EQDQ01+999990APOSP Q02+000000PRSWM2N01 00000JPWTH 0QNNAA1D0 04019BA1 0 04019AA1D0 04023BA1 0 04023AA1D0 06030BA1 0 06030GA1 0 00019KA1D0 00057JA1 0 00139LA1 0 01000CA1 0 02978NA1 0 00000QA1 0 10084SA1D0 00063RA1 0 00172YA1 0 27015
0148161500999991997021121004+00000+999999FM-12+005499999V0203601N003119999999N9999999N9+01171+00531102411ADDAG10000MA1999999101751MD1710011+9999REMSYN081 333 55063 555 10691 20111 43606 52201 63610 1/136 21110 31111 411// 51111 611/1;EQDQ01+000002VOVAR 
0071722596139611997060719009+32817-097367NSRDB+020999999V020999999999999999999999999999+99999+99999999999ADDGP10060029501011000001016029501011GQ100600107918199GR100601303913269
0099999999999991997100118004+21200-069400FM-13+9999WJBJ V0201201N00461220001CN0200001N1+02891+02401101381ADDAG10000GF103991031031004501051001MD1710181+9999SA1+3039UA1M029999999REMSYN019 22275 00303 20201;
0058992230999991997041406004+45300-082800FM-18+0003DB22 V0203101N007019999999N9999999N9+00081+99999101681ADDAG12000MA1999999099491MD1310181+9999EQDQ01+000002VOVAR 
0069173000999991997091523204+36700+030733FM-15+0057LTAI V0203201N00051999991CY0099001N1+02001+00601999999ADDAG10999MA1101081999999REMMET016NEW CAVOK NOSIG;EQDQ01+000000PRSWM2
0091948290999991997120102004-37633+142050FM-12+023499999V0203001N007719999999N9999999N9+01981+01211101351ADDAG10999KA1999N+00801MA1999999098521MD1410001+9999REMSYN011 333 20080;EQDQ01+000002VOVAR 
0094724645230701997033005144+37267-104333FM-15+1756KTAD V0202501N00461220001CN0160931N1-00301-00401102421ADDAG11999GF100991999999999999999999MA1102341999999REMMET015NEW AO1 SLP242;EQDQ01+000000PRSWM2
0075112800999991997092213004+47117+014183FM-12+081899999V0200801N003119999999N9999999N9+01791+01031101971ADDAA106000091AG14999MA1999999092811REMSYN011 333 55310;EQDQ01+000002VOVAR 
0071382670999991997120721004+42067+059400FM-12+007399999V0209991C00001220001CN9999999N9+00101+00021999999ADDAG12000GA1001+999999999GF100991001001999999001001EQDQ01+000002VOVAR 
0071703165999991997061404009+55317-160517NSRDB+000799999V020999999999999999999999999999+99999+99999999999ADDGP10060008101028000001031008101028GQ100600608926939GR100600645913249
0067165200999991997051303504+40633+008283FM-15+0023LIEA V0203601N00211999991CY0099001N1+99999+99999999999ADDAG11999REMMET029NEW CAVOK SCT090 14/11 Q1018;EQDQ01+000000PRSWM2
0077947140999991997050902004-34633+148017FM-12+031899999V0201801N005119999999N0500001N1+01351+00201999999ADDAG10999AY101999AY201999GF105991999021008001001001MW1031EQDQ01+000022SCOTLC
0175711030999991997082601004+53033-122517FM-15+0545CYQZ V0201501N00511021001CN0241401N1+02401+00901101021ADDAG11999GA1021+013509999GA2071+021009089GA3071+060009999GF107991999999999999999999MA1100981094631REMMET032NEW CU2TCU2CI1 VIRGA WND G18 SLPEQDQ01+999990APOSP Q02+000000PRSWM2
0119718730999991997071212004+52067-111450FM-12+0791CYCT V0202201N000519999999N0140001N1+00611+00571100961ADDAA106000091AA224000091AG14000KA1240M+02211KA2120N+00431MA1999999091701MD1210091+9999REMSYN023 333 10221 20043 70000;
0123576490999991997051800004+28267+109683FM-12+056099999V0202201N00201036001CN0100001N1+02001+01781100721ADDAA106000192AA224999999AG10000GF108991081001999999071999MD1210071-0401MW1601REMSYN017 333 05402 70001;EQDQ01  00002PRCP24
0183072800999991997013118004+47267+005083SY-MT+0227LFSD V0200501N00411002101CN0040001N1-00111-00241103261ADDAA106000091AG10000AY121061AY221061GA1081+002109999GF108991081061002501999999KA1999M-00091KA2999N-00131MA1103121100371MD1010001+9999MW1101REMSYN023 333 11009 21013 88707;MET005NEW ;
0092154500999991997030703004+44233+023867FM-12+0195LRCV V0200501N00201220001CN0100001N1+00221-00461102841ADDAA106000091AG14000GA1001+999999999GF100991001001999999001001MA1999999100391MD1410001+9999
0103171800999991997071712004+39067+026883FM-12+000399999V0202501N00621220001CN0200001N1+02601+01621101231ADDAA106000091AG10000GA1031+010809089GF103991031021012501001001MD1810031+9999REMSYN017 333 83836 92438;
031372205012815199708222153C+28433-081333FM-15+0029MCO  V0203405N00265220005MN0160005N1+03115+02005101245ADDAA101000095AG10999GA1021+014401999GD11995+0146359GF102991999999999999999999MA1101255100871REMMET025NEW AO2 SLP124 T03110200;EQDQ01+999990APOSP Q02+000000PRSWM2N01 00000JPWTH 0QNNAA1D0 02048BA1 0 01048GA1U0 99999KA1D0 00068JA1 0 00200LA1 0 01000CA1 0 02990NA1 0 00000QA1 0 10124SA1D0 00088RA1 0 00311YA1 0 34005
0195722976999991997022700003+33867-117983FM-15+0029KFUL V0201701N004610540019N0241401N1+01601+01001999999ADDAA106000091AG10000GA1021+012001999GA2081+054001999GF108991999999999999999999GP10060014101024000001027014101024GQ100600644923889GR100600601913959MA1100811999999REMMET005NEW ;EQDQ01+000000PRSWM2
0050569850999991997060703004+23383+103383FM-12+130299999V0201801N00401090001CN0300001N1+02831+01611100231ADDAG10000GF105991031011008001001021MD1210051+9999
0111152310999991997062900004+45967+023567FM-12+025399999V0209991C00001220001CN0120001N1+01642+01571999999ADDAA106000091AG14000GA1001+999999999GF100991001001999999001001MA1999999098601MD1410001+9999EQDQ01+028963ATOT  
0054727846241601997032407009+46100-118283NSRDB+035599999V020999999999999999999999999999+99999+99999999999ADDGP10060000001000000001000000001000GR100600000900009
0071747950128671997070501009+28233-080600NSRDB+000399999V020999999999999999999999999999+99999+99999999999ADDGP10060000301025001101028000301025GQ100600880929519GR100600016904739
0088037960999991997031122004+51133+001350FM-12+011799999V0200801N00511220001CN0005001N1+00751+00661103351ADDAG11999AY141011AY241011GA1001+999999999GF100991001001999999001001MD1710051+9999MW1441
0101142410999991997031421304+45733+016067FM-15+0107LDZA V0209991C00001999991CY0099001N1+00701+00301101751ADDAG11999MA1101691100431REMMET016NEW CAVOK NOSIG;EQDQ01+999990APOSP Q02+999990APOSLPQ03+000000PRSWM2
0098123750999991997010121304+52167+020967FM-15+0107EPWA V0209991C00001220001CN0080001N1-02001-02201999999ADDAG11999GF100991999999999999999999MA1102301999999REMMET019NEW NOSIG 1142//95;EQDQ01+000000PRSWM2
0050263390999991997122021004+57133+025917FM-12+018099999V0201001N00201220001CN0170001N1-00541-00681102091ADDAG12000GF102991001001999999001011MD1110151+9999
0154467403999991997121906004+22767+121083FM-15+0042RCFN V0201801N005710210019N0112651N1+02701+02101999999ADDAA106000091AG10000GA1021+003609999GA2021+008409999GA3071+021009999GF107991999999999999999999MA1101391999999REMMET016NEW A2996 NOSIG;EQDQ01+000000PRSWM2
0087725955242591997031804354+41783-122467FM-15+0807KSIY V0201701N00721220001CN0160931N1+01001+00001999999ADDAG11999GF100991999999999999999999MA1102401999999REMMET008NEW AO1;EQDQ01+000000PRSWM2
0103722057128541997013112544+28783-081233FM-15+0017KSFB V0203201N003610015019N0112651N1+00901+00701999999ADDAG10999GA1081+001501999GF108991999999999999999999MA1102171999999REMMET008NEW AO1;EQDQ01+000000PRSWM2
0087725624999991997062615504+99999+999999FM-15+9999KLXN V0209991C00001220001CN0160931N1+02201+01701999999ADDAG10999GF100991999999999999999999MA1102131999999REMMET008NEW AO1;EQDQ01+000000PRSWM2
0124100465999991997051315204+54383+010167FM-15+0031EDHK V0200701N00211220001CN0112651N1+01601+00801999999ADDAG11000GA1021+013809999GA2021+030009999GF104991999999999999999999MA1102301999999REMMET013NEW BLU+BLU+;EQDQ01+000000PRSWM2
0071725450149901997051923009+41883-091717NSRDB+025699999V020999999999999999999999999999+99999+99999999999ADDGP10060041901025056101028013601025GQ100600597927039GR100600673913359
0071727454999991997072920009+47833-090383NSRDB+050599999V020999999999999999999999999999+99999+99999999999ADDGP10060050501028047901031010701028GQ100600338921659GR100601101913259
0123837040999991997071712004-22317-053933FM-12+036999999V0203601N00101220001CN0500001N1+01821+01511100801ADDAA106000091AG10000AY101061GF103991031031022501001001KA1999N+01581MA1999999096641MD1410001+9999MW1031REMSYN011 333 20158;
0164789580999991997070813004+12000-061783FM-15+0007TGPY V0200901N002610840019N0112651N1+02501+02401101441ADDAG10999GA1021+004809999GA2021+012009999GA3071+084009999GF107991999999999999999999MA1101391101341REMMET005NEW ;EQDQ01+999990APOSP Q02+999990APOSLPQ03+000000PRSWM2
0050598450999991997063003004+19517+109583FM-12+016999999V0201801N00401045001CN0300001N1+03161+02461100211ADDAG10000GF107991011011008001041021MD1210051+9999
0138711430999991997121618004+51750-099900FM-12+0256CWBL V0203501N003119999999N9999999N9-00481-00731101181ADDAA106000091AA224000091AG14000KA1120M+00061KA2240N-00621MA1999999098001MD1010071+9999REMSYN023 333 10006 21062 70000;EQDQ01+000002VOVAR 
0103725245999991997072400454+41517-081683FM-15+0178KBKL V0201001N00621009001CN0048281N1+02401+02101999999ADDAG11999GA1071+009001999GA2081+018001999GF108991999999999999999999MA1101661999999MW1051REMMET005NEW ;
0438723650230501997032807003+35050-106600FM-15+1618ABQ  V0202405N00985220005MN0160005N1+01225-00335100805ADDAA101000095AG11999GD10995+9999999GF100991999999999999999999GM1006000000190000019000001999999GP10060000001000000001000000001000GR100600000900009KA1999M+99999KA2999N+00031MA1101395083381OC101291REMMET032NEW AO2 SLP080 T01221033 4021700EQDQ01+999990APOSP Q02+000000PRSWM2Q03 +00212ATMX  N01 00000JPWTH 0QNNAA1D0 00000BA1 0 00000GA1U0 99999KA1D0 00026JA1 0-00033LA1 0 01000CA1 0 02994NA1 0 00000QA1 0 10080SA1D0 00054RA1 0 00122YA1 0 24019
0103726985999991997102716504+45550-122400FM-15+0011KTTD V0202701N002610045019N0032181N1+01001+00901999999ADDAG11999GA1021+001201999GA2081+004501999GF108991999999999999999999MA1102071999999MW1101REMMET005NEW ;
0054722056128341997010407009+29183-081067NSRDB+000999999V020999999999999999999999999999+99999+99999999999ADDGP10060000001000000001000000001000GR100600000900009
0058476700999991997091711004+35433+139650FM-12+004299999V0201701N003119999999N9999999N9+02541+02351101021ADDAG10999MA1999999100541MD1310171+9999EQDQ01+000002VOVAR 
0348725090147391997061207003+42367-071017FM-15+0006BOS  V0200405N00215220005MN0160005N1+02115+01445100665ADDAA101000095AG11999GD10995+9999999GF100991999999999999999999GP10060000001000000001000000001000GR100600000900009MA1100685100591REMMET025NEW AO2 SLP066 T02110144;EQDQ01+999990APOSP Q02+000000PRSWM2N01 00000JPWTH 0QNNAA1D0 00000BA1 0 00000GA1U0 99999KA1D0 00058JA1 0 00144LA1 0 01000CA1 0 02973NA1 0 00000QA1 0 10066SA1D0 00070RA1 0 00211YA1 0 04004
0166723550139451997022311003+34650-098400FM-15+0362KFSI V0200201N00151220001CN0160931N1+00101-00201102861ADDAG11999GA1021+075001999GF104991999999999999999999GP10060000001000000001000000001000GR100600000900009MA1102841999999REMMET020NEW SLP286 8/008 9/0EQDQ01+000000PRSWM2
0095725556999991997060921304+42583-100000FM-15+0789KANW V0201501N00571220001CN0160931N1+02201+00801999999ADDAG11999GF100991999999999999999999MA1102131999999OC101031REMMET008NEW AO1;EQDQ01+000000PRSWM2
0054726583999991997012904009+45100-094500NSRDB+034799999V020999999999999999999999999999+99999+99999999999ADDGP10060000001000000001000000001000GR100600000900009
0063999999999991997012902284-38983+159283FM-18+9999DRIB V02099999999999999999N9999999N9+01991+99999102371ADDAG10999MW1001SA1+1969REMSYN01155589     ]EQDQ01+000002VOVAR 
0103703210999991997060604474+59050-158517FM-15+0029PADL V0209999V002110180019N0321861N1+01401+00801999999ADDAG11999GA1021+012001999GA2081+018001999GF108991999999999999999999MA1100641999999MW1161REMMET005NEW ;
0148701330266161997091400464+66867-162633FM-16+0005PAOT V0202301N003610090019N0563271N1+01101+00701102081ADDAG10000GA1021+005401999GA2081+009001999GF108991999999999999999999MA1102071102021REMMET005NEW ;EQDQ01+999990APOSP Q02+999990APOSLPQ03+000000PRSWM2
0087476880999991997030715004+34983+139833FM-15+0006RJTE V0202601N00671220001CN0112651N1+01701+00801999999ADDAG10000GF100991999999999999999999MA1101191999999REMMET008NEW A298EQDQ01+000000PRSWM2
0102515420999991997082912004+43033+084150FM-12+245999999V0200401N00401004201CN0300001N1+00411-00621999999ADDAA106999929AG10000GF107991071091004501999999MA1999999075921MD1210111+0051MW1851REMSYN011 333 00557;
0071725287047241997042615009+43100-078950NSRDB+018099999V020999999999999999999999999999+99999+99999999999ADDGP10060068501011073901016017101011GQ100600458911769GR100600940913499
0101166820999991997090407204+37917+021283FM-15+0014LGAD V0209991C00001999991CY0099001N1+02401+01601101731ADDAG10999MA1101691101561REMMET016NEW CAVOK NOSIG;EQDQ01+999990APOSP Q02+999990APOSLPQ03+000000PRSWM2
0063999999999991997010406474-28567+172567FM-18+9999DRIB V02099999999999999999N9999999N9+99999+99999999999ADDAG10999MW1001SA1+2339REMSYN01154857     ]EQDQ01+000002VOVAR 
0087722357999991997091304144+31617-091300FM-15+0083KHEZ V0209999C00001220001CN0160931N1+01801+01301999999ADDAG11999GF100991999999999999999999MA1101801999999REMMET008NEW AO1;EQDQ01+000000PRSWM2
0096483520999991997081503004+17867+102717FM-12+0175VTUM V0202901N00101045001CN0150001N1+03061+02571100751ADDAA106000091AG10000GF105991021051008001031051MA1999999098811MD1999999-0171REMSYN011 333 59017;
0134975020999991997071803004-00933+131117FM-12+0003WASS V0201601N00871009001CN0090001N1+02851+02371101111ADDAA106000091AA224999929AG10000AY141031AY241031GA1021+004809089GF107991051081004501061021MW1051REMSYN029 333 56000 79999 82816 83618;
0100582030999991997042721004+32933+115833FM-12+003999999V0202201N00401220001CN0200001N1+01781+01341100981ADDAG10000GA1001+999999999GF100991001001999999001001MA1999999100521MD1710031+9999EQDQ01+999990APOSP 
0116785203999991997072820504+18017-066567FM-15+0009TJPS V0201401N004110300019N0241401N1+03301+02201999999ADDAG10000GA1021+015001999GA2071+030001999GF107991999999999999999999MA1101631999999REMMET005NEW ;EQDQ01+000000PRSWM2
0135767500999991997080712454+18500-088300FM-15+0012MMCM V0203601N006210030019N0096561N1+02401+02301101161ADDAG10999GA1071+003001999GF107991999999999999999999MA1101801101061REMMET008NEW 2000EQDQ01+999990APOSP Q02+999990APOSLPQ03+000000PRSWM2
0194111260999991997081607004+47217+011467FM-12+224799999V0209991V001010150019N0150001N1+00921+00791999999ADDAG12999GA1021+004509089GA2041+015009039GA3011+999999089GF105991021081999999031011GG1019999999089009GG2069010009019999MD1310051+9999REMSYN051 333 818// 82815 84350 95050 95190 444 18//0 26110;
0071726665999991997050602009+43967-107950NSRDB+129499999V020999999999999999999999999999+99999+99999999999ADDGP10060002701011001901016002501011GQ100600822928569GR100600181913439
0087724285999991997071415384+39817-082933FM-15+0227KLCK V0202201N00411220001CN0112651N1+03101+02401999999ADDAG10999GF100991999999999999999999MA1101631999999REMMET008NEW AO1;EQDQ01+000000PRSWM2
0054727825999991997070512009+47400-120200NSRDB+037999999V020999999999999999999999999999+99999+99999999999ADDGP10060000001000000001000000001000GR100600000900009
0070023380999991997072003004+61367+015717FM-12+018599999V0202401N001019999999N0130001N1+00521+00491102851ADDAA106000091AG10000MA1999999100551MD1410001+9999REMSYN011 555 0//03;
0043992810999991997032212004+41833-124400FM-18+0003DB28 V0202901N002019999999N9999999N9+00971+99999101651ADDAG12000MD1410001+9999EQDQ01+000002VOVAR 
0087725483999991997080604454+40667-091333FM-15+0221KFSW V0209999C00001220001CN0160931N1+01601+01201999999ADDAG11999GF100991999999999999999999MA1102201999999REMMET008NEW AO1;EQDQ01+000000PRSWM2
0131253250999991997102918004+66550+159417FM-12+012599999V0209991C00001015001CN0200001N1-01231-01501101241ADDAA199999929AG10001AY171061AY221061GF107991071051017501999999KA1999M-01161MA1999999099561MD1210011+9999MW1711REMSYN011 333 11116;
0071726467999991997112116009+45483-091717NSRDB+034799999V020999999999999999999999999999+99999+99999999999ADDGP10060008501028000001031008501028GQ100600731914519GR100600407914029
0162119340999991997042003004+49067+020250SY-MT+0707LZTT V0200601N00301013801CN0130001N1-00211-00661999999ADDAG12001AY171031AY271031GA1081+013809999GF108991081051017501999999MA1100811092771MD1710021+9999ME1207199MW1021REMSYN011 333 88650;MET005NEW ;EQDQ01+000000PRSWM2
0093688580999991997032908004-33033+027833FM-15+0125FAEL V0201801N00211999991CY0099001N1+02501+01501100811ADDAG10999MA1100811099401REMMET008NEW CAVOEQDQ01+999990APOSP Q02+999990APOSLPQ03+000000PRSWM2
0052154550999991997100605004+44283+025517FM-12+010899999V0202701N00201220001CN0100001N1+00591+99999999999ADDAG12999GA1001+999999999GF100991001001999999001001
0103723416999991997110323144+34600-091567FM-15+0068KSGT V0203101N002110180019N0160931N1+01101+00301999999ADDAG11999GA1081+018001999GF108991999999999999999999MA1101761999999REMMET008NEW AO1;EQDQ01+000000PRSWM2
0037726514999991997122416009+43733-103617NSRDB+170799999V020999999999999999999999999999+99999+99999999999ADDGQ100600818913399GR100600202914149
0129718010999991997062007294+47617-052733FM-16+0140CYYT V0202101N00931001201CN0064371N1+99999+99999999999ADDAG10999GA1071+001209999GA2081+003009999GF108991999999999999999999MW1801OC101441REMMET019NEW SF6SC2 CUEMBDD;EQDQ01+000100PRSWM3
0143722500129191997111614034+25900-097433FM-16+0006KBRO V0203401N007710045019N0160931N1+00701+00301103071ADDAG10999GA1081+004501999GF108991999999999999999999MA1103081103011OC100931REMMET008NEW AO2;EQDQ01+999990APOSP Q02+999990APOSLPQ03+000000PRSWM2
0071722867231561997051323009+33933-116967NSRDB+079299999V020999999999999999999999999999+99999+99999999999ADDGP10060078401025088501028010701025GQ100600399925799GR100601025913389
0054726676999991997051210009+47133-104800NSRDB+074999999V020999999999999999999999999999+99999+99999999999ADDGP10060000001000000001000000001000GR100600000900009
0062712050999991997062509004+00000+000000FM-12+999999999V0202701N002119999999N0240001N1+01301+01101101201ADDAA106000091AG10000GF106991999999999999999999MA1999999096081
0054727825999991997090607009+47400-120200NSRDB+037999999V020999999999999999999999999999+99999+99999999999ADDGP10060000001000000001000000001000GR100600000900009
0165702735264091997082203294+61217-149850FM-16+0042PAMR V0202001N00151006001CN0080461N1+01201+01201999999ADDAG10001GA1021+002101999GA2071+006001999GA3081+009001999GF108991999999999999999999MA1100541999999MW1611REMMET032NEW VIS LWR NE-SE AND HIR SW-NW;EQDQ01+000100PRSWM3
0087727435999991997040101004+99999+999999FM-15+9999KMCD V0202701N00151220001CN0160931N1-00401-00701999999ADDAG10999GF100991999999999999999999MA1102441999999REMMET008NEW AO1;EQDQ01+000000PRSWM2
0071725127047261997072616009+40317-078833NSRDB+069599999V020999999999999999999999999999+99999+99999999999ADDGP10060049301011005601016044601011GQ100600319912339GR100601123913249
0131943350999991997102923004-20700+140517FM-12+020099999V0203601N010812200019N0500001N1+03291+01461101351ADDAA106000091AG10999AY101999AY201999GF101991001001999999001011KA1999N+02151MA1999999099201MD1210241+9999MW1021REMSYN011 333 20215;
0085411140999991997051902004+18300+042800FM-15+2054OEKM V0201801N00151999991CY0099001N1+01601+01001999999ADDAG10999MA1102401079911REMMET016NEW CAVOK NOSIG;EQDQ01+999990APOSP Q02+000000PRSWM2
0071726566999991997121415009+43983-096317NSRDB+052999999V020999999999999999999999999999+99999+99999999999ADDGP10060005301028041001031001901028GQ100600852912909GR100600118914129
0085722620230551997111114484+31833-104800FM-16+1662KGDP V0202101N00311999999CN0030001N1+99999+99999999999ADDAG11000MA1101121999999REMMET032NEW AO1 PK WND 08 000 T00331027;EQDQ01+000000PRSWM2
0101075790999991997070720004+44133+004833FM-15+0055LFMO V0203501N00721999991CY0099001N1+02201+01001101721ADDAG10999MA1101691101081OC101391REMMET008NEW CAVOEQDQ01+999990APOSP Q02+999990APOSLPQ03+000000PRSWM2
0065557730999991997072315004+27733+089083FM-12+430199999V0209991C00001004201CN0200001N1+00731+00461999999ADDAG10000GF107991071041004501999999MA1999999060711MD1210151+9999
0029898690999991997052804004-79950+164967FM-12+007599999V0202701N008219999999N9999999N9-02661+99999999999ADDAG10999EQDQ01+000002VOVAR 
0187411140999991997031103004+18300+042800SY-MT+2054OEKM V0209991C00001220001CN0100001N1+01581+00781999999ADDAG10000GA1021+006609999GA2021+027009999GF104991011051008001031001MA1102301079851MD1999999+0071ME1315139REMSYN039 333 58007 81622 83359 555 04410 50088;MET008NEW NOSIEQDQ01+000000PRSWM2
0029994090999991997020914004+48217-088367FM-12+0195PILM V0202701N008219999999N9999999N9-00461+99999999999ADDAG12999EQDQ01+000002VOVAR 
0077403560999991997090711004+31683+038667FM-15+0813OETR V0202801N00511999991CY0099001N1+03601+00101999999ADDAG10999MA1101391091611REMMET008NEW CAVOEQDQ01+999990APOSP Q02+000000PRSWM2
0112670190999991997061612004-14633+047767FM-12+0057FMNL V0209999999999220001CN0400001N1+99999+99999101361ADDAA106000091AG10000GA1011+006009089GF101991011011008001001021MA1999999100701MD1610271+9999REMSYN011 333 81820;
0115584240999991997031221004+30533+117050FM-12+002099999V0203601N00601015001CN0100001N1+01201+01051101381ADDAA124999929AG10000GF108991081051017501999999MA1999999101141MD1710111+9999REMSYN011 333 79999;EQDQ01+999990APOSP 
0143297260999991997012600004+54367+081950FM-12+013599999V0202401N00301007501CN0040001N1-00141-00251101431ADDAA199001091AG10001AY181061AY221061GF108991081031008001999999IA1289KA1120N-00801MA1999999099741MD1410001+9999MW1851REMSYN017 333 21080 44030;
0108103680999991997122918004+52117+012467FM-12+018799999V0202701N006719999999N0100001N1+00271+00171100961ADDAA199006091AG10000KA1120M+00281KA2120N+00041MA1999999098651MD1310221+9999REMSYN023 333 10028 20004 55300;
0087725624999991997082206304+99999+999999FM-15+9999KLXN V0200701N00411220001CN0160931N1+01701+01501999999ADDAG10999GF100991999999999999999999MA1101961999999REMMET008NEW AO1;EQDQ01+000000PRSWM2
0132537720999991997051001004+37783+112550FM-15+0779ZBYN V0203601N002010300019N0112651N1+01501+00901999999ADDAG10999GA1021+012009999GA2081+030009999GF108991999999999999999999MA1100411091491REMMET005NEW ;EQDQ01+999990APOSP Q02+000000PRSWM2
0055111410999991997091919004+47400+013217FM-12+055099999V0201601N002619999999N9999999N9+01441+01211102061ADDAA106000091AG14999MA1999999095711EQDQ01+000002VOVAR 
0071723448999991997081014009+35733-091650NSRDB+014199999V020999999999999999999999999999+99999+99999999999ADDGP10060036701028057301031012801028GQ100600653908839GR100600554913309
0065140150999991997120515004+46067+014517FM-12+031699999V0201001N00201012001CN0180001N1+00351-00201102101ADDAG12000GF107991051051012501031001MA1999999098441MD1310061+9999
0132878280999991997032105004-43200-065267FM-15+0043SAVT V0203601N00411220001CN0112651N1+01101+00901101521ADDAG10999GA1021+030009999GF102991999999999999999999MA1101491101001REMMET005NEW ;EQDQ01+999990APOSP Q02+999990APOSLPQ03+000000PRSWM2
0071727415999991997122918009+45633-089467NSRDB+050799999V020999999999999999999999999999+99999+99999999999ADDGP10060011101025000001028011101025GQ100600692917269GR100600502914159
0266724830232321997090703003+38517-121500FM-15+0006SAC  V0202005N005252200059N064000599+02405+01105999999ADDGD10005+9999999GF100995999999999999999999GP10060000601010002801016000501010GQ100600877927629GR100600024905949EQDN01 00000JPWTH 0QNNE71D0 00000F71 0 00000G71U0 99999K71D0 00052J71 0 00110L71 0 04000N71 0 00000S71D0 00075R71 0 00240V71D0 00099U71 0 00099X71 0 20010
0102061100999991997030713504+55233+009267FM-15+0040EKSP V0202001N00621999991CY0099001N1+01001+00301103161ADDAG11999MA1103121102581REMMET017NEW CAVOK BKN120;EQDQ01+999990APOSP Q02+999990APOSLPQ03+000000PRSWM2
0077999999999991997072622164+54467-162817FM-18+9999DRIB V02099999999999999999N9999999N9+99999+99999999999ADDAG10999MD1710101+9999MW1001SA1+1439REMSYN01146564     ]EQDQ01+000002VOVAR 
0054725124999991997120108009+40783-079950NSRDB+038099999V020999999999999999999999999999+99999+99999999999ADDGP10060000001000000001000000001000GR100600000900009
0112421110999991997020618004+30317+078033FM-12+068299999V0200501N00051220001CN0040001N1+00801+00461101541ADDAA106000091AG10000GA1001+999999999GF100991001001999999001001MA1999999093551MD1999999+0001REMSYN011 333 58000;
0107873200999991997083108004-30367-066283FM-12+046199999V0209991C00001090001CN0050001N1+01221+00181101101ADDAG10999AY121021AY221021GF108991001001999999001061MA1999999095871MD1710121+9999MW1051REMSYN011 333 56009;
0552724140138661997123106003+38383-081583SY-MT+0310CRW  V0209999V00155008535MN0048005N1-00395-00505101005ADDAA101000025AA206000021AG10001AJ100089199999999GA1021+003901999GA2071+008401999GA3081+013501999GD11995+0039659GD23995+0085359GD34995+0137259GF108991999999004501999999GP10060000001000000001000000001000GR100600000900009MA1100915097381MD1310101+9999MW1101MW2455MW3715REMMET063NEW AO2 SLP100 4/003 P0000 60000 T10391050 11022 21039 53010 $;EQDQ01  99998PRCP06N01 04070JPWTH 0QNNAA1D0 02013BA1 0 01013AA1D0 04028BA1 0 04028AA1D0 06045BA1 0 06045GA1 0 00028KA1D0 00023JA1 0-00050LA1 0 00300CA1 0 02980NA1 0 04070QA1 0 10100SA1D0 00025RA1 0-00039YA1 0 00003
0058722053128411997021703504+28550-081333FM-15+0034KORL V0203601N00511999999CN0160931N1+01301+00901999999ADDAG10999MA1102841999999REMMET005NEW ;EQDQ01+000000PRSWM2
0125726115999991997071519544+43350-072517FM-15+0176KVSF V0200501N002610045019N0160931N1+02101+01901101541ADDAG11999GA1081+004501999GF108991999999999999999999MA1101561999999REMMET030NEW AO2 SLP154 T02110194 TSNO;EQDQ01+000000PRSWM2
0071725635999991997050515009+42050-102800NSRDB+119899999V020999999999999999999999999999+99999+99999999999ADDGP10060048401010084001016006801010GQ100600602909459GR100600665913439
0100723119138861997032719504+34850-082350FM-15+0319KGMU V0201701N00361220001CN0482801N1+02201+00101999999ADDAG10999GA1021+075001999GF102991999999999999999999MA1101731999999REMMET005NEW ;EQDQ01+000000PRSWM2
0058476680999991997031813004+35050+139100FM-12+006899999V0202601N000519999999N9999999N9+00981+00351101991ADDAG10999MA1999999101161MD1810041+9999EQDQ01+000002VOVAR 
0096483780999991997112106004+16783+100267FM-12+0045VTPS V0200101N00101220001CN0100001N1+03251+02111101311ADDAA106000091AG10000GF103991021011008001001011MA1999999100791MD1999999-0021REMSYN011 333 59002;
0076407130999991997042200004+37400+046267FM-12+147699999V0209991C00001220001CN0100001N1+00781-00121101601ADDAA106000091AG10000GF103991001001999999001011MA1999999085451MD1410001+9999
0101160330999991997021100004+46733+012217FM-12+1226LIVD V0209991C00001220001CN0100001N1-00181-00531999999ADDAA106000091AG14000GA1001+999999999GF100991001001999999001001MA1999999088521MD1110021+9999ME1315469
0118485520999991997091506004+08467+099967FM-12+0009VTSN V0209991C00001004201CN0060001N1+03341+02501100811ADDAA106000091AG10000AY141061AY221061GF107991051021004501001061MA1999999100711MD1999999-0221MW1151REMSYN011 333 59022;
0165702986999991997071405464+60817-152300FM-15+0012PALV V0201101N002110150019N0160931N1+01401+01201999999ADDAA106000091AA224003091AG11000GA1021+001801999GA2081+015001999GF108991999999999999999999MA1100681999999REMMET032NEW MAX 16 70013 EPO NOSPECI LASEQDQ01+000000PRSWM2
0071723495139871997091721009+37150-094500NSRDB+029799999V020999999999999999999999999999+99999+99999999999ADDGP10060034601011020801016020601011GQ100600474923009GR100600915913539
0138717360999991997031118004+48633-079450FM-12+0269CWGQ V0202701N002619999999N9999999N9-00581-01431101601ADDAA106000091AA224000091AG14000KA1120M-00581KA2240N-02071MA1999999098201MD1110081+9999REMSYN023 333 11058 21207 70000;EQDQ01+000002VOVAR 
0080814150999991997051918004+03633-054033FM-12+010699999V0201101N001019999999N9999999N9+02861+02601100881ADDAA106004091AG10000MD1999999+0001REMSYN017 333 58000 60041;EQDQ01+000002VOVAR 
0054723658230901997103105009+36750-108233NSRDB+167599999V020999999999999999999999999999+99999+99999999999ADDGP10060000001000000001000000001000GR100600000900009
0092442880999991997012715004+46267+102783FM-12+183299999V0209991C00001220001CN0500001N1-01151-01431102611ADDAA106000091AG14000GA1001+999999999GF100991001001999999001001MA1999999081311MD1410001+9999
0071722484999991997121416009+32533-093750NSRDB+005599999V020999999999999999999999999999+99999+99999999999ADDGP10060035301010074801016006801010GQ100600676914049GR100600537914129
0136161530999991997013006004+43950+008167SY-MT+0221LIMU V0209991C00001220001CN0200001N1+00801-00281103231ADDAA106000091AG14000GF100991001001999999001001MA1999999100501MD1810021+9999REMMET032NEW CAVOK QUK / QUL / VIS MAR 20EQDQ01+000000PRSWM2
0100283340999991997013121004+57350+058217FM-12+024499999V0209991C00001220001CN0500001N1-03001-03371100601ADDAG12000GA1001+999999999GF100991001001999999001001MA1999999097231MD1210071+9999EQDQ01+999990APOSP 
0153726546149461997082902534+44900-097150FM-15+0533KATY V0201001N003110150019N0160931N1+02201+02101101281ADDAG11000GA1071+015001999GF107991999999999999999999MA1101391999999MD1310081+9999REMMET044NEW AO2 SLP128 6//// T02170206 53008 TSNO PNEQDQ01+000000PRSWM2
0204725910242161997062613003+40150-122250FM-15+0108KRBL V0203601N00411220001CN0160931N1+01801+00101101011ADDAG11999GA1021+030001999GF102991999999999999999999GP10060000101024000501027000101024GQ100600888905959GR100600008903869MA1101051099811REMMET025NEW AO2 SLP101 T01830006;EQDQ01+999990APOSP Q02+000000PRSWM2
0135727924242231997060403314+46117-122900FM-15+0005KKLS V0209999C000010240019N0160931N1+01501+01201999999ADDAG11999GA1021+006001999GA2021+012301999GA3071+024001999GF107991999999999999999999MA1101021999999REMMET008NEW AO1;EQDQ01+000000PRSWM2
0176722576039021997052321004+31067-097833FM-15+0309KGRK V0201401N00211003301CN0024141N1+02201+02101101501ADDAG10999GA1021+001809999GA2071+003309099GA3081+005409999GF108991999999999999999999MA1101631999999MW1101MW2801REMMET056NEW SLP150 CB 20E AND 15SE AND 5S MOV NE 8/3// 9/8// WR/
0128360220999991997062612004+52017+080367FM-12+020899999V0203401N00701220001CN0500001N1+01972+00651101171ADDAA106000091AG14000GF102991021021012501001001KA1999M+02211MA1999999098761MD1810011+9999REMSYN011 333 10221;EQDQ01+999990APOSP 
0104999999999991997070712004+15800+152400FM-13+9999KIRH V0200901N00461220001CN0200001N1+02721+02401101031ADDAG10003AY181061AY201061GF103991031021004501999999MD1110201+9999MW1801REMSYN023 22264 00283 80250 ICE;
0087725724999991997100713344+40217-111717FM-15+1369KPVU V0202101N00461220001CN0160931N1+01601+00401999999ADDAG11999GF100991999999999999999999MA1099971999999REMMET008NEW AO1;EQDQ01+000000PRSWM2
0114945680999991997030311004-27633+152717FM-12+0031YBAM V0200801N00261220001CN0400001N1+02471+01921100681ADDAA106000091AG10999AY101999AY201999GA1001+999999999GF100991001001999999001001MA1999999100321MD1210221+9999MW1051
0055999999999991997072209004+25317-045500FM-18+9999DRIB V02099999999999999999N9999999N9+99999+99999102471ADDAG10999MW1001REMSYN01113910     ]EQDQ01+000002VOVAR 
0100960350999991997071402004+03567+098683FM-16+0025WIMM V0201801N00211220001CN0040001N1+99999+99999999999ADDAG10999GA1021+005409999GF104991999999999999999999REMMET020NEW 26-23 Q1010 NSG;EQDQ01+000000PRSWM2
031372503014732199701212251C+40783-073883FM-15+0003LGA  V0209999C00005220005MN0160005N1+00285-01225103105ADDAA101000095AG11999GA1021+075001999GD11995+0762059GF102991999999999999999999MA1103125102991REMMET025NEW AO2 SLP310 T00281122;EQDQ01+999990APOSP Q02+000000PRSWM2N01 00000JPWTH 0QNNAA1D0 02250BA1 0 01250GA1U0 99999KA1D0 00010JA1 0-00122LA1 0 01000CA1 0 03045NA1 0 00000QA1 0 10310SA1D0 00037RA1 0 00028YA1 0 00000
0066125800999991997030803004+50100+022050FM-12+0202EPRZ V0200301N00301220001CN0150001N1-00241-00511103571ADDAG12000GA1001+999999999GF100991001001999999001001MD1210061+9999
0072133530999991997050318004+43817+018333FM-15+0511LQSA V0202001N00311999991CY0099001N1+01601+00901999999ADDAA106000091AG11000MA1101691999999REMMET008NEW CAVOEQDQ01+000000PRSWM2
0151166270999991997112004504+40850+025917FM-15+0003LGAL V0200401N004110300019N0112651N1+00501+00401101241ADDAG11999GA1021+007509999GA2071+030009999GF107991999999999999999999MA1101191101201REMMET008NEW NOSIEQDQ01+999990APOSP Q02+999990APOSLPQ03+000000PRSWM2
0102163320999991997021711004+40233+018150FM-15+0061LIBN V0203301N010310105019N0112651N1+01101+00301999999ADDAG12999GA1071+010509999GF107991999999999999999999MA1101801999999REMMET007NEW BKNEQDQ01+000000PRSWM2
0071722867231561997041023009+33933-116967NSRDB+079299999V020999999999999999999999999999+99999+99999999999ADDGP10060048101025028001028028401025GQ100600451924449GR100600960913629
0071726588999991997121316009+44083-091700NSRDB+020099999V020999999999999999999999999999+99999+99999999999ADDGP10060008501028009701031006101028GQ100600757914459GR100600350914129
0054722977931841997122803009+33683-117867NSRDB+001699999V020999999999999999999999999999+99999+99999999999ADDGP10060000001000000001000000001000GR100600000900009
0120624050999991997081821004+25667+032700SY-MT+0088HELX V0202001N00151220001CN0100001N1+02841+01201101001ADDAA106000091AG10000GF100991001001999999001001MA1101021999999MD1210101+9999REMMET016NEW CAVOK NOSIG;EQDQ01+000000PRSWM2
0125725085547561997072518524+42567-072267FM-15+0164KORE V0200101N00571220001CN0160931N1+02301+01401101461ADDAG11999GA1021+012601999GF102991999999999999999999MA1101491999999REMMET030NEW AO2 SLP146 T02330139 TSNO;EQDQ01+000000PRSWM2
0127710780999991997041909004+56867-101083SY-MT+0357CYYL V0201201N00151000151CN0008001N1+00101+00101101261ADDAA106000091AG11000GA1091+000159999GF109991091999999999999999MA1101081096871MW1451REMMET015NEW FG8 SLP126;EQDQ01+000003PRSWM1
0055999999999991997123002004-07867-132533FM-18+9999DRIB V02099999999999999999N9999999N9+99999+99999999999ADDAG10999MW1001REMSYN01151907     ]EQDQ01+000002VOVAR 
0054703210999991997040513009+59050-158517NSRDB+002999999V020999999999999999999999999999+99999+99999999999ADDGP10060000001000000001000000001000GR100600000900009
0055999999999991997062404084-32633-044433FM-18+9999DRIB V02099999999999999999N9999999N9+99999+99999100701ADDAG10999MW1001REMSYN01133549     ]EQDQ01+000002VOVAR 
0071724678999991997101000009+40517-106867NSRDB+214999999V020999999999999999999999999999+99999+99999999999ADDGP10060016901028073101031002401028GQ100600785925099GR100600272913709
0143911760225191997071910404+21450-157767FM-16+0005PHNG V0200801N00571010501CN0112651N1+02401+02201101471ADDAG10999GA1021+007501999GA2071+010501999GA3081+015001999GF108991999999999999999999MA1101461999999OC100721REMMET008NEW SLP1EQDQ01+000000PRSWM2
0101486980999991997010919004+01367+103983FM-15+0016WSSS V0203601N00151999991CY0099001N1+02501+02201101221ADDAG10999MA1101191101041REMMET016NEW CAVOK NOSIG;EQDQ01+999990APOSP Q02+999990APOSLPQ03+000000PRSWM2
0109128050999991997050318004+47683+016600FM-12+023999999V0203401N00301090001CN0700001N1+02251+00691101091ADDAA106000091AG14000GF106991021001999999041021KA1999M+02721MA1999999098341MD1610111+9999REMSYN011 333 10272;
0172724695230361997123112003+39717-104750FM-15+1726KBKF V0203401N00461220001CN0402331N1-00201-00601102451ADDAA106000091AG11000GF100991999999999999999999GP10060000001000000001000000001000GR100600000900009MA1102201999999MD1310021+9999REMMET017NEW SLP245 53002;EQDQ01+000000PRSWM2
0181150900999991997011111004+47167+027633SY-MT+0104LRIA V0209991C00001003001CN0020001N1-00601-00701103151ADDAG12999AY171021AY271021GA1081+003009999GF108991081001008001021999MA1103011101791MW1101MW2561MW3711REMSYN011 333 96010;MET019NEW NOSIG 15892094;EQDQ01+999990APOSP Q02+999990APOSLP
0112144440999991997062917304+43533+016300FM-15+0019LDSP V0201001N00311999991CY0099001N1+02701+01801100461ADDAA106000091AG11000MA1100411100221REMMET016NEW CAVOK NOSIG;EQDQ01+999990APOSP Q02+999990APOSLPQ03+000000PRSWM2
0119714320999991997102312004+43250-079217FM-12+0079CWWZ V0202501N006719999999N0140001N1+00331-00311101601ADDAA106000091AA224000091AG14000KA1240M+00531KA2120N+00331MA1999999100631MD1110021+9999REMSYN023 333 10053 20033 70000;
0127788940999991997041618004+17900-062850FM-12+0052TFFJ V0201201N001019999999N9999999N9+02901+02021101481ADDAA106000091AG10000KA1120M+03001KA2240N+02361MA1999999100891MD1999999-0201REMSYN023 333 10300 20236 59020;EQDQ01+000002VOVAR 
0071701780265291997110601009+65167-152100NSRDB+007199999V020999999999999999999999999999+99999+99999999999ADDGP10060002101011000001017002101011GQ100600863921789GR100600091913919
0066540960999991997120903004+44383+131150FM-12+049899999V0202701N00501220001CN0200001N1-01321-01771101921ADDAG12000GA1001+999999999GF100991001001999999001001MD1710081+9999
0043994210999991997020601004+34583-120650FM-12+0012PTGC V0203401N009819999999N9999999N9+99999+99999101831ADDAG10999MD1410001+9999EQDQ01+000002VOVAR 
0173966550999991997040812004-01000+114000FM-12+0027WRBP V0202201N00211004201CN0080001N1+02651+02531101151ADDAA106000091AA224999929AG10018AY191061AY221061GA1011+003609089GF107991061091004501071031KA1240M+03241MD1999999+0241MW1171REMSYN041 333 10324 56400 58024 79999 81812 86612;
0106825990999991997090114004-05917-035250FM-15+0052SBNT V0201201N00721220001CN0112651N1+02901+02201999999ADDAG10999GA1071+005409999GA2021+024009999MA1101591999999REMMET005NEW ;EQDQ01+000042SCOTCVQ02+000000PRSWM2
0108219210999991997062909004+70683+127400FM-12+003999999V0200401N00301007501CN0500001N1+01881+01311099581ADDAG12002AY191031AY221031GA1051+007509099GF108991051091008001031011MD1710031+9999MW1021REMSYN011 333 85925;
0154476870999991997040306004+35633+139850FM-15+0008RJTI V0200401N005110030019N0035001N1+01201+01001999999ADDAA106999999AG10002GA1021+001809999GA2071+003009999GF107991999999999999999999MA1101491999999MW1101MW2611REMMET020NEW 4ST006 7ST010 A2EQDQ01  00002PRCP06
0144268820999991997051818004+53967+032850FM-12+021799999V0203301N00201220001CN0200001N1+01101-00191101691ADDAA106000091AG14000GA1001+999999999GF100991001001999999001001KA1999M+01501MA1999999099001MD1710021+9999REMSYN011 333 10150;EQDQ01+999990APOSP 
0140039530999991997111512004+51933-010250FM-12+001499999V0201801N00411000601CN0015001N1+01451+01411100011ADDAA106000191AG10001AY161061AY251061GA1081+000609079GF108991081061000751999999MA1999999099851MD1810041+9999MW1501REMSYN017 333 88702 92424;
0148022260999991997032812504+63183+014500FM-15+0370ESPC V0203101N003110120019N0112651N1+00201-00201098481ADDAG10999GA1021+007809999GA2071+012009999GF107991999999999999999999MA1098311094021REMMET005NEW ;EQDQ01+999990APOSP Q02+999990APOSLPQ03+000000PRSWM2
0116784850999991997042410004+18433-069667FM-15+0018MDSD V0201801N005112200019N0112651N1+02501+02201999999ADDAG10999GA1021+005409089GA2071+005409999GF107991999999999999999999MA1101191999999REMMET005NEW ;EQDQ01+000000PRSWM2
0071725070147651997113014009+41717-071433NSRDB+001699999V020999999999999999999999999999+99999+99999999999ADDGP10060018101010050301016006301010GQ100600764913659GR100600330914069
0099747185999991997071922504+32833-115583FM-15-0017KIPL V0209999V00261220001CN0402331N1+03901+01801100511ADDAG10999GF100991999999999999999999MA1100511999999REMMET020NEW SLP051 T03890180EQDQ01+000000PRSWM2
0110119380999991997092415004+48850+020183FM-12+090699999V0202401N00301220001CN0400001N1+01161+00211999999ADDAG12000GA1011+009909089GF102991021081012501001011MA1999999091631MD1310031+9999ME1208269REMSYN011 333 81833;
0092646100999991997030315004+06483+017433FM-12+0465FEFS V0203601N00101220001CN0070001N1+03701+01651100351ADDAG10000GA1011+090009009GF101991001001999999001011MD1999999+0011REMSYN017 333 58001 81080;
0116726987999991997111116304+45667-121883FM-15+0046KCZK V0200601N007210240019N0160931N1+00601+00201999999ADDAG11999GA1021+012009999GA2081+024009999GF108991999999999999999999REMMET020NEW SLPNO NOSPECI FIEQDQ01+000000PRSWM2
0054722594999991997052510009+32983-097317NSRDB+022699999V020999999999999999999999999999+99999+99999999999ADDGP10060000001000000001000000001000GR100600000900009
0091060960999991997033106004+55183+008567FM-12+000399999V0202601N008719999999N0100001N1+00561+00431102001ADDAG12000KA1120M+00561KA2999N+00451MA1999999101861MD1210021+9999REMSYN017 333 10056 20045;
0063999999999991997013020004+20617+038017FM-18+9999DRIB V02099999999999999999N9999999N9+02301+99999101681ADDAG10999MW1001SA1+2559REMSYN01112505     ]EQDQ01+000002VOVAR 
0127478520999991997101406004+33483+131733FM-15+0008RJFO V0202101N003619999999N0112651N1+02601+01501999999ADDAA106000091AG10000GA1021+012009999GA2071+999999999GF107991999999999999999999MA1101021999999REMMET005NEW ;EQDQ01+000000PRSWM2
0128681820999991997082418004-23083+030283FM-12+070099999V0209991C00001220001CN0300001N1+01881+01371999999ADDAA106000091AG10000GF103991031041004501001001KA1120M+02321MA1999999094541MD1310101+9999ME1316189REMSYN021 333 10232 555 91028;
0069999999999991997101809004+50383-022333FM-18+9999DRIB V02099999999999999999N9999999N9+99999+99999100861ADDAG10999MD1210051+9999MW1001REMSYN01162558     ]EQDQ01+000002VOVAR 
0126325400999991997102001004+52967+158750FM-15+0024UHPP V0203601N006010060019N0112651N1+00701+00501999999ADDAG11999GA1081+006009099GF108991999999999999999999MA1101021999999MW1811REMMET044NEW QFE 753 SC 049 061 062 TEMPO 650300 5500
0113586660999991997060400004+28450+121883FM-12+008499999V0202701N00101220001CN0130001N1+02281+02081101011ADDAA106000091AA224006091AG10000GF104991011011008001041001MA1999999100031MD1210081+0001REMSYN017 333 00001 70063;
0138823610999991997040221004-03717-049717FM-15+0040SBTU V0209991C000010900019N0112651N1+02901+02301100991ADDAG10003GA1021+006909099GA2081+090009999GF108991999999999999999999MA1101191100621MW1171REMMET005NEW ;EQDQ01+999990APOSP Q02+999990APOSLP
0071722587999991997060221009+33633-095450NSRDB+017199999V020999999999999999999999999999+99999+99999999999ADDGP10060088401028091201031010201028GQ100600308925659GR100601139913289
0071723525939861997041323009+35000-099050NSRDB+047899999V020999999999999999999999999999+99999+99999999999ADDGP10060047401024066501027013101024GQ100600589925889GR100600702913599
0130620550999991997053106004+30717+020167FM-12+000799999V0209991C00001220001CN0100001N1+01901+01121101371ADDAA106000091AG10000GA1041+030009039GF104991041001999999031001GJ107449KA1120N+01851MD1310111+9999REMSYN023 333 20185 55124 84360;
0123622120999991997042915004+25133+010133FM-12+0692HLGT V0200301N00571220001CN0015001N1+03001+00841999999ADDAA106000091AG10000AY101031AY201031GA1001+999999999GF100991001001999999001001MA1999999093371MD1810121+9999ME1315189MW1061
0096485010999991997101606004+11767+102883FM-12+000499999V0203101N00261105001CN0120001N1+03361+02581101051ADDAA106000091AG10000GF106991011021008001001051MA1999999100971MD1999999+0021REMSYN011 333 58002;
0077999999999991997053108404-30117+090417FM-18+9999DRIB V02099999999999999999N9999999N9+99999+99999102191ADDAG10999MD1710021+9999MW1001SA1+1929REMSYN01153518     ]EQDQ01+000002VOVAR 
0087722535129091997122117004+29383-098583FM-15+0210KSKF V0209991V00051220001CN0112651N1+01401+00601101161ADDAG10999GF100991999999999999999999MA1101191999999REMMET008NEW SLP1EQDQ01+000000PRSWM2
0117691464999991997050113004+37000+035433FM-15+0073KQDG V0202101N00411220001CN0096561N1+02201+00901101381ADDAG10999GA1021+013509999GF104991999999999999999999MA1101351999999MW1051OC100671REMMET027NEW SLP138 8/200 9/300 BLU;
0128281440999991997101818004+58867+060783FM-12+012699999V0200201N00101030001CN0100001N1+00041-00051102021ADDAA199999929AG10000GF108991031051008001071999KA1999M+00301MA1999999100451MD1710101+9999REMSYN011 333 10030;EQDQ01+999990APOSP 
0216064780999991997063020004+50650+005450SY-MT+0178EBLG V0202901N00211006301CN0032001N1+01231+01161100291ADDAG12999AY121021AY221021GA1021+002109999GA2021+003309999GA3071+006309999GF108991071051001501999999MA1100411999999MD1110051+9999MW1101MW2511MW3581OA149900361REMSYN035 333 82706 84711 86621 91107 91204;MET008NEW YLO;
0725913660406041997111012003+08733+167733SY-MT+0002PKWA V0201605N00365033535CN0240005N1+02705+02385101555ADDAA106000021AA224005891AG10005AY181061AY211061GA1021+005495125GA2021+013725065GA3071+033535035GA4071+109735025GD12045+9999999GD22995+9999999GD33995+9999999GD43995+9999999GF107995041081004501061991KA1240M+02951MA1101525101465MD1110051+0091MW1251REMSYN039 333 10295 56432 58009 70058 555 91012;MET080NEW SHRAB34E44 TCU NE AND SW-NW SLP155 60000 70023 8/ 868 T02700238 10278 202950EQDQ01+000000PRSWM2Q02  99998PRCP06Q03  00588PRCP24N01 00000JPWTH 0QNNE71D0 00205F71 0 00204E71D0 00299F71 0 00299E71D0 00499F71 0 00499E71D0 00499F71 0 00499G71 0 00110H71 0 12018H71 0 15045H71 0 23110H71 0 37360K71D0 00075J71 0 00238L71 0 01500C71 0 02998M71 0 29960N71 0 00000Q71 0 10155S71D0 00081R71 0 00270V71D0 00999U71 0 00799X71 0 16007
0055999999999991997120615004-33267+095183FM-18+9999DRIB V02099999999999999999N9999999N9+99999+99999102941ADDAG10999MW1001REMSYN01116936     ]EQDQ01+000002VOVAR 
0054723604230071997032508009+34433-100283NSRDB+059599999V020999999999999999999999999999+99999+99999999999ADDGP10060000001000000001000000001000GR100600000900009
0050536460999991997112003004+38233+109700FM-12+105899999V0203401N00101090001CN0140001N1+00071-00671102631ADDAG10000GF106991021001999999031021MD1210061+9999
0046637660999991997052102004-02283+037833FM-15+1000HKMU V0202201N00211999991CY0099001N1+01601+01501999999ADDAG10999REMMET008NEW CAVOEQDQ01+000000PRSWM2
0151167490999991997111707504+36400+028083FM-15+0011LGRP V0202301N00411220001CN0112651N1+01801+01001101061ADDAG10999GA1021+007509999GA2021+054009999GF104991999999999999999999MA1101021100921REMMET008NEW NOSIEQDQ01+999990APOSP Q02+999990APOSLPQ03+000000PRSWM2
0103725125047871997072507354+41183-078900FM-15+0554KDUJ V0209999C000010015019N0160931N1+01401+01401999999ADDAG11999GA1081+001501999GF108991999999999999999999MA1101961999999REMMET008NEW AO1;EQDQ01+000000PRSWM2
0185064560999991997080317004+50233+004650SY-MT+0299EBFS V0209991V00051036001CN0150001N1+02011+01701101771ADDAG12999GA1021+006909999GA2071+036009999GF107991041081008001051021MA1101801098261MD1610051+9999OA149900101REMSYN035 333 83822 83650 85360 91102 91201;MET008NEW BLU;EQDQ01+000000PRSWM2
0147703894999991997082619534+55583-133083FM-15+0015PAKW V0209999C00001009001CN0048281N1+01601+01401100641ADDAA101000391AG11999GA1071+009001999GA2081+011701999GF108991999999999999999999MA1100641999999MW1101MW2611REMMET032NEW AO2 SLP064 P0001 T01610144 T
0044891080999991997062619004-89000-000300FM-12+275599999V0200401N003119999999N9999999N9-04861+99999999999ADDAG10999MA1999999069231EQDQ01+000002VOVAR 
0078999999999991997082100004+49100-066500FM-13+9999CG26 V0201601N001519999999N0200001N1+01351+99999101901ADDAG12000AY111061AY211061GF105991999999999999999999MW1021REMSYN011 222// ICE;
0071723745931391997062714009+34233-111333NSRDB+149899999V020999999999999999999999999999+99999+99999999999ADDGP10060009401028019001031005101028GQ100600767907069GR100600303913229
0071725125047871997040800009+41183-078900NSRDB+055399999V020999999999999999999999999999+99999+99999999999ADDGP10060001501018000601022001501018GQ100600860927629GR100600071910349
0138723550139451997081607003+34650-098400FM-15+0362KFSI V0201801N00461220001CN0160931N1+02901+01901100641ADDAG11999GF100991999999999999999999GP10060000001000000001000000001000GR100600000900009MA1100811999999REMMET008NEW SLP0EQDQ01+000000PRSWM2
0054723447999991997052510009+36300-092467NSRDB+035099999V020999999999999999999999999999+99999+99999999999ADDGP10060000001000000001000000001000GR100600000900009
0077766793999991997022220454+19433-099100FM-15+2238MMMX V0201101N00261220001CN0096561N1+02301+00001999999ADDAG10000GF100991999999999999999999MA1102401999999MW1041MW2051REMMET005NEW ;
0337727830241491997022111003+46367-117017FM-15+0438LWS  V0201905N00215220005MN0160005N1+00175-00285102945ADDAA101000095AG11999GD10995+9999999GF100991999999999999999999GP10060000001000000001000000001000GR100600000900009MA1102845999999REMMET030NEW AO2 SLP294 T00171028 TSNO;EQDQ01+000000PRSWM2N01 00000JPWTH 0QNNAA1D0 00000BA1 0 00000GA1U0 99999KA1D0 00027JA1 0-00028LA1 0 01000CA1 0 03037NA1 0 00000QA1 0 10294SA1D0 00035RA1 0 00017YA1 0 19004
0116832480999991997061223004-12900-038333FM-15+0006SBSV V0200901N001010300019N0112651N1+02301+02201999999ADDAG10999GA1021+004509999GA2071+030009999GF107991999999999999999999MA1101801999999REMMET005NEW ;EQDQ01+000000PRSWM2
0077999999999991997061002424-38967+006567FM-18+9999DRIB V02099999999999999999N9999999N9+99999+99999102611ADDAG10999MD1710011+9999MW1001SA1+1499REMSYN01117654     ]EQDQ01+000002VOVAR 
0103719060999991997051505004+58100-068417FM-15+0037CYVP V0209991C00001220001CN0241401N1+00201+00001100831ADDAG11999GF100991999999999999999999MA1100811100371REMMET008NEW SLP0EQDQ01+999990APOSP Q02+000000PRSWM2
0125637100999991997050812004-00367+035350FM-12+2184HKKR V0200501N00511220001CN0500001N1+02481+00851999999ADDAA106000091AG10000AY101061AY201061GA1041+007809089GF104991041021008001001001MD1999999+0031MW1031REMSYN017 333 58003 84826;
0074478360999991997080609004+30383+130667FM-12+0038RJFC V0201901N004119999999N9999999N9+02831+02461100631ADDAG10000MA1100541100201MD1710071+9999EQDQ01+999990APOA  Q02+000002VOVAR 
0478722926031541997072320003+33300-117350FM-15+0023NFG  V0202305N00465220001CN0112651N1+02395+01201101581ADDAG10999GA1021+003001999GA2021+009001999GF104995999999999999999999GP10060090501011053401016038901011GQ100600150915649GR100601278913239MA1101591999999REMMET020NEW SLP158 TO2390117EQDQ01+000000PRSWM2N01 00203KCLC1 3N02 00203KCLC2 3N03 99999CCLHTU3N04 00054BDPTP 3N05 00700DHZVS 3N06 30000EALTP 3N07 29915FPRES 3N08 00000JPWTH 3N09 10158ISLVP 3QNNE41 3 00203E41 3 00203G41U3 99999K41 3 00054L41 3 00700C41 3 30000M41 3 29915N41 3 00000Q41 3 10158S41 0 00075V41 0 00599X41 0 23009
0119832480999991997100910004-12900-038333FM-15+0006SBSV V0202001N002110270019N0112651N1+02301+02101999999ADDAG10999GA1021+004809999GA2071+027009999GF107991999999999999999999MA1101901999999REMMET008NEW RERAEQDQ01+000000PRSWM2
0087723046999991997112406354+35917-075700FM-15+0004KMQI V0202901N00261220001CN0112651N1+01001+00801999999ADDAG10999GF100991999999999999999999MA1101661999999REMMET008NEW AO2;EQDQ01+000000PRSWM2
0254722210999991997042309003+30483-086533FM-15+0026KVPS V0203301N00571015001CN0112651N1+01701+01601100101ADDAA103014292AA206014092AG11000GA1021+004501999GA2071+015001999GA3081+027001999GF108991999999999999999999GP10060000001000000001000000001000GR100600000900009MA1100101999999MD1610151+9999REMMET040NEW SLP010 60056 8/56/ 9/61/ 56015 WR//;EQDQ01+000000PRSWM2
0112476340999991997110720004+35383+136867FM-15+0042RJNG V0203201N00051220001CN0112651N1+00601+00201999999ADDAG10999GA1021+009009999GF102991999999999999999999MA1102201999999REMMET017NEW 1CU030 A3020;EQDQ01+000000PRSWM2
0071702770999991997070514009+60117-149450NSRDB+001899999V020999999999999999999999999999+99999+99999999999ADDGP10060002401025014601028001501025GQ100600867904669GR100600075913219
0154711230999991997071301204+53300-113583FM-16+0723CYEG V0202701N005110240019N0241401N1+99999+99999999999ADDAG10999GA1021+006009099GA2021+018009999GA3021+024009999GA4071+075009999GF107991999999999999999999MW1161REMMET039NEW CB2SC1AC1CI1 CB S-SE SHWRS S-SE NW;
0398726810241311997070801003+43567-116217FM-15+0865BOI  V0203505N00415220005MN0160005N1+03005+00445101295ADDAA101000095AG11999GD10995+9999999GF100991999999999999999999GM1006004760690862029005102999999GP10060045301010076401016007701010GQ100600605927399GR100600650913219MA1101525091461REMMET025NEW AO2 SLP129 T03000044;EQDQ01+999990APOSP Q02+000000PRSWM2N01 00000JPWTH 0QNNAA1D0 00000BA1 0 00000GA1U0 99999KA1D0 00040JA1 0 00044LA1 0 01000CA1 0 02998NA1 0 00000QA1 0 10129SA1D0 00086RA1 0 00300YA1 0 35008
0054723676230481997011412009+35183-103600NSRDB+123599999V020999999999999999999999999999+99999+99999999999ADDGP10060000001000000001000000001000GR100600000900009
0129834240999991997071309004-16633-049217SY-MT+0747SBGO V0209991C00001220001CN0200001N1+01401+01201101641ADDAA106000091AG10000GF100991001001999999001001MA1101901999999MD1999999-0131REMSYN011 333 59013;MET008NEW CAVOEQDQ01+000000PRSWM2
0110679690999991997051903004-21050+029367FM-12+086199999V0209991C00001220001CN0450001N1+00631+00341999999ADDAG10000GA1001+999999999GF100991001001999999001001MA1999999092261MD1999999-0141ME1315649REMSYN011 333 59014;
0116726115999991997022515544+43350-072517FM-15+0176KVSF V0202801N00411220001CN0160931N1-01001-02101102791ADDAG11999GF100991999999999999999999MA1102681999999REMMET037NEW AO2 SLP279 T11001211 FZRANO TSNO;EQDQ01+000000PRSWM2
0080702350999991997020505354+61100-155583SAOSP+0484PASV V0201201N00611024001MN0160931N1+00501-00621999999ADDAG10999GD14991+0240099GF108991999999999999999999MA1098881999999MW1001OC101021
0435722926031541997052320003+33300-117350FM-15+0023NFG  V0202405N004150750019N0112651N1+02285+01401101451ADDAG10999GA1081+075001999GF108995999999999999999999GP10060036701011000001016036701011GQ100600136916439GR100601295913329MA1101461999999REMMET020NEW SLP145 T02330139EQDQ01+000000PRSWM2N01 00610KCLC1 3N02 00250CCLHT 3N03 00057BDPTP 3N04 00700DHZVS 3N05 29960EALTP 3N06 29875FPRES 3N07 00000JPWTH 3N08 10145ISLVP 3QNNE41 3 00610G41 3 00250K41 3 00057L41 3 00700C41 3 29960M41 3 29875N41 3 00000Q41 3 10145S41 0 00073V41 0 01099X41 0 24008
0140126000999991997092706004+49800+019000FM-12+039999999V0203101N00301004201CN0040001N1+00991+00881101671ADDAA106000091AG14000AY121061AY221061GF107991071051004501999999IA1099IA2999+00709KA1120N+00931MD1510001+9999MW1101REMSYN017 333 20093 31007;
0058479120999991997012010004+24467+123017FM-12+003699999V0201501N004119999999N9999999N9+02181+01771101381ADDAG10999MA1999999100961MD1210071+9999EQDQ01+000002VOVAR 
0050126700999991997022421004+00000+999999FM-12+999999999V0202101N00501007501CN0100001N1+00721+00381101561ADDAG10000GF107991071051008001999999MD1510011+9999
0071727504999991997020420009+46550-093683NSRDB+036799999V020999999999999999999999999999+99999+99999999999ADDGP10060026301028017701031018601028GQ100600642919649GR100600613914089
0077999999999991997073022324-43767+040167FM-18+9999DRIB V02099999999999999999N9999999N9+99999+99999999999ADDAG10999MD1210011+9999MW1001SA1+0759REMSYN01117514     ]EQDQ01+000002VOVAR 
0150143140999991997062206004+44533+014467FM-12+005399999V0201401N00701220001CN0250001N1+02201+01761100851ADDAA106000091AA224000091AG14000GF102991001001999999001011IA1019KA1999N+01931MA1999999100241MD1510031+9999REMSYN035 333 20193 30/// 70000 92333 92438;
0588723530139671997041109003+35383-097600FM-15+0398OKC  V0200105N00465001225MN0096005N1+00615+00615100895ADDAA101002595AA203008192AA306008092AG11003GA1071+001201999GA2071+010501999GA3081+021001999GD13995+0012259GD23995+0106759GD34995+0213459GF108991999999999999999999GP10060000001000000001000000001000GR100600000900009MA1100915096251MD1010001+9999MW1101MW2455MW3811MW4951REMMET099NEW AO2 WSHFT 0742 PRESFR SLP089 OCNL LTGIC OHD-E TS OHD-E MOV E P0010 60032 T00610061 50000 PNO $;EQDQ01+999990APOSP N01 00070JPWTH 0QNNAA1D0 04004BA1 0 04004AA1D0 04035BA1 0 04035AA1D0 06070BA1 0 06070GA1 0 00004KA1D0 00043JA1 0 00061LA1 0 00600CA1 0 02980NA1 0 00070QA1 0 10089SA1D0 00043RA1 0 00061YA1 0 01009
0085144620999991997111409004+43033+017417FM-12+000599999V0202901N00301220001CN0200001N1+01521+00631101011ADDAG12000GF103991011081008001041001MA1999999100951MD1210371+9999REMSYN011 333 92322;
0171718720999991997052004004+50017-110717FM-15+0716CYXH V0201001N00871033001CN0482801N1+01101-00201101461ADDAG11999GA1021+018009999GA2071+033009999GA3071+075009999GF107991999999999999999999MA1101391093071OC101391REMMET020NEW SC3AC2CI1 SLP146EQDQ01+999990APOSP Q02+000000PRSWM2
0083125600999991997112812004+50233+019033FM-12+0284EPKT V0200601N00301007501CN0060001N1-00131-00251102071ADDAA106999929AG10000AY121061AY221061GF108991061051008001021999MD1710161+9999MW1671
0093607150999991997080815304+36833+010233FM-15+0004DTTA V0201201N00821999991CY0099001N1+03501+01901101121ADDAG10999MA1101081101081REMMET008NEW CAVOEQDQ01+999990APOSP Q02+999990APOSLPQ03+000000PRSWM2
0055999999999991997053006004-43750-002917FM-18+9999DRIB V02099999999999999999N9999999N9+99999+99999100781ADDAG10999MW1001REMSYN01117658     ]EQDQ01+000002VOVAR 
0381727640240111997102602003+46767-100750FM-15+0502BIS  V0200805N00155220005MN0160005N1-00725-00945102965ADDAA101000095AG11999GD10995+9999999GF100991999999999999999999GM1006000000190000019000001999999GP10060000001000000001000000001000GR100600000900009MA1102645096651REMMET025NEW AO2 SLP296 T10721094;EQDQ01+999990APOSP Q02+000000PRSWM2N01 00000JPWTH 0QNNAA1D0 00000BA1 0 00000GA1U0 99999KA1D0 00015JA1 0-00094LA1 0 01000CA1 0 03031NA1 0 00000QA1 0 10296SA1D0 00019RA1 0-00072YA1 0 08003
0087723065999991997052020354+35633-077400FM-15+0008KPGV V0209999C00001220001CN0160931N1+02401+02201999999ADDAG10000GF100991999999999999999999MA1100981999999REMMET008NEW AO1;EQDQ01+000000PRSWM2
0087586650999991997110800004+28650+120083FM-12+000999999V0202901N00201090001CN0070001N1+01341+01071102731ADDAA106000091AG10000GF107991001001999999001021MD1210141+0011MW1101REMSYN011 333 05102;
0119172190999991997042401504+38267+027150FM-15+0120LTBJ V0209991C00001220001CN0112651N1+01001+00901999999ADDAG10999GA1021+009009999GA2021+030009999GF104991999999999999999999MA1101191999999REMMET008NEW NOSIEQDQ01+000000PRSWM2
0098408890999991997013012004+25883+054483FM-12+001799999V0209991C00001220001CN0070001N1+02141+01431101481ADDAA106000091AG10000AY111061AY201061GF102991011041012501011001MA1999999101431MD1610191+9999MW1051
0082589740999991997081306004+25633+122083FM-12+010299999V0202401N00301220001CN0040001N1+03111+02601100861ADDAA106000091AG10000GF101991011051008001001001MA1999999099711MD1710151+9999MW1101
0081873200999991997091908004-30367-066283FM-12+046199999V0209991C00001220001CN0100001N1+01531+00651100401ADDAG10999GA1001+999999999GF100991001001999999001001MA1999999095221MD1710131+9999
0054725478999991997021512009+42433-093867NSRDB+034299999V020999999999999999999999999999+99999+99999999999ADDGP10060000001000000001000000001000GR100600000900009
039272525014852199711061451C+41250-080667FM-15+0360YNG  V0200905N00465045725MN0160005N1+00445+00005102665ADDAA101000095AG11000GA1071+045001999GA2081+075001999GD13995+0457259GD24995+0762059GF108991999999999999999999MA1102575098261MD1010001+9999REMMET037NEW AO2 SLP266 8/028 T00440000 50000;EQDQ01+999990APOSP Q02+000000PRSWM2N01 00000JPWTH 0QNNAA1D0 04150BA1 0 04150AA1D0 06250BA1 0 06250GA1 0 00150KA1D0 00032JA1 0 00000LA1 0 01000CA1 0 03029NA1 0 00000QA1 0 10266SA1D0 00040RA1 0 00044YA1 0 09009
0135718820999991997072219004+50967-118183FM-15+0443CYRV V0209991C00001220001CN0144841N1+01901+01201101511ADDAG11999GA1021+021009999GA2021+024009999GF104991999999999999999999MA1101491096281REMMET008NEW SLP1EQDQ01+999990APOSP Q02+000000PRSWM2
0077999999999991997081118034+50517-016417FM-18+9999DRIB V02099999999999999999N9999999N9+99999+99999100031ADDAG10999MD1710161+9999MW1001SA1+1669REMSYN01162556     ]EQDQ01+000002VOVAR 
0071727459999991997062613009+47817-091833NSRDB+045599999V020999999999999999999999999999+99999+99999999999ADDGP10060029801028057501031009801028GQ100600696907729GR100600459913229
0364722480139571997120610003+32450-093817FM-15+0077SHV  V0203405N00415024385MN0160005N1+00225-00725102405ADDAA101000095AG11999GA1081+024001999GD14995+0243859GF108991999999999999999999GP10060000001000000001000000001000GR100600000900009MA1102405101451REMMET025NEW AO2 SLP240 T00221072;EQDQ01+999990APOSP Q02+000000PRSWM2N01 00000JPWTH 0QNNAA1D0 06080BA1 0 06080GA1 0 00080KA1D0 00019JA1 0-00072LA1 0 01000CA1 0 03024NA1 0 00000QA1 0 10240SA1D0 00036RA1 0 00022YA1 0 34008
0074726650999991997120222484+44350-105533FM-16+1230KGCC V0203401N00411999999CN9999999N9+99999+99999999999ADDAG11999REMMET020NEW AO1 000 T1028104EQDQ01+000002VOVAR Q02+000000PRSWM2
0254718210999991997091112004+49767-077817SY-MT+0281CYNM V0200801N00261000901CN0060001N1+01301+01301101701ADDAA106011091AA224015091AG13001GA1081+000909999GA2081+011409999GA3081+018009999GF108991999999000751999999KA1240M+01581KA2120N+01231MA1101631098291MD1310011+9999MW1611REMSYN023 333 10158 20123 70155;MET030NEW PCPN 2.0MM PAST HR SLP170;EQDQ01+000003PRSWM1
0122718890999991997021120004+49467-119600FM-15+0344CYYF V0201801N003610036019N0048281N1-00201-00401102111ADDAG11999GA1081+003609999GF108991999999999999999999MA1101931097851MW1101MW2711REMMET015NEW ST8 SLP211;EQDQ01+999990APOSP 
0148060700999991997090110504+56300+010617FM-15+0025EKAH V0201401N00571220001CN0112651N1+02201+01401101831ADDAG11999GA1021+009009999GA2021+024009999GF104991999999999999999999MA1101801101541REMMET005NEW ;EQDQ01+999990APOSP Q02+999990APOSLPQ03+000000PRSWM2
0058477470999991997072901004+35533+134817FM-12+000499999V0203301N001519999999N9999999N9+02521+02271100611ADDAG10999MA1999999100561MD1210091+9999EQDQ01+000002VOVAR 
0055999999999991997091315004-42617-135183FM-18+9999DRIB V02099999999999999999N9999999N9+99999+99999100101ADDAG10999MW1001REMSYN01154939     ]EQDQ01+000002VOVAR 
0101071570999991997053010304+49017+002533FM-15+0109LFPG V0200601N00621999991CY0099001N1+02001+01101102651ADDAG10999MA1102611101331REMMET016NEW CAVOK NOSIG;EQDQ01+999990APOSP Q02+999990APOSLPQ03+000000PRSWM2
0071723110138731997100920009+33950-083333NSRDB+024499999V020999999999999999999999999999+99999+99999999999ADDGP10060053001010049801016021601010GQ100600508922329GR100600865913709
0029992430999991997082302004+17200-157800FM-18+0003DB24 V0200701N008019999999N9999999N9+02701+99999101331ADDAG10999EQDQ01+000002VOVAR 
0098725326999991997061217344+41750-089667FM-15+0197KSQI V0209999C00001220001CN0112651N1+02301+01701999999ADDAA106000091AG11000GF100991999999999999999999MA1100641999999REMMET008NEW AO1;EQDQ01+000000PRSWM2
0084943110999991997011707004-20500+120167FM-12+004799999V0200201N00461090001CN0200001N1+03201+02491100591ADDAA106000091AG10999AY121999AY221999GF106991011011008001051061MA1999999100481MW1031
0063999999999991997103107354+40567+136817FM-18+9999DRIB V02099999999999999999N9999999N9+99999+99999999999ADDAG10999MW1001SA1+1299REMSYN01121938     ]EQDQ01+000002VOVAR 
0142765930999991997102321003+21300-089817FM-12+001499999V0200501N00201220001CN0200001N1+02661+02271101431ADDAA106000091AG10000GA1021+006001081GF102991021021002501001001IA1019MA1999999101271MD1710141-0281REMSYN035 333 011// 30/// 59028 82820 92011;
0120032460999991997030213004+54983-001600FM-12+004799999V0202201N00931004201CN0300001N1+00811-00491100751ADDAG12999AY181011AY211011GA1041+004509099GF105991051091004501001001MD1310291+9999MW1801REMSYN023 333 84915 90710 91148;
0075471260999991997121010304+36933+126450FM-16+0302RKTM V0201001N005110090019N0080001N1+99999+99999999999ADDAG10999GA1071+009009999GF107991999999999999999999MW1711REMMET008NEW CIG0
