0073999999999991998122702004+54200+008400FM-13+9999DBJM V0202301N018019999999N9999999N9+00821+00601099041ADDAG12999MD1710111+9999SA1+0439REMSYN013 22211 06043;EQDQ01+000002VOVAR 
0112607750999991998031615004+32317+010400FM-12+0301DTTD V0200201N00621007801CN0120001N1+01491+00111101941ADDAA106000091AG10000GA1061+007809089GF106991061021008001001001MA1999999098371MD1310061+9999REMSYN011 333 86826;
0055999999999991998061819004+52917-016683FM-18+9999DRIB V02099999999999999999N9999999N9+99999+99999999999ADDAG10999MW1001REMSYN01162553     ]EQDQ01+000002VOVAR 
0125724507139811998022021544+37667-095483FM-15+0305KCNU V0203401N00411220001CN0160931N1+01201+00101101561ADDAG11999GA1021+014401999GF102991999999999999999999MA1101521999999REMMET030NEW AO2 SLP156 T01170006 TSNO;EQDQ01+000000PRSWM2
0103855740999991998022601004-33383-070783FM-15+0476SCEL V0202001N00311220001CN0112651N1+02201+01001999999ADDAG10999GA1021+012009099GF102991999999999999999999MA1101191999999REMMET008NEW NOSIEQDQ01+000000PRSWM2
0169434970999991998121718004+06117+081133FM-12+002099999V0209999999999045001CN0200001N1+02581+02331101191ADDAA115999929AA224000591AG10005AY181061AY221061GA1021+005409089GF106991021011004501071999MA1999999101031MD1999999+0001MW1011REMSYN035 333 58000 69907 70005 82818 86460;
0093723816031591998072409504+34733-118217FM-15+0715KWJF V0202401N00311220001CN0402331N1+02101+00801999999ADDAG10999GF100991999999999999999999MA1101591999999REMMET014NEW T02120081;EQDQ01+000000PRSWM2
0140879250999991998112207004-51617-069283FM-15+0019SAWG V0203201N01441220001CN0112651N1+01201-00401099221ADDAG10999GA1021+060009999GF104991999999999999999999MA1099191099001OC101701REMMET005NEW ;EQDQ01+999990APOSP Q02+999990APOSLPQ03+000000PRSWM2
0148804190999991998070402004+10117-064683FM-15+0007SVBC V0202301N003610240019N0112651N1+02601+02401101101ADDAG10999GA1021+003009099GA2071+024009999GF107991999999999999999999MA1101081101011REMMET005NEW ;EQDQ01+999990APOSP Q02+999990APOSLPQ03+000000PRSWM2
0169479810999991998011706004+24783+141317FM-15+0116RJAW V0201101N00871004501CN0112651N1+02101+01901999999ADDAA106000091AG10000GA1021+003009999GA2071+004509999GA3081+030009999GF108991999999999999999999MA1101391999999REMMET031NEW 1CU010 5CU015 8AC100 A2995;EQDQ01+000000PRSWM2
0195065900999991998040119004+49617+006217SY-MT+0379ELLX V0202601N00401030001CN0060001N1+01191+00781101231ADDAG10999GA1021+004509999GA2071+030009999GF199999041051004501031021MA1101191096781MD1310051+9999OA149900461REMSYN029 333 84615 85360 91109 91207;MET008NEW NOSIEQDQ01+000062SCOTCVQ02+000000PRSWM2
0135718310999991998081013004+49417-082467FM-15+0227CYYU V0202301N005710240019N0096561N1+01801+01501100901ADDAG11999GA1021+009009999GA2071+024009999GF107991999999999999999999MA1100881098191MW1051REMMET018NEW SC2AC5 SLP090;EQDQ01+999990APOSP 
0286723546139691998030500003+36733-097100FM-15+0307KPNC V0200401N007710060019N0160931N1+00801-00101100961ADDAA106000091AG11000GA1081+006001999GF108991999999999999999999GM1006000360390001039003503999999GP10060006302008001102015006102008GQ100600795925419GR100600253913919KA1999M+00971KA2999N+00721MA1100951999999MD1310141+9999REMMET039NEW SLP096 T00821012 10097 20072 53014;EQDQ01+000000PRSWM2
0106301650999991998120903004+58567+116000FM-12+042299999V0209991C00001075001CN0100001N1-03561-03831103371ADDAG12001AY171031AY221031GF108991001001999999001071MA1999999097341MD1710101+9999MW1711EQDQ01+999990APOSP 
0087702070266271998121701334+63883-160800FM-15+0006PAUN V0200801N00361220001CN0160931N1-02401-03101999999ADDAG11999GF100991999999999999999999MA1103621999999REMMET008NEW AO1;EQDQ01+000000PRSWM2
0177724390938221998073015314+39850-089667FM-16+0187KSPI V0200801N00361012601CN0040231N1+01701+01601101641ADDAG10014GA1071+012601999GA2081+015001999GF108991999999999999999999MA1101661099431MW1651REMMET028NEW AO2 SFC VIS 2 1/2 P0010;EQDQ01+999990APOSP Q02+999990APOSLPQ03+000100PRSWM3
0096411360999991998011302004+17467+047117FM-15+0722OESH V0201301N99999999999CN9999999N9+99999+99999999999ADDAG10999REMMET026NEW 0KT CAVOK 17/11 Q1015;EQDQ01+010291WOSPD Q02+000002VOVAR Q03+000000PRSWM2
0089407540999991998101417004+35683+051350FM-15+1191OIII V0209991C00001999991CY0099001N1+01901+00301999999ADDAG10999MA1102511088911REMMET020NEW CAVOK 888.7 A302EQDQ01+999990APOSP Q02+000000PRSWM2
0123763943999991998062213504+25783-100100FM-15+0387MMMY V0200901N003110066019N0096561N1+02701+02301999999ADDAG10999GA1071+006609999GF107991999999999999999999MA1101661999999MD1010031+9999REMMET014NEW 50003 HZY;EQDQ01+000000PRSWM2
0109582650999991998061718004+32067+121600FM-12+001099999V0201401N00101090001CN0150001N1+02071+01991100341ADDAA106000091AG10000GF106991021001999999041021KA1999M+02541MA1999999100221MD1710101+9999REMSYN011 333 10254;
0052151200999991998111317004+46783+023567FM-12+0413LRCL V0203201N00201220001CN0100001N1+00461+99999999999ADDAG12999GA1001+999999999GF100991001001999999001001
0138477740999991998060107304+34417+135250FM-15+0008RJBB V0202301N004619999999N0112651N1+02501+01401999999ADDAG10999GA1021+018009999GA2071+999999999GF107991999999999999999999MA1100811999999REMMET027NEW NOSIG RMK 1SC060 A2977;EQDQ01+000000PRSWM2
0043992490999991998121411004+38200-123300FM-18+0003DB24 V0203201N012019999999N9999999N9+01121+99999102471ADDAG10999MD1310101+9999EQDQ01+000002VOVAR 
0056033850999991998032008004+53483+000083FM-12+000899999V0202801N003119999999N0170001N1+00711+00481103821ADDAG12999MD1710041+9999REMSYN023 555 7/097 84/32 86/62;
0062719670999991998061621004+61367-139050FM-12+0806CWDB V0201001N00721220001CN0750001N1+01601+00401101491ADDAA106000091AG14000GF104991999999017501999999MA1999999091991
0071725254999991998031512009+41333-084417NSRDB+021999999V020999999999999999999999999999+99999+99999999999ADDGP10060000002009000002021000002009GQ100600892909319GR100600003901969
0154911700225081998082101004+21483-158033FM-15+0255PHHI V0200701N00871009001CN0112651N1+02601+01701101771ADDAG10999GA1021+006009999GA2071+009009999GA3071+012009999GF107991999999999999999999MA1101761999999MW1161OC101181REMMET032NEW SLP177 ESTMD SLP 8/800 9/600
0103703817999991998122319454+58200-136350FM-15+0000PAEL V0209999C00001220001CN0402331N1-00201-00401999999ADDAG11999GA1021+009001999GF102991999999999999999999MA1101661999999REMMET008NEW NOSPEQDQ01+000000PRSWM2
0071722977931841998052014009+33683-117867NSRDB+001699999V020999999999999999999999999999+99999+99999999999ADDGP10060006102008018202015003702008GQ100600825907089GR100600175913349
0078105550999991998081716004+50983+011317FM-12+026499999V0203001N002119999999N9999999N9+03001+00911101261ADDAG12999MA1999999098271MD1610161+9999REMSYN011 333 55310;EQDQ01+000002VOVAR 
0076471150999991998062021004+37483+130900FM-12+022399999V0200501N00261036001CN0120001N1+01721+01611101501ADDAA106000091AG10000GF108991041061004501011999MA1999999098901MD1210021+9999
034672410013733199802111154C+37333-079200FM-15+0286LYH  V0209999C00005220005MN0080005N1-00225-00285102055ADDAA101000095AA206000091AG10000GD10995+9999999GF100991999999999999999999KA1999M+00001KA2999N-00281MA1102005999999MD1510021+9999MW1101MW2455REMMET043NEW AO2 SLP205 T10221028 10000 21028 55002;EQDN01 00070JPWTH 0QNNAA1D0 00000BA1 0 00000GA1U0 99999KA1D0 00027JA1 0-00028LA1 0 00500CA1 0 03012NA1 0 00070QA1 0 10205SA1D0 00028RA1 0-00022YA1 0 00000
0195702595999991998052023033+60483-151033FM-15+0033PASX V0200901N00671220001CN0160931N1+01001-00101999999ADDAG11999GA1021+013801999GA2021+027001999GF104991999999999999999999GP10060071201025060901028025101025GQ100600408919069GR100601010913349MA1100001999999OC100821REMMET008NEW AO1;EQDQ01+000000PRSWM2
0058477670999991998091922004+34450+133250FM-12+000399999V0200401N002119999999N9999999N9+02591+02251101421ADDAG10999MA1999999101391MD1310051+9999EQDQ01+000002VOVAR 
0137403570999991998030209004+30900+041133SY-MT+0552OERR V0203001N00511220001CN0100001N1+01441+00601101711ADDAG10000GA1021+009009999GF102991021051008001001001MA1101691095311MD1999999+0531REMSYN017 333 58053 82630;MET005NEW ;EQDQ01+000000PRSWM2
0074479420999991998012810004+27433+128700FM-12+0029RJKB V0203601N011319999999N9999999N9+01501+01121102421ADDAG10999MA1102341102071MD1210231+9999EQDQ01+999990APOA  Q02+000002VOVAR 
0056032130999991998090919004+54317-003400FM-12+000999999V0202301N005719999999N0250001N1+01601+01391098911ADDAG12999MD1210201+9999REMSYN023 555 7/097 82/44 86/50;
0128228920999991998032518004+60717+028800FM-12+001599999V0201901N00101220001CN0200001N1-00581-00921102891ADDAA106000091AG14000GF103991031001999999021001KA1999M+00071MA1999999102721MD1710091+9999REMSYN011 333 10007;EQDQ01+999990APOSP 
0116011120999991998042700504+65467+012217FM-15+0009ENBN V0201501N002610090019N0112651N1+00901+00501999999ADDAG10999GA1021+006009999GA2071+009009999GF107991999999999999999999MA1099391999999REMMET005NEW ;EQDQ01+000000PRSWM2
0058476780999991998082319004+33100+139783FM-12+008099999V0200701N002619999999N9999999N9+02401+02311101151ADDAG10999MA1999999100231MD1810091+9999EQDQ01+000002VOVAR 
0174726546149461998091211534+44900-097150FM-15+0533KATY V0200101N00261220001CN0160931N1+01701+01601101301ADDAA106000091AG11000GF100991999999999999999999KA1999M+01941KA2999N+01721MA1101391999999MD1510011+9999REMMET044NEW AO2 SLP130 T01720161 10194 20172 55001 TEQDQ01+000000PRSWM2
0131025360999991998020112004+57783+013167FM-12+029999999V0202401N004110024019N0019001N1-00361-00391101501ADDAA106001091AA299000391AG10000GA1031+001809999GA2051+002409999MA1999999097791MD1710071+9999REMSYN029 333 69935 83/06 85/08 88/10;
0054724365999991998030110009+38250-086950NSRDB+016199999V020999999999999999999999999999+99999+99999999999ADDGP10060000002000000002000000002000GR100600000900009
0098725496999991998081323454+42600-095233FM-15+0454KSLB V0209999C00001220001CN0160931N1+02801+02101999999ADDAA106000091AG11000GF100991999999999999999999MA1101831999999REMMET008NEW AO1;EQDQ01+000000PRSWM2
0077537720999991998050314004+37783+112550FM-15+0779ZBYN V0200901N00601999991CY0099001N1+01901+00901999999ADDAG10999MA1101391092421REMMET008NEW CAVOEQDQ01+999990APOSP Q02+000000PRSWM2
0071725114999991998090719009+39917-076867NSRDB+014499999V020999999999999999999999999999+99999+99999999999ADDGP10060055602008028102015033702008GQ100600391921469GR100601044913469
0100789250999991998030413004+14600-061000FM-16+0004TFFF V0201001N005710069019N0112651N1+99999+99999999999ADDAG10999GA1071+006909999GF107991999999999999999999REMMET020NEW 28 /22 Q1016 NOSEQDQ01+000000PRSWM2
0136170600999991998052404504+40967+028817FM-15+0037LTBA V0209991C000010300019N0070001N1+01501+01301999999ADDAG11999GA1021+010509999GA2071+030009999GF107991999999999999999999MA1101491999999REMMET025NEW NOSIG (WT18 00000KT);EQDQ01+000000PRSWM2
0122837800999991998021220004-23617-046650FM-15+0803SBSP V0201501N00461001501CN0040001N1+01701+01601999999ADDAG10999GA1071+001509999GA2081+003009999GF108991999999999999999999MA1102201092911MW1611REMMET005NEW ;EQDQ01+999990APOSP 
0166784790999991998061321004+18567-068367SY-MT+0012MDPC V0200901N00701220001CN0160001N1+02881+02471101221ADDAA106000091AG10000GA1021+007509999GF103991031021008001001001IA1019MA1101191999999MD1710111-0141REMSYN029 333 02200 30/// 59014 83830;MET005NEW ;EQDQ01+000000PRSWM2
0255423690999991998071409004+26750+080883SY-MT+0128VILK V0202301N00411009001CN0040001N1+02861+02721099951ADDAA106000791AA299001091AG10000AY151031AY221031GA1021+003609999GA2021+007509999GA3021+009009099GA4071+030009999GF108991051091004501021999MA1100001999999MD1999999+0211MW1051MW2501REMSYN041 333 58021 6997/ 84610 84825 81930 87459;MET020NEW TEMPO 1500 TSRA;
0054723654999991998012811009+35883-106283NSRDB+217999999V020999999999999999999999999999+99999+99999999999ADDGP10060000002000000002000000002000GR100600000900009
0170108560999991998012006204+48183+010867FM-15+0562ETSL V0202401N00361002101CN0040001N1-00101-00201999999ADDAA106999999AG12000GA1071+002109999GA2081+004509999GF108991999999999999999999MA1100711094221MW1101MW2711REMMET020NEW GRN GRN TEMPO YLEQDQ01+999990APOSP Q02  00002PRCP06
0071722748999991998081922009+32950-111767NSRDB+044699999V020999999999999999999999999999+99999+99999999999ADDGP10060078102008075602015015402008GQ100600341923999GR100601103913349
0071725469999991998113018009+41033-093367NSRDB+032099999V020999999999999999999999999999+99999+99999999999ADDGP10060044202009078402021008802009GQ100600633917169GR100600633914069
0096467350999991998101818004+23500+119500FM-12+002199999V0200401N00571220001CN0100001N1+02431+02011101191ADDAA106000091AG10000GF102991021001999999021001MA1999999101061MD1710091+9999REMSYN011 555 30829;
0043996300999991998112808004+36600-074800FM-18+0005DB63 V0209991C000019999999N9999999N9+01241+99999102101ADDAG10999MD1210161+9999EQDQ01+000002VOVAR 
0236724855231531998051107503+38067-117083FM-15+1655TPH  V0203605N005250274359N0400005N1+00805-00101101135ADDAG10999GA1071+027001999GD13995+9999999GF107991999999999999999999MA1101421999999REMMET008NEW SLP1EQDQ01+000000PRSWM2N01 00000JPWTH 0QNNE71D0 00499F71 0 00499G71 0 00090L71 0 02500N71 0 00000Q71 0 10113S71D0 00046R71 0 00080X71 0 36010
0058477780999991998040211004+33450+135767FM-12+007599999V0203001N004119999999N9999999N9+01031+00041101541ADDAG10999MA1999999100631MD1210411+9999EQDQ01+000002VOVAR 
0029992620999991998082007004+17500-152600FM-18+0003DB26 V0200601N008019999999N9999999N9+02581+99999101601ADDAG10999EQDQ01+000002VOVAR 
0109084820999991998120421004+36667-004483SY-MT+0007LEMG V0203101N00511220001CN0150001N1+00961+00191101631ADDAG10000GF101991011001999999041001MA1101591101541MD1210231+9999REMMET016NEW CAVOK NOSIG;EQDQ01+000000PRSWM2
0071722786231041998112118009+33300-111667NSRDB+041299999V020999999999999999999999999999+99999+99999999999ADDGP10060053702008086402015008702008GQ100600587915179GR100600727914029
0155725477999991998041019053+41983-095383FM-15+0388KDNS V0203201N00151220001CN0160931N1+01501+00201999999ADDAG11999GF100991999999999999999999GP10060088802008091202015013102008GQ100600341918329GR100601127913629MA1102271999999REMMET008NEW AO1;EQDQ01+000000PRSWM2
0055999999999991998020320484-36683-020217FM-18+9999DRIB V02099999999999999999N9999999N9+99999+99999999999ADDAG10999MW1001REMSYN01117539     ]EQDQ01+000002VOVAR 
0112946720999991998022406004-34933+138517FM-15+0004YPAD V0203501N00771999991CY0099001N1+03901+00301101111ADDAA106000091AG10000MA1101081101071REMMET016NEW CAVOK NOSIG;EQDQ01+999990APOSP Q02+999990APOSLPQ03+000000PRSWM2
0058952050999991998070904004-17367+123667FM-12+000799999V0201501N006719999999N9999999N9+02541+00931101561ADDAG10999MA1999999101481MD1710191+9999EQDQ01+000002VOVAR 
0110479310999991998123109594+26350+127770FM-15+0045RODN V0200301N007210105019N0112651N1+01801+01401102171ADDGD14991+0105099GF108991999999999999999999MA1102171999999MW1001OC100871REMMET028NEW SLP217 8/5// 9/8// WR//;
0071725118147511998021120009+40217-076850NSRDB+010499999V020999999999999999999999999999+99999+99999999999ADDGP10060012402009000002021012402009GQ100600618921579GR100600662914049
0126162190999991998082803004+42467+012983SY-MT+1875LIRK V0209991C00001000151CN0000001N1+00981+00791999999ADDAG11000AY141031AY241031GA1091+000159999GF109991091999999999999999MA1101491080951MD1810131+9999ME1314659MW1451REMMET005NEW ;
0141999999999991998060906004+27300-089800FM-13+99993EXI V0201601N009319999999N0200001N1+02781+02601101781ADDAG10000AY121061AY221061GF105991999011004501001001MD1010021+9999MW1031REMSYN041 22200 0428/ 20201 307// 40502 80265 ICE;EQDQ01+000042SCOTLC
0167074810999991998072812304+45733+005083FM-15+0240LFLL V0203501N00461030001CN0112651N1+02201+01201101541ADDAG10999GA1021+012009999GA2071+030009999GA3071+069009999GF107991999999999999999999MA1101591098781REMMET008NEW NOSIEQDQ01+999990APOSP Q02+999990APOSLPQ03+000000PRSWM2
0145474880999991998060405004+41767+140817FM-15+0036RJCH V0201001N00511002401CN0112651N1+00901+00801999999ADDAG11999GA1021+001209999GA2071+002409999GA3071+003609999GF107991999999999999999999MA1100811999999MW1801REMMET031NEW 2ST004 5ST008 7ST012 A2979;
0147562570999991998101200004+30000+100267FM-12+395099999V0209991C00001220001CN0300001N1+00331+00021999999ADDAA106000091AA224003091AG10000GA1001+999999999GF100991001001999999001001IA2999-00089MA1999999063411MD1210081+0001REMSYN023 333 00003 31008 70032;
0095725346948661998120917454+41867-087600FM-15+0181KCGX V0202401N00621220001CN0112651N1+00801-00101999999ADDAA106000091AG11000GF100991999999999999999999MA1102911999999REMMET005NEW ;EQDQ01+000000PRSWM2
0055999999999991998062400004+15150+138133FM-18+9999DRIB V02099999999999999999N9999999N9+99999+99999999999ADDAG10999MW1001REMSYN01152536     ]EQDQ01+000002VOVAR 
0054722030128441998062604009+26683-080100NSRDB+000699999V020999999999999999999999999999+99999+99999999999ADDGP10060000002000000002000000002000GR100600000900009
0054727452999991998060604009+47850-096617NSRDB+027399999V020999999999999999999999999999+99999+99999999999ADDGP10060000002000000002000000002000GR100600000900009
0106969370999991998030706004-07217+113717FM-12+0003WRSS V0209991C00001045001CN0110001N1+03131+02451100871ADDAA106000091AA224999929AG10000GA1031+006009089GF106991031011008001021011REMSYN023 333 56000 79999 83820;
0156284190999991998021718004+56267+054900FM-12+009999999V0200301N00201030001CN0040001N1-02131-02311099241ADDAA199003091AG10001AY171061AY231061GF108991081001999999021999KA1120M-02141MA1999999097871MD1710091+9999MW1711REMSYN017 333 11214 92980;EQDQ01+999990APOSP 
0069949870999991998071717004-42000+148283FM-12+005699999V0203001N004119999999N9999999N9+00481+00121102181ADDAA106000091AG10999MA1999999101491MD1710071+9999EQDQ01+000002VOVAR 
045272314013881199806122050C+35217-080933FM-15+0220CLT  V0202205N00675220005CN0160005N1+03385+02145101195ADDAA101000095AG10000GA1021+015001081GA2021+027001999GA3021+060001999GD11995+9999999GD21995+9999999GD31995+9999999GF102991999999999999999999MA1101295098501MD1710171+9999REMMET044NEW TCU DSNT NW SLP119 8/233 T03380214 57017EQDQ01+999990APOSP Q02+000000PRSWM2N01 00000JPWTH 0QNNE71D0 00299F71 0 00199E71D0 00299F71 0 00199E71D0 00299F71 0 00199G71U0 99999K71D0 00071J71 0 00214L71 0 01000C71 0 02991N71 0 00000Q71 0 10119S71D0 00093R71 0 00338X71 0 22013
0135108530999991998081919204+48717+011217FM-15+0387ETSN V0200201N00211220001CN0112651N1+02101+01101101821ADDAG11999GA1021+075009999GF102991999999999999999999MA1101901097381REMMET008NEW BLU+EQDQ01+999990APOSP Q02+999990APOSLPQ03+000000PRSWM2
0125726183999991998070602544+44050-070950FM-15+9999KIZG V0209991C00001220001CN0128741N1+01201+01201101871ADDAG11000GF100991999999999999999999MA1101861999999MD1110151+9999REMMET032NEW AO2 SLP187 T01220117 51015 TEQDQ01+000000PRSWM2
0100724385999991998071715454+40117-085617FM-15+0280KAID V0203201N00211220001CN0160931N1+02701+99999999999ADDAG11999GA1021+060001999GF102991999999999999999999MA1101691999999REMMET005NEW ;EQDQ01+000000PRSWM2
0100784850999991998122317004+18433-069667FM-15+0018MDSD V0200901N004110048019N0060001N1+02901+02101999999ADDAG10999GA1071+004809999GF107991999999999999999999MA1101391999999REMMET005NEW ;EQDQ01+000000PRSWM2
0242726685999991998100718003+45533-100433FM-15+0508KMBG V0202001N00461220001CN0160931N1+01601+00601102101ADDAA106000091AG11000GF100991999999999999999999GP10060057402008068202015016202008GQ100600530916149GR100600824913699KA1999M+01561KA2999N+00001MA1102071999999MD1810041+9999REMMET044NEW AO2 SLP210 T01560056 10156 20000 58004 TEQDQ01+000000PRSWM2
0054703670253221998013011009+58417-135700NSRDB+001299999V020999999999999999999999999999+99999+99999999999ADDGP10060000002000000002000000002000GR100600000900009
0081590650999991998011121004+24467+111567FM-12+009199999V0202701N00101015001CN0180001N1+00861+00431101971ADDAA124999929AG10000GF107991071051017501999999MD1710151+9999REMSYN011 333 79999;
0093012410999991998010821504+63700+009600FM-15+0007ENOL V0201301N00571999991CY0099001N1+00001-00401100861ADDAG10999MA1100811100751REMMET008NEW CAVOEQDQ01+999990APOSP Q02+999990APOSLPQ03+000000PRSWM2
0071723446139711998111423009+36267-093150NSRDB+041999999V020999999999999999999999999999+99999+99999999999ADDGP10060004902008017502015003102008GQ100600843924239GR100600140913979
0076538210999991998031809004+36767+107200FM-12+132299999V0203401N00601015001CN0090001N1-00201-01641102821ADDAG10000GF108991081051017501999999MD1210301+0181MW1071REMSYN011 333 01871;
0116703210999991998072403504+59050-158517FM-15+0029PADL V0200801N003610180019N0321861N1+01701+00701999999ADDAG11999GA1021+013501999GA2071+018001999GF107991999999999999999999MA1100471999999REMMET005NEW ;EQDQ01+000000PRSWM2
0112477270999991998012713004+35800+140017FM-15+0033RJTL V0203601N00211220001CN0112651N1+00101-00601999999ADDAG10999GA1021+018009999GF104991999999999999999999MA1102301999999REMMET017NEW 3SC060 A3024;EQDQ01+000000PRSWM2
0055999999999991998031621174+46333-064483FM-18+9999DRIB V02099999999999999999N9999999N9+99999+99999999999ADDAG10999MW1001REMSYN01144733     ]EQDQ01+000002VOVAR 
0055999999999991998092306004+84217-100783FM-18+9999DRIB V02099999999999999999N9999999N9+99999+99999999999ADDAG10999MW1001REMSYN01148111     ]EQDQ01+000002VOVAR 
0168076900999991998081703004+43650+007200SY-MT+0010LFMN V0203401N00211220001CN0120001N1+02271+01741101671ADDAA103000291AA299000191AG10000GA1021+027009999GF103991011051004501081001MA1101591101371MD1610041+9999REMSYN023 333 69927 81610 83359;MET008NEW NOSIEQDQ01+000000PRSWM2
0109724507139811998121715544+37667-095483FM-15+0305KCNU V0209999C00001220001CN0160931N1+00401-00301102671ADDAG11999GF100991999999999999999999MA1102611999999REMMET030NEW AO2 SLP267 T00391033 TSNO;EQDQ01+000000PRSWM2
0125306030999991998102312004+53933+102050FM-12+045899999V0203001N00101220001CN0100001N1-00321-00671104031ADDAA106000091AG14000GA1001+999999999GF100991001001999999001001KA1999M+00161MA1999999098201MD1210061+9999REMSYN011 333 10016;
0087945490999991998082102004-26550+151833FM-12+043199999V0201301N00261007501CN0030001N1+01631+01601102301ADDAG10999AY161999AY261999GF108991081051008001999999MA1999999097081MD1710161+9999MW1631
0100724237999991998061214454+37733-087167FM-15+0124KOWB V0202401N00621220001CN0112651N1+02901+99999999999ADDAG11000GA1021+004809999GF104991999999999999999999MA1101151999999REMMET005NEW ;EQDQ01+000000PRSWM2
0104743945147101998040912534+42933-071433FM-15+0071KMHT V0201801N00151220001CN0160931N1+01001+00401101101ADDAG11999GF100991999999999999999999MA1100951999999REMMET025NEW AO2 SLP110 T01000039;EQDQ01+000000PRSWM2
0109377890999991998110409004+40133+044467FM-15+0890UGEE V0201501N00201220001CN0112651N1+01701+00701999999ADDAG11000GA1021+030009999GF102991999999999999999999MA1102511999999REMMET014NEW NOSIG 070;EQDQ01+000000PRSWM2
0119702910264121998091315354+62967-141933FM-16+0525PAOR V0209999C00001000601CN0160931N1+00501+00501999999ADDAG10001GA1071+000601999GA2071+003001999GA3081+010501999GF108991999999999999999999MA1100881999999MW1611REMMET005NEW ;
0349743920146111998082713003+43900-069933FM-15+0023KNHZ V0203505N00315220005CN0112005N1+02285+01725101585ADDAG11999GA1021+075001999GD11995+9999999GF102991999999999999999999GP10060039002008067002015009202008GQ100600636910219GR100600595913389MA1101565999999REMMET020NEW SLP158 T02280172EQDQ01+000000PRSWM2N01 00000JPWTH 0QNNE41D0 00299F41 0 00199G41U0 99999K41D0 00063J41 0 00172L41 0 00700C41 0 02999N41 0 00000Q41 0 10158S41D0 00073R41 0 00228X41 0 35006
0076542920999991998010312004+42883+129467FM-12+017899999V0202901N00301036001CN0120001N1-00621-01321101891ADDAA106000091AG14000GF107991071001999999031999MA1999999099571MD1710051+9999
0367722970231291998072501003+33833-118167FM-15+0008LGB  V0202905N00465220005MN0160005N1+02565+01895101395ADDAA101000095AG10999GD10995+9999999GF100991999999999999999999GP10060040402008045902015018102008GQ100600610927539GR100600641913249MA1101395101241REMMET027NEW AO2 SLP139 T02560189 $;EQDQ01+999990APOSP Q02+000000PRSWM2N01 00000JPWTH 0QNNAA1D0 00000BA1 0 00000GA1U0 99999KA1D0 00066JA1 0 00189LA1 0 01000CA1 0 02994NA1 0 00000QA1 0 10139SA1D0 00078RA1 0 00256YA1 0 29009
0135682400999991998012017004-24217+025917FM-15+1005FBSK V0203201N00361220001CN0112651N1+02601+01801999999ADDAG10999GA1021+009009999GA2021+010509099GA3021+024009999GF104991999999999999999999MA1101291999999REMMET008NEW NOSIEQDQ01+000000PRSWM2
0234743945147101998041711534+42933-071433FM-15+0071KMHT V0201201N002110003019N0016091N1+01201+01201101171ADDAA106000391AA224000591AG11000GA1081+000301999GF108991999999999999999999KA1999M+01221KA2999N+01061MA1101051999999MD1610051+9999MW1101REMMET055NEW AO2 SLP117 60001 70002 T01170117 10122 20106 56005;EQDQ01  00038PRCP06Q02  00058PRCP24
0249726390948491998052709003+45067-083583FM-15+0210APN  V0209999C00005220005MN016000599+00505+00445101645ADDAA101000095GD11995+0243859GP10060000002000000002000000002000GR100600000900009MA1101635999999EQDN01 00000JPWTH 0QNNAA1D0 02080BA1 0 01080GA1U0 99999KA1D0 00040JA1 0 00044LA1 0 01000CA1 0 03001NA1 0 00000QA1 0 10164SA1D0 00041RA1 0 00050YA1 0 00000
0098995780999991998040912004+61100+001100FM-18+9999DB57 V0200701N007719999999N9999999N9+00501+99999100681ADDAG10000MD1410001+9999SA1+0909UA1I060259999REMSYN025 22200 02090 10605 70023;EQDQ01+000002VOVAR 
0100604900999991998060510304+35633-000600FM-15+0090DAOO V0202801N008210060019N0112651N1+02101+01401999999ADDAG10999GA1071+006009999GF107991999999999999999999MA1101391999999REMMET005NEW ;EQDQ01+000000PRSWM2
0146726530999991998110109004+43800-099317FM-15+0530K9V9 V0200901N00311999999CN9999999N9+99999+99999102621ADDAA103000391AA206000391AG11000MD1610071+9999REMMET056NEW 4 A3028 RMK AO2 SLP262 60001 T00610039 56007 PWINO TEQDQ01+000002VOVAR Q02+000000PRSWM2
0110713950999991998060408004+44883-063500FM-15+0145CYHZ V0202701N005710051019N0241401N1+00801+00501099011ADDAG11999GA1081+005109999GF108991999999999999999999MA1098981999999REMMET015NEW SC8 SLP901;EQDQ01+000000PRSWM2
0252947670999991998111523524-33950+151183FM-16+0003YSSY V0201701N010810084019N0112651N1+01901+01501101541ADDAG10999GA1021+005109999GA2021+006309999GA3071+008409999GF107991999999999999999999MA1101491101481OC101591REMMET085NEW FM2352 17020G30KT 9999 FEW017 SCT020 BKN030 FM2352 MOD TURB BLW 5000FT TILL 0100;EQDQ01+999990APOSP Q02+999990APOSLPQ03+000000PRSWM2
0055999999999991998021616004-62067+138733FM-18+9999DRIB V02099999999999999999N9999999N9+99999+99999999999ADDAG10999MW1001REMSYN01173503     ]EQDQ01+000002VOVAR 
0461722066038531998011402003+30400-081417FM-15+0005NRB  V0201005N002650750019N0112651N1+01725+01501102081ADDAG10999GA1021+036001999GA2081+075001999GF108995999999999999999999GP10060000002000000002000000002000GR100600000900009MA1102101999999REMMET020NEW SLP208 T01670150EQDQ01+000000PRSWM2N01 00203KCLC1 3N02 00610KCLC2 3N03 00250CCLHT 3N04 00059BDPTP 3N05 00700DHZVS 3N06 30150EALTP 3N07 30135FPRES 3N08 00000JPWTH 3N09 10208ISLVP 3QNNE41 3 00203E41 3 00610G41 3 00250K41 3 00059L41 3 00700C41 3 30150M41 3 30135N41 3 00000Q41 3 10208S41 0 00063V41 0 01099X41 0 10005
0134039170999991998102609004+54650-006217SY-MT+0081EGAA V0202501N00411220001CN0400001N1+00621+00401100551ADDAG12000GA1021+004509099GF102991021091004501031011MA1100511999999MD1210211+9999REMSYN011 333 81915;MET008NEW NOSIEQDQ01+000000PRSWM2
0129039800999991998052208004+55367-007333FM-12+002599999V0203101N00261011401CN0500001N1+01211+00931103141ADDAG12999GA1041+005709089GA2071+011409059GF107991071081004501999999MA1999999102831MD1210091+9999REMSYN023 333 84819 87638 92439;
0054725867241331998102202009+42533-113767NSRDB+126799999V020999999999999999999999999999+99999+99999999999ADDGP10060000002000000002000000002000GR100600000900009
0055999999999991998102315284+35733-144817FM-18+9999DRIB V02099999999999999999N9999999N9+99999+99999999999ADDAG10999MW1001REMSYN01146606     ]EQDQ01+000002VOVAR 
0135080420999991998091020304+42900-008433FM-15+0367LEST V0203201N00151220001CN0112651N1+01401+01401101961ADDAG11000GA1021+003609999GF102991999999999999999999MA1102001097631REMMET008NEW NOSIEQDQ01+999990APOSP Q02+999990APOSLPQ03+000000PRSWM2
0055999999999991998022021004-33650+072983FM-18+9999DRIB V02099999999999999999N9999999N9+99999+99999999999ADDAG10999MW1001REMSYN01114907     ]EQDQ01+000002VOVAR 
0159478080999991998120618304+33583+130450FM-15+0012RJFF V0201501N00311012001CN0112651N1+01001+00501999999ADDAG10999GA1021+009009999GA2071+012009999GA3071+018009999GF107991999999999999999999MA1102301999999REMMET032NEW 1CU030 5CU040 7SC06 0 A3023;EQDQ01+000000PRSWM2
0143724385999991998060817454+40117-085617FM-15+0280KAID V0201801N00211021001CN0160931N1+02001+00901999999ADDAA106000091AG11000GA1021+015001999GA2071+021001999GA3081+024001999GF108991999999999999999999MA1102371999999REMMET005NEW ;EQDQ01+000000PRSWM2
0109725084999991998090403524+41733-072183FM-15+0076KIJD V0209999C00001220001CN0128741N1+01601+01401101111ADDAG11999GF100991999999999999999999MA1101121999999REMMET030NEW AO2 SLP111 T01560144 TSNO;EQDQ01+000000PRSWM2
0054911904999991998082309009+20950-156633NSRDB+008099999V020999999999999999999999999999+99999+99999999999ADDGP10060000002000000002000000002000GR100600000900009
0138714500999991998040418004+51133-106583FM-12+0595CWOK V0201501N006219999999N9999999N9+01301-00441100961ADDAA106000091AA224000091AG14000KA1120M+01331KA2240N+00061MA1999999093891MD1710131+9999REMSYN023 333 10133 20006 70000;EQDQ01+000002VOVAR 
0119718270999991998091711004+53633-077700FM-15+0195CYGL V0202701N002610027019N0008051N1+00201+00201102021ADDAG11999GA1071+002709999GF107991999999999999999999MA1101961099641MW1441REMMET018NEW FG1SF5 SLP202;EQDQ01+999990APOSP 
0055999999999991998040903004+23717-130667FM-18+9999DRIB V02099999999999999999N9999999N9+99999+99999999999ADDAG10999MW1001REMSYN01146915     ]EQDQ01+000002VOVAR 
0055999999999991998111800034-07633+054850FM-18+9999DRIB V02099999999999999999N9999999N9+99999+99999999999ADDAG10999MW1001REMSYN01123584     ]EQDQ01+000002VOVAR 
0178034950999991998110421004+52767+001350SY-MT+0020EGYC V0202801N00411220001CN0220001N1+00291+00111100861ADDAG12001AY181031AY211031GA1021+005409999GF199999011081004501001001MA1100811999999MD1210171+9999MW1021REMSYN011 333 81818;MET014NEW BLU NOSIG;EQDQ01+000012SCOTCVQ02+000000PRSWM2
0137587370999991998010700004+27050+118317FM-12+011299999V0200901N00201000301CN0002001N1+00521+00521102551ADDAA106000091AG10000AY141061AY241061GA1091+999999999GF109991091999999999999999IA2999+00409MD1210061-0501MW1431REMSYN017 333 05551 30049;
0087725496999991998082519454+42600-095233FM-15+0454KSLB V0209999C00001220001CN0160931N1+02701+01801999999ADDAG11999GF100991999999999999999999MA1101661999999REMMET008NEW AO1;EQDQ01+000000PRSWM2
0084127720999991998011107004+48083+020767FM-12+0236LHMC V0201901N00201036001CN0080001N1+00321+00281103271ADDAG12999GF107991071001999999071999MA1999999100331MD1210021+9999EQDQ01+999990APOSP 
0145475490999991998080704004+39433+141133FM-15+0093RJSI V0209991V001010090019N0112651N1+02201+02001999999ADDAG10999GA1021+003009999GA2021+006009999GA3071+009009999GF107991999999999999999999MA1100811999999MW1801REMMET031NEW 1ST010 3CU020 7CU030 A2977;
0204768050999991998032118003+16833-099933FM-12+0028PNO  V0202201N00301220001CN0200001N1+02961+02331101051ADDAA106000091AG10000GA1001+999999999GF100991001001999999001001IA1019KA1120M+03191KA2240N+02301MA1999999101051MD1710131-0201OA159900601REMSYN041 333 10319 20230 30/// 59020 91206 91522;EQDP01 025003SCOLCB
0127010520999991998010805504+70667+023667FM-15+0081ENHF V0201201N00211220001CN0112651N1-00301-00501999999ADDAA106000091AG11000GA1021+009009999GA2021+015009999GF104991999999999999999999MA1101021999999REMMET005NEW ;EQDQ01+000000PRSWM2
0100783334999991998060710544+21617-081550FM-15+0002MUCL V0201301N00571220001CN0090001N1+02801+02501999999ADDAG10999GA1021+003609999GF102991999999999999999999MA1101691999999REMMET005NEW ;EQDQ01+000000PRSWM2
0106296540999991998051915004+55217+087650FM-12+049599999V0202001N00311004201CN0020001N1-00071-00141101061ADDAG12001AY181031AY221031GF108991081091004501999999MA1999999095011MD1810161+9999MW1861EQDQ01+999990APOSP 
0087727436999991998092513374+44983-085200FM-15+0190KACB V0202001N00411220001CN0112651N1+01601+01301999999ADDAG11999GF100991999999999999999999MA1101191999999REMMET008NEW AO2;EQDQ01+000000PRSWM2
0071726385999991998020522009+44267-086250NSRDB+018999999V020999999999999999999999999999+99999+99999999999ADDGP10060019502009062802021005102009GQ100600768923189GR100600320914079
0191804380999991998071818004+08600-071183FM-12+1498SVMD V0202501N00301090001CN0250001N1+02511+01531999999ADDAA106000091AG10000GA1031+008109059GA2041+090009029GF107991031051008001001081IA1019MA1101931085171MD1999999+0021ME1315149REMSYN040 333 30/// 56909 58002 83627 84280 1019;EQDQ01+999990APOA  
0179723230038561998060419034+34650-086767FM-16+0196KHSV V0202601N00621220001CN0160931N1+02701+02301100921ADDAG10999GA1021+005101999GA2021+008401999GA3021+015001999GF104991999999999999999999MA1101051098771REMMET020NEW AO2 RAE01 P0000;EQDQ01+999990APOSP Q02+999990APOSLPQ03+000000PRSWM2
0099062730999991998113023004+52700+005883FM-12-000399999V0200801N005019999999N0060001N1+00091-00071999999ADDAG12999OA140199999OA249999999REMSYN023 333 91007 91107 91205;EQDQ01  00362WGOSPDQ02  00362WGOSPD
0319107650999991998110306004+49217+011100SY-MT+0395ETHR V0202601N00571013501CN0100001N1+00821+00541099851ADDAA106999999AA224001691AA399002091AG10002AY161061AY221061GA1021+006009999GA2081+013509999GF108991081081008001999999GJ100169IA1119IA2999+00109KA1120M+00891KA2120N+00261MA1099901095201MD1510111+9999MW1611REMSYN073 333 10089 20026 32001 70016 84820 87640 88657 555 20046 999 02716 20008;MET008NEW RERAEQDQ01  00002PRCP06
0277992880999991998081811004+50600-002700FM-18+0003DB28 V0200301N009019999999N0000001N1+01691+01231102561ADDAG12999MD1210041+9999OA159904681REMSYN233 22200 00183 10703 70016 555 05391 07028 10044 11076 12469 13483 14593 15627 18002 19004 35061 36062 50048 51412 52012 53245 90209 05392 07024 10042 11067 12469 13484 14589 15626 18002 19004 35061 36061 50048 51412 52012 53245 90550;
0132430030999991998121709004+19117+072850SY-MT+0014VABB V0202701N00311220001CN0020001N1+03161+01831101211ADDAA106000091AG10000AY101031AY201031GF100991001001999999001001MA1101191999999MD1999999+0031MW1041REMSYN011 333 58003;MET008NEW NOSI
0106307640999991998050603004+52650+115167FM-12+064699999V0202101N00301030001CN0500001N1+00291+00191102051ADDAG12001AY171031AY221031GF108991021091012501031999MA1999999094261MD1810081+9999MW1021EQDQ01+999990APOSP 
0054725867241331998080506009+42533-113767NSRDB+126799999V020999999999999999999999999999+99999+99999999999ADDGP10060000002000000002000000002000GR100600000900009
029772234013865199810272253C+32333-088750FM-15+0090MEI  V0201405N00215220005MN0160005N1+02335+01115102115ADDAA101000095AG11999GD10995+9999999GF100991999999999999999999MA1102135101061REMMET025NEW AO2 SLP211 T02330111;EQDQ01+999990APOSP Q02+000000PRSWM2N01 00000JPWTH 0QNNAA1D0 00000BA1 0 00000GA1U0 99999KA1D0 00052JA1 0 00111LA1 0 01000CA1 0 03016NA1 0 00000QA1 0 10211SA1D0 00074RA1 0 00233YA1 0 14004
0072154440999991998010607004+44367+027850FM-12+006199999V0202701N00301220001CN0100001N1+99999+99999999999ADDAG12999GA1001+999999999GF100991001001999999001001REMSYN011 333 92600;
0151999999999991998090600004+09300-028900FM-13+9999LAOM V0202701N00571220001CN0200001N1+02761+02351101461ADDAG10000AY111061AY211061GF104991041999004501999999MD1210181+9999MW1021SA1+2829UA1M030059999UG1070201509REMSYN037 22263 02282 20301 315// 40704 80248;
0116475450999991998033101004+39617+140217FM-15+0096RJSK V0202201N002110240019N0112651N1+00401-00101999999ADDAG10999GA1021+006009999GA2071+024009999GF107991999999999999999999MA1101591999999REMMET005NEW ;EQDQ01+000000PRSWM2
0107039670999991998031811004+53300-006433FM-12+0093EIME V0202601N00261002101CN0400001N1+01001+00831103881ADDAG12999GA1021+002709079GF107991071051002501999999MA1999999102721MD1110091+9999REMSYN017 333 82709 87641;
0094710780999991998122909004+56867-101083SY-MT+0357CYYL V0203001N006212200019N0240001N1-03001-03401102751ADDAA106999999AG11000MA1102201097951MW1761REMMET008NEW SLP2EQDQ01+000003PRSWM1Q02  00002PRCP06
0123479400999991998072700004+26583+127967FM-12+001899999V0202701N005119999999N0150001N1+03001+02561100691ADDAA199006091AG10003AY181061GF106991031021999999031011KA1999N+02691MA1999999100491MD1110091+9999MW1251REMSYN011 333 20269;
0158969250999991998011709004-05850+112633FM-12+000399999V0209991C00001005101CN0150001N1+03141+02631100951ADDAA103000792AA206999999AA399001091AG10006AY161031AY221031GA1051+005109089GF107991051021004501031021MW1211REMSYN023 333 56200 69977 85817;EQDQ01  00002PRCP06
0152063100999991998111416004+51450+003600FM-12+001099999V0203201N00301012001CN0160001N1+00631+00501100071ADDAG12999GA1011+004209089GA2061+012009059GF107991061081004501001011MA1999999099971MD1310281+9999REMSYN027 333 81814 86640 555 53008;EQDQ01+999990APOSP 
0111726160999991998091422524+44583-071183FM-15+0353KBML V0209999C00001220001CN0160931N1+01701+01301101911ADDAG11999GF100991999999999999999999MA1101861999999REMMET032NEW AO2 SLP191 T01670133 TSNO $;EQDQ01+000000PRSWM2
0174105000999991998110414504+50967+006050FM-15+0098ETNG V0202601N002610120019N0112651N1+00501+00501100091ADDAG12000GA1021+001509999GA2021+004509099GA3071+012009999GF107991999999999999999999MA1100001098901REMMET015NEW RERA NOSIG;EQDQ01+999990APOSP Q02+999990APOSLPQ03+000000PRSWM2
0215722210999991998080416003+30483-086533FM-15+0026KVPS V0209999V00151220001CN0112651N1+03101+02101101891ADDAG11999GA1021+007501999GA2021+015001999GA3021+036001999GF104991999999999999999999GP10060073102008066002015019002008GQ100600350910449GR100601086913279MA1101901999999REMMET020NEW SLP189 8/870 9/2EQDQ01+000000PRSWM2
0084762555999991998011616454+27967-110933FM-15+0027MMGM V0209991C00001220001CN0096561N1+01901+00901999999ADDAG10999GF100991999999999999999999MA1101731999999REMMET005NEW ;EQDQ01+000000PRSWM2
0087724238999991998080508354+37817-087683FM-15+0117KEHR V0209999C00001220001CN0112651N1+02301+02101999999ADDAG11000GF100991999999999999999999MA1101861999999REMMET008NEW AO1;EQDQ01+000000PRSWM2
0131474240999991998062700004+42617+141550FM-12+001199999V0201301N000519999999N0030001N1+01481+01381100331ADDAA199040091AG10002AY181061AY281061GF108991081061999999999999KA1999N+01461MA1999999100201MD1810071+9999MW1251REMSYN011 333 20146;
0134973900999991998122109004-08567+125567FM-12+0006WPDL V0203001N00311004201CN0120001N1+02941+02481100691ADDAA106000091AA224999929AG10000AY121031AY221031GA1021+005409099GF106991061091004501031011MW1151REMSYN029 333 56000 79999 82918 85819;
0050577660999991998100803004+27233+111467FM-12+024899999V0209991C00001036001CN0100001N1+02751+01691101511ADDAG10000GF107991071001999999031999MD1210041+9999
0084307310999991998022209004+52983+108283FM-12+048699999V0202401N00101220001CN0500001N1-00601-01041102581ADDAG12000GF102991001001999999001011MA1999999096431MD1710201+9999EQDQ01+999990APOSP 
0151722470039011998071301534+32350-094650FM-15+0124KGGG V0202901N004110240019N0160931N1+02901+02601100691ADDAA101000021AG11999GA1021+018009999GA2081+024009999GF108991999999999999999999MA1100781999999MW1611REMMET042NEW AO2 RAB08 SLP069 P0000 T02940256 TSNO;
0122725975242351998102819134+42617-123367FM-16+1171KSXT V0209999V00311007801CN0004021N1+00401+00401999999ADDAG10999GA1021+000301999GA2071+007801999GA3081+009301999GF108991999999999999999999MA1102201999999MW1441REMMET008NEW AO2;
0071722317139701998091821009+30533-091150NSRDB+002099999V020999999999999999999999999999+99999+99999999999ADDGP10060016402008000602015016002008GQ100600460923839GR100600939913549
0417725970242251998062006003+42383-122867FM-15+0396MFR  V0203405N00155220005MN0160005N1+01675+00895101545ADDAA101000095AA206000091AG11000GD10995+9999999GF100991999999999999999999GP10060000002000000002000000002000GR100600000900009KA1999M+02611KA2999N+01611MA1101595096811MD1210111+9999REMMET043NEW AO2 SLP154 T01670089 10261 20161 52011;EQDQ01+999990APOSP Q02+000000PRSWM2N01 00000JPWTH 0QNNAA1D0 00000BA1 0 00000GA1U0 99999KA1D0 00048JA1 0 00089LA1 0 01000CA1 0 03000NA1 0 00000QA1 0 10154SA1D0 00062RA1 0 00167YA1 0 34003
0101066700999991998072222504+47483+008533FM-15+0432LSZH V0209991V00051999991CY0099001N1+01801+01601101841ADDAG11999MA1101901096851REMMET016NEW CAVOK NOSIG;EQDQ01+999990APOSP Q02+999990APOSLPQ03+000000PRSWM2
0055999999999991998010115004+63733-027933FM-18+9999DRIB V02099999999999999999N9999999N9+99999+99999999999ADDAG10999MW1001REMSYN01165594     ]EQDQ01+000002VOVAR 
0166295810999991998032700004+56200+095683FM-12+020499999V0203001N01001220001CN0200001N1-01521-02211101181ADDAA199000591AG10000AJ100369199999999AY131061AY221061GF107991011091008001001011IA1249KA1120N-01521MA1999999098451MD1210481+9999MW1371REMSYN023 333 21152 48036 91112;
041972519014771199806301554C+43117-076100FM-15+0125SYR  V0201505N00415045725MN0160005N1+02175+01725099865ADDAA101000095AG11999GA1021+006301999GA2021+013501999GA3081+045001999GD11995+0064059GD22995+0137259GD34995+0457259GF108991999999999999999999MA1099935098471REMMET025NEW AO2 SLP986 T02170172;EQDQ01+999990APOSP Q02+000000PRSWM2N01 00000JPWTH 0QNNAA1D0 02021BA1 0 01021AA1D0 02045BA1 0 02045AA1D0 06150BA1 0 06150GA1 0 00150KA1D0 00063JA1 0 00172LA1 0 01000CA1 0 02951NA1 0 00000QA1 0 09986SA1D0 00071RA1 0 00217YA1 0 15008
0054724017999991998093000009+37350-078433NSRDB+012599999V020999999999999999999999999999+99999+99999999999ADDGP10060000002000000002000000002000GR100600000900009
0125724796999991998112322514+41783-111850FM-15+1358KLGU V0209999V001510300019N0160931N1+01201+00101101231ADDAG11999GA1071+030001999GF107991999999999999999999MA1101321999999REMMET030NEW AO2 SLP123 T01170011 TSNO;EQDQ01+000000PRSWM2
0101074340999991998080305004+45867+001183FM-15+0402LFBL V0200201N00101999991CY0099001N1+01201+01101102441ADDAG10999MA1102401097671REMMET016NEW CAVOK NOSIG;EQDQ01+999990APOSP Q02+999990APOSLPQ03+000000PRSWM2
0233036580999991998091812004+51617-001083SY-MT+0063EGUB V0202301N00461075001CN0350001N1+01931+01511102261ADDAA106999929AG10000AY151061AY221061GA1021+005409999GA2021+018009999GA3071+075009999GF199999051081004501001011MA1102201999999MD1210071+9999MW1011REMSYN023 333 83818 83656 86075;MET014NEW WHT NOSIG;EQDQ01+000062SCOTCVQ02+000000PRSWM2
0134960730999991998031715004+01550+098883FM-12+0003WIMS V0209991C00001003901CN0040001N1+02781+02621101141ADDAA103002091AA224999929AG10006AY161031AY221031GA1051+003909099GF108991051091004501021021MW1131REMSYN029 333 56000 60027 79999 85913;
0056031580999991998032421004+55700-002383FM-12+011299999V0209991C000019999999N0190001N1+00531+00331102601ADDAG12000MD1210011+9999REMSYN023 555 82/50 88/62 92054;
0043994260999991998100809004+29667-094050FM-12+0001SRST V0203501N003619999999N9999999N9+01711+01451102151ADDAG10000MD1810061+9999EQDQ01+000002VOVAR 
0085082800999991998112723004+38950-001850FM-15+0704LEAB V0203001N00671999991CY0099001N1+00801+00301999999ADDAG10999MA1102301094111REMMET016NEW CAVOK NOSIG;EQDQ01+999990APOSP Q02+000000PRSWM2
0100723930999991998061517274+34733-120583FM-16+0112KVBG V0202501N003110009019N0016091N1+01401+01401999999ADDAG10999ED199U18299GA1081+000901999GF108991999999999999999999MA1101561999999MW1101REMMET007NEW VIS
0029030650999991998092415004+57117-003633FM-12+124599999V0203301N007719999999N9999999N9+00801+00271999999ADDAG12000EQDQ01+000002VOVAR 
0055999999999991998032114044-22933+062167FM-18+9999DRIB V02099999999999999999N9999999N9+99999+99999999999ADDAG10999MW1001REMSYN01153548     ]EQDQ01+000002VOVAR 
0106744994047411998041823454+42850-073933FM-15+0115KSCH V0202701N00411220001CN0160931N1+01601-00801999999ADDAA106000091AG11000GF100991999999999999999999MA1102171999999OC100771REMMET008NEW AO1;EQDQ01+000000PRSWM2
0142268630999991998102115004+53900+030317FM-12+019399999V0202701N00501013801CN0150001N1+00461+00261101971ADDAG12001AY181031AY221031GA1061+013809059GF106991061051012501001001MA1999999099591MD1210351+9999MW1011REMSYN011 333 86646;EQDQ01+999990APOSP 
0151999999999991998032312004+34400-035900FM-13+9999ZCBB V0203401N01081220001CN0200001N1+01651+01271102631ADDAG10000AY111061AY211061GF104991021021008001061011MD1210101+9999MW1011SA1+1859UA1M040509999UG1080603309REMSYN037 22254 02185 20410 333// 40812 80142;
0126719430999991998080411004+56233-120733FM-15+0695CYXJ V0200901N00151220001CN0241401N1+01501+01101101681ADDAG11999GA1021+075009999GF102991999999999999999999MA1101691093591REMMET015NEW CI1 SLP168;EQDQ01+999990APOSP Q02+000000PRSWM2
029772508014740199807190651C+41933-072683FM-15+0049BDL  V0202605N00155220005MN0160005N1+01565+01445101545ADDAA101000095AG11999GD10995+9999999GF100991999999999999999999MA1101565100841REMMET025NEW AO2 SLP154 T01560144;EQDQ01+999990APOSP Q02+000000PRSWM2N01 00000JPWTH 0QNNAA1D0 00000BA1 0 00000GA1U0 99999KA1D0 00058JA1 0 00144LA1 0 01000CA1 0 02999NA1 0 00000QA1 0 10154SA1D0 00060RA1 0 00156YA1 0 26003
0050533910999991998122503004+41900+114000FM-12+148499999V0202901N004019999999N0300001N1-00611-00761103361ADDAG12999GF106991001001999999001021MD1210101+9999
0124722486139421998110102534+32517-092033FM-15+0024KMLU V0209999C00001220001CN0128741N1+01701+01701101581ADDAG11000GF100991999999999999999999MA1101591999999MD1110011+9999REMMET031NEW AO2 SLP158 T01670167 51001;EQDQ01+000000PRSWM2
0112432450999991998050621004+14450+079983FM-12+002099999V0201401N00101220001CN0040001N1+02921+02581100721ADDAA106000091AG10000GA1001+999999999GF100991001001999999001001MA1999999100501MD1999999+0311REMSYN011 333 58031;
0071724767999991998012300009+37300-108633NSRDB+180399999V020999999999999999999999999999+99999+99999999999ADDGP10060014702009040202021008202009GQ100600807923659GR100600229914129
0054726160999991998031106009+44583-071183NSRDB+035399999V020999999999999999999999999999+99999+99999999999ADDGP10060000002000000002000000002000GR100600000900009
0194062860999991998111318004+53200+007150FM-12+000099999V0201901N005019999999N9999999N9+00691+00641999999ADDAA199001091AG10000KA1120M+00741OA140199999OA249999999OA359999999REMSYN051 333 10074 91006 91107 91205 555 51107 51205 53000;EQDQ01+000002VOVAR Q02  00312WGOSPDQ03  00362WGOSPDQ04  00262WGOSPD
0071724660930371998062913009+38817-104717NSRDB+187299999V020999999999999999999999999999+99999+99999999999ADDGP10060012002008047702015004902008GQ100600814906699GR100600197913229
0119711140999991998100515004+49367-121483FM-15+0039CYHE V0200901N002610150019N0144841N1+01101+01001102551ADDAG11000GA1081+015009999GF108991999999999999999999MA1102541102081REMMET008NEW SLP2EQDQ01+999990APOSP Q02+000000PRSWM2
0112586260999991998071800004+28483+117983FM-12+009099999V0200901N00301036001CN0250001N1+02841+02551100141ADDAA106999929AA224999929AG10002AY161061GF107991031051017501041999MD1210071+0001MW1001REMSYN017 333 00053 79999;
0054722867231561998032306009+33933-116967NSRDB+079299999V020999999999999999999999999999+99999+99999999999ADDGP10060000002000000002000000002000GR100600000900009
0109722747999991998072721504+32817-109683FM-15+0950KSAD V0201901N00361220001CN0160931N1+03801+01201100761ADDAG10999GF100991999999999999999999MA1101421999999REMMET030NEW AO2 SLP076 T03780117 TSNO;EQDQ01+000000PRSWM2
0054726569999991998012707009+44867-094383NSRDB+032399999V020999999999999999999999999999+99999+99999999999ADDGP10060000002000000002000000002000GR100600000900009
0148836120999991998040223004-20467-054667FM-15+0556SBCG V0201201N003110600019N0112651N1+02501+02301999999ADDAG10999GA1021+004509999GA2021+030009999GA3071+060009999GF107991999999999999999999MA1101801095271REMMET005NEW ;EQDQ01+999990APOSP Q02+000000PRSWM2
0081039670999991998051902004+53300-006433FM-12+0093EIME V0200801N00101220001CN0250001N1+01041+00901103051ADDAG12999GA1001+999999999GF100991001001999999001001MA1999999101901MD1210021+9999
0132010080999991998012712504+78250+015467FM-15+0029ENSB V0209991V00051220001CN0112651N1-02901-03201101401ADDAG11999GA1021+024009999GF104991999999999999999999MA1101291100991REMMET005NEW ;EQDQ01+999990APOSP Q02+999990APOSLPQ03+000000PRSWM2
0149763900999991998110909003+25450-100983FM-12+1790MMIO V0202401N00401220001CN0060001N1+01561+00791100851ADDAA106000091AG10000AY141031AY241031GA1001+999999999GF100991001001999999001001MA1102101082191MD1710101-0264MW1051EQDQ01+999990APOA  P01 025003SCOLCB
0177722533129621998060517514+29367-099167FM-15+0283KHDO V0200601N00411220001CN0048281N1+03201+02201100791ADDAA106000091AG10000GA1021+011401999GF102991999999999999999999KA1999M+03221KA2999N+02561MA1100981999999MD1310021+9999MW1051REMMET044NEW AO2 SLP079 T03220222 10322 20256 53002 T
0137999999999991998021918004+42400-038500FM-13+9999DLBB V0203401N00931002101CN0500001N1+00881+00351102151ADDAG12001AY181061AY221061GF106991061091002501999999MD1610101+9999MW1151UA1M050109999UG1090403509REMSYN031 22224 20502 335// 40908 80063;
0142259540999991998122718004+60350+166000FM-12+000399999V0203401N00401006301CN0200001N1-00791-01011101571ADDAG12001AY181061AY221061GA1061+006309099GF108991081091008001999999MA1999999101531MD1310061+9999MW1021REMSYN011 333 86921;EQDQ01+999990APOSP 
0071724468999991998091723009+38850-094733NSRDB+033499999V020999999999999999999999999999+99999+99999999999ADDGP10060029102008060402015007302008GQ100600688925479GR100600489913539
0071703870999991998042419009+56483-132367NSRDB+001399999V020999999999999999999999999999+99999+99999999999ADDGP10060062202013075802032014302013GQ100600509913499GR100600851913519
0087727475999991998011021154+45883-093267FM-15+0309KJMR V0202701N00671220001CN0112651N1-01901-02601999999ADDAG11000GF100991999999999999999999MA1101731999999REMMET008NEW AO1;EQDQ01+000000PRSWM2
0088999999999991998072906004+67600-058000FM-13+9999SHIP V0200901N002019999999N0200001N1+00721+99999101501ADDAG11000AY121061AY221061GF108991081071999999001001MW1021SA1+0549REMSYN013 22200 00054;
0198111200999991998012021004+47267+011350SY-MT+0581LOWI V0202601N00311004801CN0035001N1-00101-00151102101ADDAG12002AY171031AY271031GA1021+002709999GA2021+003909999GA3071+004809999GF108991081051002501999999MA1101801094851MD1210191+9999MW1101MW2731REMSYN023 333 81709 84613 86616;MET019NEW NOSIG 0829//66;
0095722029999991998050905504+25650-080433FM-15+0003KTMB V0202701N00311220001CN0112651N1+02301+02201999999ADDAA106000091AG10000GF100991999999999999999999MA1101081999999REMMET005NEW ;EQDQ01+000000PRSWM2
0085082800999991998022623004+38950-001850FM-15+0704LEAB V0201001N00101999991CY0099001N1+00501+00101999999ADDAG10999MA1103181094931REMMET016NEW CAVOK NOSIG;EQDQ01+999990APOSP Q02+000000PRSWM2
0125696684999991998081712004+44500+018567FM-15+0198KQQP V0209991V00211220001CN0080001N1+03001+01501999999ADDAA106000091AG11000GA1021+012009999GF104991999999999999999999MA1101631999999MW1051REMMET032NEW SLPNO ESTMD ALSTG 8/200 9/30
0109722977931841998090101504+33683-117867FM-15+0016KSNA V0202401N002610300019N0112651N1+02701+02101999999ADDAG10999GA1071+030001999GF107991999999999999999999MA1100751999999REMMET014NEW LTG ALQDS;EQDQ01+000000PRSWM2
0147333930999991998031813304+49817+023950FM-15+0325UKLL V0202901N003010054019N0112651N1+00001-00401102711ADDAG11999GA1071+005409999GF107991999999999999999999MA1102511098661REMMET020NEW NOSIG RMK 312903EQDQ01+999990APOSP Q02+999990APOSLPQ03+000000PRSWM2
0087726865999991998082314344+45117-113883FM-15+1233KSMN V0209999C00001220001CN0160931N1+00901+00601999999ADDAG11000GF100991999999999999999999MA1101561999999REMMET008NEW AO1;EQDQ01+000000PRSWM2
0173723418139771998022317534+33450-093983FM-15+0119KTXK V0209999V00311220001CN0160931N1+01501+00901101651ADDAA106000091AG11000GF100991999999999999999999KA1999M+01561KA2999N+00501MA1101661999999MD1110061+9999REMMET043NEW AO2 SLP165 T01500094 10156 20050 51006;EQDQ01+000000PRSWM2
0044892620999991998102202004-66967-060550FM-12+001799999V02099999999999999999N9999999N9-02531+99999999999ADDAG10999MA1999999097931EQDQ01+000002VOVAR 
0063917660999991998100804004-14250-171567FM-12+006099999V0202101N002119999999N9999999N9+02631+99999100681ADDAG10999MD1210131+9999REMSYN011 333 91208;EQDQ01+000002VOVAR 
031772432093817199805310254C+38050-087533FM-15+0116EVV  V0201905N00315220005MN0144005N1+02615+02175101145ADDAA101000095AG11000GD10995+9999999GF100991999999999999999999MA1101195099781MD1310041+9999REMMET031NEW AO2 SLP114 T02610217 53004;EQDQ01+999990APOSP Q02+000000PRSWM2N01 00000JPWTH 0QNNAA1D0 00000BA1 0 00000GA1U0 99999KA1D0 00071JA1 0 00217LA1 0 00900CA1 0 02988NA1 0 00000QA1 0 10114SA1D0 00079RA1 0 00261YA1 0 19006
0135489000999991998042109304+10817+106667FM-15+0019VVTS V0201401N00601220001CN0112651N1+03301+02501101031ADDAG10000GA1021+006009999GF102991999999999999999999MA1101021100931REMMET008NEW NOSIEQDQ01+999990APOSP Q02+999990APOSLPQ03+000000PRSWM2
0123702746999991998122823154+61417-149517FM-15+0029PABV V0200601N00261220001CN0160931N1-00801-01701999999ADDAG11999GF100991999999999999999999MA1099421999999REMMET044NEW AO1 LTG DATA MISG PWINO FZRANO TSNO RVRNEQDQ01+000000PRSWM2
0349722316129581998100222003+29817-090017FM-15+0002NBG  V0209999V00155220005CN0112005N1+03005+02115101335ADDAG10999GA1021+009001999GD11995+9999999GF102991999999999999999999GP10060039802008063002015010702008GQ100600625924739GR100600629913659MA1101325999999REMMET020NEW SLP133 T03000211EQDQ01+000000PRSWM2N01 00000JPWTH 0QNNE41D0 00299F41 0 00199G41U0 99999K41D0 00070J41 0 00211L41 0 00700C41 0 02992N41 0 00000Q41 0 10133S41D0 00086R41 0 00300X41 0 00003
0138787620999991998062522354+10000-084217FM-16+0931MROC V0202401N003110840019N0112651N1+02501+02401999999ADDAG10999GA1021+003009999GA2021+007509999GA3071+084009999GF107991999999999999999999MA1101391090961MW1611REMMET005NEW ;EQDQ01+999990APOSP 
0228064560999991998030712004+50233+004650SY-MT+0299EBFS V0202401N01101006901CN0100001N1+00981+00691100911ADDAA106003091AG10001AY181061AY261061GA1021+004809999GA2071+006909999GF107991071081004501999999MA1100811097291MD1810091+9999MW1801OA149999999REMSYN029 333 83816 87623 91116 91211;MET008NEW WHT;EQDQ01+000000PRSWM2Q02  00822WGOSPD
0163725440149231998091501144+41450-090517FM-16+0181KMLI V0202201N00311005101CN0160931N1+02201+02201100681ADDAG10999GA1021+002701999GA2071+005101999GA3081+008701999GF108991999999999999999999MA1100711098571MW1611REMMET014NEW AO2 P0000;EQDQ01+999990APOSP Q02+999990APOSLP
0148085150999991998051304004+36967-025167FM-15+0100LPAZ V0203101N00211220001CN0112651N1+01601+01401102341ADDAG10999GA1021+005409999GA2021+009009999GF104991999999999999999999MA1102301101131REMMET005NEW ;EQDQ01+999990APOSP Q02+999990APOSLPQ03+000000PRSWM2
0054726415999991998061109009+42617-089033NSRDB+024699999V020999999999999999999999999999+99999+99999999999ADDGP10060000002000000002000000002000GR100600000900009
0071727474999991998120522009+47400-092500NSRDB+042199999V020999999999999999999999999999+99999+99999999999ADDGP10060003502009003002021003202009GQ100600841922739GR100600145914099
0114722630230341998061421194+31367-100500FM-16+0582KSJT V0202701N01131220001CN0160931N1+03901+00301999999ADDAG10000GF100991999999999999999999MA1100681093921REMMET019NEW AO2 WSHFT 2058;EQDQ01+999990APOSP Q02+000000PRSWM2
0199725060999991998070922003+41650-070517FM-15+0040KFMH V0202301N00411220001CN0193121N1+02201+01501100951ADDAG11999GA1021+012001999GA2021+060001999GF102991999999999999999999GP10060039802008059102015011402008GQ100600612927529GR100600635913219MA1100951999999REMMET020NEW SLP095 8/508 9/1EQDQ01+000000PRSWM2
0155702186999991998031420003+61533-166150FM-15+0005PAHP V0209999C00001220001CN0112651N1-00401-00701999999ADDAG11999GF100991999999999999999999GP10060017301025046401028006601025GQ100600767912179GR100600319913839MA1099491999999REMMET008NEW AO1;EQDQ01+000000PRSWM2
0102956360999991998082713004-33883+119100FM-12+030699999V0201701N001519999999N9999999N9+01091+01051102501ADDAA106002091AG10999KA1999M+01791MA1999999098831MD1210261+9999REMSYN011 333 10179;EQDQ01+000002VOVAR 
0103718820999991998081123004+50967-118183FM-15+0443CYRV V0203201N00571220001CN0144841N1+03101+01001101641ADDAG11999GF100991999999999999999999MA1101731096511REMMET008NEW SLP1EQDQ01+999990APOSP Q02+000000PRSWM2
0071726073999991998051420009+44533-069683NSRDB+010199999V020999999999999999999999999999+99999+99999999999ADDGP10060055402008033902015031202008GQ100600446924899GR100600952913379
0076596440999991998082612004+21483+109100FM-12+001699999V0202001N00301090001CN0250001N1+03001+02681100531ADDAA106000091AG10000GF107991011011008001001021MA1999999100381MD1210061+9999
0131477670999991998091300004+34450+133250FM-12+000399999V0200801N00311220001CN0200001N1+02721+01691101511ADDAA106000091AG10000GA1001+999999999GF100991001001999999001001KA1999N+02191MA1999999101481MD1110071+9999MW1021REMSYN011 333 20219;
0101074860999991998052304004+45367+005333FM-15+0386LFLS V0200101N00311999991CY0099001N1+00601+00401101921ADDAG10999MA1101801097271REMMET016NEW CAVOK NOSIG;EQDQ01+999990APOSP Q02+999990APOSLPQ03+000000PRSWM2
0206912180999991998110114003+13583+144933FM-15+0185PGUA V0200901N007210900019N0112651N1+02701+02201101111ADDAG10999GA1021+004501999GA2021+036001999GA3071+090001999GF107991999999999999999999GP10060000001000000001000000001000GR100600000900009MA1101221999999REMMET028NEW SLP111 8/178 9/311 WR//;EQDQ01+000000PRSWM2
0119722636930421998012106504+36017-102550FM-15+1216KDHT V0203501N006210750019N0241401N1-00401-01001101231ADDAG11999GA1021+045001999GA2071+075001999GF107991999999999999999999MA1101251999999REMMET008NEW SLP1EQDQ01+000000PRSWM2
0119727834999991998061808354+47767-116817FM-15+0707KCOE V0200401N00361220001CN0160931N1+01201+01001999999ADDAG11000GA1021+024001999GA2021+030001999GF104991999999999999999999MA1101321999999REMMET008NEW AO1;EQDQ01+000000PRSWM2
0159319600999991998051213004+43117+131900FM-15+0184UHWW V0209991C000010048019N0112651N1+00901+00501100491ADDAG11999GA1081+004809099GF108991999999999999999999MA1100411098341REMMET032NEW NOSIG RMK QFE752/1003 75CLRDEQDQ01+999990APOSP Q02+999990APOSLPQ03+000000PRSWM2
0071785145999991998052922009+18250-067150NSRDB+000999999V020999999999999999999999999999+99999+99999999999ADDGP10060015501025004201028014101025GQ100600707928739GR100600438913309
0071726578999991998051202009+45950-094350NSRDB+034299999V020999999999999999999999999999+99999+99999999999ADDGP10060000002008000002015000002008GQ100600875929399GR100600036908159
0121567860999991998022018004+25583+103833FM-12+190099999V0203601N00401220001CN0090001N1+00591+00361999999ADDAA106000091AG10000GF102991021041008001001001KA1999M+02131MA1999999081231MD1210051+0401MW1101REMSYN017 333 00457 10213;
0071727459999991998110814009+47817-091833NSRDB+045599999V020999999999999999999999999999+99999+99999999999ADDGP10060000002009000002021000002009GQ100600862911989GR100600086912899
0120030260999991998123022004+58220-006320FM-12+0013EGPO V0202001N010812200019N0200001N1+00641+00301099521ADDAG12999AY181999AY211999GA1011+004809099GF103991031091004501001001MD1110281+9999MW1251REMSYN023 333 81916 90710 91134;
0058476750999991998091319004+34767+139383FM-12+019199999V0200501N007219999999N9999999N9+02271+02011101441ADDAG10999MA1999999100521MD1610031+9999EQDQ01+000002VOVAR 
0146010100999991998051706504+69300+016150FM-15+0014ENAN V0202401N012310060019N0112651N1+00801+00401101741ADDAG10999GA1021+004509089GA2071+006009999GF107991999999999999999999MA1101691101571MW1801OC101801REMMET005NEW ;EQDQ01+999990APOSP Q02+999990APOSLP
0098723406999991998092406154+36133-090917FM-15+0083KARG V0200901N00151220001CN0160931N1+01601+00401999999ADDAA106000091AG11000GF100991999999999999999999MA1101761999999REMMET008NEW AO1;EQDQ01+000000PRSWM2
0080011210999991998050306004+66400+012617FM-12+001099999V0209991C00001220001CN0750001N1+00451+00391999999ADDAA106000091AG10000GF102991021061004501001001KA1999N+00301REMSYN011 333 20030;
0087033735999991998021407504+53583-000350FM-15+0031EGNJ V0202101N00411220001CN0018001N1+00801+00601999999ADDAG11999GA1021+007509999GF102991999999999999999999MA1102911999999MW1101REMMET005NEW ;
0054724345039661998121100009+38650-090650NSRDB+014199999V020999999999999999999999999999+99999+99999999999ADDGP10060000002000000002000000002000GR100600000900009
0131479090999991998092412004+28383+129500FM-12+000799999V0201601N002112200019N0200001N1+02581+02411101581ADDAA199003091AG10002AY181061AY221061GF103991011021999999031011KA1999M+03211MA1999999101501MD1110141+9999MW1021REMSYN011 333 10321;
0096162530999991998071600004+41050+014067FM-15+0010LIRM V0209991C00001999991CY0099001N1+01701+01501999999ADDAA106000091AG11000MA1101291999999REMMET032NEW CAVOK WIND THR06 04004KT BLUEQDQ01+000000PRSWM2
0055999999999991998091500004-36450+001767FM-18+9999DRIB V02099999999999999999N9999999N9+99999+99999999999ADDAG10999MW1001REMSYN01133574     ]EQDQ01+000002VOVAR 
030272261022010199801281853C+29383-100933FM-15+0304DRT  V0201205N00315220005MN0160005N1+01835+00565101505ADDAA101000095AG10999GD10995+9999999GF100991999999999999999999MA1101595097881REMMET030NEW AO2 SLP150 T01830056 TSNO;EQDQ01+999990APOSP Q02+000000PRSWM2N01 00000JPWTH 0QNNAA1D0 00000BA1 0 00000GA1U0 99999KA1D0 00042JA1 0 00056LA1 0 01000CA1 0 03000NA1 0 00000QA1 0 10150SA1D0 00065RA1 0 00183YA1 0 12006
0071727120146071998082321009+46867-068033NSRDB+019099999V020999999999999999999999999999+99999+99999999999ADDGP10060038802008048202015015202008GQ100600607925429GR100600654913369
0055999999999991998082209004+53733-012667FM-18+9999DRIB V02099999999999999999N9999999N9+99999+99999999999ADDAG10999MW1001REMSYN01165597     ]EQDQ01+000002VOVAR 
0054726564999991998010602009+44583-092483NSRDB+023999999V020999999999999999999999999999+99999+99999999999ADDGP10060000002000000002000000002000GR100600000900009
0118477270999991998081904004+35800+140017FM-15+0033RJTL V0200101N002610060019N0048001N1+02601+02301999999ADDAG10999GA1021+003009999GA2071+006009999GF107991999999999999999999MA1101021999999MW1101REMMET020NEW 3ST010 7SC020 A2
0071701330266161998052401009+66883-162600NSRDB+000399999V020999999999999999999999999999+99999+99999999999ADDGP10060023601024000201027023401024GQ100600491921259GR100600873913329
0106999999999991998100306004+19600-111900FM-13+9999P3YR V0203301N00671007501CN0100001N1+02501+02201101501ADDAG10000GF108991081051008001001001MD1110041+9999MW1031REMSYN041 22233 00200 21203 333// 41203 80230 ICE;
0381726590149291998120415003+45450-098417FM-15+0398ABR  V0200505N00465220005MN0096005N1-00115-00225101405ADDAA101000095AG11000GD10995+9999999GF100991999999999999999999GP10060000002009000002021000002009GQ100600858912789GR100600102914089MA1101255096591MD1810021+9999MW1101MW2455REMMET031NEW AO2 SLP140 T10111022 58002;EQDQ01+999990APOSP N01 00070JPWTH 0QNNAA1D0 00000BA1 0 00000GA1U0 99999KA1D0 00028JA1 0-00022LA1 0 00600CA1 0 02990NA1 0 00070QA1 0 10140SA1D0 00030RA1 0-00011YA1 0 05009
0100036950999991998121300004+51667+001100FM-12+000899999V0202601N014919999999N9999999N9+01071+00821101421ADDAG12000MD1210401+9999OA140101901SA1+3639REMSYN029 22200 00363 555 1//37 05107;EQDQ01+000002VOVAR 
0071727856999991998052913009+47683-117317NSRDB+061099999V020999999999999999999999999999+99999+99999999999ADDGP10060001902008003702015001702008GQ100600859906169GR100600096913309
0071725029999991998100522009+41483-073133NSRDB+022299999V020999999999999999999999999999+99999+99999999999ADDGP10060011302008034302015005402008GQ100600801925449GR100600234913679
0059476200999991998010206004+36050+138117FM-12+076299999V0202701N003119999999N0350001N1+00661+00051101721ADDAG10000MA1999999092781MD1310051+9999REMSYN011 555 00070;
0199723710999991998011612003+36933-111450SY-MT+1304KPGA V0201701N00211220001CN0160001N1+00391-00111101481ADDAA106000091AG10000GF100991001001999999001001GP10060000002000000002000000002000GR100600000900009MA1101561086811MD1010031+9999REMMET044NEW AO2 SLP148 T00391011 10061 20022 50003 TEQDQ01+000000PRSWM2
0151085430999991998090708004+41700-008800FM-12+001899999V0209991V00101006001CN0060001N1+01731+01541101401ADDAG12999AY181021AY221021GA1031+004509089GA2051+006009059GF107991061081004501001021MA1999999101211MD1110131+9999MW1251REMSYN023 333 83815 85620 91106;
0114170220999991998090303004+41450+031800FM-12+0137LTAS V0201201N00261027001CN0200001N1+01461+01241102131ADDAG12000GA1031+009009089GA2061+027009039GF106991031021008001051001MD1810061+9999REMSYN023 333 83830 86359 92438;
0087895710999991998040906004-68567+077950FM-12+001399999V0201401N00361007501CN0350001N1-00811-01541098211ADDAG10000AY121061AY221061GF106991061051008001001001MA1999999097931MD1710321+9999MW1141
0115416400999991998081212004+31550+074333FM-12+0215OPLH V0209991C00001090001CN0040001N1+03141+02611099281ADDAA199020091AG10000GF105991011051012501031021KA1120M+03151MA1999999096941MD1999999-0261REMSYN017 333 10315 59026;
0087727566999991998082603354+43667-092933FM-15+0375KAUM V0209999C00001220001CN0160931N1+01801+01801999999ADDAG11999GF100991999999999999999999MA1101561999999REMMET008NEW AO2;EQDQ01+000000PRSWM2
0044999999999991998071413004-52900+074600FM-13+9999SHIP V02099999999999999999N9999999N9+00041+99999100461ADDAG10999MA1999999100341EQDQ01+000002VOVAR 
0063917680999991998010801004-14250-169483FM-12+003299999V0201801N003119999999N9999999N9+03011+99999100661ADDAG10999MD1710131+9999REMSYN011 333 91209;EQDQ01+000002VOVAR 
0055999999999991998122705094+36283-140917FM-18+9999DRIB V02099999999999999999N9999999N9+99999+99999999999ADDAG10999MW1001REMSYN01146606     ]EQDQ01+000002VOVAR 
0086535130999991998110209004+40767+107400FM-12+104199999V0200701N00201220001CN0200001N1+01491-00491101391ADDAG12000GA1001+999999999GF100991001001999999001001MD1710191+0041REMSYN011 333 05406;
0131272250999991998102303004+58000+038833FM-12+011499999V0201801N00201220001CN0040001N1-00041-00071102171ADDAA106000091AG14000GA1001+999999999GF100991001001999999001001MA1999999100841MD1810021+9999REMSYN011 333 55027;EQDQ01+999990APOSP 
0071724373938231998092812009+39450-087300NSRDB+017599999V020999999999999999999999999999+99999+99999999999ADDGP10060000002008000002015000002008GQ100600886909359GR100609999903749
0062038030999991998112319004+49917-006300FM-12+0031EGHE V0202101N004119999999N0000701N1+00961+00681102201ADDAG12999MD1710011+9999REMSYN029 555 170// 83/18 81/24 91850;
0054703985999991998060108009+55133-131583NSRDB+000099999V020999999999999999999999999999+99999+99999999999ADDGP10060000002000000002000000002000GR100600000900009
0153985460999991998121518004+12483+124633FM-12+0005RPVF V0209991C00001030001CN0200001N1+02501+02381100821ADDAA106000391AG10002AY181061AY221061GA1031+005409099GA2031+030009039GF108991031091004501071071MD1810161+9999MW1131REMSYN029 333 56999 83918 83360 88272;
0071724113999991998122114009+37217-080417NSRDB+065099999V020999999999999999999999999999+99999+99999999999ADDGP10060006902009002202021006602009GQ100600812912869GR100600217914149
0153876920999991998090703004-37933-057583SY-MT+0021SAZM V0203201N00311060001CN0100001N1+00881+00711101571ADDAG10000GA1071+060009999GF199999001001999999001061MA1101491101321MD1210081+9999REMSYN017 333 56005 86270;MET005NEW ;EQDQ01+000062SCOTCVQ02+000000PRSWM2
0055999999999991998031202024-03567-165367FM-18+9999DRIB V02099999999999999999N9999999N9+99999+99999999999ADDAG10999MW1001REMSYN01151522     ]EQDQ01+000002VOVAR 
0132767493999991998010515454+18650-091800FM-15+0002MMCE V0200901N00511220001CN0096561N1+02501+01901999999ADDAG10999GA1021+003009999GF104991999999999999999999KA1999M+99999MA1101221999999REMMET008NEW 1000EQDQ01+000000PRSWM2Q02 +00092ATMX  
029772214093805199803011352C+30400-084350FM-15+0017TLH  V0200305N00265220005MN0160005N1+01615+00565101105ADDAA101000095AG11999GD10995+9999999GF100991999999999999999999MA1101125100871REMMET025NEW AO2 SLP110 T01610056;EQDQ01+999990APOSP Q02+000000PRSWM2N01 00000JPWTH 0QNNAA1D0 00000BA1 0 00000GA1U0 99999KA1D0 00042JA1 0 00056LA1 0 01000CA1 0 02986NA1 0 00000QA1 0 10110SA1D0 00061RA1 0 00161YA1 0 03005
0054722123999991998101108009+27950-081783NSRDB+003999999V020999999999999999999999999999+99999+99999999999ADDGP10060000002000000002000000002000GR100600000900009
0071724675230631998111122009+39650-106917NSRDB+198099999V020999999999999999999999999999+99999+99999999999ADDGP10060020002009012802021015202009GQ100600681922089GR100600520913959
0101647000999991998101512304+12133+015033FM-15+0295FTTJ V0201601N00361999991CY0099001N1+03601+02501100601ADDAG10999MA1100811097371REMMET016NEW CAVOK NOSIG;EQDQ01+999990APOSP Q02+999990APOSLPQ03+000000PRSWM2
0071478980999991998063018004+32717+133017FM-12+003399999V0202901N00411090001CN0200001N1+02551+02241101131ADDAG10000GF106991001001999999001021MA1999999100761MD1610011+9999MW1021
0054722300999991998100101009+33167-086767NSRDB+017899999V020999999999999999999999999999+99999+99999999999ADDGP10060000002000000002000000002000GR100600000900009
0131467440999991998103012004+22633+120283FM-12+002999999V0200801N00051036001CN0020001N1+02771+02391101531ADDAA106000091AG10000AY111061AY211061GF106991061001999999011001KA1999M+03171MA1999999101501MD1310091+9999MW1101REMSYN011 333 10317;
0081402550999991998040703004+32550+035850FM-12+0619OJBD V0209991C00001220001CN0100001N1+01001+00421101841ADDAG10000GA1001+999999999GF100991001001999999001001MA1999999094771MD1410001+9999
0185645700999991998113015004+99999+999999FM-12+999999999V0209999999999069001CN0100001N1+03001+02211100271ADDAG10001AY191031AY261031GA1021+004509089GA2011+006009099GA3061+069009009GF106991021091004501001031MA1999999095381MD1999999-0221MW1011REMSYN041 333 59022 82815 81920 86073 94964 95834;
0087085680999991998041023004+40417-007550FM-12+138899999V0202901N002619999999N9999999N9-00321-00331999999ADDAG12999MA1999999085331MD1210121+9999ME1314109REMSYN011 333 91108;EQDQ01+000002VOVAR 
0121747750138461998012606004+30067-085583FM-15+0005KPAM V0209991V00151220001CN0112651N1+00301+00201102231ADDAA106000091AG11000GF100991999999999999999999MA1102241999999MD1610101+9999REMMET017NEW SLP223 56010;EQDQ01+000000PRSWM2
0194716330999991998091612004+44750-081100FM-12+0222CYVV V0200701N00411220001CN0240001N1+01381+01021102261ADDAA106000091AA224001091AG14000GA1001+999999999GF100991001001999999001001GJ100069KA1240M+02121KA2120N+01321MA1102241099591MD1210131+9999REMSYN029 333 10212 20132 55001 70012;EQDQ01+999990APOA  
0054723489039351998063006009+37233-089567NSRDB+010399999V020999999999999999999999999999+99999+99999999999ADDGP10060000002000000002000000002000GR100600000900009
0090723407999991998082318474+35833-090650FM-15+0080KJBR V0202201N00461220001CN0096561N1+03201+01801101611ADDAG11999GA1021+045001999GF102991999999999999999999MA1101591999999MW1051REMMET008NEW SLP1
0131471340999991998062010004+36633+128350FM-15+0108RKTY V0200801N002110600019N0112651N1+02401+01701999999ADDAG10999GA1021+009009999GA2071+060009999GF107991999999999999999999MA1101081999999REMMET020NEW CIG200/ QFF1010PEQDQ01+000000PRSWM2
0154703855999991998061609003+56967-133950FM-15+0000PAFE V0200701N00311220001CN0160931N1+00701+00601999999ADDAG11000GA1021+015001999GF104991999999999999999999GP10060000002000000002000000002000GR100600000900009MA1102301999999REMMET008NEW AO1;EQDQ01+000000PRSWM2
0169478580999991998040206004+33750+129783FM-15+0016RJDB V0200101N004110120019N0112651N1+01101+00401999999ADDAA106000091AG10000GA1021+007509999GA2021+009009999GA3071+012009999GF107991999999999999999999MA1101901999999REMMET031NEW 2CU025 4CU030 6CU040 A3010;EQDQ01+000000PRSWM2
0121160220999991998050612434+46150+011033FM-15+2129LIVP V0201801N00461000151CN0000001N1+00201+00201999999ADDAG11999GA1091+000159999GF109991999999999999999999MA1101291078221MW1451REMMET020NEW MON INVIS VAL INEQDQ01+999990APOSP 
033572486023154199809120753C+39300-114850FM-15+1909ELY  V0201105N00315220005MN0160005N1+00565+00505101495ADDAA101000095AG10999GD10995+9999999GF100991999999999999999999KA1999M+01391KA2999N+00561MA1102005080971REMMET037NEW AO2 SLP149 T00560050 401390056 $;EQDQ01+999990APOSP Q02+000000PRSWM2N01 00000JPWTH 0QNNAA1D0 00000BA1 0 00000GA1U0 99999KA1D0 00041JA1 0 00050LA1 0 01000CA1 0 03012NA1 0 00000QA1 0 10149SA1D0 00042RA1 0 00056YA1 0 11006
0116294670999991998020912004+56283+090500FM-12+027299999V0203001N00201030001CN0040001N1-00901-00971099571ADDAA199005091AG10001AY171061AY271061GF108991081001999999011999KA1999M-00751MD1310081+9999MW1711REMSYN011 333 11075;
0110714230999991998043018004+49083-061700FM-12+0004CWHP V0201801N002619999999N9999999N9+00601+99999100911ADDAG12000KA1120M+00731KA2999N-00091MA1999999100821MD1510001+9999REMSYN017 333 10073 21009;EQDQ01+000002VOVAR 
0116719077999991998100818004+60050-077283FM-15+0023CYPX V0203101N012910105019N0241401N1+00001-00301100931ADDAA106000091AG11000GA1081+010509999GF108991999999999999999999MA1100911999999MW1161OC101591REMMET015NEW SC8 SLP093;
0054747187031041998092906009+33633-116167NSRDB-003499999V020999999999999999999999999999+99999+99999999999ADDGP10060000002000000002000000002000GR100600000900009
0424746120931041998102718003+35683-117683FM-15+0677KNID V0209999C00005220005CN0112005N1+01565-00175101565ADDAA106000091AG10000GA1021+015001999GD11995+9999999GF102991999999999999999999GP10060055602008088602015007102008GQ100600569914319GR100600756913859KA1999M+01561KA2999N+00391MA1101595999999MD1110031+9999REMMET044NEW SLP156 8/100 T01561017 10156 20039 51003EQDQ01+000000PRSWM2N01 00000JPWTH 0QNNE41D0 00299F41 0 00199G41U0 99999K41D0 00029J41 0-00017L41 0 00700C41 0 03000N41 0 00000Q41 0 10156S41D0 00060R41 0 00156X41 0 00000
0071724118999991998051821009+36700-078050NSRDB+043099999V020999999999999999999999999999+99999+99999999999ADDGP10060064102008072902015014302008GQ100600469926289GR100600910913359
0106725366148251998042907504+41017-083667FM-15+0247KFDY V0200901N003610270019N0128741N1+99999+99999102251ADDAG11999GA1081+027001999GF108991999999999999999999REMMET026NEW 0803 A3019 RMK SLP225;EQDQ01+000000PRSWM2
0124763110999991998092912003+26717-108283FM-12+023899999V0209999C00001004201CN0050001N1+02481+02261999999ADDAA106000091AG10000GF107991999021004501001001KA1024N+00025MA1999999098061MD1710051-0114EQDQ01+000062SCOTLCP01  00003PRCP99
0054703260255031998082310009+58683-156650NSRDB+001599999V020999999999999999999999999999+99999+99999999999ADDGP10060000002000000002000000002000GR100600000900009
0096760013999991998122806404+32550-116967FM-15+0152MMTJ V0209991C00001220001CN0096561N1+01201+00601999999ADDAG10999GA1021+060009999GF102991999999999999999999MA1102201999999MW1051MW2101REMMET008NEW 0019
0071726464999991998042216009+43167-088717NSRDB+025499999V020999999999999999999999999999+99999+99999999999ADDGP10060073102008080502015014902008GQ100600437912439GR100600976913529
0106312530999991998082815004+54717+128933FM-12+035799999V0209991C00001220001CN0500001N1+01221+00681101121ADDAG11000AY121031AY221031GF108991001001999999001011MA1999999096821MD1210061+9999MW1041EQDQ01+999990APOSP 
0093025260999991998061121504+57667+012300FM-15+0169ESGG V0203101N00151999991CY0099001N1+00901+00901100571ADDAG11999MA1100511098721REMMET008NEW CAVOEQDQ01+999990APOSP Q02+999990APOSLPQ03+000000PRSWM2
0364727910942241998092414003+46150-123883FM-15+0003AST  V0201905N00215006715MN0160005N1+01285+01175101665ADDAA101000095AG11999GA1081+006601999GD14995+0067159GF108991999999999999999999GP10060000002000000002000000002000GR100600000900009MA1101665101581REMMET025NEW AO2 SLP166 T01280117;EQDQ01+999990APOSP Q02+000000PRSWM2N01 00000JPWTH 0QNNAA1D0 06022BA1 0 06022GA1 0 00022KA1D0 00053JA1 0 00117LA1 0 01000CA1 0 03002NA1 0 00000QA1 0 10166SA1D0 00055RA1 0 00128YA1 0 19004
0140119930999991998120912004+48933+022000FM-12+017899999V0202901N00101002101CN0015001N1-00621-00861102701ADDAA106000191AG10001AY171061AY221061GA1031+002709079GF108991081051002501999999MA1999999100401MD1710151+9999MW1701REMSYN017 333 83709 88643;
0071724066999991998061923009+39700-077733NSRDB+022099999V020999999999999999999999999999+99999+99999999999ADDGP10060010802008000002015010802008GQ100600674928249GR100600508913239
0106166990999991998020304504+38317+023533FM-15+0140LGTG V0209991C000010090019N0050001N1+00801+00701999999ADDAG10999GA1021+003009999GA2071+009009999GF107991999999999999999999MA1101191999999MW1101REMMET008NEW NOSI
0095725029999991998041013374+41483-073133FM-15+0222KOXC V0203401N00511220001CN0160931N1+00501-00201999999ADDAG11999GF100991999999999999999999MA1100141999999OC100771REMMET008NEW AO1;EQDQ01+000000PRSWM2
0071725864999991998082121009+44883-116100NSRDB+153099999V020999999999999999999999999999+99999+99999999999ADDGP10060084402008085702015013402008GQ100600343919869GR100601102913359
0135683680999991998071609004-26133+028233SY-MT+1700FAJS V0202901N00311220001CN0400001N1+01601-00121999999ADDAG10000GF100991001001999999001001MA1102811083751MD1010001+9999ME1315759REMSYN011 555 91028;MET016NEW CAVOK NOSIG;EQDQ01+000000PRSWM2
0087312630999991998062009004+54733+130450FM-12+046499999V0209991C00001007501CN0500001N1+01871+01121100961ADDAG12001AY181031AY221031GF108991081091008001999999MA1999999095661MD1310011+9999MW1021
0055062650999991998122112004+52133+005267FM-12+0013EHSB V0203001N003019999999N0500001N1+00411+00221102081ADDAA106999929AG10000MD1110131+9999REMSYN011 555 53070;
0116727935242341998071322504+47533-122300FM-15+0005KBFI V0202301N00361220001CN0643731N1+02501+00701999999ADDAG11999GA1021+010501999GA2021+060001999GF104991999999999999999999MA1101661999999REMMET005NEW ;EQDQ01+000000PRSWM2
0122724045937201998100421504+38333-075517FM-15+0016KSBY V0203601N00311002401CN0044251N1+02001+01801102131ADDAG10999GA1021+001201999GA2071+002401999GA3081+009001999GF108991999999999999999999MA1102131999999MW1101REMMET008NEW SLP2
0106293130999991998062818004+57533+079367FM-12+009399999V0202201N00101220001CN0200001N1+01481+01331100111ADDAG12004AY191061AY281061GF102991011091008001001011MA1999999098971MD1710021+9999MW1021EQDQ01+999990APOSP 
0076014480999991998083100004+58067+008050FM-12+000899999V0203601N00311220001CN0400001N1+01301+01141101971ADDAA106000091AG14000GF103991011041008001071001MA1999999101881MD1210021+9999
0071726554999991998060221009+43983-094550NSRDB+032599999V020999999999999999999999999999+99999+99999999999ADDGP10060048202008013702015036902008GQ100600351924249GR100601085913289
0109724294999991998072415534+39750-082650FM-15+9999KLHQ V0209991V00261220001CN0160931N1+02301+01401101931ADDAG10999GF100991999999999999999999MA1102001999999REMMET030NEW AO2 SLP193 T02330144 TSNO;EQDQ01+000000PRSWM2
0126718630999991998041810004+50433-104667FM-15+0577CYQR V0203501N00461220001CN0241401N1-00301-00801101661ADDAG11999GA1021+018009999GF104991999999999999999999MA1101421094691REMMET015NEW AC3 SLP166;EQDQ01+999990APOSP Q02+000000PRSWM2
0103712650999991998110309004+43633-079400FM-15+0077CYTZ V0203401N00311220001CN0144841N1+00101-00401102021ADDAG11000GF100991999999999999999999MA1102001101081REMMET008NEW SLP2EQDQ01+999990APOSP Q02+000000PRSWM2
0116035340999991998060515504+52450-001733FM-15+0099EGBB V0200901N005110090019N0112651N1+01601+01101999999ADDAG11999GA1021+007209999GA2071+009009999GF107991999999999999999999MA1101491999999REMMET005NEW ;EQDQ01+000000PRSWM2
0127106870999991998020901004+49700+011950FM-15+0415ETIC V0201501N001510300019N0112651N1-00301-00401999999ADDAG11999GA1071+030009999GF107991999999999999999999MA1103011999999REMMET032NEW SLPNO CIG100 8/070 9/070 WR/EQDQ01+000000PRSWM2
0125890500999991998112100004-62200-058933FM-12+001699999V0203401N00821001201CN0010001N1+00051+00031097661ADDAA112002091AG10001AY181061AY271061GA1081+001209079GF108991081061001501999999MD1710151+9999MW1751REMSYN017 333 60022 88704;
0085374840999991998021012004+41650+041633FM-12+000699999V0202201N00201220001CN0200001N1+00561-00181103001ADDAG12000GF103991011011008001031001MA1999999102901MD1710061+9999REMSYN011 555 12010;
0100722953999991998121021464+35067-118150FM-16+0849KMHV V0200501N00411220001CN0804671N1+00901+99999999999ADDAG10999GA1021+075001999GF102991999999999999999999MA1103251999999REMMET005NEW ;EQDQ01+000000PRSWM2
0119471420999991998010500004+35900+128650FM-15+0035RKTN V0203201N00101220001CN0112651N1-00701-01101999999ADDAA106000091AG10000GA1021+012009999GF104991999999999999999999MA1102471999999REMMET013NEW QFF102T6;EQDQ01+000000PRSWM2
0100623330999991998070303004+31267+032300FM-16+0006HEPS V0203001N00211220001CN0112651N1+99999+99999999999ADDAG10000GA1021+006009999GF102991999999999999999999REMMET020NEW 25X21 Q1004 NOSIEQDQ01+000000PRSWM2
0113071270999991998111321004+48717-001850FM-12+004199999V0200801N00211007501CN0250001N1+00901+00841100251ADDAA103000491AA299000591AG10000GF108991081071008001999999MA1999999099721MD1310181+9999REMSYN017 333 69947 92428;
0070832480999991998051409004-12900-038333FM-12+0006SBSV V0201101N00261220001CN0200001N1+02641+02201101641ADDAG10000GF104991041021004501001001MD1999999-0031REMSYN011 333 59003;
0058475810999991998011117004+40533+141533FM-12+002899999V0202201N002619999999N9999999N9-00221-00541102001ADDAG12999MA1999999101641MD1710021+9999EQDQ01+000002VOVAR 
0134104390999991998012711004+51133+009283SY-MT+0181ETHF V0202101N00101002101CN0035001N1-00651-00651102851ADDAG11999AY121021AY221021GA1021+003009999GF106991061061002501001001MA1102511100491MD1710071+9999MW1101REMSYN011 333 86708;MET005NEW ;
0084010590999991998083020504+70067+024983FM-15+0008ENNA V0202001N00361220001CN0112651N1+00501+00101999999ADDAG11000GF100991999999999999999999MA1102911999999REMMET005NEW ;EQDQ01+000000PRSWM2
0066577930999991998092921004+27800+114383FM-12+012999999V0209991C00001220001CN0100001N1+01701+01601101341ADDAG10000GA1001+999999999GF100991001001999999001001MD1710031+9999
0120319090999991998033118004+45033+136667FM-12+006899999V0203201N00801220001CN0200001N1-00271-01221102181ADDAG12000GA1001+999999999GF100991001001999999001001MA1999999101311MD1210171+9999REMSYN011 333 91116;EQDQ01+999990APOSP 
0116835870999991998071116004-19833-043933FM-15+0917SBCF V0201701N00571220001CN0112651N1+02201+01301999999ADDAG10999GA1021+006009999GF102991999999999999999999MA1102511091891REMMET005NEW ;EQDQ01+999990APOSP Q02+000000PRSWM2
0116722025128491998013008504+26067-080150FM-15+0007KFLL V0203201N001510600019N0241401N1+01401+01101999999ADDAG10000GA1021+006001999GA2071+060001999GF107991999999999999999999MA1101351999999REMMET005NEW ;EQDQ01+000000PRSWM2
0193039570999991998112118004+52250-006333FM-12+002599999V0201801N01001003601CN0100001N1+01091+00891102281ADDAA199000191AG10001AY161061AY221061GA1061+003609079GA2081+030009049GF108991061061004501021999KA1120M+01211MA1999999101971MD1710091+9999MW1601REMSYN041 333 10121 86712 88460 92457 90710 91118;
0112154990999991998031300004+43817+028583FM-12+000999999V0202701N00401220001CN0100001N1-00031-00591102381ADDAA106000091AG14000GA1001+999999999GF100991001001999999001001MA1999999102271MD1210241+9999REMSYN011 333 92427;
0452167464332091998100919003+35533+024150FM-15+0146KQNC V0201105N00155220001CN0112005N1+02105+01605102265ADDAA106000091AA224127091AG10000GF100991999999999999999999KA1999M+02701KA2999N+02101MA1102245999999MD1710021+9999REMMET112NEW T21/16 A3019 SLP226 T02100160 10270 20210 57002 09183 16746 31961 01103 10210 20160 30058 40226 57002 70500;EQDQ01+000000PRSWM2N01 00099JCLC1D3N02 00099JCLM1 3N03 99999CCLHTU3N04 00000JPWTH 0QNNE41D3 00099F41 3 00099G41U3 99999K41D0 00061J41 0 00160L41 0 00700C41 0 03019N41 0 00000Q41 0 10226S41D0 00070R41 0 00210X41 0 11003
0101085790999991998121616004+38767-009133FM-12+010599999V0200601N00051220001CN0120001N1+01631+00731102591ADDAG10999GA1021+075009009GF102991001001999999001011MA1999999101341MD1610081+9999REMSYN011 333 82075;
0071722588999991998123018009+33067-096067NSRDB+016399999V020999999999999999999999999999+99999+99999999999ADDGP10060052802008078602015010902008GQ100600579916469GR100600751914159
0076471190999991998062106004+37267+126983FM-12+003899999V0201401N00411007501CN0200001N1+02891+01701100901ADDAA106000091AG10000GF105991051051008001001001MA1999999100471MD1710131+9999
0084269970999991998060915004+52583+033767FM-12+018099999V0203401N00101220001CN0400001N1+02881+01311101661ADDAG12000GF103991001001999999001011MA1999999099641MD1710201+9999EQDQ01+999990APOSP 
0312996110999991998062511004+53200-015000FM-18+9999DB61 V0202801N007719999999N9999999N9+01171+00971100541ADDAG12999MD1410001+9999SA1+1349UA1M070309999REMSYN239 22200 00134 10706 70031 555 1//26 05381 07282 10076 11132 12174 13483 14795 15526 18005 19000 22115 23018 35061 36121 50053 51297 52019 53294 70001 71000 72544 73132 74503 75445 76900 90118 05382 07285 10074 11128 12417 13434 14855 15525;EQDQ01+000002VOVAR 
0104724699999991998060101009+39917-105117NSRDB+172499999V020999999999999999999999999999+99999+99999999999ADDGM1006001220390001039011603999999GP10060029102008072502015005102008GQ100600707928309GR100600439913299
0151999999999991998012700004+32500+150600FM-13+9999JMMN V0203301N01291009001CN0200001N1+01501+01251101591ADDAG10000AY111061AY281061GF107991071081004501999999MD1210251+9999MW1811SA1+1909UA1M030109999UG1080203209REMSYN037 22223 00190 20302 332// 40804 80135;
0160014480999991998030206004+58067+008050FM-12+000899999V0201401N01391002101CN0060001N1+00031+00021099521ADDAA199001091AG10001AJ100009199999999AY171061AY221061GF108991071071002501021999IA1259KA1120N-00201MA1999999099431MD1710621+9999MW1721REMSYN017 333 21020 41998;
0204104760999991998051021004+51767+013183SY-MT+0079ETSH V0200701N00051220001CN0200001N1+01461+00981102021ADDAG11000GA1021+069009999GF199999001001999999001021MA1102001101041MD1210041+9999REMSYN065 333 81073 555 BOT 00206 10220 20226 30216 40163 999 00804 30///;MET008NEW BLU+EQDQ01+000012SCOTCVQ02+000000PRSWM2
0107870220999991998011921004-22650-063817FM-12+0450SAST V0203601N00511220001CN0150001N1+03401+02241100181ADDAG10000GA1021+010509089GF102991021021012501001001MA1999999095261MD1610241+9999REMSYN017 333 56899 82835;
0055999999999991998061009004+78533-135133FM-18+9999DRIB V02099999999999999999N9999999N9+99999+99999999999ADDAG10999MW1001REMSYN01148102     ]EQDQ01+000002VOVAR 
033972528014733199812022254C+42933-078733FM-15+0215BUF  V0202505N00775220005MN0160005N1+01225+00225101265ADDAA101000095AG11999GA1021+075001999GD11995+0762059GF102991999999999999999999MA1101255098701OC101341REMMET043NEW AO2 PK WND 25027/2158 SLP126 T01220022;EQDQ01+999990APOSP Q02+000000PRSWM2N01 00000JPWTH 0QNNAA1D0 02250BA1 0 01250GA1U0 99999KA1D0 00036JA1 0 00022LA1 0 01000CA1 0 02990NA1 0 00000QA1 0 10126SA1D0 00054RA1 0 00122YA1 0 25015
0140726940242321998102614314+44917-123000FM-16+0061KSLE V0209999C000010003019N0004021N1+00601+00601102331ADDAG10999GA1071+000301999GA2081+001501999GF108991999999999999999999MA1102301101571MW1441REMMET007NEW AO2EQDQ01+999990APOSP Q02+999990APOSLP
036872295023174199803222150C+33933-118400FM-15+0030LAX  V0202405N00575085345MN0160005N1+01945+01445101755ADDAA101000095AG10999GA1071+084001999GA2081+090001999GD13995+0853459GD24995+1005859GF108991999999999999999999MA1101765101381REMMET027NEW AO2 SLP175 T01940144 $;EQDQ01+999990APOSP Q02+000000PRSWM2N01 00000JPWTH 0QNNAA1D0 04280BA1 0 04280AA1D0 06330BA1 0 06330GA1 0 00280KA1D0 00058JA1 0 00144LA1 0 01000CA1 0 03005NA1 0 00000QA1 0 10175SA1D0 00067RA1 0 00194YA1 0 24011
0087726583999991998070406364+45100-094500FM-15+0347KLJF V0200301N00361220001CN0160931N1+01701+01501999999ADDAG11999GF100991999999999999999999MA1101901999999REMMET008NEW AO2;EQDQ01+000000PRSWM2
0366727920242271998071111003+46967-122900FM-15+0063OLM  V0201805N00465006105MN0160005N1+01395+01225101875ADDAA101000095AG11999GA1081+006001999GD14995+0061059GF108991999999999999999999GP10060000002000000002000000002000GR100600000900009MA1101905101161REMMET027NEW AO2 SLP187 T01390122 $;EQDQ01+999990APOSP Q02+000000PRSWM2N01 00000JPWTH 0QNNAA1D0 06020BA1 0 06020GA1 0 00020KA1D0 00054JA1 0 00122LA1 0 01000CA1 0 03009NA1 0 00000QA1 0 10187SA1D0 00057RA1 0 00139YA1 0 18009
0125723604230071998080600534+34433-100283FM-15+0595KCDS V0203601N005110180019N0160931N1+02801+01701101761ADDAG11999GA1071+018001999GF107991999999999999999999MA1102001999999REMMET030NEW AO2 SLP176 T02830172 TSNO;EQDQ01+000000PRSWM2
0155727440148581998111112454+47167-088500FM-15+0329KCMX V0203001N012910060019N0160931N1+00101-00201099541ADDAG11999GA1081+006001999GF108991999999999999999999MA1099421999999OC101801REMMET052NEW PKWND 30044/39 OCNL -PL PRESRR SLP954 T00121017;EQDQ01+000000PRSWM2
0093161700999991998042501504+43800+011200FM-15+0038LIRQ V0209991C00001999991CY0099001N1+01101+00901101851ADDAG11999MA1101801101391REMMET008NEW CAVOEQDQ01+999990APOSP Q02+999990APOSLPQ03+000000PRSWM2
0164106160999991998050518004+49950+007267SY-MT+0498EDFH V0202401N00311015001CN0300001N1+01001+00411101011ADDAA106000091AG10000GA1021+009009999GA2071+015009999GF107991071081008001999999MA1101021095111MD1610051+9999REMSYN017 333 81830 87650;MET005NEW ;EQDQ01+000000PRSWM2
0155896740876011998011210004-77867+166967FM-15+0008NZCM V0200601N00151007201CN0112651N1-00901+99999098371ADDAG10999GA1071+007209999GA2071+010509999GF107991999999999999999999MA1098371999999REMMET044NEW SLP837 FATA MORGANA GRID N-E-SE SDF/HDF;EQDQ01+000000PRSWM2
0071723417939881998101619009+34167-091933NSRDB+006399999V020999999999999999999999999999+99999+99999999999ADDGP10060038002008005402015034102008GQ100600442919309GR100600986913769
0085527540999991998041021004+37333+100133FM-12+330199999V0200201N00201090001CN0200001N1-00491-01131999999ADDAG10000GF107991001001999999001081MA1999999068361MD1710021+0091REMSYN011 333 00959;
0071543424999991998123001004+41800+123400FM-15+0035ZYTX V0209999V002012200019N0112651N1-01101-01701999999ADDAG11999GF100991999999999999999999MA1103181999999MW1001REMMET005NEW ;
0101637930999991998021211004-03400+038567FM-15+0579HKVO V0209991V00101220001CN0112651N1+03001+02201999999ADDAG10999GA1021+007209099GA2021+027009999GF104991999999999999999999REMMET005NEW ;EQDQ01+000000PRSWM2
0054722885999991998081712009+34017-118450NSRDB+005399999V020999999999999999999999999999+99999+99999999999ADDGP10060000002000000002000000002000GR100600000900009
0036152960999991998040523004+45417+023367FM-12+059999999V0209991C00001036001CN0100001N1+01041+99999999999ADDAG12999GF106991061001999999071001
0155722269038501998121619003+31283-085717FM-15+0091KOZR V0203101N00311220001CN0112651N1+01901+00001102261ADDAG11999GF100991999999999999999999GP10060055202008079402015010702008GQ100600561919429GR100600788914129MA1102201999999REMMET008NEW SLP2EQDQ01+000000PRSWM2
0126253780999991998012115004+66350-179117FM-12+002699999V0203201N01401030001CN0010001N1-01921-02331101611ADDAG11000AY131031AY221031GF107991071001999999051001MA1999999101261MD1810081+9999MW1391REMSYN011 333 91127;EQDQ01+999990APOSP 
0147315380999991998060600004+50067+132133FM-12+034999999V0201801N00301007501CN0060001N1+01411+01191100621ADDAA199020091AG10002AY181061AY221061GF108991061091008001051999KA1120N+01111MA1999999096591MD1710041+9999MW1811REMSYN027 333 20111 555 12016 7026/;
0058474350999991998032610004+44350+143367FM-12+001699999V0202201N002119999999N9999999N9+00351-00571101951ADDAG12999MA1999999101741MD1210031+9999EQDQ01+000002VOVAR 
0131152700999991998021721004+45683+021917FM-12+012599999V0200501N00301220001CN0100001N1+00241+99999102861ADDAA106000091AG14000GA1001+999999999GF100991001001999999001001MA1999999101291MD1210632+9999REMSYN011 333 55010;EQDQ01+000632APC3  
0084343630999991998011703004+50083+045417FM-12+012099999V0209991C00001030001CN0200001N1-01661-02001102901ADDAG12000GF107991071001999999031001MA1999999101291MD1410001+9999EQDQ01+999990APOSP 
0094538630999991998092106004+37050+111933FM-12+075099999V0200401N00301090001CN0250001N1+02311+00531101361ADDAA106000091AG10000GF105991001001999999001021KA1999N+00791MD1710231+9999REMSYN011 333 20079;
0163722748999991998060923003+32950-111767FM-15+0446KCGZ V0202301N00461220001CN0160931N1+03301-00101999999ADDAG10999GF100991999999999999999999GP10060073302008081802015012002008GQ100600414926819GR100600992913259MA1100951999999OC101031REMMET008NEW AO1;EQDQ01+000000PRSWM2
0142031360999991998112608004+55517-004583FM-12+002099999V0202701N01031007801CN0120001N1+01031+00781100611ADDAG12999AY161021AY221021GA1031+003009079GA2051+007809059GF107991071051004501999999MD1510081+9999MW1211REMSYN029 333 83710 85626 90710 91135;
0108484070999991998123112004+15250+104870FM-12+0127VTUU V0200201N005111050019N0060001N1+02701+01891101241ADDAA199000021GF105991021041001501041011KA1120M+03171MA1999999099821MD1999999+0021REMSYN017 333 10317 58002;
0147726988242191998052422524+45617-121167FM-15+0074KDLS V0203101N006210540019N0321861N1+01901+01401101201ADDAG11999GA1021+013501999GA2021+027001999GA3081+054001999GF108991999999999999999999MA1101191999999REMMET020NEW SHRA DSNT SW SLPEQDQ01+000000PRSWM2
0100319870999991998113021004+43150+133017FM-12+020299999V0200101N00501220001CN0500001N1-01541-02351102721ADDAG12000GA1001+999999999GF100991001001999999001001MA1999999099961MD1110031+9999EQDQ01+999990APOSP 
0103788970999991998062505004+16267-061517FM-15+0008TFFR V0201001N00311220001CN0112651N1+02701+02401999999ADDAG10999GA1021+006909999GF102991999999999999999999MA1101691999999REMMET008NEW NOSIEQDQ01+000000PRSWM2
0163368590999991998080703004+44167+080067FM-12+064099999V0200901N00401090001CN0500001N1+02281+01741100941ADDAA106000091AG14000GF106991021001999999041081GJ104329IA1019IA2999+02109MA1999999093781MD1210051+9999REMSYN033 333 55072 555 20200 30021 2000/;EQDQ01+999990APOSP 
0055999999999991998053015004+78417-136983FM-18+9999DRIB V02099999999999999999N9999999N9+99999+99999999999ADDAG10999MW1001REMSYN01148102     ]EQDQ01+000002VOVAR 
0116727885999991998012215504+48117-123500FM-15+0088KCLM V0209999C00001220001CN0402331N1+00001-00101999999ADDAG11999GA1021+018001999GA2021+054001999GF104991999999999999999999MA1101591999999REMMET005NEW ;EQDQ01+000000PRSWM2
0136725326999991998010917364+41750-089667FM-15+0197KSQI V0202601N008210036019N0160931N1-00101-00301999999ADDAA101000391AG11000GA1071+003601999GF107991999999999999999999MA1100781999999REMMET014NEW AO1 P0001;EQDQ01+000000PRSWM2Q02  00002PRCP06
0076154050999991998051915004+44750+027300FM-12+005199999V0202701N00401007501CN0100001N1+01981+00971100931ADDAA106000091AG14000GF107991051031008001061001MA1999999100331MD1710081+9999
0131946100999991998060901004-31933+115950FM-12+0029YPPH V0200201N00511012001CN0250001N1+01541+01251101101ADDAA124000591AG10999AY181999AY221999GF107991071081008001999999KA1999N+01131MA1999999100861MD1310011+9999MW1021REMSYN011 333 20113;
0103545273999991998082623004+39183+117350FM-15+0003ZBTJ V0200501N00201220001CN0050001N1+02201+02101999999ADDAG10999GA1021+018009999GA2021+030009999GF104991999999999999999999MA1101021999999MW1101REMMET005NEW ;
0054724677999991998082908009+38533-106933NSRDB+233999999V020999999999999999999999999999+99999+99999999999ADDGP10060000002000000002000000002000GR100600000900009
0058476320999991998040104004+35400+136767FM-12+001799999V0200401N004619999999N9999999N9+00691+00401101791ADDAG10999MA1999999101581MD1810361+9999EQDQ01+000002VOVAR 
0071722900231881998032801009+32733-117167NSRDB+000499999V020999999999999999999999999999+99999+99999999999ADDGP10060021002008015702015015802008GQ100600708926079GR100600450913739
0145718340999991998042909004+49783-086933FM-15+0351CYGQ V0202801N001510300019N0241401N1+00901+00201101781ADDAG11001GA1021+015009999GA2081+030009999GF108991999999999999999999MA1101731097601MW1801REMMET028NEW SC3AC5 TCU EMBDD SLP178;EQDQ01+999990APOSP 
0071702035999991998101523009+63683-170500NSRDB+001799999V020999999999999999999999999999+99999+99999999999ADDGP10060009501028001901031008901028GQ100600728917029GR100600407913759
0212726073999991998111704003+44533-069683FM-15+0101KWVL V0200301N002110300019N0160931N1-00101-00801999999ADDAG11999GA1081+030001999GF108991999999999999999999GP10060000002000000002000000002000GR100600000900009MA1101461999999MD1210031+9999REMMET052NEW AO1 LTG DATA MISG 52003 PWINO FZRANO TSNO RVRNO;EQDQ01+000000PRSWM2
0116042700999991998012019504+61183-045417FM-15+0026BGBW V0200901N00261220001CN0112651N1-01001-02001100591ADDAG10999GF100991999999999999999999MA1100511100171REMMET005NEW ;EQDQ01+999990APOSP Q02+999990APOSLPQ03+000000PRSWM2
0119035905999991998060806504+52967-000983FM-15+0055EGXN V0202401N005110180019N0112651N1+01401+01101999999ADDAG12999GA1021+010509999GA2071+018009999GF107991999999999999999999MA1101081999999REMMET008NEW BLU;EQDQ01+000000PRSWM2
0071725250148521998051521009+41250-080667NSRDB+036099999V020999999999999999999999999999+99999+99999999999ADDGP10060060002008052802015023402008GQ100600462925589GR100600924913379
0190723525939861998100323534+34983-099050FM-15+0477KHBR V0200901N00571220001CN0160931N1+02201+02001100981ADDAA106000091AG11000GA1021+003601999GF102991999999999999999999KA1999M+02331KA2999N+01891MA1101121999999MD1510071+9999REMMET044NEW AO2 SLP098 T02170200 10233 20189 55007 TEQDQ01+000000PRSWM2
0123085480999991998081016004+40150-008467FM-12+017999999V0203101N00211220001CN0100001N1+03251+01871101411ADDAG11999AY101011AY201011GA1001+999999999GF100991001001999999001001MA1999999099401MD1610091+9999MW1101REMSYN011 333 91106;
0112718340999991998101803404+49783-086933FM-16+0351CYGQ V0200701N004610012019N0010061N1+99999+99999999999ADDAG10002GA1081+001209999GF108991999999999999999999MW1811MW2951REMMET020NEW FG4SF4 CB EMBDD;EQDQ01+000100PRSWM4
031772637014826199809220254C+42967-083750FM-15+0234FNT  V0203505N00365220005MN0160005N1+01675+01065101525ADDAA101000095AG11000GD10995+9999999GF100991999999999999999999MA1101565098781MD1110191+9999REMMET031NEW AO2 SLP152 T01670106 51019;EQDQ01+999990APOSP Q02+000000PRSWM2N01 00000JPWTH 0QNNAA1D0 00000BA1 0 00000GA1U0 99999KA1D0 00051JA1 0 00106LA1 0 01000CA1 0 02999NA1 0 00000QA1 0 10152SA1D0 00062RA1 0 00167YA1 0 35007
0087724666999991998120502009+39567-104850NSRDB+179399999V020999999999999999999999999999+99999+99999999999ADDGM1006000000190000019000001999999GP10060000002000000002000000002000GR100600000900009
0104723898999991998042319009+36317-119617NSRDB+007599999V020999999999999999999999999999+99999+99999999999ADDGM1006002141690000179021406999999GP10060018402008000602015017902008GQ100600308913549GR100601160913529
0056354160999991998011112004+49067+054683FM-12+010399999V0201401N00401036001CN0100001N1-00481-00841999999ADDAG12000GF107991061001999999071071REMSYN011 555 1/106;
0131726686240251998042407484+44383-100283FM-15+0531KPIR V0201101N00461220001CN0193121N1+01301+00301100551ADDAG11999GA1021+003001999GA2021+075001999GF102991999999999999999999MA1100641999999REMMET020NEW SLP055 T01320034EQDQ01+000000PRSWM2
0199725755241011998102420003+41117-111967FM-15+1459KHIF V0201901N004110750019N0112651N1+01801+00001101611ADDAG11999GA1021+024001999GA2071+075001999GF107991999999999999999999GP10060054402009054902021021402009GQ100600533918559GR100600826913829MA1101931999999REMMET020NEW SLP161 8/038 9/0EQDQ01+000000PRSWM2
0149471430999991998111400004+35883+128617FM-12+0061RKTT V0201601N00101220001CN0120001N1+01091+00731102021ADDAA106000091AG10000GA1001+999999999GF100991001001999999001001IA1019IA2999+01109KA1120N+00861MA1999999101271MD1210181+9999REMSYN017 333 20086 30011;
0058154700999991998122123004+44117+025000FM-12+010399999V0209991C00001036001CN0026001N1-00091+99999999999ADDAG11999AY121021AY221021GF108991081001999999071999MW1101
0211072220999991998091115004+47167-001600SY-MT+0027LFRS V0202801N00511004801CN0200001N1+01701+01231100221ADDAA103001091AG10001AY161031AY221031GA1071+004809089GA2021+006009099GF199999051091004501071001MA1100201099921MD1810191+9999MW1031REMSYN023 333 60017 85816 81920;MET008NEW NOSIEQDQ01+000062SCOTCVQ02+000000PRSWM2
0058477590999991998082203004+35017+135733FM-12+004699999V0201201N001519999999N9999999N9+03171+01821101331ADDAG10000MA1999999100821MD1710161+9999EQDQ01+000002VOVAR 
0291038090999991998041106004+50083-005250SY-MT+0082EGDR V0203601N01081009001CN0150001N1+00501+00311100241ADDAA106999999AA299001091AG10001AY181061AY261061GA1021+003009999GA2021+004809999GA3081+009009999GF108991081081004501999999IA1119IA2999+00309KA1120N+00341MA1100201999999MD1310111+9999MW1161MW2251OC101751REMSYN047 333 20034 32003 83710 83816 88630 90710 91139;MET008NEW GRN;EQDQ01  00002PRCP06
0120030050999991998021922004+60133-001183FM-12+008499999V0202301N01081033001CN0120001N1+00801+00551101031ADDAG10999AY121011AY221011GA1071+033009039GF107991071001999999031999MD1010031+9999MW1051REMSYN023 333 87361 90710 91135;
0085564440999991998052121004+28500+098900FM-12+348899999V0209991C00001007501CN0280001N1+01161+00941999999ADDAG10000GF106991061011008001001001MA1999999068321MD1710041+0011REMSYN011 333 00102;
0224476600999991998083008004+35700+139400FM-15+0098RJTC V0203601N00361001801CN0035001N1+02201+02101999999ADDAG10999GA1021+001509999GA2071+001809999GA3081+006009999GF108991999999999999999999MA1100611999999MW1101MW2801REMMET104NEW 4ST005 6ST006 8CU020 A2971 FCST 0817 TEMPO 0812 SHRA BKN005ST SCT007TCU OVC020CU TEMPO 1217 2500 SHR
0069029740999991998100619504+60317+024967FM-15+0056EFHK V0202901N00051999991CY0099001N1+00001-00201999999ADDAG11999MA1103591999999REMMET016NEW CAVOK NOSIG;EQDQ01+000000PRSWM2
0106066890999991998072718004+47367+008950FM-12+114499999V0202901N004619999999N9999999N9+01361+01361999999ADDAG12000KA1120M+01541MA1999999088821MD1510011+9999ME1314939REMSYN017 333 10154 91127;EQDQ01+000002VOVAR 
