0071723407999991999031222009+35833-090650NSRDB+008299999V020999999999999999999999999999+99999+99999999999ADDGP10060011402008000002015011402008GQ100600604924069GR100600682913859
0071725847999991999020216009+38900-120000NSRDB+190999999V020999999999999999999999999999+99999+99999999999ADDGP10060003402008041902015000602008GQ100600856911569GR100600094912329
0138150090999991999041318004+47970+026400FM-12+024199999V0201401N003012200019N0130001N1+01201+00651100421ADDAA199000091AG14999GF103991031001999999071001IA1019IA2999+02709KA1120M+01601MA1999999097581REMSYN017 333 10160 30027;EQDQ01  00002PRCP99
0107039760999991999030902004+54230-010000FM-12+001099999V0200801N002012200019N0400001N1+00221+00001100881ADDAG12999GA1011+006009099GF103991031031008001001001MA1999999100761MD1310021+9999REMSYN017 333 81920 81820;
0164747810999991999010623003+30970-083200FM-15+0071KVAD V0201701N000512200019N0112651N1+00701-00601102811ADDAG11999GF100991999999999999999999GP10060001602008019702015000702008GQ100600862924109GR100600070910499MA1102811999999MW1001REMMET011NEW SLP281;EQDQ01+000000PRSWM2
0071703817999991999050517009+58200-136350NSRDB+000099999V020999999999999999999999999999+99999+99999999999ADDGP10060038902013069002032009302013GQ100600647910019GR100600574913439
0054722024999991999012908009+25900-080283NSRDB+000399999V020999999999999999999999999999+99999+99999999999ADDGP10060000002000000002000000002000GR100600000900009
0454723755031031999091420003+35133-111667FM-15+2132FLG  V0201105N00365014945MN0160005N1+01395+01175101655ADDAA101000025GD13995+0149459GD24995+0198159GF108991999999999999999999GP10060027402008000602015026902008GQ100600321918369GR100601145913519MA1102405999999MW1001REMMET094KFLG 141956Z 11007KT 10SM BKN049 OVC065 14/12 A3024 RMK AO2 TSE06RAE54 SLP165 P0000 T01390117;EQDQ01+000000PRSWM2N01 00000JPWTH 0QNNAA1D0 04049BA1 0 04049AA1D0 06065BA1 0 06065GA1 0 00049KA1D0 00053JA1 0 00117LA1 0 01000CA1 0 03024NA1 0 00000QA1 0 10165SA1D0 00057RA1 0 00139YA1 0 11007
0137725095947461999100208544+42270-071880FM-16+0308KORH V02099999999999999999N9999999N1+99999+99999999999ADDAJ100019199999999MW1001REMMET083KORH 020854Z AUTO 30007KT 10SM CLR 08/05 A3011 RMK AO2 SLP199 T00780050 53007 TSNO;EQDQ01+000000PRSWM2
0139872170999991999110811004-29380-066820FM-15+0429SANL V0209999C000010150019N0112651N1+01501+00501999999ADDGA1081+015009999GF108991999999999999999999MA1102511999999MW1001REMMET045SANL 081100Z 00000KT 9999 OVC050 15/05 Q1025;EQDQ01+000000PRSWM2
0128764055999991999100501454+24070-110370FM-15+0021MMLP V0209999C000012200019N0096561N1+03001+02201999999ADDGF100991999999999999999999MA1100851999999MW1001REMMET050MMLP 050145Z 00000KT 6SM SKC 30/22 A2978 RMK HZY ;EQDQ01+000000PRSWM2
0124915540999991999081618004-15520+167220FM-12+0044NVSS V0209999C000010054019N0200001N1+02651+02201101071ADDAA199000021GA1021+004209079GA2031+005409089GF107991071081004501999999MD1310041+9999REMSYN029 333 563// 82714 83818 87640;
0054725485149401999062005009+43150-093333NSRDB+036499999V020999999999999999999999999999+99999+99999999999ADDGP10060000002000000002000000002000GR100600000900009
0107724930232301999080304454+37730-122220FM-15+0003KOAK V0202601N006210015019N0160931N1+01701+01401999999ADDGD14991+0015019GF108991999999999999999999MA1102101999999MW1001REMMET014NEW T01720144;EQDQ01+000000PRSWM2
0091999999999991999111812094+43950-049030FM-18+9999DRIB V02099999999999999999N9999999N1+99999+99999999999ADDMW1001SA1+0379REMSYN065ZZYY 44510 18119 1209/ 743959 049036 6111/ 22219 00037 444 90015;
0051140150999991999032521004+46070+014520FM-12+031699999V0202301N003019999999N9999999N1+01131+00071101361ADDAG12999GF108991999999999999999999MA1999999097821
0071724509999991999021221009+38050-097283NSRDB+046799999V020999999999999999999999999999+99999+99999999999ADDGP10060055402008087302015008402008GQ100600575921119GR100600754914049
0159545110999991999012106004+39930+116280SY-MT+0055ZBAA V0202001N002012200019N0080001N1+00491-01671101761ADDAA199000091GF100991001001999999001001KA1999N-01041MA1101691101341MD1710361+9999MW1041REMSYN011 333 21104;MET010NEW NOSIG;EQDQ01  00002PRCP99Q02    003PRSWM1
0071723035999991999072417009+34983-078883NSRDB+005999999V020999999999999999999999999999+99999+99999999999ADDGP10060088402008068602015023602008GQ100600192914059GR100601249913249
0105999999999991999061306004+44100-055400FM-13+9999WGXN V0209999N999999999999N0005001N1+01701+01601102601ADDAG11999AY141061GF108991999999999999999999MD1410001+9999MW1121UA1M990109999REMSYN019 22224 20402 80155;
0239033020999991999102906004+53250-004530FM-12+0011EGOV V0201201N002610075019N0250001N1+00781+00611102251ADDAA106000091GA1021+004509069GA2071+007509069GF107991071051004501999999IA1099IA2999+00109KA1120N+00461MD1610141+9999REMSYN094AAXX  29064 03302 32475 71205 10078 20061 40225 56014 875// 333 20046 31001 82615 87625 92428;EQDQ01  00002PRCP06
0137742070242011999101109294+47080-122580FM-16+0092KGRF V02099999999990030019N0112651N1+01001+00801999999ADDGD13991+0030019GF107991999999999999999999MA1101661999999MW1001REMMET044KGRF 110929Z VRB02KT 7SM BKN010 10/08 A3002;EQDQ01+000000PRSWM2
0070026360999991999072707504+55550+013370FM-15+0106ESMS V0203301N004619999999Y0099001N1+01801+01001999999ADDAG11999MA1102301999999MW1001REMMET011NEW CAVOK ;EQDQ01+000000PRSWM2
0105725337999991999041210504+41620-087420FM-15+0180KGYY V0203501N005110051019N0160931N1+00401+00201999999ADDAG11999GD13991+0051019GF107991999999999999999999MA1102341999999MW1001REMMET005NEW ;EQDQ01+000000PRSWM2
0224084290999991999102509004+37950-001230SY-MT+0075LERI V0209999C000019999999Y0200001N1+01401+01101100711ADDAJ100069199999999GF107991051001999999071061MA1100711099831MD1210231+9999MW1001REMSYN066AAXX  25094 08429 42970 70000 10140 20110 39983 40071 52023 85076;MET043LERI 0900Z 00000KT CAVOK 13/12 Q1007 NOSIG;EQDQ01+000000PRSWM2
0137038650999991999041405004+50900-001400SY-MT+0009EGHI V0209999C000012200019N0250001N1+00101-00131099911ADDAG12999GA1021+009009999GF103991031051017501001001MA1099801999999MD1710291+9999MW1001REMSYN011 333 83650;MET005NEW ;EQDQ01+000000PRSWM2
0095717300999991999051812394+46620-080800FM-16+0348CYSB V0201901N006710006019N0012071N1+99999+99999999999ADDGD14991+0006099GF108991999999999999999999MW1001MW2101REMMET011NEW FG2ST6;EQDQ01+000003PRSWM1
0029999999999991999080116304+48000-044500FM-18+9999DRIB V02099999999999999999N9999999N1+99999+99999999999ADDMW1001REMSYN01144626     ]
0108964490999991999042209004+04330+113980FM-12+0018WBGR V0202001N001510450019N0250001N1+02531+02431100701ADDAY161031AY221031GA1021+004809069GF107991021051004501071011MA1999999100501MW1211REMSYN017 333 82616 85365;
0191319600999991999050606004+43120+131900SY-MT+0184UHWW V0202801N008010600019N0500001N1+01051-00091100041ADDAG11999GA1021+007809099GA2071+060009999GF108991061021012501031999MA1099801999999MD1710051+9999MW1001OC101201REMSYN011 333 91115;MET035NEW NOSIG RMK QFE747/0997 75CLRD80;EQDQ01+000000PRSWM2
0206726945999991999083010003+44500-123280FM-15+0075KCVO V0203001N003110135019N0112651N1+01301+00901999999ADDAA101000591AG11999GD12991+0072019GD22991+0114019GD33991+0135019GF107991999999999999999999GP10060000002000000002000000002000GR100600000900009MA1101561999999MW1001REMMET014NEW AO1 P0002;EQDQ01+000000PRSWM2
0136076300999991999010704304+43630+001370FM-15+0153LFBO V0201801N003112200019N0080001N1+00801+00701102081ADDGA1021+003909999GF102991999999999999999999MA1102001100201MW1001REMMET010NEW NOSIG;EQDQ01+999990APOSP Q02+999990APOSLPQ03+000000PRSWM2
0130483750999991999012109004+16670+098550FM-12+0197VTPM V0200101N001512200019N0070001N1+03301+01801100761ADDAA199000091AY101031AY201031GF103991011021008001001051MA1999999098571MD1999999+0051MW1051REMSYN011 333 58005;EQDQ01  00002PRCP99
0066296360999991999081018004+55230+084400FM-12+017199999V0203201N001012200019N0200001N1+01001+00511100581ADDAG12999GA1001+999999999GF100991001001999999001001MD1810031+9999
0156723069999991999031102003+34830-077620FM-15+0029KOAJ V0203401N001512200019N0160931N1+00201-00101999999ADDGF100991999999999999999999GP10060000002000000002000000002000GR100600000900009MA1101321999999MW1001REMMET027NEW AO1 PWINO FZRANO RVRNO;EQDQ01+000000PRSWM2
0259717830999991999112306004+48450-123300SY-SA+0060CWYJ V0201401N001019999999N9999999N1+00771+00771102101ADDAA106000091KA1240M+00891KA2240N+00561MA1999999101341MD1110021+9999MW1001REMSYN082AAXX  23064 71783 36/// /1402 10077 20077 30134 40210 51002 333 10089 20056 70028;AWY052WYJ SA 0600 AUTO8 M M M 210/08/08/1201/M/ 1002 77MM;EQDQ01+000990PRSWM4Q02  00002PRCP06
0260723444999991999123118003+36350-094220FM-15+0395KVBT V0200901N002612200019N0160931N1+01201-00201999999ADDGF100991999999999999999999GP10060050202009085902021008002009GQ100600607916699GR100600692914159KA1999M+01201KA2999N-00101MA1101961999999MD1710101+9999MW1001REMMET074KVBT 311755Z AUTO 09005KT 10SM CLR 12/M02 A3011 RMK AO1 10120 21010 57010;EQDQ01+000000PRSWM2
0183726516240241999082019003+44050-101600FM-15+0673KPHP V0203001N003612200019N0160931N1+02901+01701101261ADDAG11999GF100991999999999999999999GP10060075002008055302015028102008GQ100600321917099GR100601130913349MA1101461999999MW1001REMMET030NEW AO2 SLP126 T02890167 TSNO;EQDQ01+000000PRSWM2
0127722348999991999031404354+31470-089330FM-15+0091KPIB V0202901N003610018019N0160931N1+00901+00601999999ADDAG11999GD14991+0018019GF108991999999999999999999MA1100311999999MW1001REMMET027NEW AO1 PWINO FZRANO RVRNO;EQDQ01+000000PRSWM2
0071702005999991999071208009+62067-163300NSRDB+009599999V020999999999999999999999999999+99999+99999999999ADDGP10060003401025023301028001801025GQ100600860931289GR100600092913229
0054723235138961999110409009+34750-087600NSRDB+016599999V020999999999999999999999999999+99999+99999999999ADDGP10060000002000000002000000002000GR100600000900009
0196725305999991999121313534+41920-088250FM-15+0231KDPA V0203601N00151000151CN0024141N1-00601-00601101871ADDGD15991+0001519GF109991999999000251999999MA1101761999999MW1491REMMET087KDPA 131353Z 36003KT 1/2SM FZFG VV001 M06/M06 A3005 RMK AO2 TWR VIS 1 SLP187 T10611061;EQDQ01+000003PRSWM1Q02    003PRSWM1
0136718160999991999041002324+53320-060420FM-16+0049CYYR V0203401N003110057019N0080461N1+99999+99999999999ADDGD12991+0039099GD23991+0057099GD34991+0150099GF108991999999999999999999MW1001MW2711REMMET022NEW SF1SC6SC1 /WHITE/;EQDQ01+000003PRSWM1
0047717780999991999040806004+48300-123530FM-12+0005CWQK V0202601N015919999999N9999999N1+99999+99999999999ADDAG12999OA132401751REMSYN017 555 32534 4006/;
0121589310999991999051306004+25720+118100FM-12+165199999V0202901N003012200019N0300001N1+01921+00901999999ADDAA199000091GF101991011011002501001021KA1999N+01061MA1999999083741MD1710061+9999REMSYN011 333 20106;EQDQ01  00002PRCP99
0160719240999991999021215004+74720-094980SY-MT+0067CYRB V0203501N002612200019N0160001N1-03401-03801101351ADDAA199000021AG11999GD12991+0450099GD22991+0750099GF102991999999999999999999MA1101221100411MW1761REMMET018NEW AC0CI0 SLP135;EQDQ01+000003PRSWM1Q02    003PRSWM1
0151999999999991999060606004+48800-159900FM-13+9999MWQF V0209999N999999999999N0001001N1+00801+00801101901ADDAG12999AY141061AY221061GF108991999999012501999999MD1710401+9999MW1471SA1+0609UA1M990209999UG1060201309REMSYN037 22223 00060 20604 313// 40604 80080;
026772425003860199905061351C+38383-082550FM-15+0253HTS  V0201805N00365220005MN0160005N1+02005+01445100475ADDAA101000095GF100991999999999999999999MA1100545999999MW1001REMMET027NEW AO2 SLP047 T02000144 $;EQDQ01+000000PRSWM2N01 00000JPWTH 0QNNAA1D0 00000BA1 0 00000GA1U0 99999KA1D0 00058JA1 0 00144LA1 0 01000CA1 0 02969NA1 0 00000QA1 0 10047SA1D0 00068RA1 0 00200YA1 0 18007
0017994040999991999050123004+33480-077580FM-12+0000FPSN V0200101N026719999999N9999999N1+01551+99999100481ADDMD1710081+9999
0104838830999991999061118004-27120-052620FM-12+067999999V0200501N001012200019N0100001N1+01651+00481101631ADDAA199000091GA1001+999999999GF100991001001999999001001MA1999999093941MD1710201+9999EQDQ01  00002PRCP99
0233789050999991999101412004+15530-061300FM-12+0014TDPD V0209999C00001045001CN0300001N1+02761+02451101431ADDAA106000091GA1041+006609089GF106991041021008001061021KA1999M+03121KA2120N+02351MA1999999101271MD1999999+0011REMSYN094AAXX  14124 78905 32580 60000 10276 20245 30127 40143 84262 333 10312 20235 58001 84822 85362;EQDQ01  00002PRCP06
029691165022536199901120353C+21983-159333FM-15+0031LIH  V0200405N00365220005MN0160005N1+02225+01725101935ADDAA101000095GD11995+0085359GF102991999999999999999999MA1101965101421MW1001REMMET025NEW AO2 SLP193 T02220172;EQDQ01+999990APOSP Q02+000000PRSWM2N01 00000JPWTH 0QNNAA1D0 02028BA1 0 01028GA1U0 99999KA1D0 00063JA1 0 00172LA1 0 01000CA1 0 03011NA1 0 00000QA1 0 10193SA1D0 00072RA1 0 00222YA1 0 04007
0095282250999991999021016004+57950+056200FM-15+0170USPP V0201101N007019999999Y0099001N1-01001-01101999999ADDAG11999MA1101801999999MW1001REMMET036NEW CAVOK NOSIG RMK QFE753 03920337;EQDQ01+000000PRSWM2
0170967490999991999012522004-06120+106650FM-15+0008WIII V0202001N002110300019N0040001N1+02401+02401100651ADDGA1021+006909999GA2071+030009999GF107991999999999999999999MA1100611100501MW1631REMMET012NEW NIL NSG;EQDQ01+999990APOSP Q02+999990APOSLPQ03+000003PRSWM1Q04    003PRSWM1
0024992210999991999041719004+46100-131000FM-18+0003DB22 V02099999999999999999N9999999N1+00791+99999101951ADDAG12999MD1210111+9999
027772548094910199908310354C+42550-092400FM-15+0264ALO  V0201205N00415220005MN0160005N1+01675+01175102045ADDAA101000095AG11999GF100991999999999999999999MA1102075999999MW1001REMMET030NEW AO2 SLP204 T01670117 TSNO;EQDQ01+000000PRSWM2N01 00000JPWTH 0QNNAA1D0 00000BA1 0 00000GA1U0 99999KA1D0 00053JA1 0 00117LA1 0 01000CA1 0 03014NA1 0 00000QA1 0 10204SA1D0 00062RA1 0 00167YA1 0 12008
0081946470999991999122915004-31680+128880FM-12+010299999V0201201N006719999999N9999999N1+01691+00991101591ADDMA1999999100401REMSYN054AAXX  29154 94647 46/// /1213 10169 20099 30040 40159;
0054725750241261999073009009+41200-112017NSRDB+136299999V020999999999999999999999999999+99999+99999999999ADDGP10060000002000000002000000002000GR100600000900009
0054722786231041999111002009+33300-111667NSRDB+041299999V020999999999999999999999999999+99999+99999999999ADDGP10060000002000000002000000002000GR100600000900009
0104471310999991999033018004+36630+127430FM-12+006099999V0202901N001512200019N0150001N1+00401-00171102311ADDAA199000091GA1001+999999999GF100991001001999999001001MA1999999101571MD1210101+9999EQDQ01  00002PRCP99
0175128050999991999102220004+47680+016600FM-12+023999999V0201701N008010060019N0060001N1+00731+00631101531ADDGA1071+006009069GF107991071051008001999999MA1999999098621MD1210011+9999REMSYN092AAXX  22201 12805 42556 71708 10073 20063 39862 40153 52001 875// 333 87620 555 10093 55121;
0141129700999991999101711454+46920+019750FM-15+0123LHKE V0200701N004010099019N0112651N1+01101-00101999999ADDGA1071+009909999GF107991999999999999999999MA1102301999999MW1001REMMET047LHKE 171145Z 07004MPS 9999 BKN033 11/M01 Q1023;EQDQ01+000000PRSWM2
0245711450999991999112121004+53850-094650SY-MT+0237CYIV V0201001N003110021019N0190001N1-00171-00191100711ADDGD14991+0021099GF108991999999002501999999MA1100541097751MD1610121+9999MW1711REMSYN066AAXX  21214 71145 41369 81006 11017 21019 39775 40071 56012 771//;MET066CYIV 212100Z 10006KT 12SM -SN OVC007 M02/M02 A2969 RMK SC8 SLP071;EQDQ01    003PRSWM1
0186786660999991999101423484+13430-089050FM-15+0025MSLP V0202401N002110900019N0112651N1+02601+02401999999ADDAJ100019199999999GA1021+006009999GA2071+090009999GF107991999999999999999999MA1100911999999MW1001REMMET059MSLP 142348Z 24004KT 9999 SCT020 BKN300 26/24 Q1009 A2981 ;EQDQ01+000000PRSWM2
0184717250999991999092901004+48070-077780FM-15+0337CYVO V0200101N003610006019N0048281N1+01301+01301101771ADDGD14991+0006099GF108991999999999999999999MA1101691999999MW1101MW2511REMMET069CYVO 290100Z 01007KT 3SM -DZ BR OVC002 13/13 A3003 RMK FG1SF7 SLP177;EQDQ01+000003PRSWM1Q02    003PRSWM1
0171726380948141999012820064+44350-084670FM-16+0352KHTL V0203001N003610045019N0080461N1-00301-00401101921ADDGD14991+0045019GF108991999999999999999999MA1101691097501MW1711REMMET014NEW AO2 P0000;EQDQ01+999990APOSP Q02+999990APOSLPQ03+000100PRSWM3Q04+000003PRSWM1Q05    003PRSWM1
0139839710999991999121117004-30000-051180FM-15+0003SBPA V0201401N005712200019N0112651N1+02801+99999999999ADDGA1021+009009999GF104991999999999999999999MA1101491999999MW1001REMMET045SBPA 111700Z 14011KT 9999 SCT030 28/XX Q1015;EQDQ01+000000PRSWM2
0121467450999991999020115414+22780+120270FM-16+0010RCAY V0203501N003112200019N0012001N1+02301+02001999999ADDGA1021+001809999GF104991999999999999999999MA1101291999999MW1101REMMET011NEW A2992 ;EQDQ01+000003PRSWM1Q02    003PRSWM1
0108725628999991999021908304+40450-099330FM-15+0704KHDE V0201401N003110003019N0048281N1-00301-00401999999ADDAG11999GD14991+0003019GF108991999999999999999999MA1101521999999MW1001REMMET008NEW AO1;EQDQ01+000000PRSWM2
0115725349999991999091400544+41620-090580FM-15+0259KDVN V0202501N003112200019N0160931N1+01201+00801101931ADDAG11999GF100991999999999999999999MA1101901999999MW1001REMMET030NEW AO2 SLP193 T01170078 TSNO;EQDQ01+000000PRSWM2
0115718310999991999041822004+49420-082470FM-15+0227CYYU V0203101N002610111019N0241401N1+00301-00501101461ADDAG11999GD14991+0111099GF108991999999999999999999MA1101351999999MW1001REMMET015NEW SC8 SLP146;EQDQ01+000000PRSWM2
0054725144999991999010509009+40433-076567NSRDB+015399999V020999999999999999999999999999+99999+99999999999ADDGP10060000002000000002000000002000GR100600000900009
0084144440999991999072405304+43530+016300FM-15+0019LDSP V0200301N011319999999Y0099001N1+02101+00901999999ADDAG11999MA1101021999999MW1001OC101701REMMET017NEW CAVOK NOSIG ;EQDQ01+000000PRSWM2
0054724460039471999020503009+39300-094717NSRDB+029899999V020999999999999999999999999999+99999+99999999999ADDGP10060000002000000002000000002000GR100600000900009
0071745966999991999012714009+39000-074917NSRDB+000799999V020999999999999999999999999999+99999+99999999999ADDGP10060018902009064302021004902009GQ100600775912689GR100600306914119
0142718010999991999062923004+47620-052730FM-15+0140CYYT V0203601N00311000151CN0008051N1+01001+01001100761ADDAG11999ED199U18299GD15991+0001599GF109991999999999999999999MA1100751999999MW1451REMMET015NEW FG8 SLP076;EQDQ01+000003PRSWM1Q02    003PRSWM1
0141718755999991999080517004+49520-113980FM-15+1190CZPC V0209999C000010240019N0144841N1+01901+01301101741ADDAG11999GD12991+0123099GD22991+0180099GD34991+0240099GF108991999999999999999999MA1101861999999MW1001REMMET011NEW SLP174;EQDQ01+000000PRSWM2
0270712600999991999110912004+46480-084520SY-MT+0192CYAM V0202401N002612200019N0160931N1+01201+00901100451ADDAA106000091GD12991+0720099GF104991999999999999999999KA1999M+01491KA2120N+00341MA1100411999999MW1001REMSYN058AAXX  09124 71260 33/// ///// 10117 333 10149 20034 70000;MET060CYAM 091200Z 24005KT 10SM SCT240 12/09 A2965 RMK CI2 SLP045;EQDQ01+000000PRSWM2Q02  00002PRCP06
0130722542999991999061421534+30730-098230FM-15+0391KBMQ V0203601N004112200019N0160931N1+02901+01801101611ADDAG11999GD12991+0147099GF102991999999999999999999MA1101801999999MW1001REMMET030NEW AO2 SLP161 T02890178 TSNO;EQDQ01+000000PRSWM2
0143872440999991999111209004-29900-063680FM-12+0341SACV V0209999C000012200019N0180001N1+00951+00891101201ADDGA1001+999999999GF100991001001999999001001MA1999999097301MD1310041+9999REMSYN060AAXX  12094 87244 42968 00000 10095 20089 39730 40120 53004;
0082702220999991999110509004+64730-156930SAO  +0046PAGA V0209999C000019999999N0160931N1-02171-02501999999ADDMA1099971999999MW1001REMAWY049PAGA SA 0855 AWOS CLR BLO 120 10 -7/-13/0000/952;
0000956170999991999060322004-34580+116350FM-12+019199999V0209999C000019999999N9999999N1+00761+00701999999
0090714320999991999102020004+43250-079220SAO  +0079CWWZ V0202901N007219999999N0000001N1+01101+00701999999ADDMW1001REMAWY072WWZ SA 2000 AUTO8 M 0.0 M 195/11/07/2914/M/ PK WND 2923 1908Z 5005 43MM;
0209724233999991999110704534+38180-084900FM-15+0245KFFT V0209999C000010210019N0160931N1+01601+00701102841ADDGD14991+0210099GF108991999999999999999999KA1999M+02281KA2999N+01171MA1102881999999MW1001REMMET090KFFT 070453Z AUTO 00000KT 10SM OVC075 16/07 A3038 RMK AO2 SLP284 T01560067 402280117 TSNO;EQDQ01+000000PRSWM2
0183479310422041999120803554+26350+127770FM-15+0045RODN V0200301N005710150019N0112651N1+02201+01001102261ADDGD12991+0090099GD23991+0150099GF107991999999999999999999MA1102271999999MW1001REMMET075RODN 080355Z 03011KT 9999 FEW030 BKN050 22/10 A3020 RMK SLP226 8/800 9/700;EQDQ01+000000PRSWM2
0032943160999991999080122004-21920+120200FM-12+037699999V0200401N003619999999N9999999N1+01301+01161101711ADDMA1999999096831MD1210021+9999
0069343570999991999030303004+49570+042750FM-12+020099999V0202301N010019999999N0100001N1+00271+00141100311ADDAG12999GF106991999001999999031001MD1710171+9999EQDQ01+000082SCOTLC
0144542920999991999060218004+42880+129470FM-12+017899999V0209999C000012200019N0290001N1+01341+01211100721ADDAA199000091AG14999GA1001+999999999GF100991001001999999001001KA1999M+02741MA1999999098651MD1210081+9999REMSYN011 333 10274;EQDQ01  00002PRCP99
0071113080999991999070718004+47250+010180FM-12+147599999V0209999C000019999999N9999999N1+00831+00731999999ADDAA199009991KA1999M+00981MA1999999085991ME1315669REMSYN011 333 10098;
0071725955242591999090419009+41783-122467NSRDB+080399999V020999999999999999999999999999+99999+99999999999ADDGP10060077302008083802015014002008GQ100600411914109GR100601012913449
0136718700999991999070421394+50280-107680FM-15+0818CYYN V0202401N006212200019N0144841N1+01501+00701999999ADDAG11999GD12991+0141099GD22991+0210099GF102991999999999999999999MA1101081999999MW1611REMMET005NEW ;EQDQ01+000003PRSWM1Q02    003PRSWM1
0152691464999991999110212004+37000+035430FM-15+0073KQDG V0202401N001512200019N0112651N1+02501-00801101981ADDGF100991999999999999999999MA1102001999999MW1001REMMET074KQDG 021155Z 24003KT 9999 SKC 25/M08 A3012 RMK PK WND 17012/58 SLP198 BLU;EQDQ01+000000PRSWM2
0154745985999991999020916003+36630-080020FM-15+0287KMTV V0202301N003612200019N0160931N1+01201+00101999999ADDGF100991999999999999999999GP10060027102008006702015023602008GQ100600592914459GR100600720914059MA1102201999999MW1001REMMET008NEW AO1;EQDQ01+000000PRSWM2
0054725346948661999091801009+41867-087617NSRDB+018099999V020999999999999999999999999999+99999+99999999999ADDGP10060000002000000002000000002000GR100600000900009
0138161700999991999090418504+43800+011200FM-15+0038LIRQ V0209999V001510090019N0040001N1+01901+01801999999ADDAG11999GA1071+009009999GA2071+024009999GF107991999999999999999999MA1101591999999MW1101REMMET005NEW ;EQDQ01+000003PRSWM1Q02    003PRSWM1
0127719490999991999060818004+62230-133350FM-12+0717CWUM V0203001N005119999999N0140001N1+01971-00071101161ADDAA199000091AG14999KA1120M+01971KA2240N+00891MA1999999092791MD1610061+9999REMSYN023 333 10197 20089 70000;EQDQ01  00002PRCP99
0163837160999991999121509004-22120-051380FM-15+0435SBDN V0209999C000012200019N0112651N1+02201+02001999999ADDGA1021+010509999GA2021+090009999GF104991999999999999999999MA1100811999999MW1001REMMET053SBDN 150900Z 00000KT 9999 SCT035 SCT300 22/20 Q1008 ;EQDQ01+000000PRSWM2
0144725628999991999092508103+40450-099330FM-15+0704KHDE V0202001N004112200019N0160931N1+01601+00901999999ADDAG11999GF100991999999999999999999GP10060000002000000002000000002000GR100600000900009MA1100751999999MW1001REMMET008NEW AO1;EQDQ01+000000PRSWM2
0132726508999991999070407534+46030-091450FM-15+0370KHYR V0202101N003612200019N0160931N1+02701+02401100841ADDAG11999GD12991+0135099GF104991999999999999999999MA1100911999999MW1001REMMET032NEW AO2 SLP084 T02670244 TSNO $;EQDQ01+000000PRSWM2
0156033910999991999033103004+53080-000170SY-MT+0007EGXC V0201501N004610069019N0050001N1+01021+00881101461ADDAG12999AY121031AY221031GA1081+006909999GF108991081051008001999999MA1101391999999MD1710051+9999MW1051REMSYN011 333 88623;MET008NEW WHT;EQDQ01    003PRSWM1
0126726562999991999102717004+99999+999999FM-15+9999KLVN V0201701N007212200019N0160931N1+01801-00301999999ADDGF100991999999999999999999MA1101491999999MW1001OC101131REMMET059KLVN 271655Z AUTO 17014G22KT 10SM CLR 18/M03 A2997 RMK AO2;
0143723900932261999073012004+35670-121280FM-15+0021K87Q V0203601N005119999999N9999999N1+99999+99999101701ADDKA1999M+01281KA2999N+01221MD1810061+9999MW1001REMMET066NEW 1 A3004 RMK AO2 SLP170 T01220111 10128 20122 58006 PWINO TSNO;EQDQ01+000000PRSWM2
0212725526999991999092818003+40730-099000FM-15+0649KEAR V02099999999999999999N9999999N1+99999+99999999999ADDAJ100019199999999GP10060053502008030702015031602008GQ100600448915989GR100600965913619MW1001REMMET090KEAR 281755Z AUTO 05015KT 10SM FEW050 SCT060 BKN070 14/01 A3034 RMK AO1 10160 20070 52020;EQDQ01+000000PRSWM2
0392725300948461999060902003+41983-087917FM-15+0201ORD  V0201505N00155060965MN0160005N1+02675+01675101455ADDAA101000095AG11999GD12995+0548659GD23995+0609659GF107991999999999999999999GP10060000002008000002015000002008GQ100600883930029GR100600015905199MA1101525999999MW1001REMMET025NEW AO2 SLP145 T02670167;EQDQ01+000000PRSWM2N01 00000JPWTH 0QNNAA1D0 02180BA1 0 02180AA1D0 04200BA1 0 04200GA1 0 00200KA1D0 00062JA1 0 00167LA1 0 01000CA1 0 02998NA1 0 00000QA1 0 10145SA1D0 00080RA1 0 00267YA1 0 15003
0078032410999991999080309004+55300-001800FM-12+015899999V0200501N002612200019N0020001N1+02091+01571999999ADDAG12999GA1031+002509069GF104991999999002501999999MW1101REMSYN011 333 83793;
0063022670999991999061711504+63400+018970FM-15+0103ESNO V0201701N00621220001CN0099001N1+01801+00701999999ADDMA1100911999999MW1001REMMET011NEW CAVOK ;EQDQ01+000000PRSWM2
0115722618999991999042813534+30900-102900FM-15+0917KFST V0201401N005712200019N0160931N1+02101+01401100691ADDAG11999GF100991999999999999999999MA1101151999999MW1001REMMET030NEW AO2 SLP069 T02110139 TSNO;EQDQ01+000000PRSWM2
0182161400999991999122604504+44530+011300FM-15+0042LIPE V0201001N002112200019N0025001N1+00001-00201999999ADDGA1021+003009999GA2021+015009999GF104991999999999999999999MA1100811999999MW1101REMMET056LIPE 260450Z 10004KT 2500 BR SCT010 SCT050 00/M02 Q1008;EQDQ01+000003PRSWM1Q02    003PRSWM1
0209969870999991999012212004-08220+114380FM-12+000599999V0209999C00001005101CN0020001N1+02581+02431100641ADDAA103000891AA299005191AY191061AY261061GA1021+005109099GA2051+005109069GF108991071091004501021999KA1240M+03001MA1999999100431MD1210151+0061MW1911REMSYN053 333 10300 56409 57942 58006 69987 82917 85617 80981;
0138037760999991999080303504+51150-000180FM-15+0062EGKK V0209999C000012200019N0050001N1+01801+01701999999ADDAG11999GA1021+013509999GA2021+021009999GF104991999999999999999999MA1101021999999MW1611REMMET005NEW ;EQDQ01+000003PRSWM1Q02    003PRSWM1
0106727535149191999051804474+46930-098680FM-15+0457KJMS V0202801N002112200019N0241401N1+00901+00501101891ADDAG11999GF100991999999999999999999MA1101861999999MW1001REMMET021NEW SLP189 T00940050;EQDQ01+000000PRSWM2
0071724365999991999032212009+38250-086950NSRDB+016199999V020999999999999999999999999999+99999+99999999999ADDGP10060000002008000002015000002008GQ100600891908969GR100600003902189
0175165640999991999120709004+39100+009520FM-12+0118LIEC V0209999C000012200019N0200001N1+01141+00271102561ADDGA1011+006609089GF102991011021008001081001MA1999999101131MD1310091+9999REMSYN092AAXX  07094 16564 42598 20000 10114 20027 30113 40256 53009 81280 90845 333 81822 555 0212/;
0119710334999991999041618004+57250-122720FM-15+0937CWKS V0202701N007710690019N0482801N1+01301-00201999999ADDAG11999GD12991+0450099GD23991+0690099GF107991999999999999999999MW1001OC101291REMMET011NEW AC2CI2;EQDQ01+000000PRSWM2
0112318010999991999123115004+47670+136180FM-12+018099999V0209999C000010360019N0200001N1-02051-02381103281ADDGF108991041051008001021999MD1710011+9999REMSYN060AAXX  31151 31801 42598 80000 11205 21238 40328 57001 8452/;
0112320530999991999103115004+51920+143130FM-12+003499999V0202901N002012200019N0100001N1-00301-00471101331ADDGF103991021051008001001011MD1810061+9999REMSYN060AAXX  31151 32053 42597 32902 11030 21047 40133 58006 82501;
0068410360999991999061222004+21480+040550FM-15+1449OETF V0202801N00721220001CN0099001N1+02701-00501999999ADDMA1101591999999MW1001REMMET016NEW CAVOK NOSIG;EQDQ01+000000PRSWM2
0111476810999991999013014004+34750+137700FM-15+0048RJNH V0203301N001512200019N0112651N1+00201-00601999999ADDGA1021+009009999GF102991999999999999999999MA1101691999999MW1001REMMET017NEW 1CU030 A3006;EQDQ01+000000PRSWM2
0029999999999991999080103594+26520-046260FM-18+9999DRIB V02099999999999999999N9999999N1+99999+99999999999ADDMW1001REMSYN01141637     ]
0086717110999991999032020424+47980-066330FM-16+0038CYCL V0203001N004610117019N0241401N1+99999+99999999999ADDGD13991+0117099GF107991999999999999999999MW1001REMMET008NEW SC7;EQDQ01+000000PRSWM2
0276702590265231999080710533+60583-151233FM-15+0026ENA  V0202205N00265000305MN0160005N1+01285+01285100805ADDAG11999GD14995+0003059GF108991999999999999999999MA1100785999999MW1001REMMET025NEW AO2 SLP080 T01280128;EQDQ01+000000PRSWM2N01 00000JPWTH 0QNNAA1D0 06001BA1 0 06001GA1 0 00001KA1D0 00055JA1 0 00128LA1 0 01000CA1 0 02976NA1 0 00000QA1 0 10080SA1D0 00055RA1 0 00128YA1 0 22005
0089600960999991999082115004+23700-015870FM-12+0010GSVO V0200401N007212200019N0100001N1+02481+01891101201ADDAA199000091GA1001+999999999GF100991001001999999001001MD1710211+9999EQDQ01  00002PRCP99
0131943810999991999110905004-23870+151220FM-12+001799999V0202501N005719999999N9999999N1+02891+01391100641ADDAA106000091MA1999999100451MD1710051+9999REMSYN060AAXX  09054 94381 35/// /2511 10289 20139 30045 40064 57005;EQDQ01  00002PRCP06
0191723654999991999120313003+35880-106280FM-15+2179KLAM V0209999C000012200019N0563271N1-00101-01101999999ADDGD12991+0210019GF104991999999999999999999GP10060000002000000002000000002000GR100600000900009MA1100511999999MW1001REMMET047KLAM 031300Z 00000KT 35SM SCT070 M01/M11 A2968;EQDQ01+000000PRSWM2
0139783970999991999120813004+17930-076780FM-15+0009MKJP V0203601N001512200019N0112651N1+02701+02501999999ADDGA1021+006009999GF102991999999999999999999MA1101591999999MW1001REMMET045MKJP 081300Z 36003KT 9999 FEW020 27/25 Q1016;EQDQ01+000000PRSWM2
0054703400255061999120413009+59750-154917NSRDB+005799999V020999999999999999999999999999+99999+99999999999ADDGP10060000002000000002000000002000GR100600000900009
0147688160999991999010602004-33980+018600FM-15+0042FACT V0201901N009310075019N0112651N1+01901+01601100951ADDGA1021+001809999GA2071+007509999GF107991999999999999999999MA1100911100461MW1001REMMET005NEW ;EQDQ01+999990APOSP Q02+999990APOSLPQ03+000000PRSWM2
0080943060999991999061910004-21180+115970FM-12+001299999V0202901N002119999999N0500001N1+02351+01321101481ADDAY111999AY211999GF105991051001999999081001MA1999999101341MD1210081+9999MW1031
0173478550999991999020100004+32920+129920FM-15+0005RJFU V0200601N002110360019N0112651N1+00701+00701999999ADDGA1021+002109999GA2021+024009999GA3081+036009999GF108991999999999999999999MA1101081999999MW1611REMMET031NEW 1ST007 4AC080 8AS120 A2987;EQDQ01+000003PRSWM1Q02    003PRSWM1
0140029050999991999102021004+63920+024970FM-12+008199999V0202001N001012200019N0300001N1-00091-00201102531ADDAY111031AY211031GF102991021051004501001001MD1810061+9999MW1021REMSYN066AAXX  20214 02905 42480 22002 11009 21020 40253 58006 70211 82500;
0213702610264111999100622404+64820-147870FM-16+0132PAFA V0203501N003610078019N0064371N1+00101-00101999999ADDGD12991+0066019GD24991+0078019GF108991999999999999999999MA1098881999999MW1711REMMET073PAFA 062240Z 35007KT 4SM -SN BR SCT022 OVC026 01/M01 A2920 RMK AO2 P0001;EQDQ01+000100PRSWM3Q02+000003PRSWM1Q03    003PRSWM1
0211067700999991999100305504+46000+008970FM-15+0276LSZA V0209999C000010120019N0050001N1+01501+01401999999ADDGA1021+004509999GA2021+007509999GA3071+012009999GF107991999999999999999999MA1100911999999MW1611REMMET069LSZA 030550Z 00000KT 5000 -RA FEW015 SCT025 BKN040 15/14 Q1009 NOSIG;EQDQ01+000003PRSWM1Q02    003PRSWM1
0054726498999991999122007009+41050-091983NSRDB+024499999V020999999999999999999999999999+99999+99999999999ADDGP10060000002000000002000000002000GR100600000900009
0113125400999991999062215004+50050+018200FM-12+020699999V0203501N009010300019N0040001N1+00951+00841101291ADDAG12999AY161031AY261031GF108991041071002501021999MA1999999098801MD1310091+9999MW1611REMSYN017 333 91016 91119;
0131070030999991999100316004+50520+001620FM-12+0014LFAT V0202401N003119999999N9999999N1+01391+00891100541ADDAA106000091MA1999999100391MD1110081+9999REMSYN060AAXX  03164 07003 36/// /2406 10139 20089 30039 40054 51008;EQDQ01  00002PRCP06
0071726583999991999071721009+45100-094500NSRDB+034799999V020999999999999999999999999999+99999+99999999999ADDGP10060079102008078802015014702008GQ100600353923739GR100601079913229
0169727347148411999042323534+45570-084800FM-15+0219KPLN V0203401N005112200019N0321861N1+01001-00401102861ADDAG11999GD12991+0750019GF102991999999999999999999KA1999M+01131KA2999N+00831MA1102811999999MD1310151+9999MW1001REMMET029NEW SLP286 10113 20083 53015;EQDQ01+000000PRSWM2
0126999999999991999091406004+33400-121200FM-13+9999V7AU V0209999N999999999999N0200001N1+01601+01401101601ADDAY111061GF105991051999004501091091MD1610041+9999MW1031UA1M990059999UG1050103009REMSYN035 22233 20201 330// 40502 80150 ICE;
0161944030999991999112722004-28780+114700FM-12+0034YPGN V0201401N003612200019N0300001N1+01781+01611101401ADDAY101999AY201999GF102991021051004501001001MA1999999100991MD1210111+9999MW1031REMSYN072AAXX  27224 94403 41480 21407 10178 20161 30099 40140 52011 70300 82500;
0131122000999991999031520004+53920+014230FM-12+000599999V0200701N004010021019N0060001N1+00201+00031103171ADDAG11999AY121999AY221999GF107991071061002501999999MA1999999103101MD1210111+9999MW1101REMSYN035 555 00037 10042 20034 30004 70047;
0095702350999991999052719154+61100-155580SAOSP+0484PASV V0203101N002510072019N0160931N1+00111-00281999999ADDGD12991+0054099GD23991+0072099GD34991+0096099GF108991999999999999999999MA1100751999999MW1001
0116767433999991999011712004+18000-092820FM-15+0013MMVA V0200901N003112200019N0004021N1+01901+01901999999ADDGF100991999999999999999999MA1101351999999MW1441REMMET022NEW 130 980 CONDS VAR;EQDQ01+000003PRSWM1Q02    003PRSWM1
0071726873999991999122921009+45950-116133NSRDB+100999999V020999999999999999999999999999+99999+99999999999ADDGP10060015102009001802021014402009GQ100600699919069GR100600485914159
0068478520999991999051209004+33480+131730FM-15+0008RJFO V0200201N00311220001CN0099001N1+02101+01701999999ADDMA1101291999999MW1001REMMET016NEW CAVOK A2994;EQDQ01+000000PRSWM2
0345725975242351999042704003+42600-123367FM-15+1168SXT  V0202605N00415220005MN0160005N1+00065-00395101925ADDAA101000095AG11999GF100991999999999999999999GP10060000002008000002015000002008GQ100600896928889GR100600001901469MA1101735999999MW1001REMMET030NEW AO2 SLP192 T00061039 TSNO;EQDQ01+000000PRSWM2N01 00000JPWTH 0QNNAA1D0 00000BA1 0 00000GA1U0 99999KA1D0 00025JA1 0-00039LA1 0 01000CA1 0 03004NA1 0 00000QA1 0 10192SA1D0 00033RA1 0 00006YA1 0 26008
0071726945999991999082620009+44483-123283NSRDB+007799999V020999999999999999999999999999+99999+99999999999ADDGP10060080802008081402015014502008GQ100600356916099GR100601087913389
0076474050999991999011107004+44580+142970FM-12+001599999V0203401N003619999999N9999999N1-00101-00401100401ADDAG12999AJ100239199999999MA1999999100211MD1110261+9999REMSYN011 555 19023;
0081944750999991999041205004-26070+135250FM-12+015099999V0201101N004610120019N0400001N1+03081+00591999999ADDAA199000091AY121999AY221999GF107991071021012501001001MW1031EQDQ01  00002PRCP99
0040999999999991999052506004+41300+009600FM-13+9999FGTO V0209999N999999999999N9999999N1+01771+99999101881ADDAG12999MD1010111+9999REMSYN007 22262;
0169028690999991999110316504+65970+029180FM-15+0263EFKS V0200301N003610180019N0112651N1-00201-00501999999ADDGA1081+018009999GF108991999999999999999999MA1100201999999MW1851REMMET059EFKS 1650Z 03007KT 340V070 9999 -SHSN OVC060 M02/M05 Q1002;EQDQ01+000003PRSWM1Q02    003PRSWM1
0080475700999991999082903004+37480+139920FM-12+021399999V0202601N003619999999N0150001N1+02721+01961100911ADDAY181031AY221031GF107991071021999999071999MA1999999098531MD1710031+9999MW1251
0054724515230641999122103009+37933-100717NSRDB+087899999V020999999999999999999999999999+99999+99999999999ADDGP10060000002000000002000000002000GR100600000900009
0054727033999991999030706009+46117-067800NSRDB+015099999V020999999999999999999999999999+99999+99999999999ADDGP10060000002000000002000000002000GR100600000900009
0125999999999991999100518004+60870-053080FM-18+9999DRIB V0202901N009819999999N9999999N1+99999+99999100611ADDMD1710011+9999MW1001SA1+0509REMSYN085ZZYY 44777 05109 18004 760877 053084 6112/ 11119 02919 30061 40061 57001 22219 00050;
0116726553999991999041720364+44970-095720FM-15+0315KMVE V0203101N007210093019N0160931N1+00401-00101999999ADDAG11999GD14991+0093099GF108991999999999999999999MA1101831999999MW1001OC101081REMMET008NEW AO2;EQDQ01+000000PRSWM2
0071724303148131999081315009+41033-081467NSRDB+032699999V020999999999999999999999999999+99999+99999999999ADDGP10060034602008008502015028802008GQ100600471911069GR100600904913319
0239684610999991999111918004-28250+028330FM-12+1682FABM V0201101N003112200019N0300001N1+01421+01081999999ADDAA106000021AY161061AY221061GF104991021091008001071031KA1120M+02531KA2120N+01421MA1999999083261MD1210191+9999ME1315159MW1011REMSYN104AAXX  19184 68461 31580 41106 10142 20108 38326 48515 52019 70162 82973 333 10253 20142 91007 555 91020;
0029999999999991999052712004-31220+085400FM-18+9999DRIB V02099999999999999999N9999999N1+99999+99999999999ADDMW1001REMSYN01117655     ]
0054723965932091999083008009+35667-120633NSRDB+024499999V020999999999999999999999999999+99999+99999999999ADDGP10060000002000000002000000002000GR100600000900009
0117171400999991999043012004+39820+034800FM-12+129899999V0202201N003112200019N0150001N1+01681+00481999999ADDAA199000091GF103991031011012501001001MA1999999087301MD1710081+9999ME1315239REMSYN011 333 10168;EQDQ01  00002PRCP99
0017994230999991999032700004+32680-079880FM-12+0003FBIS V0200301N006219999999N9999999N1+00821+99999101781ADDMD1310141+9999
0029999999999991999071811074-17960+059910FM-18+9999DRIB V02099999999999999999N9999999N1+99999+99999999999ADDMW1001REMSYN01156537     ]
0117722589999991999041901534+33200-097180FM-15+0197KDTO V0201701N002612200019N0160931N1+01501+00801102031ADDAG11999GF100991999999999999999999MA1102071999999MW1001REMMET032NEW AO2 SLP203 T01500078 TSNO $;EQDQ01+000000PRSWM2
0138570460999991999010906004+34480+110080FM-12+206399999V0202701N001012200019N0210001N1-00691-02281999999ADDAA199000791AY171061GA1001+999999999GF100991001001999999001001KA1999N-01201MA1999999079591MD1710161+0301MW1001REMSYN017 333 00301 21120;
0254606110999991999091700004+28050+009630SY-MT+0562DAUZ V0200601N004112200019N0100001N1+02951+01321100911ADDAA106000091GA1021+012009999GF103991021021012501031001MA1101391999999MD1810051+9999MW1001REMSYN070AAXX  17004 60611 32660 30608 10295 20132 40091 58005 82230 333 82840;MET043DAUZ 0000Z 06008KT 9999 FEW040 30/13 Q1014;EQDQ01+000000PRSWM2Q02  00002PRCP06
0123726682999991999060207384+45550-093600FM-15+0298KPNM V0203501N002110024019N0160931N1+00501+00501999999ADDAG11999GD13991+0024019GD24991+0066019GF108991999999999999999999MA1101291999999MW1001REMMET008NEW AO2;EQDQ01+000000PRSWM2
0054999999999991999040905004+55400+004700FM-13+9999DBFO V02099999999999999999N9999999N1+00751+00731101941ADDAG12999MD1710061+9999SA1+0749REMSYN013 22221 04074;
0051719860999991999112000004+64750-124220FM-12+0341CWMV V0202301N003119999999N9999999N1-01941-02181999999REMSYN042AAXX  20004 71986 46/// /2306 11194 21218;
0136999999999991999082200004+34700+020800FM-13+9999GQEK V0209999N999992200019N0200001N1+02821+02651101051ADDAY101061AY201061GA1001+999999999GF100991001001999999001001MD1710151+9999MW1021SA1+2809UA1M990109999REMSYN025 22234 02280 20302 80270;
0158478530999991999110901004+33830+130950FM-15+0006RJFR V0203301N004112200019N0112651N1+01701+00801999999ADDGA1021+007509999GF102991999999999999999999MA1101801999999MW1001REMMET064RJFR 090100Z 33008KT 9999 FEW025CU 17/08 Q1018 RMK 2CU025 A3006;EQDQ01+000000PRSWM2
0095999999999991999091818004+73900-159000FM-13+9999JNSR V0209999N999999999999N0100001N1-00211-00321099921ADDAG12999AY111061AY211061MD1610021+9999MW1001SA1-0059UA1M990059999REMSYN019 22213 07005 10601;
0184062800999991999080407004+53130+006580SY-MT+0004EHGG V0209999V001012200019N0060001N1+02111+01731101291ADDAG11999AY111999AY211999GA1021+033009999GF103991021001999999031021MA1101291999999MD1110061+9999MW1101REMSYN021 333 82361 555 53087;MET010NEW NOSIG;EQDQ01+000000PRSWM2Q02    003PRSWM1
0091574610999991999041012004+30700+111300FM-12+013499999V0209999C000010150019N0140001N1+02051+01461101021ADDAA199000791AY191061AY281061GF108991081051017501999999MA1999999099451MD1210021+9999MW1211
0034111380999991999030721004+47130+012620FM-12+230999999V0200201N001519999999N9999999N1-01241-01311999999ADDAG12999MA1999999075501ME1428829
0101999999999991999052512004+23700+059400FM-13+99993FGR V0209999N999992200019N0100001N1+03151+02251100301ADDAY101061AY221061GF101991011011017501999999MD1710201+9999MW1021SA1+3209REMSYN019 22274 00320 80255;
0132725486999991999120404454+42050-093850FM-15+0354KBNW V0203301N002612200019N0064371N1+00701+00401999999ADDGF100991999999999999999999MA1101421999999MW1001REMMET054KBNW 040445Z AUTO 33005KT 4SM CLR 07/04 A2995 RMK AO1;EQDQ01+000000PRSWM2
0050315100999991999072421004+50250+127500FM-12+013799999V0209999C000019999999N9999999N1+01821+01751100341ADDAG12999GF108991081001999999051041MD1410001+9999
0140033020999991999083023004+53250-004530SY-MT+0011EGOV V0202301N003110099019N0150001N1+01551+01361101991ADDAG11999GA1081+009909999GF108991081051012501999999MA1101901999999MD1110011+9999MW1001REMSYN011 333 88633;MET008NEW BLU;EQDQ01+000000PRSWM2
0054725415999991999022710009+42250-084950NSRDB+028799999V020999999999999999999999999999+99999+99999999999ADDGP10060000002000000002000000002000GR100600000900009
0071726164999991999070514009+44367-071550NSRDB+032799999V020999999999999999999999999999+99999+99999999999ADDGP10060029402008001802015028102008GQ100600461910109GR100600914913219
0054727826241411999050808009+47300-119517NSRDB+038499999V020999999999999999999999999999+99999+99999999999ADDGP10060000002000000002000000002000GR100600000900009
0138028640999991999010508204+65780+024580FM-15+0015EFKE V0203601N001010096019N0070001N1-00501-00601999999ADDAG11999GA1071+009609999GA2071+014109999GF107991999999999999999999MA1099191999999MW1711REMMET005NEW ;EQDQ01+000003PRSWM1Q02    003PRSWM1
0084039160999991999021209004+55180-006170FM-12+015699999V0202101N004619999999N0170001N1+00491+00391102131ADDAG12999IA2999-00209MD1210251+9999REMSYN039 333 3/102 555 81/10 84/23 86/48 90854;
0054723060137221999011105009+35867-078783NSRDB+012799999V020999999999999999999999999999+99999+99999999999ADDGP10060000002000000002000000002000GR100600000900009
0032477460999991999042905004+35480+134230FM-12+001599999V0203401N005119999999N9999999N1+01421-00141102041ADDMA1999999101861MD1710011+9999
0098999999999991999092612004+35500+018400FM-13+9999PGCU V0209999N999992200019N0200001N1+02601+02001101601ADDGF102991021011008001001001MD1810141+9999SA1+2549UA1M990009999REMSYN025 22225 00254 20000 80218;
0250714820999991999111006004+52180-127470SY-SA+0032CWME V0200601N007219999999N9999999N1+00731+00531099631ADDAA106000091KA1240M+00861KA2240N+00701MA1999999099261MW1001OC101181REMSYN076AAXX  10064 71482 36/// /0614 10073 20053 39926 49963 333 10086 20070 70128;AWY055WME SA 0620 AUTO4 M M M 964/07/05/0616+23/M/ 5006 38MM;EQDQ01+000990PRSWM4Q02  00002PRCP06
0111477895999991999042900004+34370+132430FM-15+0005RJBH V0202101N003112200019N0112651N1+01401+00401999999ADDGA1021+010509999GF102991999999999999999999MA1101801999999MW1001REMMET017NEW 1CU035 A3009;EQDQ01+000000PRSWM2
0154724055999991999031621093+39080-077570FM-15+0119KJYO V0202401N003612200019N0160931N1+01301-00401999999ADDGF100991999999999999999999GP10060049302008081702015008202008GQ100600598923889GR100600694913829MA1101291999999MW1001REMMET008NEW AO1;EQDQ01+000000PRSWM2
0177637910999991999060312004-03420+037070FM-12+0896HTKJ V0200901N006710072019N0200001N1+02401+01781999999ADDAA199000791AC11I9AY151061AY221061GA1061+007209089GF107991071081008001051999MA1999999091571MD1999999-0201ME1315359MW1151OA150601541REMSYN035 333 0//15 55302 59020 86824 85359;
0183722175138601999061621384+32630-083600FM-16+0090KWRB V0202601N005710300019N0112651N1+02401+01901999999ADDGA1999+012001091GD12991+0120019GD23991+0300019GD33991+0750019GF107991999999999999999999MA1101221999999MW1801REMMET028NEW CB SW MOV NE TCU E WR//;EQDQ01+000003PRSWM1Q02    003PRSWM1
0136084820999991999012110504+36670-004480FM-15+0007LEMG V0201201N003610051019N0112651N1+01401+01101101951ADDGA1071+005109999GF107991999999999999999999MA1101901101851MW1001REMMET010NEW NOSIG;EQDQ01+999990APOSP Q02+999990APOSLPQ03+000000PRSWM2
0094561930999991999080500004+32420+104520FM-12+087799999V0209999C000010360019N0110001N1+02181+02091100241ADDAA199005191AY161061GF108991021041012501071999MD1210111+0001MW1001REMSYN017 333 00051 70056;
0065956640999991999040702004-33070+137520FM-12+001299999V0201101N002119999999N9999999N1+02011+00811102211ADDKA1999N+01121MA1999999102131MD1710131+9999REMSYN011 333 20112;
0104719680999991999110107004+68950-137220FM-15+0049CYUA V0203001N001512200019N9999999N1+99999+99999100881ADDMA1100811999999MW1001REMMET052CYUA 010700Z AUTO 30003KT CLR M19/ A2977 RMK SLP088;EQDQ01+000000PRSWM2
0071702757999991999111100009+60767-148683NSRDB+000999999V020999999999999999999999999999+99999+99999999999ADDGP10060012001025058301028003001025GQ100600811920689GR100600216913959
0131722215138841999031815404+30780-086520FM-16+0065KCEW V0202901N003110057019N0160931N1+01901+01301999999ADDGD12991+0039019GD23991+0057019GD33991+0078019GF107991999999999999999999MA1102371999999MW1001REMMET008NEW AO2;EQDQ01+000000PRSWM2
0099804130999991999080213004+10250-067650FM-15+0437SVBS V0202301N001510048019N0112651N1+02601+02301999999ADDGA1071+004809999GF107991999999999999999999MA1101491999999MW1001REMMET005NEW ;EQDQ01+000000PRSWM2
0029999999999991999082408094+41870-040720FM-18+9999DRIB V02099999999999999999N9999999N1+99999+99999999999ADDMW1001REMSYN01144938     ]
0193725059999991999060920003+42470-071280FM-15+0041KBED V0200601N005110045019N0160931N1+01501+01101102151ADDAG11999GD14991+0045019GF108991999999999999999999GP10060019502008000002015019502008GQ100600394925359GR100601022913259MA1102031999999MW1001REMMET025NEW AO2 SLP215 T01500111;EQDQ01+000000PRSWM2
0054724177137341999021103009+39400-077983NSRDB+016299999V020999999999999999999999999999+99999+99999999999ADDGP10060000002000000002000000002000GR100600000900009
0127718320999991999071700004+49750-084170FM-12+0256CWNZ V0203101N001519999999N0140001N1+02481+01771100901ADDAA199000091AG14999KA1120M+02791KA2180N+02161MA1999999097801MD1110071+9999REMSYN023 333 10279 20216 70000;EQDQ01  00002PRCP99
0145444770999991999092603004+26980+087350FM-12+144599999V0202101N000510060019N0020001N1+01821+01701999999ADDAA199023991AY161031AY261031GF108991081081000251999999KA1120N+01671MA1999999088031MD1999999+0071ME1315119MW1021REMSYN023 333 20167 58007 60244;
0204039730999991999012318004+53900-008820SY-MT+0064EIKN V0202701N008012200019N0300001N1+00421+00191100671ADDAA199006191AG12999AY181061AY211061GA1021+006009099GF104991041031004501031001KA1120M+00721MA1100511098111MD1210231+9999MW1251REMSYN017 333 10072 83918;MET010NEW NOSIG;EQDQ01+000000PRSWM2Q02    003PRSWM1
027272546014933199903181554C+41533-093667FM-15+0292DSM  V0203605N00725220005MN0160005N1+00395-00565103005ADDAA101000095AG11999GF100991999999999999999999MA1102955999999MW1001REMMET025NEW AO2 SLP300 T00391056;EQDQ01+000000PRSWM2N01 00000JPWTH 0QNNAA1D0 00000BA1 0 00000GA1U0 99999KA1D0 00022JA1 0-00056LA1 0 01000CA1 0 03040NA1 0 00000QA1 0 10300SA1D0 00039RA1 0 00039YA1 0 36014
0159702000266171999031609394+64520-165450FM-16+0011PAOM V0209999C000010084019N0080461N1-01901-02201999999ADDGD13991+0084019GD23991+0144019GD34991+0180019GF108991999999999999999999MA1099901999999MW1711REMMET020NEW AO2 SNB32 P0000;EQDQ01+000003PRSWM1Q02    003PRSWM1
0227727435999991999122018004+99999+999999FM-15+9999KMCD V0202501N008710051019N0028161N1-00301-00401999999ADDGD13991+0051099GD23991+0072099GD34991+0096099GF108991999999999999999999MA1100141999999MW1711OC101441REMMET096KMCD 201755Z AUTO 25017G28KT 1 3/4SM -SN BKN017 BKN024 OVC032 M03/M04 A2957 RMK AO2 VIS 1V2 1/2;EQDQ01    003PRSWM1
0188722479999991999070417534+32670-097100FM-15+0192KGKY V0201601N004610132019N0160931N1+03101+02201101881ADDAG11999GD13991+0132019GF107991999999999999999999KA1999M+03111KA2999N+02331MA1102001999999MD1810021+9999MW1001REMMET048NEW AO2 SLP188 T03110222 10311 20233 58002 TSNO;EQDQ01+000000PRSWM2
0047717780999991999042106004+48300-123530FM-12+0005CWQK V0202601N010319999999N9999999N1+99999+99999999999ADDAG12999OA132401961REMSYN017 555 32638 4013/;
0066343000999991999082821004+49870+036130FM-12+0152UKHH V0209999C000012200019N0100001N1+01491+00881101951ADDAG12999GA1001+999999999GF100991001001999999001001MD1810021+9999
0066216470999991999042015004+73180+143930FM-12+002299999V0200901N005012200019N0450001N1-02471-02651103131ADDAG12999GA1001+999999999GF100991001001999999001001MD1710071+9999
0115619800999991999011916004-20880+055520FM-15+0025FMEE V0201301N002610150019N0112651N1+02501+02001999999ADDGA1021+006009999GA2071+015009999GF107991999999999999999999MA1101491999999MW1001REMMET005NEW ;EQDQ01+000000PRSWM2
0120477270999991999060522224+35800+140020FM-16+0033RJTL V0209999V001012200019N0032001N1+02301+01901999999ADDGA1021+069009999GF102991999999999999999999MA1101591999999MW1101REMMET010NEW A3001;EQDQ01+000003PRSWM1Q02    003PRSWM1
0115726555999991999071916534+46400-094130FM-15+0374KBRD V0200901N003112200019N0160931N1+02401+01501102051ADDAG11999GF100991999999999999999999MA1102101999999MW1001REMMET030NEW AO2 SLP205 T02390150 TSNO;EQDQ01+000000PRSWM2
0119722406999991999110314504+29570-090670FM-15+0003KHUM V0200501N004112200019N0112651N1+01201+00401999999ADDGF100991999999999999999999MA1102981999999MW1001REMMET041KHUM 031450Z 05008KT 7SM SKC 12/04 A3041;EQDQ01+000000PRSWM2
0029999999999991999021123574-17650-138790FM-18+9999DRIB V02099999999999999999N9999999N1+99999+99999999999ADDMW1001REMSYN01132803     ]
0185789580999991999093004004+12000-061780FM-15+0007TGPY V0201001N006210180019N0112651N1+02701+02401999999ADDGA1021+005409999GA2021+011409999GA3071+018009999GF107991999999999999999999MA1101391999999MW1001REMMET059TGPY 300400Z 10012KT 9999 SCT018 SCT038 BKN065 27/24 Q1014;EQDQ01+000000PRSWM2
0100645700999991999052009004+99999+999999FM-12+999999999V02099999999990030019N0100001N1+02781+02211101301ADDGA1061+003009059GF106991061091002501001001MA1999999096321MD1999999-0191REMSYN017 333 59019 86610;
0105999999999991999021412004+46400-051400FM-13+9999XCKX V0209999N999990120019N0040001N1+00151+00101102351ADDAG12999GF108991999021012501011999MD1410001+9999SA1+0009UA1M990209999REMSYN025 22264 00000 20504 80010;
0162076670999991999122508004+43100+006150FM-15+0004LFTH V0201801N004110090019N0112651N1+01301+01101999999ADDGA1021+003909999GA2071+009009999GF107991999999999999999999MA1101691999999MW1001REMMET052LFTH 250800Z 18008KT 9999 SCT013 BKN030 13/11 Q1017;EQDQ01+000000PRSWM2
0117154900999991999040221004+43750+024880FM-12+003199999V0209999C000010042019N0040001N1+00801+00801101001ADDAA199001091AY181031AY221031GF108991061071004501021999MA1999999100621MD1210141+9999MW1611REMSYN017 333 55000 60017;
0114724067999991999080115504+39330-076420FM-15+0007KMTN V0203201N004110450019N0096561N1+03001+02401999999ADDGD13991+0450019GF107991999999999999999999MA1100881999999MW1051REMMET005NEW ;EQDQ01+000003PRSWM1Q02    003PRSWM1
0032476560999991999083101004+34970+138400FM-12+001599999V0201901N002619999999N9999999N1+03061+02571101341ADDMA1999999101171MD1010001+9999
0029999999999991999052917004-25600-000130FM-18+9999DRIB V02099999999999999999N9999999N1+99999+99999999999ADDMW1001REMSYN01115539     ]
0333135860999991999120706004+41970+021650SY-MT+0239LWSK V0202301N00101030001CN0200001N1+00111-00261103071ADDAA106000091GA1021+012009999GA2071+030009999GF199999021051012501031001IA1099KA1120N+00111MA1102911100041MD1210101+9999MW1001REMSYN082AAXX  07061 13586 32698 62301 10011 21026 30004 40307 52010 82530 333 20011 31///;MET059LWSK 070600Z 23001KT 9999 FEW040 BKN100 01/M02 Q1029 NOSIG;EQDQ01+000062SCOTCVQ02+000000PRSWM2Q03  00002PRCP06
0112105000999991999041316504+50970+006050FM-15+0098ETNG V0202601N007212200019N0112651N1+01001-00201999999ADDGA1021+012009999GF102991999999999999999999MA1099901999999MW1001OC101441REMMET010NEW NOSIG;EQDQ01+000000PRSWM2
0185914250999991999071512004+03850+155020FM-12+000499999V0200401N002610054019N0240001N1+02671+02521101031ADDAA124005191AA299004191AY181061AY221061GA1061+005409089GF106991061021004501001001KA1240M+03281MA1999999101021MD1110071-0051MW1021REMSYN045 333 10328 561// 59005 70051 86818 555 91512;
0101804420999991999091009004+08930-067420FM-12+0101SVCL V02099999999992200019N0100001N1+02441+02321100911ADDGF104991001001999999001081IA1019MA1999999099781MD1999999-0131REMSYN028 333 30/// 56009 59013 1008;
0205726563999991999051910003+44330-093320FM-15+0322KFBL V0200901N001510300019N0160931N1+01301+01001999999ADDAG11999GD12991+0210019GD23991+0300019GD34991+0360019GF108991999999999999999999GP10060000002000000002000000002000GR100600000900009MA1102001999999MW1611REMMET008NEW AO2;EQDQ01+000003PRSWM1Q02    003PRSWM1
0170298070999991999011603004+53350+075450FM-12+009499999V0202801N001010075019N0100001N1-01861-02271103801ADDAA199000091AG14999AJ100109199999999GF108991081051008001999999IA1239MA1999999102511MD1310041+9999REMSYN027 333 47010 555 21244 7000/;EQDQ01+999990APOSP Q02  00002PRCP99
0080947680999991999042920004-33870+151200FM-12+006699999V02099999999992200019N0200001N1+01281+01091101841ADDAY181999AY211999GF104991021081008001031011MA1999999101361MD1310091+9999MW1011
0203724675230631999101707003+39650-106920FM-15+1993KEGE V0209999C000012200019N0160931N1-00601-01101999999ADDAJ100009199999999GF100991999999999999999999GP10060000002000000002000000002000GR100600000900009MA1103321999999MW1001REMMET057KEGE 170655Z AUTO 00000KT 10SM CLR M06/M11 A3051 RMK AO1;EQDQ01+000000PRSWM2
0071726073999991999010521009+44533-069683NSRDB+010199999V020999999999999999999999999999+99999+99999999999ADDGP10060005802009024102021003502009GQ100600845923069GR100600136914159
0065129100999991999060615004+46920+016320FM-12+031399999V0201901N006012200019N0750001N1+02621+01531100991ADDAG12999GF102991001001999999001021MA1999999097451MD1710061+9999
0109343000999991999072118004+49870+036130FM-12+0152UKHH V0203001N003012200019N0100001N1+01881+01521100461ADDAA199002091AY181061AY211061GF102991021051008001001001KA1999M+02241MD1210201+9999MW1021REMSYN011 333 10224;
0173725407999991999071311534+45020-084680FM-15+0404KGLR V0202101N002112200019N0160931N1+01601+01301102001ADDAG11999GF100991999999999999999999KA1999M+01561KA2999N+01061MA1102031999999MD1310061+9999MW1001REMMET048NEW AO2 SLP200 T01560133 10156 20106 53006 TSNO;EQDQ01+000000PRSWM2
0071727926999991999042822009+46483-122800NSRDB+011399999V020999999999999999999999999999+99999+99999999999ADDGP10060070302008046602015032802008GQ100600366921439GR100601082913489
0071725126147361999042015009+40300-078317NSRDB+045199999V020999999999999999999999999999+99999+99999999999ADDGP10060019802008000002015019802008GQ100600459911759GR100600941913549
0154727436999991999011111364+44980-085200FM-15+0190KACB V0202001N002110069019N0064371N1-01801-02101999999ADDAG11999GD12991+0036099GD23991+0069099GD34991+0087099GF108991999999999999999999MA1101661999999MW1711REMMET008NEW AO2;EQDQ01+000003PRSWM1Q02    003PRSWM1
0422724760230661999121823003+39133-108533FM-15+1475GJT  V0203305N00675019815MN0160005N1+00615-00335101345ADDAA101000095GD13995+0198159GD23995+0259159GF107991999999999999999999GP10060019102009063202021005802009GQ100600779922579GR100600295914139MA1101325999999MW1001REMMET078KGJT 182256Z 33013KT 10SM BKN065 BKN085 06/M03 A2992 RMK AO2 SLP134 T00611033;EQDN01 00000JPWTH 0QNNAA1D0 04065BA1 0 04065AA1D0 04085BA1 0 04085GA1 0 00065KA1D0 00026JA1 0-00033LA1 0 01000CA1 0 02992NA1 0 00000QA1 0 10134SA1D0 00043RA1 0 00061YA1 0 33013
0127563740999991999070406004+30050+101970FM-12+261799999V0201601N009010075019N0300001N1+02121+01371999999ADDAA199000091GF106991061041008001001021KA1999N+01371MA1999999073691MD1710191-0201REMSYN017 333 05202 20137;EQDQ01  00002PRCP99
0120719530999991999061809004+60120-128820SY-MT+0690CYQH V0209999C000012200019N0000001N1+00801+00401101101ADDAA199000091AG11999GD12991+0360099GF102991999999999999999999MA1101021093011REMMET015NEW AC1 SLP110;EQDQ01  00002PRCP99
0088407620999991999062612004+35270+059220FM-12+1333OIMH V0202401N008012200019N0150001N1+03621+00821099341ADDAA199000091GF101991011051008001001001MA1999999084571MD1410001+9999EQDQ01  00002PRCP99
0017994110999991999091113004+27830-097050FM-12+0005PTAT V0201401N006219999999N9999999N1+02841+02271101151ADDMD1310101+9999
0419725520149351999031818003+40967-098317SY-MT+0561GRI  V0200405N00415220005MN0160005N1+00835-00895103195ADDAA101000095AG11999GD10995+9999999GF100991001001999999001001GP10060075402008091702015010402008GQ100600451915449GR100600975913809MA1103055096341MD1010011+9999MW1001REMMET043NEW AO2 SLP319 T00831089 10089 21072 50001;EQDQ01+000000PRSWM2Q02  00002PRCP99Q03  00003PRCP99N01 00000JPWTH 0QNNAA1D0 00000BA1 0 00000GA1U0 99999KA1D0 00016JA1 0-00089LA1 0 01000CA1 0 03043NA1 0 00000QA1 0 10319SA1D0 00047RA1 0 00083YA1 0 04008
0062076000999991999062620004+43400+001680FM-12+004799999V0203601N002119999999N9999999N1+01991+01451101331ADDAA199000091MA1999999100831MD1110101+9999EQDQ01  00002PRCP99
0054722725999991999011003009+32250-107717NSRDB+134899999V020999999999999999999999999999+99999+99999999999ADDGP10060000002000000002000000002000GR100600000900009
0228220040999991999101306004+69400+030200FM-12+012699999V0203301N003019999999N9999999N1+00421+00351099071ADDAA112006191AJ199992999999999GF108991999071999999021999IA1259KA1120N+00021MD1710021+9999REMSYN094AAXX  13061 22004 1/95/ 83303 10042 20035 49907 57002 60062 76186 8872/ 333 20002 41998 91005;EQDQ01+000082SCOTLCQ02  09972SNDP  
0065999999999991999040900004+26200+131700FM-13+99993FJM V0209999N999990075019N0100001N1+02101+01641102201ADDAY111061AY211061GF105991051031008001031011MD1210101+9999MW1161
0174628400999991999051406004+09550+031650FM-12+0388HSSM V0203601N004610450019N0200001N1+02451+02351101221ADDAA199000091GA1071+045009079GF107991071001999999071001KA1120M+03101KA2120N+02101MA1999999096811MD1999999+0041REMSYN035 333 10310 20210 56090 58004 87365;EQDQ01  00002PRCP99
0146417800999991999121312004+24900+067130FM-15+0022OPKC V02099999999992200019N9999999N1+03001+00401999999ADDGF100991999999999999999999MA1101391999999MW1001REMMET052OPKC 131200 21006 6000 SKC 30/04 Q1014 A29.94 NOSIG;EQDQ01+060002VODIS Q02+000000PRSWM2
0199724836232081999061122003+38670-121400FM-15+0023KMCC V0202201N003610750019N0241401N1+03001+01001101391ADDGD12991+0135019GD23991+0750019GF107991999999999999999999GP10060090402008076802015020102008GQ100600239923479GR100601209913259MA1101391999999MW1001REMMET023NEW SLP139 8/108 9/105;EQDQ01+000000PRSWM2
0306722533129621999123100513+29367-099167FM-15+0280HDO  V0203005N00315220005MN0160005N1+01725+00175101365ADDGF100991999999999999999999MA1101425999999MW1001REMMET077KHDO 310051Z AUTO 30006KT 10SM CLR 17/02 A2995 RMK AO2 SLP136 T01720017 TSNO;EQDQ01+000000PRSWM2N01 00000JPWTH 0QNNAA1D0 00000BA1 0 00000GA1U0 99999KA1D0 00035JA1 0 00017LA1 0 01000CA1 0 02995NA1 0 00000QA1 0 10136SA1D0 00063RA1 0 00172YA1 0 30006
0187104390999991999102115004+51130+009280FM-12+0181ETHF V0200701N002110300019N0110001N1+00841+00251100551ADDGA1051+030009039GA2081+075009029GF108991051001999999071071MA1999999098371MD1610091+9999REMSYN088AAXX  21154 10439 42961 80704 10084 20025 39837 40055 56009 85077 333 85360 88275 00808;
0204686180999991999041212004-31470+019770SY-MT+1000FACV V0200701N005112200019N0300001N1+03221+00131999999ADDAA199000091GF101991001001999999001011KA1120M+03271KA2120N+01691MA1102301091071MD1710171+9999ME1315919MW1001REMSYN033 333 10327 20169 555 41483 91023;MET011NEW CAVOK ;EQDQ01+000000PRSWM2Q02  00002PRCP99
0063166500999991999081718504+39920+025230FM-15+0004LGLM V0200201N00311220001CN0099001N1+02601+01501999999ADDMA1100811999999MW1001REMMET011NEW CAVOK ;EQDQ01+000000PRSWM2
0100126250999991999032711004+49300+019950FM-12+086099999V0201901N006012200019N0400001N1+01341+00131999999ADDAG12999GF105991021021012501001061MA1999999090821MD1610031+9999ME1207049REMSYN017 333 91014 91114;
0129346910999991999121200004+47900+048800FM-12+001099999V0201401N001019999999N0200001N1+00141-00051102661ADDGF108991081001999999021999MA1999999102791REMSYN076AAXX  12001 34691 42998 81401 10014 21005 30279 40266 5/002 8802/ 555 1/001;
0214834080999991999110200004-14300-043780FM-12+055699999V0200901N002110075019N9999999N1+02211+01711101301ADDAA106000091AY121061AY221061GF108991081091008001001001KA1240M+02671MA1999999096331MD1999999+0131MW1161REMSYN082AAXX  02004 83408 325// 80904 10221 20171 39633 40130 71622 88900 333 10267 58013;EQDQ01  00002PRCP06
0106161810999991999050610494+43080+012500FM-15+0205LIRZ V0200501N002110135019N0112651N1+02001+01101999999ADDAG12999GA1071+013509999GF107991999999999999999999MA1101691999999MW1001REMMET005NEW ;EQDQ01+000000PRSWM2
0071727945999991999011517009+48167-122167NSRDB+004299999V020999999999999999999999999999+99999+99999999999ADDGP10060003402008012702015002502008GQ100600858912849GR100600103914149
0199475800999991999102123004+40680+141380FM-15+0036RJSM V0201901N004612200019N0112651N1+01101+01001999999ADDAJ100089199999999GD12991+0075099GF102991999999999999999999MA1102101999999MW1001REMMET089RJSM 2300Z 19009KT 9999 FEW025 11/10 Q1021 RMK 1CU025 A3018 FCST 2305 BECMG 0102 14010KT;EQDQ01+000000PRSWM2
0397723840231551999032906003+35433-119050SY-MT+0149BFL  V0200505N00265220005MN0160005N1+01115+00175102355ADDAA101000095GD10995+9999999GF100991001001999999001001GP10060000002000000002000000002000GR100600000900009MA1102375100561MD1010111+9999MW1001REMMET045NEW AO2 SLP235 T01110017 10183 20089 50011 $;EQDQ01+000000PRSWM2Q02  00002PRCP99Q03  00003PRCP99N01 00000JPWTH 0QNNAA1D0 00000BA1 0 00000GA1U0 99999KA1D0 00035JA1 0 00017LA1 0 01000CA1 0 03023NA1 0 00000QA1 0 10235SA1D0 00052RA1 0 00111YA1 0 05005
0025710760999991999020200004+59570-108480FM-12+0318CWDC V0200201N002119999999N9999999N1-01911-02331100231ADDAG12999MA1999999096201
0103084870999991999013015004+36850-002380SY-MT+0021LEAM V0201001N003612200019N0300001N1+01861+01181101991ADDGF100991001001999999001001MA1102001101741MD1710151+9999MW1001REMMET011NEW CAVOK ;EQDQ01+000000PRSWM2
0165321500999991999102002004+46920+142730FM-15+0031UHSS V0201701N007010072019N0112651N1+01301+00701999999ADDAJ100009199999999GA1071+007209099GF107991999999999999999999MA1102101999999MW1001REMMET054UHSS 200200Z 17007MPS 9999 BKN024CB 13/07 Q1021 NOSIG;EQDQ01+000000PRSWM2
0054727440148581999041906009+47167-088500NSRDB+032799999V020999999999999999999999999999+99999+99999999999ADDGP10060000002000000002000000002000GR100600000900009
0101476780999991999102315004+33100+139780FM-12+008099999V0200801N001519999999N9999999N1+02041+01621101621ADDMA1999999100681MD1510041+9999REMSYN060AAXX  23154 47678 46/// /0803 10204 20162 30068 40162 55004;
0357726380948141999081510003+44367-084683FM-15+0351HTL  V0209999C00005220005MN0040005N1+00725+00725102285ADDAA101000095AG11999GF100991999999999999999999GP10060000002000000002000000002000GR100600000900009MA1102275999999MW1101MW2455REMMET037NEW AO2 VIS 1 1/2V5 SLP228 T00720072;EQDQ01+000003PRSWM1Q02    003PRSWM1N01 00070JPWTH 0QNNAA1D0 00000BA1 0 00000GA1U0 99999KA1D0 00045JA1 0 00072LA1 0 00250CA1 0 03020NA1 0 00070QA1 0 10228SA1D0 00045RA1 0 00072YA1 0 00000
0199106070999991999112407554+49980+006700FM-15+0365ETAD V0202301N003110003019N0003001N1+00201+00201102921ADDGD15991+0001599GF109991999999000251999999MA1102741999999MW1451REMMET090ETAD 240755Z 23006KT 0300 FG VV001 02/02 A3034 RMK PK WND 22008/46 SLP292 CIG001 WR// RED;EQDQ01+000003PRSWM1Q02    003PRSWM1
0054724397999991999051104009+40467-088917NSRDB+027299999V020999999999999999999999999999+99999+99999999999ADDGP10060000002000000002000000002000GR100600000900009
0280655990999991999110918004+04950-006080FM-12+0066DISS V02099999999990039019N0100001N1+02691+02391999999ADDAA106000091AY191061AY211061GA1061+003909099GA2031+078009009GF107991061091004501001021KA1120M+03091MA1999999100061MD1999999-0111MW1171REMSYN100AAXX  09184 65599 31460 7//// 10269 20239 30006 4080/ 71791 86902 333 10309 59011 86913 83076 95338;EQDQ01+108003APOSLPQ02  00002PRCP06
0071722526129471999080117009+28450-099217NSRDB+014199999V020999999999999999999999999999+99999+99999999999ADDGP10060079802008073802015017302008GQ100600322910189GR100601120913269
0029999999999991999020608384+61880-010440FM-18+9999DRIB V02099999999999999999N9999999N1+99999+99999999999ADDMW1001REMSYN01144726     ]
0165718820999991999121602044+50970-118180FM-15+0443CYRV V0200601N002110009019N0022131N1+00001+00001999999ADDGD14991+0009099GF108991999999999999999999MA1100911999999MW1001REMMET072CYRV 160204Z AUTO 06004KT 1 3/8SM -UP OVC003 00/M00 A2980 RMK ICG INTMT;EQDQ01+000000PRSWM2
0160718340999991999050820004+49780-086930FM-15+0351CYGQ V0203001N005710060019N0193121N1+00301-00101100851ADDAG11999GD12991+0042099GD23991+0060099GF107991999999999999999999MA1100751999999MW1851REMMET029NEW SC1SC6 TCU ASOCTD SLP085;EQDQ01+000003PRSWM1Q02    003PRSWM1
0165166270999991999101509004+40850+025920FM-12+0003LGAL V0201101N00511036001CN0100001N1+01921+00901101331ADDGA1021+007509089GF105991021011008001031001MA1999999101291MD1310051+9999REMSYN082AAXX  15094 16627 42560 51110 10192 20090 30129 40133 53005 82130 333 82825 84360;
0201724014999991999112819013+37180-077520FM-15+0059KPTB V0203201N002612200019N0160931N1+01801+00401999999ADDGF100991999999999999999999GP10060044602009075302021009602009GQ100600625920429GR100600649914059MA1102301999999MW1001REMMET055KPTB 281901Z AUTO 32005KT 10SM CLR 18/04 A3021 RMK AO1;EQDQ01+000000PRSWM2
0162167230999991999111619504+37700+026920FM-15+0007LGSM V0209999C000010300019N0112651N1+01901+01501999999ADDGA1021+006009999GA2071+030009999GF107991999999999999999999MA1102101999999MW1001REMMET052LGSM 161950Z 00000KT 9999 SCT020 BKN100 19/15 Q1021;EQDQ01+000000PRSWM2
0058610360999991999012821004+14200+001450FM-12+0210DRRL V02099999999999999999N0060001N1+02481+00111101131ADDAY121031GF107991001001999999001081MA1999999098741MW1051
0186724336999991999121006544+37780-089250FM-16+0125KMDH V0200601N00621000901CN0160931N1+99999+99999999999ADDGD14991+0018019GF108991999999999999999999MA1100851999999MW1001OC100821REMMET085KMDH 100654Z AUTO 06012G16KT 10SM OVC006 A2978 RMK AO2 CIG 003V009 SLPNO FZRANO TSNO;EQDQ01+000000PRSWM2
0018893770999991999091915004-82580-174270FM-12+005599999V0201501N002119999999N9999999N1-04161+99999999999ADDMA1999999098991
0108722103999991999082907534+27500-080370FM-15+0007KFPR V0202701N005112200019N0160931N1+02601+02401100481ADDGF100991999999999999999999MA1100471999999MW1001REMMET030NEW AO2 SLP048 T02560239 TSNO;EQDQ01+000000PRSWM2
0074567390999991999041415004+25120+098480FM-12+164999999V0209999C000012200019N0280001N1+01871+01111999999ADDGA1001+999999999GF100991001001999999001001MA1999999083211MD1210271+9999
0054727415999991999121713009+45633-089467NSRDB+050799999V020999999999999999999999999999+99999+99999999999ADDGP10060000002000000002000000002000GR100600000900009
0063011160999991999052105504+65970+012470FM-15+0017ENST V0200301N00311220001CN0099001N1+01301+00601999999ADDMA1100811999999MW1001REMMET011NEW CAVOK ;EQDQ01+000000PRSWM2
0093726568999991999051813354+44120-093250FM-15+0350KOWA V0203001N005712200019N0160931N1+01301+00801999999ADDAG11999GF100991999999999999999999MA1101861999999MW1001REMMET008NEW AO2;EQDQ01+000000PRSWM2
0054724945232931999121706009+37367-121933NSRDB+001699999V020999999999999999999999999999+99999+99999999999ADDGP10060000002000000002000000002000GR100600000900009
0050036840999991999043016004+51880+000450FM-12+008799999V0201301N003119999999N0400001N1+01721+00591101641ADDAG12999MD1710041+9999REMSYN017 555 7/090 80/99;
0223475450999991999123103004+39620+140220FM-15+0096RJSK V0201101N002110180019N0112651N1+00501-00101999999ADDGA1021+015009999GA2071+018009999GA3071+024009999GF107991999999999999999999MA1102001999999MW1001REMMET097RJSK 0300Z 11004KT 090V150 9999 FEW050 BKN060 BKN080 05/M01 Q1020 RMK 1SC050 5SC060 6AC080 A3013;EQDQ01+000000PRSWM2
0098711470999991999020212004+49500-098030FM-12+0268CWNK V0202701N005719999999N9999999N1-00611-00891999999ADDAA199000091AG14999KA1999M+00291KA2120N-00871REMSYN023 333 10029 21087 70000;EQDQ01  00002PRCP99
0138030260999991999101819004+58220-006320FM-12+0013EGPO V0201201N005710150019N0600001N1+00991+00611102401ADDGA1061+015009059GF106991061051017501999999MD1510011+9999REMSYN070AAXX  18194 03026 42786 61211 10099 20061 40240 55001 865// 333 86650;
0119066430999991999041200004+47250+007780FM-12+041699999V0209999C000010090019N0150001N1+00401+00331102041ADDAA199000191AW1021AZ161061GA1051+009009059GF105991051051008001001001MA1999999096971MD1710201+9999REMSYN011 333 85630;
0145685240999991999071418004-30350+021820FM-12+096199999V0203201N005112200019N0600001N1+01851+00001999999ADDGA1001+999999999GF100991001001999999001001KA1120M+02291MA1999999090562MD1310011+9999ME1314949REMSYN021 333 10229 555 91015;EQDQ01+090563APOSP 
0182722910931161999041601003+33250-119470FM-15+0154KNSI V0200801N001512200019N0112651N1+02201+01101101351ADDGD12991+0600019GF102991999999999999999999GP10060035102008051802015014302008GQ100600663926639GR100600546913589MA1101421999999MW1001REMMET021NEW SLP135 T02170106;EQDQ01+000000PRSWM2
032472565003017199906191853C+39833-104650FM-15+1650DEN  V0200505N00365220005MN0160005N1+02785+00835101215ADDAA101000095AG11999GD11995+0213459GD22995+0670659GF104991999999999999999999MA1102005999999MW1001REMMET025NEW AO2 SLP121 T02780083;EQDQ01+000000PRSWM2N01 00000JPWTH 0QNNAA1D0 02070BA1 0 01070AA1D0 02220BA1 0 02220GA1U0 99999KA1D0 00047JA1 0 00083LA1 0 01000CA1 0 03012NA1 0 00000QA1 0 10121SA1D0 00082RA1 0 00278YA1 0 05007
0036154770999991999020122004+44080+026630FM-12+003299999V0203401N009019999999N0200001N1-00371+99999999999ADDAG12999GF108991081001999999071999
0071725488999991999121514009+42683-091967NSRDB+032899999V020999999999999999999999999999+99999+99999999999ADDGP10060000002009000002021000002009GQ100600881912429GR100600021906479
0147160220999991999051909434+46150+011030FM-15+2129LIVP V0201601N006210001519N0000001N1+00401+00401999999ADDAG12999GA1091+000159999GF109991999999999999999999MA1101901999999MW1451MW2611REMMET024NEW MON INVIS VAL INVIS;EQDQ01+000003PRSWM1Q02    003PRSWM1
0032479090999991999070201004+28380+129500FM-12+000799999V0201801N004119999999N9999999N1+03011+02351100691ADDMA1999999100611MD1410001+9999
0144999999999991999082406004+05800+094300FM-13+9999DILE V0209999N999990150019N0040001N1+02501+02151101411ADDAY151061AY251061GF108991081091017501001999MD1110021+9999MW1021SA1+2759UA1M990209999UG1090352409REMSYN037 22224 00275 20604 324// 40907 80225;
0029999999999991999052618064+42800-060550FM-18+9999DRIB V02099999999999999999N9999999N1+99999+99999999999ADDMW1001REMSYN01144837     ]
031872208013880199909190500C+32900-080033FM-15+0012CHS  V0200505N00265021345MN0144005N1+02065+01725101825ADDAA101000095GD14995+0213459GF108991999999999999999999KA1999M+02721KA2999N+01721MA1101835999999MW1001REMMET037NEW AO2 SLP182 T02060172 402720172 $;EQDQ01+000000PRSWM2N01 00000JPWTH 0QNNAA1D0 06070BA1 0 06070GA1 0 00070KA1D0 00063JA1 0 00172LA1 0 00900CA1 0 03007NA1 0 00000QA1 0 10182SA1D0 00069RA1 0 00206YA1 0 05005
0071725976999991999021916009+42167-120400NSRDB+144199999V020999999999999999999999999999+99999+99999999999ADDGP10060002002008000002015002002008GQ100600841911109GR100600144914009
0141474810999991999051600004+43900+144170FM-15+0036RJCM V0200301N003610060019N0112651N1+00701+00401999999ADDAG12999GA1021+004509999GA2071+006009999GF107991999999999999999999MA1101491999999MW1001REMMET024NEW 1ST015 5ST020 A2998;EQDQ01+000000PRSWM2
0266727476949611999061209533+48717-094600FM-15+0330BDE  V0209995C00005220005MN0160005N1+01225+01225101765ADDAG11999GF100991999999999999999999MA1101765999999MW1001REMMET030NEW AO2 SLP176 T01220122 TSNO;EQDQ01+000000PRSWM2N01 00000JPWTH 0QNNAA1D0 00000BA1 0 00000GA1U0 99999KA1D0 00054JA1 0 00122LA1 0 01000CA1 0 03005NA1 0 00000QA1 0 10176SA1D0 00054RA1 0 00122YA1 0 00000
0092032460999991999082215004+54980-001600FM-12+004799999V0200601N004610150019N0400001N1+01421+00401102501ADDAG12999GA1011+009009089GF106991051081012501001021MD1710121+9999REMSYN017 333 81830 85650;
0115012230999991999082805204+63120+007830FM-15+0062ENKB V0202501N006210120019N0112651N1+01201+01001999999ADDGA1021+003009999GA2071+012009999GF107991999999999999999999MA1101191999999MW1001REMMET005NEW ;EQDQ01+000000PRSWM2
0095403620999991999010505004+29630+043480FM-15+0447OERF V0201401N00261220001CN0099001N1+00501-00601101961ADDMA1101801096571MW1001REMMET011NEW CAVOK ;EQDQ01+999990APOSP Q02+999990APOSLPQ03+000000PRSWM2
0071682620999991999060209004-25730+028180FM-15+1322FAPR V0200801N00261220001CN0099001N1+01801+00101999999ADDMA1103181999999MW1001OC100771REMMET011NEW CAVOK ;EQDQ01+000000PRSWM2
0201765480999991999110409004+22220-097850FM-12+002699999V0203001N001012200019N0100001N1+01881+01631102251ADDAA106000091GA1001+999999999GF100991001001999999001001IA1019MA1999999101951MD1710151-0391REMSYN082AAXX  04091 76548 32960 03001 10188 20163 30195 40225 57015 90859 333 30/// 59039;EQDQ01  00002PRCP06
0071727478999991999081213009+48783-096950NSRDB+025099999V020999999999999999999999999999+99999+99999999999ADDGP10060004402008000002015004402008GQ100600791907959GR100600251913309
0168691164999991999061816004+99999+999999FM-15+9999KQAG V0201201N005710090019N0112651N1+02201+01501999999ADDGD12991+0045099GD23991+0090099GD33991+0600099GF107991999999999999999999MA1102401999999MW1001REMMET064NEW SCT015 V BKN ESTMD ALSTG 8/508 9/601 BIGGS AAF ROVING SANDS;
0091948910999991999062323004-38200+146470FM-12+005699999V0202201N002610003019N0006001N1+00461+00441103201ADDAA199000191AY141999AY241999GF107991071061000251999999MA1999999102501MD1210091+9999MW1421
0144727478999991999070813174+48780-096950FM-15+0250KHCO V0200601N005710078019N0160931N1+01401+01301999999ADDAG11999GD14991+0078019GF108991999999999999999999MA1100981999999MW1611OC100771REMMET020NEW AO2 LTG DSNT SW;EQDQ01+000003PRSWM1Q02    003PRSWM1
0160702730264511999032510174+61170-150020FM-16+0040PANC V0209999V00311021001CN0160931N1-00101-00101999999ADDGD12991+0099019GD22991+0150019GD32991+0210019GD44991+0390019GF108991999999999999999999MA1098271999999MW1001REMMET022NEW AO2 FZRAE11 P0000;EQDQ01+000000PRSWM2
0110085120999991999050614004+37730-025700SY-MT+0072LPPD V0202901N003119999999N0112651N1+01681+00921101541ADDGA1021+006009999MA1101391100621MD1210041+9999MW1001REMSYN017 333 91010 91110;MET005NEW ;EQDQ01+000000PRSWM2
0155166670999991999010516504+39070+026600FM-15+0005LGMT V0200201N008710090019N0112651N1+00901+00701101851ADDGA1021+005409999GA2081+009009999GF108991999999999999999999MA1101801101801MW1001OC101391REMMET005NEW ;EQDQ01+999990APOSP Q02+999990APOSLPQ03+000000PRSWM2
0131943800999991999102111004-23850+151250FM-12+0075YBGL V0201201N004619999999N9999999N1+02061+01731101941ADDAA106000091MA1999999101071MD1210121+9999REMSYN060AAXX  21114 94380 35/// /1209 10206 20173 30107 40194 52012;EQDQ01  00002PRCP06
0146072880999991999070812004+47250+005980FM-12+0309LFSA V0200201N00511012001CN0200001N1+02261+01521102441ADDAA199000091AY141061AY211061GA1031+006009029GF106991051081008001001011MA1999999098871MD1810101+9999MW1031REMSYN011 333 83820;EQDQ01  00002PRCP99
031972295023174199906050150C+33933-118400FM-15+0030LAX  V0202405N00675220005MN0160005N1+01615+01065101705ADDAA101000095GD12995+0304859GD22995+0853459GF104991999999999999999999MA1101695999999MW1001REMMET027NEW AO2 SLP170 T01610106 $;EQDQ01+000000PRSWM2N01 00000JPWTH 0QNNAA1D0 02100BA1 0 02100AA1D0 02280BA1 0 02280GA1U0 99999KA1D0 00051JA1 0 00106LA1 0 01000CA1 0 03003NA1 0 00000QA1 0 10170SA1D0 00061RA1 0 00161YA1 0 24013
0226725527999991999061902544+41770-096170FM-15+0312KTQE V0201801N004610150019N0160931N1+01901+01401101871ADDAA101000021AA203000021AG11999GD12991+0120019GD23991+0150019GD34991+0210019GF108991999999999999999999MA1101961999999MD1310111+9999MW1001REMMET060NEW AO2 RAE05B39E48 SLP187 P0000 60000 T01890144 53011 TSNO;EQDQ01+000000PRSWM2
0067726384148171999080222404+44280-085420FM-15+0398KCAD V0203501N004119999999N0160931N1+02201+01001999999ADDAG11999MA1102301999999MW1001REMMET008NEW AO1;EQDQ01+000000PRSWM2
0198726079999991999032004003+44070-069100FM-15+0017KRKD V0209999C000010210019N0160931N1+00201-00601999999ADDAG11999GD13991+0210019GF107991999999999999999999GP10060000002000000002000000002000GR100600000900009MA1101321999999MD1210101+9999MW1001REMMET033NEW AO1 52010 PWINO FZRANO RVRNO;EQDQ01+000000PRSWM2
0133999999999991999102822384+79990+170360FM-18+9999DRIB V02099999999999999999N9999999N1-02731+99999102931ADDMD1210021+9999MW1001REMSYN101ZZYY 22526 28109 2238/ 179998 170368 6113/ 11119 0//// 11273 30293 40293 52002 444 2013/ 28109 2100/;
0168034950999991999041410004+52770+001350SY-MT+0020EGYC V0202901N002112200019N0400001N1+00621-00301099741ADDAG11999GA1021+009009999GA2021+010509999GF103991031011012501001021MA1099701999999MD1710091+9999MW1001REMSYN017 333 81830 83835;MET014NEW BLU NOSIG;EQDQ01+000000PRSWM2
0071723140138811999071417009+35217-080950NSRDB+022299999V020999999999999999999999999999+99999+99999999999ADDGP10060033002008001802015031302008GQ100600190913339GR100601249913229
0172724830232321999013115534+38520-121500FM-15+0008KSAC V0203501N001510030019N0012071N1+00701+00701101191ADDAA101004191GD13991+0030019GD24991+0108019GF108991999999999999999999MA1101221999999MW1101MW2611REMMET031NEW AO2 SLP119 P0016 T00670067;EQDQ01+000003PRSWM1Q02    003PRSWM1
0114723066137131999051709254+35330-077970FM-15+0033KGSB V0200201N004110042019N0048281N1+01501+01401999999ADDGD13991+0042019GF107991999999999999999999MA1102031999999MW1511REMMET005NEW ;EQDQ01+000003PRSWM1Q02    003PRSWM1
0071722789999991999112022009+33617-111917NSRDB+046099999V020999999999999999999999999999+99999+99999999999ADDGP10060048202008090802015006202008GQ100600626921659GR100600645914019
0172033160999991999123021004+53500-003070FM-12+000899999V0209999C00001004201CN0010001N1+00601+00601101421ADDAY121031AY221031GA1021+004509079GF108991081061004501999999MD1210321+9999MW1101REMSYN082AAXX  30214 03316 41410 80000 10060 20060 40142 52032 71022 886// 333 82715 86720;
0095154190999991999042300004+44650+025530FM-12+015999999V0203601N003019999999N0100001N1+01101+00771102051ADDAA199000091AG14999GF108991061999008001071999MA1999999100111MD1610051+9999EQDQ01  00002PRCP99
0054726550149261999071407009+45550-094050NSRDB+031199999V020999999999999999999999999999+99999+99999999999ADDGP10060000002000000002000000002000GR100600000900009
0073862550999991999051318004-26850-058320FM-12+005699999V0201401N006212200019N0200001N1+02421+00651102211ADDAA199000091GF104991001001999999001041MD1610101+9999EQDQ01  00002PRCP99
0071724074999991999050600009+39933-074833NSRDB+001699999V020999999999999999999999999999+99999+99999999999ADDGP10060001902008000402015001802008GQ100600853928779GR100600103912659
0110722420129231999091210524+29300-094800FM-15+0016KGLS V0201601N005112200019N0160931N1+02701+02101101411ADDGF100991999999999999999999MA1101421999999MW1001REMMET032NEW AO2 SLP141 T02720206 TSNO $;EQDQ01+000000PRSWM2
0154025625999991999092912504+58400+015680FM-15+0052ESSL V0202501N006210099019N0112651N1+01601+00701999999ADDAJ100019199999999GA1071+009909999GF107991999999999999999999MA1099591999999MW1001REMMET043ESSL 1250Z 25012KT 9999 BKN033 16/07 Q0996;EQDQ01+000000PRSWM2
0135513340999991999042018004+44620+082900FM-12+032199999V0209999C000012200019N0300001N1+01211+00901101171ADDAA199000091AG14999GA1001+999999999GF100991001001999999001001KA1999M+02461MD1210051+0501REMSYN017 333 00555 10246;EQDQ01  00002PRCP99
0071702084999991999050317009+62783-164500NSRDB+000499999V020999999999999999999999999999+99999+99999999999ADDGP10060006501025001001028006301025GQ100600788907739GR100600261913449
0168725245999991999091917534+41520-081680FM-15+0178KBKL V0203401N003112200019N0160931N1+02301+01401101601ADDAG11999GF100991999999999999999999KA1999M+02391KA2999N+01391MA1101631999999MD1810171+9999MW1001REMMET043NEW AO2 SLP160 T02330144 10239 20139 58017;EQDQ01+000000PRSWM2
0132162340999991999010811004+42000+012730FM-15+0089LIRG V0209999C000010090019N0112651N1+00801+00501999999ADDAG11999GA1081+009009999GF108991999999999999999999MA1101291999999MW1001REMMET031NEW OVC MON NE CIME INC NC BLU;EQDQ01+000000PRSWM2
0134722137138781999082016504+31150-081380FM-15+0006KSSI V0201701N003610300019N0112651N1+02901+02501101521ADDGD12991+0075019GD22991+0240019GD33991+0300019GF107991999999999999999999MA1101521999999MW1001REMMET011NEW SLP152;EQDQ01+000000PRSWM2
0162836920999991999100708004-21770-043350FM-15+0939SBJF V0209999C000010021019N0112651N1+01201+01101999999ADDGA1021+001509999GA2081+002109999GF108991999999999999999999MA1102401999999MW1001REMMET052SBJF 070800Z 00000KT 9999 SCT005 OVC007 12/11 Q1024;EQDQ01+000000PRSWM2
0201962210999991999110503004-02900+104700FM-12+0010WIPP V0201501N002619999999N0100001N1+02881+02271101181ADDAA106000091GA1041+036009039GF108991041001999999031071MA1999999101031MD1210111+9999REMSYN088AAXX  05034 96221 32960 81505 10288 20227 30103 40118 52011 84037 333 56099 84362 88280;EQDQ01  00002PRCP06
012672508714752199904250753D+41730-072650FM-15+0006KHFD V0203101N003612200019N0160931N1+00601-00601102101ADDAA101000095AG11999GF100991999999999999999999MA1102101999999MW1001REMMET030NEW AO2 SLP210 T00611061 TSNO;EQDQ01+000000PRSWM2
0106153350999991999082916304+45180+028820FM-15+0006LRTC V0201601N002012200019N0112651N1+02301+01801999999ADDAG11999GA1021+009009999GF104991999999999999999999MA1101591999999MW1001REMMET005NEW ;EQDQ01+000000PRSWM2
0071723446139711999123017009+36267-093150NSRDB+041999999V020999999999999999999999999999+99999+99999999999ADDGP10060041302009062302021014302009GQ100600645915339GR100600609914159
0144691490999991999020913004+46420+017920FM-15+0160KQKB V0201601N003610300019N0112651N1+00201-00601999999ADDAG11999GD12991+0120099GD24991+0300099GF108991999999999999999999MA1099901999999MW1001REMMET029NEW SLPNO CIG100 8/57/ 9/44/;EQDQ01+000000PRSWM2
0190727135999991999091411534+43970-069720FM-15+0021KIWI V0209999C000012200019N0160931N1+01401+01301102311ADDAA124000391AG11999GF100991999999999999999999KA1999M+01391KA2999N+00941MA1102301999999MD1610031+9999MW1001REMMET054NEW AO2 SLP231 70001 T01390133 10139 20094 56003 TSNO;EQDQ01+000000PRSWM2
0128722747999991999031102504+32820-109680FM-15+0950KSAD V0202101N002612200019N0160931N1+01601-00801100901ADDGF100991999999999999999999MA1101121999999MD1310011+9999MW1001REMMET036NEW AO2 SLP090 T01611078 53001 TSNO;EQDQ01+000000PRSWM2
0068602300999991999081302004+31620-008030FM-15+0466GMMX V0200801N00151220001CN0099001N1+02401+01301999999ADDMA1101491999999MW1001REMMET016NEW CAVOK NOSIG;EQDQ01+000000PRSWM2
0071722595139111999053122009+32767-097450NSRDB+018599999V020999999999999999999999999999+99999+99999999999ADDGP10060069802008073102015015102008GQ100600416926679GR100600992913299
0175745046999991999121402534+36980-120120FM-15+0077KMAE V0202901N004112200019N0160931N1+00701+00101102401ADDGF100991999999999999999999MA1102401999999MD1310081+9999MW1001REMMET083KMAE 140253Z AUTO 29008KT 10SM CLR 07/01 A3024 RMK AO2 SLP240 T00720006 53008 TSNO;EQDQ01+000000PRSWM2
0145107750999991999012409574+49220+011830FM-15+0442ETIH V0201601N002110012019N0020001N1-00301-00301999999ADDAG11999GD14991+0012099GF108991999999999999999999MA1102511999999MW1101REMMET029NEW SLPNO CIG004 8/6// 9/8//;EQDQ01+000003PRSWM1Q02    003PRSWM1
0136083060999991999081901304+39550+002730FM-15+0008LEPA V0200701N004610600019N0090001N1+02601+02401999999ADDGA1021+005409999GA2021+027009999GA3071+060009999GF107991999999999999999999MA1101021999999MW1001REMMET010NEW NOSIG;EQDQ01+000000PRSWM2
0116727458999991999092015354+47220-093520FM-15+0413KGPZ V0203501N004110105019N0160931N1+00701-00201999999ADDAG11999GD13991+0105019GF107991999999999999999999MA1102441999999MW1001OC100721REMMET008NEW AO1;EQDQ01+000000PRSWM2
0165100550999991999100509004+54530+011070FM-12+000999999V0202501N004610039019N0400001N1+01221+01011101361ADDGA1051+003909099GF105991051091004501001001MA1999999101261MD1310141+9999REMSYN082AAXX  05094 10055 42482 52509 10122 20101 30126 40136 53014 85900 333 55305 85913;
0104601560999991999071315304+33370-007580FM-15+0206GMMN V0203601N006210048019N0112651N1+02601+01701999999ADDGA1071+004809999GF107991999999999999999999MA1101591999999MW1001REMMET010NEW NOSIG;EQDQ01+000000PRSWM2
0128702715999991999042622354+61930-147170FM-15+1002PAZK V0200201N002610078019N0160931N1-00301-01101999999ADDAG11999GD13991+0078019GD24991+0105019GF108991999999999999999999MA1101291999999MW1001REMMET013NEW AO1 TSNO;EQDQ01+000000PRSWM2
0131725067999991999020217074+41670-070280FM-16+0016KHYA V0201301N004110072019N0128741N1+00401+00401999999ADDGD13991+0072019GD23991+0114019GD34991+0141019GF108991999999999999999999MA1102301999999MW1001REMMET008NEW AO2;EQDQ01+000000PRSWM2
0248726404999991999102318003+45930-089730FM-15+0496KARV V0203401N006710081019N0160931N1+00201-00101999999ADDAJ100059199999999GD14991+0081019GF108991999999999999999999GP10060011502009000002021011502009GQ100600575917619GR100600741913819MA1102201999999MW1001OC101031REMMET062KARV 231755Z AUTO 34013G20KT 10SM OVC027 02/M01 A3018 RMK AO2;EQDQ01+000000PRSWM2
0111010280999991999050200004+74520+019020FM-12+0014ENBJ V0201401N001012200019N0700001N1-00661-00711101931ADDAA199000791AY181061AY221061GF104991021081004501041021MA1999999101721MD1410001+9999MW1011REMSYN011 333 91103;
0068083060999991999082323304+39550+002730FM-15+0008LEPA V0209999C00001220001CN0099001N1+02101+02001999999ADDMA1101591999999MW1001REMMET016NEW CAVOK NOSIG;EQDQ01+000000PRSWM2
0069072100999991999040123004+47630-002750FM-12+001199999V0201501N002119999999N9999999N1+00811+00721101221ADDAA199000091AG14999MA1999999101181MD1310101+9999EQDQ01  00002PRCP99
0068400830999991999042221004+34030+036720FM-12+133399999V0203101N003012200019N0200001N1+00801+00431999999ADDGA1001+999999999GF100991001001999999001001MD1810021+9999ME1314879
0068071500999991999022719304+48970+002450FM-15+0065LFPB V0202501N00311220001CN0099001N1+00701+00601999999ADDMA1101591999999MW1001REMMET016NEW CAVOK NOSIG;EQDQ01+000000PRSWM2
0071725250148521999102117009+41250-080667NSRDB+036099999V020999999999999999999999999999+99999+99999999999ADDGP10060055102009059002021019202009GQ100600528916859GR100600834913809
0155787080999991999073101004+15450-087930FM-15+0031MHLM V0200101N003110750019N0112651N1+02701+02401999999ADDGA1021+007509099GA2021+008409029GA3071+075009999GF107991999999999999999999MA1101291999999MW1001REMMET029NEW CB DIST ENE TCU DIST TDS;EQDQ01+000000PRSWM2
0116723265038471999041908504+35950-085080FM-15+0573KCSV V0209999C000012200019N0241401N1+00301+00001102131ADDAG11999GF100991999999999999999999MA1102131999999MD1710141+9999MW1001REMMET017NEW SLP213 57014;EQDQ01+000000PRSWM2
0173063910999991999050606004+51500+006200FM-12+001999999V0201301N004019999999N9999999N1+01081+01031999999ADDAA199009991IA2999+01009KA1120N+01021OA140199999OA249900411OA359999999REMSYN057 333 20102 3/010 91006 91108 91205 555 51107 51205 53008;EQDQ01  00312WGOSPDQ02  00262WGOSPD
0071725866999991999090514009+42483-114483NSRDB+129799999V020999999999999999999999999999+99999+99999999999ADDGP10060002902008033102015000702008GQ100600856908459GR100600090911769
0207485800999991999122412004+06780+101150FM-12+0009VTSK V0209999C000010450019N0040001N1+02451+02071101301ADDAA112007191AY161061AY221061GF108991041081004501041071KA1120M+02571MA1999999101231MD1999999+0021MW1101REMSYN094AAXX  24124 48580 11440 80000 10245 20207 30123 40130 60072 71062 84847 333 10257 58002 70075;
0162549360999991999112406004+35550+118750FM-12+010999999V0202701N005010120019N0040001N1+01591+01361102241ADDAA106000091AY141061GF107991071051012501999999MD1710081+9999MW1281REMSYN066AAXX  24061 54936 31640 72705 10159 20136 40224 57008 72840 875//;EQDQ01  00002PRCP06
0204723407999991999102417534+35830-090650FM-15+0080KJBR V0202601N002612200019N0160931N1+01301-00101102701ADDGF100991999999999999999999KA1999M+01281KA2999N+00111MA1102711999999MD1810101+9999MW1001REMMET086KJBR 241753Z 26005KT 10SM CLR 13/M01 A3033 RMK AO2 SLP270 T01281011 10128 20011 58010;EQDQ01+000000PRSWM2
0133999999999991999100120004+30550-039130FM-18+9999DRIB V02099999999999999999N9999999N1+99999+99999102201ADDMW1001SA1+2729REMSYN107ZZYY 41599 01109 2000/ 730551 039130 6111/ 11119 0//// 30220 40220 22219 00272 444 2011/ 01109 2110/ 90015;
0050038400999991999071013004+50870-003230FM-12+025299999V0200501N005119999999N0170001N1+02281+01061102341ADDAG12999MD1610091+9999REMSYN017 555 7/090 80/99;
0130725462149371999031903534+41630-091550FM-15+0204KIOW V0203501N004112200019N0160931N1+00101-00101103001ADDAG11999GD12991+0240099GF102991999999999999999999MA1102951999999MW1001REMMET030NEW AO2 SLP300 T00111011 TSNO;EQDQ01+000000PRSWM2
031172556014941199911071554C+41983-097433FM-15+0472OFK  V0201905N00315220005MN0128005N1+01335+00785102575ADDAA101000095GF100991999999999999999999MA1102515999999MW1001REMMET071KOFK 071554Z AUTO 19006KT 8SM CLR 13/08 A3027 RMK AO2 SLP257 T01330078;EQDQ01+000000PRSWM2N01 00000JPWTH 0QNNAA1D0 00000BA1 0 00000GA1U0 99999KA1D0 00046JA1 0 00078LA1 0 00800CA1 0 03027NA1 0 00000QA1 0 10257SA1D0 00056RA1 0 00133YA1 0 19006
0319785263116411999012520543+18450-066000FM-15+0003TJSJ V0200705N00525220005MN0160005N1+02615+02065101585ADDGA1021+007809999GD11995+0079259GF102991999999999999999999MA1101595999999MD1510031+9999MW1001OC100871REMMET037NEW AO2 SLP158 60000 T02610206 55003;EQDQ01+000000PRSWM2N01 00000JPWTH 0QNNAA1D0 02026BA1 0 01026GA1U0 99999KA1D0 00069JA1 0 00206LA1 0 01000CA1 0 03000NA1 0 00000QA1 0 10158SA1D0 00079RA1 0 00261YA1 0 07010
0115725705999991999080222534+40430-109520FM-15+1608KVEL V0209999V002112200019N0160931N1+03101+00601101591ADDAG11999GF100991999999999999999999MA1102271999999MW1001REMMET030NEW AO2 SLP159 T03110056 TSNO;EQDQ01+000000PRSWM2
0082714640999991999092913004+42570-080050SAO  +0175CWPS V0201901N007719999999N0128751N1+02001+99999999999ADDMW1001OC101021REMAWY056WPS SA 1327 AUTO4 M 8. M 116/20/M/1915+20/M/M 6004 0MMM;
0054727576149161999042911009+47950-097183NSRDB+025699999V020999999999999999999999999999+99999+99999999999ADDGP10060000002000000002000000002000GR100600000900009
0071724640930581999112216009+38283-104500NSRDB+142899999V020999999999999999999999999999+99999+99999999999ADDGP10060004402009000002021004402009GQ100600740913319GR100600385914029
0098727503999991999061309344+45570-093270FM-15+0287KCBG V0209999C000012200019N0160931N1+01101+01101999999ADDAG11999GF100991999999999999999999MA1102031999999MW1001REMMET013NEW AO2 TSNO;EQDQ01+000000PRSWM2
0099804190999991999030710004+10120-064680FM-15+0007SVBC V0201601N000512200019N0112651N1+02201+01901999999ADDGA1021+003009999GF104991999999999999999999MA1100811999999MW1001REMMET005NEW ;EQDQ01+000000PRSWM2
0210153470999991999101318004+45130+024680FM-12+044899999V0209999C000010360019N0170001N1+01151+00971102241ADDAA106000091GF105991031031008001061001IA1099IA2999+03209KA1120M+01981MA1999999096931MD1610021+9999REMSYN082AAXX  13181 15347 32567 50000 10115 20097 39693 40224 56002 83360 333 10198 31032;EQDQ01  00002PRCP06
0372724176137361999110123533+39650-079917FM-15+0378MGW  V0201205N00315220005MN0160005N1+01945+01065101565ADDGD12995+0243859GF104991999999999999999999KA1999M+02501KA2999N+01941MA1101595999999MD1610071+9999MW1001REMMET088KMGW 012353Z 12006KT 10SM SCT080 19/11 A3000 RMK AO2 SLP156 T01940106 10250 20194 56007;EQDQ01+000000PRSWM2N01 00000JPWTH 0QNNAA1D0 02080BA1 0 02080GA1U0 99999KA1D0 00051JA1 0 00106LA1 0 01000CA1 0 03000NA1 0 00000QA1 0 10156SA1D0 00067RA1 0 00194YA1 0 12006
0085025500999991999020721004+57770+014080SY-MT+0232ESGJ V0200701N00151024001CN0040001N1-00491-00631099311ADDAG11999GA1021+001809999GA2071+024009999MA1099091096541MD1210041+9999REMMET005NEW ;
0100999999999991999081812004+54100-149300FM-13+9999KJDG V0209999N999990021019N0200001N1+01281+01101101201ADDAG11999AY121061GF108991081061002501999999MD1710201+9999MW1031SA1+1229REMSYN019 22213 00122 80117;
0233972300999991999020721004-08750+115170SY-MT+0001WRRR V0209999C000010450019N0100001N1+02581+02491100611ADDAA103999929AA299000791AY161031AY221031GA1021+005409099GA2021+005409999GF107991041091004501031011MA1100611100541MD1810021+9999MW1601REMSYN041 333 56000 57901 69907 81918 84818 80960;MET008NEW NSG;EQDQ01+000000PRSWM2Q02    003PRSWM1
0145727827241101999090514524+47200-119320FM-15+0361KMWH V0201101N002612200019N0160931N1+01301+00401101161ADDAG11999GD12991+0330019GF102991999999999999999999MA1101191999999MD1510011+9999MW1001REMMET031NEW AO2 SLP116 T01280039 55001;EQDQ01+000000PRSWM2
0211724275148941999121015534+40180-080650FM-15+0365KHLG V0202501N00361001501CN0128741N1+01101+01101100981ADDAA101000391GD14991+0024019GF108991999999999999999999MA1100951999999MW1611REMMET091KHLG 101553Z 25007KT 8SM -RA OVC008 11/11 A2981 RMK AO2 CIG 005V010 SLP098 P0001 T01060106;EQDQ01+000003PRSWM1Q02    003PRSWM1
0204064500999991999082803004+51200+004470SY-MT+0014EBAW V0209999C000019999999N0045001N1+01451+01341102231ADDAG11999AY121031AY221031GA1021+030009999GA2021+060009999GF105991011001999999031011MA1102201999999MD1310011+9999MW1111MW2121OA149900051REMSYN029 333 81360 84070 91101 91200;MET005NEW ;EQDQ01    003PRSWM1
0120724699999991999092016454+39920-105120FM-15+1724KBJC V0209999V003110015019N0193121N1+00801+00801999999ADDAG11999GD13991+0015019GD24991+0030019GF108991999999999999999999MA1102681999999MW1001REMMET005NEW ;EQDQ01+000000PRSWM2
0068076460999991999062309004+43750+004420FM-15+0096LFTW V0200401N00461220001CN0099001N1+02201+00601999999ADDMA1101691999999MW1001REMMET016NEW CAVOK NOSIG;EQDQ01+000000PRSWM2
0149105000999991999073111004+50970+006050SY-MT+0098ETNG V0201001N002112200019N0300001N1+02961+00701101461ADDAG11999GA1011+018009089GF104991011011017501001011MA1101391100351MD1710051+9999MW1001REMSYN017 333 81856 84075;MET011NEW CAVOK ;EQDQ01+000000PRSWM2
0164042700999991999120311504+61180-045420FM-15+0034BGBW V0202401N003110240019N0112651N1-01301-01801999999ADDGA1021+021009999GA2081+024009999GF108991999999999999999999MA1102301999999MW1001REMMET054BGBW 031150Z 24006KT 9999 SCT070 OVC080 M13/M18 Q1023;EQDQ01+000000PRSWM2
0071726456999991999122415009+43983-088550NSRDB+025399999V020999999999999999999999999999+99999+99999999999ADDGP10060012202009039902021006502009GQ100600819913419GR100600200914149
0153722180038201999071213464+33370-081970FM-16+0045KAGS V0201301N002110036019N0112651N1+02301+02201999999ADDGD12991+0012019GD23991+0036019GD34991+0072019GF108991999999999999999999MA1101861999999MW1611REMMET014NEW AO2 P0023;EQDQ01+000003PRSWM1Q02    003PRSWM1
0506725280147331999011418003+42933-078733SY-MT+0215BUF  V0200705N00885009755MN0028005N1-01675-01945102745ADDAA101000095AA206001091AG11999AJ100639199999999GD12995+0024459GD24995+0097559GF108991999051002501999999GP10060006602009000002021006602009GQ100600643918169GR100600613914149MA1102545099921MD1810411+9999MW1385MW2715REMMET075NEW AO2 PRESFR SLP274 60004 4/025 933041 8/5// T11671194 11167 21172 58041;EQDQ01    003PRSWM1Q02  00103PRCP99N01 04084JPWTH 0QNNAA1D0 02008BA1 0 02008AA1D0 06032BA1 0 06032GA1 0 00032KA1D0-00003JA1 0-00194LA1 0 00175CA1 0 03028NA1 0 04084QA1 0 10274SA1D0 00002RA1 0-00167YA1 0 07017
0174727507999991999101809534+45320-095650FM-15+0317KBBB V0201701N003110135019N0160931N1+00401-00301999999ADDGD13991+0135019GD24991+0150019GF108991999999999999999999MA1101831999999MW1001REMMET066KBBB 180953Z AUTO 17006KT 10SM BKN045 OVC050 04/M03 A3007 RMK AO2;EQDQ01+000000PRSWM2
0132471250999991999080718004+37030+127880FM-15+0091RKTI V0200701N001510150019N0112651N1+02801+02201999999ADDGA1071+015009999GF107991999999999999999999MA1100141999999MW1001REMMET038NEW CIG050/DI77/FF27/FD26/ QFF1001PT7;EQDQ01+000000PRSWM2
0201072030999991999101612004+47650-003500FM-12+005499999V0200701N005110003019N0040001N1+01501+01441101691ADDAA106000091AY141061AY221061GF108991081061000251999999MA1999999101211MD1810091+9999MW1101REMSYN082AAXX  16124 07203 31040 80710 10150 20144 30121 40169 58009 71042 886// 333 92426;EQDQ01  00002PRCP06
0130607230999991999021406004+36730+009180FM-12+015999999V0209999C000010360019N0080001N1+00181+00181102291ADDAA199003091GA1031+009009059GF105991031051008001081001KA1120N+00081MA1999999100311MD1410001+9999REMSYN023 333 20008 70030 83630;
0203486570999991999102018004+03780+103220FM-12+0016WMKD V0203601N00051045001CN0140001N1+02521+02451101071ADDAA106000091AY121061AY221061GA1021+007509069GF107991021051008001041011MA1999999100891MW1051REMSYN082AAXX  20184 48657 31564 73601 10252 20245 30089 40107 70522 82541 333 82625 86075;EQDQ01  00002PRCP06
0071722025128491999091113009+26067-080150NSRDB+000399999V020999999999999999999999999999+99999+99999999999ADDGP10060023102008038602015010902008GQ100600716909399GR100600424913489
0054700637274061999112314009+70200-148483NSRDB+002399999V020999999999999999999999999999+99999+99999999999ADDGP10060000001000000001000000001000GR100600000900009
0158725476999991999051206454+43280-091730FM-15+0353KDEH V0200801N004612200019N0040231N1+01601+01201999999ADDAG11999GD12991+0018019GD22991+0150019GD32991+0330019GF104991999999999999999999MA1101461999999MW1001REMMET028NEW AO1 PARTIAL OBSCURATION;EQDQ01+000000PRSWM2
0315076270999991999091708004+43000+001100SY-MT+0412LFCG V0202101N00101001201CN0070001N1+01261+01181101521ADDAA101001091AY191999AY261999GA1021+000909999GF108991081051001501999999MA1999999096701MD1110151+9999MW1951REMSYN094AAXX  17084 07627 21257 82102 10126 20118 39670 40152 51015 79596 885// 333 60015 83703 88608;MET080LFCG 170800Z 21003KT 7000 TSRA SCT003 OVCT 9999 FEW020 SCT060 13/13 Q1012 NOSIG;EQDQ01    003PRSWM1
0112106130999991999020621304+50170+007070FM-16+0486ETSB V0202201N004610003019N0012001N1+99999+99999999999ADDGA1081+000309999GF108991999999999999999999MW1001MW2101REMMET027NEW M07:M01 I1004 BLACKRED;EQDQ01+000003PRSWM1
0189747810999991999042802003+30970-083200FM-15+0071KVAD V0202001N002610300019N0112651N1+02501+01701101281ADDAG11999GD13991+0300019GD23991+0750019GF107991999999999999999999GP10060000002000000002000000002000GR100600000900009MA1101321999999MW1001REMMET023NEW SLP128 8/079 9/061;EQDQ01+000000PRSWM2
0123277860999991999062712004+54280+048250FM-12+012799999V0200501N002010132019N0100001N1+01981+01671101141ADDAG12999AY191061AY281061GA1061+013209099GF106991061031012501001001MA1999999099641MD1810031+9999MW1951REMSYN011 333 86944;
0173071000999991999103115004+48470-005130FM-12+003299999V0202101N010810360019N0150001N1+01471+01031101801ADDAA106000091GF106991041081004501081001MA1999999100991MD1610151+9999REMSYN076AAXX  31154 07100 32465 62121 10147 20103 30099 40180 56015 84880 333 92457;EQDQ01  00002PRCP06
0072711150999991999011700004+50230-119300FM-12+0556CWVK V0200701N001019999999N9999999N1+00071-00101999999ADDAA199000191KA1120M+00151KA2180N-00251REMSYN023 333 10015 21025 70008;
0071725513999991999050801009+40900-098000NSRDB+054899999V020999999999999999999999999999+99999+99999999999ADDGP10060012402008035202015005802008GQ100600792928329GR100600251913429
0108341860999991999020715004+51330+048350FM-12+010699999V0201701N007010006019N0033001N1+00021+00021100671ADDAG12999AY121031AY221031GA1081+000609069GF108991081061000751999999MD1710031+9999MW1101REMSYN011 333 88702;
0122999999999991999091506004-26300+036500FM-13+9999C6KY V0209999N999999999999N0200001N1+02101+02001101901ADDGF107991071999017501051999MD1410001+9999SA1+2099UA1M990059999UG1030100509REMSYN037 22213 00209 20201 305// 40302 80200;
0388722345038661999071310003+32550-088567FM-15+0083NMM  V0202805N00265220005MN0080005N1+02175+02005101795ADDAG11999GD12995+0121959GD22995+0274359GF104991999999999999999999GP10060000002000000002000000002000GR100600000900009MA1101735999999MW1101MW2455REMMET027NEW SLP179 T02170200 FIRST;EQDQ01+000003PRSWM1Q02    003PRSWM1N01 00070JPWTH 0QNNAA1D0 02040BA1 0 02040AA1D0 02090BA1 0 02090GA1U0 99999KA1D0 00068JA1 0 00200LA1 0 00500CA1 0 03004NA1 0 00070QA1 0 10179SA1D0 00071RA1 0 00217YA1 0 28005
0106024853999991999051023504+58780+016920FM-15+0043ESKN V0200601N001010105019N0112651N1+00201+00101999999ADDAG11999GA1071+010509999GF107991999999999999999999MA1101801999999MW1001REMMET005NEW ;EQDQ01+000000PRSWM2
