0155727677999992002111514524+47650-101430FM-15+0587KN60 V0200201N002112200019N9999999N1+01201-01401102711ADDMA1102341999999MD1310191+9999MW1001REMMET089KN60 151452Z AUTO 02004KT M12/M14 A3022 RMK AO2 SLP271 T11221144 53019 PWINO FZRANO TSNO;EQDQ01+000000PRSWM2
0155727677999992002111514524+47650-101430FM-15+0587KN60 V0200201N002112200019N9999999N1+01201-01401102711ADDMA1102341999999MD1310191+9999MW1001REMMET089KN60 151452Z AUTO 02004KT M12/M14 A3022 RMK AO2 SLP271 T11221144 53019 PWINO FZRANO TSNO;EQDQ01+000000PRSWM2
0155727677999992002111514524+47650-101430FM-15+0587KN60 V0200201N002112200019N9999999N1+01201-01401102711ADDMA1102341999999MD1310191+9999MW1001REMMET089KN60 151452Z AUTO 02004KT M12/M14 A3022 RMK AO2 SLP271 T11221144 53019 PWINO FZRANO TSNO;EQDQ01+000000PRSWM2
0155727677999992002111514524+47650-101430FM-15+0587KN60 V0200201N002112200019N9999999N1+01201-01401102711ADDMA1102341999999MD1310191+9999MW1001REMMET089KN60 151452Z AUTO 02004KT M12/M14 A3022 RMK AO2 SLP271 T11221144 53019 PWINO FZRANO TSNO;EQDQ01+000000PRSWM2
0155727677999992002111514524+47650-101430FM-15+0587KN60 V0200201N002112200019N9999999N1+01201-01401102711ADDMA1102341999999MD1310191+9999MW1001REMMET089KN60 151452Z AUTO 02004KT M12/M14 A3022 RMK AO2 SLP271 T11221144 53019 PWINO FZRANO TSNO;EQDQ01+000000PRSWM2
0155727677999992002111514524+47650-101430FM-15+0587KN60 V0200201N002112200019N9999999N1+01201-01401102711ADDMA1102341999999MD1310191+9999MW1001REMMET089KN60 151452Z AUTO 02004KT M12/M14 A3022 RMK AO2 SLP271 T11221144 53019 PWINO FZRANO TSNO;EQDQ01+000000PRSWM2
0155727677999992002111514524+47650-101430FM-15+0587KN60 V0200201N002112200019N9999999N1+01201-01401102711ADDMA1102341999999MD1310191+9999MW1001REMMET089KN60 151452Z AUTO 02004KT M12/M14 A3022 RMK AO2 SLP271 T11221144 53019 PWINO FZRANO TSNO;EQDQ01+000000PRSWM2
0155727677999992002111514524+47650-101430FM-15+0587KN60 V0200201N002112200019N9999999N1+01201-01401102711ADDMA1102341999999MD1310191+9999MW1001REMMET089KN60 151452Z AUTO 02004KT M12/M14 A3022 RMK AO2 SLP271 T11221144 53019 PWINO FZRANO TSNO;EQDQ01+000000PRSWM2
0155727677999992002111514524+47650-101430FM-15+0587KN60 V0200201N002112200019N9999999N1+01201-01401102711ADDMA1102341999999MD1310191+9999MW1001REMMET089KN60 151452Z AUTO 02004KT M12/M14 A3022 RMK AO2 SLP271 T11221144 53019 PWINO FZRANO TSNO;EQDQ01+000000PRSWM2
0155727677999992002111514524+47650-101430FM-15+0587KN60 V0200201N002112200019N9999999N1+01201-01401102711ADDMA1102341999999MD1310191+9999MW1001REMMET089KN60 151452Z AUTO 02004KT M12/M14 A3022 RMK AO2 SLP271 T11221144 53019 PWINO FZRANO TSNO;EQDQ01+000000PRSWM2
0155727677999992002111514524+47650-101430FM-15+0587KN60 V0200201N002112200019N9999999N1+01201-01401102711ADDMA1102341999999MD1310191+9999MW1001REMMET089KN60 151452Z AUTO 02004KT M12/M14 A3022 RMK AO2 SLP271 T11221144 53019 PWINO FZRANO TSNO;EQDQ01+000000PRSWM2
0155727677999992002111514524+47650-101430FM-15+0587KN60 V0200201N002112200019N9999999N1+01201-01401102711ADDMA1102341999999MD1310191+9999MW1001REMMET089KN60 151452Z AUTO 02004KT M12/M14 A3022 RMK AO2 SLP271 T11221144 53019 PWINO FZRANO TSNO;EQDQ01+000000PRSWM2
0155727677999992002111514524+47650-101430FM-15+0587KN60 V0200201N002112200019N9999999N1+01201-01401102711ADDMA1102341999999MD1310191+9999MW1001REMMET089KN60 151452Z AUTO 02004KT M12/M14 A3022 RMK AO2 SLP271 T11221144 53019 PWINO FZRANO TSNO;EQDQ01+000000PRSWM2
0155727677999992002111514524+47650-101430FM-15+0587KN60 V0200201N002112200019N9999999N1+01201-01401102711ADDMA1102341999999MD1310191+9999MW1001REMMET089KN60 151452Z AUTO 02004KT M12/M14 A3022 RMK AO2 SLP271 T11221144 53019 PWINO FZRANO TSNO;EQDQ01+000000PRSWM2
0155727677999992002111514524+47650-101430FM-15+0587KN60 V0200201N002112200019N9999999N1+01201-01401102711ADDMA1102341999999MD1310191+9999MW1001REMMET089KN60 151452Z AUTO 02004KT M12/M14 A3022 RMK AO2 SLP271 T11221144 53019 PWINO FZRANO TSNO;EQDQ01+000000PRSWM2
0155727677999992002111514524+47650-101430FM-15+0587KN60 V0200201N002112200019N9999999N1+01201-01401102711ADDMA1102341999999MD1310191+9999MW1001REMMET089KN60 151452Z AUTO 02004KT M12/M14 A3022 RMK AO2 SLP271 T11221144 53019 PWINO FZRANO TSNO;EQDQ01+000000PRSWM2
0155727677999992002111514524+47650-101430FM-15+0587KN60 V0200201N002112200019N9999999N1+01201-01401102711ADDMA1102341999999MD1310191+9999MW1001REMMET089KN60 151452Z AUTO 02004KT M12/M14 A3022 RMK AO2 SLP271 T11221144 53019 PWINO FZRANO TSNO;EQDQ01+000000PRSWM2
0155727677999992002111514524+47650-101430FM-15+0587KN60 V0200201N002112200019N9999999N1+01201-01401102711ADDMA1102341999999MD1310191+9999MW1001REMMET089KN60 151452Z AUTO 02004KT M12/M14 A3022 RMK AO2 SLP271 T11221144 53019 PWINO FZRANO TSNO;EQDQ01+000000PRSWM2
0155727677999992002111514524+47650-101430FM-15+0587KN60 V0200201N002112200019N9999999N1+01201-01401102711ADDMA1102341999999MD1310191+9999MW1001REMMET089KN60 151452Z AUTO 02004KT M12/M14 A3022 RMK AO2 SLP271 T11221144 53019 PWINO FZRANO TSNO;EQDQ01+000000PRSWM2
0155727677999992002111514524+47650-101430FM-15+0587KN60 V0200201N002112200019N9999999N1+01201-01401102711ADDMA1102341999999MD1310191+9999MW1001REMMET089KN60 151452Z AUTO 02004KT M12/M14 A3022 RMK AO2 SLP271 T11221144 53019 PWINO FZRANO TSNO;EQDQ01+000000PRSWM2
0155727677999992002111514524+47650-101430FM-15+0587KN60 V0200201N002112200019N9999999N1+01201-01401102711ADDMA1102341999999MD1310191+9999MW1001REMMET089KN60 151452Z AUTO 02004KT M12/M14 A3022 RMK AO2 SLP271 T11221144 53019 PWINO FZRANO TSNO;EQDQ01+000000PRSWM2
0155727677999992002111514524+47650-101430FM-15+0587KN60 V0200201N002112200019N9999999N1+01201-01401102711ADDMA1102341999999MD1310191+9999MW1001REMMET089KN60 151452Z AUTO 02004KT M12/M14 A3022 RMK AO2 SLP271 T11221144 53019 PWINO FZRANO TSNO;EQDQ01+000000PRSWM2
0155727677999992002111514524+47650-101430FM-15+0587KN60 V0200201N002112200019N9999999N1+01201-01401102711ADDMA1102341999999MD1310191+9999MW1001REMMET089KN60 151452Z AUTO 02004KT M12/M14 A3022 RMK AO2 SLP271 T11221144 53019 PWINO FZRANO TSNO;EQDQ01+000000PRSWM2
0155727677999992002111514524+47650-101430FM-15+0587KN60 V0200201N002112200019N9999999N1+01201-01401102711ADDMA1102341999999MD1310191+9999MW1001REMMET089KN60 151452Z AUTO 02004KT M12/M14 A3022 RMK AO2 SLP271 T11221144 53019 PWINO FZRANO TSNO;EQDQ01+000000PRSWM2
0155727677999992002111514524+47650-101430FM-15+0587KN60 V0200201N002112200019N9999999N1+01201-01401102711ADDMA1102341999999MD1310191+9999MW1001REMMET089KN60 151452Z AUTO 02004KT M12/M14 A3022 RMK AO2 SLP271 T11221144 53019 PWINO FZRANO TSNO;EQDQ01+000000PRSWM2
0155727677999992002111514524+47650-101430FM-15+0587KN60 V0200201N002112200019N9999999N1+01201-01401102711ADDMA1102341999999MD1310191+9999MW1001REMMET089KN60 151452Z AUTO 02004KT M12/M14 A3022 RMK AO2 SLP271 T11221144 53019 PWINO FZRANO TSNO;EQDQ01+000000PRSWM2
0155727677999992002111514524+47650-101430FM-15+0587KN60 V0200201N002112200019N9999999N1+01201-01401102711ADDMA1102341999999MD1310191+9999MW1001REMMET089KN60 151452Z AUTO 02004KT M12/M14 A3022 RMK AO2 SLP271 T11221144 53019 PWINO FZRANO TSNO;EQDQ01+000000PRSWM2
0155727677999992002111514524+47650-101430FM-15+0587KN60 V0200201N002112200019N9999999N1+01201-01401102711ADDMA1102341999999MD1310191+9999MW1001REMMET089KN60 151452Z AUTO 02004KT M12/M14 A3022 RMK AO2 SLP271 T11221144 53019 PWINO FZRANO TSNO;EQDQ01+000000PRSWM2
0155727677999992002111514524+47650-101430FM-15+0587KN60 V0200201N002112200019N9999999N1+01201-01401102711ADDMA1102341999999MD1310191+9999MW1001REMMET089KN60 151452Z AUTO 02004KT M12/M14 A3022 RMK AO2 SLP271 T11221144 53019 PWINO FZRANO TSNO;EQDQ01+000000PRSWM2
0155727677999992002111514524+47650-101430FM-15+0587KN60 V0200201N002112200019N9999999N1+01201-01401102711ADDMA1102341999999MD1310191+9999MW1001REMMET089KN60 151452Z AUTO 02004KT M12/M14 A3022 RMK AO2 SLP271 T11221144 53019 PWINO FZRANO TSNO;EQDQ01+000000PRSWM2
0155727677999992002111514524+47650-101430FM-15+0587KN60 V0200201N002112200019N9999999N1+01201-01401102711ADDMA1102341999999MD1310191+9999MW1001REMMET089KN60 151452Z AUTO 02004KT M12/M14 A3022 RMK AO2 SLP271 T11221144 53019 PWINO FZRANO TSNO;EQDQ01+000000PRSWM2
0155727677999992002111514524+47650-101430FM-15+0587KN60 V0200201N002112200019N9999999N1+01201-01401102711ADDMA1102341999999MD1310191+9999MW1001REMMET089KN60 151452Z AUTO 02004KT M12/M14 A3022 RMK AO2 SLP271 T11221144 53019 PWINO FZRANO TSNO;EQDQ01+000000PRSWM2
0155727677999992002111514524+47650-101430FM-15+0587KN60 V0200201N002112200019N9999999N1+01201-01401102711ADDMA1102341999999MD1310191+9999MW1001REMMET089KN60 151452Z AUTO 02004KT M12/M14 A3022 RMK AO2 SLP271 T11221144 53019 PWINO FZRANO TSNO;EQDQ01+000000PRSWM2
0155727677999992002111514524+47650-101430FM-15+0587KN60 V0200201N002112200019N9999999N1+01201-01401102711ADDMA1102341999999MD1310191+9999MW1001REMMET089KN60 151452Z AUTO 02004KT M12/M14 A3022 RMK AO2 SLP271 T11221144 53019 PWINO FZRANO TSNO;EQDQ01+000000PRSWM2
0155727677999992002111514524+47650-101430FM-15+0587KN60 V0200201N002112200019N9999999N1+01201-01401102711ADDMA1102341999999MD1310191+9999MW1001REMMET089KN60 151452Z AUTO 02004KT M12/M14 A3022 RMK AO2 SLP271 T11221144 53019 PWINO FZRANO TSNO;EQDQ01+000000PRSWM2
0155727677999992002111514524+47650-101430FM-15+0587KN60 V0200201N002112200019N9999999N1+01201-01401102711ADDMA1102341999999MD1310191+9999MW1001REMMET089KN60 151452Z AUTO 02004KT M12/M14 A3022 RMK AO2 SLP271 T11221144 53019 PWINO FZRANO TSNO;EQDQ01+000000PRSWM2
0155727677999992002111514524+47650-101430FM-15+0587KN60 V0200201N002112200019N9999999N1+01201-01401102711ADDMA1102341999999MD1310191+9999MW1001REMMET089KN60 151452Z AUTO 02004KT M12/M14 A3022 RMK AO2 SLP271 T11221144 53019 PWINO FZRANO TSNO;EQDQ01+000000PRSWM2
0155727677999992002111514524+47650-101430FM-15+0587KN60 V0200201N002112200019N9999999N1+01201-01401102711ADDMA1102341999999MD1310191+9999MW1001REMMET089KN60 151452Z AUTO 02004KT M12/M14 A3022 RMK AO2 SLP271 T11221144 53019 PWINO FZRANO TSNO;EQDQ01+000000PRSWM2
0155727677999992002111514524+47650-101430FM-15+0587KN60 V0200201N002112200019N9999999N1+01201-01401102711ADDMA1102341999999MD1310191+9999MW1001REMMET089KN60 151452Z AUTO 02004KT M12/M14 A3022 RMK AO2 SLP271 T11221144 53019 PWINO FZRANO TSNO;EQDQ01+000000PRSWM2
0155727677999992002111514524+47650-101430FM-15+0587KN60 V0200201N002112200019N9999999N1+01201-01401102711ADDMA1102341999999MD1310191+9999MW1001REMMET089KN60 151452Z AUTO 02004KT M12/M14 A3022 RMK AO2 SLP271 T11221144 53019 PWINO FZRANO TSNO;EQDQ01+000000PRSWM2
0155727677999992002111514524+47650-101430FM-15+0587KN60 V0200201N002112200019N9999999N1+01201-01401102711ADDMA1102341999999MD1310191+9999MW1001REMMET089KN60 151452Z AUTO 02004KT M12/M14 A3022 RMK AO2 SLP271 T11221144 53019 PWINO FZRANO TSNO;EQDQ01+000000PRSWM2
0155727677999992002111514524+47650-101430FM-15+0587KN60 V0200201N002112200019N9999999N1+01201-01401102711ADDMA1102341999999MD1310191+9999MW1001REMMET089KN60 151452Z AUTO 02004KT M12/M14 A3022 RMK AO2 SLP271 T11221144 53019 PWINO FZRANO TSNO;EQDQ01+000000PRSWM2
0155727677999992002111514524+47650-101430FM-15+0587KN60 V0200201N002112200019N9999999N1+01201-01401102711ADDMA1102341999999MD1310191+9999MW1001REMMET089KN60 151452Z AUTO 02004KT M12/M14 A3022 RMK AO2 SLP271 T11221144 53019 PWINO FZRANO TSNO;EQDQ01+000000PRSWM2
0155727677999992002111514524+47650-101430FM-15+0587KN60 V0200201N002112200019N9999999N1+01201-01401102711ADDMA1102341999999MD1310191+9999MW1001REMMET089KN60 151452Z AUTO 02004KT M12/M14 A3022 RMK AO2 SLP271 T11221144 53019 PWINO FZRANO TSNO;EQDQ01+000000PRSWM2
0155727677999992002111514524+47650-101430FM-15+0587KN60 V0200201N002112200019N9999999N1+01201-01401102711ADDMA1102341999999MD1310191+9999MW1001REMMET089KN60 151452Z AUTO 02004KT M12/M14 A3022 RMK AO2 SLP271 T11221144 53019 PWINO FZRANO TSNO;EQDQ01+000000PRSWM2
0155727677999992002111514524+47650-101430FM-15+0587KN60 V0200201N002112200019N9999999N1+01201-01401102711ADDMA1102341999999MD1310191+9999MW1001REMMET089KN60 151452Z AUTO 02004KT M12/M14 A3022 RMK AO2 SLP271 T11221144 53019 PWINO FZRANO TSNO;EQDQ01+000000PRSWM2
0155727677999992002111514524+47650-101430FM-15+0587KN60 V0200201N002112200019N9999999N1+01201-01401102711ADDMA1102341999999MD1310191+9999MW1001REMMET089KN60 151452Z AUTO 02004KT M12/M14 A3022 RMK AO2 SLP271 T11221144 53019 PWINO FZRANO TSNO;EQDQ01+000000PRSWM2
0155727677999992002111514524+47650-101430FM-15+0587KN60 V0200201N002112200019N9999999N1+01201-01401102711ADDMA1102341999999MD1310191+9999MW1001REMMET089KN60 151452Z AUTO 02004KT M12/M14 A3022 RMK AO2 SLP271 T11221144 53019 PWINO FZRANO TSNO;EQDQ01+000000PRSWM2
0155727677999992002111514524+47650-101430FM-15+0587KN60 V0200201N002112200019N9999999N1+01201-01401102711ADDMA1102341999999MD1310191+9999MW1001REMMET089KN60 151452Z AUTO 02004KT M12/M14 A3022 RMK AO2 SLP271 T11221144 53019 PWINO FZRANO TSNO;EQDQ01+000000PRSWM2
0155727677999992002111514524+47650-101430FM-15+0587KN60 V0200201N002112200019N9999999N1+01201-01401102711ADDMA1102341999999MD1310191+9999MW1001REMMET089KN60 151452Z AUTO 02004KT M12/M14 A3022 RMK AO2 SLP271 T11221144 53019 PWINO FZRANO TSNO;EQDQ01+000000PRSWM2
0155727677999992002111514524+47650-101430FM-15+0587KN60 V0200201N002112200019N9999999N1+01201-01401102711ADDMA1102341999999MD1310191+9999MW1001REMMET089KN60 151452Z AUTO 02004KT M12/M14 A3022 RMK AO2 SLP271 T11221144 53019 PWINO FZRANO TSNO;EQDQ01+000000PRSWM2
0155727677999992002111514524+47650-101430FM-15+0587KN60 V0200201N002112200019N9999999N1+01201-01401102711ADDMA1102341999999MD1310191+9999MW1001REMMET089KN60 151452Z AUTO 02004KT M12/M14 A3022 RMK AO2 SLP271 T11221144 53019 PWINO FZRANO TSNO;EQDQ01+000000PRSWM2
0155727677999992002111514524+47650-101430FM-15+0587KN60 V0200201N002112200019N9999999N1+01201-01401102711ADDMA1102341999999MD1310191+9999MW1001REMMET089KN60 151452Z AUTO 02004KT M12/M14 A3022 RMK AO2 SLP271 T11221144 53019 PWINO FZRANO TSNO;EQDQ01+000000PRSWM2
0155727677999992002111514524+47650-101430FM-15+0587KN60 V0200201N002112200019N9999999N1+01201-01401102711ADDMA1102341999999MD1310191+9999MW1001REMMET089KN60 151452Z AUTO 02004KT M12/M14 A3022 RMK AO2 SLP271 T11221144 53019 PWINO FZRANO TSNO;EQDQ01+000000PRSWM2
0155727677999992002111514524+47650-101430FM-15+0587KN60 V0200201N002112200019N9999999N1+01201-01401102711ADDMA1102341999999MD1310191+9999MW1001REMMET089KN60 151452Z AUTO 02004KT M12/M14 A3022 RMK AO2 SLP271 T11221144 53019 PWINO FZRANO TSNO;EQDQ01+000000PRSWM2
0155727677999992002111514524+47650-101430FM-15+0587KN60 V0200201N002112200019N9999999N1+01201-01401102711ADDMA1102341999999MD1310191+9999MW1001REMMET089KN60 151452Z AUTO 02004KT M12/M14 A3022 RMK AO2 SLP271 T11221144 53019 PWINO FZRANO TSNO;EQDQ01+000000PRSWM2
0155727677999992002111514524+47650-101430FM-15+0587KN60 V0200201N002112200019N9999999N1+01201-01401102711ADDMA1102341999999MD1310191+9999MW1001REMMET089KN60 151452Z AUTO 02004KT M12/M14 A3022 RMK AO2 SLP271 T11221144 53019 PWINO FZRANO TSNO;EQDQ01+000000PRSWM2
0155727677999992002111514524+47650-101430FM-15+0587KN60 V0200201N002112200019N9999999N1+01201-01401102711ADDMA1102341999999MD1310191+9999MW1001REMMET089KN60 151452Z AUTO 02004KT M12/M14 A3022 RMK AO2 SLP271 T11221144 53019 PWINO FZRANO TSNO;EQDQ01+000000PRSWM2
0155727677999992002111514524+47650-101430FM-15+0587KN60 V0200201N002112200019N9999999N1+01201-01401102711ADDMA1102341999999MD1310191+9999MW1001REMMET089KN60 151452Z AUTO 02004KT M12/M14 A3022 RMK AO2 SLP271 T11221144 53019 PWINO FZRANO TSNO;EQDQ01+000000PRSWM2
0155727677999992002111514524+47650-101430FM-15+0587KN60 V0200201N002112200019N9999999N1+01201-01401102711ADDMA1102341999999MD1310191+9999MW1001REMMET089KN60 151452Z AUTO 02004KT M12/M14 A3022 RMK AO2 SLP271 T11221144 53019 PWINO FZRANO TSNO;EQDQ01+000000PRSWM2
0155727677999992002111514524+47650-101430FM-15+0587KN60 V0200201N002112200019N9999999N1+01201-01401102711ADDMA1102341999999MD1310191+9999MW1001REMMET089KN60 151452Z AUTO 02004KT M12/M14 A3022 RMK AO2 SLP271 T11221144 53019 PWINO FZRANO TSNO;EQDQ01+000000PRSWM2
0155727677999992002111514524+47650-101430FM-15+0587KN60 V0200201N002112200019N9999999N1+01201-01401102711ADDMA1102341999999MD1310191+9999MW1001REMMET089KN60 151452Z AUTO 02004KT M12/M14 A3022 RMK AO2 SLP271 T11221144 53019 PWINO FZRANO TSNO;EQDQ01+000000PRSWM2
0155727677999992002111514524+47650-101430FM-15+0587KN60 V0200201N002112200019N9999999N1+01201-01401102711ADDMA1102341999999MD1310191+9999MW1001REMMET089KN60 151452Z AUTO 02004KT M12/M14 A3022 RMK AO2 SLP271 T11221144 53019 PWINO FZRANO TSNO;EQDQ01+000000PRSWM2
0155727677999992002111514524+47650-101430FM-15+0587KN60 V0200201N002112200019N9999999N1+01201-01401102711ADDMA1102341999999MD1310191+9999MW1001REMMET089KN60 151452Z AUTO 02004KT M12/M14 A3022 RMK AO2 SLP271 T11221144 53019 PWINO FZRANO TSNO;EQDQ01+000000PRSWM2
0155727677999992002111514524+47650-101430FM-15+0587KN60 V0200201N002112200019N9999999N1+01201-01401102711ADDMA1102341999999MD1310191+9999MW1001REMMET089KN60 151452Z AUTO 02004KT M12/M14 A3022 RMK AO2 SLP271 T11221144 53019 PWINO FZRANO TSNO;EQDQ01+000000PRSWM2
0155727677999992002111514524+47650-101430FM-15+0587KN60 V0200201N002112200019N9999999N1+01201-01401102711ADDMA1102341999999MD1310191+9999MW1001REMMET089KN60 151452Z AUTO 02004KT M12/M14 A3022 RMK AO2 SLP271 T11221144 53019 PWINO FZRANO TSNO;EQDQ01+000000PRSWM2
0155727677999992002111514524+47650-101430FM-15+0587KN60 V0200201N002112200019N9999999N1+01201-01401102711ADDMA1102341999999MD1310191+9999MW1001REMMET089KN60 151452Z AUTO 02004KT M12/M14 A3022 RMK AO2 SLP271 T11221144 53019 PWINO FZRANO TSNO;EQDQ01+000000PRSWM2
0155727677999992002111514524+47650-101430FM-15+0587KN60 V0200201N002112200019N9999999N1+01201-01401102711ADDMA1102341999999MD1310191+9999MW1001REMMET089KN60 151452Z AUTO 02004KT M12/M14 A3022 RMK AO2 SLP271 T11221144 53019 PWINO FZRANO TSNO;EQDQ01+000000PRSWM2
0155727677999992002111514524+47650-101430FM-15+0587KN60 V0200201N002112200019N9999999N1+01201-01401102711ADDMA1102341999999MD1310191+9999MW1001REMMET089KN60 151452Z AUTO 02004KT M12/M14 A3022 RMK AO2 SLP271 T11221144 53019 PWINO FZRANO TSNO;EQDQ01+000000PRSWM2
0155727677999992002111514524+47650-101430FM-15+0587KN60 V0200201N002112200019N9999999N1+01201-01401102711ADDMA1102341999999MD1310191+9999MW1001REMMET089KN60 151452Z AUTO 02004KT M12/M14 A3022 RMK AO2 SLP271 T11221144 53019 PWINO FZRANO TSNO;EQDQ01+000000PRSWM2
0155727677999992002111514524+47650-101430FM-15+0587KN60 V0200201N002112200019N9999999N1+01201-01401102711ADDMA1102341999999MD1310191+9999MW1001REMMET089KN60 151452Z AUTO 02004KT M12/M14 A3022 RMK AO2 SLP271 T11221144 53019 PWINO FZRANO TSNO;EQDQ01+000000PRSWM2
0155727677999992002111514524+47650-101430FM-15+0587KN60 V0200201N002112200019N9999999N1+01201-01401102711ADDMA1102341999999MD1310191+9999MW1001REMMET089KN60 151452Z AUTO 02004KT M12/M14 A3022 RMK AO2 SLP271 T11221144 53019 PWINO FZRANO TSNO;EQDQ01+000000PRSWM2
0155727677999992002111514524+47650-101430FM-15+0587KN60 V0200201N002112200019N9999999N1+01201-01401102711ADDMA1102341999999MD1310191+9999MW1001REMMET089KN60 151452Z AUTO 02004KT M12/M14 A3022 RMK AO2 SLP271 T11221144 53019 PWINO FZRANO TSNO;EQDQ01+000000PRSWM2
0155727677999992002111514524+47650-101430FM-15+0587KN60 V0200201N002112200019N9999999N1+01201-01401102711ADDMA1102341999999MD1310191+9999MW1001REMMET089KN60 151452Z AUTO 02004KT M12/M14 A3022 RMK AO2 SLP271 T11221144 53019 PWINO FZRANO TSNO;EQDQ01+000000PRSWM2
0155727677999992002111514524+47650-101430FM-15+0587KN60 V0200201N002112200019N9999999N1+01201-01401102711ADDMA1102341999999MD1310191+9999MW1001REMMET089KN60 151452Z AUTO 02004KT M12/M14 A3022 RMK AO2 SLP271 T11221144 53019 PWINO FZRANO TSNO;EQDQ01+000000PRSWM2
0155727677999992002111514524+47650-101430FM-15+0587KN60 V0200201N002112200019N9999999N1+01201-01401102711ADDMA1102341999999MD1310191+9999MW1001REMMET089KN60 151452Z AUTO 02004KT M12/M14 A3022 RMK AO2 SLP271 T11221144 53019 PWINO FZRANO TSNO;EQDQ01+000000PRSWM2
0155727677999992002111514524+47650-101430FM-15+0587KN60 V0200201N002112200019N9999999N1+01201-01401102711ADDMA1102341999999MD1310191+9999MW1001REMMET089KN60 151452Z AUTO 02004KT M12/M14 A3022 RMK AO2 SLP271 T11221144 53019 PWINO FZRANO TSNO;EQDQ01+000000PRSWM2
0155727677999992002111514524+47650-101430FM-15+0587KN60 V0200201N002112200019N9999999N1+01201-01401102711ADDMA1102341999999MD1310191+9999MW1001REMMET089KN60 151452Z AUTO 02004KT M12/M14 A3022 RMK AO2 SLP271 T11221144 53019 PWINO FZRANO TSNO;EQDQ01+000000PRSWM2
0155727677999992002111514524+47650-101430FM-15+0587KN60 V0200201N002112200019N9999999N1+01201-01401102711ADDMA1102341999999MD1310191+9999MW1001REMMET089KN60 151452Z AUTO 02004KT M12/M14 A3022 RMK AO2 SLP271 T11221144 53019 PWINO FZRANO TSNO;EQDQ01+000000PRSWM2
0155727677999992002111514524+47650-101430FM-15+0587KN60 V0200201N002112200019N9999999N1+01201-01401102711ADDMA1102341999999MD1310191+9999MW1001REMMET089KN60 151452Z AUTO 02004KT M12/M14 A3022 RMK AO2 SLP271 T11221144 53019 PWINO FZRANO TSNO;EQDQ01+000000PRSWM2
0155727677999992002111514524+47650-101430FM-15+0587KN60 V0200201N002112200019N9999999N1+01201-01401102711ADDMA1102341999999MD1310191+9999MW1001REMMET089KN60 151452Z AUTO 02004KT M12/M14 A3022 RMK AO2 SLP271 T11221144 53019 PWINO FZRANO TSNO;EQDQ01+000000PRSWM2
0155727677999992002111514524+47650-101430FM-15+0587KN60 V0200201N002112200019N9999999N1+01201-01401102711ADDMA1102341999999MD1310191+9999MW1001REMMET089KN60 151452Z AUTO 02004KT M12/M14 A3022 RMK AO2 SLP271 T11221144 53019 PWINO FZRANO TSNO;EQDQ01+000000PRSWM2
0155727677999992002111514524+47650-101430FM-15+0587KN60 V0200201N002112200019N9999999N1+01201-01401102711ADDMA1102341999999MD1310191+9999MW1001REMMET089KN60 151452Z AUTO 02004KT M12/M14 A3022 RMK AO2 SLP271 T11221144 53019 PWINO FZRANO TSNO;EQDQ01+000000PRSWM2
0155727677999992002111514524+47650-101430FM-15+0587KN60 V0200201N002112200019N9999999N1+01201-01401102711ADDMA1102341999999MD1310191+9999MW1001REMMET089KN60 151452Z AUTO 02004KT M12/M14 A3022 RMK AO2 SLP271 T11221144 53019 PWINO FZRANO TSNO;EQDQ01+000000PRSWM2
0155727677999992002111514524+47650-101430FM-15+0587KN60 V0200201N002112200019N9999999N1+01201-01401102711ADDMA1102341999999MD1310191+9999MW1001REMMET089KN60 151452Z AUTO 02004KT M12/M14 A3022 RMK AO2 SLP271 T11221144 53019 PWINO FZRANO TSNO;EQDQ01+000000PRSWM2
0155727677999992002111514524+47650-101430FM-15+0587KN60 V0200201N002112200019N9999999N1+01201-01401102711ADDMA1102341999999MD1310191+9999MW1001REMMET089KN60 151452Z AUTO 02004KT M12/M14 A3022 RMK AO2 SLP271 T11221144 53019 PWINO FZRANO TSNO;EQDQ01+000000PRSWM2
0155727677999992002111514524+47650-101430FM-15+0587KN60 V0200201N002112200019N9999999N1+01201-01401102711ADDMA1102341999999MD1310191+9999MW1001REMMET089KN60 151452Z AUTO 02004KT M12/M14 A3022 RMK AO2 SLP271 T11221144 53019 PWINO FZRANO TSNO;EQDQ01+000000PRSWM2
0155727677999992002111514524+47650-101430FM-15+0587KN60 V0200201N002112200019N9999999N1+01201-01401102711ADDMA1102341999999MD1310191+9999MW1001REMMET089KN60 151452Z AUTO 02004KT M12/M14 A3022 RMK AO2 SLP271 T11221144 53019 PWINO FZRANO TSNO;EQDQ01+000000PRSWM2
0155727677999992002111514524+47650-101430FM-15+0587KN60 V0200201N002112200019N9999999N1+01201-01401102711ADDMA1102341999999MD1310191+9999MW1001REMMET089KN60 151452Z AUTO 02004KT M12/M14 A3022 RMK AO2 SLP271 T11221144 53019 PWINO FZRANO TSNO;EQDQ01+000000PRSWM2
0155727677999992002111514524+47650-101430FM-15+0587KN60 V0200201N002112200019N9999999N1+01201-01401102711ADDMA1102341999999MD1310191+9999MW1001REMMET089KN60 151452Z AUTO 02004KT M12/M14 A3022 RMK AO2 SLP271 T11221144 53019 PWINO FZRANO TSNO;EQDQ01+000000PRSWM2
0155727677999992002111514524+47650-101430FM-15+0587KN60 V0200201N002112200019N9999999N1+01201-01401102711ADDMA1102341999999MD1310191+9999MW1001REMMET089KN60 151452Z AUTO 02004KT M12/M14 A3022 RMK AO2 SLP271 T11221144 53019 PWINO FZRANO TSNO;EQDQ01+000000PRSWM2
0155727677999992002111514524+47650-101430FM-15+0587KN60 V0200201N002112200019N9999999N1+01201-01401102711ADDMA1102341999999MD1310191+9999MW1001REMMET089KN60 151452Z AUTO 02004KT M12/M14 A3022 RMK AO2 SLP271 T11221144 53019 PWINO FZRANO TSNO;EQDQ01+000000PRSWM2
0155727677999992002111514524+47650-101430FM-15+0587KN60 V0200201N002112200019N9999999N1+01201-01401102711ADDMA1102341999999MD1310191+9999MW1001REMMET089KN60 151452Z AUTO 02004KT M12/M14 A3022 RMK AO2 SLP271 T11221144 53019 PWINO FZRANO TSNO;EQDQ01+000000PRSWM2
0155727677999992002111514524+47650-101430FM-15+0587KN60 V0200201N002112200019N9999999N1+01201-01401102711ADDMA1102341999999MD1310191+9999MW1001REMMET089KN60 151452Z AUTO 02004KT M12/M14 A3022 RMK AO2 SLP271 T11221144 53019 PWINO FZRANO TSNO;EQDQ01+000000PRSWM2
0155727677999992002111514524+47650-101430FM-15+0587KN60 V0200201N002112200019N9999999N1+01201-01401102711ADDMA1102341999999MD1310191+9999MW1001REMMET089KN60 151452Z AUTO 02004KT M12/M14 A3022 RMK AO2 SLP271 T11221144 53019 PWINO FZRANO TSNO;EQDQ01+000000PRSWM2
0155727677999992002111514524+47650-101430FM-15+0587KN60 V0200201N002112200019N9999999N1+01201-01401102711ADDMA1102341999999MD1310191+9999MW1001REMMET089KN60 151452Z AUTO 02004KT M12/M14 A3022 RMK AO2 SLP271 T11221144 53019 PWINO FZRANO TSNO;EQDQ01+000000PRSWM2
0155727677999992002111514524+47650-101430FM-15+0587KN60 V0200201N002112200019N9999999N1+01201-01401102711ADDMA1102341999999MD1310191+9999MW1001REMMET089KN60 151452Z AUTO 02004KT M12/M14 A3022 RMK AO2 SLP271 T11221144 53019 PWINO FZRANO TSNO;EQDQ01+000000PRSWM2
0155727677999992002111514524+47650-101430FM-15+0587KN60 V0200201N002112200019N9999999N1+01201-01401102711ADDMA1102341999999MD1310191+9999MW1001REMMET089KN60 151452Z AUTO 02004KT M12/M14 A3022 RMK AO2 SLP271 T11221144 53019 PWINO FZRANO TSNO;EQDQ01+000000PRSWM2
0155727677999992002111514524+47650-101430FM-15+0587KN60 V0200201N002112200019N9999999N1+01201-01401102711ADDMA1102341999999MD1310191+9999MW1001REMMET089KN60 151452Z AUTO 02004KT M12/M14 A3022 RMK AO2 SLP271 T11221144 53019 PWINO FZRANO TSNO;EQDQ01+000000PRSWM2
0155727677999992002111514524+47650-101430FM-15+0587KN60 V0200201N002112200019N9999999N1+01201-01401102711ADDMA1102341999999MD1310191+9999MW1001REMMET089KN60 151452Z AUTO 02004KT M12/M14 A3022 RMK AO2 SLP271 T11221144 53019 PWINO FZRANO TSNO;EQDQ01+000000PRSWM2
0155727677999992002111514524+47650-101430FM-15+0587KN60 V0200201N002112200019N9999999N1+01201-01401102711ADDMA1102341999999MD1310191+9999MW1001REMMET089KN60 151452Z AUTO 02004KT M12/M14 A3022 RMK AO2 SLP271 T11221144 53019 PWINO FZRANO TSNO;EQDQ01+000000PRSWM2
0155727677999992002111514524+47650-101430FM-15+0587KN60 V0200201N002112200019N9999999N1+01201-01401102711ADDMA1102341999999MD1310191+9999MW1001REMMET089KN60 151452Z AUTO 02004KT M12/M14 A3022 RMK AO2 SLP271 T11221144 53019 PWINO FZRANO TSNO;EQDQ01+000000PRSWM2
0155727677999992002111514524+47650-101430FM-15+0587KN60 V0200201N002112200019N9999999N1+01201-01401102711ADDMA1102341999999MD1310191+9999MW1001REMMET089KN60 151452Z AUTO 02004KT M12/M14 A3022 RMK AO2 SLP271 T11221144 53019 PWINO FZRANO TSNO;EQDQ01+000000PRSWM2
0155727677999992002111514524+47650-101430FM-15+0587KN60 V0200201N002112200019N9999999N1+01201-01401102711ADDMA1102341999999MD1310191+9999MW1001REMMET089KN60 151452Z AUTO 02004KT M12/M14 A3022 RMK AO2 SLP271 T11221144 53019 PWINO FZRANO TSNO;EQDQ01+000000PRSWM2
0155727677999992002111514524+47650-101430FM-15+0587KN60 V0200201N002112200019N9999999N1+01201-01401102711ADDMA1102341999999MD1310191+9999MW1001REMMET089KN60 151452Z AUTO 02004KT M12/M14 A3022 RMK AO2 SLP271 T11221144 53019 PWINO FZRANO TSNO;EQDQ01+000000PRSWM2
0155727677999992002111514524+47650-101430FM-15+0587KN60 V0200201N002112200019N9999999N1+01201-01401102711ADDMA1102341999999MD1310191+9999MW1001REMMET089KN60 151452Z AUTO 02004KT M12/M14 A3022 RMK AO2 SLP271 T11221144 53019 PWINO FZRANO TSNO;EQDQ01+000000PRSWM2
0155727677999992002111514524+47650-101430FM-15+0587KN60 V0200201N002112200019N9999999N1+01201-01401102711ADDMA1102341999999MD1310191+9999MW1001REMMET089KN60 151452Z AUTO 02004KT M12/M14 A3022 RMK AO2 SLP271 T11221144 53019 PWINO FZRANO TSNO;EQDQ01+000000PRSWM2
0155727677999992002111514524+47650-101430FM-15+0587KN60 V0200201N002112200019N9999999N1+01201-01401102711ADDMA1102341999999MD1310191+9999MW1001REMMET089KN60 151452Z AUTO 02004KT M12/M14 A3022 RMK AO2 SLP271 T11221144 53019 PWINO FZRANO TSNO;EQDQ01+000000PRSWM2
0155727677999992002111514524+47650-101430FM-15+0587KN60 V0200201N002112200019N9999999N1+01201-01401102711ADDMA1102341999999MD1310191+9999MW1001REMMET089KN60 151452Z AUTO 02004KT M12/M14 A3022 RMK AO2 SLP271 T11221144 53019 PWINO FZRANO TSNO;EQDQ01+000000PRSWM2
0155727677999992002111514524+47650-101430FM-15+0587KN60 V0200201N002112200019N9999999N1+01201-01401102711ADDMA1102341999999MD1310191+9999MW1001REMMET089KN60 151452Z AUTO 02004KT M12/M14 A3022 RMK AO2 SLP271 T11221144 53019 PWINO FZRANO TSNO;EQDQ01+000000PRSWM2
0155727677999992002111514524+47650-101430FM-15+0587KN60 V0200201N002112200019N9999999N1+01201-01401102711ADDMA1102341999999MD1310191+9999MW1001REMMET089KN60 151452Z AUTO 02004KT M12/M14 A3022 RMK AO2 SLP271 T11221144 53019 PWINO FZRANO TSNO;EQDQ01+000000PRSWM2
0155727677999992002111514524+47650-101430FM-15+0587KN60 V0200201N002112200019N9999999N1+01201-01401102711ADDMA1102341999999MD1310191+9999MW1001REMMET089KN60 151452Z AUTO 02004KT M12/M14 A3022 RMK AO2 SLP271 T11221144 53019 PWINO FZRANO TSNO;EQDQ01+000000PRSWM2
0155727677999992002111514524+47650-101430FM-15+0587KN60 V0200201N002112200019N9999999N1+01201-01401102711ADDMA1102341999999MD1310191+9999MW1001REMMET089KN60 151452Z AUTO 02004KT M12/M14 A3022 RMK AO2 SLP271 T11221144 53019 PWINO FZRANO TSNO;EQDQ01+000000PRSWM2
0155727677999992002111514524+47650-101430FM-15+0587KN60 V0200201N002112200019N9999999N1+01201-01401102711ADDMA1102341999999MD1310191+9999MW1001REMMET089KN60 151452Z AUTO 02004KT M12/M14 A3022 RMK AO2 SLP271 T11221144 53019 PWINO FZRANO TSNO;EQDQ01+000000PRSWM2
0155727677999992002111514524+47650-101430FM-15+0587KN60 V0200201N002112200019N9999999N1+01201-01401102711ADDMA1102341999999MD1310191+9999MW1001REMMET089KN60 151452Z AUTO 02004KT M12/M14 A3022 RMK AO2 SLP271 T11221144 53019 PWINO FZRANO TSNO;EQDQ01+000000PRSWM2
0155727677999992002111514524+47650-101430FM-15+0587KN60 V0200201N002112200019N9999999N1+01201-01401102711ADDMA1102341999999MD1310191+9999MW1001REMMET089KN60 151452Z AUTO 02004KT M12/M14 A3022 RMK AO2 SLP271 T11221144 53019 PWINO FZRANO TSNO;EQDQ01+000000PRSWM2
0155727677999992002111514524+47650-101430FM-15+0587KN60 V0200201N002112200019N9999999N1+01201-01401102711ADDMA1102341999999MD1310191+9999MW1001REMMET089KN60 151452Z AUTO 02004KT M12/M14 A3022 RMK AO2 SLP271 T11221144 53019 PWINO FZRANO TSNO;EQDQ01+000000PRSWM2
0155727677999992002111514524+47650-101430FM-15+0587KN60 V0200201N002112200019N9999999N1+01201-01401102711ADDMA1102341999999MD1310191+9999MW1001REMMET089KN60 151452Z AUTO 02004KT M12/M14 A3022 RMK AO2 SLP271 T11221144 53019 PWINO FZRANO TSNO;EQDQ01+000000PRSWM2
0155727677999992002111514524+47650-101430FM-15+0587KN60 V0200201N002112200019N9999999N1+01201-01401102711ADDMA1102341999999MD1310191+9999MW1001REMMET089KN60 151452Z AUTO 02004KT M12/M14 A3022 RMK AO2 SLP271 T11221144 53019 PWINO FZRANO TSNO;EQDQ01+000000PRSWM2
0155727677999992002111514524+47650-101430FM-15+0587KN60 V0200201N002112200019N9999999N1+01201-01401102711ADDMA1102341999999MD1310191+9999MW1001REMMET089KN60 151452Z AUTO 02004KT M12/M14 A3022 RMK AO2 SLP271 T11221144 53019 PWINO FZRANO TSNO;EQDQ01+000000PRSWM2
0155727677999992002111514524+47650-101430FM-15+0587KN60 V0200201N002112200019N9999999N1+01201-01401102711ADDMA1102341999999MD1310191+9999MW1001REMMET089KN60 151452Z AUTO 02004KT M12/M14 A3022 RMK AO2 SLP271 T11221144 53019 PWINO FZRANO TSNO;EQDQ01+000000PRSWM2
0155727677999992002111514524+47650-101430FM-15+0587KN60 V0200201N002112200019N9999999N1+01201-01401102711ADDMA1102341999999MD1310191+9999MW1001REMMET089KN60 151452Z AUTO 02004KT M12/M14 A3022 RMK AO2 SLP271 T11221144 53019 PWINO FZRANO TSNO;EQDQ01+000000PRSWM2
0155727677999992002111514524+47650-101430FM-15+0587KN60 V0200201N002112200019N9999999N1+01201-01401102711ADDMA1102341999999MD1310191+9999MW1001REMMET089KN60 151452Z AUTO 02004KT M12/M14 A3022 RMK AO2 SLP271 T11221144 53019 PWINO FZRANO TSNO;EQDQ01+000000PRSWM2
0155727677999992002111514524+47650-101430FM-15+0587KN60 V0200201N002112200019N9999999N1+01201-01401102711ADDMA1102341999999MD1310191+9999MW1001REMMET089KN60 151452Z AUTO 02004KT M12/M14 A3022 RMK AO2 SLP271 T11221144 53019 PWINO FZRANO TSNO;EQDQ01+000000PRSWM2
0155727677999992002111514524+47650-101430FM-15+0587KN60 V0200201N002112200019N9999999N1+01201-01401102711ADDMA1102341999999MD1310191+9999MW1001REMMET089KN60 151452Z AUTO 02004KT M12/M14 A3022 RMK AO2 SLP271 T11221144 53019 PWINO FZRANO TSNO;EQDQ01+000000PRSWM2
0155727677999992002111514524+47650-101430FM-15+0587KN60 V0200201N002112200019N9999999N1+01201-01401102711ADDMA1102341999999MD1310191+9999MW1001REMMET089KN60 151452Z AUTO 02004KT M12/M14 A3022 RMK AO2 SLP271 T11221144 53019 PWINO FZRANO TSNO;EQDQ01+000000PRSWM2
0155727677999992002111514524+47650-101430FM-15+0587KN60 V0200201N002112200019N9999999N1+01201-01401102711ADDMA1102341999999MD1310191+9999MW1001REMMET089KN60 151452Z AUTO 02004KT M12/M14 A3022 RMK AO2 SLP271 T11221144 53019 PWINO FZRANO TSNO;EQDQ01+000000PRSWM2
0155727677999992002111514524+47650-101430FM-15+0587KN60 V0200201N002112200019N9999999N1+01201-01401102711ADDMA1102341999999MD1310191+9999MW1001REMMET089KN60 151452Z AUTO 02004KT M12/M14 A3022 RMK AO2 SLP271 T11221144 53019 PWINO FZRANO TSNO;EQDQ01+000000PRSWM2
0155727677999992002111514524+47650-101430FM-15+0587KN60 V0200201N002112200019N9999999N1+01201-01401102711ADDMA1102341999999MD1310191+9999MW1001REMMET089KN60 151452Z AUTO 02004KT M12/M14 A3022 RMK AO2 SLP271 T11221144 53019 PWINO FZRANO TSNO;EQDQ01+000000PRSWM2
0155727677999992002111514524+47650-101430FM-15+0587KN60 V0200201N002112200019N9999999N1+01201-01401102711ADDMA1102341999999MD1310191+9999MW1001REMMET089KN60 151452Z AUTO 02004KT M12/M14 A3022 RMK AO2 SLP271 T11221144 53019 PWINO FZRANO TSNO;EQDQ01+000000PRSWM2
0155727677999992002111514524+47650-101430FM-15+0587KN60 V0200201N002112200019N9999999N1+01201-01401102711ADDMA1102341999999MD1310191+9999MW1001REMMET089KN60 151452Z AUTO 02004KT M12/M14 A3022 RMK AO2 SLP271 T11221144 53019 PWINO FZRANO TSNO;EQDQ01+000000PRSWM2
0155727677999992002111514524+47650-101430FM-15+0587KN60 V0200201N002112200019N9999999N1+01201-01401102711ADDMA1102341999999MD1310191+9999MW1001REMMET089KN60 151452Z AUTO 02004KT M12/M14 A3022 RMK AO2 SLP271 T11221144 53019 PWINO FZRANO TSNO;EQDQ01+000000PRSWM2
0155727677999992002111514524+47650-101430FM-15+0587KN60 V0200201N002112200019N9999999N1+01201-01401102711ADDMA1102341999999MD1310191+9999MW1001REMMET089KN60 151452Z AUTO 02004KT M12/M14 A3022 RMK AO2 SLP271 T11221144 53019 PWINO FZRANO TSNO;EQDQ01+000000PRSWM2
0155727677999992002111514524+47650-101430FM-15+0587KN60 V0200201N002112200019N9999999N1+01201-01401102711ADDMA1102341999999MD1310191+9999MW1001REMMET089KN60 151452Z AUTO 02004KT M12/M14 A3022 RMK AO2 SLP271 T11221144 53019 PWINO FZRANO TSNO;EQDQ01+000000PRSWM2
0155727677999992002111514524+47650-101430FM-15+0587KN60 V0200201N002112200019N9999999N1+01201-01401102711ADDMA1102341999999MD1310191+9999MW1001REMMET089KN60 151452Z AUTO 02004KT M12/M14 A3022 RMK AO2 SLP271 T11221144 53019 PWINO FZRANO TSNO;EQDQ01+000000PRSWM2
0155727677999992002111514524+47650-101430FM-15+0587KN60 V0200201N002112200019N9999999N1+01201-01401102711ADDMA1102341999999MD1310191+9999MW1001REMMET089KN60 151452Z AUTO 02004KT M12/M14 A3022 RMK AO2 SLP271 T11221144 53019 PWINO FZRANO TSNO;EQDQ01+000000PRSWM2
0155727677999992002111514524+47650-101430FM-15+0587KN60 V0200201N002112200019N9999999N1+01201-01401102711ADDMA1102341999999MD1310191+9999MW1001REMMET089KN60 151452Z AUTO 02004KT M12/M14 A3022 RMK AO2 SLP271 T11221144 53019 PWINO FZRANO TSNO;EQDQ01+000000PRSWM2
0155727677999992002111514524+47650-101430FM-15+0587KN60 V0200201N002112200019N9999999N1+01201-01401102711ADDMA1102341999999MD1310191+9999MW1001REMMET089KN60 151452Z AUTO 02004KT M12/M14 A3022 RMK AO2 SLP271 T11221144 53019 PWINO FZRANO TSNO;EQDQ01+000000PRSWM2
0155727677999992002111514524+47650-101430FM-15+0587KN60 V0200201N002112200019N9999999N1+01201-01401102711ADDMA1102341999999MD1310191+9999MW1001REMMET089KN60 151452Z AUTO 02004KT M12/M14 A3022 RMK AO2 SLP271 T11221144 53019 PWINO FZRANO TSNO;EQDQ01+000000PRSWM2
0155727677999992002111514524+47650-101430FM-15+0587KN60 V0200201N002112200019N9999999N1+01201-01401102711ADDMA1102341999999MD1310191+9999MW1001REMMET089KN60 151452Z AUTO 02004KT M12/M14 A3022 RMK AO2 SLP271 T11221144 53019 PWINO FZRANO TSNO;EQDQ01+000000PRSWM2
0155727677999992002111514524+47650-101430FM-15+0587KN60 V0200201N002112200019N9999999N1+01201-01401102711ADDMA1102341999999MD1310191+9999MW1001REMMET089KN60 151452Z AUTO 02004KT M12/M14 A3022 RMK AO2 SLP271 T11221144 53019 PWINO FZRANO TSNO;EQDQ01+000000PRSWM2
0155727677999992002111514524+47650-101430FM-15+0587KN60 V0200201N002112200019N9999999N1+01201-01401102711ADDMA1102341999999MD1310191+9999MW1001REMMET089KN60 151452Z AUTO 02004KT M12/M14 A3022 RMK AO2 SLP271 T11221144 53019 PWINO FZRANO TSNO;EQDQ01+000000PRSWM2
0155727677999992002111514524+47650-101430FM-15+0587KN60 V0200201N002112200019N9999999N1+01201-01401102711ADDMA1102341999999MD1310191+9999MW1001REMMET089KN60 151452Z AUTO 02004KT M12/M14 A3022 RMK AO2 SLP271 T11221144 53019 PWINO FZRANO TSNO;EQDQ01+000000PRSWM2
0155727677999992002111514524+47650-101430FM-15+0587KN60 V0200201N002112200019N9999999N1+01201-01401102711ADDMA1102341999999MD1310191+9999MW1001REMMET089KN60 151452Z AUTO 02004KT M12/M14 A3022 RMK AO2 SLP271 T11221144 53019 PWINO FZRANO TSNO;EQDQ01+000000PRSWM2
0155727677999992002111514524+47650-101430FM-15+0587KN60 V0200201N002112200019N9999999N1+01201-01401102711ADDMA1102341999999MD1310191+9999MW1001REMMET089KN60 151452Z AUTO 02004KT M12/M14 A3022 RMK AO2 SLP271 T11221144 53019 PWINO FZRANO TSNO;EQDQ01+000000PRSWM2
0155727677999992002111514524+47650-101430FM-15+0587KN60 V0200201N002112200019N9999999N1+01201-01401102711ADDMA1102341999999MD1310191+9999MW1001REMMET089KN60 151452Z AUTO 02004KT M12/M14 A3022 RMK AO2 SLP271 T11221144 53019 PWINO FZRANO TSNO;EQDQ01+000000PRSWM2
0155727677999992002111514524+47650-101430FM-15+0587KN60 V0200201N002112200019N9999999N1+01201-01401102711ADDMA1102341999999MD1310191+9999MW1001REMMET089KN60 151452Z AUTO 02004KT M12/M14 A3022 RMK AO2 SLP271 T11221144 53019 PWINO FZRANO TSNO;EQDQ01+000000PRSWM2
0155727677999992002111514524+47650-101430FM-15+0587KN60 V0200201N002112200019N9999999N1+01201-01401102711ADDMA1102341999999MD1310191+9999MW1001REMMET089KN60 151452Z AUTO 02004KT M12/M14 A3022 RMK AO2 SLP271 T11221144 53019 PWINO FZRANO TSNO;EQDQ01+000000PRSWM2
0155727677999992002111514524+47650-101430FM-15+0587KN60 V0200201N002112200019N9999999N1+01201-01401102711ADDMA1102341999999MD1310191+9999MW1001REMMET089KN60 151452Z AUTO 02004KT M12/M14 A3022 RMK AO2 SLP271 T11221144 53019 PWINO FZRANO TSNO;EQDQ01+000000PRSWM2
0155727677999992002111514524+47650-101430FM-15+0587KN60 V0200201N002112200019N9999999N1+01201-01401102711ADDMA1102341999999MD1310191+9999MW1001REMMET089KN60 151452Z AUTO 02004KT M12/M14 A3022 RMK AO2 SLP271 T11221144 53019 PWINO FZRANO TSNO;EQDQ01+000000PRSWM2
0155727677999992002111514524+47650-101430FM-15+0587KN60 V0200201N002112200019N9999999N1+01201-01401102711ADDMA1102341999999MD1310191+9999MW1001REMMET089KN60 151452Z AUTO 02004KT M12/M14 A3022 RMK AO2 SLP271 T11221144 53019 PWINO FZRANO TSNO;EQDQ01+000000PRSWM2
0155727677999992002111514524+47650-101430FM-15+0587KN60 V0200201N002112200019N9999999N1+01201-01401102711ADDMA1102341999999MD1310191+9999MW1001REMMET089KN60 151452Z AUTO 02004KT M12/M14 A3022 RMK AO2 SLP271 T11221144 53019 PWINO FZRANO TSNO;EQDQ01+000000PRSWM2
0155727677999992002111514524+47650-101430FM-15+0587KN60 V0200201N002112200019N9999999N1+01201-01401102711ADDMA1102341999999MD1310191+9999MW1001REMMET089KN60 151452Z AUTO 02004KT M12/M14 A3022 RMK AO2 SLP271 T11221144 53019 PWINO FZRANO TSNO;EQDQ01+000000PRSWM2
0155727677999992002111514524+47650-101430FM-15+0587KN60 V0200201N002112200019N9999999N1+01201-01401102711ADDMA1102341999999MD1310191+9999MW1001REMMET089KN60 151452Z AUTO 02004KT M12/M14 A3022 RMK AO2 SLP271 T11221144 53019 PWINO FZRANO TSNO;EQDQ01+000000PRSWM2
0155727677999992002111514524+47650-101430FM-15+0587KN60 V0200201N002112200019N9999999N1+01201-01401102711ADDMA1102341999999MD1310191+9999MW1001REMMET089KN60 151452Z AUTO 02004KT M12/M14 A3022 RMK AO2 SLP271 T11221144 53019 PWINO FZRANO TSNO;EQDQ01+000000PRSWM2
0155727677999992002111514524+47650-101430FM-15+0587KN60 V0200201N002112200019N9999999N1+01201-01401102711ADDMA1102341999999MD1310191+9999MW1001REMMET089KN60 151452Z AUTO 02004KT M12/M14 A3022 RMK AO2 SLP271 T11221144 53019 PWINO FZRANO TSNO;EQDQ01+000000PRSWM2
0155727677999992002111514524+47650-101430FM-15+0587KN60 V0200201N002112200019N9999999N1+01201-01401102711ADDMA1102341999999MD1310191+9999MW1001REMMET089KN60 151452Z AUTO 02004KT M12/M14 A3022 RMK AO2 SLP271 T11221144 53019 PWINO FZRANO TSNO;EQDQ01+000000PRSWM2
0155727677999992002111514524+47650-101430FM-15+0587KN60 V0200201N002112200019N9999999N1+01201-01401102711ADDMA1102341999999MD1310191+9999MW1001REMMET089KN60 151452Z AUTO 02004KT M12/M14 A3022 RMK AO2 SLP271 T11221144 53019 PWINO FZRANO TSNO;EQDQ01+000000PRSWM2
0155727677999992002111514524+47650-101430FM-15+0587KN60 V0200201N002112200019N9999999N1+01201-01401102711ADDMA1102341999999MD1310191+9999MW1001REMMET089KN60 151452Z AUTO 02004KT M12/M14 A3022 RMK AO2 SLP271 T11221144 53019 PWINO FZRANO TSNO;EQDQ01+000000PRSWM2
0155727677999992002111514524+47650-101430FM-15+0587KN60 V0200201N002112200019N9999999N1+01201-01401102711ADDMA1102341999999MD1310191+9999MW1001REMMET089KN60 151452Z AUTO 02004KT M12/M14 A3022 RMK AO2 SLP271 T11221144 53019 PWINO FZRANO TSNO;EQDQ01+000000PRSWM2
0155727677999992002111514524+47650-101430FM-15+0587KN60 V0200201N002112200019N9999999N1+01201-01401102711ADDMA1102341999999MD1310191+9999MW1001REMMET089KN60 151452Z AUTO 02004KT M12/M14 A3022 RMK AO2 SLP271 T11221144 53019 PWINO FZRANO TSNO;EQDQ01+000000PRSWM2
0155727677999992002111514524+47650-101430FM-15+0587KN60 V0200201N002112200019N9999999N1+01201-01401102711ADDMA1102341999999MD1310191+9999MW1001REMMET089KN60 151452Z AUTO 02004KT M12/M14 A3022 RMK AO2 SLP271 T11221144 53019 PWINO FZRANO TSNO;EQDQ01+000000PRSWM2
0155727677999992002111514524+47650-101430FM-15+0587KN60 V0200201N002112200019N9999999N1+01201-01401102711ADDMA1102341999999MD1310191+9999MW1001REMMET089KN60 151452Z AUTO 02004KT M12/M14 A3022 RMK AO2 SLP271 T11221144 53019 PWINO FZRANO TSNO;EQDQ01+000000PRSWM2
0155727677999992002111514524+47650-101430FM-15+0587KN60 V0200201N002112200019N9999999N1+01201-01401102711ADDMA1102341999999MD1310191+9999MW1001REMMET089KN60 151452Z AUTO 02004KT M12/M14 A3022 RMK AO2 SLP271 T11221144 53019 PWINO FZRANO TSNO;EQDQ01+000000PRSWM2
0155727677999992002111514524+47650-101430FM-15+0587KN60 V0200201N002112200019N9999999N1+01201-01401102711ADDMA1102341999999MD1310191+9999MW1001REMMET089KN60 151452Z AUTO 02004KT M12/M14 A3022 RMK AO2 SLP271 T11221144 53019 PWINO FZRANO TSNO;EQDQ01+000000PRSWM2
0155727677999992002111514524+47650-101430FM-15+0587KN60 V0200201N002112200019N9999999N1+01201-01401102711ADDMA1102341999999MD1310191+9999MW1001REMMET089KN60 151452Z AUTO 02004KT M12/M14 A3022 RMK AO2 SLP271 T11221144 53019 PWINO FZRANO TSNO;EQDQ01+000000PRSWM2
0155727677999992002111514524+47650-101430FM-15+0587KN60 V0200201N002112200019N9999999N1+01201-01401102711ADDMA1102341999999MD1310191+9999MW1001REMMET089KN60 151452Z AUTO 02004KT M12/M14 A3022 RMK AO2 SLP271 T11221144 53019 PWINO FZRANO TSNO;EQDQ01+000000PRSWM2
0155727677999992002111514524+47650-101430FM-15+0587KN60 V0200201N002112200019N9999999N1+01201-01401102711ADDMA1102341999999MD1310191+9999MW1001REMMET089KN60 151452Z AUTO 02004KT M12/M14 A3022 RMK AO2 SLP271 T11221144 53019 PWINO FZRANO TSNO;EQDQ01+000000PRSWM2
0155727677999992002111514524+47650-101430FM-15+0587KN60 V0200201N002112200019N9999999N1+01201-01401102711ADDMA1102341999999MD1310191+9999MW1001REMMET089KN60 151452Z AUTO 02004KT M12/M14 A3022 RMK AO2 SLP271 T11221144 53019 PWINO FZRANO TSNO;EQDQ01+000000PRSWM2
0155727677999992002111514524+47650-101430FM-15+0587KN60 V0200201N002112200019N9999999N1+01201-01401102711ADDMA1102341999999MD1310191+9999MW1001REMMET089KN60 151452Z AUTO 02004KT M12/M14 A3022 RMK AO2 SLP271 T11221144 53019 PWINO FZRANO TSNO;EQDQ01+000000PRSWM2
0155727677999992002111514524+47650-101430FM-15+0587KN60 V0200201N002112200019N9999999N1+01201-01401102711ADDMA1102341999999MD1310191+9999MW1001REMMET089KN60 151452Z AUTO 02004KT M12/M14 A3022 RMK AO2 SLP271 T11221144 53019 PWINO FZRANO TSNO;EQDQ01+000000PRSWM2
0155727677999992002111514524+47650-101430FM-15+0587KN60 V0200201N002112200019N9999999N1+01201-01401102711ADDMA1102341999999MD1310191+9999MW1001REMMET089KN60 151452Z AUTO 02004KT M12/M14 A3022 RMK AO2 SLP271 T11221144 53019 PWINO FZRANO TSNO;EQDQ01+000000PRSWM2
0155727677999992002111514524+47650-101430FM-15+0587KN60 V0200201N002112200019N9999999N1+01201-01401102711ADDMA1102341999999MD1310191+9999MW1001REMMET089KN60 151452Z AUTO 02004KT M12/M14 A3022 RMK AO2 SLP271 T11221144 53019 PWINO FZRANO TSNO;EQDQ01+000000PRSWM2
0155727677999992002111514524+47650-101430FM-15+0587KN60 V0200201N002112200019N9999999N1+01201-01401102711ADDMA1102341999999MD1310191+9999MW1001REMMET089KN60 151452Z AUTO 02004KT M12/M14 A3022 RMK AO2 SLP271 T11221144 53019 PWINO FZRANO TSNO;EQDQ01+000000PRSWM2
0155727677999992002111514524+47650-101430FM-15+0587KN60 V0200201N002112200019N9999999N1+01201-01401102711ADDMA1102341999999MD1310191+9999MW1001REMMET089KN60 151452Z AUTO 02004KT M12/M14 A3022 RMK AO2 SLP271 T11221144 53019 PWINO FZRANO TSNO;EQDQ01+000000PRSWM2
0155727677999992002111514524+47650-101430FM-15+0587KN60 V0200201N002112200019N9999999N1+01201-01401102711ADDMA1102341999999MD1310191+9999MW1001REMMET089KN60 151452Z AUTO 02004KT M12/M14 A3022 RMK AO2 SLP271 T11221144 53019 PWINO FZRANO TSNO;EQDQ01+000000PRSWM2
0155727677999992002111514524+47650-101430FM-15+0587KN60 V0200201N002112200019N9999999N1+01201-01401102711ADDMA1102341999999MD1310191+9999MW1001REMMET089KN60 151452Z AUTO 02004KT M12/M14 A3022 RMK AO2 SLP271 T11221144 53019 PWINO FZRANO TSNO;EQDQ01+000000PRSWM2
0155727677999992002111514524+47650-101430FM-15+0587KN60 V0200201N002112200019N9999999N1+01201-01401102711ADDMA1102341999999MD1310191+9999MW1001REMMET089KN60 151452Z AUTO 02004KT M12/M14 A3022 RMK AO2 SLP271 T11221144 53019 PWINO FZRANO TSNO;EQDQ01+000000PRSWM2
0155727677999992002111514524+47650-101430FM-15+0587KN60 V0200201N002112200019N9999999N1+01201-01401102711ADDMA1102341999999MD1310191+9999MW1001REMMET089KN60 151452Z AUTO 02004KT M12/M14 A3022 RMK AO2 SLP271 T11221144 53019 PWINO FZRANO TSNO;EQDQ01+000000PRSWM2
0155727677999992002111514524+47650-101430FM-15+0587KN60 V0200201N002112200019N9999999N1+01201-01401102711ADDMA1102341999999MD1310191+9999MW1001REMMET089KN60 151452Z AUTO 02004KT M12/M14 A3022 RMK AO2 SLP271 T11221144 53019 PWINO FZRANO TSNO;EQDQ01+000000PRSWM2
0155727677999992002111514524+47650-101430FM-15+0587KN60 V0200201N002112200019N9999999N1+01201-01401102711ADDMA1102341999999MD1310191+9999MW1001REMMET089KN60 151452Z AUTO 02004KT M12/M14 A3022 RMK AO2 SLP271 T11221144 53019 PWINO FZRANO TSNO;EQDQ01+000000PRSWM2
0155727677999992002111514524+47650-101430FM-15+0587KN60 V0200201N002112200019N9999999N1+01201-01401102711ADDMA1102341999999MD1310191+9999MW1001REMMET089KN60 151452Z AUTO 02004KT M12/M14 A3022 RMK AO2 SLP271 T11221144 53019 PWINO FZRANO TSNO;EQDQ01+000000PRSWM2
0155727677999992002111514524+47650-101430FM-15+0587KN60 V0200201N002112200019N9999999N1+01201-01401102711ADDMA1102341999999MD1310191+9999MW1001REMMET089KN60 151452Z AUTO 02004KT M12/M14 A3022 RMK AO2 SLP271 T11221144 53019 PWINO FZRANO TSNO;EQDQ01+000000PRSWM2
0155727677999992002111514524+47650-101430FM-15+0587KN60 V0200201N002112200019N9999999N1+01201-01401102711ADDMA1102341999999MD1310191+9999MW1001REMMET089KN60 151452Z AUTO 02004KT M12/M14 A3022 RMK AO2 SLP271 T11221144 53019 PWINO FZRANO TSNO;EQDQ01+000000PRSWM2
0155727677999992002111514524+47650-101430FM-15+0587KN60 V0200201N002112200019N9999999N1+01201-01401102711ADDMA1102341999999MD1310191+9999MW1001REMMET089KN60 151452Z AUTO 02004KT M12/M14 A3022 RMK AO2 SLP271 T11221144 53019 PWINO FZRANO TSNO;EQDQ01+000000PRSWM2
0155727677999992002111514524+47650-101430FM-15+0587KN60 V0200201N002112200019N9999999N1+01201-01401102711ADDMA1102341999999MD1310191+9999MW1001REMMET089KN60 151452Z AUTO 02004KT M12/M14 A3022 RMK AO2 SLP271 T11221144 53019 PWINO FZRANO TSNO;EQDQ01+000000PRSWM2
0155727677999992002111514524+47650-101430FM-15+0587KN60 V0200201N002112200019N9999999N1+01201-01401102711ADDMA1102341999999MD1310191+9999MW1001REMMET089KN60 151452Z AUTO 02004KT M12/M14 A3022 RMK AO2 SLP271 T11221144 53019 PWINO FZRANO TSNO;EQDQ01+000000PRSWM2
0155727677999992002111514524+47650-101430FM-15+0587KN60 V0200201N002112200019N9999999N1+01201-01401102711ADDMA1102341999999MD1310191+9999MW1001REMMET089KN60 151452Z AUTO 02004KT M12/M14 A3022 RMK AO2 SLP271 T11221144 53019 PWINO FZRANO TSNO;EQDQ01+000000PRSWM2
0155727677999992002111514524+47650-101430FM-15+0587KN60 V0200201N002112200019N9999999N1+01201-01401102711ADDMA1102341999999MD1310191+9999MW1001REMMET089KN60 151452Z AUTO 02004KT M12/M14 A3022 RMK AO2 SLP271 T11221144 53019 PWINO FZRANO TSNO;EQDQ01+000000PRSWM2
0155727677999992002111514524+47650-101430FM-15+0587KN60 V0200201N002112200019N9999999N1+01201-01401102711ADDMA1102341999999MD1310191+9999MW1001REMMET089KN60 151452Z AUTO 02004KT M12/M14 A3022 RMK AO2 SLP271 T11221144 53019 PWINO FZRANO TSNO;EQDQ01+000000PRSWM2
0155727677999992002111514524+47650-101430FM-15+0587KN60 V0200201N002112200019N9999999N1+01201-01401102711ADDMA1102341999999MD1310191+9999MW1001REMMET089KN60 151452Z AUTO 02004KT M12/M14 A3022 RMK AO2 SLP271 T11221144 53019 PWINO FZRANO TSNO;EQDQ01+000000PRSWM2
0155727677999992002111514524+47650-101430FM-15+0587KN60 V0200201N002112200019N9999999N1+01201-01401102711ADDMA1102341999999MD1310191+9999MW1001REMMET089KN60 151452Z AUTO 02004KT M12/M14 A3022 RMK AO2 SLP271 T11221144 53019 PWINO FZRANO TSNO;EQDQ01+000000PRSWM2
0155727677999992002111514524+47650-101430FM-15+0587KN60 V0200201N002112200019N9999999N1+01201-01401102711ADDMA1102341999999MD1310191+9999MW1001REMMET089KN60 151452Z AUTO 02004KT M12/M14 A3022 RMK AO2 SLP271 T11221144 53019 PWINO FZRANO TSNO;EQDQ01+000000PRSWM2
0155727677999992002111514524+47650-101430FM-15+0587KN60 V0200201N002112200019N9999999N1+01201-01401102711ADDMA1102341999999MD1310191+9999MW1001REMMET089KN60 151452Z AUTO 02004KT M12/M14 A3022 RMK AO2 SLP271 T11221144 53019 PWINO FZRANO TSNO;EQDQ01+000000PRSWM2
0155727677999992002111514524+47650-101430FM-15+0587KN60 V0200201N002112200019N9999999N1+01201-01401102711ADDMA1102341999999MD1310191+9999MW1001REMMET089KN60 151452Z AUTO 02004KT M12/M14 A3022 RMK AO2 SLP271 T11221144 53019 PWINO FZRANO TSNO;EQDQ01+000000PRSWM2
0155727677999992002111514524+47650-101430FM-15+0587KN60 V0200201N002112200019N9999999N1+01201-01401102711ADDMA1102341999999MD1310191+9999MW1001REMMET089KN60 151452Z AUTO 02004KT M12/M14 A3022 RMK AO2 SLP271 T11221144 53019 PWINO FZRANO TSNO;EQDQ01+000000PRSWM2
0155727677999992002111514524+47650-101430FM-15+0587KN60 V0200201N002112200019N9999999N1+01201-01401102711ADDMA1102341999999MD1310191+9999MW1001REMMET089KN60 151452Z AUTO 02004KT M12/M14 A3022 RMK AO2 SLP271 T11221144 53019 PWINO FZRANO TSNO;EQDQ01+000000PRSWM2
0155727677999992002111514524+47650-101430FM-15+0587KN60 V0200201N002112200019N9999999N1+01201-01401102711ADDMA1102341999999MD1310191+9999MW1001REMMET089KN60 151452Z AUTO 02004KT M12/M14 A3022 RMK AO2 SLP271 T11221144 53019 PWINO FZRANO TSNO;EQDQ01+000000PRSWM2
0155727677999992002111514524+47650-101430FM-15+0587KN60 V0200201N002112200019N9999999N1+01201-01401102711ADDMA1102341999999MD1310191+9999MW1001REMMET089KN60 151452Z AUTO 02004KT M12/M14 A3022 RMK AO2 SLP271 T11221144 53019 PWINO FZRANO TSNO;EQDQ01+000000PRSWM2
0155727677999992002111514524+47650-101430FM-15+0587KN60 V0200201N002112200019N9999999N1+01201-01401102711ADDMA1102341999999MD1310191+9999MW1001REMMET089KN60 151452Z AUTO 02004KT M12/M14 A3022 RMK AO2 SLP271 T11221144 53019 PWINO FZRANO TSNO;EQDQ01+000000PRSWM2
0155727677999992002111514524+47650-101430FM-15+0587KN60 V0200201N002112200019N9999999N1+01201-01401102711ADDMA1102341999999MD1310191+9999MW1001REMMET089KN60 151452Z AUTO 02004KT M12/M14 A3022 RMK AO2 SLP271 T11221144 53019 PWINO FZRANO TSNO;EQDQ01+000000PRSWM2
0155727677999992002111514524+47650-101430FM-15+0587KN60 V0200201N002112200019N9999999N1+01201-01401102711ADDMA1102341999999MD1310191+9999MW1001REMMET089KN60 151452Z AUTO 02004KT M12/M14 A3022 RMK AO2 SLP271 T11221144 53019 PWINO FZRANO TSNO;EQDQ01+000000PRSWM2
0155727677999992002111514524+47650-101430FM-15+0587KN60 V0200201N002112200019N9999999N1+01201-01401102711ADDMA1102341999999MD1310191+9999MW1001REMMET089KN60 151452Z AUTO 02004KT M12/M14 A3022 RMK AO2 SLP271 T11221144 53019 PWINO FZRANO TSNO;EQDQ01+000000PRSWM2
0155727677999992002111514524+47650-101430FM-15+0587KN60 V0200201N002112200019N9999999N1+01201-01401102711ADDMA1102341999999MD1310191+9999MW1001REMMET089KN60 151452Z AUTO 02004KT M12/M14 A3022 RMK AO2 SLP271 T11221144 53019 PWINO FZRANO TSNO;EQDQ01+000000PRSWM2
0155727677999992002111514524+47650-101430FM-15+0587KN60 V0200201N002112200019N9999999N1+01201-01401102711ADDMA1102341999999MD1310191+9999MW1001REMMET089KN60 151452Z AUTO 02004KT M12/M14 A3022 RMK AO2 SLP271 T11221144 53019 PWINO FZRANO TSNO;EQDQ01+000000PRSWM2
0155727677999992002111514524+47650-101430FM-15+0587KN60 V0200201N002112200019N9999999N1+01201-01401102711ADDMA1102341999999MD1310191+9999MW1001REMMET089KN60 151452Z AUTO 02004KT M12/M14 A3022 RMK AO2 SLP271 T11221144 53019 PWINO FZRANO TSNO;EQDQ01+000000PRSWM2
0155727677999992002111514524+47650-101430FM-15+0587KN60 V0200201N002112200019N9999999N1+01201-01401102711ADDMA1102341999999MD1310191+9999MW1001REMMET089KN60 151452Z AUTO 02004KT M12/M14 A3022 RMK AO2 SLP271 T11221144 53019 PWINO FZRANO TSNO;EQDQ01+000000PRSWM2
0155727677999992002111514524+47650-101430FM-15+0587KN60 V0200201N002112200019N9999999N1+01201-01401102711ADDMA1102341999999MD1310191+9999MW1001REMMET089KN60 151452Z AUTO 02004KT M12/M14 A3022 RMK AO2 SLP271 T11221144 53019 PWINO FZRANO TSNO;EQDQ01+000000PRSWM2
0155727677999992002111514524+47650-101430FM-15+0587KN60 V0200201N002112200019N9999999N1+01201-01401102711ADDMA1102341999999MD1310191+9999MW1001REMMET089KN60 151452Z AUTO 02004KT M12/M14 A3022 RMK AO2 SLP271 T11221144 53019 PWINO FZRANO TSNO;EQDQ01+000000PRSWM2
0155727677999992002111514524+47650-101430FM-15+0587KN60 V0200201N002112200019N9999999N1+01201-01401102711ADDMA1102341999999MD1310191+9999MW1001REMMET089KN60 151452Z AUTO 02004KT M12/M14 A3022 RMK AO2 SLP271 T11221144 53019 PWINO FZRANO TSNO;EQDQ01+000000PRSWM2
0155727677999992002111514524+47650-101430FM-15+0587KN60 V0200201N002112200019N9999999N1+01201-01401102711ADDMA1102341999999MD1310191+9999MW1001REMMET089KN60 151452Z AUTO 02004KT M12/M14 A3022 RMK AO2 SLP271 T11221144 53019 PWINO FZRANO TSNO;EQDQ01+000000PRSWM2
0155727677999992002111514524+47650-101430FM-15+0587KN60 V0200201N002112200019N9999999N1+01201-01401102711ADDMA1102341999999MD1310191+9999MW1001REMMET089KN60 151452Z AUTO 02004KT M12/M14 A3022 RMK AO2 SLP271 T11221144 53019 PWINO FZRANO TSNO;EQDQ01+000000PRSWM2
0155727677999992002111514524+47650-101430FM-15+0587KN60 V0200201N002112200019N9999999N1+01201-01401102711ADDMA1102341999999MD1310191+9999MW1001REMMET089KN60 151452Z AUTO 02004KT M12/M14 A3022 RMK AO2 SLP271 T11221144 53019 PWINO FZRANO TSNO;EQDQ01+000000PRSWM2
0155727677999992002111514524+47650-101430FM-15+0587KN60 V0200201N002112200019N9999999N1+01201-01401102711ADDMA1102341999999MD1310191+9999MW1001REMMET089KN60 151452Z AUTO 02004KT M12/M14 A3022 RMK AO2 SLP271 T11221144 53019 PWINO FZRANO TSNO;EQDQ01+000000PRSWM2
0155727677999992002111514524+47650-101430FM-15+0587KN60 V0200201N002112200019N9999999N1+01201-01401102711ADDMA1102341999999MD1310191+9999MW1001REMMET089KN60 151452Z AUTO 02004KT M12/M14 A3022 RMK AO2 SLP271 T11221144 53019 PWINO FZRANO TSNO;EQDQ01+000000PRSWM2
0155727677999992002111514524+47650-101430FM-15+0587KN60 V0200201N002112200019N9999999N1+01201-01401102711ADDMA1102341999999MD1310191+9999MW1001REMMET089KN60 151452Z AUTO 02004KT M12/M14 A3022 RMK AO2 SLP271 T11221144 53019 PWINO FZRANO TSNO;EQDQ01+000000PRSWM2
0155727677999992002111514524+47650-101430FM-15+0587KN60 V0200201N002112200019N9999999N1+01201-01401102711ADDMA1102341999999MD1310191+9999MW1001REMMET089KN60 151452Z AUTO 02004KT M12/M14 A3022 RMK AO2 SLP271 T11221144 53019 PWINO FZRANO TSNO;EQDQ01+000000PRSWM2
0155727677999992002111514524+47650-101430FM-15+0587KN60 V0200201N002112200019N9999999N1+01201-01401102711ADDMA1102341999999MD1310191+9999MW1001REMMET089KN60 151452Z AUTO 02004KT M12/M14 A3022 RMK AO2 SLP271 T11221144 53019 PWINO FZRANO TSNO;EQDQ01+000000PRSWM2
0155727677999992002111514524+47650-101430FM-15+0587KN60 V0200201N002112200019N9999999N1+01201-01401102711ADDMA1102341999999MD1310191+9999MW1001REMMET089KN60 151452Z AUTO 02004KT M12/M14 A3022 RMK AO2 SLP271 T11221144 53019 PWINO FZRANO TSNO;EQDQ01+000000PRSWM2
0155727677999992002111514524+47650-101430FM-15+0587KN60 V0200201N002112200019N9999999N1+01201-01401102711ADDMA1102341999999MD1310191+9999MW1001REMMET089KN60 151452Z AUTO 02004KT M12/M14 A3022 RMK AO2 SLP271 T11221144 53019 PWINO FZRANO TSNO;EQDQ01+000000PRSWM2
0155727677999992002111514524+47650-101430FM-15+0587KN60 V0200201N002112200019N9999999N1+01201-01401102711ADDMA1102341999999MD1310191+9999MW1001REMMET089KN60 151452Z AUTO 02004KT M12/M14 A3022 RMK AO2 SLP271 T11221144 53019 PWINO FZRANO TSNO;EQDQ01+000000PRSWM2
0155727677999992002111514524+47650-101430FM-15+0587KN60 V0200201N002112200019N9999999N1+01201-01401102711ADDMA1102341999999MD1310191+9999MW1001REMMET089KN60 151452Z AUTO 02004KT M12/M14 A3022 RMK AO2 SLP271 T11221144 53019 PWINO FZRANO TSNO;EQDQ01+000000PRSWM2
0155727677999992002111514524+47650-101430FM-15+0587KN60 V0200201N002112200019N9999999N1+01201-01401102711ADDMA1102341999999MD1310191+9999MW1001REMMET089KN60 151452Z AUTO 02004KT M12/M14 A3022 RMK AO2 SLP271 T11221144 53019 PWINO FZRANO TSNO;EQDQ01+000000PRSWM2
0155727677999992002111514524+47650-101430FM-15+0587KN60 V0200201N002112200019N9999999N1+01201-01401102711ADDMA1102341999999MD1310191+9999MW1001REMMET089KN60 151452Z AUTO 02004KT M12/M14 A3022 RMK AO2 SLP271 T11221144 53019 PWINO FZRANO TSNO;EQDQ01+000000PRSWM2
0155727677999992002111514524+47650-101430FM-15+0587KN60 V0200201N002112200019N9999999N1+01201-01401102711ADDMA1102341999999MD1310191+9999MW1001REMMET089KN60 151452Z AUTO 02004KT M12/M14 A3022 RMK AO2 SLP271 T11221144 53019 PWINO FZRANO TSNO;EQDQ01+000000PRSWM2
0155727677999992002111514524+47650-101430FM-15+0587KN60 V0200201N002112200019N9999999N1+01201-01401102711ADDMA1102341999999MD1310191+9999MW1001REMMET089KN60 151452Z AUTO 02004KT M12/M14 A3022 RMK AO2 SLP271 T11221144 53019 PWINO FZRANO TSNO;EQDQ01+000000PRSWM2
0155727677999992002111514524+47650-101430FM-15+0587KN60 V0200201N002112200019N9999999N1+01201-01401102711ADDMA1102341999999MD1310191+9999MW1001REMMET089KN60 151452Z AUTO 02004KT M12/M14 A3022 RMK AO2 SLP271 T11221144 53019 PWINO FZRANO TSNO;EQDQ01+000000PRSWM2
0155727677999992002111514524+47650-101430FM-15+0587KN60 V0200201N002112200019N9999999N1+01201-01401102711ADDMA1102341999999MD1310191+9999MW1001REMMET089KN60 151452Z AUTO 02004KT M12/M14 A3022 RMK AO2 SLP271 T11221144 53019 PWINO FZRANO TSNO;EQDQ01+000000PRSWM2
0155727677999992002111514524+47650-101430FM-15+0587KN60 V0200201N002112200019N9999999N1+01201-01401102711ADDMA1102341999999MD1310191+9999MW1001REMMET089KN60 151452Z AUTO 02004KT M12/M14 A3022 RMK AO2 SLP271 T11221144 53019 PWINO FZRANO TSNO;EQDQ01+000000PRSWM2
0155727677999992002111514524+47650-101430FM-15+0587KN60 V0200201N002112200019N9999999N1+01201-01401102711ADDMA1102341999999MD1310191+9999MW1001REMMET089KN60 151452Z AUTO 02004KT M12/M14 A3022 RMK AO2 SLP271 T11221144 53019 PWINO FZRANO TSNO;EQDQ01+000000PRSWM2
0155727677999992002111514524+47650-101430FM-15+0587KN60 V0200201N002112200019N9999999N1+01201-01401102711ADDMA1102341999999MD1310191+9999MW1001REMMET089KN60 151452Z AUTO 02004KT M12/M14 A3022 RMK AO2 SLP271 T11221144 53019 PWINO FZRANO TSNO;EQDQ01+000000PRSWM2
0155727677999992002111514524+47650-101430FM-15+0587KN60 V0200201N002112200019N9999999N1+01201-01401102711ADDMA1102341999999MD1310191+9999MW1001REMMET089KN60 151452Z AUTO 02004KT M12/M14 A3022 RMK AO2 SLP271 T11221144 53019 PWINO FZRANO TSNO;EQDQ01+000000PRSWM2
0155727677999992002111514524+47650-101430FM-15+0587KN60 V0200201N002112200019N9999999N1+01201-01401102711ADDMA1102341999999MD1310191+9999MW1001REMMET089KN60 151452Z AUTO 02004KT M12/M14 A3022 RMK AO2 SLP271 T11221144 53019 PWINO FZRANO TSNO;EQDQ01+000000PRSWM2
0155727677999992002111514524+47650-101430FM-15+0587KN60 V0200201N002112200019N9999999N1+01201-01401102711ADDMA1102341999999MD1310191+9999MW1001REMMET089KN60 151452Z AUTO 02004KT M12/M14 A3022 RMK AO2 SLP271 T11221144 53019 PWINO FZRANO TSNO;EQDQ01+000000PRSWM2
0155727677999992002111514524+47650-101430FM-15+0587KN60 V0200201N002112200019N9999999N1+01201-01401102711ADDMA1102341999999MD1310191+9999MW1001REMMET089KN60 151452Z AUTO 02004KT M12/M14 A3022 RMK AO2 SLP271 T11221144 53019 PWINO FZRANO TSNO;EQDQ01+000000PRSWM2
0155727677999992002111514524+47650-101430FM-15+0587KN60 V0200201N002112200019N9999999N1+01201-01401102711ADDMA1102341999999MD1310191+9999MW1001REMMET089KN60 151452Z AUTO 02004KT M12/M14 A3022 RMK AO2 SLP271 T11221144 53019 PWINO FZRANO TSNO;EQDQ01+000000PRSWM2
0155727677999992002111514524+47650-101430FM-15+0587KN60 V0200201N002112200019N9999999N1+01201-01401102711ADDMA1102341999999MD1310191+9999MW1001REMMET089KN60 151452Z AUTO 02004KT M12/M14 A3022 RMK AO2 SLP271 T11221144 53019 PWINO FZRANO TSNO;EQDQ01+000000PRSWM2
0155727677999992002111514524+47650-101430FM-15+0587KN60 V0200201N002112200019N9999999N1+01201-01401102711ADDMA1102341999999MD1310191+9999MW1001REMMET089KN60 151452Z AUTO 02004KT M12/M14 A3022 RMK AO2 SLP271 T11221144 53019 PWINO FZRANO TSNO;EQDQ01+000000PRSWM2
0155727677999992002111514524+47650-101430FM-15+0587KN60 V0200201N002112200019N9999999N1+01201-01401102711ADDMA1102341999999MD1310191+9999MW1001REMMET089KN60 151452Z AUTO 02004KT M12/M14 A3022 RMK AO2 SLP271 T11221144 53019 PWINO FZRANO TSNO;EQDQ01+000000PRSWM2
0155727677999992002111514524+47650-101430FM-15+0587KN60 V0200201N002112200019N9999999N1+01201-01401102711ADDMA1102341999999MD1310191+9999MW1001REMMET089KN60 151452Z AUTO 02004KT M12/M14 A3022 RMK AO2 SLP271 T11221144 53019 PWINO FZRANO TSNO;EQDQ01+000000PRSWM2
0155727677999992002111514524+47650-101430FM-15+0587KN60 V0200201N002112200019N9999999N1+01201-01401102711ADDMA1102341999999MD1310191+9999MW1001REMMET089KN60 151452Z AUTO 02004KT M12/M14 A3022 RMK AO2 SLP271 T11221144 53019 PWINO FZRANO TSNO;EQDQ01+000000PRSWM2
0155727677999992002111514524+47650-101430FM-15+0587KN60 V0200201N002112200019N9999999N1+01201-01401102711ADDMA1102341999999MD1310191+9999MW1001REMMET089KN60 151452Z AUTO 02004KT M12/M14 A3022 RMK AO2 SLP271 T11221144 53019 PWINO FZRANO TSNO;EQDQ01+000000PRSWM2
0155727677999992002111514524+47650-101430FM-15+0587KN60 V0200201N002112200019N9999999N1+01201-01401102711ADDMA1102341999999MD1310191+9999MW1001REMMET089KN60 151452Z AUTO 02004KT M12/M14 A3022 RMK AO2 SLP271 T11221144 53019 PWINO FZRANO TSNO;EQDQ01+000000PRSWM2
0155727677999992002111514524+47650-101430FM-15+0587KN60 V0200201N002112200019N9999999N1+01201-01401102711ADDMA1102341999999MD1310191+9999MW1001REMMET089KN60 151452Z AUTO 02004KT M12/M14 A3022 RMK AO2 SLP271 T11221144 53019 PWINO FZRANO TSNO;EQDQ01+000000PRSWM2
0155727677999992002111514524+47650-101430FM-15+0587KN60 V0200201N002112200019N9999999N1+01201-01401102711ADDMA1102341999999MD1310191+9999MW1001REMMET089KN60 151452Z AUTO 02004KT M12/M14 A3022 RMK AO2 SLP271 T11221144 53019 PWINO FZRANO TSNO;EQDQ01+000000PRSWM2
0155727677999992002111514524+47650-101430FM-15+0587KN60 V0200201N002112200019N9999999N1+01201-01401102711ADDMA1102341999999MD1310191+9999MW1001REMMET089KN60 151452Z AUTO 02004KT M12/M14 A3022 RMK AO2 SLP271 T11221144 53019 PWINO FZRANO TSNO;EQDQ01+000000PRSWM2
0155727677999992002111514524+47650-101430FM-15+0587KN60 V0200201N002112200019N9999999N1+01201-01401102711ADDMA1102341999999MD1310191+9999MW1001REMMET089KN60 151452Z AUTO 02004KT M12/M14 A3022 RMK AO2 SLP271 T11221144 53019 PWINO FZRANO TSNO;EQDQ01+000000PRSWM2
0155727677999992002111514524+47650-101430FM-15+0587KN60 V0200201N002112200019N9999999N1+01201-01401102711ADDMA1102341999999MD1310191+9999MW1001REMMET089KN60 151452Z AUTO 02004KT M12/M14 A3022 RMK AO2 SLP271 T11221144 53019 PWINO FZRANO TSNO;EQDQ01+000000PRSWM2
0155727677999992002111514524+47650-101430FM-15+0587KN60 V0200201N002112200019N9999999N1+01201-01401102711ADDMA1102341999999MD1310191+9999MW1001REMMET089KN60 151452Z AUTO 02004KT M12/M14 A3022 RMK AO2 SLP271 T11221144 53019 PWINO FZRANO TSNO;EQDQ01+000000PRSWM2
0155727677999992002111514524+47650-101430FM-15+0587KN60 V0200201N002112200019N9999999N1+01201-01401102711ADDMA1102341999999MD1310191+9999MW1001REMMET089KN60 151452Z AUTO 02004KT M12/M14 A3022 RMK AO2 SLP271 T11221144 53019 PWINO FZRANO TSNO;EQDQ01+000000PRSWM2
0155727677999992002111514524+47650-101430FM-15+0587KN60 V0200201N002112200019N9999999N1+01201-01401102711ADDMA1102341999999MD1310191+9999MW1001REMMET089KN60 151452Z AUTO 02004KT M12/M14 A3022 RMK AO2 SLP271 T11221144 53019 PWINO FZRANO TSNO;EQDQ01+000000PRSWM2
0155727677999992002111514524+47650-101430FM-15+0587KN60 V0200201N002112200019N9999999N1+01201-01401102711ADDMA1102341999999MD1310191+9999MW1001REMMET089KN60 151452Z AUTO 02004KT M12/M14 A3022 RMK AO2 SLP271 T11221144 53019 PWINO FZRANO TSNO;EQDQ01+000000PRSWM2
0155727677999992002111514524+47650-101430FM-15+0587KN60 V0200201N002112200019N9999999N1+01201-01401102711ADDMA1102341999999MD1310191+9999MW1001REMMET089KN60 151452Z AUTO 02004KT M12/M14 A3022 RMK AO2 SLP271 T11221144 53019 PWINO FZRANO TSNO;EQDQ01+000000PRSWM2
0155727677999992002111514524+47650-101430FM-15+0587KN60 V0200201N002112200019N9999999N1+01201-01401102711ADDMA1102341999999MD1310191+9999MW1001REMMET089KN60 151452Z AUTO 02004KT M12/M14 A3022 RMK AO2 SLP271 T11221144 53019 PWINO FZRANO TSNO;EQDQ01+000000PRSWM2
0155727677999992002111514524+47650-101430FM-15+0587KN60 V0200201N002112200019N9999999N1+01201-01401102711ADDMA1102341999999MD1310191+9999MW1001REMMET089KN60 151452Z AUTO 02004KT M12/M14 A3022 RMK AO2 SLP271 T11221144 53019 PWINO FZRANO TSNO;EQDQ01+000000PRSWM2
0155727677999992002111514524+47650-101430FM-15+0587KN60 V0200201N002112200019N9999999N1+01201-01401102711ADDMA1102341999999MD1310191+9999MW1001REMMET089KN60 151452Z AUTO 02004KT M12/M14 A3022 RMK AO2 SLP271 T11221144 53019 PWINO FZRANO TSNO;EQDQ01+000000PRSWM2
0155727677999992002111514524+47650-101430FM-15+0587KN60 V0200201N002112200019N9999999N1+01201-01401102711ADDMA1102341999999MD1310191+9999MW1001REMMET089KN60 151452Z AUTO 02004KT M12/M14 A3022 RMK AO2 SLP271 T11221144 53019 PWINO FZRANO TSNO;EQDQ01+000000PRSWM2
0155727677999992002111514524+47650-101430FM-15+0587KN60 V0200201N002112200019N9999999N1+01201-01401102711ADDMA1102341999999MD1310191+9999MW1001REMMET089KN60 151452Z AUTO 02004KT M12/M14 A3022 RMK AO2 SLP271 T11221144 53019 PWINO FZRANO TSNO;EQDQ01+000000PRSWM2
0155727677999992002111514524+47650-101430FM-15+0587KN60 V0200201N002112200019N9999999N1+01201-01401102711ADDMA1102341999999MD1310191+9999MW1001REMMET089KN60 151452Z AUTO 02004KT M12/M14 A3022 RMK AO2 SLP271 T11221144 53019 PWINO FZRANO TSNO;EQDQ01+000000PRSWM2
0155727677999992002111514524+47650-101430FM-15+0587KN60 V0200201N002112200019N9999999N1+01201-01401102711ADDMA1102341999999MD1310191+9999MW1001REMMET089KN60 151452Z AUTO 02004KT M12/M14 A3022 RMK AO2 SLP271 T11221144 53019 PWINO FZRANO TSNO;EQDQ01+000000PRSWM2
0155727677999992002111514524+47650-101430FM-15+0587KN60 V0200201N002112200019N9999999N1+01201-01401102711ADDMA1102341999999MD1310191+9999MW1001REMMET089KN60 151452Z AUTO 02004KT M12/M14 A3022 RMK AO2 SLP271 T11221144 53019 PWINO FZRANO TSNO;EQDQ01+000000PRSWM2
0155727677999992002111514524+47650-101430FM-15+0587KN60 V0200201N002112200019N9999999N1+01201-01401102711ADDMA1102341999999MD1310191+9999MW1001REMMET089KN60 151452Z AUTO 02004KT M12/M14 A3022 RMK AO2 SLP271 T11221144 53019 PWINO FZRANO TSNO;EQDQ01+000000PRSWM2
0155727677999992002111514524+47650-101430FM-15+0587KN60 V0200201N002112200019N9999999N1+01201-01401102711ADDMA1102341999999MD1310191+9999MW1001REMMET089KN60 151452Z AUTO 02004KT M12/M14 A3022 RMK AO2 SLP271 T11221144 53019 PWINO FZRANO TSNO;EQDQ01+000000PRSWM2
0155727677999992002111514524+47650-101430FM-15+0587KN60 V0200201N002112200019N9999999N1+01201-01401102711ADDMA1102341999999MD1310191+9999MW1001REMMET089KN60 151452Z AUTO 02004KT M12/M14 A3022 RMK AO2 SLP271 T11221144 53019 PWINO FZRANO TSNO;EQDQ01+000000PRSWM2
0155727677999992002111514524+47650-101430FM-15+0587KN60 V0200201N002112200019N9999999N1+01201-01401102711ADDMA1102341999999MD1310191+9999MW1001REMMET089KN60 151452Z AUTO 02004KT M12/M14 A3022 RMK AO2 SLP271 T11221144 53019 PWINO FZRANO TSNO;EQDQ01+000000PRSWM2
0155727677999992002111514524+47650-101430FM-15+0587KN60 V0200201N002112200019N9999999N1+01201-01401102711ADDMA1102341999999MD1310191+9999MW1001REMMET089KN60 151452Z AUTO 02004KT M12/M14 A3022 RMK AO2 SLP271 T11221144 53019 PWINO FZRANO TSNO;EQDQ01+000000PRSWM2
0155727677999992002111514524+47650-101430FM-15+0587KN60 V0200201N002112200019N9999999N1+01201-01401102711ADDMA1102341999999MD1310191+9999MW1001REMMET089KN60 151452Z AUTO 02004KT M12/M14 A3022 RMK AO2 SLP271 T11221144 53019 PWINO FZRANO TSNO;EQDQ01+000000PRSWM2
0155727677999992002111514524+47650-101430FM-15+0587KN60 V0200201N002112200019N9999999N1+01201-01401102711ADDMA1102341999999MD1310191+9999MW1001REMMET089KN60 151452Z AUTO 02004KT M12/M14 A3022 RMK AO2 SLP271 T11221144 53019 PWINO FZRANO TSNO;EQDQ01+000000PRSWM2
0155727677999992002111514524+47650-101430FM-15+0587KN60 V0200201N002112200019N9999999N1+01201-01401102711ADDMA1102341999999MD1310191+9999MW1001REMMET089KN60 151452Z AUTO 02004KT M12/M14 A3022 RMK AO2 SLP271 T11221144 53019 PWINO FZRANO TSNO;EQDQ01+000000PRSWM2
0155727677999992002111514524+47650-101430FM-15+0587KN60 V0200201N002112200019N9999999N1+01201-01401102711ADDMA1102341999999MD1310191+9999MW1001REMMET089KN60 151452Z AUTO 02004KT M12/M14 A3022 RMK AO2 SLP271 T11221144 53019 PWINO FZRANO TSNO;EQDQ01+000000PRSWM2
0155727677999992002111514524+47650-101430FM-15+0587KN60 V0200201N002112200019N9999999N1+01201-01401102711ADDMA1102341999999MD1310191+9999MW1001REMMET089KN60 151452Z AUTO 02004KT M12/M14 A3022 RMK AO2 SLP271 T11221144 53019 PWINO FZRANO TSNO;EQDQ01+000000PRSWM2
0155727677999992002111514524+47650-101430FM-15+0587KN60 V0200201N002112200019N9999999N1+01201-01401102711ADDMA1102341999999MD1310191+9999MW1001REMMET089KN60 151452Z AUTO 02004KT M12/M14 A3022 RMK AO2 SLP271 T11221144 53019 PWINO FZRANO TSNO;EQDQ01+000000PRSWM2
0155727677999992002111514524+47650-101430FM-15+0587KN60 V0200201N002112200019N9999999N1+01201-01401102711ADDMA1102341999999MD1310191+9999MW1001REMMET089KN60 151452Z AUTO 02004KT M12/M14 A3022 RMK AO2 SLP271 T11221144 53019 PWINO FZRANO TSNO;EQDQ01+000000PRSWM2
0155727677999992002111514524+47650-101430FM-15+0587KN60 V0200201N002112200019N9999999N1+01201-01401102711ADDMA1102341999999MD1310191+9999MW1001REMMET089KN60 151452Z AUTO 02004KT M12/M14 A3022 RMK AO2 SLP271 T11221144 53019 PWINO FZRANO TSNO;EQDQ01+000000PRSWM2
0155727677999992002111514524+47650-101430FM-15+0587KN60 V0200201N002112200019N9999999N1+01201-01401102711ADDMA1102341999999MD1310191+9999MW1001REMMET089KN60 151452Z AUTO 02004KT M12/M14 A3022 RMK AO2 SLP271 T11221144 53019 PWINO FZRANO TSNO;EQDQ01+000000PRSWM2
0155727677999992002111514524+47650-101430FM-15+0587KN60 V0200201N002112200019N9999999N1+01201-01401102711ADDMA1102341999999MD1310191+9999MW1001REMMET089KN60 151452Z AUTO 02004KT M12/M14 A3022 RMK AO2 SLP271 T11221144 53019 PWINO FZRANO TSNO;EQDQ01+000000PRSWM2
0155727677999992002111514524+47650-101430FM-15+0587KN60 V0200201N002112200019N9999999N1+01201-01401102711ADDMA1102341999999MD1310191+9999MW1001REMMET089KN60 151452Z AUTO 02004KT M12/M14 A3022 RMK AO2 SLP271 T11221144 53019 PWINO FZRANO TSNO;EQDQ01+000000PRSWM2
0155727677999992002111514524+47650-101430FM-15+0587KN60 V0200201N002112200019N9999999N1+01201-01401102711ADDMA1102341999999MD1310191+9999MW1001REMMET089KN60 151452Z AUTO 02004KT M12/M14 A3022 RMK AO2 SLP271 T11221144 53019 PWINO FZRANO TSNO;EQDQ01+000000PRSWM2
0155727677999992002111514524+47650-101430FM-15+0587KN60 V0200201N002112200019N9999999N1+01201-01401102711ADDMA1102341999999MD1310191+9999MW1001REMMET089KN60 151452Z AUTO 02004KT M12/M14 A3022 RMK AO2 SLP271 T11221144 53019 PWINO FZRANO TSNO;EQDQ01+000000PRSWM2
0155727677999992002111514524+47650-101430FM-15+0587KN60 V0200201N002112200019N9999999N1+01201-01401102711ADDMA1102341999999MD1310191+9999MW1001REMMET089KN60 151452Z AUTO 02004KT M12/M14 A3022 RMK AO2 SLP271 T11221144 53019 PWINO FZRANO TSNO;EQDQ01+000000PRSWM2
0155727677999992002111514524+47650-101430FM-15+0587KN60 V0200201N002112200019N9999999N1+01201-01401102711ADDMA1102341999999MD1310191+9999MW1001REMMET089KN60 151452Z AUTO 02004KT M12/M14 A3022 RMK AO2 SLP271 T11221144 53019 PWINO FZRANO TSNO;EQDQ01+000000PRSWM2
0155727677999992002111514524+47650-101430FM-15+0587KN60 V0200201N002112200019N9999999N1+01201-01401102711ADDMA1102341999999MD1310191+9999MW1001REMMET089KN60 151452Z AUTO 02004KT M12/M14 A3022 RMK AO2 SLP271 T11221144 53019 PWINO FZRANO TSNO;EQDQ01+000000PRSWM2
0155727677999992002111514524+47650-101430FM-15+0587KN60 V0200201N002112200019N9999999N1+01201-01401102711ADDMA1102341999999MD1310191+9999MW1001REMMET089KN60 151452Z AUTO 02004KT M12/M14 A3022 RMK AO2 SLP271 T11221144 53019 PWINO FZRANO TSNO;EQDQ01+000000PRSWM2
0155727677999992002111514524+47650-101430FM-15+0587KN60 V0200201N002112200019N9999999N1+01201-01401102711ADDMA1102341999999MD1310191+9999MW1001REMMET089KN60 151452Z AUTO 02004KT M12/M14 A3022 RMK AO2 SLP271 T11221144 53019 PWINO FZRANO TSNO;EQDQ01+000000PRSWM2
0155727677999992002111514524+47650-101430FM-15+0587KN60 V0200201N002112200019N9999999N1+01201-01401102711ADDMA1102341999999MD1310191+9999MW1001REMMET089KN60 151452Z AUTO 02004KT M12/M14 A3022 RMK AO2 SLP271 T11221144 53019 PWINO FZRANO TSNO;EQDQ01+000000PRSWM2
0155727677999992002111514524+47650-101430FM-15+0587KN60 V0200201N002112200019N9999999N1+01201-01401102711ADDMA1102341999999MD1310191+9999MW1001REMMET089KN60 151452Z AUTO 02004KT M12/M14 A3022 RMK AO2 SLP271 T11221144 53019 PWINO FZRANO TSNO;EQDQ01+000000PRSWM2
0155727677999992002111514524+47650-101430FM-15+0587KN60 V0200201N002112200019N9999999N1+01201-01401102711ADDMA1102341999999MD1310191+9999MW1001REMMET089KN60 151452Z AUTO 02004KT M12/M14 A3022 RMK AO2 SLP271 T11221144 53019 PWINO FZRANO TSNO;EQDQ01+000000PRSWM2
0155727677999992002111514524+47650-101430FM-15+0587KN60 V0200201N002112200019N9999999N1+01201-01401102711ADDMA1102341999999MD1310191+9999MW1001REMMET089KN60 151452Z AUTO 02004KT M12/M14 A3022 RMK AO2 SLP271 T11221144 53019 PWINO FZRANO TSNO;EQDQ01+000000PRSWM2
0155727677999992002111514524+47650-101430FM-15+0587KN60 V0200201N002112200019N9999999N1+01201-01401102711ADDMA1102341999999MD1310191+9999MW1001REMMET089KN60 151452Z AUTO 02004KT M12/M14 A3022 RMK AO2 SLP271 T11221144 53019 PWINO FZRANO TSNO;EQDQ01+000000PRSWM2
0155727677999992002111514524+47650-101430FM-15+0587KN60 V0200201N002112200019N9999999N1+01201-01401102711ADDMA1102341999999MD1310191+9999MW1001REMMET089KN60 151452Z AUTO 02004KT M12/M14 A3022 RMK AO2 SLP271 T11221144 53019 PWINO FZRANO TSNO;EQDQ01+000000PRSWM2
0155727677999992002111514524+47650-101430FM-15+0587KN60 V0200201N002112200019N9999999N1+01201-01401102711ADDMA1102341999999MD1310191+9999MW1001REMMET089KN60 151452Z AUTO 02004KT M12/M14 A3022 RMK AO2 SLP271 T11221144 53019 PWINO FZRANO TSNO;EQDQ01+000000PRSWM2
0155727677999992002111514524+47650-101430FM-15+0587KN60 V0200201N002112200019N9999999N1+01201-01401102711ADDMA1102341999999MD1310191+9999MW1001REMMET089KN60 151452Z AUTO 02004KT M12/M14 A3022 RMK AO2 SLP271 T11221144 53019 PWINO FZRANO TSNO;EQDQ01+000000PRSWM2
0155727677999992002111514524+47650-101430FM-15+0587KN60 V0200201N002112200019N9999999N1+01201-01401102711ADDMA1102341999999MD1310191+9999MW1001REMMET089KN60 151452Z AUTO 02004KT M12/M14 A3022 RMK AO2 SLP271 T11221144 53019 PWINO FZRANO TSNO;EQDQ01+000000PRSWM2
0155727677999992002111514524+47650-101430FM-15+0587KN60 V0200201N002112200019N9999999N1+01201-01401102711ADDMA1102341999999MD1310191+9999MW1001REMMET089KN60 151452Z AUTO 02004KT M12/M14 A3022 RMK AO2 SLP271 T11221144 53019 PWINO FZRANO TSNO;EQDQ01+000000PRSWM2
0155727677999992002111514524+47650-101430FM-15+0587KN60 V0200201N002112200019N9999999N1+01201-01401102711ADDMA1102341999999MD1310191+9999MW1001REMMET089KN60 151452Z AUTO 02004KT M12/M14 A3022 RMK AO2 SLP271 T11221144 53019 PWINO FZRANO TSNO;EQDQ01+000000PRSWM2
0155727677999992002111514524+47650-101430FM-15+0587KN60 V0200201N002112200019N9999999N1+01201-01401102711ADDMA1102341999999MD1310191+9999MW1001REMMET089KN60 151452Z AUTO 02004KT M12/M14 A3022 RMK AO2 SLP271 T11221144 53019 PWINO FZRANO TSNO;EQDQ01+000000PRSWM2
0155727677999992002111514524+47650-101430FM-15+0587KN60 V0200201N002112200019N9999999N1+01201-01401102711ADDMA1102341999999MD1310191+9999MW1001REMMET089KN60 151452Z AUTO 02004KT M12/M14 A3022 RMK AO2 SLP271 T11221144 53019 PWINO FZRANO TSNO;EQDQ01+000000PRSWM2
0155727677999992002111514524+47650-101430FM-15+0587KN60 V0200201N002112200019N9999999N1+01201-01401102711ADDMA1102341999999MD1310191+9999MW1001REMMET089KN60 151452Z AUTO 02004KT M12/M14 A3022 RMK AO2 SLP271 T11221144 53019 PWINO FZRANO TSNO;EQDQ01+000000PRSWM2
0155727677999992002111514524+47650-101430FM-15+0587KN60 V0200201N002112200019N9999999N1+01201-01401102711ADDMA1102341999999MD1310191+9999MW1001REMMET089KN60 151452Z AUTO 02004KT M12/M14 A3022 RMK AO2 SLP271 T11221144 53019 PWINO FZRANO TSNO;EQDQ01+000000PRSWM2
0155727677999992002111514524+47650-101430FM-15+0587KN60 V0200201N002112200019N9999999N1+01201-01401102711ADDMA1102341999999MD1310191+9999MW1001REMMET089KN60 151452Z AUTO 02004KT M12/M14 A3022 RMK AO2 SLP271 T11221144 53019 PWINO FZRANO TSNO;EQDQ01+000000PRSWM2
0155727677999992002111514524+47650-101430FM-15+0587KN60 V0200201N002112200019N9999999N1+01201-01401102711ADDMA1102341999999MD1310191+9999MW1001REMMET089KN60 151452Z AUTO 02004KT M12/M14 A3022 RMK AO2 SLP271 T11221144 53019 PWINO FZRANO TSNO;EQDQ01+000000PRSWM2
0155727677999992002111514524+47650-101430FM-15+0587KN60 V0200201N002112200019N9999999N1+01201-01401102711ADDMA1102341999999MD1310191+9999MW1001REMMET089KN60 151452Z AUTO 02004KT M12/M14 A3022 RMK AO2 SLP271 T11221144 53019 PWINO FZRANO TSNO;EQDQ01+000000PRSWM2
0155727677999992002111514524+47650-101430FM-15+0587KN60 V0200201N002112200019N9999999N1+01201-01401102711ADDMA1102341999999MD1310191+9999MW1001REMMET089KN60 151452Z AUTO 02004KT M12/M14 A3022 RMK AO2 SLP271 T11221144 53019 PWINO FZRANO TSNO;EQDQ01+000000PRSWM2
0155727677999992002111514524+47650-101430FM-15+0587KN60 V0200201N002112200019N9999999N1+01201-01401102711ADDMA1102341999999MD1310191+9999MW1001REMMET089KN60 151452Z AUTO 02004KT M12/M14 A3022 RMK AO2 SLP271 T11221144 53019 PWINO FZRANO TSNO;EQDQ01+000000PRSWM2
0155727677999992002111514524+47650-101430FM-15+0587KN60 V0200201N002112200019N9999999N1+01201-01401102711ADDMA1102341999999MD1310191+9999MW1001REMMET089KN60 151452Z AUTO 02004KT M12/M14 A3022 RMK AO2 SLP271 T11221144 53019 PWINO FZRANO TSNO;EQDQ01+000000PRSWM2
0155727677999992002111514524+47650-101430FM-15+0587KN60 V0200201N002112200019N9999999N1+01201-01401102711ADDMA1102341999999MD1310191+9999MW1001REMMET089KN60 151452Z AUTO 02004KT M12/M14 A3022 RMK AO2 SLP271 T11221144 53019 PWINO FZRANO TSNO;EQDQ01+000000PRSWM2
0155727677999992002111514524+47650-101430FM-15+0587KN60 V0200201N002112200019N9999999N1+01201-01401102711ADDMA1102341999999MD1310191+9999MW1001REMMET089KN60 151452Z AUTO 02004KT M12/M14 A3022 RMK AO2 SLP271 T11221144 53019 PWINO FZRANO TSNO;EQDQ01+000000PRSWM2
0155727677999992002111514524+47650-101430FM-15+0587KN60 V0200201N002112200019N9999999N1+01201-01401102711ADDMA1102341999999MD1310191+9999MW1001REMMET089KN60 151452Z AUTO 02004KT M12/M14 A3022 RMK AO2 SLP271 T11221144 53019 PWINO FZRANO TSNO;EQDQ01+000000PRSWM2
0155727677999992002111514524+47650-101430FM-15+0587KN60 V0200201N002112200019N9999999N1+01201-01401102711ADDMA1102341999999MD1310191+9999MW1001REMMET089KN60 151452Z AUTO 02004KT M12/M14 A3022 RMK AO2 SLP271 T11221144 53019 PWINO FZRANO TSNO;EQDQ01+000000PRSWM2
0155727677999992002111514524+47650-101430FM-15+0587KN60 V0200201N002112200019N9999999N1+01201-01401102711ADDMA1102341999999MD1310191+9999MW1001REMMET089KN60 151452Z AUTO 02004KT M12/M14 A3022 RMK AO2 SLP271 T11221144 53019 PWINO FZRANO TSNO;EQDQ01+000000PRSWM2
0155727677999992002111514524+47650-101430FM-15+0587KN60 V0200201N002112200019N9999999N1+01201-01401102711ADDMA1102341999999MD1310191+9999MW1001REMMET089KN60 151452Z AUTO 02004KT M12/M14 A3022 RMK AO2 SLP271 T11221144 53019 PWINO FZRANO TSNO;EQDQ01+000000PRSWM2
0155727677999992002111514524+47650-101430FM-15+0587KN60 V0200201N002112200019N9999999N1+01201-01401102711ADDMA1102341999999MD1310191+9999MW1001REMMET089KN60 151452Z AUTO 02004KT M12/M14 A3022 RMK AO2 SLP271 T11221144 53019 PWINO FZRANO TSNO;EQDQ01+000000PRSWM2
0155727677999992002111514524+47650-101430FM-15+0587KN60 V0200201N002112200019N9999999N1+01201-01401102711ADDMA1102341999999MD1310191+9999MW1001REMMET089KN60 151452Z AUTO 02004KT M12/M14 A3022 RMK AO2 SLP271 T11221144 53019 PWINO FZRANO TSNO;EQDQ01+000000PRSWM2
0155727677999992002111514524+47650-101430FM-15+0587KN60 V0200201N002112200019N9999999N1+01201-01401102711ADDMA1102341999999MD1310191+9999MW1001REMMET089KN60 151452Z AUTO 02004KT M12/M14 A3022 RMK AO2 SLP271 T11221144 53019 PWINO FZRANO TSNO;EQDQ01+000000PRSWM2
0155727677999992002111514524+47650-101430FM-15+0587KN60 V0200201N002112200019N9999999N1+01201-01401102711ADDMA1102341999999MD1310191+9999MW1001REMMET089KN60 151452Z AUTO 02004KT M12/M14 A3022 RMK AO2 SLP271 T11221144 53019 PWINO FZRANO TSNO;EQDQ01+000000PRSWM2
0155727677999992002111514524+47650-101430FM-15+0587KN60 V0200201N002112200019N9999999N1+01201-01401102711ADDMA1102341999999MD1310191+9999MW1001REMMET089KN60 151452Z AUTO 02004KT M12/M14 A3022 RMK AO2 SLP271 T11221144 53019 PWINO FZRANO TSNO;EQDQ01+000000PRSWM2
0155727677999992002111514524+47650-101430FM-15+0587KN60 V0200201N002112200019N9999999N1+01201-01401102711ADDMA1102341999999MD1310191+9999MW1001REMMET089KN60 151452Z AUTO 02004KT M12/M14 A3022 RMK AO2 SLP271 T11221144 53019 PWINO FZRANO TSNO;EQDQ01+000000PRSWM2
0155727677999992002111514524+47650-101430FM-15+0587KN60 V0200201N002112200019N9999999N1+01201-01401102711ADDMA1102341999999MD1310191+9999MW1001REMMET089KN60 151452Z AUTO 02004KT M12/M14 A3022 RMK AO2 SLP271 T11221144 53019 PWINO FZRANO TSNO;EQDQ01+000000PRSWM2
0155727677999992002111514524+47650-101430FM-15+0587KN60 V0200201N002112200019N9999999N1+01201-01401102711ADDMA1102341999999MD1310191+9999MW1001REMMET089KN60 151452Z AUTO 02004KT M12/M14 A3022 RMK AO2 SLP271 T11221144 53019 PWINO FZRANO TSNO;EQDQ01+000000PRSWM2
0155727677999992002111514524+47650-101430FM-15+0587KN60 V0200201N002112200019N9999999N1+01201-01401102711ADDMA1102341999999MD1310191+9999MW1001REMMET089KN60 151452Z AUTO 02004KT M12/M14 A3022 RMK AO2 SLP271 T11221144 53019 PWINO FZRANO TSNO;EQDQ01+000000PRSWM2
0155727677999992002111514524+47650-101430FM-15+0587KN60 V0200201N002112200019N9999999N1+01201-01401102711ADDMA1102341999999MD1310191+9999MW1001REMMET089KN60 151452Z AUTO 02004KT M12/M14 A3022 RMK AO2 SLP271 T11221144 53019 PWINO FZRANO TSNO;EQDQ01+000000PRSWM2
0155727677999992002111514524+47650-101430FM-15+0587KN60 V0200201N002112200019N9999999N1+01201-01401102711ADDMA1102341999999MD1310191+9999MW1001REMMET089KN60 151452Z AUTO 02004KT M12/M14 A3022 RMK AO2 SLP271 T11221144 53019 PWINO FZRANO TSNO;EQDQ01+000000PRSWM2
0155727677999992002111514524+47650-101430FM-15+0587KN60 V0200201N002112200019N9999999N1+01201-01401102711ADDMA1102341999999MD1310191+9999MW1001REMMET089KN60 151452Z AUTO 02004KT M12/M14 A3022 RMK AO2 SLP271 T11221144 53019 PWINO FZRANO TSNO;EQDQ01+000000PRSWM2
0155727677999992002111514524+47650-101430FM-15+0587KN60 V0200201N002112200019N9999999N1+01201-01401102711ADDMA1102341999999MD1310191+9999MW1001REMMET089KN60 151452Z AUTO 02004KT M12/M14 A3022 RMK AO2 SLP271 T11221144 53019 PWINO FZRANO TSNO;EQDQ01+000000PRSWM2
0155727677999992002111514524+47650-101430FM-15+0587KN60 V0200201N002112200019N9999999N1+01201-01401102711ADDMA1102341999999MD1310191+9999MW1001REMMET089KN60 151452Z AUTO 02004KT M12/M14 A3022 RMK AO2 SLP271 T11221144 53019 PWINO FZRANO TSNO;EQDQ01+000000PRSWM2
0155727677999992002111514524+47650-101430FM-15+0587KN60 V0200201N002112200019N9999999N1+01201-01401102711ADDMA1102341999999MD1310191+9999MW1001REMMET089KN60 151452Z AUTO 02004KT M12/M14 A3022 RMK AO2 SLP271 T11221144 53019 PWINO FZRANO TSNO;EQDQ01+000000PRSWM2
0155727677999992002111514524+47650-101430FM-15+0587KN60 V0200201N002112200019N9999999N1+01201-01401102711ADDMA1102341999999MD1310191+9999MW1001REMMET089KN60 151452Z AUTO 02004KT M12/M14 A3022 RMK AO2 SLP271 T11221144 53019 PWINO FZRANO TSNO;EQDQ01+000000PRSWM2
0155727677999992002111514524+47650-101430FM-15+0587KN60 V0200201N002112200019N9999999N1+01201-01401102711ADDMA1102341999999MD1310191+9999MW1001REMMET089KN60 151452Z AUTO 02004KT M12/M14 A3022 RMK AO2 SLP271 T11221144 53019 PWINO FZRANO TSNO;EQDQ01+000000PRSWM2
0155727677999992002111514524+47650-101430FM-15+0587KN60 V0200201N002112200019N9999999N1+01201-01401102711ADDMA1102341999999MD1310191+9999MW1001REMMET089KN60 151452Z AUTO 02004KT M12/M14 A3022 RMK AO2 SLP271 T11221144 53019 PWINO FZRANO TSNO;EQDQ01+000000PRSWM2
0155727677999992002111514524+47650-101430FM-15+0587KN60 V0200201N002112200019N9999999N1+01201-01401102711ADDMA1102341999999MD1310191+9999MW1001REMMET089KN60 151452Z AUTO 02004KT M12/M14 A3022 RMK AO2 SLP271 T11221144 53019 PWINO FZRANO TSNO;EQDQ01+000000PRSWM2
0155727677999992002111514524+47650-101430FM-15+0587KN60 V0200201N002112200019N9999999N1+01201-01401102711ADDMA1102341999999MD1310191+9999MW1001REMMET089KN60 151452Z AUTO 02004KT M12/M14 A3022 RMK AO2 SLP271 T11221144 53019 PWINO FZRANO TSNO;EQDQ01+000000PRSWM2
0155727677999992002111514524+47650-101430FM-15+0587KN60 V0200201N002112200019N9999999N1+01201-01401102711ADDMA1102341999999MD1310191+9999MW1001REMMET089KN60 151452Z AUTO 02004KT M12/M14 A3022 RMK AO2 SLP271 T11221144 53019 PWINO FZRANO TSNO;EQDQ01+000000PRSWM2
0155727677999992002111514524+47650-101430FM-15+0587KN60 V0200201N002112200019N9999999N1+01201-01401102711ADDMA1102341999999MD1310191+9999MW1001REMMET089KN60 151452Z AUTO 02004KT M12/M14 A3022 RMK AO2 SLP271 T11221144 53019 PWINO FZRANO TSNO;EQDQ01+000000PRSWM2
0155727677999992002111514524+47650-101430FM-15+0587KN60 V0200201N002112200019N9999999N1+01201-01401102711ADDMA1102341999999MD1310191+9999MW1001REMMET089KN60 151452Z AUTO 02004KT M12/M14 A3022 RMK AO2 SLP271 T11221144 53019 PWINO FZRANO TSNO;EQDQ01+000000PRSWM2
0155727677999992002111514524+47650-101430FM-15+0587KN60 V0200201N002112200019N9999999N1+01201-01401102711ADDMA1102341999999MD1310191+9999MW1001REMMET089KN60 151452Z AUTO 02004KT M12/M14 A3022 RMK AO2 SLP271 T11221144 53019 PWINO FZRANO TSNO;EQDQ01+000000PRSWM2
0155727677999992002111514524+47650-101430FM-15+0587KN60 V0200201N002112200019N9999999N1+01201-01401102711ADDMA1102341999999MD1310191+9999MW1001REMMET089KN60 151452Z AUTO 02004KT M12/M14 A3022 RMK AO2 SLP271 T11221144 53019 PWINO FZRANO TSNO;EQDQ01+000000PRSWM2
0155727677999992002111514524+47650-101430FM-15+0587KN60 V0200201N002112200019N9999999N1+01201-01401102711ADDMA1102341999999MD1310191+9999MW1001REMMET089KN60 151452Z AUTO 02004KT M12/M14 A3022 RMK AO2 SLP271 T11221144 53019 PWINO FZRANO TSNO;EQDQ01+000000PRSWM2
0155727677999992002111514524+47650-101430FM-15+0587KN60 V0200201N002112200019N9999999N1+01201-01401102711ADDMA1102341999999MD1310191+9999MW1001REMMET089KN60 151452Z AUTO 02004KT M12/M14 A3022 RMK AO2 SLP271 T11221144 53019 PWINO FZRANO TSNO;EQDQ01+000000PRSWM2
0155727677999992002111514524+47650-101430FM-15+0587KN60 V0200201N002112200019N9999999N1+01201-01401102711ADDMA1102341999999MD1310191+9999MW1001REMMET089KN60 151452Z AUTO 02004KT M12/M14 A3022 RMK AO2 SLP271 T11221144 53019 PWINO FZRANO TSNO;EQDQ01+000000PRSWM2
0155727677999992002111514524+47650-101430FM-15+0587KN60 V0200201N002112200019N9999999N1+01201-01401102711ADDMA1102341999999MD1310191+9999MW1001REMMET089KN60 151452Z AUTO 02004KT M12/M14 A3022 RMK AO2 SLP271 T11221144 53019 PWINO FZRANO TSNO;EQDQ01+000000PRSWM2
0155727677999992002111514524+47650-101430FM-15+0587KN60 V0200201N002112200019N9999999N1+01201-01401102711ADDMA1102341999999MD1310191+9999MW1001REMMET089KN60 151452Z AUTO 02004KT M12/M14 A3022 RMK AO2 SLP271 T11221144 53019 PWINO FZRANO TSNO;EQDQ01+000000PRSWM2
0155727677999992002111514524+47650-101430FM-15+0587KN60 V0200201N002112200019N9999999N1+01201-01401102711ADDMA1102341999999MD1310191+9999MW1001REMMET089KN60 151452Z AUTO 02004KT M12/M14 A3022 RMK AO2 SLP271 T11221144 53019 PWINO FZRANO TSNO;EQDQ01+000000PRSWM2
0155727677999992002111514524+47650-101430FM-15+0587KN60 V0200201N002112200019N9999999N1+01201-01401102711ADDMA1102341999999MD1310191+9999MW1001REMMET089KN60 151452Z AUTO 02004KT M12/M14 A3022 RMK AO2 SLP271 T11221144 53019 PWINO FZRANO TSNO;EQDQ01+000000PRSWM2
0155727677999992002111514524+47650-101430FM-15+0587KN60 V0200201N002112200019N9999999N1+01201-01401102711ADDMA1102341999999MD1310191+9999MW1001REMMET089KN60 151452Z AUTO 02004KT M12/M14 A3022 RMK AO2 SLP271 T11221144 53019 PWINO FZRANO TSNO;EQDQ01+000000PRSWM2
0155727677999992002111514524+47650-101430FM-15+0587KN60 V0200201N002112200019N9999999N1+01201-01401102711ADDMA1102341999999MD1310191+9999MW1001REMMET089KN60 151452Z AUTO 02004KT M12/M14 A3022 RMK AO2 SLP271 T11221144 53019 PWINO FZRANO TSNO;EQDQ01+000000PRSWM2
0155727677999992002111514524+47650-101430FM-15+0587KN60 V0200201N002112200019N9999999N1+01201-01401102711ADDMA1102341999999MD1310191+9999MW1001REMMET089KN60 151452Z AUTO 02004KT M12/M14 A3022 RMK AO2 SLP271 T11221144 53019 PWINO FZRANO TSNO;EQDQ01+000000PRSWM2
0155727677999992002111514524+47650-101430FM-15+0587KN60 V0200201N002112200019N9999999N1+01201-01401102711ADDMA1102341999999MD1310191+9999MW1001REMMET089KN60 151452Z AUTO 02004KT M12/M14 A3022 RMK AO2 SLP271 T11221144 53019 PWINO FZRANO TSNO;EQDQ01+000000PRSWM2
0155727677999992002111514524+47650-101430FM-15+0587KN60 V0200201N002112200019N9999999N1+01201-01401102711ADDMA1102341999999MD1310191+9999MW1001REMMET089KN60 151452Z AUTO 02004KT M12/M14 A3022 RMK AO2 SLP271 T11221144 53019 PWINO FZRANO TSNO;EQDQ01+000000PRSWM2
0155727677999992002111514524+47650-101430FM-15+0587KN60 V0200201N002112200019N9999999N1+01201-01401102711ADDMA1102341999999MD1310191+9999MW1001REMMET089KN60 151452Z AUTO 02004KT M12/M14 A3022 RMK AO2 SLP271 T11221144 53019 PWINO FZRANO TSNO;EQDQ01+000000PRSWM2
0155727677999992002111514524+47650-101430FM-15+0587KN60 V0200201N002112200019N9999999N1+01201-01401102711ADDMA1102341999999MD1310191+9999MW1001REMMET089KN60 151452Z AUTO 02004KT M12/M14 A3022 RMK AO2 SLP271 T11221144 53019 PWINO FZRANO TSNO;EQDQ01+000000PRSWM2
0155727677999992002111514524+47650-101430FM-15+0587KN60 V0200201N002112200019N9999999N1+01201-01401102711ADDMA1102341999999MD1310191+9999MW1001REMMET089KN60 151452Z AUTO 02004KT M12/M14 A3022 RMK AO2 SLP271 T11221144 53019 PWINO FZRANO TSNO;EQDQ01+000000PRSWM2
0155727677999992002111514524+47650-101430FM-15+0587KN60 V0200201N002112200019N9999999N1+01201-01401102711ADDMA1102341999999MD1310191+9999MW1001REMMET089KN60 151452Z AUTO 02004KT M12/M14 A3022 RMK AO2 SLP271 T11221144 53019 PWINO FZRANO TSNO;EQDQ01+000000PRSWM2
0155727677999992002111514524+47650-101430FM-15+0587KN60 V0200201N002112200019N9999999N1+01201-01401102711ADDMA1102341999999MD1310191+9999MW1001REMMET089KN60 151452Z AUTO 02004KT M12/M14 A3022 RMK AO2 SLP271 T11221144 53019 PWINO FZRANO TSNO;EQDQ01+000000PRSWM2
0155727677999992002111514524+47650-101430FM-15+0587KN60 V0200201N002112200019N9999999N1+01201-01401102711ADDMA1102341999999MD1310191+9999MW1001REMMET089KN60 151452Z AUTO 02004KT M12/M14 A3022 RMK AO2 SLP271 T11221144 53019 PWINO FZRANO TSNO;EQDQ01+000000PRSWM2
0155727677999992002111514524+47650-101430FM-15+0587KN60 V0200201N002112200019N9999999N1+01201-01401102711ADDMA1102341999999MD1310191+9999MW1001REMMET089KN60 151452Z AUTO 02004KT M12/M14 A3022 RMK AO2 SLP271 T11221144 53019 PWINO FZRANO TSNO;EQDQ01+000000PRSWM2
0155727677999992002111514524+47650-101430FM-15+0587KN60 V0200201N002112200019N9999999N1+01201-01401102711ADDMA1102341999999MD1310191+9999MW1001REMMET089KN60 151452Z AUTO 02004KT M12/M14 A3022 RMK AO2 SLP271 T11221144 53019 PWINO FZRANO TSNO;EQDQ01+000000PRSWM2
0155727677999992002111514524+47650-101430FM-15+0587KN60 V0200201N002112200019N9999999N1+01201-01401102711ADDMA1102341999999MD1310191+9999MW1001REMMET089KN60 151452Z AUTO 02004KT M12/M14 A3022 RMK AO2 SLP271 T11221144 53019 PWINO FZRANO TSNO;EQDQ01+000000PRSWM2
0155727677999992002111514524+47650-101430FM-15+0587KN60 V0200201N002112200019N9999999N1+01201-01401102711ADDMA1102341999999MD1310191+9999MW1001REMMET089KN60 151452Z AUTO 02004KT M12/M14 A3022 RMK AO2 SLP271 T11221144 53019 PWINO FZRANO TSNO;EQDQ01+000000PRSWM2
0155727677999992002111514524+47650-101430FM-15+0587KN60 V0200201N002112200019N9999999N1+01201-01401102711ADDMA1102341999999MD1310191+9999MW1001REMMET089KN60 151452Z AUTO 02004KT M12/M14 A3022 RMK AO2 SLP271 T11221144 53019 PWINO FZRANO TSNO;EQDQ01+000000PRSWM2
0155727677999992002111514524+47650-101430FM-15+0587KN60 V0200201N002112200019N9999999N1+01201-01401102711ADDMA1102341999999MD1310191+9999MW1001REMMET089KN60 151452Z AUTO 02004KT M12/M14 A3022 RMK AO2 SLP271 T11221144 53019 PWINO FZRANO TSNO;EQDQ01+000000PRSWM2
0155727677999992002111514524+47650-101430FM-15+0587KN60 V0200201N002112200019N9999999N1+01201-01401102711ADDMA1102341999999MD1310191+9999MW1001REMMET089KN60 151452Z AUTO 02004KT M12/M14 A3022 RMK AO2 SLP271 T11221144 53019 PWINO FZRANO TSNO;EQDQ01+000000PRSWM2
0155727677999992002111514524+47650-101430FM-15+0587KN60 V0200201N002112200019N9999999N1+01201-01401102711ADDMA1102341999999MD1310191+9999MW1001REMMET089KN60 151452Z AUTO 02004KT M12/M14 A3022 RMK AO2 SLP271 T11221144 53019 PWINO FZRANO TSNO;EQDQ01+000000PRSWM2
0155727677999992002111514524+47650-101430FM-15+0587KN60 V0200201N002112200019N9999999N1+01201-01401102711ADDMA1102341999999MD1310191+9999MW1001REMMET089KN60 151452Z AUTO 02004KT M12/M14 A3022 RMK AO2 SLP271 T11221144 53019 PWINO FZRANO TSNO;EQDQ01+000000PRSWM2
0155727677999992002111514524+47650-101430FM-15+0587KN60 V0200201N002112200019N9999999N1+01201-01401102711ADDMA1102341999999MD1310191+9999MW1001REMMET089KN60 151452Z AUTO 02004KT M12/M14 A3022 RMK AO2 SLP271 T11221144 53019 PWINO FZRANO TSNO;EQDQ01+000000PRSWM2
0155727677999992002111514524+47650-101430FM-15+0587KN60 V0200201N002112200019N9999999N1+01201-01401102711ADDMA1102341999999MD1310191+9999MW1001REMMET089KN60 151452Z AUTO 02004KT M12/M14 A3022 RMK AO2 SLP271 T11221144 53019 PWINO FZRANO TSNO;EQDQ01+000000PRSWM2
0155727677999992002111514524+47650-101430FM-15+0587KN60 V0200201N002112200019N9999999N1+01201-01401102711ADDMA1102341999999MD1310191+9999MW1001REMMET089KN60 151452Z AUTO 02004KT M12/M14 A3022 RMK AO2 SLP271 T11221144 53019 PWINO FZRANO TSNO;EQDQ01+000000PRSWM2
0155727677999992002111514524+47650-101430FM-15+0587KN60 V0200201N002112200019N9999999N1+01201-01401102711ADDMA1102341999999MD1310191+9999MW1001REMMET089KN60 151452Z AUTO 02004KT M12/M14 A3022 RMK AO2 SLP271 T11221144 53019 PWINO FZRANO TSNO;EQDQ01+000000PRSWM2
0155727677999992002111514524+47650-101430FM-15+0587KN60 V0200201N002112200019N9999999N1+01201-01401102711ADDMA1102341999999MD1310191+9999MW1001REMMET089KN60 151452Z AUTO 02004KT M12/M14 A3022 RMK AO2 SLP271 T11221144 53019 PWINO FZRANO TSNO;EQDQ01+000000PRSWM2
0155727677999992002111514524+47650-101430FM-15+0587KN60 V0200201N002112200019N9999999N1+01201-01401102711ADDMA1102341999999MD1310191+9999MW1001REMMET089KN60 151452Z AUTO 02004KT M12/M14 A3022 RMK AO2 SLP271 T11221144 53019 PWINO FZRANO TSNO;EQDQ01+000000PRSWM2
0155727677999992002111514524+47650-101430FM-15+0587KN60 V0200201N002112200019N9999999N1+01201-01401102711ADDMA1102341999999MD1310191+9999MW1001REMMET089KN60 151452Z AUTO 02004KT M12/M14 A3022 RMK AO2 SLP271 T11221144 53019 PWINO FZRANO TSNO;EQDQ01+000000PRSWM2
0155727677999992002111514524+47650-101430FM-15+0587KN60 V0200201N002112200019N9999999N1+01201-01401102711ADDMA1102341999999MD1310191+9999MW1001REMMET089KN60 151452Z AUTO 02004KT M12/M14 A3022 RMK AO2 SLP271 T11221144 53019 PWINO FZRANO TSNO;EQDQ01+000000PRSWM2
0155727677999992002111514524+47650-101430FM-15+0587KN60 V0200201N002112200019N9999999N1+01201-01401102711ADDMA1102341999999MD1310191+9999MW1001REMMET089KN60 151452Z AUTO 02004KT M12/M14 A3022 RMK AO2 SLP271 T11221144 53019 PWINO FZRANO TSNO;EQDQ01+000000PRSWM2
0155727677999992002111514524+47650-101430FM-15+0587KN60 V0200201N002112200019N9999999N1+01201-01401102711ADDMA1102341999999MD1310191+9999MW1001REMMET089KN60 151452Z AUTO 02004KT M12/M14 A3022 RMK AO2 SLP271 T11221144 53019 PWINO FZRANO TSNO;EQDQ01+000000PRSWM2
0155727677999992002111514524+47650-101430FM-15+0587KN60 V0200201N002112200019N9999999N1+01201-01401102711ADDMA1102341999999MD1310191+9999MW1001REMMET089KN60 151452Z AUTO 02004KT M12/M14 A3022 RMK AO2 SLP271 T11221144 53019 PWINO FZRANO TSNO;EQDQ01+000000PRSWM2
0155727677999992002111514524+47650-101430FM-15+0587KN60 V0200201N002112200019N9999999N1+01201-01401102711ADDMA1102341999999MD1310191+9999MW1001REMMET089KN60 151452Z AUTO 02004KT M12/M14 A3022 RMK AO2 SLP271 T11221144 53019 PWINO FZRANO TSNO;EQDQ01+000000PRSWM2
0155727677999992002111514524+47650-101430FM-15+0587KN60 V0200201N002112200019N9999999N1+01201-01401102711ADDMA1102341999999MD1310191+9999MW1001REMMET089KN60 151452Z AUTO 02004KT M12/M14 A3022 RMK AO2 SLP271 T11221144 53019 PWINO FZRANO TSNO;EQDQ01+000000PRSWM2
0155727677999992002111514524+47650-101430FM-15+0587KN60 V0200201N002112200019N9999999N1+01201-01401102711ADDMA1102341999999MD1310191+9999MW1001REMMET089KN60 151452Z AUTO 02004KT M12/M14 A3022 RMK AO2 SLP271 T11221144 53019 PWINO FZRANO TSNO;EQDQ01+000000PRSWM2
0155727677999992002111514524+47650-101430FM-15+0587KN60 V0200201N002112200019N9999999N1+01201-01401102711ADDMA1102341999999MD1310191+9999MW1001REMMET089KN60 151452Z AUTO 02004KT M12/M14 A3022 RMK AO2 SLP271 T11221144 53019 PWINO FZRANO TSNO;EQDQ01+000000PRSWM2
0155727677999992002111514524+47650-101430FM-15+0587KN60 V0200201N002112200019N9999999N1+01201-01401102711ADDMA1102341999999MD1310191+9999MW1001REMMET089KN60 151452Z AUTO 02004KT M12/M14 A3022 RMK AO2 SLP271 T11221144 53019 PWINO FZRANO TSNO;EQDQ01+000000PRSWM2
0155727677999992002111514524+47650-101430FM-15+0587KN60 V0200201N002112200019N9999999N1+01201-01401102711ADDMA1102341999999MD1310191+9999MW1001REMMET089KN60 151452Z AUTO 02004KT M12/M14 A3022 RMK AO2 SLP271 T11221144 53019 PWINO FZRANO TSNO;EQDQ01+000000PRSWM2
0155727677999992002111514524+47650-101430FM-15+0587KN60 V0200201N002112200019N9999999N1+01201-01401102711ADDMA1102341999999MD1310191+9999MW1001REMMET089KN60 151452Z AUTO 02004KT M12/M14 A3022 RMK AO2 SLP271 T11221144 53019 PWINO FZRANO TSNO;EQDQ01+000000PRSWM2
0155727677999992002111514524+47650-101430FM-15+0587KN60 V0200201N002112200019N9999999N1+01201-01401102711ADDMA1102341999999MD1310191+9999MW1001REMMET089KN60 151452Z AUTO 02004KT M12/M14 A3022 RMK AO2 SLP271 T11221144 53019 PWINO FZRANO TSNO;EQDQ01+000000PRSWM2
0155727677999992002111514524+47650-101430FM-15+0587KN60 V0200201N002112200019N9999999N1+01201-01401102711ADDMA1102341999999MD1310191+9999MW1001REMMET089KN60 151452Z AUTO 02004KT M12/M14 A3022 RMK AO2 SLP271 T11221144 53019 PWINO FZRANO TSNO;EQDQ01+000000PRSWM2
