0054723346038112003020912009+35600-088917NSRDB+013299999V020999999999999999999999999999+99999+99999999999ADDGP10060000002000000002000000002000GR100600000900009
0054723346038112003020912009+35600-088917NSRDB+013299999V020999999999999999999999999999+99999+99999999999ADDGP10060000002000000002000000002000GR100600000900009
0054723346038112003020912009+35600-088917NSRDB+013299999V020999999999999999999999999999+99999+99999999999ADDGP10060000002000000002000000002000GR100600000900009
0054723346038112003020912009+35600-088917NSRDB+013299999V020999999999999999999999999999+99999+99999999999ADDGP10060000002000000002000000002000GR100600000900009
0054723346038112003020912009+35600-088917NSRDB+013299999V020999999999999999999999999999+99999+99999999999ADDGP10060000002000000002000000002000GR100600000900009
0054723346038112003020912009+35600-088917NSRDB+013299999V020999999999999999999999999999+99999+99999999999ADDGP10060000002000000002000000002000GR100600000900009
0054723346038112003020912009+35600-088917NSRDB+013299999V020999999999999999999999999999+99999+99999999999ADDGP10060000002000000002000000002000GR100600000900009
0054723346038112003020912009+35600-088917NSRDB+013299999V020999999999999999999999999999+99999+99999999999ADDGP10060000002000000002000000002000GR100600000900009
0054723346038112003020912009+35600-088917NSRDB+013299999V020999999999999999999999999999+99999+99999999999ADDGP10060000002000000002000000002000GR100600000900009
0054723346038112003020912009+35600-088917NSRDB+013299999V020999999999999999999999999999+99999+99999999999ADDGP10060000002000000002000000002000GR100600000900009
0054723346038112003020912009+35600-088917NSRDB+013299999V020999999999999999999999999999+99999+99999999999ADDGP10060000002000000002000000002000GR100600000900009
0054723346038112003020912009+35600-088917NSRDB+013299999V020999999999999999999999999999+99999+99999999999ADDGP10060000002000000002000000002000GR100600000900009
0054723346038112003020912009+35600-088917NSRDB+013299999V020999999999999999999999999999+99999+99999999999ADDGP10060000002000000002000000002000GR100600000900009
0054723346038112003020912009+35600-088917NSRDB+013299999V020999999999999999999999999999+99999+99999999999ADDGP10060000002000000002000000002000GR100600000900009
0054723346038112003020912009+35600-088917NSRDB+013299999V020999999999999999999999999999+99999+99999999999ADDGP10060000002000000002000000002000GR100600000900009
0054723346038112003020912009+35600-088917NSRDB+013299999V020999999999999999999999999999+99999+99999999999ADDGP10060000002000000002000000002000GR100600000900009
0054723346038112003020912009+35600-088917NSRDB+013299999V020999999999999999999999999999+99999+99999999999ADDGP10060000002000000002000000002000GR100600000900009
0054723346038112003020912009+35600-088917NSRDB+013299999V020999999999999999999999999999+99999+99999999999ADDGP10060000002000000002000000002000GR100600000900009
0054723346038112003020912009+35600-088917NSRDB+013299999V020999999999999999999999999999+99999+99999999999ADDGP10060000002000000002000000002000GR100600000900009
0054723346038112003020912009+35600-088917NSRDB+013299999V020999999999999999999999999999+99999+99999999999ADDGP10060000002000000002000000002000GR100600000900009
0054723346038112003020912009+35600-088917NSRDB+013299999V020999999999999999999999999999+99999+99999999999ADDGP10060000002000000002000000002000GR100600000900009
0054723346038112003020912009+35600-088917NSRDB+013299999V020999999999999999999999999999+99999+99999999999ADDGP10060000002000000002000000002000GR100600000900009
0054723346038112003020912009+35600-088917NSRDB+013299999V020999999999999999999999999999+99999+99999999999ADDGP10060000002000000002000000002000GR100600000900009
0054723346038112003020912009+35600-088917NSRDB+013299999V020999999999999999999999999999+99999+99999999999ADDGP10060000002000000002000000002000GR100600000900009
0054723346038112003020912009+35600-088917NSRDB+013299999V020999999999999999999999999999+99999+99999999999ADDGP10060000002000000002000000002000GR100600000900009
0054723346038112003020912009+35600-088917NSRDB+013299999V020999999999999999999999999999+99999+99999999999ADDGP10060000002000000002000000002000GR100600000900009
0054723346038112003020912009+35600-088917NSRDB+013299999V020999999999999999999999999999+99999+99999999999ADDGP10060000002000000002000000002000GR100600000900009
0054723346038112003020912009+35600-088917NSRDB+013299999V020999999999999999999999999999+99999+99999999999ADDGP10060000002000000002000000002000GR100600000900009
0054723346038112003020912009+35600-088917NSRDB+013299999V020999999999999999999999999999+99999+99999999999ADDGP10060000002000000002000000002000GR100600000900009
0054723346038112003020912009+35600-088917NSRDB+013299999V020999999999999999999999999999+99999+99999999999ADDGP10060000002000000002000000002000GR100600000900009
0054723346038112003020912009+35600-088917NSRDB+013299999V020999999999999999999999999999+99999+99999999999ADDGP10060000002000000002000000002000GR100600000900009
0054723346038112003020912009+35600-088917NSRDB+013299999V020999999999999999999999999999+99999+99999999999ADDGP10060000002000000002000000002000GR100600000900009
0054723346038112003020912009+35600-088917NSRDB+013299999V020999999999999999999999999999+99999+99999999999ADDGP10060000002000000002000000002000GR100600000900009
0054723346038112003020912009+35600-088917NSRDB+013299999V020999999999999999999999999999+99999+99999999999ADDGP10060000002000000002000000002000GR100600000900009
0054723346038112003020912009+35600-088917NSRDB+013299999V020999999999999999999999999999+99999+99999999999ADDGP10060000002000000002000000002000GR100600000900009
0054723346038112003020912009+35600-088917NSRDB+013299999V020999999999999999999999999999+99999+99999999999ADDGP10060000002000000002000000002000GR100600000900009
0054723346038112003020912009+35600-088917NSRDB+013299999V020999999999999999999999999999+99999+99999999999ADDGP10060000002000000002000000002000GR100600000900009
0054723346038112003020912009+35600-088917NSRDB+013299999V020999999999999999999999999999+99999+99999999999ADDGP10060000002000000002000000002000GR100600000900009
0054723346038112003020912009+35600-088917NSRDB+013299999V020999999999999999999999999999+99999+99999999999ADDGP10060000002000000002000000002000GR100600000900009
0054723346038112003020912009+35600-088917NSRDB+013299999V020999999999999999999999999999+99999+99999999999ADDGP10060000002000000002000000002000GR100600000900009
0054723346038112003020912009+35600-088917NSRDB+013299999V020999999999999999999999999999+99999+99999999999ADDGP10060000002000000002000000002000GR100600000900009
0054723346038112003020912009+35600-088917NSRDB+013299999V020999999999999999999999999999+99999+99999999999ADDGP10060000002000000002000000002000GR100600000900009
0054723346038112003020912009+35600-088917NSRDB+013299999V020999999999999999999999999999+99999+99999999999ADDGP10060000002000000002000000002000GR100600000900009
0054723346038112003020912009+35600-088917NSRDB+013299999V020999999999999999999999999999+99999+99999999999ADDGP10060000002000000002000000002000GR100600000900009
0054723346038112003020912009+35600-088917NSRDB+013299999V020999999999999999999999999999+99999+99999999999ADDGP10060000002000000002000000002000GR100600000900009
0054723346038112003020912009+35600-088917NSRDB+013299999V020999999999999999999999999999+99999+99999999999ADDGP10060000002000000002000000002000GR100600000900009
0054723346038112003020912009+35600-088917NSRDB+013299999V020999999999999999999999999999+99999+99999999999ADDGP10060000002000000002000000002000GR100600000900009
0054723346038112003020912009+35600-088917NSRDB+013299999V020999999999999999999999999999+99999+99999999999ADDGP10060000002000000002000000002000GR100600000900009
0054723346038112003020912009+35600-088917NSRDB+013299999V020999999999999999999999999999+99999+99999999999ADDGP10060000002000000002000000002000GR100600000900009
0054723346038112003020912009+35600-088917NSRDB+013299999V020999999999999999999999999999+99999+99999999999ADDGP10060000002000000002000000002000GR100600000900009
0054723346038112003020912009+35600-088917NSRDB+013299999V020999999999999999999999999999+99999+99999999999ADDGP10060000002000000002000000002000GR100600000900009
0054723346038112003020912009+35600-088917NSRDB+013299999V020999999999999999999999999999+99999+99999999999ADDGP10060000002000000002000000002000GR100600000900009
0054723346038112003020912009+35600-088917NSRDB+013299999V020999999999999999999999999999+99999+99999999999ADDGP10060000002000000002000000002000GR100600000900009
0054723346038112003020912009+35600-088917NSRDB+013299999V020999999999999999999999999999+99999+99999999999ADDGP10060000002000000002000000002000GR100600000900009
0054723346038112003020912009+35600-088917NSRDB+013299999V020999999999999999999999999999+99999+99999999999ADDGP10060000002000000002000000002000GR100600000900009
0054723346038112003020912009+35600-088917NSRDB+013299999V020999999999999999999999999999+99999+99999999999ADDGP10060000002000000002000000002000GR100600000900009
0054723346038112003020912009+35600-088917NSRDB+013299999V020999999999999999999999999999+99999+99999999999ADDGP10060000002000000002000000002000GR100600000900009
0054723346038112003020912009+35600-088917NSRDB+013299999V020999999999999999999999999999+99999+99999999999ADDGP10060000002000000002000000002000GR100600000900009
0054723346038112003020912009+35600-088917NSRDB+013299999V020999999999999999999999999999+99999+99999999999ADDGP10060000002000000002000000002000GR100600000900009
0054723346038112003020912009+35600-088917NSRDB+013299999V020999999999999999999999999999+99999+99999999999ADDGP10060000002000000002000000002000GR100600000900009
0054723346038112003020912009+35600-088917NSRDB+013299999V020999999999999999999999999999+99999+99999999999ADDGP10060000002000000002000000002000GR100600000900009
0054723346038112003020912009+35600-088917NSRDB+013299999V020999999999999999999999999999+99999+99999999999ADDGP10060000002000000002000000002000GR100600000900009
0054723346038112003020912009+35600-088917NSRDB+013299999V020999999999999999999999999999+99999+99999999999ADDGP10060000002000000002000000002000GR100600000900009
0054723346038112003020912009+35600-088917NSRDB+013299999V020999999999999999999999999999+99999+99999999999ADDGP10060000002000000002000000002000GR100600000900009
0054723346038112003020912009+35600-088917NSRDB+013299999V020999999999999999999999999999+99999+99999999999ADDGP10060000002000000002000000002000GR100600000900009
0054723346038112003020912009+35600-088917NSRDB+013299999V020999999999999999999999999999+99999+99999999999ADDGP10060000002000000002000000002000GR100600000900009
0054723346038112003020912009+35600-088917NSRDB+013299999V020999999999999999999999999999+99999+99999999999ADDGP10060000002000000002000000002000GR100600000900009
0054723346038112003020912009+35600-088917NSRDB+013299999V020999999999999999999999999999+99999+99999999999ADDGP10060000002000000002000000002000GR100600000900009
0054723346038112003020912009+35600-088917NSRDB+013299999V020999999999999999999999999999+99999+99999999999ADDGP10060000002000000002000000002000GR100600000900009
0054723346038112003020912009+35600-088917NSRDB+013299999V020999999999999999999999999999+99999+99999999999ADDGP10060000002000000002000000002000GR100600000900009
0054723346038112003020912009+35600-088917NSRDB+013299999V020999999999999999999999999999+99999+99999999999ADDGP10060000002000000002000000002000GR100600000900009
0054723346038112003020912009+35600-088917NSRDB+013299999V020999999999999999999999999999+99999+99999999999ADDGP10060000002000000002000000002000GR100600000900009
0054723346038112003020912009+35600-088917NSRDB+013299999V020999999999999999999999999999+99999+99999999999ADDGP10060000002000000002000000002000GR100600000900009
0054723346038112003020912009+35600-088917NSRDB+013299999V020999999999999999999999999999+99999+99999999999ADDGP10060000002000000002000000002000GR100600000900009
0054723346038112003020912009+35600-088917NSRDB+013299999V020999999999999999999999999999+99999+99999999999ADDGP10060000002000000002000000002000GR100600000900009
0054723346038112003020912009+35600-088917NSRDB+013299999V020999999999999999999999999999+99999+99999999999ADDGP10060000002000000002000000002000GR100600000900009
0054723346038112003020912009+35600-088917NSRDB+013299999V020999999999999999999999999999+99999+99999999999ADDGP10060000002000000002000000002000GR100600000900009
0054723346038112003020912009+35600-088917NSRDB+013299999V020999999999999999999999999999+99999+99999999999ADDGP10060000002000000002000000002000GR100600000900009
0054723346038112003020912009+35600-088917NSRDB+013299999V020999999999999999999999999999+99999+99999999999ADDGP10060000002000000002000000002000GR100600000900009
0054723346038112003020912009+35600-088917NSRDB+013299999V020999999999999999999999999999+99999+99999999999ADDGP10060000002000000002000000002000GR100600000900009
0054723346038112003020912009+35600-088917NSRDB+013299999V020999999999999999999999999999+99999+99999999999ADDGP10060000002000000002000000002000GR100600000900009
0054723346038112003020912009+35600-088917NSRDB+013299999V020999999999999999999999999999+99999+99999999999ADDGP10060000002000000002000000002000GR100600000900009
0054723346038112003020912009+35600-088917NSRDB+013299999V020999999999999999999999999999+99999+99999999999ADDGP10060000002000000002000000002000GR100600000900009
0054723346038112003020912009+35600-088917NSRDB+013299999V020999999999999999999999999999+99999+99999999999ADDGP10060000002000000002000000002000GR100600000900009
0054723346038112003020912009+35600-088917NSRDB+013299999V020999999999999999999999999999+99999+99999999999ADDGP10060000002000000002000000002000GR100600000900009
0054723346038112003020912009+35600-088917NSRDB+013299999V020999999999999999999999999999+99999+99999999999ADDGP10060000002000000002000000002000GR100600000900009
0054723346038112003020912009+35600-088917NSRDB+013299999V020999999999999999999999999999+99999+99999999999ADDGP10060000002000000002000000002000GR100600000900009
0054723346038112003020912009+35600-088917NSRDB+013299999V020999999999999999999999999999+99999+99999999999ADDGP10060000002000000002000000002000GR100600000900009
0054723346038112003020912009+35600-088917NSRDB+013299999V020999999999999999999999999999+99999+99999999999ADDGP10060000002000000002000000002000GR100600000900009
0054723346038112003020912009+35600-088917NSRDB+013299999V020999999999999999999999999999+99999+99999999999ADDGP10060000002000000002000000002000GR100600000900009
0054723346038112003020912009+35600-088917NSRDB+013299999V020999999999999999999999999999+99999+99999999999ADDGP10060000002000000002000000002000GR100600000900009
0054723346038112003020912009+35600-088917NSRDB+013299999V020999999999999999999999999999+99999+99999999999ADDGP10060000002000000002000000002000GR100600000900009
0054723346038112003020912009+35600-088917NSRDB+013299999V020999999999999999999999999999+99999+99999999999ADDGP10060000002000000002000000002000GR100600000900009
0054723346038112003020912009+35600-088917NSRDB+013299999V020999999999999999999999999999+99999+99999999999ADDGP10060000002000000002000000002000GR100600000900009
0054723346038112003020912009+35600-088917NSRDB+013299999V020999999999999999999999999999+99999+99999999999ADDGP10060000002000000002000000002000GR100600000900009
0054723346038112003020912009+35600-088917NSRDB+013299999V020999999999999999999999999999+99999+99999999999ADDGP10060000002000000002000000002000GR100600000900009
0054723346038112003020912009+35600-088917NSRDB+013299999V020999999999999999999999999999+99999+99999999999ADDGP10060000002000000002000000002000GR100600000900009
0054723346038112003020912009+35600-088917NSRDB+013299999V020999999999999999999999999999+99999+99999999999ADDGP10060000002000000002000000002000GR100600000900009
0054723346038112003020912009+35600-088917NSRDB+013299999V020999999999999999999999999999+99999+99999999999ADDGP10060000002000000002000000002000GR100600000900009
0054723346038112003020912009+35600-088917NSRDB+013299999V020999999999999999999999999999+99999+99999999999ADDGP10060000002000000002000000002000GR100600000900009
0054723346038112003020912009+35600-088917NSRDB+013299999V020999999999999999999999999999+99999+99999999999ADDGP10060000002000000002000000002000GR100600000900009
0054723346038112003020912009+35600-088917NSRDB+013299999V020999999999999999999999999999+99999+99999999999ADDGP10060000002000000002000000002000GR100600000900009
0054723346038112003020912009+35600-088917NSRDB+013299999V020999999999999999999999999999+99999+99999999999ADDGP10060000002000000002000000002000GR100600000900009
0054723346038112003020912009+35600-088917NSRDB+013299999V020999999999999999999999999999+99999+99999999999ADDGP10060000002000000002000000002000GR100600000900009
0054723346038112003020912009+35600-088917NSRDB+013299999V020999999999999999999999999999+99999+99999999999ADDGP10060000002000000002000000002000GR100600000900009
0054723346038112003020912009+35600-088917NSRDB+013299999V020999999999999999999999999999+99999+99999999999ADDGP10060000002000000002000000002000GR100600000900009
0054723346038112003020912009+35600-088917NSRDB+013299999V020999999999999999999999999999+99999+99999999999ADDGP10060000002000000002000000002000GR100600000900009
0054723346038112003020912009+35600-088917NSRDB+013299999V020999999999999999999999999999+99999+99999999999ADDGP10060000002000000002000000002000GR100600000900009
0054723346038112003020912009+35600-088917NSRDB+013299999V020999999999999999999999999999+99999+99999999999ADDGP10060000002000000002000000002000GR100600000900009
0054723346038112003020912009+35600-088917NSRDB+013299999V020999999999999999999999999999+99999+99999999999ADDGP10060000002000000002000000002000GR100600000900009
0054723346038112003020912009+35600-088917NSRDB+013299999V020999999999999999999999999999+99999+99999999999ADDGP10060000002000000002000000002000GR100600000900009
0054723346038112003020912009+35600-088917NSRDB+013299999V020999999999999999999999999999+99999+99999999999ADDGP10060000002000000002000000002000GR100600000900009
0054723346038112003020912009+35600-088917NSRDB+013299999V020999999999999999999999999999+99999+99999999999ADDGP10060000002000000002000000002000GR100600000900009
0054723346038112003020912009+35600-088917NSRDB+013299999V020999999999999999999999999999+99999+99999999999ADDGP10060000002000000002000000002000GR100600000900009
0054723346038112003020912009+35600-088917NSRDB+013299999V020999999999999999999999999999+99999+99999999999ADDGP10060000002000000002000000002000GR100600000900009
0054723346038112003020912009+35600-088917NSRDB+013299999V020999999999999999999999999999+99999+99999999999ADDGP10060000002000000002000000002000GR100600000900009
0054723346038112003020912009+35600-088917NSRDB+013299999V020999999999999999999999999999+99999+99999999999ADDGP10060000002000000002000000002000GR100600000900009
0054723346038112003020912009+35600-088917NSRDB+013299999V020999999999999999999999999999+99999+99999999999ADDGP10060000002000000002000000002000GR100600000900009
0054723346038112003020912009+35600-088917NSRDB+013299999V020999999999999999999999999999+99999+99999999999ADDGP10060000002000000002000000002000GR100600000900009
0054723346038112003020912009+35600-088917NSRDB+013299999V020999999999999999999999999999+99999+99999999999ADDGP10060000002000000002000000002000GR100600000900009
0054723346038112003020912009+35600-088917NSRDB+013299999V020999999999999999999999999999+99999+99999999999ADDGP10060000002000000002000000002000GR100600000900009
0054723346038112003020912009+35600-088917NSRDB+013299999V020999999999999999999999999999+99999+99999999999ADDGP10060000002000000002000000002000GR100600000900009
0054723346038112003020912009+35600-088917NSRDB+013299999V020999999999999999999999999999+99999+99999999999ADDGP10060000002000000002000000002000GR100600000900009
0054723346038112003020912009+35600-088917NSRDB+013299999V020999999999999999999999999999+99999+99999999999ADDGP10060000002000000002000000002000GR100600000900009
0054723346038112003020912009+35600-088917NSRDB+013299999V020999999999999999999999999999+99999+99999999999ADDGP10060000002000000002000000002000GR100600000900009
0054723346038112003020912009+35600-088917NSRDB+013299999V020999999999999999999999999999+99999+99999999999ADDGP10060000002000000002000000002000GR100600000900009
0054723346038112003020912009+35600-088917NSRDB+013299999V020999999999999999999999999999+99999+99999999999ADDGP10060000002000000002000000002000GR100600000900009
0054723346038112003020912009+35600-088917NSRDB+013299999V020999999999999999999999999999+99999+99999999999ADDGP10060000002000000002000000002000GR100600000900009
0054723346038112003020912009+35600-088917NSRDB+013299999V020999999999999999999999999999+99999+99999999999ADDGP10060000002000000002000000002000GR100600000900009
0054723346038112003020912009+35600-088917NSRDB+013299999V020999999999999999999999999999+99999+99999999999ADDGP10060000002000000002000000002000GR100600000900009
0054723346038112003020912009+35600-088917NSRDB+013299999V020999999999999999999999999999+99999+99999999999ADDGP10060000002000000002000000002000GR100600000900009
0054723346038112003020912009+35600-088917NSRDB+013299999V020999999999999999999999999999+99999+99999999999ADDGP10060000002000000002000000002000GR100600000900009
0054723346038112003020912009+35600-088917NSRDB+013299999V020999999999999999999999999999+99999+99999999999ADDGP10060000002000000002000000002000GR100600000900009
0054723346038112003020912009+35600-088917NSRDB+013299999V020999999999999999999999999999+99999+99999999999ADDGP10060000002000000002000000002000GR100600000900009
0054723346038112003020912009+35600-088917NSRDB+013299999V020999999999999999999999999999+99999+99999999999ADDGP10060000002000000002000000002000GR100600000900009
0054723346038112003020912009+35600-088917NSRDB+013299999V020999999999999999999999999999+99999+99999999999ADDGP10060000002000000002000000002000GR100600000900009
0054723346038112003020912009+35600-088917NSRDB+013299999V020999999999999999999999999999+99999+99999999999ADDGP10060000002000000002000000002000GR100600000900009
0054723346038112003020912009+35600-088917NSRDB+013299999V020999999999999999999999999999+99999+99999999999ADDGP10060000002000000002000000002000GR100600000900009
0054723346038112003020912009+35600-088917NSRDB+013299999V020999999999999999999999999999+99999+99999999999ADDGP10060000002000000002000000002000GR100600000900009
0054723346038112003020912009+35600-088917NSRDB+013299999V020999999999999999999999999999+99999+99999999999ADDGP10060000002000000002000000002000GR100600000900009
0054723346038112003020912009+35600-088917NSRDB+013299999V020999999999999999999999999999+99999+99999999999ADDGP10060000002000000002000000002000GR100600000900009
0054723346038112003020912009+35600-088917NSRDB+013299999V020999999999999999999999999999+99999+99999999999ADDGP10060000002000000002000000002000GR100600000900009
0054723346038112003020912009+35600-088917NSRDB+013299999V020999999999999999999999999999+99999+99999999999ADDGP10060000002000000002000000002000GR100600000900009
0054723346038112003020912009+35600-088917NSRDB+013299999V020999999999999999999999999999+99999+99999999999ADDGP10060000002000000002000000002000GR100600000900009
0054723346038112003020912009+35600-088917NSRDB+013299999V020999999999999999999999999999+99999+99999999999ADDGP10060000002000000002000000002000GR100600000900009
0054723346038112003020912009+35600-088917NSRDB+013299999V020999999999999999999999999999+99999+99999999999ADDGP10060000002000000002000000002000GR100600000900009
0054723346038112003020912009+35600-088917NSRDB+013299999V020999999999999999999999999999+99999+99999999999ADDGP10060000002000000002000000002000GR100600000900009
0054723346038112003020912009+35600-088917NSRDB+013299999V020999999999999999999999999999+99999+99999999999ADDGP10060000002000000002000000002000GR100600000900009
0054723346038112003020912009+35600-088917NSRDB+013299999V020999999999999999999999999999+99999+99999999999ADDGP10060000002000000002000000002000GR100600000900009
0054723346038112003020912009+35600-088917NSRDB+013299999V020999999999999999999999999999+99999+99999999999ADDGP10060000002000000002000000002000GR100600000900009
0054723346038112003020912009+35600-088917NSRDB+013299999V020999999999999999999999999999+99999+99999999999ADDGP10060000002000000002000000002000GR100600000900009
0054723346038112003020912009+35600-088917NSRDB+013299999V020999999999999999999999999999+99999+99999999999ADDGP10060000002000000002000000002000GR100600000900009
0054723346038112003020912009+35600-088917NSRDB+013299999V020999999999999999999999999999+99999+99999999999ADDGP10060000002000000002000000002000GR100600000900009
0054723346038112003020912009+35600-088917NSRDB+013299999V020999999999999999999999999999+99999+99999999999ADDGP10060000002000000002000000002000GR100600000900009
0054723346038112003020912009+35600-088917NSRDB+013299999V020999999999999999999999999999+99999+99999999999ADDGP10060000002000000002000000002000GR100600000900009
0054723346038112003020912009+35600-088917NSRDB+013299999V020999999999999999999999999999+99999+99999999999ADDGP10060000002000000002000000002000GR100600000900009
0054723346038112003020912009+35600-088917NSRDB+013299999V020999999999999999999999999999+99999+99999999999ADDGP10060000002000000002000000002000GR100600000900009
0054723346038112003020912009+35600-088917NSRDB+013299999V020999999999999999999999999999+99999+99999999999ADDGP10060000002000000002000000002000GR100600000900009
0054723346038112003020912009+35600-088917NSRDB+013299999V020999999999999999999999999999+99999+99999999999ADDGP10060000002000000002000000002000GR100600000900009
0054723346038112003020912009+35600-088917NSRDB+013299999V020999999999999999999999999999+99999+99999999999ADDGP10060000002000000002000000002000GR100600000900009
0054723346038112003020912009+35600-088917NSRDB+013299999V020999999999999999999999999999+99999+99999999999ADDGP10060000002000000002000000002000GR100600000900009
0054723346038112003020912009+35600-088917NSRDB+013299999V020999999999999999999999999999+99999+99999999999ADDGP10060000002000000002000000002000GR100600000900009
0054723346038112003020912009+35600-088917NSRDB+013299999V020999999999999999999999999999+99999+99999999999ADDGP10060000002000000002000000002000GR100600000900009
0054723346038112003020912009+35600-088917NSRDB+013299999V020999999999999999999999999999+99999+99999999999ADDGP10060000002000000002000000002000GR100600000900009
0054723346038112003020912009+35600-088917NSRDB+013299999V020999999999999999999999999999+99999+99999999999ADDGP10060000002000000002000000002000GR100600000900009
0054723346038112003020912009+35600-088917NSRDB+013299999V020999999999999999999999999999+99999+99999999999ADDGP10060000002000000002000000002000GR100600000900009
0054723346038112003020912009+35600-088917NSRDB+013299999V020999999999999999999999999999+99999+99999999999ADDGP10060000002000000002000000002000GR100600000900009
0054723346038112003020912009+35600-088917NSRDB+013299999V020999999999999999999999999999+99999+99999999999ADDGP10060000002000000002000000002000GR100600000900009
0054723346038112003020912009+35600-088917NSRDB+013299999V020999999999999999999999999999+99999+99999999999ADDGP10060000002000000002000000002000GR100600000900009
0054723346038112003020912009+35600-088917NSRDB+013299999V020999999999999999999999999999+99999+99999999999ADDGP10060000002000000002000000002000GR100600000900009
0054723346038112003020912009+35600-088917NSRDB+013299999V020999999999999999999999999999+99999+99999999999ADDGP10060000002000000002000000002000GR100600000900009
0054723346038112003020912009+35600-088917NSRDB+013299999V020999999999999999999999999999+99999+99999999999ADDGP10060000002000000002000000002000GR100600000900009
0054723346038112003020912009+35600-088917NSRDB+013299999V020999999999999999999999999999+99999+99999999999ADDGP10060000002000000002000000002000GR100600000900009
0054723346038112003020912009+35600-088917NSRDB+013299999V020999999999999999999999999999+99999+99999999999ADDGP10060000002000000002000000002000GR100600000900009
0054723346038112003020912009+35600-088917NSRDB+013299999V020999999999999999999999999999+99999+99999999999ADDGP10060000002000000002000000002000GR100600000900009
0054723346038112003020912009+35600-088917NSRDB+013299999V020999999999999999999999999999+99999+99999999999ADDGP10060000002000000002000000002000GR100600000900009
0054723346038112003020912009+35600-088917NSRDB+013299999V020999999999999999999999999999+99999+99999999999ADDGP10060000002000000002000000002000GR100600000900009
0054723346038112003020912009+35600-088917NSRDB+013299999V020999999999999999999999999999+99999+99999999999ADDGP10060000002000000002000000002000GR100600000900009
0054723346038112003020912009+35600-088917NSRDB+013299999V020999999999999999999999999999+99999+99999999999ADDGP10060000002000000002000000002000GR100600000900009
0054723346038112003020912009+35600-088917NSRDB+013299999V020999999999999999999999999999+99999+99999999999ADDGP10060000002000000002000000002000GR100600000900009
0054723346038112003020912009+35600-088917NSRDB+013299999V020999999999999999999999999999+99999+99999999999ADDGP10060000002000000002000000002000GR100600000900009
0054723346038112003020912009+35600-088917NSRDB+013299999V020999999999999999999999999999+99999+99999999999ADDGP10060000002000000002000000002000GR100600000900009
0054723346038112003020912009+35600-088917NSRDB+013299999V020999999999999999999999999999+99999+99999999999ADDGP10060000002000000002000000002000GR100600000900009
0054723346038112003020912009+35600-088917NSRDB+013299999V020999999999999999999999999999+99999+99999999999ADDGP10060000002000000002000000002000GR100600000900009
0054723346038112003020912009+35600-088917NSRDB+013299999V020999999999999999999999999999+99999+99999999999ADDGP10060000002000000002000000002000GR100600000900009
0054723346038112003020912009+35600-088917NSRDB+013299999V020999999999999999999999999999+99999+99999999999ADDGP10060000002000000002000000002000GR100600000900009
0054723346038112003020912009+35600-088917NSRDB+013299999V020999999999999999999999999999+99999+99999999999ADDGP10060000002000000002000000002000GR100600000900009
0054723346038112003020912009+35600-088917NSRDB+013299999V020999999999999999999999999999+99999+99999999999ADDGP10060000002000000002000000002000GR100600000900009
0054723346038112003020912009+35600-088917NSRDB+013299999V020999999999999999999999999999+99999+99999999999ADDGP10060000002000000002000000002000GR100600000900009
0054723346038112003020912009+35600-088917NSRDB+013299999V020999999999999999999999999999+99999+99999999999ADDGP10060000002000000002000000002000GR100600000900009
0054723346038112003020912009+35600-088917NSRDB+013299999V020999999999999999999999999999+99999+99999999999ADDGP10060000002000000002000000002000GR100600000900009
0054723346038112003020912009+35600-088917NSRDB+013299999V020999999999999999999999999999+99999+99999999999ADDGP10060000002000000002000000002000GR100600000900009
0054723346038112003020912009+35600-088917NSRDB+013299999V020999999999999999999999999999+99999+99999999999ADDGP10060000002000000002000000002000GR100600000900009
0054723346038112003020912009+35600-088917NSRDB+013299999V020999999999999999999999999999+99999+99999999999ADDGP10060000002000000002000000002000GR100600000900009
0054723346038112003020912009+35600-088917NSRDB+013299999V020999999999999999999999999999+99999+99999999999ADDGP10060000002000000002000000002000GR100600000900009
0054723346038112003020912009+35600-088917NSRDB+013299999V020999999999999999999999999999+99999+99999999999ADDGP10060000002000000002000000002000GR100600000900009
0054723346038112003020912009+35600-088917NSRDB+013299999V020999999999999999999999999999+99999+99999999999ADDGP10060000002000000002000000002000GR100600000900009
0054723346038112003020912009+35600-088917NSRDB+013299999V020999999999999999999999999999+99999+99999999999ADDGP10060000002000000002000000002000GR100600000900009
0054723346038112003020912009+35600-088917NSRDB+013299999V020999999999999999999999999999+99999+99999999999ADDGP10060000002000000002000000002000GR100600000900009
0054723346038112003020912009+35600-088917NSRDB+013299999V020999999999999999999999999999+99999+99999999999ADDGP10060000002000000002000000002000GR100600000900009
0054723346038112003020912009+35600-088917NSRDB+013299999V020999999999999999999999999999+99999+99999999999ADDGP10060000002000000002000000002000GR100600000900009
0054723346038112003020912009+35600-088917NSRDB+013299999V020999999999999999999999999999+99999+99999999999ADDGP10060000002000000002000000002000GR100600000900009
0054723346038112003020912009+35600-088917NSRDB+013299999V020999999999999999999999999999+99999+99999999999ADDGP10060000002000000002000000002000GR100600000900009
0054723346038112003020912009+35600-088917NSRDB+013299999V020999999999999999999999999999+99999+99999999999ADDGP10060000002000000002000000002000GR100600000900009
0054723346038112003020912009+35600-088917NSRDB+013299999V020999999999999999999999999999+99999+99999999999ADDGP10060000002000000002000000002000GR100600000900009
0054723346038112003020912009+35600-088917NSRDB+013299999V020999999999999999999999999999+99999+99999999999ADDGP10060000002000000002000000002000GR100600000900009
0054723346038112003020912009+35600-088917NSRDB+013299999V020999999999999999999999999999+99999+99999999999ADDGP10060000002000000002000000002000GR100600000900009
0054723346038112003020912009+35600-088917NSRDB+013299999V020999999999999999999999999999+99999+99999999999ADDGP10060000002000000002000000002000GR100600000900009
0054723346038112003020912009+35600-088917NSRDB+013299999V020999999999999999999999999999+99999+99999999999ADDGP10060000002000000002000000002000GR100600000900009
0054723346038112003020912009+35600-088917NSRDB+013299999V020999999999999999999999999999+99999+99999999999ADDGP10060000002000000002000000002000GR100600000900009
0054723346038112003020912009+35600-088917NSRDB+013299999V020999999999999999999999999999+99999+99999999999ADDGP10060000002000000002000000002000GR100600000900009
0054723346038112003020912009+35600-088917NSRDB+013299999V020999999999999999999999999999+99999+99999999999ADDGP10060000002000000002000000002000GR100600000900009
0054723346038112003020912009+35600-088917NSRDB+013299999V020999999999999999999999999999+99999+99999999999ADDGP10060000002000000002000000002000GR100600000900009
0054723346038112003020912009+35600-088917NSRDB+013299999V020999999999999999999999999999+99999+99999999999ADDGP10060000002000000002000000002000GR100600000900009
0054723346038112003020912009+35600-088917NSRDB+013299999V020999999999999999999999999999+99999+99999999999ADDGP10060000002000000002000000002000GR100600000900009
0054723346038112003020912009+35600-088917NSRDB+013299999V020999999999999999999999999999+99999+99999999999ADDGP10060000002000000002000000002000GR100600000900009
0054723346038112003020912009+35600-088917NSRDB+013299999V020999999999999999999999999999+99999+99999999999ADDGP10060000002000000002000000002000GR100600000900009
0054723346038112003020912009+35600-088917NSRDB+013299999V020999999999999999999999999999+99999+99999999999ADDGP10060000002000000002000000002000GR100600000900009
0054723346038112003020912009+35600-088917NSRDB+013299999V020999999999999999999999999999+99999+99999999999ADDGP10060000002000000002000000002000GR100600000900009
0054723346038112003020912009+35600-088917NSRDB+013299999V020999999999999999999999999999+99999+99999999999ADDGP10060000002000000002000000002000GR100600000900009
0054723346038112003020912009+35600-088917NSRDB+013299999V020999999999999999999999999999+99999+99999999999ADDGP10060000002000000002000000002000GR100600000900009
0054723346038112003020912009+35600-088917NSRDB+013299999V020999999999999999999999999999+99999+99999999999ADDGP10060000002000000002000000002000GR100600000900009
0054723346038112003020912009+35600-088917NSRDB+013299999V020999999999999999999999999999+99999+99999999999ADDGP10060000002000000002000000002000GR100600000900009
0054723346038112003020912009+35600-088917NSRDB+013299999V020999999999999999999999999999+99999+99999999999ADDGP10060000002000000002000000002000GR100600000900009
0054723346038112003020912009+35600-088917NSRDB+013299999V020999999999999999999999999999+99999+99999999999ADDGP10060000002000000002000000002000GR100600000900009
0054723346038112003020912009+35600-088917NSRDB+013299999V020999999999999999999999999999+99999+99999999999ADDGP10060000002000000002000000002000GR100600000900009
0054723346038112003020912009+35600-088917NSRDB+013299999V020999999999999999999999999999+99999+99999999999ADDGP10060000002000000002000000002000GR100600000900009
0054723346038112003020912009+35600-088917NSRDB+013299999V020999999999999999999999999999+99999+99999999999ADDGP10060000002000000002000000002000GR100600000900009
0054723346038112003020912009+35600-088917NSRDB+013299999V020999999999999999999999999999+99999+99999999999ADDGP10060000002000000002000000002000GR100600000900009
0054723346038112003020912009+35600-088917NSRDB+013299999V020999999999999999999999999999+99999+99999999999ADDGP10060000002000000002000000002000GR100600000900009
0054723346038112003020912009+35600-088917NSRDB+013299999V020999999999999999999999999999+99999+99999999999ADDGP10060000002000000002000000002000GR100600000900009
0054723346038112003020912009+35600-088917NSRDB+013299999V020999999999999999999999999999+99999+99999999999ADDGP10060000002000000002000000002000GR100600000900009
0054723346038112003020912009+35600-088917NSRDB+013299999V020999999999999999999999999999+99999+99999999999ADDGP10060000002000000002000000002000GR100600000900009
0054723346038112003020912009+35600-088917NSRDB+013299999V020999999999999999999999999999+99999+99999999999ADDGP10060000002000000002000000002000GR100600000900009
0054723346038112003020912009+35600-088917NSRDB+013299999V020999999999999999999999999999+99999+99999999999ADDGP10060000002000000002000000002000GR100600000900009
0054723346038112003020912009+35600-088917NSRDB+013299999V020999999999999999999999999999+99999+99999999999ADDGP10060000002000000002000000002000GR100600000900009
0054723346038112003020912009+35600-088917NSRDB+013299999V020999999999999999999999999999+99999+99999999999ADDGP10060000002000000002000000002000GR100600000900009
0054723346038112003020912009+35600-088917NSRDB+013299999V020999999999999999999999999999+99999+99999999999ADDGP10060000002000000002000000002000GR100600000900009
0054723346038112003020912009+35600-088917NSRDB+013299999V020999999999999999999999999999+99999+99999999999ADDGP10060000002000000002000000002000GR100600000900009
0054723346038112003020912009+35600-088917NSRDB+013299999V020999999999999999999999999999+99999+99999999999ADDGP10060000002000000002000000002000GR100600000900009
0054723346038112003020912009+35600-088917NSRDB+013299999V020999999999999999999999999999+99999+99999999999ADDGP10060000002000000002000000002000GR100600000900009
0054723346038112003020912009+35600-088917NSRDB+013299999V020999999999999999999999999999+99999+99999999999ADDGP10060000002000000002000000002000GR100600000900009
0054723346038112003020912009+35600-088917NSRDB+013299999V020999999999999999999999999999+99999+99999999999ADDGP10060000002000000002000000002000GR100600000900009
0054723346038112003020912009+35600-088917NSRDB+013299999V020999999999999999999999999999+99999+99999999999ADDGP10060000002000000002000000002000GR100600000900009
0054723346038112003020912009+35600-088917NSRDB+013299999V020999999999999999999999999999+99999+99999999999ADDGP10060000002000000002000000002000GR100600000900009
0054723346038112003020912009+35600-088917NSRDB+013299999V020999999999999999999999999999+99999+99999999999ADDGP10060000002000000002000000002000GR100600000900009
0054723346038112003020912009+35600-088917NSRDB+013299999V020999999999999999999999999999+99999+99999999999ADDGP10060000002000000002000000002000GR100600000900009
0054723346038112003020912009+35600-088917NSRDB+013299999V020999999999999999999999999999+99999+99999999999ADDGP10060000002000000002000000002000GR100600000900009
0054723346038112003020912009+35600-088917NSRDB+013299999V020999999999999999999999999999+99999+99999999999ADDGP10060000002000000002000000002000GR100600000900009
0054723346038112003020912009+35600-088917NSRDB+013299999V020999999999999999999999999999+99999+99999999999ADDGP10060000002000000002000000002000GR100600000900009
0054723346038112003020912009+35600-088917NSRDB+013299999V020999999999999999999999999999+99999+99999999999ADDGP10060000002000000002000000002000GR100600000900009
0054723346038112003020912009+35600-088917NSRDB+013299999V020999999999999999999999999999+99999+99999999999ADDGP10060000002000000002000000002000GR100600000900009
0054723346038112003020912009+35600-088917NSRDB+013299999V020999999999999999999999999999+99999+99999999999ADDGP10060000002000000002000000002000GR100600000900009
0054723346038112003020912009+35600-088917NSRDB+013299999V020999999999999999999999999999+99999+99999999999ADDGP10060000002000000002000000002000GR100600000900009
0054723346038112003020912009+35600-088917NSRDB+013299999V020999999999999999999999999999+99999+99999999999ADDGP10060000002000000002000000002000GR100600000900009
0054723346038112003020912009+35600-088917NSRDB+013299999V020999999999999999999999999999+99999+99999999999ADDGP10060000002000000002000000002000GR100600000900009
0054723346038112003020912009+35600-088917NSRDB+013299999V020999999999999999999999999999+99999+99999999999ADDGP10060000002000000002000000002000GR100600000900009
0054723346038112003020912009+35600-088917NSRDB+013299999V020999999999999999999999999999+99999+99999999999ADDGP10060000002000000002000000002000GR100600000900009
0054723346038112003020912009+35600-088917NSRDB+013299999V020999999999999999999999999999+99999+99999999999ADDGP10060000002000000002000000002000GR100600000900009
0054723346038112003020912009+35600-088917NSRDB+013299999V020999999999999999999999999999+99999+99999999999ADDGP10060000002000000002000000002000GR100600000900009
0054723346038112003020912009+35600-088917NSRDB+013299999V020999999999999999999999999999+99999+99999999999ADDGP10060000002000000002000000002000GR100600000900009
0054723346038112003020912009+35600-088917NSRDB+013299999V020999999999999999999999999999+99999+99999999999ADDGP10060000002000000002000000002000GR100600000900009
0054723346038112003020912009+35600-088917NSRDB+013299999V020999999999999999999999999999+99999+99999999999ADDGP10060000002000000002000000002000GR100600000900009
0054723346038112003020912009+35600-088917NSRDB+013299999V020999999999999999999999999999+99999+99999999999ADDGP10060000002000000002000000002000GR100600000900009
0054723346038112003020912009+35600-088917NSRDB+013299999V020999999999999999999999999999+99999+99999999999ADDGP10060000002000000002000000002000GR100600000900009
0054723346038112003020912009+35600-088917NSRDB+013299999V020999999999999999999999999999+99999+99999999999ADDGP10060000002000000002000000002000GR100600000900009
0054723346038112003020912009+35600-088917NSRDB+013299999V020999999999999999999999999999+99999+99999999999ADDGP10060000002000000002000000002000GR100600000900009
0054723346038112003020912009+35600-088917NSRDB+013299999V020999999999999999999999999999+99999+99999999999ADDGP10060000002000000002000000002000GR100600000900009
0054723346038112003020912009+35600-088917NSRDB+013299999V020999999999999999999999999999+99999+99999999999ADDGP10060000002000000002000000002000GR100600000900009
0054723346038112003020912009+35600-088917NSRDB+013299999V020999999999999999999999999999+99999+99999999999ADDGP10060000002000000002000000002000GR100600000900009
0054723346038112003020912009+35600-088917NSRDB+013299999V020999999999999999999999999999+99999+99999999999ADDGP10060000002000000002000000002000GR100600000900009
0054723346038112003020912009+35600-088917NSRDB+013299999V020999999999999999999999999999+99999+99999999999ADDGP10060000002000000002000000002000GR100600000900009
0054723346038112003020912009+35600-088917NSRDB+013299999V020999999999999999999999999999+99999+99999999999ADDGP10060000002000000002000000002000GR100600000900009
0054723346038112003020912009+35600-088917NSRDB+013299999V020999999999999999999999999999+99999+99999999999ADDGP10060000002000000002000000002000GR100600000900009
0054723346038112003020912009+35600-088917NSRDB+013299999V020999999999999999999999999999+99999+99999999999ADDGP10060000002000000002000000002000GR100600000900009
0054723346038112003020912009+35600-088917NSRDB+013299999V020999999999999999999999999999+99999+99999999999ADDGP10060000002000000002000000002000GR100600000900009
0054723346038112003020912009+35600-088917NSRDB+013299999V020999999999999999999999999999+99999+99999999999ADDGP10060000002000000002000000002000GR100600000900009
0054723346038112003020912009+35600-088917NSRDB+013299999V020999999999999999999999999999+99999+99999999999ADDGP10060000002000000002000000002000GR100600000900009
0054723346038112003020912009+35600-088917NSRDB+013299999V020999999999999999999999999999+99999+99999999999ADDGP10060000002000000002000000002000GR100600000900009
0054723346038112003020912009+35600-088917NSRDB+013299999V020999999999999999999999999999+99999+99999999999ADDGP10060000002000000002000000002000GR100600000900009
0054723346038112003020912009+35600-088917NSRDB+013299999V020999999999999999999999999999+99999+99999999999ADDGP10060000002000000002000000002000GR100600000900009
0054723346038112003020912009+35600-088917NSRDB+013299999V020999999999999999999999999999+99999+99999999999ADDGP10060000002000000002000000002000GR100600000900009
0054723346038112003020912009+35600-088917NSRDB+013299999V020999999999999999999999999999+99999+99999999999ADDGP10060000002000000002000000002000GR100600000900009
0054723346038112003020912009+35600-088917NSRDB+013299999V020999999999999999999999999999+99999+99999999999ADDGP10060000002000000002000000002000GR100600000900009
0054723346038112003020912009+35600-088917NSRDB+013299999V020999999999999999999999999999+99999+99999999999ADDGP10060000002000000002000000002000GR100600000900009
0054723346038112003020912009+35600-088917NSRDB+013299999V020999999999999999999999999999+99999+99999999999ADDGP10060000002000000002000000002000GR100600000900009
0054723346038112003020912009+35600-088917NSRDB+013299999V020999999999999999999999999999+99999+99999999999ADDGP10060000002000000002000000002000GR100600000900009
0054723346038112003020912009+35600-088917NSRDB+013299999V020999999999999999999999999999+99999+99999999999ADDGP10060000002000000002000000002000GR100600000900009
0054723346038112003020912009+35600-088917NSRDB+013299999V020999999999999999999999999999+99999+99999999999ADDGP10060000002000000002000000002000GR100600000900009
0054723346038112003020912009+35600-088917NSRDB+013299999V020999999999999999999999999999+99999+99999999999ADDGP10060000002000000002000000002000GR100600000900009
0054723346038112003020912009+35600-088917NSRDB+013299999V020999999999999999999999999999+99999+99999999999ADDGP10060000002000000002000000002000GR100600000900009
0054723346038112003020912009+35600-088917NSRDB+013299999V020999999999999999999999999999+99999+99999999999ADDGP10060000002000000002000000002000GR100600000900009
0054723346038112003020912009+35600-088917NSRDB+013299999V020999999999999999999999999999+99999+99999999999ADDGP10060000002000000002000000002000GR100600000900009
0054723346038112003020912009+35600-088917NSRDB+013299999V020999999999999999999999999999+99999+99999999999ADDGP10060000002000000002000000002000GR100600000900009
0054723346038112003020912009+35600-088917NSRDB+013299999V020999999999999999999999999999+99999+99999999999ADDGP10060000002000000002000000002000GR100600000900009
0054723346038112003020912009+35600-088917NSRDB+013299999V020999999999999999999999999999+99999+99999999999ADDGP10060000002000000002000000002000GR100600000900009
0054723346038112003020912009+35600-088917NSRDB+013299999V020999999999999999999999999999+99999+99999999999ADDGP10060000002000000002000000002000GR100600000900009
0054723346038112003020912009+35600-088917NSRDB+013299999V020999999999999999999999999999+99999+99999999999ADDGP10060000002000000002000000002000GR100600000900009
0054723346038112003020912009+35600-088917NSRDB+013299999V020999999999999999999999999999+99999+99999999999ADDGP10060000002000000002000000002000GR100600000900009
0054723346038112003020912009+35600-088917NSRDB+013299999V020999999999999999999999999999+99999+99999999999ADDGP10060000002000000002000000002000GR100600000900009
0054723346038112003020912009+35600-088917NSRDB+013299999V020999999999999999999999999999+99999+99999999999ADDGP10060000002000000002000000002000GR100600000900009
0054723346038112003020912009+35600-088917NSRDB+013299999V020999999999999999999999999999+99999+99999999999ADDGP10060000002000000002000000002000GR100600000900009
0054723346038112003020912009+35600-088917NSRDB+013299999V020999999999999999999999999999+99999+99999999999ADDGP10060000002000000002000000002000GR100600000900009
0054723346038112003020912009+35600-088917NSRDB+013299999V020999999999999999999999999999+99999+99999999999ADDGP10060000002000000002000000002000GR100600000900009
0054723346038112003020912009+35600-088917NSRDB+013299999V020999999999999999999999999999+99999+99999999999ADDGP10060000002000000002000000002000GR100600000900009
0054723346038112003020912009+35600-088917NSRDB+013299999V020999999999999999999999999999+99999+99999999999ADDGP10060000002000000002000000002000GR100600000900009
0054723346038112003020912009+35600-088917NSRDB+013299999V020999999999999999999999999999+99999+99999999999ADDGP10060000002000000002000000002000GR100600000900009
0054723346038112003020912009+35600-088917NSRDB+013299999V020999999999999999999999999999+99999+99999999999ADDGP10060000002000000002000000002000GR100600000900009
0054723346038112003020912009+35600-088917NSRDB+013299999V020999999999999999999999999999+99999+99999999999ADDGP10060000002000000002000000002000GR100600000900009
0054723346038112003020912009+35600-088917NSRDB+013299999V020999999999999999999999999999+99999+99999999999ADDGP10060000002000000002000000002000GR100600000900009
0054723346038112003020912009+35600-088917NSRDB+013299999V020999999999999999999999999999+99999+99999999999ADDGP10060000002000000002000000002000GR100600000900009
0054723346038112003020912009+35600-088917NSRDB+013299999V020999999999999999999999999999+99999+99999999999ADDGP10060000002000000002000000002000GR100600000900009
0054723346038112003020912009+35600-088917NSRDB+013299999V020999999999999999999999999999+99999+99999999999ADDGP10060000002000000002000000002000GR100600000900009
0054723346038112003020912009+35600-088917NSRDB+013299999V020999999999999999999999999999+99999+99999999999ADDGP10060000002000000002000000002000GR100600000900009
0054723346038112003020912009+35600-088917NSRDB+013299999V020999999999999999999999999999+99999+99999999999ADDGP10060000002000000002000000002000GR100600000900009
0054723346038112003020912009+35600-088917NSRDB+013299999V020999999999999999999999999999+99999+99999999999ADDGP10060000002000000002000000002000GR100600000900009
0054723346038112003020912009+35600-088917NSRDB+013299999V020999999999999999999999999999+99999+99999999999ADDGP10060000002000000002000000002000GR100600000900009
0054723346038112003020912009+35600-088917NSRDB+013299999V020999999999999999999999999999+99999+99999999999ADDGP10060000002000000002000000002000GR100600000900009
0054723346038112003020912009+35600-088917NSRDB+013299999V020999999999999999999999999999+99999+99999999999ADDGP10060000002000000002000000002000GR100600000900009
0054723346038112003020912009+35600-088917NSRDB+013299999V020999999999999999999999999999+99999+99999999999ADDGP10060000002000000002000000002000GR100600000900009
0054723346038112003020912009+35600-088917NSRDB+013299999V020999999999999999999999999999+99999+99999999999ADDGP10060000002000000002000000002000GR100600000900009
0054723346038112003020912009+35600-088917NSRDB+013299999V020999999999999999999999999999+99999+99999999999ADDGP10060000002000000002000000002000GR100600000900009
0054723346038112003020912009+35600-088917NSRDB+013299999V020999999999999999999999999999+99999+99999999999ADDGP10060000002000000002000000002000GR100600000900009
0054723346038112003020912009+35600-088917NSRDB+013299999V020999999999999999999999999999+99999+99999999999ADDGP10060000002000000002000000002000GR100600000900009
0054723346038112003020912009+35600-088917NSRDB+013299999V020999999999999999999999999999+99999+99999999999ADDGP10060000002000000002000000002000GR100600000900009
0054723346038112003020912009+35600-088917NSRDB+013299999V020999999999999999999999999999+99999+99999999999ADDGP10060000002000000002000000002000GR100600000900009
0054723346038112003020912009+35600-088917NSRDB+013299999V020999999999999999999999999999+99999+99999999999ADDGP10060000002000000002000000002000GR100600000900009
0054723346038112003020912009+35600-088917NSRDB+013299999V020999999999999999999999999999+99999+99999999999ADDGP10060000002000000002000000002000GR100600000900009
0054723346038112003020912009+35600-088917NSRDB+013299999V020999999999999999999999999999+99999+99999999999ADDGP10060000002000000002000000002000GR100600000900009
0054723346038112003020912009+35600-088917NSRDB+013299999V020999999999999999999999999999+99999+99999999999ADDGP10060000002000000002000000002000GR100600000900009
0054723346038112003020912009+35600-088917NSRDB+013299999V020999999999999999999999999999+99999+99999999999ADDGP10060000002000000002000000002000GR100600000900009
0054723346038112003020912009+35600-088917NSRDB+013299999V020999999999999999999999999999+99999+99999999999ADDGP10060000002000000002000000002000GR100600000900009
0054723346038112003020912009+35600-088917NSRDB+013299999V020999999999999999999999999999+99999+99999999999ADDGP10060000002000000002000000002000GR100600000900009
0054723346038112003020912009+35600-088917NSRDB+013299999V020999999999999999999999999999+99999+99999999999ADDGP10060000002000000002000000002000GR100600000900009
0054723346038112003020912009+35600-088917NSRDB+013299999V020999999999999999999999999999+99999+99999999999ADDGP10060000002000000002000000002000GR100600000900009
0054723346038112003020912009+35600-088917NSRDB+013299999V020999999999999999999999999999+99999+99999999999ADDGP10060000002000000002000000002000GR100600000900009
0054723346038112003020912009+35600-088917NSRDB+013299999V020999999999999999999999999999+99999+99999999999ADDGP10060000002000000002000000002000GR100600000900009
0054723346038112003020912009+35600-088917NSRDB+013299999V020999999999999999999999999999+99999+99999999999ADDGP10060000002000000002000000002000GR100600000900009
0054723346038112003020912009+35600-088917NSRDB+013299999V020999999999999999999999999999+99999+99999999999ADDGP10060000002000000002000000002000GR100600000900009
0054723346038112003020912009+35600-088917NSRDB+013299999V020999999999999999999999999999+99999+99999999999ADDGP10060000002000000002000000002000GR100600000900009
0054723346038112003020912009+35600-088917NSRDB+013299999V020999999999999999999999999999+99999+99999999999ADDGP10060000002000000002000000002000GR100600000900009
0054723346038112003020912009+35600-088917NSRDB+013299999V020999999999999999999999999999+99999+99999999999ADDGP10060000002000000002000000002000GR100600000900009
0054723346038112003020912009+35600-088917NSRDB+013299999V020999999999999999999999999999+99999+99999999999ADDGP10060000002000000002000000002000GR100600000900009
0054723346038112003020912009+35600-088917NSRDB+013299999V020999999999999999999999999999+99999+99999999999ADDGP10060000002000000002000000002000GR100600000900009
0054723346038112003020912009+35600-088917NSRDB+013299999V020999999999999999999999999999+99999+99999999999ADDGP10060000002000000002000000002000GR100600000900009
0054723346038112003020912009+35600-088917NSRDB+013299999V020999999999999999999999999999+99999+99999999999ADDGP10060000002000000002000000002000GR100600000900009
0054723346038112003020912009+35600-088917NSRDB+013299999V020999999999999999999999999999+99999+99999999999ADDGP10060000002000000002000000002000GR100600000900009
0054723346038112003020912009+35600-088917NSRDB+013299999V020999999999999999999999999999+99999+99999999999ADDGP10060000002000000002000000002000GR100600000900009
0054723346038112003020912009+35600-088917NSRDB+013299999V020999999999999999999999999999+99999+99999999999ADDGP10060000002000000002000000002000GR100600000900009
0054723346038112003020912009+35600-088917NSRDB+013299999V020999999999999999999999999999+99999+99999999999ADDGP10060000002000000002000000002000GR100600000900009
0054723346038112003020912009+35600-088917NSRDB+013299999V020999999999999999999999999999+99999+99999999999ADDGP10060000002000000002000000002000GR100600000900009
0054723346038112003020912009+35600-088917NSRDB+013299999V020999999999999999999999999999+99999+99999999999ADDGP10060000002000000002000000002000GR100600000900009
0054723346038112003020912009+35600-088917NSRDB+013299999V020999999999999999999999999999+99999+99999999999ADDGP10060000002000000002000000002000GR100600000900009
0054723346038112003020912009+35600-088917NSRDB+013299999V020999999999999999999999999999+99999+99999999999ADDGP10060000002000000002000000002000GR100600000900009
0054723346038112003020912009+35600-088917NSRDB+013299999V020999999999999999999999999999+99999+99999999999ADDGP10060000002000000002000000002000GR100600000900009
0054723346038112003020912009+35600-088917NSRDB+013299999V020999999999999999999999999999+99999+99999999999ADDGP10060000002000000002000000002000GR100600000900009
0054723346038112003020912009+35600-088917NSRDB+013299999V020999999999999999999999999999+99999+99999999999ADDGP10060000002000000002000000002000GR100600000900009
0054723346038112003020912009+35600-088917NSRDB+013299999V020999999999999999999999999999+99999+99999999999ADDGP10060000002000000002000000002000GR100600000900009
0054723346038112003020912009+35600-088917NSRDB+013299999V020999999999999999999999999999+99999+99999999999ADDGP10060000002000000002000000002000GR100600000900009
0054723346038112003020912009+35600-088917NSRDB+013299999V020999999999999999999999999999+99999+99999999999ADDGP10060000002000000002000000002000GR100600000900009
0054723346038112003020912009+35600-088917NSRDB+013299999V020999999999999999999999999999+99999+99999999999ADDGP10060000002000000002000000002000GR100600000900009
0054723346038112003020912009+35600-088917NSRDB+013299999V020999999999999999999999999999+99999+99999999999ADDGP10060000002000000002000000002000GR100600000900009
0054723346038112003020912009+35600-088917NSRDB+013299999V020999999999999999999999999999+99999+99999999999ADDGP10060000002000000002000000002000GR100600000900009
0054723346038112003020912009+35600-088917NSRDB+013299999V020999999999999999999999999999+99999+99999999999ADDGP10060000002000000002000000002000GR100600000900009
0054723346038112003020912009+35600-088917NSRDB+013299999V020999999999999999999999999999+99999+99999999999ADDGP10060000002000000002000000002000GR100600000900009
0054723346038112003020912009+35600-088917NSRDB+013299999V020999999999999999999999999999+99999+99999999999ADDGP10060000002000000002000000002000GR100600000900009
0054723346038112003020912009+35600-088917NSRDB+013299999V020999999999999999999999999999+99999+99999999999ADDGP10060000002000000002000000002000GR100600000900009
0054723346038112003020912009+35600-088917NSRDB+013299999V020999999999999999999999999999+99999+99999999999ADDGP10060000002000000002000000002000GR100600000900009
0054723346038112003020912009+35600-088917NSRDB+013299999V020999999999999999999999999999+99999+99999999999ADDGP10060000002000000002000000002000GR100600000900009
0054723346038112003020912009+35600-088917NSRDB+013299999V020999999999999999999999999999+99999+99999999999ADDGP10060000002000000002000000002000GR100600000900009
0054723346038112003020912009+35600-088917NSRDB+013299999V020999999999999999999999999999+99999+99999999999ADDGP10060000002000000002000000002000GR100600000900009
0054723346038112003020912009+35600-088917NSRDB+013299999V020999999999999999999999999999+99999+99999999999ADDGP10060000002000000002000000002000GR100600000900009
0054723346038112003020912009+35600-088917NSRDB+013299999V020999999999999999999999999999+99999+99999999999ADDGP10060000002000000002000000002000GR100600000900009
0054723346038112003020912009+35600-088917NSRDB+013299999V020999999999999999999999999999+99999+99999999999ADDGP10060000002000000002000000002000GR100600000900009
0054723346038112003020912009+35600-088917NSRDB+013299999V020999999999999999999999999999+99999+99999999999ADDGP10060000002000000002000000002000GR100600000900009
0054723346038112003020912009+35600-088917NSRDB+013299999V020999999999999999999999999999+99999+99999999999ADDGP10060000002000000002000000002000GR100600000900009
0054723346038112003020912009+35600-088917NSRDB+013299999V020999999999999999999999999999+99999+99999999999ADDGP10060000002000000002000000002000GR100600000900009
0054723346038112003020912009+35600-088917NSRDB+013299999V020999999999999999999999999999+99999+99999999999ADDGP10060000002000000002000000002000GR100600000900009
0054723346038112003020912009+35600-088917NSRDB+013299999V020999999999999999999999999999+99999+99999999999ADDGP10060000002000000002000000002000GR100600000900009
0054723346038112003020912009+35600-088917NSRDB+013299999V020999999999999999999999999999+99999+99999999999ADDGP10060000002000000002000000002000GR100600000900009
0054723346038112003020912009+35600-088917NSRDB+013299999V020999999999999999999999999999+99999+99999999999ADDGP10060000002000000002000000002000GR100600000900009
0054723346038112003020912009+35600-088917NSRDB+013299999V020999999999999999999999999999+99999+99999999999ADDGP10060000002000000002000000002000GR100600000900009
0054723346038112003020912009+35600-088917NSRDB+013299999V020999999999999999999999999999+99999+99999999999ADDGP10060000002000000002000000002000GR100600000900009
0054723346038112003020912009+35600-088917NSRDB+013299999V020999999999999999999999999999+99999+99999999999ADDGP10060000002000000002000000002000GR100600000900009
0054723346038112003020912009+35600-088917NSRDB+013299999V020999999999999999999999999999+99999+99999999999ADDGP10060000002000000002000000002000GR100600000900009
0054723346038112003020912009+35600-088917NSRDB+013299999V020999999999999999999999999999+99999+99999999999ADDGP10060000002000000002000000002000GR100600000900009
0054723346038112003020912009+35600-088917NSRDB+013299999V020999999999999999999999999999+99999+99999999999ADDGP10060000002000000002000000002000GR100600000900009
0054723346038112003020912009+35600-088917NSRDB+013299999V020999999999999999999999999999+99999+99999999999ADDGP10060000002000000002000000002000GR100600000900009
0054723346038112003020912009+35600-088917NSRDB+013299999V020999999999999999999999999999+99999+99999999999ADDGP10060000002000000002000000002000GR100600000900009
0054723346038112003020912009+35600-088917NSRDB+013299999V020999999999999999999999999999+99999+99999999999ADDGP10060000002000000002000000002000GR100600000900009
0054723346038112003020912009+35600-088917NSRDB+013299999V020999999999999999999999999999+99999+99999999999ADDGP10060000002000000002000000002000GR100600000900009
0054723346038112003020912009+35600-088917NSRDB+013299999V020999999999999999999999999999+99999+99999999999ADDGP10060000002000000002000000002000GR100600000900009
0054723346038112003020912009+35600-088917NSRDB+013299999V020999999999999999999999999999+99999+99999999999ADDGP10060000002000000002000000002000GR100600000900009
0054723346038112003020912009+35600-088917NSRDB+013299999V020999999999999999999999999999+99999+99999999999ADDGP10060000002000000002000000002000GR100600000900009
0054723346038112003020912009+35600-088917NSRDB+013299999V020999999999999999999999999999+99999+99999999999ADDGP10060000002000000002000000002000GR100600000900009
0054723346038112003020912009+35600-088917NSRDB+013299999V020999999999999999999999999999+99999+99999999999ADDGP10060000002000000002000000002000GR100600000900009
0054723346038112003020912009+35600-088917NSRDB+013299999V020999999999999999999999999999+99999+99999999999ADDGP10060000002000000002000000002000GR100600000900009
0054723346038112003020912009+35600-088917NSRDB+013299999V020999999999999999999999999999+99999+99999999999ADDGP10060000002000000002000000002000GR100600000900009
0054723346038112003020912009+35600-088917NSRDB+013299999V020999999999999999999999999999+99999+99999999999ADDGP10060000002000000002000000002000GR100600000900009
0054723346038112003020912009+35600-088917NSRDB+013299999V020999999999999999999999999999+99999+99999999999ADDGP10060000002000000002000000002000GR100600000900009
0054723346038112003020912009+35600-088917NSRDB+013299999V020999999999999999999999999999+99999+99999999999ADDGP10060000002000000002000000002000GR100600000900009
0054723346038112003020912009+35600-088917NSRDB+013299999V020999999999999999999999999999+99999+99999999999ADDGP10060000002000000002000000002000GR100600000900009
0054723346038112003020912009+35600-088917NSRDB+013299999V020999999999999999999999999999+99999+99999999999ADDGP10060000002000000002000000002000GR100600000900009
0054723346038112003020912009+35600-088917NSRDB+013299999V020999999999999999999999999999+99999+99999999999ADDGP10060000002000000002000000002000GR100600000900009
0054723346038112003020912009+35600-088917NSRDB+013299999V020999999999999999999999999999+99999+99999999999ADDGP10060000002000000002000000002000GR100600000900009
0054723346038112003020912009+35600-088917NSRDB+013299999V020999999999999999999999999999+99999+99999999999ADDGP10060000002000000002000000002000GR100600000900009
0054723346038112003020912009+35600-088917NSRDB+013299999V020999999999999999999999999999+99999+99999999999ADDGP10060000002000000002000000002000GR100600000900009
0054723346038112003020912009+35600-088917NSRDB+013299999V020999999999999999999999999999+99999+99999999999ADDGP10060000002000000002000000002000GR100600000900009
0054723346038112003020912009+35600-088917NSRDB+013299999V020999999999999999999999999999+99999+99999999999ADDGP10060000002000000002000000002000GR100600000900009
0054723346038112003020912009+35600-088917NSRDB+013299999V020999999999999999999999999999+99999+99999999999ADDGP10060000002000000002000000002000GR100600000900009
0054723346038112003020912009+35600-088917NSRDB+013299999V020999999999999999999999999999+99999+99999999999ADDGP10060000002000000002000000002000GR100600000900009
0054723346038112003020912009+35600-088917NSRDB+013299999V020999999999999999999999999999+99999+99999999999ADDGP10060000002000000002000000002000GR100600000900009
0054723346038112003020912009+35600-088917NSRDB+013299999V020999999999999999999999999999+99999+99999999999ADDGP10060000002000000002000000002000GR100600000900009
0054723346038112003020912009+35600-088917NSRDB+013299999V020999999999999999999999999999+99999+99999999999ADDGP10060000002000000002000000002000GR100600000900009
0054723346038112003020912009+35600-088917NSRDB+013299999V020999999999999999999999999999+99999+99999999999ADDGP10060000002000000002000000002000GR100600000900009
0054723346038112003020912009+35600-088917NSRDB+013299999V020999999999999999999999999999+99999+99999999999ADDGP10060000002000000002000000002000GR100600000900009
0054723346038112003020912009+35600-088917NSRDB+013299999V020999999999999999999999999999+99999+99999999999ADDGP10060000002000000002000000002000GR100600000900009
0054723346038112003020912009+35600-088917NSRDB+013299999V020999999999999999999999999999+99999+99999999999ADDGP10060000002000000002000000002000GR100600000900009
0054723346038112003020912009+35600-088917NSRDB+013299999V020999999999999999999999999999+99999+99999999999ADDGP10060000002000000002000000002000GR100600000900009
0054723346038112003020912009+35600-088917NSRDB+013299999V020999999999999999999999999999+99999+99999999999ADDGP10060000002000000002000000002000GR100600000900009
0054723346038112003020912009+35600-088917NSRDB+013299999V020999999999999999999999999999+99999+99999999999ADDGP10060000002000000002000000002000GR100600000900009
0054723346038112003020912009+35600-088917NSRDB+013299999V020999999999999999999999999999+99999+99999999999ADDGP10060000002000000002000000002000GR100600000900009
0054723346038112003020912009+35600-088917NSRDB+013299999V020999999999999999999999999999+99999+99999999999ADDGP10060000002000000002000000002000GR100600000900009
0054723346038112003020912009+35600-088917NSRDB+013299999V020999999999999999999999999999+99999+99999999999ADDGP10060000002000000002000000002000GR100600000900009
0054723346038112003020912009+35600-088917NSRDB+013299999V020999999999999999999999999999+99999+99999999999ADDGP10060000002000000002000000002000GR100600000900009
0054723346038112003020912009+35600-088917NSRDB+013299999V020999999999999999999999999999+99999+99999999999ADDGP10060000002000000002000000002000GR100600000900009
0054723346038112003020912009+35600-088917NSRDB+013299999V020999999999999999999999999999+99999+99999999999ADDGP10060000002000000002000000002000GR100600000900009
0054723346038112003020912009+35600-088917NSRDB+013299999V020999999999999999999999999999+99999+99999999999ADDGP10060000002000000002000000002000GR100600000900009
0054723346038112003020912009+35600-088917NSRDB+013299999V020999999999999999999999999999+99999+99999999999ADDGP10060000002000000002000000002000GR100600000900009
0054723346038112003020912009+35600-088917NSRDB+013299999V020999999999999999999999999999+99999+99999999999ADDGP10060000002000000002000000002000GR100600000900009
0054723346038112003020912009+35600-088917NSRDB+013299999V020999999999999999999999999999+99999+99999999999ADDGP10060000002000000002000000002000GR100600000900009
0054723346038112003020912009+35600-088917NSRDB+013299999V020999999999999999999999999999+99999+99999999999ADDGP10060000002000000002000000002000GR100600000900009
0054723346038112003020912009+35600-088917NSRDB+013299999V020999999999999999999999999999+99999+99999999999ADDGP10060000002000000002000000002000GR100600000900009
0054723346038112003020912009+35600-088917NSRDB+013299999V020999999999999999999999999999+99999+99999999999ADDGP10060000002000000002000000002000GR100600000900009
0054723346038112003020912009+35600-088917NSRDB+013299999V020999999999999999999999999999+99999+99999999999ADDGP10060000002000000002000000002000GR100600000900009
0054723346038112003020912009+35600-088917NSRDB+013299999V020999999999999999999999999999+99999+99999999999ADDGP10060000002000000002000000002000GR100600000900009
0054723346038112003020912009+35600-088917NSRDB+013299999V020999999999999999999999999999+99999+99999999999ADDGP10060000002000000002000000002000GR100600000900009
0054723346038112003020912009+35600-088917NSRDB+013299999V020999999999999999999999999999+99999+99999999999ADDGP10060000002000000002000000002000GR100600000900009
0054723346038112003020912009+35600-088917NSRDB+013299999V020999999999999999999999999999+99999+99999999999ADDGP10060000002000000002000000002000GR100600000900009
0054723346038112003020912009+35600-088917NSRDB+013299999V020999999999999999999999999999+99999+99999999999ADDGP10060000002000000002000000002000GR100600000900009
0054723346038112003020912009+35600-088917NSRDB+013299999V020999999999999999999999999999+99999+99999999999ADDGP10060000002000000002000000002000GR100600000900009
0054723346038112003020912009+35600-088917NSRDB+013299999V020999999999999999999999999999+99999+99999999999ADDGP10060000002000000002000000002000GR100600000900009
0054723346038112003020912009+35600-088917NSRDB+013299999V020999999999999999999999999999+99999+99999999999ADDGP10060000002000000002000000002000GR100600000900009
0054723346038112003020912009+35600-088917NSRDB+013299999V020999999999999999999999999999+99999+99999999999ADDGP10060000002000000002000000002000GR100600000900009
0054723346038112003020912009+35600-088917NSRDB+013299999V020999999999999999999999999999+99999+99999999999ADDGP10060000002000000002000000002000GR100600000900009
0054723346038112003020912009+35600-088917NSRDB+013299999V020999999999999999999999999999+99999+99999999999ADDGP10060000002000000002000000002000GR100600000900009
0054723346038112003020912009+35600-088917NSRDB+013299999V020999999999999999999999999999+99999+99999999999ADDGP10060000002000000002000000002000GR100600000900009
0054723346038112003020912009+35600-088917NSRDB+013299999V020999999999999999999999999999+99999+99999999999ADDGP10060000002000000002000000002000GR100600000900009
0054723346038112003020912009+35600-088917NSRDB+013299999V020999999999999999999999999999+99999+99999999999ADDGP10060000002000000002000000002000GR100600000900009
0054723346038112003020912009+35600-088917NSRDB+013299999V020999999999999999999999999999+99999+99999999999ADDGP10060000002000000002000000002000GR100600000900009
0054723346038112003020912009+35600-088917NSRDB+013299999V020999999999999999999999999999+99999+99999999999ADDGP10060000002000000002000000002000GR100600000900009
0054723346038112003020912009+35600-088917NSRDB+013299999V020999999999999999999999999999+99999+99999999999ADDGP10060000002000000002000000002000GR100600000900009
0054723346038112003020912009+35600-088917NSRDB+013299999V020999999999999999999999999999+99999+99999999999ADDGP10060000002000000002000000002000GR100600000900009
0054723346038112003020912009+35600-088917NSRDB+013299999V020999999999999999999999999999+99999+99999999999ADDGP10060000002000000002000000002000GR100600000900009
0054723346038112003020912009+35600-088917NSRDB+013299999V020999999999999999999999999999+99999+99999999999ADDGP10060000002000000002000000002000GR100600000900009
0054723346038112003020912009+35600-088917NSRDB+013299999V020999999999999999999999999999+99999+99999999999ADDGP10060000002000000002000000002000GR100600000900009
0054723346038112003020912009+35600-088917NSRDB+013299999V020999999999999999999999999999+99999+99999999999ADDGP10060000002000000002000000002000GR100600000900009
0054723346038112003020912009+35600-088917NSRDB+013299999V020999999999999999999999999999+99999+99999999999ADDGP10060000002000000002000000002000GR100600000900009
0054723346038112003020912009+35600-088917NSRDB+013299999V020999999999999999999999999999+99999+99999999999ADDGP10060000002000000002000000002000GR100600000900009
0054723346038112003020912009+35600-088917NSRDB+013299999V020999999999999999999999999999+99999+99999999999ADDGP10060000002000000002000000002000GR100600000900009
0054723346038112003020912009+35600-088917NSRDB+013299999V020999999999999999999999999999+99999+99999999999ADDGP10060000002000000002000000002000GR100600000900009
0054723346038112003020912009+35600-088917NSRDB+013299999V020999999999999999999999999999+99999+99999999999ADDGP10060000002000000002000000002000GR100600000900009
0054723346038112003020912009+35600-088917NSRDB+013299999V020999999999999999999999999999+99999+99999999999ADDGP10060000002000000002000000002000GR100600000900009
0054723346038112003020912009+35600-088917NSRDB+013299999V020999999999999999999999999999+99999+99999999999ADDGP10060000002000000002000000002000GR100600000900009
0054723346038112003020912009+35600-088917NSRDB+013299999V020999999999999999999999999999+99999+99999999999ADDGP10060000002000000002000000002000GR100600000900009
0054723346038112003020912009+35600-088917NSRDB+013299999V020999999999999999999999999999+99999+99999999999ADDGP10060000002000000002000000002000GR100600000900009
0054723346038112003020912009+35600-088917NSRDB+013299999V020999999999999999999999999999+99999+99999999999ADDGP10060000002000000002000000002000GR100600000900009
0054723346038112003020912009+35600-088917NSRDB+013299999V020999999999999999999999999999+99999+99999999999ADDGP10060000002000000002000000002000GR100600000900009
0054723346038112003020912009+35600-088917NSRDB+013299999V020999999999999999999999999999+99999+99999999999ADDGP10060000002000000002000000002000GR100600000900009
0054723346038112003020912009+35600-088917NSRDB+013299999V020999999999999999999999999999+99999+99999999999ADDGP10060000002000000002000000002000GR100600000900009
0054723346038112003020912009+35600-088917NSRDB+013299999V020999999999999999999999999999+99999+99999999999ADDGP10060000002000000002000000002000GR100600000900009
0054723346038112003020912009+35600-088917NSRDB+013299999V020999999999999999999999999999+99999+99999999999ADDGP10060000002000000002000000002000GR100600000900009
0054723346038112003020912009+35600-088917NSRDB+013299999V020999999999999999999999999999+99999+99999999999ADDGP10060000002000000002000000002000GR100600000900009
0054723346038112003020912009+35600-088917NSRDB+013299999V020999999999999999999999999999+99999+99999999999ADDGP10060000002000000002000000002000GR100600000900009
0054723346038112003020912009+35600-088917NSRDB+013299999V020999999999999999999999999999+99999+99999999999ADDGP10060000002000000002000000002000GR100600000900009
0054723346038112003020912009+35600-088917NSRDB+013299999V020999999999999999999999999999+99999+99999999999ADDGP10060000002000000002000000002000GR100600000900009
0054723346038112003020912009+35600-088917NSRDB+013299999V020999999999999999999999999999+99999+99999999999ADDGP10060000002000000002000000002000GR100600000900009
0054723346038112003020912009+35600-088917NSRDB+013299999V020999999999999999999999999999+99999+99999999999ADDGP10060000002000000002000000002000GR100600000900009
0054723346038112003020912009+35600-088917NSRDB+013299999V020999999999999999999999999999+99999+99999999999ADDGP10060000002000000002000000002000GR100600000900009
0054723346038112003020912009+35600-088917NSRDB+013299999V020999999999999999999999999999+99999+99999999999ADDGP10060000002000000002000000002000GR100600000900009
0054723346038112003020912009+35600-088917NSRDB+013299999V020999999999999999999999999999+99999+99999999999ADDGP10060000002000000002000000002000GR100600000900009
0054723346038112003020912009+35600-088917NSRDB+013299999V020999999999999999999999999999+99999+99999999999ADDGP10060000002000000002000000002000GR100600000900009
0054723346038112003020912009+35600-088917NSRDB+013299999V020999999999999999999999999999+99999+99999999999ADDGP10060000002000000002000000002000GR100600000900009
0054723346038112003020912009+35600-088917NSRDB+013299999V020999999999999999999999999999+99999+99999999999ADDGP10060000002000000002000000002000GR100600000900009
0054723346038112003020912009+35600-088917NSRDB+013299999V020999999999999999999999999999+99999+99999999999ADDGP10060000002000000002000000002000GR100600000900009
0054723346038112003020912009+35600-088917NSRDB+013299999V020999999999999999999999999999+99999+99999999999ADDGP10060000002000000002000000002000GR100600000900009
0054723346038112003020912009+35600-088917NSRDB+013299999V020999999999999999999999999999+99999+99999999999ADDGP10060000002000000002000000002000GR100600000900009
0054723346038112003020912009+35600-088917NSRDB+013299999V020999999999999999999999999999+99999+99999999999ADDGP10060000002000000002000000002000GR100600000900009
0054723346038112003020912009+35600-088917NSRDB+013299999V020999999999999999999999999999+99999+99999999999ADDGP10060000002000000002000000002000GR100600000900009
0054723346038112003020912009+35600-088917NSRDB+013299999V020999999999999999999999999999+99999+99999999999ADDGP10060000002000000002000000002000GR100600000900009
0054723346038112003020912009+35600-088917NSRDB+013299999V020999999999999999999999999999+99999+99999999999ADDGP10060000002000000002000000002000GR100600000900009
0054723346038112003020912009+35600-088917NSRDB+013299999V020999999999999999999999999999+99999+99999999999ADDGP10060000002000000002000000002000GR100600000900009
0054723346038112003020912009+35600-088917NSRDB+013299999V020999999999999999999999999999+99999+99999999999ADDGP10060000002000000002000000002000GR100600000900009
0054723346038112003020912009+35600-088917NSRDB+013299999V020999999999999999999999999999+99999+99999999999ADDGP10060000002000000002000000002000GR100600000900009
0054723346038112003020912009+35600-088917NSRDB+013299999V020999999999999999999999999999+99999+99999999999ADDGP10060000002000000002000000002000GR100600000900009
0054723346038112003020912009+35600-088917NSRDB+013299999V020999999999999999999999999999+99999+99999999999ADDGP10060000002000000002000000002000GR100600000900009
0054723346038112003020912009+35600-088917NSRDB+013299999V020999999999999999999999999999+99999+99999999999ADDGP10060000002000000002000000002000GR100600000900009
0054723346038112003020912009+35600-088917NSRDB+013299999V020999999999999999999999999999+99999+99999999999ADDGP10060000002000000002000000002000GR100600000900009
0054723346038112003020912009+35600-088917NSRDB+013299999V020999999999999999999999999999+99999+99999999999ADDGP10060000002000000002000000002000GR100600000900009
0054723346038112003020912009+35600-088917NSRDB+013299999V020999999999999999999999999999+99999+99999999999ADDGP10060000002000000002000000002000GR100600000900009
0054723346038112003020912009+35600-088917NSRDB+013299999V020999999999999999999999999999+99999+99999999999ADDGP10060000002000000002000000002000GR100600000900009
0054723346038112003020912009+35600-088917NSRDB+013299999V020999999999999999999999999999+99999+99999999999ADDGP10060000002000000002000000002000GR100600000900009
0054723346038112003020912009+35600-088917NSRDB+013299999V020999999999999999999999999999+99999+99999999999ADDGP10060000002000000002000000002000GR100600000900009
0054723346038112003020912009+35600-088917NSRDB+013299999V020999999999999999999999999999+99999+99999999999ADDGP10060000002000000002000000002000GR100600000900009
0054723346038112003020912009+35600-088917NSRDB+013299999V020999999999999999999999999999+99999+99999999999ADDGP10060000002000000002000000002000GR100600000900009
0054723346038112003020912009+35600-088917NSRDB+013299999V020999999999999999999999999999+99999+99999999999ADDGP10060000002000000002000000002000GR100600000900009
0054723346038112003020912009+35600-088917NSRDB+013299999V020999999999999999999999999999+99999+99999999999ADDGP10060000002000000002000000002000GR100600000900009
0054723346038112003020912009+35600-088917NSRDB+013299999V020999999999999999999999999999+99999+99999999999ADDGP10060000002000000002000000002000GR100600000900009
0054723346038112003020912009+35600-088917NSRDB+013299999V020999999999999999999999999999+99999+99999999999ADDGP10060000002000000002000000002000GR100600000900009
0054723346038112003020912009+35600-088917NSRDB+013299999V020999999999999999999999999999+99999+99999999999ADDGP10060000002000000002000000002000GR100600000900009
0054723346038112003020912009+35600-088917NSRDB+013299999V020999999999999999999999999999+99999+99999999999ADDGP10060000002000000002000000002000GR100600000900009
0054723346038112003020912009+35600-088917NSRDB+013299999V020999999999999999999999999999+99999+99999999999ADDGP10060000002000000002000000002000GR100600000900009
0054723346038112003020912009+35600-088917NSRDB+013299999V020999999999999999999999999999+99999+99999999999ADDGP10060000002000000002000000002000GR100600000900009
0054723346038112003020912009+35600-088917NSRDB+013299999V020999999999999999999999999999+99999+99999999999ADDGP10060000002000000002000000002000GR100600000900009
0054723346038112003020912009+35600-088917NSRDB+013299999V020999999999999999999999999999+99999+99999999999ADDGP10060000002000000002000000002000GR100600000900009
0054723346038112003020912009+35600-088917NSRDB+013299999V020999999999999999999999999999+99999+99999999999ADDGP10060000002000000002000000002000GR100600000900009
0054723346038112003020912009+35600-088917NSRDB+013299999V020999999999999999999999999999+99999+99999999999ADDGP10060000002000000002000000002000GR100600000900009
0054723346038112003020912009+35600-088917NSRDB+013299999V020999999999999999999999999999+99999+99999999999ADDGP10060000002000000002000000002000GR100600000900009
0054723346038112003020912009+35600-088917NSRDB+013299999V020999999999999999999999999999+99999+99999999999ADDGP10060000002000000002000000002000GR100600000900009
0054723346038112003020912009+35600-088917NSRDB+013299999V020999999999999999999999999999+99999+99999999999ADDGP10060000002000000002000000002000GR100600000900009
0054723346038112003020912009+35600-088917NSRDB+013299999V020999999999999999999999999999+99999+99999999999ADDGP10060000002000000002000000002000GR100600000900009
0054723346038112003020912009+35600-088917NSRDB+013299999V020999999999999999999999999999+99999+99999999999ADDGP10060000002000000002000000002000GR100600000900009
0054723346038112003020912009+35600-088917NSRDB+013299999V020999999999999999999999999999+99999+99999999999ADDGP10060000002000000002000000002000GR100600000900009
0054723346038112003020912009+35600-088917NSRDB+013299999V020999999999999999999999999999+99999+99999999999ADDGP10060000002000000002000000002000GR100600000900009
0054723346038112003020912009+35600-088917NSRDB+013299999V020999999999999999999999999999+99999+99999999999ADDGP10060000002000000002000000002000GR100600000900009
0054723346038112003020912009+35600-088917NSRDB+013299999V020999999999999999999999999999+99999+99999999999ADDGP10060000002000000002000000002000GR100600000900009
0054723346038112003020912009+35600-088917NSRDB+013299999V020999999999999999999999999999+99999+99999999999ADDGP10060000002000000002000000002000GR100600000900009
0054723346038112003020912009+35600-088917NSRDB+013299999V020999999999999999999999999999+99999+99999999999ADDGP10060000002000000002000000002000GR100600000900009
0054723346038112003020912009+35600-088917NSRDB+013299999V020999999999999999999999999999+99999+99999999999ADDGP10060000002000000002000000002000GR100600000900009
0054723346038112003020912009+35600-088917NSRDB+013299999V020999999999999999999999999999+99999+99999999999ADDGP10060000002000000002000000002000GR100600000900009
0054723346038112003020912009+35600-088917NSRDB+013299999V020999999999999999999999999999+99999+99999999999ADDGP10060000002000000002000000002000GR100600000900009
0054723346038112003020912009+35600-088917NSRDB+013299999V020999999999999999999999999999+99999+99999999999ADDGP10060000002000000002000000002000GR100600000900009
0054723346038112003020912009+35600-088917NSRDB+013299999V020999999999999999999999999999+99999+99999999999ADDGP10060000002000000002000000002000GR100600000900009
0054723346038112003020912009+35600-088917NSRDB+013299999V020999999999999999999999999999+99999+99999999999ADDGP10060000002000000002000000002000GR100600000900009
0054723346038112003020912009+35600-088917NSRDB+013299999V020999999999999999999999999999+99999+99999999999ADDGP10060000002000000002000000002000GR100600000900009
0054723346038112003020912009+35600-088917NSRDB+013299999V020999999999999999999999999999+99999+99999999999ADDGP10060000002000000002000000002000GR100600000900009
0054723346038112003020912009+35600-088917NSRDB+013299999V020999999999999999999999999999+99999+99999999999ADDGP10060000002000000002000000002000GR100600000900009
0054723346038112003020912009+35600-088917NSRDB+013299999V020999999999999999999999999999+99999+99999999999ADDGP10060000002000000002000000002000GR100600000900009
0054723346038112003020912009+35600-088917NSRDB+013299999V020999999999999999999999999999+99999+99999999999ADDGP10060000002000000002000000002000GR100600000900009
0054723346038112003020912009+35600-088917NSRDB+013299999V020999999999999999999999999999+99999+99999999999ADDGP10060000002000000002000000002000GR100600000900009
0054723346038112003020912009+35600-088917NSRDB+013299999V020999999999999999999999999999+99999+99999999999ADDGP10060000002000000002000000002000GR100600000900009
0054723346038112003020912009+35600-088917NSRDB+013299999V020999999999999999999999999999+99999+99999999999ADDGP10060000002000000002000000002000GR100600000900009
0054723346038112003020912009+35600-088917NSRDB+013299999V020999999999999999999999999999+99999+99999999999ADDGP10060000002000000002000000002000GR100600000900009
0054723346038112003020912009+35600-088917NSRDB+013299999V020999999999999999999999999999+99999+99999999999ADDGP10060000002000000002000000002000GR100600000900009
0054723346038112003020912009+35600-088917NSRDB+013299999V020999999999999999999999999999+99999+99999999999ADDGP10060000002000000002000000002000GR100600000900009
0054723346038112003020912009+35600-088917NSRDB+013299999V020999999999999999999999999999+99999+99999999999ADDGP10060000002000000002000000002000GR100600000900009
0054723346038112003020912009+35600-088917NSRDB+013299999V020999999999999999999999999999+99999+99999999999ADDGP10060000002000000002000000002000GR100600000900009
0054723346038112003020912009+35600-088917NSRDB+013299999V020999999999999999999999999999+99999+99999999999ADDGP10060000002000000002000000002000GR100600000900009
0054723346038112003020912009+35600-088917NSRDB+013299999V020999999999999999999999999999+99999+99999999999ADDGP10060000002000000002000000002000GR100600000900009
0054723346038112003020912009+35600-088917NSRDB+013299999V020999999999999999999999999999+99999+99999999999ADDGP10060000002000000002000000002000GR100600000900009
0054723346038112003020912009+35600-088917NSRDB+013299999V020999999999999999999999999999+99999+99999999999ADDGP10060000002000000002000000002000GR100600000900009
0054723346038112003020912009+35600-088917NSRDB+013299999V020999999999999999999999999999+99999+99999999999ADDGP10060000002000000002000000002000GR100600000900009
0054723346038112003020912009+35600-088917NSRDB+013299999V020999999999999999999999999999+99999+99999999999ADDGP10060000002000000002000000002000GR100600000900009
0054723346038112003020912009+35600-088917NSRDB+013299999V020999999999999999999999999999+99999+99999999999ADDGP10060000002000000002000000002000GR100600000900009
0054723346038112003020912009+35600-088917NSRDB+013299999V020999999999999999999999999999+99999+99999999999ADDGP10060000002000000002000000002000GR100600000900009
0054723346038112003020912009+35600-088917NSRDB+013299999V020999999999999999999999999999+99999+99999999999ADDGP10060000002000000002000000002000GR100600000900009
0054723346038112003020912009+35600-088917NSRDB+013299999V020999999999999999999999999999+99999+99999999999ADDGP10060000002000000002000000002000GR100600000900009
0054723346038112003020912009+35600-088917NSRDB+013299999V020999999999999999999999999999+99999+99999999999ADDGP10060000002000000002000000002000GR100600000900009
0054723346038112003020912009+35600-088917NSRDB+013299999V020999999999999999999999999999+99999+99999999999ADDGP10060000002000000002000000002000GR100600000900009
0054723346038112003020912009+35600-088917NSRDB+013299999V020999999999999999999999999999+99999+99999999999ADDGP10060000002000000002000000002000GR100600000900009
0054723346038112003020912009+35600-088917NSRDB+013299999V020999999999999999999999999999+99999+99999999999ADDGP10060000002000000002000000002000GR100600000900009
0054723346038112003020912009+35600-088917NSRDB+013299999V020999999999999999999999999999+99999+99999999999ADDGP10060000002000000002000000002000GR100600000900009
0054723346038112003020912009+35600-088917NSRDB+013299999V020999999999999999999999999999+99999+99999999999ADDGP10060000002000000002000000002000GR100600000900009
0054723346038112003020912009+35600-088917NSRDB+013299999V020999999999999999999999999999+99999+99999999999ADDGP10060000002000000002000000002000GR100600000900009
0054723346038112003020912009+35600-088917NSRDB+013299999V020999999999999999999999999999+99999+99999999999ADDGP10060000002000000002000000002000GR100600000900009
0054723346038112003020912009+35600-088917NSRDB+013299999V020999999999999999999999999999+99999+99999999999ADDGP10060000002000000002000000002000GR100600000900009
0054723346038112003020912009+35600-088917NSRDB+013299999V020999999999999999999999999999+99999+99999999999ADDGP10060000002000000002000000002000GR100600000900009
0054723346038112003020912009+35600-088917NSRDB+013299999V020999999999999999999999999999+99999+99999999999ADDGP10060000002000000002000000002000GR100600000900009
0054723346038112003020912009+35600-088917NSRDB+013299999V020999999999999999999999999999+99999+99999999999ADDGP10060000002000000002000000002000GR100600000900009
0054723346038112003020912009+35600-088917NSRDB+013299999V020999999999999999999999999999+99999+99999999999ADDGP10060000002000000002000000002000GR100600000900009
0054723346038112003020912009+35600-088917NSRDB+013299999V020999999999999999999999999999+99999+99999999999ADDGP10060000002000000002000000002000GR100600000900009
0054723346038112003020912009+35600-088917NSRDB+013299999V020999999999999999999999999999+99999+99999999999ADDGP10060000002000000002000000002000GR100600000900009
0054723346038112003020912009+35600-088917NSRDB+013299999V020999999999999999999999999999+99999+99999999999ADDGP10060000002000000002000000002000GR100600000900009
0054723346038112003020912009+35600-088917NSRDB+013299999V020999999999999999999999999999+99999+99999999999ADDGP10060000002000000002000000002000GR100600000900009
0054723346038112003020912009+35600-088917NSRDB+013299999V020999999999999999999999999999+99999+99999999999ADDGP10060000002000000002000000002000GR100600000900009
0054723346038112003020912009+35600-088917NSRDB+013299999V020999999999999999999999999999+99999+99999999999ADDGP10060000002000000002000000002000GR100600000900009
0054723346038112003020912009+35600-088917NSRDB+013299999V020999999999999999999999999999+99999+99999999999ADDGP10060000002000000002000000002000GR100600000900009
0054723346038112003020912009+35600-088917NSRDB+013299999V020999999999999999999999999999+99999+99999999999ADDGP10060000002000000002000000002000GR100600000900009
0054723346038112003020912009+35600-088917NSRDB+013299999V020999999999999999999999999999+99999+99999999999ADDGP10060000002000000002000000002000GR100600000900009
0054723346038112003020912009+35600-088917NSRDB+013299999V020999999999999999999999999999+99999+99999999999ADDGP10060000002000000002000000002000GR100600000900009
0054723346038112003020912009+35600-088917NSRDB+013299999V020999999999999999999999999999+99999+99999999999ADDGP10060000002000000002000000002000GR100600000900009
0054723346038112003020912009+35600-088917NSRDB+013299999V020999999999999999999999999999+99999+99999999999ADDGP10060000002000000002000000002000GR100600000900009
0054723346038112003020912009+35600-088917NSRDB+013299999V020999999999999999999999999999+99999+99999999999ADDGP10060000002000000002000000002000GR100600000900009
0054723346038112003020912009+35600-088917NSRDB+013299999V020999999999999999999999999999+99999+99999999999ADDGP10060000002000000002000000002000GR100600000900009
0054723346038112003020912009+35600-088917NSRDB+013299999V020999999999999999999999999999+99999+99999999999ADDGP10060000002000000002000000002000GR100600000900009
0054723346038112003020912009+35600-088917NSRDB+013299999V020999999999999999999999999999+99999+99999999999ADDGP10060000002000000002000000002000GR100600000900009
0054723346038112003020912009+35600-088917NSRDB+013299999V020999999999999999999999999999+99999+99999999999ADDGP10060000002000000002000000002000GR100600000900009
0054723346038112003020912009+35600-088917NSRDB+013299999V020999999999999999999999999999+99999+99999999999ADDGP10060000002000000002000000002000GR100600000900009
0054723346038112003020912009+35600-088917NSRDB+013299999V020999999999999999999999999999+99999+99999999999ADDGP10060000002000000002000000002000GR100600000900009
0054723346038112003020912009+35600-088917NSRDB+013299999V020999999999999999999999999999+99999+99999999999ADDGP10060000002000000002000000002000GR100600000900009
0054723346038112003020912009+35600-088917NSRDB+013299999V020999999999999999999999999999+99999+99999999999ADDGP10060000002000000002000000002000GR100600000900009
0054723346038112003020912009+35600-088917NSRDB+013299999V020999999999999999999999999999+99999+99999999999ADDGP10060000002000000002000000002000GR100600000900009
0054723346038112003020912009+35600-088917NSRDB+013299999V020999999999999999999999999999+99999+99999999999ADDGP10060000002000000002000000002000GR100600000900009
0054723346038112003020912009+35600-088917NSRDB+013299999V020999999999999999999999999999+99999+99999999999ADDGP10060000002000000002000000002000GR100600000900009
0054723346038112003020912009+35600-088917NSRDB+013299999V020999999999999999999999999999+99999+99999999999ADDGP10060000002000000002000000002000GR100600000900009
0054723346038112003020912009+35600-088917NSRDB+013299999V020999999999999999999999999999+99999+99999999999ADDGP10060000002000000002000000002000GR100600000900009
0054723346038112003020912009+35600-088917NSRDB+013299999V020999999999999999999999999999+99999+99999999999ADDGP10060000002000000002000000002000GR100600000900009
0054723346038112003020912009+35600-088917NSRDB+013299999V020999999999999999999999999999+99999+99999999999ADDGP10060000002000000002000000002000GR100600000900009
0054723346038112003020912009+35600-088917NSRDB+013299999V020999999999999999999999999999+99999+99999999999ADDGP10060000002000000002000000002000GR100600000900009
0054723346038112003020912009+35600-088917NSRDB+013299999V020999999999999999999999999999+99999+99999999999ADDGP10060000002000000002000000002000GR100600000900009
0054723346038112003020912009+35600-088917NSRDB+013299999V020999999999999999999999999999+99999+99999999999ADDGP10060000002000000002000000002000GR100600000900009
0054723346038112003020912009+35600-088917NSRDB+013299999V020999999999999999999999999999+99999+99999999999ADDGP10060000002000000002000000002000GR100600000900009
0054723346038112003020912009+35600-088917NSRDB+013299999V020999999999999999999999999999+99999+99999999999ADDGP10060000002000000002000000002000GR100600000900009
0054723346038112003020912009+35600-088917NSRDB+013299999V020999999999999999999999999999+99999+99999999999ADDGP10060000002000000002000000002000GR100600000900009
0054723346038112003020912009+35600-088917NSRDB+013299999V020999999999999999999999999999+99999+99999999999ADDGP10060000002000000002000000002000GR100600000900009
0054723346038112003020912009+35600-088917NSRDB+013299999V020999999999999999999999999999+99999+99999999999ADDGP10060000002000000002000000002000GR100600000900009
0054723346038112003020912009+35600-088917NSRDB+013299999V020999999999999999999999999999+99999+99999999999ADDGP10060000002000000002000000002000GR100600000900009
0054723346038112003020912009+35600-088917NSRDB+013299999V020999999999999999999999999999+99999+99999999999ADDGP10060000002000000002000000002000GR100600000900009
0054723346038112003020912009+35600-088917NSRDB+013299999V020999999999999999999999999999+99999+99999999999ADDGP10060000002000000002000000002000GR100600000900009
0054723346038112003020912009+35600-088917NSRDB+013299999V020999999999999999999999999999+99999+99999999999ADDGP10060000002000000002000000002000GR100600000900009
0054723346038112003020912009+35600-088917NSRDB+013299999V020999999999999999999999999999+99999+99999999999ADDGP10060000002000000002000000002000GR100600000900009
0054723346038112003020912009+35600-088917NSRDB+013299999V020999999999999999999999999999+99999+99999999999ADDGP10060000002000000002000000002000GR100600000900009
0054723346038112003020912009+35600-088917NSRDB+013299999V020999999999999999999999999999+99999+99999999999ADDGP10060000002000000002000000002000GR100600000900009
0054723346038112003020912009+35600-088917NSRDB+013299999V020999999999999999999999999999+99999+99999999999ADDGP10060000002000000002000000002000GR100600000900009
0054723346038112003020912009+35600-088917NSRDB+013299999V020999999999999999999999999999+99999+99999999999ADDGP10060000002000000002000000002000GR100600000900009
0054723346038112003020912009+35600-088917NSRDB+013299999V020999999999999999999999999999+99999+99999999999ADDGP10060000002000000002000000002000GR100600000900009
0054723346038112003020912009+35600-088917NSRDB+013299999V020999999999999999999999999999+99999+99999999999ADDGP10060000002000000002000000002000GR100600000900009
0054723346038112003020912009+35600-088917NSRDB+013299999V020999999999999999999999999999+99999+99999999999ADDGP10060000002000000002000000002000GR100600000900009
0054723346038112003020912009+35600-088917NSRDB+013299999V020999999999999999999999999999+99999+99999999999ADDGP10060000002000000002000000002000GR100600000900009
0054723346038112003020912009+35600-088917NSRDB+013299999V020999999999999999999999999999+99999+99999999999ADDGP10060000002000000002000000002000GR100600000900009
0054723346038112003020912009+35600-088917NSRDB+013299999V020999999999999999999999999999+99999+99999999999ADDGP10060000002000000002000000002000GR100600000900009
0054723346038112003020912009+35600-088917NSRDB+013299999V020999999999999999999999999999+99999+99999999999ADDGP10060000002000000002000000002000GR100600000900009
0054723346038112003020912009+35600-088917NSRDB+013299999V020999999999999999999999999999+99999+99999999999ADDGP10060000002000000002000000002000GR100600000900009
0054723346038112003020912009+35600-088917NSRDB+013299999V020999999999999999999999999999+99999+99999999999ADDGP10060000002000000002000000002000GR100600000900009
0054723346038112003020912009+35600-088917NSRDB+013299999V020999999999999999999999999999+99999+99999999999ADDGP10060000002000000002000000002000GR100600000900009
