0054726357999992004010805009+42233-085550NSRDB+027399999V020999999999999999999999999999+99999+99999999999ADDGP10060000002000000002000000002000GR100600000900009
0054726357999992004010805009+42233-085550NSRDB+027399999V020999999999999999999999999999+99999+99999999999ADDGP10060000002000000002000000002000GR100600000900009
0054726357999992004010805009+42233-085550NSRDB+027399999V020999999999999999999999999999+99999+99999999999ADDGP10060000002000000002000000002000GR100600000900009
0054726357999992004010805009+42233-085550NSRDB+027399999V020999999999999999999999999999+99999+99999999999ADDGP10060000002000000002000000002000GR100600000900009
0054726357999992004010805009+42233-085550NSRDB+027399999V020999999999999999999999999999+99999+99999999999ADDGP10060000002000000002000000002000GR100600000900009
0054726357999992004010805009+42233-085550NSRDB+027399999V020999999999999999999999999999+99999+99999999999ADDGP10060000002000000002000000002000GR100600000900009
0054726357999992004010805009+42233-085550NSRDB+027399999V020999999999999999999999999999+99999+99999999999ADDGP10060000002000000002000000002000GR100600000900009
0054726357999992004010805009+42233-085550NSRDB+027399999V020999999999999999999999999999+99999+99999999999ADDGP10060000002000000002000000002000GR100600000900009
0054726357999992004010805009+42233-085550NSRDB+027399999V020999999999999999999999999999+99999+99999999999ADDGP10060000002000000002000000002000GR100600000900009
0054726357999992004010805009+42233-085550NSRDB+027399999V020999999999999999999999999999+99999+99999999999ADDGP10060000002000000002000000002000GR100600000900009
0054726357999992004010805009+42233-085550NSRDB+027399999V020999999999999999999999999999+99999+99999999999ADDGP10060000002000000002000000002000GR100600000900009
0054726357999992004010805009+42233-085550NSRDB+027399999V020999999999999999999999999999+99999+99999999999ADDGP10060000002000000002000000002000GR100600000900009
0054726357999992004010805009+42233-085550NSRDB+027399999V020999999999999999999999999999+99999+99999999999ADDGP10060000002000000002000000002000GR100600000900009
0054726357999992004010805009+42233-085550NSRDB+027399999V020999999999999999999999999999+99999+99999999999ADDGP10060000002000000002000000002000GR100600000900009
0054726357999992004010805009+42233-085550NSRDB+027399999V020999999999999999999999999999+99999+99999999999ADDGP10060000002000000002000000002000GR100600000900009
0054726357999992004010805009+42233-085550NSRDB+027399999V020999999999999999999999999999+99999+99999999999ADDGP10060000002000000002000000002000GR100600000900009
0054726357999992004010805009+42233-085550NSRDB+027399999V020999999999999999999999999999+99999+99999999999ADDGP10060000002000000002000000002000GR100600000900009
0054726357999992004010805009+42233-085550NSRDB+027399999V020999999999999999999999999999+99999+99999999999ADDGP10060000002000000002000000002000GR100600000900009
0054726357999992004010805009+42233-085550NSRDB+027399999V020999999999999999999999999999+99999+99999999999ADDGP10060000002000000002000000002000GR100600000900009
0054726357999992004010805009+42233-085550NSRDB+027399999V020999999999999999999999999999+99999+99999999999ADDGP10060000002000000002000000002000GR100600000900009
0054726357999992004010805009+42233-085550NSRDB+027399999V020999999999999999999999999999+99999+99999999999ADDGP10060000002000000002000000002000GR100600000900009
0054726357999992004010805009+42233-085550NSRDB+027399999V020999999999999999999999999999+99999+99999999999ADDGP10060000002000000002000000002000GR100600000900009
0054726357999992004010805009+42233-085550NSRDB+027399999V020999999999999999999999999999+99999+99999999999ADDGP10060000002000000002000000002000GR100600000900009
0054726357999992004010805009+42233-085550NSRDB+027399999V020999999999999999999999999999+99999+99999999999ADDGP10060000002000000002000000002000GR100600000900009
0054726357999992004010805009+42233-085550NSRDB+027399999V020999999999999999999999999999+99999+99999999999ADDGP10060000002000000002000000002000GR100600000900009
0054726357999992004010805009+42233-085550NSRDB+027399999V020999999999999999999999999999+99999+99999999999ADDGP10060000002000000002000000002000GR100600000900009
0054726357999992004010805009+42233-085550NSRDB+027399999V020999999999999999999999999999+99999+99999999999ADDGP10060000002000000002000000002000GR100600000900009
0054726357999992004010805009+42233-085550NSRDB+027399999V020999999999999999999999999999+99999+99999999999ADDGP10060000002000000002000000002000GR100600000900009
0054726357999992004010805009+42233-085550NSRDB+027399999V020999999999999999999999999999+99999+99999999999ADDGP10060000002000000002000000002000GR100600000900009
0054726357999992004010805009+42233-085550NSRDB+027399999V020999999999999999999999999999+99999+99999999999ADDGP10060000002000000002000000002000GR100600000900009
0054726357999992004010805009+42233-085550NSRDB+027399999V020999999999999999999999999999+99999+99999999999ADDGP10060000002000000002000000002000GR100600000900009
0054726357999992004010805009+42233-085550NSRDB+027399999V020999999999999999999999999999+99999+99999999999ADDGP10060000002000000002000000002000GR100600000900009
0054726357999992004010805009+42233-085550NSRDB+027399999V020999999999999999999999999999+99999+99999999999ADDGP10060000002000000002000000002000GR100600000900009
0054726357999992004010805009+42233-085550NSRDB+027399999V020999999999999999999999999999+99999+99999999999ADDGP10060000002000000002000000002000GR100600000900009
0054726357999992004010805009+42233-085550NSRDB+027399999V020999999999999999999999999999+99999+99999999999ADDGP10060000002000000002000000002000GR100600000900009
0054726357999992004010805009+42233-085550NSRDB+027399999V020999999999999999999999999999+99999+99999999999ADDGP10060000002000000002000000002000GR100600000900009
0054726357999992004010805009+42233-085550NSRDB+027399999V020999999999999999999999999999+99999+99999999999ADDGP10060000002000000002000000002000GR100600000900009
0054726357999992004010805009+42233-085550NSRDB+027399999V020999999999999999999999999999+99999+99999999999ADDGP10060000002000000002000000002000GR100600000900009
0054726357999992004010805009+42233-085550NSRDB+027399999V020999999999999999999999999999+99999+99999999999ADDGP10060000002000000002000000002000GR100600000900009
0054726357999992004010805009+42233-085550NSRDB+027399999V020999999999999999999999999999+99999+99999999999ADDGP10060000002000000002000000002000GR100600000900009
0054726357999992004010805009+42233-085550NSRDB+027399999V020999999999999999999999999999+99999+99999999999ADDGP10060000002000000002000000002000GR100600000900009
0054726357999992004010805009+42233-085550NSRDB+027399999V020999999999999999999999999999+99999+99999999999ADDGP10060000002000000002000000002000GR100600000900009
0054726357999992004010805009+42233-085550NSRDB+027399999V020999999999999999999999999999+99999+99999999999ADDGP10060000002000000002000000002000GR100600000900009
0054726357999992004010805009+42233-085550NSRDB+027399999V020999999999999999999999999999+99999+99999999999ADDGP10060000002000000002000000002000GR100600000900009
0054726357999992004010805009+42233-085550NSRDB+027399999V020999999999999999999999999999+99999+99999999999ADDGP10060000002000000002000000002000GR100600000900009
0054726357999992004010805009+42233-085550NSRDB+027399999V020999999999999999999999999999+99999+99999999999ADDGP10060000002000000002000000002000GR100600000900009
0054726357999992004010805009+42233-085550NSRDB+027399999V020999999999999999999999999999+99999+99999999999ADDGP10060000002000000002000000002000GR100600000900009
0054726357999992004010805009+42233-085550NSRDB+027399999V020999999999999999999999999999+99999+99999999999ADDGP10060000002000000002000000002000GR100600000900009
0054726357999992004010805009+42233-085550NSRDB+027399999V020999999999999999999999999999+99999+99999999999ADDGP10060000002000000002000000002000GR100600000900009
0054726357999992004010805009+42233-085550NSRDB+027399999V020999999999999999999999999999+99999+99999999999ADDGP10060000002000000002000000002000GR100600000900009
0054726357999992004010805009+42233-085550NSRDB+027399999V020999999999999999999999999999+99999+99999999999ADDGP10060000002000000002000000002000GR100600000900009
0054726357999992004010805009+42233-085550NSRDB+027399999V020999999999999999999999999999+99999+99999999999ADDGP10060000002000000002000000002000GR100600000900009
0054726357999992004010805009+42233-085550NSRDB+027399999V020999999999999999999999999999+99999+99999999999ADDGP10060000002000000002000000002000GR100600000900009
0054726357999992004010805009+42233-085550NSRDB+027399999V020999999999999999999999999999+99999+99999999999ADDGP10060000002000000002000000002000GR100600000900009
0054726357999992004010805009+42233-085550NSRDB+027399999V020999999999999999999999999999+99999+99999999999ADDGP10060000002000000002000000002000GR100600000900009
0054726357999992004010805009+42233-085550NSRDB+027399999V020999999999999999999999999999+99999+99999999999ADDGP10060000002000000002000000002000GR100600000900009
0054726357999992004010805009+42233-085550NSRDB+027399999V020999999999999999999999999999+99999+99999999999ADDGP10060000002000000002000000002000GR100600000900009
0054726357999992004010805009+42233-085550NSRDB+027399999V020999999999999999999999999999+99999+99999999999ADDGP10060000002000000002000000002000GR100600000900009
0054726357999992004010805009+42233-085550NSRDB+027399999V020999999999999999999999999999+99999+99999999999ADDGP10060000002000000002000000002000GR100600000900009
0054726357999992004010805009+42233-085550NSRDB+027399999V020999999999999999999999999999+99999+99999999999ADDGP10060000002000000002000000002000GR100600000900009
0054726357999992004010805009+42233-085550NSRDB+027399999V020999999999999999999999999999+99999+99999999999ADDGP10060000002000000002000000002000GR100600000900009
0054726357999992004010805009+42233-085550NSRDB+027399999V020999999999999999999999999999+99999+99999999999ADDGP10060000002000000002000000002000GR100600000900009
0054726357999992004010805009+42233-085550NSRDB+027399999V020999999999999999999999999999+99999+99999999999ADDGP10060000002000000002000000002000GR100600000900009
0054726357999992004010805009+42233-085550NSRDB+027399999V020999999999999999999999999999+99999+99999999999ADDGP10060000002000000002000000002000GR100600000900009
0054726357999992004010805009+42233-085550NSRDB+027399999V020999999999999999999999999999+99999+99999999999ADDGP10060000002000000002000000002000GR100600000900009
0054726357999992004010805009+42233-085550NSRDB+027399999V020999999999999999999999999999+99999+99999999999ADDGP10060000002000000002000000002000GR100600000900009
0054726357999992004010805009+42233-085550NSRDB+027399999V020999999999999999999999999999+99999+99999999999ADDGP10060000002000000002000000002000GR100600000900009
0054726357999992004010805009+42233-085550NSRDB+027399999V020999999999999999999999999999+99999+99999999999ADDGP10060000002000000002000000002000GR100600000900009
0054726357999992004010805009+42233-085550NSRDB+027399999V020999999999999999999999999999+99999+99999999999ADDGP10060000002000000002000000002000GR100600000900009
0054726357999992004010805009+42233-085550NSRDB+027399999V020999999999999999999999999999+99999+99999999999ADDGP10060000002000000002000000002000GR100600000900009
0054726357999992004010805009+42233-085550NSRDB+027399999V020999999999999999999999999999+99999+99999999999ADDGP10060000002000000002000000002000GR100600000900009
0054726357999992004010805009+42233-085550NSRDB+027399999V020999999999999999999999999999+99999+99999999999ADDGP10060000002000000002000000002000GR100600000900009
0054726357999992004010805009+42233-085550NSRDB+027399999V020999999999999999999999999999+99999+99999999999ADDGP10060000002000000002000000002000GR100600000900009
0054726357999992004010805009+42233-085550NSRDB+027399999V020999999999999999999999999999+99999+99999999999ADDGP10060000002000000002000000002000GR100600000900009
0054726357999992004010805009+42233-085550NSRDB+027399999V020999999999999999999999999999+99999+99999999999ADDGP10060000002000000002000000002000GR100600000900009
0054726357999992004010805009+42233-085550NSRDB+027399999V020999999999999999999999999999+99999+99999999999ADDGP10060000002000000002000000002000GR100600000900009
0054726357999992004010805009+42233-085550NSRDB+027399999V020999999999999999999999999999+99999+99999999999ADDGP10060000002000000002000000002000GR100600000900009
0054726357999992004010805009+42233-085550NSRDB+027399999V020999999999999999999999999999+99999+99999999999ADDGP10060000002000000002000000002000GR100600000900009
0054726357999992004010805009+42233-085550NSRDB+027399999V020999999999999999999999999999+99999+99999999999ADDGP10060000002000000002000000002000GR100600000900009
0054726357999992004010805009+42233-085550NSRDB+027399999V020999999999999999999999999999+99999+99999999999ADDGP10060000002000000002000000002000GR100600000900009
0054726357999992004010805009+42233-085550NSRDB+027399999V020999999999999999999999999999+99999+99999999999ADDGP10060000002000000002000000002000GR100600000900009
0054726357999992004010805009+42233-085550NSRDB+027399999V020999999999999999999999999999+99999+99999999999ADDGP10060000002000000002000000002000GR100600000900009
0054726357999992004010805009+42233-085550NSRDB+027399999V020999999999999999999999999999+99999+99999999999ADDGP10060000002000000002000000002000GR100600000900009
0054726357999992004010805009+42233-085550NSRDB+027399999V020999999999999999999999999999+99999+99999999999ADDGP10060000002000000002000000002000GR100600000900009
0054726357999992004010805009+42233-085550NSRDB+027399999V020999999999999999999999999999+99999+99999999999ADDGP10060000002000000002000000002000GR100600000900009
0054726357999992004010805009+42233-085550NSRDB+027399999V020999999999999999999999999999+99999+99999999999ADDGP10060000002000000002000000002000GR100600000900009
0054726357999992004010805009+42233-085550NSRDB+027399999V020999999999999999999999999999+99999+99999999999ADDGP10060000002000000002000000002000GR100600000900009
0054726357999992004010805009+42233-085550NSRDB+027399999V020999999999999999999999999999+99999+99999999999ADDGP10060000002000000002000000002000GR100600000900009
0054726357999992004010805009+42233-085550NSRDB+027399999V020999999999999999999999999999+99999+99999999999ADDGP10060000002000000002000000002000GR100600000900009
0054726357999992004010805009+42233-085550NSRDB+027399999V020999999999999999999999999999+99999+99999999999ADDGP10060000002000000002000000002000GR100600000900009
0054726357999992004010805009+42233-085550NSRDB+027399999V020999999999999999999999999999+99999+99999999999ADDGP10060000002000000002000000002000GR100600000900009
0054726357999992004010805009+42233-085550NSRDB+027399999V020999999999999999999999999999+99999+99999999999ADDGP10060000002000000002000000002000GR100600000900009
0054726357999992004010805009+42233-085550NSRDB+027399999V020999999999999999999999999999+99999+99999999999ADDGP10060000002000000002000000002000GR100600000900009
0054726357999992004010805009+42233-085550NSRDB+027399999V020999999999999999999999999999+99999+99999999999ADDGP10060000002000000002000000002000GR100600000900009
0054726357999992004010805009+42233-085550NSRDB+027399999V020999999999999999999999999999+99999+99999999999ADDGP10060000002000000002000000002000GR100600000900009
0054726357999992004010805009+42233-085550NSRDB+027399999V020999999999999999999999999999+99999+99999999999ADDGP10060000002000000002000000002000GR100600000900009
0054726357999992004010805009+42233-085550NSRDB+027399999V020999999999999999999999999999+99999+99999999999ADDGP10060000002000000002000000002000GR100600000900009
0054726357999992004010805009+42233-085550NSRDB+027399999V020999999999999999999999999999+99999+99999999999ADDGP10060000002000000002000000002000GR100600000900009
0054726357999992004010805009+42233-085550NSRDB+027399999V020999999999999999999999999999+99999+99999999999ADDGP10060000002000000002000000002000GR100600000900009
0054726357999992004010805009+42233-085550NSRDB+027399999V020999999999999999999999999999+99999+99999999999ADDGP10060000002000000002000000002000GR100600000900009
0054726357999992004010805009+42233-085550NSRDB+027399999V020999999999999999999999999999+99999+99999999999ADDGP10060000002000000002000000002000GR100600000900009
0054726357999992004010805009+42233-085550NSRDB+027399999V020999999999999999999999999999+99999+99999999999ADDGP10060000002000000002000000002000GR100600000900009
0054726357999992004010805009+42233-085550NSRDB+027399999V020999999999999999999999999999+99999+99999999999ADDGP10060000002000000002000000002000GR100600000900009
0054726357999992004010805009+42233-085550NSRDB+027399999V020999999999999999999999999999+99999+99999999999ADDGP10060000002000000002000000002000GR100600000900009
0054726357999992004010805009+42233-085550NSRDB+027399999V020999999999999999999999999999+99999+99999999999ADDGP10060000002000000002000000002000GR100600000900009
0054726357999992004010805009+42233-085550NSRDB+027399999V020999999999999999999999999999+99999+99999999999ADDGP10060000002000000002000000002000GR100600000900009
0054726357999992004010805009+42233-085550NSRDB+027399999V020999999999999999999999999999+99999+99999999999ADDGP10060000002000000002000000002000GR100600000900009
0054726357999992004010805009+42233-085550NSRDB+027399999V020999999999999999999999999999+99999+99999999999ADDGP10060000002000000002000000002000GR100600000900009
0054726357999992004010805009+42233-085550NSRDB+027399999V020999999999999999999999999999+99999+99999999999ADDGP10060000002000000002000000002000GR100600000900009
0054726357999992004010805009+42233-085550NSRDB+027399999V020999999999999999999999999999+99999+99999999999ADDGP10060000002000000002000000002000GR100600000900009
0054726357999992004010805009+42233-085550NSRDB+027399999V020999999999999999999999999999+99999+99999999999ADDGP10060000002000000002000000002000GR100600000900009
0054726357999992004010805009+42233-085550NSRDB+027399999V020999999999999999999999999999+99999+99999999999ADDGP10060000002000000002000000002000GR100600000900009
0054726357999992004010805009+42233-085550NSRDB+027399999V020999999999999999999999999999+99999+99999999999ADDGP10060000002000000002000000002000GR100600000900009
0054726357999992004010805009+42233-085550NSRDB+027399999V020999999999999999999999999999+99999+99999999999ADDGP10060000002000000002000000002000GR100600000900009
0054726357999992004010805009+42233-085550NSRDB+027399999V020999999999999999999999999999+99999+99999999999ADDGP10060000002000000002000000002000GR100600000900009
0054726357999992004010805009+42233-085550NSRDB+027399999V020999999999999999999999999999+99999+99999999999ADDGP10060000002000000002000000002000GR100600000900009
0054726357999992004010805009+42233-085550NSRDB+027399999V020999999999999999999999999999+99999+99999999999ADDGP10060000002000000002000000002000GR100600000900009
0054726357999992004010805009+42233-085550NSRDB+027399999V020999999999999999999999999999+99999+99999999999ADDGP10060000002000000002000000002000GR100600000900009
0054726357999992004010805009+42233-085550NSRDB+027399999V020999999999999999999999999999+99999+99999999999ADDGP10060000002000000002000000002000GR100600000900009
0054726357999992004010805009+42233-085550NSRDB+027399999V020999999999999999999999999999+99999+99999999999ADDGP10060000002000000002000000002000GR100600000900009
0054726357999992004010805009+42233-085550NSRDB+027399999V020999999999999999999999999999+99999+99999999999ADDGP10060000002000000002000000002000GR100600000900009
0054726357999992004010805009+42233-085550NSRDB+027399999V020999999999999999999999999999+99999+99999999999ADDGP10060000002000000002000000002000GR100600000900009
0054726357999992004010805009+42233-085550NSRDB+027399999V020999999999999999999999999999+99999+99999999999ADDGP10060000002000000002000000002000GR100600000900009
0054726357999992004010805009+42233-085550NSRDB+027399999V020999999999999999999999999999+99999+99999999999ADDGP10060000002000000002000000002000GR100600000900009
0054726357999992004010805009+42233-085550NSRDB+027399999V020999999999999999999999999999+99999+99999999999ADDGP10060000002000000002000000002000GR100600000900009
0054726357999992004010805009+42233-085550NSRDB+027399999V020999999999999999999999999999+99999+99999999999ADDGP10060000002000000002000000002000GR100600000900009
0054726357999992004010805009+42233-085550NSRDB+027399999V020999999999999999999999999999+99999+99999999999ADDGP10060000002000000002000000002000GR100600000900009
0054726357999992004010805009+42233-085550NSRDB+027399999V020999999999999999999999999999+99999+99999999999ADDGP10060000002000000002000000002000GR100600000900009
0054726357999992004010805009+42233-085550NSRDB+027399999V020999999999999999999999999999+99999+99999999999ADDGP10060000002000000002000000002000GR100600000900009
0054726357999992004010805009+42233-085550NSRDB+027399999V020999999999999999999999999999+99999+99999999999ADDGP10060000002000000002000000002000GR100600000900009
0054726357999992004010805009+42233-085550NSRDB+027399999V020999999999999999999999999999+99999+99999999999ADDGP10060000002000000002000000002000GR100600000900009
0054726357999992004010805009+42233-085550NSRDB+027399999V020999999999999999999999999999+99999+99999999999ADDGP10060000002000000002000000002000GR100600000900009
0054726357999992004010805009+42233-085550NSRDB+027399999V020999999999999999999999999999+99999+99999999999ADDGP10060000002000000002000000002000GR100600000900009
0054726357999992004010805009+42233-085550NSRDB+027399999V020999999999999999999999999999+99999+99999999999ADDGP10060000002000000002000000002000GR100600000900009
0054726357999992004010805009+42233-085550NSRDB+027399999V020999999999999999999999999999+99999+99999999999ADDGP10060000002000000002000000002000GR100600000900009
0054726357999992004010805009+42233-085550NSRDB+027399999V020999999999999999999999999999+99999+99999999999ADDGP10060000002000000002000000002000GR100600000900009
0054726357999992004010805009+42233-085550NSRDB+027399999V020999999999999999999999999999+99999+99999999999ADDGP10060000002000000002000000002000GR100600000900009
0054726357999992004010805009+42233-085550NSRDB+027399999V020999999999999999999999999999+99999+99999999999ADDGP10060000002000000002000000002000GR100600000900009
0054726357999992004010805009+42233-085550NSRDB+027399999V020999999999999999999999999999+99999+99999999999ADDGP10060000002000000002000000002000GR100600000900009
0054726357999992004010805009+42233-085550NSRDB+027399999V020999999999999999999999999999+99999+99999999999ADDGP10060000002000000002000000002000GR100600000900009
0054726357999992004010805009+42233-085550NSRDB+027399999V020999999999999999999999999999+99999+99999999999ADDGP10060000002000000002000000002000GR100600000900009
0054726357999992004010805009+42233-085550NSRDB+027399999V020999999999999999999999999999+99999+99999999999ADDGP10060000002000000002000000002000GR100600000900009
0054726357999992004010805009+42233-085550NSRDB+027399999V020999999999999999999999999999+99999+99999999999ADDGP10060000002000000002000000002000GR100600000900009
0054726357999992004010805009+42233-085550NSRDB+027399999V020999999999999999999999999999+99999+99999999999ADDGP10060000002000000002000000002000GR100600000900009
0054726357999992004010805009+42233-085550NSRDB+027399999V020999999999999999999999999999+99999+99999999999ADDGP10060000002000000002000000002000GR100600000900009
0054726357999992004010805009+42233-085550NSRDB+027399999V020999999999999999999999999999+99999+99999999999ADDGP10060000002000000002000000002000GR100600000900009
0054726357999992004010805009+42233-085550NSRDB+027399999V020999999999999999999999999999+99999+99999999999ADDGP10060000002000000002000000002000GR100600000900009
0054726357999992004010805009+42233-085550NSRDB+027399999V020999999999999999999999999999+99999+99999999999ADDGP10060000002000000002000000002000GR100600000900009
0054726357999992004010805009+42233-085550NSRDB+027399999V020999999999999999999999999999+99999+99999999999ADDGP10060000002000000002000000002000GR100600000900009
0054726357999992004010805009+42233-085550NSRDB+027399999V020999999999999999999999999999+99999+99999999999ADDGP10060000002000000002000000002000GR100600000900009
0054726357999992004010805009+42233-085550NSRDB+027399999V020999999999999999999999999999+99999+99999999999ADDGP10060000002000000002000000002000GR100600000900009
0054726357999992004010805009+42233-085550NSRDB+027399999V020999999999999999999999999999+99999+99999999999ADDGP10060000002000000002000000002000GR100600000900009
0054726357999992004010805009+42233-085550NSRDB+027399999V020999999999999999999999999999+99999+99999999999ADDGP10060000002000000002000000002000GR100600000900009
0054726357999992004010805009+42233-085550NSRDB+027399999V020999999999999999999999999999+99999+99999999999ADDGP10060000002000000002000000002000GR100600000900009
0054726357999992004010805009+42233-085550NSRDB+027399999V020999999999999999999999999999+99999+99999999999ADDGP10060000002000000002000000002000GR100600000900009
0054726357999992004010805009+42233-085550NSRDB+027399999V020999999999999999999999999999+99999+99999999999ADDGP10060000002000000002000000002000GR100600000900009
0054726357999992004010805009+42233-085550NSRDB+027399999V020999999999999999999999999999+99999+99999999999ADDGP10060000002000000002000000002000GR100600000900009
0054726357999992004010805009+42233-085550NSRDB+027399999V020999999999999999999999999999+99999+99999999999ADDGP10060000002000000002000000002000GR100600000900009
0054726357999992004010805009+42233-085550NSRDB+027399999V020999999999999999999999999999+99999+99999999999ADDGP10060000002000000002000000002000GR100600000900009
0054726357999992004010805009+42233-085550NSRDB+027399999V020999999999999999999999999999+99999+99999999999ADDGP10060000002000000002000000002000GR100600000900009
0054726357999992004010805009+42233-085550NSRDB+027399999V020999999999999999999999999999+99999+99999999999ADDGP10060000002000000002000000002000GR100600000900009
0054726357999992004010805009+42233-085550NSRDB+027399999V020999999999999999999999999999+99999+99999999999ADDGP10060000002000000002000000002000GR100600000900009
0054726357999992004010805009+42233-085550NSRDB+027399999V020999999999999999999999999999+99999+99999999999ADDGP10060000002000000002000000002000GR100600000900009
0054726357999992004010805009+42233-085550NSRDB+027399999V020999999999999999999999999999+99999+99999999999ADDGP10060000002000000002000000002000GR100600000900009
0054726357999992004010805009+42233-085550NSRDB+027399999V020999999999999999999999999999+99999+99999999999ADDGP10060000002000000002000000002000GR100600000900009
0054726357999992004010805009+42233-085550NSRDB+027399999V020999999999999999999999999999+99999+99999999999ADDGP10060000002000000002000000002000GR100600000900009
0054726357999992004010805009+42233-085550NSRDB+027399999V020999999999999999999999999999+99999+99999999999ADDGP10060000002000000002000000002000GR100600000900009
0054726357999992004010805009+42233-085550NSRDB+027399999V020999999999999999999999999999+99999+99999999999ADDGP10060000002000000002000000002000GR100600000900009
0054726357999992004010805009+42233-085550NSRDB+027399999V020999999999999999999999999999+99999+99999999999ADDGP10060000002000000002000000002000GR100600000900009
0054726357999992004010805009+42233-085550NSRDB+027399999V020999999999999999999999999999+99999+99999999999ADDGP10060000002000000002000000002000GR100600000900009
0054726357999992004010805009+42233-085550NSRDB+027399999V020999999999999999999999999999+99999+99999999999ADDGP10060000002000000002000000002000GR100600000900009
0054726357999992004010805009+42233-085550NSRDB+027399999V020999999999999999999999999999+99999+99999999999ADDGP10060000002000000002000000002000GR100600000900009
0054726357999992004010805009+42233-085550NSRDB+027399999V020999999999999999999999999999+99999+99999999999ADDGP10060000002000000002000000002000GR100600000900009
0054726357999992004010805009+42233-085550NSRDB+027399999V020999999999999999999999999999+99999+99999999999ADDGP10060000002000000002000000002000GR100600000900009
0054726357999992004010805009+42233-085550NSRDB+027399999V020999999999999999999999999999+99999+99999999999ADDGP10060000002000000002000000002000GR100600000900009
0054726357999992004010805009+42233-085550NSRDB+027399999V020999999999999999999999999999+99999+99999999999ADDGP10060000002000000002000000002000GR100600000900009
0054726357999992004010805009+42233-085550NSRDB+027399999V020999999999999999999999999999+99999+99999999999ADDGP10060000002000000002000000002000GR100600000900009
0054726357999992004010805009+42233-085550NSRDB+027399999V020999999999999999999999999999+99999+99999999999ADDGP10060000002000000002000000002000GR100600000900009
0054726357999992004010805009+42233-085550NSRDB+027399999V020999999999999999999999999999+99999+99999999999ADDGP10060000002000000002000000002000GR100600000900009
0054726357999992004010805009+42233-085550NSRDB+027399999V020999999999999999999999999999+99999+99999999999ADDGP10060000002000000002000000002000GR100600000900009
0054726357999992004010805009+42233-085550NSRDB+027399999V020999999999999999999999999999+99999+99999999999ADDGP10060000002000000002000000002000GR100600000900009
0054726357999992004010805009+42233-085550NSRDB+027399999V020999999999999999999999999999+99999+99999999999ADDGP10060000002000000002000000002000GR100600000900009
0054726357999992004010805009+42233-085550NSRDB+027399999V020999999999999999999999999999+99999+99999999999ADDGP10060000002000000002000000002000GR100600000900009
0054726357999992004010805009+42233-085550NSRDB+027399999V020999999999999999999999999999+99999+99999999999ADDGP10060000002000000002000000002000GR100600000900009
0054726357999992004010805009+42233-085550NSRDB+027399999V020999999999999999999999999999+99999+99999999999ADDGP10060000002000000002000000002000GR100600000900009
0054726357999992004010805009+42233-085550NSRDB+027399999V020999999999999999999999999999+99999+99999999999ADDGP10060000002000000002000000002000GR100600000900009
0054726357999992004010805009+42233-085550NSRDB+027399999V020999999999999999999999999999+99999+99999999999ADDGP10060000002000000002000000002000GR100600000900009
0054726357999992004010805009+42233-085550NSRDB+027399999V020999999999999999999999999999+99999+99999999999ADDGP10060000002000000002000000002000GR100600000900009
0054726357999992004010805009+42233-085550NSRDB+027399999V020999999999999999999999999999+99999+99999999999ADDGP10060000002000000002000000002000GR100600000900009
0054726357999992004010805009+42233-085550NSRDB+027399999V020999999999999999999999999999+99999+99999999999ADDGP10060000002000000002000000002000GR100600000900009
0054726357999992004010805009+42233-085550NSRDB+027399999V020999999999999999999999999999+99999+99999999999ADDGP10060000002000000002000000002000GR100600000900009
0054726357999992004010805009+42233-085550NSRDB+027399999V020999999999999999999999999999+99999+99999999999ADDGP10060000002000000002000000002000GR100600000900009
0054726357999992004010805009+42233-085550NSRDB+027399999V020999999999999999999999999999+99999+99999999999ADDGP10060000002000000002000000002000GR100600000900009
0054726357999992004010805009+42233-085550NSRDB+027399999V020999999999999999999999999999+99999+99999999999ADDGP10060000002000000002000000002000GR100600000900009
0054726357999992004010805009+42233-085550NSRDB+027399999V020999999999999999999999999999+99999+99999999999ADDGP10060000002000000002000000002000GR100600000900009
0054726357999992004010805009+42233-085550NSRDB+027399999V020999999999999999999999999999+99999+99999999999ADDGP10060000002000000002000000002000GR100600000900009
0054726357999992004010805009+42233-085550NSRDB+027399999V020999999999999999999999999999+99999+99999999999ADDGP10060000002000000002000000002000GR100600000900009
0054726357999992004010805009+42233-085550NSRDB+027399999V020999999999999999999999999999+99999+99999999999ADDGP10060000002000000002000000002000GR100600000900009
0054726357999992004010805009+42233-085550NSRDB+027399999V020999999999999999999999999999+99999+99999999999ADDGP10060000002000000002000000002000GR100600000900009
0054726357999992004010805009+42233-085550NSRDB+027399999V020999999999999999999999999999+99999+99999999999ADDGP10060000002000000002000000002000GR100600000900009
0054726357999992004010805009+42233-085550NSRDB+027399999V020999999999999999999999999999+99999+99999999999ADDGP10060000002000000002000000002000GR100600000900009
0054726357999992004010805009+42233-085550NSRDB+027399999V020999999999999999999999999999+99999+99999999999ADDGP10060000002000000002000000002000GR100600000900009
0054726357999992004010805009+42233-085550NSRDB+027399999V020999999999999999999999999999+99999+99999999999ADDGP10060000002000000002000000002000GR100600000900009
0054726357999992004010805009+42233-085550NSRDB+027399999V020999999999999999999999999999+99999+99999999999ADDGP10060000002000000002000000002000GR100600000900009
0054726357999992004010805009+42233-085550NSRDB+027399999V020999999999999999999999999999+99999+99999999999ADDGP10060000002000000002000000002000GR100600000900009
0054726357999992004010805009+42233-085550NSRDB+027399999V020999999999999999999999999999+99999+99999999999ADDGP10060000002000000002000000002000GR100600000900009
0054726357999992004010805009+42233-085550NSRDB+027399999V020999999999999999999999999999+99999+99999999999ADDGP10060000002000000002000000002000GR100600000900009
0054726357999992004010805009+42233-085550NSRDB+027399999V020999999999999999999999999999+99999+99999999999ADDGP10060000002000000002000000002000GR100600000900009
0054726357999992004010805009+42233-085550NSRDB+027399999V020999999999999999999999999999+99999+99999999999ADDGP10060000002000000002000000002000GR100600000900009
0054726357999992004010805009+42233-085550NSRDB+027399999V020999999999999999999999999999+99999+99999999999ADDGP10060000002000000002000000002000GR100600000900009
0054726357999992004010805009+42233-085550NSRDB+027399999V020999999999999999999999999999+99999+99999999999ADDGP10060000002000000002000000002000GR100600000900009
0054726357999992004010805009+42233-085550NSRDB+027399999V020999999999999999999999999999+99999+99999999999ADDGP10060000002000000002000000002000GR100600000900009
0054726357999992004010805009+42233-085550NSRDB+027399999V020999999999999999999999999999+99999+99999999999ADDGP10060000002000000002000000002000GR100600000900009
0054726357999992004010805009+42233-085550NSRDB+027399999V020999999999999999999999999999+99999+99999999999ADDGP10060000002000000002000000002000GR100600000900009
0054726357999992004010805009+42233-085550NSRDB+027399999V020999999999999999999999999999+99999+99999999999ADDGP10060000002000000002000000002000GR100600000900009
0054726357999992004010805009+42233-085550NSRDB+027399999V020999999999999999999999999999+99999+99999999999ADDGP10060000002000000002000000002000GR100600000900009
0054726357999992004010805009+42233-085550NSRDB+027399999V020999999999999999999999999999+99999+99999999999ADDGP10060000002000000002000000002000GR100600000900009
0054726357999992004010805009+42233-085550NSRDB+027399999V020999999999999999999999999999+99999+99999999999ADDGP10060000002000000002000000002000GR100600000900009
0054726357999992004010805009+42233-085550NSRDB+027399999V020999999999999999999999999999+99999+99999999999ADDGP10060000002000000002000000002000GR100600000900009
0054726357999992004010805009+42233-085550NSRDB+027399999V020999999999999999999999999999+99999+99999999999ADDGP10060000002000000002000000002000GR100600000900009
0054726357999992004010805009+42233-085550NSRDB+027399999V020999999999999999999999999999+99999+99999999999ADDGP10060000002000000002000000002000GR100600000900009
0054726357999992004010805009+42233-085550NSRDB+027399999V020999999999999999999999999999+99999+99999999999ADDGP10060000002000000002000000002000GR100600000900009
0054726357999992004010805009+42233-085550NSRDB+027399999V020999999999999999999999999999+99999+99999999999ADDGP10060000002000000002000000002000GR100600000900009
0054726357999992004010805009+42233-085550NSRDB+027399999V020999999999999999999999999999+99999+99999999999ADDGP10060000002000000002000000002000GR100600000900009
0054726357999992004010805009+42233-085550NSRDB+027399999V020999999999999999999999999999+99999+99999999999ADDGP10060000002000000002000000002000GR100600000900009
0054726357999992004010805009+42233-085550NSRDB+027399999V020999999999999999999999999999+99999+99999999999ADDGP10060000002000000002000000002000GR100600000900009
0054726357999992004010805009+42233-085550NSRDB+027399999V020999999999999999999999999999+99999+99999999999ADDGP10060000002000000002000000002000GR100600000900009
0054726357999992004010805009+42233-085550NSRDB+027399999V020999999999999999999999999999+99999+99999999999ADDGP10060000002000000002000000002000GR100600000900009
0054726357999992004010805009+42233-085550NSRDB+027399999V020999999999999999999999999999+99999+99999999999ADDGP10060000002000000002000000002000GR100600000900009
0054726357999992004010805009+42233-085550NSRDB+027399999V020999999999999999999999999999+99999+99999999999ADDGP10060000002000000002000000002000GR100600000900009
0054726357999992004010805009+42233-085550NSRDB+027399999V020999999999999999999999999999+99999+99999999999ADDGP10060000002000000002000000002000GR100600000900009
0054726357999992004010805009+42233-085550NSRDB+027399999V020999999999999999999999999999+99999+99999999999ADDGP10060000002000000002000000002000GR100600000900009
0054726357999992004010805009+42233-085550NSRDB+027399999V020999999999999999999999999999+99999+99999999999ADDGP10060000002000000002000000002000GR100600000900009
0054726357999992004010805009+42233-085550NSRDB+027399999V020999999999999999999999999999+99999+99999999999ADDGP10060000002000000002000000002000GR100600000900009
0054726357999992004010805009+42233-085550NSRDB+027399999V020999999999999999999999999999+99999+99999999999ADDGP10060000002000000002000000002000GR100600000900009
0054726357999992004010805009+42233-085550NSRDB+027399999V020999999999999999999999999999+99999+99999999999ADDGP10060000002000000002000000002000GR100600000900009
0054726357999992004010805009+42233-085550NSRDB+027399999V020999999999999999999999999999+99999+99999999999ADDGP10060000002000000002000000002000GR100600000900009
0054726357999992004010805009+42233-085550NSRDB+027399999V020999999999999999999999999999+99999+99999999999ADDGP10060000002000000002000000002000GR100600000900009
0054726357999992004010805009+42233-085550NSRDB+027399999V020999999999999999999999999999+99999+99999999999ADDGP10060000002000000002000000002000GR100600000900009
0054726357999992004010805009+42233-085550NSRDB+027399999V020999999999999999999999999999+99999+99999999999ADDGP10060000002000000002000000002000GR100600000900009
0054726357999992004010805009+42233-085550NSRDB+027399999V020999999999999999999999999999+99999+99999999999ADDGP10060000002000000002000000002000GR100600000900009
0054726357999992004010805009+42233-085550NSRDB+027399999V020999999999999999999999999999+99999+99999999999ADDGP10060000002000000002000000002000GR100600000900009
0054726357999992004010805009+42233-085550NSRDB+027399999V020999999999999999999999999999+99999+99999999999ADDGP10060000002000000002000000002000GR100600000900009
0054726357999992004010805009+42233-085550NSRDB+027399999V020999999999999999999999999999+99999+99999999999ADDGP10060000002000000002000000002000GR100600000900009
0054726357999992004010805009+42233-085550NSRDB+027399999V020999999999999999999999999999+99999+99999999999ADDGP10060000002000000002000000002000GR100600000900009
0054726357999992004010805009+42233-085550NSRDB+027399999V020999999999999999999999999999+99999+99999999999ADDGP10060000002000000002000000002000GR100600000900009
0054726357999992004010805009+42233-085550NSRDB+027399999V020999999999999999999999999999+99999+99999999999ADDGP10060000002000000002000000002000GR100600000900009
0054726357999992004010805009+42233-085550NSRDB+027399999V020999999999999999999999999999+99999+99999999999ADDGP10060000002000000002000000002000GR100600000900009
0054726357999992004010805009+42233-085550NSRDB+027399999V020999999999999999999999999999+99999+99999999999ADDGP10060000002000000002000000002000GR100600000900009
0054726357999992004010805009+42233-085550NSRDB+027399999V020999999999999999999999999999+99999+99999999999ADDGP10060000002000000002000000002000GR100600000900009
0054726357999992004010805009+42233-085550NSRDB+027399999V020999999999999999999999999999+99999+99999999999ADDGP10060000002000000002000000002000GR100600000900009
0054726357999992004010805009+42233-085550NSRDB+027399999V020999999999999999999999999999+99999+99999999999ADDGP10060000002000000002000000002000GR100600000900009
0054726357999992004010805009+42233-085550NSRDB+027399999V020999999999999999999999999999+99999+99999999999ADDGP10060000002000000002000000002000GR100600000900009
0054726357999992004010805009+42233-085550NSRDB+027399999V020999999999999999999999999999+99999+99999999999ADDGP10060000002000000002000000002000GR100600000900009
0054726357999992004010805009+42233-085550NSRDB+027399999V020999999999999999999999999999+99999+99999999999ADDGP10060000002000000002000000002000GR100600000900009
0054726357999992004010805009+42233-085550NSRDB+027399999V020999999999999999999999999999+99999+99999999999ADDGP10060000002000000002000000002000GR100600000900009
0054726357999992004010805009+42233-085550NSRDB+027399999V020999999999999999999999999999+99999+99999999999ADDGP10060000002000000002000000002000GR100600000900009
0054726357999992004010805009+42233-085550NSRDB+027399999V020999999999999999999999999999+99999+99999999999ADDGP10060000002000000002000000002000GR100600000900009
0054726357999992004010805009+42233-085550NSRDB+027399999V020999999999999999999999999999+99999+99999999999ADDGP10060000002000000002000000002000GR100600000900009
0054726357999992004010805009+42233-085550NSRDB+027399999V020999999999999999999999999999+99999+99999999999ADDGP10060000002000000002000000002000GR100600000900009
0054726357999992004010805009+42233-085550NSRDB+027399999V020999999999999999999999999999+99999+99999999999ADDGP10060000002000000002000000002000GR100600000900009
0054726357999992004010805009+42233-085550NSRDB+027399999V020999999999999999999999999999+99999+99999999999ADDGP10060000002000000002000000002000GR100600000900009
0054726357999992004010805009+42233-085550NSRDB+027399999V020999999999999999999999999999+99999+99999999999ADDGP10060000002000000002000000002000GR100600000900009
0054726357999992004010805009+42233-085550NSRDB+027399999V020999999999999999999999999999+99999+99999999999ADDGP10060000002000000002000000002000GR100600000900009
0054726357999992004010805009+42233-085550NSRDB+027399999V020999999999999999999999999999+99999+99999999999ADDGP10060000002000000002000000002000GR100600000900009
0054726357999992004010805009+42233-085550NSRDB+027399999V020999999999999999999999999999+99999+99999999999ADDGP10060000002000000002000000002000GR100600000900009
0054726357999992004010805009+42233-085550NSRDB+027399999V020999999999999999999999999999+99999+99999999999ADDGP10060000002000000002000000002000GR100600000900009
0054726357999992004010805009+42233-085550NSRDB+027399999V020999999999999999999999999999+99999+99999999999ADDGP10060000002000000002000000002000GR100600000900009
0054726357999992004010805009+42233-085550NSRDB+027399999V020999999999999999999999999999+99999+99999999999ADDGP10060000002000000002000000002000GR100600000900009
0054726357999992004010805009+42233-085550NSRDB+027399999V020999999999999999999999999999+99999+99999999999ADDGP10060000002000000002000000002000GR100600000900009
0054726357999992004010805009+42233-085550NSRDB+027399999V020999999999999999999999999999+99999+99999999999ADDGP10060000002000000002000000002000GR100600000900009
0054726357999992004010805009+42233-085550NSRDB+027399999V020999999999999999999999999999+99999+99999999999ADDGP10060000002000000002000000002000GR100600000900009
0054726357999992004010805009+42233-085550NSRDB+027399999V020999999999999999999999999999+99999+99999999999ADDGP10060000002000000002000000002000GR100600000900009
0054726357999992004010805009+42233-085550NSRDB+027399999V020999999999999999999999999999+99999+99999999999ADDGP10060000002000000002000000002000GR100600000900009
0054726357999992004010805009+42233-085550NSRDB+027399999V020999999999999999999999999999+99999+99999999999ADDGP10060000002000000002000000002000GR100600000900009
0054726357999992004010805009+42233-085550NSRDB+027399999V020999999999999999999999999999+99999+99999999999ADDGP10060000002000000002000000002000GR100600000900009
0054726357999992004010805009+42233-085550NSRDB+027399999V020999999999999999999999999999+99999+99999999999ADDGP10060000002000000002000000002000GR100600000900009
0054726357999992004010805009+42233-085550NSRDB+027399999V020999999999999999999999999999+99999+99999999999ADDGP10060000002000000002000000002000GR100600000900009
0054726357999992004010805009+42233-085550NSRDB+027399999V020999999999999999999999999999+99999+99999999999ADDGP10060000002000000002000000002000GR100600000900009
0054726357999992004010805009+42233-085550NSRDB+027399999V020999999999999999999999999999+99999+99999999999ADDGP10060000002000000002000000002000GR100600000900009
0054726357999992004010805009+42233-085550NSRDB+027399999V020999999999999999999999999999+99999+99999999999ADDGP10060000002000000002000000002000GR100600000900009
0054726357999992004010805009+42233-085550NSRDB+027399999V020999999999999999999999999999+99999+99999999999ADDGP10060000002000000002000000002000GR100600000900009
0054726357999992004010805009+42233-085550NSRDB+027399999V020999999999999999999999999999+99999+99999999999ADDGP10060000002000000002000000002000GR100600000900009
0054726357999992004010805009+42233-085550NSRDB+027399999V020999999999999999999999999999+99999+99999999999ADDGP10060000002000000002000000002000GR100600000900009
0054726357999992004010805009+42233-085550NSRDB+027399999V020999999999999999999999999999+99999+99999999999ADDGP10060000002000000002000000002000GR100600000900009
0054726357999992004010805009+42233-085550NSRDB+027399999V020999999999999999999999999999+99999+99999999999ADDGP10060000002000000002000000002000GR100600000900009
0054726357999992004010805009+42233-085550NSRDB+027399999V020999999999999999999999999999+99999+99999999999ADDGP10060000002000000002000000002000GR100600000900009
0054726357999992004010805009+42233-085550NSRDB+027399999V020999999999999999999999999999+99999+99999999999ADDGP10060000002000000002000000002000GR100600000900009
0054726357999992004010805009+42233-085550NSRDB+027399999V020999999999999999999999999999+99999+99999999999ADDGP10060000002000000002000000002000GR100600000900009
0054726357999992004010805009+42233-085550NSRDB+027399999V020999999999999999999999999999+99999+99999999999ADDGP10060000002000000002000000002000GR100600000900009
0054726357999992004010805009+42233-085550NSRDB+027399999V020999999999999999999999999999+99999+99999999999ADDGP10060000002000000002000000002000GR100600000900009
0054726357999992004010805009+42233-085550NSRDB+027399999V020999999999999999999999999999+99999+99999999999ADDGP10060000002000000002000000002000GR100600000900009
0054726357999992004010805009+42233-085550NSRDB+027399999V020999999999999999999999999999+99999+99999999999ADDGP10060000002000000002000000002000GR100600000900009
0054726357999992004010805009+42233-085550NSRDB+027399999V020999999999999999999999999999+99999+99999999999ADDGP10060000002000000002000000002000GR100600000900009
0054726357999992004010805009+42233-085550NSRDB+027399999V020999999999999999999999999999+99999+99999999999ADDGP10060000002000000002000000002000GR100600000900009
0054726357999992004010805009+42233-085550NSRDB+027399999V020999999999999999999999999999+99999+99999999999ADDGP10060000002000000002000000002000GR100600000900009
0054726357999992004010805009+42233-085550NSRDB+027399999V020999999999999999999999999999+99999+99999999999ADDGP10060000002000000002000000002000GR100600000900009
0054726357999992004010805009+42233-085550NSRDB+027399999V020999999999999999999999999999+99999+99999999999ADDGP10060000002000000002000000002000GR100600000900009
0054726357999992004010805009+42233-085550NSRDB+027399999V020999999999999999999999999999+99999+99999999999ADDGP10060000002000000002000000002000GR100600000900009
0054726357999992004010805009+42233-085550NSRDB+027399999V020999999999999999999999999999+99999+99999999999ADDGP10060000002000000002000000002000GR100600000900009
0054726357999992004010805009+42233-085550NSRDB+027399999V020999999999999999999999999999+99999+99999999999ADDGP10060000002000000002000000002000GR100600000900009
0054726357999992004010805009+42233-085550NSRDB+027399999V020999999999999999999999999999+99999+99999999999ADDGP10060000002000000002000000002000GR100600000900009
0054726357999992004010805009+42233-085550NSRDB+027399999V020999999999999999999999999999+99999+99999999999ADDGP10060000002000000002000000002000GR100600000900009
0054726357999992004010805009+42233-085550NSRDB+027399999V020999999999999999999999999999+99999+99999999999ADDGP10060000002000000002000000002000GR100600000900009
0054726357999992004010805009+42233-085550NSRDB+027399999V020999999999999999999999999999+99999+99999999999ADDGP10060000002000000002000000002000GR100600000900009
0054726357999992004010805009+42233-085550NSRDB+027399999V020999999999999999999999999999+99999+99999999999ADDGP10060000002000000002000000002000GR100600000900009
0054726357999992004010805009+42233-085550NSRDB+027399999V020999999999999999999999999999+99999+99999999999ADDGP10060000002000000002000000002000GR100600000900009
0054726357999992004010805009+42233-085550NSRDB+027399999V020999999999999999999999999999+99999+99999999999ADDGP10060000002000000002000000002000GR100600000900009
0054726357999992004010805009+42233-085550NSRDB+027399999V020999999999999999999999999999+99999+99999999999ADDGP10060000002000000002000000002000GR100600000900009
0054726357999992004010805009+42233-085550NSRDB+027399999V020999999999999999999999999999+99999+99999999999ADDGP10060000002000000002000000002000GR100600000900009
0054726357999992004010805009+42233-085550NSRDB+027399999V020999999999999999999999999999+99999+99999999999ADDGP10060000002000000002000000002000GR100600000900009
0054726357999992004010805009+42233-085550NSRDB+027399999V020999999999999999999999999999+99999+99999999999ADDGP10060000002000000002000000002000GR100600000900009
0054726357999992004010805009+42233-085550NSRDB+027399999V020999999999999999999999999999+99999+99999999999ADDGP10060000002000000002000000002000GR100600000900009
0054726357999992004010805009+42233-085550NSRDB+027399999V020999999999999999999999999999+99999+99999999999ADDGP10060000002000000002000000002000GR100600000900009
0054726357999992004010805009+42233-085550NSRDB+027399999V020999999999999999999999999999+99999+99999999999ADDGP10060000002000000002000000002000GR100600000900009
0054726357999992004010805009+42233-085550NSRDB+027399999V020999999999999999999999999999+99999+99999999999ADDGP10060000002000000002000000002000GR100600000900009
0054726357999992004010805009+42233-085550NSRDB+027399999V020999999999999999999999999999+99999+99999999999ADDGP10060000002000000002000000002000GR100600000900009
0054726357999992004010805009+42233-085550NSRDB+027399999V020999999999999999999999999999+99999+99999999999ADDGP10060000002000000002000000002000GR100600000900009
0054726357999992004010805009+42233-085550NSRDB+027399999V020999999999999999999999999999+99999+99999999999ADDGP10060000002000000002000000002000GR100600000900009
0054726357999992004010805009+42233-085550NSRDB+027399999V020999999999999999999999999999+99999+99999999999ADDGP10060000002000000002000000002000GR100600000900009
0054726357999992004010805009+42233-085550NSRDB+027399999V020999999999999999999999999999+99999+99999999999ADDGP10060000002000000002000000002000GR100600000900009
0054726357999992004010805009+42233-085550NSRDB+027399999V020999999999999999999999999999+99999+99999999999ADDGP10060000002000000002000000002000GR100600000900009
0054726357999992004010805009+42233-085550NSRDB+027399999V020999999999999999999999999999+99999+99999999999ADDGP10060000002000000002000000002000GR100600000900009
0054726357999992004010805009+42233-085550NSRDB+027399999V020999999999999999999999999999+99999+99999999999ADDGP10060000002000000002000000002000GR100600000900009
0054726357999992004010805009+42233-085550NSRDB+027399999V020999999999999999999999999999+99999+99999999999ADDGP10060000002000000002000000002000GR100600000900009
0054726357999992004010805009+42233-085550NSRDB+027399999V020999999999999999999999999999+99999+99999999999ADDGP10060000002000000002000000002000GR100600000900009
0054726357999992004010805009+42233-085550NSRDB+027399999V020999999999999999999999999999+99999+99999999999ADDGP10060000002000000002000000002000GR100600000900009
0054726357999992004010805009+42233-085550NSRDB+027399999V020999999999999999999999999999+99999+99999999999ADDGP10060000002000000002000000002000GR100600000900009
0054726357999992004010805009+42233-085550NSRDB+027399999V020999999999999999999999999999+99999+99999999999ADDGP10060000002000000002000000002000GR100600000900009
0054726357999992004010805009+42233-085550NSRDB+027399999V020999999999999999999999999999+99999+99999999999ADDGP10060000002000000002000000002000GR100600000900009
0054726357999992004010805009+42233-085550NSRDB+027399999V020999999999999999999999999999+99999+99999999999ADDGP10060000002000000002000000002000GR100600000900009
0054726357999992004010805009+42233-085550NSRDB+027399999V020999999999999999999999999999+99999+99999999999ADDGP10060000002000000002000000002000GR100600000900009
0054726357999992004010805009+42233-085550NSRDB+027399999V020999999999999999999999999999+99999+99999999999ADDGP10060000002000000002000000002000GR100600000900009
0054726357999992004010805009+42233-085550NSRDB+027399999V020999999999999999999999999999+99999+99999999999ADDGP10060000002000000002000000002000GR100600000900009
0054726357999992004010805009+42233-085550NSRDB+027399999V020999999999999999999999999999+99999+99999999999ADDGP10060000002000000002000000002000GR100600000900009
0054726357999992004010805009+42233-085550NSRDB+027399999V020999999999999999999999999999+99999+99999999999ADDGP10060000002000000002000000002000GR100600000900009
0054726357999992004010805009+42233-085550NSRDB+027399999V020999999999999999999999999999+99999+99999999999ADDGP10060000002000000002000000002000GR100600000900009
0054726357999992004010805009+42233-085550NSRDB+027399999V020999999999999999999999999999+99999+99999999999ADDGP10060000002000000002000000002000GR100600000900009
0054726357999992004010805009+42233-085550NSRDB+027399999V020999999999999999999999999999+99999+99999999999ADDGP10060000002000000002000000002000GR100600000900009
0054726357999992004010805009+42233-085550NSRDB+027399999V020999999999999999999999999999+99999+99999999999ADDGP10060000002000000002000000002000GR100600000900009
0054726357999992004010805009+42233-085550NSRDB+027399999V020999999999999999999999999999+99999+99999999999ADDGP10060000002000000002000000002000GR100600000900009
0054726357999992004010805009+42233-085550NSRDB+027399999V020999999999999999999999999999+99999+99999999999ADDGP10060000002000000002000000002000GR100600000900009
0054726357999992004010805009+42233-085550NSRDB+027399999V020999999999999999999999999999+99999+99999999999ADDGP10060000002000000002000000002000GR100600000900009
0054726357999992004010805009+42233-085550NSRDB+027399999V020999999999999999999999999999+99999+99999999999ADDGP10060000002000000002000000002000GR100600000900009
0054726357999992004010805009+42233-085550NSRDB+027399999V020999999999999999999999999999+99999+99999999999ADDGP10060000002000000002000000002000GR100600000900009
0054726357999992004010805009+42233-085550NSRDB+027399999V020999999999999999999999999999+99999+99999999999ADDGP10060000002000000002000000002000GR100600000900009
0054726357999992004010805009+42233-085550NSRDB+027399999V020999999999999999999999999999+99999+99999999999ADDGP10060000002000000002000000002000GR100600000900009
0054726357999992004010805009+42233-085550NSRDB+027399999V020999999999999999999999999999+99999+99999999999ADDGP10060000002000000002000000002000GR100600000900009
0054726357999992004010805009+42233-085550NSRDB+027399999V020999999999999999999999999999+99999+99999999999ADDGP10060000002000000002000000002000GR100600000900009
0054726357999992004010805009+42233-085550NSRDB+027399999V020999999999999999999999999999+99999+99999999999ADDGP10060000002000000002000000002000GR100600000900009
0054726357999992004010805009+42233-085550NSRDB+027399999V020999999999999999999999999999+99999+99999999999ADDGP10060000002000000002000000002000GR100600000900009
0054726357999992004010805009+42233-085550NSRDB+027399999V020999999999999999999999999999+99999+99999999999ADDGP10060000002000000002000000002000GR100600000900009
0054726357999992004010805009+42233-085550NSRDB+027399999V020999999999999999999999999999+99999+99999999999ADDGP10060000002000000002000000002000GR100600000900009
0054726357999992004010805009+42233-085550NSRDB+027399999V020999999999999999999999999999+99999+99999999999ADDGP10060000002000000002000000002000GR100600000900009
0054726357999992004010805009+42233-085550NSRDB+027399999V020999999999999999999999999999+99999+99999999999ADDGP10060000002000000002000000002000GR100600000900009
0054726357999992004010805009+42233-085550NSRDB+027399999V020999999999999999999999999999+99999+99999999999ADDGP10060000002000000002000000002000GR100600000900009
0054726357999992004010805009+42233-085550NSRDB+027399999V020999999999999999999999999999+99999+99999999999ADDGP10060000002000000002000000002000GR100600000900009
0054726357999992004010805009+42233-085550NSRDB+027399999V020999999999999999999999999999+99999+99999999999ADDGP10060000002000000002000000002000GR100600000900009
0054726357999992004010805009+42233-085550NSRDB+027399999V020999999999999999999999999999+99999+99999999999ADDGP10060000002000000002000000002000GR100600000900009
0054726357999992004010805009+42233-085550NSRDB+027399999V020999999999999999999999999999+99999+99999999999ADDGP10060000002000000002000000002000GR100600000900009
0054726357999992004010805009+42233-085550NSRDB+027399999V020999999999999999999999999999+99999+99999999999ADDGP10060000002000000002000000002000GR100600000900009
0054726357999992004010805009+42233-085550NSRDB+027399999V020999999999999999999999999999+99999+99999999999ADDGP10060000002000000002000000002000GR100600000900009
0054726357999992004010805009+42233-085550NSRDB+027399999V020999999999999999999999999999+99999+99999999999ADDGP10060000002000000002000000002000GR100600000900009
0054726357999992004010805009+42233-085550NSRDB+027399999V020999999999999999999999999999+99999+99999999999ADDGP10060000002000000002000000002000GR100600000900009
0054726357999992004010805009+42233-085550NSRDB+027399999V020999999999999999999999999999+99999+99999999999ADDGP10060000002000000002000000002000GR100600000900009
0054726357999992004010805009+42233-085550NSRDB+027399999V020999999999999999999999999999+99999+99999999999ADDGP10060000002000000002000000002000GR100600000900009
0054726357999992004010805009+42233-085550NSRDB+027399999V020999999999999999999999999999+99999+99999999999ADDGP10060000002000000002000000002000GR100600000900009
0054726357999992004010805009+42233-085550NSRDB+027399999V020999999999999999999999999999+99999+99999999999ADDGP10060000002000000002000000002000GR100600000900009
0054726357999992004010805009+42233-085550NSRDB+027399999V020999999999999999999999999999+99999+99999999999ADDGP10060000002000000002000000002000GR100600000900009
0054726357999992004010805009+42233-085550NSRDB+027399999V020999999999999999999999999999+99999+99999999999ADDGP10060000002000000002000000002000GR100600000900009
0054726357999992004010805009+42233-085550NSRDB+027399999V020999999999999999999999999999+99999+99999999999ADDGP10060000002000000002000000002000GR100600000900009
0054726357999992004010805009+42233-085550NSRDB+027399999V020999999999999999999999999999+99999+99999999999ADDGP10060000002000000002000000002000GR100600000900009
0054726357999992004010805009+42233-085550NSRDB+027399999V020999999999999999999999999999+99999+99999999999ADDGP10060000002000000002000000002000GR100600000900009
0054726357999992004010805009+42233-085550NSRDB+027399999V020999999999999999999999999999+99999+99999999999ADDGP10060000002000000002000000002000GR100600000900009
0054726357999992004010805009+42233-085550NSRDB+027399999V020999999999999999999999999999+99999+99999999999ADDGP10060000002000000002000000002000GR100600000900009
0054726357999992004010805009+42233-085550NSRDB+027399999V020999999999999999999999999999+99999+99999999999ADDGP10060000002000000002000000002000GR100600000900009
0054726357999992004010805009+42233-085550NSRDB+027399999V020999999999999999999999999999+99999+99999999999ADDGP10060000002000000002000000002000GR100600000900009
0054726357999992004010805009+42233-085550NSRDB+027399999V020999999999999999999999999999+99999+99999999999ADDGP10060000002000000002000000002000GR100600000900009
0054726357999992004010805009+42233-085550NSRDB+027399999V020999999999999999999999999999+99999+99999999999ADDGP10060000002000000002000000002000GR100600000900009
0054726357999992004010805009+42233-085550NSRDB+027399999V020999999999999999999999999999+99999+99999999999ADDGP10060000002000000002000000002000GR100600000900009
0054726357999992004010805009+42233-085550NSRDB+027399999V020999999999999999999999999999+99999+99999999999ADDGP10060000002000000002000000002000GR100600000900009
0054726357999992004010805009+42233-085550NSRDB+027399999V020999999999999999999999999999+99999+99999999999ADDGP10060000002000000002000000002000GR100600000900009
0054726357999992004010805009+42233-085550NSRDB+027399999V020999999999999999999999999999+99999+99999999999ADDGP10060000002000000002000000002000GR100600000900009
0054726357999992004010805009+42233-085550NSRDB+027399999V020999999999999999999999999999+99999+99999999999ADDGP10060000002000000002000000002000GR100600000900009
0054726357999992004010805009+42233-085550NSRDB+027399999V020999999999999999999999999999+99999+99999999999ADDGP10060000002000000002000000002000GR100600000900009
0054726357999992004010805009+42233-085550NSRDB+027399999V020999999999999999999999999999+99999+99999999999ADDGP10060000002000000002000000002000GR100600000900009
0054726357999992004010805009+42233-085550NSRDB+027399999V020999999999999999999999999999+99999+99999999999ADDGP10060000002000000002000000002000GR100600000900009
0054726357999992004010805009+42233-085550NSRDB+027399999V020999999999999999999999999999+99999+99999999999ADDGP10060000002000000002000000002000GR100600000900009
0054726357999992004010805009+42233-085550NSRDB+027399999V020999999999999999999999999999+99999+99999999999ADDGP10060000002000000002000000002000GR100600000900009
0054726357999992004010805009+42233-085550NSRDB+027399999V020999999999999999999999999999+99999+99999999999ADDGP10060000002000000002000000002000GR100600000900009
0054726357999992004010805009+42233-085550NSRDB+027399999V020999999999999999999999999999+99999+99999999999ADDGP10060000002000000002000000002000GR100600000900009
0054726357999992004010805009+42233-085550NSRDB+027399999V020999999999999999999999999999+99999+99999999999ADDGP10060000002000000002000000002000GR100600000900009
0054726357999992004010805009+42233-085550NSRDB+027399999V020999999999999999999999999999+99999+99999999999ADDGP10060000002000000002000000002000GR100600000900009
0054726357999992004010805009+42233-085550NSRDB+027399999V020999999999999999999999999999+99999+99999999999ADDGP10060000002000000002000000002000GR100600000900009
0054726357999992004010805009+42233-085550NSRDB+027399999V020999999999999999999999999999+99999+99999999999ADDGP10060000002000000002000000002000GR100600000900009
0054726357999992004010805009+42233-085550NSRDB+027399999V020999999999999999999999999999+99999+99999999999ADDGP10060000002000000002000000002000GR100600000900009
0054726357999992004010805009+42233-085550NSRDB+027399999V020999999999999999999999999999+99999+99999999999ADDGP10060000002000000002000000002000GR100600000900009
0054726357999992004010805009+42233-085550NSRDB+027399999V020999999999999999999999999999+99999+99999999999ADDGP10060000002000000002000000002000GR100600000900009
0054726357999992004010805009+42233-085550NSRDB+027399999V020999999999999999999999999999+99999+99999999999ADDGP10060000002000000002000000002000GR100600000900009
0054726357999992004010805009+42233-085550NSRDB+027399999V020999999999999999999999999999+99999+99999999999ADDGP10060000002000000002000000002000GR100600000900009
0054726357999992004010805009+42233-085550NSRDB+027399999V020999999999999999999999999999+99999+99999999999ADDGP10060000002000000002000000002000GR100600000900009
0054726357999992004010805009+42233-085550NSRDB+027399999V020999999999999999999999999999+99999+99999999999ADDGP10060000002000000002000000002000GR100600000900009
0054726357999992004010805009+42233-085550NSRDB+027399999V020999999999999999999999999999+99999+99999999999ADDGP10060000002000000002000000002000GR100600000900009
0054726357999992004010805009+42233-085550NSRDB+027399999V020999999999999999999999999999+99999+99999999999ADDGP10060000002000000002000000002000GR100600000900009
0054726357999992004010805009+42233-085550NSRDB+027399999V020999999999999999999999999999+99999+99999999999ADDGP10060000002000000002000000002000GR100600000900009
0054726357999992004010805009+42233-085550NSRDB+027399999V020999999999999999999999999999+99999+99999999999ADDGP10060000002000000002000000002000GR100600000900009
0054726357999992004010805009+42233-085550NSRDB+027399999V020999999999999999999999999999+99999+99999999999ADDGP10060000002000000002000000002000GR100600000900009
0054726357999992004010805009+42233-085550NSRDB+027399999V020999999999999999999999999999+99999+99999999999ADDGP10060000002000000002000000002000GR100600000900009
0054726357999992004010805009+42233-085550NSRDB+027399999V020999999999999999999999999999+99999+99999999999ADDGP10060000002000000002000000002000GR100600000900009
0054726357999992004010805009+42233-085550NSRDB+027399999V020999999999999999999999999999+99999+99999999999ADDGP10060000002000000002000000002000GR100600000900009
0054726357999992004010805009+42233-085550NSRDB+027399999V020999999999999999999999999999+99999+99999999999ADDGP10060000002000000002000000002000GR100600000900009
0054726357999992004010805009+42233-085550NSRDB+027399999V020999999999999999999999999999+99999+99999999999ADDGP10060000002000000002000000002000GR100600000900009
0054726357999992004010805009+42233-085550NSRDB+027399999V020999999999999999999999999999+99999+99999999999ADDGP10060000002000000002000000002000GR100600000900009
0054726357999992004010805009+42233-085550NSRDB+027399999V020999999999999999999999999999+99999+99999999999ADDGP10060000002000000002000000002000GR100600000900009
0054726357999992004010805009+42233-085550NSRDB+027399999V020999999999999999999999999999+99999+99999999999ADDGP10060000002000000002000000002000GR100600000900009
0054726357999992004010805009+42233-085550NSRDB+027399999V020999999999999999999999999999+99999+99999999999ADDGP10060000002000000002000000002000GR100600000900009
0054726357999992004010805009+42233-085550NSRDB+027399999V020999999999999999999999999999+99999+99999999999ADDGP10060000002000000002000000002000GR100600000900009
0054726357999992004010805009+42233-085550NSRDB+027399999V020999999999999999999999999999+99999+99999999999ADDGP10060000002000000002000000002000GR100600000900009
0054726357999992004010805009+42233-085550NSRDB+027399999V020999999999999999999999999999+99999+99999999999ADDGP10060000002000000002000000002000GR100600000900009
0054726357999992004010805009+42233-085550NSRDB+027399999V020999999999999999999999999999+99999+99999999999ADDGP10060000002000000002000000002000GR100600000900009
0054726357999992004010805009+42233-085550NSRDB+027399999V020999999999999999999999999999+99999+99999999999ADDGP10060000002000000002000000002000GR100600000900009
0054726357999992004010805009+42233-085550NSRDB+027399999V020999999999999999999999999999+99999+99999999999ADDGP10060000002000000002000000002000GR100600000900009
0054726357999992004010805009+42233-085550NSRDB+027399999V020999999999999999999999999999+99999+99999999999ADDGP10060000002000000002000000002000GR100600000900009
0054726357999992004010805009+42233-085550NSRDB+027399999V020999999999999999999999999999+99999+99999999999ADDGP10060000002000000002000000002000GR100600000900009
0054726357999992004010805009+42233-085550NSRDB+027399999V020999999999999999999999999999+99999+99999999999ADDGP10060000002000000002000000002000GR100600000900009
0054726357999992004010805009+42233-085550NSRDB+027399999V020999999999999999999999999999+99999+99999999999ADDGP10060000002000000002000000002000GR100600000900009
0054726357999992004010805009+42233-085550NSRDB+027399999V020999999999999999999999999999+99999+99999999999ADDGP10060000002000000002000000002000GR100600000900009
0054726357999992004010805009+42233-085550NSRDB+027399999V020999999999999999999999999999+99999+99999999999ADDGP10060000002000000002000000002000GR100600000900009
0054726357999992004010805009+42233-085550NSRDB+027399999V020999999999999999999999999999+99999+99999999999ADDGP10060000002000000002000000002000GR100600000900009
0054726357999992004010805009+42233-085550NSRDB+027399999V020999999999999999999999999999+99999+99999999999ADDGP10060000002000000002000000002000GR100600000900009
0054726357999992004010805009+42233-085550NSRDB+027399999V020999999999999999999999999999+99999+99999999999ADDGP10060000002000000002000000002000GR100600000900009
0054726357999992004010805009+42233-085550NSRDB+027399999V020999999999999999999999999999+99999+99999999999ADDGP10060000002000000002000000002000GR100600000900009
0054726357999992004010805009+42233-085550NSRDB+027399999V020999999999999999999999999999+99999+99999999999ADDGP10060000002000000002000000002000GR100600000900009
0054726357999992004010805009+42233-085550NSRDB+027399999V020999999999999999999999999999+99999+99999999999ADDGP10060000002000000002000000002000GR100600000900009
0054726357999992004010805009+42233-085550NSRDB+027399999V020999999999999999999999999999+99999+99999999999ADDGP10060000002000000002000000002000GR100600000900009
0054726357999992004010805009+42233-085550NSRDB+027399999V020999999999999999999999999999+99999+99999999999ADDGP10060000002000000002000000002000GR100600000900009
0054726357999992004010805009+42233-085550NSRDB+027399999V020999999999999999999999999999+99999+99999999999ADDGP10060000002000000002000000002000GR100600000900009
0054726357999992004010805009+42233-085550NSRDB+027399999V020999999999999999999999999999+99999+99999999999ADDGP10060000002000000002000000002000GR100600000900009
0054726357999992004010805009+42233-085550NSRDB+027399999V020999999999999999999999999999+99999+99999999999ADDGP10060000002000000002000000002000GR100600000900009
0054726357999992004010805009+42233-085550NSRDB+027399999V020999999999999999999999999999+99999+99999999999ADDGP10060000002000000002000000002000GR100600000900009
0054726357999992004010805009+42233-085550NSRDB+027399999V020999999999999999999999999999+99999+99999999999ADDGP10060000002000000002000000002000GR100600000900009
0054726357999992004010805009+42233-085550NSRDB+027399999V020999999999999999999999999999+99999+99999999999ADDGP10060000002000000002000000002000GR100600000900009
0054726357999992004010805009+42233-085550NSRDB+027399999V020999999999999999999999999999+99999+99999999999ADDGP10060000002000000002000000002000GR100600000900009
0054726357999992004010805009+42233-085550NSRDB+027399999V020999999999999999999999999999+99999+99999999999ADDGP10060000002000000002000000002000GR100600000900009
0054726357999992004010805009+42233-085550NSRDB+027399999V020999999999999999999999999999+99999+99999999999ADDGP10060000002000000002000000002000GR100600000900009
0054726357999992004010805009+42233-085550NSRDB+027399999V020999999999999999999999999999+99999+99999999999ADDGP10060000002000000002000000002000GR100600000900009
0054726357999992004010805009+42233-085550NSRDB+027399999V020999999999999999999999999999+99999+99999999999ADDGP10060000002000000002000000002000GR100600000900009
0054726357999992004010805009+42233-085550NSRDB+027399999V020999999999999999999999999999+99999+99999999999ADDGP10060000002000000002000000002000GR100600000900009
0054726357999992004010805009+42233-085550NSRDB+027399999V020999999999999999999999999999+99999+99999999999ADDGP10060000002000000002000000002000GR100600000900009
0054726357999992004010805009+42233-085550NSRDB+027399999V020999999999999999999999999999+99999+99999999999ADDGP10060000002000000002000000002000GR100600000900009
0054726357999992004010805009+42233-085550NSRDB+027399999V020999999999999999999999999999+99999+99999999999ADDGP10060000002000000002000000002000GR100600000900009
0054726357999992004010805009+42233-085550NSRDB+027399999V020999999999999999999999999999+99999+99999999999ADDGP10060000002000000002000000002000GR100600000900009
0054726357999992004010805009+42233-085550NSRDB+027399999V020999999999999999999999999999+99999+99999999999ADDGP10060000002000000002000000002000GR100600000900009
0054726357999992004010805009+42233-085550NSRDB+027399999V020999999999999999999999999999+99999+99999999999ADDGP10060000002000000002000000002000GR100600000900009
0054726357999992004010805009+42233-085550NSRDB+027399999V020999999999999999999999999999+99999+99999999999ADDGP10060000002000000002000000002000GR100600000900009
0054726357999992004010805009+42233-085550NSRDB+027399999V020999999999999999999999999999+99999+99999999999ADDGP10060000002000000002000000002000GR100600000900009
0054726357999992004010805009+42233-085550NSRDB+027399999V020999999999999999999999999999+99999+99999999999ADDGP10060000002000000002000000002000GR100600000900009
0054726357999992004010805009+42233-085550NSRDB+027399999V020999999999999999999999999999+99999+99999999999ADDGP10060000002000000002000000002000GR100600000900009
0054726357999992004010805009+42233-085550NSRDB+027399999V020999999999999999999999999999+99999+99999999999ADDGP10060000002000000002000000002000GR100600000900009
0054726357999992004010805009+42233-085550NSRDB+027399999V020999999999999999999999999999+99999+99999999999ADDGP10060000002000000002000000002000GR100600000900009
0054726357999992004010805009+42233-085550NSRDB+027399999V020999999999999999999999999999+99999+99999999999ADDGP10060000002000000002000000002000GR100600000900009
0054726357999992004010805009+42233-085550NSRDB+027399999V020999999999999999999999999999+99999+99999999999ADDGP10060000002000000002000000002000GR100600000900009
0054726357999992004010805009+42233-085550NSRDB+027399999V020999999999999999999999999999+99999+99999999999ADDGP10060000002000000002000000002000GR100600000900009
0054726357999992004010805009+42233-085550NSRDB+027399999V020999999999999999999999999999+99999+99999999999ADDGP10060000002000000002000000002000GR100600000900009
0054726357999992004010805009+42233-085550NSRDB+027399999V020999999999999999999999999999+99999+99999999999ADDGP10060000002000000002000000002000GR100600000900009
0054726357999992004010805009+42233-085550NSRDB+027399999V020999999999999999999999999999+99999+99999999999ADDGP10060000002000000002000000002000GR100600000900009
0054726357999992004010805009+42233-085550NSRDB+027399999V020999999999999999999999999999+99999+99999999999ADDGP10060000002000000002000000002000GR100600000900009
0054726357999992004010805009+42233-085550NSRDB+027399999V020999999999999999999999999999+99999+99999999999ADDGP10060000002000000002000000002000GR100600000900009
0054726357999992004010805009+42233-085550NSRDB+027399999V020999999999999999999999999999+99999+99999999999ADDGP10060000002000000002000000002000GR100600000900009
0054726357999992004010805009+42233-085550NSRDB+027399999V020999999999999999999999999999+99999+99999999999ADDGP10060000002000000002000000002000GR100600000900009
0054726357999992004010805009+42233-085550NSRDB+027399999V020999999999999999999999999999+99999+99999999999ADDGP10060000002000000002000000002000GR100600000900009
0054726357999992004010805009+42233-085550NSRDB+027399999V020999999999999999999999999999+99999+99999999999ADDGP10060000002000000002000000002000GR100600000900009
0054726357999992004010805009+42233-085550NSRDB+027399999V020999999999999999999999999999+99999+99999999999ADDGP10060000002000000002000000002000GR100600000900009
0054726357999992004010805009+42233-085550NSRDB+027399999V020999999999999999999999999999+99999+99999999999ADDGP10060000002000000002000000002000GR100600000900009
0054726357999992004010805009+42233-085550NSRDB+027399999V020999999999999999999999999999+99999+99999999999ADDGP10060000002000000002000000002000GR100600000900009
0054726357999992004010805009+42233-085550NSRDB+027399999V020999999999999999999999999999+99999+99999999999ADDGP10060000002000000002000000002000GR100600000900009
0054726357999992004010805009+42233-085550NSRDB+027399999V020999999999999999999999999999+99999+99999999999ADDGP10060000002000000002000000002000GR100600000900009
0054726357999992004010805009+42233-085550NSRDB+027399999V020999999999999999999999999999+99999+99999999999ADDGP10060000002000000002000000002000GR100600000900009
0054726357999992004010805009+42233-085550NSRDB+027399999V020999999999999999999999999999+99999+99999999999ADDGP10060000002000000002000000002000GR100600000900009
0054726357999992004010805009+42233-085550NSRDB+027399999V020999999999999999999999999999+99999+99999999999ADDGP10060000002000000002000000002000GR100600000900009
0054726357999992004010805009+42233-085550NSRDB+027399999V020999999999999999999999999999+99999+99999999999ADDGP10060000002000000002000000002000GR100600000900009
0054726357999992004010805009+42233-085550NSRDB+027399999V020999999999999999999999999999+99999+99999999999ADDGP10060000002000000002000000002000GR100600000900009
0054726357999992004010805009+42233-085550NSRDB+027399999V020999999999999999999999999999+99999+99999999999ADDGP10060000002000000002000000002000GR100600000900009
0054726357999992004010805009+42233-085550NSRDB+027399999V020999999999999999999999999999+99999+99999999999ADDGP10060000002000000002000000002000GR100600000900009
0054726357999992004010805009+42233-085550NSRDB+027399999V020999999999999999999999999999+99999+99999999999ADDGP10060000002000000002000000002000GR100600000900009
0054726357999992004010805009+42233-085550NSRDB+027399999V020999999999999999999999999999+99999+99999999999ADDGP10060000002000000002000000002000GR100600000900009
0054726357999992004010805009+42233-085550NSRDB+027399999V020999999999999999999999999999+99999+99999999999ADDGP10060000002000000002000000002000GR100600000900009
0054726357999992004010805009+42233-085550NSRDB+027399999V020999999999999999999999999999+99999+99999999999ADDGP10060000002000000002000000002000GR100600000900009
0054726357999992004010805009+42233-085550NSRDB+027399999V020999999999999999999999999999+99999+99999999999ADDGP10060000002000000002000000002000GR100600000900009
0054726357999992004010805009+42233-085550NSRDB+027399999V020999999999999999999999999999+99999+99999999999ADDGP10060000002000000002000000002000GR100600000900009
0054726357999992004010805009+42233-085550NSRDB+027399999V020999999999999999999999999999+99999+99999999999ADDGP10060000002000000002000000002000GR100600000900009
0054726357999992004010805009+42233-085550NSRDB+027399999V020999999999999999999999999999+99999+99999999999ADDGP10060000002000000002000000002000GR100600000900009
0054726357999992004010805009+42233-085550NSRDB+027399999V020999999999999999999999999999+99999+99999999999ADDGP10060000002000000002000000002000GR100600000900009
0054726357999992004010805009+42233-085550NSRDB+027399999V020999999999999999999999999999+99999+99999999999ADDGP10060000002000000002000000002000GR100600000900009
0054726357999992004010805009+42233-085550NSRDB+027399999V020999999999999999999999999999+99999+99999999999ADDGP10060000002000000002000000002000GR100600000900009
0054726357999992004010805009+42233-085550NSRDB+027399999V020999999999999999999999999999+99999+99999999999ADDGP10060000002000000002000000002000GR100600000900009
0054726357999992004010805009+42233-085550NSRDB+027399999V020999999999999999999999999999+99999+99999999999ADDGP10060000002000000002000000002000GR100600000900009
0054726357999992004010805009+42233-085550NSRDB+027399999V020999999999999999999999999999+99999+99999999999ADDGP10060000002000000002000000002000GR100600000900009
0054726357999992004010805009+42233-085550NSRDB+027399999V020999999999999999999999999999+99999+99999999999ADDGP10060000002000000002000000002000GR100600000900009
0054726357999992004010805009+42233-085550NSRDB+027399999V020999999999999999999999999999+99999+99999999999ADDGP10060000002000000002000000002000GR100600000900009
0054726357999992004010805009+42233-085550NSRDB+027399999V020999999999999999999999999999+99999+99999999999ADDGP10060000002000000002000000002000GR100600000900009
0054726357999992004010805009+42233-085550NSRDB+027399999V020999999999999999999999999999+99999+99999999999ADDGP10060000002000000002000000002000GR100600000900009
0054726357999992004010805009+42233-085550NSRDB+027399999V020999999999999999999999999999+99999+99999999999ADDGP10060000002000000002000000002000GR100600000900009
0054726357999992004010805009+42233-085550NSRDB+027399999V020999999999999999999999999999+99999+99999999999ADDGP10060000002000000002000000002000GR100600000900009
0054726357999992004010805009+42233-085550NSRDB+027399999V020999999999999999999999999999+99999+99999999999ADDGP10060000002000000002000000002000GR100600000900009
0054726357999992004010805009+42233-085550NSRDB+027399999V020999999999999999999999999999+99999+99999999999ADDGP10060000002000000002000000002000GR100600000900009
0054726357999992004010805009+42233-085550NSRDB+027399999V020999999999999999999999999999+99999+99999999999ADDGP10060000002000000002000000002000GR100600000900009
0054726357999992004010805009+42233-085550NSRDB+027399999V020999999999999999999999999999+99999+99999999999ADDGP10060000002000000002000000002000GR100600000900009
0054726357999992004010805009+42233-085550NSRDB+027399999V020999999999999999999999999999+99999+99999999999ADDGP10060000002000000002000000002000GR100600000900009
0054726357999992004010805009+42233-085550NSRDB+027399999V020999999999999999999999999999+99999+99999999999ADDGP10060000002000000002000000002000GR100600000900009
0054726357999992004010805009+42233-085550NSRDB+027399999V020999999999999999999999999999+99999+99999999999ADDGP10060000002000000002000000002000GR100600000900009
0054726357999992004010805009+42233-085550NSRDB+027399999V020999999999999999999999999999+99999+99999999999ADDGP10060000002000000002000000002000GR100600000900009
0054726357999992004010805009+42233-085550NSRDB+027399999V020999999999999999999999999999+99999+99999999999ADDGP10060000002000000002000000002000GR100600000900009
0054726357999992004010805009+42233-085550NSRDB+027399999V020999999999999999999999999999+99999+99999999999ADDGP10060000002000000002000000002000GR100600000900009
0054726357999992004010805009+42233-085550NSRDB+027399999V020999999999999999999999999999+99999+99999999999ADDGP10060000002000000002000000002000GR100600000900009
0054726357999992004010805009+42233-085550NSRDB+027399999V020999999999999999999999999999+99999+99999999999ADDGP10060000002000000002000000002000GR100600000900009
0054726357999992004010805009+42233-085550NSRDB+027399999V020999999999999999999999999999+99999+99999999999ADDGP10060000002000000002000000002000GR100600000900009
0054726357999992004010805009+42233-085550NSRDB+027399999V020999999999999999999999999999+99999+99999999999ADDGP10060000002000000002000000002000GR100600000900009
0054726357999992004010805009+42233-085550NSRDB+027399999V020999999999999999999999999999+99999+99999999999ADDGP10060000002000000002000000002000GR100600000900009
0054726357999992004010805009+42233-085550NSRDB+027399999V020999999999999999999999999999+99999+99999999999ADDGP10060000002000000002000000002000GR100600000900009
0054726357999992004010805009+42233-085550NSRDB+027399999V020999999999999999999999999999+99999+99999999999ADDGP10060000002000000002000000002000GR100600000900009
0054726357999992004010805009+42233-085550NSRDB+027399999V020999999999999999999999999999+99999+99999999999ADDGP10060000002000000002000000002000GR100600000900009
0054726357999992004010805009+42233-085550NSRDB+027399999V020999999999999999999999999999+99999+99999999999ADDGP10060000002000000002000000002000GR100600000900009
0054726357999992004010805009+42233-085550NSRDB+027399999V020999999999999999999999999999+99999+99999999999ADDGP10060000002000000002000000002000GR100600000900009
0054726357999992004010805009+42233-085550NSRDB+027399999V020999999999999999999999999999+99999+99999999999ADDGP10060000002000000002000000002000GR100600000900009
0054726357999992004010805009+42233-085550NSRDB+027399999V020999999999999999999999999999+99999+99999999999ADDGP10060000002000000002000000002000GR100600000900009
0054726357999992004010805009+42233-085550NSRDB+027399999V020999999999999999999999999999+99999+99999999999ADDGP10060000002000000002000000002000GR100600000900009
0054726357999992004010805009+42233-085550NSRDB+027399999V020999999999999999999999999999+99999+99999999999ADDGP10060000002000000002000000002000GR100600000900009
0054726357999992004010805009+42233-085550NSRDB+027399999V020999999999999999999999999999+99999+99999999999ADDGP10060000002000000002000000002000GR100600000900009
0054726357999992004010805009+42233-085550NSRDB+027399999V020999999999999999999999999999+99999+99999999999ADDGP10060000002000000002000000002000GR100600000900009
0054726357999992004010805009+42233-085550NSRDB+027399999V020999999999999999999999999999+99999+99999999999ADDGP10060000002000000002000000002000GR100600000900009
0054726357999992004010805009+42233-085550NSRDB+027399999V020999999999999999999999999999+99999+99999999999ADDGP10060000002000000002000000002000GR100600000900009
0054726357999992004010805009+42233-085550NSRDB+027399999V020999999999999999999999999999+99999+99999999999ADDGP10060000002000000002000000002000GR100600000900009
0054726357999992004010805009+42233-085550NSRDB+027399999V020999999999999999999999999999+99999+99999999999ADDGP10060000002000000002000000002000GR100600000900009
0054726357999992004010805009+42233-085550NSRDB+027399999V020999999999999999999999999999+99999+99999999999ADDGP10060000002000000002000000002000GR100600000900009
0054726357999992004010805009+42233-085550NSRDB+027399999V020999999999999999999999999999+99999+99999999999ADDGP10060000002000000002000000002000GR100600000900009
0054726357999992004010805009+42233-085550NSRDB+027399999V020999999999999999999999999999+99999+99999999999ADDGP10060000002000000002000000002000GR100600000900009
0054726357999992004010805009+42233-085550NSRDB+027399999V020999999999999999999999999999+99999+99999999999ADDGP10060000002000000002000000002000GR100600000900009
0054726357999992004010805009+42233-085550NSRDB+027399999V020999999999999999999999999999+99999+99999999999ADDGP10060000002000000002000000002000GR100600000900009
0054726357999992004010805009+42233-085550NSRDB+027399999V020999999999999999999999999999+99999+99999999999ADDGP10060000002000000002000000002000GR100600000900009
0054726357999992004010805009+42233-085550NSRDB+027399999V020999999999999999999999999999+99999+99999999999ADDGP10060000002000000002000000002000GR100600000900009
0054726357999992004010805009+42233-085550NSRDB+027399999V020999999999999999999999999999+99999+99999999999ADDGP10060000002000000002000000002000GR100600000900009
0054726357999992004010805009+42233-085550NSRDB+027399999V020999999999999999999999999999+99999+99999999999ADDGP10060000002000000002000000002000GR100600000900009
0054726357999992004010805009+42233-085550NSRDB+027399999V020999999999999999999999999999+99999+99999999999ADDGP10060000002000000002000000002000GR100600000900009
0054726357999992004010805009+42233-085550NSRDB+027399999V020999999999999999999999999999+99999+99999999999ADDGP10060000002000000002000000002000GR100600000900009
0054726357999992004010805009+42233-085550NSRDB+027399999V020999999999999999999999999999+99999+99999999999ADDGP10060000002000000002000000002000GR100600000900009
0054726357999992004010805009+42233-085550NSRDB+027399999V020999999999999999999999999999+99999+99999999999ADDGP10060000002000000002000000002000GR100600000900009
0054726357999992004010805009+42233-085550NSRDB+027399999V020999999999999999999999999999+99999+99999999999ADDGP10060000002000000002000000002000GR100600000900009
0054726357999992004010805009+42233-085550NSRDB+027399999V020999999999999999999999999999+99999+99999999999ADDGP10060000002000000002000000002000GR100600000900009
0054726357999992004010805009+42233-085550NSRDB+027399999V020999999999999999999999999999+99999+99999999999ADDGP10060000002000000002000000002000GR100600000900009
0054726357999992004010805009+42233-085550NSRDB+027399999V020999999999999999999999999999+99999+99999999999ADDGP10060000002000000002000000002000GR100600000900009
0054726357999992004010805009+42233-085550NSRDB+027399999V020999999999999999999999999999+99999+99999999999ADDGP10060000002000000002000000002000GR100600000900009
0054726357999992004010805009+42233-085550NSRDB+027399999V020999999999999999999999999999+99999+99999999999ADDGP10060000002000000002000000002000GR100600000900009
0054726357999992004010805009+42233-085550NSRDB+027399999V020999999999999999999999999999+99999+99999999999ADDGP10060000002000000002000000002000GR100600000900009
0054726357999992004010805009+42233-085550NSRDB+027399999V020999999999999999999999999999+99999+99999999999ADDGP10060000002000000002000000002000GR100600000900009
0054726357999992004010805009+42233-085550NSRDB+027399999V020999999999999999999999999999+99999+99999999999ADDGP10060000002000000002000000002000GR100600000900009
0054726357999992004010805009+42233-085550NSRDB+027399999V020999999999999999999999999999+99999+99999999999ADDGP10060000002000000002000000002000GR100600000900009
0054726357999992004010805009+42233-085550NSRDB+027399999V020999999999999999999999999999+99999+99999999999ADDGP10060000002000000002000000002000GR100600000900009
0054726357999992004010805009+42233-085550NSRDB+027399999V020999999999999999999999999999+99999+99999999999ADDGP10060000002000000002000000002000GR100600000900009
0054726357999992004010805009+42233-085550NSRDB+027399999V020999999999999999999999999999+99999+99999999999ADDGP10060000002000000002000000002000GR100600000900009
0054726357999992004010805009+42233-085550NSRDB+027399999V020999999999999999999999999999+99999+99999999999ADDGP10060000002000000002000000002000GR100600000900009
0054726357999992004010805009+42233-085550NSRDB+027399999V020999999999999999999999999999+99999+99999999999ADDGP10060000002000000002000000002000GR100600000900009
0054726357999992004010805009+42233-085550NSRDB+027399999V020999999999999999999999999999+99999+99999999999ADDGP10060000002000000002000000002000GR100600000900009
0054726357999992004010805009+42233-085550NSRDB+027399999V020999999999999999999999999999+99999+99999999999ADDGP10060000002000000002000000002000GR100600000900009
0054726357999992004010805009+42233-085550NSRDB+027399999V020999999999999999999999999999+99999+99999999999ADDGP10060000002000000002000000002000GR100600000900009
0054726357999992004010805009+42233-085550NSRDB+027399999V020999999999999999999999999999+99999+99999999999ADDGP10060000002000000002000000002000GR100600000900009
0054726357999992004010805009+42233-085550NSRDB+027399999V020999999999999999999999999999+99999+99999999999ADDGP10060000002000000002000000002000GR100600000900009
0054726357999992004010805009+42233-085550NSRDB+027399999V020999999999999999999999999999+99999+99999999999ADDGP10060000002000000002000000002000GR100600000900009
0054726357999992004010805009+42233-085550NSRDB+027399999V020999999999999999999999999999+99999+99999999999ADDGP10060000002000000002000000002000GR100600000900009
0054726357999992004010805009+42233-085550NSRDB+027399999V020999999999999999999999999999+99999+99999999999ADDGP10060000002000000002000000002000GR100600000900009
0054726357999992004010805009+42233-085550NSRDB+027399999V020999999999999999999999999999+99999+99999999999ADDGP10060000002000000002000000002000GR100600000900009
0054726357999992004010805009+42233-085550NSRDB+027399999V020999999999999999999999999999+99999+99999999999ADDGP10060000002000000002000000002000GR100600000900009
0054726357999992004010805009+42233-085550NSRDB+027399999V020999999999999999999999999999+99999+99999999999ADDGP10060000002000000002000000002000GR100600000900009
0054726357999992004010805009+42233-085550NSRDB+027399999V020999999999999999999999999999+99999+99999999999ADDGP10060000002000000002000000002000GR100600000900009
0054726357999992004010805009+42233-085550NSRDB+027399999V020999999999999999999999999999+99999+99999999999ADDGP10060000002000000002000000002000GR100600000900009
0054726357999992004010805009+42233-085550NSRDB+027399999V020999999999999999999999999999+99999+99999999999ADDGP10060000002000000002000000002000GR100600000900009
0054726357999992004010805009+42233-085550NSRDB+027399999V020999999999999999999999999999+99999+99999999999ADDGP10060000002000000002000000002000GR100600000900009
0054726357999992004010805009+42233-085550NSRDB+027399999V020999999999999999999999999999+99999+99999999999ADDGP10060000002000000002000000002000GR100600000900009
0054726357999992004010805009+42233-085550NSRDB+027399999V020999999999999999999999999999+99999+99999999999ADDGP10060000002000000002000000002000GR100600000900009
0054726357999992004010805009+42233-085550NSRDB+027399999V020999999999999999999999999999+99999+99999999999ADDGP10060000002000000002000000002000GR100600000900009
0054726357999992004010805009+42233-085550NSRDB+027399999V020999999999999999999999999999+99999+99999999999ADDGP10060000002000000002000000002000GR100600000900009
0054726357999992004010805009+42233-085550NSRDB+027399999V020999999999999999999999999999+99999+99999999999ADDGP10060000002000000002000000002000GR100600000900009
0054726357999992004010805009+42233-085550NSRDB+027399999V020999999999999999999999999999+99999+99999999999ADDGP10060000002000000002000000002000GR100600000900009
0054726357999992004010805009+42233-085550NSRDB+027399999V020999999999999999999999999999+99999+99999999999ADDGP10060000002000000002000000002000GR100600000900009
0054726357999992004010805009+42233-085550NSRDB+027399999V020999999999999999999999999999+99999+99999999999ADDGP10060000002000000002000000002000GR100600000900009
0054726357999992004010805009+42233-085550NSRDB+027399999V020999999999999999999999999999+99999+99999999999ADDGP10060000002000000002000000002000GR100600000900009
0054726357999992004010805009+42233-085550NSRDB+027399999V020999999999999999999999999999+99999+99999999999ADDGP10060000002000000002000000002000GR100600000900009
0054726357999992004010805009+42233-085550NSRDB+027399999V020999999999999999999999999999+99999+99999999999ADDGP10060000002000000002000000002000GR100600000900009
0054726357999992004010805009+42233-085550NSRDB+027399999V020999999999999999999999999999+99999+99999999999ADDGP10060000002000000002000000002000GR100600000900009
0054726357999992004010805009+42233-085550NSRDB+027399999V020999999999999999999999999999+99999+99999999999ADDGP10060000002000000002000000002000GR100600000900009
0054726357999992004010805009+42233-085550NSRDB+027399999V020999999999999999999999999999+99999+99999999999ADDGP10060000002000000002000000002000GR100600000900009
0054726357999992004010805009+42233-085550NSRDB+027399999V020999999999999999999999999999+99999+99999999999ADDGP10060000002000000002000000002000GR100600000900009
0054726357999992004010805009+42233-085550NSRDB+027399999V020999999999999999999999999999+99999+99999999999ADDGP10060000002000000002000000002000GR100600000900009
0054726357999992004010805009+42233-085550NSRDB+027399999V020999999999999999999999999999+99999+99999999999ADDGP10060000002000000002000000002000GR100600000900009
0054726357999992004010805009+42233-085550NSRDB+027399999V020999999999999999999999999999+99999+99999999999ADDGP10060000002000000002000000002000GR100600000900009
0054726357999992004010805009+42233-085550NSRDB+027399999V020999999999999999999999999999+99999+99999999999ADDGP10060000002000000002000000002000GR100600000900009
0054726357999992004010805009+42233-085550NSRDB+027399999V020999999999999999999999999999+99999+99999999999ADDGP10060000002000000002000000002000GR100600000900009
0054726357999992004010805009+42233-085550NSRDB+027399999V020999999999999999999999999999+99999+99999999999ADDGP10060000002000000002000000002000GR100600000900009
0054726357999992004010805009+42233-085550NSRDB+027399999V020999999999999999999999999999+99999+99999999999ADDGP10060000002000000002000000002000GR100600000900009
0054726357999992004010805009+42233-085550NSRDB+027399999V020999999999999999999999999999+99999+99999999999ADDGP10060000002000000002000000002000GR100600000900009
0054726357999992004010805009+42233-085550NSRDB+027399999V020999999999999999999999999999+99999+99999999999ADDGP10060000002000000002000000002000GR100600000900009
0054726357999992004010805009+42233-085550NSRDB+027399999V020999999999999999999999999999+99999+99999999999ADDGP10060000002000000002000000002000GR100600000900009
0054726357999992004010805009+42233-085550NSRDB+027399999V020999999999999999999999999999+99999+99999999999ADDGP10060000002000000002000000002000GR100600000900009
0054726357999992004010805009+42233-085550NSRDB+027399999V020999999999999999999999999999+99999+99999999999ADDGP10060000002000000002000000002000GR100600000900009
0054726357999992004010805009+42233-085550NSRDB+027399999V020999999999999999999999999999+99999+99999999999ADDGP10060000002000000002000000002000GR100600000900009
0054726357999992004010805009+42233-085550NSRDB+027399999V020999999999999999999999999999+99999+99999999999ADDGP10060000002000000002000000002000GR100600000900009
0054726357999992004010805009+42233-085550NSRDB+027399999V020999999999999999999999999999+99999+99999999999ADDGP10060000002000000002000000002000GR100600000900009
0054726357999992004010805009+42233-085550NSRDB+027399999V020999999999999999999999999999+99999+99999999999ADDGP10060000002000000002000000002000GR100600000900009
0054726357999992004010805009+42233-085550NSRDB+027399999V020999999999999999999999999999+99999+99999999999ADDGP10060000002000000002000000002000GR100600000900009
0054726357999992004010805009+42233-085550NSRDB+027399999V020999999999999999999999999999+99999+99999999999ADDGP10060000002000000002000000002000GR100600000900009
0054726357999992004010805009+42233-085550NSRDB+027399999V020999999999999999999999999999+99999+99999999999ADDGP10060000002000000002000000002000GR100600000900009
0054726357999992004010805009+42233-085550NSRDB+027399999V020999999999999999999999999999+99999+99999999999ADDGP10060000002000000002000000002000GR100600000900009
0054726357999992004010805009+42233-085550NSRDB+027399999V020999999999999999999999999999+99999+99999999999ADDGP10060000002000000002000000002000GR100600000900009
0054726357999992004010805009+42233-085550NSRDB+027399999V020999999999999999999999999999+99999+99999999999ADDGP10060000002000000002000000002000GR100600000900009
0054726357999992004010805009+42233-085550NSRDB+027399999V020999999999999999999999999999+99999+99999999999ADDGP10060000002000000002000000002000GR100600000900009
0054726357999992004010805009+42233-085550NSRDB+027399999V020999999999999999999999999999+99999+99999999999ADDGP10060000002000000002000000002000GR100600000900009
0054726357999992004010805009+42233-085550NSRDB+027399999V020999999999999999999999999999+99999+99999999999ADDGP10060000002000000002000000002000GR100600000900009
0054726357999992004010805009+42233-085550NSRDB+027399999V020999999999999999999999999999+99999+99999999999ADDGP10060000002000000002000000002000GR100600000900009
0054726357999992004010805009+42233-085550NSRDB+027399999V020999999999999999999999999999+99999+99999999999ADDGP10060000002000000002000000002000GR100600000900009
0054726357999992004010805009+42233-085550NSRDB+027399999V020999999999999999999999999999+99999+99999999999ADDGP10060000002000000002000000002000GR100600000900009
0054726357999992004010805009+42233-085550NSRDB+027399999V020999999999999999999999999999+99999+99999999999ADDGP10060000002000000002000000002000GR100600000900009
0054726357999992004010805009+42233-085550NSRDB+027399999V020999999999999999999999999999+99999+99999999999ADDGP10060000002000000002000000002000GR100600000900009
0054726357999992004010805009+42233-085550NSRDB+027399999V020999999999999999999999999999+99999+99999999999ADDGP10060000002000000002000000002000GR100600000900009
0054726357999992004010805009+42233-085550NSRDB+027399999V020999999999999999999999999999+99999+99999999999ADDGP10060000002000000002000000002000GR100600000900009
0054726357999992004010805009+42233-085550NSRDB+027399999V020999999999999999999999999999+99999+99999999999ADDGP10060000002000000002000000002000GR100600000900009
