0086082210999992005031807304+40450-003550FM-15+0582LEMD V0203501N00261999999CY0099001N1+00601+00101999999ADDMA1102911096081MW1001REMMET053LEMD 180730Z 35005KT 310V020 CAVOK 06/01 Q1029 NOSIG;
0086082210999992005031807304+40450-003550FM-15+0582LEMD V0203501N00261999999CY0099001N1+00601+00101999999ADDMA1102911096081MW1001REMMET053LEMD 180730Z 35005KT 310V020 CAVOK 06/01 Q1029 NOSIG;
0086082210999992005031807304+40450-003550FM-15+0582LEMD V0203501N00261999999CY0099001N1+00601+00101999999ADDMA1102911096081MW1001REMMET053LEMD 180730Z 35005KT 310V020 CAVOK 06/01 Q1029 NOSIG;
0086082210999992005031807304+40450-003550FM-15+0582LEMD V0203501N00261999999CY0099001N1+00601+00101999999ADDMA1102911096081MW1001REMMET053LEMD 180730Z 35005KT 310V020 CAVOK 06/01 Q1029 NOSIG;
0086082210999992005031807304+40450-003550FM-15+0582LEMD V0203501N00261999999CY0099001N1+00601+00101999999ADDMA1102911096081MW1001REMMET053LEMD 180730Z 35005KT 310V020 CAVOK 06/01 Q1029 NOSIG;
0086082210999992005031807304+40450-003550FM-15+0582LEMD V0203501N00261999999CY0099001N1+00601+00101999999ADDMA1102911096081MW1001REMMET053LEMD 180730Z 35005KT 310V020 CAVOK 06/01 Q1029 NOSIG;
0086082210999992005031807304+40450-003550FM-15+0582LEMD V0203501N00261999999CY0099001N1+00601+00101999999ADDMA1102911096081MW1001REMMET053LEMD 180730Z 35005KT 310V020 CAVOK 06/01 Q1029 NOSIG;
0086082210999992005031807304+40450-003550FM-15+0582LEMD V0203501N00261999999CY0099001N1+00601+00101999999ADDMA1102911096081MW1001REMMET053LEMD 180730Z 35005KT 310V020 CAVOK 06/01 Q1029 NOSIG;
0086082210999992005031807304+40450-003550FM-15+0582LEMD V0203501N00261999999CY0099001N1+00601+00101999999ADDMA1102911096081MW1001REMMET053LEMD 180730Z 35005KT 310V020 CAVOK 06/01 Q1029 NOSIG;
0086082210999992005031807304+40450-003550FM-15+0582LEMD V0203501N00261999999CY0099001N1+00601+00101999999ADDMA1102911096081MW1001REMMET053LEMD 180730Z 35005KT 310V020 CAVOK 06/01 Q1029 NOSIG;
0086082210999992005031807304+40450-003550FM-15+0582LEMD V0203501N00261999999CY0099001N1+00601+00101999999ADDMA1102911096081MW1001REMMET053LEMD 180730Z 35005KT 310V020 CAVOK 06/01 Q1029 NOSIG;
0086082210999992005031807304+40450-003550FM-15+0582LEMD V0203501N00261999999CY0099001N1+00601+00101999999ADDMA1102911096081MW1001REMMET053LEMD 180730Z 35005KT 310V020 CAVOK 06/01 Q1029 NOSIG;
0086082210999992005031807304+40450-003550FM-15+0582LEMD V0203501N00261999999CY0099001N1+00601+00101999999ADDMA1102911096081MW1001REMMET053LEMD 180730Z 35005KT 310V020 CAVOK 06/01 Q1029 NOSIG;
0086082210999992005031807304+40450-003550FM-15+0582LEMD V0203501N00261999999CY0099001N1+00601+00101999999ADDMA1102911096081MW1001REMMET053LEMD 180730Z 35005KT 310V020 CAVOK 06/01 Q1029 NOSIG;
0086082210999992005031807304+40450-003550FM-15+0582LEMD V0203501N00261999999CY0099001N1+00601+00101999999ADDMA1102911096081MW1001REMMET053LEMD 180730Z 35005KT 310V020 CAVOK 06/01 Q1029 NOSIG;
0086082210999992005031807304+40450-003550FM-15+0582LEMD V0203501N00261999999CY0099001N1+00601+00101999999ADDMA1102911096081MW1001REMMET053LEMD 180730Z 35005KT 310V020 CAVOK 06/01 Q1029 NOSIG;
0086082210999992005031807304+40450-003550FM-15+0582LEMD V0203501N00261999999CY0099001N1+00601+00101999999ADDMA1102911096081MW1001REMMET053LEMD 180730Z 35005KT 310V020 CAVOK 06/01 Q1029 NOSIG;
0086082210999992005031807304+40450-003550FM-15+0582LEMD V0203501N00261999999CY0099001N1+00601+00101999999ADDMA1102911096081MW1001REMMET053LEMD 180730Z 35005KT 310V020 CAVOK 06/01 Q1029 NOSIG;
0086082210999992005031807304+40450-003550FM-15+0582LEMD V0203501N00261999999CY0099001N1+00601+00101999999ADDMA1102911096081MW1001REMMET053LEMD 180730Z 35005KT 310V020 CAVOK 06/01 Q1029 NOSIG;
0086082210999992005031807304+40450-003550FM-15+0582LEMD V0203501N00261999999CY0099001N1+00601+00101999999ADDMA1102911096081MW1001REMMET053LEMD 180730Z 35005KT 310V020 CAVOK 06/01 Q1029 NOSIG;
0086082210999992005031807304+40450-003550FM-15+0582LEMD V0203501N00261999999CY0099001N1+00601+00101999999ADDMA1102911096081MW1001REMMET053LEMD 180730Z 35005KT 310V020 CAVOK 06/01 Q1029 NOSIG;
0086082210999992005031807304+40450-003550FM-15+0582LEMD V0203501N00261999999CY0099001N1+00601+00101999999ADDMA1102911096081MW1001REMMET053LEMD 180730Z 35005KT 310V020 CAVOK 06/01 Q1029 NOSIG;
0086082210999992005031807304+40450-003550FM-15+0582LEMD V0203501N00261999999CY0099001N1+00601+00101999999ADDMA1102911096081MW1001REMMET053LEMD 180730Z 35005KT 310V020 CAVOK 06/01 Q1029 NOSIG;
0086082210999992005031807304+40450-003550FM-15+0582LEMD V0203501N00261999999CY0099001N1+00601+00101999999ADDMA1102911096081MW1001REMMET053LEMD 180730Z 35005KT 310V020 CAVOK 06/01 Q1029 NOSIG;
0086082210999992005031807304+40450-003550FM-15+0582LEMD V0203501N00261999999CY0099001N1+00601+00101999999ADDMA1102911096081MW1001REMMET053LEMD 180730Z 35005KT 310V020 CAVOK 06/01 Q1029 NOSIG;
0086082210999992005031807304+40450-003550FM-15+0582LEMD V0203501N00261999999CY0099001N1+00601+00101999999ADDMA1102911096081MW1001REMMET053LEMD 180730Z 35005KT 310V020 CAVOK 06/01 Q1029 NOSIG;
0086082210999992005031807304+40450-003550FM-15+0582LEMD V0203501N00261999999CY0099001N1+00601+00101999999ADDMA1102911096081MW1001REMMET053LEMD 180730Z 35005KT 310V020 CAVOK 06/01 Q1029 NOSIG;
0086082210999992005031807304+40450-003550FM-15+0582LEMD V0203501N00261999999CY0099001N1+00601+00101999999ADDMA1102911096081MW1001REMMET053LEMD 180730Z 35005KT 310V020 CAVOK 06/01 Q1029 NOSIG;
0086082210999992005031807304+40450-003550FM-15+0582LEMD V0203501N00261999999CY0099001N1+00601+00101999999ADDMA1102911096081MW1001REMMET053LEMD 180730Z 35005KT 310V020 CAVOK 06/01 Q1029 NOSIG;
0086082210999992005031807304+40450-003550FM-15+0582LEMD V0203501N00261999999CY0099001N1+00601+00101999999ADDMA1102911096081MW1001REMMET053LEMD 180730Z 35005KT 310V020 CAVOK 06/01 Q1029 NOSIG;
0086082210999992005031807304+40450-003550FM-15+0582LEMD V0203501N00261999999CY0099001N1+00601+00101999999ADDMA1102911096081MW1001REMMET053LEMD 180730Z 35005KT 310V020 CAVOK 06/01 Q1029 NOSIG;
0086082210999992005031807304+40450-003550FM-15+0582LEMD V0203501N00261999999CY0099001N1+00601+00101999999ADDMA1102911096081MW1001REMMET053LEMD 180730Z 35005KT 310V020 CAVOK 06/01 Q1029 NOSIG;
0086082210999992005031807304+40450-003550FM-15+0582LEMD V0203501N00261999999CY0099001N1+00601+00101999999ADDMA1102911096081MW1001REMMET053LEMD 180730Z 35005KT 310V020 CAVOK 06/01 Q1029 NOSIG;
0086082210999992005031807304+40450-003550FM-15+0582LEMD V0203501N00261999999CY0099001N1+00601+00101999999ADDMA1102911096081MW1001REMMET053LEMD 180730Z 35005KT 310V020 CAVOK 06/01 Q1029 NOSIG;
0086082210999992005031807304+40450-003550FM-15+0582LEMD V0203501N00261999999CY0099001N1+00601+00101999999ADDMA1102911096081MW1001REMMET053LEMD 180730Z 35005KT 310V020 CAVOK 06/01 Q1029 NOSIG;
0086082210999992005031807304+40450-003550FM-15+0582LEMD V0203501N00261999999CY0099001N1+00601+00101999999ADDMA1102911096081MW1001REMMET053LEMD 180730Z 35005KT 310V020 CAVOK 06/01 Q1029 NOSIG;
0086082210999992005031807304+40450-003550FM-15+0582LEMD V0203501N00261999999CY0099001N1+00601+00101999999ADDMA1102911096081MW1001REMMET053LEMD 180730Z 35005KT 310V020 CAVOK 06/01 Q1029 NOSIG;
0086082210999992005031807304+40450-003550FM-15+0582LEMD V0203501N00261999999CY0099001N1+00601+00101999999ADDMA1102911096081MW1001REMMET053LEMD 180730Z 35005KT 310V020 CAVOK 06/01 Q1029 NOSIG;
0086082210999992005031807304+40450-003550FM-15+0582LEMD V0203501N00261999999CY0099001N1+00601+00101999999ADDMA1102911096081MW1001REMMET053LEMD 180730Z 35005KT 310V020 CAVOK 06/01 Q1029 NOSIG;
0086082210999992005031807304+40450-003550FM-15+0582LEMD V0203501N00261999999CY0099001N1+00601+00101999999ADDMA1102911096081MW1001REMMET053LEMD 180730Z 35005KT 310V020 CAVOK 06/01 Q1029 NOSIG;
0086082210999992005031807304+40450-003550FM-15+0582LEMD V0203501N00261999999CY0099001N1+00601+00101999999ADDMA1102911096081MW1001REMMET053LEMD 180730Z 35005KT 310V020 CAVOK 06/01 Q1029 NOSIG;
0086082210999992005031807304+40450-003550FM-15+0582LEMD V0203501N00261999999CY0099001N1+00601+00101999999ADDMA1102911096081MW1001REMMET053LEMD 180730Z 35005KT 310V020 CAVOK 06/01 Q1029 NOSIG;
0086082210999992005031807304+40450-003550FM-15+0582LEMD V0203501N00261999999CY0099001N1+00601+00101999999ADDMA1102911096081MW1001REMMET053LEMD 180730Z 35005KT 310V020 CAVOK 06/01 Q1029 NOSIG;
0086082210999992005031807304+40450-003550FM-15+0582LEMD V0203501N00261999999CY0099001N1+00601+00101999999ADDMA1102911096081MW1001REMMET053LEMD 180730Z 35005KT 310V020 CAVOK 06/01 Q1029 NOSIG;
0086082210999992005031807304+40450-003550FM-15+0582LEMD V0203501N00261999999CY0099001N1+00601+00101999999ADDMA1102911096081MW1001REMMET053LEMD 180730Z 35005KT 310V020 CAVOK 06/01 Q1029 NOSIG;
0086082210999992005031807304+40450-003550FM-15+0582LEMD V0203501N00261999999CY0099001N1+00601+00101999999ADDMA1102911096081MW1001REMMET053LEMD 180730Z 35005KT 310V020 CAVOK 06/01 Q1029 NOSIG;
0086082210999992005031807304+40450-003550FM-15+0582LEMD V0203501N00261999999CY0099001N1+00601+00101999999ADDMA1102911096081MW1001REMMET053LEMD 180730Z 35005KT 310V020 CAVOK 06/01 Q1029 NOSIG;
0086082210999992005031807304+40450-003550FM-15+0582LEMD V0203501N00261999999CY0099001N1+00601+00101999999ADDMA1102911096081MW1001REMMET053LEMD 180730Z 35005KT 310V020 CAVOK 06/01 Q1029 NOSIG;
0086082210999992005031807304+40450-003550FM-15+0582LEMD V0203501N00261999999CY0099001N1+00601+00101999999ADDMA1102911096081MW1001REMMET053LEMD 180730Z 35005KT 310V020 CAVOK 06/01 Q1029 NOSIG;
0086082210999992005031807304+40450-003550FM-15+0582LEMD V0203501N00261999999CY0099001N1+00601+00101999999ADDMA1102911096081MW1001REMMET053LEMD 180730Z 35005KT 310V020 CAVOK 06/01 Q1029 NOSIG;
0086082210999992005031807304+40450-003550FM-15+0582LEMD V0203501N00261999999CY0099001N1+00601+00101999999ADDMA1102911096081MW1001REMMET053LEMD 180730Z 35005KT 310V020 CAVOK 06/01 Q1029 NOSIG;
0086082210999992005031807304+40450-003550FM-15+0582LEMD V0203501N00261999999CY0099001N1+00601+00101999999ADDMA1102911096081MW1001REMMET053LEMD 180730Z 35005KT 310V020 CAVOK 06/01 Q1029 NOSIG;
0086082210999992005031807304+40450-003550FM-15+0582LEMD V0203501N00261999999CY0099001N1+00601+00101999999ADDMA1102911096081MW1001REMMET053LEMD 180730Z 35005KT 310V020 CAVOK 06/01 Q1029 NOSIG;
0086082210999992005031807304+40450-003550FM-15+0582LEMD V0203501N00261999999CY0099001N1+00601+00101999999ADDMA1102911096081MW1001REMMET053LEMD 180730Z 35005KT 310V020 CAVOK 06/01 Q1029 NOSIG;
0086082210999992005031807304+40450-003550FM-15+0582LEMD V0203501N00261999999CY0099001N1+00601+00101999999ADDMA1102911096081MW1001REMMET053LEMD 180730Z 35005KT 310V020 CAVOK 06/01 Q1029 NOSIG;
0086082210999992005031807304+40450-003550FM-15+0582LEMD V0203501N00261999999CY0099001N1+00601+00101999999ADDMA1102911096081MW1001REMMET053LEMD 180730Z 35005KT 310V020 CAVOK 06/01 Q1029 NOSIG;
0086082210999992005031807304+40450-003550FM-15+0582LEMD V0203501N00261999999CY0099001N1+00601+00101999999ADDMA1102911096081MW1001REMMET053LEMD 180730Z 35005KT 310V020 CAVOK 06/01 Q1029 NOSIG;
0086082210999992005031807304+40450-003550FM-15+0582LEMD V0203501N00261999999CY0099001N1+00601+00101999999ADDMA1102911096081MW1001REMMET053LEMD 180730Z 35005KT 310V020 CAVOK 06/01 Q1029 NOSIG;
0086082210999992005031807304+40450-003550FM-15+0582LEMD V0203501N00261999999CY0099001N1+00601+00101999999ADDMA1102911096081MW1001REMMET053LEMD 180730Z 35005KT 310V020 CAVOK 06/01 Q1029 NOSIG;
0086082210999992005031807304+40450-003550FM-15+0582LEMD V0203501N00261999999CY0099001N1+00601+00101999999ADDMA1102911096081MW1001REMMET053LEMD 180730Z 35005KT 310V020 CAVOK 06/01 Q1029 NOSIG;
0086082210999992005031807304+40450-003550FM-15+0582LEMD V0203501N00261999999CY0099001N1+00601+00101999999ADDMA1102911096081MW1001REMMET053LEMD 180730Z 35005KT 310V020 CAVOK 06/01 Q1029 NOSIG;
0086082210999992005031807304+40450-003550FM-15+0582LEMD V0203501N00261999999CY0099001N1+00601+00101999999ADDMA1102911096081MW1001REMMET053LEMD 180730Z 35005KT 310V020 CAVOK 06/01 Q1029 NOSIG;
0086082210999992005031807304+40450-003550FM-15+0582LEMD V0203501N00261999999CY0099001N1+00601+00101999999ADDMA1102911096081MW1001REMMET053LEMD 180730Z 35005KT 310V020 CAVOK 06/01 Q1029 NOSIG;
0086082210999992005031807304+40450-003550FM-15+0582LEMD V0203501N00261999999CY0099001N1+00601+00101999999ADDMA1102911096081MW1001REMMET053LEMD 180730Z 35005KT 310V020 CAVOK 06/01 Q1029 NOSIG;
0086082210999992005031807304+40450-003550FM-15+0582LEMD V0203501N00261999999CY0099001N1+00601+00101999999ADDMA1102911096081MW1001REMMET053LEMD 180730Z 35005KT 310V020 CAVOK 06/01 Q1029 NOSIG;
0086082210999992005031807304+40450-003550FM-15+0582LEMD V0203501N00261999999CY0099001N1+00601+00101999999ADDMA1102911096081MW1001REMMET053LEMD 180730Z 35005KT 310V020 CAVOK 06/01 Q1029 NOSIG;
0086082210999992005031807304+40450-003550FM-15+0582LEMD V0203501N00261999999CY0099001N1+00601+00101999999ADDMA1102911096081MW1001REMMET053LEMD 180730Z 35005KT 310V020 CAVOK 06/01 Q1029 NOSIG;
0086082210999992005031807304+40450-003550FM-15+0582LEMD V0203501N00261999999CY0099001N1+00601+00101999999ADDMA1102911096081MW1001REMMET053LEMD 180730Z 35005KT 310V020 CAVOK 06/01 Q1029 NOSIG;
0086082210999992005031807304+40450-003550FM-15+0582LEMD V0203501N00261999999CY0099001N1+00601+00101999999ADDMA1102911096081MW1001REMMET053LEMD 180730Z 35005KT 310V020 CAVOK 06/01 Q1029 NOSIG;
0086082210999992005031807304+40450-003550FM-15+0582LEMD V0203501N00261999999CY0099001N1+00601+00101999999ADDMA1102911096081MW1001REMMET053LEMD 180730Z 35005KT 310V020 CAVOK 06/01 Q1029 NOSIG;
0086082210999992005031807304+40450-003550FM-15+0582LEMD V0203501N00261999999CY0099001N1+00601+00101999999ADDMA1102911096081MW1001REMMET053LEMD 180730Z 35005KT 310V020 CAVOK 06/01 Q1029 NOSIG;
0086082210999992005031807304+40450-003550FM-15+0582LEMD V0203501N00261999999CY0099001N1+00601+00101999999ADDMA1102911096081MW1001REMMET053LEMD 180730Z 35005KT 310V020 CAVOK 06/01 Q1029 NOSIG;
0086082210999992005031807304+40450-003550FM-15+0582LEMD V0203501N00261999999CY0099001N1+00601+00101999999ADDMA1102911096081MW1001REMMET053LEMD 180730Z 35005KT 310V020 CAVOK 06/01 Q1029 NOSIG;
0086082210999992005031807304+40450-003550FM-15+0582LEMD V0203501N00261999999CY0099001N1+00601+00101999999ADDMA1102911096081MW1001REMMET053LEMD 180730Z 35005KT 310V020 CAVOK 06/01 Q1029 NOSIG;
0086082210999992005031807304+40450-003550FM-15+0582LEMD V0203501N00261999999CY0099001N1+00601+00101999999ADDMA1102911096081MW1001REMMET053LEMD 180730Z 35005KT 310V020 CAVOK 06/01 Q1029 NOSIG;
0086082210999992005031807304+40450-003550FM-15+0582LEMD V0203501N00261999999CY0099001N1+00601+00101999999ADDMA1102911096081MW1001REMMET053LEMD 180730Z 35005KT 310V020 CAVOK 06/01 Q1029 NOSIG;
0086082210999992005031807304+40450-003550FM-15+0582LEMD V0203501N00261999999CY0099001N1+00601+00101999999ADDMA1102911096081MW1001REMMET053LEMD 180730Z 35005KT 310V020 CAVOK 06/01 Q1029 NOSIG;
0086082210999992005031807304+40450-003550FM-15+0582LEMD V0203501N00261999999CY0099001N1+00601+00101999999ADDMA1102911096081MW1001REMMET053LEMD 180730Z 35005KT 310V020 CAVOK 06/01 Q1029 NOSIG;
0086082210999992005031807304+40450-003550FM-15+0582LEMD V0203501N00261999999CY0099001N1+00601+00101999999ADDMA1102911096081MW1001REMMET053LEMD 180730Z 35005KT 310V020 CAVOK 06/01 Q1029 NOSIG;
0086082210999992005031807304+40450-003550FM-15+0582LEMD V0203501N00261999999CY0099001N1+00601+00101999999ADDMA1102911096081MW1001REMMET053LEMD 180730Z 35005KT 310V020 CAVOK 06/01 Q1029 NOSIG;
0086082210999992005031807304+40450-003550FM-15+0582LEMD V0203501N00261999999CY0099001N1+00601+00101999999ADDMA1102911096081MW1001REMMET053LEMD 180730Z 35005KT 310V020 CAVOK 06/01 Q1029 NOSIG;
0086082210999992005031807304+40450-003550FM-15+0582LEMD V0203501N00261999999CY0099001N1+00601+00101999999ADDMA1102911096081MW1001REMMET053LEMD 180730Z 35005KT 310V020 CAVOK 06/01 Q1029 NOSIG;
0086082210999992005031807304+40450-003550FM-15+0582LEMD V0203501N00261999999CY0099001N1+00601+00101999999ADDMA1102911096081MW1001REMMET053LEMD 180730Z 35005KT 310V020 CAVOK 06/01 Q1029 NOSIG;
0086082210999992005031807304+40450-003550FM-15+0582LEMD V0203501N00261999999CY0099001N1+00601+00101999999ADDMA1102911096081MW1001REMMET053LEMD 180730Z 35005KT 310V020 CAVOK 06/01 Q1029 NOSIG;
0086082210999992005031807304+40450-003550FM-15+0582LEMD V0203501N00261999999CY0099001N1+00601+00101999999ADDMA1102911096081MW1001REMMET053LEMD 180730Z 35005KT 310V020 CAVOK 06/01 Q1029 NOSIG;
0086082210999992005031807304+40450-003550FM-15+0582LEMD V0203501N00261999999CY0099001N1+00601+00101999999ADDMA1102911096081MW1001REMMET053LEMD 180730Z 35005KT 310V020 CAVOK 06/01 Q1029 NOSIG;
0086082210999992005031807304+40450-003550FM-15+0582LEMD V0203501N00261999999CY0099001N1+00601+00101999999ADDMA1102911096081MW1001REMMET053LEMD 180730Z 35005KT 310V020 CAVOK 06/01 Q1029 NOSIG;
0086082210999992005031807304+40450-003550FM-15+0582LEMD V0203501N00261999999CY0099001N1+00601+00101999999ADDMA1102911096081MW1001REMMET053LEMD 180730Z 35005KT 310V020 CAVOK 06/01 Q1029 NOSIG;
0086082210999992005031807304+40450-003550FM-15+0582LEMD V0203501N00261999999CY0099001N1+00601+00101999999ADDMA1102911096081MW1001REMMET053LEMD 180730Z 35005KT 310V020 CAVOK 06/01 Q1029 NOSIG;
0086082210999992005031807304+40450-003550FM-15+0582LEMD V0203501N00261999999CY0099001N1+00601+00101999999ADDMA1102911096081MW1001REMMET053LEMD 180730Z 35005KT 310V020 CAVOK 06/01 Q1029 NOSIG;
0086082210999992005031807304+40450-003550FM-15+0582LEMD V0203501N00261999999CY0099001N1+00601+00101999999ADDMA1102911096081MW1001REMMET053LEMD 180730Z 35005KT 310V020 CAVOK 06/01 Q1029 NOSIG;
0086082210999992005031807304+40450-003550FM-15+0582LEMD V0203501N00261999999CY0099001N1+00601+00101999999ADDMA1102911096081MW1001REMMET053LEMD 180730Z 35005KT 310V020 CAVOK 06/01 Q1029 NOSIG;
0086082210999992005031807304+40450-003550FM-15+0582LEMD V0203501N00261999999CY0099001N1+00601+00101999999ADDMA1102911096081MW1001REMMET053LEMD 180730Z 35005KT 310V020 CAVOK 06/01 Q1029 NOSIG;
0086082210999992005031807304+40450-003550FM-15+0582LEMD V0203501N00261999999CY0099001N1+00601+00101999999ADDMA1102911096081MW1001REMMET053LEMD 180730Z 35005KT 310V020 CAVOK 06/01 Q1029 NOSIG;
0086082210999992005031807304+40450-003550FM-15+0582LEMD V0203501N00261999999CY0099001N1+00601+00101999999ADDMA1102911096081MW1001REMMET053LEMD 180730Z 35005KT 310V020 CAVOK 06/01 Q1029 NOSIG;
0086082210999992005031807304+40450-003550FM-15+0582LEMD V0203501N00261999999CY0099001N1+00601+00101999999ADDMA1102911096081MW1001REMMET053LEMD 180730Z 35005KT 310V020 CAVOK 06/01 Q1029 NOSIG;
0086082210999992005031807304+40450-003550FM-15+0582LEMD V0203501N00261999999CY0099001N1+00601+00101999999ADDMA1102911096081MW1001REMMET053LEMD 180730Z 35005KT 310V020 CAVOK 06/01 Q1029 NOSIG;
0086082210999992005031807304+40450-003550FM-15+0582LEMD V0203501N00261999999CY0099001N1+00601+00101999999ADDMA1102911096081MW1001REMMET053LEMD 180730Z 35005KT 310V020 CAVOK 06/01 Q1029 NOSIG;
0086082210999992005031807304+40450-003550FM-15+0582LEMD V0203501N00261999999CY0099001N1+00601+00101999999ADDMA1102911096081MW1001REMMET053LEMD 180730Z 35005KT 310V020 CAVOK 06/01 Q1029 NOSIG;
0086082210999992005031807304+40450-003550FM-15+0582LEMD V0203501N00261999999CY0099001N1+00601+00101999999ADDMA1102911096081MW1001REMMET053LEMD 180730Z 35005KT 310V020 CAVOK 06/01 Q1029 NOSIG;
0086082210999992005031807304+40450-003550FM-15+0582LEMD V0203501N00261999999CY0099001N1+00601+00101999999ADDMA1102911096081MW1001REMMET053LEMD 180730Z 35005KT 310V020 CAVOK 06/01 Q1029 NOSIG;
0086082210999992005031807304+40450-003550FM-15+0582LEMD V0203501N00261999999CY0099001N1+00601+00101999999ADDMA1102911096081MW1001REMMET053LEMD 180730Z 35005KT 310V020 CAVOK 06/01 Q1029 NOSIG;
0086082210999992005031807304+40450-003550FM-15+0582LEMD V0203501N00261999999CY0099001N1+00601+00101999999ADDMA1102911096081MW1001REMMET053LEMD 180730Z 35005KT 310V020 CAVOK 06/01 Q1029 NOSIG;
0086082210999992005031807304+40450-003550FM-15+0582LEMD V0203501N00261999999CY0099001N1+00601+00101999999ADDMA1102911096081MW1001REMMET053LEMD 180730Z 35005KT 310V020 CAVOK 06/01 Q1029 NOSIG;
0086082210999992005031807304+40450-003550FM-15+0582LEMD V0203501N00261999999CY0099001N1+00601+00101999999ADDMA1102911096081MW1001REMMET053LEMD 180730Z 35005KT 310V020 CAVOK 06/01 Q1029 NOSIG;
0086082210999992005031807304+40450-003550FM-15+0582LEMD V0203501N00261999999CY0099001N1+00601+00101999999ADDMA1102911096081MW1001REMMET053LEMD 180730Z 35005KT 310V020 CAVOK 06/01 Q1029 NOSIG;
0086082210999992005031807304+40450-003550FM-15+0582LEMD V0203501N00261999999CY0099001N1+00601+00101999999ADDMA1102911096081MW1001REMMET053LEMD 180730Z 35005KT 310V020 CAVOK 06/01 Q1029 NOSIG;
0086082210999992005031807304+40450-003550FM-15+0582LEMD V0203501N00261999999CY0099001N1+00601+00101999999ADDMA1102911096081MW1001REMMET053LEMD 180730Z 35005KT 310V020 CAVOK 06/01 Q1029 NOSIG;
0086082210999992005031807304+40450-003550FM-15+0582LEMD V0203501N00261999999CY0099001N1+00601+00101999999ADDMA1102911096081MW1001REMMET053LEMD 180730Z 35005KT 310V020 CAVOK 06/01 Q1029 NOSIG;
0086082210999992005031807304+40450-003550FM-15+0582LEMD V0203501N00261999999CY0099001N1+00601+00101999999ADDMA1102911096081MW1001REMMET053LEMD 180730Z 35005KT 310V020 CAVOK 06/01 Q1029 NOSIG;
0086082210999992005031807304+40450-003550FM-15+0582LEMD V0203501N00261999999CY0099001N1+00601+00101999999ADDMA1102911096081MW1001REMMET053LEMD 180730Z 35005KT 310V020 CAVOK 06/01 Q1029 NOSIG;
0086082210999992005031807304+40450-003550FM-15+0582LEMD V0203501N00261999999CY0099001N1+00601+00101999999ADDMA1102911096081MW1001REMMET053LEMD 180730Z 35005KT 310V020 CAVOK 06/01 Q1029 NOSIG;
0086082210999992005031807304+40450-003550FM-15+0582LEMD V0203501N00261999999CY0099001N1+00601+00101999999ADDMA1102911096081MW1001REMMET053LEMD 180730Z 35005KT 310V020 CAVOK 06/01 Q1029 NOSIG;
0086082210999992005031807304+40450-003550FM-15+0582LEMD V0203501N00261999999CY0099001N1+00601+00101999999ADDMA1102911096081MW1001REMMET053LEMD 180730Z 35005KT 310V020 CAVOK 06/01 Q1029 NOSIG;
0086082210999992005031807304+40450-003550FM-15+0582LEMD V0203501N00261999999CY0099001N1+00601+00101999999ADDMA1102911096081MW1001REMMET053LEMD 180730Z 35005KT 310V020 CAVOK 06/01 Q1029 NOSIG;
0086082210999992005031807304+40450-003550FM-15+0582LEMD V0203501N00261999999CY0099001N1+00601+00101999999ADDMA1102911096081MW1001REMMET053LEMD 180730Z 35005KT 310V020 CAVOK 06/01 Q1029 NOSIG;
0086082210999992005031807304+40450-003550FM-15+0582LEMD V0203501N00261999999CY0099001N1+00601+00101999999ADDMA1102911096081MW1001REMMET053LEMD 180730Z 35005KT 310V020 CAVOK 06/01 Q1029 NOSIG;
0086082210999992005031807304+40450-003550FM-15+0582LEMD V0203501N00261999999CY0099001N1+00601+00101999999ADDMA1102911096081MW1001REMMET053LEMD 180730Z 35005KT 310V020 CAVOK 06/01 Q1029 NOSIG;
0086082210999992005031807304+40450-003550FM-15+0582LEMD V0203501N00261999999CY0099001N1+00601+00101999999ADDMA1102911096081MW1001REMMET053LEMD 180730Z 35005KT 310V020 CAVOK 06/01 Q1029 NOSIG;
0086082210999992005031807304+40450-003550FM-15+0582LEMD V0203501N00261999999CY0099001N1+00601+00101999999ADDMA1102911096081MW1001REMMET053LEMD 180730Z 35005KT 310V020 CAVOK 06/01 Q1029 NOSIG;
0086082210999992005031807304+40450-003550FM-15+0582LEMD V0203501N00261999999CY0099001N1+00601+00101999999ADDMA1102911096081MW1001REMMET053LEMD 180730Z 35005KT 310V020 CAVOK 06/01 Q1029 NOSIG;
0086082210999992005031807304+40450-003550FM-15+0582LEMD V0203501N00261999999CY0099001N1+00601+00101999999ADDMA1102911096081MW1001REMMET053LEMD 180730Z 35005KT 310V020 CAVOK 06/01 Q1029 NOSIG;
0086082210999992005031807304+40450-003550FM-15+0582LEMD V0203501N00261999999CY0099001N1+00601+00101999999ADDMA1102911096081MW1001REMMET053LEMD 180730Z 35005KT 310V020 CAVOK 06/01 Q1029 NOSIG;
0086082210999992005031807304+40450-003550FM-15+0582LEMD V0203501N00261999999CY0099001N1+00601+00101999999ADDMA1102911096081MW1001REMMET053LEMD 180730Z 35005KT 310V020 CAVOK 06/01 Q1029 NOSIG;
0086082210999992005031807304+40450-003550FM-15+0582LEMD V0203501N00261999999CY0099001N1+00601+00101999999ADDMA1102911096081MW1001REMMET053LEMD 180730Z 35005KT 310V020 CAVOK 06/01 Q1029 NOSIG;
0086082210999992005031807304+40450-003550FM-15+0582LEMD V0203501N00261999999CY0099001N1+00601+00101999999ADDMA1102911096081MW1001REMMET053LEMD 180730Z 35005KT 310V020 CAVOK 06/01 Q1029 NOSIG;
0086082210999992005031807304+40450-003550FM-15+0582LEMD V0203501N00261999999CY0099001N1+00601+00101999999ADDMA1102911096081MW1001REMMET053LEMD 180730Z 35005KT 310V020 CAVOK 06/01 Q1029 NOSIG;
0086082210999992005031807304+40450-003550FM-15+0582LEMD V0203501N00261999999CY0099001N1+00601+00101999999ADDMA1102911096081MW1001REMMET053LEMD 180730Z 35005KT 310V020 CAVOK 06/01 Q1029 NOSIG;
0086082210999992005031807304+40450-003550FM-15+0582LEMD V0203501N00261999999CY0099001N1+00601+00101999999ADDMA1102911096081MW1001REMMET053LEMD 180730Z 35005KT 310V020 CAVOK 06/01 Q1029 NOSIG;
0086082210999992005031807304+40450-003550FM-15+0582LEMD V0203501N00261999999CY0099001N1+00601+00101999999ADDMA1102911096081MW1001REMMET053LEMD 180730Z 35005KT 310V020 CAVOK 06/01 Q1029 NOSIG;
0086082210999992005031807304+40450-003550FM-15+0582LEMD V0203501N00261999999CY0099001N1+00601+00101999999ADDMA1102911096081MW1001REMMET053LEMD 180730Z 35005KT 310V020 CAVOK 06/01 Q1029 NOSIG;
0086082210999992005031807304+40450-003550FM-15+0582LEMD V0203501N00261999999CY0099001N1+00601+00101999999ADDMA1102911096081MW1001REMMET053LEMD 180730Z 35005KT 310V020 CAVOK 06/01 Q1029 NOSIG;
0086082210999992005031807304+40450-003550FM-15+0582LEMD V0203501N00261999999CY0099001N1+00601+00101999999ADDMA1102911096081MW1001REMMET053LEMD 180730Z 35005KT 310V020 CAVOK 06/01 Q1029 NOSIG;
0086082210999992005031807304+40450-003550FM-15+0582LEMD V0203501N00261999999CY0099001N1+00601+00101999999ADDMA1102911096081MW1001REMMET053LEMD 180730Z 35005KT 310V020 CAVOK 06/01 Q1029 NOSIG;
0086082210999992005031807304+40450-003550FM-15+0582LEMD V0203501N00261999999CY0099001N1+00601+00101999999ADDMA1102911096081MW1001REMMET053LEMD 180730Z 35005KT 310V020 CAVOK 06/01 Q1029 NOSIG;
0086082210999992005031807304+40450-003550FM-15+0582LEMD V0203501N00261999999CY0099001N1+00601+00101999999ADDMA1102911096081MW1001REMMET053LEMD 180730Z 35005KT 310V020 CAVOK 06/01 Q1029 NOSIG;
0086082210999992005031807304+40450-003550FM-15+0582LEMD V0203501N00261999999CY0099001N1+00601+00101999999ADDMA1102911096081MW1001REMMET053LEMD 180730Z 35005KT 310V020 CAVOK 06/01 Q1029 NOSIG;
0086082210999992005031807304+40450-003550FM-15+0582LEMD V0203501N00261999999CY0099001N1+00601+00101999999ADDMA1102911096081MW1001REMMET053LEMD 180730Z 35005KT 310V020 CAVOK 06/01 Q1029 NOSIG;
0086082210999992005031807304+40450-003550FM-15+0582LEMD V0203501N00261999999CY0099001N1+00601+00101999999ADDMA1102911096081MW1001REMMET053LEMD 180730Z 35005KT 310V020 CAVOK 06/01 Q1029 NOSIG;
0086082210999992005031807304+40450-003550FM-15+0582LEMD V0203501N00261999999CY0099001N1+00601+00101999999ADDMA1102911096081MW1001REMMET053LEMD 180730Z 35005KT 310V020 CAVOK 06/01 Q1029 NOSIG;
0086082210999992005031807304+40450-003550FM-15+0582LEMD V0203501N00261999999CY0099001N1+00601+00101999999ADDMA1102911096081MW1001REMMET053LEMD 180730Z 35005KT 310V020 CAVOK 06/01 Q1029 NOSIG;
0086082210999992005031807304+40450-003550FM-15+0582LEMD V0203501N00261999999CY0099001N1+00601+00101999999ADDMA1102911096081MW1001REMMET053LEMD 180730Z 35005KT 310V020 CAVOK 06/01 Q1029 NOSIG;
0086082210999992005031807304+40450-003550FM-15+0582LEMD V0203501N00261999999CY0099001N1+00601+00101999999ADDMA1102911096081MW1001REMMET053LEMD 180730Z 35005KT 310V020 CAVOK 06/01 Q1029 NOSIG;
0086082210999992005031807304+40450-003550FM-15+0582LEMD V0203501N00261999999CY0099001N1+00601+00101999999ADDMA1102911096081MW1001REMMET053LEMD 180730Z 35005KT 310V020 CAVOK 06/01 Q1029 NOSIG;
0086082210999992005031807304+40450-003550FM-15+0582LEMD V0203501N00261999999CY0099001N1+00601+00101999999ADDMA1102911096081MW1001REMMET053LEMD 180730Z 35005KT 310V020 CAVOK 06/01 Q1029 NOSIG;
0086082210999992005031807304+40450-003550FM-15+0582LEMD V0203501N00261999999CY0099001N1+00601+00101999999ADDMA1102911096081MW1001REMMET053LEMD 180730Z 35005KT 310V020 CAVOK 06/01 Q1029 NOSIG;
0086082210999992005031807304+40450-003550FM-15+0582LEMD V0203501N00261999999CY0099001N1+00601+00101999999ADDMA1102911096081MW1001REMMET053LEMD 180730Z 35005KT 310V020 CAVOK 06/01 Q1029 NOSIG;
0086082210999992005031807304+40450-003550FM-15+0582LEMD V0203501N00261999999CY0099001N1+00601+00101999999ADDMA1102911096081MW1001REMMET053LEMD 180730Z 35005KT 310V020 CAVOK 06/01 Q1029 NOSIG;
0086082210999992005031807304+40450-003550FM-15+0582LEMD V0203501N00261999999CY0099001N1+00601+00101999999ADDMA1102911096081MW1001REMMET053LEMD 180730Z 35005KT 310V020 CAVOK 06/01 Q1029 NOSIG;
0086082210999992005031807304+40450-003550FM-15+0582LEMD V0203501N00261999999CY0099001N1+00601+00101999999ADDMA1102911096081MW1001REMMET053LEMD 180730Z 35005KT 310V020 CAVOK 06/01 Q1029 NOSIG;
0086082210999992005031807304+40450-003550FM-15+0582LEMD V0203501N00261999999CY0099001N1+00601+00101999999ADDMA1102911096081MW1001REMMET053LEMD 180730Z 35005KT 310V020 CAVOK 06/01 Q1029 NOSIG;
0086082210999992005031807304+40450-003550FM-15+0582LEMD V0203501N00261999999CY0099001N1+00601+00101999999ADDMA1102911096081MW1001REMMET053LEMD 180730Z 35005KT 310V020 CAVOK 06/01 Q1029 NOSIG;
0086082210999992005031807304+40450-003550FM-15+0582LEMD V0203501N00261999999CY0099001N1+00601+00101999999ADDMA1102911096081MW1001REMMET053LEMD 180730Z 35005KT 310V020 CAVOK 06/01 Q1029 NOSIG;
0086082210999992005031807304+40450-003550FM-15+0582LEMD V0203501N00261999999CY0099001N1+00601+00101999999ADDMA1102911096081MW1001REMMET053LEMD 180730Z 35005KT 310V020 CAVOK 06/01 Q1029 NOSIG;
0086082210999992005031807304+40450-003550FM-15+0582LEMD V0203501N00261999999CY0099001N1+00601+00101999999ADDMA1102911096081MW1001REMMET053LEMD 180730Z 35005KT 310V020 CAVOK 06/01 Q1029 NOSIG;
0086082210999992005031807304+40450-003550FM-15+0582LEMD V0203501N00261999999CY0099001N1+00601+00101999999ADDMA1102911096081MW1001REMMET053LEMD 180730Z 35005KT 310V020 CAVOK 06/01 Q1029 NOSIG;
0086082210999992005031807304+40450-003550FM-15+0582LEMD V0203501N00261999999CY0099001N1+00601+00101999999ADDMA1102911096081MW1001REMMET053LEMD 180730Z 35005KT 310V020 CAVOK 06/01 Q1029 NOSIG;
0086082210999992005031807304+40450-003550FM-15+0582LEMD V0203501N00261999999CY0099001N1+00601+00101999999ADDMA1102911096081MW1001REMMET053LEMD 180730Z 35005KT 310V020 CAVOK 06/01 Q1029 NOSIG;
0086082210999992005031807304+40450-003550FM-15+0582LEMD V0203501N00261999999CY0099001N1+00601+00101999999ADDMA1102911096081MW1001REMMET053LEMD 180730Z 35005KT 310V020 CAVOK 06/01 Q1029 NOSIG;
0086082210999992005031807304+40450-003550FM-15+0582LEMD V0203501N00261999999CY0099001N1+00601+00101999999ADDMA1102911096081MW1001REMMET053LEMD 180730Z 35005KT 310V020 CAVOK 06/01 Q1029 NOSIG;
0086082210999992005031807304+40450-003550FM-15+0582LEMD V0203501N00261999999CY0099001N1+00601+00101999999ADDMA1102911096081MW1001REMMET053LEMD 180730Z 35005KT 310V020 CAVOK 06/01 Q1029 NOSIG;
0086082210999992005031807304+40450-003550FM-15+0582LEMD V0203501N00261999999CY0099001N1+00601+00101999999ADDMA1102911096081MW1001REMMET053LEMD 180730Z 35005KT 310V020 CAVOK 06/01 Q1029 NOSIG;
0086082210999992005031807304+40450-003550FM-15+0582LEMD V0203501N00261999999CY0099001N1+00601+00101999999ADDMA1102911096081MW1001REMMET053LEMD 180730Z 35005KT 310V020 CAVOK 06/01 Q1029 NOSIG;
0086082210999992005031807304+40450-003550FM-15+0582LEMD V0203501N00261999999CY0099001N1+00601+00101999999ADDMA1102911096081MW1001REMMET053LEMD 180730Z 35005KT 310V020 CAVOK 06/01 Q1029 NOSIG;
0086082210999992005031807304+40450-003550FM-15+0582LEMD V0203501N00261999999CY0099001N1+00601+00101999999ADDMA1102911096081MW1001REMMET053LEMD 180730Z 35005KT 310V020 CAVOK 06/01 Q1029 NOSIG;
0086082210999992005031807304+40450-003550FM-15+0582LEMD V0203501N00261999999CY0099001N1+00601+00101999999ADDMA1102911096081MW1001REMMET053LEMD 180730Z 35005KT 310V020 CAVOK 06/01 Q1029 NOSIG;
0086082210999992005031807304+40450-003550FM-15+0582LEMD V0203501N00261999999CY0099001N1+00601+00101999999ADDMA1102911096081MW1001REMMET053LEMD 180730Z 35005KT 310V020 CAVOK 06/01 Q1029 NOSIG;
0086082210999992005031807304+40450-003550FM-15+0582LEMD V0203501N00261999999CY0099001N1+00601+00101999999ADDMA1102911096081MW1001REMMET053LEMD 180730Z 35005KT 310V020 CAVOK 06/01 Q1029 NOSIG;
0086082210999992005031807304+40450-003550FM-15+0582LEMD V0203501N00261999999CY0099001N1+00601+00101999999ADDMA1102911096081MW1001REMMET053LEMD 180730Z 35005KT 310V020 CAVOK 06/01 Q1029 NOSIG;
0086082210999992005031807304+40450-003550FM-15+0582LEMD V0203501N00261999999CY0099001N1+00601+00101999999ADDMA1102911096081MW1001REMMET053LEMD 180730Z 35005KT 310V020 CAVOK 06/01 Q1029 NOSIG;
0086082210999992005031807304+40450-003550FM-15+0582LEMD V0203501N00261999999CY0099001N1+00601+00101999999ADDMA1102911096081MW1001REMMET053LEMD 180730Z 35005KT 310V020 CAVOK 06/01 Q1029 NOSIG;
0086082210999992005031807304+40450-003550FM-15+0582LEMD V0203501N00261999999CY0099001N1+00601+00101999999ADDMA1102911096081MW1001REMMET053LEMD 180730Z 35005KT 310V020 CAVOK 06/01 Q1029 NOSIG;
0086082210999992005031807304+40450-003550FM-15+0582LEMD V0203501N00261999999CY0099001N1+00601+00101999999ADDMA1102911096081MW1001REMMET053LEMD 180730Z 35005KT 310V020 CAVOK 06/01 Q1029 NOSIG;
0086082210999992005031807304+40450-003550FM-15+0582LEMD V0203501N00261999999CY0099001N1+00601+00101999999ADDMA1102911096081MW1001REMMET053LEMD 180730Z 35005KT 310V020 CAVOK 06/01 Q1029 NOSIG;
0086082210999992005031807304+40450-003550FM-15+0582LEMD V0203501N00261999999CY0099001N1+00601+00101999999ADDMA1102911096081MW1001REMMET053LEMD 180730Z 35005KT 310V020 CAVOK 06/01 Q1029 NOSIG;
0086082210999992005031807304+40450-003550FM-15+0582LEMD V0203501N00261999999CY0099001N1+00601+00101999999ADDMA1102911096081MW1001REMMET053LEMD 180730Z 35005KT 310V020 CAVOK 06/01 Q1029 NOSIG;
0086082210999992005031807304+40450-003550FM-15+0582LEMD V0203501N00261999999CY0099001N1+00601+00101999999ADDMA1102911096081MW1001REMMET053LEMD 180730Z 35005KT 310V020 CAVOK 06/01 Q1029 NOSIG;
0086082210999992005031807304+40450-003550FM-15+0582LEMD V0203501N00261999999CY0099001N1+00601+00101999999ADDMA1102911096081MW1001REMMET053LEMD 180730Z 35005KT 310V020 CAVOK 06/01 Q1029 NOSIG;
0086082210999992005031807304+40450-003550FM-15+0582LEMD V0203501N00261999999CY0099001N1+00601+00101999999ADDMA1102911096081MW1001REMMET053LEMD 180730Z 35005KT 310V020 CAVOK 06/01 Q1029 NOSIG;
0086082210999992005031807304+40450-003550FM-15+0582LEMD V0203501N00261999999CY0099001N1+00601+00101999999ADDMA1102911096081MW1001REMMET053LEMD 180730Z 35005KT 310V020 CAVOK 06/01 Q1029 NOSIG;
0086082210999992005031807304+40450-003550FM-15+0582LEMD V0203501N00261999999CY0099001N1+00601+00101999999ADDMA1102911096081MW1001REMMET053LEMD 180730Z 35005KT 310V020 CAVOK 06/01 Q1029 NOSIG;
0086082210999992005031807304+40450-003550FM-15+0582LEMD V0203501N00261999999CY0099001N1+00601+00101999999ADDMA1102911096081MW1001REMMET053LEMD 180730Z 35005KT 310V020 CAVOK 06/01 Q1029 NOSIG;
0086082210999992005031807304+40450-003550FM-15+0582LEMD V0203501N00261999999CY0099001N1+00601+00101999999ADDMA1102911096081MW1001REMMET053LEMD 180730Z 35005KT 310V020 CAVOK 06/01 Q1029 NOSIG;
0086082210999992005031807304+40450-003550FM-15+0582LEMD V0203501N00261999999CY0099001N1+00601+00101999999ADDMA1102911096081MW1001REMMET053LEMD 180730Z 35005KT 310V020 CAVOK 06/01 Q1029 NOSIG;
0086082210999992005031807304+40450-003550FM-15+0582LEMD V0203501N00261999999CY0099001N1+00601+00101999999ADDMA1102911096081MW1001REMMET053LEMD 180730Z 35005KT 310V020 CAVOK 06/01 Q1029 NOSIG;
0086082210999992005031807304+40450-003550FM-15+0582LEMD V0203501N00261999999CY0099001N1+00601+00101999999ADDMA1102911096081MW1001REMMET053LEMD 180730Z 35005KT 310V020 CAVOK 06/01 Q1029 NOSIG;
0086082210999992005031807304+40450-003550FM-15+0582LEMD V0203501N00261999999CY0099001N1+00601+00101999999ADDMA1102911096081MW1001REMMET053LEMD 180730Z 35005KT 310V020 CAVOK 06/01 Q1029 NOSIG;
0086082210999992005031807304+40450-003550FM-15+0582LEMD V0203501N00261999999CY0099001N1+00601+00101999999ADDMA1102911096081MW1001REMMET053LEMD 180730Z 35005KT 310V020 CAVOK 06/01 Q1029 NOSIG;
0086082210999992005031807304+40450-003550FM-15+0582LEMD V0203501N00261999999CY0099001N1+00601+00101999999ADDMA1102911096081MW1001REMMET053LEMD 180730Z 35005KT 310V020 CAVOK 06/01 Q1029 NOSIG;
0086082210999992005031807304+40450-003550FM-15+0582LEMD V0203501N00261999999CY0099001N1+00601+00101999999ADDMA1102911096081MW1001REMMET053LEMD 180730Z 35005KT 310V020 CAVOK 06/01 Q1029 NOSIG;
0086082210999992005031807304+40450-003550FM-15+0582LEMD V0203501N00261999999CY0099001N1+00601+00101999999ADDMA1102911096081MW1001REMMET053LEMD 180730Z 35005KT 310V020 CAVOK 06/01 Q1029 NOSIG;
0086082210999992005031807304+40450-003550FM-15+0582LEMD V0203501N00261999999CY0099001N1+00601+00101999999ADDMA1102911096081MW1001REMMET053LEMD 180730Z 35005KT 310V020 CAVOK 06/01 Q1029 NOSIG;
0086082210999992005031807304+40450-003550FM-15+0582LEMD V0203501N00261999999CY0099001N1+00601+00101999999ADDMA1102911096081MW1001REMMET053LEMD 180730Z 35005KT 310V020 CAVOK 06/01 Q1029 NOSIG;
0086082210999992005031807304+40450-003550FM-15+0582LEMD V0203501N00261999999CY0099001N1+00601+00101999999ADDMA1102911096081MW1001REMMET053LEMD 180730Z 35005KT 310V020 CAVOK 06/01 Q1029 NOSIG;
0086082210999992005031807304+40450-003550FM-15+0582LEMD V0203501N00261999999CY0099001N1+00601+00101999999ADDMA1102911096081MW1001REMMET053LEMD 180730Z 35005KT 310V020 CAVOK 06/01 Q1029 NOSIG;
0086082210999992005031807304+40450-003550FM-15+0582LEMD V0203501N00261999999CY0099001N1+00601+00101999999ADDMA1102911096081MW1001REMMET053LEMD 180730Z 35005KT 310V020 CAVOK 06/01 Q1029 NOSIG;
0086082210999992005031807304+40450-003550FM-15+0582LEMD V0203501N00261999999CY0099001N1+00601+00101999999ADDMA1102911096081MW1001REMMET053LEMD 180730Z 35005KT 310V020 CAVOK 06/01 Q1029 NOSIG;
0086082210999992005031807304+40450-003550FM-15+0582LEMD V0203501N00261999999CY0099001N1+00601+00101999999ADDMA1102911096081MW1001REMMET053LEMD 180730Z 35005KT 310V020 CAVOK 06/01 Q1029 NOSIG;
0086082210999992005031807304+40450-003550FM-15+0582LEMD V0203501N00261999999CY0099001N1+00601+00101999999ADDMA1102911096081MW1001REMMET053LEMD 180730Z 35005KT 310V020 CAVOK 06/01 Q1029 NOSIG;
0086082210999992005031807304+40450-003550FM-15+0582LEMD V0203501N00261999999CY0099001N1+00601+00101999999ADDMA1102911096081MW1001REMMET053LEMD 180730Z 35005KT 310V020 CAVOK 06/01 Q1029 NOSIG;
0086082210999992005031807304+40450-003550FM-15+0582LEMD V0203501N00261999999CY0099001N1+00601+00101999999ADDMA1102911096081MW1001REMMET053LEMD 180730Z 35005KT 310V020 CAVOK 06/01 Q1029 NOSIG;
0086082210999992005031807304+40450-003550FM-15+0582LEMD V0203501N00261999999CY0099001N1+00601+00101999999ADDMA1102911096081MW1001REMMET053LEMD 180730Z 35005KT 310V020 CAVOK 06/01 Q1029 NOSIG;
0086082210999992005031807304+40450-003550FM-15+0582LEMD V0203501N00261999999CY0099001N1+00601+00101999999ADDMA1102911096081MW1001REMMET053LEMD 180730Z 35005KT 310V020 CAVOK 06/01 Q1029 NOSIG;
0086082210999992005031807304+40450-003550FM-15+0582LEMD V0203501N00261999999CY0099001N1+00601+00101999999ADDMA1102911096081MW1001REMMET053LEMD 180730Z 35005KT 310V020 CAVOK 06/01 Q1029 NOSIG;
0086082210999992005031807304+40450-003550FM-15+0582LEMD V0203501N00261999999CY0099001N1+00601+00101999999ADDMA1102911096081MW1001REMMET053LEMD 180730Z 35005KT 310V020 CAVOK 06/01 Q1029 NOSIG;
0086082210999992005031807304+40450-003550FM-15+0582LEMD V0203501N00261999999CY0099001N1+00601+00101999999ADDMA1102911096081MW1001REMMET053LEMD 180730Z 35005KT 310V020 CAVOK 06/01 Q1029 NOSIG;
0086082210999992005031807304+40450-003550FM-15+0582LEMD V0203501N00261999999CY0099001N1+00601+00101999999ADDMA1102911096081MW1001REMMET053LEMD 180730Z 35005KT 310V020 CAVOK 06/01 Q1029 NOSIG;
0086082210999992005031807304+40450-003550FM-15+0582LEMD V0203501N00261999999CY0099001N1+00601+00101999999ADDMA1102911096081MW1001REMMET053LEMD 180730Z 35005KT 310V020 CAVOK 06/01 Q1029 NOSIG;
0086082210999992005031807304+40450-003550FM-15+0582LEMD V0203501N00261999999CY0099001N1+00601+00101999999ADDMA1102911096081MW1001REMMET053LEMD 180730Z 35005KT 310V020 CAVOK 06/01 Q1029 NOSIG;
0086082210999992005031807304+40450-003550FM-15+0582LEMD V0203501N00261999999CY0099001N1+00601+00101999999ADDMA1102911096081MW1001REMMET053LEMD 180730Z 35005KT 310V020 CAVOK 06/01 Q1029 NOSIG;
0086082210999992005031807304+40450-003550FM-15+0582LEMD V0203501N00261999999CY0099001N1+00601+00101999999ADDMA1102911096081MW1001REMMET053LEMD 180730Z 35005KT 310V020 CAVOK 06/01 Q1029 NOSIG;
0086082210999992005031807304+40450-003550FM-15+0582LEMD V0203501N00261999999CY0099001N1+00601+00101999999ADDMA1102911096081MW1001REMMET053LEMD 180730Z 35005KT 310V020 CAVOK 06/01 Q1029 NOSIG;
0086082210999992005031807304+40450-003550FM-15+0582LEMD V0203501N00261999999CY0099001N1+00601+00101999999ADDMA1102911096081MW1001REMMET053LEMD 180730Z 35005KT 310V020 CAVOK 06/01 Q1029 NOSIG;
0086082210999992005031807304+40450-003550FM-15+0582LEMD V0203501N00261999999CY0099001N1+00601+00101999999ADDMA1102911096081MW1001REMMET053LEMD 180730Z 35005KT 310V020 CAVOK 06/01 Q1029 NOSIG;
0086082210999992005031807304+40450-003550FM-15+0582LEMD V0203501N00261999999CY0099001N1+00601+00101999999ADDMA1102911096081MW1001REMMET053LEMD 180730Z 35005KT 310V020 CAVOK 06/01 Q1029 NOSIG;
0086082210999992005031807304+40450-003550FM-15+0582LEMD V0203501N00261999999CY0099001N1+00601+00101999999ADDMA1102911096081MW1001REMMET053LEMD 180730Z 35005KT 310V020 CAVOK 06/01 Q1029 NOSIG;
0086082210999992005031807304+40450-003550FM-15+0582LEMD V0203501N00261999999CY0099001N1+00601+00101999999ADDMA1102911096081MW1001REMMET053LEMD 180730Z 35005KT 310V020 CAVOK 06/01 Q1029 NOSIG;
0086082210999992005031807304+40450-003550FM-15+0582LEMD V0203501N00261999999CY0099001N1+00601+00101999999ADDMA1102911096081MW1001REMMET053LEMD 180730Z 35005KT 310V020 CAVOK 06/01 Q1029 NOSIG;
0086082210999992005031807304+40450-003550FM-15+0582LEMD V0203501N00261999999CY0099001N1+00601+00101999999ADDMA1102911096081MW1001REMMET053LEMD 180730Z 35005KT 310V020 CAVOK 06/01 Q1029 NOSIG;
0086082210999992005031807304+40450-003550FM-15+0582LEMD V0203501N00261999999CY0099001N1+00601+00101999999ADDMA1102911096081MW1001REMMET053LEMD 180730Z 35005KT 310V020 CAVOK 06/01 Q1029 NOSIG;
0086082210999992005031807304+40450-003550FM-15+0582LEMD V0203501N00261999999CY0099001N1+00601+00101999999ADDMA1102911096081MW1001REMMET053LEMD 180730Z 35005KT 310V020 CAVOK 06/01 Q1029 NOSIG;
0086082210999992005031807304+40450-003550FM-15+0582LEMD V0203501N00261999999CY0099001N1+00601+00101999999ADDMA1102911096081MW1001REMMET053LEMD 180730Z 35005KT 310V020 CAVOK 06/01 Q1029 NOSIG;
0086082210999992005031807304+40450-003550FM-15+0582LEMD V0203501N00261999999CY0099001N1+00601+00101999999ADDMA1102911096081MW1001REMMET053LEMD 180730Z 35005KT 310V020 CAVOK 06/01 Q1029 NOSIG;
0086082210999992005031807304+40450-003550FM-15+0582LEMD V0203501N00261999999CY0099001N1+00601+00101999999ADDMA1102911096081MW1001REMMET053LEMD 180730Z 35005KT 310V020 CAVOK 06/01 Q1029 NOSIG;
0086082210999992005031807304+40450-003550FM-15+0582LEMD V0203501N00261999999CY0099001N1+00601+00101999999ADDMA1102911096081MW1001REMMET053LEMD 180730Z 35005KT 310V020 CAVOK 06/01 Q1029 NOSIG;
0086082210999992005031807304+40450-003550FM-15+0582LEMD V0203501N00261999999CY0099001N1+00601+00101999999ADDMA1102911096081MW1001REMMET053LEMD 180730Z 35005KT 310V020 CAVOK 06/01 Q1029 NOSIG;
0086082210999992005031807304+40450-003550FM-15+0582LEMD V0203501N00261999999CY0099001N1+00601+00101999999ADDMA1102911096081MW1001REMMET053LEMD 180730Z 35005KT 310V020 CAVOK 06/01 Q1029 NOSIG;
0086082210999992005031807304+40450-003550FM-15+0582LEMD V0203501N00261999999CY0099001N1+00601+00101999999ADDMA1102911096081MW1001REMMET053LEMD 180730Z 35005KT 310V020 CAVOK 06/01 Q1029 NOSIG;
0086082210999992005031807304+40450-003550FM-15+0582LEMD V0203501N00261999999CY0099001N1+00601+00101999999ADDMA1102911096081MW1001REMMET053LEMD 180730Z 35005KT 310V020 CAVOK 06/01 Q1029 NOSIG;
0086082210999992005031807304+40450-003550FM-15+0582LEMD V0203501N00261999999CY0099001N1+00601+00101999999ADDMA1102911096081MW1001REMMET053LEMD 180730Z 35005KT 310V020 CAVOK 06/01 Q1029 NOSIG;
0086082210999992005031807304+40450-003550FM-15+0582LEMD V0203501N00261999999CY0099001N1+00601+00101999999ADDMA1102911096081MW1001REMMET053LEMD 180730Z 35005KT 310V020 CAVOK 06/01 Q1029 NOSIG;
0086082210999992005031807304+40450-003550FM-15+0582LEMD V0203501N00261999999CY0099001N1+00601+00101999999ADDMA1102911096081MW1001REMMET053LEMD 180730Z 35005KT 310V020 CAVOK 06/01 Q1029 NOSIG;
0086082210999992005031807304+40450-003550FM-15+0582LEMD V0203501N00261999999CY0099001N1+00601+00101999999ADDMA1102911096081MW1001REMMET053LEMD 180730Z 35005KT 310V020 CAVOK 06/01 Q1029 NOSIG;
0086082210999992005031807304+40450-003550FM-15+0582LEMD V0203501N00261999999CY0099001N1+00601+00101999999ADDMA1102911096081MW1001REMMET053LEMD 180730Z 35005KT 310V020 CAVOK 06/01 Q1029 NOSIG;
0086082210999992005031807304+40450-003550FM-15+0582LEMD V0203501N00261999999CY0099001N1+00601+00101999999ADDMA1102911096081MW1001REMMET053LEMD 180730Z 35005KT 310V020 CAVOK 06/01 Q1029 NOSIG;
0086082210999992005031807304+40450-003550FM-15+0582LEMD V0203501N00261999999CY0099001N1+00601+00101999999ADDMA1102911096081MW1001REMMET053LEMD 180730Z 35005KT 310V020 CAVOK 06/01 Q1029 NOSIG;
0086082210999992005031807304+40450-003550FM-15+0582LEMD V0203501N00261999999CY0099001N1+00601+00101999999ADDMA1102911096081MW1001REMMET053LEMD 180730Z 35005KT 310V020 CAVOK 06/01 Q1029 NOSIG;
0086082210999992005031807304+40450-003550FM-15+0582LEMD V0203501N00261999999CY0099001N1+00601+00101999999ADDMA1102911096081MW1001REMMET053LEMD 180730Z 35005KT 310V020 CAVOK 06/01 Q1029 NOSIG;
0086082210999992005031807304+40450-003550FM-15+0582LEMD V0203501N00261999999CY0099001N1+00601+00101999999ADDMA1102911096081MW1001REMMET053LEMD 180730Z 35005KT 310V020 CAVOK 06/01 Q1029 NOSIG;
0086082210999992005031807304+40450-003550FM-15+0582LEMD V0203501N00261999999CY0099001N1+00601+00101999999ADDMA1102911096081MW1001REMMET053LEMD 180730Z 35005KT 310V020 CAVOK 06/01 Q1029 NOSIG;
0086082210999992005031807304+40450-003550FM-15+0582LEMD V0203501N00261999999CY0099001N1+00601+00101999999ADDMA1102911096081MW1001REMMET053LEMD 180730Z 35005KT 310V020 CAVOK 06/01 Q1029 NOSIG;
0086082210999992005031807304+40450-003550FM-15+0582LEMD V0203501N00261999999CY0099001N1+00601+00101999999ADDMA1102911096081MW1001REMMET053LEMD 180730Z 35005KT 310V020 CAVOK 06/01 Q1029 NOSIG;
0086082210999992005031807304+40450-003550FM-15+0582LEMD V0203501N00261999999CY0099001N1+00601+00101999999ADDMA1102911096081MW1001REMMET053LEMD 180730Z 35005KT 310V020 CAVOK 06/01 Q1029 NOSIG;
0086082210999992005031807304+40450-003550FM-15+0582LEMD V0203501N00261999999CY0099001N1+00601+00101999999ADDMA1102911096081MW1001REMMET053LEMD 180730Z 35005KT 310V020 CAVOK 06/01 Q1029 NOSIG;
0086082210999992005031807304+40450-003550FM-15+0582LEMD V0203501N00261999999CY0099001N1+00601+00101999999ADDMA1102911096081MW1001REMMET053LEMD 180730Z 35005KT 310V020 CAVOK 06/01 Q1029 NOSIG;
0086082210999992005031807304+40450-003550FM-15+0582LEMD V0203501N00261999999CY0099001N1+00601+00101999999ADDMA1102911096081MW1001REMMET053LEMD 180730Z 35005KT 310V020 CAVOK 06/01 Q1029 NOSIG;
0086082210999992005031807304+40450-003550FM-15+0582LEMD V0203501N00261999999CY0099001N1+00601+00101999999ADDMA1102911096081MW1001REMMET053LEMD 180730Z 35005KT 310V020 CAVOK 06/01 Q1029 NOSIG;
0086082210999992005031807304+40450-003550FM-15+0582LEMD V0203501N00261999999CY0099001N1+00601+00101999999ADDMA1102911096081MW1001REMMET053LEMD 180730Z 35005KT 310V020 CAVOK 06/01 Q1029 NOSIG;
0086082210999992005031807304+40450-003550FM-15+0582LEMD V0203501N00261999999CY0099001N1+00601+00101999999ADDMA1102911096081MW1001REMMET053LEMD 180730Z 35005KT 310V020 CAVOK 06/01 Q1029 NOSIG;
0086082210999992005031807304+40450-003550FM-15+0582LEMD V0203501N00261999999CY0099001N1+00601+00101999999ADDMA1102911096081MW1001REMMET053LEMD 180730Z 35005KT 310V020 CAVOK 06/01 Q1029 NOSIG;
0086082210999992005031807304+40450-003550FM-15+0582LEMD V0203501N00261999999CY0099001N1+00601+00101999999ADDMA1102911096081MW1001REMMET053LEMD 180730Z 35005KT 310V020 CAVOK 06/01 Q1029 NOSIG;
0086082210999992005031807304+40450-003550FM-15+0582LEMD V0203501N00261999999CY0099001N1+00601+00101999999ADDMA1102911096081MW1001REMMET053LEMD 180730Z 35005KT 310V020 CAVOK 06/01 Q1029 NOSIG;
0086082210999992005031807304+40450-003550FM-15+0582LEMD V0203501N00261999999CY0099001N1+00601+00101999999ADDMA1102911096081MW1001REMMET053LEMD 180730Z 35005KT 310V020 CAVOK 06/01 Q1029 NOSIG;
0086082210999992005031807304+40450-003550FM-15+0582LEMD V0203501N00261999999CY0099001N1+00601+00101999999ADDMA1102911096081MW1001REMMET053LEMD 180730Z 35005KT 310V020 CAVOK 06/01 Q1029 NOSIG;
0086082210999992005031807304+40450-003550FM-15+0582LEMD V0203501N00261999999CY0099001N1+00601+00101999999ADDMA1102911096081MW1001REMMET053LEMD 180730Z 35005KT 310V020 CAVOK 06/01 Q1029 NOSIG;
0086082210999992005031807304+40450-003550FM-15+0582LEMD V0203501N00261999999CY0099001N1+00601+00101999999ADDMA1102911096081MW1001REMMET053LEMD 180730Z 35005KT 310V020 CAVOK 06/01 Q1029 NOSIG;
0086082210999992005031807304+40450-003550FM-15+0582LEMD V0203501N00261999999CY0099001N1+00601+00101999999ADDMA1102911096081MW1001REMMET053LEMD 180730Z 35005KT 310V020 CAVOK 06/01 Q1029 NOSIG;
0086082210999992005031807304+40450-003550FM-15+0582LEMD V0203501N00261999999CY0099001N1+00601+00101999999ADDMA1102911096081MW1001REMMET053LEMD 180730Z 35005KT 310V020 CAVOK 06/01 Q1029 NOSIG;
0086082210999992005031807304+40450-003550FM-15+0582LEMD V0203501N00261999999CY0099001N1+00601+00101999999ADDMA1102911096081MW1001REMMET053LEMD 180730Z 35005KT 310V020 CAVOK 06/01 Q1029 NOSIG;
0086082210999992005031807304+40450-003550FM-15+0582LEMD V0203501N00261999999CY0099001N1+00601+00101999999ADDMA1102911096081MW1001REMMET053LEMD 180730Z 35005KT 310V020 CAVOK 06/01 Q1029 NOSIG;
0086082210999992005031807304+40450-003550FM-15+0582LEMD V0203501N00261999999CY0099001N1+00601+00101999999ADDMA1102911096081MW1001REMMET053LEMD 180730Z 35005KT 310V020 CAVOK 06/01 Q1029 NOSIG;
0086082210999992005031807304+40450-003550FM-15+0582LEMD V0203501N00261999999CY0099001N1+00601+00101999999ADDMA1102911096081MW1001REMMET053LEMD 180730Z 35005KT 310V020 CAVOK 06/01 Q1029 NOSIG;
0086082210999992005031807304+40450-003550FM-15+0582LEMD V0203501N00261999999CY0099001N1+00601+00101999999ADDMA1102911096081MW1001REMMET053LEMD 180730Z 35005KT 310V020 CAVOK 06/01 Q1029 NOSIG;
0086082210999992005031807304+40450-003550FM-15+0582LEMD V0203501N00261999999CY0099001N1+00601+00101999999ADDMA1102911096081MW1001REMMET053LEMD 180730Z 35005KT 310V020 CAVOK 06/01 Q1029 NOSIG;
0086082210999992005031807304+40450-003550FM-15+0582LEMD V0203501N00261999999CY0099001N1+00601+00101999999ADDMA1102911096081MW1001REMMET053LEMD 180730Z 35005KT 310V020 CAVOK 06/01 Q1029 NOSIG;
0086082210999992005031807304+40450-003550FM-15+0582LEMD V0203501N00261999999CY0099001N1+00601+00101999999ADDMA1102911096081MW1001REMMET053LEMD 180730Z 35005KT 310V020 CAVOK 06/01 Q1029 NOSIG;
0086082210999992005031807304+40450-003550FM-15+0582LEMD V0203501N00261999999CY0099001N1+00601+00101999999ADDMA1102911096081MW1001REMMET053LEMD 180730Z 35005KT 310V020 CAVOK 06/01 Q1029 NOSIG;
0086082210999992005031807304+40450-003550FM-15+0582LEMD V0203501N00261999999CY0099001N1+00601+00101999999ADDMA1102911096081MW1001REMMET053LEMD 180730Z 35005KT 310V020 CAVOK 06/01 Q1029 NOSIG;
0086082210999992005031807304+40450-003550FM-15+0582LEMD V0203501N00261999999CY0099001N1+00601+00101999999ADDMA1102911096081MW1001REMMET053LEMD 180730Z 35005KT 310V020 CAVOK 06/01 Q1029 NOSIG;
0086082210999992005031807304+40450-003550FM-15+0582LEMD V0203501N00261999999CY0099001N1+00601+00101999999ADDMA1102911096081MW1001REMMET053LEMD 180730Z 35005KT 310V020 CAVOK 06/01 Q1029 NOSIG;
0086082210999992005031807304+40450-003550FM-15+0582LEMD V0203501N00261999999CY0099001N1+00601+00101999999ADDMA1102911096081MW1001REMMET053LEMD 180730Z 35005KT 310V020 CAVOK 06/01 Q1029 NOSIG;
0086082210999992005031807304+40450-003550FM-15+0582LEMD V0203501N00261999999CY0099001N1+00601+00101999999ADDMA1102911096081MW1001REMMET053LEMD 180730Z 35005KT 310V020 CAVOK 06/01 Q1029 NOSIG;
0086082210999992005031807304+40450-003550FM-15+0582LEMD V0203501N00261999999CY0099001N1+00601+00101999999ADDMA1102911096081MW1001REMMET053LEMD 180730Z 35005KT 310V020 CAVOK 06/01 Q1029 NOSIG;
0086082210999992005031807304+40450-003550FM-15+0582LEMD V0203501N00261999999CY0099001N1+00601+00101999999ADDMA1102911096081MW1001REMMET053LEMD 180730Z 35005KT 310V020 CAVOK 06/01 Q1029 NOSIG;
0086082210999992005031807304+40450-003550FM-15+0582LEMD V0203501N00261999999CY0099001N1+00601+00101999999ADDMA1102911096081MW1001REMMET053LEMD 180730Z 35005KT 310V020 CAVOK 06/01 Q1029 NOSIG;
0086082210999992005031807304+40450-003550FM-15+0582LEMD V0203501N00261999999CY0099001N1+00601+00101999999ADDMA1102911096081MW1001REMMET053LEMD 180730Z 35005KT 310V020 CAVOK 06/01 Q1029 NOSIG;
0086082210999992005031807304+40450-003550FM-15+0582LEMD V0203501N00261999999CY0099001N1+00601+00101999999ADDMA1102911096081MW1001REMMET053LEMD 180730Z 35005KT 310V020 CAVOK 06/01 Q1029 NOSIG;
0086082210999992005031807304+40450-003550FM-15+0582LEMD V0203501N00261999999CY0099001N1+00601+00101999999ADDMA1102911096081MW1001REMMET053LEMD 180730Z 35005KT 310V020 CAVOK 06/01 Q1029 NOSIG;
0086082210999992005031807304+40450-003550FM-15+0582LEMD V0203501N00261999999CY0099001N1+00601+00101999999ADDMA1102911096081MW1001REMMET053LEMD 180730Z 35005KT 310V020 CAVOK 06/01 Q1029 NOSIG;
0086082210999992005031807304+40450-003550FM-15+0582LEMD V0203501N00261999999CY0099001N1+00601+00101999999ADDMA1102911096081MW1001REMMET053LEMD 180730Z 35005KT 310V020 CAVOK 06/01 Q1029 NOSIG;
0086082210999992005031807304+40450-003550FM-15+0582LEMD V0203501N00261999999CY0099001N1+00601+00101999999ADDMA1102911096081MW1001REMMET053LEMD 180730Z 35005KT 310V020 CAVOK 06/01 Q1029 NOSIG;
0086082210999992005031807304+40450-003550FM-15+0582LEMD V0203501N00261999999CY0099001N1+00601+00101999999ADDMA1102911096081MW1001REMMET053LEMD 180730Z 35005KT 310V020 CAVOK 06/01 Q1029 NOSIG;
0086082210999992005031807304+40450-003550FM-15+0582LEMD V0203501N00261999999CY0099001N1+00601+00101999999ADDMA1102911096081MW1001REMMET053LEMD 180730Z 35005KT 310V020 CAVOK 06/01 Q1029 NOSIG;
0086082210999992005031807304+40450-003550FM-15+0582LEMD V0203501N00261999999CY0099001N1+00601+00101999999ADDMA1102911096081MW1001REMMET053LEMD 180730Z 35005KT 310V020 CAVOK 06/01 Q1029 NOSIG;
0086082210999992005031807304+40450-003550FM-15+0582LEMD V0203501N00261999999CY0099001N1+00601+00101999999ADDMA1102911096081MW1001REMMET053LEMD 180730Z 35005KT 310V020 CAVOK 06/01 Q1029 NOSIG;
0086082210999992005031807304+40450-003550FM-15+0582LEMD V0203501N00261999999CY0099001N1+00601+00101999999ADDMA1102911096081MW1001REMMET053LEMD 180730Z 35005KT 310V020 CAVOK 06/01 Q1029 NOSIG;
0086082210999992005031807304+40450-003550FM-15+0582LEMD V0203501N00261999999CY0099001N1+00601+00101999999ADDMA1102911096081MW1001REMMET053LEMD 180730Z 35005KT 310V020 CAVOK 06/01 Q1029 NOSIG;
0086082210999992005031807304+40450-003550FM-15+0582LEMD V0203501N00261999999CY0099001N1+00601+00101999999ADDMA1102911096081MW1001REMMET053LEMD 180730Z 35005KT 310V020 CAVOK 06/01 Q1029 NOSIG;
0086082210999992005031807304+40450-003550FM-15+0582LEMD V0203501N00261999999CY0099001N1+00601+00101999999ADDMA1102911096081MW1001REMMET053LEMD 180730Z 35005KT 310V020 CAVOK 06/01 Q1029 NOSIG;
0086082210999992005031807304+40450-003550FM-15+0582LEMD V0203501N00261999999CY0099001N1+00601+00101999999ADDMA1102911096081MW1001REMMET053LEMD 180730Z 35005KT 310V020 CAVOK 06/01 Q1029 NOSIG;
0086082210999992005031807304+40450-003550FM-15+0582LEMD V0203501N00261999999CY0099001N1+00601+00101999999ADDMA1102911096081MW1001REMMET053LEMD 180730Z 35005KT 310V020 CAVOK 06/01 Q1029 NOSIG;
0086082210999992005031807304+40450-003550FM-15+0582LEMD V0203501N00261999999CY0099001N1+00601+00101999999ADDMA1102911096081MW1001REMMET053LEMD 180730Z 35005KT 310V020 CAVOK 06/01 Q1029 NOSIG;
0086082210999992005031807304+40450-003550FM-15+0582LEMD V0203501N00261999999CY0099001N1+00601+00101999999ADDMA1102911096081MW1001REMMET053LEMD 180730Z 35005KT 310V020 CAVOK 06/01 Q1029 NOSIG;
0086082210999992005031807304+40450-003550FM-15+0582LEMD V0203501N00261999999CY0099001N1+00601+00101999999ADDMA1102911096081MW1001REMMET053LEMD 180730Z 35005KT 310V020 CAVOK 06/01 Q1029 NOSIG;
0086082210999992005031807304+40450-003550FM-15+0582LEMD V0203501N00261999999CY0099001N1+00601+00101999999ADDMA1102911096081MW1001REMMET053LEMD 180730Z 35005KT 310V020 CAVOK 06/01 Q1029 NOSIG;
0086082210999992005031807304+40450-003550FM-15+0582LEMD V0203501N00261999999CY0099001N1+00601+00101999999ADDMA1102911096081MW1001REMMET053LEMD 180730Z 35005KT 310V020 CAVOK 06/01 Q1029 NOSIG;
0086082210999992005031807304+40450-003550FM-15+0582LEMD V0203501N00261999999CY0099001N1+00601+00101999999ADDMA1102911096081MW1001REMMET053LEMD 180730Z 35005KT 310V020 CAVOK 06/01 Q1029 NOSIG;
0086082210999992005031807304+40450-003550FM-15+0582LEMD V0203501N00261999999CY0099001N1+00601+00101999999ADDMA1102911096081MW1001REMMET053LEMD 180730Z 35005KT 310V020 CAVOK 06/01 Q1029 NOSIG;
0086082210999992005031807304+40450-003550FM-15+0582LEMD V0203501N00261999999CY0099001N1+00601+00101999999ADDMA1102911096081MW1001REMMET053LEMD 180730Z 35005KT 310V020 CAVOK 06/01 Q1029 NOSIG;
0086082210999992005031807304+40450-003550FM-15+0582LEMD V0203501N00261999999CY0099001N1+00601+00101999999ADDMA1102911096081MW1001REMMET053LEMD 180730Z 35005KT 310V020 CAVOK 06/01 Q1029 NOSIG;
0086082210999992005031807304+40450-003550FM-15+0582LEMD V0203501N00261999999CY0099001N1+00601+00101999999ADDMA1102911096081MW1001REMMET053LEMD 180730Z 35005KT 310V020 CAVOK 06/01 Q1029 NOSIG;
0086082210999992005031807304+40450-003550FM-15+0582LEMD V0203501N00261999999CY0099001N1+00601+00101999999ADDMA1102911096081MW1001REMMET053LEMD 180730Z 35005KT 310V020 CAVOK 06/01 Q1029 NOSIG;
0086082210999992005031807304+40450-003550FM-15+0582LEMD V0203501N00261999999CY0099001N1+00601+00101999999ADDMA1102911096081MW1001REMMET053LEMD 180730Z 35005KT 310V020 CAVOK 06/01 Q1029 NOSIG;
0086082210999992005031807304+40450-003550FM-15+0582LEMD V0203501N00261999999CY0099001N1+00601+00101999999ADDMA1102911096081MW1001REMMET053LEMD 180730Z 35005KT 310V020 CAVOK 06/01 Q1029 NOSIG;
0086082210999992005031807304+40450-003550FM-15+0582LEMD V0203501N00261999999CY0099001N1+00601+00101999999ADDMA1102911096081MW1001REMMET053LEMD 180730Z 35005KT 310V020 CAVOK 06/01 Q1029 NOSIG;
0086082210999992005031807304+40450-003550FM-15+0582LEMD V0203501N00261999999CY0099001N1+00601+00101999999ADDMA1102911096081MW1001REMMET053LEMD 180730Z 35005KT 310V020 CAVOK 06/01 Q1029 NOSIG;
0086082210999992005031807304+40450-003550FM-15+0582LEMD V0203501N00261999999CY0099001N1+00601+00101999999ADDMA1102911096081MW1001REMMET053LEMD 180730Z 35005KT 310V020 CAVOK 06/01 Q1029 NOSIG;
0086082210999992005031807304+40450-003550FM-15+0582LEMD V0203501N00261999999CY0099001N1+00601+00101999999ADDMA1102911096081MW1001REMMET053LEMD 180730Z 35005KT 310V020 CAVOK 06/01 Q1029 NOSIG;
0086082210999992005031807304+40450-003550FM-15+0582LEMD V0203501N00261999999CY0099001N1+00601+00101999999ADDMA1102911096081MW1001REMMET053LEMD 180730Z 35005KT 310V020 CAVOK 06/01 Q1029 NOSIG;
0086082210999992005031807304+40450-003550FM-15+0582LEMD V0203501N00261999999CY0099001N1+00601+00101999999ADDMA1102911096081MW1001REMMET053LEMD 180730Z 35005KT 310V020 CAVOK 06/01 Q1029 NOSIG;
0086082210999992005031807304+40450-003550FM-15+0582LEMD V0203501N00261999999CY0099001N1+00601+00101999999ADDMA1102911096081MW1001REMMET053LEMD 180730Z 35005KT 310V020 CAVOK 06/01 Q1029 NOSIG;
0086082210999992005031807304+40450-003550FM-15+0582LEMD V0203501N00261999999CY0099001N1+00601+00101999999ADDMA1102911096081MW1001REMMET053LEMD 180730Z 35005KT 310V020 CAVOK 06/01 Q1029 NOSIG;
0086082210999992005031807304+40450-003550FM-15+0582LEMD V0203501N00261999999CY0099001N1+00601+00101999999ADDMA1102911096081MW1001REMMET053LEMD 180730Z 35005KT 310V020 CAVOK 06/01 Q1029 NOSIG;
0086082210999992005031807304+40450-003550FM-15+0582LEMD V0203501N00261999999CY0099001N1+00601+00101999999ADDMA1102911096081MW1001REMMET053LEMD 180730Z 35005KT 310V020 CAVOK 06/01 Q1029 NOSIG;
0086082210999992005031807304+40450-003550FM-15+0582LEMD V0203501N00261999999CY0099001N1+00601+00101999999ADDMA1102911096081MW1001REMMET053LEMD 180730Z 35005KT 310V020 CAVOK 06/01 Q1029 NOSIG;
0086082210999992005031807304+40450-003550FM-15+0582LEMD V0203501N00261999999CY0099001N1+00601+00101999999ADDMA1102911096081MW1001REMMET053LEMD 180730Z 35005KT 310V020 CAVOK 06/01 Q1029 NOSIG;
0086082210999992005031807304+40450-003550FM-15+0582LEMD V0203501N00261999999CY0099001N1+00601+00101999999ADDMA1102911096081MW1001REMMET053LEMD 180730Z 35005KT 310V020 CAVOK 06/01 Q1029 NOSIG;
0086082210999992005031807304+40450-003550FM-15+0582LEMD V0203501N00261999999CY0099001N1+00601+00101999999ADDMA1102911096081MW1001REMMET053LEMD 180730Z 35005KT 310V020 CAVOK 06/01 Q1029 NOSIG;
0086082210999992005031807304+40450-003550FM-15+0582LEMD V0203501N00261999999CY0099001N1+00601+00101999999ADDMA1102911096081MW1001REMMET053LEMD 180730Z 35005KT 310V020 CAVOK 06/01 Q1029 NOSIG;
0086082210999992005031807304+40450-003550FM-15+0582LEMD V0203501N00261999999CY0099001N1+00601+00101999999ADDMA1102911096081MW1001REMMET053LEMD 180730Z 35005KT 310V020 CAVOK 06/01 Q1029 NOSIG;
0086082210999992005031807304+40450-003550FM-15+0582LEMD V0203501N00261999999CY0099001N1+00601+00101999999ADDMA1102911096081MW1001REMMET053LEMD 180730Z 35005KT 310V020 CAVOK 06/01 Q1029 NOSIG;
0086082210999992005031807304+40450-003550FM-15+0582LEMD V0203501N00261999999CY0099001N1+00601+00101999999ADDMA1102911096081MW1001REMMET053LEMD 180730Z 35005KT 310V020 CAVOK 06/01 Q1029 NOSIG;
0086082210999992005031807304+40450-003550FM-15+0582LEMD V0203501N00261999999CY0099001N1+00601+00101999999ADDMA1102911096081MW1001REMMET053LEMD 180730Z 35005KT 310V020 CAVOK 06/01 Q1029 NOSIG;
0086082210999992005031807304+40450-003550FM-15+0582LEMD V0203501N00261999999CY0099001N1+00601+00101999999ADDMA1102911096081MW1001REMMET053LEMD 180730Z 35005KT 310V020 CAVOK 06/01 Q1029 NOSIG;
0086082210999992005031807304+40450-003550FM-15+0582LEMD V0203501N00261999999CY0099001N1+00601+00101999999ADDMA1102911096081MW1001REMMET053LEMD 180730Z 35005KT 310V020 CAVOK 06/01 Q1029 NOSIG;
0086082210999992005031807304+40450-003550FM-15+0582LEMD V0203501N00261999999CY0099001N1+00601+00101999999ADDMA1102911096081MW1001REMMET053LEMD 180730Z 35005KT 310V020 CAVOK 06/01 Q1029 NOSIG;
0086082210999992005031807304+40450-003550FM-15+0582LEMD V0203501N00261999999CY0099001N1+00601+00101999999ADDMA1102911096081MW1001REMMET053LEMD 180730Z 35005KT 310V020 CAVOK 06/01 Q1029 NOSIG;
0086082210999992005031807304+40450-003550FM-15+0582LEMD V0203501N00261999999CY0099001N1+00601+00101999999ADDMA1102911096081MW1001REMMET053LEMD 180730Z 35005KT 310V020 CAVOK 06/01 Q1029 NOSIG;
0086082210999992005031807304+40450-003550FM-15+0582LEMD V0203501N00261999999CY0099001N1+00601+00101999999ADDMA1102911096081MW1001REMMET053LEMD 180730Z 35005KT 310V020 CAVOK 06/01 Q1029 NOSIG;
0086082210999992005031807304+40450-003550FM-15+0582LEMD V0203501N00261999999CY0099001N1+00601+00101999999ADDMA1102911096081MW1001REMMET053LEMD 180730Z 35005KT 310V020 CAVOK 06/01 Q1029 NOSIG;
0086082210999992005031807304+40450-003550FM-15+0582LEMD V0203501N00261999999CY0099001N1+00601+00101999999ADDMA1102911096081MW1001REMMET053LEMD 180730Z 35005KT 310V020 CAVOK 06/01 Q1029 NOSIG;
0086082210999992005031807304+40450-003550FM-15+0582LEMD V0203501N00261999999CY0099001N1+00601+00101999999ADDMA1102911096081MW1001REMMET053LEMD 180730Z 35005KT 310V020 CAVOK 06/01 Q1029 NOSIG;
0086082210999992005031807304+40450-003550FM-15+0582LEMD V0203501N00261999999CY0099001N1+00601+00101999999ADDMA1102911096081MW1001REMMET053LEMD 180730Z 35005KT 310V020 CAVOK 06/01 Q1029 NOSIG;
0086082210999992005031807304+40450-003550FM-15+0582LEMD V0203501N00261999999CY0099001N1+00601+00101999999ADDMA1102911096081MW1001REMMET053LEMD 180730Z 35005KT 310V020 CAVOK 06/01 Q1029 NOSIG;
0086082210999992005031807304+40450-003550FM-15+0582LEMD V0203501N00261999999CY0099001N1+00601+00101999999ADDMA1102911096081MW1001REMMET053LEMD 180730Z 35005KT 310V020 CAVOK 06/01 Q1029 NOSIG;
0086082210999992005031807304+40450-003550FM-15+0582LEMD V0203501N00261999999CY0099001N1+00601+00101999999ADDMA1102911096081MW1001REMMET053LEMD 180730Z 35005KT 310V020 CAVOK 06/01 Q1029 NOSIG;
0086082210999992005031807304+40450-003550FM-15+0582LEMD V0203501N00261999999CY0099001N1+00601+00101999999ADDMA1102911096081MW1001REMMET053LEMD 180730Z 35005KT 310V020 CAVOK 06/01 Q1029 NOSIG;
0086082210999992005031807304+40450-003550FM-15+0582LEMD V0203501N00261999999CY0099001N1+00601+00101999999ADDMA1102911096081MW1001REMMET053LEMD 180730Z 35005KT 310V020 CAVOK 06/01 Q1029 NOSIG;
0086082210999992005031807304+40450-003550FM-15+0582LEMD V0203501N00261999999CY0099001N1+00601+00101999999ADDMA1102911096081MW1001REMMET053LEMD 180730Z 35005KT 310V020 CAVOK 06/01 Q1029 NOSIG;
0086082210999992005031807304+40450-003550FM-15+0582LEMD V0203501N00261999999CY0099001N1+00601+00101999999ADDMA1102911096081MW1001REMMET053LEMD 180730Z 35005KT 310V020 CAVOK 06/01 Q1029 NOSIG;
0086082210999992005031807304+40450-003550FM-15+0582LEMD V0203501N00261999999CY0099001N1+00601+00101999999ADDMA1102911096081MW1001REMMET053LEMD 180730Z 35005KT 310V020 CAVOK 06/01 Q1029 NOSIG;
0086082210999992005031807304+40450-003550FM-15+0582LEMD V0203501N00261999999CY0099001N1+00601+00101999999ADDMA1102911096081MW1001REMMET053LEMD 180730Z 35005KT 310V020 CAVOK 06/01 Q1029 NOSIG;
0086082210999992005031807304+40450-003550FM-15+0582LEMD V0203501N00261999999CY0099001N1+00601+00101999999ADDMA1102911096081MW1001REMMET053LEMD 180730Z 35005KT 310V020 CAVOK 06/01 Q1029 NOSIG;
0086082210999992005031807304+40450-003550FM-15+0582LEMD V0203501N00261999999CY0099001N1+00601+00101999999ADDMA1102911096081MW1001REMMET053LEMD 180730Z 35005KT 310V020 CAVOK 06/01 Q1029 NOSIG;
0086082210999992005031807304+40450-003550FM-15+0582LEMD V0203501N00261999999CY0099001N1+00601+00101999999ADDMA1102911096081MW1001REMMET053LEMD 180730Z 35005KT 310V020 CAVOK 06/01 Q1029 NOSIG;
0086082210999992005031807304+40450-003550FM-15+0582LEMD V0203501N00261999999CY0099001N1+00601+00101999999ADDMA1102911096081MW1001REMMET053LEMD 180730Z 35005KT 310V020 CAVOK 06/01 Q1029 NOSIG;
0086082210999992005031807304+40450-003550FM-15+0582LEMD V0203501N00261999999CY0099001N1+00601+00101999999ADDMA1102911096081MW1001REMMET053LEMD 180730Z 35005KT 310V020 CAVOK 06/01 Q1029 NOSIG;
0086082210999992005031807304+40450-003550FM-15+0582LEMD V0203501N00261999999CY0099001N1+00601+00101999999ADDMA1102911096081MW1001REMMET053LEMD 180730Z 35005KT 310V020 CAVOK 06/01 Q1029 NOSIG;
0086082210999992005031807304+40450-003550FM-15+0582LEMD V0203501N00261999999CY0099001N1+00601+00101999999ADDMA1102911096081MW1001REMMET053LEMD 180730Z 35005KT 310V020 CAVOK 06/01 Q1029 NOSIG;
0086082210999992005031807304+40450-003550FM-15+0582LEMD V0203501N00261999999CY0099001N1+00601+00101999999ADDMA1102911096081MW1001REMMET053LEMD 180730Z 35005KT 310V020 CAVOK 06/01 Q1029 NOSIG;
0086082210999992005031807304+40450-003550FM-15+0582LEMD V0203501N00261999999CY0099001N1+00601+00101999999ADDMA1102911096081MW1001REMMET053LEMD 180730Z 35005KT 310V020 CAVOK 06/01 Q1029 NOSIG;
0086082210999992005031807304+40450-003550FM-15+0582LEMD V0203501N00261999999CY0099001N1+00601+00101999999ADDMA1102911096081MW1001REMMET053LEMD 180730Z 35005KT 310V020 CAVOK 06/01 Q1029 NOSIG;
0086082210999992005031807304+40450-003550FM-15+0582LEMD V0203501N00261999999CY0099001N1+00601+00101999999ADDMA1102911096081MW1001REMMET053LEMD 180730Z 35005KT 310V020 CAVOK 06/01 Q1029 NOSIG;
0086082210999992005031807304+40450-003550FM-15+0582LEMD V0203501N00261999999CY0099001N1+00601+00101999999ADDMA1102911096081MW1001REMMET053LEMD 180730Z 35005KT 310V020 CAVOK 06/01 Q1029 NOSIG;
0086082210999992005031807304+40450-003550FM-15+0582LEMD V0203501N00261999999CY0099001N1+00601+00101999999ADDMA1102911096081MW1001REMMET053LEMD 180730Z 35005KT 310V020 CAVOK 06/01 Q1029 NOSIG;
0086082210999992005031807304+40450-003550FM-15+0582LEMD V0203501N00261999999CY0099001N1+00601+00101999999ADDMA1102911096081MW1001REMMET053LEMD 180730Z 35005KT 310V020 CAVOK 06/01 Q1029 NOSIG;
0086082210999992005031807304+40450-003550FM-15+0582LEMD V0203501N00261999999CY0099001N1+00601+00101999999ADDMA1102911096081MW1001REMMET053LEMD 180730Z 35005KT 310V020 CAVOK 06/01 Q1029 NOSIG;
0086082210999992005031807304+40450-003550FM-15+0582LEMD V0203501N00261999999CY0099001N1+00601+00101999999ADDMA1102911096081MW1001REMMET053LEMD 180730Z 35005KT 310V020 CAVOK 06/01 Q1029 NOSIG;
0086082210999992005031807304+40450-003550FM-15+0582LEMD V0203501N00261999999CY0099001N1+00601+00101999999ADDMA1102911096081MW1001REMMET053LEMD 180730Z 35005KT 310V020 CAVOK 06/01 Q1029 NOSIG;
0086082210999992005031807304+40450-003550FM-15+0582LEMD V0203501N00261999999CY0099001N1+00601+00101999999ADDMA1102911096081MW1001REMMET053LEMD 180730Z 35005KT 310V020 CAVOK 06/01 Q1029 NOSIG;
0086082210999992005031807304+40450-003550FM-15+0582LEMD V0203501N00261999999CY0099001N1+00601+00101999999ADDMA1102911096081MW1001REMMET053LEMD 180730Z 35005KT 310V020 CAVOK 06/01 Q1029 NOSIG;
0086082210999992005031807304+40450-003550FM-15+0582LEMD V0203501N00261999999CY0099001N1+00601+00101999999ADDMA1102911096081MW1001REMMET053LEMD 180730Z 35005KT 310V020 CAVOK 06/01 Q1029 NOSIG;
0086082210999992005031807304+40450-003550FM-15+0582LEMD V0203501N00261999999CY0099001N1+00601+00101999999ADDMA1102911096081MW1001REMMET053LEMD 180730Z 35005KT 310V020 CAVOK 06/01 Q1029 NOSIG;
0086082210999992005031807304+40450-003550FM-15+0582LEMD V0203501N00261999999CY0099001N1+00601+00101999999ADDMA1102911096081MW1001REMMET053LEMD 180730Z 35005KT 310V020 CAVOK 06/01 Q1029 NOSIG;
0086082210999992005031807304+40450-003550FM-15+0582LEMD V0203501N00261999999CY0099001N1+00601+00101999999ADDMA1102911096081MW1001REMMET053LEMD 180730Z 35005KT 310V020 CAVOK 06/01 Q1029 NOSIG;
0086082210999992005031807304+40450-003550FM-15+0582LEMD V0203501N00261999999CY0099001N1+00601+00101999999ADDMA1102911096081MW1001REMMET053LEMD 180730Z 35005KT 310V020 CAVOK 06/01 Q1029 NOSIG;
0086082210999992005031807304+40450-003550FM-15+0582LEMD V0203501N00261999999CY0099001N1+00601+00101999999ADDMA1102911096081MW1001REMMET053LEMD 180730Z 35005KT 310V020 CAVOK 06/01 Q1029 NOSIG;
0086082210999992005031807304+40450-003550FM-15+0582LEMD V0203501N00261999999CY0099001N1+00601+00101999999ADDMA1102911096081MW1001REMMET053LEMD 180730Z 35005KT 310V020 CAVOK 06/01 Q1029 NOSIG;
0086082210999992005031807304+40450-003550FM-15+0582LEMD V0203501N00261999999CY0099001N1+00601+00101999999ADDMA1102911096081MW1001REMMET053LEMD 180730Z 35005KT 310V020 CAVOK 06/01 Q1029 NOSIG;
0086082210999992005031807304+40450-003550FM-15+0582LEMD V0203501N00261999999CY0099001N1+00601+00101999999ADDMA1102911096081MW1001REMMET053LEMD 180730Z 35005KT 310V020 CAVOK 06/01 Q1029 NOSIG;
0086082210999992005031807304+40450-003550FM-15+0582LEMD V0203501N00261999999CY0099001N1+00601+00101999999ADDMA1102911096081MW1001REMMET053LEMD 180730Z 35005KT 310V020 CAVOK 06/01 Q1029 NOSIG;
0086082210999992005031807304+40450-003550FM-15+0582LEMD V0203501N00261999999CY0099001N1+00601+00101999999ADDMA1102911096081MW1001REMMET053LEMD 180730Z 35005KT 310V020 CAVOK 06/01 Q1029 NOSIG;
0086082210999992005031807304+40450-003550FM-15+0582LEMD V0203501N00261999999CY0099001N1+00601+00101999999ADDMA1102911096081MW1001REMMET053LEMD 180730Z 35005KT 310V020 CAVOK 06/01 Q1029 NOSIG;
0086082210999992005031807304+40450-003550FM-15+0582LEMD V0203501N00261999999CY0099001N1+00601+00101999999ADDMA1102911096081MW1001REMMET053LEMD 180730Z 35005KT 310V020 CAVOK 06/01 Q1029 NOSIG;
0086082210999992005031807304+40450-003550FM-15+0582LEMD V0203501N00261999999CY0099001N1+00601+00101999999ADDMA1102911096081MW1001REMMET053LEMD 180730Z 35005KT 310V020 CAVOK 06/01 Q1029 NOSIG;
0086082210999992005031807304+40450-003550FM-15+0582LEMD V0203501N00261999999CY0099001N1+00601+00101999999ADDMA1102911096081MW1001REMMET053LEMD 180730Z 35005KT 310V020 CAVOK 06/01 Q1029 NOSIG;
0086082210999992005031807304+40450-003550FM-15+0582LEMD V0203501N00261999999CY0099001N1+00601+00101999999ADDMA1102911096081MW1001REMMET053LEMD 180730Z 35005KT 310V020 CAVOK 06/01 Q1029 NOSIG;
0086082210999992005031807304+40450-003550FM-15+0582LEMD V0203501N00261999999CY0099001N1+00601+00101999999ADDMA1102911096081MW1001REMMET053LEMD 180730Z 35005KT 310V020 CAVOK 06/01 Q1029 NOSIG;
0086082210999992005031807304+40450-003550FM-15+0582LEMD V0203501N00261999999CY0099001N1+00601+00101999999ADDMA1102911096081MW1001REMMET053LEMD 180730Z 35005KT 310V020 CAVOK 06/01 Q1029 NOSIG;
0086082210999992005031807304+40450-003550FM-15+0582LEMD V0203501N00261999999CY0099001N1+00601+00101999999ADDMA1102911096081MW1001REMMET053LEMD 180730Z 35005KT 310V020 CAVOK 06/01 Q1029 NOSIG;
0086082210999992005031807304+40450-003550FM-15+0582LEMD V0203501N00261999999CY0099001N1+00601+00101999999ADDMA1102911096081MW1001REMMET053LEMD 180730Z 35005KT 310V020 CAVOK 06/01 Q1029 NOSIG;
0086082210999992005031807304+40450-003550FM-15+0582LEMD V0203501N00261999999CY0099001N1+00601+00101999999ADDMA1102911096081MW1001REMMET053LEMD 180730Z 35005KT 310V020 CAVOK 06/01 Q1029 NOSIG;
0086082210999992005031807304+40450-003550FM-15+0582LEMD V0203501N00261999999CY0099001N1+00601+00101999999ADDMA1102911096081MW1001REMMET053LEMD 180730Z 35005KT 310V020 CAVOK 06/01 Q1029 NOSIG;
0086082210999992005031807304+40450-003550FM-15+0582LEMD V0203501N00261999999CY0099001N1+00601+00101999999ADDMA1102911096081MW1001REMMET053LEMD 180730Z 35005KT 310V020 CAVOK 06/01 Q1029 NOSIG;
0086082210999992005031807304+40450-003550FM-15+0582LEMD V0203501N00261999999CY0099001N1+00601+00101999999ADDMA1102911096081MW1001REMMET053LEMD 180730Z 35005KT 310V020 CAVOK 06/01 Q1029 NOSIG;
0086082210999992005031807304+40450-003550FM-15+0582LEMD V0203501N00261999999CY0099001N1+00601+00101999999ADDMA1102911096081MW1001REMMET053LEMD 180730Z 35005KT 310V020 CAVOK 06/01 Q1029 NOSIG;
0086082210999992005031807304+40450-003550FM-15+0582LEMD V0203501N00261999999CY0099001N1+00601+00101999999ADDMA1102911096081MW1001REMMET053LEMD 180730Z 35005KT 310V020 CAVOK 06/01 Q1029 NOSIG;
0086082210999992005031807304+40450-003550FM-15+0582LEMD V0203501N00261999999CY0099001N1+00601+00101999999ADDMA1102911096081MW1001REMMET053LEMD 180730Z 35005KT 310V020 CAVOK 06/01 Q1029 NOSIG;
0086082210999992005031807304+40450-003550FM-15+0582LEMD V0203501N00261999999CY0099001N1+00601+00101999999ADDMA1102911096081MW1001REMMET053LEMD 180730Z 35005KT 310V020 CAVOK 06/01 Q1029 NOSIG;
0086082210999992005031807304+40450-003550FM-15+0582LEMD V0203501N00261999999CY0099001N1+00601+00101999999ADDMA1102911096081MW1001REMMET053LEMD 180730Z 35005KT 310V020 CAVOK 06/01 Q1029 NOSIG;
0086082210999992005031807304+40450-003550FM-15+0582LEMD V0203501N00261999999CY0099001N1+00601+00101999999ADDMA1102911096081MW1001REMMET053LEMD 180730Z 35005KT 310V020 CAVOK 06/01 Q1029 NOSIG;
0086082210999992005031807304+40450-003550FM-15+0582LEMD V0203501N00261999999CY0099001N1+00601+00101999999ADDMA1102911096081MW1001REMMET053LEMD 180730Z 35005KT 310V020 CAVOK 06/01 Q1029 NOSIG;
0086082210999992005031807304+40450-003550FM-15+0582LEMD V0203501N00261999999CY0099001N1+00601+00101999999ADDMA1102911096081MW1001REMMET053LEMD 180730Z 35005KT 310V020 CAVOK 06/01 Q1029 NOSIG;
0086082210999992005031807304+40450-003550FM-15+0582LEMD V0203501N00261999999CY0099001N1+00601+00101999999ADDMA1102911096081MW1001REMMET053LEMD 180730Z 35005KT 310V020 CAVOK 06/01 Q1029 NOSIG;
0086082210999992005031807304+40450-003550FM-15+0582LEMD V0203501N00261999999CY0099001N1+00601+00101999999ADDMA1102911096081MW1001REMMET053LEMD 180730Z 35005KT 310V020 CAVOK 06/01 Q1029 NOSIG;
0086082210999992005031807304+40450-003550FM-15+0582LEMD V0203501N00261999999CY0099001N1+00601+00101999999ADDMA1102911096081MW1001REMMET053LEMD 180730Z 35005KT 310V020 CAVOK 06/01 Q1029 NOSIG;
0086082210999992005031807304+40450-003550FM-15+0582LEMD V0203501N00261999999CY0099001N1+00601+00101999999ADDMA1102911096081MW1001REMMET053LEMD 180730Z 35005KT 310V020 CAVOK 06/01 Q1029 NOSIG;
0086082210999992005031807304+40450-003550FM-15+0582LEMD V0203501N00261999999CY0099001N1+00601+00101999999ADDMA1102911096081MW1001REMMET053LEMD 180730Z 35005KT 310V020 CAVOK 06/01 Q1029 NOSIG;
0086082210999992005031807304+40450-003550FM-15+0582LEMD V0203501N00261999999CY0099001N1+00601+00101999999ADDMA1102911096081MW1001REMMET053LEMD 180730Z 35005KT 310V020 CAVOK 06/01 Q1029 NOSIG;
0086082210999992005031807304+40450-003550FM-15+0582LEMD V0203501N00261999999CY0099001N1+00601+00101999999ADDMA1102911096081MW1001REMMET053LEMD 180730Z 35005KT 310V020 CAVOK 06/01 Q1029 NOSIG;
0086082210999992005031807304+40450-003550FM-15+0582LEMD V0203501N00261999999CY0099001N1+00601+00101999999ADDMA1102911096081MW1001REMMET053LEMD 180730Z 35005KT 310V020 CAVOK 06/01 Q1029 NOSIG;
0086082210999992005031807304+40450-003550FM-15+0582LEMD V0203501N00261999999CY0099001N1+00601+00101999999ADDMA1102911096081MW1001REMMET053LEMD 180730Z 35005KT 310V020 CAVOK 06/01 Q1029 NOSIG;
0086082210999992005031807304+40450-003550FM-15+0582LEMD V0203501N00261999999CY0099001N1+00601+00101999999ADDMA1102911096081MW1001REMMET053LEMD 180730Z 35005KT 310V020 CAVOK 06/01 Q1029 NOSIG;
0086082210999992005031807304+40450-003550FM-15+0582LEMD V0203501N00261999999CY0099001N1+00601+00101999999ADDMA1102911096081MW1001REMMET053LEMD 180730Z 35005KT 310V020 CAVOK 06/01 Q1029 NOSIG;
0086082210999992005031807304+40450-003550FM-15+0582LEMD V0203501N00261999999CY0099001N1+00601+00101999999ADDMA1102911096081MW1001REMMET053LEMD 180730Z 35005KT 310V020 CAVOK 06/01 Q1029 NOSIG;
0086082210999992005031807304+40450-003550FM-15+0582LEMD V0203501N00261999999CY0099001N1+00601+00101999999ADDMA1102911096081MW1001REMMET053LEMD 180730Z 35005KT 310V020 CAVOK 06/01 Q1029 NOSIG;
0086082210999992005031807304+40450-003550FM-15+0582LEMD V0203501N00261999999CY0099001N1+00601+00101999999ADDMA1102911096081MW1001REMMET053LEMD 180730Z 35005KT 310V020 CAVOK 06/01 Q1029 NOSIG;
0086082210999992005031807304+40450-003550FM-15+0582LEMD V0203501N00261999999CY0099001N1+00601+00101999999ADDMA1102911096081MW1001REMMET053LEMD 180730Z 35005KT 310V020 CAVOK 06/01 Q1029 NOSIG;
0086082210999992005031807304+40450-003550FM-15+0582LEMD V0203501N00261999999CY0099001N1+00601+00101999999ADDMA1102911096081MW1001REMMET053LEMD 180730Z 35005KT 310V020 CAVOK 06/01 Q1029 NOSIG;
0086082210999992005031807304+40450-003550FM-15+0582LEMD V0203501N00261999999CY0099001N1+00601+00101999999ADDMA1102911096081MW1001REMMET053LEMD 180730Z 35005KT 310V020 CAVOK 06/01 Q1029 NOSIG;
0086082210999992005031807304+40450-003550FM-15+0582LEMD V0203501N00261999999CY0099001N1+00601+00101999999ADDMA1102911096081MW1001REMMET053LEMD 180730Z 35005KT 310V020 CAVOK 06/01 Q1029 NOSIG;
0086082210999992005031807304+40450-003550FM-15+0582LEMD V0203501N00261999999CY0099001N1+00601+00101999999ADDMA1102911096081MW1001REMMET053LEMD 180730Z 35005KT 310V020 CAVOK 06/01 Q1029 NOSIG;
0086082210999992005031807304+40450-003550FM-15+0582LEMD V0203501N00261999999CY0099001N1+00601+00101999999ADDMA1102911096081MW1001REMMET053LEMD 180730Z 35005KT 310V020 CAVOK 06/01 Q1029 NOSIG;
0086082210999992005031807304+40450-003550FM-15+0582LEMD V0203501N00261999999CY0099001N1+00601+00101999999ADDMA1102911096081MW1001REMMET053LEMD 180730Z 35005KT 310V020 CAVOK 06/01 Q1029 NOSIG;
0086082210999992005031807304+40450-003550FM-15+0582LEMD V0203501N00261999999CY0099001N1+00601+00101999999ADDMA1102911096081MW1001REMMET053LEMD 180730Z 35005KT 310V020 CAVOK 06/01 Q1029 NOSIG;
0086082210999992005031807304+40450-003550FM-15+0582LEMD V0203501N00261999999CY0099001N1+00601+00101999999ADDMA1102911096081MW1001REMMET053LEMD 180730Z 35005KT 310V020 CAVOK 06/01 Q1029 NOSIG;
0086082210999992005031807304+40450-003550FM-15+0582LEMD V0203501N00261999999CY0099001N1+00601+00101999999ADDMA1102911096081MW1001REMMET053LEMD 180730Z 35005KT 310V020 CAVOK 06/01 Q1029 NOSIG;
0086082210999992005031807304+40450-003550FM-15+0582LEMD V0203501N00261999999CY0099001N1+00601+00101999999ADDMA1102911096081MW1001REMMET053LEMD 180730Z 35005KT 310V020 CAVOK 06/01 Q1029 NOSIG;
0086082210999992005031807304+40450-003550FM-15+0582LEMD V0203501N00261999999CY0099001N1+00601+00101999999ADDMA1102911096081MW1001REMMET053LEMD 180730Z 35005KT 310V020 CAVOK 06/01 Q1029 NOSIG;
0086082210999992005031807304+40450-003550FM-15+0582LEMD V0203501N00261999999CY0099001N1+00601+00101999999ADDMA1102911096081MW1001REMMET053LEMD 180730Z 35005KT 310V020 CAVOK 06/01 Q1029 NOSIG;
0086082210999992005031807304+40450-003550FM-15+0582LEMD V0203501N00261999999CY0099001N1+00601+00101999999ADDMA1102911096081MW1001REMMET053LEMD 180730Z 35005KT 310V020 CAVOK 06/01 Q1029 NOSIG;
0086082210999992005031807304+40450-003550FM-15+0582LEMD V0203501N00261999999CY0099001N1+00601+00101999999ADDMA1102911096081MW1001REMMET053LEMD 180730Z 35005KT 310V020 CAVOK 06/01 Q1029 NOSIG;
0086082210999992005031807304+40450-003550FM-15+0582LEMD V0203501N00261999999CY0099001N1+00601+00101999999ADDMA1102911096081MW1001REMMET053LEMD 180730Z 35005KT 310V020 CAVOK 06/01 Q1029 NOSIG;
0086082210999992005031807304+40450-003550FM-15+0582LEMD V0203501N00261999999CY0099001N1+00601+00101999999ADDMA1102911096081MW1001REMMET053LEMD 180730Z 35005KT 310V020 CAVOK 06/01 Q1029 NOSIG;
0086082210999992005031807304+40450-003550FM-15+0582LEMD V0203501N00261999999CY0099001N1+00601+00101999999ADDMA1102911096081MW1001REMMET053LEMD 180730Z 35005KT 310V020 CAVOK 06/01 Q1029 NOSIG;
0086082210999992005031807304+40450-003550FM-15+0582LEMD V0203501N00261999999CY0099001N1+00601+00101999999ADDMA1102911096081MW1001REMMET053LEMD 180730Z 35005KT 310V020 CAVOK 06/01 Q1029 NOSIG;
0086082210999992005031807304+40450-003550FM-15+0582LEMD V0203501N00261999999CY0099001N1+00601+00101999999ADDMA1102911096081MW1001REMMET053LEMD 180730Z 35005KT 310V020 CAVOK 06/01 Q1029 NOSIG;
0086082210999992005031807304+40450-003550FM-15+0582LEMD V0203501N00261999999CY0099001N1+00601+00101999999ADDMA1102911096081MW1001REMMET053LEMD 180730Z 35005KT 310V020 CAVOK 06/01 Q1029 NOSIG;
0086082210999992005031807304+40450-003550FM-15+0582LEMD V0203501N00261999999CY0099001N1+00601+00101999999ADDMA1102911096081MW1001REMMET053LEMD 180730Z 35005KT 310V020 CAVOK 06/01 Q1029 NOSIG;
0086082210999992005031807304+40450-003550FM-15+0582LEMD V0203501N00261999999CY0099001N1+00601+00101999999ADDMA1102911096081MW1001REMMET053LEMD 180730Z 35005KT 310V020 CAVOK 06/01 Q1029 NOSIG;
0086082210999992005031807304+40450-003550FM-15+0582LEMD V0203501N00261999999CY0099001N1+00601+00101999999ADDMA1102911096081MW1001REMMET053LEMD 180730Z 35005KT 310V020 CAVOK 06/01 Q1029 NOSIG;
0086082210999992005031807304+40450-003550FM-15+0582LEMD V0203501N00261999999CY0099001N1+00601+00101999999ADDMA1102911096081MW1001REMMET053LEMD 180730Z 35005KT 310V020 CAVOK 06/01 Q1029 NOSIG;
0086082210999992005031807304+40450-003550FM-15+0582LEMD V0203501N00261999999CY0099001N1+00601+00101999999ADDMA1102911096081MW1001REMMET053LEMD 180730Z 35005KT 310V020 CAVOK 06/01 Q1029 NOSIG;
0086082210999992005031807304+40450-003550FM-15+0582LEMD V0203501N00261999999CY0099001N1+00601+00101999999ADDMA1102911096081MW1001REMMET053LEMD 180730Z 35005KT 310V020 CAVOK 06/01 Q1029 NOSIG;
0086082210999992005031807304+40450-003550FM-15+0582LEMD V0203501N00261999999CY0099001N1+00601+00101999999ADDMA1102911096081MW1001REMMET053LEMD 180730Z 35005KT 310V020 CAVOK 06/01 Q1029 NOSIG;
0086082210999992005031807304+40450-003550FM-15+0582LEMD V0203501N00261999999CY0099001N1+00601+00101999999ADDMA1102911096081MW1001REMMET053LEMD 180730Z 35005KT 310V020 CAVOK 06/01 Q1029 NOSIG;
0086082210999992005031807304+40450-003550FM-15+0582LEMD V0203501N00261999999CY0099001N1+00601+00101999999ADDMA1102911096081MW1001REMMET053LEMD 180730Z 35005KT 310V020 CAVOK 06/01 Q1029 NOSIG;
0086082210999992005031807304+40450-003550FM-15+0582LEMD V0203501N00261999999CY0099001N1+00601+00101999999ADDMA1102911096081MW1001REMMET053LEMD 180730Z 35005KT 310V020 CAVOK 06/01 Q1029 NOSIG;
0086082210999992005031807304+40450-003550FM-15+0582LEMD V0203501N00261999999CY0099001N1+00601+00101999999ADDMA1102911096081MW1001REMMET053LEMD 180730Z 35005KT 310V020 CAVOK 06/01 Q1029 NOSIG;
0086082210999992005031807304+40450-003550FM-15+0582LEMD V0203501N00261999999CY0099001N1+00601+00101999999ADDMA1102911096081MW1001REMMET053LEMD 180730Z 35005KT 310V020 CAVOK 06/01 Q1029 NOSIG;
0086082210999992005031807304+40450-003550FM-15+0582LEMD V0203501N00261999999CY0099001N1+00601+00101999999ADDMA1102911096081MW1001REMMET053LEMD 180730Z 35005KT 310V020 CAVOK 06/01 Q1029 NOSIG;
0086082210999992005031807304+40450-003550FM-15+0582LEMD V0203501N00261999999CY0099001N1+00601+00101999999ADDMA1102911096081MW1001REMMET053LEMD 180730Z 35005KT 310V020 CAVOK 06/01 Q1029 NOSIG;
0086082210999992005031807304+40450-003550FM-15+0582LEMD V0203501N00261999999CY0099001N1+00601+00101999999ADDMA1102911096081MW1001REMMET053LEMD 180730Z 35005KT 310V020 CAVOK 06/01 Q1029 NOSIG;
0086082210999992005031807304+40450-003550FM-15+0582LEMD V0203501N00261999999CY0099001N1+00601+00101999999ADDMA1102911096081MW1001REMMET053LEMD 180730Z 35005KT 310V020 CAVOK 06/01 Q1029 NOSIG;
0086082210999992005031807304+40450-003550FM-15+0582LEMD V0203501N00261999999CY0099001N1+00601+00101999999ADDMA1102911096081MW1001REMMET053LEMD 180730Z 35005KT 310V020 CAVOK 06/01 Q1029 NOSIG;
0086082210999992005031807304+40450-003550FM-15+0582LEMD V0203501N00261999999CY0099001N1+00601+00101999999ADDMA1102911096081MW1001REMMET053LEMD 180730Z 35005KT 310V020 CAVOK 06/01 Q1029 NOSIG;
0086082210999992005031807304+40450-003550FM-15+0582LEMD V0203501N00261999999CY0099001N1+00601+00101999999ADDMA1102911096081MW1001REMMET053LEMD 180730Z 35005KT 310V020 CAVOK 06/01 Q1029 NOSIG;
0086082210999992005031807304+40450-003550FM-15+0582LEMD V0203501N00261999999CY0099001N1+00601+00101999999ADDMA1102911096081MW1001REMMET053LEMD 180730Z 35005KT 310V020 CAVOK 06/01 Q1029 NOSIG;
0086082210999992005031807304+40450-003550FM-15+0582LEMD V0203501N00261999999CY0099001N1+00601+00101999999ADDMA1102911096081MW1001REMMET053LEMD 180730Z 35005KT 310V020 CAVOK 06/01 Q1029 NOSIG;
0086082210999992005031807304+40450-003550FM-15+0582LEMD V0203501N00261999999CY0099001N1+00601+00101999999ADDMA1102911096081MW1001REMMET053LEMD 180730Z 35005KT 310V020 CAVOK 06/01 Q1029 NOSIG;
0086082210999992005031807304+40450-003550FM-15+0582LEMD V0203501N00261999999CY0099001N1+00601+00101999999ADDMA1102911096081MW1001REMMET053LEMD 180730Z 35005KT 310V020 CAVOK 06/01 Q1029 NOSIG;
0086082210999992005031807304+40450-003550FM-15+0582LEMD V0203501N00261999999CY0099001N1+00601+00101999999ADDMA1102911096081MW1001REMMET053LEMD 180730Z 35005KT 310V020 CAVOK 06/01 Q1029 NOSIG;
0086082210999992005031807304+40450-003550FM-15+0582LEMD V0203501N00261999999CY0099001N1+00601+00101999999ADDMA1102911096081MW1001REMMET053LEMD 180730Z 35005KT 310V020 CAVOK 06/01 Q1029 NOSIG;
0086082210999992005031807304+40450-003550FM-15+0582LEMD V0203501N00261999999CY0099001N1+00601+00101999999ADDMA1102911096081MW1001REMMET053LEMD 180730Z 35005KT 310V020 CAVOK 06/01 Q1029 NOSIG;
0086082210999992005031807304+40450-003550FM-15+0582LEMD V0203501N00261999999CY0099001N1+00601+00101999999ADDMA1102911096081MW1001REMMET053LEMD 180730Z 35005KT 310V020 CAVOK 06/01 Q1029 NOSIG;
0086082210999992005031807304+40450-003550FM-15+0582LEMD V0203501N00261999999CY0099001N1+00601+00101999999ADDMA1102911096081MW1001REMMET053LEMD 180730Z 35005KT 310V020 CAVOK 06/01 Q1029 NOSIG;
0086082210999992005031807304+40450-003550FM-15+0582LEMD V0203501N00261999999CY0099001N1+00601+00101999999ADDMA1102911096081MW1001REMMET053LEMD 180730Z 35005KT 310V020 CAVOK 06/01 Q1029 NOSIG;
0086082210999992005031807304+40450-003550FM-15+0582LEMD V0203501N00261999999CY0099001N1+00601+00101999999ADDMA1102911096081MW1001REMMET053LEMD 180730Z 35005KT 310V020 CAVOK 06/01 Q1029 NOSIG;
0086082210999992005031807304+40450-003550FM-15+0582LEMD V0203501N00261999999CY0099001N1+00601+00101999999ADDMA1102911096081MW1001REMMET053LEMD 180730Z 35005KT 310V020 CAVOK 06/01 Q1029 NOSIG;
0086082210999992005031807304+40450-003550FM-15+0582LEMD V0203501N00261999999CY0099001N1+00601+00101999999ADDMA1102911096081MW1001REMMET053LEMD 180730Z 35005KT 310V020 CAVOK 06/01 Q1029 NOSIG;
0086082210999992005031807304+40450-003550FM-15+0582LEMD V0203501N00261999999CY0099001N1+00601+00101999999ADDMA1102911096081MW1001REMMET053LEMD 180730Z 35005KT 310V020 CAVOK 06/01 Q1029 NOSIG;
0086082210999992005031807304+40450-003550FM-15+0582LEMD V0203501N00261999999CY0099001N1+00601+00101999999ADDMA1102911096081MW1001REMMET053LEMD 180730Z 35005KT 310V020 CAVOK 06/01 Q1029 NOSIG;
0086082210999992005031807304+40450-003550FM-15+0582LEMD V0203501N00261999999CY0099001N1+00601+00101999999ADDMA1102911096081MW1001REMMET053LEMD 180730Z 35005KT 310V020 CAVOK 06/01 Q1029 NOSIG;
0086082210999992005031807304+40450-003550FM-15+0582LEMD V0203501N00261999999CY0099001N1+00601+00101999999ADDMA1102911096081MW1001REMMET053LEMD 180730Z 35005KT 310V020 CAVOK 06/01 Q1029 NOSIG;
0086082210999992005031807304+40450-003550FM-15+0582LEMD V0203501N00261999999CY0099001N1+00601+00101999999ADDMA1102911096081MW1001REMMET053LEMD 180730Z 35005KT 310V020 CAVOK 06/01 Q1029 NOSIG;
0086082210999992005031807304+40450-003550FM-15+0582LEMD V0203501N00261999999CY0099001N1+00601+00101999999ADDMA1102911096081MW1001REMMET053LEMD 180730Z 35005KT 310V020 CAVOK 06/01 Q1029 NOSIG;
0086082210999992005031807304+40450-003550FM-15+0582LEMD V0203501N00261999999CY0099001N1+00601+00101999999ADDMA1102911096081MW1001REMMET053LEMD 180730Z 35005KT 310V020 CAVOK 06/01 Q1029 NOSIG;
0086082210999992005031807304+40450-003550FM-15+0582LEMD V0203501N00261999999CY0099001N1+00601+00101999999ADDMA1102911096081MW1001REMMET053LEMD 180730Z 35005KT 310V020 CAVOK 06/01 Q1029 NOSIG;
0086082210999992005031807304+40450-003550FM-15+0582LEMD V0203501N00261999999CY0099001N1+00601+00101999999ADDMA1102911096081MW1001REMMET053LEMD 180730Z 35005KT 310V020 CAVOK 06/01 Q1029 NOSIG;
0086082210999992005031807304+40450-003550FM-15+0582LEMD V0203501N00261999999CY0099001N1+00601+00101999999ADDMA1102911096081MW1001REMMET053LEMD 180730Z 35005KT 310V020 CAVOK 06/01 Q1029 NOSIG;
0086082210999992005031807304+40450-003550FM-15+0582LEMD V0203501N00261999999CY0099001N1+00601+00101999999ADDMA1102911096081MW1001REMMET053LEMD 180730Z 35005KT 310V020 CAVOK 06/01 Q1029 NOSIG;
0086082210999992005031807304+40450-003550FM-15+0582LEMD V0203501N00261999999CY0099001N1+00601+00101999999ADDMA1102911096081MW1001REMMET053LEMD 180730Z 35005KT 310V020 CAVOK 06/01 Q1029 NOSIG;
0086082210999992005031807304+40450-003550FM-15+0582LEMD V0203501N00261999999CY0099001N1+00601+00101999999ADDMA1102911096081MW1001REMMET053LEMD 180730Z 35005KT 310V020 CAVOK 06/01 Q1029 NOSIG;
0086082210999992005031807304+40450-003550FM-15+0582LEMD V0203501N00261999999CY0099001N1+00601+00101999999ADDMA1102911096081MW1001REMMET053LEMD 180730Z 35005KT 310V020 CAVOK 06/01 Q1029 NOSIG;
0086082210999992005031807304+40450-003550FM-15+0582LEMD V0203501N00261999999CY0099001N1+00601+00101999999ADDMA1102911096081MW1001REMMET053LEMD 180730Z 35005KT 310V020 CAVOK 06/01 Q1029 NOSIG;
0086082210999992005031807304+40450-003550FM-15+0582LEMD V0203501N00261999999CY0099001N1+00601+00101999999ADDMA1102911096081MW1001REMMET053LEMD 180730Z 35005KT 310V020 CAVOK 06/01 Q1029 NOSIG;
0086082210999992005031807304+40450-003550FM-15+0582LEMD V0203501N00261999999CY0099001N1+00601+00101999999ADDMA1102911096081MW1001REMMET053LEMD 180730Z 35005KT 310V020 CAVOK 06/01 Q1029 NOSIG;
0086082210999992005031807304+40450-003550FM-15+0582LEMD V0203501N00261999999CY0099001N1+00601+00101999999ADDMA1102911096081MW1001REMMET053LEMD 180730Z 35005KT 310V020 CAVOK 06/01 Q1029 NOSIG;
0086082210999992005031807304+40450-003550FM-15+0582LEMD V0203501N00261999999CY0099001N1+00601+00101999999ADDMA1102911096081MW1001REMMET053LEMD 180730Z 35005KT 310V020 CAVOK 06/01 Q1029 NOSIG;
0086082210999992005031807304+40450-003550FM-15+0582LEMD V0203501N00261999999CY0099001N1+00601+00101999999ADDMA1102911096081MW1001REMMET053LEMD 180730Z 35005KT 310V020 CAVOK 06/01 Q1029 NOSIG;
0086082210999992005031807304+40450-003550FM-15+0582LEMD V0203501N00261999999CY0099001N1+00601+00101999999ADDMA1102911096081MW1001REMMET053LEMD 180730Z 35005KT 310V020 CAVOK 06/01 Q1029 NOSIG;
0086082210999992005031807304+40450-003550FM-15+0582LEMD V0203501N00261999999CY0099001N1+00601+00101999999ADDMA1102911096081MW1001REMMET053LEMD 180730Z 35005KT 310V020 CAVOK 06/01 Q1029 NOSIG;
0086082210999992005031807304+40450-003550FM-15+0582LEMD V0203501N00261999999CY0099001N1+00601+00101999999ADDMA1102911096081MW1001REMMET053LEMD 180730Z 35005KT 310V020 CAVOK 06/01 Q1029 NOSIG;
0086082210999992005031807304+40450-003550FM-15+0582LEMD V0203501N00261999999CY0099001N1+00601+00101999999ADDMA1102911096081MW1001REMMET053LEMD 180730Z 35005KT 310V020 CAVOK 06/01 Q1029 NOSIG;
0086082210999992005031807304+40450-003550FM-15+0582LEMD V0203501N00261999999CY0099001N1+00601+00101999999ADDMA1102911096081MW1001REMMET053LEMD 180730Z 35005KT 310V020 CAVOK 06/01 Q1029 NOSIG;
0086082210999992005031807304+40450-003550FM-15+0582LEMD V0203501N00261999999CY0099001N1+00601+00101999999ADDMA1102911096081MW1001REMMET053LEMD 180730Z 35005KT 310V020 CAVOK 06/01 Q1029 NOSIG;
0086082210999992005031807304+40450-003550FM-15+0582LEMD V0203501N00261999999CY0099001N1+00601+00101999999ADDMA1102911096081MW1001REMMET053LEMD 180730Z 35005KT 310V020 CAVOK 06/01 Q1029 NOSIG;
0086082210999992005031807304+40450-003550FM-15+0582LEMD V0203501N00261999999CY0099001N1+00601+00101999999ADDMA1102911096081MW1001REMMET053LEMD 180730Z 35005KT 310V020 CAVOK 06/01 Q1029 NOSIG;
0086082210999992005031807304+40450-003550FM-15+0582LEMD V0203501N00261999999CY0099001N1+00601+00101999999ADDMA1102911096081MW1001REMMET053LEMD 180730Z 35005KT 310V020 CAVOK 06/01 Q1029 NOSIG;
0086082210999992005031807304+40450-003550FM-15+0582LEMD V0203501N00261999999CY0099001N1+00601+00101999999ADDMA1102911096081MW1001REMMET053LEMD 180730Z 35005KT 310V020 CAVOK 06/01 Q1029 NOSIG;
0086082210999992005031807304+40450-003550FM-15+0582LEMD V0203501N00261999999CY0099001N1+00601+00101999999ADDMA1102911096081MW1001REMMET053LEMD 180730Z 35005KT 310V020 CAVOK 06/01 Q1029 NOSIG;
0086082210999992005031807304+40450-003550FM-15+0582LEMD V0203501N00261999999CY0099001N1+00601+00101999999ADDMA1102911096081MW1001REMMET053LEMD 180730Z 35005KT 310V020 CAVOK 06/01 Q1029 NOSIG;
0086082210999992005031807304+40450-003550FM-15+0582LEMD V0203501N00261999999CY0099001N1+00601+00101999999ADDMA1102911096081MW1001REMMET053LEMD 180730Z 35005KT 310V020 CAVOK 06/01 Q1029 NOSIG;
0086082210999992005031807304+40450-003550FM-15+0582LEMD V0203501N00261999999CY0099001N1+00601+00101999999ADDMA1102911096081MW1001REMMET053LEMD 180730Z 35005KT 310V020 CAVOK 06/01 Q1029 NOSIG;
0086082210999992005031807304+40450-003550FM-15+0582LEMD V0203501N00261999999CY0099001N1+00601+00101999999ADDMA1102911096081MW1001REMMET053LEMD 180730Z 35005KT 310V020 CAVOK 06/01 Q1029 NOSIG;
0086082210999992005031807304+40450-003550FM-15+0582LEMD V0203501N00261999999CY0099001N1+00601+00101999999ADDMA1102911096081MW1001REMMET053LEMD 180730Z 35005KT 310V020 CAVOK 06/01 Q1029 NOSIG;
0086082210999992005031807304+40450-003550FM-15+0582LEMD V0203501N00261999999CY0099001N1+00601+00101999999ADDMA1102911096081MW1001REMMET053LEMD 180730Z 35005KT 310V020 CAVOK 06/01 Q1029 NOSIG;
0086082210999992005031807304+40450-003550FM-15+0582LEMD V0203501N00261999999CY0099001N1+00601+00101999999ADDMA1102911096081MW1001REMMET053LEMD 180730Z 35005KT 310V020 CAVOK 06/01 Q1029 NOSIG;
0086082210999992005031807304+40450-003550FM-15+0582LEMD V0203501N00261999999CY0099001N1+00601+00101999999ADDMA1102911096081MW1001REMMET053LEMD 180730Z 35005KT 310V020 CAVOK 06/01 Q1029 NOSIG;
0086082210999992005031807304+40450-003550FM-15+0582LEMD V0203501N00261999999CY0099001N1+00601+00101999999ADDMA1102911096081MW1001REMMET053LEMD 180730Z 35005KT 310V020 CAVOK 06/01 Q1029 NOSIG;
0086082210999992005031807304+40450-003550FM-15+0582LEMD V0203501N00261999999CY0099001N1+00601+00101999999ADDMA1102911096081MW1001REMMET053LEMD 180730Z 35005KT 310V020 CAVOK 06/01 Q1029 NOSIG;
0086082210999992005031807304+40450-003550FM-15+0582LEMD V0203501N00261999999CY0099001N1+00601+00101999999ADDMA1102911096081MW1001REMMET053LEMD 180730Z 35005KT 310V020 CAVOK 06/01 Q1029 NOSIG;
0086082210999992005031807304+40450-003550FM-15+0582LEMD V0203501N00261999999CY0099001N1+00601+00101999999ADDMA1102911096081MW1001REMMET053LEMD 180730Z 35005KT 310V020 CAVOK 06/01 Q1029 NOSIG;
0086082210999992005031807304+40450-003550FM-15+0582LEMD V0203501N00261999999CY0099001N1+00601+00101999999ADDMA1102911096081MW1001REMMET053LEMD 180730Z 35005KT 310V020 CAVOK 06/01 Q1029 NOSIG;
0086082210999992005031807304+40450-003550FM-15+0582LEMD V0203501N00261999999CY0099001N1+00601+00101999999ADDMA1102911096081MW1001REMMET053LEMD 180730Z 35005KT 310V020 CAVOK 06/01 Q1029 NOSIG;
0086082210999992005031807304+40450-003550FM-15+0582LEMD V0203501N00261999999CY0099001N1+00601+00101999999ADDMA1102911096081MW1001REMMET053LEMD 180730Z 35005KT 310V020 CAVOK 06/01 Q1029 NOSIG;
0086082210999992005031807304+40450-003550FM-15+0582LEMD V0203501N00261999999CY0099001N1+00601+00101999999ADDMA1102911096081MW1001REMMET053LEMD 180730Z 35005KT 310V020 CAVOK 06/01 Q1029 NOSIG;
0086082210999992005031807304+40450-003550FM-15+0582LEMD V0203501N00261999999CY0099001N1+00601+00101999999ADDMA1102911096081MW1001REMMET053LEMD 180730Z 35005KT 310V020 CAVOK 06/01 Q1029 NOSIG;
0086082210999992005031807304+40450-003550FM-15+0582LEMD V0203501N00261999999CY0099001N1+00601+00101999999ADDMA1102911096081MW1001REMMET053LEMD 180730Z 35005KT 310V020 CAVOK 06/01 Q1029 NOSIG;
0086082210999992005031807304+40450-003550FM-15+0582LEMD V0203501N00261999999CY0099001N1+00601+00101999999ADDMA1102911096081MW1001REMMET053LEMD 180730Z 35005KT 310V020 CAVOK 06/01 Q1029 NOSIG;
0086082210999992005031807304+40450-003550FM-15+0582LEMD V0203501N00261999999CY0099001N1+00601+00101999999ADDMA1102911096081MW1001REMMET053LEMD 180730Z 35005KT 310V020 CAVOK 06/01 Q1029 NOSIG;
0086082210999992005031807304+40450-003550FM-15+0582LEMD V0203501N00261999999CY0099001N1+00601+00101999999ADDMA1102911096081MW1001REMMET053LEMD 180730Z 35005KT 310V020 CAVOK 06/01 Q1029 NOSIG;
0086082210999992005031807304+40450-003550FM-15+0582LEMD V0203501N00261999999CY0099001N1+00601+00101999999ADDMA1102911096081MW1001REMMET053LEMD 180730Z 35005KT 310V020 CAVOK 06/01 Q1029 NOSIG;
0086082210999992005031807304+40450-003550FM-15+0582LEMD V0203501N00261999999CY0099001N1+00601+00101999999ADDMA1102911096081MW1001REMMET053LEMD 180730Z 35005KT 310V020 CAVOK 06/01 Q1029 NOSIG;
0086082210999992005031807304+40450-003550FM-15+0582LEMD V0203501N00261999999CY0099001N1+00601+00101999999ADDMA1102911096081MW1001REMMET053LEMD 180730Z 35005KT 310V020 CAVOK 06/01 Q1029 NOSIG;
0086082210999992005031807304+40450-003550FM-15+0582LEMD V0203501N00261999999CY0099001N1+00601+00101999999ADDMA1102911096081MW1001REMMET053LEMD 180730Z 35005KT 310V020 CAVOK 06/01 Q1029 NOSIG;
0086082210999992005031807304+40450-003550FM-15+0582LEMD V0203501N00261999999CY0099001N1+00601+00101999999ADDMA1102911096081MW1001REMMET053LEMD 180730Z 35005KT 310V020 CAVOK 06/01 Q1029 NOSIG;
0086082210999992005031807304+40450-003550FM-15+0582LEMD V0203501N00261999999CY0099001N1+00601+00101999999ADDMA1102911096081MW1001REMMET053LEMD 180730Z 35005KT 310V020 CAVOK 06/01 Q1029 NOSIG;
0086082210999992005031807304+40450-003550FM-15+0582LEMD V0203501N00261999999CY0099001N1+00601+00101999999ADDMA1102911096081MW1001REMMET053LEMD 180730Z 35005KT 310V020 CAVOK 06/01 Q1029 NOSIG;
0086082210999992005031807304+40450-003550FM-15+0582LEMD V0203501N00261999999CY0099001N1+00601+00101999999ADDMA1102911096081MW1001REMMET053LEMD 180730Z 35005KT 310V020 CAVOK 06/01 Q1029 NOSIG;
