0196717520999992006050312004+42967-079333FM-12+0178CTWL V0200901N001519999999N9999999N1+01141+00701101491ADDAA106000091AA224000391KA1240M+02181KA2120N+00631MA1999999099361MD1110171+9999REMSYN088AAXX  03124 71752 16/// /0903 10114 20070 39936 40149 51017 60001 333 10218 20063 70003;EQDQ01  00002PRCP06
0196717520999992006050312004+42967-079333FM-12+0178CTWL V0200901N001519999999N9999999N1+01141+00701101491ADDAA106000091AA224000391KA1240M+02181KA2120N+00631MA1999999099361MD1110171+9999REMSYN088AAXX  03124 71752 16/// /0903 10114 20070 39936 40149 51017 60001 333 10218 20063 70003;EQDQ01  00002PRCP06
0196717520999992006050312004+42967-079333FM-12+0178CTWL V0200901N001519999999N9999999N1+01141+00701101491ADDAA106000091AA224000391KA1240M+02181KA2120N+00631MA1999999099361MD1110171+9999REMSYN088AAXX  03124 71752 16/// /0903 10114 20070 39936 40149 51017 60001 333 10218 20063 70003;EQDQ01  00002PRCP06
0196717520999992006050312004+42967-079333FM-12+0178CTWL V0200901N001519999999N9999999N1+01141+00701101491ADDAA106000091AA224000391KA1240M+02181KA2120N+00631MA1999999099361MD1110171+9999REMSYN088AAXX  03124 71752 16/// /0903 10114 20070 39936 40149 51017 60001 333 10218 20063 70003;EQDQ01  00002PRCP06
0196717520999992006050312004+42967-079333FM-12+0178CTWL V0200901N001519999999N9999999N1+01141+00701101491ADDAA106000091AA224000391KA1240M+02181KA2120N+00631MA1999999099361MD1110171+9999REMSYN088AAXX  03124 71752 16/// /0903 10114 20070 39936 40149 51017 60001 333 10218 20063 70003;EQDQ01  00002PRCP06
0196717520999992006050312004+42967-079333FM-12+0178CTWL V0200901N001519999999N9999999N1+01141+00701101491ADDAA106000091AA224000391KA1240M+02181KA2120N+00631MA1999999099361MD1110171+9999REMSYN088AAXX  03124 71752 16/// /0903 10114 20070 39936 40149 51017 60001 333 10218 20063 70003;EQDQ01  00002PRCP06
0196717520999992006050312004+42967-079333FM-12+0178CTWL V0200901N001519999999N9999999N1+01141+00701101491ADDAA106000091AA224000391KA1240M+02181KA2120N+00631MA1999999099361MD1110171+9999REMSYN088AAXX  03124 71752 16/// /0903 10114 20070 39936 40149 51017 60001 333 10218 20063 70003;EQDQ01  00002PRCP06
0196717520999992006050312004+42967-079333FM-12+0178CTWL V0200901N001519999999N9999999N1+01141+00701101491ADDAA106000091AA224000391KA1240M+02181KA2120N+00631MA1999999099361MD1110171+9999REMSYN088AAXX  03124 71752 16/// /0903 10114 20070 39936 40149 51017 60001 333 10218 20063 70003;EQDQ01  00002PRCP06
0196717520999992006050312004+42967-079333FM-12+0178CTWL V0200901N001519999999N9999999N1+01141+00701101491ADDAA106000091AA224000391KA1240M+02181KA2120N+00631MA1999999099361MD1110171+9999REMSYN088AAXX  03124 71752 16/// /0903 10114 20070 39936 40149 51017 60001 333 10218 20063 70003;EQDQ01  00002PRCP06
0196717520999992006050312004+42967-079333FM-12+0178CTWL V0200901N001519999999N9999999N1+01141+00701101491ADDAA106000091AA224000391KA1240M+02181KA2120N+00631MA1999999099361MD1110171+9999REMSYN088AAXX  03124 71752 16/// /0903 10114 20070 39936 40149 51017 60001 333 10218 20063 70003;EQDQ01  00002PRCP06
0196717520999992006050312004+42967-079333FM-12+0178CTWL V0200901N001519999999N9999999N1+01141+00701101491ADDAA106000091AA224000391KA1240M+02181KA2120N+00631MA1999999099361MD1110171+9999REMSYN088AAXX  03124 71752 16/// /0903 10114 20070 39936 40149 51017 60001 333 10218 20063 70003;EQDQ01  00002PRCP06
0196717520999992006050312004+42967-079333FM-12+0178CTWL V0200901N001519999999N9999999N1+01141+00701101491ADDAA106000091AA224000391KA1240M+02181KA2120N+00631MA1999999099361MD1110171+9999REMSYN088AAXX  03124 71752 16/// /0903 10114 20070 39936 40149 51017 60001 333 10218 20063 70003;EQDQ01  00002PRCP06
0196717520999992006050312004+42967-079333FM-12+0178CTWL V0200901N001519999999N9999999N1+01141+00701101491ADDAA106000091AA224000391KA1240M+02181KA2120N+00631MA1999999099361MD1110171+9999REMSYN088AAXX  03124 71752 16/// /0903 10114 20070 39936 40149 51017 60001 333 10218 20063 70003;EQDQ01  00002PRCP06
0196717520999992006050312004+42967-079333FM-12+0178CTWL V0200901N001519999999N9999999N1+01141+00701101491ADDAA106000091AA224000391KA1240M+02181KA2120N+00631MA1999999099361MD1110171+9999REMSYN088AAXX  03124 71752 16/// /0903 10114 20070 39936 40149 51017 60001 333 10218 20063 70003;EQDQ01  00002PRCP06
0196717520999992006050312004+42967-079333FM-12+0178CTWL V0200901N001519999999N9999999N1+01141+00701101491ADDAA106000091AA224000391KA1240M+02181KA2120N+00631MA1999999099361MD1110171+9999REMSYN088AAXX  03124 71752 16/// /0903 10114 20070 39936 40149 51017 60001 333 10218 20063 70003;EQDQ01  00002PRCP06
0196717520999992006050312004+42967-079333FM-12+0178CTWL V0200901N001519999999N9999999N1+01141+00701101491ADDAA106000091AA224000391KA1240M+02181KA2120N+00631MA1999999099361MD1110171+9999REMSYN088AAXX  03124 71752 16/// /0903 10114 20070 39936 40149 51017 60001 333 10218 20063 70003;EQDQ01  00002PRCP06
0196717520999992006050312004+42967-079333FM-12+0178CTWL V0200901N001519999999N9999999N1+01141+00701101491ADDAA106000091AA224000391KA1240M+02181KA2120N+00631MA1999999099361MD1110171+9999REMSYN088AAXX  03124 71752 16/// /0903 10114 20070 39936 40149 51017 60001 333 10218 20063 70003;EQDQ01  00002PRCP06
0196717520999992006050312004+42967-079333FM-12+0178CTWL V0200901N001519999999N9999999N1+01141+00701101491ADDAA106000091AA224000391KA1240M+02181KA2120N+00631MA1999999099361MD1110171+9999REMSYN088AAXX  03124 71752 16/// /0903 10114 20070 39936 40149 51017 60001 333 10218 20063 70003;EQDQ01  00002PRCP06
0196717520999992006050312004+42967-079333FM-12+0178CTWL V0200901N001519999999N9999999N1+01141+00701101491ADDAA106000091AA224000391KA1240M+02181KA2120N+00631MA1999999099361MD1110171+9999REMSYN088AAXX  03124 71752 16/// /0903 10114 20070 39936 40149 51017 60001 333 10218 20063 70003;EQDQ01  00002PRCP06
0196717520999992006050312004+42967-079333FM-12+0178CTWL V0200901N001519999999N9999999N1+01141+00701101491ADDAA106000091AA224000391KA1240M+02181KA2120N+00631MA1999999099361MD1110171+9999REMSYN088AAXX  03124 71752 16/// /0903 10114 20070 39936 40149 51017 60001 333 10218 20063 70003;EQDQ01  00002PRCP06
0196717520999992006050312004+42967-079333FM-12+0178CTWL V0200901N001519999999N9999999N1+01141+00701101491ADDAA106000091AA224000391KA1240M+02181KA2120N+00631MA1999999099361MD1110171+9999REMSYN088AAXX  03124 71752 16/// /0903 10114 20070 39936 40149 51017 60001 333 10218 20063 70003;EQDQ01  00002PRCP06
0196717520999992006050312004+42967-079333FM-12+0178CTWL V0200901N001519999999N9999999N1+01141+00701101491ADDAA106000091AA224000391KA1240M+02181KA2120N+00631MA1999999099361MD1110171+9999REMSYN088AAXX  03124 71752 16/// /0903 10114 20070 39936 40149 51017 60001 333 10218 20063 70003;EQDQ01  00002PRCP06
0196717520999992006050312004+42967-079333FM-12+0178CTWL V0200901N001519999999N9999999N1+01141+00701101491ADDAA106000091AA224000391KA1240M+02181KA2120N+00631MA1999999099361MD1110171+9999REMSYN088AAXX  03124 71752 16/// /0903 10114 20070 39936 40149 51017 60001 333 10218 20063 70003;EQDQ01  00002PRCP06
0196717520999992006050312004+42967-079333FM-12+0178CTWL V0200901N001519999999N9999999N1+01141+00701101491ADDAA106000091AA224000391KA1240M+02181KA2120N+00631MA1999999099361MD1110171+9999REMSYN088AAXX  03124 71752 16/// /0903 10114 20070 39936 40149 51017 60001 333 10218 20063 70003;EQDQ01  00002PRCP06
0196717520999992006050312004+42967-079333FM-12+0178CTWL V0200901N001519999999N9999999N1+01141+00701101491ADDAA106000091AA224000391KA1240M+02181KA2120N+00631MA1999999099361MD1110171+9999REMSYN088AAXX  03124 71752 16/// /0903 10114 20070 39936 40149 51017 60001 333 10218 20063 70003;EQDQ01  00002PRCP06
0196717520999992006050312004+42967-079333FM-12+0178CTWL V0200901N001519999999N9999999N1+01141+00701101491ADDAA106000091AA224000391KA1240M+02181KA2120N+00631MA1999999099361MD1110171+9999REMSYN088AAXX  03124 71752 16/// /0903 10114 20070 39936 40149 51017 60001 333 10218 20063 70003;EQDQ01  00002PRCP06
0196717520999992006050312004+42967-079333FM-12+0178CTWL V0200901N001519999999N9999999N1+01141+00701101491ADDAA106000091AA224000391KA1240M+02181KA2120N+00631MA1999999099361MD1110171+9999REMSYN088AAXX  03124 71752 16/// /0903 10114 20070 39936 40149 51017 60001 333 10218 20063 70003;EQDQ01  00002PRCP06
0196717520999992006050312004+42967-079333FM-12+0178CTWL V0200901N001519999999N9999999N1+01141+00701101491ADDAA106000091AA224000391KA1240M+02181KA2120N+00631MA1999999099361MD1110171+9999REMSYN088AAXX  03124 71752 16/// /0903 10114 20070 39936 40149 51017 60001 333 10218 20063 70003;EQDQ01  00002PRCP06
0196717520999992006050312004+42967-079333FM-12+0178CTWL V0200901N001519999999N9999999N1+01141+00701101491ADDAA106000091AA224000391KA1240M+02181KA2120N+00631MA1999999099361MD1110171+9999REMSYN088AAXX  03124 71752 16/// /0903 10114 20070 39936 40149 51017 60001 333 10218 20063 70003;EQDQ01  00002PRCP06
0196717520999992006050312004+42967-079333FM-12+0178CTWL V0200901N001519999999N9999999N1+01141+00701101491ADDAA106000091AA224000391KA1240M+02181KA2120N+00631MA1999999099361MD1110171+9999REMSYN088AAXX  03124 71752 16/// /0903 10114 20070 39936 40149 51017 60001 333 10218 20063 70003;EQDQ01  00002PRCP06
0196717520999992006050312004+42967-079333FM-12+0178CTWL V0200901N001519999999N9999999N1+01141+00701101491ADDAA106000091AA224000391KA1240M+02181KA2120N+00631MA1999999099361MD1110171+9999REMSYN088AAXX  03124 71752 16/// /0903 10114 20070 39936 40149 51017 60001 333 10218 20063 70003;EQDQ01  00002PRCP06
0196717520999992006050312004+42967-079333FM-12+0178CTWL V0200901N001519999999N9999999N1+01141+00701101491ADDAA106000091AA224000391KA1240M+02181KA2120N+00631MA1999999099361MD1110171+9999REMSYN088AAXX  03124 71752 16/// /0903 10114 20070 39936 40149 51017 60001 333 10218 20063 70003;EQDQ01  00002PRCP06
0196717520999992006050312004+42967-079333FM-12+0178CTWL V0200901N001519999999N9999999N1+01141+00701101491ADDAA106000091AA224000391KA1240M+02181KA2120N+00631MA1999999099361MD1110171+9999REMSYN088AAXX  03124 71752 16/// /0903 10114 20070 39936 40149 51017 60001 333 10218 20063 70003;EQDQ01  00002PRCP06
0196717520999992006050312004+42967-079333FM-12+0178CTWL V0200901N001519999999N9999999N1+01141+00701101491ADDAA106000091AA224000391KA1240M+02181KA2120N+00631MA1999999099361MD1110171+9999REMSYN088AAXX  03124 71752 16/// /0903 10114 20070 39936 40149 51017 60001 333 10218 20063 70003;EQDQ01  00002PRCP06
0196717520999992006050312004+42967-079333FM-12+0178CTWL V0200901N001519999999N9999999N1+01141+00701101491ADDAA106000091AA224000391KA1240M+02181KA2120N+00631MA1999999099361MD1110171+9999REMSYN088AAXX  03124 71752 16/// /0903 10114 20070 39936 40149 51017 60001 333 10218 20063 70003;EQDQ01  00002PRCP06
0196717520999992006050312004+42967-079333FM-12+0178CTWL V0200901N001519999999N9999999N1+01141+00701101491ADDAA106000091AA224000391KA1240M+02181KA2120N+00631MA1999999099361MD1110171+9999REMSYN088AAXX  03124 71752 16/// /0903 10114 20070 39936 40149 51017 60001 333 10218 20063 70003;EQDQ01  00002PRCP06
0196717520999992006050312004+42967-079333FM-12+0178CTWL V0200901N001519999999N9999999N1+01141+00701101491ADDAA106000091AA224000391KA1240M+02181KA2120N+00631MA1999999099361MD1110171+9999REMSYN088AAXX  03124 71752 16/// /0903 10114 20070 39936 40149 51017 60001 333 10218 20063 70003;EQDQ01  00002PRCP06
0196717520999992006050312004+42967-079333FM-12+0178CTWL V0200901N001519999999N9999999N1+01141+00701101491ADDAA106000091AA224000391KA1240M+02181KA2120N+00631MA1999999099361MD1110171+9999REMSYN088AAXX  03124 71752 16/// /0903 10114 20070 39936 40149 51017 60001 333 10218 20063 70003;EQDQ01  00002PRCP06
0196717520999992006050312004+42967-079333FM-12+0178CTWL V0200901N001519999999N9999999N1+01141+00701101491ADDAA106000091AA224000391KA1240M+02181KA2120N+00631MA1999999099361MD1110171+9999REMSYN088AAXX  03124 71752 16/// /0903 10114 20070 39936 40149 51017 60001 333 10218 20063 70003;EQDQ01  00002PRCP06
0196717520999992006050312004+42967-079333FM-12+0178CTWL V0200901N001519999999N9999999N1+01141+00701101491ADDAA106000091AA224000391KA1240M+02181KA2120N+00631MA1999999099361MD1110171+9999REMSYN088AAXX  03124 71752 16/// /0903 10114 20070 39936 40149 51017 60001 333 10218 20063 70003;EQDQ01  00002PRCP06
0196717520999992006050312004+42967-079333FM-12+0178CTWL V0200901N001519999999N9999999N1+01141+00701101491ADDAA106000091AA224000391KA1240M+02181KA2120N+00631MA1999999099361MD1110171+9999REMSYN088AAXX  03124 71752 16/// /0903 10114 20070 39936 40149 51017 60001 333 10218 20063 70003;EQDQ01  00002PRCP06
0196717520999992006050312004+42967-079333FM-12+0178CTWL V0200901N001519999999N9999999N1+01141+00701101491ADDAA106000091AA224000391KA1240M+02181KA2120N+00631MA1999999099361MD1110171+9999REMSYN088AAXX  03124 71752 16/// /0903 10114 20070 39936 40149 51017 60001 333 10218 20063 70003;EQDQ01  00002PRCP06
0196717520999992006050312004+42967-079333FM-12+0178CTWL V0200901N001519999999N9999999N1+01141+00701101491ADDAA106000091AA224000391KA1240M+02181KA2120N+00631MA1999999099361MD1110171+9999REMSYN088AAXX  03124 71752 16/// /0903 10114 20070 39936 40149 51017 60001 333 10218 20063 70003;EQDQ01  00002PRCP06
0196717520999992006050312004+42967-079333FM-12+0178CTWL V0200901N001519999999N9999999N1+01141+00701101491ADDAA106000091AA224000391KA1240M+02181KA2120N+00631MA1999999099361MD1110171+9999REMSYN088AAXX  03124 71752 16/// /0903 10114 20070 39936 40149 51017 60001 333 10218 20063 70003;EQDQ01  00002PRCP06
0196717520999992006050312004+42967-079333FM-12+0178CTWL V0200901N001519999999N9999999N1+01141+00701101491ADDAA106000091AA224000391KA1240M+02181KA2120N+00631MA1999999099361MD1110171+9999REMSYN088AAXX  03124 71752 16/// /0903 10114 20070 39936 40149 51017 60001 333 10218 20063 70003;EQDQ01  00002PRCP06
0196717520999992006050312004+42967-079333FM-12+0178CTWL V0200901N001519999999N9999999N1+01141+00701101491ADDAA106000091AA224000391KA1240M+02181KA2120N+00631MA1999999099361MD1110171+9999REMSYN088AAXX  03124 71752 16/// /0903 10114 20070 39936 40149 51017 60001 333 10218 20063 70003;EQDQ01  00002PRCP06
0196717520999992006050312004+42967-079333FM-12+0178CTWL V0200901N001519999999N9999999N1+01141+00701101491ADDAA106000091AA224000391KA1240M+02181KA2120N+00631MA1999999099361MD1110171+9999REMSYN088AAXX  03124 71752 16/// /0903 10114 20070 39936 40149 51017 60001 333 10218 20063 70003;EQDQ01  00002PRCP06
0196717520999992006050312004+42967-079333FM-12+0178CTWL V0200901N001519999999N9999999N1+01141+00701101491ADDAA106000091AA224000391KA1240M+02181KA2120N+00631MA1999999099361MD1110171+9999REMSYN088AAXX  03124 71752 16/// /0903 10114 20070 39936 40149 51017 60001 333 10218 20063 70003;EQDQ01  00002PRCP06
0196717520999992006050312004+42967-079333FM-12+0178CTWL V0200901N001519999999N9999999N1+01141+00701101491ADDAA106000091AA224000391KA1240M+02181KA2120N+00631MA1999999099361MD1110171+9999REMSYN088AAXX  03124 71752 16/// /0903 10114 20070 39936 40149 51017 60001 333 10218 20063 70003;EQDQ01  00002PRCP06
0196717520999992006050312004+42967-079333FM-12+0178CTWL V0200901N001519999999N9999999N1+01141+00701101491ADDAA106000091AA224000391KA1240M+02181KA2120N+00631MA1999999099361MD1110171+9999REMSYN088AAXX  03124 71752 16/// /0903 10114 20070 39936 40149 51017 60001 333 10218 20063 70003;EQDQ01  00002PRCP06
0196717520999992006050312004+42967-079333FM-12+0178CTWL V0200901N001519999999N9999999N1+01141+00701101491ADDAA106000091AA224000391KA1240M+02181KA2120N+00631MA1999999099361MD1110171+9999REMSYN088AAXX  03124 71752 16/// /0903 10114 20070 39936 40149 51017 60001 333 10218 20063 70003;EQDQ01  00002PRCP06
0196717520999992006050312004+42967-079333FM-12+0178CTWL V0200901N001519999999N9999999N1+01141+00701101491ADDAA106000091AA224000391KA1240M+02181KA2120N+00631MA1999999099361MD1110171+9999REMSYN088AAXX  03124 71752 16/// /0903 10114 20070 39936 40149 51017 60001 333 10218 20063 70003;EQDQ01  00002PRCP06
0196717520999992006050312004+42967-079333FM-12+0178CTWL V0200901N001519999999N9999999N1+01141+00701101491ADDAA106000091AA224000391KA1240M+02181KA2120N+00631MA1999999099361MD1110171+9999REMSYN088AAXX  03124 71752 16/// /0903 10114 20070 39936 40149 51017 60001 333 10218 20063 70003;EQDQ01  00002PRCP06
0196717520999992006050312004+42967-079333FM-12+0178CTWL V0200901N001519999999N9999999N1+01141+00701101491ADDAA106000091AA224000391KA1240M+02181KA2120N+00631MA1999999099361MD1110171+9999REMSYN088AAXX  03124 71752 16/// /0903 10114 20070 39936 40149 51017 60001 333 10218 20063 70003;EQDQ01  00002PRCP06
0196717520999992006050312004+42967-079333FM-12+0178CTWL V0200901N001519999999N9999999N1+01141+00701101491ADDAA106000091AA224000391KA1240M+02181KA2120N+00631MA1999999099361MD1110171+9999REMSYN088AAXX  03124 71752 16/// /0903 10114 20070 39936 40149 51017 60001 333 10218 20063 70003;EQDQ01  00002PRCP06
0196717520999992006050312004+42967-079333FM-12+0178CTWL V0200901N001519999999N9999999N1+01141+00701101491ADDAA106000091AA224000391KA1240M+02181KA2120N+00631MA1999999099361MD1110171+9999REMSYN088AAXX  03124 71752 16/// /0903 10114 20070 39936 40149 51017 60001 333 10218 20063 70003;EQDQ01  00002PRCP06
0196717520999992006050312004+42967-079333FM-12+0178CTWL V0200901N001519999999N9999999N1+01141+00701101491ADDAA106000091AA224000391KA1240M+02181KA2120N+00631MA1999999099361MD1110171+9999REMSYN088AAXX  03124 71752 16/// /0903 10114 20070 39936 40149 51017 60001 333 10218 20063 70003;EQDQ01  00002PRCP06
0196717520999992006050312004+42967-079333FM-12+0178CTWL V0200901N001519999999N9999999N1+01141+00701101491ADDAA106000091AA224000391KA1240M+02181KA2120N+00631MA1999999099361MD1110171+9999REMSYN088AAXX  03124 71752 16/// /0903 10114 20070 39936 40149 51017 60001 333 10218 20063 70003;EQDQ01  00002PRCP06
0196717520999992006050312004+42967-079333FM-12+0178CTWL V0200901N001519999999N9999999N1+01141+00701101491ADDAA106000091AA224000391KA1240M+02181KA2120N+00631MA1999999099361MD1110171+9999REMSYN088AAXX  03124 71752 16/// /0903 10114 20070 39936 40149 51017 60001 333 10218 20063 70003;EQDQ01  00002PRCP06
0196717520999992006050312004+42967-079333FM-12+0178CTWL V0200901N001519999999N9999999N1+01141+00701101491ADDAA106000091AA224000391KA1240M+02181KA2120N+00631MA1999999099361MD1110171+9999REMSYN088AAXX  03124 71752 16/// /0903 10114 20070 39936 40149 51017 60001 333 10218 20063 70003;EQDQ01  00002PRCP06
0196717520999992006050312004+42967-079333FM-12+0178CTWL V0200901N001519999999N9999999N1+01141+00701101491ADDAA106000091AA224000391KA1240M+02181KA2120N+00631MA1999999099361MD1110171+9999REMSYN088AAXX  03124 71752 16/// /0903 10114 20070 39936 40149 51017 60001 333 10218 20063 70003;EQDQ01  00002PRCP06
0196717520999992006050312004+42967-079333FM-12+0178CTWL V0200901N001519999999N9999999N1+01141+00701101491ADDAA106000091AA224000391KA1240M+02181KA2120N+00631MA1999999099361MD1110171+9999REMSYN088AAXX  03124 71752 16/// /0903 10114 20070 39936 40149 51017 60001 333 10218 20063 70003;EQDQ01  00002PRCP06
0196717520999992006050312004+42967-079333FM-12+0178CTWL V0200901N001519999999N9999999N1+01141+00701101491ADDAA106000091AA224000391KA1240M+02181KA2120N+00631MA1999999099361MD1110171+9999REMSYN088AAXX  03124 71752 16/// /0903 10114 20070 39936 40149 51017 60001 333 10218 20063 70003;EQDQ01  00002PRCP06
0196717520999992006050312004+42967-079333FM-12+0178CTWL V0200901N001519999999N9999999N1+01141+00701101491ADDAA106000091AA224000391KA1240M+02181KA2120N+00631MA1999999099361MD1110171+9999REMSYN088AAXX  03124 71752 16/// /0903 10114 20070 39936 40149 51017 60001 333 10218 20063 70003;EQDQ01  00002PRCP06
0196717520999992006050312004+42967-079333FM-12+0178CTWL V0200901N001519999999N9999999N1+01141+00701101491ADDAA106000091AA224000391KA1240M+02181KA2120N+00631MA1999999099361MD1110171+9999REMSYN088AAXX  03124 71752 16/// /0903 10114 20070 39936 40149 51017 60001 333 10218 20063 70003;EQDQ01  00002PRCP06
0196717520999992006050312004+42967-079333FM-12+0178CTWL V0200901N001519999999N9999999N1+01141+00701101491ADDAA106000091AA224000391KA1240M+02181KA2120N+00631MA1999999099361MD1110171+9999REMSYN088AAXX  03124 71752 16/// /0903 10114 20070 39936 40149 51017 60001 333 10218 20063 70003;EQDQ01  00002PRCP06
0196717520999992006050312004+42967-079333FM-12+0178CTWL V0200901N001519999999N9999999N1+01141+00701101491ADDAA106000091AA224000391KA1240M+02181KA2120N+00631MA1999999099361MD1110171+9999REMSYN088AAXX  03124 71752 16/// /0903 10114 20070 39936 40149 51017 60001 333 10218 20063 70003;EQDQ01  00002PRCP06
0196717520999992006050312004+42967-079333FM-12+0178CTWL V0200901N001519999999N9999999N1+01141+00701101491ADDAA106000091AA224000391KA1240M+02181KA2120N+00631MA1999999099361MD1110171+9999REMSYN088AAXX  03124 71752 16/// /0903 10114 20070 39936 40149 51017 60001 333 10218 20063 70003;EQDQ01  00002PRCP06
0196717520999992006050312004+42967-079333FM-12+0178CTWL V0200901N001519999999N9999999N1+01141+00701101491ADDAA106000091AA224000391KA1240M+02181KA2120N+00631MA1999999099361MD1110171+9999REMSYN088AAXX  03124 71752 16/// /0903 10114 20070 39936 40149 51017 60001 333 10218 20063 70003;EQDQ01  00002PRCP06
0196717520999992006050312004+42967-079333FM-12+0178CTWL V0200901N001519999999N9999999N1+01141+00701101491ADDAA106000091AA224000391KA1240M+02181KA2120N+00631MA1999999099361MD1110171+9999REMSYN088AAXX  03124 71752 16/// /0903 10114 20070 39936 40149 51017 60001 333 10218 20063 70003;EQDQ01  00002PRCP06
0196717520999992006050312004+42967-079333FM-12+0178CTWL V0200901N001519999999N9999999N1+01141+00701101491ADDAA106000091AA224000391KA1240M+02181KA2120N+00631MA1999999099361MD1110171+9999REMSYN088AAXX  03124 71752 16/// /0903 10114 20070 39936 40149 51017 60001 333 10218 20063 70003;EQDQ01  00002PRCP06
0196717520999992006050312004+42967-079333FM-12+0178CTWL V0200901N001519999999N9999999N1+01141+00701101491ADDAA106000091AA224000391KA1240M+02181KA2120N+00631MA1999999099361MD1110171+9999REMSYN088AAXX  03124 71752 16/// /0903 10114 20070 39936 40149 51017 60001 333 10218 20063 70003;EQDQ01  00002PRCP06
0196717520999992006050312004+42967-079333FM-12+0178CTWL V0200901N001519999999N9999999N1+01141+00701101491ADDAA106000091AA224000391KA1240M+02181KA2120N+00631MA1999999099361MD1110171+9999REMSYN088AAXX  03124 71752 16/// /0903 10114 20070 39936 40149 51017 60001 333 10218 20063 70003;EQDQ01  00002PRCP06
0196717520999992006050312004+42967-079333FM-12+0178CTWL V0200901N001519999999N9999999N1+01141+00701101491ADDAA106000091AA224000391KA1240M+02181KA2120N+00631MA1999999099361MD1110171+9999REMSYN088AAXX  03124 71752 16/// /0903 10114 20070 39936 40149 51017 60001 333 10218 20063 70003;EQDQ01  00002PRCP06
0196717520999992006050312004+42967-079333FM-12+0178CTWL V0200901N001519999999N9999999N1+01141+00701101491ADDAA106000091AA224000391KA1240M+02181KA2120N+00631MA1999999099361MD1110171+9999REMSYN088AAXX  03124 71752 16/// /0903 10114 20070 39936 40149 51017 60001 333 10218 20063 70003;EQDQ01  00002PRCP06
0196717520999992006050312004+42967-079333FM-12+0178CTWL V0200901N001519999999N9999999N1+01141+00701101491ADDAA106000091AA224000391KA1240M+02181KA2120N+00631MA1999999099361MD1110171+9999REMSYN088AAXX  03124 71752 16/// /0903 10114 20070 39936 40149 51017 60001 333 10218 20063 70003;EQDQ01  00002PRCP06
0196717520999992006050312004+42967-079333FM-12+0178CTWL V0200901N001519999999N9999999N1+01141+00701101491ADDAA106000091AA224000391KA1240M+02181KA2120N+00631MA1999999099361MD1110171+9999REMSYN088AAXX  03124 71752 16/// /0903 10114 20070 39936 40149 51017 60001 333 10218 20063 70003;EQDQ01  00002PRCP06
0196717520999992006050312004+42967-079333FM-12+0178CTWL V0200901N001519999999N9999999N1+01141+00701101491ADDAA106000091AA224000391KA1240M+02181KA2120N+00631MA1999999099361MD1110171+9999REMSYN088AAXX  03124 71752 16/// /0903 10114 20070 39936 40149 51017 60001 333 10218 20063 70003;EQDQ01  00002PRCP06
0196717520999992006050312004+42967-079333FM-12+0178CTWL V0200901N001519999999N9999999N1+01141+00701101491ADDAA106000091AA224000391KA1240M+02181KA2120N+00631MA1999999099361MD1110171+9999REMSYN088AAXX  03124 71752 16/// /0903 10114 20070 39936 40149 51017 60001 333 10218 20063 70003;EQDQ01  00002PRCP06
0196717520999992006050312004+42967-079333FM-12+0178CTWL V0200901N001519999999N9999999N1+01141+00701101491ADDAA106000091AA224000391KA1240M+02181KA2120N+00631MA1999999099361MD1110171+9999REMSYN088AAXX  03124 71752 16/// /0903 10114 20070 39936 40149 51017 60001 333 10218 20063 70003;EQDQ01  00002PRCP06
0196717520999992006050312004+42967-079333FM-12+0178CTWL V0200901N001519999999N9999999N1+01141+00701101491ADDAA106000091AA224000391KA1240M+02181KA2120N+00631MA1999999099361MD1110171+9999REMSYN088AAXX  03124 71752 16/// /0903 10114 20070 39936 40149 51017 60001 333 10218 20063 70003;EQDQ01  00002PRCP06
0196717520999992006050312004+42967-079333FM-12+0178CTWL V0200901N001519999999N9999999N1+01141+00701101491ADDAA106000091AA224000391KA1240M+02181KA2120N+00631MA1999999099361MD1110171+9999REMSYN088AAXX  03124 71752 16/// /0903 10114 20070 39936 40149 51017 60001 333 10218 20063 70003;EQDQ01  00002PRCP06
0196717520999992006050312004+42967-079333FM-12+0178CTWL V0200901N001519999999N9999999N1+01141+00701101491ADDAA106000091AA224000391KA1240M+02181KA2120N+00631MA1999999099361MD1110171+9999REMSYN088AAXX  03124 71752 16/// /0903 10114 20070 39936 40149 51017 60001 333 10218 20063 70003;EQDQ01  00002PRCP06
0196717520999992006050312004+42967-079333FM-12+0178CTWL V0200901N001519999999N9999999N1+01141+00701101491ADDAA106000091AA224000391KA1240M+02181KA2120N+00631MA1999999099361MD1110171+9999REMSYN088AAXX  03124 71752 16/// /0903 10114 20070 39936 40149 51017 60001 333 10218 20063 70003;EQDQ01  00002PRCP06
0196717520999992006050312004+42967-079333FM-12+0178CTWL V0200901N001519999999N9999999N1+01141+00701101491ADDAA106000091AA224000391KA1240M+02181KA2120N+00631MA1999999099361MD1110171+9999REMSYN088AAXX  03124 71752 16/// /0903 10114 20070 39936 40149 51017 60001 333 10218 20063 70003;EQDQ01  00002PRCP06
0196717520999992006050312004+42967-079333FM-12+0178CTWL V0200901N001519999999N9999999N1+01141+00701101491ADDAA106000091AA224000391KA1240M+02181KA2120N+00631MA1999999099361MD1110171+9999REMSYN088AAXX  03124 71752 16/// /0903 10114 20070 39936 40149 51017 60001 333 10218 20063 70003;EQDQ01  00002PRCP06
0196717520999992006050312004+42967-079333FM-12+0178CTWL V0200901N001519999999N9999999N1+01141+00701101491ADDAA106000091AA224000391KA1240M+02181KA2120N+00631MA1999999099361MD1110171+9999REMSYN088AAXX  03124 71752 16/// /0903 10114 20070 39936 40149 51017 60001 333 10218 20063 70003;EQDQ01  00002PRCP06
0196717520999992006050312004+42967-079333FM-12+0178CTWL V0200901N001519999999N9999999N1+01141+00701101491ADDAA106000091AA224000391KA1240M+02181KA2120N+00631MA1999999099361MD1110171+9999REMSYN088AAXX  03124 71752 16/// /0903 10114 20070 39936 40149 51017 60001 333 10218 20063 70003;EQDQ01  00002PRCP06
0196717520999992006050312004+42967-079333FM-12+0178CTWL V0200901N001519999999N9999999N1+01141+00701101491ADDAA106000091AA224000391KA1240M+02181KA2120N+00631MA1999999099361MD1110171+9999REMSYN088AAXX  03124 71752 16/// /0903 10114 20070 39936 40149 51017 60001 333 10218 20063 70003;EQDQ01  00002PRCP06
0196717520999992006050312004+42967-079333FM-12+0178CTWL V0200901N001519999999N9999999N1+01141+00701101491ADDAA106000091AA224000391KA1240M+02181KA2120N+00631MA1999999099361MD1110171+9999REMSYN088AAXX  03124 71752 16/// /0903 10114 20070 39936 40149 51017 60001 333 10218 20063 70003;EQDQ01  00002PRCP06
0196717520999992006050312004+42967-079333FM-12+0178CTWL V0200901N001519999999N9999999N1+01141+00701101491ADDAA106000091AA224000391KA1240M+02181KA2120N+00631MA1999999099361MD1110171+9999REMSYN088AAXX  03124 71752 16/// /0903 10114 20070 39936 40149 51017 60001 333 10218 20063 70003;EQDQ01  00002PRCP06
0196717520999992006050312004+42967-079333FM-12+0178CTWL V0200901N001519999999N9999999N1+01141+00701101491ADDAA106000091AA224000391KA1240M+02181KA2120N+00631MA1999999099361MD1110171+9999REMSYN088AAXX  03124 71752 16/// /0903 10114 20070 39936 40149 51017 60001 333 10218 20063 70003;EQDQ01  00002PRCP06
0196717520999992006050312004+42967-079333FM-12+0178CTWL V0200901N001519999999N9999999N1+01141+00701101491ADDAA106000091AA224000391KA1240M+02181KA2120N+00631MA1999999099361MD1110171+9999REMSYN088AAXX  03124 71752 16/// /0903 10114 20070 39936 40149 51017 60001 333 10218 20063 70003;EQDQ01  00002PRCP06
0196717520999992006050312004+42967-079333FM-12+0178CTWL V0200901N001519999999N9999999N1+01141+00701101491ADDAA106000091AA224000391KA1240M+02181KA2120N+00631MA1999999099361MD1110171+9999REMSYN088AAXX  03124 71752 16/// /0903 10114 20070 39936 40149 51017 60001 333 10218 20063 70003;EQDQ01  00002PRCP06
0196717520999992006050312004+42967-079333FM-12+0178CTWL V0200901N001519999999N9999999N1+01141+00701101491ADDAA106000091AA224000391KA1240M+02181KA2120N+00631MA1999999099361MD1110171+9999REMSYN088AAXX  03124 71752 16/// /0903 10114 20070 39936 40149 51017 60001 333 10218 20063 70003;EQDQ01  00002PRCP06
0196717520999992006050312004+42967-079333FM-12+0178CTWL V0200901N001519999999N9999999N1+01141+00701101491ADDAA106000091AA224000391KA1240M+02181KA2120N+00631MA1999999099361MD1110171+9999REMSYN088AAXX  03124 71752 16/// /0903 10114 20070 39936 40149 51017 60001 333 10218 20063 70003;EQDQ01  00002PRCP06
0196717520999992006050312004+42967-079333FM-12+0178CTWL V0200901N001519999999N9999999N1+01141+00701101491ADDAA106000091AA224000391KA1240M+02181KA2120N+00631MA1999999099361MD1110171+9999REMSYN088AAXX  03124 71752 16/// /0903 10114 20070 39936 40149 51017 60001 333 10218 20063 70003;EQDQ01  00002PRCP06
0196717520999992006050312004+42967-079333FM-12+0178CTWL V0200901N001519999999N9999999N1+01141+00701101491ADDAA106000091AA224000391KA1240M+02181KA2120N+00631MA1999999099361MD1110171+9999REMSYN088AAXX  03124 71752 16/// /0903 10114 20070 39936 40149 51017 60001 333 10218 20063 70003;EQDQ01  00002PRCP06
0196717520999992006050312004+42967-079333FM-12+0178CTWL V0200901N001519999999N9999999N1+01141+00701101491ADDAA106000091AA224000391KA1240M+02181KA2120N+00631MA1999999099361MD1110171+9999REMSYN088AAXX  03124 71752 16/// /0903 10114 20070 39936 40149 51017 60001 333 10218 20063 70003;EQDQ01  00002PRCP06
0196717520999992006050312004+42967-079333FM-12+0178CTWL V0200901N001519999999N9999999N1+01141+00701101491ADDAA106000091AA224000391KA1240M+02181KA2120N+00631MA1999999099361MD1110171+9999REMSYN088AAXX  03124 71752 16/// /0903 10114 20070 39936 40149 51017 60001 333 10218 20063 70003;EQDQ01  00002PRCP06
0196717520999992006050312004+42967-079333FM-12+0178CTWL V0200901N001519999999N9999999N1+01141+00701101491ADDAA106000091AA224000391KA1240M+02181KA2120N+00631MA1999999099361MD1110171+9999REMSYN088AAXX  03124 71752 16/// /0903 10114 20070 39936 40149 51017 60001 333 10218 20063 70003;EQDQ01  00002PRCP06
0196717520999992006050312004+42967-079333FM-12+0178CTWL V0200901N001519999999N9999999N1+01141+00701101491ADDAA106000091AA224000391KA1240M+02181KA2120N+00631MA1999999099361MD1110171+9999REMSYN088AAXX  03124 71752 16/// /0903 10114 20070 39936 40149 51017 60001 333 10218 20063 70003;EQDQ01  00002PRCP06
0196717520999992006050312004+42967-079333FM-12+0178CTWL V0200901N001519999999N9999999N1+01141+00701101491ADDAA106000091AA224000391KA1240M+02181KA2120N+00631MA1999999099361MD1110171+9999REMSYN088AAXX  03124 71752 16/// /0903 10114 20070 39936 40149 51017 60001 333 10218 20063 70003;EQDQ01  00002PRCP06
0196717520999992006050312004+42967-079333FM-12+0178CTWL V0200901N001519999999N9999999N1+01141+00701101491ADDAA106000091AA224000391KA1240M+02181KA2120N+00631MA1999999099361MD1110171+9999REMSYN088AAXX  03124 71752 16/// /0903 10114 20070 39936 40149 51017 60001 333 10218 20063 70003;EQDQ01  00002PRCP06
0196717520999992006050312004+42967-079333FM-12+0178CTWL V0200901N001519999999N9999999N1+01141+00701101491ADDAA106000091AA224000391KA1240M+02181KA2120N+00631MA1999999099361MD1110171+9999REMSYN088AAXX  03124 71752 16/// /0903 10114 20070 39936 40149 51017 60001 333 10218 20063 70003;EQDQ01  00002PRCP06
0196717520999992006050312004+42967-079333FM-12+0178CTWL V0200901N001519999999N9999999N1+01141+00701101491ADDAA106000091AA224000391KA1240M+02181KA2120N+00631MA1999999099361MD1110171+9999REMSYN088AAXX  03124 71752 16/// /0903 10114 20070 39936 40149 51017 60001 333 10218 20063 70003;EQDQ01  00002PRCP06
0196717520999992006050312004+42967-079333FM-12+0178CTWL V0200901N001519999999N9999999N1+01141+00701101491ADDAA106000091AA224000391KA1240M+02181KA2120N+00631MA1999999099361MD1110171+9999REMSYN088AAXX  03124 71752 16/// /0903 10114 20070 39936 40149 51017 60001 333 10218 20063 70003;EQDQ01  00002PRCP06
0196717520999992006050312004+42967-079333FM-12+0178CTWL V0200901N001519999999N9999999N1+01141+00701101491ADDAA106000091AA224000391KA1240M+02181KA2120N+00631MA1999999099361MD1110171+9999REMSYN088AAXX  03124 71752 16/// /0903 10114 20070 39936 40149 51017 60001 333 10218 20063 70003;EQDQ01  00002PRCP06
0196717520999992006050312004+42967-079333FM-12+0178CTWL V0200901N001519999999N9999999N1+01141+00701101491ADDAA106000091AA224000391KA1240M+02181KA2120N+00631MA1999999099361MD1110171+9999REMSYN088AAXX  03124 71752 16/// /0903 10114 20070 39936 40149 51017 60001 333 10218 20063 70003;EQDQ01  00002PRCP06
0196717520999992006050312004+42967-079333FM-12+0178CTWL V0200901N001519999999N9999999N1+01141+00701101491ADDAA106000091AA224000391KA1240M+02181KA2120N+00631MA1999999099361MD1110171+9999REMSYN088AAXX  03124 71752 16/// /0903 10114 20070 39936 40149 51017 60001 333 10218 20063 70003;EQDQ01  00002PRCP06
0196717520999992006050312004+42967-079333FM-12+0178CTWL V0200901N001519999999N9999999N1+01141+00701101491ADDAA106000091AA224000391KA1240M+02181KA2120N+00631MA1999999099361MD1110171+9999REMSYN088AAXX  03124 71752 16/// /0903 10114 20070 39936 40149 51017 60001 333 10218 20063 70003;EQDQ01  00002PRCP06
0196717520999992006050312004+42967-079333FM-12+0178CTWL V0200901N001519999999N9999999N1+01141+00701101491ADDAA106000091AA224000391KA1240M+02181KA2120N+00631MA1999999099361MD1110171+9999REMSYN088AAXX  03124 71752 16/// /0903 10114 20070 39936 40149 51017 60001 333 10218 20063 70003;EQDQ01  00002PRCP06
0196717520999992006050312004+42967-079333FM-12+0178CTWL V0200901N001519999999N9999999N1+01141+00701101491ADDAA106000091AA224000391KA1240M+02181KA2120N+00631MA1999999099361MD1110171+9999REMSYN088AAXX  03124 71752 16/// /0903 10114 20070 39936 40149 51017 60001 333 10218 20063 70003;EQDQ01  00002PRCP06
0196717520999992006050312004+42967-079333FM-12+0178CTWL V0200901N001519999999N9999999N1+01141+00701101491ADDAA106000091AA224000391KA1240M+02181KA2120N+00631MA1999999099361MD1110171+9999REMSYN088AAXX  03124 71752 16/// /0903 10114 20070 39936 40149 51017 60001 333 10218 20063 70003;EQDQ01  00002PRCP06
0196717520999992006050312004+42967-079333FM-12+0178CTWL V0200901N001519999999N9999999N1+01141+00701101491ADDAA106000091AA224000391KA1240M+02181KA2120N+00631MA1999999099361MD1110171+9999REMSYN088AAXX  03124 71752 16/// /0903 10114 20070 39936 40149 51017 60001 333 10218 20063 70003;EQDQ01  00002PRCP06
0196717520999992006050312004+42967-079333FM-12+0178CTWL V0200901N001519999999N9999999N1+01141+00701101491ADDAA106000091AA224000391KA1240M+02181KA2120N+00631MA1999999099361MD1110171+9999REMSYN088AAXX  03124 71752 16/// /0903 10114 20070 39936 40149 51017 60001 333 10218 20063 70003;EQDQ01  00002PRCP06
0196717520999992006050312004+42967-079333FM-12+0178CTWL V0200901N001519999999N9999999N1+01141+00701101491ADDAA106000091AA224000391KA1240M+02181KA2120N+00631MA1999999099361MD1110171+9999REMSYN088AAXX  03124 71752 16/// /0903 10114 20070 39936 40149 51017 60001 333 10218 20063 70003;EQDQ01  00002PRCP06
0196717520999992006050312004+42967-079333FM-12+0178CTWL V0200901N001519999999N9999999N1+01141+00701101491ADDAA106000091AA224000391KA1240M+02181KA2120N+00631MA1999999099361MD1110171+9999REMSYN088AAXX  03124 71752 16/// /0903 10114 20070 39936 40149 51017 60001 333 10218 20063 70003;EQDQ01  00002PRCP06
0196717520999992006050312004+42967-079333FM-12+0178CTWL V0200901N001519999999N9999999N1+01141+00701101491ADDAA106000091AA224000391KA1240M+02181KA2120N+00631MA1999999099361MD1110171+9999REMSYN088AAXX  03124 71752 16/// /0903 10114 20070 39936 40149 51017 60001 333 10218 20063 70003;EQDQ01  00002PRCP06
0196717520999992006050312004+42967-079333FM-12+0178CTWL V0200901N001519999999N9999999N1+01141+00701101491ADDAA106000091AA224000391KA1240M+02181KA2120N+00631MA1999999099361MD1110171+9999REMSYN088AAXX  03124 71752 16/// /0903 10114 20070 39936 40149 51017 60001 333 10218 20063 70003;EQDQ01  00002PRCP06
0196717520999992006050312004+42967-079333FM-12+0178CTWL V0200901N001519999999N9999999N1+01141+00701101491ADDAA106000091AA224000391KA1240M+02181KA2120N+00631MA1999999099361MD1110171+9999REMSYN088AAXX  03124 71752 16/// /0903 10114 20070 39936 40149 51017 60001 333 10218 20063 70003;EQDQ01  00002PRCP06
0196717520999992006050312004+42967-079333FM-12+0178CTWL V0200901N001519999999N9999999N1+01141+00701101491ADDAA106000091AA224000391KA1240M+02181KA2120N+00631MA1999999099361MD1110171+9999REMSYN088AAXX  03124 71752 16/// /0903 10114 20070 39936 40149 51017 60001 333 10218 20063 70003;EQDQ01  00002PRCP06
0196717520999992006050312004+42967-079333FM-12+0178CTWL V0200901N001519999999N9999999N1+01141+00701101491ADDAA106000091AA224000391KA1240M+02181KA2120N+00631MA1999999099361MD1110171+9999REMSYN088AAXX  03124 71752 16/// /0903 10114 20070 39936 40149 51017 60001 333 10218 20063 70003;EQDQ01  00002PRCP06
0196717520999992006050312004+42967-079333FM-12+0178CTWL V0200901N001519999999N9999999N1+01141+00701101491ADDAA106000091AA224000391KA1240M+02181KA2120N+00631MA1999999099361MD1110171+9999REMSYN088AAXX  03124 71752 16/// /0903 10114 20070 39936 40149 51017 60001 333 10218 20063 70003;EQDQ01  00002PRCP06
0196717520999992006050312004+42967-079333FM-12+0178CTWL V0200901N001519999999N9999999N1+01141+00701101491ADDAA106000091AA224000391KA1240M+02181KA2120N+00631MA1999999099361MD1110171+9999REMSYN088AAXX  03124 71752 16/// /0903 10114 20070 39936 40149 51017 60001 333 10218 20063 70003;EQDQ01  00002PRCP06
0196717520999992006050312004+42967-079333FM-12+0178CTWL V0200901N001519999999N9999999N1+01141+00701101491ADDAA106000091AA224000391KA1240M+02181KA2120N+00631MA1999999099361MD1110171+9999REMSYN088AAXX  03124 71752 16/// /0903 10114 20070 39936 40149 51017 60001 333 10218 20063 70003;EQDQ01  00002PRCP06
0196717520999992006050312004+42967-079333FM-12+0178CTWL V0200901N001519999999N9999999N1+01141+00701101491ADDAA106000091AA224000391KA1240M+02181KA2120N+00631MA1999999099361MD1110171+9999REMSYN088AAXX  03124 71752 16/// /0903 10114 20070 39936 40149 51017 60001 333 10218 20063 70003;EQDQ01  00002PRCP06
0196717520999992006050312004+42967-079333FM-12+0178CTWL V0200901N001519999999N9999999N1+01141+00701101491ADDAA106000091AA224000391KA1240M+02181KA2120N+00631MA1999999099361MD1110171+9999REMSYN088AAXX  03124 71752 16/// /0903 10114 20070 39936 40149 51017 60001 333 10218 20063 70003;EQDQ01  00002PRCP06
0196717520999992006050312004+42967-079333FM-12+0178CTWL V0200901N001519999999N9999999N1+01141+00701101491ADDAA106000091AA224000391KA1240M+02181KA2120N+00631MA1999999099361MD1110171+9999REMSYN088AAXX  03124 71752 16/// /0903 10114 20070 39936 40149 51017 60001 333 10218 20063 70003;EQDQ01  00002PRCP06
0196717520999992006050312004+42967-079333FM-12+0178CTWL V0200901N001519999999N9999999N1+01141+00701101491ADDAA106000091AA224000391KA1240M+02181KA2120N+00631MA1999999099361MD1110171+9999REMSYN088AAXX  03124 71752 16/// /0903 10114 20070 39936 40149 51017 60001 333 10218 20063 70003;EQDQ01  00002PRCP06
0196717520999992006050312004+42967-079333FM-12+0178CTWL V0200901N001519999999N9999999N1+01141+00701101491ADDAA106000091AA224000391KA1240M+02181KA2120N+00631MA1999999099361MD1110171+9999REMSYN088AAXX  03124 71752 16/// /0903 10114 20070 39936 40149 51017 60001 333 10218 20063 70003;EQDQ01  00002PRCP06
0196717520999992006050312004+42967-079333FM-12+0178CTWL V0200901N001519999999N9999999N1+01141+00701101491ADDAA106000091AA224000391KA1240M+02181KA2120N+00631MA1999999099361MD1110171+9999REMSYN088AAXX  03124 71752 16/// /0903 10114 20070 39936 40149 51017 60001 333 10218 20063 70003;EQDQ01  00002PRCP06
0196717520999992006050312004+42967-079333FM-12+0178CTWL V0200901N001519999999N9999999N1+01141+00701101491ADDAA106000091AA224000391KA1240M+02181KA2120N+00631MA1999999099361MD1110171+9999REMSYN088AAXX  03124 71752 16/// /0903 10114 20070 39936 40149 51017 60001 333 10218 20063 70003;EQDQ01  00002PRCP06
0196717520999992006050312004+42967-079333FM-12+0178CTWL V0200901N001519999999N9999999N1+01141+00701101491ADDAA106000091AA224000391KA1240M+02181KA2120N+00631MA1999999099361MD1110171+9999REMSYN088AAXX  03124 71752 16/// /0903 10114 20070 39936 40149 51017 60001 333 10218 20063 70003;EQDQ01  00002PRCP06
0196717520999992006050312004+42967-079333FM-12+0178CTWL V0200901N001519999999N9999999N1+01141+00701101491ADDAA106000091AA224000391KA1240M+02181KA2120N+00631MA1999999099361MD1110171+9999REMSYN088AAXX  03124 71752 16/// /0903 10114 20070 39936 40149 51017 60001 333 10218 20063 70003;EQDQ01  00002PRCP06
0196717520999992006050312004+42967-079333FM-12+0178CTWL V0200901N001519999999N9999999N1+01141+00701101491ADDAA106000091AA224000391KA1240M+02181KA2120N+00631MA1999999099361MD1110171+9999REMSYN088AAXX  03124 71752 16/// /0903 10114 20070 39936 40149 51017 60001 333 10218 20063 70003;EQDQ01  00002PRCP06
0196717520999992006050312004+42967-079333FM-12+0178CTWL V0200901N001519999999N9999999N1+01141+00701101491ADDAA106000091AA224000391KA1240M+02181KA2120N+00631MA1999999099361MD1110171+9999REMSYN088AAXX  03124 71752 16/// /0903 10114 20070 39936 40149 51017 60001 333 10218 20063 70003;EQDQ01  00002PRCP06
0196717520999992006050312004+42967-079333FM-12+0178CTWL V0200901N001519999999N9999999N1+01141+00701101491ADDAA106000091AA224000391KA1240M+02181KA2120N+00631MA1999999099361MD1110171+9999REMSYN088AAXX  03124 71752 16/// /0903 10114 20070 39936 40149 51017 60001 333 10218 20063 70003;EQDQ01  00002PRCP06
0196717520999992006050312004+42967-079333FM-12+0178CTWL V0200901N001519999999N9999999N1+01141+00701101491ADDAA106000091AA224000391KA1240M+02181KA2120N+00631MA1999999099361MD1110171+9999REMSYN088AAXX  03124 71752 16/// /0903 10114 20070 39936 40149 51017 60001 333 10218 20063 70003;EQDQ01  00002PRCP06
0196717520999992006050312004+42967-079333FM-12+0178CTWL V0200901N001519999999N9999999N1+01141+00701101491ADDAA106000091AA224000391KA1240M+02181KA2120N+00631MA1999999099361MD1110171+9999REMSYN088AAXX  03124 71752 16/// /0903 10114 20070 39936 40149 51017 60001 333 10218 20063 70003;EQDQ01  00002PRCP06
0196717520999992006050312004+42967-079333FM-12+0178CTWL V0200901N001519999999N9999999N1+01141+00701101491ADDAA106000091AA224000391KA1240M+02181KA2120N+00631MA1999999099361MD1110171+9999REMSYN088AAXX  03124 71752 16/// /0903 10114 20070 39936 40149 51017 60001 333 10218 20063 70003;EQDQ01  00002PRCP06
0196717520999992006050312004+42967-079333FM-12+0178CTWL V0200901N001519999999N9999999N1+01141+00701101491ADDAA106000091AA224000391KA1240M+02181KA2120N+00631MA1999999099361MD1110171+9999REMSYN088AAXX  03124 71752 16/// /0903 10114 20070 39936 40149 51017 60001 333 10218 20063 70003;EQDQ01  00002PRCP06
0196717520999992006050312004+42967-079333FM-12+0178CTWL V0200901N001519999999N9999999N1+01141+00701101491ADDAA106000091AA224000391KA1240M+02181KA2120N+00631MA1999999099361MD1110171+9999REMSYN088AAXX  03124 71752 16/// /0903 10114 20070 39936 40149 51017 60001 333 10218 20063 70003;EQDQ01  00002PRCP06
0196717520999992006050312004+42967-079333FM-12+0178CTWL V0200901N001519999999N9999999N1+01141+00701101491ADDAA106000091AA224000391KA1240M+02181KA2120N+00631MA1999999099361MD1110171+9999REMSYN088AAXX  03124 71752 16/// /0903 10114 20070 39936 40149 51017 60001 333 10218 20063 70003;EQDQ01  00002PRCP06
0196717520999992006050312004+42967-079333FM-12+0178CTWL V0200901N001519999999N9999999N1+01141+00701101491ADDAA106000091AA224000391KA1240M+02181KA2120N+00631MA1999999099361MD1110171+9999REMSYN088AAXX  03124 71752 16/// /0903 10114 20070 39936 40149 51017 60001 333 10218 20063 70003;EQDQ01  00002PRCP06
0196717520999992006050312004+42967-079333FM-12+0178CTWL V0200901N001519999999N9999999N1+01141+00701101491ADDAA106000091AA224000391KA1240M+02181KA2120N+00631MA1999999099361MD1110171+9999REMSYN088AAXX  03124 71752 16/// /0903 10114 20070 39936 40149 51017 60001 333 10218 20063 70003;EQDQ01  00002PRCP06
0196717520999992006050312004+42967-079333FM-12+0178CTWL V0200901N001519999999N9999999N1+01141+00701101491ADDAA106000091AA224000391KA1240M+02181KA2120N+00631MA1999999099361MD1110171+9999REMSYN088AAXX  03124 71752 16/// /0903 10114 20070 39936 40149 51017 60001 333 10218 20063 70003;EQDQ01  00002PRCP06
0196717520999992006050312004+42967-079333FM-12+0178CTWL V0200901N001519999999N9999999N1+01141+00701101491ADDAA106000091AA224000391KA1240M+02181KA2120N+00631MA1999999099361MD1110171+9999REMSYN088AAXX  03124 71752 16/// /0903 10114 20070 39936 40149 51017 60001 333 10218 20063 70003;EQDQ01  00002PRCP06
0196717520999992006050312004+42967-079333FM-12+0178CTWL V0200901N001519999999N9999999N1+01141+00701101491ADDAA106000091AA224000391KA1240M+02181KA2120N+00631MA1999999099361MD1110171+9999REMSYN088AAXX  03124 71752 16/// /0903 10114 20070 39936 40149 51017 60001 333 10218 20063 70003;EQDQ01  00002PRCP06
0196717520999992006050312004+42967-079333FM-12+0178CTWL V0200901N001519999999N9999999N1+01141+00701101491ADDAA106000091AA224000391KA1240M+02181KA2120N+00631MA1999999099361MD1110171+9999REMSYN088AAXX  03124 71752 16/// /0903 10114 20070 39936 40149 51017 60001 333 10218 20063 70003;EQDQ01  00002PRCP06
0196717520999992006050312004+42967-079333FM-12+0178CTWL V0200901N001519999999N9999999N1+01141+00701101491ADDAA106000091AA224000391KA1240M+02181KA2120N+00631MA1999999099361MD1110171+9999REMSYN088AAXX  03124 71752 16/// /0903 10114 20070 39936 40149 51017 60001 333 10218 20063 70003;EQDQ01  00002PRCP06
0196717520999992006050312004+42967-079333FM-12+0178CTWL V0200901N001519999999N9999999N1+01141+00701101491ADDAA106000091AA224000391KA1240M+02181KA2120N+00631MA1999999099361MD1110171+9999REMSYN088AAXX  03124 71752 16/// /0903 10114 20070 39936 40149 51017 60001 333 10218 20063 70003;EQDQ01  00002PRCP06
0196717520999992006050312004+42967-079333FM-12+0178CTWL V0200901N001519999999N9999999N1+01141+00701101491ADDAA106000091AA224000391KA1240M+02181KA2120N+00631MA1999999099361MD1110171+9999REMSYN088AAXX  03124 71752 16/// /0903 10114 20070 39936 40149 51017 60001 333 10218 20063 70003;EQDQ01  00002PRCP06
0196717520999992006050312004+42967-079333FM-12+0178CTWL V0200901N001519999999N9999999N1+01141+00701101491ADDAA106000091AA224000391KA1240M+02181KA2120N+00631MA1999999099361MD1110171+9999REMSYN088AAXX  03124 71752 16/// /0903 10114 20070 39936 40149 51017 60001 333 10218 20063 70003;EQDQ01  00002PRCP06
0196717520999992006050312004+42967-079333FM-12+0178CTWL V0200901N001519999999N9999999N1+01141+00701101491ADDAA106000091AA224000391KA1240M+02181KA2120N+00631MA1999999099361MD1110171+9999REMSYN088AAXX  03124 71752 16/// /0903 10114 20070 39936 40149 51017 60001 333 10218 20063 70003;EQDQ01  00002PRCP06
0196717520999992006050312004+42967-079333FM-12+0178CTWL V0200901N001519999999N9999999N1+01141+00701101491ADDAA106000091AA224000391KA1240M+02181KA2120N+00631MA1999999099361MD1110171+9999REMSYN088AAXX  03124 71752 16/// /0903 10114 20070 39936 40149 51017 60001 333 10218 20063 70003;EQDQ01  00002PRCP06
0196717520999992006050312004+42967-079333FM-12+0178CTWL V0200901N001519999999N9999999N1+01141+00701101491ADDAA106000091AA224000391KA1240M+02181KA2120N+00631MA1999999099361MD1110171+9999REMSYN088AAXX  03124 71752 16/// /0903 10114 20070 39936 40149 51017 60001 333 10218 20063 70003;EQDQ01  00002PRCP06
0196717520999992006050312004+42967-079333FM-12+0178CTWL V0200901N001519999999N9999999N1+01141+00701101491ADDAA106000091AA224000391KA1240M+02181KA2120N+00631MA1999999099361MD1110171+9999REMSYN088AAXX  03124 71752 16/// /0903 10114 20070 39936 40149 51017 60001 333 10218 20063 70003;EQDQ01  00002PRCP06
0196717520999992006050312004+42967-079333FM-12+0178CTWL V0200901N001519999999N9999999N1+01141+00701101491ADDAA106000091AA224000391KA1240M+02181KA2120N+00631MA1999999099361MD1110171+9999REMSYN088AAXX  03124 71752 16/// /0903 10114 20070 39936 40149 51017 60001 333 10218 20063 70003;EQDQ01  00002PRCP06
0196717520999992006050312004+42967-079333FM-12+0178CTWL V0200901N001519999999N9999999N1+01141+00701101491ADDAA106000091AA224000391KA1240M+02181KA2120N+00631MA1999999099361MD1110171+9999REMSYN088AAXX  03124 71752 16/// /0903 10114 20070 39936 40149 51017 60001 333 10218 20063 70003;EQDQ01  00002PRCP06
0196717520999992006050312004+42967-079333FM-12+0178CTWL V0200901N001519999999N9999999N1+01141+00701101491ADDAA106000091AA224000391KA1240M+02181KA2120N+00631MA1999999099361MD1110171+9999REMSYN088AAXX  03124 71752 16/// /0903 10114 20070 39936 40149 51017 60001 333 10218 20063 70003;EQDQ01  00002PRCP06
0196717520999992006050312004+42967-079333FM-12+0178CTWL V0200901N001519999999N9999999N1+01141+00701101491ADDAA106000091AA224000391KA1240M+02181KA2120N+00631MA1999999099361MD1110171+9999REMSYN088AAXX  03124 71752 16/// /0903 10114 20070 39936 40149 51017 60001 333 10218 20063 70003;EQDQ01  00002PRCP06
0196717520999992006050312004+42967-079333FM-12+0178CTWL V0200901N001519999999N9999999N1+01141+00701101491ADDAA106000091AA224000391KA1240M+02181KA2120N+00631MA1999999099361MD1110171+9999REMSYN088AAXX  03124 71752 16/// /0903 10114 20070 39936 40149 51017 60001 333 10218 20063 70003;EQDQ01  00002PRCP06
0196717520999992006050312004+42967-079333FM-12+0178CTWL V0200901N001519999999N9999999N1+01141+00701101491ADDAA106000091AA224000391KA1240M+02181KA2120N+00631MA1999999099361MD1110171+9999REMSYN088AAXX  03124 71752 16/// /0903 10114 20070 39936 40149 51017 60001 333 10218 20063 70003;EQDQ01  00002PRCP06
0196717520999992006050312004+42967-079333FM-12+0178CTWL V0200901N001519999999N9999999N1+01141+00701101491ADDAA106000091AA224000391KA1240M+02181KA2120N+00631MA1999999099361MD1110171+9999REMSYN088AAXX  03124 71752 16/// /0903 10114 20070 39936 40149 51017 60001 333 10218 20063 70003;EQDQ01  00002PRCP06
0196717520999992006050312004+42967-079333FM-12+0178CTWL V0200901N001519999999N9999999N1+01141+00701101491ADDAA106000091AA224000391KA1240M+02181KA2120N+00631MA1999999099361MD1110171+9999REMSYN088AAXX  03124 71752 16/// /0903 10114 20070 39936 40149 51017 60001 333 10218 20063 70003;EQDQ01  00002PRCP06
0196717520999992006050312004+42967-079333FM-12+0178CTWL V0200901N001519999999N9999999N1+01141+00701101491ADDAA106000091AA224000391KA1240M+02181KA2120N+00631MA1999999099361MD1110171+9999REMSYN088AAXX  03124 71752 16/// /0903 10114 20070 39936 40149 51017 60001 333 10218 20063 70003;EQDQ01  00002PRCP06
0196717520999992006050312004+42967-079333FM-12+0178CTWL V0200901N001519999999N9999999N1+01141+00701101491ADDAA106000091AA224000391KA1240M+02181KA2120N+00631MA1999999099361MD1110171+9999REMSYN088AAXX  03124 71752 16/// /0903 10114 20070 39936 40149 51017 60001 333 10218 20063 70003;EQDQ01  00002PRCP06
0196717520999992006050312004+42967-079333FM-12+0178CTWL V0200901N001519999999N9999999N1+01141+00701101491ADDAA106000091AA224000391KA1240M+02181KA2120N+00631MA1999999099361MD1110171+9999REMSYN088AAXX  03124 71752 16/// /0903 10114 20070 39936 40149 51017 60001 333 10218 20063 70003;EQDQ01  00002PRCP06
0196717520999992006050312004+42967-079333FM-12+0178CTWL V0200901N001519999999N9999999N1+01141+00701101491ADDAA106000091AA224000391KA1240M+02181KA2120N+00631MA1999999099361MD1110171+9999REMSYN088AAXX  03124 71752 16/// /0903 10114 20070 39936 40149 51017 60001 333 10218 20063 70003;EQDQ01  00002PRCP06
0196717520999992006050312004+42967-079333FM-12+0178CTWL V0200901N001519999999N9999999N1+01141+00701101491ADDAA106000091AA224000391KA1240M+02181KA2120N+00631MA1999999099361MD1110171+9999REMSYN088AAXX  03124 71752 16/// /0903 10114 20070 39936 40149 51017 60001 333 10218 20063 70003;EQDQ01  00002PRCP06
0196717520999992006050312004+42967-079333FM-12+0178CTWL V0200901N001519999999N9999999N1+01141+00701101491ADDAA106000091AA224000391KA1240M+02181KA2120N+00631MA1999999099361MD1110171+9999REMSYN088AAXX  03124 71752 16/// /0903 10114 20070 39936 40149 51017 60001 333 10218 20063 70003;EQDQ01  00002PRCP06
0196717520999992006050312004+42967-079333FM-12+0178CTWL V0200901N001519999999N9999999N1+01141+00701101491ADDAA106000091AA224000391KA1240M+02181KA2120N+00631MA1999999099361MD1110171+9999REMSYN088AAXX  03124 71752 16/// /0903 10114 20070 39936 40149 51017 60001 333 10218 20063 70003;EQDQ01  00002PRCP06
0196717520999992006050312004+42967-079333FM-12+0178CTWL V0200901N001519999999N9999999N1+01141+00701101491ADDAA106000091AA224000391KA1240M+02181KA2120N+00631MA1999999099361MD1110171+9999REMSYN088AAXX  03124 71752 16/// /0903 10114 20070 39936 40149 51017 60001 333 10218 20063 70003;EQDQ01  00002PRCP06
0196717520999992006050312004+42967-079333FM-12+0178CTWL V0200901N001519999999N9999999N1+01141+00701101491ADDAA106000091AA224000391KA1240M+02181KA2120N+00631MA1999999099361MD1110171+9999REMSYN088AAXX  03124 71752 16/// /0903 10114 20070 39936 40149 51017 60001 333 10218 20063 70003;EQDQ01  00002PRCP06
0196717520999992006050312004+42967-079333FM-12+0178CTWL V0200901N001519999999N9999999N1+01141+00701101491ADDAA106000091AA224000391KA1240M+02181KA2120N+00631MA1999999099361MD1110171+9999REMSYN088AAXX  03124 71752 16/// /0903 10114 20070 39936 40149 51017 60001 333 10218 20063 70003;EQDQ01  00002PRCP06
0196717520999992006050312004+42967-079333FM-12+0178CTWL V0200901N001519999999N9999999N1+01141+00701101491ADDAA106000091AA224000391KA1240M+02181KA2120N+00631MA1999999099361MD1110171+9999REMSYN088AAXX  03124 71752 16/// /0903 10114 20070 39936 40149 51017 60001 333 10218 20063 70003;EQDQ01  00002PRCP06
0196717520999992006050312004+42967-079333FM-12+0178CTWL V0200901N001519999999N9999999N1+01141+00701101491ADDAA106000091AA224000391KA1240M+02181KA2120N+00631MA1999999099361MD1110171+9999REMSYN088AAXX  03124 71752 16/// /0903 10114 20070 39936 40149 51017 60001 333 10218 20063 70003;EQDQ01  00002PRCP06
0196717520999992006050312004+42967-079333FM-12+0178CTWL V0200901N001519999999N9999999N1+01141+00701101491ADDAA106000091AA224000391KA1240M+02181KA2120N+00631MA1999999099361MD1110171+9999REMSYN088AAXX  03124 71752 16/// /0903 10114 20070 39936 40149 51017 60001 333 10218 20063 70003;EQDQ01  00002PRCP06
0196717520999992006050312004+42967-079333FM-12+0178CTWL V0200901N001519999999N9999999N1+01141+00701101491ADDAA106000091AA224000391KA1240M+02181KA2120N+00631MA1999999099361MD1110171+9999REMSYN088AAXX  03124 71752 16/// /0903 10114 20070 39936 40149 51017 60001 333 10218 20063 70003;EQDQ01  00002PRCP06
0196717520999992006050312004+42967-079333FM-12+0178CTWL V0200901N001519999999N9999999N1+01141+00701101491ADDAA106000091AA224000391KA1240M+02181KA2120N+00631MA1999999099361MD1110171+9999REMSYN088AAXX  03124 71752 16/// /0903 10114 20070 39936 40149 51017 60001 333 10218 20063 70003;EQDQ01  00002PRCP06
0196717520999992006050312004+42967-079333FM-12+0178CTWL V0200901N001519999999N9999999N1+01141+00701101491ADDAA106000091AA224000391KA1240M+02181KA2120N+00631MA1999999099361MD1110171+9999REMSYN088AAXX  03124 71752 16/// /0903 10114 20070 39936 40149 51017 60001 333 10218 20063 70003;EQDQ01  00002PRCP06
0196717520999992006050312004+42967-079333FM-12+0178CTWL V0200901N001519999999N9999999N1+01141+00701101491ADDAA106000091AA224000391KA1240M+02181KA2120N+00631MA1999999099361MD1110171+9999REMSYN088AAXX  03124 71752 16/// /0903 10114 20070 39936 40149 51017 60001 333 10218 20063 70003;EQDQ01  00002PRCP06
0196717520999992006050312004+42967-079333FM-12+0178CTWL V0200901N001519999999N9999999N1+01141+00701101491ADDAA106000091AA224000391KA1240M+02181KA2120N+00631MA1999999099361MD1110171+9999REMSYN088AAXX  03124 71752 16/// /0903 10114 20070 39936 40149 51017 60001 333 10218 20063 70003;EQDQ01  00002PRCP06
0196717520999992006050312004+42967-079333FM-12+0178CTWL V0200901N001519999999N9999999N1+01141+00701101491ADDAA106000091AA224000391KA1240M+02181KA2120N+00631MA1999999099361MD1110171+9999REMSYN088AAXX  03124 71752 16/// /0903 10114 20070 39936 40149 51017 60001 333 10218 20063 70003;EQDQ01  00002PRCP06
0196717520999992006050312004+42967-079333FM-12+0178CTWL V0200901N001519999999N9999999N1+01141+00701101491ADDAA106000091AA224000391KA1240M+02181KA2120N+00631MA1999999099361MD1110171+9999REMSYN088AAXX  03124 71752 16/// /0903 10114 20070 39936 40149 51017 60001 333 10218 20063 70003;EQDQ01  00002PRCP06
0196717520999992006050312004+42967-079333FM-12+0178CTWL V0200901N001519999999N9999999N1+01141+00701101491ADDAA106000091AA224000391KA1240M+02181KA2120N+00631MA1999999099361MD1110171+9999REMSYN088AAXX  03124 71752 16/// /0903 10114 20070 39936 40149 51017 60001 333 10218 20063 70003;EQDQ01  00002PRCP06
0196717520999992006050312004+42967-079333FM-12+0178CTWL V0200901N001519999999N9999999N1+01141+00701101491ADDAA106000091AA224000391KA1240M+02181KA2120N+00631MA1999999099361MD1110171+9999REMSYN088AAXX  03124 71752 16/// /0903 10114 20070 39936 40149 51017 60001 333 10218 20063 70003;EQDQ01  00002PRCP06
0196717520999992006050312004+42967-079333FM-12+0178CTWL V0200901N001519999999N9999999N1+01141+00701101491ADDAA106000091AA224000391KA1240M+02181KA2120N+00631MA1999999099361MD1110171+9999REMSYN088AAXX  03124 71752 16/// /0903 10114 20070 39936 40149 51017 60001 333 10218 20063 70003;EQDQ01  00002PRCP06
0196717520999992006050312004+42967-079333FM-12+0178CTWL V0200901N001519999999N9999999N1+01141+00701101491ADDAA106000091AA224000391KA1240M+02181KA2120N+00631MA1999999099361MD1110171+9999REMSYN088AAXX  03124 71752 16/// /0903 10114 20070 39936 40149 51017 60001 333 10218 20063 70003;EQDQ01  00002PRCP06
0196717520999992006050312004+42967-079333FM-12+0178CTWL V0200901N001519999999N9999999N1+01141+00701101491ADDAA106000091AA224000391KA1240M+02181KA2120N+00631MA1999999099361MD1110171+9999REMSYN088AAXX  03124 71752 16/// /0903 10114 20070 39936 40149 51017 60001 333 10218 20063 70003;EQDQ01  00002PRCP06
0196717520999992006050312004+42967-079333FM-12+0178CTWL V0200901N001519999999N9999999N1+01141+00701101491ADDAA106000091AA224000391KA1240M+02181KA2120N+00631MA1999999099361MD1110171+9999REMSYN088AAXX  03124 71752 16/// /0903 10114 20070 39936 40149 51017 60001 333 10218 20063 70003;EQDQ01  00002PRCP06
0196717520999992006050312004+42967-079333FM-12+0178CTWL V0200901N001519999999N9999999N1+01141+00701101491ADDAA106000091AA224000391KA1240M+02181KA2120N+00631MA1999999099361MD1110171+9999REMSYN088AAXX  03124 71752 16/// /0903 10114 20070 39936 40149 51017 60001 333 10218 20063 70003;EQDQ01  00002PRCP06
0196717520999992006050312004+42967-079333FM-12+0178CTWL V0200901N001519999999N9999999N1+01141+00701101491ADDAA106000091AA224000391KA1240M+02181KA2120N+00631MA1999999099361MD1110171+9999REMSYN088AAXX  03124 71752 16/// /0903 10114 20070 39936 40149 51017 60001 333 10218 20063 70003;EQDQ01  00002PRCP06
0196717520999992006050312004+42967-079333FM-12+0178CTWL V0200901N001519999999N9999999N1+01141+00701101491ADDAA106000091AA224000391KA1240M+02181KA2120N+00631MA1999999099361MD1110171+9999REMSYN088AAXX  03124 71752 16/// /0903 10114 20070 39936 40149 51017 60001 333 10218 20063 70003;EQDQ01  00002PRCP06
0196717520999992006050312004+42967-079333FM-12+0178CTWL V0200901N001519999999N9999999N1+01141+00701101491ADDAA106000091AA224000391KA1240M+02181KA2120N+00631MA1999999099361MD1110171+9999REMSYN088AAXX  03124 71752 16/// /0903 10114 20070 39936 40149 51017 60001 333 10218 20063 70003;EQDQ01  00002PRCP06
0196717520999992006050312004+42967-079333FM-12+0178CTWL V0200901N001519999999N9999999N1+01141+00701101491ADDAA106000091AA224000391KA1240M+02181KA2120N+00631MA1999999099361MD1110171+9999REMSYN088AAXX  03124 71752 16/// /0903 10114 20070 39936 40149 51017 60001 333 10218 20063 70003;EQDQ01  00002PRCP06
0196717520999992006050312004+42967-079333FM-12+0178CTWL V0200901N001519999999N9999999N1+01141+00701101491ADDAA106000091AA224000391KA1240M+02181KA2120N+00631MA1999999099361MD1110171+9999REMSYN088AAXX  03124 71752 16/// /0903 10114 20070 39936 40149 51017 60001 333 10218 20063 70003;EQDQ01  00002PRCP06
0196717520999992006050312004+42967-079333FM-12+0178CTWL V0200901N001519999999N9999999N1+01141+00701101491ADDAA106000091AA224000391KA1240M+02181KA2120N+00631MA1999999099361MD1110171+9999REMSYN088AAXX  03124 71752 16/// /0903 10114 20070 39936 40149 51017 60001 333 10218 20063 70003;EQDQ01  00002PRCP06
0196717520999992006050312004+42967-079333FM-12+0178CTWL V0200901N001519999999N9999999N1+01141+00701101491ADDAA106000091AA224000391KA1240M+02181KA2120N+00631MA1999999099361MD1110171+9999REMSYN088AAXX  03124 71752 16/// /0903 10114 20070 39936 40149 51017 60001 333 10218 20063 70003;EQDQ01  00002PRCP06
0196717520999992006050312004+42967-079333FM-12+0178CTWL V0200901N001519999999N9999999N1+01141+00701101491ADDAA106000091AA224000391KA1240M+02181KA2120N+00631MA1999999099361MD1110171+9999REMSYN088AAXX  03124 71752 16/// /0903 10114 20070 39936 40149 51017 60001 333 10218 20063 70003;EQDQ01  00002PRCP06
0196717520999992006050312004+42967-079333FM-12+0178CTWL V0200901N001519999999N9999999N1+01141+00701101491ADDAA106000091AA224000391KA1240M+02181KA2120N+00631MA1999999099361MD1110171+9999REMSYN088AAXX  03124 71752 16/// /0903 10114 20070 39936 40149 51017 60001 333 10218 20063 70003;EQDQ01  00002PRCP06
0196717520999992006050312004+42967-079333FM-12+0178CTWL V0200901N001519999999N9999999N1+01141+00701101491ADDAA106000091AA224000391KA1240M+02181KA2120N+00631MA1999999099361MD1110171+9999REMSYN088AAXX  03124 71752 16/// /0903 10114 20070 39936 40149 51017 60001 333 10218 20063 70003;EQDQ01  00002PRCP06
0196717520999992006050312004+42967-079333FM-12+0178CTWL V0200901N001519999999N9999999N1+01141+00701101491ADDAA106000091AA224000391KA1240M+02181KA2120N+00631MA1999999099361MD1110171+9999REMSYN088AAXX  03124 71752 16/// /0903 10114 20070 39936 40149 51017 60001 333 10218 20063 70003;EQDQ01  00002PRCP06
0196717520999992006050312004+42967-079333FM-12+0178CTWL V0200901N001519999999N9999999N1+01141+00701101491ADDAA106000091AA224000391KA1240M+02181KA2120N+00631MA1999999099361MD1110171+9999REMSYN088AAXX  03124 71752 16/// /0903 10114 20070 39936 40149 51017 60001 333 10218 20063 70003;EQDQ01  00002PRCP06
0196717520999992006050312004+42967-079333FM-12+0178CTWL V0200901N001519999999N9999999N1+01141+00701101491ADDAA106000091AA224000391KA1240M+02181KA2120N+00631MA1999999099361MD1110171+9999REMSYN088AAXX  03124 71752 16/// /0903 10114 20070 39936 40149 51017 60001 333 10218 20063 70003;EQDQ01  00002PRCP06
0196717520999992006050312004+42967-079333FM-12+0178CTWL V0200901N001519999999N9999999N1+01141+00701101491ADDAA106000091AA224000391KA1240M+02181KA2120N+00631MA1999999099361MD1110171+9999REMSYN088AAXX  03124 71752 16/// /0903 10114 20070 39936 40149 51017 60001 333 10218 20063 70003;EQDQ01  00002PRCP06
0196717520999992006050312004+42967-079333FM-12+0178CTWL V0200901N001519999999N9999999N1+01141+00701101491ADDAA106000091AA224000391KA1240M+02181KA2120N+00631MA1999999099361MD1110171+9999REMSYN088AAXX  03124 71752 16/// /0903 10114 20070 39936 40149 51017 60001 333 10218 20063 70003;EQDQ01  00002PRCP06
0196717520999992006050312004+42967-079333FM-12+0178CTWL V0200901N001519999999N9999999N1+01141+00701101491ADDAA106000091AA224000391KA1240M+02181KA2120N+00631MA1999999099361MD1110171+9999REMSYN088AAXX  03124 71752 16/// /0903 10114 20070 39936 40149 51017 60001 333 10218 20063 70003;EQDQ01  00002PRCP06
0196717520999992006050312004+42967-079333FM-12+0178CTWL V0200901N001519999999N9999999N1+01141+00701101491ADDAA106000091AA224000391KA1240M+02181KA2120N+00631MA1999999099361MD1110171+9999REMSYN088AAXX  03124 71752 16/// /0903 10114 20070 39936 40149 51017 60001 333 10218 20063 70003;EQDQ01  00002PRCP06
0196717520999992006050312004+42967-079333FM-12+0178CTWL V0200901N001519999999N9999999N1+01141+00701101491ADDAA106000091AA224000391KA1240M+02181KA2120N+00631MA1999999099361MD1110171+9999REMSYN088AAXX  03124 71752 16/// /0903 10114 20070 39936 40149 51017 60001 333 10218 20063 70003;EQDQ01  00002PRCP06
0196717520999992006050312004+42967-079333FM-12+0178CTWL V0200901N001519999999N9999999N1+01141+00701101491ADDAA106000091AA224000391KA1240M+02181KA2120N+00631MA1999999099361MD1110171+9999REMSYN088AAXX  03124 71752 16/// /0903 10114 20070 39936 40149 51017 60001 333 10218 20063 70003;EQDQ01  00002PRCP06
0196717520999992006050312004+42967-079333FM-12+0178CTWL V0200901N001519999999N9999999N1+01141+00701101491ADDAA106000091AA224000391KA1240M+02181KA2120N+00631MA1999999099361MD1110171+9999REMSYN088AAXX  03124 71752 16/// /0903 10114 20070 39936 40149 51017 60001 333 10218 20063 70003;EQDQ01  00002PRCP06
0196717520999992006050312004+42967-079333FM-12+0178CTWL V0200901N001519999999N9999999N1+01141+00701101491ADDAA106000091AA224000391KA1240M+02181KA2120N+00631MA1999999099361MD1110171+9999REMSYN088AAXX  03124 71752 16/// /0903 10114 20070 39936 40149 51017 60001 333 10218 20063 70003;EQDQ01  00002PRCP06
0196717520999992006050312004+42967-079333FM-12+0178CTWL V0200901N001519999999N9999999N1+01141+00701101491ADDAA106000091AA224000391KA1240M+02181KA2120N+00631MA1999999099361MD1110171+9999REMSYN088AAXX  03124 71752 16/// /0903 10114 20070 39936 40149 51017 60001 333 10218 20063 70003;EQDQ01  00002PRCP06
0196717520999992006050312004+42967-079333FM-12+0178CTWL V0200901N001519999999N9999999N1+01141+00701101491ADDAA106000091AA224000391KA1240M+02181KA2120N+00631MA1999999099361MD1110171+9999REMSYN088AAXX  03124 71752 16/// /0903 10114 20070 39936 40149 51017 60001 333 10218 20063 70003;EQDQ01  00002PRCP06
0196717520999992006050312004+42967-079333FM-12+0178CTWL V0200901N001519999999N9999999N1+01141+00701101491ADDAA106000091AA224000391KA1240M+02181KA2120N+00631MA1999999099361MD1110171+9999REMSYN088AAXX  03124 71752 16/// /0903 10114 20070 39936 40149 51017 60001 333 10218 20063 70003;EQDQ01  00002PRCP06
0196717520999992006050312004+42967-079333FM-12+0178CTWL V0200901N001519999999N9999999N1+01141+00701101491ADDAA106000091AA224000391KA1240M+02181KA2120N+00631MA1999999099361MD1110171+9999REMSYN088AAXX  03124 71752 16/// /0903 10114 20070 39936 40149 51017 60001 333 10218 20063 70003;EQDQ01  00002PRCP06
0196717520999992006050312004+42967-079333FM-12+0178CTWL V0200901N001519999999N9999999N1+01141+00701101491ADDAA106000091AA224000391KA1240M+02181KA2120N+00631MA1999999099361MD1110171+9999REMSYN088AAXX  03124 71752 16/// /0903 10114 20070 39936 40149 51017 60001 333 10218 20063 70003;EQDQ01  00002PRCP06
0196717520999992006050312004+42967-079333FM-12+0178CTWL V0200901N001519999999N9999999N1+01141+00701101491ADDAA106000091AA224000391KA1240M+02181KA2120N+00631MA1999999099361MD1110171+9999REMSYN088AAXX  03124 71752 16/// /0903 10114 20070 39936 40149 51017 60001 333 10218 20063 70003;EQDQ01  00002PRCP06
0196717520999992006050312004+42967-079333FM-12+0178CTWL V0200901N001519999999N9999999N1+01141+00701101491ADDAA106000091AA224000391KA1240M+02181KA2120N+00631MA1999999099361MD1110171+9999REMSYN088AAXX  03124 71752 16/// /0903 10114 20070 39936 40149 51017 60001 333 10218 20063 70003;EQDQ01  00002PRCP06
0196717520999992006050312004+42967-079333FM-12+0178CTWL V0200901N001519999999N9999999N1+01141+00701101491ADDAA106000091AA224000391KA1240M+02181KA2120N+00631MA1999999099361MD1110171+9999REMSYN088AAXX  03124 71752 16/// /0903 10114 20070 39936 40149 51017 60001 333 10218 20063 70003;EQDQ01  00002PRCP06
0196717520999992006050312004+42967-079333FM-12+0178CTWL V0200901N001519999999N9999999N1+01141+00701101491ADDAA106000091AA224000391KA1240M+02181KA2120N+00631MA1999999099361MD1110171+9999REMSYN088AAXX  03124 71752 16/// /0903 10114 20070 39936 40149 51017 60001 333 10218 20063 70003;EQDQ01  00002PRCP06
0196717520999992006050312004+42967-079333FM-12+0178CTWL V0200901N001519999999N9999999N1+01141+00701101491ADDAA106000091AA224000391KA1240M+02181KA2120N+00631MA1999999099361MD1110171+9999REMSYN088AAXX  03124 71752 16/// /0903 10114 20070 39936 40149 51017 60001 333 10218 20063 70003;EQDQ01  00002PRCP06
0196717520999992006050312004+42967-079333FM-12+0178CTWL V0200901N001519999999N9999999N1+01141+00701101491ADDAA106000091AA224000391KA1240M+02181KA2120N+00631MA1999999099361MD1110171+9999REMSYN088AAXX  03124 71752 16/// /0903 10114 20070 39936 40149 51017 60001 333 10218 20063 70003;EQDQ01  00002PRCP06
0196717520999992006050312004+42967-079333FM-12+0178CTWL V0200901N001519999999N9999999N1+01141+00701101491ADDAA106000091AA224000391KA1240M+02181KA2120N+00631MA1999999099361MD1110171+9999REMSYN088AAXX  03124 71752 16/// /0903 10114 20070 39936 40149 51017 60001 333 10218 20063 70003;EQDQ01  00002PRCP06
0196717520999992006050312004+42967-079333FM-12+0178CTWL V0200901N001519999999N9999999N1+01141+00701101491ADDAA106000091AA224000391KA1240M+02181KA2120N+00631MA1999999099361MD1110171+9999REMSYN088AAXX  03124 71752 16/// /0903 10114 20070 39936 40149 51017 60001 333 10218 20063 70003;EQDQ01  00002PRCP06
0196717520999992006050312004+42967-079333FM-12+0178CTWL V0200901N001519999999N9999999N1+01141+00701101491ADDAA106000091AA224000391KA1240M+02181KA2120N+00631MA1999999099361MD1110171+9999REMSYN088AAXX  03124 71752 16/// /0903 10114 20070 39936 40149 51017 60001 333 10218 20063 70003;EQDQ01  00002PRCP06
0196717520999992006050312004+42967-079333FM-12+0178CTWL V0200901N001519999999N9999999N1+01141+00701101491ADDAA106000091AA224000391KA1240M+02181KA2120N+00631MA1999999099361MD1110171+9999REMSYN088AAXX  03124 71752 16/// /0903 10114 20070 39936 40149 51017 60001 333 10218 20063 70003;EQDQ01  00002PRCP06
0196717520999992006050312004+42967-079333FM-12+0178CTWL V0200901N001519999999N9999999N1+01141+00701101491ADDAA106000091AA224000391KA1240M+02181KA2120N+00631MA1999999099361MD1110171+9999REMSYN088AAXX  03124 71752 16/// /0903 10114 20070 39936 40149 51017 60001 333 10218 20063 70003;EQDQ01  00002PRCP06
0196717520999992006050312004+42967-079333FM-12+0178CTWL V0200901N001519999999N9999999N1+01141+00701101491ADDAA106000091AA224000391KA1240M+02181KA2120N+00631MA1999999099361MD1110171+9999REMSYN088AAXX  03124 71752 16/// /0903 10114 20070 39936 40149 51017 60001 333 10218 20063 70003;EQDQ01  00002PRCP06
0196717520999992006050312004+42967-079333FM-12+0178CTWL V0200901N001519999999N9999999N1+01141+00701101491ADDAA106000091AA224000391KA1240M+02181KA2120N+00631MA1999999099361MD1110171+9999REMSYN088AAXX  03124 71752 16/// /0903 10114 20070 39936 40149 51017 60001 333 10218 20063 70003;EQDQ01  00002PRCP06
0196717520999992006050312004+42967-079333FM-12+0178CTWL V0200901N001519999999N9999999N1+01141+00701101491ADDAA106000091AA224000391KA1240M+02181KA2120N+00631MA1999999099361MD1110171+9999REMSYN088AAXX  03124 71752 16/// /0903 10114 20070 39936 40149 51017 60001 333 10218 20063 70003;EQDQ01  00002PRCP06
0196717520999992006050312004+42967-079333FM-12+0178CTWL V0200901N001519999999N9999999N1+01141+00701101491ADDAA106000091AA224000391KA1240M+02181KA2120N+00631MA1999999099361MD1110171+9999REMSYN088AAXX  03124 71752 16/// /0903 10114 20070 39936 40149 51017 60001 333 10218 20063 70003;EQDQ01  00002PRCP06
0196717520999992006050312004+42967-079333FM-12+0178CTWL V0200901N001519999999N9999999N1+01141+00701101491ADDAA106000091AA224000391KA1240M+02181KA2120N+00631MA1999999099361MD1110171+9999REMSYN088AAXX  03124 71752 16/// /0903 10114 20070 39936 40149 51017 60001 333 10218 20063 70003;EQDQ01  00002PRCP06
0196717520999992006050312004+42967-079333FM-12+0178CTWL V0200901N001519999999N9999999N1+01141+00701101491ADDAA106000091AA224000391KA1240M+02181KA2120N+00631MA1999999099361MD1110171+9999REMSYN088AAXX  03124 71752 16/// /0903 10114 20070 39936 40149 51017 60001 333 10218 20063 70003;EQDQ01  00002PRCP06
0196717520999992006050312004+42967-079333FM-12+0178CTWL V0200901N001519999999N9999999N1+01141+00701101491ADDAA106000091AA224000391KA1240M+02181KA2120N+00631MA1999999099361MD1110171+9999REMSYN088AAXX  03124 71752 16/// /0903 10114 20070 39936 40149 51017 60001 333 10218 20063 70003;EQDQ01  00002PRCP06
0196717520999992006050312004+42967-079333FM-12+0178CTWL V0200901N001519999999N9999999N1+01141+00701101491ADDAA106000091AA224000391KA1240M+02181KA2120N+00631MA1999999099361MD1110171+9999REMSYN088AAXX  03124 71752 16/// /0903 10114 20070 39936 40149 51017 60001 333 10218 20063 70003;EQDQ01  00002PRCP06
0196717520999992006050312004+42967-079333FM-12+0178CTWL V0200901N001519999999N9999999N1+01141+00701101491ADDAA106000091AA224000391KA1240M+02181KA2120N+00631MA1999999099361MD1110171+9999REMSYN088AAXX  03124 71752 16/// /0903 10114 20070 39936 40149 51017 60001 333 10218 20063 70003;EQDQ01  00002PRCP06
0196717520999992006050312004+42967-079333FM-12+0178CTWL V0200901N001519999999N9999999N1+01141+00701101491ADDAA106000091AA224000391KA1240M+02181KA2120N+00631MA1999999099361MD1110171+9999REMSYN088AAXX  03124 71752 16/// /0903 10114 20070 39936 40149 51017 60001 333 10218 20063 70003;EQDQ01  00002PRCP06
0196717520999992006050312004+42967-079333FM-12+0178CTWL V0200901N001519999999N9999999N1+01141+00701101491ADDAA106000091AA224000391KA1240M+02181KA2120N+00631MA1999999099361MD1110171+9999REMSYN088AAXX  03124 71752 16/// /0903 10114 20070 39936 40149 51017 60001 333 10218 20063 70003;EQDQ01  00002PRCP06
0196717520999992006050312004+42967-079333FM-12+0178CTWL V0200901N001519999999N9999999N1+01141+00701101491ADDAA106000091AA224000391KA1240M+02181KA2120N+00631MA1999999099361MD1110171+9999REMSYN088AAXX  03124 71752 16/// /0903 10114 20070 39936 40149 51017 60001 333 10218 20063 70003;EQDQ01  00002PRCP06
0196717520999992006050312004+42967-079333FM-12+0178CTWL V0200901N001519999999N9999999N1+01141+00701101491ADDAA106000091AA224000391KA1240M+02181KA2120N+00631MA1999999099361MD1110171+9999REMSYN088AAXX  03124 71752 16/// /0903 10114 20070 39936 40149 51017 60001 333 10218 20063 70003;EQDQ01  00002PRCP06
0196717520999992006050312004+42967-079333FM-12+0178CTWL V0200901N001519999999N9999999N1+01141+00701101491ADDAA106000091AA224000391KA1240M+02181KA2120N+00631MA1999999099361MD1110171+9999REMSYN088AAXX  03124 71752 16/// /0903 10114 20070 39936 40149 51017 60001 333 10218 20063 70003;EQDQ01  00002PRCP06
0196717520999992006050312004+42967-079333FM-12+0178CTWL V0200901N001519999999N9999999N1+01141+00701101491ADDAA106000091AA224000391KA1240M+02181KA2120N+00631MA1999999099361MD1110171+9999REMSYN088AAXX  03124 71752 16/// /0903 10114 20070 39936 40149 51017 60001 333 10218 20063 70003;EQDQ01  00002PRCP06
0196717520999992006050312004+42967-079333FM-12+0178CTWL V0200901N001519999999N9999999N1+01141+00701101491ADDAA106000091AA224000391KA1240M+02181KA2120N+00631MA1999999099361MD1110171+9999REMSYN088AAXX  03124 71752 16/// /0903 10114 20070 39936 40149 51017 60001 333 10218 20063 70003;EQDQ01  00002PRCP06
0196717520999992006050312004+42967-079333FM-12+0178CTWL V0200901N001519999999N9999999N1+01141+00701101491ADDAA106000091AA224000391KA1240M+02181KA2120N+00631MA1999999099361MD1110171+9999REMSYN088AAXX  03124 71752 16/// /0903 10114 20070 39936 40149 51017 60001 333 10218 20063 70003;EQDQ01  00002PRCP06
0196717520999992006050312004+42967-079333FM-12+0178CTWL V0200901N001519999999N9999999N1+01141+00701101491ADDAA106000091AA224000391KA1240M+02181KA2120N+00631MA1999999099361MD1110171+9999REMSYN088AAXX  03124 71752 16/// /0903 10114 20070 39936 40149 51017 60001 333 10218 20063 70003;EQDQ01  00002PRCP06
0196717520999992006050312004+42967-079333FM-12+0178CTWL V0200901N001519999999N9999999N1+01141+00701101491ADDAA106000091AA224000391KA1240M+02181KA2120N+00631MA1999999099361MD1110171+9999REMSYN088AAXX  03124 71752 16/// /0903 10114 20070 39936 40149 51017 60001 333 10218 20063 70003;EQDQ01  00002PRCP06
0196717520999992006050312004+42967-079333FM-12+0178CTWL V0200901N001519999999N9999999N1+01141+00701101491ADDAA106000091AA224000391KA1240M+02181KA2120N+00631MA1999999099361MD1110171+9999REMSYN088AAXX  03124 71752 16/// /0903 10114 20070 39936 40149 51017 60001 333 10218 20063 70003;EQDQ01  00002PRCP06
0196717520999992006050312004+42967-079333FM-12+0178CTWL V0200901N001519999999N9999999N1+01141+00701101491ADDAA106000091AA224000391KA1240M+02181KA2120N+00631MA1999999099361MD1110171+9999REMSYN088AAXX  03124 71752 16/// /0903 10114 20070 39936 40149 51017 60001 333 10218 20063 70003;EQDQ01  00002PRCP06
0196717520999992006050312004+42967-079333FM-12+0178CTWL V0200901N001519999999N9999999N1+01141+00701101491ADDAA106000091AA224000391KA1240M+02181KA2120N+00631MA1999999099361MD1110171+9999REMSYN088AAXX  03124 71752 16/// /0903 10114 20070 39936 40149 51017 60001 333 10218 20063 70003;EQDQ01  00002PRCP06
0196717520999992006050312004+42967-079333FM-12+0178CTWL V0200901N001519999999N9999999N1+01141+00701101491ADDAA106000091AA224000391KA1240M+02181KA2120N+00631MA1999999099361MD1110171+9999REMSYN088AAXX  03124 71752 16/// /0903 10114 20070 39936 40149 51017 60001 333 10218 20063 70003;EQDQ01  00002PRCP06
0196717520999992006050312004+42967-079333FM-12+0178CTWL V0200901N001519999999N9999999N1+01141+00701101491ADDAA106000091AA224000391KA1240M+02181KA2120N+00631MA1999999099361MD1110171+9999REMSYN088AAXX  03124 71752 16/// /0903 10114 20070 39936 40149 51017 60001 333 10218 20063 70003;EQDQ01  00002PRCP06
0196717520999992006050312004+42967-079333FM-12+0178CTWL V0200901N001519999999N9999999N1+01141+00701101491ADDAA106000091AA224000391KA1240M+02181KA2120N+00631MA1999999099361MD1110171+9999REMSYN088AAXX  03124 71752 16/// /0903 10114 20070 39936 40149 51017 60001 333 10218 20063 70003;EQDQ01  00002PRCP06
0196717520999992006050312004+42967-079333FM-12+0178CTWL V0200901N001519999999N9999999N1+01141+00701101491ADDAA106000091AA224000391KA1240M+02181KA2120N+00631MA1999999099361MD1110171+9999REMSYN088AAXX  03124 71752 16/// /0903 10114 20070 39936 40149 51017 60001 333 10218 20063 70003;EQDQ01  00002PRCP06
0196717520999992006050312004+42967-079333FM-12+0178CTWL V0200901N001519999999N9999999N1+01141+00701101491ADDAA106000091AA224000391KA1240M+02181KA2120N+00631MA1999999099361MD1110171+9999REMSYN088AAXX  03124 71752 16/// /0903 10114 20070 39936 40149 51017 60001 333 10218 20063 70003;EQDQ01  00002PRCP06
0196717520999992006050312004+42967-079333FM-12+0178CTWL V0200901N001519999999N9999999N1+01141+00701101491ADDAA106000091AA224000391KA1240M+02181KA2120N+00631MA1999999099361MD1110171+9999REMSYN088AAXX  03124 71752 16/// /0903 10114 20070 39936 40149 51017 60001 333 10218 20063 70003;EQDQ01  00002PRCP06
0196717520999992006050312004+42967-079333FM-12+0178CTWL V0200901N001519999999N9999999N1+01141+00701101491ADDAA106000091AA224000391KA1240M+02181KA2120N+00631MA1999999099361MD1110171+9999REMSYN088AAXX  03124 71752 16/// /0903 10114 20070 39936 40149 51017 60001 333 10218 20063 70003;EQDQ01  00002PRCP06
0196717520999992006050312004+42967-079333FM-12+0178CTWL V0200901N001519999999N9999999N1+01141+00701101491ADDAA106000091AA224000391KA1240M+02181KA2120N+00631MA1999999099361MD1110171+9999REMSYN088AAXX  03124 71752 16/// /0903 10114 20070 39936 40149 51017 60001 333 10218 20063 70003;EQDQ01  00002PRCP06
0196717520999992006050312004+42967-079333FM-12+0178CTWL V0200901N001519999999N9999999N1+01141+00701101491ADDAA106000091AA224000391KA1240M+02181KA2120N+00631MA1999999099361MD1110171+9999REMSYN088AAXX  03124 71752 16/// /0903 10114 20070 39936 40149 51017 60001 333 10218 20063 70003;EQDQ01  00002PRCP06
0196717520999992006050312004+42967-079333FM-12+0178CTWL V0200901N001519999999N9999999N1+01141+00701101491ADDAA106000091AA224000391KA1240M+02181KA2120N+00631MA1999999099361MD1110171+9999REMSYN088AAXX  03124 71752 16/// /0903 10114 20070 39936 40149 51017 60001 333 10218 20063 70003;EQDQ01  00002PRCP06
0196717520999992006050312004+42967-079333FM-12+0178CTWL V0200901N001519999999N9999999N1+01141+00701101491ADDAA106000091AA224000391KA1240M+02181KA2120N+00631MA1999999099361MD1110171+9999REMSYN088AAXX  03124 71752 16/// /0903 10114 20070 39936 40149 51017 60001 333 10218 20063 70003;EQDQ01  00002PRCP06
0196717520999992006050312004+42967-079333FM-12+0178CTWL V0200901N001519999999N9999999N1+01141+00701101491ADDAA106000091AA224000391KA1240M+02181KA2120N+00631MA1999999099361MD1110171+9999REMSYN088AAXX  03124 71752 16/// /0903 10114 20070 39936 40149 51017 60001 333 10218 20063 70003;EQDQ01  00002PRCP06
0196717520999992006050312004+42967-079333FM-12+0178CTWL V0200901N001519999999N9999999N1+01141+00701101491ADDAA106000091AA224000391KA1240M+02181KA2120N+00631MA1999999099361MD1110171+9999REMSYN088AAXX  03124 71752 16/// /0903 10114 20070 39936 40149 51017 60001 333 10218 20063 70003;EQDQ01  00002PRCP06
0196717520999992006050312004+42967-079333FM-12+0178CTWL V0200901N001519999999N9999999N1+01141+00701101491ADDAA106000091AA224000391KA1240M+02181KA2120N+00631MA1999999099361MD1110171+9999REMSYN088AAXX  03124 71752 16/// /0903 10114 20070 39936 40149 51017 60001 333 10218 20063 70003;EQDQ01  00002PRCP06
0196717520999992006050312004+42967-079333FM-12+0178CTWL V0200901N001519999999N9999999N1+01141+00701101491ADDAA106000091AA224000391KA1240M+02181KA2120N+00631MA1999999099361MD1110171+9999REMSYN088AAXX  03124 71752 16/// /0903 10114 20070 39936 40149 51017 60001 333 10218 20063 70003;EQDQ01  00002PRCP06
0196717520999992006050312004+42967-079333FM-12+0178CTWL V0200901N001519999999N9999999N1+01141+00701101491ADDAA106000091AA224000391KA1240M+02181KA2120N+00631MA1999999099361MD1110171+9999REMSYN088AAXX  03124 71752 16/// /0903 10114 20070 39936 40149 51017 60001 333 10218 20063 70003;EQDQ01  00002PRCP06
0196717520999992006050312004+42967-079333FM-12+0178CTWL V0200901N001519999999N9999999N1+01141+00701101491ADDAA106000091AA224000391KA1240M+02181KA2120N+00631MA1999999099361MD1110171+9999REMSYN088AAXX  03124 71752 16/// /0903 10114 20070 39936 40149 51017 60001 333 10218 20063 70003;EQDQ01  00002PRCP06
0196717520999992006050312004+42967-079333FM-12+0178CTWL V0200901N001519999999N9999999N1+01141+00701101491ADDAA106000091AA224000391KA1240M+02181KA2120N+00631MA1999999099361MD1110171+9999REMSYN088AAXX  03124 71752 16/// /0903 10114 20070 39936 40149 51017 60001 333 10218 20063 70003;EQDQ01  00002PRCP06
0196717520999992006050312004+42967-079333FM-12+0178CTWL V0200901N001519999999N9999999N1+01141+00701101491ADDAA106000091AA224000391KA1240M+02181KA2120N+00631MA1999999099361MD1110171+9999REMSYN088AAXX  03124 71752 16/// /0903 10114 20070 39936 40149 51017 60001 333 10218 20063 70003;EQDQ01  00002PRCP06
0196717520999992006050312004+42967-079333FM-12+0178CTWL V0200901N001519999999N9999999N1+01141+00701101491ADDAA106000091AA224000391KA1240M+02181KA2120N+00631MA1999999099361MD1110171+9999REMSYN088AAXX  03124 71752 16/// /0903 10114 20070 39936 40149 51017 60001 333 10218 20063 70003;EQDQ01  00002PRCP06
0196717520999992006050312004+42967-079333FM-12+0178CTWL V0200901N001519999999N9999999N1+01141+00701101491ADDAA106000091AA224000391KA1240M+02181KA2120N+00631MA1999999099361MD1110171+9999REMSYN088AAXX  03124 71752 16/// /0903 10114 20070 39936 40149 51017 60001 333 10218 20063 70003;EQDQ01  00002PRCP06
0196717520999992006050312004+42967-079333FM-12+0178CTWL V0200901N001519999999N9999999N1+01141+00701101491ADDAA106000091AA224000391KA1240M+02181KA2120N+00631MA1999999099361MD1110171+9999REMSYN088AAXX  03124 71752 16/// /0903 10114 20070 39936 40149 51017 60001 333 10218 20063 70003;EQDQ01  00002PRCP06
0196717520999992006050312004+42967-079333FM-12+0178CTWL V0200901N001519999999N9999999N1+01141+00701101491ADDAA106000091AA224000391KA1240M+02181KA2120N+00631MA1999999099361MD1110171+9999REMSYN088AAXX  03124 71752 16/// /0903 10114 20070 39936 40149 51017 60001 333 10218 20063 70003;EQDQ01  00002PRCP06
0196717520999992006050312004+42967-079333FM-12+0178CTWL V0200901N001519999999N9999999N1+01141+00701101491ADDAA106000091AA224000391KA1240M+02181KA2120N+00631MA1999999099361MD1110171+9999REMSYN088AAXX  03124 71752 16/// /0903 10114 20070 39936 40149 51017 60001 333 10218 20063 70003;EQDQ01  00002PRCP06
0196717520999992006050312004+42967-079333FM-12+0178CTWL V0200901N001519999999N9999999N1+01141+00701101491ADDAA106000091AA224000391KA1240M+02181KA2120N+00631MA1999999099361MD1110171+9999REMSYN088AAXX  03124 71752 16/// /0903 10114 20070 39936 40149 51017 60001 333 10218 20063 70003;EQDQ01  00002PRCP06
0196717520999992006050312004+42967-079333FM-12+0178CTWL V0200901N001519999999N9999999N1+01141+00701101491ADDAA106000091AA224000391KA1240M+02181KA2120N+00631MA1999999099361MD1110171+9999REMSYN088AAXX  03124 71752 16/// /0903 10114 20070 39936 40149 51017 60001 333 10218 20063 70003;EQDQ01  00002PRCP06
0196717520999992006050312004+42967-079333FM-12+0178CTWL V0200901N001519999999N9999999N1+01141+00701101491ADDAA106000091AA224000391KA1240M+02181KA2120N+00631MA1999999099361MD1110171+9999REMSYN088AAXX  03124 71752 16/// /0903 10114 20070 39936 40149 51017 60001 333 10218 20063 70003;EQDQ01  00002PRCP06
0196717520999992006050312004+42967-079333FM-12+0178CTWL V0200901N001519999999N9999999N1+01141+00701101491ADDAA106000091AA224000391KA1240M+02181KA2120N+00631MA1999999099361MD1110171+9999REMSYN088AAXX  03124 71752 16/// /0903 10114 20070 39936 40149 51017 60001 333 10218 20063 70003;EQDQ01  00002PRCP06
0196717520999992006050312004+42967-079333FM-12+0178CTWL V0200901N001519999999N9999999N1+01141+00701101491ADDAA106000091AA224000391KA1240M+02181KA2120N+00631MA1999999099361MD1110171+9999REMSYN088AAXX  03124 71752 16/// /0903 10114 20070 39936 40149 51017 60001 333 10218 20063 70003;EQDQ01  00002PRCP06
0196717520999992006050312004+42967-079333FM-12+0178CTWL V0200901N001519999999N9999999N1+01141+00701101491ADDAA106000091AA224000391KA1240M+02181KA2120N+00631MA1999999099361MD1110171+9999REMSYN088AAXX  03124 71752 16/// /0903 10114 20070 39936 40149 51017 60001 333 10218 20063 70003;EQDQ01  00002PRCP06
0196717520999992006050312004+42967-079333FM-12+0178CTWL V0200901N001519999999N9999999N1+01141+00701101491ADDAA106000091AA224000391KA1240M+02181KA2120N+00631MA1999999099361MD1110171+9999REMSYN088AAXX  03124 71752 16/// /0903 10114 20070 39936 40149 51017 60001 333 10218 20063 70003;EQDQ01  00002PRCP06
0196717520999992006050312004+42967-079333FM-12+0178CTWL V0200901N001519999999N9999999N1+01141+00701101491ADDAA106000091AA224000391KA1240M+02181KA2120N+00631MA1999999099361MD1110171+9999REMSYN088AAXX  03124 71752 16/// /0903 10114 20070 39936 40149 51017 60001 333 10218 20063 70003;EQDQ01  00002PRCP06
0196717520999992006050312004+42967-079333FM-12+0178CTWL V0200901N001519999999N9999999N1+01141+00701101491ADDAA106000091AA224000391KA1240M+02181KA2120N+00631MA1999999099361MD1110171+9999REMSYN088AAXX  03124 71752 16/// /0903 10114 20070 39936 40149 51017 60001 333 10218 20063 70003;EQDQ01  00002PRCP06
0196717520999992006050312004+42967-079333FM-12+0178CTWL V0200901N001519999999N9999999N1+01141+00701101491ADDAA106000091AA224000391KA1240M+02181KA2120N+00631MA1999999099361MD1110171+9999REMSYN088AAXX  03124 71752 16/// /0903 10114 20070 39936 40149 51017 60001 333 10218 20063 70003;EQDQ01  00002PRCP06
0196717520999992006050312004+42967-079333FM-12+0178CTWL V0200901N001519999999N9999999N1+01141+00701101491ADDAA106000091AA224000391KA1240M+02181KA2120N+00631MA1999999099361MD1110171+9999REMSYN088AAXX  03124 71752 16/// /0903 10114 20070 39936 40149 51017 60001 333 10218 20063 70003;EQDQ01  00002PRCP06
0196717520999992006050312004+42967-079333FM-12+0178CTWL V0200901N001519999999N9999999N1+01141+00701101491ADDAA106000091AA224000391KA1240M+02181KA2120N+00631MA1999999099361MD1110171+9999REMSYN088AAXX  03124 71752 16/// /0903 10114 20070 39936 40149 51017 60001 333 10218 20063 70003;EQDQ01  00002PRCP06
0196717520999992006050312004+42967-079333FM-12+0178CTWL V0200901N001519999999N9999999N1+01141+00701101491ADDAA106000091AA224000391KA1240M+02181KA2120N+00631MA1999999099361MD1110171+9999REMSYN088AAXX  03124 71752 16/// /0903 10114 20070 39936 40149 51017 60001 333 10218 20063 70003;EQDQ01  00002PRCP06
0196717520999992006050312004+42967-079333FM-12+0178CTWL V0200901N001519999999N9999999N1+01141+00701101491ADDAA106000091AA224000391KA1240M+02181KA2120N+00631MA1999999099361MD1110171+9999REMSYN088AAXX  03124 71752 16/// /0903 10114 20070 39936 40149 51017 60001 333 10218 20063 70003;EQDQ01  00002PRCP06
0196717520999992006050312004+42967-079333FM-12+0178CTWL V0200901N001519999999N9999999N1+01141+00701101491ADDAA106000091AA224000391KA1240M+02181KA2120N+00631MA1999999099361MD1110171+9999REMSYN088AAXX  03124 71752 16/// /0903 10114 20070 39936 40149 51017 60001 333 10218 20063 70003;EQDQ01  00002PRCP06
0196717520999992006050312004+42967-079333FM-12+0178CTWL V0200901N001519999999N9999999N1+01141+00701101491ADDAA106000091AA224000391KA1240M+02181KA2120N+00631MA1999999099361MD1110171+9999REMSYN088AAXX  03124 71752 16/// /0903 10114 20070 39936 40149 51017 60001 333 10218 20063 70003;EQDQ01  00002PRCP06
0196717520999992006050312004+42967-079333FM-12+0178CTWL V0200901N001519999999N9999999N1+01141+00701101491ADDAA106000091AA224000391KA1240M+02181KA2120N+00631MA1999999099361MD1110171+9999REMSYN088AAXX  03124 71752 16/// /0903 10114 20070 39936 40149 51017 60001 333 10218 20063 70003;EQDQ01  00002PRCP06
0196717520999992006050312004+42967-079333FM-12+0178CTWL V0200901N001519999999N9999999N1+01141+00701101491ADDAA106000091AA224000391KA1240M+02181KA2120N+00631MA1999999099361MD1110171+9999REMSYN088AAXX  03124 71752 16/// /0903 10114 20070 39936 40149 51017 60001 333 10218 20063 70003;EQDQ01  00002PRCP06
0196717520999992006050312004+42967-079333FM-12+0178CTWL V0200901N001519999999N9999999N1+01141+00701101491ADDAA106000091AA224000391KA1240M+02181KA2120N+00631MA1999999099361MD1110171+9999REMSYN088AAXX  03124 71752 16/// /0903 10114 20070 39936 40149 51017 60001 333 10218 20063 70003;EQDQ01  00002PRCP06
0196717520999992006050312004+42967-079333FM-12+0178CTWL V0200901N001519999999N9999999N1+01141+00701101491ADDAA106000091AA224000391KA1240M+02181KA2120N+00631MA1999999099361MD1110171+9999REMSYN088AAXX  03124 71752 16/// /0903 10114 20070 39936 40149 51017 60001 333 10218 20063 70003;EQDQ01  00002PRCP06
0196717520999992006050312004+42967-079333FM-12+0178CTWL V0200901N001519999999N9999999N1+01141+00701101491ADDAA106000091AA224000391KA1240M+02181KA2120N+00631MA1999999099361MD1110171+9999REMSYN088AAXX  03124 71752 16/// /0903 10114 20070 39936 40149 51017 60001 333 10218 20063 70003;EQDQ01  00002PRCP06
0196717520999992006050312004+42967-079333FM-12+0178CTWL V0200901N001519999999N9999999N1+01141+00701101491ADDAA106000091AA224000391KA1240M+02181KA2120N+00631MA1999999099361MD1110171+9999REMSYN088AAXX  03124 71752 16/// /0903 10114 20070 39936 40149 51017 60001 333 10218 20063 70003;EQDQ01  00002PRCP06
0196717520999992006050312004+42967-079333FM-12+0178CTWL V0200901N001519999999N9999999N1+01141+00701101491ADDAA106000091AA224000391KA1240M+02181KA2120N+00631MA1999999099361MD1110171+9999REMSYN088AAXX  03124 71752 16/// /0903 10114 20070 39936 40149 51017 60001 333 10218 20063 70003;EQDQ01  00002PRCP06
0196717520999992006050312004+42967-079333FM-12+0178CTWL V0200901N001519999999N9999999N1+01141+00701101491ADDAA106000091AA224000391KA1240M+02181KA2120N+00631MA1999999099361MD1110171+9999REMSYN088AAXX  03124 71752 16/// /0903 10114 20070 39936 40149 51017 60001 333 10218 20063 70003;EQDQ01  00002PRCP06
0196717520999992006050312004+42967-079333FM-12+0178CTWL V0200901N001519999999N9999999N1+01141+00701101491ADDAA106000091AA224000391KA1240M+02181KA2120N+00631MA1999999099361MD1110171+9999REMSYN088AAXX  03124 71752 16/// /0903 10114 20070 39936 40149 51017 60001 333 10218 20063 70003;EQDQ01  00002PRCP06
0196717520999992006050312004+42967-079333FM-12+0178CTWL V0200901N001519999999N9999999N1+01141+00701101491ADDAA106000091AA224000391KA1240M+02181KA2120N+00631MA1999999099361MD1110171+9999REMSYN088AAXX  03124 71752 16/// /0903 10114 20070 39936 40149 51017 60001 333 10218 20063 70003;EQDQ01  00002PRCP06
0196717520999992006050312004+42967-079333FM-12+0178CTWL V0200901N001519999999N9999999N1+01141+00701101491ADDAA106000091AA224000391KA1240M+02181KA2120N+00631MA1999999099361MD1110171+9999REMSYN088AAXX  03124 71752 16/// /0903 10114 20070 39936 40149 51017 60001 333 10218 20063 70003;EQDQ01  00002PRCP06
0196717520999992006050312004+42967-079333FM-12+0178CTWL V0200901N001519999999N9999999N1+01141+00701101491ADDAA106000091AA224000391KA1240M+02181KA2120N+00631MA1999999099361MD1110171+9999REMSYN088AAXX  03124 71752 16/// /0903 10114 20070 39936 40149 51017 60001 333 10218 20063 70003;EQDQ01  00002PRCP06
0196717520999992006050312004+42967-079333FM-12+0178CTWL V0200901N001519999999N9999999N1+01141+00701101491ADDAA106000091AA224000391KA1240M+02181KA2120N+00631MA1999999099361MD1110171+9999REMSYN088AAXX  03124 71752 16/// /0903 10114 20070 39936 40149 51017 60001 333 10218 20063 70003;EQDQ01  00002PRCP06
0196717520999992006050312004+42967-079333FM-12+0178CTWL V0200901N001519999999N9999999N1+01141+00701101491ADDAA106000091AA224000391KA1240M+02181KA2120N+00631MA1999999099361MD1110171+9999REMSYN088AAXX  03124 71752 16/// /0903 10114 20070 39936 40149 51017 60001 333 10218 20063 70003;EQDQ01  00002PRCP06
0196717520999992006050312004+42967-079333FM-12+0178CTWL V0200901N001519999999N9999999N1+01141+00701101491ADDAA106000091AA224000391KA1240M+02181KA2120N+00631MA1999999099361MD1110171+9999REMSYN088AAXX  03124 71752 16/// /0903 10114 20070 39936 40149 51017 60001 333 10218 20063 70003;EQDQ01  00002PRCP06
0196717520999992006050312004+42967-079333FM-12+0178CTWL V0200901N001519999999N9999999N1+01141+00701101491ADDAA106000091AA224000391KA1240M+02181KA2120N+00631MA1999999099361MD1110171+9999REMSYN088AAXX  03124 71752 16/// /0903 10114 20070 39936 40149 51017 60001 333 10218 20063 70003;EQDQ01  00002PRCP06
0196717520999992006050312004+42967-079333FM-12+0178CTWL V0200901N001519999999N9999999N1+01141+00701101491ADDAA106000091AA224000391KA1240M+02181KA2120N+00631MA1999999099361MD1110171+9999REMSYN088AAXX  03124 71752 16/// /0903 10114 20070 39936 40149 51017 60001 333 10218 20063 70003;EQDQ01  00002PRCP06
0196717520999992006050312004+42967-079333FM-12+0178CTWL V0200901N001519999999N9999999N1+01141+00701101491ADDAA106000091AA224000391KA1240M+02181KA2120N+00631MA1999999099361MD1110171+9999REMSYN088AAXX  03124 71752 16/// /0903 10114 20070 39936 40149 51017 60001 333 10218 20063 70003;EQDQ01  00002PRCP06
0196717520999992006050312004+42967-079333FM-12+0178CTWL V0200901N001519999999N9999999N1+01141+00701101491ADDAA106000091AA224000391KA1240M+02181KA2120N+00631MA1999999099361MD1110171+9999REMSYN088AAXX  03124 71752 16/// /0903 10114 20070 39936 40149 51017 60001 333 10218 20063 70003;EQDQ01  00002PRCP06
0196717520999992006050312004+42967-079333FM-12+0178CTWL V0200901N001519999999N9999999N1+01141+00701101491ADDAA106000091AA224000391KA1240M+02181KA2120N+00631MA1999999099361MD1110171+9999REMSYN088AAXX  03124 71752 16/// /0903 10114 20070 39936 40149 51017 60001 333 10218 20063 70003;EQDQ01  00002PRCP06
0196717520999992006050312004+42967-079333FM-12+0178CTWL V0200901N001519999999N9999999N1+01141+00701101491ADDAA106000091AA224000391KA1240M+02181KA2120N+00631MA1999999099361MD1110171+9999REMSYN088AAXX  03124 71752 16/// /0903 10114 20070 39936 40149 51017 60001 333 10218 20063 70003;EQDQ01  00002PRCP06
0196717520999992006050312004+42967-079333FM-12+0178CTWL V0200901N001519999999N9999999N1+01141+00701101491ADDAA106000091AA224000391KA1240M+02181KA2120N+00631MA1999999099361MD1110171+9999REMSYN088AAXX  03124 71752 16/// /0903 10114 20070 39936 40149 51017 60001 333 10218 20063 70003;EQDQ01  00002PRCP06
0196717520999992006050312004+42967-079333FM-12+0178CTWL V0200901N001519999999N9999999N1+01141+00701101491ADDAA106000091AA224000391KA1240M+02181KA2120N+00631MA1999999099361MD1110171+9999REMSYN088AAXX  03124 71752 16/// /0903 10114 20070 39936 40149 51017 60001 333 10218 20063 70003;EQDQ01  00002PRCP06
0196717520999992006050312004+42967-079333FM-12+0178CTWL V0200901N001519999999N9999999N1+01141+00701101491ADDAA106000091AA224000391KA1240M+02181KA2120N+00631MA1999999099361MD1110171+9999REMSYN088AAXX  03124 71752 16/// /0903 10114 20070 39936 40149 51017 60001 333 10218 20063 70003;EQDQ01  00002PRCP06
0196717520999992006050312004+42967-079333FM-12+0178CTWL V0200901N001519999999N9999999N1+01141+00701101491ADDAA106000091AA224000391KA1240M+02181KA2120N+00631MA1999999099361MD1110171+9999REMSYN088AAXX  03124 71752 16/// /0903 10114 20070 39936 40149 51017 60001 333 10218 20063 70003;EQDQ01  00002PRCP06
0196717520999992006050312004+42967-079333FM-12+0178CTWL V0200901N001519999999N9999999N1+01141+00701101491ADDAA106000091AA224000391KA1240M+02181KA2120N+00631MA1999999099361MD1110171+9999REMSYN088AAXX  03124 71752 16/// /0903 10114 20070 39936 40149 51017 60001 333 10218 20063 70003;EQDQ01  00002PRCP06
0196717520999992006050312004+42967-079333FM-12+0178CTWL V0200901N001519999999N9999999N1+01141+00701101491ADDAA106000091AA224000391KA1240M+02181KA2120N+00631MA1999999099361MD1110171+9999REMSYN088AAXX  03124 71752 16/// /0903 10114 20070 39936 40149 51017 60001 333 10218 20063 70003;EQDQ01  00002PRCP06
0196717520999992006050312004+42967-079333FM-12+0178CTWL V0200901N001519999999N9999999N1+01141+00701101491ADDAA106000091AA224000391KA1240M+02181KA2120N+00631MA1999999099361MD1110171+9999REMSYN088AAXX  03124 71752 16/// /0903 10114 20070 39936 40149 51017 60001 333 10218 20063 70003;EQDQ01  00002PRCP06
0196717520999992006050312004+42967-079333FM-12+0178CTWL V0200901N001519999999N9999999N1+01141+00701101491ADDAA106000091AA224000391KA1240M+02181KA2120N+00631MA1999999099361MD1110171+9999REMSYN088AAXX  03124 71752 16/// /0903 10114 20070 39936 40149 51017 60001 333 10218 20063 70003;EQDQ01  00002PRCP06
0196717520999992006050312004+42967-079333FM-12+0178CTWL V0200901N001519999999N9999999N1+01141+00701101491ADDAA106000091AA224000391KA1240M+02181KA2120N+00631MA1999999099361MD1110171+9999REMSYN088AAXX  03124 71752 16/// /0903 10114 20070 39936 40149 51017 60001 333 10218 20063 70003;EQDQ01  00002PRCP06
0196717520999992006050312004+42967-079333FM-12+0178CTWL V0200901N001519999999N9999999N1+01141+00701101491ADDAA106000091AA224000391KA1240M+02181KA2120N+00631MA1999999099361MD1110171+9999REMSYN088AAXX  03124 71752 16/// /0903 10114 20070 39936 40149 51017 60001 333 10218 20063 70003;EQDQ01  00002PRCP06
0196717520999992006050312004+42967-079333FM-12+0178CTWL V0200901N001519999999N9999999N1+01141+00701101491ADDAA106000091AA224000391KA1240M+02181KA2120N+00631MA1999999099361MD1110171+9999REMSYN088AAXX  03124 71752 16/// /0903 10114 20070 39936 40149 51017 60001 333 10218 20063 70003;EQDQ01  00002PRCP06
0196717520999992006050312004+42967-079333FM-12+0178CTWL V0200901N001519999999N9999999N1+01141+00701101491ADDAA106000091AA224000391KA1240M+02181KA2120N+00631MA1999999099361MD1110171+9999REMSYN088AAXX  03124 71752 16/// /0903 10114 20070 39936 40149 51017 60001 333 10218 20063 70003;EQDQ01  00002PRCP06
0196717520999992006050312004+42967-079333FM-12+0178CTWL V0200901N001519999999N9999999N1+01141+00701101491ADDAA106000091AA224000391KA1240M+02181KA2120N+00631MA1999999099361MD1110171+9999REMSYN088AAXX  03124 71752 16/// /0903 10114 20070 39936 40149 51017 60001 333 10218 20063 70003;EQDQ01  00002PRCP06
0196717520999992006050312004+42967-079333FM-12+0178CTWL V0200901N001519999999N9999999N1+01141+00701101491ADDAA106000091AA224000391KA1240M+02181KA2120N+00631MA1999999099361MD1110171+9999REMSYN088AAXX  03124 71752 16/// /0903 10114 20070 39936 40149 51017 60001 333 10218 20063 70003;EQDQ01  00002PRCP06
0196717520999992006050312004+42967-079333FM-12+0178CTWL V0200901N001519999999N9999999N1+01141+00701101491ADDAA106000091AA224000391KA1240M+02181KA2120N+00631MA1999999099361MD1110171+9999REMSYN088AAXX  03124 71752 16/// /0903 10114 20070 39936 40149 51017 60001 333 10218 20063 70003;EQDQ01  00002PRCP06
0196717520999992006050312004+42967-079333FM-12+0178CTWL V0200901N001519999999N9999999N1+01141+00701101491ADDAA106000091AA224000391KA1240M+02181KA2120N+00631MA1999999099361MD1110171+9999REMSYN088AAXX  03124 71752 16/// /0903 10114 20070 39936 40149 51017 60001 333 10218 20063 70003;EQDQ01  00002PRCP06
0196717520999992006050312004+42967-079333FM-12+0178CTWL V0200901N001519999999N9999999N1+01141+00701101491ADDAA106000091AA224000391KA1240M+02181KA2120N+00631MA1999999099361MD1110171+9999REMSYN088AAXX  03124 71752 16/// /0903 10114 20070 39936 40149 51017 60001 333 10218 20063 70003;EQDQ01  00002PRCP06
0196717520999992006050312004+42967-079333FM-12+0178CTWL V0200901N001519999999N9999999N1+01141+00701101491ADDAA106000091AA224000391KA1240M+02181KA2120N+00631MA1999999099361MD1110171+9999REMSYN088AAXX  03124 71752 16/// /0903 10114 20070 39936 40149 51017 60001 333 10218 20063 70003;EQDQ01  00002PRCP06
