0152162300999992007122414574+42433+014200FM-16+0011LIBP V0209999C000010030019N0003001N1+00801+00501999999ADDGA1041+000901999GA2081+003001999GF108991999999999999999999MA1102511999999MW1441REMMET061SPECI LIBP 241457Z 00000KT 0300 FG SCT003 OVC010 08/05 Q1025;
0152162300999992007122414574+42433+014200FM-16+0011LIBP V0209999C000010030019N0003001N1+00801+00501999999ADDGA1041+000901999GA2081+003001999GF108991999999999999999999MA1102511999999MW1441REMMET061SPECI LIBP 241457Z 00000KT 0300 FG SCT003 OVC010 08/05 Q1025;
0152162300999992007122414574+42433+014200FM-16+0011LIBP V0209999C000010030019N0003001N1+00801+00501999999ADDGA1041+000901999GA2081+003001999GF108991999999999999999999MA1102511999999MW1441REMMET061SPECI LIBP 241457Z 00000KT 0300 FG SCT003 OVC010 08/05 Q1025;
0152162300999992007122414574+42433+014200FM-16+0011LIBP V0209999C000010030019N0003001N1+00801+00501999999ADDGA1041+000901999GA2081+003001999GF108991999999999999999999MA1102511999999MW1441REMMET061SPECI LIBP 241457Z 00000KT 0300 FG SCT003 OVC010 08/05 Q1025;
0152162300999992007122414574+42433+014200FM-16+0011LIBP V0209999C000010030019N0003001N1+00801+00501999999ADDGA1041+000901999GA2081+003001999GF108991999999999999999999MA1102511999999MW1441REMMET061SPECI LIBP 241457Z 00000KT 0300 FG SCT003 OVC010 08/05 Q1025;
0152162300999992007122414574+42433+014200FM-16+0011LIBP V0209999C000010030019N0003001N1+00801+00501999999ADDGA1041+000901999GA2081+003001999GF108991999999999999999999MA1102511999999MW1441REMMET061SPECI LIBP 241457Z 00000KT 0300 FG SCT003 OVC010 08/05 Q1025;
0152162300999992007122414574+42433+014200FM-16+0011LIBP V0209999C000010030019N0003001N1+00801+00501999999ADDGA1041+000901999GA2081+003001999GF108991999999999999999999MA1102511999999MW1441REMMET061SPECI LIBP 241457Z 00000KT 0300 FG SCT003 OVC010 08/05 Q1025;
0152162300999992007122414574+42433+014200FM-16+0011LIBP V0209999C000010030019N0003001N1+00801+00501999999ADDGA1041+000901999GA2081+003001999GF108991999999999999999999MA1102511999999MW1441REMMET061SPECI LIBP 241457Z 00000KT 0300 FG SCT003 OVC010 08/05 Q1025;
0152162300999992007122414574+42433+014200FM-16+0011LIBP V0209999C000010030019N0003001N1+00801+00501999999ADDGA1041+000901999GA2081+003001999GF108991999999999999999999MA1102511999999MW1441REMMET061SPECI LIBP 241457Z 00000KT 0300 FG SCT003 OVC010 08/05 Q1025;
0152162300999992007122414574+42433+014200FM-16+0011LIBP V0209999C000010030019N0003001N1+00801+00501999999ADDGA1041+000901999GA2081+003001999GF108991999999999999999999MA1102511999999MW1441REMMET061SPECI LIBP 241457Z 00000KT 0300 FG SCT003 OVC010 08/05 Q1025;
0152162300999992007122414574+42433+014200FM-16+0011LIBP V0209999C000010030019N0003001N1+00801+00501999999ADDGA1041+000901999GA2081+003001999GF108991999999999999999999MA1102511999999MW1441REMMET061SPECI LIBP 241457Z 00000KT 0300 FG SCT003 OVC010 08/05 Q1025;
0152162300999992007122414574+42433+014200FM-16+0011LIBP V0209999C000010030019N0003001N1+00801+00501999999ADDGA1041+000901999GA2081+003001999GF108991999999999999999999MA1102511999999MW1441REMMET061SPECI LIBP 241457Z 00000KT 0300 FG SCT003 OVC010 08/05 Q1025;
0152162300999992007122414574+42433+014200FM-16+0011LIBP V0209999C000010030019N0003001N1+00801+00501999999ADDGA1041+000901999GA2081+003001999GF108991999999999999999999MA1102511999999MW1441REMMET061SPECI LIBP 241457Z 00000KT 0300 FG SCT003 OVC010 08/05 Q1025;
0152162300999992007122414574+42433+014200FM-16+0011LIBP V0209999C000010030019N0003001N1+00801+00501999999ADDGA1041+000901999GA2081+003001999GF108991999999999999999999MA1102511999999MW1441REMMET061SPECI LIBP 241457Z 00000KT 0300 FG SCT003 OVC010 08/05 Q1025;
0152162300999992007122414574+42433+014200FM-16+0011LIBP V0209999C000010030019N0003001N1+00801+00501999999ADDGA1041+000901999GA2081+003001999GF108991999999999999999999MA1102511999999MW1441REMMET061SPECI LIBP 241457Z 00000KT 0300 FG SCT003 OVC010 08/05 Q1025;
0152162300999992007122414574+42433+014200FM-16+0011LIBP V0209999C000010030019N0003001N1+00801+00501999999ADDGA1041+000901999GA2081+003001999GF108991999999999999999999MA1102511999999MW1441REMMET061SPECI LIBP 241457Z 00000KT 0300 FG SCT003 OVC010 08/05 Q1025;
0152162300999992007122414574+42433+014200FM-16+0011LIBP V0209999C000010030019N0003001N1+00801+00501999999ADDGA1041+000901999GA2081+003001999GF108991999999999999999999MA1102511999999MW1441REMMET061SPECI LIBP 241457Z 00000KT 0300 FG SCT003 OVC010 08/05 Q1025;
0152162300999992007122414574+42433+014200FM-16+0011LIBP V0209999C000010030019N0003001N1+00801+00501999999ADDGA1041+000901999GA2081+003001999GF108991999999999999999999MA1102511999999MW1441REMMET061SPECI LIBP 241457Z 00000KT 0300 FG SCT003 OVC010 08/05 Q1025;
0152162300999992007122414574+42433+014200FM-16+0011LIBP V0209999C000010030019N0003001N1+00801+00501999999ADDGA1041+000901999GA2081+003001999GF108991999999999999999999MA1102511999999MW1441REMMET061SPECI LIBP 241457Z 00000KT 0300 FG SCT003 OVC010 08/05 Q1025;
0152162300999992007122414574+42433+014200FM-16+0011LIBP V0209999C000010030019N0003001N1+00801+00501999999ADDGA1041+000901999GA2081+003001999GF108991999999999999999999MA1102511999999MW1441REMMET061SPECI LIBP 241457Z 00000KT 0300 FG SCT003 OVC010 08/05 Q1025;
0152162300999992007122414574+42433+014200FM-16+0011LIBP V0209999C000010030019N0003001N1+00801+00501999999ADDGA1041+000901999GA2081+003001999GF108991999999999999999999MA1102511999999MW1441REMMET061SPECI LIBP 241457Z 00000KT 0300 FG SCT003 OVC010 08/05 Q1025;
0152162300999992007122414574+42433+014200FM-16+0011LIBP V0209999C000010030019N0003001N1+00801+00501999999ADDGA1041+000901999GA2081+003001999GF108991999999999999999999MA1102511999999MW1441REMMET061SPECI LIBP 241457Z 00000KT 0300 FG SCT003 OVC010 08/05 Q1025;
0152162300999992007122414574+42433+014200FM-16+0011LIBP V0209999C000010030019N0003001N1+00801+00501999999ADDGA1041+000901999GA2081+003001999GF108991999999999999999999MA1102511999999MW1441REMMET061SPECI LIBP 241457Z 00000KT 0300 FG SCT003 OVC010 08/05 Q1025;
0152162300999992007122414574+42433+014200FM-16+0011LIBP V0209999C000010030019N0003001N1+00801+00501999999ADDGA1041+000901999GA2081+003001999GF108991999999999999999999MA1102511999999MW1441REMMET061SPECI LIBP 241457Z 00000KT 0300 FG SCT003 OVC010 08/05 Q1025;
0152162300999992007122414574+42433+014200FM-16+0011LIBP V0209999C000010030019N0003001N1+00801+00501999999ADDGA1041+000901999GA2081+003001999GF108991999999999999999999MA1102511999999MW1441REMMET061SPECI LIBP 241457Z 00000KT 0300 FG SCT003 OVC010 08/05 Q1025;
0152162300999992007122414574+42433+014200FM-16+0011LIBP V0209999C000010030019N0003001N1+00801+00501999999ADDGA1041+000901999GA2081+003001999GF108991999999999999999999MA1102511999999MW1441REMMET061SPECI LIBP 241457Z 00000KT 0300 FG SCT003 OVC010 08/05 Q1025;
0152162300999992007122414574+42433+014200FM-16+0011LIBP V0209999C000010030019N0003001N1+00801+00501999999ADDGA1041+000901999GA2081+003001999GF108991999999999999999999MA1102511999999MW1441REMMET061SPECI LIBP 241457Z 00000KT 0300 FG SCT003 OVC010 08/05 Q1025;
0152162300999992007122414574+42433+014200FM-16+0011LIBP V0209999C000010030019N0003001N1+00801+00501999999ADDGA1041+000901999GA2081+003001999GF108991999999999999999999MA1102511999999MW1441REMMET061SPECI LIBP 241457Z 00000KT 0300 FG SCT003 OVC010 08/05 Q1025;
0152162300999992007122414574+42433+014200FM-16+0011LIBP V0209999C000010030019N0003001N1+00801+00501999999ADDGA1041+000901999GA2081+003001999GF108991999999999999999999MA1102511999999MW1441REMMET061SPECI LIBP 241457Z 00000KT 0300 FG SCT003 OVC010 08/05 Q1025;
0152162300999992007122414574+42433+014200FM-16+0011LIBP V0209999C000010030019N0003001N1+00801+00501999999ADDGA1041+000901999GA2081+003001999GF108991999999999999999999MA1102511999999MW1441REMMET061SPECI LIBP 241457Z 00000KT 0300 FG SCT003 OVC010 08/05 Q1025;
0152162300999992007122414574+42433+014200FM-16+0011LIBP V0209999C000010030019N0003001N1+00801+00501999999ADDGA1041+000901999GA2081+003001999GF108991999999999999999999MA1102511999999MW1441REMMET061SPECI LIBP 241457Z 00000KT 0300 FG SCT003 OVC010 08/05 Q1025;
0152162300999992007122414574+42433+014200FM-16+0011LIBP V0209999C000010030019N0003001N1+00801+00501999999ADDGA1041+000901999GA2081+003001999GF108991999999999999999999MA1102511999999MW1441REMMET061SPECI LIBP 241457Z 00000KT 0300 FG SCT003 OVC010 08/05 Q1025;
0152162300999992007122414574+42433+014200FM-16+0011LIBP V0209999C000010030019N0003001N1+00801+00501999999ADDGA1041+000901999GA2081+003001999GF108991999999999999999999MA1102511999999MW1441REMMET061SPECI LIBP 241457Z 00000KT 0300 FG SCT003 OVC010 08/05 Q1025;
0152162300999992007122414574+42433+014200FM-16+0011LIBP V0209999C000010030019N0003001N1+00801+00501999999ADDGA1041+000901999GA2081+003001999GF108991999999999999999999MA1102511999999MW1441REMMET061SPECI LIBP 241457Z 00000KT 0300 FG SCT003 OVC010 08/05 Q1025;
0152162300999992007122414574+42433+014200FM-16+0011LIBP V0209999C000010030019N0003001N1+00801+00501999999ADDGA1041+000901999GA2081+003001999GF108991999999999999999999MA1102511999999MW1441REMMET061SPECI LIBP 241457Z 00000KT 0300 FG SCT003 OVC010 08/05 Q1025;
0152162300999992007122414574+42433+014200FM-16+0011LIBP V0209999C000010030019N0003001N1+00801+00501999999ADDGA1041+000901999GA2081+003001999GF108991999999999999999999MA1102511999999MW1441REMMET061SPECI LIBP 241457Z 00000KT 0300 FG SCT003 OVC010 08/05 Q1025;
0152162300999992007122414574+42433+014200FM-16+0011LIBP V0209999C000010030019N0003001N1+00801+00501999999ADDGA1041+000901999GA2081+003001999GF108991999999999999999999MA1102511999999MW1441REMMET061SPECI LIBP 241457Z 00000KT 0300 FG SCT003 OVC010 08/05 Q1025;
0152162300999992007122414574+42433+014200FM-16+0011LIBP V0209999C000010030019N0003001N1+00801+00501999999ADDGA1041+000901999GA2081+003001999GF108991999999999999999999MA1102511999999MW1441REMMET061SPECI LIBP 241457Z 00000KT 0300 FG SCT003 OVC010 08/05 Q1025;
0152162300999992007122414574+42433+014200FM-16+0011LIBP V0209999C000010030019N0003001N1+00801+00501999999ADDGA1041+000901999GA2081+003001999GF108991999999999999999999MA1102511999999MW1441REMMET061SPECI LIBP 241457Z 00000KT 0300 FG SCT003 OVC010 08/05 Q1025;
0152162300999992007122414574+42433+014200FM-16+0011LIBP V0209999C000010030019N0003001N1+00801+00501999999ADDGA1041+000901999GA2081+003001999GF108991999999999999999999MA1102511999999MW1441REMMET061SPECI LIBP 241457Z 00000KT 0300 FG SCT003 OVC010 08/05 Q1025;
0152162300999992007122414574+42433+014200FM-16+0011LIBP V0209999C000010030019N0003001N1+00801+00501999999ADDGA1041+000901999GA2081+003001999GF108991999999999999999999MA1102511999999MW1441REMMET061SPECI LIBP 241457Z 00000KT 0300 FG SCT003 OVC010 08/05 Q1025;
0152162300999992007122414574+42433+014200FM-16+0011LIBP V0209999C000010030019N0003001N1+00801+00501999999ADDGA1041+000901999GA2081+003001999GF108991999999999999999999MA1102511999999MW1441REMMET061SPECI LIBP 241457Z 00000KT 0300 FG SCT003 OVC010 08/05 Q1025;
0152162300999992007122414574+42433+014200FM-16+0011LIBP V0209999C000010030019N0003001N1+00801+00501999999ADDGA1041+000901999GA2081+003001999GF108991999999999999999999MA1102511999999MW1441REMMET061SPECI LIBP 241457Z 00000KT 0300 FG SCT003 OVC010 08/05 Q1025;
0152162300999992007122414574+42433+014200FM-16+0011LIBP V0209999C000010030019N0003001N1+00801+00501999999ADDGA1041+000901999GA2081+003001999GF108991999999999999999999MA1102511999999MW1441REMMET061SPECI LIBP 241457Z 00000KT 0300 FG SCT003 OVC010 08/05 Q1025;
0152162300999992007122414574+42433+014200FM-16+0011LIBP V0209999C000010030019N0003001N1+00801+00501999999ADDGA1041+000901999GA2081+003001999GF108991999999999999999999MA1102511999999MW1441REMMET061SPECI LIBP 241457Z 00000KT 0300 FG SCT003 OVC010 08/05 Q1025;
0152162300999992007122414574+42433+014200FM-16+0011LIBP V0209999C000010030019N0003001N1+00801+00501999999ADDGA1041+000901999GA2081+003001999GF108991999999999999999999MA1102511999999MW1441REMMET061SPECI LIBP 241457Z 00000KT 0300 FG SCT003 OVC010 08/05 Q1025;
0152162300999992007122414574+42433+014200FM-16+0011LIBP V0209999C000010030019N0003001N1+00801+00501999999ADDGA1041+000901999GA2081+003001999GF108991999999999999999999MA1102511999999MW1441REMMET061SPECI LIBP 241457Z 00000KT 0300 FG SCT003 OVC010 08/05 Q1025;
0152162300999992007122414574+42433+014200FM-16+0011LIBP V0209999C000010030019N0003001N1+00801+00501999999ADDGA1041+000901999GA2081+003001999GF108991999999999999999999MA1102511999999MW1441REMMET061SPECI LIBP 241457Z 00000KT 0300 FG SCT003 OVC010 08/05 Q1025;
0152162300999992007122414574+42433+014200FM-16+0011LIBP V0209999C000010030019N0003001N1+00801+00501999999ADDGA1041+000901999GA2081+003001999GF108991999999999999999999MA1102511999999MW1441REMMET061SPECI LIBP 241457Z 00000KT 0300 FG SCT003 OVC010 08/05 Q1025;
0152162300999992007122414574+42433+014200FM-16+0011LIBP V0209999C000010030019N0003001N1+00801+00501999999ADDGA1041+000901999GA2081+003001999GF108991999999999999999999MA1102511999999MW1441REMMET061SPECI LIBP 241457Z 00000KT 0300 FG SCT003 OVC010 08/05 Q1025;
0152162300999992007122414574+42433+014200FM-16+0011LIBP V0209999C000010030019N0003001N1+00801+00501999999ADDGA1041+000901999GA2081+003001999GF108991999999999999999999MA1102511999999MW1441REMMET061SPECI LIBP 241457Z 00000KT 0300 FG SCT003 OVC010 08/05 Q1025;
0152162300999992007122414574+42433+014200FM-16+0011LIBP V0209999C000010030019N0003001N1+00801+00501999999ADDGA1041+000901999GA2081+003001999GF108991999999999999999999MA1102511999999MW1441REMMET061SPECI LIBP 241457Z 00000KT 0300 FG SCT003 OVC010 08/05 Q1025;
0152162300999992007122414574+42433+014200FM-16+0011LIBP V0209999C000010030019N0003001N1+00801+00501999999ADDGA1041+000901999GA2081+003001999GF108991999999999999999999MA1102511999999MW1441REMMET061SPECI LIBP 241457Z 00000KT 0300 FG SCT003 OVC010 08/05 Q1025;
0152162300999992007122414574+42433+014200FM-16+0011LIBP V0209999C000010030019N0003001N1+00801+00501999999ADDGA1041+000901999GA2081+003001999GF108991999999999999999999MA1102511999999MW1441REMMET061SPECI LIBP 241457Z 00000KT 0300 FG SCT003 OVC010 08/05 Q1025;
0152162300999992007122414574+42433+014200FM-16+0011LIBP V0209999C000010030019N0003001N1+00801+00501999999ADDGA1041+000901999GA2081+003001999GF108991999999999999999999MA1102511999999MW1441REMMET061SPECI LIBP 241457Z 00000KT 0300 FG SCT003 OVC010 08/05 Q1025;
0152162300999992007122414574+42433+014200FM-16+0011LIBP V0209999C000010030019N0003001N1+00801+00501999999ADDGA1041+000901999GA2081+003001999GF108991999999999999999999MA1102511999999MW1441REMMET061SPECI LIBP 241457Z 00000KT 0300 FG SCT003 OVC010 08/05 Q1025;
0152162300999992007122414574+42433+014200FM-16+0011LIBP V0209999C000010030019N0003001N1+00801+00501999999ADDGA1041+000901999GA2081+003001999GF108991999999999999999999MA1102511999999MW1441REMMET061SPECI LIBP 241457Z 00000KT 0300 FG SCT003 OVC010 08/05 Q1025;
0152162300999992007122414574+42433+014200FM-16+0011LIBP V0209999C000010030019N0003001N1+00801+00501999999ADDGA1041+000901999GA2081+003001999GF108991999999999999999999MA1102511999999MW1441REMMET061SPECI LIBP 241457Z 00000KT 0300 FG SCT003 OVC010 08/05 Q1025;
0152162300999992007122414574+42433+014200FM-16+0011LIBP V0209999C000010030019N0003001N1+00801+00501999999ADDGA1041+000901999GA2081+003001999GF108991999999999999999999MA1102511999999MW1441REMMET061SPECI LIBP 241457Z 00000KT 0300 FG SCT003 OVC010 08/05 Q1025;
0152162300999992007122414574+42433+014200FM-16+0011LIBP V0209999C000010030019N0003001N1+00801+00501999999ADDGA1041+000901999GA2081+003001999GF108991999999999999999999MA1102511999999MW1441REMMET061SPECI LIBP 241457Z 00000KT 0300 FG SCT003 OVC010 08/05 Q1025;
0152162300999992007122414574+42433+014200FM-16+0011LIBP V0209999C000010030019N0003001N1+00801+00501999999ADDGA1041+000901999GA2081+003001999GF108991999999999999999999MA1102511999999MW1441REMMET061SPECI LIBP 241457Z 00000KT 0300 FG SCT003 OVC010 08/05 Q1025;
0152162300999992007122414574+42433+014200FM-16+0011LIBP V0209999C000010030019N0003001N1+00801+00501999999ADDGA1041+000901999GA2081+003001999GF108991999999999999999999MA1102511999999MW1441REMMET061SPECI LIBP 241457Z 00000KT 0300 FG SCT003 OVC010 08/05 Q1025;
0152162300999992007122414574+42433+014200FM-16+0011LIBP V0209999C000010030019N0003001N1+00801+00501999999ADDGA1041+000901999GA2081+003001999GF108991999999999999999999MA1102511999999MW1441REMMET061SPECI LIBP 241457Z 00000KT 0300 FG SCT003 OVC010 08/05 Q1025;
0152162300999992007122414574+42433+014200FM-16+0011LIBP V0209999C000010030019N0003001N1+00801+00501999999ADDGA1041+000901999GA2081+003001999GF108991999999999999999999MA1102511999999MW1441REMMET061SPECI LIBP 241457Z 00000KT 0300 FG SCT003 OVC010 08/05 Q1025;
0152162300999992007122414574+42433+014200FM-16+0011LIBP V0209999C000010030019N0003001N1+00801+00501999999ADDGA1041+000901999GA2081+003001999GF108991999999999999999999MA1102511999999MW1441REMMET061SPECI LIBP 241457Z 00000KT 0300 FG SCT003 OVC010 08/05 Q1025;
0152162300999992007122414574+42433+014200FM-16+0011LIBP V0209999C000010030019N0003001N1+00801+00501999999ADDGA1041+000901999GA2081+003001999GF108991999999999999999999MA1102511999999MW1441REMMET061SPECI LIBP 241457Z 00000KT 0300 FG SCT003 OVC010 08/05 Q1025;
0152162300999992007122414574+42433+014200FM-16+0011LIBP V0209999C000010030019N0003001N1+00801+00501999999ADDGA1041+000901999GA2081+003001999GF108991999999999999999999MA1102511999999MW1441REMMET061SPECI LIBP 241457Z 00000KT 0300 FG SCT003 OVC010 08/05 Q1025;
0152162300999992007122414574+42433+014200FM-16+0011LIBP V0209999C000010030019N0003001N1+00801+00501999999ADDGA1041+000901999GA2081+003001999GF108991999999999999999999MA1102511999999MW1441REMMET061SPECI LIBP 241457Z 00000KT 0300 FG SCT003 OVC010 08/05 Q1025;
0152162300999992007122414574+42433+014200FM-16+0011LIBP V0209999C000010030019N0003001N1+00801+00501999999ADDGA1041+000901999GA2081+003001999GF108991999999999999999999MA1102511999999MW1441REMMET061SPECI LIBP 241457Z 00000KT 0300 FG SCT003 OVC010 08/05 Q1025;
0152162300999992007122414574+42433+014200FM-16+0011LIBP V0209999C000010030019N0003001N1+00801+00501999999ADDGA1041+000901999GA2081+003001999GF108991999999999999999999MA1102511999999MW1441REMMET061SPECI LIBP 241457Z 00000KT 0300 FG SCT003 OVC010 08/05 Q1025;
0152162300999992007122414574+42433+014200FM-16+0011LIBP V0209999C000010030019N0003001N1+00801+00501999999ADDGA1041+000901999GA2081+003001999GF108991999999999999999999MA1102511999999MW1441REMMET061SPECI LIBP 241457Z 00000KT 0300 FG SCT003 OVC010 08/05 Q1025;
0152162300999992007122414574+42433+014200FM-16+0011LIBP V0209999C000010030019N0003001N1+00801+00501999999ADDGA1041+000901999GA2081+003001999GF108991999999999999999999MA1102511999999MW1441REMMET061SPECI LIBP 241457Z 00000KT 0300 FG SCT003 OVC010 08/05 Q1025;
0152162300999992007122414574+42433+014200FM-16+0011LIBP V0209999C000010030019N0003001N1+00801+00501999999ADDGA1041+000901999GA2081+003001999GF108991999999999999999999MA1102511999999MW1441REMMET061SPECI LIBP 241457Z 00000KT 0300 FG SCT003 OVC010 08/05 Q1025;
0152162300999992007122414574+42433+014200FM-16+0011LIBP V0209999C000010030019N0003001N1+00801+00501999999ADDGA1041+000901999GA2081+003001999GF108991999999999999999999MA1102511999999MW1441REMMET061SPECI LIBP 241457Z 00000KT 0300 FG SCT003 OVC010 08/05 Q1025;
0152162300999992007122414574+42433+014200FM-16+0011LIBP V0209999C000010030019N0003001N1+00801+00501999999ADDGA1041+000901999GA2081+003001999GF108991999999999999999999MA1102511999999MW1441REMMET061SPECI LIBP 241457Z 00000KT 0300 FG SCT003 OVC010 08/05 Q1025;
0152162300999992007122414574+42433+014200FM-16+0011LIBP V0209999C000010030019N0003001N1+00801+00501999999ADDGA1041+000901999GA2081+003001999GF108991999999999999999999MA1102511999999MW1441REMMET061SPECI LIBP 241457Z 00000KT 0300 FG SCT003 OVC010 08/05 Q1025;
0152162300999992007122414574+42433+014200FM-16+0011LIBP V0209999C000010030019N0003001N1+00801+00501999999ADDGA1041+000901999GA2081+003001999GF108991999999999999999999MA1102511999999MW1441REMMET061SPECI LIBP 241457Z 00000KT 0300 FG SCT003 OVC010 08/05 Q1025;
0152162300999992007122414574+42433+014200FM-16+0011LIBP V0209999C000010030019N0003001N1+00801+00501999999ADDGA1041+000901999GA2081+003001999GF108991999999999999999999MA1102511999999MW1441REMMET061SPECI LIBP 241457Z 00000KT 0300 FG SCT003 OVC010 08/05 Q1025;
0152162300999992007122414574+42433+014200FM-16+0011LIBP V0209999C000010030019N0003001N1+00801+00501999999ADDGA1041+000901999GA2081+003001999GF108991999999999999999999MA1102511999999MW1441REMMET061SPECI LIBP 241457Z 00000KT 0300 FG SCT003 OVC010 08/05 Q1025;
0152162300999992007122414574+42433+014200FM-16+0011LIBP V0209999C000010030019N0003001N1+00801+00501999999ADDGA1041+000901999GA2081+003001999GF108991999999999999999999MA1102511999999MW1441REMMET061SPECI LIBP 241457Z 00000KT 0300 FG SCT003 OVC010 08/05 Q1025;
0152162300999992007122414574+42433+014200FM-16+0011LIBP V0209999C000010030019N0003001N1+00801+00501999999ADDGA1041+000901999GA2081+003001999GF108991999999999999999999MA1102511999999MW1441REMMET061SPECI LIBP 241457Z 00000KT 0300 FG SCT003 OVC010 08/05 Q1025;
0152162300999992007122414574+42433+014200FM-16+0011LIBP V0209999C000010030019N0003001N1+00801+00501999999ADDGA1041+000901999GA2081+003001999GF108991999999999999999999MA1102511999999MW1441REMMET061SPECI LIBP 241457Z 00000KT 0300 FG SCT003 OVC010 08/05 Q1025;
0152162300999992007122414574+42433+014200FM-16+0011LIBP V0209999C000010030019N0003001N1+00801+00501999999ADDGA1041+000901999GA2081+003001999GF108991999999999999999999MA1102511999999MW1441REMMET061SPECI LIBP 241457Z 00000KT 0300 FG SCT003 OVC010 08/05 Q1025;
0152162300999992007122414574+42433+014200FM-16+0011LIBP V0209999C000010030019N0003001N1+00801+00501999999ADDGA1041+000901999GA2081+003001999GF108991999999999999999999MA1102511999999MW1441REMMET061SPECI LIBP 241457Z 00000KT 0300 FG SCT003 OVC010 08/05 Q1025;
0152162300999992007122414574+42433+014200FM-16+0011LIBP V0209999C000010030019N0003001N1+00801+00501999999ADDGA1041+000901999GA2081+003001999GF108991999999999999999999MA1102511999999MW1441REMMET061SPECI LIBP 241457Z 00000KT 0300 FG SCT003 OVC010 08/05 Q1025;
0152162300999992007122414574+42433+014200FM-16+0011LIBP V0209999C000010030019N0003001N1+00801+00501999999ADDGA1041+000901999GA2081+003001999GF108991999999999999999999MA1102511999999MW1441REMMET061SPECI LIBP 241457Z 00000KT 0300 FG SCT003 OVC010 08/05 Q1025;
0152162300999992007122414574+42433+014200FM-16+0011LIBP V0209999C000010030019N0003001N1+00801+00501999999ADDGA1041+000901999GA2081+003001999GF108991999999999999999999MA1102511999999MW1441REMMET061SPECI LIBP 241457Z 00000KT 0300 FG SCT003 OVC010 08/05 Q1025;
0152162300999992007122414574+42433+014200FM-16+0011LIBP V0209999C000010030019N0003001N1+00801+00501999999ADDGA1041+000901999GA2081+003001999GF108991999999999999999999MA1102511999999MW1441REMMET061SPECI LIBP 241457Z 00000KT 0300 FG SCT003 OVC010 08/05 Q1025;
0152162300999992007122414574+42433+014200FM-16+0011LIBP V0209999C000010030019N0003001N1+00801+00501999999ADDGA1041+000901999GA2081+003001999GF108991999999999999999999MA1102511999999MW1441REMMET061SPECI LIBP 241457Z 00000KT 0300 FG SCT003 OVC010 08/05 Q1025;
0152162300999992007122414574+42433+014200FM-16+0011LIBP V0209999C000010030019N0003001N1+00801+00501999999ADDGA1041+000901999GA2081+003001999GF108991999999999999999999MA1102511999999MW1441REMMET061SPECI LIBP 241457Z 00000KT 0300 FG SCT003 OVC010 08/05 Q1025;
0152162300999992007122414574+42433+014200FM-16+0011LIBP V0209999C000010030019N0003001N1+00801+00501999999ADDGA1041+000901999GA2081+003001999GF108991999999999999999999MA1102511999999MW1441REMMET061SPECI LIBP 241457Z 00000KT 0300 FG SCT003 OVC010 08/05 Q1025;
0152162300999992007122414574+42433+014200FM-16+0011LIBP V0209999C000010030019N0003001N1+00801+00501999999ADDGA1041+000901999GA2081+003001999GF108991999999999999999999MA1102511999999MW1441REMMET061SPECI LIBP 241457Z 00000KT 0300 FG SCT003 OVC010 08/05 Q1025;
0152162300999992007122414574+42433+014200FM-16+0011LIBP V0209999C000010030019N0003001N1+00801+00501999999ADDGA1041+000901999GA2081+003001999GF108991999999999999999999MA1102511999999MW1441REMMET061SPECI LIBP 241457Z 00000KT 0300 FG SCT003 OVC010 08/05 Q1025;
0152162300999992007122414574+42433+014200FM-16+0011LIBP V0209999C000010030019N0003001N1+00801+00501999999ADDGA1041+000901999GA2081+003001999GF108991999999999999999999MA1102511999999MW1441REMMET061SPECI LIBP 241457Z 00000KT 0300 FG SCT003 OVC010 08/05 Q1025;
0152162300999992007122414574+42433+014200FM-16+0011LIBP V0209999C000010030019N0003001N1+00801+00501999999ADDGA1041+000901999GA2081+003001999GF108991999999999999999999MA1102511999999MW1441REMMET061SPECI LIBP 241457Z 00000KT 0300 FG SCT003 OVC010 08/05 Q1025;
0152162300999992007122414574+42433+014200FM-16+0011LIBP V0209999C000010030019N0003001N1+00801+00501999999ADDGA1041+000901999GA2081+003001999GF108991999999999999999999MA1102511999999MW1441REMMET061SPECI LIBP 241457Z 00000KT 0300 FG SCT003 OVC010 08/05 Q1025;
0152162300999992007122414574+42433+014200FM-16+0011LIBP V0209999C000010030019N0003001N1+00801+00501999999ADDGA1041+000901999GA2081+003001999GF108991999999999999999999MA1102511999999MW1441REMMET061SPECI LIBP 241457Z 00000KT 0300 FG SCT003 OVC010 08/05 Q1025;
0152162300999992007122414574+42433+014200FM-16+0011LIBP V0209999C000010030019N0003001N1+00801+00501999999ADDGA1041+000901999GA2081+003001999GF108991999999999999999999MA1102511999999MW1441REMMET061SPECI LIBP 241457Z 00000KT 0300 FG SCT003 OVC010 08/05 Q1025;
0152162300999992007122414574+42433+014200FM-16+0011LIBP V0209999C000010030019N0003001N1+00801+00501999999ADDGA1041+000901999GA2081+003001999GF108991999999999999999999MA1102511999999MW1441REMMET061SPECI LIBP 241457Z 00000KT 0300 FG SCT003 OVC010 08/05 Q1025;
0152162300999992007122414574+42433+014200FM-16+0011LIBP V0209999C000010030019N0003001N1+00801+00501999999ADDGA1041+000901999GA2081+003001999GF108991999999999999999999MA1102511999999MW1441REMMET061SPECI LIBP 241457Z 00000KT 0300 FG SCT003 OVC010 08/05 Q1025;
0152162300999992007122414574+42433+014200FM-16+0011LIBP V0209999C000010030019N0003001N1+00801+00501999999ADDGA1041+000901999GA2081+003001999GF108991999999999999999999MA1102511999999MW1441REMMET061SPECI LIBP 241457Z 00000KT 0300 FG SCT003 OVC010 08/05 Q1025;
0152162300999992007122414574+42433+014200FM-16+0011LIBP V0209999C000010030019N0003001N1+00801+00501999999ADDGA1041+000901999GA2081+003001999GF108991999999999999999999MA1102511999999MW1441REMMET061SPECI LIBP 241457Z 00000KT 0300 FG SCT003 OVC010 08/05 Q1025;
0152162300999992007122414574+42433+014200FM-16+0011LIBP V0209999C000010030019N0003001N1+00801+00501999999ADDGA1041+000901999GA2081+003001999GF108991999999999999999999MA1102511999999MW1441REMMET061SPECI LIBP 241457Z 00000KT 0300 FG SCT003 OVC010 08/05 Q1025;
0152162300999992007122414574+42433+014200FM-16+0011LIBP V0209999C000010030019N0003001N1+00801+00501999999ADDGA1041+000901999GA2081+003001999GF108991999999999999999999MA1102511999999MW1441REMMET061SPECI LIBP 241457Z 00000KT 0300 FG SCT003 OVC010 08/05 Q1025;
0152162300999992007122414574+42433+014200FM-16+0011LIBP V0209999C000010030019N0003001N1+00801+00501999999ADDGA1041+000901999GA2081+003001999GF108991999999999999999999MA1102511999999MW1441REMMET061SPECI LIBP 241457Z 00000KT 0300 FG SCT003 OVC010 08/05 Q1025;
0152162300999992007122414574+42433+014200FM-16+0011LIBP V0209999C000010030019N0003001N1+00801+00501999999ADDGA1041+000901999GA2081+003001999GF108991999999999999999999MA1102511999999MW1441REMMET061SPECI LIBP 241457Z 00000KT 0300 FG SCT003 OVC010 08/05 Q1025;
0152162300999992007122414574+42433+014200FM-16+0011LIBP V0209999C000010030019N0003001N1+00801+00501999999ADDGA1041+000901999GA2081+003001999GF108991999999999999999999MA1102511999999MW1441REMMET061SPECI LIBP 241457Z 00000KT 0300 FG SCT003 OVC010 08/05 Q1025;
0152162300999992007122414574+42433+014200FM-16+0011LIBP V0209999C000010030019N0003001N1+00801+00501999999ADDGA1041+000901999GA2081+003001999GF108991999999999999999999MA1102511999999MW1441REMMET061SPECI LIBP 241457Z 00000KT 0300 FG SCT003 OVC010 08/05 Q1025;
0152162300999992007122414574+42433+014200FM-16+0011LIBP V0209999C000010030019N0003001N1+00801+00501999999ADDGA1041+000901999GA2081+003001999GF108991999999999999999999MA1102511999999MW1441REMMET061SPECI LIBP 241457Z 00000KT 0300 FG SCT003 OVC010 08/05 Q1025;
0152162300999992007122414574+42433+014200FM-16+0011LIBP V0209999C000010030019N0003001N1+00801+00501999999ADDGA1041+000901999GA2081+003001999GF108991999999999999999999MA1102511999999MW1441REMMET061SPECI LIBP 241457Z 00000KT 0300 FG SCT003 OVC010 08/05 Q1025;
0152162300999992007122414574+42433+014200FM-16+0011LIBP V0209999C000010030019N0003001N1+00801+00501999999ADDGA1041+000901999GA2081+003001999GF108991999999999999999999MA1102511999999MW1441REMMET061SPECI LIBP 241457Z 00000KT 0300 FG SCT003 OVC010 08/05 Q1025;
0152162300999992007122414574+42433+014200FM-16+0011LIBP V0209999C000010030019N0003001N1+00801+00501999999ADDGA1041+000901999GA2081+003001999GF108991999999999999999999MA1102511999999MW1441REMMET061SPECI LIBP 241457Z 00000KT 0300 FG SCT003 OVC010 08/05 Q1025;
0152162300999992007122414574+42433+014200FM-16+0011LIBP V0209999C000010030019N0003001N1+00801+00501999999ADDGA1041+000901999GA2081+003001999GF108991999999999999999999MA1102511999999MW1441REMMET061SPECI LIBP 241457Z 00000KT 0300 FG SCT003 OVC010 08/05 Q1025;
0152162300999992007122414574+42433+014200FM-16+0011LIBP V0209999C000010030019N0003001N1+00801+00501999999ADDGA1041+000901999GA2081+003001999GF108991999999999999999999MA1102511999999MW1441REMMET061SPECI LIBP 241457Z 00000KT 0300 FG SCT003 OVC010 08/05 Q1025;
0152162300999992007122414574+42433+014200FM-16+0011LIBP V0209999C000010030019N0003001N1+00801+00501999999ADDGA1041+000901999GA2081+003001999GF108991999999999999999999MA1102511999999MW1441REMMET061SPECI LIBP 241457Z 00000KT 0300 FG SCT003 OVC010 08/05 Q1025;
0152162300999992007122414574+42433+014200FM-16+0011LIBP V0209999C000010030019N0003001N1+00801+00501999999ADDGA1041+000901999GA2081+003001999GF108991999999999999999999MA1102511999999MW1441REMMET061SPECI LIBP 241457Z 00000KT 0300 FG SCT003 OVC010 08/05 Q1025;
0152162300999992007122414574+42433+014200FM-16+0011LIBP V0209999C000010030019N0003001N1+00801+00501999999ADDGA1041+000901999GA2081+003001999GF108991999999999999999999MA1102511999999MW1441REMMET061SPECI LIBP 241457Z 00000KT 0300 FG SCT003 OVC010 08/05 Q1025;
0152162300999992007122414574+42433+014200FM-16+0011LIBP V0209999C000010030019N0003001N1+00801+00501999999ADDGA1041+000901999GA2081+003001999GF108991999999999999999999MA1102511999999MW1441REMMET061SPECI LIBP 241457Z 00000KT 0300 FG SCT003 OVC010 08/05 Q1025;
0152162300999992007122414574+42433+014200FM-16+0011LIBP V0209999C000010030019N0003001N1+00801+00501999999ADDGA1041+000901999GA2081+003001999GF108991999999999999999999MA1102511999999MW1441REMMET061SPECI LIBP 241457Z 00000KT 0300 FG SCT003 OVC010 08/05 Q1025;
0152162300999992007122414574+42433+014200FM-16+0011LIBP V0209999C000010030019N0003001N1+00801+00501999999ADDGA1041+000901999GA2081+003001999GF108991999999999999999999MA1102511999999MW1441REMMET061SPECI LIBP 241457Z 00000KT 0300 FG SCT003 OVC010 08/05 Q1025;
0152162300999992007122414574+42433+014200FM-16+0011LIBP V0209999C000010030019N0003001N1+00801+00501999999ADDGA1041+000901999GA2081+003001999GF108991999999999999999999MA1102511999999MW1441REMMET061SPECI LIBP 241457Z 00000KT 0300 FG SCT003 OVC010 08/05 Q1025;
0152162300999992007122414574+42433+014200FM-16+0011LIBP V0209999C000010030019N0003001N1+00801+00501999999ADDGA1041+000901999GA2081+003001999GF108991999999999999999999MA1102511999999MW1441REMMET061SPECI LIBP 241457Z 00000KT 0300 FG SCT003 OVC010 08/05 Q1025;
0152162300999992007122414574+42433+014200FM-16+0011LIBP V0209999C000010030019N0003001N1+00801+00501999999ADDGA1041+000901999GA2081+003001999GF108991999999999999999999MA1102511999999MW1441REMMET061SPECI LIBP 241457Z 00000KT 0300 FG SCT003 OVC010 08/05 Q1025;
0152162300999992007122414574+42433+014200FM-16+0011LIBP V0209999C000010030019N0003001N1+00801+00501999999ADDGA1041+000901999GA2081+003001999GF108991999999999999999999MA1102511999999MW1441REMMET061SPECI LIBP 241457Z 00000KT 0300 FG SCT003 OVC010 08/05 Q1025;
0152162300999992007122414574+42433+014200FM-16+0011LIBP V0209999C000010030019N0003001N1+00801+00501999999ADDGA1041+000901999GA2081+003001999GF108991999999999999999999MA1102511999999MW1441REMMET061SPECI LIBP 241457Z 00000KT 0300 FG SCT003 OVC010 08/05 Q1025;
0152162300999992007122414574+42433+014200FM-16+0011LIBP V0209999C000010030019N0003001N1+00801+00501999999ADDGA1041+000901999GA2081+003001999GF108991999999999999999999MA1102511999999MW1441REMMET061SPECI LIBP 241457Z 00000KT 0300 FG SCT003 OVC010 08/05 Q1025;
0152162300999992007122414574+42433+014200FM-16+0011LIBP V0209999C000010030019N0003001N1+00801+00501999999ADDGA1041+000901999GA2081+003001999GF108991999999999999999999MA1102511999999MW1441REMMET061SPECI LIBP 241457Z 00000KT 0300 FG SCT003 OVC010 08/05 Q1025;
0152162300999992007122414574+42433+014200FM-16+0011LIBP V0209999C000010030019N0003001N1+00801+00501999999ADDGA1041+000901999GA2081+003001999GF108991999999999999999999MA1102511999999MW1441REMMET061SPECI LIBP 241457Z 00000KT 0300 FG SCT003 OVC010 08/05 Q1025;
0152162300999992007122414574+42433+014200FM-16+0011LIBP V0209999C000010030019N0003001N1+00801+00501999999ADDGA1041+000901999GA2081+003001999GF108991999999999999999999MA1102511999999MW1441REMMET061SPECI LIBP 241457Z 00000KT 0300 FG SCT003 OVC010 08/05 Q1025;
0152162300999992007122414574+42433+014200FM-16+0011LIBP V0209999C000010030019N0003001N1+00801+00501999999ADDGA1041+000901999GA2081+003001999GF108991999999999999999999MA1102511999999MW1441REMMET061SPECI LIBP 241457Z 00000KT 0300 FG SCT003 OVC010 08/05 Q1025;
0152162300999992007122414574+42433+014200FM-16+0011LIBP V0209999C000010030019N0003001N1+00801+00501999999ADDGA1041+000901999GA2081+003001999GF108991999999999999999999MA1102511999999MW1441REMMET061SPECI LIBP 241457Z 00000KT 0300 FG SCT003 OVC010 08/05 Q1025;
0152162300999992007122414574+42433+014200FM-16+0011LIBP V0209999C000010030019N0003001N1+00801+00501999999ADDGA1041+000901999GA2081+003001999GF108991999999999999999999MA1102511999999MW1441REMMET061SPECI LIBP 241457Z 00000KT 0300 FG SCT003 OVC010 08/05 Q1025;
0152162300999992007122414574+42433+014200FM-16+0011LIBP V0209999C000010030019N0003001N1+00801+00501999999ADDGA1041+000901999GA2081+003001999GF108991999999999999999999MA1102511999999MW1441REMMET061SPECI LIBP 241457Z 00000KT 0300 FG SCT003 OVC010 08/05 Q1025;
0152162300999992007122414574+42433+014200FM-16+0011LIBP V0209999C000010030019N0003001N1+00801+00501999999ADDGA1041+000901999GA2081+003001999GF108991999999999999999999MA1102511999999MW1441REMMET061SPECI LIBP 241457Z 00000KT 0300 FG SCT003 OVC010 08/05 Q1025;
0152162300999992007122414574+42433+014200FM-16+0011LIBP V0209999C000010030019N0003001N1+00801+00501999999ADDGA1041+000901999GA2081+003001999GF108991999999999999999999MA1102511999999MW1441REMMET061SPECI LIBP 241457Z 00000KT 0300 FG SCT003 OVC010 08/05 Q1025;
0152162300999992007122414574+42433+014200FM-16+0011LIBP V0209999C000010030019N0003001N1+00801+00501999999ADDGA1041+000901999GA2081+003001999GF108991999999999999999999MA1102511999999MW1441REMMET061SPECI LIBP 241457Z 00000KT 0300 FG SCT003 OVC010 08/05 Q1025;
0152162300999992007122414574+42433+014200FM-16+0011LIBP V0209999C000010030019N0003001N1+00801+00501999999ADDGA1041+000901999GA2081+003001999GF108991999999999999999999MA1102511999999MW1441REMMET061SPECI LIBP 241457Z 00000KT 0300 FG SCT003 OVC010 08/05 Q1025;
0152162300999992007122414574+42433+014200FM-16+0011LIBP V0209999C000010030019N0003001N1+00801+00501999999ADDGA1041+000901999GA2081+003001999GF108991999999999999999999MA1102511999999MW1441REMMET061SPECI LIBP 241457Z 00000KT 0300 FG SCT003 OVC010 08/05 Q1025;
0152162300999992007122414574+42433+014200FM-16+0011LIBP V0209999C000010030019N0003001N1+00801+00501999999ADDGA1041+000901999GA2081+003001999GF108991999999999999999999MA1102511999999MW1441REMMET061SPECI LIBP 241457Z 00000KT 0300 FG SCT003 OVC010 08/05 Q1025;
0152162300999992007122414574+42433+014200FM-16+0011LIBP V0209999C000010030019N0003001N1+00801+00501999999ADDGA1041+000901999GA2081+003001999GF108991999999999999999999MA1102511999999MW1441REMMET061SPECI LIBP 241457Z 00000KT 0300 FG SCT003 OVC010 08/05 Q1025;
0152162300999992007122414574+42433+014200FM-16+0011LIBP V0209999C000010030019N0003001N1+00801+00501999999ADDGA1041+000901999GA2081+003001999GF108991999999999999999999MA1102511999999MW1441REMMET061SPECI LIBP 241457Z 00000KT 0300 FG SCT003 OVC010 08/05 Q1025;
0152162300999992007122414574+42433+014200FM-16+0011LIBP V0209999C000010030019N0003001N1+00801+00501999999ADDGA1041+000901999GA2081+003001999GF108991999999999999999999MA1102511999999MW1441REMMET061SPECI LIBP 241457Z 00000KT 0300 FG SCT003 OVC010 08/05 Q1025;
0152162300999992007122414574+42433+014200FM-16+0011LIBP V0209999C000010030019N0003001N1+00801+00501999999ADDGA1041+000901999GA2081+003001999GF108991999999999999999999MA1102511999999MW1441REMMET061SPECI LIBP 241457Z 00000KT 0300 FG SCT003 OVC010 08/05 Q1025;
0152162300999992007122414574+42433+014200FM-16+0011LIBP V0209999C000010030019N0003001N1+00801+00501999999ADDGA1041+000901999GA2081+003001999GF108991999999999999999999MA1102511999999MW1441REMMET061SPECI LIBP 241457Z 00000KT 0300 FG SCT003 OVC010 08/05 Q1025;
0152162300999992007122414574+42433+014200FM-16+0011LIBP V0209999C000010030019N0003001N1+00801+00501999999ADDGA1041+000901999GA2081+003001999GF108991999999999999999999MA1102511999999MW1441REMMET061SPECI LIBP 241457Z 00000KT 0300 FG SCT003 OVC010 08/05 Q1025;
0152162300999992007122414574+42433+014200FM-16+0011LIBP V0209999C000010030019N0003001N1+00801+00501999999ADDGA1041+000901999GA2081+003001999GF108991999999999999999999MA1102511999999MW1441REMMET061SPECI LIBP 241457Z 00000KT 0300 FG SCT003 OVC010 08/05 Q1025;
0152162300999992007122414574+42433+014200FM-16+0011LIBP V0209999C000010030019N0003001N1+00801+00501999999ADDGA1041+000901999GA2081+003001999GF108991999999999999999999MA1102511999999MW1441REMMET061SPECI LIBP 241457Z 00000KT 0300 FG SCT003 OVC010 08/05 Q1025;
0152162300999992007122414574+42433+014200FM-16+0011LIBP V0209999C000010030019N0003001N1+00801+00501999999ADDGA1041+000901999GA2081+003001999GF108991999999999999999999MA1102511999999MW1441REMMET061SPECI LIBP 241457Z 00000KT 0300 FG SCT003 OVC010 08/05 Q1025;
0152162300999992007122414574+42433+014200FM-16+0011LIBP V0209999C000010030019N0003001N1+00801+00501999999ADDGA1041+000901999GA2081+003001999GF108991999999999999999999MA1102511999999MW1441REMMET061SPECI LIBP 241457Z 00000KT 0300 FG SCT003 OVC010 08/05 Q1025;
0152162300999992007122414574+42433+014200FM-16+0011LIBP V0209999C000010030019N0003001N1+00801+00501999999ADDGA1041+000901999GA2081+003001999GF108991999999999999999999MA1102511999999MW1441REMMET061SPECI LIBP 241457Z 00000KT 0300 FG SCT003 OVC010 08/05 Q1025;
0152162300999992007122414574+42433+014200FM-16+0011LIBP V0209999C000010030019N0003001N1+00801+00501999999ADDGA1041+000901999GA2081+003001999GF108991999999999999999999MA1102511999999MW1441REMMET061SPECI LIBP 241457Z 00000KT 0300 FG SCT003 OVC010 08/05 Q1025;
0152162300999992007122414574+42433+014200FM-16+0011LIBP V0209999C000010030019N0003001N1+00801+00501999999ADDGA1041+000901999GA2081+003001999GF108991999999999999999999MA1102511999999MW1441REMMET061SPECI LIBP 241457Z 00000KT 0300 FG SCT003 OVC010 08/05 Q1025;
0152162300999992007122414574+42433+014200FM-16+0011LIBP V0209999C000010030019N0003001N1+00801+00501999999ADDGA1041+000901999GA2081+003001999GF108991999999999999999999MA1102511999999MW1441REMMET061SPECI LIBP 241457Z 00000KT 0300 FG SCT003 OVC010 08/05 Q1025;
0152162300999992007122414574+42433+014200FM-16+0011LIBP V0209999C000010030019N0003001N1+00801+00501999999ADDGA1041+000901999GA2081+003001999GF108991999999999999999999MA1102511999999MW1441REMMET061SPECI LIBP 241457Z 00000KT 0300 FG SCT003 OVC010 08/05 Q1025;
0152162300999992007122414574+42433+014200FM-16+0011LIBP V0209999C000010030019N0003001N1+00801+00501999999ADDGA1041+000901999GA2081+003001999GF108991999999999999999999MA1102511999999MW1441REMMET061SPECI LIBP 241457Z 00000KT 0300 FG SCT003 OVC010 08/05 Q1025;
0152162300999992007122414574+42433+014200FM-16+0011LIBP V0209999C000010030019N0003001N1+00801+00501999999ADDGA1041+000901999GA2081+003001999GF108991999999999999999999MA1102511999999MW1441REMMET061SPECI LIBP 241457Z 00000KT 0300 FG SCT003 OVC010 08/05 Q1025;
0152162300999992007122414574+42433+014200FM-16+0011LIBP V0209999C000010030019N0003001N1+00801+00501999999ADDGA1041+000901999GA2081+003001999GF108991999999999999999999MA1102511999999MW1441REMMET061SPECI LIBP 241457Z 00000KT 0300 FG SCT003 OVC010 08/05 Q1025;
0152162300999992007122414574+42433+014200FM-16+0011LIBP V0209999C000010030019N0003001N1+00801+00501999999ADDGA1041+000901999GA2081+003001999GF108991999999999999999999MA1102511999999MW1441REMMET061SPECI LIBP 241457Z 00000KT 0300 FG SCT003 OVC010 08/05 Q1025;
0152162300999992007122414574+42433+014200FM-16+0011LIBP V0209999C000010030019N0003001N1+00801+00501999999ADDGA1041+000901999GA2081+003001999GF108991999999999999999999MA1102511999999MW1441REMMET061SPECI LIBP 241457Z 00000KT 0300 FG SCT003 OVC010 08/05 Q1025;
0152162300999992007122414574+42433+014200FM-16+0011LIBP V0209999C000010030019N0003001N1+00801+00501999999ADDGA1041+000901999GA2081+003001999GF108991999999999999999999MA1102511999999MW1441REMMET061SPECI LIBP 241457Z 00000KT 0300 FG SCT003 OVC010 08/05 Q1025;
0152162300999992007122414574+42433+014200FM-16+0011LIBP V0209999C000010030019N0003001N1+00801+00501999999ADDGA1041+000901999GA2081+003001999GF108991999999999999999999MA1102511999999MW1441REMMET061SPECI LIBP 241457Z 00000KT 0300 FG SCT003 OVC010 08/05 Q1025;
0152162300999992007122414574+42433+014200FM-16+0011LIBP V0209999C000010030019N0003001N1+00801+00501999999ADDGA1041+000901999GA2081+003001999GF108991999999999999999999MA1102511999999MW1441REMMET061SPECI LIBP 241457Z 00000KT 0300 FG SCT003 OVC010 08/05 Q1025;
0152162300999992007122414574+42433+014200FM-16+0011LIBP V0209999C000010030019N0003001N1+00801+00501999999ADDGA1041+000901999GA2081+003001999GF108991999999999999999999MA1102511999999MW1441REMMET061SPECI LIBP 241457Z 00000KT 0300 FG SCT003 OVC010 08/05 Q1025;
0152162300999992007122414574+42433+014200FM-16+0011LIBP V0209999C000010030019N0003001N1+00801+00501999999ADDGA1041+000901999GA2081+003001999GF108991999999999999999999MA1102511999999MW1441REMMET061SPECI LIBP 241457Z 00000KT 0300 FG SCT003 OVC010 08/05 Q1025;
0152162300999992007122414574+42433+014200FM-16+0011LIBP V0209999C000010030019N0003001N1+00801+00501999999ADDGA1041+000901999GA2081+003001999GF108991999999999999999999MA1102511999999MW1441REMMET061SPECI LIBP 241457Z 00000KT 0300 FG SCT003 OVC010 08/05 Q1025;
0152162300999992007122414574+42433+014200FM-16+0011LIBP V0209999C000010030019N0003001N1+00801+00501999999ADDGA1041+000901999GA2081+003001999GF108991999999999999999999MA1102511999999MW1441REMMET061SPECI LIBP 241457Z 00000KT 0300 FG SCT003 OVC010 08/05 Q1025;
0152162300999992007122414574+42433+014200FM-16+0011LIBP V0209999C000010030019N0003001N1+00801+00501999999ADDGA1041+000901999GA2081+003001999GF108991999999999999999999MA1102511999999MW1441REMMET061SPECI LIBP 241457Z 00000KT 0300 FG SCT003 OVC010 08/05 Q1025;
0152162300999992007122414574+42433+014200FM-16+0011LIBP V0209999C000010030019N0003001N1+00801+00501999999ADDGA1041+000901999GA2081+003001999GF108991999999999999999999MA1102511999999MW1441REMMET061SPECI LIBP 241457Z 00000KT 0300 FG SCT003 OVC010 08/05 Q1025;
0152162300999992007122414574+42433+014200FM-16+0011LIBP V0209999C000010030019N0003001N1+00801+00501999999ADDGA1041+000901999GA2081+003001999GF108991999999999999999999MA1102511999999MW1441REMMET061SPECI LIBP 241457Z 00000KT 0300 FG SCT003 OVC010 08/05 Q1025;
0152162300999992007122414574+42433+014200FM-16+0011LIBP V0209999C000010030019N0003001N1+00801+00501999999ADDGA1041+000901999GA2081+003001999GF108991999999999999999999MA1102511999999MW1441REMMET061SPECI LIBP 241457Z 00000KT 0300 FG SCT003 OVC010 08/05 Q1025;
0152162300999992007122414574+42433+014200FM-16+0011LIBP V0209999C000010030019N0003001N1+00801+00501999999ADDGA1041+000901999GA2081+003001999GF108991999999999999999999MA1102511999999MW1441REMMET061SPECI LIBP 241457Z 00000KT 0300 FG SCT003 OVC010 08/05 Q1025;
0152162300999992007122414574+42433+014200FM-16+0011LIBP V0209999C000010030019N0003001N1+00801+00501999999ADDGA1041+000901999GA2081+003001999GF108991999999999999999999MA1102511999999MW1441REMMET061SPECI LIBP 241457Z 00000KT 0300 FG SCT003 OVC010 08/05 Q1025;
0152162300999992007122414574+42433+014200FM-16+0011LIBP V0209999C000010030019N0003001N1+00801+00501999999ADDGA1041+000901999GA2081+003001999GF108991999999999999999999MA1102511999999MW1441REMMET061SPECI LIBP 241457Z 00000KT 0300 FG SCT003 OVC010 08/05 Q1025;
0152162300999992007122414574+42433+014200FM-16+0011LIBP V0209999C000010030019N0003001N1+00801+00501999999ADDGA1041+000901999GA2081+003001999GF108991999999999999999999MA1102511999999MW1441REMMET061SPECI LIBP 241457Z 00000KT 0300 FG SCT003 OVC010 08/05 Q1025;
0152162300999992007122414574+42433+014200FM-16+0011LIBP V0209999C000010030019N0003001N1+00801+00501999999ADDGA1041+000901999GA2081+003001999GF108991999999999999999999MA1102511999999MW1441REMMET061SPECI LIBP 241457Z 00000KT 0300 FG SCT003 OVC010 08/05 Q1025;
0152162300999992007122414574+42433+014200FM-16+0011LIBP V0209999C000010030019N0003001N1+00801+00501999999ADDGA1041+000901999GA2081+003001999GF108991999999999999999999MA1102511999999MW1441REMMET061SPECI LIBP 241457Z 00000KT 0300 FG SCT003 OVC010 08/05 Q1025;
0152162300999992007122414574+42433+014200FM-16+0011LIBP V0209999C000010030019N0003001N1+00801+00501999999ADDGA1041+000901999GA2081+003001999GF108991999999999999999999MA1102511999999MW1441REMMET061SPECI LIBP 241457Z 00000KT 0300 FG SCT003 OVC010 08/05 Q1025;
0152162300999992007122414574+42433+014200FM-16+0011LIBP V0209999C000010030019N0003001N1+00801+00501999999ADDGA1041+000901999GA2081+003001999GF108991999999999999999999MA1102511999999MW1441REMMET061SPECI LIBP 241457Z 00000KT 0300 FG SCT003 OVC010 08/05 Q1025;
0152162300999992007122414574+42433+014200FM-16+0011LIBP V0209999C000010030019N0003001N1+00801+00501999999ADDGA1041+000901999GA2081+003001999GF108991999999999999999999MA1102511999999MW1441REMMET061SPECI LIBP 241457Z 00000KT 0300 FG SCT003 OVC010 08/05 Q1025;
0152162300999992007122414574+42433+014200FM-16+0011LIBP V0209999C000010030019N0003001N1+00801+00501999999ADDGA1041+000901999GA2081+003001999GF108991999999999999999999MA1102511999999MW1441REMMET061SPECI LIBP 241457Z 00000KT 0300 FG SCT003 OVC010 08/05 Q1025;
0152162300999992007122414574+42433+014200FM-16+0011LIBP V0209999C000010030019N0003001N1+00801+00501999999ADDGA1041+000901999GA2081+003001999GF108991999999999999999999MA1102511999999MW1441REMMET061SPECI LIBP 241457Z 00000KT 0300 FG SCT003 OVC010 08/05 Q1025;
0152162300999992007122414574+42433+014200FM-16+0011LIBP V0209999C000010030019N0003001N1+00801+00501999999ADDGA1041+000901999GA2081+003001999GF108991999999999999999999MA1102511999999MW1441REMMET061SPECI LIBP 241457Z 00000KT 0300 FG SCT003 OVC010 08/05 Q1025;
0152162300999992007122414574+42433+014200FM-16+0011LIBP V0209999C000010030019N0003001N1+00801+00501999999ADDGA1041+000901999GA2081+003001999GF108991999999999999999999MA1102511999999MW1441REMMET061SPECI LIBP 241457Z 00000KT 0300 FG SCT003 OVC010 08/05 Q1025;
0152162300999992007122414574+42433+014200FM-16+0011LIBP V0209999C000010030019N0003001N1+00801+00501999999ADDGA1041+000901999GA2081+003001999GF108991999999999999999999MA1102511999999MW1441REMMET061SPECI LIBP 241457Z 00000KT 0300 FG SCT003 OVC010 08/05 Q1025;
0152162300999992007122414574+42433+014200FM-16+0011LIBP V0209999C000010030019N0003001N1+00801+00501999999ADDGA1041+000901999GA2081+003001999GF108991999999999999999999MA1102511999999MW1441REMMET061SPECI LIBP 241457Z 00000KT 0300 FG SCT003 OVC010 08/05 Q1025;
0152162300999992007122414574+42433+014200FM-16+0011LIBP V0209999C000010030019N0003001N1+00801+00501999999ADDGA1041+000901999GA2081+003001999GF108991999999999999999999MA1102511999999MW1441REMMET061SPECI LIBP 241457Z 00000KT 0300 FG SCT003 OVC010 08/05 Q1025;
0152162300999992007122414574+42433+014200FM-16+0011LIBP V0209999C000010030019N0003001N1+00801+00501999999ADDGA1041+000901999GA2081+003001999GF108991999999999999999999MA1102511999999MW1441REMMET061SPECI LIBP 241457Z 00000KT 0300 FG SCT003 OVC010 08/05 Q1025;
0152162300999992007122414574+42433+014200FM-16+0011LIBP V0209999C000010030019N0003001N1+00801+00501999999ADDGA1041+000901999GA2081+003001999GF108991999999999999999999MA1102511999999MW1441REMMET061SPECI LIBP 241457Z 00000KT 0300 FG SCT003 OVC010 08/05 Q1025;
0152162300999992007122414574+42433+014200FM-16+0011LIBP V0209999C000010030019N0003001N1+00801+00501999999ADDGA1041+000901999GA2081+003001999GF108991999999999999999999MA1102511999999MW1441REMMET061SPECI LIBP 241457Z 00000KT 0300 FG SCT003 OVC010 08/05 Q1025;
0152162300999992007122414574+42433+014200FM-16+0011LIBP V0209999C000010030019N0003001N1+00801+00501999999ADDGA1041+000901999GA2081+003001999GF108991999999999999999999MA1102511999999MW1441REMMET061SPECI LIBP 241457Z 00000KT 0300 FG SCT003 OVC010 08/05 Q1025;
0152162300999992007122414574+42433+014200FM-16+0011LIBP V0209999C000010030019N0003001N1+00801+00501999999ADDGA1041+000901999GA2081+003001999GF108991999999999999999999MA1102511999999MW1441REMMET061SPECI LIBP 241457Z 00000KT 0300 FG SCT003 OVC010 08/05 Q1025;
0152162300999992007122414574+42433+014200FM-16+0011LIBP V0209999C000010030019N0003001N1+00801+00501999999ADDGA1041+000901999GA2081+003001999GF108991999999999999999999MA1102511999999MW1441REMMET061SPECI LIBP 241457Z 00000KT 0300 FG SCT003 OVC010 08/05 Q1025;
0152162300999992007122414574+42433+014200FM-16+0011LIBP V0209999C000010030019N0003001N1+00801+00501999999ADDGA1041+000901999GA2081+003001999GF108991999999999999999999MA1102511999999MW1441REMMET061SPECI LIBP 241457Z 00000KT 0300 FG SCT003 OVC010 08/05 Q1025;
0152162300999992007122414574+42433+014200FM-16+0011LIBP V0209999C000010030019N0003001N1+00801+00501999999ADDGA1041+000901999GA2081+003001999GF108991999999999999999999MA1102511999999MW1441REMMET061SPECI LIBP 241457Z 00000KT 0300 FG SCT003 OVC010 08/05 Q1025;
0152162300999992007122414574+42433+014200FM-16+0011LIBP V0209999C000010030019N0003001N1+00801+00501999999ADDGA1041+000901999GA2081+003001999GF108991999999999999999999MA1102511999999MW1441REMMET061SPECI LIBP 241457Z 00000KT 0300 FG SCT003 OVC010 08/05 Q1025;
0152162300999992007122414574+42433+014200FM-16+0011LIBP V0209999C000010030019N0003001N1+00801+00501999999ADDGA1041+000901999GA2081+003001999GF108991999999999999999999MA1102511999999MW1441REMMET061SPECI LIBP 241457Z 00000KT 0300 FG SCT003 OVC010 08/05 Q1025;
0152162300999992007122414574+42433+014200FM-16+0011LIBP V0209999C000010030019N0003001N1+00801+00501999999ADDGA1041+000901999GA2081+003001999GF108991999999999999999999MA1102511999999MW1441REMMET061SPECI LIBP 241457Z 00000KT 0300 FG SCT003 OVC010 08/05 Q1025;
0152162300999992007122414574+42433+014200FM-16+0011LIBP V0209999C000010030019N0003001N1+00801+00501999999ADDGA1041+000901999GA2081+003001999GF108991999999999999999999MA1102511999999MW1441REMMET061SPECI LIBP 241457Z 00000KT 0300 FG SCT003 OVC010 08/05 Q1025;
0152162300999992007122414574+42433+014200FM-16+0011LIBP V0209999C000010030019N0003001N1+00801+00501999999ADDGA1041+000901999GA2081+003001999GF108991999999999999999999MA1102511999999MW1441REMMET061SPECI LIBP 241457Z 00000KT 0300 FG SCT003 OVC010 08/05 Q1025;
0152162300999992007122414574+42433+014200FM-16+0011LIBP V0209999C000010030019N0003001N1+00801+00501999999ADDGA1041+000901999GA2081+003001999GF108991999999999999999999MA1102511999999MW1441REMMET061SPECI LIBP 241457Z 00000KT 0300 FG SCT003 OVC010 08/05 Q1025;
0152162300999992007122414574+42433+014200FM-16+0011LIBP V0209999C000010030019N0003001N1+00801+00501999999ADDGA1041+000901999GA2081+003001999GF108991999999999999999999MA1102511999999MW1441REMMET061SPECI LIBP 241457Z 00000KT 0300 FG SCT003 OVC010 08/05 Q1025;
0152162300999992007122414574+42433+014200FM-16+0011LIBP V0209999C000010030019N0003001N1+00801+00501999999ADDGA1041+000901999GA2081+003001999GF108991999999999999999999MA1102511999999MW1441REMMET061SPECI LIBP 241457Z 00000KT 0300 FG SCT003 OVC010 08/05 Q1025;
0152162300999992007122414574+42433+014200FM-16+0011LIBP V0209999C000010030019N0003001N1+00801+00501999999ADDGA1041+000901999GA2081+003001999GF108991999999999999999999MA1102511999999MW1441REMMET061SPECI LIBP 241457Z 00000KT 0300 FG SCT003 OVC010 08/05 Q1025;
0152162300999992007122414574+42433+014200FM-16+0011LIBP V0209999C000010030019N0003001N1+00801+00501999999ADDGA1041+000901999GA2081+003001999GF108991999999999999999999MA1102511999999MW1441REMMET061SPECI LIBP 241457Z 00000KT 0300 FG SCT003 OVC010 08/05 Q1025;
0152162300999992007122414574+42433+014200FM-16+0011LIBP V0209999C000010030019N0003001N1+00801+00501999999ADDGA1041+000901999GA2081+003001999GF108991999999999999999999MA1102511999999MW1441REMMET061SPECI LIBP 241457Z 00000KT 0300 FG SCT003 OVC010 08/05 Q1025;
0152162300999992007122414574+42433+014200FM-16+0011LIBP V0209999C000010030019N0003001N1+00801+00501999999ADDGA1041+000901999GA2081+003001999GF108991999999999999999999MA1102511999999MW1441REMMET061SPECI LIBP 241457Z 00000KT 0300 FG SCT003 OVC010 08/05 Q1025;
0152162300999992007122414574+42433+014200FM-16+0011LIBP V0209999C000010030019N0003001N1+00801+00501999999ADDGA1041+000901999GA2081+003001999GF108991999999999999999999MA1102511999999MW1441REMMET061SPECI LIBP 241457Z 00000KT 0300 FG SCT003 OVC010 08/05 Q1025;
0152162300999992007122414574+42433+014200FM-16+0011LIBP V0209999C000010030019N0003001N1+00801+00501999999ADDGA1041+000901999GA2081+003001999GF108991999999999999999999MA1102511999999MW1441REMMET061SPECI LIBP 241457Z 00000KT 0300 FG SCT003 OVC010 08/05 Q1025;
0152162300999992007122414574+42433+014200FM-16+0011LIBP V0209999C000010030019N0003001N1+00801+00501999999ADDGA1041+000901999GA2081+003001999GF108991999999999999999999MA1102511999999MW1441REMMET061SPECI LIBP 241457Z 00000KT 0300 FG SCT003 OVC010 08/05 Q1025;
0152162300999992007122414574+42433+014200FM-16+0011LIBP V0209999C000010030019N0003001N1+00801+00501999999ADDGA1041+000901999GA2081+003001999GF108991999999999999999999MA1102511999999MW1441REMMET061SPECI LIBP 241457Z 00000KT 0300 FG SCT003 OVC010 08/05 Q1025;
0152162300999992007122414574+42433+014200FM-16+0011LIBP V0209999C000010030019N0003001N1+00801+00501999999ADDGA1041+000901999GA2081+003001999GF108991999999999999999999MA1102511999999MW1441REMMET061SPECI LIBP 241457Z 00000KT 0300 FG SCT003 OVC010 08/05 Q1025;
0152162300999992007122414574+42433+014200FM-16+0011LIBP V0209999C000010030019N0003001N1+00801+00501999999ADDGA1041+000901999GA2081+003001999GF108991999999999999999999MA1102511999999MW1441REMMET061SPECI LIBP 241457Z 00000KT 0300 FG SCT003 OVC010 08/05 Q1025;
0152162300999992007122414574+42433+014200FM-16+0011LIBP V0209999C000010030019N0003001N1+00801+00501999999ADDGA1041+000901999GA2081+003001999GF108991999999999999999999MA1102511999999MW1441REMMET061SPECI LIBP 241457Z 00000KT 0300 FG SCT003 OVC010 08/05 Q1025;
0152162300999992007122414574+42433+014200FM-16+0011LIBP V0209999C000010030019N0003001N1+00801+00501999999ADDGA1041+000901999GA2081+003001999GF108991999999999999999999MA1102511999999MW1441REMMET061SPECI LIBP 241457Z 00000KT 0300 FG SCT003 OVC010 08/05 Q1025;
0152162300999992007122414574+42433+014200FM-16+0011LIBP V0209999C000010030019N0003001N1+00801+00501999999ADDGA1041+000901999GA2081+003001999GF108991999999999999999999MA1102511999999MW1441REMMET061SPECI LIBP 241457Z 00000KT 0300 FG SCT003 OVC010 08/05 Q1025;
0152162300999992007122414574+42433+014200FM-16+0011LIBP V0209999C000010030019N0003001N1+00801+00501999999ADDGA1041+000901999GA2081+003001999GF108991999999999999999999MA1102511999999MW1441REMMET061SPECI LIBP 241457Z 00000KT 0300 FG SCT003 OVC010 08/05 Q1025;
0152162300999992007122414574+42433+014200FM-16+0011LIBP V0209999C000010030019N0003001N1+00801+00501999999ADDGA1041+000901999GA2081+003001999GF108991999999999999999999MA1102511999999MW1441REMMET061SPECI LIBP 241457Z 00000KT 0300 FG SCT003 OVC010 08/05 Q1025;
0152162300999992007122414574+42433+014200FM-16+0011LIBP V0209999C000010030019N0003001N1+00801+00501999999ADDGA1041+000901999GA2081+003001999GF108991999999999999999999MA1102511999999MW1441REMMET061SPECI LIBP 241457Z 00000KT 0300 FG SCT003 OVC010 08/05 Q1025;
0152162300999992007122414574+42433+014200FM-16+0011LIBP V0209999C000010030019N0003001N1+00801+00501999999ADDGA1041+000901999GA2081+003001999GF108991999999999999999999MA1102511999999MW1441REMMET061SPECI LIBP 241457Z 00000KT 0300 FG SCT003 OVC010 08/05 Q1025;
0152162300999992007122414574+42433+014200FM-16+0011LIBP V0209999C000010030019N0003001N1+00801+00501999999ADDGA1041+000901999GA2081+003001999GF108991999999999999999999MA1102511999999MW1441REMMET061SPECI LIBP 241457Z 00000KT 0300 FG SCT003 OVC010 08/05 Q1025;
0152162300999992007122414574+42433+014200FM-16+0011LIBP V0209999C000010030019N0003001N1+00801+00501999999ADDGA1041+000901999GA2081+003001999GF108991999999999999999999MA1102511999999MW1441REMMET061SPECI LIBP 241457Z 00000KT 0300 FG SCT003 OVC010 08/05 Q1025;
0152162300999992007122414574+42433+014200FM-16+0011LIBP V0209999C000010030019N0003001N1+00801+00501999999ADDGA1041+000901999GA2081+003001999GF108991999999999999999999MA1102511999999MW1441REMMET061SPECI LIBP 241457Z 00000KT 0300 FG SCT003 OVC010 08/05 Q1025;
0152162300999992007122414574+42433+014200FM-16+0011LIBP V0209999C000010030019N0003001N1+00801+00501999999ADDGA1041+000901999GA2081+003001999GF108991999999999999999999MA1102511999999MW1441REMMET061SPECI LIBP 241457Z 00000KT 0300 FG SCT003 OVC010 08/05 Q1025;
0152162300999992007122414574+42433+014200FM-16+0011LIBP V0209999C000010030019N0003001N1+00801+00501999999ADDGA1041+000901999GA2081+003001999GF108991999999999999999999MA1102511999999MW1441REMMET061SPECI LIBP 241457Z 00000KT 0300 FG SCT003 OVC010 08/05 Q1025;
0152162300999992007122414574+42433+014200FM-16+0011LIBP V0209999C000010030019N0003001N1+00801+00501999999ADDGA1041+000901999GA2081+003001999GF108991999999999999999999MA1102511999999MW1441REMMET061SPECI LIBP 241457Z 00000KT 0300 FG SCT003 OVC010 08/05 Q1025;
0152162300999992007122414574+42433+014200FM-16+0011LIBP V0209999C000010030019N0003001N1+00801+00501999999ADDGA1041+000901999GA2081+003001999GF108991999999999999999999MA1102511999999MW1441REMMET061SPECI LIBP 241457Z 00000KT 0300 FG SCT003 OVC010 08/05 Q1025;
0152162300999992007122414574+42433+014200FM-16+0011LIBP V0209999C000010030019N0003001N1+00801+00501999999ADDGA1041+000901999GA2081+003001999GF108991999999999999999999MA1102511999999MW1441REMMET061SPECI LIBP 241457Z 00000KT 0300 FG SCT003 OVC010 08/05 Q1025;
0152162300999992007122414574+42433+014200FM-16+0011LIBP V0209999C000010030019N0003001N1+00801+00501999999ADDGA1041+000901999GA2081+003001999GF108991999999999999999999MA1102511999999MW1441REMMET061SPECI LIBP 241457Z 00000KT 0300 FG SCT003 OVC010 08/05 Q1025;
0152162300999992007122414574+42433+014200FM-16+0011LIBP V0209999C000010030019N0003001N1+00801+00501999999ADDGA1041+000901999GA2081+003001999GF108991999999999999999999MA1102511999999MW1441REMMET061SPECI LIBP 241457Z 00000KT 0300 FG SCT003 OVC010 08/05 Q1025;
0152162300999992007122414574+42433+014200FM-16+0011LIBP V0209999C000010030019N0003001N1+00801+00501999999ADDGA1041+000901999GA2081+003001999GF108991999999999999999999MA1102511999999MW1441REMMET061SPECI LIBP 241457Z 00000KT 0300 FG SCT003 OVC010 08/05 Q1025;
0152162300999992007122414574+42433+014200FM-16+0011LIBP V0209999C000010030019N0003001N1+00801+00501999999ADDGA1041+000901999GA2081+003001999GF108991999999999999999999MA1102511999999MW1441REMMET061SPECI LIBP 241457Z 00000KT 0300 FG SCT003 OVC010 08/05 Q1025;
0152162300999992007122414574+42433+014200FM-16+0011LIBP V0209999C000010030019N0003001N1+00801+00501999999ADDGA1041+000901999GA2081+003001999GF108991999999999999999999MA1102511999999MW1441REMMET061SPECI LIBP 241457Z 00000KT 0300 FG SCT003 OVC010 08/05 Q1025;
0152162300999992007122414574+42433+014200FM-16+0011LIBP V0209999C000010030019N0003001N1+00801+00501999999ADDGA1041+000901999GA2081+003001999GF108991999999999999999999MA1102511999999MW1441REMMET061SPECI LIBP 241457Z 00000KT 0300 FG SCT003 OVC010 08/05 Q1025;
0152162300999992007122414574+42433+014200FM-16+0011LIBP V0209999C000010030019N0003001N1+00801+00501999999ADDGA1041+000901999GA2081+003001999GF108991999999999999999999MA1102511999999MW1441REMMET061SPECI LIBP 241457Z 00000KT 0300 FG SCT003 OVC010 08/05 Q1025;
0152162300999992007122414574+42433+014200FM-16+0011LIBP V0209999C000010030019N0003001N1+00801+00501999999ADDGA1041+000901999GA2081+003001999GF108991999999999999999999MA1102511999999MW1441REMMET061SPECI LIBP 241457Z 00000KT 0300 FG SCT003 OVC010 08/05 Q1025;
0152162300999992007122414574+42433+014200FM-16+0011LIBP V0209999C000010030019N0003001N1+00801+00501999999ADDGA1041+000901999GA2081+003001999GF108991999999999999999999MA1102511999999MW1441REMMET061SPECI LIBP 241457Z 00000KT 0300 FG SCT003 OVC010 08/05 Q1025;
0152162300999992007122414574+42433+014200FM-16+0011LIBP V0209999C000010030019N0003001N1+00801+00501999999ADDGA1041+000901999GA2081+003001999GF108991999999999999999999MA1102511999999MW1441REMMET061SPECI LIBP 241457Z 00000KT 0300 FG SCT003 OVC010 08/05 Q1025;
0152162300999992007122414574+42433+014200FM-16+0011LIBP V0209999C000010030019N0003001N1+00801+00501999999ADDGA1041+000901999GA2081+003001999GF108991999999999999999999MA1102511999999MW1441REMMET061SPECI LIBP 241457Z 00000KT 0300 FG SCT003 OVC010 08/05 Q1025;
0152162300999992007122414574+42433+014200FM-16+0011LIBP V0209999C000010030019N0003001N1+00801+00501999999ADDGA1041+000901999GA2081+003001999GF108991999999999999999999MA1102511999999MW1441REMMET061SPECI LIBP 241457Z 00000KT 0300 FG SCT003 OVC010 08/05 Q1025;
0152162300999992007122414574+42433+014200FM-16+0011LIBP V0209999C000010030019N0003001N1+00801+00501999999ADDGA1041+000901999GA2081+003001999GF108991999999999999999999MA1102511999999MW1441REMMET061SPECI LIBP 241457Z 00000KT 0300 FG SCT003 OVC010 08/05 Q1025;
0152162300999992007122414574+42433+014200FM-16+0011LIBP V0209999C000010030019N0003001N1+00801+00501999999ADDGA1041+000901999GA2081+003001999GF108991999999999999999999MA1102511999999MW1441REMMET061SPECI LIBP 241457Z 00000KT 0300 FG SCT003 OVC010 08/05 Q1025;
0152162300999992007122414574+42433+014200FM-16+0011LIBP V0209999C000010030019N0003001N1+00801+00501999999ADDGA1041+000901999GA2081+003001999GF108991999999999999999999MA1102511999999MW1441REMMET061SPECI LIBP 241457Z 00000KT 0300 FG SCT003 OVC010 08/05 Q1025;
0152162300999992007122414574+42433+014200FM-16+0011LIBP V0209999C000010030019N0003001N1+00801+00501999999ADDGA1041+000901999GA2081+003001999GF108991999999999999999999MA1102511999999MW1441REMMET061SPECI LIBP 241457Z 00000KT 0300 FG SCT003 OVC010 08/05 Q1025;
0152162300999992007122414574+42433+014200FM-16+0011LIBP V0209999C000010030019N0003001N1+00801+00501999999ADDGA1041+000901999GA2081+003001999GF108991999999999999999999MA1102511999999MW1441REMMET061SPECI LIBP 241457Z 00000KT 0300 FG SCT003 OVC010 08/05 Q1025;
0152162300999992007122414574+42433+014200FM-16+0011LIBP V0209999C000010030019N0003001N1+00801+00501999999ADDGA1041+000901999GA2081+003001999GF108991999999999999999999MA1102511999999MW1441REMMET061SPECI LIBP 241457Z 00000KT 0300 FG SCT003 OVC010 08/05 Q1025;
0152162300999992007122414574+42433+014200FM-16+0011LIBP V0209999C000010030019N0003001N1+00801+00501999999ADDGA1041+000901999GA2081+003001999GF108991999999999999999999MA1102511999999MW1441REMMET061SPECI LIBP 241457Z 00000KT 0300 FG SCT003 OVC010 08/05 Q1025;
0152162300999992007122414574+42433+014200FM-16+0011LIBP V0209999C000010030019N0003001N1+00801+00501999999ADDGA1041+000901999GA2081+003001999GF108991999999999999999999MA1102511999999MW1441REMMET061SPECI LIBP 241457Z 00000KT 0300 FG SCT003 OVC010 08/05 Q1025;
0152162300999992007122414574+42433+014200FM-16+0011LIBP V0209999C000010030019N0003001N1+00801+00501999999ADDGA1041+000901999GA2081+003001999GF108991999999999999999999MA1102511999999MW1441REMMET061SPECI LIBP 241457Z 00000KT 0300 FG SCT003 OVC010 08/05 Q1025;
0152162300999992007122414574+42433+014200FM-16+0011LIBP V0209999C000010030019N0003001N1+00801+00501999999ADDGA1041+000901999GA2081+003001999GF108991999999999999999999MA1102511999999MW1441REMMET061SPECI LIBP 241457Z 00000KT 0300 FG SCT003 OVC010 08/05 Q1025;
0152162300999992007122414574+42433+014200FM-16+0011LIBP V0209999C000010030019N0003001N1+00801+00501999999ADDGA1041+000901999GA2081+003001999GF108991999999999999999999MA1102511999999MW1441REMMET061SPECI LIBP 241457Z 00000KT 0300 FG SCT003 OVC010 08/05 Q1025;
0152162300999992007122414574+42433+014200FM-16+0011LIBP V0209999C000010030019N0003001N1+00801+00501999999ADDGA1041+000901999GA2081+003001999GF108991999999999999999999MA1102511999999MW1441REMMET061SPECI LIBP 241457Z 00000KT 0300 FG SCT003 OVC010 08/05 Q1025;
0152162300999992007122414574+42433+014200FM-16+0011LIBP V0209999C000010030019N0003001N1+00801+00501999999ADDGA1041+000901999GA2081+003001999GF108991999999999999999999MA1102511999999MW1441REMMET061SPECI LIBP 241457Z 00000KT 0300 FG SCT003 OVC010 08/05 Q1025;
0152162300999992007122414574+42433+014200FM-16+0011LIBP V0209999C000010030019N0003001N1+00801+00501999999ADDGA1041+000901999GA2081+003001999GF108991999999999999999999MA1102511999999MW1441REMMET061SPECI LIBP 241457Z 00000KT 0300 FG SCT003 OVC010 08/05 Q1025;
0152162300999992007122414574+42433+014200FM-16+0011LIBP V0209999C000010030019N0003001N1+00801+00501999999ADDGA1041+000901999GA2081+003001999GF108991999999999999999999MA1102511999999MW1441REMMET061SPECI LIBP 241457Z 00000KT 0300 FG SCT003 OVC010 08/05 Q1025;
0152162300999992007122414574+42433+014200FM-16+0011LIBP V0209999C000010030019N0003001N1+00801+00501999999ADDGA1041+000901999GA2081+003001999GF108991999999999999999999MA1102511999999MW1441REMMET061SPECI LIBP 241457Z 00000KT 0300 FG SCT003 OVC010 08/05 Q1025;
0152162300999992007122414574+42433+014200FM-16+0011LIBP V0209999C000010030019N0003001N1+00801+00501999999ADDGA1041+000901999GA2081+003001999GF108991999999999999999999MA1102511999999MW1441REMMET061SPECI LIBP 241457Z 00000KT 0300 FG SCT003 OVC010 08/05 Q1025;
0152162300999992007122414574+42433+014200FM-16+0011LIBP V0209999C000010030019N0003001N1+00801+00501999999ADDGA1041+000901999GA2081+003001999GF108991999999999999999999MA1102511999999MW1441REMMET061SPECI LIBP 241457Z 00000KT 0300 FG SCT003 OVC010 08/05 Q1025;
0152162300999992007122414574+42433+014200FM-16+0011LIBP V0209999C000010030019N0003001N1+00801+00501999999ADDGA1041+000901999GA2081+003001999GF108991999999999999999999MA1102511999999MW1441REMMET061SPECI LIBP 241457Z 00000KT 0300 FG SCT003 OVC010 08/05 Q1025;
0152162300999992007122414574+42433+014200FM-16+0011LIBP V0209999C000010030019N0003001N1+00801+00501999999ADDGA1041+000901999GA2081+003001999GF108991999999999999999999MA1102511999999MW1441REMMET061SPECI LIBP 241457Z 00000KT 0300 FG SCT003 OVC010 08/05 Q1025;
0152162300999992007122414574+42433+014200FM-16+0011LIBP V0209999C000010030019N0003001N1+00801+00501999999ADDGA1041+000901999GA2081+003001999GF108991999999999999999999MA1102511999999MW1441REMMET061SPECI LIBP 241457Z 00000KT 0300 FG SCT003 OVC010 08/05 Q1025;
0152162300999992007122414574+42433+014200FM-16+0011LIBP V0209999C000010030019N0003001N1+00801+00501999999ADDGA1041+000901999GA2081+003001999GF108991999999999999999999MA1102511999999MW1441REMMET061SPECI LIBP 241457Z 00000KT 0300 FG SCT003 OVC010 08/05 Q1025;
0152162300999992007122414574+42433+014200FM-16+0011LIBP V0209999C000010030019N0003001N1+00801+00501999999ADDGA1041+000901999GA2081+003001999GF108991999999999999999999MA1102511999999MW1441REMMET061SPECI LIBP 241457Z 00000KT 0300 FG SCT003 OVC010 08/05 Q1025;
0152162300999992007122414574+42433+014200FM-16+0011LIBP V0209999C000010030019N0003001N1+00801+00501999999ADDGA1041+000901999GA2081+003001999GF108991999999999999999999MA1102511999999MW1441REMMET061SPECI LIBP 241457Z 00000KT 0300 FG SCT003 OVC010 08/05 Q1025;
0152162300999992007122414574+42433+014200FM-16+0011LIBP V0209999C000010030019N0003001N1+00801+00501999999ADDGA1041+000901999GA2081+003001999GF108991999999999999999999MA1102511999999MW1441REMMET061SPECI LIBP 241457Z 00000KT 0300 FG SCT003 OVC010 08/05 Q1025;
0152162300999992007122414574+42433+014200FM-16+0011LIBP V0209999C000010030019N0003001N1+00801+00501999999ADDGA1041+000901999GA2081+003001999GF108991999999999999999999MA1102511999999MW1441REMMET061SPECI LIBP 241457Z 00000KT 0300 FG SCT003 OVC010 08/05 Q1025;
0152162300999992007122414574+42433+014200FM-16+0011LIBP V0209999C000010030019N0003001N1+00801+00501999999ADDGA1041+000901999GA2081+003001999GF108991999999999999999999MA1102511999999MW1441REMMET061SPECI LIBP 241457Z 00000KT 0300 FG SCT003 OVC010 08/05 Q1025;
0152162300999992007122414574+42433+014200FM-16+0011LIBP V0209999C000010030019N0003001N1+00801+00501999999ADDGA1041+000901999GA2081+003001999GF108991999999999999999999MA1102511999999MW1441REMMET061SPECI LIBP 241457Z 00000KT 0300 FG SCT003 OVC010 08/05 Q1025;
0152162300999992007122414574+42433+014200FM-16+0011LIBP V0209999C000010030019N0003001N1+00801+00501999999ADDGA1041+000901999GA2081+003001999GF108991999999999999999999MA1102511999999MW1441REMMET061SPECI LIBP 241457Z 00000KT 0300 FG SCT003 OVC010 08/05 Q1025;
0152162300999992007122414574+42433+014200FM-16+0011LIBP V0209999C000010030019N0003001N1+00801+00501999999ADDGA1041+000901999GA2081+003001999GF108991999999999999999999MA1102511999999MW1441REMMET061SPECI LIBP 241457Z 00000KT 0300 FG SCT003 OVC010 08/05 Q1025;
0152162300999992007122414574+42433+014200FM-16+0011LIBP V0209999C000010030019N0003001N1+00801+00501999999ADDGA1041+000901999GA2081+003001999GF108991999999999999999999MA1102511999999MW1441REMMET061SPECI LIBP 241457Z 00000KT 0300 FG SCT003 OVC010 08/05 Q1025;
0152162300999992007122414574+42433+014200FM-16+0011LIBP V0209999C000010030019N0003001N1+00801+00501999999ADDGA1041+000901999GA2081+003001999GF108991999999999999999999MA1102511999999MW1441REMMET061SPECI LIBP 241457Z 00000KT 0300 FG SCT003 OVC010 08/05 Q1025;
0152162300999992007122414574+42433+014200FM-16+0011LIBP V0209999C000010030019N0003001N1+00801+00501999999ADDGA1041+000901999GA2081+003001999GF108991999999999999999999MA1102511999999MW1441REMMET061SPECI LIBP 241457Z 00000KT 0300 FG SCT003 OVC010 08/05 Q1025;
0152162300999992007122414574+42433+014200FM-16+0011LIBP V0209999C000010030019N0003001N1+00801+00501999999ADDGA1041+000901999GA2081+003001999GF108991999999999999999999MA1102511999999MW1441REMMET061SPECI LIBP 241457Z 00000KT 0300 FG SCT003 OVC010 08/05 Q1025;
0152162300999992007122414574+42433+014200FM-16+0011LIBP V0209999C000010030019N0003001N1+00801+00501999999ADDGA1041+000901999GA2081+003001999GF108991999999999999999999MA1102511999999MW1441REMMET061SPECI LIBP 241457Z 00000KT 0300 FG SCT003 OVC010 08/05 Q1025;
0152162300999992007122414574+42433+014200FM-16+0011LIBP V0209999C000010030019N0003001N1+00801+00501999999ADDGA1041+000901999GA2081+003001999GF108991999999999999999999MA1102511999999MW1441REMMET061SPECI LIBP 241457Z 00000KT 0300 FG SCT003 OVC010 08/05 Q1025;
0152162300999992007122414574+42433+014200FM-16+0011LIBP V0209999C000010030019N0003001N1+00801+00501999999ADDGA1041+000901999GA2081+003001999GF108991999999999999999999MA1102511999999MW1441REMMET061SPECI LIBP 241457Z 00000KT 0300 FG SCT003 OVC010 08/05 Q1025;
0152162300999992007122414574+42433+014200FM-16+0011LIBP V0209999C000010030019N0003001N1+00801+00501999999ADDGA1041+000901999GA2081+003001999GF108991999999999999999999MA1102511999999MW1441REMMET061SPECI LIBP 241457Z 00000KT 0300 FG SCT003 OVC010 08/05 Q1025;
0152162300999992007122414574+42433+014200FM-16+0011LIBP V0209999C000010030019N0003001N1+00801+00501999999ADDGA1041+000901999GA2081+003001999GF108991999999999999999999MA1102511999999MW1441REMMET061SPECI LIBP 241457Z 00000KT 0300 FG SCT003 OVC010 08/05 Q1025;
0152162300999992007122414574+42433+014200FM-16+0011LIBP V0209999C000010030019N0003001N1+00801+00501999999ADDGA1041+000901999GA2081+003001999GF108991999999999999999999MA1102511999999MW1441REMMET061SPECI LIBP 241457Z 00000KT 0300 FG SCT003 OVC010 08/05 Q1025;
0152162300999992007122414574+42433+014200FM-16+0011LIBP V0209999C000010030019N0003001N1+00801+00501999999ADDGA1041+000901999GA2081+003001999GF108991999999999999999999MA1102511999999MW1441REMMET061SPECI LIBP 241457Z 00000KT 0300 FG SCT003 OVC010 08/05 Q1025;
0152162300999992007122414574+42433+014200FM-16+0011LIBP V0209999C000010030019N0003001N1+00801+00501999999ADDGA1041+000901999GA2081+003001999GF108991999999999999999999MA1102511999999MW1441REMMET061SPECI LIBP 241457Z 00000KT 0300 FG SCT003 OVC010 08/05 Q1025;
0152162300999992007122414574+42433+014200FM-16+0011LIBP V0209999C000010030019N0003001N1+00801+00501999999ADDGA1041+000901999GA2081+003001999GF108991999999999999999999MA1102511999999MW1441REMMET061SPECI LIBP 241457Z 00000KT 0300 FG SCT003 OVC010 08/05 Q1025;
0152162300999992007122414574+42433+014200FM-16+0011LIBP V0209999C000010030019N0003001N1+00801+00501999999ADDGA1041+000901999GA2081+003001999GF108991999999999999999999MA1102511999999MW1441REMMET061SPECI LIBP 241457Z 00000KT 0300 FG SCT003 OVC010 08/05 Q1025;
0152162300999992007122414574+42433+014200FM-16+0011LIBP V0209999C000010030019N0003001N1+00801+00501999999ADDGA1041+000901999GA2081+003001999GF108991999999999999999999MA1102511999999MW1441REMMET061SPECI LIBP 241457Z 00000KT 0300 FG SCT003 OVC010 08/05 Q1025;
0152162300999992007122414574+42433+014200FM-16+0011LIBP V0209999C000010030019N0003001N1+00801+00501999999ADDGA1041+000901999GA2081+003001999GF108991999999999999999999MA1102511999999MW1441REMMET061SPECI LIBP 241457Z 00000KT 0300 FG SCT003 OVC010 08/05 Q1025;
0152162300999992007122414574+42433+014200FM-16+0011LIBP V0209999C000010030019N0003001N1+00801+00501999999ADDGA1041+000901999GA2081+003001999GF108991999999999999999999MA1102511999999MW1441REMMET061SPECI LIBP 241457Z 00000KT 0300 FG SCT003 OVC010 08/05 Q1025;
0152162300999992007122414574+42433+014200FM-16+0011LIBP V0209999C000010030019N0003001N1+00801+00501999999ADDGA1041+000901999GA2081+003001999GF108991999999999999999999MA1102511999999MW1441REMMET061SPECI LIBP 241457Z 00000KT 0300 FG SCT003 OVC010 08/05 Q1025;
0152162300999992007122414574+42433+014200FM-16+0011LIBP V0209999C000010030019N0003001N1+00801+00501999999ADDGA1041+000901999GA2081+003001999GF108991999999999999999999MA1102511999999MW1441REMMET061SPECI LIBP 241457Z 00000KT 0300 FG SCT003 OVC010 08/05 Q1025;
0152162300999992007122414574+42433+014200FM-16+0011LIBP V0209999C000010030019N0003001N1+00801+00501999999ADDGA1041+000901999GA2081+003001999GF108991999999999999999999MA1102511999999MW1441REMMET061SPECI LIBP 241457Z 00000KT 0300 FG SCT003 OVC010 08/05 Q1025;
0152162300999992007122414574+42433+014200FM-16+0011LIBP V0209999C000010030019N0003001N1+00801+00501999999ADDGA1041+000901999GA2081+003001999GF108991999999999999999999MA1102511999999MW1441REMMET061SPECI LIBP 241457Z 00000KT 0300 FG SCT003 OVC010 08/05 Q1025;
0152162300999992007122414574+42433+014200FM-16+0011LIBP V0209999C000010030019N0003001N1+00801+00501999999ADDGA1041+000901999GA2081+003001999GF108991999999999999999999MA1102511999999MW1441REMMET061SPECI LIBP 241457Z 00000KT 0300 FG SCT003 OVC010 08/05 Q1025;
0152162300999992007122414574+42433+014200FM-16+0011LIBP V0209999C000010030019N0003001N1+00801+00501999999ADDGA1041+000901999GA2081+003001999GF108991999999999999999999MA1102511999999MW1441REMMET061SPECI LIBP 241457Z 00000KT 0300 FG SCT003 OVC010 08/05 Q1025;
0152162300999992007122414574+42433+014200FM-16+0011LIBP V0209999C000010030019N0003001N1+00801+00501999999ADDGA1041+000901999GA2081+003001999GF108991999999999999999999MA1102511999999MW1441REMMET061SPECI LIBP 241457Z 00000KT 0300 FG SCT003 OVC010 08/05 Q1025;
0152162300999992007122414574+42433+014200FM-16+0011LIBP V0209999C000010030019N0003001N1+00801+00501999999ADDGA1041+000901999GA2081+003001999GF108991999999999999999999MA1102511999999MW1441REMMET061SPECI LIBP 241457Z 00000KT 0300 FG SCT003 OVC010 08/05 Q1025;
0152162300999992007122414574+42433+014200FM-16+0011LIBP V0209999C000010030019N0003001N1+00801+00501999999ADDGA1041+000901999GA2081+003001999GF108991999999999999999999MA1102511999999MW1441REMMET061SPECI LIBP 241457Z 00000KT 0300 FG SCT003 OVC010 08/05 Q1025;
0152162300999992007122414574+42433+014200FM-16+0011LIBP V0209999C000010030019N0003001N1+00801+00501999999ADDGA1041+000901999GA2081+003001999GF108991999999999999999999MA1102511999999MW1441REMMET061SPECI LIBP 241457Z 00000KT 0300 FG SCT003 OVC010 08/05 Q1025;
0152162300999992007122414574+42433+014200FM-16+0011LIBP V0209999C000010030019N0003001N1+00801+00501999999ADDGA1041+000901999GA2081+003001999GF108991999999999999999999MA1102511999999MW1441REMMET061SPECI LIBP 241457Z 00000KT 0300 FG SCT003 OVC010 08/05 Q1025;
0152162300999992007122414574+42433+014200FM-16+0011LIBP V0209999C000010030019N0003001N1+00801+00501999999ADDGA1041+000901999GA2081+003001999GF108991999999999999999999MA1102511999999MW1441REMMET061SPECI LIBP 241457Z 00000KT 0300 FG SCT003 OVC010 08/05 Q1025;
0152162300999992007122414574+42433+014200FM-16+0011LIBP V0209999C000010030019N0003001N1+00801+00501999999ADDGA1041+000901999GA2081+003001999GF108991999999999999999999MA1102511999999MW1441REMMET061SPECI LIBP 241457Z 00000KT 0300 FG SCT003 OVC010 08/05 Q1025;
0152162300999992007122414574+42433+014200FM-16+0011LIBP V0209999C000010030019N0003001N1+00801+00501999999ADDGA1041+000901999GA2081+003001999GF108991999999999999999999MA1102511999999MW1441REMMET061SPECI LIBP 241457Z 00000KT 0300 FG SCT003 OVC010 08/05 Q1025;
0152162300999992007122414574+42433+014200FM-16+0011LIBP V0209999C000010030019N0003001N1+00801+00501999999ADDGA1041+000901999GA2081+003001999GF108991999999999999999999MA1102511999999MW1441REMMET061SPECI LIBP 241457Z 00000KT 0300 FG SCT003 OVC010 08/05 Q1025;
0152162300999992007122414574+42433+014200FM-16+0011LIBP V0209999C000010030019N0003001N1+00801+00501999999ADDGA1041+000901999GA2081+003001999GF108991999999999999999999MA1102511999999MW1441REMMET061SPECI LIBP 241457Z 00000KT 0300 FG SCT003 OVC010 08/05 Q1025;
0152162300999992007122414574+42433+014200FM-16+0011LIBP V0209999C000010030019N0003001N1+00801+00501999999ADDGA1041+000901999GA2081+003001999GF108991999999999999999999MA1102511999999MW1441REMMET061SPECI LIBP 241457Z 00000KT 0300 FG SCT003 OVC010 08/05 Q1025;
0152162300999992007122414574+42433+014200FM-16+0011LIBP V0209999C000010030019N0003001N1+00801+00501999999ADDGA1041+000901999GA2081+003001999GF108991999999999999999999MA1102511999999MW1441REMMET061SPECI LIBP 241457Z 00000KT 0300 FG SCT003 OVC010 08/05 Q1025;
0152162300999992007122414574+42433+014200FM-16+0011LIBP V0209999C000010030019N0003001N1+00801+00501999999ADDGA1041+000901999GA2081+003001999GF108991999999999999999999MA1102511999999MW1441REMMET061SPECI LIBP 241457Z 00000KT 0300 FG SCT003 OVC010 08/05 Q1025;
0152162300999992007122414574+42433+014200FM-16+0011LIBP V0209999C000010030019N0003001N1+00801+00501999999ADDGA1041+000901999GA2081+003001999GF108991999999999999999999MA1102511999999MW1441REMMET061SPECI LIBP 241457Z 00000KT 0300 FG SCT003 OVC010 08/05 Q1025;
0152162300999992007122414574+42433+014200FM-16+0011LIBP V0209999C000010030019N0003001N1+00801+00501999999ADDGA1041+000901999GA2081+003001999GF108991999999999999999999MA1102511999999MW1441REMMET061SPECI LIBP 241457Z 00000KT 0300 FG SCT003 OVC010 08/05 Q1025;
0152162300999992007122414574+42433+014200FM-16+0011LIBP V0209999C000010030019N0003001N1+00801+00501999999ADDGA1041+000901999GA2081+003001999GF108991999999999999999999MA1102511999999MW1441REMMET061SPECI LIBP 241457Z 00000KT 0300 FG SCT003 OVC010 08/05 Q1025;
0152162300999992007122414574+42433+014200FM-16+0011LIBP V0209999C000010030019N0003001N1+00801+00501999999ADDGA1041+000901999GA2081+003001999GF108991999999999999999999MA1102511999999MW1441REMMET061SPECI LIBP 241457Z 00000KT 0300 FG SCT003 OVC010 08/05 Q1025;
0152162300999992007122414574+42433+014200FM-16+0011LIBP V0209999C000010030019N0003001N1+00801+00501999999ADDGA1041+000901999GA2081+003001999GF108991999999999999999999MA1102511999999MW1441REMMET061SPECI LIBP 241457Z 00000KT 0300 FG SCT003 OVC010 08/05 Q1025;
0152162300999992007122414574+42433+014200FM-16+0011LIBP V0209999C000010030019N0003001N1+00801+00501999999ADDGA1041+000901999GA2081+003001999GF108991999999999999999999MA1102511999999MW1441REMMET061SPECI LIBP 241457Z 00000KT 0300 FG SCT003 OVC010 08/05 Q1025;
0152162300999992007122414574+42433+014200FM-16+0011LIBP V0209999C000010030019N0003001N1+00801+00501999999ADDGA1041+000901999GA2081+003001999GF108991999999999999999999MA1102511999999MW1441REMMET061SPECI LIBP 241457Z 00000KT 0300 FG SCT003 OVC010 08/05 Q1025;
0152162300999992007122414574+42433+014200FM-16+0011LIBP V0209999C000010030019N0003001N1+00801+00501999999ADDGA1041+000901999GA2081+003001999GF108991999999999999999999MA1102511999999MW1441REMMET061SPECI LIBP 241457Z 00000KT 0300 FG SCT003 OVC010 08/05 Q1025;
0152162300999992007122414574+42433+014200FM-16+0011LIBP V0209999C000010030019N0003001N1+00801+00501999999ADDGA1041+000901999GA2081+003001999GF108991999999999999999999MA1102511999999MW1441REMMET061SPECI LIBP 241457Z 00000KT 0300 FG SCT003 OVC010 08/05 Q1025;
0152162300999992007122414574+42433+014200FM-16+0011LIBP V0209999C000010030019N0003001N1+00801+00501999999ADDGA1041+000901999GA2081+003001999GF108991999999999999999999MA1102511999999MW1441REMMET061SPECI LIBP 241457Z 00000KT 0300 FG SCT003 OVC010 08/05 Q1025;
0152162300999992007122414574+42433+014200FM-16+0011LIBP V0209999C000010030019N0003001N1+00801+00501999999ADDGA1041+000901999GA2081+003001999GF108991999999999999999999MA1102511999999MW1441REMMET061SPECI LIBP 241457Z 00000KT 0300 FG SCT003 OVC010 08/05 Q1025;
0152162300999992007122414574+42433+014200FM-16+0011LIBP V0209999C000010030019N0003001N1+00801+00501999999ADDGA1041+000901999GA2081+003001999GF108991999999999999999999MA1102511999999MW1441REMMET061SPECI LIBP 241457Z 00000KT 0300 FG SCT003 OVC010 08/05 Q1025;
0152162300999992007122414574+42433+014200FM-16+0011LIBP V0209999C000010030019N0003001N1+00801+00501999999ADDGA1041+000901999GA2081+003001999GF108991999999999999999999MA1102511999999MW1441REMMET061SPECI LIBP 241457Z 00000KT 0300 FG SCT003 OVC010 08/05 Q1025;
0152162300999992007122414574+42433+014200FM-16+0011LIBP V0209999C000010030019N0003001N1+00801+00501999999ADDGA1041+000901999GA2081+003001999GF108991999999999999999999MA1102511999999MW1441REMMET061SPECI LIBP 241457Z 00000KT 0300 FG SCT003 OVC010 08/05 Q1025;
0152162300999992007122414574+42433+014200FM-16+0011LIBP V0209999C000010030019N0003001N1+00801+00501999999ADDGA1041+000901999GA2081+003001999GF108991999999999999999999MA1102511999999MW1441REMMET061SPECI LIBP 241457Z 00000KT 0300 FG SCT003 OVC010 08/05 Q1025;
0152162300999992007122414574+42433+014200FM-16+0011LIBP V0209999C000010030019N0003001N1+00801+00501999999ADDGA1041+000901999GA2081+003001999GF108991999999999999999999MA1102511999999MW1441REMMET061SPECI LIBP 241457Z 00000KT 0300 FG SCT003 OVC010 08/05 Q1025;
0152162300999992007122414574+42433+014200FM-16+0011LIBP V0209999C000010030019N0003001N1+00801+00501999999ADDGA1041+000901999GA2081+003001999GF108991999999999999999999MA1102511999999MW1441REMMET061SPECI LIBP 241457Z 00000KT 0300 FG SCT003 OVC010 08/05 Q1025;
0152162300999992007122414574+42433+014200FM-16+0011LIBP V0209999C000010030019N0003001N1+00801+00501999999ADDGA1041+000901999GA2081+003001999GF108991999999999999999999MA1102511999999MW1441REMMET061SPECI LIBP 241457Z 00000KT 0300 FG SCT003 OVC010 08/05 Q1025;
0152162300999992007122414574+42433+014200FM-16+0011LIBP V0209999C000010030019N0003001N1+00801+00501999999ADDGA1041+000901999GA2081+003001999GF108991999999999999999999MA1102511999999MW1441REMMET061SPECI LIBP 241457Z 00000KT 0300 FG SCT003 OVC010 08/05 Q1025;
0152162300999992007122414574+42433+014200FM-16+0011LIBP V0209999C000010030019N0003001N1+00801+00501999999ADDGA1041+000901999GA2081+003001999GF108991999999999999999999MA1102511999999MW1441REMMET061SPECI LIBP 241457Z 00000KT 0300 FG SCT003 OVC010 08/05 Q1025;
0152162300999992007122414574+42433+014200FM-16+0011LIBP V0209999C000010030019N0003001N1+00801+00501999999ADDGA1041+000901999GA2081+003001999GF108991999999999999999999MA1102511999999MW1441REMMET061SPECI LIBP 241457Z 00000KT 0300 FG SCT003 OVC010 08/05 Q1025;
0152162300999992007122414574+42433+014200FM-16+0011LIBP V0209999C000010030019N0003001N1+00801+00501999999ADDGA1041+000901999GA2081+003001999GF108991999999999999999999MA1102511999999MW1441REMMET061SPECI LIBP 241457Z 00000KT 0300 FG SCT003 OVC010 08/05 Q1025;
0152162300999992007122414574+42433+014200FM-16+0011LIBP V0209999C000010030019N0003001N1+00801+00501999999ADDGA1041+000901999GA2081+003001999GF108991999999999999999999MA1102511999999MW1441REMMET061SPECI LIBP 241457Z 00000KT 0300 FG SCT003 OVC010 08/05 Q1025;
0152162300999992007122414574+42433+014200FM-16+0011LIBP V0209999C000010030019N0003001N1+00801+00501999999ADDGA1041+000901999GA2081+003001999GF108991999999999999999999MA1102511999999MW1441REMMET061SPECI LIBP 241457Z 00000KT 0300 FG SCT003 OVC010 08/05 Q1025;
0152162300999992007122414574+42433+014200FM-16+0011LIBP V0209999C000010030019N0003001N1+00801+00501999999ADDGA1041+000901999GA2081+003001999GF108991999999999999999999MA1102511999999MW1441REMMET061SPECI LIBP 241457Z 00000KT 0300 FG SCT003 OVC010 08/05 Q1025;
0152162300999992007122414574+42433+014200FM-16+0011LIBP V0209999C000010030019N0003001N1+00801+00501999999ADDGA1041+000901999GA2081+003001999GF108991999999999999999999MA1102511999999MW1441REMMET061SPECI LIBP 241457Z 00000KT 0300 FG SCT003 OVC010 08/05 Q1025;
0152162300999992007122414574+42433+014200FM-16+0011LIBP V0209999C000010030019N0003001N1+00801+00501999999ADDGA1041+000901999GA2081+003001999GF108991999999999999999999MA1102511999999MW1441REMMET061SPECI LIBP 241457Z 00000KT 0300 FG SCT003 OVC010 08/05 Q1025;
0152162300999992007122414574+42433+014200FM-16+0011LIBP V0209999C000010030019N0003001N1+00801+00501999999ADDGA1041+000901999GA2081+003001999GF108991999999999999999999MA1102511999999MW1441REMMET061SPECI LIBP 241457Z 00000KT 0300 FG SCT003 OVC010 08/05 Q1025;
0152162300999992007122414574+42433+014200FM-16+0011LIBP V0209999C000010030019N0003001N1+00801+00501999999ADDGA1041+000901999GA2081+003001999GF108991999999999999999999MA1102511999999MW1441REMMET061SPECI LIBP 241457Z 00000KT 0300 FG SCT003 OVC010 08/05 Q1025;
0152162300999992007122414574+42433+014200FM-16+0011LIBP V0209999C000010030019N0003001N1+00801+00501999999ADDGA1041+000901999GA2081+003001999GF108991999999999999999999MA1102511999999MW1441REMMET061SPECI LIBP 241457Z 00000KT 0300 FG SCT003 OVC010 08/05 Q1025;
0152162300999992007122414574+42433+014200FM-16+0011LIBP V0209999C000010030019N0003001N1+00801+00501999999ADDGA1041+000901999GA2081+003001999GF108991999999999999999999MA1102511999999MW1441REMMET061SPECI LIBP 241457Z 00000KT 0300 FG SCT003 OVC010 08/05 Q1025;
0152162300999992007122414574+42433+014200FM-16+0011LIBP V0209999C000010030019N0003001N1+00801+00501999999ADDGA1041+000901999GA2081+003001999GF108991999999999999999999MA1102511999999MW1441REMMET061SPECI LIBP 241457Z 00000KT 0300 FG SCT003 OVC010 08/05 Q1025;
0152162300999992007122414574+42433+014200FM-16+0011LIBP V0209999C000010030019N0003001N1+00801+00501999999ADDGA1041+000901999GA2081+003001999GF108991999999999999999999MA1102511999999MW1441REMMET061SPECI LIBP 241457Z 00000KT 0300 FG SCT003 OVC010 08/05 Q1025;
0152162300999992007122414574+42433+014200FM-16+0011LIBP V0209999C000010030019N0003001N1+00801+00501999999ADDGA1041+000901999GA2081+003001999GF108991999999999999999999MA1102511999999MW1441REMMET061SPECI LIBP 241457Z 00000KT 0300 FG SCT003 OVC010 08/05 Q1025;
0152162300999992007122414574+42433+014200FM-16+0011LIBP V0209999C000010030019N0003001N1+00801+00501999999ADDGA1041+000901999GA2081+003001999GF108991999999999999999999MA1102511999999MW1441REMMET061SPECI LIBP 241457Z 00000KT 0300 FG SCT003 OVC010 08/05 Q1025;
0152162300999992007122414574+42433+014200FM-16+0011LIBP V0209999C000010030019N0003001N1+00801+00501999999ADDGA1041+000901999GA2081+003001999GF108991999999999999999999MA1102511999999MW1441REMMET061SPECI LIBP 241457Z 00000KT 0300 FG SCT003 OVC010 08/05 Q1025;
0152162300999992007122414574+42433+014200FM-16+0011LIBP V0209999C000010030019N0003001N1+00801+00501999999ADDGA1041+000901999GA2081+003001999GF108991999999999999999999MA1102511999999MW1441REMMET061SPECI LIBP 241457Z 00000KT 0300 FG SCT003 OVC010 08/05 Q1025;
0152162300999992007122414574+42433+014200FM-16+0011LIBP V0209999C000010030019N0003001N1+00801+00501999999ADDGA1041+000901999GA2081+003001999GF108991999999999999999999MA1102511999999MW1441REMMET061SPECI LIBP 241457Z 00000KT 0300 FG SCT003 OVC010 08/05 Q1025;
0152162300999992007122414574+42433+014200FM-16+0011LIBP V0209999C000010030019N0003001N1+00801+00501999999ADDGA1041+000901999GA2081+003001999GF108991999999999999999999MA1102511999999MW1441REMMET061SPECI LIBP 241457Z 00000KT 0300 FG SCT003 OVC010 08/05 Q1025;
0152162300999992007122414574+42433+014200FM-16+0011LIBP V0209999C000010030019N0003001N1+00801+00501999999ADDGA1041+000901999GA2081+003001999GF108991999999999999999999MA1102511999999MW1441REMMET061SPECI LIBP 241457Z 00000KT 0300 FG SCT003 OVC010 08/05 Q1025;
0152162300999992007122414574+42433+014200FM-16+0011LIBP V0209999C000010030019N0003001N1+00801+00501999999ADDGA1041+000901999GA2081+003001999GF108991999999999999999999MA1102511999999MW1441REMMET061SPECI LIBP 241457Z 00000KT 0300 FG SCT003 OVC010 08/05 Q1025;
0152162300999992007122414574+42433+014200FM-16+0011LIBP V0209999C000010030019N0003001N1+00801+00501999999ADDGA1041+000901999GA2081+003001999GF108991999999999999999999MA1102511999999MW1441REMMET061SPECI LIBP 241457Z 00000KT 0300 FG SCT003 OVC010 08/05 Q1025;
0152162300999992007122414574+42433+014200FM-16+0011LIBP V0209999C000010030019N0003001N1+00801+00501999999ADDGA1041+000901999GA2081+003001999GF108991999999999999999999MA1102511999999MW1441REMMET061SPECI LIBP 241457Z 00000KT 0300 FG SCT003 OVC010 08/05 Q1025;
0152162300999992007122414574+42433+014200FM-16+0011LIBP V0209999C000010030019N0003001N1+00801+00501999999ADDGA1041+000901999GA2081+003001999GF108991999999999999999999MA1102511999999MW1441REMMET061SPECI LIBP 241457Z 00000KT 0300 FG SCT003 OVC010 08/05 Q1025;
0152162300999992007122414574+42433+014200FM-16+0011LIBP V0209999C000010030019N0003001N1+00801+00501999999ADDGA1041+000901999GA2081+003001999GF108991999999999999999999MA1102511999999MW1441REMMET061SPECI LIBP 241457Z 00000KT 0300 FG SCT003 OVC010 08/05 Q1025;
0152162300999992007122414574+42433+014200FM-16+0011LIBP V0209999C000010030019N0003001N1+00801+00501999999ADDGA1041+000901999GA2081+003001999GF108991999999999999999999MA1102511999999MW1441REMMET061SPECI LIBP 241457Z 00000KT 0300 FG SCT003 OVC010 08/05 Q1025;
0152162300999992007122414574+42433+014200FM-16+0011LIBP V0209999C000010030019N0003001N1+00801+00501999999ADDGA1041+000901999GA2081+003001999GF108991999999999999999999MA1102511999999MW1441REMMET061SPECI LIBP 241457Z 00000KT 0300 FG SCT003 OVC010 08/05 Q1025;
0152162300999992007122414574+42433+014200FM-16+0011LIBP V0209999C000010030019N0003001N1+00801+00501999999ADDGA1041+000901999GA2081+003001999GF108991999999999999999999MA1102511999999MW1441REMMET061SPECI LIBP 241457Z 00000KT 0300 FG SCT003 OVC010 08/05 Q1025;
0152162300999992007122414574+42433+014200FM-16+0011LIBP V0209999C000010030019N0003001N1+00801+00501999999ADDGA1041+000901999GA2081+003001999GF108991999999999999999999MA1102511999999MW1441REMMET061SPECI LIBP 241457Z 00000KT 0300 FG SCT003 OVC010 08/05 Q1025;
0152162300999992007122414574+42433+014200FM-16+0011LIBP V0209999C000010030019N0003001N1+00801+00501999999ADDGA1041+000901999GA2081+003001999GF108991999999999999999999MA1102511999999MW1441REMMET061SPECI LIBP 241457Z 00000KT 0300 FG SCT003 OVC010 08/05 Q1025;
0152162300999992007122414574+42433+014200FM-16+0011LIBP V0209999C000010030019N0003001N1+00801+00501999999ADDGA1041+000901999GA2081+003001999GF108991999999999999999999MA1102511999999MW1441REMMET061SPECI LIBP 241457Z 00000KT 0300 FG SCT003 OVC010 08/05 Q1025;
0152162300999992007122414574+42433+014200FM-16+0011LIBP V0209999C000010030019N0003001N1+00801+00501999999ADDGA1041+000901999GA2081+003001999GF108991999999999999999999MA1102511999999MW1441REMMET061SPECI LIBP 241457Z 00000KT 0300 FG SCT003 OVC010 08/05 Q1025;
0152162300999992007122414574+42433+014200FM-16+0011LIBP V0209999C000010030019N0003001N1+00801+00501999999ADDGA1041+000901999GA2081+003001999GF108991999999999999999999MA1102511999999MW1441REMMET061SPECI LIBP 241457Z 00000KT 0300 FG SCT003 OVC010 08/05 Q1025;
0152162300999992007122414574+42433+014200FM-16+0011LIBP V0209999C000010030019N0003001N1+00801+00501999999ADDGA1041+000901999GA2081+003001999GF108991999999999999999999MA1102511999999MW1441REMMET061SPECI LIBP 241457Z 00000KT 0300 FG SCT003 OVC010 08/05 Q1025;
0152162300999992007122414574+42433+014200FM-16+0011LIBP V0209999C000010030019N0003001N1+00801+00501999999ADDGA1041+000901999GA2081+003001999GF108991999999999999999999MA1102511999999MW1441REMMET061SPECI LIBP 241457Z 00000KT 0300 FG SCT003 OVC010 08/05 Q1025;
0152162300999992007122414574+42433+014200FM-16+0011LIBP V0209999C000010030019N0003001N1+00801+00501999999ADDGA1041+000901999GA2081+003001999GF108991999999999999999999MA1102511999999MW1441REMMET061SPECI LIBP 241457Z 00000KT 0300 FG SCT003 OVC010 08/05 Q1025;
0152162300999992007122414574+42433+014200FM-16+0011LIBP V0209999C000010030019N0003001N1+00801+00501999999ADDGA1041+000901999GA2081+003001999GF108991999999999999999999MA1102511999999MW1441REMMET061SPECI LIBP 241457Z 00000KT 0300 FG SCT003 OVC010 08/05 Q1025;
0152162300999992007122414574+42433+014200FM-16+0011LIBP V0209999C000010030019N0003001N1+00801+00501999999ADDGA1041+000901999GA2081+003001999GF108991999999999999999999MA1102511999999MW1441REMMET061SPECI LIBP 241457Z 00000KT 0300 FG SCT003 OVC010 08/05 Q1025;
0152162300999992007122414574+42433+014200FM-16+0011LIBP V0209999C000010030019N0003001N1+00801+00501999999ADDGA1041+000901999GA2081+003001999GF108991999999999999999999MA1102511999999MW1441REMMET061SPECI LIBP 241457Z 00000KT 0300 FG SCT003 OVC010 08/05 Q1025;
0152162300999992007122414574+42433+014200FM-16+0011LIBP V0209999C000010030019N0003001N1+00801+00501999999ADDGA1041+000901999GA2081+003001999GF108991999999999999999999MA1102511999999MW1441REMMET061SPECI LIBP 241457Z 00000KT 0300 FG SCT003 OVC010 08/05 Q1025;
0152162300999992007122414574+42433+014200FM-16+0011LIBP V0209999C000010030019N0003001N1+00801+00501999999ADDGA1041+000901999GA2081+003001999GF108991999999999999999999MA1102511999999MW1441REMMET061SPECI LIBP 241457Z 00000KT 0300 FG SCT003 OVC010 08/05 Q1025;
0152162300999992007122414574+42433+014200FM-16+0011LIBP V0209999C000010030019N0003001N1+00801+00501999999ADDGA1041+000901999GA2081+003001999GF108991999999999999999999MA1102511999999MW1441REMMET061SPECI LIBP 241457Z 00000KT 0300 FG SCT003 OVC010 08/05 Q1025;
0152162300999992007122414574+42433+014200FM-16+0011LIBP V0209999C000010030019N0003001N1+00801+00501999999ADDGA1041+000901999GA2081+003001999GF108991999999999999999999MA1102511999999MW1441REMMET061SPECI LIBP 241457Z 00000KT 0300 FG SCT003 OVC010 08/05 Q1025;
0152162300999992007122414574+42433+014200FM-16+0011LIBP V0209999C000010030019N0003001N1+00801+00501999999ADDGA1041+000901999GA2081+003001999GF108991999999999999999999MA1102511999999MW1441REMMET061SPECI LIBP 241457Z 00000KT 0300 FG SCT003 OVC010 08/05 Q1025;
0152162300999992007122414574+42433+014200FM-16+0011LIBP V0209999C000010030019N0003001N1+00801+00501999999ADDGA1041+000901999GA2081+003001999GF108991999999999999999999MA1102511999999MW1441REMMET061SPECI LIBP 241457Z 00000KT 0300 FG SCT003 OVC010 08/05 Q1025;
0152162300999992007122414574+42433+014200FM-16+0011LIBP V0209999C000010030019N0003001N1+00801+00501999999ADDGA1041+000901999GA2081+003001999GF108991999999999999999999MA1102511999999MW1441REMMET061SPECI LIBP 241457Z 00000KT 0300 FG SCT003 OVC010 08/05 Q1025;
0152162300999992007122414574+42433+014200FM-16+0011LIBP V0209999C000010030019N0003001N1+00801+00501999999ADDGA1041+000901999GA2081+003001999GF108991999999999999999999MA1102511999999MW1441REMMET061SPECI LIBP 241457Z 00000KT 0300 FG SCT003 OVC010 08/05 Q1025;
0152162300999992007122414574+42433+014200FM-16+0011LIBP V0209999C000010030019N0003001N1+00801+00501999999ADDGA1041+000901999GA2081+003001999GF108991999999999999999999MA1102511999999MW1441REMMET061SPECI LIBP 241457Z 00000KT 0300 FG SCT003 OVC010 08/05 Q1025;
0152162300999992007122414574+42433+014200FM-16+0011LIBP V0209999C000010030019N0003001N1+00801+00501999999ADDGA1041+000901999GA2081+003001999GF108991999999999999999999MA1102511999999MW1441REMMET061SPECI LIBP 241457Z 00000KT 0300 FG SCT003 OVC010 08/05 Q1025;
0152162300999992007122414574+42433+014200FM-16+0011LIBP V0209999C000010030019N0003001N1+00801+00501999999ADDGA1041+000901999GA2081+003001999GF108991999999999999999999MA1102511999999MW1441REMMET061SPECI LIBP 241457Z 00000KT 0300 FG SCT003 OVC010 08/05 Q1025;
0152162300999992007122414574+42433+014200FM-16+0011LIBP V0209999C000010030019N0003001N1+00801+00501999999ADDGA1041+000901999GA2081+003001999GF108991999999999999999999MA1102511999999MW1441REMMET061SPECI LIBP 241457Z 00000KT 0300 FG SCT003 OVC010 08/05 Q1025;
0152162300999992007122414574+42433+014200FM-16+0011LIBP V0209999C000010030019N0003001N1+00801+00501999999ADDGA1041+000901999GA2081+003001999GF108991999999999999999999MA1102511999999MW1441REMMET061SPECI LIBP 241457Z 00000KT 0300 FG SCT003 OVC010 08/05 Q1025;
0152162300999992007122414574+42433+014200FM-16+0011LIBP V0209999C000010030019N0003001N1+00801+00501999999ADDGA1041+000901999GA2081+003001999GF108991999999999999999999MA1102511999999MW1441REMMET061SPECI LIBP 241457Z 00000KT 0300 FG SCT003 OVC010 08/05 Q1025;
0152162300999992007122414574+42433+014200FM-16+0011LIBP V0209999C000010030019N0003001N1+00801+00501999999ADDGA1041+000901999GA2081+003001999GF108991999999999999999999MA1102511999999MW1441REMMET061SPECI LIBP 241457Z 00000KT 0300 FG SCT003 OVC010 08/05 Q1025;
0152162300999992007122414574+42433+014200FM-16+0011LIBP V0209999C000010030019N0003001N1+00801+00501999999ADDGA1041+000901999GA2081+003001999GF108991999999999999999999MA1102511999999MW1441REMMET061SPECI LIBP 241457Z 00000KT 0300 FG SCT003 OVC010 08/05 Q1025;
0152162300999992007122414574+42433+014200FM-16+0011LIBP V0209999C000010030019N0003001N1+00801+00501999999ADDGA1041+000901999GA2081+003001999GF108991999999999999999999MA1102511999999MW1441REMMET061SPECI LIBP 241457Z 00000KT 0300 FG SCT003 OVC010 08/05 Q1025;
0152162300999992007122414574+42433+014200FM-16+0011LIBP V0209999C000010030019N0003001N1+00801+00501999999ADDGA1041+000901999GA2081+003001999GF108991999999999999999999MA1102511999999MW1441REMMET061SPECI LIBP 241457Z 00000KT 0300 FG SCT003 OVC010 08/05 Q1025;
0152162300999992007122414574+42433+014200FM-16+0011LIBP V0209999C000010030019N0003001N1+00801+00501999999ADDGA1041+000901999GA2081+003001999GF108991999999999999999999MA1102511999999MW1441REMMET061SPECI LIBP 241457Z 00000KT 0300 FG SCT003 OVC010 08/05 Q1025;
0152162300999992007122414574+42433+014200FM-16+0011LIBP V0209999C000010030019N0003001N1+00801+00501999999ADDGA1041+000901999GA2081+003001999GF108991999999999999999999MA1102511999999MW1441REMMET061SPECI LIBP 241457Z 00000KT 0300 FG SCT003 OVC010 08/05 Q1025;
0152162300999992007122414574+42433+014200FM-16+0011LIBP V0209999C000010030019N0003001N1+00801+00501999999ADDGA1041+000901999GA2081+003001999GF108991999999999999999999MA1102511999999MW1441REMMET061SPECI LIBP 241457Z 00000KT 0300 FG SCT003 OVC010 08/05 Q1025;
0152162300999992007122414574+42433+014200FM-16+0011LIBP V0209999C000010030019N0003001N1+00801+00501999999ADDGA1041+000901999GA2081+003001999GF108991999999999999999999MA1102511999999MW1441REMMET061SPECI LIBP 241457Z 00000KT 0300 FG SCT003 OVC010 08/05 Q1025;
0152162300999992007122414574+42433+014200FM-16+0011LIBP V0209999C000010030019N0003001N1+00801+00501999999ADDGA1041+000901999GA2081+003001999GF108991999999999999999999MA1102511999999MW1441REMMET061SPECI LIBP 241457Z 00000KT 0300 FG SCT003 OVC010 08/05 Q1025;
