0159108370999992008011501004+48217+009917FM-12+0550ETHL V0202201N004010120019N0080001N1+00191+00071101541ADDGA1081+012001061GF108991081051012501999999MA1999999094891MD1710071+9999REMSYN076AAXX  15011 10837 42658 82204 10019 20007 39489 40154 57007 885// 333 88640;
0159108370999992008011501004+48217+009917FM-12+0550ETHL V0202201N004010120019N0080001N1+00191+00071101541ADDGA1081+012001061GF108991081051012501999999MA1999999094891MD1710071+9999REMSYN076AAXX  15011 10837 42658 82204 10019 20007 39489 40154 57007 885// 333 88640;
0159108370999992008011501004+48217+009917FM-12+0550ETHL V0202201N004010120019N0080001N1+00191+00071101541ADDGA1081+012001061GF108991081051012501999999MA1999999094891MD1710071+9999REMSYN076AAXX  15011 10837 42658 82204 10019 20007 39489 40154 57007 885// 333 88640;
0159108370999992008011501004+48217+009917FM-12+0550ETHL V0202201N004010120019N0080001N1+00191+00071101541ADDGA1081+012001061GF108991081051012501999999MA1999999094891MD1710071+9999REMSYN076AAXX  15011 10837 42658 82204 10019 20007 39489 40154 57007 885// 333 88640;
0159108370999992008011501004+48217+009917FM-12+0550ETHL V0202201N004010120019N0080001N1+00191+00071101541ADDGA1081+012001061GF108991081051012501999999MA1999999094891MD1710071+9999REMSYN076AAXX  15011 10837 42658 82204 10019 20007 39489 40154 57007 885// 333 88640;
0159108370999992008011501004+48217+009917FM-12+0550ETHL V0202201N004010120019N0080001N1+00191+00071101541ADDGA1081+012001061GF108991081051012501999999MA1999999094891MD1710071+9999REMSYN076AAXX  15011 10837 42658 82204 10019 20007 39489 40154 57007 885// 333 88640;
0159108370999992008011501004+48217+009917FM-12+0550ETHL V0202201N004010120019N0080001N1+00191+00071101541ADDGA1081+012001061GF108991081051012501999999MA1999999094891MD1710071+9999REMSYN076AAXX  15011 10837 42658 82204 10019 20007 39489 40154 57007 885// 333 88640;
0159108370999992008011501004+48217+009917FM-12+0550ETHL V0202201N004010120019N0080001N1+00191+00071101541ADDGA1081+012001061GF108991081051012501999999MA1999999094891MD1710071+9999REMSYN076AAXX  15011 10837 42658 82204 10019 20007 39489 40154 57007 885// 333 88640;
0159108370999992008011501004+48217+009917FM-12+0550ETHL V0202201N004010120019N0080001N1+00191+00071101541ADDGA1081+012001061GF108991081051012501999999MA1999999094891MD1710071+9999REMSYN076AAXX  15011 10837 42658 82204 10019 20007 39489 40154 57007 885// 333 88640;
0159108370999992008011501004+48217+009917FM-12+0550ETHL V0202201N004010120019N0080001N1+00191+00071101541ADDGA1081+012001061GF108991081051012501999999MA1999999094891MD1710071+9999REMSYN076AAXX  15011 10837 42658 82204 10019 20007 39489 40154 57007 885// 333 88640;
0159108370999992008011501004+48217+009917FM-12+0550ETHL V0202201N004010120019N0080001N1+00191+00071101541ADDGA1081+012001061GF108991081051012501999999MA1999999094891MD1710071+9999REMSYN076AAXX  15011 10837 42658 82204 10019 20007 39489 40154 57007 885// 333 88640;
0159108370999992008011501004+48217+009917FM-12+0550ETHL V0202201N004010120019N0080001N1+00191+00071101541ADDGA1081+012001061GF108991081051012501999999MA1999999094891MD1710071+9999REMSYN076AAXX  15011 10837 42658 82204 10019 20007 39489 40154 57007 885// 333 88640;
0159108370999992008011501004+48217+009917FM-12+0550ETHL V0202201N004010120019N0080001N1+00191+00071101541ADDGA1081+012001061GF108991081051012501999999MA1999999094891MD1710071+9999REMSYN076AAXX  15011 10837 42658 82204 10019 20007 39489 40154 57007 885// 333 88640;
0159108370999992008011501004+48217+009917FM-12+0550ETHL V0202201N004010120019N0080001N1+00191+00071101541ADDGA1081+012001061GF108991081051012501999999MA1999999094891MD1710071+9999REMSYN076AAXX  15011 10837 42658 82204 10019 20007 39489 40154 57007 885// 333 88640;
0159108370999992008011501004+48217+009917FM-12+0550ETHL V0202201N004010120019N0080001N1+00191+00071101541ADDGA1081+012001061GF108991081051012501999999MA1999999094891MD1710071+9999REMSYN076AAXX  15011 10837 42658 82204 10019 20007 39489 40154 57007 885// 333 88640;
0159108370999992008011501004+48217+009917FM-12+0550ETHL V0202201N004010120019N0080001N1+00191+00071101541ADDGA1081+012001061GF108991081051012501999999MA1999999094891MD1710071+9999REMSYN076AAXX  15011 10837 42658 82204 10019 20007 39489 40154 57007 885// 333 88640;
0159108370999992008011501004+48217+009917FM-12+0550ETHL V0202201N004010120019N0080001N1+00191+00071101541ADDGA1081+012001061GF108991081051012501999999MA1999999094891MD1710071+9999REMSYN076AAXX  15011 10837 42658 82204 10019 20007 39489 40154 57007 885// 333 88640;
0159108370999992008011501004+48217+009917FM-12+0550ETHL V0202201N004010120019N0080001N1+00191+00071101541ADDGA1081+012001061GF108991081051012501999999MA1999999094891MD1710071+9999REMSYN076AAXX  15011 10837 42658 82204 10019 20007 39489 40154 57007 885// 333 88640;
0159108370999992008011501004+48217+009917FM-12+0550ETHL V0202201N004010120019N0080001N1+00191+00071101541ADDGA1081+012001061GF108991081051012501999999MA1999999094891MD1710071+9999REMSYN076AAXX  15011 10837 42658 82204 10019 20007 39489 40154 57007 885// 333 88640;
0159108370999992008011501004+48217+009917FM-12+0550ETHL V0202201N004010120019N0080001N1+00191+00071101541ADDGA1081+012001061GF108991081051012501999999MA1999999094891MD1710071+9999REMSYN076AAXX  15011 10837 42658 82204 10019 20007 39489 40154 57007 885// 333 88640;
0159108370999992008011501004+48217+009917FM-12+0550ETHL V0202201N004010120019N0080001N1+00191+00071101541ADDGA1081+012001061GF108991081051012501999999MA1999999094891MD1710071+9999REMSYN076AAXX  15011 10837 42658 82204 10019 20007 39489 40154 57007 885// 333 88640;
0159108370999992008011501004+48217+009917FM-12+0550ETHL V0202201N004010120019N0080001N1+00191+00071101541ADDGA1081+012001061GF108991081051012501999999MA1999999094891MD1710071+9999REMSYN076AAXX  15011 10837 42658 82204 10019 20007 39489 40154 57007 885// 333 88640;
0159108370999992008011501004+48217+009917FM-12+0550ETHL V0202201N004010120019N0080001N1+00191+00071101541ADDGA1081+012001061GF108991081051012501999999MA1999999094891MD1710071+9999REMSYN076AAXX  15011 10837 42658 82204 10019 20007 39489 40154 57007 885// 333 88640;
0159108370999992008011501004+48217+009917FM-12+0550ETHL V0202201N004010120019N0080001N1+00191+00071101541ADDGA1081+012001061GF108991081051012501999999MA1999999094891MD1710071+9999REMSYN076AAXX  15011 10837 42658 82204 10019 20007 39489 40154 57007 885// 333 88640;
0159108370999992008011501004+48217+009917FM-12+0550ETHL V0202201N004010120019N0080001N1+00191+00071101541ADDGA1081+012001061GF108991081051012501999999MA1999999094891MD1710071+9999REMSYN076AAXX  15011 10837 42658 82204 10019 20007 39489 40154 57007 885// 333 88640;
0159108370999992008011501004+48217+009917FM-12+0550ETHL V0202201N004010120019N0080001N1+00191+00071101541ADDGA1081+012001061GF108991081051012501999999MA1999999094891MD1710071+9999REMSYN076AAXX  15011 10837 42658 82204 10019 20007 39489 40154 57007 885// 333 88640;
0159108370999992008011501004+48217+009917FM-12+0550ETHL V0202201N004010120019N0080001N1+00191+00071101541ADDGA1081+012001061GF108991081051012501999999MA1999999094891MD1710071+9999REMSYN076AAXX  15011 10837 42658 82204 10019 20007 39489 40154 57007 885// 333 88640;
0159108370999992008011501004+48217+009917FM-12+0550ETHL V0202201N004010120019N0080001N1+00191+00071101541ADDGA1081+012001061GF108991081051012501999999MA1999999094891MD1710071+9999REMSYN076AAXX  15011 10837 42658 82204 10019 20007 39489 40154 57007 885// 333 88640;
0159108370999992008011501004+48217+009917FM-12+0550ETHL V0202201N004010120019N0080001N1+00191+00071101541ADDGA1081+012001061GF108991081051012501999999MA1999999094891MD1710071+9999REMSYN076AAXX  15011 10837 42658 82204 10019 20007 39489 40154 57007 885// 333 88640;
0159108370999992008011501004+48217+009917FM-12+0550ETHL V0202201N004010120019N0080001N1+00191+00071101541ADDGA1081+012001061GF108991081051012501999999MA1999999094891MD1710071+9999REMSYN076AAXX  15011 10837 42658 82204 10019 20007 39489 40154 57007 885// 333 88640;
0159108370999992008011501004+48217+009917FM-12+0550ETHL V0202201N004010120019N0080001N1+00191+00071101541ADDGA1081+012001061GF108991081051012501999999MA1999999094891MD1710071+9999REMSYN076AAXX  15011 10837 42658 82204 10019 20007 39489 40154 57007 885// 333 88640;
0159108370999992008011501004+48217+009917FM-12+0550ETHL V0202201N004010120019N0080001N1+00191+00071101541ADDGA1081+012001061GF108991081051012501999999MA1999999094891MD1710071+9999REMSYN076AAXX  15011 10837 42658 82204 10019 20007 39489 40154 57007 885// 333 88640;
0159108370999992008011501004+48217+009917FM-12+0550ETHL V0202201N004010120019N0080001N1+00191+00071101541ADDGA1081+012001061GF108991081051012501999999MA1999999094891MD1710071+9999REMSYN076AAXX  15011 10837 42658 82204 10019 20007 39489 40154 57007 885// 333 88640;
0159108370999992008011501004+48217+009917FM-12+0550ETHL V0202201N004010120019N0080001N1+00191+00071101541ADDGA1081+012001061GF108991081051012501999999MA1999999094891MD1710071+9999REMSYN076AAXX  15011 10837 42658 82204 10019 20007 39489 40154 57007 885// 333 88640;
0159108370999992008011501004+48217+009917FM-12+0550ETHL V0202201N004010120019N0080001N1+00191+00071101541ADDGA1081+012001061GF108991081051012501999999MA1999999094891MD1710071+9999REMSYN076AAXX  15011 10837 42658 82204 10019 20007 39489 40154 57007 885// 333 88640;
0159108370999992008011501004+48217+009917FM-12+0550ETHL V0202201N004010120019N0080001N1+00191+00071101541ADDGA1081+012001061GF108991081051012501999999MA1999999094891MD1710071+9999REMSYN076AAXX  15011 10837 42658 82204 10019 20007 39489 40154 57007 885// 333 88640;
0159108370999992008011501004+48217+009917FM-12+0550ETHL V0202201N004010120019N0080001N1+00191+00071101541ADDGA1081+012001061GF108991081051012501999999MA1999999094891MD1710071+9999REMSYN076AAXX  15011 10837 42658 82204 10019 20007 39489 40154 57007 885// 333 88640;
0159108370999992008011501004+48217+009917FM-12+0550ETHL V0202201N004010120019N0080001N1+00191+00071101541ADDGA1081+012001061GF108991081051012501999999MA1999999094891MD1710071+9999REMSYN076AAXX  15011 10837 42658 82204 10019 20007 39489 40154 57007 885// 333 88640;
0159108370999992008011501004+48217+009917FM-12+0550ETHL V0202201N004010120019N0080001N1+00191+00071101541ADDGA1081+012001061GF108991081051012501999999MA1999999094891MD1710071+9999REMSYN076AAXX  15011 10837 42658 82204 10019 20007 39489 40154 57007 885// 333 88640;
0159108370999992008011501004+48217+009917FM-12+0550ETHL V0202201N004010120019N0080001N1+00191+00071101541ADDGA1081+012001061GF108991081051012501999999MA1999999094891MD1710071+9999REMSYN076AAXX  15011 10837 42658 82204 10019 20007 39489 40154 57007 885// 333 88640;
0159108370999992008011501004+48217+009917FM-12+0550ETHL V0202201N004010120019N0080001N1+00191+00071101541ADDGA1081+012001061GF108991081051012501999999MA1999999094891MD1710071+9999REMSYN076AAXX  15011 10837 42658 82204 10019 20007 39489 40154 57007 885// 333 88640;
0159108370999992008011501004+48217+009917FM-12+0550ETHL V0202201N004010120019N0080001N1+00191+00071101541ADDGA1081+012001061GF108991081051012501999999MA1999999094891MD1710071+9999REMSYN076AAXX  15011 10837 42658 82204 10019 20007 39489 40154 57007 885// 333 88640;
0159108370999992008011501004+48217+009917FM-12+0550ETHL V0202201N004010120019N0080001N1+00191+00071101541ADDGA1081+012001061GF108991081051012501999999MA1999999094891MD1710071+9999REMSYN076AAXX  15011 10837 42658 82204 10019 20007 39489 40154 57007 885// 333 88640;
0159108370999992008011501004+48217+009917FM-12+0550ETHL V0202201N004010120019N0080001N1+00191+00071101541ADDGA1081+012001061GF108991081051012501999999MA1999999094891MD1710071+9999REMSYN076AAXX  15011 10837 42658 82204 10019 20007 39489 40154 57007 885// 333 88640;
0159108370999992008011501004+48217+009917FM-12+0550ETHL V0202201N004010120019N0080001N1+00191+00071101541ADDGA1081+012001061GF108991081051012501999999MA1999999094891MD1710071+9999REMSYN076AAXX  15011 10837 42658 82204 10019 20007 39489 40154 57007 885// 333 88640;
0159108370999992008011501004+48217+009917FM-12+0550ETHL V0202201N004010120019N0080001N1+00191+00071101541ADDGA1081+012001061GF108991081051012501999999MA1999999094891MD1710071+9999REMSYN076AAXX  15011 10837 42658 82204 10019 20007 39489 40154 57007 885// 333 88640;
0159108370999992008011501004+48217+009917FM-12+0550ETHL V0202201N004010120019N0080001N1+00191+00071101541ADDGA1081+012001061GF108991081051012501999999MA1999999094891MD1710071+9999REMSYN076AAXX  15011 10837 42658 82204 10019 20007 39489 40154 57007 885// 333 88640;
0159108370999992008011501004+48217+009917FM-12+0550ETHL V0202201N004010120019N0080001N1+00191+00071101541ADDGA1081+012001061GF108991081051012501999999MA1999999094891MD1710071+9999REMSYN076AAXX  15011 10837 42658 82204 10019 20007 39489 40154 57007 885// 333 88640;
0159108370999992008011501004+48217+009917FM-12+0550ETHL V0202201N004010120019N0080001N1+00191+00071101541ADDGA1081+012001061GF108991081051012501999999MA1999999094891MD1710071+9999REMSYN076AAXX  15011 10837 42658 82204 10019 20007 39489 40154 57007 885// 333 88640;
0159108370999992008011501004+48217+009917FM-12+0550ETHL V0202201N004010120019N0080001N1+00191+00071101541ADDGA1081+012001061GF108991081051012501999999MA1999999094891MD1710071+9999REMSYN076AAXX  15011 10837 42658 82204 10019 20007 39489 40154 57007 885// 333 88640;
0159108370999992008011501004+48217+009917FM-12+0550ETHL V0202201N004010120019N0080001N1+00191+00071101541ADDGA1081+012001061GF108991081051012501999999MA1999999094891MD1710071+9999REMSYN076AAXX  15011 10837 42658 82204 10019 20007 39489 40154 57007 885// 333 88640;
0159108370999992008011501004+48217+009917FM-12+0550ETHL V0202201N004010120019N0080001N1+00191+00071101541ADDGA1081+012001061GF108991081051012501999999MA1999999094891MD1710071+9999REMSYN076AAXX  15011 10837 42658 82204 10019 20007 39489 40154 57007 885// 333 88640;
0159108370999992008011501004+48217+009917FM-12+0550ETHL V0202201N004010120019N0080001N1+00191+00071101541ADDGA1081+012001061GF108991081051012501999999MA1999999094891MD1710071+9999REMSYN076AAXX  15011 10837 42658 82204 10019 20007 39489 40154 57007 885// 333 88640;
0159108370999992008011501004+48217+009917FM-12+0550ETHL V0202201N004010120019N0080001N1+00191+00071101541ADDGA1081+012001061GF108991081051012501999999MA1999999094891MD1710071+9999REMSYN076AAXX  15011 10837 42658 82204 10019 20007 39489 40154 57007 885// 333 88640;
0159108370999992008011501004+48217+009917FM-12+0550ETHL V0202201N004010120019N0080001N1+00191+00071101541ADDGA1081+012001061GF108991081051012501999999MA1999999094891MD1710071+9999REMSYN076AAXX  15011 10837 42658 82204 10019 20007 39489 40154 57007 885// 333 88640;
0159108370999992008011501004+48217+009917FM-12+0550ETHL V0202201N004010120019N0080001N1+00191+00071101541ADDGA1081+012001061GF108991081051012501999999MA1999999094891MD1710071+9999REMSYN076AAXX  15011 10837 42658 82204 10019 20007 39489 40154 57007 885// 333 88640;
0159108370999992008011501004+48217+009917FM-12+0550ETHL V0202201N004010120019N0080001N1+00191+00071101541ADDGA1081+012001061GF108991081051012501999999MA1999999094891MD1710071+9999REMSYN076AAXX  15011 10837 42658 82204 10019 20007 39489 40154 57007 885// 333 88640;
0159108370999992008011501004+48217+009917FM-12+0550ETHL V0202201N004010120019N0080001N1+00191+00071101541ADDGA1081+012001061GF108991081051012501999999MA1999999094891MD1710071+9999REMSYN076AAXX  15011 10837 42658 82204 10019 20007 39489 40154 57007 885// 333 88640;
0159108370999992008011501004+48217+009917FM-12+0550ETHL V0202201N004010120019N0080001N1+00191+00071101541ADDGA1081+012001061GF108991081051012501999999MA1999999094891MD1710071+9999REMSYN076AAXX  15011 10837 42658 82204 10019 20007 39489 40154 57007 885// 333 88640;
0159108370999992008011501004+48217+009917FM-12+0550ETHL V0202201N004010120019N0080001N1+00191+00071101541ADDGA1081+012001061GF108991081051012501999999MA1999999094891MD1710071+9999REMSYN076AAXX  15011 10837 42658 82204 10019 20007 39489 40154 57007 885// 333 88640;
0159108370999992008011501004+48217+009917FM-12+0550ETHL V0202201N004010120019N0080001N1+00191+00071101541ADDGA1081+012001061GF108991081051012501999999MA1999999094891MD1710071+9999REMSYN076AAXX  15011 10837 42658 82204 10019 20007 39489 40154 57007 885// 333 88640;
0159108370999992008011501004+48217+009917FM-12+0550ETHL V0202201N004010120019N0080001N1+00191+00071101541ADDGA1081+012001061GF108991081051012501999999MA1999999094891MD1710071+9999REMSYN076AAXX  15011 10837 42658 82204 10019 20007 39489 40154 57007 885// 333 88640;
0159108370999992008011501004+48217+009917FM-12+0550ETHL V0202201N004010120019N0080001N1+00191+00071101541ADDGA1081+012001061GF108991081051012501999999MA1999999094891MD1710071+9999REMSYN076AAXX  15011 10837 42658 82204 10019 20007 39489 40154 57007 885// 333 88640;
0159108370999992008011501004+48217+009917FM-12+0550ETHL V0202201N004010120019N0080001N1+00191+00071101541ADDGA1081+012001061GF108991081051012501999999MA1999999094891MD1710071+9999REMSYN076AAXX  15011 10837 42658 82204 10019 20007 39489 40154 57007 885// 333 88640;
0159108370999992008011501004+48217+009917FM-12+0550ETHL V0202201N004010120019N0080001N1+00191+00071101541ADDGA1081+012001061GF108991081051012501999999MA1999999094891MD1710071+9999REMSYN076AAXX  15011 10837 42658 82204 10019 20007 39489 40154 57007 885// 333 88640;
0159108370999992008011501004+48217+009917FM-12+0550ETHL V0202201N004010120019N0080001N1+00191+00071101541ADDGA1081+012001061GF108991081051012501999999MA1999999094891MD1710071+9999REMSYN076AAXX  15011 10837 42658 82204 10019 20007 39489 40154 57007 885// 333 88640;
0159108370999992008011501004+48217+009917FM-12+0550ETHL V0202201N004010120019N0080001N1+00191+00071101541ADDGA1081+012001061GF108991081051012501999999MA1999999094891MD1710071+9999REMSYN076AAXX  15011 10837 42658 82204 10019 20007 39489 40154 57007 885// 333 88640;
0159108370999992008011501004+48217+009917FM-12+0550ETHL V0202201N004010120019N0080001N1+00191+00071101541ADDGA1081+012001061GF108991081051012501999999MA1999999094891MD1710071+9999REMSYN076AAXX  15011 10837 42658 82204 10019 20007 39489 40154 57007 885// 333 88640;
0159108370999992008011501004+48217+009917FM-12+0550ETHL V0202201N004010120019N0080001N1+00191+00071101541ADDGA1081+012001061GF108991081051012501999999MA1999999094891MD1710071+9999REMSYN076AAXX  15011 10837 42658 82204 10019 20007 39489 40154 57007 885// 333 88640;
0159108370999992008011501004+48217+009917FM-12+0550ETHL V0202201N004010120019N0080001N1+00191+00071101541ADDGA1081+012001061GF108991081051012501999999MA1999999094891MD1710071+9999REMSYN076AAXX  15011 10837 42658 82204 10019 20007 39489 40154 57007 885// 333 88640;
0159108370999992008011501004+48217+009917FM-12+0550ETHL V0202201N004010120019N0080001N1+00191+00071101541ADDGA1081+012001061GF108991081051012501999999MA1999999094891MD1710071+9999REMSYN076AAXX  15011 10837 42658 82204 10019 20007 39489 40154 57007 885// 333 88640;
0159108370999992008011501004+48217+009917FM-12+0550ETHL V0202201N004010120019N0080001N1+00191+00071101541ADDGA1081+012001061GF108991081051012501999999MA1999999094891MD1710071+9999REMSYN076AAXX  15011 10837 42658 82204 10019 20007 39489 40154 57007 885// 333 88640;
0159108370999992008011501004+48217+009917FM-12+0550ETHL V0202201N004010120019N0080001N1+00191+00071101541ADDGA1081+012001061GF108991081051012501999999MA1999999094891MD1710071+9999REMSYN076AAXX  15011 10837 42658 82204 10019 20007 39489 40154 57007 885// 333 88640;
0159108370999992008011501004+48217+009917FM-12+0550ETHL V0202201N004010120019N0080001N1+00191+00071101541ADDGA1081+012001061GF108991081051012501999999MA1999999094891MD1710071+9999REMSYN076AAXX  15011 10837 42658 82204 10019 20007 39489 40154 57007 885// 333 88640;
0159108370999992008011501004+48217+009917FM-12+0550ETHL V0202201N004010120019N0080001N1+00191+00071101541ADDGA1081+012001061GF108991081051012501999999MA1999999094891MD1710071+9999REMSYN076AAXX  15011 10837 42658 82204 10019 20007 39489 40154 57007 885// 333 88640;
0159108370999992008011501004+48217+009917FM-12+0550ETHL V0202201N004010120019N0080001N1+00191+00071101541ADDGA1081+012001061GF108991081051012501999999MA1999999094891MD1710071+9999REMSYN076AAXX  15011 10837 42658 82204 10019 20007 39489 40154 57007 885// 333 88640;
0159108370999992008011501004+48217+009917FM-12+0550ETHL V0202201N004010120019N0080001N1+00191+00071101541ADDGA1081+012001061GF108991081051012501999999MA1999999094891MD1710071+9999REMSYN076AAXX  15011 10837 42658 82204 10019 20007 39489 40154 57007 885// 333 88640;
0159108370999992008011501004+48217+009917FM-12+0550ETHL V0202201N004010120019N0080001N1+00191+00071101541ADDGA1081+012001061GF108991081051012501999999MA1999999094891MD1710071+9999REMSYN076AAXX  15011 10837 42658 82204 10019 20007 39489 40154 57007 885// 333 88640;
0159108370999992008011501004+48217+009917FM-12+0550ETHL V0202201N004010120019N0080001N1+00191+00071101541ADDGA1081+012001061GF108991081051012501999999MA1999999094891MD1710071+9999REMSYN076AAXX  15011 10837 42658 82204 10019 20007 39489 40154 57007 885// 333 88640;
0159108370999992008011501004+48217+009917FM-12+0550ETHL V0202201N004010120019N0080001N1+00191+00071101541ADDGA1081+012001061GF108991081051012501999999MA1999999094891MD1710071+9999REMSYN076AAXX  15011 10837 42658 82204 10019 20007 39489 40154 57007 885// 333 88640;
0159108370999992008011501004+48217+009917FM-12+0550ETHL V0202201N004010120019N0080001N1+00191+00071101541ADDGA1081+012001061GF108991081051012501999999MA1999999094891MD1710071+9999REMSYN076AAXX  15011 10837 42658 82204 10019 20007 39489 40154 57007 885// 333 88640;
0159108370999992008011501004+48217+009917FM-12+0550ETHL V0202201N004010120019N0080001N1+00191+00071101541ADDGA1081+012001061GF108991081051012501999999MA1999999094891MD1710071+9999REMSYN076AAXX  15011 10837 42658 82204 10019 20007 39489 40154 57007 885// 333 88640;
0159108370999992008011501004+48217+009917FM-12+0550ETHL V0202201N004010120019N0080001N1+00191+00071101541ADDGA1081+012001061GF108991081051012501999999MA1999999094891MD1710071+9999REMSYN076AAXX  15011 10837 42658 82204 10019 20007 39489 40154 57007 885// 333 88640;
0159108370999992008011501004+48217+009917FM-12+0550ETHL V0202201N004010120019N0080001N1+00191+00071101541ADDGA1081+012001061GF108991081051012501999999MA1999999094891MD1710071+9999REMSYN076AAXX  15011 10837 42658 82204 10019 20007 39489 40154 57007 885// 333 88640;
0159108370999992008011501004+48217+009917FM-12+0550ETHL V0202201N004010120019N0080001N1+00191+00071101541ADDGA1081+012001061GF108991081051012501999999MA1999999094891MD1710071+9999REMSYN076AAXX  15011 10837 42658 82204 10019 20007 39489 40154 57007 885// 333 88640;
0159108370999992008011501004+48217+009917FM-12+0550ETHL V0202201N004010120019N0080001N1+00191+00071101541ADDGA1081+012001061GF108991081051012501999999MA1999999094891MD1710071+9999REMSYN076AAXX  15011 10837 42658 82204 10019 20007 39489 40154 57007 885// 333 88640;
0159108370999992008011501004+48217+009917FM-12+0550ETHL V0202201N004010120019N0080001N1+00191+00071101541ADDGA1081+012001061GF108991081051012501999999MA1999999094891MD1710071+9999REMSYN076AAXX  15011 10837 42658 82204 10019 20007 39489 40154 57007 885// 333 88640;
0159108370999992008011501004+48217+009917FM-12+0550ETHL V0202201N004010120019N0080001N1+00191+00071101541ADDGA1081+012001061GF108991081051012501999999MA1999999094891MD1710071+9999REMSYN076AAXX  15011 10837 42658 82204 10019 20007 39489 40154 57007 885// 333 88640;
0159108370999992008011501004+48217+009917FM-12+0550ETHL V0202201N004010120019N0080001N1+00191+00071101541ADDGA1081+012001061GF108991081051012501999999MA1999999094891MD1710071+9999REMSYN076AAXX  15011 10837 42658 82204 10019 20007 39489 40154 57007 885// 333 88640;
0159108370999992008011501004+48217+009917FM-12+0550ETHL V0202201N004010120019N0080001N1+00191+00071101541ADDGA1081+012001061GF108991081051012501999999MA1999999094891MD1710071+9999REMSYN076AAXX  15011 10837 42658 82204 10019 20007 39489 40154 57007 885// 333 88640;
0159108370999992008011501004+48217+009917FM-12+0550ETHL V0202201N004010120019N0080001N1+00191+00071101541ADDGA1081+012001061GF108991081051012501999999MA1999999094891MD1710071+9999REMSYN076AAXX  15011 10837 42658 82204 10019 20007 39489 40154 57007 885// 333 88640;
0159108370999992008011501004+48217+009917FM-12+0550ETHL V0202201N004010120019N0080001N1+00191+00071101541ADDGA1081+012001061GF108991081051012501999999MA1999999094891MD1710071+9999REMSYN076AAXX  15011 10837 42658 82204 10019 20007 39489 40154 57007 885// 333 88640;
0159108370999992008011501004+48217+009917FM-12+0550ETHL V0202201N004010120019N0080001N1+00191+00071101541ADDGA1081+012001061GF108991081051012501999999MA1999999094891MD1710071+9999REMSYN076AAXX  15011 10837 42658 82204 10019 20007 39489 40154 57007 885// 333 88640;
0159108370999992008011501004+48217+009917FM-12+0550ETHL V0202201N004010120019N0080001N1+00191+00071101541ADDGA1081+012001061GF108991081051012501999999MA1999999094891MD1710071+9999REMSYN076AAXX  15011 10837 42658 82204 10019 20007 39489 40154 57007 885// 333 88640;
0159108370999992008011501004+48217+009917FM-12+0550ETHL V0202201N004010120019N0080001N1+00191+00071101541ADDGA1081+012001061GF108991081051012501999999MA1999999094891MD1710071+9999REMSYN076AAXX  15011 10837 42658 82204 10019 20007 39489 40154 57007 885// 333 88640;
0159108370999992008011501004+48217+009917FM-12+0550ETHL V0202201N004010120019N0080001N1+00191+00071101541ADDGA1081+012001061GF108991081051012501999999MA1999999094891MD1710071+9999REMSYN076AAXX  15011 10837 42658 82204 10019 20007 39489 40154 57007 885// 333 88640;
0159108370999992008011501004+48217+009917FM-12+0550ETHL V0202201N004010120019N0080001N1+00191+00071101541ADDGA1081+012001061GF108991081051012501999999MA1999999094891MD1710071+9999REMSYN076AAXX  15011 10837 42658 82204 10019 20007 39489 40154 57007 885// 333 88640;
0159108370999992008011501004+48217+009917FM-12+0550ETHL V0202201N004010120019N0080001N1+00191+00071101541ADDGA1081+012001061GF108991081051012501999999MA1999999094891MD1710071+9999REMSYN076AAXX  15011 10837 42658 82204 10019 20007 39489 40154 57007 885// 333 88640;
0159108370999992008011501004+48217+009917FM-12+0550ETHL V0202201N004010120019N0080001N1+00191+00071101541ADDGA1081+012001061GF108991081051012501999999MA1999999094891MD1710071+9999REMSYN076AAXX  15011 10837 42658 82204 10019 20007 39489 40154 57007 885// 333 88640;
0159108370999992008011501004+48217+009917FM-12+0550ETHL V0202201N004010120019N0080001N1+00191+00071101541ADDGA1081+012001061GF108991081051012501999999MA1999999094891MD1710071+9999REMSYN076AAXX  15011 10837 42658 82204 10019 20007 39489 40154 57007 885// 333 88640;
0159108370999992008011501004+48217+009917FM-12+0550ETHL V0202201N004010120019N0080001N1+00191+00071101541ADDGA1081+012001061GF108991081051012501999999MA1999999094891MD1710071+9999REMSYN076AAXX  15011 10837 42658 82204 10019 20007 39489 40154 57007 885// 333 88640;
0159108370999992008011501004+48217+009917FM-12+0550ETHL V0202201N004010120019N0080001N1+00191+00071101541ADDGA1081+012001061GF108991081051012501999999MA1999999094891MD1710071+9999REMSYN076AAXX  15011 10837 42658 82204 10019 20007 39489 40154 57007 885// 333 88640;
0159108370999992008011501004+48217+009917FM-12+0550ETHL V0202201N004010120019N0080001N1+00191+00071101541ADDGA1081+012001061GF108991081051012501999999MA1999999094891MD1710071+9999REMSYN076AAXX  15011 10837 42658 82204 10019 20007 39489 40154 57007 885// 333 88640;
0159108370999992008011501004+48217+009917FM-12+0550ETHL V0202201N004010120019N0080001N1+00191+00071101541ADDGA1081+012001061GF108991081051012501999999MA1999999094891MD1710071+9999REMSYN076AAXX  15011 10837 42658 82204 10019 20007 39489 40154 57007 885// 333 88640;
0159108370999992008011501004+48217+009917FM-12+0550ETHL V0202201N004010120019N0080001N1+00191+00071101541ADDGA1081+012001061GF108991081051012501999999MA1999999094891MD1710071+9999REMSYN076AAXX  15011 10837 42658 82204 10019 20007 39489 40154 57007 885// 333 88640;
0159108370999992008011501004+48217+009917FM-12+0550ETHL V0202201N004010120019N0080001N1+00191+00071101541ADDGA1081+012001061GF108991081051012501999999MA1999999094891MD1710071+9999REMSYN076AAXX  15011 10837 42658 82204 10019 20007 39489 40154 57007 885// 333 88640;
0159108370999992008011501004+48217+009917FM-12+0550ETHL V0202201N004010120019N0080001N1+00191+00071101541ADDGA1081+012001061GF108991081051012501999999MA1999999094891MD1710071+9999REMSYN076AAXX  15011 10837 42658 82204 10019 20007 39489 40154 57007 885// 333 88640;
0159108370999992008011501004+48217+009917FM-12+0550ETHL V0202201N004010120019N0080001N1+00191+00071101541ADDGA1081+012001061GF108991081051012501999999MA1999999094891MD1710071+9999REMSYN076AAXX  15011 10837 42658 82204 10019 20007 39489 40154 57007 885// 333 88640;
0159108370999992008011501004+48217+009917FM-12+0550ETHL V0202201N004010120019N0080001N1+00191+00071101541ADDGA1081+012001061GF108991081051012501999999MA1999999094891MD1710071+9999REMSYN076AAXX  15011 10837 42658 82204 10019 20007 39489 40154 57007 885// 333 88640;
0159108370999992008011501004+48217+009917FM-12+0550ETHL V0202201N004010120019N0080001N1+00191+00071101541ADDGA1081+012001061GF108991081051012501999999MA1999999094891MD1710071+9999REMSYN076AAXX  15011 10837 42658 82204 10019 20007 39489 40154 57007 885// 333 88640;
0159108370999992008011501004+48217+009917FM-12+0550ETHL V0202201N004010120019N0080001N1+00191+00071101541ADDGA1081+012001061GF108991081051012501999999MA1999999094891MD1710071+9999REMSYN076AAXX  15011 10837 42658 82204 10019 20007 39489 40154 57007 885// 333 88640;
0159108370999992008011501004+48217+009917FM-12+0550ETHL V0202201N004010120019N0080001N1+00191+00071101541ADDGA1081+012001061GF108991081051012501999999MA1999999094891MD1710071+9999REMSYN076AAXX  15011 10837 42658 82204 10019 20007 39489 40154 57007 885// 333 88640;
0159108370999992008011501004+48217+009917FM-12+0550ETHL V0202201N004010120019N0080001N1+00191+00071101541ADDGA1081+012001061GF108991081051012501999999MA1999999094891MD1710071+9999REMSYN076AAXX  15011 10837 42658 82204 10019 20007 39489 40154 57007 885// 333 88640;
0159108370999992008011501004+48217+009917FM-12+0550ETHL V0202201N004010120019N0080001N1+00191+00071101541ADDGA1081+012001061GF108991081051012501999999MA1999999094891MD1710071+9999REMSYN076AAXX  15011 10837 42658 82204 10019 20007 39489 40154 57007 885// 333 88640;
0159108370999992008011501004+48217+009917FM-12+0550ETHL V0202201N004010120019N0080001N1+00191+00071101541ADDGA1081+012001061GF108991081051012501999999MA1999999094891MD1710071+9999REMSYN076AAXX  15011 10837 42658 82204 10019 20007 39489 40154 57007 885// 333 88640;
0159108370999992008011501004+48217+009917FM-12+0550ETHL V0202201N004010120019N0080001N1+00191+00071101541ADDGA1081+012001061GF108991081051012501999999MA1999999094891MD1710071+9999REMSYN076AAXX  15011 10837 42658 82204 10019 20007 39489 40154 57007 885// 333 88640;
0159108370999992008011501004+48217+009917FM-12+0550ETHL V0202201N004010120019N0080001N1+00191+00071101541ADDGA1081+012001061GF108991081051012501999999MA1999999094891MD1710071+9999REMSYN076AAXX  15011 10837 42658 82204 10019 20007 39489 40154 57007 885// 333 88640;
0159108370999992008011501004+48217+009917FM-12+0550ETHL V0202201N004010120019N0080001N1+00191+00071101541ADDGA1081+012001061GF108991081051012501999999MA1999999094891MD1710071+9999REMSYN076AAXX  15011 10837 42658 82204 10019 20007 39489 40154 57007 885// 333 88640;
0159108370999992008011501004+48217+009917FM-12+0550ETHL V0202201N004010120019N0080001N1+00191+00071101541ADDGA1081+012001061GF108991081051012501999999MA1999999094891MD1710071+9999REMSYN076AAXX  15011 10837 42658 82204 10019 20007 39489 40154 57007 885// 333 88640;
0159108370999992008011501004+48217+009917FM-12+0550ETHL V0202201N004010120019N0080001N1+00191+00071101541ADDGA1081+012001061GF108991081051012501999999MA1999999094891MD1710071+9999REMSYN076AAXX  15011 10837 42658 82204 10019 20007 39489 40154 57007 885// 333 88640;
0159108370999992008011501004+48217+009917FM-12+0550ETHL V0202201N004010120019N0080001N1+00191+00071101541ADDGA1081+012001061GF108991081051012501999999MA1999999094891MD1710071+9999REMSYN076AAXX  15011 10837 42658 82204 10019 20007 39489 40154 57007 885// 333 88640;
0159108370999992008011501004+48217+009917FM-12+0550ETHL V0202201N004010120019N0080001N1+00191+00071101541ADDGA1081+012001061GF108991081051012501999999MA1999999094891MD1710071+9999REMSYN076AAXX  15011 10837 42658 82204 10019 20007 39489 40154 57007 885// 333 88640;
0159108370999992008011501004+48217+009917FM-12+0550ETHL V0202201N004010120019N0080001N1+00191+00071101541ADDGA1081+012001061GF108991081051012501999999MA1999999094891MD1710071+9999REMSYN076AAXX  15011 10837 42658 82204 10019 20007 39489 40154 57007 885// 333 88640;
0159108370999992008011501004+48217+009917FM-12+0550ETHL V0202201N004010120019N0080001N1+00191+00071101541ADDGA1081+012001061GF108991081051012501999999MA1999999094891MD1710071+9999REMSYN076AAXX  15011 10837 42658 82204 10019 20007 39489 40154 57007 885// 333 88640;
0159108370999992008011501004+48217+009917FM-12+0550ETHL V0202201N004010120019N0080001N1+00191+00071101541ADDGA1081+012001061GF108991081051012501999999MA1999999094891MD1710071+9999REMSYN076AAXX  15011 10837 42658 82204 10019 20007 39489 40154 57007 885// 333 88640;
0159108370999992008011501004+48217+009917FM-12+0550ETHL V0202201N004010120019N0080001N1+00191+00071101541ADDGA1081+012001061GF108991081051012501999999MA1999999094891MD1710071+9999REMSYN076AAXX  15011 10837 42658 82204 10019 20007 39489 40154 57007 885// 333 88640;
0159108370999992008011501004+48217+009917FM-12+0550ETHL V0202201N004010120019N0080001N1+00191+00071101541ADDGA1081+012001061GF108991081051012501999999MA1999999094891MD1710071+9999REMSYN076AAXX  15011 10837 42658 82204 10019 20007 39489 40154 57007 885// 333 88640;
0159108370999992008011501004+48217+009917FM-12+0550ETHL V0202201N004010120019N0080001N1+00191+00071101541ADDGA1081+012001061GF108991081051012501999999MA1999999094891MD1710071+9999REMSYN076AAXX  15011 10837 42658 82204 10019 20007 39489 40154 57007 885// 333 88640;
0159108370999992008011501004+48217+009917FM-12+0550ETHL V0202201N004010120019N0080001N1+00191+00071101541ADDGA1081+012001061GF108991081051012501999999MA1999999094891MD1710071+9999REMSYN076AAXX  15011 10837 42658 82204 10019 20007 39489 40154 57007 885// 333 88640;
0159108370999992008011501004+48217+009917FM-12+0550ETHL V0202201N004010120019N0080001N1+00191+00071101541ADDGA1081+012001061GF108991081051012501999999MA1999999094891MD1710071+9999REMSYN076AAXX  15011 10837 42658 82204 10019 20007 39489 40154 57007 885// 333 88640;
0159108370999992008011501004+48217+009917FM-12+0550ETHL V0202201N004010120019N0080001N1+00191+00071101541ADDGA1081+012001061GF108991081051012501999999MA1999999094891MD1710071+9999REMSYN076AAXX  15011 10837 42658 82204 10019 20007 39489 40154 57007 885// 333 88640;
0159108370999992008011501004+48217+009917FM-12+0550ETHL V0202201N004010120019N0080001N1+00191+00071101541ADDGA1081+012001061GF108991081051012501999999MA1999999094891MD1710071+9999REMSYN076AAXX  15011 10837 42658 82204 10019 20007 39489 40154 57007 885// 333 88640;
0159108370999992008011501004+48217+009917FM-12+0550ETHL V0202201N004010120019N0080001N1+00191+00071101541ADDGA1081+012001061GF108991081051012501999999MA1999999094891MD1710071+9999REMSYN076AAXX  15011 10837 42658 82204 10019 20007 39489 40154 57007 885// 333 88640;
0159108370999992008011501004+48217+009917FM-12+0550ETHL V0202201N004010120019N0080001N1+00191+00071101541ADDGA1081+012001061GF108991081051012501999999MA1999999094891MD1710071+9999REMSYN076AAXX  15011 10837 42658 82204 10019 20007 39489 40154 57007 885// 333 88640;
0159108370999992008011501004+48217+009917FM-12+0550ETHL V0202201N004010120019N0080001N1+00191+00071101541ADDGA1081+012001061GF108991081051012501999999MA1999999094891MD1710071+9999REMSYN076AAXX  15011 10837 42658 82204 10019 20007 39489 40154 57007 885// 333 88640;
0159108370999992008011501004+48217+009917FM-12+0550ETHL V0202201N004010120019N0080001N1+00191+00071101541ADDGA1081+012001061GF108991081051012501999999MA1999999094891MD1710071+9999REMSYN076AAXX  15011 10837 42658 82204 10019 20007 39489 40154 57007 885// 333 88640;
0159108370999992008011501004+48217+009917FM-12+0550ETHL V0202201N004010120019N0080001N1+00191+00071101541ADDGA1081+012001061GF108991081051012501999999MA1999999094891MD1710071+9999REMSYN076AAXX  15011 10837 42658 82204 10019 20007 39489 40154 57007 885// 333 88640;
0159108370999992008011501004+48217+009917FM-12+0550ETHL V0202201N004010120019N0080001N1+00191+00071101541ADDGA1081+012001061GF108991081051012501999999MA1999999094891MD1710071+9999REMSYN076AAXX  15011 10837 42658 82204 10019 20007 39489 40154 57007 885// 333 88640;
0159108370999992008011501004+48217+009917FM-12+0550ETHL V0202201N004010120019N0080001N1+00191+00071101541ADDGA1081+012001061GF108991081051012501999999MA1999999094891MD1710071+9999REMSYN076AAXX  15011 10837 42658 82204 10019 20007 39489 40154 57007 885// 333 88640;
0159108370999992008011501004+48217+009917FM-12+0550ETHL V0202201N004010120019N0080001N1+00191+00071101541ADDGA1081+012001061GF108991081051012501999999MA1999999094891MD1710071+9999REMSYN076AAXX  15011 10837 42658 82204 10019 20007 39489 40154 57007 885// 333 88640;
0159108370999992008011501004+48217+009917FM-12+0550ETHL V0202201N004010120019N0080001N1+00191+00071101541ADDGA1081+012001061GF108991081051012501999999MA1999999094891MD1710071+9999REMSYN076AAXX  15011 10837 42658 82204 10019 20007 39489 40154 57007 885// 333 88640;
0159108370999992008011501004+48217+009917FM-12+0550ETHL V0202201N004010120019N0080001N1+00191+00071101541ADDGA1081+012001061GF108991081051012501999999MA1999999094891MD1710071+9999REMSYN076AAXX  15011 10837 42658 82204 10019 20007 39489 40154 57007 885// 333 88640;
0159108370999992008011501004+48217+009917FM-12+0550ETHL V0202201N004010120019N0080001N1+00191+00071101541ADDGA1081+012001061GF108991081051012501999999MA1999999094891MD1710071+9999REMSYN076AAXX  15011 10837 42658 82204 10019 20007 39489 40154 57007 885// 333 88640;
0159108370999992008011501004+48217+009917FM-12+0550ETHL V0202201N004010120019N0080001N1+00191+00071101541ADDGA1081+012001061GF108991081051012501999999MA1999999094891MD1710071+9999REMSYN076AAXX  15011 10837 42658 82204 10019 20007 39489 40154 57007 885// 333 88640;
0159108370999992008011501004+48217+009917FM-12+0550ETHL V0202201N004010120019N0080001N1+00191+00071101541ADDGA1081+012001061GF108991081051012501999999MA1999999094891MD1710071+9999REMSYN076AAXX  15011 10837 42658 82204 10019 20007 39489 40154 57007 885// 333 88640;
0159108370999992008011501004+48217+009917FM-12+0550ETHL V0202201N004010120019N0080001N1+00191+00071101541ADDGA1081+012001061GF108991081051012501999999MA1999999094891MD1710071+9999REMSYN076AAXX  15011 10837 42658 82204 10019 20007 39489 40154 57007 885// 333 88640;
0159108370999992008011501004+48217+009917FM-12+0550ETHL V0202201N004010120019N0080001N1+00191+00071101541ADDGA1081+012001061GF108991081051012501999999MA1999999094891MD1710071+9999REMSYN076AAXX  15011 10837 42658 82204 10019 20007 39489 40154 57007 885// 333 88640;
0159108370999992008011501004+48217+009917FM-12+0550ETHL V0202201N004010120019N0080001N1+00191+00071101541ADDGA1081+012001061GF108991081051012501999999MA1999999094891MD1710071+9999REMSYN076AAXX  15011 10837 42658 82204 10019 20007 39489 40154 57007 885// 333 88640;
0159108370999992008011501004+48217+009917FM-12+0550ETHL V0202201N004010120019N0080001N1+00191+00071101541ADDGA1081+012001061GF108991081051012501999999MA1999999094891MD1710071+9999REMSYN076AAXX  15011 10837 42658 82204 10019 20007 39489 40154 57007 885// 333 88640;
0159108370999992008011501004+48217+009917FM-12+0550ETHL V0202201N004010120019N0080001N1+00191+00071101541ADDGA1081+012001061GF108991081051012501999999MA1999999094891MD1710071+9999REMSYN076AAXX  15011 10837 42658 82204 10019 20007 39489 40154 57007 885// 333 88640;
0159108370999992008011501004+48217+009917FM-12+0550ETHL V0202201N004010120019N0080001N1+00191+00071101541ADDGA1081+012001061GF108991081051012501999999MA1999999094891MD1710071+9999REMSYN076AAXX  15011 10837 42658 82204 10019 20007 39489 40154 57007 885// 333 88640;
0159108370999992008011501004+48217+009917FM-12+0550ETHL V0202201N004010120019N0080001N1+00191+00071101541ADDGA1081+012001061GF108991081051012501999999MA1999999094891MD1710071+9999REMSYN076AAXX  15011 10837 42658 82204 10019 20007 39489 40154 57007 885// 333 88640;
0159108370999992008011501004+48217+009917FM-12+0550ETHL V0202201N004010120019N0080001N1+00191+00071101541ADDGA1081+012001061GF108991081051012501999999MA1999999094891MD1710071+9999REMSYN076AAXX  15011 10837 42658 82204 10019 20007 39489 40154 57007 885// 333 88640;
0159108370999992008011501004+48217+009917FM-12+0550ETHL V0202201N004010120019N0080001N1+00191+00071101541ADDGA1081+012001061GF108991081051012501999999MA1999999094891MD1710071+9999REMSYN076AAXX  15011 10837 42658 82204 10019 20007 39489 40154 57007 885// 333 88640;
0159108370999992008011501004+48217+009917FM-12+0550ETHL V0202201N004010120019N0080001N1+00191+00071101541ADDGA1081+012001061GF108991081051012501999999MA1999999094891MD1710071+9999REMSYN076AAXX  15011 10837 42658 82204 10019 20007 39489 40154 57007 885// 333 88640;
0159108370999992008011501004+48217+009917FM-12+0550ETHL V0202201N004010120019N0080001N1+00191+00071101541ADDGA1081+012001061GF108991081051012501999999MA1999999094891MD1710071+9999REMSYN076AAXX  15011 10837 42658 82204 10019 20007 39489 40154 57007 885// 333 88640;
0159108370999992008011501004+48217+009917FM-12+0550ETHL V0202201N004010120019N0080001N1+00191+00071101541ADDGA1081+012001061GF108991081051012501999999MA1999999094891MD1710071+9999REMSYN076AAXX  15011 10837 42658 82204 10019 20007 39489 40154 57007 885// 333 88640;
0159108370999992008011501004+48217+009917FM-12+0550ETHL V0202201N004010120019N0080001N1+00191+00071101541ADDGA1081+012001061GF108991081051012501999999MA1999999094891MD1710071+9999REMSYN076AAXX  15011 10837 42658 82204 10019 20007 39489 40154 57007 885// 333 88640;
0159108370999992008011501004+48217+009917FM-12+0550ETHL V0202201N004010120019N0080001N1+00191+00071101541ADDGA1081+012001061GF108991081051012501999999MA1999999094891MD1710071+9999REMSYN076AAXX  15011 10837 42658 82204 10019 20007 39489 40154 57007 885// 333 88640;
0159108370999992008011501004+48217+009917FM-12+0550ETHL V0202201N004010120019N0080001N1+00191+00071101541ADDGA1081+012001061GF108991081051012501999999MA1999999094891MD1710071+9999REMSYN076AAXX  15011 10837 42658 82204 10019 20007 39489 40154 57007 885// 333 88640;
0159108370999992008011501004+48217+009917FM-12+0550ETHL V0202201N004010120019N0080001N1+00191+00071101541ADDGA1081+012001061GF108991081051012501999999MA1999999094891MD1710071+9999REMSYN076AAXX  15011 10837 42658 82204 10019 20007 39489 40154 57007 885// 333 88640;
0159108370999992008011501004+48217+009917FM-12+0550ETHL V0202201N004010120019N0080001N1+00191+00071101541ADDGA1081+012001061GF108991081051012501999999MA1999999094891MD1710071+9999REMSYN076AAXX  15011 10837 42658 82204 10019 20007 39489 40154 57007 885// 333 88640;
0159108370999992008011501004+48217+009917FM-12+0550ETHL V0202201N004010120019N0080001N1+00191+00071101541ADDGA1081+012001061GF108991081051012501999999MA1999999094891MD1710071+9999REMSYN076AAXX  15011 10837 42658 82204 10019 20007 39489 40154 57007 885// 333 88640;
0159108370999992008011501004+48217+009917FM-12+0550ETHL V0202201N004010120019N0080001N1+00191+00071101541ADDGA1081+012001061GF108991081051012501999999MA1999999094891MD1710071+9999REMSYN076AAXX  15011 10837 42658 82204 10019 20007 39489 40154 57007 885// 333 88640;
0159108370999992008011501004+48217+009917FM-12+0550ETHL V0202201N004010120019N0080001N1+00191+00071101541ADDGA1081+012001061GF108991081051012501999999MA1999999094891MD1710071+9999REMSYN076AAXX  15011 10837 42658 82204 10019 20007 39489 40154 57007 885// 333 88640;
0159108370999992008011501004+48217+009917FM-12+0550ETHL V0202201N004010120019N0080001N1+00191+00071101541ADDGA1081+012001061GF108991081051012501999999MA1999999094891MD1710071+9999REMSYN076AAXX  15011 10837 42658 82204 10019 20007 39489 40154 57007 885// 333 88640;
0159108370999992008011501004+48217+009917FM-12+0550ETHL V0202201N004010120019N0080001N1+00191+00071101541ADDGA1081+012001061GF108991081051012501999999MA1999999094891MD1710071+9999REMSYN076AAXX  15011 10837 42658 82204 10019 20007 39489 40154 57007 885// 333 88640;
0159108370999992008011501004+48217+009917FM-12+0550ETHL V0202201N004010120019N0080001N1+00191+00071101541ADDGA1081+012001061GF108991081051012501999999MA1999999094891MD1710071+9999REMSYN076AAXX  15011 10837 42658 82204 10019 20007 39489 40154 57007 885// 333 88640;
0159108370999992008011501004+48217+009917FM-12+0550ETHL V0202201N004010120019N0080001N1+00191+00071101541ADDGA1081+012001061GF108991081051012501999999MA1999999094891MD1710071+9999REMSYN076AAXX  15011 10837 42658 82204 10019 20007 39489 40154 57007 885// 333 88640;
0159108370999992008011501004+48217+009917FM-12+0550ETHL V0202201N004010120019N0080001N1+00191+00071101541ADDGA1081+012001061GF108991081051012501999999MA1999999094891MD1710071+9999REMSYN076AAXX  15011 10837 42658 82204 10019 20007 39489 40154 57007 885// 333 88640;
0159108370999992008011501004+48217+009917FM-12+0550ETHL V0202201N004010120019N0080001N1+00191+00071101541ADDGA1081+012001061GF108991081051012501999999MA1999999094891MD1710071+9999REMSYN076AAXX  15011 10837 42658 82204 10019 20007 39489 40154 57007 885// 333 88640;
0159108370999992008011501004+48217+009917FM-12+0550ETHL V0202201N004010120019N0080001N1+00191+00071101541ADDGA1081+012001061GF108991081051012501999999MA1999999094891MD1710071+9999REMSYN076AAXX  15011 10837 42658 82204 10019 20007 39489 40154 57007 885// 333 88640;
0159108370999992008011501004+48217+009917FM-12+0550ETHL V0202201N004010120019N0080001N1+00191+00071101541ADDGA1081+012001061GF108991081051012501999999MA1999999094891MD1710071+9999REMSYN076AAXX  15011 10837 42658 82204 10019 20007 39489 40154 57007 885// 333 88640;
0159108370999992008011501004+48217+009917FM-12+0550ETHL V0202201N004010120019N0080001N1+00191+00071101541ADDGA1081+012001061GF108991081051012501999999MA1999999094891MD1710071+9999REMSYN076AAXX  15011 10837 42658 82204 10019 20007 39489 40154 57007 885// 333 88640;
0159108370999992008011501004+48217+009917FM-12+0550ETHL V0202201N004010120019N0080001N1+00191+00071101541ADDGA1081+012001061GF108991081051012501999999MA1999999094891MD1710071+9999REMSYN076AAXX  15011 10837 42658 82204 10019 20007 39489 40154 57007 885// 333 88640;
0159108370999992008011501004+48217+009917FM-12+0550ETHL V0202201N004010120019N0080001N1+00191+00071101541ADDGA1081+012001061GF108991081051012501999999MA1999999094891MD1710071+9999REMSYN076AAXX  15011 10837 42658 82204 10019 20007 39489 40154 57007 885// 333 88640;
0159108370999992008011501004+48217+009917FM-12+0550ETHL V0202201N004010120019N0080001N1+00191+00071101541ADDGA1081+012001061GF108991081051012501999999MA1999999094891MD1710071+9999REMSYN076AAXX  15011 10837 42658 82204 10019 20007 39489 40154 57007 885// 333 88640;
0159108370999992008011501004+48217+009917FM-12+0550ETHL V0202201N004010120019N0080001N1+00191+00071101541ADDGA1081+012001061GF108991081051012501999999MA1999999094891MD1710071+9999REMSYN076AAXX  15011 10837 42658 82204 10019 20007 39489 40154 57007 885// 333 88640;
0159108370999992008011501004+48217+009917FM-12+0550ETHL V0202201N004010120019N0080001N1+00191+00071101541ADDGA1081+012001061GF108991081051012501999999MA1999999094891MD1710071+9999REMSYN076AAXX  15011 10837 42658 82204 10019 20007 39489 40154 57007 885// 333 88640;
0159108370999992008011501004+48217+009917FM-12+0550ETHL V0202201N004010120019N0080001N1+00191+00071101541ADDGA1081+012001061GF108991081051012501999999MA1999999094891MD1710071+9999REMSYN076AAXX  15011 10837 42658 82204 10019 20007 39489 40154 57007 885// 333 88640;
0159108370999992008011501004+48217+009917FM-12+0550ETHL V0202201N004010120019N0080001N1+00191+00071101541ADDGA1081+012001061GF108991081051012501999999MA1999999094891MD1710071+9999REMSYN076AAXX  15011 10837 42658 82204 10019 20007 39489 40154 57007 885// 333 88640;
0159108370999992008011501004+48217+009917FM-12+0550ETHL V0202201N004010120019N0080001N1+00191+00071101541ADDGA1081+012001061GF108991081051012501999999MA1999999094891MD1710071+9999REMSYN076AAXX  15011 10837 42658 82204 10019 20007 39489 40154 57007 885// 333 88640;
0159108370999992008011501004+48217+009917FM-12+0550ETHL V0202201N004010120019N0080001N1+00191+00071101541ADDGA1081+012001061GF108991081051012501999999MA1999999094891MD1710071+9999REMSYN076AAXX  15011 10837 42658 82204 10019 20007 39489 40154 57007 885// 333 88640;
0159108370999992008011501004+48217+009917FM-12+0550ETHL V0202201N004010120019N0080001N1+00191+00071101541ADDGA1081+012001061GF108991081051012501999999MA1999999094891MD1710071+9999REMSYN076AAXX  15011 10837 42658 82204 10019 20007 39489 40154 57007 885// 333 88640;
0159108370999992008011501004+48217+009917FM-12+0550ETHL V0202201N004010120019N0080001N1+00191+00071101541ADDGA1081+012001061GF108991081051012501999999MA1999999094891MD1710071+9999REMSYN076AAXX  15011 10837 42658 82204 10019 20007 39489 40154 57007 885// 333 88640;
0159108370999992008011501004+48217+009917FM-12+0550ETHL V0202201N004010120019N0080001N1+00191+00071101541ADDGA1081+012001061GF108991081051012501999999MA1999999094891MD1710071+9999REMSYN076AAXX  15011 10837 42658 82204 10019 20007 39489 40154 57007 885// 333 88640;
0159108370999992008011501004+48217+009917FM-12+0550ETHL V0202201N004010120019N0080001N1+00191+00071101541ADDGA1081+012001061GF108991081051012501999999MA1999999094891MD1710071+9999REMSYN076AAXX  15011 10837 42658 82204 10019 20007 39489 40154 57007 885// 333 88640;
0159108370999992008011501004+48217+009917FM-12+0550ETHL V0202201N004010120019N0080001N1+00191+00071101541ADDGA1081+012001061GF108991081051012501999999MA1999999094891MD1710071+9999REMSYN076AAXX  15011 10837 42658 82204 10019 20007 39489 40154 57007 885// 333 88640;
0159108370999992008011501004+48217+009917FM-12+0550ETHL V0202201N004010120019N0080001N1+00191+00071101541ADDGA1081+012001061GF108991081051012501999999MA1999999094891MD1710071+9999REMSYN076AAXX  15011 10837 42658 82204 10019 20007 39489 40154 57007 885// 333 88640;
0159108370999992008011501004+48217+009917FM-12+0550ETHL V0202201N004010120019N0080001N1+00191+00071101541ADDGA1081+012001061GF108991081051012501999999MA1999999094891MD1710071+9999REMSYN076AAXX  15011 10837 42658 82204 10019 20007 39489 40154 57007 885// 333 88640;
0159108370999992008011501004+48217+009917FM-12+0550ETHL V0202201N004010120019N0080001N1+00191+00071101541ADDGA1081+012001061GF108991081051012501999999MA1999999094891MD1710071+9999REMSYN076AAXX  15011 10837 42658 82204 10019 20007 39489 40154 57007 885// 333 88640;
0159108370999992008011501004+48217+009917FM-12+0550ETHL V0202201N004010120019N0080001N1+00191+00071101541ADDGA1081+012001061GF108991081051012501999999MA1999999094891MD1710071+9999REMSYN076AAXX  15011 10837 42658 82204 10019 20007 39489 40154 57007 885// 333 88640;
0159108370999992008011501004+48217+009917FM-12+0550ETHL V0202201N004010120019N0080001N1+00191+00071101541ADDGA1081+012001061GF108991081051012501999999MA1999999094891MD1710071+9999REMSYN076AAXX  15011 10837 42658 82204 10019 20007 39489 40154 57007 885// 333 88640;
0159108370999992008011501004+48217+009917FM-12+0550ETHL V0202201N004010120019N0080001N1+00191+00071101541ADDGA1081+012001061GF108991081051012501999999MA1999999094891MD1710071+9999REMSYN076AAXX  15011 10837 42658 82204 10019 20007 39489 40154 57007 885// 333 88640;
0159108370999992008011501004+48217+009917FM-12+0550ETHL V0202201N004010120019N0080001N1+00191+00071101541ADDGA1081+012001061GF108991081051012501999999MA1999999094891MD1710071+9999REMSYN076AAXX  15011 10837 42658 82204 10019 20007 39489 40154 57007 885// 333 88640;
0159108370999992008011501004+48217+009917FM-12+0550ETHL V0202201N004010120019N0080001N1+00191+00071101541ADDGA1081+012001061GF108991081051012501999999MA1999999094891MD1710071+9999REMSYN076AAXX  15011 10837 42658 82204 10019 20007 39489 40154 57007 885// 333 88640;
0159108370999992008011501004+48217+009917FM-12+0550ETHL V0202201N004010120019N0080001N1+00191+00071101541ADDGA1081+012001061GF108991081051012501999999MA1999999094891MD1710071+9999REMSYN076AAXX  15011 10837 42658 82204 10019 20007 39489 40154 57007 885// 333 88640;
0159108370999992008011501004+48217+009917FM-12+0550ETHL V0202201N004010120019N0080001N1+00191+00071101541ADDGA1081+012001061GF108991081051012501999999MA1999999094891MD1710071+9999REMSYN076AAXX  15011 10837 42658 82204 10019 20007 39489 40154 57007 885// 333 88640;
0159108370999992008011501004+48217+009917FM-12+0550ETHL V0202201N004010120019N0080001N1+00191+00071101541ADDGA1081+012001061GF108991081051012501999999MA1999999094891MD1710071+9999REMSYN076AAXX  15011 10837 42658 82204 10019 20007 39489 40154 57007 885// 333 88640;
0159108370999992008011501004+48217+009917FM-12+0550ETHL V0202201N004010120019N0080001N1+00191+00071101541ADDGA1081+012001061GF108991081051012501999999MA1999999094891MD1710071+9999REMSYN076AAXX  15011 10837 42658 82204 10019 20007 39489 40154 57007 885// 333 88640;
0159108370999992008011501004+48217+009917FM-12+0550ETHL V0202201N004010120019N0080001N1+00191+00071101541ADDGA1081+012001061GF108991081051012501999999MA1999999094891MD1710071+9999REMSYN076AAXX  15011 10837 42658 82204 10019 20007 39489 40154 57007 885// 333 88640;
0159108370999992008011501004+48217+009917FM-12+0550ETHL V0202201N004010120019N0080001N1+00191+00071101541ADDGA1081+012001061GF108991081051012501999999MA1999999094891MD1710071+9999REMSYN076AAXX  15011 10837 42658 82204 10019 20007 39489 40154 57007 885// 333 88640;
0159108370999992008011501004+48217+009917FM-12+0550ETHL V0202201N004010120019N0080001N1+00191+00071101541ADDGA1081+012001061GF108991081051012501999999MA1999999094891MD1710071+9999REMSYN076AAXX  15011 10837 42658 82204 10019 20007 39489 40154 57007 885// 333 88640;
0159108370999992008011501004+48217+009917FM-12+0550ETHL V0202201N004010120019N0080001N1+00191+00071101541ADDGA1081+012001061GF108991081051012501999999MA1999999094891MD1710071+9999REMSYN076AAXX  15011 10837 42658 82204 10019 20007 39489 40154 57007 885// 333 88640;
0159108370999992008011501004+48217+009917FM-12+0550ETHL V0202201N004010120019N0080001N1+00191+00071101541ADDGA1081+012001061GF108991081051012501999999MA1999999094891MD1710071+9999REMSYN076AAXX  15011 10837 42658 82204 10019 20007 39489 40154 57007 885// 333 88640;
0159108370999992008011501004+48217+009917FM-12+0550ETHL V0202201N004010120019N0080001N1+00191+00071101541ADDGA1081+012001061GF108991081051012501999999MA1999999094891MD1710071+9999REMSYN076AAXX  15011 10837 42658 82204 10019 20007 39489 40154 57007 885// 333 88640;
0159108370999992008011501004+48217+009917FM-12+0550ETHL V0202201N004010120019N0080001N1+00191+00071101541ADDGA1081+012001061GF108991081051012501999999MA1999999094891MD1710071+9999REMSYN076AAXX  15011 10837 42658 82204 10019 20007 39489 40154 57007 885// 333 88640;
0159108370999992008011501004+48217+009917FM-12+0550ETHL V0202201N004010120019N0080001N1+00191+00071101541ADDGA1081+012001061GF108991081051012501999999MA1999999094891MD1710071+9999REMSYN076AAXX  15011 10837 42658 82204 10019 20007 39489 40154 57007 885// 333 88640;
0159108370999992008011501004+48217+009917FM-12+0550ETHL V0202201N004010120019N0080001N1+00191+00071101541ADDGA1081+012001061GF108991081051012501999999MA1999999094891MD1710071+9999REMSYN076AAXX  15011 10837 42658 82204 10019 20007 39489 40154 57007 885// 333 88640;
0159108370999992008011501004+48217+009917FM-12+0550ETHL V0202201N004010120019N0080001N1+00191+00071101541ADDGA1081+012001061GF108991081051012501999999MA1999999094891MD1710071+9999REMSYN076AAXX  15011 10837 42658 82204 10019 20007 39489 40154 57007 885// 333 88640;
0159108370999992008011501004+48217+009917FM-12+0550ETHL V0202201N004010120019N0080001N1+00191+00071101541ADDGA1081+012001061GF108991081051012501999999MA1999999094891MD1710071+9999REMSYN076AAXX  15011 10837 42658 82204 10019 20007 39489 40154 57007 885// 333 88640;
0159108370999992008011501004+48217+009917FM-12+0550ETHL V0202201N004010120019N0080001N1+00191+00071101541ADDGA1081+012001061GF108991081051012501999999MA1999999094891MD1710071+9999REMSYN076AAXX  15011 10837 42658 82204 10019 20007 39489 40154 57007 885// 333 88640;
0159108370999992008011501004+48217+009917FM-12+0550ETHL V0202201N004010120019N0080001N1+00191+00071101541ADDGA1081+012001061GF108991081051012501999999MA1999999094891MD1710071+9999REMSYN076AAXX  15011 10837 42658 82204 10019 20007 39489 40154 57007 885// 333 88640;
0159108370999992008011501004+48217+009917FM-12+0550ETHL V0202201N004010120019N0080001N1+00191+00071101541ADDGA1081+012001061GF108991081051012501999999MA1999999094891MD1710071+9999REMSYN076AAXX  15011 10837 42658 82204 10019 20007 39489 40154 57007 885// 333 88640;
0159108370999992008011501004+48217+009917FM-12+0550ETHL V0202201N004010120019N0080001N1+00191+00071101541ADDGA1081+012001061GF108991081051012501999999MA1999999094891MD1710071+9999REMSYN076AAXX  15011 10837 42658 82204 10019 20007 39489 40154 57007 885// 333 88640;
0159108370999992008011501004+48217+009917FM-12+0550ETHL V0202201N004010120019N0080001N1+00191+00071101541ADDGA1081+012001061GF108991081051012501999999MA1999999094891MD1710071+9999REMSYN076AAXX  15011 10837 42658 82204 10019 20007 39489 40154 57007 885// 333 88640;
0159108370999992008011501004+48217+009917FM-12+0550ETHL V0202201N004010120019N0080001N1+00191+00071101541ADDGA1081+012001061GF108991081051012501999999MA1999999094891MD1710071+9999REMSYN076AAXX  15011 10837 42658 82204 10019 20007 39489 40154 57007 885// 333 88640;
0159108370999992008011501004+48217+009917FM-12+0550ETHL V0202201N004010120019N0080001N1+00191+00071101541ADDGA1081+012001061GF108991081051012501999999MA1999999094891MD1710071+9999REMSYN076AAXX  15011 10837 42658 82204 10019 20007 39489 40154 57007 885// 333 88640;
0159108370999992008011501004+48217+009917FM-12+0550ETHL V0202201N004010120019N0080001N1+00191+00071101541ADDGA1081+012001061GF108991081051012501999999MA1999999094891MD1710071+9999REMSYN076AAXX  15011 10837 42658 82204 10019 20007 39489 40154 57007 885// 333 88640;
0159108370999992008011501004+48217+009917FM-12+0550ETHL V0202201N004010120019N0080001N1+00191+00071101541ADDGA1081+012001061GF108991081051012501999999MA1999999094891MD1710071+9999REMSYN076AAXX  15011 10837 42658 82204 10019 20007 39489 40154 57007 885// 333 88640;
0159108370999992008011501004+48217+009917FM-12+0550ETHL V0202201N004010120019N0080001N1+00191+00071101541ADDGA1081+012001061GF108991081051012501999999MA1999999094891MD1710071+9999REMSYN076AAXX  15011 10837 42658 82204 10019 20007 39489 40154 57007 885// 333 88640;
0159108370999992008011501004+48217+009917FM-12+0550ETHL V0202201N004010120019N0080001N1+00191+00071101541ADDGA1081+012001061GF108991081051012501999999MA1999999094891MD1710071+9999REMSYN076AAXX  15011 10837 42658 82204 10019 20007 39489 40154 57007 885// 333 88640;
0159108370999992008011501004+48217+009917FM-12+0550ETHL V0202201N004010120019N0080001N1+00191+00071101541ADDGA1081+012001061GF108991081051012501999999MA1999999094891MD1710071+9999REMSYN076AAXX  15011 10837 42658 82204 10019 20007 39489 40154 57007 885// 333 88640;
0159108370999992008011501004+48217+009917FM-12+0550ETHL V0202201N004010120019N0080001N1+00191+00071101541ADDGA1081+012001061GF108991081051012501999999MA1999999094891MD1710071+9999REMSYN076AAXX  15011 10837 42658 82204 10019 20007 39489 40154 57007 885// 333 88640;
0159108370999992008011501004+48217+009917FM-12+0550ETHL V0202201N004010120019N0080001N1+00191+00071101541ADDGA1081+012001061GF108991081051012501999999MA1999999094891MD1710071+9999REMSYN076AAXX  15011 10837 42658 82204 10019 20007 39489 40154 57007 885// 333 88640;
0159108370999992008011501004+48217+009917FM-12+0550ETHL V0202201N004010120019N0080001N1+00191+00071101541ADDGA1081+012001061GF108991081051012501999999MA1999999094891MD1710071+9999REMSYN076AAXX  15011 10837 42658 82204 10019 20007 39489 40154 57007 885// 333 88640;
0159108370999992008011501004+48217+009917FM-12+0550ETHL V0202201N004010120019N0080001N1+00191+00071101541ADDGA1081+012001061GF108991081051012501999999MA1999999094891MD1710071+9999REMSYN076AAXX  15011 10837 42658 82204 10019 20007 39489 40154 57007 885// 333 88640;
0159108370999992008011501004+48217+009917FM-12+0550ETHL V0202201N004010120019N0080001N1+00191+00071101541ADDGA1081+012001061GF108991081051012501999999MA1999999094891MD1710071+9999REMSYN076AAXX  15011 10837 42658 82204 10019 20007 39489 40154 57007 885// 333 88640;
0159108370999992008011501004+48217+009917FM-12+0550ETHL V0202201N004010120019N0080001N1+00191+00071101541ADDGA1081+012001061GF108991081051012501999999MA1999999094891MD1710071+9999REMSYN076AAXX  15011 10837 42658 82204 10019 20007 39489 40154 57007 885// 333 88640;
0159108370999992008011501004+48217+009917FM-12+0550ETHL V0202201N004010120019N0080001N1+00191+00071101541ADDGA1081+012001061GF108991081051012501999999MA1999999094891MD1710071+9999REMSYN076AAXX  15011 10837 42658 82204 10019 20007 39489 40154 57007 885// 333 88640;
0159108370999992008011501004+48217+009917FM-12+0550ETHL V0202201N004010120019N0080001N1+00191+00071101541ADDGA1081+012001061GF108991081051012501999999MA1999999094891MD1710071+9999REMSYN076AAXX  15011 10837 42658 82204 10019 20007 39489 40154 57007 885// 333 88640;
0159108370999992008011501004+48217+009917FM-12+0550ETHL V0202201N004010120019N0080001N1+00191+00071101541ADDGA1081+012001061GF108991081051012501999999MA1999999094891MD1710071+9999REMSYN076AAXX  15011 10837 42658 82204 10019 20007 39489 40154 57007 885// 333 88640;
0159108370999992008011501004+48217+009917FM-12+0550ETHL V0202201N004010120019N0080001N1+00191+00071101541ADDGA1081+012001061GF108991081051012501999999MA1999999094891MD1710071+9999REMSYN076AAXX  15011 10837 42658 82204 10019 20007 39489 40154 57007 885// 333 88640;
0159108370999992008011501004+48217+009917FM-12+0550ETHL V0202201N004010120019N0080001N1+00191+00071101541ADDGA1081+012001061GF108991081051012501999999MA1999999094891MD1710071+9999REMSYN076AAXX  15011 10837 42658 82204 10019 20007 39489 40154 57007 885// 333 88640;
0159108370999992008011501004+48217+009917FM-12+0550ETHL V0202201N004010120019N0080001N1+00191+00071101541ADDGA1081+012001061GF108991081051012501999999MA1999999094891MD1710071+9999REMSYN076AAXX  15011 10837 42658 82204 10019 20007 39489 40154 57007 885// 333 88640;
0159108370999992008011501004+48217+009917FM-12+0550ETHL V0202201N004010120019N0080001N1+00191+00071101541ADDGA1081+012001061GF108991081051012501999999MA1999999094891MD1710071+9999REMSYN076AAXX  15011 10837 42658 82204 10019 20007 39489 40154 57007 885// 333 88640;
0159108370999992008011501004+48217+009917FM-12+0550ETHL V0202201N004010120019N0080001N1+00191+00071101541ADDGA1081+012001061GF108991081051012501999999MA1999999094891MD1710071+9999REMSYN076AAXX  15011 10837 42658 82204 10019 20007 39489 40154 57007 885// 333 88640;
0159108370999992008011501004+48217+009917FM-12+0550ETHL V0202201N004010120019N0080001N1+00191+00071101541ADDGA1081+012001061GF108991081051012501999999MA1999999094891MD1710071+9999REMSYN076AAXX  15011 10837 42658 82204 10019 20007 39489 40154 57007 885// 333 88640;
0159108370999992008011501004+48217+009917FM-12+0550ETHL V0202201N004010120019N0080001N1+00191+00071101541ADDGA1081+012001061GF108991081051012501999999MA1999999094891MD1710071+9999REMSYN076AAXX  15011 10837 42658 82204 10019 20007 39489 40154 57007 885// 333 88640;
0159108370999992008011501004+48217+009917FM-12+0550ETHL V0202201N004010120019N0080001N1+00191+00071101541ADDGA1081+012001061GF108991081051012501999999MA1999999094891MD1710071+9999REMSYN076AAXX  15011 10837 42658 82204 10019 20007 39489 40154 57007 885// 333 88640;
0159108370999992008011501004+48217+009917FM-12+0550ETHL V0202201N004010120019N0080001N1+00191+00071101541ADDGA1081+012001061GF108991081051012501999999MA1999999094891MD1710071+9999REMSYN076AAXX  15011 10837 42658 82204 10019 20007 39489 40154 57007 885// 333 88640;
0159108370999992008011501004+48217+009917FM-12+0550ETHL V0202201N004010120019N0080001N1+00191+00071101541ADDGA1081+012001061GF108991081051012501999999MA1999999094891MD1710071+9999REMSYN076AAXX  15011 10837 42658 82204 10019 20007 39489 40154 57007 885// 333 88640;
0159108370999992008011501004+48217+009917FM-12+0550ETHL V0202201N004010120019N0080001N1+00191+00071101541ADDGA1081+012001061GF108991081051012501999999MA1999999094891MD1710071+9999REMSYN076AAXX  15011 10837 42658 82204 10019 20007 39489 40154 57007 885// 333 88640;
0159108370999992008011501004+48217+009917FM-12+0550ETHL V0202201N004010120019N0080001N1+00191+00071101541ADDGA1081+012001061GF108991081051012501999999MA1999999094891MD1710071+9999REMSYN076AAXX  15011 10837 42658 82204 10019 20007 39489 40154 57007 885// 333 88640;
0159108370999992008011501004+48217+009917FM-12+0550ETHL V0202201N004010120019N0080001N1+00191+00071101541ADDGA1081+012001061GF108991081051012501999999MA1999999094891MD1710071+9999REMSYN076AAXX  15011 10837 42658 82204 10019 20007 39489 40154 57007 885// 333 88640;
0159108370999992008011501004+48217+009917FM-12+0550ETHL V0202201N004010120019N0080001N1+00191+00071101541ADDGA1081+012001061GF108991081051012501999999MA1999999094891MD1710071+9999REMSYN076AAXX  15011 10837 42658 82204 10019 20007 39489 40154 57007 885// 333 88640;
0159108370999992008011501004+48217+009917FM-12+0550ETHL V0202201N004010120019N0080001N1+00191+00071101541ADDGA1081+012001061GF108991081051012501999999MA1999999094891MD1710071+9999REMSYN076AAXX  15011 10837 42658 82204 10019 20007 39489 40154 57007 885// 333 88640;
0159108370999992008011501004+48217+009917FM-12+0550ETHL V0202201N004010120019N0080001N1+00191+00071101541ADDGA1081+012001061GF108991081051012501999999MA1999999094891MD1710071+9999REMSYN076AAXX  15011 10837 42658 82204 10019 20007 39489 40154 57007 885// 333 88640;
0159108370999992008011501004+48217+009917FM-12+0550ETHL V0202201N004010120019N0080001N1+00191+00071101541ADDGA1081+012001061GF108991081051012501999999MA1999999094891MD1710071+9999REMSYN076AAXX  15011 10837 42658 82204 10019 20007 39489 40154 57007 885// 333 88640;
0159108370999992008011501004+48217+009917FM-12+0550ETHL V0202201N004010120019N0080001N1+00191+00071101541ADDGA1081+012001061GF108991081051012501999999MA1999999094891MD1710071+9999REMSYN076AAXX  15011 10837 42658 82204 10019 20007 39489 40154 57007 885// 333 88640;
0159108370999992008011501004+48217+009917FM-12+0550ETHL V0202201N004010120019N0080001N1+00191+00071101541ADDGA1081+012001061GF108991081051012501999999MA1999999094891MD1710071+9999REMSYN076AAXX  15011 10837 42658 82204 10019 20007 39489 40154 57007 885// 333 88640;
0159108370999992008011501004+48217+009917FM-12+0550ETHL V0202201N004010120019N0080001N1+00191+00071101541ADDGA1081+012001061GF108991081051012501999999MA1999999094891MD1710071+9999REMSYN076AAXX  15011 10837 42658 82204 10019 20007 39489 40154 57007 885// 333 88640;
0159108370999992008011501004+48217+009917FM-12+0550ETHL V0202201N004010120019N0080001N1+00191+00071101541ADDGA1081+012001061GF108991081051012501999999MA1999999094891MD1710071+9999REMSYN076AAXX  15011 10837 42658 82204 10019 20007 39489 40154 57007 885// 333 88640;
0159108370999992008011501004+48217+009917FM-12+0550ETHL V0202201N004010120019N0080001N1+00191+00071101541ADDGA1081+012001061GF108991081051012501999999MA1999999094891MD1710071+9999REMSYN076AAXX  15011 10837 42658 82204 10019 20007 39489 40154 57007 885// 333 88640;
0159108370999992008011501004+48217+009917FM-12+0550ETHL V0202201N004010120019N0080001N1+00191+00071101541ADDGA1081+012001061GF108991081051012501999999MA1999999094891MD1710071+9999REMSYN076AAXX  15011 10837 42658 82204 10019 20007 39489 40154 57007 885// 333 88640;
0159108370999992008011501004+48217+009917FM-12+0550ETHL V0202201N004010120019N0080001N1+00191+00071101541ADDGA1081+012001061GF108991081051012501999999MA1999999094891MD1710071+9999REMSYN076AAXX  15011 10837 42658 82204 10019 20007 39489 40154 57007 885// 333 88640;
0159108370999992008011501004+48217+009917FM-12+0550ETHL V0202201N004010120019N0080001N1+00191+00071101541ADDGA1081+012001061GF108991081051012501999999MA1999999094891MD1710071+9999REMSYN076AAXX  15011 10837 42658 82204 10019 20007 39489 40154 57007 885// 333 88640;
0159108370999992008011501004+48217+009917FM-12+0550ETHL V0202201N004010120019N0080001N1+00191+00071101541ADDGA1081+012001061GF108991081051012501999999MA1999999094891MD1710071+9999REMSYN076AAXX  15011 10837 42658 82204 10019 20007 39489 40154 57007 885// 333 88640;
0159108370999992008011501004+48217+009917FM-12+0550ETHL V0202201N004010120019N0080001N1+00191+00071101541ADDGA1081+012001061GF108991081051012501999999MA1999999094891MD1710071+9999REMSYN076AAXX  15011 10837 42658 82204 10019 20007 39489 40154 57007 885// 333 88640;
0159108370999992008011501004+48217+009917FM-12+0550ETHL V0202201N004010120019N0080001N1+00191+00071101541ADDGA1081+012001061GF108991081051012501999999MA1999999094891MD1710071+9999REMSYN076AAXX  15011 10837 42658 82204 10019 20007 39489 40154 57007 885// 333 88640;
0159108370999992008011501004+48217+009917FM-12+0550ETHL V0202201N004010120019N0080001N1+00191+00071101541ADDGA1081+012001061GF108991081051012501999999MA1999999094891MD1710071+9999REMSYN076AAXX  15011 10837 42658 82204 10019 20007 39489 40154 57007 885// 333 88640;
0159108370999992008011501004+48217+009917FM-12+0550ETHL V0202201N004010120019N0080001N1+00191+00071101541ADDGA1081+012001061GF108991081051012501999999MA1999999094891MD1710071+9999REMSYN076AAXX  15011 10837 42658 82204 10019 20007 39489 40154 57007 885// 333 88640;
0159108370999992008011501004+48217+009917FM-12+0550ETHL V0202201N004010120019N0080001N1+00191+00071101541ADDGA1081+012001061GF108991081051012501999999MA1999999094891MD1710071+9999REMSYN076AAXX  15011 10837 42658 82204 10019 20007 39489 40154 57007 885// 333 88640;
0159108370999992008011501004+48217+009917FM-12+0550ETHL V0202201N004010120019N0080001N1+00191+00071101541ADDGA1081+012001061GF108991081051012501999999MA1999999094891MD1710071+9999REMSYN076AAXX  15011 10837 42658 82204 10019 20007 39489 40154 57007 885// 333 88640;
0159108370999992008011501004+48217+009917FM-12+0550ETHL V0202201N004010120019N0080001N1+00191+00071101541ADDGA1081+012001061GF108991081051012501999999MA1999999094891MD1710071+9999REMSYN076AAXX  15011 10837 42658 82204 10019 20007 39489 40154 57007 885// 333 88640;
0159108370999992008011501004+48217+009917FM-12+0550ETHL V0202201N004010120019N0080001N1+00191+00071101541ADDGA1081+012001061GF108991081051012501999999MA1999999094891MD1710071+9999REMSYN076AAXX  15011 10837 42658 82204 10019 20007 39489 40154 57007 885// 333 88640;
0159108370999992008011501004+48217+009917FM-12+0550ETHL V0202201N004010120019N0080001N1+00191+00071101541ADDGA1081+012001061GF108991081051012501999999MA1999999094891MD1710071+9999REMSYN076AAXX  15011 10837 42658 82204 10019 20007 39489 40154 57007 885// 333 88640;
0159108370999992008011501004+48217+009917FM-12+0550ETHL V0202201N004010120019N0080001N1+00191+00071101541ADDGA1081+012001061GF108991081051012501999999MA1999999094891MD1710071+9999REMSYN076AAXX  15011 10837 42658 82204 10019 20007 39489 40154 57007 885// 333 88640;
0159108370999992008011501004+48217+009917FM-12+0550ETHL V0202201N004010120019N0080001N1+00191+00071101541ADDGA1081+012001061GF108991081051012501999999MA1999999094891MD1710071+9999REMSYN076AAXX  15011 10837 42658 82204 10019 20007 39489 40154 57007 885// 333 88640;
0159108370999992008011501004+48217+009917FM-12+0550ETHL V0202201N004010120019N0080001N1+00191+00071101541ADDGA1081+012001061GF108991081051012501999999MA1999999094891MD1710071+9999REMSYN076AAXX  15011 10837 42658 82204 10019 20007 39489 40154 57007 885// 333 88640;
0159108370999992008011501004+48217+009917FM-12+0550ETHL V0202201N004010120019N0080001N1+00191+00071101541ADDGA1081+012001061GF108991081051012501999999MA1999999094891MD1710071+9999REMSYN076AAXX  15011 10837 42658 82204 10019 20007 39489 40154 57007 885// 333 88640;
0159108370999992008011501004+48217+009917FM-12+0550ETHL V0202201N004010120019N0080001N1+00191+00071101541ADDGA1081+012001061GF108991081051012501999999MA1999999094891MD1710071+9999REMSYN076AAXX  15011 10837 42658 82204 10019 20007 39489 40154 57007 885// 333 88640;
0159108370999992008011501004+48217+009917FM-12+0550ETHL V0202201N004010120019N0080001N1+00191+00071101541ADDGA1081+012001061GF108991081051012501999999MA1999999094891MD1710071+9999REMSYN076AAXX  15011 10837 42658 82204 10019 20007 39489 40154 57007 885// 333 88640;
0159108370999992008011501004+48217+009917FM-12+0550ETHL V0202201N004010120019N0080001N1+00191+00071101541ADDGA1081+012001061GF108991081051012501999999MA1999999094891MD1710071+9999REMSYN076AAXX  15011 10837 42658 82204 10019 20007 39489 40154 57007 885// 333 88640;
0159108370999992008011501004+48217+009917FM-12+0550ETHL V0202201N004010120019N0080001N1+00191+00071101541ADDGA1081+012001061GF108991081051012501999999MA1999999094891MD1710071+9999REMSYN076AAXX  15011 10837 42658 82204 10019 20007 39489 40154 57007 885// 333 88640;
0159108370999992008011501004+48217+009917FM-12+0550ETHL V0202201N004010120019N0080001N1+00191+00071101541ADDGA1081+012001061GF108991081051012501999999MA1999999094891MD1710071+9999REMSYN076AAXX  15011 10837 42658 82204 10019 20007 39489 40154 57007 885// 333 88640;
0159108370999992008011501004+48217+009917FM-12+0550ETHL V0202201N004010120019N0080001N1+00191+00071101541ADDGA1081+012001061GF108991081051012501999999MA1999999094891MD1710071+9999REMSYN076AAXX  15011 10837 42658 82204 10019 20007 39489 40154 57007 885// 333 88640;
0159108370999992008011501004+48217+009917FM-12+0550ETHL V0202201N004010120019N0080001N1+00191+00071101541ADDGA1081+012001061GF108991081051012501999999MA1999999094891MD1710071+9999REMSYN076AAXX  15011 10837 42658 82204 10019 20007 39489 40154 57007 885// 333 88640;
0159108370999992008011501004+48217+009917FM-12+0550ETHL V0202201N004010120019N0080001N1+00191+00071101541ADDGA1081+012001061GF108991081051012501999999MA1999999094891MD1710071+9999REMSYN076AAXX  15011 10837 42658 82204 10019 20007 39489 40154 57007 885// 333 88640;
0159108370999992008011501004+48217+009917FM-12+0550ETHL V0202201N004010120019N0080001N1+00191+00071101541ADDGA1081+012001061GF108991081051012501999999MA1999999094891MD1710071+9999REMSYN076AAXX  15011 10837 42658 82204 10019 20007 39489 40154 57007 885// 333 88640;
0159108370999992008011501004+48217+009917FM-12+0550ETHL V0202201N004010120019N0080001N1+00191+00071101541ADDGA1081+012001061GF108991081051012501999999MA1999999094891MD1710071+9999REMSYN076AAXX  15011 10837 42658 82204 10019 20007 39489 40154 57007 885// 333 88640;
0159108370999992008011501004+48217+009917FM-12+0550ETHL V0202201N004010120019N0080001N1+00191+00071101541ADDGA1081+012001061GF108991081051012501999999MA1999999094891MD1710071+9999REMSYN076AAXX  15011 10837 42658 82204 10019 20007 39489 40154 57007 885// 333 88640;
0159108370999992008011501004+48217+009917FM-12+0550ETHL V0202201N004010120019N0080001N1+00191+00071101541ADDGA1081+012001061GF108991081051012501999999MA1999999094891MD1710071+9999REMSYN076AAXX  15011 10837 42658 82204 10019 20007 39489 40154 57007 885// 333 88640;
0159108370999992008011501004+48217+009917FM-12+0550ETHL V0202201N004010120019N0080001N1+00191+00071101541ADDGA1081+012001061GF108991081051012501999999MA1999999094891MD1710071+9999REMSYN076AAXX  15011 10837 42658 82204 10019 20007 39489 40154 57007 885// 333 88640;
0159108370999992008011501004+48217+009917FM-12+0550ETHL V0202201N004010120019N0080001N1+00191+00071101541ADDGA1081+012001061GF108991081051012501999999MA1999999094891MD1710071+9999REMSYN076AAXX  15011 10837 42658 82204 10019 20007 39489 40154 57007 885// 333 88640;
0159108370999992008011501004+48217+009917FM-12+0550ETHL V0202201N004010120019N0080001N1+00191+00071101541ADDGA1081+012001061GF108991081051012501999999MA1999999094891MD1710071+9999REMSYN076AAXX  15011 10837 42658 82204 10019 20007 39489 40154 57007 885// 333 88640;
0159108370999992008011501004+48217+009917FM-12+0550ETHL V0202201N004010120019N0080001N1+00191+00071101541ADDGA1081+012001061GF108991081051012501999999MA1999999094891MD1710071+9999REMSYN076AAXX  15011 10837 42658 82204 10019 20007 39489 40154 57007 885// 333 88640;
0159108370999992008011501004+48217+009917FM-12+0550ETHL V0202201N004010120019N0080001N1+00191+00071101541ADDGA1081+012001061GF108991081051012501999999MA1999999094891MD1710071+9999REMSYN076AAXX  15011 10837 42658 82204 10019 20007 39489 40154 57007 885// 333 88640;
0159108370999992008011501004+48217+009917FM-12+0550ETHL V0202201N004010120019N0080001N1+00191+00071101541ADDGA1081+012001061GF108991081051012501999999MA1999999094891MD1710071+9999REMSYN076AAXX  15011 10837 42658 82204 10019 20007 39489 40154 57007 885// 333 88640;
0159108370999992008011501004+48217+009917FM-12+0550ETHL V0202201N004010120019N0080001N1+00191+00071101541ADDGA1081+012001061GF108991081051012501999999MA1999999094891MD1710071+9999REMSYN076AAXX  15011 10837 42658 82204 10019 20007 39489 40154 57007 885// 333 88640;
0159108370999992008011501004+48217+009917FM-12+0550ETHL V0202201N004010120019N0080001N1+00191+00071101541ADDGA1081+012001061GF108991081051012501999999MA1999999094891MD1710071+9999REMSYN076AAXX  15011 10837 42658 82204 10019 20007 39489 40154 57007 885// 333 88640;
0159108370999992008011501004+48217+009917FM-12+0550ETHL V0202201N004010120019N0080001N1+00191+00071101541ADDGA1081+012001061GF108991081051012501999999MA1999999094891MD1710071+9999REMSYN076AAXX  15011 10837 42658 82204 10019 20007 39489 40154 57007 885// 333 88640;
0159108370999992008011501004+48217+009917FM-12+0550ETHL V0202201N004010120019N0080001N1+00191+00071101541ADDGA1081+012001061GF108991081051012501999999MA1999999094891MD1710071+9999REMSYN076AAXX  15011 10837 42658 82204 10019 20007 39489 40154 57007 885// 333 88640;
0159108370999992008011501004+48217+009917FM-12+0550ETHL V0202201N004010120019N0080001N1+00191+00071101541ADDGA1081+012001061GF108991081051012501999999MA1999999094891MD1710071+9999REMSYN076AAXX  15011 10837 42658 82204 10019 20007 39489 40154 57007 885// 333 88640;
0159108370999992008011501004+48217+009917FM-12+0550ETHL V0202201N004010120019N0080001N1+00191+00071101541ADDGA1081+012001061GF108991081051012501999999MA1999999094891MD1710071+9999REMSYN076AAXX  15011 10837 42658 82204 10019 20007 39489 40154 57007 885// 333 88640;
0159108370999992008011501004+48217+009917FM-12+0550ETHL V0202201N004010120019N0080001N1+00191+00071101541ADDGA1081+012001061GF108991081051012501999999MA1999999094891MD1710071+9999REMSYN076AAXX  15011 10837 42658 82204 10019 20007 39489 40154 57007 885// 333 88640;
0159108370999992008011501004+48217+009917FM-12+0550ETHL V0202201N004010120019N0080001N1+00191+00071101541ADDGA1081+012001061GF108991081051012501999999MA1999999094891MD1710071+9999REMSYN076AAXX  15011 10837 42658 82204 10019 20007 39489 40154 57007 885// 333 88640;
0159108370999992008011501004+48217+009917FM-12+0550ETHL V0202201N004010120019N0080001N1+00191+00071101541ADDGA1081+012001061GF108991081051012501999999MA1999999094891MD1710071+9999REMSYN076AAXX  15011 10837 42658 82204 10019 20007 39489 40154 57007 885// 333 88640;
0159108370999992008011501004+48217+009917FM-12+0550ETHL V0202201N004010120019N0080001N1+00191+00071101541ADDGA1081+012001061GF108991081051012501999999MA1999999094891MD1710071+9999REMSYN076AAXX  15011 10837 42658 82204 10019 20007 39489 40154 57007 885// 333 88640;
0159108370999992008011501004+48217+009917FM-12+0550ETHL V0202201N004010120019N0080001N1+00191+00071101541ADDGA1081+012001061GF108991081051012501999999MA1999999094891MD1710071+9999REMSYN076AAXX  15011 10837 42658 82204 10019 20007 39489 40154 57007 885// 333 88640;
0159108370999992008011501004+48217+009917FM-12+0550ETHL V0202201N004010120019N0080001N1+00191+00071101541ADDGA1081+012001061GF108991081051012501999999MA1999999094891MD1710071+9999REMSYN076AAXX  15011 10837 42658 82204 10019 20007 39489 40154 57007 885// 333 88640;
0159108370999992008011501004+48217+009917FM-12+0550ETHL V0202201N004010120019N0080001N1+00191+00071101541ADDGA1081+012001061GF108991081051012501999999MA1999999094891MD1710071+9999REMSYN076AAXX  15011 10837 42658 82204 10019 20007 39489 40154 57007 885// 333 88640;
0159108370999992008011501004+48217+009917FM-12+0550ETHL V0202201N004010120019N0080001N1+00191+00071101541ADDGA1081+012001061GF108991081051012501999999MA1999999094891MD1710071+9999REMSYN076AAXX  15011 10837 42658 82204 10019 20007 39489 40154 57007 885// 333 88640;
0159108370999992008011501004+48217+009917FM-12+0550ETHL V0202201N004010120019N0080001N1+00191+00071101541ADDGA1081+012001061GF108991081051012501999999MA1999999094891MD1710071+9999REMSYN076AAXX  15011 10837 42658 82204 10019 20007 39489 40154 57007 885// 333 88640;
0159108370999992008011501004+48217+009917FM-12+0550ETHL V0202201N004010120019N0080001N1+00191+00071101541ADDGA1081+012001061GF108991081051012501999999MA1999999094891MD1710071+9999REMSYN076AAXX  15011 10837 42658 82204 10019 20007 39489 40154 57007 885// 333 88640;
0159108370999992008011501004+48217+009917FM-12+0550ETHL V0202201N004010120019N0080001N1+00191+00071101541ADDGA1081+012001061GF108991081051012501999999MA1999999094891MD1710071+9999REMSYN076AAXX  15011 10837 42658 82204 10019 20007 39489 40154 57007 885// 333 88640;
0159108370999992008011501004+48217+009917FM-12+0550ETHL V0202201N004010120019N0080001N1+00191+00071101541ADDGA1081+012001061GF108991081051012501999999MA1999999094891MD1710071+9999REMSYN076AAXX  15011 10837 42658 82204 10019 20007 39489 40154 57007 885// 333 88640;
0159108370999992008011501004+48217+009917FM-12+0550ETHL V0202201N004010120019N0080001N1+00191+00071101541ADDGA1081+012001061GF108991081051012501999999MA1999999094891MD1710071+9999REMSYN076AAXX  15011 10837 42658 82204 10019 20007 39489 40154 57007 885// 333 88640;
0159108370999992008011501004+48217+009917FM-12+0550ETHL V0202201N004010120019N0080001N1+00191+00071101541ADDGA1081+012001061GF108991081051012501999999MA1999999094891MD1710071+9999REMSYN076AAXX  15011 10837 42658 82204 10019 20007 39489 40154 57007 885// 333 88640;
0159108370999992008011501004+48217+009917FM-12+0550ETHL V0202201N004010120019N0080001N1+00191+00071101541ADDGA1081+012001061GF108991081051012501999999MA1999999094891MD1710071+9999REMSYN076AAXX  15011 10837 42658 82204 10019 20007 39489 40154 57007 885// 333 88640;
0159108370999992008011501004+48217+009917FM-12+0550ETHL V0202201N004010120019N0080001N1+00191+00071101541ADDGA1081+012001061GF108991081051012501999999MA1999999094891MD1710071+9999REMSYN076AAXX  15011 10837 42658 82204 10019 20007 39489 40154 57007 885// 333 88640;
0159108370999992008011501004+48217+009917FM-12+0550ETHL V0202201N004010120019N0080001N1+00191+00071101541ADDGA1081+012001061GF108991081051012501999999MA1999999094891MD1710071+9999REMSYN076AAXX  15011 10837 42658 82204 10019 20007 39489 40154 57007 885// 333 88640;
0159108370999992008011501004+48217+009917FM-12+0550ETHL V0202201N004010120019N0080001N1+00191+00071101541ADDGA1081+012001061GF108991081051012501999999MA1999999094891MD1710071+9999REMSYN076AAXX  15011 10837 42658 82204 10019 20007 39489 40154 57007 885// 333 88640;
0159108370999992008011501004+48217+009917FM-12+0550ETHL V0202201N004010120019N0080001N1+00191+00071101541ADDGA1081+012001061GF108991081051012501999999MA1999999094891MD1710071+9999REMSYN076AAXX  15011 10837 42658 82204 10019 20007 39489 40154 57007 885// 333 88640;
0159108370999992008011501004+48217+009917FM-12+0550ETHL V0202201N004010120019N0080001N1+00191+00071101541ADDGA1081+012001061GF108991081051012501999999MA1999999094891MD1710071+9999REMSYN076AAXX  15011 10837 42658 82204 10019 20007 39489 40154 57007 885// 333 88640;
0159108370999992008011501004+48217+009917FM-12+0550ETHL V0202201N004010120019N0080001N1+00191+00071101541ADDGA1081+012001061GF108991081051012501999999MA1999999094891MD1710071+9999REMSYN076AAXX  15011 10837 42658 82204 10019 20007 39489 40154 57007 885// 333 88640;
0159108370999992008011501004+48217+009917FM-12+0550ETHL V0202201N004010120019N0080001N1+00191+00071101541ADDGA1081+012001061GF108991081051012501999999MA1999999094891MD1710071+9999REMSYN076AAXX  15011 10837 42658 82204 10019 20007 39489 40154 57007 885// 333 88640;
0159108370999992008011501004+48217+009917FM-12+0550ETHL V0202201N004010120019N0080001N1+00191+00071101541ADDGA1081+012001061GF108991081051012501999999MA1999999094891MD1710071+9999REMSYN076AAXX  15011 10837 42658 82204 10019 20007 39489 40154 57007 885// 333 88640;
0159108370999992008011501004+48217+009917FM-12+0550ETHL V0202201N004010120019N0080001N1+00191+00071101541ADDGA1081+012001061GF108991081051012501999999MA1999999094891MD1710071+9999REMSYN076AAXX  15011 10837 42658 82204 10019 20007 39489 40154 57007 885// 333 88640;
0159108370999992008011501004+48217+009917FM-12+0550ETHL V0202201N004010120019N0080001N1+00191+00071101541ADDGA1081+012001061GF108991081051012501999999MA1999999094891MD1710071+9999REMSYN076AAXX  15011 10837 42658 82204 10019 20007 39489 40154 57007 885// 333 88640;
0159108370999992008011501004+48217+009917FM-12+0550ETHL V0202201N004010120019N0080001N1+00191+00071101541ADDGA1081+012001061GF108991081051012501999999MA1999999094891MD1710071+9999REMSYN076AAXX  15011 10837 42658 82204 10019 20007 39489 40154 57007 885// 333 88640;
0159108370999992008011501004+48217+009917FM-12+0550ETHL V0202201N004010120019N0080001N1+00191+00071101541ADDGA1081+012001061GF108991081051012501999999MA1999999094891MD1710071+9999REMSYN076AAXX  15011 10837 42658 82204 10019 20007 39489 40154 57007 885// 333 88640;
0159108370999992008011501004+48217+009917FM-12+0550ETHL V0202201N004010120019N0080001N1+00191+00071101541ADDGA1081+012001061GF108991081051012501999999MA1999999094891MD1710071+9999REMSYN076AAXX  15011 10837 42658 82204 10019 20007 39489 40154 57007 885// 333 88640;
0159108370999992008011501004+48217+009917FM-12+0550ETHL V0202201N004010120019N0080001N1+00191+00071101541ADDGA1081+012001061GF108991081051012501999999MA1999999094891MD1710071+9999REMSYN076AAXX  15011 10837 42658 82204 10019 20007 39489 40154 57007 885// 333 88640;
0159108370999992008011501004+48217+009917FM-12+0550ETHL V0202201N004010120019N0080001N1+00191+00071101541ADDGA1081+012001061GF108991081051012501999999MA1999999094891MD1710071+9999REMSYN076AAXX  15011 10837 42658 82204 10019 20007 39489 40154 57007 885// 333 88640;
0159108370999992008011501004+48217+009917FM-12+0550ETHL V0202201N004010120019N0080001N1+00191+00071101541ADDGA1081+012001061GF108991081051012501999999MA1999999094891MD1710071+9999REMSYN076AAXX  15011 10837 42658 82204 10019 20007 39489 40154 57007 885// 333 88640;
0159108370999992008011501004+48217+009917FM-12+0550ETHL V0202201N004010120019N0080001N1+00191+00071101541ADDGA1081+012001061GF108991081051012501999999MA1999999094891MD1710071+9999REMSYN076AAXX  15011 10837 42658 82204 10019 20007 39489 40154 57007 885// 333 88640;
0159108370999992008011501004+48217+009917FM-12+0550ETHL V0202201N004010120019N0080001N1+00191+00071101541ADDGA1081+012001061GF108991081051012501999999MA1999999094891MD1710071+9999REMSYN076AAXX  15011 10837 42658 82204 10019 20007 39489 40154 57007 885// 333 88640;
0159108370999992008011501004+48217+009917FM-12+0550ETHL V0202201N004010120019N0080001N1+00191+00071101541ADDGA1081+012001061GF108991081051012501999999MA1999999094891MD1710071+9999REMSYN076AAXX  15011 10837 42658 82204 10019 20007 39489 40154 57007 885// 333 88640;
0159108370999992008011501004+48217+009917FM-12+0550ETHL V0202201N004010120019N0080001N1+00191+00071101541ADDGA1081+012001061GF108991081051012501999999MA1999999094891MD1710071+9999REMSYN076AAXX  15011 10837 42658 82204 10019 20007 39489 40154 57007 885// 333 88640;
0159108370999992008011501004+48217+009917FM-12+0550ETHL V0202201N004010120019N0080001N1+00191+00071101541ADDGA1081+012001061GF108991081051012501999999MA1999999094891MD1710071+9999REMSYN076AAXX  15011 10837 42658 82204 10019 20007 39489 40154 57007 885// 333 88640;
0159108370999992008011501004+48217+009917FM-12+0550ETHL V0202201N004010120019N0080001N1+00191+00071101541ADDGA1081+012001061GF108991081051012501999999MA1999999094891MD1710071+9999REMSYN076AAXX  15011 10837 42658 82204 10019 20007 39489 40154 57007 885// 333 88640;
0159108370999992008011501004+48217+009917FM-12+0550ETHL V0202201N004010120019N0080001N1+00191+00071101541ADDGA1081+012001061GF108991081051012501999999MA1999999094891MD1710071+9999REMSYN076AAXX  15011 10837 42658 82204 10019 20007 39489 40154 57007 885// 333 88640;
0159108370999992008011501004+48217+009917FM-12+0550ETHL V0202201N004010120019N0080001N1+00191+00071101541ADDGA1081+012001061GF108991081051012501999999MA1999999094891MD1710071+9999REMSYN076AAXX  15011 10837 42658 82204 10019 20007 39489 40154 57007 885// 333 88640;
0159108370999992008011501004+48217+009917FM-12+0550ETHL V0202201N004010120019N0080001N1+00191+00071101541ADDGA1081+012001061GF108991081051012501999999MA1999999094891MD1710071+9999REMSYN076AAXX  15011 10837 42658 82204 10019 20007 39489 40154 57007 885// 333 88640;
0159108370999992008011501004+48217+009917FM-12+0550ETHL V0202201N004010120019N0080001N1+00191+00071101541ADDGA1081+012001061GF108991081051012501999999MA1999999094891MD1710071+9999REMSYN076AAXX  15011 10837 42658 82204 10019 20007 39489 40154 57007 885// 333 88640;
0159108370999992008011501004+48217+009917FM-12+0550ETHL V0202201N004010120019N0080001N1+00191+00071101541ADDGA1081+012001061GF108991081051012501999999MA1999999094891MD1710071+9999REMSYN076AAXX  15011 10837 42658 82204 10019 20007 39489 40154 57007 885// 333 88640;
0159108370999992008011501004+48217+009917FM-12+0550ETHL V0202201N004010120019N0080001N1+00191+00071101541ADDGA1081+012001061GF108991081051012501999999MA1999999094891MD1710071+9999REMSYN076AAXX  15011 10837 42658 82204 10019 20007 39489 40154 57007 885// 333 88640;
0159108370999992008011501004+48217+009917FM-12+0550ETHL V0202201N004010120019N0080001N1+00191+00071101541ADDGA1081+012001061GF108991081051012501999999MA1999999094891MD1710071+9999REMSYN076AAXX  15011 10837 42658 82204 10019 20007 39489 40154 57007 885// 333 88640;
0159108370999992008011501004+48217+009917FM-12+0550ETHL V0202201N004010120019N0080001N1+00191+00071101541ADDGA1081+012001061GF108991081051012501999999MA1999999094891MD1710071+9999REMSYN076AAXX  15011 10837 42658 82204 10019 20007 39489 40154 57007 885// 333 88640;
0159108370999992008011501004+48217+009917FM-12+0550ETHL V0202201N004010120019N0080001N1+00191+00071101541ADDGA1081+012001061GF108991081051012501999999MA1999999094891MD1710071+9999REMSYN076AAXX  15011 10837 42658 82204 10019 20007 39489 40154 57007 885// 333 88640;
0159108370999992008011501004+48217+009917FM-12+0550ETHL V0202201N004010120019N0080001N1+00191+00071101541ADDGA1081+012001061GF108991081051012501999999MA1999999094891MD1710071+9999REMSYN076AAXX  15011 10837 42658 82204 10019 20007 39489 40154 57007 885// 333 88640;
0159108370999992008011501004+48217+009917FM-12+0550ETHL V0202201N004010120019N0080001N1+00191+00071101541ADDGA1081+012001061GF108991081051012501999999MA1999999094891MD1710071+9999REMSYN076AAXX  15011 10837 42658 82204 10019 20007 39489 40154 57007 885// 333 88640;
0159108370999992008011501004+48217+009917FM-12+0550ETHL V0202201N004010120019N0080001N1+00191+00071101541ADDGA1081+012001061GF108991081051012501999999MA1999999094891MD1710071+9999REMSYN076AAXX  15011 10837 42658 82204 10019 20007 39489 40154 57007 885// 333 88640;
0159108370999992008011501004+48217+009917FM-12+0550ETHL V0202201N004010120019N0080001N1+00191+00071101541ADDGA1081+012001061GF108991081051012501999999MA1999999094891MD1710071+9999REMSYN076AAXX  15011 10837 42658 82204 10019 20007 39489 40154 57007 885// 333 88640;
0159108370999992008011501004+48217+009917FM-12+0550ETHL V0202201N004010120019N0080001N1+00191+00071101541ADDGA1081+012001061GF108991081051012501999999MA1999999094891MD1710071+9999REMSYN076AAXX  15011 10837 42658 82204 10019 20007 39489 40154 57007 885// 333 88640;
0159108370999992008011501004+48217+009917FM-12+0550ETHL V0202201N004010120019N0080001N1+00191+00071101541ADDGA1081+012001061GF108991081051012501999999MA1999999094891MD1710071+9999REMSYN076AAXX  15011 10837 42658 82204 10019 20007 39489 40154 57007 885// 333 88640;
0159108370999992008011501004+48217+009917FM-12+0550ETHL V0202201N004010120019N0080001N1+00191+00071101541ADDGA1081+012001061GF108991081051012501999999MA1999999094891MD1710071+9999REMSYN076AAXX  15011 10837 42658 82204 10019 20007 39489 40154 57007 885// 333 88640;
0159108370999992008011501004+48217+009917FM-12+0550ETHL V0202201N004010120019N0080001N1+00191+00071101541ADDGA1081+012001061GF108991081051012501999999MA1999999094891MD1710071+9999REMSYN076AAXX  15011 10837 42658 82204 10019 20007 39489 40154 57007 885// 333 88640;
0159108370999992008011501004+48217+009917FM-12+0550ETHL V0202201N004010120019N0080001N1+00191+00071101541ADDGA1081+012001061GF108991081051012501999999MA1999999094891MD1710071+9999REMSYN076AAXX  15011 10837 42658 82204 10019 20007 39489 40154 57007 885// 333 88640;
0159108370999992008011501004+48217+009917FM-12+0550ETHL V0202201N004010120019N0080001N1+00191+00071101541ADDGA1081+012001061GF108991081051012501999999MA1999999094891MD1710071+9999REMSYN076AAXX  15011 10837 42658 82204 10019 20007 39489 40154 57007 885// 333 88640;
0159108370999992008011501004+48217+009917FM-12+0550ETHL V0202201N004010120019N0080001N1+00191+00071101541ADDGA1081+012001061GF108991081051012501999999MA1999999094891MD1710071+9999REMSYN076AAXX  15011 10837 42658 82204 10019 20007 39489 40154 57007 885// 333 88640;
0159108370999992008011501004+48217+009917FM-12+0550ETHL V0202201N004010120019N0080001N1+00191+00071101541ADDGA1081+012001061GF108991081051012501999999MA1999999094891MD1710071+9999REMSYN076AAXX  15011 10837 42658 82204 10019 20007 39489 40154 57007 885// 333 88640;
0159108370999992008011501004+48217+009917FM-12+0550ETHL V0202201N004010120019N0080001N1+00191+00071101541ADDGA1081+012001061GF108991081051012501999999MA1999999094891MD1710071+9999REMSYN076AAXX  15011 10837 42658 82204 10019 20007 39489 40154 57007 885// 333 88640;
0159108370999992008011501004+48217+009917FM-12+0550ETHL V0202201N004010120019N0080001N1+00191+00071101541ADDGA1081+012001061GF108991081051012501999999MA1999999094891MD1710071+9999REMSYN076AAXX  15011 10837 42658 82204 10019 20007 39489 40154 57007 885// 333 88640;
0159108370999992008011501004+48217+009917FM-12+0550ETHL V0202201N004010120019N0080001N1+00191+00071101541ADDGA1081+012001061GF108991081051012501999999MA1999999094891MD1710071+9999REMSYN076AAXX  15011 10837 42658 82204 10019 20007 39489 40154 57007 885// 333 88640;
0159108370999992008011501004+48217+009917FM-12+0550ETHL V0202201N004010120019N0080001N1+00191+00071101541ADDGA1081+012001061GF108991081051012501999999MA1999999094891MD1710071+9999REMSYN076AAXX  15011 10837 42658 82204 10019 20007 39489 40154 57007 885// 333 88640;
0159108370999992008011501004+48217+009917FM-12+0550ETHL V0202201N004010120019N0080001N1+00191+00071101541ADDGA1081+012001061GF108991081051012501999999MA1999999094891MD1710071+9999REMSYN076AAXX  15011 10837 42658 82204 10019 20007 39489 40154 57007 885// 333 88640;
0159108370999992008011501004+48217+009917FM-12+0550ETHL V0202201N004010120019N0080001N1+00191+00071101541ADDGA1081+012001061GF108991081051012501999999MA1999999094891MD1710071+9999REMSYN076AAXX  15011 10837 42658 82204 10019 20007 39489 40154 57007 885// 333 88640;
0159108370999992008011501004+48217+009917FM-12+0550ETHL V0202201N004010120019N0080001N1+00191+00071101541ADDGA1081+012001061GF108991081051012501999999MA1999999094891MD1710071+9999REMSYN076AAXX  15011 10837 42658 82204 10019 20007 39489 40154 57007 885// 333 88640;
0159108370999992008011501004+48217+009917FM-12+0550ETHL V0202201N004010120019N0080001N1+00191+00071101541ADDGA1081+012001061GF108991081051012501999999MA1999999094891MD1710071+9999REMSYN076AAXX  15011 10837 42658 82204 10019 20007 39489 40154 57007 885// 333 88640;
0159108370999992008011501004+48217+009917FM-12+0550ETHL V0202201N004010120019N0080001N1+00191+00071101541ADDGA1081+012001061GF108991081051012501999999MA1999999094891MD1710071+9999REMSYN076AAXX  15011 10837 42658 82204 10019 20007 39489 40154 57007 885// 333 88640;
0159108370999992008011501004+48217+009917FM-12+0550ETHL V0202201N004010120019N0080001N1+00191+00071101541ADDGA1081+012001061GF108991081051012501999999MA1999999094891MD1710071+9999REMSYN076AAXX  15011 10837 42658 82204 10019 20007 39489 40154 57007 885// 333 88640;
0159108370999992008011501004+48217+009917FM-12+0550ETHL V0202201N004010120019N0080001N1+00191+00071101541ADDGA1081+012001061GF108991081051012501999999MA1999999094891MD1710071+9999REMSYN076AAXX  15011 10837 42658 82204 10019 20007 39489 40154 57007 885// 333 88640;
0159108370999992008011501004+48217+009917FM-12+0550ETHL V0202201N004010120019N0080001N1+00191+00071101541ADDGA1081+012001061GF108991081051012501999999MA1999999094891MD1710071+9999REMSYN076AAXX  15011 10837 42658 82204 10019 20007 39489 40154 57007 885// 333 88640;
0159108370999992008011501004+48217+009917FM-12+0550ETHL V0202201N004010120019N0080001N1+00191+00071101541ADDGA1081+012001061GF108991081051012501999999MA1999999094891MD1710071+9999REMSYN076AAXX  15011 10837 42658 82204 10019 20007 39489 40154 57007 885// 333 88640;
0159108370999992008011501004+48217+009917FM-12+0550ETHL V0202201N004010120019N0080001N1+00191+00071101541ADDGA1081+012001061GF108991081051012501999999MA1999999094891MD1710071+9999REMSYN076AAXX  15011 10837 42658 82204 10019 20007 39489 40154 57007 885// 333 88640;
0159108370999992008011501004+48217+009917FM-12+0550ETHL V0202201N004010120019N0080001N1+00191+00071101541ADDGA1081+012001061GF108991081051012501999999MA1999999094891MD1710071+9999REMSYN076AAXX  15011 10837 42658 82204 10019 20007 39489 40154 57007 885// 333 88640;
0159108370999992008011501004+48217+009917FM-12+0550ETHL V0202201N004010120019N0080001N1+00191+00071101541ADDGA1081+012001061GF108991081051012501999999MA1999999094891MD1710071+9999REMSYN076AAXX  15011 10837 42658 82204 10019 20007 39489 40154 57007 885// 333 88640;
0159108370999992008011501004+48217+009917FM-12+0550ETHL V0202201N004010120019N0080001N1+00191+00071101541ADDGA1081+012001061GF108991081051012501999999MA1999999094891MD1710071+9999REMSYN076AAXX  15011 10837 42658 82204 10019 20007 39489 40154 57007 885// 333 88640;
0159108370999992008011501004+48217+009917FM-12+0550ETHL V0202201N004010120019N0080001N1+00191+00071101541ADDGA1081+012001061GF108991081051012501999999MA1999999094891MD1710071+9999REMSYN076AAXX  15011 10837 42658 82204 10019 20007 39489 40154 57007 885// 333 88640;
0159108370999992008011501004+48217+009917FM-12+0550ETHL V0202201N004010120019N0080001N1+00191+00071101541ADDGA1081+012001061GF108991081051012501999999MA1999999094891MD1710071+9999REMSYN076AAXX  15011 10837 42658 82204 10019 20007 39489 40154 57007 885// 333 88640;
0159108370999992008011501004+48217+009917FM-12+0550ETHL V0202201N004010120019N0080001N1+00191+00071101541ADDGA1081+012001061GF108991081051012501999999MA1999999094891MD1710071+9999REMSYN076AAXX  15011 10837 42658 82204 10019 20007 39489 40154 57007 885// 333 88640;
0159108370999992008011501004+48217+009917FM-12+0550ETHL V0202201N004010120019N0080001N1+00191+00071101541ADDGA1081+012001061GF108991081051012501999999MA1999999094891MD1710071+9999REMSYN076AAXX  15011 10837 42658 82204 10019 20007 39489 40154 57007 885// 333 88640;
0159108370999992008011501004+48217+009917FM-12+0550ETHL V0202201N004010120019N0080001N1+00191+00071101541ADDGA1081+012001061GF108991081051012501999999MA1999999094891MD1710071+9999REMSYN076AAXX  15011 10837 42658 82204 10019 20007 39489 40154 57007 885// 333 88640;
0159108370999992008011501004+48217+009917FM-12+0550ETHL V0202201N004010120019N0080001N1+00191+00071101541ADDGA1081+012001061GF108991081051012501999999MA1999999094891MD1710071+9999REMSYN076AAXX  15011 10837 42658 82204 10019 20007 39489 40154 57007 885// 333 88640;
0159108370999992008011501004+48217+009917FM-12+0550ETHL V0202201N004010120019N0080001N1+00191+00071101541ADDGA1081+012001061GF108991081051012501999999MA1999999094891MD1710071+9999REMSYN076AAXX  15011 10837 42658 82204 10019 20007 39489 40154 57007 885// 333 88640;
