0138726404048652009032906147+45928-089718FM-15+0497KARV V0200205N003152200059N0160935N5-00605-01025999999ADDGF100991999999999999999999MA1100715094915REMMET08503/29/09 00:14:01 METAR KARV 290614Z 02006KT 10SM CLR M06/M10 A2974 RMK AO2 T10601102
0138726404048652009032906147+45928-089718FM-15+0497KARV V0200205N003152200059N0160935N5-00605-01025999999ADDGF100991999999999999999999MA1100715094915REMMET08503/29/09 00:14:01 METAR KARV 290614Z 02006KT 10SM CLR M06/M10 A2974 RMK AO2 T10601102
0138726404048652009032906147+45928-089718FM-15+0497KARV V0200205N003152200059N0160935N5-00605-01025999999ADDGF100991999999999999999999MA1100715094915REMMET08503/29/09 00:14:01 METAR KARV 290614Z 02006KT 10SM CLR M06/M10 A2974 RMK AO2 T10601102
0138726404048652009032906147+45928-089718FM-15+0497KARV V0200205N003152200059N0160935N5-00605-01025999999ADDGF100991999999999999999999MA1100715094915REMMET08503/29/09 00:14:01 METAR KARV 290614Z 02006KT 10SM CLR M06/M10 A2974 RMK AO2 T10601102
0138726404048652009032906147+45928-089718FM-15+0497KARV V0200205N003152200059N0160935N5-00605-01025999999ADDGF100991999999999999999999MA1100715094915REMMET08503/29/09 00:14:01 METAR KARV 290614Z 02006KT 10SM CLR M06/M10 A2974 RMK AO2 T10601102
0138726404048652009032906147+45928-089718FM-15+0497KARV V0200205N003152200059N0160935N5-00605-01025999999ADDGF100991999999999999999999MA1100715094915REMMET08503/29/09 00:14:01 METAR KARV 290614Z 02006KT 10SM CLR M06/M10 A2974 RMK AO2 T10601102
0138726404048652009032906147+45928-089718FM-15+0497KARV V0200205N003152200059N0160935N5-00605-01025999999ADDGF100991999999999999999999MA1100715094915REMMET08503/29/09 00:14:01 METAR KARV 290614Z 02006KT 10SM CLR M06/M10 A2974 RMK AO2 T10601102
0138726404048652009032906147+45928-089718FM-15+0497KARV V0200205N003152200059N0160935N5-00605-01025999999ADDGF100991999999999999999999MA1100715094915REMMET08503/29/09 00:14:01 METAR KARV 290614Z 02006KT 10SM CLR M06/M10 A2974 RMK AO2 T10601102
0138726404048652009032906147+45928-089718FM-15+0497KARV V0200205N003152200059N0160935N5-00605-01025999999ADDGF100991999999999999999999MA1100715094915REMMET08503/29/09 00:14:01 METAR KARV 290614Z 02006KT 10SM CLR M06/M10 A2974 RMK AO2 T10601102
0138726404048652009032906147+45928-089718FM-15+0497KARV V0200205N003152200059N0160935N5-00605-01025999999ADDGF100991999999999999999999MA1100715094915REMMET08503/29/09 00:14:01 METAR KARV 290614Z 02006KT 10SM CLR M06/M10 A2974 RMK AO2 T10601102
0138726404048652009032906147+45928-089718FM-15+0497KARV V0200205N003152200059N0160935N5-00605-01025999999ADDGF100991999999999999999999MA1100715094915REMMET08503/29/09 00:14:01 METAR KARV 290614Z 02006KT 10SM CLR M06/M10 A2974 RMK AO2 T10601102
0138726404048652009032906147+45928-089718FM-15+0497KARV V0200205N003152200059N0160935N5-00605-01025999999ADDGF100991999999999999999999MA1100715094915REMMET08503/29/09 00:14:01 METAR KARV 290614Z 02006KT 10SM CLR M06/M10 A2974 RMK AO2 T10601102
0138726404048652009032906147+45928-089718FM-15+0497KARV V0200205N003152200059N0160935N5-00605-01025999999ADDGF100991999999999999999999MA1100715094915REMMET08503/29/09 00:14:01 METAR KARV 290614Z 02006KT 10SM CLR M06/M10 A2974 RMK AO2 T10601102
0138726404048652009032906147+45928-089718FM-15+0497KARV V0200205N003152200059N0160935N5-00605-01025999999ADDGF100991999999999999999999MA1100715094915REMMET08503/29/09 00:14:01 METAR KARV 290614Z 02006KT 10SM CLR M06/M10 A2974 RMK AO2 T10601102
0138726404048652009032906147+45928-089718FM-15+0497KARV V0200205N003152200059N0160935N5-00605-01025999999ADDGF100991999999999999999999MA1100715094915REMMET08503/29/09 00:14:01 METAR KARV 290614Z 02006KT 10SM CLR M06/M10 A2974 RMK AO2 T10601102
0138726404048652009032906147+45928-089718FM-15+0497KARV V0200205N003152200059N0160935N5-00605-01025999999ADDGF100991999999999999999999MA1100715094915REMMET08503/29/09 00:14:01 METAR KARV 290614Z 02006KT 10SM CLR M06/M10 A2974 RMK AO2 T10601102
0138726404048652009032906147+45928-089718FM-15+0497KARV V0200205N003152200059N0160935N5-00605-01025999999ADDGF100991999999999999999999MA1100715094915REMMET08503/29/09 00:14:01 METAR KARV 290614Z 02006KT 10SM CLR M06/M10 A2974 RMK AO2 T10601102
0138726404048652009032906147+45928-089718FM-15+0497KARV V0200205N003152200059N0160935N5-00605-01025999999ADDGF100991999999999999999999MA1100715094915REMMET08503/29/09 00:14:01 METAR KARV 290614Z 02006KT 10SM CLR M06/M10 A2974 RMK AO2 T10601102
0138726404048652009032906147+45928-089718FM-15+0497KARV V0200205N003152200059N0160935N5-00605-01025999999ADDGF100991999999999999999999MA1100715094915REMMET08503/29/09 00:14:01 METAR KARV 290614Z 02006KT 10SM CLR M06/M10 A2974 RMK AO2 T10601102
0138726404048652009032906147+45928-089718FM-15+0497KARV V0200205N003152200059N0160935N5-00605-01025999999ADDGF100991999999999999999999MA1100715094915REMMET08503/29/09 00:14:01 METAR KARV 290614Z 02006KT 10SM CLR M06/M10 A2974 RMK AO2 T10601102
0138726404048652009032906147+45928-089718FM-15+0497KARV V0200205N003152200059N0160935N5-00605-01025999999ADDGF100991999999999999999999MA1100715094915REMMET08503/29/09 00:14:01 METAR KARV 290614Z 02006KT 10SM CLR M06/M10 A2974 RMK AO2 T10601102
0138726404048652009032906147+45928-089718FM-15+0497KARV V0200205N003152200059N0160935N5-00605-01025999999ADDGF100991999999999999999999MA1100715094915REMMET08503/29/09 00:14:01 METAR KARV 290614Z 02006KT 10SM CLR M06/M10 A2974 RMK AO2 T10601102
0138726404048652009032906147+45928-089718FM-15+0497KARV V0200205N003152200059N0160935N5-00605-01025999999ADDGF100991999999999999999999MA1100715094915REMMET08503/29/09 00:14:01 METAR KARV 290614Z 02006KT 10SM CLR M06/M10 A2974 RMK AO2 T10601102
0138726404048652009032906147+45928-089718FM-15+0497KARV V0200205N003152200059N0160935N5-00605-01025999999ADDGF100991999999999999999999MA1100715094915REMMET08503/29/09 00:14:01 METAR KARV 290614Z 02006KT 10SM CLR M06/M10 A2974 RMK AO2 T10601102
0138726404048652009032906147+45928-089718FM-15+0497KARV V0200205N003152200059N0160935N5-00605-01025999999ADDGF100991999999999999999999MA1100715094915REMMET08503/29/09 00:14:01 METAR KARV 290614Z 02006KT 10SM CLR M06/M10 A2974 RMK AO2 T10601102
0138726404048652009032906147+45928-089718FM-15+0497KARV V0200205N003152200059N0160935N5-00605-01025999999ADDGF100991999999999999999999MA1100715094915REMMET08503/29/09 00:14:01 METAR KARV 290614Z 02006KT 10SM CLR M06/M10 A2974 RMK AO2 T10601102
0138726404048652009032906147+45928-089718FM-15+0497KARV V0200205N003152200059N0160935N5-00605-01025999999ADDGF100991999999999999999999MA1100715094915REMMET08503/29/09 00:14:01 METAR KARV 290614Z 02006KT 10SM CLR M06/M10 A2974 RMK AO2 T10601102
0138726404048652009032906147+45928-089718FM-15+0497KARV V0200205N003152200059N0160935N5-00605-01025999999ADDGF100991999999999999999999MA1100715094915REMMET08503/29/09 00:14:01 METAR KARV 290614Z 02006KT 10SM CLR M06/M10 A2974 RMK AO2 T10601102
0138726404048652009032906147+45928-089718FM-15+0497KARV V0200205N003152200059N0160935N5-00605-01025999999ADDGF100991999999999999999999MA1100715094915REMMET08503/29/09 00:14:01 METAR KARV 290614Z 02006KT 10SM CLR M06/M10 A2974 RMK AO2 T10601102
0138726404048652009032906147+45928-089718FM-15+0497KARV V0200205N003152200059N0160935N5-00605-01025999999ADDGF100991999999999999999999MA1100715094915REMMET08503/29/09 00:14:01 METAR KARV 290614Z 02006KT 10SM CLR M06/M10 A2974 RMK AO2 T10601102
0138726404048652009032906147+45928-089718FM-15+0497KARV V0200205N003152200059N0160935N5-00605-01025999999ADDGF100991999999999999999999MA1100715094915REMMET08503/29/09 00:14:01 METAR KARV 290614Z 02006KT 10SM CLR M06/M10 A2974 RMK AO2 T10601102
0138726404048652009032906147+45928-089718FM-15+0497KARV V0200205N003152200059N0160935N5-00605-01025999999ADDGF100991999999999999999999MA1100715094915REMMET08503/29/09 00:14:01 METAR KARV 290614Z 02006KT 10SM CLR M06/M10 A2974 RMK AO2 T10601102
0138726404048652009032906147+45928-089718FM-15+0497KARV V0200205N003152200059N0160935N5-00605-01025999999ADDGF100991999999999999999999MA1100715094915REMMET08503/29/09 00:14:01 METAR KARV 290614Z 02006KT 10SM CLR M06/M10 A2974 RMK AO2 T10601102
0138726404048652009032906147+45928-089718FM-15+0497KARV V0200205N003152200059N0160935N5-00605-01025999999ADDGF100991999999999999999999MA1100715094915REMMET08503/29/09 00:14:01 METAR KARV 290614Z 02006KT 10SM CLR M06/M10 A2974 RMK AO2 T10601102
0138726404048652009032906147+45928-089718FM-15+0497KARV V0200205N003152200059N0160935N5-00605-01025999999ADDGF100991999999999999999999MA1100715094915REMMET08503/29/09 00:14:01 METAR KARV 290614Z 02006KT 10SM CLR M06/M10 A2974 RMK AO2 T10601102
0138726404048652009032906147+45928-089718FM-15+0497KARV V0200205N003152200059N0160935N5-00605-01025999999ADDGF100991999999999999999999MA1100715094915REMMET08503/29/09 00:14:01 METAR KARV 290614Z 02006KT 10SM CLR M06/M10 A2974 RMK AO2 T10601102
0138726404048652009032906147+45928-089718FM-15+0497KARV V0200205N003152200059N0160935N5-00605-01025999999ADDGF100991999999999999999999MA1100715094915REMMET08503/29/09 00:14:01 METAR KARV 290614Z 02006KT 10SM CLR M06/M10 A2974 RMK AO2 T10601102
0138726404048652009032906147+45928-089718FM-15+0497KARV V0200205N003152200059N0160935N5-00605-01025999999ADDGF100991999999999999999999MA1100715094915REMMET08503/29/09 00:14:01 METAR KARV 290614Z 02006KT 10SM CLR M06/M10 A2974 RMK AO2 T10601102
0138726404048652009032906147+45928-089718FM-15+0497KARV V0200205N003152200059N0160935N5-00605-01025999999ADDGF100991999999999999999999MA1100715094915REMMET08503/29/09 00:14:01 METAR KARV 290614Z 02006KT 10SM CLR M06/M10 A2974 RMK AO2 T10601102
0138726404048652009032906147+45928-089718FM-15+0497KARV V0200205N003152200059N0160935N5-00605-01025999999ADDGF100991999999999999999999MA1100715094915REMMET08503/29/09 00:14:01 METAR KARV 290614Z 02006KT 10SM CLR M06/M10 A2974 RMK AO2 T10601102
0138726404048652009032906147+45928-089718FM-15+0497KARV V0200205N003152200059N0160935N5-00605-01025999999ADDGF100991999999999999999999MA1100715094915REMMET08503/29/09 00:14:01 METAR KARV 290614Z 02006KT 10SM CLR M06/M10 A2974 RMK AO2 T10601102
0138726404048652009032906147+45928-089718FM-15+0497KARV V0200205N003152200059N0160935N5-00605-01025999999ADDGF100991999999999999999999MA1100715094915REMMET08503/29/09 00:14:01 METAR KARV 290614Z 02006KT 10SM CLR M06/M10 A2974 RMK AO2 T10601102
0138726404048652009032906147+45928-089718FM-15+0497KARV V0200205N003152200059N0160935N5-00605-01025999999ADDGF100991999999999999999999MA1100715094915REMMET08503/29/09 00:14:01 METAR KARV 290614Z 02006KT 10SM CLR M06/M10 A2974 RMK AO2 T10601102
0138726404048652009032906147+45928-089718FM-15+0497KARV V0200205N003152200059N0160935N5-00605-01025999999ADDGF100991999999999999999999MA1100715094915REMMET08503/29/09 00:14:01 METAR KARV 290614Z 02006KT 10SM CLR M06/M10 A2974 RMK AO2 T10601102
0138726404048652009032906147+45928-089718FM-15+0497KARV V0200205N003152200059N0160935N5-00605-01025999999ADDGF100991999999999999999999MA1100715094915REMMET08503/29/09 00:14:01 METAR KARV 290614Z 02006KT 10SM CLR M06/M10 A2974 RMK AO2 T10601102
0138726404048652009032906147+45928-089718FM-15+0497KARV V0200205N003152200059N0160935N5-00605-01025999999ADDGF100991999999999999999999MA1100715094915REMMET08503/29/09 00:14:01 METAR KARV 290614Z 02006KT 10SM CLR M06/M10 A2974 RMK AO2 T10601102
0138726404048652009032906147+45928-089718FM-15+0497KARV V0200205N003152200059N0160935N5-00605-01025999999ADDGF100991999999999999999999MA1100715094915REMMET08503/29/09 00:14:01 METAR KARV 290614Z 02006KT 10SM CLR M06/M10 A2974 RMK AO2 T10601102
0138726404048652009032906147+45928-089718FM-15+0497KARV V0200205N003152200059N0160935N5-00605-01025999999ADDGF100991999999999999999999MA1100715094915REMMET08503/29/09 00:14:01 METAR KARV 290614Z 02006KT 10SM CLR M06/M10 A2974 RMK AO2 T10601102
0138726404048652009032906147+45928-089718FM-15+0497KARV V0200205N003152200059N0160935N5-00605-01025999999ADDGF100991999999999999999999MA1100715094915REMMET08503/29/09 00:14:01 METAR KARV 290614Z 02006KT 10SM CLR M06/M10 A2974 RMK AO2 T10601102
0138726404048652009032906147+45928-089718FM-15+0497KARV V0200205N003152200059N0160935N5-00605-01025999999ADDGF100991999999999999999999MA1100715094915REMMET08503/29/09 00:14:01 METAR KARV 290614Z 02006KT 10SM CLR M06/M10 A2974 RMK AO2 T10601102
0138726404048652009032906147+45928-089718FM-15+0497KARV V0200205N003152200059N0160935N5-00605-01025999999ADDGF100991999999999999999999MA1100715094915REMMET08503/29/09 00:14:01 METAR KARV 290614Z 02006KT 10SM CLR M06/M10 A2974 RMK AO2 T10601102
0138726404048652009032906147+45928-089718FM-15+0497KARV V0200205N003152200059N0160935N5-00605-01025999999ADDGF100991999999999999999999MA1100715094915REMMET08503/29/09 00:14:01 METAR KARV 290614Z 02006KT 10SM CLR M06/M10 A2974 RMK AO2 T10601102
0138726404048652009032906147+45928-089718FM-15+0497KARV V0200205N003152200059N0160935N5-00605-01025999999ADDGF100991999999999999999999MA1100715094915REMMET08503/29/09 00:14:01 METAR KARV 290614Z 02006KT 10SM CLR M06/M10 A2974 RMK AO2 T10601102
0138726404048652009032906147+45928-089718FM-15+0497KARV V0200205N003152200059N0160935N5-00605-01025999999ADDGF100991999999999999999999MA1100715094915REMMET08503/29/09 00:14:01 METAR KARV 290614Z 02006KT 10SM CLR M06/M10 A2974 RMK AO2 T10601102
0138726404048652009032906147+45928-089718FM-15+0497KARV V0200205N003152200059N0160935N5-00605-01025999999ADDGF100991999999999999999999MA1100715094915REMMET08503/29/09 00:14:01 METAR KARV 290614Z 02006KT 10SM CLR M06/M10 A2974 RMK AO2 T10601102
0138726404048652009032906147+45928-089718FM-15+0497KARV V0200205N003152200059N0160935N5-00605-01025999999ADDGF100991999999999999999999MA1100715094915REMMET08503/29/09 00:14:01 METAR KARV 290614Z 02006KT 10SM CLR M06/M10 A2974 RMK AO2 T10601102
0138726404048652009032906147+45928-089718FM-15+0497KARV V0200205N003152200059N0160935N5-00605-01025999999ADDGF100991999999999999999999MA1100715094915REMMET08503/29/09 00:14:01 METAR KARV 290614Z 02006KT 10SM CLR M06/M10 A2974 RMK AO2 T10601102
0138726404048652009032906147+45928-089718FM-15+0497KARV V0200205N003152200059N0160935N5-00605-01025999999ADDGF100991999999999999999999MA1100715094915REMMET08503/29/09 00:14:01 METAR KARV 290614Z 02006KT 10SM CLR M06/M10 A2974 RMK AO2 T10601102
0138726404048652009032906147+45928-089718FM-15+0497KARV V0200205N003152200059N0160935N5-00605-01025999999ADDGF100991999999999999999999MA1100715094915REMMET08503/29/09 00:14:01 METAR KARV 290614Z 02006KT 10SM CLR M06/M10 A2974 RMK AO2 T10601102
0138726404048652009032906147+45928-089718FM-15+0497KARV V0200205N003152200059N0160935N5-00605-01025999999ADDGF100991999999999999999999MA1100715094915REMMET08503/29/09 00:14:01 METAR KARV 290614Z 02006KT 10SM CLR M06/M10 A2974 RMK AO2 T10601102
0138726404048652009032906147+45928-089718FM-15+0497KARV V0200205N003152200059N0160935N5-00605-01025999999ADDGF100991999999999999999999MA1100715094915REMMET08503/29/09 00:14:01 METAR KARV 290614Z 02006KT 10SM CLR M06/M10 A2974 RMK AO2 T10601102
0138726404048652009032906147+45928-089718FM-15+0497KARV V0200205N003152200059N0160935N5-00605-01025999999ADDGF100991999999999999999999MA1100715094915REMMET08503/29/09 00:14:01 METAR KARV 290614Z 02006KT 10SM CLR M06/M10 A2974 RMK AO2 T10601102
0138726404048652009032906147+45928-089718FM-15+0497KARV V0200205N003152200059N0160935N5-00605-01025999999ADDGF100991999999999999999999MA1100715094915REMMET08503/29/09 00:14:01 METAR KARV 290614Z 02006KT 10SM CLR M06/M10 A2974 RMK AO2 T10601102
0138726404048652009032906147+45928-089718FM-15+0497KARV V0200205N003152200059N0160935N5-00605-01025999999ADDGF100991999999999999999999MA1100715094915REMMET08503/29/09 00:14:01 METAR KARV 290614Z 02006KT 10SM CLR M06/M10 A2974 RMK AO2 T10601102
0138726404048652009032906147+45928-089718FM-15+0497KARV V0200205N003152200059N0160935N5-00605-01025999999ADDGF100991999999999999999999MA1100715094915REMMET08503/29/09 00:14:01 METAR KARV 290614Z 02006KT 10SM CLR M06/M10 A2974 RMK AO2 T10601102
0138726404048652009032906147+45928-089718FM-15+0497KARV V0200205N003152200059N0160935N5-00605-01025999999ADDGF100991999999999999999999MA1100715094915REMMET08503/29/09 00:14:01 METAR KARV 290614Z 02006KT 10SM CLR M06/M10 A2974 RMK AO2 T10601102
0138726404048652009032906147+45928-089718FM-15+0497KARV V0200205N003152200059N0160935N5-00605-01025999999ADDGF100991999999999999999999MA1100715094915REMMET08503/29/09 00:14:01 METAR KARV 290614Z 02006KT 10SM CLR M06/M10 A2974 RMK AO2 T10601102
0138726404048652009032906147+45928-089718FM-15+0497KARV V0200205N003152200059N0160935N5-00605-01025999999ADDGF100991999999999999999999MA1100715094915REMMET08503/29/09 00:14:01 METAR KARV 290614Z 02006KT 10SM CLR M06/M10 A2974 RMK AO2 T10601102
0138726404048652009032906147+45928-089718FM-15+0497KARV V0200205N003152200059N0160935N5-00605-01025999999ADDGF100991999999999999999999MA1100715094915REMMET08503/29/09 00:14:01 METAR KARV 290614Z 02006KT 10SM CLR M06/M10 A2974 RMK AO2 T10601102
0138726404048652009032906147+45928-089718FM-15+0497KARV V0200205N003152200059N0160935N5-00605-01025999999ADDGF100991999999999999999999MA1100715094915REMMET08503/29/09 00:14:01 METAR KARV 290614Z 02006KT 10SM CLR M06/M10 A2974 RMK AO2 T10601102
0138726404048652009032906147+45928-089718FM-15+0497KARV V0200205N003152200059N0160935N5-00605-01025999999ADDGF100991999999999999999999MA1100715094915REMMET08503/29/09 00:14:01 METAR KARV 290614Z 02006KT 10SM CLR M06/M10 A2974 RMK AO2 T10601102
0138726404048652009032906147+45928-089718FM-15+0497KARV V0200205N003152200059N0160935N5-00605-01025999999ADDGF100991999999999999999999MA1100715094915REMMET08503/29/09 00:14:01 METAR KARV 290614Z 02006KT 10SM CLR M06/M10 A2974 RMK AO2 T10601102
0138726404048652009032906147+45928-089718FM-15+0497KARV V0200205N003152200059N0160935N5-00605-01025999999ADDGF100991999999999999999999MA1100715094915REMMET08503/29/09 00:14:01 METAR KARV 290614Z 02006KT 10SM CLR M06/M10 A2974 RMK AO2 T10601102
0138726404048652009032906147+45928-089718FM-15+0497KARV V0200205N003152200059N0160935N5-00605-01025999999ADDGF100991999999999999999999MA1100715094915REMMET08503/29/09 00:14:01 METAR KARV 290614Z 02006KT 10SM CLR M06/M10 A2974 RMK AO2 T10601102
0138726404048652009032906147+45928-089718FM-15+0497KARV V0200205N003152200059N0160935N5-00605-01025999999ADDGF100991999999999999999999MA1100715094915REMMET08503/29/09 00:14:01 METAR KARV 290614Z 02006KT 10SM CLR M06/M10 A2974 RMK AO2 T10601102
0138726404048652009032906147+45928-089718FM-15+0497KARV V0200205N003152200059N0160935N5-00605-01025999999ADDGF100991999999999999999999MA1100715094915REMMET08503/29/09 00:14:01 METAR KARV 290614Z 02006KT 10SM CLR M06/M10 A2974 RMK AO2 T10601102
0138726404048652009032906147+45928-089718FM-15+0497KARV V0200205N003152200059N0160935N5-00605-01025999999ADDGF100991999999999999999999MA1100715094915REMMET08503/29/09 00:14:01 METAR KARV 290614Z 02006KT 10SM CLR M06/M10 A2974 RMK AO2 T10601102
0138726404048652009032906147+45928-089718FM-15+0497KARV V0200205N003152200059N0160935N5-00605-01025999999ADDGF100991999999999999999999MA1100715094915REMMET08503/29/09 00:14:01 METAR KARV 290614Z 02006KT 10SM CLR M06/M10 A2974 RMK AO2 T10601102
0138726404048652009032906147+45928-089718FM-15+0497KARV V0200205N003152200059N0160935N5-00605-01025999999ADDGF100991999999999999999999MA1100715094915REMMET08503/29/09 00:14:01 METAR KARV 290614Z 02006KT 10SM CLR M06/M10 A2974 RMK AO2 T10601102
0138726404048652009032906147+45928-089718FM-15+0497KARV V0200205N003152200059N0160935N5-00605-01025999999ADDGF100991999999999999999999MA1100715094915REMMET08503/29/09 00:14:01 METAR KARV 290614Z 02006KT 10SM CLR M06/M10 A2974 RMK AO2 T10601102
0138726404048652009032906147+45928-089718FM-15+0497KARV V0200205N003152200059N0160935N5-00605-01025999999ADDGF100991999999999999999999MA1100715094915REMMET08503/29/09 00:14:01 METAR KARV 290614Z 02006KT 10SM CLR M06/M10 A2974 RMK AO2 T10601102
0138726404048652009032906147+45928-089718FM-15+0497KARV V0200205N003152200059N0160935N5-00605-01025999999ADDGF100991999999999999999999MA1100715094915REMMET08503/29/09 00:14:01 METAR KARV 290614Z 02006KT 10SM CLR M06/M10 A2974 RMK AO2 T10601102
0138726404048652009032906147+45928-089718FM-15+0497KARV V0200205N003152200059N0160935N5-00605-01025999999ADDGF100991999999999999999999MA1100715094915REMMET08503/29/09 00:14:01 METAR KARV 290614Z 02006KT 10SM CLR M06/M10 A2974 RMK AO2 T10601102
0138726404048652009032906147+45928-089718FM-15+0497KARV V0200205N003152200059N0160935N5-00605-01025999999ADDGF100991999999999999999999MA1100715094915REMMET08503/29/09 00:14:01 METAR KARV 290614Z 02006KT 10SM CLR M06/M10 A2974 RMK AO2 T10601102
0138726404048652009032906147+45928-089718FM-15+0497KARV V0200205N003152200059N0160935N5-00605-01025999999ADDGF100991999999999999999999MA1100715094915REMMET08503/29/09 00:14:01 METAR KARV 290614Z 02006KT 10SM CLR M06/M10 A2974 RMK AO2 T10601102
0138726404048652009032906147+45928-089718FM-15+0497KARV V0200205N003152200059N0160935N5-00605-01025999999ADDGF100991999999999999999999MA1100715094915REMMET08503/29/09 00:14:01 METAR KARV 290614Z 02006KT 10SM CLR M06/M10 A2974 RMK AO2 T10601102
0138726404048652009032906147+45928-089718FM-15+0497KARV V0200205N003152200059N0160935N5-00605-01025999999ADDGF100991999999999999999999MA1100715094915REMMET08503/29/09 00:14:01 METAR KARV 290614Z 02006KT 10SM CLR M06/M10 A2974 RMK AO2 T10601102
0138726404048652009032906147+45928-089718FM-15+0497KARV V0200205N003152200059N0160935N5-00605-01025999999ADDGF100991999999999999999999MA1100715094915REMMET08503/29/09 00:14:01 METAR KARV 290614Z 02006KT 10SM CLR M06/M10 A2974 RMK AO2 T10601102
0138726404048652009032906147+45928-089718FM-15+0497KARV V0200205N003152200059N0160935N5-00605-01025999999ADDGF100991999999999999999999MA1100715094915REMMET08503/29/09 00:14:01 METAR KARV 290614Z 02006KT 10SM CLR M06/M10 A2974 RMK AO2 T10601102
0138726404048652009032906147+45928-089718FM-15+0497KARV V0200205N003152200059N0160935N5-00605-01025999999ADDGF100991999999999999999999MA1100715094915REMMET08503/29/09 00:14:01 METAR KARV 290614Z 02006KT 10SM CLR M06/M10 A2974 RMK AO2 T10601102
0138726404048652009032906147+45928-089718FM-15+0497KARV V0200205N003152200059N0160935N5-00605-01025999999ADDGF100991999999999999999999MA1100715094915REMMET08503/29/09 00:14:01 METAR KARV 290614Z 02006KT 10SM CLR M06/M10 A2974 RMK AO2 T10601102
0138726404048652009032906147+45928-089718FM-15+0497KARV V0200205N003152200059N0160935N5-00605-01025999999ADDGF100991999999999999999999MA1100715094915REMMET08503/29/09 00:14:01 METAR KARV 290614Z 02006KT 10SM CLR M06/M10 A2974 RMK AO2 T10601102
0138726404048652009032906147+45928-089718FM-15+0497KARV V0200205N003152200059N0160935N5-00605-01025999999ADDGF100991999999999999999999MA1100715094915REMMET08503/29/09 00:14:01 METAR KARV 290614Z 02006KT 10SM CLR M06/M10 A2974 RMK AO2 T10601102
0138726404048652009032906147+45928-089718FM-15+0497KARV V0200205N003152200059N0160935N5-00605-01025999999ADDGF100991999999999999999999MA1100715094915REMMET08503/29/09 00:14:01 METAR KARV 290614Z 02006KT 10SM CLR M06/M10 A2974 RMK AO2 T10601102
0138726404048652009032906147+45928-089718FM-15+0497KARV V0200205N003152200059N0160935N5-00605-01025999999ADDGF100991999999999999999999MA1100715094915REMMET08503/29/09 00:14:01 METAR KARV 290614Z 02006KT 10SM CLR M06/M10 A2974 RMK AO2 T10601102
0138726404048652009032906147+45928-089718FM-15+0497KARV V0200205N003152200059N0160935N5-00605-01025999999ADDGF100991999999999999999999MA1100715094915REMMET08503/29/09 00:14:01 METAR KARV 290614Z 02006KT 10SM CLR M06/M10 A2974 RMK AO2 T10601102
0138726404048652009032906147+45928-089718FM-15+0497KARV V0200205N003152200059N0160935N5-00605-01025999999ADDGF100991999999999999999999MA1100715094915REMMET08503/29/09 00:14:01 METAR KARV 290614Z 02006KT 10SM CLR M06/M10 A2974 RMK AO2 T10601102
0138726404048652009032906147+45928-089718FM-15+0497KARV V0200205N003152200059N0160935N5-00605-01025999999ADDGF100991999999999999999999MA1100715094915REMMET08503/29/09 00:14:01 METAR KARV 290614Z 02006KT 10SM CLR M06/M10 A2974 RMK AO2 T10601102
0138726404048652009032906147+45928-089718FM-15+0497KARV V0200205N003152200059N0160935N5-00605-01025999999ADDGF100991999999999999999999MA1100715094915REMMET08503/29/09 00:14:01 METAR KARV 290614Z 02006KT 10SM CLR M06/M10 A2974 RMK AO2 T10601102
0138726404048652009032906147+45928-089718FM-15+0497KARV V0200205N003152200059N0160935N5-00605-01025999999ADDGF100991999999999999999999MA1100715094915REMMET08503/29/09 00:14:01 METAR KARV 290614Z 02006KT 10SM CLR M06/M10 A2974 RMK AO2 T10601102
0138726404048652009032906147+45928-089718FM-15+0497KARV V0200205N003152200059N0160935N5-00605-01025999999ADDGF100991999999999999999999MA1100715094915REMMET08503/29/09 00:14:01 METAR KARV 290614Z 02006KT 10SM CLR M06/M10 A2974 RMK AO2 T10601102
0138726404048652009032906147+45928-089718FM-15+0497KARV V0200205N003152200059N0160935N5-00605-01025999999ADDGF100991999999999999999999MA1100715094915REMMET08503/29/09 00:14:01 METAR KARV 290614Z 02006KT 10SM CLR M06/M10 A2974 RMK AO2 T10601102
0138726404048652009032906147+45928-089718FM-15+0497KARV V0200205N003152200059N0160935N5-00605-01025999999ADDGF100991999999999999999999MA1100715094915REMMET08503/29/09 00:14:01 METAR KARV 290614Z 02006KT 10SM CLR M06/M10 A2974 RMK AO2 T10601102
0138726404048652009032906147+45928-089718FM-15+0497KARV V0200205N003152200059N0160935N5-00605-01025999999ADDGF100991999999999999999999MA1100715094915REMMET08503/29/09 00:14:01 METAR KARV 290614Z 02006KT 10SM CLR M06/M10 A2974 RMK AO2 T10601102
0138726404048652009032906147+45928-089718FM-15+0497KARV V0200205N003152200059N0160935N5-00605-01025999999ADDGF100991999999999999999999MA1100715094915REMMET08503/29/09 00:14:01 METAR KARV 290614Z 02006KT 10SM CLR M06/M10 A2974 RMK AO2 T10601102
0138726404048652009032906147+45928-089718FM-15+0497KARV V0200205N003152200059N0160935N5-00605-01025999999ADDGF100991999999999999999999MA1100715094915REMMET08503/29/09 00:14:01 METAR KARV 290614Z 02006KT 10SM CLR M06/M10 A2974 RMK AO2 T10601102
0138726404048652009032906147+45928-089718FM-15+0497KARV V0200205N003152200059N0160935N5-00605-01025999999ADDGF100991999999999999999999MA1100715094915REMMET08503/29/09 00:14:01 METAR KARV 290614Z 02006KT 10SM CLR M06/M10 A2974 RMK AO2 T10601102
0138726404048652009032906147+45928-089718FM-15+0497KARV V0200205N003152200059N0160935N5-00605-01025999999ADDGF100991999999999999999999MA1100715094915REMMET08503/29/09 00:14:01 METAR KARV 290614Z 02006KT 10SM CLR M06/M10 A2974 RMK AO2 T10601102
0138726404048652009032906147+45928-089718FM-15+0497KARV V0200205N003152200059N0160935N5-00605-01025999999ADDGF100991999999999999999999MA1100715094915REMMET08503/29/09 00:14:01 METAR KARV 290614Z 02006KT 10SM CLR M06/M10 A2974 RMK AO2 T10601102
0138726404048652009032906147+45928-089718FM-15+0497KARV V0200205N003152200059N0160935N5-00605-01025999999ADDGF100991999999999999999999MA1100715094915REMMET08503/29/09 00:14:01 METAR KARV 290614Z 02006KT 10SM CLR M06/M10 A2974 RMK AO2 T10601102
0138726404048652009032906147+45928-089718FM-15+0497KARV V0200205N003152200059N0160935N5-00605-01025999999ADDGF100991999999999999999999MA1100715094915REMMET08503/29/09 00:14:01 METAR KARV 290614Z 02006KT 10SM CLR M06/M10 A2974 RMK AO2 T10601102
0138726404048652009032906147+45928-089718FM-15+0497KARV V0200205N003152200059N0160935N5-00605-01025999999ADDGF100991999999999999999999MA1100715094915REMMET08503/29/09 00:14:01 METAR KARV 290614Z 02006KT 10SM CLR M06/M10 A2974 RMK AO2 T10601102
0138726404048652009032906147+45928-089718FM-15+0497KARV V0200205N003152200059N0160935N5-00605-01025999999ADDGF100991999999999999999999MA1100715094915REMMET08503/29/09 00:14:01 METAR KARV 290614Z 02006KT 10SM CLR M06/M10 A2974 RMK AO2 T10601102
0138726404048652009032906147+45928-089718FM-15+0497KARV V0200205N003152200059N0160935N5-00605-01025999999ADDGF100991999999999999999999MA1100715094915REMMET08503/29/09 00:14:01 METAR KARV 290614Z 02006KT 10SM CLR M06/M10 A2974 RMK AO2 T10601102
0138726404048652009032906147+45928-089718FM-15+0497KARV V0200205N003152200059N0160935N5-00605-01025999999ADDGF100991999999999999999999MA1100715094915REMMET08503/29/09 00:14:01 METAR KARV 290614Z 02006KT 10SM CLR M06/M10 A2974 RMK AO2 T10601102
0138726404048652009032906147+45928-089718FM-15+0497KARV V0200205N003152200059N0160935N5-00605-01025999999ADDGF100991999999999999999999MA1100715094915REMMET08503/29/09 00:14:01 METAR KARV 290614Z 02006KT 10SM CLR M06/M10 A2974 RMK AO2 T10601102
0138726404048652009032906147+45928-089718FM-15+0497KARV V0200205N003152200059N0160935N5-00605-01025999999ADDGF100991999999999999999999MA1100715094915REMMET08503/29/09 00:14:01 METAR KARV 290614Z 02006KT 10SM CLR M06/M10 A2974 RMK AO2 T10601102
0138726404048652009032906147+45928-089718FM-15+0497KARV V0200205N003152200059N0160935N5-00605-01025999999ADDGF100991999999999999999999MA1100715094915REMMET08503/29/09 00:14:01 METAR KARV 290614Z 02006KT 10SM CLR M06/M10 A2974 RMK AO2 T10601102
0138726404048652009032906147+45928-089718FM-15+0497KARV V0200205N003152200059N0160935N5-00605-01025999999ADDGF100991999999999999999999MA1100715094915REMMET08503/29/09 00:14:01 METAR KARV 290614Z 02006KT 10SM CLR M06/M10 A2974 RMK AO2 T10601102
0138726404048652009032906147+45928-089718FM-15+0497KARV V0200205N003152200059N0160935N5-00605-01025999999ADDGF100991999999999999999999MA1100715094915REMMET08503/29/09 00:14:01 METAR KARV 290614Z 02006KT 10SM CLR M06/M10 A2974 RMK AO2 T10601102
0138726404048652009032906147+45928-089718FM-15+0497KARV V0200205N003152200059N0160935N5-00605-01025999999ADDGF100991999999999999999999MA1100715094915REMMET08503/29/09 00:14:01 METAR KARV 290614Z 02006KT 10SM CLR M06/M10 A2974 RMK AO2 T10601102
0138726404048652009032906147+45928-089718FM-15+0497KARV V0200205N003152200059N0160935N5-00605-01025999999ADDGF100991999999999999999999MA1100715094915REMMET08503/29/09 00:14:01 METAR KARV 290614Z 02006KT 10SM CLR M06/M10 A2974 RMK AO2 T10601102
0138726404048652009032906147+45928-089718FM-15+0497KARV V0200205N003152200059N0160935N5-00605-01025999999ADDGF100991999999999999999999MA1100715094915REMMET08503/29/09 00:14:01 METAR KARV 290614Z 02006KT 10SM CLR M06/M10 A2974 RMK AO2 T10601102
0138726404048652009032906147+45928-089718FM-15+0497KARV V0200205N003152200059N0160935N5-00605-01025999999ADDGF100991999999999999999999MA1100715094915REMMET08503/29/09 00:14:01 METAR KARV 290614Z 02006KT 10SM CLR M06/M10 A2974 RMK AO2 T10601102
0138726404048652009032906147+45928-089718FM-15+0497KARV V0200205N003152200059N0160935N5-00605-01025999999ADDGF100991999999999999999999MA1100715094915REMMET08503/29/09 00:14:01 METAR KARV 290614Z 02006KT 10SM CLR M06/M10 A2974 RMK AO2 T10601102
0138726404048652009032906147+45928-089718FM-15+0497KARV V0200205N003152200059N0160935N5-00605-01025999999ADDGF100991999999999999999999MA1100715094915REMMET08503/29/09 00:14:01 METAR KARV 290614Z 02006KT 10SM CLR M06/M10 A2974 RMK AO2 T10601102
0138726404048652009032906147+45928-089718FM-15+0497KARV V0200205N003152200059N0160935N5-00605-01025999999ADDGF100991999999999999999999MA1100715094915REMMET08503/29/09 00:14:01 METAR KARV 290614Z 02006KT 10SM CLR M06/M10 A2974 RMK AO2 T10601102
0138726404048652009032906147+45928-089718FM-15+0497KARV V0200205N003152200059N0160935N5-00605-01025999999ADDGF100991999999999999999999MA1100715094915REMMET08503/29/09 00:14:01 METAR KARV 290614Z 02006KT 10SM CLR M06/M10 A2974 RMK AO2 T10601102
0138726404048652009032906147+45928-089718FM-15+0497KARV V0200205N003152200059N0160935N5-00605-01025999999ADDGF100991999999999999999999MA1100715094915REMMET08503/29/09 00:14:01 METAR KARV 290614Z 02006KT 10SM CLR M06/M10 A2974 RMK AO2 T10601102
0138726404048652009032906147+45928-089718FM-15+0497KARV V0200205N003152200059N0160935N5-00605-01025999999ADDGF100991999999999999999999MA1100715094915REMMET08503/29/09 00:14:01 METAR KARV 290614Z 02006KT 10SM CLR M06/M10 A2974 RMK AO2 T10601102
0138726404048652009032906147+45928-089718FM-15+0497KARV V0200205N003152200059N0160935N5-00605-01025999999ADDGF100991999999999999999999MA1100715094915REMMET08503/29/09 00:14:01 METAR KARV 290614Z 02006KT 10SM CLR M06/M10 A2974 RMK AO2 T10601102
0138726404048652009032906147+45928-089718FM-15+0497KARV V0200205N003152200059N0160935N5-00605-01025999999ADDGF100991999999999999999999MA1100715094915REMMET08503/29/09 00:14:01 METAR KARV 290614Z 02006KT 10SM CLR M06/M10 A2974 RMK AO2 T10601102
0138726404048652009032906147+45928-089718FM-15+0497KARV V0200205N003152200059N0160935N5-00605-01025999999ADDGF100991999999999999999999MA1100715094915REMMET08503/29/09 00:14:01 METAR KARV 290614Z 02006KT 10SM CLR M06/M10 A2974 RMK AO2 T10601102
0138726404048652009032906147+45928-089718FM-15+0497KARV V0200205N003152200059N0160935N5-00605-01025999999ADDGF100991999999999999999999MA1100715094915REMMET08503/29/09 00:14:01 METAR KARV 290614Z 02006KT 10SM CLR M06/M10 A2974 RMK AO2 T10601102
0138726404048652009032906147+45928-089718FM-15+0497KARV V0200205N003152200059N0160935N5-00605-01025999999ADDGF100991999999999999999999MA1100715094915REMMET08503/29/09 00:14:01 METAR KARV 290614Z 02006KT 10SM CLR M06/M10 A2974 RMK AO2 T10601102
0138726404048652009032906147+45928-089718FM-15+0497KARV V0200205N003152200059N0160935N5-00605-01025999999ADDGF100991999999999999999999MA1100715094915REMMET08503/29/09 00:14:01 METAR KARV 290614Z 02006KT 10SM CLR M06/M10 A2974 RMK AO2 T10601102
0138726404048652009032906147+45928-089718FM-15+0497KARV V0200205N003152200059N0160935N5-00605-01025999999ADDGF100991999999999999999999MA1100715094915REMMET08503/29/09 00:14:01 METAR KARV 290614Z 02006KT 10SM CLR M06/M10 A2974 RMK AO2 T10601102
0138726404048652009032906147+45928-089718FM-15+0497KARV V0200205N003152200059N0160935N5-00605-01025999999ADDGF100991999999999999999999MA1100715094915REMMET08503/29/09 00:14:01 METAR KARV 290614Z 02006KT 10SM CLR M06/M10 A2974 RMK AO2 T10601102
0138726404048652009032906147+45928-089718FM-15+0497KARV V0200205N003152200059N0160935N5-00605-01025999999ADDGF100991999999999999999999MA1100715094915REMMET08503/29/09 00:14:01 METAR KARV 290614Z 02006KT 10SM CLR M06/M10 A2974 RMK AO2 T10601102
0138726404048652009032906147+45928-089718FM-15+0497KARV V0200205N003152200059N0160935N5-00605-01025999999ADDGF100991999999999999999999MA1100715094915REMMET08503/29/09 00:14:01 METAR KARV 290614Z 02006KT 10SM CLR M06/M10 A2974 RMK AO2 T10601102
0138726404048652009032906147+45928-089718FM-15+0497KARV V0200205N003152200059N0160935N5-00605-01025999999ADDGF100991999999999999999999MA1100715094915REMMET08503/29/09 00:14:01 METAR KARV 290614Z 02006KT 10SM CLR M06/M10 A2974 RMK AO2 T10601102
0138726404048652009032906147+45928-089718FM-15+0497KARV V0200205N003152200059N0160935N5-00605-01025999999ADDGF100991999999999999999999MA1100715094915REMMET08503/29/09 00:14:01 METAR KARV 290614Z 02006KT 10SM CLR M06/M10 A2974 RMK AO2 T10601102
0138726404048652009032906147+45928-089718FM-15+0497KARV V0200205N003152200059N0160935N5-00605-01025999999ADDGF100991999999999999999999MA1100715094915REMMET08503/29/09 00:14:01 METAR KARV 290614Z 02006KT 10SM CLR M06/M10 A2974 RMK AO2 T10601102
0138726404048652009032906147+45928-089718FM-15+0497KARV V0200205N003152200059N0160935N5-00605-01025999999ADDGF100991999999999999999999MA1100715094915REMMET08503/29/09 00:14:01 METAR KARV 290614Z 02006KT 10SM CLR M06/M10 A2974 RMK AO2 T10601102
0138726404048652009032906147+45928-089718FM-15+0497KARV V0200205N003152200059N0160935N5-00605-01025999999ADDGF100991999999999999999999MA1100715094915REMMET08503/29/09 00:14:01 METAR KARV 290614Z 02006KT 10SM CLR M06/M10 A2974 RMK AO2 T10601102
0138726404048652009032906147+45928-089718FM-15+0497KARV V0200205N003152200059N0160935N5-00605-01025999999ADDGF100991999999999999999999MA1100715094915REMMET08503/29/09 00:14:01 METAR KARV 290614Z 02006KT 10SM CLR M06/M10 A2974 RMK AO2 T10601102
0138726404048652009032906147+45928-089718FM-15+0497KARV V0200205N003152200059N0160935N5-00605-01025999999ADDGF100991999999999999999999MA1100715094915REMMET08503/29/09 00:14:01 METAR KARV 290614Z 02006KT 10SM CLR M06/M10 A2974 RMK AO2 T10601102
0138726404048652009032906147+45928-089718FM-15+0497KARV V0200205N003152200059N0160935N5-00605-01025999999ADDGF100991999999999999999999MA1100715094915REMMET08503/29/09 00:14:01 METAR KARV 290614Z 02006KT 10SM CLR M06/M10 A2974 RMK AO2 T10601102
0138726404048652009032906147+45928-089718FM-15+0497KARV V0200205N003152200059N0160935N5-00605-01025999999ADDGF100991999999999999999999MA1100715094915REMMET08503/29/09 00:14:01 METAR KARV 290614Z 02006KT 10SM CLR M06/M10 A2974 RMK AO2 T10601102
0138726404048652009032906147+45928-089718FM-15+0497KARV V0200205N003152200059N0160935N5-00605-01025999999ADDGF100991999999999999999999MA1100715094915REMMET08503/29/09 00:14:01 METAR KARV 290614Z 02006KT 10SM CLR M06/M10 A2974 RMK AO2 T10601102
0138726404048652009032906147+45928-089718FM-15+0497KARV V0200205N003152200059N0160935N5-00605-01025999999ADDGF100991999999999999999999MA1100715094915REMMET08503/29/09 00:14:01 METAR KARV 290614Z 02006KT 10SM CLR M06/M10 A2974 RMK AO2 T10601102
0138726404048652009032906147+45928-089718FM-15+0497KARV V0200205N003152200059N0160935N5-00605-01025999999ADDGF100991999999999999999999MA1100715094915REMMET08503/29/09 00:14:01 METAR KARV 290614Z 02006KT 10SM CLR M06/M10 A2974 RMK AO2 T10601102
0138726404048652009032906147+45928-089718FM-15+0497KARV V0200205N003152200059N0160935N5-00605-01025999999ADDGF100991999999999999999999MA1100715094915REMMET08503/29/09 00:14:01 METAR KARV 290614Z 02006KT 10SM CLR M06/M10 A2974 RMK AO2 T10601102
0138726404048652009032906147+45928-089718FM-15+0497KARV V0200205N003152200059N0160935N5-00605-01025999999ADDGF100991999999999999999999MA1100715094915REMMET08503/29/09 00:14:01 METAR KARV 290614Z 02006KT 10SM CLR M06/M10 A2974 RMK AO2 T10601102
0138726404048652009032906147+45928-089718FM-15+0497KARV V0200205N003152200059N0160935N5-00605-01025999999ADDGF100991999999999999999999MA1100715094915REMMET08503/29/09 00:14:01 METAR KARV 290614Z 02006KT 10SM CLR M06/M10 A2974 RMK AO2 T10601102
0138726404048652009032906147+45928-089718FM-15+0497KARV V0200205N003152200059N0160935N5-00605-01025999999ADDGF100991999999999999999999MA1100715094915REMMET08503/29/09 00:14:01 METAR KARV 290614Z 02006KT 10SM CLR M06/M10 A2974 RMK AO2 T10601102
0138726404048652009032906147+45928-089718FM-15+0497KARV V0200205N003152200059N0160935N5-00605-01025999999ADDGF100991999999999999999999MA1100715094915REMMET08503/29/09 00:14:01 METAR KARV 290614Z 02006KT 10SM CLR M06/M10 A2974 RMK AO2 T10601102
0138726404048652009032906147+45928-089718FM-15+0497KARV V0200205N003152200059N0160935N5-00605-01025999999ADDGF100991999999999999999999MA1100715094915REMMET08503/29/09 00:14:01 METAR KARV 290614Z 02006KT 10SM CLR M06/M10 A2974 RMK AO2 T10601102
0138726404048652009032906147+45928-089718FM-15+0497KARV V0200205N003152200059N0160935N5-00605-01025999999ADDGF100991999999999999999999MA1100715094915REMMET08503/29/09 00:14:01 METAR KARV 290614Z 02006KT 10SM CLR M06/M10 A2974 RMK AO2 T10601102
0138726404048652009032906147+45928-089718FM-15+0497KARV V0200205N003152200059N0160935N5-00605-01025999999ADDGF100991999999999999999999MA1100715094915REMMET08503/29/09 00:14:01 METAR KARV 290614Z 02006KT 10SM CLR M06/M10 A2974 RMK AO2 T10601102
0138726404048652009032906147+45928-089718FM-15+0497KARV V0200205N003152200059N0160935N5-00605-01025999999ADDGF100991999999999999999999MA1100715094915REMMET08503/29/09 00:14:01 METAR KARV 290614Z 02006KT 10SM CLR M06/M10 A2974 RMK AO2 T10601102
0138726404048652009032906147+45928-089718FM-15+0497KARV V0200205N003152200059N0160935N5-00605-01025999999ADDGF100991999999999999999999MA1100715094915REMMET08503/29/09 00:14:01 METAR KARV 290614Z 02006KT 10SM CLR M06/M10 A2974 RMK AO2 T10601102
0138726404048652009032906147+45928-089718FM-15+0497KARV V0200205N003152200059N0160935N5-00605-01025999999ADDGF100991999999999999999999MA1100715094915REMMET08503/29/09 00:14:01 METAR KARV 290614Z 02006KT 10SM CLR M06/M10 A2974 RMK AO2 T10601102
0138726404048652009032906147+45928-089718FM-15+0497KARV V0200205N003152200059N0160935N5-00605-01025999999ADDGF100991999999999999999999MA1100715094915REMMET08503/29/09 00:14:01 METAR KARV 290614Z 02006KT 10SM CLR M06/M10 A2974 RMK AO2 T10601102
0138726404048652009032906147+45928-089718FM-15+0497KARV V0200205N003152200059N0160935N5-00605-01025999999ADDGF100991999999999999999999MA1100715094915REMMET08503/29/09 00:14:01 METAR KARV 290614Z 02006KT 10SM CLR M06/M10 A2974 RMK AO2 T10601102
0138726404048652009032906147+45928-089718FM-15+0497KARV V0200205N003152200059N0160935N5-00605-01025999999ADDGF100991999999999999999999MA1100715094915REMMET08503/29/09 00:14:01 METAR KARV 290614Z 02006KT 10SM CLR M06/M10 A2974 RMK AO2 T10601102
0138726404048652009032906147+45928-089718FM-15+0497KARV V0200205N003152200059N0160935N5-00605-01025999999ADDGF100991999999999999999999MA1100715094915REMMET08503/29/09 00:14:01 METAR KARV 290614Z 02006KT 10SM CLR M06/M10 A2974 RMK AO2 T10601102
0138726404048652009032906147+45928-089718FM-15+0497KARV V0200205N003152200059N0160935N5-00605-01025999999ADDGF100991999999999999999999MA1100715094915REMMET08503/29/09 00:14:01 METAR KARV 290614Z 02006KT 10SM CLR M06/M10 A2974 RMK AO2 T10601102
0138726404048652009032906147+45928-089718FM-15+0497KARV V0200205N003152200059N0160935N5-00605-01025999999ADDGF100991999999999999999999MA1100715094915REMMET08503/29/09 00:14:01 METAR KARV 290614Z 02006KT 10SM CLR M06/M10 A2974 RMK AO2 T10601102
0138726404048652009032906147+45928-089718FM-15+0497KARV V0200205N003152200059N0160935N5-00605-01025999999ADDGF100991999999999999999999MA1100715094915REMMET08503/29/09 00:14:01 METAR KARV 290614Z 02006KT 10SM CLR M06/M10 A2974 RMK AO2 T10601102
0138726404048652009032906147+45928-089718FM-15+0497KARV V0200205N003152200059N0160935N5-00605-01025999999ADDGF100991999999999999999999MA1100715094915REMMET08503/29/09 00:14:01 METAR KARV 290614Z 02006KT 10SM CLR M06/M10 A2974 RMK AO2 T10601102
0138726404048652009032906147+45928-089718FM-15+0497KARV V0200205N003152200059N0160935N5-00605-01025999999ADDGF100991999999999999999999MA1100715094915REMMET08503/29/09 00:14:01 METAR KARV 290614Z 02006KT 10SM CLR M06/M10 A2974 RMK AO2 T10601102
0138726404048652009032906147+45928-089718FM-15+0497KARV V0200205N003152200059N0160935N5-00605-01025999999ADDGF100991999999999999999999MA1100715094915REMMET08503/29/09 00:14:01 METAR KARV 290614Z 02006KT 10SM CLR M06/M10 A2974 RMK AO2 T10601102
0138726404048652009032906147+45928-089718FM-15+0497KARV V0200205N003152200059N0160935N5-00605-01025999999ADDGF100991999999999999999999MA1100715094915REMMET08503/29/09 00:14:01 METAR KARV 290614Z 02006KT 10SM CLR M06/M10 A2974 RMK AO2 T10601102
0138726404048652009032906147+45928-089718FM-15+0497KARV V0200205N003152200059N0160935N5-00605-01025999999ADDGF100991999999999999999999MA1100715094915REMMET08503/29/09 00:14:01 METAR KARV 290614Z 02006KT 10SM CLR M06/M10 A2974 RMK AO2 T10601102
0138726404048652009032906147+45928-089718FM-15+0497KARV V0200205N003152200059N0160935N5-00605-01025999999ADDGF100991999999999999999999MA1100715094915REMMET08503/29/09 00:14:01 METAR KARV 290614Z 02006KT 10SM CLR M06/M10 A2974 RMK AO2 T10601102
0138726404048652009032906147+45928-089718FM-15+0497KARV V0200205N003152200059N0160935N5-00605-01025999999ADDGF100991999999999999999999MA1100715094915REMMET08503/29/09 00:14:01 METAR KARV 290614Z 02006KT 10SM CLR M06/M10 A2974 RMK AO2 T10601102
0138726404048652009032906147+45928-089718FM-15+0497KARV V0200205N003152200059N0160935N5-00605-01025999999ADDGF100991999999999999999999MA1100715094915REMMET08503/29/09 00:14:01 METAR KARV 290614Z 02006KT 10SM CLR M06/M10 A2974 RMK AO2 T10601102
0138726404048652009032906147+45928-089718FM-15+0497KARV V0200205N003152200059N0160935N5-00605-01025999999ADDGF100991999999999999999999MA1100715094915REMMET08503/29/09 00:14:01 METAR KARV 290614Z 02006KT 10SM CLR M06/M10 A2974 RMK AO2 T10601102
0138726404048652009032906147+45928-089718FM-15+0497KARV V0200205N003152200059N0160935N5-00605-01025999999ADDGF100991999999999999999999MA1100715094915REMMET08503/29/09 00:14:01 METAR KARV 290614Z 02006KT 10SM CLR M06/M10 A2974 RMK AO2 T10601102
0138726404048652009032906147+45928-089718FM-15+0497KARV V0200205N003152200059N0160935N5-00605-01025999999ADDGF100991999999999999999999MA1100715094915REMMET08503/29/09 00:14:01 METAR KARV 290614Z 02006KT 10SM CLR M06/M10 A2974 RMK AO2 T10601102
0138726404048652009032906147+45928-089718FM-15+0497KARV V0200205N003152200059N0160935N5-00605-01025999999ADDGF100991999999999999999999MA1100715094915REMMET08503/29/09 00:14:01 METAR KARV 290614Z 02006KT 10SM CLR M06/M10 A2974 RMK AO2 T10601102
0138726404048652009032906147+45928-089718FM-15+0497KARV V0200205N003152200059N0160935N5-00605-01025999999ADDGF100991999999999999999999MA1100715094915REMMET08503/29/09 00:14:01 METAR KARV 290614Z 02006KT 10SM CLR M06/M10 A2974 RMK AO2 T10601102
0138726404048652009032906147+45928-089718FM-15+0497KARV V0200205N003152200059N0160935N5-00605-01025999999ADDGF100991999999999999999999MA1100715094915REMMET08503/29/09 00:14:01 METAR KARV 290614Z 02006KT 10SM CLR M06/M10 A2974 RMK AO2 T10601102
0138726404048652009032906147+45928-089718FM-15+0497KARV V0200205N003152200059N0160935N5-00605-01025999999ADDGF100991999999999999999999MA1100715094915REMMET08503/29/09 00:14:01 METAR KARV 290614Z 02006KT 10SM CLR M06/M10 A2974 RMK AO2 T10601102
0138726404048652009032906147+45928-089718FM-15+0497KARV V0200205N003152200059N0160935N5-00605-01025999999ADDGF100991999999999999999999MA1100715094915REMMET08503/29/09 00:14:01 METAR KARV 290614Z 02006KT 10SM CLR M06/M10 A2974 RMK AO2 T10601102
0138726404048652009032906147+45928-089718FM-15+0497KARV V0200205N003152200059N0160935N5-00605-01025999999ADDGF100991999999999999999999MA1100715094915REMMET08503/29/09 00:14:01 METAR KARV 290614Z 02006KT 10SM CLR M06/M10 A2974 RMK AO2 T10601102
0138726404048652009032906147+45928-089718FM-15+0497KARV V0200205N003152200059N0160935N5-00605-01025999999ADDGF100991999999999999999999MA1100715094915REMMET08503/29/09 00:14:01 METAR KARV 290614Z 02006KT 10SM CLR M06/M10 A2974 RMK AO2 T10601102
0138726404048652009032906147+45928-089718FM-15+0497KARV V0200205N003152200059N0160935N5-00605-01025999999ADDGF100991999999999999999999MA1100715094915REMMET08503/29/09 00:14:01 METAR KARV 290614Z 02006KT 10SM CLR M06/M10 A2974 RMK AO2 T10601102
0138726404048652009032906147+45928-089718FM-15+0497KARV V0200205N003152200059N0160935N5-00605-01025999999ADDGF100991999999999999999999MA1100715094915REMMET08503/29/09 00:14:01 METAR KARV 290614Z 02006KT 10SM CLR M06/M10 A2974 RMK AO2 T10601102
0138726404048652009032906147+45928-089718FM-15+0497KARV V0200205N003152200059N0160935N5-00605-01025999999ADDGF100991999999999999999999MA1100715094915REMMET08503/29/09 00:14:01 METAR KARV 290614Z 02006KT 10SM CLR M06/M10 A2974 RMK AO2 T10601102
0138726404048652009032906147+45928-089718FM-15+0497KARV V0200205N003152200059N0160935N5-00605-01025999999ADDGF100991999999999999999999MA1100715094915REMMET08503/29/09 00:14:01 METAR KARV 290614Z 02006KT 10SM CLR M06/M10 A2974 RMK AO2 T10601102
0138726404048652009032906147+45928-089718FM-15+0497KARV V0200205N003152200059N0160935N5-00605-01025999999ADDGF100991999999999999999999MA1100715094915REMMET08503/29/09 00:14:01 METAR KARV 290614Z 02006KT 10SM CLR M06/M10 A2974 RMK AO2 T10601102
0138726404048652009032906147+45928-089718FM-15+0497KARV V0200205N003152200059N0160935N5-00605-01025999999ADDGF100991999999999999999999MA1100715094915REMMET08503/29/09 00:14:01 METAR KARV 290614Z 02006KT 10SM CLR M06/M10 A2974 RMK AO2 T10601102
0138726404048652009032906147+45928-089718FM-15+0497KARV V0200205N003152200059N0160935N5-00605-01025999999ADDGF100991999999999999999999MA1100715094915REMMET08503/29/09 00:14:01 METAR KARV 290614Z 02006KT 10SM CLR M06/M10 A2974 RMK AO2 T10601102
0138726404048652009032906147+45928-089718FM-15+0497KARV V0200205N003152200059N0160935N5-00605-01025999999ADDGF100991999999999999999999MA1100715094915REMMET08503/29/09 00:14:01 METAR KARV 290614Z 02006KT 10SM CLR M06/M10 A2974 RMK AO2 T10601102
0138726404048652009032906147+45928-089718FM-15+0497KARV V0200205N003152200059N0160935N5-00605-01025999999ADDGF100991999999999999999999MA1100715094915REMMET08503/29/09 00:14:01 METAR KARV 290614Z 02006KT 10SM CLR M06/M10 A2974 RMK AO2 T10601102
0138726404048652009032906147+45928-089718FM-15+0497KARV V0200205N003152200059N0160935N5-00605-01025999999ADDGF100991999999999999999999MA1100715094915REMMET08503/29/09 00:14:01 METAR KARV 290614Z 02006KT 10SM CLR M06/M10 A2974 RMK AO2 T10601102
0138726404048652009032906147+45928-089718FM-15+0497KARV V0200205N003152200059N0160935N5-00605-01025999999ADDGF100991999999999999999999MA1100715094915REMMET08503/29/09 00:14:01 METAR KARV 290614Z 02006KT 10SM CLR M06/M10 A2974 RMK AO2 T10601102
0138726404048652009032906147+45928-089718FM-15+0497KARV V0200205N003152200059N0160935N5-00605-01025999999ADDGF100991999999999999999999MA1100715094915REMMET08503/29/09 00:14:01 METAR KARV 290614Z 02006KT 10SM CLR M06/M10 A2974 RMK AO2 T10601102
0138726404048652009032906147+45928-089718FM-15+0497KARV V0200205N003152200059N0160935N5-00605-01025999999ADDGF100991999999999999999999MA1100715094915REMMET08503/29/09 00:14:01 METAR KARV 290614Z 02006KT 10SM CLR M06/M10 A2974 RMK AO2 T10601102
0138726404048652009032906147+45928-089718FM-15+0497KARV V0200205N003152200059N0160935N5-00605-01025999999ADDGF100991999999999999999999MA1100715094915REMMET08503/29/09 00:14:01 METAR KARV 290614Z 02006KT 10SM CLR M06/M10 A2974 RMK AO2 T10601102
0138726404048652009032906147+45928-089718FM-15+0497KARV V0200205N003152200059N0160935N5-00605-01025999999ADDGF100991999999999999999999MA1100715094915REMMET08503/29/09 00:14:01 METAR KARV 290614Z 02006KT 10SM CLR M06/M10 A2974 RMK AO2 T10601102
0138726404048652009032906147+45928-089718FM-15+0497KARV V0200205N003152200059N0160935N5-00605-01025999999ADDGF100991999999999999999999MA1100715094915REMMET08503/29/09 00:14:01 METAR KARV 290614Z 02006KT 10SM CLR M06/M10 A2974 RMK AO2 T10601102
0138726404048652009032906147+45928-089718FM-15+0497KARV V0200205N003152200059N0160935N5-00605-01025999999ADDGF100991999999999999999999MA1100715094915REMMET08503/29/09 00:14:01 METAR KARV 290614Z 02006KT 10SM CLR M06/M10 A2974 RMK AO2 T10601102
0138726404048652009032906147+45928-089718FM-15+0497KARV V0200205N003152200059N0160935N5-00605-01025999999ADDGF100991999999999999999999MA1100715094915REMMET08503/29/09 00:14:01 METAR KARV 290614Z 02006KT 10SM CLR M06/M10 A2974 RMK AO2 T10601102
0138726404048652009032906147+45928-089718FM-15+0497KARV V0200205N003152200059N0160935N5-00605-01025999999ADDGF100991999999999999999999MA1100715094915REMMET08503/29/09 00:14:01 METAR KARV 290614Z 02006KT 10SM CLR M06/M10 A2974 RMK AO2 T10601102
0138726404048652009032906147+45928-089718FM-15+0497KARV V0200205N003152200059N0160935N5-00605-01025999999ADDGF100991999999999999999999MA1100715094915REMMET08503/29/09 00:14:01 METAR KARV 290614Z 02006KT 10SM CLR M06/M10 A2974 RMK AO2 T10601102
0138726404048652009032906147+45928-089718FM-15+0497KARV V0200205N003152200059N0160935N5-00605-01025999999ADDGF100991999999999999999999MA1100715094915REMMET08503/29/09 00:14:01 METAR KARV 290614Z 02006KT 10SM CLR M06/M10 A2974 RMK AO2 T10601102
0138726404048652009032906147+45928-089718FM-15+0497KARV V0200205N003152200059N0160935N5-00605-01025999999ADDGF100991999999999999999999MA1100715094915REMMET08503/29/09 00:14:01 METAR KARV 290614Z 02006KT 10SM CLR M06/M10 A2974 RMK AO2 T10601102
0138726404048652009032906147+45928-089718FM-15+0497KARV V0200205N003152200059N0160935N5-00605-01025999999ADDGF100991999999999999999999MA1100715094915REMMET08503/29/09 00:14:01 METAR KARV 290614Z 02006KT 10SM CLR M06/M10 A2974 RMK AO2 T10601102
0138726404048652009032906147+45928-089718FM-15+0497KARV V0200205N003152200059N0160935N5-00605-01025999999ADDGF100991999999999999999999MA1100715094915REMMET08503/29/09 00:14:01 METAR KARV 290614Z 02006KT 10SM CLR M06/M10 A2974 RMK AO2 T10601102
0138726404048652009032906147+45928-089718FM-15+0497KARV V0200205N003152200059N0160935N5-00605-01025999999ADDGF100991999999999999999999MA1100715094915REMMET08503/29/09 00:14:01 METAR KARV 290614Z 02006KT 10SM CLR M06/M10 A2974 RMK AO2 T10601102
0138726404048652009032906147+45928-089718FM-15+0497KARV V0200205N003152200059N0160935N5-00605-01025999999ADDGF100991999999999999999999MA1100715094915REMMET08503/29/09 00:14:01 METAR KARV 290614Z 02006KT 10SM CLR M06/M10 A2974 RMK AO2 T10601102
0138726404048652009032906147+45928-089718FM-15+0497KARV V0200205N003152200059N0160935N5-00605-01025999999ADDGF100991999999999999999999MA1100715094915REMMET08503/29/09 00:14:01 METAR KARV 290614Z 02006KT 10SM CLR M06/M10 A2974 RMK AO2 T10601102
0138726404048652009032906147+45928-089718FM-15+0497KARV V0200205N003152200059N0160935N5-00605-01025999999ADDGF100991999999999999999999MA1100715094915REMMET08503/29/09 00:14:01 METAR KARV 290614Z 02006KT 10SM CLR M06/M10 A2974 RMK AO2 T10601102
0138726404048652009032906147+45928-089718FM-15+0497KARV V0200205N003152200059N0160935N5-00605-01025999999ADDGF100991999999999999999999MA1100715094915REMMET08503/29/09 00:14:01 METAR KARV 290614Z 02006KT 10SM CLR M06/M10 A2974 RMK AO2 T10601102
0138726404048652009032906147+45928-089718FM-15+0497KARV V0200205N003152200059N0160935N5-00605-01025999999ADDGF100991999999999999999999MA1100715094915REMMET08503/29/09 00:14:01 METAR KARV 290614Z 02006KT 10SM CLR M06/M10 A2974 RMK AO2 T10601102
0138726404048652009032906147+45928-089718FM-15+0497KARV V0200205N003152200059N0160935N5-00605-01025999999ADDGF100991999999999999999999MA1100715094915REMMET08503/29/09 00:14:01 METAR KARV 290614Z 02006KT 10SM CLR M06/M10 A2974 RMK AO2 T10601102
0138726404048652009032906147+45928-089718FM-15+0497KARV V0200205N003152200059N0160935N5-00605-01025999999ADDGF100991999999999999999999MA1100715094915REMMET08503/29/09 00:14:01 METAR KARV 290614Z 02006KT 10SM CLR M06/M10 A2974 RMK AO2 T10601102
0138726404048652009032906147+45928-089718FM-15+0497KARV V0200205N003152200059N0160935N5-00605-01025999999ADDGF100991999999999999999999MA1100715094915REMMET08503/29/09 00:14:01 METAR KARV 290614Z 02006KT 10SM CLR M06/M10 A2974 RMK AO2 T10601102
0138726404048652009032906147+45928-089718FM-15+0497KARV V0200205N003152200059N0160935N5-00605-01025999999ADDGF100991999999999999999999MA1100715094915REMMET08503/29/09 00:14:01 METAR KARV 290614Z 02006KT 10SM CLR M06/M10 A2974 RMK AO2 T10601102
0138726404048652009032906147+45928-089718FM-15+0497KARV V0200205N003152200059N0160935N5-00605-01025999999ADDGF100991999999999999999999MA1100715094915REMMET08503/29/09 00:14:01 METAR KARV 290614Z 02006KT 10SM CLR M06/M10 A2974 RMK AO2 T10601102
0138726404048652009032906147+45928-089718FM-15+0497KARV V0200205N003152200059N0160935N5-00605-01025999999ADDGF100991999999999999999999MA1100715094915REMMET08503/29/09 00:14:01 METAR KARV 290614Z 02006KT 10SM CLR M06/M10 A2974 RMK AO2 T10601102
0138726404048652009032906147+45928-089718FM-15+0497KARV V0200205N003152200059N0160935N5-00605-01025999999ADDGF100991999999999999999999MA1100715094915REMMET08503/29/09 00:14:01 METAR KARV 290614Z 02006KT 10SM CLR M06/M10 A2974 RMK AO2 T10601102
0138726404048652009032906147+45928-089718FM-15+0497KARV V0200205N003152200059N0160935N5-00605-01025999999ADDGF100991999999999999999999MA1100715094915REMMET08503/29/09 00:14:01 METAR KARV 290614Z 02006KT 10SM CLR M06/M10 A2974 RMK AO2 T10601102
0138726404048652009032906147+45928-089718FM-15+0497KARV V0200205N003152200059N0160935N5-00605-01025999999ADDGF100991999999999999999999MA1100715094915REMMET08503/29/09 00:14:01 METAR KARV 290614Z 02006KT 10SM CLR M06/M10 A2974 RMK AO2 T10601102
0138726404048652009032906147+45928-089718FM-15+0497KARV V0200205N003152200059N0160935N5-00605-01025999999ADDGF100991999999999999999999MA1100715094915REMMET08503/29/09 00:14:01 METAR KARV 290614Z 02006KT 10SM CLR M06/M10 A2974 RMK AO2 T10601102
0138726404048652009032906147+45928-089718FM-15+0497KARV V0200205N003152200059N0160935N5-00605-01025999999ADDGF100991999999999999999999MA1100715094915REMMET08503/29/09 00:14:01 METAR KARV 290614Z 02006KT 10SM CLR M06/M10 A2974 RMK AO2 T10601102
0138726404048652009032906147+45928-089718FM-15+0497KARV V0200205N003152200059N0160935N5-00605-01025999999ADDGF100991999999999999999999MA1100715094915REMMET08503/29/09 00:14:01 METAR KARV 290614Z 02006KT 10SM CLR M06/M10 A2974 RMK AO2 T10601102
0138726404048652009032906147+45928-089718FM-15+0497KARV V0200205N003152200059N0160935N5-00605-01025999999ADDGF100991999999999999999999MA1100715094915REMMET08503/29/09 00:14:01 METAR KARV 290614Z 02006KT 10SM CLR M06/M10 A2974 RMK AO2 T10601102
0138726404048652009032906147+45928-089718FM-15+0497KARV V0200205N003152200059N0160935N5-00605-01025999999ADDGF100991999999999999999999MA1100715094915REMMET08503/29/09 00:14:01 METAR KARV 290614Z 02006KT 10SM CLR M06/M10 A2974 RMK AO2 T10601102
0138726404048652009032906147+45928-089718FM-15+0497KARV V0200205N003152200059N0160935N5-00605-01025999999ADDGF100991999999999999999999MA1100715094915REMMET08503/29/09 00:14:01 METAR KARV 290614Z 02006KT 10SM CLR M06/M10 A2974 RMK AO2 T10601102
0138726404048652009032906147+45928-089718FM-15+0497KARV V0200205N003152200059N0160935N5-00605-01025999999ADDGF100991999999999999999999MA1100715094915REMMET08503/29/09 00:14:01 METAR KARV 290614Z 02006KT 10SM CLR M06/M10 A2974 RMK AO2 T10601102
0138726404048652009032906147+45928-089718FM-15+0497KARV V0200205N003152200059N0160935N5-00605-01025999999ADDGF100991999999999999999999MA1100715094915REMMET08503/29/09 00:14:01 METAR KARV 290614Z 02006KT 10SM CLR M06/M10 A2974 RMK AO2 T10601102
0138726404048652009032906147+45928-089718FM-15+0497KARV V0200205N003152200059N0160935N5-00605-01025999999ADDGF100991999999999999999999MA1100715094915REMMET08503/29/09 00:14:01 METAR KARV 290614Z 02006KT 10SM CLR M06/M10 A2974 RMK AO2 T10601102
0138726404048652009032906147+45928-089718FM-15+0497KARV V0200205N003152200059N0160935N5-00605-01025999999ADDGF100991999999999999999999MA1100715094915REMMET08503/29/09 00:14:01 METAR KARV 290614Z 02006KT 10SM CLR M06/M10 A2974 RMK AO2 T10601102
0138726404048652009032906147+45928-089718FM-15+0497KARV V0200205N003152200059N0160935N5-00605-01025999999ADDGF100991999999999999999999MA1100715094915REMMET08503/29/09 00:14:01 METAR KARV 290614Z 02006KT 10SM CLR M06/M10 A2974 RMK AO2 T10601102
0138726404048652009032906147+45928-089718FM-15+0497KARV V0200205N003152200059N0160935N5-00605-01025999999ADDGF100991999999999999999999MA1100715094915REMMET08503/29/09 00:14:01 METAR KARV 290614Z 02006KT 10SM CLR M06/M10 A2974 RMK AO2 T10601102
0138726404048652009032906147+45928-089718FM-15+0497KARV V0200205N003152200059N0160935N5-00605-01025999999ADDGF100991999999999999999999MA1100715094915REMMET08503/29/09 00:14:01 METAR KARV 290614Z 02006KT 10SM CLR M06/M10 A2974 RMK AO2 T10601102
0138726404048652009032906147+45928-089718FM-15+0497KARV V0200205N003152200059N0160935N5-00605-01025999999ADDGF100991999999999999999999MA1100715094915REMMET08503/29/09 00:14:01 METAR KARV 290614Z 02006KT 10SM CLR M06/M10 A2974 RMK AO2 T10601102
0138726404048652009032906147+45928-089718FM-15+0497KARV V0200205N003152200059N0160935N5-00605-01025999999ADDGF100991999999999999999999MA1100715094915REMMET08503/29/09 00:14:01 METAR KARV 290614Z 02006KT 10SM CLR M06/M10 A2974 RMK AO2 T10601102
0138726404048652009032906147+45928-089718FM-15+0497KARV V0200205N003152200059N0160935N5-00605-01025999999ADDGF100991999999999999999999MA1100715094915REMMET08503/29/09 00:14:01 METAR KARV 290614Z 02006KT 10SM CLR M06/M10 A2974 RMK AO2 T10601102
0138726404048652009032906147+45928-089718FM-15+0497KARV V0200205N003152200059N0160935N5-00605-01025999999ADDGF100991999999999999999999MA1100715094915REMMET08503/29/09 00:14:01 METAR KARV 290614Z 02006KT 10SM CLR M06/M10 A2974 RMK AO2 T10601102
0138726404048652009032906147+45928-089718FM-15+0497KARV V0200205N003152200059N0160935N5-00605-01025999999ADDGF100991999999999999999999MA1100715094915REMMET08503/29/09 00:14:01 METAR KARV 290614Z 02006KT 10SM CLR M06/M10 A2974 RMK AO2 T10601102
0138726404048652009032906147+45928-089718FM-15+0497KARV V0200205N003152200059N0160935N5-00605-01025999999ADDGF100991999999999999999999MA1100715094915REMMET08503/29/09 00:14:01 METAR KARV 290614Z 02006KT 10SM CLR M06/M10 A2974 RMK AO2 T10601102
0138726404048652009032906147+45928-089718FM-15+0497KARV V0200205N003152200059N0160935N5-00605-01025999999ADDGF100991999999999999999999MA1100715094915REMMET08503/29/09 00:14:01 METAR KARV 290614Z 02006KT 10SM CLR M06/M10 A2974 RMK AO2 T10601102
0138726404048652009032906147+45928-089718FM-15+0497KARV V0200205N003152200059N0160935N5-00605-01025999999ADDGF100991999999999999999999MA1100715094915REMMET08503/29/09 00:14:01 METAR KARV 290614Z 02006KT 10SM CLR M06/M10 A2974 RMK AO2 T10601102
0138726404048652009032906147+45928-089718FM-15+0497KARV V0200205N003152200059N0160935N5-00605-01025999999ADDGF100991999999999999999999MA1100715094915REMMET08503/29/09 00:14:01 METAR KARV 290614Z 02006KT 10SM CLR M06/M10 A2974 RMK AO2 T10601102
0138726404048652009032906147+45928-089718FM-15+0497KARV V0200205N003152200059N0160935N5-00605-01025999999ADDGF100991999999999999999999MA1100715094915REMMET08503/29/09 00:14:01 METAR KARV 290614Z 02006KT 10SM CLR M06/M10 A2974 RMK AO2 T10601102
0138726404048652009032906147+45928-089718FM-15+0497KARV V0200205N003152200059N0160935N5-00605-01025999999ADDGF100991999999999999999999MA1100715094915REMMET08503/29/09 00:14:01 METAR KARV 290614Z 02006KT 10SM CLR M06/M10 A2974 RMK AO2 T10601102
0138726404048652009032906147+45928-089718FM-15+0497KARV V0200205N003152200059N0160935N5-00605-01025999999ADDGF100991999999999999999999MA1100715094915REMMET08503/29/09 00:14:01 METAR KARV 290614Z 02006KT 10SM CLR M06/M10 A2974 RMK AO2 T10601102
0138726404048652009032906147+45928-089718FM-15+0497KARV V0200205N003152200059N0160935N5-00605-01025999999ADDGF100991999999999999999999MA1100715094915REMMET08503/29/09 00:14:01 METAR KARV 290614Z 02006KT 10SM CLR M06/M10 A2974 RMK AO2 T10601102
0138726404048652009032906147+45928-089718FM-15+0497KARV V0200205N003152200059N0160935N5-00605-01025999999ADDGF100991999999999999999999MA1100715094915REMMET08503/29/09 00:14:01 METAR KARV 290614Z 02006KT 10SM CLR M06/M10 A2974 RMK AO2 T10601102
0138726404048652009032906147+45928-089718FM-15+0497KARV V0200205N003152200059N0160935N5-00605-01025999999ADDGF100991999999999999999999MA1100715094915REMMET08503/29/09 00:14:01 METAR KARV 290614Z 02006KT 10SM CLR M06/M10 A2974 RMK AO2 T10601102
0138726404048652009032906147+45928-089718FM-15+0497KARV V0200205N003152200059N0160935N5-00605-01025999999ADDGF100991999999999999999999MA1100715094915REMMET08503/29/09 00:14:01 METAR KARV 290614Z 02006KT 10SM CLR M06/M10 A2974 RMK AO2 T10601102
0138726404048652009032906147+45928-089718FM-15+0497KARV V0200205N003152200059N0160935N5-00605-01025999999ADDGF100991999999999999999999MA1100715094915REMMET08503/29/09 00:14:01 METAR KARV 290614Z 02006KT 10SM CLR M06/M10 A2974 RMK AO2 T10601102
0138726404048652009032906147+45928-089718FM-15+0497KARV V0200205N003152200059N0160935N5-00605-01025999999ADDGF100991999999999999999999MA1100715094915REMMET08503/29/09 00:14:01 METAR KARV 290614Z 02006KT 10SM CLR M06/M10 A2974 RMK AO2 T10601102
0138726404048652009032906147+45928-089718FM-15+0497KARV V0200205N003152200059N0160935N5-00605-01025999999ADDGF100991999999999999999999MA1100715094915REMMET08503/29/09 00:14:01 METAR KARV 290614Z 02006KT 10SM CLR M06/M10 A2974 RMK AO2 T10601102
0138726404048652009032906147+45928-089718FM-15+0497KARV V0200205N003152200059N0160935N5-00605-01025999999ADDGF100991999999999999999999MA1100715094915REMMET08503/29/09 00:14:01 METAR KARV 290614Z 02006KT 10SM CLR M06/M10 A2974 RMK AO2 T10601102
0138726404048652009032906147+45928-089718FM-15+0497KARV V0200205N003152200059N0160935N5-00605-01025999999ADDGF100991999999999999999999MA1100715094915REMMET08503/29/09 00:14:01 METAR KARV 290614Z 02006KT 10SM CLR M06/M10 A2974 RMK AO2 T10601102
0138726404048652009032906147+45928-089718FM-15+0497KARV V0200205N003152200059N0160935N5-00605-01025999999ADDGF100991999999999999999999MA1100715094915REMMET08503/29/09 00:14:01 METAR KARV 290614Z 02006KT 10SM CLR M06/M10 A2974 RMK AO2 T10601102
0138726404048652009032906147+45928-089718FM-15+0497KARV V0200205N003152200059N0160935N5-00605-01025999999ADDGF100991999999999999999999MA1100715094915REMMET08503/29/09 00:14:01 METAR KARV 290614Z 02006KT 10SM CLR M06/M10 A2974 RMK AO2 T10601102
0138726404048652009032906147+45928-089718FM-15+0497KARV V0200205N003152200059N0160935N5-00605-01025999999ADDGF100991999999999999999999MA1100715094915REMMET08503/29/09 00:14:01 METAR KARV 290614Z 02006KT 10SM CLR M06/M10 A2974 RMK AO2 T10601102
0138726404048652009032906147+45928-089718FM-15+0497KARV V0200205N003152200059N0160935N5-00605-01025999999ADDGF100991999999999999999999MA1100715094915REMMET08503/29/09 00:14:01 METAR KARV 290614Z 02006KT 10SM CLR M06/M10 A2974 RMK AO2 T10601102
0138726404048652009032906147+45928-089718FM-15+0497KARV V0200205N003152200059N0160935N5-00605-01025999999ADDGF100991999999999999999999MA1100715094915REMMET08503/29/09 00:14:01 METAR KARV 290614Z 02006KT 10SM CLR M06/M10 A2974 RMK AO2 T10601102
0138726404048652009032906147+45928-089718FM-15+0497KARV V0200205N003152200059N0160935N5-00605-01025999999ADDGF100991999999999999999999MA1100715094915REMMET08503/29/09 00:14:01 METAR KARV 290614Z 02006KT 10SM CLR M06/M10 A2974 RMK AO2 T10601102
0138726404048652009032906147+45928-089718FM-15+0497KARV V0200205N003152200059N0160935N5-00605-01025999999ADDGF100991999999999999999999MA1100715094915REMMET08503/29/09 00:14:01 METAR KARV 290614Z 02006KT 10SM CLR M06/M10 A2974 RMK AO2 T10601102
0138726404048652009032906147+45928-089718FM-15+0497KARV V0200205N003152200059N0160935N5-00605-01025999999ADDGF100991999999999999999999MA1100715094915REMMET08503/29/09 00:14:01 METAR KARV 290614Z 02006KT 10SM CLR M06/M10 A2974 RMK AO2 T10601102
0138726404048652009032906147+45928-089718FM-15+0497KARV V0200205N003152200059N0160935N5-00605-01025999999ADDGF100991999999999999999999MA1100715094915REMMET08503/29/09 00:14:01 METAR KARV 290614Z 02006KT 10SM CLR M06/M10 A2974 RMK AO2 T10601102
0138726404048652009032906147+45928-089718FM-15+0497KARV V0200205N003152200059N0160935N5-00605-01025999999ADDGF100991999999999999999999MA1100715094915REMMET08503/29/09 00:14:01 METAR KARV 290614Z 02006KT 10SM CLR M06/M10 A2974 RMK AO2 T10601102
0138726404048652009032906147+45928-089718FM-15+0497KARV V0200205N003152200059N0160935N5-00605-01025999999ADDGF100991999999999999999999MA1100715094915REMMET08503/29/09 00:14:01 METAR KARV 290614Z 02006KT 10SM CLR M06/M10 A2974 RMK AO2 T10601102
0138726404048652009032906147+45928-089718FM-15+0497KARV V0200205N003152200059N0160935N5-00605-01025999999ADDGF100991999999999999999999MA1100715094915REMMET08503/29/09 00:14:01 METAR KARV 290614Z 02006KT 10SM CLR M06/M10 A2974 RMK AO2 T10601102
0138726404048652009032906147+45928-089718FM-15+0497KARV V0200205N003152200059N0160935N5-00605-01025999999ADDGF100991999999999999999999MA1100715094915REMMET08503/29/09 00:14:01 METAR KARV 290614Z 02006KT 10SM CLR M06/M10 A2974 RMK AO2 T10601102
0138726404048652009032906147+45928-089718FM-15+0497KARV V0200205N003152200059N0160935N5-00605-01025999999ADDGF100991999999999999999999MA1100715094915REMMET08503/29/09 00:14:01 METAR KARV 290614Z 02006KT 10SM CLR M06/M10 A2974 RMK AO2 T10601102
0138726404048652009032906147+45928-089718FM-15+0497KARV V0200205N003152200059N0160935N5-00605-01025999999ADDGF100991999999999999999999MA1100715094915REMMET08503/29/09 00:14:01 METAR KARV 290614Z 02006KT 10SM CLR M06/M10 A2974 RMK AO2 T10601102
0138726404048652009032906147+45928-089718FM-15+0497KARV V0200205N003152200059N0160935N5-00605-01025999999ADDGF100991999999999999999999MA1100715094915REMMET08503/29/09 00:14:01 METAR KARV 290614Z 02006KT 10SM CLR M06/M10 A2974 RMK AO2 T10601102
0138726404048652009032906147+45928-089718FM-15+0497KARV V0200205N003152200059N0160935N5-00605-01025999999ADDGF100991999999999999999999MA1100715094915REMMET08503/29/09 00:14:01 METAR KARV 290614Z 02006KT 10SM CLR M06/M10 A2974 RMK AO2 T10601102
0138726404048652009032906147+45928-089718FM-15+0497KARV V0200205N003152200059N0160935N5-00605-01025999999ADDGF100991999999999999999999MA1100715094915REMMET08503/29/09 00:14:01 METAR KARV 290614Z 02006KT 10SM CLR M06/M10 A2974 RMK AO2 T10601102
0138726404048652009032906147+45928-089718FM-15+0497KARV V0200205N003152200059N0160935N5-00605-01025999999ADDGF100991999999999999999999MA1100715094915REMMET08503/29/09 00:14:01 METAR KARV 290614Z 02006KT 10SM CLR M06/M10 A2974 RMK AO2 T10601102
0138726404048652009032906147+45928-089718FM-15+0497KARV V0200205N003152200059N0160935N5-00605-01025999999ADDGF100991999999999999999999MA1100715094915REMMET08503/29/09 00:14:01 METAR KARV 290614Z 02006KT 10SM CLR M06/M10 A2974 RMK AO2 T10601102
0138726404048652009032906147+45928-089718FM-15+0497KARV V0200205N003152200059N0160935N5-00605-01025999999ADDGF100991999999999999999999MA1100715094915REMMET08503/29/09 00:14:01 METAR KARV 290614Z 02006KT 10SM CLR M06/M10 A2974 RMK AO2 T10601102
0138726404048652009032906147+45928-089718FM-15+0497KARV V0200205N003152200059N0160935N5-00605-01025999999ADDGF100991999999999999999999MA1100715094915REMMET08503/29/09 00:14:01 METAR KARV 290614Z 02006KT 10SM CLR M06/M10 A2974 RMK AO2 T10601102
0138726404048652009032906147+45928-089718FM-15+0497KARV V0200205N003152200059N0160935N5-00605-01025999999ADDGF100991999999999999999999MA1100715094915REMMET08503/29/09 00:14:01 METAR KARV 290614Z 02006KT 10SM CLR M06/M10 A2974 RMK AO2 T10601102
0138726404048652009032906147+45928-089718FM-15+0497KARV V0200205N003152200059N0160935N5-00605-01025999999ADDGF100991999999999999999999MA1100715094915REMMET08503/29/09 00:14:01 METAR KARV 290614Z 02006KT 10SM CLR M06/M10 A2974 RMK AO2 T10601102
0138726404048652009032906147+45928-089718FM-15+0497KARV V0200205N003152200059N0160935N5-00605-01025999999ADDGF100991999999999999999999MA1100715094915REMMET08503/29/09 00:14:01 METAR KARV 290614Z 02006KT 10SM CLR M06/M10 A2974 RMK AO2 T10601102
0138726404048652009032906147+45928-089718FM-15+0497KARV V0200205N003152200059N0160935N5-00605-01025999999ADDGF100991999999999999999999MA1100715094915REMMET08503/29/09 00:14:01 METAR KARV 290614Z 02006KT 10SM CLR M06/M10 A2974 RMK AO2 T10601102
0138726404048652009032906147+45928-089718FM-15+0497KARV V0200205N003152200059N0160935N5-00605-01025999999ADDGF100991999999999999999999MA1100715094915REMMET08503/29/09 00:14:01 METAR KARV 290614Z 02006KT 10SM CLR M06/M10 A2974 RMK AO2 T10601102
0138726404048652009032906147+45928-089718FM-15+0497KARV V0200205N003152200059N0160935N5-00605-01025999999ADDGF100991999999999999999999MA1100715094915REMMET08503/29/09 00:14:01 METAR KARV 290614Z 02006KT 10SM CLR M06/M10 A2974 RMK AO2 T10601102
0138726404048652009032906147+45928-089718FM-15+0497KARV V0200205N003152200059N0160935N5-00605-01025999999ADDGF100991999999999999999999MA1100715094915REMMET08503/29/09 00:14:01 METAR KARV 290614Z 02006KT 10SM CLR M06/M10 A2974 RMK AO2 T10601102
0138726404048652009032906147+45928-089718FM-15+0497KARV V0200205N003152200059N0160935N5-00605-01025999999ADDGF100991999999999999999999MA1100715094915REMMET08503/29/09 00:14:01 METAR KARV 290614Z 02006KT 10SM CLR M06/M10 A2974 RMK AO2 T10601102
0138726404048652009032906147+45928-089718FM-15+0497KARV V0200205N003152200059N0160935N5-00605-01025999999ADDGF100991999999999999999999MA1100715094915REMMET08503/29/09 00:14:01 METAR KARV 290614Z 02006KT 10SM CLR M06/M10 A2974 RMK AO2 T10601102
0138726404048652009032906147+45928-089718FM-15+0497KARV V0200205N003152200059N0160935N5-00605-01025999999ADDGF100991999999999999999999MA1100715094915REMMET08503/29/09 00:14:01 METAR KARV 290614Z 02006KT 10SM CLR M06/M10 A2974 RMK AO2 T10601102
0138726404048652009032906147+45928-089718FM-15+0497KARV V0200205N003152200059N0160935N5-00605-01025999999ADDGF100991999999999999999999MA1100715094915REMMET08503/29/09 00:14:01 METAR KARV 290614Z 02006KT 10SM CLR M06/M10 A2974 RMK AO2 T10601102
0138726404048652009032906147+45928-089718FM-15+0497KARV V0200205N003152200059N0160935N5-00605-01025999999ADDGF100991999999999999999999MA1100715094915REMMET08503/29/09 00:14:01 METAR KARV 290614Z 02006KT 10SM CLR M06/M10 A2974 RMK AO2 T10601102
0138726404048652009032906147+45928-089718FM-15+0497KARV V0200205N003152200059N0160935N5-00605-01025999999ADDGF100991999999999999999999MA1100715094915REMMET08503/29/09 00:14:01 METAR KARV 290614Z 02006KT 10SM CLR M06/M10 A2974 RMK AO2 T10601102
0138726404048652009032906147+45928-089718FM-15+0497KARV V0200205N003152200059N0160935N5-00605-01025999999ADDGF100991999999999999999999MA1100715094915REMMET08503/29/09 00:14:01 METAR KARV 290614Z 02006KT 10SM CLR M06/M10 A2974 RMK AO2 T10601102
0138726404048652009032906147+45928-089718FM-15+0497KARV V0200205N003152200059N0160935N5-00605-01025999999ADDGF100991999999999999999999MA1100715094915REMMET08503/29/09 00:14:01 METAR KARV 290614Z 02006KT 10SM CLR M06/M10 A2974 RMK AO2 T10601102
0138726404048652009032906147+45928-089718FM-15+0497KARV V0200205N003152200059N0160935N5-00605-01025999999ADDGF100991999999999999999999MA1100715094915REMMET08503/29/09 00:14:01 METAR KARV 290614Z 02006KT 10SM CLR M06/M10 A2974 RMK AO2 T10601102
0138726404048652009032906147+45928-089718FM-15+0497KARV V0200205N003152200059N0160935N5-00605-01025999999ADDGF100991999999999999999999MA1100715094915REMMET08503/29/09 00:14:01 METAR KARV 290614Z 02006KT 10SM CLR M06/M10 A2974 RMK AO2 T10601102
0138726404048652009032906147+45928-089718FM-15+0497KARV V0200205N003152200059N0160935N5-00605-01025999999ADDGF100991999999999999999999MA1100715094915REMMET08503/29/09 00:14:01 METAR KARV 290614Z 02006KT 10SM CLR M06/M10 A2974 RMK AO2 T10601102
0138726404048652009032906147+45928-089718FM-15+0497KARV V0200205N003152200059N0160935N5-00605-01025999999ADDGF100991999999999999999999MA1100715094915REMMET08503/29/09 00:14:01 METAR KARV 290614Z 02006KT 10SM CLR M06/M10 A2974 RMK AO2 T10601102
0138726404048652009032906147+45928-089718FM-15+0497KARV V0200205N003152200059N0160935N5-00605-01025999999ADDGF100991999999999999999999MA1100715094915REMMET08503/29/09 00:14:01 METAR KARV 290614Z 02006KT 10SM CLR M06/M10 A2974 RMK AO2 T10601102
0138726404048652009032906147+45928-089718FM-15+0497KARV V0200205N003152200059N0160935N5-00605-01025999999ADDGF100991999999999999999999MA1100715094915REMMET08503/29/09 00:14:01 METAR KARV 290614Z 02006KT 10SM CLR M06/M10 A2974 RMK AO2 T10601102
0138726404048652009032906147+45928-089718FM-15+0497KARV V0200205N003152200059N0160935N5-00605-01025999999ADDGF100991999999999999999999MA1100715094915REMMET08503/29/09 00:14:01 METAR KARV 290614Z 02006KT 10SM CLR M06/M10 A2974 RMK AO2 T10601102
0138726404048652009032906147+45928-089718FM-15+0497KARV V0200205N003152200059N0160935N5-00605-01025999999ADDGF100991999999999999999999MA1100715094915REMMET08503/29/09 00:14:01 METAR KARV 290614Z 02006KT 10SM CLR M06/M10 A2974 RMK AO2 T10601102
0138726404048652009032906147+45928-089718FM-15+0497KARV V0200205N003152200059N0160935N5-00605-01025999999ADDGF100991999999999999999999MA1100715094915REMMET08503/29/09 00:14:01 METAR KARV 290614Z 02006KT 10SM CLR M06/M10 A2974 RMK AO2 T10601102
0138726404048652009032906147+45928-089718FM-15+0497KARV V0200205N003152200059N0160935N5-00605-01025999999ADDGF100991999999999999999999MA1100715094915REMMET08503/29/09 00:14:01 METAR KARV 290614Z 02006KT 10SM CLR M06/M10 A2974 RMK AO2 T10601102
0138726404048652009032906147+45928-089718FM-15+0497KARV V0200205N003152200059N0160935N5-00605-01025999999ADDGF100991999999999999999999MA1100715094915REMMET08503/29/09 00:14:01 METAR KARV 290614Z 02006KT 10SM CLR M06/M10 A2974 RMK AO2 T10601102
0138726404048652009032906147+45928-089718FM-15+0497KARV V0200205N003152200059N0160935N5-00605-01025999999ADDGF100991999999999999999999MA1100715094915REMMET08503/29/09 00:14:01 METAR KARV 290614Z 02006KT 10SM CLR M06/M10 A2974 RMK AO2 T10601102
0138726404048652009032906147+45928-089718FM-15+0497KARV V0200205N003152200059N0160935N5-00605-01025999999ADDGF100991999999999999999999MA1100715094915REMMET08503/29/09 00:14:01 METAR KARV 290614Z 02006KT 10SM CLR M06/M10 A2974 RMK AO2 T10601102
0138726404048652009032906147+45928-089718FM-15+0497KARV V0200205N003152200059N0160935N5-00605-01025999999ADDGF100991999999999999999999MA1100715094915REMMET08503/29/09 00:14:01 METAR KARV 290614Z 02006KT 10SM CLR M06/M10 A2974 RMK AO2 T10601102
0138726404048652009032906147+45928-089718FM-15+0497KARV V0200205N003152200059N0160935N5-00605-01025999999ADDGF100991999999999999999999MA1100715094915REMMET08503/29/09 00:14:01 METAR KARV 290614Z 02006KT 10SM CLR M06/M10 A2974 RMK AO2 T10601102
0138726404048652009032906147+45928-089718FM-15+0497KARV V0200205N003152200059N0160935N5-00605-01025999999ADDGF100991999999999999999999MA1100715094915REMMET08503/29/09 00:14:01 METAR KARV 290614Z 02006KT 10SM CLR M06/M10 A2974 RMK AO2 T10601102
0138726404048652009032906147+45928-089718FM-15+0497KARV V0200205N003152200059N0160935N5-00605-01025999999ADDGF100991999999999999999999MA1100715094915REMMET08503/29/09 00:14:01 METAR KARV 290614Z 02006KT 10SM CLR M06/M10 A2974 RMK AO2 T10601102
0138726404048652009032906147+45928-089718FM-15+0497KARV V0200205N003152200059N0160935N5-00605-01025999999ADDGF100991999999999999999999MA1100715094915REMMET08503/29/09 00:14:01 METAR KARV 290614Z 02006KT 10SM CLR M06/M10 A2974 RMK AO2 T10601102
0138726404048652009032906147+45928-089718FM-15+0497KARV V0200205N003152200059N0160935N5-00605-01025999999ADDGF100991999999999999999999MA1100715094915REMMET08503/29/09 00:14:01 METAR KARV 290614Z 02006KT 10SM CLR M06/M10 A2974 RMK AO2 T10601102
0138726404048652009032906147+45928-089718FM-15+0497KARV V0200205N003152200059N0160935N5-00605-01025999999ADDGF100991999999999999999999MA1100715094915REMMET08503/29/09 00:14:01 METAR KARV 290614Z 02006KT 10SM CLR M06/M10 A2974 RMK AO2 T10601102
0138726404048652009032906147+45928-089718FM-15+0497KARV V0200205N003152200059N0160935N5-00605-01025999999ADDGF100991999999999999999999MA1100715094915REMMET08503/29/09 00:14:01 METAR KARV 290614Z 02006KT 10SM CLR M06/M10 A2974 RMK AO2 T10601102
0138726404048652009032906147+45928-089718FM-15+0497KARV V0200205N003152200059N0160935N5-00605-01025999999ADDGF100991999999999999999999MA1100715094915REMMET08503/29/09 00:14:01 METAR KARV 290614Z 02006KT 10SM CLR M06/M10 A2974 RMK AO2 T10601102
0138726404048652009032906147+45928-089718FM-15+0497KARV V0200205N003152200059N0160935N5-00605-01025999999ADDGF100991999999999999999999MA1100715094915REMMET08503/29/09 00:14:01 METAR KARV 290614Z 02006KT 10SM CLR M06/M10 A2974 RMK AO2 T10601102
0138726404048652009032906147+45928-089718FM-15+0497KARV V0200205N003152200059N0160935N5-00605-01025999999ADDGF100991999999999999999999MA1100715094915REMMET08503/29/09 00:14:01 METAR KARV 290614Z 02006KT 10SM CLR M06/M10 A2974 RMK AO2 T10601102
0138726404048652009032906147+45928-089718FM-15+0497KARV V0200205N003152200059N0160935N5-00605-01025999999ADDGF100991999999999999999999MA1100715094915REMMET08503/29/09 00:14:01 METAR KARV 290614Z 02006KT 10SM CLR M06/M10 A2974 RMK AO2 T10601102
0138726404048652009032906147+45928-089718FM-15+0497KARV V0200205N003152200059N0160935N5-00605-01025999999ADDGF100991999999999999999999MA1100715094915REMMET08503/29/09 00:14:01 METAR KARV 290614Z 02006KT 10SM CLR M06/M10 A2974 RMK AO2 T10601102
0138726404048652009032906147+45928-089718FM-15+0497KARV V0200205N003152200059N0160935N5-00605-01025999999ADDGF100991999999999999999999MA1100715094915REMMET08503/29/09 00:14:01 METAR KARV 290614Z 02006KT 10SM CLR M06/M10 A2974 RMK AO2 T10601102
0138726404048652009032906147+45928-089718FM-15+0497KARV V0200205N003152200059N0160935N5-00605-01025999999ADDGF100991999999999999999999MA1100715094915REMMET08503/29/09 00:14:01 METAR KARV 290614Z 02006KT 10SM CLR M06/M10 A2974 RMK AO2 T10601102
0138726404048652009032906147+45928-089718FM-15+0497KARV V0200205N003152200059N0160935N5-00605-01025999999ADDGF100991999999999999999999MA1100715094915REMMET08503/29/09 00:14:01 METAR KARV 290614Z 02006KT 10SM CLR M06/M10 A2974 RMK AO2 T10601102
0138726404048652009032906147+45928-089718FM-15+0497KARV V0200205N003152200059N0160935N5-00605-01025999999ADDGF100991999999999999999999MA1100715094915REMMET08503/29/09 00:14:01 METAR KARV 290614Z 02006KT 10SM CLR M06/M10 A2974 RMK AO2 T10601102
0138726404048652009032906147+45928-089718FM-15+0497KARV V0200205N003152200059N0160935N5-00605-01025999999ADDGF100991999999999999999999MA1100715094915REMMET08503/29/09 00:14:01 METAR KARV 290614Z 02006KT 10SM CLR M06/M10 A2974 RMK AO2 T10601102
0138726404048652009032906147+45928-089718FM-15+0497KARV V0200205N003152200059N0160935N5-00605-01025999999ADDGF100991999999999999999999MA1100715094915REMMET08503/29/09 00:14:01 METAR KARV 290614Z 02006KT 10SM CLR M06/M10 A2974 RMK AO2 T10601102
0138726404048652009032906147+45928-089718FM-15+0497KARV V0200205N003152200059N0160935N5-00605-01025999999ADDGF100991999999999999999999MA1100715094915REMMET08503/29/09 00:14:01 METAR KARV 290614Z 02006KT 10SM CLR M06/M10 A2974 RMK AO2 T10601102
0138726404048652009032906147+45928-089718FM-15+0497KARV V0200205N003152200059N0160935N5-00605-01025999999ADDGF100991999999999999999999MA1100715094915REMMET08503/29/09 00:14:01 METAR KARV 290614Z 02006KT 10SM CLR M06/M10 A2974 RMK AO2 T10601102
0138726404048652009032906147+45928-089718FM-15+0497KARV V0200205N003152200059N0160935N5-00605-01025999999ADDGF100991999999999999999999MA1100715094915REMMET08503/29/09 00:14:01 METAR KARV 290614Z 02006KT 10SM CLR M06/M10 A2974 RMK AO2 T10601102
0138726404048652009032906147+45928-089718FM-15+0497KARV V0200205N003152200059N0160935N5-00605-01025999999ADDGF100991999999999999999999MA1100715094915REMMET08503/29/09 00:14:01 METAR KARV 290614Z 02006KT 10SM CLR M06/M10 A2974 RMK AO2 T10601102
0138726404048652009032906147+45928-089718FM-15+0497KARV V0200205N003152200059N0160935N5-00605-01025999999ADDGF100991999999999999999999MA1100715094915REMMET08503/29/09 00:14:01 METAR KARV 290614Z 02006KT 10SM CLR M06/M10 A2974 RMK AO2 T10601102
0138726404048652009032906147+45928-089718FM-15+0497KARV V0200205N003152200059N0160935N5-00605-01025999999ADDGF100991999999999999999999MA1100715094915REMMET08503/29/09 00:14:01 METAR KARV 290614Z 02006KT 10SM CLR M06/M10 A2974 RMK AO2 T10601102
0138726404048652009032906147+45928-089718FM-15+0497KARV V0200205N003152200059N0160935N5-00605-01025999999ADDGF100991999999999999999999MA1100715094915REMMET08503/29/09 00:14:01 METAR KARV 290614Z 02006KT 10SM CLR M06/M10 A2974 RMK AO2 T10601102
0138726404048652009032906147+45928-089718FM-15+0497KARV V0200205N003152200059N0160935N5-00605-01025999999ADDGF100991999999999999999999MA1100715094915REMMET08503/29/09 00:14:01 METAR KARV 290614Z 02006KT 10SM CLR M06/M10 A2974 RMK AO2 T10601102
0138726404048652009032906147+45928-089718FM-15+0497KARV V0200205N003152200059N0160935N5-00605-01025999999ADDGF100991999999999999999999MA1100715094915REMMET08503/29/09 00:14:01 METAR KARV 290614Z 02006KT 10SM CLR M06/M10 A2974 RMK AO2 T10601102
0138726404048652009032906147+45928-089718FM-15+0497KARV V0200205N003152200059N0160935N5-00605-01025999999ADDGF100991999999999999999999MA1100715094915REMMET08503/29/09 00:14:01 METAR KARV 290614Z 02006KT 10SM CLR M06/M10 A2974 RMK AO2 T10601102
0138726404048652009032906147+45928-089718FM-15+0497KARV V0200205N003152200059N0160935N5-00605-01025999999ADDGF100991999999999999999999MA1100715094915REMMET08503/29/09 00:14:01 METAR KARV 290614Z 02006KT 10SM CLR M06/M10 A2974 RMK AO2 T10601102
0138726404048652009032906147+45928-089718FM-15+0497KARV V0200205N003152200059N0160935N5-00605-01025999999ADDGF100991999999999999999999MA1100715094915REMMET08503/29/09 00:14:01 METAR KARV 290614Z 02006KT 10SM CLR M06/M10 A2974 RMK AO2 T10601102
0138726404048652009032906147+45928-089718FM-15+0497KARV V0200205N003152200059N0160935N5-00605-01025999999ADDGF100991999999999999999999MA1100715094915REMMET08503/29/09 00:14:01 METAR KARV 290614Z 02006KT 10SM CLR M06/M10 A2974 RMK AO2 T10601102
0138726404048652009032906147+45928-089718FM-15+0497KARV V0200205N003152200059N0160935N5-00605-01025999999ADDGF100991999999999999999999MA1100715094915REMMET08503/29/09 00:14:01 METAR KARV 290614Z 02006KT 10SM CLR M06/M10 A2974 RMK AO2 T10601102
0138726404048652009032906147+45928-089718FM-15+0497KARV V0200205N003152200059N0160935N5-00605-01025999999ADDGF100991999999999999999999MA1100715094915REMMET08503/29/09 00:14:01 METAR KARV 290614Z 02006KT 10SM CLR M06/M10 A2974 RMK AO2 T10601102
0138726404048652009032906147+45928-089718FM-15+0497KARV V0200205N003152200059N0160935N5-00605-01025999999ADDGF100991999999999999999999MA1100715094915REMMET08503/29/09 00:14:01 METAR KARV 290614Z 02006KT 10SM CLR M06/M10 A2974 RMK AO2 T10601102
0138726404048652009032906147+45928-089718FM-15+0497KARV V0200205N003152200059N0160935N5-00605-01025999999ADDGF100991999999999999999999MA1100715094915REMMET08503/29/09 00:14:01 METAR KARV 290614Z 02006KT 10SM CLR M06/M10 A2974 RMK AO2 T10601102
0138726404048652009032906147+45928-089718FM-15+0497KARV V0200205N003152200059N0160935N5-00605-01025999999ADDGF100991999999999999999999MA1100715094915REMMET08503/29/09 00:14:01 METAR KARV 290614Z 02006KT 10SM CLR M06/M10 A2974 RMK AO2 T10601102
0138726404048652009032906147+45928-089718FM-15+0497KARV V0200205N003152200059N0160935N5-00605-01025999999ADDGF100991999999999999999999MA1100715094915REMMET08503/29/09 00:14:01 METAR KARV 290614Z 02006KT 10SM CLR M06/M10 A2974 RMK AO2 T10601102
0138726404048652009032906147+45928-089718FM-15+0497KARV V0200205N003152200059N0160935N5-00605-01025999999ADDGF100991999999999999999999MA1100715094915REMMET08503/29/09 00:14:01 METAR KARV 290614Z 02006KT 10SM CLR M06/M10 A2974 RMK AO2 T10601102
0138726404048652009032906147+45928-089718FM-15+0497KARV V0200205N003152200059N0160935N5-00605-01025999999ADDGF100991999999999999999999MA1100715094915REMMET08503/29/09 00:14:01 METAR KARV 290614Z 02006KT 10SM CLR M06/M10 A2974 RMK AO2 T10601102
0138726404048652009032906147+45928-089718FM-15+0497KARV V0200205N003152200059N0160935N5-00605-01025999999ADDGF100991999999999999999999MA1100715094915REMMET08503/29/09 00:14:01 METAR KARV 290614Z 02006KT 10SM CLR M06/M10 A2974 RMK AO2 T10601102
0138726404048652009032906147+45928-089718FM-15+0497KARV V0200205N003152200059N0160935N5-00605-01025999999ADDGF100991999999999999999999MA1100715094915REMMET08503/29/09 00:14:01 METAR KARV 290614Z 02006KT 10SM CLR M06/M10 A2974 RMK AO2 T10601102
0138726404048652009032906147+45928-089718FM-15+0497KARV V0200205N003152200059N0160935N5-00605-01025999999ADDGF100991999999999999999999MA1100715094915REMMET08503/29/09 00:14:01 METAR KARV 290614Z 02006KT 10SM CLR M06/M10 A2974 RMK AO2 T10601102
0138726404048652009032906147+45928-089718FM-15+0497KARV V0200205N003152200059N0160935N5-00605-01025999999ADDGF100991999999999999999999MA1100715094915REMMET08503/29/09 00:14:01 METAR KARV 290614Z 02006KT 10SM CLR M06/M10 A2974 RMK AO2 T10601102
0138726404048652009032906147+45928-089718FM-15+0497KARV V0200205N003152200059N0160935N5-00605-01025999999ADDGF100991999999999999999999MA1100715094915REMMET08503/29/09 00:14:01 METAR KARV 290614Z 02006KT 10SM CLR M06/M10 A2974 RMK AO2 T10601102
0138726404048652009032906147+45928-089718FM-15+0497KARV V0200205N003152200059N0160935N5-00605-01025999999ADDGF100991999999999999999999MA1100715094915REMMET08503/29/09 00:14:01 METAR KARV 290614Z 02006KT 10SM CLR M06/M10 A2974 RMK AO2 T10601102
0138726404048652009032906147+45928-089718FM-15+0497KARV V0200205N003152200059N0160935N5-00605-01025999999ADDGF100991999999999999999999MA1100715094915REMMET08503/29/09 00:14:01 METAR KARV 290614Z 02006KT 10SM CLR M06/M10 A2974 RMK AO2 T10601102
0138726404048652009032906147+45928-089718FM-15+0497KARV V0200205N003152200059N0160935N5-00605-01025999999ADDGF100991999999999999999999MA1100715094915REMMET08503/29/09 00:14:01 METAR KARV 290614Z 02006KT 10SM CLR M06/M10 A2974 RMK AO2 T10601102
0138726404048652009032906147+45928-089718FM-15+0497KARV V0200205N003152200059N0160935N5-00605-01025999999ADDGF100991999999999999999999MA1100715094915REMMET08503/29/09 00:14:01 METAR KARV 290614Z 02006KT 10SM CLR M06/M10 A2974 RMK AO2 T10601102
0138726404048652009032906147+45928-089718FM-15+0497KARV V0200205N003152200059N0160935N5-00605-01025999999ADDGF100991999999999999999999MA1100715094915REMMET08503/29/09 00:14:01 METAR KARV 290614Z 02006KT 10SM CLR M06/M10 A2974 RMK AO2 T10601102
0138726404048652009032906147+45928-089718FM-15+0497KARV V0200205N003152200059N0160935N5-00605-01025999999ADDGF100991999999999999999999MA1100715094915REMMET08503/29/09 00:14:01 METAR KARV 290614Z 02006KT 10SM CLR M06/M10 A2974 RMK AO2 T10601102
0138726404048652009032906147+45928-089718FM-15+0497KARV V0200205N003152200059N0160935N5-00605-01025999999ADDGF100991999999999999999999MA1100715094915REMMET08503/29/09 00:14:01 METAR KARV 290614Z 02006KT 10SM CLR M06/M10 A2974 RMK AO2 T10601102
0138726404048652009032906147+45928-089718FM-15+0497KARV V0200205N003152200059N0160935N5-00605-01025999999ADDGF100991999999999999999999MA1100715094915REMMET08503/29/09 00:14:01 METAR KARV 290614Z 02006KT 10SM CLR M06/M10 A2974 RMK AO2 T10601102
0138726404048652009032906147+45928-089718FM-15+0497KARV V0200205N003152200059N0160935N5-00605-01025999999ADDGF100991999999999999999999MA1100715094915REMMET08503/29/09 00:14:01 METAR KARV 290614Z 02006KT 10SM CLR M06/M10 A2974 RMK AO2 T10601102
0138726404048652009032906147+45928-089718FM-15+0497KARV V0200205N003152200059N0160935N5-00605-01025999999ADDGF100991999999999999999999MA1100715094915REMMET08503/29/09 00:14:01 METAR KARV 290614Z 02006KT 10SM CLR M06/M10 A2974 RMK AO2 T10601102
0138726404048652009032906147+45928-089718FM-15+0497KARV V0200205N003152200059N0160935N5-00605-01025999999ADDGF100991999999999999999999MA1100715094915REMMET08503/29/09 00:14:01 METAR KARV 290614Z 02006KT 10SM CLR M06/M10 A2974 RMK AO2 T10601102
0138726404048652009032906147+45928-089718FM-15+0497KARV V0200205N003152200059N0160935N5-00605-01025999999ADDGF100991999999999999999999MA1100715094915REMMET08503/29/09 00:14:01 METAR KARV 290614Z 02006KT 10SM CLR M06/M10 A2974 RMK AO2 T10601102
0138726404048652009032906147+45928-089718FM-15+0497KARV V0200205N003152200059N0160935N5-00605-01025999999ADDGF100991999999999999999999MA1100715094915REMMET08503/29/09 00:14:01 METAR KARV 290614Z 02006KT 10SM CLR M06/M10 A2974 RMK AO2 T10601102
0138726404048652009032906147+45928-089718FM-15+0497KARV V0200205N003152200059N0160935N5-00605-01025999999ADDGF100991999999999999999999MA1100715094915REMMET08503/29/09 00:14:01 METAR KARV 290614Z 02006KT 10SM CLR M06/M10 A2974 RMK AO2 T10601102
0138726404048652009032906147+45928-089718FM-15+0497KARV V0200205N003152200059N0160935N5-00605-01025999999ADDGF100991999999999999999999MA1100715094915REMMET08503/29/09 00:14:01 METAR KARV 290614Z 02006KT 10SM CLR M06/M10 A2974 RMK AO2 T10601102
0138726404048652009032906147+45928-089718FM-15+0497KARV V0200205N003152200059N0160935N5-00605-01025999999ADDGF100991999999999999999999MA1100715094915REMMET08503/29/09 00:14:01 METAR KARV 290614Z 02006KT 10SM CLR M06/M10 A2974 RMK AO2 T10601102
0138726404048652009032906147+45928-089718FM-15+0497KARV V0200205N003152200059N0160935N5-00605-01025999999ADDGF100991999999999999999999MA1100715094915REMMET08503/29/09 00:14:01 METAR KARV 290614Z 02006KT 10SM CLR M06/M10 A2974 RMK AO2 T10601102
0138726404048652009032906147+45928-089718FM-15+0497KARV V0200205N003152200059N0160935N5-00605-01025999999ADDGF100991999999999999999999MA1100715094915REMMET08503/29/09 00:14:01 METAR KARV 290614Z 02006KT 10SM CLR M06/M10 A2974 RMK AO2 T10601102
0138726404048652009032906147+45928-089718FM-15+0497KARV V0200205N003152200059N0160935N5-00605-01025999999ADDGF100991999999999999999999MA1100715094915REMMET08503/29/09 00:14:01 METAR KARV 290614Z 02006KT 10SM CLR M06/M10 A2974 RMK AO2 T10601102
0138726404048652009032906147+45928-089718FM-15+0497KARV V0200205N003152200059N0160935N5-00605-01025999999ADDGF100991999999999999999999MA1100715094915REMMET08503/29/09 00:14:01 METAR KARV 290614Z 02006KT 10SM CLR M06/M10 A2974 RMK AO2 T10601102
0138726404048652009032906147+45928-089718FM-15+0497KARV V0200205N003152200059N0160935N5-00605-01025999999ADDGF100991999999999999999999MA1100715094915REMMET08503/29/09 00:14:01 METAR KARV 290614Z 02006KT 10SM CLR M06/M10 A2974 RMK AO2 T10601102
0138726404048652009032906147+45928-089718FM-15+0497KARV V0200205N003152200059N0160935N5-00605-01025999999ADDGF100991999999999999999999MA1100715094915REMMET08503/29/09 00:14:01 METAR KARV 290614Z 02006KT 10SM CLR M06/M10 A2974 RMK AO2 T10601102
0138726404048652009032906147+45928-089718FM-15+0497KARV V0200205N003152200059N0160935N5-00605-01025999999ADDGF100991999999999999999999MA1100715094915REMMET08503/29/09 00:14:01 METAR KARV 290614Z 02006KT 10SM CLR M06/M10 A2974 RMK AO2 T10601102
0138726404048652009032906147+45928-089718FM-15+0497KARV V0200205N003152200059N0160935N5-00605-01025999999ADDGF100991999999999999999999MA1100715094915REMMET08503/29/09 00:14:01 METAR KARV 290614Z 02006KT 10SM CLR M06/M10 A2974 RMK AO2 T10601102
0138726404048652009032906147+45928-089718FM-15+0497KARV V0200205N003152200059N0160935N5-00605-01025999999ADDGF100991999999999999999999MA1100715094915REMMET08503/29/09 00:14:01 METAR KARV 290614Z 02006KT 10SM CLR M06/M10 A2974 RMK AO2 T10601102
0138726404048652009032906147+45928-089718FM-15+0497KARV V0200205N003152200059N0160935N5-00605-01025999999ADDGF100991999999999999999999MA1100715094915REMMET08503/29/09 00:14:01 METAR KARV 290614Z 02006KT 10SM CLR M06/M10 A2974 RMK AO2 T10601102
0138726404048652009032906147+45928-089718FM-15+0497KARV V0200205N003152200059N0160935N5-00605-01025999999ADDGF100991999999999999999999MA1100715094915REMMET08503/29/09 00:14:01 METAR KARV 290614Z 02006KT 10SM CLR M06/M10 A2974 RMK AO2 T10601102
0138726404048652009032906147+45928-089718FM-15+0497KARV V0200205N003152200059N0160935N5-00605-01025999999ADDGF100991999999999999999999MA1100715094915REMMET08503/29/09 00:14:01 METAR KARV 290614Z 02006KT 10SM CLR M06/M10 A2974 RMK AO2 T10601102
0138726404048652009032906147+45928-089718FM-15+0497KARV V0200205N003152200059N0160935N5-00605-01025999999ADDGF100991999999999999999999MA1100715094915REMMET08503/29/09 00:14:01 METAR KARV 290614Z 02006KT 10SM CLR M06/M10 A2974 RMK AO2 T10601102
0138726404048652009032906147+45928-089718FM-15+0497KARV V0200205N003152200059N0160935N5-00605-01025999999ADDGF100991999999999999999999MA1100715094915REMMET08503/29/09 00:14:01 METAR KARV 290614Z 02006KT 10SM CLR M06/M10 A2974 RMK AO2 T10601102
0138726404048652009032906147+45928-089718FM-15+0497KARV V0200205N003152200059N0160935N5-00605-01025999999ADDGF100991999999999999999999MA1100715094915REMMET08503/29/09 00:14:01 METAR KARV 290614Z 02006KT 10SM CLR M06/M10 A2974 RMK AO2 T10601102
0138726404048652009032906147+45928-089718FM-15+0497KARV V0200205N003152200059N0160935N5-00605-01025999999ADDGF100991999999999999999999MA1100715094915REMMET08503/29/09 00:14:01 METAR KARV 290614Z 02006KT 10SM CLR M06/M10 A2974 RMK AO2 T10601102
0138726404048652009032906147+45928-089718FM-15+0497KARV V0200205N003152200059N0160935N5-00605-01025999999ADDGF100991999999999999999999MA1100715094915REMMET08503/29/09 00:14:01 METAR KARV 290614Z 02006KT 10SM CLR M06/M10 A2974 RMK AO2 T10601102
0138726404048652009032906147+45928-089718FM-15+0497KARV V0200205N003152200059N0160935N5-00605-01025999999ADDGF100991999999999999999999MA1100715094915REMMET08503/29/09 00:14:01 METAR KARV 290614Z 02006KT 10SM CLR M06/M10 A2974 RMK AO2 T10601102
0138726404048652009032906147+45928-089718FM-15+0497KARV V0200205N003152200059N0160935N5-00605-01025999999ADDGF100991999999999999999999MA1100715094915REMMET08503/29/09 00:14:01 METAR KARV 290614Z 02006KT 10SM CLR M06/M10 A2974 RMK AO2 T10601102
0138726404048652009032906147+45928-089718FM-15+0497KARV V0200205N003152200059N0160935N5-00605-01025999999ADDGF100991999999999999999999MA1100715094915REMMET08503/29/09 00:14:01 METAR KARV 290614Z 02006KT 10SM CLR M06/M10 A2974 RMK AO2 T10601102
0138726404048652009032906147+45928-089718FM-15+0497KARV V0200205N003152200059N0160935N5-00605-01025999999ADDGF100991999999999999999999MA1100715094915REMMET08503/29/09 00:14:01 METAR KARV 290614Z 02006KT 10SM CLR M06/M10 A2974 RMK AO2 T10601102
0138726404048652009032906147+45928-089718FM-15+0497KARV V0200205N003152200059N0160935N5-00605-01025999999ADDGF100991999999999999999999MA1100715094915REMMET08503/29/09 00:14:01 METAR KARV 290614Z 02006KT 10SM CLR M06/M10 A2974 RMK AO2 T10601102
0138726404048652009032906147+45928-089718FM-15+0497KARV V0200205N003152200059N0160935N5-00605-01025999999ADDGF100991999999999999999999MA1100715094915REMMET08503/29/09 00:14:01 METAR KARV 290614Z 02006KT 10SM CLR M06/M10 A2974 RMK AO2 T10601102
0138726404048652009032906147+45928-089718FM-15+0497KARV V0200205N003152200059N0160935N5-00605-01025999999ADDGF100991999999999999999999MA1100715094915REMMET08503/29/09 00:14:01 METAR KARV 290614Z 02006KT 10SM CLR M06/M10 A2974 RMK AO2 T10601102
0138726404048652009032906147+45928-089718FM-15+0497KARV V0200205N003152200059N0160935N5-00605-01025999999ADDGF100991999999999999999999MA1100715094915REMMET08503/29/09 00:14:01 METAR KARV 290614Z 02006KT 10SM CLR M06/M10 A2974 RMK AO2 T10601102
0138726404048652009032906147+45928-089718FM-15+0497KARV V0200205N003152200059N0160935N5-00605-01025999999ADDGF100991999999999999999999MA1100715094915REMMET08503/29/09 00:14:01 METAR KARV 290614Z 02006KT 10SM CLR M06/M10 A2974 RMK AO2 T10601102
0138726404048652009032906147+45928-089718FM-15+0497KARV V0200205N003152200059N0160935N5-00605-01025999999ADDGF100991999999999999999999MA1100715094915REMMET08503/29/09 00:14:01 METAR KARV 290614Z 02006KT 10SM CLR M06/M10 A2974 RMK AO2 T10601102
0138726404048652009032906147+45928-089718FM-15+0497KARV V0200205N003152200059N0160935N5-00605-01025999999ADDGF100991999999999999999999MA1100715094915REMMET08503/29/09 00:14:01 METAR KARV 290614Z 02006KT 10SM CLR M06/M10 A2974 RMK AO2 T10601102
0138726404048652009032906147+45928-089718FM-15+0497KARV V0200205N003152200059N0160935N5-00605-01025999999ADDGF100991999999999999999999MA1100715094915REMMET08503/29/09 00:14:01 METAR KARV 290614Z 02006KT 10SM CLR M06/M10 A2974 RMK AO2 T10601102
0138726404048652009032906147+45928-089718FM-15+0497KARV V0200205N003152200059N0160935N5-00605-01025999999ADDGF100991999999999999999999MA1100715094915REMMET08503/29/09 00:14:01 METAR KARV 290614Z 02006KT 10SM CLR M06/M10 A2974 RMK AO2 T10601102
0138726404048652009032906147+45928-089718FM-15+0497KARV V0200205N003152200059N0160935N5-00605-01025999999ADDGF100991999999999999999999MA1100715094915REMMET08503/29/09 00:14:01 METAR KARV 290614Z 02006KT 10SM CLR M06/M10 A2974 RMK AO2 T10601102
0138726404048652009032906147+45928-089718FM-15+0497KARV V0200205N003152200059N0160935N5-00605-01025999999ADDGF100991999999999999999999MA1100715094915REMMET08503/29/09 00:14:01 METAR KARV 290614Z 02006KT 10SM CLR M06/M10 A2974 RMK AO2 T10601102
0138726404048652009032906147+45928-089718FM-15+0497KARV V0200205N003152200059N0160935N5-00605-01025999999ADDGF100991999999999999999999MA1100715094915REMMET08503/29/09 00:14:01 METAR KARV 290614Z 02006KT 10SM CLR M06/M10 A2974 RMK AO2 T10601102
0138726404048652009032906147+45928-089718FM-15+0497KARV V0200205N003152200059N0160935N5-00605-01025999999ADDGF100991999999999999999999MA1100715094915REMMET08503/29/09 00:14:01 METAR KARV 290614Z 02006KT 10SM CLR M06/M10 A2974 RMK AO2 T10601102
0138726404048652009032906147+45928-089718FM-15+0497KARV V0200205N003152200059N0160935N5-00605-01025999999ADDGF100991999999999999999999MA1100715094915REMMET08503/29/09 00:14:01 METAR KARV 290614Z 02006KT 10SM CLR M06/M10 A2974 RMK AO2 T10601102
0138726404048652009032906147+45928-089718FM-15+0497KARV V0200205N003152200059N0160935N5-00605-01025999999ADDGF100991999999999999999999MA1100715094915REMMET08503/29/09 00:14:01 METAR KARV 290614Z 02006KT 10SM CLR M06/M10 A2974 RMK AO2 T10601102
0138726404048652009032906147+45928-089718FM-15+0497KARV V0200205N003152200059N0160935N5-00605-01025999999ADDGF100991999999999999999999MA1100715094915REMMET08503/29/09 00:14:01 METAR KARV 290614Z 02006KT 10SM CLR M06/M10 A2974 RMK AO2 T10601102
