0183994160999992010120702004+34617-076517FM-12+0005CLKN7V0202901N010319999999N9999999N1+00251-00771101201ADDMD1110081+9999OA139901291REMSYN146CMAN  07024 CLKN7 46/// /2920 10025 21077 40120 51008 90200 333 91225 555 22007 30106 436011 60159 356006 358005 354006 358006 3520 348019 347018;
0183994160999992010120702004+34617-076517FM-12+0005CLKN7V0202901N010319999999N9999999N1+00251-00771101201ADDMD1110081+9999OA139901291REMSYN146CMAN  07024 CLKN7 46/// /2920 10025 21077 40120 51008 90200 333 91225 555 22007 30106 436011 60159 356006 358005 354006 358006 3520 348019 347018;
0183994160999992010120702004+34617-076517FM-12+0005CLKN7V0202901N010319999999N9999999N1+00251-00771101201ADDMD1110081+9999OA139901291REMSYN146CMAN  07024 CLKN7 46/// /2920 10025 21077 40120 51008 90200 333 91225 555 22007 30106 436011 60159 356006 358005 354006 358006 3520 348019 347018;
0183994160999992010120702004+34617-076517FM-12+0005CLKN7V0202901N010319999999N9999999N1+00251-00771101201ADDMD1110081+9999OA139901291REMSYN146CMAN  07024 CLKN7 46/// /2920 10025 21077 40120 51008 90200 333 91225 555 22007 30106 436011 60159 356006 358005 354006 358006 3520 348019 347018;
0183994160999992010120702004+34617-076517FM-12+0005CLKN7V0202901N010319999999N9999999N1+00251-00771101201ADDMD1110081+9999OA139901291REMSYN146CMAN  07024 CLKN7 46/// /2920 10025 21077 40120 51008 90200 333 91225 555 22007 30106 436011 60159 356006 358005 354006 358006 3520 348019 347018;
0183994160999992010120702004+34617-076517FM-12+0005CLKN7V0202901N010319999999N9999999N1+00251-00771101201ADDMD1110081+9999OA139901291REMSYN146CMAN  07024 CLKN7 46/// /2920 10025 21077 40120 51008 90200 333 91225 555 22007 30106 436011 60159 356006 358005 354006 358006 3520 348019 347018;
0183994160999992010120702004+34617-076517FM-12+0005CLKN7V0202901N010319999999N9999999N1+00251-00771101201ADDMD1110081+9999OA139901291REMSYN146CMAN  07024 CLKN7 46/// /2920 10025 21077 40120 51008 90200 333 91225 555 22007 30106 436011 60159 356006 358005 354006 358006 3520 348019 347018;
0183994160999992010120702004+34617-076517FM-12+0005CLKN7V0202901N010319999999N9999999N1+00251-00771101201ADDMD1110081+9999OA139901291REMSYN146CMAN  07024 CLKN7 46/// /2920 10025 21077 40120 51008 90200 333 91225 555 22007 30106 436011 60159 356006 358005 354006 358006 3520 348019 347018;
0183994160999992010120702004+34617-076517FM-12+0005CLKN7V0202901N010319999999N9999999N1+00251-00771101201ADDMD1110081+9999OA139901291REMSYN146CMAN  07024 CLKN7 46/// /2920 10025 21077 40120 51008 90200 333 91225 555 22007 30106 436011 60159 356006 358005 354006 358006 3520 348019 347018;
0183994160999992010120702004+34617-076517FM-12+0005CLKN7V0202901N010319999999N9999999N1+00251-00771101201ADDMD1110081+9999OA139901291REMSYN146CMAN  07024 CLKN7 46/// /2920 10025 21077 40120 51008 90200 333 91225 555 22007 30106 436011 60159 356006 358005 354006 358006 3520 348019 347018;
0183994160999992010120702004+34617-076517FM-12+0005CLKN7V0202901N010319999999N9999999N1+00251-00771101201ADDMD1110081+9999OA139901291REMSYN146CMAN  07024 CLKN7 46/// /2920 10025 21077 40120 51008 90200 333 91225 555 22007 30106 436011 60159 356006 358005 354006 358006 3520 348019 347018;
0183994160999992010120702004+34617-076517FM-12+0005CLKN7V0202901N010319999999N9999999N1+00251-00771101201ADDMD1110081+9999OA139901291REMSYN146CMAN  07024 CLKN7 46/// /2920 10025 21077 40120 51008 90200 333 91225 555 22007 30106 436011 60159 356006 358005 354006 358006 3520 348019 347018;
0183994160999992010120702004+34617-076517FM-12+0005CLKN7V0202901N010319999999N9999999N1+00251-00771101201ADDMD1110081+9999OA139901291REMSYN146CMAN  07024 CLKN7 46/// /2920 10025 21077 40120 51008 90200 333 91225 555 22007 30106 436011 60159 356006 358005 354006 358006 3520 348019 347018;
0183994160999992010120702004+34617-076517FM-12+0005CLKN7V0202901N010319999999N9999999N1+00251-00771101201ADDMD1110081+9999OA139901291REMSYN146CMAN  07024 CLKN7 46/// /2920 10025 21077 40120 51008 90200 333 91225 555 22007 30106 436011 60159 356006 358005 354006 358006 3520 348019 347018;
0183994160999992010120702004+34617-076517FM-12+0005CLKN7V0202901N010319999999N9999999N1+00251-00771101201ADDMD1110081+9999OA139901291REMSYN146CMAN  07024 CLKN7 46/// /2920 10025 21077 40120 51008 90200 333 91225 555 22007 30106 436011 60159 356006 358005 354006 358006 3520 348019 347018;
0183994160999992010120702004+34617-076517FM-12+0005CLKN7V0202901N010319999999N9999999N1+00251-00771101201ADDMD1110081+9999OA139901291REMSYN146CMAN  07024 CLKN7 46/// /2920 10025 21077 40120 51008 90200 333 91225 555 22007 30106 436011 60159 356006 358005 354006 358006 3520 348019 347018;
0183994160999992010120702004+34617-076517FM-12+0005CLKN7V0202901N010319999999N9999999N1+00251-00771101201ADDMD1110081+9999OA139901291REMSYN146CMAN  07024 CLKN7 46/// /2920 10025 21077 40120 51008 90200 333 91225 555 22007 30106 436011 60159 356006 358005 354006 358006 3520 348019 347018;
0183994160999992010120702004+34617-076517FM-12+0005CLKN7V0202901N010319999999N9999999N1+00251-00771101201ADDMD1110081+9999OA139901291REMSYN146CMAN  07024 CLKN7 46/// /2920 10025 21077 40120 51008 90200 333 91225 555 22007 30106 436011 60159 356006 358005 354006 358006 3520 348019 347018;
0183994160999992010120702004+34617-076517FM-12+0005CLKN7V0202901N010319999999N9999999N1+00251-00771101201ADDMD1110081+9999OA139901291REMSYN146CMAN  07024 CLKN7 46/// /2920 10025 21077 40120 51008 90200 333 91225 555 22007 30106 436011 60159 356006 358005 354006 358006 3520 348019 347018;
0183994160999992010120702004+34617-076517FM-12+0005CLKN7V0202901N010319999999N9999999N1+00251-00771101201ADDMD1110081+9999OA139901291REMSYN146CMAN  07024 CLKN7 46/// /2920 10025 21077 40120 51008 90200 333 91225 555 22007 30106 436011 60159 356006 358005 354006 358006 3520 348019 347018;
0183994160999992010120702004+34617-076517FM-12+0005CLKN7V0202901N010319999999N9999999N1+00251-00771101201ADDMD1110081+9999OA139901291REMSYN146CMAN  07024 CLKN7 46/// /2920 10025 21077 40120 51008 90200 333 91225 555 22007 30106 436011 60159 356006 358005 354006 358006 3520 348019 347018;
0183994160999992010120702004+34617-076517FM-12+0005CLKN7V0202901N010319999999N9999999N1+00251-00771101201ADDMD1110081+9999OA139901291REMSYN146CMAN  07024 CLKN7 46/// /2920 10025 21077 40120 51008 90200 333 91225 555 22007 30106 436011 60159 356006 358005 354006 358006 3520 348019 347018;
0183994160999992010120702004+34617-076517FM-12+0005CLKN7V0202901N010319999999N9999999N1+00251-00771101201ADDMD1110081+9999OA139901291REMSYN146CMAN  07024 CLKN7 46/// /2920 10025 21077 40120 51008 90200 333 91225 555 22007 30106 436011 60159 356006 358005 354006 358006 3520 348019 347018;
0183994160999992010120702004+34617-076517FM-12+0005CLKN7V0202901N010319999999N9999999N1+00251-00771101201ADDMD1110081+9999OA139901291REMSYN146CMAN  07024 CLKN7 46/// /2920 10025 21077 40120 51008 90200 333 91225 555 22007 30106 436011 60159 356006 358005 354006 358006 3520 348019 347018;
0183994160999992010120702004+34617-076517FM-12+0005CLKN7V0202901N010319999999N9999999N1+00251-00771101201ADDMD1110081+9999OA139901291REMSYN146CMAN  07024 CLKN7 46/// /2920 10025 21077 40120 51008 90200 333 91225 555 22007 30106 436011 60159 356006 358005 354006 358006 3520 348019 347018;
0183994160999992010120702004+34617-076517FM-12+0005CLKN7V0202901N010319999999N9999999N1+00251-00771101201ADDMD1110081+9999OA139901291REMSYN146CMAN  07024 CLKN7 46/// /2920 10025 21077 40120 51008 90200 333 91225 555 22007 30106 436011 60159 356006 358005 354006 358006 3520 348019 347018;
0183994160999992010120702004+34617-076517FM-12+0005CLKN7V0202901N010319999999N9999999N1+00251-00771101201ADDMD1110081+9999OA139901291REMSYN146CMAN  07024 CLKN7 46/// /2920 10025 21077 40120 51008 90200 333 91225 555 22007 30106 436011 60159 356006 358005 354006 358006 3520 348019 347018;
0183994160999992010120702004+34617-076517FM-12+0005CLKN7V0202901N010319999999N9999999N1+00251-00771101201ADDMD1110081+9999OA139901291REMSYN146CMAN  07024 CLKN7 46/// /2920 10025 21077 40120 51008 90200 333 91225 555 22007 30106 436011 60159 356006 358005 354006 358006 3520 348019 347018;
0183994160999992010120702004+34617-076517FM-12+0005CLKN7V0202901N010319999999N9999999N1+00251-00771101201ADDMD1110081+9999OA139901291REMSYN146CMAN  07024 CLKN7 46/// /2920 10025 21077 40120 51008 90200 333 91225 555 22007 30106 436011 60159 356006 358005 354006 358006 3520 348019 347018;
0183994160999992010120702004+34617-076517FM-12+0005CLKN7V0202901N010319999999N9999999N1+00251-00771101201ADDMD1110081+9999OA139901291REMSYN146CMAN  07024 CLKN7 46/// /2920 10025 21077 40120 51008 90200 333 91225 555 22007 30106 436011 60159 356006 358005 354006 358006 3520 348019 347018;
0183994160999992010120702004+34617-076517FM-12+0005CLKN7V0202901N010319999999N9999999N1+00251-00771101201ADDMD1110081+9999OA139901291REMSYN146CMAN  07024 CLKN7 46/// /2920 10025 21077 40120 51008 90200 333 91225 555 22007 30106 436011 60159 356006 358005 354006 358006 3520 348019 347018;
0183994160999992010120702004+34617-076517FM-12+0005CLKN7V0202901N010319999999N9999999N1+00251-00771101201ADDMD1110081+9999OA139901291REMSYN146CMAN  07024 CLKN7 46/// /2920 10025 21077 40120 51008 90200 333 91225 555 22007 30106 436011 60159 356006 358005 354006 358006 3520 348019 347018;
0183994160999992010120702004+34617-076517FM-12+0005CLKN7V0202901N010319999999N9999999N1+00251-00771101201ADDMD1110081+9999OA139901291REMSYN146CMAN  07024 CLKN7 46/// /2920 10025 21077 40120 51008 90200 333 91225 555 22007 30106 436011 60159 356006 358005 354006 358006 3520 348019 347018;
0183994160999992010120702004+34617-076517FM-12+0005CLKN7V0202901N010319999999N9999999N1+00251-00771101201ADDMD1110081+9999OA139901291REMSYN146CMAN  07024 CLKN7 46/// /2920 10025 21077 40120 51008 90200 333 91225 555 22007 30106 436011 60159 356006 358005 354006 358006 3520 348019 347018;
0183994160999992010120702004+34617-076517FM-12+0005CLKN7V0202901N010319999999N9999999N1+00251-00771101201ADDMD1110081+9999OA139901291REMSYN146CMAN  07024 CLKN7 46/// /2920 10025 21077 40120 51008 90200 333 91225 555 22007 30106 436011 60159 356006 358005 354006 358006 3520 348019 347018;
0183994160999992010120702004+34617-076517FM-12+0005CLKN7V0202901N010319999999N9999999N1+00251-00771101201ADDMD1110081+9999OA139901291REMSYN146CMAN  07024 CLKN7 46/// /2920 10025 21077 40120 51008 90200 333 91225 555 22007 30106 436011 60159 356006 358005 354006 358006 3520 348019 347018;
0183994160999992010120702004+34617-076517FM-12+0005CLKN7V0202901N010319999999N9999999N1+00251-00771101201ADDMD1110081+9999OA139901291REMSYN146CMAN  07024 CLKN7 46/// /2920 10025 21077 40120 51008 90200 333 91225 555 22007 30106 436011 60159 356006 358005 354006 358006 3520 348019 347018;
0183994160999992010120702004+34617-076517FM-12+0005CLKN7V0202901N010319999999N9999999N1+00251-00771101201ADDMD1110081+9999OA139901291REMSYN146CMAN  07024 CLKN7 46/// /2920 10025 21077 40120 51008 90200 333 91225 555 22007 30106 436011 60159 356006 358005 354006 358006 3520 348019 347018;
0183994160999992010120702004+34617-076517FM-12+0005CLKN7V0202901N010319999999N9999999N1+00251-00771101201ADDMD1110081+9999OA139901291REMSYN146CMAN  07024 CLKN7 46/// /2920 10025 21077 40120 51008 90200 333 91225 555 22007 30106 436011 60159 356006 358005 354006 358006 3520 348019 347018;
0183994160999992010120702004+34617-076517FM-12+0005CLKN7V0202901N010319999999N9999999N1+00251-00771101201ADDMD1110081+9999OA139901291REMSYN146CMAN  07024 CLKN7 46/// /2920 10025 21077 40120 51008 90200 333 91225 555 22007 30106 436011 60159 356006 358005 354006 358006 3520 348019 347018;
0183994160999992010120702004+34617-076517FM-12+0005CLKN7V0202901N010319999999N9999999N1+00251-00771101201ADDMD1110081+9999OA139901291REMSYN146CMAN  07024 CLKN7 46/// /2920 10025 21077 40120 51008 90200 333 91225 555 22007 30106 436011 60159 356006 358005 354006 358006 3520 348019 347018;
0183994160999992010120702004+34617-076517FM-12+0005CLKN7V0202901N010319999999N9999999N1+00251-00771101201ADDMD1110081+9999OA139901291REMSYN146CMAN  07024 CLKN7 46/// /2920 10025 21077 40120 51008 90200 333 91225 555 22007 30106 436011 60159 356006 358005 354006 358006 3520 348019 347018;
0183994160999992010120702004+34617-076517FM-12+0005CLKN7V0202901N010319999999N9999999N1+00251-00771101201ADDMD1110081+9999OA139901291REMSYN146CMAN  07024 CLKN7 46/// /2920 10025 21077 40120 51008 90200 333 91225 555 22007 30106 436011 60159 356006 358005 354006 358006 3520 348019 347018;
0183994160999992010120702004+34617-076517FM-12+0005CLKN7V0202901N010319999999N9999999N1+00251-00771101201ADDMD1110081+9999OA139901291REMSYN146CMAN  07024 CLKN7 46/// /2920 10025 21077 40120 51008 90200 333 91225 555 22007 30106 436011 60159 356006 358005 354006 358006 3520 348019 347018;
0183994160999992010120702004+34617-076517FM-12+0005CLKN7V0202901N010319999999N9999999N1+00251-00771101201ADDMD1110081+9999OA139901291REMSYN146CMAN  07024 CLKN7 46/// /2920 10025 21077 40120 51008 90200 333 91225 555 22007 30106 436011 60159 356006 358005 354006 358006 3520 348019 347018;
0183994160999992010120702004+34617-076517FM-12+0005CLKN7V0202901N010319999999N9999999N1+00251-00771101201ADDMD1110081+9999OA139901291REMSYN146CMAN  07024 CLKN7 46/// /2920 10025 21077 40120 51008 90200 333 91225 555 22007 30106 436011 60159 356006 358005 354006 358006 3520 348019 347018;
0183994160999992010120702004+34617-076517FM-12+0005CLKN7V0202901N010319999999N9999999N1+00251-00771101201ADDMD1110081+9999OA139901291REMSYN146CMAN  07024 CLKN7 46/// /2920 10025 21077 40120 51008 90200 333 91225 555 22007 30106 436011 60159 356006 358005 354006 358006 3520 348019 347018;
0183994160999992010120702004+34617-076517FM-12+0005CLKN7V0202901N010319999999N9999999N1+00251-00771101201ADDMD1110081+9999OA139901291REMSYN146CMAN  07024 CLKN7 46/// /2920 10025 21077 40120 51008 90200 333 91225 555 22007 30106 436011 60159 356006 358005 354006 358006 3520 348019 347018;
0183994160999992010120702004+34617-076517FM-12+0005CLKN7V0202901N010319999999N9999999N1+00251-00771101201ADDMD1110081+9999OA139901291REMSYN146CMAN  07024 CLKN7 46/// /2920 10025 21077 40120 51008 90200 333 91225 555 22007 30106 436011 60159 356006 358005 354006 358006 3520 348019 347018;
0183994160999992010120702004+34617-076517FM-12+0005CLKN7V0202901N010319999999N9999999N1+00251-00771101201ADDMD1110081+9999OA139901291REMSYN146CMAN  07024 CLKN7 46/// /2920 10025 21077 40120 51008 90200 333 91225 555 22007 30106 436011 60159 356006 358005 354006 358006 3520 348019 347018;
0183994160999992010120702004+34617-076517FM-12+0005CLKN7V0202901N010319999999N9999999N1+00251-00771101201ADDMD1110081+9999OA139901291REMSYN146CMAN  07024 CLKN7 46/// /2920 10025 21077 40120 51008 90200 333 91225 555 22007 30106 436011 60159 356006 358005 354006 358006 3520 348019 347018;
0183994160999992010120702004+34617-076517FM-12+0005CLKN7V0202901N010319999999N9999999N1+00251-00771101201ADDMD1110081+9999OA139901291REMSYN146CMAN  07024 CLKN7 46/// /2920 10025 21077 40120 51008 90200 333 91225 555 22007 30106 436011 60159 356006 358005 354006 358006 3520 348019 347018;
0183994160999992010120702004+34617-076517FM-12+0005CLKN7V0202901N010319999999N9999999N1+00251-00771101201ADDMD1110081+9999OA139901291REMSYN146CMAN  07024 CLKN7 46/// /2920 10025 21077 40120 51008 90200 333 91225 555 22007 30106 436011 60159 356006 358005 354006 358006 3520 348019 347018;
0183994160999992010120702004+34617-076517FM-12+0005CLKN7V0202901N010319999999N9999999N1+00251-00771101201ADDMD1110081+9999OA139901291REMSYN146CMAN  07024 CLKN7 46/// /2920 10025 21077 40120 51008 90200 333 91225 555 22007 30106 436011 60159 356006 358005 354006 358006 3520 348019 347018;
0183994160999992010120702004+34617-076517FM-12+0005CLKN7V0202901N010319999999N9999999N1+00251-00771101201ADDMD1110081+9999OA139901291REMSYN146CMAN  07024 CLKN7 46/// /2920 10025 21077 40120 51008 90200 333 91225 555 22007 30106 436011 60159 356006 358005 354006 358006 3520 348019 347018;
0183994160999992010120702004+34617-076517FM-12+0005CLKN7V0202901N010319999999N9999999N1+00251-00771101201ADDMD1110081+9999OA139901291REMSYN146CMAN  07024 CLKN7 46/// /2920 10025 21077 40120 51008 90200 333 91225 555 22007 30106 436011 60159 356006 358005 354006 358006 3520 348019 347018;
0183994160999992010120702004+34617-076517FM-12+0005CLKN7V0202901N010319999999N9999999N1+00251-00771101201ADDMD1110081+9999OA139901291REMSYN146CMAN  07024 CLKN7 46/// /2920 10025 21077 40120 51008 90200 333 91225 555 22007 30106 436011 60159 356006 358005 354006 358006 3520 348019 347018;
0183994160999992010120702004+34617-076517FM-12+0005CLKN7V0202901N010319999999N9999999N1+00251-00771101201ADDMD1110081+9999OA139901291REMSYN146CMAN  07024 CLKN7 46/// /2920 10025 21077 40120 51008 90200 333 91225 555 22007 30106 436011 60159 356006 358005 354006 358006 3520 348019 347018;
0183994160999992010120702004+34617-076517FM-12+0005CLKN7V0202901N010319999999N9999999N1+00251-00771101201ADDMD1110081+9999OA139901291REMSYN146CMAN  07024 CLKN7 46/// /2920 10025 21077 40120 51008 90200 333 91225 555 22007 30106 436011 60159 356006 358005 354006 358006 3520 348019 347018;
0183994160999992010120702004+34617-076517FM-12+0005CLKN7V0202901N010319999999N9999999N1+00251-00771101201ADDMD1110081+9999OA139901291REMSYN146CMAN  07024 CLKN7 46/// /2920 10025 21077 40120 51008 90200 333 91225 555 22007 30106 436011 60159 356006 358005 354006 358006 3520 348019 347018;
0183994160999992010120702004+34617-076517FM-12+0005CLKN7V0202901N010319999999N9999999N1+00251-00771101201ADDMD1110081+9999OA139901291REMSYN146CMAN  07024 CLKN7 46/// /2920 10025 21077 40120 51008 90200 333 91225 555 22007 30106 436011 60159 356006 358005 354006 358006 3520 348019 347018;
0183994160999992010120702004+34617-076517FM-12+0005CLKN7V0202901N010319999999N9999999N1+00251-00771101201ADDMD1110081+9999OA139901291REMSYN146CMAN  07024 CLKN7 46/// /2920 10025 21077 40120 51008 90200 333 91225 555 22007 30106 436011 60159 356006 358005 354006 358006 3520 348019 347018;
0183994160999992010120702004+34617-076517FM-12+0005CLKN7V0202901N010319999999N9999999N1+00251-00771101201ADDMD1110081+9999OA139901291REMSYN146CMAN  07024 CLKN7 46/// /2920 10025 21077 40120 51008 90200 333 91225 555 22007 30106 436011 60159 356006 358005 354006 358006 3520 348019 347018;
0183994160999992010120702004+34617-076517FM-12+0005CLKN7V0202901N010319999999N9999999N1+00251-00771101201ADDMD1110081+9999OA139901291REMSYN146CMAN  07024 CLKN7 46/// /2920 10025 21077 40120 51008 90200 333 91225 555 22007 30106 436011 60159 356006 358005 354006 358006 3520 348019 347018;
0183994160999992010120702004+34617-076517FM-12+0005CLKN7V0202901N010319999999N9999999N1+00251-00771101201ADDMD1110081+9999OA139901291REMSYN146CMAN  07024 CLKN7 46/// /2920 10025 21077 40120 51008 90200 333 91225 555 22007 30106 436011 60159 356006 358005 354006 358006 3520 348019 347018;
0183994160999992010120702004+34617-076517FM-12+0005CLKN7V0202901N010319999999N9999999N1+00251-00771101201ADDMD1110081+9999OA139901291REMSYN146CMAN  07024 CLKN7 46/// /2920 10025 21077 40120 51008 90200 333 91225 555 22007 30106 436011 60159 356006 358005 354006 358006 3520 348019 347018;
0183994160999992010120702004+34617-076517FM-12+0005CLKN7V0202901N010319999999N9999999N1+00251-00771101201ADDMD1110081+9999OA139901291REMSYN146CMAN  07024 CLKN7 46/// /2920 10025 21077 40120 51008 90200 333 91225 555 22007 30106 436011 60159 356006 358005 354006 358006 3520 348019 347018;
0183994160999992010120702004+34617-076517FM-12+0005CLKN7V0202901N010319999999N9999999N1+00251-00771101201ADDMD1110081+9999OA139901291REMSYN146CMAN  07024 CLKN7 46/// /2920 10025 21077 40120 51008 90200 333 91225 555 22007 30106 436011 60159 356006 358005 354006 358006 3520 348019 347018;
0183994160999992010120702004+34617-076517FM-12+0005CLKN7V0202901N010319999999N9999999N1+00251-00771101201ADDMD1110081+9999OA139901291REMSYN146CMAN  07024 CLKN7 46/// /2920 10025 21077 40120 51008 90200 333 91225 555 22007 30106 436011 60159 356006 358005 354006 358006 3520 348019 347018;
0183994160999992010120702004+34617-076517FM-12+0005CLKN7V0202901N010319999999N9999999N1+00251-00771101201ADDMD1110081+9999OA139901291REMSYN146CMAN  07024 CLKN7 46/// /2920 10025 21077 40120 51008 90200 333 91225 555 22007 30106 436011 60159 356006 358005 354006 358006 3520 348019 347018;
0183994160999992010120702004+34617-076517FM-12+0005CLKN7V0202901N010319999999N9999999N1+00251-00771101201ADDMD1110081+9999OA139901291REMSYN146CMAN  07024 CLKN7 46/// /2920 10025 21077 40120 51008 90200 333 91225 555 22007 30106 436011 60159 356006 358005 354006 358006 3520 348019 347018;
0183994160999992010120702004+34617-076517FM-12+0005CLKN7V0202901N010319999999N9999999N1+00251-00771101201ADDMD1110081+9999OA139901291REMSYN146CMAN  07024 CLKN7 46/// /2920 10025 21077 40120 51008 90200 333 91225 555 22007 30106 436011 60159 356006 358005 354006 358006 3520 348019 347018;
0183994160999992010120702004+34617-076517FM-12+0005CLKN7V0202901N010319999999N9999999N1+00251-00771101201ADDMD1110081+9999OA139901291REMSYN146CMAN  07024 CLKN7 46/// /2920 10025 21077 40120 51008 90200 333 91225 555 22007 30106 436011 60159 356006 358005 354006 358006 3520 348019 347018;
0183994160999992010120702004+34617-076517FM-12+0005CLKN7V0202901N010319999999N9999999N1+00251-00771101201ADDMD1110081+9999OA139901291REMSYN146CMAN  07024 CLKN7 46/// /2920 10025 21077 40120 51008 90200 333 91225 555 22007 30106 436011 60159 356006 358005 354006 358006 3520 348019 347018;
0183994160999992010120702004+34617-076517FM-12+0005CLKN7V0202901N010319999999N9999999N1+00251-00771101201ADDMD1110081+9999OA139901291REMSYN146CMAN  07024 CLKN7 46/// /2920 10025 21077 40120 51008 90200 333 91225 555 22007 30106 436011 60159 356006 358005 354006 358006 3520 348019 347018;
0183994160999992010120702004+34617-076517FM-12+0005CLKN7V0202901N010319999999N9999999N1+00251-00771101201ADDMD1110081+9999OA139901291REMSYN146CMAN  07024 CLKN7 46/// /2920 10025 21077 40120 51008 90200 333 91225 555 22007 30106 436011 60159 356006 358005 354006 358006 3520 348019 347018;
0183994160999992010120702004+34617-076517FM-12+0005CLKN7V0202901N010319999999N9999999N1+00251-00771101201ADDMD1110081+9999OA139901291REMSYN146CMAN  07024 CLKN7 46/// /2920 10025 21077 40120 51008 90200 333 91225 555 22007 30106 436011 60159 356006 358005 354006 358006 3520 348019 347018;
0183994160999992010120702004+34617-076517FM-12+0005CLKN7V0202901N010319999999N9999999N1+00251-00771101201ADDMD1110081+9999OA139901291REMSYN146CMAN  07024 CLKN7 46/// /2920 10025 21077 40120 51008 90200 333 91225 555 22007 30106 436011 60159 356006 358005 354006 358006 3520 348019 347018;
0183994160999992010120702004+34617-076517FM-12+0005CLKN7V0202901N010319999999N9999999N1+00251-00771101201ADDMD1110081+9999OA139901291REMSYN146CMAN  07024 CLKN7 46/// /2920 10025 21077 40120 51008 90200 333 91225 555 22007 30106 436011 60159 356006 358005 354006 358006 3520 348019 347018;
0183994160999992010120702004+34617-076517FM-12+0005CLKN7V0202901N010319999999N9999999N1+00251-00771101201ADDMD1110081+9999OA139901291REMSYN146CMAN  07024 CLKN7 46/// /2920 10025 21077 40120 51008 90200 333 91225 555 22007 30106 436011 60159 356006 358005 354006 358006 3520 348019 347018;
0183994160999992010120702004+34617-076517FM-12+0005CLKN7V0202901N010319999999N9999999N1+00251-00771101201ADDMD1110081+9999OA139901291REMSYN146CMAN  07024 CLKN7 46/// /2920 10025 21077 40120 51008 90200 333 91225 555 22007 30106 436011 60159 356006 358005 354006 358006 3520 348019 347018;
0183994160999992010120702004+34617-076517FM-12+0005CLKN7V0202901N010319999999N9999999N1+00251-00771101201ADDMD1110081+9999OA139901291REMSYN146CMAN  07024 CLKN7 46/// /2920 10025 21077 40120 51008 90200 333 91225 555 22007 30106 436011 60159 356006 358005 354006 358006 3520 348019 347018;
0183994160999992010120702004+34617-076517FM-12+0005CLKN7V0202901N010319999999N9999999N1+00251-00771101201ADDMD1110081+9999OA139901291REMSYN146CMAN  07024 CLKN7 46/// /2920 10025 21077 40120 51008 90200 333 91225 555 22007 30106 436011 60159 356006 358005 354006 358006 3520 348019 347018;
0183994160999992010120702004+34617-076517FM-12+0005CLKN7V0202901N010319999999N9999999N1+00251-00771101201ADDMD1110081+9999OA139901291REMSYN146CMAN  07024 CLKN7 46/// /2920 10025 21077 40120 51008 90200 333 91225 555 22007 30106 436011 60159 356006 358005 354006 358006 3520 348019 347018;
0183994160999992010120702004+34617-076517FM-12+0005CLKN7V0202901N010319999999N9999999N1+00251-00771101201ADDMD1110081+9999OA139901291REMSYN146CMAN  07024 CLKN7 46/// /2920 10025 21077 40120 51008 90200 333 91225 555 22007 30106 436011 60159 356006 358005 354006 358006 3520 348019 347018;
0183994160999992010120702004+34617-076517FM-12+0005CLKN7V0202901N010319999999N9999999N1+00251-00771101201ADDMD1110081+9999OA139901291REMSYN146CMAN  07024 CLKN7 46/// /2920 10025 21077 40120 51008 90200 333 91225 555 22007 30106 436011 60159 356006 358005 354006 358006 3520 348019 347018;
0183994160999992010120702004+34617-076517FM-12+0005CLKN7V0202901N010319999999N9999999N1+00251-00771101201ADDMD1110081+9999OA139901291REMSYN146CMAN  07024 CLKN7 46/// /2920 10025 21077 40120 51008 90200 333 91225 555 22007 30106 436011 60159 356006 358005 354006 358006 3520 348019 347018;
0183994160999992010120702004+34617-076517FM-12+0005CLKN7V0202901N010319999999N9999999N1+00251-00771101201ADDMD1110081+9999OA139901291REMSYN146CMAN  07024 CLKN7 46/// /2920 10025 21077 40120 51008 90200 333 91225 555 22007 30106 436011 60159 356006 358005 354006 358006 3520 348019 347018;
0183994160999992010120702004+34617-076517FM-12+0005CLKN7V0202901N010319999999N9999999N1+00251-00771101201ADDMD1110081+9999OA139901291REMSYN146CMAN  07024 CLKN7 46/// /2920 10025 21077 40120 51008 90200 333 91225 555 22007 30106 436011 60159 356006 358005 354006 358006 3520 348019 347018;
0183994160999992010120702004+34617-076517FM-12+0005CLKN7V0202901N010319999999N9999999N1+00251-00771101201ADDMD1110081+9999OA139901291REMSYN146CMAN  07024 CLKN7 46/// /2920 10025 21077 40120 51008 90200 333 91225 555 22007 30106 436011 60159 356006 358005 354006 358006 3520 348019 347018;
0183994160999992010120702004+34617-076517FM-12+0005CLKN7V0202901N010319999999N9999999N1+00251-00771101201ADDMD1110081+9999OA139901291REMSYN146CMAN  07024 CLKN7 46/// /2920 10025 21077 40120 51008 90200 333 91225 555 22007 30106 436011 60159 356006 358005 354006 358006 3520 348019 347018;
0183994160999992010120702004+34617-076517FM-12+0005CLKN7V0202901N010319999999N9999999N1+00251-00771101201ADDMD1110081+9999OA139901291REMSYN146CMAN  07024 CLKN7 46/// /2920 10025 21077 40120 51008 90200 333 91225 555 22007 30106 436011 60159 356006 358005 354006 358006 3520 348019 347018;
0183994160999992010120702004+34617-076517FM-12+0005CLKN7V0202901N010319999999N9999999N1+00251-00771101201ADDMD1110081+9999OA139901291REMSYN146CMAN  07024 CLKN7 46/// /2920 10025 21077 40120 51008 90200 333 91225 555 22007 30106 436011 60159 356006 358005 354006 358006 3520 348019 347018;
0183994160999992010120702004+34617-076517FM-12+0005CLKN7V0202901N010319999999N9999999N1+00251-00771101201ADDMD1110081+9999OA139901291REMSYN146CMAN  07024 CLKN7 46/// /2920 10025 21077 40120 51008 90200 333 91225 555 22007 30106 436011 60159 356006 358005 354006 358006 3520 348019 347018;
0183994160999992010120702004+34617-076517FM-12+0005CLKN7V0202901N010319999999N9999999N1+00251-00771101201ADDMD1110081+9999OA139901291REMSYN146CMAN  07024 CLKN7 46/// /2920 10025 21077 40120 51008 90200 333 91225 555 22007 30106 436011 60159 356006 358005 354006 358006 3520 348019 347018;
0183994160999992010120702004+34617-076517FM-12+0005CLKN7V0202901N010319999999N9999999N1+00251-00771101201ADDMD1110081+9999OA139901291REMSYN146CMAN  07024 CLKN7 46/// /2920 10025 21077 40120 51008 90200 333 91225 555 22007 30106 436011 60159 356006 358005 354006 358006 3520 348019 347018;
0183994160999992010120702004+34617-076517FM-12+0005CLKN7V0202901N010319999999N9999999N1+00251-00771101201ADDMD1110081+9999OA139901291REMSYN146CMAN  07024 CLKN7 46/// /2920 10025 21077 40120 51008 90200 333 91225 555 22007 30106 436011 60159 356006 358005 354006 358006 3520 348019 347018;
0183994160999992010120702004+34617-076517FM-12+0005CLKN7V0202901N010319999999N9999999N1+00251-00771101201ADDMD1110081+9999OA139901291REMSYN146CMAN  07024 CLKN7 46/// /2920 10025 21077 40120 51008 90200 333 91225 555 22007 30106 436011 60159 356006 358005 354006 358006 3520 348019 347018;
0183994160999992010120702004+34617-076517FM-12+0005CLKN7V0202901N010319999999N9999999N1+00251-00771101201ADDMD1110081+9999OA139901291REMSYN146CMAN  07024 CLKN7 46/// /2920 10025 21077 40120 51008 90200 333 91225 555 22007 30106 436011 60159 356006 358005 354006 358006 3520 348019 347018;
0183994160999992010120702004+34617-076517FM-12+0005CLKN7V0202901N010319999999N9999999N1+00251-00771101201ADDMD1110081+9999OA139901291REMSYN146CMAN  07024 CLKN7 46/// /2920 10025 21077 40120 51008 90200 333 91225 555 22007 30106 436011 60159 356006 358005 354006 358006 3520 348019 347018;
0183994160999992010120702004+34617-076517FM-12+0005CLKN7V0202901N010319999999N9999999N1+00251-00771101201ADDMD1110081+9999OA139901291REMSYN146CMAN  07024 CLKN7 46/// /2920 10025 21077 40120 51008 90200 333 91225 555 22007 30106 436011 60159 356006 358005 354006 358006 3520 348019 347018;
0183994160999992010120702004+34617-076517FM-12+0005CLKN7V0202901N010319999999N9999999N1+00251-00771101201ADDMD1110081+9999OA139901291REMSYN146CMAN  07024 CLKN7 46/// /2920 10025 21077 40120 51008 90200 333 91225 555 22007 30106 436011 60159 356006 358005 354006 358006 3520 348019 347018;
0183994160999992010120702004+34617-076517FM-12+0005CLKN7V0202901N010319999999N9999999N1+00251-00771101201ADDMD1110081+9999OA139901291REMSYN146CMAN  07024 CLKN7 46/// /2920 10025 21077 40120 51008 90200 333 91225 555 22007 30106 436011 60159 356006 358005 354006 358006 3520 348019 347018;
0183994160999992010120702004+34617-076517FM-12+0005CLKN7V0202901N010319999999N9999999N1+00251-00771101201ADDMD1110081+9999OA139901291REMSYN146CMAN  07024 CLKN7 46/// /2920 10025 21077 40120 51008 90200 333 91225 555 22007 30106 436011 60159 356006 358005 354006 358006 3520 348019 347018;
0183994160999992010120702004+34617-076517FM-12+0005CLKN7V0202901N010319999999N9999999N1+00251-00771101201ADDMD1110081+9999OA139901291REMSYN146CMAN  07024 CLKN7 46/// /2920 10025 21077 40120 51008 90200 333 91225 555 22007 30106 436011 60159 356006 358005 354006 358006 3520 348019 347018;
0183994160999992010120702004+34617-076517FM-12+0005CLKN7V0202901N010319999999N9999999N1+00251-00771101201ADDMD1110081+9999OA139901291REMSYN146CMAN  07024 CLKN7 46/// /2920 10025 21077 40120 51008 90200 333 91225 555 22007 30106 436011 60159 356006 358005 354006 358006 3520 348019 347018;
0183994160999992010120702004+34617-076517FM-12+0005CLKN7V0202901N010319999999N9999999N1+00251-00771101201ADDMD1110081+9999OA139901291REMSYN146CMAN  07024 CLKN7 46/// /2920 10025 21077 40120 51008 90200 333 91225 555 22007 30106 436011 60159 356006 358005 354006 358006 3520 348019 347018;
0183994160999992010120702004+34617-076517FM-12+0005CLKN7V0202901N010319999999N9999999N1+00251-00771101201ADDMD1110081+9999OA139901291REMSYN146CMAN  07024 CLKN7 46/// /2920 10025 21077 40120 51008 90200 333 91225 555 22007 30106 436011 60159 356006 358005 354006 358006 3520 348019 347018;
0183994160999992010120702004+34617-076517FM-12+0005CLKN7V0202901N010319999999N9999999N1+00251-00771101201ADDMD1110081+9999OA139901291REMSYN146CMAN  07024 CLKN7 46/// /2920 10025 21077 40120 51008 90200 333 91225 555 22007 30106 436011 60159 356006 358005 354006 358006 3520 348019 347018;
0183994160999992010120702004+34617-076517FM-12+0005CLKN7V0202901N010319999999N9999999N1+00251-00771101201ADDMD1110081+9999OA139901291REMSYN146CMAN  07024 CLKN7 46/// /2920 10025 21077 40120 51008 90200 333 91225 555 22007 30106 436011 60159 356006 358005 354006 358006 3520 348019 347018;
0183994160999992010120702004+34617-076517FM-12+0005CLKN7V0202901N010319999999N9999999N1+00251-00771101201ADDMD1110081+9999OA139901291REMSYN146CMAN  07024 CLKN7 46/// /2920 10025 21077 40120 51008 90200 333 91225 555 22007 30106 436011 60159 356006 358005 354006 358006 3520 348019 347018;
0183994160999992010120702004+34617-076517FM-12+0005CLKN7V0202901N010319999999N9999999N1+00251-00771101201ADDMD1110081+9999OA139901291REMSYN146CMAN  07024 CLKN7 46/// /2920 10025 21077 40120 51008 90200 333 91225 555 22007 30106 436011 60159 356006 358005 354006 358006 3520 348019 347018;
0183994160999992010120702004+34617-076517FM-12+0005CLKN7V0202901N010319999999N9999999N1+00251-00771101201ADDMD1110081+9999OA139901291REMSYN146CMAN  07024 CLKN7 46/// /2920 10025 21077 40120 51008 90200 333 91225 555 22007 30106 436011 60159 356006 358005 354006 358006 3520 348019 347018;
0183994160999992010120702004+34617-076517FM-12+0005CLKN7V0202901N010319999999N9999999N1+00251-00771101201ADDMD1110081+9999OA139901291REMSYN146CMAN  07024 CLKN7 46/// /2920 10025 21077 40120 51008 90200 333 91225 555 22007 30106 436011 60159 356006 358005 354006 358006 3520 348019 347018;
0183994160999992010120702004+34617-076517FM-12+0005CLKN7V0202901N010319999999N9999999N1+00251-00771101201ADDMD1110081+9999OA139901291REMSYN146CMAN  07024 CLKN7 46/// /2920 10025 21077 40120 51008 90200 333 91225 555 22007 30106 436011 60159 356006 358005 354006 358006 3520 348019 347018;
0183994160999992010120702004+34617-076517FM-12+0005CLKN7V0202901N010319999999N9999999N1+00251-00771101201ADDMD1110081+9999OA139901291REMSYN146CMAN  07024 CLKN7 46/// /2920 10025 21077 40120 51008 90200 333 91225 555 22007 30106 436011 60159 356006 358005 354006 358006 3520 348019 347018;
0183994160999992010120702004+34617-076517FM-12+0005CLKN7V0202901N010319999999N9999999N1+00251-00771101201ADDMD1110081+9999OA139901291REMSYN146CMAN  07024 CLKN7 46/// /2920 10025 21077 40120 51008 90200 333 91225 555 22007 30106 436011 60159 356006 358005 354006 358006 3520 348019 347018;
0183994160999992010120702004+34617-076517FM-12+0005CLKN7V0202901N010319999999N9999999N1+00251-00771101201ADDMD1110081+9999OA139901291REMSYN146CMAN  07024 CLKN7 46/// /2920 10025 21077 40120 51008 90200 333 91225 555 22007 30106 436011 60159 356006 358005 354006 358006 3520 348019 347018;
0183994160999992010120702004+34617-076517FM-12+0005CLKN7V0202901N010319999999N9999999N1+00251-00771101201ADDMD1110081+9999OA139901291REMSYN146CMAN  07024 CLKN7 46/// /2920 10025 21077 40120 51008 90200 333 91225 555 22007 30106 436011 60159 356006 358005 354006 358006 3520 348019 347018;
0183994160999992010120702004+34617-076517FM-12+0005CLKN7V0202901N010319999999N9999999N1+00251-00771101201ADDMD1110081+9999OA139901291REMSYN146CMAN  07024 CLKN7 46/// /2920 10025 21077 40120 51008 90200 333 91225 555 22007 30106 436011 60159 356006 358005 354006 358006 3520 348019 347018;
0183994160999992010120702004+34617-076517FM-12+0005CLKN7V0202901N010319999999N9999999N1+00251-00771101201ADDMD1110081+9999OA139901291REMSYN146CMAN  07024 CLKN7 46/// /2920 10025 21077 40120 51008 90200 333 91225 555 22007 30106 436011 60159 356006 358005 354006 358006 3520 348019 347018;
0183994160999992010120702004+34617-076517FM-12+0005CLKN7V0202901N010319999999N9999999N1+00251-00771101201ADDMD1110081+9999OA139901291REMSYN146CMAN  07024 CLKN7 46/// /2920 10025 21077 40120 51008 90200 333 91225 555 22007 30106 436011 60159 356006 358005 354006 358006 3520 348019 347018;
0183994160999992010120702004+34617-076517FM-12+0005CLKN7V0202901N010319999999N9999999N1+00251-00771101201ADDMD1110081+9999OA139901291REMSYN146CMAN  07024 CLKN7 46/// /2920 10025 21077 40120 51008 90200 333 91225 555 22007 30106 436011 60159 356006 358005 354006 358006 3520 348019 347018;
0183994160999992010120702004+34617-076517FM-12+0005CLKN7V0202901N010319999999N9999999N1+00251-00771101201ADDMD1110081+9999OA139901291REMSYN146CMAN  07024 CLKN7 46/// /2920 10025 21077 40120 51008 90200 333 91225 555 22007 30106 436011 60159 356006 358005 354006 358006 3520 348019 347018;
0183994160999992010120702004+34617-076517FM-12+0005CLKN7V0202901N010319999999N9999999N1+00251-00771101201ADDMD1110081+9999OA139901291REMSYN146CMAN  07024 CLKN7 46/// /2920 10025 21077 40120 51008 90200 333 91225 555 22007 30106 436011 60159 356006 358005 354006 358006 3520 348019 347018;
0183994160999992010120702004+34617-076517FM-12+0005CLKN7V0202901N010319999999N9999999N1+00251-00771101201ADDMD1110081+9999OA139901291REMSYN146CMAN  07024 CLKN7 46/// /2920 10025 21077 40120 51008 90200 333 91225 555 22007 30106 436011 60159 356006 358005 354006 358006 3520 348019 347018;
0183994160999992010120702004+34617-076517FM-12+0005CLKN7V0202901N010319999999N9999999N1+00251-00771101201ADDMD1110081+9999OA139901291REMSYN146CMAN  07024 CLKN7 46/// /2920 10025 21077 40120 51008 90200 333 91225 555 22007 30106 436011 60159 356006 358005 354006 358006 3520 348019 347018;
0183994160999992010120702004+34617-076517FM-12+0005CLKN7V0202901N010319999999N9999999N1+00251-00771101201ADDMD1110081+9999OA139901291REMSYN146CMAN  07024 CLKN7 46/// /2920 10025 21077 40120 51008 90200 333 91225 555 22007 30106 436011 60159 356006 358005 354006 358006 3520 348019 347018;
0183994160999992010120702004+34617-076517FM-12+0005CLKN7V0202901N010319999999N9999999N1+00251-00771101201ADDMD1110081+9999OA139901291REMSYN146CMAN  07024 CLKN7 46/// /2920 10025 21077 40120 51008 90200 333 91225 555 22007 30106 436011 60159 356006 358005 354006 358006 3520 348019 347018;
0183994160999992010120702004+34617-076517FM-12+0005CLKN7V0202901N010319999999N9999999N1+00251-00771101201ADDMD1110081+9999OA139901291REMSYN146CMAN  07024 CLKN7 46/// /2920 10025 21077 40120 51008 90200 333 91225 555 22007 30106 436011 60159 356006 358005 354006 358006 3520 348019 347018;
0183994160999992010120702004+34617-076517FM-12+0005CLKN7V0202901N010319999999N9999999N1+00251-00771101201ADDMD1110081+9999OA139901291REMSYN146CMAN  07024 CLKN7 46/// /2920 10025 21077 40120 51008 90200 333 91225 555 22007 30106 436011 60159 356006 358005 354006 358006 3520 348019 347018;
0183994160999992010120702004+34617-076517FM-12+0005CLKN7V0202901N010319999999N9999999N1+00251-00771101201ADDMD1110081+9999OA139901291REMSYN146CMAN  07024 CLKN7 46/// /2920 10025 21077 40120 51008 90200 333 91225 555 22007 30106 436011 60159 356006 358005 354006 358006 3520 348019 347018;
0183994160999992010120702004+34617-076517FM-12+0005CLKN7V0202901N010319999999N9999999N1+00251-00771101201ADDMD1110081+9999OA139901291REMSYN146CMAN  07024 CLKN7 46/// /2920 10025 21077 40120 51008 90200 333 91225 555 22007 30106 436011 60159 356006 358005 354006 358006 3520 348019 347018;
0183994160999992010120702004+34617-076517FM-12+0005CLKN7V0202901N010319999999N9999999N1+00251-00771101201ADDMD1110081+9999OA139901291REMSYN146CMAN  07024 CLKN7 46/// /2920 10025 21077 40120 51008 90200 333 91225 555 22007 30106 436011 60159 356006 358005 354006 358006 3520 348019 347018;
0183994160999992010120702004+34617-076517FM-12+0005CLKN7V0202901N010319999999N9999999N1+00251-00771101201ADDMD1110081+9999OA139901291REMSYN146CMAN  07024 CLKN7 46/// /2920 10025 21077 40120 51008 90200 333 91225 555 22007 30106 436011 60159 356006 358005 354006 358006 3520 348019 347018;
0183994160999992010120702004+34617-076517FM-12+0005CLKN7V0202901N010319999999N9999999N1+00251-00771101201ADDMD1110081+9999OA139901291REMSYN146CMAN  07024 CLKN7 46/// /2920 10025 21077 40120 51008 90200 333 91225 555 22007 30106 436011 60159 356006 358005 354006 358006 3520 348019 347018;
0183994160999992010120702004+34617-076517FM-12+0005CLKN7V0202901N010319999999N9999999N1+00251-00771101201ADDMD1110081+9999OA139901291REMSYN146CMAN  07024 CLKN7 46/// /2920 10025 21077 40120 51008 90200 333 91225 555 22007 30106 436011 60159 356006 358005 354006 358006 3520 348019 347018;
0183994160999992010120702004+34617-076517FM-12+0005CLKN7V0202901N010319999999N9999999N1+00251-00771101201ADDMD1110081+9999OA139901291REMSYN146CMAN  07024 CLKN7 46/// /2920 10025 21077 40120 51008 90200 333 91225 555 22007 30106 436011 60159 356006 358005 354006 358006 3520 348019 347018;
0183994160999992010120702004+34617-076517FM-12+0005CLKN7V0202901N010319999999N9999999N1+00251-00771101201ADDMD1110081+9999OA139901291REMSYN146CMAN  07024 CLKN7 46/// /2920 10025 21077 40120 51008 90200 333 91225 555 22007 30106 436011 60159 356006 358005 354006 358006 3520 348019 347018;
0183994160999992010120702004+34617-076517FM-12+0005CLKN7V0202901N010319999999N9999999N1+00251-00771101201ADDMD1110081+9999OA139901291REMSYN146CMAN  07024 CLKN7 46/// /2920 10025 21077 40120 51008 90200 333 91225 555 22007 30106 436011 60159 356006 358005 354006 358006 3520 348019 347018;
0183994160999992010120702004+34617-076517FM-12+0005CLKN7V0202901N010319999999N9999999N1+00251-00771101201ADDMD1110081+9999OA139901291REMSYN146CMAN  07024 CLKN7 46/// /2920 10025 21077 40120 51008 90200 333 91225 555 22007 30106 436011 60159 356006 358005 354006 358006 3520 348019 347018;
0183994160999992010120702004+34617-076517FM-12+0005CLKN7V0202901N010319999999N9999999N1+00251-00771101201ADDMD1110081+9999OA139901291REMSYN146CMAN  07024 CLKN7 46/// /2920 10025 21077 40120 51008 90200 333 91225 555 22007 30106 436011 60159 356006 358005 354006 358006 3520 348019 347018;
0183994160999992010120702004+34617-076517FM-12+0005CLKN7V0202901N010319999999N9999999N1+00251-00771101201ADDMD1110081+9999OA139901291REMSYN146CMAN  07024 CLKN7 46/// /2920 10025 21077 40120 51008 90200 333 91225 555 22007 30106 436011 60159 356006 358005 354006 358006 3520 348019 347018;
0183994160999992010120702004+34617-076517FM-12+0005CLKN7V0202901N010319999999N9999999N1+00251-00771101201ADDMD1110081+9999OA139901291REMSYN146CMAN  07024 CLKN7 46/// /2920 10025 21077 40120 51008 90200 333 91225 555 22007 30106 436011 60159 356006 358005 354006 358006 3520 348019 347018;
0183994160999992010120702004+34617-076517FM-12+0005CLKN7V0202901N010319999999N9999999N1+00251-00771101201ADDMD1110081+9999OA139901291REMSYN146CMAN  07024 CLKN7 46/// /2920 10025 21077 40120 51008 90200 333 91225 555 22007 30106 436011 60159 356006 358005 354006 358006 3520 348019 347018;
0183994160999992010120702004+34617-076517FM-12+0005CLKN7V0202901N010319999999N9999999N1+00251-00771101201ADDMD1110081+9999OA139901291REMSYN146CMAN  07024 CLKN7 46/// /2920 10025 21077 40120 51008 90200 333 91225 555 22007 30106 436011 60159 356006 358005 354006 358006 3520 348019 347018;
0183994160999992010120702004+34617-076517FM-12+0005CLKN7V0202901N010319999999N9999999N1+00251-00771101201ADDMD1110081+9999OA139901291REMSYN146CMAN  07024 CLKN7 46/// /2920 10025 21077 40120 51008 90200 333 91225 555 22007 30106 436011 60159 356006 358005 354006 358006 3520 348019 347018;
0183994160999992010120702004+34617-076517FM-12+0005CLKN7V0202901N010319999999N9999999N1+00251-00771101201ADDMD1110081+9999OA139901291REMSYN146CMAN  07024 CLKN7 46/// /2920 10025 21077 40120 51008 90200 333 91225 555 22007 30106 436011 60159 356006 358005 354006 358006 3520 348019 347018;
0183994160999992010120702004+34617-076517FM-12+0005CLKN7V0202901N010319999999N9999999N1+00251-00771101201ADDMD1110081+9999OA139901291REMSYN146CMAN  07024 CLKN7 46/// /2920 10025 21077 40120 51008 90200 333 91225 555 22007 30106 436011 60159 356006 358005 354006 358006 3520 348019 347018;
0183994160999992010120702004+34617-076517FM-12+0005CLKN7V0202901N010319999999N9999999N1+00251-00771101201ADDMD1110081+9999OA139901291REMSYN146CMAN  07024 CLKN7 46/// /2920 10025 21077 40120 51008 90200 333 91225 555 22007 30106 436011 60159 356006 358005 354006 358006 3520 348019 347018;
0183994160999992010120702004+34617-076517FM-12+0005CLKN7V0202901N010319999999N9999999N1+00251-00771101201ADDMD1110081+9999OA139901291REMSYN146CMAN  07024 CLKN7 46/// /2920 10025 21077 40120 51008 90200 333 91225 555 22007 30106 436011 60159 356006 358005 354006 358006 3520 348019 347018;
0183994160999992010120702004+34617-076517FM-12+0005CLKN7V0202901N010319999999N9999999N1+00251-00771101201ADDMD1110081+9999OA139901291REMSYN146CMAN  07024 CLKN7 46/// /2920 10025 21077 40120 51008 90200 333 91225 555 22007 30106 436011 60159 356006 358005 354006 358006 3520 348019 347018;
0183994160999992010120702004+34617-076517FM-12+0005CLKN7V0202901N010319999999N9999999N1+00251-00771101201ADDMD1110081+9999OA139901291REMSYN146CMAN  07024 CLKN7 46/// /2920 10025 21077 40120 51008 90200 333 91225 555 22007 30106 436011 60159 356006 358005 354006 358006 3520 348019 347018;
0183994160999992010120702004+34617-076517FM-12+0005CLKN7V0202901N010319999999N9999999N1+00251-00771101201ADDMD1110081+9999OA139901291REMSYN146CMAN  07024 CLKN7 46/// /2920 10025 21077 40120 51008 90200 333 91225 555 22007 30106 436011 60159 356006 358005 354006 358006 3520 348019 347018;
0183994160999992010120702004+34617-076517FM-12+0005CLKN7V0202901N010319999999N9999999N1+00251-00771101201ADDMD1110081+9999OA139901291REMSYN146CMAN  07024 CLKN7 46/// /2920 10025 21077 40120 51008 90200 333 91225 555 22007 30106 436011 60159 356006 358005 354006 358006 3520 348019 347018;
0183994160999992010120702004+34617-076517FM-12+0005CLKN7V0202901N010319999999N9999999N1+00251-00771101201ADDMD1110081+9999OA139901291REMSYN146CMAN  07024 CLKN7 46/// /2920 10025 21077 40120 51008 90200 333 91225 555 22007 30106 436011 60159 356006 358005 354006 358006 3520 348019 347018;
0183994160999992010120702004+34617-076517FM-12+0005CLKN7V0202901N010319999999N9999999N1+00251-00771101201ADDMD1110081+9999OA139901291REMSYN146CMAN  07024 CLKN7 46/// /2920 10025 21077 40120 51008 90200 333 91225 555 22007 30106 436011 60159 356006 358005 354006 358006 3520 348019 347018;
0183994160999992010120702004+34617-076517FM-12+0005CLKN7V0202901N010319999999N9999999N1+00251-00771101201ADDMD1110081+9999OA139901291REMSYN146CMAN  07024 CLKN7 46/// /2920 10025 21077 40120 51008 90200 333 91225 555 22007 30106 436011 60159 356006 358005 354006 358006 3520 348019 347018;
0183994160999992010120702004+34617-076517FM-12+0005CLKN7V0202901N010319999999N9999999N1+00251-00771101201ADDMD1110081+9999OA139901291REMSYN146CMAN  07024 CLKN7 46/// /2920 10025 21077 40120 51008 90200 333 91225 555 22007 30106 436011 60159 356006 358005 354006 358006 3520 348019 347018;
0183994160999992010120702004+34617-076517FM-12+0005CLKN7V0202901N010319999999N9999999N1+00251-00771101201ADDMD1110081+9999OA139901291REMSYN146CMAN  07024 CLKN7 46/// /2920 10025 21077 40120 51008 90200 333 91225 555 22007 30106 436011 60159 356006 358005 354006 358006 3520 348019 347018;
0183994160999992010120702004+34617-076517FM-12+0005CLKN7V0202901N010319999999N9999999N1+00251-00771101201ADDMD1110081+9999OA139901291REMSYN146CMAN  07024 CLKN7 46/// /2920 10025 21077 40120 51008 90200 333 91225 555 22007 30106 436011 60159 356006 358005 354006 358006 3520 348019 347018;
0183994160999992010120702004+34617-076517FM-12+0005CLKN7V0202901N010319999999N9999999N1+00251-00771101201ADDMD1110081+9999OA139901291REMSYN146CMAN  07024 CLKN7 46/// /2920 10025 21077 40120 51008 90200 333 91225 555 22007 30106 436011 60159 356006 358005 354006 358006 3520 348019 347018;
0183994160999992010120702004+34617-076517FM-12+0005CLKN7V0202901N010319999999N9999999N1+00251-00771101201ADDMD1110081+9999OA139901291REMSYN146CMAN  07024 CLKN7 46/// /2920 10025 21077 40120 51008 90200 333 91225 555 22007 30106 436011 60159 356006 358005 354006 358006 3520 348019 347018;
0183994160999992010120702004+34617-076517FM-12+0005CLKN7V0202901N010319999999N9999999N1+00251-00771101201ADDMD1110081+9999OA139901291REMSYN146CMAN  07024 CLKN7 46/// /2920 10025 21077 40120 51008 90200 333 91225 555 22007 30106 436011 60159 356006 358005 354006 358006 3520 348019 347018;
0183994160999992010120702004+34617-076517FM-12+0005CLKN7V0202901N010319999999N9999999N1+00251-00771101201ADDMD1110081+9999OA139901291REMSYN146CMAN  07024 CLKN7 46/// /2920 10025 21077 40120 51008 90200 333 91225 555 22007 30106 436011 60159 356006 358005 354006 358006 3520 348019 347018;
0183994160999992010120702004+34617-076517FM-12+0005CLKN7V0202901N010319999999N9999999N1+00251-00771101201ADDMD1110081+9999OA139901291REMSYN146CMAN  07024 CLKN7 46/// /2920 10025 21077 40120 51008 90200 333 91225 555 22007 30106 436011 60159 356006 358005 354006 358006 3520 348019 347018;
0183994160999992010120702004+34617-076517FM-12+0005CLKN7V0202901N010319999999N9999999N1+00251-00771101201ADDMD1110081+9999OA139901291REMSYN146CMAN  07024 CLKN7 46/// /2920 10025 21077 40120 51008 90200 333 91225 555 22007 30106 436011 60159 356006 358005 354006 358006 3520 348019 347018;
0183994160999992010120702004+34617-076517FM-12+0005CLKN7V0202901N010319999999N9999999N1+00251-00771101201ADDMD1110081+9999OA139901291REMSYN146CMAN  07024 CLKN7 46/// /2920 10025 21077 40120 51008 90200 333 91225 555 22007 30106 436011 60159 356006 358005 354006 358006 3520 348019 347018;
0183994160999992010120702004+34617-076517FM-12+0005CLKN7V0202901N010319999999N9999999N1+00251-00771101201ADDMD1110081+9999OA139901291REMSYN146CMAN  07024 CLKN7 46/// /2920 10025 21077 40120 51008 90200 333 91225 555 22007 30106 436011 60159 356006 358005 354006 358006 3520 348019 347018;
0183994160999992010120702004+34617-076517FM-12+0005CLKN7V0202901N010319999999N9999999N1+00251-00771101201ADDMD1110081+9999OA139901291REMSYN146CMAN  07024 CLKN7 46/// /2920 10025 21077 40120 51008 90200 333 91225 555 22007 30106 436011 60159 356006 358005 354006 358006 3520 348019 347018;
0183994160999992010120702004+34617-076517FM-12+0005CLKN7V0202901N010319999999N9999999N1+00251-00771101201ADDMD1110081+9999OA139901291REMSYN146CMAN  07024 CLKN7 46/// /2920 10025 21077 40120 51008 90200 333 91225 555 22007 30106 436011 60159 356006 358005 354006 358006 3520 348019 347018;
0183994160999992010120702004+34617-076517FM-12+0005CLKN7V0202901N010319999999N9999999N1+00251-00771101201ADDMD1110081+9999OA139901291REMSYN146CMAN  07024 CLKN7 46/// /2920 10025 21077 40120 51008 90200 333 91225 555 22007 30106 436011 60159 356006 358005 354006 358006 3520 348019 347018;
0183994160999992010120702004+34617-076517FM-12+0005CLKN7V0202901N010319999999N9999999N1+00251-00771101201ADDMD1110081+9999OA139901291REMSYN146CMAN  07024 CLKN7 46/// /2920 10025 21077 40120 51008 90200 333 91225 555 22007 30106 436011 60159 356006 358005 354006 358006 3520 348019 347018;
0183994160999992010120702004+34617-076517FM-12+0005CLKN7V0202901N010319999999N9999999N1+00251-00771101201ADDMD1110081+9999OA139901291REMSYN146CMAN  07024 CLKN7 46/// /2920 10025 21077 40120 51008 90200 333 91225 555 22007 30106 436011 60159 356006 358005 354006 358006 3520 348019 347018;
0183994160999992010120702004+34617-076517FM-12+0005CLKN7V0202901N010319999999N9999999N1+00251-00771101201ADDMD1110081+9999OA139901291REMSYN146CMAN  07024 CLKN7 46/// /2920 10025 21077 40120 51008 90200 333 91225 555 22007 30106 436011 60159 356006 358005 354006 358006 3520 348019 347018;
0183994160999992010120702004+34617-076517FM-12+0005CLKN7V0202901N010319999999N9999999N1+00251-00771101201ADDMD1110081+9999OA139901291REMSYN146CMAN  07024 CLKN7 46/// /2920 10025 21077 40120 51008 90200 333 91225 555 22007 30106 436011 60159 356006 358005 354006 358006 3520 348019 347018;
0183994160999992010120702004+34617-076517FM-12+0005CLKN7V0202901N010319999999N9999999N1+00251-00771101201ADDMD1110081+9999OA139901291REMSYN146CMAN  07024 CLKN7 46/// /2920 10025 21077 40120 51008 90200 333 91225 555 22007 30106 436011 60159 356006 358005 354006 358006 3520 348019 347018;
0183994160999992010120702004+34617-076517FM-12+0005CLKN7V0202901N010319999999N9999999N1+00251-00771101201ADDMD1110081+9999OA139901291REMSYN146CMAN  07024 CLKN7 46/// /2920 10025 21077 40120 51008 90200 333 91225 555 22007 30106 436011 60159 356006 358005 354006 358006 3520 348019 347018;
0183994160999992010120702004+34617-076517FM-12+0005CLKN7V0202901N010319999999N9999999N1+00251-00771101201ADDMD1110081+9999OA139901291REMSYN146CMAN  07024 CLKN7 46/// /2920 10025 21077 40120 51008 90200 333 91225 555 22007 30106 436011 60159 356006 358005 354006 358006 3520 348019 347018;
0183994160999992010120702004+34617-076517FM-12+0005CLKN7V0202901N010319999999N9999999N1+00251-00771101201ADDMD1110081+9999OA139901291REMSYN146CMAN  07024 CLKN7 46/// /2920 10025 21077 40120 51008 90200 333 91225 555 22007 30106 436011 60159 356006 358005 354006 358006 3520 348019 347018;
0183994160999992010120702004+34617-076517FM-12+0005CLKN7V0202901N010319999999N9999999N1+00251-00771101201ADDMD1110081+9999OA139901291REMSYN146CMAN  07024 CLKN7 46/// /2920 10025 21077 40120 51008 90200 333 91225 555 22007 30106 436011 60159 356006 358005 354006 358006 3520 348019 347018;
0183994160999992010120702004+34617-076517FM-12+0005CLKN7V0202901N010319999999N9999999N1+00251-00771101201ADDMD1110081+9999OA139901291REMSYN146CMAN  07024 CLKN7 46/// /2920 10025 21077 40120 51008 90200 333 91225 555 22007 30106 436011 60159 356006 358005 354006 358006 3520 348019 347018;
0183994160999992010120702004+34617-076517FM-12+0005CLKN7V0202901N010319999999N9999999N1+00251-00771101201ADDMD1110081+9999OA139901291REMSYN146CMAN  07024 CLKN7 46/// /2920 10025 21077 40120 51008 90200 333 91225 555 22007 30106 436011 60159 356006 358005 354006 358006 3520 348019 347018;
0183994160999992010120702004+34617-076517FM-12+0005CLKN7V0202901N010319999999N9999999N1+00251-00771101201ADDMD1110081+9999OA139901291REMSYN146CMAN  07024 CLKN7 46/// /2920 10025 21077 40120 51008 90200 333 91225 555 22007 30106 436011 60159 356006 358005 354006 358006 3520 348019 347018;
0183994160999992010120702004+34617-076517FM-12+0005CLKN7V0202901N010319999999N9999999N1+00251-00771101201ADDMD1110081+9999OA139901291REMSYN146CMAN  07024 CLKN7 46/// /2920 10025 21077 40120 51008 90200 333 91225 555 22007 30106 436011 60159 356006 358005 354006 358006 3520 348019 347018;
0183994160999992010120702004+34617-076517FM-12+0005CLKN7V0202901N010319999999N9999999N1+00251-00771101201ADDMD1110081+9999OA139901291REMSYN146CMAN  07024 CLKN7 46/// /2920 10025 21077 40120 51008 90200 333 91225 555 22007 30106 436011 60159 356006 358005 354006 358006 3520 348019 347018;
0183994160999992010120702004+34617-076517FM-12+0005CLKN7V0202901N010319999999N9999999N1+00251-00771101201ADDMD1110081+9999OA139901291REMSYN146CMAN  07024 CLKN7 46/// /2920 10025 21077 40120 51008 90200 333 91225 555 22007 30106 436011 60159 356006 358005 354006 358006 3520 348019 347018;
0183994160999992010120702004+34617-076517FM-12+0005CLKN7V0202901N010319999999N9999999N1+00251-00771101201ADDMD1110081+9999OA139901291REMSYN146CMAN  07024 CLKN7 46/// /2920 10025 21077 40120 51008 90200 333 91225 555 22007 30106 436011 60159 356006 358005 354006 358006 3520 348019 347018;
0183994160999992010120702004+34617-076517FM-12+0005CLKN7V0202901N010319999999N9999999N1+00251-00771101201ADDMD1110081+9999OA139901291REMSYN146CMAN  07024 CLKN7 46/// /2920 10025 21077 40120 51008 90200 333 91225 555 22007 30106 436011 60159 356006 358005 354006 358006 3520 348019 347018;
0183994160999992010120702004+34617-076517FM-12+0005CLKN7V0202901N010319999999N9999999N1+00251-00771101201ADDMD1110081+9999OA139901291REMSYN146CMAN  07024 CLKN7 46/// /2920 10025 21077 40120 51008 90200 333 91225 555 22007 30106 436011 60159 356006 358005 354006 358006 3520 348019 347018;
0183994160999992010120702004+34617-076517FM-12+0005CLKN7V0202901N010319999999N9999999N1+00251-00771101201ADDMD1110081+9999OA139901291REMSYN146CMAN  07024 CLKN7 46/// /2920 10025 21077 40120 51008 90200 333 91225 555 22007 30106 436011 60159 356006 358005 354006 358006 3520 348019 347018;
0183994160999992010120702004+34617-076517FM-12+0005CLKN7V0202901N010319999999N9999999N1+00251-00771101201ADDMD1110081+9999OA139901291REMSYN146CMAN  07024 CLKN7 46/// /2920 10025 21077 40120 51008 90200 333 91225 555 22007 30106 436011 60159 356006 358005 354006 358006 3520 348019 347018;
0183994160999992010120702004+34617-076517FM-12+0005CLKN7V0202901N010319999999N9999999N1+00251-00771101201ADDMD1110081+9999OA139901291REMSYN146CMAN  07024 CLKN7 46/// /2920 10025 21077 40120 51008 90200 333 91225 555 22007 30106 436011 60159 356006 358005 354006 358006 3520 348019 347018;
0183994160999992010120702004+34617-076517FM-12+0005CLKN7V0202901N010319999999N9999999N1+00251-00771101201ADDMD1110081+9999OA139901291REMSYN146CMAN  07024 CLKN7 46/// /2920 10025 21077 40120 51008 90200 333 91225 555 22007 30106 436011 60159 356006 358005 354006 358006 3520 348019 347018;
0183994160999992010120702004+34617-076517FM-12+0005CLKN7V0202901N010319999999N9999999N1+00251-00771101201ADDMD1110081+9999OA139901291REMSYN146CMAN  07024 CLKN7 46/// /2920 10025 21077 40120 51008 90200 333 91225 555 22007 30106 436011 60159 356006 358005 354006 358006 3520 348019 347018;
0183994160999992010120702004+34617-076517FM-12+0005CLKN7V0202901N010319999999N9999999N1+00251-00771101201ADDMD1110081+9999OA139901291REMSYN146CMAN  07024 CLKN7 46/// /2920 10025 21077 40120 51008 90200 333 91225 555 22007 30106 436011 60159 356006 358005 354006 358006 3520 348019 347018;
0183994160999992010120702004+34617-076517FM-12+0005CLKN7V0202901N010319999999N9999999N1+00251-00771101201ADDMD1110081+9999OA139901291REMSYN146CMAN  07024 CLKN7 46/// /2920 10025 21077 40120 51008 90200 333 91225 555 22007 30106 436011 60159 356006 358005 354006 358006 3520 348019 347018;
0183994160999992010120702004+34617-076517FM-12+0005CLKN7V0202901N010319999999N9999999N1+00251-00771101201ADDMD1110081+9999OA139901291REMSYN146CMAN  07024 CLKN7 46/// /2920 10025 21077 40120 51008 90200 333 91225 555 22007 30106 436011 60159 356006 358005 354006 358006 3520 348019 347018;
0183994160999992010120702004+34617-076517FM-12+0005CLKN7V0202901N010319999999N9999999N1+00251-00771101201ADDMD1110081+9999OA139901291REMSYN146CMAN  07024 CLKN7 46/// /2920 10025 21077 40120 51008 90200 333 91225 555 22007 30106 436011 60159 356006 358005 354006 358006 3520 348019 347018;
0183994160999992010120702004+34617-076517FM-12+0005CLKN7V0202901N010319999999N9999999N1+00251-00771101201ADDMD1110081+9999OA139901291REMSYN146CMAN  07024 CLKN7 46/// /2920 10025 21077 40120 51008 90200 333 91225 555 22007 30106 436011 60159 356006 358005 354006 358006 3520 348019 347018;
0183994160999992010120702004+34617-076517FM-12+0005CLKN7V0202901N010319999999N9999999N1+00251-00771101201ADDMD1110081+9999OA139901291REMSYN146CMAN  07024 CLKN7 46/// /2920 10025 21077 40120 51008 90200 333 91225 555 22007 30106 436011 60159 356006 358005 354006 358006 3520 348019 347018;
0183994160999992010120702004+34617-076517FM-12+0005CLKN7V0202901N010319999999N9999999N1+00251-00771101201ADDMD1110081+9999OA139901291REMSYN146CMAN  07024 CLKN7 46/// /2920 10025 21077 40120 51008 90200 333 91225 555 22007 30106 436011 60159 356006 358005 354006 358006 3520 348019 347018;
0183994160999992010120702004+34617-076517FM-12+0005CLKN7V0202901N010319999999N9999999N1+00251-00771101201ADDMD1110081+9999OA139901291REMSYN146CMAN  07024 CLKN7 46/// /2920 10025 21077 40120 51008 90200 333 91225 555 22007 30106 436011 60159 356006 358005 354006 358006 3520 348019 347018;
0183994160999992010120702004+34617-076517FM-12+0005CLKN7V0202901N010319999999N9999999N1+00251-00771101201ADDMD1110081+9999OA139901291REMSYN146CMAN  07024 CLKN7 46/// /2920 10025 21077 40120 51008 90200 333 91225 555 22007 30106 436011 60159 356006 358005 354006 358006 3520 348019 347018;
0183994160999992010120702004+34617-076517FM-12+0005CLKN7V0202901N010319999999N9999999N1+00251-00771101201ADDMD1110081+9999OA139901291REMSYN146CMAN  07024 CLKN7 46/// /2920 10025 21077 40120 51008 90200 333 91225 555 22007 30106 436011 60159 356006 358005 354006 358006 3520 348019 347018;
0183994160999992010120702004+34617-076517FM-12+0005CLKN7V0202901N010319999999N9999999N1+00251-00771101201ADDMD1110081+9999OA139901291REMSYN146CMAN  07024 CLKN7 46/// /2920 10025 21077 40120 51008 90200 333 91225 555 22007 30106 436011 60159 356006 358005 354006 358006 3520 348019 347018;
0183994160999992010120702004+34617-076517FM-12+0005CLKN7V0202901N010319999999N9999999N1+00251-00771101201ADDMD1110081+9999OA139901291REMSYN146CMAN  07024 CLKN7 46/// /2920 10025 21077 40120 51008 90200 333 91225 555 22007 30106 436011 60159 356006 358005 354006 358006 3520 348019 347018;
0183994160999992010120702004+34617-076517FM-12+0005CLKN7V0202901N010319999999N9999999N1+00251-00771101201ADDMD1110081+9999OA139901291REMSYN146CMAN  07024 CLKN7 46/// /2920 10025 21077 40120 51008 90200 333 91225 555 22007 30106 436011 60159 356006 358005 354006 358006 3520 348019 347018;
0183994160999992010120702004+34617-076517FM-12+0005CLKN7V0202901N010319999999N9999999N1+00251-00771101201ADDMD1110081+9999OA139901291REMSYN146CMAN  07024 CLKN7 46/// /2920 10025 21077 40120 51008 90200 333 91225 555 22007 30106 436011 60159 356006 358005 354006 358006 3520 348019 347018;
0183994160999992010120702004+34617-076517FM-12+0005CLKN7V0202901N010319999999N9999999N1+00251-00771101201ADDMD1110081+9999OA139901291REMSYN146CMAN  07024 CLKN7 46/// /2920 10025 21077 40120 51008 90200 333 91225 555 22007 30106 436011 60159 356006 358005 354006 358006 3520 348019 347018;
0183994160999992010120702004+34617-076517FM-12+0005CLKN7V0202901N010319999999N9999999N1+00251-00771101201ADDMD1110081+9999OA139901291REMSYN146CMAN  07024 CLKN7 46/// /2920 10025 21077 40120 51008 90200 333 91225 555 22007 30106 436011 60159 356006 358005 354006 358006 3520 348019 347018;
0183994160999992010120702004+34617-076517FM-12+0005CLKN7V0202901N010319999999N9999999N1+00251-00771101201ADDMD1110081+9999OA139901291REMSYN146CMAN  07024 CLKN7 46/// /2920 10025 21077 40120 51008 90200 333 91225 555 22007 30106 436011 60159 356006 358005 354006 358006 3520 348019 347018;
0183994160999992010120702004+34617-076517FM-12+0005CLKN7V0202901N010319999999N9999999N1+00251-00771101201ADDMD1110081+9999OA139901291REMSYN146CMAN  07024 CLKN7 46/// /2920 10025 21077 40120 51008 90200 333 91225 555 22007 30106 436011 60159 356006 358005 354006 358006 3520 348019 347018;
0183994160999992010120702004+34617-076517FM-12+0005CLKN7V0202901N010319999999N9999999N1+00251-00771101201ADDMD1110081+9999OA139901291REMSYN146CMAN  07024 CLKN7 46/// /2920 10025 21077 40120 51008 90200 333 91225 555 22007 30106 436011 60159 356006 358005 354006 358006 3520 348019 347018;
0183994160999992010120702004+34617-076517FM-12+0005CLKN7V0202901N010319999999N9999999N1+00251-00771101201ADDMD1110081+9999OA139901291REMSYN146CMAN  07024 CLKN7 46/// /2920 10025 21077 40120 51008 90200 333 91225 555 22007 30106 436011 60159 356006 358005 354006 358006 3520 348019 347018;
0183994160999992010120702004+34617-076517FM-12+0005CLKN7V0202901N010319999999N9999999N1+00251-00771101201ADDMD1110081+9999OA139901291REMSYN146CMAN  07024 CLKN7 46/// /2920 10025 21077 40120 51008 90200 333 91225 555 22007 30106 436011 60159 356006 358005 354006 358006 3520 348019 347018;
0183994160999992010120702004+34617-076517FM-12+0005CLKN7V0202901N010319999999N9999999N1+00251-00771101201ADDMD1110081+9999OA139901291REMSYN146CMAN  07024 CLKN7 46/// /2920 10025 21077 40120 51008 90200 333 91225 555 22007 30106 436011 60159 356006 358005 354006 358006 3520 348019 347018;
0183994160999992010120702004+34617-076517FM-12+0005CLKN7V0202901N010319999999N9999999N1+00251-00771101201ADDMD1110081+9999OA139901291REMSYN146CMAN  07024 CLKN7 46/// /2920 10025 21077 40120 51008 90200 333 91225 555 22007 30106 436011 60159 356006 358005 354006 358006 3520 348019 347018;
0183994160999992010120702004+34617-076517FM-12+0005CLKN7V0202901N010319999999N9999999N1+00251-00771101201ADDMD1110081+9999OA139901291REMSYN146CMAN  07024 CLKN7 46/// /2920 10025 21077 40120 51008 90200 333 91225 555 22007 30106 436011 60159 356006 358005 354006 358006 3520 348019 347018;
0183994160999992010120702004+34617-076517FM-12+0005CLKN7V0202901N010319999999N9999999N1+00251-00771101201ADDMD1110081+9999OA139901291REMSYN146CMAN  07024 CLKN7 46/// /2920 10025 21077 40120 51008 90200 333 91225 555 22007 30106 436011 60159 356006 358005 354006 358006 3520 348019 347018;
0183994160999992010120702004+34617-076517FM-12+0005CLKN7V0202901N010319999999N9999999N1+00251-00771101201ADDMD1110081+9999OA139901291REMSYN146CMAN  07024 CLKN7 46/// /2920 10025 21077 40120 51008 90200 333 91225 555 22007 30106 436011 60159 356006 358005 354006 358006 3520 348019 347018;
0183994160999992010120702004+34617-076517FM-12+0005CLKN7V0202901N010319999999N9999999N1+00251-00771101201ADDMD1110081+9999OA139901291REMSYN146CMAN  07024 CLKN7 46/// /2920 10025 21077 40120 51008 90200 333 91225 555 22007 30106 436011 60159 356006 358005 354006 358006 3520 348019 347018;
0183994160999992010120702004+34617-076517FM-12+0005CLKN7V0202901N010319999999N9999999N1+00251-00771101201ADDMD1110081+9999OA139901291REMSYN146CMAN  07024 CLKN7 46/// /2920 10025 21077 40120 51008 90200 333 91225 555 22007 30106 436011 60159 356006 358005 354006 358006 3520 348019 347018;
0183994160999992010120702004+34617-076517FM-12+0005CLKN7V0202901N010319999999N9999999N1+00251-00771101201ADDMD1110081+9999OA139901291REMSYN146CMAN  07024 CLKN7 46/// /2920 10025 21077 40120 51008 90200 333 91225 555 22007 30106 436011 60159 356006 358005 354006 358006 3520 348019 347018;
0183994160999992010120702004+34617-076517FM-12+0005CLKN7V0202901N010319999999N9999999N1+00251-00771101201ADDMD1110081+9999OA139901291REMSYN146CMAN  07024 CLKN7 46/// /2920 10025 21077 40120 51008 90200 333 91225 555 22007 30106 436011 60159 356006 358005 354006 358006 3520 348019 347018;
0183994160999992010120702004+34617-076517FM-12+0005CLKN7V0202901N010319999999N9999999N1+00251-00771101201ADDMD1110081+9999OA139901291REMSYN146CMAN  07024 CLKN7 46/// /2920 10025 21077 40120 51008 90200 333 91225 555 22007 30106 436011 60159 356006 358005 354006 358006 3520 348019 347018;
0183994160999992010120702004+34617-076517FM-12+0005CLKN7V0202901N010319999999N9999999N1+00251-00771101201ADDMD1110081+9999OA139901291REMSYN146CMAN  07024 CLKN7 46/// /2920 10025 21077 40120 51008 90200 333 91225 555 22007 30106 436011 60159 356006 358005 354006 358006 3520 348019 347018;
0183994160999992010120702004+34617-076517FM-12+0005CLKN7V0202901N010319999999N9999999N1+00251-00771101201ADDMD1110081+9999OA139901291REMSYN146CMAN  07024 CLKN7 46/// /2920 10025 21077 40120 51008 90200 333 91225 555 22007 30106 436011 60159 356006 358005 354006 358006 3520 348019 347018;
0183994160999992010120702004+34617-076517FM-12+0005CLKN7V0202901N010319999999N9999999N1+00251-00771101201ADDMD1110081+9999OA139901291REMSYN146CMAN  07024 CLKN7 46/// /2920 10025 21077 40120 51008 90200 333 91225 555 22007 30106 436011 60159 356006 358005 354006 358006 3520 348019 347018;
0183994160999992010120702004+34617-076517FM-12+0005CLKN7V0202901N010319999999N9999999N1+00251-00771101201ADDMD1110081+9999OA139901291REMSYN146CMAN  07024 CLKN7 46/// /2920 10025 21077 40120 51008 90200 333 91225 555 22007 30106 436011 60159 356006 358005 354006 358006 3520 348019 347018;
0183994160999992010120702004+34617-076517FM-12+0005CLKN7V0202901N010319999999N9999999N1+00251-00771101201ADDMD1110081+9999OA139901291REMSYN146CMAN  07024 CLKN7 46/// /2920 10025 21077 40120 51008 90200 333 91225 555 22007 30106 436011 60159 356006 358005 354006 358006 3520 348019 347018;
0183994160999992010120702004+34617-076517FM-12+0005CLKN7V0202901N010319999999N9999999N1+00251-00771101201ADDMD1110081+9999OA139901291REMSYN146CMAN  07024 CLKN7 46/// /2920 10025 21077 40120 51008 90200 333 91225 555 22007 30106 436011 60159 356006 358005 354006 358006 3520 348019 347018;
0183994160999992010120702004+34617-076517FM-12+0005CLKN7V0202901N010319999999N9999999N1+00251-00771101201ADDMD1110081+9999OA139901291REMSYN146CMAN  07024 CLKN7 46/// /2920 10025 21077 40120 51008 90200 333 91225 555 22007 30106 436011 60159 356006 358005 354006 358006 3520 348019 347018;
0183994160999992010120702004+34617-076517FM-12+0005CLKN7V0202901N010319999999N9999999N1+00251-00771101201ADDMD1110081+9999OA139901291REMSYN146CMAN  07024 CLKN7 46/// /2920 10025 21077 40120 51008 90200 333 91225 555 22007 30106 436011 60159 356006 358005 354006 358006 3520 348019 347018;
0183994160999992010120702004+34617-076517FM-12+0005CLKN7V0202901N010319999999N9999999N1+00251-00771101201ADDMD1110081+9999OA139901291REMSYN146CMAN  07024 CLKN7 46/// /2920 10025 21077 40120 51008 90200 333 91225 555 22007 30106 436011 60159 356006 358005 354006 358006 3520 348019 347018;
0183994160999992010120702004+34617-076517FM-12+0005CLKN7V0202901N010319999999N9999999N1+00251-00771101201ADDMD1110081+9999OA139901291REMSYN146CMAN  07024 CLKN7 46/// /2920 10025 21077 40120 51008 90200 333 91225 555 22007 30106 436011 60159 356006 358005 354006 358006 3520 348019 347018;
0183994160999992010120702004+34617-076517FM-12+0005CLKN7V0202901N010319999999N9999999N1+00251-00771101201ADDMD1110081+9999OA139901291REMSYN146CMAN  07024 CLKN7 46/// /2920 10025 21077 40120 51008 90200 333 91225 555 22007 30106 436011 60159 356006 358005 354006 358006 3520 348019 347018;
0183994160999992010120702004+34617-076517FM-12+0005CLKN7V0202901N010319999999N9999999N1+00251-00771101201ADDMD1110081+9999OA139901291REMSYN146CMAN  07024 CLKN7 46/// /2920 10025 21077 40120 51008 90200 333 91225 555 22007 30106 436011 60159 356006 358005 354006 358006 3520 348019 347018;
0183994160999992010120702004+34617-076517FM-12+0005CLKN7V0202901N010319999999N9999999N1+00251-00771101201ADDMD1110081+9999OA139901291REMSYN146CMAN  07024 CLKN7 46/// /2920 10025 21077 40120 51008 90200 333 91225 555 22007 30106 436011 60159 356006 358005 354006 358006 3520 348019 347018;
0183994160999992010120702004+34617-076517FM-12+0005CLKN7V0202901N010319999999N9999999N1+00251-00771101201ADDMD1110081+9999OA139901291REMSYN146CMAN  07024 CLKN7 46/// /2920 10025 21077 40120 51008 90200 333 91225 555 22007 30106 436011 60159 356006 358005 354006 358006 3520 348019 347018;
0183994160999992010120702004+34617-076517FM-12+0005CLKN7V0202901N010319999999N9999999N1+00251-00771101201ADDMD1110081+9999OA139901291REMSYN146CMAN  07024 CLKN7 46/// /2920 10025 21077 40120 51008 90200 333 91225 555 22007 30106 436011 60159 356006 358005 354006 358006 3520 348019 347018;
0183994160999992010120702004+34617-076517FM-12+0005CLKN7V0202901N010319999999N9999999N1+00251-00771101201ADDMD1110081+9999OA139901291REMSYN146CMAN  07024 CLKN7 46/// /2920 10025 21077 40120 51008 90200 333 91225 555 22007 30106 436011 60159 356006 358005 354006 358006 3520 348019 347018;
0183994160999992010120702004+34617-076517FM-12+0005CLKN7V0202901N010319999999N9999999N1+00251-00771101201ADDMD1110081+9999OA139901291REMSYN146CMAN  07024 CLKN7 46/// /2920 10025 21077 40120 51008 90200 333 91225 555 22007 30106 436011 60159 356006 358005 354006 358006 3520 348019 347018;
0183994160999992010120702004+34617-076517FM-12+0005CLKN7V0202901N010319999999N9999999N1+00251-00771101201ADDMD1110081+9999OA139901291REMSYN146CMAN  07024 CLKN7 46/// /2920 10025 21077 40120 51008 90200 333 91225 555 22007 30106 436011 60159 356006 358005 354006 358006 3520 348019 347018;
0183994160999992010120702004+34617-076517FM-12+0005CLKN7V0202901N010319999999N9999999N1+00251-00771101201ADDMD1110081+9999OA139901291REMSYN146CMAN  07024 CLKN7 46/// /2920 10025 21077 40120 51008 90200 333 91225 555 22007 30106 436011 60159 356006 358005 354006 358006 3520 348019 347018;
0183994160999992010120702004+34617-076517FM-12+0005CLKN7V0202901N010319999999N9999999N1+00251-00771101201ADDMD1110081+9999OA139901291REMSYN146CMAN  07024 CLKN7 46/// /2920 10025 21077 40120 51008 90200 333 91225 555 22007 30106 436011 60159 356006 358005 354006 358006 3520 348019 347018;
0183994160999992010120702004+34617-076517FM-12+0005CLKN7V0202901N010319999999N9999999N1+00251-00771101201ADDMD1110081+9999OA139901291REMSYN146CMAN  07024 CLKN7 46/// /2920 10025 21077 40120 51008 90200 333 91225 555 22007 30106 436011 60159 356006 358005 354006 358006 3520 348019 347018;
0183994160999992010120702004+34617-076517FM-12+0005CLKN7V0202901N010319999999N9999999N1+00251-00771101201ADDMD1110081+9999OA139901291REMSYN146CMAN  07024 CLKN7 46/// /2920 10025 21077 40120 51008 90200 333 91225 555 22007 30106 436011 60159 356006 358005 354006 358006 3520 348019 347018;
0183994160999992010120702004+34617-076517FM-12+0005CLKN7V0202901N010319999999N9999999N1+00251-00771101201ADDMD1110081+9999OA139901291REMSYN146CMAN  07024 CLKN7 46/// /2920 10025 21077 40120 51008 90200 333 91225 555 22007 30106 436011 60159 356006 358005 354006 358006 3520 348019 347018;
0183994160999992010120702004+34617-076517FM-12+0005CLKN7V0202901N010319999999N9999999N1+00251-00771101201ADDMD1110081+9999OA139901291REMSYN146CMAN  07024 CLKN7 46/// /2920 10025 21077 40120 51008 90200 333 91225 555 22007 30106 436011 60159 356006 358005 354006 358006 3520 348019 347018;
0183994160999992010120702004+34617-076517FM-12+0005CLKN7V0202901N010319999999N9999999N1+00251-00771101201ADDMD1110081+9999OA139901291REMSYN146CMAN  07024 CLKN7 46/// /2920 10025 21077 40120 51008 90200 333 91225 555 22007 30106 436011 60159 356006 358005 354006 358006 3520 348019 347018;
0183994160999992010120702004+34617-076517FM-12+0005CLKN7V0202901N010319999999N9999999N1+00251-00771101201ADDMD1110081+9999OA139901291REMSYN146CMAN  07024 CLKN7 46/// /2920 10025 21077 40120 51008 90200 333 91225 555 22007 30106 436011 60159 356006 358005 354006 358006 3520 348019 347018;
0183994160999992010120702004+34617-076517FM-12+0005CLKN7V0202901N010319999999N9999999N1+00251-00771101201ADDMD1110081+9999OA139901291REMSYN146CMAN  07024 CLKN7 46/// /2920 10025 21077 40120 51008 90200 333 91225 555 22007 30106 436011 60159 356006 358005 354006 358006 3520 348019 347018;
0183994160999992010120702004+34617-076517FM-12+0005CLKN7V0202901N010319999999N9999999N1+00251-00771101201ADDMD1110081+9999OA139901291REMSYN146CMAN  07024 CLKN7 46/// /2920 10025 21077 40120 51008 90200 333 91225 555 22007 30106 436011 60159 356006 358005 354006 358006 3520 348019 347018;
0183994160999992010120702004+34617-076517FM-12+0005CLKN7V0202901N010319999999N9999999N1+00251-00771101201ADDMD1110081+9999OA139901291REMSYN146CMAN  07024 CLKN7 46/// /2920 10025 21077 40120 51008 90200 333 91225 555 22007 30106 436011 60159 356006 358005 354006 358006 3520 348019 347018;
0183994160999992010120702004+34617-076517FM-12+0005CLKN7V0202901N010319999999N9999999N1+00251-00771101201ADDMD1110081+9999OA139901291REMSYN146CMAN  07024 CLKN7 46/// /2920 10025 21077 40120 51008 90200 333 91225 555 22007 30106 436011 60159 356006 358005 354006 358006 3520 348019 347018;
0183994160999992010120702004+34617-076517FM-12+0005CLKN7V0202901N010319999999N9999999N1+00251-00771101201ADDMD1110081+9999OA139901291REMSYN146CMAN  07024 CLKN7 46/// /2920 10025 21077 40120 51008 90200 333 91225 555 22007 30106 436011 60159 356006 358005 354006 358006 3520 348019 347018;
0183994160999992010120702004+34617-076517FM-12+0005CLKN7V0202901N010319999999N9999999N1+00251-00771101201ADDMD1110081+9999OA139901291REMSYN146CMAN  07024 CLKN7 46/// /2920 10025 21077 40120 51008 90200 333 91225 555 22007 30106 436011 60159 356006 358005 354006 358006 3520 348019 347018;
0183994160999992010120702004+34617-076517FM-12+0005CLKN7V0202901N010319999999N9999999N1+00251-00771101201ADDMD1110081+9999OA139901291REMSYN146CMAN  07024 CLKN7 46/// /2920 10025 21077 40120 51008 90200 333 91225 555 22007 30106 436011 60159 356006 358005 354006 358006 3520 348019 347018;
0183994160999992010120702004+34617-076517FM-12+0005CLKN7V0202901N010319999999N9999999N1+00251-00771101201ADDMD1110081+9999OA139901291REMSYN146CMAN  07024 CLKN7 46/// /2920 10025 21077 40120 51008 90200 333 91225 555 22007 30106 436011 60159 356006 358005 354006 358006 3520 348019 347018;
0183994160999992010120702004+34617-076517FM-12+0005CLKN7V0202901N010319999999N9999999N1+00251-00771101201ADDMD1110081+9999OA139901291REMSYN146CMAN  07024 CLKN7 46/// /2920 10025 21077 40120 51008 90200 333 91225 555 22007 30106 436011 60159 356006 358005 354006 358006 3520 348019 347018;
0183994160999992010120702004+34617-076517FM-12+0005CLKN7V0202901N010319999999N9999999N1+00251-00771101201ADDMD1110081+9999OA139901291REMSYN146CMAN  07024 CLKN7 46/// /2920 10025 21077 40120 51008 90200 333 91225 555 22007 30106 436011 60159 356006 358005 354006 358006 3520 348019 347018;
0183994160999992010120702004+34617-076517FM-12+0005CLKN7V0202901N010319999999N9999999N1+00251-00771101201ADDMD1110081+9999OA139901291REMSYN146CMAN  07024 CLKN7 46/// /2920 10025 21077 40120 51008 90200 333 91225 555 22007 30106 436011 60159 356006 358005 354006 358006 3520 348019 347018;
0183994160999992010120702004+34617-076517FM-12+0005CLKN7V0202901N010319999999N9999999N1+00251-00771101201ADDMD1110081+9999OA139901291REMSYN146CMAN  07024 CLKN7 46/// /2920 10025 21077 40120 51008 90200 333 91225 555 22007 30106 436011 60159 356006 358005 354006 358006 3520 348019 347018;
0183994160999992010120702004+34617-076517FM-12+0005CLKN7V0202901N010319999999N9999999N1+00251-00771101201ADDMD1110081+9999OA139901291REMSYN146CMAN  07024 CLKN7 46/// /2920 10025 21077 40120 51008 90200 333 91225 555 22007 30106 436011 60159 356006 358005 354006 358006 3520 348019 347018;
0183994160999992010120702004+34617-076517FM-12+0005CLKN7V0202901N010319999999N9999999N1+00251-00771101201ADDMD1110081+9999OA139901291REMSYN146CMAN  07024 CLKN7 46/// /2920 10025 21077 40120 51008 90200 333 91225 555 22007 30106 436011 60159 356006 358005 354006 358006 3520 348019 347018;
0183994160999992010120702004+34617-076517FM-12+0005CLKN7V0202901N010319999999N9999999N1+00251-00771101201ADDMD1110081+9999OA139901291REMSYN146CMAN  07024 CLKN7 46/// /2920 10025 21077 40120 51008 90200 333 91225 555 22007 30106 436011 60159 356006 358005 354006 358006 3520 348019 347018;
0183994160999992010120702004+34617-076517FM-12+0005CLKN7V0202901N010319999999N9999999N1+00251-00771101201ADDMD1110081+9999OA139901291REMSYN146CMAN  07024 CLKN7 46/// /2920 10025 21077 40120 51008 90200 333 91225 555 22007 30106 436011 60159 356006 358005 354006 358006 3520 348019 347018;
0183994160999992010120702004+34617-076517FM-12+0005CLKN7V0202901N010319999999N9999999N1+00251-00771101201ADDMD1110081+9999OA139901291REMSYN146CMAN  07024 CLKN7 46/// /2920 10025 21077 40120 51008 90200 333 91225 555 22007 30106 436011 60159 356006 358005 354006 358006 3520 348019 347018;
0183994160999992010120702004+34617-076517FM-12+0005CLKN7V0202901N010319999999N9999999N1+00251-00771101201ADDMD1110081+9999OA139901291REMSYN146CMAN  07024 CLKN7 46/// /2920 10025 21077 40120 51008 90200 333 91225 555 22007 30106 436011 60159 356006 358005 354006 358006 3520 348019 347018;
0183994160999992010120702004+34617-076517FM-12+0005CLKN7V0202901N010319999999N9999999N1+00251-00771101201ADDMD1110081+9999OA139901291REMSYN146CMAN  07024 CLKN7 46/// /2920 10025 21077 40120 51008 90200 333 91225 555 22007 30106 436011 60159 356006 358005 354006 358006 3520 348019 347018;
0183994160999992010120702004+34617-076517FM-12+0005CLKN7V0202901N010319999999N9999999N1+00251-00771101201ADDMD1110081+9999OA139901291REMSYN146CMAN  07024 CLKN7 46/// /2920 10025 21077 40120 51008 90200 333 91225 555 22007 30106 436011 60159 356006 358005 354006 358006 3520 348019 347018;
0183994160999992010120702004+34617-076517FM-12+0005CLKN7V0202901N010319999999N9999999N1+00251-00771101201ADDMD1110081+9999OA139901291REMSYN146CMAN  07024 CLKN7 46/// /2920 10025 21077 40120 51008 90200 333 91225 555 22007 30106 436011 60159 356006 358005 354006 358006 3520 348019 347018;
0183994160999992010120702004+34617-076517FM-12+0005CLKN7V0202901N010319999999N9999999N1+00251-00771101201ADDMD1110081+9999OA139901291REMSYN146CMAN  07024 CLKN7 46/// /2920 10025 21077 40120 51008 90200 333 91225 555 22007 30106 436011 60159 356006 358005 354006 358006 3520 348019 347018;
0183994160999992010120702004+34617-076517FM-12+0005CLKN7V0202901N010319999999N9999999N1+00251-00771101201ADDMD1110081+9999OA139901291REMSYN146CMAN  07024 CLKN7 46/// /2920 10025 21077 40120 51008 90200 333 91225 555 22007 30106 436011 60159 356006 358005 354006 358006 3520 348019 347018;
0183994160999992010120702004+34617-076517FM-12+0005CLKN7V0202901N010319999999N9999999N1+00251-00771101201ADDMD1110081+9999OA139901291REMSYN146CMAN  07024 CLKN7 46/// /2920 10025 21077 40120 51008 90200 333 91225 555 22007 30106 436011 60159 356006 358005 354006 358006 3520 348019 347018;
0183994160999992010120702004+34617-076517FM-12+0005CLKN7V0202901N010319999999N9999999N1+00251-00771101201ADDMD1110081+9999OA139901291REMSYN146CMAN  07024 CLKN7 46/// /2920 10025 21077 40120 51008 90200 333 91225 555 22007 30106 436011 60159 356006 358005 354006 358006 3520 348019 347018;
0183994160999992010120702004+34617-076517FM-12+0005CLKN7V0202901N010319999999N9999999N1+00251-00771101201ADDMD1110081+9999OA139901291REMSYN146CMAN  07024 CLKN7 46/// /2920 10025 21077 40120 51008 90200 333 91225 555 22007 30106 436011 60159 356006 358005 354006 358006 3520 348019 347018;
0183994160999992010120702004+34617-076517FM-12+0005CLKN7V0202901N010319999999N9999999N1+00251-00771101201ADDMD1110081+9999OA139901291REMSYN146CMAN  07024 CLKN7 46/// /2920 10025 21077 40120 51008 90200 333 91225 555 22007 30106 436011 60159 356006 358005 354006 358006 3520 348019 347018;
0183994160999992010120702004+34617-076517FM-12+0005CLKN7V0202901N010319999999N9999999N1+00251-00771101201ADDMD1110081+9999OA139901291REMSYN146CMAN  07024 CLKN7 46/// /2920 10025 21077 40120 51008 90200 333 91225 555 22007 30106 436011 60159 356006 358005 354006 358006 3520 348019 347018;
0183994160999992010120702004+34617-076517FM-12+0005CLKN7V0202901N010319999999N9999999N1+00251-00771101201ADDMD1110081+9999OA139901291REMSYN146CMAN  07024 CLKN7 46/// /2920 10025 21077 40120 51008 90200 333 91225 555 22007 30106 436011 60159 356006 358005 354006 358006 3520 348019 347018;
0183994160999992010120702004+34617-076517FM-12+0005CLKN7V0202901N010319999999N9999999N1+00251-00771101201ADDMD1110081+9999OA139901291REMSYN146CMAN  07024 CLKN7 46/// /2920 10025 21077 40120 51008 90200 333 91225 555 22007 30106 436011 60159 356006 358005 354006 358006 3520 348019 347018;
0183994160999992010120702004+34617-076517FM-12+0005CLKN7V0202901N010319999999N9999999N1+00251-00771101201ADDMD1110081+9999OA139901291REMSYN146CMAN  07024 CLKN7 46/// /2920 10025 21077 40120 51008 90200 333 91225 555 22007 30106 436011 60159 356006 358005 354006 358006 3520 348019 347018;
0183994160999992010120702004+34617-076517FM-12+0005CLKN7V0202901N010319999999N9999999N1+00251-00771101201ADDMD1110081+9999OA139901291REMSYN146CMAN  07024 CLKN7 46/// /2920 10025 21077 40120 51008 90200 333 91225 555 22007 30106 436011 60159 356006 358005 354006 358006 3520 348019 347018;
0183994160999992010120702004+34617-076517FM-12+0005CLKN7V0202901N010319999999N9999999N1+00251-00771101201ADDMD1110081+9999OA139901291REMSYN146CMAN  07024 CLKN7 46/// /2920 10025 21077 40120 51008 90200 333 91225 555 22007 30106 436011 60159 356006 358005 354006 358006 3520 348019 347018;
0183994160999992010120702004+34617-076517FM-12+0005CLKN7V0202901N010319999999N9999999N1+00251-00771101201ADDMD1110081+9999OA139901291REMSYN146CMAN  07024 CLKN7 46/// /2920 10025 21077 40120 51008 90200 333 91225 555 22007 30106 436011 60159 356006 358005 354006 358006 3520 348019 347018;
0183994160999992010120702004+34617-076517FM-12+0005CLKN7V0202901N010319999999N9999999N1+00251-00771101201ADDMD1110081+9999OA139901291REMSYN146CMAN  07024 CLKN7 46/// /2920 10025 21077 40120 51008 90200 333 91225 555 22007 30106 436011 60159 356006 358005 354006 358006 3520 348019 347018;
0183994160999992010120702004+34617-076517FM-12+0005CLKN7V0202901N010319999999N9999999N1+00251-00771101201ADDMD1110081+9999OA139901291REMSYN146CMAN  07024 CLKN7 46/// /2920 10025 21077 40120 51008 90200 333 91225 555 22007 30106 436011 60159 356006 358005 354006 358006 3520 348019 347018;
0183994160999992010120702004+34617-076517FM-12+0005CLKN7V0202901N010319999999N9999999N1+00251-00771101201ADDMD1110081+9999OA139901291REMSYN146CMAN  07024 CLKN7 46/// /2920 10025 21077 40120 51008 90200 333 91225 555 22007 30106 436011 60159 356006 358005 354006 358006 3520 348019 347018;
0183994160999992010120702004+34617-076517FM-12+0005CLKN7V0202901N010319999999N9999999N1+00251-00771101201ADDMD1110081+9999OA139901291REMSYN146CMAN  07024 CLKN7 46/// /2920 10025 21077 40120 51008 90200 333 91225 555 22007 30106 436011 60159 356006 358005 354006 358006 3520 348019 347018;
0183994160999992010120702004+34617-076517FM-12+0005CLKN7V0202901N010319999999N9999999N1+00251-00771101201ADDMD1110081+9999OA139901291REMSYN146CMAN  07024 CLKN7 46/// /2920 10025 21077 40120 51008 90200 333 91225 555 22007 30106 436011 60159 356006 358005 354006 358006 3520 348019 347018;
0183994160999992010120702004+34617-076517FM-12+0005CLKN7V0202901N010319999999N9999999N1+00251-00771101201ADDMD1110081+9999OA139901291REMSYN146CMAN  07024 CLKN7 46/// /2920 10025 21077 40120 51008 90200 333 91225 555 22007 30106 436011 60159 356006 358005 354006 358006 3520 348019 347018;
0183994160999992010120702004+34617-076517FM-12+0005CLKN7V0202901N010319999999N9999999N1+00251-00771101201ADDMD1110081+9999OA139901291REMSYN146CMAN  07024 CLKN7 46/// /2920 10025 21077 40120 51008 90200 333 91225 555 22007 30106 436011 60159 356006 358005 354006 358006 3520 348019 347018;
0183994160999992010120702004+34617-076517FM-12+0005CLKN7V0202901N010319999999N9999999N1+00251-00771101201ADDMD1110081+9999OA139901291REMSYN146CMAN  07024 CLKN7 46/// /2920 10025 21077 40120 51008 90200 333 91225 555 22007 30106 436011 60159 356006 358005 354006 358006 3520 348019 347018;
0183994160999992010120702004+34617-076517FM-12+0005CLKN7V0202901N010319999999N9999999N1+00251-00771101201ADDMD1110081+9999OA139901291REMSYN146CMAN  07024 CLKN7 46/// /2920 10025 21077 40120 51008 90200 333 91225 555 22007 30106 436011 60159 356006 358005 354006 358006 3520 348019 347018;
0183994160999992010120702004+34617-076517FM-12+0005CLKN7V0202901N010319999999N9999999N1+00251-00771101201ADDMD1110081+9999OA139901291REMSYN146CMAN  07024 CLKN7 46/// /2920 10025 21077 40120 51008 90200 333 91225 555 22007 30106 436011 60159 356006 358005 354006 358006 3520 348019 347018;
0183994160999992010120702004+34617-076517FM-12+0005CLKN7V0202901N010319999999N9999999N1+00251-00771101201ADDMD1110081+9999OA139901291REMSYN146CMAN  07024 CLKN7 46/// /2920 10025 21077 40120 51008 90200 333 91225 555 22007 30106 436011 60159 356006 358005 354006 358006 3520 348019 347018;
0183994160999992010120702004+34617-076517FM-12+0005CLKN7V0202901N010319999999N9999999N1+00251-00771101201ADDMD1110081+9999OA139901291REMSYN146CMAN  07024 CLKN7 46/// /2920 10025 21077 40120 51008 90200 333 91225 555 22007 30106 436011 60159 356006 358005 354006 358006 3520 348019 347018;
0183994160999992010120702004+34617-076517FM-12+0005CLKN7V0202901N010319999999N9999999N1+00251-00771101201ADDMD1110081+9999OA139901291REMSYN146CMAN  07024 CLKN7 46/// /2920 10025 21077 40120 51008 90200 333 91225 555 22007 30106 436011 60159 356006 358005 354006 358006 3520 348019 347018;
0183994160999992010120702004+34617-076517FM-12+0005CLKN7V0202901N010319999999N9999999N1+00251-00771101201ADDMD1110081+9999OA139901291REMSYN146CMAN  07024 CLKN7 46/// /2920 10025 21077 40120 51008 90200 333 91225 555 22007 30106 436011 60159 356006 358005 354006 358006 3520 348019 347018;
0183994160999992010120702004+34617-076517FM-12+0005CLKN7V0202901N010319999999N9999999N1+00251-00771101201ADDMD1110081+9999OA139901291REMSYN146CMAN  07024 CLKN7 46/// /2920 10025 21077 40120 51008 90200 333 91225 555 22007 30106 436011 60159 356006 358005 354006 358006 3520 348019 347018;
0183994160999992010120702004+34617-076517FM-12+0005CLKN7V0202901N010319999999N9999999N1+00251-00771101201ADDMD1110081+9999OA139901291REMSYN146CMAN  07024 CLKN7 46/// /2920 10025 21077 40120 51008 90200 333 91225 555 22007 30106 436011 60159 356006 358005 354006 358006 3520 348019 347018;
0183994160999992010120702004+34617-076517FM-12+0005CLKN7V0202901N010319999999N9999999N1+00251-00771101201ADDMD1110081+9999OA139901291REMSYN146CMAN  07024 CLKN7 46/// /2920 10025 21077 40120 51008 90200 333 91225 555 22007 30106 436011 60159 356006 358005 354006 358006 3520 348019 347018;
0183994160999992010120702004+34617-076517FM-12+0005CLKN7V0202901N010319999999N9999999N1+00251-00771101201ADDMD1110081+9999OA139901291REMSYN146CMAN  07024 CLKN7 46/// /2920 10025 21077 40120 51008 90200 333 91225 555 22007 30106 436011 60159 356006 358005 354006 358006 3520 348019 347018;
0183994160999992010120702004+34617-076517FM-12+0005CLKN7V0202901N010319999999N9999999N1+00251-00771101201ADDMD1110081+9999OA139901291REMSYN146CMAN  07024 CLKN7 46/// /2920 10025 21077 40120 51008 90200 333 91225 555 22007 30106 436011 60159 356006 358005 354006 358006 3520 348019 347018;
0183994160999992010120702004+34617-076517FM-12+0005CLKN7V0202901N010319999999N9999999N1+00251-00771101201ADDMD1110081+9999OA139901291REMSYN146CMAN  07024 CLKN7 46/// /2920 10025 21077 40120 51008 90200 333 91225 555 22007 30106 436011 60159 356006 358005 354006 358006 3520 348019 347018;
0183994160999992010120702004+34617-076517FM-12+0005CLKN7V0202901N010319999999N9999999N1+00251-00771101201ADDMD1110081+9999OA139901291REMSYN146CMAN  07024 CLKN7 46/// /2920 10025 21077 40120 51008 90200 333 91225 555 22007 30106 436011 60159 356006 358005 354006 358006 3520 348019 347018;
0183994160999992010120702004+34617-076517FM-12+0005CLKN7V0202901N010319999999N9999999N1+00251-00771101201ADDMD1110081+9999OA139901291REMSYN146CMAN  07024 CLKN7 46/// /2920 10025 21077 40120 51008 90200 333 91225 555 22007 30106 436011 60159 356006 358005 354006 358006 3520 348019 347018;
0183994160999992010120702004+34617-076517FM-12+0005CLKN7V0202901N010319999999N9999999N1+00251-00771101201ADDMD1110081+9999OA139901291REMSYN146CMAN  07024 CLKN7 46/// /2920 10025 21077 40120 51008 90200 333 91225 555 22007 30106 436011 60159 356006 358005 354006 358006 3520 348019 347018;
0183994160999992010120702004+34617-076517FM-12+0005CLKN7V0202901N010319999999N9999999N1+00251-00771101201ADDMD1110081+9999OA139901291REMSYN146CMAN  07024 CLKN7 46/// /2920 10025 21077 40120 51008 90200 333 91225 555 22007 30106 436011 60159 356006 358005 354006 358006 3520 348019 347018;
0183994160999992010120702004+34617-076517FM-12+0005CLKN7V0202901N010319999999N9999999N1+00251-00771101201ADDMD1110081+9999OA139901291REMSYN146CMAN  07024 CLKN7 46/// /2920 10025 21077 40120 51008 90200 333 91225 555 22007 30106 436011 60159 356006 358005 354006 358006 3520 348019 347018;
0183994160999992010120702004+34617-076517FM-12+0005CLKN7V0202901N010319999999N9999999N1+00251-00771101201ADDMD1110081+9999OA139901291REMSYN146CMAN  07024 CLKN7 46/// /2920 10025 21077 40120 51008 90200 333 91225 555 22007 30106 436011 60159 356006 358005 354006 358006 3520 348019 347018;
0183994160999992010120702004+34617-076517FM-12+0005CLKN7V0202901N010319999999N9999999N1+00251-00771101201ADDMD1110081+9999OA139901291REMSYN146CMAN  07024 CLKN7 46/// /2920 10025 21077 40120 51008 90200 333 91225 555 22007 30106 436011 60159 356006 358005 354006 358006 3520 348019 347018;
0183994160999992010120702004+34617-076517FM-12+0005CLKN7V0202901N010319999999N9999999N1+00251-00771101201ADDMD1110081+9999OA139901291REMSYN146CMAN  07024 CLKN7 46/// /2920 10025 21077 40120 51008 90200 333 91225 555 22007 30106 436011 60159 356006 358005 354006 358006 3520 348019 347018;
0183994160999992010120702004+34617-076517FM-12+0005CLKN7V0202901N010319999999N9999999N1+00251-00771101201ADDMD1110081+9999OA139901291REMSYN146CMAN  07024 CLKN7 46/// /2920 10025 21077 40120 51008 90200 333 91225 555 22007 30106 436011 60159 356006 358005 354006 358006 3520 348019 347018;
0183994160999992010120702004+34617-076517FM-12+0005CLKN7V0202901N010319999999N9999999N1+00251-00771101201ADDMD1110081+9999OA139901291REMSYN146CMAN  07024 CLKN7 46/// /2920 10025 21077 40120 51008 90200 333 91225 555 22007 30106 436011 60159 356006 358005 354006 358006 3520 348019 347018;
0183994160999992010120702004+34617-076517FM-12+0005CLKN7V0202901N010319999999N9999999N1+00251-00771101201ADDMD1110081+9999OA139901291REMSYN146CMAN  07024 CLKN7 46/// /2920 10025 21077 40120 51008 90200 333 91225 555 22007 30106 436011 60159 356006 358005 354006 358006 3520 348019 347018;
0183994160999992010120702004+34617-076517FM-12+0005CLKN7V0202901N010319999999N9999999N1+00251-00771101201ADDMD1110081+9999OA139901291REMSYN146CMAN  07024 CLKN7 46/// /2920 10025 21077 40120 51008 90200 333 91225 555 22007 30106 436011 60159 356006 358005 354006 358006 3520 348019 347018;
0183994160999992010120702004+34617-076517FM-12+0005CLKN7V0202901N010319999999N9999999N1+00251-00771101201ADDMD1110081+9999OA139901291REMSYN146CMAN  07024 CLKN7 46/// /2920 10025 21077 40120 51008 90200 333 91225 555 22007 30106 436011 60159 356006 358005 354006 358006 3520 348019 347018;
0183994160999992010120702004+34617-076517FM-12+0005CLKN7V0202901N010319999999N9999999N1+00251-00771101201ADDMD1110081+9999OA139901291REMSYN146CMAN  07024 CLKN7 46/// /2920 10025 21077 40120 51008 90200 333 91225 555 22007 30106 436011 60159 356006 358005 354006 358006 3520 348019 347018;
0183994160999992010120702004+34617-076517FM-12+0005CLKN7V0202901N010319999999N9999999N1+00251-00771101201ADDMD1110081+9999OA139901291REMSYN146CMAN  07024 CLKN7 46/// /2920 10025 21077 40120 51008 90200 333 91225 555 22007 30106 436011 60159 356006 358005 354006 358006 3520 348019 347018;
0183994160999992010120702004+34617-076517FM-12+0005CLKN7V0202901N010319999999N9999999N1+00251-00771101201ADDMD1110081+9999OA139901291REMSYN146CMAN  07024 CLKN7 46/// /2920 10025 21077 40120 51008 90200 333 91225 555 22007 30106 436011 60159 356006 358005 354006 358006 3520 348019 347018;
0183994160999992010120702004+34617-076517FM-12+0005CLKN7V0202901N010319999999N9999999N1+00251-00771101201ADDMD1110081+9999OA139901291REMSYN146CMAN  07024 CLKN7 46/// /2920 10025 21077 40120 51008 90200 333 91225 555 22007 30106 436011 60159 356006 358005 354006 358006 3520 348019 347018;
0183994160999992010120702004+34617-076517FM-12+0005CLKN7V0202901N010319999999N9999999N1+00251-00771101201ADDMD1110081+9999OA139901291REMSYN146CMAN  07024 CLKN7 46/// /2920 10025 21077 40120 51008 90200 333 91225 555 22007 30106 436011 60159 356006 358005 354006 358006 3520 348019 347018;
0183994160999992010120702004+34617-076517FM-12+0005CLKN7V0202901N010319999999N9999999N1+00251-00771101201ADDMD1110081+9999OA139901291REMSYN146CMAN  07024 CLKN7 46/// /2920 10025 21077 40120 51008 90200 333 91225 555 22007 30106 436011 60159 356006 358005 354006 358006 3520 348019 347018;
0183994160999992010120702004+34617-076517FM-12+0005CLKN7V0202901N010319999999N9999999N1+00251-00771101201ADDMD1110081+9999OA139901291REMSYN146CMAN  07024 CLKN7 46/// /2920 10025 21077 40120 51008 90200 333 91225 555 22007 30106 436011 60159 356006 358005 354006 358006 3520 348019 347018;
0183994160999992010120702004+34617-076517FM-12+0005CLKN7V0202901N010319999999N9999999N1+00251-00771101201ADDMD1110081+9999OA139901291REMSYN146CMAN  07024 CLKN7 46/// /2920 10025 21077 40120 51008 90200 333 91225 555 22007 30106 436011 60159 356006 358005 354006 358006 3520 348019 347018;
0183994160999992010120702004+34617-076517FM-12+0005CLKN7V0202901N010319999999N9999999N1+00251-00771101201ADDMD1110081+9999OA139901291REMSYN146CMAN  07024 CLKN7 46/// /2920 10025 21077 40120 51008 90200 333 91225 555 22007 30106 436011 60159 356006 358005 354006 358006 3520 348019 347018;
0183994160999992010120702004+34617-076517FM-12+0005CLKN7V0202901N010319999999N9999999N1+00251-00771101201ADDMD1110081+9999OA139901291REMSYN146CMAN  07024 CLKN7 46/// /2920 10025 21077 40120 51008 90200 333 91225 555 22007 30106 436011 60159 356006 358005 354006 358006 3520 348019 347018;
0183994160999992010120702004+34617-076517FM-12+0005CLKN7V0202901N010319999999N9999999N1+00251-00771101201ADDMD1110081+9999OA139901291REMSYN146CMAN  07024 CLKN7 46/// /2920 10025 21077 40120 51008 90200 333 91225 555 22007 30106 436011 60159 356006 358005 354006 358006 3520 348019 347018;
0183994160999992010120702004+34617-076517FM-12+0005CLKN7V0202901N010319999999N9999999N1+00251-00771101201ADDMD1110081+9999OA139901291REMSYN146CMAN  07024 CLKN7 46/// /2920 10025 21077 40120 51008 90200 333 91225 555 22007 30106 436011 60159 356006 358005 354006 358006 3520 348019 347018;
0183994160999992010120702004+34617-076517FM-12+0005CLKN7V0202901N010319999999N9999999N1+00251-00771101201ADDMD1110081+9999OA139901291REMSYN146CMAN  07024 CLKN7 46/// /2920 10025 21077 40120 51008 90200 333 91225 555 22007 30106 436011 60159 356006 358005 354006 358006 3520 348019 347018;
0183994160999992010120702004+34617-076517FM-12+0005CLKN7V0202901N010319999999N9999999N1+00251-00771101201ADDMD1110081+9999OA139901291REMSYN146CMAN  07024 CLKN7 46/// /2920 10025 21077 40120 51008 90200 333 91225 555 22007 30106 436011 60159 356006 358005 354006 358006 3520 348019 347018;
0183994160999992010120702004+34617-076517FM-12+0005CLKN7V0202901N010319999999N9999999N1+00251-00771101201ADDMD1110081+9999OA139901291REMSYN146CMAN  07024 CLKN7 46/// /2920 10025 21077 40120 51008 90200 333 91225 555 22007 30106 436011 60159 356006 358005 354006 358006 3520 348019 347018;
0183994160999992010120702004+34617-076517FM-12+0005CLKN7V0202901N010319999999N9999999N1+00251-00771101201ADDMD1110081+9999OA139901291REMSYN146CMAN  07024 CLKN7 46/// /2920 10025 21077 40120 51008 90200 333 91225 555 22007 30106 436011 60159 356006 358005 354006 358006 3520 348019 347018;
0183994160999992010120702004+34617-076517FM-12+0005CLKN7V0202901N010319999999N9999999N1+00251-00771101201ADDMD1110081+9999OA139901291REMSYN146CMAN  07024 CLKN7 46/// /2920 10025 21077 40120 51008 90200 333 91225 555 22007 30106 436011 60159 356006 358005 354006 358006 3520 348019 347018;
0183994160999992010120702004+34617-076517FM-12+0005CLKN7V0202901N010319999999N9999999N1+00251-00771101201ADDMD1110081+9999OA139901291REMSYN146CMAN  07024 CLKN7 46/// /2920 10025 21077 40120 51008 90200 333 91225 555 22007 30106 436011 60159 356006 358005 354006 358006 3520 348019 347018;
0183994160999992010120702004+34617-076517FM-12+0005CLKN7V0202901N010319999999N9999999N1+00251-00771101201ADDMD1110081+9999OA139901291REMSYN146CMAN  07024 CLKN7 46/// /2920 10025 21077 40120 51008 90200 333 91225 555 22007 30106 436011 60159 356006 358005 354006 358006 3520 348019 347018;
0183994160999992010120702004+34617-076517FM-12+0005CLKN7V0202901N010319999999N9999999N1+00251-00771101201ADDMD1110081+9999OA139901291REMSYN146CMAN  07024 CLKN7 46/// /2920 10025 21077 40120 51008 90200 333 91225 555 22007 30106 436011 60159 356006 358005 354006 358006 3520 348019 347018;
0183994160999992010120702004+34617-076517FM-12+0005CLKN7V0202901N010319999999N9999999N1+00251-00771101201ADDMD1110081+9999OA139901291REMSYN146CMAN  07024 CLKN7 46/// /2920 10025 21077 40120 51008 90200 333 91225 555 22007 30106 436011 60159 356006 358005 354006 358006 3520 348019 347018;
0183994160999992010120702004+34617-076517FM-12+0005CLKN7V0202901N010319999999N9999999N1+00251-00771101201ADDMD1110081+9999OA139901291REMSYN146CMAN  07024 CLKN7 46/// /2920 10025 21077 40120 51008 90200 333 91225 555 22007 30106 436011 60159 356006 358005 354006 358006 3520 348019 347018;
0183994160999992010120702004+34617-076517FM-12+0005CLKN7V0202901N010319999999N9999999N1+00251-00771101201ADDMD1110081+9999OA139901291REMSYN146CMAN  07024 CLKN7 46/// /2920 10025 21077 40120 51008 90200 333 91225 555 22007 30106 436011 60159 356006 358005 354006 358006 3520 348019 347018;
0183994160999992010120702004+34617-076517FM-12+0005CLKN7V0202901N010319999999N9999999N1+00251-00771101201ADDMD1110081+9999OA139901291REMSYN146CMAN  07024 CLKN7 46/// /2920 10025 21077 40120 51008 90200 333 91225 555 22007 30106 436011 60159 356006 358005 354006 358006 3520 348019 347018;
0183994160999992010120702004+34617-076517FM-12+0005CLKN7V0202901N010319999999N9999999N1+00251-00771101201ADDMD1110081+9999OA139901291REMSYN146CMAN  07024 CLKN7 46/// /2920 10025 21077 40120 51008 90200 333 91225 555 22007 30106 436011 60159 356006 358005 354006 358006 3520 348019 347018;
0183994160999992010120702004+34617-076517FM-12+0005CLKN7V0202901N010319999999N9999999N1+00251-00771101201ADDMD1110081+9999OA139901291REMSYN146CMAN  07024 CLKN7 46/// /2920 10025 21077 40120 51008 90200 333 91225 555 22007 30106 436011 60159 356006 358005 354006 358006 3520 348019 347018;
0183994160999992010120702004+34617-076517FM-12+0005CLKN7V0202901N010319999999N9999999N1+00251-00771101201ADDMD1110081+9999OA139901291REMSYN146CMAN  07024 CLKN7 46/// /2920 10025 21077 40120 51008 90200 333 91225 555 22007 30106 436011 60159 356006 358005 354006 358006 3520 348019 347018;
