0072820910999992011082702004-00883-052600FM-15+0206SBMD V0209999C000019999999Y0099001N1+02301+02301999999ADDMA1101591999999REMMET045METAR SBMD 270200Z 00000KT CAVOK 23/23 Q1016;
0072820910999992011082702004-00883-052600FM-15+0206SBMD V0209999C000019999999Y0099001N1+02301+02301999999ADDMA1101591999999REMMET045METAR SBMD 270200Z 00000KT CAVOK 23/23 Q1016;
0072820910999992011082702004-00883-052600FM-15+0206SBMD V0209999C000019999999Y0099001N1+02301+02301999999ADDMA1101591999999REMMET045METAR SBMD 270200Z 00000KT CAVOK 23/23 Q1016;
0072820910999992011082702004-00883-052600FM-15+0206SBMD V0209999C000019999999Y0099001N1+02301+02301999999ADDMA1101591999999REMMET045METAR SBMD 270200Z 00000KT CAVOK 23/23 Q1016;
0072820910999992011082702004-00883-052600FM-15+0206SBMD V0209999C000019999999Y0099001N1+02301+02301999999ADDMA1101591999999REMMET045METAR SBMD 270200Z 00000KT CAVOK 23/23 Q1016;
0072820910999992011082702004-00883-052600FM-15+0206SBMD V0209999C000019999999Y0099001N1+02301+02301999999ADDMA1101591999999REMMET045METAR SBMD 270200Z 00000KT CAVOK 23/23 Q1016;
0072820910999992011082702004-00883-052600FM-15+0206SBMD V0209999C000019999999Y0099001N1+02301+02301999999ADDMA1101591999999REMMET045METAR SBMD 270200Z 00000KT CAVOK 23/23 Q1016;
0072820910999992011082702004-00883-052600FM-15+0206SBMD V0209999C000019999999Y0099001N1+02301+02301999999ADDMA1101591999999REMMET045METAR SBMD 270200Z 00000KT CAVOK 23/23 Q1016;
0072820910999992011082702004-00883-052600FM-15+0206SBMD V0209999C000019999999Y0099001N1+02301+02301999999ADDMA1101591999999REMMET045METAR SBMD 270200Z 00000KT CAVOK 23/23 Q1016;
0072820910999992011082702004-00883-052600FM-15+0206SBMD V0209999C000019999999Y0099001N1+02301+02301999999ADDMA1101591999999REMMET045METAR SBMD 270200Z 00000KT CAVOK 23/23 Q1016;
0072820910999992011082702004-00883-052600FM-15+0206SBMD V0209999C000019999999Y0099001N1+02301+02301999999ADDMA1101591999999REMMET045METAR SBMD 270200Z 00000KT CAVOK 23/23 Q1016;
0072820910999992011082702004-00883-052600FM-15+0206SBMD V0209999C000019999999Y0099001N1+02301+02301999999ADDMA1101591999999REMMET045METAR SBMD 270200Z 00000KT CAVOK 23/23 Q1016;
0072820910999992011082702004-00883-052600FM-15+0206SBMD V0209999C000019999999Y0099001N1+02301+02301999999ADDMA1101591999999REMMET045METAR SBMD 270200Z 00000KT CAVOK 23/23 Q1016;
0072820910999992011082702004-00883-052600FM-15+0206SBMD V0209999C000019999999Y0099001N1+02301+02301999999ADDMA1101591999999REMMET045METAR SBMD 270200Z 00000KT CAVOK 23/23 Q1016;
0072820910999992011082702004-00883-052600FM-15+0206SBMD V0209999C000019999999Y0099001N1+02301+02301999999ADDMA1101591999999REMMET045METAR SBMD 270200Z 00000KT CAVOK 23/23 Q1016;
0072820910999992011082702004-00883-052600FM-15+0206SBMD V0209999C000019999999Y0099001N1+02301+02301999999ADDMA1101591999999REMMET045METAR SBMD 270200Z 00000KT CAVOK 23/23 Q1016;
0072820910999992011082702004-00883-052600FM-15+0206SBMD V0209999C000019999999Y0099001N1+02301+02301999999ADDMA1101591999999REMMET045METAR SBMD 270200Z 00000KT CAVOK 23/23 Q1016;
0072820910999992011082702004-00883-052600FM-15+0206SBMD V0209999C000019999999Y0099001N1+02301+02301999999ADDMA1101591999999REMMET045METAR SBMD 270200Z 00000KT CAVOK 23/23 Q1016;
0072820910999992011082702004-00883-052600FM-15+0206SBMD V0209999C000019999999Y0099001N1+02301+02301999999ADDMA1101591999999REMMET045METAR SBMD 270200Z 00000KT CAVOK 23/23 Q1016;
0072820910999992011082702004-00883-052600FM-15+0206SBMD V0209999C000019999999Y0099001N1+02301+02301999999ADDMA1101591999999REMMET045METAR SBMD 270200Z 00000KT CAVOK 23/23 Q1016;
0072820910999992011082702004-00883-052600FM-15+0206SBMD V0209999C000019999999Y0099001N1+02301+02301999999ADDMA1101591999999REMMET045METAR SBMD 270200Z 00000KT CAVOK 23/23 Q1016;
0072820910999992011082702004-00883-052600FM-15+0206SBMD V0209999C000019999999Y0099001N1+02301+02301999999ADDMA1101591999999REMMET045METAR SBMD 270200Z 00000KT CAVOK 23/23 Q1016;
0072820910999992011082702004-00883-052600FM-15+0206SBMD V0209999C000019999999Y0099001N1+02301+02301999999ADDMA1101591999999REMMET045METAR SBMD 270200Z 00000KT CAVOK 23/23 Q1016;
0072820910999992011082702004-00883-052600FM-15+0206SBMD V0209999C000019999999Y0099001N1+02301+02301999999ADDMA1101591999999REMMET045METAR SBMD 270200Z 00000KT CAVOK 23/23 Q1016;
0072820910999992011082702004-00883-052600FM-15+0206SBMD V0209999C000019999999Y0099001N1+02301+02301999999ADDMA1101591999999REMMET045METAR SBMD 270200Z 00000KT CAVOK 23/23 Q1016;
0072820910999992011082702004-00883-052600FM-15+0206SBMD V0209999C000019999999Y0099001N1+02301+02301999999ADDMA1101591999999REMMET045METAR SBMD 270200Z 00000KT CAVOK 23/23 Q1016;
0072820910999992011082702004-00883-052600FM-15+0206SBMD V0209999C000019999999Y0099001N1+02301+02301999999ADDMA1101591999999REMMET045METAR SBMD 270200Z 00000KT CAVOK 23/23 Q1016;
0072820910999992011082702004-00883-052600FM-15+0206SBMD V0209999C000019999999Y0099001N1+02301+02301999999ADDMA1101591999999REMMET045METAR SBMD 270200Z 00000KT CAVOK 23/23 Q1016;
0072820910999992011082702004-00883-052600FM-15+0206SBMD V0209999C000019999999Y0099001N1+02301+02301999999ADDMA1101591999999REMMET045METAR SBMD 270200Z 00000KT CAVOK 23/23 Q1016;
0072820910999992011082702004-00883-052600FM-15+0206SBMD V0209999C000019999999Y0099001N1+02301+02301999999ADDMA1101591999999REMMET045METAR SBMD 270200Z 00000KT CAVOK 23/23 Q1016;
0072820910999992011082702004-00883-052600FM-15+0206SBMD V0209999C000019999999Y0099001N1+02301+02301999999ADDMA1101591999999REMMET045METAR SBMD 270200Z 00000KT CAVOK 23/23 Q1016;
0072820910999992011082702004-00883-052600FM-15+0206SBMD V0209999C000019999999Y0099001N1+02301+02301999999ADDMA1101591999999REMMET045METAR SBMD 270200Z 00000KT CAVOK 23/23 Q1016;
0072820910999992011082702004-00883-052600FM-15+0206SBMD V0209999C000019999999Y0099001N1+02301+02301999999ADDMA1101591999999REMMET045METAR SBMD 270200Z 00000KT CAVOK 23/23 Q1016;
0072820910999992011082702004-00883-052600FM-15+0206SBMD V0209999C000019999999Y0099001N1+02301+02301999999ADDMA1101591999999REMMET045METAR SBMD 270200Z 00000KT CAVOK 23/23 Q1016;
0072820910999992011082702004-00883-052600FM-15+0206SBMD V0209999C000019999999Y0099001N1+02301+02301999999ADDMA1101591999999REMMET045METAR SBMD 270200Z 00000KT CAVOK 23/23 Q1016;
0072820910999992011082702004-00883-052600FM-15+0206SBMD V0209999C000019999999Y0099001N1+02301+02301999999ADDMA1101591999999REMMET045METAR SBMD 270200Z 00000KT CAVOK 23/23 Q1016;
0072820910999992011082702004-00883-052600FM-15+0206SBMD V0209999C000019999999Y0099001N1+02301+02301999999ADDMA1101591999999REMMET045METAR SBMD 270200Z 00000KT CAVOK 23/23 Q1016;
0072820910999992011082702004-00883-052600FM-15+0206SBMD V0209999C000019999999Y0099001N1+02301+02301999999ADDMA1101591999999REMMET045METAR SBMD 270200Z 00000KT CAVOK 23/23 Q1016;
0072820910999992011082702004-00883-052600FM-15+0206SBMD V0209999C000019999999Y0099001N1+02301+02301999999ADDMA1101591999999REMMET045METAR SBMD 270200Z 00000KT CAVOK 23/23 Q1016;
0072820910999992011082702004-00883-052600FM-15+0206SBMD V0209999C000019999999Y0099001N1+02301+02301999999ADDMA1101591999999REMMET045METAR SBMD 270200Z 00000KT CAVOK 23/23 Q1016;
0072820910999992011082702004-00883-052600FM-15+0206SBMD V0209999C000019999999Y0099001N1+02301+02301999999ADDMA1101591999999REMMET045METAR SBMD 270200Z 00000KT CAVOK 23/23 Q1016;
0072820910999992011082702004-00883-052600FM-15+0206SBMD V0209999C000019999999Y0099001N1+02301+02301999999ADDMA1101591999999REMMET045METAR SBMD 270200Z 00000KT CAVOK 23/23 Q1016;
0072820910999992011082702004-00883-052600FM-15+0206SBMD V0209999C000019999999Y0099001N1+02301+02301999999ADDMA1101591999999REMMET045METAR SBMD 270200Z 00000KT CAVOK 23/23 Q1016;
0072820910999992011082702004-00883-052600FM-15+0206SBMD V0209999C000019999999Y0099001N1+02301+02301999999ADDMA1101591999999REMMET045METAR SBMD 270200Z 00000KT CAVOK 23/23 Q1016;
0072820910999992011082702004-00883-052600FM-15+0206SBMD V0209999C000019999999Y0099001N1+02301+02301999999ADDMA1101591999999REMMET045METAR SBMD 270200Z 00000KT CAVOK 23/23 Q1016;
0072820910999992011082702004-00883-052600FM-15+0206SBMD V0209999C000019999999Y0099001N1+02301+02301999999ADDMA1101591999999REMMET045METAR SBMD 270200Z 00000KT CAVOK 23/23 Q1016;
0072820910999992011082702004-00883-052600FM-15+0206SBMD V0209999C000019999999Y0099001N1+02301+02301999999ADDMA1101591999999REMMET045METAR SBMD 270200Z 00000KT CAVOK 23/23 Q1016;
0072820910999992011082702004-00883-052600FM-15+0206SBMD V0209999C000019999999Y0099001N1+02301+02301999999ADDMA1101591999999REMMET045METAR SBMD 270200Z 00000KT CAVOK 23/23 Q1016;
0072820910999992011082702004-00883-052600FM-15+0206SBMD V0209999C000019999999Y0099001N1+02301+02301999999ADDMA1101591999999REMMET045METAR SBMD 270200Z 00000KT CAVOK 23/23 Q1016;
0072820910999992011082702004-00883-052600FM-15+0206SBMD V0209999C000019999999Y0099001N1+02301+02301999999ADDMA1101591999999REMMET045METAR SBMD 270200Z 00000KT CAVOK 23/23 Q1016;
0072820910999992011082702004-00883-052600FM-15+0206SBMD V0209999C000019999999Y0099001N1+02301+02301999999ADDMA1101591999999REMMET045METAR SBMD 270200Z 00000KT CAVOK 23/23 Q1016;
0072820910999992011082702004-00883-052600FM-15+0206SBMD V0209999C000019999999Y0099001N1+02301+02301999999ADDMA1101591999999REMMET045METAR SBMD 270200Z 00000KT CAVOK 23/23 Q1016;
0072820910999992011082702004-00883-052600FM-15+0206SBMD V0209999C000019999999Y0099001N1+02301+02301999999ADDMA1101591999999REMMET045METAR SBMD 270200Z 00000KT CAVOK 23/23 Q1016;
0072820910999992011082702004-00883-052600FM-15+0206SBMD V0209999C000019999999Y0099001N1+02301+02301999999ADDMA1101591999999REMMET045METAR SBMD 270200Z 00000KT CAVOK 23/23 Q1016;
0072820910999992011082702004-00883-052600FM-15+0206SBMD V0209999C000019999999Y0099001N1+02301+02301999999ADDMA1101591999999REMMET045METAR SBMD 270200Z 00000KT CAVOK 23/23 Q1016;
0072820910999992011082702004-00883-052600FM-15+0206SBMD V0209999C000019999999Y0099001N1+02301+02301999999ADDMA1101591999999REMMET045METAR SBMD 270200Z 00000KT CAVOK 23/23 Q1016;
0072820910999992011082702004-00883-052600FM-15+0206SBMD V0209999C000019999999Y0099001N1+02301+02301999999ADDMA1101591999999REMMET045METAR SBMD 270200Z 00000KT CAVOK 23/23 Q1016;
0072820910999992011082702004-00883-052600FM-15+0206SBMD V0209999C000019999999Y0099001N1+02301+02301999999ADDMA1101591999999REMMET045METAR SBMD 270200Z 00000KT CAVOK 23/23 Q1016;
0072820910999992011082702004-00883-052600FM-15+0206SBMD V0209999C000019999999Y0099001N1+02301+02301999999ADDMA1101591999999REMMET045METAR SBMD 270200Z 00000KT CAVOK 23/23 Q1016;
0072820910999992011082702004-00883-052600FM-15+0206SBMD V0209999C000019999999Y0099001N1+02301+02301999999ADDMA1101591999999REMMET045METAR SBMD 270200Z 00000KT CAVOK 23/23 Q1016;
0072820910999992011082702004-00883-052600FM-15+0206SBMD V0209999C000019999999Y0099001N1+02301+02301999999ADDMA1101591999999REMMET045METAR SBMD 270200Z 00000KT CAVOK 23/23 Q1016;
0072820910999992011082702004-00883-052600FM-15+0206SBMD V0209999C000019999999Y0099001N1+02301+02301999999ADDMA1101591999999REMMET045METAR SBMD 270200Z 00000KT CAVOK 23/23 Q1016;
0072820910999992011082702004-00883-052600FM-15+0206SBMD V0209999C000019999999Y0099001N1+02301+02301999999ADDMA1101591999999REMMET045METAR SBMD 270200Z 00000KT CAVOK 23/23 Q1016;
0072820910999992011082702004-00883-052600FM-15+0206SBMD V0209999C000019999999Y0099001N1+02301+02301999999ADDMA1101591999999REMMET045METAR SBMD 270200Z 00000KT CAVOK 23/23 Q1016;
0072820910999992011082702004-00883-052600FM-15+0206SBMD V0209999C000019999999Y0099001N1+02301+02301999999ADDMA1101591999999REMMET045METAR SBMD 270200Z 00000KT CAVOK 23/23 Q1016;
0072820910999992011082702004-00883-052600FM-15+0206SBMD V0209999C000019999999Y0099001N1+02301+02301999999ADDMA1101591999999REMMET045METAR SBMD 270200Z 00000KT CAVOK 23/23 Q1016;
0072820910999992011082702004-00883-052600FM-15+0206SBMD V0209999C000019999999Y0099001N1+02301+02301999999ADDMA1101591999999REMMET045METAR SBMD 270200Z 00000KT CAVOK 23/23 Q1016;
0072820910999992011082702004-00883-052600FM-15+0206SBMD V0209999C000019999999Y0099001N1+02301+02301999999ADDMA1101591999999REMMET045METAR SBMD 270200Z 00000KT CAVOK 23/23 Q1016;
0072820910999992011082702004-00883-052600FM-15+0206SBMD V0209999C000019999999Y0099001N1+02301+02301999999ADDMA1101591999999REMMET045METAR SBMD 270200Z 00000KT CAVOK 23/23 Q1016;
0072820910999992011082702004-00883-052600FM-15+0206SBMD V0209999C000019999999Y0099001N1+02301+02301999999ADDMA1101591999999REMMET045METAR SBMD 270200Z 00000KT CAVOK 23/23 Q1016;
0072820910999992011082702004-00883-052600FM-15+0206SBMD V0209999C000019999999Y0099001N1+02301+02301999999ADDMA1101591999999REMMET045METAR SBMD 270200Z 00000KT CAVOK 23/23 Q1016;
0072820910999992011082702004-00883-052600FM-15+0206SBMD V0209999C000019999999Y0099001N1+02301+02301999999ADDMA1101591999999REMMET045METAR SBMD 270200Z 00000KT CAVOK 23/23 Q1016;
0072820910999992011082702004-00883-052600FM-15+0206SBMD V0209999C000019999999Y0099001N1+02301+02301999999ADDMA1101591999999REMMET045METAR SBMD 270200Z 00000KT CAVOK 23/23 Q1016;
0072820910999992011082702004-00883-052600FM-15+0206SBMD V0209999C000019999999Y0099001N1+02301+02301999999ADDMA1101591999999REMMET045METAR SBMD 270200Z 00000KT CAVOK 23/23 Q1016;
0072820910999992011082702004-00883-052600FM-15+0206SBMD V0209999C000019999999Y0099001N1+02301+02301999999ADDMA1101591999999REMMET045METAR SBMD 270200Z 00000KT CAVOK 23/23 Q1016;
0072820910999992011082702004-00883-052600FM-15+0206SBMD V0209999C000019999999Y0099001N1+02301+02301999999ADDMA1101591999999REMMET045METAR SBMD 270200Z 00000KT CAVOK 23/23 Q1016;
0072820910999992011082702004-00883-052600FM-15+0206SBMD V0209999C000019999999Y0099001N1+02301+02301999999ADDMA1101591999999REMMET045METAR SBMD 270200Z 00000KT CAVOK 23/23 Q1016;
0072820910999992011082702004-00883-052600FM-15+0206SBMD V0209999C000019999999Y0099001N1+02301+02301999999ADDMA1101591999999REMMET045METAR SBMD 270200Z 00000KT CAVOK 23/23 Q1016;
0072820910999992011082702004-00883-052600FM-15+0206SBMD V0209999C000019999999Y0099001N1+02301+02301999999ADDMA1101591999999REMMET045METAR SBMD 270200Z 00000KT CAVOK 23/23 Q1016;
0072820910999992011082702004-00883-052600FM-15+0206SBMD V0209999C000019999999Y0099001N1+02301+02301999999ADDMA1101591999999REMMET045METAR SBMD 270200Z 00000KT CAVOK 23/23 Q1016;
0072820910999992011082702004-00883-052600FM-15+0206SBMD V0209999C000019999999Y0099001N1+02301+02301999999ADDMA1101591999999REMMET045METAR SBMD 270200Z 00000KT CAVOK 23/23 Q1016;
0072820910999992011082702004-00883-052600FM-15+0206SBMD V0209999C000019999999Y0099001N1+02301+02301999999ADDMA1101591999999REMMET045METAR SBMD 270200Z 00000KT CAVOK 23/23 Q1016;
0072820910999992011082702004-00883-052600FM-15+0206SBMD V0209999C000019999999Y0099001N1+02301+02301999999ADDMA1101591999999REMMET045METAR SBMD 270200Z 00000KT CAVOK 23/23 Q1016;
0072820910999992011082702004-00883-052600FM-15+0206SBMD V0209999C000019999999Y0099001N1+02301+02301999999ADDMA1101591999999REMMET045METAR SBMD 270200Z 00000KT CAVOK 23/23 Q1016;
0072820910999992011082702004-00883-052600FM-15+0206SBMD V0209999C000019999999Y0099001N1+02301+02301999999ADDMA1101591999999REMMET045METAR SBMD 270200Z 00000KT CAVOK 23/23 Q1016;
0072820910999992011082702004-00883-052600FM-15+0206SBMD V0209999C000019999999Y0099001N1+02301+02301999999ADDMA1101591999999REMMET045METAR SBMD 270200Z 00000KT CAVOK 23/23 Q1016;
0072820910999992011082702004-00883-052600FM-15+0206SBMD V0209999C000019999999Y0099001N1+02301+02301999999ADDMA1101591999999REMMET045METAR SBMD 270200Z 00000KT CAVOK 23/23 Q1016;
0072820910999992011082702004-00883-052600FM-15+0206SBMD V0209999C000019999999Y0099001N1+02301+02301999999ADDMA1101591999999REMMET045METAR SBMD 270200Z 00000KT CAVOK 23/23 Q1016;
0072820910999992011082702004-00883-052600FM-15+0206SBMD V0209999C000019999999Y0099001N1+02301+02301999999ADDMA1101591999999REMMET045METAR SBMD 270200Z 00000KT CAVOK 23/23 Q1016;
0072820910999992011082702004-00883-052600FM-15+0206SBMD V0209999C000019999999Y0099001N1+02301+02301999999ADDMA1101591999999REMMET045METAR SBMD 270200Z 00000KT CAVOK 23/23 Q1016;
0072820910999992011082702004-00883-052600FM-15+0206SBMD V0209999C000019999999Y0099001N1+02301+02301999999ADDMA1101591999999REMMET045METAR SBMD 270200Z 00000KT CAVOK 23/23 Q1016;
0072820910999992011082702004-00883-052600FM-15+0206SBMD V0209999C000019999999Y0099001N1+02301+02301999999ADDMA1101591999999REMMET045METAR SBMD 270200Z 00000KT CAVOK 23/23 Q1016;
0072820910999992011082702004-00883-052600FM-15+0206SBMD V0209999C000019999999Y0099001N1+02301+02301999999ADDMA1101591999999REMMET045METAR SBMD 270200Z 00000KT CAVOK 23/23 Q1016;
0072820910999992011082702004-00883-052600FM-15+0206SBMD V0209999C000019999999Y0099001N1+02301+02301999999ADDMA1101591999999REMMET045METAR SBMD 270200Z 00000KT CAVOK 23/23 Q1016;
0072820910999992011082702004-00883-052600FM-15+0206SBMD V0209999C000019999999Y0099001N1+02301+02301999999ADDMA1101591999999REMMET045METAR SBMD 270200Z 00000KT CAVOK 23/23 Q1016;
0072820910999992011082702004-00883-052600FM-15+0206SBMD V0209999C000019999999Y0099001N1+02301+02301999999ADDMA1101591999999REMMET045METAR SBMD 270200Z 00000KT CAVOK 23/23 Q1016;
0072820910999992011082702004-00883-052600FM-15+0206SBMD V0209999C000019999999Y0099001N1+02301+02301999999ADDMA1101591999999REMMET045METAR SBMD 270200Z 00000KT CAVOK 23/23 Q1016;
0072820910999992011082702004-00883-052600FM-15+0206SBMD V0209999C000019999999Y0099001N1+02301+02301999999ADDMA1101591999999REMMET045METAR SBMD 270200Z 00000KT CAVOK 23/23 Q1016;
0072820910999992011082702004-00883-052600FM-15+0206SBMD V0209999C000019999999Y0099001N1+02301+02301999999ADDMA1101591999999REMMET045METAR SBMD 270200Z 00000KT CAVOK 23/23 Q1016;
0072820910999992011082702004-00883-052600FM-15+0206SBMD V0209999C000019999999Y0099001N1+02301+02301999999ADDMA1101591999999REMMET045METAR SBMD 270200Z 00000KT CAVOK 23/23 Q1016;
0072820910999992011082702004-00883-052600FM-15+0206SBMD V0209999C000019999999Y0099001N1+02301+02301999999ADDMA1101591999999REMMET045METAR SBMD 270200Z 00000KT CAVOK 23/23 Q1016;
0072820910999992011082702004-00883-052600FM-15+0206SBMD V0209999C000019999999Y0099001N1+02301+02301999999ADDMA1101591999999REMMET045METAR SBMD 270200Z 00000KT CAVOK 23/23 Q1016;
0072820910999992011082702004-00883-052600FM-15+0206SBMD V0209999C000019999999Y0099001N1+02301+02301999999ADDMA1101591999999REMMET045METAR SBMD 270200Z 00000KT CAVOK 23/23 Q1016;
0072820910999992011082702004-00883-052600FM-15+0206SBMD V0209999C000019999999Y0099001N1+02301+02301999999ADDMA1101591999999REMMET045METAR SBMD 270200Z 00000KT CAVOK 23/23 Q1016;
0072820910999992011082702004-00883-052600FM-15+0206SBMD V0209999C000019999999Y0099001N1+02301+02301999999ADDMA1101591999999REMMET045METAR SBMD 270200Z 00000KT CAVOK 23/23 Q1016;
0072820910999992011082702004-00883-052600FM-15+0206SBMD V0209999C000019999999Y0099001N1+02301+02301999999ADDMA1101591999999REMMET045METAR SBMD 270200Z 00000KT CAVOK 23/23 Q1016;
0072820910999992011082702004-00883-052600FM-15+0206SBMD V0209999C000019999999Y0099001N1+02301+02301999999ADDMA1101591999999REMMET045METAR SBMD 270200Z 00000KT CAVOK 23/23 Q1016;
0072820910999992011082702004-00883-052600FM-15+0206SBMD V0209999C000019999999Y0099001N1+02301+02301999999ADDMA1101591999999REMMET045METAR SBMD 270200Z 00000KT CAVOK 23/23 Q1016;
0072820910999992011082702004-00883-052600FM-15+0206SBMD V0209999C000019999999Y0099001N1+02301+02301999999ADDMA1101591999999REMMET045METAR SBMD 270200Z 00000KT CAVOK 23/23 Q1016;
0072820910999992011082702004-00883-052600FM-15+0206SBMD V0209999C000019999999Y0099001N1+02301+02301999999ADDMA1101591999999REMMET045METAR SBMD 270200Z 00000KT CAVOK 23/23 Q1016;
0072820910999992011082702004-00883-052600FM-15+0206SBMD V0209999C000019999999Y0099001N1+02301+02301999999ADDMA1101591999999REMMET045METAR SBMD 270200Z 00000KT CAVOK 23/23 Q1016;
0072820910999992011082702004-00883-052600FM-15+0206SBMD V0209999C000019999999Y0099001N1+02301+02301999999ADDMA1101591999999REMMET045METAR SBMD 270200Z 00000KT CAVOK 23/23 Q1016;
0072820910999992011082702004-00883-052600FM-15+0206SBMD V0209999C000019999999Y0099001N1+02301+02301999999ADDMA1101591999999REMMET045METAR SBMD 270200Z 00000KT CAVOK 23/23 Q1016;
0072820910999992011082702004-00883-052600FM-15+0206SBMD V0209999C000019999999Y0099001N1+02301+02301999999ADDMA1101591999999REMMET045METAR SBMD 270200Z 00000KT CAVOK 23/23 Q1016;
0072820910999992011082702004-00883-052600FM-15+0206SBMD V0209999C000019999999Y0099001N1+02301+02301999999ADDMA1101591999999REMMET045METAR SBMD 270200Z 00000KT CAVOK 23/23 Q1016;
0072820910999992011082702004-00883-052600FM-15+0206SBMD V0209999C000019999999Y0099001N1+02301+02301999999ADDMA1101591999999REMMET045METAR SBMD 270200Z 00000KT CAVOK 23/23 Q1016;
0072820910999992011082702004-00883-052600FM-15+0206SBMD V0209999C000019999999Y0099001N1+02301+02301999999ADDMA1101591999999REMMET045METAR SBMD 270200Z 00000KT CAVOK 23/23 Q1016;
0072820910999992011082702004-00883-052600FM-15+0206SBMD V0209999C000019999999Y0099001N1+02301+02301999999ADDMA1101591999999REMMET045METAR SBMD 270200Z 00000KT CAVOK 23/23 Q1016;
0072820910999992011082702004-00883-052600FM-15+0206SBMD V0209999C000019999999Y0099001N1+02301+02301999999ADDMA1101591999999REMMET045METAR SBMD 270200Z 00000KT CAVOK 23/23 Q1016;
0072820910999992011082702004-00883-052600FM-15+0206SBMD V0209999C000019999999Y0099001N1+02301+02301999999ADDMA1101591999999REMMET045METAR SBMD 270200Z 00000KT CAVOK 23/23 Q1016;
0072820910999992011082702004-00883-052600FM-15+0206SBMD V0209999C000019999999Y0099001N1+02301+02301999999ADDMA1101591999999REMMET045METAR SBMD 270200Z 00000KT CAVOK 23/23 Q1016;
0072820910999992011082702004-00883-052600FM-15+0206SBMD V0209999C000019999999Y0099001N1+02301+02301999999ADDMA1101591999999REMMET045METAR SBMD 270200Z 00000KT CAVOK 23/23 Q1016;
0072820910999992011082702004-00883-052600FM-15+0206SBMD V0209999C000019999999Y0099001N1+02301+02301999999ADDMA1101591999999REMMET045METAR SBMD 270200Z 00000KT CAVOK 23/23 Q1016;
0072820910999992011082702004-00883-052600FM-15+0206SBMD V0209999C000019999999Y0099001N1+02301+02301999999ADDMA1101591999999REMMET045METAR SBMD 270200Z 00000KT CAVOK 23/23 Q1016;
0072820910999992011082702004-00883-052600FM-15+0206SBMD V0209999C000019999999Y0099001N1+02301+02301999999ADDMA1101591999999REMMET045METAR SBMD 270200Z 00000KT CAVOK 23/23 Q1016;
0072820910999992011082702004-00883-052600FM-15+0206SBMD V0209999C000019999999Y0099001N1+02301+02301999999ADDMA1101591999999REMMET045METAR SBMD 270200Z 00000KT CAVOK 23/23 Q1016;
0072820910999992011082702004-00883-052600FM-15+0206SBMD V0209999C000019999999Y0099001N1+02301+02301999999ADDMA1101591999999REMMET045METAR SBMD 270200Z 00000KT CAVOK 23/23 Q1016;
0072820910999992011082702004-00883-052600FM-15+0206SBMD V0209999C000019999999Y0099001N1+02301+02301999999ADDMA1101591999999REMMET045METAR SBMD 270200Z 00000KT CAVOK 23/23 Q1016;
0072820910999992011082702004-00883-052600FM-15+0206SBMD V0209999C000019999999Y0099001N1+02301+02301999999ADDMA1101591999999REMMET045METAR SBMD 270200Z 00000KT CAVOK 23/23 Q1016;
0072820910999992011082702004-00883-052600FM-15+0206SBMD V0209999C000019999999Y0099001N1+02301+02301999999ADDMA1101591999999REMMET045METAR SBMD 270200Z 00000KT CAVOK 23/23 Q1016;
0072820910999992011082702004-00883-052600FM-15+0206SBMD V0209999C000019999999Y0099001N1+02301+02301999999ADDMA1101591999999REMMET045METAR SBMD 270200Z 00000KT CAVOK 23/23 Q1016;
0072820910999992011082702004-00883-052600FM-15+0206SBMD V0209999C000019999999Y0099001N1+02301+02301999999ADDMA1101591999999REMMET045METAR SBMD 270200Z 00000KT CAVOK 23/23 Q1016;
0072820910999992011082702004-00883-052600FM-15+0206SBMD V0209999C000019999999Y0099001N1+02301+02301999999ADDMA1101591999999REMMET045METAR SBMD 270200Z 00000KT CAVOK 23/23 Q1016;
0072820910999992011082702004-00883-052600FM-15+0206SBMD V0209999C000019999999Y0099001N1+02301+02301999999ADDMA1101591999999REMMET045METAR SBMD 270200Z 00000KT CAVOK 23/23 Q1016;
0072820910999992011082702004-00883-052600FM-15+0206SBMD V0209999C000019999999Y0099001N1+02301+02301999999ADDMA1101591999999REMMET045METAR SBMD 270200Z 00000KT CAVOK 23/23 Q1016;
0072820910999992011082702004-00883-052600FM-15+0206SBMD V0209999C000019999999Y0099001N1+02301+02301999999ADDMA1101591999999REMMET045METAR SBMD 270200Z 00000KT CAVOK 23/23 Q1016;
0072820910999992011082702004-00883-052600FM-15+0206SBMD V0209999C000019999999Y0099001N1+02301+02301999999ADDMA1101591999999REMMET045METAR SBMD 270200Z 00000KT CAVOK 23/23 Q1016;
0072820910999992011082702004-00883-052600FM-15+0206SBMD V0209999C000019999999Y0099001N1+02301+02301999999ADDMA1101591999999REMMET045METAR SBMD 270200Z 00000KT CAVOK 23/23 Q1016;
0072820910999992011082702004-00883-052600FM-15+0206SBMD V0209999C000019999999Y0099001N1+02301+02301999999ADDMA1101591999999REMMET045METAR SBMD 270200Z 00000KT CAVOK 23/23 Q1016;
0072820910999992011082702004-00883-052600FM-15+0206SBMD V0209999C000019999999Y0099001N1+02301+02301999999ADDMA1101591999999REMMET045METAR SBMD 270200Z 00000KT CAVOK 23/23 Q1016;
0072820910999992011082702004-00883-052600FM-15+0206SBMD V0209999C000019999999Y0099001N1+02301+02301999999ADDMA1101591999999REMMET045METAR SBMD 270200Z 00000KT CAVOK 23/23 Q1016;
0072820910999992011082702004-00883-052600FM-15+0206SBMD V0209999C000019999999Y0099001N1+02301+02301999999ADDMA1101591999999REMMET045METAR SBMD 270200Z 00000KT CAVOK 23/23 Q1016;
0072820910999992011082702004-00883-052600FM-15+0206SBMD V0209999C000019999999Y0099001N1+02301+02301999999ADDMA1101591999999REMMET045METAR SBMD 270200Z 00000KT CAVOK 23/23 Q1016;
0072820910999992011082702004-00883-052600FM-15+0206SBMD V0209999C000019999999Y0099001N1+02301+02301999999ADDMA1101591999999REMMET045METAR SBMD 270200Z 00000KT CAVOK 23/23 Q1016;
0072820910999992011082702004-00883-052600FM-15+0206SBMD V0209999C000019999999Y0099001N1+02301+02301999999ADDMA1101591999999REMMET045METAR SBMD 270200Z 00000KT CAVOK 23/23 Q1016;
0072820910999992011082702004-00883-052600FM-15+0206SBMD V0209999C000019999999Y0099001N1+02301+02301999999ADDMA1101591999999REMMET045METAR SBMD 270200Z 00000KT CAVOK 23/23 Q1016;
0072820910999992011082702004-00883-052600FM-15+0206SBMD V0209999C000019999999Y0099001N1+02301+02301999999ADDMA1101591999999REMMET045METAR SBMD 270200Z 00000KT CAVOK 23/23 Q1016;
0072820910999992011082702004-00883-052600FM-15+0206SBMD V0209999C000019999999Y0099001N1+02301+02301999999ADDMA1101591999999REMMET045METAR SBMD 270200Z 00000KT CAVOK 23/23 Q1016;
0072820910999992011082702004-00883-052600FM-15+0206SBMD V0209999C000019999999Y0099001N1+02301+02301999999ADDMA1101591999999REMMET045METAR SBMD 270200Z 00000KT CAVOK 23/23 Q1016;
0072820910999992011082702004-00883-052600FM-15+0206SBMD V0209999C000019999999Y0099001N1+02301+02301999999ADDMA1101591999999REMMET045METAR SBMD 270200Z 00000KT CAVOK 23/23 Q1016;
0072820910999992011082702004-00883-052600FM-15+0206SBMD V0209999C000019999999Y0099001N1+02301+02301999999ADDMA1101591999999REMMET045METAR SBMD 270200Z 00000KT CAVOK 23/23 Q1016;
0072820910999992011082702004-00883-052600FM-15+0206SBMD V0209999C000019999999Y0099001N1+02301+02301999999ADDMA1101591999999REMMET045METAR SBMD 270200Z 00000KT CAVOK 23/23 Q1016;
0072820910999992011082702004-00883-052600FM-15+0206SBMD V0209999C000019999999Y0099001N1+02301+02301999999ADDMA1101591999999REMMET045METAR SBMD 270200Z 00000KT CAVOK 23/23 Q1016;
0072820910999992011082702004-00883-052600FM-15+0206SBMD V0209999C000019999999Y0099001N1+02301+02301999999ADDMA1101591999999REMMET045METAR SBMD 270200Z 00000KT CAVOK 23/23 Q1016;
0072820910999992011082702004-00883-052600FM-15+0206SBMD V0209999C000019999999Y0099001N1+02301+02301999999ADDMA1101591999999REMMET045METAR SBMD 270200Z 00000KT CAVOK 23/23 Q1016;
0072820910999992011082702004-00883-052600FM-15+0206SBMD V0209999C000019999999Y0099001N1+02301+02301999999ADDMA1101591999999REMMET045METAR SBMD 270200Z 00000KT CAVOK 23/23 Q1016;
0072820910999992011082702004-00883-052600FM-15+0206SBMD V0209999C000019999999Y0099001N1+02301+02301999999ADDMA1101591999999REMMET045METAR SBMD 270200Z 00000KT CAVOK 23/23 Q1016;
0072820910999992011082702004-00883-052600FM-15+0206SBMD V0209999C000019999999Y0099001N1+02301+02301999999ADDMA1101591999999REMMET045METAR SBMD 270200Z 00000KT CAVOK 23/23 Q1016;
0072820910999992011082702004-00883-052600FM-15+0206SBMD V0209999C000019999999Y0099001N1+02301+02301999999ADDMA1101591999999REMMET045METAR SBMD 270200Z 00000KT CAVOK 23/23 Q1016;
0072820910999992011082702004-00883-052600FM-15+0206SBMD V0209999C000019999999Y0099001N1+02301+02301999999ADDMA1101591999999REMMET045METAR SBMD 270200Z 00000KT CAVOK 23/23 Q1016;
0072820910999992011082702004-00883-052600FM-15+0206SBMD V0209999C000019999999Y0099001N1+02301+02301999999ADDMA1101591999999REMMET045METAR SBMD 270200Z 00000KT CAVOK 23/23 Q1016;
0072820910999992011082702004-00883-052600FM-15+0206SBMD V0209999C000019999999Y0099001N1+02301+02301999999ADDMA1101591999999REMMET045METAR SBMD 270200Z 00000KT CAVOK 23/23 Q1016;
0072820910999992011082702004-00883-052600FM-15+0206SBMD V0209999C000019999999Y0099001N1+02301+02301999999ADDMA1101591999999REMMET045METAR SBMD 270200Z 00000KT CAVOK 23/23 Q1016;
0072820910999992011082702004-00883-052600FM-15+0206SBMD V0209999C000019999999Y0099001N1+02301+02301999999ADDMA1101591999999REMMET045METAR SBMD 270200Z 00000KT CAVOK 23/23 Q1016;
0072820910999992011082702004-00883-052600FM-15+0206SBMD V0209999C000019999999Y0099001N1+02301+02301999999ADDMA1101591999999REMMET045METAR SBMD 270200Z 00000KT CAVOK 23/23 Q1016;
0072820910999992011082702004-00883-052600FM-15+0206SBMD V0209999C000019999999Y0099001N1+02301+02301999999ADDMA1101591999999REMMET045METAR SBMD 270200Z 00000KT CAVOK 23/23 Q1016;
0072820910999992011082702004-00883-052600FM-15+0206SBMD V0209999C000019999999Y0099001N1+02301+02301999999ADDMA1101591999999REMMET045METAR SBMD 270200Z 00000KT CAVOK 23/23 Q1016;
0072820910999992011082702004-00883-052600FM-15+0206SBMD V0209999C000019999999Y0099001N1+02301+02301999999ADDMA1101591999999REMMET045METAR SBMD 270200Z 00000KT CAVOK 23/23 Q1016;
0072820910999992011082702004-00883-052600FM-15+0206SBMD V0209999C000019999999Y0099001N1+02301+02301999999ADDMA1101591999999REMMET045METAR SBMD 270200Z 00000KT CAVOK 23/23 Q1016;
0072820910999992011082702004-00883-052600FM-15+0206SBMD V0209999C000019999999Y0099001N1+02301+02301999999ADDMA1101591999999REMMET045METAR SBMD 270200Z 00000KT CAVOK 23/23 Q1016;
0072820910999992011082702004-00883-052600FM-15+0206SBMD V0209999C000019999999Y0099001N1+02301+02301999999ADDMA1101591999999REMMET045METAR SBMD 270200Z 00000KT CAVOK 23/23 Q1016;
0072820910999992011082702004-00883-052600FM-15+0206SBMD V0209999C000019999999Y0099001N1+02301+02301999999ADDMA1101591999999REMMET045METAR SBMD 270200Z 00000KT CAVOK 23/23 Q1016;
0072820910999992011082702004-00883-052600FM-15+0206SBMD V0209999C000019999999Y0099001N1+02301+02301999999ADDMA1101591999999REMMET045METAR SBMD 270200Z 00000KT CAVOK 23/23 Q1016;
0072820910999992011082702004-00883-052600FM-15+0206SBMD V0209999C000019999999Y0099001N1+02301+02301999999ADDMA1101591999999REMMET045METAR SBMD 270200Z 00000KT CAVOK 23/23 Q1016;
0072820910999992011082702004-00883-052600FM-15+0206SBMD V0209999C000019999999Y0099001N1+02301+02301999999ADDMA1101591999999REMMET045METAR SBMD 270200Z 00000KT CAVOK 23/23 Q1016;
0072820910999992011082702004-00883-052600FM-15+0206SBMD V0209999C000019999999Y0099001N1+02301+02301999999ADDMA1101591999999REMMET045METAR SBMD 270200Z 00000KT CAVOK 23/23 Q1016;
0072820910999992011082702004-00883-052600FM-15+0206SBMD V0209999C000019999999Y0099001N1+02301+02301999999ADDMA1101591999999REMMET045METAR SBMD 270200Z 00000KT CAVOK 23/23 Q1016;
0072820910999992011082702004-00883-052600FM-15+0206SBMD V0209999C000019999999Y0099001N1+02301+02301999999ADDMA1101591999999REMMET045METAR SBMD 270200Z 00000KT CAVOK 23/23 Q1016;
0072820910999992011082702004-00883-052600FM-15+0206SBMD V0209999C000019999999Y0099001N1+02301+02301999999ADDMA1101591999999REMMET045METAR SBMD 270200Z 00000KT CAVOK 23/23 Q1016;
0072820910999992011082702004-00883-052600FM-15+0206SBMD V0209999C000019999999Y0099001N1+02301+02301999999ADDMA1101591999999REMMET045METAR SBMD 270200Z 00000KT CAVOK 23/23 Q1016;
0072820910999992011082702004-00883-052600FM-15+0206SBMD V0209999C000019999999Y0099001N1+02301+02301999999ADDMA1101591999999REMMET045METAR SBMD 270200Z 00000KT CAVOK 23/23 Q1016;
0072820910999992011082702004-00883-052600FM-15+0206SBMD V0209999C000019999999Y0099001N1+02301+02301999999ADDMA1101591999999REMMET045METAR SBMD 270200Z 00000KT CAVOK 23/23 Q1016;
0072820910999992011082702004-00883-052600FM-15+0206SBMD V0209999C000019999999Y0099001N1+02301+02301999999ADDMA1101591999999REMMET045METAR SBMD 270200Z 00000KT CAVOK 23/23 Q1016;
0072820910999992011082702004-00883-052600FM-15+0206SBMD V0209999C000019999999Y0099001N1+02301+02301999999ADDMA1101591999999REMMET045METAR SBMD 270200Z 00000KT CAVOK 23/23 Q1016;
0072820910999992011082702004-00883-052600FM-15+0206SBMD V0209999C000019999999Y0099001N1+02301+02301999999ADDMA1101591999999REMMET045METAR SBMD 270200Z 00000KT CAVOK 23/23 Q1016;
0072820910999992011082702004-00883-052600FM-15+0206SBMD V0209999C000019999999Y0099001N1+02301+02301999999ADDMA1101591999999REMMET045METAR SBMD 270200Z 00000KT CAVOK 23/23 Q1016;
0072820910999992011082702004-00883-052600FM-15+0206SBMD V0209999C000019999999Y0099001N1+02301+02301999999ADDMA1101591999999REMMET045METAR SBMD 270200Z 00000KT CAVOK 23/23 Q1016;
0072820910999992011082702004-00883-052600FM-15+0206SBMD V0209999C000019999999Y0099001N1+02301+02301999999ADDMA1101591999999REMMET045METAR SBMD 270200Z 00000KT CAVOK 23/23 Q1016;
0072820910999992011082702004-00883-052600FM-15+0206SBMD V0209999C000019999999Y0099001N1+02301+02301999999ADDMA1101591999999REMMET045METAR SBMD 270200Z 00000KT CAVOK 23/23 Q1016;
0072820910999992011082702004-00883-052600FM-15+0206SBMD V0209999C000019999999Y0099001N1+02301+02301999999ADDMA1101591999999REMMET045METAR SBMD 270200Z 00000KT CAVOK 23/23 Q1016;
0072820910999992011082702004-00883-052600FM-15+0206SBMD V0209999C000019999999Y0099001N1+02301+02301999999ADDMA1101591999999REMMET045METAR SBMD 270200Z 00000KT CAVOK 23/23 Q1016;
0072820910999992011082702004-00883-052600FM-15+0206SBMD V0209999C000019999999Y0099001N1+02301+02301999999ADDMA1101591999999REMMET045METAR SBMD 270200Z 00000KT CAVOK 23/23 Q1016;
0072820910999992011082702004-00883-052600FM-15+0206SBMD V0209999C000019999999Y0099001N1+02301+02301999999ADDMA1101591999999REMMET045METAR SBMD 270200Z 00000KT CAVOK 23/23 Q1016;
0072820910999992011082702004-00883-052600FM-15+0206SBMD V0209999C000019999999Y0099001N1+02301+02301999999ADDMA1101591999999REMMET045METAR SBMD 270200Z 00000KT CAVOK 23/23 Q1016;
0072820910999992011082702004-00883-052600FM-15+0206SBMD V0209999C000019999999Y0099001N1+02301+02301999999ADDMA1101591999999REMMET045METAR SBMD 270200Z 00000KT CAVOK 23/23 Q1016;
0072820910999992011082702004-00883-052600FM-15+0206SBMD V0209999C000019999999Y0099001N1+02301+02301999999ADDMA1101591999999REMMET045METAR SBMD 270200Z 00000KT CAVOK 23/23 Q1016;
0072820910999992011082702004-00883-052600FM-15+0206SBMD V0209999C000019999999Y0099001N1+02301+02301999999ADDMA1101591999999REMMET045METAR SBMD 270200Z 00000KT CAVOK 23/23 Q1016;
0072820910999992011082702004-00883-052600FM-15+0206SBMD V0209999C000019999999Y0099001N1+02301+02301999999ADDMA1101591999999REMMET045METAR SBMD 270200Z 00000KT CAVOK 23/23 Q1016;
0072820910999992011082702004-00883-052600FM-15+0206SBMD V0209999C000019999999Y0099001N1+02301+02301999999ADDMA1101591999999REMMET045METAR SBMD 270200Z 00000KT CAVOK 23/23 Q1016;
0072820910999992011082702004-00883-052600FM-15+0206SBMD V0209999C000019999999Y0099001N1+02301+02301999999ADDMA1101591999999REMMET045METAR SBMD 270200Z 00000KT CAVOK 23/23 Q1016;
0072820910999992011082702004-00883-052600FM-15+0206SBMD V0209999C000019999999Y0099001N1+02301+02301999999ADDMA1101591999999REMMET045METAR SBMD 270200Z 00000KT CAVOK 23/23 Q1016;
0072820910999992011082702004-00883-052600FM-15+0206SBMD V0209999C000019999999Y0099001N1+02301+02301999999ADDMA1101591999999REMMET045METAR SBMD 270200Z 00000KT CAVOK 23/23 Q1016;
0072820910999992011082702004-00883-052600FM-15+0206SBMD V0209999C000019999999Y0099001N1+02301+02301999999ADDMA1101591999999REMMET045METAR SBMD 270200Z 00000KT CAVOK 23/23 Q1016;
0072820910999992011082702004-00883-052600FM-15+0206SBMD V0209999C000019999999Y0099001N1+02301+02301999999ADDMA1101591999999REMMET045METAR SBMD 270200Z 00000KT CAVOK 23/23 Q1016;
0072820910999992011082702004-00883-052600FM-15+0206SBMD V0209999C000019999999Y0099001N1+02301+02301999999ADDMA1101591999999REMMET045METAR SBMD 270200Z 00000KT CAVOK 23/23 Q1016;
0072820910999992011082702004-00883-052600FM-15+0206SBMD V0209999C000019999999Y0099001N1+02301+02301999999ADDMA1101591999999REMMET045METAR SBMD 270200Z 00000KT CAVOK 23/23 Q1016;
0072820910999992011082702004-00883-052600FM-15+0206SBMD V0209999C000019999999Y0099001N1+02301+02301999999ADDMA1101591999999REMMET045METAR SBMD 270200Z 00000KT CAVOK 23/23 Q1016;
0072820910999992011082702004-00883-052600FM-15+0206SBMD V0209999C000019999999Y0099001N1+02301+02301999999ADDMA1101591999999REMMET045METAR SBMD 270200Z 00000KT CAVOK 23/23 Q1016;
0072820910999992011082702004-00883-052600FM-15+0206SBMD V0209999C000019999999Y0099001N1+02301+02301999999ADDMA1101591999999REMMET045METAR SBMD 270200Z 00000KT CAVOK 23/23 Q1016;
0072820910999992011082702004-00883-052600FM-15+0206SBMD V0209999C000019999999Y0099001N1+02301+02301999999ADDMA1101591999999REMMET045METAR SBMD 270200Z 00000KT CAVOK 23/23 Q1016;
0072820910999992011082702004-00883-052600FM-15+0206SBMD V0209999C000019999999Y0099001N1+02301+02301999999ADDMA1101591999999REMMET045METAR SBMD 270200Z 00000KT CAVOK 23/23 Q1016;
0072820910999992011082702004-00883-052600FM-15+0206SBMD V0209999C000019999999Y0099001N1+02301+02301999999ADDMA1101591999999REMMET045METAR SBMD 270200Z 00000KT CAVOK 23/23 Q1016;
0072820910999992011082702004-00883-052600FM-15+0206SBMD V0209999C000019999999Y0099001N1+02301+02301999999ADDMA1101591999999REMMET045METAR SBMD 270200Z 00000KT CAVOK 23/23 Q1016;
0072820910999992011082702004-00883-052600FM-15+0206SBMD V0209999C000019999999Y0099001N1+02301+02301999999ADDMA1101591999999REMMET045METAR SBMD 270200Z 00000KT CAVOK 23/23 Q1016;
0072820910999992011082702004-00883-052600FM-15+0206SBMD V0209999C000019999999Y0099001N1+02301+02301999999ADDMA1101591999999REMMET045METAR SBMD 270200Z 00000KT CAVOK 23/23 Q1016;
0072820910999992011082702004-00883-052600FM-15+0206SBMD V0209999C000019999999Y0099001N1+02301+02301999999ADDMA1101591999999REMMET045METAR SBMD 270200Z 00000KT CAVOK 23/23 Q1016;
0072820910999992011082702004-00883-052600FM-15+0206SBMD V0209999C000019999999Y0099001N1+02301+02301999999ADDMA1101591999999REMMET045METAR SBMD 270200Z 00000KT CAVOK 23/23 Q1016;
0072820910999992011082702004-00883-052600FM-15+0206SBMD V0209999C000019999999Y0099001N1+02301+02301999999ADDMA1101591999999REMMET045METAR SBMD 270200Z 00000KT CAVOK 23/23 Q1016;
0072820910999992011082702004-00883-052600FM-15+0206SBMD V0209999C000019999999Y0099001N1+02301+02301999999ADDMA1101591999999REMMET045METAR SBMD 270200Z 00000KT CAVOK 23/23 Q1016;
0072820910999992011082702004-00883-052600FM-15+0206SBMD V0209999C000019999999Y0099001N1+02301+02301999999ADDMA1101591999999REMMET045METAR SBMD 270200Z 00000KT CAVOK 23/23 Q1016;
0072820910999992011082702004-00883-052600FM-15+0206SBMD V0209999C000019999999Y0099001N1+02301+02301999999ADDMA1101591999999REMMET045METAR SBMD 270200Z 00000KT CAVOK 23/23 Q1016;
0072820910999992011082702004-00883-052600FM-15+0206SBMD V0209999C000019999999Y0099001N1+02301+02301999999ADDMA1101591999999REMMET045METAR SBMD 270200Z 00000KT CAVOK 23/23 Q1016;
0072820910999992011082702004-00883-052600FM-15+0206SBMD V0209999C000019999999Y0099001N1+02301+02301999999ADDMA1101591999999REMMET045METAR SBMD 270200Z 00000KT CAVOK 23/23 Q1016;
0072820910999992011082702004-00883-052600FM-15+0206SBMD V0209999C000019999999Y0099001N1+02301+02301999999ADDMA1101591999999REMMET045METAR SBMD 270200Z 00000KT CAVOK 23/23 Q1016;
0072820910999992011082702004-00883-052600FM-15+0206SBMD V0209999C000019999999Y0099001N1+02301+02301999999ADDMA1101591999999REMMET045METAR SBMD 270200Z 00000KT CAVOK 23/23 Q1016;
0072820910999992011082702004-00883-052600FM-15+0206SBMD V0209999C000019999999Y0099001N1+02301+02301999999ADDMA1101591999999REMMET045METAR SBMD 270200Z 00000KT CAVOK 23/23 Q1016;
0072820910999992011082702004-00883-052600FM-15+0206SBMD V0209999C000019999999Y0099001N1+02301+02301999999ADDMA1101591999999REMMET045METAR SBMD 270200Z 00000KT CAVOK 23/23 Q1016;
0072820910999992011082702004-00883-052600FM-15+0206SBMD V0209999C000019999999Y0099001N1+02301+02301999999ADDMA1101591999999REMMET045METAR SBMD 270200Z 00000KT CAVOK 23/23 Q1016;
0072820910999992011082702004-00883-052600FM-15+0206SBMD V0209999C000019999999Y0099001N1+02301+02301999999ADDMA1101591999999REMMET045METAR SBMD 270200Z 00000KT CAVOK 23/23 Q1016;
0072820910999992011082702004-00883-052600FM-15+0206SBMD V0209999C000019999999Y0099001N1+02301+02301999999ADDMA1101591999999REMMET045METAR SBMD 270200Z 00000KT CAVOK 23/23 Q1016;
0072820910999992011082702004-00883-052600FM-15+0206SBMD V0209999C000019999999Y0099001N1+02301+02301999999ADDMA1101591999999REMMET045METAR SBMD 270200Z 00000KT CAVOK 23/23 Q1016;
0072820910999992011082702004-00883-052600FM-15+0206SBMD V0209999C000019999999Y0099001N1+02301+02301999999ADDMA1101591999999REMMET045METAR SBMD 270200Z 00000KT CAVOK 23/23 Q1016;
0072820910999992011082702004-00883-052600FM-15+0206SBMD V0209999C000019999999Y0099001N1+02301+02301999999ADDMA1101591999999REMMET045METAR SBMD 270200Z 00000KT CAVOK 23/23 Q1016;
0072820910999992011082702004-00883-052600FM-15+0206SBMD V0209999C000019999999Y0099001N1+02301+02301999999ADDMA1101591999999REMMET045METAR SBMD 270200Z 00000KT CAVOK 23/23 Q1016;
0072820910999992011082702004-00883-052600FM-15+0206SBMD V0209999C000019999999Y0099001N1+02301+02301999999ADDMA1101591999999REMMET045METAR SBMD 270200Z 00000KT CAVOK 23/23 Q1016;
0072820910999992011082702004-00883-052600FM-15+0206SBMD V0209999C000019999999Y0099001N1+02301+02301999999ADDMA1101591999999REMMET045METAR SBMD 270200Z 00000KT CAVOK 23/23 Q1016;
0072820910999992011082702004-00883-052600FM-15+0206SBMD V0209999C000019999999Y0099001N1+02301+02301999999ADDMA1101591999999REMMET045METAR SBMD 270200Z 00000KT CAVOK 23/23 Q1016;
0072820910999992011082702004-00883-052600FM-15+0206SBMD V0209999C000019999999Y0099001N1+02301+02301999999ADDMA1101591999999REMMET045METAR SBMD 270200Z 00000KT CAVOK 23/23 Q1016;
0072820910999992011082702004-00883-052600FM-15+0206SBMD V0209999C000019999999Y0099001N1+02301+02301999999ADDMA1101591999999REMMET045METAR SBMD 270200Z 00000KT CAVOK 23/23 Q1016;
0072820910999992011082702004-00883-052600FM-15+0206SBMD V0209999C000019999999Y0099001N1+02301+02301999999ADDMA1101591999999REMMET045METAR SBMD 270200Z 00000KT CAVOK 23/23 Q1016;
0072820910999992011082702004-00883-052600FM-15+0206SBMD V0209999C000019999999Y0099001N1+02301+02301999999ADDMA1101591999999REMMET045METAR SBMD 270200Z 00000KT CAVOK 23/23 Q1016;
0072820910999992011082702004-00883-052600FM-15+0206SBMD V0209999C000019999999Y0099001N1+02301+02301999999ADDMA1101591999999REMMET045METAR SBMD 270200Z 00000KT CAVOK 23/23 Q1016;
0072820910999992011082702004-00883-052600FM-15+0206SBMD V0209999C000019999999Y0099001N1+02301+02301999999ADDMA1101591999999REMMET045METAR SBMD 270200Z 00000KT CAVOK 23/23 Q1016;
0072820910999992011082702004-00883-052600FM-15+0206SBMD V0209999C000019999999Y0099001N1+02301+02301999999ADDMA1101591999999REMMET045METAR SBMD 270200Z 00000KT CAVOK 23/23 Q1016;
0072820910999992011082702004-00883-052600FM-15+0206SBMD V0209999C000019999999Y0099001N1+02301+02301999999ADDMA1101591999999REMMET045METAR SBMD 270200Z 00000KT CAVOK 23/23 Q1016;
0072820910999992011082702004-00883-052600FM-15+0206SBMD V0209999C000019999999Y0099001N1+02301+02301999999ADDMA1101591999999REMMET045METAR SBMD 270200Z 00000KT CAVOK 23/23 Q1016;
0072820910999992011082702004-00883-052600FM-15+0206SBMD V0209999C000019999999Y0099001N1+02301+02301999999ADDMA1101591999999REMMET045METAR SBMD 270200Z 00000KT CAVOK 23/23 Q1016;
0072820910999992011082702004-00883-052600FM-15+0206SBMD V0209999C000019999999Y0099001N1+02301+02301999999ADDMA1101591999999REMMET045METAR SBMD 270200Z 00000KT CAVOK 23/23 Q1016;
0072820910999992011082702004-00883-052600FM-15+0206SBMD V0209999C000019999999Y0099001N1+02301+02301999999ADDMA1101591999999REMMET045METAR SBMD 270200Z 00000KT CAVOK 23/23 Q1016;
0072820910999992011082702004-00883-052600FM-15+0206SBMD V0209999C000019999999Y0099001N1+02301+02301999999ADDMA1101591999999REMMET045METAR SBMD 270200Z 00000KT CAVOK 23/23 Q1016;
0072820910999992011082702004-00883-052600FM-15+0206SBMD V0209999C000019999999Y0099001N1+02301+02301999999ADDMA1101591999999REMMET045METAR SBMD 270200Z 00000KT CAVOK 23/23 Q1016;
0072820910999992011082702004-00883-052600FM-15+0206SBMD V0209999C000019999999Y0099001N1+02301+02301999999ADDMA1101591999999REMMET045METAR SBMD 270200Z 00000KT CAVOK 23/23 Q1016;
0072820910999992011082702004-00883-052600FM-15+0206SBMD V0209999C000019999999Y0099001N1+02301+02301999999ADDMA1101591999999REMMET045METAR SBMD 270200Z 00000KT CAVOK 23/23 Q1016;
0072820910999992011082702004-00883-052600FM-15+0206SBMD V0209999C000019999999Y0099001N1+02301+02301999999ADDMA1101591999999REMMET045METAR SBMD 270200Z 00000KT CAVOK 23/23 Q1016;
0072820910999992011082702004-00883-052600FM-15+0206SBMD V0209999C000019999999Y0099001N1+02301+02301999999ADDMA1101591999999REMMET045METAR SBMD 270200Z 00000KT CAVOK 23/23 Q1016;
0072820910999992011082702004-00883-052600FM-15+0206SBMD V0209999C000019999999Y0099001N1+02301+02301999999ADDMA1101591999999REMMET045METAR SBMD 270200Z 00000KT CAVOK 23/23 Q1016;
0072820910999992011082702004-00883-052600FM-15+0206SBMD V0209999C000019999999Y0099001N1+02301+02301999999ADDMA1101591999999REMMET045METAR SBMD 270200Z 00000KT CAVOK 23/23 Q1016;
0072820910999992011082702004-00883-052600FM-15+0206SBMD V0209999C000019999999Y0099001N1+02301+02301999999ADDMA1101591999999REMMET045METAR SBMD 270200Z 00000KT CAVOK 23/23 Q1016;
0072820910999992011082702004-00883-052600FM-15+0206SBMD V0209999C000019999999Y0099001N1+02301+02301999999ADDMA1101591999999REMMET045METAR SBMD 270200Z 00000KT CAVOK 23/23 Q1016;
0072820910999992011082702004-00883-052600FM-15+0206SBMD V0209999C000019999999Y0099001N1+02301+02301999999ADDMA1101591999999REMMET045METAR SBMD 270200Z 00000KT CAVOK 23/23 Q1016;
0072820910999992011082702004-00883-052600FM-15+0206SBMD V0209999C000019999999Y0099001N1+02301+02301999999ADDMA1101591999999REMMET045METAR SBMD 270200Z 00000KT CAVOK 23/23 Q1016;
0072820910999992011082702004-00883-052600FM-15+0206SBMD V0209999C000019999999Y0099001N1+02301+02301999999ADDMA1101591999999REMMET045METAR SBMD 270200Z 00000KT CAVOK 23/23 Q1016;
0072820910999992011082702004-00883-052600FM-15+0206SBMD V0209999C000019999999Y0099001N1+02301+02301999999ADDMA1101591999999REMMET045METAR SBMD 270200Z 00000KT CAVOK 23/23 Q1016;
0072820910999992011082702004-00883-052600FM-15+0206SBMD V0209999C000019999999Y0099001N1+02301+02301999999ADDMA1101591999999REMMET045METAR SBMD 270200Z 00000KT CAVOK 23/23 Q1016;
0072820910999992011082702004-00883-052600FM-15+0206SBMD V0209999C000019999999Y0099001N1+02301+02301999999ADDMA1101591999999REMMET045METAR SBMD 270200Z 00000KT CAVOK 23/23 Q1016;
0072820910999992011082702004-00883-052600FM-15+0206SBMD V0209999C000019999999Y0099001N1+02301+02301999999ADDMA1101591999999REMMET045METAR SBMD 270200Z 00000KT CAVOK 23/23 Q1016;
0072820910999992011082702004-00883-052600FM-15+0206SBMD V0209999C000019999999Y0099001N1+02301+02301999999ADDMA1101591999999REMMET045METAR SBMD 270200Z 00000KT CAVOK 23/23 Q1016;
0072820910999992011082702004-00883-052600FM-15+0206SBMD V0209999C000019999999Y0099001N1+02301+02301999999ADDMA1101591999999REMMET045METAR SBMD 270200Z 00000KT CAVOK 23/23 Q1016;
0072820910999992011082702004-00883-052600FM-15+0206SBMD V0209999C000019999999Y0099001N1+02301+02301999999ADDMA1101591999999REMMET045METAR SBMD 270200Z 00000KT CAVOK 23/23 Q1016;
0072820910999992011082702004-00883-052600FM-15+0206SBMD V0209999C000019999999Y0099001N1+02301+02301999999ADDMA1101591999999REMMET045METAR SBMD 270200Z 00000KT CAVOK 23/23 Q1016;
0072820910999992011082702004-00883-052600FM-15+0206SBMD V0209999C000019999999Y0099001N1+02301+02301999999ADDMA1101591999999REMMET045METAR SBMD 270200Z 00000KT CAVOK 23/23 Q1016;
0072820910999992011082702004-00883-052600FM-15+0206SBMD V0209999C000019999999Y0099001N1+02301+02301999999ADDMA1101591999999REMMET045METAR SBMD 270200Z 00000KT CAVOK 23/23 Q1016;
0072820910999992011082702004-00883-052600FM-15+0206SBMD V0209999C000019999999Y0099001N1+02301+02301999999ADDMA1101591999999REMMET045METAR SBMD 270200Z 00000KT CAVOK 23/23 Q1016;
0072820910999992011082702004-00883-052600FM-15+0206SBMD V0209999C000019999999Y0099001N1+02301+02301999999ADDMA1101591999999REMMET045METAR SBMD 270200Z 00000KT CAVOK 23/23 Q1016;
0072820910999992011082702004-00883-052600FM-15+0206SBMD V0209999C000019999999Y0099001N1+02301+02301999999ADDMA1101591999999REMMET045METAR SBMD 270200Z 00000KT CAVOK 23/23 Q1016;
0072820910999992011082702004-00883-052600FM-15+0206SBMD V0209999C000019999999Y0099001N1+02301+02301999999ADDMA1101591999999REMMET045METAR SBMD 270200Z 00000KT CAVOK 23/23 Q1016;
0072820910999992011082702004-00883-052600FM-15+0206SBMD V0209999C000019999999Y0099001N1+02301+02301999999ADDMA1101591999999REMMET045METAR SBMD 270200Z 00000KT CAVOK 23/23 Q1016;
0072820910999992011082702004-00883-052600FM-15+0206SBMD V0209999C000019999999Y0099001N1+02301+02301999999ADDMA1101591999999REMMET045METAR SBMD 270200Z 00000KT CAVOK 23/23 Q1016;
0072820910999992011082702004-00883-052600FM-15+0206SBMD V0209999C000019999999Y0099001N1+02301+02301999999ADDMA1101591999999REMMET045METAR SBMD 270200Z 00000KT CAVOK 23/23 Q1016;
0072820910999992011082702004-00883-052600FM-15+0206SBMD V0209999C000019999999Y0099001N1+02301+02301999999ADDMA1101591999999REMMET045METAR SBMD 270200Z 00000KT CAVOK 23/23 Q1016;
0072820910999992011082702004-00883-052600FM-15+0206SBMD V0209999C000019999999Y0099001N1+02301+02301999999ADDMA1101591999999REMMET045METAR SBMD 270200Z 00000KT CAVOK 23/23 Q1016;
0072820910999992011082702004-00883-052600FM-15+0206SBMD V0209999C000019999999Y0099001N1+02301+02301999999ADDMA1101591999999REMMET045METAR SBMD 270200Z 00000KT CAVOK 23/23 Q1016;
0072820910999992011082702004-00883-052600FM-15+0206SBMD V0209999C000019999999Y0099001N1+02301+02301999999ADDMA1101591999999REMMET045METAR SBMD 270200Z 00000KT CAVOK 23/23 Q1016;
0072820910999992011082702004-00883-052600FM-15+0206SBMD V0209999C000019999999Y0099001N1+02301+02301999999ADDMA1101591999999REMMET045METAR SBMD 270200Z 00000KT CAVOK 23/23 Q1016;
0072820910999992011082702004-00883-052600FM-15+0206SBMD V0209999C000019999999Y0099001N1+02301+02301999999ADDMA1101591999999REMMET045METAR SBMD 270200Z 00000KT CAVOK 23/23 Q1016;
0072820910999992011082702004-00883-052600FM-15+0206SBMD V0209999C000019999999Y0099001N1+02301+02301999999ADDMA1101591999999REMMET045METAR SBMD 270200Z 00000KT CAVOK 23/23 Q1016;
0072820910999992011082702004-00883-052600FM-15+0206SBMD V0209999C000019999999Y0099001N1+02301+02301999999ADDMA1101591999999REMMET045METAR SBMD 270200Z 00000KT CAVOK 23/23 Q1016;
0072820910999992011082702004-00883-052600FM-15+0206SBMD V0209999C000019999999Y0099001N1+02301+02301999999ADDMA1101591999999REMMET045METAR SBMD 270200Z 00000KT CAVOK 23/23 Q1016;
0072820910999992011082702004-00883-052600FM-15+0206SBMD V0209999C000019999999Y0099001N1+02301+02301999999ADDMA1101591999999REMMET045METAR SBMD 270200Z 00000KT CAVOK 23/23 Q1016;
0072820910999992011082702004-00883-052600FM-15+0206SBMD V0209999C000019999999Y0099001N1+02301+02301999999ADDMA1101591999999REMMET045METAR SBMD 270200Z 00000KT CAVOK 23/23 Q1016;
0072820910999992011082702004-00883-052600FM-15+0206SBMD V0209999C000019999999Y0099001N1+02301+02301999999ADDMA1101591999999REMMET045METAR SBMD 270200Z 00000KT CAVOK 23/23 Q1016;
0072820910999992011082702004-00883-052600FM-15+0206SBMD V0209999C000019999999Y0099001N1+02301+02301999999ADDMA1101591999999REMMET045METAR SBMD 270200Z 00000KT CAVOK 23/23 Q1016;
0072820910999992011082702004-00883-052600FM-15+0206SBMD V0209999C000019999999Y0099001N1+02301+02301999999ADDMA1101591999999REMMET045METAR SBMD 270200Z 00000KT CAVOK 23/23 Q1016;
0072820910999992011082702004-00883-052600FM-15+0206SBMD V0209999C000019999999Y0099001N1+02301+02301999999ADDMA1101591999999REMMET045METAR SBMD 270200Z 00000KT CAVOK 23/23 Q1016;
0072820910999992011082702004-00883-052600FM-15+0206SBMD V0209999C000019999999Y0099001N1+02301+02301999999ADDMA1101591999999REMMET045METAR SBMD 270200Z 00000KT CAVOK 23/23 Q1016;
0072820910999992011082702004-00883-052600FM-15+0206SBMD V0209999C000019999999Y0099001N1+02301+02301999999ADDMA1101591999999REMMET045METAR SBMD 270200Z 00000KT CAVOK 23/23 Q1016;
0072820910999992011082702004-00883-052600FM-15+0206SBMD V0209999C000019999999Y0099001N1+02301+02301999999ADDMA1101591999999REMMET045METAR SBMD 270200Z 00000KT CAVOK 23/23 Q1016;
0072820910999992011082702004-00883-052600FM-15+0206SBMD V0209999C000019999999Y0099001N1+02301+02301999999ADDMA1101591999999REMMET045METAR SBMD 270200Z 00000KT CAVOK 23/23 Q1016;
0072820910999992011082702004-00883-052600FM-15+0206SBMD V0209999C000019999999Y0099001N1+02301+02301999999ADDMA1101591999999REMMET045METAR SBMD 270200Z 00000KT CAVOK 23/23 Q1016;
0072820910999992011082702004-00883-052600FM-15+0206SBMD V0209999C000019999999Y0099001N1+02301+02301999999ADDMA1101591999999REMMET045METAR SBMD 270200Z 00000KT CAVOK 23/23 Q1016;
0072820910999992011082702004-00883-052600FM-15+0206SBMD V0209999C000019999999Y0099001N1+02301+02301999999ADDMA1101591999999REMMET045METAR SBMD 270200Z 00000KT CAVOK 23/23 Q1016;
0072820910999992011082702004-00883-052600FM-15+0206SBMD V0209999C000019999999Y0099001N1+02301+02301999999ADDMA1101591999999REMMET045METAR SBMD 270200Z 00000KT CAVOK 23/23 Q1016;
0072820910999992011082702004-00883-052600FM-15+0206SBMD V0209999C000019999999Y0099001N1+02301+02301999999ADDMA1101591999999REMMET045METAR SBMD 270200Z 00000KT CAVOK 23/23 Q1016;
0072820910999992011082702004-00883-052600FM-15+0206SBMD V0209999C000019999999Y0099001N1+02301+02301999999ADDMA1101591999999REMMET045METAR SBMD 270200Z 00000KT CAVOK 23/23 Q1016;
0072820910999992011082702004-00883-052600FM-15+0206SBMD V0209999C000019999999Y0099001N1+02301+02301999999ADDMA1101591999999REMMET045METAR SBMD 270200Z 00000KT CAVOK 23/23 Q1016;
0072820910999992011082702004-00883-052600FM-15+0206SBMD V0209999C000019999999Y0099001N1+02301+02301999999ADDMA1101591999999REMMET045METAR SBMD 270200Z 00000KT CAVOK 23/23 Q1016;
0072820910999992011082702004-00883-052600FM-15+0206SBMD V0209999C000019999999Y0099001N1+02301+02301999999ADDMA1101591999999REMMET045METAR SBMD 270200Z 00000KT CAVOK 23/23 Q1016;
0072820910999992011082702004-00883-052600FM-15+0206SBMD V0209999C000019999999Y0099001N1+02301+02301999999ADDMA1101591999999REMMET045METAR SBMD 270200Z 00000KT CAVOK 23/23 Q1016;
0072820910999992011082702004-00883-052600FM-15+0206SBMD V0209999C000019999999Y0099001N1+02301+02301999999ADDMA1101591999999REMMET045METAR SBMD 270200Z 00000KT CAVOK 23/23 Q1016;
0072820910999992011082702004-00883-052600FM-15+0206SBMD V0209999C000019999999Y0099001N1+02301+02301999999ADDMA1101591999999REMMET045METAR SBMD 270200Z 00000KT CAVOK 23/23 Q1016;
0072820910999992011082702004-00883-052600FM-15+0206SBMD V0209999C000019999999Y0099001N1+02301+02301999999ADDMA1101591999999REMMET045METAR SBMD 270200Z 00000KT CAVOK 23/23 Q1016;
0072820910999992011082702004-00883-052600FM-15+0206SBMD V0209999C000019999999Y0099001N1+02301+02301999999ADDMA1101591999999REMMET045METAR SBMD 270200Z 00000KT CAVOK 23/23 Q1016;
0072820910999992011082702004-00883-052600FM-15+0206SBMD V0209999C000019999999Y0099001N1+02301+02301999999ADDMA1101591999999REMMET045METAR SBMD 270200Z 00000KT CAVOK 23/23 Q1016;
0072820910999992011082702004-00883-052600FM-15+0206SBMD V0209999C000019999999Y0099001N1+02301+02301999999ADDMA1101591999999REMMET045METAR SBMD 270200Z 00000KT CAVOK 23/23 Q1016;
0072820910999992011082702004-00883-052600FM-15+0206SBMD V0209999C000019999999Y0099001N1+02301+02301999999ADDMA1101591999999REMMET045METAR SBMD 270200Z 00000KT CAVOK 23/23 Q1016;
0072820910999992011082702004-00883-052600FM-15+0206SBMD V0209999C000019999999Y0099001N1+02301+02301999999ADDMA1101591999999REMMET045METAR SBMD 270200Z 00000KT CAVOK 23/23 Q1016;
0072820910999992011082702004-00883-052600FM-15+0206SBMD V0209999C000019999999Y0099001N1+02301+02301999999ADDMA1101591999999REMMET045METAR SBMD 270200Z 00000KT CAVOK 23/23 Q1016;
0072820910999992011082702004-00883-052600FM-15+0206SBMD V0209999C000019999999Y0099001N1+02301+02301999999ADDMA1101591999999REMMET045METAR SBMD 270200Z 00000KT CAVOK 23/23 Q1016;
0072820910999992011082702004-00883-052600FM-15+0206SBMD V0209999C000019999999Y0099001N1+02301+02301999999ADDMA1101591999999REMMET045METAR SBMD 270200Z 00000KT CAVOK 23/23 Q1016;
0072820910999992011082702004-00883-052600FM-15+0206SBMD V0209999C000019999999Y0099001N1+02301+02301999999ADDMA1101591999999REMMET045METAR SBMD 270200Z 00000KT CAVOK 23/23 Q1016;
0072820910999992011082702004-00883-052600FM-15+0206SBMD V0209999C000019999999Y0099001N1+02301+02301999999ADDMA1101591999999REMMET045METAR SBMD 270200Z 00000KT CAVOK 23/23 Q1016;
0072820910999992011082702004-00883-052600FM-15+0206SBMD V0209999C000019999999Y0099001N1+02301+02301999999ADDMA1101591999999REMMET045METAR SBMD 270200Z 00000KT CAVOK 23/23 Q1016;
0072820910999992011082702004-00883-052600FM-15+0206SBMD V0209999C000019999999Y0099001N1+02301+02301999999ADDMA1101591999999REMMET045METAR SBMD 270200Z 00000KT CAVOK 23/23 Q1016;
0072820910999992011082702004-00883-052600FM-15+0206SBMD V0209999C000019999999Y0099001N1+02301+02301999999ADDMA1101591999999REMMET045METAR SBMD 270200Z 00000KT CAVOK 23/23 Q1016;
0072820910999992011082702004-00883-052600FM-15+0206SBMD V0209999C000019999999Y0099001N1+02301+02301999999ADDMA1101591999999REMMET045METAR SBMD 270200Z 00000KT CAVOK 23/23 Q1016;
0072820910999992011082702004-00883-052600FM-15+0206SBMD V0209999C000019999999Y0099001N1+02301+02301999999ADDMA1101591999999REMMET045METAR SBMD 270200Z 00000KT CAVOK 23/23 Q1016;
0072820910999992011082702004-00883-052600FM-15+0206SBMD V0209999C000019999999Y0099001N1+02301+02301999999ADDMA1101591999999REMMET045METAR SBMD 270200Z 00000KT CAVOK 23/23 Q1016;
0072820910999992011082702004-00883-052600FM-15+0206SBMD V0209999C000019999999Y0099001N1+02301+02301999999ADDMA1101591999999REMMET045METAR SBMD 270200Z 00000KT CAVOK 23/23 Q1016;
0072820910999992011082702004-00883-052600FM-15+0206SBMD V0209999C000019999999Y0099001N1+02301+02301999999ADDMA1101591999999REMMET045METAR SBMD 270200Z 00000KT CAVOK 23/23 Q1016;
0072820910999992011082702004-00883-052600FM-15+0206SBMD V0209999C000019999999Y0099001N1+02301+02301999999ADDMA1101591999999REMMET045METAR SBMD 270200Z 00000KT CAVOK 23/23 Q1016;
0072820910999992011082702004-00883-052600FM-15+0206SBMD V0209999C000019999999Y0099001N1+02301+02301999999ADDMA1101591999999REMMET045METAR SBMD 270200Z 00000KT CAVOK 23/23 Q1016;
0072820910999992011082702004-00883-052600FM-15+0206SBMD V0209999C000019999999Y0099001N1+02301+02301999999ADDMA1101591999999REMMET045METAR SBMD 270200Z 00000KT CAVOK 23/23 Q1016;
0072820910999992011082702004-00883-052600FM-15+0206SBMD V0209999C000019999999Y0099001N1+02301+02301999999ADDMA1101591999999REMMET045METAR SBMD 270200Z 00000KT CAVOK 23/23 Q1016;
0072820910999992011082702004-00883-052600FM-15+0206SBMD V0209999C000019999999Y0099001N1+02301+02301999999ADDMA1101591999999REMMET045METAR SBMD 270200Z 00000KT CAVOK 23/23 Q1016;
0072820910999992011082702004-00883-052600FM-15+0206SBMD V0209999C000019999999Y0099001N1+02301+02301999999ADDMA1101591999999REMMET045METAR SBMD 270200Z 00000KT CAVOK 23/23 Q1016;
0072820910999992011082702004-00883-052600FM-15+0206SBMD V0209999C000019999999Y0099001N1+02301+02301999999ADDMA1101591999999REMMET045METAR SBMD 270200Z 00000KT CAVOK 23/23 Q1016;
0072820910999992011082702004-00883-052600FM-15+0206SBMD V0209999C000019999999Y0099001N1+02301+02301999999ADDMA1101591999999REMMET045METAR SBMD 270200Z 00000KT CAVOK 23/23 Q1016;
0072820910999992011082702004-00883-052600FM-15+0206SBMD V0209999C000019999999Y0099001N1+02301+02301999999ADDMA1101591999999REMMET045METAR SBMD 270200Z 00000KT CAVOK 23/23 Q1016;
0072820910999992011082702004-00883-052600FM-15+0206SBMD V0209999C000019999999Y0099001N1+02301+02301999999ADDMA1101591999999REMMET045METAR SBMD 270200Z 00000KT CAVOK 23/23 Q1016;
0072820910999992011082702004-00883-052600FM-15+0206SBMD V0209999C000019999999Y0099001N1+02301+02301999999ADDMA1101591999999REMMET045METAR SBMD 270200Z 00000KT CAVOK 23/23 Q1016;
0072820910999992011082702004-00883-052600FM-15+0206SBMD V0209999C000019999999Y0099001N1+02301+02301999999ADDMA1101591999999REMMET045METAR SBMD 270200Z 00000KT CAVOK 23/23 Q1016;
0072820910999992011082702004-00883-052600FM-15+0206SBMD V0209999C000019999999Y0099001N1+02301+02301999999ADDMA1101591999999REMMET045METAR SBMD 270200Z 00000KT CAVOK 23/23 Q1016;
0072820910999992011082702004-00883-052600FM-15+0206SBMD V0209999C000019999999Y0099001N1+02301+02301999999ADDMA1101591999999REMMET045METAR SBMD 270200Z 00000KT CAVOK 23/23 Q1016;
0072820910999992011082702004-00883-052600FM-15+0206SBMD V0209999C000019999999Y0099001N1+02301+02301999999ADDMA1101591999999REMMET045METAR SBMD 270200Z 00000KT CAVOK 23/23 Q1016;
0072820910999992011082702004-00883-052600FM-15+0206SBMD V0209999C000019999999Y0099001N1+02301+02301999999ADDMA1101591999999REMMET045METAR SBMD 270200Z 00000KT CAVOK 23/23 Q1016;
0072820910999992011082702004-00883-052600FM-15+0206SBMD V0209999C000019999999Y0099001N1+02301+02301999999ADDMA1101591999999REMMET045METAR SBMD 270200Z 00000KT CAVOK 23/23 Q1016;
0072820910999992011082702004-00883-052600FM-15+0206SBMD V0209999C000019999999Y0099001N1+02301+02301999999ADDMA1101591999999REMMET045METAR SBMD 270200Z 00000KT CAVOK 23/23 Q1016;
0072820910999992011082702004-00883-052600FM-15+0206SBMD V0209999C000019999999Y0099001N1+02301+02301999999ADDMA1101591999999REMMET045METAR SBMD 270200Z 00000KT CAVOK 23/23 Q1016;
0072820910999992011082702004-00883-052600FM-15+0206SBMD V0209999C000019999999Y0099001N1+02301+02301999999ADDMA1101591999999REMMET045METAR SBMD 270200Z 00000KT CAVOK 23/23 Q1016;
0072820910999992011082702004-00883-052600FM-15+0206SBMD V0209999C000019999999Y0099001N1+02301+02301999999ADDMA1101591999999REMMET045METAR SBMD 270200Z 00000KT CAVOK 23/23 Q1016;
0072820910999992011082702004-00883-052600FM-15+0206SBMD V0209999C000019999999Y0099001N1+02301+02301999999ADDMA1101591999999REMMET045METAR SBMD 270200Z 00000KT CAVOK 23/23 Q1016;
0072820910999992011082702004-00883-052600FM-15+0206SBMD V0209999C000019999999Y0099001N1+02301+02301999999ADDMA1101591999999REMMET045METAR SBMD 270200Z 00000KT CAVOK 23/23 Q1016;
0072820910999992011082702004-00883-052600FM-15+0206SBMD V0209999C000019999999Y0099001N1+02301+02301999999ADDMA1101591999999REMMET045METAR SBMD 270200Z 00000KT CAVOK 23/23 Q1016;
0072820910999992011082702004-00883-052600FM-15+0206SBMD V0209999C000019999999Y0099001N1+02301+02301999999ADDMA1101591999999REMMET045METAR SBMD 270200Z 00000KT CAVOK 23/23 Q1016;
0072820910999992011082702004-00883-052600FM-15+0206SBMD V0209999C000019999999Y0099001N1+02301+02301999999ADDMA1101591999999REMMET045METAR SBMD 270200Z 00000KT CAVOK 23/23 Q1016;
0072820910999992011082702004-00883-052600FM-15+0206SBMD V0209999C000019999999Y0099001N1+02301+02301999999ADDMA1101591999999REMMET045METAR SBMD 270200Z 00000KT CAVOK 23/23 Q1016;
0072820910999992011082702004-00883-052600FM-15+0206SBMD V0209999C000019999999Y0099001N1+02301+02301999999ADDMA1101591999999REMMET045METAR SBMD 270200Z 00000KT CAVOK 23/23 Q1016;
0072820910999992011082702004-00883-052600FM-15+0206SBMD V0209999C000019999999Y0099001N1+02301+02301999999ADDMA1101591999999REMMET045METAR SBMD 270200Z 00000KT CAVOK 23/23 Q1016;
0072820910999992011082702004-00883-052600FM-15+0206SBMD V0209999C000019999999Y0099001N1+02301+02301999999ADDMA1101591999999REMMET045METAR SBMD 270200Z 00000KT CAVOK 23/23 Q1016;
0072820910999992011082702004-00883-052600FM-15+0206SBMD V0209999C000019999999Y0099001N1+02301+02301999999ADDMA1101591999999REMMET045METAR SBMD 270200Z 00000KT CAVOK 23/23 Q1016;
0072820910999992011082702004-00883-052600FM-15+0206SBMD V0209999C000019999999Y0099001N1+02301+02301999999ADDMA1101591999999REMMET045METAR SBMD 270200Z 00000KT CAVOK 23/23 Q1016;
0072820910999992011082702004-00883-052600FM-15+0206SBMD V0209999C000019999999Y0099001N1+02301+02301999999ADDMA1101591999999REMMET045METAR SBMD 270200Z 00000KT CAVOK 23/23 Q1016;
0072820910999992011082702004-00883-052600FM-15+0206SBMD V0209999C000019999999Y0099001N1+02301+02301999999ADDMA1101591999999REMMET045METAR SBMD 270200Z 00000KT CAVOK 23/23 Q1016;
0072820910999992011082702004-00883-052600FM-15+0206SBMD V0209999C000019999999Y0099001N1+02301+02301999999ADDMA1101591999999REMMET045METAR SBMD 270200Z 00000KT CAVOK 23/23 Q1016;
0072820910999992011082702004-00883-052600FM-15+0206SBMD V0209999C000019999999Y0099001N1+02301+02301999999ADDMA1101591999999REMMET045METAR SBMD 270200Z 00000KT CAVOK 23/23 Q1016;
0072820910999992011082702004-00883-052600FM-15+0206SBMD V0209999C000019999999Y0099001N1+02301+02301999999ADDMA1101591999999REMMET045METAR SBMD 270200Z 00000KT CAVOK 23/23 Q1016;
0072820910999992011082702004-00883-052600FM-15+0206SBMD V0209999C000019999999Y0099001N1+02301+02301999999ADDMA1101591999999REMMET045METAR SBMD 270200Z 00000KT CAVOK 23/23 Q1016;
0072820910999992011082702004-00883-052600FM-15+0206SBMD V0209999C000019999999Y0099001N1+02301+02301999999ADDMA1101591999999REMMET045METAR SBMD 270200Z 00000KT CAVOK 23/23 Q1016;
0072820910999992011082702004-00883-052600FM-15+0206SBMD V0209999C000019999999Y0099001N1+02301+02301999999ADDMA1101591999999REMMET045METAR SBMD 270200Z 00000KT CAVOK 23/23 Q1016;
0072820910999992011082702004-00883-052600FM-15+0206SBMD V0209999C000019999999Y0099001N1+02301+02301999999ADDMA1101591999999REMMET045METAR SBMD 270200Z 00000KT CAVOK 23/23 Q1016;
0072820910999992011082702004-00883-052600FM-15+0206SBMD V0209999C000019999999Y0099001N1+02301+02301999999ADDMA1101591999999REMMET045METAR SBMD 270200Z 00000KT CAVOK 23/23 Q1016;
0072820910999992011082702004-00883-052600FM-15+0206SBMD V0209999C000019999999Y0099001N1+02301+02301999999ADDMA1101591999999REMMET045METAR SBMD 270200Z 00000KT CAVOK 23/23 Q1016;
0072820910999992011082702004-00883-052600FM-15+0206SBMD V0209999C000019999999Y0099001N1+02301+02301999999ADDMA1101591999999REMMET045METAR SBMD 270200Z 00000KT CAVOK 23/23 Q1016;
0072820910999992011082702004-00883-052600FM-15+0206SBMD V0209999C000019999999Y0099001N1+02301+02301999999ADDMA1101591999999REMMET045METAR SBMD 270200Z 00000KT CAVOK 23/23 Q1016;
0072820910999992011082702004-00883-052600FM-15+0206SBMD V0209999C000019999999Y0099001N1+02301+02301999999ADDMA1101591999999REMMET045METAR SBMD 270200Z 00000KT CAVOK 23/23 Q1016;
0072820910999992011082702004-00883-052600FM-15+0206SBMD V0209999C000019999999Y0099001N1+02301+02301999999ADDMA1101591999999REMMET045METAR SBMD 270200Z 00000KT CAVOK 23/23 Q1016;
0072820910999992011082702004-00883-052600FM-15+0206SBMD V0209999C000019999999Y0099001N1+02301+02301999999ADDMA1101591999999REMMET045METAR SBMD 270200Z 00000KT CAVOK 23/23 Q1016;
0072820910999992011082702004-00883-052600FM-15+0206SBMD V0209999C000019999999Y0099001N1+02301+02301999999ADDMA1101591999999REMMET045METAR SBMD 270200Z 00000KT CAVOK 23/23 Q1016;
0072820910999992011082702004-00883-052600FM-15+0206SBMD V0209999C000019999999Y0099001N1+02301+02301999999ADDMA1101591999999REMMET045METAR SBMD 270200Z 00000KT CAVOK 23/23 Q1016;
0072820910999992011082702004-00883-052600FM-15+0206SBMD V0209999C000019999999Y0099001N1+02301+02301999999ADDMA1101591999999REMMET045METAR SBMD 270200Z 00000KT CAVOK 23/23 Q1016;
0072820910999992011082702004-00883-052600FM-15+0206SBMD V0209999C000019999999Y0099001N1+02301+02301999999ADDMA1101591999999REMMET045METAR SBMD 270200Z 00000KT CAVOK 23/23 Q1016;
0072820910999992011082702004-00883-052600FM-15+0206SBMD V0209999C000019999999Y0099001N1+02301+02301999999ADDMA1101591999999REMMET045METAR SBMD 270200Z 00000KT CAVOK 23/23 Q1016;
0072820910999992011082702004-00883-052600FM-15+0206SBMD V0209999C000019999999Y0099001N1+02301+02301999999ADDMA1101591999999REMMET045METAR SBMD 270200Z 00000KT CAVOK 23/23 Q1016;
0072820910999992011082702004-00883-052600FM-15+0206SBMD V0209999C000019999999Y0099001N1+02301+02301999999ADDMA1101591999999REMMET045METAR SBMD 270200Z 00000KT CAVOK 23/23 Q1016;
0072820910999992011082702004-00883-052600FM-15+0206SBMD V0209999C000019999999Y0099001N1+02301+02301999999ADDMA1101591999999REMMET045METAR SBMD 270200Z 00000KT CAVOK 23/23 Q1016;
0072820910999992011082702004-00883-052600FM-15+0206SBMD V0209999C000019999999Y0099001N1+02301+02301999999ADDMA1101591999999REMMET045METAR SBMD 270200Z 00000KT CAVOK 23/23 Q1016;
0072820910999992011082702004-00883-052600FM-15+0206SBMD V0209999C000019999999Y0099001N1+02301+02301999999ADDMA1101591999999REMMET045METAR SBMD 270200Z 00000KT CAVOK 23/23 Q1016;
0072820910999992011082702004-00883-052600FM-15+0206SBMD V0209999C000019999999Y0099001N1+02301+02301999999ADDMA1101591999999REMMET045METAR SBMD 270200Z 00000KT CAVOK 23/23 Q1016;
0072820910999992011082702004-00883-052600FM-15+0206SBMD V0209999C000019999999Y0099001N1+02301+02301999999ADDMA1101591999999REMMET045METAR SBMD 270200Z 00000KT CAVOK 23/23 Q1016;
0072820910999992011082702004-00883-052600FM-15+0206SBMD V0209999C000019999999Y0099001N1+02301+02301999999ADDMA1101591999999REMMET045METAR SBMD 270200Z 00000KT CAVOK 23/23 Q1016;
0072820910999992011082702004-00883-052600FM-15+0206SBMD V0209999C000019999999Y0099001N1+02301+02301999999ADDMA1101591999999REMMET045METAR SBMD 270200Z 00000KT CAVOK 23/23 Q1016;
0072820910999992011082702004-00883-052600FM-15+0206SBMD V0209999C000019999999Y0099001N1+02301+02301999999ADDMA1101591999999REMMET045METAR SBMD 270200Z 00000KT CAVOK 23/23 Q1016;
0072820910999992011082702004-00883-052600FM-15+0206SBMD V0209999C000019999999Y0099001N1+02301+02301999999ADDMA1101591999999REMMET045METAR SBMD 270200Z 00000KT CAVOK 23/23 Q1016;
0072820910999992011082702004-00883-052600FM-15+0206SBMD V0209999C000019999999Y0099001N1+02301+02301999999ADDMA1101591999999REMMET045METAR SBMD 270200Z 00000KT CAVOK 23/23 Q1016;
0072820910999992011082702004-00883-052600FM-15+0206SBMD V0209999C000019999999Y0099001N1+02301+02301999999ADDMA1101591999999REMMET045METAR SBMD 270200Z 00000KT CAVOK 23/23 Q1016;
0072820910999992011082702004-00883-052600FM-15+0206SBMD V0209999C000019999999Y0099001N1+02301+02301999999ADDMA1101591999999REMMET045METAR SBMD 270200Z 00000KT CAVOK 23/23 Q1016;
0072820910999992011082702004-00883-052600FM-15+0206SBMD V0209999C000019999999Y0099001N1+02301+02301999999ADDMA1101591999999REMMET045METAR SBMD 270200Z 00000KT CAVOK 23/23 Q1016;
0072820910999992011082702004-00883-052600FM-15+0206SBMD V0209999C000019999999Y0099001N1+02301+02301999999ADDMA1101591999999REMMET045METAR SBMD 270200Z 00000KT CAVOK 23/23 Q1016;
0072820910999992011082702004-00883-052600FM-15+0206SBMD V0209999C000019999999Y0099001N1+02301+02301999999ADDMA1101591999999REMMET045METAR SBMD 270200Z 00000KT CAVOK 23/23 Q1016;
0072820910999992011082702004-00883-052600FM-15+0206SBMD V0209999C000019999999Y0099001N1+02301+02301999999ADDMA1101591999999REMMET045METAR SBMD 270200Z 00000KT CAVOK 23/23 Q1016;
0072820910999992011082702004-00883-052600FM-15+0206SBMD V0209999C000019999999Y0099001N1+02301+02301999999ADDMA1101591999999REMMET045METAR SBMD 270200Z 00000KT CAVOK 23/23 Q1016;
0072820910999992011082702004-00883-052600FM-15+0206SBMD V0209999C000019999999Y0099001N1+02301+02301999999ADDMA1101591999999REMMET045METAR SBMD 270200Z 00000KT CAVOK 23/23 Q1016;
0072820910999992011082702004-00883-052600FM-15+0206SBMD V0209999C000019999999Y0099001N1+02301+02301999999ADDMA1101591999999REMMET045METAR SBMD 270200Z 00000KT CAVOK 23/23 Q1016;
0072820910999992011082702004-00883-052600FM-15+0206SBMD V0209999C000019999999Y0099001N1+02301+02301999999ADDMA1101591999999REMMET045METAR SBMD 270200Z 00000KT CAVOK 23/23 Q1016;
0072820910999992011082702004-00883-052600FM-15+0206SBMD V0209999C000019999999Y0099001N1+02301+02301999999ADDMA1101591999999REMMET045METAR SBMD 270200Z 00000KT CAVOK 23/23 Q1016;
0072820910999992011082702004-00883-052600FM-15+0206SBMD V0209999C000019999999Y0099001N1+02301+02301999999ADDMA1101591999999REMMET045METAR SBMD 270200Z 00000KT CAVOK 23/23 Q1016;
0072820910999992011082702004-00883-052600FM-15+0206SBMD V0209999C000019999999Y0099001N1+02301+02301999999ADDMA1101591999999REMMET045METAR SBMD 270200Z 00000KT CAVOK 23/23 Q1016;
0072820910999992011082702004-00883-052600FM-15+0206SBMD V0209999C000019999999Y0099001N1+02301+02301999999ADDMA1101591999999REMMET045METAR SBMD 270200Z 00000KT CAVOK 23/23 Q1016;
0072820910999992011082702004-00883-052600FM-15+0206SBMD V0209999C000019999999Y0099001N1+02301+02301999999ADDMA1101591999999REMMET045METAR SBMD 270200Z 00000KT CAVOK 23/23 Q1016;
0072820910999992011082702004-00883-052600FM-15+0206SBMD V0209999C000019999999Y0099001N1+02301+02301999999ADDMA1101591999999REMMET045METAR SBMD 270200Z 00000KT CAVOK 23/23 Q1016;
0072820910999992011082702004-00883-052600FM-15+0206SBMD V0209999C000019999999Y0099001N1+02301+02301999999ADDMA1101591999999REMMET045METAR SBMD 270200Z 00000KT CAVOK 23/23 Q1016;
0072820910999992011082702004-00883-052600FM-15+0206SBMD V0209999C000019999999Y0099001N1+02301+02301999999ADDMA1101591999999REMMET045METAR SBMD 270200Z 00000KT CAVOK 23/23 Q1016;
0072820910999992011082702004-00883-052600FM-15+0206SBMD V0209999C000019999999Y0099001N1+02301+02301999999ADDMA1101591999999REMMET045METAR SBMD 270200Z 00000KT CAVOK 23/23 Q1016;
0072820910999992011082702004-00883-052600FM-15+0206SBMD V0209999C000019999999Y0099001N1+02301+02301999999ADDMA1101591999999REMMET045METAR SBMD 270200Z 00000KT CAVOK 23/23 Q1016;
0072820910999992011082702004-00883-052600FM-15+0206SBMD V0209999C000019999999Y0099001N1+02301+02301999999ADDMA1101591999999REMMET045METAR SBMD 270200Z 00000KT CAVOK 23/23 Q1016;
0072820910999992011082702004-00883-052600FM-15+0206SBMD V0209999C000019999999Y0099001N1+02301+02301999999ADDMA1101591999999REMMET045METAR SBMD 270200Z 00000KT CAVOK 23/23 Q1016;
0072820910999992011082702004-00883-052600FM-15+0206SBMD V0209999C000019999999Y0099001N1+02301+02301999999ADDMA1101591999999REMMET045METAR SBMD 270200Z 00000KT CAVOK 23/23 Q1016;
0072820910999992011082702004-00883-052600FM-15+0206SBMD V0209999C000019999999Y0099001N1+02301+02301999999ADDMA1101591999999REMMET045METAR SBMD 270200Z 00000KT CAVOK 23/23 Q1016;
0072820910999992011082702004-00883-052600FM-15+0206SBMD V0209999C000019999999Y0099001N1+02301+02301999999ADDMA1101591999999REMMET045METAR SBMD 270200Z 00000KT CAVOK 23/23 Q1016;
0072820910999992011082702004-00883-052600FM-15+0206SBMD V0209999C000019999999Y0099001N1+02301+02301999999ADDMA1101591999999REMMET045METAR SBMD 270200Z 00000KT CAVOK 23/23 Q1016;
0072820910999992011082702004-00883-052600FM-15+0206SBMD V0209999C000019999999Y0099001N1+02301+02301999999ADDMA1101591999999REMMET045METAR SBMD 270200Z 00000KT CAVOK 23/23 Q1016;
0072820910999992011082702004-00883-052600FM-15+0206SBMD V0209999C000019999999Y0099001N1+02301+02301999999ADDMA1101591999999REMMET045METAR SBMD 270200Z 00000KT CAVOK 23/23 Q1016;
0072820910999992011082702004-00883-052600FM-15+0206SBMD V0209999C000019999999Y0099001N1+02301+02301999999ADDMA1101591999999REMMET045METAR SBMD 270200Z 00000KT CAVOK 23/23 Q1016;
0072820910999992011082702004-00883-052600FM-15+0206SBMD V0209999C000019999999Y0099001N1+02301+02301999999ADDMA1101591999999REMMET045METAR SBMD 270200Z 00000KT CAVOK 23/23 Q1016;
0072820910999992011082702004-00883-052600FM-15+0206SBMD V0209999C000019999999Y0099001N1+02301+02301999999ADDMA1101591999999REMMET045METAR SBMD 270200Z 00000KT CAVOK 23/23 Q1016;
0072820910999992011082702004-00883-052600FM-15+0206SBMD V0209999C000019999999Y0099001N1+02301+02301999999ADDMA1101591999999REMMET045METAR SBMD 270200Z 00000KT CAVOK 23/23 Q1016;
0072820910999992011082702004-00883-052600FM-15+0206SBMD V0209999C000019999999Y0099001N1+02301+02301999999ADDMA1101591999999REMMET045METAR SBMD 270200Z 00000KT CAVOK 23/23 Q1016;
0072820910999992011082702004-00883-052600FM-15+0206SBMD V0209999C000019999999Y0099001N1+02301+02301999999ADDMA1101591999999REMMET045METAR SBMD 270200Z 00000KT CAVOK 23/23 Q1016;
0072820910999992011082702004-00883-052600FM-15+0206SBMD V0209999C000019999999Y0099001N1+02301+02301999999ADDMA1101591999999REMMET045METAR SBMD 270200Z 00000KT CAVOK 23/23 Q1016;
0072820910999992011082702004-00883-052600FM-15+0206SBMD V0209999C000019999999Y0099001N1+02301+02301999999ADDMA1101591999999REMMET045METAR SBMD 270200Z 00000KT CAVOK 23/23 Q1016;
0072820910999992011082702004-00883-052600FM-15+0206SBMD V0209999C000019999999Y0099001N1+02301+02301999999ADDMA1101591999999REMMET045METAR SBMD 270200Z 00000KT CAVOK 23/23 Q1016;
0072820910999992011082702004-00883-052600FM-15+0206SBMD V0209999C000019999999Y0099001N1+02301+02301999999ADDMA1101591999999REMMET045METAR SBMD 270200Z 00000KT CAVOK 23/23 Q1016;
0072820910999992011082702004-00883-052600FM-15+0206SBMD V0209999C000019999999Y0099001N1+02301+02301999999ADDMA1101591999999REMMET045METAR SBMD 270200Z 00000KT CAVOK 23/23 Q1016;
0072820910999992011082702004-00883-052600FM-15+0206SBMD V0209999C000019999999Y0099001N1+02301+02301999999ADDMA1101591999999REMMET045METAR SBMD 270200Z 00000KT CAVOK 23/23 Q1016;
0072820910999992011082702004-00883-052600FM-15+0206SBMD V0209999C000019999999Y0099001N1+02301+02301999999ADDMA1101591999999REMMET045METAR SBMD 270200Z 00000KT CAVOK 23/23 Q1016;
0072820910999992011082702004-00883-052600FM-15+0206SBMD V0209999C000019999999Y0099001N1+02301+02301999999ADDMA1101591999999REMMET045METAR SBMD 270200Z 00000KT CAVOK 23/23 Q1016;
0072820910999992011082702004-00883-052600FM-15+0206SBMD V0209999C000019999999Y0099001N1+02301+02301999999ADDMA1101591999999REMMET045METAR SBMD 270200Z 00000KT CAVOK 23/23 Q1016;
0072820910999992011082702004-00883-052600FM-15+0206SBMD V0209999C000019999999Y0099001N1+02301+02301999999ADDMA1101591999999REMMET045METAR SBMD 270200Z 00000KT CAVOK 23/23 Q1016;
0072820910999992011082702004-00883-052600FM-15+0206SBMD V0209999C000019999999Y0099001N1+02301+02301999999ADDMA1101591999999REMMET045METAR SBMD 270200Z 00000KT CAVOK 23/23 Q1016;
0072820910999992011082702004-00883-052600FM-15+0206SBMD V0209999C000019999999Y0099001N1+02301+02301999999ADDMA1101591999999REMMET045METAR SBMD 270200Z 00000KT CAVOK 23/23 Q1016;
0072820910999992011082702004-00883-052600FM-15+0206SBMD V0209999C000019999999Y0099001N1+02301+02301999999ADDMA1101591999999REMMET045METAR SBMD 270200Z 00000KT CAVOK 23/23 Q1016;
0072820910999992011082702004-00883-052600FM-15+0206SBMD V0209999C000019999999Y0099001N1+02301+02301999999ADDMA1101591999999REMMET045METAR SBMD 270200Z 00000KT CAVOK 23/23 Q1016;
0072820910999992011082702004-00883-052600FM-15+0206SBMD V0209999C000019999999Y0099001N1+02301+02301999999ADDMA1101591999999REMMET045METAR SBMD 270200Z 00000KT CAVOK 23/23 Q1016;
0072820910999992011082702004-00883-052600FM-15+0206SBMD V0209999C000019999999Y0099001N1+02301+02301999999ADDMA1101591999999REMMET045METAR SBMD 270200Z 00000KT CAVOK 23/23 Q1016;
0072820910999992011082702004-00883-052600FM-15+0206SBMD V0209999C000019999999Y0099001N1+02301+02301999999ADDMA1101591999999REMMET045METAR SBMD 270200Z 00000KT CAVOK 23/23 Q1016;
0072820910999992011082702004-00883-052600FM-15+0206SBMD V0209999C000019999999Y0099001N1+02301+02301999999ADDMA1101591999999REMMET045METAR SBMD 270200Z 00000KT CAVOK 23/23 Q1016;
0072820910999992011082702004-00883-052600FM-15+0206SBMD V0209999C000019999999Y0099001N1+02301+02301999999ADDMA1101591999999REMMET045METAR SBMD 270200Z 00000KT CAVOK 23/23 Q1016;
0072820910999992011082702004-00883-052600FM-15+0206SBMD V0209999C000019999999Y0099001N1+02301+02301999999ADDMA1101591999999REMMET045METAR SBMD 270200Z 00000KT CAVOK 23/23 Q1016;
0072820910999992011082702004-00883-052600FM-15+0206SBMD V0209999C000019999999Y0099001N1+02301+02301999999ADDMA1101591999999REMMET045METAR SBMD 270200Z 00000KT CAVOK 23/23 Q1016;
0072820910999992011082702004-00883-052600FM-15+0206SBMD V0209999C000019999999Y0099001N1+02301+02301999999ADDMA1101591999999REMMET045METAR SBMD 270200Z 00000KT CAVOK 23/23 Q1016;
0072820910999992011082702004-00883-052600FM-15+0206SBMD V0209999C000019999999Y0099001N1+02301+02301999999ADDMA1101591999999REMMET045METAR SBMD 270200Z 00000KT CAVOK 23/23 Q1016;
0072820910999992011082702004-00883-052600FM-15+0206SBMD V0209999C000019999999Y0099001N1+02301+02301999999ADDMA1101591999999REMMET045METAR SBMD 270200Z 00000KT CAVOK 23/23 Q1016;
0072820910999992011082702004-00883-052600FM-15+0206SBMD V0209999C000019999999Y0099001N1+02301+02301999999ADDMA1101591999999REMMET045METAR SBMD 270200Z 00000KT CAVOK 23/23 Q1016;
0072820910999992011082702004-00883-052600FM-15+0206SBMD V0209999C000019999999Y0099001N1+02301+02301999999ADDMA1101591999999REMMET045METAR SBMD 270200Z 00000KT CAVOK 23/23 Q1016;
0072820910999992011082702004-00883-052600FM-15+0206SBMD V0209999C000019999999Y0099001N1+02301+02301999999ADDMA1101591999999REMMET045METAR SBMD 270200Z 00000KT CAVOK 23/23 Q1016;
0072820910999992011082702004-00883-052600FM-15+0206SBMD V0209999C000019999999Y0099001N1+02301+02301999999ADDMA1101591999999REMMET045METAR SBMD 270200Z 00000KT CAVOK 23/23 Q1016;
0072820910999992011082702004-00883-052600FM-15+0206SBMD V0209999C000019999999Y0099001N1+02301+02301999999ADDMA1101591999999REMMET045METAR SBMD 270200Z 00000KT CAVOK 23/23 Q1016;
0072820910999992011082702004-00883-052600FM-15+0206SBMD V0209999C000019999999Y0099001N1+02301+02301999999ADDMA1101591999999REMMET045METAR SBMD 270200Z 00000KT CAVOK 23/23 Q1016;
0072820910999992011082702004-00883-052600FM-15+0206SBMD V0209999C000019999999Y0099001N1+02301+02301999999ADDMA1101591999999REMMET045METAR SBMD 270200Z 00000KT CAVOK 23/23 Q1016;
0072820910999992011082702004-00883-052600FM-15+0206SBMD V0209999C000019999999Y0099001N1+02301+02301999999ADDMA1101591999999REMMET045METAR SBMD 270200Z 00000KT CAVOK 23/23 Q1016;
0072820910999992011082702004-00883-052600FM-15+0206SBMD V0209999C000019999999Y0099001N1+02301+02301999999ADDMA1101591999999REMMET045METAR SBMD 270200Z 00000KT CAVOK 23/23 Q1016;
0072820910999992011082702004-00883-052600FM-15+0206SBMD V0209999C000019999999Y0099001N1+02301+02301999999ADDMA1101591999999REMMET045METAR SBMD 270200Z 00000KT CAVOK 23/23 Q1016;
0072820910999992011082702004-00883-052600FM-15+0206SBMD V0209999C000019999999Y0099001N1+02301+02301999999ADDMA1101591999999REMMET045METAR SBMD 270200Z 00000KT CAVOK 23/23 Q1016;
0072820910999992011082702004-00883-052600FM-15+0206SBMD V0209999C000019999999Y0099001N1+02301+02301999999ADDMA1101591999999REMMET045METAR SBMD 270200Z 00000KT CAVOK 23/23 Q1016;
0072820910999992011082702004-00883-052600FM-15+0206SBMD V0209999C000019999999Y0099001N1+02301+02301999999ADDMA1101591999999REMMET045METAR SBMD 270200Z 00000KT CAVOK 23/23 Q1016;
0072820910999992011082702004-00883-052600FM-15+0206SBMD V0209999C000019999999Y0099001N1+02301+02301999999ADDMA1101591999999REMMET045METAR SBMD 270200Z 00000KT CAVOK 23/23 Q1016;
0072820910999992011082702004-00883-052600FM-15+0206SBMD V0209999C000019999999Y0099001N1+02301+02301999999ADDMA1101591999999REMMET045METAR SBMD 270200Z 00000KT CAVOK 23/23 Q1016;
0072820910999992011082702004-00883-052600FM-15+0206SBMD V0209999C000019999999Y0099001N1+02301+02301999999ADDMA1101591999999REMMET045METAR SBMD 270200Z 00000KT CAVOK 23/23 Q1016;
0072820910999992011082702004-00883-052600FM-15+0206SBMD V0209999C000019999999Y0099001N1+02301+02301999999ADDMA1101591999999REMMET045METAR SBMD 270200Z 00000KT CAVOK 23/23 Q1016;
0072820910999992011082702004-00883-052600FM-15+0206SBMD V0209999C000019999999Y0099001N1+02301+02301999999ADDMA1101591999999REMMET045METAR SBMD 270200Z 00000KT CAVOK 23/23 Q1016;
0072820910999992011082702004-00883-052600FM-15+0206SBMD V0209999C000019999999Y0099001N1+02301+02301999999ADDMA1101591999999REMMET045METAR SBMD 270200Z 00000KT CAVOK 23/23 Q1016;
0072820910999992011082702004-00883-052600FM-15+0206SBMD V0209999C000019999999Y0099001N1+02301+02301999999ADDMA1101591999999REMMET045METAR SBMD 270200Z 00000KT CAVOK 23/23 Q1016;
0072820910999992011082702004-00883-052600FM-15+0206SBMD V0209999C000019999999Y0099001N1+02301+02301999999ADDMA1101591999999REMMET045METAR SBMD 270200Z 00000KT CAVOK 23/23 Q1016;
0072820910999992011082702004-00883-052600FM-15+0206SBMD V0209999C000019999999Y0099001N1+02301+02301999999ADDMA1101591999999REMMET045METAR SBMD 270200Z 00000KT CAVOK 23/23 Q1016;
0072820910999992011082702004-00883-052600FM-15+0206SBMD V0209999C000019999999Y0099001N1+02301+02301999999ADDMA1101591999999REMMET045METAR SBMD 270200Z 00000KT CAVOK 23/23 Q1016;
0072820910999992011082702004-00883-052600FM-15+0206SBMD V0209999C000019999999Y0099001N1+02301+02301999999ADDMA1101591999999REMMET045METAR SBMD 270200Z 00000KT CAVOK 23/23 Q1016;
0072820910999992011082702004-00883-052600FM-15+0206SBMD V0209999C000019999999Y0099001N1+02301+02301999999ADDMA1101591999999REMMET045METAR SBMD 270200Z 00000KT CAVOK 23/23 Q1016;
0072820910999992011082702004-00883-052600FM-15+0206SBMD V0209999C000019999999Y0099001N1+02301+02301999999ADDMA1101591999999REMMET045METAR SBMD 270200Z 00000KT CAVOK 23/23 Q1016;
0072820910999992011082702004-00883-052600FM-15+0206SBMD V0209999C000019999999Y0099001N1+02301+02301999999ADDMA1101591999999REMMET045METAR SBMD 270200Z 00000KT CAVOK 23/23 Q1016;
0072820910999992011082702004-00883-052600FM-15+0206SBMD V0209999C000019999999Y0099001N1+02301+02301999999ADDMA1101591999999REMMET045METAR SBMD 270200Z 00000KT CAVOK 23/23 Q1016;
0072820910999992011082702004-00883-052600FM-15+0206SBMD V0209999C000019999999Y0099001N1+02301+02301999999ADDMA1101591999999REMMET045METAR SBMD 270200Z 00000KT CAVOK 23/23 Q1016;
0072820910999992011082702004-00883-052600FM-15+0206SBMD V0209999C000019999999Y0099001N1+02301+02301999999ADDMA1101591999999REMMET045METAR SBMD 270200Z 00000KT CAVOK 23/23 Q1016;
0072820910999992011082702004-00883-052600FM-15+0206SBMD V0209999C000019999999Y0099001N1+02301+02301999999ADDMA1101591999999REMMET045METAR SBMD 270200Z 00000KT CAVOK 23/23 Q1016;
0072820910999992011082702004-00883-052600FM-15+0206SBMD V0209999C000019999999Y0099001N1+02301+02301999999ADDMA1101591999999REMMET045METAR SBMD 270200Z 00000KT CAVOK 23/23 Q1016;
0072820910999992011082702004-00883-052600FM-15+0206SBMD V0209999C000019999999Y0099001N1+02301+02301999999ADDMA1101591999999REMMET045METAR SBMD 270200Z 00000KT CAVOK 23/23 Q1016;
0072820910999992011082702004-00883-052600FM-15+0206SBMD V0209999C000019999999Y0099001N1+02301+02301999999ADDMA1101591999999REMMET045METAR SBMD 270200Z 00000KT CAVOK 23/23 Q1016;
0072820910999992011082702004-00883-052600FM-15+0206SBMD V0209999C000019999999Y0099001N1+02301+02301999999ADDMA1101591999999REMMET045METAR SBMD 270200Z 00000KT CAVOK 23/23 Q1016;
0072820910999992011082702004-00883-052600FM-15+0206SBMD V0209999C000019999999Y0099001N1+02301+02301999999ADDMA1101591999999REMMET045METAR SBMD 270200Z 00000KT CAVOK 23/23 Q1016;
0072820910999992011082702004-00883-052600FM-15+0206SBMD V0209999C000019999999Y0099001N1+02301+02301999999ADDMA1101591999999REMMET045METAR SBMD 270200Z 00000KT CAVOK 23/23 Q1016;
0072820910999992011082702004-00883-052600FM-15+0206SBMD V0209999C000019999999Y0099001N1+02301+02301999999ADDMA1101591999999REMMET045METAR SBMD 270200Z 00000KT CAVOK 23/23 Q1016;
0072820910999992011082702004-00883-052600FM-15+0206SBMD V0209999C000019999999Y0099001N1+02301+02301999999ADDMA1101591999999REMMET045METAR SBMD 270200Z 00000KT CAVOK 23/23 Q1016;
0072820910999992011082702004-00883-052600FM-15+0206SBMD V0209999C000019999999Y0099001N1+02301+02301999999ADDMA1101591999999REMMET045METAR SBMD 270200Z 00000KT CAVOK 23/23 Q1016;
0072820910999992011082702004-00883-052600FM-15+0206SBMD V0209999C000019999999Y0099001N1+02301+02301999999ADDMA1101591999999REMMET045METAR SBMD 270200Z 00000KT CAVOK 23/23 Q1016;
0072820910999992011082702004-00883-052600FM-15+0206SBMD V0209999C000019999999Y0099001N1+02301+02301999999ADDMA1101591999999REMMET045METAR SBMD 270200Z 00000KT CAVOK 23/23 Q1016;
0072820910999992011082702004-00883-052600FM-15+0206SBMD V0209999C000019999999Y0099001N1+02301+02301999999ADDMA1101591999999REMMET045METAR SBMD 270200Z 00000KT CAVOK 23/23 Q1016;
0072820910999992011082702004-00883-052600FM-15+0206SBMD V0209999C000019999999Y0099001N1+02301+02301999999ADDMA1101591999999REMMET045METAR SBMD 270200Z 00000KT CAVOK 23/23 Q1016;
0072820910999992011082702004-00883-052600FM-15+0206SBMD V0209999C000019999999Y0099001N1+02301+02301999999ADDMA1101591999999REMMET045METAR SBMD 270200Z 00000KT CAVOK 23/23 Q1016;
0072820910999992011082702004-00883-052600FM-15+0206SBMD V0209999C000019999999Y0099001N1+02301+02301999999ADDMA1101591999999REMMET045METAR SBMD 270200Z 00000KT CAVOK 23/23 Q1016;
0072820910999992011082702004-00883-052600FM-15+0206SBMD V0209999C000019999999Y0099001N1+02301+02301999999ADDMA1101591999999REMMET045METAR SBMD 270200Z 00000KT CAVOK 23/23 Q1016;
0072820910999992011082702004-00883-052600FM-15+0206SBMD V0209999C000019999999Y0099001N1+02301+02301999999ADDMA1101591999999REMMET045METAR SBMD 270200Z 00000KT CAVOK 23/23 Q1016;
0072820910999992011082702004-00883-052600FM-15+0206SBMD V0209999C000019999999Y0099001N1+02301+02301999999ADDMA1101591999999REMMET045METAR SBMD 270200Z 00000KT CAVOK 23/23 Q1016;
0072820910999992011082702004-00883-052600FM-15+0206SBMD V0209999C000019999999Y0099001N1+02301+02301999999ADDMA1101591999999REMMET045METAR SBMD 270200Z 00000KT CAVOK 23/23 Q1016;
0072820910999992011082702004-00883-052600FM-15+0206SBMD V0209999C000019999999Y0099001N1+02301+02301999999ADDMA1101591999999REMMET045METAR SBMD 270200Z 00000KT CAVOK 23/23 Q1016;
0072820910999992011082702004-00883-052600FM-15+0206SBMD V0209999C000019999999Y0099001N1+02301+02301999999ADDMA1101591999999REMMET045METAR SBMD 270200Z 00000KT CAVOK 23/23 Q1016;
0072820910999992011082702004-00883-052600FM-15+0206SBMD V0209999C000019999999Y0099001N1+02301+02301999999ADDMA1101591999999REMMET045METAR SBMD 270200Z 00000KT CAVOK 23/23 Q1016;
0072820910999992011082702004-00883-052600FM-15+0206SBMD V0209999C000019999999Y0099001N1+02301+02301999999ADDMA1101591999999REMMET045METAR SBMD 270200Z 00000KT CAVOK 23/23 Q1016;
0072820910999992011082702004-00883-052600FM-15+0206SBMD V0209999C000019999999Y0099001N1+02301+02301999999ADDMA1101591999999REMMET045METAR SBMD 270200Z 00000KT CAVOK 23/23 Q1016;
0072820910999992011082702004-00883-052600FM-15+0206SBMD V0209999C000019999999Y0099001N1+02301+02301999999ADDMA1101591999999REMMET045METAR SBMD 270200Z 00000KT CAVOK 23/23 Q1016;
0072820910999992011082702004-00883-052600FM-15+0206SBMD V0209999C000019999999Y0099001N1+02301+02301999999ADDMA1101591999999REMMET045METAR SBMD 270200Z 00000KT CAVOK 23/23 Q1016;
0072820910999992011082702004-00883-052600FM-15+0206SBMD V0209999C000019999999Y0099001N1+02301+02301999999ADDMA1101591999999REMMET045METAR SBMD 270200Z 00000KT CAVOK 23/23 Q1016;
0072820910999992011082702004-00883-052600FM-15+0206SBMD V0209999C000019999999Y0099001N1+02301+02301999999ADDMA1101591999999REMMET045METAR SBMD 270200Z 00000KT CAVOK 23/23 Q1016;
0072820910999992011082702004-00883-052600FM-15+0206SBMD V0209999C000019999999Y0099001N1+02301+02301999999ADDMA1101591999999REMMET045METAR SBMD 270200Z 00000KT CAVOK 23/23 Q1016;
0072820910999992011082702004-00883-052600FM-15+0206SBMD V0209999C000019999999Y0099001N1+02301+02301999999ADDMA1101591999999REMMET045METAR SBMD 270200Z 00000KT CAVOK 23/23 Q1016;
0072820910999992011082702004-00883-052600FM-15+0206SBMD V0209999C000019999999Y0099001N1+02301+02301999999ADDMA1101591999999REMMET045METAR SBMD 270200Z 00000KT CAVOK 23/23 Q1016;
0072820910999992011082702004-00883-052600FM-15+0206SBMD V0209999C000019999999Y0099001N1+02301+02301999999ADDMA1101591999999REMMET045METAR SBMD 270200Z 00000KT CAVOK 23/23 Q1016;
0072820910999992011082702004-00883-052600FM-15+0206SBMD V0209999C000019999999Y0099001N1+02301+02301999999ADDMA1101591999999REMMET045METAR SBMD 270200Z 00000KT CAVOK 23/23 Q1016;
0072820910999992011082702004-00883-052600FM-15+0206SBMD V0209999C000019999999Y0099001N1+02301+02301999999ADDMA1101591999999REMMET045METAR SBMD 270200Z 00000KT CAVOK 23/23 Q1016;
0072820910999992011082702004-00883-052600FM-15+0206SBMD V0209999C000019999999Y0099001N1+02301+02301999999ADDMA1101591999999REMMET045METAR SBMD 270200Z 00000KT CAVOK 23/23 Q1016;
0072820910999992011082702004-00883-052600FM-15+0206SBMD V0209999C000019999999Y0099001N1+02301+02301999999ADDMA1101591999999REMMET045METAR SBMD 270200Z 00000KT CAVOK 23/23 Q1016;
0072820910999992011082702004-00883-052600FM-15+0206SBMD V0209999C000019999999Y0099001N1+02301+02301999999ADDMA1101591999999REMMET045METAR SBMD 270200Z 00000KT CAVOK 23/23 Q1016;
0072820910999992011082702004-00883-052600FM-15+0206SBMD V0209999C000019999999Y0099001N1+02301+02301999999ADDMA1101591999999REMMET045METAR SBMD 270200Z 00000KT CAVOK 23/23 Q1016;
0072820910999992011082702004-00883-052600FM-15+0206SBMD V0209999C000019999999Y0099001N1+02301+02301999999ADDMA1101591999999REMMET045METAR SBMD 270200Z 00000KT CAVOK 23/23 Q1016;
0072820910999992011082702004-00883-052600FM-15+0206SBMD V0209999C000019999999Y0099001N1+02301+02301999999ADDMA1101591999999REMMET045METAR SBMD 270200Z 00000KT CAVOK 23/23 Q1016;
0072820910999992011082702004-00883-052600FM-15+0206SBMD V0209999C000019999999Y0099001N1+02301+02301999999ADDMA1101591999999REMMET045METAR SBMD 270200Z 00000KT CAVOK 23/23 Q1016;
0072820910999992011082702004-00883-052600FM-15+0206SBMD V0209999C000019999999Y0099001N1+02301+02301999999ADDMA1101591999999REMMET045METAR SBMD 270200Z 00000KT CAVOK 23/23 Q1016;
0072820910999992011082702004-00883-052600FM-15+0206SBMD V0209999C000019999999Y0099001N1+02301+02301999999ADDMA1101591999999REMMET045METAR SBMD 270200Z 00000KT CAVOK 23/23 Q1016;
0072820910999992011082702004-00883-052600FM-15+0206SBMD V0209999C000019999999Y0099001N1+02301+02301999999ADDMA1101591999999REMMET045METAR SBMD 270200Z 00000KT CAVOK 23/23 Q1016;
0072820910999992011082702004-00883-052600FM-15+0206SBMD V0209999C000019999999Y0099001N1+02301+02301999999ADDMA1101591999999REMMET045METAR SBMD 270200Z 00000KT CAVOK 23/23 Q1016;
0072820910999992011082702004-00883-052600FM-15+0206SBMD V0209999C000019999999Y0099001N1+02301+02301999999ADDMA1101591999999REMMET045METAR SBMD 270200Z 00000KT CAVOK 23/23 Q1016;
0072820910999992011082702004-00883-052600FM-15+0206SBMD V0209999C000019999999Y0099001N1+02301+02301999999ADDMA1101591999999REMMET045METAR SBMD 270200Z 00000KT CAVOK 23/23 Q1016;
0072820910999992011082702004-00883-052600FM-15+0206SBMD V0209999C000019999999Y0099001N1+02301+02301999999ADDMA1101591999999REMMET045METAR SBMD 270200Z 00000KT CAVOK 23/23 Q1016;
0072820910999992011082702004-00883-052600FM-15+0206SBMD V0209999C000019999999Y0099001N1+02301+02301999999ADDMA1101591999999REMMET045METAR SBMD 270200Z 00000KT CAVOK 23/23 Q1016;
0072820910999992011082702004-00883-052600FM-15+0206SBMD V0209999C000019999999Y0099001N1+02301+02301999999ADDMA1101591999999REMMET045METAR SBMD 270200Z 00000KT CAVOK 23/23 Q1016;
0072820910999992011082702004-00883-052600FM-15+0206SBMD V0209999C000019999999Y0099001N1+02301+02301999999ADDMA1101591999999REMMET045METAR SBMD 270200Z 00000KT CAVOK 23/23 Q1016;
0072820910999992011082702004-00883-052600FM-15+0206SBMD V0209999C000019999999Y0099001N1+02301+02301999999ADDMA1101591999999REMMET045METAR SBMD 270200Z 00000KT CAVOK 23/23 Q1016;
0072820910999992011082702004-00883-052600FM-15+0206SBMD V0209999C000019999999Y0099001N1+02301+02301999999ADDMA1101591999999REMMET045METAR SBMD 270200Z 00000KT CAVOK 23/23 Q1016;
0072820910999992011082702004-00883-052600FM-15+0206SBMD V0209999C000019999999Y0099001N1+02301+02301999999ADDMA1101591999999REMMET045METAR SBMD 270200Z 00000KT CAVOK 23/23 Q1016;
0072820910999992011082702004-00883-052600FM-15+0206SBMD V0209999C000019999999Y0099001N1+02301+02301999999ADDMA1101591999999REMMET045METAR SBMD 270200Z 00000KT CAVOK 23/23 Q1016;
0072820910999992011082702004-00883-052600FM-15+0206SBMD V0209999C000019999999Y0099001N1+02301+02301999999ADDMA1101591999999REMMET045METAR SBMD 270200Z 00000KT CAVOK 23/23 Q1016;
0072820910999992011082702004-00883-052600FM-15+0206SBMD V0209999C000019999999Y0099001N1+02301+02301999999ADDMA1101591999999REMMET045METAR SBMD 270200Z 00000KT CAVOK 23/23 Q1016;
0072820910999992011082702004-00883-052600FM-15+0206SBMD V0209999C000019999999Y0099001N1+02301+02301999999ADDMA1101591999999REMMET045METAR SBMD 270200Z 00000KT CAVOK 23/23 Q1016;
0072820910999992011082702004-00883-052600FM-15+0206SBMD V0209999C000019999999Y0099001N1+02301+02301999999ADDMA1101591999999REMMET045METAR SBMD 270200Z 00000KT CAVOK 23/23 Q1016;
0072820910999992011082702004-00883-052600FM-15+0206SBMD V0209999C000019999999Y0099001N1+02301+02301999999ADDMA1101591999999REMMET045METAR SBMD 270200Z 00000KT CAVOK 23/23 Q1016;
0072820910999992011082702004-00883-052600FM-15+0206SBMD V0209999C000019999999Y0099001N1+02301+02301999999ADDMA1101591999999REMMET045METAR SBMD 270200Z 00000KT CAVOK 23/23 Q1016;
0072820910999992011082702004-00883-052600FM-15+0206SBMD V0209999C000019999999Y0099001N1+02301+02301999999ADDMA1101591999999REMMET045METAR SBMD 270200Z 00000KT CAVOK 23/23 Q1016;
0072820910999992011082702004-00883-052600FM-15+0206SBMD V0209999C000019999999Y0099001N1+02301+02301999999ADDMA1101591999999REMMET045METAR SBMD 270200Z 00000KT CAVOK 23/23 Q1016;
0072820910999992011082702004-00883-052600FM-15+0206SBMD V0209999C000019999999Y0099001N1+02301+02301999999ADDMA1101591999999REMMET045METAR SBMD 270200Z 00000KT CAVOK 23/23 Q1016;
0072820910999992011082702004-00883-052600FM-15+0206SBMD V0209999C000019999999Y0099001N1+02301+02301999999ADDMA1101591999999REMMET045METAR SBMD 270200Z 00000KT CAVOK 23/23 Q1016;
0072820910999992011082702004-00883-052600FM-15+0206SBMD V0209999C000019999999Y0099001N1+02301+02301999999ADDMA1101591999999REMMET045METAR SBMD 270200Z 00000KT CAVOK 23/23 Q1016;
0072820910999992011082702004-00883-052600FM-15+0206SBMD V0209999C000019999999Y0099001N1+02301+02301999999ADDMA1101591999999REMMET045METAR SBMD 270200Z 00000KT CAVOK 23/23 Q1016;
0072820910999992011082702004-00883-052600FM-15+0206SBMD V0209999C000019999999Y0099001N1+02301+02301999999ADDMA1101591999999REMMET045METAR SBMD 270200Z 00000KT CAVOK 23/23 Q1016;
0072820910999992011082702004-00883-052600FM-15+0206SBMD V0209999C000019999999Y0099001N1+02301+02301999999ADDMA1101591999999REMMET045METAR SBMD 270200Z 00000KT CAVOK 23/23 Q1016;
0072820910999992011082702004-00883-052600FM-15+0206SBMD V0209999C000019999999Y0099001N1+02301+02301999999ADDMA1101591999999REMMET045METAR SBMD 270200Z 00000KT CAVOK 23/23 Q1016;
0072820910999992011082702004-00883-052600FM-15+0206SBMD V0209999C000019999999Y0099001N1+02301+02301999999ADDMA1101591999999REMMET045METAR SBMD 270200Z 00000KT CAVOK 23/23 Q1016;
0072820910999992011082702004-00883-052600FM-15+0206SBMD V0209999C000019999999Y0099001N1+02301+02301999999ADDMA1101591999999REMMET045METAR SBMD 270200Z 00000KT CAVOK 23/23 Q1016;
0072820910999992011082702004-00883-052600FM-15+0206SBMD V0209999C000019999999Y0099001N1+02301+02301999999ADDMA1101591999999REMMET045METAR SBMD 270200Z 00000KT CAVOK 23/23 Q1016;
0072820910999992011082702004-00883-052600FM-15+0206SBMD V0209999C000019999999Y0099001N1+02301+02301999999ADDMA1101591999999REMMET045METAR SBMD 270200Z 00000KT CAVOK 23/23 Q1016;
0072820910999992011082702004-00883-052600FM-15+0206SBMD V0209999C000019999999Y0099001N1+02301+02301999999ADDMA1101591999999REMMET045METAR SBMD 270200Z 00000KT CAVOK 23/23 Q1016;
0072820910999992011082702004-00883-052600FM-15+0206SBMD V0209999C000019999999Y0099001N1+02301+02301999999ADDMA1101591999999REMMET045METAR SBMD 270200Z 00000KT CAVOK 23/23 Q1016;
0072820910999992011082702004-00883-052600FM-15+0206SBMD V0209999C000019999999Y0099001N1+02301+02301999999ADDMA1101591999999REMMET045METAR SBMD 270200Z 00000KT CAVOK 23/23 Q1016;
0072820910999992011082702004-00883-052600FM-15+0206SBMD V0209999C000019999999Y0099001N1+02301+02301999999ADDMA1101591999999REMMET045METAR SBMD 270200Z 00000KT CAVOK 23/23 Q1016;
