0159999999999992012031910104-33600+076270FM-18+9999DRIB V02099999999999999999N9999999N1+99999+99999102671ADDMD1710071+9999SA1+2059REMSYN125ZZYY 17656 19032 1010/ 333602 076270 6111/ 11119 30267 40267 57007 22219 00205 444 20110 19032 0936/ 50101 80110 80000 9/015;
0159999999999992012031910104-33600+076270FM-18+9999DRIB V02099999999999999999N9999999N1+99999+99999102671ADDMD1710071+9999SA1+2059REMSYN125ZZYY 17656 19032 1010/ 333602 076270 6111/ 11119 30267 40267 57007 22219 00205 444 20110 19032 0936/ 50101 80110 80000 9/015;
0159999999999992012031910104-33600+076270FM-18+9999DRIB V02099999999999999999N9999999N1+99999+99999102671ADDMD1710071+9999SA1+2059REMSYN125ZZYY 17656 19032 1010/ 333602 076270 6111/ 11119 30267 40267 57007 22219 00205 444 20110 19032 0936/ 50101 80110 80000 9/015;
0159999999999992012031910104-33600+076270FM-18+9999DRIB V02099999999999999999N9999999N1+99999+99999102671ADDMD1710071+9999SA1+2059REMSYN125ZZYY 17656 19032 1010/ 333602 076270 6111/ 11119 30267 40267 57007 22219 00205 444 20110 19032 0936/ 50101 80110 80000 9/015;
0159999999999992012031910104-33600+076270FM-18+9999DRIB V02099999999999999999N9999999N1+99999+99999102671ADDMD1710071+9999SA1+2059REMSYN125ZZYY 17656 19032 1010/ 333602 076270 6111/ 11119 30267 40267 57007 22219 00205 444 20110 19032 0936/ 50101 80110 80000 9/015;
0159999999999992012031910104-33600+076270FM-18+9999DRIB V02099999999999999999N9999999N1+99999+99999102671ADDMD1710071+9999SA1+2059REMSYN125ZZYY 17656 19032 1010/ 333602 076270 6111/ 11119 30267 40267 57007 22219 00205 444 20110 19032 0936/ 50101 80110 80000 9/015;
0159999999999992012031910104-33600+076270FM-18+9999DRIB V02099999999999999999N9999999N1+99999+99999102671ADDMD1710071+9999SA1+2059REMSYN125ZZYY 17656 19032 1010/ 333602 076270 6111/ 11119 30267 40267 57007 22219 00205 444 20110 19032 0936/ 50101 80110 80000 9/015;
0159999999999992012031910104-33600+076270FM-18+9999DRIB V02099999999999999999N9999999N1+99999+99999102671ADDMD1710071+9999SA1+2059REMSYN125ZZYY 17656 19032 1010/ 333602 076270 6111/ 11119 30267 40267 57007 22219 00205 444 20110 19032 0936/ 50101 80110 80000 9/015;
0159999999999992012031910104-33600+076270FM-18+9999DRIB V02099999999999999999N9999999N1+99999+99999102671ADDMD1710071+9999SA1+2059REMSYN125ZZYY 17656 19032 1010/ 333602 076270 6111/ 11119 30267 40267 57007 22219 00205 444 20110 19032 0936/ 50101 80110 80000 9/015;
0159999999999992012031910104-33600+076270FM-18+9999DRIB V02099999999999999999N9999999N1+99999+99999102671ADDMD1710071+9999SA1+2059REMSYN125ZZYY 17656 19032 1010/ 333602 076270 6111/ 11119 30267 40267 57007 22219 00205 444 20110 19032 0936/ 50101 80110 80000 9/015;
0159999999999992012031910104-33600+076270FM-18+9999DRIB V02099999999999999999N9999999N1+99999+99999102671ADDMD1710071+9999SA1+2059REMSYN125ZZYY 17656 19032 1010/ 333602 076270 6111/ 11119 30267 40267 57007 22219 00205 444 20110 19032 0936/ 50101 80110 80000 9/015;
0159999999999992012031910104-33600+076270FM-18+9999DRIB V02099999999999999999N9999999N1+99999+99999102671ADDMD1710071+9999SA1+2059REMSYN125ZZYY 17656 19032 1010/ 333602 076270 6111/ 11119 30267 40267 57007 22219 00205 444 20110 19032 0936/ 50101 80110 80000 9/015;
0159999999999992012031910104-33600+076270FM-18+9999DRIB V02099999999999999999N9999999N1+99999+99999102671ADDMD1710071+9999SA1+2059REMSYN125ZZYY 17656 19032 1010/ 333602 076270 6111/ 11119 30267 40267 57007 22219 00205 444 20110 19032 0936/ 50101 80110 80000 9/015;
0159999999999992012031910104-33600+076270FM-18+9999DRIB V02099999999999999999N9999999N1+99999+99999102671ADDMD1710071+9999SA1+2059REMSYN125ZZYY 17656 19032 1010/ 333602 076270 6111/ 11119 30267 40267 57007 22219 00205 444 20110 19032 0936/ 50101 80110 80000 9/015;
0159999999999992012031910104-33600+076270FM-18+9999DRIB V02099999999999999999N9999999N1+99999+99999102671ADDMD1710071+9999SA1+2059REMSYN125ZZYY 17656 19032 1010/ 333602 076270 6111/ 11119 30267 40267 57007 22219 00205 444 20110 19032 0936/ 50101 80110 80000 9/015;
0159999999999992012031910104-33600+076270FM-18+9999DRIB V02099999999999999999N9999999N1+99999+99999102671ADDMD1710071+9999SA1+2059REMSYN125ZZYY 17656 19032 1010/ 333602 076270 6111/ 11119 30267 40267 57007 22219 00205 444 20110 19032 0936/ 50101 80110 80000 9/015;
0159999999999992012031910104-33600+076270FM-18+9999DRIB V02099999999999999999N9999999N1+99999+99999102671ADDMD1710071+9999SA1+2059REMSYN125ZZYY 17656 19032 1010/ 333602 076270 6111/ 11119 30267 40267 57007 22219 00205 444 20110 19032 0936/ 50101 80110 80000 9/015;
0159999999999992012031910104-33600+076270FM-18+9999DRIB V02099999999999999999N9999999N1+99999+99999102671ADDMD1710071+9999SA1+2059REMSYN125ZZYY 17656 19032 1010/ 333602 076270 6111/ 11119 30267 40267 57007 22219 00205 444 20110 19032 0936/ 50101 80110 80000 9/015;
0159999999999992012031910104-33600+076270FM-18+9999DRIB V02099999999999999999N9999999N1+99999+99999102671ADDMD1710071+9999SA1+2059REMSYN125ZZYY 17656 19032 1010/ 333602 076270 6111/ 11119 30267 40267 57007 22219 00205 444 20110 19032 0936/ 50101 80110 80000 9/015;
0159999999999992012031910104-33600+076270FM-18+9999DRIB V02099999999999999999N9999999N1+99999+99999102671ADDMD1710071+9999SA1+2059REMSYN125ZZYY 17656 19032 1010/ 333602 076270 6111/ 11119 30267 40267 57007 22219 00205 444 20110 19032 0936/ 50101 80110 80000 9/015;
0159999999999992012031910104-33600+076270FM-18+9999DRIB V02099999999999999999N9999999N1+99999+99999102671ADDMD1710071+9999SA1+2059REMSYN125ZZYY 17656 19032 1010/ 333602 076270 6111/ 11119 30267 40267 57007 22219 00205 444 20110 19032 0936/ 50101 80110 80000 9/015;
0159999999999992012031910104-33600+076270FM-18+9999DRIB V02099999999999999999N9999999N1+99999+99999102671ADDMD1710071+9999SA1+2059REMSYN125ZZYY 17656 19032 1010/ 333602 076270 6111/ 11119 30267 40267 57007 22219 00205 444 20110 19032 0936/ 50101 80110 80000 9/015;
0159999999999992012031910104-33600+076270FM-18+9999DRIB V02099999999999999999N9999999N1+99999+99999102671ADDMD1710071+9999SA1+2059REMSYN125ZZYY 17656 19032 1010/ 333602 076270 6111/ 11119 30267 40267 57007 22219 00205 444 20110 19032 0936/ 50101 80110 80000 9/015;
0159999999999992012031910104-33600+076270FM-18+9999DRIB V02099999999999999999N9999999N1+99999+99999102671ADDMD1710071+9999SA1+2059REMSYN125ZZYY 17656 19032 1010/ 333602 076270 6111/ 11119 30267 40267 57007 22219 00205 444 20110 19032 0936/ 50101 80110 80000 9/015;
0159999999999992012031910104-33600+076270FM-18+9999DRIB V02099999999999999999N9999999N1+99999+99999102671ADDMD1710071+9999SA1+2059REMSYN125ZZYY 17656 19032 1010/ 333602 076270 6111/ 11119 30267 40267 57007 22219 00205 444 20110 19032 0936/ 50101 80110 80000 9/015;
0159999999999992012031910104-33600+076270FM-18+9999DRIB V02099999999999999999N9999999N1+99999+99999102671ADDMD1710071+9999SA1+2059REMSYN125ZZYY 17656 19032 1010/ 333602 076270 6111/ 11119 30267 40267 57007 22219 00205 444 20110 19032 0936/ 50101 80110 80000 9/015;
0159999999999992012031910104-33600+076270FM-18+9999DRIB V02099999999999999999N9999999N1+99999+99999102671ADDMD1710071+9999SA1+2059REMSYN125ZZYY 17656 19032 1010/ 333602 076270 6111/ 11119 30267 40267 57007 22219 00205 444 20110 19032 0936/ 50101 80110 80000 9/015;
0159999999999992012031910104-33600+076270FM-18+9999DRIB V02099999999999999999N9999999N1+99999+99999102671ADDMD1710071+9999SA1+2059REMSYN125ZZYY 17656 19032 1010/ 333602 076270 6111/ 11119 30267 40267 57007 22219 00205 444 20110 19032 0936/ 50101 80110 80000 9/015;
0159999999999992012031910104-33600+076270FM-18+9999DRIB V02099999999999999999N9999999N1+99999+99999102671ADDMD1710071+9999SA1+2059REMSYN125ZZYY 17656 19032 1010/ 333602 076270 6111/ 11119 30267 40267 57007 22219 00205 444 20110 19032 0936/ 50101 80110 80000 9/015;
0159999999999992012031910104-33600+076270FM-18+9999DRIB V02099999999999999999N9999999N1+99999+99999102671ADDMD1710071+9999SA1+2059REMSYN125ZZYY 17656 19032 1010/ 333602 076270 6111/ 11119 30267 40267 57007 22219 00205 444 20110 19032 0936/ 50101 80110 80000 9/015;
0159999999999992012031910104-33600+076270FM-18+9999DRIB V02099999999999999999N9999999N1+99999+99999102671ADDMD1710071+9999SA1+2059REMSYN125ZZYY 17656 19032 1010/ 333602 076270 6111/ 11119 30267 40267 57007 22219 00205 444 20110 19032 0936/ 50101 80110 80000 9/015;
0159999999999992012031910104-33600+076270FM-18+9999DRIB V02099999999999999999N9999999N1+99999+99999102671ADDMD1710071+9999SA1+2059REMSYN125ZZYY 17656 19032 1010/ 333602 076270 6111/ 11119 30267 40267 57007 22219 00205 444 20110 19032 0936/ 50101 80110 80000 9/015;
0159999999999992012031910104-33600+076270FM-18+9999DRIB V02099999999999999999N9999999N1+99999+99999102671ADDMD1710071+9999SA1+2059REMSYN125ZZYY 17656 19032 1010/ 333602 076270 6111/ 11119 30267 40267 57007 22219 00205 444 20110 19032 0936/ 50101 80110 80000 9/015;
0159999999999992012031910104-33600+076270FM-18+9999DRIB V02099999999999999999N9999999N1+99999+99999102671ADDMD1710071+9999SA1+2059REMSYN125ZZYY 17656 19032 1010/ 333602 076270 6111/ 11119 30267 40267 57007 22219 00205 444 20110 19032 0936/ 50101 80110 80000 9/015;
0159999999999992012031910104-33600+076270FM-18+9999DRIB V02099999999999999999N9999999N1+99999+99999102671ADDMD1710071+9999SA1+2059REMSYN125ZZYY 17656 19032 1010/ 333602 076270 6111/ 11119 30267 40267 57007 22219 00205 444 20110 19032 0936/ 50101 80110 80000 9/015;
0159999999999992012031910104-33600+076270FM-18+9999DRIB V02099999999999999999N9999999N1+99999+99999102671ADDMD1710071+9999SA1+2059REMSYN125ZZYY 17656 19032 1010/ 333602 076270 6111/ 11119 30267 40267 57007 22219 00205 444 20110 19032 0936/ 50101 80110 80000 9/015;
0159999999999992012031910104-33600+076270FM-18+9999DRIB V02099999999999999999N9999999N1+99999+99999102671ADDMD1710071+9999SA1+2059REMSYN125ZZYY 17656 19032 1010/ 333602 076270 6111/ 11119 30267 40267 57007 22219 00205 444 20110 19032 0936/ 50101 80110 80000 9/015;
0159999999999992012031910104-33600+076270FM-18+9999DRIB V02099999999999999999N9999999N1+99999+99999102671ADDMD1710071+9999SA1+2059REMSYN125ZZYY 17656 19032 1010/ 333602 076270 6111/ 11119 30267 40267 57007 22219 00205 444 20110 19032 0936/ 50101 80110 80000 9/015;
0159999999999992012031910104-33600+076270FM-18+9999DRIB V02099999999999999999N9999999N1+99999+99999102671ADDMD1710071+9999SA1+2059REMSYN125ZZYY 17656 19032 1010/ 333602 076270 6111/ 11119 30267 40267 57007 22219 00205 444 20110 19032 0936/ 50101 80110 80000 9/015;
0159999999999992012031910104-33600+076270FM-18+9999DRIB V02099999999999999999N9999999N1+99999+99999102671ADDMD1710071+9999SA1+2059REMSYN125ZZYY 17656 19032 1010/ 333602 076270 6111/ 11119 30267 40267 57007 22219 00205 444 20110 19032 0936/ 50101 80110 80000 9/015;
0159999999999992012031910104-33600+076270FM-18+9999DRIB V02099999999999999999N9999999N1+99999+99999102671ADDMD1710071+9999SA1+2059REMSYN125ZZYY 17656 19032 1010/ 333602 076270 6111/ 11119 30267 40267 57007 22219 00205 444 20110 19032 0936/ 50101 80110 80000 9/015;
0159999999999992012031910104-33600+076270FM-18+9999DRIB V02099999999999999999N9999999N1+99999+99999102671ADDMD1710071+9999SA1+2059REMSYN125ZZYY 17656 19032 1010/ 333602 076270 6111/ 11119 30267 40267 57007 22219 00205 444 20110 19032 0936/ 50101 80110 80000 9/015;
0159999999999992012031910104-33600+076270FM-18+9999DRIB V02099999999999999999N9999999N1+99999+99999102671ADDMD1710071+9999SA1+2059REMSYN125ZZYY 17656 19032 1010/ 333602 076270 6111/ 11119 30267 40267 57007 22219 00205 444 20110 19032 0936/ 50101 80110 80000 9/015;
0159999999999992012031910104-33600+076270FM-18+9999DRIB V02099999999999999999N9999999N1+99999+99999102671ADDMD1710071+9999SA1+2059REMSYN125ZZYY 17656 19032 1010/ 333602 076270 6111/ 11119 30267 40267 57007 22219 00205 444 20110 19032 0936/ 50101 80110 80000 9/015;
0159999999999992012031910104-33600+076270FM-18+9999DRIB V02099999999999999999N9999999N1+99999+99999102671ADDMD1710071+9999SA1+2059REMSYN125ZZYY 17656 19032 1010/ 333602 076270 6111/ 11119 30267 40267 57007 22219 00205 444 20110 19032 0936/ 50101 80110 80000 9/015;
0159999999999992012031910104-33600+076270FM-18+9999DRIB V02099999999999999999N9999999N1+99999+99999102671ADDMD1710071+9999SA1+2059REMSYN125ZZYY 17656 19032 1010/ 333602 076270 6111/ 11119 30267 40267 57007 22219 00205 444 20110 19032 0936/ 50101 80110 80000 9/015;
0159999999999992012031910104-33600+076270FM-18+9999DRIB V02099999999999999999N9999999N1+99999+99999102671ADDMD1710071+9999SA1+2059REMSYN125ZZYY 17656 19032 1010/ 333602 076270 6111/ 11119 30267 40267 57007 22219 00205 444 20110 19032 0936/ 50101 80110 80000 9/015;
0159999999999992012031910104-33600+076270FM-18+9999DRIB V02099999999999999999N9999999N1+99999+99999102671ADDMD1710071+9999SA1+2059REMSYN125ZZYY 17656 19032 1010/ 333602 076270 6111/ 11119 30267 40267 57007 22219 00205 444 20110 19032 0936/ 50101 80110 80000 9/015;
0159999999999992012031910104-33600+076270FM-18+9999DRIB V02099999999999999999N9999999N1+99999+99999102671ADDMD1710071+9999SA1+2059REMSYN125ZZYY 17656 19032 1010/ 333602 076270 6111/ 11119 30267 40267 57007 22219 00205 444 20110 19032 0936/ 50101 80110 80000 9/015;
0159999999999992012031910104-33600+076270FM-18+9999DRIB V02099999999999999999N9999999N1+99999+99999102671ADDMD1710071+9999SA1+2059REMSYN125ZZYY 17656 19032 1010/ 333602 076270 6111/ 11119 30267 40267 57007 22219 00205 444 20110 19032 0936/ 50101 80110 80000 9/015;
0159999999999992012031910104-33600+076270FM-18+9999DRIB V02099999999999999999N9999999N1+99999+99999102671ADDMD1710071+9999SA1+2059REMSYN125ZZYY 17656 19032 1010/ 333602 076270 6111/ 11119 30267 40267 57007 22219 00205 444 20110 19032 0936/ 50101 80110 80000 9/015;
0159999999999992012031910104-33600+076270FM-18+9999DRIB V02099999999999999999N9999999N1+99999+99999102671ADDMD1710071+9999SA1+2059REMSYN125ZZYY 17656 19032 1010/ 333602 076270 6111/ 11119 30267 40267 57007 22219 00205 444 20110 19032 0936/ 50101 80110 80000 9/015;
0159999999999992012031910104-33600+076270FM-18+9999DRIB V02099999999999999999N9999999N1+99999+99999102671ADDMD1710071+9999SA1+2059REMSYN125ZZYY 17656 19032 1010/ 333602 076270 6111/ 11119 30267 40267 57007 22219 00205 444 20110 19032 0936/ 50101 80110 80000 9/015;
0159999999999992012031910104-33600+076270FM-18+9999DRIB V02099999999999999999N9999999N1+99999+99999102671ADDMD1710071+9999SA1+2059REMSYN125ZZYY 17656 19032 1010/ 333602 076270 6111/ 11119 30267 40267 57007 22219 00205 444 20110 19032 0936/ 50101 80110 80000 9/015;
0159999999999992012031910104-33600+076270FM-18+9999DRIB V02099999999999999999N9999999N1+99999+99999102671ADDMD1710071+9999SA1+2059REMSYN125ZZYY 17656 19032 1010/ 333602 076270 6111/ 11119 30267 40267 57007 22219 00205 444 20110 19032 0936/ 50101 80110 80000 9/015;
0159999999999992012031910104-33600+076270FM-18+9999DRIB V02099999999999999999N9999999N1+99999+99999102671ADDMD1710071+9999SA1+2059REMSYN125ZZYY 17656 19032 1010/ 333602 076270 6111/ 11119 30267 40267 57007 22219 00205 444 20110 19032 0936/ 50101 80110 80000 9/015;
0159999999999992012031910104-33600+076270FM-18+9999DRIB V02099999999999999999N9999999N1+99999+99999102671ADDMD1710071+9999SA1+2059REMSYN125ZZYY 17656 19032 1010/ 333602 076270 6111/ 11119 30267 40267 57007 22219 00205 444 20110 19032 0936/ 50101 80110 80000 9/015;
0159999999999992012031910104-33600+076270FM-18+9999DRIB V02099999999999999999N9999999N1+99999+99999102671ADDMD1710071+9999SA1+2059REMSYN125ZZYY 17656 19032 1010/ 333602 076270 6111/ 11119 30267 40267 57007 22219 00205 444 20110 19032 0936/ 50101 80110 80000 9/015;
0159999999999992012031910104-33600+076270FM-18+9999DRIB V02099999999999999999N9999999N1+99999+99999102671ADDMD1710071+9999SA1+2059REMSYN125ZZYY 17656 19032 1010/ 333602 076270 6111/ 11119 30267 40267 57007 22219 00205 444 20110 19032 0936/ 50101 80110 80000 9/015;
0159999999999992012031910104-33600+076270FM-18+9999DRIB V02099999999999999999N9999999N1+99999+99999102671ADDMD1710071+9999SA1+2059REMSYN125ZZYY 17656 19032 1010/ 333602 076270 6111/ 11119 30267 40267 57007 22219 00205 444 20110 19032 0936/ 50101 80110 80000 9/015;
0159999999999992012031910104-33600+076270FM-18+9999DRIB V02099999999999999999N9999999N1+99999+99999102671ADDMD1710071+9999SA1+2059REMSYN125ZZYY 17656 19032 1010/ 333602 076270 6111/ 11119 30267 40267 57007 22219 00205 444 20110 19032 0936/ 50101 80110 80000 9/015;
0159999999999992012031910104-33600+076270FM-18+9999DRIB V02099999999999999999N9999999N1+99999+99999102671ADDMD1710071+9999SA1+2059REMSYN125ZZYY 17656 19032 1010/ 333602 076270 6111/ 11119 30267 40267 57007 22219 00205 444 20110 19032 0936/ 50101 80110 80000 9/015;
0159999999999992012031910104-33600+076270FM-18+9999DRIB V02099999999999999999N9999999N1+99999+99999102671ADDMD1710071+9999SA1+2059REMSYN125ZZYY 17656 19032 1010/ 333602 076270 6111/ 11119 30267 40267 57007 22219 00205 444 20110 19032 0936/ 50101 80110 80000 9/015;
0159999999999992012031910104-33600+076270FM-18+9999DRIB V02099999999999999999N9999999N1+99999+99999102671ADDMD1710071+9999SA1+2059REMSYN125ZZYY 17656 19032 1010/ 333602 076270 6111/ 11119 30267 40267 57007 22219 00205 444 20110 19032 0936/ 50101 80110 80000 9/015;
0159999999999992012031910104-33600+076270FM-18+9999DRIB V02099999999999999999N9999999N1+99999+99999102671ADDMD1710071+9999SA1+2059REMSYN125ZZYY 17656 19032 1010/ 333602 076270 6111/ 11119 30267 40267 57007 22219 00205 444 20110 19032 0936/ 50101 80110 80000 9/015;
0159999999999992012031910104-33600+076270FM-18+9999DRIB V02099999999999999999N9999999N1+99999+99999102671ADDMD1710071+9999SA1+2059REMSYN125ZZYY 17656 19032 1010/ 333602 076270 6111/ 11119 30267 40267 57007 22219 00205 444 20110 19032 0936/ 50101 80110 80000 9/015;
0159999999999992012031910104-33600+076270FM-18+9999DRIB V02099999999999999999N9999999N1+99999+99999102671ADDMD1710071+9999SA1+2059REMSYN125ZZYY 17656 19032 1010/ 333602 076270 6111/ 11119 30267 40267 57007 22219 00205 444 20110 19032 0936/ 50101 80110 80000 9/015;
0159999999999992012031910104-33600+076270FM-18+9999DRIB V02099999999999999999N9999999N1+99999+99999102671ADDMD1710071+9999SA1+2059REMSYN125ZZYY 17656 19032 1010/ 333602 076270 6111/ 11119 30267 40267 57007 22219 00205 444 20110 19032 0936/ 50101 80110 80000 9/015;
0159999999999992012031910104-33600+076270FM-18+9999DRIB V02099999999999999999N9999999N1+99999+99999102671ADDMD1710071+9999SA1+2059REMSYN125ZZYY 17656 19032 1010/ 333602 076270 6111/ 11119 30267 40267 57007 22219 00205 444 20110 19032 0936/ 50101 80110 80000 9/015;
0159999999999992012031910104-33600+076270FM-18+9999DRIB V02099999999999999999N9999999N1+99999+99999102671ADDMD1710071+9999SA1+2059REMSYN125ZZYY 17656 19032 1010/ 333602 076270 6111/ 11119 30267 40267 57007 22219 00205 444 20110 19032 0936/ 50101 80110 80000 9/015;
0159999999999992012031910104-33600+076270FM-18+9999DRIB V02099999999999999999N9999999N1+99999+99999102671ADDMD1710071+9999SA1+2059REMSYN125ZZYY 17656 19032 1010/ 333602 076270 6111/ 11119 30267 40267 57007 22219 00205 444 20110 19032 0936/ 50101 80110 80000 9/015;
0159999999999992012031910104-33600+076270FM-18+9999DRIB V02099999999999999999N9999999N1+99999+99999102671ADDMD1710071+9999SA1+2059REMSYN125ZZYY 17656 19032 1010/ 333602 076270 6111/ 11119 30267 40267 57007 22219 00205 444 20110 19032 0936/ 50101 80110 80000 9/015;
0159999999999992012031910104-33600+076270FM-18+9999DRIB V02099999999999999999N9999999N1+99999+99999102671ADDMD1710071+9999SA1+2059REMSYN125ZZYY 17656 19032 1010/ 333602 076270 6111/ 11119 30267 40267 57007 22219 00205 444 20110 19032 0936/ 50101 80110 80000 9/015;
0159999999999992012031910104-33600+076270FM-18+9999DRIB V02099999999999999999N9999999N1+99999+99999102671ADDMD1710071+9999SA1+2059REMSYN125ZZYY 17656 19032 1010/ 333602 076270 6111/ 11119 30267 40267 57007 22219 00205 444 20110 19032 0936/ 50101 80110 80000 9/015;
0159999999999992012031910104-33600+076270FM-18+9999DRIB V02099999999999999999N9999999N1+99999+99999102671ADDMD1710071+9999SA1+2059REMSYN125ZZYY 17656 19032 1010/ 333602 076270 6111/ 11119 30267 40267 57007 22219 00205 444 20110 19032 0936/ 50101 80110 80000 9/015;
0159999999999992012031910104-33600+076270FM-18+9999DRIB V02099999999999999999N9999999N1+99999+99999102671ADDMD1710071+9999SA1+2059REMSYN125ZZYY 17656 19032 1010/ 333602 076270 6111/ 11119 30267 40267 57007 22219 00205 444 20110 19032 0936/ 50101 80110 80000 9/015;
0159999999999992012031910104-33600+076270FM-18+9999DRIB V02099999999999999999N9999999N1+99999+99999102671ADDMD1710071+9999SA1+2059REMSYN125ZZYY 17656 19032 1010/ 333602 076270 6111/ 11119 30267 40267 57007 22219 00205 444 20110 19032 0936/ 50101 80110 80000 9/015;
0159999999999992012031910104-33600+076270FM-18+9999DRIB V02099999999999999999N9999999N1+99999+99999102671ADDMD1710071+9999SA1+2059REMSYN125ZZYY 17656 19032 1010/ 333602 076270 6111/ 11119 30267 40267 57007 22219 00205 444 20110 19032 0936/ 50101 80110 80000 9/015;
0159999999999992012031910104-33600+076270FM-18+9999DRIB V02099999999999999999N9999999N1+99999+99999102671ADDMD1710071+9999SA1+2059REMSYN125ZZYY 17656 19032 1010/ 333602 076270 6111/ 11119 30267 40267 57007 22219 00205 444 20110 19032 0936/ 50101 80110 80000 9/015;
0159999999999992012031910104-33600+076270FM-18+9999DRIB V02099999999999999999N9999999N1+99999+99999102671ADDMD1710071+9999SA1+2059REMSYN125ZZYY 17656 19032 1010/ 333602 076270 6111/ 11119 30267 40267 57007 22219 00205 444 20110 19032 0936/ 50101 80110 80000 9/015;
0159999999999992012031910104-33600+076270FM-18+9999DRIB V02099999999999999999N9999999N1+99999+99999102671ADDMD1710071+9999SA1+2059REMSYN125ZZYY 17656 19032 1010/ 333602 076270 6111/ 11119 30267 40267 57007 22219 00205 444 20110 19032 0936/ 50101 80110 80000 9/015;
0159999999999992012031910104-33600+076270FM-18+9999DRIB V02099999999999999999N9999999N1+99999+99999102671ADDMD1710071+9999SA1+2059REMSYN125ZZYY 17656 19032 1010/ 333602 076270 6111/ 11119 30267 40267 57007 22219 00205 444 20110 19032 0936/ 50101 80110 80000 9/015;
0159999999999992012031910104-33600+076270FM-18+9999DRIB V02099999999999999999N9999999N1+99999+99999102671ADDMD1710071+9999SA1+2059REMSYN125ZZYY 17656 19032 1010/ 333602 076270 6111/ 11119 30267 40267 57007 22219 00205 444 20110 19032 0936/ 50101 80110 80000 9/015;
0159999999999992012031910104-33600+076270FM-18+9999DRIB V02099999999999999999N9999999N1+99999+99999102671ADDMD1710071+9999SA1+2059REMSYN125ZZYY 17656 19032 1010/ 333602 076270 6111/ 11119 30267 40267 57007 22219 00205 444 20110 19032 0936/ 50101 80110 80000 9/015;
0159999999999992012031910104-33600+076270FM-18+9999DRIB V02099999999999999999N9999999N1+99999+99999102671ADDMD1710071+9999SA1+2059REMSYN125ZZYY 17656 19032 1010/ 333602 076270 6111/ 11119 30267 40267 57007 22219 00205 444 20110 19032 0936/ 50101 80110 80000 9/015;
0159999999999992012031910104-33600+076270FM-18+9999DRIB V02099999999999999999N9999999N1+99999+99999102671ADDMD1710071+9999SA1+2059REMSYN125ZZYY 17656 19032 1010/ 333602 076270 6111/ 11119 30267 40267 57007 22219 00205 444 20110 19032 0936/ 50101 80110 80000 9/015;
0159999999999992012031910104-33600+076270FM-18+9999DRIB V02099999999999999999N9999999N1+99999+99999102671ADDMD1710071+9999SA1+2059REMSYN125ZZYY 17656 19032 1010/ 333602 076270 6111/ 11119 30267 40267 57007 22219 00205 444 20110 19032 0936/ 50101 80110 80000 9/015;
0159999999999992012031910104-33600+076270FM-18+9999DRIB V02099999999999999999N9999999N1+99999+99999102671ADDMD1710071+9999SA1+2059REMSYN125ZZYY 17656 19032 1010/ 333602 076270 6111/ 11119 30267 40267 57007 22219 00205 444 20110 19032 0936/ 50101 80110 80000 9/015;
0159999999999992012031910104-33600+076270FM-18+9999DRIB V02099999999999999999N9999999N1+99999+99999102671ADDMD1710071+9999SA1+2059REMSYN125ZZYY 17656 19032 1010/ 333602 076270 6111/ 11119 30267 40267 57007 22219 00205 444 20110 19032 0936/ 50101 80110 80000 9/015;
0159999999999992012031910104-33600+076270FM-18+9999DRIB V02099999999999999999N9999999N1+99999+99999102671ADDMD1710071+9999SA1+2059REMSYN125ZZYY 17656 19032 1010/ 333602 076270 6111/ 11119 30267 40267 57007 22219 00205 444 20110 19032 0936/ 50101 80110 80000 9/015;
0159999999999992012031910104-33600+076270FM-18+9999DRIB V02099999999999999999N9999999N1+99999+99999102671ADDMD1710071+9999SA1+2059REMSYN125ZZYY 17656 19032 1010/ 333602 076270 6111/ 11119 30267 40267 57007 22219 00205 444 20110 19032 0936/ 50101 80110 80000 9/015;
0159999999999992012031910104-33600+076270FM-18+9999DRIB V02099999999999999999N9999999N1+99999+99999102671ADDMD1710071+9999SA1+2059REMSYN125ZZYY 17656 19032 1010/ 333602 076270 6111/ 11119 30267 40267 57007 22219 00205 444 20110 19032 0936/ 50101 80110 80000 9/015;
0159999999999992012031910104-33600+076270FM-18+9999DRIB V02099999999999999999N9999999N1+99999+99999102671ADDMD1710071+9999SA1+2059REMSYN125ZZYY 17656 19032 1010/ 333602 076270 6111/ 11119 30267 40267 57007 22219 00205 444 20110 19032 0936/ 50101 80110 80000 9/015;
0159999999999992012031910104-33600+076270FM-18+9999DRIB V02099999999999999999N9999999N1+99999+99999102671ADDMD1710071+9999SA1+2059REMSYN125ZZYY 17656 19032 1010/ 333602 076270 6111/ 11119 30267 40267 57007 22219 00205 444 20110 19032 0936/ 50101 80110 80000 9/015;
0159999999999992012031910104-33600+076270FM-18+9999DRIB V02099999999999999999N9999999N1+99999+99999102671ADDMD1710071+9999SA1+2059REMSYN125ZZYY 17656 19032 1010/ 333602 076270 6111/ 11119 30267 40267 57007 22219 00205 444 20110 19032 0936/ 50101 80110 80000 9/015;
0159999999999992012031910104-33600+076270FM-18+9999DRIB V02099999999999999999N9999999N1+99999+99999102671ADDMD1710071+9999SA1+2059REMSYN125ZZYY 17656 19032 1010/ 333602 076270 6111/ 11119 30267 40267 57007 22219 00205 444 20110 19032 0936/ 50101 80110 80000 9/015;
0159999999999992012031910104-33600+076270FM-18+9999DRIB V02099999999999999999N9999999N1+99999+99999102671ADDMD1710071+9999SA1+2059REMSYN125ZZYY 17656 19032 1010/ 333602 076270 6111/ 11119 30267 40267 57007 22219 00205 444 20110 19032 0936/ 50101 80110 80000 9/015;
0159999999999992012031910104-33600+076270FM-18+9999DRIB V02099999999999999999N9999999N1+99999+99999102671ADDMD1710071+9999SA1+2059REMSYN125ZZYY 17656 19032 1010/ 333602 076270 6111/ 11119 30267 40267 57007 22219 00205 444 20110 19032 0936/ 50101 80110 80000 9/015;
0159999999999992012031910104-33600+076270FM-18+9999DRIB V02099999999999999999N9999999N1+99999+99999102671ADDMD1710071+9999SA1+2059REMSYN125ZZYY 17656 19032 1010/ 333602 076270 6111/ 11119 30267 40267 57007 22219 00205 444 20110 19032 0936/ 50101 80110 80000 9/015;
0159999999999992012031910104-33600+076270FM-18+9999DRIB V02099999999999999999N9999999N1+99999+99999102671ADDMD1710071+9999SA1+2059REMSYN125ZZYY 17656 19032 1010/ 333602 076270 6111/ 11119 30267 40267 57007 22219 00205 444 20110 19032 0936/ 50101 80110 80000 9/015;
0159999999999992012031910104-33600+076270FM-18+9999DRIB V02099999999999999999N9999999N1+99999+99999102671ADDMD1710071+9999SA1+2059REMSYN125ZZYY 17656 19032 1010/ 333602 076270 6111/ 11119 30267 40267 57007 22219 00205 444 20110 19032 0936/ 50101 80110 80000 9/015;
0159999999999992012031910104-33600+076270FM-18+9999DRIB V02099999999999999999N9999999N1+99999+99999102671ADDMD1710071+9999SA1+2059REMSYN125ZZYY 17656 19032 1010/ 333602 076270 6111/ 11119 30267 40267 57007 22219 00205 444 20110 19032 0936/ 50101 80110 80000 9/015;
0159999999999992012031910104-33600+076270FM-18+9999DRIB V02099999999999999999N9999999N1+99999+99999102671ADDMD1710071+9999SA1+2059REMSYN125ZZYY 17656 19032 1010/ 333602 076270 6111/ 11119 30267 40267 57007 22219 00205 444 20110 19032 0936/ 50101 80110 80000 9/015;
0159999999999992012031910104-33600+076270FM-18+9999DRIB V02099999999999999999N9999999N1+99999+99999102671ADDMD1710071+9999SA1+2059REMSYN125ZZYY 17656 19032 1010/ 333602 076270 6111/ 11119 30267 40267 57007 22219 00205 444 20110 19032 0936/ 50101 80110 80000 9/015;
0159999999999992012031910104-33600+076270FM-18+9999DRIB V02099999999999999999N9999999N1+99999+99999102671ADDMD1710071+9999SA1+2059REMSYN125ZZYY 17656 19032 1010/ 333602 076270 6111/ 11119 30267 40267 57007 22219 00205 444 20110 19032 0936/ 50101 80110 80000 9/015;
0159999999999992012031910104-33600+076270FM-18+9999DRIB V02099999999999999999N9999999N1+99999+99999102671ADDMD1710071+9999SA1+2059REMSYN125ZZYY 17656 19032 1010/ 333602 076270 6111/ 11119 30267 40267 57007 22219 00205 444 20110 19032 0936/ 50101 80110 80000 9/015;
0159999999999992012031910104-33600+076270FM-18+9999DRIB V02099999999999999999N9999999N1+99999+99999102671ADDMD1710071+9999SA1+2059REMSYN125ZZYY 17656 19032 1010/ 333602 076270 6111/ 11119 30267 40267 57007 22219 00205 444 20110 19032 0936/ 50101 80110 80000 9/015;
0159999999999992012031910104-33600+076270FM-18+9999DRIB V02099999999999999999N9999999N1+99999+99999102671ADDMD1710071+9999SA1+2059REMSYN125ZZYY 17656 19032 1010/ 333602 076270 6111/ 11119 30267 40267 57007 22219 00205 444 20110 19032 0936/ 50101 80110 80000 9/015;
0159999999999992012031910104-33600+076270FM-18+9999DRIB V02099999999999999999N9999999N1+99999+99999102671ADDMD1710071+9999SA1+2059REMSYN125ZZYY 17656 19032 1010/ 333602 076270 6111/ 11119 30267 40267 57007 22219 00205 444 20110 19032 0936/ 50101 80110 80000 9/015;
0159999999999992012031910104-33600+076270FM-18+9999DRIB V02099999999999999999N9999999N1+99999+99999102671ADDMD1710071+9999SA1+2059REMSYN125ZZYY 17656 19032 1010/ 333602 076270 6111/ 11119 30267 40267 57007 22219 00205 444 20110 19032 0936/ 50101 80110 80000 9/015;
0159999999999992012031910104-33600+076270FM-18+9999DRIB V02099999999999999999N9999999N1+99999+99999102671ADDMD1710071+9999SA1+2059REMSYN125ZZYY 17656 19032 1010/ 333602 076270 6111/ 11119 30267 40267 57007 22219 00205 444 20110 19032 0936/ 50101 80110 80000 9/015;
0159999999999992012031910104-33600+076270FM-18+9999DRIB V02099999999999999999N9999999N1+99999+99999102671ADDMD1710071+9999SA1+2059REMSYN125ZZYY 17656 19032 1010/ 333602 076270 6111/ 11119 30267 40267 57007 22219 00205 444 20110 19032 0936/ 50101 80110 80000 9/015;
0159999999999992012031910104-33600+076270FM-18+9999DRIB V02099999999999999999N9999999N1+99999+99999102671ADDMD1710071+9999SA1+2059REMSYN125ZZYY 17656 19032 1010/ 333602 076270 6111/ 11119 30267 40267 57007 22219 00205 444 20110 19032 0936/ 50101 80110 80000 9/015;
0159999999999992012031910104-33600+076270FM-18+9999DRIB V02099999999999999999N9999999N1+99999+99999102671ADDMD1710071+9999SA1+2059REMSYN125ZZYY 17656 19032 1010/ 333602 076270 6111/ 11119 30267 40267 57007 22219 00205 444 20110 19032 0936/ 50101 80110 80000 9/015;
0159999999999992012031910104-33600+076270FM-18+9999DRIB V02099999999999999999N9999999N1+99999+99999102671ADDMD1710071+9999SA1+2059REMSYN125ZZYY 17656 19032 1010/ 333602 076270 6111/ 11119 30267 40267 57007 22219 00205 444 20110 19032 0936/ 50101 80110 80000 9/015;
0159999999999992012031910104-33600+076270FM-18+9999DRIB V02099999999999999999N9999999N1+99999+99999102671ADDMD1710071+9999SA1+2059REMSYN125ZZYY 17656 19032 1010/ 333602 076270 6111/ 11119 30267 40267 57007 22219 00205 444 20110 19032 0936/ 50101 80110 80000 9/015;
0159999999999992012031910104-33600+076270FM-18+9999DRIB V02099999999999999999N9999999N1+99999+99999102671ADDMD1710071+9999SA1+2059REMSYN125ZZYY 17656 19032 1010/ 333602 076270 6111/ 11119 30267 40267 57007 22219 00205 444 20110 19032 0936/ 50101 80110 80000 9/015;
0159999999999992012031910104-33600+076270FM-18+9999DRIB V02099999999999999999N9999999N1+99999+99999102671ADDMD1710071+9999SA1+2059REMSYN125ZZYY 17656 19032 1010/ 333602 076270 6111/ 11119 30267 40267 57007 22219 00205 444 20110 19032 0936/ 50101 80110 80000 9/015;
0159999999999992012031910104-33600+076270FM-18+9999DRIB V02099999999999999999N9999999N1+99999+99999102671ADDMD1710071+9999SA1+2059REMSYN125ZZYY 17656 19032 1010/ 333602 076270 6111/ 11119 30267 40267 57007 22219 00205 444 20110 19032 0936/ 50101 80110 80000 9/015;
0159999999999992012031910104-33600+076270FM-18+9999DRIB V02099999999999999999N9999999N1+99999+99999102671ADDMD1710071+9999SA1+2059REMSYN125ZZYY 17656 19032 1010/ 333602 076270 6111/ 11119 30267 40267 57007 22219 00205 444 20110 19032 0936/ 50101 80110 80000 9/015;
0159999999999992012031910104-33600+076270FM-18+9999DRIB V02099999999999999999N9999999N1+99999+99999102671ADDMD1710071+9999SA1+2059REMSYN125ZZYY 17656 19032 1010/ 333602 076270 6111/ 11119 30267 40267 57007 22219 00205 444 20110 19032 0936/ 50101 80110 80000 9/015;
0159999999999992012031910104-33600+076270FM-18+9999DRIB V02099999999999999999N9999999N1+99999+99999102671ADDMD1710071+9999SA1+2059REMSYN125ZZYY 17656 19032 1010/ 333602 076270 6111/ 11119 30267 40267 57007 22219 00205 444 20110 19032 0936/ 50101 80110 80000 9/015;
0159999999999992012031910104-33600+076270FM-18+9999DRIB V02099999999999999999N9999999N1+99999+99999102671ADDMD1710071+9999SA1+2059REMSYN125ZZYY 17656 19032 1010/ 333602 076270 6111/ 11119 30267 40267 57007 22219 00205 444 20110 19032 0936/ 50101 80110 80000 9/015;
0159999999999992012031910104-33600+076270FM-18+9999DRIB V02099999999999999999N9999999N1+99999+99999102671ADDMD1710071+9999SA1+2059REMSYN125ZZYY 17656 19032 1010/ 333602 076270 6111/ 11119 30267 40267 57007 22219 00205 444 20110 19032 0936/ 50101 80110 80000 9/015;
0159999999999992012031910104-33600+076270FM-18+9999DRIB V02099999999999999999N9999999N1+99999+99999102671ADDMD1710071+9999SA1+2059REMSYN125ZZYY 17656 19032 1010/ 333602 076270 6111/ 11119 30267 40267 57007 22219 00205 444 20110 19032 0936/ 50101 80110 80000 9/015;
0159999999999992012031910104-33600+076270FM-18+9999DRIB V02099999999999999999N9999999N1+99999+99999102671ADDMD1710071+9999SA1+2059REMSYN125ZZYY 17656 19032 1010/ 333602 076270 6111/ 11119 30267 40267 57007 22219 00205 444 20110 19032 0936/ 50101 80110 80000 9/015;
0159999999999992012031910104-33600+076270FM-18+9999DRIB V02099999999999999999N9999999N1+99999+99999102671ADDMD1710071+9999SA1+2059REMSYN125ZZYY 17656 19032 1010/ 333602 076270 6111/ 11119 30267 40267 57007 22219 00205 444 20110 19032 0936/ 50101 80110 80000 9/015;
0159999999999992012031910104-33600+076270FM-18+9999DRIB V02099999999999999999N9999999N1+99999+99999102671ADDMD1710071+9999SA1+2059REMSYN125ZZYY 17656 19032 1010/ 333602 076270 6111/ 11119 30267 40267 57007 22219 00205 444 20110 19032 0936/ 50101 80110 80000 9/015;
0159999999999992012031910104-33600+076270FM-18+9999DRIB V02099999999999999999N9999999N1+99999+99999102671ADDMD1710071+9999SA1+2059REMSYN125ZZYY 17656 19032 1010/ 333602 076270 6111/ 11119 30267 40267 57007 22219 00205 444 20110 19032 0936/ 50101 80110 80000 9/015;
0159999999999992012031910104-33600+076270FM-18+9999DRIB V02099999999999999999N9999999N1+99999+99999102671ADDMD1710071+9999SA1+2059REMSYN125ZZYY 17656 19032 1010/ 333602 076270 6111/ 11119 30267 40267 57007 22219 00205 444 20110 19032 0936/ 50101 80110 80000 9/015;
0159999999999992012031910104-33600+076270FM-18+9999DRIB V02099999999999999999N9999999N1+99999+99999102671ADDMD1710071+9999SA1+2059REMSYN125ZZYY 17656 19032 1010/ 333602 076270 6111/ 11119 30267 40267 57007 22219 00205 444 20110 19032 0936/ 50101 80110 80000 9/015;
0159999999999992012031910104-33600+076270FM-18+9999DRIB V02099999999999999999N9999999N1+99999+99999102671ADDMD1710071+9999SA1+2059REMSYN125ZZYY 17656 19032 1010/ 333602 076270 6111/ 11119 30267 40267 57007 22219 00205 444 20110 19032 0936/ 50101 80110 80000 9/015;
0159999999999992012031910104-33600+076270FM-18+9999DRIB V02099999999999999999N9999999N1+99999+99999102671ADDMD1710071+9999SA1+2059REMSYN125ZZYY 17656 19032 1010/ 333602 076270 6111/ 11119 30267 40267 57007 22219 00205 444 20110 19032 0936/ 50101 80110 80000 9/015;
0159999999999992012031910104-33600+076270FM-18+9999DRIB V02099999999999999999N9999999N1+99999+99999102671ADDMD1710071+9999SA1+2059REMSYN125ZZYY 17656 19032 1010/ 333602 076270 6111/ 11119 30267 40267 57007 22219 00205 444 20110 19032 0936/ 50101 80110 80000 9/015;
0159999999999992012031910104-33600+076270FM-18+9999DRIB V02099999999999999999N9999999N1+99999+99999102671ADDMD1710071+9999SA1+2059REMSYN125ZZYY 17656 19032 1010/ 333602 076270 6111/ 11119 30267 40267 57007 22219 00205 444 20110 19032 0936/ 50101 80110 80000 9/015;
0159999999999992012031910104-33600+076270FM-18+9999DRIB V02099999999999999999N9999999N1+99999+99999102671ADDMD1710071+9999SA1+2059REMSYN125ZZYY 17656 19032 1010/ 333602 076270 6111/ 11119 30267 40267 57007 22219 00205 444 20110 19032 0936/ 50101 80110 80000 9/015;
0159999999999992012031910104-33600+076270FM-18+9999DRIB V02099999999999999999N9999999N1+99999+99999102671ADDMD1710071+9999SA1+2059REMSYN125ZZYY 17656 19032 1010/ 333602 076270 6111/ 11119 30267 40267 57007 22219 00205 444 20110 19032 0936/ 50101 80110 80000 9/015;
0159999999999992012031910104-33600+076270FM-18+9999DRIB V02099999999999999999N9999999N1+99999+99999102671ADDMD1710071+9999SA1+2059REMSYN125ZZYY 17656 19032 1010/ 333602 076270 6111/ 11119 30267 40267 57007 22219 00205 444 20110 19032 0936/ 50101 80110 80000 9/015;
0159999999999992012031910104-33600+076270FM-18+9999DRIB V02099999999999999999N9999999N1+99999+99999102671ADDMD1710071+9999SA1+2059REMSYN125ZZYY 17656 19032 1010/ 333602 076270 6111/ 11119 30267 40267 57007 22219 00205 444 20110 19032 0936/ 50101 80110 80000 9/015;
0159999999999992012031910104-33600+076270FM-18+9999DRIB V02099999999999999999N9999999N1+99999+99999102671ADDMD1710071+9999SA1+2059REMSYN125ZZYY 17656 19032 1010/ 333602 076270 6111/ 11119 30267 40267 57007 22219 00205 444 20110 19032 0936/ 50101 80110 80000 9/015;
0159999999999992012031910104-33600+076270FM-18+9999DRIB V02099999999999999999N9999999N1+99999+99999102671ADDMD1710071+9999SA1+2059REMSYN125ZZYY 17656 19032 1010/ 333602 076270 6111/ 11119 30267 40267 57007 22219 00205 444 20110 19032 0936/ 50101 80110 80000 9/015;
0159999999999992012031910104-33600+076270FM-18+9999DRIB V02099999999999999999N9999999N1+99999+99999102671ADDMD1710071+9999SA1+2059REMSYN125ZZYY 17656 19032 1010/ 333602 076270 6111/ 11119 30267 40267 57007 22219 00205 444 20110 19032 0936/ 50101 80110 80000 9/015;
0159999999999992012031910104-33600+076270FM-18+9999DRIB V02099999999999999999N9999999N1+99999+99999102671ADDMD1710071+9999SA1+2059REMSYN125ZZYY 17656 19032 1010/ 333602 076270 6111/ 11119 30267 40267 57007 22219 00205 444 20110 19032 0936/ 50101 80110 80000 9/015;
0159999999999992012031910104-33600+076270FM-18+9999DRIB V02099999999999999999N9999999N1+99999+99999102671ADDMD1710071+9999SA1+2059REMSYN125ZZYY 17656 19032 1010/ 333602 076270 6111/ 11119 30267 40267 57007 22219 00205 444 20110 19032 0936/ 50101 80110 80000 9/015;
0159999999999992012031910104-33600+076270FM-18+9999DRIB V02099999999999999999N9999999N1+99999+99999102671ADDMD1710071+9999SA1+2059REMSYN125ZZYY 17656 19032 1010/ 333602 076270 6111/ 11119 30267 40267 57007 22219 00205 444 20110 19032 0936/ 50101 80110 80000 9/015;
0159999999999992012031910104-33600+076270FM-18+9999DRIB V02099999999999999999N9999999N1+99999+99999102671ADDMD1710071+9999SA1+2059REMSYN125ZZYY 17656 19032 1010/ 333602 076270 6111/ 11119 30267 40267 57007 22219 00205 444 20110 19032 0936/ 50101 80110 80000 9/015;
0159999999999992012031910104-33600+076270FM-18+9999DRIB V02099999999999999999N9999999N1+99999+99999102671ADDMD1710071+9999SA1+2059REMSYN125ZZYY 17656 19032 1010/ 333602 076270 6111/ 11119 30267 40267 57007 22219 00205 444 20110 19032 0936/ 50101 80110 80000 9/015;
0159999999999992012031910104-33600+076270FM-18+9999DRIB V02099999999999999999N9999999N1+99999+99999102671ADDMD1710071+9999SA1+2059REMSYN125ZZYY 17656 19032 1010/ 333602 076270 6111/ 11119 30267 40267 57007 22219 00205 444 20110 19032 0936/ 50101 80110 80000 9/015;
0159999999999992012031910104-33600+076270FM-18+9999DRIB V02099999999999999999N9999999N1+99999+99999102671ADDMD1710071+9999SA1+2059REMSYN125ZZYY 17656 19032 1010/ 333602 076270 6111/ 11119 30267 40267 57007 22219 00205 444 20110 19032 0936/ 50101 80110 80000 9/015;
0159999999999992012031910104-33600+076270FM-18+9999DRIB V02099999999999999999N9999999N1+99999+99999102671ADDMD1710071+9999SA1+2059REMSYN125ZZYY 17656 19032 1010/ 333602 076270 6111/ 11119 30267 40267 57007 22219 00205 444 20110 19032 0936/ 50101 80110 80000 9/015;
0159999999999992012031910104-33600+076270FM-18+9999DRIB V02099999999999999999N9999999N1+99999+99999102671ADDMD1710071+9999SA1+2059REMSYN125ZZYY 17656 19032 1010/ 333602 076270 6111/ 11119 30267 40267 57007 22219 00205 444 20110 19032 0936/ 50101 80110 80000 9/015;
0159999999999992012031910104-33600+076270FM-18+9999DRIB V02099999999999999999N9999999N1+99999+99999102671ADDMD1710071+9999SA1+2059REMSYN125ZZYY 17656 19032 1010/ 333602 076270 6111/ 11119 30267 40267 57007 22219 00205 444 20110 19032 0936/ 50101 80110 80000 9/015;
0159999999999992012031910104-33600+076270FM-18+9999DRIB V02099999999999999999N9999999N1+99999+99999102671ADDMD1710071+9999SA1+2059REMSYN125ZZYY 17656 19032 1010/ 333602 076270 6111/ 11119 30267 40267 57007 22219 00205 444 20110 19032 0936/ 50101 80110 80000 9/015;
0159999999999992012031910104-33600+076270FM-18+9999DRIB V02099999999999999999N9999999N1+99999+99999102671ADDMD1710071+9999SA1+2059REMSYN125ZZYY 17656 19032 1010/ 333602 076270 6111/ 11119 30267 40267 57007 22219 00205 444 20110 19032 0936/ 50101 80110 80000 9/015;
0159999999999992012031910104-33600+076270FM-18+9999DRIB V02099999999999999999N9999999N1+99999+99999102671ADDMD1710071+9999SA1+2059REMSYN125ZZYY 17656 19032 1010/ 333602 076270 6111/ 11119 30267 40267 57007 22219 00205 444 20110 19032 0936/ 50101 80110 80000 9/015;
0159999999999992012031910104-33600+076270FM-18+9999DRIB V02099999999999999999N9999999N1+99999+99999102671ADDMD1710071+9999SA1+2059REMSYN125ZZYY 17656 19032 1010/ 333602 076270 6111/ 11119 30267 40267 57007 22219 00205 444 20110 19032 0936/ 50101 80110 80000 9/015;
0159999999999992012031910104-33600+076270FM-18+9999DRIB V02099999999999999999N9999999N1+99999+99999102671ADDMD1710071+9999SA1+2059REMSYN125ZZYY 17656 19032 1010/ 333602 076270 6111/ 11119 30267 40267 57007 22219 00205 444 20110 19032 0936/ 50101 80110 80000 9/015;
0159999999999992012031910104-33600+076270FM-18+9999DRIB V02099999999999999999N9999999N1+99999+99999102671ADDMD1710071+9999SA1+2059REMSYN125ZZYY 17656 19032 1010/ 333602 076270 6111/ 11119 30267 40267 57007 22219 00205 444 20110 19032 0936/ 50101 80110 80000 9/015;
0159999999999992012031910104-33600+076270FM-18+9999DRIB V02099999999999999999N9999999N1+99999+99999102671ADDMD1710071+9999SA1+2059REMSYN125ZZYY 17656 19032 1010/ 333602 076270 6111/ 11119 30267 40267 57007 22219 00205 444 20110 19032 0936/ 50101 80110 80000 9/015;
0159999999999992012031910104-33600+076270FM-18+9999DRIB V02099999999999999999N9999999N1+99999+99999102671ADDMD1710071+9999SA1+2059REMSYN125ZZYY 17656 19032 1010/ 333602 076270 6111/ 11119 30267 40267 57007 22219 00205 444 20110 19032 0936/ 50101 80110 80000 9/015;
0159999999999992012031910104-33600+076270FM-18+9999DRIB V02099999999999999999N9999999N1+99999+99999102671ADDMD1710071+9999SA1+2059REMSYN125ZZYY 17656 19032 1010/ 333602 076270 6111/ 11119 30267 40267 57007 22219 00205 444 20110 19032 0936/ 50101 80110 80000 9/015;
0159999999999992012031910104-33600+076270FM-18+9999DRIB V02099999999999999999N9999999N1+99999+99999102671ADDMD1710071+9999SA1+2059REMSYN125ZZYY 17656 19032 1010/ 333602 076270 6111/ 11119 30267 40267 57007 22219 00205 444 20110 19032 0936/ 50101 80110 80000 9/015;
0159999999999992012031910104-33600+076270FM-18+9999DRIB V02099999999999999999N9999999N1+99999+99999102671ADDMD1710071+9999SA1+2059REMSYN125ZZYY 17656 19032 1010/ 333602 076270 6111/ 11119 30267 40267 57007 22219 00205 444 20110 19032 0936/ 50101 80110 80000 9/015;
0159999999999992012031910104-33600+076270FM-18+9999DRIB V02099999999999999999N9999999N1+99999+99999102671ADDMD1710071+9999SA1+2059REMSYN125ZZYY 17656 19032 1010/ 333602 076270 6111/ 11119 30267 40267 57007 22219 00205 444 20110 19032 0936/ 50101 80110 80000 9/015;
0159999999999992012031910104-33600+076270FM-18+9999DRIB V02099999999999999999N9999999N1+99999+99999102671ADDMD1710071+9999SA1+2059REMSYN125ZZYY 17656 19032 1010/ 333602 076270 6111/ 11119 30267 40267 57007 22219 00205 444 20110 19032 0936/ 50101 80110 80000 9/015;
0159999999999992012031910104-33600+076270FM-18+9999DRIB V02099999999999999999N9999999N1+99999+99999102671ADDMD1710071+9999SA1+2059REMSYN125ZZYY 17656 19032 1010/ 333602 076270 6111/ 11119 30267 40267 57007 22219 00205 444 20110 19032 0936/ 50101 80110 80000 9/015;
0159999999999992012031910104-33600+076270FM-18+9999DRIB V02099999999999999999N9999999N1+99999+99999102671ADDMD1710071+9999SA1+2059REMSYN125ZZYY 17656 19032 1010/ 333602 076270 6111/ 11119 30267 40267 57007 22219 00205 444 20110 19032 0936/ 50101 80110 80000 9/015;
0159999999999992012031910104-33600+076270FM-18+9999DRIB V02099999999999999999N9999999N1+99999+99999102671ADDMD1710071+9999SA1+2059REMSYN125ZZYY 17656 19032 1010/ 333602 076270 6111/ 11119 30267 40267 57007 22219 00205 444 20110 19032 0936/ 50101 80110 80000 9/015;
0159999999999992012031910104-33600+076270FM-18+9999DRIB V02099999999999999999N9999999N1+99999+99999102671ADDMD1710071+9999SA1+2059REMSYN125ZZYY 17656 19032 1010/ 333602 076270 6111/ 11119 30267 40267 57007 22219 00205 444 20110 19032 0936/ 50101 80110 80000 9/015;
0159999999999992012031910104-33600+076270FM-18+9999DRIB V02099999999999999999N9999999N1+99999+99999102671ADDMD1710071+9999SA1+2059REMSYN125ZZYY 17656 19032 1010/ 333602 076270 6111/ 11119 30267 40267 57007 22219 00205 444 20110 19032 0936/ 50101 80110 80000 9/015;
0159999999999992012031910104-33600+076270FM-18+9999DRIB V02099999999999999999N9999999N1+99999+99999102671ADDMD1710071+9999SA1+2059REMSYN125ZZYY 17656 19032 1010/ 333602 076270 6111/ 11119 30267 40267 57007 22219 00205 444 20110 19032 0936/ 50101 80110 80000 9/015;
0159999999999992012031910104-33600+076270FM-18+9999DRIB V02099999999999999999N9999999N1+99999+99999102671ADDMD1710071+9999SA1+2059REMSYN125ZZYY 17656 19032 1010/ 333602 076270 6111/ 11119 30267 40267 57007 22219 00205 444 20110 19032 0936/ 50101 80110 80000 9/015;
0159999999999992012031910104-33600+076270FM-18+9999DRIB V02099999999999999999N9999999N1+99999+99999102671ADDMD1710071+9999SA1+2059REMSYN125ZZYY 17656 19032 1010/ 333602 076270 6111/ 11119 30267 40267 57007 22219 00205 444 20110 19032 0936/ 50101 80110 80000 9/015;
0159999999999992012031910104-33600+076270FM-18+9999DRIB V02099999999999999999N9999999N1+99999+99999102671ADDMD1710071+9999SA1+2059REMSYN125ZZYY 17656 19032 1010/ 333602 076270 6111/ 11119 30267 40267 57007 22219 00205 444 20110 19032 0936/ 50101 80110 80000 9/015;
0159999999999992012031910104-33600+076270FM-18+9999DRIB V02099999999999999999N9999999N1+99999+99999102671ADDMD1710071+9999SA1+2059REMSYN125ZZYY 17656 19032 1010/ 333602 076270 6111/ 11119 30267 40267 57007 22219 00205 444 20110 19032 0936/ 50101 80110 80000 9/015;
0159999999999992012031910104-33600+076270FM-18+9999DRIB V02099999999999999999N9999999N1+99999+99999102671ADDMD1710071+9999SA1+2059REMSYN125ZZYY 17656 19032 1010/ 333602 076270 6111/ 11119 30267 40267 57007 22219 00205 444 20110 19032 0936/ 50101 80110 80000 9/015;
0159999999999992012031910104-33600+076270FM-18+9999DRIB V02099999999999999999N9999999N1+99999+99999102671ADDMD1710071+9999SA1+2059REMSYN125ZZYY 17656 19032 1010/ 333602 076270 6111/ 11119 30267 40267 57007 22219 00205 444 20110 19032 0936/ 50101 80110 80000 9/015;
0159999999999992012031910104-33600+076270FM-18+9999DRIB V02099999999999999999N9999999N1+99999+99999102671ADDMD1710071+9999SA1+2059REMSYN125ZZYY 17656 19032 1010/ 333602 076270 6111/ 11119 30267 40267 57007 22219 00205 444 20110 19032 0936/ 50101 80110 80000 9/015;
0159999999999992012031910104-33600+076270FM-18+9999DRIB V02099999999999999999N9999999N1+99999+99999102671ADDMD1710071+9999SA1+2059REMSYN125ZZYY 17656 19032 1010/ 333602 076270 6111/ 11119 30267 40267 57007 22219 00205 444 20110 19032 0936/ 50101 80110 80000 9/015;
0159999999999992012031910104-33600+076270FM-18+9999DRIB V02099999999999999999N9999999N1+99999+99999102671ADDMD1710071+9999SA1+2059REMSYN125ZZYY 17656 19032 1010/ 333602 076270 6111/ 11119 30267 40267 57007 22219 00205 444 20110 19032 0936/ 50101 80110 80000 9/015;
0159999999999992012031910104-33600+076270FM-18+9999DRIB V02099999999999999999N9999999N1+99999+99999102671ADDMD1710071+9999SA1+2059REMSYN125ZZYY 17656 19032 1010/ 333602 076270 6111/ 11119 30267 40267 57007 22219 00205 444 20110 19032 0936/ 50101 80110 80000 9/015;
0159999999999992012031910104-33600+076270FM-18+9999DRIB V02099999999999999999N9999999N1+99999+99999102671ADDMD1710071+9999SA1+2059REMSYN125ZZYY 17656 19032 1010/ 333602 076270 6111/ 11119 30267 40267 57007 22219 00205 444 20110 19032 0936/ 50101 80110 80000 9/015;
0159999999999992012031910104-33600+076270FM-18+9999DRIB V02099999999999999999N9999999N1+99999+99999102671ADDMD1710071+9999SA1+2059REMSYN125ZZYY 17656 19032 1010/ 333602 076270 6111/ 11119 30267 40267 57007 22219 00205 444 20110 19032 0936/ 50101 80110 80000 9/015;
0159999999999992012031910104-33600+076270FM-18+9999DRIB V02099999999999999999N9999999N1+99999+99999102671ADDMD1710071+9999SA1+2059REMSYN125ZZYY 17656 19032 1010/ 333602 076270 6111/ 11119 30267 40267 57007 22219 00205 444 20110 19032 0936/ 50101 80110 80000 9/015;
0159999999999992012031910104-33600+076270FM-18+9999DRIB V02099999999999999999N9999999N1+99999+99999102671ADDMD1710071+9999SA1+2059REMSYN125ZZYY 17656 19032 1010/ 333602 076270 6111/ 11119 30267 40267 57007 22219 00205 444 20110 19032 0936/ 50101 80110 80000 9/015;
0159999999999992012031910104-33600+076270FM-18+9999DRIB V02099999999999999999N9999999N1+99999+99999102671ADDMD1710071+9999SA1+2059REMSYN125ZZYY 17656 19032 1010/ 333602 076270 6111/ 11119 30267 40267 57007 22219 00205 444 20110 19032 0936/ 50101 80110 80000 9/015;
0159999999999992012031910104-33600+076270FM-18+9999DRIB V02099999999999999999N9999999N1+99999+99999102671ADDMD1710071+9999SA1+2059REMSYN125ZZYY 17656 19032 1010/ 333602 076270 6111/ 11119 30267 40267 57007 22219 00205 444 20110 19032 0936/ 50101 80110 80000 9/015;
0159999999999992012031910104-33600+076270FM-18+9999DRIB V02099999999999999999N9999999N1+99999+99999102671ADDMD1710071+9999SA1+2059REMSYN125ZZYY 17656 19032 1010/ 333602 076270 6111/ 11119 30267 40267 57007 22219 00205 444 20110 19032 0936/ 50101 80110 80000 9/015;
0159999999999992012031910104-33600+076270FM-18+9999DRIB V02099999999999999999N9999999N1+99999+99999102671ADDMD1710071+9999SA1+2059REMSYN125ZZYY 17656 19032 1010/ 333602 076270 6111/ 11119 30267 40267 57007 22219 00205 444 20110 19032 0936/ 50101 80110 80000 9/015;
0159999999999992012031910104-33600+076270FM-18+9999DRIB V02099999999999999999N9999999N1+99999+99999102671ADDMD1710071+9999SA1+2059REMSYN125ZZYY 17656 19032 1010/ 333602 076270 6111/ 11119 30267 40267 57007 22219 00205 444 20110 19032 0936/ 50101 80110 80000 9/015;
0159999999999992012031910104-33600+076270FM-18+9999DRIB V02099999999999999999N9999999N1+99999+99999102671ADDMD1710071+9999SA1+2059REMSYN125ZZYY 17656 19032 1010/ 333602 076270 6111/ 11119 30267 40267 57007 22219 00205 444 20110 19032 0936/ 50101 80110 80000 9/015;
0159999999999992012031910104-33600+076270FM-18+9999DRIB V02099999999999999999N9999999N1+99999+99999102671ADDMD1710071+9999SA1+2059REMSYN125ZZYY 17656 19032 1010/ 333602 076270 6111/ 11119 30267 40267 57007 22219 00205 444 20110 19032 0936/ 50101 80110 80000 9/015;
0159999999999992012031910104-33600+076270FM-18+9999DRIB V02099999999999999999N9999999N1+99999+99999102671ADDMD1710071+9999SA1+2059REMSYN125ZZYY 17656 19032 1010/ 333602 076270 6111/ 11119 30267 40267 57007 22219 00205 444 20110 19032 0936/ 50101 80110 80000 9/015;
0159999999999992012031910104-33600+076270FM-18+9999DRIB V02099999999999999999N9999999N1+99999+99999102671ADDMD1710071+9999SA1+2059REMSYN125ZZYY 17656 19032 1010/ 333602 076270 6111/ 11119 30267 40267 57007 22219 00205 444 20110 19032 0936/ 50101 80110 80000 9/015;
0159999999999992012031910104-33600+076270FM-18+9999DRIB V02099999999999999999N9999999N1+99999+99999102671ADDMD1710071+9999SA1+2059REMSYN125ZZYY 17656 19032 1010/ 333602 076270 6111/ 11119 30267 40267 57007 22219 00205 444 20110 19032 0936/ 50101 80110 80000 9/015;
0159999999999992012031910104-33600+076270FM-18+9999DRIB V02099999999999999999N9999999N1+99999+99999102671ADDMD1710071+9999SA1+2059REMSYN125ZZYY 17656 19032 1010/ 333602 076270 6111/ 11119 30267 40267 57007 22219 00205 444 20110 19032 0936/ 50101 80110 80000 9/015;
0159999999999992012031910104-33600+076270FM-18+9999DRIB V02099999999999999999N9999999N1+99999+99999102671ADDMD1710071+9999SA1+2059REMSYN125ZZYY 17656 19032 1010/ 333602 076270 6111/ 11119 30267 40267 57007 22219 00205 444 20110 19032 0936/ 50101 80110 80000 9/015;
0159999999999992012031910104-33600+076270FM-18+9999DRIB V02099999999999999999N9999999N1+99999+99999102671ADDMD1710071+9999SA1+2059REMSYN125ZZYY 17656 19032 1010/ 333602 076270 6111/ 11119 30267 40267 57007 22219 00205 444 20110 19032 0936/ 50101 80110 80000 9/015;
0159999999999992012031910104-33600+076270FM-18+9999DRIB V02099999999999999999N9999999N1+99999+99999102671ADDMD1710071+9999SA1+2059REMSYN125ZZYY 17656 19032 1010/ 333602 076270 6111/ 11119 30267 40267 57007 22219 00205 444 20110 19032 0936/ 50101 80110 80000 9/015;
0159999999999992012031910104-33600+076270FM-18+9999DRIB V02099999999999999999N9999999N1+99999+99999102671ADDMD1710071+9999SA1+2059REMSYN125ZZYY 17656 19032 1010/ 333602 076270 6111/ 11119 30267 40267 57007 22219 00205 444 20110 19032 0936/ 50101 80110 80000 9/015;
0159999999999992012031910104-33600+076270FM-18+9999DRIB V02099999999999999999N9999999N1+99999+99999102671ADDMD1710071+9999SA1+2059REMSYN125ZZYY 17656 19032 1010/ 333602 076270 6111/ 11119 30267 40267 57007 22219 00205 444 20110 19032 0936/ 50101 80110 80000 9/015;
0159999999999992012031910104-33600+076270FM-18+9999DRIB V02099999999999999999N9999999N1+99999+99999102671ADDMD1710071+9999SA1+2059REMSYN125ZZYY 17656 19032 1010/ 333602 076270 6111/ 11119 30267 40267 57007 22219 00205 444 20110 19032 0936/ 50101 80110 80000 9/015;
0159999999999992012031910104-33600+076270FM-18+9999DRIB V02099999999999999999N9999999N1+99999+99999102671ADDMD1710071+9999SA1+2059REMSYN125ZZYY 17656 19032 1010/ 333602 076270 6111/ 11119 30267 40267 57007 22219 00205 444 20110 19032 0936/ 50101 80110 80000 9/015;
0159999999999992012031910104-33600+076270FM-18+9999DRIB V02099999999999999999N9999999N1+99999+99999102671ADDMD1710071+9999SA1+2059REMSYN125ZZYY 17656 19032 1010/ 333602 076270 6111/ 11119 30267 40267 57007 22219 00205 444 20110 19032 0936/ 50101 80110 80000 9/015;
0159999999999992012031910104-33600+076270FM-18+9999DRIB V02099999999999999999N9999999N1+99999+99999102671ADDMD1710071+9999SA1+2059REMSYN125ZZYY 17656 19032 1010/ 333602 076270 6111/ 11119 30267 40267 57007 22219 00205 444 20110 19032 0936/ 50101 80110 80000 9/015;
0159999999999992012031910104-33600+076270FM-18+9999DRIB V02099999999999999999N9999999N1+99999+99999102671ADDMD1710071+9999SA1+2059REMSYN125ZZYY 17656 19032 1010/ 333602 076270 6111/ 11119 30267 40267 57007 22219 00205 444 20110 19032 0936/ 50101 80110 80000 9/015;
0159999999999992012031910104-33600+076270FM-18+9999DRIB V02099999999999999999N9999999N1+99999+99999102671ADDMD1710071+9999SA1+2059REMSYN125ZZYY 17656 19032 1010/ 333602 076270 6111/ 11119 30267 40267 57007 22219 00205 444 20110 19032 0936/ 50101 80110 80000 9/015;
0159999999999992012031910104-33600+076270FM-18+9999DRIB V02099999999999999999N9999999N1+99999+99999102671ADDMD1710071+9999SA1+2059REMSYN125ZZYY 17656 19032 1010/ 333602 076270 6111/ 11119 30267 40267 57007 22219 00205 444 20110 19032 0936/ 50101 80110 80000 9/015;
0159999999999992012031910104-33600+076270FM-18+9999DRIB V02099999999999999999N9999999N1+99999+99999102671ADDMD1710071+9999SA1+2059REMSYN125ZZYY 17656 19032 1010/ 333602 076270 6111/ 11119 30267 40267 57007 22219 00205 444 20110 19032 0936/ 50101 80110 80000 9/015;
0159999999999992012031910104-33600+076270FM-18+9999DRIB V02099999999999999999N9999999N1+99999+99999102671ADDMD1710071+9999SA1+2059REMSYN125ZZYY 17656 19032 1010/ 333602 076270 6111/ 11119 30267 40267 57007 22219 00205 444 20110 19032 0936/ 50101 80110 80000 9/015;
0159999999999992012031910104-33600+076270FM-18+9999DRIB V02099999999999999999N9999999N1+99999+99999102671ADDMD1710071+9999SA1+2059REMSYN125ZZYY 17656 19032 1010/ 333602 076270 6111/ 11119 30267 40267 57007 22219 00205 444 20110 19032 0936/ 50101 80110 80000 9/015;
0159999999999992012031910104-33600+076270FM-18+9999DRIB V02099999999999999999N9999999N1+99999+99999102671ADDMD1710071+9999SA1+2059REMSYN125ZZYY 17656 19032 1010/ 333602 076270 6111/ 11119 30267 40267 57007 22219 00205 444 20110 19032 0936/ 50101 80110 80000 9/015;
0159999999999992012031910104-33600+076270FM-18+9999DRIB V02099999999999999999N9999999N1+99999+99999102671ADDMD1710071+9999SA1+2059REMSYN125ZZYY 17656 19032 1010/ 333602 076270 6111/ 11119 30267 40267 57007 22219 00205 444 20110 19032 0936/ 50101 80110 80000 9/015;
0159999999999992012031910104-33600+076270FM-18+9999DRIB V02099999999999999999N9999999N1+99999+99999102671ADDMD1710071+9999SA1+2059REMSYN125ZZYY 17656 19032 1010/ 333602 076270 6111/ 11119 30267 40267 57007 22219 00205 444 20110 19032 0936/ 50101 80110 80000 9/015;
0159999999999992012031910104-33600+076270FM-18+9999DRIB V02099999999999999999N9999999N1+99999+99999102671ADDMD1710071+9999SA1+2059REMSYN125ZZYY 17656 19032 1010/ 333602 076270 6111/ 11119 30267 40267 57007 22219 00205 444 20110 19032 0936/ 50101 80110 80000 9/015;
0159999999999992012031910104-33600+076270FM-18+9999DRIB V02099999999999999999N9999999N1+99999+99999102671ADDMD1710071+9999SA1+2059REMSYN125ZZYY 17656 19032 1010/ 333602 076270 6111/ 11119 30267 40267 57007 22219 00205 444 20110 19032 0936/ 50101 80110 80000 9/015;
0159999999999992012031910104-33600+076270FM-18+9999DRIB V02099999999999999999N9999999N1+99999+99999102671ADDMD1710071+9999SA1+2059REMSYN125ZZYY 17656 19032 1010/ 333602 076270 6111/ 11119 30267 40267 57007 22219 00205 444 20110 19032 0936/ 50101 80110 80000 9/015;
0159999999999992012031910104-33600+076270FM-18+9999DRIB V02099999999999999999N9999999N1+99999+99999102671ADDMD1710071+9999SA1+2059REMSYN125ZZYY 17656 19032 1010/ 333602 076270 6111/ 11119 30267 40267 57007 22219 00205 444 20110 19032 0936/ 50101 80110 80000 9/015;
0159999999999992012031910104-33600+076270FM-18+9999DRIB V02099999999999999999N9999999N1+99999+99999102671ADDMD1710071+9999SA1+2059REMSYN125ZZYY 17656 19032 1010/ 333602 076270 6111/ 11119 30267 40267 57007 22219 00205 444 20110 19032 0936/ 50101 80110 80000 9/015;
0159999999999992012031910104-33600+076270FM-18+9999DRIB V02099999999999999999N9999999N1+99999+99999102671ADDMD1710071+9999SA1+2059REMSYN125ZZYY 17656 19032 1010/ 333602 076270 6111/ 11119 30267 40267 57007 22219 00205 444 20110 19032 0936/ 50101 80110 80000 9/015;
0159999999999992012031910104-33600+076270FM-18+9999DRIB V02099999999999999999N9999999N1+99999+99999102671ADDMD1710071+9999SA1+2059REMSYN125ZZYY 17656 19032 1010/ 333602 076270 6111/ 11119 30267 40267 57007 22219 00205 444 20110 19032 0936/ 50101 80110 80000 9/015;
0159999999999992012031910104-33600+076270FM-18+9999DRIB V02099999999999999999N9999999N1+99999+99999102671ADDMD1710071+9999SA1+2059REMSYN125ZZYY 17656 19032 1010/ 333602 076270 6111/ 11119 30267 40267 57007 22219 00205 444 20110 19032 0936/ 50101 80110 80000 9/015;
0159999999999992012031910104-33600+076270FM-18+9999DRIB V02099999999999999999N9999999N1+99999+99999102671ADDMD1710071+9999SA1+2059REMSYN125ZZYY 17656 19032 1010/ 333602 076270 6111/ 11119 30267 40267 57007 22219 00205 444 20110 19032 0936/ 50101 80110 80000 9/015;
0159999999999992012031910104-33600+076270FM-18+9999DRIB V02099999999999999999N9999999N1+99999+99999102671ADDMD1710071+9999SA1+2059REMSYN125ZZYY 17656 19032 1010/ 333602 076270 6111/ 11119 30267 40267 57007 22219 00205 444 20110 19032 0936/ 50101 80110 80000 9/015;
0159999999999992012031910104-33600+076270FM-18+9999DRIB V02099999999999999999N9999999N1+99999+99999102671ADDMD1710071+9999SA1+2059REMSYN125ZZYY 17656 19032 1010/ 333602 076270 6111/ 11119 30267 40267 57007 22219 00205 444 20110 19032 0936/ 50101 80110 80000 9/015;
0159999999999992012031910104-33600+076270FM-18+9999DRIB V02099999999999999999N9999999N1+99999+99999102671ADDMD1710071+9999SA1+2059REMSYN125ZZYY 17656 19032 1010/ 333602 076270 6111/ 11119 30267 40267 57007 22219 00205 444 20110 19032 0936/ 50101 80110 80000 9/015;
0159999999999992012031910104-33600+076270FM-18+9999DRIB V02099999999999999999N9999999N1+99999+99999102671ADDMD1710071+9999SA1+2059REMSYN125ZZYY 17656 19032 1010/ 333602 076270 6111/ 11119 30267 40267 57007 22219 00205 444 20110 19032 0936/ 50101 80110 80000 9/015;
0159999999999992012031910104-33600+076270FM-18+9999DRIB V02099999999999999999N9999999N1+99999+99999102671ADDMD1710071+9999SA1+2059REMSYN125ZZYY 17656 19032 1010/ 333602 076270 6111/ 11119 30267 40267 57007 22219 00205 444 20110 19032 0936/ 50101 80110 80000 9/015;
0159999999999992012031910104-33600+076270FM-18+9999DRIB V02099999999999999999N9999999N1+99999+99999102671ADDMD1710071+9999SA1+2059REMSYN125ZZYY 17656 19032 1010/ 333602 076270 6111/ 11119 30267 40267 57007 22219 00205 444 20110 19032 0936/ 50101 80110 80000 9/015;
0159999999999992012031910104-33600+076270FM-18+9999DRIB V02099999999999999999N9999999N1+99999+99999102671ADDMD1710071+9999SA1+2059REMSYN125ZZYY 17656 19032 1010/ 333602 076270 6111/ 11119 30267 40267 57007 22219 00205 444 20110 19032 0936/ 50101 80110 80000 9/015;
0159999999999992012031910104-33600+076270FM-18+9999DRIB V02099999999999999999N9999999N1+99999+99999102671ADDMD1710071+9999SA1+2059REMSYN125ZZYY 17656 19032 1010/ 333602 076270 6111/ 11119 30267 40267 57007 22219 00205 444 20110 19032 0936/ 50101 80110 80000 9/015;
0159999999999992012031910104-33600+076270FM-18+9999DRIB V02099999999999999999N9999999N1+99999+99999102671ADDMD1710071+9999SA1+2059REMSYN125ZZYY 17656 19032 1010/ 333602 076270 6111/ 11119 30267 40267 57007 22219 00205 444 20110 19032 0936/ 50101 80110 80000 9/015;
0159999999999992012031910104-33600+076270FM-18+9999DRIB V02099999999999999999N9999999N1+99999+99999102671ADDMD1710071+9999SA1+2059REMSYN125ZZYY 17656 19032 1010/ 333602 076270 6111/ 11119 30267 40267 57007 22219 00205 444 20110 19032 0936/ 50101 80110 80000 9/015;
0159999999999992012031910104-33600+076270FM-18+9999DRIB V02099999999999999999N9999999N1+99999+99999102671ADDMD1710071+9999SA1+2059REMSYN125ZZYY 17656 19032 1010/ 333602 076270 6111/ 11119 30267 40267 57007 22219 00205 444 20110 19032 0936/ 50101 80110 80000 9/015;
0159999999999992012031910104-33600+076270FM-18+9999DRIB V02099999999999999999N9999999N1+99999+99999102671ADDMD1710071+9999SA1+2059REMSYN125ZZYY 17656 19032 1010/ 333602 076270 6111/ 11119 30267 40267 57007 22219 00205 444 20110 19032 0936/ 50101 80110 80000 9/015;
0159999999999992012031910104-33600+076270FM-18+9999DRIB V02099999999999999999N9999999N1+99999+99999102671ADDMD1710071+9999SA1+2059REMSYN125ZZYY 17656 19032 1010/ 333602 076270 6111/ 11119 30267 40267 57007 22219 00205 444 20110 19032 0936/ 50101 80110 80000 9/015;
0159999999999992012031910104-33600+076270FM-18+9999DRIB V02099999999999999999N9999999N1+99999+99999102671ADDMD1710071+9999SA1+2059REMSYN125ZZYY 17656 19032 1010/ 333602 076270 6111/ 11119 30267 40267 57007 22219 00205 444 20110 19032 0936/ 50101 80110 80000 9/015;
0159999999999992012031910104-33600+076270FM-18+9999DRIB V02099999999999999999N9999999N1+99999+99999102671ADDMD1710071+9999SA1+2059REMSYN125ZZYY 17656 19032 1010/ 333602 076270 6111/ 11119 30267 40267 57007 22219 00205 444 20110 19032 0936/ 50101 80110 80000 9/015;
0159999999999992012031910104-33600+076270FM-18+9999DRIB V02099999999999999999N9999999N1+99999+99999102671ADDMD1710071+9999SA1+2059REMSYN125ZZYY 17656 19032 1010/ 333602 076270 6111/ 11119 30267 40267 57007 22219 00205 444 20110 19032 0936/ 50101 80110 80000 9/015;
0159999999999992012031910104-33600+076270FM-18+9999DRIB V02099999999999999999N9999999N1+99999+99999102671ADDMD1710071+9999SA1+2059REMSYN125ZZYY 17656 19032 1010/ 333602 076270 6111/ 11119 30267 40267 57007 22219 00205 444 20110 19032 0936/ 50101 80110 80000 9/015;
0159999999999992012031910104-33600+076270FM-18+9999DRIB V02099999999999999999N9999999N1+99999+99999102671ADDMD1710071+9999SA1+2059REMSYN125ZZYY 17656 19032 1010/ 333602 076270 6111/ 11119 30267 40267 57007 22219 00205 444 20110 19032 0936/ 50101 80110 80000 9/015;
0159999999999992012031910104-33600+076270FM-18+9999DRIB V02099999999999999999N9999999N1+99999+99999102671ADDMD1710071+9999SA1+2059REMSYN125ZZYY 17656 19032 1010/ 333602 076270 6111/ 11119 30267 40267 57007 22219 00205 444 20110 19032 0936/ 50101 80110 80000 9/015;
0159999999999992012031910104-33600+076270FM-18+9999DRIB V02099999999999999999N9999999N1+99999+99999102671ADDMD1710071+9999SA1+2059REMSYN125ZZYY 17656 19032 1010/ 333602 076270 6111/ 11119 30267 40267 57007 22219 00205 444 20110 19032 0936/ 50101 80110 80000 9/015;
0159999999999992012031910104-33600+076270FM-18+9999DRIB V02099999999999999999N9999999N1+99999+99999102671ADDMD1710071+9999SA1+2059REMSYN125ZZYY 17656 19032 1010/ 333602 076270 6111/ 11119 30267 40267 57007 22219 00205 444 20110 19032 0936/ 50101 80110 80000 9/015;
0159999999999992012031910104-33600+076270FM-18+9999DRIB V02099999999999999999N9999999N1+99999+99999102671ADDMD1710071+9999SA1+2059REMSYN125ZZYY 17656 19032 1010/ 333602 076270 6111/ 11119 30267 40267 57007 22219 00205 444 20110 19032 0936/ 50101 80110 80000 9/015;
0159999999999992012031910104-33600+076270FM-18+9999DRIB V02099999999999999999N9999999N1+99999+99999102671ADDMD1710071+9999SA1+2059REMSYN125ZZYY 17656 19032 1010/ 333602 076270 6111/ 11119 30267 40267 57007 22219 00205 444 20110 19032 0936/ 50101 80110 80000 9/015;
0159999999999992012031910104-33600+076270FM-18+9999DRIB V02099999999999999999N9999999N1+99999+99999102671ADDMD1710071+9999SA1+2059REMSYN125ZZYY 17656 19032 1010/ 333602 076270 6111/ 11119 30267 40267 57007 22219 00205 444 20110 19032 0936/ 50101 80110 80000 9/015;
0159999999999992012031910104-33600+076270FM-18+9999DRIB V02099999999999999999N9999999N1+99999+99999102671ADDMD1710071+9999SA1+2059REMSYN125ZZYY 17656 19032 1010/ 333602 076270 6111/ 11119 30267 40267 57007 22219 00205 444 20110 19032 0936/ 50101 80110 80000 9/015;
0159999999999992012031910104-33600+076270FM-18+9999DRIB V02099999999999999999N9999999N1+99999+99999102671ADDMD1710071+9999SA1+2059REMSYN125ZZYY 17656 19032 1010/ 333602 076270 6111/ 11119 30267 40267 57007 22219 00205 444 20110 19032 0936/ 50101 80110 80000 9/015;
0159999999999992012031910104-33600+076270FM-18+9999DRIB V02099999999999999999N9999999N1+99999+99999102671ADDMD1710071+9999SA1+2059REMSYN125ZZYY 17656 19032 1010/ 333602 076270 6111/ 11119 30267 40267 57007 22219 00205 444 20110 19032 0936/ 50101 80110 80000 9/015;
0159999999999992012031910104-33600+076270FM-18+9999DRIB V02099999999999999999N9999999N1+99999+99999102671ADDMD1710071+9999SA1+2059REMSYN125ZZYY 17656 19032 1010/ 333602 076270 6111/ 11119 30267 40267 57007 22219 00205 444 20110 19032 0936/ 50101 80110 80000 9/015;
0159999999999992012031910104-33600+076270FM-18+9999DRIB V02099999999999999999N9999999N1+99999+99999102671ADDMD1710071+9999SA1+2059REMSYN125ZZYY 17656 19032 1010/ 333602 076270 6111/ 11119 30267 40267 57007 22219 00205 444 20110 19032 0936/ 50101 80110 80000 9/015;
0159999999999992012031910104-33600+076270FM-18+9999DRIB V02099999999999999999N9999999N1+99999+99999102671ADDMD1710071+9999SA1+2059REMSYN125ZZYY 17656 19032 1010/ 333602 076270 6111/ 11119 30267 40267 57007 22219 00205 444 20110 19032 0936/ 50101 80110 80000 9/015;
0159999999999992012031910104-33600+076270FM-18+9999DRIB V02099999999999999999N9999999N1+99999+99999102671ADDMD1710071+9999SA1+2059REMSYN125ZZYY 17656 19032 1010/ 333602 076270 6111/ 11119 30267 40267 57007 22219 00205 444 20110 19032 0936/ 50101 80110 80000 9/015;
0159999999999992012031910104-33600+076270FM-18+9999DRIB V02099999999999999999N9999999N1+99999+99999102671ADDMD1710071+9999SA1+2059REMSYN125ZZYY 17656 19032 1010/ 333602 076270 6111/ 11119 30267 40267 57007 22219 00205 444 20110 19032 0936/ 50101 80110 80000 9/015;
0159999999999992012031910104-33600+076270FM-18+9999DRIB V02099999999999999999N9999999N1+99999+99999102671ADDMD1710071+9999SA1+2059REMSYN125ZZYY 17656 19032 1010/ 333602 076270 6111/ 11119 30267 40267 57007 22219 00205 444 20110 19032 0936/ 50101 80110 80000 9/015;
0159999999999992012031910104-33600+076270FM-18+9999DRIB V02099999999999999999N9999999N1+99999+99999102671ADDMD1710071+9999SA1+2059REMSYN125ZZYY 17656 19032 1010/ 333602 076270 6111/ 11119 30267 40267 57007 22219 00205 444 20110 19032 0936/ 50101 80110 80000 9/015;
0159999999999992012031910104-33600+076270FM-18+9999DRIB V02099999999999999999N9999999N1+99999+99999102671ADDMD1710071+9999SA1+2059REMSYN125ZZYY 17656 19032 1010/ 333602 076270 6111/ 11119 30267 40267 57007 22219 00205 444 20110 19032 0936/ 50101 80110 80000 9/015;
0159999999999992012031910104-33600+076270FM-18+9999DRIB V02099999999999999999N9999999N1+99999+99999102671ADDMD1710071+9999SA1+2059REMSYN125ZZYY 17656 19032 1010/ 333602 076270 6111/ 11119 30267 40267 57007 22219 00205 444 20110 19032 0936/ 50101 80110 80000 9/015;
0159999999999992012031910104-33600+076270FM-18+9999DRIB V02099999999999999999N9999999N1+99999+99999102671ADDMD1710071+9999SA1+2059REMSYN125ZZYY 17656 19032 1010/ 333602 076270 6111/ 11119 30267 40267 57007 22219 00205 444 20110 19032 0936/ 50101 80110 80000 9/015;
0159999999999992012031910104-33600+076270FM-18+9999DRIB V02099999999999999999N9999999N1+99999+99999102671ADDMD1710071+9999SA1+2059REMSYN125ZZYY 17656 19032 1010/ 333602 076270 6111/ 11119 30267 40267 57007 22219 00205 444 20110 19032 0936/ 50101 80110 80000 9/015;
0159999999999992012031910104-33600+076270FM-18+9999DRIB V02099999999999999999N9999999N1+99999+99999102671ADDMD1710071+9999SA1+2059REMSYN125ZZYY 17656 19032 1010/ 333602 076270 6111/ 11119 30267 40267 57007 22219 00205 444 20110 19032 0936/ 50101 80110 80000 9/015;
0159999999999992012031910104-33600+076270FM-18+9999DRIB V02099999999999999999N9999999N1+99999+99999102671ADDMD1710071+9999SA1+2059REMSYN125ZZYY 17656 19032 1010/ 333602 076270 6111/ 11119 30267 40267 57007 22219 00205 444 20110 19032 0936/ 50101 80110 80000 9/015;
0159999999999992012031910104-33600+076270FM-18+9999DRIB V02099999999999999999N9999999N1+99999+99999102671ADDMD1710071+9999SA1+2059REMSYN125ZZYY 17656 19032 1010/ 333602 076270 6111/ 11119 30267 40267 57007 22219 00205 444 20110 19032 0936/ 50101 80110 80000 9/015;
0159999999999992012031910104-33600+076270FM-18+9999DRIB V02099999999999999999N9999999N1+99999+99999102671ADDMD1710071+9999SA1+2059REMSYN125ZZYY 17656 19032 1010/ 333602 076270 6111/ 11119 30267 40267 57007 22219 00205 444 20110 19032 0936/ 50101 80110 80000 9/015;
0159999999999992012031910104-33600+076270FM-18+9999DRIB V02099999999999999999N9999999N1+99999+99999102671ADDMD1710071+9999SA1+2059REMSYN125ZZYY 17656 19032 1010/ 333602 076270 6111/ 11119 30267 40267 57007 22219 00205 444 20110 19032 0936/ 50101 80110 80000 9/015;
0159999999999992012031910104-33600+076270FM-18+9999DRIB V02099999999999999999N9999999N1+99999+99999102671ADDMD1710071+9999SA1+2059REMSYN125ZZYY 17656 19032 1010/ 333602 076270 6111/ 11119 30267 40267 57007 22219 00205 444 20110 19032 0936/ 50101 80110 80000 9/015;
0159999999999992012031910104-33600+076270FM-18+9999DRIB V02099999999999999999N9999999N1+99999+99999102671ADDMD1710071+9999SA1+2059REMSYN125ZZYY 17656 19032 1010/ 333602 076270 6111/ 11119 30267 40267 57007 22219 00205 444 20110 19032 0936/ 50101 80110 80000 9/015;
0159999999999992012031910104-33600+076270FM-18+9999DRIB V02099999999999999999N9999999N1+99999+99999102671ADDMD1710071+9999SA1+2059REMSYN125ZZYY 17656 19032 1010/ 333602 076270 6111/ 11119 30267 40267 57007 22219 00205 444 20110 19032 0936/ 50101 80110 80000 9/015;
0159999999999992012031910104-33600+076270FM-18+9999DRIB V02099999999999999999N9999999N1+99999+99999102671ADDMD1710071+9999SA1+2059REMSYN125ZZYY 17656 19032 1010/ 333602 076270 6111/ 11119 30267 40267 57007 22219 00205 444 20110 19032 0936/ 50101 80110 80000 9/015;
0159999999999992012031910104-33600+076270FM-18+9999DRIB V02099999999999999999N9999999N1+99999+99999102671ADDMD1710071+9999SA1+2059REMSYN125ZZYY 17656 19032 1010/ 333602 076270 6111/ 11119 30267 40267 57007 22219 00205 444 20110 19032 0936/ 50101 80110 80000 9/015;
0159999999999992012031910104-33600+076270FM-18+9999DRIB V02099999999999999999N9999999N1+99999+99999102671ADDMD1710071+9999SA1+2059REMSYN125ZZYY 17656 19032 1010/ 333602 076270 6111/ 11119 30267 40267 57007 22219 00205 444 20110 19032 0936/ 50101 80110 80000 9/015;
0159999999999992012031910104-33600+076270FM-18+9999DRIB V02099999999999999999N9999999N1+99999+99999102671ADDMD1710071+9999SA1+2059REMSYN125ZZYY 17656 19032 1010/ 333602 076270 6111/ 11119 30267 40267 57007 22219 00205 444 20110 19032 0936/ 50101 80110 80000 9/015;
0159999999999992012031910104-33600+076270FM-18+9999DRIB V02099999999999999999N9999999N1+99999+99999102671ADDMD1710071+9999SA1+2059REMSYN125ZZYY 17656 19032 1010/ 333602 076270 6111/ 11119 30267 40267 57007 22219 00205 444 20110 19032 0936/ 50101 80110 80000 9/015;
0159999999999992012031910104-33600+076270FM-18+9999DRIB V02099999999999999999N9999999N1+99999+99999102671ADDMD1710071+9999SA1+2059REMSYN125ZZYY 17656 19032 1010/ 333602 076270 6111/ 11119 30267 40267 57007 22219 00205 444 20110 19032 0936/ 50101 80110 80000 9/015;
0159999999999992012031910104-33600+076270FM-18+9999DRIB V02099999999999999999N9999999N1+99999+99999102671ADDMD1710071+9999SA1+2059REMSYN125ZZYY 17656 19032 1010/ 333602 076270 6111/ 11119 30267 40267 57007 22219 00205 444 20110 19032 0936/ 50101 80110 80000 9/015;
0159999999999992012031910104-33600+076270FM-18+9999DRIB V02099999999999999999N9999999N1+99999+99999102671ADDMD1710071+9999SA1+2059REMSYN125ZZYY 17656 19032 1010/ 333602 076270 6111/ 11119 30267 40267 57007 22219 00205 444 20110 19032 0936/ 50101 80110 80000 9/015;
0159999999999992012031910104-33600+076270FM-18+9999DRIB V02099999999999999999N9999999N1+99999+99999102671ADDMD1710071+9999SA1+2059REMSYN125ZZYY 17656 19032 1010/ 333602 076270 6111/ 11119 30267 40267 57007 22219 00205 444 20110 19032 0936/ 50101 80110 80000 9/015;
0159999999999992012031910104-33600+076270FM-18+9999DRIB V02099999999999999999N9999999N1+99999+99999102671ADDMD1710071+9999SA1+2059REMSYN125ZZYY 17656 19032 1010/ 333602 076270 6111/ 11119 30267 40267 57007 22219 00205 444 20110 19032 0936/ 50101 80110 80000 9/015;
0159999999999992012031910104-33600+076270FM-18+9999DRIB V02099999999999999999N9999999N1+99999+99999102671ADDMD1710071+9999SA1+2059REMSYN125ZZYY 17656 19032 1010/ 333602 076270 6111/ 11119 30267 40267 57007 22219 00205 444 20110 19032 0936/ 50101 80110 80000 9/015;
0159999999999992012031910104-33600+076270FM-18+9999DRIB V02099999999999999999N9999999N1+99999+99999102671ADDMD1710071+9999SA1+2059REMSYN125ZZYY 17656 19032 1010/ 333602 076270 6111/ 11119 30267 40267 57007 22219 00205 444 20110 19032 0936/ 50101 80110 80000 9/015;
0159999999999992012031910104-33600+076270FM-18+9999DRIB V02099999999999999999N9999999N1+99999+99999102671ADDMD1710071+9999SA1+2059REMSYN125ZZYY 17656 19032 1010/ 333602 076270 6111/ 11119 30267 40267 57007 22219 00205 444 20110 19032 0936/ 50101 80110 80000 9/015;
0159999999999992012031910104-33600+076270FM-18+9999DRIB V02099999999999999999N9999999N1+99999+99999102671ADDMD1710071+9999SA1+2059REMSYN125ZZYY 17656 19032 1010/ 333602 076270 6111/ 11119 30267 40267 57007 22219 00205 444 20110 19032 0936/ 50101 80110 80000 9/015;
0159999999999992012031910104-33600+076270FM-18+9999DRIB V02099999999999999999N9999999N1+99999+99999102671ADDMD1710071+9999SA1+2059REMSYN125ZZYY 17656 19032 1010/ 333602 076270 6111/ 11119 30267 40267 57007 22219 00205 444 20110 19032 0936/ 50101 80110 80000 9/015;
0159999999999992012031910104-33600+076270FM-18+9999DRIB V02099999999999999999N9999999N1+99999+99999102671ADDMD1710071+9999SA1+2059REMSYN125ZZYY 17656 19032 1010/ 333602 076270 6111/ 11119 30267 40267 57007 22219 00205 444 20110 19032 0936/ 50101 80110 80000 9/015;
0159999999999992012031910104-33600+076270FM-18+9999DRIB V02099999999999999999N9999999N1+99999+99999102671ADDMD1710071+9999SA1+2059REMSYN125ZZYY 17656 19032 1010/ 333602 076270 6111/ 11119 30267 40267 57007 22219 00205 444 20110 19032 0936/ 50101 80110 80000 9/015;
0159999999999992012031910104-33600+076270FM-18+9999DRIB V02099999999999999999N9999999N1+99999+99999102671ADDMD1710071+9999SA1+2059REMSYN125ZZYY 17656 19032 1010/ 333602 076270 6111/ 11119 30267 40267 57007 22219 00205 444 20110 19032 0936/ 50101 80110 80000 9/015;
0159999999999992012031910104-33600+076270FM-18+9999DRIB V02099999999999999999N9999999N1+99999+99999102671ADDMD1710071+9999SA1+2059REMSYN125ZZYY 17656 19032 1010/ 333602 076270 6111/ 11119 30267 40267 57007 22219 00205 444 20110 19032 0936/ 50101 80110 80000 9/015;
0159999999999992012031910104-33600+076270FM-18+9999DRIB V02099999999999999999N9999999N1+99999+99999102671ADDMD1710071+9999SA1+2059REMSYN125ZZYY 17656 19032 1010/ 333602 076270 6111/ 11119 30267 40267 57007 22219 00205 444 20110 19032 0936/ 50101 80110 80000 9/015;
0159999999999992012031910104-33600+076270FM-18+9999DRIB V02099999999999999999N9999999N1+99999+99999102671ADDMD1710071+9999SA1+2059REMSYN125ZZYY 17656 19032 1010/ 333602 076270 6111/ 11119 30267 40267 57007 22219 00205 444 20110 19032 0936/ 50101 80110 80000 9/015;
0159999999999992012031910104-33600+076270FM-18+9999DRIB V02099999999999999999N9999999N1+99999+99999102671ADDMD1710071+9999SA1+2059REMSYN125ZZYY 17656 19032 1010/ 333602 076270 6111/ 11119 30267 40267 57007 22219 00205 444 20110 19032 0936/ 50101 80110 80000 9/015;
0159999999999992012031910104-33600+076270FM-18+9999DRIB V02099999999999999999N9999999N1+99999+99999102671ADDMD1710071+9999SA1+2059REMSYN125ZZYY 17656 19032 1010/ 333602 076270 6111/ 11119 30267 40267 57007 22219 00205 444 20110 19032 0936/ 50101 80110 80000 9/015;
0159999999999992012031910104-33600+076270FM-18+9999DRIB V02099999999999999999N9999999N1+99999+99999102671ADDMD1710071+9999SA1+2059REMSYN125ZZYY 17656 19032 1010/ 333602 076270 6111/ 11119 30267 40267 57007 22219 00205 444 20110 19032 0936/ 50101 80110 80000 9/015;
0159999999999992012031910104-33600+076270FM-18+9999DRIB V02099999999999999999N9999999N1+99999+99999102671ADDMD1710071+9999SA1+2059REMSYN125ZZYY 17656 19032 1010/ 333602 076270 6111/ 11119 30267 40267 57007 22219 00205 444 20110 19032 0936/ 50101 80110 80000 9/015;
0159999999999992012031910104-33600+076270FM-18+9999DRIB V02099999999999999999N9999999N1+99999+99999102671ADDMD1710071+9999SA1+2059REMSYN125ZZYY 17656 19032 1010/ 333602 076270 6111/ 11119 30267 40267 57007 22219 00205 444 20110 19032 0936/ 50101 80110 80000 9/015;
0159999999999992012031910104-33600+076270FM-18+9999DRIB V02099999999999999999N9999999N1+99999+99999102671ADDMD1710071+9999SA1+2059REMSYN125ZZYY 17656 19032 1010/ 333602 076270 6111/ 11119 30267 40267 57007 22219 00205 444 20110 19032 0936/ 50101 80110 80000 9/015;
0159999999999992012031910104-33600+076270FM-18+9999DRIB V02099999999999999999N9999999N1+99999+99999102671ADDMD1710071+9999SA1+2059REMSYN125ZZYY 17656 19032 1010/ 333602 076270 6111/ 11119 30267 40267 57007 22219 00205 444 20110 19032 0936/ 50101 80110 80000 9/015;
0159999999999992012031910104-33600+076270FM-18+9999DRIB V02099999999999999999N9999999N1+99999+99999102671ADDMD1710071+9999SA1+2059REMSYN125ZZYY 17656 19032 1010/ 333602 076270 6111/ 11119 30267 40267 57007 22219 00205 444 20110 19032 0936/ 50101 80110 80000 9/015;
0159999999999992012031910104-33600+076270FM-18+9999DRIB V02099999999999999999N9999999N1+99999+99999102671ADDMD1710071+9999SA1+2059REMSYN125ZZYY 17656 19032 1010/ 333602 076270 6111/ 11119 30267 40267 57007 22219 00205 444 20110 19032 0936/ 50101 80110 80000 9/015;
0159999999999992012031910104-33600+076270FM-18+9999DRIB V02099999999999999999N9999999N1+99999+99999102671ADDMD1710071+9999SA1+2059REMSYN125ZZYY 17656 19032 1010/ 333602 076270 6111/ 11119 30267 40267 57007 22219 00205 444 20110 19032 0936/ 50101 80110 80000 9/015;
0159999999999992012031910104-33600+076270FM-18+9999DRIB V02099999999999999999N9999999N1+99999+99999102671ADDMD1710071+9999SA1+2059REMSYN125ZZYY 17656 19032 1010/ 333602 076270 6111/ 11119 30267 40267 57007 22219 00205 444 20110 19032 0936/ 50101 80110 80000 9/015;
0159999999999992012031910104-33600+076270FM-18+9999DRIB V02099999999999999999N9999999N1+99999+99999102671ADDMD1710071+9999SA1+2059REMSYN125ZZYY 17656 19032 1010/ 333602 076270 6111/ 11119 30267 40267 57007 22219 00205 444 20110 19032 0936/ 50101 80110 80000 9/015;
0159999999999992012031910104-33600+076270FM-18+9999DRIB V02099999999999999999N9999999N1+99999+99999102671ADDMD1710071+9999SA1+2059REMSYN125ZZYY 17656 19032 1010/ 333602 076270 6111/ 11119 30267 40267 57007 22219 00205 444 20110 19032 0936/ 50101 80110 80000 9/015;
0159999999999992012031910104-33600+076270FM-18+9999DRIB V02099999999999999999N9999999N1+99999+99999102671ADDMD1710071+9999SA1+2059REMSYN125ZZYY 17656 19032 1010/ 333602 076270 6111/ 11119 30267 40267 57007 22219 00205 444 20110 19032 0936/ 50101 80110 80000 9/015;
0159999999999992012031910104-33600+076270FM-18+9999DRIB V02099999999999999999N9999999N1+99999+99999102671ADDMD1710071+9999SA1+2059REMSYN125ZZYY 17656 19032 1010/ 333602 076270 6111/ 11119 30267 40267 57007 22219 00205 444 20110 19032 0936/ 50101 80110 80000 9/015;
0159999999999992012031910104-33600+076270FM-18+9999DRIB V02099999999999999999N9999999N1+99999+99999102671ADDMD1710071+9999SA1+2059REMSYN125ZZYY 17656 19032 1010/ 333602 076270 6111/ 11119 30267 40267 57007 22219 00205 444 20110 19032 0936/ 50101 80110 80000 9/015;
0159999999999992012031910104-33600+076270FM-18+9999DRIB V02099999999999999999N9999999N1+99999+99999102671ADDMD1710071+9999SA1+2059REMSYN125ZZYY 17656 19032 1010/ 333602 076270 6111/ 11119 30267 40267 57007 22219 00205 444 20110 19032 0936/ 50101 80110 80000 9/015;
0159999999999992012031910104-33600+076270FM-18+9999DRIB V02099999999999999999N9999999N1+99999+99999102671ADDMD1710071+9999SA1+2059REMSYN125ZZYY 17656 19032 1010/ 333602 076270 6111/ 11119 30267 40267 57007 22219 00205 444 20110 19032 0936/ 50101 80110 80000 9/015;
0159999999999992012031910104-33600+076270FM-18+9999DRIB V02099999999999999999N9999999N1+99999+99999102671ADDMD1710071+9999SA1+2059REMSYN125ZZYY 17656 19032 1010/ 333602 076270 6111/ 11119 30267 40267 57007 22219 00205 444 20110 19032 0936/ 50101 80110 80000 9/015;
0159999999999992012031910104-33600+076270FM-18+9999DRIB V02099999999999999999N9999999N1+99999+99999102671ADDMD1710071+9999SA1+2059REMSYN125ZZYY 17656 19032 1010/ 333602 076270 6111/ 11119 30267 40267 57007 22219 00205 444 20110 19032 0936/ 50101 80110 80000 9/015;
0159999999999992012031910104-33600+076270FM-18+9999DRIB V02099999999999999999N9999999N1+99999+99999102671ADDMD1710071+9999SA1+2059REMSYN125ZZYY 17656 19032 1010/ 333602 076270 6111/ 11119 30267 40267 57007 22219 00205 444 20110 19032 0936/ 50101 80110 80000 9/015;
0159999999999992012031910104-33600+076270FM-18+9999DRIB V02099999999999999999N9999999N1+99999+99999102671ADDMD1710071+9999SA1+2059REMSYN125ZZYY 17656 19032 1010/ 333602 076270 6111/ 11119 30267 40267 57007 22219 00205 444 20110 19032 0936/ 50101 80110 80000 9/015;
0159999999999992012031910104-33600+076270FM-18+9999DRIB V02099999999999999999N9999999N1+99999+99999102671ADDMD1710071+9999SA1+2059REMSYN125ZZYY 17656 19032 1010/ 333602 076270 6111/ 11119 30267 40267 57007 22219 00205 444 20110 19032 0936/ 50101 80110 80000 9/015;
0159999999999992012031910104-33600+076270FM-18+9999DRIB V02099999999999999999N9999999N1+99999+99999102671ADDMD1710071+9999SA1+2059REMSYN125ZZYY 17656 19032 1010/ 333602 076270 6111/ 11119 30267 40267 57007 22219 00205 444 20110 19032 0936/ 50101 80110 80000 9/015;
0159999999999992012031910104-33600+076270FM-18+9999DRIB V02099999999999999999N9999999N1+99999+99999102671ADDMD1710071+9999SA1+2059REMSYN125ZZYY 17656 19032 1010/ 333602 076270 6111/ 11119 30267 40267 57007 22219 00205 444 20110 19032 0936/ 50101 80110 80000 9/015;
0159999999999992012031910104-33600+076270FM-18+9999DRIB V02099999999999999999N9999999N1+99999+99999102671ADDMD1710071+9999SA1+2059REMSYN125ZZYY 17656 19032 1010/ 333602 076270 6111/ 11119 30267 40267 57007 22219 00205 444 20110 19032 0936/ 50101 80110 80000 9/015;
0159999999999992012031910104-33600+076270FM-18+9999DRIB V02099999999999999999N9999999N1+99999+99999102671ADDMD1710071+9999SA1+2059REMSYN125ZZYY 17656 19032 1010/ 333602 076270 6111/ 11119 30267 40267 57007 22219 00205 444 20110 19032 0936/ 50101 80110 80000 9/015;
0159999999999992012031910104-33600+076270FM-18+9999DRIB V02099999999999999999N9999999N1+99999+99999102671ADDMD1710071+9999SA1+2059REMSYN125ZZYY 17656 19032 1010/ 333602 076270 6111/ 11119 30267 40267 57007 22219 00205 444 20110 19032 0936/ 50101 80110 80000 9/015;
0159999999999992012031910104-33600+076270FM-18+9999DRIB V02099999999999999999N9999999N1+99999+99999102671ADDMD1710071+9999SA1+2059REMSYN125ZZYY 17656 19032 1010/ 333602 076270 6111/ 11119 30267 40267 57007 22219 00205 444 20110 19032 0936/ 50101 80110 80000 9/015;
0159999999999992012031910104-33600+076270FM-18+9999DRIB V02099999999999999999N9999999N1+99999+99999102671ADDMD1710071+9999SA1+2059REMSYN125ZZYY 17656 19032 1010/ 333602 076270 6111/ 11119 30267 40267 57007 22219 00205 444 20110 19032 0936/ 50101 80110 80000 9/015;
0159999999999992012031910104-33600+076270FM-18+9999DRIB V02099999999999999999N9999999N1+99999+99999102671ADDMD1710071+9999SA1+2059REMSYN125ZZYY 17656 19032 1010/ 333602 076270 6111/ 11119 30267 40267 57007 22219 00205 444 20110 19032 0936/ 50101 80110 80000 9/015;
0159999999999992012031910104-33600+076270FM-18+9999DRIB V02099999999999999999N9999999N1+99999+99999102671ADDMD1710071+9999SA1+2059REMSYN125ZZYY 17656 19032 1010/ 333602 076270 6111/ 11119 30267 40267 57007 22219 00205 444 20110 19032 0936/ 50101 80110 80000 9/015;
0159999999999992012031910104-33600+076270FM-18+9999DRIB V02099999999999999999N9999999N1+99999+99999102671ADDMD1710071+9999SA1+2059REMSYN125ZZYY 17656 19032 1010/ 333602 076270 6111/ 11119 30267 40267 57007 22219 00205 444 20110 19032 0936/ 50101 80110 80000 9/015;
0159999999999992012031910104-33600+076270FM-18+9999DRIB V02099999999999999999N9999999N1+99999+99999102671ADDMD1710071+9999SA1+2059REMSYN125ZZYY 17656 19032 1010/ 333602 076270 6111/ 11119 30267 40267 57007 22219 00205 444 20110 19032 0936/ 50101 80110 80000 9/015;
0159999999999992012031910104-33600+076270FM-18+9999DRIB V02099999999999999999N9999999N1+99999+99999102671ADDMD1710071+9999SA1+2059REMSYN125ZZYY 17656 19032 1010/ 333602 076270 6111/ 11119 30267 40267 57007 22219 00205 444 20110 19032 0936/ 50101 80110 80000 9/015;
0159999999999992012031910104-33600+076270FM-18+9999DRIB V02099999999999999999N9999999N1+99999+99999102671ADDMD1710071+9999SA1+2059REMSYN125ZZYY 17656 19032 1010/ 333602 076270 6111/ 11119 30267 40267 57007 22219 00205 444 20110 19032 0936/ 50101 80110 80000 9/015;
0159999999999992012031910104-33600+076270FM-18+9999DRIB V02099999999999999999N9999999N1+99999+99999102671ADDMD1710071+9999SA1+2059REMSYN125ZZYY 17656 19032 1010/ 333602 076270 6111/ 11119 30267 40267 57007 22219 00205 444 20110 19032 0936/ 50101 80110 80000 9/015;
0159999999999992012031910104-33600+076270FM-18+9999DRIB V02099999999999999999N9999999N1+99999+99999102671ADDMD1710071+9999SA1+2059REMSYN125ZZYY 17656 19032 1010/ 333602 076270 6111/ 11119 30267 40267 57007 22219 00205 444 20110 19032 0936/ 50101 80110 80000 9/015;
0159999999999992012031910104-33600+076270FM-18+9999DRIB V02099999999999999999N9999999N1+99999+99999102671ADDMD1710071+9999SA1+2059REMSYN125ZZYY 17656 19032 1010/ 333602 076270 6111/ 11119 30267 40267 57007 22219 00205 444 20110 19032 0936/ 50101 80110 80000 9/015;
0159999999999992012031910104-33600+076270FM-18+9999DRIB V02099999999999999999N9999999N1+99999+99999102671ADDMD1710071+9999SA1+2059REMSYN125ZZYY 17656 19032 1010/ 333602 076270 6111/ 11119 30267 40267 57007 22219 00205 444 20110 19032 0936/ 50101 80110 80000 9/015;
0159999999999992012031910104-33600+076270FM-18+9999DRIB V02099999999999999999N9999999N1+99999+99999102671ADDMD1710071+9999SA1+2059REMSYN125ZZYY 17656 19032 1010/ 333602 076270 6111/ 11119 30267 40267 57007 22219 00205 444 20110 19032 0936/ 50101 80110 80000 9/015;
0159999999999992012031910104-33600+076270FM-18+9999DRIB V02099999999999999999N9999999N1+99999+99999102671ADDMD1710071+9999SA1+2059REMSYN125ZZYY 17656 19032 1010/ 333602 076270 6111/ 11119 30267 40267 57007 22219 00205 444 20110 19032 0936/ 50101 80110 80000 9/015;
0159999999999992012031910104-33600+076270FM-18+9999DRIB V02099999999999999999N9999999N1+99999+99999102671ADDMD1710071+9999SA1+2059REMSYN125ZZYY 17656 19032 1010/ 333602 076270 6111/ 11119 30267 40267 57007 22219 00205 444 20110 19032 0936/ 50101 80110 80000 9/015;
0159999999999992012031910104-33600+076270FM-18+9999DRIB V02099999999999999999N9999999N1+99999+99999102671ADDMD1710071+9999SA1+2059REMSYN125ZZYY 17656 19032 1010/ 333602 076270 6111/ 11119 30267 40267 57007 22219 00205 444 20110 19032 0936/ 50101 80110 80000 9/015;
0159999999999992012031910104-33600+076270FM-18+9999DRIB V02099999999999999999N9999999N1+99999+99999102671ADDMD1710071+9999SA1+2059REMSYN125ZZYY 17656 19032 1010/ 333602 076270 6111/ 11119 30267 40267 57007 22219 00205 444 20110 19032 0936/ 50101 80110 80000 9/015;
0159999999999992012031910104-33600+076270FM-18+9999DRIB V02099999999999999999N9999999N1+99999+99999102671ADDMD1710071+9999SA1+2059REMSYN125ZZYY 17656 19032 1010/ 333602 076270 6111/ 11119 30267 40267 57007 22219 00205 444 20110 19032 0936/ 50101 80110 80000 9/015;
0159999999999992012031910104-33600+076270FM-18+9999DRIB V02099999999999999999N9999999N1+99999+99999102671ADDMD1710071+9999SA1+2059REMSYN125ZZYY 17656 19032 1010/ 333602 076270 6111/ 11119 30267 40267 57007 22219 00205 444 20110 19032 0936/ 50101 80110 80000 9/015;
0159999999999992012031910104-33600+076270FM-18+9999DRIB V02099999999999999999N9999999N1+99999+99999102671ADDMD1710071+9999SA1+2059REMSYN125ZZYY 17656 19032 1010/ 333602 076270 6111/ 11119 30267 40267 57007 22219 00205 444 20110 19032 0936/ 50101 80110 80000 9/015;
0159999999999992012031910104-33600+076270FM-18+9999DRIB V02099999999999999999N9999999N1+99999+99999102671ADDMD1710071+9999SA1+2059REMSYN125ZZYY 17656 19032 1010/ 333602 076270 6111/ 11119 30267 40267 57007 22219 00205 444 20110 19032 0936/ 50101 80110 80000 9/015;
0159999999999992012031910104-33600+076270FM-18+9999DRIB V02099999999999999999N9999999N1+99999+99999102671ADDMD1710071+9999SA1+2059REMSYN125ZZYY 17656 19032 1010/ 333602 076270 6111/ 11119 30267 40267 57007 22219 00205 444 20110 19032 0936/ 50101 80110 80000 9/015;
0159999999999992012031910104-33600+076270FM-18+9999DRIB V02099999999999999999N9999999N1+99999+99999102671ADDMD1710071+9999SA1+2059REMSYN125ZZYY 17656 19032 1010/ 333602 076270 6111/ 11119 30267 40267 57007 22219 00205 444 20110 19032 0936/ 50101 80110 80000 9/015;
0159999999999992012031910104-33600+076270FM-18+9999DRIB V02099999999999999999N9999999N1+99999+99999102671ADDMD1710071+9999SA1+2059REMSYN125ZZYY 17656 19032 1010/ 333602 076270 6111/ 11119 30267 40267 57007 22219 00205 444 20110 19032 0936/ 50101 80110 80000 9/015;
0159999999999992012031910104-33600+076270FM-18+9999DRIB V02099999999999999999N9999999N1+99999+99999102671ADDMD1710071+9999SA1+2059REMSYN125ZZYY 17656 19032 1010/ 333602 076270 6111/ 11119 30267 40267 57007 22219 00205 444 20110 19032 0936/ 50101 80110 80000 9/015;
0159999999999992012031910104-33600+076270FM-18+9999DRIB V02099999999999999999N9999999N1+99999+99999102671ADDMD1710071+9999SA1+2059REMSYN125ZZYY 17656 19032 1010/ 333602 076270 6111/ 11119 30267 40267 57007 22219 00205 444 20110 19032 0936/ 50101 80110 80000 9/015;
0159999999999992012031910104-33600+076270FM-18+9999DRIB V02099999999999999999N9999999N1+99999+99999102671ADDMD1710071+9999SA1+2059REMSYN125ZZYY 17656 19032 1010/ 333602 076270 6111/ 11119 30267 40267 57007 22219 00205 444 20110 19032 0936/ 50101 80110 80000 9/015;
0159999999999992012031910104-33600+076270FM-18+9999DRIB V02099999999999999999N9999999N1+99999+99999102671ADDMD1710071+9999SA1+2059REMSYN125ZZYY 17656 19032 1010/ 333602 076270 6111/ 11119 30267 40267 57007 22219 00205 444 20110 19032 0936/ 50101 80110 80000 9/015;
0159999999999992012031910104-33600+076270FM-18+9999DRIB V02099999999999999999N9999999N1+99999+99999102671ADDMD1710071+9999SA1+2059REMSYN125ZZYY 17656 19032 1010/ 333602 076270 6111/ 11119 30267 40267 57007 22219 00205 444 20110 19032 0936/ 50101 80110 80000 9/015;
0159999999999992012031910104-33600+076270FM-18+9999DRIB V02099999999999999999N9999999N1+99999+99999102671ADDMD1710071+9999SA1+2059REMSYN125ZZYY 17656 19032 1010/ 333602 076270 6111/ 11119 30267 40267 57007 22219 00205 444 20110 19032 0936/ 50101 80110 80000 9/015;
0159999999999992012031910104-33600+076270FM-18+9999DRIB V02099999999999999999N9999999N1+99999+99999102671ADDMD1710071+9999SA1+2059REMSYN125ZZYY 17656 19032 1010/ 333602 076270 6111/ 11119 30267 40267 57007 22219 00205 444 20110 19032 0936/ 50101 80110 80000 9/015;
0159999999999992012031910104-33600+076270FM-18+9999DRIB V02099999999999999999N9999999N1+99999+99999102671ADDMD1710071+9999SA1+2059REMSYN125ZZYY 17656 19032 1010/ 333602 076270 6111/ 11119 30267 40267 57007 22219 00205 444 20110 19032 0936/ 50101 80110 80000 9/015;
0159999999999992012031910104-33600+076270FM-18+9999DRIB V02099999999999999999N9999999N1+99999+99999102671ADDMD1710071+9999SA1+2059REMSYN125ZZYY 17656 19032 1010/ 333602 076270 6111/ 11119 30267 40267 57007 22219 00205 444 20110 19032 0936/ 50101 80110 80000 9/015;
0159999999999992012031910104-33600+076270FM-18+9999DRIB V02099999999999999999N9999999N1+99999+99999102671ADDMD1710071+9999SA1+2059REMSYN125ZZYY 17656 19032 1010/ 333602 076270 6111/ 11119 30267 40267 57007 22219 00205 444 20110 19032 0936/ 50101 80110 80000 9/015;
0159999999999992012031910104-33600+076270FM-18+9999DRIB V02099999999999999999N9999999N1+99999+99999102671ADDMD1710071+9999SA1+2059REMSYN125ZZYY 17656 19032 1010/ 333602 076270 6111/ 11119 30267 40267 57007 22219 00205 444 20110 19032 0936/ 50101 80110 80000 9/015;
0159999999999992012031910104-33600+076270FM-18+9999DRIB V02099999999999999999N9999999N1+99999+99999102671ADDMD1710071+9999SA1+2059REMSYN125ZZYY 17656 19032 1010/ 333602 076270 6111/ 11119 30267 40267 57007 22219 00205 444 20110 19032 0936/ 50101 80110 80000 9/015;
0159999999999992012031910104-33600+076270FM-18+9999DRIB V02099999999999999999N9999999N1+99999+99999102671ADDMD1710071+9999SA1+2059REMSYN125ZZYY 17656 19032 1010/ 333602 076270 6111/ 11119 30267 40267 57007 22219 00205 444 20110 19032 0936/ 50101 80110 80000 9/015;
0159999999999992012031910104-33600+076270FM-18+9999DRIB V02099999999999999999N9999999N1+99999+99999102671ADDMD1710071+9999SA1+2059REMSYN125ZZYY 17656 19032 1010/ 333602 076270 6111/ 11119 30267 40267 57007 22219 00205 444 20110 19032 0936/ 50101 80110 80000 9/015;
0159999999999992012031910104-33600+076270FM-18+9999DRIB V02099999999999999999N9999999N1+99999+99999102671ADDMD1710071+9999SA1+2059REMSYN125ZZYY 17656 19032 1010/ 333602 076270 6111/ 11119 30267 40267 57007 22219 00205 444 20110 19032 0936/ 50101 80110 80000 9/015;
0159999999999992012031910104-33600+076270FM-18+9999DRIB V02099999999999999999N9999999N1+99999+99999102671ADDMD1710071+9999SA1+2059REMSYN125ZZYY 17656 19032 1010/ 333602 076270 6111/ 11119 30267 40267 57007 22219 00205 444 20110 19032 0936/ 50101 80110 80000 9/015;
0159999999999992012031910104-33600+076270FM-18+9999DRIB V02099999999999999999N9999999N1+99999+99999102671ADDMD1710071+9999SA1+2059REMSYN125ZZYY 17656 19032 1010/ 333602 076270 6111/ 11119 30267 40267 57007 22219 00205 444 20110 19032 0936/ 50101 80110 80000 9/015;
0159999999999992012031910104-33600+076270FM-18+9999DRIB V02099999999999999999N9999999N1+99999+99999102671ADDMD1710071+9999SA1+2059REMSYN125ZZYY 17656 19032 1010/ 333602 076270 6111/ 11119 30267 40267 57007 22219 00205 444 20110 19032 0936/ 50101 80110 80000 9/015;
0159999999999992012031910104-33600+076270FM-18+9999DRIB V02099999999999999999N9999999N1+99999+99999102671ADDMD1710071+9999SA1+2059REMSYN125ZZYY 17656 19032 1010/ 333602 076270 6111/ 11119 30267 40267 57007 22219 00205 444 20110 19032 0936/ 50101 80110 80000 9/015;
0159999999999992012031910104-33600+076270FM-18+9999DRIB V02099999999999999999N9999999N1+99999+99999102671ADDMD1710071+9999SA1+2059REMSYN125ZZYY 17656 19032 1010/ 333602 076270 6111/ 11119 30267 40267 57007 22219 00205 444 20110 19032 0936/ 50101 80110 80000 9/015;
0159999999999992012031910104-33600+076270FM-18+9999DRIB V02099999999999999999N9999999N1+99999+99999102671ADDMD1710071+9999SA1+2059REMSYN125ZZYY 17656 19032 1010/ 333602 076270 6111/ 11119 30267 40267 57007 22219 00205 444 20110 19032 0936/ 50101 80110 80000 9/015;
0159999999999992012031910104-33600+076270FM-18+9999DRIB V02099999999999999999N9999999N1+99999+99999102671ADDMD1710071+9999SA1+2059REMSYN125ZZYY 17656 19032 1010/ 333602 076270 6111/ 11119 30267 40267 57007 22219 00205 444 20110 19032 0936/ 50101 80110 80000 9/015;
0159999999999992012031910104-33600+076270FM-18+9999DRIB V02099999999999999999N9999999N1+99999+99999102671ADDMD1710071+9999SA1+2059REMSYN125ZZYY 17656 19032 1010/ 333602 076270 6111/ 11119 30267 40267 57007 22219 00205 444 20110 19032 0936/ 50101 80110 80000 9/015;
0159999999999992012031910104-33600+076270FM-18+9999DRIB V02099999999999999999N9999999N1+99999+99999102671ADDMD1710071+9999SA1+2059REMSYN125ZZYY 17656 19032 1010/ 333602 076270 6111/ 11119 30267 40267 57007 22219 00205 444 20110 19032 0936/ 50101 80110 80000 9/015;
0159999999999992012031910104-33600+076270FM-18+9999DRIB V02099999999999999999N9999999N1+99999+99999102671ADDMD1710071+9999SA1+2059REMSYN125ZZYY 17656 19032 1010/ 333602 076270 6111/ 11119 30267 40267 57007 22219 00205 444 20110 19032 0936/ 50101 80110 80000 9/015;
0159999999999992012031910104-33600+076270FM-18+9999DRIB V02099999999999999999N9999999N1+99999+99999102671ADDMD1710071+9999SA1+2059REMSYN125ZZYY 17656 19032 1010/ 333602 076270 6111/ 11119 30267 40267 57007 22219 00205 444 20110 19032 0936/ 50101 80110 80000 9/015;
0159999999999992012031910104-33600+076270FM-18+9999DRIB V02099999999999999999N9999999N1+99999+99999102671ADDMD1710071+9999SA1+2059REMSYN125ZZYY 17656 19032 1010/ 333602 076270 6111/ 11119 30267 40267 57007 22219 00205 444 20110 19032 0936/ 50101 80110 80000 9/015;
0159999999999992012031910104-33600+076270FM-18+9999DRIB V02099999999999999999N9999999N1+99999+99999102671ADDMD1710071+9999SA1+2059REMSYN125ZZYY 17656 19032 1010/ 333602 076270 6111/ 11119 30267 40267 57007 22219 00205 444 20110 19032 0936/ 50101 80110 80000 9/015;
0159999999999992012031910104-33600+076270FM-18+9999DRIB V02099999999999999999N9999999N1+99999+99999102671ADDMD1710071+9999SA1+2059REMSYN125ZZYY 17656 19032 1010/ 333602 076270 6111/ 11119 30267 40267 57007 22219 00205 444 20110 19032 0936/ 50101 80110 80000 9/015;
0159999999999992012031910104-33600+076270FM-18+9999DRIB V02099999999999999999N9999999N1+99999+99999102671ADDMD1710071+9999SA1+2059REMSYN125ZZYY 17656 19032 1010/ 333602 076270 6111/ 11119 30267 40267 57007 22219 00205 444 20110 19032 0936/ 50101 80110 80000 9/015;
0159999999999992012031910104-33600+076270FM-18+9999DRIB V02099999999999999999N9999999N1+99999+99999102671ADDMD1710071+9999SA1+2059REMSYN125ZZYY 17656 19032 1010/ 333602 076270 6111/ 11119 30267 40267 57007 22219 00205 444 20110 19032 0936/ 50101 80110 80000 9/015;
0159999999999992012031910104-33600+076270FM-18+9999DRIB V02099999999999999999N9999999N1+99999+99999102671ADDMD1710071+9999SA1+2059REMSYN125ZZYY 17656 19032 1010/ 333602 076270 6111/ 11119 30267 40267 57007 22219 00205 444 20110 19032 0936/ 50101 80110 80000 9/015;
0159999999999992012031910104-33600+076270FM-18+9999DRIB V02099999999999999999N9999999N1+99999+99999102671ADDMD1710071+9999SA1+2059REMSYN125ZZYY 17656 19032 1010/ 333602 076270 6111/ 11119 30267 40267 57007 22219 00205 444 20110 19032 0936/ 50101 80110 80000 9/015;
0159999999999992012031910104-33600+076270FM-18+9999DRIB V02099999999999999999N9999999N1+99999+99999102671ADDMD1710071+9999SA1+2059REMSYN125ZZYY 17656 19032 1010/ 333602 076270 6111/ 11119 30267 40267 57007 22219 00205 444 20110 19032 0936/ 50101 80110 80000 9/015;
0159999999999992012031910104-33600+076270FM-18+9999DRIB V02099999999999999999N9999999N1+99999+99999102671ADDMD1710071+9999SA1+2059REMSYN125ZZYY 17656 19032 1010/ 333602 076270 6111/ 11119 30267 40267 57007 22219 00205 444 20110 19032 0936/ 50101 80110 80000 9/015;
