0149484780999992013010507304+12633+101350FM-15+0005VTBU V0202101N004110900019N0070001N1+03101+01801999999ADDGA1021+007501999GA2071+090001999GF107991999999999999999999MA1100811999999REMMET064METAR VTBU 050730Z 21008KT 7000 FEW025 BKN300 31/18 Q1008 A2977;
0149484780999992013010507304+12633+101350FM-15+0005VTBU V0202101N004110900019N0070001N1+03101+01801999999ADDGA1021+007501999GA2071+090001999GF107991999999999999999999MA1100811999999REMMET064METAR VTBU 050730Z 21008KT 7000 FEW025 BKN300 31/18 Q1008 A2977;
0149484780999992013010507304+12633+101350FM-15+0005VTBU V0202101N004110900019N0070001N1+03101+01801999999ADDGA1021+007501999GA2071+090001999GF107991999999999999999999MA1100811999999REMMET064METAR VTBU 050730Z 21008KT 7000 FEW025 BKN300 31/18 Q1008 A2977;
0149484780999992013010507304+12633+101350FM-15+0005VTBU V0202101N004110900019N0070001N1+03101+01801999999ADDGA1021+007501999GA2071+090001999GF107991999999999999999999MA1100811999999REMMET064METAR VTBU 050730Z 21008KT 7000 FEW025 BKN300 31/18 Q1008 A2977;
0149484780999992013010507304+12633+101350FM-15+0005VTBU V0202101N004110900019N0070001N1+03101+01801999999ADDGA1021+007501999GA2071+090001999GF107991999999999999999999MA1100811999999REMMET064METAR VTBU 050730Z 21008KT 7000 FEW025 BKN300 31/18 Q1008 A2977;
0149484780999992013010507304+12633+101350FM-15+0005VTBU V0202101N004110900019N0070001N1+03101+01801999999ADDGA1021+007501999GA2071+090001999GF107991999999999999999999MA1100811999999REMMET064METAR VTBU 050730Z 21008KT 7000 FEW025 BKN300 31/18 Q1008 A2977;
0149484780999992013010507304+12633+101350FM-15+0005VTBU V0202101N004110900019N0070001N1+03101+01801999999ADDGA1021+007501999GA2071+090001999GF107991999999999999999999MA1100811999999REMMET064METAR VTBU 050730Z 21008KT 7000 FEW025 BKN300 31/18 Q1008 A2977;
0149484780999992013010507304+12633+101350FM-15+0005VTBU V0202101N004110900019N0070001N1+03101+01801999999ADDGA1021+007501999GA2071+090001999GF107991999999999999999999MA1100811999999REMMET064METAR VTBU 050730Z 21008KT 7000 FEW025 BKN300 31/18 Q1008 A2977;
0149484780999992013010507304+12633+101350FM-15+0005VTBU V0202101N004110900019N0070001N1+03101+01801999999ADDGA1021+007501999GA2071+090001999GF107991999999999999999999MA1100811999999REMMET064METAR VTBU 050730Z 21008KT 7000 FEW025 BKN300 31/18 Q1008 A2977;
0149484780999992013010507304+12633+101350FM-15+0005VTBU V0202101N004110900019N0070001N1+03101+01801999999ADDGA1021+007501999GA2071+090001999GF107991999999999999999999MA1100811999999REMMET064METAR VTBU 050730Z 21008KT 7000 FEW025 BKN300 31/18 Q1008 A2977;
0149484780999992013010507304+12633+101350FM-15+0005VTBU V0202101N004110900019N0070001N1+03101+01801999999ADDGA1021+007501999GA2071+090001999GF107991999999999999999999MA1100811999999REMMET064METAR VTBU 050730Z 21008KT 7000 FEW025 BKN300 31/18 Q1008 A2977;
0149484780999992013010507304+12633+101350FM-15+0005VTBU V0202101N004110900019N0070001N1+03101+01801999999ADDGA1021+007501999GA2071+090001999GF107991999999999999999999MA1100811999999REMMET064METAR VTBU 050730Z 21008KT 7000 FEW025 BKN300 31/18 Q1008 A2977;
0149484780999992013010507304+12633+101350FM-15+0005VTBU V0202101N004110900019N0070001N1+03101+01801999999ADDGA1021+007501999GA2071+090001999GF107991999999999999999999MA1100811999999REMMET064METAR VTBU 050730Z 21008KT 7000 FEW025 BKN300 31/18 Q1008 A2977;
0149484780999992013010507304+12633+101350FM-15+0005VTBU V0202101N004110900019N0070001N1+03101+01801999999ADDGA1021+007501999GA2071+090001999GF107991999999999999999999MA1100811999999REMMET064METAR VTBU 050730Z 21008KT 7000 FEW025 BKN300 31/18 Q1008 A2977;
0149484780999992013010507304+12633+101350FM-15+0005VTBU V0202101N004110900019N0070001N1+03101+01801999999ADDGA1021+007501999GA2071+090001999GF107991999999999999999999MA1100811999999REMMET064METAR VTBU 050730Z 21008KT 7000 FEW025 BKN300 31/18 Q1008 A2977;
0149484780999992013010507304+12633+101350FM-15+0005VTBU V0202101N004110900019N0070001N1+03101+01801999999ADDGA1021+007501999GA2071+090001999GF107991999999999999999999MA1100811999999REMMET064METAR VTBU 050730Z 21008KT 7000 FEW025 BKN300 31/18 Q1008 A2977;
0149484780999992013010507304+12633+101350FM-15+0005VTBU V0202101N004110900019N0070001N1+03101+01801999999ADDGA1021+007501999GA2071+090001999GF107991999999999999999999MA1100811999999REMMET064METAR VTBU 050730Z 21008KT 7000 FEW025 BKN300 31/18 Q1008 A2977;
0149484780999992013010507304+12633+101350FM-15+0005VTBU V0202101N004110900019N0070001N1+03101+01801999999ADDGA1021+007501999GA2071+090001999GF107991999999999999999999MA1100811999999REMMET064METAR VTBU 050730Z 21008KT 7000 FEW025 BKN300 31/18 Q1008 A2977;
0149484780999992013010507304+12633+101350FM-15+0005VTBU V0202101N004110900019N0070001N1+03101+01801999999ADDGA1021+007501999GA2071+090001999GF107991999999999999999999MA1100811999999REMMET064METAR VTBU 050730Z 21008KT 7000 FEW025 BKN300 31/18 Q1008 A2977;
0149484780999992013010507304+12633+101350FM-15+0005VTBU V0202101N004110900019N0070001N1+03101+01801999999ADDGA1021+007501999GA2071+090001999GF107991999999999999999999MA1100811999999REMMET064METAR VTBU 050730Z 21008KT 7000 FEW025 BKN300 31/18 Q1008 A2977;
0149484780999992013010507304+12633+101350FM-15+0005VTBU V0202101N004110900019N0070001N1+03101+01801999999ADDGA1021+007501999GA2071+090001999GF107991999999999999999999MA1100811999999REMMET064METAR VTBU 050730Z 21008KT 7000 FEW025 BKN300 31/18 Q1008 A2977;
0149484780999992013010507304+12633+101350FM-15+0005VTBU V0202101N004110900019N0070001N1+03101+01801999999ADDGA1021+007501999GA2071+090001999GF107991999999999999999999MA1100811999999REMMET064METAR VTBU 050730Z 21008KT 7000 FEW025 BKN300 31/18 Q1008 A2977;
0149484780999992013010507304+12633+101350FM-15+0005VTBU V0202101N004110900019N0070001N1+03101+01801999999ADDGA1021+007501999GA2071+090001999GF107991999999999999999999MA1100811999999REMMET064METAR VTBU 050730Z 21008KT 7000 FEW025 BKN300 31/18 Q1008 A2977;
0149484780999992013010507304+12633+101350FM-15+0005VTBU V0202101N004110900019N0070001N1+03101+01801999999ADDGA1021+007501999GA2071+090001999GF107991999999999999999999MA1100811999999REMMET064METAR VTBU 050730Z 21008KT 7000 FEW025 BKN300 31/18 Q1008 A2977;
0149484780999992013010507304+12633+101350FM-15+0005VTBU V0202101N004110900019N0070001N1+03101+01801999999ADDGA1021+007501999GA2071+090001999GF107991999999999999999999MA1100811999999REMMET064METAR VTBU 050730Z 21008KT 7000 FEW025 BKN300 31/18 Q1008 A2977;
0149484780999992013010507304+12633+101350FM-15+0005VTBU V0202101N004110900019N0070001N1+03101+01801999999ADDGA1021+007501999GA2071+090001999GF107991999999999999999999MA1100811999999REMMET064METAR VTBU 050730Z 21008KT 7000 FEW025 BKN300 31/18 Q1008 A2977;
0149484780999992013010507304+12633+101350FM-15+0005VTBU V0202101N004110900019N0070001N1+03101+01801999999ADDGA1021+007501999GA2071+090001999GF107991999999999999999999MA1100811999999REMMET064METAR VTBU 050730Z 21008KT 7000 FEW025 BKN300 31/18 Q1008 A2977;
0149484780999992013010507304+12633+101350FM-15+0005VTBU V0202101N004110900019N0070001N1+03101+01801999999ADDGA1021+007501999GA2071+090001999GF107991999999999999999999MA1100811999999REMMET064METAR VTBU 050730Z 21008KT 7000 FEW025 BKN300 31/18 Q1008 A2977;
0149484780999992013010507304+12633+101350FM-15+0005VTBU V0202101N004110900019N0070001N1+03101+01801999999ADDGA1021+007501999GA2071+090001999GF107991999999999999999999MA1100811999999REMMET064METAR VTBU 050730Z 21008KT 7000 FEW025 BKN300 31/18 Q1008 A2977;
0149484780999992013010507304+12633+101350FM-15+0005VTBU V0202101N004110900019N0070001N1+03101+01801999999ADDGA1021+007501999GA2071+090001999GF107991999999999999999999MA1100811999999REMMET064METAR VTBU 050730Z 21008KT 7000 FEW025 BKN300 31/18 Q1008 A2977;
0149484780999992013010507304+12633+101350FM-15+0005VTBU V0202101N004110900019N0070001N1+03101+01801999999ADDGA1021+007501999GA2071+090001999GF107991999999999999999999MA1100811999999REMMET064METAR VTBU 050730Z 21008KT 7000 FEW025 BKN300 31/18 Q1008 A2977;
0149484780999992013010507304+12633+101350FM-15+0005VTBU V0202101N004110900019N0070001N1+03101+01801999999ADDGA1021+007501999GA2071+090001999GF107991999999999999999999MA1100811999999REMMET064METAR VTBU 050730Z 21008KT 7000 FEW025 BKN300 31/18 Q1008 A2977;
0149484780999992013010507304+12633+101350FM-15+0005VTBU V0202101N004110900019N0070001N1+03101+01801999999ADDGA1021+007501999GA2071+090001999GF107991999999999999999999MA1100811999999REMMET064METAR VTBU 050730Z 21008KT 7000 FEW025 BKN300 31/18 Q1008 A2977;
0149484780999992013010507304+12633+101350FM-15+0005VTBU V0202101N004110900019N0070001N1+03101+01801999999ADDGA1021+007501999GA2071+090001999GF107991999999999999999999MA1100811999999REMMET064METAR VTBU 050730Z 21008KT 7000 FEW025 BKN300 31/18 Q1008 A2977;
0149484780999992013010507304+12633+101350FM-15+0005VTBU V0202101N004110900019N0070001N1+03101+01801999999ADDGA1021+007501999GA2071+090001999GF107991999999999999999999MA1100811999999REMMET064METAR VTBU 050730Z 21008KT 7000 FEW025 BKN300 31/18 Q1008 A2977;
0149484780999992013010507304+12633+101350FM-15+0005VTBU V0202101N004110900019N0070001N1+03101+01801999999ADDGA1021+007501999GA2071+090001999GF107991999999999999999999MA1100811999999REMMET064METAR VTBU 050730Z 21008KT 7000 FEW025 BKN300 31/18 Q1008 A2977;
0149484780999992013010507304+12633+101350FM-15+0005VTBU V0202101N004110900019N0070001N1+03101+01801999999ADDGA1021+007501999GA2071+090001999GF107991999999999999999999MA1100811999999REMMET064METAR VTBU 050730Z 21008KT 7000 FEW025 BKN300 31/18 Q1008 A2977;
0149484780999992013010507304+12633+101350FM-15+0005VTBU V0202101N004110900019N0070001N1+03101+01801999999ADDGA1021+007501999GA2071+090001999GF107991999999999999999999MA1100811999999REMMET064METAR VTBU 050730Z 21008KT 7000 FEW025 BKN300 31/18 Q1008 A2977;
0149484780999992013010507304+12633+101350FM-15+0005VTBU V0202101N004110900019N0070001N1+03101+01801999999ADDGA1021+007501999GA2071+090001999GF107991999999999999999999MA1100811999999REMMET064METAR VTBU 050730Z 21008KT 7000 FEW025 BKN300 31/18 Q1008 A2977;
0149484780999992013010507304+12633+101350FM-15+0005VTBU V0202101N004110900019N0070001N1+03101+01801999999ADDGA1021+007501999GA2071+090001999GF107991999999999999999999MA1100811999999REMMET064METAR VTBU 050730Z 21008KT 7000 FEW025 BKN300 31/18 Q1008 A2977;
0149484780999992013010507304+12633+101350FM-15+0005VTBU V0202101N004110900019N0070001N1+03101+01801999999ADDGA1021+007501999GA2071+090001999GF107991999999999999999999MA1100811999999REMMET064METAR VTBU 050730Z 21008KT 7000 FEW025 BKN300 31/18 Q1008 A2977;
0149484780999992013010507304+12633+101350FM-15+0005VTBU V0202101N004110900019N0070001N1+03101+01801999999ADDGA1021+007501999GA2071+090001999GF107991999999999999999999MA1100811999999REMMET064METAR VTBU 050730Z 21008KT 7000 FEW025 BKN300 31/18 Q1008 A2977;
0149484780999992013010507304+12633+101350FM-15+0005VTBU V0202101N004110900019N0070001N1+03101+01801999999ADDGA1021+007501999GA2071+090001999GF107991999999999999999999MA1100811999999REMMET064METAR VTBU 050730Z 21008KT 7000 FEW025 BKN300 31/18 Q1008 A2977;
0149484780999992013010507304+12633+101350FM-15+0005VTBU V0202101N004110900019N0070001N1+03101+01801999999ADDGA1021+007501999GA2071+090001999GF107991999999999999999999MA1100811999999REMMET064METAR VTBU 050730Z 21008KT 7000 FEW025 BKN300 31/18 Q1008 A2977;
0149484780999992013010507304+12633+101350FM-15+0005VTBU V0202101N004110900019N0070001N1+03101+01801999999ADDGA1021+007501999GA2071+090001999GF107991999999999999999999MA1100811999999REMMET064METAR VTBU 050730Z 21008KT 7000 FEW025 BKN300 31/18 Q1008 A2977;
0149484780999992013010507304+12633+101350FM-15+0005VTBU V0202101N004110900019N0070001N1+03101+01801999999ADDGA1021+007501999GA2071+090001999GF107991999999999999999999MA1100811999999REMMET064METAR VTBU 050730Z 21008KT 7000 FEW025 BKN300 31/18 Q1008 A2977;
0149484780999992013010507304+12633+101350FM-15+0005VTBU V0202101N004110900019N0070001N1+03101+01801999999ADDGA1021+007501999GA2071+090001999GF107991999999999999999999MA1100811999999REMMET064METAR VTBU 050730Z 21008KT 7000 FEW025 BKN300 31/18 Q1008 A2977;
0149484780999992013010507304+12633+101350FM-15+0005VTBU V0202101N004110900019N0070001N1+03101+01801999999ADDGA1021+007501999GA2071+090001999GF107991999999999999999999MA1100811999999REMMET064METAR VTBU 050730Z 21008KT 7000 FEW025 BKN300 31/18 Q1008 A2977;
0149484780999992013010507304+12633+101350FM-15+0005VTBU V0202101N004110900019N0070001N1+03101+01801999999ADDGA1021+007501999GA2071+090001999GF107991999999999999999999MA1100811999999REMMET064METAR VTBU 050730Z 21008KT 7000 FEW025 BKN300 31/18 Q1008 A2977;
0149484780999992013010507304+12633+101350FM-15+0005VTBU V0202101N004110900019N0070001N1+03101+01801999999ADDGA1021+007501999GA2071+090001999GF107991999999999999999999MA1100811999999REMMET064METAR VTBU 050730Z 21008KT 7000 FEW025 BKN300 31/18 Q1008 A2977;
0149484780999992013010507304+12633+101350FM-15+0005VTBU V0202101N004110900019N0070001N1+03101+01801999999ADDGA1021+007501999GA2071+090001999GF107991999999999999999999MA1100811999999REMMET064METAR VTBU 050730Z 21008KT 7000 FEW025 BKN300 31/18 Q1008 A2977;
0149484780999992013010507304+12633+101350FM-15+0005VTBU V0202101N004110900019N0070001N1+03101+01801999999ADDGA1021+007501999GA2071+090001999GF107991999999999999999999MA1100811999999REMMET064METAR VTBU 050730Z 21008KT 7000 FEW025 BKN300 31/18 Q1008 A2977;
0149484780999992013010507304+12633+101350FM-15+0005VTBU V0202101N004110900019N0070001N1+03101+01801999999ADDGA1021+007501999GA2071+090001999GF107991999999999999999999MA1100811999999REMMET064METAR VTBU 050730Z 21008KT 7000 FEW025 BKN300 31/18 Q1008 A2977;
0149484780999992013010507304+12633+101350FM-15+0005VTBU V0202101N004110900019N0070001N1+03101+01801999999ADDGA1021+007501999GA2071+090001999GF107991999999999999999999MA1100811999999REMMET064METAR VTBU 050730Z 21008KT 7000 FEW025 BKN300 31/18 Q1008 A2977;
0149484780999992013010507304+12633+101350FM-15+0005VTBU V0202101N004110900019N0070001N1+03101+01801999999ADDGA1021+007501999GA2071+090001999GF107991999999999999999999MA1100811999999REMMET064METAR VTBU 050730Z 21008KT 7000 FEW025 BKN300 31/18 Q1008 A2977;
0149484780999992013010507304+12633+101350FM-15+0005VTBU V0202101N004110900019N0070001N1+03101+01801999999ADDGA1021+007501999GA2071+090001999GF107991999999999999999999MA1100811999999REMMET064METAR VTBU 050730Z 21008KT 7000 FEW025 BKN300 31/18 Q1008 A2977;
0149484780999992013010507304+12633+101350FM-15+0005VTBU V0202101N004110900019N0070001N1+03101+01801999999ADDGA1021+007501999GA2071+090001999GF107991999999999999999999MA1100811999999REMMET064METAR VTBU 050730Z 21008KT 7000 FEW025 BKN300 31/18 Q1008 A2977;
0149484780999992013010507304+12633+101350FM-15+0005VTBU V0202101N004110900019N0070001N1+03101+01801999999ADDGA1021+007501999GA2071+090001999GF107991999999999999999999MA1100811999999REMMET064METAR VTBU 050730Z 21008KT 7000 FEW025 BKN300 31/18 Q1008 A2977;
0149484780999992013010507304+12633+101350FM-15+0005VTBU V0202101N004110900019N0070001N1+03101+01801999999ADDGA1021+007501999GA2071+090001999GF107991999999999999999999MA1100811999999REMMET064METAR VTBU 050730Z 21008KT 7000 FEW025 BKN300 31/18 Q1008 A2977;
0149484780999992013010507304+12633+101350FM-15+0005VTBU V0202101N004110900019N0070001N1+03101+01801999999ADDGA1021+007501999GA2071+090001999GF107991999999999999999999MA1100811999999REMMET064METAR VTBU 050730Z 21008KT 7000 FEW025 BKN300 31/18 Q1008 A2977;
0149484780999992013010507304+12633+101350FM-15+0005VTBU V0202101N004110900019N0070001N1+03101+01801999999ADDGA1021+007501999GA2071+090001999GF107991999999999999999999MA1100811999999REMMET064METAR VTBU 050730Z 21008KT 7000 FEW025 BKN300 31/18 Q1008 A2977;
0149484780999992013010507304+12633+101350FM-15+0005VTBU V0202101N004110900019N0070001N1+03101+01801999999ADDGA1021+007501999GA2071+090001999GF107991999999999999999999MA1100811999999REMMET064METAR VTBU 050730Z 21008KT 7000 FEW025 BKN300 31/18 Q1008 A2977;
0149484780999992013010507304+12633+101350FM-15+0005VTBU V0202101N004110900019N0070001N1+03101+01801999999ADDGA1021+007501999GA2071+090001999GF107991999999999999999999MA1100811999999REMMET064METAR VTBU 050730Z 21008KT 7000 FEW025 BKN300 31/18 Q1008 A2977;
0149484780999992013010507304+12633+101350FM-15+0005VTBU V0202101N004110900019N0070001N1+03101+01801999999ADDGA1021+007501999GA2071+090001999GF107991999999999999999999MA1100811999999REMMET064METAR VTBU 050730Z 21008KT 7000 FEW025 BKN300 31/18 Q1008 A2977;
0149484780999992013010507304+12633+101350FM-15+0005VTBU V0202101N004110900019N0070001N1+03101+01801999999ADDGA1021+007501999GA2071+090001999GF107991999999999999999999MA1100811999999REMMET064METAR VTBU 050730Z 21008KT 7000 FEW025 BKN300 31/18 Q1008 A2977;
0149484780999992013010507304+12633+101350FM-15+0005VTBU V0202101N004110900019N0070001N1+03101+01801999999ADDGA1021+007501999GA2071+090001999GF107991999999999999999999MA1100811999999REMMET064METAR VTBU 050730Z 21008KT 7000 FEW025 BKN300 31/18 Q1008 A2977;
0149484780999992013010507304+12633+101350FM-15+0005VTBU V0202101N004110900019N0070001N1+03101+01801999999ADDGA1021+007501999GA2071+090001999GF107991999999999999999999MA1100811999999REMMET064METAR VTBU 050730Z 21008KT 7000 FEW025 BKN300 31/18 Q1008 A2977;
0149484780999992013010507304+12633+101350FM-15+0005VTBU V0202101N004110900019N0070001N1+03101+01801999999ADDGA1021+007501999GA2071+090001999GF107991999999999999999999MA1100811999999REMMET064METAR VTBU 050730Z 21008KT 7000 FEW025 BKN300 31/18 Q1008 A2977;
0149484780999992013010507304+12633+101350FM-15+0005VTBU V0202101N004110900019N0070001N1+03101+01801999999ADDGA1021+007501999GA2071+090001999GF107991999999999999999999MA1100811999999REMMET064METAR VTBU 050730Z 21008KT 7000 FEW025 BKN300 31/18 Q1008 A2977;
0149484780999992013010507304+12633+101350FM-15+0005VTBU V0202101N004110900019N0070001N1+03101+01801999999ADDGA1021+007501999GA2071+090001999GF107991999999999999999999MA1100811999999REMMET064METAR VTBU 050730Z 21008KT 7000 FEW025 BKN300 31/18 Q1008 A2977;
0149484780999992013010507304+12633+101350FM-15+0005VTBU V0202101N004110900019N0070001N1+03101+01801999999ADDGA1021+007501999GA2071+090001999GF107991999999999999999999MA1100811999999REMMET064METAR VTBU 050730Z 21008KT 7000 FEW025 BKN300 31/18 Q1008 A2977;
0149484780999992013010507304+12633+101350FM-15+0005VTBU V0202101N004110900019N0070001N1+03101+01801999999ADDGA1021+007501999GA2071+090001999GF107991999999999999999999MA1100811999999REMMET064METAR VTBU 050730Z 21008KT 7000 FEW025 BKN300 31/18 Q1008 A2977;
0149484780999992013010507304+12633+101350FM-15+0005VTBU V0202101N004110900019N0070001N1+03101+01801999999ADDGA1021+007501999GA2071+090001999GF107991999999999999999999MA1100811999999REMMET064METAR VTBU 050730Z 21008KT 7000 FEW025 BKN300 31/18 Q1008 A2977;
0149484780999992013010507304+12633+101350FM-15+0005VTBU V0202101N004110900019N0070001N1+03101+01801999999ADDGA1021+007501999GA2071+090001999GF107991999999999999999999MA1100811999999REMMET064METAR VTBU 050730Z 21008KT 7000 FEW025 BKN300 31/18 Q1008 A2977;
0149484780999992013010507304+12633+101350FM-15+0005VTBU V0202101N004110900019N0070001N1+03101+01801999999ADDGA1021+007501999GA2071+090001999GF107991999999999999999999MA1100811999999REMMET064METAR VTBU 050730Z 21008KT 7000 FEW025 BKN300 31/18 Q1008 A2977;
0149484780999992013010507304+12633+101350FM-15+0005VTBU V0202101N004110900019N0070001N1+03101+01801999999ADDGA1021+007501999GA2071+090001999GF107991999999999999999999MA1100811999999REMMET064METAR VTBU 050730Z 21008KT 7000 FEW025 BKN300 31/18 Q1008 A2977;
0149484780999992013010507304+12633+101350FM-15+0005VTBU V0202101N004110900019N0070001N1+03101+01801999999ADDGA1021+007501999GA2071+090001999GF107991999999999999999999MA1100811999999REMMET064METAR VTBU 050730Z 21008KT 7000 FEW025 BKN300 31/18 Q1008 A2977;
0149484780999992013010507304+12633+101350FM-15+0005VTBU V0202101N004110900019N0070001N1+03101+01801999999ADDGA1021+007501999GA2071+090001999GF107991999999999999999999MA1100811999999REMMET064METAR VTBU 050730Z 21008KT 7000 FEW025 BKN300 31/18 Q1008 A2977;
0149484780999992013010507304+12633+101350FM-15+0005VTBU V0202101N004110900019N0070001N1+03101+01801999999ADDGA1021+007501999GA2071+090001999GF107991999999999999999999MA1100811999999REMMET064METAR VTBU 050730Z 21008KT 7000 FEW025 BKN300 31/18 Q1008 A2977;
0149484780999992013010507304+12633+101350FM-15+0005VTBU V0202101N004110900019N0070001N1+03101+01801999999ADDGA1021+007501999GA2071+090001999GF107991999999999999999999MA1100811999999REMMET064METAR VTBU 050730Z 21008KT 7000 FEW025 BKN300 31/18 Q1008 A2977;
0149484780999992013010507304+12633+101350FM-15+0005VTBU V0202101N004110900019N0070001N1+03101+01801999999ADDGA1021+007501999GA2071+090001999GF107991999999999999999999MA1100811999999REMMET064METAR VTBU 050730Z 21008KT 7000 FEW025 BKN300 31/18 Q1008 A2977;
0149484780999992013010507304+12633+101350FM-15+0005VTBU V0202101N004110900019N0070001N1+03101+01801999999ADDGA1021+007501999GA2071+090001999GF107991999999999999999999MA1100811999999REMMET064METAR VTBU 050730Z 21008KT 7000 FEW025 BKN300 31/18 Q1008 A2977;
0149484780999992013010507304+12633+101350FM-15+0005VTBU V0202101N004110900019N0070001N1+03101+01801999999ADDGA1021+007501999GA2071+090001999GF107991999999999999999999MA1100811999999REMMET064METAR VTBU 050730Z 21008KT 7000 FEW025 BKN300 31/18 Q1008 A2977;
0149484780999992013010507304+12633+101350FM-15+0005VTBU V0202101N004110900019N0070001N1+03101+01801999999ADDGA1021+007501999GA2071+090001999GF107991999999999999999999MA1100811999999REMMET064METAR VTBU 050730Z 21008KT 7000 FEW025 BKN300 31/18 Q1008 A2977;
0149484780999992013010507304+12633+101350FM-15+0005VTBU V0202101N004110900019N0070001N1+03101+01801999999ADDGA1021+007501999GA2071+090001999GF107991999999999999999999MA1100811999999REMMET064METAR VTBU 050730Z 21008KT 7000 FEW025 BKN300 31/18 Q1008 A2977;
0149484780999992013010507304+12633+101350FM-15+0005VTBU V0202101N004110900019N0070001N1+03101+01801999999ADDGA1021+007501999GA2071+090001999GF107991999999999999999999MA1100811999999REMMET064METAR VTBU 050730Z 21008KT 7000 FEW025 BKN300 31/18 Q1008 A2977;
0149484780999992013010507304+12633+101350FM-15+0005VTBU V0202101N004110900019N0070001N1+03101+01801999999ADDGA1021+007501999GA2071+090001999GF107991999999999999999999MA1100811999999REMMET064METAR VTBU 050730Z 21008KT 7000 FEW025 BKN300 31/18 Q1008 A2977;
0149484780999992013010507304+12633+101350FM-15+0005VTBU V0202101N004110900019N0070001N1+03101+01801999999ADDGA1021+007501999GA2071+090001999GF107991999999999999999999MA1100811999999REMMET064METAR VTBU 050730Z 21008KT 7000 FEW025 BKN300 31/18 Q1008 A2977;
0149484780999992013010507304+12633+101350FM-15+0005VTBU V0202101N004110900019N0070001N1+03101+01801999999ADDGA1021+007501999GA2071+090001999GF107991999999999999999999MA1100811999999REMMET064METAR VTBU 050730Z 21008KT 7000 FEW025 BKN300 31/18 Q1008 A2977;
0149484780999992013010507304+12633+101350FM-15+0005VTBU V0202101N004110900019N0070001N1+03101+01801999999ADDGA1021+007501999GA2071+090001999GF107991999999999999999999MA1100811999999REMMET064METAR VTBU 050730Z 21008KT 7000 FEW025 BKN300 31/18 Q1008 A2977;
0149484780999992013010507304+12633+101350FM-15+0005VTBU V0202101N004110900019N0070001N1+03101+01801999999ADDGA1021+007501999GA2071+090001999GF107991999999999999999999MA1100811999999REMMET064METAR VTBU 050730Z 21008KT 7000 FEW025 BKN300 31/18 Q1008 A2977;
0149484780999992013010507304+12633+101350FM-15+0005VTBU V0202101N004110900019N0070001N1+03101+01801999999ADDGA1021+007501999GA2071+090001999GF107991999999999999999999MA1100811999999REMMET064METAR VTBU 050730Z 21008KT 7000 FEW025 BKN300 31/18 Q1008 A2977;
0149484780999992013010507304+12633+101350FM-15+0005VTBU V0202101N004110900019N0070001N1+03101+01801999999ADDGA1021+007501999GA2071+090001999GF107991999999999999999999MA1100811999999REMMET064METAR VTBU 050730Z 21008KT 7000 FEW025 BKN300 31/18 Q1008 A2977;
0149484780999992013010507304+12633+101350FM-15+0005VTBU V0202101N004110900019N0070001N1+03101+01801999999ADDGA1021+007501999GA2071+090001999GF107991999999999999999999MA1100811999999REMMET064METAR VTBU 050730Z 21008KT 7000 FEW025 BKN300 31/18 Q1008 A2977;
0149484780999992013010507304+12633+101350FM-15+0005VTBU V0202101N004110900019N0070001N1+03101+01801999999ADDGA1021+007501999GA2071+090001999GF107991999999999999999999MA1100811999999REMMET064METAR VTBU 050730Z 21008KT 7000 FEW025 BKN300 31/18 Q1008 A2977;
0149484780999992013010507304+12633+101350FM-15+0005VTBU V0202101N004110900019N0070001N1+03101+01801999999ADDGA1021+007501999GA2071+090001999GF107991999999999999999999MA1100811999999REMMET064METAR VTBU 050730Z 21008KT 7000 FEW025 BKN300 31/18 Q1008 A2977;
0149484780999992013010507304+12633+101350FM-15+0005VTBU V0202101N004110900019N0070001N1+03101+01801999999ADDGA1021+007501999GA2071+090001999GF107991999999999999999999MA1100811999999REMMET064METAR VTBU 050730Z 21008KT 7000 FEW025 BKN300 31/18 Q1008 A2977;
0149484780999992013010507304+12633+101350FM-15+0005VTBU V0202101N004110900019N0070001N1+03101+01801999999ADDGA1021+007501999GA2071+090001999GF107991999999999999999999MA1100811999999REMMET064METAR VTBU 050730Z 21008KT 7000 FEW025 BKN300 31/18 Q1008 A2977;
0149484780999992013010507304+12633+101350FM-15+0005VTBU V0202101N004110900019N0070001N1+03101+01801999999ADDGA1021+007501999GA2071+090001999GF107991999999999999999999MA1100811999999REMMET064METAR VTBU 050730Z 21008KT 7000 FEW025 BKN300 31/18 Q1008 A2977;
0149484780999992013010507304+12633+101350FM-15+0005VTBU V0202101N004110900019N0070001N1+03101+01801999999ADDGA1021+007501999GA2071+090001999GF107991999999999999999999MA1100811999999REMMET064METAR VTBU 050730Z 21008KT 7000 FEW025 BKN300 31/18 Q1008 A2977;
0149484780999992013010507304+12633+101350FM-15+0005VTBU V0202101N004110900019N0070001N1+03101+01801999999ADDGA1021+007501999GA2071+090001999GF107991999999999999999999MA1100811999999REMMET064METAR VTBU 050730Z 21008KT 7000 FEW025 BKN300 31/18 Q1008 A2977;
0149484780999992013010507304+12633+101350FM-15+0005VTBU V0202101N004110900019N0070001N1+03101+01801999999ADDGA1021+007501999GA2071+090001999GF107991999999999999999999MA1100811999999REMMET064METAR VTBU 050730Z 21008KT 7000 FEW025 BKN300 31/18 Q1008 A2977;
0149484780999992013010507304+12633+101350FM-15+0005VTBU V0202101N004110900019N0070001N1+03101+01801999999ADDGA1021+007501999GA2071+090001999GF107991999999999999999999MA1100811999999REMMET064METAR VTBU 050730Z 21008KT 7000 FEW025 BKN300 31/18 Q1008 A2977;
0149484780999992013010507304+12633+101350FM-15+0005VTBU V0202101N004110900019N0070001N1+03101+01801999999ADDGA1021+007501999GA2071+090001999GF107991999999999999999999MA1100811999999REMMET064METAR VTBU 050730Z 21008KT 7000 FEW025 BKN300 31/18 Q1008 A2977;
0149484780999992013010507304+12633+101350FM-15+0005VTBU V0202101N004110900019N0070001N1+03101+01801999999ADDGA1021+007501999GA2071+090001999GF107991999999999999999999MA1100811999999REMMET064METAR VTBU 050730Z 21008KT 7000 FEW025 BKN300 31/18 Q1008 A2977;
0149484780999992013010507304+12633+101350FM-15+0005VTBU V0202101N004110900019N0070001N1+03101+01801999999ADDGA1021+007501999GA2071+090001999GF107991999999999999999999MA1100811999999REMMET064METAR VTBU 050730Z 21008KT 7000 FEW025 BKN300 31/18 Q1008 A2977;
0149484780999992013010507304+12633+101350FM-15+0005VTBU V0202101N004110900019N0070001N1+03101+01801999999ADDGA1021+007501999GA2071+090001999GF107991999999999999999999MA1100811999999REMMET064METAR VTBU 050730Z 21008KT 7000 FEW025 BKN300 31/18 Q1008 A2977;
0149484780999992013010507304+12633+101350FM-15+0005VTBU V0202101N004110900019N0070001N1+03101+01801999999ADDGA1021+007501999GA2071+090001999GF107991999999999999999999MA1100811999999REMMET064METAR VTBU 050730Z 21008KT 7000 FEW025 BKN300 31/18 Q1008 A2977;
0149484780999992013010507304+12633+101350FM-15+0005VTBU V0202101N004110900019N0070001N1+03101+01801999999ADDGA1021+007501999GA2071+090001999GF107991999999999999999999MA1100811999999REMMET064METAR VTBU 050730Z 21008KT 7000 FEW025 BKN300 31/18 Q1008 A2977;
0149484780999992013010507304+12633+101350FM-15+0005VTBU V0202101N004110900019N0070001N1+03101+01801999999ADDGA1021+007501999GA2071+090001999GF107991999999999999999999MA1100811999999REMMET064METAR VTBU 050730Z 21008KT 7000 FEW025 BKN300 31/18 Q1008 A2977;
0149484780999992013010507304+12633+101350FM-15+0005VTBU V0202101N004110900019N0070001N1+03101+01801999999ADDGA1021+007501999GA2071+090001999GF107991999999999999999999MA1100811999999REMMET064METAR VTBU 050730Z 21008KT 7000 FEW025 BKN300 31/18 Q1008 A2977;
0149484780999992013010507304+12633+101350FM-15+0005VTBU V0202101N004110900019N0070001N1+03101+01801999999ADDGA1021+007501999GA2071+090001999GF107991999999999999999999MA1100811999999REMMET064METAR VTBU 050730Z 21008KT 7000 FEW025 BKN300 31/18 Q1008 A2977;
0149484780999992013010507304+12633+101350FM-15+0005VTBU V0202101N004110900019N0070001N1+03101+01801999999ADDGA1021+007501999GA2071+090001999GF107991999999999999999999MA1100811999999REMMET064METAR VTBU 050730Z 21008KT 7000 FEW025 BKN300 31/18 Q1008 A2977;
0149484780999992013010507304+12633+101350FM-15+0005VTBU V0202101N004110900019N0070001N1+03101+01801999999ADDGA1021+007501999GA2071+090001999GF107991999999999999999999MA1100811999999REMMET064METAR VTBU 050730Z 21008KT 7000 FEW025 BKN300 31/18 Q1008 A2977;
0149484780999992013010507304+12633+101350FM-15+0005VTBU V0202101N004110900019N0070001N1+03101+01801999999ADDGA1021+007501999GA2071+090001999GF107991999999999999999999MA1100811999999REMMET064METAR VTBU 050730Z 21008KT 7000 FEW025 BKN300 31/18 Q1008 A2977;
0149484780999992013010507304+12633+101350FM-15+0005VTBU V0202101N004110900019N0070001N1+03101+01801999999ADDGA1021+007501999GA2071+090001999GF107991999999999999999999MA1100811999999REMMET064METAR VTBU 050730Z 21008KT 7000 FEW025 BKN300 31/18 Q1008 A2977;
0149484780999992013010507304+12633+101350FM-15+0005VTBU V0202101N004110900019N0070001N1+03101+01801999999ADDGA1021+007501999GA2071+090001999GF107991999999999999999999MA1100811999999REMMET064METAR VTBU 050730Z 21008KT 7000 FEW025 BKN300 31/18 Q1008 A2977;
0149484780999992013010507304+12633+101350FM-15+0005VTBU V0202101N004110900019N0070001N1+03101+01801999999ADDGA1021+007501999GA2071+090001999GF107991999999999999999999MA1100811999999REMMET064METAR VTBU 050730Z 21008KT 7000 FEW025 BKN300 31/18 Q1008 A2977;
0149484780999992013010507304+12633+101350FM-15+0005VTBU V0202101N004110900019N0070001N1+03101+01801999999ADDGA1021+007501999GA2071+090001999GF107991999999999999999999MA1100811999999REMMET064METAR VTBU 050730Z 21008KT 7000 FEW025 BKN300 31/18 Q1008 A2977;
0149484780999992013010507304+12633+101350FM-15+0005VTBU V0202101N004110900019N0070001N1+03101+01801999999ADDGA1021+007501999GA2071+090001999GF107991999999999999999999MA1100811999999REMMET064METAR VTBU 050730Z 21008KT 7000 FEW025 BKN300 31/18 Q1008 A2977;
0149484780999992013010507304+12633+101350FM-15+0005VTBU V0202101N004110900019N0070001N1+03101+01801999999ADDGA1021+007501999GA2071+090001999GF107991999999999999999999MA1100811999999REMMET064METAR VTBU 050730Z 21008KT 7000 FEW025 BKN300 31/18 Q1008 A2977;
0149484780999992013010507304+12633+101350FM-15+0005VTBU V0202101N004110900019N0070001N1+03101+01801999999ADDGA1021+007501999GA2071+090001999GF107991999999999999999999MA1100811999999REMMET064METAR VTBU 050730Z 21008KT 7000 FEW025 BKN300 31/18 Q1008 A2977;
0149484780999992013010507304+12633+101350FM-15+0005VTBU V0202101N004110900019N0070001N1+03101+01801999999ADDGA1021+007501999GA2071+090001999GF107991999999999999999999MA1100811999999REMMET064METAR VTBU 050730Z 21008KT 7000 FEW025 BKN300 31/18 Q1008 A2977;
0149484780999992013010507304+12633+101350FM-15+0005VTBU V0202101N004110900019N0070001N1+03101+01801999999ADDGA1021+007501999GA2071+090001999GF107991999999999999999999MA1100811999999REMMET064METAR VTBU 050730Z 21008KT 7000 FEW025 BKN300 31/18 Q1008 A2977;
0149484780999992013010507304+12633+101350FM-15+0005VTBU V0202101N004110900019N0070001N1+03101+01801999999ADDGA1021+007501999GA2071+090001999GF107991999999999999999999MA1100811999999REMMET064METAR VTBU 050730Z 21008KT 7000 FEW025 BKN300 31/18 Q1008 A2977;
0149484780999992013010507304+12633+101350FM-15+0005VTBU V0202101N004110900019N0070001N1+03101+01801999999ADDGA1021+007501999GA2071+090001999GF107991999999999999999999MA1100811999999REMMET064METAR VTBU 050730Z 21008KT 7000 FEW025 BKN300 31/18 Q1008 A2977;
0149484780999992013010507304+12633+101350FM-15+0005VTBU V0202101N004110900019N0070001N1+03101+01801999999ADDGA1021+007501999GA2071+090001999GF107991999999999999999999MA1100811999999REMMET064METAR VTBU 050730Z 21008KT 7000 FEW025 BKN300 31/18 Q1008 A2977;
0149484780999992013010507304+12633+101350FM-15+0005VTBU V0202101N004110900019N0070001N1+03101+01801999999ADDGA1021+007501999GA2071+090001999GF107991999999999999999999MA1100811999999REMMET064METAR VTBU 050730Z 21008KT 7000 FEW025 BKN300 31/18 Q1008 A2977;
0149484780999992013010507304+12633+101350FM-15+0005VTBU V0202101N004110900019N0070001N1+03101+01801999999ADDGA1021+007501999GA2071+090001999GF107991999999999999999999MA1100811999999REMMET064METAR VTBU 050730Z 21008KT 7000 FEW025 BKN300 31/18 Q1008 A2977;
0149484780999992013010507304+12633+101350FM-15+0005VTBU V0202101N004110900019N0070001N1+03101+01801999999ADDGA1021+007501999GA2071+090001999GF107991999999999999999999MA1100811999999REMMET064METAR VTBU 050730Z 21008KT 7000 FEW025 BKN300 31/18 Q1008 A2977;
0149484780999992013010507304+12633+101350FM-15+0005VTBU V0202101N004110900019N0070001N1+03101+01801999999ADDGA1021+007501999GA2071+090001999GF107991999999999999999999MA1100811999999REMMET064METAR VTBU 050730Z 21008KT 7000 FEW025 BKN300 31/18 Q1008 A2977;
0149484780999992013010507304+12633+101350FM-15+0005VTBU V0202101N004110900019N0070001N1+03101+01801999999ADDGA1021+007501999GA2071+090001999GF107991999999999999999999MA1100811999999REMMET064METAR VTBU 050730Z 21008KT 7000 FEW025 BKN300 31/18 Q1008 A2977;
0149484780999992013010507304+12633+101350FM-15+0005VTBU V0202101N004110900019N0070001N1+03101+01801999999ADDGA1021+007501999GA2071+090001999GF107991999999999999999999MA1100811999999REMMET064METAR VTBU 050730Z 21008KT 7000 FEW025 BKN300 31/18 Q1008 A2977;
0149484780999992013010507304+12633+101350FM-15+0005VTBU V0202101N004110900019N0070001N1+03101+01801999999ADDGA1021+007501999GA2071+090001999GF107991999999999999999999MA1100811999999REMMET064METAR VTBU 050730Z 21008KT 7000 FEW025 BKN300 31/18 Q1008 A2977;
0149484780999992013010507304+12633+101350FM-15+0005VTBU V0202101N004110900019N0070001N1+03101+01801999999ADDGA1021+007501999GA2071+090001999GF107991999999999999999999MA1100811999999REMMET064METAR VTBU 050730Z 21008KT 7000 FEW025 BKN300 31/18 Q1008 A2977;
0149484780999992013010507304+12633+101350FM-15+0005VTBU V0202101N004110900019N0070001N1+03101+01801999999ADDGA1021+007501999GA2071+090001999GF107991999999999999999999MA1100811999999REMMET064METAR VTBU 050730Z 21008KT 7000 FEW025 BKN300 31/18 Q1008 A2977;
0149484780999992013010507304+12633+101350FM-15+0005VTBU V0202101N004110900019N0070001N1+03101+01801999999ADDGA1021+007501999GA2071+090001999GF107991999999999999999999MA1100811999999REMMET064METAR VTBU 050730Z 21008KT 7000 FEW025 BKN300 31/18 Q1008 A2977;
0149484780999992013010507304+12633+101350FM-15+0005VTBU V0202101N004110900019N0070001N1+03101+01801999999ADDGA1021+007501999GA2071+090001999GF107991999999999999999999MA1100811999999REMMET064METAR VTBU 050730Z 21008KT 7000 FEW025 BKN300 31/18 Q1008 A2977;
0149484780999992013010507304+12633+101350FM-15+0005VTBU V0202101N004110900019N0070001N1+03101+01801999999ADDGA1021+007501999GA2071+090001999GF107991999999999999999999MA1100811999999REMMET064METAR VTBU 050730Z 21008KT 7000 FEW025 BKN300 31/18 Q1008 A2977;
0149484780999992013010507304+12633+101350FM-15+0005VTBU V0202101N004110900019N0070001N1+03101+01801999999ADDGA1021+007501999GA2071+090001999GF107991999999999999999999MA1100811999999REMMET064METAR VTBU 050730Z 21008KT 7000 FEW025 BKN300 31/18 Q1008 A2977;
0149484780999992013010507304+12633+101350FM-15+0005VTBU V0202101N004110900019N0070001N1+03101+01801999999ADDGA1021+007501999GA2071+090001999GF107991999999999999999999MA1100811999999REMMET064METAR VTBU 050730Z 21008KT 7000 FEW025 BKN300 31/18 Q1008 A2977;
0149484780999992013010507304+12633+101350FM-15+0005VTBU V0202101N004110900019N0070001N1+03101+01801999999ADDGA1021+007501999GA2071+090001999GF107991999999999999999999MA1100811999999REMMET064METAR VTBU 050730Z 21008KT 7000 FEW025 BKN300 31/18 Q1008 A2977;
0149484780999992013010507304+12633+101350FM-15+0005VTBU V0202101N004110900019N0070001N1+03101+01801999999ADDGA1021+007501999GA2071+090001999GF107991999999999999999999MA1100811999999REMMET064METAR VTBU 050730Z 21008KT 7000 FEW025 BKN300 31/18 Q1008 A2977;
0149484780999992013010507304+12633+101350FM-15+0005VTBU V0202101N004110900019N0070001N1+03101+01801999999ADDGA1021+007501999GA2071+090001999GF107991999999999999999999MA1100811999999REMMET064METAR VTBU 050730Z 21008KT 7000 FEW025 BKN300 31/18 Q1008 A2977;
0149484780999992013010507304+12633+101350FM-15+0005VTBU V0202101N004110900019N0070001N1+03101+01801999999ADDGA1021+007501999GA2071+090001999GF107991999999999999999999MA1100811999999REMMET064METAR VTBU 050730Z 21008KT 7000 FEW025 BKN300 31/18 Q1008 A2977;
0149484780999992013010507304+12633+101350FM-15+0005VTBU V0202101N004110900019N0070001N1+03101+01801999999ADDGA1021+007501999GA2071+090001999GF107991999999999999999999MA1100811999999REMMET064METAR VTBU 050730Z 21008KT 7000 FEW025 BKN300 31/18 Q1008 A2977;
0149484780999992013010507304+12633+101350FM-15+0005VTBU V0202101N004110900019N0070001N1+03101+01801999999ADDGA1021+007501999GA2071+090001999GF107991999999999999999999MA1100811999999REMMET064METAR VTBU 050730Z 21008KT 7000 FEW025 BKN300 31/18 Q1008 A2977;
0149484780999992013010507304+12633+101350FM-15+0005VTBU V0202101N004110900019N0070001N1+03101+01801999999ADDGA1021+007501999GA2071+090001999GF107991999999999999999999MA1100811999999REMMET064METAR VTBU 050730Z 21008KT 7000 FEW025 BKN300 31/18 Q1008 A2977;
0149484780999992013010507304+12633+101350FM-15+0005VTBU V0202101N004110900019N0070001N1+03101+01801999999ADDGA1021+007501999GA2071+090001999GF107991999999999999999999MA1100811999999REMMET064METAR VTBU 050730Z 21008KT 7000 FEW025 BKN300 31/18 Q1008 A2977;
0149484780999992013010507304+12633+101350FM-15+0005VTBU V0202101N004110900019N0070001N1+03101+01801999999ADDGA1021+007501999GA2071+090001999GF107991999999999999999999MA1100811999999REMMET064METAR VTBU 050730Z 21008KT 7000 FEW025 BKN300 31/18 Q1008 A2977;
0149484780999992013010507304+12633+101350FM-15+0005VTBU V0202101N004110900019N0070001N1+03101+01801999999ADDGA1021+007501999GA2071+090001999GF107991999999999999999999MA1100811999999REMMET064METAR VTBU 050730Z 21008KT 7000 FEW025 BKN300 31/18 Q1008 A2977;
0149484780999992013010507304+12633+101350FM-15+0005VTBU V0202101N004110900019N0070001N1+03101+01801999999ADDGA1021+007501999GA2071+090001999GF107991999999999999999999MA1100811999999REMMET064METAR VTBU 050730Z 21008KT 7000 FEW025 BKN300 31/18 Q1008 A2977;
0149484780999992013010507304+12633+101350FM-15+0005VTBU V0202101N004110900019N0070001N1+03101+01801999999ADDGA1021+007501999GA2071+090001999GF107991999999999999999999MA1100811999999REMMET064METAR VTBU 050730Z 21008KT 7000 FEW025 BKN300 31/18 Q1008 A2977;
0149484780999992013010507304+12633+101350FM-15+0005VTBU V0202101N004110900019N0070001N1+03101+01801999999ADDGA1021+007501999GA2071+090001999GF107991999999999999999999MA1100811999999REMMET064METAR VTBU 050730Z 21008KT 7000 FEW025 BKN300 31/18 Q1008 A2977;
0149484780999992013010507304+12633+101350FM-15+0005VTBU V0202101N004110900019N0070001N1+03101+01801999999ADDGA1021+007501999GA2071+090001999GF107991999999999999999999MA1100811999999REMMET064METAR VTBU 050730Z 21008KT 7000 FEW025 BKN300 31/18 Q1008 A2977;
0149484780999992013010507304+12633+101350FM-15+0005VTBU V0202101N004110900019N0070001N1+03101+01801999999ADDGA1021+007501999GA2071+090001999GF107991999999999999999999MA1100811999999REMMET064METAR VTBU 050730Z 21008KT 7000 FEW025 BKN300 31/18 Q1008 A2977;
0149484780999992013010507304+12633+101350FM-15+0005VTBU V0202101N004110900019N0070001N1+03101+01801999999ADDGA1021+007501999GA2071+090001999GF107991999999999999999999MA1100811999999REMMET064METAR VTBU 050730Z 21008KT 7000 FEW025 BKN300 31/18 Q1008 A2977;
0149484780999992013010507304+12633+101350FM-15+0005VTBU V0202101N004110900019N0070001N1+03101+01801999999ADDGA1021+007501999GA2071+090001999GF107991999999999999999999MA1100811999999REMMET064METAR VTBU 050730Z 21008KT 7000 FEW025 BKN300 31/18 Q1008 A2977;
0149484780999992013010507304+12633+101350FM-15+0005VTBU V0202101N004110900019N0070001N1+03101+01801999999ADDGA1021+007501999GA2071+090001999GF107991999999999999999999MA1100811999999REMMET064METAR VTBU 050730Z 21008KT 7000 FEW025 BKN300 31/18 Q1008 A2977;
0149484780999992013010507304+12633+101350FM-15+0005VTBU V0202101N004110900019N0070001N1+03101+01801999999ADDGA1021+007501999GA2071+090001999GF107991999999999999999999MA1100811999999REMMET064METAR VTBU 050730Z 21008KT 7000 FEW025 BKN300 31/18 Q1008 A2977;
0149484780999992013010507304+12633+101350FM-15+0005VTBU V0202101N004110900019N0070001N1+03101+01801999999ADDGA1021+007501999GA2071+090001999GF107991999999999999999999MA1100811999999REMMET064METAR VTBU 050730Z 21008KT 7000 FEW025 BKN300 31/18 Q1008 A2977;
0149484780999992013010507304+12633+101350FM-15+0005VTBU V0202101N004110900019N0070001N1+03101+01801999999ADDGA1021+007501999GA2071+090001999GF107991999999999999999999MA1100811999999REMMET064METAR VTBU 050730Z 21008KT 7000 FEW025 BKN300 31/18 Q1008 A2977;
0149484780999992013010507304+12633+101350FM-15+0005VTBU V0202101N004110900019N0070001N1+03101+01801999999ADDGA1021+007501999GA2071+090001999GF107991999999999999999999MA1100811999999REMMET064METAR VTBU 050730Z 21008KT 7000 FEW025 BKN300 31/18 Q1008 A2977;
0149484780999992013010507304+12633+101350FM-15+0005VTBU V0202101N004110900019N0070001N1+03101+01801999999ADDGA1021+007501999GA2071+090001999GF107991999999999999999999MA1100811999999REMMET064METAR VTBU 050730Z 21008KT 7000 FEW025 BKN300 31/18 Q1008 A2977;
0149484780999992013010507304+12633+101350FM-15+0005VTBU V0202101N004110900019N0070001N1+03101+01801999999ADDGA1021+007501999GA2071+090001999GF107991999999999999999999MA1100811999999REMMET064METAR VTBU 050730Z 21008KT 7000 FEW025 BKN300 31/18 Q1008 A2977;
0149484780999992013010507304+12633+101350FM-15+0005VTBU V0202101N004110900019N0070001N1+03101+01801999999ADDGA1021+007501999GA2071+090001999GF107991999999999999999999MA1100811999999REMMET064METAR VTBU 050730Z 21008KT 7000 FEW025 BKN300 31/18 Q1008 A2977;
0149484780999992013010507304+12633+101350FM-15+0005VTBU V0202101N004110900019N0070001N1+03101+01801999999ADDGA1021+007501999GA2071+090001999GF107991999999999999999999MA1100811999999REMMET064METAR VTBU 050730Z 21008KT 7000 FEW025 BKN300 31/18 Q1008 A2977;
0149484780999992013010507304+12633+101350FM-15+0005VTBU V0202101N004110900019N0070001N1+03101+01801999999ADDGA1021+007501999GA2071+090001999GF107991999999999999999999MA1100811999999REMMET064METAR VTBU 050730Z 21008KT 7000 FEW025 BKN300 31/18 Q1008 A2977;
0149484780999992013010507304+12633+101350FM-15+0005VTBU V0202101N004110900019N0070001N1+03101+01801999999ADDGA1021+007501999GA2071+090001999GF107991999999999999999999MA1100811999999REMMET064METAR VTBU 050730Z 21008KT 7000 FEW025 BKN300 31/18 Q1008 A2977;
0149484780999992013010507304+12633+101350FM-15+0005VTBU V0202101N004110900019N0070001N1+03101+01801999999ADDGA1021+007501999GA2071+090001999GF107991999999999999999999MA1100811999999REMMET064METAR VTBU 050730Z 21008KT 7000 FEW025 BKN300 31/18 Q1008 A2977;
0149484780999992013010507304+12633+101350FM-15+0005VTBU V0202101N004110900019N0070001N1+03101+01801999999ADDGA1021+007501999GA2071+090001999GF107991999999999999999999MA1100811999999REMMET064METAR VTBU 050730Z 21008KT 7000 FEW025 BKN300 31/18 Q1008 A2977;
0149484780999992013010507304+12633+101350FM-15+0005VTBU V0202101N004110900019N0070001N1+03101+01801999999ADDGA1021+007501999GA2071+090001999GF107991999999999999999999MA1100811999999REMMET064METAR VTBU 050730Z 21008KT 7000 FEW025 BKN300 31/18 Q1008 A2977;
0149484780999992013010507304+12633+101350FM-15+0005VTBU V0202101N004110900019N0070001N1+03101+01801999999ADDGA1021+007501999GA2071+090001999GF107991999999999999999999MA1100811999999REMMET064METAR VTBU 050730Z 21008KT 7000 FEW025 BKN300 31/18 Q1008 A2977;
0149484780999992013010507304+12633+101350FM-15+0005VTBU V0202101N004110900019N0070001N1+03101+01801999999ADDGA1021+007501999GA2071+090001999GF107991999999999999999999MA1100811999999REMMET064METAR VTBU 050730Z 21008KT 7000 FEW025 BKN300 31/18 Q1008 A2977;
0149484780999992013010507304+12633+101350FM-15+0005VTBU V0202101N004110900019N0070001N1+03101+01801999999ADDGA1021+007501999GA2071+090001999GF107991999999999999999999MA1100811999999REMMET064METAR VTBU 050730Z 21008KT 7000 FEW025 BKN300 31/18 Q1008 A2977;
0149484780999992013010507304+12633+101350FM-15+0005VTBU V0202101N004110900019N0070001N1+03101+01801999999ADDGA1021+007501999GA2071+090001999GF107991999999999999999999MA1100811999999REMMET064METAR VTBU 050730Z 21008KT 7000 FEW025 BKN300 31/18 Q1008 A2977;
0149484780999992013010507304+12633+101350FM-15+0005VTBU V0202101N004110900019N0070001N1+03101+01801999999ADDGA1021+007501999GA2071+090001999GF107991999999999999999999MA1100811999999REMMET064METAR VTBU 050730Z 21008KT 7000 FEW025 BKN300 31/18 Q1008 A2977;
0149484780999992013010507304+12633+101350FM-15+0005VTBU V0202101N004110900019N0070001N1+03101+01801999999ADDGA1021+007501999GA2071+090001999GF107991999999999999999999MA1100811999999REMMET064METAR VTBU 050730Z 21008KT 7000 FEW025 BKN300 31/18 Q1008 A2977;
0149484780999992013010507304+12633+101350FM-15+0005VTBU V0202101N004110900019N0070001N1+03101+01801999999ADDGA1021+007501999GA2071+090001999GF107991999999999999999999MA1100811999999REMMET064METAR VTBU 050730Z 21008KT 7000 FEW025 BKN300 31/18 Q1008 A2977;
0149484780999992013010507304+12633+101350FM-15+0005VTBU V0202101N004110900019N0070001N1+03101+01801999999ADDGA1021+007501999GA2071+090001999GF107991999999999999999999MA1100811999999REMMET064METAR VTBU 050730Z 21008KT 7000 FEW025 BKN300 31/18 Q1008 A2977;
0149484780999992013010507304+12633+101350FM-15+0005VTBU V0202101N004110900019N0070001N1+03101+01801999999ADDGA1021+007501999GA2071+090001999GF107991999999999999999999MA1100811999999REMMET064METAR VTBU 050730Z 21008KT 7000 FEW025 BKN300 31/18 Q1008 A2977;
0149484780999992013010507304+12633+101350FM-15+0005VTBU V0202101N004110900019N0070001N1+03101+01801999999ADDGA1021+007501999GA2071+090001999GF107991999999999999999999MA1100811999999REMMET064METAR VTBU 050730Z 21008KT 7000 FEW025 BKN300 31/18 Q1008 A2977;
0149484780999992013010507304+12633+101350FM-15+0005VTBU V0202101N004110900019N0070001N1+03101+01801999999ADDGA1021+007501999GA2071+090001999GF107991999999999999999999MA1100811999999REMMET064METAR VTBU 050730Z 21008KT 7000 FEW025 BKN300 31/18 Q1008 A2977;
0149484780999992013010507304+12633+101350FM-15+0005VTBU V0202101N004110900019N0070001N1+03101+01801999999ADDGA1021+007501999GA2071+090001999GF107991999999999999999999MA1100811999999REMMET064METAR VTBU 050730Z 21008KT 7000 FEW025 BKN300 31/18 Q1008 A2977;
0149484780999992013010507304+12633+101350FM-15+0005VTBU V0202101N004110900019N0070001N1+03101+01801999999ADDGA1021+007501999GA2071+090001999GF107991999999999999999999MA1100811999999REMMET064METAR VTBU 050730Z 21008KT 7000 FEW025 BKN300 31/18 Q1008 A2977;
0149484780999992013010507304+12633+101350FM-15+0005VTBU V0202101N004110900019N0070001N1+03101+01801999999ADDGA1021+007501999GA2071+090001999GF107991999999999999999999MA1100811999999REMMET064METAR VTBU 050730Z 21008KT 7000 FEW025 BKN300 31/18 Q1008 A2977;
0149484780999992013010507304+12633+101350FM-15+0005VTBU V0202101N004110900019N0070001N1+03101+01801999999ADDGA1021+007501999GA2071+090001999GF107991999999999999999999MA1100811999999REMMET064METAR VTBU 050730Z 21008KT 7000 FEW025 BKN300 31/18 Q1008 A2977;
0149484780999992013010507304+12633+101350FM-15+0005VTBU V0202101N004110900019N0070001N1+03101+01801999999ADDGA1021+007501999GA2071+090001999GF107991999999999999999999MA1100811999999REMMET064METAR VTBU 050730Z 21008KT 7000 FEW025 BKN300 31/18 Q1008 A2977;
0149484780999992013010507304+12633+101350FM-15+0005VTBU V0202101N004110900019N0070001N1+03101+01801999999ADDGA1021+007501999GA2071+090001999GF107991999999999999999999MA1100811999999REMMET064METAR VTBU 050730Z 21008KT 7000 FEW025 BKN300 31/18 Q1008 A2977;
0149484780999992013010507304+12633+101350FM-15+0005VTBU V0202101N004110900019N0070001N1+03101+01801999999ADDGA1021+007501999GA2071+090001999GF107991999999999999999999MA1100811999999REMMET064METAR VTBU 050730Z 21008KT 7000 FEW025 BKN300 31/18 Q1008 A2977;
0149484780999992013010507304+12633+101350FM-15+0005VTBU V0202101N004110900019N0070001N1+03101+01801999999ADDGA1021+007501999GA2071+090001999GF107991999999999999999999MA1100811999999REMMET064METAR VTBU 050730Z 21008KT 7000 FEW025 BKN300 31/18 Q1008 A2977;
0149484780999992013010507304+12633+101350FM-15+0005VTBU V0202101N004110900019N0070001N1+03101+01801999999ADDGA1021+007501999GA2071+090001999GF107991999999999999999999MA1100811999999REMMET064METAR VTBU 050730Z 21008KT 7000 FEW025 BKN300 31/18 Q1008 A2977;
0149484780999992013010507304+12633+101350FM-15+0005VTBU V0202101N004110900019N0070001N1+03101+01801999999ADDGA1021+007501999GA2071+090001999GF107991999999999999999999MA1100811999999REMMET064METAR VTBU 050730Z 21008KT 7000 FEW025 BKN300 31/18 Q1008 A2977;
0149484780999992013010507304+12633+101350FM-15+0005VTBU V0202101N004110900019N0070001N1+03101+01801999999ADDGA1021+007501999GA2071+090001999GF107991999999999999999999MA1100811999999REMMET064METAR VTBU 050730Z 21008KT 7000 FEW025 BKN300 31/18 Q1008 A2977;
0149484780999992013010507304+12633+101350FM-15+0005VTBU V0202101N004110900019N0070001N1+03101+01801999999ADDGA1021+007501999GA2071+090001999GF107991999999999999999999MA1100811999999REMMET064METAR VTBU 050730Z 21008KT 7000 FEW025 BKN300 31/18 Q1008 A2977;
0149484780999992013010507304+12633+101350FM-15+0005VTBU V0202101N004110900019N0070001N1+03101+01801999999ADDGA1021+007501999GA2071+090001999GF107991999999999999999999MA1100811999999REMMET064METAR VTBU 050730Z 21008KT 7000 FEW025 BKN300 31/18 Q1008 A2977;
0149484780999992013010507304+12633+101350FM-15+0005VTBU V0202101N004110900019N0070001N1+03101+01801999999ADDGA1021+007501999GA2071+090001999GF107991999999999999999999MA1100811999999REMMET064METAR VTBU 050730Z 21008KT 7000 FEW025 BKN300 31/18 Q1008 A2977;
0149484780999992013010507304+12633+101350FM-15+0005VTBU V0202101N004110900019N0070001N1+03101+01801999999ADDGA1021+007501999GA2071+090001999GF107991999999999999999999MA1100811999999REMMET064METAR VTBU 050730Z 21008KT 7000 FEW025 BKN300 31/18 Q1008 A2977;
0149484780999992013010507304+12633+101350FM-15+0005VTBU V0202101N004110900019N0070001N1+03101+01801999999ADDGA1021+007501999GA2071+090001999GF107991999999999999999999MA1100811999999REMMET064METAR VTBU 050730Z 21008KT 7000 FEW025 BKN300 31/18 Q1008 A2977;
0149484780999992013010507304+12633+101350FM-15+0005VTBU V0202101N004110900019N0070001N1+03101+01801999999ADDGA1021+007501999GA2071+090001999GF107991999999999999999999MA1100811999999REMMET064METAR VTBU 050730Z 21008KT 7000 FEW025 BKN300 31/18 Q1008 A2977;
0149484780999992013010507304+12633+101350FM-15+0005VTBU V0202101N004110900019N0070001N1+03101+01801999999ADDGA1021+007501999GA2071+090001999GF107991999999999999999999MA1100811999999REMMET064METAR VTBU 050730Z 21008KT 7000 FEW025 BKN300 31/18 Q1008 A2977;
0149484780999992013010507304+12633+101350FM-15+0005VTBU V0202101N004110900019N0070001N1+03101+01801999999ADDGA1021+007501999GA2071+090001999GF107991999999999999999999MA1100811999999REMMET064METAR VTBU 050730Z 21008KT 7000 FEW025 BKN300 31/18 Q1008 A2977;
0149484780999992013010507304+12633+101350FM-15+0005VTBU V0202101N004110900019N0070001N1+03101+01801999999ADDGA1021+007501999GA2071+090001999GF107991999999999999999999MA1100811999999REMMET064METAR VTBU 050730Z 21008KT 7000 FEW025 BKN300 31/18 Q1008 A2977;
0149484780999992013010507304+12633+101350FM-15+0005VTBU V0202101N004110900019N0070001N1+03101+01801999999ADDGA1021+007501999GA2071+090001999GF107991999999999999999999MA1100811999999REMMET064METAR VTBU 050730Z 21008KT 7000 FEW025 BKN300 31/18 Q1008 A2977;
0149484780999992013010507304+12633+101350FM-15+0005VTBU V0202101N004110900019N0070001N1+03101+01801999999ADDGA1021+007501999GA2071+090001999GF107991999999999999999999MA1100811999999REMMET064METAR VTBU 050730Z 21008KT 7000 FEW025 BKN300 31/18 Q1008 A2977;
0149484780999992013010507304+12633+101350FM-15+0005VTBU V0202101N004110900019N0070001N1+03101+01801999999ADDGA1021+007501999GA2071+090001999GF107991999999999999999999MA1100811999999REMMET064METAR VTBU 050730Z 21008KT 7000 FEW025 BKN300 31/18 Q1008 A2977;
0149484780999992013010507304+12633+101350FM-15+0005VTBU V0202101N004110900019N0070001N1+03101+01801999999ADDGA1021+007501999GA2071+090001999GF107991999999999999999999MA1100811999999REMMET064METAR VTBU 050730Z 21008KT 7000 FEW025 BKN300 31/18 Q1008 A2977;
0149484780999992013010507304+12633+101350FM-15+0005VTBU V0202101N004110900019N0070001N1+03101+01801999999ADDGA1021+007501999GA2071+090001999GF107991999999999999999999MA1100811999999REMMET064METAR VTBU 050730Z 21008KT 7000 FEW025 BKN300 31/18 Q1008 A2977;
0149484780999992013010507304+12633+101350FM-15+0005VTBU V0202101N004110900019N0070001N1+03101+01801999999ADDGA1021+007501999GA2071+090001999GF107991999999999999999999MA1100811999999REMMET064METAR VTBU 050730Z 21008KT 7000 FEW025 BKN300 31/18 Q1008 A2977;
0149484780999992013010507304+12633+101350FM-15+0005VTBU V0202101N004110900019N0070001N1+03101+01801999999ADDGA1021+007501999GA2071+090001999GF107991999999999999999999MA1100811999999REMMET064METAR VTBU 050730Z 21008KT 7000 FEW025 BKN300 31/18 Q1008 A2977;
0149484780999992013010507304+12633+101350FM-15+0005VTBU V0202101N004110900019N0070001N1+03101+01801999999ADDGA1021+007501999GA2071+090001999GF107991999999999999999999MA1100811999999REMMET064METAR VTBU 050730Z 21008KT 7000 FEW025 BKN300 31/18 Q1008 A2977;
0149484780999992013010507304+12633+101350FM-15+0005VTBU V0202101N004110900019N0070001N1+03101+01801999999ADDGA1021+007501999GA2071+090001999GF107991999999999999999999MA1100811999999REMMET064METAR VTBU 050730Z 21008KT 7000 FEW025 BKN300 31/18 Q1008 A2977;
0149484780999992013010507304+12633+101350FM-15+0005VTBU V0202101N004110900019N0070001N1+03101+01801999999ADDGA1021+007501999GA2071+090001999GF107991999999999999999999MA1100811999999REMMET064METAR VTBU 050730Z 21008KT 7000 FEW025 BKN300 31/18 Q1008 A2977;
0149484780999992013010507304+12633+101350FM-15+0005VTBU V0202101N004110900019N0070001N1+03101+01801999999ADDGA1021+007501999GA2071+090001999GF107991999999999999999999MA1100811999999REMMET064METAR VTBU 050730Z 21008KT 7000 FEW025 BKN300 31/18 Q1008 A2977;
0149484780999992013010507304+12633+101350FM-15+0005VTBU V0202101N004110900019N0070001N1+03101+01801999999ADDGA1021+007501999GA2071+090001999GF107991999999999999999999MA1100811999999REMMET064METAR VTBU 050730Z 21008KT 7000 FEW025 BKN300 31/18 Q1008 A2977;
0149484780999992013010507304+12633+101350FM-15+0005VTBU V0202101N004110900019N0070001N1+03101+01801999999ADDGA1021+007501999GA2071+090001999GF107991999999999999999999MA1100811999999REMMET064METAR VTBU 050730Z 21008KT 7000 FEW025 BKN300 31/18 Q1008 A2977;
0149484780999992013010507304+12633+101350FM-15+0005VTBU V0202101N004110900019N0070001N1+03101+01801999999ADDGA1021+007501999GA2071+090001999GF107991999999999999999999MA1100811999999REMMET064METAR VTBU 050730Z 21008KT 7000 FEW025 BKN300 31/18 Q1008 A2977;
0149484780999992013010507304+12633+101350FM-15+0005VTBU V0202101N004110900019N0070001N1+03101+01801999999ADDGA1021+007501999GA2071+090001999GF107991999999999999999999MA1100811999999REMMET064METAR VTBU 050730Z 21008KT 7000 FEW025 BKN300 31/18 Q1008 A2977;
0149484780999992013010507304+12633+101350FM-15+0005VTBU V0202101N004110900019N0070001N1+03101+01801999999ADDGA1021+007501999GA2071+090001999GF107991999999999999999999MA1100811999999REMMET064METAR VTBU 050730Z 21008KT 7000 FEW025 BKN300 31/18 Q1008 A2977;
0149484780999992013010507304+12633+101350FM-15+0005VTBU V0202101N004110900019N0070001N1+03101+01801999999ADDGA1021+007501999GA2071+090001999GF107991999999999999999999MA1100811999999REMMET064METAR VTBU 050730Z 21008KT 7000 FEW025 BKN300 31/18 Q1008 A2977;
0149484780999992013010507304+12633+101350FM-15+0005VTBU V0202101N004110900019N0070001N1+03101+01801999999ADDGA1021+007501999GA2071+090001999GF107991999999999999999999MA1100811999999REMMET064METAR VTBU 050730Z 21008KT 7000 FEW025 BKN300 31/18 Q1008 A2977;
0149484780999992013010507304+12633+101350FM-15+0005VTBU V0202101N004110900019N0070001N1+03101+01801999999ADDGA1021+007501999GA2071+090001999GF107991999999999999999999MA1100811999999REMMET064METAR VTBU 050730Z 21008KT 7000 FEW025 BKN300 31/18 Q1008 A2977;
0149484780999992013010507304+12633+101350FM-15+0005VTBU V0202101N004110900019N0070001N1+03101+01801999999ADDGA1021+007501999GA2071+090001999GF107991999999999999999999MA1100811999999REMMET064METAR VTBU 050730Z 21008KT 7000 FEW025 BKN300 31/18 Q1008 A2977;
0149484780999992013010507304+12633+101350FM-15+0005VTBU V0202101N004110900019N0070001N1+03101+01801999999ADDGA1021+007501999GA2071+090001999GF107991999999999999999999MA1100811999999REMMET064METAR VTBU 050730Z 21008KT 7000 FEW025 BKN300 31/18 Q1008 A2977;
0149484780999992013010507304+12633+101350FM-15+0005VTBU V0202101N004110900019N0070001N1+03101+01801999999ADDGA1021+007501999GA2071+090001999GF107991999999999999999999MA1100811999999REMMET064METAR VTBU 050730Z 21008KT 7000 FEW025 BKN300 31/18 Q1008 A2977;
0149484780999992013010507304+12633+101350FM-15+0005VTBU V0202101N004110900019N0070001N1+03101+01801999999ADDGA1021+007501999GA2071+090001999GF107991999999999999999999MA1100811999999REMMET064METAR VTBU 050730Z 21008KT 7000 FEW025 BKN300 31/18 Q1008 A2977;
0149484780999992013010507304+12633+101350FM-15+0005VTBU V0202101N004110900019N0070001N1+03101+01801999999ADDGA1021+007501999GA2071+090001999GF107991999999999999999999MA1100811999999REMMET064METAR VTBU 050730Z 21008KT 7000 FEW025 BKN300 31/18 Q1008 A2977;
0149484780999992013010507304+12633+101350FM-15+0005VTBU V0202101N004110900019N0070001N1+03101+01801999999ADDGA1021+007501999GA2071+090001999GF107991999999999999999999MA1100811999999REMMET064METAR VTBU 050730Z 21008KT 7000 FEW025 BKN300 31/18 Q1008 A2977;
0149484780999992013010507304+12633+101350FM-15+0005VTBU V0202101N004110900019N0070001N1+03101+01801999999ADDGA1021+007501999GA2071+090001999GF107991999999999999999999MA1100811999999REMMET064METAR VTBU 050730Z 21008KT 7000 FEW025 BKN300 31/18 Q1008 A2977;
0149484780999992013010507304+12633+101350FM-15+0005VTBU V0202101N004110900019N0070001N1+03101+01801999999ADDGA1021+007501999GA2071+090001999GF107991999999999999999999MA1100811999999REMMET064METAR VTBU 050730Z 21008KT 7000 FEW025 BKN300 31/18 Q1008 A2977;
0149484780999992013010507304+12633+101350FM-15+0005VTBU V0202101N004110900019N0070001N1+03101+01801999999ADDGA1021+007501999GA2071+090001999GF107991999999999999999999MA1100811999999REMMET064METAR VTBU 050730Z 21008KT 7000 FEW025 BKN300 31/18 Q1008 A2977;
0149484780999992013010507304+12633+101350FM-15+0005VTBU V0202101N004110900019N0070001N1+03101+01801999999ADDGA1021+007501999GA2071+090001999GF107991999999999999999999MA1100811999999REMMET064METAR VTBU 050730Z 21008KT 7000 FEW025 BKN300 31/18 Q1008 A2977;
0149484780999992013010507304+12633+101350FM-15+0005VTBU V0202101N004110900019N0070001N1+03101+01801999999ADDGA1021+007501999GA2071+090001999GF107991999999999999999999MA1100811999999REMMET064METAR VTBU 050730Z 21008KT 7000 FEW025 BKN300 31/18 Q1008 A2977;
0149484780999992013010507304+12633+101350FM-15+0005VTBU V0202101N004110900019N0070001N1+03101+01801999999ADDGA1021+007501999GA2071+090001999GF107991999999999999999999MA1100811999999REMMET064METAR VTBU 050730Z 21008KT 7000 FEW025 BKN300 31/18 Q1008 A2977;
0149484780999992013010507304+12633+101350FM-15+0005VTBU V0202101N004110900019N0070001N1+03101+01801999999ADDGA1021+007501999GA2071+090001999GF107991999999999999999999MA1100811999999REMMET064METAR VTBU 050730Z 21008KT 7000 FEW025 BKN300 31/18 Q1008 A2977;
0149484780999992013010507304+12633+101350FM-15+0005VTBU V0202101N004110900019N0070001N1+03101+01801999999ADDGA1021+007501999GA2071+090001999GF107991999999999999999999MA1100811999999REMMET064METAR VTBU 050730Z 21008KT 7000 FEW025 BKN300 31/18 Q1008 A2977;
0149484780999992013010507304+12633+101350FM-15+0005VTBU V0202101N004110900019N0070001N1+03101+01801999999ADDGA1021+007501999GA2071+090001999GF107991999999999999999999MA1100811999999REMMET064METAR VTBU 050730Z 21008KT 7000 FEW025 BKN300 31/18 Q1008 A2977;
0149484780999992013010507304+12633+101350FM-15+0005VTBU V0202101N004110900019N0070001N1+03101+01801999999ADDGA1021+007501999GA2071+090001999GF107991999999999999999999MA1100811999999REMMET064METAR VTBU 050730Z 21008KT 7000 FEW025 BKN300 31/18 Q1008 A2977;
0149484780999992013010507304+12633+101350FM-15+0005VTBU V0202101N004110900019N0070001N1+03101+01801999999ADDGA1021+007501999GA2071+090001999GF107991999999999999999999MA1100811999999REMMET064METAR VTBU 050730Z 21008KT 7000 FEW025 BKN300 31/18 Q1008 A2977;
0149484780999992013010507304+12633+101350FM-15+0005VTBU V0202101N004110900019N0070001N1+03101+01801999999ADDGA1021+007501999GA2071+090001999GF107991999999999999999999MA1100811999999REMMET064METAR VTBU 050730Z 21008KT 7000 FEW025 BKN300 31/18 Q1008 A2977;
0149484780999992013010507304+12633+101350FM-15+0005VTBU V0202101N004110900019N0070001N1+03101+01801999999ADDGA1021+007501999GA2071+090001999GF107991999999999999999999MA1100811999999REMMET064METAR VTBU 050730Z 21008KT 7000 FEW025 BKN300 31/18 Q1008 A2977;
0149484780999992013010507304+12633+101350FM-15+0005VTBU V0202101N004110900019N0070001N1+03101+01801999999ADDGA1021+007501999GA2071+090001999GF107991999999999999999999MA1100811999999REMMET064METAR VTBU 050730Z 21008KT 7000 FEW025 BKN300 31/18 Q1008 A2977;
0149484780999992013010507304+12633+101350FM-15+0005VTBU V0202101N004110900019N0070001N1+03101+01801999999ADDGA1021+007501999GA2071+090001999GF107991999999999999999999MA1100811999999REMMET064METAR VTBU 050730Z 21008KT 7000 FEW025 BKN300 31/18 Q1008 A2977;
0149484780999992013010507304+12633+101350FM-15+0005VTBU V0202101N004110900019N0070001N1+03101+01801999999ADDGA1021+007501999GA2071+090001999GF107991999999999999999999MA1100811999999REMMET064METAR VTBU 050730Z 21008KT 7000 FEW025 BKN300 31/18 Q1008 A2977;
0149484780999992013010507304+12633+101350FM-15+0005VTBU V0202101N004110900019N0070001N1+03101+01801999999ADDGA1021+007501999GA2071+090001999GF107991999999999999999999MA1100811999999REMMET064METAR VTBU 050730Z 21008KT 7000 FEW025 BKN300 31/18 Q1008 A2977;
0149484780999992013010507304+12633+101350FM-15+0005VTBU V0202101N004110900019N0070001N1+03101+01801999999ADDGA1021+007501999GA2071+090001999GF107991999999999999999999MA1100811999999REMMET064METAR VTBU 050730Z 21008KT 7000 FEW025 BKN300 31/18 Q1008 A2977;
0149484780999992013010507304+12633+101350FM-15+0005VTBU V0202101N004110900019N0070001N1+03101+01801999999ADDGA1021+007501999GA2071+090001999GF107991999999999999999999MA1100811999999REMMET064METAR VTBU 050730Z 21008KT 7000 FEW025 BKN300 31/18 Q1008 A2977;
0149484780999992013010507304+12633+101350FM-15+0005VTBU V0202101N004110900019N0070001N1+03101+01801999999ADDGA1021+007501999GA2071+090001999GF107991999999999999999999MA1100811999999REMMET064METAR VTBU 050730Z 21008KT 7000 FEW025 BKN300 31/18 Q1008 A2977;
0149484780999992013010507304+12633+101350FM-15+0005VTBU V0202101N004110900019N0070001N1+03101+01801999999ADDGA1021+007501999GA2071+090001999GF107991999999999999999999MA1100811999999REMMET064METAR VTBU 050730Z 21008KT 7000 FEW025 BKN300 31/18 Q1008 A2977;
0149484780999992013010507304+12633+101350FM-15+0005VTBU V0202101N004110900019N0070001N1+03101+01801999999ADDGA1021+007501999GA2071+090001999GF107991999999999999999999MA1100811999999REMMET064METAR VTBU 050730Z 21008KT 7000 FEW025 BKN300 31/18 Q1008 A2977;
0149484780999992013010507304+12633+101350FM-15+0005VTBU V0202101N004110900019N0070001N1+03101+01801999999ADDGA1021+007501999GA2071+090001999GF107991999999999999999999MA1100811999999REMMET064METAR VTBU 050730Z 21008KT 7000 FEW025 BKN300 31/18 Q1008 A2977;
0149484780999992013010507304+12633+101350FM-15+0005VTBU V0202101N004110900019N0070001N1+03101+01801999999ADDGA1021+007501999GA2071+090001999GF107991999999999999999999MA1100811999999REMMET064METAR VTBU 050730Z 21008KT 7000 FEW025 BKN300 31/18 Q1008 A2977;
0149484780999992013010507304+12633+101350FM-15+0005VTBU V0202101N004110900019N0070001N1+03101+01801999999ADDGA1021+007501999GA2071+090001999GF107991999999999999999999MA1100811999999REMMET064METAR VTBU 050730Z 21008KT 7000 FEW025 BKN300 31/18 Q1008 A2977;
0149484780999992013010507304+12633+101350FM-15+0005VTBU V0202101N004110900019N0070001N1+03101+01801999999ADDGA1021+007501999GA2071+090001999GF107991999999999999999999MA1100811999999REMMET064METAR VTBU 050730Z 21008KT 7000 FEW025 BKN300 31/18 Q1008 A2977;
0149484780999992013010507304+12633+101350FM-15+0005VTBU V0202101N004110900019N0070001N1+03101+01801999999ADDGA1021+007501999GA2071+090001999GF107991999999999999999999MA1100811999999REMMET064METAR VTBU 050730Z 21008KT 7000 FEW025 BKN300 31/18 Q1008 A2977;
0149484780999992013010507304+12633+101350FM-15+0005VTBU V0202101N004110900019N0070001N1+03101+01801999999ADDGA1021+007501999GA2071+090001999GF107991999999999999999999MA1100811999999REMMET064METAR VTBU 050730Z 21008KT 7000 FEW025 BKN300 31/18 Q1008 A2977;
0149484780999992013010507304+12633+101350FM-15+0005VTBU V0202101N004110900019N0070001N1+03101+01801999999ADDGA1021+007501999GA2071+090001999GF107991999999999999999999MA1100811999999REMMET064METAR VTBU 050730Z 21008KT 7000 FEW025 BKN300 31/18 Q1008 A2977;
0149484780999992013010507304+12633+101350FM-15+0005VTBU V0202101N004110900019N0070001N1+03101+01801999999ADDGA1021+007501999GA2071+090001999GF107991999999999999999999MA1100811999999REMMET064METAR VTBU 050730Z 21008KT 7000 FEW025 BKN300 31/18 Q1008 A2977;
0149484780999992013010507304+12633+101350FM-15+0005VTBU V0202101N004110900019N0070001N1+03101+01801999999ADDGA1021+007501999GA2071+090001999GF107991999999999999999999MA1100811999999REMMET064METAR VTBU 050730Z 21008KT 7000 FEW025 BKN300 31/18 Q1008 A2977;
0149484780999992013010507304+12633+101350FM-15+0005VTBU V0202101N004110900019N0070001N1+03101+01801999999ADDGA1021+007501999GA2071+090001999GF107991999999999999999999MA1100811999999REMMET064METAR VTBU 050730Z 21008KT 7000 FEW025 BKN300 31/18 Q1008 A2977;
0149484780999992013010507304+12633+101350FM-15+0005VTBU V0202101N004110900019N0070001N1+03101+01801999999ADDGA1021+007501999GA2071+090001999GF107991999999999999999999MA1100811999999REMMET064METAR VTBU 050730Z 21008KT 7000 FEW025 BKN300 31/18 Q1008 A2977;
0149484780999992013010507304+12633+101350FM-15+0005VTBU V0202101N004110900019N0070001N1+03101+01801999999ADDGA1021+007501999GA2071+090001999GF107991999999999999999999MA1100811999999REMMET064METAR VTBU 050730Z 21008KT 7000 FEW025 BKN300 31/18 Q1008 A2977;
0149484780999992013010507304+12633+101350FM-15+0005VTBU V0202101N004110900019N0070001N1+03101+01801999999ADDGA1021+007501999GA2071+090001999GF107991999999999999999999MA1100811999999REMMET064METAR VTBU 050730Z 21008KT 7000 FEW025 BKN300 31/18 Q1008 A2977;
0149484780999992013010507304+12633+101350FM-15+0005VTBU V0202101N004110900019N0070001N1+03101+01801999999ADDGA1021+007501999GA2071+090001999GF107991999999999999999999MA1100811999999REMMET064METAR VTBU 050730Z 21008KT 7000 FEW025 BKN300 31/18 Q1008 A2977;
0149484780999992013010507304+12633+101350FM-15+0005VTBU V0202101N004110900019N0070001N1+03101+01801999999ADDGA1021+007501999GA2071+090001999GF107991999999999999999999MA1100811999999REMMET064METAR VTBU 050730Z 21008KT 7000 FEW025 BKN300 31/18 Q1008 A2977;
0149484780999992013010507304+12633+101350FM-15+0005VTBU V0202101N004110900019N0070001N1+03101+01801999999ADDGA1021+007501999GA2071+090001999GF107991999999999999999999MA1100811999999REMMET064METAR VTBU 050730Z 21008KT 7000 FEW025 BKN300 31/18 Q1008 A2977;
0149484780999992013010507304+12633+101350FM-15+0005VTBU V0202101N004110900019N0070001N1+03101+01801999999ADDGA1021+007501999GA2071+090001999GF107991999999999999999999MA1100811999999REMMET064METAR VTBU 050730Z 21008KT 7000 FEW025 BKN300 31/18 Q1008 A2977;
0149484780999992013010507304+12633+101350FM-15+0005VTBU V0202101N004110900019N0070001N1+03101+01801999999ADDGA1021+007501999GA2071+090001999GF107991999999999999999999MA1100811999999REMMET064METAR VTBU 050730Z 21008KT 7000 FEW025 BKN300 31/18 Q1008 A2977;
0149484780999992013010507304+12633+101350FM-15+0005VTBU V0202101N004110900019N0070001N1+03101+01801999999ADDGA1021+007501999GA2071+090001999GF107991999999999999999999MA1100811999999REMMET064METAR VTBU 050730Z 21008KT 7000 FEW025 BKN300 31/18 Q1008 A2977;
0149484780999992013010507304+12633+101350FM-15+0005VTBU V0202101N004110900019N0070001N1+03101+01801999999ADDGA1021+007501999GA2071+090001999GF107991999999999999999999MA1100811999999REMMET064METAR VTBU 050730Z 21008KT 7000 FEW025 BKN300 31/18 Q1008 A2977;
0149484780999992013010507304+12633+101350FM-15+0005VTBU V0202101N004110900019N0070001N1+03101+01801999999ADDGA1021+007501999GA2071+090001999GF107991999999999999999999MA1100811999999REMMET064METAR VTBU 050730Z 21008KT 7000 FEW025 BKN300 31/18 Q1008 A2977;
0149484780999992013010507304+12633+101350FM-15+0005VTBU V0202101N004110900019N0070001N1+03101+01801999999ADDGA1021+007501999GA2071+090001999GF107991999999999999999999MA1100811999999REMMET064METAR VTBU 050730Z 21008KT 7000 FEW025 BKN300 31/18 Q1008 A2977;
0149484780999992013010507304+12633+101350FM-15+0005VTBU V0202101N004110900019N0070001N1+03101+01801999999ADDGA1021+007501999GA2071+090001999GF107991999999999999999999MA1100811999999REMMET064METAR VTBU 050730Z 21008KT 7000 FEW025 BKN300 31/18 Q1008 A2977;
0149484780999992013010507304+12633+101350FM-15+0005VTBU V0202101N004110900019N0070001N1+03101+01801999999ADDGA1021+007501999GA2071+090001999GF107991999999999999999999MA1100811999999REMMET064METAR VTBU 050730Z 21008KT 7000 FEW025 BKN300 31/18 Q1008 A2977;
0149484780999992013010507304+12633+101350FM-15+0005VTBU V0202101N004110900019N0070001N1+03101+01801999999ADDGA1021+007501999GA2071+090001999GF107991999999999999999999MA1100811999999REMMET064METAR VTBU 050730Z 21008KT 7000 FEW025 BKN300 31/18 Q1008 A2977;
0149484780999992013010507304+12633+101350FM-15+0005VTBU V0202101N004110900019N0070001N1+03101+01801999999ADDGA1021+007501999GA2071+090001999GF107991999999999999999999MA1100811999999REMMET064METAR VTBU 050730Z 21008KT 7000 FEW025 BKN300 31/18 Q1008 A2977;
0149484780999992013010507304+12633+101350FM-15+0005VTBU V0202101N004110900019N0070001N1+03101+01801999999ADDGA1021+007501999GA2071+090001999GF107991999999999999999999MA1100811999999REMMET064METAR VTBU 050730Z 21008KT 7000 FEW025 BKN300 31/18 Q1008 A2977;
0149484780999992013010507304+12633+101350FM-15+0005VTBU V0202101N004110900019N0070001N1+03101+01801999999ADDGA1021+007501999GA2071+090001999GF107991999999999999999999MA1100811999999REMMET064METAR VTBU 050730Z 21008KT 7000 FEW025 BKN300 31/18 Q1008 A2977;
0149484780999992013010507304+12633+101350FM-15+0005VTBU V0202101N004110900019N0070001N1+03101+01801999999ADDGA1021+007501999GA2071+090001999GF107991999999999999999999MA1100811999999REMMET064METAR VTBU 050730Z 21008KT 7000 FEW025 BKN300 31/18 Q1008 A2977;
0149484780999992013010507304+12633+101350FM-15+0005VTBU V0202101N004110900019N0070001N1+03101+01801999999ADDGA1021+007501999GA2071+090001999GF107991999999999999999999MA1100811999999REMMET064METAR VTBU 050730Z 21008KT 7000 FEW025 BKN300 31/18 Q1008 A2977;
0149484780999992013010507304+12633+101350FM-15+0005VTBU V0202101N004110900019N0070001N1+03101+01801999999ADDGA1021+007501999GA2071+090001999GF107991999999999999999999MA1100811999999REMMET064METAR VTBU 050730Z 21008KT 7000 FEW025 BKN300 31/18 Q1008 A2977;
0149484780999992013010507304+12633+101350FM-15+0005VTBU V0202101N004110900019N0070001N1+03101+01801999999ADDGA1021+007501999GA2071+090001999GF107991999999999999999999MA1100811999999REMMET064METAR VTBU 050730Z 21008KT 7000 FEW025 BKN300 31/18 Q1008 A2977;
0149484780999992013010507304+12633+101350FM-15+0005VTBU V0202101N004110900019N0070001N1+03101+01801999999ADDGA1021+007501999GA2071+090001999GF107991999999999999999999MA1100811999999REMMET064METAR VTBU 050730Z 21008KT 7000 FEW025 BKN300 31/18 Q1008 A2977;
0149484780999992013010507304+12633+101350FM-15+0005VTBU V0202101N004110900019N0070001N1+03101+01801999999ADDGA1021+007501999GA2071+090001999GF107991999999999999999999MA1100811999999REMMET064METAR VTBU 050730Z 21008KT 7000 FEW025 BKN300 31/18 Q1008 A2977;
0149484780999992013010507304+12633+101350FM-15+0005VTBU V0202101N004110900019N0070001N1+03101+01801999999ADDGA1021+007501999GA2071+090001999GF107991999999999999999999MA1100811999999REMMET064METAR VTBU 050730Z 21008KT 7000 FEW025 BKN300 31/18 Q1008 A2977;
0149484780999992013010507304+12633+101350FM-15+0005VTBU V0202101N004110900019N0070001N1+03101+01801999999ADDGA1021+007501999GA2071+090001999GF107991999999999999999999MA1100811999999REMMET064METAR VTBU 050730Z 21008KT 7000 FEW025 BKN300 31/18 Q1008 A2977;
0149484780999992013010507304+12633+101350FM-15+0005VTBU V0202101N004110900019N0070001N1+03101+01801999999ADDGA1021+007501999GA2071+090001999GF107991999999999999999999MA1100811999999REMMET064METAR VTBU 050730Z 21008KT 7000 FEW025 BKN300 31/18 Q1008 A2977;
0149484780999992013010507304+12633+101350FM-15+0005VTBU V0202101N004110900019N0070001N1+03101+01801999999ADDGA1021+007501999GA2071+090001999GF107991999999999999999999MA1100811999999REMMET064METAR VTBU 050730Z 21008KT 7000 FEW025 BKN300 31/18 Q1008 A2977;
0149484780999992013010507304+12633+101350FM-15+0005VTBU V0202101N004110900019N0070001N1+03101+01801999999ADDGA1021+007501999GA2071+090001999GF107991999999999999999999MA1100811999999REMMET064METAR VTBU 050730Z 21008KT 7000 FEW025 BKN300 31/18 Q1008 A2977;
0149484780999992013010507304+12633+101350FM-15+0005VTBU V0202101N004110900019N0070001N1+03101+01801999999ADDGA1021+007501999GA2071+090001999GF107991999999999999999999MA1100811999999REMMET064METAR VTBU 050730Z 21008KT 7000 FEW025 BKN300 31/18 Q1008 A2977;
0149484780999992013010507304+12633+101350FM-15+0005VTBU V0202101N004110900019N0070001N1+03101+01801999999ADDGA1021+007501999GA2071+090001999GF107991999999999999999999MA1100811999999REMMET064METAR VTBU 050730Z 21008KT 7000 FEW025 BKN300 31/18 Q1008 A2977;
0149484780999992013010507304+12633+101350FM-15+0005VTBU V0202101N004110900019N0070001N1+03101+01801999999ADDGA1021+007501999GA2071+090001999GF107991999999999999999999MA1100811999999REMMET064METAR VTBU 050730Z 21008KT 7000 FEW025 BKN300 31/18 Q1008 A2977;
0149484780999992013010507304+12633+101350FM-15+0005VTBU V0202101N004110900019N0070001N1+03101+01801999999ADDGA1021+007501999GA2071+090001999GF107991999999999999999999MA1100811999999REMMET064METAR VTBU 050730Z 21008KT 7000 FEW025 BKN300 31/18 Q1008 A2977;
0149484780999992013010507304+12633+101350FM-15+0005VTBU V0202101N004110900019N0070001N1+03101+01801999999ADDGA1021+007501999GA2071+090001999GF107991999999999999999999MA1100811999999REMMET064METAR VTBU 050730Z 21008KT 7000 FEW025 BKN300 31/18 Q1008 A2977;
0149484780999992013010507304+12633+101350FM-15+0005VTBU V0202101N004110900019N0070001N1+03101+01801999999ADDGA1021+007501999GA2071+090001999GF107991999999999999999999MA1100811999999REMMET064METAR VTBU 050730Z 21008KT 7000 FEW025 BKN300 31/18 Q1008 A2977;
0149484780999992013010507304+12633+101350FM-15+0005VTBU V0202101N004110900019N0070001N1+03101+01801999999ADDGA1021+007501999GA2071+090001999GF107991999999999999999999MA1100811999999REMMET064METAR VTBU 050730Z 21008KT 7000 FEW025 BKN300 31/18 Q1008 A2977;
0149484780999992013010507304+12633+101350FM-15+0005VTBU V0202101N004110900019N0070001N1+03101+01801999999ADDGA1021+007501999GA2071+090001999GF107991999999999999999999MA1100811999999REMMET064METAR VTBU 050730Z 21008KT 7000 FEW025 BKN300 31/18 Q1008 A2977;
0149484780999992013010507304+12633+101350FM-15+0005VTBU V0202101N004110900019N0070001N1+03101+01801999999ADDGA1021+007501999GA2071+090001999GF107991999999999999999999MA1100811999999REMMET064METAR VTBU 050730Z 21008KT 7000 FEW025 BKN300 31/18 Q1008 A2977;
0149484780999992013010507304+12633+101350FM-15+0005VTBU V0202101N004110900019N0070001N1+03101+01801999999ADDGA1021+007501999GA2071+090001999GF107991999999999999999999MA1100811999999REMMET064METAR VTBU 050730Z 21008KT 7000 FEW025 BKN300 31/18 Q1008 A2977;
0149484780999992013010507304+12633+101350FM-15+0005VTBU V0202101N004110900019N0070001N1+03101+01801999999ADDGA1021+007501999GA2071+090001999GF107991999999999999999999MA1100811999999REMMET064METAR VTBU 050730Z 21008KT 7000 FEW025 BKN300 31/18 Q1008 A2977;
0149484780999992013010507304+12633+101350FM-15+0005VTBU V0202101N004110900019N0070001N1+03101+01801999999ADDGA1021+007501999GA2071+090001999GF107991999999999999999999MA1100811999999REMMET064METAR VTBU 050730Z 21008KT 7000 FEW025 BKN300 31/18 Q1008 A2977;
0149484780999992013010507304+12633+101350FM-15+0005VTBU V0202101N004110900019N0070001N1+03101+01801999999ADDGA1021+007501999GA2071+090001999GF107991999999999999999999MA1100811999999REMMET064METAR VTBU 050730Z 21008KT 7000 FEW025 BKN300 31/18 Q1008 A2977;
0149484780999992013010507304+12633+101350FM-15+0005VTBU V0202101N004110900019N0070001N1+03101+01801999999ADDGA1021+007501999GA2071+090001999GF107991999999999999999999MA1100811999999REMMET064METAR VTBU 050730Z 21008KT 7000 FEW025 BKN300 31/18 Q1008 A2977;
0149484780999992013010507304+12633+101350FM-15+0005VTBU V0202101N004110900019N0070001N1+03101+01801999999ADDGA1021+007501999GA2071+090001999GF107991999999999999999999MA1100811999999REMMET064METAR VTBU 050730Z 21008KT 7000 FEW025 BKN300 31/18 Q1008 A2977;
0149484780999992013010507304+12633+101350FM-15+0005VTBU V0202101N004110900019N0070001N1+03101+01801999999ADDGA1021+007501999GA2071+090001999GF107991999999999999999999MA1100811999999REMMET064METAR VTBU 050730Z 21008KT 7000 FEW025 BKN300 31/18 Q1008 A2977;
0149484780999992013010507304+12633+101350FM-15+0005VTBU V0202101N004110900019N0070001N1+03101+01801999999ADDGA1021+007501999GA2071+090001999GF107991999999999999999999MA1100811999999REMMET064METAR VTBU 050730Z 21008KT 7000 FEW025 BKN300 31/18 Q1008 A2977;
0149484780999992013010507304+12633+101350FM-15+0005VTBU V0202101N004110900019N0070001N1+03101+01801999999ADDGA1021+007501999GA2071+090001999GF107991999999999999999999MA1100811999999REMMET064METAR VTBU 050730Z 21008KT 7000 FEW025 BKN300 31/18 Q1008 A2977;
0149484780999992013010507304+12633+101350FM-15+0005VTBU V0202101N004110900019N0070001N1+03101+01801999999ADDGA1021+007501999GA2071+090001999GF107991999999999999999999MA1100811999999REMMET064METAR VTBU 050730Z 21008KT 7000 FEW025 BKN300 31/18 Q1008 A2977;
0149484780999992013010507304+12633+101350FM-15+0005VTBU V0202101N004110900019N0070001N1+03101+01801999999ADDGA1021+007501999GA2071+090001999GF107991999999999999999999MA1100811999999REMMET064METAR VTBU 050730Z 21008KT 7000 FEW025 BKN300 31/18 Q1008 A2977;
0149484780999992013010507304+12633+101350FM-15+0005VTBU V0202101N004110900019N0070001N1+03101+01801999999ADDGA1021+007501999GA2071+090001999GF107991999999999999999999MA1100811999999REMMET064METAR VTBU 050730Z 21008KT 7000 FEW025 BKN300 31/18 Q1008 A2977;
0149484780999992013010507304+12633+101350FM-15+0005VTBU V0202101N004110900019N0070001N1+03101+01801999999ADDGA1021+007501999GA2071+090001999GF107991999999999999999999MA1100811999999REMMET064METAR VTBU 050730Z 21008KT 7000 FEW025 BKN300 31/18 Q1008 A2977;
0149484780999992013010507304+12633+101350FM-15+0005VTBU V0202101N004110900019N0070001N1+03101+01801999999ADDGA1021+007501999GA2071+090001999GF107991999999999999999999MA1100811999999REMMET064METAR VTBU 050730Z 21008KT 7000 FEW025 BKN300 31/18 Q1008 A2977;
0149484780999992013010507304+12633+101350FM-15+0005VTBU V0202101N004110900019N0070001N1+03101+01801999999ADDGA1021+007501999GA2071+090001999GF107991999999999999999999MA1100811999999REMMET064METAR VTBU 050730Z 21008KT 7000 FEW025 BKN300 31/18 Q1008 A2977;
0149484780999992013010507304+12633+101350FM-15+0005VTBU V0202101N004110900019N0070001N1+03101+01801999999ADDGA1021+007501999GA2071+090001999GF107991999999999999999999MA1100811999999REMMET064METAR VTBU 050730Z 21008KT 7000 FEW025 BKN300 31/18 Q1008 A2977;
0149484780999992013010507304+12633+101350FM-15+0005VTBU V0202101N004110900019N0070001N1+03101+01801999999ADDGA1021+007501999GA2071+090001999GF107991999999999999999999MA1100811999999REMMET064METAR VTBU 050730Z 21008KT 7000 FEW025 BKN300 31/18 Q1008 A2977;
0149484780999992013010507304+12633+101350FM-15+0005VTBU V0202101N004110900019N0070001N1+03101+01801999999ADDGA1021+007501999GA2071+090001999GF107991999999999999999999MA1100811999999REMMET064METAR VTBU 050730Z 21008KT 7000 FEW025 BKN300 31/18 Q1008 A2977;
0149484780999992013010507304+12633+101350FM-15+0005VTBU V0202101N004110900019N0070001N1+03101+01801999999ADDGA1021+007501999GA2071+090001999GF107991999999999999999999MA1100811999999REMMET064METAR VTBU 050730Z 21008KT 7000 FEW025 BKN300 31/18 Q1008 A2977;
0149484780999992013010507304+12633+101350FM-15+0005VTBU V0202101N004110900019N0070001N1+03101+01801999999ADDGA1021+007501999GA2071+090001999GF107991999999999999999999MA1100811999999REMMET064METAR VTBU 050730Z 21008KT 7000 FEW025 BKN300 31/18 Q1008 A2977;
0149484780999992013010507304+12633+101350FM-15+0005VTBU V0202101N004110900019N0070001N1+03101+01801999999ADDGA1021+007501999GA2071+090001999GF107991999999999999999999MA1100811999999REMMET064METAR VTBU 050730Z 21008KT 7000 FEW025 BKN300 31/18 Q1008 A2977;
0149484780999992013010507304+12633+101350FM-15+0005VTBU V0202101N004110900019N0070001N1+03101+01801999999ADDGA1021+007501999GA2071+090001999GF107991999999999999999999MA1100811999999REMMET064METAR VTBU 050730Z 21008KT 7000 FEW025 BKN300 31/18 Q1008 A2977;
0149484780999992013010507304+12633+101350FM-15+0005VTBU V0202101N004110900019N0070001N1+03101+01801999999ADDGA1021+007501999GA2071+090001999GF107991999999999999999999MA1100811999999REMMET064METAR VTBU 050730Z 21008KT 7000 FEW025 BKN300 31/18 Q1008 A2977;
0149484780999992013010507304+12633+101350FM-15+0005VTBU V0202101N004110900019N0070001N1+03101+01801999999ADDGA1021+007501999GA2071+090001999GF107991999999999999999999MA1100811999999REMMET064METAR VTBU 050730Z 21008KT 7000 FEW025 BKN300 31/18 Q1008 A2977;
0149484780999992013010507304+12633+101350FM-15+0005VTBU V0202101N004110900019N0070001N1+03101+01801999999ADDGA1021+007501999GA2071+090001999GF107991999999999999999999MA1100811999999REMMET064METAR VTBU 050730Z 21008KT 7000 FEW025 BKN300 31/18 Q1008 A2977;
0149484780999992013010507304+12633+101350FM-15+0005VTBU V0202101N004110900019N0070001N1+03101+01801999999ADDGA1021+007501999GA2071+090001999GF107991999999999999999999MA1100811999999REMMET064METAR VTBU 050730Z 21008KT 7000 FEW025 BKN300 31/18 Q1008 A2977;
0149484780999992013010507304+12633+101350FM-15+0005VTBU V0202101N004110900019N0070001N1+03101+01801999999ADDGA1021+007501999GA2071+090001999GF107991999999999999999999MA1100811999999REMMET064METAR VTBU 050730Z 21008KT 7000 FEW025 BKN300 31/18 Q1008 A2977;
0149484780999992013010507304+12633+101350FM-15+0005VTBU V0202101N004110900019N0070001N1+03101+01801999999ADDGA1021+007501999GA2071+090001999GF107991999999999999999999MA1100811999999REMMET064METAR VTBU 050730Z 21008KT 7000 FEW025 BKN300 31/18 Q1008 A2977;
0149484780999992013010507304+12633+101350FM-15+0005VTBU V0202101N004110900019N0070001N1+03101+01801999999ADDGA1021+007501999GA2071+090001999GF107991999999999999999999MA1100811999999REMMET064METAR VTBU 050730Z 21008KT 7000 FEW025 BKN300 31/18 Q1008 A2977;
0149484780999992013010507304+12633+101350FM-15+0005VTBU V0202101N004110900019N0070001N1+03101+01801999999ADDGA1021+007501999GA2071+090001999GF107991999999999999999999MA1100811999999REMMET064METAR VTBU 050730Z 21008KT 7000 FEW025 BKN300 31/18 Q1008 A2977;
0149484780999992013010507304+12633+101350FM-15+0005VTBU V0202101N004110900019N0070001N1+03101+01801999999ADDGA1021+007501999GA2071+090001999GF107991999999999999999999MA1100811999999REMMET064METAR VTBU 050730Z 21008KT 7000 FEW025 BKN300 31/18 Q1008 A2977;
0149484780999992013010507304+12633+101350FM-15+0005VTBU V0202101N004110900019N0070001N1+03101+01801999999ADDGA1021+007501999GA2071+090001999GF107991999999999999999999MA1100811999999REMMET064METAR VTBU 050730Z 21008KT 7000 FEW025 BKN300 31/18 Q1008 A2977;
0149484780999992013010507304+12633+101350FM-15+0005VTBU V0202101N004110900019N0070001N1+03101+01801999999ADDGA1021+007501999GA2071+090001999GF107991999999999999999999MA1100811999999REMMET064METAR VTBU 050730Z 21008KT 7000 FEW025 BKN300 31/18 Q1008 A2977;
0149484780999992013010507304+12633+101350FM-15+0005VTBU V0202101N004110900019N0070001N1+03101+01801999999ADDGA1021+007501999GA2071+090001999GF107991999999999999999999MA1100811999999REMMET064METAR VTBU 050730Z 21008KT 7000 FEW025 BKN300 31/18 Q1008 A2977;
0149484780999992013010507304+12633+101350FM-15+0005VTBU V0202101N004110900019N0070001N1+03101+01801999999ADDGA1021+007501999GA2071+090001999GF107991999999999999999999MA1100811999999REMMET064METAR VTBU 050730Z 21008KT 7000 FEW025 BKN300 31/18 Q1008 A2977;
0149484780999992013010507304+12633+101350FM-15+0005VTBU V0202101N004110900019N0070001N1+03101+01801999999ADDGA1021+007501999GA2071+090001999GF107991999999999999999999MA1100811999999REMMET064METAR VTBU 050730Z 21008KT 7000 FEW025 BKN300 31/18 Q1008 A2977;
0149484780999992013010507304+12633+101350FM-15+0005VTBU V0202101N004110900019N0070001N1+03101+01801999999ADDGA1021+007501999GA2071+090001999GF107991999999999999999999MA1100811999999REMMET064METAR VTBU 050730Z 21008KT 7000 FEW025 BKN300 31/18 Q1008 A2977;
0149484780999992013010507304+12633+101350FM-15+0005VTBU V0202101N004110900019N0070001N1+03101+01801999999ADDGA1021+007501999GA2071+090001999GF107991999999999999999999MA1100811999999REMMET064METAR VTBU 050730Z 21008KT 7000 FEW025 BKN300 31/18 Q1008 A2977;
0149484780999992013010507304+12633+101350FM-15+0005VTBU V0202101N004110900019N0070001N1+03101+01801999999ADDGA1021+007501999GA2071+090001999GF107991999999999999999999MA1100811999999REMMET064METAR VTBU 050730Z 21008KT 7000 FEW025 BKN300 31/18 Q1008 A2977;
0149484780999992013010507304+12633+101350FM-15+0005VTBU V0202101N004110900019N0070001N1+03101+01801999999ADDGA1021+007501999GA2071+090001999GF107991999999999999999999MA1100811999999REMMET064METAR VTBU 050730Z 21008KT 7000 FEW025 BKN300 31/18 Q1008 A2977;
0149484780999992013010507304+12633+101350FM-15+0005VTBU V0202101N004110900019N0070001N1+03101+01801999999ADDGA1021+007501999GA2071+090001999GF107991999999999999999999MA1100811999999REMMET064METAR VTBU 050730Z 21008KT 7000 FEW025 BKN300 31/18 Q1008 A2977;
0149484780999992013010507304+12633+101350FM-15+0005VTBU V0202101N004110900019N0070001N1+03101+01801999999ADDGA1021+007501999GA2071+090001999GF107991999999999999999999MA1100811999999REMMET064METAR VTBU 050730Z 21008KT 7000 FEW025 BKN300 31/18 Q1008 A2977;
0149484780999992013010507304+12633+101350FM-15+0005VTBU V0202101N004110900019N0070001N1+03101+01801999999ADDGA1021+007501999GA2071+090001999GF107991999999999999999999MA1100811999999REMMET064METAR VTBU 050730Z 21008KT 7000 FEW025 BKN300 31/18 Q1008 A2977;
0149484780999992013010507304+12633+101350FM-15+0005VTBU V0202101N004110900019N0070001N1+03101+01801999999ADDGA1021+007501999GA2071+090001999GF107991999999999999999999MA1100811999999REMMET064METAR VTBU 050730Z 21008KT 7000 FEW025 BKN300 31/18 Q1008 A2977;
0149484780999992013010507304+12633+101350FM-15+0005VTBU V0202101N004110900019N0070001N1+03101+01801999999ADDGA1021+007501999GA2071+090001999GF107991999999999999999999MA1100811999999REMMET064METAR VTBU 050730Z 21008KT 7000 FEW025 BKN300 31/18 Q1008 A2977;
0149484780999992013010507304+12633+101350FM-15+0005VTBU V0202101N004110900019N0070001N1+03101+01801999999ADDGA1021+007501999GA2071+090001999GF107991999999999999999999MA1100811999999REMMET064METAR VTBU 050730Z 21008KT 7000 FEW025 BKN300 31/18 Q1008 A2977;
0149484780999992013010507304+12633+101350FM-15+0005VTBU V0202101N004110900019N0070001N1+03101+01801999999ADDGA1021+007501999GA2071+090001999GF107991999999999999999999MA1100811999999REMMET064METAR VTBU 050730Z 21008KT 7000 FEW025 BKN300 31/18 Q1008 A2977;
0149484780999992013010507304+12633+101350FM-15+0005VTBU V0202101N004110900019N0070001N1+03101+01801999999ADDGA1021+007501999GA2071+090001999GF107991999999999999999999MA1100811999999REMMET064METAR VTBU 050730Z 21008KT 7000 FEW025 BKN300 31/18 Q1008 A2977;
0149484780999992013010507304+12633+101350FM-15+0005VTBU V0202101N004110900019N0070001N1+03101+01801999999ADDGA1021+007501999GA2071+090001999GF107991999999999999999999MA1100811999999REMMET064METAR VTBU 050730Z 21008KT 7000 FEW025 BKN300 31/18 Q1008 A2977;
0149484780999992013010507304+12633+101350FM-15+0005VTBU V0202101N004110900019N0070001N1+03101+01801999999ADDGA1021+007501999GA2071+090001999GF107991999999999999999999MA1100811999999REMMET064METAR VTBU 050730Z 21008KT 7000 FEW025 BKN300 31/18 Q1008 A2977;
0149484780999992013010507304+12633+101350FM-15+0005VTBU V0202101N004110900019N0070001N1+03101+01801999999ADDGA1021+007501999GA2071+090001999GF107991999999999999999999MA1100811999999REMMET064METAR VTBU 050730Z 21008KT 7000 FEW025 BKN300 31/18 Q1008 A2977;
0149484780999992013010507304+12633+101350FM-15+0005VTBU V0202101N004110900019N0070001N1+03101+01801999999ADDGA1021+007501999GA2071+090001999GF107991999999999999999999MA1100811999999REMMET064METAR VTBU 050730Z 21008KT 7000 FEW025 BKN300 31/18 Q1008 A2977;
0149484780999992013010507304+12633+101350FM-15+0005VTBU V0202101N004110900019N0070001N1+03101+01801999999ADDGA1021+007501999GA2071+090001999GF107991999999999999999999MA1100811999999REMMET064METAR VTBU 050730Z 21008KT 7000 FEW025 BKN300 31/18 Q1008 A2977;
0149484780999992013010507304+12633+101350FM-15+0005VTBU V0202101N004110900019N0070001N1+03101+01801999999ADDGA1021+007501999GA2071+090001999GF107991999999999999999999MA1100811999999REMMET064METAR VTBU 050730Z 21008KT 7000 FEW025 BKN300 31/18 Q1008 A2977;
0149484780999992013010507304+12633+101350FM-15+0005VTBU V0202101N004110900019N0070001N1+03101+01801999999ADDGA1021+007501999GA2071+090001999GF107991999999999999999999MA1100811999999REMMET064METAR VTBU 050730Z 21008KT 7000 FEW025 BKN300 31/18 Q1008 A2977;
0149484780999992013010507304+12633+101350FM-15+0005VTBU V0202101N004110900019N0070001N1+03101+01801999999ADDGA1021+007501999GA2071+090001999GF107991999999999999999999MA1100811999999REMMET064METAR VTBU 050730Z 21008KT 7000 FEW025 BKN300 31/18 Q1008 A2977;
0149484780999992013010507304+12633+101350FM-15+0005VTBU V0202101N004110900019N0070001N1+03101+01801999999ADDGA1021+007501999GA2071+090001999GF107991999999999999999999MA1100811999999REMMET064METAR VTBU 050730Z 21008KT 7000 FEW025 BKN300 31/18 Q1008 A2977;
0149484780999992013010507304+12633+101350FM-15+0005VTBU V0202101N004110900019N0070001N1+03101+01801999999ADDGA1021+007501999GA2071+090001999GF107991999999999999999999MA1100811999999REMMET064METAR VTBU 050730Z 21008KT 7000 FEW025 BKN300 31/18 Q1008 A2977;
0149484780999992013010507304+12633+101350FM-15+0005VTBU V0202101N004110900019N0070001N1+03101+01801999999ADDGA1021+007501999GA2071+090001999GF107991999999999999999999MA1100811999999REMMET064METAR VTBU 050730Z 21008KT 7000 FEW025 BKN300 31/18 Q1008 A2977;
0149484780999992013010507304+12633+101350FM-15+0005VTBU V0202101N004110900019N0070001N1+03101+01801999999ADDGA1021+007501999GA2071+090001999GF107991999999999999999999MA1100811999999REMMET064METAR VTBU 050730Z 21008KT 7000 FEW025 BKN300 31/18 Q1008 A2977;
0149484780999992013010507304+12633+101350FM-15+0005VTBU V0202101N004110900019N0070001N1+03101+01801999999ADDGA1021+007501999GA2071+090001999GF107991999999999999999999MA1100811999999REMMET064METAR VTBU 050730Z 21008KT 7000 FEW025 BKN300 31/18 Q1008 A2977;
0149484780999992013010507304+12633+101350FM-15+0005VTBU V0202101N004110900019N0070001N1+03101+01801999999ADDGA1021+007501999GA2071+090001999GF107991999999999999999999MA1100811999999REMMET064METAR VTBU 050730Z 21008KT 7000 FEW025 BKN300 31/18 Q1008 A2977;
0149484780999992013010507304+12633+101350FM-15+0005VTBU V0202101N004110900019N0070001N1+03101+01801999999ADDGA1021+007501999GA2071+090001999GF107991999999999999999999MA1100811999999REMMET064METAR VTBU 050730Z 21008KT 7000 FEW025 BKN300 31/18 Q1008 A2977;
0149484780999992013010507304+12633+101350FM-15+0005VTBU V0202101N004110900019N0070001N1+03101+01801999999ADDGA1021+007501999GA2071+090001999GF107991999999999999999999MA1100811999999REMMET064METAR VTBU 050730Z 21008KT 7000 FEW025 BKN300 31/18 Q1008 A2977;
0149484780999992013010507304+12633+101350FM-15+0005VTBU V0202101N004110900019N0070001N1+03101+01801999999ADDGA1021+007501999GA2071+090001999GF107991999999999999999999MA1100811999999REMMET064METAR VTBU 050730Z 21008KT 7000 FEW025 BKN300 31/18 Q1008 A2977;
0149484780999992013010507304+12633+101350FM-15+0005VTBU V0202101N004110900019N0070001N1+03101+01801999999ADDGA1021+007501999GA2071+090001999GF107991999999999999999999MA1100811999999REMMET064METAR VTBU 050730Z 21008KT 7000 FEW025 BKN300 31/18 Q1008 A2977;
0149484780999992013010507304+12633+101350FM-15+0005VTBU V0202101N004110900019N0070001N1+03101+01801999999ADDGA1021+007501999GA2071+090001999GF107991999999999999999999MA1100811999999REMMET064METAR VTBU 050730Z 21008KT 7000 FEW025 BKN300 31/18 Q1008 A2977;
0149484780999992013010507304+12633+101350FM-15+0005VTBU V0202101N004110900019N0070001N1+03101+01801999999ADDGA1021+007501999GA2071+090001999GF107991999999999999999999MA1100811999999REMMET064METAR VTBU 050730Z 21008KT 7000 FEW025 BKN300 31/18 Q1008 A2977;
0149484780999992013010507304+12633+101350FM-15+0005VTBU V0202101N004110900019N0070001N1+03101+01801999999ADDGA1021+007501999GA2071+090001999GF107991999999999999999999MA1100811999999REMMET064METAR VTBU 050730Z 21008KT 7000 FEW025 BKN300 31/18 Q1008 A2977;
0149484780999992013010507304+12633+101350FM-15+0005VTBU V0202101N004110900019N0070001N1+03101+01801999999ADDGA1021+007501999GA2071+090001999GF107991999999999999999999MA1100811999999REMMET064METAR VTBU 050730Z 21008KT 7000 FEW025 BKN300 31/18 Q1008 A2977;
0149484780999992013010507304+12633+101350FM-15+0005VTBU V0202101N004110900019N0070001N1+03101+01801999999ADDGA1021+007501999GA2071+090001999GF107991999999999999999999MA1100811999999REMMET064METAR VTBU 050730Z 21008KT 7000 FEW025 BKN300 31/18 Q1008 A2977;
0149484780999992013010507304+12633+101350FM-15+0005VTBU V0202101N004110900019N0070001N1+03101+01801999999ADDGA1021+007501999GA2071+090001999GF107991999999999999999999MA1100811999999REMMET064METAR VTBU 050730Z 21008KT 7000 FEW025 BKN300 31/18 Q1008 A2977;
0149484780999992013010507304+12633+101350FM-15+0005VTBU V0202101N004110900019N0070001N1+03101+01801999999ADDGA1021+007501999GA2071+090001999GF107991999999999999999999MA1100811999999REMMET064METAR VTBU 050730Z 21008KT 7000 FEW025 BKN300 31/18 Q1008 A2977;
0149484780999992013010507304+12633+101350FM-15+0005VTBU V0202101N004110900019N0070001N1+03101+01801999999ADDGA1021+007501999GA2071+090001999GF107991999999999999999999MA1100811999999REMMET064METAR VTBU 050730Z 21008KT 7000 FEW025 BKN300 31/18 Q1008 A2977;
0149484780999992013010507304+12633+101350FM-15+0005VTBU V0202101N004110900019N0070001N1+03101+01801999999ADDGA1021+007501999GA2071+090001999GF107991999999999999999999MA1100811999999REMMET064METAR VTBU 050730Z 21008KT 7000 FEW025 BKN300 31/18 Q1008 A2977;
0149484780999992013010507304+12633+101350FM-15+0005VTBU V0202101N004110900019N0070001N1+03101+01801999999ADDGA1021+007501999GA2071+090001999GF107991999999999999999999MA1100811999999REMMET064METAR VTBU 050730Z 21008KT 7000 FEW025 BKN300 31/18 Q1008 A2977;
0149484780999992013010507304+12633+101350FM-15+0005VTBU V0202101N004110900019N0070001N1+03101+01801999999ADDGA1021+007501999GA2071+090001999GF107991999999999999999999MA1100811999999REMMET064METAR VTBU 050730Z 21008KT 7000 FEW025 BKN300 31/18 Q1008 A2977;
0149484780999992013010507304+12633+101350FM-15+0005VTBU V0202101N004110900019N0070001N1+03101+01801999999ADDGA1021+007501999GA2071+090001999GF107991999999999999999999MA1100811999999REMMET064METAR VTBU 050730Z 21008KT 7000 FEW025 BKN300 31/18 Q1008 A2977;
0149484780999992013010507304+12633+101350FM-15+0005VTBU V0202101N004110900019N0070001N1+03101+01801999999ADDGA1021+007501999GA2071+090001999GF107991999999999999999999MA1100811999999REMMET064METAR VTBU 050730Z 21008KT 7000 FEW025 BKN300 31/18 Q1008 A2977;
0149484780999992013010507304+12633+101350FM-15+0005VTBU V0202101N004110900019N0070001N1+03101+01801999999ADDGA1021+007501999GA2071+090001999GF107991999999999999999999MA1100811999999REMMET064METAR VTBU 050730Z 21008KT 7000 FEW025 BKN300 31/18 Q1008 A2977;
0149484780999992013010507304+12633+101350FM-15+0005VTBU V0202101N004110900019N0070001N1+03101+01801999999ADDGA1021+007501999GA2071+090001999GF107991999999999999999999MA1100811999999REMMET064METAR VTBU 050730Z 21008KT 7000 FEW025 BKN300 31/18 Q1008 A2977;
0149484780999992013010507304+12633+101350FM-15+0005VTBU V0202101N004110900019N0070001N1+03101+01801999999ADDGA1021+007501999GA2071+090001999GF107991999999999999999999MA1100811999999REMMET064METAR VTBU 050730Z 21008KT 7000 FEW025 BKN300 31/18 Q1008 A2977;
0149484780999992013010507304+12633+101350FM-15+0005VTBU V0202101N004110900019N0070001N1+03101+01801999999ADDGA1021+007501999GA2071+090001999GF107991999999999999999999MA1100811999999REMMET064METAR VTBU 050730Z 21008KT 7000 FEW025 BKN300 31/18 Q1008 A2977;
0149484780999992013010507304+12633+101350FM-15+0005VTBU V0202101N004110900019N0070001N1+03101+01801999999ADDGA1021+007501999GA2071+090001999GF107991999999999999999999MA1100811999999REMMET064METAR VTBU 050730Z 21008KT 7000 FEW025 BKN300 31/18 Q1008 A2977;
0149484780999992013010507304+12633+101350FM-15+0005VTBU V0202101N004110900019N0070001N1+03101+01801999999ADDGA1021+007501999GA2071+090001999GF107991999999999999999999MA1100811999999REMMET064METAR VTBU 050730Z 21008KT 7000 FEW025 BKN300 31/18 Q1008 A2977;
0149484780999992013010507304+12633+101350FM-15+0005VTBU V0202101N004110900019N0070001N1+03101+01801999999ADDGA1021+007501999GA2071+090001999GF107991999999999999999999MA1100811999999REMMET064METAR VTBU 050730Z 21008KT 7000 FEW025 BKN300 31/18 Q1008 A2977;
0149484780999992013010507304+12633+101350FM-15+0005VTBU V0202101N004110900019N0070001N1+03101+01801999999ADDGA1021+007501999GA2071+090001999GF107991999999999999999999MA1100811999999REMMET064METAR VTBU 050730Z 21008KT 7000 FEW025 BKN300 31/18 Q1008 A2977;
0149484780999992013010507304+12633+101350FM-15+0005VTBU V0202101N004110900019N0070001N1+03101+01801999999ADDGA1021+007501999GA2071+090001999GF107991999999999999999999MA1100811999999REMMET064METAR VTBU 050730Z 21008KT 7000 FEW025 BKN300 31/18 Q1008 A2977;
0149484780999992013010507304+12633+101350FM-15+0005VTBU V0202101N004110900019N0070001N1+03101+01801999999ADDGA1021+007501999GA2071+090001999GF107991999999999999999999MA1100811999999REMMET064METAR VTBU 050730Z 21008KT 7000 FEW025 BKN300 31/18 Q1008 A2977;
0149484780999992013010507304+12633+101350FM-15+0005VTBU V0202101N004110900019N0070001N1+03101+01801999999ADDGA1021+007501999GA2071+090001999GF107991999999999999999999MA1100811999999REMMET064METAR VTBU 050730Z 21008KT 7000 FEW025 BKN300 31/18 Q1008 A2977;
0149484780999992013010507304+12633+101350FM-15+0005VTBU V0202101N004110900019N0070001N1+03101+01801999999ADDGA1021+007501999GA2071+090001999GF107991999999999999999999MA1100811999999REMMET064METAR VTBU 050730Z 21008KT 7000 FEW025 BKN300 31/18 Q1008 A2977;
0149484780999992013010507304+12633+101350FM-15+0005VTBU V0202101N004110900019N0070001N1+03101+01801999999ADDGA1021+007501999GA2071+090001999GF107991999999999999999999MA1100811999999REMMET064METAR VTBU 050730Z 21008KT 7000 FEW025 BKN300 31/18 Q1008 A2977;
0149484780999992013010507304+12633+101350FM-15+0005VTBU V0202101N004110900019N0070001N1+03101+01801999999ADDGA1021+007501999GA2071+090001999GF107991999999999999999999MA1100811999999REMMET064METAR VTBU 050730Z 21008KT 7000 FEW025 BKN300 31/18 Q1008 A2977;
0149484780999992013010507304+12633+101350FM-15+0005VTBU V0202101N004110900019N0070001N1+03101+01801999999ADDGA1021+007501999GA2071+090001999GF107991999999999999999999MA1100811999999REMMET064METAR VTBU 050730Z 21008KT 7000 FEW025 BKN300 31/18 Q1008 A2977;
