013399999953138201406240405I+39012-114209CRN05+201799999V02099999999999999999N999999999+02131+99999999999ADDAO105000091CB105+0000010CG1+0464110CG2+0483210CG3+0467910CH105+021810011610CO199-08CT1+021310CT2+021410CT3+021310CW111560102885010
013399999953138201406240405I+39012-114209CRN05+201799999V02099999999999999999N999999999+02131+99999999999ADDAO105000091CB105+0000010CG1+0464110CG2+0483210CG3+0467910CH105+021810011610CO199-08CT1+021310CT2+021410CT3+021310CW111560102885010
013399999953138201406240405I+39012-114209CRN05+201799999V02099999999999999999N999999999+02131+99999999999ADDAO105000091CB105+0000010CG1+0464110CG2+0483210CG3+0467910CH105+021810011610CO199-08CT1+021310CT2+021410CT3+021310CW111560102885010
013399999953138201406240405I+39012-114209CRN05+201799999V02099999999999999999N999999999+02131+99999999999ADDAO105000091CB105+0000010CG1+0464110CG2+0483210CG3+0467910CH105+021810011610CO199-08CT1+021310CT2+021410CT3+021310CW111560102885010
013399999953138201406240405I+39012-114209CRN05+201799999V02099999999999999999N999999999+02131+99999999999ADDAO105000091CB105+0000010CG1+0464110CG2+0483210CG3+0467910CH105+021810011610CO199-08CT1+021310CT2+021410CT3+021310CW111560102885010
013399999953138201406240405I+39012-114209CRN05+201799999V02099999999999999999N999999999+02131+99999999999ADDAO105000091CB105+0000010CG1+0464110CG2+0483210CG3+0467910CH105+021810011610CO199-08CT1+021310CT2+021410CT3+021310CW111560102885010
013399999953138201406240405I+39012-114209CRN05+201799999V02099999999999999999N999999999+02131+99999999999ADDAO105000091CB105+0000010CG1+0464110CG2+0483210CG3+0467910CH105+021810011610CO199-08CT1+021310CT2+021410CT3+021310CW111560102885010
013399999953138201406240405I+39012-114209CRN05+201799999V02099999999999999999N999999999+02131+99999999999ADDAO105000091CB105+0000010CG1+0464110CG2+0483210CG3+0467910CH105+021810011610CO199-08CT1+021310CT2+021410CT3+021310CW111560102885010
013399999953138201406240405I+39012-114209CRN05+201799999V02099999999999999999N999999999+02131+99999999999ADDAO105000091CB105+0000010CG1+0464110CG2+0483210CG3+0467910CH105+021810011610CO199-08CT1+021310CT2+021410CT3+021310CW111560102885010
013399999953138201406240405I+39012-114209CRN05+201799999V02099999999999999999N999999999+02131+99999999999ADDAO105000091CB105+0000010CG1+0464110CG2+0483210CG3+0467910CH105+021810011610CO199-08CT1+021310CT2+021410CT3+021310CW111560102885010
013399999953138201406240405I+39012-114209CRN05+201799999V02099999999999999999N999999999+02131+99999999999ADDAO105000091CB105+0000010CG1+0464110CG2+0483210CG3+0467910CH105+021810011610CO199-08CT1+021310CT2+021410CT3+021310CW111560102885010
013399999953138201406240405I+39012-114209CRN05+201799999V02099999999999999999N999999999+02131+99999999999ADDAO105000091CB105+0000010CG1+0464110CG2+0483210CG3+0467910CH105+021810011610CO199-08CT1+021310CT2+021410CT3+021310CW111560102885010
013399999953138201406240405I+39012-114209CRN05+201799999V02099999999999999999N999999999+02131+99999999999ADDAO105000091CB105+0000010CG1+0464110CG2+0483210CG3+0467910CH105+021810011610CO199-08CT1+021310CT2+021410CT3+021310CW111560102885010
013399999953138201406240405I+39012-114209CRN05+201799999V02099999999999999999N999999999+02131+99999999999ADDAO105000091CB105+0000010CG1+0464110CG2+0483210CG3+0467910CH105+021810011610CO199-08CT1+021310CT2+021410CT3+021310CW111560102885010
013399999953138201406240405I+39012-114209CRN05+201799999V02099999999999999999N999999999+02131+99999999999ADDAO105000091CB105+0000010CG1+0464110CG2+0483210CG3+0467910CH105+021810011610CO199-08CT1+021310CT2+021410CT3+021310CW111560102885010
013399999953138201406240405I+39012-114209CRN05+201799999V02099999999999999999N999999999+02131+99999999999ADDAO105000091CB105+0000010CG1+0464110CG2+0483210CG3+0467910CH105+021810011610CO199-08CT1+021310CT2+021410CT3+021310CW111560102885010
013399999953138201406240405I+39012-114209CRN05+201799999V02099999999999999999N999999999+02131+99999999999ADDAO105000091CB105+0000010CG1+0464110CG2+0483210CG3+0467910CH105+021810011610CO199-08CT1+021310CT2+021410CT3+021310CW111560102885010
013399999953138201406240405I+39012-114209CRN05+201799999V02099999999999999999N999999999+02131+99999999999ADDAO105000091CB105+0000010CG1+0464110CG2+0483210CG3+0467910CH105+021810011610CO199-08CT1+021310CT2+021410CT3+021310CW111560102885010
013399999953138201406240405I+39012-114209CRN05+201799999V02099999999999999999N999999999+02131+99999999999ADDAO105000091CB105+0000010CG1+0464110CG2+0483210CG3+0467910CH105+021810011610CO199-08CT1+021310CT2+021410CT3+021310CW111560102885010
013399999953138201406240405I+39012-114209CRN05+201799999V02099999999999999999N999999999+02131+99999999999ADDAO105000091CB105+0000010CG1+0464110CG2+0483210CG3+0467910CH105+021810011610CO199-08CT1+021310CT2+021410CT3+021310CW111560102885010
013399999953138201406240405I+39012-114209CRN05+201799999V02099999999999999999N999999999+02131+99999999999ADDAO105000091CB105+0000010CG1+0464110CG2+0483210CG3+0467910CH105+021810011610CO199-08CT1+021310CT2+021410CT3+021310CW111560102885010
013399999953138201406240405I+39012-114209CRN05+201799999V02099999999999999999N999999999+02131+99999999999ADDAO105000091CB105+0000010CG1+0464110CG2+0483210CG3+0467910CH105+021810011610CO199-08CT1+021310CT2+021410CT3+021310CW111560102885010
013399999953138201406240405I+39012-114209CRN05+201799999V02099999999999999999N999999999+02131+99999999999ADDAO105000091CB105+0000010CG1+0464110CG2+0483210CG3+0467910CH105+021810011610CO199-08CT1+021310CT2+021410CT3+021310CW111560102885010
013399999953138201406240405I+39012-114209CRN05+201799999V02099999999999999999N999999999+02131+99999999999ADDAO105000091CB105+0000010CG1+0464110CG2+0483210CG3+0467910CH105+021810011610CO199-08CT1+021310CT2+021410CT3+021310CW111560102885010
013399999953138201406240405I+39012-114209CRN05+201799999V02099999999999999999N999999999+02131+99999999999ADDAO105000091CB105+0000010CG1+0464110CG2+0483210CG3+0467910CH105+021810011610CO199-08CT1+021310CT2+021410CT3+021310CW111560102885010
013399999953138201406240405I+39012-114209CRN05+201799999V02099999999999999999N999999999+02131+99999999999ADDAO105000091CB105+0000010CG1+0464110CG2+0483210CG3+0467910CH105+021810011610CO199-08CT1+021310CT2+021410CT3+021310CW111560102885010
013399999953138201406240405I+39012-114209CRN05+201799999V02099999999999999999N999999999+02131+99999999999ADDAO105000091CB105+0000010CG1+0464110CG2+0483210CG3+0467910CH105+021810011610CO199-08CT1+021310CT2+021410CT3+021310CW111560102885010
013399999953138201406240405I+39012-114209CRN05+201799999V02099999999999999999N999999999+02131+99999999999ADDAO105000091CB105+0000010CG1+0464110CG2+0483210CG3+0467910CH105+021810011610CO199-08CT1+021310CT2+021410CT3+021310CW111560102885010
013399999953138201406240405I+39012-114209CRN05+201799999V02099999999999999999N999999999+02131+99999999999ADDAO105000091CB105+0000010CG1+0464110CG2+0483210CG3+0467910CH105+021810011610CO199-08CT1+021310CT2+021410CT3+021310CW111560102885010
013399999953138201406240405I+39012-114209CRN05+201799999V02099999999999999999N999999999+02131+99999999999ADDAO105000091CB105+0000010CG1+0464110CG2+0483210CG3+0467910CH105+021810011610CO199-08CT1+021310CT2+021410CT3+021310CW111560102885010
013399999953138201406240405I+39012-114209CRN05+201799999V02099999999999999999N999999999+02131+99999999999ADDAO105000091CB105+0000010CG1+0464110CG2+0483210CG3+0467910CH105+021810011610CO199-08CT1+021310CT2+021410CT3+021310CW111560102885010
013399999953138201406240405I+39012-114209CRN05+201799999V02099999999999999999N999999999+02131+99999999999ADDAO105000091CB105+0000010CG1+0464110CG2+0483210CG3+0467910CH105+021810011610CO199-08CT1+021310CT2+021410CT3+021310CW111560102885010
013399999953138201406240405I+39012-114209CRN05+201799999V02099999999999999999N999999999+02131+99999999999ADDAO105000091CB105+0000010CG1+0464110CG2+0483210CG3+0467910CH105+021810011610CO199-08CT1+021310CT2+021410CT3+021310CW111560102885010
013399999953138201406240405I+39012-114209CRN05+201799999V02099999999999999999N999999999+02131+99999999999ADDAO105000091CB105+0000010CG1+0464110CG2+0483210CG3+0467910CH105+021810011610CO199-08CT1+021310CT2+021410CT3+021310CW111560102885010
013399999953138201406240405I+39012-114209CRN05+201799999V02099999999999999999N999999999+02131+99999999999ADDAO105000091CB105+0000010CG1+0464110CG2+0483210CG3+0467910CH105+021810011610CO199-08CT1+021310CT2+021410CT3+021310CW111560102885010
013399999953138201406240405I+39012-114209CRN05+201799999V02099999999999999999N999999999+02131+99999999999ADDAO105000091CB105+0000010CG1+0464110CG2+0483210CG3+0467910CH105+021810011610CO199-08CT1+021310CT2+021410CT3+021310CW111560102885010
013399999953138201406240405I+39012-114209CRN05+201799999V02099999999999999999N999999999+02131+99999999999ADDAO105000091CB105+0000010CG1+0464110CG2+0483210CG3+0467910CH105+021810011610CO199-08CT1+021310CT2+021410CT3+021310CW111560102885010
013399999953138201406240405I+39012-114209CRN05+201799999V02099999999999999999N999999999+02131+99999999999ADDAO105000091CB105+0000010CG1+0464110CG2+0483210CG3+0467910CH105+021810011610CO199-08CT1+021310CT2+021410CT3+021310CW111560102885010
013399999953138201406240405I+39012-114209CRN05+201799999V02099999999999999999N999999999+02131+99999999999ADDAO105000091CB105+0000010CG1+0464110CG2+0483210CG3+0467910CH105+021810011610CO199-08CT1+021310CT2+021410CT3+021310CW111560102885010
013399999953138201406240405I+39012-114209CRN05+201799999V02099999999999999999N999999999+02131+99999999999ADDAO105000091CB105+0000010CG1+0464110CG2+0483210CG3+0467910CH105+021810011610CO199-08CT1+021310CT2+021410CT3+021310CW111560102885010
013399999953138201406240405I+39012-114209CRN05+201799999V02099999999999999999N999999999+02131+99999999999ADDAO105000091CB105+0000010CG1+0464110CG2+0483210CG3+0467910CH105+021810011610CO199-08CT1+021310CT2+021410CT3+021310CW111560102885010
013399999953138201406240405I+39012-114209CRN05+201799999V02099999999999999999N999999999+02131+99999999999ADDAO105000091CB105+0000010CG1+0464110CG2+0483210CG3+0467910CH105+021810011610CO199-08CT1+021310CT2+021410CT3+021310CW111560102885010
013399999953138201406240405I+39012-114209CRN05+201799999V02099999999999999999N999999999+02131+99999999999ADDAO105000091CB105+0000010CG1+0464110CG2+0483210CG3+0467910CH105+021810011610CO199-08CT1+021310CT2+021410CT3+021310CW111560102885010
013399999953138201406240405I+39012-114209CRN05+201799999V02099999999999999999N999999999+02131+99999999999ADDAO105000091CB105+0000010CG1+0464110CG2+0483210CG3+0467910CH105+021810011610CO199-08CT1+021310CT2+021410CT3+021310CW111560102885010
013399999953138201406240405I+39012-114209CRN05+201799999V02099999999999999999N999999999+02131+99999999999ADDAO105000091CB105+0000010CG1+0464110CG2+0483210CG3+0467910CH105+021810011610CO199-08CT1+021310CT2+021410CT3+021310CW111560102885010
013399999953138201406240405I+39012-114209CRN05+201799999V02099999999999999999N999999999+02131+99999999999ADDAO105000091CB105+0000010CG1+0464110CG2+0483210CG3+0467910CH105+021810011610CO199-08CT1+021310CT2+021410CT3+021310CW111560102885010
013399999953138201406240405I+39012-114209CRN05+201799999V02099999999999999999N999999999+02131+99999999999ADDAO105000091CB105+0000010CG1+0464110CG2+0483210CG3+0467910CH105+021810011610CO199-08CT1+021310CT2+021410CT3+021310CW111560102885010
013399999953138201406240405I+39012-114209CRN05+201799999V02099999999999999999N999999999+02131+99999999999ADDAO105000091CB105+0000010CG1+0464110CG2+0483210CG3+0467910CH105+021810011610CO199-08CT1+021310CT2+021410CT3+021310CW111560102885010
013399999953138201406240405I+39012-114209CRN05+201799999V02099999999999999999N999999999+02131+99999999999ADDAO105000091CB105+0000010CG1+0464110CG2+0483210CG3+0467910CH105+021810011610CO199-08CT1+021310CT2+021410CT3+021310CW111560102885010
013399999953138201406240405I+39012-114209CRN05+201799999V02099999999999999999N999999999+02131+99999999999ADDAO105000091CB105+0000010CG1+0464110CG2+0483210CG3+0467910CH105+021810011610CO199-08CT1+021310CT2+021410CT3+021310CW111560102885010
013399999953138201406240405I+39012-114209CRN05+201799999V02099999999999999999N999999999+02131+99999999999ADDAO105000091CB105+0000010CG1+0464110CG2+0483210CG3+0467910CH105+021810011610CO199-08CT1+021310CT2+021410CT3+021310CW111560102885010
013399999953138201406240405I+39012-114209CRN05+201799999V02099999999999999999N999999999+02131+99999999999ADDAO105000091CB105+0000010CG1+0464110CG2+0483210CG3+0467910CH105+021810011610CO199-08CT1+021310CT2+021410CT3+021310CW111560102885010
013399999953138201406240405I+39012-114209CRN05+201799999V02099999999999999999N999999999+02131+99999999999ADDAO105000091CB105+0000010CG1+0464110CG2+0483210CG3+0467910CH105+021810011610CO199-08CT1+021310CT2+021410CT3+021310CW111560102885010
013399999953138201406240405I+39012-114209CRN05+201799999V02099999999999999999N999999999+02131+99999999999ADDAO105000091CB105+0000010CG1+0464110CG2+0483210CG3+0467910CH105+021810011610CO199-08CT1+021310CT2+021410CT3+021310CW111560102885010
013399999953138201406240405I+39012-114209CRN05+201799999V02099999999999999999N999999999+02131+99999999999ADDAO105000091CB105+0000010CG1+0464110CG2+0483210CG3+0467910CH105+021810011610CO199-08CT1+021310CT2+021410CT3+021310CW111560102885010
013399999953138201406240405I+39012-114209CRN05+201799999V02099999999999999999N999999999+02131+99999999999ADDAO105000091CB105+0000010CG1+0464110CG2+0483210CG3+0467910CH105+021810011610CO199-08CT1+021310CT2+021410CT3+021310CW111560102885010
013399999953138201406240405I+39012-114209CRN05+201799999V02099999999999999999N999999999+02131+99999999999ADDAO105000091CB105+0000010CG1+0464110CG2+0483210CG3+0467910CH105+021810011610CO199-08CT1+021310CT2+021410CT3+021310CW111560102885010
013399999953138201406240405I+39012-114209CRN05+201799999V02099999999999999999N999999999+02131+99999999999ADDAO105000091CB105+0000010CG1+0464110CG2+0483210CG3+0467910CH105+021810011610CO199-08CT1+021310CT2+021410CT3+021310CW111560102885010
013399999953138201406240405I+39012-114209CRN05+201799999V02099999999999999999N999999999+02131+99999999999ADDAO105000091CB105+0000010CG1+0464110CG2+0483210CG3+0467910CH105+021810011610CO199-08CT1+021310CT2+021410CT3+021310CW111560102885010
013399999953138201406240405I+39012-114209CRN05+201799999V02099999999999999999N999999999+02131+99999999999ADDAO105000091CB105+0000010CG1+0464110CG2+0483210CG3+0467910CH105+021810011610CO199-08CT1+021310CT2+021410CT3+021310CW111560102885010
013399999953138201406240405I+39012-114209CRN05+201799999V02099999999999999999N999999999+02131+99999999999ADDAO105000091CB105+0000010CG1+0464110CG2+0483210CG3+0467910CH105+021810011610CO199-08CT1+021310CT2+021410CT3+021310CW111560102885010
013399999953138201406240405I+39012-114209CRN05+201799999V02099999999999999999N999999999+02131+99999999999ADDAO105000091CB105+0000010CG1+0464110CG2+0483210CG3+0467910CH105+021810011610CO199-08CT1+021310CT2+021410CT3+021310CW111560102885010
013399999953138201406240405I+39012-114209CRN05+201799999V02099999999999999999N999999999+02131+99999999999ADDAO105000091CB105+0000010CG1+0464110CG2+0483210CG3+0467910CH105+021810011610CO199-08CT1+021310CT2+021410CT3+021310CW111560102885010
013399999953138201406240405I+39012-114209CRN05+201799999V02099999999999999999N999999999+02131+99999999999ADDAO105000091CB105+0000010CG1+0464110CG2+0483210CG3+0467910CH105+021810011610CO199-08CT1+021310CT2+021410CT3+021310CW111560102885010
013399999953138201406240405I+39012-114209CRN05+201799999V02099999999999999999N999999999+02131+99999999999ADDAO105000091CB105+0000010CG1+0464110CG2+0483210CG3+0467910CH105+021810011610CO199-08CT1+021310CT2+021410CT3+021310CW111560102885010
013399999953138201406240405I+39012-114209CRN05+201799999V02099999999999999999N999999999+02131+99999999999ADDAO105000091CB105+0000010CG1+0464110CG2+0483210CG3+0467910CH105+021810011610CO199-08CT1+021310CT2+021410CT3+021310CW111560102885010
013399999953138201406240405I+39012-114209CRN05+201799999V02099999999999999999N999999999+02131+99999999999ADDAO105000091CB105+0000010CG1+0464110CG2+0483210CG3+0467910CH105+021810011610CO199-08CT1+021310CT2+021410CT3+021310CW111560102885010
013399999953138201406240405I+39012-114209CRN05+201799999V02099999999999999999N999999999+02131+99999999999ADDAO105000091CB105+0000010CG1+0464110CG2+0483210CG3+0467910CH105+021810011610CO199-08CT1+021310CT2+021410CT3+021310CW111560102885010
013399999953138201406240405I+39012-114209CRN05+201799999V02099999999999999999N999999999+02131+99999999999ADDAO105000091CB105+0000010CG1+0464110CG2+0483210CG3+0467910CH105+021810011610CO199-08CT1+021310CT2+021410CT3+021310CW111560102885010
013399999953138201406240405I+39012-114209CRN05+201799999V02099999999999999999N999999999+02131+99999999999ADDAO105000091CB105+0000010CG1+0464110CG2+0483210CG3+0467910CH105+021810011610CO199-08CT1+021310CT2+021410CT3+021310CW111560102885010
013399999953138201406240405I+39012-114209CRN05+201799999V02099999999999999999N999999999+02131+99999999999ADDAO105000091CB105+0000010CG1+0464110CG2+0483210CG3+0467910CH105+021810011610CO199-08CT1+021310CT2+021410CT3+021310CW111560102885010
013399999953138201406240405I+39012-114209CRN05+201799999V02099999999999999999N999999999+02131+99999999999ADDAO105000091CB105+0000010CG1+0464110CG2+0483210CG3+0467910CH105+021810011610CO199-08CT1+021310CT2+021410CT3+021310CW111560102885010
013399999953138201406240405I+39012-114209CRN05+201799999V02099999999999999999N999999999+02131+99999999999ADDAO105000091CB105+0000010CG1+0464110CG2+0483210CG3+0467910CH105+021810011610CO199-08CT1+021310CT2+021410CT3+021310CW111560102885010
013399999953138201406240405I+39012-114209CRN05+201799999V02099999999999999999N999999999+02131+99999999999ADDAO105000091CB105+0000010CG1+0464110CG2+0483210CG3+0467910CH105+021810011610CO199-08CT1+021310CT2+021410CT3+021310CW111560102885010
013399999953138201406240405I+39012-114209CRN05+201799999V02099999999999999999N999999999+02131+99999999999ADDAO105000091CB105+0000010CG1+0464110CG2+0483210CG3+0467910CH105+021810011610CO199-08CT1+021310CT2+021410CT3+021310CW111560102885010
013399999953138201406240405I+39012-114209CRN05+201799999V02099999999999999999N999999999+02131+99999999999ADDAO105000091CB105+0000010CG1+0464110CG2+0483210CG3+0467910CH105+021810011610CO199-08CT1+021310CT2+021410CT3+021310CW111560102885010
013399999953138201406240405I+39012-114209CRN05+201799999V02099999999999999999N999999999+02131+99999999999ADDAO105000091CB105+0000010CG1+0464110CG2+0483210CG3+0467910CH105+021810011610CO199-08CT1+021310CT2+021410CT3+021310CW111560102885010
013399999953138201406240405I+39012-114209CRN05+201799999V02099999999999999999N999999999+02131+99999999999ADDAO105000091CB105+0000010CG1+0464110CG2+0483210CG3+0467910CH105+021810011610CO199-08CT1+021310CT2+021410CT3+021310CW111560102885010
013399999953138201406240405I+39012-114209CRN05+201799999V02099999999999999999N999999999+02131+99999999999ADDAO105000091CB105+0000010CG1+0464110CG2+0483210CG3+0467910CH105+021810011610CO199-08CT1+021310CT2+021410CT3+021310CW111560102885010
013399999953138201406240405I+39012-114209CRN05+201799999V02099999999999999999N999999999+02131+99999999999ADDAO105000091CB105+0000010CG1+0464110CG2+0483210CG3+0467910CH105+021810011610CO199-08CT1+021310CT2+021410CT3+021310CW111560102885010
013399999953138201406240405I+39012-114209CRN05+201799999V02099999999999999999N999999999+02131+99999999999ADDAO105000091CB105+0000010CG1+0464110CG2+0483210CG3+0467910CH105+021810011610CO199-08CT1+021310CT2+021410CT3+021310CW111560102885010
013399999953138201406240405I+39012-114209CRN05+201799999V02099999999999999999N999999999+02131+99999999999ADDAO105000091CB105+0000010CG1+0464110CG2+0483210CG3+0467910CH105+021810011610CO199-08CT1+021310CT2+021410CT3+021310CW111560102885010
013399999953138201406240405I+39012-114209CRN05+201799999V02099999999999999999N999999999+02131+99999999999ADDAO105000091CB105+0000010CG1+0464110CG2+0483210CG3+0467910CH105+021810011610CO199-08CT1+021310CT2+021410CT3+021310CW111560102885010
013399999953138201406240405I+39012-114209CRN05+201799999V02099999999999999999N999999999+02131+99999999999ADDAO105000091CB105+0000010CG1+0464110CG2+0483210CG3+0467910CH105+021810011610CO199-08CT1+021310CT2+021410CT3+021310CW111560102885010
013399999953138201406240405I+39012-114209CRN05+201799999V02099999999999999999N999999999+02131+99999999999ADDAO105000091CB105+0000010CG1+0464110CG2+0483210CG3+0467910CH105+021810011610CO199-08CT1+021310CT2+021410CT3+021310CW111560102885010
013399999953138201406240405I+39012-114209CRN05+201799999V02099999999999999999N999999999+02131+99999999999ADDAO105000091CB105+0000010CG1+0464110CG2+0483210CG3+0467910CH105+021810011610CO199-08CT1+021310CT2+021410CT3+021310CW111560102885010
013399999953138201406240405I+39012-114209CRN05+201799999V02099999999999999999N999999999+02131+99999999999ADDAO105000091CB105+0000010CG1+0464110CG2+0483210CG3+0467910CH105+021810011610CO199-08CT1+021310CT2+021410CT3+021310CW111560102885010
013399999953138201406240405I+39012-114209CRN05+201799999V02099999999999999999N999999999+02131+99999999999ADDAO105000091CB105+0000010CG1+0464110CG2+0483210CG3+0467910CH105+021810011610CO199-08CT1+021310CT2+021410CT3+021310CW111560102885010
013399999953138201406240405I+39012-114209CRN05+201799999V02099999999999999999N999999999+02131+99999999999ADDAO105000091CB105+0000010CG1+0464110CG2+0483210CG3+0467910CH105+021810011610CO199-08CT1+021310CT2+021410CT3+021310CW111560102885010
013399999953138201406240405I+39012-114209CRN05+201799999V02099999999999999999N999999999+02131+99999999999ADDAO105000091CB105+0000010CG1+0464110CG2+0483210CG3+0467910CH105+021810011610CO199-08CT1+021310CT2+021410CT3+021310CW111560102885010
013399999953138201406240405I+39012-114209CRN05+201799999V02099999999999999999N999999999+02131+99999999999ADDAO105000091CB105+0000010CG1+0464110CG2+0483210CG3+0467910CH105+021810011610CO199-08CT1+021310CT2+021410CT3+021310CW111560102885010
013399999953138201406240405I+39012-114209CRN05+201799999V02099999999999999999N999999999+02131+99999999999ADDAO105000091CB105+0000010CG1+0464110CG2+0483210CG3+0467910CH105+021810011610CO199-08CT1+021310CT2+021410CT3+021310CW111560102885010
013399999953138201406240405I+39012-114209CRN05+201799999V02099999999999999999N999999999+02131+99999999999ADDAO105000091CB105+0000010CG1+0464110CG2+0483210CG3+0467910CH105+021810011610CO199-08CT1+021310CT2+021410CT3+021310CW111560102885010
013399999953138201406240405I+39012-114209CRN05+201799999V02099999999999999999N999999999+02131+99999999999ADDAO105000091CB105+0000010CG1+0464110CG2+0483210CG3+0467910CH105+021810011610CO199-08CT1+021310CT2+021410CT3+021310CW111560102885010
013399999953138201406240405I+39012-114209CRN05+201799999V02099999999999999999N999999999+02131+99999999999ADDAO105000091CB105+0000010CG1+0464110CG2+0483210CG3+0467910CH105+021810011610CO199-08CT1+021310CT2+021410CT3+021310CW111560102885010
013399999953138201406240405I+39012-114209CRN05+201799999V02099999999999999999N999999999+02131+99999999999ADDAO105000091CB105+0000010CG1+0464110CG2+0483210CG3+0467910CH105+021810011610CO199-08CT1+021310CT2+021410CT3+021310CW111560102885010
013399999953138201406240405I+39012-114209CRN05+201799999V02099999999999999999N999999999+02131+99999999999ADDAO105000091CB105+0000010CG1+0464110CG2+0483210CG3+0467910CH105+021810011610CO199-08CT1+021310CT2+021410CT3+021310CW111560102885010
013399999953138201406240405I+39012-114209CRN05+201799999V02099999999999999999N999999999+02131+99999999999ADDAO105000091CB105+0000010CG1+0464110CG2+0483210CG3+0467910CH105+021810011610CO199-08CT1+021310CT2+021410CT3+021310CW111560102885010
013399999953138201406240405I+39012-114209CRN05+201799999V02099999999999999999N999999999+02131+99999999999ADDAO105000091CB105+0000010CG1+0464110CG2+0483210CG3+0467910CH105+021810011610CO199-08CT1+021310CT2+021410CT3+021310CW111560102885010
013399999953138201406240405I+39012-114209CRN05+201799999V02099999999999999999N999999999+02131+99999999999ADDAO105000091CB105+0000010CG1+0464110CG2+0483210CG3+0467910CH105+021810011610CO199-08CT1+021310CT2+021410CT3+021310CW111560102885010
013399999953138201406240405I+39012-114209CRN05+201799999V02099999999999999999N999999999+02131+99999999999ADDAO105000091CB105+0000010CG1+0464110CG2+0483210CG3+0467910CH105+021810011610CO199-08CT1+021310CT2+021410CT3+021310CW111560102885010
013399999953138201406240405I+39012-114209CRN05+201799999V02099999999999999999N999999999+02131+99999999999ADDAO105000091CB105+0000010CG1+0464110CG2+0483210CG3+0467910CH105+021810011610CO199-08CT1+021310CT2+021410CT3+021310CW111560102885010
013399999953138201406240405I+39012-114209CRN05+201799999V02099999999999999999N999999999+02131+99999999999ADDAO105000091CB105+0000010CG1+0464110CG2+0483210CG3+0467910CH105+021810011610CO199-08CT1+021310CT2+021410CT3+021310CW111560102885010
013399999953138201406240405I+39012-114209CRN05+201799999V02099999999999999999N999999999+02131+99999999999ADDAO105000091CB105+0000010CG1+0464110CG2+0483210CG3+0467910CH105+021810011610CO199-08CT1+021310CT2+021410CT3+021310CW111560102885010
013399999953138201406240405I+39012-114209CRN05+201799999V02099999999999999999N999999999+02131+99999999999ADDAO105000091CB105+0000010CG1+0464110CG2+0483210CG3+0467910CH105+021810011610CO199-08CT1+021310CT2+021410CT3+021310CW111560102885010
013399999953138201406240405I+39012-114209CRN05+201799999V02099999999999999999N999999999+02131+99999999999ADDAO105000091CB105+0000010CG1+0464110CG2+0483210CG3+0467910CH105+021810011610CO199-08CT1+021310CT2+021410CT3+021310CW111560102885010
013399999953138201406240405I+39012-114209CRN05+201799999V02099999999999999999N999999999+02131+99999999999ADDAO105000091CB105+0000010CG1+0464110CG2+0483210CG3+0467910CH105+021810011610CO199-08CT1+021310CT2+021410CT3+021310CW111560102885010
013399999953138201406240405I+39012-114209CRN05+201799999V02099999999999999999N999999999+02131+99999999999ADDAO105000091CB105+0000010CG1+0464110CG2+0483210CG3+0467910CH105+021810011610CO199-08CT1+021310CT2+021410CT3+021310CW111560102885010
013399999953138201406240405I+39012-114209CRN05+201799999V02099999999999999999N999999999+02131+99999999999ADDAO105000091CB105+0000010CG1+0464110CG2+0483210CG3+0467910CH105+021810011610CO199-08CT1+021310CT2+021410CT3+021310CW111560102885010
013399999953138201406240405I+39012-114209CRN05+201799999V02099999999999999999N999999999+02131+99999999999ADDAO105000091CB105+0000010CG1+0464110CG2+0483210CG3+0467910CH105+021810011610CO199-08CT1+021310CT2+021410CT3+021310CW111560102885010
013399999953138201406240405I+39012-114209CRN05+201799999V02099999999999999999N999999999+02131+99999999999ADDAO105000091CB105+0000010CG1+0464110CG2+0483210CG3+0467910CH105+021810011610CO199-08CT1+021310CT2+021410CT3+021310CW111560102885010
013399999953138201406240405I+39012-114209CRN05+201799999V02099999999999999999N999999999+02131+99999999999ADDAO105000091CB105+0000010CG1+0464110CG2+0483210CG3+0467910CH105+021810011610CO199-08CT1+021310CT2+021410CT3+021310CW111560102885010
013399999953138201406240405I+39012-114209CRN05+201799999V02099999999999999999N999999999+02131+99999999999ADDAO105000091CB105+0000010CG1+0464110CG2+0483210CG3+0467910CH105+021810011610CO199-08CT1+021310CT2+021410CT3+021310CW111560102885010
013399999953138201406240405I+39012-114209CRN05+201799999V02099999999999999999N999999999+02131+99999999999ADDAO105000091CB105+0000010CG1+0464110CG2+0483210CG3+0467910CH105+021810011610CO199-08CT1+021310CT2+021410CT3+021310CW111560102885010
013399999953138201406240405I+39012-114209CRN05+201799999V02099999999999999999N999999999+02131+99999999999ADDAO105000091CB105+0000010CG1+0464110CG2+0483210CG3+0467910CH105+021810011610CO199-08CT1+021310CT2+021410CT3+021310CW111560102885010
013399999953138201406240405I+39012-114209CRN05+201799999V02099999999999999999N999999999+02131+99999999999ADDAO105000091CB105+0000010CG1+0464110CG2+0483210CG3+0467910CH105+021810011610CO199-08CT1+021310CT2+021410CT3+021310CW111560102885010
013399999953138201406240405I+39012-114209CRN05+201799999V02099999999999999999N999999999+02131+99999999999ADDAO105000091CB105+0000010CG1+0464110CG2+0483210CG3+0467910CH105+021810011610CO199-08CT1+021310CT2+021410CT3+021310CW111560102885010
013399999953138201406240405I+39012-114209CRN05+201799999V02099999999999999999N999999999+02131+99999999999ADDAO105000091CB105+0000010CG1+0464110CG2+0483210CG3+0467910CH105+021810011610CO199-08CT1+021310CT2+021410CT3+021310CW111560102885010
013399999953138201406240405I+39012-114209CRN05+201799999V02099999999999999999N999999999+02131+99999999999ADDAO105000091CB105+0000010CG1+0464110CG2+0483210CG3+0467910CH105+021810011610CO199-08CT1+021310CT2+021410CT3+021310CW111560102885010
013399999953138201406240405I+39012-114209CRN05+201799999V02099999999999999999N999999999+02131+99999999999ADDAO105000091CB105+0000010CG1+0464110CG2+0483210CG3+0467910CH105+021810011610CO199-08CT1+021310CT2+021410CT3+021310CW111560102885010
013399999953138201406240405I+39012-114209CRN05+201799999V02099999999999999999N999999999+02131+99999999999ADDAO105000091CB105+0000010CG1+0464110CG2+0483210CG3+0467910CH105+021810011610CO199-08CT1+021310CT2+021410CT3+021310CW111560102885010
013399999953138201406240405I+39012-114209CRN05+201799999V02099999999999999999N999999999+02131+99999999999ADDAO105000091CB105+0000010CG1+0464110CG2+0483210CG3+0467910CH105+021810011610CO199-08CT1+021310CT2+021410CT3+021310CW111560102885010
013399999953138201406240405I+39012-114209CRN05+201799999V02099999999999999999N999999999+02131+99999999999ADDAO105000091CB105+0000010CG1+0464110CG2+0483210CG3+0467910CH105+021810011610CO199-08CT1+021310CT2+021410CT3+021310CW111560102885010
013399999953138201406240405I+39012-114209CRN05+201799999V02099999999999999999N999999999+02131+99999999999ADDAO105000091CB105+0000010CG1+0464110CG2+0483210CG3+0467910CH105+021810011610CO199-08CT1+021310CT2+021410CT3+021310CW111560102885010
013399999953138201406240405I+39012-114209CRN05+201799999V02099999999999999999N999999999+02131+99999999999ADDAO105000091CB105+0000010CG1+0464110CG2+0483210CG3+0467910CH105+021810011610CO199-08CT1+021310CT2+021410CT3+021310CW111560102885010
013399999953138201406240405I+39012-114209CRN05+201799999V02099999999999999999N999999999+02131+99999999999ADDAO105000091CB105+0000010CG1+0464110CG2+0483210CG3+0467910CH105+021810011610CO199-08CT1+021310CT2+021410CT3+021310CW111560102885010
013399999953138201406240405I+39012-114209CRN05+201799999V02099999999999999999N999999999+02131+99999999999ADDAO105000091CB105+0000010CG1+0464110CG2+0483210CG3+0467910CH105+021810011610CO199-08CT1+021310CT2+021410CT3+021310CW111560102885010
013399999953138201406240405I+39012-114209CRN05+201799999V02099999999999999999N999999999+02131+99999999999ADDAO105000091CB105+0000010CG1+0464110CG2+0483210CG3+0467910CH105+021810011610CO199-08CT1+021310CT2+021410CT3+021310CW111560102885010
013399999953138201406240405I+39012-114209CRN05+201799999V02099999999999999999N999999999+02131+99999999999ADDAO105000091CB105+0000010CG1+0464110CG2+0483210CG3+0467910CH105+021810011610CO199-08CT1+021310CT2+021410CT3+021310CW111560102885010
013399999953138201406240405I+39012-114209CRN05+201799999V02099999999999999999N999999999+02131+99999999999ADDAO105000091CB105+0000010CG1+0464110CG2+0483210CG3+0467910CH105+021810011610CO199-08CT1+021310CT2+021410CT3+021310CW111560102885010
013399999953138201406240405I+39012-114209CRN05+201799999V02099999999999999999N999999999+02131+99999999999ADDAO105000091CB105+0000010CG1+0464110CG2+0483210CG3+0467910CH105+021810011610CO199-08CT1+021310CT2+021410CT3+021310CW111560102885010
013399999953138201406240405I+39012-114209CRN05+201799999V02099999999999999999N999999999+02131+99999999999ADDAO105000091CB105+0000010CG1+0464110CG2+0483210CG3+0467910CH105+021810011610CO199-08CT1+021310CT2+021410CT3+021310CW111560102885010
013399999953138201406240405I+39012-114209CRN05+201799999V02099999999999999999N999999999+02131+99999999999ADDAO105000091CB105+0000010CG1+0464110CG2+0483210CG3+0467910CH105+021810011610CO199-08CT1+021310CT2+021410CT3+021310CW111560102885010
013399999953138201406240405I+39012-114209CRN05+201799999V02099999999999999999N999999999+02131+99999999999ADDAO105000091CB105+0000010CG1+0464110CG2+0483210CG3+0467910CH105+021810011610CO199-08CT1+021310CT2+021410CT3+021310CW111560102885010
013399999953138201406240405I+39012-114209CRN05+201799999V02099999999999999999N999999999+02131+99999999999ADDAO105000091CB105+0000010CG1+0464110CG2+0483210CG3+0467910CH105+021810011610CO199-08CT1+021310CT2+021410CT3+021310CW111560102885010
013399999953138201406240405I+39012-114209CRN05+201799999V02099999999999999999N999999999+02131+99999999999ADDAO105000091CB105+0000010CG1+0464110CG2+0483210CG3+0467910CH105+021810011610CO199-08CT1+021310CT2+021410CT3+021310CW111560102885010
013399999953138201406240405I+39012-114209CRN05+201799999V02099999999999999999N999999999+02131+99999999999ADDAO105000091CB105+0000010CG1+0464110CG2+0483210CG3+0467910CH105+021810011610CO199-08CT1+021310CT2+021410CT3+021310CW111560102885010
013399999953138201406240405I+39012-114209CRN05+201799999V02099999999999999999N999999999+02131+99999999999ADDAO105000091CB105+0000010CG1+0464110CG2+0483210CG3+0467910CH105+021810011610CO199-08CT1+021310CT2+021410CT3+021310CW111560102885010
013399999953138201406240405I+39012-114209CRN05+201799999V02099999999999999999N999999999+02131+99999999999ADDAO105000091CB105+0000010CG1+0464110CG2+0483210CG3+0467910CH105+021810011610CO199-08CT1+021310CT2+021410CT3+021310CW111560102885010
013399999953138201406240405I+39012-114209CRN05+201799999V02099999999999999999N999999999+02131+99999999999ADDAO105000091CB105+0000010CG1+0464110CG2+0483210CG3+0467910CH105+021810011610CO199-08CT1+021310CT2+021410CT3+021310CW111560102885010
013399999953138201406240405I+39012-114209CRN05+201799999V02099999999999999999N999999999+02131+99999999999ADDAO105000091CB105+0000010CG1+0464110CG2+0483210CG3+0467910CH105+021810011610CO199-08CT1+021310CT2+021410CT3+021310CW111560102885010
013399999953138201406240405I+39012-114209CRN05+201799999V02099999999999999999N999999999+02131+99999999999ADDAO105000091CB105+0000010CG1+0464110CG2+0483210CG3+0467910CH105+021810011610CO199-08CT1+021310CT2+021410CT3+021310CW111560102885010
013399999953138201406240405I+39012-114209CRN05+201799999V02099999999999999999N999999999+02131+99999999999ADDAO105000091CB105+0000010CG1+0464110CG2+0483210CG3+0467910CH105+021810011610CO199-08CT1+021310CT2+021410CT3+021310CW111560102885010
013399999953138201406240405I+39012-114209CRN05+201799999V02099999999999999999N999999999+02131+99999999999ADDAO105000091CB105+0000010CG1+0464110CG2+0483210CG3+0467910CH105+021810011610CO199-08CT1+021310CT2+021410CT3+021310CW111560102885010
013399999953138201406240405I+39012-114209CRN05+201799999V02099999999999999999N999999999+02131+99999999999ADDAO105000091CB105+0000010CG1+0464110CG2+0483210CG3+0467910CH105+021810011610CO199-08CT1+021310CT2+021410CT3+021310CW111560102885010
013399999953138201406240405I+39012-114209CRN05+201799999V02099999999999999999N999999999+02131+99999999999ADDAO105000091CB105+0000010CG1+0464110CG2+0483210CG3+0467910CH105+021810011610CO199-08CT1+021310CT2+021410CT3+021310CW111560102885010
013399999953138201406240405I+39012-114209CRN05+201799999V02099999999999999999N999999999+02131+99999999999ADDAO105000091CB105+0000010CG1+0464110CG2+0483210CG3+0467910CH105+021810011610CO199-08CT1+021310CT2+021410CT3+021310CW111560102885010
013399999953138201406240405I+39012-114209CRN05+201799999V02099999999999999999N999999999+02131+99999999999ADDAO105000091CB105+0000010CG1+0464110CG2+0483210CG3+0467910CH105+021810011610CO199-08CT1+021310CT2+021410CT3+021310CW111560102885010
013399999953138201406240405I+39012-114209CRN05+201799999V02099999999999999999N999999999+02131+99999999999ADDAO105000091CB105+0000010CG1+0464110CG2+0483210CG3+0467910CH105+021810011610CO199-08CT1+021310CT2+021410CT3+021310CW111560102885010
013399999953138201406240405I+39012-114209CRN05+201799999V02099999999999999999N999999999+02131+99999999999ADDAO105000091CB105+0000010CG1+0464110CG2+0483210CG3+0467910CH105+021810011610CO199-08CT1+021310CT2+021410CT3+021310CW111560102885010
013399999953138201406240405I+39012-114209CRN05+201799999V02099999999999999999N999999999+02131+99999999999ADDAO105000091CB105+0000010CG1+0464110CG2+0483210CG3+0467910CH105+021810011610CO199-08CT1+021310CT2+021410CT3+021310CW111560102885010
013399999953138201406240405I+39012-114209CRN05+201799999V02099999999999999999N999999999+02131+99999999999ADDAO105000091CB105+0000010CG1+0464110CG2+0483210CG3+0467910CH105+021810011610CO199-08CT1+021310CT2+021410CT3+021310CW111560102885010
013399999953138201406240405I+39012-114209CRN05+201799999V02099999999999999999N999999999+02131+99999999999ADDAO105000091CB105+0000010CG1+0464110CG2+0483210CG3+0467910CH105+021810011610CO199-08CT1+021310CT2+021410CT3+021310CW111560102885010
013399999953138201406240405I+39012-114209CRN05+201799999V02099999999999999999N999999999+02131+99999999999ADDAO105000091CB105+0000010CG1+0464110CG2+0483210CG3+0467910CH105+021810011610CO199-08CT1+021310CT2+021410CT3+021310CW111560102885010
013399999953138201406240405I+39012-114209CRN05+201799999V02099999999999999999N999999999+02131+99999999999ADDAO105000091CB105+0000010CG1+0464110CG2+0483210CG3+0467910CH105+021810011610CO199-08CT1+021310CT2+021410CT3+021310CW111560102885010
013399999953138201406240405I+39012-114209CRN05+201799999V02099999999999999999N999999999+02131+99999999999ADDAO105000091CB105+0000010CG1+0464110CG2+0483210CG3+0467910CH105+021810011610CO199-08CT1+021310CT2+021410CT3+021310CW111560102885010
013399999953138201406240405I+39012-114209CRN05+201799999V02099999999999999999N999999999+02131+99999999999ADDAO105000091CB105+0000010CG1+0464110CG2+0483210CG3+0467910CH105+021810011610CO199-08CT1+021310CT2+021410CT3+021310CW111560102885010
013399999953138201406240405I+39012-114209CRN05+201799999V02099999999999999999N999999999+02131+99999999999ADDAO105000091CB105+0000010CG1+0464110CG2+0483210CG3+0467910CH105+021810011610CO199-08CT1+021310CT2+021410CT3+021310CW111560102885010
013399999953138201406240405I+39012-114209CRN05+201799999V02099999999999999999N999999999+02131+99999999999ADDAO105000091CB105+0000010CG1+0464110CG2+0483210CG3+0467910CH105+021810011610CO199-08CT1+021310CT2+021410CT3+021310CW111560102885010
013399999953138201406240405I+39012-114209CRN05+201799999V02099999999999999999N999999999+02131+99999999999ADDAO105000091CB105+0000010CG1+0464110CG2+0483210CG3+0467910CH105+021810011610CO199-08CT1+021310CT2+021410CT3+021310CW111560102885010
013399999953138201406240405I+39012-114209CRN05+201799999V02099999999999999999N999999999+02131+99999999999ADDAO105000091CB105+0000010CG1+0464110CG2+0483210CG3+0467910CH105+021810011610CO199-08CT1+021310CT2+021410CT3+021310CW111560102885010
013399999953138201406240405I+39012-114209CRN05+201799999V02099999999999999999N999999999+02131+99999999999ADDAO105000091CB105+0000010CG1+0464110CG2+0483210CG3+0467910CH105+021810011610CO199-08CT1+021310CT2+021410CT3+021310CW111560102885010
013399999953138201406240405I+39012-114209CRN05+201799999V02099999999999999999N999999999+02131+99999999999ADDAO105000091CB105+0000010CG1+0464110CG2+0483210CG3+0467910CH105+021810011610CO199-08CT1+021310CT2+021410CT3+021310CW111560102885010
013399999953138201406240405I+39012-114209CRN05+201799999V02099999999999999999N999999999+02131+99999999999ADDAO105000091CB105+0000010CG1+0464110CG2+0483210CG3+0467910CH105+021810011610CO199-08CT1+021310CT2+021410CT3+021310CW111560102885010
013399999953138201406240405I+39012-114209CRN05+201799999V02099999999999999999N999999999+02131+99999999999ADDAO105000091CB105+0000010CG1+0464110CG2+0483210CG3+0467910CH105+021810011610CO199-08CT1+021310CT2+021410CT3+021310CW111560102885010
013399999953138201406240405I+39012-114209CRN05+201799999V02099999999999999999N999999999+02131+99999999999ADDAO105000091CB105+0000010CG1+0464110CG2+0483210CG3+0467910CH105+021810011610CO199-08CT1+021310CT2+021410CT3+021310CW111560102885010
013399999953138201406240405I+39012-114209CRN05+201799999V02099999999999999999N999999999+02131+99999999999ADDAO105000091CB105+0000010CG1+0464110CG2+0483210CG3+0467910CH105+021810011610CO199-08CT1+021310CT2+021410CT3+021310CW111560102885010
013399999953138201406240405I+39012-114209CRN05+201799999V02099999999999999999N999999999+02131+99999999999ADDAO105000091CB105+0000010CG1+0464110CG2+0483210CG3+0467910CH105+021810011610CO199-08CT1+021310CT2+021410CT3+021310CW111560102885010
013399999953138201406240405I+39012-114209CRN05+201799999V02099999999999999999N999999999+02131+99999999999ADDAO105000091CB105+0000010CG1+0464110CG2+0483210CG3+0467910CH105+021810011610CO199-08CT1+021310CT2+021410CT3+021310CW111560102885010
013399999953138201406240405I+39012-114209CRN05+201799999V02099999999999999999N999999999+02131+99999999999ADDAO105000091CB105+0000010CG1+0464110CG2+0483210CG3+0467910CH105+021810011610CO199-08CT1+021310CT2+021410CT3+021310CW111560102885010
013399999953138201406240405I+39012-114209CRN05+201799999V02099999999999999999N999999999+02131+99999999999ADDAO105000091CB105+0000010CG1+0464110CG2+0483210CG3+0467910CH105+021810011610CO199-08CT1+021310CT2+021410CT3+021310CW111560102885010
013399999953138201406240405I+39012-114209CRN05+201799999V02099999999999999999N999999999+02131+99999999999ADDAO105000091CB105+0000010CG1+0464110CG2+0483210CG3+0467910CH105+021810011610CO199-08CT1+021310CT2+021410CT3+021310CW111560102885010
013399999953138201406240405I+39012-114209CRN05+201799999V02099999999999999999N999999999+02131+99999999999ADDAO105000091CB105+0000010CG1+0464110CG2+0483210CG3+0467910CH105+021810011610CO199-08CT1+021310CT2+021410CT3+021310CW111560102885010
013399999953138201406240405I+39012-114209CRN05+201799999V02099999999999999999N999999999+02131+99999999999ADDAO105000091CB105+0000010CG1+0464110CG2+0483210CG3+0467910CH105+021810011610CO199-08CT1+021310CT2+021410CT3+021310CW111560102885010
013399999953138201406240405I+39012-114209CRN05+201799999V02099999999999999999N999999999+02131+99999999999ADDAO105000091CB105+0000010CG1+0464110CG2+0483210CG3+0467910CH105+021810011610CO199-08CT1+021310CT2+021410CT3+021310CW111560102885010
013399999953138201406240405I+39012-114209CRN05+201799999V02099999999999999999N999999999+02131+99999999999ADDAO105000091CB105+0000010CG1+0464110CG2+0483210CG3+0467910CH105+021810011610CO199-08CT1+021310CT2+021410CT3+021310CW111560102885010
013399999953138201406240405I+39012-114209CRN05+201799999V02099999999999999999N999999999+02131+99999999999ADDAO105000091CB105+0000010CG1+0464110CG2+0483210CG3+0467910CH105+021810011610CO199-08CT1+021310CT2+021410CT3+021310CW111560102885010
013399999953138201406240405I+39012-114209CRN05+201799999V02099999999999999999N999999999+02131+99999999999ADDAO105000091CB105+0000010CG1+0464110CG2+0483210CG3+0467910CH105+021810011610CO199-08CT1+021310CT2+021410CT3+021310CW111560102885010
013399999953138201406240405I+39012-114209CRN05+201799999V02099999999999999999N999999999+02131+99999999999ADDAO105000091CB105+0000010CG1+0464110CG2+0483210CG3+0467910CH105+021810011610CO199-08CT1+021310CT2+021410CT3+021310CW111560102885010
013399999953138201406240405I+39012-114209CRN05+201799999V02099999999999999999N999999999+02131+99999999999ADDAO105000091CB105+0000010CG1+0464110CG2+0483210CG3+0467910CH105+021810011610CO199-08CT1+021310CT2+021410CT3+021310CW111560102885010
013399999953138201406240405I+39012-114209CRN05+201799999V02099999999999999999N999999999+02131+99999999999ADDAO105000091CB105+0000010CG1+0464110CG2+0483210CG3+0467910CH105+021810011610CO199-08CT1+021310CT2+021410CT3+021310CW111560102885010
013399999953138201406240405I+39012-114209CRN05+201799999V02099999999999999999N999999999+02131+99999999999ADDAO105000091CB105+0000010CG1+0464110CG2+0483210CG3+0467910CH105+021810011610CO199-08CT1+021310CT2+021410CT3+021310CW111560102885010
013399999953138201406240405I+39012-114209CRN05+201799999V02099999999999999999N999999999+02131+99999999999ADDAO105000091CB105+0000010CG1+0464110CG2+0483210CG3+0467910CH105+021810011610CO199-08CT1+021310CT2+021410CT3+021310CW111560102885010
013399999953138201406240405I+39012-114209CRN05+201799999V02099999999999999999N999999999+02131+99999999999ADDAO105000091CB105+0000010CG1+0464110CG2+0483210CG3+0467910CH105+021810011610CO199-08CT1+021310CT2+021410CT3+021310CW111560102885010
013399999953138201406240405I+39012-114209CRN05+201799999V02099999999999999999N999999999+02131+99999999999ADDAO105000091CB105+0000010CG1+0464110CG2+0483210CG3+0467910CH105+021810011610CO199-08CT1+021310CT2+021410CT3+021310CW111560102885010
013399999953138201406240405I+39012-114209CRN05+201799999V02099999999999999999N999999999+02131+99999999999ADDAO105000091CB105+0000010CG1+0464110CG2+0483210CG3+0467910CH105+021810011610CO199-08CT1+021310CT2+021410CT3+021310CW111560102885010
013399999953138201406240405I+39012-114209CRN05+201799999V02099999999999999999N999999999+02131+99999999999ADDAO105000091CB105+0000010CG1+0464110CG2+0483210CG3+0467910CH105+021810011610CO199-08CT1+021310CT2+021410CT3+021310CW111560102885010
013399999953138201406240405I+39012-114209CRN05+201799999V02099999999999999999N999999999+02131+99999999999ADDAO105000091CB105+0000010CG1+0464110CG2+0483210CG3+0467910CH105+021810011610CO199-08CT1+021310CT2+021410CT3+021310CW111560102885010
013399999953138201406240405I+39012-114209CRN05+201799999V02099999999999999999N999999999+02131+99999999999ADDAO105000091CB105+0000010CG1+0464110CG2+0483210CG3+0467910CH105+021810011610CO199-08CT1+021310CT2+021410CT3+021310CW111560102885010
013399999953138201406240405I+39012-114209CRN05+201799999V02099999999999999999N999999999+02131+99999999999ADDAO105000091CB105+0000010CG1+0464110CG2+0483210CG3+0467910CH105+021810011610CO199-08CT1+021310CT2+021410CT3+021310CW111560102885010
013399999953138201406240405I+39012-114209CRN05+201799999V02099999999999999999N999999999+02131+99999999999ADDAO105000091CB105+0000010CG1+0464110CG2+0483210CG3+0467910CH105+021810011610CO199-08CT1+021310CT2+021410CT3+021310CW111560102885010
013399999953138201406240405I+39012-114209CRN05+201799999V02099999999999999999N999999999+02131+99999999999ADDAO105000091CB105+0000010CG1+0464110CG2+0483210CG3+0467910CH105+021810011610CO199-08CT1+021310CT2+021410CT3+021310CW111560102885010
013399999953138201406240405I+39012-114209CRN05+201799999V02099999999999999999N999999999+02131+99999999999ADDAO105000091CB105+0000010CG1+0464110CG2+0483210CG3+0467910CH105+021810011610CO199-08CT1+021310CT2+021410CT3+021310CW111560102885010
013399999953138201406240405I+39012-114209CRN05+201799999V02099999999999999999N999999999+02131+99999999999ADDAO105000091CB105+0000010CG1+0464110CG2+0483210CG3+0467910CH105+021810011610CO199-08CT1+021310CT2+021410CT3+021310CW111560102885010
013399999953138201406240405I+39012-114209CRN05+201799999V02099999999999999999N999999999+02131+99999999999ADDAO105000091CB105+0000010CG1+0464110CG2+0483210CG3+0467910CH105+021810011610CO199-08CT1+021310CT2+021410CT3+021310CW111560102885010
013399999953138201406240405I+39012-114209CRN05+201799999V02099999999999999999N999999999+02131+99999999999ADDAO105000091CB105+0000010CG1+0464110CG2+0483210CG3+0467910CH105+021810011610CO199-08CT1+021310CT2+021410CT3+021310CW111560102885010
013399999953138201406240405I+39012-114209CRN05+201799999V02099999999999999999N999999999+02131+99999999999ADDAO105000091CB105+0000010CG1+0464110CG2+0483210CG3+0467910CH105+021810011610CO199-08CT1+021310CT2+021410CT3+021310CW111560102885010
013399999953138201406240405I+39012-114209CRN05+201799999V02099999999999999999N999999999+02131+99999999999ADDAO105000091CB105+0000010CG1+0464110CG2+0483210CG3+0467910CH105+021810011610CO199-08CT1+021310CT2+021410CT3+021310CW111560102885010
013399999953138201406240405I+39012-114209CRN05+201799999V02099999999999999999N999999999+02131+99999999999ADDAO105000091CB105+0000010CG1+0464110CG2+0483210CG3+0467910CH105+021810011610CO199-08CT1+021310CT2+021410CT3+021310CW111560102885010
013399999953138201406240405I+39012-114209CRN05+201799999V02099999999999999999N999999999+02131+99999999999ADDAO105000091CB105+0000010CG1+0464110CG2+0483210CG3+0467910CH105+021810011610CO199-08CT1+021310CT2+021410CT3+021310CW111560102885010
013399999953138201406240405I+39012-114209CRN05+201799999V02099999999999999999N999999999+02131+99999999999ADDAO105000091CB105+0000010CG1+0464110CG2+0483210CG3+0467910CH105+021810011610CO199-08CT1+021310CT2+021410CT3+021310CW111560102885010
013399999953138201406240405I+39012-114209CRN05+201799999V02099999999999999999N999999999+02131+99999999999ADDAO105000091CB105+0000010CG1+0464110CG2+0483210CG3+0467910CH105+021810011610CO199-08CT1+021310CT2+021410CT3+021310CW111560102885010
013399999953138201406240405I+39012-114209CRN05+201799999V02099999999999999999N999999999+02131+99999999999ADDAO105000091CB105+0000010CG1+0464110CG2+0483210CG3+0467910CH105+021810011610CO199-08CT1+021310CT2+021410CT3+021310CW111560102885010
013399999953138201406240405I+39012-114209CRN05+201799999V02099999999999999999N999999999+02131+99999999999ADDAO105000091CB105+0000010CG1+0464110CG2+0483210CG3+0467910CH105+021810011610CO199-08CT1+021310CT2+021410CT3+021310CW111560102885010
013399999953138201406240405I+39012-114209CRN05+201799999V02099999999999999999N999999999+02131+99999999999ADDAO105000091CB105+0000010CG1+0464110CG2+0483210CG3+0467910CH105+021810011610CO199-08CT1+021310CT2+021410CT3+021310CW111560102885010
013399999953138201406240405I+39012-114209CRN05+201799999V02099999999999999999N999999999+02131+99999999999ADDAO105000091CB105+0000010CG1+0464110CG2+0483210CG3+0467910CH105+021810011610CO199-08CT1+021310CT2+021410CT3+021310CW111560102885010
013399999953138201406240405I+39012-114209CRN05+201799999V02099999999999999999N999999999+02131+99999999999ADDAO105000091CB105+0000010CG1+0464110CG2+0483210CG3+0467910CH105+021810011610CO199-08CT1+021310CT2+021410CT3+021310CW111560102885010
013399999953138201406240405I+39012-114209CRN05+201799999V02099999999999999999N999999999+02131+99999999999ADDAO105000091CB105+0000010CG1+0464110CG2+0483210CG3+0467910CH105+021810011610CO199-08CT1+021310CT2+021410CT3+021310CW111560102885010
013399999953138201406240405I+39012-114209CRN05+201799999V02099999999999999999N999999999+02131+99999999999ADDAO105000091CB105+0000010CG1+0464110CG2+0483210CG3+0467910CH105+021810011610CO199-08CT1+021310CT2+021410CT3+021310CW111560102885010
013399999953138201406240405I+39012-114209CRN05+201799999V02099999999999999999N999999999+02131+99999999999ADDAO105000091CB105+0000010CG1+0464110CG2+0483210CG3+0467910CH105+021810011610CO199-08CT1+021310CT2+021410CT3+021310CW111560102885010
013399999953138201406240405I+39012-114209CRN05+201799999V02099999999999999999N999999999+02131+99999999999ADDAO105000091CB105+0000010CG1+0464110CG2+0483210CG3+0467910CH105+021810011610CO199-08CT1+021310CT2+021410CT3+021310CW111560102885010
013399999953138201406240405I+39012-114209CRN05+201799999V02099999999999999999N999999999+02131+99999999999ADDAO105000091CB105+0000010CG1+0464110CG2+0483210CG3+0467910CH105+021810011610CO199-08CT1+021310CT2+021410CT3+021310CW111560102885010
013399999953138201406240405I+39012-114209CRN05+201799999V02099999999999999999N999999999+02131+99999999999ADDAO105000091CB105+0000010CG1+0464110CG2+0483210CG3+0467910CH105+021810011610CO199-08CT1+021310CT2+021410CT3+021310CW111560102885010
013399999953138201406240405I+39012-114209CRN05+201799999V02099999999999999999N999999999+02131+99999999999ADDAO105000091CB105+0000010CG1+0464110CG2+0483210CG3+0467910CH105+021810011610CO199-08CT1+021310CT2+021410CT3+021310CW111560102885010
013399999953138201406240405I+39012-114209CRN05+201799999V02099999999999999999N999999999+02131+99999999999ADDAO105000091CB105+0000010CG1+0464110CG2+0483210CG3+0467910CH105+021810011610CO199-08CT1+021310CT2+021410CT3+021310CW111560102885010
013399999953138201406240405I+39012-114209CRN05+201799999V02099999999999999999N999999999+02131+99999999999ADDAO105000091CB105+0000010CG1+0464110CG2+0483210CG3+0467910CH105+021810011610CO199-08CT1+021310CT2+021410CT3+021310CW111560102885010
013399999953138201406240405I+39012-114209CRN05+201799999V02099999999999999999N999999999+02131+99999999999ADDAO105000091CB105+0000010CG1+0464110CG2+0483210CG3+0467910CH105+021810011610CO199-08CT1+021310CT2+021410CT3+021310CW111560102885010
013399999953138201406240405I+39012-114209CRN05+201799999V02099999999999999999N999999999+02131+99999999999ADDAO105000091CB105+0000010CG1+0464110CG2+0483210CG3+0467910CH105+021810011610CO199-08CT1+021310CT2+021410CT3+021310CW111560102885010
013399999953138201406240405I+39012-114209CRN05+201799999V02099999999999999999N999999999+02131+99999999999ADDAO105000091CB105+0000010CG1+0464110CG2+0483210CG3+0467910CH105+021810011610CO199-08CT1+021310CT2+021410CT3+021310CW111560102885010
013399999953138201406240405I+39012-114209CRN05+201799999V02099999999999999999N999999999+02131+99999999999ADDAO105000091CB105+0000010CG1+0464110CG2+0483210CG3+0467910CH105+021810011610CO199-08CT1+021310CT2+021410CT3+021310CW111560102885010
013399999953138201406240405I+39012-114209CRN05+201799999V02099999999999999999N999999999+02131+99999999999ADDAO105000091CB105+0000010CG1+0464110CG2+0483210CG3+0467910CH105+021810011610CO199-08CT1+021310CT2+021410CT3+021310CW111560102885010
013399999953138201406240405I+39012-114209CRN05+201799999V02099999999999999999N999999999+02131+99999999999ADDAO105000091CB105+0000010CG1+0464110CG2+0483210CG3+0467910CH105+021810011610CO199-08CT1+021310CT2+021410CT3+021310CW111560102885010
013399999953138201406240405I+39012-114209CRN05+201799999V02099999999999999999N999999999+02131+99999999999ADDAO105000091CB105+0000010CG1+0464110CG2+0483210CG3+0467910CH105+021810011610CO199-08CT1+021310CT2+021410CT3+021310CW111560102885010
013399999953138201406240405I+39012-114209CRN05+201799999V02099999999999999999N999999999+02131+99999999999ADDAO105000091CB105+0000010CG1+0464110CG2+0483210CG3+0467910CH105+021810011610CO199-08CT1+021310CT2+021410CT3+021310CW111560102885010
013399999953138201406240405I+39012-114209CRN05+201799999V02099999999999999999N999999999+02131+99999999999ADDAO105000091CB105+0000010CG1+0464110CG2+0483210CG3+0467910CH105+021810011610CO199-08CT1+021310CT2+021410CT3+021310CW111560102885010
013399999953138201406240405I+39012-114209CRN05+201799999V02099999999999999999N999999999+02131+99999999999ADDAO105000091CB105+0000010CG1+0464110CG2+0483210CG3+0467910CH105+021810011610CO199-08CT1+021310CT2+021410CT3+021310CW111560102885010
013399999953138201406240405I+39012-114209CRN05+201799999V02099999999999999999N999999999+02131+99999999999ADDAO105000091CB105+0000010CG1+0464110CG2+0483210CG3+0467910CH105+021810011610CO199-08CT1+021310CT2+021410CT3+021310CW111560102885010
013399999953138201406240405I+39012-114209CRN05+201799999V02099999999999999999N999999999+02131+99999999999ADDAO105000091CB105+0000010CG1+0464110CG2+0483210CG3+0467910CH105+021810011610CO199-08CT1+021310CT2+021410CT3+021310CW111560102885010
013399999953138201406240405I+39012-114209CRN05+201799999V02099999999999999999N999999999+02131+99999999999ADDAO105000091CB105+0000010CG1+0464110CG2+0483210CG3+0467910CH105+021810011610CO199-08CT1+021310CT2+021410CT3+021310CW111560102885010
013399999953138201406240405I+39012-114209CRN05+201799999V02099999999999999999N999999999+02131+99999999999ADDAO105000091CB105+0000010CG1+0464110CG2+0483210CG3+0467910CH105+021810011610CO199-08CT1+021310CT2+021410CT3+021310CW111560102885010
013399999953138201406240405I+39012-114209CRN05+201799999V02099999999999999999N999999999+02131+99999999999ADDAO105000091CB105+0000010CG1+0464110CG2+0483210CG3+0467910CH105+021810011610CO199-08CT1+021310CT2+021410CT3+021310CW111560102885010
013399999953138201406240405I+39012-114209CRN05+201799999V02099999999999999999N999999999+02131+99999999999ADDAO105000091CB105+0000010CG1+0464110CG2+0483210CG3+0467910CH105+021810011610CO199-08CT1+021310CT2+021410CT3+021310CW111560102885010
013399999953138201406240405I+39012-114209CRN05+201799999V02099999999999999999N999999999+02131+99999999999ADDAO105000091CB105+0000010CG1+0464110CG2+0483210CG3+0467910CH105+021810011610CO199-08CT1+021310CT2+021410CT3+021310CW111560102885010
013399999953138201406240405I+39012-114209CRN05+201799999V02099999999999999999N999999999+02131+99999999999ADDAO105000091CB105+0000010CG1+0464110CG2+0483210CG3+0467910CH105+021810011610CO199-08CT1+021310CT2+021410CT3+021310CW111560102885010
013399999953138201406240405I+39012-114209CRN05+201799999V02099999999999999999N999999999+02131+99999999999ADDAO105000091CB105+0000010CG1+0464110CG2+0483210CG3+0467910CH105+021810011610CO199-08CT1+021310CT2+021410CT3+021310CW111560102885010
013399999953138201406240405I+39012-114209CRN05+201799999V02099999999999999999N999999999+02131+99999999999ADDAO105000091CB105+0000010CG1+0464110CG2+0483210CG3+0467910CH105+021810011610CO199-08CT1+021310CT2+021410CT3+021310CW111560102885010
013399999953138201406240405I+39012-114209CRN05+201799999V02099999999999999999N999999999+02131+99999999999ADDAO105000091CB105+0000010CG1+0464110CG2+0483210CG3+0467910CH105+021810011610CO199-08CT1+021310CT2+021410CT3+021310CW111560102885010
013399999953138201406240405I+39012-114209CRN05+201799999V02099999999999999999N999999999+02131+99999999999ADDAO105000091CB105+0000010CG1+0464110CG2+0483210CG3+0467910CH105+021810011610CO199-08CT1+021310CT2+021410CT3+021310CW111560102885010
013399999953138201406240405I+39012-114209CRN05+201799999V02099999999999999999N999999999+02131+99999999999ADDAO105000091CB105+0000010CG1+0464110CG2+0483210CG3+0467910CH105+021810011610CO199-08CT1+021310CT2+021410CT3+021310CW111560102885010
013399999953138201406240405I+39012-114209CRN05+201799999V02099999999999999999N999999999+02131+99999999999ADDAO105000091CB105+0000010CG1+0464110CG2+0483210CG3+0467910CH105+021810011610CO199-08CT1+021310CT2+021410CT3+021310CW111560102885010
013399999953138201406240405I+39012-114209CRN05+201799999V02099999999999999999N999999999+02131+99999999999ADDAO105000091CB105+0000010CG1+0464110CG2+0483210CG3+0467910CH105+021810011610CO199-08CT1+021310CT2+021410CT3+021310CW111560102885010
013399999953138201406240405I+39012-114209CRN05+201799999V02099999999999999999N999999999+02131+99999999999ADDAO105000091CB105+0000010CG1+0464110CG2+0483210CG3+0467910CH105+021810011610CO199-08CT1+021310CT2+021410CT3+021310CW111560102885010
013399999953138201406240405I+39012-114209CRN05+201799999V02099999999999999999N999999999+02131+99999999999ADDAO105000091CB105+0000010CG1+0464110CG2+0483210CG3+0467910CH105+021810011610CO199-08CT1+021310CT2+021410CT3+021310CW111560102885010
013399999953138201406240405I+39012-114209CRN05+201799999V02099999999999999999N999999999+02131+99999999999ADDAO105000091CB105+0000010CG1+0464110CG2+0483210CG3+0467910CH105+021810011610CO199-08CT1+021310CT2+021410CT3+021310CW111560102885010
013399999953138201406240405I+39012-114209CRN05+201799999V02099999999999999999N999999999+02131+99999999999ADDAO105000091CB105+0000010CG1+0464110CG2+0483210CG3+0467910CH105+021810011610CO199-08CT1+021310CT2+021410CT3+021310CW111560102885010
013399999953138201406240405I+39012-114209CRN05+201799999V02099999999999999999N999999999+02131+99999999999ADDAO105000091CB105+0000010CG1+0464110CG2+0483210CG3+0467910CH105+021810011610CO199-08CT1+021310CT2+021410CT3+021310CW111560102885010
013399999953138201406240405I+39012-114209CRN05+201799999V02099999999999999999N999999999+02131+99999999999ADDAO105000091CB105+0000010CG1+0464110CG2+0483210CG3+0467910CH105+021810011610CO199-08CT1+021310CT2+021410CT3+021310CW111560102885010
013399999953138201406240405I+39012-114209CRN05+201799999V02099999999999999999N999999999+02131+99999999999ADDAO105000091CB105+0000010CG1+0464110CG2+0483210CG3+0467910CH105+021810011610CO199-08CT1+021310CT2+021410CT3+021310CW111560102885010
013399999953138201406240405I+39012-114209CRN05+201799999V02099999999999999999N999999999+02131+99999999999ADDAO105000091CB105+0000010CG1+0464110CG2+0483210CG3+0467910CH105+021810011610CO199-08CT1+021310CT2+021410CT3+021310CW111560102885010
013399999953138201406240405I+39012-114209CRN05+201799999V02099999999999999999N999999999+02131+99999999999ADDAO105000091CB105+0000010CG1+0464110CG2+0483210CG3+0467910CH105+021810011610CO199-08CT1+021310CT2+021410CT3+021310CW111560102885010
013399999953138201406240405I+39012-114209CRN05+201799999V02099999999999999999N999999999+02131+99999999999ADDAO105000091CB105+0000010CG1+0464110CG2+0483210CG3+0467910CH105+021810011610CO199-08CT1+021310CT2+021410CT3+021310CW111560102885010
013399999953138201406240405I+39012-114209CRN05+201799999V02099999999999999999N999999999+02131+99999999999ADDAO105000091CB105+0000010CG1+0464110CG2+0483210CG3+0467910CH105+021810011610CO199-08CT1+021310CT2+021410CT3+021310CW111560102885010
013399999953138201406240405I+39012-114209CRN05+201799999V02099999999999999999N999999999+02131+99999999999ADDAO105000091CB105+0000010CG1+0464110CG2+0483210CG3+0467910CH105+021810011610CO199-08CT1+021310CT2+021410CT3+021310CW111560102885010
013399999953138201406240405I+39012-114209CRN05+201799999V02099999999999999999N999999999+02131+99999999999ADDAO105000091CB105+0000010CG1+0464110CG2+0483210CG3+0467910CH105+021810011610CO199-08CT1+021310CT2+021410CT3+021310CW111560102885010
013399999953138201406240405I+39012-114209CRN05+201799999V02099999999999999999N999999999+02131+99999999999ADDAO105000091CB105+0000010CG1+0464110CG2+0483210CG3+0467910CH105+021810011610CO199-08CT1+021310CT2+021410CT3+021310CW111560102885010
013399999953138201406240405I+39012-114209CRN05+201799999V02099999999999999999N999999999+02131+99999999999ADDAO105000091CB105+0000010CG1+0464110CG2+0483210CG3+0467910CH105+021810011610CO199-08CT1+021310CT2+021410CT3+021310CW111560102885010
013399999953138201406240405I+39012-114209CRN05+201799999V02099999999999999999N999999999+02131+99999999999ADDAO105000091CB105+0000010CG1+0464110CG2+0483210CG3+0467910CH105+021810011610CO199-08CT1+021310CT2+021410CT3+021310CW111560102885010
013399999953138201406240405I+39012-114209CRN05+201799999V02099999999999999999N999999999+02131+99999999999ADDAO105000091CB105+0000010CG1+0464110CG2+0483210CG3+0467910CH105+021810011610CO199-08CT1+021310CT2+021410CT3+021310CW111560102885010
013399999953138201406240405I+39012-114209CRN05+201799999V02099999999999999999N999999999+02131+99999999999ADDAO105000091CB105+0000010CG1+0464110CG2+0483210CG3+0467910CH105+021810011610CO199-08CT1+021310CT2+021410CT3+021310CW111560102885010
013399999953138201406240405I+39012-114209CRN05+201799999V02099999999999999999N999999999+02131+99999999999ADDAO105000091CB105+0000010CG1+0464110CG2+0483210CG3+0467910CH105+021810011610CO199-08CT1+021310CT2+021410CT3+021310CW111560102885010
013399999953138201406240405I+39012-114209CRN05+201799999V02099999999999999999N999999999+02131+99999999999ADDAO105000091CB105+0000010CG1+0464110CG2+0483210CG3+0467910CH105+021810011610CO199-08CT1+021310CT2+021410CT3+021310CW111560102885010
013399999953138201406240405I+39012-114209CRN05+201799999V02099999999999999999N999999999+02131+99999999999ADDAO105000091CB105+0000010CG1+0464110CG2+0483210CG3+0467910CH105+021810011610CO199-08CT1+021310CT2+021410CT3+021310CW111560102885010
013399999953138201406240405I+39012-114209CRN05+201799999V02099999999999999999N999999999+02131+99999999999ADDAO105000091CB105+0000010CG1+0464110CG2+0483210CG3+0467910CH105+021810011610CO199-08CT1+021310CT2+021410CT3+021310CW111560102885010
013399999953138201406240405I+39012-114209CRN05+201799999V02099999999999999999N999999999+02131+99999999999ADDAO105000091CB105+0000010CG1+0464110CG2+0483210CG3+0467910CH105+021810011610CO199-08CT1+021310CT2+021410CT3+021310CW111560102885010
013399999953138201406240405I+39012-114209CRN05+201799999V02099999999999999999N999999999+02131+99999999999ADDAO105000091CB105+0000010CG1+0464110CG2+0483210CG3+0467910CH105+021810011610CO199-08CT1+021310CT2+021410CT3+021310CW111560102885010
013399999953138201406240405I+39012-114209CRN05+201799999V02099999999999999999N999999999+02131+99999999999ADDAO105000091CB105+0000010CG1+0464110CG2+0483210CG3+0467910CH105+021810011610CO199-08CT1+021310CT2+021410CT3+021310CW111560102885010
013399999953138201406240405I+39012-114209CRN05+201799999V02099999999999999999N999999999+02131+99999999999ADDAO105000091CB105+0000010CG1+0464110CG2+0483210CG3+0467910CH105+021810011610CO199-08CT1+021310CT2+021410CT3+021310CW111560102885010
013399999953138201406240405I+39012-114209CRN05+201799999V02099999999999999999N999999999+02131+99999999999ADDAO105000091CB105+0000010CG1+0464110CG2+0483210CG3+0467910CH105+021810011610CO199-08CT1+021310CT2+021410CT3+021310CW111560102885010
013399999953138201406240405I+39012-114209CRN05+201799999V02099999999999999999N999999999+02131+99999999999ADDAO105000091CB105+0000010CG1+0464110CG2+0483210CG3+0467910CH105+021810011610CO199-08CT1+021310CT2+021410CT3+021310CW111560102885010
013399999953138201406240405I+39012-114209CRN05+201799999V02099999999999999999N999999999+02131+99999999999ADDAO105000091CB105+0000010CG1+0464110CG2+0483210CG3+0467910CH105+021810011610CO199-08CT1+021310CT2+021410CT3+021310CW111560102885010
013399999953138201406240405I+39012-114209CRN05+201799999V02099999999999999999N999999999+02131+99999999999ADDAO105000091CB105+0000010CG1+0464110CG2+0483210CG3+0467910CH105+021810011610CO199-08CT1+021310CT2+021410CT3+021310CW111560102885010
013399999953138201406240405I+39012-114209CRN05+201799999V02099999999999999999N999999999+02131+99999999999ADDAO105000091CB105+0000010CG1+0464110CG2+0483210CG3+0467910CH105+021810011610CO199-08CT1+021310CT2+021410CT3+021310CW111560102885010
013399999953138201406240405I+39012-114209CRN05+201799999V02099999999999999999N999999999+02131+99999999999ADDAO105000091CB105+0000010CG1+0464110CG2+0483210CG3+0467910CH105+021810011610CO199-08CT1+021310CT2+021410CT3+021310CW111560102885010
013399999953138201406240405I+39012-114209CRN05+201799999V02099999999999999999N999999999+02131+99999999999ADDAO105000091CB105+0000010CG1+0464110CG2+0483210CG3+0467910CH105+021810011610CO199-08CT1+021310CT2+021410CT3+021310CW111560102885010
013399999953138201406240405I+39012-114209CRN05+201799999V02099999999999999999N999999999+02131+99999999999ADDAO105000091CB105+0000010CG1+0464110CG2+0483210CG3+0467910CH105+021810011610CO199-08CT1+021310CT2+021410CT3+021310CW111560102885010
013399999953138201406240405I+39012-114209CRN05+201799999V02099999999999999999N999999999+02131+99999999999ADDAO105000091CB105+0000010CG1+0464110CG2+0483210CG3+0467910CH105+021810011610CO199-08CT1+021310CT2+021410CT3+021310CW111560102885010
013399999953138201406240405I+39012-114209CRN05+201799999V02099999999999999999N999999999+02131+99999999999ADDAO105000091CB105+0000010CG1+0464110CG2+0483210CG3+0467910CH105+021810011610CO199-08CT1+021310CT2+021410CT3+021310CW111560102885010
013399999953138201406240405I+39012-114209CRN05+201799999V02099999999999999999N999999999+02131+99999999999ADDAO105000091CB105+0000010CG1+0464110CG2+0483210CG3+0467910CH105+021810011610CO199-08CT1+021310CT2+021410CT3+021310CW111560102885010
013399999953138201406240405I+39012-114209CRN05+201799999V02099999999999999999N999999999+02131+99999999999ADDAO105000091CB105+0000010CG1+0464110CG2+0483210CG3+0467910CH105+021810011610CO199-08CT1+021310CT2+021410CT3+021310CW111560102885010
013399999953138201406240405I+39012-114209CRN05+201799999V02099999999999999999N999999999+02131+99999999999ADDAO105000091CB105+0000010CG1+0464110CG2+0483210CG3+0467910CH105+021810011610CO199-08CT1+021310CT2+021410CT3+021310CW111560102885010
013399999953138201406240405I+39012-114209CRN05+201799999V02099999999999999999N999999999+02131+99999999999ADDAO105000091CB105+0000010CG1+0464110CG2+0483210CG3+0467910CH105+021810011610CO199-08CT1+021310CT2+021410CT3+021310CW111560102885010
013399999953138201406240405I+39012-114209CRN05+201799999V02099999999999999999N999999999+02131+99999999999ADDAO105000091CB105+0000010CG1+0464110CG2+0483210CG3+0467910CH105+021810011610CO199-08CT1+021310CT2+021410CT3+021310CW111560102885010
013399999953138201406240405I+39012-114209CRN05+201799999V02099999999999999999N999999999+02131+99999999999ADDAO105000091CB105+0000010CG1+0464110CG2+0483210CG3+0467910CH105+021810011610CO199-08CT1+021310CT2+021410CT3+021310CW111560102885010
013399999953138201406240405I+39012-114209CRN05+201799999V02099999999999999999N999999999+02131+99999999999ADDAO105000091CB105+0000010CG1+0464110CG2+0483210CG3+0467910CH105+021810011610CO199-08CT1+021310CT2+021410CT3+021310CW111560102885010
013399999953138201406240405I+39012-114209CRN05+201799999V02099999999999999999N999999999+02131+99999999999ADDAO105000091CB105+0000010CG1+0464110CG2+0483210CG3+0467910CH105+021810011610CO199-08CT1+021310CT2+021410CT3+021310CW111560102885010
013399999953138201406240405I+39012-114209CRN05+201799999V02099999999999999999N999999999+02131+99999999999ADDAO105000091CB105+0000010CG1+0464110CG2+0483210CG3+0467910CH105+021810011610CO199-08CT1+021310CT2+021410CT3+021310CW111560102885010
013399999953138201406240405I+39012-114209CRN05+201799999V02099999999999999999N999999999+02131+99999999999ADDAO105000091CB105+0000010CG1+0464110CG2+0483210CG3+0467910CH105+021810011610CO199-08CT1+021310CT2+021410CT3+021310CW111560102885010
013399999953138201406240405I+39012-114209CRN05+201799999V02099999999999999999N999999999+02131+99999999999ADDAO105000091CB105+0000010CG1+0464110CG2+0483210CG3+0467910CH105+021810011610CO199-08CT1+021310CT2+021410CT3+021310CW111560102885010
013399999953138201406240405I+39012-114209CRN05+201799999V02099999999999999999N999999999+02131+99999999999ADDAO105000091CB105+0000010CG1+0464110CG2+0483210CG3+0467910CH105+021810011610CO199-08CT1+021310CT2+021410CT3+021310CW111560102885010
013399999953138201406240405I+39012-114209CRN05+201799999V02099999999999999999N999999999+02131+99999999999ADDAO105000091CB105+0000010CG1+0464110CG2+0483210CG3+0467910CH105+021810011610CO199-08CT1+021310CT2+021410CT3+021310CW111560102885010
013399999953138201406240405I+39012-114209CRN05+201799999V02099999999999999999N999999999+02131+99999999999ADDAO105000091CB105+0000010CG1+0464110CG2+0483210CG3+0467910CH105+021810011610CO199-08CT1+021310CT2+021410CT3+021310CW111560102885010
013399999953138201406240405I+39012-114209CRN05+201799999V02099999999999999999N999999999+02131+99999999999ADDAO105000091CB105+0000010CG1+0464110CG2+0483210CG3+0467910CH105+021810011610CO199-08CT1+021310CT2+021410CT3+021310CW111560102885010
013399999953138201406240405I+39012-114209CRN05+201799999V02099999999999999999N999999999+02131+99999999999ADDAO105000091CB105+0000010CG1+0464110CG2+0483210CG3+0467910CH105+021810011610CO199-08CT1+021310CT2+021410CT3+021310CW111560102885010
013399999953138201406240405I+39012-114209CRN05+201799999V02099999999999999999N999999999+02131+99999999999ADDAO105000091CB105+0000010CG1+0464110CG2+0483210CG3+0467910CH105+021810011610CO199-08CT1+021310CT2+021410CT3+021310CW111560102885010
013399999953138201406240405I+39012-114209CRN05+201799999V02099999999999999999N999999999+02131+99999999999ADDAO105000091CB105+0000010CG1+0464110CG2+0483210CG3+0467910CH105+021810011610CO199-08CT1+021310CT2+021410CT3+021310CW111560102885010
013399999953138201406240405I+39012-114209CRN05+201799999V02099999999999999999N999999999+02131+99999999999ADDAO105000091CB105+0000010CG1+0464110CG2+0483210CG3+0467910CH105+021810011610CO199-08CT1+021310CT2+021410CT3+021310CW111560102885010
013399999953138201406240405I+39012-114209CRN05+201799999V02099999999999999999N999999999+02131+99999999999ADDAO105000091CB105+0000010CG1+0464110CG2+0483210CG3+0467910CH105+021810011610CO199-08CT1+021310CT2+021410CT3+021310CW111560102885010
013399999953138201406240405I+39012-114209CRN05+201799999V02099999999999999999N999999999+02131+99999999999ADDAO105000091CB105+0000010CG1+0464110CG2+0483210CG3+0467910CH105+021810011610CO199-08CT1+021310CT2+021410CT3+021310CW111560102885010
013399999953138201406240405I+39012-114209CRN05+201799999V02099999999999999999N999999999+02131+99999999999ADDAO105000091CB105+0000010CG1+0464110CG2+0483210CG3+0467910CH105+021810011610CO199-08CT1+021310CT2+021410CT3+021310CW111560102885010
013399999953138201406240405I+39012-114209CRN05+201799999V02099999999999999999N999999999+02131+99999999999ADDAO105000091CB105+0000010CG1+0464110CG2+0483210CG3+0467910CH105+021810011610CO199-08CT1+021310CT2+021410CT3+021310CW111560102885010
013399999953138201406240405I+39012-114209CRN05+201799999V02099999999999999999N999999999+02131+99999999999ADDAO105000091CB105+0000010CG1+0464110CG2+0483210CG3+0467910CH105+021810011610CO199-08CT1+021310CT2+021410CT3+021310CW111560102885010
013399999953138201406240405I+39012-114209CRN05+201799999V02099999999999999999N999999999+02131+99999999999ADDAO105000091CB105+0000010CG1+0464110CG2+0483210CG3+0467910CH105+021810011610CO199-08CT1+021310CT2+021410CT3+021310CW111560102885010
013399999953138201406240405I+39012-114209CRN05+201799999V02099999999999999999N999999999+02131+99999999999ADDAO105000091CB105+0000010CG1+0464110CG2+0483210CG3+0467910CH105+021810011610CO199-08CT1+021310CT2+021410CT3+021310CW111560102885010
013399999953138201406240405I+39012-114209CRN05+201799999V02099999999999999999N999999999+02131+99999999999ADDAO105000091CB105+0000010CG1+0464110CG2+0483210CG3+0467910CH105+021810011610CO199-08CT1+021310CT2+021410CT3+021310CW111560102885010
013399999953138201406240405I+39012-114209CRN05+201799999V02099999999999999999N999999999+02131+99999999999ADDAO105000091CB105+0000010CG1+0464110CG2+0483210CG3+0467910CH105+021810011610CO199-08CT1+021310CT2+021410CT3+021310CW111560102885010
013399999953138201406240405I+39012-114209CRN05+201799999V02099999999999999999N999999999+02131+99999999999ADDAO105000091CB105+0000010CG1+0464110CG2+0483210CG3+0467910CH105+021810011610CO199-08CT1+021310CT2+021410CT3+021310CW111560102885010
013399999953138201406240405I+39012-114209CRN05+201799999V02099999999999999999N999999999+02131+99999999999ADDAO105000091CB105+0000010CG1+0464110CG2+0483210CG3+0467910CH105+021810011610CO199-08CT1+021310CT2+021410CT3+021310CW111560102885010
013399999953138201406240405I+39012-114209CRN05+201799999V02099999999999999999N999999999+02131+99999999999ADDAO105000091CB105+0000010CG1+0464110CG2+0483210CG3+0467910CH105+021810011610CO199-08CT1+021310CT2+021410CT3+021310CW111560102885010
013399999953138201406240405I+39012-114209CRN05+201799999V02099999999999999999N999999999+02131+99999999999ADDAO105000091CB105+0000010CG1+0464110CG2+0483210CG3+0467910CH105+021810011610CO199-08CT1+021310CT2+021410CT3+021310CW111560102885010
013399999953138201406240405I+39012-114209CRN05+201799999V02099999999999999999N999999999+02131+99999999999ADDAO105000091CB105+0000010CG1+0464110CG2+0483210CG3+0467910CH105+021810011610CO199-08CT1+021310CT2+021410CT3+021310CW111560102885010
013399999953138201406240405I+39012-114209CRN05+201799999V02099999999999999999N999999999+02131+99999999999ADDAO105000091CB105+0000010CG1+0464110CG2+0483210CG3+0467910CH105+021810011610CO199-08CT1+021310CT2+021410CT3+021310CW111560102885010
013399999953138201406240405I+39012-114209CRN05+201799999V02099999999999999999N999999999+02131+99999999999ADDAO105000091CB105+0000010CG1+0464110CG2+0483210CG3+0467910CH105+021810011610CO199-08CT1+021310CT2+021410CT3+021310CW111560102885010
013399999953138201406240405I+39012-114209CRN05+201799999V02099999999999999999N999999999+02131+99999999999ADDAO105000091CB105+0000010CG1+0464110CG2+0483210CG3+0467910CH105+021810011610CO199-08CT1+021310CT2+021410CT3+021310CW111560102885010
013399999953138201406240405I+39012-114209CRN05+201799999V02099999999999999999N999999999+02131+99999999999ADDAO105000091CB105+0000010CG1+0464110CG2+0483210CG3+0467910CH105+021810011610CO199-08CT1+021310CT2+021410CT3+021310CW111560102885010
013399999953138201406240405I+39012-114209CRN05+201799999V02099999999999999999N999999999+02131+99999999999ADDAO105000091CB105+0000010CG1+0464110CG2+0483210CG3+0467910CH105+021810011610CO199-08CT1+021310CT2+021410CT3+021310CW111560102885010
013399999953138201406240405I+39012-114209CRN05+201799999V02099999999999999999N999999999+02131+99999999999ADDAO105000091CB105+0000010CG1+0464110CG2+0483210CG3+0467910CH105+021810011610CO199-08CT1+021310CT2+021410CT3+021310CW111560102885010
013399999953138201406240405I+39012-114209CRN05+201799999V02099999999999999999N999999999+02131+99999999999ADDAO105000091CB105+0000010CG1+0464110CG2+0483210CG3+0467910CH105+021810011610CO199-08CT1+021310CT2+021410CT3+021310CW111560102885010
013399999953138201406240405I+39012-114209CRN05+201799999V02099999999999999999N999999999+02131+99999999999ADDAO105000091CB105+0000010CG1+0464110CG2+0483210CG3+0467910CH105+021810011610CO199-08CT1+021310CT2+021410CT3+021310CW111560102885010
013399999953138201406240405I+39012-114209CRN05+201799999V02099999999999999999N999999999+02131+99999999999ADDAO105000091CB105+0000010CG1+0464110CG2+0483210CG3+0467910CH105+021810011610CO199-08CT1+021310CT2+021410CT3+021310CW111560102885010
013399999953138201406240405I+39012-114209CRN05+201799999V02099999999999999999N999999999+02131+99999999999ADDAO105000091CB105+0000010CG1+0464110CG2+0483210CG3+0467910CH105+021810011610CO199-08CT1+021310CT2+021410CT3+021310CW111560102885010
013399999953138201406240405I+39012-114209CRN05+201799999V02099999999999999999N999999999+02131+99999999999ADDAO105000091CB105+0000010CG1+0464110CG2+0483210CG3+0467910CH105+021810011610CO199-08CT1+021310CT2+021410CT3+021310CW111560102885010
013399999953138201406240405I+39012-114209CRN05+201799999V02099999999999999999N999999999+02131+99999999999ADDAO105000091CB105+0000010CG1+0464110CG2+0483210CG3+0467910CH105+021810011610CO199-08CT1+021310CT2+021410CT3+021310CW111560102885010
013399999953138201406240405I+39012-114209CRN05+201799999V02099999999999999999N999999999+02131+99999999999ADDAO105000091CB105+0000010CG1+0464110CG2+0483210CG3+0467910CH105+021810011610CO199-08CT1+021310CT2+021410CT3+021310CW111560102885010
013399999953138201406240405I+39012-114209CRN05+201799999V02099999999999999999N999999999+02131+99999999999ADDAO105000091CB105+0000010CG1+0464110CG2+0483210CG3+0467910CH105+021810011610CO199-08CT1+021310CT2+021410CT3+021310CW111560102885010
013399999953138201406240405I+39012-114209CRN05+201799999V02099999999999999999N999999999+02131+99999999999ADDAO105000091CB105+0000010CG1+0464110CG2+0483210CG3+0467910CH105+021810011610CO199-08CT1+021310CT2+021410CT3+021310CW111560102885010
013399999953138201406240405I+39012-114209CRN05+201799999V02099999999999999999N999999999+02131+99999999999ADDAO105000091CB105+0000010CG1+0464110CG2+0483210CG3+0467910CH105+021810011610CO199-08CT1+021310CT2+021410CT3+021310CW111560102885010
013399999953138201406240405I+39012-114209CRN05+201799999V02099999999999999999N999999999+02131+99999999999ADDAO105000091CB105+0000010CG1+0464110CG2+0483210CG3+0467910CH105+021810011610CO199-08CT1+021310CT2+021410CT3+021310CW111560102885010
013399999953138201406240405I+39012-114209CRN05+201799999V02099999999999999999N999999999+02131+99999999999ADDAO105000091CB105+0000010CG1+0464110CG2+0483210CG3+0467910CH105+021810011610CO199-08CT1+021310CT2+021410CT3+021310CW111560102885010
013399999953138201406240405I+39012-114209CRN05+201799999V02099999999999999999N999999999+02131+99999999999ADDAO105000091CB105+0000010CG1+0464110CG2+0483210CG3+0467910CH105+021810011610CO199-08CT1+021310CT2+021410CT3+021310CW111560102885010
013399999953138201406240405I+39012-114209CRN05+201799999V02099999999999999999N999999999+02131+99999999999ADDAO105000091CB105+0000010CG1+0464110CG2+0483210CG3+0467910CH105+021810011610CO199-08CT1+021310CT2+021410CT3+021310CW111560102885010
013399999953138201406240405I+39012-114209CRN05+201799999V02099999999999999999N999999999+02131+99999999999ADDAO105000091CB105+0000010CG1+0464110CG2+0483210CG3+0467910CH105+021810011610CO199-08CT1+021310CT2+021410CT3+021310CW111560102885010
013399999953138201406240405I+39012-114209CRN05+201799999V02099999999999999999N999999999+02131+99999999999ADDAO105000091CB105+0000010CG1+0464110CG2+0483210CG3+0467910CH105+021810011610CO199-08CT1+021310CT2+021410CT3+021310CW111560102885010
013399999953138201406240405I+39012-114209CRN05+201799999V02099999999999999999N999999999+02131+99999999999ADDAO105000091CB105+0000010CG1+0464110CG2+0483210CG3+0467910CH105+021810011610CO199-08CT1+021310CT2+021410CT3+021310CW111560102885010
013399999953138201406240405I+39012-114209CRN05+201799999V02099999999999999999N999999999+02131+99999999999ADDAO105000091CB105+0000010CG1+0464110CG2+0483210CG3+0467910CH105+021810011610CO199-08CT1+021310CT2+021410CT3+021310CW111560102885010
013399999953138201406240405I+39012-114209CRN05+201799999V02099999999999999999N999999999+02131+99999999999ADDAO105000091CB105+0000010CG1+0464110CG2+0483210CG3+0467910CH105+021810011610CO199-08CT1+021310CT2+021410CT3+021310CW111560102885010
013399999953138201406240405I+39012-114209CRN05+201799999V02099999999999999999N999999999+02131+99999999999ADDAO105000091CB105+0000010CG1+0464110CG2+0483210CG3+0467910CH105+021810011610CO199-08CT1+021310CT2+021410CT3+021310CW111560102885010
013399999953138201406240405I+39012-114209CRN05+201799999V02099999999999999999N999999999+02131+99999999999ADDAO105000091CB105+0000010CG1+0464110CG2+0483210CG3+0467910CH105+021810011610CO199-08CT1+021310CT2+021410CT3+021310CW111560102885010
013399999953138201406240405I+39012-114209CRN05+201799999V02099999999999999999N999999999+02131+99999999999ADDAO105000091CB105+0000010CG1+0464110CG2+0483210CG3+0467910CH105+021810011610CO199-08CT1+021310CT2+021410CT3+021310CW111560102885010
013399999953138201406240405I+39012-114209CRN05+201799999V02099999999999999999N999999999+02131+99999999999ADDAO105000091CB105+0000010CG1+0464110CG2+0483210CG3+0467910CH105+021810011610CO199-08CT1+021310CT2+021410CT3+021310CW111560102885010
013399999953138201406240405I+39012-114209CRN05+201799999V02099999999999999999N999999999+02131+99999999999ADDAO105000091CB105+0000010CG1+0464110CG2+0483210CG3+0467910CH105+021810011610CO199-08CT1+021310CT2+021410CT3+021310CW111560102885010
013399999953138201406240405I+39012-114209CRN05+201799999V02099999999999999999N999999999+02131+99999999999ADDAO105000091CB105+0000010CG1+0464110CG2+0483210CG3+0467910CH105+021810011610CO199-08CT1+021310CT2+021410CT3+021310CW111560102885010
013399999953138201406240405I+39012-114209CRN05+201799999V02099999999999999999N999999999+02131+99999999999ADDAO105000091CB105+0000010CG1+0464110CG2+0483210CG3+0467910CH105+021810011610CO199-08CT1+021310CT2+021410CT3+021310CW111560102885010
013399999953138201406240405I+39012-114209CRN05+201799999V02099999999999999999N999999999+02131+99999999999ADDAO105000091CB105+0000010CG1+0464110CG2+0483210CG3+0467910CH105+021810011610CO199-08CT1+021310CT2+021410CT3+021310CW111560102885010
013399999953138201406240405I+39012-114209CRN05+201799999V02099999999999999999N999999999+02131+99999999999ADDAO105000091CB105+0000010CG1+0464110CG2+0483210CG3+0467910CH105+021810011610CO199-08CT1+021310CT2+021410CT3+021310CW111560102885010
013399999953138201406240405I+39012-114209CRN05+201799999V02099999999999999999N999999999+02131+99999999999ADDAO105000091CB105+0000010CG1+0464110CG2+0483210CG3+0467910CH105+021810011610CO199-08CT1+021310CT2+021410CT3+021310CW111560102885010
013399999953138201406240405I+39012-114209CRN05+201799999V02099999999999999999N999999999+02131+99999999999ADDAO105000091CB105+0000010CG1+0464110CG2+0483210CG3+0467910CH105+021810011610CO199-08CT1+021310CT2+021410CT3+021310CW111560102885010
013399999953138201406240405I+39012-114209CRN05+201799999V02099999999999999999N999999999+02131+99999999999ADDAO105000091CB105+0000010CG1+0464110CG2+0483210CG3+0467910CH105+021810011610CO199-08CT1+021310CT2+021410CT3+021310CW111560102885010
013399999953138201406240405I+39012-114209CRN05+201799999V02099999999999999999N999999999+02131+99999999999ADDAO105000091CB105+0000010CG1+0464110CG2+0483210CG3+0467910CH105+021810011610CO199-08CT1+021310CT2+021410CT3+021310CW111560102885010
013399999953138201406240405I+39012-114209CRN05+201799999V02099999999999999999N999999999+02131+99999999999ADDAO105000091CB105+0000010CG1+0464110CG2+0483210CG3+0467910CH105+021810011610CO199-08CT1+021310CT2+021410CT3+021310CW111560102885010
013399999953138201406240405I+39012-114209CRN05+201799999V02099999999999999999N999999999+02131+99999999999ADDAO105000091CB105+0000010CG1+0464110CG2+0483210CG3+0467910CH105+021810011610CO199-08CT1+021310CT2+021410CT3+021310CW111560102885010
013399999953138201406240405I+39012-114209CRN05+201799999V02099999999999999999N999999999+02131+99999999999ADDAO105000091CB105+0000010CG1+0464110CG2+0483210CG3+0467910CH105+021810011610CO199-08CT1+021310CT2+021410CT3+021310CW111560102885010
013399999953138201406240405I+39012-114209CRN05+201799999V02099999999999999999N999999999+02131+99999999999ADDAO105000091CB105+0000010CG1+0464110CG2+0483210CG3+0467910CH105+021810011610CO199-08CT1+021310CT2+021410CT3+021310CW111560102885010
013399999953138201406240405I+39012-114209CRN05+201799999V02099999999999999999N999999999+02131+99999999999ADDAO105000091CB105+0000010CG1+0464110CG2+0483210CG3+0467910CH105+021810011610CO199-08CT1+021310CT2+021410CT3+021310CW111560102885010
013399999953138201406240405I+39012-114209CRN05+201799999V02099999999999999999N999999999+02131+99999999999ADDAO105000091CB105+0000010CG1+0464110CG2+0483210CG3+0467910CH105+021810011610CO199-08CT1+021310CT2+021410CT3+021310CW111560102885010
013399999953138201406240405I+39012-114209CRN05+201799999V02099999999999999999N999999999+02131+99999999999ADDAO105000091CB105+0000010CG1+0464110CG2+0483210CG3+0467910CH105+021810011610CO199-08CT1+021310CT2+021410CT3+021310CW111560102885010
013399999953138201406240405I+39012-114209CRN05+201799999V02099999999999999999N999999999+02131+99999999999ADDAO105000091CB105+0000010CG1+0464110CG2+0483210CG3+0467910CH105+021810011610CO199-08CT1+021310CT2+021410CT3+021310CW111560102885010
013399999953138201406240405I+39012-114209CRN05+201799999V02099999999999999999N999999999+02131+99999999999ADDAO105000091CB105+0000010CG1+0464110CG2+0483210CG3+0467910CH105+021810011610CO199-08CT1+021310CT2+021410CT3+021310CW111560102885010
013399999953138201406240405I+39012-114209CRN05+201799999V02099999999999999999N999999999+02131+99999999999ADDAO105000091CB105+0000010CG1+0464110CG2+0483210CG3+0467910CH105+021810011610CO199-08CT1+021310CT2+021410CT3+021310CW111560102885010
013399999953138201406240405I+39012-114209CRN05+201799999V02099999999999999999N999999999+02131+99999999999ADDAO105000091CB105+0000010CG1+0464110CG2+0483210CG3+0467910CH105+021810011610CO199-08CT1+021310CT2+021410CT3+021310CW111560102885010
013399999953138201406240405I+39012-114209CRN05+201799999V02099999999999999999N999999999+02131+99999999999ADDAO105000091CB105+0000010CG1+0464110CG2+0483210CG3+0467910CH105+021810011610CO199-08CT1+021310CT2+021410CT3+021310CW111560102885010
013399999953138201406240405I+39012-114209CRN05+201799999V02099999999999999999N999999999+02131+99999999999ADDAO105000091CB105+0000010CG1+0464110CG2+0483210CG3+0467910CH105+021810011610CO199-08CT1+021310CT2+021410CT3+021310CW111560102885010
013399999953138201406240405I+39012-114209CRN05+201799999V02099999999999999999N999999999+02131+99999999999ADDAO105000091CB105+0000010CG1+0464110CG2+0483210CG3+0467910CH105+021810011610CO199-08CT1+021310CT2+021410CT3+021310CW111560102885010
013399999953138201406240405I+39012-114209CRN05+201799999V02099999999999999999N999999999+02131+99999999999ADDAO105000091CB105+0000010CG1+0464110CG2+0483210CG3+0467910CH105+021810011610CO199-08CT1+021310CT2+021410CT3+021310CW111560102885010
013399999953138201406240405I+39012-114209CRN05+201799999V02099999999999999999N999999999+02131+99999999999ADDAO105000091CB105+0000010CG1+0464110CG2+0483210CG3+0467910CH105+021810011610CO199-08CT1+021310CT2+021410CT3+021310CW111560102885010
013399999953138201406240405I+39012-114209CRN05+201799999V02099999999999999999N999999999+02131+99999999999ADDAO105000091CB105+0000010CG1+0464110CG2+0483210CG3+0467910CH105+021810011610CO199-08CT1+021310CT2+021410CT3+021310CW111560102885010
013399999953138201406240405I+39012-114209CRN05+201799999V02099999999999999999N999999999+02131+99999999999ADDAO105000091CB105+0000010CG1+0464110CG2+0483210CG3+0467910CH105+021810011610CO199-08CT1+021310CT2+021410CT3+021310CW111560102885010
013399999953138201406240405I+39012-114209CRN05+201799999V02099999999999999999N999999999+02131+99999999999ADDAO105000091CB105+0000010CG1+0464110CG2+0483210CG3+0467910CH105+021810011610CO199-08CT1+021310CT2+021410CT3+021310CW111560102885010
013399999953138201406240405I+39012-114209CRN05+201799999V02099999999999999999N999999999+02131+99999999999ADDAO105000091CB105+0000010CG1+0464110CG2+0483210CG3+0467910CH105+021810011610CO199-08CT1+021310CT2+021410CT3+021310CW111560102885010
013399999953138201406240405I+39012-114209CRN05+201799999V02099999999999999999N999999999+02131+99999999999ADDAO105000091CB105+0000010CG1+0464110CG2+0483210CG3+0467910CH105+021810011610CO199-08CT1+021310CT2+021410CT3+021310CW111560102885010
013399999953138201406240405I+39012-114209CRN05+201799999V02099999999999999999N999999999+02131+99999999999ADDAO105000091CB105+0000010CG1+0464110CG2+0483210CG3+0467910CH105+021810011610CO199-08CT1+021310CT2+021410CT3+021310CW111560102885010
013399999953138201406240405I+39012-114209CRN05+201799999V02099999999999999999N999999999+02131+99999999999ADDAO105000091CB105+0000010CG1+0464110CG2+0483210CG3+0467910CH105+021810011610CO199-08CT1+021310CT2+021410CT3+021310CW111560102885010
013399999953138201406240405I+39012-114209CRN05+201799999V02099999999999999999N999999999+02131+99999999999ADDAO105000091CB105+0000010CG1+0464110CG2+0483210CG3+0467910CH105+021810011610CO199-08CT1+021310CT2+021410CT3+021310CW111560102885010
013399999953138201406240405I+39012-114209CRN05+201799999V02099999999999999999N999999999+02131+99999999999ADDAO105000091CB105+0000010CG1+0464110CG2+0483210CG3+0467910CH105+021810011610CO199-08CT1+021310CT2+021410CT3+021310CW111560102885010
013399999953138201406240405I+39012-114209CRN05+201799999V02099999999999999999N999999999+02131+99999999999ADDAO105000091CB105+0000010CG1+0464110CG2+0483210CG3+0467910CH105+021810011610CO199-08CT1+021310CT2+021410CT3+021310CW111560102885010
013399999953138201406240405I+39012-114209CRN05+201799999V02099999999999999999N999999999+02131+99999999999ADDAO105000091CB105+0000010CG1+0464110CG2+0483210CG3+0467910CH105+021810011610CO199-08CT1+021310CT2+021410CT3+021310CW111560102885010
013399999953138201406240405I+39012-114209CRN05+201799999V02099999999999999999N999999999+02131+99999999999ADDAO105000091CB105+0000010CG1+0464110CG2+0483210CG3+0467910CH105+021810011610CO199-08CT1+021310CT2+021410CT3+021310CW111560102885010
013399999953138201406240405I+39012-114209CRN05+201799999V02099999999999999999N999999999+02131+99999999999ADDAO105000091CB105+0000010CG1+0464110CG2+0483210CG3+0467910CH105+021810011610CO199-08CT1+021310CT2+021410CT3+021310CW111560102885010
013399999953138201406240405I+39012-114209CRN05+201799999V02099999999999999999N999999999+02131+99999999999ADDAO105000091CB105+0000010CG1+0464110CG2+0483210CG3+0467910CH105+021810011610CO199-08CT1+021310CT2+021410CT3+021310CW111560102885010
013399999953138201406240405I+39012-114209CRN05+201799999V02099999999999999999N999999999+02131+99999999999ADDAO105000091CB105+0000010CG1+0464110CG2+0483210CG3+0467910CH105+021810011610CO199-08CT1+021310CT2+021410CT3+021310CW111560102885010
013399999953138201406240405I+39012-114209CRN05+201799999V02099999999999999999N999999999+02131+99999999999ADDAO105000091CB105+0000010CG1+0464110CG2+0483210CG3+0467910CH105+021810011610CO199-08CT1+021310CT2+021410CT3+021310CW111560102885010
013399999953138201406240405I+39012-114209CRN05+201799999V02099999999999999999N999999999+02131+99999999999ADDAO105000091CB105+0000010CG1+0464110CG2+0483210CG3+0467910CH105+021810011610CO199-08CT1+021310CT2+021410CT3+021310CW111560102885010
013399999953138201406240405I+39012-114209CRN05+201799999V02099999999999999999N999999999+02131+99999999999ADDAO105000091CB105+0000010CG1+0464110CG2+0483210CG3+0467910CH105+021810011610CO199-08CT1+021310CT2+021410CT3+021310CW111560102885010
013399999953138201406240405I+39012-114209CRN05+201799999V02099999999999999999N999999999+02131+99999999999ADDAO105000091CB105+0000010CG1+0464110CG2+0483210CG3+0467910CH105+021810011610CO199-08CT1+021310CT2+021410CT3+021310CW111560102885010
013399999953138201406240405I+39012-114209CRN05+201799999V02099999999999999999N999999999+02131+99999999999ADDAO105000091CB105+0000010CG1+0464110CG2+0483210CG3+0467910CH105+021810011610CO199-08CT1+021310CT2+021410CT3+021310CW111560102885010
013399999953138201406240405I+39012-114209CRN05+201799999V02099999999999999999N999999999+02131+99999999999ADDAO105000091CB105+0000010CG1+0464110CG2+0483210CG3+0467910CH105+021810011610CO199-08CT1+021310CT2+021410CT3+021310CW111560102885010
013399999953138201406240405I+39012-114209CRN05+201799999V02099999999999999999N999999999+02131+99999999999ADDAO105000091CB105+0000010CG1+0464110CG2+0483210CG3+0467910CH105+021810011610CO199-08CT1+021310CT2+021410CT3+021310CW111560102885010
013399999953138201406240405I+39012-114209CRN05+201799999V02099999999999999999N999999999+02131+99999999999ADDAO105000091CB105+0000010CG1+0464110CG2+0483210CG3+0467910CH105+021810011610CO199-08CT1+021310CT2+021410CT3+021310CW111560102885010
013399999953138201406240405I+39012-114209CRN05+201799999V02099999999999999999N999999999+02131+99999999999ADDAO105000091CB105+0000010CG1+0464110CG2+0483210CG3+0467910CH105+021810011610CO199-08CT1+021310CT2+021410CT3+021310CW111560102885010
013399999953138201406240405I+39012-114209CRN05+201799999V02099999999999999999N999999999+02131+99999999999ADDAO105000091CB105+0000010CG1+0464110CG2+0483210CG3+0467910CH105+021810011610CO199-08CT1+021310CT2+021410CT3+021310CW111560102885010
013399999953138201406240405I+39012-114209CRN05+201799999V02099999999999999999N999999999+02131+99999999999ADDAO105000091CB105+0000010CG1+0464110CG2+0483210CG3+0467910CH105+021810011610CO199-08CT1+021310CT2+021410CT3+021310CW111560102885010
013399999953138201406240405I+39012-114209CRN05+201799999V02099999999999999999N999999999+02131+99999999999ADDAO105000091CB105+0000010CG1+0464110CG2+0483210CG3+0467910CH105+021810011610CO199-08CT1+021310CT2+021410CT3+021310CW111560102885010
013399999953138201406240405I+39012-114209CRN05+201799999V02099999999999999999N999999999+02131+99999999999ADDAO105000091CB105+0000010CG1+0464110CG2+0483210CG3+0467910CH105+021810011610CO199-08CT1+021310CT2+021410CT3+021310CW111560102885010
013399999953138201406240405I+39012-114209CRN05+201799999V02099999999999999999N999999999+02131+99999999999ADDAO105000091CB105+0000010CG1+0464110CG2+0483210CG3+0467910CH105+021810011610CO199-08CT1+021310CT2+021410CT3+021310CW111560102885010
013399999953138201406240405I+39012-114209CRN05+201799999V02099999999999999999N999999999+02131+99999999999ADDAO105000091CB105+0000010CG1+0464110CG2+0483210CG3+0467910CH105+021810011610CO199-08CT1+021310CT2+021410CT3+021310CW111560102885010
013399999953138201406240405I+39012-114209CRN05+201799999V02099999999999999999N999999999+02131+99999999999ADDAO105000091CB105+0000010CG1+0464110CG2+0483210CG3+0467910CH105+021810011610CO199-08CT1+021310CT2+021410CT3+021310CW111560102885010
013399999953138201406240405I+39012-114209CRN05+201799999V02099999999999999999N999999999+02131+99999999999ADDAO105000091CB105+0000010CG1+0464110CG2+0483210CG3+0467910CH105+021810011610CO199-08CT1+021310CT2+021410CT3+021310CW111560102885010
013399999953138201406240405I+39012-114209CRN05+201799999V02099999999999999999N999999999+02131+99999999999ADDAO105000091CB105+0000010CG1+0464110CG2+0483210CG3+0467910CH105+021810011610CO199-08CT1+021310CT2+021410CT3+021310CW111560102885010
013399999953138201406240405I+39012-114209CRN05+201799999V02099999999999999999N999999999+02131+99999999999ADDAO105000091CB105+0000010CG1+0464110CG2+0483210CG3+0467910CH105+021810011610CO199-08CT1+021310CT2+021410CT3+021310CW111560102885010
013399999953138201406240405I+39012-114209CRN05+201799999V02099999999999999999N999999999+02131+99999999999ADDAO105000091CB105+0000010CG1+0464110CG2+0483210CG3+0467910CH105+021810011610CO199-08CT1+021310CT2+021410CT3+021310CW111560102885010
013399999953138201406240405I+39012-114209CRN05+201799999V02099999999999999999N999999999+02131+99999999999ADDAO105000091CB105+0000010CG1+0464110CG2+0483210CG3+0467910CH105+021810011610CO199-08CT1+021310CT2+021410CT3+021310CW111560102885010
013399999953138201406240405I+39012-114209CRN05+201799999V02099999999999999999N999999999+02131+99999999999ADDAO105000091CB105+0000010CG1+0464110CG2+0483210CG3+0467910CH105+021810011610CO199-08CT1+021310CT2+021410CT3+021310CW111560102885010
013399999953138201406240405I+39012-114209CRN05+201799999V02099999999999999999N999999999+02131+99999999999ADDAO105000091CB105+0000010CG1+0464110CG2+0483210CG3+0467910CH105+021810011610CO199-08CT1+021310CT2+021410CT3+021310CW111560102885010
013399999953138201406240405I+39012-114209CRN05+201799999V02099999999999999999N999999999+02131+99999999999ADDAO105000091CB105+0000010CG1+0464110CG2+0483210CG3+0467910CH105+021810011610CO199-08CT1+021310CT2+021410CT3+021310CW111560102885010
013399999953138201406240405I+39012-114209CRN05+201799999V02099999999999999999N999999999+02131+99999999999ADDAO105000091CB105+0000010CG1+0464110CG2+0483210CG3+0467910CH105+021810011610CO199-08CT1+021310CT2+021410CT3+021310CW111560102885010
013399999953138201406240405I+39012-114209CRN05+201799999V02099999999999999999N999999999+02131+99999999999ADDAO105000091CB105+0000010CG1+0464110CG2+0483210CG3+0467910CH105+021810011610CO199-08CT1+021310CT2+021410CT3+021310CW111560102885010
013399999953138201406240405I+39012-114209CRN05+201799999V02099999999999999999N999999999+02131+99999999999ADDAO105000091CB105+0000010CG1+0464110CG2+0483210CG3+0467910CH105+021810011610CO199-08CT1+021310CT2+021410CT3+021310CW111560102885010
013399999953138201406240405I+39012-114209CRN05+201799999V02099999999999999999N999999999+02131+99999999999ADDAO105000091CB105+0000010CG1+0464110CG2+0483210CG3+0467910CH105+021810011610CO199-08CT1+021310CT2+021410CT3+021310CW111560102885010
013399999953138201406240405I+39012-114209CRN05+201799999V02099999999999999999N999999999+02131+99999999999ADDAO105000091CB105+0000010CG1+0464110CG2+0483210CG3+0467910CH105+021810011610CO199-08CT1+021310CT2+021410CT3+021310CW111560102885010
013399999953138201406240405I+39012-114209CRN05+201799999V02099999999999999999N999999999+02131+99999999999ADDAO105000091CB105+0000010CG1+0464110CG2+0483210CG3+0467910CH105+021810011610CO199-08CT1+021310CT2+021410CT3+021310CW111560102885010
013399999953138201406240405I+39012-114209CRN05+201799999V02099999999999999999N999999999+02131+99999999999ADDAO105000091CB105+0000010CG1+0464110CG2+0483210CG3+0467910CH105+021810011610CO199-08CT1+021310CT2+021410CT3+021310CW111560102885010
013399999953138201406240405I+39012-114209CRN05+201799999V02099999999999999999N999999999+02131+99999999999ADDAO105000091CB105+0000010CG1+0464110CG2+0483210CG3+0467910CH105+021810011610CO199-08CT1+021310CT2+021410CT3+021310CW111560102885010
013399999953138201406240405I+39012-114209CRN05+201799999V02099999999999999999N999999999+02131+99999999999ADDAO105000091CB105+0000010CG1+0464110CG2+0483210CG3+0467910CH105+021810011610CO199-08CT1+021310CT2+021410CT3+021310CW111560102885010
013399999953138201406240405I+39012-114209CRN05+201799999V02099999999999999999N999999999+02131+99999999999ADDAO105000091CB105+0000010CG1+0464110CG2+0483210CG3+0467910CH105+021810011610CO199-08CT1+021310CT2+021410CT3+021310CW111560102885010
013399999953138201406240405I+39012-114209CRN05+201799999V02099999999999999999N999999999+02131+99999999999ADDAO105000091CB105+0000010CG1+0464110CG2+0483210CG3+0467910CH105+021810011610CO199-08CT1+021310CT2+021410CT3+021310CW111560102885010
013399999953138201406240405I+39012-114209CRN05+201799999V02099999999999999999N999999999+02131+99999999999ADDAO105000091CB105+0000010CG1+0464110CG2+0483210CG3+0467910CH105+021810011610CO199-08CT1+021310CT2+021410CT3+021310CW111560102885010
013399999953138201406240405I+39012-114209CRN05+201799999V02099999999999999999N999999999+02131+99999999999ADDAO105000091CB105+0000010CG1+0464110CG2+0483210CG3+0467910CH105+021810011610CO199-08CT1+021310CT2+021410CT3+021310CW111560102885010
013399999953138201406240405I+39012-114209CRN05+201799999V02099999999999999999N999999999+02131+99999999999ADDAO105000091CB105+0000010CG1+0464110CG2+0483210CG3+0467910CH105+021810011610CO199-08CT1+021310CT2+021410CT3+021310CW111560102885010
013399999953138201406240405I+39012-114209CRN05+201799999V02099999999999999999N999999999+02131+99999999999ADDAO105000091CB105+0000010CG1+0464110CG2+0483210CG3+0467910CH105+021810011610CO199-08CT1+021310CT2+021410CT3+021310CW111560102885010
